# 17310122 - Home Point 5

## Common Data

| Field            | Value                    |
|------------------|--------------------------|
| Zone             | Ru'Aun Gardens (ID: 130) |
| Block Size       | 10568 bytes              |
| Total Events     | 2                        |
| References Count | 449                      |

## List of Events

| Event ID              | Entrypoint   |   Size |   Instructions |
|-----------------------|--------------|--------|----------------|
| [65535](#event-65535) | 0x0000       |      1 |              1 |
| [8704](#event-8704)   | 0x0001       |   8747 |           1227 |

## DAT References (imed_data)

|   Index | Hex Value   |   Dec Value |
|---------|-------------|-------------|
|       0 | 0x0000      |           0 |
|       1 | 0x000F      |          15 |
|       2 | 0x0010      |          16 |
|       3 | 0x0011      |          17 |
|       4 | 0x0012      |          18 |
|       5 | 0x2D95      |       11669 |
|       6 | 0x2D93      |       11667 |
|       7 | 0x2D94      |       11668 |
|       8 | 0x0003      |           3 |
|       9 | 0x40000000  |  1073741824 |
|      10 | 0x0001      |           1 |
|      11 | 0x0002      |           2 |
|      12 | 0x0008      |           8 |
|      13 | 0x001F      |          31 |
|      14 | 0x0007      |           7 |
|      15 | 0x0017      |          23 |
|      16 | 0x0018      |          24 |
|      17 | 0x0009      |           9 |
|      18 | 0x007F      |         127 |
|      19 | 0xFFFFFFFF  |  4294967295 |
|      20 | 0x2D9F      |       11679 |
|      21 | 0x2DA0      |       11680 |
|      22 | 0x0004      |           4 |
|      23 | 0x2DA1      |       11681 |
|      24 | 0x2D90      |       11664 |
|      25 | 0x2D91      |       11665 |
|      26 | 0x2D96      |       11670 |
|      27 | 0x2D9D      |       11677 |
|      28 | 0x001B      |          27 |
|      29 | 0x001C      |          28 |
|      30 | 0xFFFFFFFE  |  4294967294 |
|      31 | 0x2D99      |       11673 |
|      32 | 0x2D9E      |       11678 |
|      33 | 0x2DA2      |       11682 |
|      34 | 0x000A      |          10 |
|      35 | 0x0005      |           5 |
|      36 | 0x2D9A      |       11674 |
|      37 | 0x2D9B      |       11675 |
|      38 | 0x2D9C      |       11676 |
|      39 | 0x18FC      |        6396 |
|      40 | 0x0006      |           6 |
|      41 | 0x2DA3      |       11683 |
|      42 | 0x2DA4      |       11684 |
|      43 | 0x2DA5      |       11685 |
|      44 | 0x2D97      |       11671 |
|      45 | 0x007A      |         122 |
|      46 | 0x0020      |          32 |
|      47 | 0x000B      |          11 |
|      48 | 0x0043      |          67 |
|      49 | 0x2D98      |       11672 |
|      50 | 0x0028      |          40 |
|      51 | 0x00B0      |         176 |
|      52 | 0x00C8      |         200 |
|      53 | 0x003C      |          60 |
|      54 | 0x00B3      |         179 |
|      55 | 0x00B4      |         180 |
|      56 | 0xFFFFFC18  |  4294966296 |
|      57 | 0x0200      |         512 |
|      58 | 0x03E8      |        1000 |
|      59 | 0x0400      |        1024 |
|      60 | 0x0600      |        1536 |
|      61 | 0x0800      |        2048 |
|      62 | 0x0A00      |        2560 |
|      63 | 0x0C00      |        3072 |
|      64 | 0x0E00      |        3584 |
|      65 | 0x00E6      |         230 |
|      66 | 0x00E7      |         231 |
|      67 | 0x00E8      |         232 |
|      68 | 0x00EA      |         234 |
|      69 | 0x00EB      |         235 |
|      70 | 0x00EC      |         236 |
|      71 | 0x00ED      |         237 |
|      72 | 0x00EE      |         238 |
|      73 | 0x00EF      |         239 |
|      74 | 0x00F0      |         240 |
|      75 | 0x00F1      |         241 |
|      76 | 0x00F3      |         243 |
|      77 | 0x00F4      |         244 |
|      78 | 0x00F5      |         245 |
|      79 | 0x00F6      |         246 |
|      80 | 0x001A      |          26 |
|      81 | 0x0030      |          48 |
|      82 | 0x0032      |          50 |
|      83 | 0x0034      |          52 |
|      84 | 0x0100      |         256 |
|      85 | 0x0101      |         257 |
|      86 | 0x008E      |         142 |
|      87 | 0x00F8      |         248 |
|      88 | 0x008F      |         143 |
|      89 | 0x0091      |         145 |
|      90 | 0x00A9      |         169 |
|      91 | 0x00F9      |         249 |
|      92 | 0x00CC      |         204 |
|      93 | 0x00A2      |         162 |
|      94 | 0x007E      |         126 |
|      95 | 0x009E      |         158 |
|      96 | 0x0099      |         153 |
|      97 | 0x00D0      |         208 |
|      98 | 0x00F7      |         247 |
|      99 | 0x0071      |         113 |
|     100 | 0x00FA      |         250 |
|     101 | 0x00FC      |         252 |
|     102 | 0x00A0      |         160 |
|     103 | 0x00CD      |         205 |
|     104 | 0x0082      |         130 |
|     105 | 0x00B2      |         178 |
|     106 | 0x000C      |          12 |
|     107 | 0x0019      |          25 |
|     108 | 0x001D      |          29 |
|     109 | 0x001E      |          30 |
|     110 | 0x0021      |          33 |
|     111 | 0x0022      |          34 |
|     112 | 0x0023      |          35 |
|     113 | 0x003D      |          61 |
|     114 | 0x0035      |          53 |
|     115 | 0x004F      |          79 |
|     116 | 0x0050      |          80 |
|     117 | 0x0057      |          87 |
|     118 | 0x005E      |          94 |
|     119 | 0x0089      |         137 |
|     120 | 0x009B      |         155 |
|     121 | 0x0105      |         261 |
|     122 | 0x0106      |         262 |
|     123 | 0x0107      |         263 |
|     124 | 0x0109      |         265 |
|     125 | 0x010A      |         266 |
|     126 | 0x010B      |         267 |
|     127 | 0x0119      |         281 |
|     128 | 0x0114      |         276 |
|     129 | 0x000D      |          13 |
|     130 | 0x000E      |          14 |
|     131 | 0x0013      |          19 |
|     132 | 0x0014      |          20 |
|     133 | 0x0015      |          21 |
|     134 | 0x0016      |          22 |
|     135 | 0x0026      |          38 |
|     136 | 0x0027      |          39 |
|     137 | 0x0024      |          36 |
|     138 | 0x003B      |          59 |
|     139 | 0x003E      |          62 |
|     140 | 0x003F      |          63 |
|     141 | 0x0040      |          64 |
|     142 | 0x002A      |          42 |
|     143 | 0x0036      |          54 |
|     144 | 0x0037      |          55 |
|     145 | 0x0038      |          56 |
|     146 | 0x002B      |          43 |
|     147 | 0x002E      |          46 |
|     148 | 0x002C      |          44 |
|     149 | 0x002F      |          47 |
|     150 | 0x0031      |          49 |
|     151 | 0x0033      |          51 |
|     152 | 0x0025      |          37 |
|     153 | 0x0029      |          41 |
|     154 | 0x0039      |          57 |
|     155 | 0x0041      |          65 |
|     156 | 0x003A      |          58 |
|     157 | 0x0042      |          66 |
|     158 | 0x002D      |          45 |
|     159 | 0xFFFEB224  |  4294881828 |
|     160 | 0xAFC8      |       45000 |
|     161 | 0x222E0     |      140000 |
|     162 | 0xFFFD484B  |  4294789195 |
|     163 | 0x2710      |       10000 |
|     164 | 0x11170     |       70000 |
|     165 | 0xFFFF6B90  |  4294929296 |
|     166 | 0xBB80      |       48000 |
|     167 | 0xFFFFE890  |  4294961296 |
|     168 | 0x9915      |       39189 |
|     169 | 0x1CCF0     |      118000 |
|     170 | 0xFFFAC040  |  4294623296 |
|     171 | 0xFFFAFEC0  |  4294639296 |
|     172 | 0xFFFD1DB8  |  4294778296 |
|     173 | 0x1EC30     |      126000 |
|     174 | 0x9C40      |       40000 |
|     175 | 0xFFFF82EA  |  4294935274 |
|     176 | 0x21B10     |      138000 |
|     177 | 0xFFFEE67A  |  4294895226 |
|     178 | 0xFFFCC3E0  |  4294755296 |
|     179 | 0x7918      |       31000 |
|     180 | 0xFFFD21A0  |  4294779296 |
|     181 | 0xFFFCD768  |  4294760296 |
|     182 | 0x2BF20     |      180000 |
|     183 | 0x2380      |        9088 |
|     184 | 0x1A1F8     |      107000 |
|     185 | 0xFFFE98A0  |  4294875296 |
|     186 | 0x12110     |       74000 |
|     187 | 0xCF08      |       53000 |
|     188 | 0xFFFEFA48  |  4294900296 |
|     189 | 0xFFFE7D5B  |  4294868315 |
|     190 | 0x7D00      |       32000 |
|     191 | 0xFFFF34E0  |  4294915296 |
|     192 | 0xFFFE7EE4  |  4294868708 |
|     193 | 0x4650      |       18000 |
|     194 | 0x90D4      |       37076 |
|     195 | 0xFFFDA288  |  4294812296 |
|     196 | 0x12F56     |       77654 |
|     197 | 0xFFFFCE32  |  4294954546 |
|     198 | 0xFFFF96E2  |  4294940386 |
|     199 | 0xFFFF8DA4  |  4294938020 |
|     200 | 0x8D15      |       36117 |
|     201 | 0xFFFEB62D  |  4294882861 |
|     202 | 0xFFFF356F  |  4294915439 |
|     203 | 0xFFFE5E08  |  4294860296 |
|     204 | 0xFFFD0E18  |  4294774296 |
|     205 | 0xFFF9AAE8  |  4294552296 |
|     206 | 0xFFF99760  |  4294547296 |
|     207 | 0xFFFFA628  |  4294944296 |
|     208 | 0x33450     |      210000 |
|     209 | 0x69F50     |      434000 |
|     210 | 0x1A9C8     |      109000 |
|     211 | 0xFFFDFC60  |  4294835296 |
|     212 | 0x3B538     |      243000 |
|     213 | 0xFFF0FC40  |  4293983296 |
|     214 | 0xFFFEC780  |  4294887296 |
|     215 | 0xFFF78BF0  |  4294413296 |
|     216 | 0x1388      |        5000 |
|     217 | 0xFFFB3D40  |  4294655296 |
|     218 | 0xFFF862C8  |  4294468296 |
|     219 | 0x7A120     |      500000 |
|     220 | 0x4A768     |      305000 |
|     221 | 0xFFFFFB1E  |  4294966046 |
|     222 | 0xFFFFAD76  |  4294946166 |
|     223 | 0xFFFFB26C  |  4294947436 |
|     224 | 0x19BF1     |      105457 |
|     225 | 0xFFFB8748  |  4294674248 |
|     226 | 0xFFFA6E38  |  4294602296 |
|     227 | 0xFFFFCD38  |  4294954296 |
|     228 | 0xFFF810C0  |  4294447296 |
|     229 | 0xFFFE8130  |  4294869296 |
|     230 | 0xFFF92618  |  4294518296 |
|     231 | 0xFDE8      |       65000 |
|     232 | 0x5C878     |      379000 |
|     233 | 0x67840     |      424000 |
|     234 | 0xFA00      |       64000 |
|     235 | 0xFFFCA888  |  4294748296 |
|     236 | 0xFFFCF2C0  |  4294767296 |
|     237 | 0xFFFF1D70  |  4294909296 |
|     238 | 0x6B6C0     |      440000 |
|     239 | 0x2DA78     |      187000 |
|     240 | 0x1B58      |        7000 |
|     241 | 0xFFF7E1E0  |  4294435296 |
|     242 | 0x8AEA8     |      569000 |
|     243 | 0xFFFFD120  |  4294955296 |
|     244 | 0xFFF97FF0  |  4294541296 |
|     245 | 0xFFF7DDF8  |  4294434296 |
|     246 | 0xFFFB6068  |  4294664296 |
|     247 | 0x157C0     |       88000 |
|     248 | 0x2CAD8     |      183000 |
|     249 | 0x18FC8     |      102344 |
|     250 | 0xFFFF09E8  |  4294904296 |
|     251 | 0x8BE48     |      573000 |
|     252 | 0xFFFD7B78  |  4294802296 |
|     253 | 0xFFFDF878  |  4294834296 |
|     254 | 0x153D8     |       87000 |
|     255 | 0xFFFD15E8  |  4294776296 |
|     256 | 0xFFFE0FE8  |  4294840296 |
|     257 | 0xFFFECF50  |  4294889296 |
|     258 | 0xFFFEFE30  |  4294901296 |
|     259 | 0xFFFFADF8  |  4294946296 |
|     260 | 0x1FBD0     |      130000 |
|     261 | 0xFFFE5A20  |  4294859296 |
|     262 | 0xFFFE7D48  |  4294868296 |
|     263 | 0x7CCE      |       31950 |
|     264 | 0xFFFF36D4  |  4294915796 |
|     265 | 0x36865     |      223333 |
|     266 | 0x0FA0      |        4000 |
|     267 | 0xFFFC1224  |  4294709796 |
|     268 | 0xB8D08     |      757000 |
|     269 | 0xFFFF0218  |  4294902296 |
|     270 | 0xFFFF5614  |  4294923796 |
|     271 | 0x36B0      |       14000 |
|     272 | 0x11F76     |       73590 |
|     273 | 0xFFFEFC6A  |  4294900842 |
|     274 | 0xFFFF7748  |  4294932296 |
|     275 | 0x1E078     |      123000 |
|     276 | 0x1166F     |       71279 |
|     277 | 0x17318     |       95000 |
|     278 | 0xFFFE65D8  |  4294862296 |
|     279 | 0xFFFDB610  |  4294817296 |
|     280 | 0xFFFF5986  |  4294924678 |
|     281 | 0xFFFF7F18  |  4294934296 |
|     282 | 0x6590      |       26000 |
|     283 | 0x1F40      |        8000 |
|     284 | 0xFFFC5E50  |  4294729296 |
|     285 | 0xFFFFB5C8  |  4294948296 |
|     286 | 0x2029D     |      131741 |
|     287 | 0xFFFFC950  |  4294953296 |
|     288 | 0x1E770     |      124784 |
|     289 | 0xFFFF63C0  |  4294927296 |
|     290 | 0x18A88     |      101000 |
|     291 | 0x372D0     |      226000 |
|     292 | 0xFFFFFE81  |  4294966913 |
|     293 | 0xFFFF2540  |  4294911296 |
|     294 | 0xF230      |       62000 |
|     295 | 0xFFFDE108  |  4294828296 |
|     296 | 0xFFFF2158  |  4294910296 |
|     297 | 0xFFFF9E58  |  4294942296 |
|     298 | 0x28E91     |      167569 |
|     299 | 0xFFFF5420  |  4294923296 |
|     300 | 0x3E80      |       16000 |
|     301 | 0xFFFD3388  |  4294783880 |
|     302 | 0xD2F0      |       54000 |
|     303 | 0x227F      |        8831 |
|     304 | 0xFFFFF060  |  4294963296 |
|     305 | 0xFFFE8F07  |  4294872839 |
|     306 | 0x154F6     |       87286 |
|     307 | 0xFFFF47C4  |  4294920132 |
|     308 | 0xFFFED4D7  |  4294890711 |
|     309 | 0x874B      |       34635 |
|     310 | 0xFFFF81D1  |  4294934993 |
|     311 | 0xE9E5      |       59877 |
|     312 | 0x48058     |      295000 |
|     313 | 0xFFFC27A0  |  4294715296 |
|     314 | 0x63DA8     |      409000 |
|     315 | 0xFFFF0DD0  |  4294905296 |
|     316 | 0x2A7B0     |      174000 |
|     317 | 0x4CE78     |      315000 |
|     318 | 0x29BF8     |      171000 |
|     319 | 0xFFFDC1C8  |  4294820296 |
|     320 | 0xFFFB9718  |  4294678296 |
|     321 | 0x101D0     |       66000 |
|     322 | 0x806B0     |      526000 |
|     323 | 0xFFF98F90  |  4294545296 |
|     324 | 0x28C58     |      167000 |
|     325 | 0x26930     |      158000 |
|     326 | 0xFFF97C08  |  4294540296 |
|     327 | 0x1A3A1     |      107425 |
|     328 | 0xFFFFAE30  |  4294946352 |
|     329 | 0xFFFF9C9F  |  4294941855 |
|     330 | 0xC31F      |       49951 |
|     331 | 0xFFFE6F62  |  4294864738 |
|     332 | 0xFFFF7360  |  4294931296 |
|     333 | 0xEE48      |       61000 |
|     334 | 0x7B4A8     |      505000 |
|     335 | 0xFFF87A38  |  4294474296 |
|     336 | 0xFFF86A98  |  4294470296 |
|     337 | 0x2C308     |      181000 |
|     338 | 0xFFFF0B78  |  4294904696 |
|     339 | 0x35B60     |      220000 |
|     340 | 0x704E0     |      460000 |
|     341 | 0x537F0     |      342000 |
|     342 | 0xFFFFB9B0  |  4294949296 |
|     343 | 0x58228     |      361000 |
|     344 | 0xAD188     |      709000 |
|     345 | 0x6D218     |      447000 |
|     346 | 0x64190     |      410000 |
|     347 | 0xFFFB9B00  |  4294679296 |
|     348 | 0x59D80     |      368000 |
|     349 | 0xDCB4      |       56500 |
|     350 | 0xFFFCB058  |  4294750296 |
|     351 | 0xFFFF11B8  |  4294906296 |
|     352 | 0x4201A     |      270362 |
|     353 | 0x13C68     |       81000 |
|     354 | 0x2AF8      |       11000 |
|     355 | 0x2F9B8     |      195000 |
|     356 | 0xFFFEF278  |  4294898296 |
|     357 | 0x0BB8      |        3000 |
|     358 | 0xFFFD5468  |  4294792296 |
|     359 | 0x1ADB0     |      110000 |
|     360 | 0xFFFFC180  |  4294951296 |
|     361 | 0x1A5E0     |      108000 |
|     362 | 0xFFFEF660  |  4294899296 |
|     363 | 0xFFFD7F60  |  4294803296 |
|     364 | 0xFFFE870C  |  4294870796 |
|     365 | 0xFFFC1F29  |  4294713129 |
|     366 | 0x2134      |        8500 |
|     367 | 0x16B48     |       93000 |
|     368 | 0x14050     |       82000 |
|     369 | 0x445C      |       17500 |
|     370 | 0x89738     |      563000 |
|     371 | 0xFFFDC998  |  4294822296 |
|     372 | 0xFFFFEC78  |  4294962296 |
|     373 | 0x97D6      |       38870 |
|     374 | 0x07D0      |        2000 |
|     375 | 0xFFFFF830  |  4294965296 |
|     376 | 0xFFFFFF38  |  4294967096 |
|     377 | 0xFFFFD8F0  |  4294957296 |
|     378 | 0xFFFFE0C0  |  4294959296 |
|     379 | 0xFFFFEC6B  |  4294962283 |
|     380 | 0xFFFFE69C  |  4294960796 |
|     381 | 0xFFFFE020  |  4294959136 |
|     382 | 0xFFFFF63C  |  4294964796 |
|     383 | 0xFFFFE2B4  |  4294959796 |
|     384 | 0x2328      |        9000 |
|     385 | 0x1770      |        6000 |
|     386 | 0xFFFFC251  |  4294951505 |
|     387 | 0x0128      |         296 |
|     388 | 0xFFFFD617  |  4294956567 |
|     389 | 0x0F9F      |        3999 |
|     390 | 0xFFFFFF6A  |  4294967146 |
|     391 | 0x0C80      |        3200 |
|     392 | 0xFFFFFE0C  |  4294966796 |
|     393 | 0xFFFF0920  |  4294904096 |
|     394 | 0x4F4C      |       20300 |
|     395 | 0xFFFF6294  |  4294926996 |
|     396 | 0xFFFF699C  |  4294928796 |
|     397 | 0xFFFFF448  |  4294964296 |
|     398 | 0xFFFFA04C  |  4294942796 |
|     399 | 0x4268      |       17000 |
|     400 | 0xB3B0      |       46000 |
|     401 | 0xFFFEEE90  |  4294897296 |
|     402 | 0xFFFF5BF0  |  4294925296 |
|     403 | 0xFFFF92FD  |  4294939389 |
|     404 | 0xFFFD4E8C  |  4294790796 |
|     405 | 0xFFFFB658  |  4294948440 |
|     406 | 0x3458      |       13400 |
|     407 | 0xFFFD006C  |  4294770796 |
|     408 | 0x59D8      |       23000 |
|     409 | 0xFFFF810C  |  4294934796 |
|     410 | 0x6D60      |       28000 |
|     411 | 0x01F4      |         500 |
|     412 | 0xFFFFEFFC  |  4294963196 |
|     413 | 0xFFFFC3C4  |  4294951876 |
|     414 | 0x86A6      |       34470 |
|     415 | 0xFFFFFF8F  |  4294967183 |
|     416 | 0xC350      |       50000 |
|     417 | 0x22F6      |        8950 |
|     418 | 0x2EE0      |       12000 |
|     419 | 0xFFFFEBB0  |  4294962096 |
|     420 | 0x1FC2      |        8130 |
|     421 | 0xFFFFCB8D  |  4294953869 |
|     422 | 0xFFFFFF42  |  4294967106 |
|     423 | 0x5DC0      |       24000 |
|     424 | 0x1D4C0     |      120000 |
|     425 | 0xFFFFBBA4  |  4294949796 |
|     426 | 0xFFFF72CA  |  4294931146 |
|     427 | 0x0BE7      |        3047 |
|     428 | 0x05A7      |        1447 |
|     429 | 0x0729      |        1833 |
|     430 | 0x0790      |        1936 |
|     431 | 0x0F4F      |        3919 |
|     432 | 0x0088      |         136 |
|     433 | 0x0A74      |        2676 |
|     434 | 0x05A4      |        1444 |
|     435 | 0x0A4F      |        2639 |
|     436 | 0x0C07      |        3079 |
|     437 | 0x0FB6      |        4022 |
|     438 | 0x0F36      |        3894 |
|     439 | 0x046D      |        1133 |
|     440 | 0xFFFFF6AA  |  4294964906 |
|     441 | 0x02AE      |         686 |
|     442 | 0x01C7      |         455 |
|     443 | 0x0811      |        2065 |
|     444 | 0x0CE3      |        3299 |
|     445 | 0x046A      |        1130 |
|     446 | 0xFFFFFC00  |  4294966272 |
|     447 | 0xFFFFFE00  |  4294966784 |
|     448 | 0x0919      |        2329 |

## String References

- **6396**: You do not have enough gil.
- **11664**: You can set this as your current home point. Once you set a home point, you will return there whenever you are incapacitated.
- **11665**: Set this as current home point? [Yes./No.]
- **11667**: A home point can be set as a spot for you to return to Vana'diel when you have been knocked out. You can also use a home point to teleport to other home points.
- **11668**: What will you do? [Travel to another home point./Set this as your home point./Other settings./On second thought, never mind.]
- **11669**: You have registered a new home point! You are now able to teleport here from any other home point.
- **11670**: You may teleport from here to any other home point you have registered.
- **11671**: Teleport where? [Never mind./$8./$8./$8./$8./$8./$8./$8./$8./$8./$8./$8./$8./$8./$8./$8./$8./Previous page./Next page.]
- **11673**: You have not yet registered any other home points, and thus are unable to teleport.
- **11674**: It costs $3 gil to teleport to Home Point #$2 in $8.
- **11675**: There is no fee for teleporting to Home Point #$2 in $8.
- **11676**: Teleport? (Current gil: $0) [[Add to favorites/Remove from favorites]./Yes, please./No, thank you.]
- **11677**: Teleport to which region? [On second thought, none./Select from favorites./Current region./[San d'Oria/Movalpolos]./[Bastok/Tavnazian Arch]./[Windurst/Lumoria]./[Jeuno/Mamool Ja Savage]./[Tavnazia/Halvung]./[West. Aht Urhgan/Arrapago Is]./[Adoulin Isles/Ruins of Alzadaal]./[Ronfaure/Ronfaure Front]./[Zulkheim/Norvallen Front]./[Norvallen/Gustaberg Front]./[Gustaberg/Derfland Front]./[Derfland/Sarutabaruta Front]./[Sarutabaruta/Aragoneu Front]./[Kolshushu/Fauregandi Front]./[Aragoneu/Valdeaunia Front]./[Fauregandi/East. Ulbuka]./[Valdeaunia/Ra'Kaznar]./[Qufim/]./[Li'Telor/]./[Kuzotz/]./[Vollbow/]./[Elshimo Low/]./[Elshimo Up/]./[Tu'Lia/]./Previous page./Next page.]
- **11678**: Teleport where? [None of these./A favorited location./An original area./A Rise of the Zilart area./A Chains of Promathia area./A Treasures of Aht Urhgan area./A Wings of the Goddess area./A Seekers of Adoulin area.]
- **11679**: You may change the method of selecting the area of your desired home point to teleport to.
- **11680**: Which setting would you like? [My current setting./Select by region./Select by expansion.]
- **11681**: You are now selecting by [region/expansion].
- **11683**: Home Point #$2 in $8 has been [registered to/removed from] your list of favorite locations.
- **11684**: Your list of favorite locations is full. You must delete an existing entry in order to register a new one.

## Events

### Event 65535

#### Metadata

| Field        | Value   |
|--------------|---------|
| Entrypoint   | 0x0000  |
| Data Size    | 1 bytes |
| Instructions | 1       |

```
      00 01 02 03 04 05 06 07  08 09 0A 0B 0C 0D 0E 0F
      -- -- -- -- -- -- -- --  -- -- -- -- -- -- -- --
0000: 00                                                .               
```

#### Opcodes

```
  0: 0x0000 [0x00] END_REQSTACK()
```

### Event 8704

#### Metadata

| Field        | Value      |
|--------------|------------|
| Entrypoint   | 0x0001     |
| Data Size    | 8747 bytes |
| Instructions | 914        |

```
      00 01 02 03 04 05 06 07  08 09 0A 0B 0C 0D 0E 0F
      -- -- -- -- -- -- -- --  -- -- -- -- -- -- -- --
0000:    03 00 00 03 10 03 01  00 04 10 03 02 00 05 10   ...............
0010: 03 03 00 06 10 03 12 00  07 10 03 14 00 08 10 03  ................
0020: 1D 00 09 10 41 00 80 01  80 1D 00 04 00 41 02 80  ....A........A..
0030: 02 80 1D 00 05 00 41 03  80 03 80 1D 00 1E 00 41  ......A........A
0040: 04 80 04 80 1D 00 21 00  02 05 00 00 80 02 54 00  ......!.......T.
0050: 48 05 80 23 1A C3 00 06  07 00 06 08 00 06 22 00  H..#..........".
0060: 48 06 80 23 02 08 00 00  80 00 C1 00 24 07 80 07  H..#........$...
0070: 00 00 80 25 02 00 10 08  80 00 87 00 03 01 10 09  ...%............
0080: 80 05 08 00 01 87 00 03  07 00 00 10 02 08 00 00  ................
0090: 80 00 BE 00 02 07 00 00  80 80 A2 00 1A 56 02 01  .............V..
00A0: BE 00 02 07 00 0A 80 80  B0 00 1A 10 02 01 BE 00  ................
00B0: 02 07 00 0B 80 80 BE 00  1A 88 01 01 BE 00 01 64  ...............d
00C0: 00 21 00 40 00 80 01 80  01 10 0C 80 40 02 80 0D  .!.@........@...
00D0: 80 01 10 00 80 43 00 43  01 1A DD 00 1B 41 00 80  .....C.C.....A..
00E0: 0E 80 02 10 2F 00 41 0C  80 01 80 02 10 30 00 41  ..../.A......0.A
00F0: 02 80 0F 80 02 10 31 00  41 10 80 0D 80 02 10 32  ......1.A......2
0100: 00 41 00 80 0E 80 03 10  33 00 41 0C 80 01 80 03  .A......3.A.....
0110: 10 34 00 41 02 80 0F 80  03 10 35 00 41 10 80 0D  .4.A......5.A...
0120: 80 03 10 36 00 41 00 80  0E 80 04 10 37 00 06 3D  ...6.A......7..=
0130: 00 02 3D 00 11 80 03 5C  01 9D 00 FC 12 39 00 3D  ..=....\.....9.=
0140: 00 02 39 00 12 80 02 56  01 9D 05 FC 12 13 80 3D  ..9....V.......=
0150: 00 03 39 00 13 80 0B 3D  00 01 31 01 1A 60 01 1B  ..9....=..1..`..
0160: 06 3D 00 06 38 00 02 3D  00 11 80 03 87 01 9D 00  .=..8..=........
0170: FC 12 39 00 3D 00 02 39  00 00 80 04 81 01 0B 38  ..9.=..9.......8
0180: 00 0B 3D 00 01 66 01 1B  48 14 80 23 03 1F 00 21  ..=..f..H..#...!
0190: 00 0B 1F 00 06 20 00 3C  20 00 00 80 0A 80 24 15  ..... .< .....$.
01A0: 80 1F 00 20 00 25 02 00  10 00 80 00 B1 01 01 0F  ... .%..........
01B0: 02 02 00 10 0A 80 00 E0  01 03 21 00 00 80 40 00  ..........!...@.
01C0: 80 01 80 01 10 16 80 40  02 80 0D 80 01 10 21 00  .......@......!.
01D0: 43 00 43 01 03 03 10 21  00 48 17 80 23 01 0F 02  C.C....!.H..#...
01E0: 02 00 10 0B 80 00 0F 02  03 21 00 0A 80 40 00 80  .........!...@..
01F0: 01 80 01 10 16 80 40 02  80 0D 80 01 10 21 00 43  ......@......!.C
0200: 00 43 01 03 03 10 21 00  48 17 80 23 01 0F 02 1B  .C....!.H..#....
0210: 48 18 80 23 24 19 80 0A  80 00 80 25 02 00 10 00  H..#$......%....
0220: 80 00 4A 02 42 40 00 80  01 80 01 10 0A 80 40 02  ..J.B@........@.
0230: 80 0D 80 01 10 00 80 2C  F8 FF FF 7F F0 FF FF 7F  .......,........
0240: 62 69 6E 64 05 08 00 01  55 02 02 00 10 0A 80 00  bind....U.......
0250: 55 02 01 55 02 1B 06 0A  00 48 1A 80 23 02 21 00  U..U.....H..#.!.
0260: 00 80 80 46 03 06 17 00  06 16 00 06 15 00 06 18  ...F............
0270: 00 06 22 00 02 17 00 00  80 00 43 03 1A 2E 0F 03  ..".......C.....
0280: 03 10 22 00 24 1B 80 16  00 15 00 25 02 00 10 00  ..".$......%....
0290: 80 00 9A 02 05 17 00 01  9A 02 03 16 00 00 10 02  ................
02A0: 16 00 0A 80 80 B0 02 1A  AF 03 06 16 00 01 1C 03  ................
02B0: 02 16 00 0B 80 80 E6 02  9D 00 2C 18 43 00 04 00  ..........,.C...
02C0: 9D 00 0C 14 16 00 43 00  03 22 00 16 00 15 22 00  ......C.."....".
02D0: 10 80 03 43 00 16 00 3F  16 00 43 00 10 80 07 16  ...C...?..C.....
02E0: 00 08 80 01 1C 03 02 16  00 1C 80 80 01 03 02 22  ..............."
02F0: 00 00 80 02 F9 02 0C 22  00 03 16 00 00 80 01 1C  ......."........
0300: 03 02 16 00 1D 80 80 1C  03 02 22 00 0A 80 03 14  ..........".....
0310: 03 0B 22 00 03 16 00 00  80 01 1C 03 02 16 00 00  ..".............
0320: 80 02 40 03 03 43 00 22  00 14 43 00 10 80 07 43  ..@..C."..C....C
0330: 00 16 00 08 43 00 08 80  03 18 00 43 00 1A 22 0B  ....C......C..".
0340: 01 74 02 01 AE 03 02 21  00 0A 80 80 AE 03 06 17  .t.....!........
0350: 00 06 16 00 06 15 00 02  17 00 00 80 00 AB 03 1A  ................
0360: AA 0A 02 15 00 1E 80 00  74 03 48 1F 80 23 05 17  ........t.H..#..
0370: 00 01 A8 03 24 20 80 16  00 15 00 25 02 00 10 00  ....$ .....%....
0380: 80 00 8A 03 05 17 00 01  8A 03 03 16 00 00 10 02  ................
0390: 16 00 00 80 01 A8 03 02  16 00 0A 80 00 A5 03 1A  ................
03A0: AF 03 01 A8 03 1A 52 08  01 57 03 01 AE 03 1B 06  ......R..W......
03B0: 0E 00 06 0D 00 06 4D 00  02 0E 00 00 80 00 E8 05  ......M.........
03C0: 1A 19 07 D4 00 21 80 0D  00 0C 00 25 02 00 10 00  .....!.....%....
03D0: 80 00 DA 03 05 0E 00 01  DA 03 03 0D 00 00 10 02  ................
03E0: 0D 00 22 80 80 F5 03 1A  E9 05 03 0D 00 22 80 05  ..".........."..
03F0: 0E 00 01 F5 03 02 0E 00  00 80 00 DA 05 03 41 00  ..............A.
0400: 0D 00 0C 41 00 9D 00 FC  12 0F 00 41 00 9D 00 2C  ...A.......A...,
0410: 15 03 10 0F 00 9D 00 2C  17 04 10 0F 00 9D 00 2C  .......,.......,
0420: 20 05 10 0F 00 3E 1E 00  00 80 31 04 15 05 10 23   ....>....1....#
0430: 80 03 02 10 12 00 06 39  00 06 41 00 9D 00 2C 1A  .......9..A...,.
0440: 41 00 0F 00 9D 00 2C 1A  39 00 04 00 02 41 00 00  A.....,.9....A..
0450: 80 00 5B 04 48 24 80 23  01 74 04 02 41 00 39 00  ..[.H$.#.t..A.9.
0460: 00 70 04 06 05 10 05 4D  00 48 25 80 23 01 74 04  .p.....M.H%.#.t.
0470: 48 24 80 23 06 4B 00 03  4C 00 0B 80 02 4B 00 00  H$.#.K..L....K..
0480: 80 00 D7 05 05 4B 00 1A  E8 06 02 41 00 00 80 04  .....K.....A....
0490: 9A 04 03 19 17 0A 80 01  9F 04 03 19 17 00 80 03  ................
04A0: 02 10 12 00 24 26 80 4C  00 00 80 25 02 00 10 00  ....$&.L...%....
04B0: 80 00 B7 04 01 B7 04 03  4C 00 00 10 02 4C 00 00  ........L....L..
04C0: 80 80 E3 04 1A E9 05 06  4B 00 02 4D 00 00 80 00  ........K..M....
04D0: DD 04 9D 00 2C 20 05 10  0F 00 01 E0 04 06 05 10  ...., ..........
04E0: 01 D4 05 02 4C 00 0A 80  80 C9 05 02 12 00 05 10  ....L...........
04F0: 03 0B 05 48 27 80 23 05  17 00 05 0E 00 05 0B 00  ...H'.#.........
0500: 05 08 00 03 01 10 09 80  01 C6 05 42 9D 00 2C 15  ...........B..,.
0510: 41 00 0F 00 9D 00 2C 15  39 00 04 00 02 41 00 39  A.....,.9....A.9
0520: 00 00 8F 05 40 00 80 01  80 01 10 0B 80 40 02 80  ....@........@..
0530: 0D 80 01 10 0F 00 43 00  43 01 1A BE 11 1A 1C 12  ......C.C.......
0540: BA F0 FF FF 7F 19 00 1B  00 1A 00 1C 00 40 00 80  .............@..
0550: 01 80 01 10 08 80 40 02  80 0D 80 01 10 0F 00 47  ......@........G
0560: 00 19 00 1B 00 1A 00 1C  00 47 01 1A E7 11 40 00  .........G....@.
0570: 80 01 80 01 10 08 80 40  02 80 0D 80 01 10 00 80  .......@........
0580: 05 17 00 05 0E 00 05 0B  00 05 08 00 01 C6 05 40  ...............@
0590: 00 80 01 80 01 10 0B 80  40 02 80 0D 80 01 10 0F  ........@.......
05A0: 00 43 00 43 01 1A BE 11  40 00 80 01 80 01 10 0B  .C.C....@.......
05B0: 80 40 02 80 0D 80 01 10  0F 00 05 17 00 05 0E 00  .@..............
05C0: 05 0B 00 05 08 00 01 D4  05 02 4C 00 0B 80 80 D4  ..........L.....
05D0: 05 01 D4 05 01 7C 04 01  E5 05 02 0D 00 00 80 01  .....|..........
05E0: E5 05 06 0E 00 01 B8 03  1B 02 19 17 00 80 02 29  ...............)
05F0: 06 40 00 80 01 80 01 10  28 80 40 02 80 0D 80 01  .@......(.@.....
0600: 10 0F 00 43 00 43 01 1A  DD 00 9D 00 2C 15 03 10  ...C.C......,...
0610: 0F 00 9D 00 2C 17 04 10  0F 00 03 19 17 0A 80 48  ....,..........H
0620: 29 80 23 06 0D 00 01 E7  06 1A 60 01 02 38 00 11  ).#.......`..8..
0630: 80 03 6C 06 40 00 80 01  80 01 10 23 80 40 02 80  ..l.@......#.@..
0640: 0D 80 01 10 0F 00 43 00  43 01 1A DD 00 9D 00 2C  ......C.C......,
0650: 15 03 10 0F 00 9D 00 2C  17 04 10 0F 00 03 19 17  .......,........
0660: 00 80 48 29 80 23 05 0D  00 01 E7 06 03 49 00 0F  ..H).#.......I..
0670: 00 48 2A 80 23 1A BB 07  D4 00 2B 80 00 80 0C 00  .H*.#.....+.....
0680: 25 02 00 10 00 80 00 8C  06 01 8C 06 03 41 00 00  %............A..
0690: 10 02 41 00 00 80 02 E2  06 03 0F 00 49 00 0C 41  ..A.........I..A
06A0: 00 40 00 80 01 80 01 10  0E 80 40 02 80 0F 80 01  .@........@.....
06B0: 10 49 00 40 10 80 0D 80  01 10 41 00 43 00 43 01  .I.@......A.C.C.
06C0: 1A DD 00 9D 00 2C 15 03  10 49 00 9D 00 2C 17 04  .....,...I...,..
06D0: 10 49 00 03 19 17 00 80  48 29 80 23 05 0D 00 01  .I......H).#....
06E0: E7 06 03 0F 00 49 00 1B  06 3D 00 03 41 00 13 80  .....I...=..A...
06F0: 02 3D 00 11 80 03 18 07  9D 00 FC 12 39 00 3D 00  .=..........9.=.
0700: 02 39 00 0F 00 00 12 07  03 41 00 3D 00 03 3D 00  .9.......A.=..=.
0710: 11 80 0B 3D 00 01 F0 06  1B 1A A4 11 06 3D 00 06  ...=.........=..
0720: 0C 00 03 0C 00 13 80 02  3D 00 11 80 03 91 07 9D  ........=.......
0730: 00 FC 12 41 00 3D 00 02  41 00 04 00 01 8B 07 02  ...A.=..A.......
0740: 41 00 00 80 04 88 07 3D  0C 00 3D 00 0A 80 9D 00  A......=..=.....
0750: 2C 15 3F 00 41 00 9D 00  2C 17 3B 00 41 00 03 39  ,.?.A...,.;.A..9
0760: 00 3D 00 0B 39 00 D4 01  39 00 00 80 41 00 9D 05  .=..9...9...A...
0770: 2C 13 3F 00 3D 00 03 39  00 3D 00 07 39 00 02 80  ,.?.=..9.=..9...
0780: 9D 05 2C 13 3B 00 39 00  01 8B 07 0B 3D 00 01 27  ..,.;.9.....=..'
0790: 07 10 0C 00 0A 80 3D 0C  00 22 80 0A 80 03 0F 00  ......=.."......
07A0: 04 00 1A E8 06 02 41 00  00 80 04 B5 07 03 19 17  ......A.........
07B0: 0A 80 01 BA 07 03 19 17  00 80 1B 1A A4 11 06 3D  ...............=
07C0: 00 06 0C 00 03 0C 00 13  80 02 3D 00 11 80 03 28  ..........=....(
07D0: 08 9D 00 FC 12 41 00 3D  00 02 41 00 00 80 04 22  .....A.=..A...."
07E0: 08 3D 0C 00 3D 00 0A 80  9D 00 2C 15 3F 00 41 00  .=..=.....,.?.A.
07F0: 9D 00 2C 17 3B 00 41 00  03 39 00 3D 00 0B 39 00  ..,.;.A..9.=..9.
0800: D4 01 39 00 00 80 41 00  9D 05 2C 13 3F 00 3D 00  ..9...A...,.?.=.
0810: 03 39 00 3D 00 07 39 00  02 80 9D 05 2C 13 3B 00  .9.=..9.....,.;.
0820: 39 00 0B 3D 00 01 C9 07  10 0C 00 0A 80 3D 0C 00  9..=.........=..
0830: 22 80 0A 80 03 0F 00 04  00 1A E8 06 02 41 00 00  "............A..
0840: 80 04 4C 08 03 19 17 0A  80 01 51 08 03 19 17 00  ..L.......Q.....
0850: 80 1B 06 0B 00 06 0A 00  06 10 00 02 0B 00 00 80  ................
0860: 00 D2 08 1A D3 08 24 2C  80 0A 00 09 00 25 02 00  ......$,.....%..
0870: 10 00 80 00 7D 08 05 0B  00 1B 01 7D 08 03 0A 00  ....}......}....
0880: 00 10 02 0A 00 03 80 80  9B 08 02 10 00 00 80 02  ................
0890: 95 08 0C 10 00 06 0A 00  01 B4 08 02 0A 00 04 80  ................
08A0: 80 B4 08 02 10 00 0A 80  03 AE 08 0B 10 00 06 0A  ................
08B0: 00 01 B4 08 02 0A 00 00  80 02 CF 08 03 4A 00 0A  .............J..
08C0: 00 0C 4A 00 9D 00 2C 13  13 00 4A 00 1A 24 0C 01  ..J...,...J..$..
08D0: 5B 08 1B 1A A4 11 06 39  00 06 3D 00 06 09 00 06  [......9..=.....
08E0: 40 00 03 23 00 13 80 03  24 00 13 80 03 18 00 16  @..#....$.......
08F0: 00 08 18 00 0B 80 02 3D  00 2D 80 03 6C 09 03 3C  .......=.-..l..<
0900: 00 3D 00 15 3C 00 2E 80  03 3E 00 3D 00 3F 3E 00  .=..<....>.=.?>.
0910: 3E 00 2E 80 06 39 00 9D  00 1C 13 39 00 3C 00 3E  >....9.....9.<.>
0920: 39 00 3E 00 66 09 9D 00  2C 16 44 00 3D 00 3E 14  9.>.f...,.D.=.>.
0930: 00 44 00 66 09 02 44 00  2F 80 00 42 09 03 44 00  .D.f..D./..B..D.
0940: 23 80 02 18 00 44 00 00  66 09 9D 00 2C 15 3F 00  #....D..f...,.?.
0950: 3D 00 02 3D 00 04 00 01  60 09 06 25 00 01 63 09  =..=....`..%..c.
0960: 05 25 00 1A 0F 0A 0B 3D  00 01 F6 08 02 10 00 00  .%.....=........
0970: 80 80 AA 09 03 09 00 23  00 02 40 00 02 80 03 92  .......#..@.....
0980: 09 40 40 00 0D 80 09 00  13 80 10 09 00 0A 80 01  .@@.............
0990: A7 09 40 02 80 0D 80 09  00 13 80 10 09 00 0A 80  ..@.............
09A0: 3D 09 00 04 80 0A 80 01  DC 09 02 10 00 0A 80 80  =...............
09B0: DC 09 1A DD 09 03 09 00  24 00 03 41 00 40 00 08  ........$..A.@..
09C0: 41 00 02 80 40 41 00 0D  80 09 00 13 80 10 09 00  A...@A..........
09D0: 0A 80 3D 09 00 03 80 0A  80 01 DC 09 1B 06 48 00  ..=...........H.
09E0: 06 49 00 06 41 00 02 48  00 02 80 03 0E 0A 03 41  .I..A..H.......A
09F0: 00 48 00 07 41 00 02 80  9D 00 2C 13 49 00 41 00  .H..A.....,.I.A.
0A00: 9D 05 2C 13 49 00 48 00  0B 48 00 01 E6 09 1B 06  ..,.I.H..H......
0A10: 48 00 06 49 00 02 48 00  40 00 05 A9 0A 9D 00 2C  H..I..H.@......,
0A20: 13 49 00 48 00 02 49 00  3F 00 00 60 0A 02 25 00  .I.H..I.?..`..%.
0A30: 00 80 00 58 0A 02 48 00  02 80 03 47 0A 3D 23 00  ...X..H....G.=#.
0A40: 48 00 0A 80 01 58 0A 03  3B 00 48 00 08 3B 00 02  H....X..;.H..;..
0A50: 80 3D 24 00 3B 00 0A 80  03 48 00 40 00 01 A3 0A  .=$.;....H.@....
0A60: 02 49 00 00 80 00 A3 0A  9D 05 2C 13 3F 00 48 00  .I........,.?.H.
0A70: 02 25 00 00 80 00 9B 0A  02 48 00 02 80 03 8A 0A  .%.......H......
0A80: 3D 23 00 48 00 0A 80 01  9B 0A 03 3B 00 48 00 08  =#.H.......;.H..
0A90: 3B 00 02 80 3D 24 00 3B  00 0A 80 0B 40 00 03 48  ;...=$.;....@..H
0AA0: 00 40 00 0B 48 00 01 15  0A 1B 1A A4 11 06 3D 00  .@..H.........=.
0AB0: 06 15 00 03 15 00 13 80  02 3D 00 2D 80 03 1C 0B  .........=.-....
0AC0: 02 3D 00 04 00 01 16 0B  03 3C 00 3D 00 15 3C 00  .=.......<.=..<.
0AD0: 2E 80 03 3E 00 3D 00 3F  3E 00 3E 00 2E 80 06 39  ...>.=.?>.>....9
0AE0: 00 9D 00 1C 13 39 00 3C  00 3E 39 00 3E 00 13 0B  .....9.<.>9.>...
0AF0: 9D 00 2C 16 44 00 3D 00  3E 14 00 44 00 13 0B 02  ..,.D.=.>..D....
0B00: 44 00 2F 80 00 0C 0B 03  44 00 23 80 3D 15 00 44  D./.....D.#.=..D
0B10: 00 0A 80 01 16 0B 0B 3D  00 01 B8 0A 10 15 00 0B  .......=........
0B20: 80 1B 06 0B 00 06 0A 00  02 0B 00 00 80 00 6C 0B  ..............l.
0B30: 1A 6D 0B 24 2C 80 0A 00  09 00 25 02 00 10 00 80  .m.$,.....%.....
0B40: 00 49 0B 05 0B 00 01 49  0B 03 0A 00 00 10 02 0A  .I.....I........
0B50: 00 00 80 02 69 0B 03 3F  00 0A 00 0C 3F 00 9D 00  ....i..?....?...
0B60: 2C 13 13 00 3F 00 1A 24  0C 01 28 0B 1B 1A A4 11  ,...?..$..(.....
0B70: 06 3D 00 06 09 00 06 40  00 03 09 00 13 80 02 3D  .=.....@.......=
0B80: 00 2D 80 03 15 0C 03 3C  00 3D 00 15 3C 00 2E 80  .-.....<.=..<...
0B90: 03 3E 00 3D 00 3F 3E 00  3E 00 2E 80 06 39 00 9D  .>.=.?>.>....9..
0BA0: 00 1C 13 39 00 3C 00 3E  39 00 3E 00 0F 0C 9D 00  ...9.<.>9.>.....
0BB0: 2C 15 3F 00 3D 00 9D 00  2C 16 44 00 3D 00 3E 14  ,.?.=...,.D.=.>.
0BC0: 00 44 00 0F 0C 06 3B 00  02 3B 00 30 80 03 0F 0C  .D....;..;.0....
0BD0: 9D 00 7C 13 41 00 3B 00  02 41 00 3F 00 00 09 0C  ..|.A.;..A.?....
0BE0: 9D 00 0C 14 43 00 3B 00  02 18 00 43 00 00 09 0C  ....C.;....C....
0BF0: 02 3D 00 04 00 01 FE 0B  06 25 00 01 01 0C 05 25  .=.......%.....%
0C00: 00 1A 89 10 03 3B 00 30  80 0B 3B 00 01 C8 0B 0B  .....;.0..;.....
0C10: 3D 00 01 7E 0B 40 40 00  0D 80 09 00 13 80 10 09  =..~.@@.........
0C20: 00 0A 80 1B 06 0E 00 06  0D 00 06 4D 00 02 0E 00  ...........M....
0C30: 00 80 00 2E 0E 1A 2F 0E  03 19 17 13 00 D4 00 31  ....../........1
0C40: 80 0D 00 0C 00 25 02 00  10 00 80 00 54 0C 05 0E  .....%......T...
0C50: 00 01 54 0C 03 0D 00 00  10 02 0E 00 00 80 00 2B  ..T............+
0C60: 0E 1A C2 0E 9D 00 2C 15  03 10 0F 00 03 04 10 0D  ......,.........
0C70: 00 9D 00 2C 20 05 10 0F  00 3E 1E 00 00 80 85 0C  ..., ....>......
0C80: 15 05 10 23 80 03 02 10  12 00 06 39 00 06 41 00  ...#.......9..A.
0C90: 9D 00 2C 1A 41 00 0F 00  9D 00 2C 1A 39 00 04 00  ..,.A.....,.9...
0CA0: 02 41 00 00 80 00 AF 0C  48 24 80 23 01 C8 0C 02  .A......H$.#....
0CB0: 41 00 39 00 00 C4 0C 06  05 10 05 4D 00 48 25 80  A.9........M.H%.
0CC0: 23 01 C8 0C 48 24 80 23  06 4B 00 03 4C 00 0B 80  #...H$.#.K..L...
0CD0: 02 4B 00 00 80 00 2B 0E  05 4B 00 1A E8 06 02 41  .K....+..K.....A
0CE0: 00 00 80 04 EE 0C 03 19  17 0A 80 01 F3 0C 03 19  ................
0CF0: 17 00 80 03 02 10 12 00  24 26 80 4C 00 00 80 25  ........$&.L...%
0D00: 02 00 10 00 80 00 0B 0D  01 0B 0D 03 4C 00 00 10  ............L...
0D10: 02 4C 00 00 80 80 37 0D  1A E9 05 06 4B 00 02 4D  .L....7.....K..M
0D20: 00 00 80 00 31 0D 9D 00  2C 20 05 10 0F 00 01 34  ....1..., .....4
0D30: 0D 06 05 10 01 28 0E 02  4C 00 0A 80 80 1D 0E 02  .....(..L.......
0D40: 12 00 05 10 03 5F 0D 48  27 80 23 05 17 00 05 0E  ....._.H'.#.....
0D50: 00 05 0B 00 05 08 00 03  01 10 09 80 01 1A 0E 42  ...............B
0D60: 9D 00 2C 15 41 00 0F 00  9D 00 2C 15 39 00 04 00  ..,.A.....,.9...
0D70: 02 41 00 39 00 00 E3 0D  40 00 80 01 80 01 10 0B  .A.9....@.......
0D80: 80 40 02 80 0D 80 01 10  0F 00 43 00 43 01 1A BE  .@........C.C...
0D90: 11 1A 1C 12 BA F0 FF FF  7F 19 00 1B 00 1A 00 1C  ................
0DA0: 00 40 00 80 01 80 01 10  08 80 40 02 80 0D 80 01  .@........@.....
0DB0: 10 0F 00 47 00 19 00 1B  00 1A 00 1C 00 47 01 1A  ...G.........G..
0DC0: E7 11 40 00 80 01 80 01  10 08 80 40 02 80 0D 80  ..@........@....
0DD0: 01 10 00 80 05 17 00 05  0E 00 05 0B 00 05 08 00  ................
0DE0: 01 1A 0E 40 00 80 01 80  01 10 0B 80 40 02 80 0D  ...@........@...
0DF0: 80 01 10 0F 00 43 00 43  01 1A BE 11 40 00 80 01  .....C.C....@...
0E00: 80 01 10 0B 80 40 02 80  0D 80 01 10 0F 00 05 17  .....@..........
0E10: 00 05 0E 00 05 0B 00 05  08 00 01 28 0E 02 4C 00  ...........(..L.
0E20: 0B 80 80 28 0E 01 28 0E  01 D0 0C 01 2D 0C 1B 1A  ...(..(.....-...
0E30: A4 11 06 3D 00 06 0C 00  06 41 00 03 41 00 13 00  ...=.....A..A...
0E40: 03 0C 00 13 80 3D 0C 00  00 80 0A 80 02 3D 00 2D  .....=.......=.-
0E50: 80 03 C1 0E 02 3D 00 04  00 01 BB 0E 03 3C 00 3D  .....=.......<.=
0E60: 00 15 3C 00 2E 80 03 3E  00 3D 00 3F 3E 00 3E 00  ..<....>.=.?>.>.
0E70: 2E 80 9D 00 1C 13 39 00  3C 00 3E 39 00 3E 00 BB  ......9.<.>9.>..
0E80: 0E 9D 00 2C 15 3F 00 3D  00 02 3F 00 41 00 00 BB  ...,.?.=..?.A...
0E90: 0E 9D 00 2C 17 3B 00 3D  00 3D 0C 00 3B 00 0A 80  ...,.;.=.=..;...
0EA0: D4 01 3B 00 00 80 3D 00  9D 00 2C 1B 46 00 3D 00  ..;...=...,.F.=.
0EB0: 0C 3B 00 9D 05 2C 13 46  00 3B 00 0B 3D 00 01 4C  .;...,.F.;..=..L
0EC0: 0E 1B 06 3D 00 06 0C 00  06 41 00 03 41 00 13 00  ...=.....A..A...
0ED0: 02 3D 00 2D 80 03 2D 0F  03 3C 00 3D 00 15 3C 00  .=.-..-..<.=..<.
0EE0: 2E 80 03 3E 00 3D 00 3F  3E 00 3E 00 2E 80 9D 00  ...>.=.?>.>.....
0EF0: 1C 13 39 00 3C 00 3E 39  00 3E 00 27 0F 9D 00 2C  ..9.<.>9.>.'...,
0F00: 15 3F 00 3D 00 02 3F 00  41 00 00 27 0F 9D 00 2C  .?.=..?.A..'...,
0F10: 17 3B 00 3D 00 02 3B 00  0D 00 00 27 0F 03 0F 00  .;.=..;....'....
0F20: 3D 00 03 3D 00 2D 80 0B  3D 00 01 D0 0E 1B 1A A4  =..=.-..=.......
0F30: 11 06 3D 00 06 15 00 06  23 00 06 24 00 03 23 00  ..=.....#..$..#.
0F40: 13 80 03 24 00 13 80 02  3D 00 2D 80 03 EB 0F 02  ...$....=.-.....
0F50: 3D 00 04 00 01 E5 0F 03  3C 00 3D 00 15 3C 00 2E  =.......<.=..<..
0F60: 80 03 3E 00 3D 00 3F 3E  00 3E 00 2E 80 06 39 00  ..>.=.?>.>....9.
0F70: 9D 00 1C 13 39 00 3C 00  3E 39 00 3E 00 E2 0F 9D  ....9.<.>9.>....
0F80: 00 2C 15 3F 00 3D 00 9D  00 2C 16 44 00 3D 00 3E  .,.?.=...,.D.=.>
0F90: 14 00 44 00 E2 0F 06 3B  00 02 3B 00 30 80 03 E2  ..D....;..;.0...
0FA0: 0F 9D 00 7C 13 41 00 3B  00 02 41 00 3F 00 00 DC  ...|.A.;..A.?...
0FB0: 0F 9D 00 0C 14 43 00 3B  00 02 43 00 10 80 03 CB  .....C.;..C.....
0FC0: 0F 3D 23 00 43 00 0A 80  01 D7 0F 08 43 00 10 80  .=#.C.......C...
0FD0: 3D 24 00 43 00 0A 80 03  3B 00 30 80 0B 3B 00 01  =$.C....;.0..;..
0FE0: 99 0F 01 E5 0F 0B 3D 00  01 47 0F 06 3B 00 06 43  ......=..G..;..C
0FF0: 00 9D 00 2C 18 3B 00 04  00 9D 00 0C 14 43 00 3B  ...,.;.......C.;
1000: 00 02 43 00 10 80 03 21  10 03 15 00 23 00 3E 15  ..C....!....#.>.
1010: 00 43 00 1B 10 05 3B 00  01 1E 10 06 3B 00 01 3B  .C....;.....;..;
1020: 10 08 43 00 10 80 03 15  00 24 00 3E 15 00 43 00  ..C......$.>..C.
1030: 38 10 05 3B 00 01 3B 10  06 3B 00 02 22 00 00 80  8..;..;..;.."...
1040: 80 4B 10 03 15 00 23 00  01 5B 10 02 22 00 0A 80  .K....#..[.."...
1050: 80 5B 10 03 15 00 24 00  01 5B 10 10 15 00 08 80  .[....$..[......
1060: 02 3B 00 00 80 01 6F 10  3C 15 00 0B 80 0A 80 02  .;....o.<.......
1070: 22 00 00 80 00 81 10 3D  15 00 1D 80 0A 80 01 88  "......=........
1080: 10 3D 15 00 1C 80 0A 80  1B 06 48 00 06 49 00 02  .=........H..I..
1090: 48 00 40 00 05 2A 11 9D  00 2C 13 49 00 48 00 02  H.@..*...,.I.H..
10A0: 49 00 3F 00 00 BE 10 02  25 00 00 80 00 B6 10 3D  I.?.....%......=
10B0: 09 00 48 00 0A 80 03 48  00 40 00 01 24 11 02 49  ..H....H.@..$..I
10C0: 00 00 80 00 E8 10 9D 05  2C 13 3F 00 48 00 02 25  ........,.?.H..%
10D0: 00 00 80 00 DD 10 3D 09  00 48 00 0A 80 0B 40 00  ......=..H....@.
10E0: 03 48 00 40 00 01 24 11  03 26 00 49 00 1A 2B 11  .H.@..$..&.I..+.
10F0: 02 3B 00 28 00 03 24 11  03 2B 00 48 00 03 2C 00  .;.(..$..+.H..,.
1100: 40 00 1A 65 11 9D 05 2C  13 3F 00 48 00 02 25 00  @..e...,.?.H..%.
1110: 00 80 00 1C 11 3D 09 00  48 00 0A 80 0B 40 00 03  .....=..H....@..
1120: 48 00 40 00 0B 48 00 01  8F 10 1B 06 28 00 06 27  H.@..H......(..'
1130: 00 06 29 00 02 29 00 30  80 03 64 11 9D 00 7C 13  ..)..).0..d...|.
1140: 2A 00 29 00 02 2A 00 26  00 00 5E 11 9D 00 0C 14  *.)..*.&..^.....
1150: 27 00 29 00 03 28 00 29  00 03 29 00 30 80 0B 29  '.)..(.)..).0..)
1160: 00 01 34 11 1B 03 2E 00  2C 00 06 2D 00 02 2E 00  ..4.....,..-....
1170: 2B 00 04 A3 11 9D 00 2C  13 45 00 2E 00 41 2E 00  +......,.E...A..
1180: 2E 00 09 00 2D 00 0B 2E  00 9D 05 2C 13 45 00 2E  ....-......,.E..
1190: 00 40 2E 00 2E 00 09 00  2D 00 0C 2E 00 0C 2E 00  .@......-.......
11A0: 01 6D 11 1B 06 3D 00 02  3D 00 32 80 03 BD 11 9D  .m...=..=.2.....
11B0: 05 2C 13 00 80 3D 00 0B  3D 00 01 A7 11 1B CD 33  .,...=..=......3
11C0: 80 F0 FF FF 7F F0 FF FF  7F 6D 61 69 6E 00 80 1C  .........main...
11D0: 34 80 45 34 80 F0 FF FF  7F F0 FF FF 7F 66 64 6F  4.E4.........fdo
11E0: 31 00 80 1C 35 80 1B 45  34 80 F0 FF FF 7F F0 FF  1...5..E4.......
11F0: FF 7F 66 64 69 31 00 80  CD 36 80 F0 FF FF 7F F0  ..fdi1...6......
1200: FF FF 7F 6D 61 69 6E 00  80 1C 37 80 55 34 80 F0  ...main...7.U4..
1210: FF FF 7F F0 FF FF 7F 66  64 69 31 1B 06 3D 00 9D  .......fdi1..=..
1220: 00 2C 1C 19 00 0F 00 9D  00 2C 1E 1A 00 0F 00 9D  .,.......,......
1230: 00 2C 1D 1B 00 0F 00 9D  00 2C 21 47 00 0F 00 02  .,.......,!G....
1240: 47 00 00 80 80 54 12 03  1C 00 00 80 07 19 00 38  G....T.........8
1250: 80 01 FB 12 02 47 00 0A  80 80 6E 12 03 1C 00 39  .....G....n....9
1260: 80 07 19 00 38 80 07 1B  00 3A 80 01 FB 12 02 47  ....8....:.....G
1270: 00 0B 80 80 83 12 03 1C  00 3B 80 07 1B 00 3A 80  .........;....:.
1280: 01 FB 12 02 47 00 08 80  80 9D 12 03 1C 00 3C 80  ....G.........<.
1290: 07 19 00 3A 80 07 1B 00  3A 80 01 FB 12 02 47 00  ...:....:.....G.
12A0: 16 80 80 B2 12 03 1C 00  3D 80 07 19 00 3A 80 01  ........=....:..
12B0: FB 12 02 47 00 23 80 80  CC 12 03 1C 00 3E 80 07  ...G.#.......>..
12C0: 19 00 3A 80 07 1B 00 38  80 01 FB 12 02 47 00 28  ..:....8.....G.(
12D0: 80 80 E1 12 03 1C 00 3F  80 07 1B 00 38 80 01 FB  .......?....8...
12E0: 12 02 47 00 0E 80 80 FB  12 03 1C 00 40 80 07 19  ..G.........@...
12F0: 00 38 80 07 1B 00 38 80  01 FB 12 1B 2F 00 30 00  .8....8...../.0.
1300: 31 00 32 00 33 00 34 00  35 00 36 00 37 00 13 80  1.2.3.4.5.6.7...
1310: 13 80 13 80 13 80 13 80  13 80 13 80 00 00 01 00  ................
1320: 02 00 03 00 00 80 00 80  00 80 00 80 03 10 04 10  ................
1330: 05 10 06 10 07 10 08 10  09 10 00 17 01 17 02 17  ................
1340: 03 17 04 17 05 17 06 17  07 17 08 17 09 17 0A 17  ................
1350: 0B 17 0C 17 0D 17 0E 17  0F 17 10 17 11 17 12 17  ................
1360: 13 17 14 17 15 17 16 17  17 17 18 17 19 17 1A 17  ................
1370: 1B 17 1C 17 1D 17 1E 17  1F 17 02 10 41 80 42 80  ............A.B.
1380: 43 80 44 80 45 80 46 80  47 80 48 80 49 80 4A 80  C.D.E.F.G.H.I.J.
1390: 4B 80 4C 80 4D 80 4E 80  4F 80 50 80 51 80 52 80  K.L.M.N.O.P.Q.R.
13A0: 53 80 54 80 55 80 56 80  57 80 58 80 59 80 5A 80  S.T.U.V.W.X.Y.Z.
13B0: 5B 80 0E 80 11 80 5C 80  23 80 5D 80 5E 80 5F 80  [.....\.#.].^._.
13C0: 60 80 61 80 62 80 63 80  64 80 65 80 66 80 67 80  `.a.b.c.d.e.f.g.
13D0: 68 80 69 80 6A 80 6B 80  6C 80 6D 80 6E 80 6F 80  h.i.j.k.l.m.n.o.
13E0: 70 80 71 80 72 80 73 80  74 80 75 80 76 80 77 80  p.q.r.s.t.u.v.w.
13F0: 78 80 79 80 7A 80 7B 80  7C 80 7D 80 7E 80 7F 80  x.y.z.{.|.}.~...
1400: 80 80 00 80 00 80 00 80  00 80 00 80 00 80 00 80  ................
1410: 00 80 0A 80 0A 80 0A 80  0A 80 0B 80 0B 80 0B 80  ................
1420: 0B 80 08 80 08 80 08 80  08 80 16 80 23 80 23 80  ............#.#.
1430: 23 80 28 80 28 80 0E 80  0C 80 22 80 6A 80 6A 80  #.(.(.....".j.j.
1440: 81 80 82 80 01 80 01 80  02 80 02 80 03 80 03 80  ................
1450: 04 80 83 80 83 80 84 80  85 80 85 80 86 80 86 80  ................
1460: 0F 80 0F 80 10 80 6B 80  6B 80 6B 80 50 80 50 80  ......k.k.k.P.P.
1470: 50 80 1D 80 6C 80 6C 80  0D 80 6E 80 70 80 87 80  P...l.l...n.p...
1480: 87 80 88 80 88 80 88 80  88 80 88 80 88 80 88 80  ................
1490: 32 80 00 80 00 80 00 80  00 80 00 80 00 80 00 80  2...............
14A0: 00 80 00 80 00 80 00 80  00 80 00 80 00 80 00 80  ................
14B0: 00 80 00 80 00 80 00 80  00 80 0B 80 08 80 08 80  ................
14C0: 08 80 2F 80 2F 80 00 80  00 80 00 80 00 80 00 80  .././...........
14D0: 00 80 0B 80 0B 80 00 80  0B 80 00 80 00 80 00 80  ................
14E0: 0A 80 0A 80 0A 80 0A 80  0A 80 0A 80 0A 80 0A 80  ................
14F0: 0A 80 0A 80 0B 80 0B 80  0B 80 0B 80 0B 80 0B 80  ................
1500: 0B 80 08 80 08 80 08 80  16 80 16 80 16 80 16 80  ................
1510: 16 80 2F 80 2F 80 2F 80  2F 80 2F 80 2F 80 2F 80  ../././././././.
1520: 2F 80 00 80 00 80 00 80  00 80 00 80 41 80 41 80  /...........A.A.
1530: 41 80 42 80 42 80 42 80  43 80 43 80 43 80 44 80  A.B.B.B.C.C.C.D.
1540: 44 80 45 80 45 80 45 80  46 80 46 80 47 80 48 80  D.E.E.E.F.F.G.H.
1550: 48 80 49 80 49 80 49 80  4A 80 4A 80 4A 80 4B 80  H.I.I.I.J.J.J.K.
1560: 4B 80 4B 80 4B 80 4C 80  4C 80 4C 80 4D 80 4D 80  K.K.K.L.L.L.M.M.
1570: 4D 80 4E 80 4E 80 4F 80  4F 80 64 80 5B 80 65 80  M.N.N.O.O.d.[.e.
1580: 62 80 57 80 54 80 55 80  79 80 7A 80 7C 80 7B 80  b.W.T.U.y.z.|.{.
1590: 7D 80 7E 80 56 80 58 80  59 80 5C 80 61 80 66 80  }.~.V.X.Y.\.a.f.
15A0: 5D 80 68 80 68 80 68 80  68 80 68 80 50 80 52 80  ].h.h.h.h.h.P.R.
15B0: 72 80 51 80 74 80 75 80  76 80 5F 80 69 80 6C 80  r.Q.t.u.v._.i.l.
15C0: 53 80 73 80 23 80 23 80  23 80 23 80 23 80 0E 80  S.s.#.#.#.#.#...
15D0: 11 80 6A 80 6D 80 6E 80  6E 80 6E 80 6F 80 70 80  ..j.m.n.n.n.o.p.
15E0: 71 80 63 80 60 80 66 80  5C 80 67 80 61 80 41 80  q.c.`.f.\.g.a.A.
15F0: 42 80 44 80 45 80 46 80  47 80 48 80 65 80 62 80  B.D.E.F.G.H.e.b.
1600: 52 80 52 80 52 80 54 80  55 80 77 80 7F 80 78 80  R.R.R.T.U.w...x.
1610: 5E 80 5A 80 80 80 6B 80  48 80 4B 80 50 80 50 80  ^.Z...k.H.K.P.P.
1620: 00 80 00 80 00 80 00 80  00 80 00 80 00 80 00 80  ................
1630: 00 80 00 80 00 80 00 80  00 80 00 80 00 80 00 80  ................
1640: 00 80 00 80 00 80 00 80  00 80 00 80 00 80 00 80  ................
1650: 00 80 00 80 00 80 00 80  00 80 00 80 00 80 00 80  ................
1660: 00 80 00 80 00 80 00 80  00 80 00 80 00 80 00 80  ................
1670: 00 80 00 80 00 80 00 80  00 80 0A 80 00 80 0A 80  ................
1680: 0A 80 00 80 2F 80 2F 80  2F 80 2F 80 2F 80 2F 80  ...././././././.
1690: 2F 80 2F 80 00 80 00 80  00 80 00 80 0A 80 0A 80  /./.............
16A0: 00 80 0A 80 0A 80 0A 80  0A 80 0A 80 0B 80 08 80  ................
16B0: 08 80 08 80 16 80 16 80  16 80 00 80 0A 80 0B 80  ................
16C0: 08 80 08 80 0B 80 0B 80  0B 80 0B 80 0B 80 0B 80  ................
16D0: 0B 80 0B 80 0B 80 0B 80  0B 80 0B 80 0B 80 0B 80  ................
16E0: 08 80 0A 80 0A 80 0A 80  00 80 0A 80 0A 80 00 80  ................
16F0: 00 80 00 80 00 80 00 80  00 80 00 80 0A 80 0A 80  ................
1700: 08 80 08 80 08 80 2F 80  2F 80 16 80 2F 80 16 80  .....././.../...
1710: 00 80 00 80 2F 80 0B 80  00 80 00 80 0B 80 0B 80  ..../...........
1720: 00 80 00 80 00 80 00 80  00 80 00 80 0A 80 0B 80  ................
1730: 08 80 0A 80 0B 80 08 80  0A 80 0B 80 08 80 0A 80  ................
1740: 0B 80 0A 80 0B 80 08 80  0A 80 0B 80 0A 80 0A 80  ................
1750: 0B 80 0A 80 0B 80 08 80  0A 80 0B 80 08 80 0A 80  ................
1760: 0B 80 08 80 16 80 0A 80  0B 80 08 80 0A 80 0B 80  ................
1770: 08 80 0A 80 0B 80 0A 80  0B 80 0A 80 0A 80 0A 80  ................
1780: 0A 80 0A 80 0A 80 0A 80  0A 80 0A 80 0A 80 0A 80  ................
1790: 0A 80 0A 80 0A 80 0A 80  0A 80 0A 80 0A 80 0A 80  ................
17A0: 0A 80 0A 80 0B 80 08 80  16 80 23 80 0A 80 0A 80  ..........#.....
17B0: 0A 80 0A 80 0A 80 0A 80  0A 80 0A 80 0A 80 0A 80  ................
17C0: 0A 80 0A 80 0A 80 0B 80  08 80 16 80 23 80 0A 80  ............#...
17D0: 0A 80 0A 80 0A 80 0A 80  0B 80 08 80 0A 80 0A 80  ................
17E0: 0A 80 0A 80 0A 80 0B 80  0B 80 0A 80 0B 80 16 80  ................
17F0: 16 80 08 80 16 80 08 80  0B 80 08 80 0B 80 0B 80  ................
1800: 0B 80 08 80 16 80 0B 80  0B 80 0A 80 0A 80 0A 80  ................
1810: 0A 80 0A 80 0A 80 0A 80  16 80 23 80 0B 80 08 80  ..........#.....
1820: 00 80 00 80 00 80 00 80  00 80 00 80 00 80 00 80  ................
1830: 00 80 0A 80 0A 80 0A 80  0B 80 0B 80 0B 80 08 80  ................
1840: 08 80 16 80 16 80 16 80  23 80 23 80 28 80 0E 80  ........#.#.(...
1850: 0E 80 0C 80 0C 80 0C 80  11 80 11 80 11 80 22 80  ..............".
1860: 22 80 22 80 22 80 2F 80  2F 80 2F 80 6A 80 6A 80  "."."./././.j.j.
1870: 6A 80 81 80 81 80 82 80  82 80 87 80 50 80 88 80  j...........P...
1880: 89 80 86 80 83 80 84 80  8A 80 35 80 8B 80 71 80  ..........5...q.
1890: 8C 80 8D 80 85 80 0F 80  10 80 6C 80 70 80 32 80  ..........l.p.2.
18A0: 0D 80 8E 80 8E 80 8E 80  8E 80 8E 80 01 80 03 80  ................
18B0: 53 80 02 80 8F 80 90 80  91 80 6E 80 92 80 93 80  S.........n.....
18C0: 04 80 72 80 6D 80 6D 80  6D 80 6D 80 6D 80 1C 80  ..r.m.m.m.m.m...
18D0: 1D 80 94 80 95 80 51 80  51 80 51 80 96 80 52 80  ......Q.Q.Q...R.
18E0: 97 80 98 80 6F 80 32 80  6C 80 99 80 70 80 00 80  ....o.2.l...p...
18F0: 0A 80 08 80 16 80 23 80  28 80 0E 80 88 80 89 80  ......#.(.......
1900: 03 80 03 80 03 80 83 80  84 80 9A 80 9B 80 9C 80  ................
1910: 2E 80 6B 80 9D 80 9E 80  0E 80 22 80 01 80 01 80  ..k.......".....
1920: 00 80 00 80 00 80 00 80  00 80 00 80 00 80 00 80  ................
1930: 00 80 00 80 00 80 00 80  00 80 00 80 00 80 00 80  ................
1940: 00 80 00 80 00 80 00 80  00 80 00 80 00 80 00 80  ................
1950: 00 80 00 80 00 80 00 80  00 80 00 80 00 80 00 80  ................
1960: 00 80 00 80 00 80 00 80  00 80 00 80 00 80 00 80  ................
1970: 00 80 00 80 00 80 00 80  00 80 00 80 00 80 00 80  ................
1980: 00 80 00 80 00 80 00 80  00 80 00 80 00 80 00 80  ................
1990: 00 80 00 80 00 80 00 80  00 80 00 80 00 80 00 80  ................
19A0: 00 80 00 80 00 80 00 80  00 80 00 80 00 80 00 80  ................
19B0: 00 80 0A 80 00 80 00 80  00 80 00 80 00 80 00 80  ................
19C0: 00 80 00 80 00 80 00 80  00 80 00 80 00 80 00 80  ................
19D0: 00 80 00 80 00 80 00 80  00 80 00 80 00 80 00 80  ................
19E0: 00 80 00 80 00 80 00 80  00 80 00 80 00 80 00 80  ................
19F0: 00 80 00 80 00 80 00 80  00 80 00 80 00 80 00 80  ................
1A00: 00 80 00 80 00 80 00 80  00 80 00 80 00 80 00 80  ................
1A10: 00 80 00 80 00 80 00 80  00 80 00 80 00 80 00 80  ................
1A20: 00 80 00 80 00 80 00 80  00 80 00 80 0A 80 0A 80  ................
1A30: 0A 80 0A 80 0A 80 0A 80  0A 80 0A 80 0A 80 0B 80  ................
1A40: 0B 80 0B 80 0B 80 0B 80  0B 80 0B 80 0B 80 08 80  ................
1A50: 08 80 08 80 08 80 08 80  08 80 08 80 08 80 08 80  ................
1A60: 08 80 08 80 08 80 16 80  16 80 16 80 16 80 16 80  ................
1A70: 16 80 16 80 16 80 16 80  16 80 00 80 00 80 0E 80  ................
1A80: 0C 80 00 80 23 80 23 80  00 80 00 80 00 80 00 80  ....#.#.........
1A90: 00 80 00 80 00 80 00 80  00 80 00 80 00 80 00 80  ................
1AA0: 00 80 00 80 00 80 00 80  00 80 00 80 11 80 28 80  ..............(.
1AB0: 00 80 00 80 00 80 00 80  00 80 00 80 00 80 00 80  ................
1AC0: 00 80 00 80 00 80 00 80  00 80 00 80 00 80 00 80  ................
1AD0: 00 80 00 80 00 80 00 80  00 80 00 80 00 80 00 80  ................
1AE0: 00 80 00 80 00 80 00 80  00 80 00 80 00 80 0A 80  ................
1AF0: 0A 80 0B 80 0B 80 0B 80  0B 80 08 80 0E 80 0C 80  ................
1B00: 28 80 28 80 28 80 23 80  23 80 00 80 00 80 00 80  (.(.(.#.#.......
1B10: 00 80 00 80 00 80 00 80  08 80 08 80 11 80 11 80  ................
1B20: 00 80 00 80 00 80 00 80  00 80 00 80 08 80 0B 80  ................
1B30: 0A 80 08 80 00 80 0A 80  00 80 0A 80 0B 80 0B 80  ................
1B40: 0A 80 08 80 0B 80 0A 80  08 80 0A 80 00 80 08 80  ................
1B50: 0A 80 00 80 0A 80 0B 80  00 80 08 80 0A 80 00 80  ................
1B60: 08 80 0A 80 0B 80 00 80  0A 80 0B 80 08 80 0A 80  ................
1B70: 0B 80 08 80 0A 80 08 80  0A 80 00 80 00 80 00 80  ................
1B80: 00 80 00 80 0B 80 00 80  00 80 00 80 00 80 00 80  ................
1B90: 00 80 00 80 00 80 00 80  00 80 00 80 00 80 00 80  ................
1BA0: 00 80 00 80 00 80 00 80  00 80 00 80 00 80 00 80  ................
1BB0: 00 80 00 80 00 80 00 80  00 80 00 80 00 80 00 80  ................
1BC0: 00 80 00 80 00 80 00 80  00 80 00 80 00 80 00 80  ................
1BD0: 00 80 00 80 00 80 00 80  00 80 00 80 00 80 00 80  ................
1BE0: 00 80 00 80 00 80 00 80  00 80 00 80 00 80 00 80  ................
1BF0: 00 80 00 80 00 80 00 80  00 80 00 80 0B 80 00 80  ................
1C00: 00 80 0B 80 0A 80 0A 80  0A 80 00 80 00 80 00 80  ................
1C10: 00 80 00 80 00 80 00 80  00 80 00 80 00 80 00 80  ................
1C20: 00 80 00 80 00 80 00 80  00 80 00 80 9F 80 A0 80  ................
1C30: A1 80 A2 80 A3 80 A4 80  A5 80 A6 80 A7 80 A8 80  ................
1C40: A9 80 AA 80 AB 80 AC 80  AD 80 AE 80 A0 80 AF 80  ................
1C50: B0 80 B1 80 B2 80 B3 80  B4 80 B5 80 B6 80 B7 80  ................
1C60: B8 80 B9 80 BA 80 A7 80  BB 80 BC 80 BD 80 BE 80  ................
1C70: BF 80 C0 80 C1 80 C2 80  C3 80 C4 80 C5 80 C6 80  ................
1C80: C7 80 C8 80 C9 80 CA 80  CB 80 CC 80 CD 80 CE 80  ................
1C90: CF 80 D0 80 D1 80 D2 80  D3 80 D4 80 D5 80 D6 80  ................
1CA0: D7 80 D8 80 D9 80 DA 80  DB 80 DC 80 DD 80 DE 80  ................
1CB0: DF 80 E0 80 9F 80 E1 80  AF 80 E2 80 E3 80 E4 80  ................
1CC0: E5 80 E6 80 E7 80 E8 80  E9 80 EA 80 EB 80 EC 80  ................
1CD0: ED 80 EE 80 EF 80 F0 80  F1 80 F2 80 F3 80 F4 80  ................
1CE0: F5 80 F6 80 F7 80 F8 80  F9 80 FA 80 FB 80 FC 80  ................
1CF0: FD 80 FE 80 FF 80 00 81  01 81 D8 80 02 81 03 81  ................
1D00: 04 81 05 81 06 81 07 81  08 81 09 81 0A 81 D7 80  ................
1D10: B2 80 0B 81 0C 81 0D 81  B9 80 0E 81 0F 81 10 81  ................
1D20: 00 80 00 80 00 80 00 80  00 80 00 80 11 81 12 81  ................
1D30: 13 81 14 81 15 81 A3 80  FA 80 16 81 17 81 18 81  ................
1D40: ED 80 C3 80 19 81 1A 81  1B 81 1C 81 1D 81 1E 81  ................
1D50: 1F 81 20 81 06 81 21 81  22 81 D0 80 23 81 24 81  .. ...!."...#.$.
1D60: 25 81 26 81 27 81 00 80  28 81 29 81 2A 81 2B 81  %.&.'...(.).*.+.
1D70: 2C 81 2D 81 2E 81 2F 81  30 81 31 81 32 81 33 81  ,.-.../.0.1.2.3.
1D80: 34 81 35 81 36 81 37 81  38 81 39 81 3A 81 3B 81  4.5.6.7.8.9.:.;.
1D90: 3C 81 3D 81 3E 81 3F 81  F6 80 26 81 40 81 26 81  <.=.>.?...&.@.&.
1DA0: 41 81 42 81 43 81 44 81  45 81 46 81 47 81 48 81  A.B.C.D.E.F.G.H.
1DB0: 49 81 4A 81 11 81 4B 81  1E 81 4C 81 4D 81 4E 81  I.J...K...L.M.N.
1DC0: 4F 81 50 81 51 81 52 81  53 81 54 81 3B 81 55 81  O.P.Q.R.S.T.;.U.
1DD0: 0F 81 56 81 57 81 58 81  59 81 5A 81 5B 81 5C 81  ..V.W.X.Y.Z.[.\.
1DE0: 5D 81 42 81 5E 81 5F 81  60 81 61 81 DA 80 62 81  ].B.^._.`.a...b.
1DF0: 63 81 3A 80 64 81 A3 80  65 81 66 81 2E 81 67 81  c.:.d...e.f...g.
1E00: 68 81 69 81 6A 81 6B 81  6C 81 6D 81 6E 81 41 81  h.i.j.k.l.m.n.A.
1E10: 6F 81 70 81 71 81 72 81  2E 81 73 81 74 81 75 81  o.p.q.r...s.t.u.
1E20: 00 80 00 80 00 80 00 80  00 80 00 80 3A 80 76 81  ............:.v.
1E30: 77 81 0A 81 78 81 78 81  30 81 F3 80 E3 80 00 80  w...x.x.0.......
1E40: 3A 80 79 81 F3 80 7A 81  6E 81 6E 81 1F 81 74 81  :.y...z.n.n...t.
1E50: 00 80 7B 81 00 80 7C 81  30 81 7D 81 F3 80 7E 81  ..{...|.0.}...~.
1E60: 74 81 74 81 7F 81 65 81  80 81 81 81 00 80 38 80  t.t...e.......8.
1E70: 3A 80 00 80 38 80 00 80  38 80 E3 80 82 81 83 81  :...8...8.......
1E80: 00 80 84 81 85 81 86 81  87 81 88 81 89 81 00 80  ................
1E90: 00 80 8A 81 8B 81 8C 81  8D 81 8E 81 8F 81 90 81  ................
1EA0: 91 81 92 81 92 81 92 81  92 81 92 81 93 81 00 80  ................
1EB0: 00 80 77 81 3A 80 79 81  74 81 94 81 A6 80 95 81  ..w.:.y.t.......
1EC0: 79 81 96 81 97 81 98 81  99 81 6C 81 38 80 79 81  y.........l.8.y.
1ED0: AE 80 9A 81 3A 80 00 80  00 80 00 80 9B 81 00 80  ....:...........
1EE0: 9C 81 7A 81 9D 81 9E 81  9F 81 A0 81 A1 81 38 80  ..z...........8.
1EF0: A2 81 F0 80 A7 80 A7 80  76 81 30 81 A3 81 A4 81  ........v.0.....
1F00: 00 80 A7 80 00 80 00 80  86 81 A5 81 A6 81 91 81  ................
1F10: 03 81 A7 81 A8 81 A9 81  77 81 00 80 79 81 AA 81  ........w...y...
1F20: 00 80 00 80 00 80 00 80  00 80 00 80 00 80 3B 80  ..............;.
1F30: 3C 80 AB 81 3F 80 40 80  3F 80 3E 80 3F 80 AC 81  <...?.@.?.>.?...
1F40: 00 80 3E 80 00 80 3B 80  40 80 3D 80 3B 80 AD 81  ..>...;.@.=.;...
1F50: 00 80 AE 81 3B 80 3F 80  3F 80 00 80 00 80 AF 81  ....;.?.?.......
1F60: 3D 80 3B 80 3D 80 3F 80  3B 80 3F 80 B0 81 3D 80  =.;.=.?.;.?...=.
1F70: 3F 80 B1 81 3E 80 B2 81  3B 80 B3 81 B4 81 B5 81  ?...>...;.......
1F80: B6 81 B7 81 3D 80 00 80  3D 80 3D 80 B8 81 3B 80  ....=...=.=...;.
1F90: 00 80 3F 80 3F 80 00 80  3D 80 00 80 3F 80 3D 80  ..?.?...=...?.=.
1FA0: 3D 80 3F 80 3C 80 3D 80  00 80 39 80 B9 81 40 80  =.?.<.=...9...@.
1FB0: BA 81 BB 81 BC 81 BD 81  AD 81 3B 80 00 80 3D 80  ..........;...=.
1FC0: 3F 80 00 80 00 80 3D 80  3B 80 3B 80 00 80 00 80  ?.....=.;.;.....
1FD0: 3B 80 00 80 3B 80 BE 81  3D 80 BE 81 BE 81 BF 81  ;...;...=.......
1FE0: 00 80 3F 80 00 80 BF 81  3F 80 3F 80 3F 80 3E 80  ..?.....?.?.?.>.
1FF0: 00 80 00 80 3C 80 3C 80  3D 80 00 80 3D 80 3B 80  ....<.<.=...=.;.
2000: 00 80 3F 80 3D 80 39 80  3C 80 3C 80 00 80 3D 80  ..?.=.9.<.<...=.
2010: 3B 80 3F 80 00 80 40 80  3F 80 00 80 C0 81 40 80  ;.?...@.?.....@.
2020: 00 80 00 80 00 80 00 80  00 80 00 80 9B 81 9B 81  ................
2030: 9B 81 9B 81 9B 81 9B 81  9B 81 9B 81 9B 81 9B 81  ................
2040: 9B 81 9B 81 9B 81 9B 81  9B 81 9B 81 9B 81 9B 81  ................
2050: 9B 81 9B 81 9B 81 9B 81  9B 81 9B 81 9B 81 9B 81  ................
2060: 9B 81 9B 81 9B 81 9B 81  9B 81 9B 81 9B 81 9B 81  ................
2070: 9B 81 9B 81 9B 81 9B 81  9B 81 9B 81 9B 81 9B 81  ................
2080: 9B 81 9B 81 9B 81 9B 81  3A 80 3A 80 3A 80 3A 80  ........:.:.:.:.
2090: 3A 80 3A 80 3A 80 3A 80  3A 80 3A 80 3A 80 3A 80  :.:.:.:.:.:.:.:.
20A0: 3A 80 3A 80 3A 80 3A 80  3A 80 3A 80 9B 81 9B 81  :.:.:.:.:.:.....
20B0: 9B 81 9B 81 9B 81 9B 81  9B 81 3A 80 3A 80 3A 80  ..........:.:.:.
20C0: 3A 80 3A 80 3A 80 3A 80  3A 80 3A 80 3A 80 3A 80  :.:.:.:.:.:.:.:.
20D0: 3A 80 3A 80 3A 80 3A 80  3A 80 3A 80 3A 80 3A 80  :.:.:.:.:.:.:.:.
20E0: 3A 80 3A 80 3A 80 3A 80  3A 80 3A 80 3A 80 9B 81  :.:.:.:.:.:.:...
20F0: 9B 81 9B 81 9B 81 9B 81  9B 81 9B 81 9B 81 9B 81  ................
2100: 9B 81 9B 81 9B 81 9B 81  9B 81 3A 80 3A 80 3A 80  ..........:.:.:.
2110: 3A 80 3A 80 3A 80 3A 80  9B 81 9B 81 9B 81 9B 81  :.:.:.:.........
2120: 00 80 00 80 00 80 00 80  00 80 00 80 08 80 0B 80  ................
2130: 0B 80 00 80 28 80 0E 80  28 80 23 80 28 80 00 80  ....(...(.#.(...
2140: 00 80 23 80 00 80 0B 80  0E 80 16 80 0B 80 00 80  ..#.............
2150: 00 80 00 80 28 80 0B 80  28 80 0E 80 00 80 08 80  ....(...(.......
2160: 16 80 0B 80 16 80 28 80  0B 80 28 80 00 80 00 80  ......(...(.....
2170: 28 80 00 80 23 80 00 80  0B 80 00 80 28 80 08 80  (...#.......(...
2180: 28 80 0E 80 0A 80 0E 80  16 80 16 80 23 80 0B 80  (...........#...
2190: 00 80 28 80 28 80 00 80  16 80 00 80 28 80 16 80  ..(.(.......(...
21A0: 16 80 28 80 08 80 16 80  00 80 0A 80 0E 80 08 80  ..(.............
21B0: 23 80 00 80 0B 80 16 80  28 80 0B 80 00 80 08 80  #.......(.......
21C0: 28 80 00 80 00 80 16 80  0B 80 0B 80 00 80 00 80  (...............
21D0: 0B 80 00 80 0B 80 28 80  16 80 28 80 28 80 0E 80  ......(...(.(...
21E0: 00 80 28 80 00 80 0E 80  28 80 28 80 28 80 16 80  ..(.....(.(.(...
21F0: 00 80 00 80 08 80 08 80  16 80 00 80 16 80 0B 80  ................
2200: 00 80 16 80 16 80 0A 80  08 80 08 80 00 80 16 80  ................
2210: 0B 80 28 80 00 80 0E 80  28 80 00 80 00 80 16 80  ..(.....(.......
2220: 00 80 00 80 00 80 00 80  00 80 00 80              ............    
```

#### Opcodes

```
  0: 0x0001 [0x03] ExtData[1]->WorkLocal[0] = Work_Zone[3]
  1: 0x0006 [0x03] ExtData[1]->WorkLocal[1] = Work_Zone[4]
  2: 0x000B [0x03] ExtData[1]->WorkLocal[2] = Work_Zone[5]
  3: 0x0010 [0x03] ExtData[1]->WorkLocal[3] = Work_Zone[6]
  4: 0x0015 [0x03] ExtData[1]->WorkLocal[18] = Work_Zone[7]
  5: 0x001A [0x03] ExtData[1]->WorkLocal[20] = Work_Zone[8]
  6: 0x001F [0x03] ExtData[1]->WorkLocal[29] = Work_Zone[9]
  7: 0x0024 [0x41] ExtData[1]->WorkLocal[4] = ExtData[1]->WorkLocal[29] (bits 0*-15*)
  8: 0x002D [0x41] ExtData[1]->WorkLocal[5] = ExtData[1]->WorkLocal[29] (bits 16*-16*)
  9: 0x0036 [0x41] ExtData[1]->WorkLocal[30] = ExtData[1]->WorkLocal[29] (bits 17*-17*)
 10: 0x003F [0x41] ExtData[1]->WorkLocal[33] = ExtData[1]->WorkLocal[29] (bits 18*-18*)
 11: 0x0048 [0x02] IF !(ExtData[1]->WorkLocal[5] <= 0*) GOTO 0x0054
 12: 0x0050 [0x48] [System] [11669*]:
     "You have registered a new home point! You are now able to teleport here from any other home point."
 13: 0x0053 [0x23] WAIT_FOR_DIALOG_INTERACTION
 14: 0x0054 [0x1A] CALL_SUBROUTINE(address=0x00C3)
 15: 0x0057 [0x06] ExtData[1]->WorkLocal[7] = 0
 16: 0x005A [0x06] ExtData[1]->WorkLocal[8] = 0
 17: 0x005D [0x06] ExtData[1]->WorkLocal[34] = 0
 18: 0x0060 [0x48] [System] [11667*]:
     "A home point can be set as a spot for you to return to Vana'diel when you have been knocked out. You can also use a home point to teleport to other home points."
 19: 0x0063 [0x23] WAIT_FOR_DIALOG_INTERACTION
 20: 0x0064 [0x02] IF !(ExtData[1]->WorkLocal[8] == 0*) GOTO 0x00C1
 21: 0x006C [0x24] CREATE_DIALOG(message_id=11668*, default_option=ExtData[1]->WorkLocal[7], option_flags=0*)
     "What will you do? [Travel to another home point./Set this as your home point./Other settings./On second thought, never mind.]"
 22: 0x0073 [0x25] WAIT_DIALOG_SELECT()
 23: 0x0074 [0x02] IF !(Work_Zone[0] == 3*) GOTO 0x0087
 24: 0x007C [0x03] Work_Zone[1] = 1073741824*
 25: 0x0081 [0x05] ExtData[1]->WorkLocal[8] = 1
 26: 0x0084 [0x01] GOTO 0x0087

SUBROUTINE_0087:
 27: 0x0087 [0x03] ExtData[1]->WorkLocal[7] = Work_Zone[0]
 28: 0x008C [0x02] IF !(ExtData[1]->WorkLocal[8] == 0*) GOTO 0x00BE
 29: 0x0094 [0x02] IF !(ExtData[1]->WorkLocal[7] == 0*) GOTO 0x00A2
 30: 0x009C [0x1A] CALL_SUBROUTINE(address=0x0256)
 31: 0x009F [0x01] GOTO 0x00BE
 32: 0x00A2 [0x02] IF !(ExtData[1]->WorkLocal[7] == 1*) GOTO 0x00B0
 33: 0x00AA [0x1A] CALL_SUBROUTINE(address=0x0210)
 34: 0x00AD [0x01] GOTO 0x00BE
 35: 0x00B0 [0x02] IF !(ExtData[1]->WorkLocal[7] == 2*) GOTO 0x00BE
 36: 0x00B8 [0x1A] CALL_SUBROUTINE(address=0x0188)
 37: 0x00BB [0x01] GOTO 0x00BE

SUBROUTINE_00BE:
 38: 0x00BE [0x01] GOTO 0x0064
 39: 0x00C1 [0x21] END_EVENT
 40: 0x00C2 [0x00] END_REQSTACK()

SUBROUTINE_00C3:
 41: 0x00C3 [0x40] SET_BIT_WORK_RANGE(start_bit=0*, end_bit=15*, target=Work_Zone[1], source=8*)
 42: 0x00CC [0x40] SET_BIT_WORK_RANGE(start_bit=16*, end_bit=31*, target=Work_Zone[1], source=0*)
 43: 0x00D5 [0x43] SEND_EVENT_UPDATE: Send pending tag to server (packet 0x005B)
 44: 0x00D7 [0x43] SEND_EVENT_UPDATE: Check pending flag (skip if not pending)
 45: 0x00D9 [0x1A] CALL_SUBROUTINE(address=0x00DD)
 46: 0x00DC [0x1B] RETURN

SUBROUTINE_00DD:
 47: 0x00DD [0x41] ExtData[1]->WorkLocal[47] = Work_Zone[2] (bits 0*-7*)
 48: 0x00E6 [0x41] ExtData[1]->WorkLocal[48] = Work_Zone[2] (bits 8*-15*)
 49: 0x00EF [0x41] ExtData[1]->WorkLocal[49] = Work_Zone[2] (bits 16*-23*)
 50: 0x00F8 [0x41] ExtData[1]->WorkLocal[50] = Work_Zone[2] (bits 24*-31*)
 51: 0x0101 [0x41] ExtData[1]->WorkLocal[51] = Work_Zone[3] (bits 0*-7*)
 52: 0x010A [0x41] ExtData[1]->WorkLocal[52] = Work_Zone[3] (bits 8*-15*)
 53: 0x0113 [0x41] ExtData[1]->WorkLocal[53] = Work_Zone[3] (bits 16*-23*)
 54: 0x011C [0x41] ExtData[1]->WorkLocal[54] = Work_Zone[3] (bits 24*-31*)
 55: 0x0125 [0x41] ExtData[1]->WorkLocal[55] = Work_Zone[4] (bits 0*-7*)
 56: 0x012E [0x06] ExtData[1]->WorkLocal[61] = 0

SUBROUTINE_0131:
 57: 0x0131 [0x02] IF !(ExtData[1]->WorkLocal[61] >= 9*) GOTO 0x015C
 58: 0x0139 [0x9D] ExtData[1]->WorkLocal[57] = 0x12FC[ExtData[1]->WorkLocal[61]] // Read WORD
 59: 0x0141 [0x02] IF !(ExtData[1]->WorkLocal[57] <= 127*) GOTO 0x0156
 60: 0x0149 [0x9D] 0x12FC[ExtData[1]->WorkLocal[61] * 2] = 4294967295* // Write WORD
 61: 0x0151 [0x03] ExtData[1]->WorkLocal[57] = 4294967295*
 62: 0x0156 [0x0B] ExtData[1]->WorkLocal[61]++
 63: 0x0159 [0x01] GOTO 0x0131
 64: 0x015C [0x1A] CALL_SUBROUTINE(address=0x0160)
 65: 0x015F [0x1B] RETURN

SUBROUTINE_0160:
 66: 0x0160 [0x06] ExtData[1]->WorkLocal[61] = 0
 67: 0x0163 [0x06] ExtData[1]->WorkLocal[56] = 0

SUBROUTINE_0166:
 68: 0x0166 [0x02] IF !(ExtData[1]->WorkLocal[61] >= 9*) GOTO 0x0187
 69: 0x016E [0x9D] ExtData[1]->WorkLocal[57] = 0x12FC[ExtData[1]->WorkLocal[61]] // Read WORD
 70: 0x0176 [0x02] IF !(ExtData[1]->WorkLocal[57] < 0*) GOTO 0x0181
 71: 0x017E [0x0B] ExtData[1]->WorkLocal[56]++
 72: 0x0181 [0x0B] ExtData[1]->WorkLocal[61]++
 73: 0x0184 [0x01] GOTO 0x0166
 74: 0x0187 [0x1B] RETURN

SUBROUTINE_0188:
 75: 0x0188 [0x48] [System] [11679*]:
     "You may change the method of selecting the area of your desired home point to teleport to."
 76: 0x018B [0x23] WAIT_FOR_DIALOG_INTERACTION
 77: 0x018C [0x03] ExtData[1]->WorkLocal[31] = ExtData[1]->WorkLocal[33]
 78: 0x0191 [0x0B] ExtData[1]->WorkLocal[31]++
 79: 0x0194 [0x06] ExtData[1]->WorkLocal[32] = 0
 80: 0x0197 [0x3C] SET_BIT_FLAG_CONDITIONAL(target_work_offset=ExtData[1]->WorkLocal[32], bit_index_work_offset=0*, condition_work_offset=1*)
 81: 0x019E [0x24] CREATE_DIALOG(message_id=11680*, default_option=ExtData[1]->WorkLocal[31], option_flags=ExtData[1]->WorkLocal[32])
     "Which setting would you like? [My current setting./Select by region./Select by expansion.]"
 82: 0x01A5 [0x25] WAIT_DIALOG_SELECT()
 83: 0x01A6 [0x02] IF !(Work_Zone[0] == 0*) GOTO 0x01B1
 84: 0x01AE [0x01] GOTO 0x020F
 85: 0x01B1 [0x02] IF !(Work_Zone[0] == 1*) GOTO 0x01E0
 86: 0x01B9 [0x03] ExtData[1]->WorkLocal[33] = 0*
 87: 0x01BE [0x40] SET_BIT_WORK_RANGE(start_bit=0*, end_bit=15*, target=Work_Zone[1], source=4*)
 88: 0x01C7 [0x40] SET_BIT_WORK_RANGE(start_bit=16*, end_bit=31*, target=Work_Zone[1], source=ExtData[1]->WorkLocal[33])
 89: 0x01D0 [0x43] SEND_EVENT_UPDATE: Send pending tag to server (packet 0x005B)
 90: 0x01D2 [0x43] SEND_EVENT_UPDATE: Check pending flag (skip if not pending)
 91: 0x01D4 [0x03] Work_Zone[3] = ExtData[1]->WorkLocal[33]
 92: 0x01D9 [0x48] [System] [11681*]:
     "You are now selecting by [region/expansion]."
 93: 0x01DC [0x23] WAIT_FOR_DIALOG_INTERACTION
 94: 0x01DD [0x01] GOTO 0x020F
 95: 0x01E0 [0x02] IF !(Work_Zone[0] == 2*) GOTO 0x020F
 96: 0x01E8 [0x03] ExtData[1]->WorkLocal[33] = 1*
 97: 0x01ED [0x40] SET_BIT_WORK_RANGE(start_bit=0*, end_bit=15*, target=Work_Zone[1], source=4*)
 98: 0x01F6 [0x40] SET_BIT_WORK_RANGE(start_bit=16*, end_bit=31*, target=Work_Zone[1], source=ExtData[1]->WorkLocal[33])
 99: 0x01FF [0x43] SEND_EVENT_UPDATE: Send pending tag to server (packet 0x005B)
100: 0x0201 [0x43] SEND_EVENT_UPDATE: Check pending flag (skip if not pending)
101: 0x0203 [0x03] Work_Zone[3] = ExtData[1]->WorkLocal[33]
102: 0x0208 [0x48] [System] [11681*]:
     "You are now selecting by [region/expansion]."
103: 0x020B [0x23] WAIT_FOR_DIALOG_INTERACTION
104: 0x020C [0x01] GOTO 0x020F

SUBROUTINE_020F:
105: 0x020F [0x1B] RETURN

SUBROUTINE_0210:
106: 0x0210 [0x48] [System] [11664*]:
     "You can set this as your current home point. Once you set a home point, you will return there whenever you are incapacitated."
107: 0x0213 [0x23] WAIT_FOR_DIALOG_INTERACTION
108: 0x0214 [0x24] CREATE_DIALOG(message_id=11665*, default_option=1*, option_flags=0*)
     "Set this as current home point? [Yes./No.]"
109: 0x021B [0x25] WAIT_DIALOG_SELECT()
110: 0x021C [0x02] IF !(Work_Zone[0] == 0*) GOTO 0x024A
111: 0x0224 [0x42] SET_CLI_EVENT_CANCEL_DATA()
112: 0x0225 [0x40] SET_BIT_WORK_RANGE(start_bit=0*, end_bit=15*, target=Work_Zone[1], source=1*)
113: 0x022E [0x40] SET_BIT_WORK_RANGE(start_bit=16*, end_bit=31*, target=Work_Zone[1], source=0*)
114: 0x0237 [0x2C] CREATE_SCHEDULER_TASK: Create scheduler "bind" with entities [EventEntity, LocalPlayer]
115: 0x0244 [0x05] ExtData[1]->WorkLocal[8] = 1
116: 0x0247 [0x01] GOTO 0x0255
117: 0x024A [0x02] IF !(Work_Zone[0] == 1*) GOTO 0x0255
118: 0x0252 [0x01] GOTO 0x0255

SUBROUTINE_0255:
119: 0x0255 [0x1B] RETURN

SUBROUTINE_0256:
120: 0x0256 [0x06] ExtData[1]->WorkLocal[10] = 0
121: 0x0259 [0x48] [System] [11670*]:
     "You may teleport from here to any other home point you have registered."
122: 0x025C [0x23] WAIT_FOR_DIALOG_INTERACTION
123: 0x025D [0x02] IF !(ExtData[1]->WorkLocal[33] == 0*) GOTO 0x0346
124: 0x0265 [0x06] ExtData[1]->WorkLocal[23] = 0
125: 0x0268 [0x06] ExtData[1]->WorkLocal[22] = 0
126: 0x026B [0x06] ExtData[1]->WorkLocal[21] = 0
127: 0x026E [0x06] ExtData[1]->WorkLocal[24] = 0
128: 0x0271 [0x06] ExtData[1]->WorkLocal[34] = 0

SUBROUTINE_0274:
129: 0x0274 [0x02] IF !(ExtData[1]->WorkLocal[23] == 0*) GOTO 0x0343
130: 0x027C [0x1A] CALL_SUBROUTINE(address=0x0F2E)
131: 0x027F [0x03] Work_Zone[3] = ExtData[1]->WorkLocal[34]
132: 0x0284 [0x24] CREATE_DIALOG(message_id=11677*, default_option=ExtData[1]->WorkLocal[22], option_flags=ExtData[1]->WorkLocal[21])
     "Teleport to which region? [On second thought, none./Select from favorites./Current region./[San d'Oria/Movalpolos]./[Bastok/Tavnazian Arch]./[Windurst/Lumoria]./[Jeuno/Mamool Ja Savage]./[Tavnazia/Halvung]./[West. Aht Urhgan/Arrapago Is]./[Adoulin Isles/Ruins of Alzadaal]./[Ronfaure/Ronfaure Front]./[Zulkheim/Norvallen Front]./[Norvallen/Gustaberg Front]./[Gustaberg/Derfland Front]./[Derfland/Sarutabaruta Front]./[Sarutabaruta/Aragoneu Front]./[Kolshushu/Fauregandi Front]./[Aragoneu/Valdeaunia Front]./[Fauregandi/East. Ulbuka]./[Valdeaunia/Ra'Kaznar]./[Qufim/]./[Li'Telor/]./[Kuzotz/]./[Vollbow/]./[Elshimo Low/]./[Elshimo Up/]./[Tu'Lia/]./Previous page./Next page.]"
133: 0x028B [0x25] WAIT_DIALOG_SELECT()
134: 0x028C [0x02] IF !(Work_Zone[0] == 0*) GOTO 0x029A
135: 0x0294 [0x05] ExtData[1]->WorkLocal[23] = 1
136: 0x0297 [0x01] GOTO 0x029A

SUBROUTINE_029A:
137: 0x029A [0x03] ExtData[1]->WorkLocal[22] = Work_Zone[0]
138: 0x029F [0x02] IF !(ExtData[1]->WorkLocal[22] == 1*) GOTO 0x02B0
139: 0x02A7 [0x1A] CALL_SUBROUTINE(address=0x03AF)
140: 0x02AA [0x06] ExtData[1]->WorkLocal[22] = 0
141: 0x02AD [0x01] GOTO 0x031C
142: 0x02B0 [0x02] IF !(ExtData[1]->WorkLocal[22] == 2*) GOTO 0x02E6
143: 0x02B8 [0x9D] ExtData[1]->WorkLocal[67] = 0x182C[ExtData[1]->WorkLocal[4]] // Read WORD
144: 0x02C0 [0x9D] ExtData[1]->WorkLocal[22] = 0x140C[ExtData[1]->WorkLocal[67]] // Read WORD
145: 0x02C8 [0x03] ExtData[1]->WorkLocal[34] = ExtData[1]->WorkLocal[22]
146: 0x02CD [0x15] ExtData[1]->WorkLocal[34] /= 24*
147: 0x02D2 [0x03] ExtData[1]->WorkLocal[67] = ExtData[1]->WorkLocal[22]
148: 0x02D7 [0x3F] ExtData[1]->WorkLocal[22] = ExtData[1]->WorkLocal[67] % 24*
149: 0x02DE [0x07] ExtData[1]->WorkLocal[22] += 3*
150: 0x02E3 [0x01] GOTO 0x031C
151: 0x02E6 [0x02] IF !(ExtData[1]->WorkLocal[22] == 27*) GOTO 0x0301
152: 0x02EE [0x02] IF !(ExtData[1]->WorkLocal[34] <= 0*) GOTO 0x02F9
153: 0x02F6 [0x0C] ExtData[1]->WorkLocal[34]--
154: 0x02F9 [0x03] ExtData[1]->WorkLocal[22] = 0*
155: 0x02FE [0x01] GOTO 0x031C
156: 0x0301 [0x02] IF !(ExtData[1]->WorkLocal[22] == 28*) GOTO 0x031C
157: 0x0309 [0x02] IF !(ExtData[1]->WorkLocal[34] >= 1*) GOTO 0x0314
158: 0x0311 [0x0B] ExtData[1]->WorkLocal[34]++
159: 0x0314 [0x03] ExtData[1]->WorkLocal[22] = 0*
160: 0x0319 [0x01] GOTO 0x031C

SUBROUTINE_031C:
161: 0x031C [0x02] IF !(ExtData[1]->WorkLocal[22] <= 0*) GOTO 0x0340
162: 0x0324 [0x03] ExtData[1]->WorkLocal[67] = ExtData[1]->WorkLocal[34]
163: 0x0329 [0x14] ExtData[1]->WorkLocal[67] *= 24*
164: 0x032E [0x07] ExtData[1]->WorkLocal[67] += ExtData[1]->WorkLocal[22]
165: 0x0333 [0x08] ExtData[1]->WorkLocal[67] -= 3*
166: 0x0338 [0x03] ExtData[1]->WorkLocal[24] = ExtData[1]->WorkLocal[67]
167: 0x033D [0x1A] CALL_SUBROUTINE(address=0x0B22)
168: 0x0340 [0x01] GOTO 0x0274
169: 0x0343 [0x01] GOTO 0x03AE
170: 0x0346 [0x02] IF !(ExtData[1]->WorkLocal[33] == 1*) GOTO 0x03AE
171: 0x034E [0x06] ExtData[1]->WorkLocal[23] = 0
172: 0x0351 [0x06] ExtData[1]->WorkLocal[22] = 0
173: 0x0354 [0x06] ExtData[1]->WorkLocal[21] = 0

SUBROUTINE_0357:
174: 0x0357 [0x02] IF !(ExtData[1]->WorkLocal[23] == 0*) GOTO 0x03AB
175: 0x035F [0x1A] CALL_SUBROUTINE(address=0x0AAA)
176: 0x0362 [0x02] IF !(ExtData[1]->WorkLocal[21] == 4294967294*) GOTO 0x0374
177: 0x036A [0x48] [System] [11673*]:
     "You have not yet registered any other home points, and thus are unable to teleport."
178: 0x036D [0x23] WAIT_FOR_DIALOG_INTERACTION
179: 0x036E [0x05] ExtData[1]->WorkLocal[23] = 1
180: 0x0371 [0x01] GOTO 0x03A8
181: 0x0374 [0x24] CREATE_DIALOG(message_id=11678*, default_option=ExtData[1]->WorkLocal[22], option_flags=ExtData[1]->WorkLocal[21])
     "Teleport where? [None of these./A favorited location./An original area./A Rise of the Zilart area./A Chains of Promathia area./A Treasures of Aht Urhgan area./A Wings of the Goddess area./A Seekers of Adoulin area.]"
182: 0x037B [0x25] WAIT_DIALOG_SELECT()
183: 0x037C [0x02] IF !(Work_Zone[0] == 0*) GOTO 0x038A
184: 0x0384 [0x05] ExtData[1]->WorkLocal[23] = 1
185: 0x0387 [0x01] GOTO 0x038A

SUBROUTINE_038A:
186: 0x038A [0x03] ExtData[1]->WorkLocal[22] = Work_Zone[0]
187: 0x038F [0x02] IF !(ExtData[1]->WorkLocal[22] == 0*) GOTO 0x03A8
188: 0x0397 [0x02] IF !(ExtData[1]->WorkLocal[22] == 1*) GOTO 0x03A5
189: 0x039F [0x1A] CALL_SUBROUTINE(address=0x03AF)
190: 0x03A2 [0x01] GOTO 0x03A8
191: 0x03A5 [0x1A] CALL_SUBROUTINE(address=0x0852)

SUBROUTINE_03A8:
192: 0x03A8 [0x01] GOTO 0x0357
193: 0x03AB [0x01] GOTO 0x03AE

SUBROUTINE_03AE:
194: 0x03AE [0x1B] RETURN

SUBROUTINE_03AF:
195: 0x03AF [0x06] ExtData[1]->WorkLocal[14] = 0
196: 0x03B2 [0x06] ExtData[1]->WorkLocal[13] = 0
197: 0x03B5 [0x06] ExtData[1]->WorkLocal[77] = 0

SUBROUTINE_03B8:
198: 0x03B8 [0x02] IF !(ExtData[1]->WorkLocal[14] == 0*) GOTO 0x05E8
199: 0x03C0 [0x1A] CALL_SUBROUTINE(address=0x0719)
200: 0x03C3 [0xD4] MAP_QUERY_WINDOW: Test and open map window (flag=0x21, work=[0x0D80, 0x0C00, 0x2500])
201: 0x03CC [0x02] IF !(Work_Zone[0] == 0*) GOTO 0x03DA
202: 0x03D4 [0x05] ExtData[1]->WorkLocal[14] = 1
203: 0x03D7 [0x01] GOTO 0x03DA

SUBROUTINE_03DA:
204: 0x03DA [0x03] ExtData[1]->WorkLocal[13] = Work_Zone[0]
205: 0x03DF [0x02] IF !(ExtData[1]->WorkLocal[13] == 10*) GOTO 0x03F5
206: 0x03E7 [0x1A] CALL_SUBROUTINE(address=0x05E9)
207: 0x03EA [0x03] ExtData[1]->WorkLocal[13] = 10*
208: 0x03EF [0x05] ExtData[1]->WorkLocal[14] = 1
209: 0x03F2 [0x01] GOTO 0x03F5

SUBROUTINE_03F5:
210: 0x03F5 [0x02] IF !(ExtData[1]->WorkLocal[14] == 0*) GOTO 0x05DA
211: 0x03FD [0x03] ExtData[1]->WorkLocal[65] = ExtData[1]->WorkLocal[13]
212: 0x0402 [0x0C] ExtData[1]->WorkLocal[65]--
213: 0x0405 [0x9D] ExtData[1]->WorkLocal[15] = 0x12FC[ExtData[1]->WorkLocal[65]] // Read WORD
214: 0x040D [0x9D] Work_Zone[3] = 0x152C[ExtData[1]->WorkLocal[15]] // Read WORD
215: 0x0415 [0x9D] Work_Zone[4] = 0x172C[ExtData[1]->WorkLocal[15]] // Read WORD
216: 0x041D [0x9D] Work_Zone[5] = 0x202C[ExtData[1]->WorkLocal[15]] // Read WORD
217: 0x0425 [0x3E] IF !(ExtData[1]->WorkLocal[30] bit 0*) GOTO 0x0431
218: 0x042C [0x15] Work_Zone[5] /= 5*
219: 0x0431 [0x03] Work_Zone[2] = ExtData[1]->WorkLocal[18]
220: 0x0436 [0x06] ExtData[1]->WorkLocal[57] = 0
221: 0x0439 [0x06] ExtData[1]->WorkLocal[65] = 0
222: 0x043C [0x9D] ExtData[1]->WorkLocal[65] = 0x1A2C[ExtData[1]->WorkLocal[15]] // Read WORD
223: 0x0444 [0x9D] ExtData[1]->WorkLocal[57] = 0x1A2C[ExtData[1]->WorkLocal[4]] // Read WORD
224: 0x044C [0x02] IF !(ExtData[1]->WorkLocal[65] == 0*) GOTO 0x045B
225: 0x0454 [0x48] [System] [11674*]:
     "It costs $3 gil to teleport to Home Point #$2 in $8."
226: 0x0457 [0x23] WAIT_FOR_DIALOG_INTERACTION
227: 0x0458 [0x01] GOTO 0x0474
228: 0x045B [0x02] IF !(ExtData[1]->WorkLocal[65] == ExtData[1]->WorkLocal[57]) GOTO 0x0470
229: 0x0463 [0x06] Work_Zone[5] = 0
230: 0x0466 [0x05] ExtData[1]->WorkLocal[77] = 1
231: 0x0469 [0x48] [System] [11675*]:
     "There is no fee for teleporting to Home Point #$2 in $8."
232: 0x046C [0x23] WAIT_FOR_DIALOG_INTERACTION
233: 0x046D [0x01] GOTO 0x0474
234: 0x0470 [0x48] [System] [11674*]:
     "It costs $3 gil to teleport to Home Point #$2 in $8."
235: 0x0473 [0x23] WAIT_FOR_DIALOG_INTERACTION

SUBROUTINE_0474:
236: 0x0474 [0x06] ExtData[1]->WorkLocal[75] = 0
237: 0x0477 [0x03] ExtData[1]->WorkLocal[76] = 2*

SUBROUTINE_047C:
238: 0x047C [0x02] IF !(ExtData[1]->WorkLocal[75] == 0*) GOTO 0x05D7
239: 0x0484 [0x05] ExtData[1]->WorkLocal[75] = 1
240: 0x0487 [0x1A] CALL_SUBROUTINE(address=0x06E8)
241: 0x048A [0x02] IF !(ExtData[1]->WorkLocal[65] < 0*) GOTO 0x049A
242: 0x0492 [0x03] Work_Zone_1700[25] = 1*
243: 0x0497 [0x01] GOTO 0x049F
244: 0x049A [0x03] Work_Zone_1700[25] = 0*

SUBROUTINE_049F:
245: 0x049F [0x03] Work_Zone[2] = ExtData[1]->WorkLocal[18]
246: 0x04A4 [0x24] CREATE_DIALOG(message_id=11676*, default_option=ExtData[1]->WorkLocal[76], option_flags=0*)
     "Teleport? (Current gil: $0) [[Add to favorites/Remove from favorites]./Yes, please./No, thank you.]"
247: 0x04AB [0x25] WAIT_DIALOG_SELECT()
248: 0x04AC [0x02] IF !(Work_Zone[0] == 0*) GOTO 0x04B7
249: 0x04B4 [0x01] GOTO 0x04B7

SUBROUTINE_04B7:
250: 0x04B7 [0x03] ExtData[1]->WorkLocal[76] = Work_Zone[0]
251: 0x04BC [0x02] IF !(ExtData[1]->WorkLocal[76] == 0*) GOTO 0x04E3
252: 0x04C4 [0x1A] CALL_SUBROUTINE(address=0x05E9)
253: 0x04C7 [0x06] ExtData[1]->WorkLocal[75] = 0
254: 0x04CA [0x02] IF !(ExtData[1]->WorkLocal[77] == 0*) GOTO 0x04DD
255: 0x04D2 [0x9D] Work_Zone[5] = 0x202C[ExtData[1]->WorkLocal[15]] // Read WORD
256: 0x04DA [0x01] GOTO 0x04E0
257: 0x04DD [0x06] Work_Zone[5] = 0

SUBROUTINE_04E0:
258: 0x04E0 [0x01] GOTO 0x05D4
259: 0x04E3 [0x02] IF !(ExtData[1]->WorkLocal[76] == 1*) GOTO 0x05C9
260: 0x04EB [0x02] IF !(ExtData[1]->WorkLocal[18] >= Work_Zone[5]) GOTO 0x050B
261: 0x04F3 [0x48] [System] [6396*]:
     "You do not have enough gil."
262: 0x04F6 [0x23] WAIT_FOR_DIALOG_INTERACTION
263: 0x04F7 [0x05] ExtData[1]->WorkLocal[23] = 1
264: 0x04FA [0x05] ExtData[1]->WorkLocal[14] = 1
265: 0x04FD [0x05] ExtData[1]->WorkLocal[11] = 1
266: 0x0500 [0x05] ExtData[1]->WorkLocal[8] = 1
267: 0x0503 [0x03] Work_Zone[1] = 1073741824*
268: 0x0508 [0x01] GOTO 0x05C6
269: 0x050B [0x42] SET_CLI_EVENT_CANCEL_DATA()
270: 0x050C [0x9D] ExtData[1]->WorkLocal[65] = 0x152C[ExtData[1]->WorkLocal[15]] // Read WORD
271: 0x0514 [0x9D] ExtData[1]->WorkLocal[57] = 0x152C[ExtData[1]->WorkLocal[4]] // Read WORD
272: 0x051C [0x02] IF !(ExtData[1]->WorkLocal[65] == ExtData[1]->WorkLocal[57]) GOTO 0x058F
273: 0x0524 [0x40] SET_BIT_WORK_RANGE(start_bit=0*, end_bit=15*, target=Work_Zone[1], source=2*)
274: 0x052D [0x40] SET_BIT_WORK_RANGE(start_bit=16*, end_bit=31*, target=Work_Zone[1], source=ExtData[1]->WorkLocal[15])
275: 0x0536 [0x43] SEND_EVENT_UPDATE: Send pending tag to server (packet 0x005B)
276: 0x0538 [0x43] SEND_EVENT_UPDATE: Check pending flag (skip if not pending)
277: 0x053A [0x1A] CALL_SUBROUTINE(address=0x11BE)
278: 0x053D [0x1A] CALL_SUBROUTINE(address=0x121C)
279: 0x0540 [0xBA] SET_ENTITY_POSITION(entity_id=LocalPlayer, pos_x=ExtData[1]->WorkLocal[25], pos_z=ExtData[1]->WorkLocal[27], pos_y=ExtData[1]->WorkLocal[26], direction=ExtData[1]->WorkLocal[28])
280: 0x054D [0x40] SET_BIT_WORK_RANGE(start_bit=0*, end_bit=15*, target=Work_Zone[1], source=3*)
281: 0x0556 [0x40] SET_BIT_WORK_RANGE(start_bit=16*, end_bit=31*, target=Work_Zone[1], source=ExtData[1]->WorkLocal[15])
282: 0x055F [0x47] UPDATE_PLAYER_POS(ExtData[1]->WorkLocal[25], ExtData[1]->WorkLocal[27], ExtData[1]->WorkLocal[26], yaw=ExtData[1]->WorkLocal[28])
283: 0x0569 [0x47] WAIT_PLAYER_POS_UPDATE
284: 0x056B [0x1A] CALL_SUBROUTINE(address=0x11E7)
285: 0x056E [0x40] SET_BIT_WORK_RANGE(start_bit=0*, end_bit=15*, target=Work_Zone[1], source=3*)
286: 0x0577 [0x40] SET_BIT_WORK_RANGE(start_bit=16*, end_bit=31*, target=Work_Zone[1], source=0*)
287: 0x0580 [0x05] ExtData[1]->WorkLocal[23] = 1
288: 0x0583 [0x05] ExtData[1]->WorkLocal[14] = 1
289: 0x0586 [0x05] ExtData[1]->WorkLocal[11] = 1
290: 0x0589 [0x05] ExtData[1]->WorkLocal[8] = 1
291: 0x058C [0x01] GOTO 0x05C6
292: 0x058F [0x40] SET_BIT_WORK_RANGE(start_bit=0*, end_bit=15*, target=Work_Zone[1], source=2*)
293: 0x0598 [0x40] SET_BIT_WORK_RANGE(start_bit=16*, end_bit=31*, target=Work_Zone[1], source=ExtData[1]->WorkLocal[15])
294: 0x05A1 [0x43] SEND_EVENT_UPDATE: Send pending tag to server (packet 0x005B)
295: 0x05A3 [0x43] SEND_EVENT_UPDATE: Check pending flag (skip if not pending)
296: 0x05A5 [0x1A] CALL_SUBROUTINE(address=0x11BE)
297: 0x05A8 [0x40] SET_BIT_WORK_RANGE(start_bit=0*, end_bit=15*, target=Work_Zone[1], source=2*)
298: 0x05B1 [0x40] SET_BIT_WORK_RANGE(start_bit=16*, end_bit=31*, target=Work_Zone[1], source=ExtData[1]->WorkLocal[15])
299: 0x05BA [0x05] ExtData[1]->WorkLocal[23] = 1
300: 0x05BD [0x05] ExtData[1]->WorkLocal[14] = 1
301: 0x05C0 [0x05] ExtData[1]->WorkLocal[11] = 1
302: 0x05C3 [0x05] ExtData[1]->WorkLocal[8] = 1

SUBROUTINE_05C6:
303: 0x05C6 [0x01] GOTO 0x05D4
304: 0x05C9 [0x02] IF !(ExtData[1]->WorkLocal[76] == 2*) GOTO 0x05D4
305: 0x05D1 [0x01] GOTO 0x05D4

SUBROUTINE_05D4:
306: 0x05D4 [0x01] GOTO 0x047C
307: 0x05D7 [0x01] GOTO 0x05E5
308: 0x05DA [0x02] IF !(ExtData[1]->WorkLocal[13] == 0*) GOTO 0x05E5
309: 0x05E2 [0x06] ExtData[1]->WorkLocal[14] = 0

SUBROUTINE_05E5:
310: 0x05E5 [0x01] GOTO 0x03B8
311: 0x05E8 [0x1B] RETURN

SUBROUTINE_05E9:
312: 0x05E9 [0x02] IF !(Work_Zone_1700[25] <= 0*) GOTO 0x0629
313: 0x05F1 [0x40] SET_BIT_WORK_RANGE(start_bit=0*, end_bit=15*, target=Work_Zone[1], source=6*)
314: 0x05FA [0x40] SET_BIT_WORK_RANGE(start_bit=16*, end_bit=31*, target=Work_Zone[1], source=ExtData[1]->WorkLocal[15])
315: 0x0603 [0x43] SEND_EVENT_UPDATE: Send pending tag to server (packet 0x005B)
316: 0x0605 [0x43] SEND_EVENT_UPDATE: Check pending flag (skip if not pending)
317: 0x0607 [0x1A] CALL_SUBROUTINE(address=0x00DD)
318: 0x060A [0x9D] Work_Zone[3] = 0x152C[ExtData[1]->WorkLocal[15]] // Read WORD
319: 0x0612 [0x9D] Work_Zone[4] = 0x172C[ExtData[1]->WorkLocal[15]] // Read WORD
320: 0x061A [0x03] Work_Zone_1700[25] = 1*
321: 0x061F [0x48] [System] [11683*]:
     "Home Point #$2 in $8 has been [registered to/removed from] your list of favorite locations."
322: 0x0622 [0x23] WAIT_FOR_DIALOG_INTERACTION
323: 0x0623 [0x06] ExtData[1]->WorkLocal[13] = 0
324: 0x0626 [0x01] GOTO 0x06E7
325: 0x0629 [0x1A] CALL_SUBROUTINE(address=0x0160)
326: 0x062C [0x02] IF !(ExtData[1]->WorkLocal[56] >= 9*) GOTO 0x066C
327: 0x0634 [0x40] SET_BIT_WORK_RANGE(start_bit=0*, end_bit=15*, target=Work_Zone[1], source=5*)
328: 0x063D [0x40] SET_BIT_WORK_RANGE(start_bit=16*, end_bit=31*, target=Work_Zone[1], source=ExtData[1]->WorkLocal[15])
329: 0x0646 [0x43] SEND_EVENT_UPDATE: Send pending tag to server (packet 0x005B)
330: 0x0648 [0x43] SEND_EVENT_UPDATE: Check pending flag (skip if not pending)
331: 0x064A [0x1A] CALL_SUBROUTINE(address=0x00DD)
332: 0x064D [0x9D] Work_Zone[3] = 0x152C[ExtData[1]->WorkLocal[15]] // Read WORD
333: 0x0655 [0x9D] Work_Zone[4] = 0x172C[ExtData[1]->WorkLocal[15]] // Read WORD
334: 0x065D [0x03] Work_Zone_1700[25] = 0*
335: 0x0662 [0x48] [System] [11683*]:
     "Home Point #$2 in $8 has been [registered to/removed from] your list of favorite locations."
336: 0x0665 [0x23] WAIT_FOR_DIALOG_INTERACTION
337: 0x0666 [0x05] ExtData[1]->WorkLocal[13] = 1
338: 0x0669 [0x01] GOTO 0x06E7
339: 0x066C [0x03] ExtData[1]->WorkLocal[73] = ExtData[1]->WorkLocal[15]
340: 0x0671 [0x48] [System] [11684*]:
     "Your list of favorite locations is full. You must delete an existing entry in order to register a new one."
341: 0x0674 [0x23] WAIT_FOR_DIALOG_INTERACTION
342: 0x0675 [0x1A] CALL_SUBROUTINE(address=0x07BB)
343: 0x0678 [0xD4] MAP_QUERY_WINDOW: Test and open map window (flag=0x2B, work=[0x80, 0x0C80, 0x2500])
344: 0x0681 [0x02] IF !(Work_Zone[0] == 0*) GOTO 0x068C
345: 0x0689 [0x01] GOTO 0x068C

SUBROUTINE_068C:
346: 0x068C [0x03] ExtData[1]->WorkLocal[65] = Work_Zone[0]
347: 0x0691 [0x02] IF !(ExtData[1]->WorkLocal[65] <= 0*) GOTO 0x06E2
348: 0x0699 [0x03] ExtData[1]->WorkLocal[15] = ExtData[1]->WorkLocal[73]
349: 0x069E [0x0C] ExtData[1]->WorkLocal[65]--
350: 0x06A1 [0x40] SET_BIT_WORK_RANGE(start_bit=0*, end_bit=15*, target=Work_Zone[1], source=7*)
351: 0x06AA [0x40] SET_BIT_WORK_RANGE(start_bit=16*, end_bit=23*, target=Work_Zone[1], source=ExtData[1]->WorkLocal[73])
352: 0x06B3 [0x40] SET_BIT_WORK_RANGE(start_bit=24*, end_bit=31*, target=Work_Zone[1], source=ExtData[1]->WorkLocal[65])
353: 0x06BC [0x43] SEND_EVENT_UPDATE: Send pending tag to server (packet 0x005B)
354: 0x06BE [0x43] SEND_EVENT_UPDATE: Check pending flag (skip if not pending)
355: 0x06C0 [0x1A] CALL_SUBROUTINE(address=0x00DD)
356: 0x06C3 [0x9D] Work_Zone[3] = 0x152C[ExtData[1]->WorkLocal[73]] // Read WORD
357: 0x06CB [0x9D] Work_Zone[4] = 0x172C[ExtData[1]->WorkLocal[73]] // Read WORD
358: 0x06D3 [0x03] Work_Zone_1700[25] = 0*
359: 0x06D8 [0x48] [System] [11683*]:
     "Home Point #$2 in $8 has been [registered to/removed from] your list of favorite locations."
360: 0x06DB [0x23] WAIT_FOR_DIALOG_INTERACTION
361: 0x06DC [0x05] ExtData[1]->WorkLocal[13] = 1
362: 0x06DF [0x01] GOTO 0x06E7
363: 0x06E2 [0x03] ExtData[1]->WorkLocal[15] = ExtData[1]->WorkLocal[73]

SUBROUTINE_06E7:
364: 0x06E7 [0x1B] RETURN

SUBROUTINE_06E8:
365: 0x06E8 [0x06] ExtData[1]->WorkLocal[61] = 0
366: 0x06EB [0x03] ExtData[1]->WorkLocal[65] = 4294967295*

SUBROUTINE_06F0:
367: 0x06F0 [0x02] IF !(ExtData[1]->WorkLocal[61] >= 9*) GOTO 0x0718
368: 0x06F8 [0x9D] ExtData[1]->WorkLocal[57] = 0x12FC[ExtData[1]->WorkLocal[61]] // Read WORD
369: 0x0700 [0x02] IF !(ExtData[1]->WorkLocal[57] == ExtData[1]->WorkLocal[15]) GOTO 0x0712
370: 0x0708 [0x03] ExtData[1]->WorkLocal[65] = ExtData[1]->WorkLocal[61]
371: 0x070D [0x03] ExtData[1]->WorkLocal[61] = 9*
372: 0x0712 [0x0B] ExtData[1]->WorkLocal[61]++
373: 0x0715 [0x01] GOTO 0x06F0
374: 0x0718 [0x1B] RETURN

SUBROUTINE_0719:
375: 0x0719 [0x1A] CALL_SUBROUTINE(address=0x11A4)
376: 0x071C [0x06] ExtData[1]->WorkLocal[61] = 0
377: 0x071F [0x06] ExtData[1]->WorkLocal[12] = 0
378: 0x0722 [0x03] ExtData[1]->WorkLocal[12] = 4294967295*
379: 0x0727 [0x02] IF !(ExtData[1]->WorkLocal[61] >= 9*) GOTO 0x0791
380: 0x072F [0x9D] ExtData[1]->WorkLocal[65] = 0x12FC[ExtData[1]->WorkLocal[61]] // Read WORD
381: 0x0737 [0x02] IF !(ExtData[1]->WorkLocal[65] == ExtData[1]->WorkLocal[4]) GOTO 0x078B
382: 0x073F [0x02] IF !(ExtData[1]->WorkLocal[65] < 0*) GOTO 0x0788
383: 0x0747 [0x3D] CLEAR_BIT_FLAG_CONDITIONAL(target_work_offset=ExtData[1]->WorkLocal[12], bit_index_work_offset=ExtData[1]->WorkLocal[61], condition_work_offset=1*)
384: 0x074E [0x9D] ExtData[1]->WorkLocal[63] = 0x152C[ExtData[1]->WorkLocal[65]] // Read WORD
385: 0x0756 [0x9D] ExtData[1]->WorkLocal[59] = 0x172C[ExtData[1]->WorkLocal[65]] // Read WORD
386: 0x075E [0x03] ExtData[1]->WorkLocal[57] = ExtData[1]->WorkLocal[61]
387: 0x0763 [0x0B] ExtData[1]->WorkLocal[57]++
388: 0x0766 [0xD4] MAP_QUERY_WINDOW: Prepare buffer and copy to TalkpQW object (buffer=[39 00 00 80 41 00 9D 05...])
389: 0x0786 [0x39] SET_ENTITY_DIRECTION(direction=0x0100)
390: 0x0789 [0x8B] SET_EVENT_MARK: Add/update map marker on map 0x0B07 at (0x2701, Work_Zone[7]), index=ExtData[1]->WorkLocal[61], name=(no name)
391: 0x0792 [0x0C] 0x0A00--
392: 0x0795 [0x80] LOAD_WAIT(entity=Unknown NPC (ID: 570428477/0x22000C3D))
393: 0x079A [0x80] LOAD_WAIT(entity=Unknown NPC (ID: 251887626/0x0F03800A))
394: 0x079F [0x00] END_REQSTACK()
395: 0x07A0 [0x04] DEPRECATED_NOP(unused=0x1A00)
396: 0x07A3 [0xE8] UNKNOWN_OPCODE_0xE8
397: 0x07A4 [0x06] 0x4102 = 0
398: 0x07A7 [0x00] END_REQSTACK()

SUBROUTINE_085B:
399: 0x085B [0x02] IF !(ExtData[1]->WorkLocal[11] == 0*) GOTO 0x08D2
400: 0x0863 [0x1A] CALL_SUBROUTINE(address=0x08D3)
401: 0x0866 [0x24] CREATE_DIALOG(message_id=11671*, default_option=ExtData[1]->WorkLocal[10], option_flags=ExtData[1]->WorkLocal[9])
     "Teleport where? [Never mind./$8./$8./$8./$8./$8./$8./$8./$8./$8./$8./$8./$8./$8./$8./$8./$8./Previous page./Next page.]"
402: 0x086D [0x25] WAIT_DIALOG_SELECT()
403: 0x086E [0x02] IF !(Work_Zone[0] == 0*) GOTO 0x087D
404: 0x0876 [0x05] ExtData[1]->WorkLocal[11] = 1
405: 0x0879 [0x1B] RETURN

SUBROUTINE_087D:
406: 0x087D [0x03] ExtData[1]->WorkLocal[10] = Work_Zone[0]
407: 0x0882 [0x02] IF !(ExtData[1]->WorkLocal[10] == 17*) GOTO 0x089B
408: 0x088A [0x02] IF !(ExtData[1]->WorkLocal[16] <= 0*) GOTO 0x0895
409: 0x0892 [0x0C] ExtData[1]->WorkLocal[16]--
410: 0x0895 [0x06] ExtData[1]->WorkLocal[10] = 0
411: 0x0898 [0x01] GOTO 0x08B4
412: 0x089B [0x02] IF !(ExtData[1]->WorkLocal[10] == 18*) GOTO 0x08B4
413: 0x08A3 [0x02] IF !(ExtData[1]->WorkLocal[16] >= 1*) GOTO 0x08AE
414: 0x08AB [0x0B] ExtData[1]->WorkLocal[16]++
415: 0x08AE [0x06] ExtData[1]->WorkLocal[10] = 0
416: 0x08B1 [0x01] GOTO 0x08B4

SUBROUTINE_08B4:
417: 0x08B4 [0x02] IF !(ExtData[1]->WorkLocal[10] <= 0*) GOTO 0x08CF
418: 0x08BC [0x03] ExtData[1]->WorkLocal[74] = ExtData[1]->WorkLocal[10]
419: 0x08C1 [0x0C] ExtData[1]->WorkLocal[74]--
420: 0x08C4 [0x9D] ExtData[1]->WorkLocal[19] = 0x132C[ExtData[1]->WorkLocal[74]] // Read WORD
421: 0x08CC [0x1A] CALL_SUBROUTINE(address=0x0C24)
422: 0x08CF [0x01] GOTO 0x085B
423: 0x08D2 [0x1B] RETURN

SUBROUTINE_08D3:
424: 0x08D3 [0x1A] CALL_SUBROUTINE(address=0x11A4)
425: 0x08D6 [0x06] ExtData[1]->WorkLocal[57] = 0
426: 0x08D9 [0x06] ExtData[1]->WorkLocal[61] = 0
427: 0x08DC [0x06] ExtData[1]->WorkLocal[9] = 0
428: 0x08DF [0x06] ExtData[1]->WorkLocal[64] = 0
429: 0x08E2 [0x03] ExtData[1]->WorkLocal[35] = 4294967295*
430: 0x08E7 [0x03] ExtData[1]->WorkLocal[36] = 4294967295*
431: 0x08EC [0x03] ExtData[1]->WorkLocal[24] = ExtData[1]->WorkLocal[22]
432: 0x08F1 [0x08] ExtData[1]->WorkLocal[24] -= 2*

SUBROUTINE_08F6:
433: 0x08F6 [0x02] IF !(ExtData[1]->WorkLocal[61] >= 122*) GOTO 0x096C
434: 0x08FE [0x03] ExtData[1]->WorkLocal[60] = ExtData[1]->WorkLocal[61]
435: 0x0903 [0x15] ExtData[1]->WorkLocal[60] /= 32*
436: 0x0908 [0x03] ExtData[1]->WorkLocal[62] = ExtData[1]->WorkLocal[61]
437: 0x090D [0x3F] ExtData[1]->WorkLocal[62] = ExtData[1]->WorkLocal[62] % 32*
438: 0x0914 [0x06] ExtData[1]->WorkLocal[57] = 0
439: 0x0917 [0x9D] ExtData[1]->WorkLocal[57] = 0x131C[ExtData[1]->WorkLocal[60]] // Read WORD
440: 0x091F [0x3E] IF !(ExtData[1]->WorkLocal[57] bit ExtData[1]->WorkLocal[62]) GOTO 0x0966
441: 0x0926 [0x9D] ExtData[1]->WorkLocal[68] = 0x162C[ExtData[1]->WorkLocal[61]] // Read WORD
442: 0x092E [0x3E] IF !(ExtData[1]->WorkLocal[20] bit ExtData[1]->WorkLocal[68]) GOTO 0x0966
443: 0x0935 [0x02] IF !(ExtData[1]->WorkLocal[68] == 11*) GOTO 0x0942
444: 0x093D [0x03] ExtData[1]->WorkLocal[68] = 5*
445: 0x0942 [0x02] IF !(ExtData[1]->WorkLocal[24] == ExtData[1]->WorkLocal[68]) GOTO 0x0966
446: 0x094A [0x9D] ExtData[1]->WorkLocal[63] = 0x152C[ExtData[1]->WorkLocal[61]] // Read WORD
447: 0x0952 [0x02] IF !(ExtData[1]->WorkLocal[61] == ExtData[1]->WorkLocal[4]) GOTO 0x0960
448: 0x095A [0x06] ExtData[1]->WorkLocal[37] = 0
449: 0x095D [0x01] GOTO 0x0963
450: 0x0960 [0x05] ExtData[1]->WorkLocal[37] = 1

SUBROUTINE_0963:
451: 0x0963 [0x1A] CALL_SUBROUTINE(address=0x0A0F)
452: 0x0966 [0x0B] ExtData[1]->WorkLocal[61]++
453: 0x0969 [0x01] GOTO 0x08F6
454: 0x096C [0x02] IF !(ExtData[1]->WorkLocal[16] == 0*) GOTO 0x09AA
455: 0x0974 [0x03] ExtData[1]->WorkLocal[9] = ExtData[1]->WorkLocal[35]
456: 0x0979 [0x02] IF !(ExtData[1]->WorkLocal[64] >= 16*) GOTO 0x0992
457: 0x0981 [0x40] SET_BIT_WORK_RANGE(start_bit=ExtData[1]->WorkLocal[64], end_bit=31*, target=ExtData[1]->WorkLocal[9], source=4294967295*)
458: 0x098A [0x10] ExtData[1]->WorkLocal[9] <<= 1*
459: 0x098F [0x01] GOTO 0x09A7
460: 0x0992 [0x40] SET_BIT_WORK_RANGE(start_bit=16*, end_bit=31*, target=ExtData[1]->WorkLocal[9], source=4294967295*)
461: 0x099B [0x10] ExtData[1]->WorkLocal[9] <<= 1*
462: 0x09A0 [0x3D] CLEAR_BIT_FLAG_CONDITIONAL(target_work_offset=ExtData[1]->WorkLocal[9], bit_index_work_offset=18*, condition_work_offset=1*)

SUBROUTINE_09A7:
463: 0x09A7 [0x01] GOTO 0x09DC
464: 0x09AA [0x02] IF !(ExtData[1]->WorkLocal[16] == 1*) GOTO 0x09DC
465: 0x09B2 [0x1A] CALL_SUBROUTINE(address=0x09DD)
466: 0x09B5 [0x03] ExtData[1]->WorkLocal[9] = ExtData[1]->WorkLocal[36]
467: 0x09BA [0x03] ExtData[1]->WorkLocal[65] = ExtData[1]->WorkLocal[64]
468: 0x09BF [0x08] ExtData[1]->WorkLocal[65] -= 16*
469: 0x09C4 [0x40] SET_BIT_WORK_RANGE(start_bit=ExtData[1]->WorkLocal[65], end_bit=31*, target=ExtData[1]->WorkLocal[9], source=4294967295*)
470: 0x09CD [0x10] ExtData[1]->WorkLocal[9] <<= 1*
471: 0x09D2 [0x3D] CLEAR_BIT_FLAG_CONDITIONAL(target_work_offset=ExtData[1]->WorkLocal[9], bit_index_work_offset=17*, condition_work_offset=1*)
472: 0x09D9 [0x01] GOTO 0x09DC

SUBROUTINE_09DC:
473: 0x09DC [0x1B] RETURN

SUBROUTINE_09DD:
474: 0x09DD [0x06] ExtData[1]->WorkLocal[72] = 0
475: 0x09E0 [0x06] ExtData[1]->WorkLocal[73] = 0
476: 0x09E3 [0x06] ExtData[1]->WorkLocal[65] = 0

SUBROUTINE_09E6:
477: 0x09E6 [0x02] IF !(ExtData[1]->WorkLocal[72] >= 16*) GOTO 0x0A0E
478: 0x09EE [0x03] ExtData[1]->WorkLocal[65] = ExtData[1]->WorkLocal[72]
479: 0x09F3 [0x07] ExtData[1]->WorkLocal[65] += 16*
480: 0x09F8 [0x9D] ExtData[1]->WorkLocal[73] = 0x132C[ExtData[1]->WorkLocal[65]] // Read WORD
481: 0x0A00 [0x9D] 0x132C[ExtData[1]->WorkLocal[72] * 2] = ExtData[1]->WorkLocal[73] // Write WORD
482: 0x0A08 [0x0B] ExtData[1]->WorkLocal[72]++
483: 0x0A0B [0x01] GOTO 0x09E6
484: 0x0A0E [0x1B] RETURN

SUBROUTINE_0A0F:
485: 0x0A0F [0x06] ExtData[1]->WorkLocal[72] = 0
486: 0x0A12 [0x06] ExtData[1]->WorkLocal[73] = 0

SUBROUTINE_0A15:
487: 0x0A15 [0x02] IF !(ExtData[1]->WorkLocal[72] > ExtData[1]->WorkLocal[64]) GOTO 0x0AA9
488: 0x0A1D [0x9D] ExtData[1]->WorkLocal[73] = 0x132C[ExtData[1]->WorkLocal[72]] // Read WORD
489: 0x0A25 [0x02] IF !(ExtData[1]->WorkLocal[73] == ExtData[1]->WorkLocal[63]) GOTO 0x0A60
490: 0x0A2D [0x02] IF !(ExtData[1]->WorkLocal[37] == 0*) GOTO 0x0A58
491: 0x0A35 [0x02] IF !(ExtData[1]->WorkLocal[72] >= 16*) GOTO 0x0A47
492: 0x0A3D [0x3D] CLEAR_BIT_FLAG_CONDITIONAL(target_work_offset=ExtData[1]->WorkLocal[35], bit_index_work_offset=ExtData[1]->WorkLocal[72], condition_work_offset=1*)
493: 0x0A44 [0x01] GOTO 0x0A58
494: 0x0A47 [0x03] ExtData[1]->WorkLocal[59] = ExtData[1]->WorkLocal[72]
495: 0x0A4C [0x08] ExtData[1]->WorkLocal[59] -= 16*
496: 0x0A51 [0x3D] CLEAR_BIT_FLAG_CONDITIONAL(target_work_offset=ExtData[1]->WorkLocal[36], bit_index_work_offset=ExtData[1]->WorkLocal[59], condition_work_offset=1*)

SUBROUTINE_0A58:
497: 0x0A58 [0x03] ExtData[1]->WorkLocal[72] = ExtData[1]->WorkLocal[64]
498: 0x0A5D [0x01] GOTO 0x0AA3
499: 0x0A60 [0x02] IF !(ExtData[1]->WorkLocal[73] == 0*) GOTO 0x0AA3
500: 0x0A68 [0x9D] 0x132C[ExtData[1]->WorkLocal[72] * 2] = ExtData[1]->WorkLocal[63] // Write WORD
501: 0x0A70 [0x02] IF !(ExtData[1]->WorkLocal[37] == 0*) GOTO 0x0A9B
502: 0x0A78 [0x02] IF !(ExtData[1]->WorkLocal[72] >= 16*) GOTO 0x0A8A
503: 0x0A80 [0x3D] CLEAR_BIT_FLAG_CONDITIONAL(target_work_offset=ExtData[1]->WorkLocal[35], bit_index_work_offset=ExtData[1]->WorkLocal[72], condition_work_offset=1*)
504: 0x0A87 [0x01] GOTO 0x0A9B
505: 0x0A8A [0x03] ExtData[1]->WorkLocal[59] = ExtData[1]->WorkLocal[72]
506: 0x0A8F [0x08] ExtData[1]->WorkLocal[59] -= 16*
507: 0x0A94 [0x3D] CLEAR_BIT_FLAG_CONDITIONAL(target_work_offset=ExtData[1]->WorkLocal[36], bit_index_work_offset=ExtData[1]->WorkLocal[59], condition_work_offset=1*)

SUBROUTINE_0A9B:
508: 0x0A9B [0x0B] ExtData[1]->WorkLocal[64]++
509: 0x0A9E [0x03] ExtData[1]->WorkLocal[72] = ExtData[1]->WorkLocal[64]

SUBROUTINE_0AA3:
510: 0x0AA3 [0x0B] ExtData[1]->WorkLocal[72]++
511: 0x0AA6 [0x01] GOTO 0x0A15
512: 0x0AA9 [0x1B] RETURN

SUBROUTINE_0AAA:
513: 0x0AAA [0x1A] CALL_SUBROUTINE(address=0x11A4)
514: 0x0AAD [0x06] ExtData[1]->WorkLocal[61] = 0
515: 0x0AB0 [0x06] ExtData[1]->WorkLocal[21] = 0
516: 0x0AB3 [0x03] ExtData[1]->WorkLocal[21] = 4294967295*

SUBROUTINE_0AB8:
517: 0x0AB8 [0x02] IF !(ExtData[1]->WorkLocal[61] >= 122*) GOTO 0x0B1C
518: 0x0AC0 [0x02] IF !(ExtData[1]->WorkLocal[61] == ExtData[1]->WorkLocal[4]) GOTO 0x0B16
519: 0x0AC8 [0x03] ExtData[1]->WorkLocal[60] = ExtData[1]->WorkLocal[61]
520: 0x0ACD [0x15] ExtData[1]->WorkLocal[60] /= 32*
521: 0x0AD2 [0x03] ExtData[1]->WorkLocal[62] = ExtData[1]->WorkLocal[61]
522: 0x0AD7 [0x3F] ExtData[1]->WorkLocal[62] = ExtData[1]->WorkLocal[62] % 32*
523: 0x0ADE [0x06] ExtData[1]->WorkLocal[57] = 0
524: 0x0AE1 [0x9D] ExtData[1]->WorkLocal[57] = 0x131C[ExtData[1]->WorkLocal[60]] // Read WORD
525: 0x0AE9 [0x3E] IF !(ExtData[1]->WorkLocal[57] bit ExtData[1]->WorkLocal[62]) GOTO 0x0B13
526: 0x0AF0 [0x9D] ExtData[1]->WorkLocal[68] = 0x162C[ExtData[1]->WorkLocal[61]] // Read WORD
527: 0x0AF8 [0x3E] IF !(ExtData[1]->WorkLocal[20] bit ExtData[1]->WorkLocal[68]) GOTO 0x0B13
528: 0x0AFF [0x02] IF !(ExtData[1]->WorkLocal[68] == 11*) GOTO 0x0B0C
529: 0x0B07 [0x03] ExtData[1]->WorkLocal[68] = 5*
530: 0x0B0C [0x3D] CLEAR_BIT_FLAG_CONDITIONAL(target_work_offset=ExtData[1]->WorkLocal[21], bit_index_work_offset=ExtData[1]->WorkLocal[68], condition_work_offset=1*)
531: 0x0B13 [0x01] GOTO 0x0B16

SUBROUTINE_0B16:
532: 0x0B16 [0x0B] ExtData[1]->WorkLocal[61]++
533: 0x0B19 [0x01] GOTO 0x0AB8
534: 0x0B1C [0x10] ExtData[1]->WorkLocal[21] <<= 2*
535: 0x0B21 [0x1B] RETURN

SUBROUTINE_0B22:
536: 0x0B22 [0x06] ExtData[1]->WorkLocal[11] = 0
537: 0x0B25 [0x06] ExtData[1]->WorkLocal[10] = 0

SUBROUTINE_0B28:
538: 0x0B28 [0x02] IF !(ExtData[1]->WorkLocal[11] == 0*) GOTO 0x0B6C
539: 0x0B30 [0x1A] CALL_SUBROUTINE(address=0x0B6D)
540: 0x0B33 [0x24] CREATE_DIALOG(message_id=11671*, default_option=ExtData[1]->WorkLocal[10], option_flags=ExtData[1]->WorkLocal[9])
     "Teleport where? [Never mind./$8./$8./$8./$8./$8./$8./$8./$8./$8./$8./$8./$8./$8./$8./$8./$8./Previous page./Next page.]"
541: 0x0B3A [0x25] WAIT_DIALOG_SELECT()
542: 0x0B3B [0x02] IF !(Work_Zone[0] == 0*) GOTO 0x0B49
543: 0x0B43 [0x05] ExtData[1]->WorkLocal[11] = 1
544: 0x0B46 [0x01] GOTO 0x0B49

SUBROUTINE_0B49:
