# 0x7FFFFFF0 - Zone Events

## Common Data

| Field            | Value                    |
|------------------|--------------------------|
| Zone             | Ru'Aun Gardens (ID: 130) |
| Block Size       | 5648 bytes               |
| Total Events     | 66                       |
| References Count | 215                      |

## List of Events

| Event ID                   | Entrypoint   |   Size |   Instructions |
|----------------------------|--------------|--------|----------------|
| [65535](#event-65535)      | 0x0000       |      1 |              1 |
| [0](#event-0)              | 0x0001       |     98 |             20 |
| [1](#event-1)              | 0x0063       |     98 |             20 |
| [2](#event-2)              | 0x00C5       |     98 |             20 |
| [3](#event-3)              | 0x0127       |     98 |             20 |
| [4](#event-4)              | 0x0189       |     98 |             20 |
| [5](#event-5)              | 0x01EB       |     98 |             20 |
| [6](#event-6)              | 0x024D       |     98 |             20 |
| [7](#event-7)              | 0x02AF       |     98 |             20 |
| [8](#event-8)              | 0x0311       |     98 |             20 |
| [9](#event-9)              | 0x0373       |     98 |             20 |
| [10](#event-10)            | 0x03D5       |     98 |             20 |
| [11](#event-11)            | 0x0437       |     98 |             20 |
| [12](#event-12)            | 0x0499       |     98 |             20 |
| [13](#event-13)            | 0x04FB       |     98 |             20 |
| [14](#event-14)            | 0x055D       |     98 |             20 |
| [15](#event-15)            | 0x05BF       |     98 |             20 |
| [16](#event-16)            | 0x0621       |     98 |             20 |
| [17](#event-17)            | 0x0683       |     98 |             20 |
| [18](#event-18)            | 0x06E5       |     98 |             20 |
| [19](#event-19)            | 0x0747       |     98 |             20 |
| [20](#event-20)            | 0x07A9       |     98 |             20 |
| [21](#event-21)            | 0x080B       |     98 |             20 |
| [22](#event-22)            | 0x086D       |     98 |             20 |
| [23](#event-23)            | 0x08CF       |     98 |             20 |
| [24](#event-24)            | 0x0931       |     98 |             20 |
| [25](#event-25)            | 0x0993       |     98 |             20 |
| [26](#event-26)            | 0x09F5       |     98 |             20 |
| [27](#event-27)            | 0x0A57       |     98 |             20 |
| [28](#event-28)            | 0x0AB9       |     98 |             20 |
| [29](#event-29)            | 0x0B1B       |     98 |             20 |
| [30](#event-30)            | 0x0B7D       |     98 |             20 |
| [31](#event-31)            | 0x0BDF       |     98 |             20 |
| [32](#event-32)            | 0x0C41       |     98 |             20 |
| [33](#event-33)            | 0x0CA3       |     98 |             20 |
| [34](#event-34)            | 0x0D05       |     98 |             20 |
| [35](#event-35)            | 0x0D67       |     98 |             20 |
| [36](#event-36)            | 0x0DC9       |     98 |             20 |
| [37](#event-37)            | 0x0E2B       |    126 |             25 |
| [38](#event-38)            | 0x0EA9       |    126 |             25 |
| [39](#event-39)            | 0x0F27       |    126 |             25 |
| [40](#event-40)            | 0x0FA5       |    126 |             25 |
| [41](#event-41)            | 0x1023       |     99 |             23 |
| [42](#event-42)            | 0x1086       |     10 |              6 |
| [43](#event-43)            | 0x1090       |     51 |             17 |
| [65534](#event-65534)      | 0x10C3       |      1 |              1 |
| [65535.1](#event-655351)   | 0x10C4       |     10 |              2 |
| [65535.2](#event-655352)   | 0x10CE       |     15 |              5 |
| [65535.3](#event-655353)   | 0x10DD       |     15 |              5 |
| [65535.4](#event-655354)   | 0x10EC       |     10 |              2 |
| [65535.5](#event-655355)   | 0x10F6       |     15 |              5 |
| [65535.6](#event-655356)   | 0x1105       |     10 |              2 |
| [65535.7](#event-655357)   | 0x110F       |     10 |              2 |
| [65535.8](#event-655358)   | 0x1119       |     10 |              2 |
| [65535.9](#event-655359)   | 0x1123       |     10 |              2 |
| [65535.10](#event-6553510) | 0x112D       |     10 |              2 |
| [65535.11](#event-6553511) | 0x1137       |     10 |              2 |
| [65535.12](#event-6553512) | 0x1141       |     10 |              2 |
| [65535.13](#event-6553513) | 0x114B       |     10 |              2 |
| [65535.14](#event-6553514) | 0x1155       |     10 |              2 |
| [65535.15](#event-6553515) | 0x115F       |     10 |              2 |
| [65535.16](#event-6553516) | 0x1169       |     10 |              2 |
| [65535.17](#event-6553517) | 0x1173       |     10 |              2 |
| [65535.18](#event-6553518) | 0x117D       |     10 |              2 |
| [65535.19](#event-6553519) | 0x1187       |     10 |              2 |
| [65535.20](#event-6553520) | 0x1191       |     10 |              2 |

## DAT References (imed_data)

|   Index | Hex Value   |   Dec Value |
|---------|-------------|-------------|
|       0 | 0x1C9F      |        7327 |
|       1 | 0x0001      |           1 |
|       2 | 0x0000      |           0 |
|       3 | 0x00B4      |         180 |
|       4 | 0x0009      |           9 |
|       5 | 0xFFF8CBA9  |  4294495145 |
|       6 | 0xFFFF7AC7  |  4294933191 |
|       7 | 0x0C3D      |        3133 |
|       8 | 0x0002      |           2 |
|       9 | 0x5A18      |       23064 |
|      10 | 0xFFF6CBE8  |  4294364136 |
|      11 | 0xFFFF27D9  |  4294911961 |
|      12 | 0x0840      |        2112 |
|      13 | 0x47283     |      291459 |
|      14 | 0xFFF9E0F7  |  4294566135 |
|      15 | 0xFFFF5B99  |  4294925209 |
|      16 | 0x0A39      |        2617 |
|      17 | 0x47FF4     |      294900 |
|      18 | 0xFFFBADCD  |  4294684109 |
|      19 | 0xFFFFA1D7  |  4294943191 |
|      20 | 0x0D81      |        3457 |
|      21 | 0x57A3F     |      358975 |
|      22 | 0xFFFC1A0F  |  4294711823 |
|      23 | 0xFFFF6357  |  4294927191 |
|      24 | 0x0D59      |        3417 |
|      25 | 0x1A396     |      107414 |
|      26 | 0xFFF96672  |  4294534770 |
|      27 | 0x078C      |        1932 |
|      28 | 0x204D2     |      132306 |
|      29 | 0xFFF9FBAA  |  4294572970 |
|      30 | 0x0761      |        1889 |
|      31 | 0x8B86C     |      571500 |
|      32 | 0xFFFD2981  |  4294781313 |
|      33 | 0xFFFEF3A1  |  4294898593 |
|      34 | 0x0B87      |        2951 |
|      35 | 0x732E0     |      471776 |
|      36 | 0x256D5     |      153301 |
|      37 | 0x0745      |        1861 |
|      38 | 0x58034     |      360500 |
|      39 | 0x2F1F1     |      193009 |
|      40 | 0x0A17      |        2583 |
|      41 | 0x566D9     |      354009 |
|      42 | 0x40171     |      262513 |
|      43 | 0x0A40      |        2624 |
|      44 | 0x6B902     |      440578 |
|      45 | 0xFFFFEF9B  |  4294963099 |
|      46 | 0x03EC      |        1004 |
|      47 | 0x62E6C     |      405100 |
|      48 | 0xD9F9      |       55801 |
|      49 | 0x0451      |        1105 |
|      50 | 0x5641F     |      353311 |
|      51 | 0x76A37     |      485943 |
|      52 | 0xFFFEF3A0  |  4294898592 |
|      53 | 0x0884      |        2180 |
|      54 | 0x0031      |          49 |
|      55 | 0x791DD     |      496093 |
|      56 | 0x04A9      |        1193 |
|      57 | 0xFFFEE62D  |  4294895149 |
|      58 | 0x623FB     |      402427 |
|      59 | 0x072C      |        1836 |
|      60 | 0xFFFDDB65  |  4294826853 |
|      61 | 0x65F35     |      417589 |
|      62 | 0x0716      |        1814 |
|      63 | 0x223FE     |      140286 |
|      64 | 0x65F63     |      417635 |
|      65 | 0x007E      |         126 |
|      66 | 0x11ABA     |       72378 |
|      67 | 0x623E1     |      402401 |
|      68 | 0x0132      |         306 |
|      69 | 0xFFFA9DE4  |  4294614500 |
|      70 | 0x76C35     |      486453 |
|      71 | 0xFFFEF39F  |  4294898591 |
|      72 | 0x0589      |        1417 |
|      73 | 0xFFF8CD46  |  4294495558 |
|      74 | 0x256B4     |      153268 |
|      75 | 0x00BD      |         189 |
|      76 | 0xFFF9D1B6  |  4294562230 |
|      77 | 0xD97C      |       55676 |
|      78 | 0x04A1      |        1185 |
|      79 | 0xFFF94676  |  4294526582 |
|      80 | 0xFFFFEF6F  |  4294963055 |
|      81 | 0x040E      |        1038 |
|      82 | 0xFFFA9959  |  4294613337 |
|      83 | 0x40178     |      262520 |
|      84 | 0x0DCE      |        3534 |
|      85 | 0xFFFA8064  |  4294606948 |
|      86 | 0x2F1E3     |      192995 |
|      87 | 0x0E09      |        3593 |
|      88 | 0xFFF74749  |  4294395721 |
|      89 | 0xFFFD2BE5  |  4294781925 |
|      90 | 0x01D2      |         466 |
|      91 | 0xFFFB8D68  |  4294675816 |
|      92 | 0xFFF9E061  |  4294565985 |
|      93 | 0x0DBF      |        3519 |
|      94 | 0xFFFDFB80  |  4294835072 |
|      95 | 0xFFF9FB86  |  4294572934 |
|      96 | 0x006B      |         107 |
|      97 | 0xFFFE5DC5  |  4294860229 |
|      98 | 0xFFF96641  |  4294534721 |
|      99 | 0x004E      |          78 |
|     100 | 0xFFFA8573  |  4294608243 |
|     101 | 0xFFFC1A30  |  4294711856 |
|     102 | 0x0A6E      |        2670 |
|     103 | 0xFFFB7FB5  |  4294672309 |
|     104 | 0xFFFBAE0F  |  4294684175 |
|     105 | 0x0A84      |        2692 |
|     106 | 0xFFFF9DCC  |  4294942156 |
|     107 | 0xFFF6CB6C  |  4294364012 |
|     108 | 0x0FFD      |        4093 |
|     109 | 0x6DD8D     |      449933 |
|     110 | 0xFFFE164D  |  4294841933 |
|     111 | 0xFFFFF7C7  |  4294965191 |
|     112 | 0x04F0      |        1264 |
|     113 | 0x6ADCE     |      437710 |
|     114 | 0xFFFD834C  |  4294804300 |
|     115 | 0x0CB5      |        3253 |
|     116 | 0x3EA83     |      256643 |
|     117 | 0x5E661     |      386657 |
|     118 | 0x0149      |         329 |
|     119 | 0x46659     |      288345 |
|     120 | 0x58BED     |      363501 |
|     121 | 0x0996      |        2454 |
|     122 | 0xFFFB9276  |  4294677110 |
|     123 | 0x595CB     |      366027 |
|     124 | 0x0E7B      |        3707 |
|     125 | 0xFFFC0E43  |  4294708803 |
|     126 | 0x5EFD1     |      389073 |
|     127 | 0x068B      |        1675 |
|     128 | 0xFFF95244  |  4294529604 |
|     129 | 0xFFFD839A  |  4294804378 |
|     130 | 0x0B3E      |        2878 |
|     131 | 0xFFF922C8  |  4294517448 |
|     132 | 0xFFFE14EB  |  4294841579 |
|     133 | 0x031F      |         799 |
|     134 | 0x1CA1      |        7329 |
|     135 | 0x1CA2      |        7330 |
|     136 | 0x003C      |          60 |
|     137 | 0x00C9      |         201 |
|     138 | 0x1CA3      |        7331 |
|     139 | 0x1CA4      |        7332 |
|     140 | 0x1CA5      |        7333 |
|     141 | 0xFFFFFC2A  |  4294966314 |
|     142 | 0xFFF69E4E  |  4294352462 |
|     143 | 0xFFFF2CEA  |  4294913258 |
|     144 | 0x0C19      |        3097 |
|     145 | 0xFFFFFCB4  |  4294966452 |
|     146 | 0xFFF6A8BA  |  4294355130 |
|     147 | 0x0007      |           7 |
|     148 | 0xFFFFFC52  |  4294966354 |
|     149 | 0xFFF6A41A  |  4294353946 |
|     150 | 0x005E      |          94 |
|     151 | 0xFFFA8B5A  |  4294609754 |
|     152 | 0xFFFF63C0  |  4294927296 |
|     153 | 0x0400      |        1024 |
|     154 | 0x000A      |          10 |
|     155 | 0xFFFA6E93  |  4294602387 |
|     156 | 0xFFFE6D84  |  4294864260 |
|     157 | 0x1521D     |       86557 |
|     158 | 0xFFFEE6C0  |  4294895296 |
|     159 | 0x064C      |        1612 |
|     160 | 0x9DC49     |      646217 |
|     161 | 0xFFFD6E64  |  4294798948 |
|     162 | 0x00A1      |         161 |
|     163 | 0x0C85      |        3205 |
|     164 | 0xFFFFADA3  |  4294946211 |
|     165 | 0xE9CA      |       59850 |
|     166 | 0xFFFFF799  |  4294965145 |
|     167 | 0x0D28      |        3368 |
|     168 | 0xFFFEABF4  |  4294880244 |
|     169 | 0xFFFA4EB6  |  4294594230 |
|     170 | 0x012D      |         301 |
|     171 | 0x06A4      |        1700 |
|     172 | 0xFFFDB3A7  |  4294816679 |
|     173 | 0x4EF1      |       20209 |
|     174 | 0xFFFFBFF4  |  4294950900 |
|     175 | 0x084E      |        2126 |
|     176 | 0xFFFF6A35  |  4294928949 |
|     177 | 0x2327      |        8999 |
|     178 | 0x03ED      |        1005 |
|     179 | 0xFFFCAEE9  |  4294749929 |
|     180 | 0x70C05     |      461829 |
|     181 | 0x17BF0     |       97264 |
|     182 | 0x08E7      |        2279 |
|     183 | 0xFFFC4F0B  |  4294725387 |
|     184 | 0x51564     |      333156 |
|     185 | 0xFFFFD0E8  |  4294955240 |
|     186 | 0x0278      |         632 |
|     187 | 0xFFFA9423  |  4294612003 |
|     188 | 0xFFFE6DB2  |  4294864306 |
|     189 | 0x3C71      |       15473 |
|     190 | 0x08EC      |        2284 |
|     191 | 0x6D91F     |      448799 |
|     192 | 0xFFFF8D5B  |  4294937947 |
|     193 | 0xFFFF64E1  |  4294927585 |
|     194 | 0x0240      |         576 |
|     195 | 0xFFFFBB04  |  4294949636 |
|     196 | 0xD3E9      |       54249 |
|     197 | 0xFFFFFE47  |  4294966855 |
|     198 | 0x0AC4      |        2756 |
|     199 | 0xFFFFB53C  |  4294948156 |
|     200 | 0x4B66      |       19302 |
|     201 | 0x9EA9      |       40617 |
|     202 | 0x03A7      |         935 |
|     203 | 0x11D84     |       73092 |
|     204 | 0xFFFD607B  |  4294795387 |
|     205 | 0x0F9F      |        3999 |
|     206 | 0x0402      |        1026 |
|     207 | 0xFFFFB137  |  4294947127 |
|     208 | 0x7A43      |       31299 |
|     209 | 0xFFFFD8F2  |  4294957298 |
|     210 | 0x0D4B      |        3403 |
|     211 | 0xFFFFC860  |  4294953056 |
|     212 | 0xD01B      |       53275 |
|     213 | 0xFFFFFD7F  |  4294966655 |
|     214 | 0x0BF0      |        3056 |

## String References

- **7327**: Use the portal? [Yes./No.]
- **7329**: "Wel...ome, $0."
- **7330**: "Your d...ta wil... be ...gistered."
- **7331**: "Regis... ...omplete."
- **7332**: "Registere... ...ser."
- **7333**: "Requi...ments not ...et. Unab... to regi...er d...ta"

## Events

### Event 65535

#### Metadata

| Field        | Value   |
|--------------|---------|
| Entrypoint   | 0x0000  |
| Data Size    | 1 bytes |
| Instructions | 1       |

```
      00 01 02 03 04 05 06 07  08 09 0A 0B 0C 0D 0E 0F
      -- -- -- -- -- -- -- --  -- -- -- -- -- -- -- --
0000: 00                                                .               
```

#### Opcodes

```
  0: 0x0000 [0x00] END_REQSTACK()
```

### Event 0

#### Metadata

| Field        | Value    |
|--------------|----------|
| Entrypoint   | 0x0001   |
| Data Size    | 98 bytes |
| Instructions | 20       |

```
      00 01 02 03 04 05 06 07  08 09 0A 0B 0C 0D 0E 0F
      -- -- -- -- -- -- -- --  -- -- -- -- -- -- -- --
0000:    20 01 24 00 80 01 80  02 80 25 02 00 10 02 80    .$......%.....
0010: 00 4F 00 42 43 00 43 01  62 01 80 F8 FF FF 7F F8  .O.BC.C.b.......
0020: FF FF 7F 6D 61 69 6E 02  80 1C 03 80 47 00 04 80  ...main.....G...
0030: 05 80 06 80 07 80 47 01  62 08 80 F8 FF FF 7F F8  ......G.b.......
0040: FF FF 7F 6D 61 69 6E 02  80 1C 03 80 01 5A 00 02  ...main......Z..
0050: 00 10 01 80 00 5A 00 01  5A 00 03 01 10 01 80 20  .....Z..Z...... 
0060: 00 21 00                                          .!.             
```

#### Opcodes

```
  0: 0x0001 [0x20] SET_CLI_EVENT_UC_FLAG: Lock player control
  1: 0x0003 [0x24] CREATE_DIALOG(message_id=7327*, default_option=1*, option_flags=0*)
    → "Use the portal? [Yes./No.]"
  2: 0x000A [0x25] WAIT_DIALOG_SELECT()
  3: 0x000B [0x02] IF !(Work_Zone[0] == 0*) GOTO 0x004F
  4: 0x0013 [0x42] SET_CLI_EVENT_CANCEL_DATA()
  5: 0x0014 [0x43] SEND_EVENT_UPDATE: Send pending tag to server (packet 0x005B)
  6: 0x0016 [0x43] SEND_EVENT_UPDATE: Check pending flag (skip if not pending)
  7: 0x0018 [0x62] LOAD_EVENT_SCHEDULER: Load scheduler "main" with entities [EventEntity, EventEntity], work=[1*, 0*]
  8: 0x0029 [0x1C] WAIT(180* ticks)
  9: 0x002C [0x47] UPDATE_PLAYER_POS(0.009*, -472.151*, -34.105*, yaw=275.4°*)
 10: 0x0036 [0x47] WAIT_PLAYER_POS_UPDATE
 11: 0x0038 [0x62] LOAD_EVENT_SCHEDULER: Load scheduler "main" with entities [EventEntity, EventEntity], work=[2*, 0*]
 12: 0x0049 [0x1C] WAIT(180* ticks)
 13: 0x004C [0x01] GOTO 0x005A
 14: 0x004F [0x02] IF !(Work_Zone[0] == 1*) GOTO 0x005A
 15: 0x0057 [0x01] GOTO 0x005A

SUBROUTINE_005A:
 16: 0x005A [0x03] Work_Zone[1] = 1*
 17: 0x005F [0x20] SET_CLI_EVENT_UC_FLAG: Unlock player control
 18: 0x0061 [0x21] END_EVENT
 19: 0x0062 [0x00] END_REQSTACK()
```

### Event 1

#### Metadata

| Field        | Value    |
|--------------|----------|
| Entrypoint   | 0x0063   |
| Data Size    | 98 bytes |
| Instructions | 20       |

```
      00 01 02 03 04 05 06 07  08 09 0A 0B 0C 0D 0E 0F
      -- -- -- -- -- -- -- --  -- -- -- -- -- -- -- --
0060:          20 01 24 00 80  01 80 02 80 25 02 00 10      .$......%...
0070: 02 80 00 B1 00 42 43 00  43 01 62 01 80 F8 FF FF  .....BC.C.b.....
0080: 7F F8 FF FF 7F 6D 61 69  6E 02 80 1C 03 80 47 00  .....main.....G.
0090: 09 80 0A 80 0B 80 0C 80  47 01 62 08 80 F8 FF FF  ........G.b.....
00A0: 7F F8 FF FF 7F 6D 61 69  6E 02 80 1C 03 80 01 BC  .....main.......
00B0: 00 02 00 10 01 80 00 BC  00 01 BC 00 03 01 10 01  ................
00C0: 80 20 00 21 00                                    . .!.           
```

#### Opcodes

```
  0: 0x0063 [0x20] SET_CLI_EVENT_UC_FLAG: Lock player control
  1: 0x0065 [0x24] CREATE_DIALOG(message_id=7327*, default_option=1*, option_flags=0*)
    → "Use the portal? [Yes./No.]"
  2: 0x006C [0x25] WAIT_DIALOG_SELECT()
  3: 0x006D [0x02] IF !(Work_Zone[0] == 0*) GOTO 0x00B1
  4: 0x0075 [0x42] SET_CLI_EVENT_CANCEL_DATA()
  5: 0x0076 [0x43] SEND_EVENT_UPDATE: Send pending tag to server (packet 0x005B)
  6: 0x0078 [0x43] SEND_EVENT_UPDATE: Check pending flag (skip if not pending)
  7: 0x007A [0x62] LOAD_EVENT_SCHEDULER: Load scheduler "main" with entities [EventEntity, EventEntity], work=[1*, 0*]
  8: 0x008B [0x1C] WAIT(180* ticks)
  9: 0x008E [0x47] UPDATE_PLAYER_POS(23.064*, -603.160*, -55.335*, yaw=185.6°*)
 10: 0x0098 [0x47] WAIT_PLAYER_POS_UPDATE
 11: 0x009A [0x62] LOAD_EVENT_SCHEDULER: Load scheduler "main" with entities [EventEntity, EventEntity], work=[2*, 0*]
 12: 0x00AB [0x1C] WAIT(180* ticks)
 13: 0x00AE [0x01] GOTO 0x00BC
 14: 0x00B1 [0x02] IF !(Work_Zone[0] == 1*) GOTO 0x00BC
 15: 0x00B9 [0x01] GOTO 0x00BC

SUBROUTINE_00BC:
 16: 0x00BC [0x03] Work_Zone[1] = 1*
 17: 0x00C1 [0x20] SET_CLI_EVENT_UC_FLAG: Unlock player control
 18: 0x00C3 [0x21] END_EVENT
 19: 0x00C4 [0x00] END_REQSTACK()
```

### Event 2

#### Metadata

| Field        | Value    |
|--------------|----------|
| Entrypoint   | 0x00C5   |
| Data Size    | 98 bytes |
| Instructions | 20       |

```
      00 01 02 03 04 05 06 07  08 09 0A 0B 0C 0D 0E 0F
      -- -- -- -- -- -- -- --  -- -- -- -- -- -- -- --
00C0:                20 01 24  00 80 01 80 02 80 25 02        .$......%.
00D0: 00 10 02 80 00 13 01 42  43 00 43 01 62 01 80 F8  .......BC.C.b...
00E0: FF FF 7F F8 FF FF 7F 6D  61 69 6E 02 80 1C 03 80  .......main.....
00F0: 47 00 0D 80 0E 80 0F 80  10 80 47 01 62 08 80 F8  G.........G.b...
0100: FF FF 7F F8 FF FF 7F 6D  61 69 6E 02 80 1C 03 80  .......main.....
0110: 01 1E 01 02 00 10 01 80  00 1E 01 01 1E 01 03 01  ................
0120: 10 01 80 20 00 21 00                              ... .!.         
```

#### Opcodes

```
  0: 0x00C5 [0x20] SET_CLI_EVENT_UC_FLAG: Lock player control
  1: 0x00C7 [0x24] CREATE_DIALOG(message_id=7327*, default_option=1*, option_flags=0*)
    → "Use the portal? [Yes./No.]"
  2: 0x00CE [0x25] WAIT_DIALOG_SELECT()
  3: 0x00CF [0x02] IF !(Work_Zone[0] == 0*) GOTO 0x0113
  4: 0x00D7 [0x42] SET_CLI_EVENT_CANCEL_DATA()
  5: 0x00D8 [0x43] SEND_EVENT_UPDATE: Send pending tag to server (packet 0x005B)
  6: 0x00DA [0x43] SEND_EVENT_UPDATE: Check pending flag (skip if not pending)
  7: 0x00DC [0x62] LOAD_EVENT_SCHEDULER: Load scheduler "main" with entities [EventEntity, EventEntity], work=[1*, 0*]
  8: 0x00ED [0x1C] WAIT(180* ticks)
  9: 0x00F0 [0x47] UPDATE_PLAYER_POS(291.459*, -401.161*, -42.087*, yaw=230.0°*)
 10: 0x00FA [0x47] WAIT_PLAYER_POS_UPDATE
 11: 0x00FC [0x62] LOAD_EVENT_SCHEDULER: Load scheduler "main" with entities [EventEntity, EventEntity], work=[2*, 0*]
 12: 0x010D [0x1C] WAIT(180* ticks)
 13: 0x0110 [0x01] GOTO 0x011E
 14: 0x0113 [0x02] IF !(Work_Zone[0] == 1*) GOTO 0x011E
 15: 0x011B [0x01] GOTO 0x011E

SUBROUTINE_011E:
 16: 0x011E [0x03] Work_Zone[1] = 1*
 17: 0x0123 [0x20] SET_CLI_EVENT_UC_FLAG: Unlock player control
 18: 0x0125 [0x21] END_EVENT
 19: 0x0126 [0x00] END_REQSTACK()
```

### Event 3

#### Metadata

| Field        | Value    |
|--------------|----------|
| Entrypoint   | 0x0127   |
| Data Size    | 98 bytes |
| Instructions | 20       |

```
      00 01 02 03 04 05 06 07  08 09 0A 0B 0C 0D 0E 0F
      -- -- -- -- -- -- -- --  -- -- -- -- -- -- -- --
0120:                      20  01 24 00 80 01 80 02 80          .$......
0130: 25 02 00 10 02 80 00 75  01 42 43 00 43 01 62 01  %......u.BC.C.b.
0140: 80 F8 FF FF 7F F8 FF FF  7F 6D 61 69 6E 02 80 1C  .........main...
0150: 03 80 47 00 11 80 12 80  13 80 14 80 47 01 62 08  ..G.........G.b.
0160: 80 F8 FF FF 7F F8 FF FF  7F 6D 61 69 6E 02 80 1C  .........main...
0170: 03 80 01 80 01 02 00 10  01 80 00 80 01 01 80 01  ................
0180: 03 01 10 01 80 20 00 21  00                       ..... .!.       
```

#### Opcodes

```
  0: 0x0127 [0x20] SET_CLI_EVENT_UC_FLAG: Lock player control
  1: 0x0129 [0x24] CREATE_DIALOG(message_id=7327*, default_option=1*, option_flags=0*)
    → "Use the portal? [Yes./No.]"
  2: 0x0130 [0x25] WAIT_DIALOG_SELECT()
  3: 0x0131 [0x02] IF !(Work_Zone[0] == 0*) GOTO 0x0175
  4: 0x0139 [0x42] SET_CLI_EVENT_CANCEL_DATA()
  5: 0x013A [0x43] SEND_EVENT_UPDATE: Send pending tag to server (packet 0x005B)
  6: 0x013C [0x43] SEND_EVENT_UPDATE: Check pending flag (skip if not pending)
  7: 0x013E [0x62] LOAD_EVENT_SCHEDULER: Load scheduler "main" with entities [EventEntity, EventEntity], work=[1*, 0*]
  8: 0x014F [0x1C] WAIT(180* ticks)
  9: 0x0152 [0x47] UPDATE_PLAYER_POS(294.900*, -283.187*, -24.105*, yaw=303.8°*)
 10: 0x015C [0x47] WAIT_PLAYER_POS_UPDATE
 11: 0x015E [0x62] LOAD_EVENT_SCHEDULER: Load scheduler "main" with entities [EventEntity, EventEntity], work=[2*, 0*]
 12: 0x016F [0x1C] WAIT(180* ticks)
 13: 0x0172 [0x01] GOTO 0x0180
 14: 0x0175 [0x02] IF !(Work_Zone[0] == 1*) GOTO 0x0180
 15: 0x017D [0x01] GOTO 0x0180

SUBROUTINE_0180:
 16: 0x0180 [0x03] Work_Zone[1] = 1*
 17: 0x0185 [0x20] SET_CLI_EVENT_UC_FLAG: Unlock player control
 18: 0x0187 [0x21] END_EVENT
 19: 0x0188 [0x00] END_REQSTACK()
```

### Event 4

#### Metadata

| Field        | Value    |
|--------------|----------|
| Entrypoint   | 0x0189   |
| Data Size    | 98 bytes |
| Instructions | 20       |

```
      00 01 02 03 04 05 06 07  08 09 0A 0B 0C 0D 0E 0F
      -- -- -- -- -- -- -- --  -- -- -- -- -- -- -- --
0180:                             20 01 24 00 80 01 80            .$....
0190: 02 80 25 02 00 10 02 80  00 D7 01 42 43 00 43 01  ..%........BC.C.
01A0: 62 01 80 F8 FF FF 7F F8  FF FF 7F 6D 61 69 6E 02  b..........main.
01B0: 80 1C 03 80 47 00 15 80  16 80 17 80 18 80 47 01  ....G.........G.
01C0: 62 08 80 F8 FF FF 7F F8  FF FF 7F 6D 61 69 6E 02  b..........main.
01D0: 80 1C 03 80 01 E2 01 02  00 10 01 80 00 E2 01 01  ................
01E0: E2 01 03 01 10 01 80 20  00 21 00                 ....... .!.     
```

#### Opcodes

```
  0: 0x0189 [0x20] SET_CLI_EVENT_UC_FLAG: Lock player control
  1: 0x018B [0x24] CREATE_DIALOG(message_id=7327*, default_option=1*, option_flags=0*)
    → "Use the portal? [Yes./No.]"
  2: 0x0192 [0x25] WAIT_DIALOG_SELECT()
  3: 0x0193 [0x02] IF !(Work_Zone[0] == 0*) GOTO 0x01D7
  4: 0x019B [0x42] SET_CLI_EVENT_CANCEL_DATA()
  5: 0x019C [0x43] SEND_EVENT_UPDATE: Send pending tag to server (packet 0x005B)
  6: 0x019E [0x43] SEND_EVENT_UPDATE: Check pending flag (skip if not pending)
  7: 0x01A0 [0x62] LOAD_EVENT_SCHEDULER: Load scheduler "main" with entities [EventEntity, EventEntity], work=[1*, 0*]
  8: 0x01B1 [0x1C] WAIT(180* ticks)
  9: 0x01B4 [0x47] UPDATE_PLAYER_POS(358.975*, -255.473*, -40.105*, yaw=300.3°*)
 10: 0x01BE [0x47] WAIT_PLAYER_POS_UPDATE
 11: 0x01C0 [0x62] LOAD_EVENT_SCHEDULER: Load scheduler "main" with entities [EventEntity, EventEntity], work=[2*, 0*]
 12: 0x01D1 [0x1C] WAIT(180* ticks)
 13: 0x01D4 [0x01] GOTO 0x01E2
 14: 0x01D7 [0x02] IF !(Work_Zone[0] == 1*) GOTO 0x01E2
 15: 0x01DF [0x01] GOTO 0x01E2

SUBROUTINE_01E2:
 16: 0x01E2 [0x03] Work_Zone[1] = 1*
 17: 0x01E7 [0x20] SET_CLI_EVENT_UC_FLAG: Unlock player control
 18: 0x01E9 [0x21] END_EVENT
 19: 0x01EA [0x00] END_REQSTACK()
```

### Event 5

#### Metadata

| Field        | Value    |
|--------------|----------|
| Entrypoint   | 0x01EB   |
| Data Size    | 98 bytes |
| Instructions | 20       |

```
      00 01 02 03 04 05 06 07  08 09 0A 0B 0C 0D 0E 0F
      -- -- -- -- -- -- -- --  -- -- -- -- -- -- -- --
01E0:                                   20 01 24 00 80              .$..
01F0: 01 80 02 80 25 02 00 10  02 80 00 39 02 42 43 00  ....%......9.BC.
0200: 43 01 62 01 80 F8 FF FF  7F F8 FF FF 7F 6D 61 69  C.b..........mai
0210: 6E 02 80 1C 03 80 47 00  19 80 1A 80 17 80 1B 80  n.....G.........
0220: 47 01 62 08 80 F8 FF FF  7F F8 FF FF 7F 6D 61 69  G.b..........mai
0230: 6E 02 80 1C 03 80 01 44  02 02 00 10 01 80 00 44  n......D.......D
0240: 02 01 44 02 03 01 10 01  80 20 00 21 00           ..D...... .!.   
```

#### Opcodes

```
  0: 0x01EB [0x20] SET_CLI_EVENT_UC_FLAG: Lock player control
  1: 0x01ED [0x24] CREATE_DIALOG(message_id=7327*, default_option=1*, option_flags=0*)
    → "Use the portal? [Yes./No.]"
  2: 0x01F4 [0x25] WAIT_DIALOG_SELECT()
  3: 0x01F5 [0x02] IF !(Work_Zone[0] == 0*) GOTO 0x0239
  4: 0x01FD [0x42] SET_CLI_EVENT_CANCEL_DATA()
  5: 0x01FE [0x43] SEND_EVENT_UPDATE: Send pending tag to server (packet 0x005B)
  6: 0x0200 [0x43] SEND_EVENT_UPDATE: Check pending flag (skip if not pending)
  7: 0x0202 [0x62] LOAD_EVENT_SCHEDULER: Load scheduler "main" with entities [EventEntity, EventEntity], work=[1*, 0*]
  8: 0x0213 [0x1C] WAIT(180* ticks)
  9: 0x0216 [0x47] UPDATE_PLAYER_POS(107.414*, -432.526*, -40.105*, yaw=169.8°*)
 10: 0x0220 [0x47] WAIT_PLAYER_POS_UPDATE
 11: 0x0222 [0x62] LOAD_EVENT_SCHEDULER: Load scheduler "main" with entities [EventEntity, EventEntity], work=[2*, 0*]
 12: 0x0233 [0x1C] WAIT(180* ticks)
 13: 0x0236 [0x01] GOTO 0x0244
 14: 0x0239 [0x02] IF !(Work_Zone[0] == 1*) GOTO 0x0244
 15: 0x0241 [0x01] GOTO 0x0244

SUBROUTINE_0244:
 16: 0x0244 [0x03] Work_Zone[1] = 1*
 17: 0x0249 [0x20] SET_CLI_EVENT_UC_FLAG: Unlock player control
 18: 0x024B [0x21] END_EVENT
 19: 0x024C [0x00] END_REQSTACK()
```

### Event 6

#### Metadata

| Field        | Value    |
|--------------|----------|
| Entrypoint   | 0x024D   |
| Data Size    | 98 bytes |
| Instructions | 20       |

```
      00 01 02 03 04 05 06 07  08 09 0A 0B 0C 0D 0E 0F
      -- -- -- -- -- -- -- --  -- -- -- -- -- -- -- --
0240:                                         20 01 24                .$
0250: 00 80 01 80 02 80 25 02  00 10 02 80 00 9B 02 42  ......%........B
0260: 43 00 43 01 62 01 80 F8  FF FF 7F F8 FF FF 7F 6D  C.C.b..........m
0270: 61 69 6E 02 80 1C 03 80  47 00 0D 80 0E 80 0F 80  ain.....G.......
0280: 10 80 47 01 62 08 80 F8  FF FF 7F F8 FF FF 7F 6D  ..G.b..........m
0290: 61 69 6E 02 80 1C 03 80  01 A6 02 02 00 10 01 80  ain.............
02A0: 00 A6 02 01 A6 02 03 01  10 01 80 20 00 21 00     ........... .!. 
```

#### Opcodes

```
  0: 0x024D [0x20] SET_CLI_EVENT_UC_FLAG: Lock player control
  1: 0x024F [0x24] CREATE_DIALOG(message_id=7327*, default_option=1*, option_flags=0*)
    → "Use the portal? [Yes./No.]"
  2: 0x0256 [0x25] WAIT_DIALOG_SELECT()
  3: 0x0257 [0x02] IF !(Work_Zone[0] == 0*) GOTO 0x029B
  4: 0x025F [0x42] SET_CLI_EVENT_CANCEL_DATA()
  5: 0x0260 [0x43] SEND_EVENT_UPDATE: Send pending tag to server (packet 0x005B)
  6: 0x0262 [0x43] SEND_EVENT_UPDATE: Check pending flag (skip if not pending)
  7: 0x0264 [0x62] LOAD_EVENT_SCHEDULER: Load scheduler "main" with entities [EventEntity, EventEntity], work=[1*, 0*]
  8: 0x0275 [0x1C] WAIT(180* ticks)
  9: 0x0278 [0x47] UPDATE_PLAYER_POS(291.459*, -401.161*, -42.087*, yaw=230.0°*)
 10: 0x0282 [0x47] WAIT_PLAYER_POS_UPDATE
 11: 0x0284 [0x62] LOAD_EVENT_SCHEDULER: Load scheduler "main" with entities [EventEntity, EventEntity], work=[2*, 0*]
 12: 0x0295 [0x1C] WAIT(180* ticks)
 13: 0x0298 [0x01] GOTO 0x02A6
 14: 0x029B [0x02] IF !(Work_Zone[0] == 1*) GOTO 0x02A6
 15: 0x02A3 [0x01] GOTO 0x02A6

SUBROUTINE_02A6:
 16: 0x02A6 [0x03] Work_Zone[1] = 1*
 17: 0x02AB [0x20] SET_CLI_EVENT_UC_FLAG: Unlock player control
 18: 0x02AD [0x21] END_EVENT
 19: 0x02AE [0x00] END_REQSTACK()
```

### Event 7

#### Metadata

| Field        | Value    |
|--------------|----------|
| Entrypoint   | 0x02AF   |
| Data Size    | 98 bytes |
| Instructions | 20       |

```
      00 01 02 03 04 05 06 07  08 09 0A 0B 0C 0D 0E 0F
      -- -- -- -- -- -- -- --  -- -- -- -- -- -- -- --
02A0:                                               20                  
02B0: 01 24 00 80 01 80 02 80  25 02 00 10 02 80 00 FD  .$......%.......
02C0: 02 42 43 00 43 01 62 01  80 F8 FF FF 7F F8 FF FF  .BC.C.b.........
02D0: 7F 6D 61 69 6E 02 80 1C  03 80 47 00 1C 80 1D 80  .main.....G.....
02E0: 13 80 1E 80 47 01 62 08  80 F8 FF FF 7F F8 FF FF  ....G.b.........
02F0: 7F 6D 61 69 6E 02 80 1C  03 80 01 08 03 02 00 10  .main...........
0300: 01 80 00 08 03 01 08 03  03 01 10 01 80 20 00 21  ............. .!
0310: 00                                                .               
```

#### Opcodes

```
  0: 0x02AF [0x20] SET_CLI_EVENT_UC_FLAG: Lock player control
  1: 0x02B1 [0x24] CREATE_DIALOG(message_id=7327*, default_option=1*, option_flags=0*)
    → "Use the portal? [Yes./No.]"
  2: 0x02B8 [0x25] WAIT_DIALOG_SELECT()
  3: 0x02B9 [0x02] IF !(Work_Zone[0] == 0*) GOTO 0x02FD
  4: 0x02C1 [0x42] SET_CLI_EVENT_CANCEL_DATA()
  5: 0x02C2 [0x43] SEND_EVENT_UPDATE: Send pending tag to server (packet 0x005B)
  6: 0x02C4 [0x43] SEND_EVENT_UPDATE: Check pending flag (skip if not pending)
  7: 0x02C6 [0x62] LOAD_EVENT_SCHEDULER: Load scheduler "main" with entities [EventEntity, EventEntity], work=[1*, 0*]
  8: 0x02D7 [0x1C] WAIT(180* ticks)
  9: 0x02DA [0x47] UPDATE_PLAYER_POS(132.306*, -394.326*, -24.105*, yaw=166.0°*)
 10: 0x02E4 [0x47] WAIT_PLAYER_POS_UPDATE
 11: 0x02E6 [0x62] LOAD_EVENT_SCHEDULER: Load scheduler "main" with entities [EventEntity, EventEntity], work=[2*, 0*]
 12: 0x02F7 [0x1C] WAIT(180* ticks)
 13: 0x02FA [0x01] GOTO 0x0308
 14: 0x02FD [0x02] IF !(Work_Zone[0] == 1*) GOTO 0x0308
 15: 0x0305 [0x01] GOTO 0x0308

SUBROUTINE_0308:
 16: 0x0308 [0x03] Work_Zone[1] = 1*
 17: 0x030D [0x20] SET_CLI_EVENT_UC_FLAG: Unlock player control
 18: 0x030F [0x21] END_EVENT
 19: 0x0310 [0x00] END_REQSTACK()
```

### Event 8

#### Metadata

| Field        | Value    |
|--------------|----------|
| Entrypoint   | 0x0311   |
| Data Size    | 98 bytes |
| Instructions | 20       |

```
      00 01 02 03 04 05 06 07  08 09 0A 0B 0C 0D 0E 0F
      -- -- -- -- -- -- -- --  -- -- -- -- -- -- -- --
0310:    20 01 24 00 80 01 80  02 80 25 02 00 10 02 80    .$......%.....
0320: 00 5F 03 42 43 00 43 01  62 01 80 F8 FF FF 7F F8  ._.BC.C.b.......
0330: FF FF 7F 6D 61 69 6E 02  80 1C 03 80 47 00 1F 80  ...main.....G...
0340: 20 80 21 80 22 80 47 01  62 08 80 F8 FF FF 7F F8   .!.".G.b.......
0350: FF FF 7F 6D 61 69 6E 02  80 1C 03 80 01 6A 03 02  ...main......j..
0360: 00 10 01 80 00 6A 03 01  6A 03 03 01 10 01 80 20  .....j..j...... 
0370: 00 21 00                                          .!.             
```

#### Opcodes

```
  0: 0x0311 [0x20] SET_CLI_EVENT_UC_FLAG: Lock player control
  1: 0x0313 [0x24] CREATE_DIALOG(message_id=7327*, default_option=1*, option_flags=0*)
    → "Use the portal? [Yes./No.]"
  2: 0x031A [0x25] WAIT_DIALOG_SELECT()
  3: 0x031B [0x02] IF !(Work_Zone[0] == 0*) GOTO 0x035F
  4: 0x0323 [0x42] SET_CLI_EVENT_CANCEL_DATA()
  5: 0x0324 [0x43] SEND_EVENT_UPDATE: Send pending tag to server (packet 0x005B)
  6: 0x0326 [0x43] SEND_EVENT_UPDATE: Check pending flag (skip if not pending)
  7: 0x0328 [0x62] LOAD_EVENT_SCHEDULER: Load scheduler "main" with entities [EventEntity, EventEntity], work=[1*, 0*]
  8: 0x0339 [0x1C] WAIT(180* ticks)
  9: 0x033C [0x47] UPDATE_PLAYER_POS(571.500*, -185.983*, -68.703*, yaw=259.4°*)
 10: 0x0346 [0x47] WAIT_PLAYER_POS_UPDATE
 11: 0x0348 [0x62] LOAD_EVENT_SCHEDULER: Load scheduler "main" with entities [EventEntity, EventEntity], work=[2*, 0*]
 12: 0x0359 [0x1C] WAIT(180* ticks)
 13: 0x035C [0x01] GOTO 0x036A
 14: 0x035F [0x02] IF !(Work_Zone[0] == 1*) GOTO 0x036A
 15: 0x0367 [0x01] GOTO 0x036A

SUBROUTINE_036A:
 16: 0x036A [0x03] Work_Zone[1] = 1*
 17: 0x036F [0x20] SET_CLI_EVENT_UC_FLAG: Unlock player control
 18: 0x0371 [0x21] END_EVENT
 19: 0x0372 [0x00] END_REQSTACK()
```

### Event 9

#### Metadata

| Field        | Value    |
|--------------|----------|
| Entrypoint   | 0x0373   |
| Data Size    | 98 bytes |
| Instructions | 20       |

```
      00 01 02 03 04 05 06 07  08 09 0A 0B 0C 0D 0E 0F
      -- -- -- -- -- -- -- --  -- -- -- -- -- -- -- --
0370:          20 01 24 00 80  01 80 02 80 25 02 00 10      .$......%...
0380: 02 80 00 C1 03 42 43 00  43 01 62 01 80 F8 FF FF  .....BC.C.b.....
0390: 7F F8 FF FF 7F 6D 61 69  6E 02 80 1C 03 80 47 00  .....main.....G.
03A0: 23 80 24 80 0F 80 25 80  47 01 62 08 80 F8 FF FF  #.$...%.G.b.....
03B0: 7F F8 FF FF 7F 6D 61 69  6E 02 80 1C 03 80 01 CC  .....main.......
03C0: 03 02 00 10 01 80 00 CC  03 01 CC 03 03 01 10 01  ................
03D0: 80 20 00 21 00                                    . .!.           
```

#### Opcodes

```
  0: 0x0373 [0x20] SET_CLI_EVENT_UC_FLAG: Lock player control
  1: 0x0375 [0x24] CREATE_DIALOG(message_id=7327*, default_option=1*, option_flags=0*)
    → "Use the portal? [Yes./No.]"
  2: 0x037C [0x25] WAIT_DIALOG_SELECT()
  3: 0x037D [0x02] IF !(Work_Zone[0] == 0*) GOTO 0x03C1
  4: 0x0385 [0x42] SET_CLI_EVENT_CANCEL_DATA()
  5: 0x0386 [0x43] SEND_EVENT_UPDATE: Send pending tag to server (packet 0x005B)
  6: 0x0388 [0x43] SEND_EVENT_UPDATE: Check pending flag (skip if not pending)
  7: 0x038A [0x62] LOAD_EVENT_SCHEDULER: Load scheduler "main" with entities [EventEntity, EventEntity], work=[1*, 0*]
  8: 0x039B [0x1C] WAIT(180* ticks)
  9: 0x039E [0x47] UPDATE_PLAYER_POS(471.776*, 153.301*, -42.087*, yaw=163.6°*)
 10: 0x03A8 [0x47] WAIT_PLAYER_POS_UPDATE
 11: 0x03AA [0x62] LOAD_EVENT_SCHEDULER: Load scheduler "main" with entities [EventEntity, EventEntity], work=[2*, 0*]
 12: 0x03BB [0x1C] WAIT(180* ticks)
 13: 0x03BE [0x01] GOTO 0x03CC
 14: 0x03C1 [0x02] IF !(Work_Zone[0] == 1*) GOTO 0x03CC
 15: 0x03C9 [0x01] GOTO 0x03CC

SUBROUTINE_03CC:
 16: 0x03CC [0x03] Work_Zone[1] = 1*
 17: 0x03D1 [0x20] SET_CLI_EVENT_UC_FLAG: Unlock player control
 18: 0x03D3 [0x21] END_EVENT
 19: 0x03D4 [0x00] END_REQSTACK()
```

### Event 10

#### Metadata

| Field        | Value    |
|--------------|----------|
| Entrypoint   | 0x03D5   |
| Data Size    | 98 bytes |
| Instructions | 20       |

```
      00 01 02 03 04 05 06 07  08 09 0A 0B 0C 0D 0E 0F
      -- -- -- -- -- -- -- --  -- -- -- -- -- -- -- --
03D0:                20 01 24  00 80 01 80 02 80 25 02        .$......%.
03E0: 00 10 02 80 00 23 04 42  43 00 43 01 62 01 80 F8  .....#.BC.C.b...
03F0: FF FF 7F F8 FF FF 7F 6D  61 69 6E 02 80 1C 03 80  .......main.....
0400: 47 00 26 80 27 80 13 80  28 80 47 01 62 08 80 F8  G.&.'...(.G.b...
0410: FF FF 7F F8 FF FF 7F 6D  61 69 6E 02 80 1C 03 80  .......main.....
0420: 01 2E 04 02 00 10 01 80  00 2E 04 01 2E 04 03 01  ................
0430: 10 01 80 20 00 21 00                              ... .!.         
```

#### Opcodes

```
  0: 0x03D5 [0x20] SET_CLI_EVENT_UC_FLAG: Lock player control
  1: 0x03D7 [0x24] CREATE_DIALOG(message_id=7327*, default_option=1*, option_flags=0*)
    → "Use the portal? [Yes./No.]"
  2: 0x03DE [0x25] WAIT_DIALOG_SELECT()
  3: 0x03DF [0x02] IF !(Work_Zone[0] == 0*) GOTO 0x0423
  4: 0x03E7 [0x42] SET_CLI_EVENT_CANCEL_DATA()
  5: 0x03E8 [0x43] SEND_EVENT_UPDATE: Send pending tag to server (packet 0x005B)
  6: 0x03EA [0x43] SEND_EVENT_UPDATE: Check pending flag (skip if not pending)
  7: 0x03EC [0x62] LOAD_EVENT_SCHEDULER: Load scheduler "main" with entities [EventEntity, EventEntity], work=[1*, 0*]
  8: 0x03FD [0x1C] WAIT(180* ticks)
  9: 0x0400 [0x47] UPDATE_PLAYER_POS(360.500*, 193.009*, -24.105*, yaw=227.0°*)
 10: 0x040A [0x47] WAIT_PLAYER_POS_UPDATE
 11: 0x040C [0x62] LOAD_EVENT_SCHEDULER: Load scheduler "main" with entities [EventEntity, EventEntity], work=[2*, 0*]
 12: 0x041D [0x1C] WAIT(180* ticks)
 13: 0x0420 [0x01] GOTO 0x042E
 14: 0x0423 [0x02] IF !(Work_Zone[0] == 1*) GOTO 0x042E
 15: 0x042B [0x01] GOTO 0x042E

SUBROUTINE_042E:
 16: 0x042E [0x03] Work_Zone[1] = 1*
 17: 0x0433 [0x20] SET_CLI_EVENT_UC_FLAG: Unlock player control
 18: 0x0435 [0x21] END_EVENT
 19: 0x0436 [0x00] END_REQSTACK()
```

### Event 11

#### Metadata

| Field        | Value    |
|--------------|----------|
| Entrypoint   | 0x0437   |
| Data Size    | 98 bytes |
| Instructions | 20       |

```
      00 01 02 03 04 05 06 07  08 09 0A 0B 0C 0D 0E 0F
      -- -- -- -- -- -- -- --  -- -- -- -- -- -- -- --
0430:                      20  01 24 00 80 01 80 02 80          .$......
0440: 25 02 00 10 02 80 00 85  04 42 43 00 43 01 62 01  %........BC.C.b.
0450: 80 F8 FF FF 7F F8 FF FF  7F 6D 61 69 6E 02 80 1C  .........main...
0460: 03 80 47 00 29 80 2A 80  17 80 2B 80 47 01 62 08  ..G.).*...+.G.b.
0470: 80 F8 FF FF 7F F8 FF FF  7F 6D 61 69 6E 02 80 1C  .........main...
0480: 03 80 01 90 04 02 00 10  01 80 00 90 04 01 90 04  ................
0490: 03 01 10 01 80 20 00 21  00                       ..... .!.       
```

#### Opcodes

```
  0: 0x0437 [0x20] SET_CLI_EVENT_UC_FLAG: Lock player control
  1: 0x0439 [0x24] CREATE_DIALOG(message_id=7327*, default_option=1*, option_flags=0*)
    → "Use the portal? [Yes./No.]"
  2: 0x0440 [0x25] WAIT_DIALOG_SELECT()
  3: 0x0441 [0x02] IF !(Work_Zone[0] == 0*) GOTO 0x0485
  4: 0x0449 [0x42] SET_CLI_EVENT_CANCEL_DATA()
  5: 0x044A [0x43] SEND_EVENT_UPDATE: Send pending tag to server (packet 0x005B)
  6: 0x044C [0x43] SEND_EVENT_UPDATE: Check pending flag (skip if not pending)
  7: 0x044E [0x62] LOAD_EVENT_SCHEDULER: Load scheduler "main" with entities [EventEntity, EventEntity], work=[1*, 0*]
  8: 0x045F [0x1C] WAIT(180* ticks)
  9: 0x0462 [0x47] UPDATE_PLAYER_POS(354.009*, 262.513*, -40.105*, yaw=230.6°*)
 10: 0x046C [0x47] WAIT_PLAYER_POS_UPDATE
 11: 0x046E [0x62] LOAD_EVENT_SCHEDULER: Load scheduler "main" with entities [EventEntity, EventEntity], work=[2*, 0*]
 12: 0x047F [0x1C] WAIT(180* ticks)
 13: 0x0482 [0x01] GOTO 0x0490
 14: 0x0485 [0x02] IF !(Work_Zone[0] == 1*) GOTO 0x0490
 15: 0x048D [0x01] GOTO 0x0490

SUBROUTINE_0490:
 16: 0x0490 [0x03] Work_Zone[1] = 1*
 17: 0x0495 [0x20] SET_CLI_EVENT_UC_FLAG: Unlock player control
 18: 0x0497 [0x21] END_EVENT
 19: 0x0498 [0x00] END_REQSTACK()
```

### Event 12

#### Metadata

| Field        | Value    |
|--------------|----------|
| Entrypoint   | 0x0499   |
| Data Size    | 98 bytes |
| Instructions | 20       |

```
      00 01 02 03 04 05 06 07  08 09 0A 0B 0C 0D 0E 0F
      -- -- -- -- -- -- -- --  -- -- -- -- -- -- -- --
0490:                             20 01 24 00 80 01 80            .$....
04A0: 02 80 25 02 00 10 02 80  00 E7 04 42 43 00 43 01  ..%........BC.C.
04B0: 62 01 80 F8 FF FF 7F F8  FF FF 7F 6D 61 69 6E 02  b..........main.
04C0: 80 1C 03 80 47 00 2C 80  2D 80 17 80 2E 80 47 01  ....G.,.-.....G.
04D0: 62 08 80 F8 FF FF 7F F8  FF FF 7F 6D 61 69 6E 02  b..........main.
04E0: 80 1C 03 80 01 F2 04 02  00 10 01 80 00 F2 04 01  ................
04F0: F2 04 03 01 10 01 80 20  00 21 00                 ....... .!.     
```

#### Opcodes

```
  0: 0x0499 [0x20] SET_CLI_EVENT_UC_FLAG: Lock player control
  1: 0x049B [0x24] CREATE_DIALOG(message_id=7327*, default_option=1*, option_flags=0*)
    → "Use the portal? [Yes./No.]"
  2: 0x04A2 [0x25] WAIT_DIALOG_SELECT()
  3: 0x04A3 [0x02] IF !(Work_Zone[0] == 0*) GOTO 0x04E7
  4: 0x04AB [0x42] SET_CLI_EVENT_CANCEL_DATA()
  5: 0x04AC [0x43] SEND_EVENT_UPDATE: Send pending tag to server (packet 0x005B)
  6: 0x04AE [0x43] SEND_EVENT_UPDATE: Check pending flag (skip if not pending)
  7: 0x04B0 [0x62] LOAD_EVENT_SCHEDULER: Load scheduler "main" with entities [EventEntity, EventEntity], work=[1*, 0*]
  8: 0x04C1 [0x1C] WAIT(180* ticks)
  9: 0x04C4 [0x47] UPDATE_PLAYER_POS(440.578*, -4.197*, -40.105*, yaw=88.2°*)
 10: 0x04CE [0x47] WAIT_PLAYER_POS_UPDATE
 11: 0x04D0 [0x62] LOAD_EVENT_SCHEDULER: Load scheduler "main" with entities [EventEntity, EventEntity], work=[2*, 0*]
 12: 0x04E1 [0x1C] WAIT(180* ticks)
 13: 0x04E4 [0x01] GOTO 0x04F2
 14: 0x04E7 [0x02] IF !(Work_Zone[0] == 1*) GOTO 0x04F2
 15: 0x04EF [0x01] GOTO 0x04F2

SUBROUTINE_04F2:
 16: 0x04F2 [0x03] Work_Zone[1] = 1*
 17: 0x04F7 [0x20] SET_CLI_EVENT_UC_FLAG: Unlock player control
 18: 0x04F9 [0x21] END_EVENT
 19: 0x04FA [0x00] END_REQSTACK()
```

### Event 13

#### Metadata

| Field        | Value    |
|--------------|----------|
| Entrypoint   | 0x04FB   |
| Data Size    | 98 bytes |
| Instructions | 20       |

```
      00 01 02 03 04 05 06 07  08 09 0A 0B 0C 0D 0E 0F
      -- -- -- -- -- -- -- --  -- -- -- -- -- -- -- --
04F0:                                   20 01 24 00 80              .$..
0500: 01 80 02 80 25 02 00 10  02 80 00 49 05 42 43 00  ....%......I.BC.
0510: 43 01 62 01 80 F8 FF FF  7F F8 FF FF 7F 6D 61 69  C.b..........mai
0520: 6E 02 80 1C 03 80 47 00  23 80 24 80 0F 80 25 80  n.....G.#.$...%.
0530: 47 01 62 08 80 F8 FF FF  7F F8 FF FF 7F 6D 61 69  G.b..........mai
0540: 6E 02 80 1C 03 80 01 54  05 02 00 10 01 80 00 54  n......T.......T
0550: 05 01 54 05 03 01 10 01  80 20 00 21 00           ..T...... .!.   
```

#### Opcodes

```
  0: 0x04FB [0x20] SET_CLI_EVENT_UC_FLAG: Lock player control
  1: 0x04FD [0x24] CREATE_DIALOG(message_id=7327*, default_option=1*, option_flags=0*)
    → "Use the portal? [Yes./No.]"
  2: 0x0504 [0x25] WAIT_DIALOG_SELECT()
  3: 0x0505 [0x02] IF !(Work_Zone[0] == 0*) GOTO 0x0549
  4: 0x050D [0x42] SET_CLI_EVENT_CANCEL_DATA()
  5: 0x050E [0x43] SEND_EVENT_UPDATE: Send pending tag to server (packet 0x005B)
  6: 0x0510 [0x43] SEND_EVENT_UPDATE: Check pending flag (skip if not pending)
  7: 0x0512 [0x62] LOAD_EVENT_SCHEDULER: Load scheduler "main" with entities [EventEntity, EventEntity], work=[1*, 0*]
  8: 0x0523 [0x1C] WAIT(180* ticks)
  9: 0x0526 [0x47] UPDATE_PLAYER_POS(471.776*, 153.301*, -42.087*, yaw=163.6°*)
 10: 0x0530 [0x47] WAIT_PLAYER_POS_UPDATE
 11: 0x0532 [0x62] LOAD_EVENT_SCHEDULER: Load scheduler "main" with entities [EventEntity, EventEntity], work=[2*, 0*]
 12: 0x0543 [0x1C] WAIT(180* ticks)
 13: 0x0546 [0x01] GOTO 0x0554
 14: 0x0549 [0x02] IF !(Work_Zone[0] == 1*) GOTO 0x0554
 15: 0x0551 [0x01] GOTO 0x0554

SUBROUTINE_0554:
 16: 0x0554 [0x03] Work_Zone[1] = 1*
 17: 0x0559 [0x20] SET_CLI_EVENT_UC_FLAG: Unlock player control
 18: 0x055B [0x21] END_EVENT
 19: 0x055C [0x00] END_REQSTACK()
```

### Event 14

#### Metadata

| Field        | Value    |
|--------------|----------|
| Entrypoint   | 0x055D   |
| Data Size    | 98 bytes |
| Instructions | 20       |

```
      00 01 02 03 04 05 06 07  08 09 0A 0B 0C 0D 0E 0F
      -- -- -- -- -- -- -- --  -- -- -- -- -- -- -- --
0550:                                         20 01 24                .$
0560: 00 80 01 80 02 80 25 02  00 10 02 80 00 AB 05 42  ......%........B
0570: 43 00 43 01 62 01 80 F8  FF FF 7F F8 FF FF 7F 6D  C.C.b..........m
0580: 61 69 6E 02 80 1C 03 80  47 00 2F 80 30 80 13 80  ain.....G./.0...
0590: 31 80 47 01 62 08 80 F8  FF FF 7F F8 FF FF 7F 6D  1.G.b..........m
05A0: 61 69 6E 02 80 1C 03 80  01 B6 05 02 00 10 01 80  ain.............
05B0: 00 B6 05 01 B6 05 03 01  10 01 80 20 00 21 00     ........... .!. 
```

#### Opcodes

```
  0: 0x055D [0x20] SET_CLI_EVENT_UC_FLAG: Lock player control
  1: 0x055F [0x24] CREATE_DIALOG(message_id=7327*, default_option=1*, option_flags=0*)
    → "Use the portal? [Yes./No.]"
  2: 0x0566 [0x25] WAIT_DIALOG_SELECT()
  3: 0x0567 [0x02] IF !(Work_Zone[0] == 0*) GOTO 0x05AB
  4: 0x056F [0x42] SET_CLI_EVENT_CANCEL_DATA()
  5: 0x0570 [0x43] SEND_EVENT_UPDATE: Send pending tag to server (packet 0x005B)
  6: 0x0572 [0x43] SEND_EVENT_UPDATE: Check pending flag (skip if not pending)
  7: 0x0574 [0x62] LOAD_EVENT_SCHEDULER: Load scheduler "main" with entities [EventEntity, EventEntity], work=[1*, 0*]
  8: 0x0585 [0x1C] WAIT(180* ticks)
  9: 0x0588 [0x47] UPDATE_PLAYER_POS(405.100*, 55.801*, -24.105*, yaw=97.1°*)
 10: 0x0592 [0x47] WAIT_PLAYER_POS_UPDATE
 11: 0x0594 [0x62] LOAD_EVENT_SCHEDULER: Load scheduler "main" with entities [EventEntity, EventEntity], work=[2*, 0*]
 12: 0x05A5 [0x1C] WAIT(180* ticks)
 13: 0x05A8 [0x01] GOTO 0x05B6
 14: 0x05AB [0x02] IF !(Work_Zone[0] == 1*) GOTO 0x05B6
 15: 0x05B3 [0x01] GOTO 0x05B6

SUBROUTINE_05B6:
 16: 0x05B6 [0x03] Work_Zone[1] = 1*
 17: 0x05BB [0x20] SET_CLI_EVENT_UC_FLAG: Unlock player control
 18: 0x05BD [0x21] END_EVENT
 19: 0x05BE [0x00] END_REQSTACK()
```

### Event 15

#### Metadata

| Field        | Value    |
|--------------|----------|
| Entrypoint   | 0x05BF   |
| Data Size    | 98 bytes |
| Instructions | 20       |

```
      00 01 02 03 04 05 06 07  08 09 0A 0B 0C 0D 0E 0F
      -- -- -- -- -- -- -- --  -- -- -- -- -- -- -- --
05B0:                                               20                  
05C0: 01 24 00 80 01 80 02 80  25 02 00 10 02 80 00 0D  .$......%.......
05D0: 06 42 43 00 43 01 62 01  80 F8 FF FF 7F F8 FF FF  .BC.C.b.........
05E0: 7F 6D 61 69 6E 02 80 1C  03 80 47 00 32 80 33 80  .main.....G.2.3.
05F0: 34 80 35 80 47 01 62 08  80 F8 FF FF 7F F8 FF FF  4.5.G.b.........
0600: 7F 6D 61 69 6E 02 80 1C  03 80 01 18 06 02 00 10  .main...........
0610: 01 80 00 18 06 01 18 06  03 01 10 01 80 20 00 21  ............. .!
0620: 00                                                .               
```

#### Opcodes

```
  0: 0x05BF [0x20] SET_CLI_EVENT_UC_FLAG: Lock player control
  1: 0x05C1 [0x24] CREATE_DIALOG(message_id=7327*, default_option=1*, option_flags=0*)
    → "Use the portal? [Yes./No.]"
  2: 0x05C8 [0x25] WAIT_DIALOG_SELECT()
  3: 0x05C9 [0x02] IF !(Work_Zone[0] == 0*) GOTO 0x060D
  4: 0x05D1 [0x42] SET_CLI_EVENT_CANCEL_DATA()
  5: 0x05D2 [0x43] SEND_EVENT_UPDATE: Send pending tag to server (packet 0x005B)
  6: 0x05D4 [0x43] SEND_EVENT_UPDATE: Check pending flag (skip if not pending)
  7: 0x05D6 [0x62] LOAD_EVENT_SCHEDULER: Load scheduler "main" with entities [EventEntity, EventEntity], work=[1*, 0*]
  8: 0x05E7 [0x1C] WAIT(180* ticks)
  9: 0x05EA [0x47] UPDATE_PLAYER_POS(353.311*, 485.943*, -68.704*, yaw=191.6°*)
 10: 0x05F4 [0x47] WAIT_PLAYER_POS_UPDATE
 11: 0x05F6 [0x62] LOAD_EVENT_SCHEDULER: Load scheduler "main" with entities [EventEntity, EventEntity], work=[2*, 0*]
 12: 0x0607 [0x1C] WAIT(180* ticks)
 13: 0x060A [0x01] GOTO 0x0618
 14: 0x060D [0x02] IF !(Work_Zone[0] == 1*) GOTO 0x0618
 15: 0x0615 [0x01] GOTO 0x0618

SUBROUTINE_0618:
 16: 0x0618 [0x03] Work_Zone[1] = 1*
 17: 0x061D [0x20] SET_CLI_EVENT_UC_FLAG: Unlock player control
 18: 0x061F [0x21] END_EVENT
 19: 0x0620 [0x00] END_REQSTACK()
```

### Event 16

#### Metadata

| Field        | Value    |
|--------------|----------|
| Entrypoint   | 0x0621   |
| Data Size    | 98 bytes |
| Instructions | 20       |

```
      00 01 02 03 04 05 06 07  08 09 0A 0B 0C 0D 0E 0F
      -- -- -- -- -- -- -- --  -- -- -- -- -- -- -- --
0620:    20 01 24 00 80 01 80  02 80 25 02 00 10 02 80    .$......%.....
0630: 00 6F 06 42 43 00 43 01  62 01 80 F8 FF FF 7F F8  .o.BC.C.b.......
0640: FF FF 7F 6D 61 69 6E 02  80 1C 03 80 47 00 36 80  ...main.....G.6.
0650: 37 80 0F 80 38 80 47 01  62 08 80 F8 FF FF 7F F8  7...8.G.b.......
0660: FF FF 7F 6D 61 69 6E 02  80 1C 03 80 01 7A 06 02  ...main......z..
0670: 00 10 01 80 00 7A 06 01  7A 06 03 01 10 01 80 20  .....z..z...... 
0680: 00 21 00                                          .!.             
```

#### Opcodes

```
  0: 0x0621 [0x20] SET_CLI_EVENT_UC_FLAG: Lock player control
  1: 0x0623 [0x24] CREATE_DIALOG(message_id=7327*, default_option=1*, option_flags=0*)
    → "Use the portal? [Yes./No.]"
  2: 0x062A [0x25] WAIT_DIALOG_SELECT()
  3: 0x062B [0x02] IF !(Work_Zone[0] == 0*) GOTO 0x066F
  4: 0x0633 [0x42] SET_CLI_EVENT_CANCEL_DATA()
  5: 0x0634 [0x43] SEND_EVENT_UPDATE: Send pending tag to server (packet 0x005B)
  6: 0x0636 [0x43] SEND_EVENT_UPDATE: Check pending flag (skip if not pending)
  7: 0x0638 [0x62] LOAD_EVENT_SCHEDULER: Load scheduler "main" with entities [EventEntity, EventEntity], work=[1*, 0*]
  8: 0x0649 [0x1C] WAIT(180* ticks)
  9: 0x064C [0x47] UPDATE_PLAYER_POS(0.049*, 496.093*, -42.087*, yaw=104.9°*)
 10: 0x0656 [0x47] WAIT_PLAYER_POS_UPDATE
 11: 0x0658 [0x62] LOAD_EVENT_SCHEDULER: Load scheduler "main" with entities [EventEntity, EventEntity], work=[2*, 0*]
 12: 0x0669 [0x1C] WAIT(180* ticks)
 13: 0x066C [0x01] GOTO 0x067A
 14: 0x066F [0x02] IF !(Work_Zone[0] == 1*) GOTO 0x067A
 15: 0x0677 [0x01] GOTO 0x067A

SUBROUTINE_067A:
 16: 0x067A [0x03] Work_Zone[1] = 1*
 17: 0x067F [0x20] SET_CLI_EVENT_UC_FLAG: Unlock player control
 18: 0x0681 [0x21] END_EVENT
 19: 0x0682 [0x00] END_REQSTACK()
```

### Event 17

#### Metadata

| Field        | Value    |
|--------------|----------|
| Entrypoint   | 0x0683   |
| Data Size    | 98 bytes |
| Instructions | 20       |

```
      00 01 02 03 04 05 06 07  08 09 0A 0B 0C 0D 0E 0F
      -- -- -- -- -- -- -- --  -- -- -- -- -- -- -- --
0680:          20 01 24 00 80  01 80 02 80 25 02 00 10      .$......%...
0690: 02 80 00 D1 06 42 43 00  43 01 62 01 80 F8 FF FF  .....BC.C.b.....
06A0: 7F F8 FF FF 7F 6D 61 69  6E 02 80 1C 03 80 47 00  .....main.....G.
06B0: 39 80 3A 80 13 80 3B 80  47 01 62 08 80 F8 FF FF  9.:...;.G.b.....
06C0: 7F F8 FF FF 7F 6D 61 69  6E 02 80 1C 03 80 01 DC  .....main.......
06D0: 06 02 00 10 01 80 00 DC  06 01 DC 06 03 01 10 01  ................
06E0: 80 20 00 21 00                                    . .!.           
```

#### Opcodes

```
  0: 0x0683 [0x20] SET_CLI_EVENT_UC_FLAG: Lock player control
  1: 0x0685 [0x24] CREATE_DIALOG(message_id=7327*, default_option=1*, option_flags=0*)
    → "Use the portal? [Yes./No.]"
  2: 0x068C [0x25] WAIT_DIALOG_SELECT()
  3: 0x068D [0x02] IF !(Work_Zone[0] == 0*) GOTO 0x06D1
  4: 0x0695 [0x42] SET_CLI_EVENT_CANCEL_DATA()
  5: 0x0696 [0x43] SEND_EVENT_UPDATE: Send pending tag to server (packet 0x005B)
  6: 0x0698 [0x43] SEND_EVENT_UPDATE: Check pending flag (skip if not pending)
  7: 0x069A [0x62] LOAD_EVENT_SCHEDULER: Load scheduler "main" with entities [EventEntity, EventEntity], work=[1*, 0*]
  8: 0x06AB [0x1C] WAIT(180* ticks)
  9: 0x06AE [0x47] UPDATE_PLAYER_POS(-72.147*, 402.427*, -24.105*, yaw=161.4°*)
 10: 0x06B8 [0x47] WAIT_PLAYER_POS_UPDATE
 11: 0x06BA [0x62] LOAD_EVENT_SCHEDULER: Load scheduler "main" with entities [EventEntity, EventEntity], work=[2*, 0*]
 12: 0x06CB [0x1C] WAIT(180* ticks)
 13: 0x06CE [0x01] GOTO 0x06DC
 14: 0x06D1 [0x02] IF !(Work_Zone[0] == 1*) GOTO 0x06DC
 15: 0x06D9 [0x01] GOTO 0x06DC

SUBROUTINE_06DC:
 16: 0x06DC [0x03] Work_Zone[1] = 1*
 17: 0x06E1 [0x20] SET_CLI_EVENT_UC_FLAG: Unlock player control
 18: 0x06E3 [0x21] END_EVENT
 19: 0x06E4 [0x00] END_REQSTACK()
```

### Event 18

#### Metadata

| Field        | Value    |
|--------------|----------|
| Entrypoint   | 0x06E5   |
| Data Size    | 98 bytes |
| Instructions | 20       |

```
      00 01 02 03 04 05 06 07  08 09 0A 0B 0C 0D 0E 0F
      -- -- -- -- -- -- -- --  -- -- -- -- -- -- -- --
06E0:                20 01 24  00 80 01 80 02 80 25 02        .$......%.
06F0: 00 10 02 80 00 33 07 42  43 00 43 01 62 01 80 F8  .....3.BC.C.b...
0700: FF FF 7F F8 FF FF 7F 6D  61 69 6E 02 80 1C 03 80  .......main.....
0710: 47 00 3C 80 3D 80 17 80  3E 80 47 01 62 08 80 F8  G.<.=...>.G.b...
0720: FF FF 7F F8 FF FF 7F 6D  61 69 6E 02 80 1C 03 80  .......main.....
0730: 01 3E 07 02 00 10 01 80  00 3E 07 01 3E 07 03 01  .>.......>..>...
0740: 10 01 80 20 00 21 00                              ... .!.         
```

#### Opcodes

```
  0: 0x06E5 [0x20] SET_CLI_EVENT_UC_FLAG: Lock player control
  1: 0x06E7 [0x24] CREATE_DIALOG(message_id=7327*, default_option=1*, option_flags=0*)
    → "Use the portal? [Yes./No.]"
  2: 0x06EE [0x25] WAIT_DIALOG_SELECT()
  3: 0x06EF [0x02] IF !(Work_Zone[0] == 0*) GOTO 0x0733
  4: 0x06F7 [0x42] SET_CLI_EVENT_CANCEL_DATA()
  5: 0x06F8 [0x43] SEND_EVENT_UPDATE: Send pending tag to server (packet 0x005B)
  6: 0x06FA [0x43] SEND_EVENT_UPDATE: Check pending flag (skip if not pending)
  7: 0x06FC [0x62] LOAD_EVENT_SCHEDULER: Load scheduler "main" with entities [EventEntity, EventEntity], work=[1*, 0*]
  8: 0x070D [0x1C] WAIT(180* ticks)
  9: 0x0710 [0x47] UPDATE_PLAYER_POS(-140.443*, 417.589*, -40.105*, yaw=159.4°*)
 10: 0x071A [0x47] WAIT_PLAYER_POS_UPDATE
 11: 0x071C [0x62] LOAD_EVENT_SCHEDULER: Load scheduler "main" with entities [EventEntity, EventEntity], work=[2*, 0*]
 12: 0x072D [0x1C] WAIT(180* ticks)
 13: 0x0730 [0x01] GOTO 0x073E
 14: 0x0733 [0x02] IF !(Work_Zone[0] == 1*) GOTO 0x073E
 15: 0x073B [0x01] GOTO 0x073E

SUBROUTINE_073E:
 16: 0x073E [0x03] Work_Zone[1] = 1*
 17: 0x0743 [0x20] SET_CLI_EVENT_UC_FLAG: Unlock player control
 18: 0x0745 [0x21] END_EVENT
 19: 0x0746 [0x00] END_REQSTACK()
```

### Event 19

#### Metadata

| Field        | Value    |
|--------------|----------|
| Entrypoint   | 0x0747   |
| Data Size    | 98 bytes |
| Instructions | 20       |

```
      00 01 02 03 04 05 06 07  08 09 0A 0B 0C 0D 0E 0F
      -- -- -- -- -- -- -- --  -- -- -- -- -- -- -- --
0740:                      20  01 24 00 80 01 80 02 80          .$......
0750: 25 02 00 10 02 80 00 95  07 42 43 00 43 01 62 01  %........BC.C.b.
0760: 80 F8 FF FF 7F F8 FF FF  7F 6D 61 69 6E 02 80 1C  .........main...
0770: 03 80 47 00 3F 80 40 80  17 80 41 80 47 01 62 08  ..G.?.@...A.G.b.
0780: 80 F8 FF FF 7F F8 FF FF  7F 6D 61 69 6E 02 80 1C  .........main...
0790: 03 80 01 A0 07 02 00 10  01 80 00 A0 07 01 A0 07  ................
07A0: 03 01 10 01 80 20 00 21  00                       ..... .!.       
```

#### Opcodes

```
  0: 0x0747 [0x20] SET_CLI_EVENT_UC_FLAG: Lock player control
  1: 0x0749 [0x24] CREATE_DIALOG(message_id=7327*, default_option=1*, option_flags=0*)
    → "Use the portal? [Yes./No.]"
  2: 0x0750 [0x25] WAIT_DIALOG_SELECT()
  3: 0x0751 [0x02] IF !(Work_Zone[0] == 0*) GOTO 0x0795
  4: 0x0759 [0x42] SET_CLI_EVENT_CANCEL_DATA()
  5: 0x075A [0x43] SEND_EVENT_UPDATE: Send pending tag to server (packet 0x005B)
  6: 0x075C [0x43] SEND_EVENT_UPDATE: Check pending flag (skip if not pending)
  7: 0x075E [0x62] LOAD_EVENT_SCHEDULER: Load scheduler "main" with entities [EventEntity, EventEntity], work=[1*, 0*]
  8: 0x076F [0x1C] WAIT(180* ticks)
  9: 0x0772 [0x47] UPDATE_PLAYER_POS(140.286*, 417.635*, -40.105*, yaw=11.1°*)
 10: 0x077C [0x47] WAIT_PLAYER_POS_UPDATE
 11: 0x077E [0x62] LOAD_EVENT_SCHEDULER: Load scheduler "main" with entities [EventEntity, EventEntity], work=[2*, 0*]
 12: 0x078F [0x1C] WAIT(180* ticks)
 13: 0x0792 [0x01] GOTO 0x07A0
 14: 0x0795 [0x02] IF !(Work_Zone[0] == 1*) GOTO 0x07A0
 15: 0x079D [0x01] GOTO 0x07A0

SUBROUTINE_07A0:
 16: 0x07A0 [0x03] Work_Zone[1] = 1*
 17: 0x07A5 [0x20] SET_CLI_EVENT_UC_FLAG: Unlock player control
 18: 0x07A7 [0x21] END_EVENT
 19: 0x07A8 [0x00] END_REQSTACK()
```

### Event 20

#### Metadata

| Field        | Value    |
|--------------|----------|
| Entrypoint   | 0x07A9   |
| Data Size    | 98 bytes |
| Instructions | 20       |

```
      00 01 02 03 04 05 06 07  08 09 0A 0B 0C 0D 0E 0F
      -- -- -- -- -- -- -- --  -- -- -- -- -- -- -- --
07A0:                             20 01 24 00 80 01 80            .$....
07B0: 02 80 25 02 00 10 02 80  00 F7 07 42 43 00 43 01  ..%........BC.C.
07C0: 62 01 80 F8 FF FF 7F F8  FF FF 7F 6D 61 69 6E 02  b..........main.
07D0: 80 1C 03 80 47 00 36 80  37 80 0F 80 38 80 47 01  ....G.6.7...8.G.
07E0: 62 08 80 F8 FF FF 7F F8  FF FF 7F 6D 61 69 6E 02  b..........main.
07F0: 80 1C 03 80 01 02 08 02  00 10 01 80 00 02 08 01  ................
0800: 02 08 03 01 10 01 80 20  00 21 00                 ....... .!.     
```

#### Opcodes

```
  0: 0x07A9 [0x20] SET_CLI_EVENT_UC_FLAG: Lock player control
  1: 0x07AB [0x24] CREATE_DIALOG(message_id=7327*, default_option=1*, option_flags=0*)
    → "Use the portal? [Yes./No.]"
  2: 0x07B2 [0x25] WAIT_DIALOG_SELECT()
  3: 0x07B3 [0x02] IF !(Work_Zone[0] == 0*) GOTO 0x07F7
  4: 0x07BB [0x42] SET_CLI_EVENT_CANCEL_DATA()
  5: 0x07BC [0x43] SEND_EVENT_UPDATE: Send pending tag to server (packet 0x005B)
  6: 0x07BE [0x43] SEND_EVENT_UPDATE: Check pending flag (skip if not pending)
  7: 0x07C0 [0x62] LOAD_EVENT_SCHEDULER: Load scheduler "main" with entities [EventEntity, EventEntity], work=[1*, 0*]
  8: 0x07D1 [0x1C] WAIT(180* ticks)
  9: 0x07D4 [0x47] UPDATE_PLAYER_POS(0.049*, 496.093*, -42.087*, yaw=104.9°*)
 10: 0x07DE [0x47] WAIT_PLAYER_POS_UPDATE
 11: 0x07E0 [0x62] LOAD_EVENT_SCHEDULER: Load scheduler "main" with entities [EventEntity, EventEntity], work=[2*, 0*]
 12: 0x07F1 [0x1C] WAIT(180* ticks)
 13: 0x07F4 [0x01] GOTO 0x0802
 14: 0x07F7 [0x02] IF !(Work_Zone[0] == 1*) GOTO 0x0802
 15: 0x07FF [0x01] GOTO 0x0802

SUBROUTINE_0802:
 16: 0x0802 [0x03] Work_Zone[1] = 1*
 17: 0x0807 [0x20] SET_CLI_EVENT_UC_FLAG: Unlock player control
 18: 0x0809 [0x21] END_EVENT
 19: 0x080A [0x00] END_REQSTACK()
```

### Event 21

#### Metadata

| Field        | Value    |
|--------------|----------|
| Entrypoint   | 0x080B   |
| Data Size    | 98 bytes |
| Instructions | 20       |

```
      00 01 02 03 04 05 06 07  08 09 0A 0B 0C 0D 0E 0F
      -- -- -- -- -- -- -- --  -- -- -- -- -- -- -- --
0800:                                   20 01 24 00 80              .$..
0810: 01 80 02 80 25 02 00 10  02 80 00 59 08 42 43 00  ....%......Y.BC.
0820: 43 01 62 01 80 F8 FF FF  7F F8 FF FF 7F 6D 61 69  C.b..........mai
0830: 6E 02 80 1C 03 80 47 00  42 80 43 80 13 80 44 80  n.....G.B.C...D.
0840: 47 01 62 08 80 F8 FF FF  7F F8 FF FF 7F 6D 61 69  G.b..........mai
0850: 6E 02 80 1C 03 80 01 64  08 02 00 10 01 80 00 64  n......d.......d
0860: 08 01 64 08 03 01 10 01  80 20 00 21 00           ..d...... .!.   
```

#### Opcodes

```
  0: 0x080B [0x20] SET_CLI_EVENT_UC_FLAG: Lock player control
  1: 0x080D [0x24] CREATE_DIALOG(message_id=7327*, default_option=1*, option_flags=0*)
    → "Use the portal? [Yes./No.]"
  2: 0x0814 [0x25] WAIT_DIALOG_SELECT()
  3: 0x0815 [0x02] IF !(Work_Zone[0] == 0*) GOTO 0x0859
  4: 0x081D [0x42] SET_CLI_EVENT_CANCEL_DATA()
  5: 0x081E [0x43] SEND_EVENT_UPDATE: Send pending tag to server (packet 0x005B)
  6: 0x0820 [0x43] SEND_EVENT_UPDATE: Check pending flag (skip if not pending)
  7: 0x0822 [0x62] LOAD_EVENT_SCHEDULER: Load scheduler "main" with entities [EventEntity, EventEntity], work=[1*, 0*]
  8: 0x0833 [0x1C] WAIT(180* ticks)
  9: 0x0836 [0x47] UPDATE_PLAYER_POS(72.378*, 402.401*, -24.105*, yaw=26.9°*)
 10: 0x0840 [0x47] WAIT_PLAYER_POS_UPDATE
 11: 0x0842 [0x62] LOAD_EVENT_SCHEDULER: Load scheduler "main" with entities [EventEntity, EventEntity], work=[2*, 0*]
 12: 0x0853 [0x1C] WAIT(180* ticks)
 13: 0x0856 [0x01] GOTO 0x0864
 14: 0x0859 [0x02] IF !(Work_Zone[0] == 1*) GOTO 0x0864
 15: 0x0861 [0x01] GOTO 0x0864

SUBROUTINE_0864:
 16: 0x0864 [0x03] Work_Zone[1] = 1*
 17: 0x0869 [0x20] SET_CLI_EVENT_UC_FLAG: Unlock player control
 18: 0x086B [0x21] END_EVENT
 19: 0x086C [0x00] END_REQSTACK()
```

### Event 22

#### Metadata

| Field        | Value    |
|--------------|----------|
| Entrypoint   | 0x086D   |
| Data Size    | 98 bytes |
| Instructions | 20       |

```
      00 01 02 03 04 05 06 07  08 09 0A 0B 0C 0D 0E 0F
      -- -- -- -- -- -- -- --  -- -- -- -- -- -- -- --
0860:                                         20 01 24                .$
0870: 00 80 01 80 02 80 25 02  00 10 02 80 00 BB 08 42  ......%........B
0880: 43 00 43 01 62 01 80 F8  FF FF 7F F8 FF FF 7F 6D  C.C.b..........m
0890: 61 69 6E 02 80 1C 03 80  47 00 45 80 46 80 47 80  ain.....G.E.F.G.
08A0: 48 80 47 01 62 08 80 F8  FF FF 7F F8 FF FF 7F 6D  H.G.b..........m
08B0: 61 69 6E 02 80 1C 03 80  01 C6 08 02 00 10 01 80  ain.............
08C0: 00 C6 08 01 C6 08 03 01  10 01 80 20 00 21 00     ........... .!. 
```

#### Opcodes

```
  0: 0x086D [0x20] SET_CLI_EVENT_UC_FLAG: Lock player control
  1: 0x086F [0x24] CREATE_DIALOG(message_id=7327*, default_option=1*, option_flags=0*)
    → "Use the portal? [Yes./No.]"
  2: 0x0876 [0x25] WAIT_DIALOG_SELECT()
  3: 0x0877 [0x02] IF !(Work_Zone[0] == 0*) GOTO 0x08BB
  4: 0x087F [0x42] SET_CLI_EVENT_CANCEL_DATA()
  5: 0x0880 [0x43] SEND_EVENT_UPDATE: Send pending tag to server (packet 0x005B)
  6: 0x0882 [0x43] SEND_EVENT_UPDATE: Check pending flag (skip if not pending)
  7: 0x0884 [0x62] LOAD_EVENT_SCHEDULER: Load scheduler "main" with entities [EventEntity, EventEntity], work=[1*, 0*]
  8: 0x0895 [0x1C] WAIT(180* ticks)
  9: 0x0898 [0x47] UPDATE_PLAYER_POS(-352.796*, 486.453*, -68.705*, yaw=124.5°*)
 10: 0x08A2 [0x47] WAIT_PLAYER_POS_UPDATE
 11: 0x08A4 [0x62] LOAD_EVENT_SCHEDULER: Load scheduler "main" with entities [EventEntity, EventEntity], work=[2*, 0*]
 12: 0x08B5 [0x1C] WAIT(180* ticks)
 13: 0x08B8 [0x01] GOTO 0x08C6
 14: 0x08BB [0x02] IF !(Work_Zone[0] == 1*) GOTO 0x08C6
 15: 0x08C3 [0x01] GOTO 0x08C6

SUBROUTINE_08C6:
 16: 0x08C6 [0x03] Work_Zone[1] = 1*
 17: 0x08CB [0x20] SET_CLI_EVENT_UC_FLAG: Unlock player control
 18: 0x08CD [0x21] END_EVENT
 19: 0x08CE [0x00] END_REQSTACK()
```

### Event 23

#### Metadata

| Field        | Value    |
|--------------|----------|
| Entrypoint   | 0x08CF   |
| Data Size    | 98 bytes |
| Instructions | 20       |

```
      00 01 02 03 04 05 06 07  08 09 0A 0B 0C 0D 0E 0F
      -- -- -- -- -- -- -- --  -- -- -- -- -- -- -- --
08C0:                                               20                  
08D0: 01 24 00 80 01 80 02 80  25 02 00 10 02 80 00 1D  .$......%.......
08E0: 09 42 43 00 43 01 62 01  80 F8 FF FF 7F F8 FF FF  .BC.C.b.........
08F0: 7F 6D 61 69 6E 02 80 1C  03 80 47 00 49 80 4A 80  .main.....G.I.J.
0900: 0F 80 4B 80 47 01 62 08  80 F8 FF FF 7F F8 FF FF  ..K.G.b.........
0910: 7F 6D 61 69 6E 02 80 1C  03 80 01 28 09 02 00 10  .main......(....
0920: 01 80 00 28 09 01 28 09  03 01 10 01 80 20 00 21  ...(..(...... .!
0930: 00                                                .               
```

#### Opcodes

```
  0: 0x08CF [0x20] SET_CLI_EVENT_UC_FLAG: Lock player control
  1: 0x08D1 [0x24] CREATE_DIALOG(message_id=7327*, default_option=1*, option_flags=0*)
    → "Use the portal? [Yes./No.]"
  2: 0x08D8 [0x25] WAIT_DIALOG_SELECT()
  3: 0x08D9 [0x02] IF !(Work_Zone[0] == 0*) GOTO 0x091D
  4: 0x08E1 [0x42] SET_CLI_EVENT_CANCEL_DATA()
  5: 0x08E2 [0x43] SEND_EVENT_UPDATE: Send pending tag to server (packet 0x005B)
  6: 0x08E4 [0x43] SEND_EVENT_UPDATE: Check pending flag (skip if not pending)
  7: 0x08E6 [0x62] LOAD_EVENT_SCHEDULER: Load scheduler "main" with entities [EventEntity, EventEntity], work=[1*, 0*]
  8: 0x08F7 [0x1C] WAIT(180* ticks)
  9: 0x08FA [0x47] UPDATE_PLAYER_POS(-471.738*, 153.268*, -42.087*, yaw=16.6°*)
 10: 0x0904 [0x47] WAIT_PLAYER_POS_UPDATE
 11: 0x0906 [0x62] LOAD_EVENT_SCHEDULER: Load scheduler "main" with entities [EventEntity, EventEntity], work=[2*, 0*]
 12: 0x0917 [0x1C] WAIT(180* ticks)
 13: 0x091A [0x01] GOTO 0x0928
 14: 0x091D [0x02] IF !(Work_Zone[0] == 1*) GOTO 0x0928
 15: 0x0925 [0x01] GOTO 0x0928

SUBROUTINE_0928:
 16: 0x0928 [0x03] Work_Zone[1] = 1*
 17: 0x092D [0x20] SET_CLI_EVENT_UC_FLAG: Unlock player control
 18: 0x092F [0x21] END_EVENT
 19: 0x0930 [0x00] END_REQSTACK()
```

### Event 24

#### Metadata

| Field        | Value    |
|--------------|----------|
| Entrypoint   | 0x0931   |
| Data Size    | 98 bytes |
| Instructions | 20       |

```
      00 01 02 03 04 05 06 07  08 09 0A 0B 0C 0D 0E 0F
      -- -- -- -- -- -- -- --  -- -- -- -- -- -- -- --
0930:    20 01 24 00 80 01 80  02 80 25 02 00 10 02 80    .$......%.....
0940: 00 7F 09 42 43 00 43 01  62 01 80 F8 FF FF 7F F8  ...BC.C.b.......
0950: FF FF 7F 6D 61 69 6E 02  80 1C 03 80 47 00 4C 80  ...main.....G.L.
0960: 4D 80 13 80 4E 80 47 01  62 08 80 F8 FF FF 7F F8  M...N.G.b.......
0970: FF FF 7F 6D 61 69 6E 02  80 1C 03 80 01 8A 09 02  ...main.........
0980: 00 10 01 80 00 8A 09 01  8A 09 03 01 10 01 80 20  ............... 
0990: 00 21 00                                          .!.             
```

#### Opcodes

```
  0: 0x0931 [0x20] SET_CLI_EVENT_UC_FLAG: Lock player control
  1: 0x0933 [0x24] CREATE_DIALOG(message_id=7327*, default_option=1*, option_flags=0*)
    → "Use the portal? [Yes./No.]"
  2: 0x093A [0x25] WAIT_DIALOG_SELECT()
  3: 0x093B [0x02] IF !(Work_Zone[0] == 0*) GOTO 0x097F
  4: 0x0943 [0x42] SET_CLI_EVENT_CANCEL_DATA()
  5: 0x0944 [0x43] SEND_EVENT_UPDATE: Send pending tag to server (packet 0x005B)
  6: 0x0946 [0x43] SEND_EVENT_UPDATE: Check pending flag (skip if not pending)
  7: 0x0948 [0x62] LOAD_EVENT_SCHEDULER: Load scheduler "main" with entities [EventEntity, EventEntity], work=[1*, 0*]
  8: 0x0959 [0x1C] WAIT(180* ticks)
  9: 0x095C [0x47] UPDATE_PLAYER_POS(-405.066*, 55.676*, -24.105*, yaw=104.1°*)
 10: 0x0966 [0x47] WAIT_PLAYER_POS_UPDATE
 11: 0x0968 [0x62] LOAD_EVENT_SCHEDULER: Load scheduler "main" with entities [EventEntity, EventEntity], work=[2*, 0*]
 12: 0x0979 [0x1C] WAIT(180* ticks)
 13: 0x097C [0x01] GOTO 0x098A
 14: 0x097F [0x02] IF !(Work_Zone[0] == 1*) GOTO 0x098A
 15: 0x0987 [0x01] GOTO 0x098A

SUBROUTINE_098A:
 16: 0x098A [0x03] Work_Zone[1] = 1*
 17: 0x098F [0x20] SET_CLI_EVENT_UC_FLAG: Unlock player control
 18: 0x0991 [0x21] END_EVENT
 19: 0x0992 [0x00] END_REQSTACK()
```

### Event 25

#### Metadata

| Field        | Value    |
|--------------|----------|
| Entrypoint   | 0x0993   |
| Data Size    | 98 bytes |
| Instructions | 20       |

```
      00 01 02 03 04 05 06 07  08 09 0A 0B 0C 0D 0E 0F
      -- -- -- -- -- -- -- --  -- -- -- -- -- -- -- --
0990:          20 01 24 00 80  01 80 02 80 25 02 00 10      .$......%...
09A0: 02 80 00 E1 09 42 43 00  43 01 62 01 80 F8 FF FF  .....BC.C.b.....
09B0: 7F F8 FF FF 7F 6D 61 69  6E 02 80 1C 03 80 47 00  .....main.....G.
09C0: 4F 80 50 80 17 80 51 80  47 01 62 08 80 F8 FF FF  O.P...Q.G.b.....
09D0: 7F F8 FF FF 7F 6D 61 69  6E 02 80 1C 03 80 01 EC  .....main.......
09E0: 09 02 00 10 01 80 00 EC  09 01 EC 09 03 01 10 01  ................
09F0: 80 20 00 21 00                                    . .!.           
```

#### Opcodes

```
  0: 0x0993 [0x20] SET_CLI_EVENT_UC_FLAG: Lock player control
  1: 0x0995 [0x24] CREATE_DIALOG(message_id=7327*, default_option=1*, option_flags=0*)
    → "Use the portal? [Yes./No.]"
  2: 0x099C [0x25] WAIT_DIALOG_SELECT()
  3: 0x099D [0x02] IF !(Work_Zone[0] == 0*) GOTO 0x09E1
  4: 0x09A5 [0x42] SET_CLI_EVENT_CANCEL_DATA()
  5: 0x09A6 [0x43] SEND_EVENT_UPDATE: Send pending tag to server (packet 0x005B)
  6: 0x09A8 [0x43] SEND_EVENT_UPDATE: Check pending flag (skip if not pending)
  7: 0x09AA [0x62] LOAD_EVENT_SCHEDULER: Load scheduler "main" with entities [EventEntity, EventEntity], work=[1*, 0*]
  8: 0x09BB [0x1C] WAIT(180* ticks)
  9: 0x09BE [0x47] UPDATE_PLAYER_POS(-440.714*, -4.241*, -40.105*, yaw=91.2°*)
 10: 0x09C8 [0x47] WAIT_PLAYER_POS_UPDATE
 11: 0x09CA [0x62] LOAD_EVENT_SCHEDULER: Load scheduler "main" with entities [EventEntity, EventEntity], work=[2*, 0*]
 12: 0x09DB [0x1C] WAIT(180* ticks)
 13: 0x09DE [0x01] GOTO 0x09EC
 14: 0x09E1 [0x02] IF !(Work_Zone[0] == 1*) GOTO 0x09EC
 15: 0x09E9 [0x01] GOTO 0x09EC

SUBROUTINE_09EC:
 16: 0x09EC [0x03] Work_Zone[1] = 1*
 17: 0x09F1 [0x20] SET_CLI_EVENT_UC_FLAG: Unlock player control
 18: 0x09F3 [0x21] END_EVENT
 19: 0x09F4 [0x00] END_REQSTACK()
```

### Event 26

#### Metadata

| Field        | Value    |
|--------------|----------|
| Entrypoint   | 0x09F5   |
| Data Size    | 98 bytes |
| Instructions | 20       |

```
      00 01 02 03 04 05 06 07  08 09 0A 0B 0C 0D 0E 0F
      -- -- -- -- -- -- -- --  -- -- -- -- -- -- -- --
09F0:                20 01 24  00 80 01 80 02 80 25 02        .$......%.
0A00: 00 10 02 80 00 43 0A 42  43 00 43 01 62 01 80 F8  .....C.BC.C.b...
0A10: FF FF 7F F8 FF FF 7F 6D  61 69 6E 02 80 1C 03 80  .......main.....
0A20: 47 00 52 80 53 80 17 80  54 80 47 01 62 08 80 F8  G.R.S...T.G.b...
0A30: FF FF 7F F8 FF FF 7F 6D  61 69 6E 02 80 1C 03 80  .......main.....
0A40: 01 4E 0A 02 00 10 01 80  00 4E 0A 01 4E 0A 03 01  .N.......N..N...
0A50: 10 01 80 20 00 21 00                              ... .!.         
```

#### Opcodes

```
  0: 0x09F5 [0x20] SET_CLI_EVENT_UC_FLAG: Lock player control
  1: 0x09F7 [0x24] CREATE_DIALOG(message_id=7327*, default_option=1*, option_flags=0*)
    → "Use the portal? [Yes./No.]"
  2: 0x09FE [0x25] WAIT_DIALOG_SELECT()
  3: 0x09FF [0x02] IF !(Work_Zone[0] == 0*) GOTO 0x0A43
  4: 0x0A07 [0x42] SET_CLI_EVENT_CANCEL_DATA()
  5: 0x0A08 [0x43] SEND_EVENT_UPDATE: Send pending tag to server (packet 0x005B)
  6: 0x0A0A [0x43] SEND_EVENT_UPDATE: Check pending flag (skip if not pending)
  7: 0x0A0C [0x62] LOAD_EVENT_SCHEDULER: Load scheduler "main" with entities [EventEntity, EventEntity], work=[1*, 0*]
  8: 0x0A1D [0x1C] WAIT(180* ticks)
  9: 0x0A20 [0x47] UPDATE_PLAYER_POS(-353.959*, 262.520*, -40.105*, yaw=310.6°*)
 10: 0x0A2A [0x47] WAIT_PLAYER_POS_UPDATE
 11: 0x0A2C [0x62] LOAD_EVENT_SCHEDULER: Load scheduler "main" with entities [EventEntity, EventEntity], work=[2*, 0*]
 12: 0x0A3D [0x1C] WAIT(180* ticks)
 13: 0x0A40 [0x01] GOTO 0x0A4E
 14: 0x0A43 [0x02] IF !(Work_Zone[0] == 1*) GOTO 0x0A4E
 15: 0x0A4B [0x01] GOTO 0x0A4E

SUBROUTINE_0A4E:
 16: 0x0A4E [0x03] Work_Zone[1] = 1*
 17: 0x0A53 [0x20] SET_CLI_EVENT_UC_FLAG: Unlock player control
 18: 0x0A55 [0x21] END_EVENT
 19: 0x0A56 [0x00] END_REQSTACK()
```

### Event 27

#### Metadata

| Field        | Value    |
|--------------|----------|
| Entrypoint   | 0x0A57   |
| Data Size    | 98 bytes |
| Instructions | 20       |

```
      00 01 02 03 04 05 06 07  08 09 0A 0B 0C 0D 0E 0F
      -- -- -- -- -- -- -- --  -- -- -- -- -- -- -- --
0A50:                      20  01 24 00 80 01 80 02 80          .$......
0A60: 25 02 00 10 02 80 00 A5  0A 42 43 00 43 01 62 01  %........BC.C.b.
0A70: 80 F8 FF FF 7F F8 FF FF  7F 6D 61 69 6E 02 80 1C  .........main...
0A80: 03 80 47 00 49 80 4A 80  0F 80 4B 80 47 01 62 08  ..G.I.J...K.G.b.
0A90: 80 F8 FF FF 7F F8 FF FF  7F 6D 61 69 6E 02 80 1C  .........main...
0AA0: 03 80 01 B0 0A 02 00 10  01 80 00 B0 0A 01 B0 0A  ................
0AB0: 03 01 10 01 80 20 00 21  00                       ..... .!.       
```

#### Opcodes

```
  0: 0x0A57 [0x20] SET_CLI_EVENT_UC_FLAG: Lock player control
  1: 0x0A59 [0x24] CREATE_DIALOG(message_id=7327*, default_option=1*, option_flags=0*)
    → "Use the portal? [Yes./No.]"
  2: 0x0A60 [0x25] WAIT_DIALOG_SELECT()
  3: 0x0A61 [0x02] IF !(Work_Zone[0] == 0*) GOTO 0x0AA5
  4: 0x0A69 [0x42] SET_CLI_EVENT_CANCEL_DATA()
  5: 0x0A6A [0x43] SEND_EVENT_UPDATE: Send pending tag to server (packet 0x005B)
  6: 0x0A6C [0x43] SEND_EVENT_UPDATE: Check pending flag (skip if not pending)
  7: 0x0A6E [0x62] LOAD_EVENT_SCHEDULER: Load scheduler "main" with entities [EventEntity, EventEntity], work=[1*, 0*]
  8: 0x0A7F [0x1C] WAIT(180* ticks)
  9: 0x0A82 [0x47] UPDATE_PLAYER_POS(-471.738*, 153.268*, -42.087*, yaw=16.6°*)
 10: 0x0A8C [0x47] WAIT_PLAYER_POS_UPDATE
 11: 0x0A8E [0x62] LOAD_EVENT_SCHEDULER: Load scheduler "main" with entities [EventEntity, EventEntity], work=[2*, 0*]
 12: 0x0A9F [0x1C] WAIT(180* ticks)
 13: 0x0AA2 [0x01] GOTO 0x0AB0
 14: 0x0AA5 [0x02] IF !(Work_Zone[0] == 1*) GOTO 0x0AB0
 15: 0x0AAD [0x01] GOTO 0x0AB0

SUBROUTINE_0AB0:
 16: 0x0AB0 [0x03] Work_Zone[1] = 1*
 17: 0x0AB5 [0x20] SET_CLI_EVENT_UC_FLAG: Unlock player control
 18: 0x0AB7 [0x21] END_EVENT
 19: 0x0AB8 [0x00] END_REQSTACK()
```

### Event 28

#### Metadata

| Field        | Value    |
|--------------|----------|
| Entrypoint   | 0x0AB9   |
| Data Size    | 98 bytes |
| Instructions | 20       |

```
      00 01 02 03 04 05 06 07  08 09 0A 0B 0C 0D 0E 0F
      -- -- -- -- -- -- -- --  -- -- -- -- -- -- -- --
0AB0:                             20 01 24 00 80 01 80            .$....
0AC0: 02 80 25 02 00 10 02 80  00 07 0B 42 43 00 43 01  ..%........BC.C.
0AD0: 62 01 80 F8 FF FF 7F F8  FF FF 7F 6D 61 69 6E 02  b..........main.
0AE0: 80 1C 03 80 47 00 55 80  56 80 13 80 57 80 47 01  ....G.U.V...W.G.
0AF0: 62 08 80 F8 FF FF 7F F8  FF FF 7F 6D 61 69 6E 02  b..........main.
0B00: 80 1C 03 80 01 12 0B 02  00 10 01 80 00 12 0B 01  ................
0B10: 12 0B 03 01 10 01 80 20  00 21 00                 ....... .!.     
```

#### Opcodes

```
  0: 0x0AB9 [0x20] SET_CLI_EVENT_UC_FLAG: Lock player control
  1: 0x0ABB [0x24] CREATE_DIALOG(message_id=7327*, default_option=1*, option_flags=0*)
    → "Use the portal? [Yes./No.]"
  2: 0x0AC2 [0x25] WAIT_DIALOG_SELECT()
  3: 0x0AC3 [0x02] IF !(Work_Zone[0] == 0*) GOTO 0x0B07
  4: 0x0ACB [0x42] SET_CLI_EVENT_CANCEL_DATA()
  5: 0x0ACC [0x43] SEND_EVENT_UPDATE: Send pending tag to server (packet 0x005B)
  6: 0x0ACE [0x43] SEND_EVENT_UPDATE: Check pending flag (skip if not pending)
  7: 0x0AD0 [0x62] LOAD_EVENT_SCHEDULER: Load scheduler "main" with entities [EventEntity, EventEntity], work=[1*, 0*]
  8: 0x0AE1 [0x1C] WAIT(180* ticks)
  9: 0x0AE4 [0x47] UPDATE_PLAYER_POS(-360.348*, 192.995*, -24.105*, yaw=315.8°*)
 10: 0x0AEE [0x47] WAIT_PLAYER_POS_UPDATE
 11: 0x0AF0 [0x62] LOAD_EVENT_SCHEDULER: Load scheduler "main" with entities [EventEntity, EventEntity], work=[2*, 0*]
 12: 0x0B01 [0x1C] WAIT(180* ticks)
 13: 0x0B04 [0x01] GOTO 0x0B12
 14: 0x0B07 [0x02] IF !(Work_Zone[0] == 1*) GOTO 0x0B12
 15: 0x0B0F [0x01] GOTO 0x0B12

SUBROUTINE_0B12:
 16: 0x0B12 [0x03] Work_Zone[1] = 1*
 17: 0x0B17 [0x20] SET_CLI_EVENT_UC_FLAG: Unlock player control
 18: 0x0B19 [0x21] END_EVENT
 19: 0x0B1A [0x00] END_REQSTACK()
```

### Event 29

#### Metadata

| Field        | Value    |
|--------------|----------|
| Entrypoint   | 0x0B1B   |
| Data Size    | 98 bytes |
| Instructions | 20       |

```
      00 01 02 03 04 05 06 07  08 09 0A 0B 0C 0D 0E 0F
      -- -- -- -- -- -- -- --  -- -- -- -- -- -- -- --
0B10:                                   20 01 24 00 80              .$..
0B20: 01 80 02 80 25 02 00 10  02 80 00 69 0B 42 43 00  ....%......i.BC.
0B30: 43 01 62 01 80 F8 FF FF  7F F8 FF FF 7F 6D 61 69  C.b..........mai
0B40: 6E 02 80 1C 03 80 47 00  58 80 59 80 34 80 5A 80  n.....G.X.Y.4.Z.
0B50: 47 01 62 08 80 F8 FF FF  7F F8 FF FF 7F 6D 61 69  G.b..........mai
0B60: 6E 02 80 1C 03 80 01 74  0B 02 00 10 01 80 00 74  n......t.......t
0B70: 0B 01 74 0B 03 01 10 01  80 20 00 21 00           ..t...... .!.   
```

#### Opcodes

```
  0: 0x0B1B [0x20] SET_CLI_EVENT_UC_FLAG: Lock player control
  1: 0x0B1D [0x24] CREATE_DIALOG(message_id=7327*, default_option=1*, option_flags=0*)
    → "Use the portal? [Yes./No.]"
  2: 0x0B24 [0x25] WAIT_DIALOG_SELECT()
  3: 0x0B25 [0x02] IF !(Work_Zone[0] == 0*) GOTO 0x0B69
  4: 0x0B2D [0x42] SET_CLI_EVENT_CANCEL_DATA()
  5: 0x0B2E [0x43] SEND_EVENT_UPDATE: Send pending tag to server (packet 0x005B)
  6: 0x0B30 [0x43] SEND_EVENT_UPDATE: Check pending flag (skip if not pending)
  7: 0x0B32 [0x62] LOAD_EVENT_SCHEDULER: Load scheduler "main" with entities [EventEntity, EventEntity], work=[1*, 0*]
  8: 0x0B43 [0x1C] WAIT(180* ticks)
  9: 0x0B46 [0x47] UPDATE_PLAYER_POS(-571.575*, -185.371*, -68.704*, yaw=41.0°*)
 10: 0x0B50 [0x47] WAIT_PLAYER_POS_UPDATE
 11: 0x0B52 [0x62] LOAD_EVENT_SCHEDULER: Load scheduler "main" with entities [EventEntity, EventEntity], work=[2*, 0*]
 12: 0x0B63 [0x1C] WAIT(180* ticks)
 13: 0x0B66 [0x01] GOTO 0x0B74
 14: 0x0B69 [0x02] IF !(Work_Zone[0] == 1*) GOTO 0x0B74
 15: 0x0B71 [0x01] GOTO 0x0B74

SUBROUTINE_0B74:
 16: 0x0B74 [0x03] Work_Zone[1] = 1*
 17: 0x0B79 [0x20] SET_CLI_EVENT_UC_FLAG: Unlock player control
 18: 0x0B7B [0x21] END_EVENT
 19: 0x0B7C [0x00] END_REQSTACK()
```

### Event 30

#### Metadata

| Field        | Value    |
|--------------|----------|
| Entrypoint   | 0x0B7D   |
| Data Size    | 98 bytes |
| Instructions | 20       |

```
      00 01 02 03 04 05 06 07  08 09 0A 0B 0C 0D 0E 0F
      -- -- -- -- -- -- -- --  -- -- -- -- -- -- -- --
0B70:                                         20 01 24                .$
0B80: 00 80 01 80 02 80 25 02  00 10 02 80 00 CB 0B 42  ......%........B
0B90: 43 00 43 01 62 01 80 F8  FF FF 7F F8 FF FF 7F 6D  C.C.b..........m
0BA0: 61 69 6E 02 80 1C 03 80  47 00 5B 80 5C 80 0F 80  ain.....G.[.\...
0BB0: 5D 80 47 01 62 08 80 F8  FF FF 7F F8 FF FF 7F 6D  ].G.b..........m
0BC0: 61 69 6E 02 80 1C 03 80  01 D6 0B 02 00 10 01 80  ain.............
0BD0: 00 D6 0B 01 D6 0B 03 01  10 01 80 20 00 21 00     ........... .!. 
```

#### Opcodes

```
  0: 0x0B7D [0x20] SET_CLI_EVENT_UC_FLAG: Lock player control
  1: 0x0B7F [0x24] CREATE_DIALOG(message_id=7327*, default_option=1*, option_flags=0*)
    → "Use the portal? [Yes./No.]"
  2: 0x0B86 [0x25] WAIT_DIALOG_SELECT()
  3: 0x0B87 [0x02] IF !(Work_Zone[0] == 0*) GOTO 0x0BCB
  4: 0x0B8F [0x42] SET_CLI_EVENT_CANCEL_DATA()
  5: 0x0B90 [0x43] SEND_EVENT_UPDATE: Send pending tag to server (packet 0x005B)
  6: 0x0B92 [0x43] SEND_EVENT_UPDATE: Check pending flag (skip if not pending)
  7: 0x0B94 [0x62] LOAD_EVENT_SCHEDULER: Load scheduler "main" with entities [EventEntity, EventEntity], work=[1*, 0*]
  8: 0x0BA5 [0x1C] WAIT(180* ticks)
  9: 0x0BA8 [0x47] UPDATE_PLAYER_POS(-291.480*, -401.311*, -42.087*, yaw=309.3°*)
 10: 0x0BB2 [0x47] WAIT_PLAYER_POS_UPDATE
 11: 0x0BB4 [0x62] LOAD_EVENT_SCHEDULER: Load scheduler "main" with entities [EventEntity, EventEntity], work=[2*, 0*]
 12: 0x0BC5 [0x1C] WAIT(180* ticks)
 13: 0x0BC8 [0x01] GOTO 0x0BD6
 14: 0x0BCB [0x02] IF !(Work_Zone[0] == 1*) GOTO 0x0BD6
 15: 0x0BD3 [0x01] GOTO 0x0BD6

SUBROUTINE_0BD6:
 16: 0x0BD6 [0x03] Work_Zone[1] = 1*
 17: 0x0BDB [0x20] SET_CLI_EVENT_UC_FLAG: Unlock player control
 18: 0x0BDD [0x21] END_EVENT
 19: 0x0BDE [0x00] END_REQSTACK()
```

### Event 31

#### Metadata

| Field        | Value    |
|--------------|----------|
| Entrypoint   | 0x0BDF   |
| Data Size    | 98 bytes |
| Instructions | 20       |

```
      00 01 02 03 04 05 06 07  08 09 0A 0B 0C 0D 0E 0F
      -- -- -- -- -- -- -- --  -- -- -- -- -- -- -- --
0BD0:                                               20                  
0BE0: 01 24 00 80 01 80 02 80  25 02 00 10 02 80 00 2D  .$......%......-
0BF0: 0C 42 43 00 43 01 62 01  80 F8 FF FF 7F F8 FF FF  .BC.C.b.........
0C00: 7F 6D 61 69 6E 02 80 1C  03 80 47 00 5E 80 5F 80  .main.....G.^._.
0C10: 13 80 60 80 47 01 62 08  80 F8 FF FF 7F F8 FF FF  ..`.G.b.........
0C20: 7F 6D 61 69 6E 02 80 1C  03 80 01 38 0C 02 00 10  .main......8....
0C30: 01 80 00 38 0C 01 38 0C  03 01 10 01 80 20 00 21  ...8..8...... .!
0C40: 00                                                .               
```

#### Opcodes

```
  0: 0x0BDF [0x20] SET_CLI_EVENT_UC_FLAG: Lock player control
  1: 0x0BE1 [0x24] CREATE_DIALOG(message_id=7327*, default_option=1*, option_flags=0*)
    → "Use the portal? [Yes./No.]"
  2: 0x0BE8 [0x25] WAIT_DIALOG_SELECT()
  3: 0x0BE9 [0x02] IF !(Work_Zone[0] == 0*) GOTO 0x0C2D
  4: 0x0BF1 [0x42] SET_CLI_EVENT_CANCEL_DATA()
  5: 0x0BF2 [0x43] SEND_EVENT_UPDATE: Send pending tag to server (packet 0x005B)
  6: 0x0BF4 [0x43] SEND_EVENT_UPDATE: Check pending flag (skip if not pending)
  7: 0x0BF6 [0x62] LOAD_EVENT_SCHEDULER: Load scheduler "main" with entities [EventEntity, EventEntity], work=[1*, 0*]
  8: 0x0C07 [0x1C] WAIT(180* ticks)
  9: 0x0C0A [0x47] UPDATE_PLAYER_POS(-132.224*, -394.362*, -24.105*, yaw=9.4°*)
 10: 0x0C14 [0x47] WAIT_PLAYER_POS_UPDATE
 11: 0x0C16 [0x62] LOAD_EVENT_SCHEDULER: Load scheduler "main" with entities [EventEntity, EventEntity], work=[2*, 0*]
 12: 0x0C27 [0x1C] WAIT(180* ticks)
 13: 0x0C2A [0x01] GOTO 0x0C38
 14: 0x0C2D [0x02] IF !(Work_Zone[0] == 1*) GOTO 0x0C38
 15: 0x0C35 [0x01] GOTO 0x0C38

SUBROUTINE_0C38:
 16: 0x0C38 [0x03] Work_Zone[1] = 1*
 17: 0x0C3D [0x20] SET_CLI_EVENT_UC_FLAG: Unlock player control
 18: 0x0C3F [0x21] END_EVENT
 19: 0x0C40 [0x00] END_REQSTACK()
```

### Event 32

#### Metadata

| Field        | Value    |
|--------------|----------|
| Entrypoint   | 0x0C41   |
| Data Size    | 98 bytes |
| Instructions | 20       |

```
      00 01 02 03 04 05 06 07  08 09 0A 0B 0C 0D 0E 0F
      -- -- -- -- -- -- -- --  -- -- -- -- -- -- -- --
0C40:    20 01 24 00 80 01 80  02 80 25 02 00 10 02 80    .$......%.....
0C50: 00 8F 0C 42 43 00 43 01  62 01 80 F8 FF FF 7F F8  ...BC.C.b.......
0C60: FF FF 7F 6D 61 69 6E 02  80 1C 03 80 47 00 61 80  ...main.....G.a.
0C70: 62 80 17 80 63 80 47 01  62 08 80 F8 FF FF 7F F8  b...c.G.b.......
0C80: FF FF 7F 6D 61 69 6E 02  80 1C 03 80 01 9A 0C 02  ...main.........
0C90: 00 10 01 80 00 9A 0C 01  9A 0C 03 01 10 01 80 20  ............... 
0CA0: 00 21 00                                          .!.             
```

#### Opcodes

```
  0: 0x0C41 [0x20] SET_CLI_EVENT_UC_FLAG: Lock player control
  1: 0x0C43 [0x24] CREATE_DIALOG(message_id=7327*, default_option=1*, option_flags=0*)
    → "Use the portal? [Yes./No.]"
  2: 0x0C4A [0x25] WAIT_DIALOG_SELECT()
  3: 0x0C4B [0x02] IF !(Work_Zone[0] == 0*) GOTO 0x0C8F
  4: 0x0C53 [0x42] SET_CLI_EVENT_CANCEL_DATA()
  5: 0x0C54 [0x43] SEND_EVENT_UPDATE: Send pending tag to server (packet 0x005B)
  6: 0x0C56 [0x43] SEND_EVENT_UPDATE: Check pending flag (skip if not pending)
  7: 0x0C58 [0x62] LOAD_EVENT_SCHEDULER: Load scheduler "main" with entities [EventEntity, EventEntity], work=[1*, 0*]
  8: 0x0C69 [0x1C] WAIT(180* ticks)
  9: 0x0C6C [0x47] UPDATE_PLAYER_POS(-107.067*, -432.575*, -40.105*, yaw=6.9°*)
 10: 0x0C76 [0x47] WAIT_PLAYER_POS_UPDATE
 11: 0x0C78 [0x62] LOAD_EVENT_SCHEDULER: Load scheduler "main" with entities [EventEntity, EventEntity], work=[2*, 0*]
 12: 0x0C89 [0x1C] WAIT(180* ticks)
 13: 0x0C8C [0x01] GOTO 0x0C9A
 14: 0x0C8F [0x02] IF !(Work_Zone[0] == 1*) GOTO 0x0C9A
 15: 0x0C97 [0x01] GOTO 0x0C9A

SUBROUTINE_0C9A:
 16: 0x0C9A [0x03] Work_Zone[1] = 1*
 17: 0x0C9F [0x20] SET_CLI_EVENT_UC_FLAG: Unlock player control
 18: 0x0CA1 [0x21] END_EVENT
 19: 0x0CA2 [0x00] END_REQSTACK()
```

### Event 33

#### Metadata

| Field        | Value    |
|--------------|----------|
| Entrypoint   | 0x0CA3   |
| Data Size    | 98 bytes |
| Instructions | 20       |

```
      00 01 02 03 04 05 06 07  08 09 0A 0B 0C 0D 0E 0F
      -- -- -- -- -- -- -- --  -- -- -- -- -- -- -- --
0CA0:          20 01 24 00 80  01 80 02 80 25 02 00 10      .$......%...
0CB0: 02 80 00 F1 0C 42 43 00  43 01 62 01 80 F8 FF FF  .....BC.C.b.....
0CC0: 7F F8 FF FF 7F 6D 61 69  6E 02 80 1C 03 80 47 00  .....main.....G.
0CD0: 64 80 65 80 17 80 66 80  47 01 62 08 80 F8 FF FF  d.e...f.G.b.....
0CE0: 7F F8 FF FF 7F 6D 61 69  6E 02 80 1C 03 80 01 FC  .....main.......
0CF0: 0C 02 00 10 01 80 00 FC  0C 01 FC 0C 03 01 10 01  ................
0D00: 80 20 00 21 00                                    . .!.           
```

#### Opcodes

```
  0: 0x0CA3 [0x20] SET_CLI_EVENT_UC_FLAG: Lock player control
  1: 0x0CA5 [0x24] CREATE_DIALOG(message_id=7327*, default_option=1*, option_flags=0*)
    → "Use the portal? [Yes./No.]"
  2: 0x0CAC [0x25] WAIT_DIALOG_SELECT()
  3: 0x0CAD [0x02] IF !(Work_Zone[0] == 0*) GOTO 0x0CF1
  4: 0x0CB5 [0x42] SET_CLI_EVENT_CANCEL_DATA()
  5: 0x0CB6 [0x43] SEND_EVENT_UPDATE: Send pending tag to server (packet 0x005B)
  6: 0x0CB8 [0x43] SEND_EVENT_UPDATE: Check pending flag (skip if not pending)
  7: 0x0CBA [0x62] LOAD_EVENT_SCHEDULER: Load scheduler "main" with entities [EventEntity, EventEntity], work=[1*, 0*]
  8: 0x0CCB [0x1C] WAIT(180* ticks)
  9: 0x0CCE [0x47] UPDATE_PLAYER_POS(-359.053*, -255.440*, -40.105*, yaw=234.7°*)
 10: 0x0CD8 [0x47] WAIT_PLAYER_POS_UPDATE
 11: 0x0CDA [0x62] LOAD_EVENT_SCHEDULER: Load scheduler "main" with entities [EventEntity, EventEntity], work=[2*, 0*]
 12: 0x0CEB [0x1C] WAIT(180* ticks)
 13: 0x0CEE [0x01] GOTO 0x0CFC
 14: 0x0CF1 [0x02] IF !(Work_Zone[0] == 1*) GOTO 0x0CFC
 15: 0x0CF9 [0x01] GOTO 0x0CFC

SUBROUTINE_0CFC:
 16: 0x0CFC [0x03] Work_Zone[1] = 1*
 17: 0x0D01 [0x20] SET_CLI_EVENT_UC_FLAG: Unlock player control
 18: 0x0D03 [0x21] END_EVENT
 19: 0x0D04 [0x00] END_REQSTACK()
```

### Event 34

#### Metadata

| Field        | Value    |
|--------------|----------|
| Entrypoint   | 0x0D05   |
| Data Size    | 98 bytes |
| Instructions | 20       |

```
      00 01 02 03 04 05 06 07  08 09 0A 0B 0C 0D 0E 0F
      -- -- -- -- -- -- -- --  -- -- -- -- -- -- -- --
0D00:                20 01 24  00 80 01 80 02 80 25 02        .$......%.
0D10: 00 10 02 80 00 53 0D 42  43 00 43 01 62 01 80 F8  .....S.BC.C.b...
0D20: FF FF 7F F8 FF FF 7F 6D  61 69 6E 02 80 1C 03 80  .......main.....
0D30: 47 00 5B 80 5C 80 0F 80  5D 80 47 01 62 08 80 F8  G.[.\...].G.b...
0D40: FF FF 7F F8 FF FF 7F 6D  61 69 6E 02 80 1C 03 80  .......main.....
0D50: 01 5E 0D 02 00 10 01 80  00 5E 0D 01 5E 0D 03 01  .^.......^..^...
0D60: 10 01 80 20 00 21 00                              ... .!.         
```

#### Opcodes

```
  0: 0x0D05 [0x20] SET_CLI_EVENT_UC_FLAG: Lock player control
  1: 0x0D07 [0x24] CREATE_DIALOG(message_id=7327*, default_option=1*, option_flags=0*)
    → "Use the portal? [Yes./No.]"
  2: 0x0D0E [0x25] WAIT_DIALOG_SELECT()
  3: 0x0D0F [0x02] IF !(Work_Zone[0] == 0*) GOTO 0x0D53
  4: 0x0D17 [0x42] SET_CLI_EVENT_CANCEL_DATA()
  5: 0x0D18 [0x43] SEND_EVENT_UPDATE: Send pending tag to server (packet 0x005B)
  6: 0x0D1A [0x43] SEND_EVENT_UPDATE: Check pending flag (skip if not pending)
  7: 0x0D1C [0x62] LOAD_EVENT_SCHEDULER: Load scheduler "main" with entities [EventEntity, EventEntity], work=[1*, 0*]
  8: 0x0D2D [0x1C] WAIT(180* ticks)
  9: 0x0D30 [0x47] UPDATE_PLAYER_POS(-291.480*, -401.311*, -42.087*, yaw=309.3°*)
 10: 0x0D3A [0x47] WAIT_PLAYER_POS_UPDATE
 11: 0x0D3C [0x62] LOAD_EVENT_SCHEDULER: Load scheduler "main" with entities [EventEntity, EventEntity], work=[2*, 0*]
 12: 0x0D4D [0x1C] WAIT(180* ticks)
 13: 0x0D50 [0x01] GOTO 0x0D5E
 14: 0x0D53 [0x02] IF !(Work_Zone[0] == 1*) GOTO 0x0D5E
 15: 0x0D5B [0x01] GOTO 0x0D5E

SUBROUTINE_0D5E:
 16: 0x0D5E [0x03] Work_Zone[1] = 1*
 17: 0x0D63 [0x20] SET_CLI_EVENT_UC_FLAG: Unlock player control
 18: 0x0D65 [0x21] END_EVENT
 19: 0x0D66 [0x00] END_REQSTACK()
```

### Event 35

#### Metadata

| Field        | Value    |
|--------------|----------|
| Entrypoint   | 0x0D67   |
| Data Size    | 98 bytes |
| Instructions | 20       |

```
      00 01 02 03 04 05 06 07  08 09 0A 0B 0C 0D 0E 0F
      -- -- -- -- -- -- -- --  -- -- -- -- -- -- -- --
0D60:                      20  01 24 00 80 01 80 02 80          .$......
0D70: 25 02 00 10 02 80 00 B5  0D 42 43 00 43 01 62 01  %........BC.C.b.
0D80: 80 F8 FF FF 7F F8 FF FF  7F 6D 61 69 6E 02 80 1C  .........main...
0D90: 03 80 47 00 67 80 68 80  13 80 69 80 47 01 62 08  ..G.g.h...i.G.b.
0DA0: 80 F8 FF FF 7F F8 FF FF  7F 6D 61 69 6E 02 80 1C  .........main...
0DB0: 03 80 01 C0 0D 02 00 10  01 80 00 C0 0D 01 C0 0D  ................
0DC0: 03 01 10 01 80 20 00 21  00                       ..... .!.       
```

#### Opcodes

```
  0: 0x0D67 [0x20] SET_CLI_EVENT_UC_FLAG: Lock player control
  1: 0x0D69 [0x24] CREATE_DIALOG(message_id=7327*, default_option=1*, option_flags=0*)
    → "Use the portal? [Yes./No.]"
  2: 0x0D70 [0x25] WAIT_DIALOG_SELECT()
  3: 0x0D71 [0x02] IF !(Work_Zone[0] == 0*) GOTO 0x0DB5
  4: 0x0D79 [0x42] SET_CLI_EVENT_CANCEL_DATA()
  5: 0x0D7A [0x43] SEND_EVENT_UPDATE: Send pending tag to server (packet 0x005B)
  6: 0x0D7C [0x43] SEND_EVENT_UPDATE: Check pending flag (skip if not pending)
  7: 0x0D7E [0x62] LOAD_EVENT_SCHEDULER: Load scheduler "main" with entities [EventEntity, EventEntity], work=[1*, 0*]
  8: 0x0D8F [0x1C] WAIT(180* ticks)
  9: 0x0D92 [0x47] UPDATE_PLAYER_POS(-294.987*, -283.121*, -24.105*, yaw=236.6°*)
 10: 0x0D9C [0x47] WAIT_PLAYER_POS_UPDATE
 11: 0x0D9E [0x62] LOAD_EVENT_SCHEDULER: Load scheduler "main" with entities [EventEntity, EventEntity], work=[2*, 0*]
 12: 0x0DAF [0x1C] WAIT(180* ticks)
 13: 0x0DB2 [0x01] GOTO 0x0DC0
 14: 0x0DB5 [0x02] IF !(Work_Zone[0] == 1*) GOTO 0x0DC0
 15: 0x0DBD [0x01] GOTO 0x0DC0

SUBROUTINE_0DC0:
 16: 0x0DC0 [0x03] Work_Zone[1] = 1*
 17: 0x0DC5 [0x20] SET_CLI_EVENT_UC_FLAG: Unlock player control
 18: 0x0DC7 [0x21] END_EVENT
 19: 0x0DC8 [0x00] END_REQSTACK()
```

### Event 36

#### Metadata

| Field        | Value    |
|--------------|----------|
| Entrypoint   | 0x0DC9   |
| Data Size    | 98 bytes |
| Instructions | 20       |

```
      00 01 02 03 04 05 06 07  08 09 0A 0B 0C 0D 0E 0F
      -- -- -- -- -- -- -- --  -- -- -- -- -- -- -- --
0DC0:                             20 01 24 00 80 01 80            .$....
0DD0: 02 80 25 02 00 10 02 80  00 17 0E 42 43 00 43 01  ..%........BC.C.
0DE0: 62 01 80 F8 FF FF 7F F8  FF FF 7F 6D 61 69 6E 02  b..........main.
0DF0: 80 1C 03 80 47 00 6A 80  6B 80 0B 80 6C 80 47 01  ....G.j.k...l.G.
0E00: 62 08 80 F8 FF FF 7F F8  FF FF 7F 6D 61 69 6E 02  b..........main.
0E10: 80 1C 03 80 01 22 0E 02  00 10 01 80 00 22 0E 01  ....."......."..
0E20: 22 0E 03 01 10 01 80 20  00 21 00                 "...... .!.     
```

#### Opcodes

```
  0: 0x0DC9 [0x20] SET_CLI_EVENT_UC_FLAG: Lock player control
  1: 0x0DCB [0x24] CREATE_DIALOG(message_id=7327*, default_option=1*, option_flags=0*)
    → "Use the portal? [Yes./No.]"
  2: 0x0DD2 [0x25] WAIT_DIALOG_SELECT()
  3: 0x0DD3 [0x02] IF !(Work_Zone[0] == 0*) GOTO 0x0E17
  4: 0x0DDB [0x42] SET_CLI_EVENT_CANCEL_DATA()
  5: 0x0DDC [0x43] SEND_EVENT_UPDATE: Send pending tag to server (packet 0x005B)
  6: 0x0DDE [0x43] SEND_EVENT_UPDATE: Check pending flag (skip if not pending)
  7: 0x0DE0 [0x62] LOAD_EVENT_SCHEDULER: Load scheduler "main" with entities [EventEntity, EventEntity], work=[1*, 0*]
  8: 0x0DF1 [0x1C] WAIT(180* ticks)
  9: 0x0DF4 [0x47] UPDATE_PLAYER_POS(-25.140*, -603.284*, -55.335*, yaw=359.7°*)
 10: 0x0DFE [0x47] WAIT_PLAYER_POS_UPDATE
 11: 0x0E00 [0x62] LOAD_EVENT_SCHEDULER: Load scheduler "main" with entities [EventEntity, EventEntity], work=[2*, 0*]
 12: 0x0E11 [0x1C] WAIT(180* ticks)
 13: 0x0E14 [0x01] GOTO 0x0E22
 14: 0x0E17 [0x02] IF !(Work_Zone[0] == 1*) GOTO 0x0E22
 15: 0x0E1F [0x01] GOTO 0x0E22

SUBROUTINE_0E22:
 16: 0x0E22 [0x03] Work_Zone[1] = 1*
 17: 0x0E27 [0x20] SET_CLI_EVENT_UC_FLAG: Unlock player control
 18: 0x0E29 [0x21] END_EVENT
 19: 0x0E2A [0x00] END_REQSTACK()
```

### Event 37

#### Metadata

| Field        | Value     |
|--------------|-----------|
| Entrypoint   | 0x0E2B    |
| Data Size    | 126 bytes |
| Instructions | 25        |

```
      00 01 02 03 04 05 06 07  08 09 0A 0B 0C 0D 0E 0F
      -- -- -- -- -- -- -- --  -- -- -- -- -- -- -- --
0E20:                                   20 01 24 00 80              .$..
0E30: 01 80 02 80 25 02 00 10  02 80 00 95 0E 42 43 00  ....%........BC.
0E40: 43 01 62 01 80 F8 FF FF  7F F8 FF FF 7F 6D 61 69  C.b..........mai
0E50: 6E 02 80 1C 03 80 13 00  00 01 80 02 00 00 02 80  n...............
0E60: 00 72 0E 47 00 6D 80 6E  80 6F 80 70 80 47 01 01  .r.G.m.n.o.p.G..
0E70: 7E 0E 47 00 71 80 72 80  6F 80 73 80 47 01 62 08  ~.G.q.r.o.s.G.b.
0E80: 80 F8 FF FF 7F F8 FF FF  7F 6D 61 69 6E 02 80 1C  .........main...
0E90: 03 80 01 A0 0E 02 00 10  01 80 00 A0 0E 01 A0 0E  ................
0EA0: 03 01 10 01 80 20 00 21  00                       ..... .!.       
```

#### Opcodes

```
  0: 0x0E2B [0x20] SET_CLI_EVENT_UC_FLAG: Lock player control
  1: 0x0E2D [0x24] CREATE_DIALOG(message_id=7327*, default_option=1*, option_flags=0*)
    → "Use the portal? [Yes./No.]"
  2: 0x0E34 [0x25] WAIT_DIALOG_SELECT()
  3: 0x0E35 [0x02] IF !(Work_Zone[0] == 0*) GOTO 0x0E95
  4: 0x0E3D [0x42] SET_CLI_EVENT_CANCEL_DATA()
  5: 0x0E3E [0x43] SEND_EVENT_UPDATE: Send pending tag to server (packet 0x005B)
  6: 0x0E40 [0x43] SEND_EVENT_UPDATE: Check pending flag (skip if not pending)
  7: 0x0E42 [0x62] LOAD_EVENT_SCHEDULER: Load scheduler "main" with entities [EventEntity, EventEntity], work=[1*, 0*]
  8: 0x0E53 [0x1C] WAIT(180* ticks)
  9: 0x0E56 [0x13] ExtData[1]->WorkLocal[0] = rand() % 1*
 10: 0x0E5B [0x02] IF !(ExtData[1]->WorkLocal[0] == 0*) GOTO 0x0E72
 11: 0x0E63 [0x47] UPDATE_PLAYER_POS(449.933*, -125.363*, -2.105*, yaw=111.1°*)
 12: 0x0E6D [0x47] WAIT_PLAYER_POS_UPDATE
 13: 0x0E6F [0x01] GOTO 0x0E7E
 14: 0x0E72 [0x47] UPDATE_PLAYER_POS(437.710*, -162.996*, -2.105*, yaw=285.9°*)
 15: 0x0E7C [0x47] WAIT_PLAYER_POS_UPDATE

SUBROUTINE_0E7E:
 16: 0x0E7E [0x62] LOAD_EVENT_SCHEDULER: Load scheduler "main" with entities [EventEntity, EventEntity], work=[2*, 0*]
 17: 0x0E8F [0x1C] WAIT(180* ticks)
 18: 0x0E92 [0x01] GOTO 0x0EA0
 19: 0x0E95 [0x02] IF !(Work_Zone[0] == 1*) GOTO 0x0EA0
 20: 0x0E9D [0x01] GOTO 0x0EA0

SUBROUTINE_0EA0:
 21: 0x0EA0 [0x03] Work_Zone[1] = 1*
 22: 0x0EA5 [0x20] SET_CLI_EVENT_UC_FLAG: Unlock player control
 23: 0x0EA7 [0x21] END_EVENT
 24: 0x0EA8 [0x00] END_REQSTACK()
```

### Event 38

#### Metadata

| Field        | Value     |
|--------------|-----------|
| Entrypoint   | 0x0EA9    |
| Data Size    | 126 bytes |
| Instructions | 25        |

```
      00 01 02 03 04 05 06 07  08 09 0A 0B 0C 0D 0E 0F
      -- -- -- -- -- -- -- --  -- -- -- -- -- -- -- --
0EA0:                             20 01 24 00 80 01 80            .$....
0EB0: 02 80 25 02 00 10 02 80  00 13 0F 42 43 00 43 01  ..%........BC.C.
0EC0: 62 01 80 F8 FF FF 7F F8  FF FF 7F 6D 61 69 6E 02  b..........main.
0ED0: 80 1C 03 80 13 00 00 01  80 02 00 00 02 80 00 F0  ................
0EE0: 0E 47 00 74 80 75 80 6F  80 76 80 47 01 01 FC 0E  .G.t.u.o.v.G....
0EF0: 47 00 77 80 78 80 6F 80  79 80 47 01 62 08 80 F8  G.w.x.o.y.G.b...
0F00: FF FF 7F F8 FF FF 7F 6D  61 69 6E 02 80 1C 03 80  .......main.....
0F10: 01 1E 0F 02 00 10 01 80  00 1E 0F 01 1E 0F 03 01  ................
0F20: 10 01 80 20 00 21 00                              ... .!.         
```

#### Opcodes

```
  0: 0x0EA9 [0x20] SET_CLI_EVENT_UC_FLAG: Lock player control
  1: 0x0EAB [0x24] CREATE_DIALOG(message_id=7327*, default_option=1*, option_flags=0*)
    → "Use the portal? [Yes./No.]"
  2: 0x0EB2 [0x25] WAIT_DIALOG_SELECT()
  3: 0x0EB3 [0x02] IF !(Work_Zone[0] == 0*) GOTO 0x0F13
  4: 0x0EBB [0x42] SET_CLI_EVENT_CANCEL_DATA()
  5: 0x0EBC [0x43] SEND_EVENT_UPDATE: Send pending tag to server (packet 0x005B)
  6: 0x0EBE [0x43] SEND_EVENT_UPDATE: Check pending flag (skip if not pending)
  7: 0x0EC0 [0x62] LOAD_EVENT_SCHEDULER: Load scheduler "main" with entities [EventEntity, EventEntity], work=[1*, 0*]
  8: 0x0ED1 [0x1C] WAIT(180* ticks)
  9: 0x0ED4 [0x13] ExtData[1]->WorkLocal[0] = rand() % 1*
 10: 0x0ED9 [0x02] IF !(ExtData[1]->WorkLocal[0] == 0*) GOTO 0x0EF0
 11: 0x0EE1 [0x47] UPDATE_PLAYER_POS(256.643*, 386.657*, -2.105*, yaw=28.9°*)
 12: 0x0EEB [0x47] WAIT_PLAYER_POS_UPDATE
 13: 0x0EED [0x01] GOTO 0x0EFC
 14: 0x0EF0 [0x47] UPDATE_PLAYER_POS(288.345*, 363.501*, -2.105*, yaw=215.7°*)
 15: 0x0EFA [0x47] WAIT_PLAYER_POS_UPDATE

SUBROUTINE_0EFC:
 16: 0x0EFC [0x62] LOAD_EVENT_SCHEDULER: Load scheduler "main" with entities [EventEntity, EventEntity], work=[2*, 0*]
 17: 0x0F0D [0x1C] WAIT(180* ticks)
 18: 0x0F10 [0x01] GOTO 0x0F1E
 19: 0x0F13 [0x02] IF !(Work_Zone[0] == 1*) GOTO 0x0F1E
 20: 0x0F1B [0x01] GOTO 0x0F1E

SUBROUTINE_0F1E:
 21: 0x0F1E [0x03] Work_Zone[1] = 1*
 22: 0x0F23 [0x20] SET_CLI_EVENT_UC_FLAG: Unlock player control
 23: 0x0F25 [0x21] END_EVENT
 24: 0x0F26 [0x00] END_REQSTACK()
```

### Event 39

#### Metadata

| Field        | Value     |
|--------------|-----------|
| Entrypoint   | 0x0F27    |
| Data Size    | 126 bytes |
| Instructions | 25        |

```
      00 01 02 03 04 05 06 07  08 09 0A 0B 0C 0D 0E 0F
      -- -- -- -- -- -- -- --  -- -- -- -- -- -- -- --
0F20:                      20  01 24 00 80 01 80 02 80          .$......
0F30: 25 02 00 10 02 80 00 91  0F 42 43 00 43 01 62 01  %........BC.C.b.
0F40: 80 F8 FF FF 7F F8 FF FF  7F 6D 61 69 6E 02 80 1C  .........main...
0F50: 03 80 13 00 00 01 80 02  00 00 02 80 00 6E 0F 47  .............n.G
0F60: 00 7A 80 7B 80 6F 80 7C  80 47 01 01 7A 0F 47 00  .z.{.o.|.G..z.G.
0F70: 7D 80 7E 80 6F 80 7F 80  47 01 62 08 80 F8 FF FF  }.~.o...G.b.....
0F80: 7F F8 FF FF 7F 6D 61 69  6E 02 80 1C 03 80 01 9C  .....main.......
0F90: 0F 02 00 10 01 80 00 9C  0F 01 9C 0F 03 01 10 01  ................
0FA0: 80 20 00 21 00                                    . .!.           
```

#### Opcodes

```
  0: 0x0F27 [0x20] SET_CLI_EVENT_UC_FLAG: Lock player control
  1: 0x0F29 [0x24] CREATE_DIALOG(message_id=7327*, default_option=1*, option_flags=0*)
    → "Use the portal? [Yes./No.]"
  2: 0x0F30 [0x25] WAIT_DIALOG_SELECT()
  3: 0x0F31 [0x02] IF !(Work_Zone[0] == 0*) GOTO 0x0F91
  4: 0x0F39 [0x42] SET_CLI_EVENT_CANCEL_DATA()
  5: 0x0F3A [0x43] SEND_EVENT_UPDATE: Send pending tag to server (packet 0x005B)
  6: 0x0F3C [0x43] SEND_EVENT_UPDATE: Check pending flag (skip if not pending)
  7: 0x0F3E [0x62] LOAD_EVENT_SCHEDULER: Load scheduler "main" with entities [EventEntity, EventEntity], work=[1*, 0*]
  8: 0x0F4F [0x1C] WAIT(180* ticks)
  9: 0x0F52 [0x13] ExtData[1]->WorkLocal[0] = rand() % 1*
 10: 0x0F57 [0x02] IF !(ExtData[1]->WorkLocal[0] == 0*) GOTO 0x0F6E
 11: 0x0F5F [0x47] UPDATE_PLAYER_POS(-290.186*, 366.027*, -2.105*, yaw=325.8°*)
 12: 0x0F69 [0x47] WAIT_PLAYER_POS_UPDATE
 13: 0x0F6B [0x01] GOTO 0x0F7A
 14: 0x0F6E [0x47] UPDATE_PLAYER_POS(-258.493*, 389.073*, -2.105*, yaw=147.2°*)
 15: 0x0F78 [0x47] WAIT_PLAYER_POS_UPDATE

SUBROUTINE_0F7A:
 16: 0x0F7A [0x62] LOAD_EVENT_SCHEDULER: Load scheduler "main" with entities [EventEntity, EventEntity], work=[2*, 0*]
 17: 0x0F8B [0x1C] WAIT(180* ticks)
 18: 0x0F8E [0x01] GOTO 0x0F9C
 19: 0x0F91 [0x02] IF !(Work_Zone[0] == 1*) GOTO 0x0F9C
 20: 0x0F99 [0x01] GOTO 0x0F9C

SUBROUTINE_0F9C:
 21: 0x0F9C [0x03] Work_Zone[1] = 1*
 22: 0x0FA1 [0x20] SET_CLI_EVENT_UC_FLAG: Unlock player control
 23: 0x0FA3 [0x21] END_EVENT
 24: 0x0FA4 [0x00] END_REQSTACK()
```

### Event 40

#### Metadata

| Field        | Value     |
|--------------|-----------|
| Entrypoint   | 0x0FA5    |
| Data Size    | 126 bytes |
| Instructions | 25        |

```
      00 01 02 03 04 05 06 07  08 09 0A 0B 0C 0D 0E 0F
      -- -- -- -- -- -- -- --  -- -- -- -- -- -- -- --
0FA0:                20 01 24  00 80 01 80 02 80 25 02        .$......%.
0FB0: 00 10 02 80 00 0F 10 42  43 00 43 01 62 01 80 F8  .......BC.C.b...
0FC0: FF FF 7F F8 FF FF 7F 6D  61 69 6E 02 80 1C 03 80  .......main.....
0FD0: 13 00 00 01 80 02 00 00  02 80 00 EC 0F 47 00 80  .............G..
0FE0: 80 81 80 6F 80 82 80 47  01 01 F8 0F 47 00 83 80  ...o...G....G...
0FF0: 84 80 6F 80 85 80 47 01  62 08 80 F8 FF FF 7F F8  ..o...G.b.......
1000: FF FF 7F 6D 61 69 6E 02  80 1C 03 80 01 1A 10 02  ...main.........
1010: 00 10 01 80 00 1A 10 01  1A 10 03 01 10 01 80 20  ............... 
1020: 00 21 00                                          .!.             
```

#### Opcodes

```
  0: 0x0FA5 [0x20] SET_CLI_EVENT_UC_FLAG: Lock player control
  1: 0x0FA7 [0x24] CREATE_DIALOG(message_id=7327*, default_option=1*, option_flags=0*)
    → "Use the portal? [Yes./No.]"
  2: 0x0FAE [0x25] WAIT_DIALOG_SELECT()
  3: 0x0FAF [0x02] IF !(Work_Zone[0] == 0*) GOTO 0x100F
  4: 0x0FB7 [0x42] SET_CLI_EVENT_CANCEL_DATA()
  5: 0x0FB8 [0x43] SEND_EVENT_UPDATE: Send pending tag to server (packet 0x005B)
  6: 0x0FBA [0x43] SEND_EVENT_UPDATE: Check pending flag (skip if not pending)
  7: 0x0FBC [0x62] LOAD_EVENT_SCHEDULER: Load scheduler "main" with entities [EventEntity, EventEntity], work=[1*, 0*]
  8: 0x0FCD [0x1C] WAIT(180* ticks)
  9: 0x0FD0 [0x13] ExtData[1]->WorkLocal[0] = rand() % 1*
 10: 0x0FD5 [0x02] IF !(ExtData[1]->WorkLocal[0] == 0*) GOTO 0x0FEC
 11: 0x0FDD [0x47] UPDATE_PLAYER_POS(-437.692*, -162.918*, -2.105*, yaw=252.9°*)
 12: 0x0FE7 [0x47] WAIT_PLAYER_POS_UPDATE
 13: 0x0FE9 [0x01] GOTO 0x0FF8
 14: 0x0FEC [0x47] UPDATE_PLAYER_POS(-449.848*, -125.717*, -2.105*, yaw=70.2°*)
 15: 0x0FF6 [0x47] WAIT_PLAYER_POS_UPDATE

