# Event 139

## Metadata

| Field           | Value    |
|-----------------|----------|
| Event Index     | 31/52    |
| Offset          | 0x025F   |
| Data Size       | 33 bytes |
| Calculated Size | 33 bytes |
| Instructions    | 12       |

```
      00 01 02 03 04 05 06 07  08 09 0A 0B 0C 0D 0E 0F
      -- -- -- -- -- -- -- --  -- -- -- -- -- -- -- --
0250:                                               1E                 .
0260: F0 FF FF 7F 6F 70 29 08  0D F0 0E 01 01 1D 14 80  ....op).........
0270: 23 1D 15 80 23 29 08 0D  F0 0E 01 0F 20 00 21 00  #...#)...... .!.
```

## Opcodes

```
  0: 0x025F [0x1E] EventEntity looks at LocalPlayer and starts talking
  1: 0x0264 [0x6F] WAIT_FRAME_DELAY: Yield until WaitTime reaches zero
  2: 0x0265 [0x70] WAIT_ENTITY_RENDER_FLAG: Wait while EventEntity->Render.Flags3 bit 2 is set (cancel turn if not)
  3: 0x0266 [0x29] REQ_SET_WAIT(priority=0x08, entity_id=Keo-Koruo (ID: 17756173/0x010EF00D), tag_num=0x01)
  4: 0x026D [0x1D] PRINT_EVENT_MESSAGE(message_id=7405*)
    → "Whenever you mention the Sibyl Guards to the other Mithra in this town, they screw their faces up into feline frowns.\u007F1\u0000\u0007"
  5: 0x0270 [0x23] WAIT_FOR_DIALOG_INTERACTION
  6: 0x0271 [0x1D] PRINT_EVENT_MESSAGE(message_id=7406*)
    → "Don'taruy ask me why... You'll have to find out for yourselfy. Just don'taruy ask that Mithra woman therey. She'll scratch your eyes out with her tempery!\u007F1\u0000\u0007"
  7: 0x0274 [0x23] WAIT_FOR_DIALOG_INTERACTION
  8: 0x0275 [0x29] REQ_SET_WAIT(priority=0x08, entity_id=Keo-Koruo (ID: 17756173/0x010EF00D), tag_num=0x0F)
  9: 0x027C [0x20] SET_CLI_EVENT_UC_FLAG: Unlock player control
 10: 0x027E [0x21] END_EVENT
 11: 0x027F [0x00] END_REQSTACK()
```
