# Event 144

## Metadata

| Field           | Value    |
|-----------------|----------|
| Event Index     | 32/52    |
| Offset          | 0x0280   |
| Data Size       | 33 bytes |
| Calculated Size | 33 bytes |
| Instructions    | 12       |

```
      00 01 02 03 04 05 06 07  08 09 0A 0B 0C 0D 0E 0F
      -- -- -- -- -- -- -- --  -- -- -- -- -- -- -- --
0280: 1E F0 FF FF 7F 6F 70 29  08 0D F0 0E 01 09 1D 16  .....op)........
0290: 80 23 1D 17 80 23 29 08  0D F0 0E 01 0F 20 00 21  .#...#)...... .!
02A0: 00                                                .               
```

## Opcodes

```
  0: 0x0280 [0x1E] EventEntity looks at LocalPlayer and starts talking
  1: 0x0285 [0x6F] WAIT_FRAME_DELAY: Yield until WaitTime reaches zero
  2: 0x0286 [0x70] WAIT_ENTITY_RENDER_FLAG: Wait while EventEntity->Render.Flags3 bit 2 is set (cancel turn if not)
  3: 0x0287 [0x29] REQ_SET_WAIT(priority=0x08, entity_id=Keo-Koruo (ID: 17756173/0x010EF00D), tag_num=0x09)
  4: 0x028E [0x1D] PRINT_EVENT_MESSAGE(message_id=7416*)
    → "Zubaba's been running things in Heavens Taruwer since the currentaruy Star Sibyl was a child...which makes her pretty old when you think aboutaruy ity!\u007F1\u0000\u0007"
  5: 0x0291 [0x23] WAIT_FOR_DIALOG_INTERACTION
  6: 0x0292 [0x1D] PRINT_EVENT_MESSAGE(message_id=7417*)
    → "It's a wonder she hasn'taruy become bored, locking herself up inside Heavens Taruwer for all that timey. I'm surprised she hasn'taruy turned into a mushroom by nowy!\u007F1\u0000\u0007"
  7: 0x0295 [0x23] WAIT_FOR_DIALOG_INTERACTION
  8: 0x0296 [0x29] REQ_SET_WAIT(priority=0x08, entity_id=Keo-Koruo (ID: 17756173/0x010EF00D), tag_num=0x0F)
  9: 0x029D [0x20] SET_CLI_EVENT_UC_FLAG: Unlock player control
 10: 0x029F [0x21] END_EVENT
 11: 0x02A0 [0x00] END_REQSTACK()
```
