# Event 162

## Metadata

| Field           | Value    |
|-----------------|----------|
| Event Index     | 37/52    |
| Offset          | 0x0325   |
| Data Size       | 33 bytes |
| Calculated Size | 33 bytes |
| Instructions    | 12       |

```
      00 01 02 03 04 05 06 07  08 09 0A 0B 0C 0D 0E 0F
      -- -- -- -- -- -- -- --  -- -- -- -- -- -- -- --
0320:                1E F0 FF  FF 7F 6F 70 29 08 0D F0       .....op)...
0330: 0E 01 01 1D 20 80 23 1D  21 80 23 29 08 0D F0 0E  .... .#.!.#)....
0340: 01 0F 20 00 21 00                                 .. .!.          
```

## Opcodes

```
  0: 0x0325 [0x1E] EventEntity looks at LocalPlayer and starts talking
  1: 0x032A [0x6F] WAIT_FRAME_DELAY: Yield until WaitTime reaches zero
  2: 0x032B [0x70] WAIT_ENTITY_RENDER_FLAG: Wait while EventEntity->Render.Flags3 bit 2 is set (cancel turn if not)
  3: 0x032C [0x29] REQ_SET_WAIT(priority=0x08, entity_id=Keo-Koruo (ID: 17756173/0x010EF00D), tag_num=0x01)
  4: 0x0333 [0x1D] PRINT_EVENT_MESSAGE(message_id=7458*)
    → "The ministaru of the Rhinostery, Ms. Rukususu, came out of Heavens Tower with the mostaruy cheerful look on her facey.\u007F1\u0000\u0007"
  5: 0x0336 [0x23] WAIT_FOR_DIALOG_INTERACTION
  6: 0x0337 [0x1D] PRINT_EVENT_MESSAGE(message_id=7459*)
    → "Now my heart, too, is as brightaruy and cheerful as Windurstaruy isy. There isn't a cloud in sightaruy nowy!\u007F1\u0000\u0007"
  7: 0x033A [0x23] WAIT_FOR_DIALOG_INTERACTION
  8: 0x033B [0x29] REQ_SET_WAIT(priority=0x08, entity_id=Keo-Koruo (ID: 17756173/0x010EF00D), tag_num=0x0F)
  9: 0x0342 [0x20] SET_CLI_EVENT_UC_FLAG: Unlock player control
 10: 0x0344 [0x21] END_EVENT
 11: 0x0345 [0x00] END_REQSTACK()
```
