# Event 373

## Metadata

| Field           | Value    |
|-----------------|----------|
| Event Index     | 43/52    |
| Offset          | 0x0403   |
| Data Size       | 40 bytes |
| Calculated Size | 40 bytes |
| Instructions    | 13       |

```
      00 01 02 03 04 05 06 07  08 09 0A 0B 0C 0D 0E 0F
      -- -- -- -- -- -- -- --  -- -- -- -- -- -- -- --
0400:          1E F0 FF FF 7F  6F 70 29 08 0D F0 0E 01     .....op).....
0410: 01 1D 2B 80 23 29 08 0D  F0 0E 01 02 4B 0D F0 0E  ..+.#)......K...
0420: 01 09 80 1D 2C 80 23 20  00 21 00                 ....,.# .!.     
```

## Opcodes

```
  0: 0x0403 [0x1E] EventEntity looks at LocalPlayer and starts talking
  1: 0x0408 [0x6F] WAIT_FRAME_DELAY: Yield until WaitTime reaches zero
  2: 0x0409 [0x70] WAIT_ENTITY_RENDER_FLAG: Wait while EventEntity->Render.Flags3 bit 2 is set (cancel turn if not)
  3: 0x040A [0x29] REQ_SET_WAIT(priority=0x08, entity_id=Keo-Koruo (ID: 17756173/0x010EF00D), tag_num=0x01)
  4: 0x0411 [0x1D] PRINT_EVENT_MESSAGE(message_id=8770*)
    → "I never went to schooly. But with all my intense training-waining, I've become a top-notchy guard.\u007F1\u0000\u0007"
  5: 0x0414 [0x23] WAIT_FOR_DIALOG_INTERACTION
  6: 0x0415 [0x29] REQ_SET_WAIT(priority=0x08, entity_id=Keo-Koruo (ID: 17756173/0x010EF00D), tag_num=0x02)
  7: 0x041C [0x4B] UPDATE_ENTITY_YAW(entity=Keo-Koruo (ID: 17756173/0x010EF00D), yaw=5.3°*)
  8: 0x0423 [0x1D] PRINT_EVENT_MESSAGE(message_id=8771*)
    → "I've even made friends with this Mithra lady-wady. All as a result of my hard worky and discipline!\u007F1\u0000\u0007"
  9: 0x0426 [0x23] WAIT_FOR_DIALOG_INTERACTION
 10: 0x0427 [0x20] SET_CLI_EVENT_UC_FLAG: Unlock player control
 11: 0x0429 [0x21] END_EVENT
 12: 0x042A [0x00] END_REQSTACK()
```
