# Event 430

## Metadata

| Field           | Value    |
|-----------------|----------|
| Event Index     | 47/52    |
| Offset          | 0x04B6   |
| Data Size       | 29 bytes |
| Calculated Size | 29 bytes |
| Instructions    | 10       |

```
      00 01 02 03 04 05 06 07  08 09 0A 0B 0C 0D 0E 0F
      -- -- -- -- -- -- -- --  -- -- -- -- -- -- -- --
04B0:                   1E F0  FF FF 7F 6F 70 29 08 0D        .....op)..
04C0: F0 0E 01 10 1D 34 80 23  29 08 0D F0 0E 01 11 20  .....4.#)...... 
04D0: 00 21 00                                          .!.             
```

## Opcodes

```
  0: 0x04B6 [0x1E] EventEntity looks at LocalPlayer and starts talking
  1: 0x04BB [0x6F] WAIT_FRAME_DELAY: Yield until WaitTime reaches zero
  2: 0x04BC [0x70] WAIT_ENTITY_RENDER_FLAG: Wait while EventEntity->Render.Flags3 bit 2 is set (cancel turn if not)
  3: 0x04BD [0x29] REQ_SET_WAIT(priority=0x08, entity_id=Keo-Koruo (ID: 17756173/0x010EF00D), tag_num=0x10)
  4: 0x04C4 [0x1D] PRINT_EVENT_MESSAGE(message_id=9035*)
    → "Oh, good griefy, the Mithra are getting all firedy up again. You can'taru mentiony the word \u00072Yagudo\u00073 around them without sparks flying out of their ears!\u007F1\u0000\u0007"
  5: 0x04C7 [0x23] WAIT_FOR_DIALOG_INTERACTION
  6: 0x04C8 [0x29] REQ_SET_WAIT(priority=0x08, entity_id=Keo-Koruo (ID: 17756173/0x010EF00D), tag_num=0x11)
  7: 0x04CF [0x20] SET_CLI_EVENT_UC_FLAG: Unlock player control
  8: 0x04D1 [0x21] END_EVENT
  9: 0x04D2 [0x00] END_REQSTACK()
```
