# Event 65535

## Metadata

| Field           | Value     |
|-----------------|-----------|
| Event Index     | 9/34      |
| Offset          | 0x0089    |
| Data Size       | 155 bytes |
| Calculated Size | 155 bytes |
| Instructions    | 4         |

```
      00 01 02 03 04 05 06 07  08 09 0A 0B 0C 0D 0E 0F
      -- -- -- -- -- -- -- --  -- -- -- -- -- -- -- --
0080:                             AC 01 01 80 AB 04 00           .......
0090: 03 01 00 00 00 02 01 00  02 80 05 A5 00 08 01 00  ................
00A0: 00 80 01 AA 00 08 01 00  03 80 14 01 00 04 80 07  ................
00B0: 01 00 05 80 1B 03 01 00  00 00 02 01 00 02 80 05  ................
00C0: CA 00 08 01 00 00 80 01  CF 00 08 01 00 03 80 14  ................
00D0: 01 00 04 80 07 01 00 06  80 1B 03 01 00 00 00 02  ................
00E0: 01 00 02 80 05 EF 00 08  01 00 00 80 01 F4 00 08  ................
00F0: 01 00 03 80 14 01 00 04  80 07 01 00 07 80 1B 03  ................
0100: 01 00 00 00 02 01 00 02  80 05 14 01 08 01 00 00  ................
0110: 80 01 19 01 08 01 00 03  80 14 01 00 04 80 07 01  ................
0120: 00 08 80 1B                                       ....            
```

## Opcodes

```
  0: 0x0089 [0xAC] EventEntity->StatusEvent = 0*
  1: 0x008D [0xAB] EventEntity->Render.Flags0 |= 0x40000 // Set bit 18
  2: 0x008F [0x00] END_REQSTACK()
```

## Data or dead code:

```
# Data Section: 0x0090 (148 bytes)
     0x0090: 03 01 00 00 00 02 01 00 02 80 05 A5 00 08 01 00
     0x00A0: 00 80 01 AA 00 08 01 00 03 80 14 01 00 04 80 07
     0x00B0: 01 00 05 80 1B 03 01 00 00 00 02 01 00 02 80 05
     0x00C0: CA 00 08 01 00 00 80 01 CF 00 08 01 00 03 80 14
     0x00D0: 01 00 04 80 07 01 00 06 80 1B 03 01 00 00 00 02
     0x00E0: 01 00 02 80 05 EF 00 08 01 00 00 80 01 F4 00 08
     0x00F0: 01 00 03 80 14 01 00 04 80 07 01 00 07 80 1B 03
     0x0100: 01 00 00 00 02 01 00 02 80 05 14 01 08 01 00 00
     0x0110: 80 01 19 01 08 01 00 03 80 14 01 00 04 80 07 01
     0x0120: 00 08 80 1B
```