# Event 65535

## Metadata

| Field           | Value     |
|-----------------|-----------|
| Event Index     | 9/34      |
| Offset          | 0x0089    |
| Data Size       | 155 bytes |
| Calculated Size | 155 bytes |
| Instructions    | 3         |

```
      00 01 02 03 04 05 06 07  08 09 0A 0B 0C 0D 0E 0F
      -- -- -- -- -- -- -- --  -- -- -- -- -- -- -- --
0080:                             AC 01 01 80 AB 04 00           .......
0090: 03 01 00 00 00 02 01 00  02 80 05 A5 00 08 01 00  ................
00A0: 00 80 01 AA 00 08 01 00  03 80 14 01 00 04 80 07  ................
00B0: 01 00 05 80 1B 03 01 00  00 00 02 01 00 02 80 05  ................
00C0: CA 00 08 01 00 00 80 01  CF 00 08 01 00 03 80 14  ................
00D0: 01 00 04 80 07 01 00 06  80 1B 03 01 00 00 00 02  ................
00E0: 01 00 02 80 05 EF 00 08  01 00 00 80 01 F4 00 08  ................
00F0: 01 00 03 80 14 01 00 04  80 07 01 00 07 80 1B 03  ................
0100: 01 00 00 00 02 01 00 02  80 05 14 01 08 01 00 00  ................
0110: 80 01 19 01 08 01 00 03  80 14 01 00 04 80 07 01  ................
0120: 00 08 80 1B                                       ....            
```

## Opcodes

```
  0: 0x0089 [0xAC] EventEntity->StatusEvent = 0*
  1: 0x008D [0xAB] EventEntity->Render.Flags0 |= 0x40000 // Set bit 18
  2: 0x008F [0x00] END_REQSTACK()
```

## Data or dead code:

```
# Dead code (unreachable instructions):
     0x0090 [0x03] ExtData[1]->WorkLocal[1] = ExtData[1]->WorkLocal[0]
     0x0095 [0x02] IF !(ExtData[1]->WorkLocal[1] > 5*) GOTO 0x00A5
     0x009D [0x08] ExtData[1]->WorkLocal[1] -= 1*
     0x00A2 [0x01] GOTO 0x00AA
     0x00A5 [0x08] ExtData[1]->WorkLocal[1] -= 2*
     0x00AA [0x14] ExtData[1]->WorkLocal[1] *= 10*
     0x00AF [0x07] ExtData[1]->WorkLocal[1] += 9*
     0x00B4 [0x1B] RETURN
     0x00B5 [0x03] ExtData[1]->WorkLocal[1] = ExtData[1]->WorkLocal[0]
     0x00BA [0x02] IF !(ExtData[1]->WorkLocal[1] > 5*) GOTO 0x00CA
     0x00C2 [0x08] ExtData[1]->WorkLocal[1] -= 1*
     0x00C7 [0x01] GOTO 0x00CF
     0x00CA [0x08] ExtData[1]->WorkLocal[1] -= 2*
     0x00CF [0x14] ExtData[1]->WorkLocal[1] *= 10*
     0x00D4 [0x07] ExtData[1]->WorkLocal[1] += 70*
     0x00D9 [0x1B] RETURN
     0x00DA [0x03] ExtData[1]->WorkLocal[1] = ExtData[1]->WorkLocal[0]
     0x00DF [0x02] IF !(ExtData[1]->WorkLocal[1] > 5*) GOTO 0x00EF
     0x00E7 [0x08] ExtData[1]->WorkLocal[1] -= 1*
     0x00EC [0x01] GOTO 0x00F4
     0x00EF [0x08] ExtData[1]->WorkLocal[1] -= 2*
     0x00F4 [0x14] ExtData[1]->WorkLocal[1] *= 10*
     0x00F9 [0x07] ExtData[1]->WorkLocal[1] += 140*
     0x00FE [0x1B] RETURN
     0x00FF [0x03] ExtData[1]->WorkLocal[1] = ExtData[1]->WorkLocal[0]
     0x0104 [0x02] IF !(ExtData[1]->WorkLocal[1] > 5*) GOTO 0x0114
     0x010C [0x08] ExtData[1]->WorkLocal[1] -= 1*
     0x0111 [0x01] GOTO 0x0119
     0x0114 [0x08] ExtData[1]->WorkLocal[1] -= 2*
     0x0119 [0x14] ExtData[1]->WorkLocal[1] *= 10*
     0x011E [0x07] ExtData[1]->WorkLocal[1] += 210*
     0x0123 [0x1B] RETURN
```