# Event 65535

## Metadata

| Field           | Value    |
|-----------------|----------|
| Event Index     | 25/76    |
| Offset          | 0x22C3   |
| Data Size       | 45 bytes |
| Calculated Size | 45 bytes |
| Instructions    | 7        |

```
      00 01 02 03 04 05 06 07  08 09 0A 0B 0C 0D 0E 0F
      -- -- -- -- -- -- -- --  -- -- -- -- -- -- -- --
22C0:          1C 05 80 03 08  00 07 7F 1A EF 21 66 09     ..........!f.
22D0: 00 F8 FF FF 7F F8 FF FF  7F 74 6C 6B 30 1C 05 80  .........tlk0...
22E0: 66 09 00 F8 FF FF 7F F8  FF FF 7F 74 6C 6B 31 00  f..........tlk1.
```

## Opcodes

```
  0: 0x22C3 [0x1C] WAIT(60* ticks)
  1: 0x22C6 [0x03] ExtData[1]->WorkLocal[8] = Entity->Race
  2: 0x22CB [0x1A] CALL_SUBROUTINE(address=0x21EF)
  3: 0x22CE [0x66] LOAD_EXT_SCHEDULER_MAIN(work_offset=0x0009, entity1=EventEntity, entity2=EventEntity, action="tlk0")
  4: 0x22DD [0x1C] WAIT(60* ticks)
  5: 0x22E0 [0x66] LOAD_EXT_SCHEDULER_MAIN(work_offset=0x0009, entity1=EventEntity, entity2=EventEntity, action="tlk1")
  6: 0x22EF [0x00] END_REQSTACK()
```
