# Event 65535

## Metadata

| Field           | Value     |
|-----------------|-----------|
| Event Index     | 21/76     |
| Offset          | 0x21E8    |
| Data Size       | 155 bytes |
| Calculated Size | 155 bytes |
| Instructions    | 4         |

```
      00 01 02 03 04 05 06 07  08 09 0A 0B 0C 0D 0E 0F
      -- -- -- -- -- -- -- --  -- -- -- -- -- -- -- --
21E0:                          AC 01 02 80 AB 04 00 03          ........
21F0: 09 00 08 00 02 09 00 03  81 05 04 22 08 09 00 03  ..........."....
2200: 80 01 09 22 08 09 00 72  80 14 09 00 04 81 07 09  ..."...r........
2210: 00 12 80 1B 03 09 00 08  00 02 09 00 03 81 05 29  ...............)
2220: 22 08 09 00 03 80 01 2E  22 08 09 00 72 80 14 09  "......."...r...
2230: 00 04 81 07 09 00 05 81  1B 03 09 00 08 00 02 09  ................
2240: 00 03 81 05 4E 22 08 09  00 03 80 01 53 22 08 09  ....N"......S"..
2250: 00 72 80 14 09 00 04 81  07 09 00 06 81 1B 03 09  .r..............
2260: 00 08 00 02 09 00 03 81  05 73 22 08 09 00 03 80  .........s".....
2270: 01 78 22 08 09 00 72 80  14 09 00 04 81 07 09 00  .x"...r.........
2280: 07 81 1B                                          ...             
```

## Opcodes

```
  0: 0x21E8 [0xAC] EventEntity->StatusEvent = 0*
  1: 0x21EC [0xAB] EventEntity->Render.Flags0 |= 0x40000 // Set bit 18
  2: 0x21EE [0x00] END_REQSTACK()
```

## Data or dead code:

```
# Data Section: 0x21EF (148 bytes)
     0x21EF: 03 09 00 08 00 02 09 00 03 81 05 04 22 08 09 00
     0x21FF: 03 80 01 09 22 08 09 00 72 80 14 09 00 04 81 07
     0x220F: 09 00 12 80 1B 03 09 00 08 00 02 09 00 03 81 05
     0x221F: 29 22 08 09 00 03 80 01 2E 22 08 09 00 72 80 14
     0x222F: 09 00 04 81 07 09 00 05 81 1B 03 09 00 08 00 02
     0x223F: 09 00 03 81 05 4E 22 08 09 00 03 80 01 53 22 08
     0x224F: 09 00 72 80 14 09 00 04 81 07 09 00 06 81 1B 03
     0x225F: 09 00 08 00 02 09 00 03 81 05 73 22 08 09 00 03
     0x226F: 80 01 78 22 08 09 00 72 80 14 09 00 04 81 07 09
     0x227F: 00 07 81 1B
```