# Event 65535

## Metadata

| Field           | Value     |
|-----------------|-----------|
| Event Index     | 21/76     |
| Offset          | 0x21E8    |
| Data Size       | 155 bytes |
| Calculated Size | 155 bytes |
| Instructions    | 3         |

```
      00 01 02 03 04 05 06 07  08 09 0A 0B 0C 0D 0E 0F
      -- -- -- -- -- -- -- --  -- -- -- -- -- -- -- --
21E0:                          AC 01 02 80 AB 04 00 03          ........
21F0: 09 00 08 00 02 09 00 03  81 05 04 22 08 09 00 03  ..........."....
2200: 80 01 09 22 08 09 00 72  80 14 09 00 04 81 07 09  ..."...r........
2210: 00 12 80 1B 03 09 00 08  00 02 09 00 03 81 05 29  ...............)
2220: 22 08 09 00 03 80 01 2E  22 08 09 00 72 80 14 09  "......."...r...
2230: 00 04 81 07 09 00 05 81  1B 03 09 00 08 00 02 09  ................
2240: 00 03 81 05 4E 22 08 09  00 03 80 01 53 22 08 09  ....N"......S"..
2250: 00 72 80 14 09 00 04 81  07 09 00 06 81 1B 03 09  .r..............
2260: 00 08 00 02 09 00 03 81  05 73 22 08 09 00 03 80  .........s".....
2270: 01 78 22 08 09 00 72 80  14 09 00 04 81 07 09 00  .x"...r.........
2280: 07 81 1B                                          ...             
```

## Opcodes

```
  0: 0x21E8 [0xAC] EventEntity->StatusEvent = 0*
  1: 0x21EC [0xAB] EventEntity->Render.Flags0 |= 0x40000 // Set bit 18
  2: 0x21EE [0x00] END_REQSTACK()
```

## Data or dead code:

```
# Dead code (unreachable instructions):
     0x21EF [0x03] ExtData[1]->WorkLocal[9] = ExtData[1]->WorkLocal[8]
     0x21F4 [0x02] IF !(ExtData[1]->WorkLocal[9] > 5*) GOTO 0x2204
     0x21FC [0x08] ExtData[1]->WorkLocal[9] -= 1*
     0x2201 [0x01] GOTO 0x2209
     0x2204 [0x08] ExtData[1]->WorkLocal[9] -= 2*
     0x2209 [0x14] ExtData[1]->WorkLocal[9] *= 10*
     0x220E [0x07] ExtData[1]->WorkLocal[9] += 9*
     0x2213 [0x1B] RETURN
     0x2214 [0x03] ExtData[1]->WorkLocal[9] = ExtData[1]->WorkLocal[8]
     0x2219 [0x02] IF !(ExtData[1]->WorkLocal[9] > 5*) GOTO 0x2229
     0x2221 [0x08] ExtData[1]->WorkLocal[9] -= 1*
     0x2226 [0x01] GOTO 0x222E
     0x2229 [0x08] ExtData[1]->WorkLocal[9] -= 2*
     0x222E [0x14] ExtData[1]->WorkLocal[9] *= 10*
     0x2233 [0x07] ExtData[1]->WorkLocal[9] += 70*
     0x2238 [0x1B] RETURN
     0x2239 [0x03] ExtData[1]->WorkLocal[9] = ExtData[1]->WorkLocal[8]
     0x223E [0x02] IF !(ExtData[1]->WorkLocal[9] > 5*) GOTO 0x224E
     0x2246 [0x08] ExtData[1]->WorkLocal[9] -= 1*
     0x224B [0x01] GOTO 0x2253
     0x224E [0x08] ExtData[1]->WorkLocal[9] -= 2*
     0x2253 [0x14] ExtData[1]->WorkLocal[9] *= 10*
     0x2258 [0x07] ExtData[1]->WorkLocal[9] += 140*
     0x225D [0x1B] RETURN
     0x225E [0x03] ExtData[1]->WorkLocal[9] = ExtData[1]->WorkLocal[8]
     0x2263 [0x02] IF !(ExtData[1]->WorkLocal[9] > 5*) GOTO 0x2273
     0x226B [0x08] ExtData[1]->WorkLocal[9] -= 1*
     0x2270 [0x01] GOTO 0x2278
     0x2273 [0x08] ExtData[1]->WorkLocal[9] -= 2*
     0x2278 [0x14] ExtData[1]->WorkLocal[9] *= 10*
     0x227D [0x07] ExtData[1]->WorkLocal[9] += 210*
     0x2282 [0x1B] RETURN
```