# Event 65535

## Metadata

| Field           | Value    |
|-----------------|----------|
| Event Index     | 46/76    |
| Offset          | 0x25A7   |
| Data Size       | 70 bytes |
| Calculated Size | 70 bytes |
| Instructions    | 15       |

```
      00 01 02 03 04 05 06 07  08 09 0A 0B 0C 0D 0E 0F
      -- -- -- -- -- -- -- --  -- -- -- -- -- -- -- --
25A0:                      03  02 10 07 7F 02 02 10 03         .........
25B0: 81 80 BB 25 B6 0F 38 81  01 EC 25 02 02 10 30 81  ...%..8...%...0.
25C0: 80 CA 25 B6 0F 38 81 01  EC 25 02 02 10 09 81 80  ..%..8...%......
25D0: D9 25 B6 0F 39 81 01 EC  25 02 02 10 08 81 80 E8  .%..9...%.......
25E0: 25 B6 0F 3A 81 01 EC 25  B6 0F 02 81 00           %..:...%.....   
```

## Opcodes

```
  0: 0x25A7 [0x03] Work_Zone[2] = Entity->Race
  1: 0x25AC [0x02] IF !(Work_Zone[2] == 5*) GOTO 0x25BB
  2: 0x25B4 [0xB6] ENTITY_APPEARANCE_HANDLER(case=Model size, value=87*)
  3: 0x25B8 [0x01] GOTO 0x25EC

SUBROUTINE_25BB:
  4: 0x25BB [0x02] IF !(Work_Zone[2] == 6*) GOTO 0x25CA
  5: 0x25C3 [0xB6] ENTITY_APPEARANCE_HANDLER(case=Model size, value=87*)
  6: 0x25C7 [0x01] GOTO 0x25EC

SUBROUTINE_25CA:
  7: 0x25CA [0x02] IF !(Work_Zone[2] == 7*) GOTO 0x25D9
  8: 0x25D2 [0xB6] ENTITY_APPEARANCE_HANDLER(case=Model size, value=93*)
  9: 0x25D6 [0x01] GOTO 0x25EC

SUBROUTINE_25D9:
 10: 0x25D9 [0x02] IF !(Work_Zone[2] == 8*) GOTO 0x25E8
 11: 0x25E1 [0xB6] ENTITY_APPEARANCE_HANDLER(case=Model size, value=96*)
 12: 0x25E5 [0x01] GOTO 0x25EC

SUBROUTINE_25E8:
 13: 0x25E8 [0xB6] ENTITY_APPEARANCE_HANDLER(case=Model size, value=100*)
 14: 0x25EC [0x00] END_REQSTACK()
```
