# Event 65535

## Metadata

| Field           | Value    |
|-----------------|----------|
| Event Index     | 7/9      |
| Offset          | 0x0040   |
| Data Size       | 60 bytes |
| Calculated Size | 60 bytes |
| Instructions    | 11       |

```
      00 01 02 03 04 05 06 07  08 09 0A 0B 0C 0D 0E 0F
      -- -- -- -- -- -- -- --  -- -- -- -- -- -- -- --
0040: 1C 06 80 66 07 80 01 51  0F 01 01 51 0F 01 73 69  ...f...Q...Q..si
0050: 74 31 53 01 51 0F 01 01  51 0F 01 73 69 74 31 1C  t1S.Q...Q..sit1.
0060: 08 80 32 03 80 1F 00 09  80 0A 80 01 80 1F 01 1F  ..2.............
0070: 00 0B 80 0C 80 01 80 1F  01 22 01 00              ........."..    
```

## Opcodes

```
  0: 0x0040 [0x1C] WAIT(90* ticks)
  1: 0x0043 [0x66] LOAD_EXT_SCHEDULER_MAIN(work_offset=59*, entity1=Unnamed NPC (ID: 17780993/0x010F5101), entity2=Unnamed NPC (ID: 17780993/0x010F5101), action="sit1")
  2: 0x0052 [0x53] WAIT_SCHEDULER_TASK(entity1=Unnamed NPC (ID: 17780993/0x010F5101), entity2=Unnamed NPC (ID: 17780993/0x010F5101), action_id="sit1")
  3: 0x005F [0x1C] WAIT(150* ticks)
  4: 0x0062 [0x32] ExtData[1]->MainSpeed = 10* * 0.1
  5: 0x0065 [0x1F] MOVE_ENTITY: EventEntity moves to X=-34.876*, Z=-42.875*, Y=0.000*
  6: 0x006D [0x1F] MOVE_ENTITY: Update entity position (mode=1)
  7: 0x006F [0x1F] MOVE_ENTITY: EventEntity moves to X=-23.459*, Z=-26.869*, Y=0.000*
  8: 0x0077 [0x1F] MOVE_ENTITY: Update entity position (mode=1)
  9: 0x0079 [0x22] ENTITY_HIDE_FLAG(enabled=0x01)
 10: 0x007B [0x00] END_REQSTACK()
```
