# 17809420 - Gottna

## Common Data

| Field            | Value          |
|------------------|----------------|
| Zone             | Norg (ID: 252) |
| Block Size       | 484 bytes      |
| Total Events     | 5              |
| References Count | 23             |

## List of Events

| Event ID                 | Entrypoint   |   Size |   Instructions |
|--------------------------|--------------|--------|----------------|
| [65535](#event-65535)    | 0x0000       |      1 |              1 |
| [66](#event-66)          | 0x0001       |    246 |             37 |
| [278](#event-278)        | 0x00F7       |      1 |              1 |
| [65535.1](#event-655351) | 0x00F8       |     32 |              8 |
| [282](#event-282)        | 0x0118       |     74 |             23 |

## DAT References (imed_data)

|   Index | Hex Value   |   Dec Value |
|---------|-------------|-------------|
|       0 | 0x003C      |          60 |
|       1 | 0x287B      |       10363 |
|       2 | 0x0000      |           0 |
|       3 | 0x000A      |          10 |
|       4 | 0x0014      |          20 |
|       5 | 0x001E      |          30 |
|       6 | 0x0028      |          40 |
|       7 | 0x0032      |          50 |
|       8 | 0x0005      |           5 |
|       9 | 0x0050      |          80 |
|      10 | 0x00EE      |         238 |
|      11 | 0x0236      |         566 |
|      12 | 0x1A4F9     |      107769 |
|      13 | 0xFFFFD13A  |  4294955322 |
|      14 | 0xFFFFE452  |  4294960210 |
|      15 | 0x1B8CF     |      112847 |
|      16 | 0xFFFFD4D1  |  4294956241 |
|      17 | 0x3141      |       12609 |
|      18 | 0x3142      |       12610 |
|      19 | 0x0002      |           2 |
|      20 | 0x0001      |           1 |
|      21 | 0x3144      |       12612 |
|      22 | 0x3143      |       12611 |

## String References

- **10363**: Hold on there, [buddy/lady]. Nobody, not even adventurers, is allowed through here.
- **12609**: Aye, I be hearin' all about ya. If yer done here in Norg, then take a ship t' wherever ya want.
- **12610**: Set sail for where? [Selbina./Mhaura./Nowhere.]
- **12611**: 'Twasn't so long ago that I'd say ya were spewing brine if ya told me an adventurer wanted to use our ships. But the times, they be a-changin'.
- **12612**: I'll be here if ya change yer mind.

## Events

### Event 65535

#### Metadata

| Field        | Value   |
|--------------|---------|
| Entrypoint   | 0x0000  |
| Data Size    | 1 bytes |
| Instructions | 1       |

```
      00 01 02 03 04 05 06 07  08 09 0A 0B 0C 0D 0E 0F
      -- -- -- -- -- -- -- --  -- -- -- -- -- -- -- --
0000: 00                                                .               
```

#### Opcodes

```
  0: 0x0000 [0x00] END_REQSTACK()
```

### Event 66

#### Metadata

| Field        | Value     |
|--------------|-----------|
| Entrypoint   | 0x0001    |
| Data Size    | 246 bytes |
| Instructions | 11        |

```
      00 01 02 03 04 05 06 07  08 09 0A 0B 0C 0D 0E 0F
      -- -- -- -- -- -- -- --  -- -- -- -- -- -- -- --
0000:    1A 19 00 66 00 80 F8  FF FF 7F F8 FF FF 7F 74   ...f..........t
0010: 68 6B 31 1D 01 80 23 21  00 86 00 F8 FF FF 7F 1E  hk1...#!........
0020: F0 FF FF 7F 6F 70 1B 66  02 80 F8 FF FF 7F F8 FF  ....op.f........
0030: FF 7F 74 6C 6B 30 1B 66  02 80 F8 FF FF 7F F8 FF  ..tlk0.f........
0040: FF 7F 74 6C 6B 31 1B 66  03 80 F8 FF FF 7F F8 FF  ..tlk1.f........
0050: FF 7F 74 6C 6B 30 1B 66  04 80 F8 FF FF 7F F8 FF  ..tlk0.f........
0060: FF 7F 74 6C 6B 30 1B 66  05 80 F8 FF FF 7F F8 FF  ..tlk0.f........
0070: FF 7F 74 6C 6B 30 1B 66  06 80 F8 FF FF 7F F8 FF  ..tlk0.f........
0080: FF 7F 74 6C 6B 30 1B 66  07 80 F8 FF FF 7F F8 FF  ..tlk0.f........
0090: FF 7F 74 6C 6B 30 1B 66  00 80 F8 FF FF 7F F8 FF  ..tlk0.f........
00A0: FF 7F 74 6C 6B 30 1B 5B  08 80 F8 FF FF 7F F8 FF  ..tlk0.[........
00B0: FF 7F 74 6C 6B 30 1B 5B  09 80 F8 FF FF 7F F8 FF  ..tlk0.[........
00C0: FF 7F 74 6C 6B 30 1B 5B  0A 80 F8 FF FF 7F F8 FF  ..tlk0.[........
00D0: FF 7F 74 6C 6B 30 1B 5B  0B 80 F8 FF FF 7F F8 FF  ..tlk0.[........
00E0: FF 7F 74 6C 6B 30 1B 5B  00 80 F8 FF FF 7F F8 FF  ..tlk0.[........
00F0: FF 7F 74 6C 62 30 1B                              ..tlb0.         
```

#### Opcodes

```
  0: 0x0001 [0x1A] CALL_SUBROUTINE(address=0x0019)
  1: 0x0004 [0x66] LOAD_EXT_SCHEDULER_MAIN: Load scheduler "thk1" with entities [EventEntity, EventEntity], work=60*
  2: 0x0013 [0x1D] PRINT_EVENT_MESSAGE(message_id=10363*)
    → "Hold on there, [buddy/lady]. Nobody, not even adventurers, is allowed through here."
  3: 0x0016 [0x23] WAIT_FOR_DIALOG_INTERACTION
  4: 0x0017 [0x21] END_EVENT
  5: 0x0018 [0x00] END_REQSTACK()

SUBROUTINE_0019:
  6: 0x0019 [0x86] EventEntity->Render.Flags3 = Flags3  // No change (flag=0)
  7: 0x001F [0x1E] EventEntity looks at LocalPlayer and starts talking
  8: 0x0024 [0x6F] WAIT_FRAME_DELAY: Yield until WaitTime reaches zero
  9: 0x0025 [0x70] WAIT_ENTITY_RENDER_FLAG: Wait while EventEntity->Render.Flags3 bit 2 is set (cancel turn if not)
 10: 0x0026 [0x1B] RETURN
```

#### Data or dead code:

```
# Dead code (unreachable instructions):
     0x0027 [0x66] LOAD_EXT_SCHEDULER_MAIN: Load scheduler "tlk0" with entities [EventEntity, EventEntity], work=0*
     0x0036 [0x1B] RETURN
     0x0037 [0x66] LOAD_EXT_SCHEDULER_MAIN: Load scheduler "tlk1" with entities [EventEntity, EventEntity], work=0*
     0x0046 [0x1B] RETURN
     0x0047 [0x66] LOAD_EXT_SCHEDULER_MAIN: Load scheduler "tlk0" with entities [EventEntity, EventEntity], work=10*
     0x0056 [0x1B] RETURN
     0x0057 [0x66] LOAD_EXT_SCHEDULER_MAIN: Load scheduler "tlk0" with entities [EventEntity, EventEntity], work=20*
     0x0066 [0x1B] RETURN
     0x0067 [0x66] LOAD_EXT_SCHEDULER_MAIN: Load scheduler "tlk0" with entities [EventEntity, EventEntity], work=30*
     0x0076 [0x1B] RETURN
     0x0077 [0x66] LOAD_EXT_SCHEDULER_MAIN: Load scheduler "tlk0" with entities [EventEntity, EventEntity], work=40*
     0x0086 [0x1B] RETURN
     0x0087 [0x66] LOAD_EXT_SCHEDULER_MAIN: Load scheduler "tlk0" with entities [EventEntity, EventEntity], work=50*
     0x0096 [0x1B] RETURN
     0x0097 [0x66] LOAD_EXT_SCHEDULER_MAIN: Load scheduler "tlk0" with entities [EventEntity, EventEntity], work=60*
     0x00A6 [0x1B] RETURN
     0x00A7 [0x5B] LOAD_EXT_SCHEDULER: Load scheduler "tlk0" with entities [EventEntity, EventEntity], work=5*
     0x00B6 [0x1B] RETURN
     0x00B7 [0x5B] LOAD_EXT_SCHEDULER: Load scheduler "tlk0" with entities [EventEntity, EventEntity], work=80*
     0x00C6 [0x1B] RETURN
     0x00C7 [0x5B] LOAD_EXT_SCHEDULER: Load scheduler "tlk0" with entities [EventEntity, EventEntity], work=238*
     0x00D6 [0x1B] RETURN
     0x00D7 [0x5B] LOAD_EXT_SCHEDULER: Load scheduler "tlk0" with entities [EventEntity, EventEntity], work=566*
     0x00E6 [0x1B] RETURN
     0x00E7 [0x5B] LOAD_EXT_SCHEDULER: Load scheduler "tlb0" with entities [EventEntity, EventEntity], work=60*
     0x00F6 [0x1B] RETURN
```

### Event 278

#### Metadata

| Field        | Value   |
|--------------|---------|
| Entrypoint   | 0x00F7  |
| Data Size    | 1 bytes |
| Instructions | 1       |

```
      00 01 02 03 04 05 06 07  08 09 0A 0B 0C 0D 0E 0F
      -- -- -- -- -- -- -- --  -- -- -- -- -- -- -- --
00F0:                      00                                  .        
```

#### Opcodes

```
  0: 0x00F7 [0x00] END_REQSTACK()
```

### Event 65535.1

#### Metadata

| Field        | Value    |
|--------------|----------|
| Entrypoint   | 0x00F8   |
| Data Size    | 32 bytes |
| Instructions | 8        |

```
      00 01 02 03 04 05 06 07  08 09 0A 0B 0C 0D 0E 0F
      -- -- -- -- -- -- -- --  -- -- -- -- -- -- -- --
00F0:                          32 06 80 1F 00 0C 80 0D          2.......
0100: 80 0E 80 1F 01 1F 00 0F  80 10 80 0E 80 1F 01 1E  ................
0110: 03 C0 0F 01 1C 05 80 00                           ........        
```

#### Opcodes

```
  0: 0x00F8 [0x32] ExtData[1]->MainSpeed = 40* * 0.1
  1: 0x00FB [0x1F] MOVE_ENTITY: EventEntity moves to X=107.769*, Z=-11.974*, Y=-7.086*
  2: 0x0103 [0x1F] MOVE_ENTITY: Update entity position (mode=1)
  3: 0x0105 [0x1F] MOVE_ENTITY: EventEntity moves to X=112.847*, Z=-11.055*, Y=-7.086*
  4: 0x010D [0x1F] MOVE_ENTITY: Update entity position (mode=1)
  5: 0x010F [0x1E] EventEntity looks at Gilgamesh (ID: 17809411/0x010FC003) and starts talking
  6: 0x0114 [0x1C] WAIT(30* ticks)
  7: 0x0117 [0x00] END_REQSTACK()
```

### Event 282

#### Metadata

| Field        | Value    |
|--------------|----------|
| Entrypoint   | 0x0118   |
| Data Size    | 74 bytes |
| Instructions | 22       |

```
      00 01 02 03 04 05 06 07  08 09 0A 0B 0C 0D 0E 0F
      -- -- -- -- -- -- -- --  -- -- -- -- -- -- -- --
0110:                          1A 19 00 1D 11 80 23 06          ......#.
0120: 01 10 24 12 80 13 80 02  80 25 02 00 10 02 80 00  ..$......%......
0130: 3A 01 03 01 10 14 80 01  5B 01 02 00 10 14 80 00  :.......[.......
0140: 4A 01 03 01 10 13 80 01  5B 01 02 00 10 13 80 00  J.......[.......
0150: 5B 01 1D 15 80 23 21 00  01 5B 01 42 1D 16 80 23  [....#!..[.B...#
0160: 21 00                                             !.              
```

#### Opcodes

```
  0: 0x0118 [0x1A] CALL_SUBROUTINE(address=0x0019)
  1: 0x011B [0x1D] PRINT_EVENT_MESSAGE(message_id=12609*)
    → "Aye, I be hearin' all about ya. If yer done here in Norg, then take a ship t' wherever ya want."
  2: 0x011E [0x23] WAIT_FOR_DIALOG_INTERACTION
  3: 0x011F [0x06] Work_Zone[1] = 0
  4: 0x0122 [0x24] CREATE_DIALOG(message_id=12610*, default_option=2*, option_flags=0*)
    → "Set sail for where? [Selbina./Mhaura./Nowhere.]"
  5: 0x0129 [0x25] WAIT_DIALOG_SELECT()
  6: 0x012A [0x02] IF !(Work_Zone[0] == 0*) GOTO 0x013A
  7: 0x0132 [0x03] Work_Zone[1] = 1*
  8: 0x0137 [0x01] GOTO 0x015B
  9: 0x013A [0x02] IF !(Work_Zone[0] == 1*) GOTO 0x014A
 10: 0x0142 [0x03] Work_Zone[1] = 2*
 11: 0x0147 [0x01] GOTO 0x015B
 12: 0x014A [0x02] IF !(Work_Zone[0] == 2*) GOTO 0x015B
 13: 0x0152 [0x1D] PRINT_EVENT_MESSAGE(message_id=12612*)
    → "I'll be here if ya change yer mind."
 14: 0x0155 [0x23] WAIT_FOR_DIALOG_INTERACTION
 15: 0x0156 [0x21] END_EVENT
 16: 0x0157 [0x00] END_REQSTACK()

SUBROUTINE_015B:
 17: 0x015B [0x42] SET_CLI_EVENT_CANCEL_DATA()
 18: 0x015C [0x1D] PRINT_EVENT_MESSAGE(message_id=12611*)
    → "'Twasn't so long ago that I'd say ya were spewing brine if ya told me an adventurer wanted to use our ships. But the times, they be a-changin'."
 19: 0x015F [0x23] WAIT_FOR_DIALOG_INTERACTION
 20: 0x0160 [0x21] END_EVENT
 21: 0x0161 [0x00] END_REQSTACK()
```

#### Data or dead code:

```
# Dead code (unreachable instructions):
     0x0158 [0x01] GOTO 0x015B
```
