# 17809409

## Common Data

| Field            | Value          |
|------------------|----------------|
| Zone             | Norg (ID: 252) |
| Block Size       | 16504 bytes    |
| Total Events     | 9              |
| References Count | 270            |

## List of Events

| Event ID              | Entrypoint   |   Size |   Instructions |
|-----------------------|--------------|--------|----------------|
| [65535](#event-65535) | 0x0000       |      1 |              1 |
| [5](#event-5)         | 0x0001       |    240 |             38 |
| [1](#event-1)         | 0x00F1       |  10013 |           1045 |
| [2](#event-2)         | 0x280E       |   1935 |            256 |
| [3](#event-3)         | 0x2F9D       |   1012 |            116 |
| [4](#event-4)         | 0x3391       |    130 |             25 |
| [169](#event-169)     | 0x3413       |    508 |             63 |
| [172](#event-172)     | 0x360F       |    410 |             53 |
| [176](#event-176)     | 0x37A9       |   1121 |            133 |

## DAT References (imed_data)

|   Index | Hex Value   |   Dec Value |
|---------|-------------|-------------|
|       0 | 0x284B      |       10315 |
|       1 | 0x0001      |           1 |
|       2 | 0x0000      |           0 |
|       3 | 0x40000000  |  1073741824 |
|       4 | 0x18E51     |      101969 |
|       5 | 0x185CD     |       99789 |
|       6 | 0xFFFFD121  |  4294955297 |
|       7 | 0xFFFFE452  |  4294960210 |
|       8 | 0x07EE      |        2030 |
|       9 | 0x00D7      |         215 |
|      10 | 0x195B1     |      103857 |
|      11 | 0xFFFFD140  |  4294955328 |
|      12 | 0x000D      |          13 |
|      13 | 0x002D      |          45 |
|      14 | 0x00C8      |         200 |
|      15 | 0x0013      |          19 |
|      16 | 0x326E      |       12910 |
|      17 | 0x326F      |       12911 |
|      18 | 0x00FC      |         252 |
|      19 | 0x001E      |          30 |
|      20 | 0x0009      |           9 |
|      21 | 0xFFFF9C98  |  4294941848 |
|      22 | 0xFFFF6016  |  4294926358 |
|      23 | 0x3270      |       12912 |
|      24 | 0x00A0      |         160 |
|      25 | 0x2778      |       10104 |
|      26 | 0x005F      |          95 |
|      27 | 0x0060      |          96 |
|      28 | 0x021A      |         538 |
|      29 | 0x0181      |         385 |
|      30 | 0x0002      |           2 |
|      31 | 0x0069      |         105 |
|      32 | 0x005A      |          90 |
|      33 | 0x2724      |       10020 |
|      34 | 0x2725      |       10021 |
|      35 | 0x0005      |           5 |
|      36 | 0x2726      |       10022 |
|      37 | 0x000F      |          15 |
|      38 | 0x2727      |       10023 |
|      39 | 0x2728      |       10024 |
|      40 | 0x003C      |          60 |
|      41 | 0x2729      |       10025 |
|      42 | 0x272A      |       10026 |
|      43 | 0x272B      |       10027 |
|      44 | 0x0012      |          18 |
|      45 | 0x272C      |       10028 |
|      46 | 0x0080      |         128 |
|      47 | 0x00A5      |         165 |
|      48 | 0x00F3      |         243 |
|      49 | 0x0208      |         520 |
|      50 | 0x017C      |         380 |
|      51 | 0x017E      |         382 |
|      52 | 0x020D      |         525 |
|      53 | 0x0261      |         609 |
|      54 | 0x0200      |         512 |
|      55 | 0x0203      |         515 |
|      56 | 0x0204      |         516 |
|      57 | 0x020C      |         524 |
|      58 | 0x0212      |         530 |
|      59 | 0x0201      |         513 |
|      60 | 0x024D      |         589 |
|      61 | 0x0257      |         599 |
|      62 | 0x0258      |         600 |
|      63 | 0x0259      |         601 |
|      64 | 0x020E      |         526 |
|      65 | 0x0219      |         537 |
|      66 | 0x0051      |          81 |
|      67 | 0x0050      |          80 |
|      68 | 0x0048      |          72 |
|      69 | 0x0036      |          54 |
|      70 | 0x0052      |          82 |
|      71 | 0x0042      |          66 |
|      72 | 0x0046      |          70 |
|      73 | 0x0045      |          69 |
|      74 | 0x0043      |          67 |
|      75 | 0x0044      |          68 |
|      76 | 0x0049      |          73 |
|      77 | 0x0047      |          71 |
|      78 | 0x0015      |          21 |
|      79 | 0x0041      |          65 |
|      80 | 0x00C9      |         201 |
|      81 | 0x00F0      |         240 |
|      82 | 0x272D      |       10029 |
|      83 | 0x272E      |       10030 |
|      84 | 0x272F      |       10031 |
|      85 | 0x2730      |       10032 |
|      86 | 0x00C3      |         195 |
|      87 | 0x2731      |       10033 |
|      88 | 0x2732      |       10034 |
|      89 | 0x003F      |          63 |
|      90 | 0x2733      |       10035 |
|      91 | 0x2734      |       10036 |
|      92 | 0x2735      |       10037 |
|      93 | 0x2736      |       10038 |
|      94 | 0x2737      |       10039 |
|      95 | 0x2738      |       10040 |
|      96 | 0x00B4      |         180 |
|      97 | 0x2739      |       10041 |
|      98 | 0x007F      |         127 |
|      99 | 0x0096      |         150 |
|     100 | 0x004B      |          75 |
|     101 | 0x273A      |       10042 |
|     102 | 0x273B      |       10043 |
|     103 | 0x273C      |       10044 |
|     104 | 0x273D      |       10045 |
|     105 | 0x273E      |       10046 |
|     106 | 0x273F      |       10047 |
|     107 | 0x012C      |         300 |
|     108 | 0x2740      |       10048 |
|     109 | 0x2741      |       10049 |
|     110 | 0x2742      |       10050 |
|     111 | 0x2743      |       10051 |
|     112 | 0x2744      |       10052 |
|     113 | 0x2745      |       10053 |
|     114 | 0x2746      |       10054 |
|     115 | 0x2747      |       10055 |
|     116 | 0x2748      |       10056 |
|     117 | 0x2749      |       10057 |
|     118 | 0x274A      |       10058 |
|     119 | 0x274B      |       10059 |
|     120 | 0x274C      |       10060 |
|     121 | 0x014A      |         330 |
|     122 | 0x274D      |       10061 |
|     123 | 0x274E      |       10062 |
|     124 | 0x274F      |       10063 |
|     125 | 0x2750      |       10064 |
|     126 | 0x2751      |       10065 |
|     127 | 0x2752      |       10066 |
|     128 | 0x2753      |       10067 |
|     129 | 0x2754      |       10068 |
|     130 | 0x2755      |       10069 |
|     131 | 0x2756      |       10070 |
|     132 | 0x0078      |         120 |
|     133 | 0x2757      |       10071 |
|     134 | 0x2758      |       10072 |
|     135 | 0x275A      |       10074 |
|     136 | 0x0087      |         135 |
|     137 | 0x011D      |         285 |
|     138 | 0x2759      |       10073 |
|     139 | 0x00D2      |         210 |
|     140 | 0x275B      |       10075 |
|     141 | 0x275C      |       10076 |
|     142 | 0x275D      |       10077 |
|     143 | 0x275E      |       10078 |
|     144 | 0x275F      |       10079 |
|     145 | 0x0014      |          20 |
|     146 | 0x00A8      |         168 |
|     147 | 0x2760      |       10080 |
|     148 | 0x2761      |       10081 |
|     149 | 0x2762      |       10082 |
|     150 | 0x2763      |       10083 |
|     151 | 0x00E6      |         230 |
|     152 | 0x2765      |       10085 |
|     153 | 0x2766      |       10086 |
|     154 | 0x2767      |       10087 |
|     155 | 0x2768      |       10088 |
|     156 | 0x2769      |       10089 |
|     157 | 0x276A      |       10090 |
|     158 | 0x020F      |         527 |
|     159 | 0x276B      |       10091 |
|     160 | 0x0003      |           3 |
|     161 | 0x276C      |       10092 |
|     162 | 0x0256      |         598 |
|     163 | 0x276D      |       10093 |
|     164 | 0x0040      |          64 |
|     165 | 0x01C2      |         450 |
|     166 | 0x025A      |         602 |
|     167 | 0x025B      |         603 |
|     168 | 0x00F9      |         249 |
|     169 | 0x276E      |       10094 |
|     170 | 0x00FB      |         251 |
|     171 | 0x276F      |       10095 |
|     172 | 0x00D1      |         209 |
|     173 | 0x2770      |       10096 |
|     174 | 0x2771      |       10097 |
|     175 | 0x2772      |       10098 |
|     176 | 0x2773      |       10099 |
|     177 | 0x2774      |       10100 |
|     178 | 0x2775      |       10101 |
|     179 | 0x2777      |       10103 |
|     180 | 0x01A1      |         417 |
|     181 | 0x2776      |       10102 |
|     182 | 0x0236      |         566 |
|     183 | 0x0240      |         576 |
|     184 | 0x2779      |       10105 |
|     185 | 0x277A      |       10106 |
|     186 | 0x277B      |       10107 |
|     187 | 0x277C      |       10108 |
|     188 | 0x277D      |       10109 |
|     189 | 0x277E      |       10110 |
|     190 | 0x277F      |       10111 |
|     191 | 0x2780      |       10112 |
|     192 | 0x2781      |       10113 |
|     193 | 0x2782      |       10114 |
|     194 | 0x2783      |       10115 |
|     195 | 0x2784      |       10116 |
|     196 | 0x2785      |       10117 |
|     197 | 0x2786      |       10118 |
|     198 | 0x2787      |       10119 |
|     199 | 0x007C      |         124 |
|     200 | 0x000C      |          12 |
|     201 | 0x2788      |       10120 |
|     202 | 0x009F      |         159 |
|     203 | 0x2789      |       10121 |
|     204 | 0x278A      |       10122 |
|     205 | 0x0202      |         514 |
|     206 | 0x278B      |       10123 |
|     207 | 0x278C      |       10124 |
|     208 | 0x278D      |       10125 |
|     209 | 0x278E      |       10126 |
|     210 | 0x278F      |       10127 |
|     211 | 0x2790      |       10128 |
|     212 | 0x00F4      |         244 |
|     213 | 0x2791      |       10129 |
|     214 | 0x000A      |          10 |
|     215 | 0x2792      |       10130 |
|     216 | 0x2793      |       10131 |
|     217 | 0x2794      |       10132 |
|     218 | 0x2795      |       10133 |
|     219 | 0x2796      |       10134 |
|     220 | 0x2797      |       10135 |
|     221 | 0x2798      |       10136 |
|     222 | 0x2799      |       10137 |
|     223 | 0x279D      |       10141 |
|     224 | 0x279E      |       10142 |
|     225 | 0x279F      |       10143 |
|     226 | 0x27A0      |       10144 |
|     227 | 0x27A1      |       10145 |
|     228 | 0x27A2      |       10146 |
|     229 | 0x27A3      |       10147 |
|     230 | 0x27A4      |       10148 |
|     231 | 0x27A5      |       10149 |
|     232 | 0x27A6      |       10150 |
|     233 | 0x27A7      |       10151 |
|     234 | 0x27A8      |       10152 |
|     235 | 0x27A9      |       10153 |
|     236 | 0x27AA      |       10154 |
|     237 | 0x27AB      |       10155 |
|     238 | 0x27AC      |       10156 |
|     239 | 0x29F6      |       10742 |
|     240 | 0x29F7      |       10743 |
|     241 | 0x29F8      |       10744 |
|     242 | 0x29F9      |       10745 |
|     243 | 0x29FA      |       10746 |
|     244 | 0x29FB      |       10747 |
|     245 | 0x29FC      |       10748 |
|     246 | 0x29FD      |       10749 |
|     247 | 0x29FE      |       10750 |
|     248 | 0x29FF      |       10751 |
|     249 | 0x2A04      |       10756 |
|     250 | 0x2A05      |       10757 |
|     251 | 0x2A06      |       10758 |
|     252 | 0x2A07      |       10759 |
|     253 | 0x2A08      |       10760 |
|     254 | 0x2A09      |       10761 |
|     255 | 0x2A0A      |       10762 |
|     256 | 0x007A      |         122 |
|     257 | 0x00D8      |         216 |
|     258 | 0x2A25      |       10789 |
|     259 | 0x2A26      |       10790 |
|     260 | 0x2A27      |       10791 |
|     261 | 0x0807      |        2055 |
|     262 | 0x2A28      |       10792 |
|     263 | 0x2A29      |       10793 |
|     264 | 0x2A2A      |       10794 |
|     265 | 0x2A2B      |       10795 |
|     266 | 0x2A2C      |       10796 |
|     267 | 0x2A2D      |       10797 |
|     268 | 0x2A2E      |       10798 |
|     269 | 0x2A2F      |       10799 |

## String References

- **10029**: It all began with a stone, or so the legend says.
- **10030**: In ages past, a sentient jewel, enormous and beautiful, banished the darkness. Its many-colored light filled the world with life and brought forth mighty gods.
- **10031**: Bathed in that light, the world entered an age of bliss until, after a time, the gods fell into slumber. That world was called Vana'diel.
- **10032**: The legend goes on to say... From the darkest depths of the earth the Warriors of the Crystal rose...
- **10054**: The great bane will devour the fair land of Vana'diel.
- **10055**: The ancient seal will be broken, awakening nightmares of ages past.
- **10056**: The blood of innocents will soak the earth, and the world will fall into fear and despair.
- **10065**: But as one bright star shines through the clouds at night...
- **10066**: And as one song rings clear above the roar of beasts...
- **10067**: We hold to one hope in these darkest of times.
- **10071**: That they will come, with the wisdom of ages and the strength of thousands, to deliver us from our plight.
- **10072**: We await the awakening of the Warriors of the Crystal.
- **10104**: 
- **10120**: While not as ancient as Fei'Yin, I do know of some old ruins in the Temple of Uggalepih, beyond the Yuhtunga Jungle.
- **10121**: Years ago, I journeyed there, thinking some booty had to be hidden in a place so ancient. That is where I met up with this strange old woman.
- **10122**: "Are the ancient spirits still in slumber? Come again when the minions awake."
- **10315**: Open the door? [Yes./No.]
- **12910**: You are now able to enjoy a new storyline, Rise of the Zilart.
- **12911**: Start Rise of the zilart? [Yes (View cutscene)./Maybe later.]
- **12912**: Examine the Tales' Beginning in Norg (H-9) when you wish to start Rise of the Zilart.

## Events

### Event 65535

#### Metadata

| Field        | Value   |
|--------------|---------|
| Entrypoint   | 0x0000  |
| Data Size    | 1 bytes |
| Instructions | 1       |

```
      00 01 02 03 04 05 06 07  08 09 0A 0B 0C 0D 0E 0F
      -- -- -- -- -- -- -- --  -- -- -- -- -- -- -- --
0000: 00                                                .               
```

#### Opcodes

```
  0: 0x0000 [0x00] END_REQSTACK()
```

### Event 5

#### Metadata

| Field        | Value     |
|--------------|-----------|
| Entrypoint   | 0x0001    |
| Data Size    | 240 bytes |
| Instructions | 37        |

```
      00 01 02 03 04 05 06 07  08 09 0A 0B 0C 0D 0E 0F
      -- -- -- -- -- -- -- --  -- -- -- -- -- -- -- --
0000:    24 00 80 01 80 02 80  25 02 00 10 01 80 00 1C   $......%.......
0010: 00 03 01 10 03 80 01 EF  00 01 1C 00 42 1A 9A 39  ............B..9
0020: 46 01 3B F0 FF FF 7F 00  00 01 00 02 00 02 00 00  F.;.............
0030: 04 80 02 5C 00 47 00 05  80 06 80 07 80 08 80 47  ...\.G.........G
0040: 01 29 10 F0 FF FF 7F 03  45 09 80 F0 FF FF 7F F0  .)......E.......
0050: FF FF 7F 73 64 30 32 02  80 01 80 00 47 00 0A 80  ...sd02.....G...
0060: 0B 80 07 80 0C 80 47 01  29 10 F0 FF FF 7F 02 45  ......G.)......E
0070: 09 80 F0 FF FF 7F F0 FF  FF 7F 73 64 30 31 02 80  ..........sd01..
0080: 27 10 32 C0 0F 01 05 1A  BB 39 1C 0D 80 02 00 00  '.2......9......
0090: 04 80 02 9F 00 29 10 F0  FF FF 7F 05 01 A6 00 29  .....).........)
00A0: 10 F0 FF FF 7F 04 27 10  32 C0 0F 01 06 1C 0D 80  ......'.2.......
00B0: 1A 9A 39 02 00 00 04 80  02 CD 00 52 09 80 F0 FF  ..9........R....
00C0: FF 7F F0 FF FF 7F 73 64  30 32 01 DC 00 52 09 80  ......sd02...R..
00D0: F0 FF FF 7F F0 FF FF 7F  73 64 30 31 46 00 45 0E  ........sd01F.E.
00E0: 80 F0 FF FF 7F F0 FF FF  7F 66 64 69 32 02 80 21  .........fdi2..!
00F0: 00                                                .               
```

#### Opcodes

```
  0: 0x0001 [0x24] CREATE_DIALOG(message_id=10315*, default_option=1*, option_flags=0*)
    → "Open the door? [Yes./No.]"
  1: 0x0008 [0x25] WAIT_DIALOG_SELECT()
  2: 0x0009 [0x02] IF !(Work_Zone[0] == 1*) GOTO 0x001C
  3: 0x0011 [0x03] Work_Zone[1] = 1073741824*
  4: 0x0016 [0x01] GOTO 0x00EF

SUBROUTINE_001C:
  5: 0x001C [0x42] SET_CLI_EVENT_CANCEL_DATA()
  6: 0x001D [0x1A] CALL_SUBROUTINE(address=0x399A)
  7: 0x0020 [0x46] CAMERA_CONTROL: Disable user control
  8: 0x0022 [0x3B] GET_ENTITY_POSITION(entity=LocalPlayer, x_destination=ExtData[1]->WorkLocal[0], y_destination=ExtData[1]->WorkLocal[1], z_destination=ExtData[1]->WorkLocal[2])
  9: 0x002D [0x02] IF !(ExtData[1]->WorkLocal[0] <= 101969*) GOTO 0x005C
 10: 0x0035 [0x47] UPDATE_PLAYER_POS(99.789*, -11.999*, -7.086*, yaw=178.4°*)
 11: 0x003F [0x47] WAIT_PLAYER_POS_UPDATE
 12: 0x0041 [0x29] REQ_SET_WAIT(priority=0x10, entity_id=LocalPlayer, tag_num=0x03)
 13: 0x0048 [0x45] LOAD_SCHEDULED_TASK: Load scheduler "sd02" with entities [LocalPlayer, LocalPlayer], work=[215*, 0*]
 14: 0x0059 [0x01] GOTO 0x0080
 15: 0x005C [0x47] UPDATE_PLAYER_POS(103.857*, -11.968*, -7.086*, yaw=1.1°*)
 16: 0x0066 [0x47] WAIT_PLAYER_POS_UPDATE
 17: 0x0068 [0x29] REQ_SET_WAIT(priority=0x10, entity_id=LocalPlayer, tag_num=0x02)
 18: 0x006F [0x45] LOAD_SCHEDULED_TASK: Load scheduler "sd01" with entities [LocalPlayer, LocalPlayer], work=[215*, 0*]

SUBROUTINE_0080:
 19: 0x0080 [0x27] REQ_SET(priority=0x10, entity_id=Oaken Door (ID: 17809458/0x010FC032), tag_num=0x05)
 20: 0x0087 [0x1A] CALL_SUBROUTINE(address=0x39BB)
 21: 0x008A [0x1C] WAIT(45* ticks)
 22: 0x008D [0x02] IF !(ExtData[1]->WorkLocal[0] <= 101969*) GOTO 0x009F
 23: 0x0095 [0x29] REQ_SET_WAIT(priority=0x10, entity_id=LocalPlayer, tag_num=0x05)
 24: 0x009C [0x01] GOTO 0x00A6
 25: 0x009F [0x29] REQ_SET_WAIT(priority=0x10, entity_id=LocalPlayer, tag_num=0x04)

SUBROUTINE_00A6:
 26: 0x00A6 [0x27] REQ_SET(priority=0x10, entity_id=Oaken Door (ID: 17809458/0x010FC032), tag_num=0x06)
 27: 0x00AD [0x1C] WAIT(45* ticks)
 28: 0x00B0 [0x1A] CALL_SUBROUTINE(address=0x399A)
 29: 0x00B3 [0x02] IF !(ExtData[1]->WorkLocal[0] <= 101969*) GOTO 0x00CD
 30: 0x00BB [0x52] END_LOAD_SCHEDULER: End scheduler "sd02" with entities [LocalPlayer, LocalPlayer], work=215*
 31: 0x00CA [0x01] GOTO 0x00DC
 32: 0x00CD [0x52] END_LOAD_SCHEDULER: End scheduler "sd01" with entities [LocalPlayer, LocalPlayer], work=215*

SUBROUTINE_00DC:
 33: 0x00DC [0x46] CAMERA_CONTROL: Restore default settings
 34: 0x00DE [0x45] LOAD_SCHEDULED_TASK: Load scheduler "fdi2" with entities [LocalPlayer, LocalPlayer], work=[200*, 0*]

SUBROUTINE_00EF:
 35: 0x00EF [0x21] END_EVENT
 36: 0x00F0 [0x00] END_REQSTACK()
```

#### Data or dead code:

```
# Dead code (unreachable instructions):
     0x0019 [0x01] GOTO 0x001C
```

### Event 1

#### Metadata

| Field        | Value       |
|--------------|-------------|
| Entrypoint   | 0x00F1      |
| Data Size    | 10013 bytes |
| Instructions | 1044        |

```
      00 01 02 03 04 05 06 07  08 09 0A 0B 0C 0D 0E 0F
      -- -- -- -- -- -- -- --  -- -- -- -- -- -- -- --
00F0:    03 05 00 03 10 42 1A  9A 39 46 01 38 0F 80 4E   .....B..9F.8..N
0100: 00 F0 FF FF 7F 03 01 10  02 80 43 00 43 01 03 06  ..........C.C...
0110: 00 04 10 02 05 10 02 80  00 89 01 48 10 80 24 11  ...........H..$.
0120: 80 01 80 02 80 25 02 00  10 02 80 00 36 01 03 01  .....%......6...
0130: 10 01 80 01 89 01 02 00  10 01 80 00 89 01 03 01  ................
0140: 10 02 80 02 06 00 01 80  00 6E 01 8D 12 80 02 80  .........n......
0150: 1C 13 80 B8 12 80 02 80  14 80 15 80 16 80 54 61  ..............Ta
0160: 6C 65 73 27 42 65 67 69  6E 6E 69 6E 67 00 48 17  les'Beginning.H.
0170: 80 1C 18 80 02 06 00 01  80 00 7D 01 8A 1C 13 80  ..........}.....
0180: 48 19 80 01 F9 27 01 89  01 5B 1A 80 05 C0 0F 01  H....'...[......
0190: 05 C0 0F 01 00 FE FE FE  5B 1B 80 05 C0 0F 01 05  ........[.......
01A0: C0 0F 01 00 FE FE FE 5B  1C 80 05 C0 0F 01 05 C0  .......[........
01B0: 0F 01 00 FE FE FE 5B 1D  80 0E C0 0F 01 0E C0 0F  ......[.........
01C0: 01 00 FE FE FE 66 1E 80  0F C0 0F 01 0F C0 0F 01  .....f..........
01D0: 00 FE FE FE 45 09 80 F0  FF FF 7F F0 FF FF 7F 73  ....E..........s
01E0: 67 30 31 02 80 27 10 F0  FF FF 7F 06 1A BB 39 2A  g01..'........9*
01F0: 10 F0 FF FF 7F 52 09 80  F0 FF FF 7F F0 FF FF 7F  .....R..........
0200: 73 67 30 31 45 09 80 F0  FF FF 7F F0 FF FF 7F 73  sg01E..........s
0210: 67 30 32 02 80 27 10 0E  C0 0F 01 05 1C 1F 80 29  g02..'.........)
0220: 10 0F C0 0F 01 05 79 00  F0 FF FF 7F 0F C0 0F 01  ......y.........
0230: 27 10 0F C0 0F 01 06 45  09 80 F0 FF FF 7F F0 FF  '......E........
0240: FF 7F 73 67 30 33 02 80  1C 20 80 2B 0F C0 0F 01  ..sg03... .+....
0250: 21 80 23 2A 10 0F C0 0F  01 2B 05 C0 0F 01 22 80  !.#*.....+....".
0260: 23 52 09 80 F0 FF FF 7F  F0 FF FF 7F 73 67 30 33  #R..........sg03
0270: 27 10 05 C0 0F 01 0C 4A  0F C0 0F 01 05 C0 0F 01  '......J........
0280: 79 00 F0 FF FF 7F 05 C0  0F 01 45 09 80 F0 FF FF  y.........E.....
0290: 7F F0 FF FF 7F 73 67 30  34 02 80 2A 10 05 C0 0F  .....sg04..*....
02A0: 01 1C 23 80 45 09 80 F0  FF FF 7F F0 FF FF 7F 73  ..#.E..........s
02B0: 67 30 36 02 80 2B 0F C0  0F 01 24 80 23 27 10 05  g06..+....$.#'..
02C0: C0 0F 01 0D 45 09 80 F0  FF FF 7F F0 FF FF 7F 73  ....E..........s
02D0: 67 30 35 02 80 2A 10 05  C0 0F 01 1C 25 80 5B 1C  g05..*......%.[.
02E0: 80 05 C0 0F 01 05 C0 0F  01 74 6C 35 30 2B 05 C0  .........tl50+..
02F0: 0F 01 26 80 23 66 1E 80  0F C0 0F 01 0F C0 0F 01  ..&.#f..........
0300: 6B 73 6B 30 2B 0F C0 0F  01 27 80 23 53 0F C0 0F  ksk0+....'.#S...
0310: 01 0F C0 0F 01 6B 73 6B  30 27 10 0F C0 0F 01 07  .....ksk0'......
0320: 1C 0D 80 4A 05 C0 0F 01  F0 FF FF 7F 1C 28 80 52  ...J.........(.R
0330: 09 80 F0 FF FF 7F F0 FF  FF 7F 73 67 30 35 5B 1C  ..........sg05[.
0340: 80 05 C0 0F 01 05 C0 0F  01 74 6C 35 30 2B 05 C0  .........tl50+..
0350: 0F 01 29 80 23 53 05 C0  0F 01 05 C0 0F 01 74 6C  ..).#S........tl
0360: 35 30 45 09 80 F0 FF FF  7F F0 FF FF 7F 73 67 30  50E..........sg0
0370: 37 02 80 5B 1C 80 05 C0  0F 01 05 C0 0F 01 74 6B  7..[..........tk
0380: 32 30 1C 13 80 2B 05 C0  0F 01 2A 80 23 45 09 80  20...+....*.#E..
0390: F0 FF FF 7F F0 FF FF 7F  73 67 30 38 02 80 5B 1C  ........sg08..[.
03A0: 80 05 C0 0F 01 05 C0 0F  01 74 6B 32 31 2B 05 C0  .........tk21+..
03B0: 0F 01 2B 80 23 6E F0 FF  FF 7F 2C 80 99 F0 FF FF  ..+.#n....,.....
03C0: 7F 5D 02 80 20 80 45 0E  80 F0 FF FF 7F F0 FF FF  .].. .E.........
03D0: 7F 62 6C 6F 6E 02 80 1C  0D 80 52 09 80 F0 FF FF  .blon.....R.....
03E0: 7F F0 FF FF 7F 73 67 30  38 45 09 80 F0 FF FF 7F  .....sg08E......
03F0: F0 FF FF 7F 73 67 33 35  02 80 55 09 80 F0 FF FF  ....sg35..U.....
0400: 7F F0 FF FF 7F 73 67 33  35 6C F0 FF FF 7F 02 80  .....sg35l......
0410: 01 80 45 09 80 F0 FF FF  7F F0 FF FF 7F 73 67 33  ..E..........sg3
0420: 36 02 80 5B 1C 80 05 C0  0F 01 05 C0 0F 01 74 6C  6..[..........tl
0430: 35 30 2B 05 C0 0F 01 2D  80 23 1A 1E 3A 1C 25 80  50+....-.#..:.%.
0440: 6C F0 FF FF 7F 2E 80 01  80 7B 05 C0 0F 01 45 0E  l........{....E.
0450: 80 F0 FF FF 7F F0 FF FF  7F 62 6C 6F 66 02 80 52  .........blof..R
0460: 09 80 F0 FF FF 7F F0 FF  FF 7F 73 67 33 36 7B F0  ..........sg36{.
0470: FF FF 7F 7B 05 C0 0F 01  34 2F 80 77 2C 80 2C 80  ...{....4/.w,.,.
0480: 27 10 4A C0 0F 01 02 27  10 4B C0 0F 01 02 27 10  '.J....'.K....'.
0490: 4C C0 0F 01 02 27 10 4D  C0 0F 01 02 5B 30 80 4A  L....'.M....[0.J
04A0: C0 0F 01 4A C0 0F 01 00  FE FE FE 5B 31 80 4A C0  ...J.......[1.J.
04B0: 0F 01 4A C0 0F 01 00 FE  FE FE 5B 32 80 4B C0 0F  ..J.......[2.K..
04C0: 01 4B C0 0F 01 00 FE FE  FE 5B 33 80 4B C0 0F 01  .K.......[3.K...
04D0: 4B C0 0F 01 00 FE FE FE  5B 34 80 4B C0 0F 01 4B  K.......[4.K...K
04E0: C0 0F 01 00 FE FE FE 5B  35 80 4D C0 0F 01 4D C0  .......[5.M...M.
04F0: 0F 01 00 FE FE FE 5B 36  80 4D C0 0F 01 4D C0 0F  ......[6.M...M..
0500: 01 00 FE FE FE 5B 37 80  4C C0 0F 01 4C C0 0F 01  .....[7.L...L...
0510: 00 FE FE FE 5B 38 80 4C  C0 0F 01 4C C0 0F 01 00  ....[8.L...L....
0520: FE FE FE 5B 39 80 4A C0  0F 01 4A C0 0F 01 00 FE  ...[9.J...J.....
0530: FE FE 5B 3A 80 4A C0 0F  01 4A C0 0F 01 00 FE FE  ..[:.J...J......
0540: FE 5B 3B 80 4D C0 0F 01  4D C0 0F 01 00 FE FE FE  .[;.M...M.......
0550: 5B 3C 80 4D C0 0F 01 4D  C0 0F 01 00 FE FE FE 5B  [<.M...M.......[
0560: 3D 80 50 C0 0F 01 50 C0  0F 01 00 FE FE FE 5B 3E  =.P...P.......[>
0570: 80 4F C0 0F 01 4F C0 0F  01 00 FE FE FE 5B 3F 80  .O...O.......[?.
0580: 4E C0 0F 01 4E C0 0F 01  00 FE FE FE 5B 40 80 4B  N...N.......[@.K
0590: C0 0F 01 4B C0 0F 01 00  FE FE FE 5B 41 80 05 C0  ...K.......[A...
05A0: 0F 01 05 C0 0F 01 00 FE  FE FE 62 28 80 4E C0 0F  ..........b(.N..
05B0: 01 4E C0 0F 01 00 FE FE  FE 02 80 62 28 80 4F C0  .N.........b(.O.
05C0: 0F 01 4F C0 0F 01 00 FE  FE FE 02 80 62 28 80 50  ..O.........b(.P
05D0: C0 0F 01 50 C0 0F 01 00  FE FE FE 02 80 62 28 80  ...P.........b(.
05E0: 51 C0 0F 01 51 C0 0F 01  00 FE FE FE 02 80 62 28  Q...Q.........b(
05F0: 80 52 C0 0F 01 52 C0 0F  01 00 FE FE FE 02 80 62  .R...R.........b
0600: 42 80 4D C0 0F 01 4D C0  0F 01 00 FE FE FE 02 80  B.M...M.........
0610: 62 43 80 4A C0 0F 01 4A  C0 0F 01 00 FE FE FE 02  bC.J...J........
0620: 80 62 44 80 05 C0 0F 01  4E C0 0F 01 00 FE FE FE  .bD.....N.......
0630: 02 80 62 45 80 4C C0 0F  01 4C C0 0F 01 00 FE FE  ..bE.L...L......
0640: FE 02 80 62 45 80 4D C0  0F 01 4D C0 0F 01 00 FE  ...bE.M...M.....
0650: FE FE 02 80 62 46 80 49  C0 0F 01 49 C0 0F 01 00  ....bF.I...I....
0660: FE FE FE 02 80 62 47 80  4F C0 0F 01 49 C0 0F 01  .....bG.O...I...
0670: 00 FE FE FE 02 80 62 48  80 50 C0 0F 01 49 C0 0F  ......bH.P...I..
0680: 01 00 FE FE FE 02 80 62  49 80 51 C0 0F 01 49 C0  .......bI.Q...I.
0690: 0F 01 00 FE FE FE 02 80  62 4A 80 52 C0 0F 01 49  ........bJ.R...I
06A0: C0 0F 01 00 FE FE FE 02  80 62 4B 80 4E C0 0F 01  .........bK.N...
06B0: 49 C0 0F 01 00 FE FE FE  02 80 62 4C 80 49 C0 0F  I.........bL.I..
06C0: 01 49 C0 0F 01 00 FE FE  FE 02 80 62 4D 80 49 C0  .I.........bM.I.
06D0: 0F 01 49 C0 0F 01 00 FE  FE FE 02 80 62 4D 80 4E  ..I.........bM.N
06E0: C0 0F 01 4E C0 0F 01 00  FE FE FE 02 80 62 4D 80  ...N.........bM.
06F0: 4F C0 0F 01 4F C0 0F 01  00 FE FE FE 02 80 62 4D  O...O.........bM
0700: 80 50 C0 0F 01 50 C0 0F  01 00 FE FE FE 02 80 62  .P...P.........b
0710: 4D 80 51 C0 0F 01 51 C0  0F 01 00 FE FE FE 02 80  M.Q...Q.........
0720: 62 4D 80 52 C0 0F 01 52  C0 0F 01 00 FE FE FE 02  bM.R...R........
0730: 80 62 4E 80 49 C0 0F 01  49 C0 0F 01 00 FE FE FE  .bN.I...I.......
0740: 02 80 62 4F 80 53 C0 0F  01 53 C0 0F 01 00 FE FE  ..bO.S...S......
0750: FE 02 80 92 01 F0 FF FF  7F 92 01 49 C0 0F 01 92  ...........I....
0760: 01 4A C0 0F 01 92 01 4B  C0 0F 01 92 01 05 C0 0F  .J.....K........
0770: 01 92 01 4C C0 0F 01 92  01 4D C0 0F 01 92 01 4E  ...L.....M.....N
0780: C0 0F 01 92 01 4F C0 0F  01 92 01 50 C0 0F 01 92  .....O.....P....
0790: 01 51 C0 0F 01 92 01 52  C0 0F 01 27 10 F0 FF FF  .Q.....R...'....
07A0: 7F 0E 27 10 4A C0 0F 01  0A 27 10 4B C0 0F 01 0A  ..'.J....'.K....
07B0: 27 10 4C C0 0F 01 0A 27  10 4D C0 0F 01 0A 1A 9A  '.L....'.M......
07C0: 39 1C 25 80 45 50 80 F0  FF FF 7F F0 FF FF 7F 77  9.%.EP.........w
07D0: 68 69 31 02 80 1C 13 80  5C 00 18 80 5C 01 18 80  hi1.....\...\...
07E0: 5C 02 18 80 5C 03 18 80  5D 02 80 01 80 9A 5D 1B  \...\...].....].
07F0: 80 51 80 5B 33 80 4B C0  0F 01 4B C0 0F 01 79 6F  .Q.[3.K...K...yo
0800: 74 30 48 19 80 23 48 52  80 23 48 53 80 23 48 54  t0H..#HR.#HS.#HT
0810: 80 23 48 55 80 23 48 19  80 23 45 56 80 F0 FF FF  .#HU.#H..#EV....
0820: 7F F0 FF FF 7F 73 70 73  31 02 80 45 0E 80 F0 FF  .....sps1..E....
0830: FF 7F F0 FF FF 7F 66 64  69 32 02 80 27 10 4A C0  ......fdi2..'.J.
0840: 0F 01 0B 1C 25 80 27 10  F0 FF FF 7F 0F 2A 10 4A  ....%.'......*.J
0850: C0 0F 01 5B 30 80 4A C0  0F 01 4A C0 0F 01 68 69  ...[0.J...J...hi
0860: 7A 30 53 4A C0 0F 01 4A  C0 0F 01 68 69 7A 30 2B  z0SJ...J...hiz0+
0870: 4A C0 0F 01 57 80 23 2B  4B C0 0F 01 58 80 23 66  J...W.#+K...X.#f
0880: 59 80 4B C0 0F 01 4B C0  0F 01 72 67 6D 30 53 4B  Y.K...K...rgm0SK
0890: C0 0F 01 4B C0 0F 01 72  67 6D 30 52 56 80 F0 FF  ...K...rgm0RV...
08A0: FF 7F F0 FF FF 7F 73 70  73 31 45 56 80 F0 FF FF  ......sps1EV....
08B0: 7F F0 FF FF 7F 73 70 73  32 02 80 5B 30 80 4A C0  .....sps2..[0.J.
08C0: 0F 01 4A C0 0F 01 68 69  7A 31 53 4A C0 0F 01 4A  ..J...hiz1SJ...J
08D0: C0 0F 01 68 69 7A 31 2B  4A C0 0F 01 5A 80 23 66  ...hiz1+J...Z.#f
08E0: 59 80 4B C0 0F 01 4B C0  0F 01 72 67 6D 31 1C 25  Y.K...K...rgm1.%
08F0: 80 2B 4B C0 0F 01 5B 80  23 2B 4B C0 0F 01 5C 80  .+K...[.#+K...\.
0900: 23 53 4B C0 0F 01 4B C0  0F 01 72 67 6D 31 7C 00  #SK...K...rgm1|.
0910: 4A C0 0F 01 2B 4A C0 0F  01 5D 80 23 7C 01 4A C0  J...+J...].#|.J.
0920: 0F 01 81 00 4B C0 0F 01  66 59 80 4B C0 0F 01 4B  ....K...fY.K...K
0930: C0 0F 01 72 67 6D 32 52  56 80 F0 FF FF 7F F0 FF  ...rgm2RV.......
0940: FF 7F 73 70 73 32 45 56  80 F0 FF FF 7F F0 FF FF  ..sps2EV........
0950: 7F 73 70 73 33 02 80 2B  4B C0 0F 01 5E 80 23 2B  .sps3..+K...^.#+
0960: 4B C0 0F 01 5F 80 23 53  4B C0 0F 01 4B C0 0F 01  K..._.#SK...K...
0970: 72 67 6D 32 5D 02 80 60  80 66 59 80 4B C0 0F 01  rgm2]..`.fY.K...
0980: 4B C0 0F 01 72 67 6D 33  2B 4B C0 0F 01 61 80 23  K...rgm3+K...a.#
0990: 53 4B C0 0F 01 4B C0 0F  01 72 67 6D 33 1A 1E 3A  SK...K...rgm3..:
09A0: 1C 28 80 5C 00 62 80 5C  01 62 80 5C 02 62 80 5C  .(.\.b.\.b.\.b.\
09B0: 03 62 80 5D 02 80 01 80  9A 5D 1B 80 60 80 45 56  .b.].....]..`.EV
09C0: 80 F0 FF FF 7F F0 FF FF  7F 73 33 30 37 02 80 5B  .........s307..[
09D0: 35 80 4D C0 0F 01 4D C0  0F 01 68 6B 30 31 45 56  5.M...M...hk01EV
09E0: 80 F0 FF FF 7F F0 FF FF  7F 73 65 30 31 02 80 1A  .........se01...
09F0: FD 39 7B F0 FF FF 7F 81  01 4B C0 0F 01 6B 69 64  .9{......K...kid
0A00: 6C 30 4B C0 0F 01 79 00  4A C0 0F 01 4D C0 0F 01  l0K...y.J...M...
0A10: 1C 63 80 45 0E 80 F0 FF  FF 7F F0 FF FF 7F 62 6C  .c.E..........bl
0A20: 6F 6E 02 80 45 56 80 F0  FF FF 7F F0 FF FF 7F 73  on..EV.........s
0A30: 65 30 32 02 80 5B 31 80  4A C0 0F 01 4A C0 0F 01  e02..[1.J...J...
0A40: 6D 69 67 30 5B 34 80 4B  C0 0F 01 4B C0 0F 01 6D  mig0[4.K...K...m
0A50: 69 67 30 4A F0 FF FF 7F  4D C0 0F 01 55 56 80 F0  ig0J....M...UV..
0A60: FF FF 7F F0 FF FF 7F 73  65 30 32 45 56 80 F0 FF  .......se02EV...
0A70: FF 7F F0 FF FF 7F 73 65  30 33 02 80 1C 64 80 45  ......se03...d.E
0A80: 0E 80 F0 FF FF 7F F0 FF  FF 7F 62 6C 6F 66 02 80  ..........blof..
0A90: 5B 35 80 4D C0 0F 01 4D  C0 0F 01 68 6B 30 32 1C  [5.M...M...hk02.
0AA0: 63 80 45 56 80 F0 FF FF  7F F0 FF FF 7F 73 65 30  c.EV.........se0
0AB0: 34 02 80 2B 4D C0 0F 01  65 80 23 52 56 80 F0 FF  4..+M...e.#RV...
0AC0: FF 7F F0 FF FF 7F 73 65  30 34 27 10 F0 FF FF 7F  ......se04'.....
0AD0: 10 27 10 4B C0 0F 01 0B  45 56 80 F0 FF FF 7F F0  .'.K....EV......
0AE0: FF FF 7F 73 65 30 35 02  80 5B 37 80 4C C0 0F 01  ...se05..[7.L...
0AF0: 4C C0 0F 01 74 6B 61 30  2B 4C C0 0F 01 66 80 23  L...tka0+L...f.#
0B00: 27 10 4C C0 0F 01 0B 2B  4C C0 0F 01 67 80 23 52  '.L....+L...g.#R
0B10: 56 80 F0 FF FF 7F F0 FF  FF 7F 73 65 30 35 45 56  V.........se05EV
0B20: 80 F0 FF FF 7F F0 FF FF  7F 73 65 30 36 02 80 1C  .........se06...
0B30: 13 80 5B 31 80 4A C0 0F  01 4A C0 0F 01 6D 69 67  ..[1.J...J...mig
0B40: 31 2B 4A C0 0F 01 68 80  23 2A 10 4C C0 0F 01 45  1+J...h.#*.L...E
0B50: 56 80 F0 FF FF 7F F0 FF  FF 7F 73 65 30 37 02 80  V.........se07..
0B60: 94 01 4C C0 0F 01 94 01  4D C0 0F 01 27 10 4C C0  ..L.....M...'.L.
0B70: 0F 01 0C 27 10 4D C0 0F  01 0B 5B 35 80 4D C0 0F  ...'.M....[5.M..
0B80: 01 4D C0 0F 01 74 77 6B  30 1C 20 80 2B 4D C0 0F  .M...twk0. .+M..
0B90: 01 69 80 23 1C 60 80 52  56 80 F0 FF FF 7F F0 FF  .i.#.`.RV.......
0BA0: FF 7F 73 65 30 37 27 10  F0 FF FF 7F 11 27 10 4B  ..se07'......'.K
0BB0: C0 0F 01 0C 27 10 4A C0  0F 01 0C 45 56 80 F0 FF  ....'.J....EV...
0BC0: FF 7F F0 FF FF 7F 73 65  30 38 02 80 5B 31 80 4A  ......se08..[1.J
0BD0: C0 0F 01 4A C0 0F 01 6D  69 67 31 2B 4D C0 0F 01  ...J...mig1+M...
0BE0: 6A 80 23 2A 10 4C C0 0F  01 94 00 4C C0 0F 01 94  j.#*.L.....L....
0BF0: 00 4D C0 0F 01 27 10 4C  C0 0F 01 0D 52 56 80 F0  .M...'.L....RV..
0C00: FF FF 7F F0 FF FF 7F 73  65 30 38 45 56 80 F0 FF  .......se08EV...
0C10: FF 7F F0 FF FF 7F 73 65  30 39 02 80 27 10 4D C0  ......se09..'.M.
0C20: 0F 01 0C 5B 35 80 4D C0  0F 01 4D C0 0F 01 6D 75  ...[5.M...M...mu
0C30: 6B 30 1C 6B 80 45 56 80  F0 FF FF 7F F0 FF FF 7F  k0.k.EV.........
0C40: 73 65 31 30 02 80 2B 4D  C0 0F 01 6C 80 23 45 56  se10..+M...l.#EV
0C50: 80 F0 FF FF 7F F0 FF FF  7F 73 65 31 31 02 80 55  .........se11..U
0C60: 56 80 F0 FF FF 7F F0 FF  FF 7F 73 65 31 31 27 10  V.........se11'.
0C70: 4D C0 0F 01 0D 27 10 4C  C0 0F 01 0E 5B 31 80 4A  M....'.L....[1.J
0C80: C0 0F 01 4A C0 0F 01 6D  69 67 32 2B 4A C0 0F 01  ...J...mig2+J...
0C90: 6D 80 23 27 10 4B C0 0F  01 0D 45 56 80 F0 FF FF  m.#'.K....EV....
0CA0: 7F F0 FF FF 7F 73 65 31  32 02 80 5B 35 80 4D C0  .....se12..[5.M.
0CB0: 0F 01 4D C0 0F 01 74 6B  62 30 2B 4D C0 0F 01 6E  ..M...tkb0+M...n
0CC0: 80 23 2B 4D C0 0F 01 6F  80 23 5B 35 80 4D C0 0F  .#+M...o.#[5.M..
0CD0: 01 4D C0 0F 01 74 6B 62  31 1C 64 80 52 56 80 F0  .M...tkb1.d.RV..
0CE0: FF FF 7F F0 FF FF 7F 73  65 31 32 45 56 80 F0 FF  .......se12EV...
0CF0: FF 7F F0 FF FF 7F 73 65  31 33 02 80 5B 37 80 4C  ......se13..[7.L
0D00: C0 0F 01 4C C0 0F 01 74  6B 61 30 2B 4C C0 0F 01  ...L...tka0+L...
0D10: 70 80 23 52 56 80 F0 FF  FF 7F F0 FF FF 7F 73 65  p.#RV.........se
0D20: 31 33 6B 69 64 6C 30 4C  C0 0F 01 45 56 80 F0 FF  13kidl0L...EV...
0D30: FF 7F F0 FF FF 7F 73 65  31 34 02 80 5B 34 80 4B  ......se14..[4.K
0D40: C0 0F 01 4B C0 0F 01 6D  69 67 31 2B 4B C0 0F 01  ...K...mig1+K...
0D50: 71 80 23 45 56 80 F0 FF  FF 7F F0 FF FF 7F 73 65  q.#EV.........se
0D60: 31 35 02 80 1C 25 80 45  0E 80 F0 FF FF 7F F0 FF  15...%.E........
0D70: FF 7F 62 6C 6F 6E 02 80  1C 25 80 1A 9A 39 45 0E  ..blon...%...9E.
0D80: 80 F0 FF FF 7F F0 FF FF  7F 62 6C 6F 66 02 80 48  .........blof..H
0D90: 19 80 23 48 72 80 23 48  73 80 23 48 74 80 23 48  ..#Hr.#Hs.#Ht.#H
0DA0: 19 80 23 45 56 80 F0 FF  FF 7F F0 FF FF 7F 73 65  ..#EV.........se
0DB0: 31 36 02 80 27 10 4C C0  0F 01 0F 27 10 4B C0 0F  16..'.L....'.K..
0DC0: 01 0E 5B 37 80 4C C0 0F  01 4C C0 0F 01 74 6B 63  ..[7.L...L...tkc
0DD0: 31 5B 31 80 4A C0 0F 01  4A C0 0F 01 6D 75 6B 30  1[1.J...J...muk0
0DE0: 5B 34 80 4B C0 0F 01 4B  C0 0F 01 6D 75 6B 30 79  [4.K...K...muk0y
0DF0: 00 4A C0 0F 01 4C C0 0F  01 1A 79 39 27 10 F0 FF  .J...L....y9'...
0E00: FF 7F 12 1C 0D 80 27 10  4C C0 0F 01 10 45 56 80  ......'.L....EV.
0E10: F0 FF FF 7F F0 FF FF 7F  73 65 31 37 02 80 5B 37  ........se17..[7
0E20: 80 4C C0 0F 01 4C C0 0F  01 74 6B 63 30 2B 4C C0  .L...L...tkc0+L.
0E30: 0F 01 75 80 23 53 4C C0  0F 01 4C C0 0F 01 74 6B  ..u.#SL...L...tk
0E40: 63 30 5B 37 80 4C C0 0F  01 4C C0 0F 01 74 6B 64  c0[7.L...L...tkd
0E50: 30 2B 4C C0 0F 01 76 80  23 27 10 4D C0 0F 01 0E  0+L...v.#'.M....
0E60: 81 00 4C C0 0F 01 45 56  80 F0 FF FF 7F F0 FF FF  ..L...EV........
0E70: 7F 73 33 30 39 02 80 5B  37 80 4C C0 0F 01 4C C0  .s309..[7.L...L.
0E80: 0F 01 75 74 75 30 45 56  80 F0 FF FF 7F F0 FF FF  ..utu0EV........
0E90: 7F 73 65 31 38 02 80 1C  6B 80 45 56 80 F0 FF FF  .se18...k.EV....
0EA0: 7F F0 FF FF 7F 6B 33 30  39 02 80 1C 63 80 81 01  .....k309...c...
0EB0: 4C C0 0F 01 2B 4C C0 0F  01 77 80 23 2A 10 4D C0  L...+L...w.#*.M.
0EC0: 0F 01 52 56 80 F0 FF FF  7F F0 FF FF 7F 73 65 31  ..RV.........se1
0ED0: 38 94 01 4C C0 0F 01 94  01 4D C0 0F 01 7B 4D C0  8..L.....M...{M.
0EE0: 0F 01 27 10 4C C0 0F 01  11 27 10 4D C0 0F 01 0F  ..'.L....'.M....
0EF0: 45 56 80 F0 FF FF 7F F0  FF FF 7F 73 65 31 39 02  EV.........se19.
0F00: 80 1C 51 80 2B 4C C0 0F  01 78 80 23 1C 79 80 52  ..Q.+L...x.#.y.R
0F10: 56 80 F0 FF FF 7F F0 FF  FF 7F 73 65 31 39 45 56  V.........se19EV
0F20: 80 F0 FF FF 7F F0 FF FF  7F 73 65 32 30 02 80 27  .........se20..'
0F30: 10 4C C0 0F 01 12 27 10  4D C0 0F 01 10 27 10 02  .L....'.M....'..
0F40: C0 0F 01 06 2B 4C C0 0F  01 7A 80 23 53 4C C0 0F  ....+L...z.#SL..
0F50: 01 4C C0 0F 01 6B 64 6E  31 27 10 4C C0 0F 01 13  .L...kdn1'.L....
0F60: 27 10 4D C0 0F 01 11 45  56 80 F0 FF FF 7F F0 FF  '.M....EV.......
0F70: FF 7F 73 65 32 32 02 80  94 00 4C C0 0F 01 94 00  ..se22....L.....
0F80: 4D C0 0F 01 2B 4C C0 0F  01 7B 80 23 45 56 80 F0  M...+L...{.#EV..
0F90: FF FF 7F F0 FF FF 7F 73  65 32 33 02 80 81 00 4C  .......se23....L
0FA0: C0 0F 01 45 56 80 F0 FF  FF 7F F0 FF FF 7F 73 33  ...EV.........s3
0FB0: 30 39 02 80 5B 38 80 4C  C0 0F 01 4C C0 0F 01 75  09..[8.L...L...u
0FC0: 74 75 31 55 56 80 F0 FF  FF 7F F0 FF FF 7F 73 65  tu1UV.........se
0FD0: 32 33 2B 4C C0 0F 01 7C  80 23 45 56 80 F0 FF FF  23+L...|.#EV....
0FE0: 7F F0 FF FF 7F 6B 33 30  39 02 80 81 01 4C C0 0F  .....k309....L..
0FF0: 01 5B 38 80 4C C0 0F 01  4C C0 0F 01 75 74 75 32  .[8.L...L...utu2
1000: 1C 0D 80 45 56 80 F0 FF  FF 7F F0 FF FF 7F 73 65  ...EV.........se
1010: 32 34 02 80 1C 64 80 2B  4C C0 0F 01 7D 80 23 45  24...d.+L...}.#E
1020: 56 80 F0 FF FF 7F F0 FF  FF 7F 73 65 32 35 02 80  V.........se25..
1030: 1C 13 80 45 0E 80 F0 FF  FF 7F F0 FF FF 7F 62 6C  ...E..........bl
1040: 6F 6E 02 80 1C 25 80 1A  9A 39 55 56 80 F0 FF FF  on...%...9UV....
1050: 7F F0 FF FF 7F 73 65 32  35 6B 69 64 6C 30 4C C0  .....se25kidl0L.
1060: 0F 01 6B 69 64 6C 30 4D  C0 0F 01 45 0E 80 F0 FF  ..kidl0M...E....
1070: FF 7F F0 FF FF 7F 62 6C  6F 66 02 80 48 19 80 23  ......blof..H..#
1080: 48 7E 80 23 48 7F 80 23  48 80 80 23 48 19 80 23  H~.#H..#H..#H..#
1090: 27 10 4C C0 0F 01 14 27  10 4D C0 0F 01 12 1C 01  '.L....'.M......
10A0: 80 45 56 80 F0 FF FF 7F  F0 FF FF 7F 73 65 32 36  .EV.........se26
10B0: 02 80 1A BB 39 2B 4D C0  0F 01 81 80 23 2B 4D C0  ....9+M.....#+M.
10C0: 0F 01 82 80 23 52 56 80  F0 FF FF 7F F0 FF FF 7F  ....#RV.........
10D0: 73 65 32 36 45 56 80 F0  FF FF 7F F0 FF FF 7F 73  se26EV.........s
10E0: 65 32 37 02 80 5B 36 80  4D C0 0F 01 4D C0 0F 01  e27..[6.M...M...
10F0: 74 6B 63 30 2B 4D C0 0F  01 83 80 23 1C 20 80 52  tkc0+M.....#. .R
1100: 56 80 F0 FF FF 7F F0 FF  FF 7F 73 65 32 37 45 56  V.........se27EV
1110: 80 F0 FF FF 7F F0 FF FF  7F 73 65 32 38 02 80 45  .........se28..E
1120: 0E 80 F0 FF FF 7F F0 FF  FF 7F 62 6C 6F 6E 02 80  ..........blon..
1130: 1C 0D 80 45 0E 80 F0 FF  FF 7F F0 FF FF 7F 62 6C  ...E..........bl
1140: 6F 66 02 80 55 56 80 F0  FF FF 7F F0 FF FF 7F 73  of..UV.........s
1150: 65 32 38 45 56 80 F0 FF  FF 7F F0 FF FF 7F 73 65  e28EV.........se
1160: 32 39 02 80 1C 13 80 45  0E 80 F0 FF FF 7F F0 FF  29.....E........
1170: FF 7F 62 6C 6F 6E 02 80  1C 13 80 5D 02 80 84 80  ..blon.....]....
1180: 1A 9A 39 45 0E 80 F0 FF  FF 7F F0 FF FF 7F 62 6C  ..9E..........bl
1190: 6F 66 02 80 48 19 80 23  48 85 80 23 48 86 80 23  of..H..#H..#H..#
11A0: 48 19 80 23 45 56 80 F0  FF FF 7F F0 FF FF 7F 73  H..#EV.........s
11B0: 65 33 30 02 80 5B 36 80  4D C0 0F 01 4D C0 0F 01  e30..[6.M...M...
11C0: 74 6B 63 31 1A 79 39 2B  4D C0 0F 01 87 80 23 5B  tkc1.y9+M.....#[
11D0: 36 80 4D C0 0F 01 4D C0  0F 01 73 6B 6E 30 27 10  6.M...M...skn0'.
11E0: 02 C0 0F 01 09 1C 13 80  52 56 80 F0 FF FF 7F F0  ........RV......
11F0: FF FF 7F 73 65 33 30 45  56 80 F0 FF FF 7F F0 FF  ...se30EV.......
1200: FF 7F 73 65 33 31 02 80  1C 20 80 52 56 80 F0 FF  ..se31... .RV...
1210: FF 7F F0 FF FF 7F 73 65  33 31 45 56 80 F0 FF FF  ......se31EV....
1220: 7F F0 FF FF 7F 73 65 33  32 02 80 1C 88 80 45 0E  .....se32.....E.
1230: 80 F0 FF FF 7F F0 FF FF  7F 62 6C 6F 6E 02 80 1C  .........blon...
1240: 13 80 1A 1E 3A 45 0E 80  F0 FF FF 7F F0 FF FF 7F  ....:E..........
1250: 62 6C 6F 66 02 80 27 10  4E C0 0F 01 02 27 10 4F  blof..'.N....'.O
1260: C0 0F 01 02 27 10 50 C0  0F 01 02 27 10 51 C0 0F  ....'.P....'.Q..
1270: 01 02 27 10 52 C0 0F 01  02 27 10 F0 FF FF 7F 13  ..'.R....'......
1280: 27 10 4A C0 0F 01 0E 27  10 4B C0 0F 01 0F 27 10  '.J....'.K....'.
1290: 4C C0 0F 01 15 27 10 4D  C0 0F 01 13 27 10 4E C0  L....'.M....'.N.
12A0: 0F 01 0A 27 10 4F C0 0F  01 0A 27 10 50 C0 0F 01  ...'.O....'.P...
12B0: 0A 27 10 51 C0 0F 01 0A  27 10 52 C0 0F 01 0A 1C  .'.Q....'.R.....
12C0: 28 80 45 56 80 F0 FF FF  7F F0 FF FF 7F 70 64 30  (.EV.........pd0
12D0: 31 02 80 1A FD 39 62 28  80 4E C0 0F 01 4E C0 0F  1....9b(.N...N..
12E0: 01 73 6D 30 31 02 80 62  28 80 4F C0 0F 01 4F C0  .sm01..b(.O...O.
12F0: 0F 01 73 6D 30 31 02 80  62 28 80 50 C0 0F 01 50  ..sm01..b(.P...P
1300: C0 0F 01 73 6D 30 31 02  80 62 28 80 51 C0 0F 01  ...sm01..b(.Q...
1310: 51 C0 0F 01 73 6D 30 31  02 80 62 28 80 52 C0 0F  Q...sm01..b(.R..
1320: 01 52 C0 0F 01 73 6D 30  31 02 80 55 56 80 F0 FF  .R...sm01..UV...
1330: FF 7F F0 FF FF 7F 70 64  30 31 1C 28 80 45 0E 80  ......pd01.(.E..
1340: F0 FF FF 7F F0 FF FF 7F  6F 76 6C 31 02 80 45 56  ........ovl1..EV
1350: 80 F0 FF FF 7F F0 FF FF  7F 70 64 30 32 02 80 55  .........pd02..U
1360: 56 80 F0 FF FF 7F F0 FF  FF 7F 70 64 30 32 45 0E  V.........pd02E.
1370: 80 F0 FF FF 7F F0 FF FF  7F 6F 76 6C 31 02 80 45  .........ovl1..E
1380: 56 80 F0 FF FF 7F F0 FF  FF 7F 70 64 30 33 02 80  V.........pd03..
1390: 62 28 80 4E C0 0F 01 4E  C0 0F 01 73 65 6E 64 02  b(.N...N...send.
13A0: 80 62 28 80 4E C0 0F 01  4E C0 0F 01 73 6D 30 33  .b(.N...N...sm03
13B0: 02 80 1C 1E 80 62 28 80  4F C0 0F 01 4F C0 0F 01  .....b(.O...O...
13C0: 73 65 6E 64 02 80 62 28  80 4F C0 0F 01 4F C0 0F  send..b(.O...O..
13D0: 01 73 6D 30 33 02 80 1C  01 80 62 28 80 50 C0 0F  .sm03.....b(.P..
13E0: 01 50 C0 0F 01 73 65 6E  64 02 80 62 28 80 50 C0  .P...send..b(.P.
13F0: 0F 01 50 C0 0F 01 73 6D  30 33 02 80 1C 1E 80 62  ..P...sm03.....b
1400: 28 80 51 C0 0F 01 51 C0  0F 01 73 65 6E 64 02 80  (.Q...Q...send..
1410: 62 28 80 51 C0 0F 01 51  C0 0F 01 73 6D 30 33 02  b(.Q...Q...sm03.
1420: 80 1C 01 80 62 28 80 52  C0 0F 01 52 C0 0F 01 73  ....b(.R...R...s
1430: 65 6E 64 02 80 62 28 80  52 C0 0F 01 52 C0 0F 01  end..b(.R...R...
1440: 73 6D 30 33 02 80 1C 89  80 45 56 80 F0 FF FF 7F  sm03.....EV.....
1450: F0 FF FF 7F 77 68 6F 73  02 80 55 56 80 F0 FF FF  ....whos..UV....
1460: 7F F0 FF FF 7F 77 68 6F  73 27 10 4E C0 0F 01 0B  .....whos'.N....
1470: 27 10 4F C0 0F 01 0B 27  10 50 C0 0F 01 0B 27 10  '.O....'.P....'.
1480: 51 C0 0F 01 0B 27 10 52  C0 0F 01 0B 1C 25 80 55  Q....'.R.....%.U
1490: 56 80 F0 FF FF 7F F0 FF  FF 7F 70 64 30 33 1C 28  V.........pd03.(
14A0: 80 45 56 80 F0 FF FF 7F  F0 FF FF 7F 70 64 30 34  .EV.........pd04
14B0: 02 80 5B 3E 80 4F C0 0F  01 4F C0 0F 01 74 65 73  ..[>.O...O...tes
14C0: 32 1A FD 39 55 56 80 F0  FF FF 7F F0 FF FF 7F 70  2..9UV.........p
14D0: 64 30 34 45 56 80 F0 FF  FF 7F F0 FF FF 7F 70 64  d04EV.........pd
14E0: 30 35 02 80 55 56 80 F0  FF FF 7F F0 FF FF 7F 70  05..UV.........p
14F0: 64 30 35 1A 79 39 45 56  80 F0 FF FF 7F F0 FF FF  d05.y9EV........
1500: 7F 73 65 35 30 02 80 45  0E 80 F0 FF FF 7F F0 FF  .se50..E........
1510: FF 7F 66 64 69 32 02 80  94 01 4A C0 0F 01 94 01  ..fdi2....J.....
1520: 4B C0 0F 01 94 01 4E C0  0F 01 27 10 05 C0 0F 01  K.....N...'.....
1530: 02 45 56 80 F0 FF FF 7F  F0 FF FF 7F 73 32 34 38  .EV.........s248
1540: 02 80 5B 39 80 4A C0 0F  01 4A C0 0F 01 7A 30 30  ..[9.J...J...z00
1550: 30 2B 4A C0 0F 01 8A 80  23 5B 3D 80 50 C0 0F 01  0+J.....#[=.P...
1560: 50 C0 0F 01 74 65 73 33  5B 39 80 4A C0 0F 01 4A  P...tes3[9.J...J
1570: C0 0F 01 7A 30 30 31 1C  0D 80 45 56 80 F0 FF FF  ...z001...EV....
1580: 7F F0 FF FF 7F 73 65 35  31 02 80 55 56 80 F0 FF  .....se51..UV...
1590: FF 7F F0 FF FF 7F 73 65  35 31 45 56 80 F0 FF FF  ......se51EV....
15A0: 7F F0 FF FF 7F 73 65 35  32 02 80 55 56 80 F0 FF  .....se52..UV...
15B0: FF 7F F0 FF FF 7F 73 65  35 32 45 56 80 F0 FF FF  ......se52EV....
15C0: 7F F0 FF FF 7F 73 65 35  33 02 80 55 56 80 F0 FF  .....se53..UV...
15D0: FF 7F F0 FF FF 7F 73 65  35 33 5B 3D 80 50 C0 0F  ......se53[=.P..
15E0: 01 50 C0 0F 01 74 65 73  34 45 56 80 F0 FF FF 7F  .P...tes4EV.....
15F0: F0 FF FF 7F 73 65 35 34  02 80 45 0E 80 F0 FF FF  ....se54..E.....
1600: 7F F0 FF FF 7F 62 6C 6F  6E 02 80 1C 0D 80 27 10  .....blon.....'.
1610: 4A C0 0F 01 0F 55 56 80  F0 FF FF 7F F0 FF FF 7F  J....UV.........
1620: 73 65 35 34 45 56 80 F0  FF FF 7F F0 FF FF 7F 73  se54EV.........s
1630: 35 35 62 02 80 2A 10 4A  C0 0F 01 5B 39 80 4A C0  55b..*.J...[9.J.
1640: 0F 01 4A C0 0F 01 7A 30  30 32 62 42 80 4D C0 0F  ..J...z002bB.M..
1650: 01 4D C0 0F 01 6D 61 69  6E 02 80 1C 8B 80 27 10  .M...main.....'.
1660: 4A C0 0F 01 10 45 56 80  F0 FF FF 7F F0 FF FF 7F  J....EV.........
1670: 73 65 35 36 02 80 55 56  80 F0 FF FF 7F F0 FF FF  se56..UV........
1680: 7F 73 65 35 36 45 56 80  F0 FF FF 7F F0 FF FF 7F  .se56EV.........
1690: 73 65 35 37 02 80 5B 39  80 4A C0 0F 01 4A C0 0F  se57..[9.J...J..
16A0: 01 7A 30 30 34 1C 25 80  45 0E 80 F0 FF FF 7F F0  .z004.%.E.......
16B0: FF FF 7F 62 6C 6F 66 02  80 1C 25 80 62 43 80 4A  ...blof...%.bC.J
16C0: C0 0F 01 4A C0 0F 01 6D  61 69 6E 02 80 55 56 80  ...J...main..UV.
16D0: F0 FF FF 7F F0 FF FF 7F  73 65 35 37 1C 13 80 45  ........se57...E
16E0: 56 80 F0 FF FF 7F F0 FF  FF 7F 73 33 31 38 02 80  V.........s318..
16F0: 45 56 80 F0 FF FF 7F F0  FF FF 7F 73 65 35 38 02  EV.........se58.
1700: 80 1C 28 80 62 43 80 4A  C0 0F 01 4A C0 0F 01 73  ..(.bC.J...J...s
1710: 65 6E 64 02 80 1C 63 80  6B 64 66 74 30 50 C0 0F  end...c.kdft0P..
1720: 01 45 56 80 F0 FF FF 7F  F0 FF FF 7F 73 65 35 39  .EV.........se59
1730: 02 80 55 56 80 F0 FF FF  7F F0 FF FF 7F 73 65 35  ..UV.........se5
1740: 39 5B 3B 80 4D C0 0F 01  4D C0 0F 01 73 74 64 30  9[;.M...M...std0
1750: 45 56 80 F0 FF FF 7F F0  FF FF 7F 73 65 36 30 02  EV.........se60.
1760: 80 27 10 4D C0 0F 01 14  2B 4D C0 0F 01 8C 80 23  .'.M....+M.....#
1770: 2A 10 4D C0 0F 01 2B 4D  C0 0F 01 8D 80 23 5B 3C  *.M...+M.....#[<
1780: 80 4D C0 0F 01 4D C0 0F  01 73 61 72 30 1C 13 80  .M...M...sar0...
1790: 2B 4D C0 0F 01 8E 80 23  53 4D C0 0F 01 4D C0 0F  +M.....#SM...M..
17A0: 01 73 61 72 30 52 56 80  F0 FF FF 7F F0 FF FF 7F  .sar0RV.........
17B0: 73 65 36 30 45 56 80 F0  FF FF 7F F0 FF FF 7F 73  se60EV.........s
17C0: 65 36 31 02 80 27 10 4C  C0 0F 01 16 27 10 4D C0  e61..'.L....'.M.
17D0: 0F 01 15 1C 0D 80 45 56  80 F0 FF FF 7F F0 FF FF  ......EV........
17E0: 7F 73 65 36 32 02 80 62  45 80 4C C0 0F 01 4C C0  .se62..bE.L...L.
17F0: 0F 01 6D 61 69 6E 02 80  1C 13 80 62 45 80 4D C0  ..main.....bE.M.
1800: 0F 01 4D C0 0F 01 6D 61  69 6E 02 80 55 56 80 F0  ..M...main..UV..
1810: FF FF 7F F0 FF FF 7F 73  65 36 32 1C 20 80 45 56  .......se62. .EV
1820: 80 F0 FF FF 7F F0 FF FF  7F 73 65 36 33 02 80 27  .........se63..'
1830: 10 4E C0 0F 01 0C 5B 40  80 4B C0 0F 01 4B C0 0F  .N....[@.K...K..
1840: 01 7A 30 30 30 2B 4B C0  0F 01 8F 80 23 1C 28 80  .z000+K.....#.(.
1850: 5B 39 80 4A C0 0F 01 4A  C0 0F 01 7A 30 30 35 1C  [9.J...J...z005.
1860: 6B 80 45 56 80 F0 FF FF  7F F0 FF FF 7F 73 65 36  k.EV.........se6
1870: 34 02 80 2B 4A C0 0F 01  90 80 23 45 0E 80 F0 FF  4..+J.....#E....
1880: FF 7F F0 FF FF 7F 62 6C  6F 6E 02 80 27 10 F0 FF  ......blon..'...
1890: FF 7F 17 45 0E 80 F0 FF  FF 7F F0 FF FF 7F 6F 76  ...E..........ov
18A0: 6C 31 02 80 45 56 80 F0  FF FF 7F F0 FF FF 7F 73  l1..EV.........s
18B0: 65 33 34 02 80 55 56 80  F0 FF FF 7F F0 FF FF 7F  e34..UV.........
18C0: 73 65 33 34 5B 3D 80 50  C0 0F 01 50 C0 0F 01 74  se34[=.P...P...t
18D0: 65 73 33 45 0E 80 F0 FF  FF 7F F0 FF FF 7F 6F 76  es3E..........ov
18E0: 6C 31 02 80 45 56 80 F0  FF FF 7F F0 FF FF 7F 73  l1..EV.........s
18F0: 65 33 35 02 80 1C 91 80  5B 3D 80 50 C0 0F 01 50  e35.....[=.P...P
1900: C0 0F 01 74 65 73 34 1C  0D 80 73 92 80 50 C0 0F  ...tes4...s..P..
1910: 01 F0 FF FF 7F 5B 40 80  4B C0 0F 01 4B C0 0F 01  .....[@.K...K...
1920: 7A 30 30 31 1C 60 80 2C  F0 FF FF 7F F0 FF FF 7F  z001.`.,........
1930: 64 65 61 64 1C 84 80 2B  4B C0 0F 01 93 80 23 1A  dead...+K.....#.
1940: 1E 3A 1C 0D 80 6B 64 66  74 30 50 C0 0F 01 52 56  .:...kdft0P...RV
1950: 80 F0 FF FF 7F F0 FF FF  7F 73 65 33 35 27 10 4E  .........se35'.N
1960: C0 0F 01 0D 45 56 80 F0  FF FF 7F F0 FF FF 7F 73  ....EV.........s
1970: 65 36 35 02 80 45 0E 80  F0 FF FF 7F F0 FF FF 7F  e65..E..........
1980: 62 6C 6F 66 02 80 1A FD  39 1C 63 80 52 56 80 F0  blof....9.c.RV..
1990: FF FF 7F F0 FF FF 7F 73  65 36 35 27 10 05 C0 0F  .......se65'....
19A0: 01 11 45 56 80 F0 FF FF  7F F0 FF FF 7F 73 65 36  ..EV.........se6
19B0: 36 02 80 27 10 48 C0 0F  01 06 1C 63 80 6C 05 C0  6..'.H.....c.l..
19C0: 0F 01 2E 80 01 80 52 56  80 F0 FF FF 7F F0 FF FF  ......RV........
19D0: 7F 73 65 36 36 45 56 80  F0 FF FF 7F F0 FF FF 7F  .se66EV.........
19E0: 73 65 36 37 02 80 5B 41  80 05 C0 0F 01 05 C0 0F  se67..[A........
19F0: 01 7A 30 30 31 2B 05 C0  0F 01 94 80 23 53 05 C0  .z001+......#S..
1A00: 0F 01 05 C0 0F 01 7A 30  30 31 45 0E 80 F0 FF FF  ......z001E.....
1A10: 7F F0 FF FF 7F 62 6C 6F  6E 02 80 45 56 80 F0 FF  .....blon..EV...
1A20: FF 7F F0 FF FF 7F 73 65  36 38 02 80 55 56 80 F0  ......se68..UV..
1A30: FF FF 7F F0 FF FF 7F 73  65 36 38 45 56 80 F0 FF  .......se68EV...
1A40: FF 7F F0 FF FF 7F 73 65  36 39 02 80 55 56 80 F0  ......se69..UV..
1A50: FF FF 7F F0 FF FF 7F 73  65 36 39 45 0E 80 F0 FF  .......se69E....
1A60: FF 7F F0 FF FF 7F 62 6C  6F 66 02 80 2B 05 C0 0F  ......blof..+...
1A70: 01 95 80 23 5B 3A 80 4A  C0 0F 01 4A C0 0F 01 7A  ...#[:.J...J...z
1A80: 30 30 36 1C 0D 80 45 56  80 F0 FF FF 7F F0 FF FF  006...EV........
1A90: 7F 73 65 37 30 02 80 2B  4A C0 0F 01 96 80 23 2A  .se70..+J.....#*
1AA0: 10 4E C0 0F 01 6B 69 64  6C 30 4E C0 0F 01 29 10  .N...kidl0N...).
1AB0: 4E C0 0F 01 11 5B 3F 80  4E C0 0F 01 4E C0 0F 01  N....[?.N...N...
1AC0: 74 65 73 30 45 0E 80 F0  FF FF 7F F0 FF FF 7F 62  tes0E..........b
1AD0: 6C 6F 6E 02 80 45 56 80  F0 FF FF 7F F0 FF FF 7F  lon..EV.........
1AE0: 73 65 37 31 02 80 6C 4A  C0 0F 01 02 80 01 80 6C  se71..lJ.......l
1AF0: 4B C0 0F 01 02 80 01 80  1C 0D 80 45 56 80 F0 FF  K..........EV...
1B00: FF 7F F0 FF FF 7F 73 65  37 32 02 80 55 56 80 F0  ......se72..UV..
1B10: FF FF 7F F0 FF FF 7F 73  65 37 32 45 56 80 F0 FF  .......se72EV...
1B20: FF 7F F0 FF FF 7F 73 65  37 33 02 80 5B 41 80 05  ......se73..[A..
1B30: C0 0F 01 05 C0 0F 01 7A  30 30 32 27 10 4E C0 0F  .......z002'.N..
1B40: 01 12 6C 4A C0 0F 01 2E  80 01 80 6C 4B C0 0F 01  ..lJ.......lK...
1B50: 2E 80 01 80 5B 3A 80 4A  C0 0F 01 4A C0 0F 01 7A  ....[:.J...J...z
1B60: 30 30 37 5B 40 80 4B C0  0F 01 4B C0 0F 01 7A 30  007[@.K...K...z0
1B70: 30 32 55 56 80 F0 FF FF  7F F0 FF FF 7F 73 65 37  02UV.........se7
1B80: 33 45 97 80 F0 FF FF 7F  F0 FF FF 7F 73 33 31 35  3E..........s315
1B90: 02 80 45 56 80 F0 FF FF  7F F0 FF FF 7F 73 65 37  ..EV.........se7
1BA0: 34 02 80 55 56 80 F0 FF  FF 7F F0 FF FF 7F 73 65  4..UV.........se
1BB0: 37 34 5B 3A 80 4A C0 0F  01 4A C0 0F 01 7A 30 30  74[:.J...J...z00
1BC0: 38 45 56 80 F0 FF FF 7F  F0 FF FF 7F 73 65 37 35  8EV.........se75
1BD0: 02 80 5D 02 80 28 80 1C  13 80 1A 1E 3A 45 0E 80  ..]..(......:E..
1BE0: F0 FF FF 7F F0 FF FF 7F  62 6C 6F 66 02 80 27 10  ........blof..'.
1BF0: 4E C0 0F 01 13 5B 40 80  4B C0 0F 01 4B C0 0F 01  N....[@.K...K...
1C00: 7A 30 30 33 5B 3A 80 4A  C0 0F 01 4A C0 0F 01 7A  z003[:.J...J...z
1C10: 30 30 39 5B 3F 80 4E C0  0F 01 4E C0 0F 01 6B 65  009[?.N...N...ke
1C20: 6E 31 45 97 80 F0 FF FF  7F F0 FF FF 7F 73 33 31  n1E..........s31
1C30: 36 02 80 1C 60 80 45 97  80 F0 FF FF 7F F0 FF FF  6...`.E.........
1C40: 7F 73 65 37 36 02 80 1A  FD 39 5B 3A 80 4A C0 0F  .se76....9[:.J..
1C50: 01 4A C0 0F 01 7A 30 31  30 1C 20 80 45 97 80 F0  .J...z010. .E...
1C60: FF FF 7F F0 FF FF 7F 73  65 37 37 02 80 55 97 80  .......se77..U..
1C70: F0 FF FF 7F F0 FF FF 7F  73 65 37 37 27 10 02 C0  ........se77'...
1C80: 0F 01 08 45 97 80 F0 FF  FF 7F F0 FF FF 7F 73 65  ...E..........se
1C90: 37 38 02 80 1C 20 80 5B  40 80 4B C0 0F 01 4B C0  78... .[@.K...K.
1CA0: 0F 01 7A 30 30 34 55 97  80 F0 FF FF 7F F0 FF FF  ..z004U.........
1CB0: 7F 73 65 37 38 45 97 80  F0 FF FF 7F F0 FF FF 7F  .se78E..........
1CC0: 73 65 37 39 02 80 55 97  80 F0 FF FF 7F F0 FF FF  se79..U.........
1CD0: 7F 73 65 37 39 45 97 80  F0 FF FF 7F F0 FF FF 7F  .se79E..........
1CE0: 73 33 31 37 02 80 5B 3F  80 4E C0 0F 01 4E C0 0F  s317..[?.N...N..
1CF0: 01 6B 65 6E 32 45 97 80  F0 FF FF 7F F0 FF FF 7F  .ken2E..........
1D00: 73 65 38 30 02 80 1C 51  80 45 97 80 F0 FF FF 7F  se80...Q.E......
1D10: F0 FF FF 7F 73 65 38 31  02 80 5B 41 80 05 C0 0F  ....se81..[A....
1D20: 01 05 C0 0F 01 7A 30 30  32 1C 25 80 62 44 80 05  .....z002.%.bD..
1D30: C0 0F 01 4E C0 0F 01 6D  61 69 6E 02 80 53 05 C0  ...N...main..S..
1D40: 0F 01 05 C0 0F 01 7A 30  30 32 27 10 02 C0 0F 01  ......z002'.....
1D50: 07 5B 41 80 05 C0 0F 01  05 C0 0F 01 7A 30 30 33  .[A.........z003
1D60: 1C 84 80 5B 3F 80 4E C0  0F 01 4E C0 0F 01 6B 65  ...[?.N...N...ke
1D70: 6E 33 53 4E C0 0F 01 4E  C0 0F 01 6B 65 6E 33 45  n3SN...N...ken3E
1D80: 97 80 F0 FF FF 7F F0 FF  FF 7F 73 65 38 33 02 80  ..........se83..
1D90: 5B 3A 80 4A C0 0F 01 4A  C0 0F 01 7A 30 31 31 2B  [:.J...J...z011+
1DA0: 4A C0 0F 01 98 80 23 1A  9A 39 52 97 80 F0 FF FF  J.....#..9R.....
1DB0: 7F F0 FF FF 7F 73 65 38  33 45 97 80 F0 FF FF 7F  .....se83E......
1DC0: F0 FF FF 7F 73 65 38 34  02 80 1A BB 39 1C 63 80  ....se84....9.c.
1DD0: 5B 40 80 4B C0 0F 01 4B  C0 0F 01 7A 30 30 35 1C  [@.K...K...z005.
1DE0: 64 80 6C 4E C0 0F 01 02  80 01 80 45 97 80 F0 FF  d.lN.......E....
1DF0: FF 7F F0 FF FF 7F 73 65  38 35 02 80 2B 4B C0 0F  ......se85..+K..
1E00: 01 99 80 23 2B 4A C0 0F  01 9A 80 23 2B 4B C0 0F  ...#+J.....#+K..
1E10: 01 9B 80 23 2B 4B C0 0F  01 9C 80 23 45 0E 80 F0  ...#+K.....#E...
1E20: FF FF 7F F0 FF FF 7F 62  6C 6F 6E 02 80 52 97 80  .......blon..R..
1E30: F0 FF FF 7F F0 FF FF 7F  73 65 38 35 45 97 80 F0  ........se85E...
1E40: FF FF 7F F0 FF FF 7F 73  65 38 36 02 80 2B 4B C0  .......se86..+K.
1E50: 0F 01 9D 80 23 6C 4E C0  0F 01 2E 80 01 80 45 97  ....#lN.......E.
1E60: 80 F0 FF FF 7F F0 FF FF  7F 73 65 38 37 02 80 5B  .........se87..[
1E70: 3A 80 4A C0 0F 01 4A C0  0F 01 7A 30 31 33 1C 84  :.J...J...z013..
1E80: 80 1A 1E 3A 53 4A C0 0F  01 4A C0 0F 01 7A 30 31  ...:SJ...J...z01
1E90: 33 27 10 4E C0 0F 01 14  27 10 4F C0 0F 01 0E 27  3'.N....'.O....'
1EA0: 10 50 C0 0F 01 0E 27 10  51 C0 0F 01 0E 27 10 52  .P....'.Q....'.R
1EB0: C0 0F 01 0E 27 10 4B C0  0F 01 10 5B 9E 80 4B C0  ....'.K....[..K.
1EC0: 0F 01 4B C0 0F 01 7A 30  30 37 27 10 F0 FF FF 7F  ..K...z007'.....
1ED0: 14 27 10 05 C0 0F 01 12  27 10 4A C0 0F 01 11 1C  .'......'.J.....
1EE0: 0D 80 29 10 48 C0 0F 01  03 45 97 80 F0 FF FF 7F  ..).H....E......
1EF0: F0 FF FF 7F 73 65 38 38  02 80 27 10 05 C0 0F 01  ....se88..'.....
1F00: 13 1A FD 39 2A 10 05 C0  0F 01 81 00 05 C0 0F 01  ...9*...........
1F10: 5B 1A 80 05 C0 0F 01 05  C0 0F 01 79 64 6F 30 2B  [..........ydo0+
1F20: 05 C0 0F 01 9F 80 23 53  05 C0 0F 01 05 C0 0F 01  ......#S........
1F30: 79 64 6F 30 55 97 80 F0  FF FF 7F F0 FF FF 7F 73  ydo0U..........s
1F40: 65 38 38 27 10 F0 FF FF  7F 15 27 10 4A C0 0F 01  e88'......'.J...
1F50: 12 1C A0 80 45 97 80 F0  FF FF 7F F0 FF FF 7F 73  ....E..........s
1F60: 65 38 39 02 80 1C 28 80  81 01 05 C0 0F 01 27 10  e89...(.......'.
1F70: 05 C0 0F 01 14 1C 64 80  27 10 48 C0 0F 01 05 2B  ......d.'.H....+
1F80: 4A C0 0F 01 A1 80 23 1C  25 80 1A DC 39 1C 25 80  J.....#.%...9.%.
1F90: 52 97 80 F0 FF FF 7F F0  FF FF 7F 73 65 38 39 29  R..........se89)
1FA0: 10 49 C0 0F 01 0A 5B A2  80 49 C0 0F 01 49 C0 0F  .I....[..I...I..
1FB0: 01 64 6C 74 30 45 97 80  F0 FF FF 7F F0 FF FF 7F  .dlt0E..........
1FC0: 73 65 39 30 02 80 45 0E  80 F0 FF FF 7F F0 FF FF  se90..E.........
1FD0: 7F 66 64 69 32 02 80 2B  4B C0 0F 01 A3 80 23 5B  .fdi2..+K.....#[
1FE0: 40 80 4B C0 0F 01 4B C0  0F 01 7A 30 30 36 1C 13  @.K...K...z006..
1FF0: 80 52 97 80 F0 FF FF 7F  F0 FF FF 7F 73 65 39 30  .R..........se90
2000: 45 97 80 F0 FF FF 7F F0  FF FF 7F 73 65 39 31 02  E..........se91.
2010: 80 62 A4 80 4B C0 0F 01  4B C0 0F 01 6D 61 69 6E  .b..K...K...main
2020: 02 80 1C A5 80 52 97 80  F0 FF FF 7F F0 FF FF 7F  .....R..........
2030: 73 65 39 31 45 0E 80 F0  FF FF 7F F0 FF FF 7F 62  se91E..........b
2040: 6C 6F 6E 02 80 45 97 80  F0 FF FF 7F F0 FF FF 7F  lon..E..........
2050: 73 65 39 32 02 80 27 10  4B C0 0F 01 11 27 10 49  se92..'.K....'.I
2060: C0 0F 01 0B 5B A2 80 49  C0 0F 01 49 C0 0F 01 63  ....[..I...I...c
2070: 68 67 30 62 46 80 49 C0  0F 01 49 C0 0F 01 73 6D  hg0bF.I...I...sm
2080: 61 32 02 80 55 97 80 F0  FF FF 7F F0 FF FF 7F 73  a2..U..........s
2090: 65 39 32 45 97 80 F0 FF  FF 7F F0 FF FF 7F 73 65  e92E..........se
20A0: 39 33 02 80 1C 13 80 5B  3D 80 50 C0 0F 01 50 C0  93.....[=.P...P.
20B0: 0F 01 74 65 73 33 55 97  80 F0 FF FF 7F F0 FF FF  ..tes3U.........
20C0: 7F 73 65 39 33 45 0E 80  F0 FF FF 7F F0 FF FF 7F  .se93E..........
20D0: 6F 76 6C 31 02 80 45 97  80 F0 FF FF 7F F0 FF FF  ovl1..E.........
20E0: 7F 73 65 39 34 02 80 62  01 80 4F C0 0F 01 4F C0  .se94..b..O...O.
20F0: 0F 01 6D 61 69 6E 02 80  62 01 80 51 C0 0F 01 51  ..main..b..Q...Q
2100: C0 0F 01 6D 61 69 6E 02  80 62 01 80 52 C0 0F 01  ...main..b..R...
2110: 52 C0 0F 01 6D 61 69 6E  02 80 1C 0D 80 5B 3D 80  R...main.....[=.
2120: 50 C0 0F 01 50 C0 0F 01  74 65 73 34 55 97 80 F0  P...P...tes4U...
2130: FF FF 7F F0 FF FF 7F 73  65 39 34 45 97 80 F0 FF  .......se94E....
2140: FF 7F F0 FF FF 7F 73 65  39 35 02 80 27 10 4F C0  ......se95..'.O.
2150: 0F 01 0C 27 10 51 C0 0F  01 0C 27 10 52 C0 0F 01  ...'.Q....'.R...
2160: 0C 27 10 50 C0 0F 01 0C  62 4C 80 49 C0 0F 01 49  .'.P....bL.I...I
2170: C0 0F 01 73 74 61 72 02  80 5B A2 80 49 C0 0F 01  ...star..[..I...
2180: 49 C0 0F 01 73 74 70 30  53 49 C0 0F 01 49 C0 0F  I...stp0SI...I..
2190: 01 73 74 70 30 45 0E 80  F0 FF FF 7F F0 FF FF 7F  .stp0E..........
21A0: 62 6C 6F 66 02 80 45 56  80 F0 FF FF 7F F0 FF FF  blof..EV........
21B0: 7F 70 64 30 36 02 80 62  47 80 4F C0 0F 01 49 C0  .pd06..bG.O...I.
21C0: 0F 01 6D 61 69 6E 02 80  5B 3E 80 4F C0 0F 01 4F  ..main..[>.O...O
21D0: C0 0F 01 74 65 73 31 1C  64 80 5B A2 80 49 C0 0F  ...tes1.d.[..I..
21E0: 01 49 C0 0F 01 64 6D 67  32 1C 13 80 52 56 80 F0  .I...dmg2...RV..
21F0: FF FF 7F F0 FF FF 7F 70  64 30 36 45 56 80 F0 FF  .......pd06EV...
2200: FF 7F F0 FF FF 7F 70 64  30 37 02 80 62 48 80 50  ......pd07..bH.P
2210: C0 0F 01 49 C0 0F 01 6D  61 69 6E 02 80 5B 3D 80  ...I...main..[=.
2220: 50 C0 0F 01 50 C0 0F 01  74 65 73 31 1C 64 80 5B  P...P...tes1.d.[
2230: A2 80 49 C0 0F 01 49 C0  0F 01 64 6D 67 31 1C 28  ..I...I...dmg1.(
2240: 80 52 56 80 F0 FF FF 7F  F0 FF FF 7F 70 64 30 37  .RV.........pd07
2250: 45 56 80 F0 FF FF 7F F0  FF FF 7F 70 64 30 38 02  EV.........pd08.
2260: 80 62 49 80 51 C0 0F 01  49 C0 0F 01 6D 61 69 6E  .bI.Q...I...main
2270: 02 80 5B A6 80 51 C0 0F  01 51 C0 0F 01 74 65 73  ..[..Q...Q...tes
2280: 31 1C 28 80 5B A2 80 49  C0 0F 01 49 C0 0F 01 64  1.(.[..I...I...d
2290: 6D 67 32 1C 28 80 52 56  80 F0 FF FF 7F F0 FF FF  mg2.(.RV........
22A0: 7F 70 64 30 38 45 56 80  F0 FF FF 7F F0 FF FF 7F  .pd08EV.........
22B0: 70 64 30 39 02 80 62 4A  80 52 C0 0F 01 49 C0 0F  pd09..bJ.R...I..
22C0: 01 6D 61 69 6E 02 80 5B  A7 80 52 C0 0F 01 52 C0  .main..[..R...R.
22D0: 0F 01 74 65 73 31 1C 0D  80 5B A2 80 49 C0 0F 01  ..tes1...[..I...
22E0: 49 C0 0F 01 64 6D 67 30  1C 0D 80 52 56 80 F0 FF  I...dmg0...RV...
22F0: FF 7F F0 FF FF 7F 70 64  30 39 45 56 80 F0 FF FF  ......pd09EV....
2300: 7F F0 FF FF 7F 70 64 31  30 02 80 6C 49 C0 0F 01  .....pd10..lI...
2310: 02 80 01 80 27 10 4E C0  0F 01 0E 62 4B 80 4E C0  ....'.N....bK.N.
2320: 0F 01 49 C0 0F 01 6D 61  69 6E 02 80 5B 3F 80 4E  ..I...main..[?.N
2330: C0 0F 01 4E C0 0F 01 74  65 73 32 55 56 80 F0 FF  ...N...tes2UV...
2340: FF 7F F0 FF FF 7F 70 64  31 30 6C 49 C0 0F 01 2E  ......pd10lI....
2350: 80 01 80 45 56 80 F0 FF  FF 7F F0 FF FF 7F 70 64  ...EV.........pd
2360: 31 31 02 80 1C 0D 80 5B  A2 80 49 C0 0F 01 49 C0  11.....[..I...I.
2370: 0F 01 64 6D 67 31 1C 25  80 52 56 80 F0 FF FF 7F  ..dmg1.%.RV.....
2380: F0 FF FF 7F 70 64 31 31  45 97 80 F0 FF FF 7F F0  ....pd11E.......
2390: FF FF 7F 73 33 31 39 02  80 45 56 80 F0 FF FF 7F  ...s319..EV.....
23A0: F0 FF FF 7F 70 64 31 32  02 80 1C 25 80 5B A2 80  ....pd12...%.[..
23B0: 49 C0 0F 01 49 C0 0F 01  73 69 67 30 53 4E C0 0F  I...I...sig0SN..
23C0: 01 4E C0 0F 01 74 65 73  32 62 4C 80 49 C0 0F 01  .N...tes2bL.I...
23D0: 49 C0 0F 01 79 61 62 75  02 80 1C 0D 80 52 56 80  I...yabu.....RV.
23E0: F0 FF FF 7F F0 FF FF 7F  70 64 31 32 45 0E 80 F0  ........pd12E...
23F0: FF FF 7F F0 FF FF 7F 6F  76 6C 31 02 80 45 56 80  .......ovl1..EV.
2400: F0 FF FF 7F F0 FF FF 7F  70 64 31 33 02 80 62 4D  ........pd13..bM
2410: 80 49 C0 0F 01 49 C0 0F  01 6D 61 69 6E 02 80 5B  .I...I...main..[
2420: A2 80 49 C0 0F 01 49 C0  0F 01 73 69 67 31 45 0E  ..I...I...sig1E.
2430: 80 F0 FF FF 7F F0 FF FF  7F 62 6C 6F 6E 02 80 53  .........blon..S
2440: 49 C0 0F 01 49 C0 0F 01  73 69 67 31 27 10 4E C0  I...I...sig1'.N.
2450: 0F 01 15 27 10 4F C0 0F  01 0F 52 56 80 F0 FF FF  ...'.O....RV....
2460: 7F F0 FF FF 7F 70 64 31  33 45 56 80 F0 FF FF 7F  .....pd13EV.....
2470: F0 FF FF 7F 70 64 31 34  02 80 5B 3F 80 4E C0 0F  ....pd14..[?.N..
2480: 01 4E C0 0F 01 74 65 73  33 62 4D 80 4E C0 0F 01  .N...tes3bM.N...
2490: 4E C0 0F 01 74 72 67 30  02 80 5B 3E 80 4F C0 0F  N...trg0..[>.O..
24A0: 01 4F C0 0F 01 74 65 73  30 62 4D 80 4F C0 0F 01  .O...tes0bM.O...
24B0: 4F C0 0F 01 74 72 67 30  02 80 5B 3D 80 50 C0 0F  O...trg0..[=.P..
24C0: 01 50 C0 0F 01 74 65 73  32 62 4D 80 50 C0 0F 01  .P...tes2bM.P...
24D0: 50 C0 0F 01 74 72 67 30  02 80 5B A6 80 51 C0 0F  P...trg0..[..Q..
24E0: 01 51 C0 0F 01 74 65 73  32 62 4D 80 51 C0 0F 01  .Q...tes2bM.Q...
24F0: 51 C0 0F 01 74 72 67 30  02 80 5B A7 80 52 C0 0F  Q...trg0..[..R..
2500: 01 52 C0 0F 01 74 65 73  32 62 4D 80 52 C0 0F 01  .R...tes2bM.R...
2510: 52 C0 0F 01 74 72 67 30  02 80 1C 25 80 1A 1E 3A  R...trg0...%...:
2520: 27 10 53 C0 0F 01 04 45  4F 80 F0 FF FF 7F F0 FF  '.S....EO.......
2530: FF 7F 73 67 36 32 02 80  5B A8 80 49 C0 0F 01 49  ..sg62..[..I...I
2540: C0 0F 01 6B 68 74 31 62  4E 80 49 C0 0F 01 49 C0  ...kht1bN.I...I.
2550: 0F 01 73 6D 33 31 02 80  1A FD 39 53 49 C0 0F 01  ..sm31....9SI...
2560: 49 C0 0F 01 6B 68 74 31  55 4F 80 F0 FF FF 7F F0  I...kht1UO......
2570: FF FF 7F 73 67 36 32 2B  49 C0 0F 01 A9 80 23 45  ...sg62+I.....#E
2580: 0E 80 F0 FF FF 7F F0 FF  FF 7F 6F 76 6C 31 02 80  ..........ovl1..
2590: 45 56 80 F0 FF FF 7F F0  FF FF 7F 70 64 31 35 02  EV.........pd15.
25A0: 80 27 10 53 C0 0F 01 05  55 56 80 F0 FF FF 7F F0  .'.S....UV......
25B0: FF FF 7F 70 64 31 35 5B  AA 80 49 C0 0F 01 49 C0  ...pd15[..I...I.
25C0: 0F 01 67 61 30 30 2B 49  C0 0F 01 AB 80 23 53 49  ..ga00+I.....#SI
25D0: C0 0F 01 49 C0 0F 01 67  61 30 30 62 4E 80 49 C0  ...I...ga00bN.I.
25E0: 0F 01 49 C0 0F 01 73 6D  33 32 02 80 45 4F 80 F0  ..I...sm32..EO..
25F0: FF FF 7F F0 FF FF 7F 73  67 36 33 02 80 1C 3E 80  .......sg63...>.
2600: 27 10 53 C0 0F 01 06 1C  60 80 1A 1E 3A 5D 02 80  '.S.....`...:]..
2610: 84 80 55 4F 80 F0 FF FF  7F F0 FF FF 7F 73 67 36  ..UO.........sg6
2620: 33 45 0E 80 F0 FF FF 7F  F0 FF FF 7F 62 6C 6F 66  3E..........blof
2630: 02 80 35 12 80 78 27 10  F0 FF FF 7F 16 27 10 05  ..5..x'......'..
2640: C0 0F 01 16 5C 00 AC 80  5C 01 AC 80 5C 02 AC 80  ....\...\...\...
2650: 5C 03 AC 80 5D 02 80 01  80 9A 5D 1B 80 51 80 80  \...].....]..Q..
2660: 05 C0 0F 01 7B 05 C0 0F  01 79 00 F0 FF FF 7F 05  ....{....y......
2670: C0 0F 01 2A 10 05 C0 0F  01 45 09 80 F0 FF FF 7F  ...*.....E......
2680: F0 FF FF 7F 73 67 33 37  02 80 5B 1C 80 05 C0 0F  ....sg37..[.....
2690: 01 05 C0 0F 01 73 6E 70  30 53 05 C0 0F 01 05 C0  .....snp0S......
26A0: 0F 01 73 6E 70 30 1A FD  39 2B 05 C0 0F 01 AD 80  ..snp0..9+......
26B0: 23 5B 1C 80 05 C0 0F 01  05 C0 0F 01 73 6E 70 31  #[..........snp1
26C0: 2B 05 C0 0F 01 AE 80 23  53 05 C0 0F 01 05 C0 0F  +......#S.......
26D0: 01 73 6E 70 31 45 09 80  F0 FF FF 7F F0 FF FF 7F  .snp1E..........
26E0: 73 67 30 39 02 80 5B 1C  80 05 C0 0F 01 05 C0 0F  sg09..[.........
26F0: 01 74 6B 32 30 1C 28 80  2B 05 C0 0F 01 AF 80 23  .tk20.(.+......#
2700: 45 09 80 F0 FF FF 7F F0  FF FF 7F 73 67 31 32 02  E..........sg12.
2710: 80 5B 1C 80 05 C0 0F 01  05 C0 0F 01 74 6B 32 31  .[..........tk21
2720: 53 05 C0 0F 01 05 C0 0F  01 74 6B 32 31 2B 05 C0  S........tk21+..
2730: 0F 01 B0 80 23 2B 05 C0  0F 01 B1 80 23 45 09 80  ....#+......#E..
2740: F0 FF FF 7F F0 FF FF 7F  73 67 31 30 02 80 55 09  ........sg10..U.
2750: 80 F0 FF FF 7F F0 FF FF  7F 73 67 31 30 45 0E 80  .........sg10E..
2760: F0 FF FF 7F F0 FF FF 7F  6F 76 6C 31 02 80 45 09  ........ovl1..E.
2770: 80 F0 FF FF 7F F0 FF FF  7F 73 67 31 31 02 80 55  .........sg11..U
2780: 09 80 F0 FF FF 7F F0 FF  FF 7F 73 67 31 31 1C 13  ..........sg11..
2790: 80 1A DC 39 45 09 80 F0  FF FF 7F F0 FF FF 7F 73  ...9E..........s
27A0: 67 33 38 02 80 1A BB 39  5B 1B 80 05 C0 0F 01 05  g38....9[.......
27B0: C0 0F 01 74 6C 35 30 2B  05 C0 0F 01 B2 80 23 02  ...tl50+......#.
27C0: 05 00 02 80 01 D2 27 2B  05 C0 0F 01 B3 80 23 01  ......'+......#.
27D0: DF 27 03 08 10 B4 80 2B  05 C0 0F 01 B5 80 23 5D  .'.....+......#]
27E0: 62 80 51 80 1A DC 39 1C  25 80 52 09 80 F0 FF FF  b.Q...9.%.R.....
27F0: 7F F0 FF FF 7F 73 67 33  38 46 00 45 0E 80 F0 FF  .....sg38F.E....
2800: FF 7F F0 FF FF 7F 66 64  69 32 02 80 21 00        ......fdi2..!.  
```

#### Opcodes

```
  0: 0x00F1 [0x03] ExtData[1]->WorkLocal[5] = Work_Zone[3]
  1: 0x00F6 [0x42] SET_CLI_EVENT_CANCEL_DATA()
  2: 0x00F7 [0x1A] CALL_SUBROUTINE(address=0x399A)
  3: 0x00FA [0x46] CAMERA_CONTROL: Disable user control
  4: 0x00FC [0x38] SET_CLIENT_EVENT_MODE(mode=19*)
  5: 0x00FF [0x4E] SET_ENTITY_HIDE_FLAG: Show LocalPlayer
  6: 0x0105 [0x03] Work_Zone[1] = 0*
  7: 0x010A [0x43] SEND_EVENT_UPDATE: Send pending tag to server (packet 0x005B)
  8: 0x010C [0x43] SEND_EVENT_UPDATE: Check pending flag (skip if not pending)
  9: 0x010E [0x03] ExtData[1]->WorkLocal[6] = Work_Zone[4]
 10: 0x0113 [0x02] IF !(Work_Zone[5] == 0*) GOTO 0x0189
 11: 0x011B [0x48] [System] [12910*]:
    → "You are now able to enjoy a new storyline, Rise of the Zilart."
 12: 0x011E [0x24] CREATE_DIALOG(message_id=12911*, default_option=1*, option_flags=0*)
    → "Start Rise of the zilart? [Yes (View cutscene)./Maybe later.]"
 13: 0x0125 [0x25] WAIT_DIALOG_SELECT()
 14: 0x0126 [0x02] IF !(Work_Zone[0] == 0*) GOTO 0x0136
 15: 0x012E [0x03] Work_Zone[1] = 1*
 16: 0x0133 [0x01] GOTO 0x0189
 17: 0x0136 [0x02] IF !(Work_Zone[0] == 1*) GOTO 0x0189
 18: 0x013E [0x03] Work_Zone[1] = 0*
 19: 0x0143 [0x02] IF !(ExtData[1]->WorkLocal[6] == 1*) GOTO 0x016E
 20: 0x014B [0x8D] OPEN_MAP_WITH_PROPERTIES(map_id=252*, properties=0*)
 21: 0x0150 [0x1C] WAIT(30* ticks)
 22: 0x0153 [0xB8] MAP_ADD_MARKER_WITH_NAME(zone=252*, submap=0*, marker_id=9*, x_pos=-25.448*, y_pos=-40.938*, marker_name="Tales'Beginning")
 23: 0x016E [0x48] [System] [12912*]:
    → "Examine the Tales' Beginning in Norg (H-9) when you wish to start Rise of the Zilart."
 24: 0x0171 [0x1C] WAIT(160* ticks)
 25: 0x0174 [0x02] IF !(ExtData[1]->WorkLocal[6] == 1*) GOTO 0x017D
 26: 0x017C [0x8A] CLOSE_MAP()
 27: 0x017D [0x1C] WAIT(30* ticks)
 28: 0x0180 [0x48] [System] [10104*]:
    → ""
 29: 0x0183 [0x01] GOTO 0x27F9

SUBROUTINE_0189:
 30: 0x0189 [0x5B] LOAD_EXT_SCHEDULER: Load scheduler 0xFEFEFE00 with entities [Lion (ID: 17809413/0x010FC005), Lion (ID: 17809413/0x010FC005)], work=95*
 31: 0x0198 [0x5B] LOAD_EXT_SCHEDULER: Load scheduler 0xFEFEFE00 with entities [Lion (ID: 17809413/0x010FC005), Lion (ID: 17809413/0x010FC005)], work=96*
 32: 0x01A7 [0x5B] LOAD_EXT_SCHEDULER: Load scheduler 0xFEFEFE00 with entities [Lion (ID: 17809413/0x010FC005), Lion (ID: 17809413/0x010FC005)], work=538*
 33: 0x01B6 [0x5B] LOAD_EXT_SCHEDULER: Load scheduler 0xFEFEFE00 with entities [Gimb (ID: 17809422/0x010FC00E), Gimb (ID: 17809422/0x010FC00E)], work=385*
 34: 0x01C5 [0x66] LOAD_EXT_SCHEDULER_MAIN: Load scheduler 0xFEFEFE00 with entities [Koetsu (ID: 17809423/0x010FC00F), Koetsu (ID: 17809423/0x010FC00F)], work=2*
 35: 0x01D4 [0x45] LOAD_SCHEDULED_TASK: Load scheduler "sg01" with entities [LocalPlayer, LocalPlayer], work=[215*, 0*]
 36: 0x01E5 [0x27] REQ_SET(priority=0x10, entity_id=LocalPlayer, tag_num=0x06)
 37: 0x01EC [0x1A] CALL_SUBROUTINE(address=0x39BB)
 38: 0x01EF [0x2A] GET_REQ_LEVEL(level=16, entity_id=LocalPlayer)
 39: 0x01F5 [0x52] END_LOAD_SCHEDULER: End scheduler "sg01" with entities [LocalPlayer, LocalPlayer], work=215*
 40: 0x0204 [0x45] LOAD_SCHEDULED_TASK: Load scheduler "sg02" with entities [LocalPlayer, LocalPlayer], work=[215*, 0*]
 41: 0x0215 [0x27] REQ_SET(priority=0x10, entity_id=Gimb (ID: 17809422/0x010FC00E), tag_num=0x05)
 42: 0x021C [0x1C] WAIT(105* ticks)
 43: 0x021F [0x29] REQ_SET_WAIT(priority=0x10, entity_id=Koetsu (ID: 17809423/0x010FC00F), tag_num=0x05)
 44: 0x0226 [0x79] LocalPlayer looks at Koetsu (ID: 17809423/0x010FC00F) (Basic look)
 45: 0x0230 [0x27] REQ_SET(priority=0x10, entity_id=Koetsu (ID: 17809423/0x010FC00F), tag_num=0x06)
 46: 0x0237 [0x45] LOAD_SCHEDULED_TASK: Load scheduler "sg03" with entities [LocalPlayer, LocalPlayer], work=[215*, 0*]
 47: 0x0248 [0x1C] WAIT(90* ticks)
 48: 0x024B [0x2B] Koetsu (ID: 17809423/0x010FC00F) [10020*]:
    → "Hold it right there, buddy. This ain't no caf<Player>i. What business do you have here?"
 49: 0x0252 [0x23] WAIT_FOR_DIALOG_INTERACTION
 50: 0x0253 [0x2A] GET_REQ_LEVEL(level=16, entity_id=Koetsu (ID: 17809423/0x010FC00F))
 51: 0x0259 [0x2B] Lion (ID: 17809413/0x010FC005) [10021*]:
    → "You finally made it, <Player>."
 52: 0x0260 [0x23] WAIT_FOR_DIALOG_INTERACTION
 53: 0x0261 [0x52] END_LOAD_SCHEDULER: End scheduler "sg03" with entities [LocalPlayer, LocalPlayer], work=215*
 54: 0x0270 [0x27] REQ_SET(priority=0x10, entity_id=Lion (ID: 17809413/0x010FC005), tag_num=0x0C)
 55: 0x0277 [0x4A] Koetsu (ID: 17809423/0x010FC00F) looks at Lion (ID: 17809413/0x010FC005)
 56: 0x0280 [0x79] LocalPlayer looks at Lion (ID: 17809413/0x010FC005) (Basic look)
 57: 0x028A [0x45] LOAD_SCHEDULED_TASK: Load scheduler "sg04" with entities [LocalPlayer, LocalPlayer], work=[215*, 0*]
 58: 0x029B [0x2A] GET_REQ_LEVEL(level=16, entity_id=Lion (ID: 17809413/0x010FC005))
 59: 0x02A1 [0x1C] WAIT(5* ticks)
 60: 0x02A4 [0x45] LOAD_SCHEDULED_TASK: Load scheduler "sg06" with entities [LocalPlayer, LocalPlayer], work=[215*, 0*]
 61: 0x02B5 [0x2B] Koetsu (ID: 17809423/0x010FC00F) [10022*]:
    → "Lion!"
 62: 0x02BC [0x23] WAIT_FOR_DIALOG_INTERACTION
 63: 0x02BD [0x27] REQ_SET(priority=0x10, entity_id=Lion (ID: 17809413/0x010FC005), tag_num=0x0D)
 64: 0x02C4 [0x45] LOAD_SCHEDULED_TASK: Load scheduler "sg05" with entities [LocalPlayer, LocalPlayer], work=[215*, 0*]
 65: 0x02D5 [0x2A] GET_REQ_LEVEL(level=16, entity_id=Lion (ID: 17809413/0x010FC005))
 66: 0x02DB [0x1C] WAIT(15* ticks)
 67: 0x02DE [0x5B] LOAD_EXT_SCHEDULER: Load scheduler "tl50" with entities [Lion (ID: 17809413/0x010FC005), Lion (ID: 17809413/0x010FC005)], work=538*
 68: 0x02ED [0x2B] Lion (ID: 17809413/0x010FC005) [10023*]:
    → "You don't have to worry about <Player>. [He's/She's] okay. Anyway, I thought you guys welcomed adventurers."
 69: 0x02F4 [0x23] WAIT_FOR_DIALOG_INTERACTION
 70: 0x02F5 [0x66] LOAD_EXT_SCHEDULER_MAIN: Load scheduler "ksk0" with entities [Koetsu (ID: 17809423/0x010FC00F), Koetsu (ID: 17809423/0x010FC00F)], work=2*
 71: 0x0304 [0x2B] Koetsu (ID: 17809423/0x010FC00F) [10024*]:
    → "Understood."
 72: 0x030B [0x23] WAIT_FOR_DIALOG_INTERACTION
 73: 0x030C [0x53] WAIT_SCHEDULER_TASK: Wait for scheduler "ksk0" with entities [Koetsu (ID: 17809423/0x010FC00F), Koetsu (ID: 17809423/0x010FC00F)]
 74: 0x0319 [0x27] REQ_SET(priority=0x10, entity_id=Koetsu (ID: 17809423/0x010FC00F), tag_num=0x07)
 75: 0x0320 [0x1C] WAIT(45* ticks)
 76: 0x0323 [0x4A] Lion (ID: 17809413/0x010FC005) looks at LocalPlayer
 77: 0x032C [0x1C] WAIT(60* ticks)
 78: 0x032F [0x52] END_LOAD_SCHEDULER: End scheduler "sg05" with entities [LocalPlayer, LocalPlayer], work=215*
 79: 0x033E [0x5B] LOAD_EXT_SCHEDULER: Load scheduler "tl50" with entities [Lion (ID: 17809413/0x010FC005), Lion (ID: 17809413/0x010FC005)], work=538*
 80: 0x034D [0x2B] Lion (ID: 17809413/0x010FC005) [10025*]:
    → "Well, for starters, I should welcome you to Norg."
 81: 0x0354 [0x23] WAIT_FOR_DIALOG_INTERACTION
 82: 0x0355 [0x53] WAIT_SCHEDULER_TASK: Wait for scheduler "tl50" with entities [Lion (ID: 17809413/0x010FC005), Lion (ID: 17809413/0x010FC005)]
 83: 0x0362 [0x45] LOAD_SCHEDULED_TASK: Load scheduler "sg07" with entities [LocalPlayer, LocalPlayer], work=[215*, 0*]
 84: 0x0373 [0x5B] LOAD_EXT_SCHEDULER: Load scheduler "tk20" with entities [Lion (ID: 17809413/0x010FC005), Lion (ID: 17809413/0x010FC005)], work=538*
 85: 0x0382 [0x1C] WAIT(30* ticks)
 86: 0x0385 [0x2B] Lion (ID: 17809413/0x010FC005) [10026*]:
    → "However, as much as I'd like to sit down and talk about old times over a bottle of 813 Rolanberry, we must first face our new problem with Kam'lanaut."
 87: 0x038C [0x23] WAIT_FOR_DIALOG_INTERACTION
 88: 0x038D [0x45] LOAD_SCHEDULED_TASK: Load scheduler "sg08" with entities [LocalPlayer, LocalPlayer], work=[215*, 0*]
 89: 0x039E [0x5B] LOAD_EXT_SCHEDULER: Load scheduler "tk21" with entities [Lion (ID: 17809413/0x010FC005), Lion (ID: 17809413/0x010FC005)], work=538*
 90: 0x03AD [0x2B] Lion (ID: 17809413/0x010FC005) [10027*]:
    → "You mean you don't remember what happened at Castle Zvahl?"
 91: 0x03B4 [0x23] WAIT_FOR_DIALOG_INTERACTION
 92: 0x03B5 [0x6E] LocalPlayer uses emote 18*
 93: 0x03BC [0x99] Wait for LocalPlayer animation to complete
 94: 0x03C1 [0x5D] SET_MUSIC_VOLUME(volume=0*, fade_time=90*)
 95: 0x03C6 [0x45] LOAD_SCHEDULED_TASK: Load scheduler "blon" with entities [LocalPlayer, LocalPlayer], work=[200*, 0*]
 96: 0x03D7 [0x1C] WAIT(45* ticks)
 97: 0x03DA [0x52] END_LOAD_SCHEDULER: End scheduler "sg08" with entities [LocalPlayer, LocalPlayer], work=215*
 98: 0x03E9 [0x45] LOAD_SCHEDULED_TASK: Load scheduler "sg35" with entities [LocalPlayer, LocalPlayer], work=[215*, 0*]
 99: 0x03FA [0x55] WAIT_LOAD_SCHEDULER: Wait for scheduler "sg35" with entities [LocalPlayer, LocalPlayer], work=215*
100: 0x0409 [0x6C] FADE_ENTITY_COLOR(entity_id=LocalPlayer, end_alpha=0*, fade_time=1*)
101: 0x0412 [0x45] LOAD_SCHEDULED_TASK: Load scheduler "sg36" with entities [LocalPlayer, LocalPlayer], work=[215*, 0*]
102: 0x0423 [0x5B] LOAD_EXT_SCHEDULER: Load scheduler "tl50" with entities [Lion (ID: 17809413/0x010FC005), Lion (ID: 17809413/0x010FC005)], work=538*
103: 0x0432 [0x2B] Lion (ID: 17809413/0x010FC005) [10028*]:
    → ".......<Player>...... Are yo......lright......<Player>......"
104: 0x0439 [0x23] WAIT_FOR_DIALOG_INTERACTION
105: 0x043A [0x1A] CALL_SUBROUTINE(address=0x3A1E)
106: 0x043D [0x1C] WAIT(15* ticks)
107: 0x0440 [0x6C] FADE_ENTITY_COLOR(entity_id=LocalPlayer, end_alpha=128*, fade_time=1*)
108: 0x0449 [0x7B] Lion (ID: 17809413/0x010FC005) stops talking
109: 0x044E [0x45] LOAD_SCHEDULED_TASK: Load scheduler "blof" with entities [LocalPlayer, LocalPlayer], work=[200*, 0*]
110: 0x045F [0x52] END_LOAD_SCHEDULER: End scheduler "sg36" with entities [LocalPlayer, LocalPlayer], work=215*
111: 0x046E [0x7B] LocalPlayer stops talking
112: 0x0473 [0x7B] Lion (ID: 17809413/0x010FC005) stops talking
113: 0x0478 [0x34] LOAD_UNLOAD_ZONE(zone_id=165*)
114: 0x047B [0x77] SET_EVENT_TIME_WEATHER(hour=18*, weather=18*)
115: 0x0480 [0x27] REQ_SET(priority=0x10, entity_id=Zeid (ID: 17809482/0x010FC04A), tag_num=0x02)
116: 0x0487 [0x27] REQ_SET(priority=0x10, entity_id=Raogrimm (ID: 17809483/0x010FC04B), tag_num=0x02)
117: 0x048E [0x27] REQ_SET(priority=0x10, entity_id=Eald'narche (ID: 17809484/0x010FC04C), tag_num=0x02)
118: 0x0495 [0x27] REQ_SET(priority=0x10, entity_id=Kam'lanaut (ID: 17809485/0x010FC04D), tag_num=0x02)
119: 0x049C [0x5B] LOAD_EXT_SCHEDULER: Load scheduler 0xFEFEFE00 with entities [Zeid (ID: 17809482/0x010FC04A), Zeid (ID: 17809482/0x010FC04A)], work=243*
120: 0x04AB [0x5B] LOAD_EXT_SCHEDULER: Load scheduler 0xFEFEFE00 with entities [Zeid (ID: 17809482/0x010FC04A), Zeid (ID: 17809482/0x010FC04A)], work=520*
121: 0x04BA [0x5B] LOAD_EXT_SCHEDULER: Load scheduler 0xFEFEFE00 with entities [Raogrimm (ID: 17809483/0x010FC04B), Raogrimm (ID: 17809483/0x010FC04B)], work=380*
122: 0x04C9 [0x5B] LOAD_EXT_SCHEDULER: Load scheduler 0xFEFEFE00 with entities [Raogrimm (ID: 17809483/0x010FC04B), Raogrimm (ID: 17809483/0x010FC04B)], work=382*
123: 0x04D8 [0x5B] LOAD_EXT_SCHEDULER: Load scheduler 0xFEFEFE00 with entities [Raogrimm (ID: 17809483/0x010FC04B), Raogrimm (ID: 17809483/0x010FC04B)], work=525*
124: 0x04E7 [0x5B] LOAD_EXT_SCHEDULER: Load scheduler 0xFEFEFE00 with entities [Kam'lanaut (ID: 17809485/0x010FC04D), Kam'lanaut (ID: 17809485/0x010FC04D)], work=609*
125: 0x04F6 [0x5B] LOAD_EXT_SCHEDULER: Load scheduler 0xFEFEFE00 with entities [Kam'lanaut (ID: 17809485/0x010FC04D), Kam'lanaut (ID: 17809485/0x010FC04D)], work=512*
126: 0x0505 [0x5B] LOAD_EXT_SCHEDULER: Load scheduler 0xFEFEFE00 with entities [Eald'narche (ID: 17809484/0x010FC04C), Eald'narche (ID: 17809484/0x010FC04C)], work=515*
127: 0x0514 [0x5B] LOAD_EXT_SCHEDULER: Load scheduler 0xFEFEFE00 with entities [Eald'narche (ID: 17809484/0x010FC04C), Eald'narche (ID: 17809484/0x010FC04C)], work=516*
128: 0x0523 [0x5B] LOAD_EXT_SCHEDULER: Load scheduler 0xFEFEFE00 with entities [Zeid (ID: 17809482/0x010FC04A), Zeid (ID: 17809482/0x010FC04A)], work=524*
129: 0x0532 [0x5B] LOAD_EXT_SCHEDULER: Load scheduler 0xFEFEFE00 with entities [Zeid (ID: 17809482/0x010FC04A), Zeid (ID: 17809482/0x010FC04A)], work=530*
130: 0x0541 [0x5B] LOAD_EXT_SCHEDULER: Load scheduler 0xFEFEFE00 with entities [Kam'lanaut (ID: 17809485/0x010FC04D), Kam'lanaut (ID: 17809485/0x010FC04D)], work=513*
131: 0x0550 [0x5B] LOAD_EXT_SCHEDULER: Load scheduler 0xFEFEFE00 with entities [Kam'lanaut (ID: 17809485/0x010FC04D), Kam'lanaut (ID: 17809485/0x010FC04D)], work=589*
132: 0x055F [0x5B] LOAD_EXT_SCHEDULER: Load scheduler 0xFEFEFE00 with entities [KnightTar (ID: 17809488/0x010FC050), KnightTar (ID: 17809488/0x010FC050)], work=599*
133: 0x056E [0x5B] LOAD_EXT_SCHEDULER: Load scheduler 0xFEFEFE00 with entities [KnightElv (ID: 17809487/0x010FC04F), KnightElv (ID: 17809487/0x010FC04F)], work=600*
134: 0x057D [0x5B] LOAD_EXT_SCHEDULER: Load scheduler 0xFEFEFE00 with entities [KnightHum (ID: 17809486/0x010FC04E), KnightHum (ID: 17809486/0x010FC04E)], work=601*
135: 0x058C [0x5B] LOAD_EXT_SCHEDULER: Load scheduler 0xFEFEFE00 with entities [Raogrimm (ID: 17809483/0x010FC04B), Raogrimm (ID: 17809483/0x010FC04B)], work=526*
136: 0x059B [0x5B] LOAD_EXT_SCHEDULER: Load scheduler 0xFEFEFE00 with entities [Lion (ID: 17809413/0x010FC005), Lion (ID: 17809413/0x010FC005)], work=537*
137: 0x05AA [0x62] LOAD_EVENT_SCHEDULER: Load scheduler 0xFEFEFE00 with entities [KnightHum (ID: 17809486/0x010FC04E), KnightHum (ID: 17809486/0x010FC04E)], work=[60*, 0*]
138: 0x05BB [0x62] LOAD_EVENT_SCHEDULER: Load scheduler 0xFEFEFE00 with entities [KnightElv (ID: 17809487/0x010FC04F), KnightElv (ID: 17809487/0x010FC04F)], work=[60*, 0*]
139: 0x05CC [0x62] LOAD_EVENT_SCHEDULER: Load scheduler 0xFEFEFE00 with entities [KnightTar (ID: 17809488/0x010FC050), KnightTar (ID: 17809488/0x010FC050)], work=[60*, 0*]
140: 0x05DD [0x62] LOAD_EVENT_SCHEDULER: Load scheduler 0xFEFEFE00 with entities [KnightMit (ID: 17809489/0x010FC051), KnightMit (ID: 17809489/0x010FC051)], work=[60*, 0*]
141: 0x05EE [0x62] LOAD_EVENT_SCHEDULER: Load scheduler 0xFEFEFE00 with entities [KnightGal (ID: 17809490/0x010FC052), KnightGal (ID: 17809490/0x010FC052)], work=[60*, 0*]
142: 0x05FF [0x62] LOAD_EVENT_SCHEDULER: Load scheduler 0xFEFEFE00 with entities [Kam'lanaut (ID: 17809485/0x010FC04D), Kam'lanaut (ID: 17809485/0x010FC04D)], work=[81*, 0*]
143: 0x0610 [0x62] LOAD_EVENT_SCHEDULER: Load scheduler 0xFEFEFE00 with entities [Zeid (ID: 17809482/0x010FC04A), Zeid (ID: 17809482/0x010FC04A)], work=[80*, 0*]
144: 0x0621 [0x62] LOAD_EVENT_SCHEDULER: Load scheduler 0xFEFEFE00 with entities [Lion (ID: 17809413/0x010FC005), KnightHum (ID: 17809486/0x010FC04E)], work=[72*, 0*]
145: 0x0632 [0x62] LOAD_EVENT_SCHEDULER: Load scheduler 0xFEFEFE00 with entities [Eald'narche (ID: 17809484/0x010FC04C), Eald'narche (ID: 17809484/0x010FC04C)], work=[54*, 0*]
146: 0x0643 [0x62] LOAD_EVENT_SCHEDULER: Load scheduler 0xFEFEFE00 with entities [Kam'lanaut (ID: 17809485/0x010FC04D), Kam'lanaut (ID: 17809485/0x010FC04D)], work=[54*, 0*]
147: 0x0654 [0x62] LOAD_EVENT_SCHEDULER: Load scheduler 0xFEFEFE00 with entities [Shadow Lord (ID: 17809481/0x010FC049), Shadow Lord (ID: 17809481/0x010FC049)], work=[82*, 0*]
148: 0x0665 [0x62] LOAD_EVENT_SCHEDULER: Load scheduler 0xFEFEFE00 with entities [KnightElv (ID: 17809487/0x010FC04F), Shadow Lord (ID: 17809481/0x010FC049)], work=[66*, 0*]
149: 0x0676 [0x62] LOAD_EVENT_SCHEDULER: Load scheduler 0xFEFEFE00 with entities [KnightTar (ID: 17809488/0x010FC050), Shadow Lord (ID: 17809481/0x010FC049)], work=[70*, 0*]
150: 0x0687 [0x62] LOAD_EVENT_SCHEDULER: Load scheduler 0xFEFEFE00 with entities [KnightMit (ID: 17809489/0x010FC051), Shadow Lord (ID: 17809481/0x010FC049)], work=[69*, 0*]
151: 0x0698 [0x62] LOAD_EVENT_SCHEDULER: Load scheduler 0xFEFEFE00 with entities [KnightGal (ID: 17809490/0x010FC052), Shadow Lord (ID: 17809481/0x010FC049)], work=[67*, 0*]
152: 0x06A9 [0x62] LOAD_EVENT_SCHEDULER: Load scheduler 0xFEFEFE00 with entities [KnightHum (ID: 17809486/0x010FC04E), Shadow Lord (ID: 17809481/0x010FC049)], work=[68*, 0*]
153: 0x06BA [0x62] LOAD_EVENT_SCHEDULER: Load scheduler 0xFEFEFE00 with entities [Shadow Lord (ID: 17809481/0x010FC049), Shadow Lord (ID: 17809481/0x010FC049)], work=[73*, 0*]
154: 0x06CB [0x62] LOAD_EVENT_SCHEDULER: Load scheduler 0xFEFEFE00 with entities [Shadow Lord (ID: 17809481/0x010FC049), Shadow Lord (ID: 17809481/0x010FC049)], work=[71*, 0*]
155: 0x06DC [0x62] LOAD_EVENT_SCHEDULER: Load scheduler 0xFEFEFE00 with entities [KnightHum (ID: 17809486/0x010FC04E), KnightHum (ID: 17809486/0x010FC04E)], work=[71*, 0*]
156: 0x06ED [0x62] LOAD_EVENT_SCHEDULER: Load scheduler 0xFEFEFE00 with entities [KnightElv (ID: 17809487/0x010FC04F), KnightElv (ID: 17809487/0x010FC04F)], work=[71*, 0*]
157: 0x06FE [0x62] LOAD_EVENT_SCHEDULER: Load scheduler 0xFEFEFE00 with entities [KnightTar (ID: 17809488/0x010FC050), KnightTar (ID: 17809488/0x010FC050)], work=[71*, 0*]
158: 0x070F [0x62] LOAD_EVENT_SCHEDULER: Load scheduler 0xFEFEFE00 with entities [KnightMit (ID: 17809489/0x010FC051), KnightMit (ID: 17809489/0x010FC051)], work=[71*, 0*]
159: 0x0720 [0x62] LOAD_EVENT_SCHEDULER: Load scheduler 0xFEFEFE00 with entities [KnightGal (ID: 17809490/0x010FC052), KnightGal (ID: 17809490/0x010FC052)], work=[71*, 0*]
160: 0x0731 [0x62] LOAD_EVENT_SCHEDULER: Load scheduler 0xFEFEFE00 with entities [Shadow Lord (ID: 17809481/0x010FC049), Shadow Lord (ID: 17809481/0x010FC049)], work=[21*, 0*]
161: 0x0742 [0x62] LOAD_EVENT_SCHEDULER: Load scheduler 0xFEFEFE00 with entities [Cornelia (ID: 17809491/0x010FC053), Cornelia (ID: 17809491/0x010FC053)], work=[65*, 0*]
162: 0x0753 [0x92] LocalPlayer->Render.Flags3 ^= 0x01
163: 0x0759 [0x92] Shadow Lord (ID: 17809481/0x010FC049)->Render.Flags3 ^= 0x01
164: 0x075F [0x92] Zeid (ID: 17809482/0x010FC04A)->Render.Flags3 ^= 0x01
165: 0x0765 [0x92] Raogrimm (ID: 17809483/0x010FC04B)->Render.Flags3 ^= 0x01
166: 0x076B [0x92] Lion (ID: 17809413/0x010FC005)->Render.Flags3 ^= 0x01
167: 0x0771 [0x92] Eald'narche (ID: 17809484/0x010FC04C)->Render.Flags3 ^= 0x01
168: 0x0777 [0x92] Kam'lanaut (ID: 17809485/0x010FC04D)->Render.Flags3 ^= 0x01
169: 0x077D [0x92] KnightHum (ID: 17809486/0x010FC04E)->Render.Flags3 ^= 0x01
170: 0x0783 [0x92] KnightElv (ID: 17809487/0x010FC04F)->Render.Flags3 ^= 0x01
171: 0x0789 [0x92] KnightTar (ID: 17809488/0x010FC050)->Render.Flags3 ^= 0x01
172: 0x078F [0x92] KnightMit (ID: 17809489/0x010FC051)->Render.Flags3 ^= 0x01
173: 0x0795 [0x92] KnightGal (ID: 17809490/0x010FC052)->Render.Flags3 ^= 0x01
174: 0x079B [0x27] REQ_SET(priority=0x10, entity_id=LocalPlayer, tag_num=0x0E)
175: 0x07A2 [0x27] REQ_SET(priority=0x10, entity_id=Zeid (ID: 17809482/0x010FC04A), tag_num=0x0A)
176: 0x07A9 [0x27] REQ_SET(priority=0x10, entity_id=Raogrimm (ID: 17809483/0x010FC04B), tag_num=0x0A)
177: 0x07B0 [0x27] REQ_SET(priority=0x10, entity_id=Eald'narche (ID: 17809484/0x010FC04C), tag_num=0x0A)
178: 0x07B7 [0x27] REQ_SET(priority=0x10, entity_id=Kam'lanaut (ID: 17809485/0x010FC04D), tag_num=0x0A)
179: 0x07BE [0x1A] CALL_SUBROUTINE(address=0x399A)
180: 0x07C1 [0x1C] WAIT(15* ticks)
181: 0x07C4 [0x45] LOAD_SCHEDULED_TASK: Load scheduler "whi1" with entities [LocalPlayer, LocalPlayer], work=[201*, 0*]
182: 0x07D5 [0x1C] WAIT(30* ticks)
183: 0x07D8 [0x5C] MUSIC_CONTROL: Set Idle (Day) music to song 160*
184: 0x07DC [0x5C] MUSIC_CONTROL: Set Idle (Night) music to song 160*
185: 0x07E0 [0x5C] MUSIC_CONTROL: Set Combat (Solo) music to song 160*
186: 0x07E4 [0x5C] MUSIC_CONTROL: Set Combat (Party) music to song 160*
187: 0x07E8 [0x5D] SET_MUSIC_VOLUME(volume=0*, fade_time=1*)
188: 0x07ED [0x9A] WAIT_MUSIC_SERVER()
189: 0x07EE [0x5D] SET_MUSIC_VOLUME(volume=96*, fade_time=240*)
190: 0x07F3 [0x5B] LOAD_EXT_SCHEDULER: Load scheduler "yot0" with entities [Raogrimm (ID: 17809483/0x010FC04B), Raogrimm (ID: 17809483/0x010FC04B)], work=382*
191: 0x0802 [0x48] [System] [10104*]:
    → ""
192: 0x0805 [0x23] WAIT_FOR_DIALOG_INTERACTION
193: 0x0806 [0x48] [System] [10029*]:
    → "It all began with a stone, or so the legend says."
194: 0x0809 [0x23] WAIT_FOR_DIALOG_INTERACTION
195: 0x080A [0x48] [System] [10030*]:
    → "In ages past, a sentient jewel, enormous and beautiful, banished the darkness. Its many-colored light filled the world with life and brought forth mighty gods."
196: 0x080D [0x23] WAIT_FOR_DIALOG_INTERACTION
197: 0x080E [0x48] [System] [10031*]:
    → "Bathed in that light, the world entered an age of bliss until, after a time, the gods fell into slumber. That world was called Vana'diel."
198: 0x0811 [0x23] WAIT_FOR_DIALOG_INTERACTION
199: 0x0812 [0x48] [System] [10032*]:
    → "The legend goes on to say... From the darkest depths of the earth the Warriors of the Crystal rose..."
200: 0x0815 [0x23] WAIT_FOR_DIALOG_INTERACTION
201: 0x0816 [0x48] [System] [10104*]:
    → ""
202: 0x0819 [0x23] WAIT_FOR_DIALOG_INTERACTION
203: 0x081A [0x45] LOAD_SCHEDULED_TASK: Load scheduler "sps1" with entities [LocalPlayer, LocalPlayer], work=[195*, 0*]
204: 0x082B [0x45] LOAD_SCHEDULED_TASK: Load scheduler "fdi2" with entities [LocalPlayer, LocalPlayer], work=[200*, 0*]
205: 0x083C [0x27] REQ_SET(priority=0x10, entity_id=Zeid (ID: 17809482/0x010FC04A), tag_num=0x0B)
206: 0x0843 [0x1C] WAIT(15* ticks)
207: 0x0846 [0x27] REQ_SET(priority=0x10, entity_id=LocalPlayer, tag_num=0x0F)
208: 0x084D [0x2A] GET_REQ_LEVEL(level=16, entity_id=Zeid (ID: 17809482/0x010FC04A))
209: 0x0853 [0x5B] LOAD_EXT_SCHEDULER: Load scheduler "hiz0" with entities [Zeid (ID: 17809482/0x010FC04A), Zeid (ID: 17809482/0x010FC04A)], work=243*
210: 0x0862 [0x53] WAIT_SCHEDULER_TASK: Wait for scheduler "hiz0" with entities [Zeid (ID: 17809482/0x010FC04A), Zeid (ID: 17809482/0x010FC04A)]
211: 0x086F [0x2B] Zeid (ID: 17809482/0x010FC04A) [10033*]:
    → "Do you remember?"
212: 0x0876 [0x23] WAIT_FOR_DIALOG_INTERACTION
213: 0x0877 [0x2B] Raogrimm (ID: 17809483/0x010FC04B) [10034*]:
    → "Yes... I do now."
214: 0x087E [0x23] WAIT_FOR_DIALOG_INTERACTION
215: 0x087F [0x66] LOAD_EXT_SCHEDULER_MAIN: Load scheduler "rgm0" with entities [Raogrimm (ID: 17809483/0x010FC04B), Raogrimm (ID: 17809483/0x010FC04B)], work=63*
216: 0x088E [0x53] WAIT_SCHEDULER_TASK: Wait for scheduler "rgm0" with entities [Raogrimm (ID: 17809483/0x010FC04B), Raogrimm (ID: 17809483/0x010FC04B)]
217: 0x089B [0x52] END_LOAD_SCHEDULER: End scheduler "sps1" with entities [LocalPlayer, LocalPlayer], work=195*
218: 0x08AA [0x45] LOAD_SCHEDULED_TASK: Load scheduler "sps2" with entities [LocalPlayer, LocalPlayer], work=[195*, 0*]
219: 0x08BB [0x5B] LOAD_EXT_SCHEDULER: Load scheduler "hiz1" with entities [Zeid (ID: 17809482/0x010FC04A), Zeid (ID: 17809482/0x010FC04A)], work=243*
220: 0x08CA [0x53] WAIT_SCHEDULER_TASK: Wait for scheduler "hiz1" with entities [Zeid (ID: 17809482/0x010FC04A), Zeid (ID: 17809482/0x010FC04A)]
221: 0x08D7 [0x2B] Zeid (ID: 17809482/0x010FC04A) [10035*]:
    → "Raogrimm, it is good to have you back. How has all this come to be?"
222: 0x08DE [0x23] WAIT_FOR_DIALOG_INTERACTION
223: 0x08DF [0x66] LOAD_EXT_SCHEDULER_MAIN: Load scheduler "rgm1" with entities [Raogrimm (ID: 17809483/0x010FC04B), Raogrimm (ID: 17809483/0x010FC04B)], work=63*
224: 0x08EE [0x1C] WAIT(15* ticks)
225: 0x08F1 [0x2B] Raogrimm (ID: 17809483/0x010FC04B) [10036*]:
    → "As you know, I was the Talekeeper of the Galka--the keeper of our race's memories. But there was so much pain, so much anger..."
226: 0x08F8 [0x23] WAIT_FOR_DIALOG_INTERACTION
227: 0x08F9 [0x2B] Raogrimm (ID: 17809483/0x010FC04B) [10037*]:
    → "I let myself become trapped in a dark abyss of swirling rage and madness..."
228: 0x0900 [0x23] WAIT_FOR_DIALOG_INTERACTION
229: 0x0901 [0x53] WAIT_SCHEDULER_TASK: Wait for scheduler "rgm1" with entities [Raogrimm (ID: 17809483/0x010FC04B), Raogrimm (ID: 17809483/0x010FC04B)]
230: 0x090E [0x7C] Zeid (ID: 17809482/0x010FC04A)->Render.Flags2 |= 0x00
231: 0x0914 [0x2B] Zeid (ID: 17809482/0x010FC04A) [10038*]:
    → "Raogrimm..."
232: 0x091B [0x23] WAIT_FOR_DIALOG_INTERACTION
233: 0x091C [0x7C] Zeid (ID: 17809482/0x010FC04A)->Render.Flags2 |= 0x01
234: 0x0922 [0x81] SET_ENTITY_BLINKING(blink_flag=0x00, entity=Raogrimm (ID: 17809483/0x010FC04B))
235: 0x0928 [0x66] LOAD_EXT_SCHEDULER_MAIN: Load scheduler "rgm2" with entities [Raogrimm (ID: 17809483/0x010FC04B), Raogrimm (ID: 17809483/0x010FC04B)], work=63*
236: 0x0937 [0x52] END_LOAD_SCHEDULER: End scheduler "sps2" with entities [LocalPlayer, LocalPlayer], work=195*
237: 0x0946 [0x45] LOAD_SCHEDULED_TASK: Load scheduler "sps3" with entities [LocalPlayer, LocalPlayer], work=[195*, 0*]
238: 0x0957 [0x2B] Raogrimm (ID: 17809483/0x010FC04B) [10039*]:
    → "People are capable of kindness beyond angels, yet we also commit sins that would put a demon to shame..."
239: 0x095E [0x23] WAIT_FOR_DIALOG_INTERACTION
240: 0x095F [0x2B] Raogrimm (ID: 17809483/0x010FC04B) [10040*]:
    → "We all stand precariously on the edge between darkness and light... And when we fall, we are greeted by only madness and chaos."
241: 0x0966 [0x23] WAIT_FOR_DIALOG_INTERACTION
242: 0x0967 [0x53] WAIT_SCHEDULER_TASK: Wait for scheduler "rgm2" with entities [Raogrimm (ID: 17809483/0x010FC04B), Raogrimm (ID: 17809483/0x010FC04B)]
243: 0x0974 [0x5D] SET_MUSIC_VOLUME(volume=0*, fade_time=180*)
244: 0x0979 [0x66] LOAD_EXT_SCHEDULER_MAIN: Load scheduler "rgm3" with entities [Raogrimm (ID: 17809483/0x010FC04B), Raogrimm (ID: 17809483/0x010FC04B)], work=63*
245: 0x0988 [0x2B] Raogrimm (ID: 17809483/0x010FC04B) [10041*]:
    → "And so I have fallen..."
246: 0x098F [0x23] WAIT_FOR_DIALOG_INTERACTION
247: 0x0990 [0x53] WAIT_SCHEDULER_TASK: Wait for scheduler "rgm3" with entities [Raogrimm (ID: 17809483/0x010FC04B), Raogrimm (ID: 17809483/0x010FC04B)]
248: 0x099D [0x1A] CALL_SUBROUTINE(address=0x3A1E)
249: 0x09A0 [0x1C] WAIT(60* ticks)
250: 0x09A3 [0x5C] MUSIC_CONTROL: Set Idle (Day) music to song 127*
251: 0x09A7 [0x5C] MUSIC_CONTROL: Set Idle (Night) music to song 127*
252: 0x09AB [0x5C] MUSIC_CONTROL: Set Combat (Solo) music to song 127*
253: 0x09AF [0x5C] MUSIC_CONTROL: Set Combat (Party) music to song 127*
254: 0x09B3 [0x5D] SET_MUSIC_VOLUME(volume=0*, fade_time=1*)
255: 0x09B8 [0x9A] WAIT_MUSIC_SERVER()
256: 0x09B9 [0x5D] SET_MUSIC_VOLUME(volume=96*, fade_time=180*)
257: 0x09BE [0x45] LOAD_SCHEDULED_TASK: Load scheduler "s307" with entities [LocalPlayer, LocalPlayer], work=[195*, 0*]
258: 0x09CF [0x5B] LOAD_EXT_SCHEDULER: Load scheduler "hk01" with entities [Kam'lanaut (ID: 17809485/0x010FC04D), Kam'lanaut (ID: 17809485/0x010FC04D)], work=609*
259: 0x09DE [0x45] LOAD_SCHEDULED_TASK: Load scheduler "se01" with entities [LocalPlayer, LocalPlayer], work=[195*, 0*]
260: 0x09EF [0x1A] CALL_SUBROUTINE(address=0x39FD)
261: 0x09F2 [0x7B] LocalPlayer stops talking
262: 0x09F7 [0x81] SET_ENTITY_BLINKING(blink_flag=0x01, entity=Raogrimm (ID: 17809483/0x010FC04B))
263: 0x09FD [0x6B] STOP_AND_IDLE: Raogrimm (ID: 17809483/0x010FC04B) stops current action and resets to idle (animation="idl0")
264: 0x0A06 [0x79] Zeid (ID: 17809482/0x010FC04A) looks at Kam'lanaut (ID: 17809485/0x010FC04D) (Basic look)
265: 0x0A10 [0x1C] WAIT(150* ticks)
266: 0x0A13 [0x45] LOAD_SCHEDULED_TASK: Load scheduler "blon" with entities [LocalPlayer, LocalPlayer], work=[200*, 0*]
267: 0x0A24 [0x45] LOAD_SCHEDULED_TASK: Load scheduler "se02" with entities [LocalPlayer, LocalPlayer], work=[195*, 0*]
268: 0x0A35 [0x5B] LOAD_EXT_SCHEDULER: Load scheduler "mig0" with entities [Zeid (ID: 17809482/0x010FC04A), Zeid (ID: 17809482/0x010FC04A)], work=520*
269: 0x0A44 [0x5B] LOAD_EXT_SCHEDULER: Load scheduler "mig0" with entities [Raogrimm (ID: 17809483/0x010FC04B), Raogrimm (ID: 17809483/0x010FC04B)], work=525*
270: 0x0A53 [0x4A] LocalPlayer looks at Kam'lanaut (ID: 17809485/0x010FC04D)
271: 0x0A5C [0x55] WAIT_LOAD_SCHEDULER: Wait for scheduler "se02" with entities [LocalPlayer, LocalPlayer], work=195*
272: 0x0A6B [0x45] LOAD_SCHEDULED_TASK: Load scheduler "se03" with entities [LocalPlayer, LocalPlayer], work=[195*, 0*]
273: 0x0A7C [0x1C] WAIT(75* ticks)
274: 0x0A7F [0x45] LOAD_SCHEDULED_TASK: Load scheduler "blof" with entities [LocalPlayer, LocalPlayer], work=[200*, 0*]
275: 0x0A90 [0x5B] LOAD_EXT_SCHEDULER: Load scheduler "hk02" with entities [Kam'lanaut (ID: 17809485/0x010FC04D), Kam'lanaut (ID: 17809485/0x010FC04D)], work=609*
276: 0x0A9F [0x1C] WAIT(150* ticks)
277: 0x0AA2 [0x45] LOAD_SCHEDULED_TASK: Load scheduler "se04" with entities [LocalPlayer, LocalPlayer], work=[195*, 0*]
278: 0x0AB3 [0x2B] Kam'lanaut (ID: 17809485/0x010FC04D) [10042*]:
    → "Quite an interesting show you put on."
279: 0x0ABA [0x23] WAIT_FOR_DIALOG_INTERACTION
280: 0x0ABB [0x52] END_LOAD_SCHEDULER: End scheduler "se04" with entities [LocalPlayer, LocalPlayer], work=195*
281: 0x0ACA [0x27] REQ_SET(priority=0x10, entity_id=LocalPlayer, tag_num=0x10)
282: 0x0AD1 [0x27] REQ_SET(priority=0x10, entity_id=Raogrimm (ID: 17809483/0x010FC04B), tag_num=0x0B)
283: 0x0AD8 [0x45] LOAD_SCHEDULED_TASK: Load scheduler "se05" with entities [LocalPlayer, LocalPlayer], work=[195*, 0*]
284: 0x0AE9 [0x5B] LOAD_EXT_SCHEDULER: Load scheduler "tka0" with entities [Eald'narche (ID: 17809484/0x010FC04C), Eald'narche (ID: 17809484/0x010FC04C)], work=515*
285: 0x0AF8 [0x2B] Eald'narche (ID: 17809484/0x010FC04C) [10043*]:
    → "I don't know. It could have used a little more excitement."
286: 0x0AFF [0x23] WAIT_FOR_DIALOG_INTERACTION
287: 0x0B00 [0x27] REQ_SET(priority=0x10, entity_id=Eald'narche (ID: 17809484/0x010FC04C), tag_num=0x0B)
288: 0x0B07 [0x2B] Eald'narche (ID: 17809484/0x010FC04C) [10044*]:
    → "The Galka can never do anything right."
289: 0x0B0E [0x23] WAIT_FOR_DIALOG_INTERACTION
290: 0x0B0F [0x52] END_LOAD_SCHEDULER: End scheduler "se05" with entities [LocalPlayer, LocalPlayer], work=195*
291: 0x0B1E [0x45] LOAD_SCHEDULED_TASK: Load scheduler "se06" with entities [LocalPlayer, LocalPlayer], work=[195*, 0*]
292: 0x0B2F [0x1C] WAIT(30* ticks)
293: 0x0B32 [0x5B] LOAD_EXT_SCHEDULER: Load scheduler "mig1" with entities [Zeid (ID: 17809482/0x010FC04A), Zeid (ID: 17809482/0x010FC04A)], work=520*
294: 0x0B41 [0x2B] Zeid (ID: 17809482/0x010FC04A) [10045*]:
    → "The Archduke of Jeuno and... What are you two doing here!?"
295: 0x0B48 [0x23] WAIT_FOR_DIALOG_INTERACTION
296: 0x0B49 [0x2A] GET_REQ_LEVEL(level=16, entity_id=Eald'narche (ID: 17809484/0x010FC04C))
297: 0x0B4F [0x45] LOAD_SCHEDULED_TASK: Load scheduler "se07" with entities [LocalPlayer, LocalPlayer], work=[195*, 0*]
298: 0x0B60 [0x94] Eald'narche (ID: 17809484/0x010FC04C)->Render.Flags3 ^= 0x01
299: 0x0B66 [0x94] Kam'lanaut (ID: 17809485/0x010FC04D)->Render.Flags3 ^= 0x01
300: 0x0B6C [0x27] REQ_SET(priority=0x10, entity_id=Eald'narche (ID: 17809484/0x010FC04C), tag_num=0x0C)
301: 0x0B73 [0x27] REQ_SET(priority=0x10, entity_id=Kam'lanaut (ID: 17809485/0x010FC04D), tag_num=0x0B)
302: 0x0B7A [0x5B] LOAD_EXT_SCHEDULER: Load scheduler "twk0" with entities [Kam'lanaut (ID: 17809485/0x010FC04D), Kam'lanaut (ID: 17809485/0x010FC04D)], work=609*
303: 0x0B89 [0x1C] WAIT(90* ticks)
304: 0x0B8C [0x2B] Kam'lanaut (ID: 17809485/0x010FC04D) [10046*]:
    → "We come to reap the seeds that we have sown."
305: 0x0B93 [0x23] WAIT_FOR_DIALOG_INTERACTION
306: 0x0B94 [0x1C] WAIT(180* ticks)
307: 0x0B97 [0x52] END_LOAD_SCHEDULER: End scheduler "se07" with entities [LocalPlayer, LocalPlayer], work=195*
308: 0x0BA6 [0x27] REQ_SET(priority=0x10, entity_id=LocalPlayer, tag_num=0x11)
309: 0x0BAD [0x27] REQ_SET(priority=0x10, entity_id=Raogrimm (ID: 17809483/0x010FC04B), tag_num=0x0C)
310: 0x0BB4 [0x27] REQ_SET(priority=0x10, entity_id=Zeid (ID: 17809482/0x010FC04A), tag_num=0x0C)
311: 0x0BBB [0x45] LOAD_SCHEDULED_TASK: Load scheduler "se08" with entities [LocalPlayer, LocalPlayer], work=[195*, 0*]
312: 0x0BCC [0x5B] LOAD_EXT_SCHEDULER: Load scheduler "mig1" with entities [Zeid (ID: 17809482/0x010FC04A), Zeid (ID: 17809482/0x010FC04A)], work=520*
313: 0x0BDB [0x2B] Kam'lanaut (ID: 17809485/0x010FC04D) [10047*]:
    → "You've performed your duty well, as ignorant as you are."
314: 0x0BE2 [0x23] WAIT_FOR_DIALOG_INTERACTION
315: 0x0BE3 [0x2A] GET_REQ_LEVEL(level=16, entity_id=Eald'narche (ID: 17809484/0x010FC04C))
316: 0x0BE9 [0x94] Eald'narche (ID: 17809484/0x010FC04C)->Render.Flags3 = Flags3  // No change (flag=0)
317: 0x0BEF [0x94] Kam'lanaut (ID: 17809485/0x010FC04D)->Render.Flags3 = Flags3  // No change (flag=0)
318: 0x0BF5 [0x27] REQ_SET(priority=0x10, entity_id=Eald'narche (ID: 17809484/0x010FC04C), tag_num=0x0D)
319: 0x0BFC [0x52] END_LOAD_SCHEDULER: End scheduler "se08" with entities [LocalPlayer, LocalPlayer], work=195*
320: 0x0C0B [0x45] LOAD_SCHEDULED_TASK: Load scheduler "se09" with entities [LocalPlayer, LocalPlayer], work=[195*, 0*]
321: 0x0C1C [0x27] REQ_SET(priority=0x10, entity_id=Kam'lanaut (ID: 17809485/0x010FC04D), tag_num=0x0C)
322: 0x0C23 [0x5B] LOAD_EXT_SCHEDULER: Load scheduler "muk0" with entities [Kam'lanaut (ID: 17809485/0x010FC04D), Kam'lanaut (ID: 17809485/0x010FC04D)], work=609*
323: 0x0C32 [0x1C] WAIT(300* ticks)
324: 0x0C35 [0x45] LOAD_SCHEDULED_TASK: Load scheduler "se10" with entities [LocalPlayer, LocalPlayer], work=[195*, 0*]
325: 0x0C46 [0x2B] Kam'lanaut (ID: 17809485/0x010FC04D) [10048*]:
    → "I can see that we still have a little more cleaning up to do, but that won't be a problem."
326: 0x0C4D [0x23] WAIT_FOR_DIALOG_INTERACTION
327: 0x0C4E [0x45] LOAD_SCHEDULED_TASK: Load scheduler "se11" with entities [LocalPlayer, LocalPlayer], work=[195*, 0*]
328: 0x0C5F [0x55] WAIT_LOAD_SCHEDULER: Wait for scheduler "se11" with entities [LocalPlayer, LocalPlayer], work=195*
329: 0x0C6E [0x27] REQ_SET(priority=0x10, entity_id=Kam'lanaut (ID: 17809485/0x010FC04D), tag_num=0x0D)
330: 0x0C75 [0x27] REQ_SET(priority=0x10, entity_id=Eald'narche (ID: 17809484/0x010FC04C), tag_num=0x0E)
331: 0x0C7C [0x5B] LOAD_EXT_SCHEDULER: Load scheduler "mig2" with entities [Zeid (ID: 17809482/0x010FC04A), Zeid (ID: 17809482/0x010FC04A)], work=520*
332: 0x0C8B [0x2B] Zeid (ID: 17809482/0x010FC04A) [10049*]:
    → "What are you going on about? Give us some answers!"
333: 0x0C92 [0x23] WAIT_FOR_DIALOG_INTERACTION
334: 0x0C93 [0x27] REQ_SET(priority=0x10, entity_id=Raogrimm (ID: 17809483/0x010FC04B), tag_num=0x0D)
335: 0x0C9A [0x45] LOAD_SCHEDULED_TASK: Load scheduler "se12" with entities [LocalPlayer, LocalPlayer], work=[195*, 0*]
336: 0x0CAB [0x5B] LOAD_EXT_SCHEDULER: Load scheduler "tkb0" with entities [Kam'lanaut (ID: 17809485/0x010FC04D), Kam'lanaut (ID: 17809485/0x010FC04D)], work=609*
337: 0x0CBA [0x2B] Kam'lanaut (ID: 17809485/0x010FC04D) [10050*]:
    → "Listen carefully, you sorry excuses for sentient beings. The Crystal Line will soon be revived and the Gate of the Gods will open."
338: 0x0CC1 [0x23] WAIT_FOR_DIALOG_INTERACTION
339: 0x0CC2 [0x2B] Kam'lanaut (ID: 17809485/0x010FC04D) [10051*]:
    → "That is when the true Vana'diel of legend will be reborn."
340: 0x0CC9 [0x23] WAIT_FOR_DIALOG_INTERACTION
341: 0x0CCA [0x5B] LOAD_EXT_SCHEDULER: Load scheduler "tkb1" with entities [Kam'lanaut (ID: 17809485/0x010FC04D), Kam'lanaut (ID: 17809485/0x010FC04D)], work=609*
342: 0x0CD9 [0x1C] WAIT(75* ticks)
343: 0x0CDC [0x52] END_LOAD_SCHEDULER: End scheduler "se12" with entities [LocalPlayer, LocalPlayer], work=195*
344: 0x0CEB [0x45] LOAD_SCHEDULED_TASK: Load scheduler "se13" with entities [LocalPlayer, LocalPlayer], work=[195*, 0*]
345: 0x0CFC [0x5B] LOAD_EXT_SCHEDULER: Load scheduler "tka0" with entities [Eald'narche (ID: 17809484/0x010FC04C), Eald'narche (ID: 17809484/0x010FC04C)], work=515*
