# 17809484 - Ealdnarche

## Common Data

| Field            | Value          |
|------------------|----------------|
| Zone             | Norg (ID: 252) |
| Block Size       | 648 bytes      |
| Total Events     | 23             |
| References Count | 49             |

## List of Events

| Event ID                   | Entrypoint   |   Size |   Instructions |
|----------------------------|--------------|--------|----------------|
| [65535](#event-65535)      | 0x0000       |      1 |              1 |
| [0](#event-0)              | 0x0001       |      1 |              1 |
| [65535.1](#event-655351)   | 0x0002       |     18 |              4 |
| [65535.2](#event-655352)   | 0x0014       |     10 |              2 |
| [65535.3](#event-655353)   | 0x001E       |      9 |              3 |
| [65535.4](#event-655354)   | 0x0027       |      9 |              3 |
| [65535.5](#event-655355)   | 0x0030       |     10 |              2 |
| [65535.6](#event-655356)   | 0x003A       |     10 |              2 |
| [175](#event-175)          | 0x0044       |      1 |              1 |
| [1](#event-1)              | 0x0045       |      1 |              1 |
| [65535.7](#event-655357)   | 0x0046       |     10 |              2 |
| [65535.8](#event-655358)   | 0x0050       |     47 |              5 |
| [65535.9](#event-655359)   | 0x007F       |     35 |              8 |
| [65535.10](#event-6553510) | 0x00A2       |     32 |              7 |
| [65535.11](#event-6553511) | 0x00C2       |     15 |              3 |
| [65535.12](#event-6553512) | 0x00D1       |     10 |              2 |
| [65535.13](#event-6553513) | 0x00DB       |     10 |              2 |
| [65535.14](#event-6553514) | 0x00E5       |     25 |              3 |
| [65535.15](#event-6553515) | 0x00FE       |     25 |              3 |
| [65535.16](#event-6553516) | 0x0117       |     16 |              2 |
| [65535.17](#event-6553517) | 0x0127       |     10 |              2 |
| [65535.18](#event-6553518) | 0x0131       |     10 |              2 |
| [65535.19](#event-6553519) | 0x013B       |     29 |              8 |

## DAT References (imed_data)

|   Index | Hex Value   |   Dec Value |
|---------|-------------|-------------|
|       0 | 0x0000      |           0 |
|       1 | 0x0001      |           1 |
|       2 | 0x0080      |         128 |
|       3 | 0xFFF941B9  |  4294525369 |
|       4 | 0xFFFC55E2  |  4294727138 |
|       5 | 0xFFFD73A8  |  4294800296 |
|       6 | 0x081A      |        2074 |
|       7 | 0x0203      |         515 |
|       8 | 0x0082      |         130 |
|       9 | 0xFFF934F0  |  4294522096 |
|      10 | 0xFFFC5915  |  4294727957 |
|      11 | 0xFFFD72E1  |  4294800097 |
|      12 | 0x0904      |        2308 |
|      13 | 0x000A      |          10 |
|      14 | 0xFFF91028  |  4294512680 |
|      15 | 0xFFFC6573  |  4294731123 |
|      16 | 0xFFFD7293  |  4294800019 |
|      17 | 0xFFF91CBE  |  4294515902 |
|      18 | 0xFFFC631D  |  4294730525 |
|      19 | 0x05E9      |        1513 |
|      20 | 0xFFF9122B  |  4294513195 |
|      21 | 0xFFFC6B14  |  4294732564 |
|      22 | 0x0207      |         519 |
|      23 | 0x04C9      |        1225 |
|      24 | 0xFFF9116B  |  4294513003 |
|      25 | 0xFFFC6855  |  4294731861 |
|      26 | 0x073B      |        1851 |
|      27 | 0xFFF8F456  |  4294505558 |
|      28 | 0xFFFC53E7  |  4294726631 |
|      29 | 0x06E8      |        1768 |
|      30 | 0xFFF8D9CC  |  4294498764 |
|      31 | 0xFFFC546E  |  4294726766 |
|      32 | 0xFFFD7367  |  4294800231 |
|      33 | 0x080F      |        2063 |
|      34 | 0x0204      |         516 |
|      35 | 0xFFF899B9  |  4294482361 |
|      36 | 0xFFFC5315  |  4294726421 |
|      37 | 0xFFFD6020  |  4294795296 |
|      38 | 0x07F2      |        2034 |
|      39 | 0xFFF88E4A  |  4294479434 |
|      40 | 0xFFFC531F  |  4294726431 |
|      41 | 0xFFFD6021  |  4294795297 |
|      42 | 0x000E      |          14 |
|      43 | 0xFFF89592  |  4294481298 |
|      44 | 0xFFFC52A4  |  4294726308 |
|      45 | 0x0800      |        2048 |
|      46 | 0x000B      |          11 |
|      47 | 0xFFF884AC  |  4294476972 |
|      48 | 0xFFFC527A  |  4294726266 |

## Events

### Event 65535

#### Metadata

| Field        | Value   |
|--------------|---------|
| Entrypoint   | 0x0000  |
| Data Size    | 1 bytes |
| Instructions | 1       |

```
      00 01 02 03 04 05 06 07  08 09 0A 0B 0C 0D 0E 0F
      -- -- -- -- -- -- -- --  -- -- -- -- -- -- -- --
0000: 00                                                .               
```

#### Opcodes

```
  0: 0x0000 [0x00] END_REQSTACK()
```

### Event 0

#### Metadata

| Field        | Value   |
|--------------|---------|
| Entrypoint   | 0x0001  |
| Data Size    | 1 bytes |
| Instructions | 1       |

```
      00 01 02 03 04 05 06 07  08 09 0A 0B 0C 0D 0E 0F
      -- -- -- -- -- -- -- --  -- -- -- -- -- -- -- --
0000:    00                                              .              
```

#### Opcodes

```
  0: 0x0001 [0x00] END_REQSTACK()
```

### Event 65535.1

#### Metadata

| Field        | Value    |
|--------------|----------|
| Entrypoint   | 0x0002   |
| Data Size    | 18 bytes |
| Instructions | 4        |

```
      00 01 02 03 04 05 06 07  08 09 0A 0B 0C 0D 0E 0F
      -- -- -- -- -- -- -- --  -- -- -- -- -- -- -- --
0000:       22 00 2F 00 F8 FF  FF 7F 6C F8 FF FF 7F 00    "./.....l.....
0010: 80 01 80 00                                       ....            
```

#### Opcodes

```
  0: 0x0002 [0x22] ENTITY_HIDE_FLAG(enabled=0x00)
  1: 0x0004 [0x2F] EventEntity->Render.Flags0 &= ~0x80000 // Bit 19
  2: 0x000A [0x6C] FADE_ENTITY_COLOR(entity_id=EventEntity, end_alpha=0*, fade_time=1*)
  3: 0x0013 [0x00] END_REQSTACK()
```

### Event 65535.2

#### Metadata

| Field        | Value    |
|--------------|----------|
| Entrypoint   | 0x0014   |
| Data Size    | 10 bytes |
| Instructions | 2        |

```
      00 01 02 03 04 05 06 07  08 09 0A 0B 0C 0D 0E 0F
      -- -- -- -- -- -- -- --  -- -- -- -- -- -- -- --
0010:             6C F8 FF FF  7F 02 80 01 80 00            l.........  
```

#### Opcodes

```
  0: 0x0014 [0x6C] FADE_ENTITY_COLOR(entity_id=EventEntity, end_alpha=128*, fade_time=1*)
  1: 0x001D [0x00] END_REQSTACK()
```

### Event 65535.3

#### Metadata

| Field        | Value   |
|--------------|---------|
| Entrypoint   | 0x001E  |
| Data Size    | 9 bytes |
| Instructions | 3       |

```
      00 01 02 03 04 05 06 07  08 09 0A 0B 0C 0D 0E 0F
      -- -- -- -- -- -- -- --  -- -- -- -- -- -- -- --
0010:                                            22 00                ".
0020: 2F 00 F8 FF FF 7F 00                              /......         
```

#### Opcodes

```
  0: 0x001E [0x22] ENTITY_HIDE_FLAG(enabled=0x00)
  1: 0x0020 [0x2F] EventEntity->Render.Flags0 &= ~0x80000 // Bit 19
  2: 0x0026 [0x00] END_REQSTACK()
```

### Event 65535.4

#### Metadata

| Field        | Value   |
|--------------|---------|
| Entrypoint   | 0x0027  |
| Data Size    | 9 bytes |
| Instructions | 3       |

```
      00 01 02 03 04 05 06 07  08 09 0A 0B 0C 0D 0E 0F
      -- -- -- -- -- -- -- --  -- -- -- -- -- -- -- --
0020:                      22  01 2F 01 F8 FF FF 7F 00         "./......
```

#### Opcodes

```
  0: 0x0027 [0x22] ENTITY_HIDE_FLAG(enabled=0x01)
  1: 0x0029 [0x2F] EventEntity->Render.Flags0 |= 0x80000 // Bit 19
  2: 0x002F [0x00] END_REQSTACK()
```

### Event 65535.5

#### Metadata

| Field        | Value    |
|--------------|----------|
| Entrypoint   | 0x0030   |
| Data Size    | 10 bytes |
| Instructions | 2        |

```
      00 01 02 03 04 05 06 07  08 09 0A 0B 0C 0D 0E 0F
      -- -- -- -- -- -- -- --  -- -- -- -- -- -- -- --
0030: 6C F8 FF FF 7F 00 80 01  80 00                    l.........      
```

#### Opcodes

```
  0: 0x0030 [0x6C] FADE_ENTITY_COLOR(entity_id=EventEntity, end_alpha=0*, fade_time=1*)
  1: 0x0039 [0x00] END_REQSTACK()
```

### Event 65535.6

#### Metadata

| Field        | Value    |
|--------------|----------|
| Entrypoint   | 0x003A   |
| Data Size    | 10 bytes |
| Instructions | 2        |

```
      00 01 02 03 04 05 06 07  08 09 0A 0B 0C 0D 0E 0F
      -- -- -- -- -- -- -- --  -- -- -- -- -- -- -- --
0030:                                6C F8 FF FF 7F 02            l.....
0040: 80 01 80 00                                       ....            
```

#### Opcodes

```
  0: 0x003A [0x6C] FADE_ENTITY_COLOR(entity_id=EventEntity, end_alpha=128*, fade_time=1*)
  1: 0x0043 [0x00] END_REQSTACK()
```

### Event 175

#### Metadata

| Field        | Value   |
|--------------|---------|
| Entrypoint   | 0x0044  |
| Data Size    | 1 bytes |
| Instructions | 1       |

```
      00 01 02 03 04 05 06 07  08 09 0A 0B 0C 0D 0E 0F
      -- -- -- -- -- -- -- --  -- -- -- -- -- -- -- --
0040:             00                                        .           
```

#### Opcodes

```
  0: 0x0044 [0x00] END_REQSTACK()
```

### Event 1

#### Metadata

| Field        | Value   |
|--------------|---------|
| Entrypoint   | 0x0045  |
| Data Size    | 1 bytes |
| Instructions | 1       |

```
      00 01 02 03 04 05 06 07  08 09 0A 0B 0C 0D 0E 0F
      -- -- -- -- -- -- -- --  -- -- -- -- -- -- -- --
0040:                00                                      .          
```

#### Opcodes

```
  0: 0x0045 [0x00] END_REQSTACK()
```

### Event 65535.7

#### Metadata

| Field        | Value    |
|--------------|----------|
| Entrypoint   | 0x0046   |
| Data Size    | 10 bytes |
| Instructions | 2        |

```
      00 01 02 03 04 05 06 07  08 09 0A 0B 0C 0D 0E 0F
      -- -- -- -- -- -- -- --  -- -- -- -- -- -- -- --
0040:                   37 03  80 04 80 05 80 06 80 00        7.........
```

#### Opcodes

```
  0: 0x0046 [0x37] UPDATE_EVENT_POSITION_AND_DIR: x=-441.927*, z=-240.158*, y=-167.000*, direction=182.3°*
  1: 0x004F [0x00] END_REQSTACK()
```

### Event 65535.8

#### Metadata

| Field        | Value    |
|--------------|----------|
| Entrypoint   | 0x0050   |
| Data Size    | 47 bytes |
| Instructions | 5        |

```
      00 01 02 03 04 05 06 07  08 09 0A 0B 0C 0D 0E 0F
      -- -- -- -- -- -- -- --  -- -- -- -- -- -- -- --
0050: 5B 07 80 4C C0 0F 01 4C  C0 0F 01 74 6B 62 30 1C  [..L...L...tkb0.
0060: 08 80 5B 07 80 4C C0 0F  01 4C C0 0F 01 74 6B 62  ..[..L...L...tkb
0070: 31 53 4C C0 0F 01 4C C0  0F 01 74 6B 62 31 00     1SL...L...tkb1. 
```

#### Opcodes

```
  0: 0x0050 [0x5B] LOAD_EXT_SCHEDULER: Load scheduler "tkb0" with entities [Eald'narche (ID: 17809484/0x010FC04C), Eald'narche (ID: 17809484/0x010FC04C)], work=515*
  1: 0x005F [0x1C] WAIT(130* ticks)
  2: 0x0062 [0x5B] LOAD_EXT_SCHEDULER: Load scheduler "tkb1" with entities [Eald'narche (ID: 17809484/0x010FC04C), Eald'narche (ID: 17809484/0x010FC04C)], work=515*
  3: 0x0071 [0x53] WAIT_SCHEDULER_TASK: Wait for scheduler "tkb1" with entities [Eald'narche (ID: 17809484/0x010FC04C), Eald'narche (ID: 17809484/0x010FC04C)]
  4: 0x007E [0x00] END_REQSTACK()
```

### Event 65535.9

#### Metadata

| Field        | Value    |
|--------------|----------|
| Entrypoint   | 0x007F   |
| Data Size    | 35 bytes |
| Instructions | 8        |

```
      00 01 02 03 04 05 06 07  08 09 0A 0B 0C 0D 0E 0F
      -- -- -- -- -- -- -- --  -- -- -- -- -- -- -- --
0070:                                               61                 a
0080: 00 37 09 80 0A 80 0B 80  0C 80 32 0D 80 1F 00 0E  .7........2.....
0090: 80 0F 80 10 80 1F 01 6F  37 11 80 12 80 0B 80 13  .......o7.......
00A0: 80 00                                             ..              
```

#### Opcodes

```
  0: 0x007F [0x61] EventEntity->Render.Flags2 &= ~0x00000001
  1: 0x0081 [0x37] UPDATE_EVENT_POSITION_AND_DIR: x=-445.200*, z=-239.339*, y=-167.199*, direction=202.8°*
  2: 0x008A [0x32] ExtData[1]->MainSpeed = 10* * 0.1
  3: 0x008D [0x1F] MOVE_ENTITY: EventEntity moves to X=-454.616*, Z=-236.173*, Y=-167.277*
  4: 0x0095 [0x1F] MOVE_ENTITY: Update entity position (mode=1)
  5: 0x0097 [0x6F] WAIT_FRAME_DELAY: Yield until WaitTime reaches zero
  6: 0x0098 [0x37] UPDATE_EVENT_POSITION_AND_DIR: x=-451.394*, z=-236.771*, y=-167.199*, direction=133.0°*
  7: 0x00A1 [0x00] END_REQSTACK()
```

### Event 65535.10

#### Metadata

| Field        | Value    |
|--------------|----------|
| Entrypoint   | 0x00A2   |
| Data Size    | 32 bytes |
| Instructions | 7        |

```
      00 01 02 03 04 05 06 07  08 09 0A 0B 0C 0D 0E 0F
      -- -- -- -- -- -- -- --  -- -- -- -- -- -- -- --
00A0:       61 00 32 0D 80 1F  00 14 80 15 80 0B 80 1F    a.2...........
00B0: 01 6F 5B 16 80 F8 FF FF  7F F8 FF FF 7F 64 6C 32  .o[..........dl2
00C0: 30 00                                             0.              
```

#### Opcodes

```
  0: 0x00A2 [0x61] EventEntity->Render.Flags2 &= ~0x00000001
  1: 0x00A4 [0x32] ExtData[1]->MainSpeed = 10* * 0.1
  2: 0x00A7 [0x1F] MOVE_ENTITY: EventEntity moves to X=-454.101*, Z=-234.732*, Y=-167.199*
  3: 0x00AF [0x1F] MOVE_ENTITY: Update entity position (mode=1)
  4: 0x00B1 [0x6F] WAIT_FRAME_DELAY: Yield until WaitTime reaches zero
  5: 0x00B2 [0x5B] LOAD_EXT_SCHEDULER: Load scheduler "dl20" with entities [EventEntity, EventEntity], work=519*
  6: 0x00C1 [0x00] END_REQSTACK()
```

### Event 65535.11

#### Metadata

| Field        | Value    |
|--------------|----------|
| Entrypoint   | 0x00C2   |
| Data Size    | 15 bytes |
| Instructions | 3        |

```
      00 01 02 03 04 05 06 07  08 09 0A 0B 0C 0D 0E 0F
      -- -- -- -- -- -- -- --  -- -- -- -- -- -- -- --
00C0:       37 14 80 15 80 0B  80 17 80 5E 69 64 6C 30    7........^idl0
00D0: 00                                                .               
```

#### Opcodes

```
  0: 0x00C2 [0x37] UPDATE_EVENT_POSITION_AND_DIR: x=-454.101*, z=-234.732*, y=-167.199*, direction=107.7°*
  1: 0x00CB [0x5E] EventEntity goes idle (kills current action) (animation: "idl0")
  2: 0x00D0 [0x00] END_REQSTACK()
```

### Event 65535.12

#### Metadata

| Field        | Value    |
|--------------|----------|
| Entrypoint   | 0x00D1   |
| Data Size    | 10 bytes |
| Instructions | 2        |

```
      00 01 02 03 04 05 06 07  08 09 0A 0B 0C 0D 0E 0F
      -- -- -- -- -- -- -- --  -- -- -- -- -- -- -- --
00D0:    37 18 80 19 80 0B 80  1A 80 00                  7.........     
```

#### Opcodes

```
  0: 0x00D1 [0x37] UPDATE_EVENT_POSITION_AND_DIR: x=-454.293*, z=-235.435*, y=-167.199*, direction=162.7°*
  1: 0x00DA [0x00] END_REQSTACK()
```

### Event 65535.13

#### Metadata

| Field        | Value    |
|--------------|----------|
| Entrypoint   | 0x00DB   |
| Data Size    | 10 bytes |
| Instructions | 2        |

```
      00 01 02 03 04 05 06 07  08 09 0A 0B 0C 0D 0E 0F
      -- -- -- -- -- -- -- --  -- -- -- -- -- -- -- --
00D0:                                   37 1B 80 1C 80             7....
00E0: 0B 80 1D 80 00                                    .....           
```

#### Opcodes

```
  0: 0x00DB [0x37] UPDATE_EVENT_POSITION_AND_DIR: x=-461.738*, z=-240.665*, y=-167.199*, direction=155.4°*
  1: 0x00E4 [0x00] END_REQSTACK()
```

### Event 65535.14

#### Metadata

| Field        | Value    |
|--------------|----------|
| Entrypoint   | 0x00E5   |
| Data Size    | 25 bytes |
| Instructions | 3        |

```
      00 01 02 03 04 05 06 07  08 09 0A 0B 0C 0D 0E 0F
      -- -- -- -- -- -- -- --  -- -- -- -- -- -- -- --
00E0:                37 1E 80  1F 80 20 80 21 80 5B 22       7.... .!.["
00F0: 80 F8 FF FF 7F F8 FF FF  7F 6B 64 6E 30 00        .........kdn0.  
```

#### Opcodes

```
  0: 0x00E5 [0x37] UPDATE_EVENT_POSITION_AND_DIR: x=-468.532*, z=-240.530*, y=-167.065*, direction=181.3°*
  1: 0x00EE [0x5B] LOAD_EXT_SCHEDULER: Load scheduler "kdn0" with entities [EventEntity, EventEntity], work=516*
  2: 0x00FD [0x00] END_REQSTACK()
```

### Event 65535.15

#### Metadata

| Field        | Value    |
|--------------|----------|
| Entrypoint   | 0x00FE   |
| Data Size    | 25 bytes |
| Instructions | 3        |

```
      00 01 02 03 04 05 06 07  08 09 0A 0B 0C 0D 0E 0F
      -- -- -- -- -- -- -- --  -- -- -- -- -- -- -- --
00F0:                                            37 23                7#
0100: 80 24 80 25 80 26 80 5B  22 80 F8 FF FF 7F F8 FF  .$.%.&.[".......
0110: FF 7F 6B 64 6E 31 00                              ..kdn1.         
```

#### Opcodes

```
  0: 0x00FE [0x37] UPDATE_EVENT_POSITION_AND_DIR: x=-484.935*, z=-240.875*, y=-172.000*, direction=178.8°*
  1: 0x0107 [0x5B] LOAD_EXT_SCHEDULER: Load scheduler "kdn1" with entities [EventEntity, EventEntity], work=516*
  2: 0x0116 [0x00] END_REQSTACK()
```

### Event 65535.16

#### Metadata

| Field        | Value    |
|--------------|----------|
| Entrypoint   | 0x0117   |
| Data Size    | 16 bytes |
| Instructions | 2        |

```
      00 01 02 03 04 05 06 07  08 09 0A 0B 0C 0D 0E 0F
      -- -- -- -- -- -- -- --  -- -- -- -- -- -- -- --
0110:                      5B  22 80 F8 FF FF 7F F8 FF         [".......
0120: FF 7F 6B 64 6E 32 00                              ..kdn2.         
```

#### Opcodes

```
  0: 0x0117 [0x5B] LOAD_EXT_SCHEDULER: Load scheduler "kdn2" with entities [EventEntity, EventEntity], work=516*
  1: 0x0126 [0x00] END_REQSTACK()
```

### Event 65535.17

#### Metadata

| Field        | Value    |
|--------------|----------|
| Entrypoint   | 0x0127   |
| Data Size    | 10 bytes |
| Instructions | 2        |

```
      00 01 02 03 04 05 06 07  08 09 0A 0B 0C 0D 0E 0F
      -- -- -- -- -- -- -- --  -- -- -- -- -- -- -- --
0120:                      37  27 80 28 80 29 80 2A 80         7'.(.).*.
0130: 00                                                .               
```

#### Opcodes

```
  0: 0x0127 [0x37] UPDATE_EVENT_POSITION_AND_DIR: x=-487.862*, z=-240.865*, y=-171.999*, direction=1.2°*
  1: 0x0130 [0x00] END_REQSTACK()
```

### Event 65535.18

#### Metadata

| Field        | Value    |
|--------------|----------|
| Entrypoint   | 0x0131   |
| Data Size    | 10 bytes |
| Instructions | 2        |

```
      00 01 02 03 04 05 06 07  08 09 0A 0B 0C 0D 0E 0F
      -- -- -- -- -- -- -- --  -- -- -- -- -- -- -- --
0130:    37 2B 80 2C 80 29 80  00 80 00                  7+.,.)....     
```

#### Opcodes

```
  0: 0x0131 [0x37] UPDATE_EVENT_POSITION_AND_DIR: x=-485.998*, z=-240.988*, y=-171.999*, direction=0.0°*
  1: 0x013A [0x00] END_REQSTACK()
```

### Event 65535.19

#### Metadata

| Field        | Value    |
|--------------|----------|
| Entrypoint   | 0x013B   |
| Data Size    | 29 bytes |
| Instructions | 8        |

```
      00 01 02 03 04 05 06 07  08 09 0A 0B 0C 0D 0E 0F
      -- -- -- -- -- -- -- --  -- -- -- -- -- -- -- --
0130:                                   61 00 37 2B 80             a.7+.
0140: 2C 80 29 80 2D 80 1C 01  80 32 2E 80 1F 00 2F 80  ,.).-....2..../.
0150: 30 80 29 80 1F 01 6F 00                           0.)...o.        
```

#### Opcodes

```
  0: 0x013B [0x61] EventEntity->Render.Flags2 &= ~0x00000001
  1: 0x013D [0x37] UPDATE_EVENT_POSITION_AND_DIR: x=-485.998*, z=-240.988*, y=-171.999*, direction=180.0°*
  2: 0x0146 [0x1C] WAIT(1* ticks)
  3: 0x0149 [0x32] ExtData[1]->MainSpeed = 11* * 0.1
  4: 0x014C [0x1F] MOVE_ENTITY: EventEntity moves to X=-490.324*, Z=-241.030*, Y=-171.999*
  5: 0x0154 [0x1F] MOVE_ENTITY: Update entity position (mode=1)
  6: 0x0156 [0x6F] WAIT_FRAME_DELAY: Yield until WaitTime reaches zero
  7: 0x0157 [0x00] END_REQSTACK()
```
