# 17809413 - Lion

## Common Data

| Field            | Value          |
|------------------|----------------|
| Zone             | Norg (ID: 252) |
| Block Size       | 1092 bytes     |
| Total Events     | 37             |
| References Count | 64             |

## List of Events

| Event ID                   | Entrypoint   |   Size |   Instructions |
|----------------------------|--------------|--------|----------------|
| [65535](#event-65535)      | 0x0000       |      1 |              1 |
| [0](#event-0)              | 0x0001       |      1 |              1 |
| [65535.1](#event-655351)   | 0x0002       |     18 |              4 |
| [65535.2](#event-655352)   | 0x0014       |     10 |              2 |
| [65535.3](#event-655353)   | 0x001E       |      9 |              3 |
| [65535.4](#event-655354)   | 0x0027       |      9 |              3 |
| [65535.5](#event-655355)   | 0x0030       |     10 |              2 |
| [65535.6](#event-655356)   | 0x003A       |     10 |              2 |
| [175](#event-175)          | 0x0044       |      1 |              1 |
| [1](#event-1)              | 0x0045       |     33 |              6 |
| [2](#event-2)              | 0x0066       |     18 |              4 |
| [3](#event-3)              | 0x0078       |     18 |              4 |
| [65535.7](#event-655357)   | 0x008A       |     30 |              7 |
| [65535.8](#event-655358)   | 0x00A8       |     37 |              8 |
| [65535.9](#event-655359)   | 0x00CD       |     27 |              9 |
| [65535.10](#event-6553510) | 0x00E8       |     20 |              5 |
| [65535.11](#event-6553511) | 0x00FC       |     32 |              8 |
| [65535.12](#event-6553512) | 0x011C       |     36 |              5 |
| [65535.13](#event-6553513) | 0x0140       |     10 |              2 |
| [65535.14](#event-6553514) | 0x014A       |     17 |              6 |
| [65535.15](#event-6553515) | 0x015B       |     14 |              5 |
| [65535.16](#event-6553516) | 0x0169       |     10 |              2 |
| [65535.17](#event-6553517) | 0x0173       |     31 |              9 |
| [65535.18](#event-6553518) | 0x0192       |     25 |              4 |
| [65535.19](#event-6553519) | 0x01AB       |     10 |              2 |
| [65535.20](#event-6553520) | 0x01B5       |     10 |              2 |
| [65535.21](#event-6553521) | 0x01BF       |     10 |              2 |
| [65535.22](#event-6553522) | 0x01C9       |     19 |              3 |
| [65535.23](#event-6553523) | 0x01DC       |     29 |              3 |
| [65535.24](#event-6553524) | 0x01F9       |     19 |              3 |
| [65535.25](#event-6553525) | 0x020C       |     29 |              3 |
| [65535.26](#event-6553526) | 0x0229       |     19 |              3 |
| [65535.27](#event-6553527) | 0x023C       |     29 |              3 |
| [65535.28](#event-6553528) | 0x0259       |     19 |              3 |
| [65535.29](#event-6553529) | 0x026C       |     29 |              3 |
| [290](#event-290)          | 0x0289       |      1 |              1 |
| [65535.30](#event-6553530) | 0x028A       |     22 |              6 |

## DAT References (imed_data)

|   Index | Hex Value   |   Dec Value |
|---------|-------------|-------------|
|       0 | 0x0000      |           0 |
|       1 | 0x0001      |           1 |
|       2 | 0x0080      |         128 |
|       3 | 0xFFFF9BFF  |  4294941695 |
|       4 | 0xFFFF48CC  |  4294920396 |
|       5 | 0x016A      |         362 |
|       6 | 0x01B2      |         434 |
|       7 | 0x1CB3C     |      117564 |
|       8 | 0xFFFFCBFB  |  4294953979 |
|       9 | 0xFFFFE0B7  |  4294959287 |
|      10 | 0x093E      |        2366 |
|      11 | 0x1E0AB     |      123051 |
|      12 | 0xFFFFD56B  |  4294956395 |
|      13 | 0x05DD      |        1501 |
|      14 | 0x000D      |          13 |
|      15 | 0xFFFFA3F4  |  4294943732 |
|      16 | 0xFFFF3E09  |  4294917641 |
|      17 | 0x0157      |         343 |
|      18 | 0xFFFFAA4A  |  4294945354 |
|      19 | 0xFFFF38CC  |  4294916300 |
|      20 | 0x0159      |         345 |
|      21 | 0x02B7      |         695 |
|      22 | 0xFFFFAE69  |  4294946409 |
|      23 | 0xFFFF2E54  |  4294913620 |
|      24 | 0x00F8      |         248 |
|      25 | 0x001E      |          30 |
|      26 | 0x000B      |          11 |
|      27 | 0x1D54B     |      120139 |
|      28 | 0xFFFFCB0D  |  4294953741 |
|      29 | 0x095B      |        2395 |
|      30 | 0x0C97      |        3223 |
|      31 | 0x1DE63     |      122467 |
|      32 | 0xFFFFE0D4  |  4294959316 |
|      33 | 0x06D5      |        1749 |
|      34 | 0x0026      |          38 |
|      35 | 0x1CD3B     |      118075 |
|      36 | 0xFFFFD6A3  |  4294956707 |
|      37 | 0xFFF9480E  |  4294526990 |
|      38 | 0xFFFC5416  |  4294726678 |
|      39 | 0xFFFD7466  |  4294800486 |
|      40 | 0x0800      |        2048 |
|      41 | 0x0219      |         537 |
|      42 | 0xFFF964D2  |  4294534354 |
|      43 | 0xFFFC5A2E  |  4294728238 |
|      44 | 0xFFFD7343  |  4294800195 |
|      45 | 0x0FC1      |        4033 |
|      46 | 0x0028      |          40 |
|      47 | 0xFFF97AF5  |  4294540021 |
|      48 | 0xFFFC5917  |  4294727959 |
|      49 | 0xFFFD73A8  |  4294800296 |
|      50 | 0xFFF9AF14  |  4294553364 |
|      51 | 0xFFFC589D  |  4294727837 |
|      52 | 0xFFFD74A2  |  4294800546 |
|      53 | 0x0274      |         628 |
|      54 | 0xFFFFB179  |  4294947193 |
|      55 | 0xFFFF16CB  |  4294907595 |
|      56 | 0x008B      |         139 |
|      57 | 0x03EF      |        1007 |
|      58 | 0x005F      |          95 |
|      59 | 0x003C      |          60 |
|      60 | 0x0060      |          96 |
|      61 | 0x1AD1B     |      109851 |
|      62 | 0xFFFFC763  |  4294952803 |
|      63 | 0xFFFFE452  |  4294960210 |

## Events

### Event 65535

#### Metadata

| Field        | Value   |
|--------------|---------|
| Entrypoint   | 0x0000  |
| Data Size    | 1 bytes |
| Instructions | 1       |

```
      00 01 02 03 04 05 06 07  08 09 0A 0B 0C 0D 0E 0F
      -- -- -- -- -- -- -- --  -- -- -- -- -- -- -- --
0000: 00                                                .               
```

#### Opcodes

```
  0: 0x0000 [0x00] END_REQSTACK()
```

### Event 0

#### Metadata

| Field        | Value   |
|--------------|---------|
| Entrypoint   | 0x0001  |
| Data Size    | 1 bytes |
| Instructions | 1       |

```
      00 01 02 03 04 05 06 07  08 09 0A 0B 0C 0D 0E 0F
      -- -- -- -- -- -- -- --  -- -- -- -- -- -- -- --
0000:    00                                              .              
```

#### Opcodes

```
  0: 0x0001 [0x00] END_REQSTACK()
```

### Event 65535.1

#### Metadata

| Field        | Value    |
|--------------|----------|
| Entrypoint   | 0x0002   |
| Data Size    | 18 bytes |
| Instructions | 4        |

```
      00 01 02 03 04 05 06 07  08 09 0A 0B 0C 0D 0E 0F
      -- -- -- -- -- -- -- --  -- -- -- -- -- -- -- --
0000:       22 00 2F 00 F8 FF  FF 7F 6C F8 FF FF 7F 00    "./.....l.....
0010: 80 01 80 00                                       ....            
```

#### Opcodes

```
  0: 0x0002 [0x22] ENTITY_HIDE_FLAG(enabled=0x00)
  1: 0x0004 [0x2F] EventEntity->Render.Flags0 &= ~0x80000 // Bit 19
  2: 0x000A [0x6C] FADE_ENTITY_COLOR(entity_id=EventEntity, end_alpha=0*, fade_time=1*)
  3: 0x0013 [0x00] END_REQSTACK()
```

### Event 65535.2

#### Metadata

| Field        | Value    |
|--------------|----------|
| Entrypoint   | 0x0014   |
| Data Size    | 10 bytes |
| Instructions | 2        |

```
      00 01 02 03 04 05 06 07  08 09 0A 0B 0C 0D 0E 0F
      -- -- -- -- -- -- -- --  -- -- -- -- -- -- -- --
0010:             6C F8 FF FF  7F 02 80 01 80 00            l.........  
```

#### Opcodes

```
  0: 0x0014 [0x6C] FADE_ENTITY_COLOR(entity_id=EventEntity, end_alpha=128*, fade_time=1*)
  1: 0x001D [0x00] END_REQSTACK()
```

### Event 65535.3

#### Metadata

| Field        | Value   |
|--------------|---------|
| Entrypoint   | 0x001E  |
| Data Size    | 9 bytes |
| Instructions | 3       |

```
      00 01 02 03 04 05 06 07  08 09 0A 0B 0C 0D 0E 0F
      -- -- -- -- -- -- -- --  -- -- -- -- -- -- -- --
0010:                                            22 00                ".
0020: 2F 00 F8 FF FF 7F 00                              /......         
```

#### Opcodes

```
  0: 0x001E [0x22] ENTITY_HIDE_FLAG(enabled=0x00)
  1: 0x0020 [0x2F] EventEntity->Render.Flags0 &= ~0x80000 // Bit 19
  2: 0x0026 [0x00] END_REQSTACK()
```

### Event 65535.4

#### Metadata

| Field        | Value   |
|--------------|---------|
| Entrypoint   | 0x0027  |
| Data Size    | 9 bytes |
| Instructions | 3       |

```
      00 01 02 03 04 05 06 07  08 09 0A 0B 0C 0D 0E 0F
      -- -- -- -- -- -- -- --  -- -- -- -- -- -- -- --
0020:                      22  01 2F 01 F8 FF FF 7F 00         "./......
```

#### Opcodes

```
  0: 0x0027 [0x22] ENTITY_HIDE_FLAG(enabled=0x01)
  1: 0x0029 [0x2F] EventEntity->Render.Flags0 |= 0x80000 // Bit 19
  2: 0x002F [0x00] END_REQSTACK()
```

### Event 65535.5

#### Metadata

| Field        | Value    |
|--------------|----------|
| Entrypoint   | 0x0030   |
| Data Size    | 10 bytes |
| Instructions | 2        |

```
      00 01 02 03 04 05 06 07  08 09 0A 0B 0C 0D 0E 0F
      -- -- -- -- -- -- -- --  -- -- -- -- -- -- -- --
0030: 6C F8 FF FF 7F 00 80 01  80 00                    l.........      
```

#### Opcodes

```
  0: 0x0030 [0x6C] FADE_ENTITY_COLOR(entity_id=EventEntity, end_alpha=0*, fade_time=1*)
  1: 0x0039 [0x00] END_REQSTACK()
```

### Event 65535.6

#### Metadata

| Field        | Value    |
|--------------|----------|
| Entrypoint   | 0x003A   |
| Data Size    | 10 bytes |
| Instructions | 2        |

```
      00 01 02 03 04 05 06 07  08 09 0A 0B 0C 0D 0E 0F
      -- -- -- -- -- -- -- --  -- -- -- -- -- -- -- --
0030:                                6C F8 FF FF 7F 02            l.....
0040: 80 01 80 00                                       ....            
```

#### Opcodes

```
  0: 0x003A [0x6C] FADE_ENTITY_COLOR(entity_id=EventEntity, end_alpha=128*, fade_time=1*)
  1: 0x0043 [0x00] END_REQSTACK()
```

### Event 175

#### Metadata

| Field        | Value   |
|--------------|---------|
| Entrypoint   | 0x0044  |
| Data Size    | 1 bytes |
| Instructions | 1       |

```
      00 01 02 03 04 05 06 07  08 09 0A 0B 0C 0D 0E 0F
      -- -- -- -- -- -- -- --  -- -- -- -- -- -- -- --
0040:             00                                        .           
```

#### Opcodes

```
  0: 0x0044 [0x00] END_REQSTACK()
```

### Event 1

#### Metadata

| Field        | Value    |
|--------------|----------|
| Entrypoint   | 0x0045   |
| Data Size    | 33 bytes |
| Instructions | 6        |

```
      00 01 02 03 04 05 06 07  08 09 0A 0B 0C 0D 0E 0F
      -- -- -- -- -- -- -- --  -- -- -- -- -- -- -- --
0040:                22 00 2F  00 F8 FF FF 7F 92 01 F8       "./........
0050: FF FF 7F 6C F8 FF FF 7F  00 80 01 80 37 03 80 04  ...l........7...
0060: 80 05 80 06 80 00                                 ......          
```

#### Opcodes

```
  0: 0x0045 [0x22] ENTITY_HIDE_FLAG(enabled=0x00)
  1: 0x0047 [0x2F] EventEntity->Render.Flags0 &= ~0x80000 // Bit 19
  2: 0x004D [0x92] EventEntity->Render.Flags3 ^= 0x01
  3: 0x0053 [0x6C] FADE_ENTITY_COLOR(entity_id=EventEntity, end_alpha=0*, fade_time=1*)
  4: 0x005C [0x37] UPDATE_EVENT_POSITION_AND_DIR: x=-25.601*, z=-46.900*, y=0.362*, direction=38.1°*
  5: 0x0065 [0x00] END_REQSTACK()
```

### Event 2

#### Metadata

| Field        | Value    |
|--------------|----------|
| Entrypoint   | 0x0066   |
| Data Size    | 18 bytes |
| Instructions | 4        |

```
      00 01 02 03 04 05 06 07  08 09 0A 0B 0C 0D 0E 0F
      -- -- -- -- -- -- -- --  -- -- -- -- -- -- -- --
0060:                   22 00  2F 00 F8 FF FF 7F 37 07        "./.....7.
0070: 80 08 80 09 80 0A 80 00                           ........        
```

#### Opcodes

```
  0: 0x0066 [0x22] ENTITY_HIDE_FLAG(enabled=0x00)
  1: 0x0068 [0x2F] EventEntity->Render.Flags0 &= ~0x80000 // Bit 19
  2: 0x006E [0x37] UPDATE_EVENT_POSITION_AND_DIR: x=117.564*, z=-13.317*, y=-8.009*, direction=207.9°*
  3: 0x0077 [0x00] END_REQSTACK()
```

### Event 3

#### Metadata

| Field        | Value    |
|--------------|----------|
| Entrypoint   | 0x0078   |
| Data Size    | 18 bytes |
| Instructions | 4        |

```
      00 01 02 03 04 05 06 07  08 09 0A 0B 0C 0D 0E 0F
      -- -- -- -- -- -- -- --  -- -- -- -- -- -- -- --
0070:                          22 00 2F 00 F8 FF FF 7F          "./.....
0080: 37 0B 80 0C 80 09 80 0D  80 00                    7.........      
```

#### Opcodes

```
  0: 0x0078 [0x22] ENTITY_HIDE_FLAG(enabled=0x00)
  1: 0x007A [0x2F] EventEntity->Render.Flags0 &= ~0x80000 // Bit 19
  2: 0x0080 [0x37] UPDATE_EVENT_POSITION_AND_DIR: x=123.051*, z=-10.901*, y=-8.009*, direction=131.9°*
  3: 0x0089 [0x00] END_REQSTACK()
```

### Event 65535.7

#### Metadata

| Field        | Value    |
|--------------|----------|
| Entrypoint   | 0x008A   |
| Data Size    | 30 bytes |
| Instructions | 7        |

```
      00 01 02 03 04 05 06 07  08 09 0A 0B 0C 0D 0E 0F
      -- -- -- -- -- -- -- --  -- -- -- -- -- -- -- --
0080:                                92 00 F8 FF FF 7F            ......
0090: 6C F8 FF FF 7F 02 80 01  80 32 0E 80 1F 00 0F 80  l........2......
00A0: 10 80 11 80 1F 01 6F 00                           ......o.        
```

#### Opcodes

```
  0: 0x008A [0x92] EventEntity->Render.Flags3 = Flags3  // No change (flag=0)
  1: 0x0090 [0x6C] FADE_ENTITY_COLOR(entity_id=EventEntity, end_alpha=128*, fade_time=1*)
  2: 0x0099 [0x32] ExtData[1]->MainSpeed = 13* * 0.1
  3: 0x009C [0x1F] MOVE_ENTITY: EventEntity moves to X=-23.564*, Z=-49.655*, Y=0.343*
  4: 0x00A4 [0x1F] MOVE_ENTITY: Update entity position (mode=1)
  5: 0x00A6 [0x6F] WAIT_FRAME_DELAY: Yield until WaitTime reaches zero
  6: 0x00A7 [0x00] END_REQSTACK()
```

### Event 65535.8

#### Metadata

| Field        | Value    |
|--------------|----------|
| Entrypoint   | 0x00A8   |
| Data Size    | 37 bytes |
| Instructions | 8        |

```
      00 01 02 03 04 05 06 07  08 09 0A 0B 0C 0D 0E 0F
      -- -- -- -- -- -- -- --  -- -- -- -- -- -- -- --
00A0:                          37 12 80 13 80 14 80 15          7.......
00B0: 80 1C 01 80 79 00 05 C0  0F 01 0F C0 0F 01 32 0E  ....y.........2.
00C0: 80 1F 00 16 80 17 80 18  80 1F 01 6F 00           ...........o.   
```

#### Opcodes

```
  0: 0x00A8 [0x37] UPDATE_EVENT_POSITION_AND_DIR: x=-21.942*, z=-50.996*, y=0.345*, direction=61.1°*
  1: 0x00B1 [0x1C] WAIT(1* ticks)
  2: 0x00B4 [0x79] Lion (ID: 17809413/0x010FC005) looks at Koetsu (ID: 17809423/0x010FC00F) (Basic look)
  3: 0x00BE [0x32] ExtData[1]->MainSpeed = 13* * 0.1
  4: 0x00C1 [0x1F] MOVE_ENTITY: EventEntity moves to X=-20.887*, Z=-53.676*, Y=0.248*
  5: 0x00C9 [0x1F] MOVE_ENTITY: Update entity position (mode=1)
  6: 0x00CB [0x6F] WAIT_FRAME_DELAY: Yield until WaitTime reaches zero
  7: 0x00CC [0x00] END_REQSTACK()
```

### Event 65535.9

#### Metadata

| Field        | Value    |
|--------------|----------|
| Entrypoint   | 0x00CD   |
| Data Size    | 27 bytes |
| Instructions | 9        |

```
      00 01 02 03 04 05 06 07  08 09 0A 0B 0C 0D 0E 0F
      -- -- -- -- -- -- -- --  -- -- -- -- -- -- -- --
00C0:                                         1C 19 80               ...
00D0: 32 1A 80 1F 00 1B 80 1C  80 09 80 1F 01 6F 4B F8  2............oK.
00E0: FF FF 7F 1D 80 6F 70 00                           .....op.        
```

#### Opcodes

```
  0: 0x00CD [0x1C] WAIT(30* ticks)
  1: 0x00D0 [0x32] ExtData[1]->MainSpeed = 11* * 0.1
  2: 0x00D3 [0x1F] MOVE_ENTITY: EventEntity moves to X=120.139*, Z=-13.555*, Y=-8.009*
  3: 0x00DB [0x1F] MOVE_ENTITY: Update entity position (mode=1)
  4: 0x00DD [0x6F] WAIT_FRAME_DELAY: Yield until WaitTime reaches zero
  5: 0x00DE [0x4B] UPDATE_ENTITY_YAW(entity=EventEntity, yaw=13.2°*)
  6: 0x00E5 [0x6F] WAIT_FRAME_DELAY: Yield until WaitTime reaches zero
  7: 0x00E6 [0x70] WAIT_ENTITY_RENDER_FLAG: Wait while EventEntity->Render.Flags3 bit 2 is set (cancel turn if not)
  8: 0x00E7 [0x00] END_REQSTACK()
```

### Event 65535.10

#### Metadata

| Field        | Value    |
|--------------|----------|
| Entrypoint   | 0x00E8   |
| Data Size    | 20 bytes |
| Instructions | 5        |

```
      00 01 02 03 04 05 06 07  08 09 0A 0B 0C 0D 0E 0F
      -- -- -- -- -- -- -- --  -- -- -- -- -- -- -- --
00E0:                          4B 05 C0 0F 01 1E 80 6F          K......o
00F0: 70 79 00 F8 FF FF 7F F0  FF FF 7F 00              py..........    
```

#### Opcodes

```
  0: 0x00E8 [0x4B] UPDATE_ENTITY_YAW(entity=Lion (ID: 17809413/0x010FC005), yaw=17.7°*)
  1: 0x00EF [0x6F] WAIT_FRAME_DELAY: Yield until WaitTime reaches zero
  2: 0x00F0 [0x70] WAIT_ENTITY_RENDER_FLAG: Wait while EventEntity->Render.Flags3 bit 2 is set (cancel turn if not)
  3: 0x00F1 [0x79] EventEntity looks at LocalPlayer (Basic look)
  4: 0x00FB [0x00] END_REQSTACK()
```

### Event 65535.11

#### Metadata

| Field        | Value    |
|--------------|----------|
| Entrypoint   | 0x00FC   |
| Data Size    | 32 bytes |
| Instructions | 8        |

```
      00 01 02 03 04 05 06 07  08 09 0A 0B 0C 0D 0E 0F
      -- -- -- -- -- -- -- --  -- -- -- -- -- -- -- --
00F0:                                      37 1F 80 20              7.. 
0100: 80 09 80 21 80 1C 01 80  32 22 80 1F 00 23 80 24  ...!....2"...#.$
0110: 80 09 80 1F 01 6F 1E 03  C0 0F 01 00              .....o......    
```

#### Opcodes

```
  0: 0x00FC [0x37] UPDATE_EVENT_POSITION_AND_DIR: x=122.467*, z=-7.980*, y=-8.009*, direction=153.7°*
  1: 0x0105 [0x1C] WAIT(1* ticks)
  2: 0x0108 [0x32] ExtData[1]->MainSpeed = 38* * 0.1
  3: 0x010B [0x1F] MOVE_ENTITY: EventEntity moves to X=118.075*, Z=-10.589*, Y=-8.009*
  4: 0x0113 [0x1F] MOVE_ENTITY: Update entity position (mode=1)
  5: 0x0115 [0x6F] WAIT_FRAME_DELAY: Yield until WaitTime reaches zero
  6: 0x0116 [0x1E] EventEntity looks at Gilgamesh (ID: 17809411/0x010FC003) and starts talking
  7: 0x011B [0x00] END_REQSTACK()
```

### Event 65535.12

#### Metadata

| Field        | Value    |
|--------------|----------|
| Entrypoint   | 0x011C   |
| Data Size    | 36 bytes |
| Instructions | 5        |

```
      00 01 02 03 04 05 06 07  08 09 0A 0B 0C 0D 0E 0F
      -- -- -- -- -- -- -- --  -- -- -- -- -- -- -- --
0110:                                      6C F8 FF FF              l...
0120: 7F 00 80 01 80 33 01 37  25 80 26 80 27 80 28 80  .....3.7%.&.'.(.
0130: 5B 29 80 05 C0 0F 01 05  C0 0F 01 7A 30 30 30 00  [).........z000.
```

#### Opcodes

```
  0: 0x011C [0x6C] FADE_ENTITY_COLOR(entity_id=EventEntity, end_alpha=0*, fade_time=1*)
  1: 0x0125 [0x33] EventEntity->Render.Flags0 |= 0x200000 // Bit 21 (flag=0x01)
  2: 0x0127 [0x37] UPDATE_EVENT_POSITION_AND_DIR: x=-440.306*, z=-240.618*, y=-166.810*, direction=180.0°*
  3: 0x0130 [0x5B] LOAD_EXT_SCHEDULER: Load scheduler "z000" with entities [Lion (ID: 17809413/0x010FC005), Lion (ID: 17809413/0x010FC005)], work=537*
  4: 0x013F [0x00] END_REQSTACK()
```

### Event 65535.13

#### Metadata

| Field        | Value    |
|--------------|----------|
| Entrypoint   | 0x0140   |
| Data Size    | 10 bytes |
| Instructions | 2        |

```
      00 01 02 03 04 05 06 07  08 09 0A 0B 0C 0D 0E 0F
      -- -- -- -- -- -- -- --  -- -- -- -- -- -- -- --
0140: 37 2A 80 2B 80 2C 80 2D  80 00                    7*.+.,.-..      
```

#### Opcodes

```
  0: 0x0140 [0x37] UPDATE_EVENT_POSITION_AND_DIR: x=-432.942*, z=-239.058*, y=-167.101*, direction=354.5°*
  1: 0x0149 [0x00] END_REQSTACK()
```

### Event 65535.14

#### Metadata

| Field        | Value    |
|--------------|----------|
| Entrypoint   | 0x014A   |
| Data Size    | 17 bytes |
| Instructions | 6        |

```
      00 01 02 03 04 05 06 07  08 09 0A 0B 0C 0D 0E 0F
      -- -- -- -- -- -- -- --  -- -- -- -- -- -- -- --
0140:                                61 00 32 2E 80 1F            a.2...
0150: 00 2F 80 30 80 31 80 1F  01 6F 00                 ./.0.1...o.     
```

#### Opcodes

```
  0: 0x014A [0x61] EventEntity->Render.Flags2 &= ~0x00000001
  1: 0x014C [0x32] ExtData[1]->MainSpeed = 40* * 0.1
  2: 0x014F [0x1F] MOVE_ENTITY: EventEntity moves to X=-427.275*, Z=-239.337*, Y=-167.000*
  3: 0x0157 [0x1F] MOVE_ENTITY: Update entity position (mode=1)
  4: 0x0159 [0x6F] WAIT_FRAME_DELAY: Yield until WaitTime reaches zero
  5: 0x015A [0x00] END_REQSTACK()
```

### Event 65535.15

#### Metadata

| Field        | Value    |
|--------------|----------|
| Entrypoint   | 0x015B   |
| Data Size    | 14 bytes |
| Instructions | 5        |

```
      00 01 02 03 04 05 06 07  08 09 0A 0B 0C 0D 0E 0F
      -- -- -- -- -- -- -- --  -- -- -- -- -- -- -- --
0150:                                   61 00 1F 00 32             a...2
0160: 80 33 80 34 80 1F 01 6F  00                       .3.4...o.       
```

#### Opcodes

```
  0: 0x015B [0x61] EventEntity->Render.Flags2 &= ~0x00000001
  1: 0x015D [0x1F] MOVE_ENTITY: EventEntity moves to X=-413.932*, Z=-239.459*, Y=-166.750*
  2: 0x0165 [0x1F] MOVE_ENTITY: Update entity position (mode=1)
  3: 0x0167 [0x6F] WAIT_FRAME_DELAY: Yield until WaitTime reaches zero
  4: 0x0168 [0x00] END_REQSTACK()
```

### Event 65535.16

#### Metadata

| Field        | Value    |
|--------------|----------|
| Entrypoint   | 0x0169   |
| Data Size    | 10 bytes |
| Instructions | 2        |

```
      00 01 02 03 04 05 06 07  08 09 0A 0B 0C 0D 0E 0F
      -- -- -- -- -- -- -- --  -- -- -- -- -- -- -- --
0160:                             37 16 80 17 80 18 80           7......
0170: 35 80 00                                          5..             
```

#### Opcodes

```
  0: 0x0169 [0x37] UPDATE_EVENT_POSITION_AND_DIR: x=-20.887*, z=-53.676*, y=0.248*, direction=55.2°*
  1: 0x0172 [0x00] END_REQSTACK()
```

### Event 65535.17

#### Metadata

| Field        | Value    |
|--------------|----------|
| Entrypoint   | 0x0173   |
| Data Size    | 31 bytes |
| Instructions | 9        |

```
      00 01 02 03 04 05 06 07  08 09 0A 0B 0C 0D 0E 0F
      -- -- -- -- -- -- -- --  -- -- -- -- -- -- -- --
0170:          61 00 37 12 80  13 80 14 80 15 80 1C 01     a.7..........
0180: 80 32 0E 80 1F 00 16 80  17 80 18 80 1F 01 6F 61  .2............oa
0190: 01 00                                             ..              
```

#### Opcodes

```
  0: 0x0173 [0x61] EventEntity->Render.Flags2 &= ~0x00000001
  1: 0x0175 [0x37] UPDATE_EVENT_POSITION_AND_DIR: x=-21.942*, z=-50.996*, y=0.345*, direction=61.1°*
  2: 0x017E [0x1C] WAIT(1* ticks)
  3: 0x0181 [0x32] ExtData[1]->MainSpeed = 13* * 0.1
  4: 0x0184 [0x1F] MOVE_ENTITY: EventEntity moves to X=-20.887*, Z=-53.676*, Y=0.248*
  5: 0x018C [0x1F] MOVE_ENTITY: Update entity position (mode=1)
  6: 0x018E [0x6F] WAIT_FRAME_DELAY: Yield until WaitTime reaches zero
  7: 0x018F [0x61] EventEntity->Render.Flags2 |= 0x00000001
  8: 0x0191 [0x00] END_REQSTACK()
```

### Event 65535.18

#### Metadata

| Field        | Value    |
|--------------|----------|
| Entrypoint   | 0x0192   |
| Data Size    | 25 bytes |
| Instructions | 4        |

```
      00 01 02 03 04 05 06 07  08 09 0A 0B 0C 0D 0E 0F
      -- -- -- -- -- -- -- --  -- -- -- -- -- -- -- --
0190:       92 01 F8 FF FF 7F  6C F8 FF FF 7F 00 80 01    ......l.......
01A0: 80 37 03 80 04 80 05 80  06 80 00                 .7.........     
```

#### Opcodes

```
  0: 0x0192 [0x92] EventEntity->Render.Flags3 ^= 0x01
  1: 0x0198 [0x6C] FADE_ENTITY_COLOR(entity_id=EventEntity, end_alpha=0*, fade_time=1*)
  2: 0x01A1 [0x37] UPDATE_EVENT_POSITION_AND_DIR: x=-25.601*, z=-46.900*, y=0.362*, direction=38.1°*
  3: 0x01AA [0x00] END_REQSTACK()
```

### Event 65535.19

#### Metadata

| Field        | Value    |
|--------------|----------|
| Entrypoint   | 0x01AB   |
| Data Size    | 10 bytes |
| Instructions | 2        |

```
      00 01 02 03 04 05 06 07  08 09 0A 0B 0C 0D 0E 0F
      -- -- -- -- -- -- -- --  -- -- -- -- -- -- -- --
01A0:                                   37 07 80 08 80             7....
01B0: 09 80 0A 80 00                                    .....           
```

#### Opcodes

```
  0: 0x01AB [0x37] UPDATE_EVENT_POSITION_AND_DIR: x=117.564*, z=-13.317*, y=-8.009*, direction=207.9°*
  1: 0x01B4 [0x00] END_REQSTACK()
```

### Event 65535.20

#### Metadata

| Field        | Value    |
|--------------|----------|
| Entrypoint   | 0x01B5   |
| Data Size    | 10 bytes |
| Instructions | 2        |

```
      00 01 02 03 04 05 06 07  08 09 0A 0B 0C 0D 0E 0F
      -- -- -- -- -- -- -- --  -- -- -- -- -- -- -- --
01B0:                37 0B 80  0C 80 09 80 0D 80 00          7......... 
```

#### Opcodes

```
  0: 0x01B5 [0x37] UPDATE_EVENT_POSITION_AND_DIR: x=123.051*, z=-10.901*, y=-8.009*, direction=131.9°*
  1: 0x01BE [0x00] END_REQSTACK()
```

### Event 65535.21

#### Metadata

| Field        | Value    |
|--------------|----------|
| Entrypoint   | 0x01BF   |
| Data Size    | 10 bytes |
| Instructions | 2        |

```
      00 01 02 03 04 05 06 07  08 09 0A 0B 0C 0D 0E 0F
      -- -- -- -- -- -- -- --  -- -- -- -- -- -- -- --
01B0:                                               37                 7
01C0: 36 80 37 80 38 80 39 80  00                       6.7.8.9..       
```

#### Opcodes

```
  0: 0x01BF [0x37] UPDATE_EVENT_POSITION_AND_DIR: x=-20.103*, z=-59.701*, y=0.139*, direction=88.5°*
  1: 0x01C8 [0x00] END_REQSTACK()
```

### Event 65535.22

#### Metadata

| Field        | Value    |
|--------------|----------|
| Entrypoint   | 0x01C9   |
| Data Size    | 19 bytes |
| Instructions | 3        |

```
      00 01 02 03 04 05 06 07  08 09 0A 0B 0C 0D 0E 0F
      -- -- -- -- -- -- -- --  -- -- -- -- -- -- -- --
01C0:                             5B 3A 80 F8 FF FF 7F           [:.....
01D0: F8 FF FF 7F 74 68 6B 31  1C 3B 80 00              ....thk1.;..    
```

#### Opcodes

```
  0: 0x01C9 [0x5B] LOAD_EXT_SCHEDULER: Load scheduler "thk1" with entities [EventEntity, EventEntity], work=95*
  1: 0x01D8 [0x1C] WAIT(60* ticks)
  2: 0x01DB [0x00] END_REQSTACK()
```

### Event 65535.23

#### Metadata

| Field        | Value    |
|--------------|----------|
| Entrypoint   | 0x01DC   |
| Data Size    | 29 bytes |
| Instructions | 3        |

```
      00 01 02 03 04 05 06 07  08 09 0A 0B 0C 0D 0E 0F
      -- -- -- -- -- -- -- --  -- -- -- -- -- -- -- --
01D0:                                      5B 3A 80 F8              [:..
01E0: FF FF 7F F8 FF FF 7F 74  68 6B 32 53 F8 FF FF 7F  .......thk2S....
01F0: F8 FF FF 7F 74 68 6B 32  00                       ....thk2.       
```

#### Opcodes

```
  0: 0x01DC [0x5B] LOAD_EXT_SCHEDULER: Load scheduler "thk2" with entities [EventEntity, EventEntity], work=95*
  1: 0x01EB [0x53] WAIT_SCHEDULER_TASK: Wait for scheduler "thk2" with entities [EventEntity, EventEntity]
  2: 0x01F8 [0x00] END_REQSTACK()
```

### Event 65535.24

#### Metadata

| Field        | Value    |
|--------------|----------|
| Entrypoint   | 0x01F9   |
| Data Size    | 19 bytes |
| Instructions | 3        |

```
      00 01 02 03 04 05 06 07  08 09 0A 0B 0C 0D 0E 0F
      -- -- -- -- -- -- -- --  -- -- -- -- -- -- -- --
01F0:                             5B 3C 80 F8 FF FF 7F           [<.....
0200: F8 FF FF 7F 74 6C 61 30  1C 3B 80 00              ....tla0.;..    
```

#### Opcodes

```
  0: 0x01F9 [0x5B] LOAD_EXT_SCHEDULER: Load scheduler "tla0" with entities [EventEntity, EventEntity], work=96*
  1: 0x0208 [0x1C] WAIT(60* ticks)
  2: 0x020B [0x00] END_REQSTACK()
```

### Event 65535.25

#### Metadata

| Field        | Value    |
|--------------|----------|
| Entrypoint   | 0x020C   |
| Data Size    | 29 bytes |
| Instructions | 3        |

```
      00 01 02 03 04 05 06 07  08 09 0A 0B 0C 0D 0E 0F
      -- -- -- -- -- -- -- --  -- -- -- -- -- -- -- --
0200:                                      5B 3C 80 F8              [<..
0210: FF FF 7F F8 FF FF 7F 74  6C 61 31 53 F8 FF FF 7F  .......tla1S....
0220: F8 FF FF 7F 74 6C 61 31  00                       ....tla1.       
```

#### Opcodes

```
  0: 0x020C [0x5B] LOAD_EXT_SCHEDULER: Load scheduler "tla1" with entities [EventEntity, EventEntity], work=96*
  1: 0x021B [0x53] WAIT_SCHEDULER_TASK: Wait for scheduler "tla1" with entities [EventEntity, EventEntity]
  2: 0x0228 [0x00] END_REQSTACK()
```

### Event 65535.26

#### Metadata

| Field        | Value    |
|--------------|----------|
| Entrypoint   | 0x0229   |
| Data Size    | 19 bytes |
| Instructions | 3        |

```
      00 01 02 03 04 05 06 07  08 09 0A 0B 0C 0D 0E 0F
      -- -- -- -- -- -- -- --  -- -- -- -- -- -- -- --
0220:                             5B 3C 80 F8 FF FF 7F           [<.....
0230: F8 FF FF 7F 74 6C 62 30  1C 3B 80 00              ....tlb0.;..    
```

#### Opcodes

```
  0: 0x0229 [0x5B] LOAD_EXT_SCHEDULER: Load scheduler "tlb0" with entities [EventEntity, EventEntity], work=96*
  1: 0x0238 [0x1C] WAIT(60* ticks)
  2: 0x023B [0x00] END_REQSTACK()
```

### Event 65535.27

#### Metadata

| Field        | Value    |
|--------------|----------|
| Entrypoint   | 0x023C   |
| Data Size    | 29 bytes |
| Instructions | 3        |

```
      00 01 02 03 04 05 06 07  08 09 0A 0B 0C 0D 0E 0F
      -- -- -- -- -- -- -- --  -- -- -- -- -- -- -- --
0230:                                      5B 3C 80 F8              [<..
0240: FF FF 7F F8 FF FF 7F 74  6C 62 31 53 F8 FF FF 7F  .......tlb1S....
0250: F8 FF FF 7F 74 6C 62 31  00                       ....tlb1.       
```

#### Opcodes

```
  0: 0x023C [0x5B] LOAD_EXT_SCHEDULER: Load scheduler "tlb1" with entities [EventEntity, EventEntity], work=96*
  1: 0x024B [0x53] WAIT_SCHEDULER_TASK: Wait for scheduler "tlb1" with entities [EventEntity, EventEntity]
  2: 0x0258 [0x00] END_REQSTACK()
```

### Event 65535.28

#### Metadata

| Field        | Value    |
|--------------|----------|
| Entrypoint   | 0x0259   |
| Data Size    | 19 bytes |
| Instructions | 3        |

```
      00 01 02 03 04 05 06 07  08 09 0A 0B 0C 0D 0E 0F
      -- -- -- -- -- -- -- --  -- -- -- -- -- -- -- --
0250:                             5B 3C 80 F8 FF FF 7F           [<.....
0260: F8 FF FF 7F 74 6C 63 30  1C 3B 80 00              ....tlc0.;..    
```

#### Opcodes

```
  0: 0x0259 [0x5B] LOAD_EXT_SCHEDULER: Load scheduler "tlc0" with entities [EventEntity, EventEntity], work=96*
  1: 0x0268 [0x1C] WAIT(60* ticks)
  2: 0x026B [0x00] END_REQSTACK()
```

### Event 65535.29

#### Metadata

| Field        | Value    |
|--------------|----------|
| Entrypoint   | 0x026C   |
| Data Size    | 29 bytes |
| Instructions | 3        |

```
      00 01 02 03 04 05 06 07  08 09 0A 0B 0C 0D 0E 0F
      -- -- -- -- -- -- -- --  -- -- -- -- -- -- -- --
0260:                                      5B 3C 80 F8              [<..
0270: FF FF 7F F8 FF FF 7F 74  6C 63 31 53 F8 FF FF 7F  .......tlc1S....
0280: F8 FF FF 7F 74 6C 43 31  00                       ....tlC1.       
```

#### Opcodes

```
  0: 0x026C [0x5B] LOAD_EXT_SCHEDULER: Load scheduler "tlc1" with entities [EventEntity, EventEntity], work=96*
  1: 0x027B [0x53] WAIT_SCHEDULER_TASK: Wait for scheduler "tlC1" with entities [EventEntity, EventEntity]
  2: 0x0288 [0x00] END_REQSTACK()
```

### Event 290

#### Metadata

| Field        | Value   |
|--------------|---------|
| Entrypoint   | 0x0289  |
| Data Size    | 1 bytes |
| Instructions | 1       |

```
      00 01 02 03 04 05 06 07  08 09 0A 0B 0C 0D 0E 0F
      -- -- -- -- -- -- -- --  -- -- -- -- -- -- -- --
0280:                             00                             .      
```

#### Opcodes

```
  0: 0x0289 [0x00] END_REQSTACK()
```

### Event 65535.30

#### Metadata

| Field        | Value    |
|--------------|----------|
| Entrypoint   | 0x028A   |
| Data Size    | 22 bytes |
| Instructions | 6        |

```
      00 01 02 03 04 05 06 07  08 09 0A 0B 0C 0D 0E 0F
      -- -- -- -- -- -- -- --  -- -- -- -- -- -- -- --
0280:                                32 2E 80 1F 00 3D            2....=
0290: 80 3E 80 3F 80 1F 01 1E  F0 FF FF 7F 1C 19 80 00  .>.?............
```

#### Opcodes

```
  0: 0x028A [0x32] ExtData[1]->MainSpeed = 40* * 0.1
  1: 0x028D [0x1F] MOVE_ENTITY: EventEntity moves to X=109.851*, Z=-14.493*, Y=-7.086*
  2: 0x0295 [0x1F] MOVE_ENTITY: Update entity position (mode=1)
  3: 0x0297 [0x1E] EventEntity looks at LocalPlayer and starts talking
  4: 0x029C [0x1C] WAIT(30* ticks)
  5: 0x029F [0x00] END_REQSTACK()
```
