# 17809507 - Mamaulabion

## Common Data

| Field            | Value          |
|------------------|----------------|
| Zone             | Norg (ID: 252) |
| Block Size       | 2664 bytes     |
| Total Events     | 11             |
| References Count | 64             |

## List of Events

| Event ID              | Entrypoint   |   Size |   Instructions |
|-----------------------|--------------|--------|----------------|
| [65535](#event-65535) | 0x0000       |      1 |              1 |
| [93](#event-93)       | 0x0001       |     49 |              7 |
| [191](#event-191)     | 0x0032       |    286 |             38 |
| [192](#event-192)     | 0x0150       |    301 |             68 |
| [193](#event-193)     | 0x027D       |    119 |             19 |
| [194](#event-194)     | 0x02F4       |     41 |              9 |
| [195](#event-195)     | 0x031D       |    115 |             17 |
| [196](#event-196)     | 0x0390       |     56 |             10 |
| [197](#event-197)     | 0x03C8       |    202 |             26 |
| [198](#event-198)     | 0x0492       |     60 |             12 |
| [243](#event-243)     | 0x04CE       |   1117 |            136 |

## DAT References (imed_data)

|   Index | Hex Value   |   Dec Value |
|---------|-------------|-------------|
|       0 | 0x0014      |          20 |
|       1 | 0x2A67      |       10855 |
|       2 | 0x00D7      |         215 |
|       3 | 0x0000      |           0 |
|       4 | 0x2A68      |       10856 |
|       5 | 0x2A69      |       10857 |
|       6 | 0x001B      |          27 |
|       7 | 0x2A6A      |       10858 |
|       8 | 0x2A6B      |       10859 |
|       9 | 0x2A6C      |       10860 |
|      10 | 0x2A6D      |       10861 |
|      11 | 0x2A6E      |       10862 |
|      12 | 0x2A6F      |       10863 |
|      13 | 0x2A70      |       10864 |
|      14 | 0x2A71      |       10865 |
|      15 | 0x0001      |           1 |
|      16 | 0x04B3      |        1203 |
|      17 | 0x2A72      |       10866 |
|      18 | 0x04B7      |        1207 |
|      19 | 0x04B5      |        1205 |
|      20 | 0x04B4      |        1204 |
|      21 | 0x04B2      |        1202 |
|      22 | 0x04B6      |        1206 |
|      23 | 0x04B8      |        1208 |
|      24 | 0x2A73      |       10867 |
|      25 | 0x2A75      |       10869 |
|      26 | 0x2A74      |       10868 |
|      27 | 0x001A      |          26 |
|      28 | 0x2A76      |       10870 |
|      29 | 0x2A77      |       10871 |
|      30 | 0x004B      |          75 |
|      31 | 0x2A78      |       10872 |
|      32 | 0x2A79      |       10873 |
|      33 | 0x2A7A      |       10874 |
|      34 | 0x2A7B      |       10875 |
|      35 | 0x002D      |          45 |
|      36 | 0x2A7C      |       10876 |
|      37 | 0x2A7D      |       10877 |
|      38 | 0x2A7E      |       10878 |
|      39 | 0x2A7F      |       10879 |
|      40 | 0x2A80      |       10880 |
|      41 | 0x2A81      |       10881 |
|      42 | 0x2A82      |       10882 |
|      43 | 0x2A83      |       10883 |
|      44 | 0x00C9      |         201 |
|      45 | 0x2A84      |       10884 |
|      46 | 0x001E      |          30 |
|      47 | 0x2A85      |       10885 |
|      48 | 0x2A86      |       10886 |
|      49 | 0x2A87      |       10887 |
|      50 | 0x0007      |           7 |
|      51 | 0x005A      |          90 |
|      52 | 0x2A88      |       10888 |
|      53 | 0x0013      |          19 |
|      54 | 0x00C8      |         200 |
|      55 | 0x000A      |          10 |
|      56 | 0x0028      |          40 |
|      57 | 0x0032      |          50 |
|      58 | 0x003C      |          60 |
|      59 | 0x0005      |           5 |
|      60 | 0x0050      |          80 |
|      61 | 0x00EE      |         238 |
|      62 | 0x0236      |         566 |
|      63 | 0x0002      |           2 |

## String References

- **10855**: Rare goodieth and obthcure odditieth from around the globe can be found in thith treasure trove we call Norg. However, I have thtill yet to come acroth itemth thcrumptiouth enough for my exthperimentth...
- **10856**: Oh, I forgot to introduthe mythelf. I'm Mamaulabion, but my friendth call me Mama. I'm thtudying thynthethith theory.
- **10857**: I've been thearching Vana'diel up and down, inthide and out for jutht the right itemth. Thethe dayth, you can find almotht anything up on auction, but what I'm looking for ith a little different. A little more, how would you thay, rithque<Player>i. That'th why I've come to Norg.
- **10858**: Travelerth from all over the world path through here everyday, bringing with them taleth of all the wonderouth itemth they have come acroth--itemth that would be perfect for my exthperimenth! Tee-hee-hee!
- **10859**: Why, jutht by looking at your juithy muthleth, I can tell you are one hardened adventurer. That'th why I want to athk for your help.
- **10860**: If it ithn't too much trouble, I'd like you to bring me thome rare itemth. You can take ath long ath you like; I'm in no hurry.
- **10861**: And I don't mean any rare item. It hath to be thuper-duper rare. You know, like, overflowing with thpethial powerth. Thomething that lookth normal, but ith not... You know what I mean?
- **10862**: I'm thorry I can't be clearer, but an adventurer of your caliber thould have no problem in finding what I'm talking about.
- **10863**: I'd like you to bring me thome rare itemth. You can take ath long ath you like; I'm in no hurry.
- **10864**: And I don't mean any rare item. It hath to be thuper-dee-duper rare. You know, like, overflowing with thpethial powerth. I think people call them "thuper-dee-duper, overflowing with thpethial power itemth."
- **10865**: In cathe you've forgotten, here'th a litht of what you've brought me tho far.
- **10866**: #.
- **10867**: That'th a total of $1 thuper thpethial [item/itemth].
- **10868**: I can't pay you until I have all the itemth I need, but I promithe that I'll give you your reward when I've completed my project. Croth my heart and hope to die. Tee-hee-hee!
- **10869**: I thtill need you to bring more thuper-duper itemth before I can finith my project and furnith you with your jutht reward. Thavvy?
- **10870**: Thuperb! I've never theen anything like it. The thuper thpethial power in thith $0 ith exactly what I needed!
- **10871**: There'th got to be more itemth like thith hidden around Vana'diel!
- **10872**: Boy, am I glad I athked you for help. Now I'm pothitive that you'll bring me everything I need!
- **10873**: Eh, not another $0... Thure, thith ith filled with thuper thpethial powerth, but you already brought me one...
- **10874**: I'm thorry, but I can't take any more of thethe. But if you find anything juth ath thuper-duper, you know where to bring it!
- **10875**: $0... Thith maketh theven thuper-duper, overflowing with thpethial power itemth. <Player>, I'm ath giddy ath a thcoolgirl! Now I can begin my exthperimenth!
- **10876**: Your reward? Keep your panth on, [mithter/mithy]. I'm going to need thome time. Jeuno wathn't built in a day, you know. Don't worry. You'll get your goodieth when I'm done.
- **10877**: Keep your panth on, [mithter/mithy]. I'm going to need thome time. Jeuno wathn't built in a day, you know.
- **10878**: I'm on the verge of a thpectacular find. Don't worry. You'll get your reward when I'm done.
- **10879**: I wath wondering when you'd get back, <Player>. I've finally finithed my thethith! I'm ready to give you your jutht reward.
- **10880**: But who would have thought that thuch powerful fortheth exthithted on Vana'diel. It maketh you wonder if the itemth are really even from thith world at all...
- **10881**: The power in them ith almotht divine... Hey, where did you get thethe anyway?
- **10882**: Oh, you don't have to anthwer, and I don't want to know anyway. The truth ith out there for you adventurerth to find. It ith of no matter to little old boyth like me. Tee-hee-hee!
- **10883**: Here'th your reward--the thweet fruitth of my labor. You more than detherve it!
- **10884**: Why, if it ithn't <Player>! Tho good of you to pay your old friend Mama a vith-- What!? You went and mithplathed the prethiouth ring I gave you!? I...I can't believe I'm hearing thith...
- **10885**: Why, I'm abtholutely thtruck thpeethleth that you would treat the token of my apprethiathion with thuch callouthneth. <Thigh>... What'th done ith done, I thuppothe. And the hangdog exthprethion you wear ith evidenthe enough of your remorthe.
- **10886**: Being the kindly thoul that I am, I've dethided to give you another chanthe. Deliver me the thelfthame itemth ath latht time, and I thall whip up another ring for you. How doeth that thound, hmmm?
- **10887**: Tho, what will it be? [Perhapth another time./I'll do it!]
- **10888**: Very well, [mithter/mithy]. I thall await retheipt of the thuper thpethial itemth onthe more...jutht like the good old dayth! Tee-hee!

## Events

### Event 65535

#### Metadata

| Field        | Value   |
|--------------|---------|
| Entrypoint   | 0x0000  |
| Data Size    | 1 bytes |
| Instructions | 1       |

```
      00 01 02 03 04 05 06 07  08 09 0A 0B 0C 0D 0E 0F
      -- -- -- -- -- -- -- --  -- -- -- -- -- -- -- --
0000: 00                                                .               
```

#### Opcodes

```
  0: 0x0000 [0x00] END_REQSTACK()
```

### Event 93

#### Metadata

| Field        | Value    |
|--------------|----------|
| Entrypoint   | 0x0001   |
| Data Size    | 49 bytes |
| Instructions | 7        |

```
      00 01 02 03 04 05 06 07  08 09 0A 0B 0C 0D 0E 0F
      -- -- -- -- -- -- -- --  -- -- -- -- -- -- -- --
0000:    66 00 80 F8 FF FF 7F  F8 FF FF 7F 74 68 6B 31   f..........thk1
0010: 1D 01 80 23 66 00 80 F8  FF FF 7F F8 FF FF 7F 74  ...#f..........t
0020: 68 6B 32 53 F8 FF FF 7F  F8 FF FF 7F 74 68 6B 32  hk2S........thk2
0030: 21 00                                             !.              
```

#### Opcodes

```
  0: 0x0001 [0x66] LOAD_EXT_SCHEDULER_MAIN: Load scheduler "thk1" with entities [EventEntity, EventEntity], work=20*
  1: 0x0010 [0x1D] PRINT_EVENT_MESSAGE(message_id=10855*)
    → "Rare goodieth and obthcure odditieth from around the globe can be found in thith treasure trove we call Norg. However, I have thtill yet to come acroth itemth thcrumptiouth enough for my exthperimentth..."
  2: 0x0013 [0x23] WAIT_FOR_DIALOG_INTERACTION
  3: 0x0014 [0x66] LOAD_EXT_SCHEDULER_MAIN: Load scheduler "thk2" with entities [EventEntity, EventEntity], work=20*
  4: 0x0023 [0x53] WAIT_SCHEDULER_TASK: Wait for scheduler "thk2" with entities [EventEntity, EventEntity]
  5: 0x0030 [0x21] END_EVENT
  6: 0x0031 [0x00] END_REQSTACK()
```

### Event 191

#### Metadata

| Field        | Value     |
|--------------|-----------|
| Entrypoint   | 0x0032    |
| Data Size    | 286 bytes |
| Instructions | 38        |

```
      00 01 02 03 04 05 06 07  08 09 0A 0B 0C 0D 0E 0F
      -- -- -- -- -- -- -- --  -- -- -- -- -- -- -- --
0030:       1A 67 05 66 00 80  F8 FF FF 7F F8 FF FF 7F    .g.f..........
0040: 74 68 6B 31 1D 01 80 23  66 00 80 F8 FF FF 7F F8  thk1...#f.......
0050: FF FF 7F 74 68 6B 32 53  F8 FF FF 7F F8 FF FF 7F  ...thk2S........
0060: 74 68 6B 32 1A BC 05 52  02 80 F0 FF FF 7F F0 FF  thk2...R........
0070: FF 7F 71 73 30 31 45 02  80 F0 FF FF 7F F0 FF FF  ..qs01E.........
0080: 7F 71 73 30 32 03 80 1D  04 80 23 1D 05 80 23 52  .qs02.....#...#R
0090: 02 80 F0 FF FF 7F F0 FF  FF 7F 71 73 30 32 45 02  ..........qs02E.
00A0: 80 F0 FF FF 7F F0 FF FF  7F 71 73 30 33 03 80 66  .........qs03..f
00B0: 06 80 F8 FF FF 7F F8 FF  FF 7F 74 6C 62 30 1D 07  ..........tlb0..
00C0: 80 23 1D 08 80 23 66 06  80 F8 FF FF 7F F8 FF FF  .#...#f.........
00D0: 7F 74 6C 62 31 53 F8 FF  FF 7F F8 FF FF 7F 74 6C  .tlb1S........tl
00E0: 62 31 1D 09 80 23 52 02  80 F0 FF FF 7F F0 FF FF  b1...#R.........
00F0: 7F 71 73 30 33 45 02 80  F0 FF FF 7F F0 FF FF 7F  .qs03E..........
0100: 71 73 30 34 03 80 66 00  80 F8 FF FF 7F F8 FF FF  qs04..f.........
0110: 7F 74 68 6B 31 1D 0A 80  23 66 00 80 F8 FF FF 7F  .thk1...#f......
0120: F8 FF FF 7F 74 68 6B 32  53 F8 FF FF 7F F8 FF FF  ....thk2S.......
0130: 7F 74 68 6B 32 1A FA 05  1D 0B 80 23 66 00 80 F8  .thk2......#f...
0140: FF FF 7F F8 FF FF 7F 74  6C 6B 31 1A A2 05 21 00  .......tlk1...!.
```

#### Opcodes

```
  0: 0x0032 [0x1A] CALL_SUBROUTINE(address=0x0567)
  1: 0x0035 [0x66] LOAD_EXT_SCHEDULER_MAIN: Load scheduler "thk1" with entities [EventEntity, EventEntity], work=20*
  2: 0x0044 [0x1D] PRINT_EVENT_MESSAGE(message_id=10855*)
    → "Rare goodieth and obthcure odditieth from around the globe can be found in thith treasure trove we call Norg. However, I have thtill yet to come acroth itemth thcrumptiouth enough for my exthperimentth..."
  3: 0x0047 [0x23] WAIT_FOR_DIALOG_INTERACTION
  4: 0x0048 [0x66] LOAD_EXT_SCHEDULER_MAIN: Load scheduler "thk2" with entities [EventEntity, EventEntity], work=20*
  5: 0x0057 [0x53] WAIT_SCHEDULER_TASK: Wait for scheduler "thk2" with entities [EventEntity, EventEntity]
  6: 0x0064 [0x1A] CALL_SUBROUTINE(address=0x05BC)
  7: 0x0067 [0x52] END_LOAD_SCHEDULER: End scheduler "qs01" with entities [LocalPlayer, LocalPlayer], work=215*
  8: 0x0076 [0x45] LOAD_SCHEDULED_TASK: Load scheduler "qs02" with entities [LocalPlayer, LocalPlayer], work=[215*, 0*]
  9: 0x0087 [0x1D] PRINT_EVENT_MESSAGE(message_id=10856*)
    → "Oh, I forgot to introduthe mythelf. I'm Mamaulabion, but my friendth call me Mama. I'm thtudying thynthethith theory."
 10: 0x008A [0x23] WAIT_FOR_DIALOG_INTERACTION
 11: 0x008B [0x1D] PRINT_EVENT_MESSAGE(message_id=10857*)
    → "I've been thearching Vana'diel up and down, inthide and out for jutht the right itemth. Thethe dayth, you can find almotht anything up on auction, but what I'm looking for ith a little different. A little more, how would you thay, rithque<Player>i. That'th why I've come to Norg."
 12: 0x008E [0x23] WAIT_FOR_DIALOG_INTERACTION
 13: 0x008F [0x52] END_LOAD_SCHEDULER: End scheduler "qs02" with entities [LocalPlayer, LocalPlayer], work=215*
 14: 0x009E [0x45] LOAD_SCHEDULED_TASK: Load scheduler "qs03" with entities [LocalPlayer, LocalPlayer], work=[215*, 0*]
 15: 0x00AF [0x66] LOAD_EXT_SCHEDULER_MAIN: Load scheduler "tlb0" with entities [EventEntity, EventEntity], work=27*
 16: 0x00BE [0x1D] PRINT_EVENT_MESSAGE(message_id=10858*)
    → "Travelerth from all over the world path through here everyday, bringing with them taleth of all the wonderouth itemth they have come acroth--itemth that would be perfect for my exthperimenth! Tee-hee-hee!"
 17: 0x00C1 [0x23] WAIT_FOR_DIALOG_INTERACTION
 18: 0x00C2 [0x1D] PRINT_EVENT_MESSAGE(message_id=10859*)
    → "Why, jutht by looking at your juithy muthleth, I can tell you are one hardened adventurer. That'th why I want to athk for your help."
 19: 0x00C5 [0x23] WAIT_FOR_DIALOG_INTERACTION
 20: 0x00C6 [0x66] LOAD_EXT_SCHEDULER_MAIN: Load scheduler "tlb1" with entities [EventEntity, EventEntity], work=27*
 21: 0x00D5 [0x53] WAIT_SCHEDULER_TASK: Wait for scheduler "tlb1" with entities [EventEntity, EventEntity]
 22: 0x00E2 [0x1D] PRINT_EVENT_MESSAGE(message_id=10860*)
    → "If it ithn't too much trouble, I'd like you to bring me thome rare itemth. You can take ath long ath you like; I'm in no hurry."
 23: 0x00E5 [0x23] WAIT_FOR_DIALOG_INTERACTION
 24: 0x00E6 [0x52] END_LOAD_SCHEDULER: End scheduler "qs03" with entities [LocalPlayer, LocalPlayer], work=215*
 25: 0x00F5 [0x45] LOAD_SCHEDULED_TASK: Load scheduler "qs04" with entities [LocalPlayer, LocalPlayer], work=[215*, 0*]
 26: 0x0106 [0x66] LOAD_EXT_SCHEDULER_MAIN: Load scheduler "thk1" with entities [EventEntity, EventEntity], work=20*
 27: 0x0115 [0x1D] PRINT_EVENT_MESSAGE(message_id=10861*)
    → "And I don't mean any rare item. It hath to be thuper-duper rare. You know, like, overflowing with thpethial powerth. Thomething that lookth normal, but ith not... You know what I mean?"
 28: 0x0118 [0x23] WAIT_FOR_DIALOG_INTERACTION
 29: 0x0119 [0x66] LOAD_EXT_SCHEDULER_MAIN: Load scheduler "thk2" with entities [EventEntity, EventEntity], work=20*
 30: 0x0128 [0x53] WAIT_SCHEDULER_TASK: Wait for scheduler "thk2" with entities [EventEntity, EventEntity]
 31: 0x0135 [0x1A] CALL_SUBROUTINE(address=0x05FA)
 32: 0x0138 [0x1D] PRINT_EVENT_MESSAGE(message_id=10862*)
    → "I'm thorry I can't be clearer, but an adventurer of your caliber thould have no problem in finding what I'm talking about."
 33: 0x013B [0x23] WAIT_FOR_DIALOG_INTERACTION
 34: 0x013C [0x66] LOAD_EXT_SCHEDULER_MAIN: Load scheduler "tlk1" with entities [EventEntity, EventEntity], work=20*
 35: 0x014B [0x1A] CALL_SUBROUTINE(address=0x05A2)
 36: 0x014E [0x21] END_EVENT
 37: 0x014F [0x00] END_REQSTACK()
```

### Event 192

#### Metadata

| Field        | Value     |
|--------------|-----------|
| Entrypoint   | 0x0150    |
| Data Size    | 301 bytes |
| Instructions | 68        |

```
      00 01 02 03 04 05 06 07  08 09 0A 0B 0C 0D 0E 0F
      -- -- -- -- -- -- -- --  -- -- -- -- -- -- -- --
0150: 1A BC 05 1D 0C 80 23 66  00 80 F8 FF FF 7F F8 FF  ......#f........
0160: FF 7F 74 68 6B 31 1D 0D  80 23 66 00 80 F8 FF FF  ..thk1...#f.....
0170: 7F F8 FF FF 7F 74 68 6B  32 53 F8 FF FF 7F F8 FF  .....thk2S......
0180: FF 7F 74 68 6B 32 1A FA  05 1D 0B 80 23 43 00 43  ..thk2......#C.C
0190: 01 03 01 00 02 10 03 02  00 03 10 03 03 00 04 10  ................
01A0: 03 04 00 05 10 03 05 00  06 10 03 06 00 07 10 03  ................
01B0: 07 00 08 10 03 00 00 09  10 02 00 00 03 80 01 5B  ...............[
01C0: 02 1D 0E 80 23 02 01 00  0F 80 00 D6 01 03 02 10  ....#...........
01D0: 10 80 1D 11 80 23 02 02  00 0F 80 00 E7 01 03 02  .....#..........
01E0: 10 12 80 1D 11 80 23 02  03 00 0F 80 00 F8 01 03  ......#.........
01F0: 02 10 13 80 1D 11 80 23  02 04 00 0F 80 00 09 02  .......#........
0200: 03 02 10 14 80 1D 11 80  23 02 05 00 0F 80 00 1A  ........#.......
0210: 02 03 02 10 15 80 1D 11  80 23 02 06 00 0F 80 00  .........#......
0220: 2B 02 03 02 10 16 80 1D  11 80 23 02 07 00 0F 80  +.........#.....
0230: 00 3C 02 03 02 10 17 80  1D 11 80 23 03 03 10 00  .<.........#....
0240: 00 1D 18 80 23 02 00 00  0F 80 02 54 02 1D 19 80  ....#......T....
0250: 23 01 58 02 1D 1A 80 23  01 5F 02 1D 1A 80 23 66  #.X....#._....#f
0260: 00 80 F8 FF FF 7F F8 FF  FF 7F 74 6C 6B 31 53 F8  ..........tlk1S.
0270: FF FF 7F F8 FF FF 7F 74  6C 6B 31 21 00           .......tlk1!.   
```

#### Opcodes

```
  0: 0x0150 [0x1A] CALL_SUBROUTINE(address=0x05BC)
  1: 0x0153 [0x1D] PRINT_EVENT_MESSAGE(message_id=10863*)
    → "I'd like you to bring me thome rare itemth. You can take ath long ath you like; I'm in no hurry."
  2: 0x0156 [0x23] WAIT_FOR_DIALOG_INTERACTION
  3: 0x0157 [0x66] LOAD_EXT_SCHEDULER_MAIN: Load scheduler "thk1" with entities [EventEntity, EventEntity], work=20*
  4: 0x0166 [0x1D] PRINT_EVENT_MESSAGE(message_id=10864*)
    → "And I don't mean any rare item. It hath to be thuper-dee-duper rare. You know, like, overflowing with thpethial powerth. I think people call them "thuper-dee-duper, overflowing with thpethial power itemth.""
  5: 0x0169 [0x23] WAIT_FOR_DIALOG_INTERACTION
  6: 0x016A [0x66] LOAD_EXT_SCHEDULER_MAIN: Load scheduler "thk2" with entities [EventEntity, EventEntity], work=20*
  7: 0x0179 [0x53] WAIT_SCHEDULER_TASK: Wait for scheduler "thk2" with entities [EventEntity, EventEntity]
  8: 0x0186 [0x1A] CALL_SUBROUTINE(address=0x05FA)
  9: 0x0189 [0x1D] PRINT_EVENT_MESSAGE(message_id=10862*)
    → "I'm thorry I can't be clearer, but an adventurer of your caliber thould have no problem in finding what I'm talking about."
 10: 0x018C [0x23] WAIT_FOR_DIALOG_INTERACTION
 11: 0x018D [0x43] SEND_EVENT_UPDATE: Send pending tag to server (packet 0x005B)
 12: 0x018F [0x43] SEND_EVENT_UPDATE: Check pending flag (skip if not pending)
 13: 0x0191 [0x03] ExtData[1]->WorkLocal[1] = Work_Zone[2]
 14: 0x0196 [0x03] ExtData[1]->WorkLocal[2] = Work_Zone[3]
 15: 0x019B [0x03] ExtData[1]->WorkLocal[3] = Work_Zone[4]
 16: 0x01A0 [0x03] ExtData[1]->WorkLocal[4] = Work_Zone[5]
 17: 0x01A5 [0x03] ExtData[1]->WorkLocal[5] = Work_Zone[6]
 18: 0x01AA [0x03] ExtData[1]->WorkLocal[6] = Work_Zone[7]
 19: 0x01AF [0x03] ExtData[1]->WorkLocal[7] = Work_Zone[8]
 20: 0x01B4 [0x03] ExtData[1]->WorkLocal[0] = Work_Zone[9]
 21: 0x01B9 [0x02] IF !(ExtData[1]->WorkLocal[0] == 0*) GOTO 0x025B
 22: 0x01C1 [0x1D] PRINT_EVENT_MESSAGE(message_id=10865*)
    → "In cathe you've forgotten, here'th a litht of what you've brought me tho far."
 23: 0x01C4 [0x23] WAIT_FOR_DIALOG_INTERACTION
 24: 0x01C5 [0x02] IF !(ExtData[1]->WorkLocal[1] == 1*) GOTO 0x01D6
 25: 0x01CD [0x03] Work_Zone[2] = 1203*
 26: 0x01D2 [0x1D] PRINT_EVENT_MESSAGE(message_id=10866*)
    → "#."
 27: 0x01D5 [0x23] WAIT_FOR_DIALOG_INTERACTION
 28: 0x01D6 [0x02] IF !(ExtData[1]->WorkLocal[2] == 1*) GOTO 0x01E7
 29: 0x01DE [0x03] Work_Zone[2] = 1207*
 30: 0x01E3 [0x1D] PRINT_EVENT_MESSAGE(message_id=10866*)
    → "#."
 31: 0x01E6 [0x23] WAIT_FOR_DIALOG_INTERACTION
 32: 0x01E7 [0x02] IF !(ExtData[1]->WorkLocal[3] == 1*) GOTO 0x01F8
 33: 0x01EF [0x03] Work_Zone[2] = 1205*
 34: 0x01F4 [0x1D] PRINT_EVENT_MESSAGE(message_id=10866*)
    → "#."
 35: 0x01F7 [0x23] WAIT_FOR_DIALOG_INTERACTION
 36: 0x01F8 [0x02] IF !(ExtData[1]->WorkLocal[4] == 1*) GOTO 0x0209
 37: 0x0200 [0x03] Work_Zone[2] = 1204*
 38: 0x0205 [0x1D] PRINT_EVENT_MESSAGE(message_id=10866*)
    → "#."
 39: 0x0208 [0x23] WAIT_FOR_DIALOG_INTERACTION
 40: 0x0209 [0x02] IF !(ExtData[1]->WorkLocal[5] == 1*) GOTO 0x021A
 41: 0x0211 [0x03] Work_Zone[2] = 1202*
 42: 0x0216 [0x1D] PRINT_EVENT_MESSAGE(message_id=10866*)
    → "#."
 43: 0x0219 [0x23] WAIT_FOR_DIALOG_INTERACTION
 44: 0x021A [0x02] IF !(ExtData[1]->WorkLocal[6] == 1*) GOTO 0x022B
 45: 0x0222 [0x03] Work_Zone[2] = 1206*
 46: 0x0227 [0x1D] PRINT_EVENT_MESSAGE(message_id=10866*)
    → "#."
 47: 0x022A [0x23] WAIT_FOR_DIALOG_INTERACTION
 48: 0x022B [0x02] IF !(ExtData[1]->WorkLocal[7] == 1*) GOTO 0x023C
 49: 0x0233 [0x03] Work_Zone[2] = 1208*
 50: 0x0238 [0x1D] PRINT_EVENT_MESSAGE(message_id=10866*)
    → "#."
 51: 0x023B [0x23] WAIT_FOR_DIALOG_INTERACTION
 52: 0x023C [0x03] Work_Zone[3] = ExtData[1]->WorkLocal[0]
 53: 0x0241 [0x1D] PRINT_EVENT_MESSAGE(message_id=10867*)
    → "That'th a total of $1 thuper thpethial [item/itemth]."
 54: 0x0244 [0x23] WAIT_FOR_DIALOG_INTERACTION
 55: 0x0245 [0x02] IF !(ExtData[1]->WorkLocal[0] <= 1*) GOTO 0x0254
 56: 0x024D [0x1D] PRINT_EVENT_MESSAGE(message_id=10869*)
    → "I thtill need you to bring more thuper-duper itemth before I can finith my project and furnith you with your jutht reward. Thavvy?"
 57: 0x0250 [0x23] WAIT_FOR_DIALOG_INTERACTION
 58: 0x0251 [0x01] GOTO 0x0258
 59: 0x0254 [0x1D] PRINT_EVENT_MESSAGE(message_id=10868*)
    → "I can't pay you until I have all the itemth I need, but I promithe that I'll give you your reward when I've completed my project. Croth my heart and hope to die. Tee-hee-hee!"
 60: 0x0257 [0x23] WAIT_FOR_DIALOG_INTERACTION

SUBROUTINE_0258:
 61: 0x0258 [0x01] GOTO 0x025F
 62: 0x025B [0x1D] PRINT_EVENT_MESSAGE(message_id=10868*)
    → "I can't pay you until I have all the itemth I need, but I promithe that I'll give you your reward when I've completed my project. Croth my heart and hope to die. Tee-hee-hee!"
 63: 0x025E [0x23] WAIT_FOR_DIALOG_INTERACTION

SUBROUTINE_025F:
 64: 0x025F [0x66] LOAD_EXT_SCHEDULER_MAIN: Load scheduler "tlk1" with entities [EventEntity, EventEntity], work=20*
 65: 0x026E [0x53] WAIT_SCHEDULER_TASK: Wait for scheduler "tlk1" with entities [EventEntity, EventEntity]
 66: 0x027B [0x21] END_EVENT
 67: 0x027C [0x00] END_REQSTACK()
```

### Event 193

#### Metadata

| Field        | Value     |
|--------------|-----------|
| Entrypoint   | 0x027D    |
| Data Size    | 119 bytes |
| Instructions | 19        |

```
      00 01 02 03 04 05 06 07  08 09 0A 0B 0C 0D 0E 0F
      -- -- -- -- -- -- -- --  -- -- -- -- -- -- -- --
0270:                                         1A 67 05               .g.
0280: 1A BC 05 66 1B 80 F8 FF  FF 7F F8 FF FF 7F 6F 72  ...f..........or
0290: 6F 30 1D 1C 80 23 1D 1D  80 23 66 1B 80 F8 FF FF  o0...#...#f.....
02A0: 7F F8 FF FF 7F 6F 72 6F  31 53 F8 FF FF 7F F8 FF  .....oro1S......
02B0: FF 7F 6F 72 6F 30 1C 1E  80 52 02 80 F0 FF FF 7F  ..oro0...R......
02C0: F0 FF FF 7F 71 73 30 31  45 02 80 F0 FF FF 7F F0  ....qs01E.......
02D0: FF FF 7F 71 73 30 34 03  80 1A FA 05 1D 1F 80 23  ...qs04........#
02E0: 66 00 80 F8 FF FF 7F F8  FF FF 7F 74 6C 6B 31 1A  f..........tlk1.
02F0: A2 05 21 00                                       ..!.            
```

#### Opcodes

```
  0: 0x027D [0x1A] CALL_SUBROUTINE(address=0x0567)
  1: 0x0280 [0x1A] CALL_SUBROUTINE(address=0x05BC)
  2: 0x0283 [0x66] LOAD_EXT_SCHEDULER_MAIN: Load scheduler "oro0" with entities [EventEntity, EventEntity], work=26*
  3: 0x0292 [0x1D] PRINT_EVENT_MESSAGE(message_id=10870*)
    → "Thuperb! I've never theen anything like it. The thuper thpethial power in thith $0 ith exactly what I needed!"
  4: 0x0295 [0x23] WAIT_FOR_DIALOG_INTERACTION
  5: 0x0296 [0x1D] PRINT_EVENT_MESSAGE(message_id=10871*)
    → "There'th got to be more itemth like thith hidden around Vana'diel!"
  6: 0x0299 [0x23] WAIT_FOR_DIALOG_INTERACTION
  7: 0x029A [0x66] LOAD_EXT_SCHEDULER_MAIN: Load scheduler "oro1" with entities [EventEntity, EventEntity], work=26*
  8: 0x02A9 [0x53] WAIT_SCHEDULER_TASK: Wait for scheduler "oro0" with entities [EventEntity, EventEntity]
  9: 0x02B6 [0x1C] WAIT(75* ticks)
 10: 0x02B9 [0x52] END_LOAD_SCHEDULER: End scheduler "qs01" with entities [LocalPlayer, LocalPlayer], work=215*
 11: 0x02C8 [0x45] LOAD_SCHEDULED_TASK: Load scheduler "qs04" with entities [LocalPlayer, LocalPlayer], work=[215*, 0*]
 12: 0x02D9 [0x1A] CALL_SUBROUTINE(address=0x05FA)
 13: 0x02DC [0x1D] PRINT_EVENT_MESSAGE(message_id=10872*)
    → "Boy, am I glad I athked you for help. Now I'm pothitive that you'll bring me everything I need!"
 14: 0x02DF [0x23] WAIT_FOR_DIALOG_INTERACTION
 15: 0x02E0 [0x66] LOAD_EXT_SCHEDULER_MAIN: Load scheduler "tlk1" with entities [EventEntity, EventEntity], work=20*
 16: 0x02EF [0x1A] CALL_SUBROUTINE(address=0x05A2)
 17: 0x02F2 [0x21] END_EVENT
 18: 0x02F3 [0x00] END_REQSTACK()
```

### Event 194

#### Metadata

| Field        | Value    |
|--------------|----------|
| Entrypoint   | 0x02F4   |
| Data Size    | 41 bytes |
| Instructions | 9        |

```
      00 01 02 03 04 05 06 07  08 09 0A 0B 0C 0D 0E 0F
      -- -- -- -- -- -- -- --  -- -- -- -- -- -- -- --
02F0:             1A BC 05 1D  20 80 23 66 00 80 F8 FF      .... .#f....
0300: FF 7F F8 FF FF 7F 70 61  73 30 1D 21 80 23 53 F8  ......pas0.!.#S.
0310: FF FF 7F F8 FF FF 7F 70  61 73 30 21 00           .......pas0!.   
```

#### Opcodes

```
  0: 0x02F4 [0x1A] CALL_SUBROUTINE(address=0x05BC)
  1: 0x02F7 [0x1D] PRINT_EVENT_MESSAGE(message_id=10873*)
    → "Eh, not another $0... Thure, thith ith filled with thuper thpethial powerth, but you already brought me one..."
  2: 0x02FA [0x23] WAIT_FOR_DIALOG_INTERACTION
  3: 0x02FB [0x66] LOAD_EXT_SCHEDULER_MAIN: Load scheduler "pas0" with entities [EventEntity, EventEntity], work=20*
  4: 0x030A [0x1D] PRINT_EVENT_MESSAGE(message_id=10874*)
    → "I'm thorry, but I can't take any more of thethe. But if you find anything juth ath thuper-duper, you know where to bring it!"
  5: 0x030D [0x23] WAIT_FOR_DIALOG_INTERACTION
  6: 0x030E [0x53] WAIT_SCHEDULER_TASK: Wait for scheduler "pas0" with entities [EventEntity, EventEntity]
  7: 0x031B [0x21] END_EVENT
  8: 0x031C [0x00] END_REQSTACK()
```

### Event 195

#### Metadata

| Field        | Value     |
|--------------|-----------|
| Entrypoint   | 0x031D    |
| Data Size    | 115 bytes |
| Instructions | 17        |

```
      00 01 02 03 04 05 06 07  08 09 0A 0B 0C 0D 0E 0F
      -- -- -- -- -- -- -- --  -- -- -- -- -- -- -- --
0310:                                         1A 67 05               .g.
0320: 1A BC 05 66 00 80 F8 FF  FF 7F F8 FF FF 7F 74 68  ...f..........th
0330: 6B 31 1D 22 80 23 66 00  80 F8 FF FF 7F F8 FF FF  k1.".#f.........
0340: 7F 74 68 6B 32 53 F8 FF  FF 7F F8 FF FF 7F 74 68  .thk2S........th
0350: 6B 32 1C 23 80 52 02 80  F0 FF FF 7F F0 FF FF 7F  k2.#.R..........
0360: 71 73 30 31 45 02 80 F0  FF FF 7F F0 FF FF 7F 71  qs01E..........q
0370: 73 30 34 03 80 1A FA 05  1D 24 80 23 66 00 80 F8  s04......$.#f...
0380: FF FF 7F F8 FF FF 7F 74  6C 6B 31 1A A2 05 21 00  .......tlk1...!.
```

#### Opcodes

```
  0: 0x031D [0x1A] CALL_SUBROUTINE(address=0x0567)
  1: 0x0320 [0x1A] CALL_SUBROUTINE(address=0x05BC)
  2: 0x0323 [0x66] LOAD_EXT_SCHEDULER_MAIN: Load scheduler "thk1" with entities [EventEntity, EventEntity], work=20*
  3: 0x0332 [0x1D] PRINT_EVENT_MESSAGE(message_id=10875*)
    → "$0... Thith maketh theven thuper-duper, overflowing with thpethial power itemth. <Player>, I'm ath giddy ath a thcoolgirl! Now I can begin my exthperimenth!"
  4: 0x0335 [0x23] WAIT_FOR_DIALOG_INTERACTION
  5: 0x0336 [0x66] LOAD_EXT_SCHEDULER_MAIN: Load scheduler "thk2" with entities [EventEntity, EventEntity], work=20*
  6: 0x0345 [0x53] WAIT_SCHEDULER_TASK: Wait for scheduler "thk2" with entities [EventEntity, EventEntity]
  7: 0x0352 [0x1C] WAIT(45* ticks)
  8: 0x0355 [0x52] END_LOAD_SCHEDULER: End scheduler "qs01" with entities [LocalPlayer, LocalPlayer], work=215*
  9: 0x0364 [0x45] LOAD_SCHEDULED_TASK: Load scheduler "qs04" with entities [LocalPlayer, LocalPlayer], work=[215*, 0*]
 10: 0x0375 [0x1A] CALL_SUBROUTINE(address=0x05FA)
 11: 0x0378 [0x1D] PRINT_EVENT_MESSAGE(message_id=10876*)
    → "Your reward? Keep your panth on, [mithter/mithy]. I'm going to need thome time. Jeuno wathn't built in a day, you know. Don't worry. You'll get your goodieth when I'm done."
 12: 0x037B [0x23] WAIT_FOR_DIALOG_INTERACTION
 13: 0x037C [0x66] LOAD_EXT_SCHEDULER_MAIN: Load scheduler "tlk1" with entities [EventEntity, EventEntity], work=20*
 14: 0x038B [0x1A] CALL_SUBROUTINE(address=0x05A2)
 15: 0x038E [0x21] END_EVENT
 16: 0x038F [0x00] END_REQSTACK()
```

### Event 196

#### Metadata

| Field        | Value    |
|--------------|----------|
| Entrypoint   | 0x0390   |
| Data Size    | 56 bytes |
| Instructions | 10       |

```
      00 01 02 03 04 05 06 07  08 09 0A 0B 0C 0D 0E 0F
      -- -- -- -- -- -- -- --  -- -- -- -- -- -- -- --
0390: 1A BC 05 66 06 80 F8 FF  FF 7F F8 FF FF 7F 74 6C  ...f..........tl
03A0: 62 30 1D 25 80 23 1D 26  80 23 66 06 80 F8 FF FF  b0.%.#.&.#f.....
03B0: 7F F8 FF FF 7F 74 6C 62  31 53 F8 FF FF 7F F8 FF  .....tlb1S......
03C0: FF 7F 74 6C 62 31 21 00                           ..tlb1!.        
```

#### Opcodes

```
  0: 0x0390 [0x1A] CALL_SUBROUTINE(address=0x05BC)
  1: 0x0393 [0x66] LOAD_EXT_SCHEDULER_MAIN: Load scheduler "tlb0" with entities [EventEntity, EventEntity], work=27*
  2: 0x03A2 [0x1D] PRINT_EVENT_MESSAGE(message_id=10877*)
    → "Keep your panth on, [mithter/mithy]. I'm going to need thome time. Jeuno wathn't built in a day, you know."
  3: 0x03A5 [0x23] WAIT_FOR_DIALOG_INTERACTION
  4: 0x03A6 [0x1D] PRINT_EVENT_MESSAGE(message_id=10878*)
    → "I'm on the verge of a thpectacular find. Don't worry. You'll get your reward when I'm done."
  5: 0x03A9 [0x23] WAIT_FOR_DIALOG_INTERACTION
  6: 0x03AA [0x66] LOAD_EXT_SCHEDULER_MAIN: Load scheduler "tlb1" with entities [EventEntity, EventEntity], work=27*
  7: 0x03B9 [0x53] WAIT_SCHEDULER_TASK: Wait for scheduler "tlb1" with entities [EventEntity, EventEntity]
  8: 0x03C6 [0x21] END_EVENT
  9: 0x03C7 [0x00] END_REQSTACK()
```

### Event 197

#### Metadata

| Field        | Value     |
|--------------|-----------|
| Entrypoint   | 0x03C8    |
| Data Size    | 202 bytes |
| Instructions | 26        |

```
      00 01 02 03 04 05 06 07  08 09 0A 0B 0C 0D 0E 0F
      -- -- -- -- -- -- -- --  -- -- -- -- -- -- -- --
03C0:                          1A 67 05 1A BC 05 1D 27          .g.....'
03D0: 80 23 52 02 80 F0 FF FF  7F F0 FF FF 7F 71 73 30  .#R..........qs0
03E0: 31 45 02 80 F0 FF FF 7F  F0 FF FF 7F 71 73 30 32  1E..........qs02
03F0: 03 80 66 00 80 F8 FF FF  7F F8 FF FF 7F 74 68 6B  ..f..........thk
0400: 31 1D 28 80 23 1D 29 80  23 52 02 80 F0 FF FF 7F  1.(.#.).#R......
0410: F0 FF FF 7F 71 73 30 32  45 02 80 F0 FF FF 7F F0  ....qs02E.......
0420: FF FF 7F 71 73 30 33 03  80 66 00 80 F8 FF FF 7F  ...qs03..f......
0430: F8 FF FF 7F 74 68 6B 32  1D 2A 80 23 53 F8 FF FF  ....thk2.*.#S...
0440: 7F F8 FF FF 7F 74 68 6B  32 52 02 80 F0 FF FF 7F  .....thk2R......
0450: F0 FF FF 7F 71 73 30 33  45 02 80 F0 FF FF 7F F0  ....qs03E.......
0460: FF FF 7F 71 73 30 34 03  80 66 00 80 F8 FF FF 7F  ...qs04..f......
0470: F8 FF FF 7F 70 61 73 30  1D 2B 80 23 45 2C 80 F0  ....pas0.+.#E,..
0480: FF FF 7F F0 FF FF 7F 71  73 74 63 03 80 1A A2 05  .......qstc.....
0490: 21 00                                             !.              
```

#### Opcodes

```
  0: 0x03C8 [0x1A] CALL_SUBROUTINE(address=0x0567)
  1: 0x03CB [0x1A] CALL_SUBROUTINE(address=0x05BC)
  2: 0x03CE [0x1D] PRINT_EVENT_MESSAGE(message_id=10879*)
    → "I wath wondering when you'd get back, <Player>. I've finally finithed my thethith! I'm ready to give you your jutht reward."
  3: 0x03D1 [0x23] WAIT_FOR_DIALOG_INTERACTION
  4: 0x03D2 [0x52] END_LOAD_SCHEDULER: End scheduler "qs01" with entities [LocalPlayer, LocalPlayer], work=215*
  5: 0x03E1 [0x45] LOAD_SCHEDULED_TASK: Load scheduler "qs02" with entities [LocalPlayer, LocalPlayer], work=[215*, 0*]
  6: 0x03F2 [0x66] LOAD_EXT_SCHEDULER_MAIN: Load scheduler "thk1" with entities [EventEntity, EventEntity], work=20*
  7: 0x0401 [0x1D] PRINT_EVENT_MESSAGE(message_id=10880*)
    → "But who would have thought that thuch powerful fortheth exthithted on Vana'diel. It maketh you wonder if the itemth are really even from thith world at all..."
  8: 0x0404 [0x23] WAIT_FOR_DIALOG_INTERACTION
  9: 0x0405 [0x1D] PRINT_EVENT_MESSAGE(message_id=10881*)
    → "The power in them ith almotht divine... Hey, where did you get thethe anyway?"
 10: 0x0408 [0x23] WAIT_FOR_DIALOG_INTERACTION
 11: 0x0409 [0x52] END_LOAD_SCHEDULER: End scheduler "qs02" with entities [LocalPlayer, LocalPlayer], work=215*
 12: 0x0418 [0x45] LOAD_SCHEDULED_TASK: Load scheduler "qs03" with entities [LocalPlayer, LocalPlayer], work=[215*, 0*]
 13: 0x0429 [0x66] LOAD_EXT_SCHEDULER_MAIN: Load scheduler "thk2" with entities [EventEntity, EventEntity], work=20*
 14: 0x0438 [0x1D] PRINT_EVENT_MESSAGE(message_id=10882*)
    → "Oh, you don't have to anthwer, and I don't want to know anyway. The truth ith out there for you adventurerth to find. It ith of no matter to little old boyth like me. Tee-hee-hee!"
 15: 0x043B [0x23] WAIT_FOR_DIALOG_INTERACTION
 16: 0x043C [0x53] WAIT_SCHEDULER_TASK: Wait for scheduler "thk2" with entities [EventEntity, EventEntity]
 17: 0x0449 [0x52] END_LOAD_SCHEDULER: End scheduler "qs03" with entities [LocalPlayer, LocalPlayer], work=215*
 18: 0x0458 [0x45] LOAD_SCHEDULED_TASK: Load scheduler "qs04" with entities [LocalPlayer, LocalPlayer], work=[215*, 0*]
 19: 0x0469 [0x66] LOAD_EXT_SCHEDULER_MAIN: Load scheduler "pas0" with entities [EventEntity, EventEntity], work=20*
 20: 0x0478 [0x1D] PRINT_EVENT_MESSAGE(message_id=10883*)
    → "Here'th your reward--the thweet fruitth of my labor. You more than detherve it!"
 21: 0x047B [0x23] WAIT_FOR_DIALOG_INTERACTION
 22: 0x047C [0x45] LOAD_SCHEDULED_TASK: Load scheduler "qstc" with entities [LocalPlayer, LocalPlayer], work=[201*, 0*]
 23: 0x048D [0x1A] CALL_SUBROUTINE(address=0x05A2)
 24: 0x0490 [0x21] END_EVENT
 25: 0x0491 [0x00] END_REQSTACK()
```

### Event 198

#### Metadata

| Field        | Value    |
|--------------|----------|
| Entrypoint   | 0x0492   |
| Data Size    | 60 bytes |
| Instructions | 12       |

```
      00 01 02 03 04 05 06 07  08 09 0A 0B 0C 0D 0E 0F
      -- -- -- -- -- -- -- --  -- -- -- -- -- -- -- --
0490:       1A BC 05 66 00 80  F8 FF FF 7F F8 FF FF 7F    ...f..........
04A0: 74 68 6B 31 1D 28 80 23  1D 29 80 23 66 00 80 F8  thk1.(.#.).#f...
04B0: FF FF 7F F8 FF FF 7F 74  68 6B 32 1D 2A 80 23 53  .......thk2.*.#S
04C0: F8 FF FF 7F F8 FF FF 7F  74 68 6B 32 21 00        ........thk2!.  
```

#### Opcodes

```
  0: 0x0492 [0x1A] CALL_SUBROUTINE(address=0x05BC)
  1: 0x0495 [0x66] LOAD_EXT_SCHEDULER_MAIN: Load scheduler "thk1" with entities [EventEntity, EventEntity], work=20*
  2: 0x04A4 [0x1D] PRINT_EVENT_MESSAGE(message_id=10880*)
    → "But who would have thought that thuch powerful fortheth exthithted on Vana'diel. It maketh you wonder if the itemth are really even from thith world at all..."
  3: 0x04A7 [0x23] WAIT_FOR_DIALOG_INTERACTION
  4: 0x04A8 [0x1D] PRINT_EVENT_MESSAGE(message_id=10881*)
    → "The power in them ith almotht divine... Hey, where did you get thethe anyway?"
  5: 0x04AB [0x23] WAIT_FOR_DIALOG_INTERACTION
  6: 0x04AC [0x66] LOAD_EXT_SCHEDULER_MAIN: Load scheduler "thk2" with entities [EventEntity, EventEntity], work=20*
  7: 0x04BB [0x1D] PRINT_EVENT_MESSAGE(message_id=10882*)
    → "Oh, you don't have to anthwer, and I don't want to know anyway. The truth ith out there for you adventurerth to find. It ith of no matter to little old boyth like me. Tee-hee-hee!"
  8: 0x04BE [0x23] WAIT_FOR_DIALOG_INTERACTION
  9: 0x04BF [0x53] WAIT_SCHEDULER_TASK: Wait for scheduler "thk2" with entities [EventEntity, EventEntity]
 10: 0x04CC [0x21] END_EVENT
 11: 0x04CD [0x00] END_REQSTACK()
```

### Event 243

#### Metadata

| Field        | Value      |
|--------------|------------|
| Entrypoint   | 0x04CE     |
| Data Size    | 1117 bytes |
| Instructions | 34         |

```
      00 01 02 03 04 05 06 07  08 09 0A 0B 0C 0D 0E 0F
      -- -- -- -- -- -- -- --  -- -- -- -- -- -- -- --
04C0:                                            1A BC                ..
04D0: 05 66 1B 80 F8 FF FF 7F  F8 FF FF 7F 6F 72 6F 30  .f..........oro0
04E0: 1D 2D 80 23 66 1B 80 F8  FF FF 7F F8 FF FF 7F 6F  .-.#f..........o
04F0: 72 6F 31 53 F8 FF FF 7F  F8 FF FF 7F 6F 72 6F 30  ro1S........oro0
0500: 66 00 80 F8 FF FF 7F F8  FF FF 7F 74 68 6B 31 1C  f..........thk1.
0510: 2E 80 1D 2F 80 23 1D 30  80 23 66 00 80 F8 FF FF  .../.#.0.#f.....
0520: 7F F8 FF FF 7F 74 68 6B  32 24 31 80 03 80 03 80  .....thk2$1.....
0530: 25 02 00 10 03 80 00 41  05 03 01 10 03 80 01 65  %......A.......e
0540: 05 02 00 10 0F 80 00 65  05 42 6E F0 FF FF 7F 32  .......e.Bn....2
0550: 80 99 F0 FF FF 7F 1C 33  80 1D 34 80 23 03 01 10  .......3..4.#...
0560: 0F 80 01 65 05 21 00 42  1A FD 06 46 01 38 35 80  ...e.!.B...F.85.
0570: 29 10 F0 FF FF 7F 26 80  F0 FF FF 7F 1C 0F 80 45  ).....&........E
0580: 02 80 F0 FF FF 7F F0 FF  FF 7F 71 73 30 31 03 80  ..........qs01..
0590: 45 36 80 F0 FF FF 7F F0  FF FF 7F 66 64 69 32 03  E6.........fdi2.
05A0: 80 1B 1A FD 06 1C 2E 80  46 00 45 36 80 F0 FF FF  ........F.E6....
05B0: 7F F0 FF FF 7F 66 64 69  32 03 80 1B 86 00 F8 FF  .....fdi2.......
05C0: FF 7F 1E F0 FF FF 7F 6F  70 1B 66 03 80 F8 FF FF  .......op.f.....
05D0: 7F F8 FF FF 7F 74 6C 6B  30 1B 66 03 80 F8 FF FF  .....tlk0.f.....
05E0: 7F F8 FF FF 7F 74 6C 6B  31 1B 66 37 80 F8 FF FF  .....tlk1.f7....
05F0: 7F F8 FF FF 7F 74 6C 6B  30 1B 66 00 80 F8 FF FF  .....tlk0.f.....
0600: 7F F8 FF FF 7F 74 6C 6B  30 1B 66 2E 80 F8 FF FF  .....tlk0.f.....
0610: 7F F8 FF FF 7F 74 6C 6B  30 1B 66 38 80 F8 FF FF  .....tlk0.f8....
0620: 7F F8 FF FF 7F 74 6C 6B  30 1B 66 39 80 F8 FF FF  .....tlk0.f9....
0630: 7F F8 FF FF 7F 74 6C 6B  30 1B 66 3A 80 F8 FF FF  .....tlk0.f:....
0640: 7F F8 FF FF 7F 74 6C 6B  30 1B 5B 3B 80 F8 FF FF  .....tlk0.[;....
0650: 7F F8 FF FF 7F 74 6C 6B  30 1B 5B 3C 80 F8 FF FF  .....tlk0.[<....
0660: 7F F8 FF FF 7F 74 6C 6B  30 1B 5B 3D 80 F8 FF FF  .....tlk0.[=....
0670: 7F F8 FF FF 7F 74 6C 6B  30 1B 5B 3E 80 F8 FF FF  .....tlk0.[>....
0680: 7F F8 FF FF 7F 74 6C 6B  30 1B 5B 3A 80 F8 FF FF  .....tlk0.[:....
0690: 7F F8 FF FF 7F 74 6C 62  30 1B 45 36 80 F0 FF FF  .....tlb0.E6....
06A0: 7F F0 FF FF 7F 66 64 69  30 03 80 55 36 80 F0 FF  .....fdi0..U6...
06B0: FF 7F F0 FF FF 7F 66 64  69 30 1B 45 36 80 F0 FF  ......fdi0.E6...
06C0: FF 7F F0 FF FF 7F 66 64  6F 30 03 80 55 36 80 F0  ......fdo0..U6..
06D0: FF FF 7F F0 FF FF 7F 66  64 6F 30 1B 45 36 80 F0  .......fdo0.E6..
06E0: FF FF 7F F0 FF FF 7F 66  64 69 31 03 80 55 36 80  .......fdi1..U6.
06F0: F0 FF FF 7F F0 FF FF 7F  66 64 69 31 1B 45 36 80  ........fdi1.E6.
0700: F0 FF FF 7F F0 FF FF 7F  66 64 6F 31 03 80 55 36  ........fdo1..U6
0710: 80 F0 FF FF 7F F0 FF FF  7F 66 64 6F 31 1B 45 2C  .........fdo1.E,
0720: 80 F0 FF FF 7F F0 FF FF  7F 77 68 69 31 03 80 55  .........whi1..U
0730: 2C 80 F0 FF FF 7F F0 FF  FF 7F 77 68 69 31 1B 45  ,.........whi1.E
0740: 2C 80 F0 FF FF 7F F0 FF  FF 7F 77 68 6F 31 03 80  ,.........who1..
0750: 55 2C 80 F0 FF FF 7F F0  FF FF 7F 77 68 6F 31 1B  U,.........who1.
0760: 45 2C 80 F0 FF FF 7F F0  FF FF 7F 77 68 6F 32 03  E,.........who2.
0770: 80 55 2C 80 F0 FF FF 7F  F0 FF FF 7F 77 68 6F 32  .U,.........who2
0780: 1B 45 2C 80 F0 FF FF 7F  F0 FF FF 7F 77 68 6F 33  .E,.........who3
0790: 03 80 55 2C 80 F0 FF FF  7F F0 FF FF 7F 77 68 6F  ..U,.........who
07A0: 33 1B 62 0F 80 F0 FF FF  7F F0 FF FF 7F 6D 61 69  3.b..........mai
07B0: 6E 03 80 1C 23 80 45 36  80 F0 FF FF 7F F0 FF FF  n...#.E6........
07C0: 7F 66 64 6F 31 03 80 55  36 80 F0 FF FF 7F F0 FF  .fdo1..U6.......
07D0: FF 7F 66 64 6F 31 1B 45  36 80 F0 FF FF 7F F0 FF  ..fdo1.E6.......
07E0: FF 7F 66 64 69 31 03 80  62 3F 80 F0 FF FF 7F F0  ..fdi1..b?......
07F0: FF FF 7F 6D 61 69 6E 03  80 1C 2E 80 55 36 80 F0  ...main.....U6..
0800: FF FF 7F F0 FF FF 7F 66  64 69 31 1B 45 36 80 F0  .......fdi1.E6..
0810: FF FF 7F F0 FF FF 7F 62  6C 6F 6E 03 80 45 2C 80  .......blon..E,.
0820: F0 FF FF 7F F0 FF FF 7F  62 6C 6F 6E 03 80 1B 45  ........blon...E
0830: 2C 80 F0 FF FF 7F F0 FF  FF 7F 77 68 69 30 03 80  ,.........whi0..
0840: 55 2C 80 F0 FF FF 7F F0  FF FF 7F 77 68 69 30 1B  U,.........whi0.
0850: 45 2C 80 F0 FF FF 7F F0  FF FF 7F 77 68 6F 30 03  E,.........who0.
0860: 80 55 2C 80 F0 FF FF 7F  F0 FF FF 7F 77 68 6F 30  .U,.........who0
0870: 1B 45 02 80 F0 FF FF 7F  F0 FF FF 7F 65 66 6F 6E  .E..........efon
0880: 03 80 55 02 80 F0 FF FF  7F F0 FF FF 7F 65 66 6F  ..U..........efo
0890: 6E 1B 45 36 80 F0 FF FF  7F F0 FF FF 7F 66 64 69  n.E6.........fdi
08A0: 73 03 80 1B 45 36 80 F0  FF FF 7F F0 FF FF 7F 66  s...E6.........f
08B0: 64 6F 73 03 80 55 36 80  F0 FF FF 7F F0 FF FF 7F  dos..U6.........
08C0: 66 64 6F 73 1B 45 36 80  F0 FF FF 7F F0 FF FF 7F  fdos.E6.........
08D0: 66 64 69 66 03 80 1B 45  36 80 F0 FF FF 7F F0 FF  fdif...E6.......
08E0: FF 7F 66 64 6F 66 03 80  55 36 80 F0 FF FF 7F F0  ..fdof..U6......
08F0: FF FF 7F 66 64 6F 66 1B  45 36 80 F0 FF FF 7F F0  ...fdof.E6......
0900: FF FF 7F 66 64 69 70 03  80 1B 45 36 80 F0 FF FF  ...fdip...E6....
0910: 7F F0 FF FF 7F 66 64 6F  70 03 80 55 36 80 F0 FF  .....fdop..U6...
0920: FF 7F F0 FF FF 7F 66 64  6F 70 1B                 ......fdop.     
```

#### Opcodes

```
  0: 0x04CE [0x1A] CALL_SUBROUTINE(address=0x05BC)
  1: 0x04D1 [0x66] LOAD_EXT_SCHEDULER_MAIN: Load scheduler "oro0" with entities [EventEntity, EventEntity], work=26*
  2: 0x04E0 [0x1D] PRINT_EVENT_MESSAGE(message_id=10884*)
    → "Why, if it ithn't <Player>! Tho good of you to pay your old friend Mama a vith-- What!? You went and mithplathed the prethiouth ring I gave you!? I...I can't believe I'm hearing thith..."
  3: 0x04E3 [0x23] WAIT_FOR_DIALOG_INTERACTION
  4: 0x04E4 [0x66] LOAD_EXT_SCHEDULER_MAIN: Load scheduler "oro1" with entities [EventEntity, EventEntity], work=26*
  5: 0x04F3 [0x53] WAIT_SCHEDULER_TASK: Wait for scheduler "oro0" with entities [EventEntity, EventEntity]
  6: 0x0500 [0x66] LOAD_EXT_SCHEDULER_MAIN: Load scheduler "thk1" with entities [EventEntity, EventEntity], work=20*
  7: 0x050F [0x1C] WAIT(30* ticks)
  8: 0x0512 [0x1D] PRINT_EVENT_MESSAGE(message_id=10885*)
    → "Why, I'm abtholutely thtruck thpeethleth that you would treat the token of my apprethiathion with thuch callouthneth. <Thigh>... What'th done ith done, I thuppothe. And the hangdog exthprethion you wear ith evidenthe enough of your remorthe."
  9: 0x0515 [0x23] WAIT_FOR_DIALOG_INTERACTION
 10: 0x0516 [0x1D] PRINT_EVENT_MESSAGE(message_id=10886*)
    → "Being the kindly thoul that I am, I've dethided to give you another chanthe. Deliver me the thelfthame itemth ath latht time, and I thall whip up another ring for you. How doeth that thound, hmmm?"
 11: 0x0519 [0x23] WAIT_FOR_DIALOG_INTERACTION
 12: 0x051A [0x66] LOAD_EXT_SCHEDULER_MAIN: Load scheduler "thk2" with entities [EventEntity, EventEntity], work=20*
 13: 0x0529 [0x24] CREATE_DIALOG(message_id=10887*, default_option=0*, option_flags=0*)
    → "Tho, what will it be? [Perhapth another time./I'll do it!]"
 14: 0x0530 [0x25] WAIT_DIALOG_SELECT()
 15: 0x0531 [0x02] IF !(Work_Zone[0] == 0*) GOTO 0x0541
 16: 0x0539 [0x03] Work_Zone[1] = 0*
 17: 0x053E [0x01] GOTO 0x0565
 18: 0x0541 [0x02] IF !(Work_Zone[0] == 1*) GOTO 0x0565
 19: 0x0549 [0x42] SET_CLI_EVENT_CANCEL_DATA()
 20: 0x054A [0x6E] LocalPlayer uses emote 7*
 21: 0x0551 [0x99] Wait for LocalPlayer animation to complete
 22: 0x0556 [0x1C] WAIT(90* ticks)
 23: 0x0559 [0x1D] PRINT_EVENT_MESSAGE(message_id=10888*)
    → "Very well, [mithter/mithy]. I thall await retheipt of the thuper thpethial itemth onthe more...jutht like the good old dayth! Tee-hee!"
 24: 0x055C [0x23] WAIT_FOR_DIALOG_INTERACTION
 25: 0x055D [0x03] Work_Zone[1] = 1*
 26: 0x0562 [0x01] GOTO 0x0565

SUBROUTINE_0565:
 27: 0x0565 [0x21] END_EVENT
 28: 0x0566 [0x00] END_REQSTACK()

SUBROUTINE_05BC:
 29: 0x05BC [0x86] EventEntity->Render.Flags3 = Flags3  // No change (flag=0)
 30: 0x05C2 [0x1E] EventEntity looks at LocalPlayer and starts talking
 31: 0x05C7 [0x6F] WAIT_FRAME_DELAY: Yield until WaitTime reaches zero
 32: 0x05C8 [0x70] WAIT_ENTITY_RENDER_FLAG: Wait while EventEntity->Render.Flags3 bit 2 is set (cancel turn if not)
 33: 0x05C9 [0x1B] RETURN
```

#### Data or dead code:

```
# Dead code (unreachable instructions):
     0x0567 [0x42] SET_CLI_EVENT_CANCEL_DATA()
     0x0568 [0x1A] CALL_SUBROUTINE(address=0x06FD)
     0x056B [0x46] CAMERA_CONTROL: Disable user control
     0x056D [0x38] SET_CLIENT_EVENT_MODE(mode=19*)
     0x0570 [0x29] REQ_SET_WAIT(priority=0x10, entity_id=LocalPlayer, tag_num=0x26)
     0x0577 [0x80] LOAD_WAIT(entity=LocalPlayer)
     0x057C [0x1C] WAIT(1* ticks)
     0x057F [0x45] LOAD_SCHEDULED_TASK: Load scheduler "qs01" with entities [LocalPlayer, LocalPlayer], work=[215*, 0*]
     0x0590 [0x45] LOAD_SCHEDULED_TASK: Load scheduler "fdi2" with entities [LocalPlayer, LocalPlayer], work=[200*, 0*]
     0x05A1 [0x1B] RETURN
     0x05A2 [0x1A] CALL_SUBROUTINE(address=0x06FD)
     0x05A5 [0x1C] WAIT(30* ticks)
     0x05A8 [0x46] CAMERA_CONTROL: Restore default settings
     0x05AA [0x45] LOAD_SCHEDULED_TASK: Load scheduler "fdi2" with entities [LocalPlayer, LocalPlayer], work=[200*, 0*]
     0x05BB [0x1B] RETURN
# Dead code (unreachable instructions):
     0x05CA [0x66] LOAD_EXT_SCHEDULER_MAIN: Load scheduler "tlk0" with entities [EventEntity, EventEntity], work=0*
     0x05D9 [0x1B] RETURN
     0x05DA [0x66] LOAD_EXT_SCHEDULER_MAIN: Load scheduler "tlk1" with entities [EventEntity, EventEntity], work=0*
     0x05E9 [0x1B] RETURN
     0x05EA [0x66] LOAD_EXT_SCHEDULER_MAIN: Load scheduler "tlk0" with entities [EventEntity, EventEntity], work=10*
     0x05F9 [0x1B] RETURN
     0x05FA [0x66] LOAD_EXT_SCHEDULER_MAIN: Load scheduler "tlk0" with entities [EventEntity, EventEntity], work=20*
     0x0609 [0x1B] RETURN
     0x060A [0x66] LOAD_EXT_SCHEDULER_MAIN: Load scheduler "tlk0" with entities [EventEntity, EventEntity], work=30*
     0x0619 [0x1B] RETURN
     0x061A [0x66] LOAD_EXT_SCHEDULER_MAIN: Load scheduler "tlk0" with entities [EventEntity, EventEntity], work=40*
     0x0629 [0x1B] RETURN
     0x062A [0x66] LOAD_EXT_SCHEDULER_MAIN: Load scheduler "tlk0" with entities [EventEntity, EventEntity], work=50*
     0x0639 [0x1B] RETURN
     0x063A [0x66] LOAD_EXT_SCHEDULER_MAIN: Load scheduler "tlk0" with entities [EventEntity, EventEntity], work=60*
     0x0649 [0x1B] RETURN
     0x064A [0x5B] LOAD_EXT_SCHEDULER: Load scheduler "tlk0" with entities [EventEntity, EventEntity], work=5*
     0x0659 [0x1B] RETURN
     0x065A [0x5B] LOAD_EXT_SCHEDULER: Load scheduler "tlk0" with entities [EventEntity, EventEntity], work=80*
     0x0669 [0x1B] RETURN
     0x066A [0x5B] LOAD_EXT_SCHEDULER: Load scheduler "tlk0" with entities [EventEntity, EventEntity], work=238*
     0x0679 [0x1B] RETURN
     0x067A [0x5B] LOAD_EXT_SCHEDULER: Load scheduler "tlk0" with entities [EventEntity, EventEntity], work=566*
     0x0689 [0x1B] RETURN
     0x068A [0x5B] LOAD_EXT_SCHEDULER: Load scheduler "tlb0" with entities [EventEntity, EventEntity], work=60*
     0x0699 [0x1B] RETURN
     0x069A [0x45] LOAD_SCHEDULED_TASK: Load scheduler "fdi0" with entities [LocalPlayer, LocalPlayer], work=[200*, 0*]
     0x06AB [0x55] WAIT_LOAD_SCHEDULER: Wait for scheduler "fdi0" with entities [LocalPlayer, LocalPlayer], work=200*
     0x06BA [0x1B] RETURN
     0x06BB [0x45] LOAD_SCHEDULED_TASK: Load scheduler "fdo0" with entities [LocalPlayer, LocalPlayer], work=[200*, 0*]
     0x06CC [0x55] WAIT_LOAD_SCHEDULER: Wait for scheduler "fdo0" with entities [LocalPlayer, LocalPlayer], work=200*
     0x06DB [0x1B] RETURN
     0x06DC [0x45] LOAD_SCHEDULED_TASK: Load scheduler "fdi1" with entities [LocalPlayer, LocalPlayer], work=[200*, 0*]
     0x06ED [0x55] WAIT_LOAD_SCHEDULER: Wait for scheduler "fdi1" with entities [LocalPlayer, LocalPlayer], work=200*
     0x06FC [0x1B] RETURN
     0x06FD [0x45] LOAD_SCHEDULED_TASK: Load scheduler "fdo1" with entities [LocalPlayer, LocalPlayer], work=[200*, 0*]
     0x070E [0x55] WAIT_LOAD_SCHEDULER: Wait for scheduler "fdo1" with entities [LocalPlayer, LocalPlayer], work=200*
     0x071D [0x1B] RETURN
     0x071E [0x45] LOAD_SCHEDULED_TASK: Load scheduler "whi1" with entities [LocalPlayer, LocalPlayer], work=[201*, 0*]
     0x072F [0x55] WAIT_LOAD_SCHEDULER: Wait for scheduler "whi1" with entities [LocalPlayer, LocalPlayer], work=201*
     0x073E [0x1B] RETURN
     0x073F [0x45] LOAD_SCHEDULED_TASK: Load scheduler "who1" with entities [LocalPlayer, LocalPlayer], work=[201*, 0*]
     0x0750 [0x55] WAIT_LOAD_SCHEDULER: Wait for scheduler "who1" with entities [LocalPlayer, LocalPlayer], work=201*
     0x075F [0x1B] RETURN
     0x0760 [0x45] LOAD_SCHEDULED_TASK: Load scheduler "who2" with entities [LocalPlayer, LocalPlayer], work=[201*, 0*]
     0x0771 [0x55] WAIT_LOAD_SCHEDULER: Wait for scheduler "who2" with entities [LocalPlayer, LocalPlayer], work=201*
     0x0780 [0x1B] RETURN
     0x0781 [0x45] LOAD_SCHEDULED_TASK: Load scheduler "who3" with entities [LocalPlayer, LocalPlayer], work=[201*, 0*]
     0x0792 [0x55] WAIT_LOAD_SCHEDULER: Wait for scheduler "who3" with entities [LocalPlayer, LocalPlayer], work=201*
     0x07A1 [0x1B] RETURN
     0x07A2 [0x62] LOAD_EVENT_SCHEDULER: Load scheduler "main" with entities [LocalPlayer, LocalPlayer], work=[1*, 0*]
     0x07B3 [0x1C] WAIT(45* ticks)
     0x07B6 [0x45] LOAD_SCHEDULED_TASK: Load scheduler "fdo1" with entities [LocalPlayer, LocalPlayer], work=[200*, 0*]
     0x07C7 [0x55] WAIT_LOAD_SCHEDULER: Wait for scheduler "fdo1" with entities [LocalPlayer, LocalPlayer], work=200*
     0x07D6 [0x1B] RETURN
     0x07D7 [0x45] LOAD_SCHEDULED_TASK: Load scheduler "fdi1" with entities [LocalPlayer, LocalPlayer], work=[200*, 0*]
     0x07E8 [0x62] LOAD_EVENT_SCHEDULER: Load scheduler "main" with entities [LocalPlayer, LocalPlayer], work=[2*, 0*]
     0x07F9 [0x1C] WAIT(30* ticks)
     0x07FC [0x55] WAIT_LOAD_SCHEDULER: Wait for scheduler "fdi1" with entities [LocalPlayer, LocalPlayer], work=200*
     0x080B [0x1B] RETURN
     0x080C [0x45] LOAD_SCHEDULED_TASK: Load scheduler "blon" with entities [LocalPlayer, LocalPlayer], work=[200*, 0*]
     0x081D [0x45] LOAD_SCHEDULED_TASK: Load scheduler "blon" with entities [LocalPlayer, LocalPlayer], work=[201*, 0*]
     0x082E [0x1B] RETURN
     0x082F [0x45] LOAD_SCHEDULED_TASK: Load scheduler "whi0" with entities [LocalPlayer, LocalPlayer], work=[201*, 0*]
     0x0840 [0x55] WAIT_LOAD_SCHEDULER: Wait for scheduler "whi0" with entities [LocalPlayer, LocalPlayer], work=201*
     0x084F [0x1B] RETURN
     0x0850 [0x45] LOAD_SCHEDULED_TASK: Load scheduler "who0" with entities [LocalPlayer, LocalPlayer], work=[201*, 0*]
     0x0861 [0x55] WAIT_LOAD_SCHEDULER: Wait for scheduler "who0" with entities [LocalPlayer, LocalPlayer], work=201*
     0x0870 [0x1B] RETURN
     0x0871 [0x45] LOAD_SCHEDULED_TASK: Load scheduler "efon" with entities [LocalPlayer, LocalPlayer], work=[215*, 0*]
     0x0882 [0x55] WAIT_LOAD_SCHEDULER: Wait for scheduler "efon" with entities [LocalPlayer, LocalPlayer], work=215*
     0x0891 [0x1B] RETURN
     0x0892 [0x45] LOAD_SCHEDULED_TASK: Load scheduler "fdis" with entities [LocalPlayer, LocalPlayer], work=[200*, 0*]
     0x08A3 [0x1B] RETURN
     0x08A4 [0x45] LOAD_SCHEDULED_TASK: Load scheduler "fdos" with entities [LocalPlayer, LocalPlayer], work=[200*, 0*]
     0x08B5 [0x55] WAIT_LOAD_SCHEDULER: Wait for scheduler "fdos" with entities [LocalPlayer, LocalPlayer], work=200*
     0x08C4 [0x1B] RETURN
     0x08C5 [0x45] LOAD_SCHEDULED_TASK: Load scheduler "fdif" with entities [LocalPlayer, LocalPlayer], work=[200*, 0*]
     0x08D6 [0x1B] RETURN
     0x08D7 [0x45] LOAD_SCHEDULED_TASK: Load scheduler "fdof" with entities [LocalPlayer, LocalPlayer], work=[200*, 0*]
     0x08E8 [0x55] WAIT_LOAD_SCHEDULER: Wait for scheduler "fdof" with entities [LocalPlayer, LocalPlayer], work=200*
     0x08F7 [0x1B] RETURN
     0x08F8 [0x45] LOAD_SCHEDULED_TASK: Load scheduler "fdip" with entities [LocalPlayer, LocalPlayer], work=[200*, 0*]
     0x0909 [0x1B] RETURN
     0x090A [0x45] LOAD_SCHEDULED_TASK: Load scheduler "fdop" with entities [LocalPlayer, LocalPlayer], work=[200*, 0*]
     0x091B [0x55] WAIT_LOAD_SCHEDULER: Wait for scheduler "fdop" with entities [LocalPlayer, LocalPlayer], work=200*
     0x092A [0x1B] RETURN
```
