# 17809541

## Common Data

| Field            | Value          |
|------------------|----------------|
| Zone             | Norg (ID: 252) |
| Block Size       | 38120 bytes    |
| Total Events     | 12             |
| References Count | 690            |

## List of Events

| Event ID              | Entrypoint   |   Size |   Instructions |
|-----------------------|--------------|--------|----------------|
| [65535](#event-65535) | 0x0000       |      1 |              1 |
| [276](#event-276)     | 0x0001       |   5194 |            582 |
| [277](#event-277)     | 0x144B       |   3693 |            402 |
| [278](#event-278)     | 0x22B8       |   3125 |            380 |
| [279](#event-279)     | 0x2EED       |   1674 |            191 |
| [284](#event-284)     | 0x3577       |   4293 |            489 |
| [285](#event-285)     | 0x463C       |    847 |            101 |
| [286](#event-286)     | 0x498B       |   1120 |            139 |
| [287](#event-287)     | 0x4DEB       |   2347 |            264 |
| [288](#event-288)     | 0x5716       |   5682 |            637 |
| [289](#event-289)     | 0x6D48       |   1534 |            188 |
| [290](#event-290)     | 0x7346       |   5786 |            670 |

## DAT References (imed_data)

|   Index | Hex Value   |   Dec Value |
|---------|-------------|-------------|
|       0 | 0x00C8      |         200 |
|       1 | 0x0000      |           0 |
|       2 | 0x001B      |          27 |
|       3 | 0x181F9     |       98809 |
|       4 | 0xFFFFD14A  |  4294955338 |
|       5 | 0xFFFFE452  |  4294960210 |
|       6 | 0x0167      |         359 |
|       7 | 0x001E      |          30 |
|       8 | 0x02F9      |         761 |
|       9 | 0x000F      |          15 |
|      10 | 0x3034      |       12340 |
|      11 | 0x0078      |         120 |
|      12 | 0x0003      |           3 |
|      13 | 0x00FF      |         255 |
|      14 | 0x0202      |         514 |
|      15 | 0x1D39D     |      119709 |
|      16 | 0xFFFFD134  |  4294955316 |
|      17 | 0xFFFFE0B7  |  4294959287 |
|      18 | 0x0019      |          25 |
|      19 | 0x1D620     |      120352 |
|      20 | 0xFFFFC658  |  4294952536 |
|      21 | 0x0C5F      |        3167 |
|      22 | 0x18A56     |      100950 |
|      23 | 0xFFFFD15E  |  4294955358 |
|      24 | 0x0005      |           5 |
|      25 | 0x0236      |         566 |
|      26 | 0x0096      |         150 |
|      27 | 0x003C      |          60 |
|      28 | 0x3035      |       12341 |
|      29 | 0x004F      |          79 |
|      30 | 0x0F1C      |        3868 |
|      31 | 0x005A      |          90 |
|      32 | 0x3036      |       12342 |
|      33 | 0x0046      |          70 |
|      34 | 0x1A8DC     |      108764 |
|      35 | 0xFFFFD0CE  |  4294955214 |
|      36 | 0x0F12      |        3858 |
|      37 | 0x1C65C     |      116316 |
|      38 | 0xFFFFD12C  |  4294955308 |
|      39 | 0x080D      |        2061 |
|      40 | 0x1C1F0     |      115184 |
|      41 | 0xFFFFD4EA  |  4294956266 |
|      42 | 0xFFFFE19F  |  4294959519 |
|      43 | 0x0F15      |        3861 |
|      44 | 0x3037      |       12343 |
|      45 | 0x3038      |       12344 |
|      46 | 0x3039      |       12345 |
|      47 | 0x303A      |       12346 |
|      48 | 0x303B      |       12347 |
|      49 | 0x303C      |       12348 |
|      50 | 0x303D      |       12349 |
|      51 | 0x0007      |           7 |
|      52 | 0x303E      |       12350 |
|      53 | 0x0F16      |        3862 |
|      54 | 0x303F      |       12351 |
|      55 | 0x0082      |         130 |
|      56 | 0x3040      |       12352 |
|      57 | 0x3041      |       12353 |
|      58 | 0x3042      |       12354 |
|      59 | 0x00B9      |         185 |
|      60 | 0x3043      |       12355 |
|      61 | 0x3044      |       12356 |
|      62 | 0x0F17      |        3863 |
|      63 | 0x3045      |       12357 |
|      64 | 0x0015      |          21 |
|      65 | 0x3046      |       12358 |
|      66 | 0x3047      |       12359 |
|      67 | 0x3048      |       12360 |
|      68 | 0x3049      |       12361 |
|      69 | 0x304A      |       12362 |
|      70 | 0x304B      |       12363 |
|      71 | 0x304C      |       12364 |
|      72 | 0x0020      |          32 |
|      73 | 0x304D      |       12365 |
|      74 | 0x0001      |           1 |
|      75 | 0x304E      |       12366 |
|      76 | 0x1ACE3     |      109795 |
|      77 | 0xFFFFD56D  |  4294956397 |
|      78 | 0x0FFA      |        4090 |
|      79 | 0x0014      |          20 |
|      80 | 0x304F      |       12367 |
|      81 | 0x3050      |       12368 |
|      82 | 0x3051      |       12369 |
|      83 | 0x3052      |       12370 |
|      84 | 0x3053      |       12371 |
|      85 | 0x3054      |       12372 |
|      86 | 0x3055      |       12373 |
|      87 | 0x3056      |       12374 |
|      88 | 0x3057      |       12375 |
|      89 | 0xFFFFFF5A  |  4294967130 |
|      90 | 0x03E8      |        1000 |
|      91 | 0x0514      |        1300 |
|      92 | 0x012C      |         300 |
|      93 | 0x3058      |       12376 |
|      94 | 0xFFFFFF5B  |  4294967131 |
|      95 | 0x3059      |       12377 |
|      96 | 0x305A      |       12378 |
|      97 | 0x305B      |       12379 |
|      98 | 0x305C      |       12380 |
|      99 | 0xFFFFFF59  |  4294967129 |
|     100 | 0x67B6      |       26550 |
|     101 | 0xFFFFF95C  |  4294965596 |
|     102 | 0x305D      |       12381 |
|     103 | 0x305E      |       12382 |
|     104 | 0x000C      |          12 |
|     105 | 0x1CD3B     |      118075 |
|     106 | 0xFFFFD5BD  |  4294956477 |
|     107 | 0xFFFED144  |  4294889796 |
|     108 | 0x1D1A7     |      119207 |
|     109 | 0xFFFFC9BC  |  4294953404 |
|     110 | 0xFFFED5C0  |  4294890944 |
|     111 | 0x0B23      |        2851 |
|     112 | 0x0066      |         102 |
|     113 | 0x0F1A      |        3866 |
|     114 | 0x305F      |       12383 |
|     115 | 0x3060      |       12384 |
|     116 | 0x0064      |         100 |
|     117 | 0x3061      |       12385 |
|     118 | 0xFFFECF50  |  4294889296 |
|     119 | 0x0F1B      |        3867 |
|     120 | 0x000A      |          10 |
|     121 | 0x005D      |          93 |
|     122 | 0x1B298     |      111256 |
|     123 | 0xFFFFD119  |  4294955289 |
|     124 | 0x0F26      |        3878 |
|     125 | 0x2778      |       10104 |
|     126 | 0x3062      |       12386 |
|     127 | 0x3063      |       12387 |
|     128 | 0x0F13      |        3859 |
|     129 | 0x3064      |       12388 |
|     130 | 0x008C      |         140 |
|     131 | 0x0067      |         103 |
|     132 | 0x3065      |       12389 |
|     133 | 0x3066      |       12390 |
|     134 | 0x3067      |       12391 |
|     135 | 0x3068      |       12392 |
|     136 | 0x3069      |       12393 |
|     137 | 0x306A      |       12394 |
|     138 | 0x0F19      |        3865 |
|     139 | 0x0068      |         104 |
|     140 | 0x0050      |          80 |
|     141 | 0x306B      |       12395 |
|     142 | 0x017C      |         380 |
|     143 | 0x306C      |       12396 |
|     144 | 0x306D      |       12397 |
|     145 | 0x306E      |       12398 |
|     146 | 0x00B4      |         180 |
|     147 | 0x306F      |       12399 |
|     148 | 0x3070      |       12400 |
|     149 | 0x00D1      |         209 |
|     150 | 0x0006      |           6 |
|     151 | 0x0008      |           8 |
|     152 | 0x1D3F8     |      119800 |
|     153 | 0xFFFFD0EE  |  4294955246 |
|     154 | 0xFFFFDC07  |  4294958087 |
|     155 | 0x0004      |           4 |
|     156 | 0xFFFFDF8B  |  4294958987 |
|     157 | 0xFFFFD120  |  4294955296 |
|     158 | 0xFFFFDD01  |  4294958337 |
|     159 | 0xFFFFDCCF  |  4294958287 |
|     160 | 0x0002      |           2 |
|     161 | 0x3071      |       12401 |
|     162 | 0x3072      |       12402 |
|     163 | 0x3073      |       12403 |
|     164 | 0x3074      |       12404 |
|     165 | 0x3075      |       12405 |
|     166 | 0x3076      |       12406 |
|     167 | 0x3077      |       12407 |
|     168 | 0x2847      |       10311 |
|     169 | 0x3078      |       12408 |
|     170 | 0x3079      |       12409 |
|     171 | 0x307A      |       12410 |
|     172 | 0x307B      |       12411 |
|     173 | 0x307C      |       12412 |
|     174 | 0x307D      |       12413 |
|     175 | 0x307E      |       12414 |
|     176 | 0x307F      |       12415 |
|     177 | 0x00C9      |         201 |
|     178 | 0x1D4E8     |      120040 |
|     179 | 0xFFFFD142  |  4294955330 |
|     180 | 0x02E6      |         742 |
|     181 | 0xFFFED338  |  4294890296 |
|     182 | 0x3080      |       12416 |
|     183 | 0x007F      |         127 |
|     184 | 0x3081      |       12417 |
|     185 | 0x00A0      |         160 |
|     186 | 0x3082      |       12418 |
|     187 | 0x3083      |       12419 |
|     188 | 0x3084      |       12420 |
|     189 | 0x3085      |       12421 |
|     190 | 0x3086      |       12422 |
|     191 | 0x3087      |       12423 |
|     192 | 0x3088      |       12424 |
|     193 | 0x1D535     |      120117 |
|     194 | 0xFFFFC9C9  |  4294953417 |
|     195 | 0x0009      |           9 |
|     196 | 0x1D3F1     |      119793 |
|     197 | 0xFFFFD6F2  |  4294956786 |
|     198 | 0x1BD03     |      113923 |
|     199 | 0xFFFFD12E  |  4294955310 |
|     200 | 0x3089      |       12425 |
|     201 | 0x308A      |       12426 |
|     202 | 0x308B      |       12427 |
|     203 | 0x308C      |       12428 |
|     204 | 0x3090      |       12432 |
|     205 | 0x3091      |       12433 |
|     206 | 0x308D      |       12429 |
|     207 | 0x3092      |       12434 |
|     208 | 0x308E      |       12430 |
|     209 | 0x3093      |       12435 |
|     210 | 0x308F      |       12431 |
|     211 | 0x3094      |       12436 |
|     212 | 0x3095      |       12437 |
|     213 | 0x3096      |       12438 |
|     214 | 0x3097      |       12439 |
|     215 | 0x3098      |       12440 |
|     216 | 0x1CCA9     |      117929 |
|     217 | 0xFFFFC0A6  |  4294951078 |
|     218 | 0xFFFED5C1  |  4294890945 |
|     219 | 0x00AD      |         173 |
|     220 | 0x0059      |          89 |
|     221 | 0x3099      |       12441 |
|     222 | 0x003F      |          63 |
|     223 | 0x309A      |       12442 |
|     224 | 0x309B      |       12443 |
|     225 | 0x309C      |       12444 |
|     226 | 0x309D      |       12445 |
|     227 | 0x309E      |       12446 |
|     228 | 0x309F      |       12447 |
|     229 | 0x30A0      |       12448 |
|     230 | 0x30A1      |       12449 |
|     231 | 0x1CC63     |      117859 |
|     232 | 0xFFFFD0F7  |  4294955255 |
|     233 | 0x000D      |          13 |
|     234 | 0x17F80     |       98176 |
|     235 | 0xFFFFD0DA  |  4294955226 |
|     236 | 0x30A2      |       12450 |
|     237 | 0x30A3      |       12451 |
|     238 | 0x30A4      |       12452 |
|     239 | 0x30A5      |       12453 |
|     240 | 0x30A6      |       12454 |
|     241 | 0x30A7      |       12455 |
|     242 | 0x30A8      |       12456 |
|     243 | 0x30A9      |       12457 |
|     244 | 0x1CEA2     |      118434 |
|     245 | 0xFFFFCC28  |  4294954024 |
|     246 | 0xFFFFE0B8  |  4294959288 |
|     247 | 0x01BD      |         445 |
|     248 | 0x30AA      |       12458 |
|     249 | 0x30AB      |       12459 |
|     250 | 0x00AA      |         170 |
|     251 | 0x30AC      |       12460 |
|     252 | 0x30AD      |       12461 |
|     253 | 0x30AE      |       12462 |
|     254 | 0x30AF      |       12463 |
|     255 | 0x30B0      |       12464 |
|     256 | 0x30B1      |       12465 |
|     257 | 0x30B2      |       12466 |
|     258 | 0x30B3      |       12467 |
|     259 | 0x30B4      |       12468 |
|     260 | 0x30B5      |       12469 |
|     261 | 0x30B6      |       12470 |
|     262 | 0x00F4      |         244 |
|     263 | 0x30B7      |       12471 |
|     264 | 0x00F3      |         243 |
|     265 | 0x30B8      |       12472 |
|     266 | 0x30B9      |       12473 |
|     267 | 0x30BA      |       12474 |
|     268 | 0x1B388     |      111496 |
|     269 | 0xFFFFCA8E  |  4294953614 |
|     270 | 0xFFFFE453  |  4294960211 |
|     271 | 0x0F40      |        3904 |
|     272 | 0x1B0DE     |      110814 |
|     273 | 0xFFFFD93C  |  4294957372 |
|     274 | 0x30BB      |       12475 |
|     275 | 0x30BC      |       12476 |
|     276 | 0x30BD      |       12477 |
|     277 | 0x30BE      |       12478 |
|     278 | 0x30BF      |       12479 |
|     279 | 0x1CB1C     |      117532 |
|     280 | 0xFFFFD232  |  4294955570 |
|     281 | 0x30C0      |       12480 |
|     282 | 0x30C1      |       12481 |
|     283 | 0x30C2      |       12482 |
|     284 | 0x30C3      |       12483 |
|     285 | 0x30C5      |       12485 |
|     286 | 0x30C4      |       12484 |
|     287 | 0x30C6      |       12486 |
|     288 | 0x30C7      |       12487 |
|     289 | 0x30C8      |       12488 |
|     290 | 0x30C9      |       12489 |
|     291 | 0x30CA      |       12490 |
|     292 | 0x30CB      |       12491 |
|     293 | 0x30CC      |       12492 |
|     294 | 0x30CD      |       12493 |
|     295 | 0x30CE      |       12494 |
|     296 | 0x30CF      |       12495 |
|     297 | 0x30D0      |       12496 |
|     298 | 0x30D1      |       12497 |
|     299 | 0x1D731     |      120625 |
|     300 | 0xFFFFDA38  |  4294957624 |
|     301 | 0x1D397     |      119703 |
|     302 | 0xFFFFD23A  |  4294955578 |
|     303 | 0x1BC53     |      113747 |
|     304 | 0xFFFFCDE1  |  4294954465 |
|     305 | 0x1CDF6     |      118262 |
|     306 | 0xFFFFD77E  |  4294956926 |
|     307 | 0x0E20      |        3616 |
|     308 | 0x1CBFE     |      117758 |
|     309 | 0xFFFFCB52  |  4294953810 |
|     310 | 0x0FB8      |        4024 |
|     311 | 0x01A9      |         425 |
|     312 | 0x02FB      |         763 |
|     313 | 0x3147      |       12615 |
|     314 | 0x3148      |       12616 |
|     315 | 0x3149      |       12617 |
|     316 | 0x314A      |       12618 |
|     317 | 0x0D24      |        3364 |
|     318 | 0x314E      |       12622 |
|     319 | 0x314B      |       12619 |
|     320 | 0x314C      |       12620 |
|     321 | 0x314D      |       12621 |
|     322 | 0x314F      |       12623 |
|     323 | 0x3150      |       12624 |
|     324 | 0x3151      |       12625 |
|     325 | 0x3152      |       12626 |
|     326 | 0x3153      |       12627 |
|     327 | 0x3154      |       12628 |
|     328 | 0x3155      |       12629 |
|     329 | 0x3156      |       12630 |
|     330 | 0x3157      |       12631 |
|     331 | 0x00A4      |         164 |
|     332 | 0x3158      |       12632 |
|     333 | 0x3159      |       12633 |
|     334 | 0x315A      |       12634 |
|     335 | 0x315B      |       12635 |
|     336 | 0x031D      |         797 |
|     337 | 0x315C      |       12636 |
|     338 | 0x0013      |          19 |
|     339 | 0x0072      |         114 |
|     340 | 0x315D      |       12637 |
|     341 | 0x315E      |       12638 |
|     342 | 0x315F      |       12639 |
|     343 | 0x3160      |       12640 |
|     344 | 0x3161      |       12641 |
|     345 | 0x3162      |       12642 |
|     346 | 0x3163      |       12643 |
|     347 | 0x3164      |       12644 |
|     348 | 0x3165      |       12645 |
|     349 | 0x3166      |       12646 |
|     350 | 0x3167      |       12647 |
|     351 | 0x3168      |       12648 |
|     352 | 0x3169      |       12649 |
|     353 | 0x316A      |       12650 |
|     354 | 0x316B      |       12651 |
|     355 | 0x316C      |       12652 |
|     356 | 0x316D      |       12653 |
|     357 | 0x316E      |       12654 |
|     358 | 0x316F      |       12655 |
|     359 | 0x3170      |       12656 |
|     360 | 0x3171      |       12657 |
|     361 | 0x3172      |       12658 |
|     362 | 0x3173      |       12659 |
|     363 | 0x02FC      |         764 |
|     364 | 0x3174      |       12660 |
|     365 | 0x3175      |       12661 |
|     366 | 0x3176      |       12662 |
|     367 | 0x3177      |       12663 |
|     368 | 0x3178      |       12664 |
|     369 | 0x3179      |       12665 |
|     370 | 0x317A      |       12666 |
|     371 | 0x317B      |       12667 |
|     372 | 0x317C      |       12668 |
|     373 | 0x317D      |       12669 |
|     374 | 0x317E      |       12670 |
|     375 | 0x317F      |       12671 |
|     376 | 0x3180      |       12672 |
|     377 | 0x3181      |       12673 |
|     378 | 0x3182      |       12674 |
|     379 | 0x3183      |       12675 |
|     380 | 0x1D2F2     |      119538 |
|     381 | 0xFFFFD4FF  |  4294956287 |
|     382 | 0x0FA2      |        4002 |
|     383 | 0x1D2E2     |      119522 |
|     384 | 0xFFFFCF6F  |  4294954863 |
|     385 | 0x02FD      |         765 |
|     386 | 0x3184      |       12676 |
|     387 | 0x3185      |       12677 |
|     388 | 0x318A      |       12682 |
|     389 | 0x318B      |       12683 |
|     390 | 0x1D3BD     |      119741 |
|     391 | 0xFFFFD870  |  4294957168 |
|     392 | 0x0FAC      |        4012 |
|     393 | 0x3188      |       12680 |
|     394 | 0x3189      |       12681 |
|     395 | 0x3186      |       12678 |
|     396 | 0x3187      |       12679 |
|     397 | 0x3192      |       12690 |
|     398 | 0x3193      |       12691 |
|     399 | 0x318C      |       12684 |
|     400 | 0x318D      |       12685 |
|     401 | 0x318E      |       12686 |
|     402 | 0x318F      |       12687 |
|     403 | 0x3190      |       12688 |
|     404 | 0x3191      |       12689 |
|     405 | 0x1BC9A     |      113818 |
|     406 | 0xFFFFD46F  |  4294956143 |
|     407 | 0x0FF2      |        4082 |
|     408 | 0x02FE      |         766 |
|     409 | 0x3194      |       12692 |
|     410 | 0x3195      |       12693 |
|     411 | 0x3196      |       12694 |
|     412 | 0x3197      |       12695 |
|     413 | 0x3198      |       12696 |
|     414 | 0x3199      |       12697 |
|     415 | 0x319A      |       12698 |
|     416 | 0x319B      |       12699 |
|     417 | 0x0031      |          49 |
|     418 | 0x319C      |       12700 |
|     419 | 0x319D      |       12701 |
|     420 | 0x319E      |       12702 |
|     421 | 0x1D15E     |      119134 |
|     422 | 0xFFFFD48D  |  4294956173 |
|     423 | 0x013F      |         319 |
|     424 | 0x319F      |       12703 |
|     425 | 0x31A0      |       12704 |
|     426 | 0x31A1      |       12705 |
|     427 | 0x0028      |          40 |
|     428 | 0x31A2      |       12706 |
|     429 | 0x31A3      |       12707 |
|     430 | 0x31A4      |       12708 |
|     431 | 0x31A5      |       12709 |
|     432 | 0x31A6      |       12710 |
|     433 | 0x0018      |          24 |
|     434 | 0x31A7      |       12711 |
|     435 | 0x31A8      |       12712 |
|     436 | 0x31A9      |       12713 |
|     437 | 0x1D1CA     |      119242 |
|     438 | 0xFFFFCC8A  |  4294954122 |
|     439 | 0x0B45      |        2885 |
|     440 | 0x31AA      |       12714 |
|     441 | 0x31AB      |       12715 |
|     442 | 0x31AC      |       12716 |
|     443 | 0x31AD      |       12717 |
|     444 | 0x31AE      |       12718 |
|     445 | 0x31AF      |       12719 |
|     446 | 0x31B0      |       12720 |
|     447 | 0x31B1      |       12721 |
|     448 | 0x31B2      |       12722 |
|     449 | 0x31B3      |       12723 |
|     450 | 0x31B4      |       12724 |
|     451 | 0x31B5      |       12725 |
|     452 | 0x31B6      |       12726 |
|     453 | 0x31B7      |       12727 |
|     454 | 0x31B8      |       12728 |
|     455 | 0x31B9      |       12729 |
|     456 | 0x1C64F     |      116303 |
|     457 | 0xFFFFCF27  |  4294954791 |
|     458 | 0x0D9E      |        3486 |
|     459 | 0x1A5FB     |      108027 |
|     460 | 0xFFFFCF23  |  4294954787 |
|     461 | 0x1A158     |      106840 |
|     462 | 0xFFFFD368  |  4294955880 |
|     463 | 0x02FF      |         767 |
|     464 | 0x31BD      |       12733 |
|     465 | 0x01DB      |         475 |
|     466 | 0x31BC      |       12732 |
|     467 | 0x31BE      |       12734 |
|     468 | 0x31BF      |       12735 |
|     469 | 0x31C3      |       12739 |
|     470 | 0x31C2      |       12738 |
|     471 | 0x31C4      |       12740 |
|     472 | 0x31C5      |       12741 |
|     473 | 0x31C7      |       12743 |
|     474 | 0x31C6      |       12742 |
|     475 | 0x31CA      |       12746 |
|     476 | 0x31CB      |       12747 |
|     477 | 0x31C8      |       12744 |
|     478 | 0x31C9      |       12745 |
|     479 | 0x1CBFA     |      117754 |
|     480 | 0xFFFFCDF0  |  4294954480 |
|     481 | 0x0859      |        2137 |
|     482 | 0x1CB13     |      117523 |
|     483 | 0xFFFFD3B4  |  4294955956 |
|     484 | 0x1D346     |      119622 |
|     485 | 0xFFFFC8F8  |  4294953208 |
|     486 | 0x0DDC      |        3548 |
|     487 | 0x1CC3C     |      117820 |
|     488 | 0xFFFFC604  |  4294952452 |
|     489 | 0x01AB      |         427 |
|     490 | 0x31CC      |       12748 |
|     491 | 0x31CD      |       12749 |
|     492 | 0x31CE      |       12750 |
|     493 | 0x31CF      |       12751 |
|     494 | 0x31D0      |       12752 |
|     495 | 0x31D1      |       12753 |
|     496 | 0x31D2      |       12754 |
|     497 | 0x31D3      |       12755 |
|     498 | 0x31D4      |       12756 |
|     499 | 0x31D5      |       12757 |
|     500 | 0x01E1      |         481 |
|     501 | 0x31D6      |       12758 |
|     502 | 0x31D7      |       12759 |
|     503 | 0x31D8      |       12760 |
|     504 | 0x31D9      |       12761 |
|     505 | 0x31DA      |       12762 |
|     506 | 0x31DB      |       12763 |
|     507 | 0x31DC      |       12764 |
|     508 | 0x31DF      |       12767 |
|     509 | 0x31E0      |       12768 |
|     510 | 0x31DD      |       12765 |
|     511 | 0x31DE      |       12766 |
|     512 | 0x31E1      |       12769 |
|     513 | 0x31E2      |       12770 |
|     514 | 0x31E3      |       12771 |
|     515 | 0x31E4      |       12772 |
|     516 | 0x31E5      |       12773 |
|     517 | 0x31E6      |       12774 |
|     518 | 0x31E8      |       12776 |
|     519 | 0x31E7      |       12775 |
|     520 | 0x31E9      |       12777 |
|     521 | 0x31EA      |       12778 |
|     522 | 0x31EB      |       12779 |
|     523 | 0x31EE      |       12782 |
|     524 | 0x31EF      |       12783 |
|     525 | 0x31EC      |       12780 |
|     526 | 0x31ED      |       12781 |
|     527 | 0x31F0      |       12784 |
|     528 | 0x31F2      |       12786 |
|     529 | 0x31F1      |       12785 |
|     530 | 0x31F3      |       12787 |
|     531 | 0x31F4      |       12788 |
|     532 | 0x31F5      |       12789 |
|     533 | 0x31F6      |       12790 |
|     534 | 0x1D60A     |      120330 |
|     535 | 0xFFFFC53A  |  4294952250 |
|     536 | 0x0986      |        2438 |
|     537 | 0x31F7      |       12791 |
|     538 | 0x31F8      |       12792 |
|     539 | 0x31F9      |       12793 |
|     540 | 0x31FA      |       12794 |
|     541 | 0x31FB      |       12795 |
|     542 | 0x31FC      |       12796 |
|     543 | 0x31FD      |       12797 |
|     544 | 0x0B1F      |        2847 |
|     545 | 0x31FE      |       12798 |
|     546 | 0x31FF      |       12799 |
|     547 | 0x3200      |       12800 |
|     548 | 0x3201      |       12801 |
|     549 | 0x3202      |       12802 |
|     550 | 0x3203      |       12803 |
|     551 | 0x3204      |       12804 |
|     552 | 0x3205      |       12805 |
|     553 | 0x3206      |       12806 |
|     554 | 0x3209      |       12809 |
|     555 | 0x3208      |       12808 |
|     556 | 0x3207      |       12807 |
|     557 | 0x320A      |       12810 |
|     558 | 0x320B      |       12811 |
|     559 | 0x320C      |       12812 |
|     560 | 0x320D      |       12813 |
|     561 | 0x320F      |       12815 |
|     562 | 0x026D      |         621 |
|     563 | 0x320E      |       12814 |
|     564 | 0x0024      |          36 |
|     565 | 0x3210      |       12816 |
|     566 | 0x1D485     |      119941 |
|     567 | 0xFFFFCB73  |  4294953843 |
|     568 | 0x0F34      |        3892 |
|     569 | 0x1C745     |      116549 |
|     570 | 0xFFFFD10C  |  4294955276 |
|     571 | 0x0FA0      |        4000 |
|     572 | 0x0301      |         769 |
|     573 | 0x3211      |       12817 |
|     574 | 0x3212      |       12818 |
|     575 | 0x3213      |       12819 |
|     576 | 0x3214      |       12820 |
|     577 | 0x3215      |       12821 |
|     578 | 0x3216      |       12822 |
|     579 | 0x3217      |       12823 |
|     580 | 0x3218      |       12824 |
|     581 | 0x3219      |       12825 |
|     582 | 0x321A      |       12826 |
|     583 | 0x321B      |       12827 |
|     584 | 0x321C      |       12828 |
|     585 | 0x321D      |       12829 |
|     586 | 0x321E      |       12830 |
|     587 | 0x321F      |       12831 |
|     588 | 0x3220      |       12832 |
|     589 | 0x3221      |       12833 |
|     590 | 0x3222      |       12834 |
|     591 | 0x3223      |       12835 |
|     592 | 0x3224      |       12836 |
|     593 | 0x3225      |       12837 |
|     594 | 0x3226      |       12838 |
|     595 | 0x3227      |       12839 |
|     596 | 0x1D450     |      119888 |
|     597 | 0xFFFFC8EA  |  4294953194 |
|     598 | 0x0060      |          96 |
|     599 | 0x3228      |       12840 |
|     600 | 0x1A465     |      107621 |
|     601 | 0xFFFFCE8C  |  4294954636 |
|     602 | 0x1BEBA     |      114362 |
|     603 | 0xFFFFCD2C  |  4294954284 |
|     604 | 0xFFFFE36C  |  4294959980 |
|     605 | 0x07ED      |        2029 |
|     606 | 0x1C3A1     |      115617 |
|     607 | 0xFFFFDD78  |  4294958456 |
|     608 | 0x1BF5D     |      114525 |
|     609 | 0xFFFFD3E8  |  4294956008 |
|     610 | 0x1CFBC     |      118716 |
|     611 | 0xFFFFD45F  |  4294956127 |
|     612 | 0x083D      |        2109 |
|     613 | 0x1C3D4     |      115668 |
|     614 | 0xFFFFC5E4  |  4294952420 |
|     615 | 0x322B      |       12843 |
|     616 | 0x3229      |       12841 |
|     617 | 0x322A      |       12842 |
|     618 | 0x322C      |       12844 |
|     619 | 0x322D      |       12845 |
|     620 | 0x322E      |       12846 |
|     621 | 0x021A      |         538 |
|     622 | 0x322F      |       12847 |
|     623 | 0x1CB1F     |      117535 |
|     624 | 0xFFFFC97F  |  4294953343 |
|     625 | 0x05DC      |        1500 |
|     626 | 0x1C73E     |      116542 |
|     627 | 0xFFFFB935  |  4294949173 |
|     628 | 0xFFFEDED9  |  4294893273 |
|     629 | 0x0C52      |        3154 |
|     630 | 0xFFFECD5C  |  4294888796 |
|     631 | 0x0F25      |        3877 |
|     632 | 0x008F      |         143 |
|     633 | 0x0099      |         153 |
|     634 | 0x00A3      |         163 |
|     635 | 0x00B7      |         183 |
|     636 | 0x00C1      |         193 |
|     637 | 0x00CB      |         203 |
|     638 | 0x00A1      |         161 |
|     639 | 0x009A      |         154 |
|     640 | 0x3230      |       12848 |
|     641 | 0x3231      |       12849 |
|     642 | 0x3232      |       12850 |
|     643 | 0x3233      |       12851 |
|     644 | 0x3234      |       12852 |
|     645 | 0x3235      |       12853 |
|     646 | 0x3236      |       12854 |
|     647 | 0x3240      |       12864 |
|     648 | 0x3241      |       12865 |
|     649 | 0x3237      |       12855 |
|     650 | 0x3239      |       12857 |
|     651 | 0x323A      |       12858 |
|     652 | 0x323B      |       12859 |
|     653 | 0x323C      |       12860 |
|     654 | 0x323D      |       12861 |
|     655 | 0x3238      |       12856 |
|     656 | 0x037B      |         891 |
|     657 | 0x323E      |       12862 |
|     658 | 0x323F      |       12863 |
|     659 | 0x3242      |       12866 |
|     660 | 0x324C      |       12876 |
|     661 | 0x324D      |       12877 |
|     662 | 0x3248      |       12872 |
|     663 | 0x3249      |       12873 |
|     664 | 0x3247      |       12871 |
|     665 | 0x324A      |       12874 |
|     666 | 0x324B      |       12875 |
|     667 | 0x3243      |       12867 |
|     668 | 0x3244      |       12868 |
|     669 | 0x3245      |       12869 |
|     670 | 0x3246      |       12870 |
|     671 | 0x005F      |          95 |
|     672 | 0x324E      |       12878 |
|     673 | 0x324F      |       12879 |
|     674 | 0x3250      |       12880 |
|     675 | 0x3251      |       12881 |
|     676 | 0x3252      |       12882 |
|     677 | 0x3253      |       12883 |
|     678 | 0x3254      |       12884 |
|     679 | 0x3255      |       12885 |
|     680 | 0x3256      |       12886 |
|     681 | 0x3257      |       12887 |
|     682 | 0x0063      |          99 |
|     683 | 0x3258      |       12888 |
|     684 | 0x3259      |       12889 |
|     685 | 0x039E      |         926 |
|     686 | 0x325A      |       12890 |
|     687 | 0x325B      |       12891 |
|     688 | 0x002D      |          45 |
|     689 | 0x00D7      |         215 |

## String References

- **10104**: 
- **12347**: How do you respond? [Who?/Master?]
- **12368**: How do you respond? [That's probably best./It's better they not know.]
- **12470**: Have any idea? [I'm not sure.../Just like in Escha...]
- **12483**: Do you know Tenzen? [Of course./Nope.]
- **12650**: How do you respond? [I saw [a woman/Prishe] just now.../I'm at a loss.]
- **12668**: Did you have a falling-out? [Yeah./Nope./What do you mean?]
- **12789**: What do you think? [I think earlier is fine./We should be careful./I'll do anything to meet Altana.]
- **12827**: What happened to the ambassador? [I don't know./He may still be enchained./He might have gotten away.]

## Events

### Event 65535

#### Metadata

| Field        | Value   |
|--------------|---------|
| Entrypoint   | 0x0000  |
| Data Size    | 1 bytes |
| Instructions | 1       |

```
      00 01 02 03 04 05 06 07  08 09 0A 0B 0C 0D 0E 0F
      -- -- -- -- -- -- -- --  -- -- -- -- -- -- -- --
0000: 00                                                .               
```

#### Opcodes

```
  0: 0x0000 [0x00] END_REQSTACK()
```

### Event 276

#### Metadata

| Field        | Value      |
|--------------|------------|
| Entrypoint   | 0x0001     |
| Data Size    | 5194 bytes |
| Instructions | 581        |

```
      00 01 02 03 04 05 06 07  08 09 0A 0B 0C 0D 0E 0F
      -- -- -- -- -- -- -- --  -- -- -- -- -- -- -- --
0000:    42 03 00 00 08 10 03  01 00 09 10 45 00 80 F8   B..........E...
0010: FF FF 7F F8 FF FF 7F 66  64 6F 31 01 80 55 00 80  .......fdo1..U..
0020: F8 FF FF 7F F8 FF FF 7F  66 64 6F 31 46 01 38 02  ........fdo1F.8.
0030: 80 92 01 11 C0 0F 01 94  01 11 C0 0F 01 BA F0 FF  ................
0040: FF 7F 03 80 04 80 05 80  06 80 80 F0 FF FF 7F 80  ................
0050: 11 C0 0F 01 4A 11 C0 0F  01 F0 FF FF 7F 4A F0 FF  ....J........J..
0060: FF 7F 11 C0 0F 01 1C 07  80 45 08 80 F8 FF FF 7F  .........E......
0070: F8 FF FF 7F 73 30 30 30  01 80 1C 09 80 45 00 80  ....s000.....E..
0080: F8 FF FF 7F F8 FF FF 7F  66 64 69 31 01 80 66 01  ........fdi1..f.
0090: 80 11 C0 0F 01 11 C0 0F  01 74 6C 6B 30 2B 11 C0  .........tlk0+..
00A0: 0F 01 0A 80 23 5D 01 80  0B 80 45 00 80 F8 FF FF  ....#]....E.....
00B0: 7F F8 FF FF 7F 66 64 6F  31 01 80 55 00 80 F8 FF  .....fdo1..U....
00C0: FF 7F F8 FF FF 7F 66 64  6F 31 52 08 80 F8 FF FF  ......fdo1R.....
00D0: 7F F8 FF FF 7F 73 30 30  30 77 0C 80 0D 80 7B F0  .....s000w....{.
00E0: FF FF 7F 75 00 0E 80 75  01 2F 00 55 C0 0F 01 2F  ...u...u./.U.../
00F0: 00 87 C0 0F 01 2F 00 86  C0 0F 01 4E 00 55 C0 0F  ...../.....N.U..
0100: 01 4E 00 86 C0 0F 01 4E  00 87 C0 0F 01 92 01 86  .N.....N........
0110: C0 0F 01 92 01 55 C0 0F  01 92 01 03 C0 0F 01 92  .....U..........
0120: 01 04 C0 0F 01 92 01 87  C0 0F 01 94 01 03 C0 0F  ................
0130: 01 94 01 86 C0 0F 01 94  01 F0 FF FF 7F 94 01 55  ...............U
0140: C0 0F 01 94 01 04 C0 0F  01 94 01 87 C0 0F 01 27  ...............'
0150: 05 87 C0 0F 01 05 BA 86  C0 0F 01 0F 80 10 80 11  ................
0160: 80 12 80 BA 55 C0 0F 01  13 80 14 80 11 80 15 80  ....U...........
0170: BA F0 FF FF 7F 16 80 17  80 05 80 18 80 80 55 C0  ..............U.
0180: 0F 01 80 86 C0 0F 01 80  03 C0 0F 01 80 F0 FF FF  ................
0190: 7F 80 04 C0 0F 01 4A 55  C0 0F 01 86 C0 0F 01 4A  ......JU.......J
01A0: 03 C0 0F 01 86 C0 0F 01  4A 86 C0 0F 01 03 C0 0F  ........J.......
01B0: 01 1C 07 80 81 00 86 C0  0F 01 7C 00 86 C0 0F 01  ..........|.....
01C0: 5B 19 80 03 C0 0F 01 03  C0 0F 01 74 68 6B 30 1C  [..........thk0.
01D0: 07 80 45 08 80 F8 FF FF  7F F8 FF FF 7F 73 30 30  ..E..........s00
01E0: 31 01 80 1C 09 80 45 00  80 F8 FF FF 7F F8 FF FF  1.....E.........
01F0: 7F 66 64 69 31 01 80 1C  1A 80 27 10 32 C0 0F 01  .fdi1.....'.2...
0200: 05 52 08 80 F8 FF FF 7F  F8 FF FF 7F 73 30 30 31  .R..........s001
0210: 45 08 80 F8 FF FF 7F F8  FF FF 7F 73 30 30 32 01  E..........s002.
0220: 80 1C 1B 80 4A 86 C0 0F  01 F0 FF FF 7F 7B 86 C0  ....J........{..
0230: 0F 01 1C 1B 80 52 08 80  F8 FF FF 7F F8 FF FF 7F  .....R..........
0240: 73 30 30 32 45 08 80 F8  FF FF 7F F8 FF FF 7F 73  s002E..........s
0250: 30 30 33 01 80 5B 19 80  03 C0 0F 01 03 C0 0F 01  003..[..........
0260: 74 68 6B 31 1C 07 80 27  10 32 C0 0F 01 06 2B 03  thk1...'.2....+.
0270: C0 0F 01 1C 80 23 5C 00  1D 80 5C 01 1D 80 9A 5B  .....#\...\....[
0280: 1E 80 86 C0 0F 01 86 C0  0F 01 73 79 6F 30 1C 1F  ..........syo0..
0290: 80 52 08 80 F8 FF FF 7F  F8 FF FF 7F 73 30 30 33  .R..........s003
02A0: 45 08 80 F8 FF FF 7F F8  FF FF 7F 73 30 30 34 01  E..........s004.
02B0: 80 1C 07 80 2B 87 C0 0F  01 20 80 1C 21 80 23 BA  ....+.... ..!.#.
02C0: F0 FF FF 7F 22 80 23 80  05 80 01 80 80 F0 FF FF  ....".#.........
02D0: 7F 4A F0 FF FF 7F 86 C0  0F 01 1C 07 80 55 08 80  .J...........U..
02E0: F8 FF FF 7F F8 FF FF 7F  73 30 30 34 45 08 80 F8  ........s004E...
02F0: FF FF 7F F8 FF FF 7F 73  30 30 35 01 80 27 05 86  .......s005..'..
0300: C0 0F 01 02 1C 1F 80 4A  04 C0 0F 01 F0 FF FF 7F  .......J........
0310: 2A 05 86 C0 0F 01 52 08  80 F8 FF FF 7F F8 FF FF  *.....R.........
0320: 7F 73 30 30 35 45 08 80  F8 FF FF 7F F8 FF FF 7F  .s005E..........
0330: 73 30 30 36 01 80 5B 24  80 86 C0 0F 01 86 C0 0F  s006..[$........
0340: 01 66 64 30 31 1C 09 80  BA 55 C0 0F 01 25 80 26  .fd01....U...%.&
0350: 80 11 80 27 80 BA 03 C0  0F 01 28 80 29 80 2A 80  ...'......(.).*.
0360: 27 80 27 05 55 C0 0F 01  10 27 05 03 C0 0F 01 30  '.'.U....'.....0
0370: 5B 2B 80 86 C0 0F 01 86  C0 0F 01 74 6C 6B 30 2B  [+.........tlk0+
0380: 87 C0 0F 01 2C 80 23 2B  87 C0 0F 01 2D 80 23 79  ....,.#+....-.#y
0390: 00 03 C0 0F 01 86 C0 0F  01 52 08 80 F8 FF FF 7F  .........R......
03A0: F8 FF FF 7F 73 30 30 36  45 08 80 F8 FF FF 7F F8  ....s006E.......
03B0: FF FF 7F 73 30 30 37 01  80 2B 87 C0 0F 01 2E 80  ...s007..+......
03C0: 23 2B 86 C0 0F 01 2F 80  23 5B 2B 80 86 C0 0F 01  #+..../.#[+.....
03D0: 86 C0 0F 01 74 6C 6B 31  52 08 80 F8 FF FF 7F F8  ....tlk1R.......
03E0: FF FF 7F 73 30 30 37 45  08 80 F8 FF FF 7F F8 FF  ...s007E........
03F0: FF 7F 73 30 30 38 01 80  79 00 03 C0 0F 01 F0 FF  ..s008..y.......
0400: FF 7F 24 30 80 01 80 01  80 25 02 00 10 01 80 00  ..$0.....%......
0410: 15 04 01 15 04 4E 01 04  C0 0F 01 5B 24 80 86 C0  .....N.....[$...
0420: 0F 01 86 C0 0F 01 66 62  30 30 2A 05 03 C0 0F 01  ......fb00*.....
0430: 52 08 80 F8 FF FF 7F F8  FF FF 7F 73 30 30 38 45  R..........s008E
0440: 08 80 F8 FF FF 7F F8 FF  FF 7F 73 30 30 39 01 80  ..........s009..
0450: 5B 19 80 03 C0 0F 01 03  C0 0F 01 74 6C 6B 30 2B  [..........tlk0+
0460: 03 C0 0F 01 31 80 23 2B  03 C0 0F 01 32 80 23 5B  ....1.#+....2.#[
0470: 19 80 03 C0 0F 01 03 C0  0F 01 74 6C 6B 31 6E F0  ..........tlk1n.
0480: FF FF 7F 33 80 99 F0 FF  FF 7F 1C 1F 80 52 08 80  ...3.........R..
0490: F8 FF FF 7F F8 FF FF 7F  73 30 30 39 45 08 80 F8  ........s009E...
04A0: FF FF 7F F8 FF FF 7F 73  30 31 30 01 80 79 00 03  .......s010..y..
04B0: C0 0F 01 86 C0 0F 01 2B  03 C0 0F 01 34 80 23 5B  .......+....4.#[
04C0: 24 80 86 C0 0F 01 86 C0  0F 01 66 62 30 31 5B 35  $.........fb01[5
04D0: 80 86 C0 0F 01 86 C0 0F  01 79 65 73 30 2B 86 C0  .........yes0+..
04E0: 0F 01 36 80 1C 37 80 23  52 08 80 F8 FF FF 7F F8  ..6..7.#R.......
04F0: FF FF 7F 73 30 31 30 45  08 80 F8 FF FF 7F F8 FF  ...s010E........
0500: FF 7F 73 30 31 31 01 80  5B 2B 80 86 C0 0F 01 86  ..s011..[+......
0510: C0 0F 01 74 6C 62 30 2B  86 C0 0F 01 38 80 23 2B  ...tlb0+....8.#+
0520: 86 C0 0F 01 39 80 23 5B  2B 80 86 C0 0F 01 86 C0  ....9.#[+.......
0530: 0F 01 74 6C 62 31 52 08  80 F8 FF FF 7F F8 FF FF  ..tlb1R.........
0540: 7F 73 30 31 31 45 08 80  F8 FF FF 7F F8 FF FF 7F  .s011E..........
0550: 73 30 31 32 01 80 5B 19  80 03 C0 0F 01 03 C0 0F  s012..[.........
0560: 01 74 6C 6B 30 2B 03 C0  0F 01 3A 80 23 5B 19 80  .tlk0+....:.#[..
0570: 03 C0 0F 01 03 C0 0F 01  74 6C 6B 31 52 08 80 F8  ........tlk1R...
0580: FF FF 7F F8 FF FF 7F 73  30 31 32 45 08 80 F8 FF  .......s012E....
0590: FF 7F F8 FF FF 7F 73 30  31 33 01 80 5B 3B 80 55  ......s013..[;.U
05A0: C0 0F 01 55 C0 0F 01 74  68 6B 31 2B 55 C0 0F 01  ...U...thk1+U...
05B0: 3C 80 23 52 08 80 F8 FF  FF 7F F8 FF FF 7F 73 30  <.#R..........s0
05C0: 31 33 45 08 80 F8 FF FF  7F F8 FF FF 7F 73 30 31  13E..........s01
05D0: 34 01 80 4A 03 C0 0F 01  55 C0 0F 01 1C 07 80 5B  4..J....U......[
05E0: 19 80 03 C0 0F 01 03 C0  0F 01 74 6C 6B 30 2B 03  ..........tlk0+.
05F0: C0 0F 01 3D 80 23 5B 19  80 03 C0 0F 01 03 C0 0F  ...=.#[.........
0600: 01 74 6C 6B 31 52 08 80  F8 FF FF 7F F8 FF FF 7F  .tlk1R..........
0610: 73 30 31 34 45 08 80 F8  FF FF 7F F8 FF FF 7F 73  s014E..........s
0620: 30 31 35 01 80 4A 86 C0  0F 01 55 C0 0F 01 1C 07  015..J....U.....
0630: 80 79 00 03 C0 0F 01 86  C0 0F 01 5B 3E 80 86 C0  .y.........[>...
0640: 0F 01 86 C0 0F 01 74 6C  63 30 2B 86 C0 0F 01 3F  ......tlc0+....?
0650: 80 1C 07 80 6E F0 FF FF  7F 40 80 99 F0 FF FF 7F  ....n....@......
0660: 1C 1B 80 23 5B 24 80 86  C0 0F 01 86 C0 0F 01 66  ...#[$.........f
0670: 62 30 30 5B 3E 80 86 C0  0F 01 86 C0 0F 01 74 6C  b00[>.........tl
0680: 63 31 5B 3B 80 55 C0 0F  01 55 C0 0F 01 74 68 6B  c1[;.U...U...thk
0690: 32 2B 55 C0 0F 01 41 80  23 52 08 80 F8 FF FF 7F  2+U...A.#R......
06A0: F8 FF FF 7F 73 30 31 35  45 08 80 F8 FF FF 7F F8  ....s015E.......
06B0: FF FF 7F 73 30 31 36 01  80 5B 19 80 03 C0 0F 01  ...s016..[......
06C0: 03 C0 0F 01 74 6C 6B 30  2B 03 C0 0F 01 42 80 23  ....tlk0+....B.#
06D0: 5B 19 80 03 C0 0F 01 03  C0 0F 01 74 6C 6B 31 52  [..........tlk1R
06E0: 08 80 F8 FF FF 7F F8 FF  FF 7F 73 30 31 36 45 08  ..........s016E.
06F0: 80 F8 FF FF 7F F8 FF FF  7F 73 30 31 37 01 80 4A  .........s017..J
0700: 86 C0 0F 01 03 C0 0F 01  1C 07 80 5B 24 80 86 C0  ...........[$...
0710: 0F 01 86 C0 0F 01 66 62  30 31 5B 35 80 86 C0 0F  ......fb01[5....
0720: 01 86 C0 0F 01 79 65 73  30 2B 86 C0 0F 01 43 80  .....yes0+....C.
0730: 1C 37 80 23 52 08 80 F8  FF FF 7F F8 FF FF 7F 73  .7.#R..........s
0740: 30 31 37 45 08 80 F8 FF  FF 7F F8 FF FF 7F 73 30  017E..........s0
0750: 31 38 01 80 5B 19 80 03  C0 0F 01 03 C0 0F 01 74  18..[..........t
0760: 68 6B 30 2B 03 C0 0F 01  44 80 23 2B 03 C0 0F 01  hk0+....D.#+....
0770: 45 80 23 2B 03 C0 0F 01  46 80 23 52 08 80 F8 FF  E.#+....F.#R....
0780: FF 7F F8 FF FF 7F 73 30  31 38 45 08 80 F8 FF FF  ......s018E.....
0790: 7F F8 FF FF 7F 73 30 31  39 01 80 5B 35 80 86 C0  .....s019..[5...
07A0: 0F 01 86 C0 0F 01 79 65  73 30 2B 86 C0 0F 01 47  ......yes0+....G
07B0: 80 1C 37 80 5B 24 80 86  C0 0F 01 86 C0 0F 01 66  ..7.[$.........f
07C0: 62 30 30 23 52 08 80 F8  FF FF 7F F8 FF FF 7F 73  b00#R..........s
07D0: 30 31 39 45 08 80 F8 FF  FF 7F F8 FF FF 7F 73 30  019E..........s0
07E0: 32 30 01 80 5B 19 80 03  C0 0F 01 03 C0 0F 01 74  20..[..........t
07F0: 68 6B 31 6E F0 FF FF 7F  48 80 99 F0 FF FF 7F 1C  hk1n....H.......
0800: 0B 80 5B 3B 80 55 C0 0F  01 55 C0 0F 01 74 6C 6B  ..[;.U...U...tlk
0810: 30 2B 55 C0 0F 01 49 80  23 02 00 00 4A 80 00 33  0+U...I.#...J..3
0820: 08 5B 3B 80 55 C0 0F 01  55 C0 0F 01 74 6C 6B 31  .[;.U...U...tlk1
0830: 01 4A 08 2B 55 C0 0F 01  4B 80 23 5B 3B 80 55 C0  .J.+U...K.#[;.U.
0840: 0F 01 55 C0 0F 01 74 6C  6B 31 BA F0 FF FF 7F 4C  ..U...tlk1.....L
0850: 80 4D 80 05 80 4E 80 52  08 80 F8 FF FF 7F F8 FF  .M...N.R........
0860: FF 7F 73 30 32 30 45 08  80 F8 FF FF 7F F8 FF FF  ..s020E.........
0870: 7F 73 30 32 32 01 80 1C  4F 80 79 00 86 C0 0F 01  .s022...O.y.....
0880: F0 FF FF 7F 1C 07 80 5B  24 80 86 C0 0F 01 86 C0  .......[$.......
0890: 0F 01 66 62 30 31 5B 2B  80 86 C0 0F 01 86 C0 0F  ..fb01[+........
08A0: 01 74 6C 61 30 2B 86 C0  0F 01 50 80 23 5B 24 80  .tla0+....P.#[$.
08B0: 86 C0 0F 01 86 C0 0F 01  66 62 30 30 5B 2B 80 86  ........fb00[+..
08C0: C0 0F 01 86 C0 0F 01 74  6C 61 31 52 08 80 F8 FF  .......tla1R....
08D0: FF 7F F8 FF FF 7F 73 30  32 32 45 08 80 F8 FF FF  ......s022E.....
08E0: 7F F8 FF FF 7F 73 30 32  33 01 80 24 51 80 01 80  .....s023..$Q...
08F0: 01 80 25 02 00 10 4A 80  00 56 09 52 08 80 F8 FF  ..%...J..V.R....
0900: FF 7F F8 FF FF 7F 73 30  32 33 45 08 80 F8 FF FF  ......s023E.....
0910: 7F F8 FF FF 7F 73 30 32  34 01 80 5B 19 80 03 C0  .....s024..[....
0920: 0F 01 03 C0 0F 01 74 68  6B 30 2B 03 C0 0F 01 52  ......thk0+....R
0930: 80 23 5B 19 80 03 C0 0F  01 03 C0 0F 01 74 68 6B  .#[..........thk
0940: 31 52 08 80 F8 FF FF 7F  F8 FF FF 7F 73 30 32 34  1R..........s024
0950: 01 DA 08 01 56 09 5B 24  80 86 C0 0F 01 86 C0 0F  ....V.[$........
0960: 01 66 62 30 31 5B 35 80  86 C0 0F 01 86 C0 0F 01  .fb01[5.........
0970: 79 65 73 30 2B 86 C0 0F  01 53 80 1C 37 80 23 5B  yes0+....S..7.#[
0980: 24 80 86 C0 0F 01 86 C0  0F 01 66 62 30 30 7B 86  $.........fb00{.
0990: C0 0F 01 1C 1F 80 52 08  80 F8 FF FF 7F F8 FF FF  ......R.........
09A0: 7F 73 30 32 33 45 08 80  F8 FF FF 7F F8 FF FF 7F  .s023E..........
09B0: 73 30 32 35 01 80 5B 24  80 86 C0 0F 01 86 C0 0F  s025..[$........
09C0: 01 66 62 30 31 2B 86 C0  0F 01 54 80 23 2B 86 C0  .fb01+....T.#+..
09D0: 0F 01 55 80 23 52 08 80  F8 FF FF 7F F8 FF FF 7F  ..U.#R..........
09E0: 73 30 32 35 45 08 80 F8  FF FF 7F F8 FF FF 7F 73  s025E..........s
09F0: 30 32 36 01 80 5B 3E 80  86 C0 0F 01 86 C0 0F 01  026..[>.........
0A00: 74 6C 63 30 06 04 10 02  01 00 4A 80 00 1C 0A 2B  tlc0......J....+
0A10: 86 C0 0F 01 56 80 23 03  04 10 4A 80 2B 86 C0 0F  ....V.#...J.+...
0A20: 01 57 80 23 52 08 80 F8  FF FF 7F F8 FF FF 7F 73  .W.#R..........s
0A30: 30 32 36 45 08 80 F8 FF  FF 7F F8 FF FF 7F 73 30  026E..........s0
0A40: 32 37 01 80 2B 86 C0 0F  01 58 80 23 45 00 80 F8  27..+....X.#E...
0A50: FF FF 7F F8 FF FF 7F 66  64 6F 31 01 80 55 00 80  .......fdo1..U..
0A60: F8 FF FF 7F F8 FF FF 7F  66 64 6F 31 52 08 80 F8  ........fdo1R...
0A70: FF FF 7F F8 FF FF 7F 73  30 32 37 79 00 86 C0 0F  .......s027y....
0A80: 01 03 C0 0F 01 5B 24 80  86 C0 0F 01 86 C0 0F 01  .....[$.........
0A90: 66 62 30 30 5B 3E 80 86  C0 0F 01 86 C0 0F 01 74  fb00[>.........t
0AA0: 6C 63 31 1A 59 89 89 59  80 1C 1B 80 B4 14 5A 80  lc1.Y..Y......Z.
0AB0: 5A 80 5B 80 01 80 4A 80  1C 07 80 B4 14 5A 80 5A  Z.[...J......Z.Z
0AC0: 80 5A 80 5C 80 4A 80 03  02 10 1A 80 27 10 7C C0  .Z.\.J......'.|.
0AD0: 0F 01 06 1A 47 89 2B 86  C0 0F 01 5D 80 23 2A 10  ....G.+....].#*.
0AE0: 7C C0 0F 01 1A 59 89 89  5E 80 1C 1B 80 B4 14 5A  |....Y..^......Z
0AF0: 80 5A 80 5B 80 01 80 4A  80 1C 07 80 B4 14 5A 80  .Z.[...J......Z.
0B00: 5A 80 5A 80 5C 80 4A 80  03 02 10 1A 80 27 10 7C  Z.Z.\.J......'.|
0B10: C0 0F 01 06 1A 47 89 2B  86 C0 0F 01 5F 80 23 2B  .....G.+...._.#+
0B20: 86 C0 0F 01 60 80 23 2A  10 7C C0 0F 01 1A 59 89  ....`.#*.|....Y.
0B30: 8A B4 15 1A 47 89 45 08  80 F8 FF FF 7F F8 FF FF  ....G.E.........
0B40: 7F 73 30 32 38 01 80 1C  09 80 45 00 80 F8 FF FF  .s028.....E.....
0B50: 7F F8 FF FF 7F 66 64 69  31 01 80 1C 1A 80 52 08  .....fdi1.....R.
0B60: 80 F8 FF FF 7F F8 FF FF  7F 73 30 32 38 45 08 80  .........s028E..
0B70: F8 FF FF 7F F8 FF FF 7F  73 30 32 39 01 80 5B 19  ........s029..[.
0B80: 80 03 C0 0F 01 03 C0 0F  01 74 6C 6B 30 2B 03 C0  .........tlk0+..
0B90: 0F 01 61 80 23 5B 19 80  03 C0 0F 01 03 C0 0F 01  ..a.#[..........
0BA0: 74 6C 6B 31 52 08 80 F8  FF FF 7F F8 FF FF 7F 73  tlk1R..........s
0BB0: 30 32 39 45 08 80 F8 FF  FF 7F F8 FF FF 7F 73 30  029E..........s0
0BC0: 33 30 01 80 5B 24 80 86  C0 0F 01 86 C0 0F 01 66  30..[$.........f
0BD0: 62 30 31 5B 3E 80 86 C0  0F 01 86 C0 0F 01 74 6C  b01[>.........tl
0BE0: 63 30 2B 86 C0 0F 01 62  80 23 45 00 80 F8 FF FF  c0+....b.#E.....
0BF0: 7F F8 FF FF 7F 66 64 6F  31 01 80 55 00 80 F8 FF  .....fdo1..U....
0C00: FF 7F F8 FF FF 7F 66 64  6F 31 52 08 80 F8 FF FF  ......fdo1R.....
0C10: 7F F8 FF FF 7F 73 30 33  30 5B 24 80 86 C0 0F 01  .....s030[$.....
0C20: 86 C0 0F 01 66 62 30 30  6B 69 64 6C 30 86 C0 0F  ....fb00kidl0...
0C30: 01 7B 86 C0 0F 01 1A 59  89 89 63 80 1C 1B 80 B4  .{.....Y..c.....
0C40: 14 64 80 65 80 5B 80 01  80 4A 80 1C 1B 80 B4 14  .d.e.[...J......
0C50: 5A 80 5A 80 5A 80 5C 80  4A 80 03 02 10 1A 80 27  Z.Z.Z.\.J......'
0C60: 10 7C C0 0F 01 06 1A 47  89 2B 86 C0 0F 01 66 80  .|.....G.+....f.
0C70: 23 2B 86 C0 0F 01 67 80  23 2A 10 7C C0 0F 01 1A  #+....g.#*.|....
0C80: 59 89 8A B4 15 1A 47 89  77 68 80 0D 80 59 05 86  Y.....G.wh...Y..
0C90: C0 0F 01 01 59 05 87 C0  0F 01 01 BA 87 C0 0F 01  ....Y...........
0CA0: 69 80 6A 80 6B 80 4E 80  BA 86 C0 0F 01 6C 80 6D  i.j.k.N......l.m
0CB0: 80 6E 80 6F 80 80 86 C0  0F 01 80 87 C0 0F 01 1C  .n.o............
0CC0: 07 80 D3 00 86 C0 0F 01  D0 70 80 86 C0 0F 01 86  .........p......
0CD0: C0 0F 01 6B 79 75 30 01  80 5B 71 80 86 C0 0F 01  ...kyu0..[q.....
0CE0: 86 C0 0F 01 6D 69 73 30  1C 07 80 45 08 80 F8 FF  ....mis0...E....
0CF0: FF 7F F8 FF FF 7F 73 30  33 31 01 80 1C 09 80 45  ......s031.....E
0D00: 00 80 F8 FF FF 7F F8 FF  FF 7F 66 64 69 31 01 80  ..........fdi1..
0D10: 2B 86 C0 0F 01 72 80 23  52 08 80 F8 FF FF 7F F8  +....r.#R.......
0D20: FF FF 7F 73 30 33 31 45  08 80 F8 FF FF 7F F8 FF  ...s031E........
0D30: FF 7F 73 30 39 34 01 80  D0 70 80 87 C0 0F 01 87  ..s094...p......
0D40: C0 0F 01 70 6B 30 30 01  80 1C 0B 80 5B 71 80 86  ...pk00.....[q..
0D50: C0 0F 01 86 C0 0F 01 6D  69 73 31 2B 86 C0 0F 01  .......mis1+....
0D60: 73 80 1C 0B 80 52 08 80  F8 FF FF 7F F8 FF FF 7F  s....R..........
0D70: 73 30 39 34 45 08 80 F8  FF FF 7F F8 FF FF 7F 73  s094E..........s
0D80: 30 33 32 01 80 1C 74 80  23 2B 86 C0 0F 01 75 80  032...t.#+....u.
0D90: 23 BA 87 C0 0F 01 69 80  6A 80 76 80 4E 80 5B 77  #.....i.j.v.N.[w
0DA0: 80 86 C0 0F 01 86 C0 0F  01 6B 61 6F 30 D0 70 80  .........kao0.p.
0DB0: 87 C0 0F 01 87 C0 0F 01  6C 70 6B 6C 01 80 1C 78  ........lpkl...x
0DC0: 80 55 08 80 F8 FF FF 7F  F8 FF FF 7F 73 30 33 32  .U..........s032
0DD0: 45 08 80 F8 FF FF 7F F8  FF FF 7F 73 31 30 38 01  E..........s108.
0DE0: 80 C5 79 80 87 C0 0F 01  87 C0 0F 01 73 30 30 34  ..y.........s004
0DF0: 01 80 1C 5C 80 45 00 80  F8 FF FF 7F F8 FF FF 7F  ...\.E..........
0E00: 66 64 6F 31 01 80 55 00  80 F8 FF FF 7F F8 FF FF  fdo1..U.........
0E10: 7F 66 64 6F 31 52 08 80  F8 FF FF 7F F8 FF FF 7F  .fdo1R..........
0E20: 73 31 30 38 C5 79 80 87  C0 0F 01 87 C0 0F 01 73  s108.y.........s
0E30: 74 70 34 01 80 D0 70 80  86 C0 0F 01 86 C0 0F 01  tp4...p.........
0E40: 6B 6C 6B 79 01 80 77 0C  80 0D 80 27 05 87 C0 0F  klky..w....'....
0E50: 01 03 BA 87 C0 0F 01 7A  80 7B 80 05 80 01 80 BA  .......z.{......
0E60: 86 C0 0F 01 7A 80 7B 80  05 80 01 80 80 87 C0 0F  ....z.{.........
0E70: 01 80 86 C0 0F 01 4A 87  C0 0F 01 F0 FF FF 7F 7B  ......J........{
0E80: 87 C0 0F 01 4A F0 FF FF  7F 86 C0 0F 01 4A 86 C0  ....J........J..
0E90: 0F 01 F0 FF FF 7F 1C 07  80 81 00 86 C0 0F 01 7C  ...............|
0EA0: 00 86 C0 0F 01 5B 7C 80  87 C0 0F 01 87 C0 0F 01  .....[|.........
0EB0: 6D 61 67 6C 5B 24 80 86  C0 0F 01 86 C0 0F 01 66  magl[$.........f
0EC0: 62 30 31 48 7D 80 1C 0B  80 45 08 80 F8 FF FF 7F  b01H}....E......
0ED0: F8 FF FF 7F 73 30 33 33  01 80 1C 09 80 45 00 80  ....s033.....E..
0EE0: F8 FF FF 7F F8 FF FF 7F  66 64 69 31 01 80 2B 86  ........fdi1..+.
0EF0: C0 0F 01 7E 80 23 2B 86  C0 0F 01 7F 80 23 27 05  ...~.#+......#'.
0F00: 87 C0 0F 01 04 7B 86 C0  0F 01 27 05 7C C0 0F 01  .....{....'.|...
0F10: 08 1C 78 80 52 08 80 F8  FF FF 7F F8 FF FF 7F 73  ..x.R..........s
0F20: 30 33 33 45 08 80 F8 FF  FF 7F F8 FF FF 7F 73 30  033E..........s0
0F30: 33 34 01 80 AE 05 86 C0  0F 01 87 C0 0F 01 5F 03  34............_.
0F40: 80 80 86 C0 0F 01 86 C0  0F 01 6D 61 67 30 5F 03  ..........mag0_.
0F50: 7C 80 87 C0 0F 01 87 C0  0F 01 6D 61 67 30 2B 86  |.........mag0+.
0F60: C0 0F 01 81 80 1C 82 80  23 52 08 80 F8 FF FF 7F  ........#R......
0F70: F8 FF FF 7F 73 30 33 34  45 08 80 F8 FF FF 7F F8  ....s034E.......
0F80: FF FF 7F 73 30 33 35 01  80 D0 83 80 87 C0 0F 01  ...s035.........
0F90: 87 C0 0F 01 73 74 61 72  01 80 1C 0B 80 45 00 80  ....star.....E..
0FA0: F8 FF FF 7F F8 FF FF 7F  66 64 6F 31 01 80 55 00  ........fdo1..U.
0FB0: 80 F8 FF FF 7F F8 FF FF  7F 66 64 6F 31 52 08 80  .........fdo1R..
0FC0: F8 FF FF 7F F8 FF FF 7F  73 30 33 35 AE 06 87 C0  ........s035....
0FD0: 0F 01 D0 83 80 87 C0 0F  01 87 C0 0F 01 6B 69 6C  .............kil
0FE0: 6C 01 80 4E 01 87 C0 0F  01 4A 03 C0 0F 01 F0 FF  l..N.....J......
0FF0: FF 7F 27 05 F0 FF FF 7F  3D 1C 07 80 45 08 80 F8  ..'.....=...E...
1000: FF FF 7F F8 FF FF 7F 73  30 33 36 01 80 1C 09 80  .......s036.....
1010: 45 00 80 F8 FF FF 7F F8  FF FF 7F 66 64 69 31 01  E..........fdi1.
1020: 80 5F 03 80 80 86 C0 0F  01 86 C0 0F 01 6D 61 67  ._...........mag
1030: 31 2B 86 C0 0F 01 84 80  1C 74 80 23 5B 2B 80 86  1+.......t.#[+..
1040: C0 0F 01 86 C0 0F 01 74  6C 6B 30 2B 86 C0 0F 01  .......tlk0+....
1050: 85 80 23 52 08 80 F8 FF  FF 7F F8 FF FF 7F 73 30  ..#R..........s0
1060: 33 36 45 08 80 F8 FF FF  7F F8 FF FF 7F 73 30 33  36E..........s03
1070: 37 01 80 5B 2B 80 86 C0  0F 01 86 C0 0F 01 74 6C  7..[+.........tl
1080: 6B 31 79 00 03 C0 0F 01  86 C0 0F 01 2B 86 C0 0F  k1y.........+...
1090: 01 86 80 1C 07 80 6B 69  64 6C 30 F0 FF FF 7F 1C  ......kidl0.....
10A0: 74 80 23 5B 24 80 86 C0  0F 01 86 C0 0F 01 66 62  t.#[$.........fb
10B0: 30 30 5B 19 80 03 C0 0F  01 03 C0 0F 01 74 6C 6B  00[..........tlk
10C0: 30 2B 03 C0 0F 01 87 80  23 5B 19 80 03 C0 0F 01  0+......#[......
10D0: 03 C0 0F 01 74 6C 6B 31  52 08 80 F8 FF FF 7F F8  ....tlk1R.......
10E0: FF FF 7F 73 30 33 37 45  08 80 F8 FF FF 7F F8 FF  ...s037E........
10F0: FF 7F 73 30 33 38 01 80  79 00 86 C0 0F 01 03 C0  ..s038..y.......
1100: 0F 01 5B 24 80 86 C0 0F  01 86 C0 0F 01 66 62 30  ..[$.........fb0
1110: 31 5B 35 80 86 C0 0F 01  86 C0 0F 01 79 65 73 30  1[5.........yes0
1120: 2B 86 C0 0F 01 88 80 1C  37 80 23 52 08 80 F8 FF  +.......7.#R....
1130: FF 7F F8 FF FF 7F 73 30  33 38 45 08 80 F8 FF FF  ......s038E.....
1140: 7F F8 FF FF 7F 73 30 33  39 01 80 7B 86 C0 0F 01  .....s039..{....
1150: 1C 07 80 2B 86 C0 0F 01  89 80 23 5B 24 80 86 C0  ...+......#[$...
1160: 0F 01 86 C0 0F 01 66 66  30 30 52 08 80 F8 FF FF  ......ff00R.....
1170: 7F F8 FF FF 7F 73 30 33  39 45 08 80 F8 FF FF 7F  .....s039E......
1180: F8 FF FF 7F 73 30 32 31  01 80 5B 8A 80 86 C0 0F  ....s021..[.....
1190: 01 86 C0 0F 01 68 69 7A  30 D0 8B 80 86 C0 0F 01  .....hiz0.......
11A0: 86 C0 0F 01 6B 69 65 30  01 80 1C 8C 80 52 08 80  ....kie0.....R..
11B0: F8 FF FF 7F F8 FF FF 7F  73 30 32 31 45 08 80 F8  ........s021E...
11C0: FF FF 7F F8 FF FF 7F 73  30 34 31 01 80 6E F0 FF  .......s041..n..
11D0: FF 7F 40 80 99 F0 FF FF  7F 1C 1B 80 52 08 80 F8  ..@.........R...
11E0: FF FF 7F F8 FF FF 7F 73  30 34 31 45 08 80 F8 FF  .......s041E....
11F0: FF 7F F8 FF FF 7F 73 30  34 30 01 80 1C 0B 80 52  ......s040.....R
1200: 08 80 F8 FF FF 7F F8 FF  FF 7F 73 30 34 30 45 08  ..........s040E.
1210: 80 F8 FF FF 7F F8 FF FF  7F 73 30 34 32 01 80 5B  .........s042..[
1220: 24 80 86 C0 0F 01 86 C0  0F 01 66 66 30 31 2B 86  $.........ff01+.
1230: C0 0F 01 8D 80 1C 0B 80  23 5B 24 80 86 C0 0F 01  ........#[$.....
1240: 86 C0 0F 01 66 66 30 30  52 08 80 F8 FF FF 7F F8  ....ff00R.......
1250: FF FF 7F 73 30 34 32 45  08 80 F8 FF FF 7F F8 FF  ...s042E........
1260: FF 7F 73 30 34 33 01 80  5B 8A 80 86 C0 0F 01 86  ..s043..[.......
1270: C0 0F 01 68 69 7A 31 D0  8B 80 86 C0 0F 01 86 C0  ...hiz1.........
1280: 0F 01 6B 69 65 31 01 80  1C 8E 80 52 08 80 F8 FF  ..kie1.....R....
1290: FF 7F F8 FF FF 7F 73 30  34 33 45 08 80 F8 FF FF  ......s043E.....
12A0: 7F F8 FF FF 7F 73 30 34  34 01 80 5B 3B 80 55 C0  .....s044..[;.U.
12B0: 0F 01 55 C0 0F 01 74 68  6B 31 7B 55 C0 0F 01 79  ..U...thk1{U...y
12C0: 00 F0 FF FF 7F 03 C0 0F  01 2B 03 C0 0F 01 8F 80  .........+......
12D0: 23 52 08 80 F8 FF FF 7F  F8 FF FF 7F 73 30 34 34  #R..........s044
12E0: 45 08 80 F8 FF FF 7F F8  FF FF 7F 73 30 34 35 01  E..........s045.
12F0: 80 79 00 03 C0 0F 01 F0  FF FF 7F 2B 03 C0 0F 01  .y.........+....
1300: 90 80 23 6E F0 FF FF 7F  48 80 99 F0 FF FF 7F 1C  ..#n....H.......
1310: 1F 80 52 08 80 F8 FF FF  7F F8 FF FF 7F 73 30 34  ..R..........s04
1320: 35 45 08 80 F8 FF FF 7F  F8 FF FF 7F 73 30 34 36  5E..........s046
1330: 01 80 5B 3B 80 55 C0 0F  01 55 C0 0F 01 74 68 6B  ..[;.U...U...thk
1340: 32 2B 55 C0 0F 01 91 80  1C 1B 80 4A 03 C0 0F 01  2+U........J....
1350: F0 FF FF 7F 79 00 F0 FF  FF 7F 55 C0 0F 01 1C 1B  ....y.....U.....
1360: 80 23 52 08 80 F8 FF FF  7F F8 FF FF 7F 73 30 34  .#R..........s04
1370: 36 45 08 80 F8 FF FF 7F  F8 FF FF 7F 73 30 34 37  6E..........s047
1380: 01 80 27 05 55 C0 0F 01  11 1C 92 80 52 08 80 F8  ..'.U.......R...
1390: FF FF 7F F8 FF FF 7F 73  30 34 37 45 08 80 F8 FF  .......s047E....
13A0: FF 7F F8 FF FF 7F 73 30  34 38 01 80 79 00 F0 FF  ......s048..y...
13B0: FF 7F 03 C0 0F 01 2B 03  C0 0F 01 93 80 1C 1F 80  ......+.........
13C0: 23 52 08 80 F8 FF FF 7F  F8 FF FF 7F 73 30 34 38  #R..........s048
13D0: 45 08 80 F8 FF FF 7F F8  FF FF 7F 73 30 34 39 01  E..........s049.
13E0: 80 5B 19 80 03 C0 0F 01  03 C0 0F 01 74 68 6B 30  .[..........thk0
13F0: 2B 03 C0 0F 01 94 80 23  5D 01 80 0B 80 45 00 80  +......#]....E..
1400: F8 FF FF 7F F8 FF FF 7F  66 64 6F 31 01 80 55 00  ........fdo1..U.
1410: 80 F8 FF FF 7F F8 FF FF  7F 66 64 6F 31 52 08 80  .........fdo1R..
1420: F8 FF FF 7F F8 FF FF 7F  73 30 34 39 C9 5C 00 95  ........s049.\..
1430: 80 5C 01 95 80 9A 46 00  45 00 80 F8 FF FF 7F F8  .\....F.E.......
1440: FF FF 7F 66 64 69 32 01  80 21 00                 ...fdi2..!.     
```

#### Opcodes

```
  0: 0x0001 [0x42] SET_CLI_EVENT_CANCEL_DATA()
  1: 0x0002 [0x03] ExtData[1]->WorkLocal[0] = Work_Zone[8]
  2: 0x0007 [0x03] ExtData[1]->WorkLocal[1] = Work_Zone[9]
  3: 0x000C [0x45] LOAD_SCHEDULED_TASK: Load scheduler "fdo1" with entities [EventEntity, EventEntity], work=[200*, 0*]
  4: 0x001D [0x55] WAIT_LOAD_SCHEDULER: Wait for scheduler "fdo1" with entities [EventEntity, EventEntity], work=200*
  5: 0x002C [0x46] CAMERA_CONTROL: Disable user control
  6: 0x002E [0x38] SET_CLIENT_EVENT_MODE(mode=27*)
  7: 0x0031 [0x92] Comitiolus (ID: 17809425/0x010FC011)->Render.Flags3 ^= 0x01
  8: 0x0037 [0x94] Comitiolus (ID: 17809425/0x010FC011)->Render.Flags3 ^= 0x01
  9: 0x003D [0xBA] SET_ENTITY_POSITION(entity_id=LocalPlayer, pos_x=98.809*, pos_z=-11.958*, pos_y=-7.086*, direction=31.6*)
 10: 0x004A [0x80] LOAD_WAIT(entity=LocalPlayer)
 11: 0x004F [0x80] LOAD_WAIT(entity=Comitiolus (ID: 17809425/0x010FC011))
 12: 0x0054 [0x4A] Comitiolus (ID: 17809425/0x010FC011) looks at LocalPlayer
 13: 0x005D [0x4A] LocalPlayer looks at Comitiolus (ID: 17809425/0x010FC011)
 14: 0x0066 [0x1C] WAIT(30* ticks)
 15: 0x0069 [0x45] LOAD_SCHEDULED_TASK: Load scheduler "s000" with entities [EventEntity, EventEntity], work=[761*, 0*]
 16: 0x007A [0x1C] WAIT(15* ticks)
 17: 0x007D [0x45] LOAD_SCHEDULED_TASK: Load scheduler "fdi1" with entities [EventEntity, EventEntity], work=[200*, 0*]
 18: 0x008E [0x66] LOAD_EXT_SCHEDULER_MAIN: Load scheduler "tlk0" with entities [Comitiolus (ID: 17809425/0x010FC011), Comitiolus (ID: 17809425/0x010FC011)], work=0*
 19: 0x009D [0x2B] Comitiolus (ID: 17809425/0x010FC011) [12340*]:
     "Didya get bumped about by the waves on yer way here, <Player>? No matter. The boss be waitin' inside fer ya."
 20: 0x00A4 [0x23] WAIT_FOR_DIALOG_INTERACTION
 21: 0x00A5 [0x5D] SET_MUSIC_VOLUME(volume=0*, fade_time=120*)
 22: 0x00AA [0x45] LOAD_SCHEDULED_TASK: Load scheduler "fdo1" with entities [EventEntity, EventEntity], work=[200*, 0*]
 23: 0x00BB [0x55] WAIT_LOAD_SCHEDULER: Wait for scheduler "fdo1" with entities [EventEntity, EventEntity], work=200*
 24: 0x00CA [0x52] END_LOAD_SCHEDULER: End scheduler "s000" with entities [EventEntity, EventEntity], work=761*
 25: 0x00D9 [0x77] SET_EVENT_TIME_WEATHER(hour=3*, weather=255*)
 26: 0x00DE [0x7B] LocalPlayer stops talking
 27: 0x00E3 [0x75] LOAD_ROOM(Load indoor room, room=514*)
 28: 0x00E7 [0x75] LOAD_ROOM(No action)
 29: 0x00E9 [0x2F] Aldo (ID: 17809493/0x010FC055)->Render.Flags0 &= ~0x80000 // Bit 19
 30: 0x00EF [0x2F] ??? (ID: 17809543/0x010FC087)->Render.Flags0 &= ~0x80000 // Bit 19
 31: 0x00F5 [0x2F] Iroha (ID: 17809542/0x010FC086)->Render.Flags0 &= ~0x80000 // Bit 19
 32: 0x00FB [0x4E] SET_ENTITY_HIDE_FLAG: Show Aldo (ID: 17809493/0x010FC055)
 33: 0x0101 [0x4E] SET_ENTITY_HIDE_FLAG: Show Iroha (ID: 17809542/0x010FC086)
 34: 0x0107 [0x4E] SET_ENTITY_HIDE_FLAG: Show ??? (ID: 17809543/0x010FC087)
 35: 0x010D [0x92] Iroha (ID: 17809542/0x010FC086)->Render.Flags3 ^= 0x01
 36: 0x0113 [0x92] Aldo (ID: 17809493/0x010FC055)->Render.Flags3 ^= 0x01
 37: 0x0119 [0x92] Gilgamesh (ID: 17809411/0x010FC003)->Render.Flags3 ^= 0x01
 38: 0x011F [0x92] Kamui (ID: 17809412/0x010FC004)->Render.Flags3 ^= 0x01
 39: 0x0125 [0x92] ??? (ID: 17809543/0x010FC087)->Render.Flags3 ^= 0x01
 40: 0x012B [0x94] Gilgamesh (ID: 17809411/0x010FC003)->Render.Flags3 ^= 0x01
 41: 0x0131 [0x94] Iroha (ID: 17809542/0x010FC086)->Render.Flags3 ^= 0x01
 42: 0x0137 [0x94] LocalPlayer->Render.Flags3 ^= 0x01
 43: 0x013D [0x94] Aldo (ID: 17809493/0x010FC055)->Render.Flags3 ^= 0x01
 44: 0x0143 [0x94] Kamui (ID: 17809412/0x010FC004)->Render.Flags3 ^= 0x01
 45: 0x0149 [0x94] ??? (ID: 17809543/0x010FC087)->Render.Flags3 ^= 0x01
 46: 0x014F [0x27] REQ_SET(priority=0x05, entity_id=??? (ID: 17809543/0x010FC087), tag_num=0x05)
 47: 0x0156 [0xBA] SET_ENTITY_POSITION(entity_id=Iroha (ID: 17809542/0x010FC086), pos_x=119.709*, pos_z=-11.980*, pos_y=-8.009*, direction=2.2*)
 48: 0x0163 [0xBA] SET_ENTITY_POSITION(entity_id=Aldo (ID: 17809493/0x010FC055), pos_x=120.352*, pos_z=-14.760*, pos_y=-8.009*, direction=278.3*)
 49: 0x0170 [0xBA] SET_ENTITY_POSITION(entity_id=LocalPlayer, pos_x=100.950*, pos_z=-11.938*, pos_y=-7.086*, direction=0.4*)
 50: 0x017D [0x80] LOAD_WAIT(entity=Aldo (ID: 17809493/0x010FC055))
 51: 0x0182 [0x80] LOAD_WAIT(entity=Iroha (ID: 17809542/0x010FC086))
 52: 0x0187 [0x80] LOAD_WAIT(entity=Gilgamesh (ID: 17809411/0x010FC003))
 53: 0x018C [0x80] LOAD_WAIT(entity=LocalPlayer)
 54: 0x0191 [0x80] LOAD_WAIT(entity=Kamui (ID: 17809412/0x010FC004))
 55: 0x0196 [0x4A] Aldo (ID: 17809493/0x010FC055) looks at Iroha (ID: 17809542/0x010FC086)
 56: 0x019F [0x4A] Gilgamesh (ID: 17809411/0x010FC003) looks at Iroha (ID: 17809542/0x010FC086)
 57: 0x01A8 [0x4A] Iroha (ID: 17809542/0x010FC086) looks at Gilgamesh (ID: 17809411/0x010FC003)
 58: 0x01B1 [0x1C] WAIT(30* ticks)
 59: 0x01B4 [0x81] SET_ENTITY_BLINKING(blink_flag=0x00, entity=Iroha (ID: 17809542/0x010FC086))
 60: 0x01BA [0x7C] Iroha (ID: 17809542/0x010FC086)->Render.Flags2 |= 0x00
 61: 0x01C0 [0x5B] LOAD_EXT_SCHEDULER: Load scheduler "thk0" with entities [Gilgamesh (ID: 17809411/0x010FC003), Gilgamesh (ID: 17809411/0x010FC003)], work=566*
 62: 0x01CF [0x1C] WAIT(30* ticks)
 63: 0x01D2 [0x45] LOAD_SCHEDULED_TASK: Load scheduler "s001" with entities [EventEntity, EventEntity], work=[761*, 0*]
 64: 0x01E3 [0x1C] WAIT(15* ticks)
 65: 0x01E6 [0x45] LOAD_SCHEDULED_TASK: Load scheduler "fdi1" with entities [EventEntity, EventEntity], work=[200*, 0*]
 66: 0x01F7 [0x1C] WAIT(150* ticks)
 67: 0x01FA [0x27] REQ_SET(priority=0x10, entity_id=Oaken Door (ID: 17809458/0x010FC032), tag_num=0x05)
 68: 0x0201 [0x52] END_LOAD_SCHEDULER: End scheduler "s001" with entities [EventEntity, EventEntity], work=761*
 69: 0x0210 [0x45] LOAD_SCHEDULED_TASK: Load scheduler "s002" with entities [EventEntity, EventEntity], work=[761*, 0*]
 70: 0x0221 [0x1C] WAIT(60* ticks)
 71: 0x0224 [0x4A] Iroha (ID: 17809542/0x010FC086) looks at LocalPlayer
 72: 0x022D [0x7B] Iroha (ID: 17809542/0x010FC086) stops talking
 73: 0x0232 [0x1C] WAIT(60* ticks)
 74: 0x0235 [0x52] END_LOAD_SCHEDULER: End scheduler "s002" with entities [EventEntity, EventEntity], work=761*
 75: 0x0244 [0x45] LOAD_SCHEDULED_TASK: Load scheduler "s003" with entities [EventEntity, EventEntity], work=[761*, 0*]
 76: 0x0255 [0x5B] LOAD_EXT_SCHEDULER: Load scheduler "thk1" with entities [Gilgamesh (ID: 17809411/0x010FC003), Gilgamesh (ID: 17809411/0x010FC003)], work=566*
 77: 0x0264 [0x1C] WAIT(30* ticks)
 78: 0x0267 [0x27] REQ_SET(priority=0x10, entity_id=Oaken Door (ID: 17809458/0x010FC032), tag_num=0x06)
 79: 0x026E [0x2B] Gilgamesh (ID: 17809411/0x010FC003) [12341*]:
     "Oho! Would ya look who's decided ta join us!"
 80: 0x0275 [0x23] WAIT_FOR_DIALOG_INTERACTION
 81: 0x0276 [0x5C] MUSIC_CONTROL: Set Idle (Day) music to song 79*
 82: 0x027A [0x5C] MUSIC_CONTROL: Set Idle (Night) music to song 79*
 83: 0x027E [0x9A] WAIT_MUSIC_SERVER()
 84: 0x027F [0x5B] LOAD_EXT_SCHEDULER: Load scheduler "syo0" with entities [Iroha (ID: 17809542/0x010FC086), Iroha (ID: 17809542/0x010FC086)], work=3868*
 85: 0x028E [0x1C] WAIT(90* ticks)
 86: 0x0291 [0x52] END_LOAD_SCHEDULER: End scheduler "s003" with entities [EventEntity, EventEntity], work=761*
 87: 0x02A0 [0x45] LOAD_SCHEDULED_TASK: Load scheduler "s004" with entities [EventEntity, EventEntity], work=[761*, 0*]
 88: 0x02B1 [0x1C] WAIT(30* ticks)
 89: 0x02B4 [0x2B] ??? (ID: 17809543/0x010FC087) [12342*]:
     "Master!"
 90: 0x02BB [0x1C] WAIT(70* ticks)
 91: 0x02BE [0x23] WAIT_FOR_DIALOG_INTERACTION
 92: 0x02BF [0xBA] SET_ENTITY_POSITION(entity_id=LocalPlayer, pos_x=108.764*, pos_z=-12.082*, pos_y=-7.086*, direction=0.0*)
 93: 0x02CC [0x80] LOAD_WAIT(entity=LocalPlayer)
 94: 0x02D1 [0x4A] LocalPlayer looks at Iroha (ID: 17809542/0x010FC086)
 95: 0x02DA [0x1C] WAIT(30* ticks)
 96: 0x02DD [0x55] WAIT_LOAD_SCHEDULER: Wait for scheduler "s004" with entities [EventEntity, EventEntity], work=761*
 97: 0x02EC [0x45] LOAD_SCHEDULED_TASK: Load scheduler "s005" with entities [EventEntity, EventEntity], work=[761*, 0*]
 98: 0x02FD [0x27] REQ_SET(priority=0x05, entity_id=Iroha (ID: 17809542/0x010FC086), tag_num=0x02)
 99: 0x0304 [0x1C] WAIT(90* ticks)
100: 0x0307 [0x4A] Kamui (ID: 17809412/0x010FC004) looks at LocalPlayer
101: 0x0310 [0x2A] GET_REQ_LEVEL(level=5, entity_id=Iroha (ID: 17809542/0x010FC086))
102: 0x0316 [0x52] END_LOAD_SCHEDULER: End scheduler "s005" with entities [EventEntity, EventEntity], work=761*
103: 0x0325 [0x45] LOAD_SCHEDULED_TASK: Load scheduler "s006" with entities [EventEntity, EventEntity], work=[761*, 0*]
104: 0x0336 [0x5B] LOAD_EXT_SCHEDULER: Load scheduler "fd01" with entities [Iroha (ID: 17809542/0x010FC086), Iroha (ID: 17809542/0x010FC086)], work=3858*
105: 0x0345 [0x1C] WAIT(15* ticks)
106: 0x0348 [0xBA] SET_ENTITY_POSITION(entity_id=Aldo (ID: 17809493/0x010FC055), pos_x=116.316*, pos_z=-11.988*, pos_y=-8.009*, direction=181.1*)
107: 0x0355 [0xBA] SET_ENTITY_POSITION(entity_id=Gilgamesh (ID: 17809411/0x010FC003), pos_x=115.184*, pos_z=-11.030*, pos_y=-7.777*, direction=181.1*)
108: 0x0362 [0x27] REQ_SET(priority=0x05, entity_id=Aldo (ID: 17809493/0x010FC055), tag_num=0x10)
109: 0x0369 [0x27] REQ_SET(priority=0x05, entity_id=Gilgamesh (ID: 17809411/0x010FC003), tag_num=0x30)
110: 0x0370 [0x5B] LOAD_EXT_SCHEDULER: Load scheduler "tlk0" with entities [Iroha (ID: 17809542/0x010FC086), Iroha (ID: 17809542/0x010FC086)], work=3861*
111: 0x037F [0x2B] ??? (ID: 17809543/0x010FC087) [12343*]:
     "I am both humbled and honored to be able to exchange words with you once more."
112: 0x0386 [0x23] WAIT_FOR_DIALOG_INTERACTION
113: 0x0387 [0x2B] ??? (ID: 17809543/0x010FC087) [12344*]:
     "I have followed your instructions to the letter. Months upon years have I toiled, seeking guidance from both man and the heavens, never once letting my training or dedication falter."
114: 0x038E [0x23] WAIT_FOR_DIALOG_INTERACTION
115: 0x038F [0x79] Gilgamesh (ID: 17809411/0x010FC003) looks at Iroha (ID: 17809542/0x010FC086) (Basic look)
116: 0x0399 [0x52] END_LOAD_SCHEDULER: End scheduler "s006" with entities [EventEntity, EventEntity], work=761*
117: 0x03A8 [0x45] LOAD_SCHEDULED_TASK: Load scheduler "s007" with entities [EventEntity, EventEntity], work=[761*, 0*]
118: 0x03B9 [0x2B] ??? (ID: 17809543/0x010FC087) [12345*]:
     "All this I have done so that we may meet once more."
119: 0x03C0 [0x23] WAIT_FOR_DIALOG_INTERACTION
120: 0x03C1 [0x2B] Iroha (ID: 17809542/0x010FC086) [12346*]:
     "Unworthy though your disciple Iroha may be, her words and emotions are true."
121: 0x03C8 [0x23] WAIT_FOR_DIALOG_INTERACTION
122: 0x03C9 [0x5B] LOAD_EXT_SCHEDULER: Load scheduler "tlk1" with entities [Iroha (ID: 17809542/0x010FC086), Iroha (ID: 17809542/0x010FC086)], work=3861*
123: 0x03D8 [0x52] END_LOAD_SCHEDULER: End scheduler "s007" with entities [EventEntity, EventEntity], work=761*
124: 0x03E7 [0x45] LOAD_SCHEDULED_TASK: Load scheduler "s008" with entities [EventEntity, EventEntity], work=[761*, 0*]
125: 0x03F8 [0x79] Gilgamesh (ID: 17809411/0x010FC003) looks at LocalPlayer (Basic look)
126: 0x0402 [0x24] CREATE_DIALOG(message_id=12347*, default_option=0*, option_flags=0*)
     "How do you respond? [Who?/Master?]"
127: 0x0409 [0x25] WAIT_DIALOG_SELECT()
128: 0x040A [0x02] IF !(Work_Zone[0] == 0*) GOTO 0x0415
129: 0x0412 [0x01] GOTO 0x0415

SUBROUTINE_0415:
130: 0x0415 [0x4E] SET_ENTITY_HIDE_FLAG: Hide Kamui (ID: 17809412/0x010FC004)
131: 0x041B [0x5B] LOAD_EXT_SCHEDULER: Load scheduler "fb00" with entities [Iroha (ID: 17809542/0x010FC086), Iroha (ID: 17809542/0x010FC086)], work=3858*
132: 0x042A [0x2A] GET_REQ_LEVEL(level=5, entity_id=Gilgamesh (ID: 17809411/0x010FC003))
133: 0x0430 [0x52] END_LOAD_SCHEDULER: End scheduler "s008" with entities [EventEntity, EventEntity], work=761*
134: 0x043F [0x45] LOAD_SCHEDULED_TASK: Load scheduler "s009" with entities [EventEntity, EventEntity], work=[761*, 0*]
135: 0x0450 [0x5B] LOAD_EXT_SCHEDULER: Load scheduler "tlk0" with entities [Gilgamesh (ID: 17809411/0x010FC003), Gilgamesh (ID: 17809411/0x010FC003)], work=566*
136: 0x045F [0x2B] Gilgamesh (ID: 17809411/0x010FC003) [12348*]:
     "Ya got krill in yer ears, [boy/girl]? She's callin' you her master!"
137: 0x0466 [0x23] WAIT_FOR_DIALOG_INTERACTION
138: 0x0467 [0x2B] Gilgamesh (ID: 17809411/0x010FC003) [12349*]:
     "What kind of master runs around fergettin' who their pupils are? Ya mean to say ya don't remember her at all?"
139: 0x046E [0x23] WAIT_FOR_DIALOG_INTERACTION
140: 0x046F [0x5B] LOAD_EXT_SCHEDULER: Load scheduler "tlk1" with entities [Gilgamesh (ID: 17809411/0x010FC003), Gilgamesh (ID: 17809411/0x010FC003)], work=566*
141: 0x047E [0x6E] LocalPlayer uses emote 7*
142: 0x0485 [0x99] Wait for LocalPlayer animation to complete
143: 0x048A [0x1C] WAIT(90* ticks)
144: 0x048D [0x52] END_LOAD_SCHEDULER: End scheduler "s009" with entities [EventEntity, EventEntity], work=761*
145: 0x049C [0x45] LOAD_SCHEDULED_TASK: Load scheduler "s010" with entities [EventEntity, EventEntity], work=[761*, 0*]
146: 0x04AD [0x79] Gilgamesh (ID: 17809411/0x010FC003) looks at Iroha (ID: 17809542/0x010FC086) (Basic look)
147: 0x04B7 [0x2B] Gilgamesh (ID: 17809411/0x010FC003) [12350*]:
     "What's all this malarkey?"
148: 0x04BE [0x23] WAIT_FOR_DIALOG_INTERACTION
149: 0x04BF [0x5B] LOAD_EXT_SCHEDULER: Load scheduler "fb01" with entities [Iroha (ID: 17809542/0x010FC086), Iroha (ID: 17809542/0x010FC086)], work=3858*
150: 0x04CE [0x5B] LOAD_EXT_SCHEDULER: Load scheduler "yes0" with entities [Iroha (ID: 17809542/0x010FC086), Iroha (ID: 17809542/0x010FC086)], work=3862*
151: 0x04DD [0x2B] Iroha (ID: 17809542/0x010FC086) [12351*]:
     "Do not get angry at [him/her]. It is only natural that [he/she] not remember me."
152: 0x04E4 [0x1C] WAIT(130* ticks)
153: 0x04E7 [0x23] WAIT_FOR_DIALOG_INTERACTION
154: 0x04E8 [0x52] END_LOAD_SCHEDULER: End scheduler "s010" with entities [EventEntity, EventEntity], work=761*
155: 0x04F7 [0x45] LOAD_SCHEDULED_TASK: Load scheduler "s011" with entities [EventEntity, EventEntity], work=[761*, 0*]
156: 0x0508 [0x5B] LOAD_EXT_SCHEDULER: Load scheduler "tlb0" with entities [Iroha (ID: 17809542/0x010FC086), Iroha (ID: 17809542/0x010FC086)], work=3861*
157: 0x0517 [0x2B] Iroha (ID: 17809542/0x010FC086) [12352*]:
     "I have wholly lost track of what year this is. 884, correct?"
158: 0x051E [0x23] WAIT_FOR_DIALOG_INTERACTION
159: 0x051F [0x2B] Iroha (ID: 17809542/0x010FC086) [12353*]:
     "This time is many, many years before I came to be, and my presence here is somewhat of an anomaly."
160: 0x0526 [0x23] WAIT_FOR_DIALOG_INTERACTION
161: 0x0527 [0x5B] LOAD_EXT_SCHEDULER: Load scheduler "tlb1" with entities [Iroha (ID: 17809542/0x010FC086), Iroha (ID: 17809542/0x010FC086)], work=3861*
162: 0x0536 [0x52] END_LOAD_SCHEDULER: End scheduler "s011" with entities [EventEntity, EventEntity], work=761*
163: 0x0545 [0x45] LOAD_SCHEDULED_TASK: Load scheduler "s012" with entities [EventEntity, EventEntity], work=[761*, 0*]
164: 0x0556 [0x5B] LOAD_EXT_SCHEDULER: Load scheduler "tlk0" with entities [Gilgamesh (ID: 17809411/0x010FC003), Gilgamesh (ID: 17809411/0x010FC003)], work=566*
165: 0x0565 [0x2B] Gilgamesh (ID: 17809411/0x010FC003) [12354*]:
     "Did ya hit yer head 'fore I found ya floating adrift or somethin'?"
166: 0x056C [0x23] WAIT_FOR_DIALOG_INTERACTION
167: 0x056D [0x5B] LOAD_EXT_SCHEDULER: Load scheduler "tlk1" with entities [Gilgamesh (ID: 17809411/0x010FC003), Gilgamesh (ID: 17809411/0x010FC003)], work=566*
168: 0x057C [0x52] END_LOAD_SCHEDULER: End scheduler "s012" with entities [EventEntity, EventEntity], work=761*
169: 0x058B [0x45] LOAD_SCHEDULED_TASK: Load scheduler "s013" with entities [EventEntity, EventEntity], work=[761*, 0*]
170: 0x059C [0x5B] LOAD_EXT_SCHEDULER: Load scheduler "thk1" with entities [Aldo (ID: 17809493/0x010FC055), Aldo (ID: 17809493/0x010FC055)], work=185*
171: 0x05AB [0x2B] Aldo (ID: 17809493/0x010FC055) [12355*]:
     "You mean to say...that you haven't been born yet?"
172: 0x05B2 [0x23] WAIT_FOR_DIALOG_INTERACTION
173: 0x05B3 [0x52] END_LOAD_SCHEDULER: End scheduler "s013" with entities [EventEntity, EventEntity], work=761*
174: 0x05C2 [0x45] LOAD_SCHEDULED_TASK: Load scheduler "s014" with entities [EventEntity, EventEntity], work=[761*, 0*]
175: 0x05D3 [0x4A] Gilgamesh (ID: 17809411/0x010FC003) looks at Aldo (ID: 17809493/0x010FC055)
176: 0x05DC [0x1C] WAIT(30* ticks)
177: 0x05DF [0x5B] LOAD_EXT_SCHEDULER: Load scheduler "tlk0" with entities [Gilgamesh (ID: 17809411/0x010FC003), Gilgamesh (ID: 17809411/0x010FC003)], work=566*
178: 0x05EE [0x2B] Gilgamesh (ID: 17809411/0x010FC003) [12356*]:
     "Then how'd ya get here?"
179: 0x05F5 [0x23] WAIT_FOR_DIALOG_INTERACTION
180: 0x05F6 [0x5B] LOAD_EXT_SCHEDULER: Load scheduler "tlk1" with entities [Gilgamesh (ID: 17809411/0x010FC003), Gilgamesh (ID: 17809411/0x010FC003)], work=566*
181: 0x0605 [0x52] END_LOAD_SCHEDULER: End scheduler "s014" with entities [EventEntity, EventEntity], work=761*
182: 0x0614 [0x45] LOAD_SCHEDULED_TASK: Load scheduler "s015" with entities [EventEntity, EventEntity], work=[761*, 0*]
183: 0x0625 [0x4A] Iroha (ID: 17809542/0x010FC086) looks at Aldo (ID: 17809493/0x010FC055)
184: 0x062E [0x1C] WAIT(30* ticks)
185: 0x0631 [0x79] Gilgamesh (ID: 17809411/0x010FC003) looks at Iroha (ID: 17809542/0x010FC086) (Basic look)
186: 0x063B [0x5B] LOAD_EXT_SCHEDULER: Load scheduler "tlc0" with entities [Iroha (ID: 17809542/0x010FC086), Iroha (ID: 17809542/0x010FC086)], work=3863*
187: 0x064A [0x2B] Iroha (ID: 17809542/0x010FC086) [12357*]:
     "I come from an age far in the future, when Vana'diel stands on a precipice--and the master is the only one who can guide me."
188: 0x0651 [0x1C] WAIT(30* ticks)
189: 0x0654 [0x6E] LocalPlayer uses emote 21*
190: 0x065B [0x99] Wait for LocalPlayer animation to complete
191: 0x0660 [0x1C] WAIT(60* ticks)
192: 0x0663 [0x23] WAIT_FOR_DIALOG_INTERACTION
193: 0x0664 [0x5B] LOAD_EXT_SCHEDULER: Load scheduler "fb00" with entities [Iroha (ID: 17809542/0x010FC086), Iroha (ID: 17809542/0x010FC086)], work=3858*
194: 0x0673 [0x5B] LOAD_EXT_SCHEDULER: Load scheduler "tlc1" with entities [Iroha (ID: 17809542/0x010FC086), Iroha (ID: 17809542/0x010FC086)], work=3863*
195: 0x0682 [0x5B] LOAD_EXT_SCHEDULER: Load scheduler "thk2" with entities [Aldo (ID: 17809493/0x010FC055), Aldo (ID: 17809493/0x010FC055)], work=185*
196: 0x0691 [0x2B] Aldo (ID: 17809493/0x010FC055) [12358*]:
     "So you mean to say that <Player>...is this master of yours?"
197: 0x0698 [0x23] WAIT_FOR_DIALOG_INTERACTION
198: 0x0699 [0x52] END_LOAD_SCHEDULER: End scheduler "s015" with entities [EventEntity, EventEntity], work=761*
199: 0x06A8 [0x45] LOAD_SCHEDULED_TASK: Load scheduler "s016" with entities [EventEntity, EventEntity], work=[761*, 0*]
200: 0x06B9 [0x5B] LOAD_EXT_SCHEDULER: Load scheduler "tlk0" with entities [Gilgamesh (ID: 17809411/0x010FC003), Gilgamesh (ID: 17809411/0x010FC003)], work=566*
201: 0x06C8 [0x2B] Gilgamesh (ID: 17809411/0x010FC003) [12359*]:
     "And from that outfit yer wearing, I'd wager ya were born in the Far East."
202: 0x06CF [0x23] WAIT_FOR_DIALOG_INTERACTION
203: 0x06D0 [0x5B] LOAD_EXT_SCHEDULER: Load scheduler "tlk1" with entities [Gilgamesh (ID: 17809411/0x010FC003), Gilgamesh (ID: 17809411/0x010FC003)], work=566*
204: 0x06DF [0x52] END_LOAD_SCHEDULER: End scheduler "s016" with entities [EventEntity, EventEntity], work=761*
205: 0x06EE [0x45] LOAD_SCHEDULED_TASK: Load scheduler "s017" with entities [EventEntity, EventEntity], work=[761*, 0*]
206: 0x06FF [0x4A] Iroha (ID: 17809542/0x010FC086) looks at Gilgamesh (ID: 17809411/0x010FC003)
207: 0x0708 [0x1C] WAIT(30* ticks)
208: 0x070B [0x5B] LOAD_EXT_SCHEDULER: Load scheduler "fb01" with entities [Iroha (ID: 17809542/0x010FC086), Iroha (ID: 17809542/0x010FC086)], work=3858*
209: 0x071A [0x5B] LOAD_EXT_SCHEDULER: Load scheduler "yes0" with entities [Iroha (ID: 17809542/0x010FC086), Iroha (ID: 17809542/0x010FC086)], work=3862*
210: 0x0729 [0x2B] Iroha (ID: 17809542/0x010FC086) [12360*]:
     "That is correct. I am the guardian of Reisenjima Sanctorium, and have a strong link with the heavens as its chief priestess."
211: 0x0730 [0x1C] WAIT(130* ticks)
212: 0x0733 [0x23] WAIT_FOR_DIALOG_INTERACTION
213: 0x0734 [0x52] END_LOAD_SCHEDULER: End scheduler "s017" with entities [EventEntity, EventEntity], work=761*
214: 0x0743 [0x45] LOAD_SCHEDULED_TASK: Load scheduler "s018" with entities [EventEntity, EventEntity], work=[761*, 0*]
215: 0x0754 [0x5B] LOAD_EXT_SCHEDULER: Load scheduler "thk0" with entities [Gilgamesh (ID: 17809411/0x010FC003), Gilgamesh (ID: 17809411/0x010FC003)], work=566*
216: 0x0763 [0x2B] Gilgamesh (ID: 17809411/0x010FC003) [12361*]:
     "Oho. I know the particulars of the eastern faith are a bit foreign ta the rest of us, but Altana remains a central figure even there."
217: 0x076A [0x23] WAIT_FOR_DIALOG_INTERACTION
218: 0x076B [0x2B] Gilgamesh (ID: 17809411/0x010FC003) [12362*]:
     "So that'd make ya a religious authority, then?"
219: 0x0772 [0x23] WAIT_FOR_DIALOG_INTERACTION
220: 0x0773 [0x2B] Gilgamesh (ID: 17809411/0x010FC003) [12363*]:
     "And let me guess. The power of the spirits sent you back ta our time?"
221: 0x077A [0x23] WAIT_FOR_DIALOG_INTERACTION
222: 0x077B [0x52] END_LOAD_SCHEDULER: End scheduler "s018" with entities [EventEntity, EventEntity], work=761*
223: 0x078A [0x45] LOAD_SCHEDULED_TASK: Load scheduler "s019" with entities [EventEntity, EventEntity], work=[761*, 0*]
224: 0x079B [0x5B] LOAD_EXT_SCHEDULER: Load scheduler "yes0" with entities [Iroha (ID: 17809542/0x010FC086), Iroha (ID: 17809542/0x010FC086)], work=3862*
225: 0x07AA [0x2B] Iroha (ID: 17809542/0x010FC086) [12364*]:
     "They set me adrift so that I may prevent the darkness which has engulfed my era."
226: 0x07B1 [0x1C] WAIT(130* ticks)
227: 0x07B4 [0x5B] LOAD_EXT_SCHEDULER: Load scheduler "fb00" with entities [Iroha (ID: 17809542/0x010FC086), Iroha (ID: 17809542/0x010FC086)], work=3858*
228: 0x07C3 [0x23] WAIT_FOR_DIALOG_INTERACTION
229: 0x07C4 [0x52] END_LOAD_SCHEDULER: End scheduler "s019" with entities [EventEntity, EventEntity], work=761*
230: 0x07D3 [0x45] LOAD_SCHEDULED_TASK: Load scheduler "s020" with entities [EventEntity, EventEntity], work=[761*, 0*]
231: 0x07E4 [0x5B] LOAD_EXT_SCHEDULER: Load scheduler "thk1" with entities [Gilgamesh (ID: 17809411/0x010FC003), Gilgamesh (ID: 17809411/0x010FC003)], work=566*
232: 0x07F3 [0x6E] LocalPlayer uses emote 32*
233: 0x07FA [0x99] Wait for LocalPlayer animation to complete
234: 0x07FF [0x1C] WAIT(120* ticks)
235: 0x0802 [0x5B] LOAD_EXT_SCHEDULER: Load scheduler "tlk0" with entities [Aldo (ID: 17809493/0x010FC055), Aldo (ID: 17809493/0x010FC055)], work=185*
236: 0x0811 [0x2B] Aldo (ID: 17809493/0x010FC055) [12365*]:
     "What's this then? You're going to have to be a bit more straightforward."
237: 0x0818 [0x23] WAIT_FOR_DIALOG_INTERACTION
238: 0x0819 [0x02] IF !(ExtData[1]->WorkLocal[0] == 1*) GOTO 0x0833
239: 0x0821 [0x5B] LOAD_EXT_SCHEDULER: Load scheduler "tlk1" with entities [Aldo (ID: 17809493/0x010FC055), Aldo (ID: 17809493/0x010FC055)], work=185*
240: 0x0830 [0x01] GOTO 0x084A
241: 0x0833 [0x2B] Aldo (ID: 17809493/0x010FC055) [12366*]:
     "Does this mean that the beastmen end up victorious in the end? Or is it something far more nefarious?"
242: 0x083A [0x23] WAIT_FOR_DIALOG_INTERACTION
243: 0x083B [0x5B] LOAD_EXT_SCHEDULER: Load scheduler "tlk1" with entities [Aldo (ID: 17809493/0x010FC055), Aldo (ID: 17809493/0x010FC055)], work=185*

SUBROUTINE_084A:
244: 0x084A [0xBA] SET_ENTITY_POSITION(entity_id=LocalPlayer, pos_x=109.795*, pos_z=-10.899*, pos_y=-7.086*, direction=359.5*)
245: 0x0857 [0x52] END_LOAD_SCHEDULER: End scheduler "s020" with entities [EventEntity, EventEntity], work=761*
246: 0x0866 [0x45] LOAD_SCHEDULED_TASK: Load scheduler "s022" with entities [EventEntity, EventEntity], work=[761*, 0*]
247: 0x0877 [0x1C] WAIT(20* ticks)
248: 0x087A [0x79] Iroha (ID: 17809542/0x010FC086) looks at LocalPlayer (Basic look)
249: 0x0884 [0x1C] WAIT(30* ticks)
250: 0x0887 [0x5B] LOAD_EXT_SCHEDULER: Load scheduler "fb01" with entities [Iroha (ID: 17809542/0x010FC086), Iroha (ID: 17809542/0x010FC086)], work=3858*
251: 0x0896 [0x5B] LOAD_EXT_SCHEDULER: Load scheduler "tla0" with entities [Iroha (ID: 17809542/0x010FC086), Iroha (ID: 17809542/0x010FC086)], work=3861*
252: 0x08A5 [0x2B] Iroha (ID: 17809542/0x010FC086) [12367*]:
     "Master, do I have your leave to show them our reality?"
253: 0x08AC [0x23] WAIT_FOR_DIALOG_INTERACTION
254: 0x08AD [0x5B] LOAD_EXT_SCHEDULER: Load scheduler "fb00" with entities [Iroha (ID: 17809542/0x010FC086), Iroha (ID: 17809542/0x010FC086)], work=3858*
255: 0x08BC [0x5B] LOAD_EXT_SCHEDULER: Load scheduler "tla1" with entities [Iroha (ID: 17809542/0x010FC086), Iroha (ID: 17809542/0x010FC086)], work=3861*
256: 0x08CB [0x52] END_LOAD_SCHEDULER: End scheduler "s022" with entities [EventEntity, EventEntity], work=761*

SUBROUTINE_08DA:
257: 0x08DA [0x45] LOAD_SCHEDULED_TASK: Load scheduler "s023" with entities [EventEntity, EventEntity], work=[761*, 0*]
258: 0x08EB [0x24] CREATE_DIALOG(message_id=12368*, default_option=0*, option_flags=0*)
     "How do you respond? [That's probably best./It's better they not know.]"
259: 0x08F2 [0x25] WAIT_DIALOG_SELECT()
260: 0x08F3 [0x02] IF !(Work_Zone[0] == 1*) GOTO 0x0956
261: 0x08FB [0x52] END_LOAD_SCHEDULER: End scheduler "s023" with entities [EventEntity, EventEntity], work=761*
262: 0x090A [0x45] LOAD_SCHEDULED_TASK: Load scheduler "s024" with entities [EventEntity, EventEntity], work=[761*, 0*]
263: 0x091B [0x5B] LOAD_EXT_SCHEDULER: Load scheduler "thk0" with entities [Gilgamesh (ID: 17809411/0x010FC003), Gilgamesh (ID: 17809411/0x010FC003)], work=566*
264: 0x092A [0x2B] Gilgamesh (ID: 17809411/0x010FC003) [12369*]:
     "Ahem! Who do ya think risked life and limb to save your pupil there from becomin' shark chow!?"
265: 0x0931 [0x23] WAIT_FOR_DIALOG_INTERACTION
266: 0x0932 [0x5B] LOAD_EXT_SCHEDULER: Load scheduler "thk1" with entities [Gilgamesh (ID: 17809411/0x010FC003), Gilgamesh (ID: 17809411/0x010FC003)], work=566*
267: 0x0941 [0x52] END_LOAD_SCHEDULER: End scheduler "s024" with entities [EventEntity, EventEntity], work=761*
268: 0x0950 [0x01] GOTO 0x08DA

SUBROUTINE_0956:
269: 0x0956 [0x5B] LOAD_EXT_SCHEDULER: Load scheduler "fb01" with entities [Iroha (ID: 17809542/0x010FC086), Iroha (ID: 17809542/0x010FC086)], work=3858*
270: 0x0965 [0x5B] LOAD_EXT_SCHEDULER: Load scheduler "yes0" with entities [Iroha (ID: 17809542/0x010FC086), Iroha (ID: 17809542/0x010FC086)], work=3862*
271: 0x0974 [0x2B] Iroha (ID: 17809542/0x010FC086) [12370*]:
     "By your will."
272: 0x097B [0x1C] WAIT(130* ticks)
273: 0x097E [0x23] WAIT_FOR_DIALOG_INTERACTION
274: 0x097F [0x5B] LOAD_EXT_SCHEDULER: Load scheduler "fb00" with entities [Iroha (ID: 17809542/0x010FC086), Iroha (ID: 17809542/0x010FC086)], work=3858*
275: 0x098E [0x7B] Iroha (ID: 17809542/0x010FC086) stops talking
276: 0x0993 [0x1C] WAIT(90* ticks)
277: 0x0996 [0x52] END_LOAD_SCHEDULER: End scheduler "s023" with entities [EventEntity, EventEntity], work=761*
278: 0x09A5 [0x45] LOAD_SCHEDULED_TASK: Load scheduler "s025" with entities [EventEntity, EventEntity], work=[761*, 0*]
279: 0x09B6 [0x5B] LOAD_EXT_SCHEDULER: Load scheduler "fb01" with entities [Iroha (ID: 17809542/0x010FC086), Iroha (ID: 17809542/0x010FC086)], work=3858*
280: 0x09C5 [0x2B] Iroha (ID: 17809542/0x010FC086) [12371*]:
     "In the age from whence I hail, Vana'diel is gripped in the vise of fear."
281: 0x09CC [0x23] WAIT_FOR_DIALOG_INTERACTION
282: 0x09CD [0x2B] Iroha (ID: 17809542/0x010FC086) [12372*]:
     "In my homeland, we refer to it as "Emptiness," a blanket of darkness that infects all it touches."
283: 0x09D4 [0x23] WAIT_FOR_DIALOG_INTERACTION
284: 0x09D5 [0x52] END_LOAD_SCHEDULER: End scheduler "s025" with entities [EventEntity, EventEntity], work=761*
285: 0x09E4 [0x45] LOAD_SCHEDULED_TASK: Load scheduler "s026" with entities [EventEntity, EventEntity], work=[761*, 0*]
286: 0x09F5 [0x5B] LOAD_EXT_SCHEDULER: Load scheduler "tlc0" with entities [Iroha (ID: 17809542/0x010FC086), Iroha (ID: 17809542/0x010FC086)], work=3863*
287: 0x0A04 [0x06] Work_Zone[4] = 0
288: 0x0A07 [0x02] IF !(ExtData[1]->WorkLocal[1] == 1*) GOTO 0x0A1C
289: 0x0A0F [0x2B] Iroha (ID: 17809542/0x010FC086) [12373*]:
     "The master is our only light of hope. [He/She] halted the advance of such a sinister force once, and we are confident that [he/she] can do it again."
290: 0x0A16 [0x23] WAIT_FOR_DIALOG_INTERACTION
291: 0x0A17 [0x03] Work_Zone[4] = 1*
292: 0x0A1C [0x2B] Iroha (ID: 17809542/0x010FC086) [12374*]:
     "The master and [his/her] comrades strove tirelessly for a brighter future, and their tale is known by all in time."
293: 0x0A23 [0x23] WAIT_FOR_DIALOG_INTERACTION
294: 0x0A24 [0x52] END_LOAD_SCHEDULER: End scheduler "s026" with entities [EventEntity, EventEntity], work=761*
295: 0x0A33 [0x45] LOAD_SCHEDULED_TASK: Load scheduler "s027" with entities [EventEntity, EventEntity], work=[761*, 0*]
296: 0x0A44 [0x2B] Iroha (ID: 17809542/0x010FC086) [12375*]:
     "Many months and years passed. I came to be in this world and trained diligently under the master's gentle hand. Yet it was not long before the skies began to cloud...both figuratively and literally."
297: 0x0A4B [0x23] WAIT_FOR_DIALOG_INTERACTION
298: 0x0A4C [0x45] LOAD_SCHEDULED_TASK: Load scheduler "fdo1" with entities [EventEntity, EventEntity], work=[200*, 0*]
299: 0x0A5D [0x55] WAIT_LOAD_SCHEDULER: Wait for scheduler "fdo1" with entities [EventEntity, EventEntity], work=200*
300: 0x0A6C [0x52] END_LOAD_SCHEDULER: End scheduler "s027" with entities [EventEntity, EventEntity], work=761*
301: 0x0A7B [0x79] Iroha (ID: 17809542/0x010FC086) looks at Gilgamesh (ID: 17809411/0x010FC003) (Basic look)
302: 0x0A85 [0x5B] LOAD_EXT_SCHEDULER: Load scheduler "fb00" with entities [Iroha (ID: 17809542/0x010FC086), Iroha (ID: 17809542/0x010FC086)], work=3858*
303: 0x0A94 [0x5B] LOAD_EXT_SCHEDULER: Load scheduler "tlc1" with entities [Iroha (ID: 17809542/0x010FC086), Iroha (ID: 17809542/0x010FC086)], work=3863*
304: 0x0AA3 [0x1A] CALL_SUBROUTINE(address=0x8959)
305: 0x0AA6 [0x89] OPEN_MAP(map_id=0x00008059)
306: 0x0AA9 [0x1C] WAIT(60* ticks)
307: 0x0AAC [0xB4] UI_WINDOW_STRING_HANDLER(case=0x14 - Update map window values, work_offset1=1000*, work_offset2=1000*, work_offset3=1300*, work_offset4=0*, work_offset5=1*)
308: 0x0AB8 [0x1C] WAIT(30* ticks)
309: 0x0ABB [0xB4] UI_WINDOW_STRING_HANDLER(case=0x14 - Update map window values, work_offset1=1000*, work_offset2=1000*, work_offset3=1000*, work_offset4=300*, work_offset5=1*)
310: 0x0AC7 [0x03] Work_Zone[2] = 150*
311: 0x0ACC [0x27] REQ_SET(priority=0x10, entity_id=??? (ID: 17809532/0x010FC07C), tag_num=0x06)
312: 0x0AD3 [0x1A] CALL_SUBROUTINE(address=0x8947)
313: 0x0AD6 [0x2B] Iroha (ID: 17809542/0x010FC086) [12376*]:
     "It descended like a thick miasma, stifling the land under a blanket of silence."
314: 0x0ADD [0x23] WAIT_FOR_DIALOG_INTERACTION
315: 0x0ADE [0x2A] GET_REQ_LEVEL(level=16, entity_id=??? (ID: 17809532/0x010FC07C))
316: 0x0AE4 [0x1A] CALL_SUBROUTINE(address=0x8959)
317: 0x0AE7 [0x89] OPEN_MAP(map_id=0x0000805E)
318: 0x0AEA [0x1C] WAIT(60* ticks)
319: 0x0AED [0xB4] UI_WINDOW_STRING_HANDLER(case=0x14 - Update map window values, work_offset1=1000*, work_offset2=1000*, work_offset3=1300*, work_offset4=0*, work_offset5=1*)
320: 0x0AF9 [0x1C] WAIT(30* ticks)
321: 0x0AFC [0xB4] UI_WINDOW_STRING_HANDLER(case=0x14 - Update map window values, work_offset1=1000*, work_offset2=1000*, work_offset3=1000*, work_offset4=300*, work_offset5=1*)
322: 0x0B08 [0x03] Work_Zone[2] = 150*
323: 0x0B0D [0x27] REQ_SET(priority=0x10, entity_id=??? (ID: 17809532/0x010FC07C), tag_num=0x06)
324: 0x0B14 [0x1A] CALL_SUBROUTINE(address=0x8947)
325: 0x0B17 [0x2B] Iroha (ID: 17809542/0x010FC086) [12377*]:
     "I looked into the master's eyes and could see the truth. My homeland was not the only victim. Quon, Mindartia, Adoulin..."
326: 0x0B1E [0x23] WAIT_FOR_DIALOG_INTERACTION
327: 0x0B1F [0x2B] Iroha (ID: 17809542/0x010FC086) [12378*]:
     "The end times were upon us, and both man and Goddess were powerless to stop it."
328: 0x0B26 [0x23] WAIT_FOR_DIALOG_INTERACTION
329: 0x0B27 [0x2A] GET_REQ_LEVEL(level=16, entity_id=??? (ID: 17809532/0x010FC07C))
330: 0x0B2D [0x1A] CALL_SUBROUTINE(address=0x8959)
331: 0x0B30 [0x8A] CLOSE_MAP()
332: 0x0B31 [0xB4] UI_WINDOW_STRING_HANDLER(case=0x15 - Test map window validity)
333: 0x0B33 [0x1A] CALL_SUBROUTINE(address=0x8947)
334: 0x0B36 [0x45] LOAD_SCHEDULED_TASK: Load scheduler "s028" with entities [EventEntity, EventEntity], work=[761*, 0*]
335: 0x0B47 [0x1C] WAIT(15* ticks)
336: 0x0B4A [0x45] LOAD_SCHEDULED_TASK: Load scheduler "fdi1" with entities [EventEntity, EventEntity], work=[200*, 0*]
337: 0x0B5B [0x1C] WAIT(150* ticks)
338: 0x0B5E [0x52] END_LOAD_SCHEDULER: End scheduler "s028" with entities [EventEntity, EventEntity], work=761*
339: 0x0B6D [0x45] LOAD_SCHEDULED_TASK: Load scheduler "s029" with entities [EventEntity, EventEntity], work=[761*, 0*]
340: 0x0B7E [0x5B] LOAD_EXT_SCHEDULER: Load scheduler "tlk0" with entities [Gilgamesh (ID: 17809411/0x010FC003), Gilgamesh (ID: 17809411/0x010FC003)], work=566*
341: 0x0B8D [0x2B] Gilgamesh (ID: 17809411/0x010FC003) [12379*]:
     "But then...how did ya survive?"
342: 0x0B94 [0x23] WAIT_FOR_DIALOG_INTERACTION
343: 0x0B95 [0x5B] LOAD_EXT_SCHEDULER: Load scheduler "tlk1" with entities [Gilgamesh (ID: 17809411/0x010FC003), Gilgamesh (ID: 17809411/0x010FC003)], work=566*
344: 0x0BA4 [0x52] END_LOAD_SCHEDULER: End scheduler "s029" with entities [EventEntity, EventEntity], work=761*
345: 0x0BB3 [0x45] LOAD_SCHEDULED_TASK: Load scheduler "s030" with entities [EventEntity, EventEntity], work=[761*, 0*]
346: 0x0BC4 [0x5B] LOAD_EXT_SCHEDULER: Load scheduler "fb01" with entities [Iroha (ID: 17809542/0x010FC086), Iroha (ID: 17809542/0x010FC086)], work=3858*
347: 0x0BD3 [0x5B] LOAD_EXT_SCHEDULER: Load scheduler "tlc0" with entities [Iroha (ID: 17809542/0x010FC086), Iroha (ID: 17809542/0x010FC086)], work=3863*
348: 0x0BE2 [0x2B] Iroha (ID: 17809542/0x010FC086) [12380*]:
     "The master and my father sacrificed themselves."
349: 0x0BE9 [0x23] WAIT_FOR_DIALOG_INTERACTION
350: 0x0BEA [0x45] LOAD_SCHEDULED_TASK: Load scheduler "fdo1" with entities [EventEntity, EventEntity], work=[200*, 0*]
351: 0x0BFB [0x55] WAIT_LOAD_SCHEDULER: Wait for scheduler "fdo1" with entities [EventEntity, EventEntity], work=200*
352: 0x0C0A [0x52] END_LOAD_SCHEDULER: End scheduler "s030" with entities [EventEntity, EventEntity], work=761*
353: 0x0C19 [0x5B] LOAD_EXT_SCHEDULER: Load scheduler "fb00" with entities [Iroha (ID: 17809542/0x010FC086), Iroha (ID: 17809542/0x010FC086)], work=3858*
354: 0x0C28 [0x6B] STOP_AND_IDLE: Iroha (ID: 17809542/0x010FC086) stops current action and resets to idle (animation="idl0")
355: 0x0C31 [0x7B] Iroha (ID: 17809542/0x010FC086) stops talking
356: 0x0C36 [0x1A] CALL_SUBROUTINE(address=0x8959)
357: 0x0C39 [0x89] OPEN_MAP(map_id=0x00008063)
358: 0x0C3C [0x1C] WAIT(60* ticks)
359: 0x0C3F [0xB4] UI_WINDOW_STRING_HANDLER(case=0x14 - Update map window values, work_offset1=26550*, work_offset2=4294965596*, work_offset3=1300*, work_offset4=0*, work_offset5=1*)
360: 0x0C4B [0x1C] WAIT(60* ticks)
361: 0x0C4E [0xB4] UI_WINDOW_STRING_HANDLER(case=0x14 - Update map window values, work_offset1=1000*, work_offset2=1000*, work_offset3=1000*, work_offset4=300*, work_offset5=1*)
362: 0x0C5A [0x03] Work_Zone[2] = 150*
363: 0x0C5F [0x27] REQ_SET(priority=0x10, entity_id=??? (ID: 17809532/0x010FC07C), tag_num=0x06)
364: 0x0C66 [0x1A] CALL_SUBROUTINE(address=0x8947)
365: 0x0C69 [0x2B] Iroha (ID: 17809542/0x010FC086) [12381*]:
     "My mother is from an island known as Reisenjima, the land where the final struggle took place."
366: 0x0C70 [0x23] WAIT_FOR_DIALOG_INTERACTION
367: 0x0C71 [0x2B] Iroha (ID: 17809542/0x010FC086) [12382*]:
     "Vanquishing the Emptiness was but a fantasy. It was all I could do to erect a barrier to halt its advance."
368: 0x0C78 [0x23] WAIT_FOR_DIALOG_INTERACTION
369: 0x0C79 [0x2A] GET_REQ_LEVEL(level=16, entity_id=??? (ID: 17809532/0x010FC07C))
370: 0x0C7F [0x1A] CALL_SUBROUTINE(address=0x8959)
371: 0x0C82 [0x8A] CLOSE_MAP()
372: 0x0C83 [0xB4] UI_WINDOW_STRING_HANDLER(case=0x15 - Test map window validity)
373: 0x0C85 [0x1A] CALL_SUBROUTINE(address=0x8947)
374: 0x0C88 [0x77] SET_EVENT_TIME_WEATHER(hour=12*, weather=255*)
375: 0x0C8D [0x59] UPDATE_ENTITY_DATA: Iroha (ID: 17809542/0x010FC086)->Render.Flags0 |= 0x200000
376: 0x0C94 [0x59] UPDATE_ENTITY_DATA: ??? (ID: 17809543/0x010FC087)->Render.Flags0 |= 0x200000
377: 0x0C9B [0xBA] SET_ENTITY_POSITION(entity_id=??? (ID: 17809543/0x010FC087), pos_x=118.075*, pos_z=-10.819*, pos_y=-77.500*, direction=359.5*)
378: 0x0CA8 [0xBA] SET_ENTITY_POSITION(entity_id=Iroha (ID: 17809542/0x010FC086), pos_x=119.207*, pos_z=-13.892*, pos_y=-76.352*, direction=250.6*)
379: 0x0CB5 [0x80] LOAD_WAIT(entity=Iroha (ID: 17809542/0x010FC086))
380: 0x0CBA [0x80] LOAD_WAIT(entity=??? (ID: 17809543/0x010FC087))
381: 0x0CBF [0x1C] WAIT(30* ticks)
382: 0x0CC2 [0xD3] CLEAR_ENTITY_MOTION_QUEUE(condition_flag=0x00, entity_server_id=0x010FC086)
383: 0x0CC8 [0xD0] LOAD_SCHEDULED_TASK_ALT5: Load scheduler "kyu0" with entities [Iroha (ID: 17809542/0x010FC086), Iroha (ID: 17809542/0x010FC086)], work=[102*, 0*]
384: 0x0CD9 [0x5B] LOAD_EXT_SCHEDULER: Load scheduler "mis0" with entities [Iroha (ID: 17809542/0x010FC086), Iroha (ID: 17809542/0x010FC086)], work=3866*
385: 0x0CE8 [0x1C] WAIT(30* ticks)
386: 0x0CEB [0x45] LOAD_SCHEDULED_TASK: Load scheduler "s031" with entities [EventEntity, EventEntity], work=[761*, 0*]
387: 0x0CFC [0x1C] WAIT(15* ticks)
388: 0x0CFF [0x45] LOAD_SCHEDULED_TASK: Load scheduler "fdi1" with entities [EventEntity, EventEntity], work=[200*, 0*]
389: 0x0D10 [0x2B] Iroha (ID: 17809542/0x010FC086) [12383*]:
     "A Pyrrhic victory, indeed, as the walls of Reisenjima's sanctorum could do naught but echo back my own solitary cries."
390: 0x0D17 [0x23] WAIT_FOR_DIALOG_INTERACTION
391: 0x0D18 [0x52] END_LOAD_SCHEDULER: End scheduler "s031" with entities [EventEntity, EventEntity], work=761*
392: 0x0D27 [0x45] LOAD_SCHEDULED_TASK: Load scheduler "s094" with entities [EventEntity, EventEntity], work=[761*, 0*]
393: 0x0D38 [0xD0] LOAD_SCHEDULED_TASK_ALT5: Load scheduler "pk00" with entities [??? (ID: 17809543/0x010FC087), ??? (ID: 17809543/0x010FC087)], work=[102*, 0*]
394: 0x0D49 [0x1C] WAIT(120* ticks)
395: 0x0D4C [0x5B] LOAD_EXT_SCHEDULER: Load scheduler "mis1" with entities [Iroha (ID: 17809542/0x010FC086), Iroha (ID: 17809542/0x010FC086)], work=3866*
396: 0x0D5B [0x2B] Iroha (ID: 17809542/0x010FC086) [12384*]:
     "I was trapped for several years, when a spirit descended from the heavens to alight on a nearby brazier."
397: 0x0D62 [0x1C] WAIT(120* ticks)
398: 0x0D65 [0x52] END_LOAD_SCHEDULER: End scheduler "s094" with entities [EventEntity, EventEntity], work=761*
399: 0x0D74 [0x45] LOAD_SCHEDULED_TASK: Load scheduler "s032" with entities [EventEntity, EventEntity], work=[761*, 0*]
400: 0x0D85 [0x1C] WAIT(100* ticks)
401: 0x0D88 [0x23] WAIT_FOR_DIALOG_INTERACTION
402: 0x0D89 [0x2B] Iroha (ID: 17809542/0x010FC086) [12385*]:
     "She told me that there was only one speck of hope that could save us..."
403: 0x0D90 [0x23] WAIT_FOR_DIALOG_INTERACTION
404: 0x0D91 [0xBA] SET_ENTITY_POSITION(entity_id=??? (ID: 17809543/0x010FC087), pos_x=118.075*, pos_z=-10.819*, pos_y=-78.000*, direction=359.5*)
405: 0x0D9E [0x5B] LOAD_EXT_SCHEDULER: Load scheduler "kao0" with entities [Iroha (ID: 17809542/0x010FC086), Iroha (ID: 17809542/0x010FC086)], work=3867*
406: 0x0DAD [0xD0] LOAD_SCHEDULED_TASK_ALT5: Load scheduler "lpkl" with entities [??? (ID: 17809543/0x010FC087), ??? (ID: 17809543/0x010FC087)], work=[102*, 0*]
407: 0x0DBE [0x1C] WAIT(10* ticks)
408: 0x0DC1 [0x55] WAIT_LOAD_SCHEDULER: Wait for scheduler "s032" with entities [EventEntity, EventEntity], work=761*
409: 0x0DD0 [0x45] LOAD_SCHEDULED_TASK: Load scheduler "s108" with entities [EventEntity, EventEntity], work=[761*, 0*]
410: 0x0DE1 [0xC5] LOAD_SCHEDULED_TASK_ALT3: Load scheduler 0x80013430 for entities [??? (ID: 17809543/0x010FC087), ??? (ID: 17809543/0x010FC087)], work=93*, param=12403
411: 0x0DF2 [0x1C] WAIT(300* ticks)
412: 0x0DF5 [0x45] LOAD_SCHEDULED_TASK: Load scheduler "fdo1" with entities [EventEntity, EventEntity], work=[200*, 0*]
413: 0x0E06 [0x55] WAIT_LOAD_SCHEDULER: Wait for scheduler "fdo1" with entities [EventEntity, EventEntity], work=200*
414: 0x0E15 [0x52] END_LOAD_SCHEDULER: End scheduler "s108" with entities [EventEntity, EventEntity], work=761*
415: 0x0E24 [0xC5] LOAD_SCHEDULED_TASK_ALT3: Load scheduler 0x80013470 for entities [??? (ID: 17809543/0x010FC087), ??? (ID: 17809543/0x010FC087)], work=93*, param=29811
416: 0x0E35 [0xD0] LOAD_SCHEDULED_TASK_ALT5: Load scheduler "klky" with entities [Iroha (ID: 17809542/0x010FC086), Iroha (ID: 17809542/0x010FC086)], work=[102*, 0*]
417: 0x0E46 [0x77] SET_EVENT_TIME_WEATHER(hour=3*, weather=255*)
418: 0x0E4B [0x27] REQ_SET(priority=0x05, entity_id=??? (ID: 17809543/0x010FC087), tag_num=0x03)
419: 0x0E52 [0xBA] SET_ENTITY_POSITION(entity_id=??? (ID: 17809543/0x010FC087), pos_x=111.256*, pos_z=-12.007*, pos_y=-7.086*, direction=0.0*)
420: 0x0E5F [0xBA] SET_ENTITY_POSITION(entity_id=Iroha (ID: 17809542/0x010FC086), pos_x=111.256*, pos_z=-12.007*, pos_y=-7.086*, direction=0.0*)
421: 0x0E6C [0x80] LOAD_WAIT(entity=??? (ID: 17809543/0x010FC087))
422: 0x0E71 [0x80] LOAD_WAIT(entity=Iroha (ID: 17809542/0x010FC086))
423: 0x0E76 [0x4A] ??? (ID: 17809543/0x010FC087) looks at LocalPlayer
424: 0x0E7F [0x7B] ??? (ID: 17809543/0x010FC087) stops talking
425: 0x0E84 [0x4A] LocalPlayer looks at Iroha (ID: 17809542/0x010FC086)
426: 0x0E8D [0x4A] Iroha (ID: 17809542/0x010FC086) looks at LocalPlayer
427: 0x0E96 [0x1C] WAIT(30* ticks)
428: 0x0E99 [0x81] SET_ENTITY_BLINKING(blink_flag=0x00, entity=Iroha (ID: 17809542/0x010FC086))
429: 0x0E9F [0x7C] Iroha (ID: 17809542/0x010FC086)->Render.Flags2 |= 0x00
430: 0x0EA5 [0x5B] LOAD_EXT_SCHEDULER: Load scheduler "magl" with entities [??? (ID: 17809543/0x010FC087), ??? (ID: 17809543/0x010FC087)], work=3878*
431: 0x0EB4 [0x5B] LOAD_EXT_SCHEDULER: Load scheduler "fb01" with entities [Iroha (ID: 17809542/0x010FC086), Iroha (ID: 17809542/0x010FC086)], work=3858*
432: 0x0EC3 [0x48] [System] [10104*]:
     ""
433: 0x0EC6 [0x1C] WAIT(120* ticks)
434: 0x0EC9 [0x45] LOAD_SCHEDULED_TASK: Load scheduler "s033" with entities [EventEntity, EventEntity], work=[761*, 0*]
435: 0x0EDA [0x1C] WAIT(15* ticks)
436: 0x0EDD [0x45] LOAD_SCHEDULED_TASK: Load scheduler "fdi1" with entities [EventEntity, EventEntity], work=[200*, 0*]
437: 0x0EEE [0x2B] Iroha (ID: 17809542/0x010FC086) [12386*]:
     "The master. I was to find the master and join my light with [his/hers]."
438: 0x0EF5 [0x23] WAIT_FOR_DIALOG_INTERACTION
439: 0x0EF6 [0x2B] Iroha (ID: 17809542/0x010FC086) [12387*]:
     "The spirits opened a path for me, guiding me back here...to this point in Vana'diel's history."
440: 0x0EFD [0x23] WAIT_FOR_DIALOG_INTERACTION
441: 0x0EFE [0x27] REQ_SET(priority=0x05, entity_id=??? (ID: 17809543/0x010FC087), tag_num=0x04)
442: 0x0F05 [0x7B] Iroha (ID: 17809542/0x010FC086) stops talking
443: 0x0F0A [0x27] REQ_SET(priority=0x05, entity_id=??? (ID: 17809532/0x010FC07C), tag_num=0x08)
444: 0x0F11 [0x1C] WAIT(10* ticks)
445: 0x0F14 [0x52] END_LOAD_SCHEDULER: End scheduler "s033" with entities [EventEntity, EventEntity], work=761*
446: 0x0F23 [0x45] LOAD_SCHEDULED_TASK: Load scheduler "s034" with entities [EventEntity, EventEntity], work=[761*, 0*]
447: 0x0F34 [0xAE] MULTI_PURPOSE_ENTITY_HANDLER(case_type=0x05 - Link ActorPointer, entity1=Iroha (ID: 17809542/0x010FC086), entity2=??? (ID: 17809543/0x010FC087))
448: 0x0F3E [0x5F] MULTI_HANDLER_COMPLEX(mode=0x03 - Load ext scheduler (OpCode 0x5B mode 0), ref=3859*, entity1=Iroha (ID: 17809542/0x010FC086), entity2=Iroha (ID: 17809542/0x010FC086), string="mag0")
449: 0x0F4E [0x5F] MULTI_HANDLER_COMPLEX(mode=0x03 - Load ext scheduler (OpCode 0x5B mode 0), ref=3878*, entity1=??? (ID: 17809543/0x010FC087), entity2=??? (ID: 17809543/0x010FC087), string="mag0")
450: 0x0F5E [0x2B] Iroha (ID: 17809542/0x010FC086) [12388*]:
     "Master, I would like to give you this, lest I forget to do so at a later juncture."
451: 0x0F65 [0x1C] WAIT(140* ticks)
452: 0x0F68 [0x23] WAIT_FOR_DIALOG_INTERACTION
453: 0x0F69 [0x52] END_LOAD_SCHEDULER: End scheduler "s034" with entities [EventEntity, EventEntity], work=761*
454: 0x0F78 [0x45] LOAD_SCHEDULED_TASK: Load scheduler "s035" with entities [EventEntity, EventEntity], work=[761*, 0*]
455: 0x0F89 [0xD0] LOAD_SCHEDULED_TASK_ALT5: Load scheduler "star" with entities [??? (ID: 17809543/0x010FC087), ??? (ID: 17809543/0x010FC087)], work=[103*, 0*]
456: 0x0F9A [0x1C] WAIT(120* ticks)
457: 0x0F9D [0x45] LOAD_SCHEDULED_TASK: Load scheduler "fdo1" with entities [EventEntity, EventEntity], work=[200*, 0*]
458: 0x0FAE [0x55] WAIT_LOAD_SCHEDULER: Wait for scheduler "fdo1" with entities [EventEntity, EventEntity], work=200*
459: 0x0FBD [0x52] END_LOAD_SCHEDULER: End scheduler "s035" with entities [EventEntity, EventEntity], work=761*
460: 0x0FCC [0xAE] MULTI_PURPOSE_ENTITY_HANDLER(case_type=0x06 - Unset ActorPointer, entity=??? (ID: 17809543/0x010FC087))
461: 0x0FD2 [0xD0] LOAD_SCHEDULED_TASK_ALT5: Load scheduler "kill" with entities [??? (ID: 17809543/0x010FC087), ??? (ID: 17809543/0x010FC087)], work=[103*, 0*]
462: 0x0FE3 [0x4E] SET_ENTITY_HIDE_FLAG: Hide ??? (ID: 17809543/0x010FC087)
463: 0x0FE9 [0x4A] Gilgamesh (ID: 17809411/0x010FC003) looks at LocalPlayer
464: 0x0FF2 [0x27] REQ_SET(priority=0x05, entity_id=LocalPlayer, tag_num=0x3D)
465: 0x0FF9 [0x1C] WAIT(30* ticks)
466: 0x0FFC [0x45] LOAD_SCHEDULED_TASK: Load scheduler "s036" with entities [EventEntity, EventEntity], work=[761*, 0*]
