# 17809419 - Rafid

## Common Data

| Field            | Value          |
|------------------|----------------|
| Zone             | Norg (ID: 252) |
| Block Size       | 304 bytes      |
| Total Events     | 2              |
| References Count | 12             |

## List of Events

| Event ID              | Entrypoint   |   Size |   Instructions |
|-----------------------|--------------|--------|----------------|
| [65535](#event-65535) | 0x0000       |      1 |              1 |
| [65](#event-65)       | 0x0001       |    231 |             36 |

## DAT References (imed_data)

|   Index | Hex Value   |   Dec Value |
|---------|-------------|-------------|
|       0 | 0x286A      |       10346 |
|       1 | 0x0000      |           0 |
|       2 | 0x000A      |          10 |
|       3 | 0x0014      |          20 |
|       4 | 0x001E      |          30 |
|       5 | 0x0028      |          40 |
|       6 | 0x0032      |          50 |
|       7 | 0x003C      |          60 |
|       8 | 0x0005      |           5 |
|       9 | 0x0050      |          80 |
|      10 | 0x00EE      |         238 |
|      11 | 0x0236      |         566 |

## String References

- **10346**: Hello, [sir/ma'am]. My name is Rafid, but that's all I remember about my past. I came here a year ago when my ship was attacked and I was rescued by the pirates.

## Events

### Event 65535

#### Metadata

| Field        | Value   |
|--------------|---------|
| Entrypoint   | 0x0000  |
| Data Size    | 1 bytes |
| Instructions | 1       |

```
      00 01 02 03 04 05 06 07  08 09 0A 0B 0C 0D 0E 0F
      -- -- -- -- -- -- -- --  -- -- -- -- -- -- -- --
0000: 00                                                .               
```

#### Opcodes

```
  0: 0x0000 [0x00] END_REQSTACK()
```

### Event 65

#### Metadata

| Field        | Value     |
|--------------|-----------|
| Entrypoint   | 0x0001    |
| Data Size    | 231 bytes |
| Instructions | 10        |

```
      00 01 02 03 04 05 06 07  08 09 0A 0B 0C 0D 0E 0F
      -- -- -- -- -- -- -- --  -- -- -- -- -- -- -- --
0000:    1A 0A 00 1D 00 80 23  21 00 86 00 F8 FF FF 7F   ......#!.......
0010: 1E F0 FF FF 7F 6F 70 1B  66 01 80 F8 FF FF 7F F8  .....op.f.......
0020: FF FF 7F 74 6C 6B 30 1B  66 01 80 F8 FF FF 7F F8  ...tlk0.f.......
0030: FF FF 7F 74 6C 6B 31 1B  66 02 80 F8 FF FF 7F F8  ...tlk1.f.......
0040: FF FF 7F 74 6C 6B 30 1B  66 03 80 F8 FF FF 7F F8  ...tlk0.f.......
0050: FF FF 7F 74 6C 6B 30 1B  66 04 80 F8 FF FF 7F F8  ...tlk0.f.......
0060: FF FF 7F 74 6C 6B 30 1B  66 05 80 F8 FF FF 7F F8  ...tlk0.f.......
0070: FF FF 7F 74 6C 6B 30 1B  66 06 80 F8 FF FF 7F F8  ...tlk0.f.......
0080: FF FF 7F 74 6C 6B 30 1B  66 07 80 F8 FF FF 7F F8  ...tlk0.f.......
0090: FF FF 7F 74 6C 6B 30 1B  5B 08 80 F8 FF FF 7F F8  ...tlk0.[.......
00A0: FF FF 7F 74 6C 6B 30 1B  5B 09 80 F8 FF FF 7F F8  ...tlk0.[.......
00B0: FF FF 7F 74 6C 6B 30 1B  5B 0A 80 F8 FF FF 7F F8  ...tlk0.[.......
00C0: FF FF 7F 74 6C 6B 30 1B  5B 0B 80 F8 FF FF 7F F8  ...tlk0.[.......
00D0: FF FF 7F 74 6C 6B 30 1B  5B 07 80 F8 FF FF 7F F8  ...tlk0.[.......
00E0: FF FF 7F 74 6C 62 30 1B                           ...tlb0.        
```

#### Opcodes

```
  0: 0x0001 [0x1A] CALL_SUBROUTINE(address=0x000A)
  1: 0x0004 [0x1D] PRINT_EVENT_MESSAGE(message_id=10346*)
    → "Hello, [sir/ma'am]. My name is Rafid, but that's all I remember about my past. I came here a year ago when my ship was attacked and I was rescued by the pirates."
  2: 0x0007 [0x23] WAIT_FOR_DIALOG_INTERACTION
  3: 0x0008 [0x21] END_EVENT
  4: 0x0009 [0x00] END_REQSTACK()

SUBROUTINE_000A:
  5: 0x000A [0x86] EventEntity->Render.Flags3 = Flags3  // No change (flag=0)
  6: 0x0010 [0x1E] EventEntity looks at LocalPlayer and starts talking
  7: 0x0015 [0x6F] WAIT_FRAME_DELAY: Yield until WaitTime reaches zero
  8: 0x0016 [0x70] WAIT_ENTITY_RENDER_FLAG: Wait while EventEntity->Render.Flags3 bit 2 is set (cancel turn if not)
  9: 0x0017 [0x1B] RETURN
```

#### Data or dead code:

```
# Dead code (unreachable instructions):
     0x0018 [0x66] LOAD_EXT_SCHEDULER_MAIN: Load scheduler "tlk0" with entities [EventEntity, EventEntity], work=0*
     0x0027 [0x1B] RETURN
     0x0028 [0x66] LOAD_EXT_SCHEDULER_MAIN: Load scheduler "tlk1" with entities [EventEntity, EventEntity], work=0*
     0x0037 [0x1B] RETURN
     0x0038 [0x66] LOAD_EXT_SCHEDULER_MAIN: Load scheduler "tlk0" with entities [EventEntity, EventEntity], work=10*
     0x0047 [0x1B] RETURN
     0x0048 [0x66] LOAD_EXT_SCHEDULER_MAIN: Load scheduler "tlk0" with entities [EventEntity, EventEntity], work=20*
     0x0057 [0x1B] RETURN
     0x0058 [0x66] LOAD_EXT_SCHEDULER_MAIN: Load scheduler "tlk0" with entities [EventEntity, EventEntity], work=30*
     0x0067 [0x1B] RETURN
     0x0068 [0x66] LOAD_EXT_SCHEDULER_MAIN: Load scheduler "tlk0" with entities [EventEntity, EventEntity], work=40*
     0x0077 [0x1B] RETURN
     0x0078 [0x66] LOAD_EXT_SCHEDULER_MAIN: Load scheduler "tlk0" with entities [EventEntity, EventEntity], work=50*
     0x0087 [0x1B] RETURN
     0x0088 [0x66] LOAD_EXT_SCHEDULER_MAIN: Load scheduler "tlk0" with entities [EventEntity, EventEntity], work=60*
     0x0097 [0x1B] RETURN
     0x0098 [0x5B] LOAD_EXT_SCHEDULER: Load scheduler "tlk0" with entities [EventEntity, EventEntity], work=5*
     0x00A7 [0x1B] RETURN
     0x00A8 [0x5B] LOAD_EXT_SCHEDULER: Load scheduler "tlk0" with entities [EventEntity, EventEntity], work=80*
     0x00B7 [0x1B] RETURN
     0x00B8 [0x5B] LOAD_EXT_SCHEDULER: Load scheduler "tlk0" with entities [EventEntity, EventEntity], work=238*
     0x00C7 [0x1B] RETURN
     0x00C8 [0x5B] LOAD_EXT_SCHEDULER: Load scheduler "tlk0" with entities [EventEntity, EventEntity], work=566*
     0x00D7 [0x1B] RETURN
     0x00D8 [0x5B] LOAD_EXT_SCHEDULER: Load scheduler "tlb0" with entities [EventEntity, EventEntity], work=60*
     0x00E7 [0x1B] RETURN
```
