# 17809425 - Comitiolus

## Common Data

| Field            | Value          |
|------------------|----------------|
| Zone             | Norg (ID: 252) |
| Block Size       | 680 bytes      |
| Total Events     | 22             |
| References Count | 33             |

## List of Events

| Event ID                 | Entrypoint   |   Size |   Instructions |
|--------------------------|--------------|--------|----------------|
| [65535](#event-65535)    | 0x0000       |      1 |              1 |
| [175](#event-175)        | 0x0001       |      1 |              1 |
| [72](#event-72)          | 0x0002       |     12 |              6 |
| [6](#event-6)            | 0x000E       |     12 |              6 |
| [2](#event-2)            | 0x001A       |      1 |              1 |
| [3](#event-3)            | 0x001B       |      1 |              1 |
| [146](#event-146)        | 0x001C       |      1 |              1 |
| [158](#event-158)        | 0x001D       |      1 |              1 |
| [164](#event-164)        | 0x001E       |      1 |              1 |
| [169](#event-169)        | 0x001F       |      1 |              1 |
| [172](#event-172)        | 0x0020       |      1 |              1 |
| [206](#event-206)        | 0x0021       |     30 |             12 |
| [207](#event-207)        | 0x003F       |      1 |              1 |
| [65535.1](#event-655351) | 0x0040       |     10 |              2 |
| [65535.2](#event-655352) | 0x004A       |     27 |              7 |
| [65535.3](#event-655353) | 0x0065       |     14 |              4 |
| [208](#event-208)        | 0x0073       |    241 |             41 |
| [235](#event-235)        | 0x0164       |      1 |              1 |
| [236](#event-236)        | 0x0165       |     17 |              9 |
| [276](#event-276)        | 0x0176       |      1 |              1 |
| [283](#event-283)        | 0x0177       |     33 |              9 |
| [291](#event-291)        | 0x0198       |     33 |              9 |

## DAT References (imed_data)

|   Index | Hex Value   |   Dec Value |
|---------|-------------|-------------|
|       0 | 0x286E      |       10350 |
|       1 | 0x286F      |       10351 |
|       2 | 0x0000      |           0 |
|       3 | 0x2B31      |       11057 |
|       4 | 0x2B32      |       11058 |
|       5 | 0x18513     |       99603 |
|       6 | 0xFFFFC9F1  |  4294953457 |
|       7 | 0xFFFFE452  |  4294960210 |
|       8 | 0x0839      |        2105 |
|       9 | 0x000D      |          13 |
|      10 | 0x1894C     |      100684 |
|      11 | 0xFFFFD0D7  |  4294955223 |
|      12 | 0x1000      |        4096 |
|      13 | 0x1A46F     |      107631 |
|      14 | 0xFFFFD11A  |  4294955290 |
|      15 | 0x2B5A      |       11098 |
|      16 | 0x2B5B      |       11099 |
|      17 | 0x000A      |          10 |
|      18 | 0x0014      |          20 |
|      19 | 0x001E      |          30 |
|      20 | 0x0028      |          40 |
|      21 | 0x0032      |          50 |
|      22 | 0x003C      |          60 |
|      23 | 0x0005      |           5 |
|      24 | 0x0050      |          80 |
|      25 | 0x00EE      |         238 |
|      26 | 0x0236      |         566 |
|      27 | 0x2C02      |       11266 |
|      28 | 0x2C03      |       11267 |
|      29 | 0x3145      |       12613 |
|      30 | 0x3146      |       12614 |
|      31 | 0x31BA      |       12730 |
|      32 | 0x31BB      |       12731 |

## String References

- **10350**: This door leads to the quarters of our leader, Gilgamesh. He doesn't waste his time with landlubbin' worms like you, so get out of my face before I give ya a personal tour of Davy Jones' locker.
- **10351**: So you're the adventurer they call <Player>. I've heard about you from our leader. You can pass, but you'd best watch your mouth around him, or you'll be swimmin' with the fishes.
- **11057**: You wanna talk to old Kamui? He doesn't have time to swap fishin' tales with every adventurer that wanders in from the jungle. Take a number, buddy.
- **11058**: You wanna talk with old Kamui? I've got orders that he's not to be disturbed. Come back some other time.
- **11098**: That Tarutaru you came with, he's an adventurer for the Rhinostery, right?
- **11099**: He said somethin' about visiting a tower in Beaucedine. If they're lookin' to research the treasure that's supposed to be there, they're wastin' their time. It was stolen and sold off years ago.
- **11266**: I've not seen the boss with that look on his face fer a while. I mean, we all be happy as a buccaneer in a parrot shop to have Lion back, but there's somethin' else he's not tellin' us...
- **11267**: Arrg! Forget I even said anythin'! The boss is jus' busy, that's all. Make yer meetin' fer another day!
- **12613**: Ol' sea dog, have ya heard anythin' 'bout where this stoic warrior guy "Tenzen" is?
- **12614**: 'Fraid I can't let ya see our leader until he comes along, what with all this Escha hullabaloo goin' on.
- **12730**: I dun know if Prishe 'n Tenzen are out swabbin' the decks, but they sure ain't here.
- **12731**: The boss can't do a damned thing without th' two of 'em, so ya might wanna come back a bit later.

## Events

### Event 65535

#### Metadata

| Field        | Value   |
|--------------|---------|
| Entrypoint   | 0x0000  |
| Data Size    | 1 bytes |
| Instructions | 1       |

```
      00 01 02 03 04 05 06 07  08 09 0A 0B 0C 0D 0E 0F
      -- -- -- -- -- -- -- --  -- -- -- -- -- -- -- --
0000: 00                                                .               
```

#### Opcodes

```
  0: 0x0000 [0x00] END_REQSTACK()
```

### Event 175

#### Metadata

| Field        | Value   |
|--------------|---------|
| Entrypoint   | 0x0001  |
| Data Size    | 1 bytes |
| Instructions | 1       |

```
      00 01 02 03 04 05 06 07  08 09 0A 0B 0C 0D 0E 0F
      -- -- -- -- -- -- -- --  -- -- -- -- -- -- -- --
0000:    00                                              .              
```

#### Opcodes

```
  0: 0x0001 [0x00] END_REQSTACK()
```

### Event 72

#### Metadata

| Field        | Value    |
|--------------|----------|
| Entrypoint   | 0x0002   |
| Data Size    | 12 bytes |
| Instructions | 6        |

```
      00 01 02 03 04 05 06 07  08 09 0A 0B 0C 0D 0E 0F
      -- -- -- -- -- -- -- --  -- -- -- -- -- -- -- --
0000:       1A 86 00 1A 94 00  1D 00 80 23 21 00          .........#!.  
```

#### Opcodes

```
  0: 0x0002 [0x1A] CALL_SUBROUTINE(address=0x0086)
  1: 0x0005 [0x1A] CALL_SUBROUTINE(address=0x0094)
  2: 0x0008 [0x1D] PRINT_EVENT_MESSAGE(message_id=10350*)
    → "This door leads to the quarters of our leader, Gilgamesh. He doesn't waste his time with landlubbin' worms like you, so get out of my face before I give ya a personal tour of Davy Jones' locker."
  3: 0x000B [0x23] WAIT_FOR_DIALOG_INTERACTION
  4: 0x000C [0x21] END_EVENT
  5: 0x000D [0x00] END_REQSTACK()
```

### Event 6

#### Metadata

| Field        | Value    |
|--------------|----------|
| Entrypoint   | 0x000E   |
| Data Size    | 12 bytes |
| Instructions | 6        |

```
      00 01 02 03 04 05 06 07  08 09 0A 0B 0C 0D 0E 0F
      -- -- -- -- -- -- -- --  -- -- -- -- -- -- -- --
0000:                                            1A 86                ..
0010: 00 1A 94 00 1D 01 80 23  21 00                    .......#!.      
```

#### Opcodes

```
  0: 0x000E [0x1A] CALL_SUBROUTINE(address=0x0086)
  1: 0x0011 [0x1A] CALL_SUBROUTINE(address=0x0094)
  2: 0x0014 [0x1D] PRINT_EVENT_MESSAGE(message_id=10351*)
    → "So you're the adventurer they call <Player>. I've heard about you from our leader. You can pass, but you'd best watch your mouth around him, or you'll be swimmin' with the fishes."
  3: 0x0017 [0x23] WAIT_FOR_DIALOG_INTERACTION
  4: 0x0018 [0x21] END_EVENT
  5: 0x0019 [0x00] END_REQSTACK()
```

### Event 2

#### Metadata

| Field        | Value   |
|--------------|---------|
| Entrypoint   | 0x001A  |
| Data Size    | 1 bytes |
| Instructions | 1       |

```
      00 01 02 03 04 05 06 07  08 09 0A 0B 0C 0D 0E 0F
      -- -- -- -- -- -- -- --  -- -- -- -- -- -- -- --
0010:                                00                           .     
```

#### Opcodes

```
  0: 0x001A [0x00] END_REQSTACK()
```

### Event 3

#### Metadata

| Field        | Value   |
|--------------|---------|
| Entrypoint   | 0x001B  |
| Data Size    | 1 bytes |
| Instructions | 1       |

```
      00 01 02 03 04 05 06 07  08 09 0A 0B 0C 0D 0E 0F
      -- -- -- -- -- -- -- --  -- -- -- -- -- -- -- --
0010:                                   00                         .    
```

#### Opcodes

```
  0: 0x001B [0x00] END_REQSTACK()
```

### Event 146

#### Metadata

| Field        | Value   |
|--------------|---------|
| Entrypoint   | 0x001C  |
| Data Size    | 1 bytes |
| Instructions | 1       |

```
      00 01 02 03 04 05 06 07  08 09 0A 0B 0C 0D 0E 0F
      -- -- -- -- -- -- -- --  -- -- -- -- -- -- -- --
0010:                                      00                       .   
```

#### Opcodes

```
  0: 0x001C [0x00] END_REQSTACK()
```

### Event 158

#### Metadata

| Field        | Value   |
|--------------|---------|
| Entrypoint   | 0x001D  |
| Data Size    | 1 bytes |
| Instructions | 1       |

```
      00 01 02 03 04 05 06 07  08 09 0A 0B 0C 0D 0E 0F
      -- -- -- -- -- -- -- --  -- -- -- -- -- -- -- --
0010:                                         00                     .  
```

#### Opcodes

```
  0: 0x001D [0x00] END_REQSTACK()
```

### Event 164

#### Metadata

| Field        | Value   |
|--------------|---------|
| Entrypoint   | 0x001E  |
| Data Size    | 1 bytes |
| Instructions | 1       |

```
      00 01 02 03 04 05 06 07  08 09 0A 0B 0C 0D 0E 0F
      -- -- -- -- -- -- -- --  -- -- -- -- -- -- -- --
0010:                                            00                   . 
```

#### Opcodes

```
  0: 0x001E [0x00] END_REQSTACK()
```

### Event 169

#### Metadata

| Field        | Value   |
|--------------|---------|
| Entrypoint   | 0x001F  |
| Data Size    | 1 bytes |
| Instructions | 1       |

```
      00 01 02 03 04 05 06 07  08 09 0A 0B 0C 0D 0E 0F
      -- -- -- -- -- -- -- --  -- -- -- -- -- -- -- --
0010:                                               00                 .
```

#### Opcodes

```
  0: 0x001F [0x00] END_REQSTACK()
```

### Event 172

#### Metadata

| Field        | Value   |
|--------------|---------|
| Entrypoint   | 0x0020  |
| Data Size    | 1 bytes |
| Instructions | 1       |

```
      00 01 02 03 04 05 06 07  08 09 0A 0B 0C 0D 0E 0F
      -- -- -- -- -- -- -- --  -- -- -- -- -- -- -- --
0020: 00                                                .               
```

#### Opcodes

```
  0: 0x0020 [0x00] END_REQSTACK()
```

### Event 206

#### Metadata

| Field        | Value    |
|--------------|----------|
| Entrypoint   | 0x0021   |
| Data Size    | 30 bytes |
| Instructions | 12       |

```
      00 01 02 03 04 05 06 07  08 09 0A 0B 0C 0D 0E 0F
      -- -- -- -- -- -- -- --  -- -- -- -- -- -- -- --
0020:    1E F0 FF FF 7F 6F 70  02 07 10 02 80 00 37 00   .....op......7.
0030: 1D 03 80 23 01 3B 00 1D  04 80 23 20 00 21 00     ...#.;....# .!. 
```

#### Opcodes

```
  0: 0x0021 [0x1E] EventEntity looks at LocalPlayer and starts talking
  1: 0x0026 [0x6F] WAIT_FRAME_DELAY: Yield until WaitTime reaches zero
  2: 0x0027 [0x70] WAIT_ENTITY_RENDER_FLAG: Wait while EventEntity->Render.Flags3 bit 2 is set (cancel turn if not)
  3: 0x0028 [0x02] IF !(Work_Zone[7] == 0*) GOTO 0x0037
  4: 0x0030 [0x1D] PRINT_EVENT_MESSAGE(message_id=11057*)
    → "You wanna talk to old Kamui? He doesn't have time to swap fishin' tales with every adventurer that wanders in from the jungle. Take a number, buddy."
  5: 0x0033 [0x23] WAIT_FOR_DIALOG_INTERACTION
  6: 0x0034 [0x01] GOTO 0x003B
  7: 0x0037 [0x1D] PRINT_EVENT_MESSAGE(message_id=11058*)
    → "You wanna talk with old Kamui? I've got orders that he's not to be disturbed. Come back some other time."
  8: 0x003A [0x23] WAIT_FOR_DIALOG_INTERACTION

SUBROUTINE_003B:
  9: 0x003B [0x20] SET_CLI_EVENT_UC_FLAG: Unlock player control
 10: 0x003D [0x21] END_EVENT
 11: 0x003E [0x00] END_REQSTACK()
```

### Event 207

#### Metadata

| Field        | Value   |
|--------------|---------|
| Entrypoint   | 0x003F  |
| Data Size    | 1 bytes |
| Instructions | 1       |

```
      00 01 02 03 04 05 06 07  08 09 0A 0B 0C 0D 0E 0F
      -- -- -- -- -- -- -- --  -- -- -- -- -- -- -- --
0030:                                               00                 .
```

#### Opcodes

```
  0: 0x003F [0x00] END_REQSTACK()
```

### Event 65535.1

#### Metadata

| Field        | Value    |
|--------------|----------|
| Entrypoint   | 0x0040   |
| Data Size    | 10 bytes |
| Instructions | 2        |

```
      00 01 02 03 04 05 06 07  08 09 0A 0B 0C 0D 0E 0F
      -- -- -- -- -- -- -- --  -- -- -- -- -- -- -- --
0040: 37 05 80 06 80 07 80 08  80 00                    7.........      
```

#### Opcodes

```
  0: 0x0040 [0x37] UPDATE_EVENT_POSITION_AND_DIR: x=99.603*, z=-13.839*, y=-7.086*, direction=185.0°*
  1: 0x0049 [0x00] END_REQSTACK()
```

### Event 65535.2

#### Metadata

| Field        | Value    |
|--------------|----------|
| Entrypoint   | 0x004A   |
| Data Size    | 27 bytes |
| Instructions | 7        |

```
      00 01 02 03 04 05 06 07  08 09 0A 0B 0C 0D 0E 0F
      -- -- -- -- -- -- -- --  -- -- -- -- -- -- -- --
0040:                                32 09 80 1F 00 0A            2.....
0050: 80 0B 80 07 80 1F 01 4B  11 C0 0F 01 0C 80 6F 76  .......K......ov
0060: 11 C0 0F 01 00                                    .....           
```

#### Opcodes

```
  0: 0x004A [0x32] ExtData[1]->MainSpeed = 13* * 0.1
  1: 0x004D [0x1F] MOVE_ENTITY: EventEntity moves to X=100.684*, Z=-12.073*, Y=-7.086*
  2: 0x0055 [0x1F] MOVE_ENTITY: Update entity position (mode=1)
  3: 0x0057 [0x4B] UPDATE_ENTITY_YAW(entity=Comitiolus (ID: 17809425/0x010FC011), yaw=22.5°*)
  4: 0x005E [0x6F] WAIT_FRAME_DELAY: Yield until WaitTime reaches zero
  5: 0x005F [0x76] CHECK_ENTITY_RENDER_FLAGS: Wait until Comitiolus (ID: 17809425/0x010FC011) Render.Flags0 and Render.Flags3 conditions are met
  6: 0x0064 [0x00] END_REQSTACK()
```

### Event 65535.3

#### Metadata

| Field        | Value    |
|--------------|----------|
| Entrypoint   | 0x0065   |
| Data Size    | 14 bytes |
| Instructions | 4        |

```
      00 01 02 03 04 05 06 07  08 09 0A 0B 0C 0D 0E 0F
      -- -- -- -- -- -- -- --  -- -- -- -- -- -- -- --
0060:                32 09 80  1F 00 0D 80 0E 80 07 80       2..........
0070: 1F 01 00                                          ...             
```

#### Opcodes

```
  0: 0x0065 [0x32] ExtData[1]->MainSpeed = 13* * 0.1
  1: 0x0068 [0x1F] MOVE_ENTITY: EventEntity moves to X=107.631*, Z=-12.006*, Y=-7.086*
  2: 0x0070 [0x1F] MOVE_ENTITY: Update entity position (mode=1)
  3: 0x0072 [0x00] END_REQSTACK()
```

### Event 208

#### Metadata

| Field        | Value     |
|--------------|-----------|
| Entrypoint   | 0x0073    |
| Data Size    | 241 bytes |
| Instructions | 10        |

```
      00 01 02 03 04 05 06 07  08 09 0A 0B 0C 0D 0E 0F
      -- -- -- -- -- -- -- --  -- -- -- -- -- -- -- --
0070:          1E F0 FF FF 7F  6F 70 1D 0F 80 23 1D 10     .....op...#..
0080: 80 23 20 00 21 00 86 00  F8 FF FF 7F 1E F0 FF FF  .# .!...........
0090: 7F 6F 70 1B 66 02 80 F8  FF FF 7F F8 FF FF 7F 74  .op.f..........t
00A0: 6C 6B 30 1B 66 02 80 F8  FF FF 7F F8 FF FF 7F 74  lk0.f..........t
00B0: 6C 6B 31 1B 66 11 80 F8  FF FF 7F F8 FF FF 7F 74  lk1.f..........t
00C0: 6C 6B 30 1B 66 12 80 F8  FF FF 7F F8 FF FF 7F 74  lk0.f..........t
00D0: 6C 6B 30 1B 66 13 80 F8  FF FF 7F F8 FF FF 7F 74  lk0.f..........t
00E0: 6C 6B 30 1B 66 14 80 F8  FF FF 7F F8 FF FF 7F 74  lk0.f..........t
00F0: 6C 6B 30 1B 66 15 80 F8  FF FF 7F F8 FF FF 7F 74  lk0.f..........t
0100: 6C 6B 30 1B 66 16 80 F8  FF FF 7F F8 FF FF 7F 74  lk0.f..........t
0110: 6C 6B 30 1B 5B 17 80 F8  FF FF 7F F8 FF FF 7F 74  lk0.[..........t
0120: 6C 6B 30 1B 5B 18 80 F8  FF FF 7F F8 FF FF 7F 74  lk0.[..........t
0130: 6C 6B 30 1B 5B 19 80 F8  FF FF 7F F8 FF FF 7F 74  lk0.[..........t
0140: 6C 6B 30 1B 5B 1A 80 F8  FF FF 7F F8 FF FF 7F 74  lk0.[..........t
0150: 6C 6B 30 1B 5B 16 80 F8  FF FF 7F F8 FF FF 7F 74  lk0.[..........t
0160: 6C 62 30 1B                                       lb0.            
```

#### Opcodes

```
  0: 0x0073 [0x1E] EventEntity looks at LocalPlayer and starts talking
  1: 0x0078 [0x6F] WAIT_FRAME_DELAY: Yield until WaitTime reaches zero
  2: 0x0079 [0x70] WAIT_ENTITY_RENDER_FLAG: Wait while EventEntity->Render.Flags3 bit 2 is set (cancel turn if not)
  3: 0x007A [0x1D] PRINT_EVENT_MESSAGE(message_id=11098*)
    → "That Tarutaru you came with, he's an adventurer for the Rhinostery, right?"
  4: 0x007D [0x23] WAIT_FOR_DIALOG_INTERACTION
  5: 0x007E [0x1D] PRINT_EVENT_MESSAGE(message_id=11099*)
    → "He said somethin' about visiting a tower in Beaucedine. If they're lookin' to research the treasure that's supposed to be there, they're wastin' their time. It was stolen and sold off years ago."
  6: 0x0081 [0x23] WAIT_FOR_DIALOG_INTERACTION
  7: 0x0082 [0x20] SET_CLI_EVENT_UC_FLAG: Unlock player control
  8: 0x0084 [0x21] END_EVENT
  9: 0x0085 [0x00] END_REQSTACK()
```

#### Data or dead code:

```
# Dead code (unreachable instructions):
     0x0086 [0x86] EventEntity->Render.Flags3 = Flags3  // No change (flag=0)
     0x008C [0x1E] EventEntity looks at LocalPlayer and starts talking
     0x0091 [0x6F] WAIT_FRAME_DELAY: Yield until WaitTime reaches zero
     0x0092 [0x70] WAIT_ENTITY_RENDER_FLAG: Wait while EventEntity->Render.Flags3 bit 2 is set (cancel turn if not)
     0x0093 [0x1B] RETURN
     0x0094 [0x66] LOAD_EXT_SCHEDULER_MAIN: Load scheduler "tlk0" with entities [EventEntity, EventEntity], work=0*
     0x00A3 [0x1B] RETURN
     0x00A4 [0x66] LOAD_EXT_SCHEDULER_MAIN: Load scheduler "tlk1" with entities [EventEntity, EventEntity], work=0*
     0x00B3 [0x1B] RETURN
     0x00B4 [0x66] LOAD_EXT_SCHEDULER_MAIN: Load scheduler "tlk0" with entities [EventEntity, EventEntity], work=10*
     0x00C3 [0x1B] RETURN
     0x00C4 [0x66] LOAD_EXT_SCHEDULER_MAIN: Load scheduler "tlk0" with entities [EventEntity, EventEntity], work=20*
     0x00D3 [0x1B] RETURN
     0x00D4 [0x66] LOAD_EXT_SCHEDULER_MAIN: Load scheduler "tlk0" with entities [EventEntity, EventEntity], work=30*
     0x00E3 [0x1B] RETURN
     0x00E4 [0x66] LOAD_EXT_SCHEDULER_MAIN: Load scheduler "tlk0" with entities [EventEntity, EventEntity], work=40*
     0x00F3 [0x1B] RETURN
     0x00F4 [0x66] LOAD_EXT_SCHEDULER_MAIN: Load scheduler "tlk0" with entities [EventEntity, EventEntity], work=50*
     0x0103 [0x1B] RETURN
     0x0104 [0x66] LOAD_EXT_SCHEDULER_MAIN: Load scheduler "tlk0" with entities [EventEntity, EventEntity], work=60*
     0x0113 [0x1B] RETURN
     0x0114 [0x5B] LOAD_EXT_SCHEDULER: Load scheduler "tlk0" with entities [EventEntity, EventEntity], work=5*
     0x0123 [0x1B] RETURN
     0x0124 [0x5B] LOAD_EXT_SCHEDULER: Load scheduler "tlk0" with entities [EventEntity, EventEntity], work=80*
     0x0133 [0x1B] RETURN
     0x0134 [0x5B] LOAD_EXT_SCHEDULER: Load scheduler "tlk0" with entities [EventEntity, EventEntity], work=238*
     0x0143 [0x1B] RETURN
     0x0144 [0x5B] LOAD_EXT_SCHEDULER: Load scheduler "tlk0" with entities [EventEntity, EventEntity], work=566*
     0x0153 [0x1B] RETURN
     0x0154 [0x5B] LOAD_EXT_SCHEDULER: Load scheduler "tlb0" with entities [EventEntity, EventEntity], work=60*
     0x0163 [0x1B] RETURN
```

### Event 235

#### Metadata

| Field        | Value   |
|--------------|---------|
| Entrypoint   | 0x0164  |
| Data Size    | 1 bytes |
| Instructions | 1       |

```
      00 01 02 03 04 05 06 07  08 09 0A 0B 0C 0D 0E 0F
      -- -- -- -- -- -- -- --  -- -- -- -- -- -- -- --
0160:             00                                        .           
```

#### Opcodes

```
  0: 0x0164 [0x00] END_REQSTACK()
```

### Event 236

#### Metadata

| Field        | Value    |
|--------------|----------|
| Entrypoint   | 0x0165   |
| Data Size    | 17 bytes |
| Instructions | 9        |

```
      00 01 02 03 04 05 06 07  08 09 0A 0B 0C 0D 0E 0F
      -- -- -- -- -- -- -- --  -- -- -- -- -- -- -- --
0160:                42 1A 86  00 1D 1B 80 23 1A 94 00       B......#...
0170: 1D 1C 80 23 21 00                                 ...#!.          
```

#### Opcodes

```
  0: 0x0165 [0x42] SET_CLI_EVENT_CANCEL_DATA()
  1: 0x0166 [0x1A] CALL_SUBROUTINE(address=0x0086)
  2: 0x0169 [0x1D] PRINT_EVENT_MESSAGE(message_id=11266*)
    → "I've not seen the boss with that look on his face fer a while. I mean, we all be happy as a buccaneer in a parrot shop to have Lion back, but there's somethin' else he's not tellin' us..."
  3: 0x016C [0x23] WAIT_FOR_DIALOG_INTERACTION
  4: 0x016D [0x1A] CALL_SUBROUTINE(address=0x0094)
  5: 0x0170 [0x1D] PRINT_EVENT_MESSAGE(message_id=11267*)
    → "Arrg! Forget I even said anythin'! The boss is jus' busy, that's all. Make yer meetin' fer another day!"
  6: 0x0173 [0x23] WAIT_FOR_DIALOG_INTERACTION
  7: 0x0174 [0x21] END_EVENT
  8: 0x0175 [0x00] END_REQSTACK()
```

### Event 276

#### Metadata

| Field        | Value   |
|--------------|---------|
| Entrypoint   | 0x0176  |
| Data Size    | 1 bytes |
| Instructions | 1       |

```
      00 01 02 03 04 05 06 07  08 09 0A 0B 0C 0D 0E 0F
      -- -- -- -- -- -- -- --  -- -- -- -- -- -- -- --
0170:                   00                                    .         
```

#### Opcodes

```
  0: 0x0176 [0x00] END_REQSTACK()
```

### Event 283

#### Metadata

| Field        | Value    |
|--------------|----------|
| Entrypoint   | 0x0177   |
| Data Size    | 33 bytes |
| Instructions | 9        |

```
      00 01 02 03 04 05 06 07  08 09 0A 0B 0C 0D 0E 0F
      -- -- -- -- -- -- -- --  -- -- -- -- -- -- -- --
0170:                      1E  F0 FF FF 7F 1C 13 80 66         ........f
0180: 02 80 11 C0 0F 01 11 C0  0F 01 74 6C 6B 30 1D 1D  ..........tlk0..
0190: 80 23 1D 1E 80 23 21 00                           .#...#!.        
```

#### Opcodes

```
  0: 0x0177 [0x1E] EventEntity looks at LocalPlayer and starts talking
  1: 0x017C [0x1C] WAIT(30* ticks)
  2: 0x017F [0x66] LOAD_EXT_SCHEDULER_MAIN: Load scheduler "tlk0" with entities [Comitiolus (ID: 17809425/0x010FC011), Comitiolus (ID: 17809425/0x010FC011)], work=0*
  3: 0x018E [0x1D] PRINT_EVENT_MESSAGE(message_id=12613*)
    → "Ol' sea dog, have ya heard anythin' 'bout where this stoic warrior guy "Tenzen" is?"
  4: 0x0191 [0x23] WAIT_FOR_DIALOG_INTERACTION
  5: 0x0192 [0x1D] PRINT_EVENT_MESSAGE(message_id=12614*)
    → "'Fraid I can't let ya see our leader until he comes along, what with all this Escha hullabaloo goin' on."
  6: 0x0195 [0x23] WAIT_FOR_DIALOG_INTERACTION
  7: 0x0196 [0x21] END_EVENT
  8: 0x0197 [0x00] END_REQSTACK()
```

### Event 291

#### Metadata

| Field        | Value    |
|--------------|----------|
| Entrypoint   | 0x0198   |
| Data Size    | 33 bytes |
| Instructions | 9        |

```
      00 01 02 03 04 05 06 07  08 09 0A 0B 0C 0D 0E 0F
      -- -- -- -- -- -- -- --  -- -- -- -- -- -- -- --
0190:                          1E F0 FF FF 7F 1C 13 80          ........
01A0: 66 02 80 11 C0 0F 01 11  C0 0F 01 74 6C 6B 30 1D  f..........tlk0.
01B0: 1F 80 23 1D 20 80 23 21  00                       ..#. .#!.       
```

#### Opcodes

```
  0: 0x0198 [0x1E] EventEntity looks at LocalPlayer and starts talking
  1: 0x019D [0x1C] WAIT(30* ticks)
  2: 0x01A0 [0x66] LOAD_EXT_SCHEDULER_MAIN: Load scheduler "tlk0" with entities [Comitiolus (ID: 17809425/0x010FC011), Comitiolus (ID: 17809425/0x010FC011)], work=0*
  3: 0x01AF [0x1D] PRINT_EVENT_MESSAGE(message_id=12730*)
    → "I dun know if Prishe 'n Tenzen are out swabbin' the decks, but they sure ain't here."
  4: 0x01B2 [0x23] WAIT_FOR_DIALOG_INTERACTION
  5: 0x01B3 [0x1D] PRINT_EVENT_MESSAGE(message_id=12731*)
    → "The boss can't do a damned thing without th' two of 'em, so ya might wanna come back a bit later."
  6: 0x01B6 [0x23] WAIT_FOR_DIALOG_INTERACTION
  7: 0x01B7 [0x21] END_EVENT
  8: 0x01B8 [0x00] END_REQSTACK()
```
