# 17809493 - Aldo

## Common Data

| Field            | Value          |
|------------------|----------------|
| Zone             | Norg (ID: 252) |
| Block Size       | 488 bytes      |
| Total Events     | 21             |
| References Count | 18             |

## List of Events

| Event ID                   | Entrypoint   |   Size |   Instructions |
|----------------------------|--------------|--------|----------------|
| [65535](#event-65535)      | 0x0000       |      1 |              1 |
| [175](#event-175)          | 0x0001       |      1 |              1 |
| [2](#event-2)              | 0x0002       |     10 |              2 |
| [65535.1](#event-655351)   | 0x000C       |     15 |              5 |
| [65535.2](#event-655352)   | 0x001B       |     24 |              6 |
| [65535.3](#event-655353)   | 0x0033       |     19 |              7 |
| [65535.4](#event-655354)   | 0x0046       |     11 |              3 |
| [65535.5](#event-655355)   | 0x0051       |     19 |              3 |
| [65535.6](#event-655356)   | 0x0064       |     29 |              3 |
| [65535.7](#event-655357)   | 0x0081       |     19 |              3 |
| [65535.8](#event-655358)   | 0x0094       |     29 |              3 |
| [65535.9](#event-655359)   | 0x00B1       |     19 |              3 |
| [65535.10](#event-6553510) | 0x00C4       |     29 |              3 |
| [65535.11](#event-6553511) | 0x00E1       |     19 |              3 |
| [65535.12](#event-6553512) | 0x00F4       |     29 |              3 |
| [276](#event-276)          | 0x0111       |      1 |              1 |
| [65535.13](#event-6553513) | 0x0112       |     22 |              6 |
| [65535.14](#event-6553514) | 0x0128       |     14 |              4 |
| [279](#event-279)          | 0x0136       |      1 |              1 |
| [284](#event-284)          | 0x0137       |      1 |              1 |
| [288](#event-288)          | 0x0138       |      1 |              1 |

## DAT References (imed_data)

|   Index | Hex Value   |   Dec Value |
|---------|-------------|-------------|
|       0 | 0x18AD6     |      101078 |
|       1 | 0xFFFFD12B  |  4294955307 |
|       2 | 0xFFFFE452  |  4294960210 |
|       3 | 0x0015      |          21 |
|       4 | 0x000D      |          13 |
|       5 | 0x193E7     |      103399 |
|       6 | 0x1997C     |      104828 |
|       7 | 0x1B653     |      112211 |
|       8 | 0x0FF8      |        4088 |
|       9 | 0x003C      |          60 |
|      10 | 0x1C9AA     |      117162 |
|      11 | 0xFFFFE0B7  |  4294959287 |
|      12 | 0x00B9      |         185 |
|      13 | 0x1B877     |      112759 |
|      14 | 0xFFFFD0E5  |  4294955237 |
|      15 | 0x001E      |          30 |
|      16 | 0x19BCE     |      105422 |
|      17 | 0xFFFFCBCB  |  4294953931 |

## Events

### Event 65535

#### Metadata

| Field        | Value   |
|--------------|---------|
| Entrypoint   | 0x0000  |
| Data Size    | 1 bytes |
| Instructions | 1       |

```
      00 01 02 03 04 05 06 07  08 09 0A 0B 0C 0D 0E 0F
      -- -- -- -- -- -- -- --  -- -- -- -- -- -- -- --
0000: 00                                                .               
```

#### Opcodes

```
  0: 0x0000 [0x00] END_REQSTACK()
```

### Event 175

#### Metadata

| Field        | Value   |
|--------------|---------|
| Entrypoint   | 0x0001  |
| Data Size    | 1 bytes |
| Instructions | 1       |

```
      00 01 02 03 04 05 06 07  08 09 0A 0B 0C 0D 0E 0F
      -- -- -- -- -- -- -- --  -- -- -- -- -- -- -- --
0000:    00                                              .              
```

#### Opcodes

```
  0: 0x0001 [0x00] END_REQSTACK()
```

### Event 2

#### Metadata

| Field        | Value    |
|--------------|----------|
| Entrypoint   | 0x0002   |
| Data Size    | 10 bytes |
| Instructions | 2        |

```
      00 01 02 03 04 05 06 07  08 09 0A 0B 0C 0D 0E 0F
      -- -- -- -- -- -- -- --  -- -- -- -- -- -- -- --
0000:       37 00 80 01 80 02  80 03 80 00                7.........    
```

#### Opcodes

```
  0: 0x0002 [0x37] UPDATE_EVENT_POSITION_AND_DIR: x=101.078*, z=-11.989*, y=-7.086*, direction=1.8°*
  1: 0x000B [0x00] END_REQSTACK()
```

### Event 65535.1

#### Metadata

| Field        | Value    |
|--------------|----------|
| Entrypoint   | 0x000C   |
| Data Size    | 15 bytes |
| Instructions | 5        |

```
      00 01 02 03 04 05 06 07  08 09 0A 0B 0C 0D 0E 0F
      -- -- -- -- -- -- -- --  -- -- -- -- -- -- -- --
0000:                                      32 04 80 1F              2...
0010: 00 05 80 01 80 02 80 1F  01 6F 00                 .........o.     
```

#### Opcodes

```
  0: 0x000C [0x32] ExtData[1]->MainSpeed = 13* * 0.1
  1: 0x000F [0x1F] MOVE_ENTITY: EventEntity moves to X=103.399*, Z=-11.989*, Y=-7.086*
  2: 0x0017 [0x1F] MOVE_ENTITY: Update entity position (mode=1)
  3: 0x0019 [0x6F] WAIT_FRAME_DELAY: Yield until WaitTime reaches zero
  4: 0x001A [0x00] END_REQSTACK()
```

### Event 65535.2

#### Metadata

| Field        | Value    |
|--------------|----------|
| Entrypoint   | 0x001B   |
| Data Size    | 24 bytes |
| Instructions | 6        |

```
      00 01 02 03 04 05 06 07  08 09 0A 0B 0C 0D 0E 0F
      -- -- -- -- -- -- -- --  -- -- -- -- -- -- -- --
0010:                                   1F 00 06 80 01             .....
0020: 80 02 80 1F 01 37 07 80  01 80 02 80 08 80 84 1C  .....7..........
0030: 09 80 00                                          ...             
```

#### Opcodes

```
  0: 0x001B [0x1F] MOVE_ENTITY: EventEntity moves to X=104.828*, Z=-11.989*, Y=-7.086*
  1: 0x0023 [0x1F] MOVE_ENTITY: Update entity position (mode=1)
  2: 0x0025 [0x37] UPDATE_EVENT_POSITION_AND_DIR: x=112.211*, z=-11.989*, y=-7.086*, direction=359.3°*
  3: 0x002E [0x84] ADJUST_RENDER_FLAGS3_BIT0()
  4: 0x002F [0x1C] WAIT(60* ticks)
  5: 0x0032 [0x00] END_REQSTACK()
```

### Event 65535.3

#### Metadata

| Field        | Value    |
|--------------|----------|
| Entrypoint   | 0x0033   |
| Data Size    | 19 bytes |
| Instructions | 7        |

```
      00 01 02 03 04 05 06 07  08 09 0A 0B 0C 0D 0E 0F
      -- -- -- -- -- -- -- --  -- -- -- -- -- -- -- --
0030:          1F 00 0A 80 01  80 0B 80 1F 01 6F 1E 05     ..........o..
0040: C0 0F 01 6F 70 00                                 ...op.          
```

#### Opcodes

```
  0: 0x0033 [0x1F] MOVE_ENTITY: EventEntity moves to X=117.162*, Z=-11.989*, Y=-8.009*
  1: 0x003B [0x1F] MOVE_ENTITY: Update entity position (mode=1)
  2: 0x003D [0x6F] WAIT_FRAME_DELAY: Yield until WaitTime reaches zero
  3: 0x003E [0x1E] EventEntity looks at Lion (ID: 17809413/0x010FC005) and starts talking
  4: 0x0043 [0x6F] WAIT_FRAME_DELAY: Yield until WaitTime reaches zero
  5: 0x0044 [0x70] WAIT_ENTITY_RENDER_FLAG: Wait while EventEntity->Render.Flags3 bit 2 is set (cancel turn if not)
  6: 0x0045 [0x00] END_REQSTACK()
```

### Event 65535.4

#### Metadata

| Field        | Value    |
|--------------|----------|
| Entrypoint   | 0x0046   |
| Data Size    | 11 bytes |
| Instructions | 3        |

```
      00 01 02 03 04 05 06 07  08 09 0A 0B 0C 0D 0E 0F
      -- -- -- -- -- -- -- --  -- -- -- -- -- -- -- --
0040:                   1F 00  06 80 01 80 02 80 1F 01        ..........
0050: 00                                                .               
```

#### Opcodes

```
  0: 0x0046 [0x1F] MOVE_ENTITY: EventEntity moves to X=104.828*, Z=-11.989*, Y=-7.086*
  1: 0x004E [0x1F] MOVE_ENTITY: Update entity position (mode=1)
  2: 0x0050 [0x00] END_REQSTACK()
```

### Event 65535.5

#### Metadata

| Field        | Value    |
|--------------|----------|
| Entrypoint   | 0x0051   |
| Data Size    | 19 bytes |
| Instructions | 3        |

```
      00 01 02 03 04 05 06 07  08 09 0A 0B 0C 0D 0E 0F
      -- -- -- -- -- -- -- --  -- -- -- -- -- -- -- --
0050:    5B 0C 80 F8 FF FF 7F  F8 FF FF 7F 74 6C 6B 30   [..........tlk0
0060: 1C 09 80 00                                       ....            
```

#### Opcodes

```
  0: 0x0051 [0x5B] LOAD_EXT_SCHEDULER: Load scheduler "tlk0" with entities [EventEntity, EventEntity], work=185*
  1: 0x0060 [0x1C] WAIT(60* ticks)
  2: 0x0063 [0x00] END_REQSTACK()
```

### Event 65535.6

#### Metadata

| Field        | Value    |
|--------------|----------|
| Entrypoint   | 0x0064   |
| Data Size    | 29 bytes |
| Instructions | 3        |

```
      00 01 02 03 04 05 06 07  08 09 0A 0B 0C 0D 0E 0F
      -- -- -- -- -- -- -- --  -- -- -- -- -- -- -- --
0060:             5B 0C 80 F8  FF FF 7F F8 FF FF 7F 74      [..........t
0070: 6C 6B 31 53 F8 FF FF 7F  F8 FF FF 7F 74 6C 6B 31  lk1S........tlk1
0080: 00                                                .               
```

#### Opcodes

```
  0: 0x0064 [0x5B] LOAD_EXT_SCHEDULER: Load scheduler "tlk1" with entities [EventEntity, EventEntity], work=185*
  1: 0x0073 [0x53] WAIT_SCHEDULER_TASK: Wait for scheduler "tlk1" with entities [EventEntity, EventEntity]
  2: 0x0080 [0x00] END_REQSTACK()
```

### Event 65535.7

#### Metadata

| Field        | Value    |
|--------------|----------|
| Entrypoint   | 0x0081   |
| Data Size    | 19 bytes |
| Instructions | 3        |

```
      00 01 02 03 04 05 06 07  08 09 0A 0B 0C 0D 0E 0F
      -- -- -- -- -- -- -- --  -- -- -- -- -- -- -- --
0080:    5B 0C 80 F8 FF FF 7F  F8 FF FF 7F 75 64 65 30   [..........ude0
0090: 1C 09 80 00                                       ....            
```

#### Opcodes

```
  0: 0x0081 [0x5B] LOAD_EXT_SCHEDULER: Load scheduler "ude0" with entities [EventEntity, EventEntity], work=185*
  1: 0x0090 [0x1C] WAIT(60* ticks)
  2: 0x0093 [0x00] END_REQSTACK()
```

### Event 65535.8

#### Metadata

| Field        | Value    |
|--------------|----------|
| Entrypoint   | 0x0094   |
| Data Size    | 29 bytes |
| Instructions | 3        |

```
      00 01 02 03 04 05 06 07  08 09 0A 0B 0C 0D 0E 0F
      -- -- -- -- -- -- -- --  -- -- -- -- -- -- -- --
0090:             5B 0C 80 F8  FF FF 7F F8 FF FF 7F 75      [..........u
00A0: 64 65 31 53 F8 FF FF 7F  F8 FF FF 7F 75 64 65 31  de1S........ude1
00B0: 00                                                .               
```

#### Opcodes

```
  0: 0x0094 [0x5B] LOAD_EXT_SCHEDULER: Load scheduler "ude1" with entities [EventEntity, EventEntity], work=185*
  1: 0x00A3 [0x53] WAIT_SCHEDULER_TASK: Wait for scheduler "ude1" with entities [EventEntity, EventEntity]
  2: 0x00B0 [0x00] END_REQSTACK()
```

### Event 65535.9

#### Metadata

| Field        | Value    |
|--------------|----------|
| Entrypoint   | 0x00B1   |
| Data Size    | 19 bytes |
| Instructions | 3        |

```
      00 01 02 03 04 05 06 07  08 09 0A 0B 0C 0D 0E 0F
      -- -- -- -- -- -- -- --  -- -- -- -- -- -- -- --
00B0:    5B 0C 80 F8 FF FF 7F  F8 FF FF 7F 6B 6F 73 30   [..........kos0
00C0: 1C 09 80 00                                       ....            
```

#### Opcodes

```
  0: 0x00B1 [0x5B] LOAD_EXT_SCHEDULER: Load scheduler "kos0" with entities [EventEntity, EventEntity], work=185*
  1: 0x00C0 [0x1C] WAIT(60* ticks)
  2: 0x00C3 [0x00] END_REQSTACK()
```

### Event 65535.10

#### Metadata

| Field        | Value    |
|--------------|----------|
| Entrypoint   | 0x00C4   |
| Data Size    | 29 bytes |
| Instructions | 3        |

```
      00 01 02 03 04 05 06 07  08 09 0A 0B 0C 0D 0E 0F
      -- -- -- -- -- -- -- --  -- -- -- -- -- -- -- --
00C0:             5B 0C 80 F8  FF FF 7F F8 FF FF 7F 6B      [..........k
00D0: 6F 73 31 53 F8 FF FF 7F  F8 FF FF 7F 6B 6F 73 31  os1S........kos1
00E0: 00                                                .               
```

#### Opcodes

```
  0: 0x00C4 [0x5B] LOAD_EXT_SCHEDULER: Load scheduler "kos1" with entities [EventEntity, EventEntity], work=185*
  1: 0x00D3 [0x53] WAIT_SCHEDULER_TASK: Wait for scheduler "kos1" with entities [EventEntity, EventEntity]
  2: 0x00E0 [0x00] END_REQSTACK()
```

### Event 65535.11

#### Metadata

| Field        | Value    |
|--------------|----------|
| Entrypoint   | 0x00E1   |
| Data Size    | 19 bytes |
| Instructions | 3        |

```
      00 01 02 03 04 05 06 07  08 09 0A 0B 0C 0D 0E 0F
      -- -- -- -- -- -- -- --  -- -- -- -- -- -- -- --
00E0:    5B 0C 80 F8 FF FF 7F  F8 FF FF 7F 74 68 6B 31   [..........thk1
00F0: 1C 09 80 00                                       ....            
```

#### Opcodes

```
  0: 0x00E1 [0x5B] LOAD_EXT_SCHEDULER: Load scheduler "thk1" with entities [EventEntity, EventEntity], work=185*
  1: 0x00F0 [0x1C] WAIT(60* ticks)
  2: 0x00F3 [0x00] END_REQSTACK()
```

### Event 65535.12

#### Metadata

| Field        | Value    |
|--------------|----------|
| Entrypoint   | 0x00F4   |
| Data Size    | 29 bytes |
| Instructions | 3        |

```
      00 01 02 03 04 05 06 07  08 09 0A 0B 0C 0D 0E 0F
      -- -- -- -- -- -- -- --  -- -- -- -- -- -- -- --
00F0:             5B 0C 80 F8  FF FF 7F F8 FF FF 7F 74      [..........t
0100: 68 6B 32 53 F8 FF FF 7F  F8 FF FF 7F 74 68 6B 32  hk2S........thk2
0110: 00                                                .               
```

#### Opcodes

```
  0: 0x00F4 [0x5B] LOAD_EXT_SCHEDULER: Load scheduler "thk2" with entities [EventEntity, EventEntity], work=185*
  1: 0x0103 [0x53] WAIT_SCHEDULER_TASK: Wait for scheduler "thk2" with entities [EventEntity, EventEntity]
  2: 0x0110 [0x00] END_REQSTACK()
```

### Event 276

#### Metadata

| Field        | Value   |
|--------------|---------|
| Entrypoint   | 0x0111  |
| Data Size    | 1 bytes |
| Instructions | 1       |

```
      00 01 02 03 04 05 06 07  08 09 0A 0B 0C 0D 0E 0F
      -- -- -- -- -- -- -- --  -- -- -- -- -- -- -- --
0110:    00                                              .              
```

#### Opcodes

```
  0: 0x0111 [0x00] END_REQSTACK()
```

### Event 65535.13

#### Metadata

| Field        | Value    |
|--------------|----------|
| Entrypoint   | 0x0112   |
| Data Size    | 22 bytes |
| Instructions | 6        |

```
      00 01 02 03 04 05 06 07  08 09 0A 0B 0C 0D 0E 0F
      -- -- -- -- -- -- -- --  -- -- -- -- -- -- -- --
0110:       32 04 80 1F 00 0D  80 0E 80 02 80 1F 01 1E    2.............
0120: 86 C0 0F 01 1C 0F 80 00                           ........        
```

#### Opcodes

```
  0: 0x0112 [0x32] ExtData[1]->MainSpeed = 13* * 0.1
  1: 0x0115 [0x1F] MOVE_ENTITY: EventEntity moves to X=112.759*, Z=-12.059*, Y=-7.086*
  2: 0x011D [0x1F] MOVE_ENTITY: Update entity position (mode=1)
  3: 0x011F [0x1E] EventEntity looks at Iroha (ID: 17809542/0x010FC086) and starts talking
  4: 0x0124 [0x1C] WAIT(30* ticks)
  5: 0x0127 [0x00] END_REQSTACK()
```

### Event 65535.14

#### Metadata

| Field        | Value    |
|--------------|----------|
| Entrypoint   | 0x0128   |
| Data Size    | 14 bytes |
| Instructions | 4        |

```
      00 01 02 03 04 05 06 07  08 09 0A 0B 0C 0D 0E 0F
      -- -- -- -- -- -- -- --  -- -- -- -- -- -- -- --
0120:                          32 04 80 1F 00 10 80 11          2.......
0130: 80 02 80 1F 01 00                                 ......          
```

#### Opcodes

```
  0: 0x0128 [0x32] ExtData[1]->MainSpeed = 13* * 0.1
  1: 0x012B [0x1F] MOVE_ENTITY: EventEntity moves to X=105.422*, Z=-13.365*, Y=-7.086*
  2: 0x0133 [0x1F] MOVE_ENTITY: Update entity position (mode=1)
  3: 0x0135 [0x00] END_REQSTACK()
```

### Event 279

#### Metadata

| Field        | Value   |
|--------------|---------|
| Entrypoint   | 0x0136  |
| Data Size    | 1 bytes |
| Instructions | 1       |

```
      00 01 02 03 04 05 06 07  08 09 0A 0B 0C 0D 0E 0F
      -- -- -- -- -- -- -- --  -- -- -- -- -- -- -- --
0130:                   00                                    .         
```

#### Opcodes

```
  0: 0x0136 [0x00] END_REQSTACK()
```

### Event 284

#### Metadata

| Field        | Value   |
|--------------|---------|
| Entrypoint   | 0x0137  |
| Data Size    | 1 bytes |
| Instructions | 1       |

```
      00 01 02 03 04 05 06 07  08 09 0A 0B 0C 0D 0E 0F
      -- -- -- -- -- -- -- --  -- -- -- -- -- -- -- --
0130:                      00                                  .        
```

#### Opcodes

```
  0: 0x0137 [0x00] END_REQSTACK()
```

### Event 288

#### Metadata

| Field        | Value   |
|--------------|---------|
| Entrypoint   | 0x0138  |
| Data Size    | 1 bytes |
| Instructions | 1       |

```
      00 01 02 03 04 05 06 07  08 09 0A 0B 0C 0D 0E 0F
      -- -- -- -- -- -- -- --  -- -- -- -- -- -- -- --
0130:                          00                               .       
```

#### Opcodes

```
  0: 0x0138 [0x00] END_REQSTACK()
```
