# 17809514

## Common Data

| Field            | Value          |
|------------------|----------------|
| Zone             | Norg (ID: 252) |
| Block Size       | 3768 bytes     |
| Total Events     | 4              |
| References Count | 83             |

## List of Events

| Event ID              | Entrypoint   |   Size |   Instructions |
|-----------------------|--------------|--------|----------------|
| [65535](#event-65535) | 0x0000       |      1 |              1 |
| [209](#event-209)     | 0x0001       |    933 |            134 |
| [210](#event-210)     | 0x03A6       |    666 |             97 |
| [211](#event-211)     | 0x0640       |   1803 |            212 |

## DAT References (imed_data)

|   Index | Hex Value   |   Dec Value |
|---------|-------------|-------------|
|       0 | 0x0013      |          19 |
|       1 | 0x0203      |         515 |
|       2 | 0x000F      |          15 |
|       3 | 0x009C      |         156 |
|       4 | 0x0000      |           0 |
|       5 | 0x2B5D      |       11101 |
|       6 | 0x0019      |          25 |
|       7 | 0x2B5E      |       11102 |
|       8 | 0x0004      |           4 |
|       9 | 0x2B5F      |       11103 |
|      10 | 0x2B60      |       11104 |
|      11 | 0x0009      |           9 |
|      12 | 0x2B61      |       11105 |
|      13 | 0x2B62      |       11106 |
|      14 | 0x001A      |          26 |
|      15 | 0x2B63      |       11107 |
|      16 | 0x2B64      |       11108 |
|      17 | 0x000B      |          11 |
|      18 | 0x2B65      |       11109 |
|      19 | 0x0016      |          22 |
|      20 | 0x2B66      |       11110 |
|      21 | 0x2B67      |       11111 |
|      22 | 0x2B68      |       11112 |
|      23 | 0x2B69      |       11113 |
|      24 | 0x2B6C      |       11116 |
|      25 | 0x2B6D      |       11117 |
|      26 | 0x2B6E      |       11118 |
|      27 | 0x2B6A      |       11114 |
|      28 | 0x2B6B      |       11115 |
|      29 | 0x2B6F      |       11119 |
|      30 | 0x2B70      |       11120 |
|      31 | 0x001E      |          30 |
|      32 | 0x00C8      |         200 |
|      33 | 0x2B78      |       11128 |
|      34 | 0x0005      |           5 |
|      35 | 0x2B79      |       11129 |
|      36 | 0x2B7A      |       11130 |
|      37 | 0x2B7B      |       11131 |
|      38 | 0x2B7C      |       11132 |
|      39 | 0x0046      |          70 |
|      40 | 0x2B7D      |       11133 |
|      41 | 0x2B7E      |       11134 |
|      42 | 0x2B7F      |       11135 |
|      43 | 0x0AE2      |        2786 |
|      44 | 0x2B80      |       11136 |
|      45 | 0x0018      |          24 |
|      46 | 0x2B81      |       11137 |
|      47 | 0x2B82      |       11138 |
|      48 | 0x002D      |          45 |
|      49 | 0x2B84      |       11140 |
|      50 | 0x0179      |         377 |
|      51 | 0x2B85      |       11141 |
|      52 | 0x0FE7      |        4071 |
|      53 | 0x0078      |         120 |
|      54 | 0x003C      |          60 |
|      55 | 0x2B86      |       11142 |
|      56 | 0x00A3      |         163 |
|      57 | 0x2B87      |       11143 |
|      58 | 0x2B88      |       11144 |
|      59 | 0x2B89      |       11145 |
|      60 | 0x2B8A      |       11146 |
|      61 | 0x2B8B      |       11147 |
|      62 | 0x2B8C      |       11148 |
|      63 | 0x2B8D      |       11149 |
|      64 | 0x2B8E      |       11150 |
|      65 | 0x2B8F      |       11151 |
|      66 | 0x2B90      |       11152 |
|      67 | 0x2B91      |       11153 |
|      68 | 0x2B92      |       11154 |
|      69 | 0x2B93      |       11155 |
|      70 | 0x00AA      |         170 |
|      71 | 0x00C9      |         201 |
|      72 | 0x2B94      |       11156 |
|      73 | 0x2B95      |       11157 |
|      74 | 0x2B96      |       11158 |
|      75 | 0x2B97      |       11159 |
|      76 | 0x2B98      |       11160 |
|      77 | 0x2B99      |       11161 |
|      78 | 0x2B9A      |       11162 |
|      79 | 0x00D1      |         209 |
|      80 | 0x0001      |           1 |
|      81 | 0x0002      |           2 |
|      82 | 0x00D7      |         215 |

## Events

### Event 65535

#### Metadata

| Field        | Value   |
|--------------|---------|
| Entrypoint   | 0x0000  |
| Data Size    | 1 bytes |
| Instructions | 1       |

```
      00 01 02 03 04 05 06 07  08 09 0A 0B 0C 0D 0E 0F
      -- -- -- -- -- -- -- --  -- -- -- -- -- -- -- --
0000: 00                                                .               
```

#### Opcodes

```
  0: 0x0000 [0x00] END_REQSTACK()
```

### Event 209

#### Metadata

| Field        | Value     |
|--------------|-----------|
| Entrypoint   | 0x0001    |
| Data Size    | 933 bytes |
| Instructions | 134       |

```
      00 01 02 03 04 05 06 07  08 09 0A 0B 0C 0D 0E 0F
      -- -- -- -- -- -- -- --  -- -- -- -- -- -- -- --
0000:    42 1A 1D 0B 46 01 38  00 80 79 00 F0 FF FF 7F   B...F.8..y.....
0010: F0 FF FF 7F 92 01 66 C0  0F 01 92 01 68 C0 0F 01  ......f.....h...
0020: 92 01 67 C0 0F 01 92 01  17 C0 0F 01 92 01 1C C0  ..g.............
0030: 0F 01 75 00 01 80 75 01  75 02 29 10 F0 FF FF 7F  ..u...u.u.).....
0040: 2D 80 F0 FF FF 7F 1C 02  80 79 00 F0 FF FF 7F 66  -........y.....f
0050: C0 0F 01 45 03 80 F0 FF  FF 7F F0 FF FF 7F 6E 74  ...E..........nt
0060: 30 30 04 80 1A FC 0A 79  00 68 C0 0F 01 F0 FF FF  00.....y.h......
0070: 7F 79 00 F0 FF FF 7F 68  C0 0F 01 2B 68 C0 0F 01  .y.....h...+h...
0080: 05 80 23 6E 68 C0 0F 01  06 80 99 68 C0 0F 01 2B  ..#nh......h...+
0090: 68 C0 0F 01 07 80 23 79  00 67 C0 0F 01 F0 FF FF  h.....#y.g......
00A0: 7F 6E 67 C0 0F 01 08 80  99 67 C0 0F 01 99 67 C0  .ng......g....g.
00B0: 0F 01 79 00 F0 FF FF 7F  67 C0 0F 01 2B 67 C0 0F  ..y.....g...+g..
00C0: 01 09 80 23 2B 67 C0 0F  01 0A 80 23 52 03 80 F0  ...#+g.....#R...
00D0: FF FF 7F F0 FF FF 7F 6E  74 30 30 45 03 80 F0 FF  .......nt00E....
00E0: FF 7F F0 FF FF 7F 6E 74  30 31 04 80 4A 66 C0 0F  ......nt01..Jf..
00F0: 01 F0 FF FF 7F 6F 76 66  C0 0F 01 79 00 F0 FF FF  .....ovf...y....
0100: 7F 66 C0 0F 01 29 10 F0  FF FF 7F 2C 66 0B 80 66  .f...).....,f..f
0110: C0 0F 01 66 C0 0F 01 74  77 61 30 2B 66 C0 0F 01  ...f...twa0+f...
0120: 0C 80 23 2B 66 C0 0F 01  0D 80 23 66 0B 80 66 C0  ..#+f.....#f..f.
0130: 0F 01 66 C0 0F 01 74 77  61 31 53 66 C0 0F 01 66  ..f...twa1Sf...f
0140: C0 0F 01 74 77 61 31 52  03 80 F0 FF FF 7F F0 FF  ...twa1R........
0150: FF 7F 6E 74 30 31 45 03  80 F0 FF FF 7F F0 FF FF  ..nt01E.........
0160: 7F 6E 74 30 32 04 80 6E  66 C0 0F 01 0E 80 99 66  .nt02..nf......f
0170: C0 0F 01 2B 66 C0 0F 01  0F 80 23 52 03 80 F0 FF  ...+f.....#R....
0180: FF 7F F0 FF FF 7F 6E 74  30 32 45 03 80 F0 FF FF  ......nt02E.....
0190: 7F F0 FF FF 7F 6E 74 30  33 04 80 2B 68 C0 0F 01  .....nt03..+h...
01A0: 10 80 23 6E 68 C0 0F 01  11 80 99 68 C0 0F 01 2B  ..#nh......h...+
01B0: 68 C0 0F 01 12 80 23 6E  67 C0 0F 01 13 80 99 67  h.....#ng......g
01C0: C0 0F 01 2B 67 C0 0F 01  14 80 23 52 03 80 F0 FF  ...+g.....#R....
01D0: FF 7F F0 FF FF 7F 6E 74  30 33 45 03 80 F0 FF FF  ......nt03E.....
01E0: 7F F0 FF FF 7F 6E 74 30  34 04 80 66 0B 80 66 C0  .....nt04..f..f.
01F0: 0F 01 66 C0 0F 01 74 77  62 30 2B 66 C0 0F 01 15  ..f...twb0+f....
0200: 80 23 29 10 F0 FF FF 7F  2C 2B 66 C0 0F 01 16 80  .#).....,+f.....
0210: 23 66 0B 80 66 C0 0F 01  66 C0 0F 01 74 77 62 31  #f..f...f...twb1
0220: 52 03 80 F0 FF FF 7F F0  FF FF 7F 6E 74 30 34 45  R..........nt04E
0230: 03 80 F0 FF FF 7F F0 FF  FF 7F 6E 74 30 35 04 80  ..........nt05..
0240: 6E 68 C0 0F 01 08 80 99  68 C0 0F 01 2B 68 C0 0F  nh......h...+h..
0250: 01 17 80 23 29 10 F0 FF  FF 7F 2C 02 02 10 04 80  ...#).....,.....
0260: 00 97 02 2B 68 C0 0F 01  18 80 23 79 00 67 C0 0F  ...+h.....#y.g..
0270: 01 68 C0 0F 01 66 0B 80  67 C0 0F 01 67 C0 0F 01  .h...f..g...g...
0280: 74 77 61 30 2B 67 C0 0F  01 19 80 23 2B 67 C0 0F  twa0+g.....#+g..
0290: 01 1A 80 23 01 C0 02 2B  68 C0 0F 01 1B 80 23 79  ...#...+h.....#y
02A0: 00 67 C0 0F 01 68 C0 0F  01 66 0B 80 67 C0 0F 01  .g...h...f..g...
02B0: 67 C0 0F 01 74 77 61 30  2B 67 C0 0F 01 1C 80 23  g...twa0+g.....#
02C0: 66 0B 80 67 C0 0F 01 67  C0 0F 01 74 77 61 31 52  f..g...g...twa1R
02D0: 03 80 F0 FF FF 7F F0 FF  FF 7F 6E 74 30 35 45 03  ..........nt05E.
02E0: 80 F0 FF FF 7F F0 FF FF  7F 6E 74 30 36 04 80 4A  .........nt06..J
02F0: 66 C0 0F 01 67 C0 0F 01  6F 76 66 C0 0F 01 79 00  f...g...ovf...y.
0300: 66 C0 0F 01 68 C0 0F 01  79 00 68 C0 0F 01 66 C0  f...h...y.h...f.
0310: 0F 01 79 00 67 C0 0F 01  66 C0 0F 01 2B 66 C0 0F  ..y.g...f...+f..
0320: 01 1D 80 23 52 03 80 F0  FF FF 7F F0 FF FF 7F 6E  ...#R..........n
0330: 74 30 36 45 03 80 F0 FF  FF 7F F0 FF FF 7F 6E 74  t06E..........nt
0340: 30 37 04 80 4A 66 C0 0F  01 F0 FF FF 7F 6F 76 66  07..Jf.......ovf
0350: C0 0F 01 66 0B 80 66 C0  0F 01 66 C0 0F 01 74 77  ...f..f...f...tw
0360: 62 30 2B 66 C0 0F 01 1E  80 23 66 0B 80 66 C0 0F  b0+f.....#f..f..
0370: 01 66 C0 0F 01 74 77 62  31 1C 1F 80 1A 1D 0B 1C  .f...twb1.......
0380: 1F 80 52 03 80 F0 FF FF  7F F0 FF FF 7F 6E 74 30  ..R..........nt0
0390: 37 46 00 45 20 80 F0 FF  FF 7F F0 FF FF 7F 66 64  7F.E .........fd
03A0: 69 32 04 80 21 00                                 i2..!.          
```

#### Opcodes

```
  0: 0x0001 [0x42] SET_CLI_EVENT_CANCEL_DATA()
  1: 0x0002 [0x1A] CALL_SUBROUTINE(address=0x0B1D)
  2: 0x0005 [0x46] CAMERA_CONTROL: Disable user control
  3: 0x0007 [0x38] SET_CLIENT_EVENT_MODE(mode=19*)
  4: 0x000A [0x79] LocalPlayer looks at LocalPlayer (Basic look)
  5: 0x0014 [0x92] Sohyon (ID: 17809510/0x010FC066)->Render.Flags3 ^= 0x01
  6: 0x001A [0x92] Vishwas (ID: 17809512/0x010FC068)->Render.Flags3 ^= 0x01
  7: 0x0020 [0x92] Hayris (ID: 17809511/0x010FC067)->Render.Flags3 ^= 0x01
  8: 0x0026 [0x92] Washu (ID: 17809431/0x010FC017)->Render.Flags3 ^= 0x01
  9: 0x002C [0x92] Louartain (ID: 17809436/0x010FC01C)->Render.Flags3 ^= 0x01
 10: 0x0032 [0x75] LOAD_ROOM(Load indoor room, room=515*)
 11: 0x0036 [0x75] LOAD_ROOM(No action)
 12: 0x0038 [0x75] LOAD_ROOM(Change sub-map, room=Work_Zone[41])
 13: 0x003C [0xF0] UNKNOWN_OPCODE_0xF0
 14: 0x003D [0xFF] UNKNOWN_OPCODE_0xFF
 15: 0x003E [0xFF] UNKNOWN_OPCODE_0xFF
 16: 0x003F [0x7F] WAIT_DIALOG_SELECT_ALT()
 17: 0x0040 [0x2D] CREATE_ZONE_SCHEDULER_TASK: Create scheduler 0xFFF00079 with entities [Unknown NPC (ID: 4294963328/0xFFFFF080), Unknown NPC (ID: 2147622015/0x80021C7F)]
 18: 0x004D [0xFF] UNKNOWN_OPCODE_0xFF
 19: 0x004E [0x7F] WAIT_DIALOG_SELECT_ALT()
 20: 0x004F [0x66] LOAD_EXT_SCHEDULER_MAIN: Load scheduler 0x7FFFFFF0 with entities [Unknown NPC (ID: 2147697921/0x80034501), LocalPlayer], work=0x0FC0
 21: 0x005E [0x6E] Unknown NPC (ID: 70266996/0x04303074) uses emote 0x1A80
 22: 0x0065 [0xFC] UNKNOWN_OPCODE_0xFC
 23: 0x0066 [0x0A] 0x79 &= ~(1 << 0xC068)
 24: 0x006B [0x0F] 0xF001 ^= 0xFFFF
 25: 0x0070 [0x7F] WAIT_DIALOG_SELECT_ALT()
 26: 0x0071 [0x79] LocalPlayer looks at Vishwas (ID: 17809512/0x010FC068) (Basic look)
 27: 0x007B [0x2B] Vishwas (ID: 17809512/0x010FC068) [11101*]:
    → "Hey, look, it's a stinkin' adventurer!"
 28: 0x0082 [0x23] WAIT_FOR_DIALOG_INTERACTION
 29: 0x0083 [0x6E] Vishwas (ID: 17809512/0x010FC068) uses emote 25*
 30: 0x008A [0x99] Wait for Vishwas (ID: 17809512/0x010FC068) animation to complete
 31: 0x008F [0x2B] Vishwas (ID: 17809512/0x010FC068) [11102*]:
    → "We're busy toastin' the end of a hard day's work, so why don't ya buzz off someplace?"
 32: 0x0096 [0x23] WAIT_FOR_DIALOG_INTERACTION
 33: 0x0097 [0x79] Hayris (ID: 17809511/0x010FC067) looks at LocalPlayer (Basic look)
 34: 0x00A1 [0x6E] Hayris (ID: 17809511/0x010FC067) uses emote 4*
 35: 0x00A8 [0x99] Wait for Hayris (ID: 17809511/0x010FC067) animation to complete
 36: 0x00AD [0x99] Wait for Hayris (ID: 17809511/0x010FC067) animation to complete
 37: 0x00B2 [0x79] LocalPlayer looks at Hayris (ID: 17809511/0x010FC067) (Basic look)
 38: 0x00BC [0x2B] Hayris (ID: 17809511/0x010FC067) [11103*]:
    → "I bet ya never seen the likes o' this brew, have ya?"
 39: 0x00C3 [0x23] WAIT_FOR_DIALOG_INTERACTION
 40: 0x00C4 [0x2B] Hayris (ID: 17809511/0x010FC067) [11104*]:
    → "This drop, matey, can only be found in the mysterious lands o' the Far East."
 41: 0x00CB [0x23] WAIT_FOR_DIALOG_INTERACTION
 42: 0x00CC [0x52] END_LOAD_SCHEDULER: End scheduler "nt00" with entities [LocalPlayer, LocalPlayer], work=156*
 43: 0x00DB [0x45] LOAD_SCHEDULED_TASK: Load scheduler "nt01" with entities [LocalPlayer, LocalPlayer], work=[156*, 0*]
 44: 0x00EC [0x4A] Sohyon (ID: 17809510/0x010FC066) looks at LocalPlayer
 45: 0x00F5 [0x6F] WAIT_FRAME_DELAY: Yield until WaitTime reaches zero
 46: 0x00F6 [0x76] CHECK_ENTITY_RENDER_FLAGS: Wait until Sohyon (ID: 17809510/0x010FC066) Render.Flags0 and Render.Flags3 conditions are met
 47: 0x00FB [0x79] LocalPlayer looks at Sohyon (ID: 17809510/0x010FC066) (Basic look)
 48: 0x0105 [0x29] REQ_SET_WAIT(priority=0x10, entity_id=LocalPlayer, tag_num=0x2C)
 49: 0x010C [0x66] LOAD_EXT_SCHEDULER_MAIN: Load scheduler "twa0" with entities [Sohyon (ID: 17809510/0x010FC066), Sohyon (ID: 17809510/0x010FC066)], work=9*
 50: 0x011B [0x2B] Sohyon (ID: 17809510/0x010FC066) [11105*]:
    → "Listen here, [lass/landlubber]. We pirates got a powerful hate for so-called "heroes" like you."
 51: 0x0122 [0x23] WAIT_FOR_DIALOG_INTERACTION
 52: 0x0123 [0x2B] Sohyon (ID: 17809510/0x010FC066) [11106*]:
    → "Anyone who's never braved the high seas fer battle and booty is still just a whimpering puppy to a pirate."
 53: 0x012A [0x23] WAIT_FOR_DIALOG_INTERACTION
 54: 0x012B [0x66] LOAD_EXT_SCHEDULER_MAIN: Load scheduler "twa1" with entities [Sohyon (ID: 17809510/0x010FC066), Sohyon (ID: 17809510/0x010FC066)], work=9*
 55: 0x013A [0x53] WAIT_SCHEDULER_TASK: Wait for scheduler "twa1" with entities [Sohyon (ID: 17809510/0x010FC066), Sohyon (ID: 17809510/0x010FC066)]
 56: 0x0147 [0x52] END_LOAD_SCHEDULER: End scheduler "nt01" with entities [LocalPlayer, LocalPlayer], work=156*
 57: 0x0156 [0x45] LOAD_SCHEDULED_TASK: Load scheduler "nt02" with entities [LocalPlayer, LocalPlayer], work=[156*, 0*]
 58: 0x0167 [0x6E] Sohyon (ID: 17809510/0x010FC066) uses emote 26*
 59: 0x016E [0x99] Wait for Sohyon (ID: 17809510/0x010FC066) animation to complete
 60: 0x0173 [0x2B] Sohyon (ID: 17809510/0x010FC066) [11107*]:
    → "Oho, so's ya got something to say about that, have ya? A challenge, then. If ya can bring a treasure ta brighten a pirate's jaded eye, then ya might find a seat at our table."
 61: 0x017A [0x23] WAIT_FOR_DIALOG_INTERACTION
 62: 0x017B [0x52] END_LOAD_SCHEDULER: End scheduler "nt02" with entities [LocalPlayer, LocalPlayer], work=156*
 63: 0x018A [0x45] LOAD_SCHEDULED_TASK: Load scheduler "nt03" with entities [LocalPlayer, LocalPlayer], work=[156*, 0*]
 64: 0x019B [0x2B] Vishwas (ID: 17809512/0x010FC068) [11108*]:
    → "Arrgh, not that we're expectin' much from a whelp like you!"
 65: 0x01A2 [0x23] WAIT_FOR_DIALOG_INTERACTION
 66: 0x01A3 [0x6E] Vishwas (ID: 17809512/0x010FC068) uses emote 11*
 67: 0x01AA [0x99] Wait for Vishwas (ID: 17809512/0x010FC068) animation to complete
 68: 0x01AF [0x2B] Vishwas (ID: 17809512/0x010FC068) [11109*]:
    → "Sohyon used to have one of them talkin' birds that perched on his shoulder. Maybe ya could get us one of those?"
 69: 0x01B6 [0x23] WAIT_FOR_DIALOG_INTERACTION
 70: 0x01B7 [0x6E] Hayris (ID: 17809511/0x010FC067) uses emote 22*
 71: 0x01BE [0x99] Wait for Hayris (ID: 17809511/0x010FC067) animation to complete
 72: 0x01C3 [0x2B] Hayris (ID: 17809511/0x010FC067) [11110*]:
    → "Or maybe ya could grow yerself a bushy red beard. That'd impress me."
 73: 0x01CA [0x23] WAIT_FOR_DIALOG_INTERACTION
 74: 0x01CB [0x52] END_LOAD_SCHEDULER: End scheduler "nt03" with entities [LocalPlayer, LocalPlayer], work=156*
 75: 0x01DA [0x45] LOAD_SCHEDULED_TASK: Load scheduler "nt04" with entities [LocalPlayer, LocalPlayer], work=[156*, 0*]
 76: 0x01EB [0x66] LOAD_EXT_SCHEDULER_MAIN: Load scheduler "twb0" with entities [Sohyon (ID: 17809510/0x010FC066), Sohyon (ID: 17809510/0x010FC066)], work=9*
 77: 0x01FA [0x2B] Sohyon (ID: 17809510/0x010FC066) [11111*]:
    → "Ahahaha! That might be askin' a bit too much, eh?"
 78: 0x0201 [0x23] WAIT_FOR_DIALOG_INTERACTION
 79: 0x0202 [0x29] REQ_SET_WAIT(priority=0x10, entity_id=LocalPlayer, tag_num=0x2C)
 80: 0x0209 [0x2B] Sohyon (ID: 17809510/0x010FC066) [11112*]:
    → "I tell ya what. If ya can bring a drink that warms me pirate's soul, I'll give ya one of whatever there is to be found in Norg."
 81: 0x0210 [0x23] WAIT_FOR_DIALOG_INTERACTION
 82: 0x0211 [0x66] LOAD_EXT_SCHEDULER_MAIN: Load scheduler "twb1" with entities [Sohyon (ID: 17809510/0x010FC066), Sohyon (ID: 17809510/0x010FC066)], work=9*
 83: 0x0220 [0x52] END_LOAD_SCHEDULER: End scheduler "nt04" with entities [LocalPlayer, LocalPlayer], work=156*
 84: 0x022F [0x45] LOAD_SCHEDULED_TASK: Load scheduler "nt05" with entities [LocalPlayer, LocalPlayer], work=[156*, 0*]
 85: 0x0240 [0x6E] Vishwas (ID: 17809512/0x010FC068) uses emote 4*
 86: 0x0247 [0x99] Wait for Vishwas (ID: 17809512/0x010FC068) animation to complete
 87: 0x024C [0x2B] Vishwas (ID: 17809512/0x010FC068) [11113*]:
    → "Arrgh, now there's a deal!"
 88: 0x0253 [0x23] WAIT_FOR_DIALOG_INTERACTION
 89: 0x0254 [0x29] REQ_SET_WAIT(priority=0x10, entity_id=LocalPlayer, tag_num=0x2C)
 90: 0x025B [0x02] IF !(Work_Zone[2] == 0*) GOTO 0x0297
 91: 0x0263 [0x2B] Vishwas (ID: 17809512/0x010FC068) [11116*]:
    → "How about introducin' her to one o' the pair that wandered in a little while back?"
 92: 0x026A [0x23] WAIT_FOR_DIALOG_INTERACTION
 93: 0x026B [0x79] Hayris (ID: 17809511/0x010FC067) looks at Vishwas (ID: 17809512/0x010FC068) (Basic look)
 94: 0x0275 [0x66] LOAD_EXT_SCHEDULER_MAIN: Load scheduler "twa0" with entities [Hayris (ID: 17809511/0x010FC067), Hayris (ID: 17809511/0x010FC067)], work=9*
 95: 0x0284 [0x2B] Hayris (ID: 17809511/0x010FC067) [11117*]:
    → "Yeah, that ought to keep her outta our hair."
 96: 0x028B [0x23] WAIT_FOR_DIALOG_INTERACTION
 97: 0x028C [0x2B] Hayris (ID: 17809511/0x010FC067) [11118*]:
    → "Just remember, I saw the other one first."
 98: 0x0293 [0x23] WAIT_FOR_DIALOG_INTERACTION
 99: 0x0294 [0x01] GOTO 0x02C0
100: 0x0297 [0x2B] Vishwas (ID: 17809512/0x010FC068) [11114*]:
    → "How about introducin' him to that young lass that wandered in a little while back?"
101: 0x029E [0x23] WAIT_FOR_DIALOG_INTERACTION
102: 0x029F [0x79] Hayris (ID: 17809511/0x010FC067) looks at Vishwas (ID: 17809512/0x010FC068) (Basic look)
103: 0x02A9 [0x66] LOAD_EXT_SCHEDULER_MAIN: Load scheduler "twa0" with entities [Hayris (ID: 17809511/0x010FC067), Hayris (ID: 17809511/0x010FC067)], work=9*
104: 0x02B8 [0x2B] Hayris (ID: 17809511/0x010FC067) [11115*]:
    → "Hold on there, ya mangy backstabber! I had me eye on that one!"
105: 0x02BF [0x23] WAIT_FOR_DIALOG_INTERACTION

SUBROUTINE_02C0:
106: 0x02C0 [0x66] LOAD_EXT_SCHEDULER_MAIN: Load scheduler "twa1" with entities [Hayris (ID: 17809511/0x010FC067), Hayris (ID: 17809511/0x010FC067)], work=9*
107: 0x02CF [0x52] END_LOAD_SCHEDULER: End scheduler "nt05" with entities [LocalPlayer, LocalPlayer], work=156*
108: 0x02DE [0x45] LOAD_SCHEDULED_TASK: Load scheduler "nt06" with entities [LocalPlayer, LocalPlayer], work=[156*, 0*]
109: 0x02EF [0x4A] Sohyon (ID: 17809510/0x010FC066) looks at Hayris (ID: 17809511/0x010FC067)
110: 0x02F8 [0x6F] WAIT_FRAME_DELAY: Yield until WaitTime reaches zero
111: 0x02F9 [0x76] CHECK_ENTITY_RENDER_FLAGS: Wait until Sohyon (ID: 17809510/0x010FC066) Render.Flags0 and Render.Flags3 conditions are met
112: 0x02FE [0x79] Sohyon (ID: 17809510/0x010FC066) looks at Vishwas (ID: 17809512/0x010FC068) (Basic look)
113: 0x0308 [0x79] Vishwas (ID: 17809512/0x010FC068) looks at Sohyon (ID: 17809510/0x010FC066) (Basic look)
114: 0x0312 [0x79] Hayris (ID: 17809511/0x010FC067) looks at Sohyon (ID: 17809510/0x010FC066) (Basic look)
115: 0x031C [0x2B] Sohyon (ID: 17809510/0x010FC066) [11119*]:
    → "Enough blathering, ya scurvy dogs. Ya know what ya have ta do, adventurer."
116: 0x0323 [0x23] WAIT_FOR_DIALOG_INTERACTION
117: 0x0324 [0x52] END_LOAD_SCHEDULER: End scheduler "nt06" with entities [LocalPlayer, LocalPlayer], work=156*
118: 0x0333 [0x45] LOAD_SCHEDULED_TASK: Load scheduler "nt07" with entities [LocalPlayer, LocalPlayer], work=[156*, 0*]
119: 0x0344 [0x4A] Sohyon (ID: 17809510/0x010FC066) looks at LocalPlayer
120: 0x034D [0x6F] WAIT_FRAME_DELAY: Yield until WaitTime reaches zero
121: 0x034E [0x76] CHECK_ENTITY_RENDER_FLAGS: Wait until Sohyon (ID: 17809510/0x010FC066) Render.Flags0 and Render.Flags3 conditions are met
122: 0x0353 [0x66] LOAD_EXT_SCHEDULER_MAIN: Load scheduler "twb0" with entities [Sohyon (ID: 17809510/0x010FC066), Sohyon (ID: 17809510/0x010FC066)], work=9*
123: 0x0362 [0x2B] Sohyon (ID: 17809510/0x010FC066) [11120*]:
    → "I'll be waitin' right here with me empty cup. Heh-heh-heh."
124: 0x0369 [0x23] WAIT_FOR_DIALOG_INTERACTION
125: 0x036A [0x66] LOAD_EXT_SCHEDULER_MAIN: Load scheduler "twb1" with entities [Sohyon (ID: 17809510/0x010FC066), Sohyon (ID: 17809510/0x010FC066)], work=9*
126: 0x0379 [0x1C] WAIT(30* ticks)
127: 0x037C [0x1A] CALL_SUBROUTINE(address=0x0B1D)
128: 0x037F [0x1C] WAIT(30* ticks)
129: 0x0382 [0x52] END_LOAD_SCHEDULER: End scheduler "nt07" with entities [LocalPlayer, LocalPlayer], work=156*
130: 0x0391 [0x46] CAMERA_CONTROL: Restore default settings
131: 0x0393 [0x45] LOAD_SCHEDULED_TASK: Load scheduler "fdi2" with entities [LocalPlayer, LocalPlayer], work=[200*, 0*]
132: 0x03A4 [0x21] END_EVENT
133: 0x03A5 [0x00] END_REQSTACK()
```

### Event 210

#### Metadata

| Field        | Value     |
|--------------|-----------|
| Entrypoint   | 0x03A6    |
| Data Size    | 666 bytes |
| Instructions | 97        |

```
      00 01 02 03 04 05 06 07  08 09 0A 0B 0C 0D 0E 0F
      -- -- -- -- -- -- -- --  -- -- -- -- -- -- -- --
03A0:                   42 4A  66 C0 0F 01 F0 FF FF 7F        BJf.......
03B0: 6F 76 66 C0 0F 01 79 00  67 C0 0F 01 F0 FF FF 7F  ovf...y.g.......
03C0: 79 00 68 C0 0F 01 F0 FF  FF 7F 6E 66 C0 0F 01 13  y.h.......nf....
03D0: 80 99 66 C0 0F 01 99 66  C0 0F 01 2B 66 C0 0F 01  ..f....f...+f...
03E0: 21 80 23 1A 1D 0B 46 01  38 00 80 79 00 F0 FF FF  !.#...F.8..y....
03F0: 7F F0 FF FF 7F 92 01 66  C0 0F 01 92 01 68 C0 0F  .......f.....h..
0400: 01 92 01 67 C0 0F 01 92  01 17 C0 0F 01 92 01 1C  ...g............
0410: C0 0F 01 75 00 01 80 75  01 75 02 29 10 66 C0 0F  ...u...u.u.).f..
0420: 01 06 29 10 F0 FF FF 7F  2D 80 66 C0 0F 01 80 F0  ..).....-.f.....
0430: FF FF 7F 1C 02 80 4A 66  C0 0F 01 F0 FF FF 7F 6F  ......Jf.......o
0440: 76 66 C0 0F 01 45 03 80  F0 FF FF 7F F0 FF FF 7F  vf...E..........
0450: 6E 74 32 30 04 80 1A FC  0A 6E 66 C0 0F 01 22 80  nt20.....nf...".
0460: 99 66 C0 0F 01 99 66 C0  0F 01 2B 66 C0 0F 01 23  .f....f...+f...#
0470: 80 23 79 00 17 C0 0F 01  66 C0 0F 01 27 10 17 C0  .#y.....f...'...
0480: 0F 01 0F 52 03 80 F0 FF  FF 7F F0 FF FF 7F 6E 74  ...R..........nt
0490: 32 30 45 03 80 F0 FF FF  7F F0 FF FF 7F 6E 74 32  20E..........nt2
04A0: 31 04 80 2B 17 C0 0F 01  24 80 23 4A F0 FF FF 7F  1..+....$.#J....
04B0: 17 C0 0F 01 2A 10 17 C0  0F 01 2B 17 C0 0F 01 25  ....*.....+....%
04C0: 80 23 52 03 80 F0 FF FF  7F F0 FF FF 7F 6E 74 32  .#R..........nt2
04D0: 31 45 03 80 F0 FF FF 7F  F0 FF FF 7F 6E 74 32 32  1E..........nt22
04E0: 04 80 4A 66 C0 0F 01 17  C0 0F 01 2B 66 C0 0F 01  ..Jf.......+f...
04F0: 26 80 23 5B 27 80 17 C0  0F 01 17 C0 0F 01 74 6C  &.#['.........tl
0500: 6B 31 2B 17 C0 0F 01 28  80 23 52 03 80 F0 FF FF  k1+....(.#R.....
0510: 7F F0 FF FF 7F 6E 74 32  32 45 03 80 F0 FF FF 7F  .....nt22E......
0520: F0 FF FF 7F 6E 74 32 33  04 80 2B 17 C0 0F 01 29  ....nt23..+....)
0530: 80 23 2B 17 C0 0F 01 2A  80 23 52 03 80 F0 FF FF  .#+....*.#R.....
0540: 7F F0 FF FF 7F 6E 74 32  33 45 03 80 F0 FF FF 7F  .....nt23E......
0550: F0 FF FF 7F 6E 74 32 34  04 80 7B 66 C0 0F 01 4B  ....nt24..{f...K
0560: 66 C0 0F 01 2B 80 6F 76  66 C0 0F 01 7C 00 66 C0  f...+.ovf...|.f.
0570: 0F 01 66 0B 80 66 C0 0F  01 66 C0 0F 01 74 68 6B  ..f..f...f...thk
0580: 31 2B 66 C0 0F 01 2C 80  23 66 0B 80 66 C0 0F 01  1+f...,.#f..f...
0590: 66 C0 0F 01 74 68 6B 32  53 66 C0 0F 01 66 C0 0F  f...thk2Sf...f..
05A0: 01 74 68 6B 32 52 03 80  F0 FF FF 7F F0 FF FF 7F  .thk2R..........
05B0: 6E 74 32 34 45 03 80 F0  FF FF 7F F0 FF FF 7F 6E  nt24E..........n
05C0: 74 32 35 04 80 4A F0 FF  FF 7F 66 C0 0F 01 4A 66  t25..J....f...Jf
05D0: C0 0F 01 F0 FF FF 7F 6F  76 66 C0 0F 01 6E 66 C0  .......ovf...nf.
05E0: 0F 01 2D 80 99 66 C0 0F  01 99 66 C0 0F 01 7C 01  ..-..f....f...|.
05F0: 66 C0 0F 01 2B 66 C0 0F  01 2E 80 23 2B 66 C0 0F  f...+f.....#+f..
0600: 01 2F 80 23 66 04 80 66  C0 0F 01 66 C0 0F 01 70  ./.#f..f...f...p
0610: 61 73 30 1C 30 80 1A 1D  0B 1C 1F 80 52 03 80 F0  as0.0.......R...
0620: FF FF 7F F0 FF FF 7F 6E  74 32 35 46 00 45 20 80  .......nt25F.E .
0630: F0 FF FF 7F F0 FF FF 7F  66 64 69 32 04 80 21 00  ........fdi2..!.
```

#### Opcodes

```
  0: 0x03A6 [0x42] SET_CLI_EVENT_CANCEL_DATA()
  1: 0x03A7 [0x4A] Sohyon (ID: 17809510/0x010FC066) looks at LocalPlayer
  2: 0x03B0 [0x6F] WAIT_FRAME_DELAY: Yield until WaitTime reaches zero
  3: 0x03B1 [0x76] CHECK_ENTITY_RENDER_FLAGS: Wait until Sohyon (ID: 17809510/0x010FC066) Render.Flags0 and Render.Flags3 conditions are met
  4: 0x03B6 [0x79] Hayris (ID: 17809511/0x010FC067) looks at LocalPlayer (Basic look)
  5: 0x03C0 [0x79] Vishwas (ID: 17809512/0x010FC068) looks at LocalPlayer (Basic look)
  6: 0x03CA [0x6E] Sohyon (ID: 17809510/0x010FC066) uses emote 22*
  7: 0x03D1 [0x99] Wait for Sohyon (ID: 17809510/0x010FC066) animation to complete
  8: 0x03D6 [0x99] Wait for Sohyon (ID: 17809510/0x010FC066) animation to complete
  9: 0x03DB [0x2B] Sohyon (ID: 17809510/0x010FC066) [11128*]:
    → "Arrgh, ya kept me waitin' fer long enough. Here's ta ya health!"
 10: 0x03E2 [0x23] WAIT_FOR_DIALOG_INTERACTION
 11: 0x03E3 [0x1A] CALL_SUBROUTINE(address=0x0B1D)
 12: 0x03E6 [0x46] CAMERA_CONTROL: Disable user control
 13: 0x03E8 [0x38] SET_CLIENT_EVENT_MODE(mode=19*)
 14: 0x03EB [0x79] LocalPlayer looks at LocalPlayer (Basic look)
 15: 0x03F5 [0x92] Sohyon (ID: 17809510/0x010FC066)->Render.Flags3 ^= 0x01
 16: 0x03FB [0x92] Vishwas (ID: 17809512/0x010FC068)->Render.Flags3 ^= 0x01
 17: 0x0401 [0x92] Hayris (ID: 17809511/0x010FC067)->Render.Flags3 ^= 0x01
 18: 0x0407 [0x92] Washu (ID: 17809431/0x010FC017)->Render.Flags3 ^= 0x01
 19: 0x040D [0x92] Louartain (ID: 17809436/0x010FC01C)->Render.Flags3 ^= 0x01
 20: 0x0413 [0x75] LOAD_ROOM(Load indoor room, room=515*)
 21: 0x0417 [0x75] LOAD_ROOM(No action)
 22: 0x0419 [0x75] LOAD_ROOM(Change sub-map, room=Work_Zone[41])
 23: 0x041D [0x66] LOAD_EXT_SCHEDULER_MAIN: Load scheduler 0xC066802D with entities [Unknown NPC (ID: 271123969/0x10290601), LocalPlayer], work=0x0FC0
 24: 0x042C [0x0F] 515* ^= 0xFFF0
 25: 0x0431 [0xFF] UNKNOWN_OPCODE_0xFF
 26: 0x0432 [0x7F] WAIT_DIALOG_SELECT_ALT()
 27: 0x0433 [0x1C] WAIT(15* ticks)
 28: 0x0436 [0x4A] Sohyon (ID: 17809510/0x010FC066) looks at LocalPlayer
 29: 0x043F [0x6F] WAIT_FRAME_DELAY: Yield until WaitTime reaches zero
 30: 0x0440 [0x76] CHECK_ENTITY_RENDER_FLAGS: Wait until Sohyon (ID: 17809510/0x010FC066) Render.Flags0 and Render.Flags3 conditions are met
 31: 0x0445 [0x45] LOAD_SCHEDULED_TASK: Load scheduler "nt20" with entities [LocalPlayer, LocalPlayer], work=[156*, 0*]
 32: 0x0456 [0x1A] CALL_SUBROUTINE(address=0x0AFC)
 33: 0x0459 [0x6E] Sohyon (ID: 17809510/0x010FC066) uses emote 5*
 34: 0x0460 [0x99] Wait for Sohyon (ID: 17809510/0x010FC066) animation to complete
 35: 0x0465 [0x99] Wait for Sohyon (ID: 17809510/0x010FC066) animation to complete
 36: 0x046A [0x2B] Sohyon (ID: 17809510/0x010FC066) [11129*]:
    → "Urgh! This is plain water! What kinda dirty trick are ya tryin' ta pull?"
 37: 0x0471 [0x23] WAIT_FOR_DIALOG_INTERACTION
 38: 0x0472 [0x79] Washu (ID: 17809431/0x010FC017) looks at Sohyon (ID: 17809510/0x010FC066) (Basic look)
 39: 0x047C [0x27] REQ_SET(priority=0x10, entity_id=Washu (ID: 17809431/0x010FC017), tag_num=0x0F)
 40: 0x0483 [0x52] END_LOAD_SCHEDULER: End scheduler "nt20" with entities [LocalPlayer, LocalPlayer], work=156*
 41: 0x0492 [0x45] LOAD_SCHEDULED_TASK: Load scheduler "nt21" with entities [LocalPlayer, LocalPlayer], work=[156*, 0*]
 42: 0x04A3 [0x2B] Washu (ID: 17809431/0x010FC017) [11130*]:
    → "You've poured so many liquids down your throat, you probably can't tell a fine beverage from barrel swill anymore."
 43: 0x04AA [0x23] WAIT_FOR_DIALOG_INTERACTION
 44: 0x04AB [0x4A] LocalPlayer looks at Washu (ID: 17809431/0x010FC017)
 45: 0x04B4 [0x2A] GET_REQ_LEVEL(level=16, entity_id=Washu (ID: 17809431/0x010FC017))
 46: 0x04BA [0x2B] Washu (ID: 17809431/0x010FC017) [11131*]:
    → "Wash your mouth out with that and give yourself a break for a while!"
 47: 0x04C1 [0x23] WAIT_FOR_DIALOG_INTERACTION
 48: 0x04C2 [0x52] END_LOAD_SCHEDULER: End scheduler "nt21" with entities [LocalPlayer, LocalPlayer], work=156*
 49: 0x04D1 [0x45] LOAD_SCHEDULED_TASK: Load scheduler "nt22" with entities [LocalPlayer, LocalPlayer], work=[156*, 0*]
 50: 0x04E2 [0x4A] Sohyon (ID: 17809510/0x010FC066) looks at Washu (ID: 17809431/0x010FC017)
 51: 0x04EB [0x2B] Sohyon (ID: 17809510/0x010FC066) [11132*]:
    → "Are ya tryin' to tell me how ta drink? I don't need yer stinkin' advice!"
 52: 0x04F2 [0x23] WAIT_FOR_DIALOG_INTERACTION
 53: 0x04F3 [0x5B] LOAD_EXT_SCHEDULER: Load scheduler "tlk1" with entities [Washu (ID: 17809431/0x010FC017), Washu (ID: 17809431/0x010FC017)], work=70*
 54: 0x0502 [0x2B] Washu (ID: 17809431/0x010FC017) [11133*]:
    → "Your tongue must be rotten, Sohyon."
 55: 0x0509 [0x23] WAIT_FOR_DIALOG_INTERACTION
 56: 0x050A [0x52] END_LOAD_SCHEDULER: End scheduler "nt22" with entities [LocalPlayer, LocalPlayer], work=156*
 57: 0x0519 [0x45] LOAD_SCHEDULED_TASK: Load scheduler "nt23" with entities [LocalPlayer, LocalPlayer], work=[156*, 0*]
 58: 0x052A [0x2B] Washu (ID: 17809431/0x010FC017) [11134*]:
    → "That liquid is the most refreshing, revitalizing water in Vana'diel."
 59: 0x0531 [0x23] WAIT_FOR_DIALOG_INTERACTION
 60: 0x0532 [0x2B] Washu (ID: 17809431/0x010FC017) [11135*]:
    → "It comes from the giant clams in the Korroloka Tunnel. If you spent a moment savoring the taste, you'd realize it's more than just ordinary water."
 61: 0x0539 [0x23] WAIT_FOR_DIALOG_INTERACTION
 62: 0x053A [0x52] END_LOAD_SCHEDULER: End scheduler "nt23" with entities [LocalPlayer, LocalPlayer], work=156*
 63: 0x0549 [0x45] LOAD_SCHEDULED_TASK: Load scheduler "nt24" with entities [LocalPlayer, LocalPlayer], work=[156*, 0*]
 64: 0x055A [0x7B] Sohyon (ID: 17809510/0x010FC066) stops talking
 65: 0x055F [0x4B] UPDATE_ENTITY_YAW(entity=Sohyon (ID: 17809510/0x010FC066), yaw=15.3°*)
 66: 0x0566 [0x6F] WAIT_FRAME_DELAY: Yield until WaitTime reaches zero
 67: 0x0567 [0x76] CHECK_ENTITY_RENDER_FLAGS: Wait until Sohyon (ID: 17809510/0x010FC066) Render.Flags0 and Render.Flags3 conditions are met
 68: 0x056C [0x7C] Sohyon (ID: 17809510/0x010FC066)->Render.Flags2 |= 0x00
 69: 0x0572 [0x66] LOAD_EXT_SCHEDULER_MAIN: Load scheduler "thk1" with entities [Sohyon (ID: 17809510/0x010FC066), Sohyon (ID: 17809510/0x010FC066)], work=9*
 70: 0x0581 [0x2B] Sohyon (ID: 17809510/0x010FC066) [11136*]:
    → "..."
 71: 0x0588 [0x23] WAIT_FOR_DIALOG_INTERACTION
 72: 0x0589 [0x66] LOAD_EXT_SCHEDULER_MAIN: Load scheduler "thk2" with entities [Sohyon (ID: 17809510/0x010FC066), Sohyon (ID: 17809510/0x010FC066)], work=9*
 73: 0x0598 [0x53] WAIT_SCHEDULER_TASK: Wait for scheduler "thk2" with entities [Sohyon (ID: 17809510/0x010FC066), Sohyon (ID: 17809510/0x010FC066)]
 74: 0x05A5 [0x52] END_LOAD_SCHEDULER: End scheduler "nt24" with entities [LocalPlayer, LocalPlayer], work=156*
 75: 0x05B4 [0x45] LOAD_SCHEDULED_TASK: Load scheduler "nt25" with entities [LocalPlayer, LocalPlayer], work=[156*, 0*]
 76: 0x05C5 [0x4A] LocalPlayer looks at Sohyon (ID: 17809510/0x010FC066)
 77: 0x05CE [0x4A] Sohyon (ID: 17809510/0x010FC066) looks at LocalPlayer
 78: 0x05D7 [0x6F] WAIT_FRAME_DELAY: Yield until WaitTime reaches zero
 79: 0x05D8 [0x76] CHECK_ENTITY_RENDER_FLAGS: Wait until Sohyon (ID: 17809510/0x010FC066) Render.Flags0 and Render.Flags3 conditions are met
 80: 0x05DD [0x6E] Sohyon (ID: 17809510/0x010FC066) uses emote 24*
 81: 0x05E4 [0x99] Wait for Sohyon (ID: 17809510/0x010FC066) animation to complete
 82: 0x05E9 [0x99] Wait for Sohyon (ID: 17809510/0x010FC066) animation to complete
 83: 0x05EE [0x7C] Sohyon (ID: 17809510/0x010FC066)->Render.Flags2 |= 0x01
 84: 0x05F4 [0x2B] Sohyon (ID: 17809510/0x010FC066) [11137*]:
    → "Well, I guess ya kept yer end of the bargain."
 85: 0x05FB [0x23] WAIT_FOR_DIALOG_INTERACTION
 86: 0x05FC [0x2B] Sohyon (ID: 17809510/0x010FC066) [11138*]:
    → "Take this key to Gimb, the Galka who stands near the entry gate. He'll take care o' ya."
 87: 0x0603 [0x23] WAIT_FOR_DIALOG_INTERACTION
 88: 0x0604 [0x66] LOAD_EXT_SCHEDULER_MAIN: Load scheduler "pas0" with entities [Sohyon (ID: 17809510/0x010FC066), Sohyon (ID: 17809510/0x010FC066)], work=0*
 89: 0x0613 [0x1C] WAIT(45* ticks)
 90: 0x0616 [0x1A] CALL_SUBROUTINE(address=0x0B1D)
 91: 0x0619 [0x1C] WAIT(30* ticks)
 92: 0x061C [0x52] END_LOAD_SCHEDULER: End scheduler "nt25" with entities [LocalPlayer, LocalPlayer], work=156*
 93: 0x062B [0x46] CAMERA_CONTROL: Restore default settings
 94: 0x062D [0x45] LOAD_SCHEDULED_TASK: Load scheduler "fdi2" with entities [LocalPlayer, LocalPlayer], work=[200*, 0*]
 95: 0x063E [0x21] END_EVENT
 96: 0x063F [0x00] END_REQSTACK()
```

### Event 211

#### Metadata

| Field        | Value      |
|--------------|------------|
| Entrypoint   | 0x0640     |
| Data Size    | 1803 bytes |
| Instructions | 157        |

```
      00 01 02 03 04 05 06 07  08 09 0A 0B 0C 0D 0E 0F
      -- -- -- -- -- -- -- --  -- -- -- -- -- -- -- --
0640: 42 03 00 00 03 10 1A 1D  0B 46 01 38 00 80 79 00  B........F.8..y.
0650: F0 FF FF 7F F0 FF FF 7F  27 10 69 C0 0F 01 02 92  ........'.i.....
0660: 01 0E C0 0F 01 92 01 0F  C0 0F 01 92 01 69 C0 0F  .............i..
0670: 01 27 10 69 C0 0F 01 09  29 10 F0 FF FF 7F 2E 80  .'.i....).......
0680: 69 C0 0F 01 80 F0 FF FF  7F 1C 02 80 45 03 80 F0  i...........E...
0690: FF FF 7F F0 FF FF 7F 6E  74 33 30 04 80 1A FC 0A  .......nt30.....
06A0: 29 10 0E C0 0F 01 07 29  10 F0 FF FF 7F 2C 2B 0E  )......).....,+.
06B0: C0 0F 01 31 80 23 5B 32  80 0E C0 0F 01 0E C0 0F  ...1.#[2........
06C0: 01 74 6C 6B 30 2B 0E C0  0F 01 33 80 23 5B 32 80  .tlk0+....3.#[2.
06D0: 0E C0 0F 01 0E C0 0F 01  74 6C 6B 31 53 0E C0 0F  ........tlk1S...
06E0: 01 0E C0 0F 01 74 6C 6B  31 4B 0E C0 0F 01 34 80  .....tlk1K....4.
06F0: 6F 76 0E C0 0F 01 5D 04  80 35 80 1A 1D 0B 1C 36  ov....]..5.....6
0700: 80 2B 0E C0 0F 01 37 80  23 29 10 69 C0 0F 01 03  .+....7.#).i....
0710: 4A 0E C0 0F 01 69 C0 0F  01 4A F0 FF FF 7F 69 C0  J....i...J....i.
0720: 0F 01 5C 00 38 80 5C 01  38 80 9A 1C 1F 80 52 03  ..\.8.\.8.....R.
0730: 80 F0 FF FF 7F F0 FF FF  7F 6E 74 33 30 45 03 80  .........nt30E..
0740: F0 FF FF 7F F0 FF FF 7F  6E 74 33 31 04 80 1A FC  ........nt31....
0750: 0A 27 10 69 C0 0F 01 16  2B 69 C0 0F 01 39 80 23  .'.i....+i...9.#
0760: 27 10 69 C0 0F 01 18 52  03 80 F0 FF FF 7F F0 FF  '.i....R........
0770: FF 7F 6E 74 33 31 45 03  80 F0 FF FF 7F F0 FF FF  ..nt31E.........
0780: 7F 6E 74 33 32 04 80 5B  32 80 0E C0 0F 01 0E C0  .nt32..[2.......
0790: 0F 01 64 69 73 30 2B 0E  C0 0F 01 3A 80 23 52 03  ..dis0+....:.#R.
07A0: 80 F0 FF FF 7F F0 FF FF  7F 6E 74 33 32 45 03 80  .........nt32E..
07B0: F0 FF FF 7F F0 FF FF 7F  6E 74 33 33 04 80 27 10  ........nt33..'.
07C0: 69 C0 0F 01 0A 2B 69 C0  0F 01 3B 80 23 03 03 10  i....+i...;.#...
07D0: 00 00 27 10 69 C0 0F 01  16 2B 69 C0 0F 01 3C 80  ..'.i....+i...<.
07E0: 23 2B 69 C0 0F 01 3D 80  23 27 10 69 C0 0F 01 18  #+i...=.#'.i....
07F0: 79 00 0F C0 0F 01 69 C0  0F 01 4A 0E C0 0F 01 0F  y.....i...J.....
0800: C0 0F 01 4A F0 FF FF 7F  0F C0 0F 01 52 03 80 F0  ...J........R...
0810: FF FF 7F F0 FF FF 7F 6E  74 33 33 45 03 80 F0 FF  .......nt33E....
0820: FF 7F F0 FF FF 7F 6E 74  33 34 04 80 66 0B 80 0F  ......nt34..f...
0830: C0 0F 01 0F C0 0F 01 74  77 61 30 2B 0F C0 0F 01  .......twa0+....
0840: 3E 80 23 2B 0F C0 0F 01  3F 80 23 66 0B 80 0F C0  >.#+....?.#f....
0850: 0F 01 0F C0 0F 01 74 77  61 31 53 0F C0 0F 01 0F  ......twa1S.....
0860: C0 0F 01 74 77 61 31 52  03 80 F0 FF FF 7F F0 FF  ...twa1R........
0870: FF 7F 6E 74 33 34 45 03  80 F0 FF FF 7F F0 FF FF  ..nt34E.........
0880: 7F 6E 74 33 35 04 80 66  0B 80 0F C0 0F 01 0F C0  .nt35..f........
0890: 0F 01 74 77 62 30 2B 0F  C0 0F 01 40 80 23 2B 0F  ..twb0+....@.#+.
08A0: C0 0F 01 41 80 23 66 0B  80 0F C0 0F 01 0F C0 0F  ...A.#f.........
08B0: 01 74 77 62 31 52 03 80  F0 FF FF 7F F0 FF FF 7F  .twb1R..........
08C0: 6E 74 33 35 45 03 80 F0  FF FF 7F F0 FF FF 7F 6E  nt35E..........n
08D0: 74 33 36 04 80 5B 32 80  0E C0 0F 01 0E C0 0F 01  t36..[2.........
08E0: 6B 75 64 30 2B 0E C0 0F  01 42 80 23 2B 0E C0 0F  kud0+....B.#+...
08F0: 01 43 80 23 52 03 80 F0  FF FF 7F F0 FF FF 7F 6E  .C.#R..........n
0900: 74 33 36 45 03 80 F0 FF  FF 7F F0 FF FF 7F 6E 74  t36E..........nt
0910: 33 37 04 80 66 0B 80 0F  C0 0F 01 0F C0 0F 01 74  37..f..........t
0920: 68 6B 31 2B 0F C0 0F 01  44 80 23 2B 0F C0 0F 01  hk1+....D.#+....
0930: 45 80 23 5C 00 46 80 5C  01 46 80 9A 66 0B 80 0F  E.#\.F.\.F..f...
0940: C0 0F 01 0F C0 0F 01 74  68 6B 32 4A 0E C0 0F 01  .......thk2J....
0950: 69 C0 0F 01 4A F0 FF FF  7F 69 C0 0F 01 52 03 80  i...J....i...R..
0960: F0 FF FF 7F F0 FF FF 7F  6E 74 33 37 45 03 80 F0  ........nt37E...
0970: FF FF 7F F0 FF FF 7F 6E  74 33 38 04 80 45 47 80  .......nt38..EG.
0980: F0 FF FF 7F F0 FF FF 7F  62 6C 6F 6E 04 80 27 10  ........blon..'.
0990: 69 C0 0F 01 0E 2B 69 C0  0F 01 48 80 23 55 03 80  i....+i...H.#U..
09A0: F0 FF FF 7F F0 FF FF 7F  6E 74 33 38 45 03 80 F0  ........nt38E...
09B0: FF FF 7F F0 FF FF 7F 6E  74 33 39 04 80 27 10 69  .......nt39..'.i
09C0: C0 0F 01 16 2B 69 C0 0F  01 49 80 23 27 10 69 C0  ....+i...I.#'.i.
09D0: 0F 01 18 5B 32 80 0E C0  0F 01 0E C0 0F 01 64 69  ...[2.........di
09E0: 73 30 2B 0E C0 0F 01 4A  80 23 2B 0E C0 0F 01 4B  s0+....J.#+....K
09F0: 80 23 2B 0E C0 0F 01 4C  80 23 55 03 80 F0 FF FF  .#+....L.#U.....
0A00: 7F F0 FF FF 7F 6E 74 33  39 45 03 80 F0 FF FF 7F  .....nt39E......
0A10: F0 FF FF 7F 6E 74 34 30  04 80 27 10 69 C0 0F 01  ....nt40..'.i...
0A20: 1E 2B 69 C0 0F 01 4D 80  23 27 10 69 C0 0F 01 20  .+i...M.#'.i... 
0A30: 29 10 69 C0 0F 01 21 27  10 69 C0 0F 01 25 1C 1F  ).i...!'.i...%..
0A40: 80 55 03 80 F0 FF FF 7F  F0 FF FF 7F 6E 74 34 30  .U..........nt40
0A50: 45 03 80 F0 FF FF 7F F0  FF FF 7F 6E 74 34 31 04  E..........nt41.
0A60: 80 29 10 0E C0 0F 01 08  1C 02 80 5B 32 80 0E C0  .).........[2...
0A70: 0F 01 0E C0 0F 01 61 6E  67 30 2B 0E C0 0F 01 4E  ......ang0+....N
0A80: 80 23 5D 04 80 35 80 1A  1D 0B 1C 1F 80 52 03 80  .#]..5.......R..
0A90: F0 FF FF 7F F0 FF FF 7F  6E 74 34 31 5C 00 4F 80  ........nt41\.O.
0AA0: 5C 01 4F 80 9A 46 00 45  20 80 F0 FF FF 7F F0 FF  \.O..F.E .......
0AB0: FF 7F 66 64 69 32 04 80  21 00 45 20 80 F0 FF FF  ..fdi2..!.E ....
0AC0: 7F F0 FF FF 7F 66 64 69  30 04 80 55 20 80 F0 FF  .....fdi0..U ...
0AD0: FF 7F F0 FF FF 7F 66 64  69 30 1B 45 20 80 F0 FF  ......fdi0.E ...
0AE0: FF 7F F0 FF FF 7F 66 64  6F 30 04 80 55 20 80 F0  ......fdo0..U ..
0AF0: FF FF 7F F0 FF FF 7F 66  64 6F 30 1B 45 20 80 F0  .......fdo0.E ..
0B00: FF FF 7F F0 FF FF 7F 66  64 69 31 04 80 55 20 80  .......fdi1..U .
0B10: F0 FF FF 7F F0 FF FF 7F  66 64 69 31 1B 45 20 80  ........fdi1.E .
0B20: F0 FF FF 7F F0 FF FF 7F  66 64 6F 31 04 80 55 20  ........fdo1..U 
0B30: 80 F0 FF FF 7F F0 FF FF  7F 66 64 6F 31 1B 45 47  .........fdo1.EG
0B40: 80 F0 FF FF 7F F0 FF FF  7F 77 68 69 31 04 80 55  .........whi1..U
0B50: 47 80 F0 FF FF 7F F0 FF  FF 7F 77 68 69 31 1B 45  G.........whi1.E
0B60: 47 80 F0 FF FF 7F F0 FF  FF 7F 77 68 6F 31 04 80  G.........who1..
0B70: 55 47 80 F0 FF FF 7F F0  FF FF 7F 77 68 6F 31 1B  UG.........who1.
0B80: 45 47 80 F0 FF FF 7F F0  FF FF 7F 77 68 6F 32 04  EG.........who2.
0B90: 80 55 47 80 F0 FF FF 7F  F0 FF FF 7F 77 68 6F 32  .UG.........who2
0BA0: 1B 45 47 80 F0 FF FF 7F  F0 FF FF 7F 77 68 6F 33  .EG.........who3
0BB0: 04 80 55 47 80 F0 FF FF  7F F0 FF FF 7F 77 68 6F  ..UG.........who
0BC0: 33 1B 62 50 80 F0 FF FF  7F F0 FF FF 7F 6D 61 69  3.bP.........mai
0BD0: 6E 04 80 1C 30 80 45 20  80 F0 FF FF 7F F0 FF FF  n...0.E ........
0BE0: 7F 66 64 6F 31 04 80 55  20 80 F0 FF FF 7F F0 FF  .fdo1..U .......
0BF0: FF 7F 66 64 6F 31 1B 45  20 80 F0 FF FF 7F F0 FF  ..fdo1.E .......
0C00: FF 7F 66 64 69 31 04 80  62 51 80 F0 FF FF 7F F0  ..fdi1..bQ......
0C10: FF FF 7F 6D 61 69 6E 04  80 1C 1F 80 55 20 80 F0  ...main.....U ..
0C20: FF FF 7F F0 FF FF 7F 66  64 69 31 1B 45 20 80 F0  .......fdi1.E ..
0C30: FF FF 7F F0 FF FF 7F 62  6C 6F 6E 04 80 45 47 80  .......blon..EG.
0C40: F0 FF FF 7F F0 FF FF 7F  62 6C 6F 6E 04 80 1B 45  ........blon...E
0C50: 47 80 F0 FF FF 7F F0 FF  FF 7F 77 68 69 30 04 80  G.........whi0..
0C60: 55 47 80 F0 FF FF 7F F0  FF FF 7F 77 68 69 30 1B  UG.........whi0.
0C70: 45 47 80 F0 FF FF 7F F0  FF FF 7F 77 68 6F 30 04  EG.........who0.
0C80: 80 55 47 80 F0 FF FF 7F  F0 FF FF 7F 77 68 6F 30  .UG.........who0
0C90: 1B 45 52 80 F0 FF FF 7F  F0 FF FF 7F 65 66 6F 6E  .ER.........efon
0CA0: 04 80 55 52 80 F0 FF FF  7F F0 FF FF 7F 65 66 6F  ..UR.........efo
0CB0: 6E 1B 45 20 80 F0 FF FF  7F F0 FF FF 7F 66 64 69  n.E .........fdi
0CC0: 73 04 80 1B 45 20 80 F0  FF FF 7F F0 FF FF 7F 66  s...E .........f
0CD0: 64 6F 73 04 80 55 20 80  F0 FF FF 7F F0 FF FF 7F  dos..U .........
0CE0: 66 64 6F 73 1B 45 20 80  F0 FF FF 7F F0 FF FF 7F  fdos.E .........
0CF0: 66 64 69 66 04 80 1B 45  20 80 F0 FF FF 7F F0 FF  fdif...E .......
0D00: FF 7F 66 64 6F 66 04 80  55 20 80 F0 FF FF 7F F0  ..fdof..U ......
0D10: FF FF 7F 66 64 6F 66 1B  45 20 80 F0 FF FF 7F F0  ...fdof.E ......
0D20: FF FF 7F 66 64 69 70 04  80 1B 45 20 80 F0 FF FF  ...fdip...E ....
0D30: 7F F0 FF FF 7F 66 64 6F  70 04 80 55 20 80 F0 FF  .....fdop..U ...
0D40: FF 7F F0 FF FF 7F 66 64  6F 70 1B                 ......fdop.     
```

#### Opcodes

```
  0: 0x0640 [0x42] SET_CLI_EVENT_CANCEL_DATA()
  1: 0x0641 [0x03] ExtData[1]->WorkLocal[0] = Work_Zone[3]
  2: 0x0646 [0x1A] CALL_SUBROUTINE(address=0x0B1D)
  3: 0x0649 [0x46] CAMERA_CONTROL: Disable user control
  4: 0x064B [0x38] SET_CLIENT_EVENT_MODE(mode=19*)
  5: 0x064E [0x79] LocalPlayer looks at LocalPlayer (Basic look)
  6: 0x0658 [0x27] REQ_SET(priority=0x10, entity_id=Novice Moogle (ID: 17809513/0x010FC069), tag_num=0x02)
  7: 0x065F [0x92] Gimb (ID: 17809422/0x010FC00E)->Render.Flags3 ^= 0x01
  8: 0x0665 [0x92] Koetsu (ID: 17809423/0x010FC00F)->Render.Flags3 ^= 0x01
  9: 0x066B [0x92] Novice Moogle (ID: 17809513/0x010FC069)->Render.Flags3 ^= 0x01
 10: 0x0671 [0x27] REQ_SET(priority=0x10, entity_id=Novice Moogle (ID: 17809513/0x010FC069), tag_num=0x09)
 11: 0x0678 [0x29] REQ_SET_WAIT(priority=0x10, entity_id=LocalPlayer, tag_num=0x2E)
 12: 0x067F [0x80] LOAD_WAIT(entity=Novice Moogle (ID: 17809513/0x010FC069))
 13: 0x0684 [0x80] LOAD_WAIT(entity=LocalPlayer)
 14: 0x0689 [0x1C] WAIT(15* ticks)
 15: 0x068C [0x45] LOAD_SCHEDULED_TASK: Load scheduler "nt30" with entities [LocalPlayer, LocalPlayer], work=[156*, 0*]
 16: 0x069D [0x1A] CALL_SUBROUTINE(address=0x0AFC)
 17: 0x06A0 [0x29] REQ_SET_WAIT(priority=0x10, entity_id=Gimb (ID: 17809422/0x010FC00E), tag_num=0x07)
 18: 0x06A7 [0x29] REQ_SET_WAIT(priority=0x10, entity_id=LocalPlayer, tag_num=0x2C)
 19: 0x06AE [0x2B] Gimb (ID: 17809422/0x010FC00E) [11140*]:
    → "Yer here to meet the [lad/lass] from the couple that blew in a while back?"
 20: 0x06B5 [0x23] WAIT_FOR_DIALOG_INTERACTION
 21: 0x06B6 [0x5B] LOAD_EXT_SCHEDULER: Load scheduler "tlk0" with entities [Gimb (ID: 17809422/0x010FC00E), Gimb (ID: 17809422/0x010FC00E)], work=377*
 22: 0x06C5 [0x2B] Gimb (ID: 17809422/0x010FC00E) [11141*]:
    → "Hang around here a bit."
 23: 0x06CC [0x23] WAIT_FOR_DIALOG_INTERACTION
 24: 0x06CD [0x5B] LOAD_EXT_SCHEDULER: Load scheduler "tlk1" with entities [Gimb (ID: 17809422/0x010FC00E), Gimb (ID: 17809422/0x010FC00E)], work=377*
 25: 0x06DC [0x53] WAIT_SCHEDULER_TASK: Wait for scheduler "tlk1" with entities [Gimb (ID: 17809422/0x010FC00E), Gimb (ID: 17809422/0x010FC00E)]
 26: 0x06E9 [0x4B] UPDATE_ENTITY_YAW(entity=Gimb (ID: 17809422/0x010FC00E), yaw=22.4°*)
 27: 0x06F0 [0x6F] WAIT_FRAME_DELAY: Yield until WaitTime reaches zero
 28: 0x06F1 [0x76] CHECK_ENTITY_RENDER_FLAGS: Wait until Gimb (ID: 17809422/0x010FC00E) Render.Flags0 and Render.Flags3 conditions are met
 29: 0x06F6 [0x5D] SET_MUSIC_VOLUME(volume=0*, fade_time=120*)
 30: 0x06FB [0x1A] CALL_SUBROUTINE(address=0x0B1D)
 31: 0x06FE [0x1C] WAIT(60* ticks)
 32: 0x0701 [0x2B] Gimb (ID: 17809422/0x010FC00E) [11142*]:
    → "Hmmm. I can't find the girl. Where could she have gone?"
 33: 0x0708 [0x23] WAIT_FOR_DIALOG_INTERACTION
 34: 0x0709 [0x29] REQ_SET_WAIT(priority=0x10, entity_id=Novice Moogle (ID: 17809513/0x010FC069), tag_num=0x03)
 35: 0x0710 [0x4A] Gimb (ID: 17809422/0x010FC00E) looks at Novice Moogle (ID: 17809513/0x010FC069)
 36: 0x0719 [0x4A] LocalPlayer looks at Novice Moogle (ID: 17809513/0x010FC069)
 37: 0x0722 [0x5C] MUSIC_CONTROL: Set Idle (Day) music to song 163*
 38: 0x0726 [0x5C] MUSIC_CONTROL: Set Idle (Night) music to song 163*
 39: 0x072A [0x9A] WAIT_MUSIC_SERVER()
 40: 0x072B [0x1C] WAIT(30* ticks)
 41: 0x072E [0x52] END_LOAD_SCHEDULER: End scheduler "nt30" with entities [LocalPlayer, LocalPlayer], work=156*
 42: 0x073D [0x45] LOAD_SCHEDULED_TASK: Load scheduler "nt31" with entities [LocalPlayer, LocalPlayer], work=[156*, 0*]
 43: 0x074E [0x1A] CALL_SUBROUTINE(address=0x0AFC)
 44: 0x0751 [0x27] REQ_SET(priority=0x10, entity_id=Novice Moogle (ID: 17809513/0x010FC069), tag_num=0x16)
 45: 0x0758 [0x2B] Novice Moogle (ID: 17809513/0x010FC069) [11143*]:
    → "Thank you for coming! You're a life saver, kupopo!"
 46: 0x075F [0x23] WAIT_FOR_DIALOG_INTERACTION
 47: 0x0760 [0x27] REQ_SET(priority=0x10, entity_id=Novice Moogle (ID: 17809513/0x010FC069), tag_num=0x18)
 48: 0x0767 [0x52] END_LOAD_SCHEDULER: End scheduler "nt31" with entities [LocalPlayer, LocalPlayer], work=156*
 49: 0x0776 [0x45] LOAD_SCHEDULED_TASK: Load scheduler "nt32" with entities [LocalPlayer, LocalPlayer], work=[156*, 0*]
 50: 0x0787 [0x5B] LOAD_EXT_SCHEDULER: Load scheduler "dis0" with entities [Gimb (ID: 17809422/0x010FC00E), Gimb (ID: 17809422/0x010FC00E)], work=377*
 51: 0x0796 [0x2B] Gimb (ID: 17809422/0x010FC00E) [11144*]:
    → "Just a moment, now. Where's that dreamy-looking girl got to?"
 52: 0x079D [0x23] WAIT_FOR_DIALOG_INTERACTION
 53: 0x079E [0x52] END_LOAD_SCHEDULER: End scheduler "nt32" with entities [LocalPlayer, LocalPlayer], work=156*
 54: 0x07AD [0x45] LOAD_SCHEDULED_TASK: Load scheduler "nt33" with entities [LocalPlayer, LocalPlayer], work=[156*, 0*]
 55: 0x07BE [0x27] REQ_SET(priority=0x10, entity_id=Novice Moogle (ID: 17809513/0x010FC069), tag_num=0x0A)
 56: 0x07C5 [0x2B] Novice Moogle (ID: 17809513/0x010FC069) [11145*]:
    → "Sanctia? Oh, she left ages and ages ago, kupopo."
 57: 0x07CC [0x23] WAIT_FOR_DIALOG_INTERACTION
 58: 0x07CD [0x03] Work_Zone[3] = ExtData[1]->WorkLocal[0]
 59: 0x07D2 [0x27] REQ_SET(priority=0x10, entity_id=Novice Moogle (ID: 17809513/0x010FC069), tag_num=0x16)
 60: 0x07D9 [0x2B] Novice Moogle (ID: 17809513/0x010FC069) [11146*]:
    → "I gave her some $1 and she let me have her dinner, kupopo."
 61: 0x07E0 [0x23] WAIT_FOR_DIALOG_INTERACTION
 62: 0x07E1 [0x2B] Novice Moogle (ID: 17809513/0x010FC069) [11147*]:
    → "Sanctia dreams of becoming a fearsome bounty hunter, kupopo!"
 63: 0x07E8 [0x23] WAIT_FOR_DIALOG_INTERACTION
 64: 0x07E9 [0x27] REQ_SET(priority=0x10, entity_id=Novice Moogle (ID: 17809513/0x010FC069), tag_num=0x18)
 65: 0x07F0 [0x79] Koetsu (ID: 17809423/0x010FC00F) looks at Novice Moogle (ID: 17809513/0x010FC069) (Basic look)
 66: 0x07FA [0x4A] Gimb (ID: 17809422/0x010FC00E) looks at Koetsu (ID: 17809423/0x010FC00F)
 67: 0x0803 [0x4A] LocalPlayer looks at Koetsu (ID: 17809423/0x010FC00F)
 68: 0x080C [0x52] END_LOAD_SCHEDULER: End scheduler "nt33" with entities [LocalPlayer, LocalPlayer], work=156*
 69: 0x081B [0x45] LOAD_SCHEDULED_TASK: Load scheduler "nt34" with entities [LocalPlayer, LocalPlayer], work=[156*, 0*]
 70: 0x082C [0x66] LOAD_EXT_SCHEDULER_MAIN: Load scheduler "twa0" with entities [Koetsu (ID: 17809423/0x010FC00F), Koetsu (ID: 17809423/0x010FC00F)], work=9*
 71: 0x083B [0x2B] Koetsu (ID: 17809423/0x010FC00F) [11148*]:
    → "Hold on there, buddy. Does she really mean to find Goldmane, the legendary bounty hunter?"
 72: 0x0842 [0x23] WAIT_FOR_DIALOG_INTERACTION
 73: 0x0843 [0x2B] Koetsu (ID: 17809423/0x010FC00F) [11149*]:
    → "He's the guy that collared the infamous Atarefaunet."
 74: 0x084A [0x23] WAIT_FOR_DIALOG_INTERACTION
 75: 0x084B [0x66] LOAD_EXT_SCHEDULER_MAIN: Load scheduler "twa1" with entities [Koetsu (ID: 17809423/0x010FC00F), Koetsu (ID: 17809423/0x010FC00F)], work=9*
 76: 0x085A [0x53] WAIT_SCHEDULER_TASK: Wait for scheduler "twa1" with entities [Koetsu (ID: 17809423/0x010FC00F), Koetsu (ID: 17809423/0x010FC00F)]
 77: 0x0867 [0x52] END_LOAD_SCHEDULER: End scheduler "nt34" with entities [LocalPlayer, LocalPlayer], work=156*
 78: 0x0876 [0x45] LOAD_SCHEDULED_TASK: Load scheduler "nt35" with entities [LocalPlayer, LocalPlayer], work=[156*, 0*]
 79: 0x0887 [0x66] LOAD_EXT_SCHEDULER_MAIN: Load scheduler "twb0" with entities [Koetsu (ID: 17809423/0x010FC00F), Koetsu (ID: 17809423/0x010FC00F)], work=9*
 80: 0x0896 [0x2B] Koetsu (ID: 17809423/0x010FC00F) [11150*]:
    → "I heard he scored a mountain of gil for that job, but the rest of Atarefaunet's Band is still thirsting for his blood."
 81: 0x089D [0x23] WAIT_FOR_DIALOG_INTERACTION
 82: 0x089E [0x2B] Koetsu (ID: 17809423/0x010FC00F) [11151*]:
    → "The rumors say Goldmane went into hiding after the gang came after him."
 83: 0x08A5 [0x23] WAIT_FOR_DIALOG_INTERACTION
 84: 0x08A6 [0x66] LOAD_EXT_SCHEDULER_MAIN: Load scheduler "twb1" with entities [Koetsu (ID: 17809423/0x010FC00F), Koetsu (ID: 17809423/0x010FC00F)], work=9*
 85: 0x08B5 [0x52] END_LOAD_SCHEDULER: End scheduler "nt35" with entities [LocalPlayer, LocalPlayer], work=156*
 86: 0x08C4 [0x45] LOAD_SCHEDULED_TASK: Load scheduler "nt36" with entities [LocalPlayer, LocalPlayer], work=[156*, 0*]
 87: 0x08D5 [0x5B] LOAD_EXT_SCHEDULER: Load scheduler "kud0" with entities [Gimb (ID: 17809422/0x010FC00E), Gimb (ID: 17809422/0x010FC00E)], work=377*
 88: 0x08E4 [0x2B] Gimb (ID: 17809422/0x010FC00E) [11152*]:
    → "Yeah, and if he's still breathing, it means those vicious thugs haven't found him yet."
 89: 0x08EB [0x23] WAIT_FOR_DIALOG_INTERACTION
 90: 0x08EC [0x2B] Gimb (ID: 17809422/0x010FC00E) [11153*]:
    → "A guy who can give that lot the runaround is never gonna be found by a clueless puppy like Sanctia."
 91: 0x08F3 [0x23] WAIT_FOR_DIALOG_INTERACTION
 92: 0x08F4 [0x52] END_LOAD_SCHEDULER: End scheduler "nt36" with entities [LocalPlayer, LocalPlayer], work=156*
 93: 0x0903 [0x45] LOAD_SCHEDULED_TASK: Load scheduler "nt37" with entities [LocalPlayer, LocalPlayer], work=[156*, 0*]
 94: 0x0914 [0x66] LOAD_EXT_SCHEDULER_MAIN: Load scheduler "thk1" with entities [Koetsu (ID: 17809423/0x010FC00F), Koetsu (ID: 17809423/0x010FC00F)], work=9*
 95: 0x0923 [0x2B] Koetsu (ID: 17809423/0x010FC00F) [11154*]:
    → "And if her search for Goldmane becomes noticeable, it will draw the attention of Atarefaunet's Band."
 96: 0x092A [0x23] WAIT_FOR_DIALOG_INTERACTION
 97: 0x092B [0x2B] Koetsu (ID: 17809423/0x010FC00F) [11155*]:
    → "The idea was to make her cool her heels in Norg for a while, and then have Gilgamesh explain the big holes in her plan."
 98: 0x0932 [0x23] WAIT_FOR_DIALOG_INTERACTION
 99: 0x0933 [0x5C] MUSIC_CONTROL: Set Idle (Day) music to song 170*
100: 0x0937 [0x5C] MUSIC_CONTROL: Set Idle (Night) music to song 170*
101: 0x093B [0x9A] WAIT_MUSIC_SERVER()
102: 0x093C [0x66] LOAD_EXT_SCHEDULER_MAIN: Load scheduler "thk2" with entities [Koetsu (ID: 17809423/0x010FC00F), Koetsu (ID: 17809423/0x010FC00F)], work=9*
103: 0x094B [0x4A] Gimb (ID: 17809422/0x010FC00E) looks at Novice Moogle (ID: 17809513/0x010FC069)
104: 0x0954 [0x4A] LocalPlayer looks at Novice Moogle (ID: 17809513/0x010FC069)
105: 0x095D [0x52] END_LOAD_SCHEDULER: End scheduler "nt37" with entities [LocalPlayer, LocalPlayer], work=156*
106: 0x096C [0x45] LOAD_SCHEDULED_TASK: Load scheduler "nt38" with entities [LocalPlayer, LocalPlayer], work=[156*, 0*]
107: 0x097D [0x45] LOAD_SCHEDULED_TASK: Load scheduler "blon" with entities [LocalPlayer, LocalPlayer], work=[201*, 0*]
108: 0x098E [0x27] REQ_SET(priority=0x10, entity_id=Novice Moogle (ID: 17809513/0x010FC069), tag_num=0x0E)
109: 0x0995 [0x2B] Novice Moogle (ID: 17809513/0x010FC069) [11156*]:
    → "But this is terrible, kupopo!"
110: 0x099C [0x23] WAIT_FOR_DIALOG_INTERACTION
111: 0x099D [0x55] WAIT_LOAD_SCHEDULER: Wait for scheduler "nt38" with entities [LocalPlayer, LocalPlayer], work=156*
112: 0x09AC [0x45] LOAD_SCHEDULED_TASK: Load scheduler "nt39" with entities [LocalPlayer, LocalPlayer], work=[156*, 0*]
113: 0x09BD [0x27] REQ_SET(priority=0x10, entity_id=Novice Moogle (ID: 17809513/0x010FC069), tag_num=0x16)
114: 0x09C4 [0x2B] Novice Moogle (ID: 17809513/0x010FC069) [11157*]:
    → "Sanctia said she was going to Bastok, kupopo!"
115: 0x09CB [0x23] WAIT_FOR_DIALOG_INTERACTION
116: 0x09CC [0x27] REQ_SET(priority=0x10, entity_id=Novice Moogle (ID: 17809513/0x010FC069), tag_num=0x18)
117: 0x09D3 [0x5B] LOAD_EXT_SCHEDULER: Load scheduler "dis0" with entities [Gimb (ID: 17809422/0x010FC00E), Gimb (ID: 17809422/0x010FC00E)], work=377*
118: 0x09E2 [0x2B] Gimb (ID: 17809422/0x010FC00E) [11158*]:
    → "Don't tell me she stowed away on the ship headed for Bastok?"
119: 0x09E9 [0x23] WAIT_FOR_DIALOG_INTERACTION
120: 0x09EA [0x2B] Gimb (ID: 17809422/0x010FC00E) [11159*]:
    → "Captain Chieka is known among pirates as the "She-Devil of the Sea.""
121: 0x09F1 [0x23] WAIT_FOR_DIALOG_INTERACTION
122: 0x09F2 [0x2B] Gimb (ID: 17809422/0x010FC00E) [11160*]:
    → "If Chieka finds her, Sanctia'll be tossed into the ocean for sure."
123: 0x09F9 [0x23] WAIT_FOR_DIALOG_INTERACTION
124: 0x09FA [0x55] WAIT_LOAD_SCHEDULER: Wait for scheduler "nt39" with entities [LocalPlayer, LocalPlayer], work=156*
125: 0x0A09 [0x45] LOAD_SCHEDULED_TASK: Load scheduler "nt40" with entities [LocalPlayer, LocalPlayer], work=[156*, 0*]
126: 0x0A1A [0x27] REQ_SET(priority=0x10, entity_id=Novice Moogle (ID: 17809513/0x010FC069), tag_num=0x1E)
127: 0x0A21 [0x2B] Novice Moogle (ID: 17809513/0x010FC069) [11161*]:
    → "We can't let that happen, kupopo!"
128: 0x0A28 [0x23] WAIT_FOR_DIALOG_INTERACTION
129: 0x0A29 [0x27] REQ_SET(priority=0x10, entity_id=Novice Moogle (ID: 17809513/0x010FC069), tag_num=0x20)
130: 0x0A30 [0x29] REQ_SET_WAIT(priority=0x10, entity_id=Novice Moogle (ID: 17809513/0x010FC069), tag_num=0x21)
131: 0x0A37 [0x27] REQ_SET(priority=0x10, entity_id=Novice Moogle (ID: 17809513/0x010FC069), tag_num=0x25)
132: 0x0A3E [0x1C] WAIT(30* ticks)
133: 0x0A41 [0x55] WAIT_LOAD_SCHEDULER: Wait for scheduler "nt40" with entities [LocalPlayer, LocalPlayer], work=156*
134: 0x0A50 [0x45] LOAD_SCHEDULED_TASK: Load scheduler "nt41" with entities [LocalPlayer, LocalPlayer], work=[156*, 0*]
135: 0x0A61 [0x29] REQ_SET_WAIT(priority=0x10, entity_id=Gimb (ID: 17809422/0x010FC00E), tag_num=0x08)
136: 0x0A68 [0x1C] WAIT(15* ticks)
137: 0x0A6B [0x5B] LOAD_EXT_SCHEDULER: Load scheduler "ang0" with entities [Gimb (ID: 17809422/0x010FC00E), Gimb (ID: 17809422/0x010FC00E)], work=377*
138: 0x0A7A [0x2B] Gimb (ID: 17809422/0x010FC00E) [11162*]:
    → "Wha-! Dammit! There goes the other one!"
139: 0x0A81 [0x23] WAIT_FOR_DIALOG_INTERACTION
140: 0x0A82 [0x5D] SET_MUSIC_VOLUME(volume=0*, fade_time=120*)
141: 0x0A87 [0x1A] CALL_SUBROUTINE(address=0x0B1D)
142: 0x0A8A [0x1C] WAIT(30* ticks)
143: 0x0A8D [0x52] END_LOAD_SCHEDULER: End scheduler "nt41" with entities [LocalPlayer, LocalPlayer], work=156*
144: 0x0A9C [0x5C] MUSIC_CONTROL: Set Idle (Day) music to song 209*
145: 0x0AA0 [0x5C] MUSIC_CONTROL: Set Idle (Night) music to song 209*
146: 0x0AA4 [0x9A] WAIT_MUSIC_SERVER()
147: 0x0AA5 [0x46] CAMERA_CONTROL: Restore default settings
148: 0x0AA7 [0x45] LOAD_SCHEDULED_TASK: Load scheduler "fdi2" with entities [LocalPlayer, LocalPlayer], work=[200*, 0*]
149: 0x0AB8 [0x21] END_EVENT
150: 0x0AB9 [0x00] END_REQSTACK()

SUBROUTINE_0AFC:
151: 0x0AFC [0x45] LOAD_SCHEDULED_TASK: Load scheduler "fdi1" with entities [LocalPlayer, LocalPlayer], work=[200*, 0*]
152: 0x0B0D [0x55] WAIT_LOAD_SCHEDULER: Wait for scheduler "fdi1" with entities [LocalPlayer, LocalPlayer], work=200*
153: 0x0B1C [0x1B] RETURN

SUBROUTINE_0B1D:
154: 0x0B1D [0x45] LOAD_SCHEDULED_TASK: Load scheduler "fdo1" with entities [LocalPlayer, LocalPlayer], work=[200*, 0*]
155: 0x0B2E [0x55] WAIT_LOAD_SCHEDULER: Wait for scheduler "fdo1" with entities [LocalPlayer, LocalPlayer], work=200*
156: 0x0B3D [0x1B] RETURN
```

#### Data or dead code:

```
# Dead code (unreachable instructions):
     0x0ABA [0x45] LOAD_SCHEDULED_TASK: Load scheduler "fdi0" with entities [LocalPlayer, LocalPlayer], work=[200*, 0*]
     0x0ACB [0x55] WAIT_LOAD_SCHEDULER: Wait for scheduler "fdi0" with entities [LocalPlayer, LocalPlayer], work=200*
     0x0ADA [0x1B] RETURN
     0x0ADB [0x45] LOAD_SCHEDULED_TASK: Load scheduler "fdo0" with entities [LocalPlayer, LocalPlayer], work=[200*, 0*]
     0x0AEC [0x55] WAIT_LOAD_SCHEDULER: Wait for scheduler "fdo0" with entities [LocalPlayer, LocalPlayer], work=200*
     0x0AFB [0x1B] RETURN
# Dead code (unreachable instructions):
     0x0B3E [0x45] LOAD_SCHEDULED_TASK: Load scheduler "whi1" with entities [LocalPlayer, LocalPlayer], work=[201*, 0*]
     0x0B4F [0x55] WAIT_LOAD_SCHEDULER: Wait for scheduler "whi1" with entities [LocalPlayer, LocalPlayer], work=201*
     0x0B5E [0x1B] RETURN
     0x0B5F [0x45] LOAD_SCHEDULED_TASK: Load scheduler "who1" with entities [LocalPlayer, LocalPlayer], work=[201*, 0*]
     0x0B70 [0x55] WAIT_LOAD_SCHEDULER: Wait for scheduler "who1" with entities [LocalPlayer, LocalPlayer], work=201*
     0x0B7F [0x1B] RETURN
     0x0B80 [0x45] LOAD_SCHEDULED_TASK: Load scheduler "who2" with entities [LocalPlayer, LocalPlayer], work=[201*, 0*]
     0x0B91 [0x55] WAIT_LOAD_SCHEDULER: Wait for scheduler "who2" with entities [LocalPlayer, LocalPlayer], work=201*
     0x0BA0 [0x1B] RETURN
     0x0BA1 [0x45] LOAD_SCHEDULED_TASK: Load scheduler "who3" with entities [LocalPlayer, LocalPlayer], work=[201*, 0*]
     0x0BB2 [0x55] WAIT_LOAD_SCHEDULER: Wait for scheduler "who3" with entities [LocalPlayer, LocalPlayer], work=201*
     0x0BC1 [0x1B] RETURN
     0x0BC2 [0x62] LOAD_EVENT_SCHEDULER: Load scheduler "main" with entities [LocalPlayer, LocalPlayer], work=[1*, 0*]
     0x0BD3 [0x1C] WAIT(45* ticks)
     0x0BD6 [0x45] LOAD_SCHEDULED_TASK: Load scheduler "fdo1" with entities [LocalPlayer, LocalPlayer], work=[200*, 0*]
     0x0BE7 [0x55] WAIT_LOAD_SCHEDULER: Wait for scheduler "fdo1" with entities [LocalPlayer, LocalPlayer], work=200*
     0x0BF6 [0x1B] RETURN
     0x0BF7 [0x45] LOAD_SCHEDULED_TASK: Load scheduler "fdi1" with entities [LocalPlayer, LocalPlayer], work=[200*, 0*]
     0x0C08 [0x62] LOAD_EVENT_SCHEDULER: Load scheduler "main" with entities [LocalPlayer, LocalPlayer], work=[2*, 0*]
     0x0C19 [0x1C] WAIT(30* ticks)
     0x0C1C [0x55] WAIT_LOAD_SCHEDULER: Wait for scheduler "fdi1" with entities [LocalPlayer, LocalPlayer], work=200*
     0x0C2B [0x1B] RETURN
     0x0C2C [0x45] LOAD_SCHEDULED_TASK: Load scheduler "blon" with entities [LocalPlayer, LocalPlayer], work=[200*, 0*]
     0x0C3D [0x45] LOAD_SCHEDULED_TASK: Load scheduler "blon" with entities [LocalPlayer, LocalPlayer], work=[201*, 0*]
     0x0C4E [0x1B] RETURN
     0x0C4F [0x45] LOAD_SCHEDULED_TASK: Load scheduler "whi0" with entities [LocalPlayer, LocalPlayer], work=[201*, 0*]
     0x0C60 [0x55] WAIT_LOAD_SCHEDULER: Wait for scheduler "whi0" with entities [LocalPlayer, LocalPlayer], work=201*
     0x0C6F [0x1B] RETURN
     0x0C70 [0x45] LOAD_SCHEDULED_TASK: Load scheduler "who0" with entities [LocalPlayer, LocalPlayer], work=[201*, 0*]
     0x0C81 [0x55] WAIT_LOAD_SCHEDULER: Wait for scheduler "who0" with entities [LocalPlayer, LocalPlayer], work=201*
     0x0C90 [0x1B] RETURN
     0x0C91 [0x45] LOAD_SCHEDULED_TASK: Load scheduler "efon" with entities [LocalPlayer, LocalPlayer], work=[215*, 0*]
     0x0CA2 [0x55] WAIT_LOAD_SCHEDULER: Wait for scheduler "efon" with entities [LocalPlayer, LocalPlayer], work=215*
     0x0CB1 [0x1B] RETURN
     0x0CB2 [0x45] LOAD_SCHEDULED_TASK: Load scheduler "fdis" with entities [LocalPlayer, LocalPlayer], work=[200*, 0*]
     0x0CC3 [0x1B] RETURN
     0x0CC4 [0x45] LOAD_SCHEDULED_TASK: Load scheduler "fdos" with entities [LocalPlayer, LocalPlayer], work=[200*, 0*]
     0x0CD5 [0x55] WAIT_LOAD_SCHEDULER: Wait for scheduler "fdos" with entities [LocalPlayer, LocalPlayer], work=200*
     0x0CE4 [0x1B] RETURN
     0x0CE5 [0x45] LOAD_SCHEDULED_TASK: Load scheduler "fdif" with entities [LocalPlayer, LocalPlayer], work=[200*, 0*]
     0x0CF6 [0x1B] RETURN
     0x0CF7 [0x45] LOAD_SCHEDULED_TASK: Load scheduler "fdof" with entities [LocalPlayer, LocalPlayer], work=[200*, 0*]
     0x0D08 [0x55] WAIT_LOAD_SCHEDULER: Wait for scheduler "fdof" with entities [LocalPlayer, LocalPlayer], work=200*
     0x0D17 [0x1B] RETURN
     0x0D18 [0x45] LOAD_SCHEDULED_TASK: Load scheduler "fdip" with entities [LocalPlayer, LocalPlayer], work=[200*, 0*]
     0x0D29 [0x1B] RETURN
     0x0D2A [0x45] LOAD_SCHEDULED_TASK: Load scheduler "fdop" with entities [LocalPlayer, LocalPlayer], work=[200*, 0*]
     0x0D3B [0x55] WAIT_LOAD_SCHEDULER: Wait for scheduler "fdop" with entities [LocalPlayer, LocalPlayer], work=200*
     0x0D4A [0x1B] RETURN
```
