# 17809532

## Common Data

| Field            | Value          |
|------------------|----------------|
| Zone             | Norg (ID: 252) |
| Block Size       | 576 bytes      |
| Total Events     | 11             |
| References Count | 17             |

## List of Events

| Event ID                 | Entrypoint   |   Size |   Instructions |
|--------------------------|--------------|--------|----------------|
| [65535](#event-65535)    | 0x0000       |      1 |              1 |
| [250](#event-250)        | 0x0001       |     12 |              3 |
| [252](#event-252)        | 0x000D       |     12 |              3 |
| [254](#event-254)        | 0x0019       |     12 |              3 |
| [258](#event-258)        | 0x0025       |     12 |              3 |
| [260](#event-260)        | 0x0031       |     12 |              3 |
| [65535.1](#event-655351) | 0x003D       |      4 |              2 |
| [276](#event-276)        | 0x0041       |      1 |              1 |
| [65535.2](#event-655352) | 0x0042       |     33 |              3 |
| [277](#event-277)        | 0x0063       |      1 |              1 |
| [65535.3](#event-655353) | 0x0064       |    345 |             33 |

## DAT References (imed_data)

|   Index | Hex Value   |   Dec Value |
|---------|-------------|-------------|
|       0 | 0x0F13      |        3859 |
|       1 | 0x0F26      |        3878 |
|       2 | 0x0001      |           1 |
|       3 | 0x008D      |         141 |
|       4 | 0x0002      |           2 |
|       5 | 0x0097      |         151 |
|       6 | 0x0003      |           3 |
|       7 | 0x00A1      |         161 |
|       8 | 0x0004      |           4 |
|       9 | 0x00AB      |         171 |
|      10 | 0x0005      |           5 |
|      11 | 0x00B5      |         181 |
|      12 | 0x0006      |           6 |
|      13 | 0x0007      |           7 |
|      14 | 0x00BF      |         191 |
|      15 | 0x0008      |           8 |
|      16 | 0x00C9      |         201 |

## Events

### Event 65535

#### Metadata

| Field        | Value   |
|--------------|---------|
| Entrypoint   | 0x0000  |
| Data Size    | 1 bytes |
| Instructions | 1       |

```
      00 01 02 03 04 05 06 07  08 09 0A 0B 0C 0D 0E 0F
      -- -- -- -- -- -- -- --  -- -- -- -- -- -- -- --
0000: 00                                                .               
```

#### Opcodes

```
  0: 0x0000 [0x00] END_REQSTACK()
```

### Event 250

#### Metadata

| Field        | Value    |
|--------------|----------|
| Entrypoint   | 0x0001   |
| Data Size    | 12 bytes |
| Instructions | 3        |

```
      00 01 02 03 04 05 06 07  08 09 0A 0B 0C 0D 0E 0F
      -- -- -- -- -- -- -- --  -- -- -- -- -- -- -- --
0000:    92 01 F8 FF FF 7F 80  F8 FF FF 7F 00            ............   
```

#### Opcodes

```
  0: 0x0001 [0x92] EventEntity->Render.Flags3 ^= 0x01
  1: 0x0007 [0x80] LOAD_WAIT(entity=EventEntity)
  2: 0x000C [0x00] END_REQSTACK()
```

### Event 252

#### Metadata

| Field        | Value    |
|--------------|----------|
| Entrypoint   | 0x000D   |
| Data Size    | 12 bytes |
| Instructions | 3        |

```
      00 01 02 03 04 05 06 07  08 09 0A 0B 0C 0D 0E 0F
      -- -- -- -- -- -- -- --  -- -- -- -- -- -- -- --
0000:                                         92 01 F8               ...
0010: FF FF 7F 80 F8 FF FF 7F  00                       .........       
```

#### Opcodes

```
  0: 0x000D [0x92] EventEntity->Render.Flags3 ^= 0x01
  1: 0x0013 [0x80] LOAD_WAIT(entity=EventEntity)
  2: 0x0018 [0x00] END_REQSTACK()
```

### Event 254

#### Metadata

| Field        | Value    |
|--------------|----------|
| Entrypoint   | 0x0019   |
| Data Size    | 12 bytes |
| Instructions | 3        |

```
      00 01 02 03 04 05 06 07  08 09 0A 0B 0C 0D 0E 0F
      -- -- -- -- -- -- -- --  -- -- -- -- -- -- -- --
0010:                             92 01 F8 FF FF 7F 80           .......
0020: F8 FF FF 7F 00                                    .....           
```

#### Opcodes

```
  0: 0x0019 [0x92] EventEntity->Render.Flags3 ^= 0x01
  1: 0x001F [0x80] LOAD_WAIT(entity=EventEntity)
  2: 0x0024 [0x00] END_REQSTACK()
```

### Event 258

#### Metadata

| Field        | Value    |
|--------------|----------|
| Entrypoint   | 0x0025   |
| Data Size    | 12 bytes |
| Instructions | 3        |

```
      00 01 02 03 04 05 06 07  08 09 0A 0B 0C 0D 0E 0F
      -- -- -- -- -- -- -- --  -- -- -- -- -- -- -- --
0020:                92 01 F8  FF FF 7F 80 F8 FF FF 7F       ...........
0030: 00                                                .               
```

#### Opcodes

```
  0: 0x0025 [0x92] EventEntity->Render.Flags3 ^= 0x01
  1: 0x002B [0x80] LOAD_WAIT(entity=EventEntity)
  2: 0x0030 [0x00] END_REQSTACK()
```

### Event 260

#### Metadata

| Field        | Value    |
|--------------|----------|
| Entrypoint   | 0x0031   |
| Data Size    | 12 bytes |
| Instructions | 3        |

```
      00 01 02 03 04 05 06 07  08 09 0A 0B 0C 0D 0E 0F
      -- -- -- -- -- -- -- --  -- -- -- -- -- -- -- --
0030:    92 01 F8 FF FF 7F 80  F8 FF FF 7F 00            ............   
```

#### Opcodes

```
  0: 0x0031 [0x92] EventEntity->Render.Flags3 ^= 0x01
  1: 0x0037 [0x80] LOAD_WAIT(entity=EventEntity)
  2: 0x003C [0x00] END_REQSTACK()
```

### Event 65535.1

#### Metadata

| Field        | Value   |
|--------------|---------|
| Entrypoint   | 0x003D  |
| Data Size    | 4 bytes |
| Instructions | 2       |

```
      00 01 02 03 04 05 06 07  08 09 0A 0B 0C 0D 0E 0F
      -- -- -- -- -- -- -- --  -- -- -- -- -- -- -- --
0030:                                         1C 02 10               ...
0040: 00                                                .               
```

#### Opcodes

```
  0: 0x003D [0x1C] WAIT(Work_Zone[2] ticks)
  1: 0x0040 [0x00] END_REQSTACK()
```

### Event 276

#### Metadata

| Field        | Value   |
|--------------|---------|
| Entrypoint   | 0x0041  |
| Data Size    | 1 bytes |
| Instructions | 1       |

```
      00 01 02 03 04 05 06 07  08 09 0A 0B 0C 0D 0E 0F
      -- -- -- -- -- -- -- --  -- -- -- -- -- -- -- --
0040:    00                                              .              
```

#### Opcodes

```
  0: 0x0041 [0x00] END_REQSTACK()
```

### Event 65535.2

#### Metadata

| Field        | Value    |
|--------------|----------|
| Entrypoint   | 0x0042   |
| Data Size    | 33 bytes |
| Instructions | 3        |

```
      00 01 02 03 04 05 06 07  08 09 0A 0B 0C 0D 0E 0F
      -- -- -- -- -- -- -- --  -- -- -- -- -- -- -- --
0040:       5F 03 00 80 86 C0  0F 01 86 C0 0F 01 78 78    _...........xx
0050: 78 78 5F 03 01 80 87 C0  0F 01 87 C0 0F 01 78 78  xx_...........xx
0060: 78 78 00                                          xx.             
```

#### Opcodes

```
  0: 0x0042 [0x5F] MULTI_HANDLER_COMPLEX(mode=0x03 - Load ext scheduler (OpCode 0x5B mode 0), ref=3859*, entity1=Iroha (ID: 17809542/0x010FC086), entity2=Iroha (ID: 17809542/0x010FC086), string="xxxx")
  1: 0x0052 [0x5F] MULTI_HANDLER_COMPLEX(mode=0x03 - Load ext scheduler (OpCode 0x5B mode 0), ref=3878*, entity1=??? (ID: 17809543/0x010FC087), entity2=??? (ID: 17809543/0x010FC087), string="xxxx")
  2: 0x0062 [0x00] END_REQSTACK()
```

### Event 277

#### Metadata

| Field        | Value   |
|--------------|---------|
| Entrypoint   | 0x0063  |
| Data Size    | 1 bytes |
| Instructions | 1       |

```
      00 01 02 03 04 05 06 07  08 09 0A 0B 0C 0D 0E 0F
      -- -- -- -- -- -- -- --  -- -- -- -- -- -- -- --
0060:          00                                          .            
```

#### Opcodes

```
  0: 0x0063 [0x00] END_REQSTACK()
```

### Event 65535.3

#### Metadata

| Field        | Value     |
|--------------|-----------|
| Entrypoint   | 0x0064    |
| Data Size    | 345 bytes |
| Instructions | 33        |

```
      00 01 02 03 04 05 06 07  08 09 0A 0B 0C 0D 0E 0F
      -- -- -- -- -- -- -- --  -- -- -- -- -- -- -- --
0060:             02 87 7F 02  80 80 8F 00 5F 04 03 80      ........_...
0070: F0 FF FF 7F F0 FF FF 7F  78 78 78 78 5F 03 01 80  ........xxxx_...
0080: 87 C0 0F 01 87 C0 0F 01  78 78 78 78 01 BC 01 02  ........xxxx....
0090: 87 7F 04 80 80 BA 00 5F  04 05 80 F0 FF FF 7F F0  ......._........
00A0: FF FF 7F 78 78 78 78 5F  03 01 80 87 C0 0F 01 87  ...xxxx_........
00B0: C0 0F 01 78 78 78 78 01  BC 01 02 87 7F 06 80 80  ...xxxx.........
00C0: E5 00 5F 04 07 80 F0 FF  FF 7F F0 FF FF 7F 78 78  .._...........xx
00D0: 78 78 5F 03 01 80 87 C0  0F 01 87 C0 0F 01 78 78  xx_...........xx
00E0: 78 78 01 BC 01 02 87 7F  08 80 80 10 01 5F 04 09  xx..........._..
00F0: 80 F0 FF FF 7F F0 FF FF  7F 78 78 78 78 5F 03 01  .........xxxx_..
0100: 80 87 C0 0F 01 87 C0 0F  01 78 78 78 78 01 BC 01  .........xxxx...
0110: 02 87 7F 0A 80 80 3B 01  5F 04 0B 80 F0 FF FF 7F  ......;._.......
0120: F0 FF FF 7F 78 78 78 78  5F 03 01 80 87 C0 0F 01  ....xxxx_.......
0130: 87 C0 0F 01 78 78 78 78  01 BC 01 02 87 7F 0C 80  ....xxxx........
0140: 80 66 01 5F 04 0B 80 F0  FF FF 7F F0 FF FF 7F 78  .f._...........x
0150: 78 78 78 5F 03 01 80 87  C0 0F 01 87 C0 0F 01 78  xxx_...........x
0160: 78 78 78 01 BC 01 02 87  7F 0D 80 80 91 01 5F 04  xxx..........._.
0170: 0E 80 F0 FF FF 7F F0 FF  FF 7F 78 78 78 78 5F 03  ..........xxxx_.
0180: 01 80 87 C0 0F 01 87 C0  0F 01 78 78 78 78 01 BC  ..........xxxx..
0190: 01 02 87 7F 0F 80 80 BC  01 5F 04 10 80 F0 FF FF  ........._......
01A0: 7F F0 FF FF 7F 78 78 78  78 5F 03 01 80 87 C0 0F  .....xxxx_......
01B0: 01 87 C0 0F 01 78 78 78  78 01 BC 01 00           .....xxxx....   
```

#### Opcodes

```
  0: 0x0064 [0x02] IF !(LocalPlayer->Race == 1*) GOTO 0x008F
  1: 0x006C [0x5F] MULTI_HANDLER_COMPLEX(mode=0x04 - Load ext scheduler (OpCode 0x5B mode 1), ref=141*, entity1=LocalPlayer, entity2=LocalPlayer, string="xxxx")
  2: 0x007C [0x5F] MULTI_HANDLER_COMPLEX(mode=0x03 - Load ext scheduler (OpCode 0x5B mode 0), ref=3878*, entity1=??? (ID: 17809543/0x010FC087), entity2=??? (ID: 17809543/0x010FC087), string="xxxx")
  3: 0x008C [0x01] GOTO 0x01BC
  4: 0x008F [0x02] IF !(LocalPlayer->Race == 2*) GOTO 0x00BA
  5: 0x0097 [0x5F] MULTI_HANDLER_COMPLEX(mode=0x04 - Load ext scheduler (OpCode 0x5B mode 1), ref=151*, entity1=LocalPlayer, entity2=LocalPlayer, string="xxxx")
  6: 0x00A7 [0x5F] MULTI_HANDLER_COMPLEX(mode=0x03 - Load ext scheduler (OpCode 0x5B mode 0), ref=3878*, entity1=??? (ID: 17809543/0x010FC087), entity2=??? (ID: 17809543/0x010FC087), string="xxxx")
  7: 0x00B7 [0x01] GOTO 0x01BC
  8: 0x00BA [0x02] IF !(LocalPlayer->Race == 3*) GOTO 0x00E5
  9: 0x00C2 [0x5F] MULTI_HANDLER_COMPLEX(mode=0x04 - Load ext scheduler (OpCode 0x5B mode 1), ref=161*, entity1=LocalPlayer, entity2=LocalPlayer, string="xxxx")
 10: 0x00D2 [0x5F] MULTI_HANDLER_COMPLEX(mode=0x03 - Load ext scheduler (OpCode 0x5B mode 0), ref=3878*, entity1=??? (ID: 17809543/0x010FC087), entity2=??? (ID: 17809543/0x010FC087), string="xxxx")
 11: 0x00E2 [0x01] GOTO 0x01BC
 12: 0x00E5 [0x02] IF !(LocalPlayer->Race == 4*) GOTO 0x0110
 13: 0x00ED [0x5F] MULTI_HANDLER_COMPLEX(mode=0x04 - Load ext scheduler (OpCode 0x5B mode 1), ref=171*, entity1=LocalPlayer, entity2=LocalPlayer, string="xxxx")
 14: 0x00FD [0x5F] MULTI_HANDLER_COMPLEX(mode=0x03 - Load ext scheduler (OpCode 0x5B mode 0), ref=3878*, entity1=??? (ID: 17809543/0x010FC087), entity2=??? (ID: 17809543/0x010FC087), string="xxxx")
 15: 0x010D [0x01] GOTO 0x01BC
 16: 0x0110 [0x02] IF !(LocalPlayer->Race == 5*) GOTO 0x013B
 17: 0x0118 [0x5F] MULTI_HANDLER_COMPLEX(mode=0x04 - Load ext scheduler (OpCode 0x5B mode 1), ref=181*, entity1=LocalPlayer, entity2=LocalPlayer, string="xxxx")
 18: 0x0128 [0x5F] MULTI_HANDLER_COMPLEX(mode=0x03 - Load ext scheduler (OpCode 0x5B mode 0), ref=3878*, entity1=??? (ID: 17809543/0x010FC087), entity2=??? (ID: 17809543/0x010FC087), string="xxxx")
 19: 0x0138 [0x01] GOTO 0x01BC
 20: 0x013B [0x02] IF !(LocalPlayer->Race == 6*) GOTO 0x0166
 21: 0x0143 [0x5F] MULTI_HANDLER_COMPLEX(mode=0x04 - Load ext scheduler (OpCode 0x5B mode 1), ref=181*, entity1=LocalPlayer, entity2=LocalPlayer, string="xxxx")
 22: 0x0153 [0x5F] MULTI_HANDLER_COMPLEX(mode=0x03 - Load ext scheduler (OpCode 0x5B mode 0), ref=3878*, entity1=??? (ID: 17809543/0x010FC087), entity2=??? (ID: 17809543/0x010FC087), string="xxxx")
 23: 0x0163 [0x01] GOTO 0x01BC
 24: 0x0166 [0x02] IF !(LocalPlayer->Race == 7*) GOTO 0x0191
 25: 0x016E [0x5F] MULTI_HANDLER_COMPLEX(mode=0x04 - Load ext scheduler (OpCode 0x5B mode 1), ref=191*, entity1=LocalPlayer, entity2=LocalPlayer, string="xxxx")
 26: 0x017E [0x5F] MULTI_HANDLER_COMPLEX(mode=0x03 - Load ext scheduler (OpCode 0x5B mode 0), ref=3878*, entity1=??? (ID: 17809543/0x010FC087), entity2=??? (ID: 17809543/0x010FC087), string="xxxx")
 27: 0x018E [0x01] GOTO 0x01BC
 28: 0x0191 [0x02] IF !(LocalPlayer->Race == 8*) GOTO 0x01BC
 29: 0x0199 [0x5F] MULTI_HANDLER_COMPLEX(mode=0x04 - Load ext scheduler (OpCode 0x5B mode 1), ref=201*, entity1=LocalPlayer, entity2=LocalPlayer, string="xxxx")
 30: 0x01A9 [0x5F] MULTI_HANDLER_COMPLEX(mode=0x03 - Load ext scheduler (OpCode 0x5B mode 0), ref=3878*, entity1=??? (ID: 17809543/0x010FC087), entity2=??? (ID: 17809543/0x010FC087), string="xxxx")
 31: 0x01B9 [0x01] GOTO 0x01BC

SUBROUTINE_01BC:
 32: 0x01BC [0x00] END_REQSTACK()
```
