# 17809410

## Common Data

| Field            | Value          |
|------------------|----------------|
| Zone             | Norg (ID: 252) |
| Block Size       | 304 bytes      |
| Total Events     | 10             |
| References Count | 18             |

## List of Events

| Event ID                 | Entrypoint   |   Size |   Instructions |
|--------------------------|--------------|--------|----------------|
| [65535](#event-65535)    | 0x0000       |      1 |              1 |
| [175](#event-175)        | 0x0001       |      1 |              1 |
| [0](#event-0)            | 0x0002       |      1 |              1 |
| [1](#event-1)            | 0x0003       |      1 |              1 |
| [65535.1](#event-655351) | 0x0004       |     21 |              3 |
| [65535.2](#event-655352) | 0x0019       |     12 |              3 |
| [65535.3](#event-655353) | 0x0025       |     36 |              4 |
| [65535.4](#event-655354) | 0x0049       |     44 |              6 |
| [65535.5](#event-655355) | 0x0075       |     28 |              8 |
| [65535.6](#event-655356) | 0x0091       |     28 |              8 |

## DAT References (imed_data)

|   Index | Hex Value   |   Dec Value |
|---------|-------------|-------------|
|       0 | 0x002D      |          45 |
|       1 | 0x00C8      |         200 |
|       2 | 0x0000      |           0 |
|       3 | 0xFFFFB179  |  4294947193 |
|       4 | 0xFFFF16CB  |  4294907595 |
|       5 | 0x008B      |         139 |
|       6 | 0x03EF      |        1007 |
|       7 | 0x010E      |         270 |
|       8 | 0x00C3      |         195 |
|       9 | 0x2764      |       10084 |
|      10 | 0x00E6      |         230 |
|      11 | 0x001E      |          30 |
|      12 | 0x00C2      |         194 |
|      13 | 0x0001      |           1 |
|      14 | 0x0054      |          84 |
|      15 | 0x00B4      |         180 |
|      16 | 0x00C1      |         193 |
|      17 | 0x0048      |          72 |

## Events

### Event 65535

#### Metadata

| Field        | Value   |
|--------------|---------|
| Entrypoint   | 0x0000  |
| Data Size    | 1 bytes |
| Instructions | 1       |

```
      00 01 02 03 04 05 06 07  08 09 0A 0B 0C 0D 0E 0F
      -- -- -- -- -- -- -- --  -- -- -- -- -- -- -- --
0000: 00                                                .               
```

#### Opcodes

```
  0: 0x0000 [0x00] END_REQSTACK()
```

### Event 175

#### Metadata

| Field        | Value   |
|--------------|---------|
| Entrypoint   | 0x0001  |
| Data Size    | 1 bytes |
| Instructions | 1       |

```
      00 01 02 03 04 05 06 07  08 09 0A 0B 0C 0D 0E 0F
      -- -- -- -- -- -- -- --  -- -- -- -- -- -- -- --
0000:    00                                              .              
```

#### Opcodes

```
  0: 0x0001 [0x00] END_REQSTACK()
```

### Event 0

#### Metadata

| Field        | Value   |
|--------------|---------|
| Entrypoint   | 0x0002  |
| Data Size    | 1 bytes |
| Instructions | 1       |

```
      00 01 02 03 04 05 06 07  08 09 0A 0B 0C 0D 0E 0F
      -- -- -- -- -- -- -- --  -- -- -- -- -- -- -- --
0000:       00                                            .             
```

#### Opcodes

```
  0: 0x0002 [0x00] END_REQSTACK()
```

### Event 1

#### Metadata

| Field        | Value   |
|--------------|---------|
| Entrypoint   | 0x0003  |
| Data Size    | 1 bytes |
| Instructions | 1       |

```
      00 01 02 03 04 05 06 07  08 09 0A 0B 0C 0D 0E 0F
      -- -- -- -- -- -- -- --  -- -- -- -- -- -- -- --
0000:          00                                          .            
```

#### Opcodes

```
  0: 0x0003 [0x00] END_REQSTACK()
```

### Event 65535.1

#### Metadata

| Field        | Value    |
|--------------|----------|
| Entrypoint   | 0x0004   |
| Data Size    | 21 bytes |
| Instructions | 3        |

```
      00 01 02 03 04 05 06 07  08 09 0A 0B 0C 0D 0E 0F
      -- -- -- -- -- -- -- --  -- -- -- -- -- -- -- --
0000:             1C 00 80 45  01 80 F0 FF FF 7F F0 FF      ...E........
0010: FF 7F 62 6C 6F 6E 02 80  00                       ..blon...       
```

#### Opcodes

```
  0: 0x0004 [0x1C] WAIT(45* ticks)
  1: 0x0007 [0x45] LOAD_SCHEDULED_TASK: Load scheduler "blon" with entities [LocalPlayer, LocalPlayer], work=[200*, 0*]
  2: 0x0018 [0x00] END_REQSTACK()
```

### Event 65535.2

#### Metadata

| Field        | Value    |
|--------------|----------|
| Entrypoint   | 0x0019   |
| Data Size    | 12 bytes |
| Instructions | 3        |

```
      00 01 02 03 04 05 06 07  08 09 0A 0B 0C 0D 0E 0F
      -- -- -- -- -- -- -- --  -- -- -- -- -- -- -- --
0010:                             22 00 37 03 80 04 80           ".7....
0020: 05 80 06 80 00                                    .....           
```

#### Opcodes

```
  0: 0x0019 [0x22] ENTITY_HIDE_FLAG(enabled=0x00)
  1: 0x001B [0x37] UPDATE_EVENT_POSITION_AND_DIR: x=-20.103*, z=-59.701*, y=0.139*, direction=88.5°*
  2: 0x0024 [0x00] END_REQSTACK()
```

### Event 65535.3

#### Metadata

| Field        | Value    |
|--------------|----------|
| Entrypoint   | 0x0025   |
| Data Size    | 36 bytes |
| Instructions | 4        |

```
      00 01 02 03 04 05 06 07  08 09 0A 0B 0C 0D 0E 0F
      -- -- -- -- -- -- -- --  -- -- -- -- -- -- -- --
0020:                1C 07 80  52 08 80 F0 FF FF 7F F0       ...R.......
0030: FF FF 7F 73 65 32 30 45  08 80 F0 FF FF 7F F0 FF  ...se20E........
0040: FF 7F 73 65 32 31 02 80  00                       ..se21...       
```

#### Opcodes

```
  0: 0x0025 [0x1C] WAIT(270* ticks)
  1: 0x0028 [0x52] END_LOAD_SCHEDULER: End scheduler "se20" with entities [LocalPlayer, LocalPlayer], work=195*
  2: 0x0037 [0x45] LOAD_SCHEDULED_TASK: Load scheduler "se21" with entities [LocalPlayer, LocalPlayer], work=[195*, 0*]
  3: 0x0048 [0x00] END_REQSTACK()
```

### Event 65535.4

#### Metadata

| Field        | Value    |
|--------------|----------|
| Entrypoint   | 0x0049   |
| Data Size    | 44 bytes |
| Instructions | 6        |

```
      00 01 02 03 04 05 06 07  08 09 0A 0B 0C 0D 0E 0F
      -- -- -- -- -- -- -- --  -- -- -- -- -- -- -- --
0040:                             2B 05 C0 0F 01 09 80           +......
0050: 23 55 0A 80 F0 FF FF 7F  F0 FF FF 7F 73 65 38 31  #U..........se81
0060: 1C 0B 80 45 0A 80 F0 FF  FF 7F F0 FF FF 7F 73 65  ...E..........se
0070: 38 32 02 80 00                                    82...           
```

#### Opcodes

```
  0: 0x0049 [0x2B] Lion (ID: 17809413/0x010FC005) [10084*]:
    → "Oh, no you don't!"
  1: 0x0050 [0x23] WAIT_FOR_DIALOG_INTERACTION
  2: 0x0051 [0x55] WAIT_LOAD_SCHEDULER: Wait for scheduler "se81" with entities [LocalPlayer, LocalPlayer], work=230*
  3: 0x0060 [0x1C] WAIT(30* ticks)
  4: 0x0063 [0x45] LOAD_SCHEDULED_TASK: Load scheduler "se82" with entities [LocalPlayer, LocalPlayer], work=[230*, 0*]
  5: 0x0074 [0x00] END_REQSTACK()
```

### Event 65535.5

#### Metadata

| Field        | Value    |
|--------------|----------|
| Entrypoint   | 0x0075   |
| Data Size    | 28 bytes |
| Instructions | 8        |

```
      00 01 02 03 04 05 06 07  08 09 0A 0B 0C 0D 0E 0F
      -- -- -- -- -- -- -- --  -- -- -- -- -- -- -- --
0070:                5C 00 0C  80 5C 01 0C 80 5C 02 0C       \...\...\..
0080: 80 5C 03 0C 80 5D 02 80  0D 80 9A 5D 0E 80 0F 80  .\...].....]....
0090: 00                                                .               
```

#### Opcodes

```
  0: 0x0075 [0x5C] MUSIC_CONTROL: Set Idle (Day) music to song 194*
  1: 0x0079 [0x5C] MUSIC_CONTROL: Set Idle (Night) music to song 194*
  2: 0x007D [0x5C] MUSIC_CONTROL: Set Combat (Solo) music to song 194*
  3: 0x0081 [0x5C] MUSIC_CONTROL: Set Combat (Party) music to song 194*
  4: 0x0085 [0x5D] SET_MUSIC_VOLUME(volume=0*, fade_time=1*)
  5: 0x008A [0x9A] WAIT_MUSIC_SERVER()
  6: 0x008B [0x5D] SET_MUSIC_VOLUME(volume=84*, fade_time=180*)
  7: 0x0090 [0x00] END_REQSTACK()
```

### Event 65535.6

#### Metadata

| Field        | Value    |
|--------------|----------|
| Entrypoint   | 0x0091   |
| Data Size    | 28 bytes |
| Instructions | 8        |

```
      00 01 02 03 04 05 06 07  08 09 0A 0B 0C 0D 0E 0F
      -- -- -- -- -- -- -- --  -- -- -- -- -- -- -- --
0090:    5C 00 10 80 5C 01 10  80 5C 02 10 80 5C 03 10   \...\...\...\..
00A0: 80 5D 02 80 0D 80 9A 5D  11 80 0F 80 00           .].....].....   
```

#### Opcodes

```
  0: 0x0091 [0x5C] MUSIC_CONTROL: Set Idle (Day) music to song 193*
  1: 0x0095 [0x5C] MUSIC_CONTROL: Set Idle (Night) music to song 193*
  2: 0x0099 [0x5C] MUSIC_CONTROL: Set Combat (Solo) music to song 193*
  3: 0x009D [0x5C] MUSIC_CONTROL: Set Combat (Party) music to song 193*
  4: 0x00A1 [0x5D] SET_MUSIC_VOLUME(volume=0*, fade_time=1*)
  5: 0x00A6 [0x9A] WAIT_MUSIC_SERVER()
  6: 0x00A7 [0x5D] SET_MUSIC_VOLUME(volume=72*, fade_time=180*)
  7: 0x00AC [0x00] END_REQSTACK()
```
