# 17809423 - Koetsu

## Common Data

| Field            | Value          |
|------------------|----------------|
| Zone             | Norg (ID: 252) |
| Block Size       | 508 bytes      |
| Total Events     | 9              |
| References Count | 32             |

## List of Events

| Event ID                 | Entrypoint   |   Size |   Instructions |
|--------------------------|--------------|--------|----------------|
| [65535](#event-65535)    | 0x0000       |      1 |              1 |
| [70](#event-70)          | 0x0001       |    234 |             37 |
| [175](#event-175)        | 0x00EB       |      1 |              1 |
| [0](#event-0)            | 0x00EC       |      1 |              1 |
| [1](#event-1)            | 0x00ED       |      1 |              1 |
| [65535.1](#event-655351) | 0x00EE       |     37 |             10 |
| [65535.2](#event-655352) | 0x0113       |     27 |              7 |
| [65535.3](#event-655353) | 0x012E       |     24 |              6 |
| [211](#event-211)        | 0x0146       |      1 |              1 |

## DAT References (imed_data)

|   Index | Hex Value   |   Dec Value |
|---------|-------------|-------------|
|       0 | 0x2877      |       10359 |
|       1 | 0x0000      |           0 |
|       2 | 0x000A      |          10 |
|       3 | 0x0014      |          20 |
|       4 | 0x001E      |          30 |
|       5 | 0x0028      |          40 |
|       6 | 0x0032      |          50 |
|       7 | 0x003C      |          60 |
|       8 | 0x0005      |           5 |
|       9 | 0x0050      |          80 |
|      10 | 0x00EE      |         238 |
|      11 | 0x0236      |         566 |
|      12 | 0x0838      |        2104 |
|      13 | 0x000B      |          11 |
|      14 | 0xFFFFD5C6  |  4294956486 |
|      15 | 0xFFFF4041  |  4294918209 |
|      16 | 0xFFFFFD4A  |  4294966602 |
|      17 | 0xFFFFC0A2  |  4294951074 |
|      18 | 0xFFFF3866  |  4294916198 |
|      19 | 0x0117      |         279 |
|      20 | 0x06C5      |        1733 |
|      21 | 0x0001      |           1 |
|      22 | 0xFFFFB3E1  |  4294947809 |
|      23 | 0xFFFF2FA6  |  4294913958 |
|      24 | 0x000D      |          13 |
|      25 | 0xFFFFC6A0  |  4294952608 |
|      26 | 0xFFFF3A7E  |  4294916734 |
|      27 | 0xFFFFFFFD  |  4294967293 |
|      28 | 0xFFFFE5DF  |  4294960607 |
|      29 | 0xFFFF4605  |  4294919685 |
|      30 | 0xFFFFFC35  |  4294966325 |
|      31 | 0x0D04      |        3332 |

## String References

- **10359**: You ever heard of those lantern-swingin', knife-wieldin' Tonberries? Travel to the old temple in the Yhoator Jungle and you'll get your fill of the little beasts.

## Events

### Event 65535

#### Metadata

| Field        | Value   |
|--------------|---------|
| Entrypoint   | 0x0000  |
| Data Size    | 1 bytes |
| Instructions | 1       |

```
      00 01 02 03 04 05 06 07  08 09 0A 0B 0C 0D 0E 0F
      -- -- -- -- -- -- -- --  -- -- -- -- -- -- -- --
0000: 00                                                .               
```

#### Opcodes

```
  0: 0x0000 [0x00] END_REQSTACK()
```

### Event 70

#### Metadata

| Field        | Value     |
|--------------|-----------|
| Entrypoint   | 0x0001    |
| Data Size    | 234 bytes |
| Instructions | 13        |

```
      00 01 02 03 04 05 06 07  08 09 0A 0B 0C 0D 0E 0F
      -- -- -- -- -- -- -- --  -- -- -- -- -- -- -- --
0000:    1A 0D 00 1A 1B 00 1D  00 80 23 21 00 86 00 F8   .........#!....
0010: FF FF 7F 1E F0 FF FF 7F  6F 70 1B 66 01 80 F8 FF  ........op.f....
0020: FF 7F F8 FF FF 7F 74 6C  6B 30 1B 66 01 80 F8 FF  ......tlk0.f....
0030: FF 7F F8 FF FF 7F 74 6C  6B 31 1B 66 02 80 F8 FF  ......tlk1.f....
0040: FF 7F F8 FF FF 7F 74 6C  6B 30 1B 66 03 80 F8 FF  ......tlk0.f....
0050: FF 7F F8 FF FF 7F 74 6C  6B 30 1B 66 04 80 F8 FF  ......tlk0.f....
0060: FF 7F F8 FF FF 7F 74 6C  6B 30 1B 66 05 80 F8 FF  ......tlk0.f....
0070: FF 7F F8 FF FF 7F 74 6C  6B 30 1B 66 06 80 F8 FF  ......tlk0.f....
0080: FF 7F F8 FF FF 7F 74 6C  6B 30 1B 66 07 80 F8 FF  ......tlk0.f....
0090: FF 7F F8 FF FF 7F 74 6C  6B 30 1B 5B 08 80 F8 FF  ......tlk0.[....
00A0: FF 7F F8 FF FF 7F 74 6C  6B 30 1B 5B 09 80 F8 FF  ......tlk0.[....
00B0: FF 7F F8 FF FF 7F 74 6C  6B 30 1B 5B 0A 80 F8 FF  ......tlk0.[....
00C0: FF 7F F8 FF FF 7F 74 6C  6B 30 1B 5B 0B 80 F8 FF  ......tlk0.[....
00D0: FF 7F F8 FF FF 7F 74 6C  6B 30 1B 5B 07 80 F8 FF  ......tlk0.[....
00E0: FF 7F F8 FF FF 7F 74 6C  62 30 1B                 ......tlb0.     
```

#### Opcodes

```
  0: 0x0001 [0x1A] CALL_SUBROUTINE(address=0x000D)
  1: 0x0004 [0x1A] CALL_SUBROUTINE(address=0x001B)
  2: 0x0007 [0x1D] PRINT_EVENT_MESSAGE(message_id=10359*)
    → "You ever heard of those lantern-swingin', knife-wieldin' Tonberries? Travel to the old temple in the Yhoator Jungle and you'll get your fill of the little beasts."
  3: 0x000A [0x23] WAIT_FOR_DIALOG_INTERACTION
  4: 0x000B [0x21] END_EVENT
  5: 0x000C [0x00] END_REQSTACK()

SUBROUTINE_000D:
  6: 0x000D [0x86] EventEntity->Render.Flags3 = Flags3  // No change (flag=0)
  7: 0x0013 [0x1E] EventEntity looks at LocalPlayer and starts talking
  8: 0x0018 [0x6F] WAIT_FRAME_DELAY: Yield until WaitTime reaches zero
  9: 0x0019 [0x70] WAIT_ENTITY_RENDER_FLAG: Wait while EventEntity->Render.Flags3 bit 2 is set (cancel turn if not)
 10: 0x001A [0x1B] RETURN

SUBROUTINE_001B:
 11: 0x001B [0x66] LOAD_EXT_SCHEDULER_MAIN: Load scheduler "tlk0" with entities [EventEntity, EventEntity], work=0*
 12: 0x002A [0x1B] RETURN
```

#### Data or dead code:

```
# Dead code (unreachable instructions):
     0x002B [0x66] LOAD_EXT_SCHEDULER_MAIN: Load scheduler "tlk1" with entities [EventEntity, EventEntity], work=0*
     0x003A [0x1B] RETURN
     0x003B [0x66] LOAD_EXT_SCHEDULER_MAIN: Load scheduler "tlk0" with entities [EventEntity, EventEntity], work=10*
     0x004A [0x1B] RETURN
     0x004B [0x66] LOAD_EXT_SCHEDULER_MAIN: Load scheduler "tlk0" with entities [EventEntity, EventEntity], work=20*
     0x005A [0x1B] RETURN
     0x005B [0x66] LOAD_EXT_SCHEDULER_MAIN: Load scheduler "tlk0" with entities [EventEntity, EventEntity], work=30*
     0x006A [0x1B] RETURN
     0x006B [0x66] LOAD_EXT_SCHEDULER_MAIN: Load scheduler "tlk0" with entities [EventEntity, EventEntity], work=40*
     0x007A [0x1B] RETURN
     0x007B [0x66] LOAD_EXT_SCHEDULER_MAIN: Load scheduler "tlk0" with entities [EventEntity, EventEntity], work=50*
     0x008A [0x1B] RETURN
     0x008B [0x66] LOAD_EXT_SCHEDULER_MAIN: Load scheduler "tlk0" with entities [EventEntity, EventEntity], work=60*
     0x009A [0x1B] RETURN
     0x009B [0x5B] LOAD_EXT_SCHEDULER: Load scheduler "tlk0" with entities [EventEntity, EventEntity], work=5*
     0x00AA [0x1B] RETURN
     0x00AB [0x5B] LOAD_EXT_SCHEDULER: Load scheduler "tlk0" with entities [EventEntity, EventEntity], work=80*
     0x00BA [0x1B] RETURN
     0x00BB [0x5B] LOAD_EXT_SCHEDULER: Load scheduler "tlk0" with entities [EventEntity, EventEntity], work=238*
     0x00CA [0x1B] RETURN
     0x00CB [0x5B] LOAD_EXT_SCHEDULER: Load scheduler "tlk0" with entities [EventEntity, EventEntity], work=566*
     0x00DA [0x1B] RETURN
     0x00DB [0x5B] LOAD_EXT_SCHEDULER: Load scheduler "tlb0" with entities [EventEntity, EventEntity], work=60*
     0x00EA [0x1B] RETURN
```

### Event 175

#### Metadata

| Field        | Value   |
|--------------|---------|
| Entrypoint   | 0x00EB  |
| Data Size    | 1 bytes |
| Instructions | 1       |

```
      00 01 02 03 04 05 06 07  08 09 0A 0B 0C 0D 0E 0F
      -- -- -- -- -- -- -- --  -- -- -- -- -- -- -- --
00E0:                                   00                         .    
```

#### Opcodes

```
  0: 0x00EB [0x00] END_REQSTACK()
```

### Event 0

#### Metadata

| Field        | Value   |
|--------------|---------|
| Entrypoint   | 0x00EC  |
| Data Size    | 1 bytes |
| Instructions | 1       |

```
      00 01 02 03 04 05 06 07  08 09 0A 0B 0C 0D 0E 0F
      -- -- -- -- -- -- -- --  -- -- -- -- -- -- -- --
00E0:                                      00                       .   
```

#### Opcodes

```
  0: 0x00EC [0x00] END_REQSTACK()
```

### Event 1

#### Metadata

| Field        | Value   |
|--------------|---------|
| Entrypoint   | 0x00ED  |
| Data Size    | 1 bytes |
| Instructions | 1       |

```
      00 01 02 03 04 05 06 07  08 09 0A 0B 0C 0D 0E 0F
      -- -- -- -- -- -- -- --  -- -- -- -- -- -- -- --
00E0:                                         00                     .  
```

#### Opcodes

```
  0: 0x00ED [0x00] END_REQSTACK()
```

### Event 65535.1

#### Metadata

| Field        | Value    |
|--------------|----------|
| Entrypoint   | 0x00EE   |
| Data Size    | 37 bytes |
| Instructions | 10       |

```
      00 01 02 03 04 05 06 07  08 09 0A 0B 0C 0D 0E 0F
      -- -- -- -- -- -- -- --  -- -- -- -- -- -- -- --
00E0:                                            4B F8                K.
00F0: FF FF 7F 0C 80 6F 70 79  00 F8 FF FF 7F F0 FF FF  .....opy........
0100: 7F 1C 07 80 32 0D 80 1F  00 0E 80 0F 80 10 80 1F  ....2...........
0110: 01 6F 00                                          .o.             
```

#### Opcodes

```
  0: 0x00EE [0x4B] UPDATE_ENTITY_YAW(entity=EventEntity, yaw=11.6°*)
  1: 0x00F5 [0x6F] WAIT_FRAME_DELAY: Yield until WaitTime reaches zero
  2: 0x00F6 [0x70] WAIT_ENTITY_RENDER_FLAG: Wait while EventEntity->Render.Flags3 bit 2 is set (cancel turn if not)
  3: 0x00F7 [0x79] EventEntity looks at LocalPlayer (Basic look)
  4: 0x0101 [0x1C] WAIT(60* ticks)
  5: 0x0104 [0x32] ExtData[1]->MainSpeed = 11* * 0.1
  6: 0x0107 [0x1F] MOVE_ENTITY: EventEntity moves to X=-10.810*, Z=-49.087*, Y=-0.694*
  7: 0x010F [0x1F] MOVE_ENTITY: Update entity position (mode=1)
  8: 0x0111 [0x6F] WAIT_FRAME_DELAY: Yield until WaitTime reaches zero
  9: 0x0112 [0x00] END_REQSTACK()
```

### Event 65535.2

#### Metadata

| Field        | Value    |
|--------------|----------|
| Entrypoint   | 0x0113   |
| Data Size    | 27 bytes |
| Instructions | 7        |

```
      00 01 02 03 04 05 06 07  08 09 0A 0B 0C 0D 0E 0F
      -- -- -- -- -- -- -- --  -- -- -- -- -- -- -- --
0110:          37 11 80 12 80  13 80 14 80 1C 15 80 32     7...........2
0120: 0D 80 1F 00 16 80 17 80  13 80 1F 01 6F 00        ............o.  
```

#### Opcodes

```
  0: 0x0113 [0x37] UPDATE_EVENT_POSITION_AND_DIR: x=-16.222*, z=-51.098*, y=0.279*, direction=152.3°*
  1: 0x011C [0x1C] WAIT(1* ticks)
  2: 0x011F [0x32] ExtData[1]->MainSpeed = 11* * 0.1
  3: 0x0122 [0x1F] MOVE_ENTITY: EventEntity moves to X=-19.487*, Z=-53.338*, Y=0.279*
  4: 0x012A [0x1F] MOVE_ENTITY: Update entity position (mode=1)
  5: 0x012C [0x6F] WAIT_FRAME_DELAY: Yield until WaitTime reaches zero
  6: 0x012D [0x00] END_REQSTACK()
```

### Event 65535.3

#### Metadata

| Field        | Value    |
|--------------|----------|
| Entrypoint   | 0x012E   |
| Data Size    | 24 bytes |
| Instructions | 6        |

```
      00 01 02 03 04 05 06 07  08 09 0A 0B 0C 0D 0E 0F
      -- -- -- -- -- -- -- --  -- -- -- -- -- -- -- --
0120:                                            32 18                2.
0130: 80 1F 00 19 80 1A 80 1B  80 1F 01 6F 37 1C 80 1D  ...........o7...
0140: 80 1E 80 1F 80 00                                 ......          
```

#### Opcodes

```
  0: 0x012E [0x32] ExtData[1]->MainSpeed = 13* * 0.1
  1: 0x0131 [0x1F] MOVE_ENTITY: EventEntity moves to X=-14.688*, Z=-50.562*, Y=-0.003*
  2: 0x0139 [0x1F] MOVE_ENTITY: Update entity position (mode=1)
  3: 0x013B [0x6F] WAIT_FRAME_DELAY: Yield until WaitTime reaches zero
  4: 0x013C [0x37] UPDATE_EVENT_POSITION_AND_DIR: x=-6.689*, z=-47.611*, y=-0.971*, direction=292.8°*
  5: 0x0145 [0x00] END_REQSTACK()
```

### Event 211

#### Metadata

| Field        | Value   |
|--------------|---------|
| Entrypoint   | 0x0146  |
| Data Size    | 1 bytes |
| Instructions | 1       |

```
      00 01 02 03 04 05 06 07  08 09 0A 0B 0C 0D 0E 0F
      -- -- -- -- -- -- -- --  -- -- -- -- -- -- -- --
0140:                   00                                    .         
```

#### Opcodes

```
  0: 0x0146 [0x00] END_REQSTACK()
```
