# 17809494 - Heiji

## Common Data

| Field            | Value          |
|------------------|----------------|
| Zone             | Norg (ID: 252) |
| Block Size       | 228 bytes      |
| Total Events     | 5              |
| References Count | 9              |

## List of Events

| Event ID              | Entrypoint   |   Size |   Instructions |
|-----------------------|--------------|--------|----------------|
| [65535](#event-65535) | 0x0000       |      1 |              1 |
| [122](#event-122)     | 0x0001       |     30 |              8 |
| [123](#event-123)     | 0x001F       |     58 |             14 |
| [124](#event-124)     | 0x0059       |     16 |              6 |
| [125](#event-125)     | 0x0069       |     51 |             11 |

## DAT References (imed_data)

|   Index | Hex Value   |   Dec Value |
|---------|-------------|-------------|
|       0 | 0x294B      |       10571 |
|       1 | 0x0000      |           0 |
|       2 | 0x294C      |       10572 |
|       3 | 0x37A2      |       14242 |
|       4 | 0x294D      |       10573 |
|       5 | 0x294E      |       10574 |
|       6 | 0x294F      |       10575 |
|       7 | 0x2950      |       10576 |
|       8 | 0x00C9      |         201 |

## String References

- **10571**: I am Heiji. I teach my young pupils the ways of the ninja.
- **10572**: The fundamentals of ninjutsu lie not in the arms and hands, but in the lower body.
- **10573**: My students must learn to utilize their lower body swiftly, precisely, and efficiently, even while under the binds of restricting equipment.
- **10574**: However, for training such as this, I require ten $7. If carrying so many at one time is a burden for you, feel free to bring them to me one at a time.
- **10575**: You have brought me $0 $0 so far. When you have brought me the tenth one, I will reward you nicely.
- **10576**: Yes, ten $7 at last. I may now continue my pupils' training. Here is the reward I promised you.

## Events

### Event 65535

#### Metadata

| Field        | Value   |
|--------------|---------|
| Entrypoint   | 0x0000  |
| Data Size    | 1 bytes |
| Instructions | 1       |

```
      00 01 02 03 04 05 06 07  08 09 0A 0B 0C 0D 0E 0F
      -- -- -- -- -- -- -- --  -- -- -- -- -- -- -- --
0000: 00                                                .               
```

#### Opcodes

```
  0: 0x0000 [0x00] END_REQSTACK()
```

### Event 122

#### Metadata

| Field        | Value    |
|--------------|----------|
| Entrypoint   | 0x0001   |
| Data Size    | 30 bytes |
| Instructions | 8        |

```
      00 01 02 03 04 05 06 07  08 09 0A 0B 0C 0D 0E 0F
      -- -- -- -- -- -- -- --  -- -- -- -- -- -- -- --
0000:    1E F0 FF FF 7F 1D 00  80 23 66 01 80 F8 FF FF   ........#f.....
0010: 7F F8 FF FF 7F 74 6C 6B  30 1D 02 80 23 21 00     .....tlk0...#!. 
```

#### Opcodes

```
  0: 0x0001 [0x1E] EventEntity looks at LocalPlayer and starts talking
  1: 0x0006 [0x1D] PRINT_EVENT_MESSAGE(message_id=10571*)
    → "I am Heiji. I teach my young pupils the ways of the ninja."
  2: 0x0009 [0x23] WAIT_FOR_DIALOG_INTERACTION
  3: 0x000A [0x66] LOAD_EXT_SCHEDULER_MAIN: Load scheduler "tlk0" with entities [EventEntity, EventEntity], work=0*
  4: 0x0019 [0x1D] PRINT_EVENT_MESSAGE(message_id=10572*)
    → "The fundamentals of ninjutsu lie not in the arms and hands, but in the lower body."
  5: 0x001C [0x23] WAIT_FOR_DIALOG_INTERACTION
  6: 0x001D [0x21] END_EVENT
  7: 0x001E [0x00] END_REQSTACK()
```

### Event 123

#### Metadata

| Field        | Value    |
|--------------|----------|
| Entrypoint   | 0x001F   |
| Data Size    | 58 bytes |
| Instructions | 14       |

```
      00 01 02 03 04 05 06 07  08 09 0A 0B 0C 0D 0E 0F
      -- -- -- -- -- -- -- --  -- -- -- -- -- -- -- --
0010:                                               03                 .
0020: 09 10 03 80 1E F0 FF FF  7F 1D 00 80 23 66 01 80  ............#f..
0030: F8 FF FF 7F F8 FF FF 7F  74 6C 6B 30 1D 02 80 23  ........tlk0...#
0040: 1D 04 80 23 66 01 80 F8  FF FF 7F F8 FF FF 7F 74  ...#f..........t
0050: 65 6E 30 1D 05 80 23 21  00                       en0...#!.       
```

#### Opcodes

```
  0: 0x001F [0x03] Work_Zone[9] = 14242*
  1: 0x0024 [0x1E] EventEntity looks at LocalPlayer and starts talking
  2: 0x0029 [0x1D] PRINT_EVENT_MESSAGE(message_id=10571*)
    → "I am Heiji. I teach my young pupils the ways of the ninja."
  3: 0x002C [0x23] WAIT_FOR_DIALOG_INTERACTION
  4: 0x002D [0x66] LOAD_EXT_SCHEDULER_MAIN: Load scheduler "tlk0" with entities [EventEntity, EventEntity], work=0*
  5: 0x003C [0x1D] PRINT_EVENT_MESSAGE(message_id=10572*)
    → "The fundamentals of ninjutsu lie not in the arms and hands, but in the lower body."
  6: 0x003F [0x23] WAIT_FOR_DIALOG_INTERACTION
  7: 0x0040 [0x1D] PRINT_EVENT_MESSAGE(message_id=10573*)
    → "My students must learn to utilize their lower body swiftly, precisely, and efficiently, even while under the binds of restricting equipment."
  8: 0x0043 [0x23] WAIT_FOR_DIALOG_INTERACTION
  9: 0x0044 [0x66] LOAD_EXT_SCHEDULER_MAIN: Load scheduler "ten0" with entities [EventEntity, EventEntity], work=0*
 10: 0x0053 [0x1D] PRINT_EVENT_MESSAGE(message_id=10574*)
    → "However, for training such as this, I require ten $7. If carrying so many at one time is a burden for you, feel free to bring them to me one at a time."
 11: 0x0056 [0x23] WAIT_FOR_DIALOG_INTERACTION
 12: 0x0057 [0x21] END_EVENT
 13: 0x0058 [0x00] END_REQSTACK()
```

### Event 124

#### Metadata

| Field        | Value    |
|--------------|----------|
| Entrypoint   | 0x0059   |
| Data Size    | 16 bytes |
| Instructions | 6        |

```
      00 01 02 03 04 05 06 07  08 09 0A 0B 0C 0D 0E 0F
      -- -- -- -- -- -- -- --  -- -- -- -- -- -- -- --
0050:                             03 09 10 03 80 1E F0           .......
0060: FF FF 7F 1D 06 80 23 21  00                       ......#!.       
```

#### Opcodes

```
  0: 0x0059 [0x03] Work_Zone[9] = 14242*
  1: 0x005E [0x1E] EventEntity looks at LocalPlayer and starts talking
  2: 0x0063 [0x1D] PRINT_EVENT_MESSAGE(message_id=10575*)
    → "You have brought me $0 $0 so far. When you have brought me the tenth one, I will reward you nicely."
  3: 0x0066 [0x23] WAIT_FOR_DIALOG_INTERACTION
  4: 0x0067 [0x21] END_EVENT
  5: 0x0068 [0x00] END_REQSTACK()
```

### Event 125

#### Metadata

| Field        | Value    |
|--------------|----------|
| Entrypoint   | 0x0069   |
| Data Size    | 51 bytes |
| Instructions | 11       |

```
      00 01 02 03 04 05 06 07  08 09 0A 0B 0C 0D 0E 0F
      -- -- -- -- -- -- -- --  -- -- -- -- -- -- -- --
0060:                             42 03 09 10 03 80 1E           B......
0070: F0 FF FF 7F 6F 70 66 01  80 F8 FF FF 7F F8 FF FF  ....opf.........
0080: 7F 70 61 73 30 1D 07 80  23 45 08 80 F0 FF FF 7F  .pas0...#E......
0090: F0 FF FF 7F 71 73 74 63  01 80 21 00              ....qstc..!.    
```

#### Opcodes

```
  0: 0x0069 [0x42] SET_CLI_EVENT_CANCEL_DATA()
  1: 0x006A [0x03] Work_Zone[9] = 14242*
  2: 0x006F [0x1E] EventEntity looks at LocalPlayer and starts talking
  3: 0x0074 [0x6F] WAIT_FRAME_DELAY: Yield until WaitTime reaches zero
  4: 0x0075 [0x70] WAIT_ENTITY_RENDER_FLAG: Wait while EventEntity->Render.Flags3 bit 2 is set (cancel turn if not)
  5: 0x0076 [0x66] LOAD_EXT_SCHEDULER_MAIN: Load scheduler "pas0" with entities [EventEntity, EventEntity], work=0*
  6: 0x0085 [0x1D] PRINT_EVENT_MESSAGE(message_id=10576*)
    → "Yes, ten $7 at last. I may now continue my pupils' training. Here is the reward I promised you."
  7: 0x0088 [0x23] WAIT_FOR_DIALOG_INTERACTION
  8: 0x0089 [0x45] LOAD_SCHEDULED_TASK: Load scheduler "qstc" with entities [LocalPlayer, LocalPlayer], work=[201*, 0*]
  9: 0x009A [0x21] END_EVENT
 10: 0x009B [0x00] END_REQSTACK()
```
