# 17809551 - Oseem

## Common Data

| Field            | Value          |
|------------------|----------------|
| Zone             | Norg (ID: 252) |
| Block Size       | 6544 bytes     |
| Total Events     | 7              |
| References Count | 457            |

## List of Events

| Event ID              | Entrypoint   |   Size |   Instructions |
|-----------------------|--------------|--------|----------------|
| [65535](#event-65535) | 0x0000       |      1 |              1 |
| [9504](#event-9504)   | 0x0001       |      5 |              3 |
| [9505](#event-9505)   | 0x0006       |      5 |              3 |
| [9506](#event-9506)   | 0x000B       |      5 |              3 |
| [9507](#event-9507)   | 0x0010       |      5 |              3 |
| [9508](#event-9508)   | 0x0015       |      5 |              3 |
| [9509](#event-9509)   | 0x001A       |   4644 |            970 |

## DAT References (imed_data)

|   Index | Hex Value   |   Dec Value |
|---------|-------------|-------------|
|       0 | 0x0000      |           0 |
|       1 | 0x3108      |       12552 |
|       2 | 0x2366      |        9062 |
|       3 | 0x3125      |       12581 |
|       4 | 0x0001      |           1 |
|       5 | 0x3123      |       12579 |
|       6 | 0x3126      |       12582 |
|       7 | 0x3127      |       12583 |
|       8 | 0x40000000  |  1073741824 |
|       9 | 0x0007      |           7 |
|      10 | 0x0009      |           9 |
|      11 | 0x0008      |           8 |
|      12 | 0x000F      |          15 |
|      13 | 0x3114      |       12564 |
|      14 | 0x3115      |       12565 |
|      15 | 0x3116      |       12566 |
|      16 | 0x0064      |         100 |
|      17 | 0x3117      |       12567 |
|      18 | 0x3109      |       12553 |
|      19 | 0x310A      |       12554 |
|      20 | 0x310D      |       12557 |
|      21 | 0x310E      |       12558 |
|      22 | 0x310F      |       12559 |
|      23 | 0x3110      |       12560 |
|      24 | 0x3111      |       12561 |
|      25 | 0x0002      |           2 |
|      26 | 0x3118      |       12568 |
|      27 | 0x3119      |       12569 |
|      28 | 0x0011      |          17 |
|      29 | 0x0012      |          18 |
|      30 | 0x0010      |          16 |
|      31 | 0x311A      |       12570 |
|      32 | 0x0003      |           3 |
|      33 | 0x311B      |       12571 |
|      34 | 0x311D      |       12573 |
|      35 | 0x0004      |           4 |
|      36 | 0x310C      |       12556 |
|      37 | 0x3112      |       12562 |
|      38 | 0x3113      |       12563 |
|      39 | 0x0017      |          23 |
|      40 | 0x23FA      |        9210 |
|      41 | 0x311E      |       12574 |
|      42 | 0x00FA      |         250 |
|      43 | 0x3128      |       12584 |
|      44 | 0x23FB      |        9211 |
|      45 | 0x23FC      |        9212 |
|      46 | 0x311F      |       12575 |
|      47 | 0x0018      |          24 |
|      48 | 0x001B      |          27 |
|      49 | 0x3121      |       12577 |
|      50 | 0x3120      |       12576 |
|      51 | 0x000A      |          10 |
|      52 | 0x001F      |          31 |
|      53 | 0x3129      |       12585 |
|      54 | 0x3122      |       12578 |
|      55 | 0x3124      |       12580 |
|      56 | 0x0006      |           6 |
|      57 | 0xFFFFFFFF  |  4294967295 |
|      58 | 0x0020      |          32 |
|      59 | 0x0005      |           5 |
|      60 | 0x0027      |          39 |
|      61 | 0x502C      |       20524 |
|      62 | 0x5078      |       20600 |
|      63 | 0x50E6      |       20710 |
|      64 | 0x54C3      |       21699 |
|      65 | 0x5141      |       20801 |
|      66 | 0x5170      |       20848 |
|      67 | 0x519F      |       20895 |
|      68 | 0x51CB      |       20939 |
|      69 | 0x51F7      |       20983 |
|      70 | 0x5227      |       21031 |
|      71 | 0x5264      |       21092 |
|      72 | 0x52A4      |       21156 |
|      73 | 0x52E0      |       21216 |
|      74 | 0x5319      |       21273 |
|      75 | 0x6BFA      |       27642 |
|      76 | 0x5397      |       21399 |
|      77 | 0x68A7      |       26791 |
|      78 | 0x6943      |       26947 |
|      79 | 0x69D9      |       27097 |
|      80 | 0x6A92      |       27282 |
|      81 | 0x6B41      |       27457 |
|      82 | 0x68A8      |       26792 |
|      83 | 0x6944      |       26948 |
|      84 | 0x69DA      |       27098 |
|      85 | 0x6A93      |       27283 |
|      86 | 0x6B42      |       27458 |
|      87 | 0x68A9      |       26793 |
|      88 | 0x6945      |       26949 |
|      89 | 0x69DB      |       27099 |
|      90 | 0x6A94      |       27284 |
|      91 | 0x6B43      |       27459 |
|      92 | 0x68AA      |       26794 |
|      93 | 0x6946      |       26950 |
|      94 | 0x69DC      |       27100 |
|      95 | 0x6A95      |       27285 |
|      96 | 0x6B44      |       27460 |
|      97 | 0x68AB      |       26795 |
|      98 | 0x6947      |       26951 |
|      99 | 0x69DD      |       27101 |
|     100 | 0x6A96      |       27286 |
|     101 | 0x6B45      |       27461 |
|     102 | 0x68AC      |       26796 |
|     103 | 0x6948      |       26952 |
|     104 | 0x69DE      |       27102 |
|     105 | 0x6A97      |       27287 |
|     106 | 0x6B46      |       27462 |
|     107 | 0x68AD      |       26797 |
|     108 | 0x6949      |       26953 |
|     109 | 0x69DF      |       27103 |
|     110 | 0x6A98      |       27288 |
|     111 | 0x6B47      |       27463 |
|     112 | 0x6409      |       25609 |
|     113 | 0x640A      |       25610 |
|     114 | 0x640B      |       25611 |
|     115 | 0x640C      |       25612 |
|     116 | 0x640D      |       25613 |
|     117 | 0x640E      |       25614 |
|     118 | 0x640F      |       25615 |
|     119 | 0x6410      |       25616 |
|     120 | 0x6411      |       25617 |
|     121 | 0x6412      |       25618 |
|     122 | 0x6452      |       25682 |
|     123 | 0x6453      |       25683 |
|     124 | 0x6454      |       25684 |
|     125 | 0x6455      |       25685 |
|     126 | 0x6456      |       25686 |
|     127 | 0x6457      |       25687 |
|     128 | 0x6458      |       25688 |
|     129 | 0x6459      |       25689 |
|     130 | 0x645A      |       25690 |
|     131 | 0x645B      |       25691 |
|     132 | 0x682C      |       26668 |
|     133 | 0x682D      |       26669 |
|     134 | 0x682E      |       26670 |
|     135 | 0x682F      |       26671 |
|     136 | 0x6830      |       26672 |
|     137 | 0x6831      |       26673 |
|     138 | 0x6832      |       26674 |
|     139 | 0x6833      |       26675 |
|     140 | 0x6834      |       26676 |
|     141 | 0x6835      |       26677 |
|     142 | 0x6836      |       26678 |
|     143 | 0x6837      |       26679 |
|     144 | 0x68DC      |       26844 |
|     145 | 0x68DD      |       26845 |
|     146 | 0x68DE      |       26846 |
|     147 | 0x68DF      |       26847 |
|     148 | 0x68E0      |       26848 |
|     149 | 0x68E1      |       26849 |
|     150 | 0x68E2      |       26850 |
|     151 | 0x68E3      |       26851 |
|     152 | 0x68E4      |       26852 |
|     153 | 0x68E5      |       26853 |
|     154 | 0x68E6      |       26854 |
|     155 | 0x68E7      |       26855 |
|     156 | 0x698C      |       27020 |
|     157 | 0x698D      |       27021 |
|     158 | 0x698E      |       27022 |
|     159 | 0x698F      |       27023 |
|     160 | 0x6990      |       27024 |
|     161 | 0x6991      |       27025 |
|     162 | 0x6992      |       27026 |
|     163 | 0x6993      |       27027 |
|     164 | 0x6994      |       27028 |
|     165 | 0x6995      |       27029 |
|     166 | 0x6996      |       27030 |
|     167 | 0x6997      |       27031 |
|     168 | 0x69E9      |       27113 |
|     169 | 0x69EA      |       27114 |
|     170 | 0x69EB      |       27115 |
|     171 | 0x69EC      |       27116 |
|     172 | 0x69ED      |       27117 |
|     173 | 0x69EE      |       27118 |
|     174 | 0x69EF      |       27119 |
|     175 | 0x69F0      |       27120 |
|     176 | 0x69F1      |       27121 |
|     177 | 0x69F2      |       27122 |
|     178 | 0x6A3C      |       27196 |
|     179 | 0x6A3D      |       27197 |
|     180 | 0x6A3E      |       27198 |
|     181 | 0x6A3F      |       27199 |
|     182 | 0x6A40      |       27200 |
|     183 | 0x6A41      |       27201 |
|     184 | 0x6A42      |       27202 |
|     185 | 0x6A43      |       27203 |
|     186 | 0x6A44      |       27204 |
|     187 | 0x6A45      |       27205 |
|     188 | 0x6A46      |       27206 |
|     189 | 0x6A47      |       27207 |
|     190 | 0x6AA2      |       27298 |
|     191 | 0x6AA3      |       27299 |
|     192 | 0x6AA4      |       27300 |
|     193 | 0x6AA5      |       27301 |
|     194 | 0x6AA6      |       27302 |
|     195 | 0x6AA7      |       27303 |
|     196 | 0x6AA8      |       27304 |
|     197 | 0x6AA9      |       27305 |
|     198 | 0x6AAA      |       27306 |
|     199 | 0x6AAB      |       27307 |
|     200 | 0x6AEC      |       27372 |
|     201 | 0x6AED      |       27373 |
|     202 | 0x6AEE      |       27374 |
|     203 | 0x6AEF      |       27375 |
|     204 | 0x6AF0      |       27376 |
|     205 | 0x6AF1      |       27377 |
|     206 | 0x6AF2      |       27378 |
|     207 | 0x6AF3      |       27379 |
|     208 | 0x6AF4      |       27380 |
|     209 | 0x6AF5      |       27381 |
|     210 | 0x6AF6      |       27382 |
|     211 | 0x6AF7      |       27383 |
|     212 | 0x6B4D      |       27469 |
|     213 | 0x6B4E      |       27470 |
|     214 | 0x6B4F      |       27471 |
|     215 | 0x6B50      |       27472 |
|     216 | 0x6B51      |       27473 |
|     217 | 0x6B52      |       27474 |
|     218 | 0x6B53      |       27475 |
|     219 | 0x6B54      |       27476 |
|     220 | 0x6B55      |       27477 |
|     221 | 0x6B56      |       27478 |
|     222 | 0x5027      |       20519 |
|     223 | 0x5028      |       20520 |
|     224 | 0x5075      |       20597 |
|     225 | 0x5076      |       20598 |
|     226 | 0x5077      |       20599 |
|     227 | 0x50DC      |       20700 |
|     228 | 0x50DD      |       20701 |
|     229 | 0x50DE      |       20702 |
|     230 | 0x513D      |       20797 |
|     231 | 0x516D      |       20845 |
|     232 | 0x519C      |       20892 |
|     233 | 0x51C9      |       20937 |
|     234 | 0x51F3      |       20979 |
|     235 | 0x5223      |       21027 |
|     236 | 0x525C      |       21084 |
|     237 | 0x525D      |       21085 |
|     238 | 0x529D      |       21149 |
|     239 | 0x529E      |       21150 |
|     240 | 0x529F      |       21151 |
|     241 | 0x52DF      |       21215 |
|     242 | 0x53EA      |       21482 |
|     243 | 0x54C2      |       21698 |
|     244 | 0x694C      |       26956 |
|     245 | 0x694D      |       26957 |
|     246 | 0x68AE      |       26798 |
|     247 | 0x68AF      |       26799 |
|     248 | 0x694A      |       26954 |
|     249 | 0x694B      |       26955 |
|     250 | 0x502D      |       20525 |
|     251 | 0x502E      |       20526 |
|     252 | 0x5079      |       20601 |
|     253 | 0x507A      |       20602 |
|     254 | 0x50E7      |       20711 |
|     255 | 0x50E8      |       20712 |
|     256 | 0x54C4      |       21700 |
|     257 | 0x54C5      |       21701 |
|     258 | 0x5142      |       20802 |
|     259 | 0x5143      |       20803 |
|     260 | 0x5171      |       20849 |
|     261 | 0x5172      |       20850 |
|     262 | 0x51A0      |       20896 |
|     263 | 0x51A1      |       20897 |
|     264 | 0x51CC      |       20940 |
|     265 | 0x51CD      |       20941 |
|     266 | 0x51F8      |       20984 |
|     267 | 0x51F9      |       20985 |
|     268 | 0x5228      |       21032 |
|     269 | 0x5229      |       21033 |
|     270 | 0x5265      |       21093 |
|     271 | 0x5266      |       21094 |
|     272 | 0x52A5      |       21157 |
|     273 | 0x52A6      |       21158 |
|     274 | 0x52E1      |       21217 |
|     275 | 0x52E2      |       21218 |
|     276 | 0x53E8      |       21480 |
|     277 | 0x53E9      |       21481 |
|     278 | 0x6BFB      |       27643 |
|     279 | 0x6BFC      |       27644 |
|     280 | 0x5398      |       21400 |
|     281 | 0x5399      |       21401 |
|     282 | 0x03E8      |        1000 |
|     283 | 0x0BB8      |        3000 |
|     284 | 0x1770      |        6000 |
|     285 | 0x2710      |       10000 |
|     286 | 0x3A98      |       15000 |
|     287 | 0x5208      |       21000 |
|     288 | 0x6D60      |       28000 |
|     289 | 0x8CA0      |       36000 |
|     290 | 0xAFC8      |       45000 |
|     291 | 0xD6D8      |       55000 |
|     292 | 0x101D0     |       66000 |
|     293 | 0x130B0     |       78000 |
|     294 | 0x16378     |       91000 |
|     295 | 0x19A28     |      105000 |
|     296 | 0x1D4C0     |      120000 |
|     297 | 0x237C      |        9084 |
|     298 | 0x237D      |        9085 |
|     299 | 0x237E      |        9086 |
|     300 | 0x0032      |          50 |
|     301 | 0x07D0      |        2000 |
|     302 | 0x000C      |          12 |
|     303 | 0x6428      |       25640 |
|     304 | 0x6474      |       25716 |
|     305 | 0x6A02      |       27138 |
|     306 | 0x64F0      |       25840 |
|     307 | 0x6B66      |       27494 |
|     308 | 0x6429      |       25641 |
|     309 | 0x6475      |       25717 |
|     310 | 0x6A03      |       27139 |
|     311 | 0x64F1      |       25841 |
|     312 | 0x6B67      |       27495 |
|     313 | 0x642A      |       25642 |
|     314 | 0x6476      |       25718 |
|     315 | 0x6A04      |       27140 |
|     316 | 0x64F2      |       25842 |
|     317 | 0x6B68      |       27496 |
|     318 | 0x642B      |       25643 |
|     319 | 0x6477      |       25719 |
|     320 | 0x6A05      |       27141 |
|     321 | 0x64F3      |       25843 |
|     322 | 0x6B69      |       27497 |
|     323 | 0x642C      |       25644 |
|     324 | 0x6478      |       25720 |
|     325 | 0x6A06      |       27142 |
|     326 | 0x64F4      |       25844 |
|     327 | 0x6B6A      |       27498 |
|     328 | 0x5019      |       20505 |
|     329 | 0x5063      |       20579 |
|     330 | 0x50C5      |       20677 |
|     331 | 0x54B6      |       21686 |
|     332 | 0x54F2      |       21746 |
|     333 | 0x54FA      |       21754 |
|     334 | 0x552C      |       21804 |
|     335 | 0x555E      |       21854 |
|     336 | 0x5590      |       21904 |
|     337 | 0x521D      |       21021 |
|     338 | 0x5250      |       21072 |
|     339 | 0x5626      |       22054 |
|     340 | 0x5661      |       22113 |
|     341 | 0x5676      |       22134 |
|     342 | 0x000B      |          11 |
|     343 | 0x000D      |          13 |
|     344 | 0x000E      |          14 |
|     345 | 0x128D      |        4749 |
|     346 | 0x12BD      |        4797 |
|     347 | 0x12BE      |        4798 |
|     348 | 0x12BF      |        4799 |
|     349 | 0x12C0      |        4800 |
|     350 | 0x12C1      |        4801 |
|     351 | 0x12C2      |        4802 |
|     352 | 0x12C3      |        4803 |
|     353 | 0x12C4      |        4804 |
|     354 | 0x12C5      |        4805 |
|     355 | 0x12C6      |        4806 |
|     356 | 0x12C7      |        4807 |
|     357 | 0x12C8      |        4808 |
|     358 | 0x12C9      |        4809 |
|     359 | 0x12CA      |        4810 |
|     360 | 0x6427      |       25639 |
|     361 | 0x1054      |        4180 |
|     362 | 0x105B      |        4187 |
|     363 | 0x107E      |        4222 |
|     364 | 0x1085      |        4229 |
|     365 | 0x10A8      |        4264 |
|     366 | 0x10AF      |        4271 |
|     367 | 0x10B6      |        4278 |
|     368 | 0x10BD      |        4285 |
|     369 | 0x10FC      |        4348 |
|     370 | 0x1103      |        4355 |
|     371 | 0x1126      |        4390 |
|     372 | 0x112D      |        4397 |
|     373 | 0x1153      |        4435 |
|     374 | 0x1158      |        4440 |
|     375 | 0x1171      |        4465 |
|     376 | 0x1176      |        4470 |
|     377 | 0x118F      |        4495 |
|     378 | 0x1194      |        4500 |
|     379 | 0x11AD      |        4525 |
|     380 | 0x11BC      |        4540 |
|     381 | 0x11C1      |        4545 |
|     382 | 0x11DA      |        4570 |
|     383 | 0x11E9      |        4585 |
|     384 | 0x11F8      |        4600 |
|     385 | 0x1207      |        4615 |
|     386 | 0x1216      |        4630 |
|     387 | 0x1225      |        4645 |
|     388 | 0x122A      |        4650 |
|     389 | 0x1243      |        4675 |
|     390 | 0x1248      |        4680 |
|     391 | 0x1261      |        4705 |
|     392 | 0x1270      |        4720 |
|     393 | 0x1062      |        4194 |
|     394 | 0x1069      |        4201 |
|     395 | 0x108C      |        4236 |
|     396 | 0x1093      |        4243 |
|     397 | 0x10C4      |        4292 |
|     398 | 0x10CB      |        4299 |
|     399 | 0x10D2      |        4306 |
|     400 | 0x10D9      |        4313 |
|     401 | 0x110A      |        4362 |
|     402 | 0x1111      |        4369 |
|     403 | 0x1134      |        4404 |
|     404 | 0x113B      |        4411 |
|     405 | 0x115D      |        4445 |
|     406 | 0x1162      |        4450 |
|     407 | 0x117B      |        4475 |
|     408 | 0x1180      |        4480 |
|     409 | 0x1199      |        4505 |
|     410 | 0x119E      |        4510 |
|     411 | 0x11B2      |        4530 |
|     412 | 0x11C6      |        4550 |
|     413 | 0x11CB      |        4555 |
|     414 | 0x11DF      |        4575 |
|     415 | 0x11EE      |        4590 |
|     416 | 0x11FD      |        4605 |
|     417 | 0x120C      |        4620 |
|     418 | 0x121B      |        4635 |
|     419 | 0x122F      |        4655 |
|     420 | 0x1234      |        4660 |
|     421 | 0x124D      |        4685 |
|     422 | 0x1252      |        4690 |
|     423 | 0x1266      |        4710 |
|     424 | 0x1275      |        4725 |
|     425 | 0x1070      |        4208 |
|     426 | 0x1077      |        4215 |
|     427 | 0x109A      |        4250 |
|     428 | 0x10A1      |        4257 |
|     429 | 0x10E0      |        4320 |
|     430 | 0x10E7      |        4327 |
|     431 | 0x10EE      |        4334 |
|     432 | 0x10F5      |        4341 |
|     433 | 0x1118      |        4376 |
|     434 | 0x111F      |        4383 |
|     435 | 0x1142      |        4418 |
|     436 | 0x1149      |        4425 |
|     437 | 0x1167      |        4455 |
|     438 | 0x116C      |        4460 |
|     439 | 0x1185      |        4485 |
|     440 | 0x118A      |        4490 |
|     441 | 0x11A3      |        4515 |
|     442 | 0x11A8      |        4520 |
|     443 | 0x11B7      |        4535 |
|     444 | 0x11D0      |        4560 |
|     445 | 0x11D5      |        4565 |
|     446 | 0x11E4      |        4580 |
|     447 | 0x11F3      |        4595 |
|     448 | 0x1202      |        4610 |
|     449 | 0x1211      |        4625 |
|     450 | 0x1220      |        4640 |
|     451 | 0x1239      |        4665 |
|     452 | 0x123E      |        4670 |
|     453 | 0x1257      |        4695 |
|     454 | 0x125C      |        4700 |
|     455 | 0x126B      |        4715 |
|     456 | 0x127A      |        4730 |

## String References

- **12552**: Sorry, friend! We're still setting up things here. Why don't you come by again later?
- **12553**: Welcome, welcome! Step right up and exchange your escha silt for the awesome power of these rare and exquisite arcane glyptics!
- **12554**: Inquire about what? [Nothing./Engraving arcane glyptics./Equipment eligible for arcane glyptics./Materials required for arcane glyptics./Details on arcane glyptics.]
- **12556**: Those clever smiths from the West have been engraving their weapons with these glyptics for generations. You gotta figure, if it's worth doing for generations, it's probably still worth doing now, am I right?
- **12557**: Just trade me the necessary ingredients and I'll be happy as a clam to engrave the glyptic to your equipment.
- **12558**: I'll store and process all the ingredients right here in preparation for the engraving.
- **12559**: I'll just need to charge a small handling fee of $1 silt for each ingredient you trade to me.
- **12560**: But since I love my customers oh so very much, I'll engrave the glyptic on your equipment for squat-diddly free! That's right!
- **12561**: Just trade me your equipment after you've traded me the ingredients and I'll have your new and augmented equipment ready before you can say "glypta-mazing"!
- **12562**: Some equipment can take multiple glyptics, so keep that in mind!
- **12563**: I'll be sure to tell you which glyptics can go on the piece of equipment you trade to me, so don't worry about remembering each one!
- **12564**: Yikes-aroonies! Where did you get such a fine grade of this? At this level of purity I can probably start cutting and setting right away...amazing......
- **12565**: ...Uh, sorry, I must have zoned out for a second there. This is excellent material! No processing should be necessary!
- **12566**: If you'd like me to engrave and arcane glyptic for you, just trade me the piece of equipment along with the $1!
- **12567**: I'll need some special tools to work with this, however, so this will require a special handling fee of $1 silt.
- **12568**: I can engrave the following pieces of equipment. Isn't it amazing!
- **12570**: Sure thing! any $33 can be augmented with my super-duper arcane glyptics!
- **12571**: I just need the following ingredients and I'll have you covered in more glyptics than you can shake a fish at!
- **12573**: Right now, I've got $" $0! in storage. Great!
- **12574**: For just $1 silt, I'll take [that/those] $3 $0 off your hands. I currently have $0 in storage!
- **12575**: Okie-dokie, friend! I'll take your $1 and engrave it right away!
- **12577**: What type of glyptic will you choose? [None of these./Melee./Ranged./Magic./Familiar./Healing./Techniques.]
- **12578**: Okie-dokie! Here goes! Your $1 will now be engraved with the [melee/ranged/magic/familiar/healing] arcane glyptic!
- **12580**: Engrave another glyptic? [No, we're done here./Choose another glyptic./The same glyptic ($1 time[/s] remaining).]
- **12581**: You got it! I'll just take this $1 and $2 and ready them for engraving! Isn't life wonderful?
- **12582**: Are you sure you want to keep this $2's [original/new] glyptic?
- **12584**: Sorry, friend. I can't store anymore $1. There's only so much I can fit into these crates. Try again after you've spent some on engravings. And remember to smile!
- **12585**: Then let me imbue your $1 with some special techniques.

## Events

### Event 65535

#### Metadata

| Field        | Value   |
|--------------|---------|
| Entrypoint   | 0x0000  |
| Data Size    | 1 bytes |
| Instructions | 1       |

```
      00 01 02 03 04 05 06 07  08 09 0A 0B 0C 0D 0E 0F
      -- -- -- -- -- -- -- --  -- -- -- -- -- -- -- --
0000: 00                                                .               
```

#### Opcodes

```
  0: 0x0000 [0x00] END_REQSTACK()
```

### Event 9504

#### Metadata

| Field        | Value   |
|--------------|---------|
| Entrypoint   | 0x0001  |
| Data Size    | 5 bytes |
| Instructions | 3       |

```
      00 01 02 03 04 05 06 07  08 09 0A 0B 0C 0D 0E 0F
      -- -- -- -- -- -- -- --  -- -- -- -- -- -- -- --
0000:    1A 1F 00 21 00                                  ...!.          
```

#### Opcodes

```
  0: 0x0001 [0x1A] CALL_SUBROUTINE(address=0x001F)
  1: 0x0004 [0x21] END_EVENT
  2: 0x0005 [0x00] END_REQSTACK()
```

### Event 9505

#### Metadata

| Field        | Value   |
|--------------|---------|
| Entrypoint   | 0x0006  |
| Data Size    | 5 bytes |
| Instructions | 3       |

```
      00 01 02 03 04 05 06 07  08 09 0A 0B 0C 0D 0E 0F
      -- -- -- -- -- -- -- --  -- -- -- -- -- -- -- --
0000:                   1A 49  00 21 00                       .I.!.     
```

#### Opcodes

```
  0: 0x0006 [0x1A] CALL_SUBROUTINE(address=0x0049)
  1: 0x0009 [0x21] END_EVENT
  2: 0x000A [0x00] END_REQSTACK()
```

### Event 9506

#### Metadata

| Field        | Value   |
|--------------|---------|
| Entrypoint   | 0x000B  |
| Data Size    | 5 bytes |
| Instructions | 3       |

```
      00 01 02 03 04 05 06 07  08 09 0A 0B 0C 0D 0E 0F
      -- -- -- -- -- -- -- --  -- -- -- -- -- -- -- --
0000:                                   1A 4D 00 21 00             .M.!.
```

#### Opcodes

```
  0: 0x000B [0x1A] CALL_SUBROUTINE(address=0x004D)
  1: 0x000E [0x21] END_EVENT
  2: 0x000F [0x00] END_REQSTACK()
```

### Event 9507

#### Metadata

| Field        | Value   |
|--------------|---------|
| Entrypoint   | 0x0010  |
| Data Size    | 5 bytes |
| Instructions | 3       |

```
      00 01 02 03 04 05 06 07  08 09 0A 0B 0C 0D 0E 0F
      -- -- -- -- -- -- -- --  -- -- -- -- -- -- -- --
0010: 1A 51 00 21 00                                    .Q.!.           
```

#### Opcodes

```
  0: 0x0010 [0x1A] CALL_SUBROUTINE(address=0x0051)
  1: 0x0013 [0x21] END_EVENT
  2: 0x0014 [0x00] END_REQSTACK()
```

### Event 9508

#### Metadata

| Field        | Value   |
|--------------|---------|
| Entrypoint   | 0x0015  |
| Data Size    | 5 bytes |
| Instructions | 3       |

```
      00 01 02 03 04 05 06 07  08 09 0A 0B 0C 0D 0E 0F
      -- -- -- -- -- -- -- --  -- -- -- -- -- -- -- --
0010:                1A 55 00  21 00                         .U.!.      
```

#### Opcodes

```
  0: 0x0015 [0x1A] CALL_SUBROUTINE(address=0x0055)
  1: 0x0018 [0x21] END_EVENT
  2: 0x0019 [0x00] END_REQSTACK()
```

### Event 9509

#### Metadata

| Field        | Value      |
|--------------|------------|
| Entrypoint   | 0x001A     |
| Data Size    | 4644 bytes |
| Instructions | 19         |

```
      00 01 02 03 04 05 06 07  08 09 0A 0B 0C 0D 0E 0F
      -- -- -- -- -- -- -- --  -- -- -- -- -- -- -- --
0010:                                1A 57 01 21 00 1E            .W.!..
0020: F0 FF FF 7F 6F 70 66 00  80 F8 FF FF 7F F8 FF FF  ....opf.........
0030: 7F 74 6C 6B 30 1D 01 80  23 66 00 80 F8 FF FF 7F  .tlk0...#f......
0040: F8 FF FF 7F 74 65 6E 30  1B 1A 7F 01 1B 1A 85 03  ....ten0........
0050: 1B 1A 64 04 1B 42 1E F0  FF FF 7F 6F 70 1A 1F 0A  ..d..B.....op...
0060: 1A 79 08 03 03 10 29 00  03 04 10 02 80 1D 03 80  .y....).........
0070: 23 06 00 00 05 04 00 02  02 00 00 80 00 56 01 D4  #............V..
0080: 05 00 80 29 00 15 00 16  00 17 00 D4 05 04 80 29  ...)...........)
0090: 00 18 00 19 00 1A 00 D4  02 05 80 04 00 00 80 25  ...............%
00A0: 02 00 10 00 80 00 AB 00  01 AB 00 03 04 00 00 10  ................
00B0: 03 03 10 04 00 03 04 10  29 00 1D 06 80 23 02 04  ........)....#..
00C0: 00 00 80 80 E1 00 D4 05  00 80 29 00 15 00 16 00  ..........).....
00D0: 17 00 D4 05 04 80 29 00  15 00 16 00 17 00 01 04  ......).........
00E0: 01 02 04 00 04 80 80 04  01 D4 05 00 80 29 00 18  .............)..
00F0: 00 19 00 1A 00 D4 05 04  80 29 00 18 00 19 00 1A  .........)......
0100: 00 01 04 01 D4 02 07 80  04 80 00 80 25 02 00 10  ............%...
0110: 00 80 00 48 01 02 04 00  00 80 80 25 01 03 01 10  ...H.......%....
0120: 08 80 01 42 01 02 04 00  04 80 80 42 01 40 00 80  ...B.......B.@..
0130: 09 80 01 10 0A 80 40 0B  80 0C 80 01 10 00 80 01  ......@.........
0140: 42 01 05 02 00 01 53 01  02 00 10 04 80 00 53 01  B.....S.......S.
0150: 01 53 01 01 77 00 1B 42  1E F0 FF FF 7F 6F 70 1D  .S..w..B.....op.
0160: 0D 80 23 1D 0E 80 23 03  03 10 02 80 1D 0F 80 23  ..#...#........#
0170: 03 03 10 10 80 1D 11 80  23 03 01 10 00 80 1B 1E  ........#.......
0180: F0 FF FF 7F 6F 70 1A 1F  0A 1A 4A 08 1D 12 80 23  ....op....J....#
0190: 06 00 00 02 02 00 00 80  00 84 03 24 13 80 04 00  ...........$....
01A0: 00 00 25 02 00 10 00 80  00 B6 01 03 01 10 08 80  ..%.............
01B0: 05 02 00 01 B6 01 03 04  00 00 10 02 02 00 00 80  ................
01C0: 00 81 03 02 04 00 04 80  80 E7 01 1D 14 80 23 1D  ..............#.
01D0: 15 80 23 03 03 10 10 80  1D 16 80 23 1D 17 80 23  ..#........#...#
01E0: 1D 18 80 23 01 81 03 02  04 00 19 80 80 98 02 1D  ...#............
01F0: 1A 80 23 06 05 00 06 03  00 06 14 00 02 03 00 00  ..#.............
0200: 80 00 95 02 1A CD 08 D4  02 1B 80 05 00 01 00 25  ...............%
0210: 02 00 10 00 80 00 1E 02  05 03 00 01 42 02 02 00  ............B...
0220: 10 1C 80 00 34 02 02 14  00 00 80 02 31 02 0C 14  ....4.......1...
0230: 00 01 42 02 02 00 10 1D  80 00 42 02 0B 14 00 01  ..B.......B.....
0240: 42 02 03 05 00 00 10 02  05 00 1C 80 80 55 02 06  B............U..
0250: 05 00 01 63 02 02 05 00  1D 80 80 63 02 06 05 00  ...c.......c....
0260: 01 63 02 02 05 00 00 80  01 92 02 06 09 00 03 09  .c..............
0270: 00 14 00 14 09 00 1E 80  07 09 00 05 00 0C 09 00  ................
0280: 9D 00 9E 0F 19 17 09 00  93 19 17 1D 1F 80 23 93  ..............#.
0290: 00 80 01 FC 01 01 81 03  02 04 00 20 80 80 51 03  ........... ..Q.
02A0: 1D 21 80 23 06 05 00 06  03 00 06 14 00 02 03 00  .!.#............
02B0: 00 80 00 4E 03 1A 76 09  D4 02 1B 80 05 00 01 00  ...N..v.........
02C0: 25 02 00 10 00 80 00 CF  02 05 03 00 01 F3 02 02  %...............
02D0: 00 10 1C 80 00 E5 02 02  14 00 00 80 02 E2 02 0C  ................
02E0: 14 00 01 F3 02 02 00 10  1D 80 00 F3 02 0B 14 00  ................
02F0: 01 F3 02 03 05 00 00 10  02 05 00 1C 80 80 06 03  ................
0300: 06 05 00 01 14 03 02 05  00 1D 80 80 14 03 06 05  ................
0310: 00 01 14 03 02 05 00 00  80 01 4B 03 06 09 00 03  ..........K.....
0320: 09 00 14 00 14 09 00 1E  80 07 09 00 05 00 0C 09  ................
0330: 00 9D 00 8E 10 19 17 09  00 9D 00 9E 0A 1A 17 09  ................
0340: 00 93 19 17 48 22 80 23  93 00 80 01 AD 02 01 81  ....H".#........
0350: 03 02 04 00 23 80 80 81  03 1D 24 80 23 1D 14 80  ....#.....$.#...
0360: 23 1D 15 80 23 03 03 10  10 80 1D 16 80 23 1D 17  #...#........#..
0370: 80 23 1D 18 80 23 1D 25  80 23 1D 26 80 23 01 81  .#...#.%.#.&.#..
0380: 03 01 93 01 1B 42 1E F0  FF FF 7F 6F 70 03 1E 00  .....B.....op...
0390: 02 10 03 1B 00 03 10 03  1C 00 04 10 03 1D 00 05  ................
03A0: 10 41 00 80 09 80 1E 00  1F 00 41 0B 80 0C 80 1E  .A........A.....
03B0: 00 20 00 41 1E 80 27 80  1E 00 21 00 02 1B 00 00  . .A..'...!.....
03C0: 80 02 F2 03 03 02 10 1F  00 03 03 10 1B 00 14 03  ................
03D0: 10 10 80 03 04 10 28 80  03 05 10 1B 00 1D 29 80  ......(.......).
03E0: 23 02 1F 00 2A 80 00 F2  03 03 03 10 28 80 1D 2B  #...*.......(..+
03F0: 80 23 02 1C 00 00 80 02  28 04 03 02 10 20 00 03  .#......(.... ..
0400: 03 10 1C 00 14 03 10 10  80 03 04 10 2C 80 03 05  ............,...
0410: 10 1C 00 1D 29 80 23 02  20 00 2A 80 00 28 04 03  ....).#. .*..(..
0420: 03 10 2C 80 1D 2B 80 23  02 1D 00 00 80 02 5E 04  ..,..+.#......^.
0430: 03 02 10 21 00 03 03 10  1D 00 14 03 10 10 80 03  ...!............
0440: 04 10 2D 80 03 05 10 1D  00 1D 29 80 23 02 21 00  ..-.......).#.!.
0450: 2A 80 00 5E 04 03 03 10  2D 80 1D 2B 80 23 03 01  *..^....-..+.#..
0460: 10 08 80 1B 42 1A 1F 0A  1A 79 08 03 03 10 29 00  ....B....y....).
0470: 1D 2E 80 23 41 2F 80 30  80 1E 00 2C 00 06 02 00  ...#A/.0...,....
0480: 06 04 00 02 02 00 00 80  00 BC 04 1A F7 06 24 31  ..............$1
0490: 80 04 00 00 00 25 02 00  10 00 80 00 A9 04 03 01  .....%..........
04A0: 10 08 80 05 02 00 01 A9  04 03 04 00 00 10 02 04  ................
04B0: 00 00 80 02 B9 04 1A BD  04 01 83 04 1B 06 03 00  ................
04C0: 06 05 00 02 03 00 00 80  00 00 05 1A 93 07 03 02  ................
04D0: 10 04 00 0C 02 10 D4 02  32 80 05 00 01 00 25 02  ........2.....%.
04E0: 00 10 00 80 00 ED 04 05  03 00 01 ED 04 03 05 00  ................
04F0: 00 10 02 05 00 00 80 02  FD 04 1A 01 05 01 C3 04  ................
0500: 1B 06 24 00 06 26 00 03  26 00 04 80 02 24 00 00  ..$..&..&....$..
0510: 80 00 AF 06 03 03 10 29  00 03 04 10 04 00 0C 04  .......)........
0520: 10 03 09 00 05 00 0C 09  00 9D 00 8E 10 05 10 09  ................
0530: 00 02 05 10 02 80 00 45  05 40 00 80 09 80 01 10  .......E.@......
0540: 33 80 01 4E 05 40 00 80  09 80 01 10 0B 80 40 0B  3..N.@........@.
0550: 80 0C 80 01 10 04 10 40  1E 80 34 80 01 10 09 00  .......@..4.....
0560: 02 05 10 02 80 00 6F 05  1D 35 80 23 01 73 05 1D  ......o..5.#.s..
0570: 36 80 23 43 00 43 01 1A  79 08 41 2F 80 30 80 1E  6.#C.C..y.A/.0..
0580: 00 2C 00 06 27 00 05 23  00 02 27 00 00 80 00 AC  .,..'..#..'.....
0590: 06 05 27 00 D4 05 00 80  29 00 15 00 16 00 17 00  ..'.....).......
05A0: D4 05 04 80 29 00 18 00  19 00 1A 00 D4 02 05 80  ....)...........
05B0: 23 00 00 80 25 02 00 10  00 80 00 C0 05 01 C0 05  #...%...........
05C0: 03 23 00 00 10 03 03 10  23 00 03 04 10 29 00 1D  .#......#....)..
05D0: 06 80 23 02 23 00 00 80  80 F6 05 D4 05 00 80 29  ..#.#..........)
05E0: 00 15 00 16 00 17 00 D4  05 04 80 29 00 15 00 16  ...........)....
05F0: 00 17 00 01 19 06 02 23  00 04 80 80 19 06 D4 05  .......#........
0600: 00 80 29 00 18 00 19 00  1A 00 D4 05 04 80 29 00  ..)...........).
0610: 18 00 19 00 1A 00 01 19  06 D4 02 07 80 04 80 00  ................
0620: 80 25 02 00 10 00 80 00  9B 06 02 23 00 00 80 80  .%.........#....
0630: 72 06 1A B0 06 24 37 80  26 00 25 00 25 02 00 10  r....$7.&.%.%...
0640: 00 80 00 56 06 05 24 00  05 03 00 05 02 00 03 01  ...V..$.........
0650: 10 08 80 01 6F 06 02 00  10 04 80 00 64 06 05 24  ....o.......d..$
0660: 00 01 6F 06 02 00 10 19  80 00 6F 06 01 6F 06 01  ..o.......o..o..
0670: 98 06 02 23 00 04 80 80  98 06 40 00 80 09 80 01  ...#......@.....
0680: 10 0A 80 40 0B 80 0C 80  01 10 00 80 05 24 00 05  ...@.........$..
0690: 03 00 05 02 00 01 98 06  01 A9 06 02 00 10 04 80  ................
06A0: 00 A9 06 06 27 00 01 A9  06 01 89 05 01 0C 05 1B  ....'...........
06B0: 06 25 00 02 1F 00 00 80  00 D9 06 02 20 00 00 80  .%.......... ...
06C0: 00 D9 06 02 21 00 00 80  00 D9 06 02 2C 00 00 80  ....!.......,...
06D0: 00 D9 06 03 25 00 38 80  1B 03 09 00 05 00 0C 09  ....%.8.........
06E0: 00 9D 00 9E 0A 03 10 09  00 02 03 10 00 80 00 F6  ................
06F0: 06 03 25 00 23 80 1B 1A  44 0A 06 0E 00 03 00 00  ..%.#...D.......
0700: 39 80 02 0E 00 3A 80 03  2F 07 9D 00 FE 10 13 00  9....:../.......
0710: 0E 00 02 13 00 28 00 00  29 07 9D 00 3E 11 0F 00  .....(..)...>...
0720: 0E 00 3D 00 00 0F 00 04  80 0B 0E 00 01 02 07 41  ..=............A
0730: 2F 80 30 80 1E 00 2C 00  02 0E 00 3A 80 00 8D 07  /.0...,....:....
0740: 02 2C 00 00 80 00 52 07  3C 00 00 3B 80 04 80 01  .,....R.<..;....
0750: 59 07 3D 00 00 3B 80 04  80 41 00 80 27 80 1E 00  Y.=..;...A..'...
0760: 2C 00 02 2C 00 00 80 00  8D 07 3C 00 00 00 80 04  ,..,......<.....
0770: 80 3C 00 00 04 80 04 80  3C 00 00 19 80 04 80 3C  .<......<......<
0780: 00 00 20 80 04 80 3C 00  00 23 80 04 80 10 00 00  .. ...<..#......
0790: 04 80 1B 1A 44 0A 06 0E  00 06 01 00 02 0E 00 20  ....D.......... 
07A0: 80 03 E9 07 03 09 00 0E  00 07 09 00 1E 80 9D 00  ................
07B0: 8E 10 10 00 0E 00 9D 05  5E 0A 10 00 0E 00 9D 00  ........^.......
07C0: 9E 0A 0F 00 0E 00 9D 05  5E 0A 0F 00 09 00 02 0F  ........^.......
07D0: 00 00 80 00 DD 07 3C 01  00 0E 00 04 80 0B 0E 00  ......<.........
07E0: D4 03 0E 00 10 00 01 9C  07 41 2F 80 30 80 1E 00  .........A/.0...
07F0: 2C 00 02 0E 00 20 80 00  44 08 02 04 00 38 80 00  ,.... ..D....8..
0800: 3D 08 3C 01 00 00 80 04  80 3C 01 00 04 80 04 80  =.<......<......
0810: 3C 01 00 19 80 04 80 02  2C 00 00 80 00 2E 08 03  <.......,.......
0820: 0C 17 00 80 3C 01 00 20  80 04 80 01 3A 08 03 0C  ....<.. ....:...
0830: 17 2C 00 3D 01 00 20 80  04 80 01 44 08 3C 01 00  .,.=.. ....D.<..
0840: 20 80 04 80 10 01 00 04  80 1B 03 1E 00 02 10 03   ...............
0850: 2B 00 03 10 41 00 80 09  80 1E 00 1F 00 41 0B 80  +...A........A..
0860: 0C 80 1E 00 20 00 41 1E  80 27 80 1E 00 21 00 41  .... .A..'...!.A
0870: 2F 80 30 80 1E 00 2C 00  1B 03 1E 00 02 10 03 2A  /.0...,........*
0880: 00 03 10 03 15 00 04 10  03 16 00 05 10 03 17 00  ................
0890: 06 10 03 18 00 07 10 03  19 00 08 10 03 1A 00 09  ................
08A0: 10 41 00 80 09 80 1E 00  1F 00 41 0B 80 0C 80 1E  .A........A.....
08B0: 00 20 00 41 1E 80 27 80  1E 00 21 00 9D 00 9E 0F  . .A..'...!.....
08C0: 29 00 2A 00 9D 00 EE 0F  28 00 2A 00 1B 1A 44 0A  ).*.....(.*...D.
08D0: 06 0E 00 06 0C 00 06 11  00 06 12 00 06 0F 00 03  ................
08E0: 12 00 14 00 0B 12 00 14  12 00 1E 80 02 12 00 3C  ...............<
08F0: 80 04 FE 08 3F 12 00 3C  80 1E 80 01 03 09 03 12  ....?..<........
0900: 00 1E 80 02 0E 00 12 00  03 36 09 03 0F 00 14 00  .........6......
0910: 14 0F 00 1E 80 07 0F 00  0E 00 9D 00 9E 0F 10 00  ................
0920: 0F 00 9D 05 5E 0A 10 00  0E 00 0B 0E 00 D4 03 0E  ....^...........
0930: 00 10 00 01 03 09 06 0E  00 06 01 00 40 12 00 34  ............@..4
0940: 80 01 00 39 80 10 01 00  04 80 03 12 00 14 00 0B  ...9............
0950: 12 00 14 12 00 1E 80 02  14 00 00 80 02 66 09 3D  .............f.=
0960: 01 00 1C 80 04 80 02 12  00 3C 80 03 75 09 3D 01  .........<..u.=.
0970: 00 1D 80 04 80 1B 1A 44  0A 06 0E 00 06 0C 00 06  .......D........
0980: 11 00 06 12 00 06 0F 00  03 12 00 14 00 0B 12 00  ................
0990: 14 12 00 1E 80 02 12 00  20 80 04 A7 09 3F 12 00  ........ ....?..
09A0: 20 80 1E 80 01 AC 09 03  12 00 1E 80 02 0E 00 12   ...............
09B0: 00 03 DF 09 03 0F 00 14  00 14 0F 00 1E 80 07 0F  ................
09C0: 00 0E 00 9D 00 8E 10 10  00 0F 00 9D 05 5E 0A 10  .............^..
09D0: 00 0E 00 0B 0E 00 D4 03  0E 00 10 00 01 AC 09 06  ................
09E0: 0E 00 06 01 00 40 12 00  34 80 01 00 39 80 10 01  .....@..4...9...
09F0: 00 04 80 03 12 00 14 00  0B 12 00 14 12 00 1E 80  ................
0A00: 02 14 00 00 80 02 0F 0A  3D 01 00 1C 80 04 80 02  ........=.......
0A10: 12 00 20 80 03 1E 0A 3D  01 00 1D 80 04 80 1B 06  .. ....=........
0A20: 00 00 06 01 00 06 02 00  06 04 00 06 14 00 06 15  ................
0A30: 00 06 16 00 06 17 00 06  18 00 06 19 00 06 1A 00  ................
0A40: 06 2C 00 1B 06 0E 00 02  0E 00 3A 80 03 5D 0A 9D  .,........:..]..
0A50: 05 5E 0A 00 80 0E 00 0B  0E 00 01 47 0A 1B 03 10  .^.........G....
0A60: 04 10 05 10 06 10 07 10  08 10 09 10 00 17 01 17  ................
0A70: 02 17 03 17 04 17 05 17  06 17 07 17 08 17 09 17  ................
0A80: 0A 17 0B 17 0C 17 0D 17  0E 17 0F 17 10 17 11 17  ................
0A90: 12 17 13 17 14 17 15 17  16 17 17 17 18 17 1F 00  ................
0AA0: 20 00 21 00 2C 00 00 80  00 80 00 80 00 80 3D 80   .!.,.........=.
0AB0: 3E 80 3F 80 40 80 41 80  42 80 43 80 44 80 45 80  >.?.@.A.B.C.D.E.
0AC0: 46 80 47 80 48 80 49 80  4A 80 4B 80 4C 80 4D 80  F.G.H.I.J.K.L.M.
0AD0: 4E 80 4F 80 50 80 51 80  52 80 53 80 54 80 55 80  N.O.P.Q.R.S.T.U.
0AE0: 56 80 57 80 58 80 59 80  5A 80 5B 80 5C 80 5D 80  V.W.X.Y.Z.[.\.].
0AF0: 5E 80 5F 80 60 80 61 80  62 80 63 80 64 80 65 80  ^._.`.a.b.c.d.e.
0B00: 66 80 67 80 68 80 69 80  6A 80 6B 80 6C 80 6D 80  f.g.h.i.j.k.l.m.
0B10: 6E 80 6F 80 70 80 71 80  72 80 73 80 74 80 75 80  n.o.p.q.r.s.t.u.
0B20: 76 80 77 80 78 80 79 80  7A 80 7B 80 7C 80 7D 80  v.w.x.y.z.{.|.}.
0B30: 7E 80 7F 80 80 80 81 80  82 80 83 80 84 80 85 80  ~...............
0B40: 86 80 87 80 88 80 89 80  8A 80 8B 80 8C 80 8D 80  ................
0B50: 8E 80 8F 80 90 80 91 80  92 80 93 80 94 80 95 80  ................
0B60: 96 80 97 80 98 80 99 80  9A 80 9B 80 9C 80 9D 80  ................
0B70: 9E 80 9F 80 A0 80 A1 80  A2 80 A3 80 A4 80 A5 80  ................
0B80: A6 80 A7 80 A8 80 A9 80  AA 80 AB 80 AC 80 AD 80  ................
0B90: AE 80 AF 80 B0 80 B1 80  B2 80 B3 80 B4 80 B5 80  ................
0BA0: B6 80 B7 80 B8 80 B9 80  BA 80 BB 80 BC 80 BD 80  ................
0BB0: BE 80 BF 80 C0 80 C1 80  C2 80 C3 80 C4 80 C5 80  ................
0BC0: C6 80 C7 80 C8 80 C9 80  CA 80 CB 80 CC 80 CD 80  ................
0BD0: CE 80 CF 80 D0 80 D1 80  D2 80 D3 80 D4 80 D5 80  ................
0BE0: D6 80 D7 80 D8 80 D9 80  DA 80 DB 80 DC 80 DD 80  ................
0BF0: DE 80 DF 80 E0 80 E1 80  E2 80 E3 80 E4 80 E5 80  ................
0C00: E6 80 E7 80 E8 80 E9 80  EA 80 EB 80 EC 80 ED 80  ................
0C10: EE 80 EF 80 F0 80 F1 80  F2 80 F3 80 00 80 10 80  ................
0C20: 10 80 10 80 10 80 10 80  10 80 10 80 10 80 10 80  ................
0C30: 10 80 10 80 10 80 10 80  10 80 10 80 10 80 10 80  ................
0C40: 10 80 10 80 10 80 10 80  10 80 10 80 10 80 10 80  ................
0C50: 10 80 10 80 10 80 10 80  10 80 10 80 10 80 10 80  ................
0C60: 10 80 10 80 10 80 10 80  10 80 10 80 10 80 10 80  ................
0C70: 10 80 10 80 10 80 10 80  10 80 10 80 10 80 10 80  ................
0C80: 10 80 10 80 10 80 10 80  10 80 10 80 10 80 10 80  ................
0C90: 10 80 10 80 10 80 10 80  10 80 10 80 10 80 10 80  ................
0CA0: 10 80 10 80 10 80 10 80  10 80 10 80 10 80 10 80  ................
0CB0: 10 80 10 80 10 80 10 80  10 80 10 80 10 80 10 80  ................
0CC0: 10 80 10 80 10 80 10 80  10 80 10 80 10 80 10 80  ................
0CD0: 10 80 10 80 10 80 10 80  10 80 10 80 10 80 10 80  ................
0CE0: 10 80 10 80 10 80 10 80  10 80 10 80 10 80 10 80  ................
0CF0: 10 80 10 80 10 80 10 80  10 80 10 80 10 80 10 80  ................
0D00: 10 80 10 80 10 80 10 80  10 80 10 80 10 80 10 80  ................
0D10: 10 80 10 80 10 80 10 80  10 80 10 80 10 80 10 80  ................
0D20: 10 80 10 80 10 80 10 80  10 80 10 80 10 80 10 80  ................
0D30: 10 80 10 80 10 80 10 80  10 80 10 80 10 80 10 80  ................
0D40: 10 80 10 80 10 80 10 80  10 80 10 80 10 80 10 80  ................
0D50: 10 80 10 80 10 80 10 80  10 80 10 80 10 80 10 80  ................
0D60: 10 80 10 80 10 80 10 80  10 80 10 80 10 80 10 80  ................
0D70: 10 80 10 80 10 80 10 80  10 80 10 80 10 80 10 80  ................
0D80: 10 80 10 80 10 80 10 80  10 80 10 80 00 80 04 80  ................
0D90: 04 80 04 80 04 80 04 80  04 80 04 80 04 80 04 80  ................
0DA0: 04 80 04 80 04 80 04 80  04 80 04 80 04 80 04 80  ................
0DB0: 04 80 04 80 04 80 04 80  04 80 04 80 04 80 04 80  ................
0DC0: 04 80 04 80 04 80 04 80  04 80 04 80 04 80 04 80  ................
0DD0: 04 80 04 80 04 80 04 80  04 80 04 80 04 80 04 80  ................
0DE0: 04 80 04 80 04 80 04 80  04 80 04 80 04 80 04 80  ................
0DF0: 04 80 04 80 04 80 04 80  04 80 04 80 04 80 04 80  ................
0E00: 04 80 04 80 04 80 04 80  04 80 04 80 04 80 04 80  ................
0E10: 04 80 04 80 04 80 04 80  04 80 04 80 04 80 04 80  ................
0E20: 04 80 04 80 04 80 04 80  04 80 04 80 04 80 04 80  ................
0E30: 04 80 04 80 04 80 04 80  04 80 04 80 04 80 04 80  ................
0E40: 04 80 04 80 04 80 04 80  04 80 04 80 04 80 04 80  ................
0E50: 04 80 04 80 04 80 04 80  04 80 04 80 04 80 04 80  ................
0E60: 04 80 04 80 04 80 04 80  04 80 04 80 04 80 04 80  ................
0E70: 04 80 04 80 04 80 04 80  04 80 04 80 04 80 04 80  ................
0E80: 04 80 04 80 04 80 04 80  04 80 04 80 04 80 04 80  ................
0E90: 04 80 04 80 04 80 04 80  04 80 04 80 04 80 04 80  ................
0EA0: 04 80 04 80 04 80 04 80  04 80 04 80 04 80 04 80  ................
0EB0: 04 80 04 80 04 80 04 80  04 80 04 80 04 80 04 80  ................
0EC0: 04 80 04 80 04 80 04 80  04 80 04 80 04 80 04 80  ................
0ED0: 04 80 04 80 04 80 04 80  04 80 04 80 04 80 04 80  ................
0EE0: 04 80 04 80 04 80 04 80  04 80 04 80 04 80 04 80  ................
0EF0: 04 80 04 80 04 80 04 80  04 80 04 80 00 80 F4 80  ................
0F00: F5 80 F6 80 F7 80 F8 80  F9 80 FA 80 FB 80 FC 80  ................
0F10: FD 80 FE 80 FF 80 00 81  01 81 02 81 03 81 04 81  ................
0F20: 05 81 06 81 07 81 08 81  09 81 0A 81 0B 81 0C 81  ................
0F30: 0D 81 0E 81 0F 81 10 81  11 81 12 81 13 81 14 81  ................
0F40: 15 81 16 81 17 81 18 81  19 81 00 80 00 80 1A 81  ................
0F50: 1B 81 1C 81 1D 81 1E 81  1F 81 20 81 21 81 22 81  .......... .!.".
0F60: 23 81 24 81 25 81 26 81  27 81 28 81 00 80 29 81  #.$.%.&.'.(...).
0F70: 2A 81 2B 81 00 80 00 80  00 80 00 80 00 80 33 80  *.+...........3.
0F80: 2C 81 2D 81 00 80 00 80  00 80 00 80 00 80 2E 81  ,.-.............
0F90: 2E 81 2E 81 00 80 00 80  00 80 00 80 00 80 2F 81  ............../.
0FA0: 30 81 31 81 32 81 33 81  34 81 35 81 36 81 37 81  0.1.2.3.4.5.6.7.
0FB0: 38 81 39 81 3A 81 3B 81  3C 81 3D 81 3E 81 3F 81  8.9.:.;.<.=.>.?.
0FC0: 40 81 41 81 42 81 43 81  44 81 45 81 46 81 47 81  @.A.B.C.D.E.F.G.
0FD0: 48 81 49 81 4A 81 4B 81  4C 81 4D 81 4E 81 4F 81  H.I.J.K.L.M.N.O.
0FE0: 50 81 51 81 52 81 53 81  54 81 55 81 00 80 00 80  P.Q.R.S.T.U.....
0FF0: 00 80 00 80 00 80 00 80  04 80 04 80 04 80 04 80  ................
1000: 04 80 19 80 19 80 19 80  19 80 19 80 20 80 20 80  ............ . .
1010: 20 80 20 80 20 80 23 80  23 80 23 80 23 80 23 80   . . .#.#.#.#.#.
1020: 3B 80 38 80 09 80 0B 80  0A 80 33 80 56 81 2E 81  ;.8.......3.V...
1030: 57 81 58 81 0C 80 1E 80  1C 80 1D 80 00 80 59 81  W.X...........Y.
1040: 59 81 59 81 59 81 59 81  59 81 59 81 59 81 59 81  Y.Y.Y.Y.Y.Y.Y.Y.
1050: 59 81 59 81 59 81 59 81  59 81 59 81 59 81 59 81  Y.Y.Y.Y.Y.Y.Y.Y.
1060: 59 81 59 81 59 81 59 81  59 81 59 81 59 81 59 81  Y.Y.Y.Y.Y.Y.Y.Y.
1070: 5A 81 5B 81 5C 81 5D 81  5E 81 5F 81 60 81 61 81  Z.[.\.].^._.`.a.
1080: 62 81 63 81 64 81 65 81  66 81 67 81 00 80 28 80  b.c.d.e.f.g...(.
1090: 2C 80 2D 80 02 80 00 80  00 80 00 80 00 80 68 81  ,.-...........h.
10A0: 30 81 31 81 32 81 33 81  2F 81 35 81 36 81 37 81  0.1.2.3./.5.6.7.
10B0: 38 81 34 81 3A 81 3B 81  3C 81 3D 81 39 81 3F 81  8.4.:.;.<.=.9.?.
10C0: 40 81 41 81 42 81 3E 81  44 81 45 81 46 81 47 81  @.A.B.>.D.E.F.G.
10D0: 00 80 00 80 00 80 00 80  00 80 00 80 00 80 48 81  ..............H.
10E0: 49 81 4A 81 4B 81 4C 81  4D 81 4E 81 4F 81 50 81  I.J.K.L.M.N.O.P.
10F0: 51 81 52 81 53 81 54 81  55 81 00 80 00 80 00 80  Q.R.S.T.U.......
1100: 00 80 04 80 04 80 19 80  19 80 19 80 19 80 20 80  .............. .
1110: 20 80 23 80 23 80 3B 80  3B 80 38 80 38 80 09 80   .#.#.;.;.8.8...
1120: 09 80 0B 80 0A 80 0A 80  33 80 56 81 2E 81 57 81  ........3.V...W.
1130: 58 81 0C 80 0C 80 1E 80  1E 80 1C 80 1D 80 00 80  X...............
1140: 19 80 00 80 20 80 00 80  04 80 19 80 20 80 19 80  .... ....... ...
1150: 20 80 00 80 23 80 00 80  20 80 00 80 19 80 00 80   ...#... .......
1160: 19 80 00 80 00 80 20 80  00 80 00 80 00 80 00 80  ...... .........
1170: 00 80 00 80 19 80 19 80  20 80 04 80 04 80 69 81  ........ .....i.
1180: 6A 81 6B 81 6C 81 6D 81  6E 81 6F 81 70 81 71 81  j.k.l.m.n.o.p.q.
1190: 72 81 73 81 74 81 75 81  76 81 77 81 78 81 79 81  r.s.t.u.v.w.x.y.
11A0: 7A 81 7B 81 7C 81 7D 81  7E 81 7F 81 80 81 81 81  z.{.|.}.~.......
11B0: 82 81 83 81 84 81 85 81  86 81 87 81 88 81 89 81  ................
11C0: 8A 81 8B 81 8C 81 8D 81  8E 81 8F 81 90 81 91 81  ................
11D0: 92 81 93 81 94 81 95 81  96 81 97 81 98 81 99 81  ................
11E0: 9A 81 9B 81 9C 81 9D 81  9E 81 9F 81 A0 81 A1 81  ................
11F0: A2 81 A3 81 A4 81 A5 81  A6 81 A7 81 A8 81 A9 81  ................
1200: AA 81 AB 81 AC 81 AD 81  AE 81 AF 81 B0 81 B1 81  ................
1210: B2 81 B3 81 B4 81 B5 81  B6 81 B7 81 B8 81 B9 81  ................
1220: BA 81 BB 81 BC 81 BD 81  BE 81 BF 81 C0 81 C1 81  ................
1230: C2 81 C3 81 C4 81 C5 81  C6 81 C7 81 C8 81        ..............  
```

#### Opcodes

```
  0: 0x001A [0x1A] CALL_SUBROUTINE(address=0x0157)
  1: 0x001D [0x21] END_EVENT
  2: 0x001E [0x00] END_REQSTACK()

SUBROUTINE_0157:
  3: 0x0157 [0x42] SET_CLI_EVENT_CANCEL_DATA()
  4: 0x0158 [0x1E] EventEntity looks at LocalPlayer and starts talking
  5: 0x015D [0x6F] WAIT_FRAME_DELAY: Yield until WaitTime reaches zero
  6: 0x015E [0x70] WAIT_ENTITY_RENDER_FLAG: Wait while EventEntity->Render.Flags3 bit 2 is set (cancel turn if not)
  7: 0x015F [0x1D] PRINT_EVENT_MESSAGE(message_id=12564*)
    → "Yikes-aroonies! Where did you get such a fine grade of this? At this level of purity I can probably start cutting and setting right away...amazing......"
  8: 0x0162 [0x23] WAIT_FOR_DIALOG_INTERACTION
  9: 0x0163 [0x1D] PRINT_EVENT_MESSAGE(message_id=12565*)
    → "...Uh, sorry, I must have zoned out for a second there. This is excellent material! No processing should be necessary!"
 10: 0x0166 [0x23] WAIT_FOR_DIALOG_INTERACTION
 11: 0x0167 [0x03] Work_Zone[3] = 9062*
 12: 0x016C [0x1D] PRINT_EVENT_MESSAGE(message_id=12566*)
    → "If you'd like me to engrave and arcane glyptic for you, just trade me the piece of equipment along with the $1!"
 13: 0x016F [0x23] WAIT_FOR_DIALOG_INTERACTION
 14: 0x0170 [0x03] Work_Zone[3] = 100*
 15: 0x0175 [0x1D] PRINT_EVENT_MESSAGE(message_id=12567*)
    → "I'll need some special tools to work with this, however, so this will require a special handling fee of $1 silt."
 16: 0x0178 [0x23] WAIT_FOR_DIALOG_INTERACTION
 17: 0x0179 [0x03] Work_Zone[1] = 0*
 18: 0x017E [0x1B] RETURN
```

#### Data or dead code:

```
# Dead code (unreachable instructions):
     0x001F [0x1E] EventEntity looks at LocalPlayer and starts talking
     0x0024 [0x6F] WAIT_FRAME_DELAY: Yield until WaitTime reaches zero
     0x0025 [0x70] WAIT_ENTITY_RENDER_FLAG: Wait while EventEntity->Render.Flags3 bit 2 is set (cancel turn if not)
     0x0026 [0x66] LOAD_EXT_SCHEDULER_MAIN: Load scheduler "tlk0" with entities [EventEntity, EventEntity], work=0*
     0x0035 [0x1D] PRINT_EVENT_MESSAGE(message_id=12552*)
    → "Sorry, friend! We're still setting up things here. Why don't you come by again later?"
     0x0038 [0x23] WAIT_FOR_DIALOG_INTERACTION
     0x0039 [0x66] LOAD_EXT_SCHEDULER_MAIN: Load scheduler "ten0" with entities [EventEntity, EventEntity], work=0*
     0x0048 [0x1B] RETURN
     0x0049 [0x1A] CALL_SUBROUTINE(address=0x017F)
     0x004C [0x1B] RETURN
     0x004D [0x1A] CALL_SUBROUTINE(address=0x0385)
     0x0050 [0x1B] RETURN
     0x0051 [0x1A] CALL_SUBROUTINE(address=0x0464)
     0x0054 [0x1B] RETURN
     0x0055 [0x42] SET_CLI_EVENT_CANCEL_DATA()
     0x0056 [0x1E] EventEntity looks at LocalPlayer and starts talking
     0x005B [0x6F] WAIT_FRAME_DELAY: Yield until WaitTime reaches zero
     0x005C [0x70] WAIT_ENTITY_RENDER_FLAG: Wait while EventEntity->Render.Flags3 bit 2 is set (cancel turn if not)
     0x005D [0x1A] CALL_SUBROUTINE(address=0x0A1F)
     0x0060 [0x1A] CALL_SUBROUTINE(address=0x0879)
     0x0063 [0x03] Work_Zone[3] = ExtData[1]->WorkLocal[41]
     0x0068 [0x03] Work_Zone[4] = 9062*
     0x006D [0x1D] PRINT_EVENT_MESSAGE(message_id=12581*)
    → "You got it! I'll just take this $1 and $2 and ready them for engraving! Isn't life wonderful?"
     0x0070 [0x23] WAIT_FOR_DIALOG_INTERACTION
     0x0071 [0x06] ExtData[1]->WorkLocal[0] = 0
     0x0074 [0x05] ExtData[1]->WorkLocal[4] = 1
     0x0077 [0x02] IF !(ExtData[1]->WorkLocal[2] == 0*) GOTO 0x0156
     0x007F [0xD4] MAP_QUERY_WINDOW: Prepare buffer configuration B (buffer=[00 80 29 00 15 00 16 00...])
     0x009D [0x00] END_REQSTACK()
     0x009E [0x80] LOAD_WAIT(entity=Unknown NPC (ID: 268436005/0x10000225))
     0x00A3 [0x00] END_REQSTACK()
     0x00A4 [0x80] LOAD_WAIT(entity=Unknown NPC (ID: 16820992/0x0100AB00))
     0x00A9 [0xAB] ADJUST_ENTITY_FLAGS: Unknown sub_case 0x00
     0x00AB [0x03] ExtData[1]->WorkLocal[4] = Work_Zone[0]
     0x00B0 [0x03] Work_Zone[3] = ExtData[1]->WorkLocal[4]
     0x00B5 [0x03] Work_Zone[4] = ExtData[1]->WorkLocal[41]
     0x00BA [0x1D] PRINT_EVENT_MESSAGE(message_id=12582*)
    → "Are you sure you want to keep this $2's [original/new] glyptic?"
     0x00BD [0x23] WAIT_FOR_DIALOG_INTERACTION
     0x00BE [0x02] IF !(ExtData[1]->WorkLocal[4] == 0*) GOTO 0x00E1
     0x00C6 [0xD4] MAP_QUERY_WINDOW: Prepare buffer configuration B (buffer=[00 80 29 00 15 00 16 00...])
     0x00E4 [0x04] DEPRECATED_NOP(unused=0x8080)
     0x00E7 [0x04] DEPRECATED_NOP(unused=0xD401)
     0x00EA [0x05] 0* = 1
     0x00ED [0x29] REQ_SET_WAIT(priority=0x00, entity_id=Unknown NPC (ID: 1638424/0x00190018), tag_num=0x1A)
     0x00F4 [0x00] END_REQSTACK()
     0x00F5 [0xD4] MAP_QUERY_WINDOW: Prepare buffer configuration B (buffer=[04 80 29 00 18 00 19 00...])
     0x0113 [0x48] [System] [0x0201]:
    → "Trial: Have your pet deal the finishing blow to a set number of [experience-yielding monsters/monsters] under the prescribed weather conditions, or on the corresponding day of the week."
     0x0116 [0x04] DEPRECATED_NOP(unused=0x00)
     0x0119 [0x80] LOAD_WAIT(entity=Unknown NPC (ID: 50406784/0x03012580))
     0x011E [0x01] GOTO 0x0810
     0x0121 [0x80] LOAD_WAIT(entity=Unknown NPC (ID: 33636865/0x02014201))
     0x0126 [0x04] DEPRECATED_NOP(unused=0x0400)
     0x0129 [0x80] LOAD_WAIT(entity=Unknown NPC (ID: 1073824384/0x40014280))
     0x012E [0x00] END_REQSTACK()
     0x012F [0x80] LOAD_WAIT(entity=Unknown NPC (ID: 268533769/0x10018009))
     0x0134 [0x0A] 0x4080 &= ~(1 << 8*)
     0x0139 [0x0C] 0x0180--
     0x013C [0x10] 0* <<= 0x4201
     0x0141 [0x01] GOTO 0x0205
     0x0144 [0x00] END_REQSTACK()
     0x0145 [0x01] GOTO 0x0153
     0x0148 [0x02] IF !(Work_Zone[0] == 1*) GOTO 0x0153
     0x0150 [0x01] GOTO 0x0153
     0x0153 [0x01] GOTO 0x0077
     0x0156 [0x1B] RETURN
# Dead code (unreachable instructions):
     0x017F [0x1E] EventEntity looks at LocalPlayer and starts talking
     0x0184 [0x6F] WAIT_FRAME_DELAY: Yield until WaitTime reaches zero
     0x0185 [0x70] WAIT_ENTITY_RENDER_FLAG: Wait while EventEntity->Render.Flags3 bit 2 is set (cancel turn if not)
     0x0186 [0x1A] CALL_SUBROUTINE(address=0x0A1F)
     0x0189 [0x1A] CALL_SUBROUTINE(address=0x084A)
     0x018C [0x1D] PRINT_EVENT_MESSAGE(message_id=12553*)
    → "Welcome, welcome! Step right up and exchange your escha silt for the awesome power of these rare and exquisite arcane glyptics!"
     0x018F [0x23] WAIT_FOR_DIALOG_INTERACTION
     0x0190 [0x06] ExtData[1]->WorkLocal[0] = 0
     0x0193 [0x02] IF !(ExtData[1]->WorkLocal[2] == 0*) GOTO 0x0384
     0x019B [0x24] CREATE_DIALOG(message_id=12554*, default_option=ExtData[1]->WorkLocal[4], option_flags=ExtData[1]->WorkLocal[0])
    → "Inquire about what? [Nothing./Engraving arcane glyptics./Equipment eligible for arcane glyptics./Materials required for arcane glyptics./Details on arcane glyptics.]"
     0x01A2 [0x25] WAIT_DIALOG_SELECT()
     0x01A3 [0x02] IF !(Work_Zone[0] == 0*) GOTO 0x01B6
     0x01AB [0x03] Work_Zone[1] = 1073741824*
     0x01B0 [0x05] ExtData[1]->WorkLocal[2] = 1
     0x01B3 [0x01] GOTO 0x01B6
     0x01B6 [0x03] ExtData[1]->WorkLocal[4] = Work_Zone[0]
     0x01BB [0x02] IF !(ExtData[1]->WorkLocal[2] == 0*) GOTO 0x0381
     0x01C3 [0x02] IF !(ExtData[1]->WorkLocal[4] == 1*) GOTO 0x01E7
     0x01CB [0x1D] PRINT_EVENT_MESSAGE(message_id=12557*)
    → "Just trade me the necessary ingredients and I'll be happy as a clam to engrave the glyptic to your equipment."
     0x01CE [0x23] WAIT_FOR_DIALOG_INTERACTION
     0x01CF [0x1D] PRINT_EVENT_MESSAGE(message_id=12558*)
    → "I'll store and process all the ingredients right here in preparation for the engraving."
     0x01D2 [0x23] WAIT_FOR_DIALOG_INTERACTION
     0x01D3 [0x03] Work_Zone[3] = 100*
     0x01D8 [0x1D] PRINT_EVENT_MESSAGE(message_id=12559*)
    → "I'll just need to charge a small handling fee of $1 silt for each ingredient you trade to me."
     0x01DB [0x23] WAIT_FOR_DIALOG_INTERACTION
     0x01DC [0x1D] PRINT_EVENT_MESSAGE(message_id=12560*)
    → "But since I love my customers oh so very much, I'll engrave the glyptic on your equipment for squat-diddly free! That's right!"
     0x01DF [0x23] WAIT_FOR_DIALOG_INTERACTION
     0x01E0 [0x1D] PRINT_EVENT_MESSAGE(message_id=12561*)
    → "Just trade me your equipment after you've traded me the ingredients and I'll have your new and augmented equipment ready before you can say "glypta-mazing"!"
     0x01E3 [0x23] WAIT_FOR_DIALOG_INTERACTION
     0x01E4 [0x01] GOTO 0x0381
     0x01E7 [0x02] IF !(ExtData[1]->WorkLocal[4] == 2*) GOTO 0x0298
     0x01EF [0x1D] PRINT_EVENT_MESSAGE(message_id=12568*)
    → "I can engrave the following pieces of equipment. Isn't it amazing!"
     0x01F2 [0x23] WAIT_FOR_DIALOG_INTERACTION
     0x01F3 [0x06] ExtData[1]->WorkLocal[5] = 0
     0x01F6 [0x06] ExtData[1]->WorkLocal[3] = 0
     0x01F9 [0x06] ExtData[1]->WorkLocal[20] = 0
     0x01FC [0x02] IF !(ExtData[1]->WorkLocal[3] == 0*) GOTO 0x0295
     0x0204 [0x1A] CALL_SUBROUTINE(address=0x08CD)
     0x0207 [0xD4] MAP_QUERY_WINDOW: Test and open query window (flag=0x1B, work=[0x0580, 0x0100, 0x2500])
     0x0210 [0x02] IF !(Work_Zone[0] == 0*) GOTO 0x021E
     0x0218 [0x05] ExtData[1]->WorkLocal[3] = 1
     0x021B [0x01] GOTO 0x0242
     0x021E [0x02] IF !(Work_Zone[0] == 17*) GOTO 0x0234
     0x0226 [0x02] IF !(ExtData[1]->WorkLocal[20] <= 0*) GOTO 0x0231
     0x022E [0x0C] ExtData[1]->WorkLocal[20]--
     0x0231 [0x01] GOTO 0x0242
     0x0234 [0x02] IF !(Work_Zone[0] == 18*) GOTO 0x0242
     0x023C [0x0B] ExtData[1]->WorkLocal[20]++
     0x023F [0x01] GOTO 0x0242
     0x0242 [0x03] ExtData[1]->WorkLocal[5] = Work_Zone[0]
     0x0247 [0x02] IF !(ExtData[1]->WorkLocal[5] == 17*) GOTO 0x0255
     0x024F [0x06] ExtData[1]->WorkLocal[5] = 0
     0x0252 [0x01] GOTO 0x0263
     0x0255 [0x02] IF !(ExtData[1]->WorkLocal[5] == 18*) GOTO 0x0263
     0x025D [0x06] ExtData[1]->WorkLocal[5] = 0
     0x0260 [0x01] GOTO 0x0263
     0x0263 [0x02] IF !(ExtData[1]->WorkLocal[5] == 0*) GOTO 0x0292
     0x026B [0x06] ExtData[1]->WorkLocal[9] = 0
     0x026E [0x03] ExtData[1]->WorkLocal[9] = ExtData[1]->WorkLocal[20]
     0x0273 [0x14] ExtData[1]->WorkLocal[9] *= 16*
     0x0278 [0x07] ExtData[1]->WorkLocal[9] += ExtData[1]->WorkLocal[5]
     0x027D [0x0C] ExtData[1]->WorkLocal[9]--
     0x0280 [0x9D] Work_Zone_1700[25] = 0x0F9E[ExtData[1]->WorkLocal[9]] // Read WORD
     0x0288 [0x93] DISPLAY_ITEM_INFO(item_id=Work_Zone_1700[25])
     0x028B [0x1D] PRINT_EVENT_MESSAGE(message_id=12570*)
    → "Sure thing! any $33 can be augmented with my super-duper arcane glyptics!"
     0x028E [0x23] WAIT_FOR_DIALOG_INTERACTION
     0x028F [0x93] DISPLAY_ITEM_INFO(item_id=0*)
     0x0292 [0x01] GOTO 0x01FC
     0x0295 [0x01] GOTO 0x0381
     0x0298 [0x02] IF !(ExtData[1]->WorkLocal[4] == 3*) GOTO 0x0351
     0x02A0 [0x1D] PRINT_EVENT_MESSAGE(message_id=12571*)
    → "I just need the following ingredients and I'll have you covered in more glyptics than you can shake a fish at!"
     0x02A3 [0x23] WAIT_FOR_DIALOG_INTERACTION
     0x02A4 [0x06] ExtData[1]->WorkLocal[5] = 0
     0x02A7 [0x06] ExtData[1]->WorkLocal[3] = 0
     0x02AA [0x06] ExtData[1]->WorkLocal[20] = 0
     0x02AD [0x02] IF !(ExtData[1]->WorkLocal[3] == 0*) GOTO 0x034E
     0x02B5 [0x1A] CALL_SUBROUTINE(address=0x0976)
     0x02B8 [0xD4] MAP_QUERY_WINDOW: Test and open query window (flag=0x1B, work=[0x0580, 0x0100, 0x2500])
     0x02C1 [0x02] IF !(Work_Zone[0] == 0*) GOTO 0x02CF
     0x02C9 [0x05] ExtData[1]->WorkLocal[3] = 1
     0x02CC [0x01] GOTO 0x02F3
     0x02CF [0x02] IF !(Work_Zone[0] == 17*) GOTO 0x02E5
     0x02D7 [0x02] IF !(ExtData[1]->WorkLocal[20] <= 0*) GOTO 0x02E2
     0x02DF [0x0C] ExtData[1]->WorkLocal[20]--
     0x02E2 [0x01] GOTO 0x02F3
     0x02E5 [0x02] IF !(Work_Zone[0] == 18*) GOTO 0x02F3
     0x02ED [0x0B] ExtData[1]->WorkLocal[20]++
     0x02F0 [0x01] GOTO 0x02F3
     0x02F3 [0x03] ExtData[1]->WorkLocal[5] = Work_Zone[0]
     0x02F8 [0x02] IF !(ExtData[1]->WorkLocal[5] == 17*) GOTO 0x0306
     0x0300 [0x06] ExtData[1]->WorkLocal[5] = 0
     0x0303 [0x01] GOTO 0x0314
     0x0306 [0x02] IF !(ExtData[1]->WorkLocal[5] == 18*) GOTO 0x0314
     0x030E [0x06] ExtData[1]->WorkLocal[5] = 0
     0x0311 [0x01] GOTO 0x0314
     0x0314 [0x02] IF !(ExtData[1]->WorkLocal[5] == 0*) GOTO 0x034B
     0x031C [0x06] ExtData[1]->WorkLocal[9] = 0
     0x031F [0x03] ExtData[1]->WorkLocal[9] = ExtData[1]->WorkLocal[20]
     0x0324 [0x14] ExtData[1]->WorkLocal[9] *= 16*
     0x0329 [0x07] ExtData[1]->WorkLocal[9] += ExtData[1]->WorkLocal[5]
     0x032E [0x0C] ExtData[1]->WorkLocal[9]--
     0x0331 [0x9D] Work_Zone_1700[25] = 0x108E[ExtData[1]->WorkLocal[9]] // Read WORD
     0x0339 [0x9D] Work_Zone_1700[26] = 0x0A9E[ExtData[1]->WorkLocal[9]] // Read WORD
     0x0341 [0x93] DISPLAY_ITEM_INFO(item_id=Work_Zone_1700[25])
     0x0344 [0x48] [System] [12573*]:
    → "Right now, I've got $" $0! in storage. Great!"
     0x0347 [0x23] WAIT_FOR_DIALOG_INTERACTION
     0x0348 [0x93] DISPLAY_ITEM_INFO(item_id=0*)
     0x034B [0x01] GOTO 0x02AD
     0x034E [0x01] GOTO 0x0381
     0x0351 [0x02] IF !(ExtData[1]->WorkLocal[4] == 4*) GOTO 0x0381
     0x0359 [0x1D] PRINT_EVENT_MESSAGE(message_id=12556*)
    → "Those clever smiths from the West have been engraving their weapons with these glyptics for generations. You gotta figure, if it's worth doing for generations, it's probably still worth doing now, am I right?"
     0x035C [0x23] WAIT_FOR_DIALOG_INTERACTION
     0x035D [0x1D] PRINT_EVENT_MESSAGE(message_id=12557*)
    → "Just trade me the necessary ingredients and I'll be happy as a clam to engrave the glyptic to your equipment."
     0x0360 [0x23] WAIT_FOR_DIALOG_INTERACTION
     0x0361 [0x1D] PRINT_EVENT_MESSAGE(message_id=12558*)
    → "I'll store and process all the ingredients right here in preparation for the engraving."
     0x0364 [0x23] WAIT_FOR_DIALOG_INTERACTION
     0x0365 [0x03] Work_Zone[3] = 100*
     0x036A [0x1D] PRINT_EVENT_MESSAGE(message_id=12559*)
    → "I'll just need to charge a small handling fee of $1 silt for each ingredient you trade to me."
     0x036D [0x23] WAIT_FOR_DIALOG_INTERACTION
     0x036E [0x1D] PRINT_EVENT_MESSAGE(message_id=12560*)
    → "But since I love my customers oh so very much, I'll engrave the glyptic on your equipment for squat-diddly free! That's right!"
     0x0371 [0x23] WAIT_FOR_DIALOG_INTERACTION
     0x0372 [0x1D] PRINT_EVENT_MESSAGE(message_id=12561*)
    → "Just trade me your equipment after you've traded me the ingredients and I'll have your new and augmented equipment ready before you can say "glypta-mazing"!"
     0x0375 [0x23] WAIT_FOR_DIALOG_INTERACTION
     0x0376 [0x1D] PRINT_EVENT_MESSAGE(message_id=12562*)
    → "Some equipment can take multiple glyptics, so keep that in mind!"
     0x0379 [0x23] WAIT_FOR_DIALOG_INTERACTION
     0x037A [0x1D] PRINT_EVENT_MESSAGE(message_id=12563*)
    → "I'll be sure to tell you which glyptics can go on the piece of equipment you trade to me, so don't worry about remembering each one!"
     0x037D [0x23] WAIT_FOR_DIALOG_INTERACTION
     0x037E [0x01] GOTO 0x0381
     0x0381 [0x01] GOTO 0x0193
     0x0384 [0x1B] RETURN
     0x0385 [0x42] SET_CLI_EVENT_CANCEL_DATA()
     0x0386 [0x1E] EventEntity looks at LocalPlayer and starts talking
     0x038B [0x6F] WAIT_FRAME_DELAY: Yield until WaitTime reaches zero
     0x038C [0x70] WAIT_ENTITY_RENDER_FLAG: Wait while EventEntity->Render.Flags3 bit 2 is set (cancel turn if not)
     0x038D [0x03] ExtData[1]->WorkLocal[30] = Work_Zone[2]
     0x0392 [0x03] ExtData[1]->WorkLocal[27] = Work_Zone[3]
     0x0397 [0x03] ExtData[1]->WorkLocal[28] = Work_Zone[4]
     0x039C [0x03] ExtData[1]->WorkLocal[29] = Work_Zone[5]
     0x03A1 [0x41] ExtData[1]->WorkLocal[31] = ExtData[1]->WorkLocal[30] (bits 0*-7*)
     0x03AA [0x41] ExtData[1]->WorkLocal[32] = ExtData[1]->WorkLocal[30] (bits 8*-15*)
     0x03B3 [0x41] ExtData[1]->WorkLocal[33] = ExtData[1]->WorkLocal[30] (bits 16*-23*)
     0x03BC [0x02] IF !(ExtData[1]->WorkLocal[27] <= 0*) GOTO 0x03F2
     0x03C4 [0x03] Work_Zone[2] = ExtData[1]->WorkLocal[31]
     0x03C9 [0x03] Work_Zone[3] = ExtData[1]->WorkLocal[27]
     0x03CE [0x14] Work_Zone[3] *= 100*
     0x03D3 [0x03] Work_Zone[4] = 9210*
     0x03D8 [0x03] Work_Zone[5] = ExtData[1]->WorkLocal[27]
     0x03DD [0x1D] PRINT_EVENT_MESSAGE(message_id=12574*)
    → "For just $1 silt, I'll take [that/those] $3 $0 off your hands. I currently have $0 in storage!"
     0x03E0 [0x23] WAIT_FOR_DIALOG_INTERACTION
     0x03E1 [0x02] IF !(ExtData[1]->WorkLocal[31] == 250*) GOTO 0x03F2
     0x03E9 [0x03] Work_Zone[3] = 9210*
     0x03EE [0x1D] PRINT_EVENT_MESSAGE(message_id=12584*)
    → "Sorry, friend. I can't store anymore $1. There's only so much I can fit into these crates. Try again after you've spent some on engravings. And remember to smile!"
     0x03F1 [0x23] WAIT_FOR_DIALOG_INTERACTION
     0x03F2 [0x02] IF !(ExtData[1]->WorkLocal[28] <= 0*) GOTO 0x0428
     0x03FA [0x03] Work_Zone[2] = ExtData[1]->WorkLocal[32]
     0x03FF [0x03] Work_Zone[3] = ExtData[1]->WorkLocal[28]
     0x0404 [0x14] Work_Zone[3] *= 100*
     0x0409 [0x03] Work_Zone[4] = 9211*
     0x040E [0x03] Work_Zone[5] = ExtData[1]->WorkLocal[28]
     0x0413 [0x1D] PRINT_EVENT_MESSAGE(message_id=12574*)
    → "For just $1 silt, I'll take [that/those] $3 $0 off your hands. I currently have $0 in storage!"
     0x0416 [0x23] WAIT_FOR_DIALOG_INTERACTION
     0x0417 [0x02] IF !(ExtData[1]->WorkLocal[32] == 250*) GOTO 0x0428
     0x041F [0x03] Work_Zone[3] = 9211*
     0x0424 [0x1D] PRINT_EVENT_MESSAGE(message_id=12584*)
    → "Sorry, friend. I can't store anymore $1. There's only so much I can fit into these crates. Try again after you've spent some on engravings. And remember to smile!"
     0x0427 [0x23] WAIT_FOR_DIALOG_INTERACTION
     0x0428 [0x02] IF !(ExtData[1]->WorkLocal[29] <= 0*) GOTO 0x045E
     0x0430 [0x03] Work_Zone[2] = ExtData[1]->WorkLocal[33]
     0x0435 [0x03] Work_Zone[3] = ExtData[1]->WorkLocal[29]
     0x043A [0x14] Work_Zone[3] *= 100*
     0x043F [0x03] Work_Zone[4] = 9212*
     0x0444 [0x03] Work_Zone[5] = ExtData[1]->WorkLocal[29]
     0x0449 [0x1D] PRINT_EVENT_MESSAGE(message_id=12574*)
    → "For just $1 silt, I'll take [that/those] $3 $0 off your hands. I currently have $0 in storage!"
     0x044C [0x23] WAIT_FOR_DIALOG_INTERACTION
     0x044D [0x02] IF !(ExtData[1]->WorkLocal[33] == 250*) GOTO 0x045E
     0x0455 [0x03] Work_Zone[3] = 9212*
     0x045A [0x1D] PRINT_EVENT_MESSAGE(message_id=12584*)
    → "Sorry, friend. I can't store anymore $1. There's only so much I can fit into these crates. Try again after you've spent some on engravings. And remember to smile!"
     0x045D [0x23] WAIT_FOR_DIALOG_INTERACTION
     0x045E [0x03] Work_Zone[1] = 1073741824*
     0x0463 [0x1B] RETURN
     0x0464 [0x42] SET_CLI_EVENT_CANCEL_DATA()
     0x0465 [0x1A] CALL_SUBROUTINE(address=0x0A1F)
     0x0468 [0x1A] CALL_SUBROUTINE(address=0x0879)
     0x046B [0x03] Work_Zone[3] = ExtData[1]->WorkLocal[41]
     0x0470 [0x1D] PRINT_EVENT_MESSAGE(message_id=12575*)
    → "Okie-dokie, friend! I'll take your $1 and engrave it right away!"
     0x0473 [0x23] WAIT_FOR_DIALOG_INTERACTION
     0x0474 [0x41] ExtData[1]->WorkLocal[44] = ExtData[1]->WorkLocal[30] (bits 24*-27*)
     0x047D [0x06] ExtData[1]->WorkLocal[2] = 0
     0x0480 [0x06] ExtData[1]->WorkLocal[4] = 0
     0x0483 [0x02] IF !(ExtData[1]->WorkLocal[2] == 0*) GOTO 0x04BC
     0x048B [0x1A] CALL_SUBROUTINE(address=0x06F7)
     0x048E [0x24] CREATE_DIALOG(message_id=12577*, default_option=ExtData[1]->WorkLocal[4], option_flags=ExtData[1]->WorkLocal[0])
    → "What type of glyptic will you choose? [None of these./Melee./Ranged./Magic./Familiar./Healing./Techniques.]"
     0x0495 [0x25] WAIT_DIALOG_SELECT()
     0x0496 [0x02] IF !(Work_Zone[0] == 0*) GOTO 0x04A9
     0x049E [0x03] Work_Zone[1] = 1073741824*
     0x04A3 [0x05] ExtData[1]->WorkLocal[2] = 1
     0x04A6 [0x01] GOTO 0x04A9
     0x04A9 [0x03] ExtData[1]->WorkLocal[4] = Work_Zone[0]
     0x04AE [0x02] IF !(ExtData[1]->WorkLocal[4] <= 0*) GOTO 0x04B9
     0x04B6 [0x1A] CALL_SUBROUTINE(address=0x04BD)
     0x04B9 [0x01] GOTO 0x0483
     0x04BC [0x1B] RETURN
     0x04BD [0x06] ExtData[1]->WorkLocal[3] = 0
     0x04C0 [0x06] ExtData[1]->WorkLocal[5] = 0
     0x04C3 [0x02] IF !(ExtData[1]->WorkLocal[3] == 0*) GOTO 0x0500
     0x04CB [0x1A] CALL_SUBROUTINE(address=0x0793)
     0x04CE [0x03] Work_Zone[2] = ExtData[1]->WorkLocal[4]
     0x04D3 [0x0C] Work_Zone[2]--
     0x04D6 [0xD4] MAP_QUERY_WINDOW: Test and open query window (flag=0x32, work=[0x0580, 0x0100, 0x2500])
     0x04DF [0x02] IF !(Work_Zone[0] == 0*) GOTO 0x04ED
     0x04E7 [0x05] ExtData[1]->WorkLocal[3] = 1
     0x04EA [0x01] GOTO 0x04ED
     0x04ED [0x03] ExtData[1]->WorkLocal[5] = Work_Zone[0]
     0x04F2 [0x02] IF !(ExtData[1]->WorkLocal[5] <= 0*) GOTO 0x04FD
     0x04FA [0x1A] CALL_SUBROUTINE(address=0x0501)
     0x04FD [0x01] GOTO 0x04C3
     0x0500 [0x1B] RETURN
     0x0501 [0x06] ExtData[1]->WorkLocal[36] = 0
     0x0504 [0x06] ExtData[1]->WorkLocal[38] = 0
     0x0507 [0x03] ExtData[1]->WorkLocal[38] = 1*
     0x050C [0x02] IF !(ExtData[1]->WorkLocal[36] == 0*) GOTO 0x06AF
     0x0514 [0x03] Work_Zone[3] = ExtData[1]->WorkLocal[41]
     0x0519 [0x03] Work_Zone[4] = ExtData[1]->WorkLocal[4]
     0x051E [0x0C] Work_Zone[4]--
     0x0521 [0x03] ExtData[1]->WorkLocal[9] = ExtData[1]->WorkLocal[5]
     0x0526 [0x0C] ExtData[1]->WorkLocal[9]--
     0x0529 [0x9D] Work_Zone[5] = 0x108E[ExtData[1]->WorkLocal[9]] // Read WORD
     0x0531 [0x02] IF !(Work_Zone[5] == 9062*) GOTO 0x0545
     0x0539 [0x40] SET_BIT_WORK_RANGE(start_bit=0*, end_bit=7*, target=Work_Zone[1], source=10*)
     0x0542 [0x01] GOTO 0x054E
     0x0545 [0x40] SET_BIT_WORK_RANGE(start_bit=0*, end_bit=7*, target=Work_Zone[1], source=8*)
     0x054E [0x40] SET_BIT_WORK_RANGE(start_bit=8*, end_bit=15*, target=Work_Zone[1], source=Work_Zone[4])
     0x0557 [0x40] SET_BIT_WORK_RANGE(start_bit=16*, end_bit=31*, target=Work_Zone[1], source=ExtData[1]->WorkLocal[9])
     0x0560 [0x02] IF !(Work_Zone[5] == 9062*) GOTO 0x056F
     0x0568 [0x1D] PRINT_EVENT_MESSAGE(message_id=12585*)
    → "Then let me imbue your $1 with some special techniques."
     0x056B [0x23] WAIT_FOR_DIALOG_INTERACTION
     0x056C [0x01] GOTO 0x0573
     0x056F [0x1D] PRINT_EVENT_MESSAGE(message_id=12578*)
    → "Okie-dokie! Here goes! Your $1 will now be engraved with the [melee/ranged/magic/familiar/healing] arcane glyptic!"
     0x0572 [0x23] WAIT_FOR_DIALOG_INTERACTION
     0x0573 [0x43] SEND_EVENT_UPDATE: Send pending tag to server (packet 0x005B)
     0x0575 [0x43] SEND_EVENT_UPDATE: Check pending flag (skip if not pending)
     0x0577 [0x1A] CALL_SUBROUTINE(address=0x0879)
     0x057A [0x41] ExtData[1]->WorkLocal[44] = ExtData[1]->WorkLocal[30] (bits 24*-27*)
     0x0583 [0x06] ExtData[1]->WorkLocal[39] = 0
     0x0586 [0x05] ExtData[1]->WorkLocal[35] = 1
     0x0589 [0x02] IF !(ExtData[1]->WorkLocal[39] == 0*) GOTO 0x06AC
     0x0591 [0x05] ExtData[1]->WorkLocal[39] = 1
     0x0594 [0xD4] MAP_QUERY_WINDOW: Prepare buffer configuration B (buffer=[00 80 29 00 15 00 16 00...])
     0x05B2 [0x00] END_REQSTACK()
     0x05B3 [0x80] LOAD_WAIT(entity=Unknown NPC (ID: 268436005/0x10000225))
     0x05B8 [0x00] END_REQSTACK()
     0x05B9 [0x80] LOAD_WAIT(entity=Unknown NPC (ID: 17154048/0x0105C000))
     0x05BE [0xC0] EventEntity->Render.Flags3 |= 0x1000 // Set bit 12
     0x05C1 [0x23] WAIT_FOR_DIALOG_INTERACTION
     0x05C2 [0x00] END_REQSTACK()
     0x05C3 [0x00] END_REQSTACK()
     0x05C4 [0x10] 0x0303 <<= 0x2310
     0x05C9 [0x00] END_REQSTACK()
     0x05CA [0x03] Work_Zone[4] = ExtData[1]->WorkLocal[41]
     0x05CF [0x1D] PRINT_EVENT_MESSAGE(message_id=12582*)
    → "Are you sure you want to keep this $2's [original/new] glyptic?"
     0x05D2 [0x23] WAIT_FOR_DIALOG_INTERACTION
     0x05D3 [0x02] IF !(ExtData[1]->WorkLocal[35] == 0*) GOTO 0x05F6
     0x05DB [0xD4] MAP_QUERY_WINDOW: Prepare buffer configuration B (buffer=[00 80 29 00 15 00 16 00...])
     0x05F9 [0x04] DEPRECATED_NOP(unused=0x8080)
     0x05FC [0x19] SWAP(0xD406, ExtData[1]->WorkLocal[5])
     0x0601 [0x80] LOAD_WAIT(entity=Unknown NPC (ID: 1572905/0x00180029))
     0x0606 [0x19] SWAP(0x1A00, 0xD400)
     0x060B [0x05] 1* = 1
     0x060E [0x29] REQ_SET_WAIT(priority=0x00, entity_id=Unknown NPC (ID: 1638424/0x00190018), tag_num=0x1A)
     0x0615 [0x00] END_REQSTACK()
     0x0616 [0x01] GOTO 0x0619
     0x0619 [0xD4] MAP_QUERY_WINDOW: Test and open query window (flag=0x07, work=[0x0480, 0x80, 0x2580])
     0x0622 [0x02] IF !(Work_Zone[0] == 0*) GOTO 0x069B
     0x062A [0x02] IF !(ExtData[1]->WorkLocal[35] == 0*) GOTO 0x0672
     0x0632 [0x1A] CALL_SUBROUTINE(address=0x06B0)
     0x0635 [0x24] CREATE_DIALOG(message_id=12580*, default_option=ExtData[1]->WorkLocal[38], option_flags=ExtData[1]->WorkLocal[37])
    → "Engrave another glyptic? [No, we're done here./Choose another glyptic./The same glyptic ($1 time[/s] remaining).]"
     0x063C [0x25] WAIT_DIALOG_SELECT()
     0x063D [0x02] IF !(Work_Zone[0] == 0*) GOTO 0x0656
     0x0645 [0x05] ExtData[1]->WorkLocal[36] = 1
     0x0648 [0x05] ExtData[1]->WorkLocal[3] = 1
     0x064B [0x05] ExtData[1]->WorkLocal[2] = 1
     0x064E [0x03] Work_Zone[1] = 1073741824*
     0x0653 [0x01] GOTO 0x066F
     0x0656 [0x02] IF !(Work_Zone[0] == 1*) GOTO 0x0664
     0x065E [0x05] ExtData[1]->WorkLocal[36] = 1
     0x0661 [0x01] GOTO 0x066F
     0x0664 [0x02] IF !(Work_Zone[0] == 2*) GOTO 0x066F
     0x066C [0x01] GOTO 0x066F
     0x066F [0x01] GOTO 0x0698
     0x0672 [0x02] IF !(ExtData[1]->WorkLocal[35] == 1*) GOTO 0x0698
     0x067A [0x40] SET_BIT_WORK_RANGE(start_bit=0*, end_bit=7*, target=Work_Zone[1], source=9*)
     0x0683 [0x40] SET_BIT_WORK_RANGE(start_bit=8*, end_bit=15*, target=Work_Zone[1], source=0*)
     0x068C [0x05] ExtData[1]->WorkLocal[36] = 1
     0x068F [0x05] ExtData[1]->WorkLocal[3] = 1
     0x0692 [0x05] ExtData[1]->WorkLocal[2] = 1
     0x0695 [0x01] GOTO 0x0698
     0x0698 [0x01] GOTO 0x06A9
     0x069B [0x02] IF !(Work_Zone[0] == 1*) GOTO 0x06A9
     0x06A3 [0x06] ExtData[1]->WorkLocal[39] = 0
     0x06A6 [0x01] GOTO 0x06A9
     0x06A9 [0x01] GOTO 0x0589
     0x06AC [0x01] GOTO 0x050C
     0x06AF [0x1B] RETURN
     0x06B0 [0x06] ExtData[1]->WorkLocal[37] = 0
     0x06B3 [0x02] IF !(ExtData[1]->WorkLocal[31] == 0*) GOTO 0x06D9
     0x06BB [0x02] IF !(ExtData[1]->WorkLocal[32] == 0*) GOTO 0x06D9
     0x06C3 [0x02] IF !(ExtData[1]->WorkLocal[33] == 0*) GOTO 0x06D9
     0x06CB [0x02] IF !(ExtData[1]->WorkLocal[44] == 0*) GOTO 0x06D9
     0x06D3 [0x03] ExtData[1]->WorkLocal[37] = 6*
     0x06D8 [0x1B] RETURN
     0x06D9 [0x03] ExtData[1]->WorkLocal[9] = ExtData[1]->WorkLocal[5]
     0x06DE [0x0C] ExtData[1]->WorkLocal[9]--
     0x06E1 [0x9D] Work_Zone[3] = 0x0A9E[ExtData[1]->WorkLocal[9]] // Read WORD
     0x06E9 [0x02] IF !(Work_Zone[3] == 0*) GOTO 0x06F6
     0x06F1 [0x03] ExtData[1]->WorkLocal[37] = 4*
     0x06F6 [0x1B] RETURN
     0x06F7 [0x1A] CALL_SUBROUTINE(address=0x0A44)
     0x06FA [0x06] ExtData[1]->WorkLocal[14] = 0
     0x06FD [0x03] ExtData[1]->WorkLocal[0] = 4294967295*
     0x0702 [0x02] IF !(ExtData[1]->WorkLocal[14] >= 32*) GOTO 0x072F
     0x070A [0x9D] ExtData[1]->WorkLocal[19] = 0x10FE[ExtData[1]->WorkLocal[14]] // Read WORD
     0x0712 [0x02] IF !(ExtData[1]->WorkLocal[19] == ExtData[1]->WorkLocal[40]) GOTO 0x0729
     0x071A [0x9D] ExtData[1]->WorkLocal[15] = 0x113E[ExtData[1]->WorkLocal[14]] // Read WORD
     0x0722 [0x3D] CLEAR_BIT_FLAG_CONDITIONAL(target_work_offset=ExtData[1]->WorkLocal[0], bit_index_work_offset=ExtData[1]->WorkLocal[15], condition_work_offset=1*)
     0x0729 [0x0B] ExtData[1]->WorkLocal[14]++
     0x072C [0x01] GOTO 0x0702
     0x072F [0x41] ExtData[1]->WorkLocal[44] = ExtData[1]->WorkLocal[30] (bits 24*-27*)
     0x0738 [0x02] IF !(ExtData[1]->WorkLocal[14] == 32*) GOTO 0x078D
     0x0740 [0x02] IF !(ExtData[1]->WorkLocal[44] == 0*) GOTO 0x0752
     0x0748 [0x3C] SET_BIT_FLAG_CONDITIONAL(target_work_offset=ExtData[1]->WorkLocal[0], bit_index_work_offset=5*, condition_work_offset=1*)
     0x074F [0x01] GOTO 0x0759
     0x0752 [0x3D] CLEAR_BIT_FLAG_CONDITIONAL(target_work_offset=ExtData[1]->WorkLocal[0], bit_index_work_offset=5*, condition_work_offset=1*)
     0x0759 [0x41] ExtData[1]->WorkLocal[44] = ExtData[1]->WorkLocal[30] (bits 0*-23*)
     0x0762 [0x02] IF !(ExtData[1]->WorkLocal[44] == 0*) GOTO 0x078D
     0x076A [0x3C] SET_BIT_FLAG_CONDITIONAL(target_work_offset=ExtData[1]->WorkLocal[0], bit_index_work_offset=0*, condition_work_offset=1*)
     0x0771 [0x3C] SET_BIT_FLAG_CONDITIONAL(target_work_offset=ExtData[1]->WorkLocal[0], bit_index_work_offset=1*, condition_work_offset=1*)
     0x0778 [0x3C] SET_BIT_FLAG_CONDITIONAL(target_work_offset=ExtData[1]->WorkLocal[0], bit_index_work_offset=2*, condition_work_offset=1*)
     0x077F [0x3C] SET_BIT_FLAG_CONDITIONAL(target_work_offset=ExtData[1]->WorkLocal[0], bit_index_work_offset=3*, condition_work_offset=1*)
     0x0786 [0x3C] SET_BIT_FLAG_CONDITIONAL(target_work_offset=ExtData[1]->WorkLocal[0], bit_index_work_offset=4*, condition_work_offset=1*)
     0x078D [0x10] ExtData[1]->WorkLocal[0] <<= 1*
     0x0792 [0x1B] RETURN
     0x0793 [0x1A] CALL_SUBROUTINE(address=0x0A44)
     0x0796 [0x06] ExtData[1]->WorkLocal[14] = 0
     0x0799 [0x06] ExtData[1]->WorkLocal[1] = 0
     0x079C [0x02] IF !(ExtData[1]->WorkLocal[14] >= 3*) GOTO 0x07E9
     0x07A4 [0x03] ExtData[1]->WorkLocal[9] = ExtData[1]->WorkLocal[14]
     0x07A9 [0x07] ExtData[1]->WorkLocal[9] += 16*
     0x07AE [0x9D] ExtData[1]->WorkLocal[16] = 0x108E[ExtData[1]->WorkLocal[14]] // Read WORD
     0x07B6 [0x9D] 0x0A5E[ExtData[1]->WorkLocal[14] * 2] = ExtData[1]->WorkLocal[16] // Write WORD
     0x07BE [0x9D] ExtData[1]->WorkLocal[15] = 0x0A9E[ExtData[1]->WorkLocal[14]] // Read WORD
     0x07C6 [0x9D] 0x0A5E[ExtData[1]->WorkLocal[9] * 2] = ExtData[1]->WorkLocal[15] // Write WORD
     0x07CE [0x02] IF !(ExtData[1]->WorkLocal[15] == 0*) GOTO 0x07DD
     0x07D6 [0x3C] SET_BIT_FLAG_CONDITIONAL(target_work_offset=ExtData[1]->WorkLocal[1], bit_index_work_offset=ExtData[1]->WorkLocal[14], condition_work_offset=1*)
     0x07DD [0x0B] ExtData[1]->WorkLocal[14]++
     0x07E0 [0xD4] MAP_QUERY_WINDOW: Prepare buffer configuration A (buffer=[0E 00 10 00 01 9C 07 41...])
     0x07FE [0x80] LOAD_WAIT(entity=Unknown NPC (ID: 1007172864/0x3C083D00))
     0x0803 [0x01] GOTO 0x0000
     0x0806 [0x80] LOAD_WAIT(entity=Unknown NPC (ID: 20742148/0x013C8004))
     0x080B [0x00] END_REQSTACK()
     0x080C [0x04] DEPRECATED_NOP(unused=0x0480)
     0x080F [0x80] LOAD_WAIT(entity=Unknown NPC (ID: 419430716/0x1900013C))
     0x0814 [0x80] LOAD_WAIT(entity=Unknown NPC (ID: 738361348/0x2C028004))
     0x0819 [0x00] END_REQSTACK()
     0x081A [0x00] END_REQSTACK()
     0x081B [0x80] LOAD_WAIT(entity=Unknown NPC (ID: 50867712/0x03082E00))
     0x0820 [0x0C] ExtData[1]->WorkLocal[23]--
     0x0823 [0x80] LOAD_WAIT(entity=Unknown NPC (ID: 536871228/0x2000013C))
     0x0828 [0x80] LOAD_WAIT(entity=Unknown NPC (ID: 973176836/0x3A018004))
     0x082D [0x08] 0x0C03 -= 0x2C17
     0x0832 [0x00] END_REQSTACK()
     0x0833 [0x3D] CLEAR_BIT_FLAG_CONDITIONAL(target_work_offset=ExtData[1]->WorkLocal[1], bit_index_work_offset=3*, condition_work_offset=1*)
     0x083A [0x01] GOTO 0x0844
     0x083D [0x3C] SET_BIT_FLAG_CONDITIONAL(target_work_offset=ExtData[1]->WorkLocal[1], bit_index_work_offset=3*, condition_work_offset=1*)
     0x0844 [0x10] ExtData[1]->WorkLocal[1] <<= 1*
     0x0849 [0x1B] RETURN
     0x084A [0x03] ExtData[1]->WorkLocal[30] = Work_Zone[2]
     0x084F [0x03] ExtData[1]->WorkLocal[43] = Work_Zone[3]
     0x0854 [0x41] ExtData[1]->WorkLocal[31] = ExtData[1]->WorkLocal[30] (bits 0*-7*)
     0x085D [0x41] ExtData[1]->WorkLocal[32] = ExtData[1]->WorkLocal[30] (bits 8*-15*)
     0x0866 [0x41] ExtData[1]->WorkLocal[33] = ExtData[1]->WorkLocal[30] (bits 16*-23*)
     0x086F [0x41] ExtData[1]->WorkLocal[44] = ExtData[1]->WorkLocal[30] (bits 24*-27*)
     0x0878 [0x1B] RETURN
     0x0879 [0x03] ExtData[1]->WorkLocal[30] = Work_Zone[2]
     0x087E [0x03] ExtData[1]->WorkLocal[42] = Work_Zone[3]
     0x0883 [0x03] ExtData[1]->WorkLocal[21] = Work_Zone[4]
     0x0888 [0x03] ExtData[1]->WorkLocal[22] = Work_Zone[5]
     0x088D [0x03] ExtData[1]->WorkLocal[23] = Work_Zone[6]
     0x0892 [0x03] ExtData[1]->WorkLocal[24] = Work_Zone[7]
     0x0897 [0x03] ExtData[1]->WorkLocal[25] = Work_Zone[8]
     0x089C [0x03] ExtData[1]->WorkLocal[26] = Work_Zone[9]
     0x08A1 [0x41] ExtData[1]->WorkLocal[31] = ExtData[1]->WorkLocal[30] (bits 0*-7*)
     0x08AA [0x41] ExtData[1]->WorkLocal[32] = ExtData[1]->WorkLocal[30] (bits 8*-15*)
     0x08B3 [0x41] ExtData[1]->WorkLocal[33] = ExtData[1]->WorkLocal[30] (bits 16*-23*)
     0x08BC [0x9D] ExtData[1]->WorkLocal[41] = 0x0F9E[ExtData[1]->WorkLocal[42]] // Read WORD
     0x08C4 [0x9D] ExtData[1]->WorkLocal[40] = 0x0FEE[ExtData[1]->WorkLocal[42]] // Read WORD
     0x08CC [0x1B] RETURN
     0x08CD [0x1A] CALL_SUBROUTINE(address=0x0A44)
     0x08D0 [0x06] ExtData[1]->WorkLocal[14] = 0
     0x08D3 [0x06] ExtData[1]->WorkLocal[12] = 0
     0x08D6 [0x06] ExtData[1]->WorkLocal[17] = 0
     0x08D9 [0x06] ExtData[1]->WorkLocal[18] = 0
     0x08DC [0x06] ExtData[1]->WorkLocal[15] = 0
     0x08DF [0x03] ExtData[1]->WorkLocal[18] = ExtData[1]->WorkLocal[20]
     0x08E4 [0x0B] ExtData[1]->WorkLocal[18]++
     0x08E7 [0x14] ExtData[1]->WorkLocal[18] *= 16*
     0x08EC [0x02] IF !(ExtData[1]->WorkLocal[18] < 39*) GOTO 0x08FE
     0x08F4 [0x3F] ExtData[1]->WorkLocal[18] = 39* % 16*
     0x08FB [0x01] GOTO 0x0903
     0x08FE [0x03] ExtData[1]->WorkLocal[18] = 16*
     0x0903 [0x02] IF !(ExtData[1]->WorkLocal[14] >= ExtData[1]->WorkLocal[18]) GOTO 0x0936
     0x090B [0x03] ExtData[1]->WorkLocal[15] = ExtData[1]->WorkLocal[20]
     0x0910 [0x14] ExtData[1]->WorkLocal[15] *= 16*
     0x0915 [0x07] ExtData[1]->WorkLocal[15] += ExtData[1]->WorkLocal[14]
     0x091A [0x9D] ExtData[1]->WorkLocal[16] = 0x0F9E[ExtData[1]->WorkLocal[15]] // Read WORD
     0x0922 [0x9D] 0x0A5E[ExtData[1]->WorkLocal[14] * 2] = ExtData[1]->WorkLocal[16] // Write WORD
     0x092A [0x0B] ExtData[1]->WorkLocal[14]++
     0x092D [0xD4] MAP_QUERY_WINDOW: Prepare buffer configuration A (buffer=[0E 00 10 00 01 03 09 06...])
     0x094B [0x12] 0x1400 = rand()
     0x094E [0x00] END_REQSTACK()
     0x094F [0x0B] ExtData[1]->WorkLocal[18]++
     0x0952 [0x14] ExtData[1]->WorkLocal[18] *= 16*
     0x0957 [0x02] IF !(ExtData[1]->WorkLocal[20] <= 0*) GOTO 0x0966
     0x095F [0x3D] CLEAR_BIT_FLAG_CONDITIONAL(target_work_offset=ExtData[1]->WorkLocal[1], bit_index_work_offset=17*, condition_work_offset=1*)
     0x0966 [0x02] IF !(ExtData[1]->WorkLocal[18] >= 39*) GOTO 0x0975
     0x096E [0x3D] CLEAR_BIT_FLAG_CONDITIONAL(target_work_offset=ExtData[1]->WorkLocal[1], bit_index_work_offset=18*, condition_work_offset=1*)
     0x0975 [0x1B] RETURN
     0x0976 [0x1A] CALL_SUBROUTINE(address=0x0A44)
     0x0979 [0x06] ExtData[1]->WorkLocal[14] = 0
     0x097C [0x06] ExtData[1]->WorkLocal[12] = 0
     0x097F [0x06] ExtData[1]->WorkLocal[17] = 0
     0x0982 [0x06] ExtData[1]->WorkLocal[18] = 0
     0x0985 [0x06] ExtData[1]->WorkLocal[15] = 0
     0x0988 [0x03] ExtData[1]->WorkLocal[18] = ExtData[1]->WorkLocal[20]
     0x098D [0x0B] ExtData[1]->WorkLocal[18]++
     0x0990 [0x14] ExtData[1]->WorkLocal[18] *= 16*
     0x0995 [0x02] IF !(ExtData[1]->WorkLocal[18] < 3*) GOTO 0x09A7
     0x099D [0x3F] ExtData[1]->WorkLocal[18] = 3* % 16*
     0x09A4 [0x01] GOTO 0x09AC
     0x09A7 [0x03] ExtData[1]->WorkLocal[18] = 16*
     0x09AC [0x02] IF !(ExtData[1]->WorkLocal[14] >= ExtData[1]->WorkLocal[18]) GOTO 0x09DF
     0x09B4 [0x03] ExtData[1]->WorkLocal[15] = ExtData[1]->WorkLocal[20]
     0x09B9 [0x14] ExtData[1]->WorkLocal[15] *= 16*
     0x09BE [0x07] ExtData[1]->WorkLocal[15] += ExtData[1]->WorkLocal[14]
     0x09C3 [0x9D] ExtData[1]->WorkLocal[16] = 0x108E[ExtData[1]->WorkLocal[15]] // Read WORD
     0x09CB [0x9D] 0x0A5E[ExtData[1]->WorkLocal[14] * 2] = ExtData[1]->WorkLocal[16] // Write WORD
     0x09D3 [0x0B] ExtData[1]->WorkLocal[14]++
     0x09D6 [0xD4] MAP_QUERY_WINDOW: Prepare buffer configuration A (buffer=[0E 00 10 00 01 AC 09 06...])
     0x09F4 [0x12] 0x1400 = rand()
     0x09F7 [0x00] END_REQSTACK()
     0x09F8 [0x0B] ExtData[1]->WorkLocal[18]++
     0x09FB [0x14] ExtData[1]->WorkLocal[18] *= 16*
     0x0A00 [0x02] IF !(ExtData[1]->WorkLocal[20] <= 0*) GOTO 0x0A0F
     0x0A08 [0x3D] CLEAR_BIT_FLAG_CONDITIONAL(target_work_offset=ExtData[1]->WorkLocal[1], bit_index_work_offset=17*, condition_work_offset=1*)
     0x0A0F [0x02] IF !(ExtData[1]->WorkLocal[18] >= 3*) GOTO 0x0A1E
     0x0A17 [0x3D] CLEAR_BIT_FLAG_CONDITIONAL(target_work_offset=ExtData[1]->WorkLocal[1], bit_index_work_offset=18*, condition_work_offset=1*)
     0x0A1E [0x1B] RETURN
     0x0A1F [0x06] ExtData[1]->WorkLocal[0] = 0
     0x0A22 [0x06] ExtData[1]->WorkLocal[1] = 0
     0x0A25 [0x06] ExtData[1]->WorkLocal[2] = 0
     0x0A28 [0x06] ExtData[1]->WorkLocal[4] = 0
     0x0A2B [0x06] ExtData[1]->WorkLocal[20] = 0
     0x0A2E [0x06] ExtData[1]->WorkLocal[21] = 0
     0x0A31 [0x06] ExtData[1]->WorkLocal[22] = 0
     0x0A34 [0x06] ExtData[1]->WorkLocal[23] = 0
     0x0A37 [0x06] ExtData[1]->WorkLocal[24] = 0
     0x0A3A [0x06] ExtData[1]->WorkLocal[25] = 0
     0x0A3D [0x06] ExtData[1]->WorkLocal[26] = 0
     0x0A40 [0x06] ExtData[1]->WorkLocal[44] = 0
     0x0A43 [0x1B] RETURN
     0x0A44 [0x06] ExtData[1]->WorkLocal[14] = 0
     0x0A47 [0x02] IF !(ExtData[1]->WorkLocal[14] >= 32*) GOTO 0x0A5D
     0x0A4F [0x9D] 0x0A5E[ExtData[1]->WorkLocal[14] * 2] = 0* // Write WORD
     0x0A57 [0x0B] ExtData[1]->WorkLocal[14]++
     0x0A5A [0x01] GOTO 0x0A47
     0x0A5D [0x1B] RETURN
     0x0A5E [0x03] 0x0410 = 0x0510
     0x0A63 [0x10] Work_Zone[6] <<= Work_Zone[7]
     0x0A68 [0x08] 0x0910 -= ExtData[1]->WorkLocal[16]
     0x0A6D [0x17] Work_Zone_1700[1] = cos(Work_Zone_1700[2]) * Work_Zone_1700[3]
     0x0A74 [0x04] DEPRECATED_NOP(unused=0x0517)
     0x0A77 [0x17] Work_Zone_1700[6] = cos(Work_Zone_1700[7]) * Work_Zone_1700[8]
     0x0A7E [0x09] 0x0A17 |= (1 << 0x0B17)
     0x0A83 [0x17] Work_Zone_1700[12] = cos(Work_Zone_1700[13]) * Work_Zone_1700[14]
     0x0A8A [0x0F] Work_Zone[23] ^= Work_Zone_Memorize[23]
     0x0A8F [0x17] Work_Zone_1700[18] = cos(Work_Zone_1700[19]) * Work_Zone_1700[20]
     0x0A96 [0x15] 0x1617 /= Work_Zone_1700[23]
     0x0A9B [0x17] Work_Zone_1700[24] = cos(ExtData[1]->WorkLocal[31]) * ExtData[1]->WorkLocal[32]
     0x0AA2 [0x21] END_EVENT
     0x0AA3 [0x00] END_REQSTACK()
     0x0AA4 [0x2C] CREATE_SCHEDULER_TASK: Create scheduler 0x3E803D80 with entities [Unknown NPC (ID: 8388608/0x00800000), Unknown NPC (ID: 8388736/0x00800080)]
     0x0AB1 [0x80] LOAD_WAIT(entity=Unknown NPC (ID: 2151710783/0x8040803F))
     0x0AB6 [0x41] 0x4580 = 0x4480 (bits 0x4280-0x4380)
     0x0ABF [0x80] LOAD_WAIT(entity=Unknown NPC (ID: 2152169542/0x80478046))
     0x0AC4 [0x48] [System] [0x4980]:
     0x0AC7 [0x80] LOAD_WAIT(entity=Unknown NPC (ID: 2152431690/0x804B804A))
     0x0ACC [0x4C] EventEntity->StatusEvent = 8 // Open door
     0x0ACD [0x80] LOAD_WAIT(entity=Unknown NPC (ID: 2152628301/0x804E804D))
     0x0AD2 [0x4F] EventEntity->StatusEvent = 0x5080 // Custom event value
     0x0AD5 [0x80] LOAD_WAIT(entity=Unknown NPC (ID: 2152890449/0x80528051))
     0x0ADA [0x53] WAIT_SCHEDULER_TASK: Wait for scheduler 0x59805880 with entities [Unknown NPC (ID: 1434473600/0x55805480), Unknown NPC (ID: 1468028544/0x57805680)]
     0x0AE7 [0x80] LOAD_WAIT(entity=Unknown NPC (ID: 2153480282/0x805B805A))
     0x0AEC [0x5C] MUSIC_CONTROL: Set Idle (Day) music to song 26950*, volume=27100*
     0x0AF2 [0x5F] MULTI_HANDLER_COMPLEX(mode=0x80 - Unknown)
     0x0AF4 [0x60] ADJUST_RENDER_FLAGS1_MULTI: Deprecated mode 0x80 (no operation)
     0x0AF6 [0x61] EventEntity->Render.Flags2 &= ~0x00000001
     0x0AF8 [0x62] LOAD_EVENT_SCHEDULER: Load scheduler 0x69806880 with entities [Unknown NPC (ID: 1702913152/0x65806480), Unknown NPC (ID: 1736468096/0x67806680)], work=[0x6380, 0x6A80]
     0x0B09 [0x80] LOAD_WAIT(entity=Unknown NPC (ID: 2154594411/0x806C806B))
     0x0B0E [0x6D] DEPRECATED_OPCODE(unused1=0x6E80, unused2=0x6F80, unused3=0x7080)
     0x0B15 [0x80] LOAD_WAIT(entity=Unknown NPC (ID: 2154987633/0x80728071))
     0x0B1A [0x73] Unknown NPC (ID: 1988130176/0x76807580) casts magic 0x7480 on Unknown NPC (ID: 2021685120/0x78807780)
     0x0B25 [0x80] LOAD_WAIT(entity=Unknown NPC (ID: 2155511929/0x807A8079))
     0x0B2A [0x7B] Unknown NPC (ID: 2105572480/0x7D807C80) stops talking
     0x0B2F [0x80] LOAD_WAIT(entity=Unknown NPC (ID: 2155839614/0x807F807E))
     0x0B34 [0x80] LOAD_WAIT(entity=Unknown NPC (ID: 2189459840/0x82808180))
     0x0B39 [0x80] LOAD_WAIT(entity=Unknown NPC (ID: 2156167299/0x80848083))
     0x0B3E [0x85] OPEN_MOOGLE_MENU()
     0x0B3F [0x80] LOAD_WAIT(entity=Unknown NPC (ID: 2156363910/0x80878086))
     0x0B44 [0x88] WORLD_PASS_HANDLER_B: Send world pass packet 0x1B (Para=1, sets RecFriendPassFlag)
     0x0B45 [0x80] LOAD_WAIT(entity=Unknown NPC (ID: 2156560521/0x808A8089))
     0x0B4A [0x8B] SET_EVENT_MARK: Add/update map marker on map References[3200] at (References[3712], References[3968]), index=References[3456], name=(no name)
     0x0B53 [0x80] LOAD_WAIT(entity=Unknown NPC (ID: 2157019280/0x80918090))
     0x0B58 [0x92] Unknown NPC (ID: 2157215891/0x80948093)->Render.Flags3 ^= 0x80
     0x0B5E [0x95] SETUP_EVENT_NPC: Prepare NPC for event (Render.Flags3 = 0x9680)
     0x0B61 [0x80] LOAD_WAIT(entity=Unknown NPC (ID: 2157478039/0x80988097))
     0x0B66 [0x99] Wait for Unknown NPC (ID: 2608896640/0x9B809A80) animation to complete
     0x0B6B [0x80] LOAD_WAIT(entity=Unknown NPC (ID: 2157805724/0x809D809C))
     0x0B70 [0x9E] SET_RECT_EVENT_SEND_FLAG: Notify client of area movement
     0x0B72 [0x9F] LOAD_SCHEDULED_TASK_ALT: Load scheduler 0xA680A580 with entities [Unknown NPC (ID: 2726338944/0xA280A180), Unknown NPC (ID: 2759893888/0xA480A380)], work=[0xA080, 0xA780]
     0x0B83 [0x80] LOAD_WAIT(entity=Unknown NPC (ID: 2158592168/0x80A980A8))
     0x0B88 [0xAA] VANA_DIEL_TIMESTAMP_CONVERTER(timestamp=0xAB80, year=0xAC80, month=0xAD80, day=0xAE80, weekday=0xAF80, hour=0xB080, minute=0xB180, moon=0xB280)
     0x0B99 [0x80] LOAD_WAIT(entity=Unknown NPC (ID: 2159313075/0x80B480B3))
     0x0B9E [0xB5] SET_EVENT_ENTITY_NAME: Change EventEntity name to "@j"*
     0x0BA2 [0xB7] ENTITY_DATA_HANDLER: Unknown case 0x80 for Unknown NPC (ID: 2159640760/0x80B980B8)
     0x0BAA [0xBB] LOAD_EVENT_SCHEDULER_ALT: Load scheduler 0xC280C180 with entities [Unknown NPC (ID: 3196108160/0xBE80BD80), Unknown NPC (ID: 3229663104/0xC080BF80)], work=[0xBC80, 0xC380]
     0x0BBB [0x80] LOAD_WAIT(entity=Unknown NPC (ID: 2160427204/0x80C580C4))
     0x0BC0 [0xC6] WAIT_LOAD_SCHEDULER_ALT3: Wait for scheduler 0xCD80CC80 with entities [Unknown NPC (ID: 3380660352/0xC980C880), Unknown NPC (ID: 3414215296/0xCB80CA80)], work=0xC780
     0x0BCF [0x80] LOAD_WAIT(entity=Unknown NPC (ID: 2161082574/0x80CF80CE))
     0x0BD4 [0xD0] LOAD_SCHEDULED_TASK_ALT5: Load scheduler 0xD780D680 with entities [Unknown NPC (ID: 3548435072/0xD380D280), Unknown NPC (ID: 3581990016/0xD580D480)], work=[0xD180, 0xD880]
     0x0BE5 [0x80] LOAD_WAIT(entity=Unknown NPC (ID: 2161803481/0x80DA80D9))
     0x0BEA [0xDB] UNKNOWN_0xDB
     0x0BEB [0x80] LOAD_WAIT(entity=Unknown NPC (ID: 2162000092/0x80DD80DC))
     0x0BF0 [0xDE] UNKNOWN_0xDE
     0x0BF1 [0x80] LOAD_WAIT(entity=Unknown NPC (ID: 2162196703/0x80E080DF))
     0x0BF6 [0xE1] UNKNOWN_0xE1
     0x0BF7 [0x80] LOAD_WAIT(entity=Unknown NPC (ID: 2162393314/0x80E380E2))
     0x0BFC [0xE4] UNKNOWN_0xE4
     0x0BFD [0x80] LOAD_WAIT(entity=Unknown NPC (ID: 2162589925/0x80E680E5))
     0x0C02 [0xE7] UNKNOWN_0xE7
     0x0C03 [0x80] LOAD_WAIT(entity=Unknown NPC (ID: 2162786536/0x80E980E8))
     0x0C08 [0xEA] UNKNOWN_0xEA
     0x0C09 [0x80] LOAD_WAIT(entity=Unknown NPC (ID: 2162983147/0x80EC80EB))
     0x0C0E [0xED] UNKNOWN_0xED
     0x0C0F [0x80] LOAD_WAIT(entity=Unknown NPC (ID: 2163179758/0x80EF80EE))
     0x0C14 [0xF0] UNKNOWN_0xF0
     0x0C15 [0x80] LOAD_WAIT(entity=Unknown NPC (ID: 2163376369/0x80F280F1))
     0x0C1A [0xF3] UNKNOWN_0xF3
     0x0C1B [0x80] LOAD_WAIT(entity=Unknown NPC (ID: 2148564992/0x80108000))
     0x0C20 [0x10] 0x1080 <<= 0x1080
     0x0C25 [0x80] LOAD_WAIT(entity=Unknown NPC (ID: 2148565008/0x80108010))
     0x0C2A [0x10] 0x1080 <<= 0x1080
     0x0C2F [0x80] LOAD_WAIT(entity=Unknown NPC (ID: 2148565008/0x80108010))
     0x0C34 [0x10] 0x1080 <<= 0x1080
     0x0C39 [0x80] LOAD_WAIT(entity=Unknown NPC (ID: 2148565008/0x80108010))
     0x0C3E [0x10] 0x1080 <<= 0x1080
     0x0C43 [0x80] LOAD_WAIT(entity=Unknown NPC (ID: 2148565008/0x80108010))
     0x0C48 [0x10] 0x1080 <<= 0x1080
     0x0C4D [0x80] LOAD_WAIT(entity=Unknown NPC (ID: 2148565008/0x80108010))
     0x0C52 [0x10] 0x1080 <<= 0x1080
     0x0C57 [0x80] LOAD_WAIT(entity=Unknown NPC (ID: 2148565008/0x80108010))
     0x0C5C [0x10] 0x1080 <<= 0x1080
     0x0C61 [0x80] LOAD_WAIT(entity=Unknown NPC (ID: 2148565008/0x80108010))
     0x0C66 [0x10] 0x1080 <<= 0x1080
     0x0C6B [0x80] LOAD_WAIT(entity=Unknown NPC (ID: 2148565008/0x80108010))
     0x0C70 [0x10] 0x1080 <<= 0x1080
     0x0C75 [0x80] LOAD_WAIT(entity=Unknown NPC (ID: 2148565008/0x80108010))
     0x0C7A [0x10] 0x1080 <<= 0x1080
     0x0C7F [0x80] LOAD_WAIT(entity=Unknown NPC (ID: 2148565008/0x80108010))
     0x0C84 [0x10] 0x1080 <<= 0x1080
     0x0C89 [0x80] LOAD_WAIT(entity=Unknown NPC (ID: 2148565008/0x80108010))
     0x0C8E [0x10] 0x1080 <<= 0x1080
     0x0C93 [0x80] LOAD_WAIT(entity=Unknown NPC (ID: 2148565008/0x80108010))
     0x0C98 [0x10] 0x1080 <<= 0x1080
     0x0C9D [0x80] LOAD_WAIT(entity=Unknown NPC (ID: 2148565008/0x80108010))
     0x0CA2 [0x10] 0x1080 <<= 0x1080
     0x0CA7 [0x80] LOAD_WAIT(entity=Unknown NPC (ID: 2148565008/0x80108010))
     0x0CAC [0x10] 0x1080 <<= 0x1080
     0x0CB1 [0x80] LOAD_WAIT(entity=Unknown NPC (ID: 2148565008/0x80108010))
     0x0CB6 [0x10] 0x1080 <<= 0x1080
     0x0CBB [0x80] LOAD_WAIT(entity=Unknown NPC (ID: 2148565008/0x80108010))
     0x0CC0 [0x10] 0x1080 <<= 0x1080
     0x0CC5 [0x80] LOAD_WAIT(entity=Unknown NPC (ID: 2148565008/0x80108010))
     0x0CCA [0x10] 0x1080 <<= 0x1080
     0x0CCF [0x80] LOAD_WAIT(entity=Unknown NPC (ID: 2148565008/0x80108010))
     0x0CD4 [0x10] 0x1080 <<= 0x1080
     0x0CD9 [0x80] LOAD_WAIT(entity=Unknown NPC (ID: 2148565008/0x80108010))
     0x0CDE [0x10] 0x1080 <<= 0x1080
     0x0CE3 [0x80] LOAD_WAIT(entity=Unknown NPC (ID: 2148565008/0x80108010))
     0x0CE8 [0x10] 0x1080 <<= 0x1080
     0x0CED [0x80] LOAD_WAIT(entity=Unknown NPC (ID: 2148565008/0x80108010))
     0x0CF2 [0x10] 0x1080 <<= 0x1080
     0x0CF7 [0x80] LOAD_WAIT(entity=Unknown NPC (ID: 2148565008/0x80108010))
     0x0CFC [0x10] 0x1080 <<= 0x1080
     0x0D01 [0x80] LOAD_WAIT(entity=Unknown NPC (ID: 2148565008/0x80108010))
     0x0D06 [0x10] 0x1080 <<= 0x1080
     0x0D0B [0x80] LOAD_WAIT(entity=Unknown NPC (ID: 2148565008/0x80108010))
     0x0D10 [0x10] 0x1080 <<= 0x1080
     0x0D15 [0x80] LOAD_WAIT(entity=Unknown NPC (ID: 2148565008/0x80108010))
     0x0D1A [0x10] 0x1080 <<= 0x1080
     0x0D1F [0x80] LOAD_WAIT(entity=Unknown NPC (ID: 2148565008/0x80108010))
     0x0D24 [0x10] 0x1080 <<= 0x1080
     0x0D29 [0x80] LOAD_WAIT(entity=Unknown NPC (ID: 2148565008/0x80108010))
     0x0D2E [0x10] 0x1080 <<= 0x1080
     0x0D33 [0x80] LOAD_WAIT(entity=Unknown NPC (ID: 2148565008/0x80108010))
     0x0D38 [0x10] 0x1080 <<= 0x1080
     0x0D3D [0x80] LOAD_WAIT(entity=Unknown NPC (ID: 2148565008/0x80108010))
     0x0D42 [0x10] 0x1080 <<= 0x1080
     0x0D47 [0x80] LOAD_WAIT(entity=Unknown NPC (ID: 2148565008/0x80108010))
     0x0D4C [0x10] 0x1080 <<= 0x1080
     0x0D51 [0x80] LOAD_WAIT(entity=Unknown NPC (ID: 2148565008/0x80108010))
     0x0D56 [0x10] 0x1080 <<= 0x1080
     0x0D5B [0x80] LOAD_WAIT(entity=Unknown NPC (ID: 2148565008/0x80108010))
     0x0D60 [0x10] 0x1080 <<= 0x1080
     0x0D65 [0x80] LOAD_WAIT(entity=Unknown NPC (ID: 2148565008/0x80108010))
     0x0D6A [0x10] 0x1080 <<= 0x1080
     0x0D6F [0x80] LOAD_WAIT(entity=Unknown NPC (ID: 2148565008/0x80108010))
     0x0D74 [0x10] 0x1080 <<= 0x1080
     0x0D79 [0x80] LOAD_WAIT(entity=Unknown NPC (ID: 2148565008/0x80108010))
     0x0D7E [0x10] 0x1080 <<= 0x1080
     0x0D83 [0x80] LOAD_WAIT(entity=Unknown NPC (ID: 2148565008/0x80108010))
     0x0D88 [0x10] 0x1080 <<= 0x80
     0x0D8D [0x80] LOAD_WAIT(entity=Unknown NPC (ID: 2147778564/0x80048004))
     0x0D92 [0x04] DEPRECATED_NOP(unused=0x0480)
     0x0D95 [0x80] LOAD_WAIT(entity=Unknown NPC (ID: 2147778564/0x80048004))
     0x0D9A [0x04] DEPRECATED_NOP(unused=0x0480)
     0x0D9D [0x80] LOAD_WAIT(entity=Unknown NPC (ID: 2147778564/0x80048004))
     0x0DA2 [0x04] DEPRECATED_NOP(unused=0x0480)
     0x0DA5 [0x80] LOAD_WAIT(entity=Unknown NPC (ID: 2147778564/0x80048004))
     0x0DAA [0x04] DEPRECATED_NOP(unused=0x0480)
     0x0DAD [0x80] LOAD_WAIT(entity=Unknown NPC (ID: 2147778564/0x80048004))
     0x0DB2 [0x04] DEPRECATED_NOP(unused=0x0480)
     0x0DB5 [0x80] LOAD_WAIT(entity=Unknown NPC (ID: 2147778564/0x80048004))
     0x0DBA [0x04] DEPRECATED_NOP(unused=0x0480)
     0x0DBD [0x80] LOAD_WAIT(entity=Unknown NPC (ID: 2147778564/0x80048004))
     0x0DC2 [0x04] DEPRECATED_NOP(unused=0x0480)
     0x0DC5 [0x80] LOAD_WAIT(entity=Unknown NPC (ID: 2147778564/0x80048004))
     0x0DCA [0x04] DEPRECATED_NOP(unused=0x0480)
     0x0DCD [0x80] LOAD_WAIT(entity=Unknown NPC (ID: 2147778564/0x80048004))
     0x0DD2 [0x04] DEPRECATED_NOP(unused=0x0480)
     0x0DD5 [0x80] LOAD_WAIT(entity=Unknown NPC (ID: 2147778564/0x80048004))
     0x0DDA [0x04] DEPRECATED_NOP(unused=0x0480)
     0x0DDD [0x80] LOAD_WAIT(entity=Unknown NPC (ID: 2147778564/0x80048004))
     0x0DE2 [0x04] DEPRECATED_NOP(unused=0x0480)
     0x0DE5 [0x80] LOAD_WAIT(entity=Unknown NPC (ID: 2147778564/0x80048004))
     0x0DEA [0x04] DEPRECATED_NOP(unused=0x0480)
     0x0DED [0x80] LOAD_WAIT(entity=Unknown NPC (ID: 2147778564/0x80048004))
     0x0DF2 [0x04] DEPRECATED_NOP(unused=0x0480)
     0x0DF5 [0x80] LOAD_WAIT(entity=Unknown NPC (ID: 2147778564/0x80048004))
     0x0DFA [0x04] DEPRECATED_NOP(unused=0x0480)
     0x0DFD [0x80] LOAD_WAIT(entity=Unknown NPC (ID: 2147778564/0x80048004))
     0x0E02 [0x04] DEPRECATED_NOP(unused=0x0480)
     0x0E05 [0x80] LOAD_WAIT(entity=Unknown NPC (ID: 2147778564/0x80048004))
     0x0E0A [0x04] DEPRECATED_NOP(unused=0x0480)
     0x0E0D [0x80] LOAD_WAIT(entity=Unknown NPC (ID: 2147778564/0x80048004))
     0x0E12 [0x04] DEPRECATED_NOP(unused=0x0480)
     0x0E15 [0x80] LOAD_WAIT(entity=Unknown NPC (ID: 2147778564/0x80048004))
     0x0E1A [0x04] DEPRECATED_NOP(unused=0x0480)
     0x0E1D [0x80] LOAD_WAIT(entity=Unknown NPC (ID: 2147778564/0x80048004))
     0x0E22 [0x04] DEPRECATED_NOP(unused=0x0480)
     0x0E25 [0x80] LOAD_WAIT(entity=Unknown NPC (ID: 2147778564/0x80048004))
     0x0E2A [0x04] DEPRECATED_NOP(unused=0x0480)
     0x0E2D [0x80] LOAD_WAIT(entity=Unknown NPC (ID: 2147778564/0x80048004))
     0x0E32 [0x04] DEPRECATED_NOP(unused=0x0480)
     0x0E35 [0x80] LOAD_WAIT(entity=Unknown NPC (ID: 2147778564/0x80048004))
     0x0E3A [0x04] DEPRECATED_NOP(unused=0x0480)
     0x0E3D [0x80] LOAD_WAIT(entity=Unknown NPC (ID: 2147778564/0x80048004))
     0x0E42 [0x04] DEPRECATED_NOP(unused=0x0480)
     0x0E45 [0x80] LOAD_WAIT(entity=Unknown NPC (ID: 2147778564/0x80048004))
     0x0E4A [0x04] DEPRECATED_NOP(unused=0x0480)
     0x0E4D [0x80] LOAD_WAIT(entity=Unknown NPC (ID: 2147778564/0x80048004))
     0x0E52 [0x04] DEPRECATED_NOP(unused=0x0480)
     0x0E55 [0x80] LOAD_WAIT(entity=Unknown NPC (ID: 2147778564/0x80048004))
     0x0E5A [0x04] DEPRECATED_NOP(unused=0x0480)
     0x0E5D [0x80] LOAD_WAIT(entity=Unknown NPC (ID: 2147778564/0x80048004))
     0x0E62 [0x04] DEPRECATED_NOP(unused=0x0480)
     0x0E65 [0x80] LOAD_WAIT(entity=Unknown NPC (ID: 2147778564/0x80048004))
     0x0E6A [0x04] DEPRECATED_NOP(unused=0x0480)
     0x0E6D [0x80] LOAD_WAIT(entity=Unknown NPC (ID: 2147778564/0x80048004))
     0x0E72 [0x04] DEPRECATED_NOP(unused=0x0480)
     0x0E75 [0x80] LOAD_WAIT(entity=Unknown NPC (ID: 2147778564/0x80048004))
     0x0E7A [0x04] DEPRECATED_NOP(unused=0x0480)
     0x0E7D [0x80] LOAD_WAIT(entity=Unknown NPC (ID: 2147778564/0x80048004))
     0x0E82 [0x04] DEPRECATED_NOP(unused=0x0480)
     0x0E85 [0x80] LOAD_WAIT(entity=Unknown NPC (ID: 2147778564/0x80048004))
     0x0E8A [0x04] DEPRECATED_NOP(unused=0x0480)
     0x0E8D [0x80] LOAD_WAIT(entity=Unknown NPC (ID: 2147778564/0x80048004))
     0x0E92 [0x04] DEPRECATED_NOP(unused=0x0480)
     0x0E95 [0x80] LOAD_WAIT(entity=Unknown NPC (ID: 2147778564/0x80048004))
     0x0E9A [0x04] DEPRECATED_NOP(unused=0x0480)
     0x0E9D [0x80] LOAD_WAIT(entity=Unknown NPC (ID: 2147778564/0x80048004))
