# 17809546 - Kagero

## Common Data

| Field            | Value          |
|------------------|----------------|
| Zone             | Norg (ID: 252) |
| Block Size       | 400 bytes      |
| Total Events     | 7              |
| References Count | 14             |

## List of Events

| Event ID                 | Entrypoint   |   Size |   Instructions |
|--------------------------|--------------|--------|----------------|
| [65535](#event-65535)    | 0x0000       |      1 |              1 |
| [284](#event-284)        | 0x0001       |      1 |              1 |
| [65535.1](#event-655351) | 0x0002       |     10 |              2 |
| [65535.2](#event-655352) | 0x000C       |     10 |              2 |
| [290](#event-290)        | 0x0016       |      1 |              1 |
| [65535.3](#event-655353) | 0x0017       |    256 |             26 |
| [65535.4](#event-655354) | 0x0117       |     21 |              2 |

## DAT References (imed_data)

|   Index | Hex Value   |   Dec Value |
|---------|-------------|-------------|
|       0 | 0x0000      |           0 |
|       1 | 0x0001      |           1 |
|       2 | 0x0080      |         128 |
|       3 | 0x003C      |          60 |
|       4 | 0x0002      |           2 |
|       5 | 0x0003      |           3 |
|       6 | 0x0004      |           4 |
|       7 | 0x0005      |           5 |
|       8 | 0x0006      |           6 |
|       9 | 0x0007      |           7 |
|      10 | 0x0008      |           8 |
|      11 | 0x000E      |          14 |
|      12 | 0x0058      |          88 |
|      13 | 0x0136      |         310 |

## Events

### Event 65535

#### Metadata

| Field        | Value   |
|--------------|---------|
| Entrypoint   | 0x0000  |
| Data Size    | 1 bytes |
| Instructions | 1       |

```
      00 01 02 03 04 05 06 07  08 09 0A 0B 0C 0D 0E 0F
      -- -- -- -- -- -- -- --  -- -- -- -- -- -- -- --
0000: 00                                                .               
```

#### Opcodes

```
  0: 0x0000 [0x00] END_REQSTACK()
```

### Event 284

#### Metadata

| Field        | Value   |
|--------------|---------|
| Entrypoint   | 0x0001  |
| Data Size    | 1 bytes |
| Instructions | 1       |

```
      00 01 02 03 04 05 06 07  08 09 0A 0B 0C 0D 0E 0F
      -- -- -- -- -- -- -- --  -- -- -- -- -- -- -- --
0000:    00                                              .              
```

#### Opcodes

```
  0: 0x0001 [0x00] END_REQSTACK()
```

### Event 65535.1

#### Metadata

| Field        | Value    |
|--------------|----------|
| Entrypoint   | 0x0002   |
| Data Size    | 10 bytes |
| Instructions | 2        |

```
      00 01 02 03 04 05 06 07  08 09 0A 0B 0C 0D 0E 0F
      -- -- -- -- -- -- -- --  -- -- -- -- -- -- -- --
0000:       6C F8 FF FF 7F 00  80 01 80 00                l.........    
```

#### Opcodes

```
  0: 0x0002 [0x6C] FADE_ENTITY_COLOR(entity_id=EventEntity, end_alpha=0*, fade_time=1*)
  1: 0x000B [0x00] END_REQSTACK()
```

### Event 65535.2

#### Metadata

| Field        | Value    |
|--------------|----------|
| Entrypoint   | 0x000C   |
| Data Size    | 10 bytes |
| Instructions | 2        |

```
      00 01 02 03 04 05 06 07  08 09 0A 0B 0C 0D 0E 0F
      -- -- -- -- -- -- -- --  -- -- -- -- -- -- -- --
0000:                                      6C F8 FF FF              l...
0010: 7F 02 80 03 80 00                                 ......          
```

#### Opcodes

```
  0: 0x000C [0x6C] FADE_ENTITY_COLOR(entity_id=EventEntity, end_alpha=128*, fade_time=60*)
  1: 0x0015 [0x00] END_REQSTACK()
```

### Event 290

#### Metadata

| Field        | Value   |
|--------------|---------|
| Entrypoint   | 0x0016  |
| Data Size    | 1 bytes |
| Instructions | 1       |

```
      00 01 02 03 04 05 06 07  08 09 0A 0B 0C 0D 0E 0F
      -- -- -- -- -- -- -- --  -- -- -- -- -- -- -- --
0010:                   00                                    .         
```

#### Opcodes

```
  0: 0x0016 [0x00] END_REQSTACK()
```

### Event 65535.3

#### Metadata

| Field        | Value     |
|--------------|-----------|
| Entrypoint   | 0x0017    |
| Data Size    | 256 bytes |
| Instructions | 26        |

```
      00 01 02 03 04 05 06 07  08 09 0A 0B 0C 0D 0E 0F
      -- -- -- -- -- -- -- --  -- -- -- -- -- -- -- --
0010:                      29  10 F0 FF FF 7F 3B 02 02         ).....;..
0020: 10 01 80 80 3D 00 B6 0B  01 80 03 10 04 10 05 10  ....=...........
0030: 06 10 07 10 08 10 00 80  00 80 01 16 01 02 02 10  ................
0040: 04 80 80 5C 00 B6 0B 04  80 03 10 04 10 05 10 06  ...\............
0050: 10 07 10 08 10 00 80 00  80 01 16 01 02 02 10 05  ................
0060: 80 80 7B 00 B6 0B 05 80  03 10 04 10 05 10 06 10  ..{.............
0070: 07 10 08 10 00 80 00 80  01 16 01 02 02 10 06 80  ................
0080: 80 9A 00 B6 0B 06 80 03  10 04 10 05 10 06 10 07  ................
0090: 10 08 10 00 80 00 80 01  16 01 02 02 10 07 80 80  ................
00A0: B9 00 B6 0B 07 80 03 10  04 10 05 10 06 10 07 10  ................
00B0: 08 10 00 80 00 80 01 16  01 02 02 10 08 80 80 D8  ................
00C0: 00 B6 0B 08 80 03 10 04  10 05 10 06 10 07 10 08  ................
00D0: 10 00 80 00 80 01 16 01  02 02 10 09 80 80 F7 00  ................
00E0: B6 0B 09 80 03 10 04 10  05 10 06 10 07 10 08 10  ................
00F0: 00 80 00 80 01 16 01 02  02 10 0A 80 80 16 01 B6  ................
0100: 0B 0A 80 03 10 04 10 05  10 06 10 07 10 08 10 00  ................
0110: 80 00 80 01 16 01 00                              .......         
```

#### Opcodes

```
  0: 0x0017 [0x29] REQ_SET_WAIT(priority=0x10, entity_id=LocalPlayer, tag_num=0x3B)
  1: 0x001E [0x02] IF !(Work_Zone[2] == 1*) GOTO 0x003D
  2: 0x0026 [0xB6] ENTITY_APPEARANCE_HANDLER(case=Full entity look, race=1*, hair=Work_Zone[3], head=Work_Zone[4], body=Work_Zone[5], hands=Work_Zone[6], legs=Work_Zone[7], feet=Work_Zone[8], main=0*, sub=0*)
  3: 0x003A [0x01] GOTO 0x0116
  4: 0x003D [0x02] IF !(Work_Zone[2] == 2*) GOTO 0x005C
  5: 0x0045 [0xB6] ENTITY_APPEARANCE_HANDLER(case=Full entity look, race=2*, hair=Work_Zone[3], head=Work_Zone[4], body=Work_Zone[5], hands=Work_Zone[6], legs=Work_Zone[7], feet=Work_Zone[8], main=0*, sub=0*)
  6: 0x0059 [0x01] GOTO 0x0116
  7: 0x005C [0x02] IF !(Work_Zone[2] == 3*) GOTO 0x007B
  8: 0x0064 [0xB6] ENTITY_APPEARANCE_HANDLER(case=Full entity look, race=3*, hair=Work_Zone[3], head=Work_Zone[4], body=Work_Zone[5], hands=Work_Zone[6], legs=Work_Zone[7], feet=Work_Zone[8], main=0*, sub=0*)
  9: 0x0078 [0x01] GOTO 0x0116
 10: 0x007B [0x02] IF !(Work_Zone[2] == 4*) GOTO 0x009A
 11: 0x0083 [0xB6] ENTITY_APPEARANCE_HANDLER(case=Full entity look, race=4*, hair=Work_Zone[3], head=Work_Zone[4], body=Work_Zone[5], hands=Work_Zone[6], legs=Work_Zone[7], feet=Work_Zone[8], main=0*, sub=0*)
 12: 0x0097 [0x01] GOTO 0x0116
 13: 0x009A [0x02] IF !(Work_Zone[2] == 5*) GOTO 0x00B9
 14: 0x00A2 [0xB6] ENTITY_APPEARANCE_HANDLER(case=Full entity look, race=5*, hair=Work_Zone[3], head=Work_Zone[4], body=Work_Zone[5], hands=Work_Zone[6], legs=Work_Zone[7], feet=Work_Zone[8], main=0*, sub=0*)
 15: 0x00B6 [0x01] GOTO 0x0116
 16: 0x00B9 [0x02] IF !(Work_Zone[2] == 6*) GOTO 0x00D8
 17: 0x00C1 [0xB6] ENTITY_APPEARANCE_HANDLER(case=Full entity look, race=6*, hair=Work_Zone[3], head=Work_Zone[4], body=Work_Zone[5], hands=Work_Zone[6], legs=Work_Zone[7], feet=Work_Zone[8], main=0*, sub=0*)
 18: 0x00D5 [0x01] GOTO 0x0116
 19: 0x00D8 [0x02] IF !(Work_Zone[2] == 7*) GOTO 0x00F7
 20: 0x00E0 [0xB6] ENTITY_APPEARANCE_HANDLER(case=Full entity look, race=7*, hair=Work_Zone[3], head=Work_Zone[4], body=Work_Zone[5], hands=Work_Zone[6], legs=Work_Zone[7], feet=Work_Zone[8], main=0*, sub=0*)
 21: 0x00F4 [0x01] GOTO 0x0116
 22: 0x00F7 [0x02] IF !(Work_Zone[2] == 8*) GOTO 0x0116
 23: 0x00FF [0xB6] ENTITY_APPEARANCE_HANDLER(case=Full entity look, race=8*, hair=Work_Zone[3], head=Work_Zone[4], body=Work_Zone[5], hands=Work_Zone[6], legs=Work_Zone[7], feet=Work_Zone[8], main=0*, sub=0*)
 24: 0x0113 [0x01] GOTO 0x0116

SUBROUTINE_0116:
 25: 0x0116 [0x00] END_REQSTACK()
```

### Event 65535.4

#### Metadata

| Field        | Value    |
|--------------|----------|
| Entrypoint   | 0x0117   |
| Data Size    | 21 bytes |
| Instructions | 2        |

```
      00 01 02 03 04 05 06 07  08 09 0A 0B 0C 0D 0E 0F
      -- -- -- -- -- -- -- --  -- -- -- -- -- -- -- --
0110:                      B6  0B 04 80 0B 80 0C 80 0C         .........
0120: 80 0C 80 0C 80 0C 80 0D  80 00 80 00              ............    
```

#### Opcodes

```
  0: 0x0117 [0xB6] ENTITY_APPEARANCE_HANDLER(case=Full entity look, race=2*, hair=14*, head=88*, body=88*, hands=88*, legs=88*, feet=88*, main=310*, sub=0*)
  1: 0x012B [0x00] END_REQSTACK()
```
