# 17809422 - Gimb

## Common Data

| Field            | Value          |
|------------------|----------------|
| Zone             | Norg (ID: 252) |
| Block Size       | 516 bytes      |
| Total Events     | 9              |
| References Count | 23             |

## List of Events

| Event ID                 | Entrypoint   |   Size |   Instructions |
|--------------------------|--------------|--------|----------------|
| [65535](#event-65535)    | 0x0000       |      1 |              1 |
| [69](#event-69)          | 0x0001       |    247 |             39 |
| [175](#event-175)        | 0x00F8       |      1 |              1 |
| [0](#event-0)            | 0x00F9       |      1 |              1 |
| [1](#event-1)            | 0x00FA       |      1 |              1 |
| [65535.1](#event-655351) | 0x00FB       |     61 |             10 |
| [211](#event-211)        | 0x0138       |      1 |              1 |
| [65535.2](#event-655352) | 0x0139       |     44 |              5 |
| [65535.3](#event-655353) | 0x0165       |     15 |              5 |

## DAT References (imed_data)

|   Index | Hex Value   |   Dec Value |
|---------|-------------|-------------|
|       0 | 0x04AD      |        1197 |
|       1 | 0x2878      |       10360 |
|       2 | 0x2879      |       10361 |
|       3 | 0x0000      |           0 |
|       4 | 0x000A      |          10 |
|       5 | 0x0014      |          20 |
|       6 | 0x001E      |          30 |
|       7 | 0x0028      |          40 |
|       8 | 0x0032      |          50 |
|       9 | 0x003C      |          60 |
|      10 | 0x0005      |           5 |
|      11 | 0x0050      |          80 |
|      12 | 0x00EE      |         238 |
|      13 | 0x0236      |         566 |
|      14 | 0x0181      |         385 |
|      15 | 0x000F      |          15 |
|      16 | 0x000D      |          13 |
|      17 | 0xFFFFE3FA  |  4294960122 |
|      18 | 0xFFFF512F  |  4294922543 |
|      19 | 0xFFFFFC40  |  4294966336 |
|      20 | 0xFFFFE81A  |  4294961178 |
|      21 | 0xFFFF5825  |  4294924325 |
|      22 | 0xFFFFFC2C  |  4294966316 |

## String References

- **10360**: Deep within the Sea Serpent Grotto, the Sahagin have built a special door that can only be opened with $1.
- **10361**: Ya say ya want $1? Ha! Why don't ya try askin' one of the lil' devils?

## Events

### Event 65535

#### Metadata

| Field        | Value   |
|--------------|---------|
| Entrypoint   | 0x0000  |
| Data Size    | 1 bytes |
| Instructions | 1       |

```
      00 01 02 03 04 05 06 07  08 09 0A 0B 0C 0D 0E 0F
      -- -- -- -- -- -- -- --  -- -- -- -- -- -- -- --
0000: 00                                                .               
```

#### Opcodes

```
  0: 0x0000 [0x00] END_REQSTACK()
```

### Event 69

#### Metadata

| Field        | Value     |
|--------------|-----------|
| Entrypoint   | 0x0001    |
| Data Size    | 247 bytes |
| Instructions | 8         |

```
      00 01 02 03 04 05 06 07  08 09 0A 0B 0C 0D 0E 0F
      -- -- -- -- -- -- -- --  -- -- -- -- -- -- -- --
0000:    79 00 F8 FF FF 7F F0  FF FF 7F 03 03 10 00 80   y..............
0010: 1D 01 80 23 1D 02 80 23  21 00 86 00 F8 FF FF 7F  ...#...#!.......
0020: 1E F0 FF FF 7F 6F 70 1B  66 03 80 F8 FF FF 7F F8  .....op.f.......
0030: FF FF 7F 74 6C 6B 30 1B  66 03 80 F8 FF FF 7F F8  ...tlk0.f.......
0040: FF FF 7F 74 6C 6B 31 1B  66 04 80 F8 FF FF 7F F8  ...tlk1.f.......
0050: FF FF 7F 74 6C 6B 30 1B  66 05 80 F8 FF FF 7F F8  ...tlk0.f.......
0060: FF FF 7F 74 6C 6B 30 1B  66 06 80 F8 FF FF 7F F8  ...tlk0.f.......
0070: FF FF 7F 74 6C 6B 30 1B  66 07 80 F8 FF FF 7F F8  ...tlk0.f.......
0080: FF FF 7F 74 6C 6B 30 1B  66 08 80 F8 FF FF 7F F8  ...tlk0.f.......
0090: FF FF 7F 74 6C 6B 30 1B  66 09 80 F8 FF FF 7F F8  ...tlk0.f.......
00A0: FF FF 7F 74 6C 6B 30 1B  5B 0A 80 F8 FF FF 7F F8  ...tlk0.[.......
00B0: FF FF 7F 74 6C 6B 30 1B  5B 0B 80 F8 FF FF 7F F8  ...tlk0.[.......
00C0: FF FF 7F 74 6C 6B 30 1B  5B 0C 80 F8 FF FF 7F F8  ...tlk0.[.......
00D0: FF FF 7F 74 6C 6B 30 1B  5B 0D 80 F8 FF FF 7F F8  ...tlk0.[.......
00E0: FF FF 7F 74 6C 6B 30 1B  5B 09 80 F8 FF FF 7F F8  ...tlk0.[.......
00F0: FF FF 7F 74 6C 62 30 1B                           ...tlb0.        
```

#### Opcodes

```
  0: 0x0001 [0x79] EventEntity looks at LocalPlayer (Basic look)
  1: 0x000B [0x03] Work_Zone[3] = 1197*
  2: 0x0010 [0x1D] PRINT_EVENT_MESSAGE(message_id=10360*)
    → "Deep within the Sea Serpent Grotto, the Sahagin have built a special door that can only be opened with $1."
  3: 0x0013 [0x23] WAIT_FOR_DIALOG_INTERACTION
  4: 0x0014 [0x1D] PRINT_EVENT_MESSAGE(message_id=10361*)
    → "Ya say ya want $1? Ha! Why don't ya try askin' one of the lil' devils?"
  5: 0x0017 [0x23] WAIT_FOR_DIALOG_INTERACTION
  6: 0x0018 [0x21] END_EVENT
  7: 0x0019 [0x00] END_REQSTACK()
```

#### Data or dead code:

```
# Dead code (unreachable instructions):
     0x001A [0x86] EventEntity->Render.Flags3 = Flags3  // No change (flag=0)
     0x0020 [0x1E] EventEntity looks at LocalPlayer and starts talking
     0x0025 [0x6F] WAIT_FRAME_DELAY: Yield until WaitTime reaches zero
     0x0026 [0x70] WAIT_ENTITY_RENDER_FLAG: Wait while EventEntity->Render.Flags3 bit 2 is set (cancel turn if not)
     0x0027 [0x1B] RETURN
     0x0028 [0x66] LOAD_EXT_SCHEDULER_MAIN: Load scheduler "tlk0" with entities [EventEntity, EventEntity], work=0*
     0x0037 [0x1B] RETURN
     0x0038 [0x66] LOAD_EXT_SCHEDULER_MAIN: Load scheduler "tlk1" with entities [EventEntity, EventEntity], work=0*
     0x0047 [0x1B] RETURN
     0x0048 [0x66] LOAD_EXT_SCHEDULER_MAIN: Load scheduler "tlk0" with entities [EventEntity, EventEntity], work=10*
     0x0057 [0x1B] RETURN
     0x0058 [0x66] LOAD_EXT_SCHEDULER_MAIN: Load scheduler "tlk0" with entities [EventEntity, EventEntity], work=20*
     0x0067 [0x1B] RETURN
     0x0068 [0x66] LOAD_EXT_SCHEDULER_MAIN: Load scheduler "tlk0" with entities [EventEntity, EventEntity], work=30*
     0x0077 [0x1B] RETURN
     0x0078 [0x66] LOAD_EXT_SCHEDULER_MAIN: Load scheduler "tlk0" with entities [EventEntity, EventEntity], work=40*
     0x0087 [0x1B] RETURN
     0x0088 [0x66] LOAD_EXT_SCHEDULER_MAIN: Load scheduler "tlk0" with entities [EventEntity, EventEntity], work=50*
     0x0097 [0x1B] RETURN
     0x0098 [0x66] LOAD_EXT_SCHEDULER_MAIN: Load scheduler "tlk0" with entities [EventEntity, EventEntity], work=60*
     0x00A7 [0x1B] RETURN
     0x00A8 [0x5B] LOAD_EXT_SCHEDULER: Load scheduler "tlk0" with entities [EventEntity, EventEntity], work=5*
     0x00B7 [0x1B] RETURN
     0x00B8 [0x5B] LOAD_EXT_SCHEDULER: Load scheduler "tlk0" with entities [EventEntity, EventEntity], work=80*
     0x00C7 [0x1B] RETURN
     0x00C8 [0x5B] LOAD_EXT_SCHEDULER: Load scheduler "tlk0" with entities [EventEntity, EventEntity], work=238*
     0x00D7 [0x1B] RETURN
     0x00D8 [0x5B] LOAD_EXT_SCHEDULER: Load scheduler "tlk0" with entities [EventEntity, EventEntity], work=566*
     0x00E7 [0x1B] RETURN
     0x00E8 [0x5B] LOAD_EXT_SCHEDULER: Load scheduler "tlb0" with entities [EventEntity, EventEntity], work=60*
     0x00F7 [0x1B] RETURN
```

### Event 175

#### Metadata

| Field        | Value   |
|--------------|---------|
| Entrypoint   | 0x00F8  |
| Data Size    | 1 bytes |
| Instructions | 1       |

```
      00 01 02 03 04 05 06 07  08 09 0A 0B 0C 0D 0E 0F
      -- -- -- -- -- -- -- --  -- -- -- -- -- -- -- --
00F0:                          00                               .       
```

#### Opcodes

```
  0: 0x00F8 [0x00] END_REQSTACK()
```

### Event 0

#### Metadata

| Field        | Value   |
|--------------|---------|
| Entrypoint   | 0x00F9  |
| Data Size    | 1 bytes |
| Instructions | 1       |

```
      00 01 02 03 04 05 06 07  08 09 0A 0B 0C 0D 0E 0F
      -- -- -- -- -- -- -- --  -- -- -- -- -- -- -- --
00F0:                             00                             .      
```

#### Opcodes

```
  0: 0x00F9 [0x00] END_REQSTACK()
```

### Event 1

#### Metadata

| Field        | Value   |
|--------------|---------|
| Entrypoint   | 0x00FA  |
| Data Size    | 1 bytes |
| Instructions | 1       |

```
      00 01 02 03 04 05 06 07  08 09 0A 0B 0C 0D 0E 0F
      -- -- -- -- -- -- -- --  -- -- -- -- -- -- -- --
00F0:                                00                           .     
```

#### Opcodes

```
  0: 0x00FA [0x00] END_REQSTACK()
```

### Event 65535.1

#### Metadata

| Field        | Value    |
|--------------|----------|
| Entrypoint   | 0x00FB   |
| Data Size    | 61 bytes |
| Instructions | 10       |

```
      00 01 02 03 04 05 06 07  08 09 0A 0B 0C 0D 0E 0F
      -- -- -- -- -- -- -- --  -- -- -- -- -- -- -- --
00F0:                                   79 00 F8 FF FF             y....
0100: 7F F0 FF FF 7F 5B 0E 80  F8 FF FF 7F F8 FF FF 7F  .....[..........
0110: 6B 61 62 31 53 F8 FF FF  7F F8 FF FF 7F 6B 61 62  kab1S........kab
0120: 31 5E 69 64 6C 30 1C 0F  80 32 10 80 1F 00 11 80  1^idl0...2......
0130: 12 80 13 80 1F 01 6F 00                           ......o.        
```

#### Opcodes

```
  0: 0x00FB [0x79] EventEntity looks at LocalPlayer (Basic look)
  1: 0x0105 [0x5B] LOAD_EXT_SCHEDULER: Load scheduler "kab1" with entities [EventEntity, EventEntity], work=385*
  2: 0x0114 [0x53] WAIT_SCHEDULER_TASK: Wait for scheduler "kab1" with entities [EventEntity, EventEntity]
  3: 0x0121 [0x5E] EventEntity goes idle (kills current action) (animation: "idl0")
  4: 0x0126 [0x1C] WAIT(15* ticks)
  5: 0x0129 [0x32] ExtData[1]->MainSpeed = 13* * 0.1
  6: 0x012C [0x1F] MOVE_ENTITY: EventEntity moves to X=-7.174*, Z=-44.753*, Y=-0.960*
  7: 0x0134 [0x1F] MOVE_ENTITY: Update entity position (mode=1)
  8: 0x0136 [0x6F] WAIT_FRAME_DELAY: Yield until WaitTime reaches zero
  9: 0x0137 [0x00] END_REQSTACK()
```

### Event 211

#### Metadata

| Field        | Value   |
|--------------|---------|
| Entrypoint   | 0x0138  |
| Data Size    | 1 bytes |
| Instructions | 1       |

```
      00 01 02 03 04 05 06 07  08 09 0A 0B 0C 0D 0E 0F
      -- -- -- -- -- -- -- --  -- -- -- -- -- -- -- --
0130:                          00                               .       
```

#### Opcodes

```
  0: 0x0138 [0x00] END_REQSTACK()
```

### Event 65535.2

#### Metadata

| Field        | Value    |
|--------------|----------|
| Entrypoint   | 0x0139   |
| Data Size    | 44 bytes |
| Instructions | 5        |

```
      00 01 02 03 04 05 06 07  08 09 0A 0B 0C 0D 0E 0F
      -- -- -- -- -- -- -- --  -- -- -- -- -- -- -- --
0130:                             79 00 F8 FF FF 7F F0           y......
0140: FF FF 7F 5B 0E 80 F8 FF  FF 7F F8 FF FF 7F 6B 61  ...[..........ka
0150: 62 31 53 F8 FF FF 7F F8  FF FF 7F 6B 61 62 31 5E  b1S........kab1^
0160: 69 64 6C 30 00                                    idl0.           
```

#### Opcodes

```
  0: 0x0139 [0x79] EventEntity looks at LocalPlayer (Basic look)
  1: 0x0143 [0x5B] LOAD_EXT_SCHEDULER: Load scheduler "kab1" with entities [EventEntity, EventEntity], work=385*
  2: 0x0152 [0x53] WAIT_SCHEDULER_TASK: Wait for scheduler "kab1" with entities [EventEntity, EventEntity]
  3: 0x015F [0x5E] EventEntity goes idle (kills current action) (animation: "idl0")
  4: 0x0164 [0x00] END_REQSTACK()
```

### Event 65535.3

#### Metadata

| Field        | Value    |
|--------------|----------|
| Entrypoint   | 0x0165   |
| Data Size    | 15 bytes |
| Instructions | 5        |

```
      00 01 02 03 04 05 06 07  08 09 0A 0B 0C 0D 0E 0F
      -- -- -- -- -- -- -- --  -- -- -- -- -- -- -- --
0160:                32 07 80  1F 00 14 80 15 80 16 80       2..........
0170: 1F 01 6F 00                                       ..o.            
```

#### Opcodes

```
  0: 0x0165 [0x32] ExtData[1]->MainSpeed = 40* * 0.1
  1: 0x0168 [0x1F] MOVE_ENTITY: EventEntity moves to X=-6.118*, Z=-42.971*, Y=-0.980*
  2: 0x0170 [0x1F] MOVE_ENTITY: Update entity position (mode=1)
  3: 0x0172 [0x6F] WAIT_FRAME_DELAY: Yield until WaitTime reaches zero
  4: 0x0173 [0x00] END_REQSTACK()
```
