# 17809526 - Andrause

## Common Data

| Field            | Value          |
|------------------|----------------|
| Zone             | Norg (ID: 252) |
| Block Size       | 888 bytes      |
| Total Events     | 7              |
| References Count | 37             |

## List of Events

| Event ID              | Entrypoint   |   Size |   Instructions |
|-----------------------|--------------|--------|----------------|
| [65535](#event-65535) | 0x0000       |      1 |              1 |
| [237](#event-237)     | 0x0001       |    276 |             79 |
| [238](#event-238)     | 0x0115       |    150 |             42 |
| [239](#event-239)     | 0x01AB       |     13 |              7 |
| [240](#event-240)     | 0x01B8       |     13 |              7 |
| [241](#event-241)     | 0x01C5       |    229 |             59 |
| [242](#event-242)     | 0x02AA       |     13 |              7 |

## DAT References (imed_data)

|   Index | Hex Value   |   Dec Value |
|---------|-------------|-------------|
|       0 | 0x0000      |           0 |
|       1 | 0x26E6      |        9958 |
|       2 | 0x26E8      |        9960 |
|       3 | 0x26E7      |        9959 |
|       4 | 0x26E9      |        9961 |
|       5 | 0x0002      |           2 |
|       6 | 0x26EA      |        9962 |
|       7 | 0x26EB      |        9963 |
|       8 | 0x0004      |           4 |
|       9 | 0x26EC      |        9964 |
|      10 | 0x26ED      |        9965 |
|      11 | 0x0001      |           1 |
|      12 | 0x26EE      |        9966 |
|      13 | 0x0006      |           6 |
|      14 | 0x26F3      |        9971 |
|      15 | 0x26F4      |        9972 |
|      16 | 0x0005      |           5 |
|      17 | 0x26F5      |        9973 |
|      18 | 0x26F0      |        9968 |
|      19 | 0x26FC      |        9980 |
|      20 | 0x26FB      |        9979 |
|      21 | 0x0003      |           3 |
|      22 | 0x26FA      |        9978 |
|      23 | 0x26FE      |        9982 |
|      24 | 0x26FF      |        9983 |
|      25 | 0x0007      |           7 |
|      26 | 0x26F1      |        9969 |
|      27 | 0x0008      |           8 |
|      28 | 0x26F8      |        9976 |
|      29 | 0x26F9      |        9977 |
|      30 | 0x000D      |          13 |
|      31 | 0x26F7      |        9975 |
|      32 | 0x000A      |          10 |
|      33 | 0x000B      |          11 |
|      34 | 0x000C      |          12 |
|      35 | 0x26F2      |        9970 |
|      36 | 0x26FD      |        9981 |

## String References

- **9958**: You... Yes, the description fits. I daresay, you're the one "she" sent, yes?
- **9959**: Can I count on you to aid my investigation once more?
- **9960**: At my client's behest, I have procured the item you require. But alas, doing so drained far more of my time and resources than had been reckoned. As recompense for having exerted undue effort, I would ask a favor of you. Do as I say, and you may consider the item yours.
- **9961**: Do as he says? [Yes./No.]
- **9962**: Very good. I knew I could count on us being on the same page. Now then, without further ado, I shall explain the task to you. It truly is simple.
- **9963**: You are to investigate a number of creatures dwelling within the Sea Serpent Grotto in my stead.
- **9964**: Should you not possess $0 and $1, I can furnish you with both for a nominal fee of 800 gil.
- **9965**: Using the $0 will turn $1 into $2--a visual record of the subject's physical characteristics.
- **9966**: I'm currently investigating the %0, the %1, and the %2.
- **9968**: That is most disappointing... "She" would not be pleased to hear of this.
- **9969**: Ah, yes...
- **9970**: A truly menacing image of the %0! All that remains, then, is one each of the %1 and the %2.
- **9971**: Do you require $1 and $2? I can provide you with both for a nominal fee of 800 gil.
- **9972**: Buy for 800 gil? (You have $3) [Yes, please./No, thank you.]
- **9973**: Should you not possess $0 and $1, I can furnish you with both for a nominal fee. I've recently depleted my stores, however, so you will have to wait until the next shipment arrives.
- **9975**: Ah, a positively imposing image of the %0! All that remains, then, is one of the %1.
- **9976**: I've eagerly awaited your return. With this image of the %0, I hold your task fulfilled.
- **9977**: As promised, I relinquish this to you. Should another be required, you shall find me here.
- **9978**: I need images of the %0, the %1, and the %2.
- **9979**: You've yet to bring me images of the %0 and the %1.
- **9980**: You've yet to bring me an image of the %0.
- **9981**: A fine image this is, but this creature isn't one of my investigation subjects.
- **9982**: I fear I haven't the time to trade pleasantries with random strangers. Please leave me be.
- **9983**: Is there something else you wish of me? You already have what you came for, no?

## Events

### Event 65535

#### Metadata

| Field        | Value   |
|--------------|---------|
| Entrypoint   | 0x0000  |
| Data Size    | 1 bytes |
| Instructions | 1       |

```
      00 01 02 03 04 05 06 07  08 09 0A 0B 0C 0D 0E 0F
      -- -- -- -- -- -- -- --  -- -- -- -- -- -- -- --
0000: 00                                                .               
```

#### Opcodes

```
  0: 0x0000 [0x00] END_REQSTACK()
```

### Event 237

#### Metadata

| Field        | Value     |
|--------------|-----------|
| Entrypoint   | 0x0001    |
| Data Size    | 276 bytes |
| Instructions | 79        |

```
      00 01 02 03 04 05 06 07  08 09 0A 0B 0C 0D 0E 0F
      -- -- -- -- -- -- -- --  -- -- -- -- -- -- -- --
0000:    03 00 00 02 10 03 01  00 03 10 03 02 00 04 10   ...............
0010: 03 03 00 05 10 03 04 00  06 10 03 05 00 07 10 03  ................
0020: 06 00 08 10 03 07 00 09  10 1E F0 FF FF 7F 6F 70  ..............op
0030: 02 00 00 00 80 00 43 00  1D 01 80 23 1D 02 80 23  ......C....#...#
0040: 01 47 00 1D 03 80 23 24  04 80 00 80 00 80 25 02  .G....#$......%.
0050: 00 10 00 80 00 FA 00 03  01 10 05 80 43 00 43 01  ............C.C.
0060: 03 00 00 02 10 02 00 00  00 80 00 75 00 1D 06 80  ...........u....
0070: 23 1D 07 80 23 03 01 10  08 80 43 00 43 01 1D 09  #...#.....C.C...
0080: 80 23 03 01 10 08 80 43  00 43 01 1D 0A 80 23 03  .#.....C.C....#.
0090: 01 10 0B 80 43 00 43 01  1D 0C 80 23 03 01 10 0D  ....C.C....#....
00A0: 80 43 00 43 01 02 02 10  00 80 00 E5 00 1D 0E 80  .C.C............
00B0: 23 24 0F 80 0B 80 00 80  25 02 00 10 00 80 00 D2  #$......%.......
00C0: 00 03 01 10 10 80 43 00  43 01 03 01 10 00 80 01  ......C.C.......
00D0: E2 00 02 00 10 0B 80 00  E2 00 03 01 10 00 80 01  ................
00E0: E2 00 01 F7 00 03 01 10  08 80 43 00 43 01 1D 11  ..........C.C...
00F0: 80 23 03 01 10 00 80 01  0E 01 02 00 10 0B 80 00  .#..............
0100: 0E 01 1D 12 80 23 03 01  10 00 80 01 0E 01 5E 69  .....#........^i
0110: 64 6C 30 21 00                                    dl0!.           
```

#### Opcodes

```
  0: 0x0001 [0x03] ExtData[1]->WorkLocal[0] = Work_Zone[2]
  1: 0x0006 [0x03] ExtData[1]->WorkLocal[1] = Work_Zone[3]
  2: 0x000B [0x03] ExtData[1]->WorkLocal[2] = Work_Zone[4]
  3: 0x0010 [0x03] ExtData[1]->WorkLocal[3] = Work_Zone[5]
  4: 0x0015 [0x03] ExtData[1]->WorkLocal[4] = Work_Zone[6]
  5: 0x001A [0x03] ExtData[1]->WorkLocal[5] = Work_Zone[7]
  6: 0x001F [0x03] ExtData[1]->WorkLocal[6] = Work_Zone[8]
  7: 0x0024 [0x03] ExtData[1]->WorkLocal[7] = Work_Zone[9]
  8: 0x0029 [0x1E] EventEntity looks at LocalPlayer and starts talking
  9: 0x002E [0x6F] WAIT_FRAME_DELAY: Yield until WaitTime reaches zero
 10: 0x002F [0x70] WAIT_ENTITY_RENDER_FLAG: Wait while EventEntity->Render.Flags3 bit 2 is set (cancel turn if not)
 11: 0x0030 [0x02] IF !(ExtData[1]->WorkLocal[0] == 0*) GOTO 0x0043
 12: 0x0038 [0x1D] PRINT_EVENT_MESSAGE(message_id=9958*)
    → "You... Yes, the description fits. I daresay, you're the one "she" sent, yes?"
 13: 0x003B [0x23] WAIT_FOR_DIALOG_INTERACTION
 14: 0x003C [0x1D] PRINT_EVENT_MESSAGE(message_id=9960*)
    → "At my client's behest, I have procured the item you require. But alas, doing so drained far more of my time and resources than had been reckoned. As recompense for having exerted undue effort, I would ask a favor of you. Do as I say, and you may consider the item yours."
 15: 0x003F [0x23] WAIT_FOR_DIALOG_INTERACTION
 16: 0x0040 [0x01] GOTO 0x0047
 17: 0x0043 [0x1D] PRINT_EVENT_MESSAGE(message_id=9959*)
    → "Can I count on you to aid my investigation once more?"
 18: 0x0046 [0x23] WAIT_FOR_DIALOG_INTERACTION

SUBROUTINE_0047:
 19: 0x0047 [0x24] CREATE_DIALOG(message_id=9961*, default_option=0*, option_flags=0*)
    → "Do as he says? [Yes./No.]"
 20: 0x004E [0x25] WAIT_DIALOG_SELECT()
 21: 0x004F [0x02] IF !(Work_Zone[0] == 0*) GOTO 0x00FA
 22: 0x0057 [0x03] Work_Zone[1] = 2*
 23: 0x005C [0x43] SEND_EVENT_UPDATE: Send pending tag to server (packet 0x005B)
 24: 0x005E [0x43] SEND_EVENT_UPDATE: Check pending flag (skip if not pending)
 25: 0x0060 [0x03] ExtData[1]->WorkLocal[0] = Work_Zone[2]
 26: 0x0065 [0x02] IF !(ExtData[1]->WorkLocal[0] == 0*) GOTO 0x0075
 27: 0x006D [0x1D] PRINT_EVENT_MESSAGE(message_id=9962*)
    → "Very good. I knew I could count on us being on the same page. Now then, without further ado, I shall explain the task to you. It truly is simple."
 28: 0x0070 [0x23] WAIT_FOR_DIALOG_INTERACTION
 29: 0x0071 [0x1D] PRINT_EVENT_MESSAGE(message_id=9963*)
    → "You are to investigate a number of creatures dwelling within the Sea Serpent Grotto in my stead."
 30: 0x0074 [0x23] WAIT_FOR_DIALOG_INTERACTION
 31: 0x0075 [0x03] Work_Zone[1] = 4*
 32: 0x007A [0x43] SEND_EVENT_UPDATE: Send pending tag to server (packet 0x005B)
 33: 0x007C [0x43] SEND_EVENT_UPDATE: Check pending flag (skip if not pending)
 34: 0x007E [0x1D] PRINT_EVENT_MESSAGE(message_id=9964*)
    → "Should you not possess $0 and $1, I can furnish you with both for a nominal fee of 800 gil."
 35: 0x0081 [0x23] WAIT_FOR_DIALOG_INTERACTION
 36: 0x0082 [0x03] Work_Zone[1] = 4*
 37: 0x0087 [0x43] SEND_EVENT_UPDATE: Send pending tag to server (packet 0x005B)
 38: 0x0089 [0x43] SEND_EVENT_UPDATE: Check pending flag (skip if not pending)
 39: 0x008B [0x1D] PRINT_EVENT_MESSAGE(message_id=9965*)
    → "Using the $0 will turn $1 into $2--a visual record of the subject's physical characteristics."
 40: 0x008E [0x23] WAIT_FOR_DIALOG_INTERACTION
 41: 0x008F [0x03] Work_Zone[1] = 1*
 42: 0x0094 [0x43] SEND_EVENT_UPDATE: Send pending tag to server (packet 0x005B)
 43: 0x0096 [0x43] SEND_EVENT_UPDATE: Check pending flag (skip if not pending)
 44: 0x0098 [0x1D] PRINT_EVENT_MESSAGE(message_id=9966*)
    → "I'm currently investigating the %0, the %1, and the %2."
 45: 0x009B [0x23] WAIT_FOR_DIALOG_INTERACTION
 46: 0x009C [0x03] Work_Zone[1] = 6*
 47: 0x00A1 [0x43] SEND_EVENT_UPDATE: Send pending tag to server (packet 0x005B)
 48: 0x00A3 [0x43] SEND_EVENT_UPDATE: Check pending flag (skip if not pending)
 49: 0x00A5 [0x02] IF !(Work_Zone[2] == 0*) GOTO 0x00E5
 50: 0x00AD [0x1D] PRINT_EVENT_MESSAGE(message_id=9971*)
    → "Do you require $1 and $2? I can provide you with both for a nominal fee of 800 gil."
 51: 0x00B0 [0x23] WAIT_FOR_DIALOG_INTERACTION
 52: 0x00B1 [0x24] CREATE_DIALOG(message_id=9972*, default_option=1*, option_flags=0*)
    → "Buy for 800 gil? (You have $3) [Yes, please./No, thank you.]"
 53: 0x00B8 [0x25] WAIT_DIALOG_SELECT()
 54: 0x00B9 [0x02] IF !(Work_Zone[0] == 0*) GOTO 0x00D2
 55: 0x00C1 [0x03] Work_Zone[1] = 5*
 56: 0x00C6 [0x43] SEND_EVENT_UPDATE: Send pending tag to server (packet 0x005B)
 57: 0x00C8 [0x43] SEND_EVENT_UPDATE: Check pending flag (skip if not pending)
 58: 0x00CA [0x03] Work_Zone[1] = 0*
 59: 0x00CF [0x01] GOTO 0x00E2
 60: 0x00D2 [0x02] IF !(Work_Zone[0] == 1*) GOTO 0x00E2
 61: 0x00DA [0x03] Work_Zone[1] = 0*
 62: 0x00DF [0x01] GOTO 0x00E2

SUBROUTINE_00E2:
 63: 0x00E2 [0x01] GOTO 0x00F7
 64: 0x00E5 [0x03] Work_Zone[1] = 4*
 65: 0x00EA [0x43] SEND_EVENT_UPDATE: Send pending tag to server (packet 0x005B)
 66: 0x00EC [0x43] SEND_EVENT_UPDATE: Check pending flag (skip if not pending)
 67: 0x00EE [0x1D] PRINT_EVENT_MESSAGE(message_id=9973*)
    → "Should you not possess $0 and $1, I can furnish you with both for a nominal fee. I've recently depleted my stores, however, so you will have to wait until the next shipment arrives."
 68: 0x00F1 [0x23] WAIT_FOR_DIALOG_INTERACTION
 69: 0x00F2 [0x03] Work_Zone[1] = 0*

SUBROUTINE_00F7:
 70: 0x00F7 [0x01] GOTO 0x010E
 71: 0x00FA [0x02] IF !(Work_Zone[0] == 1*) GOTO 0x010E
 72: 0x0102 [0x1D] PRINT_EVENT_MESSAGE(message_id=9968*)
    → "That is most disappointing... "She" would not be pleased to hear of this."
 73: 0x0105 [0x23] WAIT_FOR_DIALOG_INTERACTION
 74: 0x0106 [0x03] Work_Zone[1] = 0*
 75: 0x010B [0x01] GOTO 0x010E

SUBROUTINE_010E:
 76: 0x010E [0x5E] EventEntity goes idle (kills current action) (animation: "idl0")
 77: 0x0113 [0x21] END_EVENT
 78: 0x0114 [0x00] END_REQSTACK()
```

### Event 238

#### Metadata

| Field        | Value     |
|--------------|-----------|
| Entrypoint   | 0x0115    |
| Data Size    | 150 bytes |
| Instructions | 42        |

```
      00 01 02 03 04 05 06 07  08 09 0A 0B 0C 0D 0E 0F
      -- -- -- -- -- -- -- --  -- -- -- -- -- -- -- --
0110:                03 00 00  02 10 1E F0 FF FF 7F 6F       ..........o
0120: 70 02 00 00 0B 80 80 30  01 1D 13 80 23 01 4E 01  p......0....#.N.
0130: 02 00 00 05 80 80 3F 01  1D 14 80 23 01 4E 01 02  ......?....#.N..
0140: 00 00 15 80 80 4E 01 1D  16 80 23 01 4E 01 03 01  .....N....#.N...
0150: 10 0D 80 43 00 43 01 02  02 10 00 80 00 97 01 1D  ...C.C..........
0160: 0E 80 23 24 0F 80 0B 80  00 80 25 02 00 10 00 80  ..#$......%.....
0170: 00 84 01 03 01 10 10 80  43 00 43 01 03 01 10 00  ........C.C.....
0180: 80 01 94 01 02 00 10 0B  80 00 94 01 03 01 10 00  ................
0190: 80 01 94 01 01 A9 01 03  01 10 08 80 43 00 43 01  ............C.C.
01A0: 1D 11 80 23 03 01 10 00  80 21 00                 ...#.....!.     
```

#### Opcodes

```
  0: 0x0115 [0x03] ExtData[1]->WorkLocal[0] = Work_Zone[2]
  1: 0x011A [0x1E] EventEntity looks at LocalPlayer and starts talking
  2: 0x011F [0x6F] WAIT_FRAME_DELAY: Yield until WaitTime reaches zero
  3: 0x0120 [0x70] WAIT_ENTITY_RENDER_FLAG: Wait while EventEntity->Render.Flags3 bit 2 is set (cancel turn if not)
  4: 0x0121 [0x02] IF !(ExtData[1]->WorkLocal[0] == 1*) GOTO 0x0130
  5: 0x0129 [0x1D] PRINT_EVENT_MESSAGE(message_id=9980*)
    → "You've yet to bring me an image of the %0."
  6: 0x012C [0x23] WAIT_FOR_DIALOG_INTERACTION
  7: 0x012D [0x01] GOTO 0x014E
  8: 0x0130 [0x02] IF !(ExtData[1]->WorkLocal[0] == 2*) GOTO 0x013F
  9: 0x0138 [0x1D] PRINT_EVENT_MESSAGE(message_id=9979*)
    → "You've yet to bring me images of the %0 and the %1."
 10: 0x013B [0x23] WAIT_FOR_DIALOG_INTERACTION
 11: 0x013C [0x01] GOTO 0x014E
 12: 0x013F [0x02] IF !(ExtData[1]->WorkLocal[0] == 3*) GOTO 0x014E
 13: 0x0147 [0x1D] PRINT_EVENT_MESSAGE(message_id=9978*)
    → "I need images of the %0, the %1, and the %2."
 14: 0x014A [0x23] WAIT_FOR_DIALOG_INTERACTION
 15: 0x014B [0x01] GOTO 0x014E

SUBROUTINE_014E:
 16: 0x014E [0x03] Work_Zone[1] = 6*
 17: 0x0153 [0x43] SEND_EVENT_UPDATE: Send pending tag to server (packet 0x005B)
 18: 0x0155 [0x43] SEND_EVENT_UPDATE: Check pending flag (skip if not pending)
 19: 0x0157 [0x02] IF !(Work_Zone[2] == 0*) GOTO 0x0197
 20: 0x015F [0x1D] PRINT_EVENT_MESSAGE(message_id=9971*)
    → "Do you require $1 and $2? I can provide you with both for a nominal fee of 800 gil."
 21: 0x0162 [0x23] WAIT_FOR_DIALOG_INTERACTION
 22: 0x0163 [0x24] CREATE_DIALOG(message_id=9972*, default_option=1*, option_flags=0*)
    → "Buy for 800 gil? (You have $3) [Yes, please./No, thank you.]"
 23: 0x016A [0x25] WAIT_DIALOG_SELECT()
 24: 0x016B [0x02] IF !(Work_Zone[0] == 0*) GOTO 0x0184
 25: 0x0173 [0x03] Work_Zone[1] = 5*
 26: 0x0178 [0x43] SEND_EVENT_UPDATE: Send pending tag to server (packet 0x005B)
 27: 0x017A [0x43] SEND_EVENT_UPDATE: Check pending flag (skip if not pending)
 28: 0x017C [0x03] Work_Zone[1] = 0*
 29: 0x0181 [0x01] GOTO 0x0194
 30: 0x0184 [0x02] IF !(Work_Zone[0] == 1*) GOTO 0x0194
 31: 0x018C [0x03] Work_Zone[1] = 0*
 32: 0x0191 [0x01] GOTO 0x0194

SUBROUTINE_0194:
 33: 0x0194 [0x01] GOTO 0x01A9
 34: 0x0197 [0x03] Work_Zone[1] = 4*
 35: 0x019C [0x43] SEND_EVENT_UPDATE: Send pending tag to server (packet 0x005B)
 36: 0x019E [0x43] SEND_EVENT_UPDATE: Check pending flag (skip if not pending)
 37: 0x01A0 [0x1D] PRINT_EVENT_MESSAGE(message_id=9973*)
    → "Should you not possess $0 and $1, I can furnish you with both for a nominal fee. I've recently depleted my stores, however, so you will have to wait until the next shipment arrives."
 38: 0x01A3 [0x23] WAIT_FOR_DIALOG_INTERACTION
 39: 0x01A4 [0x03] Work_Zone[1] = 0*

SUBROUTINE_01A9:
 40: 0x01A9 [0x21] END_EVENT
 41: 0x01AA [0x00] END_REQSTACK()
```

### Event 239

#### Metadata

| Field        | Value    |
|--------------|----------|
| Entrypoint   | 0x01AB   |
| Data Size    | 13 bytes |
| Instructions | 7        |

```
      00 01 02 03 04 05 06 07  08 09 0A 0B 0C 0D 0E 0F
      -- -- -- -- -- -- -- --  -- -- -- -- -- -- -- --
01A0:                                   1E F0 FF FF 7F             .....
01B0: 6F 70 1D 17 80 23 21 00                           op...#!.        
```

#### Opcodes

```
  0: 0x01AB [0x1E] EventEntity looks at LocalPlayer and starts talking
  1: 0x01B0 [0x6F] WAIT_FRAME_DELAY: Yield until WaitTime reaches zero
  2: 0x01B1 [0x70] WAIT_ENTITY_RENDER_FLAG: Wait while EventEntity->Render.Flags3 bit 2 is set (cancel turn if not)
  3: 0x01B2 [0x1D] PRINT_EVENT_MESSAGE(message_id=9982*)
    → "I fear I haven't the time to trade pleasantries with random strangers. Please leave me be."
  4: 0x01B5 [0x23] WAIT_FOR_DIALOG_INTERACTION
  5: 0x01B6 [0x21] END_EVENT
  6: 0x01B7 [0x00] END_REQSTACK()
```

### Event 240

#### Metadata

| Field        | Value    |
|--------------|----------|
| Entrypoint   | 0x01B8   |
| Data Size    | 13 bytes |
| Instructions | 7        |

```
      00 01 02 03 04 05 06 07  08 09 0A 0B 0C 0D 0E 0F
      -- -- -- -- -- -- -- --  -- -- -- -- -- -- -- --
01B0:                          1E F0 FF FF 7F 6F 70 1D          .....op.
01C0: 18 80 23 21 00                                    ..#!.           
```

#### Opcodes

```
  0: 0x01B8 [0x1E] EventEntity looks at LocalPlayer and starts talking
  1: 0x01BD [0x6F] WAIT_FRAME_DELAY: Yield until WaitTime reaches zero
  2: 0x01BE [0x70] WAIT_ENTITY_RENDER_FLAG: Wait while EventEntity->Render.Flags3 bit 2 is set (cancel turn if not)
  3: 0x01BF [0x1D] PRINT_EVENT_MESSAGE(message_id=9983*)
    → "Is there something else you wish of me? You already have what you came for, no?"
  4: 0x01C2 [0x23] WAIT_FOR_DIALOG_INTERACTION
  5: 0x01C3 [0x21] END_EVENT
  6: 0x01C4 [0x00] END_REQSTACK()
```

### Event 241

#### Metadata

| Field        | Value     |
|--------------|-----------|
| Entrypoint   | 0x01C5    |
| Data Size    | 229 bytes |
| Instructions | 59        |

```
      00 01 02 03 04 05 06 07  08 09 0A 0B 0C 0D 0E 0F
      -- -- -- -- -- -- -- --  -- -- -- -- -- -- -- --
01C0:                42 1E F0  FF FF 7F 6F 70 03 01 10       B.....op...
01D0: 19 80 43 00 43 01 03 00  00 02 10 02 00 00 00 80  ..C.C...........
01E0: 00 E7 01 1D 1A 80 23 03  01 10 1B 80 43 00 43 01  ......#.....C.C.
01F0: 03 01 00 03 10 02 01 00  0B 80 80 0D 02 1D 1C 80  ................
0200: 23 1D 1D 80 23 03 01 10  1E 80 01 A7 02 02 01 00  #...#...........
0210: 05 80 80 5A 02 1D 1F 80  23 03 01 10 15 80 43 00  ...Z....#.....C.
0220: 43 01 03 00 00 02 10 02  00 00 0B 80 80 37 02 03  C............7..
0230: 01 10 20 80 01 57 02 02  00 00 05 80 80 47 02 03  .. ..W.......G..
0240: 01 10 21 80 01 57 02 02  00 00 15 80 80 57 02 03  ..!..W.......W..
0250: 01 10 22 80 01 57 02 01  A7 02 02 01 00 15 80 80  .."..W..........
0260: A7 02 1D 23 80 23 03 01  10 15 80 43 00 43 01 03  ...#.#.....C.C..
0270: 00 00 02 10 02 00 00 0B  80 80 84 02 03 01 10 20  ............... 
0280: 80 01 A4 02 02 00 00 05  80 80 94 02 03 01 10 21  ...............!
0290: 80 01 A4 02 02 00 00 15  80 80 A4 02 03 01 10 22  ..............."
02A0: 80 01 A4 02 01 A7 02 2E  21 00                    ........!.      
```

#### Opcodes

```
  0: 0x01C5 [0x42] SET_CLI_EVENT_CANCEL_DATA()
  1: 0x01C6 [0x1E] EventEntity looks at LocalPlayer and starts talking
  2: 0x01CB [0x6F] WAIT_FRAME_DELAY: Yield until WaitTime reaches zero
  3: 0x01CC [0x70] WAIT_ENTITY_RENDER_FLAG: Wait while EventEntity->Render.Flags3 bit 2 is set (cancel turn if not)
  4: 0x01CD [0x03] Work_Zone[1] = 7*
  5: 0x01D2 [0x43] SEND_EVENT_UPDATE: Send pending tag to server (packet 0x005B)
  6: 0x01D4 [0x43] SEND_EVENT_UPDATE: Check pending flag (skip if not pending)
  7: 0x01D6 [0x03] ExtData[1]->WorkLocal[0] = Work_Zone[2]
  8: 0x01DB [0x02] IF !(ExtData[1]->WorkLocal[0] == 0*) GOTO 0x01E7
  9: 0x01E3 [0x1D] PRINT_EVENT_MESSAGE(message_id=9969*)
    → "Ah, yes..."
 10: 0x01E6 [0x23] WAIT_FOR_DIALOG_INTERACTION
 11: 0x01E7 [0x03] Work_Zone[1] = 8*
 12: 0x01EC [0x43] SEND_EVENT_UPDATE: Send pending tag to server (packet 0x005B)
 13: 0x01EE [0x43] SEND_EVENT_UPDATE: Check pending flag (skip if not pending)
 14: 0x01F0 [0x03] ExtData[1]->WorkLocal[1] = Work_Zone[3]
 15: 0x01F5 [0x02] IF !(ExtData[1]->WorkLocal[1] == 1*) GOTO 0x020D
 16: 0x01FD [0x1D] PRINT_EVENT_MESSAGE(message_id=9976*)
    → "I've eagerly awaited your return. With this image of the %0, I hold your task fulfilled."
 17: 0x0200 [0x23] WAIT_FOR_DIALOG_INTERACTION
 18: 0x0201 [0x1D] PRINT_EVENT_MESSAGE(message_id=9977*)
    → "As promised, I relinquish this to you. Should another be required, you shall find me here."
 19: 0x0204 [0x23] WAIT_FOR_DIALOG_INTERACTION
 20: 0x0205 [0x03] Work_Zone[1] = 13*
 21: 0x020A [0x01] GOTO 0x02A7
 22: 0x020D [0x02] IF !(ExtData[1]->WorkLocal[1] == 2*) GOTO 0x025A
 23: 0x0215 [0x1D] PRINT_EVENT_MESSAGE(message_id=9975*)
    → "Ah, a positively imposing image of the %0! All that remains, then, is one of the %1."
 24: 0x0218 [0x23] WAIT_FOR_DIALOG_INTERACTION
 25: 0x0219 [0x03] Work_Zone[1] = 3*
 26: 0x021E [0x43] SEND_EVENT_UPDATE: Send pending tag to server (packet 0x005B)
 27: 0x0220 [0x43] SEND_EVENT_UPDATE: Check pending flag (skip if not pending)
 28: 0x0222 [0x03] ExtData[1]->WorkLocal[0] = Work_Zone[2]
 29: 0x0227 [0x02] IF !(ExtData[1]->WorkLocal[0] == 1*) GOTO 0x0237
 30: 0x022F [0x03] Work_Zone[1] = 10*
 31: 0x0234 [0x01] GOTO 0x0257
 32: 0x0237 [0x02] IF !(ExtData[1]->WorkLocal[0] == 2*) GOTO 0x0247
 33: 0x023F [0x03] Work_Zone[1] = 11*
 34: 0x0244 [0x01] GOTO 0x0257
 35: 0x0247 [0x02] IF !(ExtData[1]->WorkLocal[0] == 3*) GOTO 0x0257
 36: 0x024F [0x03] Work_Zone[1] = 12*
 37: 0x0254 [0x01] GOTO 0x0257

SUBROUTINE_0257:
 38: 0x0257 [0x01] GOTO 0x02A7
 39: 0x025A [0x02] IF !(ExtData[1]->WorkLocal[1] == 3*) GOTO 0x02A7
 40: 0x0262 [0x1D] PRINT_EVENT_MESSAGE(message_id=9970*)
    → "A truly menacing image of the %0! All that remains, then, is one each of the %1 and the %2."
 41: 0x0265 [0x23] WAIT_FOR_DIALOG_INTERACTION
 42: 0x0266 [0x03] Work_Zone[1] = 3*
 43: 0x026B [0x43] SEND_EVENT_UPDATE: Send pending tag to server (packet 0x005B)
 44: 0x026D [0x43] SEND_EVENT_UPDATE: Check pending flag (skip if not pending)
 45: 0x026F [0x03] ExtData[1]->WorkLocal[0] = Work_Zone[2]
 46: 0x0274 [0x02] IF !(ExtData[1]->WorkLocal[0] == 1*) GOTO 0x0284
 47: 0x027C [0x03] Work_Zone[1] = 10*
 48: 0x0281 [0x01] GOTO 0x02A4
 49: 0x0284 [0x02] IF !(ExtData[1]->WorkLocal[0] == 2*) GOTO 0x0294
 50: 0x028C [0x03] Work_Zone[1] = 11*
 51: 0x0291 [0x01] GOTO 0x02A4
 52: 0x0294 [0x02] IF !(ExtData[1]->WorkLocal[0] == 3*) GOTO 0x02A4
 53: 0x029C [0x03] Work_Zone[1] = 12*
 54: 0x02A1 [0x01] GOTO 0x02A4

SUBROUTINE_02A4:
 55: 0x02A4 [0x01] GOTO 0x02A7

SUBROUTINE_02A7:
 56: 0x02A7 [0x2E] SET_CLI_EVENT_CANCEL_FLAGS()
 57: 0x02A8 [0x21] END_EVENT
 58: 0x02A9 [0x00] END_REQSTACK()
```

### Event 242

#### Metadata

| Field        | Value    |
|--------------|----------|
| Entrypoint   | 0x02AA   |
| Data Size    | 13 bytes |
| Instructions | 7        |

```
      00 01 02 03 04 05 06 07  08 09 0A 0B 0C 0D 0E 0F
      -- -- -- -- -- -- -- --  -- -- -- -- -- -- -- --
02A0:                                1E F0 FF FF 7F 6F            .....o
02B0: 70 1D 24 80 23 21 00                              p.$.#!.         
```

#### Opcodes

```
  0: 0x02AA [0x1E] EventEntity looks at LocalPlayer and starts talking
  1: 0x02AF [0x6F] WAIT_FRAME_DELAY: Yield until WaitTime reaches zero
  2: 0x02B0 [0x70] WAIT_ENTITY_RENDER_FLAG: Wait while EventEntity->Render.Flags3 bit 2 is set (cancel turn if not)
  3: 0x02B1 [0x1D] PRINT_EVENT_MESSAGE(message_id=9981*)
    → "A fine image this is, but this creature isn't one of my investigation subjects."
  4: 0x02B4 [0x23] WAIT_FOR_DIALOG_INTERACTION
  5: 0x02B5 [0x21] END_EVENT
  6: 0x02B6 [0x00] END_REQSTACK()
```
