# 17809515 - Stray Cloud

## Common Data

| Field            | Value          |
|------------------|----------------|
| Zone             | Norg (ID: 252) |
| Block Size       | 608 bytes      |
| Total Events     | 20             |
| References Count | 41             |

## List of Events

| Event ID                   | Entrypoint   |   Size |   Instructions |
|----------------------------|--------------|--------|----------------|
| [65535](#event-65535)      | 0x0000       |      1 |              1 |
| [225](#event-225)          | 0x0001       |      1 |              1 |
| [65535.1](#event-655351)   | 0x0002       |     98 |             20 |
| [65535.2](#event-655352)   | 0x0064       |      6 |              2 |
| [65535.3](#event-655353)   | 0x006A       |     14 |              4 |
| [65535.4](#event-655354)   | 0x0078       |     14 |              4 |
| [65535.5](#event-655355)   | 0x0086       |     24 |              6 |
| [226](#event-226)          | 0x009E       |      1 |              1 |
| [65535.6](#event-655356)   | 0x009F       |     14 |              4 |
| [65535.7](#event-655357)   | 0x00AD       |     40 |              7 |
| [65535.8](#event-655358)   | 0x00D5       |     14 |              4 |
| [65535.9](#event-655359)   | 0x00E3       |     14 |              4 |
| [227](#event-227)          | 0x00F1       |      1 |              1 |
| [65535.10](#event-6553510) | 0x00F2       |     14 |              4 |
| [65535.11](#event-6553511) | 0x0100       |     14 |              4 |
| [65535.12](#event-6553512) | 0x010E       |     14 |              4 |
| [228](#event-228)          | 0x011C       |     17 |              7 |
| [229](#event-229)          | 0x012D       |     14 |              6 |
| [230](#event-230)          | 0x013B       |     17 |              7 |
| [231](#event-231)          | 0x014C       |     15 |              7 |

## DAT References (imed_data)

|   Index | Hex Value   |   Dec Value |
|---------|-------------|-------------|
|       0 | 0x0001      |           1 |
|       1 | 0x000D      |          13 |
|       2 | 0x0000      |           0 |
|       3 | 0x000A      |          10 |
|       4 | 0xFFFFBF3F  |  4294950719 |
|       5 | 0xFFFFA97D  |  4294945149 |
|       6 | 0x0449      |        1097 |
|       7 | 0xFFFFB7C2  |  4294948802 |
|       8 | 0xFFFFA316  |  4294943510 |
|       9 | 0xFFFFB587  |  4294948231 |
|      10 | 0xFFFFA601  |  4294944257 |
|      11 | 0xFFFFBEA1  |  4294950561 |
|      12 | 0xFFFF9DE6  |  4294942182 |
|      13 | 0x0005      |           5 |
|      14 | 0xFFFFAFB5  |  4294946741 |
|      15 | 0xFFFFA167  |  4294943079 |
|      16 | 0x0028      |          40 |
|      17 | 0xFFFFB31D  |  4294947613 |
|      18 | 0xFFFF844F  |  4294935631 |
|      19 | 0xFFFFB72F  |  4294948655 |
|      20 | 0xFFFF5070  |  4294922352 |
|      21 | 0x019A      |         410 |
|      22 | 0xFFFFB728  |  4294948648 |
|      23 | 0xFFFF2E58  |  4294913624 |
|      24 | 0x00E1      |         225 |
|      25 | 0xFFFFBBFC  |  4294949884 |
|      26 | 0xFFFF35C4  |  4294915524 |
|      27 | 0x013D      |         317 |
|      28 | 0xFFFFB456  |  4294947926 |
|      29 | 0xFFFF3AA7  |  4294916775 |
|      30 | 0x013B      |         315 |
|      31 | 0xFFFFACEF  |  4294946031 |
|      32 | 0xFFFFA5DA  |  4294944218 |
|      33 | 0xFFFFB4DA  |  4294948058 |
|      34 | 0xFFFFA63F  |  4294944319 |
|      35 | 0x001E      |          30 |
|      36 | 0x2BAE      |       11182 |
|      37 | 0x2BD5      |       11221 |
|      38 | 0x2BEE      |       11246 |
|      39 | 0x2B9E      |       11166 |
|      40 | 0x2B9F      |       11167 |

## String References

- **11166**: Where could 'e be...? Knowing him, 'e should be...
- **11167**: Oh, sorry there. Just talkin' to meself.
- **11182**: I've heard the monsters out there are no laughin' matter, so please be takin' care of yerself.
- **11221**: I leave Gubokka in your hands. I wonder if tha' Hume warrior is safe...?
- **11246**: I was able to ge' closure with Gomoya, and it's all thanks t' you. I just wanna tell ya how much I appreciate it.

## Events

### Event 65535

#### Metadata

| Field        | Value   |
|--------------|---------|
| Entrypoint   | 0x0000  |
| Data Size    | 1 bytes |
| Instructions | 1       |

```
      00 01 02 03 04 05 06 07  08 09 0A 0B 0C 0D 0E 0F
      -- -- -- -- -- -- -- --  -- -- -- -- -- -- -- --
0000: 00                                                .               
```

#### Opcodes

```
  0: 0x0000 [0x00] END_REQSTACK()
```

### Event 225

#### Metadata

| Field        | Value   |
|--------------|---------|
| Entrypoint   | 0x0001  |
| Data Size    | 1 bytes |
| Instructions | 1       |

```
      00 01 02 03 04 05 06 07  08 09 0A 0B 0C 0D 0E 0F
      -- -- -- -- -- -- -- --  -- -- -- -- -- -- -- --
0000:    00                                              .              
```

#### Opcodes

```
  0: 0x0001 [0x00] END_REQSTACK()
```

### Event 65535.1

#### Metadata

| Field        | Value    |
|--------------|----------|
| Entrypoint   | 0x0002   |
| Data Size    | 98 bytes |
| Instructions | 20       |

```
      00 01 02 03 04 05 06 07  08 09 0A 0B 0C 0D 0E 0F
      -- -- -- -- -- -- -- --  -- -- -- -- -- -- -- --
0000:       03 00 00 00 80 32  01 80 02 00 00 00 80 00    .....2........
0010: 4C 00 02 01 00 02 80 80  2F 00 32 03 80 1F 00 04  L......./.2.....
0020: 80 05 80 06 80 1F 01 03  01 00 00 80 01 49 00 02  .............I..
0030: 01 00 00 80 80 49 00 1F  00 07 80 08 80 06 80 1F  .....I..........
0040: 01 03 01 00 02 80 01 49  00 01 0A 00 02 01 00 00  .......I........
0050: 80 00 63 00 1F 00 07 80  08 80 06 80 1F 01 03 01  ..c.............
0060: 00 02 80 00                                       ....            
```

#### Opcodes

```
  0: 0x0002 [0x03] ExtData[1]->WorkLocal[0] = 1*
  1: 0x0007 [0x32] ExtData[1]->MainSpeed = 13* * 0.1
  2: 0x000A [0x02] IF !(ExtData[1]->WorkLocal[0] == 1*) GOTO 0x004C
  3: 0x0012 [0x02] IF !(ExtData[1]->WorkLocal[1] == 0*) GOTO 0x002F
  4: 0x001A [0x32] ExtData[1]->MainSpeed = 10* * 0.1
  5: 0x001D [0x1F] MOVE_ENTITY: EventEntity moves to X=-16.577*, Z=-22.147*, Y=1.097*
  6: 0x0025 [0x1F] MOVE_ENTITY: Update entity position (mode=1)
  7: 0x0027 [0x03] ExtData[1]->WorkLocal[1] = 1*
  8: 0x002C [0x01] GOTO 0x0049
  9: 0x002F [0x02] IF !(ExtData[1]->WorkLocal[1] == 1*) GOTO 0x0049
 10: 0x0037 [0x1F] MOVE_ENTITY: EventEntity moves to X=-18.494*, Z=-23.786*, Y=1.097*
 11: 0x003F [0x1F] MOVE_ENTITY: Update entity position (mode=1)
 12: 0x0041 [0x03] ExtData[1]->WorkLocal[1] = 0*
 13: 0x0046 [0x01] GOTO 0x0049

SUBROUTINE_0049:
 14: 0x0049 [0x01] GOTO 0x000A
 15: 0x004C [0x02] IF !(ExtData[1]->WorkLocal[1] == 1*) GOTO 0x0063
 16: 0x0054 [0x1F] MOVE_ENTITY: EventEntity moves to X=-18.494*, Z=-23.786*, Y=1.097*
 17: 0x005C [0x1F] MOVE_ENTITY: Update entity position (mode=1)
 18: 0x005E [0x03] ExtData[1]->WorkLocal[1] = 0*
 19: 0x0063 [0x00] END_REQSTACK()
```

### Event 65535.2

#### Metadata

| Field        | Value   |
|--------------|---------|
| Entrypoint   | 0x0064  |
| Data Size    | 6 bytes |
| Instructions | 2       |

```
      00 01 02 03 04 05 06 07  08 09 0A 0B 0C 0D 0E 0F
      -- -- -- -- -- -- -- --  -- -- -- -- -- -- -- --
0060:             03 00 00 02  80 00                        ......      
```

#### Opcodes

```
  0: 0x0064 [0x03] ExtData[1]->WorkLocal[0] = 0*
  1: 0x0069 [0x00] END_REQSTACK()
```

### Event 65535.3

#### Metadata

| Field        | Value    |
|--------------|----------|
| Entrypoint   | 0x006A   |
| Data Size    | 14 bytes |
| Instructions | 4        |

```
      00 01 02 03 04 05 06 07  08 09 0A 0B 0C 0D 0E 0F
      -- -- -- -- -- -- -- --  -- -- -- -- -- -- -- --
0060:                                32 01 80 1F 00 09            2.....
0070: 80 0A 80 06 80 1F 01 00                           ........        
```

#### Opcodes

```
  0: 0x006A [0x32] ExtData[1]->MainSpeed = 13* * 0.1
  1: 0x006D [0x1F] MOVE_ENTITY: EventEntity moves to X=-19.065*, Z=-23.039*, Y=1.097*
  2: 0x0075 [0x1F] MOVE_ENTITY: Update entity position (mode=1)
  3: 0x0077 [0x00] END_REQSTACK()
```

### Event 65535.4

#### Metadata

| Field        | Value    |
|--------------|----------|
| Entrypoint   | 0x0078   |
| Data Size    | 14 bytes |
| Instructions | 4        |

```
      00 01 02 03 04 05 06 07  08 09 0A 0B 0C 0D 0E 0F
      -- -- -- -- -- -- -- --  -- -- -- -- -- -- -- --
0070:                          32 01 80 1F 00 0B 80 0C          2.......
0080: 80 06 80 1F 01 00                                 ......          
```

#### Opcodes

```
  0: 0x0078 [0x32] ExtData[1]->MainSpeed = 13* * 0.1
  1: 0x007B [0x1F] MOVE_ENTITY: EventEntity moves to X=-16.735*, Z=-25.114*, Y=1.097*
  2: 0x0083 [0x1F] MOVE_ENTITY: Update entity position (mode=1)
  3: 0x0085 [0x00] END_REQSTACK()
```

### Event 65535.5

#### Metadata

| Field        | Value    |
|--------------|----------|
| Entrypoint   | 0x0086   |
| Data Size    | 24 bytes |
| Instructions | 6        |

```
      00 01 02 03 04 05 06 07  08 09 0A 0B 0C 0D 0E 0F
      -- -- -- -- -- -- -- --  -- -- -- -- -- -- -- --
0080:                   36 07  80 08 80 06 80 1C 0D 80        6.........
0090: 32 01 80 1F 00 0E 80 0F  80 06 80 1F 01 00        2.............  
```

#### Opcodes

```
  0: 0x0086 [0x36] SET_ENTITY_EVENT_POSITION(pos_x=-18.494*, pos_z=-23.786*, pos_y=1.097*)
  1: 0x008D [0x1C] WAIT(5* ticks)
  2: 0x0090 [0x32] ExtData[1]->MainSpeed = 13* * 0.1
  3: 0x0093 [0x1F] MOVE_ENTITY: EventEntity moves to X=-20.555*, Z=-24.217*, Y=1.097*
  4: 0x009B [0x1F] MOVE_ENTITY: Update entity position (mode=1)
  5: 0x009D [0x00] END_REQSTACK()
```

### Event 226

#### Metadata

| Field        | Value   |
|--------------|---------|
| Entrypoint   | 0x009E  |
| Data Size    | 1 bytes |
| Instructions | 1       |

```
      00 01 02 03 04 05 06 07  08 09 0A 0B 0C 0D 0E 0F
      -- -- -- -- -- -- -- --  -- -- -- -- -- -- -- --
0090:                                            00                   . 
```

#### Opcodes

```
  0: 0x009E [0x00] END_REQSTACK()
```

### Event 65535.6

#### Metadata

| Field        | Value    |
|--------------|----------|
| Entrypoint   | 0x009F   |
| Data Size    | 14 bytes |
| Instructions | 4        |

```
      00 01 02 03 04 05 06 07  08 09 0A 0B 0C 0D 0E 0F
      -- -- -- -- -- -- -- --  -- -- -- -- -- -- -- --
0090:                                               32                 2
00A0: 10 80 1F 00 11 80 12 80  06 80 1F 01 00           .............   
```

#### Opcodes

```
  0: 0x009F [0x32] ExtData[1]->MainSpeed = 40* * 0.1
  1: 0x00A2 [0x1F] MOVE_ENTITY: EventEntity moves to X=-19.683*, Z=-31.665*, Y=1.097*
  2: 0x00AA [0x1F] MOVE_ENTITY: Update entity position (mode=1)
  3: 0x00AC [0x00] END_REQSTACK()
```

### Event 65535.7

#### Metadata

| Field        | Value    |
|--------------|----------|
| Entrypoint   | 0x00AD   |
| Data Size    | 40 bytes |
| Instructions | 7        |

```
      00 01 02 03 04 05 06 07  08 09 0A 0B 0C 0D 0E 0F
      -- -- -- -- -- -- -- --  -- -- -- -- -- -- -- --
00A0:                                         36 13 80               6..
00B0: 14 80 15 80 32 10 80 1F  00 16 80 17 80 18 80 1F  ....2...........
00C0: 01 4A 6B C0 0F 01 6C C0  0F 01 79 00 6B C0 0F 01  .Jk...l...y.k...
00D0: 6C C0 0F 01 00                                    l....           
```

#### Opcodes

```
  0: 0x00AD [0x36] SET_ENTITY_EVENT_POSITION(pos_x=-18.641*, pos_z=-44.944*, pos_y=0.410*)
  1: 0x00B4 [0x32] ExtData[1]->MainSpeed = 40* * 0.1
  2: 0x00B7 [0x1F] MOVE_ENTITY: EventEntity moves to X=-18.648*, Z=-53.672*, Y=0.225*
  3: 0x00BF [0x1F] MOVE_ENTITY: Update entity position (mode=1)
  4: 0x00C1 [0x4A] Stray Cloud (ID: 17809515/0x010FC06B) looks at Gubokka (ID: 17809516/0x010FC06C)
  5: 0x00CA [0x79] Stray Cloud (ID: 17809515/0x010FC06B) looks at Gubokka (ID: 17809516/0x010FC06C) (Basic look)
  6: 0x00D4 [0x00] END_REQSTACK()
```

### Event 65535.8

#### Metadata

| Field        | Value    |
|--------------|----------|
| Entrypoint   | 0x00D5   |
| Data Size    | 14 bytes |
| Instructions | 4        |

```
      00 01 02 03 04 05 06 07  08 09 0A 0B 0C 0D 0E 0F
      -- -- -- -- -- -- -- --  -- -- -- -- -- -- -- --
00D0:                32 01 80  1F 00 19 80 1A 80 1B 80       2..........
00E0: 1F 01 00                                          ...             
```

#### Opcodes

```
  0: 0x00D5 [0x32] ExtData[1]->MainSpeed = 13* * 0.1
  1: 0x00D8 [0x1F] MOVE_ENTITY: EventEntity moves to X=-17.412*, Z=-51.772*, Y=0.317*
  2: 0x00E0 [0x1F] MOVE_ENTITY: Update entity position (mode=1)
  3: 0x00E2 [0x00] END_REQSTACK()
```

### Event 65535.9

#### Metadata

| Field        | Value    |
|--------------|----------|
| Entrypoint   | 0x00E3   |
| Data Size    | 14 bytes |
| Instructions | 4        |

```
      00 01 02 03 04 05 06 07  08 09 0A 0B 0C 0D 0E 0F
      -- -- -- -- -- -- -- --  -- -- -- -- -- -- -- --
00E0:          32 01 80 1F 00  1C 80 1D 80 1E 80 1F 01     2............
00F0: 00                                                .               
```

#### Opcodes

```
  0: 0x00E3 [0x32] ExtData[1]->MainSpeed = 13* * 0.1
  1: 0x00E6 [0x1F] MOVE_ENTITY: EventEntity moves to X=-19.370*, Z=-50.521*, Y=0.315*
  2: 0x00EE [0x1F] MOVE_ENTITY: Update entity position (mode=1)
  3: 0x00F0 [0x00] END_REQSTACK()
```

### Event 227

#### Metadata

| Field        | Value   |
|--------------|---------|
| Entrypoint   | 0x00F1  |
| Data Size    | 1 bytes |
| Instructions | 1       |

```
      00 01 02 03 04 05 06 07  08 09 0A 0B 0C 0D 0E 0F
      -- -- -- -- -- -- -- --  -- -- -- -- -- -- -- --
00F0:    00                                              .              
```

#### Opcodes

```
  0: 0x00F1 [0x00] END_REQSTACK()
```

### Event 65535.10

#### Metadata

| Field        | Value    |
|--------------|----------|
| Entrypoint   | 0x00F2   |
| Data Size    | 14 bytes |
| Instructions | 4        |

```
      00 01 02 03 04 05 06 07  08 09 0A 0B 0C 0D 0E 0F
      -- -- -- -- -- -- -- --  -- -- -- -- -- -- -- --
00F0:       32 01 80 1F 00 1F  80 20 80 06 80 1F 01 00    2...... ......
```

#### Opcodes

```
  0: 0x00F2 [0x32] ExtData[1]->MainSpeed = 13* * 0.1
  1: 0x00F5 [0x1F] MOVE_ENTITY: EventEntity moves to X=-21.265*, Z=-23.078*, Y=1.097*
  2: 0x00FD [0x1F] MOVE_ENTITY: Update entity position (mode=1)
  3: 0x00FF [0x00] END_REQSTACK()
```

### Event 65535.11

#### Metadata

| Field        | Value    |
|--------------|----------|
| Entrypoint   | 0x0100   |
| Data Size    | 14 bytes |
| Instructions | 4        |

```
      00 01 02 03 04 05 06 07  08 09 0A 0B 0C 0D 0E 0F
      -- -- -- -- -- -- -- --  -- -- -- -- -- -- -- --
0100: 32 01 80 1F 00 21 80 22  80 06 80 1F 01 00        2....!."......  
```

#### Opcodes

```
  0: 0x0100 [0x32] ExtData[1]->MainSpeed = 13* * 0.1
  1: 0x0103 [0x1F] MOVE_ENTITY: EventEntity moves to X=-19.238*, Z=-22.977*, Y=1.097*
  2: 0x010B [0x1F] MOVE_ENTITY: Update entity position (mode=1)
  3: 0x010D [0x00] END_REQSTACK()
```

### Event 65535.12

#### Metadata

| Field        | Value    |
|--------------|----------|
| Entrypoint   | 0x010E   |
| Data Size    | 14 bytes |
| Instructions | 4        |

```
      00 01 02 03 04 05 06 07  08 09 0A 0B 0C 0D 0E 0F
      -- -- -- -- -- -- -- --  -- -- -- -- -- -- -- --
0100:                                            32 01                2.
0110: 80 1F 00 1F 80 20 80 06  80 1F 01 00              ..... ......    
```

#### Opcodes

```
  0: 0x010E [0x32] ExtData[1]->MainSpeed = 13* * 0.1
  1: 0x0111 [0x1F] MOVE_ENTITY: EventEntity moves to X=-21.265*, Z=-23.078*, Y=1.097*
  2: 0x0119 [0x1F] MOVE_ENTITY: Update entity position (mode=1)
  3: 0x011B [0x00] END_REQSTACK()
```

### Event 228

#### Metadata

| Field        | Value    |
|--------------|----------|
| Entrypoint   | 0x011C   |
| Data Size    | 17 bytes |
| Instructions | 7        |

```
      00 01 02 03 04 05 06 07  08 09 0A 0B 0C 0D 0E 0F
      -- -- -- -- -- -- -- --  -- -- -- -- -- -- -- --
0110:                                      1E F0 FF FF              ....
0120: 7F 1C 23 80 1D 24 80 23  1C 23 80 21 00           ..#..$.#.#.!.   
```

#### Opcodes

```
  0: 0x011C [0x1E] EventEntity looks at LocalPlayer and starts talking
  1: 0x0121 [0x1C] WAIT(30* ticks)
  2: 0x0124 [0x1D] PRINT_EVENT_MESSAGE(message_id=11182*)
    → "I've heard the monsters out there are no laughin' matter, so please be takin' care of yerself."
  3: 0x0127 [0x23] WAIT_FOR_DIALOG_INTERACTION
  4: 0x0128 [0x1C] WAIT(30* ticks)
  5: 0x012B [0x21] END_EVENT
  6: 0x012C [0x00] END_REQSTACK()
```

### Event 229

#### Metadata

| Field        | Value    |
|--------------|----------|
| Entrypoint   | 0x012D   |
| Data Size    | 14 bytes |
| Instructions | 6        |

```
      00 01 02 03 04 05 06 07  08 09 0A 0B 0C 0D 0E 0F
      -- -- -- -- -- -- -- --  -- -- -- -- -- -- -- --
0120:                                         1E F0 FF               ...
0130: FF 7F 1C 23 80 1D 25 80  23 21 00                 ...#..%.#!.     
```

#### Opcodes

```
  0: 0x012D [0x1E] EventEntity looks at LocalPlayer and starts talking
  1: 0x0132 [0x1C] WAIT(30* ticks)
  2: 0x0135 [0x1D] PRINT_EVENT_MESSAGE(message_id=11221*)
    → "I leave Gubokka in your hands. I wonder if tha' Hume warrior is safe...?"
  3: 0x0138 [0x23] WAIT_FOR_DIALOG_INTERACTION
  4: 0x0139 [0x21] END_EVENT
  5: 0x013A [0x00] END_REQSTACK()
```

### Event 230

#### Metadata

| Field        | Value    |
|--------------|----------|
| Entrypoint   | 0x013B   |
| Data Size    | 17 bytes |
| Instructions | 7        |

```
      00 01 02 03 04 05 06 07  08 09 0A 0B 0C 0D 0E 0F
      -- -- -- -- -- -- -- --  -- -- -- -- -- -- -- --
0130:                                   1E F0 FF FF 7F             .....
0140: 1C 23 80 1D 26 80 23 1C  23 80 21 00              .#..&.#.#.!.    
```

#### Opcodes

```
  0: 0x013B [0x1E] EventEntity looks at LocalPlayer and starts talking
  1: 0x0140 [0x1C] WAIT(30* ticks)
  2: 0x0143 [0x1D] PRINT_EVENT_MESSAGE(message_id=11246*)
    → "I was able to ge' closure with Gomoya, and it's all thanks t' you. I just wanna tell ya how much I appreciate it."
  3: 0x0146 [0x23] WAIT_FOR_DIALOG_INTERACTION
  4: 0x0147 [0x1C] WAIT(30* ticks)
  5: 0x014A [0x21] END_EVENT
  6: 0x014B [0x00] END_REQSTACK()
```

### Event 231

#### Metadata

| Field        | Value    |
|--------------|----------|
| Entrypoint   | 0x014C   |
| Data Size    | 15 bytes |
| Instructions | 7        |

```
      00 01 02 03 04 05 06 07  08 09 0A 0B 0C 0D 0E 0F
      -- -- -- -- -- -- -- --  -- -- -- -- -- -- -- --
0140:                                      1D 27 80 23              .'.#
0150: 1E F0 FF FF 7F 1D 28 80  23 21 00                 ......(.#!.     
```

#### Opcodes

```
  0: 0x014C [0x1D] PRINT_EVENT_MESSAGE(message_id=11166*)
    → "Where could 'e be...? Knowing him, 'e should be..."
  1: 0x014F [0x23] WAIT_FOR_DIALOG_INTERACTION
  2: 0x0150 [0x1E] EventEntity looks at LocalPlayer and starts talking
  3: 0x0155 [0x1D] PRINT_EVENT_MESSAGE(message_id=11167*)
    → "Oh, sorry there. Just talkin' to meself."
  4: 0x0158 [0x23] WAIT_FOR_DIALOG_INTERACTION
  5: 0x0159 [0x21] END_EVENT
  6: 0x015A [0x00] END_REQSTACK()
```
