# 17809411 - Gilgamesh

## Common Data

| Field            | Value          |
|------------------|----------------|
| Zone             | Norg (ID: 252) |
| Block Size       | 4316 bytes     |
| Total Events     | 60             |
| References Count | 115            |

## List of Events

| Event ID                   | Entrypoint   |   Size |   Instructions |
|----------------------------|--------------|--------|----------------|
| [65535](#event-65535)      | 0x0000       |      1 |              1 |
| [175](#event-175)          | 0x0001       |      1 |              1 |
| [0](#event-0)              | 0x0002       |      1 |              1 |
| [2](#event-2)              | 0x0003       |      1 |              1 |
| [3](#event-3)              | 0x0004       |      1 |              1 |
| [4](#event-4)              | 0x0005       |      1 |              1 |
| [65535.1](#event-655351)   | 0x0006       |     15 |              5 |
| [65535.2](#event-655352)   | 0x0015       |     20 |              6 |
| [65535.3](#event-655353)   | 0x0029       |     10 |              2 |
| [65535.4](#event-655354)   | 0x0033       |     10 |              2 |
| [65535.5](#event-655355)   | 0x003D       |     15 |              5 |
| [65535.6](#event-655356)   | 0x004C       |     14 |              4 |
| [65535.7](#event-655357)   | 0x005A       |     52 |              7 |
| [7](#event-7)              | 0x008E       |     16 |              8 |
| [8](#event-8)              | 0x009E       |     21 |              9 |
| [9](#event-9)              | 0x00B3       |     20 |             10 |
| [10](#event-10)            | 0x00C7       |     16 |              8 |
| [98](#event-98)            | 0x00D7       |      1 |              1 |
| [99](#event-99)            | 0x00D8       |      1 |              1 |
| [65535.8](#event-655358)   | 0x00D9       |     31 |              7 |
| [65535.9](#event-655359)   | 0x00F8       |    232 |             33 |
| [65535.10](#event-6553510) | 0x01E0       |     19 |              3 |
| [65535.11](#event-6553511) | 0x01F3       |     29 |              3 |
| [65535.12](#event-6553512) | 0x0210       |     19 |              3 |
| [65535.13](#event-6553513) | 0x0223       |     29 |              3 |
| [29](#event-29)            | 0x0240       |     25 |              4 |
| [65535.14](#event-6553514) | 0x0259       |     25 |              6 |
| [12](#event-12)            | 0x0272       |     16 |              8 |
| [13](#event-13)            | 0x0282       |     67 |             13 |
| [146](#event-146)          | 0x02C5       |      1 |              1 |
| [158](#event-158)          | 0x02C6       |      1 |              1 |
| [164](#event-164)          | 0x02C7       |      1 |              1 |
| [169](#event-169)          | 0x02C8       |      1 |              1 |
| [170](#event-170)          | 0x02C9       |     16 |              8 |
| [171](#event-171)          | 0x02D9       |     21 |              9 |
| [172](#event-172)          | 0x02EE       |      1 |              1 |
| [173](#event-173)          | 0x02EF       |     12 |              6 |
| [176](#event-176)          | 0x02FB       |      1 |              1 |
| [177](#event-177)          | 0x02FC       |     75 |             17 |
| [65535.15](#event-6553515) | 0x0347       |     10 |              2 |
| [232](#event-232)          | 0x0351       |   1340 |            215 |
| [233](#event-233)          | 0x088D       |     16 |              8 |
| [234](#event-234)          | 0x089D       |   1248 |            188 |
| [256](#event-256)          | 0x0D7D       |      1 |              1 |
| [257](#event-257)          | 0x0D7E       |     39 |             11 |
| [262](#event-262)          | 0x0DA5       |      1 |              1 |
| [263](#event-263)          | 0x0DA6       |     39 |             11 |
| [276](#event-276)          | 0x0DCD       |      1 |              1 |
| [65535.16](#event-6553516) | 0x0DCE       |     22 |              6 |
| [277](#event-277)          | 0x0DE4       |      1 |              1 |
| [279](#event-279)          | 0x0DE5       |      1 |              1 |
| [278](#event-278)          | 0x0DE6       |      1 |              1 |
| [284](#event-284)          | 0x0DE7       |      1 |              1 |
| [285](#event-285)          | 0x0DE8       |      1 |              1 |
| [286](#event-286)          | 0x0DE9       |      1 |              1 |
| [287](#event-287)          | 0x0DEA       |      1 |              1 |
| [288](#event-288)          | 0x0DEB       |      1 |              1 |
| [289](#event-289)          | 0x0DEC       |      1 |              1 |
| [290](#event-290)          | 0x0DED       |      1 |              1 |
| [65535.17](#event-6553517) | 0x0DEE       |     32 |              8 |

## DAT References (imed_data)

|   Index | Hex Value   |   Dec Value |
|---------|-------------|-------------|
|       0 | 0x000B      |          11 |
|       1 | 0x1E1E9     |      123369 |
|       2 | 0xFFFFD764  |  4294956900 |
|       3 | 0xFFFFE0B7  |  4294959287 |
|       4 | 0x000D      |          13 |
|       5 | 0x1E061     |      122977 |
|       6 | 0xFFFFD17B  |  4294955387 |
|       7 | 0x1DE54     |      122452 |
|       8 | 0xFFFFD0EC  |  4294955244 |
|       9 | 0x07EE      |        2030 |
|      10 | 0xFFFF8625  |  4294936101 |
|      11 | 0xFFFEB895  |  4294883477 |
|      12 | 0x01C2      |         450 |
|      13 | 0x047D      |        1149 |
|      14 | 0x000A      |          10 |
|      15 | 0xFFFF83A0  |  4294935456 |
|      16 | 0xFFFEA9FF  |  4294879743 |
|      17 | 0x01F3      |         499 |
|      18 | 0x0AFC      |        2812 |
|      19 | 0x0236      |         566 |
|      20 | 0x2839      |       10297 |
|      21 | 0x283A      |       10298 |
|      22 | 0x00EE      |         238 |
|      23 | 0x283B      |       10299 |
|      24 | 0x283C      |       10300 |
|      25 | 0x283D      |       10301 |
|      26 | 0x283E      |       10302 |
|      27 | 0x283F      |       10303 |
|      28 | 0x2844      |       10308 |
|      29 | 0x2845      |       10309 |
|      30 | 0x1DC90     |      122000 |
|      31 | 0xFFFFD034  |  4294955060 |
|      32 | 0xFFFFB179  |  4294947193 |
|      33 | 0xFFFF16CB  |  4294907595 |
|      34 | 0x008B      |         139 |
|      35 | 0x03EF      |        1007 |
|      36 | 0x0000      |           0 |
|      37 | 0x0014      |          20 |
|      38 | 0x001E      |          30 |
|      39 | 0x0028      |          40 |
|      40 | 0x0032      |          50 |
|      41 | 0x003C      |          60 |
|      42 | 0x0005      |           5 |
|      43 | 0x0050      |          80 |
|      44 | 0x005A      |          90 |
|      45 | 0x0001      |           1 |
|      46 | 0x14D10     |       85264 |
|      47 | 0xFFFFDBBA  |  4294958010 |
|      48 | 0xFFFFE452  |  4294960210 |
|      49 | 0x0EEF      |        3823 |
|      50 | 0x15AE7     |       88807 |
|      51 | 0xFFFFE235  |  4294959669 |
|      52 | 0x2840      |       10304 |
|      53 | 0x2841      |       10305 |
|      54 | 0x2842      |       10306 |
|      55 | 0x2843      |       10307 |
|      56 | 0x002D      |          45 |
|      57 | 0x2A00      |       10752 |
|      58 | 0x2A01      |       10753 |
|      59 | 0x01C4      |         452 |
|      60 | 0x2A02      |       10754 |
|      61 | 0x2A03      |       10755 |
|      62 | 0x2A0B      |       10763 |
|      63 | 0x2A30      |       10800 |
|      64 | 0x2A31      |       10801 |
|      65 | 0x2A32      |       10802 |
|      66 | 0x2A33      |       10803 |
|      67 | 0xFFFFB02F  |  4294946863 |
|      68 | 0xFFFF94BD  |  4294939837 |
|      69 | 0x0449      |        1097 |
|      70 | 0x0807      |        2055 |
|      71 | 0x0013      |          19 |
|      72 | 0x0202      |         514 |
|      73 | 0x000F      |          15 |
|      74 | 0x0101      |         257 |
|      75 | 0x2BEF      |       11247 |
|      76 | 0x2BF0      |       11248 |
|      77 | 0x2BF1      |       11249 |
|      78 | 0x00C8      |         200 |
|      79 | 0x007A      |         122 |
|      80 | 0x2BF2      |       11250 |
|      81 | 0x2BF3      |       11251 |
|      82 | 0x2BF4      |       11252 |
|      83 | 0x2BF5      |       11253 |
|      84 | 0x0064      |         100 |
|      85 | 0x0063      |          99 |
|      86 | 0x2BF6      |       11254 |
|      87 | 0x2BFC      |       11260 |
|      88 | 0x2BFD      |       11261 |
|      89 | 0x2BF7      |       11255 |
|      90 | 0x2BF8      |       11256 |
|      91 | 0x0237      |         567 |
|      92 | 0x2C00      |       11264 |
|      93 | 0x2BFF      |       11263 |
|      94 | 0x0002      |           2 |
|      95 | 0x0003      |           3 |
|      96 | 0x0004      |           4 |
|      97 | 0x2BF9      |       11257 |
|      98 | 0x2BFA      |       11258 |
|      99 | 0x00D1      |         209 |
|     100 | 0x00C9      |         201 |
|     101 | 0x2BFB      |       11259 |
|     102 | 0x2BFE      |       11262 |
|     103 | 0x00D7      |         215 |
|     104 | 0x2C67      |       11367 |
|     105 | 0x2C68      |       11368 |
|     106 | 0x2C70      |       11376 |
|     107 | 0x2C74      |       11380 |
|     108 | 0x1B53D     |      111933 |
|     109 | 0xFFFFD882  |  4294957186 |
|     110 | 0x1BF5D     |      114525 |
|     111 | 0xFFFFD3E8  |  4294956008 |
|     112 | 0xFFFFE36C  |  4294959980 |
|     113 | 0x1AFF8     |      110584 |
|     114 | 0xFFFFD3AB  |  4294955947 |

## String References

- **10297**: Arrrg, make sure ya stop by Kazham and visit the Chieftainness, Jakoh Wahcondalo, before heading off t'the Temple of Uggalepih.
- **10298**: If ya tell her I sent ya, she should give ya some help. Now get a move on! There's no time t'lose.
- **10299**: So we needs $6 to get deeper into the temple... Even I don't know what lurks down there.
- **10300**: I can see potential in you, <Player>, but don't go doin' anything stupid now. We want to sees you back 'ere in one piece!
- **10301**: Seven stone monuments? Arrrg, me thinks me saw one in the Yuhtunga or Yhoator Jungle. Can't remember which one, though...
- **10302**: And that be all me knows. Maybe ya saw one o' 'em durin' a mission ya went on. Try t'remember. If ya can't, ya can always ask yer adventurin' mateys.
- **10303**: I'm sorry that I have no more t'tell ya. If that old bat in the temple hadn't been so secretive...
- **10304**: Arrrg! You've gathered all the jewels! You'd make a mighty fine pirate. No wonder me daughter likes ya. Now all ya have t'do is take those to the ancient temple on Zepwell Island.
- **10305**: You'll find Zepwell Island off the southwest tip of Quon. What, you say that's where you found one of the stone monuments? Well, then ya don't need me directions now, do ya?
- **10306**: Delkfutt's Tower? I jus' got some information 'bout Verena. If that piece of info is correct, then that tower is where Verena has been taken!
- **10307**: And t'make things worse, our Zilart friends from Jeuno seem t'be involved. I've already sent some of me mateys t'help Aldo, but I have a bad feelin' about this. Hurry t'Qufim!
- **10308**: We here at Norg sometimes do business in and around the Sanctuary of Zi'Tah. One big forest, that place is.
- **10309**: No, it ain't nothin' like the jungles around here, but it sure be full of surprises. Don't go gettin' caught up in the scenery, or ya may find yourself lost!
- **10752**: A thief like her won't be easy t'find. I'll have me mateys around Vana'diel spread the word that yer lookin' fer a crystal like the one she has.
- **10753**: If she gets wind of that info, that Maree's likely t'settle down until ya find her. We can only pray that what she has is what we need.
- **10754**: Arrrg, so that be the $3 that we've been searchin' fer. It looks like you had a hell of a time tryin' t'get yer hands on it.
- **10755**: But the real hell is yet t'come, <Player>. Crystal Warriors...floating islands... It may all seem crazy, but don't let that get in yer way. Yer Vana'diel's only hope.
- **10763**: We can't know when Eald'narche will attempt t'open the gate. It could be t'morrow, fer all I know. If ya have any preparations, I'd suggest makin' 'em now.
- **10800**: Arrrg, the Zilarrrt's dream of Paradise may be over, but that doesn't change the fact that them beastmen still be crawlin' over the face of Vana'diel.
- **10801**: When ya think about it, this little charade with the princes may've just been the tip of the blimey iceberg.
- **10802**: And Lion... I haven't told the other scallywags what really happened t'her. They all think she's off on some adventure...
- **10803**: It's always easier t'forget about the things that trouble ya. That be why people always forget those who pass away. I don't want that happenin' t'me daughter. That's why she'll always be alive here in Norg.
- **11247**: Arrg, be good to see ya! So you and yer friends were the landlubbers what saved her, eh?
- **11248**: Don't ya worry none, she be sleepin' it off like a sailor that's too fond of Opo-opo brew. The whole ordeal's left me girl a bit under the weather, but she'll pull through.
- **11249**: Hasn't stopped her talkin' me ears off, o'course. Can't get a word in edgewise.
- **11250**: ...I jus' be glad that me girl ain't forgotten about me.
- **11251**: Even after walkin' the plank into the great beyond, she still remembers her old man.
- **11252**: She may not be me daughter by blood, but she's still the apple of me eye. I do believe a reward be due you.
- **11253**: Ya can have the pick of one of me treasures. I'll be givin' whatever's left to yer mates what helped ya.
- **11254**: What do ya choose? [Let me think about it./$1./$2./$3./$4.]
- **11255**: $0. That's what ya want?
- **11256**: Ya want $0? [Aye./Nay.]
- **11257**: Arrg, I almost be forgettin'. Me girl wants ya to pummel some beastie that's been hauntin' her dreams. Stuff o' nightmares, she says.
- **11258**: Don't make much sense to me, but I be guessin' you know the truth of it. If ya ever need an old pirate's help, ya just let me know.
- **11259**: Fer a girl what's saved the world, it be an endearin' thing fer her to be afraid of her dreams.
- **11260**: Blimey. Are ya tryin' t'tell me that the savior of the world can't make up [his/her] mind about a simple thing like this? Guess some things never change, eh?
- **11261**: But who be I t'judge? Let me know when you've made yer decision. Jus' don't complain if all the best loot be taken!
- **11262**: Arrg, so you've made a decision?
- **11263**: By me bleedin' eyepatch, I can't be handing over any booty when yer bag be full of flotsam and jetsam. You heroes need to learn a thing o' two about organization!
- **11264**: Here. That be a treasure unlike any you'll ever see again. Don't go losin' it over the side of no stinkin' ferry!

## Events

### Event 65535

#### Metadata

| Field        | Value   |
|--------------|---------|
| Entrypoint   | 0x0000  |
| Data Size    | 1 bytes |
| Instructions | 1       |

```
      00 01 02 03 04 05 06 07  08 09 0A 0B 0C 0D 0E 0F
      -- -- -- -- -- -- -- --  -- -- -- -- -- -- -- --
0000: 00                                                .               
```

#### Opcodes

```
  0: 0x0000 [0x00] END_REQSTACK()
```

### Event 175

#### Metadata

| Field        | Value   |
|--------------|---------|
| Entrypoint   | 0x0001  |
| Data Size    | 1 bytes |
| Instructions | 1       |

```
      00 01 02 03 04 05 06 07  08 09 0A 0B 0C 0D 0E 0F
      -- -- -- -- -- -- -- --  -- -- -- -- -- -- -- --
0000:    00                                              .              
```

#### Opcodes

```
  0: 0x0001 [0x00] END_REQSTACK()
```

### Event 0

#### Metadata

| Field        | Value   |
|--------------|---------|
| Entrypoint   | 0x0002  |
| Data Size    | 1 bytes |
| Instructions | 1       |

```
      00 01 02 03 04 05 06 07  08 09 0A 0B 0C 0D 0E 0F
      -- -- -- -- -- -- -- --  -- -- -- -- -- -- -- --
0000:       00                                            .             
```

#### Opcodes

```
  0: 0x0002 [0x00] END_REQSTACK()
```

### Event 2

#### Metadata

| Field        | Value   |
|--------------|---------|
| Entrypoint   | 0x0003  |
| Data Size    | 1 bytes |
| Instructions | 1       |

```
      00 01 02 03 04 05 06 07  08 09 0A 0B 0C 0D 0E 0F
      -- -- -- -- -- -- -- --  -- -- -- -- -- -- -- --
0000:          00                                          .            
```

#### Opcodes

```
  0: 0x0003 [0x00] END_REQSTACK()
```

### Event 3

#### Metadata

| Field        | Value   |
|--------------|---------|
| Entrypoint   | 0x0004  |
| Data Size    | 1 bytes |
| Instructions | 1       |

```
      00 01 02 03 04 05 06 07  08 09 0A 0B 0C 0D 0E 0F
      -- -- -- -- -- -- -- --  -- -- -- -- -- -- -- --
0000:             00                                        .           
```

#### Opcodes

```
  0: 0x0004 [0x00] END_REQSTACK()
```

### Event 4

#### Metadata

| Field        | Value   |
|--------------|---------|
| Entrypoint   | 0x0005  |
| Data Size    | 1 bytes |
| Instructions | 1       |

```
      00 01 02 03 04 05 06 07  08 09 0A 0B 0C 0D 0E 0F
      -- -- -- -- -- -- -- --  -- -- -- -- -- -- -- --
0000:                00                                      .          
```

#### Opcodes

```
  0: 0x0005 [0x00] END_REQSTACK()
```

### Event 65535.1

#### Metadata

| Field        | Value    |
|--------------|----------|
| Entrypoint   | 0x0006   |
| Data Size    | 15 bytes |
| Instructions | 5        |

```
      00 01 02 03 04 05 06 07  08 09 0A 0B 0C 0D 0E 0F
      -- -- -- -- -- -- -- --  -- -- -- -- -- -- -- --
0000:                   32 00  80 1F 00 01 80 02 80 03        2.........
0010: 80 1F 01 6F 00                                    ...o.           
```

#### Opcodes

```
  0: 0x0006 [0x32] ExtData[1]->MainSpeed = 11* * 0.1
  1: 0x0009 [0x1F] MOVE_ENTITY: EventEntity moves to X=123.369*, Z=-10.396*, Y=-8.009*
  2: 0x0011 [0x1F] MOVE_ENTITY: Update entity position (mode=1)
  3: 0x0013 [0x6F] WAIT_FRAME_DELAY: Yield until WaitTime reaches zero
  4: 0x0014 [0x00] END_REQSTACK()
```

### Event 65535.2

#### Metadata

| Field        | Value    |
|--------------|----------|
| Entrypoint   | 0x0015   |
| Data Size    | 20 bytes |
| Instructions | 6        |

```
      00 01 02 03 04 05 06 07  08 09 0A 0B 0C 0D 0E 0F
      -- -- -- -- -- -- -- --  -- -- -- -- -- -- -- --
0010:                7B F8 FF  FF 7F 32 04 80 1F 00 05       {....2.....
0020: 80 06 80 03 80 1F 01 6F  00                       .......o.       
```

#### Opcodes

```
  0: 0x0015 [0x7B] EventEntity stops talking
  1: 0x001A [0x32] ExtData[1]->MainSpeed = 13* * 0.1
  2: 0x001D [0x1F] MOVE_ENTITY: EventEntity moves to X=122.977*, Z=-11.909*, Y=-8.009*
  3: 0x0025 [0x1F] MOVE_ENTITY: Update entity position (mode=1)
  4: 0x0027 [0x6F] WAIT_FRAME_DELAY: Yield until WaitTime reaches zero
  5: 0x0028 [0x00] END_REQSTACK()
```

### Event 65535.3

#### Metadata

| Field        | Value    |
|--------------|----------|
| Entrypoint   | 0x0029   |
| Data Size    | 10 bytes |
| Instructions | 2        |

```
      00 01 02 03 04 05 06 07  08 09 0A 0B 0C 0D 0E 0F
      -- -- -- -- -- -- -- --  -- -- -- -- -- -- -- --
0020:                             37 07 80 08 80 03 80           7......
0030: 09 80 00                                          ...             
```

#### Opcodes

```
  0: 0x0029 [0x37] UPDATE_EVENT_POSITION_AND_DIR: x=122.452*, z=-12.052*, y=-8.009*, direction=178.4°*
  1: 0x0032 [0x00] END_REQSTACK()
```

### Event 65535.4

#### Metadata

| Field        | Value    |
|--------------|----------|
| Entrypoint   | 0x0033   |
| Data Size    | 10 bytes |
| Instructions | 2        |

```
      00 01 02 03 04 05 06 07  08 09 0A 0B 0C 0D 0E 0F
      -- -- -- -- -- -- -- --  -- -- -- -- -- -- -- --
0030:          37 0A 80 0B 80  0C 80 0D 80 00              7.........   
```

#### Opcodes

```
  0: 0x0033 [0x37] UPDATE_EVENT_POSITION_AND_DIR: x=-31.195*, z=-83.819*, y=0.450*, direction=101.0°*
  1: 0x003C [0x00] END_REQSTACK()
```

### Event 65535.5

#### Metadata

| Field        | Value    |
|--------------|----------|
| Entrypoint   | 0x003D   |
| Data Size    | 15 bytes |
| Instructions | 5        |

```
      00 01 02 03 04 05 06 07  08 09 0A 0B 0C 0D 0E 0F
      -- -- -- -- -- -- -- --  -- -- -- -- -- -- -- --
0030:                                         32 0E 80               2..
0040: 1F 00 0F 80 10 80 11 80  1F 01 6F 00              ..........o.    
```

#### Opcodes

```
  0: 0x003D [0x32] ExtData[1]->MainSpeed = 10* * 0.1
  1: 0x0040 [0x1F] MOVE_ENTITY: EventEntity moves to X=-31.840*, Z=-87.553*, Y=0.499*
  2: 0x0048 [0x1F] MOVE_ENTITY: Update entity position (mode=1)
  3: 0x004A [0x6F] WAIT_FRAME_DELAY: Yield until WaitTime reaches zero
  4: 0x004B [0x00] END_REQSTACK()
```

### Event 65535.6

#### Metadata

| Field        | Value    |
|--------------|----------|
| Entrypoint   | 0x004C   |
| Data Size    | 14 bytes |
| Instructions | 4        |

```
      00 01 02 03 04 05 06 07  08 09 0A 0B 0C 0D 0E 0F
      -- -- -- -- -- -- -- --  -- -- -- -- -- -- -- --
0040:                                      4B F8 FF FF              K...
0050: 7F 12 80 6F 76 F8 FF FF  7F 00                    ...ov.....      
```

#### Opcodes

```
  0: 0x004C [0x4B] UPDATE_ENTITY_YAW(entity=EventEntity, yaw=15.4°*)
  1: 0x0053 [0x6F] WAIT_FRAME_DELAY: Yield until WaitTime reaches zero
  2: 0x0054 [0x76] CHECK_ENTITY_RENDER_FLAGS: Wait until EventEntity Render.Flags0 and Render.Flags3 conditions are met
  3: 0x0059 [0x00] END_REQSTACK()
```

### Event 65535.7

#### Metadata

| Field        | Value    |
|--------------|----------|
| Entrypoint   | 0x005A   |
| Data Size    | 52 bytes |
| Instructions | 7        |

```
      00 01 02 03 04 05 06 07  08 09 0A 0B 0C 0D 0E 0F
      -- -- -- -- -- -- -- --  -- -- -- -- -- -- -- --
0050:                                5B 13 80 03 C0 0F            [.....
0060: 01 03 C0 0F 01 66 74 6B  31 53 03 C0 0F 01 03 C0  .....ftk1S......
0070: 0F 01 66 74 6B 31 4B F8  FF FF 7F 12 80 6F 76 F8  ..ftk1K......ov.
0080: FF FF 7F 79 00 F8 FF FF  7F 04 C0 0F 01 00        ...y..........  
```

#### Opcodes

```
  0: 0x005A [0x5B] LOAD_EXT_SCHEDULER: Load scheduler "ftk1" with entities [Gilgamesh (ID: 17809411/0x010FC003), Gilgamesh (ID: 17809411/0x010FC003)], work=566*
  1: 0x0069 [0x53] WAIT_SCHEDULER_TASK: Wait for scheduler "ftk1" with entities [Gilgamesh (ID: 17809411/0x010FC003), Gilgamesh (ID: 17809411/0x010FC003)]
  2: 0x0076 [0x4B] UPDATE_ENTITY_YAW(entity=EventEntity, yaw=15.4°*)
  3: 0x007D [0x6F] WAIT_FRAME_DELAY: Yield until WaitTime reaches zero
  4: 0x007E [0x76] CHECK_ENTITY_RENDER_FLAGS: Wait until EventEntity Render.Flags0 and Render.Flags3 conditions are met
  5: 0x0083 [0x79] EventEntity looks at Kamui (ID: 17809412/0x010FC004) (Basic look)
  6: 0x008D [0x00] END_REQSTACK()
```

### Event 7

#### Metadata

| Field        | Value    |
|--------------|----------|
| Entrypoint   | 0x008E   |
| Data Size    | 16 bytes |
| Instructions | 8        |

```
      00 01 02 03 04 05 06 07  08 09 0A 0B 0C 0D 0E 0F
      -- -- -- -- -- -- -- --  -- -- -- -- -- -- -- --
0080:                                            1A 02                ..
0090: 01 1A C0 01 1D 14 80 23  1D 15 80 23 21 00        .......#...#!.  
```

#### Opcodes

```
  0: 0x008E [0x1A] CALL_SUBROUTINE(address=0x0102)
  1: 0x0091 [0x1A] CALL_SUBROUTINE(address=0x01C0)
  2: 0x0094 [0x1D] PRINT_EVENT_MESSAGE(message_id=10297*)
    → "Arrrg, make sure ya stop by Kazham and visit the Chieftainness, Jakoh Wahcondalo, before heading off t'the Temple of Uggalepih."
  3: 0x0097 [0x23] WAIT_FOR_DIALOG_INTERACTION
  4: 0x0098 [0x1D] PRINT_EVENT_MESSAGE(message_id=10298*)
    → "If ya tell her I sent ya, she should give ya some help. Now get a move on! There's no time t'lose."
  5: 0x009B [0x23] WAIT_FOR_DIALOG_INTERACTION
  6: 0x009C [0x21] END_EVENT
  7: 0x009D [0x00] END_REQSTACK()
```

### Event 8

#### Metadata

| Field        | Value    |
|--------------|----------|
| Entrypoint   | 0x009E   |
| Data Size    | 21 bytes |
| Instructions | 9        |

```
      00 01 02 03 04 05 06 07  08 09 0A 0B 0C 0D 0E 0F
      -- -- -- -- -- -- -- --  -- -- -- -- -- -- -- --
0090:                                            1A 02                ..
00A0: 01 1A C0 01 03 08 10 16  80 1D 17 80 23 1D 18 80  ............#...
00B0: 23 21 00                                          #!.             
```

#### Opcodes

```
  0: 0x009E [0x1A] CALL_SUBROUTINE(address=0x0102)
  1: 0x00A1 [0x1A] CALL_SUBROUTINE(address=0x01C0)
  2: 0x00A4 [0x03] Work_Zone[8] = 238*
  3: 0x00A9 [0x1D] PRINT_EVENT_MESSAGE(message_id=10299*)
    → "So we needs $6 to get deeper into the temple... Even I don't know what lurks down there."
  4: 0x00AC [0x23] WAIT_FOR_DIALOG_INTERACTION
  5: 0x00AD [0x1D] PRINT_EVENT_MESSAGE(message_id=10300*)
    → "I can see potential in you, <Player>, but don't go doin' anything stupid now. We want to sees you back 'ere in one piece!"
  6: 0x00B0 [0x23] WAIT_FOR_DIALOG_INTERACTION
  7: 0x00B1 [0x21] END_EVENT
  8: 0x00B2 [0x00] END_REQSTACK()
```

### Event 9

#### Metadata

| Field        | Value    |
|--------------|----------|
| Entrypoint   | 0x00B3   |
| Data Size    | 20 bytes |
| Instructions | 10       |

```
      00 01 02 03 04 05 06 07  08 09 0A 0B 0C 0D 0E 0F
      -- -- -- -- -- -- -- --  -- -- -- -- -- -- -- --
00B0:          1A 02 01 1A C0  01 1D 19 80 23 1D 1A 80     .........#...
00C0: 23 1D 1B 80 23 21 00                              #...#!.         
```

#### Opcodes

```
  0: 0x00B3 [0x1A] CALL_SUBROUTINE(address=0x0102)
  1: 0x00B6 [0x1A] CALL_SUBROUTINE(address=0x01C0)
  2: 0x00B9 [0x1D] PRINT_EVENT_MESSAGE(message_id=10301*)
    → "Seven stone monuments? Arrrg, me thinks me saw one in the Yuhtunga or Yhoator Jungle. Can't remember which one, though..."
  3: 0x00BC [0x23] WAIT_FOR_DIALOG_INTERACTION
  4: 0x00BD [0x1D] PRINT_EVENT_MESSAGE(message_id=10302*)
    → "And that be all me knows. Maybe ya saw one o' 'em durin' a mission ya went on. Try t'remember. If ya can't, ya can always ask yer adventurin' mateys."
  5: 0x00C0 [0x23] WAIT_FOR_DIALOG_INTERACTION
  6: 0x00C1 [0x1D] PRINT_EVENT_MESSAGE(message_id=10303*)
    → "I'm sorry that I have no more t'tell ya. If that old bat in the temple hadn't been so secretive..."
  7: 0x00C4 [0x23] WAIT_FOR_DIALOG_INTERACTION
  8: 0x00C5 [0x21] END_EVENT
  9: 0x00C6 [0x00] END_REQSTACK()
```

### Event 10

#### Metadata

| Field        | Value    |
|--------------|----------|
| Entrypoint   | 0x00C7   |
| Data Size    | 16 bytes |
| Instructions | 8        |

```
      00 01 02 03 04 05 06 07  08 09 0A 0B 0C 0D 0E 0F
      -- -- -- -- -- -- -- --  -- -- -- -- -- -- -- --
00C0:                      1A  02 01 1A C0 01 1D 1C 80         .........
00D0: 23 1D 1D 80 23 21 00                              #...#!.         
```

#### Opcodes

```
  0: 0x00C7 [0x1A] CALL_SUBROUTINE(address=0x0102)
  1: 0x00CA [0x1A] CALL_SUBROUTINE(address=0x01C0)
  2: 0x00CD [0x1D] PRINT_EVENT_MESSAGE(message_id=10308*)
    → "We here at Norg sometimes do business in and around the Sanctuary of Zi'Tah. One big forest, that place is."
  3: 0x00D0 [0x23] WAIT_FOR_DIALOG_INTERACTION
  4: 0x00D1 [0x1D] PRINT_EVENT_MESSAGE(message_id=10309*)
    → "No, it ain't nothin' like the jungles around here, but it sure be full of surprises. Don't go gettin' caught up in the scenery, or ya may find yourself lost!"
  5: 0x00D4 [0x23] WAIT_FOR_DIALOG_INTERACTION
  6: 0x00D5 [0x21] END_EVENT
  7: 0x00D6 [0x00] END_REQSTACK()
```

### Event 98

#### Metadata

| Field        | Value   |
|--------------|---------|
| Entrypoint   | 0x00D7  |
| Data Size    | 1 bytes |
| Instructions | 1       |

```
      00 01 02 03 04 05 06 07  08 09 0A 0B 0C 0D 0E 0F
      -- -- -- -- -- -- -- --  -- -- -- -- -- -- -- --
00D0:                      00                                  .        
```

#### Opcodes

```
  0: 0x00D7 [0x00] END_REQSTACK()
```

### Event 99

#### Metadata

| Field        | Value   |
|--------------|---------|
| Entrypoint   | 0x00D8  |
| Data Size    | 1 bytes |
| Instructions | 1       |

```
      00 01 02 03 04 05 06 07  08 09 0A 0B 0C 0D 0E 0F
      -- -- -- -- -- -- -- --  -- -- -- -- -- -- -- --
00D0:                          00                               .       
```

#### Opcodes

```
  0: 0x00D8 [0x00] END_REQSTACK()
```

### Event 65535.8

#### Metadata

| Field        | Value    |
|--------------|----------|
| Entrypoint   | 0x00D9   |
| Data Size    | 31 bytes |
| Instructions | 7        |

```
      00 01 02 03 04 05 06 07  08 09 0A 0B 0C 0D 0E 0F
      -- -- -- -- -- -- -- --  -- -- -- -- -- -- -- --
00D0:                             5E 69 64 6C 30 32 04           ^idl02.
00E0: 80 33 01 79 00 F8 FF FF  7F 45 C0 0F 01 1F 00 1E  .3.y.....E......
00F0: 80 1F 80 03 80 1F 01 00                           ........        
```

#### Opcodes

```
  0: 0x00D9 [0x5E] EventEntity goes idle (kills current action) (animation: "idl0")
  1: 0x00DE [0x32] ExtData[1]->MainSpeed = 13* * 0.1
  2: 0x00E1 [0x33] EventEntity->Render.Flags0 |= 0x200000 // Bit 21 (flag=0x01)
  3: 0x00E3 [0x79] EventEntity looks at Ayame (ID: 17809477/0x010FC045) (Basic look)
  4: 0x00ED [0x1F] MOVE_ENTITY: EventEntity moves to X=122.000*, Z=-12.236*, Y=-8.009*
  5: 0x00F5 [0x1F] MOVE_ENTITY: Update entity position (mode=1)
  6: 0x00F7 [0x00] END_REQSTACK()
```

### Event 65535.9

#### Metadata

| Field        | Value     |
|--------------|-----------|
| Entrypoint   | 0x00F8    |
| Data Size    | 232 bytes |
| Instructions | 2         |

```
      00 01 02 03 04 05 06 07  08 09 0A 0B 0C 0D 0E 0F
      -- -- -- -- -- -- -- --  -- -- -- -- -- -- -- --
00F0:                          37 20 80 21 80 22 80 23          7 .!.".#
0100: 80 00 86 00 F8 FF FF 7F  1E F0 FF FF 7F 6F 70 1B  .............op.
0110: 66 24 80 F8 FF FF 7F F8  FF FF 7F 74 6C 6B 30 1B  f$.........tlk0.
0120: 66 24 80 F8 FF FF 7F F8  FF FF 7F 74 6C 6B 31 1B  f$.........tlk1.
0130: 66 0E 80 F8 FF FF 7F F8  FF FF 7F 74 6C 6B 30 1B  f..........tlk0.
0140: 66 25 80 F8 FF FF 7F F8  FF FF 7F 74 6C 6B 30 1B  f%.........tlk0.
0150: 66 26 80 F8 FF FF 7F F8  FF FF 7F 74 6C 6B 30 1B  f&.........tlk0.
0160: 66 27 80 F8 FF FF 7F F8  FF FF 7F 74 6C 6B 30 1B  f'.........tlk0.
0170: 66 28 80 F8 FF FF 7F F8  FF FF 7F 74 6C 6B 30 1B  f(.........tlk0.
0180: 66 29 80 F8 FF FF 7F F8  FF FF 7F 74 6C 6B 30 1B  f).........tlk0.
0190: 5B 2A 80 F8 FF FF 7F F8  FF FF 7F 74 6C 6B 30 1B  [*.........tlk0.
01A0: 5B 2B 80 F8 FF FF 7F F8  FF FF 7F 74 6C 6B 30 1B  [+.........tlk0.
01B0: 5B 16 80 F8 FF FF 7F F8  FF FF 7F 74 6C 6B 30 1B  [..........tlk0.
01C0: 5B 13 80 F8 FF FF 7F F8  FF FF 7F 74 6C 6B 30 1B  [..........tlk0.
01D0: 5B 29 80 F8 FF FF 7F F8  FF FF 7F 74 6C 62 30 1B  [).........tlb0.
```

#### Opcodes

```
  0: 0x00F8 [0x37] UPDATE_EVENT_POSITION_AND_DIR: x=-20.103*, z=-59.701*, y=0.139*, direction=88.5°*
  1: 0x0101 [0x00] END_REQSTACK()
```

#### Data or dead code:

```
# Dead code (unreachable instructions):
     0x0102 [0x86] EventEntity->Render.Flags3 = Flags3  // No change (flag=0)
     0x0108 [0x1E] EventEntity looks at LocalPlayer and starts talking
     0x010D [0x6F] WAIT_FRAME_DELAY: Yield until WaitTime reaches zero
     0x010E [0x70] WAIT_ENTITY_RENDER_FLAG: Wait while EventEntity->Render.Flags3 bit 2 is set (cancel turn if not)
     0x010F [0x1B] RETURN
     0x0110 [0x66] LOAD_EXT_SCHEDULER_MAIN: Load scheduler "tlk0" with entities [EventEntity, EventEntity], work=0*
     0x011F [0x1B] RETURN
     0x0120 [0x66] LOAD_EXT_SCHEDULER_MAIN: Load scheduler "tlk1" with entities [EventEntity, EventEntity], work=0*
     0x012F [0x1B] RETURN
     0x0130 [0x66] LOAD_EXT_SCHEDULER_MAIN: Load scheduler "tlk0" with entities [EventEntity, EventEntity], work=10*
     0x013F [0x1B] RETURN
     0x0140 [0x66] LOAD_EXT_SCHEDULER_MAIN: Load scheduler "tlk0" with entities [EventEntity, EventEntity], work=20*
     0x014F [0x1B] RETURN
     0x0150 [0x66] LOAD_EXT_SCHEDULER_MAIN: Load scheduler "tlk0" with entities [EventEntity, EventEntity], work=30*
     0x015F [0x1B] RETURN
     0x0160 [0x66] LOAD_EXT_SCHEDULER_MAIN: Load scheduler "tlk0" with entities [EventEntity, EventEntity], work=40*
     0x016F [0x1B] RETURN
     0x0170 [0x66] LOAD_EXT_SCHEDULER_MAIN: Load scheduler "tlk0" with entities [EventEntity, EventEntity], work=50*
     0x017F [0x1B] RETURN
     0x0180 [0x66] LOAD_EXT_SCHEDULER_MAIN: Load scheduler "tlk0" with entities [EventEntity, EventEntity], work=60*
     0x018F [0x1B] RETURN
     0x0190 [0x5B] LOAD_EXT_SCHEDULER: Load scheduler "tlk0" with entities [EventEntity, EventEntity], work=5*
     0x019F [0x1B] RETURN
     0x01A0 [0x5B] LOAD_EXT_SCHEDULER: Load scheduler "tlk0" with entities [EventEntity, EventEntity], work=80*
     0x01AF [0x1B] RETURN
     0x01B0 [0x5B] LOAD_EXT_SCHEDULER: Load scheduler "tlk0" with entities [EventEntity, EventEntity], work=238*
     0x01BF [0x1B] RETURN
     0x01C0 [0x5B] LOAD_EXT_SCHEDULER: Load scheduler "tlk0" with entities [EventEntity, EventEntity], work=566*
     0x01CF [0x1B] RETURN
     0x01D0 [0x5B] LOAD_EXT_SCHEDULER: Load scheduler "tlb0" with entities [EventEntity, EventEntity], work=60*
     0x01DF [0x1B] RETURN
```

### Event 65535.10

#### Metadata

| Field        | Value    |
|--------------|----------|
| Entrypoint   | 0x01E0   |
| Data Size    | 19 bytes |
| Instructions | 3        |

```
      00 01 02 03 04 05 06 07  08 09 0A 0B 0C 0D 0E 0F
      -- -- -- -- -- -- -- --  -- -- -- -- -- -- -- --
01E0: 5B 13 80 F8 FF FF 7F F8  FF FF 7F 74 6C 6B 30 1C  [..........tlk0.
01F0: 2C 80 00                                          ,..             
```

#### Opcodes

```
  0: 0x01E0 [0x5B] LOAD_EXT_SCHEDULER: Load scheduler "tlk0" with entities [EventEntity, EventEntity], work=566*
  1: 0x01EF [0x1C] WAIT(90* ticks)
  2: 0x01F2 [0x00] END_REQSTACK()
```

### Event 65535.11

#### Metadata

| Field        | Value    |
|--------------|----------|
| Entrypoint   | 0x01F3   |
| Data Size    | 29 bytes |
| Instructions | 3        |

```
      00 01 02 03 04 05 06 07  08 09 0A 0B 0C 0D 0E 0F
      -- -- -- -- -- -- -- --  -- -- -- -- -- -- -- --
01F0:          5B 13 80 F8 FF  FF 7F F8 FF FF 7F 74 6C     [..........tl
0200: 6B 31 53 F8 FF FF 7F F8  FF FF 7F 74 6C 6B 31 00  k1S........tlk1.
```

#### Opcodes

```
  0: 0x01F3 [0x5B] LOAD_EXT_SCHEDULER: Load scheduler "tlk1" with entities [EventEntity, EventEntity], work=566*
  1: 0x0202 [0x53] WAIT_SCHEDULER_TASK: Wait for scheduler "tlk1" with entities [EventEntity, EventEntity]
  2: 0x020F [0x00] END_REQSTACK()
```

### Event 65535.12

#### Metadata

| Field        | Value    |
|--------------|----------|
| Entrypoint   | 0x0210   |
| Data Size    | 19 bytes |
| Instructions | 3        |

```
      00 01 02 03 04 05 06 07  08 09 0A 0B 0C 0D 0E 0F
      -- -- -- -- -- -- -- --  -- -- -- -- -- -- -- --
0210: 5B 13 80 F8 FF FF 7F F8  FF FF 7F 74 68 6B 30 1C  [..........thk0.
0220: 2C 80 00                                          ,..             
```

#### Opcodes

```
  0: 0x0210 [0x5B] LOAD_EXT_SCHEDULER: Load scheduler "thk0" with entities [EventEntity, EventEntity], work=566*
  1: 0x021F [0x1C] WAIT(90* ticks)
  2: 0x0222 [0x00] END_REQSTACK()
```

### Event 65535.13

#### Metadata

| Field        | Value    |
|--------------|----------|
| Entrypoint   | 0x0223   |
| Data Size    | 29 bytes |
| Instructions | 3        |

```
      00 01 02 03 04 05 06 07  08 09 0A 0B 0C 0D 0E 0F
      -- -- -- -- -- -- -- --  -- -- -- -- -- -- -- --
0220:          5B 13 80 F8 FF  FF 7F F8 FF FF 7F 74 68     [..........th
0230: 6B 31 53 F8 FF FF 7F F8  FF FF 7F 74 68 6B 31 00  k1S........thk1.
```

#### Opcodes

```
  0: 0x0223 [0x5B] LOAD_EXT_SCHEDULER: Load scheduler "thk1" with entities [EventEntity, EventEntity], work=566*
  1: 0x0232 [0x53] WAIT_SCHEDULER_TASK: Wait for scheduler "thk1" with entities [EventEntity, EventEntity]
  2: 0x023F [0x00] END_REQSTACK()
```

### Event 29

#### Metadata

| Field        | Value    |
|--------------|----------|
| Entrypoint   | 0x0240   |
| Data Size    | 25 bytes |
| Instructions | 4        |

```
      00 01 02 03 04 05 06 07  08 09 0A 0B 0C 0D 0E 0F
      -- -- -- -- -- -- -- --  -- -- -- -- -- -- -- --
0240: 92 01 03 C0 0F 01 6C F8  FF FF 7F 24 80 2D 80 37  ......l....$.-.7
0250: 2E 80 2F 80 30 80 31 80  00                       ../.0.1..       
```

#### Opcodes

```
  0: 0x0240 [0x92] Gilgamesh (ID: 17809411/0x010FC003)->Render.Flags3 ^= 0x01
  1: 0x0246 [0x6C] FADE_ENTITY_COLOR(entity_id=EventEntity, end_alpha=0*, fade_time=1*)
  2: 0x024F [0x37] UPDATE_EVENT_POSITION_AND_DIR: x=85.264*, z=-9.286*, y=-7.086*, direction=336.0°*
  3: 0x0258 [0x00] END_REQSTACK()
```

### Event 65535.14

#### Metadata

| Field        | Value    |
|--------------|----------|
| Entrypoint   | 0x0259   |
| Data Size    | 25 bytes |
| Instructions | 6        |

```
      00 01 02 03 04 05 06 07  08 09 0A 0B 0C 0D 0E 0F
      -- -- -- -- -- -- -- --  -- -- -- -- -- -- -- --
0250:                             32 00 80 79 00 F8 FF           2..y...
0260: FF 7F F0 FF FF 7F 1F 00  32 80 33 80 30 80 1F 01  ........2.3.0...
0270: 6F 00                                             o.              
```

#### Opcodes

```
  0: 0x0259 [0x32] ExtData[1]->MainSpeed = 11* * 0.1
  1: 0x025C [0x79] EventEntity looks at LocalPlayer (Basic look)
  2: 0x0266 [0x1F] MOVE_ENTITY: EventEntity moves to X=88.807*, Z=-7.627*, Y=-7.086*
  3: 0x026E [0x1F] MOVE_ENTITY: Update entity position (mode=1)
  4: 0x0270 [0x6F] WAIT_FRAME_DELAY: Yield until WaitTime reaches zero
  5: 0x0271 [0x00] END_REQSTACK()
```

### Event 12

#### Metadata

| Field        | Value    |
|--------------|----------|
| Entrypoint   | 0x0272   |
| Data Size    | 16 bytes |
| Instructions | 8        |

```
      00 01 02 03 04 05 06 07  08 09 0A 0B 0C 0D 0E 0F
      -- -- -- -- -- -- -- --  -- -- -- -- -- -- -- --
0270:       1A 02 01 1A C0 01  1D 34 80 23 1D 35 80 23    .......4.#.5.#
0280: 21 00                                             !.              
```

#### Opcodes

```
  0: 0x0272 [0x1A] CALL_SUBROUTINE(address=0x0102)
  1: 0x0275 [0x1A] CALL_SUBROUTINE(address=0x01C0)
  2: 0x0278 [0x1D] PRINT_EVENT_MESSAGE(message_id=10304*)
    → "Arrrg! You've gathered all the jewels! You'd make a mighty fine pirate. No wonder me daughter likes ya. Now all ya have t'do is take those to the ancient temple on Zepwell Island."
  3: 0x027B [0x23] WAIT_FOR_DIALOG_INTERACTION
  4: 0x027C [0x1D] PRINT_EVENT_MESSAGE(message_id=10305*)
    → "You'll find Zepwell Island off the southwest tip of Quon. What, you say that's where you found one of the stone monuments? Well, then ya don't need me directions now, do ya?"
  5: 0x027F [0x23] WAIT_FOR_DIALOG_INTERACTION
  6: 0x0280 [0x21] END_EVENT
  7: 0x0281 [0x00] END_REQSTACK()
```

### Event 13

#### Metadata

| Field        | Value    |
|--------------|----------|
| Entrypoint   | 0x0282   |
| Data Size    | 67 bytes |
| Instructions | 13       |

```
      00 01 02 03 04 05 06 07  08 09 0A 0B 0C 0D 0E 0F
      -- -- -- -- -- -- -- --  -- -- -- -- -- -- -- --
0280:       1A 02 01 1A C0 01  1D 36 80 23 5B 13 80 F8    .......6.#[...
0290: FF FF 7F F8 FF FF 7F 74  6C 6B 31 1C 26 80 5B 13  .......tlk1.&.[.
02A0: 80 F8 FF FF 7F F8 FF FF  7F 74 68 6B 30 1D 37 80  .........thk0.7.
02B0: 23 5B 13 80 F8 FF FF 7F  F8 FF FF 7F 74 68 6B 31  #[..........thk1
02C0: 1C 38 80 21 00                                    .8.!.           
```

#### Opcodes

```
  0: 0x0282 [0x1A] CALL_SUBROUTINE(address=0x0102)
  1: 0x0285 [0x1A] CALL_SUBROUTINE(address=0x01C0)
  2: 0x0288 [0x1D] PRINT_EVENT_MESSAGE(message_id=10306*)
    → "Delkfutt's Tower? I jus' got some information 'bout Verena. If that piece of info is correct, then that tower is where Verena has been taken!"
  3: 0x028B [0x23] WAIT_FOR_DIALOG_INTERACTION
  4: 0x028C [0x5B] LOAD_EXT_SCHEDULER: Load scheduler "tlk1" with entities [EventEntity, EventEntity], work=566*
  5: 0x029B [0x1C] WAIT(30* ticks)
  6: 0x029E [0x5B] LOAD_EXT_SCHEDULER: Load scheduler "thk0" with entities [EventEntity, EventEntity], work=566*
  7: 0x02AD [0x1D] PRINT_EVENT_MESSAGE(message_id=10307*)
    → "And t'make things worse, our Zilart friends from Jeuno seem t'be involved. I've already sent some of me mateys t'help Aldo, but I have a bad feelin' about this. Hurry t'Qufim!"
  8: 0x02B0 [0x23] WAIT_FOR_DIALOG_INTERACTION
  9: 0x02B1 [0x5B] LOAD_EXT_SCHEDULER: Load scheduler "thk1" with entities [EventEntity, EventEntity], work=566*
 10: 0x02C0 [0x1C] WAIT(45* ticks)
 11: 0x02C3 [0x21] END_EVENT
 12: 0x02C4 [0x00] END_REQSTACK()
```

### Event 146

#### Metadata

| Field        | Value   |
|--------------|---------|
| Entrypoint   | 0x02C5  |
| Data Size    | 1 bytes |
| Instructions | 1       |

```
      00 01 02 03 04 05 06 07  08 09 0A 0B 0C 0D 0E 0F
      -- -- -- -- -- -- -- --  -- -- -- -- -- -- -- --
02C0:                00                                      .          
```

#### Opcodes

```
  0: 0x02C5 [0x00] END_REQSTACK()
```

### Event 158

#### Metadata

| Field        | Value   |
|--------------|---------|
| Entrypoint   | 0x02C6  |
| Data Size    | 1 bytes |
| Instructions | 1       |

```
      00 01 02 03 04 05 06 07  08 09 0A 0B 0C 0D 0E 0F
      -- -- -- -- -- -- -- --  -- -- -- -- -- -- -- --
02C0:                   00                                    .         
```

#### Opcodes

```
  0: 0x02C6 [0x00] END_REQSTACK()
```

### Event 164

#### Metadata

| Field        | Value   |
|--------------|---------|
| Entrypoint   | 0x02C7  |
| Data Size    | 1 bytes |
| Instructions | 1       |

```
      00 01 02 03 04 05 06 07  08 09 0A 0B 0C 0D 0E 0F
      -- -- -- -- -- -- -- --  -- -- -- -- -- -- -- --
02C0:                      00                                  .        
```

#### Opcodes

```
  0: 0x02C7 [0x00] END_REQSTACK()
```

### Event 169

#### Metadata

| Field        | Value   |
|--------------|---------|
| Entrypoint   | 0x02C8  |
| Data Size    | 1 bytes |
| Instructions | 1       |

```
      00 01 02 03 04 05 06 07  08 09 0A 0B 0C 0D 0E 0F
      -- -- -- -- -- -- -- --  -- -- -- -- -- -- -- --
02C0:                          00                               .       
```

#### Opcodes

```
  0: 0x02C8 [0x00] END_REQSTACK()
```

### Event 170

#### Metadata

| Field        | Value    |
|--------------|----------|
| Entrypoint   | 0x02C9   |
| Data Size    | 16 bytes |
| Instructions | 8        |

```
      00 01 02 03 04 05 06 07  08 09 0A 0B 0C 0D 0E 0F
      -- -- -- -- -- -- -- --  -- -- -- -- -- -- -- --
02C0:                             1A 02 01 1A C0 01 1D           .......
02D0: 39 80 23 1D 3A 80 23 21  00                       9.#.:.#!.       
```

#### Opcodes

```
  0: 0x02C9 [0x1A] CALL_SUBROUTINE(address=0x0102)
  1: 0x02CC [0x1A] CALL_SUBROUTINE(address=0x01C0)
  2: 0x02CF [0x1D] PRINT_EVENT_MESSAGE(message_id=10752*)
    → "A thief like her won't be easy t'find. I'll have me mateys around Vana'diel spread the word that yer lookin' fer a crystal like the one she has."
  3: 0x02D2 [0x23] WAIT_FOR_DIALOG_INTERACTION
  4: 0x02D3 [0x1D] PRINT_EVENT_MESSAGE(message_id=10753*)
    → "If she gets wind of that info, that Maree's likely t'settle down until ya find her. We can only pray that what she has is what we need."
  5: 0x02D6 [0x23] WAIT_FOR_DIALOG_INTERACTION
  6: 0x02D7 [0x21] END_EVENT
  7: 0x02D8 [0x00] END_REQSTACK()
```

### Event 171

#### Metadata

| Field        | Value    |
|--------------|----------|
| Entrypoint   | 0x02D9   |
| Data Size    | 21 bytes |
| Instructions | 9        |

```
      00 01 02 03 04 05 06 07  08 09 0A 0B 0C 0D 0E 0F
      -- -- -- -- -- -- -- --  -- -- -- -- -- -- -- --
02D0:                             1A 02 01 1A C0 01 03           .......
02E0: 02 10 3B 80 1D 3C 80 23  1D 3D 80 23 21 00        ..;..<.#.=.#!.  
```

#### Opcodes

```
  0: 0x02D9 [0x1A] CALL_SUBROUTINE(address=0x0102)
  1: 0x02DC [0x1A] CALL_SUBROUTINE(address=0x01C0)
  2: 0x02DF [0x03] Work_Zone[2] = 452*
  3: 0x02E4 [0x1D] PRINT_EVENT_MESSAGE(message_id=10754*)
    → "Arrrg, so that be the $3 that we've been searchin' fer. It looks like you had a hell of a time tryin' t'get yer hands on it."
  4: 0x02E7 [0x23] WAIT_FOR_DIALOG_INTERACTION
  5: 0x02E8 [0x1D] PRINT_EVENT_MESSAGE(message_id=10755*)
    → "But the real hell is yet t'come, <Player>. Crystal Warriors...floating islands... It may all seem crazy, but don't let that get in yer way. Yer Vana'diel's only hope."
  6: 0x02EB [0x23] WAIT_FOR_DIALOG_INTERACTION
  7: 0x02EC [0x21] END_EVENT
  8: 0x02ED [0x00] END_REQSTACK()
```

### Event 172

#### Metadata

| Field        | Value   |
|--------------|---------|
| Entrypoint   | 0x02EE  |
| Data Size    | 1 bytes |
| Instructions | 1       |

```
      00 01 02 03 04 05 06 07  08 09 0A 0B 0C 0D 0E 0F
      -- -- -- -- -- -- -- --  -- -- -- -- -- -- -- --
02E0:                                            00                   . 
```

#### Opcodes

```
  0: 0x02EE [0x00] END_REQSTACK()
```

### Event 173

#### Metadata

| Field        | Value    |
|--------------|----------|
| Entrypoint   | 0x02EF   |
| Data Size    | 12 bytes |
| Instructions | 6        |

```
      00 01 02 03 04 05 06 07  08 09 0A 0B 0C 0D 0E 0F
      -- -- -- -- -- -- -- --  -- -- -- -- -- -- -- --
02E0:                                               1A                 .
02F0: 02 01 1A C0 01 1D 3E 80  23 21 00                 ......>.#!.     
```

#### Opcodes

```
  0: 0x02EF [0x1A] CALL_SUBROUTINE(address=0x0102)
  1: 0x02F2 [0x1A] CALL_SUBROUTINE(address=0x01C0)
  2: 0x02F5 [0x1D] PRINT_EVENT_MESSAGE(message_id=10763*)
    → "We can't know when Eald'narche will attempt t'open the gate. It could be t'morrow, fer all I know. If ya have any preparations, I'd suggest makin' 'em now."
  3: 0x02F8 [0x23] WAIT_FOR_DIALOG_INTERACTION
  4: 0x02F9 [0x21] END_EVENT
  5: 0x02FA [0x00] END_REQSTACK()
```

### Event 176

#### Metadata

| Field        | Value   |
|--------------|---------|
| Entrypoint   | 0x02FB  |
| Data Size    | 1 bytes |
| Instructions | 1       |

```
      00 01 02 03 04 05 06 07  08 09 0A 0B 0C 0D 0E 0F
      -- -- -- -- -- -- -- --  -- -- -- -- -- -- -- --
02F0:                                   00                         .    
```

#### Opcodes

```
  0: 0x02FB [0x00] END_REQSTACK()
```

### Event 177

#### Metadata

| Field        | Value    |
|--------------|----------|
| Entrypoint   | 0x02FC   |
| Data Size    | 75 bytes |
| Instructions | 17       |

```
      00 01 02 03 04 05 06 07  08 09 0A 0B 0C 0D 0E 0F
      -- -- -- -- -- -- -- --  -- -- -- -- -- -- -- --
02F0:                                      1A 02 01 1A              ....
0300: C0 01 1D 3F 80 23 5B 13  80 F8 FF FF 7F F8 FF FF  ...?.#[.........
0310: 7F 74 6C 6B 31 1C 26 80  5B 13 80 F8 FF FF 7F F8  .tlk1.&.[.......
0320: FF FF 7F 74 68 6B 30 1D  40 80 23 5B 13 80 F8 FF  ...thk0.@.#[....
0330: FF 7F F8 FF FF 7F 74 68  6B 31 1C 38 80 1D 41 80  ......thk1.8..A.
0340: 23 1D 42 80 23 21 00                              #.B.#!.         
```

#### Opcodes

```
  0: 0x02FC [0x1A] CALL_SUBROUTINE(address=0x0102)
  1: 0x02FF [0x1A] CALL_SUBROUTINE(address=0x01C0)
  2: 0x0302 [0x1D] PRINT_EVENT_MESSAGE(message_id=10800*)
    → "Arrrg, the Zilarrrt's dream of Paradise may be over, but that doesn't change the fact that them beastmen still be crawlin' over the face of Vana'diel."
  3: 0x0305 [0x23] WAIT_FOR_DIALOG_INTERACTION
  4: 0x0306 [0x5B] LOAD_EXT_SCHEDULER: Load scheduler "tlk1" with entities [EventEntity, EventEntity], work=566*
  5: 0x0315 [0x1C] WAIT(30* ticks)
  6: 0x0318 [0x5B] LOAD_EXT_SCHEDULER: Load scheduler "thk0" with entities [EventEntity, EventEntity], work=566*
  7: 0x0327 [0x1D] PRINT_EVENT_MESSAGE(message_id=10801*)
    → "When ya think about it, this little charade with the princes may've just been the tip of the blimey iceberg."
  8: 0x032A [0x23] WAIT_FOR_DIALOG_INTERACTION
  9: 0x032B [0x5B] LOAD_EXT_SCHEDULER: Load scheduler "thk1" with entities [EventEntity, EventEntity], work=566*
 10: 0x033A [0x1C] WAIT(45* ticks)
 11: 0x033D [0x1D] PRINT_EVENT_MESSAGE(message_id=10802*)
    → "And Lion... I haven't told the other scallywags what really happened t'her. They all think she's off on some adventure..."
 12: 0x0340 [0x23] WAIT_FOR_DIALOG_INTERACTION
 13: 0x0341 [0x1D] PRINT_EVENT_MESSAGE(message_id=10803*)
    → "It's always easier t'forget about the things that trouble ya. That be why people always forget those who pass away. I don't want that happenin' t'me daughter. That's why she'll always be alive here in Norg."
 14: 0x0344 [0x23] WAIT_FOR_DIALOG_INTERACTION
 15: 0x0345 [0x21] END_EVENT
 16: 0x0346 [0x00] END_REQSTACK()
```

### Event 65535.15

#### Metadata

| Field        | Value    |
|--------------|----------|
| Entrypoint   | 0x0347   |
| Data Size    | 10 bytes |
| Instructions | 2        |

```
      00 01 02 03 04 05 06 07  08 09 0A 0B 0C 0D 0E 0F
      -- -- -- -- -- -- -- --  -- -- -- -- -- -- -- --
0340:                      37  43 80 44 80 45 80 46 80         7C.D.E.F.
0350: 00                                                .               
```

#### Opcodes

```
  0: 0x0347 [0x37] UPDATE_EVENT_POSITION_AND_DIR: x=-20.433*, z=-27.459*, y=1.097*, direction=180.6°*
  1: 0x0350 [0x00] END_REQSTACK()
```

### Event 232

#### Metadata

| Field        | Value      |
|--------------|------------|
| Entrypoint   | 0x0351     |
| Data Size    | 1340 bytes |
| Instructions | 187        |

```
      00 01 02 03 04 05 06 07  08 09 0A 0B 0C 0D 0E 0F
      -- -- -- -- -- -- -- --  -- -- -- -- -- -- -- --
0350:    42 03 00 00 09 10 1A  4F 0B 46 01 38 47 80 79   B......O.F.8G.y
0360: 00 F0 FF FF 7F F0 FF FF  7F 75 00 48 80 75 01 92  .........u.H.u..
0370: 01 F8 FF FF 7F 92 01 04  C0 0F 01 94 01 F0 FF FF  ................
0380: 7F 94 01 F8 FF FF 7F 94  01 04 C0 0F 01 29 10 F0  .............)..
0390: FF FF 7F 33 80 F0 FF FF  7F 80 F8 FF FF 7F 80 04  ...3............
03A0: C0 0F 01 4A F8 FF FF 7F  F0 FF FF 7F 1C 49 80 45  ...J.........I.E
03B0: 4A 80 F0 FF FF 7F F0 FF  FF 7F 6C 67 30 30 24 80  J.........lg00$.
03C0: 1A 2E 0B 1D 4B 80 23 52  4A 80 F0 FF FF 7F F0 FF  ....K.#RJ.......
03D0: FF 7F 6C 67 30 30 45 4A  80 F0 FF FF 7F F0 FF FF  ..lg00EJ........
03E0: 7F 6C 67 30 31 24 80 5B  13 80 F8 FF FF 7F F8 FF  .lg01$.[........
03F0: FF 7F 74 6C 6B 30 1C 49  80 1D 4C 80 23 1D 4D 80  ..tlk0.I..L.#.M.
0400: 23 5D 24 80 4E 80 5B 13  80 F8 FF FF 7F F8 FF FF  #]$.N.[.........
0410: 7F 74 6C 6B 31 53 F8 FF  FF 7F F8 FF FF 7F 74 6C  .tlk1S........tl
0420: 6B 31 5C 00 4F 80 5C 01  4F 80 9A 52 4A 80 F0 FF  k1\.O.\.O..RJ...
0430: FF 7F F0 FF FF 7F 6C 67  30 31 45 4A 80 F0 FF FF  ......lg01EJ....
0440: 7F F0 FF FF 7F 6C 67 30  32 24 80 5B 13 80 F8 FF  .....lg02$.[....
0450: FF 7F F8 FF FF 7F 74 68  6B 30 1C 38 80 1D 50 80  ......thk0.8..P.
0460: 23 1D 51 80 23 52 4A 80  F0 FF FF 7F F0 FF FF 7F  #.Q.#RJ.........
0470: 6C 67 30 32 45 4A 80 F0  FF FF 7F F0 FF FF 7F 6C  lg02EJ.........l
0480: 67 30 34 24 80 1D 52 80  23 52 4A 80 F0 FF FF 7F  g04$..R.#RJ.....
0490: F0 FF FF 7F 6C 67 30 34  45 4A 80 F0 FF FF 7F F0  ....lg04EJ......
04A0: FF FF 7F 6C 67 30 33 24  80 5B 13 80 F8 FF FF 7F  ...lg03$.[......
04B0: F8 FF FF 7F 74 68 6B 31  53 F8 FF FF 7F F8 FF FF  ....thk1S.......
04C0: 7F 74 68 6B 31 1D 53 80  23 02 00 00 2D 80 00 E2  .thk1.S.#...-...
04D0: 04 1A 4F 0B 1C 38 80 03  01 10 54 80 1A 2E 0B 01  ..O..8....T.....
04E0: E7 07 03 01 10 55 80 43  00 43 01 24 56 80 24 80  .....U.C.C.$V.$.
04F0: 24 80 25 02 00 10 24 80  00 74 05 03 01 10 24 80  $.%...$..t....$.
0500: 43 00 43 01 52 4A 80 F0  FF FF 7F F0 FF FF 7F 6C  C.C.RJ.........l
0510: 67 30 33 45 4A 80 F0 FF  FF 7F F0 FF FF 7F 6C 67  g03EJ.........lg
0520: 30 37 24 80 5B 13 80 F8  FF FF 7F F8 FF FF 7F 66  07$.[..........f
0530: 74 6B 30 1D 57 80 23 1D  58 80 23 53 F8 FF FF 7F  tk0.W.#.X.#S....
0540: F8 FF FF 7F 66 74 6B 30  5B 13 80 F8 FF FF 7F F8  ....ftk0[.......
0550: FF FF 7F 66 74 6B 31 1C  29 80 52 4A 80 F0 FF FF  ...ftk1.).RJ....
0560: 7F F0 FF FF 7F 6C 67 30  37 03 01 10 24 80 01 E7  .....lg07...$...
0570: 07 01 E4 07 02 00 10 2D  80 00 10 06 03 02 10 03  .......-........
0580: 10 93 02 10 1D 59 80 23  93 24 80 24 5A 80 2D 80  .....Y.#.$.$Z.-.
0590: 24 80 25 02 00 10 24 80  00 0D 06 03 01 10 2D 80  $.%...$.......-.
05A0: 43 00 43 01 52 4A 80 F0  FF FF 7F F0 FF FF 7F 6C  C.C.RJ.........l
05B0: 67 30 33 45 4A 80 F0 FF  FF 7F F0 FF FF 7F 6C 67  g03EJ.........lg
05C0: 30 37 24 80 02 09 10 24  80 00 F4 05 5B 5B 80 F8  07$....$....[[..
05D0: FF FF 7F F8 FF FF 7F 70  61 73 30 1D 5C 80 23 53  .......pas0.\.#S
05E0: F8 FF FF 7F F8 FF FF 7F  70 61 73 30 03 01 10 2D  ........pas0...-
05F0: 80 01 F8 05 1D 5D 80 23  52 4A 80 F0 FF FF 7F F0  .....].#RJ......
0600: FF FF 7F 6C 67 30 37 01  E7 07 01 0D 06 01 E4 07  ...lg07.........
0610: 02 00 10 5E 80 00 AC 06  03 02 10 04 10 93 02 10  ...^............
0620: 1D 59 80 23 93 24 80 24  5A 80 2D 80 24 80 25 02  .Y.#.$.$Z.-.$.%.
0630: 00 10 24 80 00 A9 06 03  01 10 5E 80 43 00 43 01  ..$.......^.C.C.
0640: 52 4A 80 F0 FF FF 7F F0  FF FF 7F 6C 67 30 33 45  RJ.........lg03E
0650: 4A 80 F0 FF FF 7F F0 FF  FF 7F 6C 67 30 37 24 80  J.........lg07$.
0660: 02 09 10 24 80 00 90 06  5B 5B 80 F8 FF FF 7F F8  ...$....[[......
0670: FF FF 7F 70 61 73 30 1D  5C 80 23 53 F8 FF FF 7F  ...pas0.\.#S....
0680: F8 FF FF 7F 70 61 73 30  03 01 10 5E 80 01 94 06  ....pas0...^....
0690: 1D 5D 80 23 52 4A 80 F0  FF FF 7F F0 FF FF 7F 6C  .].#RJ.........l
06A0: 67 30 37 01 E7 07 01 A9  06 01 E4 07 02 00 10 5F  g07............_
06B0: 80 00 48 07 03 02 10 05  10 93 02 10 1D 59 80 23  ..H..........Y.#
06C0: 93 24 80 24 5A 80 2D 80  24 80 25 02 00 10 24 80  .$.$Z.-.$.%...$.
06D0: 00 45 07 03 01 10 5F 80  43 00 43 01 52 4A 80 F0  .E...._.C.C.RJ..
06E0: FF FF 7F F0 FF FF 7F 6C  67 30 33 45 4A 80 F0 FF  .......lg03EJ...
06F0: FF 7F F0 FF FF 7F 6C 67  30 37 24 80 02 09 10 24  ......lg07$....$
0700: 80 00 2C 07 5B 5B 80 F8  FF FF 7F F8 FF FF 7F 70  ..,.[[.........p
0710: 61 73 30 1D 5C 80 23 53  F8 FF FF 7F F8 FF FF 7F  as0.\.#S........
0720: 70 61 73 30 03 01 10 5F  80 01 30 07 1D 5D 80 23  pas0..._..0..].#
0730: 52 4A 80 F0 FF FF 7F F0  FF FF 7F 6C 67 30 37 01  RJ.........lg07.
0740: E7 07 01 45 07 01 E4 07  02 00 10 60 80 00 E4 07  ...E.......`....
0750: 03 02 10 06 10 93 02 10  1D 59 80 23 93 24 80 24  .........Y.#.$.$
0760: 5A 80 2D 80 24 80 25 02  00 10 24 80 00 E1 07 03  Z.-.$.%...$.....
0770: 01 10 60 80 43 00 43 01  52 4A 80 F0 FF FF 7F F0  ..`.C.C.RJ......
0780: FF FF 7F 6C 67 30 33 45  4A 80 F0 FF FF 7F F0 FF  ...lg03EJ.......
0790: FF 7F 6C 67 30 37 24 80  02 09 10 24 80 00 C8 07  ..lg07$....$....
07A0: 5B 5B 80 F8 FF FF 7F F8  FF FF 7F 70 61 73 30 1D  [[.........pas0.
07B0: 5C 80 23 53 F8 FF FF 7F  F8 FF FF 7F 70 61 73 30  \.#S........pas0
07C0: 03 01 10 60 80 01 CC 07  1D 5D 80 23 52 4A 80 F0  ...`.....].#RJ..
07D0: FF FF 7F F0 FF FF 7F 6C  67 30 37 01 E7 07 01 E1  .......lg07.....
07E0: 07 01 E4 07 01 E2 04 45  4A 80 F0 FF FF 7F F0 FF  .......EJ.......
07F0: FF 7F 6C 67 30 35 24 80  1D 61 80 23 52 4A 80 F0  ..lg05$..a.#RJ..
0800: FF FF 7F F0 FF FF 7F 6C  67 30 35 45 4A 80 F0 FF  .......lg05EJ...
0810: FF 7F F0 FF FF 7F 6C 67  30 36 24 80 5B 13 80 F8  ......lg06$.[...
0820: FF FF 7F F8 FF FF 7F 74  6C 6B 30 1D 62 80 23 5B  .......tlk0.b.#[
0830: 13 80 F8 FF FF 7F F8 FF  FF 7F 74 6C 6B 31 1C 26  ..........tlk1.&
0840: 80 1A 4F 0B 1C 26 80 52  4A 80 F0 FF FF 7F F0 FF  ..O..&.RJ.......
0850: FF 7F 6C 67 30 36 5C 00  63 80 5C 01 63 80 9A 46  ..lg06\.c.\.c..F
0860: 00 02 01 10 24 80 01 7A  08 45 64 80 F0 FF FF 7F  ....$..z.Ed.....
0870: F0 FF FF 7F 71 73 74 63  24 80 45 4E 80 F0 FF FF  ....qstc$.EN....
0880: 7F F0 FF FF 7F 66 64 69  32 24 80 21 00           .....fdi2$.!.   
```

#### Opcodes

```
  0: 0x0351 [0x42] SET_CLI_EVENT_CANCEL_DATA()
  1: 0x0352 [0x03] ExtData[1]->WorkLocal[0] = Work_Zone[9]
  2: 0x0357 [0x1A] CALL_SUBROUTINE(address=0x0B4F)
  3: 0x035A [0x46] CAMERA_CONTROL: Disable user control
  4: 0x035C [0x38] SET_CLIENT_EVENT_MODE(mode=19*)
  5: 0x035F [0x79] LocalPlayer looks at LocalPlayer (Basic look)
  6: 0x0369 [0x75] LOAD_ROOM(Load indoor room, room=514*)
  7: 0x036D [0x75] LOAD_ROOM(No action)
  8: 0x036F [0x92] EventEntity->Render.Flags3 ^= 0x01
  9: 0x0375 [0x92] Kamui (ID: 17809412/0x010FC004)->Render.Flags3 ^= 0x01
 10: 0x037B [0x94] LocalPlayer->Render.Flags3 ^= 0x01
 11: 0x0381 [0x94] EventEntity->Render.Flags3 ^= 0x01
 12: 0x0387 [0x94] Kamui (ID: 17809412/0x010FC004)->Render.Flags3 ^= 0x01
 13: 0x038D [0x29] REQ_SET_WAIT(priority=0x10, entity_id=LocalPlayer, tag_num=0x33)
 14: 0x0394 [0x80] LOAD_WAIT(entity=LocalPlayer)
 15: 0x0399 [0x80] LOAD_WAIT(entity=EventEntity)
 16: 0x039E [0x80] LOAD_WAIT(entity=Kamui (ID: 17809412/0x010FC004))
 17: 0x03A3 [0x4A] EventEntity looks at LocalPlayer
 18: 0x03AC [0x1C] WAIT(15* ticks)
 19: 0x03AF [0x45] LOAD_SCHEDULED_TASK: Load scheduler "lg00" with entities [LocalPlayer, LocalPlayer], work=[257*, 0*]
 20: 0x03C0 [0x1A] CALL_SUBROUTINE(address=0x0B2E)
 21: 0x03C3 [0x1D] PRINT_EVENT_MESSAGE(message_id=11247*)
    → "Arrg, be good to see ya! So you and yer friends were the landlubbers what saved her, eh?"
 22: 0x03C6 [0x23] WAIT_FOR_DIALOG_INTERACTION
 23: 0x03C7 [0x52] END_LOAD_SCHEDULER: End scheduler "lg00" with entities [LocalPlayer, LocalPlayer], work=257*
 24: 0x03D6 [0x45] LOAD_SCHEDULED_TASK: Load scheduler "lg01" with entities [LocalPlayer, LocalPlayer], work=[257*, 0*]
 25: 0x03E7 [0x5B] LOAD_EXT_SCHEDULER: Load scheduler "tlk0" with entities [EventEntity, EventEntity], work=566*
 26: 0x03F6 [0x1C] WAIT(15* ticks)
 27: 0x03F9 [0x1D] PRINT_EVENT_MESSAGE(message_id=11248*)
    → "Don't ya worry none, she be sleepin' it off like a sailor that's too fond of Opo-opo brew. The whole ordeal's left me girl a bit under the weather, but she'll pull through."
 28: 0x03FC [0x23] WAIT_FOR_DIALOG_INTERACTION
 29: 0x03FD [0x1D] PRINT_EVENT_MESSAGE(message_id=11249*)
    → "Hasn't stopped her talkin' me ears off, o'course. Can't get a word in edgewise."
 30: 0x0400 [0x23] WAIT_FOR_DIALOG_INTERACTION
 31: 0x0401 [0x5D] SET_MUSIC_VOLUME(volume=0*, fade_time=200*)
 32: 0x0406 [0x5B] LOAD_EXT_SCHEDULER: Load scheduler "tlk1" with entities [EventEntity, EventEntity], work=566*
 33: 0x0415 [0x53] WAIT_SCHEDULER_TASK: Wait for scheduler "tlk1" with entities [EventEntity, EventEntity]
 34: 0x0422 [0x5C] MUSIC_CONTROL: Set Idle (Day) music to song 122*
 35: 0x0426 [0x5C] MUSIC_CONTROL: Set Idle (Night) music to song 122*
 36: 0x042A [0x9A] WAIT_MUSIC_SERVER()
 37: 0x042B [0x52] END_LOAD_SCHEDULER: End scheduler "lg01" with entities [LocalPlayer, LocalPlayer], work=257*
 38: 0x043A [0x45] LOAD_SCHEDULED_TASK: Load scheduler "lg02" with entities [LocalPlayer, LocalPlayer], work=[257*, 0*]
 39: 0x044B [0x5B] LOAD_EXT_SCHEDULER: Load scheduler "thk0" with entities [EventEntity, EventEntity], work=566*
 40: 0x045A [0x1C] WAIT(45* ticks)
 41: 0x045D [0x1D] PRINT_EVENT_MESSAGE(message_id=11250*)
    → "...I jus' be glad that me girl ain't forgotten about me."
 42: 0x0460 [0x23] WAIT_FOR_DIALOG_INTERACTION
 43: 0x0461 [0x1D] PRINT_EVENT_MESSAGE(message_id=11251*)
    → "Even after walkin' the plank into the great beyond, she still remembers her old man."
 44: 0x0464 [0x23] WAIT_FOR_DIALOG_INTERACTION
 45: 0x0465 [0x52] END_LOAD_SCHEDULER: End scheduler "lg02" with entities [LocalPlayer, LocalPlayer], work=257*
 46: 0x0474 [0x45] LOAD_SCHEDULED_TASK: Load scheduler "lg04" with entities [LocalPlayer, LocalPlayer], work=[257*, 0*]
 47: 0x0485 [0x1D] PRINT_EVENT_MESSAGE(message_id=11252*)
    → "She may not be me daughter by blood, but she's still the apple of me eye. I do believe a reward be due you."
 48: 0x0488 [0x23] WAIT_FOR_DIALOG_INTERACTION
 49: 0x0489 [0x52] END_LOAD_SCHEDULER: End scheduler "lg04" with entities [LocalPlayer, LocalPlayer], work=257*
 50: 0x0498 [0x45] LOAD_SCHEDULED_TASK: Load scheduler "lg03" with entities [LocalPlayer, LocalPlayer], work=[257*, 0*]
 51: 0x04A9 [0x5B] LOAD_EXT_SCHEDULER: Load scheduler "thk1" with entities [EventEntity, EventEntity], work=566*
 52: 0x04B8 [0x53] WAIT_SCHEDULER_TASK: Wait for scheduler "thk1" with entities [EventEntity, EventEntity]
 53: 0x04C5 [0x1D] PRINT_EVENT_MESSAGE(message_id=11253*)
    → "Ya can have the pick of one of me treasures. I'll be givin' whatever's left to yer mates what helped ya."
 54: 0x04C8 [0x23] WAIT_FOR_DIALOG_INTERACTION
 55: 0x04C9 [0x02] IF !(ExtData[1]->WorkLocal[0] == 1*) GOTO 0x04E2
 56: 0x04D1 [0x1A] CALL_SUBROUTINE(address=0x0B4F)
 57: 0x04D4 [0x1C] WAIT(45* ticks)
 58: 0x04D7 [0x03] Work_Zone[1] = 100*
 59: 0x04DC [0x1A] CALL_SUBROUTINE(address=0x0B2E)
 60: 0x04DF [0x01] GOTO 0x07E7

SUBROUTINE_04E2:
 61: 0x04E2 [0x03] Work_Zone[1] = 99*
 62: 0x04E7 [0x43] SEND_EVENT_UPDATE: Send pending tag to server (packet 0x005B)
 63: 0x04E9 [0x43] SEND_EVENT_UPDATE: Check pending flag (skip if not pending)
 64: 0x04EB [0x24] CREATE_DIALOG(message_id=11254*, default_option=0*, option_flags=0*)
    → "What do ya choose? [Let me think about it./$1./$2./$3./$4.]"
 65: 0x04F2 [0x25] WAIT_DIALOG_SELECT()
 66: 0x04F3 [0x02] IF !(Work_Zone[0] == 0*) GOTO 0x0574
 67: 0x04FB [0x03] Work_Zone[1] = 0*
 68: 0x0500 [0x43] SEND_EVENT_UPDATE: Send pending tag to server (packet 0x005B)
 69: 0x0502 [0x43] SEND_EVENT_UPDATE: Check pending flag (skip if not pending)
 70: 0x0504 [0x52] END_LOAD_SCHEDULER: End scheduler "lg03" with entities [LocalPlayer, LocalPlayer], work=257*
 71: 0x0513 [0x45] LOAD_SCHEDULED_TASK: Load scheduler "lg07" with entities [LocalPlayer, LocalPlayer], work=[257*, 0*]
 72: 0x0524 [0x5B] LOAD_EXT_SCHEDULER: Load scheduler "ftk0" with entities [EventEntity, EventEntity], work=566*
 73: 0x0533 [0x1D] PRINT_EVENT_MESSAGE(message_id=11260*)
    → "Blimey. Are ya tryin' t'tell me that the savior of the world can't make up [his/her] mind about a simple thing like this? Guess some things never change, eh?"
 74: 0x0536 [0x23] WAIT_FOR_DIALOG_INTERACTION
 75: 0x0537 [0x1D] PRINT_EVENT_MESSAGE(message_id=11261*)
    → "But who be I t'judge? Let me know when you've made yer decision. Jus' don't complain if all the best loot be taken!"
 76: 0x053A [0x23] WAIT_FOR_DIALOG_INTERACTION
 77: 0x053B [0x53] WAIT_SCHEDULER_TASK: Wait for scheduler "ftk0" with entities [EventEntity, EventEntity]
 78: 0x0548 [0x5B] LOAD_EXT_SCHEDULER: Load scheduler "ftk1" with entities [EventEntity, EventEntity], work=566*
 79: 0x0557 [0x1C] WAIT(60* ticks)
 80: 0x055A [0x52] END_LOAD_SCHEDULER: End scheduler "lg07" with entities [LocalPlayer, LocalPlayer], work=257*
 81: 0x0569 [0x03] Work_Zone[1] = 0*
 82: 0x056E [0x01] GOTO 0x07E7

SUBROUTINE_05F8:
 83: 0x05F8 [0x52] END_LOAD_SCHEDULER: End scheduler "lg07" with entities [LocalPlayer, LocalPlayer], work=257*
 84: 0x0607 [0x01] GOTO 0x07E7

SUBROUTINE_060D:
 85: 0x060D [0x01] GOTO 0x07E4
 86: 0x0610 [0x02] IF !(Work_Zone[0] == 2*) GOTO 0x06AC
 87: 0x0618 [0x03] Work_Zone[2] = Work_Zone[4]
 88: 0x061D [0x93] DISPLAY_ITEM_INFO(item_id=Work_Zone[2])
 89: 0x0620 [0x1D] PRINT_EVENT_MESSAGE(message_id=11255*)
    → "$0. That's what ya want?"
 90: 0x0623 [0x23] WAIT_FOR_DIALOG_INTERACTION
 91: 0x0624 [0x93] DISPLAY_ITEM_INFO(item_id=0*)
 92: 0x0627 [0x24] CREATE_DIALOG(message_id=11256*, default_option=1*, option_flags=0*)
    → "Ya want $0? [Aye./Nay.]"
 93: 0x062E [0x25] WAIT_DIALOG_SELECT()
 94: 0x062F [0x02] IF !(Work_Zone[0] == 0*) GOTO 0x06A9
 95: 0x0637 [0x03] Work_Zone[1] = 2*
 96: 0x063C [0x43] SEND_EVENT_UPDATE: Send pending tag to server (packet 0x005B)
 97: 0x063E [0x43] SEND_EVENT_UPDATE: Check pending flag (skip if not pending)
 98: 0x0640 [0x52] END_LOAD_SCHEDULER: End scheduler "lg03" with entities [LocalPlayer, LocalPlayer], work=257*
 99: 0x064F [0x45] LOAD_SCHEDULED_TASK: Load scheduler "lg07" with entities [LocalPlayer, LocalPlayer], work=[257*, 0*]
100: 0x0660 [0x02] IF !(Work_Zone[9] == 0*) GOTO 0x0690
101: 0x0668 [0x5B] LOAD_EXT_SCHEDULER: Load scheduler "pas0" with entities [EventEntity, EventEntity], work=567*
102: 0x0677 [0x1D] PRINT_EVENT_MESSAGE(message_id=11264*)
    → "Here. That be a treasure unlike any you'll ever see again. Don't go losin' it over the side of no stinkin' ferry!"
103: 0x067A [0x23] WAIT_FOR_DIALOG_INTERACTION
104: 0x067B [0x53] WAIT_SCHEDULER_TASK: Wait for scheduler "pas0" with entities [EventEntity, EventEntity]
105: 0x0688 [0x03] Work_Zone[1] = 2*
106: 0x068D [0x01] GOTO 0x0694
107: 0x0690 [0x1D] PRINT_EVENT_MESSAGE(message_id=11263*)
    → "By me bleedin' eyepatch, I can't be handing over any booty when yer bag be full of flotsam and jetsam. You heroes need to learn a thing o' two about organization!"
108: 0x0693 [0x23] WAIT_FOR_DIALOG_INTERACTION

SUBROUTINE_0694:
109: 0x0694 [0x52] END_LOAD_SCHEDULER: End scheduler "lg07" with entities [LocalPlayer, LocalPlayer], work=257*
110: 0x06A3 [0x01] GOTO 0x07E7

SUBROUTINE_06A9:
111: 0x06A9 [0x01] GOTO 0x07E4
112: 0x06AC [0x02] IF !(Work_Zone[0] == 3*) GOTO 0x0748
113: 0x06B4 [0x03] Work_Zone[2] = Work_Zone[5]
114: 0x06B9 [0x93] DISPLAY_ITEM_INFO(item_id=Work_Zone[2])
115: 0x06BC [0x1D] PRINT_EVENT_MESSAGE(message_id=11255*)
    → "$0. That's what ya want?"
116: 0x06BF [0x23] WAIT_FOR_DIALOG_INTERACTION
117: 0x06C0 [0x93] DISPLAY_ITEM_INFO(item_id=0*)
118: 0x06C3 [0x24] CREATE_DIALOG(message_id=11256*, default_option=1*, option_flags=0*)
    → "Ya want $0? [Aye./Nay.]"
119: 0x06CA [0x25] WAIT_DIALOG_SELECT()
120: 0x06CB [0x02] IF !(Work_Zone[0] == 0*) GOTO 0x0745
121: 0x06D3 [0x03] Work_Zone[1] = 3*
122: 0x06D8 [0x43] SEND_EVENT_UPDATE: Send pending tag to server (packet 0x005B)
123: 0x06DA [0x43] SEND_EVENT_UPDATE: Check pending flag (skip if not pending)
124: 0x06DC [0x52] END_LOAD_SCHEDULER: End scheduler "lg03" with entities [LocalPlayer, LocalPlayer], work=257*
125: 0x06EB [0x45] LOAD_SCHEDULED_TASK: Load scheduler "lg07" with entities [LocalPlayer, LocalPlayer], work=[257*, 0*]
126: 0x06FC [0x02] IF !(Work_Zone[9] == 0*) GOTO 0x072C
127: 0x0704 [0x5B] LOAD_EXT_SCHEDULER: Load scheduler "pas0" with entities [EventEntity, EventEntity], work=567*
128: 0x0713 [0x1D] PRINT_EVENT_MESSAGE(message_id=11264*)
    → "Here. That be a treasure unlike any you'll ever see again. Don't go losin' it over the side of no stinkin' ferry!"
129: 0x0716 [0x23] WAIT_FOR_DIALOG_INTERACTION
130: 0x0717 [0x53] WAIT_SCHEDULER_TASK: Wait for scheduler "pas0" with entities [EventEntity, EventEntity]
131: 0x0724 [0x03] Work_Zone[1] = 3*
132: 0x0729 [0x01] GOTO 0x0730
133: 0x072C [0x1D] PRINT_EVENT_MESSAGE(message_id=11263*)
    → "By me bleedin' eyepatch, I can't be handing over any booty when yer bag be full of flotsam and jetsam. You heroes need to learn a thing o' two about organization!"
134: 0x072F [0x23] WAIT_FOR_DIALOG_INTERACTION

SUBROUTINE_0730:
135: 0x0730 [0x52] END_LOAD_SCHEDULER: End scheduler "lg07" with entities [LocalPlayer, LocalPlayer], work=257*
136: 0x073F [0x01] GOTO 0x07E7

SUBROUTINE_0745:
137: 0x0745 [0x01] GOTO 0x07E4
138: 0x0748 [0x02] IF !(Work_Zone[0] == 4*) GOTO 0x07E4
139: 0x0750 [0x03] Work_Zone[2] = Work_Zone[6]
140: 0x0755 [0x93] DISPLAY_ITEM_INFO(item_id=Work_Zone[2])
141: 0x0758 [0x1D] PRINT_EVENT_MESSAGE(message_id=11255*)
    → "$0. That's what ya want?"
142: 0x075B [0x23] WAIT_FOR_DIALOG_INTERACTION
143: 0x075C [0x93] DISPLAY_ITEM_INFO(item_id=0*)
144: 0x075F [0x24] CREATE_DIALOG(message_id=11256*, default_option=1*, option_flags=0*)
    → "Ya want $0? [Aye./Nay.]"
145: 0x0766 [0x25] WAIT_DIALOG_SELECT()
146: 0x0767 [0x02] IF !(Work_Zone[0] == 0*) GOTO 0x07E1
147: 0x076F [0x03] Work_Zone[1] = 4*
148: 0x0774 [0x43] SEND_EVENT_UPDATE: Send pending tag to server (packet 0x005B)
149: 0x0776 [0x43] SEND_EVENT_UPDATE: Check pending flag (skip if not pending)
150: 0x0778 [0x52] END_LOAD_SCHEDULER: End scheduler "lg03" with entities [LocalPlayer, LocalPlayer], work=257*
151: 0x0787 [0x45] LOAD_SCHEDULED_TASK: Load scheduler "lg07" with entities [LocalPlayer, LocalPlayer], work=[257*, 0*]
152: 0x0798 [0x02] IF !(Work_Zone[9] == 0*) GOTO 0x07C8
153: 0x07A0 [0x5B] LOAD_EXT_SCHEDULER: Load scheduler "pas0" with entities [EventEntity, EventEntity], work=567*
154: 0x07AF [0x1D] PRINT_EVENT_MESSAGE(message_id=11264*)
    → "Here. That be a treasure unlike any you'll ever see again. Don't go losin' it over the side of no stinkin' ferry!"
155: 0x07B2 [0x23] WAIT_FOR_DIALOG_INTERACTION
156: 0x07B3 [0x53] WAIT_SCHEDULER_TASK: Wait for scheduler "pas0" with entities [EventEntity, EventEntity]
157: 0x07C0 [0x03] Work_Zone[1] = 4*
158: 0x07C5 [0x01] GOTO 0x07CC
159: 0x07C8 [0x1D] PRINT_EVENT_MESSAGE(message_id=11263*)
    → "By me bleedin' eyepatch, I can't be handing over any booty when yer bag be full of flotsam and jetsam. You heroes need to learn a thing o' two about organization!"
160: 0x07CB [0x23] WAIT_FOR_DIALOG_INTERACTION

SUBROUTINE_07CC:
161: 0x07CC [0x52] END_LOAD_SCHEDULER: End scheduler "lg07" with entities [LocalPlayer, LocalPlayer], work=257*
162: 0x07DB [0x01] GOTO 0x07E7

SUBROUTINE_07E1:
163: 0x07E1 [0x01] GOTO 0x07E4

SUBROUTINE_07E4:
164: 0x07E4 [0x01] GOTO 0x04E2

SUBROUTINE_07E7:
165: 0x07E7 [0x45] LOAD_SCHEDULED_TASK: Load scheduler "lg05" with entities [LocalPlayer, LocalPlayer], work=[257*, 0*]
166: 0x07F8 [0x1D] PRINT_EVENT_MESSAGE(message_id=11257*)
    → "Arrg, I almost be forgettin'. Me girl wants ya to pummel some beastie that's been hauntin' her dreams. Stuff o' nightmares, she says."
167: 0x07FB [0x23] WAIT_FOR_DIALOG_INTERACTION
168: 0x07FC [0x52] END_LOAD_SCHEDULER: End scheduler "lg05" with entities [LocalPlayer, LocalPlayer], work=257*
169: 0x080B [0x45] LOAD_SCHEDULED_TASK: Load scheduler "lg06" with entities [LocalPlayer, LocalPlayer], work=[257*, 0*]
170: 0x081C [0x5B] LOAD_EXT_SCHEDULER: Load scheduler "tlk0" with entities [EventEntity, EventEntity], work=566*
171: 0x082B [0x1D] PRINT_EVENT_MESSAGE(message_id=11258*)
    → "Don't make much sense to me, but I be guessin' you know the truth of it. If ya ever need an old pirate's help, ya just let me know."
172: 0x082E [0x23] WAIT_FOR_DIALOG_INTERACTION
173: 0x082F [0x5B] LOAD_EXT_SCHEDULER: Load scheduler "tlk1" with entities [EventEntity, EventEntity], work=566*
174: 0x083E [0x1C] WAIT(30* ticks)
175: 0x0841 [0x1A] CALL_SUBROUTINE(address=0x0B4F)
176: 0x0844 [0x1C] WAIT(30* ticks)
177: 0x0847 [0x52] END_LOAD_SCHEDULER: End scheduler "lg06" with entities [LocalPlayer, LocalPlayer], work=257*
178: 0x0856 [0x5C] MUSIC_CONTROL: Set Idle (Day) music to song 209*
179: 0x085A [0x5C] MUSIC_CONTROL: Set Idle (Night) music to song 209*
180: 0x085E [0x9A] WAIT_MUSIC_SERVER()
181: 0x085F [0x46] CAMERA_CONTROL: Restore default settings
182: 0x0861 [0x02] IF !(Work_Zone[1] == 0*) GOTO 0x087A
183: 0x0869 [0x45] LOAD_SCHEDULED_TASK: Load scheduler "qstc" with entities [LocalPlayer, LocalPlayer], work=[201*, 0*]
184: 0x087A [0x45] LOAD_SCHEDULED_TASK: Load scheduler "fdi2" with entities [LocalPlayer, LocalPlayer], work=[200*, 0*]
185: 0x088B [0x21] END_EVENT
186: 0x088C [0x00] END_REQSTACK()
```

#### Data or dead code:

```
# Dead code (unreachable instructions):
     0x0571 [0x01] GOTO 0x07E4
# Dead code (unreachable instructions):
     0x060A [0x01] GOTO 0x060D
# Dead code (unreachable instructions):
     0x06A6 [0x01] GOTO 0x06A9
# Dead code (unreachable instructions):
     0x0742 [0x01] GOTO 0x0745
# Dead code (unreachable instructions):
     0x07DE [0x01] GOTO 0x07E1
```

### Event 233

#### Metadata

| Field        | Value    |
|--------------|----------|
| Entrypoint   | 0x088D   |
| Data Size    | 16 bytes |
| Instructions | 8        |

```
      00 01 02 03 04 05 06 07  08 09 0A 0B 0C 0D 0E 0F
      -- -- -- -- -- -- -- --  -- -- -- -- -- -- -- --
0880:                                         1A 02 01               ...
0890: 1A C0 01 1D 65 80 23 1D  62 80 23 21 00           ....e.#.b.#!.   
```

#### Opcodes

```
  0: 0x088D [0x1A] CALL_SUBROUTINE(address=0x0102)
  1: 0x0890 [0x1A] CALL_SUBROUTINE(address=0x01C0)
  2: 0x0893 [0x1D] PRINT_EVENT_MESSAGE(message_id=11259*)
    → "Fer a girl what's saved the world, it be an endearin' thing fer her to be afraid of her dreams."
  3: 0x0896 [0x23] WAIT_FOR_DIALOG_INTERACTION
  4: 0x0897 [0x1D] PRINT_EVENT_MESSAGE(message_id=11258*)
    → "Don't make much sense to me, but I be guessin' you know the truth of it. If ya ever need an old pirate's help, ya just let me know."
  5: 0x089A [0x23] WAIT_FOR_DIALOG_INTERACTION
  6: 0x089B [0x21] END_EVENT
  7: 0x089C [0x00] END_REQSTACK()
```

### Event 234

#### Metadata

| Field        | Value      |
|--------------|------------|
| Entrypoint   | 0x089D     |
| Data Size    | 1248 bytes |
| Instructions | 101        |

```
      00 01 02 03 04 05 06 07  08 09 0A 0B 0C 0D 0E 0F
      -- -- -- -- -- -- -- --  -- -- -- -- -- -- -- --
0890:                                         42 1A 02               B..
08A0: 01 1A C0 01 1D 66 80 23  5B 13 80 F8 FF FF 7F F8  .....f.#[.......
08B0: FF FF 7F 74 6C 6B 31 03  01 10 55 80 43 00 43 01  ...tlk1...U.C.C.
08C0: 24 56 80 24 80 24 80 25  02 00 10 24 80 00 1A 09  $V.$.$.%...$....
08D0: 03 01 10 24 80 43 00 43  01 5B 13 80 F8 FF FF 7F  ...$.C.C.[......
08E0: F8 FF FF 7F 66 74 6B 30  1D 57 80 23 1D 58 80 23  ....ftk0.W.#.X.#
08F0: 53 F8 FF FF 7F F8 FF FF  7F 66 74 6B 30 5B 13 80  S........ftk0[..
0900: F8 FF FF 7F F8 FF FF 7F  66 74 6B 31 1C 29 80 03  ........ftk1.)..
0910: 01 10 24 80 01 D1 0A 01  CE 0A 02 00 10 2D 80 00  ..$..........-..
0920: 87 09 03 02 10 03 10 93  02 10 1D 59 80 23 93 24  ...........Y.#.$
0930: 80 24 5A 80 2D 80 24 80  25 02 00 10 24 80 00 84  .$Z.-.$.%...$...
0940: 09 03 01 10 2D 80 43 00  43 01 02 09 10 24 80 00  ....-.C.C....$..
0950: 7A 09 5B 5B 80 F8 FF FF  7F F8 FF FF 7F 70 61 73  z.[[.........pas
0960: 30 1D 5C 80 23 53 F8 FF  FF 7F F8 FF FF 7F 70 61  0.\.#S........pa
0970: 73 30 03 01 10 2D 80 01  7E 09 1D 5D 80 23 01 D1  s0...-..~..].#..
0980: 0A 01 84 09 01 CE 0A 02  00 10 5E 80 00 F4 09 03  ..........^.....
0990: 02 10 04 10 93 02 10 1D  59 80 23 93 24 80 24 5A  ........Y.#.$.$Z
09A0: 80 2D 80 24 80 25 02 00  10 24 80 00 F1 09 03 01  .-.$.%...$......
09B0: 10 5E 80 43 00 43 01 02  09 10 24 80 00 E7 09 5B  .^.C.C....$....[
09C0: 5B 80 F8 FF FF 7F F8 FF  FF 7F 70 61 73 30 1D 5C  [.........pas0.\
09D0: 80 23 53 F8 FF FF 7F F8  FF FF 7F 70 61 73 30 03  .#S........pas0.
09E0: 01 10 5E 80 01 EB 09 1D  5D 80 23 01 D1 0A 01 F1  ..^.....].#.....
09F0: 09 01 CE 0A 02 00 10 5F  80 00 61 0A 03 02 10 05  ......._..a.....
0A00: 10 93 02 10 1D 59 80 23  93 24 80 24 5A 80 2D 80  .....Y.#.$.$Z.-.
0A10: 24 80 25 02 00 10 24 80  00 5E 0A 03 01 10 5F 80  $.%...$..^...._.
0A20: 43 00 43 01 02 09 10 24  80 00 54 0A 5B 5B 80 F8  C.C....$..T.[[..
0A30: FF FF 7F F8 FF FF 7F 70  61 73 30 1D 5C 80 23 53  .......pas0.\.#S
0A40: F8 FF FF 7F F8 FF FF 7F  70 61 73 30 03 01 10 5F  ........pas0..._
0A50: 80 01 58 0A 1D 5D 80 23  01 D1 0A 01 5E 0A 01 CE  ..X..].#....^...
0A60: 0A 02 00 10 60 80 00 CE  0A 03 02 10 06 10 93 02  ....`...........
0A70: 10 1D 59 80 23 93 24 80  24 5A 80 2D 80 24 80 25  ..Y.#.$.$Z.-.$.%
0A80: 02 00 10 24 80 00 CB 0A  03 01 10 60 80 43 00 43  ...$.......`.C.C
0A90: 01 02 09 10 24 80 00 C1  0A 5B 5B 80 F8 FF FF 7F  ....$....[[.....
0AA0: F8 FF FF 7F 70 61 73 30  1D 5C 80 23 53 F8 FF FF  ....pas0.\.#S...
0AB0: 7F F8 FF FF 7F 70 61 73  30 03 01 10 60 80 01 C5  .....pas0...`...
0AC0: 0A 1D 5D 80 23 01 D1 0A  01 CB 0A 01 CE 0A 01 B7  ..].#...........
0AD0: 08 02 01 10 24 80 01 EA  0A 45 64 80 F0 FF FF 7F  ....$....Ed.....
0AE0: F0 FF FF 7F 71 73 74 63  24 80 21 00 45 4E 80 F0  ....qstc$.!.EN..
0AF0: FF FF 7F F0 FF FF 7F 66  64 69 30 24 80 55 4E 80  .......fdi0$.UN.
0B00: F0 FF FF 7F F0 FF FF 7F  66 64 69 30 1B 45 4E 80  ........fdi0.EN.
0B10: F0 FF FF 7F F0 FF FF 7F  66 64 6F 30 24 80 55 4E  ........fdo0$.UN
0B20: 80 F0 FF FF 7F F0 FF FF  7F 66 64 6F 30 1B 45 4E  .........fdo0.EN
0B30: 80 F0 FF FF 7F F0 FF FF  7F 66 64 69 31 24 80 55  .........fdi1$.U
0B40: 4E 80 F0 FF FF 7F F0 FF  FF 7F 66 64 69 31 1B 45  N.........fdi1.E
0B50: 4E 80 F0 FF FF 7F F0 FF  FF 7F 66 64 6F 31 24 80  N.........fdo1$.
0B60: 55 4E 80 F0 FF FF 7F F0  FF FF 7F 66 64 6F 31 1B  UN.........fdo1.
0B70: 45 64 80 F0 FF FF 7F F0  FF FF 7F 77 68 69 31 24  Ed.........whi1$
0B80: 80 55 64 80 F0 FF FF 7F  F0 FF FF 7F 77 68 69 31  .Ud.........whi1
0B90: 1B 45 64 80 F0 FF FF 7F  F0 FF FF 7F 77 68 6F 31  .Ed.........who1
0BA0: 24 80 55 64 80 F0 FF FF  7F F0 FF FF 7F 77 68 6F  $.Ud.........who
0BB0: 31 1B 45 64 80 F0 FF FF  7F F0 FF FF 7F 77 68 6F  1.Ed.........who
0BC0: 32 24 80 55 64 80 F0 FF  FF 7F F0 FF FF 7F 77 68  2$.Ud.........wh
0BD0: 6F 32 1B 45 64 80 F0 FF  FF 7F F0 FF FF 7F 77 68  o2.Ed.........wh
0BE0: 6F 33 24 80 55 64 80 F0  FF FF 7F F0 FF FF 7F 77  o3$.Ud.........w
0BF0: 68 6F 33 1B 62 2D 80 F0  FF FF 7F F0 FF FF 7F 6D  ho3.b-.........m
0C00: 61 69 6E 24 80 1C 38 80  45 4E 80 F0 FF FF 7F F0  ain$..8.EN......
0C10: FF FF 7F 66 64 6F 31 24  80 55 4E 80 F0 FF FF 7F  ...fdo1$.UN.....
0C20: F0 FF FF 7F 66 64 6F 31  1B 45 4E 80 F0 FF FF 7F  ....fdo1.EN.....
0C30: F0 FF FF 7F 66 64 69 31  24 80 62 5E 80 F0 FF FF  ....fdi1$.b^....
0C40: 7F F0 FF FF 7F 6D 61 69  6E 24 80 1C 26 80 55 4E  .....main$..&.UN
0C50: 80 F0 FF FF 7F F0 FF FF  7F 66 64 69 31 1B 45 4E  .........fdi1.EN
0C60: 80 F0 FF FF 7F F0 FF FF  7F 62 6C 6F 6E 24 80 45  .........blon$.E
0C70: 64 80 F0 FF FF 7F F0 FF  FF 7F 62 6C 6F 6E 24 80  d.........blon$.
0C80: 1B 45 64 80 F0 FF FF 7F  F0 FF FF 7F 77 68 69 30  .Ed.........whi0
0C90: 24 80 55 64 80 F0 FF FF  7F F0 FF FF 7F 77 68 69  $.Ud.........whi
0CA0: 30 1B 45 64 80 F0 FF FF  7F F0 FF FF 7F 77 68 6F  0.Ed.........who
0CB0: 30 24 80 55 64 80 F0 FF  FF 7F F0 FF FF 7F 77 68  0$.Ud.........wh
0CC0: 6F 30 1B 45 67 80 F0 FF  FF 7F F0 FF FF 7F 65 66  o0.Eg.........ef
0CD0: 6F 6E 24 80 55 67 80 F0  FF FF 7F F0 FF FF 7F 65  on$.Ug.........e
0CE0: 66 6F 6E 1B 45 4E 80 F0  FF FF 7F F0 FF FF 7F 66  fon.EN.........f
0CF0: 64 69 73 24 80 1B 45 4E  80 F0 FF FF 7F F0 FF FF  dis$..EN........
0D00: 7F 66 64 6F 73 24 80 55  4E 80 F0 FF FF 7F F0 FF  .fdos$.UN.......
0D10: FF 7F 66 64 6F 73 1B 45  4E 80 F0 FF FF 7F F0 FF  ..fdos.EN.......
0D20: FF 7F 66 64 69 66 24 80  1B 45 4E 80 F0 FF FF 7F  ..fdif$..EN.....
0D30: F0 FF FF 7F 66 64 6F 66  24 80 55 4E 80 F0 FF FF  ....fdof$.UN....
0D40: 7F F0 FF FF 7F 66 64 6F  66 1B 45 4E 80 F0 FF FF  .....fdof.EN....
0D50: 7F F0 FF FF 7F 66 64 69  70 24 80 1B 45 4E 80 F0  .....fdip$..EN..
0D60: FF FF 7F F0 FF FF 7F 66  64 6F 70 24 80 55 4E 80  .......fdop$.UN.
0D70: F0 FF FF 7F F0 FF FF 7F  66 64 6F 70 1B           ........fdop.   
```

#### Opcodes

```
  0: 0x089D [0x42] SET_CLI_EVENT_CANCEL_DATA()
  1: 0x089E [0x1A] CALL_SUBROUTINE(address=0x0102)
  2: 0x08A1 [0x1A] CALL_SUBROUTINE(address=0x01C0)
  3: 0x08A4 [0x1D] PRINT_EVENT_MESSAGE(message_id=11262*)
    → "Arrg, so you've made a decision?"
  4: 0x08A7 [0x23] WAIT_FOR_DIALOG_INTERACTION
  5: 0x08A8 [0x5B] LOAD_EXT_SCHEDULER: Load scheduler "tlk1" with entities [EventEntity, EventEntity], work=566*
  6: 0x08B7 [0x03] Work_Zone[1] = 99*
  7: 0x08BC [0x43] SEND_EVENT_UPDATE: Send pending tag to server (packet 0x005B)
  8: 0x08BE [0x43] SEND_EVENT_UPDATE: Check pending flag (skip if not pending)
  9: 0x08C0 [0x24] CREATE_DIALOG(message_id=11254*, default_option=0*, option_flags=0*)
    → "What do ya choose? [Let me think about it./$1./$2./$3./$4.]"
 10: 0x08C7 [0x25] WAIT_DIALOG_SELECT()
 11: 0x08C8 [0x02] IF !(Work_Zone[0] == 0*) GOTO 0x091A
 12: 0x08D0 [0x03] Work_Zone[1] = 0*
 13: 0x08D5 [0x43] SEND_EVENT_UPDATE: Send pending tag to server (packet 0x005B)
 14: 0x08D7 [0x43] SEND_EVENT_UPDATE: Check pending flag (skip if not pending)
 15: 0x08D9 [0x5B] LOAD_EXT_SCHEDULER: Load scheduler "ftk0" with entities [EventEntity, EventEntity], work=566*
 16: 0x08E8 [0x1D] PRINT_EVENT_MESSAGE(message_id=11260*)
    → "Blimey. Are ya tryin' t'tell me that the savior of the world can't make up [his/her] mind about a simple thing like this? Guess some things never change, eh?"
 17: 0x08EB [0x23] WAIT_FOR_DIALOG_INTERACTION
 18: 0x08EC [0x1D] PRINT_EVENT_MESSAGE(message_id=11261*)
    → "But who be I t'judge? Let me know when you've made yer decision. Jus' don't complain if all the best loot be taken!"
 19: 0x08EF [0x23] WAIT_FOR_DIALOG_INTERACTION
 20: 0x08F0 [0x53] WAIT_SCHEDULER_TASK: Wait for scheduler "ftk0" with entities [EventEntity, EventEntity]
 21: 0x08FD [0x5B] LOAD_EXT_SCHEDULER: Load scheduler "ftk1" with entities [EventEntity, EventEntity], work=566*
 22: 0x090C [0x1C] WAIT(60* ticks)
 23: 0x090F [0x03] Work_Zone[1] = 0*
 24: 0x0914 [0x01] GOTO 0x0AD1

SUBROUTINE_097E:
 25: 0x097E [0x01] GOTO 0x0AD1

SUBROUTINE_0984:
 26: 0x0984 [0x01] GOTO 0x0ACE
 27: 0x0987 [0x02] IF !(Work_Zone[0] == 2*) GOTO 0x09F4
 28: 0x098F [0x03] Work_Zone[2] = Work_Zone[4]
 29: 0x0994 [0x93] DISPLAY_ITEM_INFO(item_id=Work_Zone[2])
 30: 0x0997 [0x1D] PRINT_EVENT_MESSAGE(message_id=11255*)
    → "$0. That's what ya want?"
 31: 0x099A [0x23] WAIT_FOR_DIALOG_INTERACTION
 32: 0x099B [0x93] DISPLAY_ITEM_INFO(item_id=0*)
 33: 0x099E [0x24] CREATE_DIALOG(message_id=11256*, default_option=1*, option_flags=0*)
    → "Ya want $0? [Aye./Nay.]"
 34: 0x09A5 [0x25] WAIT_DIALOG_SELECT()
 35: 0x09A6 [0x02] IF !(Work_Zone[0] == 0*) GOTO 0x09F1
 36: 0x09AE [0x03] Work_Zone[1] = 2*
 37: 0x09B3 [0x43] SEND_EVENT_UPDATE: Send pending tag to server (packet 0x005B)
 38: 0x09B5 [0x43] SEND_EVENT_UPDATE: Check pending flag (skip if not pending)
 39: 0x09B7 [0x02] IF !(Work_Zone[9] == 0*) GOTO 0x09E7
 40: 0x09BF [0x5B] LOAD_EXT_SCHEDULER: Load scheduler "pas0" with entities [EventEntity, EventEntity], work=567*
 41: 0x09CE [0x1D] PRINT_EVENT_MESSAGE(message_id=11264*)
    → "Here. That be a treasure unlike any you'll ever see again. Don't go losin' it over the side of no stinkin' ferry!"
 42: 0x09D1 [0x23] WAIT_FOR_DIALOG_INTERACTION
 43: 0x09D2 [0x53] WAIT_SCHEDULER_TASK: Wait for scheduler "pas0" with entities [EventEntity, EventEntity]
 44: 0x09DF [0x03] Work_Zone[1] = 2*
 45: 0x09E4 [0x01] GOTO 0x09EB
 46: 0x09E7 [0x1D] PRINT_EVENT_MESSAGE(message_id=11263*)
    → "By me bleedin' eyepatch, I can't be handing over any booty when yer bag be full of flotsam and jetsam. You heroes need to learn a thing o' two about organization!"
 47: 0x09EA [0x23] WAIT_FOR_DIALOG_INTERACTION

SUBROUTINE_09EB:
 48: 0x09EB [0x01] GOTO 0x0AD1

SUBROUTINE_09F1:
 49: 0x09F1 [0x01] GOTO 0x0ACE
 50: 0x09F4 [0x02] IF !(Work_Zone[0] == 3*) GOTO 0x0A61
 51: 0x09FC [0x03] Work_Zone[2] = Work_Zone[5]
 52: 0x0A01 [0x93] DISPLAY_ITEM_INFO(item_id=Work_Zone[2])
 53: 0x0A04 [0x1D] PRINT_EVENT_MESSAGE(message_id=11255*)
    → "$0. That's what ya want?"
 54: 0x0A07 [0x23] WAIT_FOR_DIALOG_INTERACTION
 55: 0x0A08 [0x93] DISPLAY_ITEM_INFO(item_id=0*)
 56: 0x0A0B [0x24] CREATE_DIALOG(message_id=11256*, default_option=1*, option_flags=0*)
    → "Ya want $0? [Aye./Nay.]"
 57: 0x0A12 [0x25] WAIT_DIALOG_SELECT()
 58: 0x0A13 [0x02] IF !(Work_Zone[0] == 0*) GOTO 0x0A5E
 59: 0x0A1B [0x03] Work_Zone[1] = 3*
 60: 0x0A20 [0x43] SEND_EVENT_UPDATE: Send pending tag to server (packet 0x005B)
 61: 0x0A22 [0x43] SEND_EVENT_UPDATE: Check pending flag (skip if not pending)
 62: 0x0A24 [0x02] IF !(Work_Zone[9] == 0*) GOTO 0x0A54
 63: 0x0A2C [0x5B] LOAD_EXT_SCHEDULER: Load scheduler "pas0" with entities [EventEntity, EventEntity], work=567*
 64: 0x0A3B [0x1D] PRINT_EVENT_MESSAGE(message_id=11264*)
    → "Here. That be a treasure unlike any you'll ever see again. Don't go losin' it over the side of no stinkin' ferry!"
 65: 0x0A3E [0x23] WAIT_FOR_DIALOG_INTERACTION
 66: 0x0A3F [0x53] WAIT_SCHEDULER_TASK: Wait for scheduler "pas0" with entities [EventEntity, EventEntity]
 67: 0x0A4C [0x03] Work_Zone[1] = 3*
 68: 0x0A51 [0x01] GOTO 0x0A58
 69: 0x0A54 [0x1D] PRINT_EVENT_MESSAGE(message_id=11263*)
    → "By me bleedin' eyepatch, I can't be handing over any booty when yer bag be full of flotsam and jetsam. You heroes need to learn a thing o' two about organization!"
 70: 0x0A57 [0x23] WAIT_FOR_DIALOG_INTERACTION

SUBROUTINE_0A58:
 71: 0x0A58 [0x01] GOTO 0x0AD1

SUBROUTINE_0A5E:
 72: 0x0A5E [0x01] GOTO 0x0ACE
 73: 0x0A61 [0x02] IF !(Work_Zone[0] == 4*) GOTO 0x0ACE
 74: 0x0A69 [0x03] Work_Zone[2] = Work_Zone[6]
 75: 0x0A6E [0x93] DISPLAY_ITEM_INFO(item_id=Work_Zone[2])
 76: 0x0A71 [0x1D] PRINT_EVENT_MESSAGE(message_id=11255*)
    → "$0. That's what ya want?"
 77: 0x0A74 [0x23] WAIT_FOR_DIALOG_INTERACTION
 78: 0x0A75 [0x93] DISPLAY_ITEM_INFO(item_id=0*)
 79: 0x0A78 [0x24] CREATE_DIALOG(message_id=11256*, default_option=1*, option_flags=0*)
    → "Ya want $0? [Aye./Nay.]"
 80: 0x0A7F [0x25] WAIT_DIALOG_SELECT()
 81: 0x0A80 [0x02] IF !(Work_Zone[0] == 0*) GOTO 0x0ACB
 82: 0x0A88 [0x03] Work_Zone[1] = 4*
 83: 0x0A8D [0x43] SEND_EVENT_UPDATE: Send pending tag to server (packet 0x005B)
 84: 0x0A8F [0x43] SEND_EVENT_UPDATE: Check pending flag (skip if not pending)
 85: 0x0A91 [0x02] IF !(Work_Zone[9] == 0*) GOTO 0x0AC1
 86: 0x0A99 [0x5B] LOAD_EXT_SCHEDULER: Load scheduler "pas0" with entities [EventEntity, EventEntity], work=567*
 87: 0x0AA8 [0x1D] PRINT_EVENT_MESSAGE(message_id=11264*)
    → "Here. That be a treasure unlike any you'll ever see again. Don't go losin' it over the side of no stinkin' ferry!"
 88: 0x0AAB [0x23] WAIT_FOR_DIALOG_INTERACTION
 89: 0x0AAC [0x53] WAIT_SCHEDULER_TASK: Wait for scheduler "pas0" with entities [EventEntity, EventEntity]
 90: 0x0AB9 [0x03] Work_Zone[1] = 4*
 91: 0x0ABE [0x01] GOTO 0x0AC5
 92: 0x0AC1 [0x1D] PRINT_EVENT_MESSAGE(message_id=11263*)
    → "By me bleedin' eyepatch, I can't be handing over any booty when yer bag be full of flotsam and jetsam. You heroes need to learn a thing o' two about organization!"
 93: 0x0AC4 [0x23] WAIT_FOR_DIALOG_INTERACTION

SUBROUTINE_0AC5:
 94: 0x0AC5 [0x01] GOTO 0x0AD1

SUBROUTINE_0ACB:
 95: 0x0ACB [0x01] GOTO 0x0ACE

SUBROUTINE_0ACE:
 96: 0x0ACE [0x01] GOTO 0x08B7

SUBROUTINE_0AD1:
 97: 0x0AD1 [0x02] IF !(Work_Zone[1] == 0*) GOTO 0x0AEA
 98: 0x0AD9 [0x45] LOAD_SCHEDULED_TASK: Load scheduler "qstc" with entities [LocalPlayer, LocalPlayer], work=[201*, 0*]
 99: 0x0AEA [0x21] END_EVENT
100: 0x0AEB [0x00] END_REQSTACK()
```

#### Data or dead code:

```
# Dead code (unreachable instructions):
     0x0917 [0x01] GOTO 0x0ACE
# Dead code (unreachable instructions):
     0x0981 [0x01] GOTO 0x0984
# Dead code (unreachable instructions):
     0x09EE [0x01] GOTO 0x09F1
# Dead code (unreachable instructions):
     0x0A5B [0x01] GOTO 0x0A5E
# Dead code (unreachable instructions):
     0x0AC8 [0x01] GOTO 0x0ACB
# Dead code (unreachable instructions):
     0x0AEC [0x45] LOAD_SCHEDULED_TASK: Load scheduler "fdi0" with entities [LocalPlayer, LocalPlayer], work=[200*, 0*]
     0x0AFD [0x55] WAIT_LOAD_SCHEDULER: Wait for scheduler "fdi0" with entities [LocalPlayer, LocalPlayer], work=200*
     0x0B0C [0x1B] RETURN
     0x0B0D [0x45] LOAD_SCHEDULED_TASK: Load scheduler "fdo0" with entities [LocalPlayer, LocalPlayer], work=[200*, 0*]
     0x0B1E [0x55] WAIT_LOAD_SCHEDULER: Wait for scheduler "fdo0" with entities [LocalPlayer, LocalPlayer], work=200*
     0x0B2D [0x1B] RETURN
     0x0B2E [0x45] LOAD_SCHEDULED_TASK: Load scheduler "fdi1" with entities [LocalPlayer, LocalPlayer], work=[200*, 0*]
     0x0B3F [0x55] WAIT_LOAD_SCHEDULER: Wait for scheduler "fdi1" with entities [LocalPlayer, LocalPlayer], work=200*
     0x0B4E [0x1B] RETURN
     0x0B4F [0x45] LOAD_SCHEDULED_TASK: Load scheduler "fdo1" with entities [LocalPlayer, LocalPlayer], work=[200*, 0*]
     0x0B60 [0x55] WAIT_LOAD_SCHEDULER: Wait for scheduler "fdo1" with entities [LocalPlayer, LocalPlayer], work=200*
     0x0B6F [0x1B] RETURN
     0x0B70 [0x45] LOAD_SCHEDULED_TASK: Load scheduler "whi1" with entities [LocalPlayer, LocalPlayer], work=[201*, 0*]
     0x0B81 [0x55] WAIT_LOAD_SCHEDULER: Wait for scheduler "whi1" with entities [LocalPlayer, LocalPlayer], work=201*
     0x0B90 [0x1B] RETURN
     0x0B91 [0x45] LOAD_SCHEDULED_TASK: Load scheduler "who1" with entities [LocalPlayer, LocalPlayer], work=[201*, 0*]
     0x0BA2 [0x55] WAIT_LOAD_SCHEDULER: Wait for scheduler "who1" with entities [LocalPlayer, LocalPlayer], work=201*
     0x0BB1 [0x1B] RETURN
     0x0BB2 [0x45] LOAD_SCHEDULED_TASK: Load scheduler "who2" with entities [LocalPlayer, LocalPlayer], work=[201*, 0*]
     0x0BC3 [0x55] WAIT_LOAD_SCHEDULER: Wait for scheduler "who2" with entities [LocalPlayer, LocalPlayer], work=201*
     0x0BD2 [0x1B] RETURN
     0x0BD3 [0x45] LOAD_SCHEDULED_TASK: Load scheduler "who3" with entities [LocalPlayer, LocalPlayer], work=[201*, 0*]
     0x0BE4 [0x55] WAIT_LOAD_SCHEDULER: Wait for scheduler "who3" with entities [LocalPlayer, LocalPlayer], work=201*
     0x0BF3 [0x1B] RETURN
     0x0BF4 [0x62] LOAD_EVENT_SCHEDULER: Load scheduler "main" with entities [LocalPlayer, LocalPlayer], work=[1*, 0*]
     0x0C05 [0x1C] WAIT(45* ticks)
     0x0C08 [0x45] LOAD_SCHEDULED_TASK: Load scheduler "fdo1" with entities [LocalPlayer, LocalPlayer], work=[200*, 0*]
     0x0C19 [0x55] WAIT_LOAD_SCHEDULER: Wait for scheduler "fdo1" with entities [LocalPlayer, LocalPlayer], work=200*
     0x0C28 [0x1B] RETURN
     0x0C29 [0x45] LOAD_SCHEDULED_TASK: Load scheduler "fdi1" with entities [LocalPlayer, LocalPlayer], work=[200*, 0*]
     0x0C3A [0x62] LOAD_EVENT_SCHEDULER: Load scheduler "main" with entities [LocalPlayer, LocalPlayer], work=[2*, 0*]
     0x0C4B [0x1C] WAIT(30* ticks)
     0x0C4E [0x55] WAIT_LOAD_SCHEDULER: Wait for scheduler "fdi1" with entities [LocalPlayer, LocalPlayer], work=200*
     0x0C5D [0x1B] RETURN
     0x0C5E [0x45] LOAD_SCHEDULED_TASK: Load scheduler "blon" with entities [LocalPlayer, LocalPlayer], work=[200*, 0*]
     0x0C6F [0x45] LOAD_SCHEDULED_TASK: Load scheduler "blon" with entities [LocalPlayer, LocalPlayer], work=[201*, 0*]
     0x0C80 [0x1B] RETURN
     0x0C81 [0x45] LOAD_SCHEDULED_TASK: Load scheduler "whi0" with entities [LocalPlayer, LocalPlayer], work=[201*, 0*]
     0x0C92 [0x55] WAIT_LOAD_SCHEDULER: Wait for scheduler "whi0" with entities [LocalPlayer, LocalPlayer], work=201*
     0x0CA1 [0x1B] RETURN
     0x0CA2 [0x45] LOAD_SCHEDULED_TASK: Load scheduler "who0" with entities [LocalPlayer, LocalPlayer], work=[201*, 0*]
     0x0CB3 [0x55] WAIT_LOAD_SCHEDULER: Wait for scheduler "who0" with entities [LocalPlayer, LocalPlayer], work=201*
     0x0CC2 [0x1B] RETURN
     0x0CC3 [0x45] LOAD_SCHEDULED_TASK: Load scheduler "efon" with entities [LocalPlayer, LocalPlayer], work=[215*, 0*]
     0x0CD4 [0x55] WAIT_LOAD_SCHEDULER: Wait for scheduler "efon" with entities [LocalPlayer, LocalPlayer], work=215*
     0x0CE3 [0x1B] RETURN
     0x0CE4 [0x45] LOAD_SCHEDULED_TASK: Load scheduler "fdis" with entities [LocalPlayer, LocalPlayer], work=[200*, 0*]
     0x0CF5 [0x1B] RETURN
     0x0CF6 [0x45] LOAD_SCHEDULED_TASK: Load scheduler "fdos" with entities [LocalPlayer, LocalPlayer], work=[200*, 0*]
     0x0D07 [0x55] WAIT_LOAD_SCHEDULER: Wait for scheduler "fdos" with entities [LocalPlayer, LocalPlayer], work=200*
     0x0D16 [0x1B] RETURN
     0x0D17 [0x45] LOAD_SCHEDULED_TASK: Load scheduler "fdif" with entities [LocalPlayer, LocalPlayer], work=[200*, 0*]
     0x0D28 [0x1B] RETURN
     0x0D29 [0x45] LOAD_SCHEDULED_TASK: Load scheduler "fdof" with entities [LocalPlayer, LocalPlayer], work=[200*, 0*]
     0x0D3A [0x55] WAIT_LOAD_SCHEDULER: Wait for scheduler "fdof" with entities [LocalPlayer, LocalPlayer], work=200*
     0x0D49 [0x1B] RETURN
     0x0D4A [0x45] LOAD_SCHEDULED_TASK: Load scheduler "fdip" with entities [LocalPlayer, LocalPlayer], work=[200*, 0*]
     0x0D5B [0x1B] RETURN
     0x0D5C [0x45] LOAD_SCHEDULED_TASK: Load scheduler "fdop" with entities [LocalPlayer, LocalPlayer], work=[200*, 0*]
     0x0D6D [0x55] WAIT_LOAD_SCHEDULER: Wait for scheduler "fdop" with entities [LocalPlayer, LocalPlayer], work=200*
     0x0D7C [0x1B] RETURN
```

### Event 256

#### Metadata

| Field        | Value   |
|--------------|---------|
| Entrypoint   | 0x0D7D  |
| Data Size    | 1 bytes |
| Instructions | 1       |

```
      00 01 02 03 04 05 06 07  08 09 0A 0B 0C 0D 0E 0F
      -- -- -- -- -- -- -- --  -- -- -- -- -- -- -- --
0D70:                                         00                     .  
```

#### Opcodes

```
  0: 0x0D7D [0x00] END_REQSTACK()
```

### Event 257

#### Metadata

| Field        | Value    |
|--------------|----------|
| Entrypoint   | 0x0D7E   |
| Data Size    | 39 bytes |
| Instructions | 11       |

```
      00 01 02 03 04 05 06 07  08 09 0A 0B 0C 0D 0E 0F
      -- -- -- -- -- -- -- --  -- -- -- -- -- -- -- --
0D70:                                            42 4A                BJ
0D80: F0 FF FF 7F F8 FF FF 7F  1E F0 FF FF 7F 6F 76 F8  .............ov.
0D90: FF FF 7F 2B 03 C0 0F 01  68 80 23 2B 03 C0 0F 01  ...+....h.#+....
0DA0: 69 80 23 21 00                                    i.#!.           
```

#### Opcodes

```
  0: 0x0D7E [0x42] SET_CLI_EVENT_CANCEL_DATA()
  1: 0x0D7F [0x4A] LocalPlayer looks at EventEntity
  2: 0x0D88 [0x1E] EventEntity looks at LocalPlayer and starts talking
  3: 0x0D8D [0x6F] WAIT_FRAME_DELAY: Yield until WaitTime reaches zero
  4: 0x0D8E [0x76] CHECK_ENTITY_RENDER_FLAGS: Wait until EventEntity Render.Flags0 and Render.Flags3 conditions are met
  5: 0x0D93 [0x2B] Gilgamesh (ID: 17809411/0x010FC003) [11367*]:
    → "Still, we seem t' both be steerin' ourrr ships t'wards the same "X" on the proverbial treasure map fer the time bein'... Yet seein' how our plans be wide as the horiz'n, we best not turn a patched eye to these problems."
  6: 0x0D9A [0x23] WAIT_FOR_DIALOG_INTERACTION
  7: 0x0D9B [0x2B] Gilgamesh (ID: 17809411/0x010FC003) [11368*]:
    → "Keep this infermation below deck, if ye catch me drift. The situation be bad enough without the entire continent up in arms. In any case, I'll make sure t' apprrrise ye of any new developments if I get wind of 'em. Ye can count on that--cross me own plank and hope t' fly, stick a pegleg on me thigh."
  8: 0x0DA2 [0x23] WAIT_FOR_DIALOG_INTERACTION
  9: 0x0DA3 [0x21] END_EVENT
 10: 0x0DA4 [0x00] END_REQSTACK()
```

### Event 262

#### Metadata

| Field        | Value   |
|--------------|---------|
| Entrypoint   | 0x0DA5  |
| Data Size    | 1 bytes |
| Instructions | 1       |

```
      00 01 02 03 04 05 06 07  08 09 0A 0B 0C 0D 0E 0F
      -- -- -- -- -- -- -- --  -- -- -- -- -- -- -- --
0DA0:                00                                      .          
```

#### Opcodes

```
  0: 0x0DA5 [0x00] END_REQSTACK()
```

### Event 263

#### Metadata

| Field        | Value    |
|--------------|----------|
| Entrypoint   | 0x0DA6   |
| Data Size    | 39 bytes |
| Instructions | 11       |

```
      00 01 02 03 04 05 06 07  08 09 0A 0B 0C 0D 0E 0F
      -- -- -- -- -- -- -- --  -- -- -- -- -- -- -- --
0DA0:                   42 4A  F0 FF FF 7F F8 FF FF 7F        BJ........
0DB0: 1E F0 FF FF 7F 6F 76 F8  FF FF 7F 2B 03 C0 0F 01  .....ov....+....
0DC0: 6A 80 23 2B 03 C0 0F 01  6B 80 23 21 00           j.#+....k.#!.   
```

#### Opcodes

```
  0: 0x0DA6 [0x42] SET_CLI_EVENT_CANCEL_DATA()
  1: 0x0DA7 [0x4A] LocalPlayer looks at EventEntity
  2: 0x0DB0 [0x1E] EventEntity looks at LocalPlayer and starts talking
  3: 0x0DB5 [0x6F] WAIT_FRAME_DELAY: Yield until WaitTime reaches zero
  4: 0x0DB6 [0x76] CHECK_ENTITY_RENDER_FLAGS: Wait until EventEntity Render.Flags0 and Render.Flags3 conditions are met
  5: 0x0DBB [0x2B] Gilgamesh (ID: 17809411/0x010FC003) [11376*]:
    → "The westerly winds bring wit' 'em tales of destruction from the Near East as well."
  6: 0x0DC2 [0x23] WAIT_FOR_DIALOG_INTERACTION
  7: 0x0DC3 [0x2B] Gilgamesh (ID: 17809411/0x010FC003) [11380*]:
    → "Ye be the ballast that keeps Vana'diel upright, <Player>, and the realm needs ye now mor'n ever. This may not be worth a grain of salt, comin' from an old sailor tucked safely away in his captain's quarters, but don't go overboard wit' the heroics."
  8: 0x0DCA [0x23] WAIT_FOR_DIALOG_INTERACTION
  9: 0x0DCB [0x21] END_EVENT
 10: 0x0DCC [0x00] END_REQSTACK()
```

### Event 276

#### Metadata

| Field        | Value   |
|--------------|---------|
| Entrypoint   | 0x0DCD  |
| Data Size    | 1 bytes |
| Instructions | 1       |

```
      00 01 02 03 04 05 06 07  08 09 0A 0B 0C 0D 0E 0F
      -- -- -- -- -- -- -- --  -- -- -- -- -- -- -- --
0DC0:                                         00                     .  
```

#### Opcodes

```
  0: 0x0DCD [0x00] END_REQSTACK()
```

### Event 65535.16

#### Metadata

| Field        | Value    |
|--------------|----------|
| Entrypoint   | 0x0DCE   |
| Data Size    | 22 bytes |
| Instructions | 6        |

```
      00 01 02 03 04 05 06 07  08 09 0A 0B 0C 0D 0E 0F
      -- -- -- -- -- -- -- --  -- -- -- -- -- -- -- --
0DC0:                                            32 04                2.
0DD0: 80 1F 00 6C 80 6D 80 30  80 1F 01 1E F0 FF FF 7F  ...l.m.0........
0DE0: 1C 26 80 00                                       .&..            
```

#### Opcodes

```
  0: 0x0DCE [0x32] ExtData[1]->MainSpeed = 13* * 0.1
  1: 0x0DD1 [0x1F] MOVE_ENTITY: EventEntity moves to X=111.933*, Z=-10.110*, Y=-7.086*
  2: 0x0DD9 [0x1F] MOVE_ENTITY: Update entity position (mode=1)
  3: 0x0DDB [0x1E] EventEntity looks at LocalPlayer and starts talking
  4: 0x0DE0 [0x1C] WAIT(30* ticks)
  5: 0x0DE3 [0x00] END_REQSTACK()
```

### Event 277

#### Metadata

| Field        | Value   |
|--------------|---------|
| Entrypoint   | 0x0DE4  |
| Data Size    | 1 bytes |
| Instructions | 1       |

```
      00 01 02 03 04 05 06 07  08 09 0A 0B 0C 0D 0E 0F
      -- -- -- -- -- -- -- --  -- -- -- -- -- -- -- --
0DE0:             00                                        .           
```

#### Opcodes

```
  0: 0x0DE4 [0x00] END_REQSTACK()
```

### Event 279

#### Metadata

| Field        | Value   |
|--------------|---------|
| Entrypoint   | 0x0DE5  |
| Data Size    | 1 bytes |
| Instructions | 1       |

```
      00 01 02 03 04 05 06 07  08 09 0A 0B 0C 0D 0E 0F
      -- -- -- -- -- -- -- --  -- -- -- -- -- -- -- --
0DE0:                00                                      .          
```

#### Opcodes

```
  0: 0x0DE5 [0x00] END_REQSTACK()
```

### Event 278

#### Metadata

| Field        | Value   |
|--------------|---------|
| Entrypoint   | 0x0DE6  |
| Data Size    | 1 bytes |
| Instructions | 1       |

```
      00 01 02 03 04 05 06 07  08 09 0A 0B 0C 0D 0E 0F
      -- -- -- -- -- -- -- --  -- -- -- -- -- -- -- --
0DE0:                   00                                    .         
```

#### Opcodes

```
  0: 0x0DE6 [0x00] END_REQSTACK()
```

### Event 284

#### Metadata

| Field        | Value   |
|--------------|---------|
| Entrypoint   | 0x0DE7  |
| Data Size    | 1 bytes |
| Instructions | 1       |

```
      00 01 02 03 04 05 06 07  08 09 0A 0B 0C 0D 0E 0F
      -- -- -- -- -- -- -- --  -- -- -- -- -- -- -- --
0DE0:                      00                                  .        
```

#### Opcodes

```
  0: 0x0DE7 [0x00] END_REQSTACK()
```

### Event 285

#### Metadata

| Field        | Value   |
|--------------|---------|
| Entrypoint   | 0x0DE8  |
| Data Size    | 1 bytes |
| Instructions | 1       |

```
      00 01 02 03 04 05 06 07  08 09 0A 0B 0C 0D 0E 0F
      -- -- -- -- -- -- -- --  -- -- -- -- -- -- -- --
0DE0:                          00                               .       
```

#### Opcodes

```
  0: 0x0DE8 [0x00] END_REQSTACK()
```

### Event 286

#### Metadata

| Field        | Value   |
|--------------|---------|
| Entrypoint   | 0x0DE9  |
| Data Size    | 1 bytes |
| Instructions | 1       |

```
      00 01 02 03 04 05 06 07  08 09 0A 0B 0C 0D 0E 0F
      -- -- -- -- -- -- -- --  -- -- -- -- -- -- -- --
0DE0:                             00                             .      
```

#### Opcodes

```
  0: 0x0DE9 [0x00] END_REQSTACK()
```

### Event 287

#### Metadata

| Field        | Value   |
|--------------|---------|
| Entrypoint   | 0x0DEA  |
| Data Size    | 1 bytes |
| Instructions | 1       |

```
      00 01 02 03 04 05 06 07  08 09 0A 0B 0C 0D 0E 0F
      -- -- -- -- -- -- -- --  -- -- -- -- -- -- -- --
0DE0:                                00                           .     
```

#### Opcodes

```
