# 17809512 - Vishwas

## Common Data

| Field            | Value          |
|------------------|----------------|
| Zone             | Norg (ID: 252) |
| Block Size       | 132 bytes      |
| Total Events     | 6              |
| References Count | 5              |

## List of Events

| Event ID              | Entrypoint   |   Size |   Instructions |
|-----------------------|--------------|--------|----------------|
| [65535](#event-65535) | 0x0000       |      1 |              1 |
| [209](#event-209)     | 0x0001       |      1 |              1 |
| [210](#event-210)     | 0x0002       |      1 |              1 |
| [218](#event-218)     | 0x0003       |     25 |              9 |
| [219](#event-219)     | 0x001C       |     17 |              7 |
| [220](#event-220)     | 0x002D       |     25 |              9 |

## DAT References (imed_data)

|   Index | Hex Value   |   Dec Value |
|---------|-------------|-------------|
|       0 | 0x2B5D      |       11101 |
|       1 | 0x2B5E      |       11102 |
|       2 | 0x2B71      |       11121 |
|       3 | 0x2B9C      |       11164 |
|       4 | 0x2B9D      |       11165 |

## Events

### Event 65535

#### Metadata

| Field        | Value   |
|--------------|---------|
| Entrypoint   | 0x0000  |
| Data Size    | 1 bytes |
| Instructions | 1       |

```
      00 01 02 03 04 05 06 07  08 09 0A 0B 0C 0D 0E 0F
      -- -- -- -- -- -- -- --  -- -- -- -- -- -- -- --
0000: 00                                                .               
```

#### Opcodes

```
  0: 0x0000 [0x00] END_REQSTACK()
```

### Event 209

#### Metadata

| Field        | Value   |
|--------------|---------|
| Entrypoint   | 0x0001  |
| Data Size    | 1 bytes |
| Instructions | 1       |

```
      00 01 02 03 04 05 06 07  08 09 0A 0B 0C 0D 0E 0F
      -- -- -- -- -- -- -- --  -- -- -- -- -- -- -- --
0000:    00                                              .              
```

#### Opcodes

```
  0: 0x0001 [0x00] END_REQSTACK()
```

### Event 210

#### Metadata

| Field        | Value   |
|--------------|---------|
| Entrypoint   | 0x0002  |
| Data Size    | 1 bytes |
| Instructions | 1       |

```
      00 01 02 03 04 05 06 07  08 09 0A 0B 0C 0D 0E 0F
      -- -- -- -- -- -- -- --  -- -- -- -- -- -- -- --
0000:       00                                            .             
```

#### Opcodes

```
  0: 0x0002 [0x00] END_REQSTACK()
```

### Event 218

#### Metadata

| Field        | Value    |
|--------------|----------|
| Entrypoint   | 0x0003   |
| Data Size    | 25 bytes |
| Instructions | 9        |

```
      00 01 02 03 04 05 06 07  08 09 0A 0B 0C 0D 0E 0F
      -- -- -- -- -- -- -- --  -- -- -- -- -- -- -- --
0000:          1E F0 FF FF 7F  6F 70 2B 68 C0 0F 01 00     .....op+h....
0010: 80 23 2B 68 C0 0F 01 01  80 23 21 00              .#+h.....#!.    
```

#### Opcodes

```
  0: 0x0003 [0x1E] EventEntity looks at LocalPlayer and starts talking
  1: 0x0008 [0x6F] WAIT_FRAME_DELAY: Yield until WaitTime reaches zero
  2: 0x0009 [0x70] WAIT_ENTITY_RENDER_FLAG: Wait while EventEntity->Render.Flags3 bit 2 is set (cancel turn if not)
  3: 0x000A [0x2B] Vishwas (ID: 17809512/0x010FC068) [11101*]:
    → "Hey, look, it's a stinkin' adventurer!"
  4: 0x0011 [0x23] WAIT_FOR_DIALOG_INTERACTION
  5: 0x0012 [0x2B] Vishwas (ID: 17809512/0x010FC068) [11102*]:
    → "We're busy toastin' the end of a hard day's work, so why don't ya buzz off someplace?"
  6: 0x0019 [0x23] WAIT_FOR_DIALOG_INTERACTION
  7: 0x001A [0x21] END_EVENT
  8: 0x001B [0x00] END_REQSTACK()
```

### Event 219

#### Metadata

| Field        | Value    |
|--------------|----------|
| Entrypoint   | 0x001C   |
| Data Size    | 17 bytes |
| Instructions | 7        |

```
      00 01 02 03 04 05 06 07  08 09 0A 0B 0C 0D 0E 0F
      -- -- -- -- -- -- -- --  -- -- -- -- -- -- -- --
0010:                                      1E F0 FF FF              ....
0020: 7F 6F 70 2B 68 C0 0F 01  02 80 23 21 00           .op+h.....#!.   
```

#### Opcodes

```
  0: 0x001C [0x1E] EventEntity looks at LocalPlayer and starts talking
  1: 0x0021 [0x6F] WAIT_FRAME_DELAY: Yield until WaitTime reaches zero
  2: 0x0022 [0x70] WAIT_ENTITY_RENDER_FLAG: Wait while EventEntity->Render.Flags3 bit 2 is set (cancel turn if not)
  3: 0x0023 [0x2B] Vishwas (ID: 17809512/0x010FC068) [11121*]:
    → "Sohyon's drunk pretty much all there is to drink. Good luck findin' somethin' to satisfy 'im."
  4: 0x002A [0x23] WAIT_FOR_DIALOG_INTERACTION
  5: 0x002B [0x21] END_EVENT
  6: 0x002C [0x00] END_REQSTACK()
```

### Event 220

#### Metadata

| Field        | Value    |
|--------------|----------|
| Entrypoint   | 0x002D   |
| Data Size    | 25 bytes |
| Instructions | 9        |

```
      00 01 02 03 04 05 06 07  08 09 0A 0B 0C 0D 0E 0F
      -- -- -- -- -- -- -- --  -- -- -- -- -- -- -- --
0020:                                         1E F0 FF               ...
0030: FF 7F 6F 70 2B 68 C0 0F  01 03 80 23 2B 68 C0 0F  ..op+h.....#+h..
0040: 01 04 80 23 21 00                                 ...#!.          
```

#### Opcodes

```
  0: 0x002D [0x1E] EventEntity looks at LocalPlayer and starts talking
  1: 0x0032 [0x6F] WAIT_FRAME_DELAY: Yield until WaitTime reaches zero
  2: 0x0033 [0x70] WAIT_ENTITY_RENDER_FLAG: Wait while EventEntity->Render.Flags3 bit 2 is set (cancel turn if not)
  3: 0x0034 [0x2B] Vishwas (ID: 17809512/0x010FC068) [11164*]:
    → "Even Sohyon can't win against the likes o' Washu. They didn't put her in charge o' Norg's galley fer nothing."
  4: 0x003B [0x23] WAIT_FOR_DIALOG_INTERACTION
  5: 0x003C [0x2B] Vishwas (ID: 17809512/0x010FC068) [11165*]:
    → "Getting on Washu's bad side is more trouble than it's worth. You'd do well to remember that, adventurer."
  6: 0x0043 [0x23] WAIT_FOR_DIALOG_INTERACTION
  7: 0x0044 [0x21] END_EVENT
  8: 0x0045 [0x00] END_REQSTACK()
```
