# 17809466 - Ryoma

## Common Data

| Field            | Value          |
|------------------|----------------|
| Zone             | Norg (ID: 252) |
| Block Size       | 3720 bytes     |
| Total Events     | 16             |
| References Count | 80             |

## List of Events

| Event ID              | Entrypoint   |   Size |   Instructions |
|-----------------------|--------------|--------|----------------|
| [65535](#event-65535) | 0x0000       |      1 |              1 |
| [175](#event-175)     | 0x0001       |      1 |              1 |
| [94](#event-94)       | 0x0002       |      6 |              4 |
| [95](#event-95)       | 0x0008       |    191 |             27 |
| [133](#event-133)     | 0x00C7       |    217 |             29 |
| [134](#event-134)     | 0x01A0       |    216 |             26 |
| [135](#event-135)     | 0x0278       |    203 |             27 |
| [136](#event-136)     | 0x0343       |    254 |             32 |
| [137](#event-137)     | 0x0441       |    199 |             25 |
| [138](#event-138)     | 0x0508       |     30 |              8 |
| [184](#event-184)     | 0x0526       |    316 |             49 |
| [185](#event-185)     | 0x0662       |    408 |             72 |
| [186](#event-186)     | 0x07FA       |     37 |              7 |
| [187](#event-187)     | 0x081F       |     73 |             13 |
| [188](#event-188)     | 0x0868       |     42 |              8 |
| [189](#event-189)     | 0x0892       |   1126 |            136 |

## DAT References (imed_data)

|   Index | Hex Value   |   Dec Value |
|---------|-------------|-------------|
|       0 | 0x288F      |       10383 |
|       1 | 0x0101      |         257 |
|       2 | 0x00C8      |         200 |
|       3 | 0x0000      |           0 |
|       4 | 0x00DC      |         220 |
|       5 | 0x0003      |           3 |
|       6 | 0x2890      |       10384 |
|       7 | 0x2891      |       10385 |
|       8 | 0x2892      |       10386 |
|       9 | 0x2893      |       10387 |
|      10 | 0x2978      |       10616 |
|      11 | 0x2979      |       10617 |
|      12 | 0x297A      |       10618 |
|      13 | 0x297B      |       10619 |
|      14 | 0x297C      |       10620 |
|      15 | 0x01CC      |         460 |
|      16 | 0x297D      |       10621 |
|      17 | 0x297E      |       10622 |
|      18 | 0x297F      |       10623 |
|      19 | 0x00C9      |         201 |
|      20 | 0x2980      |       10624 |
|      21 | 0x2981      |       10625 |
|      22 | 0x2982      |       10626 |
|      23 | 0x2983      |       10627 |
|      24 | 0x01D6      |         470 |
|      25 | 0x2984      |       10628 |
|      26 | 0x2985      |       10629 |
|      27 | 0x2986      |       10630 |
|      28 | 0x2987      |       10631 |
|      29 | 0x2988      |       10632 |
|      30 | 0x2989      |       10633 |
|      31 | 0x298A      |       10634 |
|      32 | 0x298B      |       10635 |
|      33 | 0x0001      |           1 |
|      34 | 0x2A49      |       10825 |
|      35 | 0x2A4A      |       10826 |
|      36 | 0x2A4B      |       10827 |
|      37 | 0x2A62      |       10850 |
|      38 | 0x2A4C      |       10828 |
|      39 | 0x456D      |       17773 |
|      40 | 0x2A4D      |       10829 |
|      41 | 0x2A4E      |       10830 |
|      42 | 0x00D7      |         215 |
|      43 | 0x007F      |         127 |
|      44 | 0x2A4F      |       10831 |
|      45 | 0x2A50      |       10832 |
|      46 | 0x2A51      |       10833 |
|      47 | 0x0157      |         343 |
|      48 | 0x2A52      |       10834 |
|      49 | 0x2A53      |       10835 |
|      50 | 0x2A63      |       10851 |
|      51 | 0x2A54      |       10836 |
|      52 | 0x2A55      |       10837 |
|      53 | 0x2A56      |       10838 |
|      54 | 0x001E      |          30 |
|      55 | 0x2A57      |       10839 |
|      56 | 0x0002      |           2 |
|      57 | 0x2A58      |       10840 |
|      58 | 0x2A64      |       10852 |
|      59 | 0x2A5B      |       10843 |
|      60 | 0x2A59      |       10841 |
|      61 | 0x2A5A      |       10842 |
|      62 | 0x2A5C      |       10844 |
|      63 | 0x0158      |         344 |
|      64 | 0x2A5D      |       10845 |
|      65 | 0x2A5E      |       10846 |
|      66 | 0x2A5F      |       10847 |
|      67 | 0x0004      |           4 |
|      68 | 0x2A60      |       10848 |
|      69 | 0x0013      |          19 |
|      70 | 0x002D      |          45 |
|      71 | 0x000A      |          10 |
|      72 | 0x0014      |          20 |
|      73 | 0x0028      |          40 |
|      74 | 0x0032      |          50 |
|      75 | 0x003C      |          60 |
|      76 | 0x0005      |           5 |
|      77 | 0x0050      |          80 |
|      78 | 0x00EE      |         238 |
|      79 | 0x0236      |         566 |

## String References

- **10383**: Get outta my face...
- **10384**: What? Ensetsu asked you to bring me this $3?
- **10385**: Hasn't changed a bit, has he? Always was a weak little worm. If I saw his face, I would smack him so hard...
- **10386**: Well, at least he's finally learned the value of this blade. Yomi can now rest in peace...
- **10387**: Oh, and let me tell you. I'm not doing this for Ensetsu. I only care about Yomi's daughters...
- **10616**: Get outta my... Hey wait, you're the [guy/lady] that helped out Ensetsu a while back. Tell me, how are Ayaya and little Kaede doing these days?
- **10617**: Ah, but enough of this small talk. I heard from my colleagues that these past few months you have been practicing the way of the ninja. If this is true, I'd like to ask you a favor.
- **10618**: A few weeks back, a scroll dating back more than twenty years was found. I need your help in deciphering it.
- **10619**: What is written on the scroll? Ninjas aren't supposed to ask questions, just follow their orders. But to tell you the truth, even I don't have any clue what this scroll could be about.
- **10620**: You should probably start off by heading to Bastok and seeing if Kagetora in the Tenshodo has any leads.
- **10621**: What? You found this $3 by following Ensetsu's lead?
- **10622**: That weasel is still hiding something. We're going to have to pay our little friend a visit...
- **10623**: But you don't have to worry about that. Thanks again. Here is a little something for your trouble. Oh, and stay in touch. I may have some more work for you soon.
- **10624**: You remember that $3 that you brought us? Well, it turned out to be a fake, made fairly recently.
- **10625**: But it still looks a helluva lot like the work of the greatest pirate inventor that ever lived--Mitsunari the Poisonclaw.
- **10626**: But he left Norg over twenty years ago, and is assumed dead and gone. There have been stories of a pupil of his, but...
- **10627**: Argh! But what do I know!? The only person that has anything close to a lead is that weasel, Ensetsu. Go to his house in Bastok and make him tell us all he knows.
- **10628**: You're just the person I was looking for. We've got our hands on some new info regarding Mitsunari's treasure.
- **10629**: It looks like a pack of those slimy Sahagins stole the Poisonclaw's $3 when our men were transporting it.
- **10630**: For the past few days we've been combing the Sea Serpent Grotto, but it's beginning to look like the beasts aren't hiding it anywhere near Norg.
- **10631**: But the fish-faced fiends are only beastmen, so you wouldn't think they could take it off Elshimo Island. It's gotta be somewhere close.
- **10632**: I'd start with the jungle if I were you. I've got a hunch that the $3 is somewhere in there.
- **10633**: Well I'll be... You found the $3!
- **10634**: Now all we have to do is open it! Hmm...but knowing that Mitsunari, there's bound to be some terrible trap on this. We'll have to check it before we open it.
- **10635**: Take this to that Leodarion fellow in Rabao. If anyone could open one of the Poisonclaw's traps, it would be him.
- **10825**: Well, look at you. I'm glad to see you realize that being a ninja isn't all about casting spells and throwing stars. But there's still one technique that's left for only the best of the best.
- **10826**: You've learned to wield your katana by risking your life and limb out there on the battlefield.
- **10827**: Learning this final technique will be no different. You'll have to get out there in the jungle and bust your butt like you never have before. Do you think you've got what it takes?
- **10828**: Hah! You may be shaking your head now, but I know your type. You won't be satisfied until you reach the top. You'll be back...and I'll be waiting.
- **10829**: I knew that you couldn't resist the challenge, but saying you're going to do something is a helluva lot easier than actually going out and doing it. If you don't think you're going to succeed, then you shouldn't even bother trying in the first place!
- **10830**: Here, take this $0.
- **10831**: Use that katana to deal as much damage as possible. When you've acquired enough skill, the $0 will recognize your power and its power will fade.
- **10832**: When that happens, bring her back here to me.
- **10833**: But don't think that's the end of your trial. Something much more exciting will be waiting for you when you get back, if you know what I mean. Heh heh heh.
- **10834**: When you've acquired enough skill, the $0 will recognize your might and then its power will fade.
- **10835**: What the hell do you want? You're not done already, are you?
- **10836**: Well, if that's all, then get the hell out of this cave and back out there on the battlefield!
- **10837**: You lost the $0!?
- **10838**: Idiot! You had the perfect chance to learn a deadly new technique, and you've thrown it away! I've seen crabs with more brains than you. Get out of my face!
- **10839**: Ha ha ha. I had you going there, didn't I? While I won't commend you on your stupidity, I will give you one more chance. But you screw up again and I'll...
- **10840**: Quit? Did you whack your head on the grotto ceiling when you came in? You're not really thinking of giving up now, are you?
- **10841**: Unbelievable. I thought that you had more in you than that... Well, you can hand me back the $3 I gave you.
- **10842**: As for that $0, it's nothing but a piece of junk now. Sell it, throw it away, I could give a damn what you do with it.
- **10843**: If that was supposed to be funny, then don't go quitting your day job. This isn't a game, <Player>. Now get back to your training!
- **10844**: Don't tell me you think that you've trained enough. Get your feet out of your ears and take a closer listen to the blade. It'll tell you when it's time to come back.
- **10845**: Well, it's about time. I never had any doubt in you, <Player>.
- **10846**: Now take this $3 and head for the Labyrinth of Onzozo. It won't be a cakewalk, but I bet you already knew that.
- **10847**: Don't make me repeat myself! You know what you have to do down there in the Labyrinth of Onzozo. Now get off your butt and do it!
- **10848**: Well, what do you know! If you could whip that monster, you should have no problem using any of the deadly katana techniques. I'd take off my hat to you...if I wore one. Ha ha ha.
- **10850**: Accept the challenge? [Of course!/Not just yet.]
- **10851**: Why are you here? [No particular reason./I've lost the $0./I want to quit this quest.]
- **10852**: Do you really want to quit? [Yes./No.]

## Events

### Event 65535

#### Metadata

| Field        | Value   |
|--------------|---------|
| Entrypoint   | 0x0000  |
| Data Size    | 1 bytes |
| Instructions | 1       |

```
      00 01 02 03 04 05 06 07  08 09 0A 0B 0C 0D 0E 0F
      -- -- -- -- -- -- -- --  -- -- -- -- -- -- -- --
0000: 00                                                .               
```

#### Opcodes

```
  0: 0x0000 [0x00] END_REQSTACK()
```

### Event 175

#### Metadata

| Field        | Value   |
|--------------|---------|
| Entrypoint   | 0x0001  |
| Data Size    | 1 bytes |
| Instructions | 1       |

```
      00 01 02 03 04 05 06 07  08 09 0A 0B 0C 0D 0E 0F
      -- -- -- -- -- -- -- --  -- -- -- -- -- -- -- --
0000:    00                                              .              
```

#### Opcodes

```
  0: 0x0001 [0x00] END_REQSTACK()
```

### Event 94

#### Metadata

| Field        | Value   |
|--------------|---------|
| Entrypoint   | 0x0002  |
| Data Size    | 6 bytes |
| Instructions | 4       |

```
      00 01 02 03 04 05 06 07  08 09 0A 0B 0C 0D 0E 0F
      -- -- -- -- -- -- -- --  -- -- -- -- -- -- -- --
0000:       1D 00 80 23 21 00                             ...#!.        
```

#### Opcodes

```
  0: 0x0002 [0x1D] PRINT_EVENT_MESSAGE(message_id=10383*)
    → "Get outta my face..."
  1: 0x0005 [0x23] WAIT_FOR_DIALOG_INTERACTION
  2: 0x0006 [0x21] END_EVENT
  3: 0x0007 [0x00] END_REQSTACK()
```

### Event 95

#### Metadata

| Field        | Value     |
|--------------|-----------|
| Entrypoint   | 0x0008    |
| Data Size    | 191 bytes |
| Instructions | 27        |

```
      00 01 02 03 04 05 06 07  08 09 0A 0B 0C 0D 0E 0F
      -- -- -- -- -- -- -- --  -- -- -- -- -- -- -- --
0000:                          03 09 10 01 80 42 45 02          .....BE.
0010: 80 F0 FF FF 7F F0 FF FF  7F 66 64 6F 30 03 80 55  .........fdo0..U
0020: 02 80 F0 FF FF 7F F0 FF  FF 7F 66 64 6F 30 46 01  ..........fdo0F.
0030: 29 0A F0 FF FF 7F 0A 45  04 80 F0 FF FF 7F F0 FF  )......E........
0040: FF 7F 73 30 30 30 03 80  38 05 80 45 02 80 F0 FF  ..s000..8..E....
0050: FF 7F F0 FF FF 7F 66 64  69 30 03 80 1D 06 80 23  ......fdi0.....#
0060: 1E F0 FF FF 7F 1D 07 80  23 66 03 80 F8 FF FF 7F  ........#f......
0070: F8 FF FF 7F 70 61 73 30  1D 08 80 23 1D 09 80 23  ....pas0...#...#
0080: 45 02 80 F0 FF FF 7F F0  FF FF 7F 66 64 6F 31 03  E..........fdo1.
0090: 80 55 02 80 F0 FF FF 7F  F0 FF FF 7F 66 64 6F 31  .U..........fdo1
00A0: 46 00 52 04 80 F0 FF FF  7F F0 FF FF 7F 73 30 30  F.R..........s00
00B0: 30 38 05 80 45 02 80 F0  FF FF 7F F0 FF FF 7F 66  08..E..........f
00C0: 64 69 31 03 80 21 00                              di1..!.         
```

#### Opcodes

```
  0: 0x0008 [0x03] Work_Zone[9] = 257*
  1: 0x000D [0x42] SET_CLI_EVENT_CANCEL_DATA()
  2: 0x000E [0x45] LOAD_SCHEDULED_TASK: Load scheduler "fdo0" with entities [LocalPlayer, LocalPlayer], work=[200*, 0*]
  3: 0x001F [0x55] WAIT_LOAD_SCHEDULER: Wait for scheduler "fdo0" with entities [LocalPlayer, LocalPlayer], work=200*
  4: 0x002E [0x46] CAMERA_CONTROL: Disable user control
  5: 0x0030 [0x29] REQ_SET_WAIT(priority=0x0A, entity_id=LocalPlayer, tag_num=0x0A)
  6: 0x0037 [0x45] LOAD_SCHEDULED_TASK: Load scheduler "s000" with entities [LocalPlayer, LocalPlayer], work=[220*, 0*]
  7: 0x0048 [0x38] SET_CLIENT_EVENT_MODE(mode=3*)
  8: 0x004B [0x45] LOAD_SCHEDULED_TASK: Load scheduler "fdi0" with entities [LocalPlayer, LocalPlayer], work=[200*, 0*]
  9: 0x005C [0x1D] PRINT_EVENT_MESSAGE(message_id=10384*)
    → "What? Ensetsu asked you to bring me this $3?"
 10: 0x005F [0x23] WAIT_FOR_DIALOG_INTERACTION
 11: 0x0060 [0x1E] EventEntity looks at LocalPlayer and starts talking
 12: 0x0065 [0x1D] PRINT_EVENT_MESSAGE(message_id=10385*)
    → "Hasn't changed a bit, has he? Always was a weak little worm. If I saw his face, I would smack him so hard..."
 13: 0x0068 [0x23] WAIT_FOR_DIALOG_INTERACTION
 14: 0x0069 [0x66] LOAD_EXT_SCHEDULER_MAIN: Load scheduler "pas0" with entities [EventEntity, EventEntity], work=0*
 15: 0x0078 [0x1D] PRINT_EVENT_MESSAGE(message_id=10386*)
    → "Well, at least he's finally learned the value of this blade. Yomi can now rest in peace..."
 16: 0x007B [0x23] WAIT_FOR_DIALOG_INTERACTION
 17: 0x007C [0x1D] PRINT_EVENT_MESSAGE(message_id=10387*)
    → "Oh, and let me tell you. I'm not doing this for Ensetsu. I only care about Yomi's daughters..."
 18: 0x007F [0x23] WAIT_FOR_DIALOG_INTERACTION
 19: 0x0080 [0x45] LOAD_SCHEDULED_TASK: Load scheduler "fdo1" with entities [LocalPlayer, LocalPlayer], work=[200*, 0*]
 20: 0x0091 [0x55] WAIT_LOAD_SCHEDULER: Wait for scheduler "fdo1" with entities [LocalPlayer, LocalPlayer], work=200*
 21: 0x00A0 [0x46] CAMERA_CONTROL: Restore default settings
 22: 0x00A2 [0x52] END_LOAD_SCHEDULER: End scheduler "s000" with entities [LocalPlayer, LocalPlayer], work=220*
 23: 0x00B1 [0x38] SET_CLIENT_EVENT_MODE(mode=3*)
 24: 0x00B4 [0x45] LOAD_SCHEDULED_TASK: Load scheduler "fdi1" with entities [LocalPlayer, LocalPlayer], work=[200*, 0*]
 25: 0x00C5 [0x21] END_EVENT
 26: 0x00C6 [0x00] END_REQSTACK()
```

### Event 133

#### Metadata

| Field        | Value     |
|--------------|-----------|
| Entrypoint   | 0x00C7    |
| Data Size    | 217 bytes |
| Instructions | 29        |

```
      00 01 02 03 04 05 06 07  08 09 0A 0B 0C 0D 0E 0F
      -- -- -- -- -- -- -- --  -- -- -- -- -- -- -- --
00C0:                      42  45 02 80 F0 FF FF 7F F0         BE.......
00D0: FF FF 7F 66 64 6F 30 03  80 55 02 80 F0 FF FF 7F  ...fdo0..U......
00E0: F0 FF FF 7F 66 64 6F 30  46 01 29 0A F0 FF FF 7F  ....fdo0F.).....
00F0: 0A 45 04 80 F0 FF FF 7F  F0 FF FF 7F 73 30 31 30  .E..........s010
0100: 03 80 38 05 80 45 02 80  F0 FF FF 7F F0 FF FF 7F  ..8..E..........
0110: 66 64 69 30 03 80 1E F0  FF FF 7F 1D 0A 80 23 66  fdi0..........#f
0120: 03 80 F8 FF FF 7F F8 FF  FF 7F 74 6C 6B 30 1D 0B  ..........tlk0..
0130: 80 23 1D 0C 80 23 66 03  80 F8 FF FF 7F F8 FF FF  .#...#f.........
0140: 7F 74 65 6E 30 1D 0D 80  23 66 03 80 F8 FF FF 7F  .ten0...#f......
0150: F8 FF FF 7F 74 6C 6B 31  1D 0E 80 23 45 02 80 F0  ....tlk1...#E...
0160: FF FF 7F F0 FF FF 7F 66  64 6F 31 03 80 55 02 80  .......fdo1..U..
0170: F0 FF FF 7F F0 FF FF 7F  66 64 6F 31 46 00 52 04  ........fdo1F.R.
0180: 80 F0 FF FF 7F F0 FF FF  7F 73 30 31 30 45 02 80  .........s010E..
0190: F0 FF FF 7F F0 FF FF 7F  66 64 69 31 03 80 21 00  ........fdi1..!.
```

#### Opcodes

```
  0: 0x00C7 [0x42] SET_CLI_EVENT_CANCEL_DATA()
  1: 0x00C8 [0x45] LOAD_SCHEDULED_TASK: Load scheduler "fdo0" with entities [LocalPlayer, LocalPlayer], work=[200*, 0*]
  2: 0x00D9 [0x55] WAIT_LOAD_SCHEDULER: Wait for scheduler "fdo0" with entities [LocalPlayer, LocalPlayer], work=200*
  3: 0x00E8 [0x46] CAMERA_CONTROL: Disable user control
  4: 0x00EA [0x29] REQ_SET_WAIT(priority=0x0A, entity_id=LocalPlayer, tag_num=0x0A)
  5: 0x00F1 [0x45] LOAD_SCHEDULED_TASK: Load scheduler "s010" with entities [LocalPlayer, LocalPlayer], work=[220*, 0*]
  6: 0x0102 [0x38] SET_CLIENT_EVENT_MODE(mode=3*)
  7: 0x0105 [0x45] LOAD_SCHEDULED_TASK: Load scheduler "fdi0" with entities [LocalPlayer, LocalPlayer], work=[200*, 0*]
  8: 0x0116 [0x1E] EventEntity looks at LocalPlayer and starts talking
  9: 0x011B [0x1D] PRINT_EVENT_MESSAGE(message_id=10616*)
    → "Get outta my... Hey wait, you're the [guy/lady] that helped out Ensetsu a while back. Tell me, how are Ayaya and little Kaede doing these days?"
 10: 0x011E [0x23] WAIT_FOR_DIALOG_INTERACTION
 11: 0x011F [0x66] LOAD_EXT_SCHEDULER_MAIN: Load scheduler "tlk0" with entities [EventEntity, EventEntity], work=0*
 12: 0x012E [0x1D] PRINT_EVENT_MESSAGE(message_id=10617*)
    → "Ah, but enough of this small talk. I heard from my colleagues that these past few months you have been practicing the way of the ninja. If this is true, I'd like to ask you a favor."
 13: 0x0131 [0x23] WAIT_FOR_DIALOG_INTERACTION
 14: 0x0132 [0x1D] PRINT_EVENT_MESSAGE(message_id=10618*)
    → "A few weeks back, a scroll dating back more than twenty years was found. I need your help in deciphering it."
 15: 0x0135 [0x23] WAIT_FOR_DIALOG_INTERACTION
 16: 0x0136 [0x66] LOAD_EXT_SCHEDULER_MAIN: Load scheduler "ten0" with entities [EventEntity, EventEntity], work=0*
 17: 0x0145 [0x1D] PRINT_EVENT_MESSAGE(message_id=10619*)
    → "What is written on the scroll? Ninjas aren't supposed to ask questions, just follow their orders. But to tell you the truth, even I don't have any clue what this scroll could be about."
 18: 0x0148 [0x23] WAIT_FOR_DIALOG_INTERACTION
 19: 0x0149 [0x66] LOAD_EXT_SCHEDULER_MAIN: Load scheduler "tlk1" with entities [EventEntity, EventEntity], work=0*
 20: 0x0158 [0x1D] PRINT_EVENT_MESSAGE(message_id=10620*)
    → "You should probably start off by heading to Bastok and seeing if Kagetora in the Tenshodo has any leads."
 21: 0x015B [0x23] WAIT_FOR_DIALOG_INTERACTION
 22: 0x015C [0x45] LOAD_SCHEDULED_TASK: Load scheduler "fdo1" with entities [LocalPlayer, LocalPlayer], work=[200*, 0*]
 23: 0x016D [0x55] WAIT_LOAD_SCHEDULER: Wait for scheduler "fdo1" with entities [LocalPlayer, LocalPlayer], work=200*
 24: 0x017C [0x46] CAMERA_CONTROL: Restore default settings
 25: 0x017E [0x52] END_LOAD_SCHEDULER: End scheduler "s010" with entities [LocalPlayer, LocalPlayer], work=220*
 26: 0x018D [0x45] LOAD_SCHEDULED_TASK: Load scheduler "fdi1" with entities [LocalPlayer, LocalPlayer], work=[200*, 0*]
 27: 0x019E [0x21] END_EVENT
 28: 0x019F [0x00] END_REQSTACK()
```

### Event 134

#### Metadata

| Field        | Value     |
|--------------|-----------|
| Entrypoint   | 0x01A0    |
| Data Size    | 216 bytes |
| Instructions | 26        |

```
      00 01 02 03 04 05 06 07  08 09 0A 0B 0C 0D 0E 0F
      -- -- -- -- -- -- -- --  -- -- -- -- -- -- -- --
01A0: 03 09 10 0F 80 42 45 02  80 F0 FF FF 7F F0 FF FF  .....BE.........
01B0: 7F 66 64 6F 30 03 80 55  02 80 F0 FF FF 7F F0 FF  .fdo0..U........
01C0: FF 7F 66 64 6F 30 46 01  29 0A F0 FF FF 7F 0A 45  ..fdo0F.)......E
01D0: 04 80 F0 FF FF 7F F0 FF  FF 7F 73 30 30 30 03 80  ..........s000..
01E0: 38 05 80 45 02 80 F0 FF  FF 7F F0 FF FF 7F 66 64  8..E..........fd
01F0: 69 30 03 80 1E F0 FF FF  7F 1D 10 80 23 66 03 80  i0..........#f..
0200: F8 FF FF 7F F8 FF FF 7F  74 6C 6B 31 1D 11 80 23  ........tlk1...#
0210: 66 03 80 F8 FF FF 7F F8  FF FF 7F 70 61 73 30 1D  f..........pas0.
0220: 12 80 23 45 02 80 F0 FF  FF 7F F0 FF FF 7F 66 64  ..#E..........fd
0230: 6F 31 03 80 55 02 80 F0  FF FF 7F F0 FF FF 7F 66  o1..U..........f
0240: 64 6F 31 46 00 45 13 80  F0 FF FF 7F F0 FF FF 7F  do1F.E..........
0250: 71 73 74 63 03 80 52 04  80 F0 FF FF 7F F0 FF FF  qstc..R.........
0260: 7F 73 30 30 30 45 02 80  F0 FF FF 7F F0 FF FF 7F  .s000E..........
0270: 66 64 69 31 03 80 21 00                           fdi1..!.        
```

#### Opcodes

```
  0: 0x01A0 [0x03] Work_Zone[9] = 460*
  1: 0x01A5 [0x42] SET_CLI_EVENT_CANCEL_DATA()
  2: 0x01A6 [0x45] LOAD_SCHEDULED_TASK: Load scheduler "fdo0" with entities [LocalPlayer, LocalPlayer], work=[200*, 0*]
  3: 0x01B7 [0x55] WAIT_LOAD_SCHEDULER: Wait for scheduler "fdo0" with entities [LocalPlayer, LocalPlayer], work=200*
  4: 0x01C6 [0x46] CAMERA_CONTROL: Disable user control
  5: 0x01C8 [0x29] REQ_SET_WAIT(priority=0x0A, entity_id=LocalPlayer, tag_num=0x0A)
  6: 0x01CF [0x45] LOAD_SCHEDULED_TASK: Load scheduler "s000" with entities [LocalPlayer, LocalPlayer], work=[220*, 0*]
  7: 0x01E0 [0x38] SET_CLIENT_EVENT_MODE(mode=3*)
  8: 0x01E3 [0x45] LOAD_SCHEDULED_TASK: Load scheduler "fdi0" with entities [LocalPlayer, LocalPlayer], work=[200*, 0*]
  9: 0x01F4 [0x1E] EventEntity looks at LocalPlayer and starts talking
 10: 0x01F9 [0x1D] PRINT_EVENT_MESSAGE(message_id=10621*)
    → "What? You found this $3 by following Ensetsu's lead?"
 11: 0x01FC [0x23] WAIT_FOR_DIALOG_INTERACTION
 12: 0x01FD [0x66] LOAD_EXT_SCHEDULER_MAIN: Load scheduler "tlk1" with entities [EventEntity, EventEntity], work=0*
 13: 0x020C [0x1D] PRINT_EVENT_MESSAGE(message_id=10622*)
    → "That weasel is still hiding something. We're going to have to pay our little friend a visit..."
 14: 0x020F [0x23] WAIT_FOR_DIALOG_INTERACTION
 15: 0x0210 [0x66] LOAD_EXT_SCHEDULER_MAIN: Load scheduler "pas0" with entities [EventEntity, EventEntity], work=0*
 16: 0x021F [0x1D] PRINT_EVENT_MESSAGE(message_id=10623*)
    → "But you don't have to worry about that. Thanks again. Here is a little something for your trouble. Oh, and stay in touch. I may have some more work for you soon."
 17: 0x0222 [0x23] WAIT_FOR_DIALOG_INTERACTION
 18: 0x0223 [0x45] LOAD_SCHEDULED_TASK: Load scheduler "fdo1" with entities [LocalPlayer, LocalPlayer], work=[200*, 0*]
 19: 0x0234 [0x55] WAIT_LOAD_SCHEDULER: Wait for scheduler "fdo1" with entities [LocalPlayer, LocalPlayer], work=200*
 20: 0x0243 [0x46] CAMERA_CONTROL: Restore default settings
 21: 0x0245 [0x45] LOAD_SCHEDULED_TASK: Load scheduler "qstc" with entities [LocalPlayer, LocalPlayer], work=[201*, 0*]
 22: 0x0256 [0x52] END_LOAD_SCHEDULER: End scheduler "s000" with entities [LocalPlayer, LocalPlayer], work=220*
 23: 0x0265 [0x45] LOAD_SCHEDULED_TASK: Load scheduler "fdi1" with entities [LocalPlayer, LocalPlayer], work=[200*, 0*]
 24: 0x0276 [0x21] END_EVENT
 25: 0x0277 [0x00] END_REQSTACK()
```

### Event 135

#### Metadata

| Field        | Value     |
|--------------|-----------|
| Entrypoint   | 0x0278    |
| Data Size    | 203 bytes |
| Instructions | 27        |

```
      00 01 02 03 04 05 06 07  08 09 0A 0B 0C 0D 0E 0F
      -- -- -- -- -- -- -- --  -- -- -- -- -- -- -- --
0270:                          03 09 10 0F 80 42 45 02          .....BE.
0280: 80 F0 FF FF 7F F0 FF FF  7F 66 64 6F 30 03 80 55  .........fdo0..U
0290: 02 80 F0 FF FF 7F F0 FF  FF 7F 66 64 6F 30 46 01  ..........fdo0F.
02A0: 29 0A F0 FF FF 7F 0A 45  04 80 F0 FF FF 7F F0 FF  )......E........
02B0: FF 7F 73 30 30 30 03 80  38 05 80 45 02 80 F0 FF  ..s000..8..E....
02C0: FF 7F F0 FF FF 7F 66 64  69 30 03 80 1E F0 FF FF  ......fdi0......
02D0: 7F 1D 14 80 23 66 03 80  F8 FF FF 7F F8 FF FF 7F  ....#f..........
02E0: 74 6C 6B 30 1D 15 80 23  1D 16 80 23 66 03 80 F8  tlk0...#...#f...
02F0: FF FF 7F F8 FF FF 7F 74  65 6E 30 1D 17 80 23 45  .......ten0...#E
0300: 02 80 F0 FF FF 7F F0 FF  FF 7F 66 64 6F 31 03 80  ..........fdo1..
0310: 55 02 80 F0 FF FF 7F F0  FF FF 7F 66 64 6F 31 46  U..........fdo1F
0320: 00 52 04 80 F0 FF FF 7F  F0 FF FF 7F 73 30 30 30  .R..........s000
0330: 45 02 80 F0 FF FF 7F F0  FF FF 7F 66 64 69 31 03  E..........fdi1.
0340: 80 21 00                                          .!.             
```

#### Opcodes

```
  0: 0x0278 [0x03] Work_Zone[9] = 460*
  1: 0x027D [0x42] SET_CLI_EVENT_CANCEL_DATA()
  2: 0x027E [0x45] LOAD_SCHEDULED_TASK: Load scheduler "fdo0" with entities [LocalPlayer, LocalPlayer], work=[200*, 0*]
  3: 0x028F [0x55] WAIT_LOAD_SCHEDULER: Wait for scheduler "fdo0" with entities [LocalPlayer, LocalPlayer], work=200*
  4: 0x029E [0x46] CAMERA_CONTROL: Disable user control
  5: 0x02A0 [0x29] REQ_SET_WAIT(priority=0x0A, entity_id=LocalPlayer, tag_num=0x0A)
  6: 0x02A7 [0x45] LOAD_SCHEDULED_TASK: Load scheduler "s000" with entities [LocalPlayer, LocalPlayer], work=[220*, 0*]
  7: 0x02B8 [0x38] SET_CLIENT_EVENT_MODE(mode=3*)
  8: 0x02BB [0x45] LOAD_SCHEDULED_TASK: Load scheduler "fdi0" with entities [LocalPlayer, LocalPlayer], work=[200*, 0*]
  9: 0x02CC [0x1E] EventEntity looks at LocalPlayer and starts talking
 10: 0x02D1 [0x1D] PRINT_EVENT_MESSAGE(message_id=10624*)
    → "You remember that $3 that you brought us? Well, it turned out to be a fake, made fairly recently."
 11: 0x02D4 [0x23] WAIT_FOR_DIALOG_INTERACTION
 12: 0x02D5 [0x66] LOAD_EXT_SCHEDULER_MAIN: Load scheduler "tlk0" with entities [EventEntity, EventEntity], work=0*
 13: 0x02E4 [0x1D] PRINT_EVENT_MESSAGE(message_id=10625*)
    → "But it still looks a helluva lot like the work of the greatest pirate inventor that ever lived--Mitsunari the Poisonclaw."
 14: 0x02E7 [0x23] WAIT_FOR_DIALOG_INTERACTION
 15: 0x02E8 [0x1D] PRINT_EVENT_MESSAGE(message_id=10626*)
    → "But he left Norg over twenty years ago, and is assumed dead and gone. There have been stories of a pupil of his, but..."
 16: 0x02EB [0x23] WAIT_FOR_DIALOG_INTERACTION
 17: 0x02EC [0x66] LOAD_EXT_SCHEDULER_MAIN: Load scheduler "ten0" with entities [EventEntity, EventEntity], work=0*
 18: 0x02FB [0x1D] PRINT_EVENT_MESSAGE(message_id=10627*)
    → "Argh! But what do I know!? The only person that has anything close to a lead is that weasel, Ensetsu. Go to his house in Bastok and make him tell us all he knows."
 19: 0x02FE [0x23] WAIT_FOR_DIALOG_INTERACTION
 20: 0x02FF [0x45] LOAD_SCHEDULED_TASK: Load scheduler "fdo1" with entities [LocalPlayer, LocalPlayer], work=[200*, 0*]
 21: 0x0310 [0x55] WAIT_LOAD_SCHEDULER: Wait for scheduler "fdo1" with entities [LocalPlayer, LocalPlayer], work=200*
 22: 0x031F [0x46] CAMERA_CONTROL: Restore default settings
 23: 0x0321 [0x52] END_LOAD_SCHEDULER: End scheduler "s000" with entities [LocalPlayer, LocalPlayer], work=220*
 24: 0x0330 [0x45] LOAD_SCHEDULED_TASK: Load scheduler "fdi1" with entities [LocalPlayer, LocalPlayer], work=[200*, 0*]
 25: 0x0341 [0x21] END_EVENT
 26: 0x0342 [0x00] END_REQSTACK()
```

### Event 136

#### Metadata

| Field        | Value     |
|--------------|-----------|
| Entrypoint   | 0x0343    |
| Data Size    | 254 bytes |
| Instructions | 32        |

```
      00 01 02 03 04 05 06 07  08 09 0A 0B 0C 0D 0E 0F
      -- -- -- -- -- -- -- --  -- -- -- -- -- -- -- --
0340:          03 09 10 18 80  42 45 02 80 F0 FF FF 7F     .....BE......
0350: F0 FF FF 7F 66 64 6F 30  03 80 55 02 80 F0 FF FF  ....fdo0..U.....
0360: 7F F0 FF FF 7F 66 64 6F  30 46 01 29 0A F0 FF FF  .....fdo0F.)....
0370: 7F 0A 45 04 80 F0 FF FF  7F F0 FF FF 7F 73 30 31  ..E..........s01
0380: 31 03 80 38 05 80 45 02  80 F0 FF FF 7F F0 FF FF  1..8..E.........
0390: 7F 66 64 69 30 03 80 1E  F0 FF FF 7F 1D 19 80 23  .fdi0..........#
03A0: 66 03 80 F8 FF FF 7F F8  FF FF 7F 74 68 6B 31 1D  f..........thk1.
03B0: 1A 80 23 1D 1B 80 23 52  04 80 F0 FF FF 7F F0 FF  ..#...#R........
03C0: FF 7F 73 30 31 31 45 04  80 F0 FF FF 7F F0 FF FF  ..s011E.........
03D0: 7F 73 30 31 30 03 80 66  03 80 F8 FF FF 7F F8 FF  .s010..f........
03E0: FF 7F 74 68 6B 32 1D 1C  80 23 66 03 80 F8 FF FF  ..thk2...#f.....
03F0: 7F F8 FF FF 7F 74 6C 6B  30 1D 1D 80 23 45 02 80  .....tlk0...#E..
0400: F0 FF FF 7F F0 FF FF 7F  66 64 6F 31 03 80 55 02  ........fdo1..U.
0410: 80 F0 FF FF 7F F0 FF FF  7F 66 64 6F 31 52 04 80  .........fdo1R..
0420: F0 FF FF 7F F0 FF FF 7F  73 30 31 30 46 00 45 02  ........s010F.E.
0430: 80 F0 FF FF 7F F0 FF FF  7F 66 64 69 31 03 80 21  .........fdi1..!
0440: 00                                                .               
```

#### Opcodes

```
  0: 0x0343 [0x03] Work_Zone[9] = 470*
  1: 0x0348 [0x42] SET_CLI_EVENT_CANCEL_DATA()
  2: 0x0349 [0x45] LOAD_SCHEDULED_TASK: Load scheduler "fdo0" with entities [LocalPlayer, LocalPlayer], work=[200*, 0*]
  3: 0x035A [0x55] WAIT_LOAD_SCHEDULER: Wait for scheduler "fdo0" with entities [LocalPlayer, LocalPlayer], work=200*
  4: 0x0369 [0x46] CAMERA_CONTROL: Disable user control
  5: 0x036B [0x29] REQ_SET_WAIT(priority=0x0A, entity_id=LocalPlayer, tag_num=0x0A)
  6: 0x0372 [0x45] LOAD_SCHEDULED_TASK: Load scheduler "s011" with entities [LocalPlayer, LocalPlayer], work=[220*, 0*]
  7: 0x0383 [0x38] SET_CLIENT_EVENT_MODE(mode=3*)
  8: 0x0386 [0x45] LOAD_SCHEDULED_TASK: Load scheduler "fdi0" with entities [LocalPlayer, LocalPlayer], work=[200*, 0*]
  9: 0x0397 [0x1E] EventEntity looks at LocalPlayer and starts talking
 10: 0x039C [0x1D] PRINT_EVENT_MESSAGE(message_id=10628*)
    → "You're just the person I was looking for. We've got our hands on some new info regarding Mitsunari's treasure."
 11: 0x039F [0x23] WAIT_FOR_DIALOG_INTERACTION
 12: 0x03A0 [0x66] LOAD_EXT_SCHEDULER_MAIN: Load scheduler "thk1" with entities [EventEntity, EventEntity], work=0*
 13: 0x03AF [0x1D] PRINT_EVENT_MESSAGE(message_id=10629*)
    → "It looks like a pack of those slimy Sahagins stole the Poisonclaw's $3 when our men were transporting it."
 14: 0x03B2 [0x23] WAIT_FOR_DIALOG_INTERACTION
 15: 0x03B3 [0x1D] PRINT_EVENT_MESSAGE(message_id=10630*)
    → "For the past few days we've been combing the Sea Serpent Grotto, but it's beginning to look like the beasts aren't hiding it anywhere near Norg."
 16: 0x03B6 [0x23] WAIT_FOR_DIALOG_INTERACTION
 17: 0x03B7 [0x52] END_LOAD_SCHEDULER: End scheduler "s011" with entities [LocalPlayer, LocalPlayer], work=220*
 18: 0x03C6 [0x45] LOAD_SCHEDULED_TASK: Load scheduler "s010" with entities [LocalPlayer, LocalPlayer], work=[220*, 0*]
 19: 0x03D7 [0x66] LOAD_EXT_SCHEDULER_MAIN: Load scheduler "thk2" with entities [EventEntity, EventEntity], work=0*
 20: 0x03E6 [0x1D] PRINT_EVENT_MESSAGE(message_id=10631*)
    → "But the fish-faced fiends are only beastmen, so you wouldn't think they could take it off Elshimo Island. It's gotta be somewhere close."
 21: 0x03E9 [0x23] WAIT_FOR_DIALOG_INTERACTION
 22: 0x03EA [0x66] LOAD_EXT_SCHEDULER_MAIN: Load scheduler "tlk0" with entities [EventEntity, EventEntity], work=0*
 23: 0x03F9 [0x1D] PRINT_EVENT_MESSAGE(message_id=10632*)
    → "I'd start with the jungle if I were you. I've got a hunch that the $3 is somewhere in there."
 24: 0x03FC [0x23] WAIT_FOR_DIALOG_INTERACTION
 25: 0x03FD [0x45] LOAD_SCHEDULED_TASK: Load scheduler "fdo1" with entities [LocalPlayer, LocalPlayer], work=[200*, 0*]
 26: 0x040E [0x55] WAIT_LOAD_SCHEDULER: Wait for scheduler "fdo1" with entities [LocalPlayer, LocalPlayer], work=200*
 27: 0x041D [0x52] END_LOAD_SCHEDULER: End scheduler "s010" with entities [LocalPlayer, LocalPlayer], work=220*
 28: 0x042C [0x46] CAMERA_CONTROL: Restore default settings
 29: 0x042E [0x45] LOAD_SCHEDULED_TASK: Load scheduler "fdi1" with entities [LocalPlayer, LocalPlayer], work=[200*, 0*]
 30: 0x043F [0x21] END_EVENT
 31: 0x0440 [0x00] END_REQSTACK()
```

### Event 137

#### Metadata

| Field        | Value     |
|--------------|-----------|
| Entrypoint   | 0x0441    |
| Data Size    | 199 bytes |
| Instructions | 25        |

```
      00 01 02 03 04 05 06 07  08 09 0A 0B 0C 0D 0E 0F
      -- -- -- -- -- -- -- --  -- -- -- -- -- -- -- --
0440:    03 09 10 18 80 42 45  02 80 F0 FF FF 7F F0 FF   .....BE........
0450: FF 7F 66 64 6F 30 03 80  55 02 80 F0 FF FF 7F F0  ..fdo0..U.......
0460: FF FF 7F 66 64 6F 30 46  01 29 0A F0 FF FF 7F 0A  ...fdo0F.)......
0470: 45 04 80 F0 FF FF 7F F0  FF FF 7F 73 30 31 30 03  E..........s010.
0480: 80 38 05 80 45 02 80 F0  FF FF 7F F0 FF FF 7F 66  .8..E..........f
0490: 64 69 30 03 80 1E F0 FF  FF 7F 1D 1E 80 23 66 03  di0..........#f.
04A0: 80 F8 FF FF 7F F8 FF FF  7F 74 6C 6B 30 1D 1F 80  .........tlk0...
04B0: 23 66 03 80 F8 FF FF 7F  F8 FF FF 7F 74 65 6E 30  #f..........ten0
04C0: 1D 20 80 23 45 02 80 F0  FF FF 7F F0 FF FF 7F 66  . .#E..........f
04D0: 64 6F 31 03 80 55 02 80  F0 FF FF 7F F0 FF FF 7F  do1..U..........
04E0: 66 64 6F 31 52 04 80 F0  FF FF 7F F0 FF FF 7F 73  fdo1R..........s
04F0: 30 31 30 46 00 45 02 80  F0 FF FF 7F F0 FF FF 7F  010F.E..........
0500: 66 64 69 31 03 80 21 00                           fdi1..!.        
```

#### Opcodes

```
  0: 0x0441 [0x03] Work_Zone[9] = 470*
  1: 0x0446 [0x42] SET_CLI_EVENT_CANCEL_DATA()
  2: 0x0447 [0x45] LOAD_SCHEDULED_TASK: Load scheduler "fdo0" with entities [LocalPlayer, LocalPlayer], work=[200*, 0*]
  3: 0x0458 [0x55] WAIT_LOAD_SCHEDULER: Wait for scheduler "fdo0" with entities [LocalPlayer, LocalPlayer], work=200*
  4: 0x0467 [0x46] CAMERA_CONTROL: Disable user control
  5: 0x0469 [0x29] REQ_SET_WAIT(priority=0x0A, entity_id=LocalPlayer, tag_num=0x0A)
  6: 0x0470 [0x45] LOAD_SCHEDULED_TASK: Load scheduler "s010" with entities [LocalPlayer, LocalPlayer], work=[220*, 0*]
  7: 0x0481 [0x38] SET_CLIENT_EVENT_MODE(mode=3*)
  8: 0x0484 [0x45] LOAD_SCHEDULED_TASK: Load scheduler "fdi0" with entities [LocalPlayer, LocalPlayer], work=[200*, 0*]
  9: 0x0495 [0x1E] EventEntity looks at LocalPlayer and starts talking
 10: 0x049A [0x1D] PRINT_EVENT_MESSAGE(message_id=10633*)
    → "Well I'll be... You found the $3!"
 11: 0x049D [0x23] WAIT_FOR_DIALOG_INTERACTION
 12: 0x049E [0x66] LOAD_EXT_SCHEDULER_MAIN: Load scheduler "tlk0" with entities [EventEntity, EventEntity], work=0*
 13: 0x04AD [0x1D] PRINT_EVENT_MESSAGE(message_id=10634*)
    → "Now all we have to do is open it! Hmm...but knowing that Mitsunari, there's bound to be some terrible trap on this. We'll have to check it before we open it."
 14: 0x04B0 [0x23] WAIT_FOR_DIALOG_INTERACTION
 15: 0x04B1 [0x66] LOAD_EXT_SCHEDULER_MAIN: Load scheduler "ten0" with entities [EventEntity, EventEntity], work=0*
 16: 0x04C0 [0x1D] PRINT_EVENT_MESSAGE(message_id=10635*)
    → "Take this to that Leodarion fellow in Rabao. If anyone could open one of the Poisonclaw's traps, it would be him."
 17: 0x04C3 [0x23] WAIT_FOR_DIALOG_INTERACTION
 18: 0x04C4 [0x45] LOAD_SCHEDULED_TASK: Load scheduler "fdo1" with entities [LocalPlayer, LocalPlayer], work=[200*, 0*]
 19: 0x04D5 [0x55] WAIT_LOAD_SCHEDULER: Wait for scheduler "fdo1" with entities [LocalPlayer, LocalPlayer], work=200*
 20: 0x04E4 [0x52] END_LOAD_SCHEDULER: End scheduler "s010" with entities [LocalPlayer, LocalPlayer], work=220*
 21: 0x04F3 [0x46] CAMERA_CONTROL: Restore default settings
 22: 0x04F5 [0x45] LOAD_SCHEDULED_TASK: Load scheduler "fdi1" with entities [LocalPlayer, LocalPlayer], work=[200*, 0*]
 23: 0x0506 [0x21] END_EVENT
 24: 0x0507 [0x00] END_REQSTACK()
```

### Event 138

#### Metadata

| Field        | Value    |
|--------------|----------|
| Entrypoint   | 0x0508   |
| Data Size    | 30 bytes |
| Instructions | 8        |

```
      00 01 02 03 04 05 06 07  08 09 0A 0B 0C 0D 0E 0F
      -- -- -- -- -- -- -- --  -- -- -- -- -- -- -- --
0500:                          1E F0 FF FF 7F 1D 1F 80          ........
0510: 23 66 03 80 F8 FF FF 7F  F8 FF FF 7F 74 6C 6B 30  #f..........tlk0
0520: 1D 20 80 23 21 00                                 . .#!.          
```

#### Opcodes

```
  0: 0x0508 [0x1E] EventEntity looks at LocalPlayer and starts talking
  1: 0x050D [0x1D] PRINT_EVENT_MESSAGE(message_id=10634*)
    → "Now all we have to do is open it! Hmm...but knowing that Mitsunari, there's bound to be some terrible trap on this. We'll have to check it before we open it."
  2: 0x0510 [0x23] WAIT_FOR_DIALOG_INTERACTION
  3: 0x0511 [0x66] LOAD_EXT_SCHEDULER_MAIN: Load scheduler "tlk0" with entities [EventEntity, EventEntity], work=0*
  4: 0x0520 [0x1D] PRINT_EVENT_MESSAGE(message_id=10635*)
    → "Take this to that Leodarion fellow in Rabao. If anyone could open one of the Poisonclaw's traps, it would be him."
  5: 0x0523 [0x23] WAIT_FOR_DIALOG_INTERACTION
  6: 0x0524 [0x21] END_EVENT
  7: 0x0525 [0x00] END_REQSTACK()
```

### Event 184

#### Metadata

| Field        | Value     |
|--------------|-----------|
| Entrypoint   | 0x0526    |
| Data Size    | 316 bytes |
| Instructions | 48        |

```
      00 01 02 03 04 05 06 07  08 09 0A 0B 0C 0D 0E 0F
      -- -- -- -- -- -- -- --  -- -- -- -- -- -- -- --
0520:                   02 08  10 21 80 00 2F 05 42 1A        ...!../.B.
0530: 1A 0C 66 03 80 F8 FF FF  7F F8 FF FF 7F 74 68 6B  ..f..........thk
0540: 31 1D 22 80 23 66 03 80  F8 FF FF 7F F8 FF FF 7F  1.".#f..........
0550: 74 68 6B 32 53 F8 FF FF  7F F8 FF FF 7F 74 68 6B  thk2S........thk
0560: 32 66 03 80 F8 FF FF 7F  F8 FF FF 7F 74 6C 6B 31  2f..........tlk1
0570: 1D 23 80 23 1D 24 80 23  66 03 80 F8 FF FF 7F F8  .#.#.$.#f.......
0580: FF FF 7F 74 65 6E 31 24  25 80 21 80 03 80 25 02  ...ten1$%.!...%.
0590: 00 10 21 80 00 BA 05 1D  26 80 23 02 08 10 21 80  ..!.....&.#...!.
05A0: 00 B4 05 45 02 80 F0 FF  FF 7F F0 FF FF 7F 66 64  ...E..........fd
05B0: 69 32 03 80 01 60 06 01  BA 05 1A D9 08 03 01 10  i2...`..........
05C0: 21 80 03 02 10 27 80 66  03 80 F8 FF FF 7F F8 FF  !....'.f........
05D0: FF 7F 64 69 73 30 1D 28  80 23 53 F8 FF FF 7F F8  ..dis0.(.#S.....
05E0: FF FF 7F 64 69 73 30 66  03 80 F8 FF FF 7F F8 FF  ...dis0f........
05F0: FF 7F 70 61 73 30 1D 29  80 23 53 F8 FF FF 7F F8  ..pas0.).#S.....
0600: FF FF 7F 70 61 73 30 52  2A 80 F0 FF FF 7F F0 FF  ...pas0R*.......
0610: FF 7F 77 6E 30 31 45 2A  80 F0 FF FF 7F F0 FF FF  ..wn01E*........
0620: 7F 77 6E 30 32 03 80 6C  F0 FF FF 7F 2B 80 21 80  .wn02..l....+.!.
0630: 1A 28 0C 1D 2C 80 23 1D  2D 80 23 66 03 80 F8 FF  .(..,.#.-.#f....
0640: FF 7F F8 FF FF 7F 74 65  6E 30 1D 2E 80 23 1A 20  ......ten0...#. 
0650: 09 52 2A 80 F0 FF FF 7F  F0 FF FF 7F 77 6E 30 32  .R*.........wn02
0660: 21 00                                             !.              
```

#### Opcodes

```
  0: 0x0526 [0x02] IF !(Work_Zone[8] == 1*) GOTO 0x052F
  1: 0x052E [0x42] SET_CLI_EVENT_CANCEL_DATA()
  2: 0x052F [0x1A] CALL_SUBROUTINE(address=0x0C1A)
  3: 0x0532 [0x66] LOAD_EXT_SCHEDULER_MAIN: Load scheduler "thk1" with entities [EventEntity, EventEntity], work=0*
  4: 0x0541 [0x1D] PRINT_EVENT_MESSAGE(message_id=10825*)
    → "Well, look at you. I'm glad to see you realize that being a ninja isn't all about casting spells and throwing stars. But there's still one technique that's left for only the best of the best."
  5: 0x0544 [0x23] WAIT_FOR_DIALOG_INTERACTION
  6: 0x0545 [0x66] LOAD_EXT_SCHEDULER_MAIN: Load scheduler "thk2" with entities [EventEntity, EventEntity], work=0*
  7: 0x0554 [0x53] WAIT_SCHEDULER_TASK: Wait for scheduler "thk2" with entities [EventEntity, EventEntity]
  8: 0x0561 [0x66] LOAD_EXT_SCHEDULER_MAIN: Load scheduler "tlk1" with entities [EventEntity, EventEntity], work=0*
  9: 0x0570 [0x1D] PRINT_EVENT_MESSAGE(message_id=10826*)
    → "You've learned to wield your katana by risking your life and limb out there on the battlefield."
 10: 0x0573 [0x23] WAIT_FOR_DIALOG_INTERACTION
 11: 0x0574 [0x1D] PRINT_EVENT_MESSAGE(message_id=10827*)
    → "Learning this final technique will be no different. You'll have to get out there in the jungle and bust your butt like you never have before. Do you think you've got what it takes?"
 12: 0x0577 [0x23] WAIT_FOR_DIALOG_INTERACTION
 13: 0x0578 [0x66] LOAD_EXT_SCHEDULER_MAIN: Load scheduler "ten1" with entities [EventEntity, EventEntity], work=0*
 14: 0x0587 [0x24] CREATE_DIALOG(message_id=10850*, default_option=1*, option_flags=0*)
    → "Accept the challenge? [Of course!/Not just yet.]"
 15: 0x058E [0x25] WAIT_DIALOG_SELECT()
 16: 0x058F [0x02] IF !(Work_Zone[0] == 1*) GOTO 0x05BA
 17: 0x0597 [0x1D] PRINT_EVENT_MESSAGE(message_id=10828*)
    → "Hah! You may be shaking your head now, but I know your type. You won't be satisfied until you reach the top. You'll be back...and I'll be waiting."
 18: 0x059A [0x23] WAIT_FOR_DIALOG_INTERACTION
 19: 0x059B [0x02] IF !(Work_Zone[8] == 1*) GOTO 0x05B4
 20: 0x05A3 [0x45] LOAD_SCHEDULED_TASK: Load scheduler "fdi2" with entities [LocalPlayer, LocalPlayer], work=[200*, 0*]
 21: 0x05B4 [0x01] GOTO 0x0660

SUBROUTINE_05BA:
 22: 0x05BA [0x1A] CALL_SUBROUTINE(address=0x08D9)
 23: 0x05BD [0x03] Work_Zone[1] = 1*
 24: 0x05C2 [0x03] Work_Zone[2] = 17773*
 25: 0x05C7 [0x66] LOAD_EXT_SCHEDULER_MAIN: Load scheduler "dis0" with entities [EventEntity, EventEntity], work=0*
 26: 0x05D6 [0x1D] PRINT_EVENT_MESSAGE(message_id=10829*)
    → "I knew that you couldn't resist the challenge, but saying you're going to do something is a helluva lot easier than actually going out and doing it. If you don't think you're going to succeed, then you shouldn't even bother trying in the first place!"
 27: 0x05D9 [0x23] WAIT_FOR_DIALOG_INTERACTION
 28: 0x05DA [0x53] WAIT_SCHEDULER_TASK: Wait for scheduler "dis0" with entities [EventEntity, EventEntity]
 29: 0x05E7 [0x66] LOAD_EXT_SCHEDULER_MAIN: Load scheduler "pas0" with entities [EventEntity, EventEntity], work=0*
 30: 0x05F6 [0x1D] PRINT_EVENT_MESSAGE(message_id=10830*)
    → "Here, take this $0."
 31: 0x05F9 [0x23] WAIT_FOR_DIALOG_INTERACTION
 32: 0x05FA [0x53] WAIT_SCHEDULER_TASK: Wait for scheduler "pas0" with entities [EventEntity, EventEntity]
 33: 0x0607 [0x52] END_LOAD_SCHEDULER: End scheduler "wn01" with entities [LocalPlayer, LocalPlayer], work=215*
 34: 0x0616 [0x45] LOAD_SCHEDULED_TASK: Load scheduler "wn02" with entities [LocalPlayer, LocalPlayer], work=[215*, 0*]
 35: 0x0627 [0x6C] FADE_ENTITY_COLOR(entity_id=LocalPlayer, end_alpha=127*, fade_time=1*)
 36: 0x0630 [0x1A] CALL_SUBROUTINE(address=0x0C28)
 37: 0x0633 [0x1D] PRINT_EVENT_MESSAGE(message_id=10831*)
    → "Use that katana to deal as much damage as possible. When you've acquired enough skill, the $0 will recognize your power and its power will fade."
 38: 0x0636 [0x23] WAIT_FOR_DIALOG_INTERACTION
 39: 0x0637 [0x1D] PRINT_EVENT_MESSAGE(message_id=10832*)
    → "When that happens, bring her back here to me."
 40: 0x063A [0x23] WAIT_FOR_DIALOG_INTERACTION
 41: 0x063B [0x66] LOAD_EXT_SCHEDULER_MAIN: Load scheduler "ten0" with entities [EventEntity, EventEntity], work=0*
 42: 0x064A [0x1D] PRINT_EVENT_MESSAGE(message_id=10833*)
    → "But don't think that's the end of your trial. Something much more exciting will be waiting for you when you get back, if you know what I mean. Heh heh heh."
 43: 0x064D [0x23] WAIT_FOR_DIALOG_INTERACTION
 44: 0x064E [0x1A] CALL_SUBROUTINE(address=0x0920)
 45: 0x0651 [0x52] END_LOAD_SCHEDULER: End scheduler "wn02" with entities [LocalPlayer, LocalPlayer], work=215*

SUBROUTINE_0660:
 46: 0x0660 [0x21] END_EVENT
 47: 0x0661 [0x00] END_REQSTACK()
```

#### Data or dead code:

```
# Dead code (unreachable instructions):
     0x05B7 [0x01] GOTO 0x05BA
```

### Event 185

#### Metadata

| Field        | Value     |
|--------------|-----------|
| Entrypoint   | 0x0662    |
| Data Size    | 408 bytes |
| Instructions | 71        |

```
      00 01 02 03 04 05 06 07  08 09 0A 0B 0C 0D 0E 0F
      -- -- -- -- -- -- -- --  -- -- -- -- -- -- -- --
0660:       02 08 10 21 80 00  6B 06 42 02 09 10 03 80    ...!..k.B.....
0670: 00 7A 06 3C 00 00 21 80  21 80 1A 1A 0C 03 02 10  .z.<..!.!.......
0680: 27 80 03 03 10 2F 80 1A  28 0C 1D 30 80 23 1D 2D  '..../..(..0.#.-
0690: 80 23 66 03 80 F8 FF FF  7F F8 FF FF 7F 74 65 6E  .#f..........ten
06A0: 30 1D 2E 80 23 1D 31 80  23 24 32 80 03 80 00 00  0...#.1.#$2.....
06B0: 25 02 00 10 03 80 00 D9  06 1D 33 80 23 02 08 10  %.........3.#...
06C0: 21 80 00 D6 06 45 02 80  F0 FF FF 7F F0 FF FF 7F  !....E..........
06D0: 66 64 69 32 03 80 01 F8  07 02 00 10 21 80 00 51  fdi2........!..Q
06E0: 07 1A D9 08 03 01 10 21  80 1A 28 0C 1D 34 80 23  .......!..(..4.#
06F0: 1D 35 80 23 66 03 80 F8  FF FF 7F F8 FF FF 7F 74  .5.#f..........t
0700: 65 6E 30 53 F8 FF FF 7F  F8 FF FF 7F 74 65 6E 30  en0S........ten0
0710: 1C 36 80 1D 37 80 23 66  03 80 F8 FF FF 7F F8 FF  .6..7.#f........
0720: FF 7F 70 61 73 30 53 F8  FF FF 7F F8 FF FF 7F 70  ..pas0S........p
0730: 61 73 30 1A 20 09 6C F0  FF FF 7F 2B 80 21 80 52  as0. .l....+.!.R
0740: 2A 80 F0 FF FF 7F F0 FF  FF 7F 77 6E 30 31 01 F8  *.........wn01..
0750: 07 02 00 10 38 80 00 F8  07 1D 39 80 23 24 3A 80  ....8.....9.#$:.
0760: 21 80 03 80 25 02 00 10  21 80 00 9F 07 66 05 80  !...%...!....f..
0770: F8 FF FF 7F F8 FF FF 7F  70 6F 69 30 1D 3B 80 23  ........poi0.;.#
0780: 02 08 10 21 80 00 99 07  45 02 80 F0 FF FF 7F F0  ...!....E.......
0790: FF FF 7F 66 64 69 32 03  80 01 F8 07 01 9F 07 1A  ...fdi2.........
07A0: D9 08 03 01 10 38 80 66  03 80 F8 FF FF 7F F8 FF  .....8.f........
07B0: FF 7F 74 68 6B 31 53 F8  FF FF 7F F8 FF FF 7F 74  ..thk1S........t
07C0: 68 6B 31 1D 3C 80 23 66  03 80 F8 FF FF 7F F8 FF  hk1.<.#f........
07D0: FF 7F 74 68 6B 32 1D 3D  80 23 1A 20 09 6C F0 FF  ..thk2.=.#. .l..
07E0: FF 7F 2B 80 21 80 52 2A  80 F0 FF FF 7F F0 FF FF  ..+.!.R*........
07F0: 7F 77 6E 30 31 01 F8 07  21 00                    .wn01...!.      
```

#### Opcodes

```
  0: 0x0662 [0x02] IF !(Work_Zone[8] == 1*) GOTO 0x066B
  1: 0x066A [0x42] SET_CLI_EVENT_CANCEL_DATA()
  2: 0x066B [0x02] IF !(Work_Zone[9] == 0*) GOTO 0x067A
  3: 0x0673 [0x3C] SET_BIT_FLAG_CONDITIONAL(target_work_offset=ExtData[1]->WorkLocal[0], bit_index_work_offset=1*, condition_work_offset=1*)
  4: 0x067A [0x1A] CALL_SUBROUTINE(address=0x0C1A)
  5: 0x067D [0x03] Work_Zone[2] = 17773*
  6: 0x0682 [0x03] Work_Zone[3] = 343*
  7: 0x0687 [0x1A] CALL_SUBROUTINE(address=0x0C28)
  8: 0x068A [0x1D] PRINT_EVENT_MESSAGE(message_id=10834*)
    → "When you've acquired enough skill, the $0 will recognize your might and then its power will fade."
  9: 0x068D [0x23] WAIT_FOR_DIALOG_INTERACTION
 10: 0x068E [0x1D] PRINT_EVENT_MESSAGE(message_id=10832*)
    → "When that happens, bring her back here to me."
 11: 0x0691 [0x23] WAIT_FOR_DIALOG_INTERACTION
 12: 0x0692 [0x66] LOAD_EXT_SCHEDULER_MAIN: Load scheduler "ten0" with entities [EventEntity, EventEntity], work=0*
 13: 0x06A1 [0x1D] PRINT_EVENT_MESSAGE(message_id=10833*)
    → "But don't think that's the end of your trial. Something much more exciting will be waiting for you when you get back, if you know what I mean. Heh heh heh."
 14: 0x06A4 [0x23] WAIT_FOR_DIALOG_INTERACTION
 15: 0x06A5 [0x1D] PRINT_EVENT_MESSAGE(message_id=10835*)
    → "What the hell do you want? You're not done already, are you?"
 16: 0x06A8 [0x23] WAIT_FOR_DIALOG_INTERACTION
 17: 0x06A9 [0x24] CREATE_DIALOG(message_id=10851*, default_option=0*, option_flags=ExtData[1]->WorkLocal[0])
    → "Why are you here? [No particular reason./I've lost the $0./I want to quit this quest.]"
 18: 0x06B0 [0x25] WAIT_DIALOG_SELECT()
 19: 0x06B1 [0x02] IF !(Work_Zone[0] == 0*) GOTO 0x06D9
 20: 0x06B9 [0x1D] PRINT_EVENT_MESSAGE(message_id=10836*)
    → "Well, if that's all, then get the hell out of this cave and back out there on the battlefield!"
 21: 0x06BC [0x23] WAIT_FOR_DIALOG_INTERACTION
 22: 0x06BD [0x02] IF !(Work_Zone[8] == 1*) GOTO 0x06D6
 23: 0x06C5 [0x45] LOAD_SCHEDULED_TASK: Load scheduler "fdi2" with entities [LocalPlayer, LocalPlayer], work=[200*, 0*]
 24: 0x06D6 [0x01] GOTO 0x07F8
 25: 0x06D9 [0x02] IF !(Work_Zone[0] == 1*) GOTO 0x0751
 26: 0x06E1 [0x1A] CALL_SUBROUTINE(address=0x08D9)
 27: 0x06E4 [0x03] Work_Zone[1] = 1*
 28: 0x06E9 [0x1A] CALL_SUBROUTINE(address=0x0C28)
 29: 0x06EC [0x1D] PRINT_EVENT_MESSAGE(message_id=10837*)
    → "You lost the $0!?"
 30: 0x06EF [0x23] WAIT_FOR_DIALOG_INTERACTION
 31: 0x06F0 [0x1D] PRINT_EVENT_MESSAGE(message_id=10838*)
    → "Idiot! You had the perfect chance to learn a deadly new technique, and you've thrown it away! I've seen crabs with more brains than you. Get out of my face!"
 32: 0x06F3 [0x23] WAIT_FOR_DIALOG_INTERACTION
 33: 0x06F4 [0x66] LOAD_EXT_SCHEDULER_MAIN: Load scheduler "ten0" with entities [EventEntity, EventEntity], work=0*
 34: 0x0703 [0x53] WAIT_SCHEDULER_TASK: Wait for scheduler "ten0" with entities [EventEntity, EventEntity]
 35: 0x0710 [0x1C] WAIT(30* ticks)
 36: 0x0713 [0x1D] PRINT_EVENT_MESSAGE(message_id=10839*)
    → "Ha ha ha. I had you going there, didn't I? While I won't commend you on your stupidity, I will give you one more chance. But you screw up again and I'll..."
 37: 0x0716 [0x23] WAIT_FOR_DIALOG_INTERACTION
 38: 0x0717 [0x66] LOAD_EXT_SCHEDULER_MAIN: Load scheduler "pas0" with entities [EventEntity, EventEntity], work=0*
 39: 0x0726 [0x53] WAIT_SCHEDULER_TASK: Wait for scheduler "pas0" with entities [EventEntity, EventEntity]
 40: 0x0733 [0x1A] CALL_SUBROUTINE(address=0x0920)
 41: 0x0736 [0x6C] FADE_ENTITY_COLOR(entity_id=LocalPlayer, end_alpha=127*, fade_time=1*)
 42: 0x073F [0x52] END_LOAD_SCHEDULER: End scheduler "wn01" with entities [LocalPlayer, LocalPlayer], work=215*
 43: 0x074E [0x01] GOTO 0x07F8
 44: 0x0751 [0x02] IF !(Work_Zone[0] == 2*) GOTO 0x07F8
 45: 0x0759 [0x1D] PRINT_EVENT_MESSAGE(message_id=10840*)
    → "Quit? Did you whack your head on the grotto ceiling when you came in? You're not really thinking of giving up now, are you?"
 46: 0x075C [0x23] WAIT_FOR_DIALOG_INTERACTION
 47: 0x075D [0x24] CREATE_DIALOG(message_id=10852*, default_option=1*, option_flags=0*)
    → "Do you really want to quit? [Yes./No.]"
 48: 0x0764 [0x25] WAIT_DIALOG_SELECT()
 49: 0x0765 [0x02] IF !(Work_Zone[0] == 1*) GOTO 0x079F
 50: 0x076D [0x66] LOAD_EXT_SCHEDULER_MAIN: Load scheduler "poi0" with entities [EventEntity, EventEntity], work=3*
 51: 0x077C [0x1D] PRINT_EVENT_MESSAGE(message_id=10843*)
    → "If that was supposed to be funny, then don't go quitting your day job. This isn't a game, <Player>. Now get back to your training!"
 52: 0x077F [0x23] WAIT_FOR_DIALOG_INTERACTION
 53: 0x0780 [0x02] IF !(Work_Zone[8] == 1*) GOTO 0x0799
 54: 0x0788 [0x45] LOAD_SCHEDULED_TASK: Load scheduler "fdi2" with entities [LocalPlayer, LocalPlayer], work=[200*, 0*]
 55: 0x0799 [0x01] GOTO 0x07F8

SUBROUTINE_079F:
 56: 0x079F [0x1A] CALL_SUBROUTINE(address=0x08D9)
 57: 0x07A2 [0x03] Work_Zone[1] = 2*
 58: 0x07A7 [0x66] LOAD_EXT_SCHEDULER_MAIN: Load scheduler "thk1" with entities [EventEntity, EventEntity], work=0*
 59: 0x07B6 [0x53] WAIT_SCHEDULER_TASK: Wait for scheduler "thk1" with entities [EventEntity, EventEntity]
 60: 0x07C3 [0x1D] PRINT_EVENT_MESSAGE(message_id=10841*)
    → "Unbelievable. I thought that you had more in you than that... Well, you can hand me back the $3 I gave you."
 61: 0x07C6 [0x23] WAIT_FOR_DIALOG_INTERACTION
 62: 0x07C7 [0x66] LOAD_EXT_SCHEDULER_MAIN: Load scheduler "thk2" with entities [EventEntity, EventEntity], work=0*
 63: 0x07D6 [0x1D] PRINT_EVENT_MESSAGE(message_id=10842*)
    → "As for that $0, it's nothing but a piece of junk now. Sell it, throw it away, I could give a damn what you do with it."
 64: 0x07D9 [0x23] WAIT_FOR_DIALOG_INTERACTION
 65: 0x07DA [0x1A] CALL_SUBROUTINE(address=0x0920)
 66: 0x07DD [0x6C] FADE_ENTITY_COLOR(entity_id=LocalPlayer, end_alpha=127*, fade_time=1*)
 67: 0x07E6 [0x52] END_LOAD_SCHEDULER: End scheduler "wn01" with entities [LocalPlayer, LocalPlayer], work=215*
 68: 0x07F5 [0x01] GOTO 0x07F8

SUBROUTINE_07F8:
 69: 0x07F8 [0x21] END_EVENT
 70: 0x07F9 [0x00] END_REQSTACK()
```

#### Data or dead code:

```
# Dead code (unreachable instructions):
     0x079C [0x01] GOTO 0x079F
```

### Event 186

#### Metadata

| Field        | Value    |
|--------------|----------|
| Entrypoint   | 0x07FA   |
| Data Size    | 37 bytes |
| Instructions | 7        |

```
      00 01 02 03 04 05 06 07  08 09 0A 0B 0C 0D 0E 0F
      -- -- -- -- -- -- -- --  -- -- -- -- -- -- -- --
07F0:                                1A 1A 0C 1D 3E 80            ....>.
0800: 23 66 03 80 F8 FF FF 7F  F8 FF FF 7F 70 61 73 30  #f..........pas0
0810: 53 F8 FF FF 7F F8 FF FF  7F 70 61 73 30 21 00     S........pas0!. 
```

#### Opcodes

```
  0: 0x07FA [0x1A] CALL_SUBROUTINE(address=0x0C1A)
  1: 0x07FD [0x1D] PRINT_EVENT_MESSAGE(message_id=10844*)
    → "Don't tell me you think that you've trained enough. Get your feet out of your ears and take a closer listen to the blade. It'll tell you when it's time to come back."
  2: 0x0800 [0x23] WAIT_FOR_DIALOG_INTERACTION
  3: 0x0801 [0x66] LOAD_EXT_SCHEDULER_MAIN: Load scheduler "pas0" with entities [EventEntity, EventEntity], work=0*
  4: 0x0810 [0x53] WAIT_SCHEDULER_TASK: Wait for scheduler "pas0" with entities [EventEntity, EventEntity]
  5: 0x081D [0x21] END_EVENT
  6: 0x081E [0x00] END_REQSTACK()
```

### Event 187

#### Metadata

| Field        | Value    |
|--------------|----------|
| Entrypoint   | 0x081F   |
| Data Size    | 73 bytes |
| Instructions | 13       |

```
      00 01 02 03 04 05 06 07  08 09 0A 0B 0C 0D 0E 0F
      -- -- -- -- -- -- -- --  -- -- -- -- -- -- -- --
0810:                                               1A                 .
0820: D9 08 03 02 10 3F 80 1D  40 80 23 66 03 80 F8 FF  .....?..@.#f....
0830: FF 7F F8 FF FF 7F 70 61  73 30 1D 41 80 23 53 F8  ......pas0.A.#S.
0840: FF FF 7F F8 FF FF 7F 70  61 73 30 1A 20 09 6C F0  .......pas0. .l.
0850: FF FF 7F 2B 80 21 80 52  2A 80 F0 FF FF 7F F0 FF  ...+.!.R*.......
0860: FF 7F 77 6E 30 31 21 00                           ..wn01!.        
```

#### Opcodes

```
  0: 0x081F [0x1A] CALL_SUBROUTINE(address=0x08D9)
  1: 0x0822 [0x03] Work_Zone[2] = 344*
  2: 0x0827 [0x1D] PRINT_EVENT_MESSAGE(message_id=10845*)
    → "Well, it's about time. I never had any doubt in you, <Player>."
  3: 0x082A [0x23] WAIT_FOR_DIALOG_INTERACTION
  4: 0x082B [0x66] LOAD_EXT_SCHEDULER_MAIN: Load scheduler "pas0" with entities [EventEntity, EventEntity], work=0*
  5: 0x083A [0x1D] PRINT_EVENT_MESSAGE(message_id=10846*)
    → "Now take this $3 and head for the Labyrinth of Onzozo. It won't be a cakewalk, but I bet you already knew that."
  6: 0x083D [0x23] WAIT_FOR_DIALOG_INTERACTION
  7: 0x083E [0x53] WAIT_SCHEDULER_TASK: Wait for scheduler "pas0" with entities [EventEntity, EventEntity]
  8: 0x084B [0x1A] CALL_SUBROUTINE(address=0x0920)
  9: 0x084E [0x6C] FADE_ENTITY_COLOR(entity_id=LocalPlayer, end_alpha=127*, fade_time=1*)
 10: 0x0857 [0x52] END_LOAD_SCHEDULER: End scheduler "wn01" with entities [LocalPlayer, LocalPlayer], work=215*
 11: 0x0866 [0x21] END_EVENT
 12: 0x0867 [0x00] END_REQSTACK()
```

### Event 188

#### Metadata

| Field        | Value    |
|--------------|----------|
| Entrypoint   | 0x0868   |
| Data Size    | 42 bytes |
| Instructions | 8        |

```
      00 01 02 03 04 05 06 07  08 09 0A 0B 0C 0D 0E 0F
      -- -- -- -- -- -- -- --  -- -- -- -- -- -- -- --
0860:                          1A 1A 0C 03 02 10 3F 80          ......?.
0870: 66 03 80 F8 FF FF 7F F8  FF FF 7F 64 69 73 30 1D  f..........dis0.
0880: 42 80 23 53 F8 FF FF 7F  F8 FF FF 7F 64 69 73 30  B.#S........dis0
0890: 21 00                                             !.              
```

#### Opcodes

```
  0: 0x0868 [0x1A] CALL_SUBROUTINE(address=0x0C1A)
  1: 0x086B [0x03] Work_Zone[2] = 344*
  2: 0x0870 [0x66] LOAD_EXT_SCHEDULER_MAIN: Load scheduler "dis0" with entities [EventEntity, EventEntity], work=0*
  3: 0x087F [0x1D] PRINT_EVENT_MESSAGE(message_id=10847*)
    → "Don't make me repeat myself! You know what you have to do down there in the Labyrinth of Onzozo. Now get off your butt and do it!"
  4: 0x0882 [0x23] WAIT_FOR_DIALOG_INTERACTION
  5: 0x0883 [0x53] WAIT_SCHEDULER_TASK: Wait for scheduler "dis0" with entities [EventEntity, EventEntity]
  6: 0x0890 [0x21] END_EVENT
  7: 0x0891 [0x00] END_REQSTACK()
```

### Event 189

#### Metadata

| Field        | Value      |
|--------------|------------|
| Entrypoint   | 0x0892     |
| Data Size    | 1126 bytes |
| Instructions | 40         |

```
      00 01 02 03 04 05 06 07  08 09 0A 0B 0C 0D 0E 0F
      -- -- -- -- -- -- -- --  -- -- -- -- -- -- -- --
0890:       1A 3A 09 6E F8 FF  FF 7F 43 80 99 F8 FF FF    .:.n....C.....
08A0: 7F 1D 44 80 23 99 F8 FF  FF 7F 1A 20 09 6C F0 FF  ..D.#...... .l..
08B0: FF 7F 2B 80 21 80 96 52  2A 80 F0 FF FF 7F F0 FF  ..+.!..R*.......
08C0: FF 7F 77 6E 30 31 45 13  80 F0 FF FF 7F F0 FF FF  ..wn01E.........
08D0: 7F 71 73 74 63 03 80 21  00 42 1A EC 09 46 01 38  .qstc..!.B...F.8
08E0: 45 80 29 10 F0 FF FF 7F  25 80 F0 FF FF 7F 1C 21  E.).....%......!
08F0: 80 6C F0 FF FF 7F 03 80  21 80 45 2A 80 F0 FF FF  .l......!.E*....
0900: 7F F0 FF FF 7F 77 6E 30  31 03 80 45 02 80 F0 FF  .....wn01..E....
0910: FF 7F F0 FF FF 7F 66 64  69 32 03 80 1A 1A 0C 1B  ......fdi2......
0920: 1A EC 09 1C 36 80 46 00  45 02 80 F0 FF FF 7F F0  ....6.F.E.......
0930: FF FF 7F 66 64 69 32 03  80 1B 42 1A EC 09 46 01  ...fdi2...B...F.
0940: 38 45 80 29 10 F0 FF FF  7F 25 80 F0 FF FF 7F 1C  8E.).....%......
0950: 21 80 6C F0 FF FF 7F 03  80 21 80 1A 1A 0C 95 03  !.l......!......
0960: 80 80 F8 FF FF 7F 45 2A  80 F0 FF FF 7F F0 FF FF  ......E*........
0970: 7F 77 6E 30 31 03 80 45  02 80 F0 FF FF 7F F0 FF  .wn01..E........
0980: FF 7F 66 64 69 32 03 80  1B 45 02 80 F0 FF FF 7F  ..fdi2...E......
0990: F0 FF FF 7F 66 64 69 30  03 80 55 02 80 F0 FF FF  ....fdi0..U.....
09A0: 7F F0 FF FF 7F 66 64 69  30 1B 45 02 80 F0 FF FF  .....fdi0.E.....
09B0: 7F F0 FF FF 7F 66 64 6F  30 03 80 55 02 80 F0 FF  .....fdo0..U....
09C0: FF 7F F0 FF FF 7F 66 64  6F 30 1B 45 02 80 F0 FF  ......fdo0.E....
09D0: FF 7F F0 FF FF 7F 66 64  69 31 03 80 55 02 80 F0  ......fdi1..U...
09E0: FF FF 7F F0 FF FF 7F 66  64 69 31 1B 45 02 80 F0  .......fdi1.E...
09F0: FF FF 7F F0 FF FF 7F 66  64 6F 31 03 80 55 02 80  .......fdo1..U..
0A00: F0 FF FF 7F F0 FF FF 7F  66 64 6F 31 1B 45 13 80  ........fdo1.E..
0A10: F0 FF FF 7F F0 FF FF 7F  77 68 69 31 03 80 55 13  ........whi1..U.
0A20: 80 F0 FF FF 7F F0 FF FF  7F 77 68 69 31 1B 45 13  .........whi1.E.
0A30: 80 F0 FF FF 7F F0 FF FF  7F 77 68 6F 31 03 80 55  .........who1..U
0A40: 13 80 F0 FF FF 7F F0 FF  FF 7F 77 68 6F 31 1B 45  ..........who1.E
0A50: 13 80 F0 FF FF 7F F0 FF  FF 7F 77 68 6F 32 03 80  ..........who2..
0A60: 55 13 80 F0 FF FF 7F F0  FF FF 7F 77 68 6F 32 1B  U..........who2.
0A70: 45 13 80 F0 FF FF 7F F0  FF FF 7F 77 68 6F 33 03  E..........who3.
0A80: 80 55 13 80 F0 FF FF 7F  F0 FF FF 7F 77 68 6F 33  .U..........who3
0A90: 1B 62 21 80 F0 FF FF 7F  F0 FF FF 7F 6D 61 69 6E  .b!.........main
0AA0: 03 80 1C 46 80 45 02 80  F0 FF FF 7F F0 FF FF 7F  ...F.E..........
0AB0: 66 64 6F 31 03 80 55 02  80 F0 FF FF 7F F0 FF FF  fdo1..U.........
0AC0: 7F 66 64 6F 31 1B 45 02  80 F0 FF FF 7F F0 FF FF  .fdo1.E.........
0AD0: 7F 66 64 69 31 03 80 62  38 80 F0 FF FF 7F F0 FF  .fdi1..b8.......
0AE0: FF 7F 6D 61 69 6E 03 80  1C 36 80 55 02 80 F0 FF  ..main...6.U....
0AF0: FF 7F F0 FF FF 7F 66 64  69 31 1B 45 02 80 F0 FF  ......fdi1.E....
0B00: FF 7F F0 FF FF 7F 62 6C  6F 6E 03 80 45 13 80 F0  ......blon..E...
0B10: FF FF 7F F0 FF FF 7F 62  6C 6F 6E 03 80 1B 45 13  .......blon...E.
0B20: 80 F0 FF FF 7F F0 FF FF  7F 77 68 69 30 03 80 55  .........whi0..U
0B30: 13 80 F0 FF FF 7F F0 FF  FF 7F 77 68 69 30 1B 45  ..........whi0.E
0B40: 13 80 F0 FF FF 7F F0 FF  FF 7F 77 68 6F 30 03 80  ..........who0..
0B50: 55 13 80 F0 FF FF 7F F0  FF FF 7F 77 68 6F 30 1B  U..........who0.
0B60: 45 2A 80 F0 FF FF 7F F0  FF FF 7F 65 66 6F 6E 03  E*.........efon.
0B70: 80 55 2A 80 F0 FF FF 7F  F0 FF FF 7F 65 66 6F 6E  .U*.........efon
0B80: 1B 45 02 80 F0 FF FF 7F  F0 FF FF 7F 66 64 69 73  .E..........fdis
0B90: 03 80 1B 45 02 80 F0 FF  FF 7F F0 FF FF 7F 66 64  ...E..........fd
0BA0: 6F 73 03 80 55 02 80 F0  FF FF 7F F0 FF FF 7F 66  os..U..........f
0BB0: 64 6F 73 1B 45 02 80 F0  FF FF 7F F0 FF FF 7F 66  dos.E..........f
0BC0: 64 69 66 03 80 1B 45 02  80 F0 FF FF 7F F0 FF FF  dif...E.........
0BD0: 7F 66 64 6F 66 03 80 55  02 80 F0 FF FF 7F F0 FF  .fdof..U........
0BE0: FF 7F 66 64 6F 66 1B 45  02 80 F0 FF FF 7F F0 FF  ..fdof.E........
0BF0: FF 7F 66 64 69 70 03 80  1B 45 02 80 F0 FF FF 7F  ..fdip...E......
0C00: F0 FF FF 7F 66 64 6F 70  03 80 55 02 80 F0 FF FF  ....fdop..U.....
0C10: 7F F0 FF FF 7F 66 64 6F  70 1B 86 00 F8 FF FF 7F  .....fdop.......
0C20: 1E F0 FF FF 7F 6F 70 1B  66 03 80 F8 FF FF 7F F8  .....op.f.......
0C30: FF FF 7F 74 6C 6B 30 1B  66 03 80 F8 FF FF 7F F8  ...tlk0.f.......
0C40: FF FF 7F 74 6C 6B 31 1B  66 47 80 F8 FF FF 7F F8  ...tlk1.fG......
0C50: FF FF 7F 74 6C 6B 30 1B  66 48 80 F8 FF FF 7F F8  ...tlk0.fH......
0C60: FF FF 7F 74 6C 6B 30 1B  66 36 80 F8 FF FF 7F F8  ...tlk0.f6......
0C70: FF FF 7F 74 6C 6B 30 1B  66 49 80 F8 FF FF 7F F8  ...tlk0.fI......
0C80: FF FF 7F 74 6C 6B 30 1B  66 4A 80 F8 FF FF 7F F8  ...tlk0.fJ......
0C90: FF FF 7F 74 6C 6B 30 1B  66 4B 80 F8 FF FF 7F F8  ...tlk0.fK......
0CA0: FF FF 7F 74 6C 6B 30 1B  5B 4C 80 F8 FF FF 7F F8  ...tlk0.[L......
0CB0: FF FF 7F 74 6C 6B 30 1B  5B 4D 80 F8 FF FF 7F F8  ...tlk0.[M......
0CC0: FF FF 7F 74 6C 6B 30 1B  5B 4E 80 F8 FF FF 7F F8  ...tlk0.[N......
0CD0: FF FF 7F 74 6C 6B 30 1B  5B 4F 80 F8 FF FF 7F F8  ...tlk0.[O......
0CE0: FF FF 7F 74 6C 6B 30 1B  5B 4B 80 F8 FF FF 7F F8  ...tlk0.[K......
0CF0: FF FF 7F 74 6C 62 30 1B                           ...tlb0.        
```

#### Opcodes

```
  0: 0x0892 [0x1A] CALL_SUBROUTINE(address=0x093A)
  1: 0x0895 [0x6E] EventEntity uses emote 4*
  2: 0x089C [0x99] Wait for EventEntity animation to complete
  3: 0x08A1 [0x1D] PRINT_EVENT_MESSAGE(message_id=10848*)
    → "Well, what do you know! If you could whip that monster, you should have no problem using any of the deadly katana techniques. I'd take off my hat to you...if I wore one. Ha ha ha."
  4: 0x08A4 [0x23] WAIT_FOR_DIALOG_INTERACTION
  5: 0x08A5 [0x99] Wait for EventEntity animation to complete
  6: 0x08AA [0x1A] CALL_SUBROUTINE(address=0x0920)
  7: 0x08AD [0x6C] FADE_ENTITY_COLOR(entity_id=LocalPlayer, end_alpha=127*, fade_time=1*)
  8: 0x08B6 [0x96] UNSET_EVENT_NPC: Restore NPC after event (removes event NPC status)
  9: 0x08B7 [0x52] END_LOAD_SCHEDULER: End scheduler "wn01" with entities [LocalPlayer, LocalPlayer], work=215*
 10: 0x08C6 [0x45] LOAD_SCHEDULED_TASK: Load scheduler "qstc" with entities [LocalPlayer, LocalPlayer], work=[201*, 0*]
 11: 0x08D7 [0x21] END_EVENT
 12: 0x08D8 [0x00] END_REQSTACK()

SUBROUTINE_0920:
 13: 0x0920 [0x1A] CALL_SUBROUTINE(address=0x09EC)
 14: 0x0923 [0x1C] WAIT(30* ticks)
 15: 0x0926 [0x46] CAMERA_CONTROL: Restore default settings
 16: 0x0928 [0x45] LOAD_SCHEDULED_TASK: Load scheduler "fdi2" with entities [LocalPlayer, LocalPlayer], work=[200*, 0*]
 17: 0x0939 [0x1B] RETURN

SUBROUTINE_093A:
 18: 0x093A [0x42] SET_CLI_EVENT_CANCEL_DATA()
 19: 0x093B [0x1A] CALL_SUBROUTINE(address=0x09EC)
 20: 0x093E [0x46] CAMERA_CONTROL: Disable user control
 21: 0x0940 [0x38] SET_CLIENT_EVENT_MODE(mode=19*)
 22: 0x0943 [0x29] REQ_SET_WAIT(priority=0x10, entity_id=LocalPlayer, tag_num=0x25)
 23: 0x094A [0x80] LOAD_WAIT(entity=LocalPlayer)
 24: 0x094F [0x1C] WAIT(1* ticks)
 25: 0x0952 [0x6C] FADE_ENTITY_COLOR(entity_id=LocalPlayer, end_alpha=0*, fade_time=1*)
 26: 0x095B [0x1A] CALL_SUBROUTINE(address=0x0C1A)
 27: 0x095E [0x95] SETUP_EVENT_NPC: Prepare NPC for event (Render.Flags3 = 0*)
 28: 0x0961 [0x80] LOAD_WAIT(entity=EventEntity)
 29: 0x0966 [0x45] LOAD_SCHEDULED_TASK: Load scheduler "wn01" with entities [LocalPlayer, LocalPlayer], work=[215*, 0*]
 30: 0x0977 [0x45] LOAD_SCHEDULED_TASK: Load scheduler "fdi2" with entities [LocalPlayer, LocalPlayer], work=[200*, 0*]
 31: 0x0988 [0x1B] RETURN

SUBROUTINE_09EC:
 32: 0x09EC [0x45] LOAD_SCHEDULED_TASK: Load scheduler "fdo1" with entities [LocalPlayer, LocalPlayer], work=[200*, 0*]
 33: 0x09FD [0x55] WAIT_LOAD_SCHEDULER: Wait for scheduler "fdo1" with entities [LocalPlayer, LocalPlayer], work=200*
 34: 0x0A0C [0x1B] RETURN

SUBROUTINE_0C1A:
 35: 0x0C1A [0x86] EventEntity->Render.Flags3 = Flags3  // No change (flag=0)
 36: 0x0C20 [0x1E] EventEntity looks at LocalPlayer and starts talking
 37: 0x0C25 [0x6F] WAIT_FRAME_DELAY: Yield until WaitTime reaches zero
 38: 0x0C26 [0x70] WAIT_ENTITY_RENDER_FLAG: Wait while EventEntity->Render.Flags3 bit 2 is set (cancel turn if not)
 39: 0x0C27 [0x1B] RETURN
```

#### Data or dead code:

```
# Dead code (unreachable instructions):
     0x08D9 [0x42] SET_CLI_EVENT_CANCEL_DATA()
     0x08DA [0x1A] CALL_SUBROUTINE(address=0x09EC)
     0x08DD [0x46] CAMERA_CONTROL: Disable user control
     0x08DF [0x38] SET_CLIENT_EVENT_MODE(mode=19*)
     0x08E2 [0x29] REQ_SET_WAIT(priority=0x10, entity_id=LocalPlayer, tag_num=0x25)
     0x08E9 [0x80] LOAD_WAIT(entity=LocalPlayer)
     0x08EE [0x1C] WAIT(1* ticks)
     0x08F1 [0x6C] FADE_ENTITY_COLOR(entity_id=LocalPlayer, end_alpha=0*, fade_time=1*)
     0x08FA [0x45] LOAD_SCHEDULED_TASK: Load scheduler "wn01" with entities [LocalPlayer, LocalPlayer], work=[215*, 0*]
     0x090B [0x45] LOAD_SCHEDULED_TASK: Load scheduler "fdi2" with entities [LocalPlayer, LocalPlayer], work=[200*, 0*]
     0x091C [0x1A] CALL_SUBROUTINE(address=0x0C1A)
     0x091F [0x1B] RETURN
# Dead code (unreachable instructions):
     0x0989 [0x45] LOAD_SCHEDULED_TASK: Load scheduler "fdi0" with entities [LocalPlayer, LocalPlayer], work=[200*, 0*]
     0x099A [0x55] WAIT_LOAD_SCHEDULER: Wait for scheduler "fdi0" with entities [LocalPlayer, LocalPlayer], work=200*
     0x09A9 [0x1B] RETURN
     0x09AA [0x45] LOAD_SCHEDULED_TASK: Load scheduler "fdo0" with entities [LocalPlayer, LocalPlayer], work=[200*, 0*]
     0x09BB [0x55] WAIT_LOAD_SCHEDULER: Wait for scheduler "fdo0" with entities [LocalPlayer, LocalPlayer], work=200*
     0x09CA [0x1B] RETURN
     0x09CB [0x45] LOAD_SCHEDULED_TASK: Load scheduler "fdi1" with entities [LocalPlayer, LocalPlayer], work=[200*, 0*]
     0x09DC [0x55] WAIT_LOAD_SCHEDULER: Wait for scheduler "fdi1" with entities [LocalPlayer, LocalPlayer], work=200*
     0x09EB [0x1B] RETURN
# Dead code (unreachable instructions):
     0x0A0D [0x45] LOAD_SCHEDULED_TASK: Load scheduler "whi1" with entities [LocalPlayer, LocalPlayer], work=[201*, 0*]
     0x0A1E [0x55] WAIT_LOAD_SCHEDULER: Wait for scheduler "whi1" with entities [LocalPlayer, LocalPlayer], work=201*
     0x0A2D [0x1B] RETURN
     0x0A2E [0x45] LOAD_SCHEDULED_TASK: Load scheduler "who1" with entities [LocalPlayer, LocalPlayer], work=[201*, 0*]
     0x0A3F [0x55] WAIT_LOAD_SCHEDULER: Wait for scheduler "who1" with entities [LocalPlayer, LocalPlayer], work=201*
     0x0A4E [0x1B] RETURN
     0x0A4F [0x45] LOAD_SCHEDULED_TASK: Load scheduler "who2" with entities [LocalPlayer, LocalPlayer], work=[201*, 0*]
     0x0A60 [0x55] WAIT_LOAD_SCHEDULER: Wait for scheduler "who2" with entities [LocalPlayer, LocalPlayer], work=201*
     0x0A6F [0x1B] RETURN
     0x0A70 [0x45] LOAD_SCHEDULED_TASK: Load scheduler "who3" with entities [LocalPlayer, LocalPlayer], work=[201*, 0*]
     0x0A81 [0x55] WAIT_LOAD_SCHEDULER: Wait for scheduler "who3" with entities [LocalPlayer, LocalPlayer], work=201*
     0x0A90 [0x1B] RETURN
     0x0A91 [0x62] LOAD_EVENT_SCHEDULER: Load scheduler "main" with entities [LocalPlayer, LocalPlayer], work=[1*, 0*]
     0x0AA2 [0x1C] WAIT(45* ticks)
     0x0AA5 [0x45] LOAD_SCHEDULED_TASK: Load scheduler "fdo1" with entities [LocalPlayer, LocalPlayer], work=[200*, 0*]
     0x0AB6 [0x55] WAIT_LOAD_SCHEDULER: Wait for scheduler "fdo1" with entities [LocalPlayer, LocalPlayer], work=200*
     0x0AC5 [0x1B] RETURN
     0x0AC6 [0x45] LOAD_SCHEDULED_TASK: Load scheduler "fdi1" with entities [LocalPlayer, LocalPlayer], work=[200*, 0*]
     0x0AD7 [0x62] LOAD_EVENT_SCHEDULER: Load scheduler "main" with entities [LocalPlayer, LocalPlayer], work=[2*, 0*]
     0x0AE8 [0x1C] WAIT(30* ticks)
     0x0AEB [0x55] WAIT_LOAD_SCHEDULER: Wait for scheduler "fdi1" with entities [LocalPlayer, LocalPlayer], work=200*
     0x0AFA [0x1B] RETURN
     0x0AFB [0x45] LOAD_SCHEDULED_TASK: Load scheduler "blon" with entities [LocalPlayer, LocalPlayer], work=[200*, 0*]
     0x0B0C [0x45] LOAD_SCHEDULED_TASK: Load scheduler "blon" with entities [LocalPlayer, LocalPlayer], work=[201*, 0*]
     0x0B1D [0x1B] RETURN
     0x0B1E [0x45] LOAD_SCHEDULED_TASK: Load scheduler "whi0" with entities [LocalPlayer, LocalPlayer], work=[201*, 0*]
     0x0B2F [0x55] WAIT_LOAD_SCHEDULER: Wait for scheduler "whi0" with entities [LocalPlayer, LocalPlayer], work=201*
     0x0B3E [0x1B] RETURN
     0x0B3F [0x45] LOAD_SCHEDULED_TASK: Load scheduler "who0" with entities [LocalPlayer, LocalPlayer], work=[201*, 0*]
     0x0B50 [0x55] WAIT_LOAD_SCHEDULER: Wait for scheduler "who0" with entities [LocalPlayer, LocalPlayer], work=201*
     0x0B5F [0x1B] RETURN
     0x0B60 [0x45] LOAD_SCHEDULED_TASK: Load scheduler "efon" with entities [LocalPlayer, LocalPlayer], work=[215*, 0*]
     0x0B71 [0x55] WAIT_LOAD_SCHEDULER: Wait for scheduler "efon" with entities [LocalPlayer, LocalPlayer], work=215*
     0x0B80 [0x1B] RETURN
     0x0B81 [0x45] LOAD_SCHEDULED_TASK: Load scheduler "fdis" with entities [LocalPlayer, LocalPlayer], work=[200*, 0*]
     0x0B92 [0x1B] RETURN
     0x0B93 [0x45] LOAD_SCHEDULED_TASK: Load scheduler "fdos" with entities [LocalPlayer, LocalPlayer], work=[200*, 0*]
     0x0BA4 [0x55] WAIT_LOAD_SCHEDULER: Wait for scheduler "fdos" with entities [LocalPlayer, LocalPlayer], work=200*
     0x0BB3 [0x1B] RETURN
     0x0BB4 [0x45] LOAD_SCHEDULED_TASK: Load scheduler "fdif" with entities [LocalPlayer, LocalPlayer], work=[200*, 0*]
     0x0BC5 [0x1B] RETURN
     0x0BC6 [0x45] LOAD_SCHEDULED_TASK: Load scheduler "fdof" with entities [LocalPlayer, LocalPlayer], work=[200*, 0*]
     0x0BD7 [0x55] WAIT_LOAD_SCHEDULER: Wait for scheduler "fdof" with entities [LocalPlayer, LocalPlayer], work=200*
     0x0BE6 [0x1B] RETURN
     0x0BE7 [0x45] LOAD_SCHEDULED_TASK: Load scheduler "fdip" with entities [LocalPlayer, LocalPlayer], work=[200*, 0*]
     0x0BF8 [0x1B] RETURN
     0x0BF9 [0x45] LOAD_SCHEDULED_TASK: Load scheduler "fdop" with entities [LocalPlayer, LocalPlayer], work=[200*, 0*]
     0x0C0A [0x55] WAIT_LOAD_SCHEDULER: Wait for scheduler "fdop" with entities [LocalPlayer, LocalPlayer], work=200*
     0x0C19 [0x1B] RETURN
# Dead code (unreachable instructions):
     0x0C28 [0x66] LOAD_EXT_SCHEDULER_MAIN: Load scheduler "tlk0" with entities [EventEntity, EventEntity], work=0*
     0x0C37 [0x1B] RETURN
     0x0C38 [0x66] LOAD_EXT_SCHEDULER_MAIN: Load scheduler "tlk1" with entities [EventEntity, EventEntity], work=0*
     0x0C47 [0x1B] RETURN
     0x0C48 [0x66] LOAD_EXT_SCHEDULER_MAIN: Load scheduler "tlk0" with entities [EventEntity, EventEntity], work=10*
     0x0C57 [0x1B] RETURN
     0x0C58 [0x66] LOAD_EXT_SCHEDULER_MAIN: Load scheduler "tlk0" with entities [EventEntity, EventEntity], work=20*
     0x0C67 [0x1B] RETURN
     0x0C68 [0x66] LOAD_EXT_SCHEDULER_MAIN: Load scheduler "tlk0" with entities [EventEntity, EventEntity], work=30*
     0x0C77 [0x1B] RETURN
     0x0C78 [0x66] LOAD_EXT_SCHEDULER_MAIN: Load scheduler "tlk0" with entities [EventEntity, EventEntity], work=40*
     0x0C87 [0x1B] RETURN
     0x0C88 [0x66] LOAD_EXT_SCHEDULER_MAIN: Load scheduler "tlk0" with entities [EventEntity, EventEntity], work=50*
     0x0C97 [0x1B] RETURN
     0x0C98 [0x66] LOAD_EXT_SCHEDULER_MAIN: Load scheduler "tlk0" with entities [EventEntity, EventEntity], work=60*
     0x0CA7 [0x1B] RETURN
     0x0CA8 [0x5B] LOAD_EXT_SCHEDULER: Load scheduler "tlk0" with entities [EventEntity, EventEntity], work=5*
     0x0CB7 [0x1B] RETURN
     0x0CB8 [0x5B] LOAD_EXT_SCHEDULER: Load scheduler "tlk0" with entities [EventEntity, EventEntity], work=80*
     0x0CC7 [0x1B] RETURN
     0x0CC8 [0x5B] LOAD_EXT_SCHEDULER: Load scheduler "tlk0" with entities [EventEntity, EventEntity], work=238*
     0x0CD7 [0x1B] RETURN
     0x0CD8 [0x5B] LOAD_EXT_SCHEDULER: Load scheduler "tlk0" with entities [EventEntity, EventEntity], work=566*
     0x0CE7 [0x1B] RETURN
     0x0CE8 [0x5B] LOAD_EXT_SCHEDULER: Load scheduler "tlb0" with entities [EventEntity, EventEntity], work=60*
     0x0CF7 [0x1B] RETURN
```
