# 17809511 - Hayris

## Common Data

| Field            | Value          |
|------------------|----------------|
| Zone             | Norg (ID: 252) |
| Block Size       | 108 bytes      |
| Total Events     | 6              |
| References Count | 3              |

## List of Events

| Event ID              | Entrypoint   |   Size |   Instructions |
|-----------------------|--------------|--------|----------------|
| [65535](#event-65535) | 0x0000       |      1 |              1 |
| [209](#event-209)     | 0x0001       |      1 |              1 |
| [210](#event-210)     | 0x0002       |      1 |              1 |
| [215](#event-215)     | 0x0003       |     17 |              7 |
| [216](#event-216)     | 0x0014       |     17 |              7 |
| [217](#event-217)     | 0x0025       |     17 |              7 |

## DAT References (imed_data)

|   Index | Hex Value   |   Dec Value |
|---------|-------------|-------------|
|       0 | 0x2B5F      |       11103 |
|       1 | 0x2B72      |       11122 |
|       2 | 0x2B9B      |       11163 |

## Events

### Event 65535

#### Metadata

| Field        | Value   |
|--------------|---------|
| Entrypoint   | 0x0000  |
| Data Size    | 1 bytes |
| Instructions | 1       |

```
      00 01 02 03 04 05 06 07  08 09 0A 0B 0C 0D 0E 0F
      -- -- -- -- -- -- -- --  -- -- -- -- -- -- -- --
0000: 00                                                .               
```

#### Opcodes

```
  0: 0x0000 [0x00] END_REQSTACK()
```

### Event 209

#### Metadata

| Field        | Value   |
|--------------|---------|
| Entrypoint   | 0x0001  |
| Data Size    | 1 bytes |
| Instructions | 1       |

```
      00 01 02 03 04 05 06 07  08 09 0A 0B 0C 0D 0E 0F
      -- -- -- -- -- -- -- --  -- -- -- -- -- -- -- --
0000:    00                                              .              
```

#### Opcodes

```
  0: 0x0001 [0x00] END_REQSTACK()
```

### Event 210

#### Metadata

| Field        | Value   |
|--------------|---------|
| Entrypoint   | 0x0002  |
| Data Size    | 1 bytes |
| Instructions | 1       |

```
      00 01 02 03 04 05 06 07  08 09 0A 0B 0C 0D 0E 0F
      -- -- -- -- -- -- -- --  -- -- -- -- -- -- -- --
0000:       00                                            .             
```

#### Opcodes

```
  0: 0x0002 [0x00] END_REQSTACK()
```

### Event 215

#### Metadata

| Field        | Value    |
|--------------|----------|
| Entrypoint   | 0x0003   |
| Data Size    | 17 bytes |
| Instructions | 7        |

```
      00 01 02 03 04 05 06 07  08 09 0A 0B 0C 0D 0E 0F
      -- -- -- -- -- -- -- --  -- -- -- -- -- -- -- --
0000:          1E F0 FF FF 7F  6F 70 2B 67 C0 0F 01 00     .....op+g....
0010: 80 23 21 00                                       .#!.            
```

#### Opcodes

```
  0: 0x0003 [0x1E] EventEntity looks at LocalPlayer and starts talking
  1: 0x0008 [0x6F] WAIT_FRAME_DELAY: Yield until WaitTime reaches zero
  2: 0x0009 [0x70] WAIT_ENTITY_RENDER_FLAG: Wait while EventEntity->Render.Flags3 bit 2 is set (cancel turn if not)
  3: 0x000A [0x2B] Hayris (ID: 17809511/0x010FC067) [11103*]:
    → "I bet ya never seen the likes o' this brew, have ya?"
  4: 0x0011 [0x23] WAIT_FOR_DIALOG_INTERACTION
  5: 0x0012 [0x21] END_EVENT
  6: 0x0013 [0x00] END_REQSTACK()
```

### Event 216

#### Metadata

| Field        | Value    |
|--------------|----------|
| Entrypoint   | 0x0014   |
| Data Size    | 17 bytes |
| Instructions | 7        |

```
      00 01 02 03 04 05 06 07  08 09 0A 0B 0C 0D 0E 0F
      -- -- -- -- -- -- -- --  -- -- -- -- -- -- -- --
0010:             1E F0 FF FF  7F 6F 70 2B 67 C0 0F 01      .....op+g...
0020: 01 80 23 21 00                                    ..#!.           
```

#### Opcodes

```
  0: 0x0014 [0x1E] EventEntity looks at LocalPlayer and starts talking
  1: 0x0019 [0x6F] WAIT_FRAME_DELAY: Yield until WaitTime reaches zero
  2: 0x001A [0x70] WAIT_ENTITY_RENDER_FLAG: Wait while EventEntity->Render.Flags3 bit 2 is set (cancel turn if not)
  3: 0x001B [0x2B] Hayris (ID: 17809511/0x010FC067) [11122*]:
    → "Arrgh, let's see what yer made of, adventurer."
  4: 0x0022 [0x23] WAIT_FOR_DIALOG_INTERACTION
  5: 0x0023 [0x21] END_EVENT
  6: 0x0024 [0x00] END_REQSTACK()
```

### Event 217

#### Metadata

| Field        | Value    |
|--------------|----------|
| Entrypoint   | 0x0025   |
| Data Size    | 17 bytes |
| Instructions | 7        |

```
      00 01 02 03 04 05 06 07  08 09 0A 0B 0C 0D 0E 0F
      -- -- -- -- -- -- -- --  -- -- -- -- -- -- -- --
0020:                1E F0 FF  FF 7F 6F 70 2B 67 C0 0F       .....op+g..
0030: 01 02 80 23 21 00                                 ...#!.          
```

#### Opcodes

```
  0: 0x0025 [0x1E] EventEntity looks at LocalPlayer and starts talking
  1: 0x002A [0x6F] WAIT_FRAME_DELAY: Yield until WaitTime reaches zero
  2: 0x002B [0x70] WAIT_ENTITY_RENDER_FLAG: Wait while EventEntity->Render.Flags3 bit 2 is set (cancel turn if not)
  3: 0x002C [0x2B] Hayris (ID: 17809511/0x010FC067) [11163*]:
    → "Jus' seein' yer ugly mug makes me brew go sour. Ya done what ya come to do, now clear off!"
  4: 0x0033 [0x23] WAIT_FOR_DIALOG_INTERACTION
  5: 0x0034 [0x21] END_EVENT
  6: 0x0035 [0x00] END_REQSTACK()
```
