# 17809431 - Washu

## Common Data

| Field            | Value          |
|------------------|----------------|
| Zone             | Norg (ID: 252) |
| Block Size       | 1700 bytes     |
| Total Events     | 16             |
| References Count | 56             |

## List of Events

| Event ID                 | Entrypoint   |   Size |   Instructions |
|--------------------------|--------------|--------|----------------|
| [65535](#event-65535)    | 0x0000       |      1 |              1 |
| [80](#event-80)          | 0x0001       |     28 |              8 |
| [21](#event-21)          | 0x001D       |    100 |             32 |
| [22](#event-22)          | 0x0081       |     18 |              8 |
| [23](#event-23)          | 0x0093       |     39 |             11 |
| [24](#event-24)          | 0x00BA       |     24 |              9 |
| [148](#event-148)        | 0x00D2       |     57 |             17 |
| [149](#event-149)        | 0x010B       |     80 |             16 |
| [150](#event-150)        | 0x015B       |     75 |             17 |
| [151](#event-151)        | 0x01A6       |      9 |              5 |
| [209](#event-209)        | 0x01AF       |      1 |              1 |
| [210](#event-210)        | 0x01B0       |      1 |              1 |
| [221](#event-221)        | 0x01B1       |     51 |             11 |
| [222](#event-222)        | 0x01E4       |      9 |              5 |
| [223](#event-223)        | 0x01ED       |      9 |              5 |
| [65535.1](#event-655351) | 0x01F6       |    894 |             97 |

## DAT References (imed_data)

|   Index | Hex Value   |   Dec Value |
|---------|-------------|-------------|
|       0 | 0x0046      |          70 |
|       1 | 0x27BA      |       10170 |
|       2 | 0x27BB      |       10171 |
|       3 | 0x0001      |           1 |
|       4 | 0x27C3      |       10179 |
|       5 | 0x27BC      |       10172 |
|       6 | 0x27BD      |       10173 |
|       7 | 0x27BE      |       10174 |
|       8 | 0x27BF      |       10175 |
|       9 | 0x27C0      |       10176 |
|      10 | 0x0000      |           0 |
|      11 | 0x27C2      |       10178 |
|      12 | 0x0104      |         260 |
|      13 | 0x27C1      |       10177 |
|      14 | 0x27C4      |       10180 |
|      15 | 0x27C5      |       10181 |
|      16 | 0x0105      |         261 |
|      17 | 0x27C6      |       10182 |
|      18 | 0x27C7      |       10183 |
|      19 | 0x27C8      |       10184 |
|      20 | 0x00C9      |         201 |
|      21 | 0x27C9      |       10185 |
|      22 | 0x1114      |        4372 |
|      23 | 0x111E      |        4382 |
|      24 | 0x1108      |        4360 |
|      25 | 0x03AB      |         939 |
|      26 | 0x29C5      |       10693 |
|      27 | 0x29C6      |       10694 |
|      28 | 0x29C7      |       10695 |
|      29 | 0x29C8      |       10696 |
|      30 | 0x29C9      |       10697 |
|      31 | 0x29CA      |       10698 |
|      32 | 0x29CB      |       10699 |
|      33 | 0x002D      |          45 |
|      34 | 0x29CC      |       10700 |
|      35 | 0x29CD      |       10701 |
|      36 | 0x2B75      |       11125 |
|      37 | 0x2B76      |       11126 |
|      38 | 0x2B77      |       11127 |
|      39 | 0x000B      |          11 |
|      40 | 0xBD28      |       48424 |
|      41 | 0x39DA      |       14810 |
|      42 | 0xFFFFE776  |  4294961014 |
|      43 | 0x000A      |          10 |
|      44 | 0x0014      |          20 |
|      45 | 0x001E      |          30 |
|      46 | 0x0028      |          40 |
|      47 | 0x0032      |          50 |
|      48 | 0x003C      |          60 |
|      49 | 0x0005      |           5 |
|      50 | 0x0050      |          80 |
|      51 | 0x00EE      |         238 |
|      52 | 0x0236      |         566 |
|      53 | 0x00C8      |         200 |
|      54 | 0x0002      |           2 |
|      55 | 0x00D7      |         215 |

## String References

- **10170**: <Sigh> What am I to do...?
- **10171**: Rations? We have more than enough. But the drink...these hooligans guzzle it down like it was water. We're always low on supply!
- **10172**: Ah, you came at the perfect time. You're one of those adventurers, aren't you? Well, I need you to run an errand for me in the Yhoator Jungle.
- **10173**: Deep in that jungle, the wild Opo-opos brew a special drink by fermenting berries in the trees.
- **10174**: You must be wondering how you get there, right? You'll find the Yhoator Jungle just beyond the Yuhtunga Jungle. But you should watch your back. There are a lot of wild animals creeping around in that place.
- **10175**: Don't worry. I'll pay you for your trouble.
- **10176**: Will you help me out? [Of course./Maybe some other time.]
- **10177**: I can't thank you enough! Now take this $3 and fill it chock full of that Opo-Opo brew. I'll be waiting!
- **10178**: Well, I guess you adventurers must be busy with your adventuring. I'll try to find somebody else to go.
- **10179**: Oh, have you changed your mind?
- **10180**: Okay, now listen up. The Opo-opos don't hide their brew in the Yuhtunga Jungle, only in the Yhoator Jungle.
- **10181**: When you find one of the trees those little buggers are making it in, fill this $3 up to the brim, and bring it back to me.
- **10182**: Mmm-mmm! The color! The aroma! Only nature can work magic like this!
- **10183**: Now if only those hooligans would appreciate it! Knowing them, this batch will be gone by the end of the night...
- **10184**: Here's a little something for your trouble. Now, I have to remember to double our next order from our suppliers...
- **10185**: Oh, thanks again for helping me out. What's beyond this door? Why, that's the kitchen--the heart of Norg. I can't let you in there, you know.
- **10693**: So you're the adventurer that Gilgamesh sent, eh? Get out a piece of paper and a pencil. You're going to have to go fetch me the following four items.
- **10694**: What? You thought I'd have everything you need here? With the way these hooligans eat, I barely have enough grub to feed the dogs! Oh, don't worry. The way you adventurers put everything up on auction, you should be able to get your hands on these items easy enough.
- **10695**: All I need is $0, $1, $2, and $3.
- **10696**: When you've got all four, bring them to me. I'll whip you up your bait in no time.
- **10697**: What, did you forget what I need you to bring already? And you call yourself an adventurer!
- **10698**: Well, that was quick. Pretty good for an adventurer. There may be some hope for you yet! Ha ha ha!
- **10699**: Now, let me whip up your bird bait, just like I promised.
- **10700**: Here you go. Be careful, though. From what I hear, that Onzozo place is a lot rougher than our jungles.
- **10701**: Why are you still here? You've got to get my bait to the birdy before it goes bad. If you were a monster, would you settle for a spoiled meal?
- **11125**: Here, take this flask.
- **11126**: Fill it from the four big clams in the Korroloka Tunnel. We'll see who has the last laugh...
- **11127**: Good work. Now hand it over to Sohyon.

## Events

### Event 65535

#### Metadata

| Field        | Value   |
|--------------|---------|
| Entrypoint   | 0x0000  |
| Data Size    | 1 bytes |
| Instructions | 1       |

```
      00 01 02 03 04 05 06 07  08 09 0A 0B 0C 0D 0E 0F
      -- -- -- -- -- -- -- --  -- -- -- -- -- -- -- --
0000: 00                                                .               
```

#### Opcodes

```
  0: 0x0000 [0x00] END_REQSTACK()
```

### Event 80

#### Metadata

| Field        | Value    |
|--------------|----------|
| Entrypoint   | 0x0001   |
| Data Size    | 28 bytes |
| Instructions | 8        |

```
      00 01 02 03 04 05 06 07  08 09 0A 0B 0C 0D 0E 0F
      -- -- -- -- -- -- -- --  -- -- -- -- -- -- -- --
0000:    1A 05 02 5B 00 80 F8  FF FF 7F F8 FF FF 7F 74   ...[..........t
0010: 68 6B 30 1D 01 80 23 1D  02 80 23 21 00           hk0...#...#!.   
```

#### Opcodes

```
  0: 0x0001 [0x1A] CALL_SUBROUTINE(address=0x0205)
  1: 0x0004 [0x5B] LOAD_EXT_SCHEDULER: Load scheduler "thk0" with entities [EventEntity, EventEntity], work=70*
  2: 0x0013 [0x1D] PRINT_EVENT_MESSAGE(message_id=10170*)
    → "<Sigh> What am I to do...?"
  3: 0x0016 [0x23] WAIT_FOR_DIALOG_INTERACTION
  4: 0x0017 [0x1D] PRINT_EVENT_MESSAGE(message_id=10171*)
    → "Rations? We have more than enough. But the drink...these hooligans guzzle it down like it was water. We're always low on supply!"
  5: 0x001A [0x23] WAIT_FOR_DIALOG_INTERACTION
  6: 0x001B [0x21] END_EVENT
  7: 0x001C [0x00] END_REQSTACK()
```

### Event 21

#### Metadata

| Field        | Value     |
|--------------|-----------|
| Entrypoint   | 0x001D    |
| Data Size    | 100 bytes |
| Instructions | 31        |

```
      00 01 02 03 04 05 06 07  08 09 0A 0B 0C 0D 0E 0F
      -- -- -- -- -- -- -- --  -- -- -- -- -- -- -- --
0010:                                         1A 05 02               ...
0020: 02 09 10 03 80 00 2F 00  1D 04 80 23 01 56 00 5B  ....../....#.V.[
0030: 00 80 F8 FF FF 7F F8 FF  FF 7F 74 68 6B 30 1D 01  ..........thk0..
0040: 80 23 1D 02 80 23 1D 05  80 23 1D 06 80 23 1D 07  .#...#...#...#..
0050: 80 23 1D 08 80 23 24 09  80 0A 80 0A 80 25 02 00  .#...#$......%..
0060: 10 03 80 00 70 00 1D 0B  80 23 01 7F 00 01 70 00  ....p....#....p.
0070: 42 03 01 10 03 80 03 08  10 0C 80 1D 0D 80 23 21  B.............#!
0080: 00                                                .               
```

#### Opcodes

```
  0: 0x001D [0x1A] CALL_SUBROUTINE(address=0x0205)
  1: 0x0020 [0x02] IF !(Work_Zone[9] == 1*) GOTO 0x002F
  2: 0x0028 [0x1D] PRINT_EVENT_MESSAGE(message_id=10179*)
    → "Oh, have you changed your mind?"
  3: 0x002B [0x23] WAIT_FOR_DIALOG_INTERACTION
  4: 0x002C [0x01] GOTO 0x0056
  5: 0x002F [0x5B] LOAD_EXT_SCHEDULER: Load scheduler "thk0" with entities [EventEntity, EventEntity], work=70*
  6: 0x003E [0x1D] PRINT_EVENT_MESSAGE(message_id=10170*)
    → "<Sigh> What am I to do...?"
  7: 0x0041 [0x23] WAIT_FOR_DIALOG_INTERACTION
  8: 0x0042 [0x1D] PRINT_EVENT_MESSAGE(message_id=10171*)
    → "Rations? We have more than enough. But the drink...these hooligans guzzle it down like it was water. We're always low on supply!"
  9: 0x0045 [0x23] WAIT_FOR_DIALOG_INTERACTION
 10: 0x0046 [0x1D] PRINT_EVENT_MESSAGE(message_id=10172*)
    → "Ah, you came at the perfect time. You're one of those adventurers, aren't you? Well, I need you to run an errand for me in the Yhoator Jungle."
 11: 0x0049 [0x23] WAIT_FOR_DIALOG_INTERACTION
 12: 0x004A [0x1D] PRINT_EVENT_MESSAGE(message_id=10173*)
    → "Deep in that jungle, the wild Opo-opos brew a special drink by fermenting berries in the trees."
 13: 0x004D [0x23] WAIT_FOR_DIALOG_INTERACTION
 14: 0x004E [0x1D] PRINT_EVENT_MESSAGE(message_id=10174*)
    → "You must be wondering how you get there, right? You'll find the Yhoator Jungle just beyond the Yuhtunga Jungle. But you should watch your back. There are a lot of wild animals creeping around in that place."
 15: 0x0051 [0x23] WAIT_FOR_DIALOG_INTERACTION
 16: 0x0052 [0x1D] PRINT_EVENT_MESSAGE(message_id=10175*)
    → "Don't worry. I'll pay you for your trouble."
 17: 0x0055 [0x23] WAIT_FOR_DIALOG_INTERACTION

SUBROUTINE_0056:
 18: 0x0056 [0x24] CREATE_DIALOG(message_id=10176*, default_option=0*, option_flags=0*)
    → "Will you help me out? [Of course./Maybe some other time.]"
 19: 0x005D [0x25] WAIT_DIALOG_SELECT()
 20: 0x005E [0x02] IF !(Work_Zone[0] == 1*) GOTO 0x0070
 21: 0x0066 [0x1D] PRINT_EVENT_MESSAGE(message_id=10178*)
    → "Well, I guess you adventurers must be busy with your adventuring. I'll try to find somebody else to go."
 22: 0x0069 [0x23] WAIT_FOR_DIALOG_INTERACTION
 23: 0x006A [0x01] GOTO 0x007F

SUBROUTINE_0070:
 24: 0x0070 [0x42] SET_CLI_EVENT_CANCEL_DATA()
 25: 0x0071 [0x03] Work_Zone[1] = 1*
 26: 0x0076 [0x03] Work_Zone[8] = 260*
 27: 0x007B [0x1D] PRINT_EVENT_MESSAGE(message_id=10177*)
    → "I can't thank you enough! Now take this $3 and fill it chock full of that Opo-Opo brew. I'll be waiting!"
 28: 0x007E [0x23] WAIT_FOR_DIALOG_INTERACTION

SUBROUTINE_007F:
 29: 0x007F [0x21] END_EVENT
 30: 0x0080 [0x00] END_REQSTACK()
```

#### Data or dead code:

```
# Dead code (unreachable instructions):
     0x006D [0x01] GOTO 0x0070
```

### Event 22

#### Metadata

| Field        | Value    |
|--------------|----------|
| Entrypoint   | 0x0081   |
| Data Size    | 18 bytes |
| Instructions | 8        |

```
      00 01 02 03 04 05 06 07  08 09 0A 0B 0C 0D 0E 0F
      -- -- -- -- -- -- -- --  -- -- -- -- -- -- -- --
0080:    1A 05 02 03 08 10 0C  80 1D 0E 80 23 1D 0F 80   ...........#...
0090: 23 21 00                                          #!.             
```

#### Opcodes

```
  0: 0x0081 [0x1A] CALL_SUBROUTINE(address=0x0205)
  1: 0x0084 [0x03] Work_Zone[8] = 260*
  2: 0x0089 [0x1D] PRINT_EVENT_MESSAGE(message_id=10180*)
    → "Okay, now listen up. The Opo-opos don't hide their brew in the Yuhtunga Jungle, only in the Yhoator Jungle."
  3: 0x008C [0x23] WAIT_FOR_DIALOG_INTERACTION
  4: 0x008D [0x1D] PRINT_EVENT_MESSAGE(message_id=10181*)
    → "When you find one of the trees those little buggers are making it in, fill this $3 up to the brim, and bring it back to me."
  5: 0x0090 [0x23] WAIT_FOR_DIALOG_INTERACTION
  6: 0x0091 [0x21] END_EVENT
  7: 0x0092 [0x00] END_REQSTACK()
```

### Event 23

#### Metadata

| Field        | Value    |
|--------------|----------|
| Entrypoint   | 0x0093   |
| Data Size    | 39 bytes |
| Instructions | 11       |

```
      00 01 02 03 04 05 06 07  08 09 0A 0B 0C 0D 0E 0F
      -- -- -- -- -- -- -- --  -- -- -- -- -- -- -- --
0090:          1A 05 02 03 08  10 10 80 1D 11 80 23 1D     ...........#.
00A0: 12 80 23 1D 13 80 23 45  14 80 F0 FF FF 7F F0 FF  ..#...#E........
00B0: FF 7F 71 73 74 63 0A 80  21 00                    ..qstc..!.      
```

#### Opcodes

```
  0: 0x0093 [0x1A] CALL_SUBROUTINE(address=0x0205)
  1: 0x0096 [0x03] Work_Zone[8] = 261*
  2: 0x009B [0x1D] PRINT_EVENT_MESSAGE(message_id=10182*)
    → "Mmm-mmm! The color! The aroma! Only nature can work magic like this!"
  3: 0x009E [0x23] WAIT_FOR_DIALOG_INTERACTION
  4: 0x009F [0x1D] PRINT_EVENT_MESSAGE(message_id=10183*)
    → "Now if only those hooligans would appreciate it! Knowing them, this batch will be gone by the end of the night..."
  5: 0x00A2 [0x23] WAIT_FOR_DIALOG_INTERACTION
  6: 0x00A3 [0x1D] PRINT_EVENT_MESSAGE(message_id=10184*)
    → "Here's a little something for your trouble. Now, I have to remember to double our next order from our suppliers..."
  7: 0x00A6 [0x23] WAIT_FOR_DIALOG_INTERACTION
  8: 0x00A7 [0x45] LOAD_SCHEDULED_TASK: Load scheduler "qstc" with entities [LocalPlayer, LocalPlayer], work=[201*, 0*]
  9: 0x00B8 [0x21] END_EVENT
 10: 0x00B9 [0x00] END_REQSTACK()
```

### Event 24

#### Metadata

| Field        | Value    |
|--------------|----------|
| Entrypoint   | 0x00BA   |
| Data Size    | 24 bytes |
| Instructions | 9        |

```
      00 01 02 03 04 05 06 07  08 09 0A 0B 0C 0D 0E 0F
      -- -- -- -- -- -- -- --  -- -- -- -- -- -- -- --
00B0:                                1A 05 02 02 09 10            ......
00C0: 03 80 00 CC 00 1D 12 80  23 01 D0 00 1D 15 80 23  ........#......#
00D0: 21 00                                             !.              
```

#### Opcodes

```
  0: 0x00BA [0x1A] CALL_SUBROUTINE(address=0x0205)
  1: 0x00BD [0x02] IF !(Work_Zone[9] == 1*) GOTO 0x00CC
  2: 0x00C5 [0x1D] PRINT_EVENT_MESSAGE(message_id=10183*)
    → "Now if only those hooligans would appreciate it! Knowing them, this batch will be gone by the end of the night..."
  3: 0x00C8 [0x23] WAIT_FOR_DIALOG_INTERACTION
  4: 0x00C9 [0x01] GOTO 0x00D0
  5: 0x00CC [0x1D] PRINT_EVENT_MESSAGE(message_id=10185*)
    → "Oh, thanks again for helping me out. What's beyond this door? Why, that's the kitchen--the heart of Norg. I can't let you in there, you know."
  6: 0x00CF [0x23] WAIT_FOR_DIALOG_INTERACTION

SUBROUTINE_00D0:
  7: 0x00D0 [0x21] END_EVENT
  8: 0x00D1 [0x00] END_REQSTACK()
```

### Event 148

#### Metadata

| Field        | Value    |
|--------------|----------|
| Entrypoint   | 0x00D2   |
| Data Size    | 57 bytes |
| Instructions | 17       |

```
      00 01 02 03 04 05 06 07  08 09 0A 0B 0C 0D 0E 0F
      -- -- -- -- -- -- -- --  -- -- -- -- -- -- -- --
00D0:       42 1A 05 02 03 02  10 16 80 03 03 10 17 80    B.............
00E0: 03 04 10 18 80 03 05 10  19 80 1D 1A 80 23 1D 1B  .............#..
00F0: 80 23 5B 00 80 F8 FF FF  7F F8 FF FF 7F 74 6C 6B  .#[..........tlk
0100: 30 1D 1C 80 23 1D 1D 80  23 21 00                 0...#...#!.     
```

#### Opcodes

```
  0: 0x00D2 [0x42] SET_CLI_EVENT_CANCEL_DATA()
  1: 0x00D3 [0x1A] CALL_SUBROUTINE(address=0x0205)
  2: 0x00D6 [0x03] Work_Zone[2] = 4372*
  3: 0x00DB [0x03] Work_Zone[3] = 4382*
  4: 0x00E0 [0x03] Work_Zone[4] = 4360*
  5: 0x00E5 [0x03] Work_Zone[5] = 939*
  6: 0x00EA [0x1D] PRINT_EVENT_MESSAGE(message_id=10693*)
    → "So you're the adventurer that Gilgamesh sent, eh? Get out a piece of paper and a pencil. You're going to have to go fetch me the following four items."
  7: 0x00ED [0x23] WAIT_FOR_DIALOG_INTERACTION
  8: 0x00EE [0x1D] PRINT_EVENT_MESSAGE(message_id=10694*)
    → "What? You thought I'd have everything you need here? With the way these hooligans eat, I barely have enough grub to feed the dogs! Oh, don't worry. The way you adventurers put everything up on auction, you should be able to get your hands on these items easy enough."
  9: 0x00F1 [0x23] WAIT_FOR_DIALOG_INTERACTION
 10: 0x00F2 [0x5B] LOAD_EXT_SCHEDULER: Load scheduler "tlk0" with entities [EventEntity, EventEntity], work=70*
 11: 0x0101 [0x1D] PRINT_EVENT_MESSAGE(message_id=10695*)
    → "All I need is $0, $1, $2, and $3."
 12: 0x0104 [0x23] WAIT_FOR_DIALOG_INTERACTION
 13: 0x0105 [0x1D] PRINT_EVENT_MESSAGE(message_id=10696*)
    → "When you've got all four, bring them to me. I'll whip you up your bait in no time."
 14: 0x0108 [0x23] WAIT_FOR_DIALOG_INTERACTION
 15: 0x0109 [0x21] END_EVENT
 16: 0x010A [0x00] END_REQSTACK()
```

### Event 149

#### Metadata

| Field        | Value    |
|--------------|----------|
| Entrypoint   | 0x010B   |
| Data Size    | 80 bytes |
| Instructions | 16       |

```
      00 01 02 03 04 05 06 07  08 09 0A 0B 0C 0D 0E 0F
      -- -- -- -- -- -- -- --  -- -- -- -- -- -- -- --
0100:                                   1A 05 02 03 02             .....
0110: 10 16 80 03 03 10 17 80  03 04 10 18 80 03 05 10  ................
0120: 19 80 5B 00 80 F8 FF FF  7F F8 FF FF 7F 74 68 6B  ..[..........thk
0130: 30 1D 1E 80 23 53 F8 FF  FF 7F F8 FF FF 7F 74 68  0...#S........th
0140: 6B 30 5B 00 80 F8 FF FF  7F F8 FF FF 7F 74 6C 6B  k0[..........tlk
0150: 30 1D 1C 80 23 1D 1D 80  23 21 00                 0...#...#!.     
```

#### Opcodes

```
  0: 0x010B [0x1A] CALL_SUBROUTINE(address=0x0205)
  1: 0x010E [0x03] Work_Zone[2] = 4372*
  2: 0x0113 [0x03] Work_Zone[3] = 4382*
  3: 0x0118 [0x03] Work_Zone[4] = 4360*
  4: 0x011D [0x03] Work_Zone[5] = 939*
  5: 0x0122 [0x5B] LOAD_EXT_SCHEDULER: Load scheduler "thk0" with entities [EventEntity, EventEntity], work=70*
  6: 0x0131 [0x1D] PRINT_EVENT_MESSAGE(message_id=10697*)
    → "What, did you forget what I need you to bring already? And you call yourself an adventurer!"
  7: 0x0134 [0x23] WAIT_FOR_DIALOG_INTERACTION
  8: 0x0135 [0x53] WAIT_SCHEDULER_TASK: Wait for scheduler "thk0" with entities [EventEntity, EventEntity]
  9: 0x0142 [0x5B] LOAD_EXT_SCHEDULER: Load scheduler "tlk0" with entities [EventEntity, EventEntity], work=70*
 10: 0x0151 [0x1D] PRINT_EVENT_MESSAGE(message_id=10695*)
    → "All I need is $0, $1, $2, and $3."
 11: 0x0154 [0x23] WAIT_FOR_DIALOG_INTERACTION
 12: 0x0155 [0x1D] PRINT_EVENT_MESSAGE(message_id=10696*)
    → "When you've got all four, bring them to me. I'll whip you up your bait in no time."
 13: 0x0158 [0x23] WAIT_FOR_DIALOG_INTERACTION
 14: 0x0159 [0x21] END_EVENT
 15: 0x015A [0x00] END_REQSTACK()
```

### Event 150

#### Metadata

| Field        | Value    |
|--------------|----------|
| Entrypoint   | 0x015B   |
| Data Size    | 75 bytes |
| Instructions | 17       |

```
      00 01 02 03 04 05 06 07  08 09 0A 0B 0C 0D 0E 0F
      -- -- -- -- -- -- -- --  -- -- -- -- -- -- -- --
0150:                                   42 1A 05 02 5B             B...[
0160: 00 80 F8 FF FF 7F F8 FF  FF 7F 74 6C 6B 30 1D 1F  ..........tlk0..
0170: 80 23 1D 20 80 23 5E 69  64 6C 30 1A 04 03 1C 21  .#. .#^idl0....!
0180: 80 1A 25 03 5B 00 80 F8  FF FF 7F F8 FF FF 7F 70  ..%.[..........p
0190: 61 73 30 1D 22 80 23 53  F8 FF FF 7F F8 FF FF 7F  as0.".#S........
01A0: 70 61 73 30 21 00                                 pas0!.          
```

#### Opcodes

```
  0: 0x015B [0x42] SET_CLI_EVENT_CANCEL_DATA()
  1: 0x015C [0x1A] CALL_SUBROUTINE(address=0x0205)
  2: 0x015F [0x5B] LOAD_EXT_SCHEDULER: Load scheduler "tlk0" with entities [EventEntity, EventEntity], work=70*
  3: 0x016E [0x1D] PRINT_EVENT_MESSAGE(message_id=10698*)
    → "Well, that was quick. Pretty good for an adventurer. There may be some hope for you yet! Ha ha ha!"
  4: 0x0171 [0x23] WAIT_FOR_DIALOG_INTERACTION
  5: 0x0172 [0x1D] PRINT_EVENT_MESSAGE(message_id=10699*)
    → "Now, let me whip up your bird bait, just like I promised."
  6: 0x0175 [0x23] WAIT_FOR_DIALOG_INTERACTION
  7: 0x0176 [0x5E] EventEntity goes idle (kills current action) (animation: "idl0")
  8: 0x017B [0x1A] CALL_SUBROUTINE(address=0x0304)
  9: 0x017E [0x1C] WAIT(45* ticks)
 10: 0x0181 [0x1A] CALL_SUBROUTINE(address=0x0325)
 11: 0x0184 [0x5B] LOAD_EXT_SCHEDULER: Load scheduler "pas0" with entities [EventEntity, EventEntity], work=70*
 12: 0x0193 [0x1D] PRINT_EVENT_MESSAGE(message_id=10700*)
    → "Here you go. Be careful, though. From what I hear, that Onzozo place is a lot rougher than our jungles."
 13: 0x0196 [0x23] WAIT_FOR_DIALOG_INTERACTION
 14: 0x0197 [0x53] WAIT_SCHEDULER_TASK: Wait for scheduler "pas0" with entities [EventEntity, EventEntity]
 15: 0x01A4 [0x21] END_EVENT
 16: 0x01A5 [0x00] END_REQSTACK()
```

### Event 151

#### Metadata

| Field        | Value   |
|--------------|---------|
| Entrypoint   | 0x01A6  |
| Data Size    | 9 bytes |
| Instructions | 5       |

```
      00 01 02 03 04 05 06 07  08 09 0A 0B 0C 0D 0E 0F
      -- -- -- -- -- -- -- --  -- -- -- -- -- -- -- --
01A0:                   1A 05  02 1D 23 80 23 21 00           ....#.#!. 
```

#### Opcodes

```
  0: 0x01A6 [0x1A] CALL_SUBROUTINE(address=0x0205)
  1: 0x01A9 [0x1D] PRINT_EVENT_MESSAGE(message_id=10701*)
    → "Why are you still here? You've got to get my bait to the birdy before it goes bad. If you were a monster, would you settle for a spoiled meal?"
  2: 0x01AC [0x23] WAIT_FOR_DIALOG_INTERACTION
  3: 0x01AD [0x21] END_EVENT
  4: 0x01AE [0x00] END_REQSTACK()
```

### Event 209

#### Metadata

| Field        | Value   |
|--------------|---------|
| Entrypoint   | 0x01AF  |
| Data Size    | 1 bytes |
| Instructions | 1       |

```
      00 01 02 03 04 05 06 07  08 09 0A 0B 0C 0D 0E 0F
      -- -- -- -- -- -- -- --  -- -- -- -- -- -- -- --
01A0:                                               00                 .
```

#### Opcodes

```
  0: 0x01AF [0x00] END_REQSTACK()
```

### Event 210

#### Metadata

| Field        | Value   |
|--------------|---------|
| Entrypoint   | 0x01B0  |
| Data Size    | 1 bytes |
| Instructions | 1       |

```
      00 01 02 03 04 05 06 07  08 09 0A 0B 0C 0D 0E 0F
      -- -- -- -- -- -- -- --  -- -- -- -- -- -- -- --
01B0: 00                                                .               
```

#### Opcodes

```
  0: 0x01B0 [0x00] END_REQSTACK()
```

### Event 221

#### Metadata

| Field        | Value    |
|--------------|----------|
| Entrypoint   | 0x01B1   |
| Data Size    | 51 bytes |
| Instructions | 11       |

```
      00 01 02 03 04 05 06 07  08 09 0A 0B 0C 0D 0E 0F
      -- -- -- -- -- -- -- --  -- -- -- -- -- -- -- --
01B0:    42 4A F0 FF FF 7F F8  FF FF 7F 1A 05 02 5B 00   BJ...........[.
01C0: 80 F8 FF FF 7F F8 FF FF  7F 70 61 73 30 1D 24 80  .........pas0.$.
01D0: 23 53 F8 FF FF 7F F8 FF  FF 7F 70 61 73 30 1D 25  #S........pas0.%
01E0: 80 23 21 00                                       .#!.            
```

#### Opcodes

```
  0: 0x01B1 [0x42] SET_CLI_EVENT_CANCEL_DATA()
  1: 0x01B2 [0x4A] LocalPlayer looks at EventEntity
  2: 0x01BB [0x1A] CALL_SUBROUTINE(address=0x0205)
  3: 0x01BE [0x5B] LOAD_EXT_SCHEDULER: Load scheduler "pas0" with entities [EventEntity, EventEntity], work=70*
  4: 0x01CD [0x1D] PRINT_EVENT_MESSAGE(message_id=11125*)
    → "Here, take this flask."
  5: 0x01D0 [0x23] WAIT_FOR_DIALOG_INTERACTION
  6: 0x01D1 [0x53] WAIT_SCHEDULER_TASK: Wait for scheduler "pas0" with entities [EventEntity, EventEntity]
  7: 0x01DE [0x1D] PRINT_EVENT_MESSAGE(message_id=11126*)
    → "Fill it from the four big clams in the Korroloka Tunnel. We'll see who has the last laugh..."
  8: 0x01E1 [0x23] WAIT_FOR_DIALOG_INTERACTION
  9: 0x01E2 [0x21] END_EVENT
 10: 0x01E3 [0x00] END_REQSTACK()
```

### Event 222

#### Metadata

| Field        | Value   |
|--------------|---------|
| Entrypoint   | 0x01E4  |
| Data Size    | 9 bytes |
| Instructions | 5       |

```
      00 01 02 03 04 05 06 07  08 09 0A 0B 0C 0D 0E 0F
      -- -- -- -- -- -- -- --  -- -- -- -- -- -- -- --
01E0:             1A 05 02 1D  25 80 23 21 00               ....%.#!.   
```

#### Opcodes

```
  0: 0x01E4 [0x1A] CALL_SUBROUTINE(address=0x0205)
  1: 0x01E7 [0x1D] PRINT_EVENT_MESSAGE(message_id=11126*)
    → "Fill it from the four big clams in the Korroloka Tunnel. We'll see who has the last laugh..."
  2: 0x01EA [0x23] WAIT_FOR_DIALOG_INTERACTION
  3: 0x01EB [0x21] END_EVENT
  4: 0x01EC [0x00] END_REQSTACK()
```

### Event 223

#### Metadata

| Field        | Value   |
|--------------|---------|
| Entrypoint   | 0x01ED  |
| Data Size    | 9 bytes |
| Instructions | 5       |

```
      00 01 02 03 04 05 06 07  08 09 0A 0B 0C 0D 0E 0F
      -- -- -- -- -- -- -- --  -- -- -- -- -- -- -- --
01E0:                                         1A 05 02               ...
01F0: 1D 26 80 23 21 00                                 .&.#!.          
```

#### Opcodes

```
  0: 0x01ED [0x1A] CALL_SUBROUTINE(address=0x0205)
  1: 0x01F0 [0x1D] PRINT_EVENT_MESSAGE(message_id=11127*)
    → "Good work. Now hand it over to Sohyon."
  2: 0x01F3 [0x23] WAIT_FOR_DIALOG_INTERACTION
  3: 0x01F4 [0x21] END_EVENT
  4: 0x01F5 [0x00] END_REQSTACK()
```

### Event 65535.1

#### Metadata

| Field        | Value     |
|--------------|-----------|
| Entrypoint   | 0x01F6    |
| Data Size    | 894 bytes |
| Instructions | 5         |

```
      00 01 02 03 04 05 06 07  08 09 0A 0B 0C 0D 0E 0F
      -- -- -- -- -- -- -- --  -- -- -- -- -- -- -- --
01F0:                   32 27  80 1F 00 28 80 29 80 2A        2'...(.).*
0200: 80 1F 01 6F 00 86 00 F8  FF FF 7F 1E F0 FF FF 7F  ...o............
0210: 6F 70 1B 66 0A 80 F8 FF  FF 7F F8 FF FF 7F 74 6C  op.f..........tl
0220: 6B 30 1B 66 0A 80 F8 FF  FF 7F F8 FF FF 7F 74 6C  k0.f..........tl
0230: 6B 31 1B 66 2B 80 F8 FF  FF 7F F8 FF FF 7F 74 6C  k1.f+.........tl
0240: 6B 30 1B 66 2C 80 F8 FF  FF 7F F8 FF FF 7F 74 6C  k0.f,.........tl
0250: 6B 30 1B 66 2D 80 F8 FF  FF 7F F8 FF FF 7F 74 6C  k0.f-.........tl
0260: 6B 30 1B 66 2E 80 F8 FF  FF 7F F8 FF FF 7F 74 6C  k0.f..........tl
0270: 6B 30 1B 66 2F 80 F8 FF  FF 7F F8 FF FF 7F 74 6C  k0.f/.........tl
0280: 6B 30 1B 66 30 80 F8 FF  FF 7F F8 FF FF 7F 74 6C  k0.f0.........tl
0290: 6B 30 1B 5B 31 80 F8 FF  FF 7F F8 FF FF 7F 74 6C  k0.[1.........tl
02A0: 6B 30 1B 5B 32 80 F8 FF  FF 7F F8 FF FF 7F 74 6C  k0.[2.........tl
02B0: 6B 30 1B 5B 33 80 F8 FF  FF 7F F8 FF FF 7F 74 6C  k0.[3.........tl
02C0: 6B 30 1B 5B 34 80 F8 FF  FF 7F F8 FF FF 7F 74 6C  k0.[4.........tl
02D0: 6B 30 1B 5B 30 80 F8 FF  FF 7F F8 FF FF 7F 74 6C  k0.[0.........tl
02E0: 62 30 1B 45 35 80 F0 FF  FF 7F F0 FF FF 7F 66 64  b0.E5.........fd
02F0: 69 30 0A 80 55 35 80 F0  FF FF 7F F0 FF FF 7F 66  i0..U5.........f
0300: 64 69 30 1B 45 35 80 F0  FF FF 7F F0 FF FF 7F 66  di0.E5.........f
0310: 64 6F 30 0A 80 55 35 80  F0 FF FF 7F F0 FF FF 7F  do0..U5.........
0320: 66 64 6F 30 1B 45 35 80  F0 FF FF 7F F0 FF FF 7F  fdo0.E5.........
0330: 66 64 69 31 0A 80 55 35  80 F0 FF FF 7F F0 FF FF  fdi1..U5........
0340: 7F 66 64 69 31 1B 45 35  80 F0 FF FF 7F F0 FF FF  .fdi1.E5........
0350: 7F 66 64 6F 31 0A 80 55  35 80 F0 FF FF 7F F0 FF  .fdo1..U5.......
0360: FF 7F 66 64 6F 31 1B 45  14 80 F0 FF FF 7F F0 FF  ..fdo1.E........
0370: FF 7F 77 68 69 31 0A 80  55 14 80 F0 FF FF 7F F0  ..whi1..U.......
0380: FF FF 7F 77 68 69 31 1B  45 14 80 F0 FF FF 7F F0  ...whi1.E.......
0390: FF FF 7F 77 68 6F 31 0A  80 55 14 80 F0 FF FF 7F  ...who1..U......
03A0: F0 FF FF 7F 77 68 6F 31  1B 45 14 80 F0 FF FF 7F  ....who1.E......
03B0: F0 FF FF 7F 77 68 6F 32  0A 80 55 14 80 F0 FF FF  ....who2..U.....
03C0: 7F F0 FF FF 7F 77 68 6F  32 1B 45 14 80 F0 FF FF  .....who2.E.....
03D0: 7F F0 FF FF 7F 77 68 6F  33 0A 80 55 14 80 F0 FF  .....who3..U....
03E0: FF 7F F0 FF FF 7F 77 68  6F 33 1B 62 03 80 F0 FF  ......who3.b....
03F0: FF 7F F0 FF FF 7F 6D 61  69 6E 0A 80 1C 21 80 45  ......main...!.E
0400: 35 80 F0 FF FF 7F F0 FF  FF 7F 66 64 6F 31 0A 80  5.........fdo1..
0410: 55 35 80 F0 FF FF 7F F0  FF FF 7F 66 64 6F 31 1B  U5.........fdo1.
0420: 45 35 80 F0 FF FF 7F F0  FF FF 7F 66 64 69 31 0A  E5.........fdi1.
0430: 80 62 36 80 F0 FF FF 7F  F0 FF FF 7F 6D 61 69 6E  .b6.........main
0440: 0A 80 1C 2D 80 55 35 80  F0 FF FF 7F F0 FF FF 7F  ...-.U5.........
0450: 66 64 69 31 1B 45 35 80  F0 FF FF 7F F0 FF FF 7F  fdi1.E5.........
0460: 62 6C 6F 6E 0A 80 45 14  80 F0 FF FF 7F F0 FF FF  blon..E.........
0470: 7F 62 6C 6F 6E 0A 80 1B  45 14 80 F0 FF FF 7F F0  .blon...E.......
0480: FF FF 7F 77 68 69 30 0A  80 55 14 80 F0 FF FF 7F  ...whi0..U......
0490: F0 FF FF 7F 77 68 69 30  1B 45 14 80 F0 FF FF 7F  ....whi0.E......
04A0: F0 FF FF 7F 77 68 6F 30  0A 80 55 14 80 F0 FF FF  ....who0..U.....
04B0: 7F F0 FF FF 7F 77 68 6F  30 1B 45 37 80 F0 FF FF  .....who0.E7....
04C0: 7F F0 FF FF 7F 65 66 6F  6E 0A 80 55 37 80 F0 FF  .....efon..U7...
04D0: FF 7F F0 FF FF 7F 65 66  6F 6E 1B 45 35 80 F0 FF  ......efon.E5...
04E0: FF 7F F0 FF FF 7F 66 64  69 73 0A 80 1B 45 35 80  ......fdis...E5.
04F0: F0 FF FF 7F F0 FF FF 7F  66 64 6F 73 0A 80 55 35  ........fdos..U5
0500: 80 F0 FF FF 7F F0 FF FF  7F 66 64 6F 73 1B 45 35  .........fdos.E5
0510: 80 F0 FF FF 7F F0 FF FF  7F 66 64 69 66 0A 80 1B  .........fdif...
0520: 45 35 80 F0 FF FF 7F F0  FF FF 7F 66 64 6F 66 0A  E5.........fdof.
0530: 80 55 35 80 F0 FF FF 7F  F0 FF FF 7F 66 64 6F 66  .U5.........fdof
0540: 1B 45 35 80 F0 FF FF 7F  F0 FF FF 7F 66 64 69 70  .E5.........fdip
0550: 0A 80 1B 45 35 80 F0 FF  FF 7F F0 FF FF 7F 66 64  ...E5.........fd
0560: 6F 70 0A 80 55 35 80 F0  FF FF 7F F0 FF FF 7F 66  op..U5.........f
0570: 64 6F 70 1B                                       dop.            
```

#### Opcodes

```
  0: 0x01F6 [0x32] ExtData[1]->MainSpeed = 11* * 0.1
  1: 0x01F9 [0x1F] MOVE_ENTITY: EventEntity moves to X=48.424*, Z=14.810*, Y=-6.282*
  2: 0x0201 [0x1F] MOVE_ENTITY: Update entity position (mode=1)
  3: 0x0203 [0x6F] WAIT_FRAME_DELAY: Yield until WaitTime reaches zero
  4: 0x0204 [0x00] END_REQSTACK()
```

#### Data or dead code:

```
# Dead code (unreachable instructions):
     0x0205 [0x86] EventEntity->Render.Flags3 = Flags3  // No change (flag=0)
     0x020B [0x1E] EventEntity looks at LocalPlayer and starts talking
     0x0210 [0x6F] WAIT_FRAME_DELAY: Yield until WaitTime reaches zero
     0x0211 [0x70] WAIT_ENTITY_RENDER_FLAG: Wait while EventEntity->Render.Flags3 bit 2 is set (cancel turn if not)
     0x0212 [0x1B] RETURN
     0x0213 [0x66] LOAD_EXT_SCHEDULER_MAIN: Load scheduler "tlk0" with entities [EventEntity, EventEntity], work=0*
     0x0222 [0x1B] RETURN
     0x0223 [0x66] LOAD_EXT_SCHEDULER_MAIN: Load scheduler "tlk1" with entities [EventEntity, EventEntity], work=0*
     0x0232 [0x1B] RETURN
     0x0233 [0x66] LOAD_EXT_SCHEDULER_MAIN: Load scheduler "tlk0" with entities [EventEntity, EventEntity], work=10*
     0x0242 [0x1B] RETURN
     0x0243 [0x66] LOAD_EXT_SCHEDULER_MAIN: Load scheduler "tlk0" with entities [EventEntity, EventEntity], work=20*
     0x0252 [0x1B] RETURN
     0x0253 [0x66] LOAD_EXT_SCHEDULER_MAIN: Load scheduler "tlk0" with entities [EventEntity, EventEntity], work=30*
     0x0262 [0x1B] RETURN
     0x0263 [0x66] LOAD_EXT_SCHEDULER_MAIN: Load scheduler "tlk0" with entities [EventEntity, EventEntity], work=40*
     0x0272 [0x1B] RETURN
     0x0273 [0x66] LOAD_EXT_SCHEDULER_MAIN: Load scheduler "tlk0" with entities [EventEntity, EventEntity], work=50*
     0x0282 [0x1B] RETURN
     0x0283 [0x66] LOAD_EXT_SCHEDULER_MAIN: Load scheduler "tlk0" with entities [EventEntity, EventEntity], work=60*
     0x0292 [0x1B] RETURN
     0x0293 [0x5B] LOAD_EXT_SCHEDULER: Load scheduler "tlk0" with entities [EventEntity, EventEntity], work=5*
     0x02A2 [0x1B] RETURN
     0x02A3 [0x5B] LOAD_EXT_SCHEDULER: Load scheduler "tlk0" with entities [EventEntity, EventEntity], work=80*
     0x02B2 [0x1B] RETURN
     0x02B3 [0x5B] LOAD_EXT_SCHEDULER: Load scheduler "tlk0" with entities [EventEntity, EventEntity], work=238*
     0x02C2 [0x1B] RETURN
     0x02C3 [0x5B] LOAD_EXT_SCHEDULER: Load scheduler "tlk0" with entities [EventEntity, EventEntity], work=566*
     0x02D2 [0x1B] RETURN
     0x02D3 [0x5B] LOAD_EXT_SCHEDULER: Load scheduler "tlb0" with entities [EventEntity, EventEntity], work=60*
     0x02E2 [0x1B] RETURN
     0x02E3 [0x45] LOAD_SCHEDULED_TASK: Load scheduler "fdi0" with entities [LocalPlayer, LocalPlayer], work=[200*, 0*]
     0x02F4 [0x55] WAIT_LOAD_SCHEDULER: Wait for scheduler "fdi0" with entities [LocalPlayer, LocalPlayer], work=200*
     0x0303 [0x1B] RETURN
     0x0304 [0x45] LOAD_SCHEDULED_TASK: Load scheduler "fdo0" with entities [LocalPlayer, LocalPlayer], work=[200*, 0*]
     0x0315 [0x55] WAIT_LOAD_SCHEDULER: Wait for scheduler "fdo0" with entities [LocalPlayer, LocalPlayer], work=200*
     0x0324 [0x1B] RETURN
     0x0325 [0x45] LOAD_SCHEDULED_TASK: Load scheduler "fdi1" with entities [LocalPlayer, LocalPlayer], work=[200*, 0*]
     0x0336 [0x55] WAIT_LOAD_SCHEDULER: Wait for scheduler "fdi1" with entities [LocalPlayer, LocalPlayer], work=200*
     0x0345 [0x1B] RETURN
     0x0346 [0x45] LOAD_SCHEDULED_TASK: Load scheduler "fdo1" with entities [LocalPlayer, LocalPlayer], work=[200*, 0*]
     0x0357 [0x55] WAIT_LOAD_SCHEDULER: Wait for scheduler "fdo1" with entities [LocalPlayer, LocalPlayer], work=200*
     0x0366 [0x1B] RETURN
     0x0367 [0x45] LOAD_SCHEDULED_TASK: Load scheduler "whi1" with entities [LocalPlayer, LocalPlayer], work=[201*, 0*]
     0x0378 [0x55] WAIT_LOAD_SCHEDULER: Wait for scheduler "whi1" with entities [LocalPlayer, LocalPlayer], work=201*
     0x0387 [0x1B] RETURN
     0x0388 [0x45] LOAD_SCHEDULED_TASK: Load scheduler "who1" with entities [LocalPlayer, LocalPlayer], work=[201*, 0*]
     0x0399 [0x55] WAIT_LOAD_SCHEDULER: Wait for scheduler "who1" with entities [LocalPlayer, LocalPlayer], work=201*
     0x03A8 [0x1B] RETURN
     0x03A9 [0x45] LOAD_SCHEDULED_TASK: Load scheduler "who2" with entities [LocalPlayer, LocalPlayer], work=[201*, 0*]
     0x03BA [0x55] WAIT_LOAD_SCHEDULER: Wait for scheduler "who2" with entities [LocalPlayer, LocalPlayer], work=201*
     0x03C9 [0x1B] RETURN
     0x03CA [0x45] LOAD_SCHEDULED_TASK: Load scheduler "who3" with entities [LocalPlayer, LocalPlayer], work=[201*, 0*]
     0x03DB [0x55] WAIT_LOAD_SCHEDULER: Wait for scheduler "who3" with entities [LocalPlayer, LocalPlayer], work=201*
     0x03EA [0x1B] RETURN
     0x03EB [0x62] LOAD_EVENT_SCHEDULER: Load scheduler "main" with entities [LocalPlayer, LocalPlayer], work=[1*, 0*]
     0x03FC [0x1C] WAIT(45* ticks)
     0x03FF [0x45] LOAD_SCHEDULED_TASK: Load scheduler "fdo1" with entities [LocalPlayer, LocalPlayer], work=[200*, 0*]
     0x0410 [0x55] WAIT_LOAD_SCHEDULER: Wait for scheduler "fdo1" with entities [LocalPlayer, LocalPlayer], work=200*
     0x041F [0x1B] RETURN
     0x0420 [0x45] LOAD_SCHEDULED_TASK: Load scheduler "fdi1" with entities [LocalPlayer, LocalPlayer], work=[200*, 0*]
     0x0431 [0x62] LOAD_EVENT_SCHEDULER: Load scheduler "main" with entities [LocalPlayer, LocalPlayer], work=[2*, 0*]
     0x0442 [0x1C] WAIT(30* ticks)
     0x0445 [0x55] WAIT_LOAD_SCHEDULER: Wait for scheduler "fdi1" with entities [LocalPlayer, LocalPlayer], work=200*
     0x0454 [0x1B] RETURN
     0x0455 [0x45] LOAD_SCHEDULED_TASK: Load scheduler "blon" with entities [LocalPlayer, LocalPlayer], work=[200*, 0*]
     0x0466 [0x45] LOAD_SCHEDULED_TASK: Load scheduler "blon" with entities [LocalPlayer, LocalPlayer], work=[201*, 0*]
     0x0477 [0x1B] RETURN
     0x0478 [0x45] LOAD_SCHEDULED_TASK: Load scheduler "whi0" with entities [LocalPlayer, LocalPlayer], work=[201*, 0*]
     0x0489 [0x55] WAIT_LOAD_SCHEDULER: Wait for scheduler "whi0" with entities [LocalPlayer, LocalPlayer], work=201*
     0x0498 [0x1B] RETURN
     0x0499 [0x45] LOAD_SCHEDULED_TASK: Load scheduler "who0" with entities [LocalPlayer, LocalPlayer], work=[201*, 0*]
     0x04AA [0x55] WAIT_LOAD_SCHEDULER: Wait for scheduler "who0" with entities [LocalPlayer, LocalPlayer], work=201*
     0x04B9 [0x1B] RETURN
     0x04BA [0x45] LOAD_SCHEDULED_TASK: Load scheduler "efon" with entities [LocalPlayer, LocalPlayer], work=[215*, 0*]
     0x04CB [0x55] WAIT_LOAD_SCHEDULER: Wait for scheduler "efon" with entities [LocalPlayer, LocalPlayer], work=215*
     0x04DA [0x1B] RETURN
     0x04DB [0x45] LOAD_SCHEDULED_TASK: Load scheduler "fdis" with entities [LocalPlayer, LocalPlayer], work=[200*, 0*]
     0x04EC [0x1B] RETURN
     0x04ED [0x45] LOAD_SCHEDULED_TASK: Load scheduler "fdos" with entities [LocalPlayer, LocalPlayer], work=[200*, 0*]
     0x04FE [0x55] WAIT_LOAD_SCHEDULER: Wait for scheduler "fdos" with entities [LocalPlayer, LocalPlayer], work=200*
     0x050D [0x1B] RETURN
     0x050E [0x45] LOAD_SCHEDULED_TASK: Load scheduler "fdif" with entities [LocalPlayer, LocalPlayer], work=[200*, 0*]
     0x051F [0x1B] RETURN
     0x0520 [0x45] LOAD_SCHEDULED_TASK: Load scheduler "fdof" with entities [LocalPlayer, LocalPlayer], work=[200*, 0*]
     0x0531 [0x55] WAIT_LOAD_SCHEDULER: Wait for scheduler "fdof" with entities [LocalPlayer, LocalPlayer], work=200*
     0x0540 [0x1B] RETURN
     0x0541 [0x45] LOAD_SCHEDULED_TASK: Load scheduler "fdip" with entities [LocalPlayer, LocalPlayer], work=[200*, 0*]
     0x0552 [0x1B] RETURN
     0x0553 [0x45] LOAD_SCHEDULED_TASK: Load scheduler "fdop" with entities [LocalPlayer, LocalPlayer], work=[200*, 0*]
     0x0564 [0x55] WAIT_LOAD_SCHEDULER: Wait for scheduler "fdop" with entities [LocalPlayer, LocalPlayer], work=200*
     0x0573 [0x1B] RETURN
```
