# 17809530

## Common Data

| Field            | Value          |
|------------------|----------------|
| Zone             | Norg (ID: 252) |
| Block Size       | 5760 bytes     |
| Total Events     | 8              |
| References Count | 131            |

## List of Events

| Event ID              | Entrypoint   |   Size |   Instructions |
|-----------------------|--------------|--------|----------------|
| [65535](#event-65535) | 0x0000       |      1 |              1 |
| [250](#event-250)     | 0x0001       |   1234 |            162 |
| [252](#event-252)     | 0x04D3       |    535 |             73 |
| [254](#event-254)     | 0x06EA       |    370 |             55 |
| [256](#event-256)     | 0x085C       |    525 |             69 |
| [258](#event-258)     | 0x0A69       |    322 |             47 |
| [260](#event-260)     | 0x0BAB       |    337 |             52 |
| [262](#event-262)     | 0x0CFC       |   1864 |            219 |

## DAT References (imed_data)

|   Index | Hex Value   |   Dec Value |
|---------|-------------|-------------|
|       0 | 0x0013      |          19 |
|       1 | 0xFFFFFFEA  |  4294967274 |
|       2 | 0x3CD7      |       15575 |
|       3 | 0xFFFFFFDA  |  4294967258 |
|       4 | 0x0D51      |        3409 |
|       5 | 0x001E      |          30 |
|       6 | 0x0158      |         344 |
|       7 | 0x0000      |           0 |
|       8 | 0x0001      |           1 |
|       9 | 0x2C46      |       11334 |
|      10 | 0x2C39      |       11321 |
|      11 | 0x0009      |           9 |
|      12 | 0x2C3A      |       11322 |
|      13 | 0x2C3B      |       11323 |
|      14 | 0x2C3C      |       11324 |
|      15 | 0x2C3D      |       11325 |
|      16 | 0x0004      |           4 |
|      17 | 0x2C3E      |       11326 |
|      18 | 0x0096      |         150 |
|      19 | 0x2C3F      |       11327 |
|      20 | 0x2C40      |       11328 |
|      21 | 0x2C41      |       11329 |
|      22 | 0x2C42      |       11330 |
|      23 | 0x2C43      |       11331 |
|      24 | 0x003C      |          60 |
|      25 | 0x2C44      |       11332 |
|      26 | 0x0006      |           6 |
|      27 | 0x005A      |          90 |
|      28 | 0x001A      |          26 |
|      29 | 0x2C45      |       11333 |
|      30 | 0x0007      |           7 |
|      31 | 0x2C47      |       11335 |
|      32 | 0x2C48      |       11336 |
|      33 | 0x2C49      |       11337 |
|      34 | 0x2C4A      |       11338 |
|      35 | 0x2C4B      |       11339 |
|      36 | 0x2C4C      |       11340 |
|      37 | 0x000D      |          13 |
|      38 | 0x2C4D      |       11341 |
|      39 | 0x000F      |          15 |
|      40 | 0x0047      |          71 |
|      41 | 0x05A7      |        1447 |
|      42 | 0x2C4E      |       11342 |
|      43 | 0x2C4F      |       11343 |
|      44 | 0x0603      |        1539 |
|      45 | 0x2C50      |       11344 |
|      46 | 0x2C51      |       11345 |
|      47 | 0x00C8      |         200 |
|      48 | 0x2C52      |       11346 |
|      49 | 0x2C53      |       11347 |
|      50 | 0x2C54      |       11348 |
|      51 | 0x0005      |           5 |
|      52 | 0x2C55      |       11349 |
|      53 | 0x2C56      |       11350 |
|      54 | 0x2C57      |       11351 |
|      55 | 0x0023      |          35 |
|      56 | 0x2C5B      |       11355 |
|      57 | 0x2C5C      |       11356 |
|      58 | 0x2C5D      |       11357 |
|      59 | 0x2C5E      |       11358 |
|      60 | 0x2C5F      |       11359 |
|      61 | 0x0016      |          22 |
|      62 | 0x2C60      |       11360 |
|      63 | 0x2C61      |       11361 |
|      64 | 0x00F0      |         240 |
|      65 | 0x0202      |         514 |
|      66 | 0x1D38E     |      119694 |
|      67 | 0xFFFFD112  |  4294955282 |
|      68 | 0xFFFFE0B7  |  4294959287 |
|      69 | 0x0FEC      |        4076 |
|      70 | 0x2C62      |       11362 |
|      71 | 0x0236      |         566 |
|      72 | 0x2C63      |       11363 |
|      73 | 0x2C64      |       11364 |
|      74 | 0x2C65      |       11365 |
|      75 | 0x2C66      |       11366 |
|      76 | 0x2C67      |       11367 |
|      77 | 0x002D      |          45 |
|      78 | 0x2C68      |       11368 |
|      79 | 0x2C69      |       11369 |
|      80 | 0x2C6A      |       11370 |
|      81 | 0x2C6B      |       11371 |
|      82 | 0x2C86      |       11398 |
|      83 | 0x2C87      |       11399 |
|      84 | 0x2C88      |       11400 |
|      85 | 0x2C89      |       11401 |
|      86 | 0x2C8A      |       11402 |
|      87 | 0x2C8B      |       11403 |
|      88 | 0x05A8      |        1448 |
|      89 | 0x2C8C      |       11404 |
|      90 | 0x2C8D      |       11405 |
|      91 | 0x2C8E      |       11406 |
|      92 | 0x0014      |          20 |
|      93 | 0x2C8F      |       11407 |
|      94 | 0x2C90      |       11408 |
|      95 | 0x2C6D      |       11373 |
|      96 | 0x2C6E      |       11374 |
|      97 | 0x2C6F      |       11375 |
|      98 | 0x2C70      |       11376 |
|      99 | 0x2C71      |       11377 |
|     100 | 0x2C72      |       11378 |
|     101 | 0x2C73      |       11379 |
|     102 | 0x2C74      |       11380 |
|     103 | 0x0078      |         120 |
|     104 | 0x100FB     |       65787 |
|     105 | 0xFFFFDED7  |  4294958807 |
|     106 | 0xFFFFE777  |  4294961015 |
|     107 | 0x0987      |        2439 |
|     108 | 0x1043E     |       66622 |
|     109 | 0xFFFFE203  |  4294959619 |
|     110 | 0x0986      |        2438 |
|     111 | 0x2778      |       10104 |
|     112 | 0x000A      |          10 |
|     113 | 0x2C75      |       11381 |
|     114 | 0x0584      |        1412 |
|     115 | 0x2C76      |       11382 |
|     116 | 0x2C77      |       11383 |
|     117 | 0x0520      |        1312 |
|     118 | 0x2C78      |       11384 |
|     119 | 0x2C79      |       11385 |
|     120 | 0x051E      |        1310 |
|     121 | 0x2C7A      |       11386 |
|     122 | 0x2C7B      |       11387 |
|     123 | 0x2C7C      |       11388 |
|     124 | 0x2C7D      |       11389 |
|     125 | 0x2C7E      |       11390 |
|     126 | 0x2C7F      |       11391 |
|     127 | 0x2C80      |       11392 |
|     128 | 0x00C9      |         201 |
|     129 | 0x0002      |           2 |
|     130 | 0x00D7      |         215 |

## String References

- **10104**: 
- **11332**: Enlist in the operation? [Yes, I'm intrigued./No, it's too shady.]

## Events

### Event 65535

#### Metadata

| Field        | Value   |
|--------------|---------|
| Entrypoint   | 0x0000  |
| Data Size    | 1 bytes |
| Instructions | 1       |

```
      00 01 02 03 04 05 06 07  08 09 0A 0B 0C 0D 0E 0F
      -- -- -- -- -- -- -- --  -- -- -- -- -- -- -- --
0000: 00                                                .               
```

#### Opcodes

```
  0: 0x0000 [0x00] END_REQSTACK()
```

### Event 250

#### Metadata

| Field        | Value      |
|--------------|------------|
| Entrypoint   | 0x0001     |
| Data Size    | 1234 bytes |
| Instructions | 161        |

```
      00 01 02 03 04 05 06 07  08 09 0A 0B 0C 0D 0E 0F
      -- -- -- -- -- -- -- --  -- -- -- -- -- -- -- --
0000:    42 1A 16 12 03 01 00  02 10 46 01 38 00 80 94   B........F.8...
0010: 01 F0 FF FF 7F 94 01 79  C0 0F 01 BA F0 FF FF 7F  .......y........
0020: 01 80 02 80 03 80 04 80  80 F0 FF FF 7F 80 79 C0  ..............y.
0030: 0F 01 4A F0 FF FF 7F 79  C0 0F 01 4A 79 C0 0F 01  ..J....y...Jy...
0040: F0 FF FF 7F 6F 76 79 C0  0F 01 1C 05 80 45 06 80  ....ovy......E..
0050: F0 FF FF 7F F0 FF FF 7F  7A 31 30 31 07 80 1A F5  ........z101....
0060: 11 02 01 00 08 80 00 74  00 2B 79 C0 0F 01 09 80  .......t.+y.....
0070: 23 01 F2 01 2B 79 C0 0F  01 0A 80 23 52 06 80 F0  #...+y.....#R...
0080: FF FF 7F F0 FF FF 7F 7A  31 30 31 45 06 80 F0 FF  .......z101E....
0090: FF 7F F0 FF FF 7F 7A 31  30 32 07 80 66 0B 80 79  ......z102..f..y
00A0: C0 0F 01 79 C0 0F 01 74  77 61 30 2B 79 C0 0F 01  ...y...twa0+y...
00B0: 0C 80 23 2B 79 C0 0F 01  0D 80 23 52 06 80 F0 FF  ..#+y.....#R....
00C0: FF 7F F0 FF FF 7F 7A 31  30 32 45 06 80 F0 FF FF  ......z102E.....
00D0: 7F F0 FF FF 7F 7A 31 30  33 07 80 66 0B 80 79 C0  .....z103..f..y.
00E0: 0F 01 79 C0 0F 01 74 77  61 31 2B 79 C0 0F 01 0E  ..y...twa1+y....
00F0: 80 23 2B 79 C0 0F 01 0F  80 23 53 79 C0 0F 01 79  .#+y.....#Sy...y
0100: C0 0F 01 74 77 61 31 52  06 80 F0 FF FF 7F F0 FF  ...twa1R........
0110: FF 7F 7A 31 30 33 45 06  80 F0 FF FF 7F F0 FF FF  ..z103E.........
0120: 7F 7A 31 30 34 07 80 6E  79 C0 0F 01 10 80 99 79  .z104..ny......y
0130: C0 0F 01 2B 79 C0 0F 01  11 80 1C 12 80 23 52 06  ...+y........#R.
0140: 80 F0 FF FF 7F F0 FF FF  7F 7A 31 30 34 45 06 80  .........z104E..
0150: F0 FF FF 7F F0 FF FF 7F  7A 31 30 36 07 80 66 0B  ........z106..f.
0160: 80 79 C0 0F 01 79 C0 0F  01 74 77 62 30 2B 79 C0  .y...y...twb0+y.
0170: 0F 01 13 80 23 2B 79 C0  0F 01 14 80 23 52 06 80  ....#+y.....#R..
0180: F0 FF FF 7F F0 FF FF 7F  7A 31 30 36 45 06 80 F0  ........z106E...
0190: FF FF 7F F0 FF FF 7F 7A  31 30 35 07 80 66 0B 80  .......z105..f..
01A0: 79 C0 0F 01 79 C0 0F 01  74 77 62 31 2B 79 C0 0F  y...y...twb1+y..
01B0: 01 15 80 23 2B 79 C0 0F  01 16 80 23 66 0B 80 79  ...#+y.....#f..y
01C0: C0 0F 01 79 C0 0F 01 74  6C 6B 30 2B 79 C0 0F 01  ...y...tlk0+y...
01D0: 17 80 1C 18 80 23 66 0B  80 79 C0 0F 01 79 C0 0F  .....#f..y...y..
01E0: 01 74 6C 6B 31 53 79 C0  0F 01 79 C0 0F 01 74 6C  .tlk1Sy...y...tl
01F0: 6B 31 24 19 80 07 80 07  80 25 02 00 10 08 80 00  k1$......%......
0200: 5D 02 6E F0 FF FF 7F 1A  80 99 F0 FF FF 7F 1C 1B  ].n.............
0210: 80 52 06 80 F0 FF FF 7F  F0 FF FF 7F 7A 31 30 31  .R..........z101
0220: 52 06 80 F0 FF FF 7F F0  FF FF 7F 7A 31 30 35 45  R..........z105E
0230: 06 80 F0 FF FF 7F F0 FF  FF 7F 7A 31 30 37 07 80  ..........z107..
0240: 6E 79 C0 0F 01 1C 80 99  79 C0 0F 01 2B 79 C0 0F  ny......y...+y..
0250: 01 1D 80 23 06 01 10 01  8E 04 01 5D 02 52 06 80  ...#.......].R..
0260: F0 FF FF 7F F0 FF FF 7F  7A 31 30 31 52 06 80 F0  ........z101R...
0270: FF FF 7F F0 FF FF 7F 7A  31 30 35 45 06 80 F0 FF  .......z105E....
0280: FF 7F F0 FF FF 7F 7A 31  30 38 07 80 6E F0 FF FF  ......z108..n...
0290: 7F 1E 80 99 F0 FF FF 7F  1C 18 80 6E 79 C0 0F 01  ...........ny...
02A0: 07 80 99 79 C0 0F 01 03  02 10 12 80 27 10 7C C0  ...y........'.|.
02B0: 0F 01 06 2B 79 C0 0F 01  1F 80 23 2B 79 C0 0F 01  ...+y.....#+y...
02C0: 20 80 23 2A 10 7C C0 0F  01 52 06 80 F0 FF FF 7F   .#*.|...R......
02D0: F0 FF FF 7F 7A 31 30 38  45 06 80 F0 FF FF 7F F0  ....z108E.......
02E0: FF FF 7F 7A 31 30 39 07  80 66 0B 80 79 C0 0F 01  ...z109..f..y...
02F0: 79 C0 0F 01 74 77 61 30  2B 79 C0 0F 01 21 80 23  y...twa0+y...!.#
0300: 2B 79 C0 0F 01 22 80 23  52 06 80 F0 FF FF 7F F0  +y...".#R.......
0310: FF FF 7F 7A 31 30 39 45  06 80 F0 FF FF 7F F0 FF  ...z109E........
0320: FF 7F 7A 31 31 30 07 80  66 0B 80 79 C0 0F 01 79  ..z110..f..y...y
0330: C0 0F 01 74 77 62 31 2B  79 C0 0F 01 23 80 23 2B  ...twb1+y...#.#+
0340: 79 C0 0F 01 24 80 23 27  10 F0 FF FF 7F 39 1C 05  y...$.#'.....9..
0350: 80 6E 79 C0 0F 01 25 80  99 79 C0 0F 01 2B 79 C0  .ny...%..y...+y.
0360: 0F 01 26 80 1C 27 80 2A  10 F0 FF FF 7F 4A F0 FF  ..&..'.*.....J..
0370: FF 7F 79 C0 0F 01 52 06  80 F0 FF FF 7F F0 FF FF  ..y...R.........
0380: 7F 7A 31 31 30 45 06 80  F0 FF FF 7F F0 FF FF 7F  .z110E..........
0390: 7A 31 31 31 07 80 6F 76  F0 FF FF 7F 23 27 10 79  z111..ov....#'.y
03A0: C0 0F 01 0C 1C 05 80 52  06 80 F0 FF FF 7F F0 FF  .......R........
03B0: FF 7F 7A 31 31 31 45 06  80 F0 FF FF 7F F0 FF FF  ..z111E.........
03C0: 7F 7A 31 31 32 07 80 2A  10 79 C0 0F 01 66 28 80  .z112..*.y...f(.
03D0: 79 C0 0F 01 79 C0 0F 01  70 61 73 30 1C 18 80 03  y...y...pas0....
03E0: 02 10 29 80 2B 79 C0 0F  01 2A 80 23 53 79 C0 0F  ..).+y...*.#Sy..
03F0: 01 79 C0 0F 01 70 61 73  30 2B 79 C0 0F 01 2B 80  .y...pas0+y...+.
0400: 23 52 06 80 F0 FF FF 7F  F0 FF FF 7F 7A 31 31 32  #R..........z112
0410: 45 06 80 F0 FF FF 7F F0  FF FF 7F 7A 31 31 33 07  E..........z113.
0420: 80 66 0B 80 79 C0 0F 01  79 C0 0F 01 74 77 62 30  .f..y...y...twb0
0430: 03 02 10 2C 80 2B 79 C0  0F 01 2D 80 23 66 0B 80  ...,.+y...-.#f..
0440: 79 C0 0F 01 79 C0 0F 01  74 77 62 31 2B 79 C0 0F  y...y...twb1+y..
0450: 01 2E 80 23 53 79 C0 0F  01 79 C0 0F 01 74 77 62  ...#Sy...y...twb
0460: 31 52 06 80 F0 FF FF 7F  F0 FF FF 7F 7A 31 31 33  1R..........z113
0470: 45 06 80 F0 FF FF 7F F0  FF FF 7F 7A 31 31 34 07  E..........z114.
0480: 80 27 10 79 C0 0F 01 0D  1C 18 80 05 01 10 1A 16  .'.y............
0490: 12 1C 05 80 52 06 80 F0  FF FF 7F F0 FF FF 7F 7A  ....R..........z
04A0: 31 31 34 45 06 80 F0 FF  FF 7F F0 FF FF 7F 30 62  114E..........0b
04B0: 6C 66 07 80 1C 27 80 AB  11 07 80 1C 08 80 46 00  lf...'........F.
04C0: 45 2F 80 F0 FF FF 7F F0  FF FF 7F 66 64 69 32 07  E/.........fdi2.
04D0: 80 21 00                                          .!.             
```

#### Opcodes

```
  0: 0x0001 [0x42] SET_CLI_EVENT_CANCEL_DATA()
  1: 0x0002 [0x1A] CALL_SUBROUTINE(address=0x1216)
  2: 0x0005 [0x03] ExtData[1]->WorkLocal[1] = Work_Zone[2]
  3: 0x000A [0x46] CAMERA_CONTROL: Disable user control
  4: 0x000C [0x38] SET_CLIENT_EVENT_MODE(mode=19*)
  5: 0x000F [0x94] LocalPlayer->Render.Flags3 ^= 0x01
  6: 0x0015 [0x94] Kieran (ID: 17809529/0x010FC079)->Render.Flags3 ^= 0x01
  7: 0x001B [0xBA] SET_ENTITY_POSITION(entity_id=LocalPlayer, pos_x=-0.022*, pos_z=15.575*, pos_y=-0.038*, direction=299.6°*)
  8: 0x0028 [0x80] LOAD_WAIT(entity=LocalPlayer)
  9: 0x002D [0x80] LOAD_WAIT(entity=Kieran (ID: 17809529/0x010FC079))
 10: 0x0032 [0x4A] LocalPlayer looks at Kieran (ID: 17809529/0x010FC079)
 11: 0x003B [0x4A] Kieran (ID: 17809529/0x010FC079) looks at LocalPlayer
 12: 0x0044 [0x6F] WAIT_FRAME_DELAY: Yield until WaitTime reaches zero
 13: 0x0045 [0x76] CHECK_ENTITY_RENDER_FLAGS: Wait until Kieran (ID: 17809529/0x010FC079) Render.Flags0 and Render.Flags3 conditions are met
 14: 0x004A [0x1C] WAIT(30* ticks)
 15: 0x004D [0x45] LOAD_SCHEDULED_TASK: Load scheduler "z101" with entities [LocalPlayer, LocalPlayer], work=[344*, 0*]
 16: 0x005E [0x1A] CALL_SUBROUTINE(address=0x11F5)
 17: 0x0061 [0x02] IF !(ExtData[1]->WorkLocal[1] == 1*) GOTO 0x0074
 18: 0x0069 [0x2B] Kieran (ID: 17809529/0x010FC079) [11334*]:
    → "Come crawlin' back, have ya?"
 19: 0x0070 [0x23] WAIT_FOR_DIALOG_INTERACTION
 20: 0x0071 [0x01] GOTO 0x01F2
 21: 0x0074 [0x2B] Kieran (ID: 17809529/0x010FC079) [11321*]:
    → "Hmph, so ya fancy yourself a [hero/heroine], eh? I guess ya look the part enough. How about I let ya in on a little secret?"
 22: 0x007B [0x23] WAIT_FOR_DIALOG_INTERACTION
 23: 0x007C [0x52] END_LOAD_SCHEDULER: End scheduler "z101" with entities [LocalPlayer, LocalPlayer], work=344*
 24: 0x008B [0x45] LOAD_SCHEDULED_TASK: Load scheduler "z102" with entities [LocalPlayer, LocalPlayer], work=[344*, 0*]
 25: 0x009C [0x66] LOAD_EXT_SCHEDULER_MAIN: Load scheduler "twa0" with entities [Kieran (ID: 17809529/0x010FC079), Kieran (ID: 17809529/0x010FC079)], work=9*
 26: 0x00AB [0x2B] Kieran (ID: 17809529/0x010FC079) [11322*]:
    → "You've heard of the Voidwatch operation, haven't ya? Well, I'm in charge of dolin' out missions for it in these parts."
 27: 0x00B2 [0x23] WAIT_FOR_DIALOG_INTERACTION
 28: 0x00B3 [0x2B] Kieran (ID: 17809529/0x010FC079) [11323*]:
    → "The official line is that the Grand Duchy of Jeuno oversees the whole organization, with local branches in each of the three nations. But any sailor worth 'is salt should already know that; elsewise, I'd suggest pullin' the kelp outcha ears an' payin' attention!"
 29: 0x00BA [0x23] WAIT_FOR_DIALOG_INTERACTION
 30: 0x00BB [0x52] END_LOAD_SCHEDULER: End scheduler "z102" with entities [LocalPlayer, LocalPlayer], work=344*
 31: 0x00CA [0x45] LOAD_SCHEDULED_TASK: Load scheduler "z103" with entities [LocalPlayer, LocalPlayer], work=[344*, 0*]
 32: 0x00DB [0x66] LOAD_EXT_SCHEDULER_MAIN: Load scheduler "twa1" with entities [Kieran (ID: 17809529/0x010FC079), Kieran (ID: 17809529/0x010FC079)], work=9*
 33: 0x00EA [0x2B] Kieran (ID: 17809529/0x010FC079) [11324*]:
    → "Anyway, protecting multiple nations is difficult. Yer ceaselessly runnin' long n' lonely border patrols lest a sudden squall blow yer hard-won peace clean to flinders. But you know what's easier to control than borders? Information. The extent of it that gets released to the public amounts to nothin' more than the mud-caked tip of Zuug the Shoreleaper's massive spear."
 34: 0x00F1 [0x23] WAIT_FOR_DIALOG_INTERACTION
 35: 0x00F2 [0x2B] Kieran (ID: 17809529/0x010FC079) [11325*]:
    → "The more deftly ya hide that unpleasant intelligence, the safer the citizens will feel. However, even a tiny point of truth can rip a nation to shreds if it pokes through. That's why ya have to keep things under wraps, ya see."
 36: 0x00F9 [0x23] WAIT_FOR_DIALOG_INTERACTION
 37: 0x00FA [0x53] WAIT_SCHEDULER_TASK: Wait for scheduler "twa1" with entities [Kieran (ID: 17809529/0x010FC079), Kieran (ID: 17809529/0x010FC079)]
 38: 0x0107 [0x52] END_LOAD_SCHEDULER: End scheduler "z103" with entities [LocalPlayer, LocalPlayer], work=344*
 39: 0x0116 [0x45] LOAD_SCHEDULED_TASK: Load scheduler "z104" with entities [LocalPlayer, LocalPlayer], work=[344*, 0*]
 40: 0x0127 [0x6E] Kieran (ID: 17809529/0x010FC079) uses emote 4*
 41: 0x012E [0x99] Wait for Kieran (ID: 17809529/0x010FC079) animation to complete
 42: 0x0133 [0x2B] Kieran (ID: 17809529/0x010FC079) [11326*]:
    → "Just like the old adage asserts, ignorance truly is bliss. Bweheheheh."
 43: 0x013A [0x1C] WAIT(150* ticks)
 44: 0x013D [0x23] WAIT_FOR_DIALOG_INTERACTION
 45: 0x013E [0x52] END_LOAD_SCHEDULER: End scheduler "z104" with entities [LocalPlayer, LocalPlayer], work=344*
 46: 0x014D [0x45] LOAD_SCHEDULED_TASK: Load scheduler "z106" with entities [LocalPlayer, LocalPlayer], work=[344*, 0*]
 47: 0x015E [0x66] LOAD_EXT_SCHEDULER_MAIN: Load scheduler "twb0" with entities [Kieran (ID: 17809529/0x010FC079), Kieran (ID: 17809529/0x010FC079)], work=9*
 48: 0x016D [0x2B] Kieran (ID: 17809529/0x010FC079) [11327*]:
    → "And so, this is where we come in. We handle problems th' Duchy an' other nations don't want to dirty their pretty lil' white-gloved hands wid. Think of us as very unofficial--and very well-paid--deck swabbers, bwehehehe."
 49: 0x0174 [0x23] WAIT_FOR_DIALOG_INTERACTION
 50: 0x0175 [0x2B] Kieran (ID: 17809529/0x010FC079) [11328*]:
    → "Course this means bein' as black-'earted an' cold as th' void from which these abominations strike. And since so few know of our existence, we can go about our business in our own fashion. We need not concern ourselves with the political quagmire people call "diplomacy.""
 51: 0x017C [0x23] WAIT_FOR_DIALOG_INTERACTION
 52: 0x017D [0x52] END_LOAD_SCHEDULER: End scheduler "z106" with entities [LocalPlayer, LocalPlayer], work=344*
 53: 0x018C [0x45] LOAD_SCHEDULED_TASK: Load scheduler "z105" with entities [LocalPlayer, LocalPlayer], work=[344*, 0*]
 54: 0x019D [0x66] LOAD_EXT_SCHEDULER_MAIN: Load scheduler "twb1" with entities [Kieran (ID: 17809529/0x010FC079), Kieran (ID: 17809529/0x010FC079)], work=9*
 55: 0x01AC [0x2B] Kieran (ID: 17809529/0x010FC079) [11329*]:
    → "The long and the short of it is this: we're a necessary evil."
 56: 0x01B3 [0x23] WAIT_FOR_DIALOG_INTERACTION
 57: 0x01B4 [0x2B] Kieran (ID: 17809529/0x010FC079) [11330*]:
    → "Come to think of it, you adventurers aren't so different from us. As long as ya can reap a reward, you'll do as needs doin' widdout so much as a roll of the eyes; and that's exactly the kind of attitude we need."
 58: 0x01BB [0x23] WAIT_FOR_DIALOG_INTERACTION
 59: 0x01BC [0x66] LOAD_EXT_SCHEDULER_MAIN: Load scheduler "tlk0" with entities [Kieran (ID: 17809529/0x010FC079), Kieran (ID: 17809529/0x010FC079)], work=9*
 60: 0x01CB [0x2B] Kieran (ID: 17809529/0x010FC079) [11331*]:
    → "So, whaddya say? Want to earn a little coin by slinkin' through the shadows?"
 61: 0x01D2 [0x1C] WAIT(60* ticks)
 62: 0x01D5 [0x23] WAIT_FOR_DIALOG_INTERACTION
 63: 0x01D6 [0x66] LOAD_EXT_SCHEDULER_MAIN: Load scheduler "tlk1" with entities [Kieran (ID: 17809529/0x010FC079), Kieran (ID: 17809529/0x010FC079)], work=9*
 64: 0x01E5 [0x53] WAIT_SCHEDULER_TASK: Wait for scheduler "tlk1" with entities [Kieran (ID: 17809529/0x010FC079), Kieran (ID: 17809529/0x010FC079)]

SUBROUTINE_01F2:
 65: 0x01F2 [0x24] CREATE_DIALOG(message_id=11332*, default_option=0*, option_flags=0*)
    → "Enlist in the operation? [Yes, I'm intrigued./No, it's too shady.]"
 66: 0x01F9 [0x25] WAIT_DIALOG_SELECT()
 67: 0x01FA [0x02] IF !(Work_Zone[0] == 1*) GOTO 0x025D
 68: 0x0202 [0x6E] LocalPlayer uses emote 6*
 69: 0x0209 [0x99] Wait for LocalPlayer animation to complete
 70: 0x020E [0x1C] WAIT(90* ticks)
 71: 0x0211 [0x52] END_LOAD_SCHEDULER: End scheduler "z101" with entities [LocalPlayer, LocalPlayer], work=344*
 72: 0x0220 [0x52] END_LOAD_SCHEDULER: End scheduler "z105" with entities [LocalPlayer, LocalPlayer], work=344*
 73: 0x022F [0x45] LOAD_SCHEDULED_TASK: Load scheduler "z107" with entities [LocalPlayer, LocalPlayer], work=[344*, 0*]
 74: 0x0240 [0x6E] Kieran (ID: 17809529/0x010FC079) uses emote 26*
 75: 0x0247 [0x99] Wait for Kieran (ID: 17809529/0x010FC079) animation to complete
 76: 0x024C [0x2B] Kieran (ID: 17809529/0x010FC079) [11333*]:
    → "Fine, go back t' hidin' behind yer mum's skirts if yer so scared of the dark. But don't go flappin' those oversized lips of yers about us to anyone, lest ya wake one morning wid none at all. But if ya ever get more heart than a rabbit, talk to me again and maybe maybe we'll find a use for ya."
 77: 0x0253 [0x23] WAIT_FOR_DIALOG_INTERACTION
 78: 0x0254 [0x06] Work_Zone[1] = 0
 79: 0x0257 [0x01] GOTO 0x048E

SUBROUTINE_025D:
 80: 0x025D [0x52] END_LOAD_SCHEDULER: End scheduler "z101" with entities [LocalPlayer, LocalPlayer], work=344*
 81: 0x026C [0x52] END_LOAD_SCHEDULER: End scheduler "z105" with entities [LocalPlayer, LocalPlayer], work=344*
 82: 0x027B [0x45] LOAD_SCHEDULED_TASK: Load scheduler "z108" with entities [LocalPlayer, LocalPlayer], work=[344*, 0*]
 83: 0x028C [0x6E] LocalPlayer uses emote 7*
 84: 0x0293 [0x99] Wait for LocalPlayer animation to complete
 85: 0x0298 [0x1C] WAIT(60* ticks)
 86: 0x029B [0x6E] Kieran (ID: 17809529/0x010FC079) uses emote 0*
 87: 0x02A2 [0x99] Wait for Kieran (ID: 17809529/0x010FC079) animation to complete
 88: 0x02A7 [0x03] Work_Zone[2] = 150*
 89: 0x02AC [0x27] REQ_SET(priority=0x10, entity_id=??? (ID: 17809532/0x010FC07C), tag_num=0x06)
 90: 0x02B3 [0x2B] Kieran (ID: 17809529/0x010FC079) [11335*]:
    → "A laudable decision. Now, pay attention, 'cause I'm not goin' to repeat myself."
 91: 0x02BA [0x23] WAIT_FOR_DIALOG_INTERACTION
 92: 0x02BB [0x2B] Kieran (ID: 17809529/0x010FC079) [11336*]:
    → "We have operatives stationed in both Kazham and Rabao--scratch their backs, and they'll scratch yers."
 93: 0x02C2 [0x23] WAIT_FOR_DIALOG_INTERACTION
 94: 0x02C3 [0x2A] GET_REQ_LEVEL(level=16, entity_id=??? (ID: 17809532/0x010FC07C))
 95: 0x02C9 [0x52] END_LOAD_SCHEDULER: End scheduler "z108" with entities [LocalPlayer, LocalPlayer], work=344*
 96: 0x02D8 [0x45] LOAD_SCHEDULED_TASK: Load scheduler "z109" with entities [LocalPlayer, LocalPlayer], work=[344*, 0*]
 97: 0x02E9 [0x66] LOAD_EXT_SCHEDULER_MAIN: Load scheduler "twa0" with entities [Kieran (ID: 17809529/0x010FC079), Kieran (ID: 17809529/0x010FC079)], work=9*
 98: 0x02F8 [0x2B] Kieran (ID: 17809529/0x010FC079) [11337*]:
    → "What's this, scared already? I can't hear myself think o'er the sound of yer knees knockin', so pull y'self together till I've had my say. I never said this had to be a solo mission, whelp."
 99: 0x02FF [0x23] WAIT_FOR_DIALOG_INTERACTION
100: 0x0300 [0x2B] Kieran (ID: 17809529/0x010FC079) [11338*]:
    → "Other adventurers have enlisted with us, most of them so strong they could eviscerate the likes of ya with a fingernail. Any one of them should make a fine companion. As much as I would love to prove my strength to ya on the battlefield, us officers are tasked only with supplyin' the locations and names of yer targets. So there. Oh, and ya better show some initiative from start to finish, or ya won't be gettin' anythin' from the pyxides."
101: 0x0307 [0x23] WAIT_FOR_DIALOG_INTERACTION
102: 0x0308 [0x52] END_LOAD_SCHEDULER: End scheduler "z109" with entities [LocalPlayer, LocalPlayer], work=344*
103: 0x0317 [0x45] LOAD_SCHEDULED_TASK: Load scheduler "z110" with entities [LocalPlayer, LocalPlayer], work=[344*, 0*]
104: 0x0328 [0x66] LOAD_EXT_SCHEDULER_MAIN: Load scheduler "twb1" with entities [Kieran (ID: 17809529/0x010FC079), Kieran (ID: 17809529/0x010FC079)], work=9*
105: 0x0337 [0x2B] Kieran (ID: 17809529/0x010FC079) [11339*]:
    → "I hear the rewards for completin' these tasks are quite the treasures, too. Should ya happen to chance upon some courage within that craven heart of yours, ya may also fight alone and save them all for y'self."
106: 0x033E [0x23] WAIT_FOR_DIALOG_INTERACTION
107: 0x033F [0x2B] Kieran (ID: 17809529/0x010FC079) [11340*]:
    → "Ugh, I've had enough of that repulsive mug of yers. Get out of my face and come back when ya've actually done somethin'."
108: 0x0346 [0x23] WAIT_FOR_DIALOG_INTERACTION
109: 0x0347 [0x27] REQ_SET(priority=0x10, entity_id=LocalPlayer, tag_num=0x39)
110: 0x034E [0x1C] WAIT(30* ticks)
111: 0x0351 [0x6E] Kieran (ID: 17809529/0x010FC079) uses emote 13*
112: 0x0358 [0x99] Wait for Kieran (ID: 17809529/0x010FC079) animation to complete
113: 0x035D [0x2B] Kieran (ID: 17809529/0x010FC079) [11341*]:
    → "Halt! Belay that order! I may not like the look of ya, but you'll be needin' this nonetheless."
114: 0x0364 [0x1C] WAIT(15* ticks)
115: 0x0367 [0x2A] GET_REQ_LEVEL(level=16, entity_id=LocalPlayer)
116: 0x036D [0x4A] LocalPlayer looks at Kieran (ID: 17809529/0x010FC079)
117: 0x0376 [0x52] END_LOAD_SCHEDULER: End scheduler "z110" with entities [LocalPlayer, LocalPlayer], work=344*
118: 0x0385 [0x45] LOAD_SCHEDULED_TASK: Load scheduler "z111" with entities [LocalPlayer, LocalPlayer], work=[344*, 0*]
119: 0x0396 [0x6F] WAIT_FRAME_DELAY: Yield until WaitTime reaches zero
120: 0x0397 [0x76] CHECK_ENTITY_RENDER_FLAGS: Wait until LocalPlayer Render.Flags0 and Render.Flags3 conditions are met
121: 0x039C [0x23] WAIT_FOR_DIALOG_INTERACTION
122: 0x039D [0x27] REQ_SET(priority=0x10, entity_id=Kieran (ID: 17809529/0x010FC079), tag_num=0x0C)
123: 0x03A4 [0x1C] WAIT(30* ticks)
124: 0x03A7 [0x52] END_LOAD_SCHEDULER: End scheduler "z111" with entities [LocalPlayer, LocalPlayer], work=344*
125: 0x03B6 [0x45] LOAD_SCHEDULED_TASK: Load scheduler "z112" with entities [LocalPlayer, LocalPlayer], work=[344*, 0*]
126: 0x03C7 [0x2A] GET_REQ_LEVEL(level=16, entity_id=Kieran (ID: 17809529/0x010FC079))
127: 0x03CD [0x66] LOAD_EXT_SCHEDULER_MAIN: Load scheduler "pas0" with entities [Kieran (ID: 17809529/0x010FC079), Kieran (ID: 17809529/0x010FC079)], work=71*
128: 0x03DC [0x1C] WAIT(60* ticks)
129: 0x03DF [0x03] Work_Zone[2] = 1447*
130: 0x03E4 [0x2B] Kieran (ID: 17809529/0x010FC079) [11342*]:
    → "Even a dim greenhorn like y'self knows what $3 looks like, right?"
131: 0x03EB [0x23] WAIT_FOR_DIALOG_INTERACTION
132: 0x03EC [0x53] WAIT_SCHEDULER_TASK: Wait for scheduler "pas0" with entities [Kieran (ID: 17809529/0x010FC079), Kieran (ID: 17809529/0x010FC079)]
133: 0x03F9 [0x2B] Kieran (ID: 17809529/0x010FC079) [11343*]:
    → "Just show this to my fellow agents in Kazham and Rabao."
134: 0x0400 [0x23] WAIT_FOR_DIALOG_INTERACTION
135: 0x0401 [0x52] END_LOAD_SCHEDULER: End scheduler "z112" with entities [LocalPlayer, LocalPlayer], work=344*
136: 0x0410 [0x45] LOAD_SCHEDULED_TASK: Load scheduler "z113" with entities [LocalPlayer, LocalPlayer], work=[344*, 0*]
137: 0x0421 [0x66] LOAD_EXT_SCHEDULER_MAIN: Load scheduler "twb0" with entities [Kieran (ID: 17809529/0x010FC079), Kieran (ID: 17809529/0x010FC079)], work=9*
138: 0x0430 [0x03] Work_Zone[2] = 1539*
139: 0x0435 [0x2B] Kieran (ID: 17809529/0x010FC079) [11344*]:
    → "I'm sure I don't need to tell someone of yer oh-so-legendary stature that it's used to call forth Voidwalkers. However, procurin' some $5 might give ya the upper hand...not that yer haughty highness would need it."
140: 0x043C [0x23] WAIT_FOR_DIALOG_INTERACTION
141: 0x043D [0x66] LOAD_EXT_SCHEDULER_MAIN: Load scheduler "twb1" with entities [Kieran (ID: 17809529/0x010FC079), Kieran (ID: 17809529/0x010FC079)], work=9*
142: 0x044C [0x2B] Kieran (ID: 17809529/0x010FC079) [11345*]:
    → "Also, my directives involve only the cloak-and-dagger aspects of this trade. I find no reason to concern myself with the mundane particulars of our operations. Should ya wish to risk having yer ears jabbered off over such banalities, go see a Voidwatch Officer."
143: 0x0453 [0x23] WAIT_FOR_DIALOG_INTERACTION
144: 0x0454 [0x53] WAIT_SCHEDULER_TASK: Wait for scheduler "twb1" with entities [Kieran (ID: 17809529/0x010FC079), Kieran (ID: 17809529/0x010FC079)]
145: 0x0461 [0x52] END_LOAD_SCHEDULER: End scheduler "z113" with entities [LocalPlayer, LocalPlayer], work=344*
146: 0x0470 [0x45] LOAD_SCHEDULED_TASK: Load scheduler "z114" with entities [LocalPlayer, LocalPlayer], work=[344*, 0*]
147: 0x0481 [0x27] REQ_SET(priority=0x10, entity_id=Kieran (ID: 17809529/0x010FC079), tag_num=0x0D)
148: 0x0488 [0x1C] WAIT(60* ticks)
149: 0x048B [0x05] Work_Zone[1] = 1

SUBROUTINE_048E:
150: 0x048E [0x1A] CALL_SUBROUTINE(address=0x1216)
151: 0x0491 [0x1C] WAIT(30* ticks)
152: 0x0494 [0x52] END_LOAD_SCHEDULER: End scheduler "z114" with entities [LocalPlayer, LocalPlayer], work=344*
153: 0x04A3 [0x45] LOAD_SCHEDULED_TASK: Load scheduler "0blf" with entities [LocalPlayer, LocalPlayer], work=[344*, 0*]
154: 0x04B4 [0x1C] WAIT(15* ticks)
155: 0x04B7 [0xAB] EventEntity->DespawnValue = 0* // Set despawn value
156: 0x04BB [0x1C] WAIT(1* ticks)
157: 0x04BE [0x46] CAMERA_CONTROL: Restore default settings
158: 0x04C0 [0x45] LOAD_SCHEDULED_TASK: Load scheduler "fdi2" with entities [LocalPlayer, LocalPlayer], work=[200*, 0*]
159: 0x04D1 [0x21] END_EVENT
160: 0x04D2 [0x00] END_REQSTACK()
```

#### Data or dead code:

```
# Dead code (unreachable instructions):
     0x025A [0x01] GOTO 0x025D
```

### Event 252

#### Metadata

| Field        | Value     |
|--------------|-----------|
| Entrypoint   | 0x04D3    |
| Data Size    | 535 bytes |
| Instructions | 73        |

```
      00 01 02 03 04 05 06 07  08 09 0A 0B 0C 0D 0E 0F
      -- -- -- -- -- -- -- --  -- -- -- -- -- -- -- --
04D0:          42 1A 16 12 03  01 00 02 10 46 01 38 00     B........F.8.
04E0: 80 94 01 F0 FF FF 7F 94  01 79 C0 0F 01 BA F0 FF  .........y......
04F0: FF 7F 01 80 02 80 03 80  04 80 80 F0 FF FF 7F 4A  ...............J
0500: F0 FF FF 7F 79 C0 0F 01  4A 79 C0 0F 01 F0 FF FF  ....y...Jy......
0510: 7F 6F 76 79 C0 0F 01 1C  05 80 45 06 80 F0 FF FF  .ovy......E.....
0520: 7F F0 FF FF 7F 7A 32 30  31 07 80 1A F5 11 2B 79  .....z201.....+y
0530: C0 0F 01 30 80 23 52 06  80 F0 FF FF 7F F0 FF FF  ...0.#R.........
0540: 7F 7A 32 30 31 45 06 80  F0 FF FF 7F F0 FF FF 7F  .z201E..........
0550: 7A 32 30 32 07 80 66 0B  80 79 C0 0F 01 79 C0 0F  z202..f..y...y..
0560: 01 74 77 61 30 2B 79 C0  0F 01 31 80 23 2B 79 C0  .twa0+y...1.#+y.
0570: 0F 01 32 80 23 29 10 F0  FF FF 7F 3B 52 06 80 F0  ..2.#).....;R...
0580: FF FF 7F F0 FF FF 7F 7A  32 30 32 02 02 10 33 80  .......z202...3.
0590: 80 A7 05 45 06 80 F0 FF  FF 7F F0 FF FF 7F 7A 32  ...E..........z2
05A0: 30 34 07 80 01 D4 05 02  02 10 1A 80 80 C3 05 45  04.............E
05B0: 06 80 F0 FF FF 7F F0 FF  FF 7F 7A 32 30 34 07 80  ..........z204..
05C0: 01 D4 05 45 06 80 F0 FF  FF 7F F0 FF FF 7F 7A 32  ...E..........z2
05D0: 30 33 07 80 66 0B 80 79  C0 0F 01 79 C0 0F 01 74  03..f..y...y...t
05E0: 77 61 31 1C 05 80 2B 79  C0 0F 01 34 80 23 53 79  wa1...+y...4.#Sy
05F0: C0 0F 01 79 C0 0F 01 74  77 61 31 7B 79 C0 0F 01  ...y...twa1{y...
0600: 66 0B 80 79 C0 0F 01 79  C0 0F 01 74 68 6B 31 1C  f..y...y...thk1.
0610: 18 80 2B 79 C0 0F 01 35  80 1C 18 80 27 10 F0 FF  ..+y...5....'...
0620: FF 7F 38 79 00 79 C0 0F  01 F0 FF FF 7F 1C 18 80  ..8y.y..........
0630: 52 06 80 F0 FF FF 7F F0  FF FF 7F 7A 32 30 33 52  R..........z203R
0640: 06 80 F0 FF FF 7F F0 FF  FF 7F 7A 32 30 34 45 06  ..........z204E.
0650: 80 F0 FF FF 7F F0 FF FF  7F 7A 32 30 35 07 80 1C  .........z205...
0660: 05 80 66 0B 80 79 C0 0F  01 79 C0 0F 01 74 68 6B  ..f..y...y...thk
0670: 32 23 53 79 C0 0F 01 79  C0 0F 01 74 68 6B 32 6E  2#Sy...y...thk2n
0680: 79 C0 0F 01 1C 80 99 79  C0 0F 01 2B 79 C0 0F 01  y......y...+y...
0690: 36 80 1C 05 80 6E F0 FF  FF 7F 37 80 99 F0 FF FF  6....n....7.....
06A0: 7F 1C 18 80 23 1A 16 12  1C 05 80 52 06 80 F0 FF  ....#......R....
06B0: FF 7F F0 FF FF 7F 7A 32  30 35 45 06 80 F0 FF FF  ......z205E.....
06C0: 7F F0 FF FF 7F 30 62 6C  66 07 80 1C 27 80 AB 11  .....0blf...'...
06D0: 07 80 1C 08 80 46 00 45  2F 80 F0 FF FF 7F F0 FF  .....F.E/.......
06E0: FF 7F 66 64 69 32 07 80  21 00                    ..fdi2..!.      
```

#### Opcodes

```
  0: 0x04D3 [0x42] SET_CLI_EVENT_CANCEL_DATA()
  1: 0x04D4 [0x1A] CALL_SUBROUTINE(address=0x1216)
  2: 0x04D7 [0x03] ExtData[1]->WorkLocal[1] = Work_Zone[2]
  3: 0x04DC [0x46] CAMERA_CONTROL: Disable user control
  4: 0x04DE [0x38] SET_CLIENT_EVENT_MODE(mode=19*)
  5: 0x04E1 [0x94] LocalPlayer->Render.Flags3 ^= 0x01
  6: 0x04E7 [0x94] Kieran (ID: 17809529/0x010FC079)->Render.Flags3 ^= 0x01
  7: 0x04ED [0xBA] SET_ENTITY_POSITION(entity_id=LocalPlayer, pos_x=-0.022*, pos_z=15.575*, pos_y=-0.038*, direction=299.6°*)
  8: 0x04FA [0x80] LOAD_WAIT(entity=LocalPlayer)
  9: 0x04FF [0x4A] LocalPlayer looks at Kieran (ID: 17809529/0x010FC079)
 10: 0x0508 [0x4A] Kieran (ID: 17809529/0x010FC079) looks at LocalPlayer
 11: 0x0511 [0x6F] WAIT_FRAME_DELAY: Yield until WaitTime reaches zero
 12: 0x0512 [0x76] CHECK_ENTITY_RENDER_FLAGS: Wait until Kieran (ID: 17809529/0x010FC079) Render.Flags0 and Render.Flags3 conditions are met
 13: 0x0517 [0x1C] WAIT(30* ticks)
 14: 0x051A [0x45] LOAD_SCHEDULED_TASK: Load scheduler "z201" with entities [LocalPlayer, LocalPlayer], work=[344*, 0*]
 15: 0x052B [0x1A] CALL_SUBROUTINE(address=0x11F5)
 16: 0x052E [0x2B] Kieran (ID: 17809529/0x010FC079) [11346*]:
    → "Ah, there ya are. I heard about yer exploits in Kazham and Rabao. Maybe I misjudged you..."
 17: 0x0535 [0x23] WAIT_FOR_DIALOG_INTERACTION
 18: 0x0536 [0x52] END_LOAD_SCHEDULER: End scheduler "z201" with entities [LocalPlayer, LocalPlayer], work=344*
 19: 0x0545 [0x45] LOAD_SCHEDULED_TASK: Load scheduler "z202" with entities [LocalPlayer, LocalPlayer], work=[344*, 0*]
 20: 0x0556 [0x66] LOAD_EXT_SCHEDULER_MAIN: Load scheduler "twa0" with entities [Kieran (ID: 17809529/0x010FC079), Kieran (ID: 17809529/0x010FC079)], work=9*
 21: 0x0565 [0x2B] Kieran (ID: 17809529/0x010FC079) [11347*]:
    → "But don't assume ya've earned our trust after two measly missions. Come back when yer a bit more seasoned, then I might have something for ya."
 22: 0x056C [0x23] WAIT_FOR_DIALOG_INTERACTION
 23: 0x056D [0x2B] Kieran (ID: 17809529/0x010FC079) [11348*]:
    → "Why do I think this job would send you crying back to yer mother? Because the boss said so...in not quite so many words."
 24: 0x0574 [0x23] WAIT_FOR_DIALOG_INTERACTION
 25: 0x0575 [0x29] REQ_SET_WAIT(priority=0x10, entity_id=LocalPlayer, tag_num=0x3B)
 26: 0x057C [0x52] END_LOAD_SCHEDULER: End scheduler "z202" with entities [LocalPlayer, LocalPlayer], work=344*
 27: 0x058B [0x02] IF !(Work_Zone[2] == 5*) GOTO 0x05A7
 28: 0x0593 [0x45] LOAD_SCHEDULED_TASK: Load scheduler "z204" with entities [LocalPlayer, LocalPlayer], work=[344*, 0*]
 29: 0x05A4 [0x01] GOTO 0x05D4
 30: 0x05A7 [0x02] IF !(Work_Zone[2] == 6*) GOTO 0x05C3
 31: 0x05AF [0x45] LOAD_SCHEDULED_TASK: Load scheduler "z204" with entities [LocalPlayer, LocalPlayer], work=[344*, 0*]
 32: 0x05C0 [0x01] GOTO 0x05D4
 33: 0x05C3 [0x45] LOAD_SCHEDULED_TASK: Load scheduler "z203" with entities [LocalPlayer, LocalPlayer], work=[344*, 0*]

SUBROUTINE_05D4:
 34: 0x05D4 [0x66] LOAD_EXT_SCHEDULER_MAIN: Load scheduler "twa1" with entities [Kieran (ID: 17809529/0x010FC079), Kieran (ID: 17809529/0x010FC079)], work=9*
 35: 0x05E3 [0x1C] WAIT(30* ticks)
 36: 0x05E6 [0x2B] Kieran (ID: 17809529/0x010FC079) [11349*]:
    → "Think yer a better judge of yer own abilities than the boss, eh?"
 37: 0x05ED [0x23] WAIT_FOR_DIALOG_INTERACTION
 38: 0x05EE [0x53] WAIT_SCHEDULER_TASK: Wait for scheduler "twa1" with entities [Kieran (ID: 17809529/0x010FC079), Kieran (ID: 17809529/0x010FC079)]
 39: 0x05FB [0x7B] Kieran (ID: 17809529/0x010FC079) stops talking
 40: 0x0600 [0x66] LOAD_EXT_SCHEDULER_MAIN: Load scheduler "thk1" with entities [Kieran (ID: 17809529/0x010FC079), Kieran (ID: 17809529/0x010FC079)], work=9*
 41: 0x060F [0x1C] WAIT(60* ticks)
 42: 0x0612 [0x2B] Kieran (ID: 17809529/0x010FC079) [11350*]:
    → "Then try finding a better way to grab the boss's attention."
 43: 0x0619 [0x1C] WAIT(60* ticks)
 44: 0x061C [0x27] REQ_SET(priority=0x10, entity_id=LocalPlayer, tag_num=0x38)
 45: 0x0623 [0x79] Kieran (ID: 17809529/0x010FC079) looks at LocalPlayer (Basic look)
 46: 0x062D [0x1C] WAIT(60* ticks)
 47: 0x0630 [0x52] END_LOAD_SCHEDULER: End scheduler "z203" with entities [LocalPlayer, LocalPlayer], work=344*
 48: 0x063F [0x52] END_LOAD_SCHEDULER: End scheduler "z204" with entities [LocalPlayer, LocalPlayer], work=344*
 49: 0x064E [0x45] LOAD_SCHEDULED_TASK: Load scheduler "z205" with entities [LocalPlayer, LocalPlayer], work=[344*, 0*]
 50: 0x065F [0x1C] WAIT(30* ticks)
 51: 0x0662 [0x66] LOAD_EXT_SCHEDULER_MAIN: Load scheduler "thk2" with entities [Kieran (ID: 17809529/0x010FC079), Kieran (ID: 17809529/0x010FC079)], work=9*
 52: 0x0671 [0x23] WAIT_FOR_DIALOG_INTERACTION
 53: 0x0672 [0x53] WAIT_SCHEDULER_TASK: Wait for scheduler "thk2" with entities [Kieran (ID: 17809529/0x010FC079), Kieran (ID: 17809529/0x010FC079)]
 54: 0x067F [0x6E] Kieran (ID: 17809529/0x010FC079) uses emote 26*
 55: 0x0686 [0x99] Wait for Kieran (ID: 17809529/0x010FC079) animation to complete
 56: 0x068B [0x2B] Kieran (ID: 17809529/0x010FC079) [11351*]:
    → "How exactly do ya accomplish that? Hahaha, don't make me split my sides. I thought ya called yourself an adventurer. Then use that half-rotten melon ya call a head and think of something y'self."
 57: 0x0692 [0x1C] WAIT(30* ticks)
 58: 0x0695 [0x6E] LocalPlayer uses emote 35*
 59: 0x069C [0x99] Wait for LocalPlayer animation to complete
 60: 0x06A1 [0x1C] WAIT(60* ticks)
 61: 0x06A4 [0x23] WAIT_FOR_DIALOG_INTERACTION
 62: 0x06A5 [0x1A] CALL_SUBROUTINE(address=0x1216)
 63: 0x06A8 [0x1C] WAIT(30* ticks)
 64: 0x06AB [0x52] END_LOAD_SCHEDULER: End scheduler "z205" with entities [LocalPlayer, LocalPlayer], work=344*
 65: 0x06BA [0x45] LOAD_SCHEDULED_TASK: Load scheduler "0blf" with entities [LocalPlayer, LocalPlayer], work=[344*, 0*]
 66: 0x06CB [0x1C] WAIT(15* ticks)
 67: 0x06CE [0xAB] EventEntity->DespawnValue = 0* // Set despawn value
 68: 0x06D2 [0x1C] WAIT(1* ticks)
 69: 0x06D5 [0x46] CAMERA_CONTROL: Restore default settings
 70: 0x06D7 [0x45] LOAD_SCHEDULED_TASK: Load scheduler "fdi2" with entities [LocalPlayer, LocalPlayer], work=[200*, 0*]
 71: 0x06E8 [0x21] END_EVENT
 72: 0x06E9 [0x00] END_REQSTACK()
```

### Event 254

#### Metadata

| Field        | Value     |
|--------------|-----------|
| Entrypoint   | 0x06EA    |
| Data Size    | 370 bytes |
| Instructions | 55        |

```
      00 01 02 03 04 05 06 07  08 09 0A 0B 0C 0D 0E 0F
      -- -- -- -- -- -- -- --  -- -- -- -- -- -- -- --
06E0:                                42 1A 16 12 03 01            B.....
06F0: 00 02 10 46 01 38 00 80  94 01 F0 FF FF 7F 94 01  ...F.8..........
0700: 79 C0 0F 01 BA F0 FF FF  7F 01 80 02 80 03 80 04  y...............
0710: 80 80 F0 FF FF 7F 4A F0  FF FF 7F 79 C0 0F 01 4A  ......J....y...J
0720: 79 C0 0F 01 F0 FF FF 7F  6F 76 79 C0 0F 01 1C 05  y.......ovy.....
0730: 80 45 06 80 F0 FF FF 7F  F0 FF FF 7F 7A 33 30 31  .E..........z301
0740: 07 80 1A F5 11 66 0B 80  79 C0 0F 01 79 C0 0F 01  .....f..y...y...
0750: 74 77 62 30 2B 79 C0 0F  01 38 80 23 2B 79 C0 0F  twb0+y...8.#+y..
0760: 01 39 80 23 52 06 80 F0  FF FF 7F F0 FF FF 7F 7A  .9.#R..........z
0770: 33 30 31 45 06 80 F0 FF  FF 7F F0 FF FF 7F 7A 33  301E..........z3
0780: 30 32 07 80 66 0B 80 79  C0 0F 01 79 C0 0F 01 74  02..f..y...y...t
0790: 77 62 31 1C 05 80 2B 79  C0 0F 01 3A 80 23 2B 79  wb1...+y...:.#+y
07A0: C0 0F 01 3B 80 23 29 10  F0 FF FF 7F 38 52 06 80  ...;.#).....8R..
07B0: F0 FF FF 7F F0 FF FF 7F  7A 33 30 32 45 06 80 F0  ........z302E...
07C0: FF FF 7F F0 FF FF 7F 7A  33 30 33 07 80 2B 79 C0  .......z303..+y.
07D0: 0F 01 3C 80 23 6E 79 C0  0F 01 3D 80 99 79 C0 0F  ..<.#ny...=..y..
07E0: 01 2B 79 C0 0F 01 3E 80  23 52 06 80 F0 FF FF 7F  .+y...>.#R......
07F0: F0 FF FF 7F 7A 33 30 33  45 06 80 F0 FF FF 7F F0  ....z303E.......
0800: FF FF 7F 7A 33 30 34 07  80 1C 05 80 2B 79 C0 0F  ...z304.....+y..
0810: 01 3F 80 1C 40 80 23 1A  16 12 1C 05 80 52 06 80  .?..@.#......R..
0820: F0 FF FF 7F F0 FF FF 7F  7A 33 30 34 45 06 80 F0  ........z304E...
0830: FF FF 7F F0 FF FF 7F 30  62 6C 66 07 80 1C 27 80  .......0blf...'.
0840: AB 11 07 80 1C 08 80 46  00 45 2F 80 F0 FF FF 7F  .......F.E/.....
0850: F0 FF FF 7F 66 64 69 32  07 80 21 00              ....fdi2..!.    
```

#### Opcodes

```
  0: 0x06EA [0x42] SET_CLI_EVENT_CANCEL_DATA()
  1: 0x06EB [0x1A] CALL_SUBROUTINE(address=0x1216)
  2: 0x06EE [0x03] ExtData[1]->WorkLocal[1] = Work_Zone[2]
  3: 0x06F3 [0x46] CAMERA_CONTROL: Disable user control
  4: 0x06F5 [0x38] SET_CLIENT_EVENT_MODE(mode=19*)
  5: 0x06F8 [0x94] LocalPlayer->Render.Flags3 ^= 0x01
  6: 0x06FE [0x94] Kieran (ID: 17809529/0x010FC079)->Render.Flags3 ^= 0x01
  7: 0x0704 [0xBA] SET_ENTITY_POSITION(entity_id=LocalPlayer, pos_x=-0.022*, pos_z=15.575*, pos_y=-0.038*, direction=299.6°*)
  8: 0x0711 [0x80] LOAD_WAIT(entity=LocalPlayer)
  9: 0x0716 [0x4A] LocalPlayer looks at Kieran (ID: 17809529/0x010FC079)
 10: 0x071F [0x4A] Kieran (ID: 17809529/0x010FC079) looks at LocalPlayer
 11: 0x0728 [0x6F] WAIT_FRAME_DELAY: Yield until WaitTime reaches zero
 12: 0x0729 [0x76] CHECK_ENTITY_RENDER_FLAGS: Wait until Kieran (ID: 17809529/0x010FC079) Render.Flags0 and Render.Flags3 conditions are met
 13: 0x072E [0x1C] WAIT(30* ticks)
 14: 0x0731 [0x45] LOAD_SCHEDULED_TASK: Load scheduler "z301" with entities [LocalPlayer, LocalPlayer], work=[344*, 0*]
 15: 0x0742 [0x1A] CALL_SUBROUTINE(address=0x11F5)
 16: 0x0745 [0x66] LOAD_EXT_SCHEDULER_MAIN: Load scheduler "twb0" with entities [Kieran (ID: 17809529/0x010FC079), Kieran (ID: 17809529/0x010FC079)], work=9*
 17: 0x0754 [0x2B] Kieran (ID: 17809529/0x010FC079) [11355*]:
    → "Ah, there ya are. I heard about ya exploits in Kazham and Rabao, and...well, I suppose I misjudged ya."
 18: 0x075B [0x23] WAIT_FOR_DIALOG_INTERACTION
 19: 0x075C [0x2B] Kieran (ID: 17809529/0x010FC079) [11356*]:
    → "I have in my possession a document requesting yer presence, signed by none other than the head man himself. If he recognizes yer talents, who am I to question them."
 20: 0x0763 [0x23] WAIT_FOR_DIALOG_INTERACTION
 21: 0x0764 [0x52] END_LOAD_SCHEDULER: End scheduler "z301" with entities [LocalPlayer, LocalPlayer], work=344*
 22: 0x0773 [0x45] LOAD_SCHEDULED_TASK: Load scheduler "z302" with entities [LocalPlayer, LocalPlayer], work=[344*, 0*]
 23: 0x0784 [0x66] LOAD_EXT_SCHEDULER_MAIN: Load scheduler "twb1" with entities [Kieran (ID: 17809529/0x010FC079), Kieran (ID: 17809529/0x010FC079)], work=9*
 24: 0x0793 [0x1C] WAIT(30* ticks)
 25: 0x0796 [0x2B] Kieran (ID: 17809529/0x010FC079) [11357*]:
    → "Anyway, let's brief ya on yer next assignment, shall we?"
 26: 0x079D [0x23] WAIT_FOR_DIALOG_INTERACTION
 27: 0x079E [0x2B] Kieran (ID: 17809529/0x010FC079) [11358*]:
    → "Have ya heard the story of the airborne palace? That's where you'll be going."
 28: 0x07A5 [0x23] WAIT_FOR_DIALOG_INTERACTION
 29: 0x07A6 [0x29] REQ_SET_WAIT(priority=0x10, entity_id=LocalPlayer, tag_num=0x38)
 30: 0x07AD [0x52] END_LOAD_SCHEDULER: End scheduler "z302" with entities [LocalPlayer, LocalPlayer], work=344*
 31: 0x07BC [0x45] LOAD_SCHEDULED_TASK: Load scheduler "z303" with entities [LocalPlayer, LocalPlayer], work=[344*, 0*]
 32: 0x07CD [0x2B] Kieran (ID: 17809529/0x010FC079) [11359*]:
    → "How in a Moblin mineshaft should I know? As far as I'm concerned, it's nothing but a wet nurse's tale!"
 33: 0x07D4 [0x23] WAIT_FOR_DIALOG_INTERACTION
 34: 0x07D5 [0x6E] Kieran (ID: 17809529/0x010FC079) uses emote 22*
 35: 0x07DC [0x99] Wait for Kieran (ID: 17809529/0x010FC079) animation to complete
 36: 0x07E1 [0x2B] Kieran (ID: 17809529/0x010FC079) [11360*]:
    → "I've heard many accounts from the Near East of castles that float upon the sea, but one that flies in the sky? That's madness!"
 37: 0x07E8 [0x23] WAIT_FOR_DIALOG_INTERACTION
 38: 0x07E9 [0x52] END_LOAD_SCHEDULER: End scheduler "z303" with entities [LocalPlayer, LocalPlayer], work=344*
 39: 0x07F8 [0x45] LOAD_SCHEDULED_TASK: Load scheduler "z304" with entities [LocalPlayer, LocalPlayer], work=[344*, 0*]
 40: 0x0809 [0x1C] WAIT(30* ticks)
 41: 0x080C [0x2B] Kieran (ID: 17809529/0x010FC079) [11361*]:
    → "The boss though, he should have some answers for ya. He's waitin' in his chambers, so go on in and stop shootin' the sheep with me."
 42: 0x0813 [0x1C] WAIT(240* ticks)
 43: 0x0816 [0x23] WAIT_FOR_DIALOG_INTERACTION
 44: 0x0817 [0x1A] CALL_SUBROUTINE(address=0x1216)
 45: 0x081A [0x1C] WAIT(30* ticks)
 46: 0x081D [0x52] END_LOAD_SCHEDULER: End scheduler "z304" with entities [LocalPlayer, LocalPlayer], work=344*
 47: 0x082C [0x45] LOAD_SCHEDULED_TASK: Load scheduler "0blf" with entities [LocalPlayer, LocalPlayer], work=[344*, 0*]
 48: 0x083D [0x1C] WAIT(15* ticks)
 49: 0x0840 [0xAB] EventEntity->DespawnValue = 0* // Set despawn value
 50: 0x0844 [0x1C] WAIT(1* ticks)
 51: 0x0847 [0x46] CAMERA_CONTROL: Restore default settings
 52: 0x0849 [0x45] LOAD_SCHEDULED_TASK: Load scheduler "fdi2" with entities [LocalPlayer, LocalPlayer], work=[200*, 0*]
 53: 0x085A [0x21] END_EVENT
 54: 0x085B [0x00] END_REQSTACK()
```

### Event 256

#### Metadata

| Field        | Value     |
|--------------|-----------|
| Entrypoint   | 0x085C    |
| Data Size    | 525 bytes |
| Instructions | 69        |

```
      00 01 02 03 04 05 06 07  08 09 0A 0B 0C 0D 0E 0F
      -- -- -- -- -- -- -- --  -- -- -- -- -- -- -- --
0850:                                      42 1A 16 12              B...
0860: 46 01 38 00 80 75 00 41  80 75 01 92 01 03 C0 0F  F.8..u.A.u......
0870: 01 94 01 F0 FF FF 7F 94  01 03 C0 0F 01 BA F0 FF  ................
0880: FF 7F 42 80 43 80 44 80  45 80 80 F0 FF FF 7F 80  ..B.C.D.E.......
0890: 03 C0 0F 01 1C 05 80 45  06 80 F0 FF FF 7F F0 FF  .......E........
08A0: FF 7F 7A 34 30 31 07 80  1A F5 11 2B 03 C0 0F 01  ..z401.....+....
08B0: 46 80 23 52 06 80 F0 FF  FF 7F F0 FF FF 7F 7A 34  F.#R..........z4
08C0: 30 31 45 06 80 F0 FF FF  7F F0 FF FF 7F 7A 34 30  01E..........z40
08D0: 32 07 80 5B 47 80 03 C0  0F 01 03 C0 0F 01 74 6C  2..[G.........tl
08E0: 6B 30 2B 03 C0 0F 01 48  80 23 2B 03 C0 0F 01 49  k0+....H.#+....I
08F0: 80 23 52 06 80 F0 FF FF  7F F0 FF FF 7F 7A 34 30  .#R..........z40
0900: 32 45 06 80 F0 FF FF 7F  F0 FF FF 7F 7A 34 30 33  2E..........z403
0910: 07 80 5B 47 80 03 C0 0F  01 03 C0 0F 01 74 6C 6B  ..[G.........tlk
0920: 31 1C 05 80 2B 03 C0 0F  01 4A 80 23 53 03 C0 0F  1...+....J.#S...
0930: 01 03 C0 0F 01 74 6C 6B  31 81 00 03 C0 0F 01 5B  .....tlk1......[
0940: 47 80 03 C0 0F 01 03 C0  0F 01 74 68 6B 30 2B 03  G.........thk0+.
0950: C0 0F 01 4B 80 23 52 06  80 F0 FF FF 7F F0 FF FF  ...K.#R.........
0960: 7F 7A 34 30 33 45 06 80  F0 FF FF 7F F0 FF FF 7F  .z403E..........
0970: 7A 34 30 34 07 80 2B 03  C0 0F 01 4C 80 23 81 01  z404..+....L.#..
0980: 03 C0 0F 01 5B 47 80 03  C0 0F 01 03 C0 0F 01 74  ....[G.........t
0990: 68 6B 31 1C 4D 80 2B 03  C0 0F 01 4E 80 23 53 03  hk1.M.+....N.#S.
09A0: C0 0F 01 03 C0 0F 01 74  68 6B 31 52 06 80 F0 FF  .......thk1R....
09B0: FF 7F F0 FF FF 7F 7A 34  30 34 45 06 80 F0 FF FF  ......z404E.....
09C0: 7F F0 FF FF 7F 7A 34 30  35 07 80 5B 47 80 03 C0  .....z405..[G...
09D0: 0F 01 03 C0 0F 01 79 62  74 30 03 02 10 29 80 2B  ......ybt0...).+
09E0: 03 C0 0F 01 4F 80 23 2B  03 C0 0F 01 50 80 23 53  ....O.#+....P.#S
09F0: 03 C0 0F 01 03 C0 0F 01  79 62 74 30 52 06 80 F0  ........ybt0R...
0A00: FF FF 7F F0 FF FF 7F 7A  34 30 35 45 06 80 F0 FF  .......z405E....
0A10: FF 7F F0 FF FF 7F 7A 34  30 36 07 80 2B 03 C0 0F  ......z406..+...
0A20: 01 51 80 23 1A 16 12 1C  05 80 52 06 80 F0 FF FF  .Q.#......R.....
0A30: 7F F0 FF FF 7F 7A 34 30  36 45 06 80 F0 FF FF 7F  .....z406E......
0A40: F0 FF FF 7F 30 62 6C 66  07 80 1C 27 80 AB 11 07  ....0blf...'....
0A50: 80 1C 08 80 46 00 45 2F  80 F0 FF FF 7F F0 FF FF  ....F.E/........
0A60: 7F 66 64 69 32 07 80 21  00                       .fdi2..!.       
```

#### Opcodes

```
  0: 0x085C [0x42] SET_CLI_EVENT_CANCEL_DATA()
  1: 0x085D [0x1A] CALL_SUBROUTINE(address=0x1216)
  2: 0x0860 [0x46] CAMERA_CONTROL: Disable user control
  3: 0x0862 [0x38] SET_CLIENT_EVENT_MODE(mode=19*)
  4: 0x0865 [0x75] LOAD_ROOM(Load indoor room, room=514*)
  5: 0x0869 [0x75] LOAD_ROOM(No action)
  6: 0x086B [0x92] Gilgamesh (ID: 17809411/0x010FC003)->Render.Flags3 ^= 0x01
  7: 0x0871 [0x94] LocalPlayer->Render.Flags3 ^= 0x01
  8: 0x0877 [0x94] Gilgamesh (ID: 17809411/0x010FC003)->Render.Flags3 ^= 0x01
  9: 0x087D [0xBA] SET_ENTITY_POSITION(entity_id=LocalPlayer, pos_x=119.694*, pos_z=-12.014*, pos_y=-8.009*, direction=358.2°*)
 10: 0x088A [0x80] LOAD_WAIT(entity=LocalPlayer)
 11: 0x088F [0x80] LOAD_WAIT(entity=Gilgamesh (ID: 17809411/0x010FC003))
 12: 0x0894 [0x1C] WAIT(30* ticks)
 13: 0x0897 [0x45] LOAD_SCHEDULED_TASK: Load scheduler "z401" with entities [LocalPlayer, LocalPlayer], work=[344*, 0*]
 14: 0x08A8 [0x1A] CALL_SUBROUTINE(address=0x11F5)
 15: 0x08AB [0x2B] Gilgamesh (ID: 17809411/0x010FC003) [11362*]:
    → "Ahoy, <Player>! 'Tis good to see yer hale 'n hearty, matey."
 16: 0x08B2 [0x23] WAIT_FOR_DIALOG_INTERACTION
 17: 0x08B3 [0x52] END_LOAD_SCHEDULER: End scheduler "z401" with entities [LocalPlayer, LocalPlayer], work=344*
 18: 0x08C2 [0x45] LOAD_SCHEDULED_TASK: Load scheduler "z402" with entities [LocalPlayer, LocalPlayer], work=[344*, 0*]
 19: 0x08D3 [0x5B] LOAD_EXT_SCHEDULER: Load scheduler "tlk0" with entities [Gilgamesh (ID: 17809411/0x010FC003), Gilgamesh (ID: 17809411/0x010FC003)], work=566*
 20: 0x08E2 [0x2B] Gilgamesh (ID: 17809411/0x010FC003) [11363*]:
    → "I didn't want t' burden ye wit' another one of me infamous ramblings, but what kind of captain would I be if I sent me crew to sea wit' nary a jib nor oar? Just bite the bollard fer a bit and I'll be done as quick as possible...but I can't promise nothin', fer when ye've spent as much time twixt mast n' main as me, time starts t' mean somethin' else entirely."
 21: 0x08E9 [0x23] WAIT_FOR_DIALOG_INTERACTION
 22: 0x08EA [0x2B] Gilgamesh (ID: 17809411/0x010FC003) [11364*]:
    → "Ye'll next be shovin' off fer "Sky." Aye, that's right. Tu'Lia be yer destination."
 23: 0x08F1 [0x23] WAIT_FOR_DIALOG_INTERACTION
 24: 0x08F2 [0x52] END_LOAD_SCHEDULER: End scheduler "z402" with entities [LocalPlayer, LocalPlayer], work=344*
 25: 0x0901 [0x45] LOAD_SCHEDULED_TASK: Load scheduler "z403" with entities [LocalPlayer, LocalPlayer], work=[344*, 0*]
 26: 0x0912 [0x5B] LOAD_EXT_SCHEDULER: Load scheduler "tlk1" with entities [Gilgamesh (ID: 17809411/0x010FC003), Gilgamesh (ID: 17809411/0x010FC003)], work=566*
 27: 0x0921 [0x1C] WAIT(30* ticks)
 28: 0x0924 [0x2B] Gilgamesh (ID: 17809411/0x010FC003) [11365*]:
    → "This ain't no Bibiki Bay or Buburimu Peninsula--hardly a soul knows 'bout this ethereal archipelago. To make matters worse, ev'ryone in ports across Vana'diel be gettin' their timbers shivered over some unseen scourge. And I'd be willin' t' wager ye all the gil in Norg that Jeuno knows somethin' 'bout this we don't."
 29: 0x092B [0x23] WAIT_FOR_DIALOG_INTERACTION
 30: 0x092C [0x53] WAIT_SCHEDULER_TASK: Wait for scheduler "tlk1" with entities [Gilgamesh (ID: 17809411/0x010FC003), Gilgamesh (ID: 17809411/0x010FC003)]
 31: 0x0939 [0x81] SET_ENTITY_BLINKING(blink_flag=0x00, entity=Gilgamesh (ID: 17809411/0x010FC003))
 32: 0x093F [0x5B] LOAD_EXT_SCHEDULER: Load scheduler "thk0" with entities [Gilgamesh (ID: 17809411/0x010FC003), Gilgamesh (ID: 17809411/0x010FC003)], work=566*
 33: 0x094E [0x2B] Gilgamesh (ID: 17809411/0x010FC003) [11366*]:
    → "Burst me barnacles! If I didn't know better, I'd swear this was nothin' more'n the ramblings of some blunder'n boatswain. Arrrg, gone are the days when we pirates were the worst of the world's ills, matey."
 34: 0x0955 [0x23] WAIT_FOR_DIALOG_INTERACTION
 35: 0x0956 [0x52] END_LOAD_SCHEDULER: End scheduler "z403" with entities [LocalPlayer, LocalPlayer], work=344*
 36: 0x0965 [0x45] LOAD_SCHEDULED_TASK: Load scheduler "z404" with entities [LocalPlayer, LocalPlayer], work=[344*, 0*]
 37: 0x0976 [0x2B] Gilgamesh (ID: 17809411/0x010FC003) [11367*]:
    → "Still, we seem t' both be steerin' ourrr ships t'wards the same "X" on the proverbial treasure map fer the time bein'... Yet seein' how our plans be wide as the horiz'n, we best not turn a patched eye to these problems."
 38: 0x097D [0x23] WAIT_FOR_DIALOG_INTERACTION
 39: 0x097E [0x81] SET_ENTITY_BLINKING(blink_flag=0x01, entity=Gilgamesh (ID: 17809411/0x010FC003))
 40: 0x0984 [0x5B] LOAD_EXT_SCHEDULER: Load scheduler "thk1" with entities [Gilgamesh (ID: 17809411/0x010FC003), Gilgamesh (ID: 17809411/0x010FC003)], work=566*
 41: 0x0993 [0x1C] WAIT(45* ticks)
 42: 0x0996 [0x2B] Gilgamesh (ID: 17809411/0x010FC003) [11368*]:
    → "Keep this infermation below deck, if ye catch me drift. The situation be bad enough without the entire continent up in arms. In any case, I'll make sure t' apprrrise ye of any new developments if I get wind of 'em. Ye can count on that--cross me own plank and hope t' fly, stick a pegleg on me thigh."
 43: 0x099D [0x23] WAIT_FOR_DIALOG_INTERACTION
 44: 0x099E [0x53] WAIT_SCHEDULER_TASK: Wait for scheduler "thk1" with entities [Gilgamesh (ID: 17809411/0x010FC003), Gilgamesh (ID: 17809411/0x010FC003)]
 45: 0x09AB [0x52] END_LOAD_SCHEDULER: End scheduler "z404" with entities [LocalPlayer, LocalPlayer], work=344*
 46: 0x09BA [0x45] LOAD_SCHEDULED_TASK: Load scheduler "z405" with entities [LocalPlayer, LocalPlayer], work=[344*, 0*]
 47: 0x09CB [0x5B] LOAD_EXT_SCHEDULER: Load scheduler "ybt0" with entities [Gilgamesh (ID: 17809411/0x010FC003), Gilgamesh (ID: 17809411/0x010FC003)], work=566*
 48: 0x09DA [0x03] Work_Zone[2] = 1447*
 49: 0x09DF [0x2B] Gilgamesh (ID: 17809411/0x010FC003) [11369*]:
    → "I fergot to mention somethin'! Yer still hoardin' that $3, ain'tcha? I think it's s'pposed to hatch or whatnot if'n ye raise it right. I ain't too sure on the partic'lars, though. Best ye check wit' me first mate Kieran on that."
 50: 0x09E6 [0x23] WAIT_FOR_DIALOG_INTERACTION
 51: 0x09E7 [0x2B] Gilgamesh (ID: 17809411/0x010FC003) [11370*]:
    → "He knows the rest of the aft flotation--arrrg, I mean apt infermation. Maybe I truly do have a family of crows roostin' in me ol' crow's nest. May that stone serve ye well in yer travels, though, as ye may very well be the realm's only hope."
 52: 0x09EE [0x23] WAIT_FOR_DIALOG_INTERACTION
 53: 0x09EF [0x53] WAIT_SCHEDULER_TASK: Wait for scheduler "ybt0" with entities [Gilgamesh (ID: 17809411/0x010FC003), Gilgamesh (ID: 17809411/0x010FC003)]
 54: 0x09FC [0x52] END_LOAD_SCHEDULER: End scheduler "z405" with entities [LocalPlayer, LocalPlayer], work=344*
 55: 0x0A0B [0x45] LOAD_SCHEDULED_TASK: Load scheduler "z406" with entities [LocalPlayer, LocalPlayer], work=[344*, 0*]
 56: 0x0A1C [0x2B] Gilgamesh (ID: 17809411/0x010FC003) [11371*]:
    → "Lastly, don't do anything out there a salty sea dog like meself wouldn't do, matey."
 57: 0x0A23 [0x23] WAIT_FOR_DIALOG_INTERACTION
 58: 0x0A24 [0x1A] CALL_SUBROUTINE(address=0x1216)
 59: 0x0A27 [0x1C] WAIT(30* ticks)
 60: 0x0A2A [0x52] END_LOAD_SCHEDULER: End scheduler "z406" with entities [LocalPlayer, LocalPlayer], work=344*
 61: 0x0A39 [0x45] LOAD_SCHEDULED_TASK: Load scheduler "0blf" with entities [LocalPlayer, LocalPlayer], work=[344*, 0*]
 62: 0x0A4A [0x1C] WAIT(15* ticks)
 63: 0x0A4D [0xAB] EventEntity->DespawnValue = 0* // Set despawn value
 64: 0x0A51 [0x1C] WAIT(1* ticks)
 65: 0x0A54 [0x46] CAMERA_CONTROL: Restore default settings
 66: 0x0A56 [0x45] LOAD_SCHEDULED_TASK: Load scheduler "fdi2" with entities [LocalPlayer, LocalPlayer], work=[200*, 0*]
 67: 0x0A67 [0x21] END_EVENT
 68: 0x0A68 [0x00] END_REQSTACK()
```

### Event 258

#### Metadata

| Field        | Value     |
|--------------|-----------|
| Entrypoint   | 0x0A69    |
| Data Size    | 322 bytes |
| Instructions | 47        |

```
      00 01 02 03 04 05 06 07  08 09 0A 0B 0C 0D 0E 0F
      -- -- -- -- -- -- -- --  -- -- -- -- -- -- -- --
0A60:                             42 1A 16 12 03 01 00           B......
0A70: 02 10 46 01 38 00 80 94  01 F0 FF FF 7F 94 01 79  ..F.8..........y
0A80: C0 0F 01 BA F0 FF FF 7F  01 80 02 80 03 80 04 80  ................
0A90: 80 F0 FF FF 7F 4A F0 FF  FF 7F 79 C0 0F 01 4A 79  .....J....y...Jy
0AA0: C0 0F 01 F0 FF FF 7F 6F  76 79 C0 0F 01 1C 05 80  .......ovy......
0AB0: 45 06 80 F0 FF FF 7F F0  FF FF 7F 7A 35 30 31 07  E..........z501.
0AC0: 80 1A F5 11 66 0B 80 79  C0 0F 01 79 C0 0F 01 74  ....f..y...y...t
0AD0: 77 62 30 2B 79 C0 0F 01  52 80 23 2B 79 C0 0F 01  wb0+y...R.#+y...
0AE0: 53 80 23 52 06 80 F0 FF  FF 7F F0 FF FF 7F 7A 35  S.#R..........z5
0AF0: 30 31 45 06 80 F0 FF FF  7F F0 FF FF 7F 7A 35 30  01E..........z50
0B00: 32 07 80 66 0B 80 79 C0  0F 01 79 C0 0F 01 74 77  2..f..y...y...tw
0B10: 62 31 1C 05 80 2B 79 C0  0F 01 54 80 23 53 79 C0  b1...+y...T.#Sy.
0B20: 0F 01 79 C0 0F 01 74 77  61 31 52 06 80 F0 FF FF  ..y...twa1R.....
0B30: 7F F0 FF FF 7F 7A 35 30  32 45 06 80 F0 FF FF 7F  .....z502E......
0B40: F0 FF FF 7F 7A 35 30 33  07 80 2B 79 C0 0F 01 55  ....z503..+y...U
0B50: 80 23 6E 79 C0 0F 01 3D  80 99 79 C0 0F 01 2B 79  .#ny...=..y...+y
0B60: C0 0F 01 56 80 23 1A 16  12 1C 05 80 52 06 80 F0  ...V.#......R...
0B70: FF FF 7F F0 FF FF 7F 7A  35 30 33 45 06 80 F0 FF  .......z503E....
0B80: FF 7F F0 FF FF 7F 30 62  6C 66 07 80 1C 27 80 AB  ......0blf...'..
0B90: 11 07 80 1C 08 80 46 00  45 2F 80 F0 FF FF 7F F0  ......F.E/......
0BA0: FF FF 7F 66 64 69 32 07  80 21 00                 ...fdi2..!.     
```

#### Opcodes

```
  0: 0x0A69 [0x42] SET_CLI_EVENT_CANCEL_DATA()
  1: 0x0A6A [0x1A] CALL_SUBROUTINE(address=0x1216)
  2: 0x0A6D [0x03] ExtData[1]->WorkLocal[1] = Work_Zone[2]
  3: 0x0A72 [0x46] CAMERA_CONTROL: Disable user control
  4: 0x0A74 [0x38] SET_CLIENT_EVENT_MODE(mode=19*)
  5: 0x0A77 [0x94] LocalPlayer->Render.Flags3 ^= 0x01
  6: 0x0A7D [0x94] Kieran (ID: 17809529/0x010FC079)->Render.Flags3 ^= 0x01
  7: 0x0A83 [0xBA] SET_ENTITY_POSITION(entity_id=LocalPlayer, pos_x=-0.022*, pos_z=15.575*, pos_y=-0.038*, direction=299.6°*)
  8: 0x0A90 [0x80] LOAD_WAIT(entity=LocalPlayer)
  9: 0x0A95 [0x4A] LocalPlayer looks at Kieran (ID: 17809529/0x010FC079)
 10: 0x0A9E [0x4A] Kieran (ID: 17809529/0x010FC079) looks at LocalPlayer
 11: 0x0AA7 [0x6F] WAIT_FRAME_DELAY: Yield until WaitTime reaches zero
 12: 0x0AA8 [0x76] CHECK_ENTITY_RENDER_FLAGS: Wait until Kieran (ID: 17809529/0x010FC079) Render.Flags0 and Render.Flags3 conditions are met
 13: 0x0AAD [0x1C] WAIT(30* ticks)
 14: 0x0AB0 [0x45] LOAD_SCHEDULED_TASK: Load scheduler "z501" with entities [LocalPlayer, LocalPlayer], work=[344*, 0*]
 15: 0x0AC1 [0x1A] CALL_SUBROUTINE(address=0x11F5)
 16: 0x0AC4 [0x66] LOAD_EXT_SCHEDULER_MAIN: Load scheduler "twb0" with entities [Kieran (ID: 17809529/0x010FC079), Kieran (ID: 17809529/0x010FC079)], work=9*
 17: 0x0AD3 [0x2B] Kieran (ID: 17809529/0x010FC079) [11398*]:
    → "Very well then, let's get ya ready to ship out to that airborne palace immediately."
 18: 0x0ADA [0x23] WAIT_FOR_DIALOG_INTERACTION
 19: 0x0ADB [0x2B] Kieran (ID: 17809529/0x010FC079) [11399*]:
    → "What? Ya truly thought ya could just go prancin' up there without fulfilling yer duties?! I don't know where ya come from, but here in Norg, we have to work to get what we want! First, we need yer services in the Li'Telor region. Ya can spread yer little wings and take to the sky after that's done."
 20: 0x0AE2 [0x23] WAIT_FOR_DIALOG_INTERACTION
 21: 0x0AE3 [0x52] END_LOAD_SCHEDULER: End scheduler "z501" with entities [LocalPlayer, LocalPlayer], work=344*
 22: 0x0AF2 [0x45] LOAD_SCHEDULED_TASK: Load scheduler "z502" with entities [LocalPlayer, LocalPlayer], work=[344*, 0*]
 23: 0x0B03 [0x66] LOAD_EXT_SCHEDULER_MAIN: Load scheduler "twb1" with entities [Kieran (ID: 17809529/0x010FC079), Kieran (ID: 17809529/0x010FC079)], work=9*
 24: 0x0B12 [0x1C] WAIT(30* ticks)
 25: 0x0B15 [0x2B] Kieran (ID: 17809529/0x010FC079) [11400*]:
    → "Now, where to dispatch ya... How about the Sanctuary of Zi'Tah, the Boyahda Tree and...last but not least, Ro'Maeve? Those three jurisdictions should do nicely."
 26: 0x0B1C [0x23] WAIT_FOR_DIALOG_INTERACTION
 27: 0x0B1D [0x53] WAIT_SCHEDULER_TASK: Wait for scheduler "twa1" with entities [Kieran (ID: 17809529/0x010FC079), Kieran (ID: 17809529/0x010FC079)]
 28: 0x0B2A [0x52] END_LOAD_SCHEDULER: End scheduler "z502" with entities [LocalPlayer, LocalPlayer], work=344*
 29: 0x0B39 [0x45] LOAD_SCHEDULED_TASK: Load scheduler "z503" with entities [LocalPlayer, LocalPlayer], work=[344*, 0*]
 30: 0x0B4A [0x2B] Kieran (ID: 17809529/0x010FC079) [11401*]:
    → "No need to make water in yer britches about their order, either. Simply completin' yer objectives in the appointed sectors is enough for me. Oh yes, and be sure to report back to me when you're finished. Unfortunately fer ya, I haven't the power to read people's thoughts."
 31: 0x0B51 [0x23] WAIT_FOR_DIALOG_INTERACTION
 32: 0x0B52 [0x6E] Kieran (ID: 17809529/0x010FC079) uses emote 22*
 33: 0x0B59 [0x99] Wait for Kieran (ID: 17809529/0x010FC079) animation to complete
 34: 0x0B5E [0x2B] Kieran (ID: 17809529/0x010FC079) [11402*]:
    → "Is that a scowl of insubordination on yer face? Hah! I spit in yer general direction! Ya adventurers are supposed to enjoy adventuring, no? Otherwise, why would ya be dubbed "adventurers"? Now go out there and make the Voidwatch proud!"
 35: 0x0B65 [0x23] WAIT_FOR_DIALOG_INTERACTION
 36: 0x0B66 [0x1A] CALL_SUBROUTINE(address=0x1216)
 37: 0x0B69 [0x1C] WAIT(30* ticks)
 38: 0x0B6C [0x52] END_LOAD_SCHEDULER: End scheduler "z503" with entities [LocalPlayer, LocalPlayer], work=344*
 39: 0x0B7B [0x45] LOAD_SCHEDULED_TASK: Load scheduler "0blf" with entities [LocalPlayer, LocalPlayer], work=[344*, 0*]
 40: 0x0B8C [0x1C] WAIT(15* ticks)
 41: 0x0B8F [0xAB] EventEntity->DespawnValue = 0* // Set despawn value
 42: 0x0B93 [0x1C] WAIT(1* ticks)
 43: 0x0B96 [0x46] CAMERA_CONTROL: Restore default settings
 44: 0x0B98 [0x45] LOAD_SCHEDULED_TASK: Load scheduler "fdi2" with entities [LocalPlayer, LocalPlayer], work=[200*, 0*]
 45: 0x0BA9 [0x21] END_EVENT
 46: 0x0BAA [0x00] END_REQSTACK()
```

### Event 260

#### Metadata

| Field        | Value     |
|--------------|-----------|
| Entrypoint   | 0x0BAB    |
| Data Size    | 337 bytes |
| Instructions | 52        |

```
      00 01 02 03 04 05 06 07  08 09 0A 0B 0C 0D 0E 0F
      -- -- -- -- -- -- -- --  -- -- -- -- -- -- -- --
0BA0:                                   42 1A 16 12 03             B....
0BB0: 01 00 02 10 46 01 38 00  80 94 01 F0 FF FF 7F 94  ....F.8.........
0BC0: 01 79 C0 0F 01 BA F0 FF  FF 7F 01 80 02 80 03 80  .y..............
0BD0: 04 80 80 F0 FF FF 7F 4A  F0 FF FF 7F 79 C0 0F 01  .......J....y...
0BE0: 4A 79 C0 0F 01 F0 FF FF  7F 6F 76 79 C0 0F 01 1C  Jy.......ovy....
0BF0: 05 80 45 06 80 F0 FF FF  7F F0 FF FF 7F 7A 36 30  ..E..........z60
0C00: 31 07 80 1A F5 11 66 0B  80 79 C0 0F 01 79 C0 0F  1.....f..y...y..
0C10: 01 74 77 61 30 2B 79 C0  0F 01 57 80 23 03 02 10  .twa0+y...W.#...
0C20: 58 80 2B 79 C0 0F 01 59  80 23 52 06 80 F0 FF FF  X.+y...Y.#R.....
0C30: 7F F0 FF FF 7F 7A 36 30  31 45 06 80 F0 FF FF 7F  .....z601E......
0C40: F0 FF FF 7F 7A 36 30 32  07 80 66 0B 80 79 C0 0F  ....z602..f..y..
0C50: 01 79 C0 0F 01 74 77 61  31 1C 4D 80 2B 79 C0 0F  .y...twa1.M.+y..
0C60: 01 5A 80 23 2B 79 C0 0F  01 5B 80 23 52 06 80 F0  .Z.#+y...[.#R...
0C70: FF FF 7F F0 FF FF 7F 7A  36 30 32 45 06 80 F0 FF  .......z602E....
0C80: FF 7F F0 FF FF 7F 7A 36  30 33 07 80 6E 79 C0 0F  ......z603..ny..
0C90: 01 5C 80 99 79 C0 0F 01  2B 79 C0 0F 01 5D 80 1C  .\..y...+y...]..
0CA0: 12 80 23 6E 79 C0 0F 01  25 80 99 79 C0 0F 01 2B  ..#ny...%..y...+
0CB0: 79 C0 0F 01 5E 80 23 1A  16 12 1C 05 80 52 06 80  y...^.#......R..
0CC0: F0 FF FF 7F F0 FF FF 7F  7A 36 30 33 45 06 80 F0  ........z603E...
0CD0: FF FF 7F F0 FF FF 7F 30  62 6C 66 07 80 1C 27 80  .......0blf...'.
0CE0: AB 11 07 80 1C 08 80 46  00 45 2F 80 F0 FF FF 7F  .......F.E/.....
0CF0: F0 FF FF 7F 66 64 69 32  07 80 21 00              ....fdi2..!.    
```

#### Opcodes

```
  0: 0x0BAB [0x42] SET_CLI_EVENT_CANCEL_DATA()
  1: 0x0BAC [0x1A] CALL_SUBROUTINE(address=0x1216)
  2: 0x0BAF [0x03] ExtData[1]->WorkLocal[1] = Work_Zone[2]
  3: 0x0BB4 [0x46] CAMERA_CONTROL: Disable user control
  4: 0x0BB6 [0x38] SET_CLIENT_EVENT_MODE(mode=19*)
  5: 0x0BB9 [0x94] LocalPlayer->Render.Flags3 ^= 0x01
  6: 0x0BBF [0x94] Kieran (ID: 17809529/0x010FC079)->Render.Flags3 ^= 0x01
  7: 0x0BC5 [0xBA] SET_ENTITY_POSITION(entity_id=LocalPlayer, pos_x=-0.022*, pos_z=15.575*, pos_y=-0.038*, direction=299.6°*)
  8: 0x0BD2 [0x80] LOAD_WAIT(entity=LocalPlayer)
  9: 0x0BD7 [0x4A] LocalPlayer looks at Kieran (ID: 17809529/0x010FC079)
 10: 0x0BE0 [0x4A] Kieran (ID: 17809529/0x010FC079) looks at LocalPlayer
 11: 0x0BE9 [0x6F] WAIT_FRAME_DELAY: Yield until WaitTime reaches zero
 12: 0x0BEA [0x76] CHECK_ENTITY_RENDER_FLAGS: Wait until Kieran (ID: 17809529/0x010FC079) Render.Flags0 and Render.Flags3 conditions are met
 13: 0x0BEF [0x1C] WAIT(30* ticks)
 14: 0x0BF2 [0x45] LOAD_SCHEDULED_TASK: Load scheduler "z601" with entities [LocalPlayer, LocalPlayer], work=[344*, 0*]
 15: 0x0C03 [0x1A] CALL_SUBROUTINE(address=0x11F5)
 16: 0x0C06 [0x66] LOAD_EXT_SCHEDULER_MAIN: Load scheduler "twa0" with entities [Kieran (ID: 17809529/0x010FC079), Kieran (ID: 17809529/0x010FC079)], work=9*
 17: 0x0C15 [0x2B] Kieran (ID: 17809529/0x010FC079) [11403*]:
    → "Admittedly, I'm somewhat hesitant to grant ya this privilege, but I suppose you've earned it. Yes, I'm saying ya may finally embark for that airborne continent. Hmmm...are these names code or somethin'? I've never heard any of them before! Maybe you have, though."
 18: 0x0C1C [0x23] WAIT_FOR_DIALOG_INTERACTION
 19: 0x0C1D [0x03] Work_Zone[2] = 1448*
 20: 0x0C22 [0x2B] Kieran (ID: 17809529/0x010FC079) [11404*]:
    → "I'm in the dark about all this, but the captain assured me that yer $3 has accrued enough energy. Apparently you'll be needin' it in the near future."
 21: 0x0C29 [0x23] WAIT_FOR_DIALOG_INTERACTION
 22: 0x0C2A [0x52] END_LOAD_SCHEDULER: End scheduler "z601" with entities [LocalPlayer, LocalPlayer], work=344*
 23: 0x0C39 [0x45] LOAD_SCHEDULED_TASK: Load scheduler "z602" with entities [LocalPlayer, LocalPlayer], work=[344*, 0*]
 24: 0x0C4A [0x66] LOAD_EXT_SCHEDULER_MAIN: Load scheduler "twa1" with entities [Kieran (ID: 17809529/0x010FC079), Kieran (ID: 17809529/0x010FC079)], work=9*
 25: 0x0C59 [0x1C] WAIT(45* ticks)
 26: 0x0C5C [0x2B] Kieran (ID: 17809529/0x010FC079) [11405*]:
    → "Movin' on, you'll be dispatched to the followin' three areas."
 27: 0x0C63 [0x23] WAIT_FOR_DIALOG_INTERACTION
 28: 0x0C64 [0x2B] Kieran (ID: 17809529/0x010FC079) [11406*]:
    → "The Ru'Aun Gardens, Ve'Lugannon Palace, and the Shrine of Ru'Avitau. Ugh, I'm tyin' my tongue in knots just trying to say all that."
 29: 0x0C6B [0x23] WAIT_FOR_DIALOG_INTERACTION
 30: 0x0C6C [0x52] END_LOAD_SCHEDULER: End scheduler "z602" with entities [LocalPlayer, LocalPlayer], work=344*
 31: 0x0C7B [0x45] LOAD_SCHEDULED_TASK: Load scheduler "z603" with entities [LocalPlayer, LocalPlayer], work=[344*, 0*]
 32: 0x0C8C [0x6E] Kieran (ID: 17809529/0x010FC079) uses emote 20*
 33: 0x0C93 [0x99] Wait for Kieran (ID: 17809529/0x010FC079) animation to complete
 34: 0x0C98 [0x2B] Kieran (ID: 17809529/0x010FC079) [11407*]:
    → "Ya remember them yet? Good. Get goin', then. As always, report back to me when yer finished fricasseein' yer foes."
 35: 0x0C9F [0x1C] WAIT(150* ticks)
 36: 0x0CA2 [0x23] WAIT_FOR_DIALOG_INTERACTION
 37: 0x0CA3 [0x6E] Kieran (ID: 17809529/0x010FC079) uses emote 13*
 38: 0x0CAA [0x99] Wait for Kieran (ID: 17809529/0x010FC079) animation to complete
 39: 0x0CAF [0x2B] Kieran (ID: 17809529/0x010FC079) [11408*]:
    → "And bring me back a souvenir, will ya?"
 40: 0x0CB6 [0x23] WAIT_FOR_DIALOG_INTERACTION
 41: 0x0CB7 [0x1A] CALL_SUBROUTINE(address=0x1216)
 42: 0x0CBA [0x1C] WAIT(30* ticks)
 43: 0x0CBD [0x52] END_LOAD_SCHEDULER: End scheduler "z603" with entities [LocalPlayer, LocalPlayer], work=344*
 44: 0x0CCC [0x45] LOAD_SCHEDULED_TASK: Load scheduler "0blf" with entities [LocalPlayer, LocalPlayer], work=[344*, 0*]
 45: 0x0CDD [0x1C] WAIT(15* ticks)
 46: 0x0CE0 [0xAB] EventEntity->DespawnValue = 0* // Set despawn value
 47: 0x0CE4 [0x1C] WAIT(1* ticks)
 48: 0x0CE7 [0x46] CAMERA_CONTROL: Restore default settings
 49: 0x0CE9 [0x45] LOAD_SCHEDULED_TASK: Load scheduler "fdi2" with entities [LocalPlayer, LocalPlayer], work=[200*, 0*]
 50: 0x0CFA [0x21] END_EVENT
 51: 0x0CFB [0x00] END_REQSTACK()
```

### Event 262

#### Metadata

| Field        | Value      |
|--------------|------------|
| Entrypoint   | 0x0CFC     |
| Data Size    | 1864 bytes |
| Instructions | 164        |

```
      00 01 02 03 04 05 06 07  08 09 0A 0B 0C 0D 0E 0F
      -- -- -- -- -- -- -- --  -- -- -- -- -- -- -- --
0CF0:                                      42 03 02 00              B...
0D00: 09 10 1A 16 12 46 01 38  00 80 75 00 41 80 75 01  .....F.8..u.A.u.
0D10: 92 01 03 C0 0F 01 94 01  F0 FF FF 7F 94 01 03 C0  ................
0D20: 0F 01 BA F0 FF FF 7F 42  80 43 80 44 80 45 80 80  .......B.C.D.E..
0D30: F0 FF FF 7F 80 03 C0 0F  01 1C 05 80 45 06 80 F0  ............E...
0D40: FF FF 7F F0 FF FF 7F 7A  37 30 31 07 80 1A F5 11  .......z701.....
0D50: 2B 03 C0 0F 01 5F 80 23  81 00 03 C0 0F 01 5B 47  +...._.#......[G
0D60: 80 03 C0 0F 01 03 C0 0F  01 74 68 6B 30 1C 4D 80  .........thk0.M.
0D70: 52 06 80 F0 FF FF 7F F0  FF FF 7F 7A 37 30 31 45  R..........z701E
0D80: 06 80 F0 FF FF 7F F0 FF  FF 7F 7A 37 30 32 07 80  ..........z702..
0D90: 2B 03 C0 0F 01 60 80 23  2B 03 C0 0F 01 61 80 23  +....`.#+....a.#
0DA0: 52 06 80 F0 FF FF 7F F0  FF FF 7F 7A 37 30 32 45  R..........z702E
0DB0: 06 80 F0 FF FF 7F F0 FF  FF 7F 7A 37 30 33 07 80  ..........z703..
0DC0: 2B 03 C0 0F 01 62 80 23  81 01 03 C0 0F 01 5B 47  +....b.#......[G
0DD0: 80 03 C0 0F 01 03 C0 0F  01 74 68 6B 31 1C 05 80  .........thk1...
0DE0: 2B 03 C0 0F 01 63 80 23  52 06 80 F0 FF FF 7F F0  +....c.#R.......
0DF0: FF FF 7F 7A 37 30 33 45  06 80 F0 FF FF 7F F0 FF  ...z703E........
0E00: FF 7F 7A 37 30 34 07 80  2B 03 C0 0F 01 64 80 23  ..z704..+....d.#
0E10: 53 03 C0 0F 01 03 C0 0F  01 74 68 6B 31 5B 47 80  S........thk1[G.
0E20: 03 C0 0F 01 03 C0 0F 01  74 6C 6B 30 2B 03 C0 0F  ........tlk0+...
0E30: 01 65 80 23 2B 03 C0 0F  01 66 80 23 52 06 80 F0  .e.#+....f.#R...
0E40: FF FF 7F F0 FF FF 7F 7A  37 30 34 45 06 80 F0 FF  .......z704E....
0E50: FF 7F F0 FF FF 7F 7A 37  30 35 07 80 5B 47 80 03  ......z705..[G..
0E60: C0 0F 01 03 C0 0F 01 74  6C 6B 31 6E F0 FF FF 7F  .......tlk1n....
0E70: 1E 80 99 F0 FF FF 7F 1C  67 80 02 02 00 08 80 00  ........g.......
0E80: 51 11 1A 16 12 1C 05 80  27 10 7B C0 0F 01 02 92  Q.......'.{.....
0E90: 01 7B C0 0F 01 94 01 7B  C0 0F 01 BA F0 FF FF 7F  .{.....{........
0EA0: 68 80 69 80 6A 80 6B 80  BA 7B C0 0F 01 6C 80 6D  h.i.j.k..{...l.m
0EB0: 80 6A 80 6E 80 29 10 7B  C0 0F 01 0B 29 10 7B C0  .j.n.).{....).{.
0EC0: 0F 01 0C 80 7B C0 0F 01  48 6F 80 23 27 10 F0 FF  ....{...Ho.#'...
0ED0: FF 7F 3A 27 10 7B C0 0F  01 0D 1C 70 80 52 06 80  ..:'.{.....p.R..
0EE0: F0 FF FF 7F F0 FF FF 7F  7A 37 30 35 45 06 80 F0  ........z705E...
0EF0: FF FF 7F F0 FF FF 7F 7A  37 31 30 07 80 1A F5 11  .......z710.....
0F00: 1C 05 80 27 10 7D C0 0F  01 07 1C 18 80 52 06 80  ...'.}.......R..
0F10: F0 FF FF 7F F0 FF FF 7F  7A 37 31 30 45 06 80 F0  ........z710E...
0F20: FF FF 7F F0 FF FF 7F 7A  37 31 31 07 80 2B 7B C0  .......z711..+{.
0F30: 0F 01 71 80 7A 00 F0 FF  FF 7F 4A F0 FF FF 7F 7B  ..q.z.....J....{
0F40: C0 0F 01 1C 1B 80 4A F0  FF FF 7F 7B C0 0F 01 1C  ......J....{....
0F50: 05 80 7A 00 7B C0 0F 01  23 5B 72 80 7B C0 0F 01  ..z.{...#[r.{...
0F60: 7B C0 0F 01 75 64 65 30  1C 05 80 2B 7B C0 0F 01  {...ude0...+{...
0F70: 73 80 1C 67 80 23 52 06  80 F0 FF FF 7F F0 FF FF  s..g.#R.........
0F80: 7F 7A 37 31 31 45 06 80  F0 FF FF 7F F0 FF FF 7F  .z711E..........
0F90: 7A 37 31 32 07 80 5B 72  80 7B C0 0F 01 7B C0 0F  z712..[r.{...{..
0FA0: 01 75 64 65 31 4A 7B C0  0F 01 F0 FF FF 7F 2B 7B  .ude1J{.......+{
0FB0: C0 0F 01 74 80 1C 12 80  23 52 06 80 F0 FF FF 7F  ...t....#R......
0FC0: F0 FF FF 7F 7A 37 31 32  45 06 80 F0 FF FF 7F F0  ....z712E.......
0FD0: FF FF 7F 7A 37 31 33 07  80 5B 75 80 7B C0 0F 01  ...z713..[u.{...
0FE0: 7B C0 0F 01 70 6E 74 30  1C 4D 80 2B 7B C0 0F 01  {...pnt0.M.+{...
0FF0: 76 80 23 29 10 F0 FF FF  7F 38 5B 75 80 7B C0 0F  v.#).....8[u.{..
1000: 01 7B C0 0F 01 70 6E 74  31 2B 7B C0 0F 01 77 80  .{...pnt1+{...w.
1010: 23 53 7B C0 0F 01 7B C0  0F 01 70 6E 74 31 52 06  #S{...{...pnt1R.
1020: 80 F0 FF FF 7F F0 FF FF  7F 7A 37 31 33 45 06 80  .........z713E..
1030: F0 FF FF 7F F0 FF FF 7F  7A 37 31 34 07 80 5B 78  ........z714..[x
1040: 80 7B C0 0F 01 7B C0 0F  01 74 68 6B 30 1C 05 80  .{...{...thk0...
1050: 2B 7B C0 0F 01 79 80 23  2B 7B C0 0F 01 7A 80 23  +{...y.#+{...z.#
1060: 52 06 80 F0 FF FF 7F F0  FF FF 7F 7A 37 31 34 45  R..........z714E
1070: 06 80 F0 FF FF 7F F0 FF  FF 7F 7A 37 31 35 07 80  ..........z715..
1080: 5B 78 80 7B C0 0F 01 7B  C0 0F 01 74 68 6B 31 1C  [x.{...{...thk1.
1090: 4D 80 2B 7B C0 0F 01 7B  80 23 2B 7B C0 0F 01 7C  M.+{...{.#+{...|
10A0: 80 23 5B 78 80 7B C0 0F  01 7B C0 0F 01 74 6C 6B  .#[x.{...{...tlk
10B0: 30 2B 7B C0 0F 01 7D 80  23 6E F0 FF FF 7F 1E 80  0+{...}.#n......
10C0: 99 F0 FF FF 7F 1C 1B 80  52 06 80 F0 FF FF 7F F0  ........R.......
10D0: FF FF 7F 7A 37 31 35 45  06 80 F0 FF FF 7F F0 FF  ...z715E........
10E0: FF 7F 7A 37 31 36 07 80  2B 7B C0 0F 01 7E 80 23  ..z716..+{...~.#
10F0: 5B 78 80 7B C0 0F 01 7B  C0 0F 01 74 6C 6B 31 2B  [x.{...{...tlk1+
1100: 7B C0 0F 01 7F 80 23 53  7B C0 0F 01 7B C0 0F 01  {.....#S{...{...
1110: 74 6C 6B 31 52 06 80 F0  FF FF 7F F0 FF FF 7F 7A  tlk1R..........z
1120: 37 31 36 45 06 80 F0 FF  FF 7F F0 FF FF 7F 7A 37  716E..........z7
1130: 31 37 07 80 27 10 7B C0  0F 01 0E 1C 18 80 27 10  17..'.{.......'.
1140: 7D C0 0F 01 08 4A F0 FF  FF 7F 7B C0 0F 01 1C 18  }....J....{.....
1150: 80 1A 16 12 1C 05 80 02  02 00 08 80 00 65 11 7A  .............e.z
1160: 00 7B C0 0F 01 52 06 80  F0 FF FF 7F F0 FF FF 7F  .{...R..........
1170: 7A 37 30 35 52 06 80 F0  FF FF 7F F0 FF FF 7F 7A  z705R..........z
1180: 37 31 37 45 06 80 F0 FF  FF 7F F0 FF FF 7F 30 62  717E..........0b
1190: 6C 66 07 80 1C 27 80 AB  11 07 80 1C 08 80 46 00  lf...'........F.
11A0: 45 2F 80 F0 FF FF 7F F0  FF FF 7F 66 64 69 32 07  E/.........fdi2.
11B0: 80 21 00 45 2F 80 F0 FF  FF 7F F0 FF FF 7F 66 64  .!.E/.........fd
11C0: 69 30 07 80 55 2F 80 F0  FF FF 7F F0 FF FF 7F 66  i0..U/.........f
11D0: 64 69 30 1B 45 2F 80 F0  FF FF 7F F0 FF FF 7F 66  di0.E/.........f
11E0: 64 6F 30 07 80 55 2F 80  F0 FF FF 7F F0 FF FF 7F  do0..U/.........
11F0: 66 64 6F 30 1B 45 2F 80  F0 FF FF 7F F0 FF FF 7F  fdo0.E/.........
1200: 66 64 69 31 07 80 55 2F  80 F0 FF FF 7F F0 FF FF  fdi1..U/........
1210: 7F 66 64 69 31 1B 45 2F  80 F0 FF FF 7F F0 FF FF  .fdi1.E/........
1220: 7F 66 64 6F 31 07 80 55  2F 80 F0 FF FF 7F F0 FF  .fdo1..U/.......
1230: FF 7F 66 64 6F 31 1B 45  80 80 F0 FF FF 7F F0 FF  ..fdo1.E........
1240: FF 7F 77 68 69 31 07 80  55 80 80 F0 FF FF 7F F0  ..whi1..U.......
1250: FF FF 7F 77 68 69 31 1B  45 80 80 F0 FF FF 7F F0  ...whi1.E.......
1260: FF FF 7F 77 68 6F 31 07  80 55 80 80 F0 FF FF 7F  ...who1..U......
1270: F0 FF FF 7F 77 68 6F 31  1B 45 80 80 F0 FF FF 7F  ....who1.E......
1280: F0 FF FF 7F 77 68 6F 32  07 80 55 80 80 F0 FF FF  ....who2..U.....
1290: 7F F0 FF FF 7F 77 68 6F  32 1B 45 80 80 F0 FF FF  .....who2.E.....
12A0: 7F F0 FF FF 7F 77 68 6F  33 07 80 55 80 80 F0 FF  .....who3..U....
12B0: FF 7F F0 FF FF 7F 77 68  6F 33 1B 62 08 80 F0 FF  ......who3.b....
12C0: FF 7F F0 FF FF 7F 6D 61  69 6E 07 80 1C 4D 80 45  ......main...M.E
12D0: 2F 80 F0 FF FF 7F F0 FF  FF 7F 66 64 6F 31 07 80  /.........fdo1..
12E0: 55 2F 80 F0 FF FF 7F F0  FF FF 7F 66 64 6F 31 1B  U/.........fdo1.
12F0: 45 2F 80 F0 FF FF 7F F0  FF FF 7F 66 64 69 31 07  E/.........fdi1.
1300: 80 62 81 80 F0 FF FF 7F  F0 FF FF 7F 6D 61 69 6E  .b..........main
1310: 07 80 1C 05 80 55 2F 80  F0 FF FF 7F F0 FF FF 7F  .....U/.........
1320: 66 64 69 31 1B 45 2F 80  F0 FF FF 7F F0 FF FF 7F  fdi1.E/.........
1330: 62 6C 6F 6E 07 80 45 80  80 F0 FF FF 7F F0 FF FF  blon..E.........
1340: 7F 62 6C 6F 6E 07 80 1B  45 80 80 F0 FF FF 7F F0  .blon...E.......
1350: FF FF 7F 77 68 69 30 07  80 55 80 80 F0 FF FF 7F  ...whi0..U......
1360: F0 FF FF 7F 77 68 69 30  1B 45 80 80 F0 FF FF 7F  ....whi0.E......
1370: F0 FF FF 7F 77 68 6F 30  07 80 55 80 80 F0 FF FF  ....who0..U.....
1380: 7F F0 FF FF 7F 77 68 6F  30 1B 45 82 80 F0 FF FF  .....who0.E.....
1390: 7F F0 FF FF 7F 65 66 6F  6E 07 80 55 82 80 F0 FF  .....efon..U....
13A0: FF 7F F0 FF FF 7F 65 66  6F 6E 1B 45 2F 80 F0 FF  ......efon.E/...
13B0: FF 7F F0 FF FF 7F 66 64  69 73 07 80 1B 45 2F 80  ......fdis...E/.
13C0: F0 FF FF 7F F0 FF FF 7F  66 64 6F 73 07 80 55 2F  ........fdos..U/
13D0: 80 F0 FF FF 7F F0 FF FF  7F 66 64 6F 73 1B 45 2F  .........fdos.E/
13E0: 80 F0 FF FF 7F F0 FF FF  7F 66 64 69 66 07 80 1B  .........fdif...
13F0: 45 2F 80 F0 FF FF 7F F0  FF FF 7F 66 64 6F 66 07  E/.........fdof.
1400: 80 55 2F 80 F0 FF FF 7F  F0 FF FF 7F 66 64 6F 66  .U/.........fdof
1410: 1B 45 2F 80 F0 FF FF 7F  F0 FF FF 7F 66 64 69 70  .E/.........fdip
1420: 07 80 1B 45 2F 80 F0 FF  FF 7F F0 FF FF 7F 66 64  ...E/.........fd
1430: 6F 70 07 80 55 2F 80 F0  FF FF 7F F0 FF FF 7F 66  op..U/.........f
1440: 64 6F 70 1B                                       dop.            
```

#### Opcodes

```
  0: 0x0CFC [0x42] SET_CLI_EVENT_CANCEL_DATA()
  1: 0x0CFD [0x03] ExtData[1]->WorkLocal[2] = Work_Zone[9]
  2: 0x0D02 [0x1A] CALL_SUBROUTINE(address=0x1216)
  3: 0x0D05 [0x46] CAMERA_CONTROL: Disable user control
  4: 0x0D07 [0x38] SET_CLIENT_EVENT_MODE(mode=19*)
  5: 0x0D0A [0x75] LOAD_ROOM(Load indoor room, room=514*)
  6: 0x0D0E [0x75] LOAD_ROOM(No action)
  7: 0x0D10 [0x92] Gilgamesh (ID: 17809411/0x010FC003)->Render.Flags3 ^= 0x01
  8: 0x0D16 [0x94] LocalPlayer->Render.Flags3 ^= 0x01
  9: 0x0D1C [0x94] Gilgamesh (ID: 17809411/0x010FC003)->Render.Flags3 ^= 0x01
 10: 0x0D22 [0xBA] SET_ENTITY_POSITION(entity_id=LocalPlayer, pos_x=119.694*, pos_z=-12.014*, pos_y=-8.009*, direction=358.2°*)
 11: 0x0D2F [0x80] LOAD_WAIT(entity=LocalPlayer)
 12: 0x0D34 [0x80] LOAD_WAIT(entity=Gilgamesh (ID: 17809411/0x010FC003))
 13: 0x0D39 [0x1C] WAIT(30* ticks)
 14: 0x0D3C [0x45] LOAD_SCHEDULED_TASK: Load scheduler "z701" with entities [LocalPlayer, LocalPlayer], work=[344*, 0*]
 15: 0x0D4D [0x1A] CALL_SUBROUTINE(address=0x11F5)
 16: 0x0D50 [0x2B] Gilgamesh (ID: 17809411/0x010FC003) [11373*]:
    → "First, thank ye fer doin' what needs be done. Me heart, it be waterlogged with guilt fer always makin' ye perform these underwater operations."
 17: 0x0D57 [0x23] WAIT_FOR_DIALOG_INTERACTION
 18: 0x0D58 [0x81] SET_ENTITY_BLINKING(blink_flag=0x00, entity=Gilgamesh (ID: 17809411/0x010FC003))
 19: 0x0D5E [0x5B] LOAD_EXT_SCHEDULER: Load scheduler "thk0" with entities [Gilgamesh (ID: 17809411/0x010FC003), Gilgamesh (ID: 17809411/0x010FC003)], work=566*
 20: 0x0D6D [0x1C] WAIT(45* ticks)
 21: 0x0D70 [0x52] END_LOAD_SCHEDULER: End scheduler "z701" with entities [LocalPlayer, LocalPlayer], work=344*
 22: 0x0D7F [0x45] LOAD_SCHEDULED_TASK: Load scheduler "z702" with entities [LocalPlayer, LocalPlayer], work=[344*, 0*]
 23: 0x0D90 [0x2B] Gilgamesh (ID: 17809411/0x010FC003) [11374*]:
    → "Yet ye be the only one I can trust. Wit' all these lily-livered deckhands in me service--none be fit to hold a sword, if ye ask me."
 24: 0x0D97 [0x23] WAIT_FOR_DIALOG_INTERACTION
 25: 0x0D98 [0x2B] Gilgamesh (ID: 17809411/0x010FC003) [11375*]:
    → "...Which makes it all the worse t' tell ye that we be gettin' drenched in this Voidwalker squall, and we be takin' on water faster'n we can bail it out. We still don't know much 'bout this perfect storm o' sorts either, which I find queerer than a cryin' kraken."
 26: 0x0D9F [0x23] WAIT_FOR_DIALOG_INTERACTION
 27: 0x0DA0 [0x52] END_LOAD_SCHEDULER: End scheduler "z702" with entities [LocalPlayer, LocalPlayer], work=344*
 28: 0x0DAF [0x45] LOAD_SCHEDULED_TASK: Load scheduler "z703" with entities [LocalPlayer, LocalPlayer], work=[344*, 0*]
 29: 0x0DC0 [0x2B] Gilgamesh (ID: 17809411/0x010FC003) [11376*]:
    → "The westerly winds bring wit' 'em tales of destruction from the Near East as well."
 30: 0x0DC7 [0x23] WAIT_FOR_DIALOG_INTERACTION
 31: 0x0DC8 [0x81] SET_ENTITY_BLINKING(blink_flag=0x01, entity=Gilgamesh (ID: 17809411/0x010FC003))
 32: 0x0DCE [0x5B] LOAD_EXT_SCHEDULER: Load scheduler "thk1" with entities [Gilgamesh (ID: 17809411/0x010FC003), Gilgamesh (ID: 17809411/0x010FC003)], work=566*
 33: 0x0DDD [0x1C] WAIT(30* ticks)
 34: 0x0DE0 [0x2B] Gilgamesh (ID: 17809411/0x010FC003) [11377*]:
    → "Sadly, me hands be tied and I haven't the time t' drop down no dinghies fer ourrr neighbors to the east."
 35: 0x0DE7 [0x23] WAIT_FOR_DIALOG_INTERACTION
 36: 0x0DE8 [0x52] END_LOAD_SCHEDULER: End scheduler "z703" with entities [LocalPlayer, LocalPlayer], work=344*
 37: 0x0DF7 [0x45] LOAD_SCHEDULED_TASK: Load scheduler "z704" with entities [LocalPlayer, LocalPlayer], work=[344*, 0*]
 38: 0x0E08 [0x2B] Gilgamesh (ID: 17809411/0x010FC003) [11378*]:
    → "Which is why I be sendin' ye. I figured ye'd be hoistin' sail and shovin' off soon as ye heard this anyway, and that fire in yer belly be what we need most right now."
 39: 0x0E0F [0x23] WAIT_FOR_DIALOG_INTERACTION
 40: 0x0E10 [0x53] WAIT_SCHEDULER_TASK: Wait for scheduler "thk1" with entities [Gilgamesh (ID: 17809411/0x010FC003), Gilgamesh (ID: 17809411/0x010FC003)]
 41: 0x0E1D [0x5B] LOAD_EXT_SCHEDULER: Load scheduler "tlk0" with entities [Gilgamesh (ID: 17809411/0x010FC003), Gilgamesh (ID: 17809411/0x010FC003)], work=566*
 42: 0x0E2C [0x2B] Gilgamesh (ID: 17809411/0x010FC003) [11379*]:
    → "The violence be spreadin' like Selbina butter on bread, and no matter how many fiends ye slay, thar be no end t' 'em. We ain't got the foggiest idea what be goin' on."
 43: 0x0E33 [0x23] WAIT_FOR_DIALOG_INTERACTION
 44: 0x0E34 [0x2B] Gilgamesh (ID: 17809411/0x010FC003) [11380*]:
    → "Ye be the ballast that keeps Vana'diel upright, <Player>, and the realm needs ye now mor'n ever. This may not be worth a grain of salt, comin' from an old sailor tucked safely away in his captain's quarters, but don't go overboard wit' the heroics."
 45: 0x0E3B [0x23] WAIT_FOR_DIALOG_INTERACTION
 46: 0x0E3C [0x52] END_LOAD_SCHEDULER: End scheduler "z704" with entities [LocalPlayer, LocalPlayer], work=344*
 47: 0x0E4B [0x45] LOAD_SCHEDULED_TASK: Load scheduler "z705" with entities [LocalPlayer, LocalPlayer], work=[344*, 0*]
 48: 0x0E5C [0x5B] LOAD_EXT_SCHEDULER: Load scheduler "tlk1" with entities [Gilgamesh (ID: 17809411/0x010FC003), Gilgamesh (ID: 17809411/0x010FC003)], work=566*
 49: 0x0E6B [0x6E] LocalPlayer uses emote 7*
 50: 0x0E72 [0x99] Wait for LocalPlayer animation to complete
 51: 0x0E77 [0x1C] WAIT(120* ticks)
 52: 0x0E7A [0x02] IF !(ExtData[1]->WorkLocal[2] == 1*) GOTO 0x1151
 53: 0x0E82 [0x1A] CALL_SUBROUTINE(address=0x1216)
 54: 0x0E85 [0x1C] WAIT(30* ticks)
 55: 0x0E88 [0x27] REQ_SET(priority=0x10, entity_id=Unnamed NPC (ID: 17809531/0x010FC07B), tag_num=0x02)
 56: 0x0E8F [0x92] Unnamed NPC (ID: 17809531/0x010FC07B)->Render.Flags3 ^= 0x01
 57: 0x0E95 [0x94] Unnamed NPC (ID: 17809531/0x010FC07B)->Render.Flags3 ^= 0x01
 58: 0x0E9B [0xBA] SET_ENTITY_POSITION(entity_id=LocalPlayer, pos_x=65.787*, pos_z=-8.489*, pos_y=-6.281*, direction=214.4°*)
 59: 0x0EA8 [0xBA] SET_ENTITY_POSITION(entity_id=Unnamed NPC (ID: 17809531/0x010FC07B), pos_x=66.622*, pos_z=-7.677*, pos_y=-6.281*, direction=214.3°*)
 60: 0x0EB5 [0x29] REQ_SET_WAIT(priority=0x10, entity_id=Unnamed NPC (ID: 17809531/0x010FC07B), tag_num=0x0B)
 61: 0x0EBC [0x29] REQ_SET_WAIT(priority=0x10, entity_id=Unnamed NPC (ID: 17809531/0x010FC07B), tag_num=0x0C)
 62: 0x0EC3 [0x80] LOAD_WAIT(entity=Unnamed NPC (ID: 17809531/0x010FC07B))
 63: 0x0EC8 [0x48] [System] [10104*]:
    → ""
 64: 0x0ECB [0x23] WAIT_FOR_DIALOG_INTERACTION
 65: 0x0ECC [0x27] REQ_SET(priority=0x10, entity_id=LocalPlayer, tag_num=0x3A)
 66: 0x0ED3 [0x27] REQ_SET(priority=0x10, entity_id=Unnamed NPC (ID: 17809531/0x010FC07B), tag_num=0x0D)
 67: 0x0EDA [0x1C] WAIT(10* ticks)
 68: 0x0EDD [0x52] END_LOAD_SCHEDULER: End scheduler "z705" with entities [LocalPlayer, LocalPlayer], work=344*
 69: 0x0EEC [0x45] LOAD_SCHEDULED_TASK: Load scheduler "z710" with entities [LocalPlayer, LocalPlayer], work=[344*, 0*]
 70: 0x0EFD [0x1A] CALL_SUBROUTINE(address=0x11F5)
 71: 0x0F00 [0x1C] WAIT(30* ticks)
 72: 0x0F03 [0x27] REQ_SET(priority=0x10, entity_id=Unnamed NPC (ID: 17809533/0x010FC07D), tag_num=0x07)
 73: 0x0F0A [0x1C] WAIT(60* ticks)
 74: 0x0F0D [0x52] END_LOAD_SCHEDULER: End scheduler "z710" with entities [LocalPlayer, LocalPlayer], work=344*
 75: 0x0F1C [0x45] LOAD_SCHEDULED_TASK: Load scheduler "z711" with entities [LocalPlayer, LocalPlayer], work=[344*, 0*]
 76: 0x0F2D [0x2B] Unnamed NPC (ID: 17809531/0x010FC07B) [11381*]:
    → "Well, well...it seems you have quite a diverse circle of acquaintances. Know many individuals. It's remarkable that you've managed to make connections with a pirate, of all professions."
 77: 0x0F34 [0x7A] VM_CONTROL: Reset VM for LocalPlayer
 78: 0x0F3A [0x4A] LocalPlayer looks at Unnamed NPC (ID: 17809531/0x010FC07B)
 79: 0x0F43 [0x1C] WAIT(90* ticks)
 80: 0x0F46 [0x4A] LocalPlayer looks at Unnamed NPC (ID: 17809531/0x010FC07B)
 81: 0x0F4F [0x1C] WAIT(30* ticks)
 82: 0x0F52 [0x7A] VM_CONTROL: Reset VM for Unnamed NPC (ID: 17809531/0x010FC07B)
 83: 0x0F58 [0x23] WAIT_FOR_DIALOG_INTERACTION
 84: 0x0F59 [0x5B] LOAD_EXT_SCHEDULER: Load scheduler "ude0" with entities [Unnamed NPC (ID: 17809531/0x010FC07B), Unnamed NPC (ID: 17809531/0x010FC07B)], work=1412*
 85: 0x0F68 [0x1C] WAIT(30* ticks)
 86: 0x0F6B [0x2B] Unnamed NPC (ID: 17809531/0x010FC07B) [11382*]:
    → "All the more impressive is that humans could place such a monumental object into the sky. How regrettable that such technology was lost to the ages. Eluded the annals."
 87: 0x0F72 [0x1C] WAIT(120* ticks)
 88: 0x0F75 [0x23] WAIT_FOR_DIALOG_INTERACTION
 89: 0x0F76 [0x52] END_LOAD_SCHEDULER: End scheduler "z711" with entities [LocalPlayer, LocalPlayer], work=344*
 90: 0x0F85 [0x45] LOAD_SCHEDULED_TASK: Load scheduler "z712" with entities [LocalPlayer, LocalPlayer], work=[344*, 0*]
 91: 0x0F96 [0x5B] LOAD_EXT_SCHEDULER: Load scheduler "ude1" with entities [Unnamed NPC (ID: 17809531/0x010FC07B), Unnamed NPC (ID: 17809531/0x010FC07B)], work=1412*
 92: 0x0FA5 [0x4A] Unnamed NPC (ID: 17809531/0x010FC07B) looks at LocalPlayer
 93: 0x0FAE [0x2B] Unnamed NPC (ID: 17809531/0x010FC07B) [11383*]:
    → "In any case, the corsair is correct in asserting that the intruders' influence is spreading. Extending its tendrils."
 94: 0x0FB5 [0x1C] WAIT(150* ticks)
 95: 0x0FB8 [0x23] WAIT_FOR_DIALOG_INTERACTION
 96: 0x0FB9 [0x52] END_LOAD_SCHEDULER: End scheduler "z712" with entities [LocalPlayer, LocalPlayer], work=344*
 97: 0x0FC8 [0x45] LOAD_SCHEDULED_TASK: Load scheduler "z713" with entities [LocalPlayer, LocalPlayer], work=[344*, 0*]
 98: 0x0FD9 [0x5B] LOAD_EXT_SCHEDULER: Load scheduler "pnt0" with entities [Unnamed NPC (ID: 17809531/0x010FC07B), Unnamed NPC (ID: 17809531/0x010FC07B)], work=1312*
 99: 0x0FE8 [0x1C] WAIT(45* ticks)
100: 0x0FEB [0x2B] Unnamed NPC (ID: 17809531/0x010FC07B) [11384*]:
    → "Your valiant efforts have so far mitigated the destruction, but soon you must face the scourge within Walk of Echoes. An inevitable encounter."
101: 0x0FF2 [0x23] WAIT_FOR_DIALOG_INTERACTION
102: 0x0FF3 [0x29] REQ_SET_WAIT(priority=0x10, entity_id=LocalPlayer, tag_num=0x38)
103: 0x0FFA [0x5B] LOAD_EXT_SCHEDULER: Load scheduler "pnt1" with entities [Unnamed NPC (ID: 17809531/0x010FC07B), Unnamed NPC (ID: 17809531/0x010FC07B)], work=1312*
104: 0x1009 [0x2B] Unnamed NPC (ID: 17809531/0x010FC07B) [11385*]:
    → "In what form is this scourge manifest, you wonder? Ponder its identity?"
105: 0x1010 [0x23] WAIT_FOR_DIALOG_INTERACTION
106: 0x1011 [0x53] WAIT_SCHEDULER_TASK: Wait for scheduler "pnt1" with entities [Unnamed NPC (ID: 17809531/0x010FC07B), Unnamed NPC (ID: 17809531/0x010FC07B)]
107: 0x101E [0x52] END_LOAD_SCHEDULER: End scheduler "z713" with entities [LocalPlayer, LocalPlayer], work=344*
108: 0x102D [0x45] LOAD_SCHEDULED_TASK: Load scheduler "z714" with entities [LocalPlayer, LocalPlayer], work=[344*, 0*]
109: 0x103E [0x5B] LOAD_EXT_SCHEDULER: Load scheduler "thk0" with entities [Unnamed NPC (ID: 17809531/0x010FC07B), Unnamed NPC (ID: 17809531/0x010FC07B)], work=1310*
110: 0x104D [0x1C] WAIT(30* ticks)
111: 0x1050 [0x2B] Unnamed NPC (ID: 17809531/0x010FC07B) [11386*]:
    → "You have traversed the realm innumerable times and confronted myriad entities. A plethora of personages. Then perhaps then you can intuit my answer. Kupofried has offered to help expose the true nature of this threat, but such efforts have so far proven fruitless."
112: 0x1057 [0x23] WAIT_FOR_DIALOG_INTERACTION
113: 0x1058 [0x2B] Unnamed NPC (ID: 17809531/0x010FC07B) [11387*]:
    → "It has us all drowning in a river of ignorance. Clawing clumsily at a mist of misunderstandings."
114: 0x105F [0x23] WAIT_FOR_DIALOG_INTERACTION
115: 0x1060 [0x52] END_LOAD_SCHEDULER: End scheduler "z714" with entities [LocalPlayer, LocalPlayer], work=344*
116: 0x106F [0x45] LOAD_SCHEDULED_TASK: Load scheduler "z715" with entities [LocalPlayer, LocalPlayer], work=[344*, 0*]
117: 0x1080 [0x5B] LOAD_EXT_SCHEDULER: Load scheduler "thk1" with entities [Unnamed NPC (ID: 17809531/0x010FC07B), Unnamed NPC (ID: 17809531/0x010FC07B)], work=1310*
118: 0x108F [0x1C] WAIT(45* ticks)
119: 0x1092 [0x2B] Unnamed NPC (ID: 17809531/0x010FC07B) [11388*]:
    → "When the river has run dry, I shall apprise you of any findings immediately. That silver-tongued sailor uttered a similar comment, but it bears repeating. Its iteration is warranted. Your prowess has never possessed such import as it soon will."
120: 0x1099 [0x23] WAIT_FOR_DIALOG_INTERACTION
121: 0x109A [0x2B] Unnamed NPC (ID: 17809531/0x010FC07B) [11389*]:
    → "While the Voidwalkers may be a concern, haven't you other endeavors to undertake? Horizons to expand?"
122: 0x10A1 [0x23] WAIT_FOR_DIALOG_INTERACTION
123: 0x10A2 [0x5B] LOAD_EXT_SCHEDULER: Load scheduler "tlk0" with entities [Unnamed NPC (ID: 17809531/0x010FC07B), Unnamed NPC (ID: 17809531/0x010FC07B)], work=1310*
124: 0x10B1 [0x2B] Unnamed NPC (ID: 17809531/0x010FC07B) [11390*]:
    → "The bonds you form with the denizens of Vana'diel may be not be visible, but they are pertinent. Their significance is palpable."
125: 0x10B8 [0x23] WAIT_FOR_DIALOG_INTERACTION
126: 0x10B9 [0x6E] LocalPlayer uses emote 7*
127: 0x10C0 [0x99] Wait for LocalPlayer animation to complete
128: 0x10C5 [0x1C] WAIT(90* ticks)
129: 0x10C8 [0x52] END_LOAD_SCHEDULER: End scheduler "z715" with entities [LocalPlayer, LocalPlayer], work=344*
130: 0x10D7 [0x45] LOAD_SCHEDULED_TASK: Load scheduler "z716" with entities [LocalPlayer, LocalPlayer], work=[344*, 0*]
131: 0x10E8 [0x2B] Unnamed NPC (ID: 17809531/0x010FC07B) [11391*]:
    → "When the time comes, these bonds will constitute the source of your strength. A fountain of fortitude."
132: 0x10EF [0x23] WAIT_FOR_DIALOG_INTERACTION
133: 0x10F0 [0x5B] LOAD_EXT_SCHEDULER: Load scheduler "tlk1" with entities [Unnamed NPC (ID: 17809531/0x010FC07B), Unnamed NPC (ID: 17809531/0x010FC07B)], work=1310*
134: 0x10FF [0x2B] Unnamed NPC (ID: 17809531/0x010FC07B) [11392*]:
    → "And on that note, we must part. Scatter to the winds. May we meet again, <Player>."
135: 0x1106 [0x23] WAIT_FOR_DIALOG_INTERACTION
136: 0x1107 [0x53] WAIT_SCHEDULER_TASK: Wait for scheduler "tlk1" with entities [Unnamed NPC (ID: 17809531/0x010FC07B), Unnamed NPC (ID: 17809531/0x010FC07B)]
137: 0x1114 [0x52] END_LOAD_SCHEDULER: End scheduler "z716" with entities [LocalPlayer, LocalPlayer], work=344*
138: 0x1123 [0x45] LOAD_SCHEDULED_TASK: Load scheduler "z717" with entities [LocalPlayer, LocalPlayer], work=[344*, 0*]
139: 0x1134 [0x27] REQ_SET(priority=0x10, entity_id=Unnamed NPC (ID: 17809531/0x010FC07B), tag_num=0x0E)
140: 0x113B [0x1C] WAIT(60* ticks)
141: 0x113E [0x27] REQ_SET(priority=0x10, entity_id=Unnamed NPC (ID: 17809533/0x010FC07D), tag_num=0x08)
142: 0x1145 [0x4A] LocalPlayer looks at Unnamed NPC (ID: 17809531/0x010FC07B)
143: 0x114E [0x1C] WAIT(60* ticks)
144: 0x1151 [0x1A] CALL_SUBROUTINE(address=0x1216)
145: 0x1154 [0x1C] WAIT(30* ticks)
146: 0x1157 [0x02] IF !(ExtData[1]->WorkLocal[2] == 1*) GOTO 0x1165
147: 0x115F [0x7A] VM_CONTROL: Reset VM for Unnamed NPC (ID: 17809531/0x010FC07B)
148: 0x1165 [0x52] END_LOAD_SCHEDULER: End scheduler "z705" with entities [LocalPlayer, LocalPlayer], work=344*
149: 0x1174 [0x52] END_LOAD_SCHEDULER: End scheduler "z717" with entities [LocalPlayer, LocalPlayer], work=344*
150: 0x1183 [0x45] LOAD_SCHEDULED_TASK: Load scheduler "0blf" with entities [LocalPlayer, LocalPlayer], work=[344*, 0*]
151: 0x1194 [0x1C] WAIT(15* ticks)
152: 0x1197 [0xAB] EventEntity->DespawnValue = 0* // Set despawn value
153: 0x119B [0x1C] WAIT(1* ticks)
154: 0x119E [0x46] CAMERA_CONTROL: Restore default settings
155: 0x11A0 [0x45] LOAD_SCHEDULED_TASK: Load scheduler "fdi2" with entities [LocalPlayer, LocalPlayer], work=[200*, 0*]
156: 0x11B1 [0x21] END_EVENT
157: 0x11B2 [0x00] END_REQSTACK()

SUBROUTINE_11F5:
158: 0x11F5 [0x45] LOAD_SCHEDULED_TASK: Load scheduler "fdi1" with entities [LocalPlayer, LocalPlayer], work=[200*, 0*]
159: 0x1206 [0x55] WAIT_LOAD_SCHEDULER: Wait for scheduler "fdi1" with entities [LocalPlayer, LocalPlayer], work=200*
160: 0x1215 [0x1B] RETURN

SUBROUTINE_1216:
161: 0x1216 [0x45] LOAD_SCHEDULED_TASK: Load scheduler "fdo1" with entities [LocalPlayer, LocalPlayer], work=[200*, 0*]
162: 0x1227 [0x55] WAIT_LOAD_SCHEDULER: Wait for scheduler "fdo1" with entities [LocalPlayer, LocalPlayer], work=200*
163: 0x1236 [0x1B] RETURN
```

#### Data or dead code:

```
# Dead code (unreachable instructions):
     0x11B3 [0x45] LOAD_SCHEDULED_TASK: Load scheduler "fdi0" with entities [LocalPlayer, LocalPlayer], work=[200*, 0*]
     0x11C4 [0x55] WAIT_LOAD_SCHEDULER: Wait for scheduler "fdi0" with entities [LocalPlayer, LocalPlayer], work=200*
     0x11D3 [0x1B] RETURN
     0x11D4 [0x45] LOAD_SCHEDULED_TASK: Load scheduler "fdo0" with entities [LocalPlayer, LocalPlayer], work=[200*, 0*]
     0x11E5 [0x55] WAIT_LOAD_SCHEDULER: Wait for scheduler "fdo0" with entities [LocalPlayer, LocalPlayer], work=200*
     0x11F4 [0x1B] RETURN
# Dead code (unreachable instructions):
     0x1237 [0x45] LOAD_SCHEDULED_TASK: Load scheduler "whi1" with entities [LocalPlayer, LocalPlayer], work=[201*, 0*]
     0x1248 [0x55] WAIT_LOAD_SCHEDULER: Wait for scheduler "whi1" with entities [LocalPlayer, LocalPlayer], work=201*
     0x1257 [0x1B] RETURN
     0x1258 [0x45] LOAD_SCHEDULED_TASK: Load scheduler "who1" with entities [LocalPlayer, LocalPlayer], work=[201*, 0*]
     0x1269 [0x55] WAIT_LOAD_SCHEDULER: Wait for scheduler "who1" with entities [LocalPlayer, LocalPlayer], work=201*
     0x1278 [0x1B] RETURN
     0x1279 [0x45] LOAD_SCHEDULED_TASK: Load scheduler "who2" with entities [LocalPlayer, LocalPlayer], work=[201*, 0*]
     0x128A [0x55] WAIT_LOAD_SCHEDULER: Wait for scheduler "who2" with entities [LocalPlayer, LocalPlayer], work=201*
     0x1299 [0x1B] RETURN
     0x129A [0x45] LOAD_SCHEDULED_TASK: Load scheduler "who3" with entities [LocalPlayer, LocalPlayer], work=[201*, 0*]
     0x12AB [0x55] WAIT_LOAD_SCHEDULER: Wait for scheduler "who3" with entities [LocalPlayer, LocalPlayer], work=201*
     0x12BA [0x1B] RETURN
     0x12BB [0x62] LOAD_EVENT_SCHEDULER: Load scheduler "main" with entities [LocalPlayer, LocalPlayer], work=[1*, 0*]
     0x12CC [0x1C] WAIT(45* ticks)
     0x12CF [0x45] LOAD_SCHEDULED_TASK: Load scheduler "fdo1" with entities [LocalPlayer, LocalPlayer], work=[200*, 0*]
     0x12E0 [0x55] WAIT_LOAD_SCHEDULER: Wait for scheduler "fdo1" with entities [LocalPlayer, LocalPlayer], work=200*
     0x12EF [0x1B] RETURN
     0x12F0 [0x45] LOAD_SCHEDULED_TASK: Load scheduler "fdi1" with entities [LocalPlayer, LocalPlayer], work=[200*, 0*]
     0x1301 [0x62] LOAD_EVENT_SCHEDULER: Load scheduler "main" with entities [LocalPlayer, LocalPlayer], work=[2*, 0*]
     0x1312 [0x1C] WAIT(30* ticks)
     0x1315 [0x55] WAIT_LOAD_SCHEDULER: Wait for scheduler "fdi1" with entities [LocalPlayer, LocalPlayer], work=200*
     0x1324 [0x1B] RETURN
     0x1325 [0x45] LOAD_SCHEDULED_TASK: Load scheduler "blon" with entities [LocalPlayer, LocalPlayer], work=[200*, 0*]
     0x1336 [0x45] LOAD_SCHEDULED_TASK: Load scheduler "blon" with entities [LocalPlayer, LocalPlayer], work=[201*, 0*]
     0x1347 [0x1B] RETURN
     0x1348 [0x45] LOAD_SCHEDULED_TASK: Load scheduler "whi0" with entities [LocalPlayer, LocalPlayer], work=[201*, 0*]
     0x1359 [0x55] WAIT_LOAD_SCHEDULER: Wait for scheduler "whi0" with entities [LocalPlayer, LocalPlayer], work=201*
     0x1368 [0x1B] RETURN
     0x1369 [0x45] LOAD_SCHEDULED_TASK: Load scheduler "who0" with entities [LocalPlayer, LocalPlayer], work=[201*, 0*]
     0x137A [0x55] WAIT_LOAD_SCHEDULER: Wait for scheduler "who0" with entities [LocalPlayer, LocalPlayer], work=201*
     0x1389 [0x1B] RETURN
     0x138A [0x45] LOAD_SCHEDULED_TASK: Load scheduler "efon" with entities [LocalPlayer, LocalPlayer], work=[215*, 0*]
     0x139B [0x55] WAIT_LOAD_SCHEDULER: Wait for scheduler "efon" with entities [LocalPlayer, LocalPlayer], work=215*
     0x13AA [0x1B] RETURN
     0x13AB [0x45] LOAD_SCHEDULED_TASK: Load scheduler "fdis" with entities [LocalPlayer, LocalPlayer], work=[200*, 0*]
     0x13BC [0x1B] RETURN
     0x13BD [0x45] LOAD_SCHEDULED_TASK: Load scheduler "fdos" with entities [LocalPlayer, LocalPlayer], work=[200*, 0*]
     0x13CE [0x55] WAIT_LOAD_SCHEDULER: Wait for scheduler "fdos" with entities [LocalPlayer, LocalPlayer], work=200*
     0x13DD [0x1B] RETURN
     0x13DE [0x45] LOAD_SCHEDULED_TASK: Load scheduler "fdif" with entities [LocalPlayer, LocalPlayer], work=[200*, 0*]
     0x13EF [0x1B] RETURN
     0x13F0 [0x45] LOAD_SCHEDULED_TASK: Load scheduler "fdof" with entities [LocalPlayer, LocalPlayer], work=[200*, 0*]
     0x1401 [0x55] WAIT_LOAD_SCHEDULER: Wait for scheduler "fdof" with entities [LocalPlayer, LocalPlayer], work=200*
     0x1410 [0x1B] RETURN
     0x1411 [0x45] LOAD_SCHEDULED_TASK: Load scheduler "fdip" with entities [LocalPlayer, LocalPlayer], work=[200*, 0*]
     0x1422 [0x1B] RETURN
     0x1423 [0x45] LOAD_SCHEDULED_TASK: Load scheduler "fdop" with entities [LocalPlayer, LocalPlayer], work=[200*, 0*]
     0x1434 [0x55] WAIT_LOAD_SCHEDULER: Wait for scheduler "fdop" with entities [LocalPlayer, LocalPlayer], work=200*
     0x1443 [0x1B] RETURN
```
