# 17809427 - Aeka

## Common Data

| Field            | Value          |
|------------------|----------------|
| Zone             | Norg (ID: 252) |
| Block Size       | 588 bytes      |
| Total Events     | 10             |
| References Count | 28             |

## List of Events

| Event ID              | Entrypoint   |   Size |   Instructions |
|-----------------------|--------------|--------|----------------|
| [65535](#event-65535) | 0x0000       |      1 |              1 |
| [75](#event-75)       | 0x0001       |     12 |              6 |
| [120](#event-120)     | 0x000D       |     12 |              6 |
| [44](#event-44)       | 0x0019       |     58 |             18 |
| [45](#event-45)       | 0x0053       |     13 |              7 |
| [46](#event-46)       | 0x0060       |     25 |             10 |
| [47](#event-47)       | 0x0079       |     38 |              8 |
| [49](#event-49)       | 0x009F       |     10 |              6 |
| [50](#event-50)       | 0x00A9       |     17 |              9 |
| [280](#event-280)     | 0x00BA       |    232 |             37 |

## DAT References (imed_data)

|   Index | Hex Value   |   Dec Value |
|---------|-------------|-------------|
|       0 | 0x285A      |       10330 |
|       1 | 0x2803      |       10243 |
|       2 | 0x27F6      |       10230 |
|       3 | 0x000A      |          10 |
|       4 | 0x27F7      |       10231 |
|       5 | 0x27F8      |       10232 |
|       6 | 0x27F9      |       10233 |
|       7 | 0x27FA      |       10234 |
|       8 | 0x27FB      |       10235 |
|       9 | 0x27FC      |       10236 |
|      10 | 0x0001      |           1 |
|      11 | 0x27FE      |       10238 |
|      12 | 0x27FD      |       10237 |
|      13 | 0x27FF      |       10239 |
|      14 | 0x2800      |       10240 |
|      15 | 0x2801      |       10241 |
|      16 | 0x2802      |       10242 |
|      17 | 0x3032      |       12338 |
|      18 | 0x0000      |           0 |
|      19 | 0x0014      |          20 |
|      20 | 0x001E      |          30 |
|      21 | 0x0028      |          40 |
|      22 | 0x0032      |          50 |
|      23 | 0x003C      |          60 |
|      24 | 0x0005      |           5 |
|      25 | 0x0050      |          80 |
|      26 | 0x00EE      |         238 |
|      27 | 0x0236      |         566 |

## String References

- **10230**: What does an adventurer like you need $0 for? Oh, Master Jaucribaix sent you. Then I guess I have to give you this.
- **10231**: To the untrained eye, this $1 may look like a simple piece of scrap iron, but it is actually a rare ore from the Far East.
- **10232**: It contains metals not found on Mindartia or Quon. By processing this in a special way, it will become the perfect material for melting iron in the Master's furnace.
- **10233**: Your job is to find a bomb to consume this $1. When a bomb eats it, it will be refined into $0.
- **10234**: Somewhere in the Konschtat Highlands is a small cave with a charred floor. It is there you will find a bomb that will consume the $1.
- **10235**: Place it on the charred area, and retrieve the $0 from the bomb that appears.
- **10236**: Place the $1 on the charred area in a cave in the Konschtat Highlands, and retrieve the $0 from the bomb that appears.
- **10237**: You need another $1? Fine, but these do not come cheap. I will give you a new one only in exchange for $2.
- **10238**: $1 do not come cheap. I will give you a new one only in exchange for $2.
- **10239**: Ah, $2. Here is the $1 I promised, but you should really try to take better care of your belongings...
- **10240**: I see you made it back safely. I hope you didn't have trouble with the bomb. The $0? Oh, you can give that directly to Master Jaucribaix.
- **10241**: You do not have to worry about your reward. Master Jaucribaix is a man of his word. Time is necessary for him to complete his work.
- **10242**: You must be patient. Nothing good can be gained by rushing things.
- **10243**: You must not set any limits in your life, as your progress will end when you reach them. Always set your goals high, and you will continue to grow stronger.
- **10330**: Haven't seen ya 'round these parts, landlubber. Must be one'a those new-fangled adventurers. So, how ya likin' our hideout?
- **12338**: On the prowl fer Gilgamesh, scallywag? Ya'll find him a bit farther in.

## Events

### Event 65535

#### Metadata

| Field        | Value   |
|--------------|---------|
| Entrypoint   | 0x0000  |
| Data Size    | 1 bytes |
| Instructions | 1       |

```
      00 01 02 03 04 05 06 07  08 09 0A 0B 0C 0D 0E 0F
      -- -- -- -- -- -- -- --  -- -- -- -- -- -- -- --
0000: 00                                                .               
```

#### Opcodes

```
  0: 0x0000 [0x00] END_REQSTACK()
```

### Event 75

#### Metadata

| Field        | Value    |
|--------------|----------|
| Entrypoint   | 0x0001   |
| Data Size    | 12 bytes |
| Instructions | 6        |

```
      00 01 02 03 04 05 06 07  08 09 0A 0B 0C 0D 0E 0F
      -- -- -- -- -- -- -- --  -- -- -- -- -- -- -- --
0000:    1A C4 00 1A F2 00 1D  00 80 23 21 00            .........#!.   
```

#### Opcodes

```
  0: 0x0001 [0x1A] CALL_SUBROUTINE(address=0x00C4)
  1: 0x0004 [0x1A] CALL_SUBROUTINE(address=0x00F2)
  2: 0x0007 [0x1D] PRINT_EVENT_MESSAGE(message_id=10330*)
    → "Haven't seen ya 'round these parts, landlubber. Must be one'a those new-fangled adventurers. So, how ya likin' our hideout?"
  3: 0x000A [0x23] WAIT_FOR_DIALOG_INTERACTION
  4: 0x000B [0x21] END_EVENT
  5: 0x000C [0x00] END_REQSTACK()
```

### Event 120

#### Metadata

| Field        | Value    |
|--------------|----------|
| Entrypoint   | 0x000D   |
| Data Size    | 12 bytes |
| Instructions | 6        |

```
      00 01 02 03 04 05 06 07  08 09 0A 0B 0C 0D 0E 0F
      -- -- -- -- -- -- -- --  -- -- -- -- -- -- -- --
0000:                                         1A C4 00               ...
0010: 1A F2 00 1D 01 80 23 21  00                       ......#!.       
```

#### Opcodes

```
  0: 0x000D [0x1A] CALL_SUBROUTINE(address=0x00C4)
  1: 0x0010 [0x1A] CALL_SUBROUTINE(address=0x00F2)
  2: 0x0013 [0x1D] PRINT_EVENT_MESSAGE(message_id=10243*)
    → "You must not set any limits in your life, as your progress will end when you reach them. Always set your goals high, and you will continue to grow stronger."
  3: 0x0016 [0x23] WAIT_FOR_DIALOG_INTERACTION
  4: 0x0017 [0x21] END_EVENT
  5: 0x0018 [0x00] END_REQSTACK()
```

### Event 44

#### Metadata

| Field        | Value    |
|--------------|----------|
| Entrypoint   | 0x0019   |
| Data Size    | 58 bytes |
| Instructions | 18       |

```
      00 01 02 03 04 05 06 07  08 09 0A 0B 0C 0D 0E 0F
      -- -- -- -- -- -- -- --  -- -- -- -- -- -- -- --
0010:                             42 1A C4 00 1D 02 80           B......
0020: 23 66 03 80 F8 FF FF 7F  F8 FF FF 7F 70 61 73 30  #f..........pas0
0030: 53 F8 FF FF 7F F8 FF FF  7F 70 61 73 30 1D 04 80  S........pas0...
0040: 23 1D 05 80 23 1D 06 80  23 1D 07 80 23 1D 08 80  #...#...#...#...
0050: 23 21 00                                          #!.             
```

#### Opcodes

```
  0: 0x0019 [0x42] SET_CLI_EVENT_CANCEL_DATA()
  1: 0x001A [0x1A] CALL_SUBROUTINE(address=0x00C4)
  2: 0x001D [0x1D] PRINT_EVENT_MESSAGE(message_id=10230*)
    → "What does an adventurer like you need $0 for? Oh, Master Jaucribaix sent you. Then I guess I have to give you this."
  3: 0x0020 [0x23] WAIT_FOR_DIALOG_INTERACTION
  4: 0x0021 [0x66] LOAD_EXT_SCHEDULER_MAIN: Load scheduler "pas0" with entities [EventEntity, EventEntity], work=10*
  5: 0x0030 [0x53] WAIT_SCHEDULER_TASK: Wait for scheduler "pas0" with entities [EventEntity, EventEntity]
  6: 0x003D [0x1D] PRINT_EVENT_MESSAGE(message_id=10231*)
    → "To the untrained eye, this $1 may look like a simple piece of scrap iron, but it is actually a rare ore from the Far East."
  7: 0x0040 [0x23] WAIT_FOR_DIALOG_INTERACTION
  8: 0x0041 [0x1D] PRINT_EVENT_MESSAGE(message_id=10232*)
    → "It contains metals not found on Mindartia or Quon. By processing this in a special way, it will become the perfect material for melting iron in the Master's furnace."
  9: 0x0044 [0x23] WAIT_FOR_DIALOG_INTERACTION
 10: 0x0045 [0x1D] PRINT_EVENT_MESSAGE(message_id=10233*)
    → "Your job is to find a bomb to consume this $1. When a bomb eats it, it will be refined into $0."
 11: 0x0048 [0x23] WAIT_FOR_DIALOG_INTERACTION
 12: 0x0049 [0x1D] PRINT_EVENT_MESSAGE(message_id=10234*)
    → "Somewhere in the Konschtat Highlands is a small cave with a charred floor. It is there you will find a bomb that will consume the $1."
 13: 0x004C [0x23] WAIT_FOR_DIALOG_INTERACTION
 14: 0x004D [0x1D] PRINT_EVENT_MESSAGE(message_id=10235*)
    → "Place it on the charred area, and retrieve the $0 from the bomb that appears."
 15: 0x0050 [0x23] WAIT_FOR_DIALOG_INTERACTION
 16: 0x0051 [0x21] END_EVENT
 17: 0x0052 [0x00] END_REQSTACK()
```

### Event 45

#### Metadata

| Field        | Value    |
|--------------|----------|
| Entrypoint   | 0x0053   |
| Data Size    | 13 bytes |
| Instructions | 7        |

```
      00 01 02 03 04 05 06 07  08 09 0A 0B 0C 0D 0E 0F
      -- -- -- -- -- -- -- --  -- -- -- -- -- -- -- --
0050:          1A C4 00 1D 07  80 23 1D 09 80 23 21 00     ......#...#!.
```

#### Opcodes

```
  0: 0x0053 [0x1A] CALL_SUBROUTINE(address=0x00C4)
  1: 0x0056 [0x1D] PRINT_EVENT_MESSAGE(message_id=10234*)
    → "Somewhere in the Konschtat Highlands is a small cave with a charred floor. It is there you will find a bomb that will consume the $1."
  2: 0x0059 [0x23] WAIT_FOR_DIALOG_INTERACTION
  3: 0x005A [0x1D] PRINT_EVENT_MESSAGE(message_id=10236*)
    → "Place the $1 on the charred area in a cave in the Konschtat Highlands, and retrieve the $0 from the bomb that appears."
  4: 0x005D [0x23] WAIT_FOR_DIALOG_INTERACTION
  5: 0x005E [0x21] END_EVENT
  6: 0x005F [0x00] END_REQSTACK()
```

### Event 46

#### Metadata

| Field        | Value    |
|--------------|----------|
| Entrypoint   | 0x0060   |
| Data Size    | 25 bytes |
| Instructions | 10       |

```
      00 01 02 03 04 05 06 07  08 09 0A 0B 0C 0D 0E 0F
      -- -- -- -- -- -- -- --  -- -- -- -- -- -- -- --
0060: 42 1A C4 00 02 09 10 0A  80 00 73 00 1D 0B 80 23  B.........s....#
0070: 01 77 00 1D 0C 80 23 21  00                       .w....#!.       
```

#### Opcodes

```
  0: 0x0060 [0x42] SET_CLI_EVENT_CANCEL_DATA()
  1: 0x0061 [0x1A] CALL_SUBROUTINE(address=0x00C4)
  2: 0x0064 [0x02] IF !(Work_Zone[9] == 1*) GOTO 0x0073
  3: 0x006C [0x1D] PRINT_EVENT_MESSAGE(message_id=10238*)
    → "$1 do not come cheap. I will give you a new one only in exchange for $2."
  4: 0x006F [0x23] WAIT_FOR_DIALOG_INTERACTION
  5: 0x0070 [0x01] GOTO 0x0077
  6: 0x0073 [0x1D] PRINT_EVENT_MESSAGE(message_id=10237*)
    → "You need another $1? Fine, but these do not come cheap. I will give you a new one only in exchange for $2."
  7: 0x0076 [0x23] WAIT_FOR_DIALOG_INTERACTION

SUBROUTINE_0077:
  8: 0x0077 [0x21] END_EVENT
  9: 0x0078 [0x00] END_REQSTACK()
```

### Event 47

#### Metadata

| Field        | Value    |
|--------------|----------|
| Entrypoint   | 0x0079   |
| Data Size    | 38 bytes |
| Instructions | 8        |

```
      00 01 02 03 04 05 06 07  08 09 0A 0B 0C 0D 0E 0F
      -- -- -- -- -- -- -- --  -- -- -- -- -- -- -- --
0070:                             42 1A C4 00 1D 0D 80           B......
0080: 23 66 03 80 F8 FF FF 7F  F8 FF FF 7F 70 61 73 30  #f..........pas0
0090: 53 F8 FF FF 7F F8 FF FF  7F 70 61 73 30 21 00     S........pas0!. 
```

#### Opcodes

```
  0: 0x0079 [0x42] SET_CLI_EVENT_CANCEL_DATA()
  1: 0x007A [0x1A] CALL_SUBROUTINE(address=0x00C4)
  2: 0x007D [0x1D] PRINT_EVENT_MESSAGE(message_id=10239*)
    → "Ah, $2. Here is the $1 I promised, but you should really try to take better care of your belongings..."
  3: 0x0080 [0x23] WAIT_FOR_DIALOG_INTERACTION
  4: 0x0081 [0x66] LOAD_EXT_SCHEDULER_MAIN: Load scheduler "pas0" with entities [EventEntity, EventEntity], work=10*
  5: 0x0090 [0x53] WAIT_SCHEDULER_TASK: Wait for scheduler "pas0" with entities [EventEntity, EventEntity]
  6: 0x009D [0x21] END_EVENT
  7: 0x009E [0x00] END_REQSTACK()
```

### Event 49

#### Metadata

| Field        | Value    |
|--------------|----------|
| Entrypoint   | 0x009F   |
| Data Size    | 10 bytes |
| Instructions | 6        |

```
      00 01 02 03 04 05 06 07  08 09 0A 0B 0C 0D 0E 0F
      -- -- -- -- -- -- -- --  -- -- -- -- -- -- -- --
0090:                                               42                 B
00A0: 1A C4 00 1D 0E 80 23 21  00                       ......#!.       
```

#### Opcodes

```
  0: 0x009F [0x42] SET_CLI_EVENT_CANCEL_DATA()
  1: 0x00A0 [0x1A] CALL_SUBROUTINE(address=0x00C4)
  2: 0x00A3 [0x1D] PRINT_EVENT_MESSAGE(message_id=10240*)
    → "I see you made it back safely. I hope you didn't have trouble with the bomb. The $0? Oh, you can give that directly to Master Jaucribaix."
  3: 0x00A6 [0x23] WAIT_FOR_DIALOG_INTERACTION
  4: 0x00A7 [0x21] END_EVENT
  5: 0x00A8 [0x00] END_REQSTACK()
```

### Event 50

#### Metadata

| Field        | Value    |
|--------------|----------|
| Entrypoint   | 0x00A9   |
| Data Size    | 17 bytes |
| Instructions | 9        |

```
      00 01 02 03 04 05 06 07  08 09 0A 0B 0C 0D 0E 0F
      -- -- -- -- -- -- -- --  -- -- -- -- -- -- -- --
00A0:                             42 1A C4 00 1A F2 00           B......
00B0: 1D 0F 80 23 1D 10 80 23  21 00                    ...#...#!.      
```

#### Opcodes

```
  0: 0x00A9 [0x42] SET_CLI_EVENT_CANCEL_DATA()
  1: 0x00AA [0x1A] CALL_SUBROUTINE(address=0x00C4)
  2: 0x00AD [0x1A] CALL_SUBROUTINE(address=0x00F2)
  3: 0x00B0 [0x1D] PRINT_EVENT_MESSAGE(message_id=10241*)
    → "You do not have to worry about your reward. Master Jaucribaix is a man of his word. Time is necessary for him to complete his work."
  4: 0x00B3 [0x23] WAIT_FOR_DIALOG_INTERACTION
  5: 0x00B4 [0x1D] PRINT_EVENT_MESSAGE(message_id=10242*)
    → "You must be patient. Nothing good can be gained by rushing things."
  6: 0x00B7 [0x23] WAIT_FOR_DIALOG_INTERACTION
  7: 0x00B8 [0x21] END_EVENT
  8: 0x00B9 [0x00] END_REQSTACK()
```

### Event 280

#### Metadata

| Field        | Value     |
|--------------|-----------|
| Entrypoint   | 0x00BA    |
| Data Size    | 232 bytes |
| Instructions | 11        |

```
      00 01 02 03 04 05 06 07  08 09 0A 0B 0C 0D 0E 0F
      -- -- -- -- -- -- -- --  -- -- -- -- -- -- -- --
00B0:                                42 1A C4 00 1D 11            B.....
00C0: 80 23 21 00 86 00 F8 FF  FF 7F 1E F0 FF FF 7F 6F  .#!............o
00D0: 70 1B 66 12 80 F8 FF FF  7F F8 FF FF 7F 74 6C 6B  p.f..........tlk
00E0: 30 1B 66 12 80 F8 FF FF  7F F8 FF FF 7F 74 6C 6B  0.f..........tlk
00F0: 31 1B 66 03 80 F8 FF FF  7F F8 FF FF 7F 74 6C 6B  1.f..........tlk
0100: 30 1B 66 13 80 F8 FF FF  7F F8 FF FF 7F 74 6C 6B  0.f..........tlk
0110: 30 1B 66 14 80 F8 FF FF  7F F8 FF FF 7F 74 6C 6B  0.f..........tlk
0120: 30 1B 66 15 80 F8 FF FF  7F F8 FF FF 7F 74 6C 6B  0.f..........tlk
0130: 30 1B 66 16 80 F8 FF FF  7F F8 FF FF 7F 74 6C 6B  0.f..........tlk
0140: 30 1B 66 17 80 F8 FF FF  7F F8 FF FF 7F 74 6C 6B  0.f..........tlk
0150: 30 1B 5B 18 80 F8 FF FF  7F F8 FF FF 7F 74 6C 6B  0.[..........tlk
0160: 30 1B 5B 19 80 F8 FF FF  7F F8 FF FF 7F 74 6C 6B  0.[..........tlk
0170: 30 1B 5B 1A 80 F8 FF FF  7F F8 FF FF 7F 74 6C 6B  0.[..........tlk
0180: 30 1B 5B 1B 80 F8 FF FF  7F F8 FF FF 7F 74 6C 6B  0.[..........tlk
0190: 30 1B 5B 17 80 F8 FF FF  7F F8 FF FF 7F 74 6C 62  0.[..........tlb
01A0: 30 1B                                             0.              
```

#### Opcodes

```
  0: 0x00BA [0x42] SET_CLI_EVENT_CANCEL_DATA()
  1: 0x00BB [0x1A] CALL_SUBROUTINE(address=0x00C4)
  2: 0x00BE [0x1D] PRINT_EVENT_MESSAGE(message_id=12338*)
    → "On the prowl fer Gilgamesh, scallywag? Ya'll find him a bit farther in."
  3: 0x00C1 [0x23] WAIT_FOR_DIALOG_INTERACTION
  4: 0x00C2 [0x21] END_EVENT
  5: 0x00C3 [0x00] END_REQSTACK()

SUBROUTINE_00C4:
  6: 0x00C4 [0x86] EventEntity->Render.Flags3 = Flags3  // No change (flag=0)
  7: 0x00CA [0x1E] EventEntity looks at LocalPlayer and starts talking
  8: 0x00CF [0x6F] WAIT_FRAME_DELAY: Yield until WaitTime reaches zero
  9: 0x00D0 [0x70] WAIT_ENTITY_RENDER_FLAG: Wait while EventEntity->Render.Flags3 bit 2 is set (cancel turn if not)
 10: 0x00D1 [0x1B] RETURN
```

#### Data or dead code:

```
# Dead code (unreachable instructions):
     0x00D2 [0x66] LOAD_EXT_SCHEDULER_MAIN: Load scheduler "tlk0" with entities [EventEntity, EventEntity], work=0*
     0x00E1 [0x1B] RETURN
     0x00E2 [0x66] LOAD_EXT_SCHEDULER_MAIN: Load scheduler "tlk1" with entities [EventEntity, EventEntity], work=0*
     0x00F1 [0x1B] RETURN
     0x00F2 [0x66] LOAD_EXT_SCHEDULER_MAIN: Load scheduler "tlk0" with entities [EventEntity, EventEntity], work=10*
     0x0101 [0x1B] RETURN
     0x0102 [0x66] LOAD_EXT_SCHEDULER_MAIN: Load scheduler "tlk0" with entities [EventEntity, EventEntity], work=20*
     0x0111 [0x1B] RETURN
     0x0112 [0x66] LOAD_EXT_SCHEDULER_MAIN: Load scheduler "tlk0" with entities [EventEntity, EventEntity], work=30*
     0x0121 [0x1B] RETURN
     0x0122 [0x66] LOAD_EXT_SCHEDULER_MAIN: Load scheduler "tlk0" with entities [EventEntity, EventEntity], work=40*
     0x0131 [0x1B] RETURN
     0x0132 [0x66] LOAD_EXT_SCHEDULER_MAIN: Load scheduler "tlk0" with entities [EventEntity, EventEntity], work=50*
     0x0141 [0x1B] RETURN
     0x0142 [0x66] LOAD_EXT_SCHEDULER_MAIN: Load scheduler "tlk0" with entities [EventEntity, EventEntity], work=60*
     0x0151 [0x1B] RETURN
     0x0152 [0x5B] LOAD_EXT_SCHEDULER: Load scheduler "tlk0" with entities [EventEntity, EventEntity], work=5*
     0x0161 [0x1B] RETURN
     0x0162 [0x5B] LOAD_EXT_SCHEDULER: Load scheduler "tlk0" with entities [EventEntity, EventEntity], work=80*
     0x0171 [0x1B] RETURN
     0x0172 [0x5B] LOAD_EXT_SCHEDULER: Load scheduler "tlk0" with entities [EventEntity, EventEntity], work=238*
     0x0181 [0x1B] RETURN
     0x0182 [0x5B] LOAD_EXT_SCHEDULER: Load scheduler "tlk0" with entities [EventEntity, EventEntity], work=566*
     0x0191 [0x1B] RETURN
     0x0192 [0x5B] LOAD_EXT_SCHEDULER: Load scheduler "tlb0" with entities [EventEntity, EventEntity], work=60*
     0x01A1 [0x1B] RETURN
```
