# 17809437 - Shivivi

## Common Data

| Field            | Value          |
|------------------|----------------|
| Zone             | Norg (ID: 252) |
| Block Size       | 572 bytes      |
| Total Events     | 4              |
| References Count | 28             |

## List of Events

| Event ID              | Entrypoint   |   Size |   Instructions |
|-----------------------|--------------|--------|----------------|
| [65535](#event-65535) | 0x0000       |      1 |              1 |
| [85](#event-85)       | 0x0001       |     54 |             14 |
| [31](#event-31)       | 0x0037       |    139 |             33 |
| [32](#event-32)       | 0x00C2       |    234 |             37 |

## DAT References (imed_data)

|   Index | Hex Value   |   Dec Value |
|---------|-------------|-------------|
|       0 | 0x0028      |          40 |
|       1 | 0x2856      |       10326 |
|       2 | 0x0029      |          41 |
|       3 | 0x2857      |       10327 |
|       4 | 0x2858      |       10328 |
|       5 | 0x2859      |       10329 |
|       6 | 0x0015      |          21 |
|       7 | 0x2815      |       10261 |
|       8 | 0x2816      |       10262 |
|       9 | 0x2817      |       10263 |
|      10 | 0x2818      |       10264 |
|      11 | 0x2819      |       10265 |
|      12 | 0x281A      |       10266 |
|      13 | 0x281B      |       10267 |
|      14 | 0x281C      |       10268 |
|      15 | 0x281D      |       10269 |
|      16 | 0x281E      |       10270 |
|      17 | 0x281F      |       10271 |
|      18 | 0x0000      |           0 |
|      19 | 0x000A      |          10 |
|      20 | 0x0014      |          20 |
|      21 | 0x001E      |          30 |
|      22 | 0x0032      |          50 |
|      23 | 0x003C      |          60 |
|      24 | 0x0005      |           5 |
|      25 | 0x0050      |          80 |
|      26 | 0x00EE      |         238 |
|      27 | 0x0236      |         566 |

## String References

- **10261**: Well, shivivi me timbers! Dat $0 you're carryin'! I'be seen dat before!
- **10262**: Me and my ninja mateys here in Norg worked day and night and night and day to come up wit' some new-fangled ninjutsu. But we made it a little too fangled...
- **10263**: ...and we were neber-eber able to use it. So we trew da ting into one of Norg's baults, and forgot about it. Where did you find dat anyway?
- **10264**: You caught it fishin'? Dis's gotta be da work ob dem fishy-washy Sahagin.
- **10265**: Dey probably trew it away when dey saw it was blank. Dey didn't know der's a special way to make the writin' bisable.
- **10266**: What does it say? Oh, I forgot dat years ago. But I do remember how to read it.
- **10267**: Yeah, it was dat metod dat prebented us from usin' da scroll in da first place... But anyway, take dat $0 to da hot spring on Horlais Peak.
- **10268**: When ya put da scroll in da water, da letters will appear, and boila-la! You're done!
- **10269**: Why all da way to Horlais Peak? Well, if it was easy to get dere, wouldn't be much ob a super-special secret scroll now, would it?
- **10270**: Da only reason we stopped makin' dem was because nobody-buddy wanted to walk all da way to dose hot springs...
- **10271**: If you wanna read da scroll, jus' take it to da hot spring on Horlais Peak and dip it in da water. If it's da wrong water, the words will neber appear.
- **10326**: Donya tink ninja's da bestest job in da wald? Two weapons in hand on da battlefield. Two fryin' pans at home in da kitchen.
- **10327**: But ninjas aren't all about cookin'. Dere was dis one ten years ago dat was stronger dan stronger dan strong.
- **10328**: At da time, people eben said dat she was stronger dan Gilgamesh! I fought wit her many a time, but I could neber match her skill.
- **10329**: If only she was still around... You coulda asked her all about how t'be a ninja!

## Events

### Event 65535

#### Metadata

| Field        | Value   |
|--------------|---------|
| Entrypoint   | 0x0000  |
| Data Size    | 1 bytes |
| Instructions | 1       |

```
      00 01 02 03 04 05 06 07  08 09 0A 0B 0C 0D 0E 0F
      -- -- -- -- -- -- -- --  -- -- -- -- -- -- -- --
0000: 00                                                .               
```

#### Opcodes

```
  0: 0x0000 [0x00] END_REQSTACK()
```

### Event 85

#### Metadata

| Field        | Value    |
|--------------|----------|
| Entrypoint   | 0x0001   |
| Data Size    | 54 bytes |
| Instructions | 14       |

```
      00 01 02 03 04 05 06 07  08 09 0A 0B 0C 0D 0E 0F
      -- -- -- -- -- -- -- --  -- -- -- -- -- -- -- --
0000:    1A CE 00 66 00 80 F8  FF FF 7F F8 FF FF 7F 6D   ...f..........m
0010: 6F 6A 30 1D 01 80 23 66  02 80 F8 FF FF 7F F8 FF  oj0...#f........
0020: FF 7F 67 68 6E 31 1D 03  80 23 1A 2C 01 1D 04 80  ..ghn1...#.,....
0030: 23 1D 05 80 23 21 00                              #...#!.         
```

#### Opcodes

```
  0: 0x0001 [0x1A] CALL_SUBROUTINE(address=0x00CE)
  1: 0x0004 [0x66] LOAD_EXT_SCHEDULER_MAIN: Load scheduler "moj0" with entities [EventEntity, EventEntity], work=40*
  2: 0x0013 [0x1D] PRINT_EVENT_MESSAGE(message_id=10326*)
    → "Donya tink ninja's da bestest job in da wald? Two weapons in hand on da battlefield. Two fryin' pans at home in da kitchen."
  3: 0x0016 [0x23] WAIT_FOR_DIALOG_INTERACTION
  4: 0x0017 [0x66] LOAD_EXT_SCHEDULER_MAIN: Load scheduler "ghn1" with entities [EventEntity, EventEntity], work=41*
  5: 0x0026 [0x1D] PRINT_EVENT_MESSAGE(message_id=10327*)
    → "But ninjas aren't all about cookin'. Dere was dis one ten years ago dat was stronger dan stronger dan strong."
  6: 0x0029 [0x23] WAIT_FOR_DIALOG_INTERACTION
  7: 0x002A [0x1A] CALL_SUBROUTINE(address=0x012C)
  8: 0x002D [0x1D] PRINT_EVENT_MESSAGE(message_id=10328*)
    → "At da time, people eben said dat she was stronger dan Gilgamesh! I fought wit her many a time, but I could neber match her skill."
  9: 0x0030 [0x23] WAIT_FOR_DIALOG_INTERACTION
 10: 0x0031 [0x1D] PRINT_EVENT_MESSAGE(message_id=10329*)
    → "If only she was still around... You coulda asked her all about how t'be a ninja!"
 11: 0x0034 [0x23] WAIT_FOR_DIALOG_INTERACTION
 12: 0x0035 [0x21] END_EVENT
 13: 0x0036 [0x00] END_REQSTACK()
```

### Event 31

#### Metadata

| Field        | Value     |
|--------------|-----------|
| Entrypoint   | 0x0037    |
| Data Size    | 139 bytes |
| Instructions | 33        |

```
      00 01 02 03 04 05 06 07  08 09 0A 0B 0C 0D 0E 0F
      -- -- -- -- -- -- -- --  -- -- -- -- -- -- -- --
0030:                      42  1A CE 00 6E F8 FF FF 7F         B...n....
0040: 06 80 99 F8 FF FF 7F 1D  07 80 23 99 F8 FF FF 7F  ..........#.....
0050: 66 00 80 F8 FF FF 7F F8  FF FF 7F 6D 6F 6A 30 1D  f..........moj0.
0060: 08 80 23 1D 09 80 23 66  00 80 F8 FF FF 7F F8 FF  ..#...#f........
0070: FF 7F 74 68 6B 31 1D 0A  80 23 66 00 80 F8 FF FF  ..thk1...#f.....
0080: 7F F8 FF FF 7F 74 68 6B  32 1D 0B 80 23 53 F8 FF  .....thk2...#S..
0090: FF 7F F8 FF FF 7F 74 68  6B 32 1D 0C 80 23 66 02  ......thk2...#f.
00A0: 80 F8 FF FF 7F F8 FF FF  7F 67 68 6E 31 1D 0D 80  .........ghn1...
00B0: 23 1D 0E 80 23 1A 2C 01  1D 0F 80 23 1D 10 80 23  #...#.,....#...#
00C0: 21 00                                             !.              
```

#### Opcodes

```
  0: 0x0037 [0x42] SET_CLI_EVENT_CANCEL_DATA()
  1: 0x0038 [0x1A] CALL_SUBROUTINE(address=0x00CE)
  2: 0x003B [0x6E] EventEntity uses emote 21*
  3: 0x0042 [0x99] Wait for EventEntity animation to complete
  4: 0x0047 [0x1D] PRINT_EVENT_MESSAGE(message_id=10261*)
    → "Well, shivivi me timbers! Dat $0 you're carryin'! I'be seen dat before!"
  5: 0x004A [0x23] WAIT_FOR_DIALOG_INTERACTION
  6: 0x004B [0x99] Wait for EventEntity animation to complete
  7: 0x0050 [0x66] LOAD_EXT_SCHEDULER_MAIN: Load scheduler "moj0" with entities [EventEntity, EventEntity], work=40*
  8: 0x005F [0x1D] PRINT_EVENT_MESSAGE(message_id=10262*)
    → "Me and my ninja mateys here in Norg worked day and night and night and day to come up wit' some new-fangled ninjutsu. But we made it a little too fangled..."
  9: 0x0062 [0x23] WAIT_FOR_DIALOG_INTERACTION
 10: 0x0063 [0x1D] PRINT_EVENT_MESSAGE(message_id=10263*)
    → "...and we were neber-eber able to use it. So we trew da ting into one of Norg's baults, and forgot about it. Where did you find dat anyway?"
 11: 0x0066 [0x23] WAIT_FOR_DIALOG_INTERACTION
 12: 0x0067 [0x66] LOAD_EXT_SCHEDULER_MAIN: Load scheduler "thk1" with entities [EventEntity, EventEntity], work=40*
 13: 0x0076 [0x1D] PRINT_EVENT_MESSAGE(message_id=10264*)
    → "You caught it fishin'? Dis's gotta be da work ob dem fishy-washy Sahagin."
 14: 0x0079 [0x23] WAIT_FOR_DIALOG_INTERACTION
 15: 0x007A [0x66] LOAD_EXT_SCHEDULER_MAIN: Load scheduler "thk2" with entities [EventEntity, EventEntity], work=40*
 16: 0x0089 [0x1D] PRINT_EVENT_MESSAGE(message_id=10265*)
    → "Dey probably trew it away when dey saw it was blank. Dey didn't know der's a special way to make the writin' bisable."
 17: 0x008C [0x23] WAIT_FOR_DIALOG_INTERACTION
 18: 0x008D [0x53] WAIT_SCHEDULER_TASK: Wait for scheduler "thk2" with entities [EventEntity, EventEntity]
 19: 0x009A [0x1D] PRINT_EVENT_MESSAGE(message_id=10266*)
    → "What does it say? Oh, I forgot dat years ago. But I do remember how to read it."
 20: 0x009D [0x23] WAIT_FOR_DIALOG_INTERACTION
 21: 0x009E [0x66] LOAD_EXT_SCHEDULER_MAIN: Load scheduler "ghn1" with entities [EventEntity, EventEntity], work=41*
 22: 0x00AD [0x1D] PRINT_EVENT_MESSAGE(message_id=10267*)
    → "Yeah, it was dat metod dat prebented us from usin' da scroll in da first place... But anyway, take dat $0 to da hot spring on Horlais Peak."
 23: 0x00B0 [0x23] WAIT_FOR_DIALOG_INTERACTION
 24: 0x00B1 [0x1D] PRINT_EVENT_MESSAGE(message_id=10268*)
    → "When ya put da scroll in da water, da letters will appear, and boila-la! You're done!"
 25: 0x00B4 [0x23] WAIT_FOR_DIALOG_INTERACTION
 26: 0x00B5 [0x1A] CALL_SUBROUTINE(address=0x012C)
 27: 0x00B8 [0x1D] PRINT_EVENT_MESSAGE(message_id=10269*)
    → "Why all da way to Horlais Peak? Well, if it was easy to get dere, wouldn't be much ob a super-special secret scroll now, would it?"
 28: 0x00BB [0x23] WAIT_FOR_DIALOG_INTERACTION
 29: 0x00BC [0x1D] PRINT_EVENT_MESSAGE(message_id=10270*)
    → "Da only reason we stopped makin' dem was because nobody-buddy wanted to walk all da way to dose hot springs..."
 30: 0x00BF [0x23] WAIT_FOR_DIALOG_INTERACTION
 31: 0x00C0 [0x21] END_EVENT
 32: 0x00C1 [0x00] END_REQSTACK()
```

### Event 32

#### Metadata

| Field        | Value     |
|--------------|-----------|
| Entrypoint   | 0x00C2    |
| Data Size    | 234 bytes |
| Instructions | 13        |

```
      00 01 02 03 04 05 06 07  08 09 0A 0B 0C 0D 0E 0F
      -- -- -- -- -- -- -- --  -- -- -- -- -- -- -- --
00C0:       1A CE 00 1A 2C 01  1D 11 80 23 21 00 86 00    ....,....#!...
00D0: F8 FF FF 7F 1E F0 FF FF  7F 6F 70 1B 66 12 80 F8  .........op.f...
00E0: FF FF 7F F8 FF FF 7F 74  6C 6B 30 1B 66 12 80 F8  .......tlk0.f...
00F0: FF FF 7F F8 FF FF 7F 74  6C 6B 31 1B 66 13 80 F8  .......tlk1.f...
0100: FF FF 7F F8 FF FF 7F 74  6C 6B 30 1B 66 14 80 F8  .......tlk0.f...
0110: FF FF 7F F8 FF FF 7F 74  6C 6B 30 1B 66 15 80 F8  .......tlk0.f...
0120: FF FF 7F F8 FF FF 7F 74  6C 6B 30 1B 66 00 80 F8  .......tlk0.f...
0130: FF FF 7F F8 FF FF 7F 74  6C 6B 30 1B 66 16 80 F8  .......tlk0.f...
0140: FF FF 7F F8 FF FF 7F 74  6C 6B 30 1B 66 17 80 F8  .......tlk0.f...
0150: FF FF 7F F8 FF FF 7F 74  6C 6B 30 1B 5B 18 80 F8  .......tlk0.[...
0160: FF FF 7F F8 FF FF 7F 74  6C 6B 30 1B 5B 19 80 F8  .......tlk0.[...
0170: FF FF 7F F8 FF FF 7F 74  6C 6B 30 1B 5B 1A 80 F8  .......tlk0.[...
0180: FF FF 7F F8 FF FF 7F 74  6C 6B 30 1B 5B 1B 80 F8  .......tlk0.[...
0190: FF FF 7F F8 FF FF 7F 74  6C 6B 30 1B 5B 17 80 F8  .......tlk0.[...
01A0: FF FF 7F F8 FF FF 7F 74  6C 62 30 1B              .......tlb0.    
```

#### Opcodes

```
  0: 0x00C2 [0x1A] CALL_SUBROUTINE(address=0x00CE)
  1: 0x00C5 [0x1A] CALL_SUBROUTINE(address=0x012C)
  2: 0x00C8 [0x1D] PRINT_EVENT_MESSAGE(message_id=10271*)
    → "If you wanna read da scroll, jus' take it to da hot spring on Horlais Peak and dip it in da water. If it's da wrong water, the words will neber appear."
  3: 0x00CB [0x23] WAIT_FOR_DIALOG_INTERACTION
  4: 0x00CC [0x21] END_EVENT
  5: 0x00CD [0x00] END_REQSTACK()

SUBROUTINE_00CE:
  6: 0x00CE [0x86] EventEntity->Render.Flags3 = Flags3  // No change (flag=0)
  7: 0x00D4 [0x1E] EventEntity looks at LocalPlayer and starts talking
  8: 0x00D9 [0x6F] WAIT_FRAME_DELAY: Yield until WaitTime reaches zero
  9: 0x00DA [0x70] WAIT_ENTITY_RENDER_FLAG: Wait while EventEntity->Render.Flags3 bit 2 is set (cancel turn if not)
 10: 0x00DB [0x1B] RETURN

SUBROUTINE_012C:
 11: 0x012C [0x66] LOAD_EXT_SCHEDULER_MAIN: Load scheduler "tlk0" with entities [EventEntity, EventEntity], work=40*
 12: 0x013B [0x1B] RETURN
```

#### Data or dead code:

```
# Dead code (unreachable instructions):
     0x00DC [0x66] LOAD_EXT_SCHEDULER_MAIN: Load scheduler "tlk0" with entities [EventEntity, EventEntity], work=0*
     0x00EB [0x1B] RETURN
     0x00EC [0x66] LOAD_EXT_SCHEDULER_MAIN: Load scheduler "tlk1" with entities [EventEntity, EventEntity], work=0*
     0x00FB [0x1B] RETURN
     0x00FC [0x66] LOAD_EXT_SCHEDULER_MAIN: Load scheduler "tlk0" with entities [EventEntity, EventEntity], work=10*
     0x010B [0x1B] RETURN
     0x010C [0x66] LOAD_EXT_SCHEDULER_MAIN: Load scheduler "tlk0" with entities [EventEntity, EventEntity], work=20*
     0x011B [0x1B] RETURN
     0x011C [0x66] LOAD_EXT_SCHEDULER_MAIN: Load scheduler "tlk0" with entities [EventEntity, EventEntity], work=30*
     0x012B [0x1B] RETURN
# Dead code (unreachable instructions):
     0x013C [0x66] LOAD_EXT_SCHEDULER_MAIN: Load scheduler "tlk0" with entities [EventEntity, EventEntity], work=50*
     0x014B [0x1B] RETURN
     0x014C [0x66] LOAD_EXT_SCHEDULER_MAIN: Load scheduler "tlk0" with entities [EventEntity, EventEntity], work=60*
     0x015B [0x1B] RETURN
     0x015C [0x5B] LOAD_EXT_SCHEDULER: Load scheduler "tlk0" with entities [EventEntity, EventEntity], work=5*
     0x016B [0x1B] RETURN
     0x016C [0x5B] LOAD_EXT_SCHEDULER: Load scheduler "tlk0" with entities [EventEntity, EventEntity], work=80*
     0x017B [0x1B] RETURN
     0x017C [0x5B] LOAD_EXT_SCHEDULER: Load scheduler "tlk0" with entities [EventEntity, EventEntity], work=238*
     0x018B [0x1B] RETURN
     0x018C [0x5B] LOAD_EXT_SCHEDULER: Load scheduler "tlk0" with entities [EventEntity, EventEntity], work=566*
     0x019B [0x1B] RETURN
     0x019C [0x5B] LOAD_EXT_SCHEDULER: Load scheduler "tlb0" with entities [EventEntity, EventEntity], work=60*
     0x01AB [0x1B] RETURN
```
