# 17809510 - Sohyon

## Common Data

| Field            | Value          |
|------------------|----------------|
| Zone             | Norg (ID: 252) |
| Block Size       | 124 bytes      |
| Total Events     | 7              |
| References Count | 7              |

## List of Events

| Event ID                 | Entrypoint   |   Size |   Instructions |
|--------------------------|--------------|--------|----------------|
| [65535](#event-65535)    | 0x0000       |      1 |              1 |
| [209](#event-209)        | 0x0001       |      1 |              1 |
| [210](#event-210)        | 0x0002       |      1 |              1 |
| [212](#event-212)        | 0x0003       |     10 |              4 |
| [213](#event-213)        | 0x000D       |     17 |              7 |
| [214](#event-214)        | 0x001E       |     10 |              4 |
| [65535.1](#event-655351) | 0x0028       |     10 |              2 |

## DAT References (imed_data)

|   Index | Hex Value   |   Dec Value |
|---------|-------------|-------------|
|       0 | 0x2B80      |       11136 |
|       1 | 0x2B73      |       11123 |
|       2 | 0x2B83      |       11139 |
|       3 | 0xB8AB      |       47275 |
|       4 | 0x36A6      |       13990 |
|       5 | 0xFFFFE776  |  4294961014 |
|       6 | 0x0ADD      |        2781 |

## Events

### Event 65535

#### Metadata

| Field        | Value   |
|--------------|---------|
| Entrypoint   | 0x0000  |
| Data Size    | 1 bytes |
| Instructions | 1       |

```
      00 01 02 03 04 05 06 07  08 09 0A 0B 0C 0D 0E 0F
      -- -- -- -- -- -- -- --  -- -- -- -- -- -- -- --
0000: 00                                                .               
```

#### Opcodes

```
  0: 0x0000 [0x00] END_REQSTACK()
```

### Event 209

#### Metadata

| Field        | Value   |
|--------------|---------|
| Entrypoint   | 0x0001  |
| Data Size    | 1 bytes |
| Instructions | 1       |

```
      00 01 02 03 04 05 06 07  08 09 0A 0B 0C 0D 0E 0F
      -- -- -- -- -- -- -- --  -- -- -- -- -- -- -- --
0000:    00                                              .              
```

#### Opcodes

```
  0: 0x0001 [0x00] END_REQSTACK()
```

### Event 210

#### Metadata

| Field        | Value   |
|--------------|---------|
| Entrypoint   | 0x0002  |
| Data Size    | 1 bytes |
| Instructions | 1       |

```
      00 01 02 03 04 05 06 07  08 09 0A 0B 0C 0D 0E 0F
      -- -- -- -- -- -- -- --  -- -- -- -- -- -- -- --
0000:       00                                            .             
```

#### Opcodes

```
  0: 0x0002 [0x00] END_REQSTACK()
```

### Event 212

#### Metadata

| Field        | Value    |
|--------------|----------|
| Entrypoint   | 0x0003   |
| Data Size    | 10 bytes |
| Instructions | 4        |

```
      00 01 02 03 04 05 06 07  08 09 0A 0B 0C 0D 0E 0F
      -- -- -- -- -- -- -- --  -- -- -- -- -- -- -- --
0000:          2B 66 C0 0F 01  00 80 23 21 00              +f.....#!.   
```

#### Opcodes

```
  0: 0x0003 [0x2B] Sohyon (ID: 17809510/0x010FC066) [11136*]:
    → "..."
  1: 0x000A [0x23] WAIT_FOR_DIALOG_INTERACTION
  2: 0x000B [0x21] END_EVENT
  3: 0x000C [0x00] END_REQSTACK()
```

### Event 213

#### Metadata

| Field        | Value    |
|--------------|----------|
| Entrypoint   | 0x000D   |
| Data Size    | 17 bytes |
| Instructions | 7        |

```
      00 01 02 03 04 05 06 07  08 09 0A 0B 0C 0D 0E 0F
      -- -- -- -- -- -- -- --  -- -- -- -- -- -- -- --
0000:                                         1E F0 FF               ...
0010: FF 7F 6F 70 2B 66 C0 0F  01 01 80 23 21 00        ..op+f.....#!.  
```

#### Opcodes

```
  0: 0x000D [0x1E] EventEntity looks at LocalPlayer and starts talking
  1: 0x0012 [0x6F] WAIT_FRAME_DELAY: Yield until WaitTime reaches zero
  2: 0x0013 [0x70] WAIT_ENTITY_RENDER_FLAG: Wait while EventEntity->Render.Flags3 bit 2 is set (cancel turn if not)
  3: 0x0014 [0x2B] Sohyon (ID: 17809510/0x010FC066) [11123*]:
    → "Me cup's still empty, adventurer."
  4: 0x001B [0x23] WAIT_FOR_DIALOG_INTERACTION
  5: 0x001C [0x21] END_EVENT
  6: 0x001D [0x00] END_REQSTACK()
```

### Event 214

#### Metadata

| Field        | Value    |
|--------------|----------|
| Entrypoint   | 0x001E   |
| Data Size    | 10 bytes |
| Instructions | 4        |

```
      00 01 02 03 04 05 06 07  08 09 0A 0B 0C 0D 0E 0F
      -- -- -- -- -- -- -- --  -- -- -- -- -- -- -- --
0010:                                            2B 66                +f
0020: C0 0F 01 02 80 23 21 00                           .....#!.        
```

#### Opcodes

```
  0: 0x001E [0x2B] Sohyon (ID: 17809510/0x010FC066) [11139*]:
    → "Get outta here. I got no time fer scabby adventurers."
  1: 0x0025 [0x23] WAIT_FOR_DIALOG_INTERACTION
  2: 0x0026 [0x21] END_EVENT
  3: 0x0027 [0x00] END_REQSTACK()
```

### Event 65535.1

#### Metadata

| Field        | Value    |
|--------------|----------|
| Entrypoint   | 0x0028   |
| Data Size    | 10 bytes |
| Instructions | 2        |

```
      00 01 02 03 04 05 06 07  08 09 0A 0B 0C 0D 0E 0F
      -- -- -- -- -- -- -- --  -- -- -- -- -- -- -- --
0020:                          37 03 80 04 80 05 80 06          7.......
0030: 80 00                                             ..              
```

#### Opcodes

```
  0: 0x0028 [0x37] UPDATE_EVENT_POSITION_AND_DIR: x=47.275*, z=13.990*, y=-6.282*, direction=244.4°*
  1: 0x0031 [0x00] END_REQSTACK()
```
