# 17809433 - Ludiault

## Common Data

| Field            | Value          |
|------------------|----------------|
| Zone             | Norg (ID: 252) |
| Block Size       | 312 bytes      |
| Total Events     | 2              |
| References Count | 13             |

## List of Events

| Event ID              | Entrypoint   |   Size |   Instructions |
|-----------------------|--------------|--------|----------------|
| [65535](#event-65535) | 0x0000       |      1 |              1 |
| [82](#event-82)       | 0x0001       |    232 |             37 |

## DAT References (imed_data)

|   Index | Hex Value   |   Dec Value |
|---------|-------------|-------------|
|       0 | 0x285B      |       10331 |
|       1 | 0x285C      |       10332 |
|       2 | 0x0000      |           0 |
|       3 | 0x000A      |          10 |
|       4 | 0x0014      |          20 |
|       5 | 0x001E      |          30 |
|       6 | 0x0028      |          40 |
|       7 | 0x0032      |          50 |
|       8 | 0x003C      |          60 |
|       9 | 0x0005      |           5 |
|      10 | 0x0050      |          80 |
|      11 | 0x00EE      |         238 |
|      12 | 0x0236      |         566 |

## String References

- **10331**: When Ifrit, Lord of the Inferno, Woke from his age-old slumber, Magma poured from the jagged cracks, As the ocean floor ripped asunder.
- **10332**: Maybe Ifrit's Cauldron on Mount Yuhtunga gets its name from this old island poem. I used to think that Ifrit was just a constellation, but maybe he really does exist...

## Events

### Event 65535

#### Metadata

| Field        | Value   |
|--------------|---------|
| Entrypoint   | 0x0000  |
| Data Size    | 1 bytes |
| Instructions | 1       |

```
      00 01 02 03 04 05 06 07  08 09 0A 0B 0C 0D 0E 0F
      -- -- -- -- -- -- -- --  -- -- -- -- -- -- -- --
0000: 00                                                .               
```

#### Opcodes

```
  0: 0x0000 [0x00] END_REQSTACK()
```

### Event 82

#### Metadata

| Field        | Value     |
|--------------|-----------|
| Entrypoint   | 0x0001    |
| Data Size    | 232 bytes |
| Instructions | 6         |

```
      00 01 02 03 04 05 06 07  08 09 0A 0B 0C 0D 0E 0F
      -- -- -- -- -- -- -- --  -- -- -- -- -- -- -- --
0000:    1D 00 80 23 1D 01 80  23 21 00 86 00 F8 FF FF   ...#...#!......
0010: 7F 1E F0 FF FF 7F 6F 70  1B 66 02 80 F8 FF FF 7F  ......op.f......
0020: F8 FF FF 7F 74 6C 6B 30  1B 66 02 80 F8 FF FF 7F  ....tlk0.f......
0030: F8 FF FF 7F 74 6C 6B 31  1B 66 03 80 F8 FF FF 7F  ....tlk1.f......
0040: F8 FF FF 7F 74 6C 6B 30  1B 66 04 80 F8 FF FF 7F  ....tlk0.f......
0050: F8 FF FF 7F 74 6C 6B 30  1B 66 05 80 F8 FF FF 7F  ....tlk0.f......
0060: F8 FF FF 7F 74 6C 6B 30  1B 66 06 80 F8 FF FF 7F  ....tlk0.f......
0070: F8 FF FF 7F 74 6C 6B 30  1B 66 07 80 F8 FF FF 7F  ....tlk0.f......
0080: F8 FF FF 7F 74 6C 6B 30  1B 66 08 80 F8 FF FF 7F  ....tlk0.f......
0090: F8 FF FF 7F 74 6C 6B 30  1B 5B 09 80 F8 FF FF 7F  ....tlk0.[......
00A0: F8 FF FF 7F 74 6C 6B 30  1B 5B 0A 80 F8 FF FF 7F  ....tlk0.[......
00B0: F8 FF FF 7F 74 6C 6B 30  1B 5B 0B 80 F8 FF FF 7F  ....tlk0.[......
00C0: F8 FF FF 7F 74 6C 6B 30  1B 5B 0C 80 F8 FF FF 7F  ....tlk0.[......
00D0: F8 FF FF 7F 74 6C 6B 30  1B 5B 08 80 F8 FF FF 7F  ....tlk0.[......
00E0: F8 FF FF 7F 74 6C 62 30  1B                       ....tlb0.       
```

#### Opcodes

```
  0: 0x0001 [0x1D] PRINT_EVENT_MESSAGE(message_id=10331*)
    → "When Ifrit, Lord of the Inferno, Woke from his age-old slumber, Magma poured from the jagged cracks, As the ocean floor ripped asunder."
  1: 0x0004 [0x23] WAIT_FOR_DIALOG_INTERACTION
  2: 0x0005 [0x1D] PRINT_EVENT_MESSAGE(message_id=10332*)
    → "Maybe Ifrit's Cauldron on Mount Yuhtunga gets its name from this old island poem. I used to think that Ifrit was just a constellation, but maybe he really does exist..."
  3: 0x0008 [0x23] WAIT_FOR_DIALOG_INTERACTION
  4: 0x0009 [0x21] END_EVENT
  5: 0x000A [0x00] END_REQSTACK()
```

#### Data or dead code:

```
# Dead code (unreachable instructions):
     0x000B [0x86] EventEntity->Render.Flags3 = Flags3  // No change (flag=0)
     0x0011 [0x1E] EventEntity looks at LocalPlayer and starts talking
     0x0016 [0x6F] WAIT_FRAME_DELAY: Yield until WaitTime reaches zero
     0x0017 [0x70] WAIT_ENTITY_RENDER_FLAG: Wait while EventEntity->Render.Flags3 bit 2 is set (cancel turn if not)
     0x0018 [0x1B] RETURN
     0x0019 [0x66] LOAD_EXT_SCHEDULER_MAIN: Load scheduler "tlk0" with entities [EventEntity, EventEntity], work=0*
     0x0028 [0x1B] RETURN
     0x0029 [0x66] LOAD_EXT_SCHEDULER_MAIN: Load scheduler "tlk1" with entities [EventEntity, EventEntity], work=0*
     0x0038 [0x1B] RETURN
     0x0039 [0x66] LOAD_EXT_SCHEDULER_MAIN: Load scheduler "tlk0" with entities [EventEntity, EventEntity], work=10*
     0x0048 [0x1B] RETURN
     0x0049 [0x66] LOAD_EXT_SCHEDULER_MAIN: Load scheduler "tlk0" with entities [EventEntity, EventEntity], work=20*
     0x0058 [0x1B] RETURN
     0x0059 [0x66] LOAD_EXT_SCHEDULER_MAIN: Load scheduler "tlk0" with entities [EventEntity, EventEntity], work=30*
     0x0068 [0x1B] RETURN
     0x0069 [0x66] LOAD_EXT_SCHEDULER_MAIN: Load scheduler "tlk0" with entities [EventEntity, EventEntity], work=40*
     0x0078 [0x1B] RETURN
     0x0079 [0x66] LOAD_EXT_SCHEDULER_MAIN: Load scheduler "tlk0" with entities [EventEntity, EventEntity], work=50*
     0x0088 [0x1B] RETURN
     0x0089 [0x66] LOAD_EXT_SCHEDULER_MAIN: Load scheduler "tlk0" with entities [EventEntity, EventEntity], work=60*
     0x0098 [0x1B] RETURN
     0x0099 [0x5B] LOAD_EXT_SCHEDULER: Load scheduler "tlk0" with entities [EventEntity, EventEntity], work=5*
     0x00A8 [0x1B] RETURN
     0x00A9 [0x5B] LOAD_EXT_SCHEDULER: Load scheduler "tlk0" with entities [EventEntity, EventEntity], work=80*
     0x00B8 [0x1B] RETURN
     0x00B9 [0x5B] LOAD_EXT_SCHEDULER: Load scheduler "tlk0" with entities [EventEntity, EventEntity], work=238*
     0x00C8 [0x1B] RETURN
     0x00C9 [0x5B] LOAD_EXT_SCHEDULER: Load scheduler "tlk0" with entities [EventEntity, EventEntity], work=566*
     0x00D8 [0x1B] RETURN
     0x00D9 [0x5B] LOAD_EXT_SCHEDULER: Load scheduler "tlb0" with entities [EventEntity, EventEntity], work=60*
     0x00E8 [0x1B] RETURN
```
