# 17809424 - Jaucribaix

## Common Data

| Field            | Value          |
|------------------|----------------|
| Zone             | Norg (ID: 252) |
| Block Size       | 7536 bytes     |
| Total Events     | 39             |
| References Count | 202            |

## List of Events

| Event ID              | Entrypoint   |   Size |   Instructions |
|-----------------------|--------------|--------|----------------|
| [65535](#event-65535) | 0x0000       |      1 |              1 |
| [175](#event-175)     | 0x0001       |      1 |              1 |
| [71](#event-71)       | 0x0002       |      9 |              5 |
| [25](#event-25)       | 0x000B       |    181 |             37 |
| [26](#event-26)       | 0x00C0       |     20 |             10 |
| [27](#event-27)       | 0x00D4       |     64 |             14 |
| [28](#event-28)       | 0x0114       |     46 |             10 |
| [29](#event-29)       | 0x0142       |    558 |             72 |
| [30](#event-30)       | 0x0370       |     46 |             10 |
| [139](#event-139)     | 0x039E       |    156 |             42 |
| [140](#event-140)     | 0x043A       |     86 |             20 |
| [141](#event-141)     | 0x0490       |    186 |             28 |
| [142](#event-142)     | 0x054A       |     56 |             10 |
| [143](#event-143)     | 0x0582       |     73 |             15 |
| [146](#event-146)     | 0x05CB       |    809 |            124 |
| [147](#event-147)     | 0x08F4       |     17 |              7 |
| [152](#event-152)     | 0x0905       |     15 |              7 |
| [153](#event-153)     | 0x0914       |      9 |              5 |
| [154](#event-154)     | 0x091D       |     50 |             12 |
| [155](#event-155)     | 0x094F       |     21 |              9 |
| [156](#event-156)     | 0x0964       |    156 |             24 |
| [157](#event-157)     | 0x0A00       |     56 |             10 |
| [158](#event-158)     | 0x0A38       |    616 |             87 |
| [159](#event-159)     | 0x0CA0       |     12 |              6 |
| [166](#event-166)     | 0x0CAC       |    263 |             41 |
| [167](#event-167)     | 0x0DB3       |     57 |              9 |
| [168](#event-168)     | 0x0DEC       |     41 |              9 |
| [160](#event-160)     | 0x0E15       |    329 |             55 |
| [161](#event-161)     | 0x0F5E       |     21 |              9 |
| [162](#event-162)     | 0x0F73       |     18 |              8 |
| [163](#event-163)     | 0x0F85       |     12 |              6 |
| [164](#event-164)     | 0x0F91       |    266 |             40 |
| [165](#event-165)     | 0x109B       |     17 |              7 |
| [178](#event-178)     | 0x10AC       |    212 |             37 |
| [179](#event-179)     | 0x1180       |    476 |             76 |
| [180](#event-180)     | 0x135C       |     37 |              7 |
| [181](#event-181)     | 0x1381       |     60 |             10 |
| [182](#event-182)     | 0x13BD       |     14 |              6 |
| [183](#event-183)     | 0x13CB       |   1488 |            192 |

## DAT References (imed_data)

|   Index | Hex Value   |   Dec Value |
|---------|-------------|-------------|
|       0 | 0x27CA      |       10186 |
|       1 | 0x0001      |           1 |
|       2 | 0x27D0      |       10192 |
|       3 | 0x0014      |          20 |
|       4 | 0x27CB      |       10187 |
|       5 | 0x27CC      |       10188 |
|       6 | 0x27CD      |       10189 |
|       7 | 0x27CE      |       10190 |
|       8 | 0x0000      |           0 |
|       9 | 0x27CF      |       10191 |
|      10 | 0x27D1      |       10193 |
|      11 | 0x27D2      |       10194 |
|      12 | 0x27D3      |       10195 |
|      13 | 0x27D4      |       10196 |
|      14 | 0x27D5      |       10197 |
|      15 | 0x27D6      |       10198 |
|      16 | 0x27D7      |       10199 |
|      17 | 0x27D8      |       10200 |
|      18 | 0x27D9      |       10201 |
|      19 | 0x27DA      |       10202 |
|      20 | 0x002D      |          45 |
|      21 | 0x27DB      |       10203 |
|      22 | 0x27DC      |       10204 |
|      23 | 0x0013      |          19 |
|      24 | 0x00E9      |         233 |
|      25 | 0x00C8      |         200 |
|      26 | 0x27DD      |       10205 |
|      27 | 0x27DE      |       10206 |
|      28 | 0x27DF      |       10207 |
|      29 | 0x0080      |         128 |
|      30 | 0x001E      |          30 |
|      31 | 0x27E0      |       10208 |
|      32 | 0x27E1      |       10209 |
|      33 | 0x27E2      |       10210 |
|      34 | 0x0236      |         566 |
|      35 | 0x27E3      |       10211 |
|      36 | 0x27E4      |       10212 |
|      37 | 0x0237      |         567 |
|      38 | 0x27E5      |       10213 |
|      39 | 0x27E6      |       10214 |
|      40 | 0x27E7      |       10215 |
|      41 | 0x27E8      |       10216 |
|      42 | 0x00C9      |         201 |
|      43 | 0x27EB      |       10219 |
|      44 | 0x27EC      |       10220 |
|      45 | 0x4591      |       17809 |
|      46 | 0x01C5      |         453 |
|      47 | 0x0490      |        1168 |
|      48 | 0x29EE      |       10734 |
|      49 | 0x298C      |       10636 |
|      50 | 0x298D      |       10637 |
|      51 | 0x298E      |       10638 |
|      52 | 0x298F      |       10639 |
|      53 | 0x2990      |       10640 |
|      54 | 0x2991      |       10641 |
|      55 | 0x2992      |       10642 |
|      56 | 0x2993      |       10643 |
|      57 | 0x2994      |       10644 |
|      58 | 0x2995      |       10645 |
|      59 | 0x4594      |       17812 |
|      60 | 0x2996      |       10646 |
|      61 | 0x2997      |       10647 |
|      62 | 0x2998      |       10648 |
|      63 | 0x2999      |       10649 |
|      64 | 0x299A      |       10650 |
|      65 | 0x299B      |       10651 |
|      66 | 0x299C      |       10652 |
|      67 | 0x01CE      |         462 |
|      68 | 0x29A5      |       10661 |
|      69 | 0x29A6      |       10662 |
|      70 | 0x29A7      |       10663 |
|      71 | 0x29A8      |       10664 |
|      72 | 0x00D8      |         216 |
|      73 | 0x29A9      |       10665 |
|      74 | 0x29AA      |       10666 |
|      75 | 0x29AB      |       10667 |
|      76 | 0x007A      |         122 |
|      77 | 0x0060      |          96 |
|      78 | 0x0078      |         120 |
|      79 | 0x29AC      |       10668 |
|      80 | 0x29AD      |       10669 |
|      81 | 0x29AE      |       10670 |
|      82 | 0x29AF      |       10671 |
|      83 | 0x29B0      |       10672 |
|      84 | 0x29B1      |       10673 |
|      85 | 0x29B2      |       10674 |
|      86 | 0x29B3      |       10675 |
|      87 | 0x000F      |          15 |
|      88 | 0x29B4      |       10676 |
|      89 | 0x29B5      |       10677 |
|      90 | 0x29B6      |       10678 |
|      91 | 0x29B7      |       10679 |
|      92 | 0x29B8      |       10680 |
|      93 | 0x29B9      |       10681 |
|      94 | 0x29BA      |       10682 |
|      95 | 0x003C      |          60 |
|      96 | 0x00D1      |         209 |
|      97 | 0x007F      |         127 |
|      98 | 0x29BB      |       10683 |
|      99 | 0x29BC      |       10684 |
|     100 | 0x29BD      |       10685 |
|     101 | 0x01CF      |         463 |
|     102 | 0x29BE      |       10686 |
|     103 | 0x29BF      |       10687 |
|     104 | 0x29C0      |       10688 |
|     105 | 0x29C1      |       10689 |
|     106 | 0x29C2      |       10690 |
|     107 | 0x29C3      |       10691 |
|     108 | 0x29C4      |       10692 |
|     109 | 0x362C      |       13868 |
|     110 | 0x29EF      |       10735 |
|     111 | 0x29CE      |       10702 |
|     112 | 0x29CF      |       10703 |
|     113 | 0x29D0      |       10704 |
|     114 | 0x29D1      |       10705 |
|     115 | 0x29D2      |       10706 |
|     116 | 0x29D3      |       10707 |
|     117 | 0x29D4      |       10708 |
|     118 | 0x29D5      |       10709 |
|     119 | 0x29D6      |       10710 |
|     120 | 0x29D7      |       10711 |
|     121 | 0x29D8      |       10712 |
|     122 | 0x29D9      |       10713 |
|     123 | 0x29DA      |       10714 |
|     124 | 0x00A1      |         161 |
|     125 | 0x0048      |          72 |
|     126 | 0x29DB      |       10715 |
|     127 | 0x29DC      |       10716 |
|     128 | 0x048E      |        1166 |
|     129 | 0x29DD      |       10717 |
|     130 | 0x29DE      |       10718 |
|     131 | 0x009F      |         159 |
|     132 | 0x0050      |          80 |
|     133 | 0x01C6      |         454 |
|     134 | 0x0337      |         823 |
|     135 | 0x29DF      |       10719 |
|     136 | 0x29E0      |       10720 |
|     137 | 0x29E1      |       10721 |
|     138 | 0x29E2      |       10722 |
|     139 | 0x29E3      |       10723 |
|     140 | 0x29E4      |       10724 |
|     141 | 0x29E5      |       10725 |
|     142 | 0x29E6      |       10726 |
|     143 | 0x29E7      |       10727 |
|     144 | 0x29E8      |       10728 |
|     145 | 0x29E9      |       10729 |
|     146 | 0x29EA      |       10730 |
|     147 | 0x29EB      |       10731 |
|     148 | 0x29EC      |       10732 |
|     149 | 0x29ED      |       10733 |
|     150 | 0x2A34      |       10804 |
|     151 | 0x2A62      |       10850 |
|     152 | 0x2A35      |       10805 |
|     153 | 0x4597      |       17815 |
|     154 | 0x2A36      |       10806 |
|     155 | 0x00D7      |         215 |
|     156 | 0x2A37      |       10807 |
|     157 | 0x2A38      |       10808 |
|     158 | 0x2A39      |       10809 |
|     159 | 0x0157      |         343 |
|     160 | 0x2A3A      |       10810 |
|     161 | 0x2A3B      |       10811 |
|     162 | 0x2A63      |       10851 |
|     163 | 0x2A3C      |       10812 |
|     164 | 0x2A3D      |       10813 |
|     165 | 0x2A3E      |       10814 |
|     166 | 0x0002      |           2 |
|     167 | 0x2A3F      |       10815 |
|     168 | 0x2A64      |       10852 |
|     169 | 0x2A43      |       10819 |
|     170 | 0x2A40      |       10816 |
|     171 | 0x2A41      |       10817 |
|     172 | 0x2A42      |       10818 |
|     173 | 0x2A44      |       10820 |
|     174 | 0x0158      |         344 |
|     175 | 0x2A45      |       10821 |
|     176 | 0x2A46      |       10822 |
|     177 | 0x0159      |         345 |
|     178 | 0x2A47      |       10823 |
|     179 | 0x187D5     |      100309 |
|     180 | 0xFFFFD10E  |  4294955278 |
|     181 | 0xFFFFE452  |  4294960210 |
|     182 | 0x0FDD      |        4061 |
|     183 | 0x000D      |          13 |
|     184 | 0x19847     |      104519 |
|     185 | 0xFFFFD14C  |  4294955340 |
|     186 | 0x1D4D6     |      120022 |
|     187 | 0xFFFFD76E  |  4294956910 |
|     188 | 0xFFFFE0B7  |  4294959287 |
|     189 | 0x03DB      |         987 |
|     190 | 0x004B      |          75 |
|     191 | 0x01CD      |         461 |
|     192 | 0x01D0      |         464 |
|     193 | 0x29F1      |       10737 |
|     194 | 0x29F2      |       10738 |
|     195 | 0x29F3      |       10739 |
|     196 | 0x29F4      |       10740 |
|     197 | 0x000A      |          10 |
|     198 | 0x0028      |          40 |
|     199 | 0x0032      |          50 |
|     200 | 0x0005      |           5 |
|     201 | 0x00EE      |         238 |

## String References

- **10186**: My name is Jaucribaix, and I am the blacksmith here in Norg. I don't waste my time with that crystal synthesis rubbish. I forge all my katana in the traditional manner.
- **10187**: Our leader, Gilgamesh, has asked me to forge him a katana, but I am in somewhat of a bind.
- **10188**: A katana is a work of art. I refuse to replace the traditional methods of smithing with modern synthesis. However, my supply of materials is currently running low.
- **10189**: If these items were easy to come by, I would go myself. Unfortunately, this is not the case, and I require your assistance.
- **10190**: Listen to Jaucribaix's request? [Yes./No.]
- **10191**: I see. I apologize for taking up your valuable time.
- **10192**: Ah, have you reconsidered my offer?
- **10193**: I am grateful for your assistance. Would you be so kind as to fetch me $0 and $1?
- **10194**: The $0 is for the flame that fuels my furnace, and the $1 is the perfect material for melting the iron. Both are needed to forge a true katana blade.
- **10195**: To learn of where you may come across these items, ask my pupils.
- **10196**: Tell them I sent you, and they will assist you with your preparations for the journey. Also, if you come across any trouble, you may ask them for further aid. However, I doubt you will require it.
- **10197**: To learn of where you may come across the items I wish you to bring me, ask my pupils.
- **10198**: Tell them I sent you, and they will assist you with your preparations for the journey. Also, if you come across any trouble, you may ask them for further aid. However, I doubt you will require it.
- **10199**: When you have gathered the two items, bring them directly to me and I will begin my work.
- **10200**: Wonderful. These are the materials that I require. I apologize, but I must hurry or Gilgamesh will have my head. I will reward you for your services when I have finished the katana.
- **10201**: How long will it take, you ask? A good blade takes at least three full days to complete. Come to me then. You need not worry. I will be right here.
- **10202**: Again, I apologize for not being able to give you your reward sooner.
- **10203**: My work is not yet complete. I still require $0 [more hour/more hours]. It is not wise to waste your time trying to outrun the clock in this game we call life.
- **10204**: Time is like a flowing river--it cannot be sped up or slowed down. We must float along at the pace it has chosen.
- **10219**: Crystal technology has helped Vana'diel prosper, but at the cost of traditional methods, now lost forever.
- **10220**: Just as the old is replaced by the new, the world is constantly changing. One day, one may no longer be able to live by a single blade alone.
- **10636**: Ah, <Player>. Many moons have passed since I made you your first katana. I can see you have grown much in that time.
- **10637**: This may seem sudden, but I wish to ask of your assistance.
- **10638**: Spoken like a true samurai. Now let me fill you in on the details. In the coming weeks, an extremely important ritual will be held. To complete this ritual, a "sacred katana" is needed. I require your assistance in gathering the materials to forge this new blade.
- **10639**: The first is $0. This is to become the base of the sacred katana. I assume the $0 you used in your training still rests somewhere in your Mog Safe.
- **10640**: The second item I require is $6. You can only find these scales on the beast that lives deep within a crystal pond in the Sanctuary of Zi'Tah.
- **10641**: However, this fish cannot be caught using traditional methods. You must lure it out of hiding using $2, made by the Goblins of that forest.
- **10642**: Take care when battling this violent beast, as it is no ordinary fish. After you defeat it, recover $6 and bring them back to me.
- **10643**: A long journey awaits you. I pray for your safe return.
- **10644**: Listen carefully. To forge a new sacred katana, I require two items, the first being the $0 you used in your training.
- **10645**: Return here when you have obtained the materials.
- **10646**: I see you have successfully obtained the materials necessary for the forging of the sacred katana. Thanks to your hard work, the blade should be finished by the start of the ritual.
- **10647**: Ah yes, your reward. Let me give you this $2 in exchange for your $0. It is one of my finest works. May it guide you on your journey.
- **10648**: As I told you before, the materials you brought me will be used to forge a sacred katana to be used in an important ritual being held in a matter of days.
- **10649**: However, there is still much preparation to be done. Your assistance may be required again.
- **10650**: What is wrong? You do not look too well...
- **10651**: I think I know what may be troubling you. You remember my pupil Ranemaud, do you not? Talk with him, and he may be able to help you with your predicament.
- **10652**: This is all I will tell you. After you have obtained $6, bring them and your $0 to me. I will be waiting.
- **10661**: Ah, you're back! And just in time, I might say. The date of the ritual is approaching fast.
- **10662**: For this next assignment, Gilgamesh specifically requested the assistance of the previous owner of the $0.
- **10663**: That is unfortunate, but there still is time. Please reconsider your decision.
- **10664**: Excellent. Now let me show you into Gilgamesh's quarters.
- **10677**: Yes, sir.
- **10678**: For the Yomi Okuri to be properly carried out, a sacred katana must be made. Your $0 has already been used to forge the blade of the katana. However, we are still one step away from completion.
- **10679**: Somewhere on the mainlands is a place called the Labyrinth of Onzozo. In those caves lurks a mammoth bird. To complete the sacred katana, I require $6 from that beast.
- **10680**: However, this bird rarely ever sets forth from its nest. It must be lured out with a special kind of bait.
- **10683**: Do not forget to obtain some of Washu's tasty wurst before you set off for the Labyrinth of Onzozo. You will need it to lure the giant bird out of its lair.
- **10684**: Yes, this $3 is exactly what I need to complete the sacred katana. Now all I require is time...
- **10685**: Do not rush me! This job requires extreme concentration. Think of the consequences if I were to hurry through my work!
- **10686**: 3... That is the name I bestow upon this sacred katana. Now, all that remains is for you to take the blade to Valkurm and complete the ritual.
- **10687**: It is during this time beyond dusk that you must thrust $3 into the secluded beach that lies on the other side of the far western caves in the Valkurm Dunes. Only then will the spirits be set free.
- **10688**: From the hour in which the sands are ruled by darkness until they once again are graced by light...
- **10689**: Welcome back, <Player>. The new form that blade has taken is the proof that you were successful in your mission. I applaud you on your bravery.
- **10690**: Gilgamesh has asked me to present you with this as a token of our appreciation. Wear it with pride and let it guide you on your path in life.
- **10691**: Norg has many ties with the lost nation of Tavnazia, and many people here still think of it as their homeland. The battle fought twenty years ago took the lives of many of our brothers, but the sacrifices that they made have not been in vain.
- **10692**: That day, something in Gilgamesh changed. He transformed from a simple soldier to a great leader who would bring us together and create the Norg of today.
- **10702**: <Player>! Once again, trouble is brewing in Norg, and we require your services.
- **10703**: I see. So you are busy... However, there is still time. I pray that you will return to us quickly.
- **10704**: Your gratitude is appreciated by all of us here in Norg. Now let us proceed to Gilgamesh's chambers.
- **10714**: Currently, Gilgamesh has men combing Vana'diel for clues on the whereabouts of the thieves. Search them out and learn what new information they have gathered.
- **10715**: The situation has grown graver than I had imagined. It is only a matter of time before the seal on the helmet breaks, if it has not already.
- **10716**: Take this. It can be used to extinguish the evil spirit's power for a short period of time.
- **10717**: Throw that $0 into the magic portal. After that, you should then be able to enter. But beware of what lurks on the other side!
- **10718**: You fool! How could you just dispose of such an important item? Without it, how are you supposed to break the cursed seal on the portal!?
- **10719**: By the looks of this $3, I can guess that seal was already broken when you arrived at the shrine. It is amazing that the seal held for so many decades.
- **10720**: You have done well, <Player>. Without your strength and perseverance, we would not have been able to silence that evil spirit. We are all in your debt.
- **10721**: However, before I give you your reward, there is one more small task that I wish of you. It would be an abomination to leave the helmet in this damaged state. We must do something to repair it.
- **10722**: Hmmm... We have most of the material required to repair it here in Norg, but I fear we may not have enough $1.
- **10723**: Bring me one $1. I am sure you know of a craftsman who can provide you with this material. I will proceed in repairing the helmet when you have brought it to me.
- **10724**: The helmet is in terrible condition. However, I think that with $1, I may be able to repair it.
- **10725**: Yes, this is what I require to repair the damaged helmet. I will get to work immediately. However, this may take a great deal of time. Its condition is far worse than I had imagined.
- **10726**: Why must you rush me in my work!? As I told you, the helmet was in terrible condition when you brought it to me. My work must be precise if I am to return it to its former glory!
- **10727**: Ah, <Player>. I have just finished the repairs to the $0. I had to replace a large part of the helmet, but I feel I have helped it retain its former luster.
- **10728**: Yes, your reward. I have not forgotten. Let us discuss these matters in Gilgamesh's quarters.
- **10733**: I am still taken back by how much you've matured much since I forged your $0 many moons ago. I can only imagine what great things lie before such a skilled warrior.
- **10734**: So, you've decided to help!
- **10735**: So, you've finally decided to help.
- **10737**: Samurai Artifact 1 flowchart 1: Get $6 from Washu.": Get $6 from Onzozo.
- **10738**: 3: Give those two things to Jaucribaix. 4: Do some "Sending" in the dunes (z103). 5: Bring back $6 and you're done!
- **10739**: Samurai Artifact 2 flowchart 1: Get $0.": Fight the boss in zone 144 and get $6.
- **10740**: 3: Get $2 to repair the $3. 4: Hand over $2, wait one day (Earth time) and you're done!
- **10804**: <Player>, I can sense your skills have improved much since you first wielded the mumeito I forged for you many moons ago. However, you still have many malms to travel on the road to mastery of the great katana. Do you feel you have what it takes to complete your journey?
- **10805**: I understand your reluctance. One need not be hasty in such important decisions. I know that you will return here when you sense that you are ready.
- **10806**: I detect no hesitation in your mind and spirit. That is good.
- **10807**: Here, take this $0 and wield it as if it were part of your own body. When you have proven your strength and ability, the blade will lose its power. Then you will know that it has accepted you.
- **10808**: When you feel that this time has come, return here with the katana.
- **10809**: This test will try you in many ways, physically and mentally. However, I am certain that you will be able to clear the mountain that looms before you.
- **10810**: When you have proven your strength and ability, the $0 will lose its power. Then you will know that it has accepted you.
- **10811**: What brings you here today?
- **10812**: I still sense much potential inside you. This trial is designed to bring forth that potential so you may further refine it and utilize it to its fullest.
- **10813**: Wait. You need say no more. I realize that I failed to emphasize the rarity of that blade, but I did not imagine that you would lose such an important item.
- **10814**: However, there is no need to fear. I have another $0 that I can lend you, though you must start the trial once again from the beginning. And this time, be more careful. I will not tolerate any more mistakes.
- **10815**: What is this I hear? You are not truly thinking of abandoning your journey, are you?
- **10816**: I see that you have made up your mind... I was certain that you had the potential to face the hardships I presented you, but I guess even an experienced eye such as my own can sometimes be clouded.
- **10817**: I am sure that you have your reasons for this decision and I will not stop you from what you have decided in your heart. You may now return the $3 that I entrusted to you.
- **10818**: I will leave you with the disposal of the $0. It has already lost its power and is no longer of any use to me.
- **10819**: You accepted this quest with the intention of completing it, did you not? If you have the time to be playing tricks on a feeble, old man, you should be out on the battlefield improving your techniques!
- **10820**: I can still feel energy running through this blade. This can only mean one thing--it still has not accepted your ability. The road to mastery is long. One cannot expect to reach one's goal in such a short period of time.
- **10821**: Wonderful! You are now ready for the final portion of your journey. Travel to the place inscribed upon this $3--the Kuftal Tunnel. There you will meet your final test.
- **10822**: Travel to the Kuftal Tunnel, as is instructed upon the $3 I gave you. There you will realize what you are to do.
- **10823**: The $3! So, you have finally completed this leg of your journey... You are now ready to begin anew with your new techniques.
- **10850**: Accept the challenge? [Of course!/Not just yet.]
- **10851**: Why are you here? [No particular reason./I've lost the $0./I want to quit this quest.]
- **10852**: Do you really want to quit? [Yes./No.]

## Events

### Event 65535

#### Metadata

| Field        | Value   |
|--------------|---------|
| Entrypoint   | 0x0000  |
| Data Size    | 1 bytes |
| Instructions | 1       |

```
      00 01 02 03 04 05 06 07  08 09 0A 0B 0C 0D 0E 0F
      -- -- -- -- -- -- -- --  -- -- -- -- -- -- -- --
0000: 00                                                .               
```

#### Opcodes

```
  0: 0x0000 [0x00] END_REQSTACK()
```

### Event 175

#### Metadata

| Field        | Value   |
|--------------|---------|
| Entrypoint   | 0x0001  |
| Data Size    | 1 bytes |
| Instructions | 1       |

```
      00 01 02 03 04 05 06 07  08 09 0A 0B 0C 0D 0E 0F
      -- -- -- -- -- -- -- --  -- -- -- -- -- -- -- --
0000:    00                                              .              
```

#### Opcodes

```
  0: 0x0001 [0x00] END_REQSTACK()
```

### Event 71

#### Metadata

| Field        | Value   |
|--------------|---------|
| Entrypoint   | 0x0002  |
| Data Size    | 9 bytes |
| Instructions | 5       |

```
      00 01 02 03 04 05 06 07  08 09 0A 0B 0C 0D 0E 0F
      -- -- -- -- -- -- -- --  -- -- -- -- -- -- -- --
0000:       1A BD 18 1D 00 80  23 21 00                   ......#!.     
```

#### Opcodes

```
  0: 0x0002 [0x1A] CALL_SUBROUTINE(address=0x18BD)
  1: 0x0005 [0x1D] PRINT_EVENT_MESSAGE(message_id=10186*)
    → "My name is Jaucribaix, and I am the blacksmith here in Norg. I don't waste my time with that crystal synthesis rubbish. I forge all my katana in the traditional manner."
  2: 0x0008 [0x23] WAIT_FOR_DIALOG_INTERACTION
  3: 0x0009 [0x21] END_EVENT
  4: 0x000A [0x00] END_REQSTACK()
```

### Event 25

#### Metadata

| Field        | Value     |
|--------------|-----------|
| Entrypoint   | 0x000B    |
| Data Size    | 181 bytes |
| Instructions | 36        |

```
      00 01 02 03 04 05 06 07  08 09 0A 0B 0C 0D 0E 0F
      -- -- -- -- -- -- -- --  -- -- -- -- -- -- -- --
0000:                                   1A BD 18 02 09             .....
0010: 10 01 80 00 1D 00 1D 02  80 23 01 54 00 66 03 80  .........#.T.f..
0020: F8 FF FF 7F F8 FF FF 7F  74 68 6B 31 1D 04 80 23  ........thk1...#
0030: 1D 05 80 23 66 03 80 F8  FF FF 7F F8 FF FF 7F 74  ...#f..........t
0040: 68 6B 32 1D 06 80 23 53  F8 FF FF 7F F8 FF FF 7F  hk2...#S........
0050: 74 68 6B 32 24 07 80 08  80 08 80 25 02 00 10 01  thk2$......%....
0060: 80 00 6E 00 1D 09 80 23  01 BE 00 01 6E 00 42 03  ..n....#....n.B.
0070: 01 10 01 80 1D 0A 80 23  66 03 80 F8 FF FF 7F F8  .......#f.......
0080: FF FF 7F 74 68 6B 31 1D  0B 80 23 66 03 80 F8 FF  ...thk1...#f....
0090: FF 7F F8 FF FF 7F 74 68  6B 32 53 F8 FF FF 7F F8  ......thk2S.....
00A0: FF FF 7F 74 68 6B 32 66  03 80 F8 FF FF 7F F8 FF  ...thk2f........
00B0: FF 7F 74 6C 6B 30 1D 0C  80 23 1D 0D 80 23 21 00  ..tlk0...#...#!.
```

#### Opcodes

```
  0: 0x000B [0x1A] CALL_SUBROUTINE(address=0x18BD)
  1: 0x000E [0x02] IF !(Work_Zone[9] == 1*) GOTO 0x001D
  2: 0x0016 [0x1D] PRINT_EVENT_MESSAGE(message_id=10192*)
    → "Ah, have you reconsidered my offer?"
  3: 0x0019 [0x23] WAIT_FOR_DIALOG_INTERACTION
  4: 0x001A [0x01] GOTO 0x0054
  5: 0x001D [0x66] LOAD_EXT_SCHEDULER_MAIN: Load scheduler "thk1" with entities [EventEntity, EventEntity], work=20*
  6: 0x002C [0x1D] PRINT_EVENT_MESSAGE(message_id=10187*)
    → "Our leader, Gilgamesh, has asked me to forge him a katana, but I am in somewhat of a bind."
  7: 0x002F [0x23] WAIT_FOR_DIALOG_INTERACTION
  8: 0x0030 [0x1D] PRINT_EVENT_MESSAGE(message_id=10188*)
    → "A katana is a work of art. I refuse to replace the traditional methods of smithing with modern synthesis. However, my supply of materials is currently running low."
  9: 0x0033 [0x23] WAIT_FOR_DIALOG_INTERACTION
 10: 0x0034 [0x66] LOAD_EXT_SCHEDULER_MAIN: Load scheduler "thk2" with entities [EventEntity, EventEntity], work=20*
 11: 0x0043 [0x1D] PRINT_EVENT_MESSAGE(message_id=10189*)
    → "If these items were easy to come by, I would go myself. Unfortunately, this is not the case, and I require your assistance."
 12: 0x0046 [0x23] WAIT_FOR_DIALOG_INTERACTION
 13: 0x0047 [0x53] WAIT_SCHEDULER_TASK: Wait for scheduler "thk2" with entities [EventEntity, EventEntity]

SUBROUTINE_0054:
 14: 0x0054 [0x24] CREATE_DIALOG(message_id=10190*, default_option=0*, option_flags=0*)
    → "Listen to Jaucribaix's request? [Yes./No.]"
 15: 0x005B [0x25] WAIT_DIALOG_SELECT()
 16: 0x005C [0x02] IF !(Work_Zone[0] == 1*) GOTO 0x006E
 17: 0x0064 [0x1D] PRINT_EVENT_MESSAGE(message_id=10191*)
    → "I see. I apologize for taking up your valuable time."
 18: 0x0067 [0x23] WAIT_FOR_DIALOG_INTERACTION
 19: 0x0068 [0x01] GOTO 0x00BE

SUBROUTINE_006E:
 20: 0x006E [0x42] SET_CLI_EVENT_CANCEL_DATA()
 21: 0x006F [0x03] Work_Zone[1] = 1*
 22: 0x0074 [0x1D] PRINT_EVENT_MESSAGE(message_id=10193*)
    → "I am grateful for your assistance. Would you be so kind as to fetch me $0 and $1?"
 23: 0x0077 [0x23] WAIT_FOR_DIALOG_INTERACTION
 24: 0x0078 [0x66] LOAD_EXT_SCHEDULER_MAIN: Load scheduler "thk1" with entities [EventEntity, EventEntity], work=20*
 25: 0x0087 [0x1D] PRINT_EVENT_MESSAGE(message_id=10194*)
    → "The $0 is for the flame that fuels my furnace, and the $1 is the perfect material for melting the iron. Both are needed to forge a true katana blade."
 26: 0x008A [0x23] WAIT_FOR_DIALOG_INTERACTION
 27: 0x008B [0x66] LOAD_EXT_SCHEDULER_MAIN: Load scheduler "thk2" with entities [EventEntity, EventEntity], work=20*
 28: 0x009A [0x53] WAIT_SCHEDULER_TASK: Wait for scheduler "thk2" with entities [EventEntity, EventEntity]
 29: 0x00A7 [0x66] LOAD_EXT_SCHEDULER_MAIN: Load scheduler "tlk0" with entities [EventEntity, EventEntity], work=20*
 30: 0x00B6 [0x1D] PRINT_EVENT_MESSAGE(message_id=10195*)
    → "To learn of where you may come across these items, ask my pupils."
 31: 0x00B9 [0x23] WAIT_FOR_DIALOG_INTERACTION
 32: 0x00BA [0x1D] PRINT_EVENT_MESSAGE(message_id=10196*)
    → "Tell them I sent you, and they will assist you with your preparations for the journey. Also, if you come across any trouble, you may ask them for further aid. However, I doubt you will require it."
 33: 0x00BD [0x23] WAIT_FOR_DIALOG_INTERACTION

SUBROUTINE_00BE:
 34: 0x00BE [0x21] END_EVENT
 35: 0x00BF [0x00] END_REQSTACK()
```

#### Data or dead code:

```
# Dead code (unreachable instructions):
     0x006B [0x01] GOTO 0x006E
```

### Event 26

#### Metadata

| Field        | Value    |
|--------------|----------|
| Entrypoint   | 0x00C0   |
| Data Size    | 20 bytes |
| Instructions | 10       |

```
      00 01 02 03 04 05 06 07  08 09 0A 0B 0C 0D 0E 0F
      -- -- -- -- -- -- -- --  -- -- -- -- -- -- -- --
00C0: 1A BD 18 1A FB 18 1D 0E  80 23 1D 0F 80 23 1D 10  .........#...#..
00D0: 80 23 21 00                                       .#!.            
```

#### Opcodes

```
  0: 0x00C0 [0x1A] CALL_SUBROUTINE(address=0x18BD)
  1: 0x00C3 [0x1A] CALL_SUBROUTINE(address=0x18FB)
  2: 0x00C6 [0x1D] PRINT_EVENT_MESSAGE(message_id=10197*)
    → "To learn of where you may come across the items I wish you to bring me, ask my pupils."
  3: 0x00C9 [0x23] WAIT_FOR_DIALOG_INTERACTION
  4: 0x00CA [0x1D] PRINT_EVENT_MESSAGE(message_id=10198*)
    → "Tell them I sent you, and they will assist you with your preparations for the journey. Also, if you come across any trouble, you may ask them for further aid. However, I doubt you will require it."
  5: 0x00CD [0x23] WAIT_FOR_DIALOG_INTERACTION
  6: 0x00CE [0x1D] PRINT_EVENT_MESSAGE(message_id=10199*)
    → "When you have gathered the two items, bring them directly to me and I will begin my work."
  7: 0x00D1 [0x23] WAIT_FOR_DIALOG_INTERACTION
  8: 0x00D2 [0x21] END_EVENT
  9: 0x00D3 [0x00] END_REQSTACK()
```

### Event 27

#### Metadata

| Field        | Value    |
|--------------|----------|
| Entrypoint   | 0x00D4   |
| Data Size    | 64 bytes |
| Instructions | 14       |

```
      00 01 02 03 04 05 06 07  08 09 0A 0B 0C 0D 0E 0F
      -- -- -- -- -- -- -- --  -- -- -- -- -- -- -- --
00D0:             42 1A BD 18  1D 11 80 23 66 03 80 F8      B......#f...
00E0: FF FF 7F F8 FF FF 7F 74  68 6B 31 53 F8 FF FF 7F  .......thk1S....
00F0: F8 FF FF 7F 74 68 6B 31  1D 12 80 23 1D 13 80 23  ....thk1...#...#
0100: 66 03 80 F8 FF FF 7F F8  FF FF 7F 74 68 6B 32 1C  f..........thk2.
0110: 14 80 21 00                                       ..!.            
```

#### Opcodes

```
  0: 0x00D4 [0x42] SET_CLI_EVENT_CANCEL_DATA()
  1: 0x00D5 [0x1A] CALL_SUBROUTINE(address=0x18BD)
  2: 0x00D8 [0x1D] PRINT_EVENT_MESSAGE(message_id=10200*)
    → "Wonderful. These are the materials that I require. I apologize, but I must hurry or Gilgamesh will have my head. I will reward you for your services when I have finished the katana."
  3: 0x00DB [0x23] WAIT_FOR_DIALOG_INTERACTION
  4: 0x00DC [0x66] LOAD_EXT_SCHEDULER_MAIN: Load scheduler "thk1" with entities [EventEntity, EventEntity], work=20*
  5: 0x00EB [0x53] WAIT_SCHEDULER_TASK: Wait for scheduler "thk1" with entities [EventEntity, EventEntity]
  6: 0x00F8 [0x1D] PRINT_EVENT_MESSAGE(message_id=10201*)
    → "How long will it take, you ask? A good blade takes at least three full days to complete. Come to me then. You need not worry. I will be right here."
  7: 0x00FB [0x23] WAIT_FOR_DIALOG_INTERACTION
  8: 0x00FC [0x1D] PRINT_EVENT_MESSAGE(message_id=10202*)
    → "Again, I apologize for not being able to give you your reward sooner."
  9: 0x00FF [0x23] WAIT_FOR_DIALOG_INTERACTION
 10: 0x0100 [0x66] LOAD_EXT_SCHEDULER_MAIN: Load scheduler "thk2" with entities [EventEntity, EventEntity], work=20*
 11: 0x010F [0x1C] WAIT(45* ticks)
 12: 0x0112 [0x21] END_EVENT
 13: 0x0113 [0x00] END_REQSTACK()
```

### Event 28

#### Metadata

| Field        | Value    |
|--------------|----------|
| Entrypoint   | 0x0114   |
| Data Size    | 46 bytes |
| Instructions | 10       |

```
      00 01 02 03 04 05 06 07  08 09 0A 0B 0C 0D 0E 0F
      -- -- -- -- -- -- -- --  -- -- -- -- -- -- -- --
0110:             1A BD 18 66  03 80 F8 FF FF 7F F8 FF      ...f........
0120: FF 7F 74 68 6B 31 1D 15  80 23 1D 16 80 23 66 03  ..thk1...#...#f.
0130: 80 F8 FF FF 7F F8 FF FF  7F 74 68 6B 32 1C 14 80  .........thk2...
0140: 21 00                                             !.              
```

#### Opcodes

```
  0: 0x0114 [0x1A] CALL_SUBROUTINE(address=0x18BD)
  1: 0x0117 [0x66] LOAD_EXT_SCHEDULER_MAIN: Load scheduler "thk1" with entities [EventEntity, EventEntity], work=20*
  2: 0x0126 [0x1D] PRINT_EVENT_MESSAGE(message_id=10203*)
    → "My work is not yet complete. I still require $0 [more hour/more hours]. It is not wise to waste your time trying to outrun the clock in this game we call life."
  3: 0x0129 [0x23] WAIT_FOR_DIALOG_INTERACTION
  4: 0x012A [0x1D] PRINT_EVENT_MESSAGE(message_id=10204*)
    → "Time is like a flowing river--it cannot be sped up or slowed down. We must float along at the pace it has chosen."
  5: 0x012D [0x23] WAIT_FOR_DIALOG_INTERACTION
  6: 0x012E [0x66] LOAD_EXT_SCHEDULER_MAIN: Load scheduler "thk2" with entities [EventEntity, EventEntity], work=20*
  7: 0x013D [0x1C] WAIT(45* ticks)
  8: 0x0140 [0x21] END_EVENT
  9: 0x0141 [0x00] END_REQSTACK()
```

### Event 29

#### Metadata

| Field        | Value     |
|--------------|-----------|
| Entrypoint   | 0x0142    |
| Data Size    | 558 bytes |
| Instructions | 72        |

```
      00 01 02 03 04 05 06 07  08 09 0A 0B 0C 0D 0E 0F
      -- -- -- -- -- -- -- --  -- -- -- -- -- -- -- --
0140:       42 1A 8F 16 46 01  38 17 80 29 10 F0 FF FF    B...F.8..)....
0150: 7F 18 80 F0 FF FF 7F 1C  01 80 45 18 80 F0 FF FF  ..........E.....
0160: 7F F0 FF FF 7F 73 6D 30  31 08 80 45 19 80 F0 FF  .....sm01..E....
0170: FF 7F F0 FF FF 7F 66 64  69 32 08 80 1A BD 18 66  ......fdi2.....f
0180: 03 80 F8 FF FF 7F F8 FF  FF 7F 74 6C 6B 30 2B 10  ..........tlk0+.
0190: C0 0F 01 1A 80 23 2B 10  C0 0F 01 1B 80 23 2B 03  .....#+......#+.
01A0: C0 0F 01 1C 80 23 6C 03  C0 0F 01 1D 80 01 80 5E  .....#l........^
01B0: 69 64 6C 30 1E 03 C0 0F  01 52 18 80 F0 FF FF 7F  idl0.....R......
01C0: F0 FF FF 7F 73 6D 30 31  45 18 80 F0 FF FF 7F F0  ....sm01E.......
01D0: FF FF 7F 73 6D 30 32 08  80 1C 1E 80 4A F0 FF FF  ...sm02.....J...
01E0: 7F 03 C0 0F 01 2B 10 C0  0F 01 1F 80 23 45 18 80  .....+......#E..
01F0: F0 FF FF 7F F0 FF FF 7F  73 6D 30 33 08 80 27 10  ........sm03..'.
0200: 03 C0 0F 01 1A 2B 03 C0  0F 01 20 80 23 52 18 80  .....+.... .#R..
0210: F0 FF FF 7F F0 FF FF 7F  73 6D 30 33 45 19 80 F0  ........sm03E...
0220: FF FF 7F F0 FF FF 7F 6F  76 6C 31 08 80 45 18 80  .......ovl1..E..
0230: F0 FF FF 7F F0 FF FF 7F  73 6D 30 34 08 80 2A 10  ........sm04..*.
0240: 03 C0 0F 01 4A 03 C0 0F  01 F0 FF FF 7F 6F 76 03  ....J........ov.
0250: C0 0F 01 79 00 03 C0 0F  01 03 C0 0F 01 66 03 80  ...y.........f..
0260: F8 FF FF 7F F8 FF FF 7F  74 68 6B 31 2B 03 C0 0F  ........thk1+...
0270: 01 21 80 23 81 00 03 C0  0F 01 5B 22 80 03 C0 0F  .!.#......["....
0280: 01 03 C0 0F 01 74 68 6B  30 2B 03 C0 0F 01 23 80  .....thk0+....#.
0290: 23 2B 03 C0 0F 01 24 80  23 81 01 03 C0 0F 01 5B  #+....$.#......[
02A0: 22 80 03 C0 0F 01 03 C0  0F 01 74 68 6B 31 53 03  ".........thk1S.
02B0: C0 0F 01 03 C0 0F 01 74  68 6B 31 5B 25 80 03 C0  .......thk1[%...
02C0: 0F 01 03 C0 0F 01 6B 74  6E 30 2C 03 C0 0F 01 03  ......ktn0,.....
02D0: C0 0F 01 77 6F 6E 34 2B  03 C0 0F 01 26 80 23 2B  ...won4+....&.#+
02E0: 03 C0 0F 01 27 80 23 45  18 80 F0 FF FF 7F F0 FF  ....'.#E........
02F0: FF 7F 73 6D 30 36 08 80  2B 03 C0 0F 01 28 80 23  ..sm06..+....(.#
0300: 52 18 80 F0 FF FF 7F F0  FF FF 7F 73 6D 30 36 45  R..........sm06E
0310: 18 80 F0 FF FF 7F F0 FF  FF 7F 73 6D 30 35 08 80  ..........sm05..
0320: 5B 25 80 03 C0 0F 01 03  C0 0F 01 6B 74 6E 31 2B  [%.........ktn1+
0330: 03 C0 0F 01 29 80 23 1A  8F 16 1C 1E 80 2C 03 C0  ....).#......,..
0340: 0F 01 03 C0 0F 01 77 6F  66 34 46 00 45 19 80 F0  ......wof4F.E...
0350: FF FF 7F F0 FF FF 7F 66  64 69 32 08 80 45 2A 80  .......fdi2..E*.
0360: F0 FF FF 7F F0 FF FF 7F  71 73 74 63 08 80 21 00  ........qstc..!.
```

#### Opcodes

```
  0: 0x0142 [0x42] SET_CLI_EVENT_CANCEL_DATA()
  1: 0x0143 [0x1A] CALL_SUBROUTINE(address=0x168F)
  2: 0x0146 [0x46] CAMERA_CONTROL: Disable user control
  3: 0x0148 [0x38] SET_CLIENT_EVENT_MODE(mode=19*)
  4: 0x014B [0x29] REQ_SET_WAIT(priority=0x10, entity_id=LocalPlayer, tag_num=0x18)
  5: 0x0152 [0x80] LOAD_WAIT(entity=LocalPlayer)
  6: 0x0157 [0x1C] WAIT(1* ticks)
  7: 0x015A [0x45] LOAD_SCHEDULED_TASK: Load scheduler "sm01" with entities [LocalPlayer, LocalPlayer], work=[233*, 0*]
  8: 0x016B [0x45] LOAD_SCHEDULED_TASK: Load scheduler "fdi2" with entities [LocalPlayer, LocalPlayer], work=[200*, 0*]
  9: 0x017C [0x1A] CALL_SUBROUTINE(address=0x18BD)
 10: 0x017F [0x66] LOAD_EXT_SCHEDULER_MAIN: Load scheduler "tlk0" with entities [EventEntity, EventEntity], work=20*
 11: 0x018E [0x2B] Jaucribaix (ID: 17809424/0x010FC010) [10205*]:
    → "Ah, <Player>, you have finally returned. I was beginning to worry that you had forgotten about your reward."
 12: 0x0195 [0x23] WAIT_FOR_DIALOG_INTERACTION
 13: 0x0196 [0x2B] Jaucribaix (ID: 17809424/0x010FC010) [10206*]:
    → "Now where did I put that..."
 14: 0x019D [0x23] WAIT_FOR_DIALOG_INTERACTION
 15: 0x019E [0x2B] Gilgamesh (ID: 17809411/0x010FC003) [10207*]:
    → "Arrrg, if it isn't our little helper [boy/girl]!"
 16: 0x01A5 [0x23] WAIT_FOR_DIALOG_INTERACTION
 17: 0x01A6 [0x6C] FADE_ENTITY_COLOR(entity_id=Gilgamesh (ID: 17809411/0x010FC003), end_alpha=128*, fade_time=1*)
 18: 0x01AF [0x5E] EventEntity goes idle (kills current action) (animation: "idl0")
 19: 0x01B4 [0x1E] EventEntity looks at Gilgamesh (ID: 17809411/0x010FC003) and starts talking
 20: 0x01B9 [0x52] END_LOAD_SCHEDULER: End scheduler "sm01" with entities [LocalPlayer, LocalPlayer], work=233*
 21: 0x01C8 [0x45] LOAD_SCHEDULED_TASK: Load scheduler "sm02" with entities [LocalPlayer, LocalPlayer], work=[233*, 0*]
 22: 0x01D9 [0x1C] WAIT(30* ticks)
 23: 0x01DC [0x4A] LocalPlayer looks at Gilgamesh (ID: 17809411/0x010FC003)
 24: 0x01E5 [0x2B] Jaucribaix (ID: 17809424/0x010FC010) [10208*]:
    → "Gilgamesh."
 25: 0x01EC [0x23] WAIT_FOR_DIALOG_INTERACTION
 26: 0x01ED [0x45] LOAD_SCHEDULED_TASK: Load scheduler "sm03" with entities [LocalPlayer, LocalPlayer], work=[233*, 0*]
 27: 0x01FE [0x27] REQ_SET(priority=0x10, entity_id=Gilgamesh (ID: 17809411/0x010FC003), tag_num=0x1A)
 28: 0x0205 [0x2B] Gilgamesh (ID: 17809411/0x010FC003) [10209*]:
    → "Ya did some mighty fine work in gettin' me matey, Jauc, his materials. Thanks t'you, I got meself a fine new blade."
 29: 0x020C [0x23] WAIT_FOR_DIALOG_INTERACTION
 30: 0x020D [0x52] END_LOAD_SCHEDULER: End scheduler "sm03" with entities [LocalPlayer, LocalPlayer], work=233*
 31: 0x021C [0x45] LOAD_SCHEDULED_TASK: Load scheduler "ovl1" with entities [LocalPlayer, LocalPlayer], work=[200*, 0*]
 32: 0x022D [0x45] LOAD_SCHEDULED_TASK: Load scheduler "sm04" with entities [LocalPlayer, LocalPlayer], work=[233*, 0*]
 33: 0x023E [0x2A] GET_REQ_LEVEL(level=16, entity_id=Gilgamesh (ID: 17809411/0x010FC003))
 34: 0x0244 [0x4A] Gilgamesh (ID: 17809411/0x010FC003) looks at LocalPlayer
 35: 0x024D [0x6F] WAIT_FRAME_DELAY: Yield until WaitTime reaches zero
 36: 0x024E [0x76] CHECK_ENTITY_RENDER_FLAGS: Wait until Gilgamesh (ID: 17809411/0x010FC003) Render.Flags0 and Render.Flags3 conditions are met
 37: 0x0253 [0x79] Gilgamesh (ID: 17809411/0x010FC003) looks at Gilgamesh (ID: 17809411/0x010FC003) (Basic look)
 38: 0x025D [0x66] LOAD_EXT_SCHEDULER_MAIN: Load scheduler "thk1" with entities [EventEntity, EventEntity], work=20*
 39: 0x026C [0x2B] Gilgamesh (ID: 17809411/0x010FC003) [10210*]:
    → "Listen carefully, <Player>. Within a katana, the soul of its maker and the soul of its wielder are intertwined."
 40: 0x0273 [0x23] WAIT_FOR_DIALOG_INTERACTION
 41: 0x0274 [0x81] SET_ENTITY_BLINKING(blink_flag=0x00, entity=Gilgamesh (ID: 17809411/0x010FC003))
 42: 0x027A [0x5B] LOAD_EXT_SCHEDULER: Load scheduler "thk0" with entities [Gilgamesh (ID: 17809411/0x010FC003), Gilgamesh (ID: 17809411/0x010FC003)], work=566*
 43: 0x0289 [0x2B] Gilgamesh (ID: 17809411/0x010FC003) [10211*]:
    → "That newfangled crystal synthesis you adventurers be usin' is all fine fer mantles and arrows, but it can't copy the traditional methods. One must know the essentials behind a blade if they ever want t'master it."
 44: 0x0290 [0x23] WAIT_FOR_DIALOG_INTERACTION
 45: 0x0291 [0x2B] Gilgamesh (ID: 17809411/0x010FC003) [10212*]:
    → "That's why we make adventurers like you go on quests like that last one. We want you t'know the true meanin' of wieldin' a blade like this."
 46: 0x0298 [0x23] WAIT_FOR_DIALOG_INTERACTION
 47: 0x0299 [0x81] SET_ENTITY_BLINKING(blink_flag=0x01, entity=Gilgamesh (ID: 17809411/0x010FC003))
 48: 0x029F [0x5B] LOAD_EXT_SCHEDULER: Load scheduler "thk1" with entities [Gilgamesh (ID: 17809411/0x010FC003), Gilgamesh (ID: 17809411/0x010FC003)], work=566*
 49: 0x02AE [0x53] WAIT_SCHEDULER_TASK: Wait for scheduler "thk1" with entities [Gilgamesh (ID: 17809411/0x010FC003), Gilgamesh (ID: 17809411/0x010FC003)]
 50: 0x02BB [0x5B] LOAD_EXT_SCHEDULER: Load scheduler "ktn0" with entities [Gilgamesh (ID: 17809411/0x010FC003), Gilgamesh (ID: 17809411/0x010FC003)], work=567*
 51: 0x02CA [0x2C] CREATE_SCHEDULER_TASK: Create scheduler "won4" with entities [Gilgamesh (ID: 17809411/0x010FC003), Gilgamesh (ID: 17809411/0x010FC003)]
 52: 0x02D7 [0x2B] Gilgamesh (ID: 17809411/0x010FC003) [10213*]:
    → "Know the meaning of the power you hold, and only then will you find the true power within. That be "bushido," the way of the samurai."
 53: 0x02DE [0x23] WAIT_FOR_DIALOG_INTERACTION
 54: 0x02DF [0x2B] Gilgamesh (ID: 17809411/0x010FC003) [10214*]:
    → "Yer adventures have already trained you t'become a samurai. Now all that's left is for ya t'pledge your faith t'this blade. Yer power within will do the rest."
 55: 0x02E6 [0x23] WAIT_FOR_DIALOG_INTERACTION
 56: 0x02E7 [0x45] LOAD_SCHEDULED_TASK: Load scheduler "sm06" with entities [LocalPlayer, LocalPlayer], work=[233*, 0*]
 57: 0x02F8 [0x2B] Gilgamesh (ID: 17809411/0x010FC003) [10215*]:
    → "Rid yerself of all unnecessary thoughts and feel the world around ya. Make yer soul an unclouded mirror...a motionless pond. Project yerself into yer blade. This be the legendary skill used by the samurai--"Meikyo Shisui.""
 58: 0x02FF [0x23] WAIT_FOR_DIALOG_INTERACTION
 59: 0x0300 [0x52] END_LOAD_SCHEDULER: End scheduler "sm06" with entities [LocalPlayer, LocalPlayer], work=233*
 60: 0x030F [0x45] LOAD_SCHEDULED_TASK: Load scheduler "sm05" with entities [LocalPlayer, LocalPlayer], work=[233*, 0*]
 61: 0x0320 [0x5B] LOAD_EXT_SCHEDULER: Load scheduler "ktn1" with entities [Gilgamesh (ID: 17809411/0x010FC003), Gilgamesh (ID: 17809411/0x010FC003)], work=567*
 62: 0x032F [0x2B] Gilgamesh (ID: 17809411/0x010FC003) [10216*]:
    → "Take this $0, <Player>. This blade was forged fer ya. Pledge your life t'her an' she won't let ya down."
 63: 0x0336 [0x23] WAIT_FOR_DIALOG_INTERACTION
 64: 0x0337 [0x1A] CALL_SUBROUTINE(address=0x168F)
 65: 0x033A [0x1C] WAIT(30* ticks)
 66: 0x033D [0x2C] CREATE_SCHEDULER_TASK: Create scheduler "wof4" with entities [Gilgamesh (ID: 17809411/0x010FC003), Gilgamesh (ID: 17809411/0x010FC003)]
 67: 0x034A [0x46] CAMERA_CONTROL: Restore default settings
 68: 0x034C [0x45] LOAD_SCHEDULED_TASK: Load scheduler "fdi2" with entities [LocalPlayer, LocalPlayer], work=[200*, 0*]
 69: 0x035D [0x45] LOAD_SCHEDULED_TASK: Load scheduler "qstc" with entities [LocalPlayer, LocalPlayer], work=[201*, 0*]
 70: 0x036E [0x21] END_EVENT
 71: 0x036F [0x00] END_REQSTACK()
```

### Event 30

#### Metadata

| Field        | Value    |
|--------------|----------|
| Entrypoint   | 0x0370   |
| Data Size    | 46 bytes |
| Instructions | 10       |

```
      00 01 02 03 04 05 06 07  08 09 0A 0B 0C 0D 0E 0F
      -- -- -- -- -- -- -- --  -- -- -- -- -- -- -- --
0370: 1A BD 18 66 03 80 F8 FF  FF 7F F8 FF FF 7F 74 68  ...f..........th
0380: 6B 31 1D 2B 80 23 1D 2C  80 23 66 03 80 F8 FF FF  k1.+.#.,.#f.....
0390: 7F F8 FF FF 7F 74 68 6B  32 1C 14 80 21 00        .....thk2...!.  
```

#### Opcodes

```
  0: 0x0370 [0x1A] CALL_SUBROUTINE(address=0x18BD)
  1: 0x0373 [0x66] LOAD_EXT_SCHEDULER_MAIN: Load scheduler "thk1" with entities [EventEntity, EventEntity], work=20*
  2: 0x0382 [0x1D] PRINT_EVENT_MESSAGE(message_id=10219*)
    → "Crystal technology has helped Vana'diel prosper, but at the cost of traditional methods, now lost forever."
  3: 0x0385 [0x23] WAIT_FOR_DIALOG_INTERACTION
  4: 0x0386 [0x1D] PRINT_EVENT_MESSAGE(message_id=10220*)
    → "Just as the old is replaced by the new, the world is constantly changing. One day, one may no longer be able to live by a single blade alone."
  5: 0x0389 [0x23] WAIT_FOR_DIALOG_INTERACTION
  6: 0x038A [0x66] LOAD_EXT_SCHEDULER_MAIN: Load scheduler "thk2" with entities [EventEntity, EventEntity], work=20*
  7: 0x0399 [0x1C] WAIT(45* ticks)
  8: 0x039C [0x21] END_EVENT
  9: 0x039D [0x00] END_REQSTACK()
```

### Event 139

#### Metadata

| Field        | Value     |
|--------------|-----------|
| Entrypoint   | 0x039E    |
| Data Size    | 156 bytes |
| Instructions | 41        |

```
      00 01 02 03 04 05 06 07  08 09 0A 0B 0C 0D 0E 0F
      -- -- -- -- -- -- -- --  -- -- -- -- -- -- -- --
0390:                                            1A BD                ..
03A0: 18 03 02 10 2D 80 03 03  10 2E 80 03 04 10 2F 80  ....-........./.
03B0: 02 09 10 01 80 00 BF 03  1D 30 80 23 01 CF 03 1A  .........0.#....
03C0: FB 18 1D 31 80 23 1D 32  80 23 5E 69 64 6C 30 24  ...1.#.2.#^idl0$
03D0: 07 80 01 80 08 80 25 02  00 10 01 80 00 E9 03 1D  ......%.........
03E0: 09 80 23 01 38 04 01 E9  03 42 03 01 10 01 80 1A  ..#.8....B......
03F0: FB 18 1D 33 80 23 1D 34  80 23 66 03 80 F8 FF FF  ...3.#.4.#f.....
0400: 7F F8 FF FF 7F 74 68 6B  31 1D 35 80 23 1D 36 80  .....thk1.5.#.6.
0410: 23 66 03 80 F8 FF FF 7F  F8 FF FF 7F 74 68 6B 32  #f..........thk2
0420: 53 F8 FF FF 7F F8 FF FF  7F 74 68 6B 32 1A FB 18  S........thk2...
0430: 1D 37 80 23 1D 38 80 23  21 00                    .7.#.8.#!.      
```

#### Opcodes

```
  0: 0x039E [0x1A] CALL_SUBROUTINE(address=0x18BD)
  1: 0x03A1 [0x03] Work_Zone[2] = 17809*
  2: 0x03A6 [0x03] Work_Zone[3] = 453*
  3: 0x03AB [0x03] Work_Zone[4] = 1168*
  4: 0x03B0 [0x02] IF !(Work_Zone[9] == 1*) GOTO 0x03BF
  5: 0x03B8 [0x1D] PRINT_EVENT_MESSAGE(message_id=10734*)
    → "So, you've decided to help!"
  6: 0x03BB [0x23] WAIT_FOR_DIALOG_INTERACTION
  7: 0x03BC [0x01] GOTO 0x03CF
  8: 0x03BF [0x1A] CALL_SUBROUTINE(address=0x18FB)
  9: 0x03C2 [0x1D] PRINT_EVENT_MESSAGE(message_id=10636*)
    → "Ah, <Player>. Many moons have passed since I made you your first katana. I can see you have grown much in that time."
 10: 0x03C5 [0x23] WAIT_FOR_DIALOG_INTERACTION
 11: 0x03C6 [0x1D] PRINT_EVENT_MESSAGE(message_id=10637*)
    → "This may seem sudden, but I wish to ask of your assistance."
 12: 0x03C9 [0x23] WAIT_FOR_DIALOG_INTERACTION
 13: 0x03CA [0x5E] EventEntity goes idle (kills current action) (animation: "idl0")

SUBROUTINE_03CF:
 14: 0x03CF [0x24] CREATE_DIALOG(message_id=10190*, default_option=1*, option_flags=0*)
    → "Listen to Jaucribaix's request? [Yes./No.]"
 15: 0x03D6 [0x25] WAIT_DIALOG_SELECT()
 16: 0x03D7 [0x02] IF !(Work_Zone[0] == 1*) GOTO 0x03E9
 17: 0x03DF [0x1D] PRINT_EVENT_MESSAGE(message_id=10191*)
    → "I see. I apologize for taking up your valuable time."
 18: 0x03E2 [0x23] WAIT_FOR_DIALOG_INTERACTION
 19: 0x03E3 [0x01] GOTO 0x0438

SUBROUTINE_03E9:
 20: 0x03E9 [0x42] SET_CLI_EVENT_CANCEL_DATA()
 21: 0x03EA [0x03] Work_Zone[1] = 1*
 22: 0x03EF [0x1A] CALL_SUBROUTINE(address=0x18FB)
 23: 0x03F2 [0x1D] PRINT_EVENT_MESSAGE(message_id=10638*)
    → "Spoken like a true samurai. Now let me fill you in on the details. In the coming weeks, an extremely important ritual will be held. To complete this ritual, a "sacred katana" is needed. I require your assistance in gathering the materials to forge this new blade."
 24: 0x03F5 [0x23] WAIT_FOR_DIALOG_INTERACTION
 25: 0x03F6 [0x1D] PRINT_EVENT_MESSAGE(message_id=10639*)
    → "The first is $0. This is to become the base of the sacred katana. I assume the $0 you used in your training still rests somewhere in your Mog Safe."
 26: 0x03F9 [0x23] WAIT_FOR_DIALOG_INTERACTION
 27: 0x03FA [0x66] LOAD_EXT_SCHEDULER_MAIN: Load scheduler "thk1" with entities [EventEntity, EventEntity], work=20*
 28: 0x0409 [0x1D] PRINT_EVENT_MESSAGE(message_id=10640*)
    → "The second item I require is $6. You can only find these scales on the beast that lives deep within a crystal pond in the Sanctuary of Zi'Tah."
 29: 0x040C [0x23] WAIT_FOR_DIALOG_INTERACTION
 30: 0x040D [0x1D] PRINT_EVENT_MESSAGE(message_id=10641*)
    → "However, this fish cannot be caught using traditional methods. You must lure it out of hiding using $2, made by the Goblins of that forest."
 31: 0x0410 [0x23] WAIT_FOR_DIALOG_INTERACTION
 32: 0x0411 [0x66] LOAD_EXT_SCHEDULER_MAIN: Load scheduler "thk2" with entities [EventEntity, EventEntity], work=20*
 33: 0x0420 [0x53] WAIT_SCHEDULER_TASK: Wait for scheduler "thk2" with entities [EventEntity, EventEntity]
 34: 0x042D [0x1A] CALL_SUBROUTINE(address=0x18FB)
 35: 0x0430 [0x1D] PRINT_EVENT_MESSAGE(message_id=10642*)
    → "Take care when battling this violent beast, as it is no ordinary fish. After you defeat it, recover $6 and bring them back to me."
 36: 0x0433 [0x23] WAIT_FOR_DIALOG_INTERACTION
 37: 0x0434 [0x1D] PRINT_EVENT_MESSAGE(message_id=10643*)
    → "A long journey awaits you. I pray for your safe return."
 38: 0x0437 [0x23] WAIT_FOR_DIALOG_INTERACTION

SUBROUTINE_0438:
 39: 0x0438 [0x21] END_EVENT
 40: 0x0439 [0x00] END_REQSTACK()
```

#### Data or dead code:

```
# Dead code (unreachable instructions):
     0x03E6 [0x01] GOTO 0x03E9
```

### Event 140

#### Metadata

| Field        | Value    |
|--------------|----------|
| Entrypoint   | 0x043A   |
| Data Size    | 86 bytes |
| Instructions | 20       |

```
      00 01 02 03 04 05 06 07  08 09 0A 0B 0C 0D 0E 0F
      -- -- -- -- -- -- -- --  -- -- -- -- -- -- -- --
0430:                                1A BD 18 03 02 10            ......
0440: 2D 80 03 03 10 2E 80 03  04 10 2F 80 1D 39 80 23  -........./..9.#
0450: 66 03 80 F8 FF FF 7F F8  FF FF 7F 74 68 6B 31 1D  f..........thk1.
0460: 35 80 23 1D 36 80 23 66  03 80 F8 FF FF 7F F8 FF  5.#.6.#f........
0470: FF 7F 74 68 6B 32 53 F8  FF FF 7F F8 FF FF 7F 74  ..thk2S........t
0480: 68 6B 32 1A FB 18 1D 37  80 23 1D 3A 80 23 21 00  hk2....7.#.:.#!.
```

#### Opcodes

```
  0: 0x043A [0x1A] CALL_SUBROUTINE(address=0x18BD)
  1: 0x043D [0x03] Work_Zone[2] = 17809*
  2: 0x0442 [0x03] Work_Zone[3] = 453*
  3: 0x0447 [0x03] Work_Zone[4] = 1168*
  4: 0x044C [0x1D] PRINT_EVENT_MESSAGE(message_id=10644*)
    → "Listen carefully. To forge a new sacred katana, I require two items, the first being the $0 you used in your training."
  5: 0x044F [0x23] WAIT_FOR_DIALOG_INTERACTION
  6: 0x0450 [0x66] LOAD_EXT_SCHEDULER_MAIN: Load scheduler "thk1" with entities [EventEntity, EventEntity], work=20*
  7: 0x045F [0x1D] PRINT_EVENT_MESSAGE(message_id=10640*)
    → "The second item I require is $6. You can only find these scales on the beast that lives deep within a crystal pond in the Sanctuary of Zi'Tah."
  8: 0x0462 [0x23] WAIT_FOR_DIALOG_INTERACTION
  9: 0x0463 [0x1D] PRINT_EVENT_MESSAGE(message_id=10641*)
    → "However, this fish cannot be caught using traditional methods. You must lure it out of hiding using $2, made by the Goblins of that forest."
 10: 0x0466 [0x23] WAIT_FOR_DIALOG_INTERACTION
 11: 0x0467 [0x66] LOAD_EXT_SCHEDULER_MAIN: Load scheduler "thk2" with entities [EventEntity, EventEntity], work=20*
 12: 0x0476 [0x53] WAIT_SCHEDULER_TASK: Wait for scheduler "thk2" with entities [EventEntity, EventEntity]
 13: 0x0483 [0x1A] CALL_SUBROUTINE(address=0x18FB)
 14: 0x0486 [0x1D] PRINT_EVENT_MESSAGE(message_id=10642*)
    → "Take care when battling this violent beast, as it is no ordinary fish. After you defeat it, recover $6 and bring them back to me."
 15: 0x0489 [0x23] WAIT_FOR_DIALOG_INTERACTION
 16: 0x048A [0x1D] PRINT_EVENT_MESSAGE(message_id=10645*)
    → "Return here when you have obtained the materials."
 17: 0x048D [0x23] WAIT_FOR_DIALOG_INTERACTION
 18: 0x048E [0x21] END_EVENT
 19: 0x048F [0x00] END_REQSTACK()
```

### Event 141

#### Metadata

| Field        | Value     |
|--------------|-----------|
| Entrypoint   | 0x0490    |
| Data Size    | 186 bytes |
| Instructions | 28        |

```
      00 01 02 03 04 05 06 07  08 09 0A 0B 0C 0D 0E 0F
      -- -- -- -- -- -- -- --  -- -- -- -- -- -- -- --
0490: 42 1A 8F 16 46 01 38 17  80 29 10 F0 FF FF 7F 18  B...F.8..)......
04A0: 80 F0 FF FF 7F 1C 01 80  45 18 80 F0 FF FF 7F F0  ........E.......
04B0: FF FF 7F 73 6D 30 31 08  80 45 19 80 F0 FF FF 7F  ...sm01..E......
04C0: F0 FF FF 7F 66 64 69 32  08 80 1A BD 18 66 03 80  ....fdi2.....f..
04D0: F8 FF FF 7F F8 FF FF 7F  74 6C 6B 30 03 02 10 2D  ........tlk0...-
04E0: 80 03 03 10 2E 80 03 04  10 3B 80 1D 3C 80 23 66  .........;..<.#f
04F0: 03 80 F8 FF FF 7F F8 FF  FF 7F 70 61 73 30 1D 3D  ..........pas0.=
0500: 80 23 53 F8 FF FF 7F F8  FF FF 7F 70 61 73 30 1A  .#S........pas0.
0510: 8F 16 1C 1E 80 52 18 80  F0 FF FF 7F F0 FF FF 7F  .....R..........
0520: 73 6D 30 31 46 00 45 19  80 F0 FF FF 7F F0 FF FF  sm01F.E.........
0530: 7F 66 64 69 32 08 80 45  2A 80 F0 FF FF 7F F0 FF  .fdi2..E*.......
0540: FF 7F 71 73 74 63 08 80  21 00                    ..qstc..!.      
```

#### Opcodes

```
  0: 0x0490 [0x42] SET_CLI_EVENT_CANCEL_DATA()
  1: 0x0491 [0x1A] CALL_SUBROUTINE(address=0x168F)
  2: 0x0494 [0x46] CAMERA_CONTROL: Disable user control
  3: 0x0496 [0x38] SET_CLIENT_EVENT_MODE(mode=19*)
  4: 0x0499 [0x29] REQ_SET_WAIT(priority=0x10, entity_id=LocalPlayer, tag_num=0x18)
  5: 0x04A0 [0x80] LOAD_WAIT(entity=LocalPlayer)
  6: 0x04A5 [0x1C] WAIT(1* ticks)
  7: 0x04A8 [0x45] LOAD_SCHEDULED_TASK: Load scheduler "sm01" with entities [LocalPlayer, LocalPlayer], work=[233*, 0*]
  8: 0x04B9 [0x45] LOAD_SCHEDULED_TASK: Load scheduler "fdi2" with entities [LocalPlayer, LocalPlayer], work=[200*, 0*]
  9: 0x04CA [0x1A] CALL_SUBROUTINE(address=0x18BD)
 10: 0x04CD [0x66] LOAD_EXT_SCHEDULER_MAIN: Load scheduler "tlk0" with entities [EventEntity, EventEntity], work=20*
 11: 0x04DC [0x03] Work_Zone[2] = 17809*
 12: 0x04E1 [0x03] Work_Zone[3] = 453*
 13: 0x04E6 [0x03] Work_Zone[4] = 17812*
 14: 0x04EB [0x1D] PRINT_EVENT_MESSAGE(message_id=10646*)
    → "I see you have successfully obtained the materials necessary for the forging of the sacred katana. Thanks to your hard work, the blade should be finished by the start of the ritual."
 15: 0x04EE [0x23] WAIT_FOR_DIALOG_INTERACTION
 16: 0x04EF [0x66] LOAD_EXT_SCHEDULER_MAIN: Load scheduler "pas0" with entities [EventEntity, EventEntity], work=20*
 17: 0x04FE [0x1D] PRINT_EVENT_MESSAGE(message_id=10647*)
    → "Ah yes, your reward. Let me give you this $2 in exchange for your $0. It is one of my finest works. May it guide you on your journey."
 18: 0x0501 [0x23] WAIT_FOR_DIALOG_INTERACTION
 19: 0x0502 [0x53] WAIT_SCHEDULER_TASK: Wait for scheduler "pas0" with entities [EventEntity, EventEntity]
 20: 0x050F [0x1A] CALL_SUBROUTINE(address=0x168F)
 21: 0x0512 [0x1C] WAIT(30* ticks)
 22: 0x0515 [0x52] END_LOAD_SCHEDULER: End scheduler "sm01" with entities [LocalPlayer, LocalPlayer], work=233*
 23: 0x0524 [0x46] CAMERA_CONTROL: Restore default settings
 24: 0x0526 [0x45] LOAD_SCHEDULED_TASK: Load scheduler "fdi2" with entities [LocalPlayer, LocalPlayer], work=[200*, 0*]
 25: 0x0537 [0x45] LOAD_SCHEDULED_TASK: Load scheduler "qstc" with entities [LocalPlayer, LocalPlayer], work=[201*, 0*]
 26: 0x0548 [0x21] END_EVENT
 27: 0x0549 [0x00] END_REQSTACK()
```

### Event 142

#### Metadata

| Field        | Value    |
|--------------|----------|
| Entrypoint   | 0x054A   |
| Data Size    | 56 bytes |
| Instructions | 10       |

```
      00 01 02 03 04 05 06 07  08 09 0A 0B 0C 0D 0E 0F
      -- -- -- -- -- -- -- --  -- -- -- -- -- -- -- --
0540:                                1A BD 18 66 03 80            ...f..
0550: F8 FF FF 7F F8 FF FF 7F  74 68 6B 31 1D 3E 80 23  ........thk1.>.#
0560: 66 03 80 F8 FF FF 7F F8  FF FF 7F 74 68 6B 32 1D  f..........thk2.
0570: 3F 80 23 53 F8 FF FF 7F  F8 FF FF 7F 74 68 6B 32  ?.#S........thk2
0580: 21 00                                             !.              
```

#### Opcodes

```
  0: 0x054A [0x1A] CALL_SUBROUTINE(address=0x18BD)
  1: 0x054D [0x66] LOAD_EXT_SCHEDULER_MAIN: Load scheduler "thk1" with entities [EventEntity, EventEntity], work=20*
  2: 0x055C [0x1D] PRINT_EVENT_MESSAGE(message_id=10648*)
    → "As I told you before, the materials you brought me will be used to forge a sacred katana to be used in an important ritual being held in a matter of days."
  3: 0x055F [0x23] WAIT_FOR_DIALOG_INTERACTION
  4: 0x0560 [0x66] LOAD_EXT_SCHEDULER_MAIN: Load scheduler "thk2" with entities [EventEntity, EventEntity], work=20*
  5: 0x056F [0x1D] PRINT_EVENT_MESSAGE(message_id=10649*)
    → "However, there is still much preparation to be done. Your assistance may be required again."
  6: 0x0572 [0x23] WAIT_FOR_DIALOG_INTERACTION
  7: 0x0573 [0x53] WAIT_SCHEDULER_TASK: Wait for scheduler "thk2" with entities [EventEntity, EventEntity]
  8: 0x0580 [0x21] END_EVENT
  9: 0x0581 [0x00] END_REQSTACK()
```

### Event 143

#### Metadata

| Field        | Value    |
|--------------|----------|
| Entrypoint   | 0x0582   |
| Data Size    | 73 bytes |
| Instructions | 15       |

```
      00 01 02 03 04 05 06 07  08 09 0A 0B 0C 0D 0E 0F
      -- -- -- -- -- -- -- --  -- -- -- -- -- -- -- --
0580:       1A BD 18 03 02 10  2D 80 03 03 10 2E 80 66    ......-......f
0590: 03 80 F8 FF FF 7F F8 FF  FF 7F 74 68 6B 31 1D 40  ..........thk1.@
05A0: 80 23 66 03 80 F8 FF FF  7F F8 FF FF 7F 74 68 6B  .#f..........thk
05B0: 32 53 F8 FF FF 7F F8 FF  FF 7F 74 68 6B 32 1A FB  2S........thk2..
05C0: 18 1D 41 80 23 1D 42 80  23 21 00                 ..A.#.B.#!.     
```

#### Opcodes

```
  0: 0x0582 [0x1A] CALL_SUBROUTINE(address=0x18BD)
  1: 0x0585 [0x03] Work_Zone[2] = 17809*
  2: 0x058A [0x03] Work_Zone[3] = 453*
  3: 0x058F [0x66] LOAD_EXT_SCHEDULER_MAIN: Load scheduler "thk1" with entities [EventEntity, EventEntity], work=20*
  4: 0x059E [0x1D] PRINT_EVENT_MESSAGE(message_id=10650*)
    → "What is wrong? You do not look too well..."
  5: 0x05A1 [0x23] WAIT_FOR_DIALOG_INTERACTION
  6: 0x05A2 [0x66] LOAD_EXT_SCHEDULER_MAIN: Load scheduler "thk2" with entities [EventEntity, EventEntity], work=20*
  7: 0x05B1 [0x53] WAIT_SCHEDULER_TASK: Wait for scheduler "thk2" with entities [EventEntity, EventEntity]
  8: 0x05BE [0x1A] CALL_SUBROUTINE(address=0x18FB)
  9: 0x05C1 [0x1D] PRINT_EVENT_MESSAGE(message_id=10651*)
    → "I think I know what may be troubling you. You remember my pupil Ranemaud, do you not? Talk with him, and he may be able to help you with your predicament."
 10: 0x05C4 [0x23] WAIT_FOR_DIALOG_INTERACTION
 11: 0x05C5 [0x1D] PRINT_EVENT_MESSAGE(message_id=10652*)
    → "This is all I will tell you. After you have obtained $6, bring them and your $0 to me. I will be waiting."
 12: 0x05C8 [0x23] WAIT_FOR_DIALOG_INTERACTION
 13: 0x05C9 [0x21] END_EVENT
 14: 0x05CA [0x00] END_REQSTACK()
```

### Event 146

#### Metadata

| Field        | Value     |
|--------------|-----------|
| Entrypoint   | 0x05CB    |
| Data Size    | 809 bytes |
| Instructions | 123       |

```
      00 01 02 03 04 05 06 07  08 09 0A 0B 0C 0D 0E 0F
      -- -- -- -- -- -- -- --  -- -- -- -- -- -- -- --
05C0:                                   02 08 10 01 80             .....
05D0: 00 D4 05 42 1A BD 18 03  02 10 2D 80 03 03 10 43  ...B......-....C
05E0: 80 02 09 10 01 80 00 F0  05 1D 30 80 23 01 00 06  ..........0.#...
05F0: 1A FB 18 1D 44 80 23 1D  45 80 23 5E 69 64 6C 30  ....D.#.E.#^idl0
0600: 24 07 80 01 80 08 80 25  02 00 10 01 80 00 5E 06  $......%......^.
0610: 66 03 80 F8 FF FF 7F F8  FF FF 7F 74 68 6B 31 1D  f..........thk1.
0620: 46 80 23 66 03 80 F8 FF  FF 7F F8 FF FF 7F 74 68  F.#f..........th
0630: 6B 32 53 F8 FF FF 7F F8  FF FF 7F 74 68 6B 32 02  k2S........thk2.
0640: 08 10 01 80 00 58 06 45  19 80 F0 FF FF 7F F0 FF  .....X.E........
0650: FF 7F 66 64 69 32 08 80  01 F2 08 01 5E 06 42 03  ..fdi2......^.B.
0660: 01 10 01 80 1D 47 80 23  1A 0E 14 45 48 80 F0 FF  .....G.#...EH...
0670: FF 7F F0 FF FF 7F 61 6E  30 33 08 80 5B 22 80 03  ......an03..["..
0680: C0 0F 01 03 C0 0F 01 74  6C 6B 30 2B 03 C0 0F 01  .......tlk0+....
0690: 49 80 23 2B 03 C0 0F 01  4A 80 23 5B 22 80 03 C0  I.#+....J.#["...
06A0: 0F 01 03 C0 0F 01 74 6C  6B 31 45 48 80 F0 FF FF  ......tlk1EH....
06B0: 7F F0 FF FF 7F 61 6E 30  34 08 80 2B 03 C0 0F 01  .....an04..+....
06C0: 4B 80 23 53 03 C0 0F 01  03 C0 0F 01 74 6C 6B 31  K.#S........tlk1
06D0: 5C 00 4C 80 5C 01 4C 80  5C 02 4C 80 5C 03 4C 80  \.L.\.L.\.L.\.L.
06E0: 9A 5D 4D 80 4E 80 81 00  03 C0 0F 01 5B 22 80 03  .]M.N.......["..
06F0: C0 0F 01 03 C0 0F 01 74  68 6B 30 2B 03 C0 0F 01  .......thk0+....
0700: 4F 80 23 52 48 80 F0 FF  FF 7F F0 FF FF 7F 61 6E  O.#RH.........an
0710: 30 34 45 48 80 F0 FF FF  7F F0 FF FF 7F 61 6E 30  04EH.........an0
0720: 35 08 80 2B 03 C0 0F 01  50 80 23 2B 03 C0 0F 01  5..+....P.#+....
0730: 51 80 23 81 01 03 C0 0F  01 5B 22 80 03 C0 0F 01  Q.#......[".....
0740: 03 C0 0F 01 74 68 6B 31  53 03 C0 0F 01 03 C0 0F  ....thk1S.......
0750: 01 74 68 6B 31 52 48 80  F0 FF FF 7F F0 FF FF 7F  .thk1RH.........
0760: 61 6E 30 35 45 48 80 F0  FF FF 7F F0 FF FF 7F 61  an05EH.........a
0770: 6E 30 36 08 80 2B 03 C0  0F 01 52 80 23 2B 03 C0  n06..+....R.#+..
0780: 0F 01 53 80 23 2B 03 C0  0F 01 54 80 23 5B 22 80  ..S.#+....T.#[".
0790: 03 C0 0F 01 03 C0 0F 01  74 6C 6B 30 2B 03 C0 0F  ........tlk0+...
07A0: 01 55 80 23 2B 03 C0 0F  01 56 80 23 5D 08 80 4E  .U.#+....V.#]..N
07B0: 80 5B 22 80 03 C0 0F 01  03 C0 0F 01 74 6C 6B 31  .[".........tlk1
07C0: 53 03 C0 0F 01 03 C0 0F  01 74 6C 6B 31 45 48 80  S........tlk1EH.
07D0: F0 FF FF 7F F0 FF FF 7F  61 6E 30 37 08 80 1C 57  ........an07...W
07E0: 80 79 00 03 C0 0F 01 10  C0 0F 01 1C 14 80 79 00  .y............y.
07F0: 10 C0 0F 01 03 C0 0F 01  2B 03 C0 0F 01 58 80 23  ........+....X.#
0800: 1D 59 80 23 79 00 03 C0  0F 01 F0 FF FF 7F 79 00  .Y.#y.........y.
0810: 10 C0 0F 01 F0 FF FF 7F  1A FB 18 52 48 80 F0 FF  ...........RH...
0820: FF 7F F0 FF FF 7F 61 6E  30 37 45 48 80 F0 FF FF  ......an07EH....
0830: 7F F0 FF FF 7F 61 6E 30  38 08 80 79 00 F0 FF FF  .....an08..y....
0840: 7F 10 C0 0F 01 1D 5A 80  23 1D 5B 80 23 1D 5C 80  ......Z.#.[.#.\.
0850: 23 52 48 80 F0 FF FF 7F  F0 FF FF 7F 61 6E 30 38  #RH.........an08
0860: 45 48 80 F0 FF FF 7F F0  FF FF 7F 61 6E 30 33 08  EH.........an03.
0870: 80 5E 69 64 6C 30 79 00  F0 FF FF 7F 03 C0 0F 01  .^idl0y.........
0880: 5B 22 80 03 C0 0F 01 03  C0 0F 01 74 6C 6B 30 2B  [".........tlk0+
0890: 03 C0 0F 01 5D 80 23 2B  03 C0 0F 01 5E 80 23 5B  ....].#+....^.#[
08A0: 22 80 03 C0 0F 01 03 C0  0F 01 74 6C 6B 31 5D 08  ".........tlk1].
08B0: 80 5F 80 1C 1E 80 1A 8F  16 1C 57 80 53 03 C0 0F  ._........W.S...
08C0: 01 03 C0 0F 01 74 6C 6B  31 5C 00 60 80 5C 01 60  .....tlk1\.`.\.`
08D0: 80 5C 02 60 80 5C 03 60  80 9A 5D 61 80 4E 80 46  .\.`.\.`..]a.N.F
08E0: 00 45 19 80 F0 FF FF 7F  F0 FF FF 7F 66 64 69 32  .E..........fdi2
08F0: 08 80 21 00                                       ..!.            
```

#### Opcodes

```
  0: 0x05CB [0x02] IF !(Work_Zone[8] == 1*) GOTO 0x05D4
  1: 0x05D3 [0x42] SET_CLI_EVENT_CANCEL_DATA()
  2: 0x05D4 [0x1A] CALL_SUBROUTINE(address=0x18BD)
  3: 0x05D7 [0x03] Work_Zone[2] = 17809*
  4: 0x05DC [0x03] Work_Zone[3] = 462*
  5: 0x05E1 [0x02] IF !(Work_Zone[9] == 1*) GOTO 0x05F0
  6: 0x05E9 [0x1D] PRINT_EVENT_MESSAGE(message_id=10734*)
    → "So, you've decided to help!"
  7: 0x05EC [0x23] WAIT_FOR_DIALOG_INTERACTION
  8: 0x05ED [0x01] GOTO 0x0600
  9: 0x05F0 [0x1A] CALL_SUBROUTINE(address=0x18FB)
 10: 0x05F3 [0x1D] PRINT_EVENT_MESSAGE(message_id=10661*)
    → "Ah, you're back! And just in time, I might say. The date of the ritual is approaching fast."
 11: 0x05F6 [0x23] WAIT_FOR_DIALOG_INTERACTION
 12: 0x05F7 [0x1D] PRINT_EVENT_MESSAGE(message_id=10662*)
    → "For this next assignment, Gilgamesh specifically requested the assistance of the previous owner of the $0."
 13: 0x05FA [0x23] WAIT_FOR_DIALOG_INTERACTION
 14: 0x05FB [0x5E] EventEntity goes idle (kills current action) (animation: "idl0")

SUBROUTINE_0600:
 15: 0x0600 [0x24] CREATE_DIALOG(message_id=10190*, default_option=1*, option_flags=0*)
    → "Listen to Jaucribaix's request? [Yes./No.]"
 16: 0x0607 [0x25] WAIT_DIALOG_SELECT()
 17: 0x0608 [0x02] IF !(Work_Zone[0] == 1*) GOTO 0x065E
 18: 0x0610 [0x66] LOAD_EXT_SCHEDULER_MAIN: Load scheduler "thk1" with entities [EventEntity, EventEntity], work=20*
 19: 0x061F [0x1D] PRINT_EVENT_MESSAGE(message_id=10663*)
    → "That is unfortunate, but there still is time. Please reconsider your decision."
 20: 0x0622 [0x23] WAIT_FOR_DIALOG_INTERACTION
 21: 0x0623 [0x66] LOAD_EXT_SCHEDULER_MAIN: Load scheduler "thk2" with entities [EventEntity, EventEntity], work=20*
 22: 0x0632 [0x53] WAIT_SCHEDULER_TASK: Wait for scheduler "thk2" with entities [EventEntity, EventEntity]
 23: 0x063F [0x02] IF !(Work_Zone[8] == 1*) GOTO 0x0658
 24: 0x0647 [0x45] LOAD_SCHEDULED_TASK: Load scheduler "fdi2" with entities [LocalPlayer, LocalPlayer], work=[200*, 0*]
 25: 0x0658 [0x01] GOTO 0x08F2

SUBROUTINE_065E:
 26: 0x065E [0x42] SET_CLI_EVENT_CANCEL_DATA()
 27: 0x065F [0x03] Work_Zone[1] = 1*
 28: 0x0664 [0x1D] PRINT_EVENT_MESSAGE(message_id=10664*)
    → "Excellent. Now let me show you into Gilgamesh's quarters."
 29: 0x0667 [0x23] WAIT_FOR_DIALOG_INTERACTION
 30: 0x0668 [0x1A] CALL_SUBROUTINE(address=0x140E)
 31: 0x066B [0x45] LOAD_SCHEDULED_TASK: Load scheduler "an03" with entities [LocalPlayer, LocalPlayer], work=[216*, 0*]
 32: 0x067C [0x5B] LOAD_EXT_SCHEDULER: Load scheduler "tlk0" with entities [Gilgamesh (ID: 17809411/0x010FC003), Gilgamesh (ID: 17809411/0x010FC003)], work=566*
 33: 0x068B [0x2B] Gilgamesh (ID: 17809411/0x010FC003) [10665*]:
    → "Arrrg, if it isn't me matey, <Player>. We be mighty grateful fer yer help 'n this one."
 34: 0x0692 [0x23] WAIT_FOR_DIALOG_INTERACTION
 35: 0x0693 [0x2B] Gilgamesh (ID: 17809411/0x010FC003) [10666*]:
    → "I'm sure Jauc's already told ya 'bout the upcomin' ritual we be holdin'. We call it "Yomi Okuri." In Far Eastern legend, Yomi is the name of the place where the spirits of the dead roam."
 36: 0x069A [0x23] WAIT_FOR_DIALOG_INTERACTION
 37: 0x069B [0x5B] LOAD_EXT_SCHEDULER: Load scheduler "tlk1" with entities [Gilgamesh (ID: 17809411/0x010FC003), Gilgamesh (ID: 17809411/0x010FC003)], work=566*
 38: 0x06AA [0x45] LOAD_SCHEDULED_TASK: Load scheduler "an04" with entities [LocalPlayer, LocalPlayer], work=[216*, 0*]
 39: 0x06BB [0x2B] Gilgamesh (ID: 17809411/0x010FC003) [10667*]:
    → "Let me explain..."
 40: 0x06C2 [0x23] WAIT_FOR_DIALOG_INTERACTION
 41: 0x06C3 [0x53] WAIT_SCHEDULER_TASK: Wait for scheduler "tlk1" with entities [Gilgamesh (ID: 17809411/0x010FC003), Gilgamesh (ID: 17809411/0x010FC003)]
 42: 0x06D0 [0x5C] MUSIC_CONTROL: Set Idle (Day) music to song 122*
 43: 0x06D4 [0x5C] MUSIC_CONTROL: Set Idle (Night) music to song 122*
 44: 0x06D8 [0x5C] MUSIC_CONTROL: Set Combat (Solo) music to song 122*
 45: 0x06DC [0x5C] MUSIC_CONTROL: Set Combat (Party) music to song 122*
 46: 0x06E0 [0x9A] WAIT_MUSIC_SERVER()
 47: 0x06E1 [0x5D] SET_MUSIC_VOLUME(volume=96*, fade_time=120*)
 48: 0x06E6 [0x81] SET_ENTITY_BLINKING(blink_flag=0x00, entity=Gilgamesh (ID: 17809411/0x010FC003))
 49: 0x06EC [0x5B] LOAD_EXT_SCHEDULER: Load scheduler "thk0" with entities [Gilgamesh (ID: 17809411/0x010FC003), Gilgamesh (ID: 17809411/0x010FC003)], work=566*
 50: 0x06FB [0x2B] Gilgamesh (ID: 17809411/0x010FC003) [10668*]:
    → "Twenty years ago, before the fall of Castle Zvahl and the Shadow Lord, a small country was wiped off the face of Vana'diel by those bloodthirsty beastmen."
 51: 0x0702 [0x23] WAIT_FOR_DIALOG_INTERACTION
 52: 0x0703 [0x52] END_LOAD_SCHEDULER: End scheduler "an04" with entities [LocalPlayer, LocalPlayer], work=216*
 53: 0x0712 [0x45] LOAD_SCHEDULED_TASK: Load scheduler "an05" with entities [LocalPlayer, LocalPlayer], work=[216*, 0*]
 54: 0x0723 [0x2B] Gilgamesh (ID: 17809411/0x010FC003) [10669*]:
    → "That country was known as the Marquisate of Tavnazia. The flag we raise here in Norg be the flag of that lost nation."
 55: 0x072A [0x23] WAIT_FOR_DIALOG_INTERACTION
 56: 0x072B [0x2B] Gilgamesh (ID: 17809411/0x010FC003) [10670*]:
    → "It was a gruesome battle. Citizens of Tavnazia, soldiers from the three nations... Nearly all were slaughtered in a matter of hours."
 57: 0x0732 [0x23] WAIT_FOR_DIALOG_INTERACTION
 58: 0x0733 [0x81] SET_ENTITY_BLINKING(blink_flag=0x01, entity=Gilgamesh (ID: 17809411/0x010FC003))
 59: 0x0739 [0x5B] LOAD_EXT_SCHEDULER: Load scheduler "thk1" with entities [Gilgamesh (ID: 17809411/0x010FC003), Gilgamesh (ID: 17809411/0x010FC003)], work=566*
 60: 0x0748 [0x53] WAIT_SCHEDULER_TASK: Wait for scheduler "thk1" with entities [Gilgamesh (ID: 17809411/0x010FC003), Gilgamesh (ID: 17809411/0x010FC003)]
 61: 0x0755 [0x52] END_LOAD_SCHEDULER: End scheduler "an05" with entities [LocalPlayer, LocalPlayer], work=216*
 62: 0x0764 [0x45] LOAD_SCHEDULED_TASK: Load scheduler "an06" with entities [LocalPlayer, LocalPlayer], work=[216*, 0*]
 63: 0x0775 [0x2B] Gilgamesh (ID: 17809411/0x010FC003) [10671*]:
    → "I, too, saw the apocalypse that happened the day Tavnazia fell. When 'twas all over, the handful of us that remained escaped on a tiny ship."
 64: 0x077C [0x23] WAIT_FOR_DIALOG_INTERACTION
 65: 0x077D [0x2B] Gilgamesh (ID: 17809411/0x010FC003) [10672*]:
    → "But most of me mateys were already in bad shape and didn't survive the long journey home. Only a few of us made it back to Valkurm alive."
 66: 0x0784 [0x23] WAIT_FOR_DIALOG_INTERACTION
 67: 0x0785 [0x2B] Gilgamesh (ID: 17809411/0x010FC003) [10673*]:
    → "When we arrived at the dunes, we found that there were others that had tried escapin', but failed...the wreckage of their ships scattered 'bout the beaches."
 68: 0x078C [0x23] WAIT_FOR_DIALOG_INTERACTION
 69: 0x078D [0x5B] LOAD_EXT_SCHEDULER: Load scheduler "tlk0" with entities [Gilgamesh (ID: 17809411/0x010FC003), Gilgamesh (ID: 17809411/0x010FC003)], work=566*
 70: 0x079C [0x2B] Gilgamesh (ID: 17809411/0x010FC003) [10674*]:
    → "Those who could still move used what remained of their energy to dig simple graves for those that had passed. But this would not be enough to appease the troubled souls that lingered in those sands."
 71: 0x07A3 [0x23] WAIT_FOR_DIALOG_INTERACTION
 72: 0x07A4 [0x2B] Gilgamesh (ID: 17809411/0x010FC003) [10675*]:
    → "Without a guidin' hand, the souls remain in this world, gettin' angrier an' angrier. The Yomi Okuri ritual is held to show these lost spirits the way t'their proper place of restin'."
 73: 0x07AB [0x23] WAIT_FOR_DIALOG_INTERACTION
 74: 0x07AC [0x5D] SET_MUSIC_VOLUME(volume=0*, fade_time=120*)
 75: 0x07B1 [0x5B] LOAD_EXT_SCHEDULER: Load scheduler "tlk1" with entities [Gilgamesh (ID: 17809411/0x010FC003), Gilgamesh (ID: 17809411/0x010FC003)], work=566*
 76: 0x07C0 [0x53] WAIT_SCHEDULER_TASK: Wait for scheduler "tlk1" with entities [Gilgamesh (ID: 17809411/0x010FC003), Gilgamesh (ID: 17809411/0x010FC003)]
 77: 0x07CD [0x45] LOAD_SCHEDULED_TASK: Load scheduler "an07" with entities [LocalPlayer, LocalPlayer], work=[216*, 0*]
 78: 0x07DE [0x1C] WAIT(15* ticks)
 79: 0x07E1 [0x79] Gilgamesh (ID: 17809411/0x010FC003) looks at Jaucribaix (ID: 17809424/0x010FC010) (Basic look)
 80: 0x07EB [0x1C] WAIT(45* ticks)
 81: 0x07EE [0x79] Jaucribaix (ID: 17809424/0x010FC010) looks at Gilgamesh (ID: 17809411/0x010FC003) (Basic look)
 82: 0x07F8 [0x2B] Gilgamesh (ID: 17809411/0x010FC003) [10676*]:
    → "Jauc, you take it from here."
 83: 0x07FF [0x23] WAIT_FOR_DIALOG_INTERACTION
 84: 0x0800 [0x1D] PRINT_EVENT_MESSAGE(message_id=10677*)
    → "Yes, sir."
 85: 0x0803 [0x23] WAIT_FOR_DIALOG_INTERACTION
 86: 0x0804 [0x79] Gilgamesh (ID: 17809411/0x010FC003) looks at LocalPlayer (Basic look)
 87: 0x080E [0x79] Jaucribaix (ID: 17809424/0x010FC010) looks at LocalPlayer (Basic look)
 88: 0x0818 [0x1A] CALL_SUBROUTINE(address=0x18FB)
 89: 0x081B [0x52] END_LOAD_SCHEDULER: End scheduler "an07" with entities [LocalPlayer, LocalPlayer], work=216*
 90: 0x082A [0x45] LOAD_SCHEDULED_TASK: Load scheduler "an08" with entities [LocalPlayer, LocalPlayer], work=[216*, 0*]
 91: 0x083B [0x79] LocalPlayer looks at Jaucribaix (ID: 17809424/0x010FC010) (Basic look)
 92: 0x0845 [0x1D] PRINT_EVENT_MESSAGE(message_id=10678*)
    → "For the Yomi Okuri to be properly carried out, a sacred katana must be made. Your $0 has already been used to forge the blade of the katana. However, we are still one step away from completion."
 93: 0x0848 [0x23] WAIT_FOR_DIALOG_INTERACTION
 94: 0x0849 [0x1D] PRINT_EVENT_MESSAGE(message_id=10679*)
    → "Somewhere on the mainlands is a place called the Labyrinth of Onzozo. In those caves lurks a mammoth bird. To complete the sacred katana, I require $6 from that beast."
 95: 0x084C [0x23] WAIT_FOR_DIALOG_INTERACTION
 96: 0x084D [0x1D] PRINT_EVENT_MESSAGE(message_id=10680*)
    → "However, this bird rarely ever sets forth from its nest. It must be lured out with a special kind of bait."
 97: 0x0850 [0x23] WAIT_FOR_DIALOG_INTERACTION
 98: 0x0851 [0x52] END_LOAD_SCHEDULER: End scheduler "an08" with entities [LocalPlayer, LocalPlayer], work=216*
 99: 0x0860 [0x45] LOAD_SCHEDULED_TASK: Load scheduler "an03" with entities [LocalPlayer, LocalPlayer], work=[216*, 0*]
100: 0x0871 [0x5E] EventEntity goes idle (kills current action) (animation: "idl0")
101: 0x0876 [0x79] LocalPlayer looks at Gilgamesh (ID: 17809411/0x010FC003) (Basic look)
102: 0x0880 [0x5B] LOAD_EXT_SCHEDULER: Load scheduler "tlk0" with entities [Gilgamesh (ID: 17809411/0x010FC003), Gilgamesh (ID: 17809411/0x010FC003)], work=566*
103: 0x088F [0x2B] Gilgamesh (ID: 17809411/0x010FC003) [10681*]:
    → "An' the only one of me mates that can brew a bait fine enough to make that pecker show its beak would be our head cook, Washu. Get some from her before ya leave."
104: 0x0896 [0x23] WAIT_FOR_DIALOG_INTERACTION
105: 0x0897 [0x2B] Gilgamesh (ID: 17809411/0x010FC003) [10682*]:
    → "Oh, an' watch yer back in those caves. They be crawlin' with all sorts of terrible beasts. Get it, grab the $3, and be outta there quick, if ya know what's good fer ya."
106: 0x089E [0x23] WAIT_FOR_DIALOG_INTERACTION
107: 0x089F [0x5B] LOAD_EXT_SCHEDULER: Load scheduler "tlk1" with entities [Gilgamesh (ID: 17809411/0x010FC003), Gilgamesh (ID: 17809411/0x010FC003)], work=566*
108: 0x08AE [0x5D] SET_MUSIC_VOLUME(volume=0*, fade_time=60*)
109: 0x08B3 [0x1C] WAIT(30* ticks)
110: 0x08B6 [0x1A] CALL_SUBROUTINE(address=0x168F)
111: 0x08B9 [0x1C] WAIT(15* ticks)
112: 0x08BC [0x53] WAIT_SCHEDULER_TASK: Wait for scheduler "tlk1" with entities [Gilgamesh (ID: 17809411/0x010FC003), Gilgamesh (ID: 17809411/0x010FC003)]
113: 0x08C9 [0x5C] MUSIC_CONTROL: Set Idle (Day) music to song 209*
114: 0x08CD [0x5C] MUSIC_CONTROL: Set Idle (Night) music to song 209*
115: 0x08D1 [0x5C] MUSIC_CONTROL: Set Combat (Solo) music to song 209*
116: 0x08D5 [0x5C] MUSIC_CONTROL: Set Combat (Party) music to song 209*
117: 0x08D9 [0x9A] WAIT_MUSIC_SERVER()
118: 0x08DA [0x5D] SET_MUSIC_VOLUME(volume=127*, fade_time=120*)
119: 0x08DF [0x46] CAMERA_CONTROL: Restore default settings
120: 0x08E1 [0x45] LOAD_SCHEDULED_TASK: Load scheduler "fdi2" with entities [LocalPlayer, LocalPlayer], work=[200*, 0*]

SUBROUTINE_08F2:
121: 0x08F2 [0x21] END_EVENT
122: 0x08F3 [0x00] END_REQSTACK()
```

#### Data or dead code:

```
# Dead code (unreachable instructions):
     0x065B [0x01] GOTO 0x065E
```

### Event 147

#### Metadata

| Field        | Value    |
|--------------|----------|
| Entrypoint   | 0x08F4   |
| Data Size    | 17 bytes |
| Instructions | 7        |

```
      00 01 02 03 04 05 06 07  08 09 0A 0B 0C 0D 0E 0F
      -- -- -- -- -- -- -- --  -- -- -- -- -- -- -- --
08F0:             1A BD 18 1A  FB 18 03 02 10 43 80 1D      .........C..
0900: 62 80 23 21 00                                    b.#!.           
```

#### Opcodes

```
  0: 0x08F4 [0x1A] CALL_SUBROUTINE(address=0x18BD)
  1: 0x08F7 [0x1A] CALL_SUBROUTINE(address=0x18FB)
  2: 0x08FA [0x03] Work_Zone[2] = 462*
  3: 0x08FF [0x1D] PRINT_EVENT_MESSAGE(message_id=10683*)
    → "Do not forget to obtain some of Washu's tasty wurst before you set off for the Labyrinth of Onzozo. You will need it to lure the giant bird out of its lair."
  4: 0x0902 [0x23] WAIT_FOR_DIALOG_INTERACTION
  5: 0x0903 [0x21] END_EVENT
  6: 0x0904 [0x00] END_REQSTACK()
```

### Event 152

#### Metadata

| Field        | Value    |
|--------------|----------|
| Entrypoint   | 0x0905   |
| Data Size    | 15 bytes |
| Instructions | 7        |

```
      00 01 02 03 04 05 06 07  08 09 0A 0B 0C 0D 0E 0F
      -- -- -- -- -- -- -- --  -- -- -- -- -- -- -- --
0900:                42 1A BD  18 03 02 10 43 80 1D 63       B......C..c
0910: 80 23 21 00                                       .#!.            
```

#### Opcodes

```
  0: 0x0905 [0x42] SET_CLI_EVENT_CANCEL_DATA()
  1: 0x0906 [0x1A] CALL_SUBROUTINE(address=0x18BD)
  2: 0x0909 [0x03] Work_Zone[2] = 462*
  3: 0x090E [0x1D] PRINT_EVENT_MESSAGE(message_id=10684*)
    → "Yes, this $3 is exactly what I need to complete the sacred katana. Now all I require is time..."
  4: 0x0911 [0x23] WAIT_FOR_DIALOG_INTERACTION
  5: 0x0912 [0x21] END_EVENT
  6: 0x0913 [0x00] END_REQSTACK()
```

### Event 153

#### Metadata

| Field        | Value   |
|--------------|---------|
| Entrypoint   | 0x0914  |
| Data Size    | 9 bytes |
| Instructions | 5       |

```
      00 01 02 03 04 05 06 07  08 09 0A 0B 0C 0D 0E 0F
      -- -- -- -- -- -- -- --  -- -- -- -- -- -- -- --
0910:             1A BD 18 1D  64 80 23 21 00               ....d.#!.   
```

#### Opcodes

```
  0: 0x0914 [0x1A] CALL_SUBROUTINE(address=0x18BD)
  1: 0x0917 [0x1D] PRINT_EVENT_MESSAGE(message_id=10685*)
    → "Do not rush me! This job requires extreme concentration. Think of the consequences if I were to hurry through my work!"
  2: 0x091A [0x23] WAIT_FOR_DIALOG_INTERACTION
  3: 0x091B [0x21] END_EVENT
  4: 0x091C [0x00] END_REQSTACK()
```

### Event 154

#### Metadata

| Field        | Value    |
|--------------|----------|
| Entrypoint   | 0x091D   |
| Data Size    | 50 bytes |
| Instructions | 12       |

```
      00 01 02 03 04 05 06 07  08 09 0A 0B 0C 0D 0E 0F
      -- -- -- -- -- -- -- --  -- -- -- -- -- -- -- --
0910:                                         42 1A BD               B..
0920: 18 1A FB 18 03 02 10 65  80 1D 66 80 23 66 03 80  .......e..f.#f..
0930: F8 FF FF 7F F8 FF FF 7F  70 61 73 30 1D 67 80 23  ........pas0.g.#
0940: 53 F8 FF FF 7F F8 FF FF  7F 70 61 73 30 21 00     S........pas0!. 
```

#### Opcodes

```
  0: 0x091D [0x42] SET_CLI_EVENT_CANCEL_DATA()
  1: 0x091E [0x1A] CALL_SUBROUTINE(address=0x18BD)
  2: 0x0921 [0x1A] CALL_SUBROUTINE(address=0x18FB)
  3: 0x0924 [0x03] Work_Zone[2] = 463*
  4: 0x0929 [0x1D] PRINT_EVENT_MESSAGE(message_id=10686*)
    → "3... That is the name I bestow upon this sacred katana. Now, all that remains is for you to take the blade to Valkurm and complete the ritual."
  5: 0x092C [0x23] WAIT_FOR_DIALOG_INTERACTION
  6: 0x092D [0x66] LOAD_EXT_SCHEDULER_MAIN: Load scheduler "pas0" with entities [EventEntity, EventEntity], work=20*
  7: 0x093C [0x1D] PRINT_EVENT_MESSAGE(message_id=10687*)
    → "It is during this time beyond dusk that you must thrust $3 into the secluded beach that lies on the other side of the far western caves in the Valkurm Dunes. Only then will the spirits be set free."
  8: 0x093F [0x23] WAIT_FOR_DIALOG_INTERACTION
  9: 0x0940 [0x53] WAIT_SCHEDULER_TASK: Wait for scheduler "pas0" with entities [EventEntity, EventEntity]
 10: 0x094D [0x21] END_EVENT
 11: 0x094E [0x00] END_REQSTACK()
```

### Event 155

#### Metadata

| Field        | Value    |
|--------------|----------|
| Entrypoint   | 0x094F   |
| Data Size    | 21 bytes |
| Instructions | 9        |

```
      00 01 02 03 04 05 06 07  08 09 0A 0B 0C 0D 0E 0F
      -- -- -- -- -- -- -- --  -- -- -- -- -- -- -- --
0940:                                               1A                 .
0950: BD 18 1A FB 18 03 02 10  65 80 1D 68 80 23 1D 67  ........e..h.#.g
0960: 80 23 21 00                                       .#!.            
```

#### Opcodes

```
  0: 0x094F [0x1A] CALL_SUBROUTINE(address=0x18BD)
  1: 0x0952 [0x1A] CALL_SUBROUTINE(address=0x18FB)
  2: 0x0955 [0x03] Work_Zone[2] = 463*
  3: 0x095A [0x1D] PRINT_EVENT_MESSAGE(message_id=10688*)
    → "From the hour in which the sands are ruled by darkness until they once again are graced by light..."
  4: 0x095D [0x23] WAIT_FOR_DIALOG_INTERACTION
  5: 0x095E [0x1D] PRINT_EVENT_MESSAGE(message_id=10687*)
    → "It is during this time beyond dusk that you must thrust $3 into the secluded beach that lies on the other side of the far western caves in the Valkurm Dunes. Only then will the spirits be set free."
  6: 0x0961 [0x23] WAIT_FOR_DIALOG_INTERACTION
  7: 0x0962 [0x21] END_EVENT
  8: 0x0963 [0x00] END_REQSTACK()
```

### Event 156

#### Metadata

| Field        | Value     |
|--------------|-----------|
| Entrypoint   | 0x0964    |
| Data Size    | 156 bytes |
| Instructions | 24        |

```
      00 01 02 03 04 05 06 07  08 09 0A 0B 0C 0D 0E 0F
      -- -- -- -- -- -- -- --  -- -- -- -- -- -- -- --
0960:             42 1A 8F 16  46 01 38 17 80 29 10 F0      B...F.8..)..
0970: FF FF 7F 18 80 F0 FF FF  7F 1C 01 80 45 18 80 F0  ............E...
0980: FF FF 7F F0 FF FF 7F 73  6D 30 31 08 80 45 19 80  .......sm01..E..
0990: F0 FF FF 7F F0 FF FF 7F  66 64 69 32 08 80 1A BD  ........fdi2....
09A0: 18 1D 69 80 23 66 03 80  F8 FF FF 7F F8 FF FF 7F  ..i.#f..........
09B0: 70 61 73 30 1D 6A 80 23  53 F8 FF FF 7F F8 FF FF  pas0.j.#S.......
09C0: 7F 70 61 73 30 1A 8F 16  1C 1E 80 52 18 80 F0 FF  .pas0......R....
09D0: FF 7F F0 FF FF 7F 73 6D  30 31 46 00 45 19 80 F0  ......sm01F.E...
09E0: FF FF 7F F0 FF FF 7F 66  64 69 32 08 80 45 2A 80  .......fdi2..E*.
09F0: F0 FF FF 7F F0 FF FF 7F  71 73 74 63 08 80 21 00  ........qstc..!.
```

#### Opcodes

```
  0: 0x0964 [0x42] SET_CLI_EVENT_CANCEL_DATA()
  1: 0x0965 [0x1A] CALL_SUBROUTINE(address=0x168F)
  2: 0x0968 [0x46] CAMERA_CONTROL: Disable user control
  3: 0x096A [0x38] SET_CLIENT_EVENT_MODE(mode=19*)
  4: 0x096D [0x29] REQ_SET_WAIT(priority=0x10, entity_id=LocalPlayer, tag_num=0x18)
  5: 0x0974 [0x80] LOAD_WAIT(entity=LocalPlayer)
  6: 0x0979 [0x1C] WAIT(1* ticks)
  7: 0x097C [0x45] LOAD_SCHEDULED_TASK: Load scheduler "sm01" with entities [LocalPlayer, LocalPlayer], work=[233*, 0*]
  8: 0x098D [0x45] LOAD_SCHEDULED_TASK: Load scheduler "fdi2" with entities [LocalPlayer, LocalPlayer], work=[200*, 0*]
  9: 0x099E [0x1A] CALL_SUBROUTINE(address=0x18BD)
 10: 0x09A1 [0x1D] PRINT_EVENT_MESSAGE(message_id=10689*)
    → "Welcome back, <Player>. The new form that blade has taken is the proof that you were successful in your mission. I applaud you on your bravery."
 11: 0x09A4 [0x23] WAIT_FOR_DIALOG_INTERACTION
 12: 0x09A5 [0x66] LOAD_EXT_SCHEDULER_MAIN: Load scheduler "pas0" with entities [EventEntity, EventEntity], work=20*
 13: 0x09B4 [0x1D] PRINT_EVENT_MESSAGE(message_id=10690*)
    → "Gilgamesh has asked me to present you with this as a token of our appreciation. Wear it with pride and let it guide you on your path in life."
 14: 0x09B7 [0x23] WAIT_FOR_DIALOG_INTERACTION
 15: 0x09B8 [0x53] WAIT_SCHEDULER_TASK: Wait for scheduler "pas0" with entities [EventEntity, EventEntity]
 16: 0x09C5 [0x1A] CALL_SUBROUTINE(address=0x168F)
 17: 0x09C8 [0x1C] WAIT(30* ticks)
 18: 0x09CB [0x52] END_LOAD_SCHEDULER: End scheduler "sm01" with entities [LocalPlayer, LocalPlayer], work=233*
 19: 0x09DA [0x46] CAMERA_CONTROL: Restore default settings
 20: 0x09DC [0x45] LOAD_SCHEDULED_TASK: Load scheduler "fdi2" with entities [LocalPlayer, LocalPlayer], work=[200*, 0*]
 21: 0x09ED [0x45] LOAD_SCHEDULED_TASK: Load scheduler "qstc" with entities [LocalPlayer, LocalPlayer], work=[201*, 0*]
 22: 0x09FE [0x21] END_EVENT
 23: 0x09FF [0x00] END_REQSTACK()
```

### Event 157

#### Metadata

| Field        | Value    |
|--------------|----------|
| Entrypoint   | 0x0A00   |
| Data Size    | 56 bytes |
| Instructions | 10       |

```
      00 01 02 03 04 05 06 07  08 09 0A 0B 0C 0D 0E 0F
      -- -- -- -- -- -- -- --  -- -- -- -- -- -- -- --
0A00: 1A BD 18 66 03 80 F8 FF  FF 7F F8 FF FF 7F 74 68  ...f..........th
0A10: 6B 31 1D 6B 80 23 66 03  80 F8 FF FF 7F F8 FF FF  k1.k.#f.........
0A20: 7F 74 68 6B 32 1D 6C 80  23 53 F8 FF FF 7F F8 FF  .thk2.l.#S......
0A30: FF 7F 74 68 6B 32 21 00                           ..thk2!.        
```

#### Opcodes

```
  0: 0x0A00 [0x1A] CALL_SUBROUTINE(address=0x18BD)
  1: 0x0A03 [0x66] LOAD_EXT_SCHEDULER_MAIN: Load scheduler "thk1" with entities [EventEntity, EventEntity], work=20*
  2: 0x0A12 [0x1D] PRINT_EVENT_MESSAGE(message_id=10691*)
    → "Norg has many ties with the lost nation of Tavnazia, and many people here still think of it as their homeland. The battle fought twenty years ago took the lives of many of our brothers, but the sacrifices that they made have not been in vain."
  3: 0x0A15 [0x23] WAIT_FOR_DIALOG_INTERACTION
  4: 0x0A16 [0x66] LOAD_EXT_SCHEDULER_MAIN: Load scheduler "thk2" with entities [EventEntity, EventEntity], work=20*
  5: 0x0A25 [0x1D] PRINT_EVENT_MESSAGE(message_id=10692*)
    → "That day, something in Gilgamesh changed. He transformed from a simple soldier to a great leader who would bring us together and create the Norg of today."
  6: 0x0A28 [0x23] WAIT_FOR_DIALOG_INTERACTION
  7: 0x0A29 [0x53] WAIT_SCHEDULER_TASK: Wait for scheduler "thk2" with entities [EventEntity, EventEntity]
  8: 0x0A36 [0x21] END_EVENT
  9: 0x0A37 [0x00] END_REQSTACK()
```

### Event 158

#### Metadata

| Field        | Value     |
|--------------|-----------|
| Entrypoint   | 0x0A38    |
| Data Size    | 616 bytes |
| Instructions | 86        |

```
      00 01 02 03 04 05 06 07  08 09 0A 0B 0C 0D 0E 0F
      -- -- -- -- -- -- -- --  -- -- -- -- -- -- -- --
0A30:                          02 08 10 01 80 00 41 0A          ......A.
0A40: 42 1A BD 18 03 02 10 6D  80 66 03 80 F8 FF FF 7F  B......m.f......
0A50: F8 FF FF 7F 74 68 6B 31  02 09 10 01 80 00 67 0A  ....thk1......g.
0A60: 1D 6E 80 23 01 6B 0A 1D  6F 80 23 24 07 80 01 80  .n.#.k..o.#$....
0A70: 08 80 25 02 00 10 01 80  00 BA 0A 1D 70 80 23 66  ..%.........p.#f
0A80: 03 80 F8 FF FF 7F F8 FF  FF 7F 74 68 6B 32 53 F8  ..........thk2S.
0A90: FF FF 7F F8 FF FF 7F 74  68 6B 32 02 08 10 01 80  .......thk2.....
0AA0: 00 B4 0A 45 19 80 F0 FF  FF 7F F0 FF FF 7F 66 64  ...E..........fd
0AB0: 69 32 08 80 01 9E 0C 01  BA 0A 42 03 01 10 01 80  i2........B.....
0AC0: 66 03 80 F8 FF FF 7F F8  FF FF 7F 74 68 6B 32 53  f..........thk2S
0AD0: F8 FF FF 7F F8 FF FF 7F  74 68 6B 32 1A FB 18 1D  ........thk2....
0AE0: 71 80 23 5E 69 64 6C 30  5C 00 61 80 5C 01 61 80  q.#^idl0\.a.\.a.
0AF0: 5C 02 61 80 5C 03 61 80  5D 4D 80 4E 80 1A 0E 14  \.a.\.a.]M.N....
0B00: 45 48 80 F0 FF FF 7F F0  FF FF 7F 61 6E 30 33 08  EH.........an03.
0B10: 80 2B 03 C0 0F 01 72 80  23 45 48 80 F0 FF FF 7F  .+....r.#EH.....
0B20: F0 FF FF 7F 61 6E 30 39  08 80 5B 22 80 03 C0 0F  ....an09..["....
0B30: 01 03 C0 0F 01 66 74 6B  30 2B 03 C0 0F 01 73 80  .....ftk0+....s.
0B40: 23 2B 03 C0 0F 01 74 80  23 5B 22 80 03 C0 0F 01  #+....t.#[".....
0B50: 03 C0 0F 01 66 74 6B 31  53 03 C0 0F 01 03 C0 0F  ....ftk1S.......
0B60: 01 66 74 6B 31 2B 03 C0  0F 01 75 80 23 52 48 80  .ftk1+....u.#RH.
0B70: F0 FF FF 7F F0 FF FF 7F  61 6E 30 39 5B 22 80 03  ........an09["..
0B80: C0 0F 01 03 C0 0F 01 74  68 6B 30 45 48 80 F0 FF  .......thk0EH...
0B90: FF 7F F0 FF FF 7F 61 6E  31 30 08 80 2B 03 C0 0F  ......an10..+...
0BA0: 01 76 80 23 2B 03 C0 0F  01 77 80 23 5B 22 80 03  .v.#+....w.#["..
0BB0: C0 0F 01 03 C0 0F 01 74  68 6B 31 53 03 C0 0F 01  .......thk1S....
0BC0: 03 C0 0F 01 74 68 6B 31  52 48 80 F0 FF FF 7F F0  ....thk1RH......
0BD0: FF FF 7F 61 6E 31 30 45  48 80 F0 FF FF 7F F0 FF  ...an10EH.......
0BE0: FF 7F 61 6E 31 31 08 80  2B 03 C0 0F 01 78 80 23  ..an11..+....x.#
0BF0: 52 48 80 F0 FF FF 7F F0  FF FF 7F 61 6E 31 31 45  RH.........an11E
0C00: 48 80 F0 FF FF 7F F0 FF  FF 7F 61 6E 31 32 08 80  H.........an12..
0C10: 5B 22 80 03 C0 0F 01 03  C0 0F 01 79 62 74 30 2B  [".........ybt0+
0C20: 03 C0 0F 01 79 80 23 53  03 C0 0F 01 03 C0 0F 01  ....y.#S........
0C30: 79 62 74 30 5B 22 80 03  C0 0F 01 03 C0 0F 01 74  ybt0[".........t
0C40: 6C 6B 30 2B 03 C0 0F 01  7A 80 23 5B 22 80 03 C0  lk0+....z.#["...
0C50: 0F 01 03 C0 0F 01 74 6C  6B 31 5D 08 80 5F 80 1C  ......tlk1].._..
0C60: 1E 80 1A 8F 16 1C 57 80  53 03 C0 0F 01 03 C0 0F  ......W.S.......
0C70: 01 74 6C 6B 31 5C 00 60  80 5C 01 60 80 5C 02 60  .tlk1\.`.\.`.\.`
0C80: 80 5C 03 60 80 9A 5D 61  80 4E 80 46 00 45 19 80  .\.`..]a.N.F.E..
0C90: F0 FF FF 7F F0 FF FF 7F  66 64 69 32 08 80 21 00  ........fdi2..!.
```

#### Opcodes

```
  0: 0x0A38 [0x02] IF !(Work_Zone[8] == 1*) GOTO 0x0A41
  1: 0x0A40 [0x42] SET_CLI_EVENT_CANCEL_DATA()
  2: 0x0A41 [0x1A] CALL_SUBROUTINE(address=0x18BD)
  3: 0x0A44 [0x03] Work_Zone[2] = 13868*
  4: 0x0A49 [0x66] LOAD_EXT_SCHEDULER_MAIN: Load scheduler "thk1" with entities [EventEntity, EventEntity], work=20*
  5: 0x0A58 [0x02] IF !(Work_Zone[9] == 1*) GOTO 0x0A67
  6: 0x0A60 [0x1D] PRINT_EVENT_MESSAGE(message_id=10735*)
    → "So, you've finally decided to help."
  7: 0x0A63 [0x23] WAIT_FOR_DIALOG_INTERACTION
  8: 0x0A64 [0x01] GOTO 0x0A6B
  9: 0x0A67 [0x1D] PRINT_EVENT_MESSAGE(message_id=10702*)
    → "<Player>! Once again, trouble is brewing in Norg, and we require your services."
 10: 0x0A6A [0x23] WAIT_FOR_DIALOG_INTERACTION

SUBROUTINE_0A6B:
 11: 0x0A6B [0x24] CREATE_DIALOG(message_id=10190*, default_option=1*, option_flags=0*)
    → "Listen to Jaucribaix's request? [Yes./No.]"
 12: 0x0A72 [0x25] WAIT_DIALOG_SELECT()
 13: 0x0A73 [0x02] IF !(Work_Zone[0] == 1*) GOTO 0x0ABA
 14: 0x0A7B [0x1D] PRINT_EVENT_MESSAGE(message_id=10703*)
    → "I see. So you are busy... However, there is still time. I pray that you will return to us quickly."
 15: 0x0A7E [0x23] WAIT_FOR_DIALOG_INTERACTION
 16: 0x0A7F [0x66] LOAD_EXT_SCHEDULER_MAIN: Load scheduler "thk2" with entities [EventEntity, EventEntity], work=20*
 17: 0x0A8E [0x53] WAIT_SCHEDULER_TASK: Wait for scheduler "thk2" with entities [EventEntity, EventEntity]
 18: 0x0A9B [0x02] IF !(Work_Zone[8] == 1*) GOTO 0x0AB4
 19: 0x0AA3 [0x45] LOAD_SCHEDULED_TASK: Load scheduler "fdi2" with entities [LocalPlayer, LocalPlayer], work=[200*, 0*]
 20: 0x0AB4 [0x01] GOTO 0x0C9E

SUBROUTINE_0ABA:
 21: 0x0ABA [0x42] SET_CLI_EVENT_CANCEL_DATA()
 22: 0x0ABB [0x03] Work_Zone[1] = 1*
 23: 0x0AC0 [0x66] LOAD_EXT_SCHEDULER_MAIN: Load scheduler "thk2" with entities [EventEntity, EventEntity], work=20*
 24: 0x0ACF [0x53] WAIT_SCHEDULER_TASK: Wait for scheduler "thk2" with entities [EventEntity, EventEntity]
 25: 0x0ADC [0x1A] CALL_SUBROUTINE(address=0x18FB)
 26: 0x0ADF [0x1D] PRINT_EVENT_MESSAGE(message_id=10704*)
    → "Your gratitude is appreciated by all of us here in Norg. Now let us proceed to Gilgamesh's chambers."
 27: 0x0AE2 [0x23] WAIT_FOR_DIALOG_INTERACTION
 28: 0x0AE3 [0x5E] EventEntity goes idle (kills current action) (animation: "idl0")
 29: 0x0AE8 [0x5C] MUSIC_CONTROL: Set Idle (Day) music to song 127*
 30: 0x0AEC [0x5C] MUSIC_CONTROL: Set Idle (Night) music to song 127*
 31: 0x0AF0 [0x5C] MUSIC_CONTROL: Set Combat (Solo) music to song 127*
 32: 0x0AF4 [0x5C] MUSIC_CONTROL: Set Combat (Party) music to song 127*
 33: 0x0AF8 [0x5D] SET_MUSIC_VOLUME(volume=96*, fade_time=120*)
 34: 0x0AFD [0x1A] CALL_SUBROUTINE(address=0x140E)
 35: 0x0B00 [0x45] LOAD_SCHEDULED_TASK: Load scheduler "an03" with entities [LocalPlayer, LocalPlayer], work=[216*, 0*]
 36: 0x0B11 [0x2B] Gilgamesh (ID: 17809411/0x010FC003) [10705*]:
    → "Arrrg, welcome back, <Player>. Let me fill ya in on the predicament we've got ourselves into."
 37: 0x0B18 [0x23] WAIT_FOR_DIALOG_INTERACTION
 38: 0x0B19 [0x45] LOAD_SCHEDULED_TASK: Load scheduler "an09" with entities [LocalPlayer, LocalPlayer], work=[216*, 0*]
 39: 0x0B2A [0x5B] LOAD_EXT_SCHEDULER: Load scheduler "ftk0" with entities [Gilgamesh (ID: 17809411/0x010FC003), Gilgamesh (ID: 17809411/0x010FC003)], work=566*
 40: 0x0B39 [0x2B] Gilgamesh (ID: 17809411/0x010FC003) [10706*]:
    → "A thief's robbed us of one of our treasures. Me thinks it be another band o'pirates. I've got me men out on the trail of 'em now."
 41: 0x0B40 [0x23] WAIT_FOR_DIALOG_INTERACTION
 42: 0x0B41 [0x2B] Gilgamesh (ID: 17809411/0x010FC003) [10707*]:
    → "Ya may think that problems between pirates should be solved by pirates--and yer right. But this time, the situation's a wee bit more complicated."
 43: 0x0B48 [0x23] WAIT_FOR_DIALOG_INTERACTION
 44: 0x0B49 [0x5B] LOAD_EXT_SCHEDULER: Load scheduler "ftk1" with entities [Gilgamesh (ID: 17809411/0x010FC003), Gilgamesh (ID: 17809411/0x010FC003)], work=566*
 45: 0x0B58 [0x53] WAIT_SCHEDULER_TASK: Wait for scheduler "ftk1" with entities [Gilgamesh (ID: 17809411/0x010FC003), Gilgamesh (ID: 17809411/0x010FC003)]
 46: 0x0B65 [0x2B] Gilgamesh (ID: 17809411/0x010FC003) [10708*]:
    → "The item the thief stole was an ancient helmet left by me ancestors called $0. But this ain't no ordinary helmet."
 47: 0x0B6C [0x23] WAIT_FOR_DIALOG_INTERACTION
 48: 0x0B6D [0x52] END_LOAD_SCHEDULER: End scheduler "an09" with entities [LocalPlayer, LocalPlayer], work=216*
 49: 0x0B7C [0x5B] LOAD_EXT_SCHEDULER: Load scheduler "thk0" with entities [Gilgamesh (ID: 17809411/0x010FC003), Gilgamesh (ID: 17809411/0x010FC003)], work=566*
 50: 0x0B8B [0x45] LOAD_SCHEDULED_TASK: Load scheduler "an10" with entities [LocalPlayer, LocalPlayer], work=[216*, 0*]
 51: 0x0B9C [0x2B] Gilgamesh (ID: 17809411/0x010FC003) [10709*]:
    → "It's said that me father trapped the spirit of an evil demon in that helmet after a grueling battle in the Northlands. He put numerous magical seals on it t'keep the beast at bay."
 52: 0x0BA3 [0x23] WAIT_FOR_DIALOG_INTERACTION
 53: 0x0BA4 [0x2B] Gilgamesh (ID: 17809411/0x010FC003) [10710*]:
    → "This probably be the reason that our rival pirates decided t'lay their grimy hands on it."
 54: 0x0BAB [0x23] WAIT_FOR_DIALOG_INTERACTION
 55: 0x0BAC [0x5B] LOAD_EXT_SCHEDULER: Load scheduler "thk1" with entities [Gilgamesh (ID: 17809411/0x010FC003), Gilgamesh (ID: 17809411/0x010FC003)], work=566*
 56: 0x0BBB [0x53] WAIT_SCHEDULER_TASK: Wait for scheduler "thk1" with entities [Gilgamesh (ID: 17809411/0x010FC003), Gilgamesh (ID: 17809411/0x010FC003)]
 57: 0x0BC8 [0x52] END_LOAD_SCHEDULER: End scheduler "an10" with entities [LocalPlayer, LocalPlayer], work=216*
 58: 0x0BD7 [0x45] LOAD_SCHEDULED_TASK: Load scheduler "an11" with entities [LocalPlayer, LocalPlayer], work=[216*, 0*]
 59: 0x0BE8 [0x2B] Gilgamesh (ID: 17809411/0x010FC003) [10711*]:
    → "T'make a long story short, I need ya t'find the man that had the nerve t'rob me, and get that helmet back. Not too difficult fer an adventurer like you, eh?"
 60: 0x0BEF [0x23] WAIT_FOR_DIALOG_INTERACTION
 61: 0x0BF0 [0x52] END_LOAD_SCHEDULER: End scheduler "an11" with entities [LocalPlayer, LocalPlayer], work=216*
 62: 0x0BFF [0x45] LOAD_SCHEDULED_TASK: Load scheduler "an12" with entities [LocalPlayer, LocalPlayer], work=[216*, 0*]
 63: 0x0C10 [0x5B] LOAD_EXT_SCHEDULER: Load scheduler "ybt0" with entities [Gilgamesh (ID: 17809411/0x010FC003), Gilgamesh (ID: 17809411/0x010FC003)], work=566*
 64: 0x0C1F [0x2B] Gilgamesh (ID: 17809411/0x010FC003) [10712*]:
    → "And if fer some reason, the magic seal on the helmet were to be broken, we'll need ya t'...well, ya know what we'll need ya t'do then."
 65: 0x0C26 [0x23] WAIT_FOR_DIALOG_INTERACTION
 66: 0x0C27 [0x53] WAIT_SCHEDULER_TASK: Wait for scheduler "ybt0" with entities [Gilgamesh (ID: 17809411/0x010FC003), Gilgamesh (ID: 17809411/0x010FC003)]
 67: 0x0C34 [0x5B] LOAD_EXT_SCHEDULER: Load scheduler "tlk0" with entities [Gilgamesh (ID: 17809411/0x010FC003), Gilgamesh (ID: 17809411/0x010FC003)], work=566*
 68: 0x0C43 [0x2B] Gilgamesh (ID: 17809411/0x010FC003) [10713*]:
    → "Because of the sensitive nature of this problem, not many here in Norg have been informed of what has happened. However, the men I have sent to track down the thieves should have some good information fer ya, but first ya have t'search them out."
