# 0x7FFFFFF0 - Zone Events

## Common Data

| Field            | Value          |
|------------------|----------------|
| Zone             | Norg (ID: 252) |
| Block Size       | 10876 bytes    |
| Total Events     | 74             |
| References Count | 326            |

## List of Events

| Event ID                   | Entrypoint   |   Size |   Instructions |
|----------------------------|--------------|--------|----------------|
| [65535](#event-65535)      | 0x0000       |      1 |              1 |
| [65534](#event-65534)      | 0x0001       |      1 |              1 |
| [65535.1](#event-655351)   | 0x0002       |     10 |              2 |
| [65535.2](#event-655352)   | 0x000C       |     10 |              2 |
| [65535.3](#event-655353)   | 0x0016       |     15 |              5 |
| [65535.4](#event-655354)   | 0x0025       |     15 |              5 |
| [65535.5](#event-655355)   | 0x0034       |     24 |              6 |
| [65535.6](#event-655356)   | 0x004C       |     37 |              8 |
| [65535.7](#event-655357)   | 0x0071       |     20 |              5 |
| [65535.8](#event-655358)   | 0x0085       |     20 |              6 |
| [65535.9](#event-655359)   | 0x0099       |     10 |              2 |
| [97](#event-97)            | 0x00A3       |     55 |             13 |
| [98](#event-98)            | 0x00DA       |    382 |             50 |
| [99](#event-99)            | 0x0258       |    814 |            105 |
| [65535.10](#event-6553510) | 0x0586       |     10 |              2 |
| [65535.11](#event-6553511) | 0x0590       |     27 |              7 |
| [65535.12](#event-6553512) | 0x05AB       |     15 |              3 |
| [65535.13](#event-6553513) | 0x05BA       |      4 |              2 |
| [65535.14](#event-6553514) | 0x05BE       |     21 |              4 |
| [65535.15](#event-6553515) | 0x05D3       |     15 |              3 |
| [65535.16](#event-6553516) | 0x05E2       |     15 |              3 |
| [65535.17](#event-6553517) | 0x05F1       |     26 |              7 |
| [65535.18](#event-6553518) | 0x060B       |     10 |              2 |
| [65535.19](#event-6553519) | 0x0615       |     17 |              6 |
| [65535.20](#event-6553520) | 0x0626       |     10 |              2 |
| [65535.21](#event-6553521) | 0x0630       |     20 |              3 |
| [65535.22](#event-6553522) | 0x0644       |     18 |              6 |
| [65535.23](#event-6553523) | 0x0656       |     37 |              8 |
| [65535.24](#event-6553524) | 0x067B       |    121 |             19 |
| [65535.25](#event-6553525) | 0x06F4       |     10 |              2 |
| [65535.26](#event-6553526) | 0x06FE       |     27 |              6 |
| [65535.27](#event-6553527) | 0x0719       |      6 |              2 |
| [65535.28](#event-6553528) | 0x071F       |     10 |              2 |
| [65535.29](#event-6553529) | 0x0729       |     10 |              2 |
| [65535.30](#event-6553530) | 0x0733       |     10 |              2 |
| [65535.31](#event-6553531) | 0x073D       |     10 |              2 |
| [65535.32](#event-6553532) | 0x0747       |     15 |              5 |
| [65535.33](#event-6553533) | 0x0756       |     10 |              2 |
| [65535.34](#event-6553534) | 0x0760       |     10 |              2 |
| [65535.35](#event-6553535) | 0x076A       |      6 |              2 |
| [65535.36](#event-6553536) | 0x0770       |      6 |              2 |
| [65535.37](#event-6553537) | 0x0776       |      6 |              2 |
| [65535.38](#event-6553538) | 0x077C       |     10 |              2 |
| [65535.39](#event-6553539) | 0x0786       |     10 |              2 |
| [65535.40](#event-6553540) | 0x0790       |      6 |              2 |
| [65535.41](#event-6553541) | 0x0796       |     10 |              2 |
| [65535.42](#event-6553542) | 0x07A0       |     10 |              2 |
| [225](#event-225)          | 0x07AA       |    711 |             94 |
| [226](#event-226)          | 0x0A71       |   2612 |            320 |
| [227](#event-227)          | 0x14A5       |   1768 |            217 |
| [231](#event-231)          | 0x1B8D       |      1 |              1 |
| [65535.43](#event-6553543) | 0x1B8E       |     10 |              2 |
| [65535.44](#event-6553544) | 0x1B98       |     24 |              4 |
| [65535.45](#event-6553545) | 0x1BB0       |     24 |              4 |
| [65535.46](#event-6553546) | 0x1BC8       |     37 |              5 |
| [65535.47](#event-6553547) | 0x1BED       |     37 |              5 |
| [65535.48](#event-6553548) | 0x1C12       |    190 |             38 |
| [65535.49](#event-6553549) | 0x1CD0       |     15 |              5 |
| [65535.50](#event-6553550) | 0x1CDF       |     15 |              5 |
| [65535.51](#event-6553551) | 0x1CEE       |      6 |              2 |
| [65535.52](#event-6553552) | 0x1CF4       |    345 |             33 |
| [65535.53](#event-6553553) | 0x1E4D       |    345 |             33 |
| [65535.54](#event-6553554) | 0x1FA6       |    345 |             33 |
| [65535.55](#event-6553555) | 0x20FF       |    345 |             33 |
| [65535.56](#event-6553556) | 0x2258       |    345 |             33 |
| [65535.57](#event-6553557) | 0x23B1       |      5 |              2 |
| [65535.58](#event-6553558) | 0x23B6       |      5 |              2 |
| [65535.59](#event-6553559) | 0x23BB       |      5 |              2 |
| [65535.60](#event-6553560) | 0x23C0       |      5 |              2 |
| [65535.61](#event-6553561) | 0x23C5       |     14 |              4 |
| [65535.62](#event-6553562) | 0x23D3       |     22 |              6 |
| [65535.63](#event-6553563) | 0x23E9       |     22 |              6 |
| [65535.64](#event-6553564) | 0x23FF       |     22 |              6 |
| [65535.65](#event-6553565) | 0x2415       |     22 |              6 |

## DAT References (imed_data)

|   Index | Hex Value   |   Dec Value |
|---------|-------------|-------------|
|       0 | 0x186F9     |      100089 |
|       1 | 0xFFFFD111  |  4294955281 |
|       2 | 0xFFFFE452  |  4294960210 |
|       3 | 0x0007      |           7 |
|       4 | 0x19582     |      103810 |
|       5 | 0xFFFFD0ED  |  4294955245 |
|       6 | 0x07EC      |        2028 |
|       7 | 0x000D      |          13 |
|       8 | 0x195B1     |      103857 |
|       9 | 0xFFFFD140  |  4294955328 |
|      10 | 0x185CD     |       99789 |
|      11 | 0xFFFFD121  |  4294955297 |
|      12 | 0xFFFFB1FD  |  4294947325 |
|      13 | 0xFFFF0B64  |  4294904676 |
|      14 | 0xFFFFFF41  |  4294967105 |
|      15 | 0x0BBB      |        3003 |
|      16 | 0x000B      |          11 |
|      17 | 0xFFFFB158  |  4294947160 |
|      18 | 0xFFFF277B  |  4294911867 |
|      19 | 0x0092      |         146 |
|      20 | 0x1A305     |      107269 |
|      21 | 0xFFFFD0F9  |  4294955257 |
|      22 | 0x0FE2      |        4066 |
|      23 | 0x0001      |           1 |
|      24 | 0x000A      |          10 |
|      25 | 0x1D16C     |      119148 |
|      26 | 0xFFFFD118  |  4294955288 |
|      27 | 0xFFFFE0B7  |  4294959287 |
|      28 | 0x0E5D      |        3677 |
|      29 | 0x1C822     |      116770 |
|      30 | 0xFFFFD0FE  |  4294955262 |
|      31 | 0xFFFFA18E  |  4294943118 |
|      32 | 0xFFFFDE4B  |  4294958667 |
|      33 | 0x0246      |         582 |
|      34 | 0x089A      |        2202 |
|      35 | 0x2723      |       10019 |
|      36 | 0x0000      |           0 |
|      37 | 0x00C8      |         200 |
|      38 | 0x0202      |         514 |
|      39 | 0x0286      |         646 |
|      40 | 0x0488      |        1160 |
|      41 | 0x001E      |          30 |
|      42 | 0x0003      |           3 |
|      43 | 0x1D4F0     |      120048 |
|      44 | 0xFFFFD31E  |  4294955806 |
|      45 | 0x00BC      |         188 |
|      46 | 0x00DC      |         220 |
|      47 | 0x2894      |       10388 |
|      48 | 0x2895      |       10389 |
|      49 | 0x2896      |       10390 |
|      50 | 0x2897      |       10391 |
|      51 | 0x0236      |         566 |
|      52 | 0x2898      |       10392 |
|      53 | 0x2899      |       10393 |
|      54 | 0x289A      |       10394 |
|      55 | 0x0014      |          20 |
|      56 | 0x289B      |       10395 |
|      57 | 0x003C      |          60 |
|      58 | 0x289C      |       10396 |
|      59 | 0x0078      |         120 |
|      60 | 0x289D      |       10397 |
|      61 | 0x009A      |         154 |
|      62 | 0x289E      |       10398 |
|      63 | 0x289F      |       10399 |
|      64 | 0x28A0      |       10400 |
|      65 | 0x28A1      |       10401 |
|      66 | 0x28A2      |       10402 |
|      67 | 0x28A3      |       10403 |
|      68 | 0x28A4      |       10404 |
|      69 | 0x28A5      |       10405 |
|      70 | 0x28A6      |       10406 |
|      71 | 0x28A7      |       10407 |
|      72 | 0x28A8      |       10408 |
|      73 | 0x28A9      |       10409 |
|      74 | 0x28AA      |       10410 |
|      75 | 0x28AB      |       10411 |
|      76 | 0x28AC      |       10412 |
|      77 | 0x28AD      |       10413 |
|      78 | 0x28AE      |       10414 |
|      79 | 0x28AF      |       10415 |
|      80 | 0x00D1      |         209 |
|      81 | 0xFFF91FC1  |  4294516673 |
|      82 | 0xFFFC58BD  |  4294727869 |
|      83 | 0xFFFD72E1  |  4294800097 |
|      84 | 0x07D0      |        2000 |
|      85 | 0xFFF91262  |  4294513250 |
|      86 | 0xFFFC57B4  |  4294727604 |
|      87 | 0xFFFD7339  |  4294800185 |
|      88 | 0xFFF91169  |  4294513001 |
|      89 | 0xFFFC5963  |  4294728035 |
|      90 | 0x00E8      |         232 |
|      91 | 0x0B7E      |        2942 |
|      92 | 0x002D      |          45 |
|      93 | 0x089E      |        2206 |
|      94 | 0xFFF911FF  |  4294513151 |
|      95 | 0xFFFC5C75  |  4294728821 |
|      96 | 0xFFFD736F  |  4294800239 |
|      97 | 0x07C2      |        1986 |
|      98 | 0xFFF94F7E  |  4294528894 |
|      99 | 0xFFFC56F4  |  4294727412 |
|     100 | 0xFFFD7343  |  4294800195 |
|     101 | 0x0020      |          32 |
|     102 | 0x0028      |          40 |
|     103 | 0xFFF980DA  |  4294541530 |
|     104 | 0xFFFC5580  |  4294727040 |
|     105 | 0xFFFD73A8  |  4294800296 |
|     106 | 0xFFF9AD07  |  4294552839 |
|     107 | 0xFFFC5733  |  4294727475 |
|     108 | 0xFFFD74A2  |  4294800546 |
|     109 | 0x000C      |          12 |
|     110 | 0x0BFF      |        3071 |
|     111 | 0x0023      |          35 |
|     112 | 0xFFF909DE  |  4294511070 |
|     113 | 0xFFFC5CD7  |  4294728919 |
|     114 | 0x161A4     |       90532 |
|     115 | 0xFFFFE2C2  |  4294959810 |
|     116 | 0x0BC0      |        3008 |
|     117 | 0x18438     |       99384 |
|     118 | 0xFFFFD26C  |  4294955628 |
|     119 | 0x0FE3      |        4067 |
|     120 | 0x1955D     |      103773 |
|     121 | 0xFFFFD2FF  |  4294955775 |
|     122 | 0x1BDD7     |      114135 |
|     123 | 0xFFFFD130  |  4294955312 |
|     124 | 0x0009      |           9 |
|     125 | 0x17FB2     |       98226 |
|     126 | 0xFFFE8427  |  4294870055 |
|     127 | 0xFFFFC951  |  4294953297 |
|     128 | 0x8A3C      |       35388 |
|     129 | 0xFFFF5FB6  |  4294926262 |
|     130 | 0x1D4B      |        7499 |
|     131 | 0x07D5      |        2005 |
|     132 | 0x0002      |           2 |
|     133 | 0xFFFFC977  |  4294953335 |
|     134 | 0xFFFFAF27  |  4294946599 |
|     135 | 0x0449      |        1097 |
|     136 | 0x0FC1      |        4033 |
|     137 | 0xFFFFBA31  |  4294949425 |
|     138 | 0xFFFFD2B5  |  4294955701 |
|     139 | 0x1DE4      |        7652 |
|     140 | 0x0108      |         264 |
|     141 | 0x0004      |           4 |
|     142 | 0xFFFD2886  |  4294781062 |
|     143 | 0x1A773     |      108403 |
|     144 | 0x095F      |        2399 |
|     145 | 0x0005      |           5 |
|     146 | 0x72BA      |       29370 |
|     147 | 0xDF91      |       57233 |
|     148 | 0xFFFFC246  |  4294951494 |
|     149 | 0x0314      |         788 |
|     150 | 0x55DE      |       21982 |
|     151 | 0x7561      |       30049 |
|     152 | 0xFFFFB926  |  4294949158 |
|     153 | 0x0D48      |        3400 |
|     154 | 0xFFFFBA9A  |  4294949530 |
|     155 | 0xFFFFD177  |  4294955383 |
|     156 | 0x1DDD      |        7645 |
|     157 | 0x000F      |          15 |
|     158 | 0xFFFFB6BE  |  4294948542 |
|     159 | 0xFFFF8873  |  4294936691 |
|     160 | 0x0B0B      |        2827 |
|     161 | 0xFFFFB316  |  4294947606 |
|     162 | 0xFFFF8E1F  |  4294938143 |
|     163 | 0xFFFF9EAF  |  4294942383 |
|     164 | 0xFFFFDC0E  |  4294958094 |
|     165 | 0x0271      |         625 |
|     166 | 0x096E      |        2414 |
|     167 | 0xFFFF18CC  |  4294908108 |
|     168 | 0x10ABE     |       68286 |
|     169 | 0xFFFFDB3A  |  4294957882 |
|     170 | 0x0F4F      |        3919 |
|     171 | 0x17C0A     |       97290 |
|     172 | 0xFFFFCA73  |  4294953587 |
|     173 | 0x00A1      |         161 |
|     174 | 0x16A69     |       92777 |
|     175 | 0xFFFFB7D1  |  4294948817 |
|     176 | 0x0FDD      |        4061 |
|     177 | 0xBA9B      |       47771 |
|     178 | 0x323E      |       12862 |
|     179 | 0xFFFFE776  |  4294961014 |
|     180 | 0x09DE      |        2526 |
|     181 | 0xFFFFE57A  |  4294960506 |
|     182 | 0xFFFF53AC  |  4294923180 |
|     183 | 0xFFFFFC17  |  4294966295 |
|     184 | 0x0013      |          19 |
|     185 | 0xFFFFC36E  |  4294951790 |
|     186 | 0xFFFF9DC0  |  4294942144 |
|     187 | 0x09B9      |        2489 |
|     188 | 0x005A      |          90 |
|     189 | 0x00D2      |         210 |
|     190 | 0x2BA1      |       11169 |
|     191 | 0x2BA2      |       11170 |
|     192 | 0x2BA3      |       11171 |
|     193 | 0x2BA4      |       11172 |
|     194 | 0x2BA5      |       11173 |
|     195 | 0x2BA6      |       11174 |
|     196 | 0x2BA7      |       11175 |
|     197 | 0x2BA8      |       11176 |
|     198 | 0x003E      |          62 |
|     199 | 0x2BA9      |       11177 |
|     200 | 0x2BAA      |       11178 |
|     201 | 0x2BAB      |       11179 |
|     202 | 0x2BAC      |       11180 |
|     203 | 0x0096      |         150 |
|     204 | 0xFFFFB138  |  4294947128 |
|     205 | 0xFFFF3F13  |  4294917907 |
|     206 | 0x00EF      |         239 |
|     207 | 0x0407      |        1031 |
|     208 | 0x00E7      |         231 |
|     209 | 0x0045      |          69 |
|     210 | 0x2BAF      |       11183 |
|     211 | 0x2BB0      |       11184 |
|     212 | 0x2BB1      |       11185 |
|     213 | 0x2BB2      |       11186 |
|     214 | 0x2BB3      |       11187 |
|     215 | 0x2BB4      |       11188 |
|     216 | 0x2BB5      |       11189 |
|     217 | 0x2BB6      |       11190 |
|     218 | 0x00B0      |         176 |
|     219 | 0x0011      |          17 |
|     220 | 0x00B4      |         180 |
|     221 | 0x2BB7      |       11191 |
|     222 | 0x0F7D      |        3965 |
|     223 | 0x00F0      |         240 |
|     224 | 0x012C      |         300 |
|     225 | 0x2BB8      |       11192 |
|     226 | 0x2BB9      |       11193 |
|     227 | 0x0015      |          21 |
|     228 | 0x00C9      |         201 |
|     229 | 0x2BBA      |       11194 |
|     230 | 0x2BBB      |       11195 |
|     231 | 0x2BBC      |       11196 |
|     232 | 0x2BBD      |       11197 |
|     233 | 0x2BBE      |       11198 |
|     234 | 0x0348      |         840 |
|     235 | 0x2BBF      |       11199 |
|     236 | 0x2BC0      |       11200 |
|     237 | 0x2BC1      |       11201 |
|     238 | 0x2BC2      |       11202 |
|     239 | 0x00FC      |         252 |
|     240 | 0xFFFFAF79  |  4294946681 |
|     241 | 0xFFFF49A6  |  4294920614 |
|     242 | 0x00F1      |         241 |
|     243 | 0x0365      |         869 |
|     244 | 0x2BC3      |       11203 |
|     245 | 0x2BC4      |       11204 |
|     246 | 0x2BC5      |       11205 |
|     247 | 0x2BC6      |       11206 |
|     248 | 0x2BC7      |       11207 |
|     249 | 0x2BC8      |       11208 |
|     250 | 0x004F      |          79 |
|     251 | 0x2BC9      |       11209 |
|     252 | 0x2BCA      |       11210 |
|     253 | 0x2BCB      |       11211 |
|     254 | 0x0041      |          65 |
|     255 | 0x2BCC      |       11212 |
|     256 | 0x2BCD      |       11213 |
|     257 | 0x2BCE      |       11214 |
|     258 | 0x2BCF      |       11215 |
|     259 | 0x2BD0      |       11216 |
|     260 | 0x2BD1      |       11217 |
|     261 | 0x2BD2      |       11218 |
|     262 | 0x2BD3      |       11219 |
|     263 | 0x2BD4      |       11220 |
|     264 | 0xFFFFBB59  |  4294949721 |
|     265 | 0xFFFF9E51  |  4294942289 |
|     266 | 0x09D5      |        2517 |
|     267 | 0x2BD6      |       11222 |
|     268 | 0x2BD7      |       11223 |
|     269 | 0x2BD8      |       11224 |
|     270 | 0x2BD9      |       11225 |
|     271 | 0x2BDA      |       11226 |
|     272 | 0x007C      |         124 |
|     273 | 0x2BDB      |       11227 |
|     274 | 0x2BDC      |       11228 |
|     275 | 0x2BDD      |       11229 |
|     276 | 0x05AF      |        1455 |
|     277 | 0x2BDE      |       11230 |
|     278 | 0x0022      |          34 |
|     279 | 0x2BDF      |       11231 |
|     280 | 0x2BE0      |       11232 |
|     281 | 0x2BE1      |       11233 |
|     282 | 0x2BE2      |       11234 |
|     283 | 0x2BE3      |       11235 |
|     284 | 0x0019      |          25 |
|     285 | 0x2BE4      |       11236 |
|     286 | 0x0064      |         100 |
|     287 | 0x2BE7      |       11239 |
|     288 | 0x2BE8      |       11240 |
|     289 | 0x2BE9      |       11241 |
|     290 | 0x2BEA      |       11242 |
|     291 | 0x2BEB      |       11243 |
|     292 | 0x2BEC      |       11244 |
|     293 | 0x2BED      |       11245 |
|     294 | 0x1D38E     |      119694 |
|     295 | 0xFFFFD112  |  4294955282 |
|     296 | 0x0FEC      |        4076 |
|     297 | 0x0046      |          70 |
|     298 | 0x008C      |         140 |
|     299 | 0xFFFFFB12  |  4294966034 |
|     300 | 0x3898      |       14488 |
|     301 | 0xFFFFFF8D  |  4294967181 |
|     302 | 0xE78F      |       59279 |
|     303 | 0xFFFFEEB5  |  4294962869 |
|     304 | 0xFFFFE777  |  4294961015 |
|     305 | 0x008D      |         141 |
|     306 | 0x0F26      |        3878 |
|     307 | 0x0097      |         151 |
|     308 | 0x00AB      |         171 |
|     309 | 0x00B5      |         181 |
|     310 | 0x0006      |           6 |
|     311 | 0x00BF      |         191 |
|     312 | 0x0008      |           8 |
|     313 | 0x0057      |          87 |
|     314 | 0x005D      |          93 |
|     315 | 0x0060      |          96 |
|     316 | 0x1A4F9     |      107769 |
|     317 | 0xFFFFD13A  |  4294955322 |
|     318 | 0x1CC63     |      117859 |
|     319 | 0xFFFFD0F7  |  4294955255 |
|     320 | 0x1CC2C     |      117804 |
|     321 | 0xFFFFCE41  |  4294954561 |
|     322 | 0x1CD24     |      118052 |
|     323 | 0xFFFFCF56  |  4294954838 |
|     324 | 0x1CF75     |      118645 |
|     325 | 0xFFFFD0D9  |  4294955225 |

## String References

- **1**: Set this as current home point? [Yes./No.]
- **10019**: For your own safety, it is recommended that you set this location as your home point after changing jobs.

## Events

### Event 65535

#### Metadata

| Field        | Value   |
|--------------|---------|
| Entrypoint   | 0x0000  |
| Data Size    | 1 bytes |
| Instructions | 1       |

```
      00 01 02 03 04 05 06 07  08 09 0A 0B 0C 0D 0E 0F
      -- -- -- -- -- -- -- --  -- -- -- -- -- -- -- --
0000: 00                                                .               
```

#### Opcodes

```
  0: 0x0000 [0x00] END_REQSTACK()
```

### Event 65534

#### Metadata

| Field        | Value   |
|--------------|---------|
| Entrypoint   | 0x0001  |
| Data Size    | 1 bytes |
| Instructions | 1       |

```
      00 01 02 03 04 05 06 07  08 09 0A 0B 0C 0D 0E 0F
      -- -- -- -- -- -- -- --  -- -- -- -- -- -- -- --
0000:    00                                              .              
```

#### Opcodes

```
  0: 0x0001 [0x00] END_REQSTACK()
```

### Event 65535.1

#### Metadata

| Field        | Value    |
|--------------|----------|
| Entrypoint   | 0x0002   |
| Data Size    | 10 bytes |
| Instructions | 2        |

```
      00 01 02 03 04 05 06 07  08 09 0A 0B 0C 0D 0E 0F
      -- -- -- -- -- -- -- --  -- -- -- -- -- -- -- --
0000:       37 00 80 01 80 02  80 03 80 00                7.........    
```

#### Opcodes

```
  0: 0x0002 [0x37] UPDATE_EVENT_POSITION_AND_DIR: x=100.089*, z=-12.015*, y=-7.086*, direction=0.6°*
  1: 0x000B [0x00] END_REQSTACK()
```

### Event 65535.2

#### Metadata

| Field        | Value    |
|--------------|----------|
| Entrypoint   | 0x000C   |
| Data Size    | 10 bytes |
| Instructions | 2        |

```
      00 01 02 03 04 05 06 07  08 09 0A 0B 0C 0D 0E 0F
      -- -- -- -- -- -- -- --  -- -- -- -- -- -- -- --
0000:                                      37 04 80 05              7...
0010: 80 02 80 06 80 00                                 ......          
```

#### Opcodes

```
  0: 0x000C [0x37] UPDATE_EVENT_POSITION_AND_DIR: x=103.810*, z=-12.051*, y=-7.086*, direction=178.2°*
  1: 0x0015 [0x00] END_REQSTACK()
```

### Event 65535.3

#### Metadata

| Field        | Value    |
|--------------|----------|
| Entrypoint   | 0x0016   |
| Data Size    | 15 bytes |
| Instructions | 5        |

```
      00 01 02 03 04 05 06 07  08 09 0A 0B 0C 0D 0E 0F
      -- -- -- -- -- -- -- --  -- -- -- -- -- -- -- --
0010:                   32 07  80 1F 00 08 80 09 80 02        2.........
0020: 80 1F 01 6F 00                                    ...o.           
```

#### Opcodes

```
  0: 0x0016 [0x32] ExtData[1]->MainSpeed = 13* * 0.1
  1: 0x0019 [0x1F] MOVE_ENTITY: EventEntity moves to X=103.857*, Z=-11.968*, Y=-7.086*
  2: 0x0021 [0x1F] MOVE_ENTITY: Update entity position (mode=1)
  3: 0x0023 [0x6F] WAIT_FRAME_DELAY: Yield until WaitTime reaches zero
  4: 0x0024 [0x00] END_REQSTACK()
```

### Event 65535.4

#### Metadata

| Field        | Value    |
|--------------|----------|
| Entrypoint   | 0x0025   |
| Data Size    | 15 bytes |
| Instructions | 5        |

```
      00 01 02 03 04 05 06 07  08 09 0A 0B 0C 0D 0E 0F
      -- -- -- -- -- -- -- --  -- -- -- -- -- -- -- --
0020:                32 07 80  1F 00 0A 80 0B 80 02 80       2..........
0030: 1F 01 6F 00                                       ..o.            
```

#### Opcodes

```
  0: 0x0025 [0x32] ExtData[1]->MainSpeed = 13* * 0.1
  1: 0x0028 [0x1F] MOVE_ENTITY: EventEntity moves to X=99.789*, Z=-11.999*, Y=-7.086*
  2: 0x0030 [0x1F] MOVE_ENTITY: Update entity position (mode=1)
  3: 0x0032 [0x6F] WAIT_FRAME_DELAY: Yield until WaitTime reaches zero
  4: 0x0033 [0x00] END_REQSTACK()
```

### Event 65535.5

#### Metadata

| Field        | Value    |
|--------------|----------|
| Entrypoint   | 0x0034   |
| Data Size    | 24 bytes |
| Instructions | 6        |

```
      00 01 02 03 04 05 06 07  08 09 0A 0B 0C 0D 0E 0F
      -- -- -- -- -- -- -- --  -- -- -- -- -- -- -- --
0030:             37 0C 80 0D  80 0E 80 0F 80 32 10 80      7........2..
0040: 1F 00 11 80 12 80 13 80  1F 01 6F 00              ..........o.    
```

#### Opcodes

```
  0: 0x0034 [0x37] UPDATE_EVENT_POSITION_AND_DIR: x=-19.971*, z=-62.620*, y=-0.191*, direction=263.9°*
  1: 0x003D [0x32] ExtData[1]->MainSpeed = 11* * 0.1
  2: 0x0040 [0x1F] MOVE_ENTITY: EventEntity moves to X=-20.136*, Z=-55.429*, Y=0.146*
  3: 0x0048 [0x1F] MOVE_ENTITY: Update entity position (mode=1)
  4: 0x004A [0x6F] WAIT_FRAME_DELAY: Yield until WaitTime reaches zero
  5: 0x004B [0x00] END_REQSTACK()
```

### Event 65535.6

#### Metadata

| Field        | Value    |
|--------------|----------|
| Entrypoint   | 0x004C   |
| Data Size    | 37 bytes |
| Instructions | 8        |

```
      00 01 02 03 04 05 06 07  08 09 0A 0B 0C 0D 0E 0F
      -- -- -- -- -- -- -- --  -- -- -- -- -- -- -- --
0040:                                      37 14 80 15              7...
0050: 80 02 80 16 80 1C 17 80  32 18 80 1F 00 19 80 1A  ........2.......
0060: 80 1B 80 1F 01 6F 79 00  F8 FF FF 7F 03 C0 0F 01  .....oy.........
0070: 00                                                .               
```

#### Opcodes

```
  0: 0x004C [0x37] UPDATE_EVENT_POSITION_AND_DIR: x=107.269*, z=-12.039*, y=-7.086*, direction=357.4°*
  1: 0x0055 [0x1C] WAIT(1* ticks)
  2: 0x0058 [0x32] ExtData[1]->MainSpeed = 10* * 0.1
  3: 0x005B [0x1F] MOVE_ENTITY: EventEntity moves to X=119.148*, Z=-12.008*, Y=-8.009*
  4: 0x0063 [0x1F] MOVE_ENTITY: Update entity position (mode=1)
  5: 0x0065 [0x6F] WAIT_FRAME_DELAY: Yield until WaitTime reaches zero
  6: 0x0066 [0x79] EventEntity looks at Gilgamesh (ID: 17809411/0x010FC003) (Basic look)
  7: 0x0070 [0x00] END_REQSTACK()
```

### Event 65535.7

#### Metadata

| Field        | Value    |
|--------------|----------|
| Entrypoint   | 0x0071   |
| Data Size    | 20 bytes |
| Instructions | 5        |

```
      00 01 02 03 04 05 06 07  08 09 0A 0B 0C 0D 0E 0F
      -- -- -- -- -- -- -- --  -- -- -- -- -- -- -- --
0070:    4B F8 FF FF 7F 1C 80  6F 70 79 00 F8 FF FF 7F   K......opy.....
0080: 03 C0 0F 01 00                                    .....           
```

#### Opcodes

```
  0: 0x0071 [0x4B] UPDATE_ENTITY_YAW(entity=EventEntity, yaw=20.2°*)
  1: 0x0078 [0x6F] WAIT_FRAME_DELAY: Yield until WaitTime reaches zero
  2: 0x0079 [0x70] WAIT_ENTITY_RENDER_FLAG: Wait while EventEntity->Render.Flags3 bit 2 is set (cancel turn if not)
  3: 0x007A [0x79] EventEntity looks at Gilgamesh (ID: 17809411/0x010FC003) (Basic look)
  4: 0x0084 [0x00] END_REQSTACK()
```

### Event 65535.8

#### Metadata

| Field        | Value    |
|--------------|----------|
| Entrypoint   | 0x0085   |
| Data Size    | 20 bytes |
| Instructions | 6        |

```
      00 01 02 03 04 05 06 07  08 09 0A 0B 0C 0D 0E 0F
      -- -- -- -- -- -- -- --  -- -- -- -- -- -- -- --
0080:                32 07 80  1F 00 1D 80 1E 80 1B 80       2..........
0090: 1F 01 6F 1E 05 C0 0F 01  00                       ..o......       
```

#### Opcodes

```
  0: 0x0085 [0x32] ExtData[1]->MainSpeed = 13* * 0.1
  1: 0x0088 [0x1F] MOVE_ENTITY: EventEntity moves to X=116.770*, Z=-12.034*, Y=-8.009*
  2: 0x0090 [0x1F] MOVE_ENTITY: Update entity position (mode=1)
  3: 0x0092 [0x6F] WAIT_FRAME_DELAY: Yield until WaitTime reaches zero
  4: 0x0093 [0x1E] EventEntity looks at Lion (ID: 17809413/0x010FC005) and starts talking
  5: 0x0098 [0x00] END_REQSTACK()
```

### Event 65535.9

#### Metadata

| Field        | Value    |
|--------------|----------|
| Entrypoint   | 0x0099   |
| Data Size    | 10 bytes |
| Instructions | 2        |

```
      00 01 02 03 04 05 06 07  08 09 0A 0B 0C 0D 0E 0F
      -- -- -- -- -- -- -- --  -- -- -- -- -- -- -- --
0090:                             37 1F 80 20 80 21 80           7.. .!.
00A0: 22 80 00                                          "..             
```

#### Opcodes

```
  0: 0x0099 [0x37] UPDATE_EVENT_POSITION_AND_DIR: x=-24.178*, z=-8.629*, y=0.582*, direction=193.5°*
  1: 0x00A2 [0x00] END_REQSTACK()
```

### Event 97

#### Metadata

| Field        | Value    |
|--------------|----------|
| Entrypoint   | 0x00A3   |
| Data Size    | 55 bytes |
| Instructions | 13       |

```
      00 01 02 03 04 05 06 07  08 09 0A 0B 0C 0D 0E 0F
      -- -- -- -- -- -- -- --  -- -- -- -- -- -- -- --
00A0:          42 20 01 48 23  80 23 24 17 80 17 80 24     B .H#.#$....$
00B0: 80 25 02 00 10 24 80 00  C2 00 03 01 10 24 80 01  .%...$.......$..
00C0: C7 00 03 01 10 17 80 45  25 80 F0 FF FF 7F F0 FF  .......E%.......
00D0: FF 7F 66 64 69 30 24 80  21 00                    ..fdi0$.!.      
```

#### Opcodes

```
  0: 0x00A3 [0x42] SET_CLI_EVENT_CANCEL_DATA()
  1: 0x00A4 [0x20] SET_CLI_EVENT_UC_FLAG: Lock player control
  2: 0x00A6 [0x48] [System] [10019*]:
    → "For your own safety, it is recommended that you set this location as your home point after changing jobs."
  3: 0x00A9 [0x23] WAIT_FOR_DIALOG_INTERACTION
  4: 0x00AA [0x24] CREATE_DIALOG(message_id=1*, default_option=1*, option_flags=0*)
    → "Set this as current home point? [Yes./No.]"
  5: 0x00B1 [0x25] WAIT_DIALOG_SELECT()
  6: 0x00B2 [0x02] IF !(Work_Zone[0] == 0*) GOTO 0x00C2
  7: 0x00BA [0x03] Work_Zone[1] = 0*
  8: 0x00BF [0x01] GOTO 0x00C7
  9: 0x00C2 [0x03] Work_Zone[1] = 1*

SUBROUTINE_00C7:
 10: 0x00C7 [0x45] LOAD_SCHEDULED_TASK: Load scheduler "fdi0" with entities [LocalPlayer, LocalPlayer], work=[200*, 0*]
 11: 0x00D8 [0x21] END_EVENT
 12: 0x00D9 [0x00] END_REQSTACK()
```

### Event 98

#### Metadata

| Field        | Value     |
|--------------|-----------|
| Entrypoint   | 0x00DA    |
| Data Size    | 382 bytes |
| Instructions | 50        |

```
      00 01 02 03 04 05 06 07  08 09 0A 0B 0C 0D 0E 0F
      -- -- -- -- -- -- -- --  -- -- -- -- -- -- -- --
00D0:                                42 75 00 26 80 75            Bu.&.u
00E0: 01 03 08 10 27 80 03 09  10 28 80 45 25 80 F0 FF  ....'....(.E%...
00F0: FF 7F F0 FF FF 7F 66 64  6F 30 24 80 1C 29 80 38  ......fdo0$..).8
0100: 2A 80 37 2B 80 2C 80 1B  80 2D 80 79 00 F8 FF FF  *.7+.,...-.y....
0110: 7F 03 C0 0F 01 6B 69 64  31 30 03 C0 0F 01 46 01  .....kid10....F.
0120: 45 2E 80 F0 FF FF 7F F0  FF FF 7F 73 30 30 31 24  E..........s001$
0130: 80 45 25 80 F0 FF FF 7F  F0 FF FF 7F 66 64 69 30  .E%.........fdi0
0140: 24 80 79 00 03 C0 0F 01  F0 FF FF 7F 2B 03 C0 0F  $.y.........+...
0150: 01 2F 80 23 7B 03 C0 0F  01 2B 03 C0 0F 01 30 80  ./.#{....+....0.
0160: 23 45 2E 80 F0 FF FF 7F  F0 FF FF 7F 73 30 30 32  #E..........s002
0170: 24 80 2B 03 C0 0F 01 31  80 23 6B 69 64 6C 30 03  $.+....1.#kidl0.
0180: C0 0F 01 4A 03 C0 0F 01  F0 FF FF 7F 2B 03 C0 0F  ...J........+...
0190: 01 32 80 23 5B 33 80 03  C0 0F 01 03 C0 0F 01 74  .2.#[3.........t
01A0: 6C 6B 30 2B 03 C0 0F 01  34 80 23 52 2E 80 F0 FF  lk0+....4.#R....
01B0: FF 7F F0 FF FF 7F 73 30  30 32 45 2E 80 F0 FF FF  ......s002E.....
01C0: 7F F0 FF FF 7F 73 30 30  33 24 80 2B 03 C0 0F 01  .....s003$.+....
01D0: 35 80 23 5B 33 80 03 C0  0F 01 03 C0 0F 01 74 6C  5.#[3.........tl
01E0: 6B 31 2B 03 C0 0F 01 36  80 23 52 2E 80 F0 FF FF  k1+....6.#R.....
01F0: 7F F0 FF FF 7F 73 30 30  33 45 25 80 F0 FF FF 7F  .....s003E%.....
0200: F0 FF FF 7F 6F 76 6C 31  24 80 6B 69 64 31 30 03  ....ovl1$.kid10.
0210: C0 0F 01 45 2E 80 F0 FF  FF 7F F0 FF FF 7F 73 30  ...E..........s0
0220: 30 31 24 80 1C 37 80 2B  03 C0 0F 01 38 80 23 45  01$..7.+....8.#E
0230: 25 80 F0 FF FF 7F F0 FF  FF 7F 66 64 6F 31 24 80  %.........fdo1$.
0240: 1C 39 80 46 00 45 25 80  F0 FF FF 7F F0 FF FF 7F  .9.F.E%.........
0250: 66 64 69 31 24 80 21 00                           fdi1$.!.        
```

#### Opcodes

```
  0: 0x00DA [0x42] SET_CLI_EVENT_CANCEL_DATA()
  1: 0x00DB [0x75] LOAD_ROOM(Load indoor room, room=514*)
  2: 0x00DF [0x75] LOAD_ROOM(No action)
  3: 0x00E1 [0x03] Work_Zone[8] = 646*
  4: 0x00E6 [0x03] Work_Zone[9] = 1160*
  5: 0x00EB [0x45] LOAD_SCHEDULED_TASK: Load scheduler "fdo0" with entities [LocalPlayer, LocalPlayer], work=[200*, 0*]
  6: 0x00FC [0x1C] WAIT(30* ticks)
  7: 0x00FF [0x38] SET_CLIENT_EVENT_MODE(mode=3*)
  8: 0x0102 [0x37] UPDATE_EVENT_POSITION_AND_DIR: x=120.048*, z=-11.490*, y=-8.009*, direction=16.5°*
  9: 0x010B [0x79] EventEntity looks at Gilgamesh (ID: 17809411/0x010FC003) (Basic look)
 10: 0x0115 [0x6B] STOP_AND_IDLE: Gilgamesh (ID: 17809411/0x010FC003) stops current action and resets to idle (animation="id10")
 11: 0x011E [0x46] CAMERA_CONTROL: Disable user control
 12: 0x0120 [0x45] LOAD_SCHEDULED_TASK: Load scheduler "s001" with entities [LocalPlayer, LocalPlayer], work=[220*, 0*]
 13: 0x0131 [0x45] LOAD_SCHEDULED_TASK: Load scheduler "fdi0" with entities [LocalPlayer, LocalPlayer], work=[200*, 0*]
 14: 0x0142 [0x79] Gilgamesh (ID: 17809411/0x010FC003) looks at LocalPlayer (Basic look)
 15: 0x014C [0x2B] Gilgamesh (ID: 17809411/0x010FC003) [10388*]:
    → "Arrrg, so you're the landlubbin' adventurer that they sent from Bastok."
 16: 0x0153 [0x23] WAIT_FOR_DIALOG_INTERACTION
 17: 0x0154 [0x7B] Gilgamesh (ID: 17809411/0x010FC003) stops talking
 18: 0x0159 [0x2B] Gilgamesh (ID: 17809411/0x010FC003) [10389*]:
    → "I'm a busy man, so let's cut with the chitchat and get right down to business."
 19: 0x0160 [0x23] WAIT_FOR_DIALOG_INTERACTION
 20: 0x0161 [0x45] LOAD_SCHEDULED_TASK: Load scheduler "s002" with entities [LocalPlayer, LocalPlayer], work=[220*, 0*]
 21: 0x0172 [0x2B] Gilgamesh (ID: 17809411/0x010FC003) [10390*]:
    → "Lately, you adventurers are making quite a killin' on items, weapons, and the like. We knew that you were out there, but we didn't think you'd be givin' us this much competition."
 22: 0x0179 [0x23] WAIT_FOR_DIALOG_INTERACTION
 23: 0x017A [0x6B] STOP_AND_IDLE: Gilgamesh (ID: 17809411/0x010FC003) stops current action and resets to idle (animation="idl0")
 24: 0x0183 [0x4A] Gilgamesh (ID: 17809411/0x010FC003) looks at LocalPlayer
 25: 0x018C [0x2B] Gilgamesh (ID: 17809411/0x010FC003) [10391*]:
    → "But rather than gettin' in each other's way, I thought that there might be a way we could work together. What I want ya t'do is give me an idea of what you adventurers are capable of."
 26: 0x0193 [0x23] WAIT_FOR_DIALOG_INTERACTION
 27: 0x0194 [0x5B] LOAD_EXT_SCHEDULER: Load scheduler "tlk0" with entities [Gilgamesh (ID: 17809411/0x010FC003), Gilgamesh (ID: 17809411/0x010FC003)], work=566*
 28: 0x01A3 [0x2B] Gilgamesh (ID: 17809411/0x010FC003) [10392*]:
    → "There are a few items that me mateys couldn't acquire. I want ya t'go and get them."
 29: 0x01AA [0x23] WAIT_FOR_DIALOG_INTERACTION
 30: 0x01AB [0x52] END_LOAD_SCHEDULER: End scheduler "s002" with entities [LocalPlayer, LocalPlayer], work=220*
 31: 0x01BA [0x45] LOAD_SCHEDULED_TASK: Load scheduler "s003" with entities [LocalPlayer, LocalPlayer], work=[220*, 0*]
 32: 0x01CB [0x2B] Gilgamesh (ID: 17809411/0x010FC003) [10393*]:
    → "Travel to one of them molten lava falls in Ifrit's Cauldron."
 33: 0x01D2 [0x23] WAIT_FOR_DIALOG_INTERACTION
 34: 0x01D3 [0x5B] LOAD_EXT_SCHEDULER: Load scheduler "tlk1" with entities [Gilgamesh (ID: 17809411/0x010FC003), Gilgamesh (ID: 17809411/0x010FC003)], work=566*
 35: 0x01E2 [0x2B] Gilgamesh (ID: 17809411/0x010FC003) [10394*]:
    → "If you throw in $6, a monster will appear. Bring back the $7 that the beast has on it."
 36: 0x01E9 [0x23] WAIT_FOR_DIALOG_INTERACTION
 37: 0x01EA [0x52] END_LOAD_SCHEDULER: End scheduler "s003" with entities [LocalPlayer, LocalPlayer], work=220*
 38: 0x01F9 [0x45] LOAD_SCHEDULED_TASK: Load scheduler "ovl1" with entities [LocalPlayer, LocalPlayer], work=[200*, 0*]
 39: 0x020A [0x6B] STOP_AND_IDLE: Gilgamesh (ID: 17809411/0x010FC003) stops current action and resets to idle (animation="id10")
 40: 0x0213 [0x45] LOAD_SCHEDULED_TASK: Load scheduler "s001" with entities [LocalPlayer, LocalPlayer], work=[220*, 0*]
 41: 0x0224 [0x1C] WAIT(20* ticks)
 42: 0x0227 [0x2B] Gilgamesh (ID: 17809411/0x010FC003) [10395*]:
    → "Do ya think you can handle it, ya landlubber?"
 43: 0x022E [0x23] WAIT_FOR_DIALOG_INTERACTION
 44: 0x022F [0x45] LOAD_SCHEDULED_TASK: Load scheduler "fdo1" with entities [LocalPlayer, LocalPlayer], work=[200*, 0*]
 45: 0x0240 [0x1C] WAIT(60* ticks)
 46: 0x0243 [0x46] CAMERA_CONTROL: Restore default settings
 47: 0x0245 [0x45] LOAD_SCHEDULED_TASK: Load scheduler "fdi1" with entities [LocalPlayer, LocalPlayer], work=[200*, 0*]
 48: 0x0256 [0x21] END_EVENT
 49: 0x0257 [0x00] END_REQSTACK()
```

### Event 99

#### Metadata

| Field        | Value     |
|--------------|-----------|
| Entrypoint   | 0x0258    |
| Data Size    | 814 bytes |
| Instructions | 105       |

```
      00 01 02 03 04 05 06 07  08 09 0A 0B 0C 0D 0E 0F
      -- -- -- -- -- -- -- --  -- -- -- -- -- -- -- --
0250:                          20 01 03 08 10 27 80 03           ....'..
0260: 09 10 28 80 42 75 00 26  80 75 01 45 25 80 F0 FF  ..(.Bu.&.u.E%...
0270: FF 7F F0 FF FF 7F 66 64  6F 30 24 80 1C 29 80 38  ......fdo0$..).8
0280: 2A 80 37 2B 80 2C 80 1B  80 2D 80 79 00 F8 FF FF  *.7+.,...-.y....
0290: 7F 03 C0 0F 01 6B 69 64  31 30 03 C0 0F 01 46 01  .....kid10....F.
02A0: 4E 00 45 C0 0F 01 45 2E  80 F0 FF FF 7F F0 FF FF  N.E...E.........
02B0: 7F 73 30 30 31 24 80 45  25 80 F0 FF FF 7F F0 FF  .s001$.E%.......
02C0: FF 7F 66 64 69 30 24 80  79 00 03 C0 0F 01 F0 FF  ..fdi0$.y.......
02D0: FF 7F 2B 03 C0 0F 01 3A  80 23 7B 03 C0 0F 01 5D  ..+....:.#{....]
02E0: 24 80 3B 80 2B 03 C0 0F  01 3C 80 23 45 2E 80 F0  $.;.+....<.#E...
02F0: FF FF 7F F0 FF FF 7F 73  30 30 34 24 80 5C 00 3D  .......s004$.\.=
0300: 80 5C 01 3D 80 27 0A 45  C0 0F 01 03 79 00 45 C0  .\.=.'.E....y.E.
0310: 0F 01 03 C0 0F 01 2B 45  C0 0F 01 3E 80 23 2A 0A  ......+E...>.#*.
0320: 45 C0 0F 01 79 00 F0 FF  FF 7F 45 C0 0F 01 27 0A  E...y.....E...'.
0330: 03 C0 0F 01 13 1C 29 80  2B 03 C0 0F 01 3F 80 23  ......).+....?.#
0340: 66 18 80 45 C0 0F 01 45  C0 0F 01 74 6C 6B 30 2B  f..E...E...tlk0+
0350: 45 C0 0F 01 40 80 23 6B  69 64 6C 30 45 C0 0F 01  E...@.#kidl0E...
0360: 52 2E 80 F0 FF FF 7F F0  FF FF 7F 73 30 30 34 45  R..........s004E
0370: 2E 80 F0 FF FF 7F F0 FF  FF 7F 73 30 30 35 24 80  ..........s005$.
0380: 2B 03 C0 0F 01 41 80 23  66 10 80 45 C0 0F 01 45  +....A.#f..E...E
0390: C0 0F 01 75 6E 7A 30 2B  45 C0 0F 01 42 80 23 5B  ...unz0+E...B.#[
03A0: 33 80 03 C0 0F 01 03 C0  0F 01 74 6C 6B 30 2B 03  3.........tlk0+.
03B0: C0 0F 01 43 80 23 2B 03  C0 0F 01 44 80 23 5B 33  ...C.#+....D.#[3
03C0: 80 03 C0 0F 01 03 C0 0F  01 74 6C 6B 31 52 2E 80  .........tlk1R..
03D0: F0 FF FF 7F F0 FF FF 7F  73 30 30 35 45 2E 80 F0  ........s005E...
03E0: FF FF 7F F0 FF FF 7F 73  30 30 36 24 80 2B 45 C0  .......s006$.+E.
03F0: 0F 01 45 80 23 66 10 80  45 C0 0F 01 45 C0 0F 01  ..E.#f..E...E...
0400: 75 74 6C 30 2B 45 C0 0F  01 46 80 23 66 10 80 45  utl0+E...F.#f..E
0410: C0 0F 01 45 C0 0F 01 75  74 6C 31 2B 45 C0 0F 01  ...E...utl1+E...
0420: 47 80 23 45 25 80 F0 FF  FF 7F F0 FF FF 7F 6F 76  G.#E%.........ov
0430: 6C 31 24 80 52 2E 80 F0  FF FF 7F F0 FF FF 7F 73  l1$.R..........s
0440: 30 30 36 6B 69 64 6C 30  45 C0 0F 01 45 2E 80 F0  006kidl0E...E...
0450: FF FF 7F F0 FF FF 7F 73  30 30 37 24 80 5B 33 80  .......s007$.[3.
0460: 03 C0 0F 01 03 C0 0F 01  74 68 6B 30 2B 03 C0 0F  ........thk0+...
0470: 01 48 80 23 66 18 80 45  C0 0F 01 45 C0 0F 01 70  .H.#f..E...E...p
0480: 61 73 30 2B 45 C0 0F 01  49 80 23 2B 45 C0 0F 01  as0+E...I.#+E...
0490: 4A 80 23 52 2E 80 F0 FF  FF 7F F0 FF FF 7F 73 30  J.#R..........s0
04A0: 30 37 45 2E 80 F0 FF FF  7F F0 FF FF 7F 73 30 30  07E..........s00
04B0: 39 24 80 5B 33 80 03 C0  0F 01 03 C0 0F 01 74 68  9$.[3.........th
04C0: 6B 31 2B 03 C0 0F 01 4B  80 23 66 10 80 45 C0 0F  k1+....K.#f..E..
04D0: 01 45 C0 0F 01 74 6C 6B  30 2B 45 C0 0F 01 4C 80  .E...tlk0+E...L.
04E0: 23 6B 69 64 6C 30 45 C0  0F 01 5B 33 80 03 C0 0F  #kidl0E...[3....
04F0: 01 03 C0 0F 01 66 74 6B  30 2B 03 C0 0F 01 4D 80  .....ftk0+....M.
0500: 23 5B 33 80 03 C0 0F 01  03 C0 0F 01 66 74 6B 31  #[3.........ftk1
0510: 52 2E 80 F0 FF FF 7F F0  FF FF 7F 73 30 30 39 45  R..........s009E
0520: 2E 80 F0 FF FF 7F F0 FF  FF 7F 73 30 30 38 24 80  ..........s008$.
0530: 2B 45 C0 0F 01 4E 80 23  4A 45 C0 0F 01 F0 FF FF  +E...N.#JE......
0540: 7F 2B 45 C0 0F 01 4F 80  23 27 0A 45 C0 0F 01 04  .+E...O.#'.E....
0550: 5D 24 80 39 80 45 25 80  F0 FF FF 7F F0 FF FF 7F  ]$.9.E%.........
0560: 66 64 6F 31 24 80 1C 39  80 46 00 5C 00 50 80 5C  fdo1$..9.F.\.P.\
0570: 01 50 80 45 25 80 F0 FF  FF 7F F0 FF FF 7F 66 64  .P.E%.........fd
0580: 69 31 24 80 21 00                                 i1$.!.          
```

#### Opcodes

```
  0: 0x0258 [0x20] SET_CLI_EVENT_UC_FLAG: Lock player control
  1: 0x025A [0x03] Work_Zone[8] = 646*
  2: 0x025F [0x03] Work_Zone[9] = 1160*
  3: 0x0264 [0x42] SET_CLI_EVENT_CANCEL_DATA()
  4: 0x0265 [0x75] LOAD_ROOM(Load indoor room, room=514*)
  5: 0x0269 [0x75] LOAD_ROOM(No action)
  6: 0x026B [0x45] LOAD_SCHEDULED_TASK: Load scheduler "fdo0" with entities [LocalPlayer, LocalPlayer], work=[200*, 0*]
  7: 0x027C [0x1C] WAIT(30* ticks)
  8: 0x027F [0x38] SET_CLIENT_EVENT_MODE(mode=3*)
  9: 0x0282 [0x37] UPDATE_EVENT_POSITION_AND_DIR: x=120.048*, z=-11.490*, y=-8.009*, direction=16.5°*
 10: 0x028B [0x79] EventEntity looks at Gilgamesh (ID: 17809411/0x010FC003) (Basic look)
 11: 0x0295 [0x6B] STOP_AND_IDLE: Gilgamesh (ID: 17809411/0x010FC003) stops current action and resets to idle (animation="id10")
 12: 0x029E [0x46] CAMERA_CONTROL: Disable user control
 13: 0x02A0 [0x4E] SET_ENTITY_HIDE_FLAG: Show Ayame (ID: 17809477/0x010FC045)
 14: 0x02A6 [0x45] LOAD_SCHEDULED_TASK: Load scheduler "s001" with entities [LocalPlayer, LocalPlayer], work=[220*, 0*]
 15: 0x02B7 [0x45] LOAD_SCHEDULED_TASK: Load scheduler "fdi0" with entities [LocalPlayer, LocalPlayer], work=[200*, 0*]
 16: 0x02C8 [0x79] Gilgamesh (ID: 17809411/0x010FC003) looks at LocalPlayer (Basic look)
 17: 0x02D2 [0x2B] Gilgamesh (ID: 17809411/0x010FC003) [10396*]:
    → "Hah hah hah! Me landlubbin' adventurer brought back $7. It looks like I need to find myself some new mateys! Hah hah hah!"
 18: 0x02D9 [0x23] WAIT_FOR_DIALOG_INTERACTION
 19: 0x02DA [0x7B] Gilgamesh (ID: 17809411/0x010FC003) stops talking
 20: 0x02DF [0x5D] SET_MUSIC_VOLUME(volume=0*, fade_time=120*)
 21: 0x02E4 [0x2B] Gilgamesh (ID: 17809411/0x010FC003) [10397*]:
    → "I guess this means you've completed your mission. Now let me write you somethin' you can take back to..."
 22: 0x02EB [0x23] WAIT_FOR_DIALOG_INTERACTION
 23: 0x02EC [0x45] LOAD_SCHEDULED_TASK: Load scheduler "s004" with entities [LocalPlayer, LocalPlayer], work=[220*, 0*]
 24: 0x02FD [0x5C] MUSIC_CONTROL: Set Idle (Day) music to song 154*
 25: 0x0301 [0x5C] MUSIC_CONTROL: Set Idle (Night) music to song 154*
 26: 0x0305 [0x27] REQ_SET(priority=0x0A, entity_id=Ayame (ID: 17809477/0x010FC045), tag_num=0x03)
 27: 0x030C [0x79] Ayame (ID: 17809477/0x010FC045) looks at Gilgamesh (ID: 17809411/0x010FC003) (Basic look)
 28: 0x0316 [0x2B] Ayame (ID: 17809477/0x010FC045) [10398*]:
    → "That won't be necessary, sir."
 29: 0x031D [0x23] WAIT_FOR_DIALOG_INTERACTION
 30: 0x031E [0x2A] GET_REQ_LEVEL(level=10, entity_id=Ayame (ID: 17809477/0x010FC045))
 31: 0x0324 [0x79] LocalPlayer looks at Ayame (ID: 17809477/0x010FC045) (Basic look)
 32: 0x032E [0x27] REQ_SET(priority=0x0A, entity_id=Gilgamesh (ID: 17809411/0x010FC003), tag_num=0x13)
 33: 0x0335 [0x1C] WAIT(30* ticks)
 34: 0x0338 [0x2B] Gilgamesh (ID: 17809411/0x010FC003) [10399*]:
    → "Arrrg, why if it ain't little Ayaya. Ya get prettier every time I sees ya."
 35: 0x033F [0x23] WAIT_FOR_DIALOG_INTERACTION
 36: 0x0340 [0x66] LOAD_EXT_SCHEDULER_MAIN: Load scheduler "tlk0" with entities [Ayame (ID: 17809477/0x010FC045), Ayame (ID: 17809477/0x010FC045)], work=10*
 37: 0x034F [0x2B] Ayame (ID: 17809477/0x010FC045) [10400*]:
    → "Gilgamesh. It was fine when you called me that when I was a child, but I'm twenty years old now."
 38: 0x0356 [0x23] WAIT_FOR_DIALOG_INTERACTION
 39: 0x0357 [0x6B] STOP_AND_IDLE: Ayame (ID: 17809477/0x010FC045) stops current action and resets to idle (animation="idl0")
 40: 0x0360 [0x52] END_LOAD_SCHEDULER: End scheduler "s004" with entities [LocalPlayer, LocalPlayer], work=220*
 41: 0x036F [0x45] LOAD_SCHEDULED_TASK: Load scheduler "s005" with entities [LocalPlayer, LocalPlayer], work=[220*, 0*]
 42: 0x0380 [0x2B] Gilgamesh (ID: 17809411/0x010FC003) [10401*]:
    → "So, what brings ya t'these here parts? Come to check up on your adventurer?"
 43: 0x0387 [0x23] WAIT_FOR_DIALOG_INTERACTION
 44: 0x0388 [0x66] LOAD_EXT_SCHEDULER_MAIN: Load scheduler "unz0" with entities [Ayame (ID: 17809477/0x010FC045), Ayame (ID: 17809477/0x010FC045)], work=11*
 45: 0x0397 [0x2B] Ayame (ID: 17809477/0x010FC045) [10402*]:
    → "That is one of the reasons. We wouldn't want you snatching up one of Bastok's best."
 46: 0x039E [0x23] WAIT_FOR_DIALOG_INTERACTION
 47: 0x039F [0x5B] LOAD_EXT_SCHEDULER: Load scheduler "tlk0" with entities [Gilgamesh (ID: 17809411/0x010FC003), Gilgamesh (ID: 17809411/0x010FC003)], work=566*
 48: 0x03AE [0x2B] Gilgamesh (ID: 17809411/0x010FC003) [10403*]:
    → "If I wanted to snatch up Bastok's best, I'd be snatching up the fine samurai standing in front of me. How about it, Ayaya? Leave that boring job of yours and join us!"
 49: 0x03B5 [0x23] WAIT_FOR_DIALOG_INTERACTION
 50: 0x03B6 [0x2B] Gilgamesh (ID: 17809411/0x010FC003) [10404*]:
    → "We'd love t'have you. You'd have the chance t'wield your blade whenever you please, not when that president says you can. Arrrg, what d'ya say?"
 51: 0x03BD [0x23] WAIT_FOR_DIALOG_INTERACTION
 52: 0x03BE [0x5B] LOAD_EXT_SCHEDULER: Load scheduler "tlk1" with entities [Gilgamesh (ID: 17809411/0x010FC003), Gilgamesh (ID: 17809411/0x010FC003)], work=566*
 53: 0x03CD [0x52] END_LOAD_SCHEDULER: End scheduler "s005" with entities [LocalPlayer, LocalPlayer], work=220*
 54: 0x03DC [0x45] LOAD_SCHEDULED_TASK: Load scheduler "s006" with entities [LocalPlayer, LocalPlayer], work=[220*, 0*]
 55: 0x03ED [0x2B] Ayame (ID: 17809477/0x010FC045) [10405*]:
    → "While I am flattered by your offer, I am satisfied with, and hold pride in, my current post."
 56: 0x03F4 [0x23] WAIT_FOR_DIALOG_INTERACTION
 57: 0x03F5 [0x66] LOAD_EXT_SCHEDULER_MAIN: Load scheduler "utl0" with entities [Ayame (ID: 17809477/0x010FC045), Ayame (ID: 17809477/0x010FC045)], work=11*
 58: 0x0404 [0x2B] Ayame (ID: 17809477/0x010FC045) [10406*]:
    → "I realize that I still have much to learn, but at the same time I feel that I must travel the roads I see fit to travel."
 59: 0x040B [0x23] WAIT_FOR_DIALOG_INTERACTION
 60: 0x040C [0x66] LOAD_EXT_SCHEDULER_MAIN: Load scheduler "utl1" with entities [Ayame (ID: 17809477/0x010FC045), Ayame (ID: 17809477/0x010FC045)], work=11*
 61: 0x041B [0x2B] Ayame (ID: 17809477/0x010FC045) [10407*]:
    → "Swords and muskets are not made to be drawn. That is what my parents taught me, and those are the words I wish to live by."
 62: 0x0422 [0x23] WAIT_FOR_DIALOG_INTERACTION
 63: 0x0423 [0x45] LOAD_SCHEDULED_TASK: Load scheduler "ovl1" with entities [LocalPlayer, LocalPlayer], work=[200*, 0*]
 64: 0x0434 [0x52] END_LOAD_SCHEDULER: End scheduler "s006" with entities [LocalPlayer, LocalPlayer], work=220*
 65: 0x0443 [0x6B] STOP_AND_IDLE: Ayame (ID: 17809477/0x010FC045) stops current action and resets to idle (animation="idl0")
 66: 0x044C [0x45] LOAD_SCHEDULED_TASK: Load scheduler "s007" with entities [LocalPlayer, LocalPlayer], work=[220*, 0*]
 67: 0x045D [0x5B] LOAD_EXT_SCHEDULER: Load scheduler "thk0" with entities [Gilgamesh (ID: 17809411/0x010FC003), Gilgamesh (ID: 17809411/0x010FC003)], work=566*
 68: 0x046C [0x2B] Gilgamesh (ID: 17809411/0x010FC003) [10408*]:
    → "Ayaya..."
 69: 0x0473 [0x23] WAIT_FOR_DIALOG_INTERACTION
 70: 0x0474 [0x66] LOAD_EXT_SCHEDULER_MAIN: Load scheduler "pas0" with entities [Ayame (ID: 17809477/0x010FC045), Ayame (ID: 17809477/0x010FC045)], work=10*
 71: 0x0483 [0x2B] Ayame (ID: 17809477/0x010FC045) [10409*]:
    → "I have brought with me a document from the president himself. It covers the treatment of Bastokan adventurers, as well as overseas trade guidelines."
 72: 0x048A [0x23] WAIT_FOR_DIALOG_INTERACTION
 73: 0x048B [0x2B] Ayame (ID: 17809477/0x010FC045) [10410*]:
    → "You may want to read over the details at a later time. You need not give an answer now. However, I trust that Norg will take steps in the right direction."
 74: 0x0492 [0x23] WAIT_FOR_DIALOG_INTERACTION
 75: 0x0493 [0x52] END_LOAD_SCHEDULER: End scheduler "s007" with entities [LocalPlayer, LocalPlayer], work=220*
 76: 0x04A2 [0x45] LOAD_SCHEDULED_TASK: Load scheduler "s009" with entities [LocalPlayer, LocalPlayer], work=[220*, 0*]
 77: 0x04B3 [0x5B] LOAD_EXT_SCHEDULER: Load scheduler "thk1" with entities [Gilgamesh (ID: 17809411/0x010FC003), Gilgamesh (ID: 17809411/0x010FC003)], work=566*
 78: 0x04C2 [0x2B] Gilgamesh (ID: 17809411/0x010FC003) [10411*]:
    → "Arrrg, ya don't leave much room fer choice now, do you?"
 79: 0x04C9 [0x23] WAIT_FOR_DIALOG_INTERACTION
 80: 0x04CA [0x66] LOAD_EXT_SCHEDULER_MAIN: Load scheduler "tlk0" with entities [Ayame (ID: 17809477/0x010FC045), Ayame (ID: 17809477/0x010FC045)], work=11*
 81: 0x04D9 [0x2B] Ayame (ID: 17809477/0x010FC045) [10412*]:
    → "I'll take that as a compliment. I learned everything I needed to know from the years I spent here in training."
 82: 0x04E0 [0x23] WAIT_FOR_DIALOG_INTERACTION
 83: 0x04E1 [0x6B] STOP_AND_IDLE: Ayame (ID: 17809477/0x010FC045) stops current action and resets to idle (animation="idl0")
 84: 0x04EA [0x5B] LOAD_EXT_SCHEDULER: Load scheduler "ftk0" with entities [Gilgamesh (ID: 17809411/0x010FC003), Gilgamesh (ID: 17809411/0x010FC003)], work=566*
 85: 0x04F9 [0x2B] Gilgamesh (ID: 17809411/0x010FC003) [10413*]:
    → "Okay, okay. You go back and tell the old president I said hello. Oh, and don't ya forget t'talk to Ryoma before you leave. It's the least ya could do fer him."
 86: 0x0500 [0x23] WAIT_FOR_DIALOG_INTERACTION
 87: 0x0501 [0x5B] LOAD_EXT_SCHEDULER: Load scheduler "ftk1" with entities [Gilgamesh (ID: 17809411/0x010FC003), Gilgamesh (ID: 17809411/0x010FC003)], work=566*
 88: 0x0510 [0x52] END_LOAD_SCHEDULER: End scheduler "s009" with entities [LocalPlayer, LocalPlayer], work=220*
 89: 0x051F [0x45] LOAD_SCHEDULED_TASK: Load scheduler "s008" with entities [LocalPlayer, LocalPlayer], work=[220*, 0*]
 90: 0x0530 [0x2B] Ayame (ID: 17809477/0x010FC045) [10414*]:
    → "I'm sorry, but that will have to wait until another day... However, maybe next time I will bring along my younger sister."
 91: 0x0537 [0x23] WAIT_FOR_DIALOG_INTERACTION
 92: 0x0538 [0x4A] Ayame (ID: 17809477/0x010FC045) looks at LocalPlayer
 93: 0x0541 [0x2B] Ayame (ID: 17809477/0x010FC045) [10415*]:
    → "Your assignment in Norg is complete. You may return to Bastok now, and do not forget to report to Naji upon your arrival."
 94: 0x0548 [0x23] WAIT_FOR_DIALOG_INTERACTION
 95: 0x0549 [0x27] REQ_SET(priority=0x0A, entity_id=Ayame (ID: 17809477/0x010FC045), tag_num=0x04)
 96: 0x0550 [0x5D] SET_MUSIC_VOLUME(volume=0*, fade_time=60*)
 97: 0x0555 [0x45] LOAD_SCHEDULED_TASK: Load scheduler "fdo1" with entities [LocalPlayer, LocalPlayer], work=[200*, 0*]
 98: 0x0566 [0x1C] WAIT(60* ticks)
 99: 0x0569 [0x46] CAMERA_CONTROL: Restore default settings
100: 0x056B [0x5C] MUSIC_CONTROL: Set Idle (Day) music to song 209*
101: 0x056F [0x5C] MUSIC_CONTROL: Set Idle (Night) music to song 209*
102: 0x0573 [0x45] LOAD_SCHEDULED_TASK: Load scheduler "fdi1" with entities [LocalPlayer, LocalPlayer], work=[200*, 0*]
103: 0x0584 [0x21] END_EVENT
104: 0x0585 [0x00] END_REQSTACK()
```

### Event 65535.10

#### Metadata

| Field        | Value    |
|--------------|----------|
| Entrypoint   | 0x0586   |
| Data Size    | 10 bytes |
| Instructions | 2        |

```
      00 01 02 03 04 05 06 07  08 09 0A 0B 0C 0D 0E 0F
      -- -- -- -- -- -- -- --  -- -- -- -- -- -- -- --
0580:                   37 51  80 52 80 53 80 54 80 00        7Q.R.S.T..
```

#### Opcodes

```
  0: 0x0586 [0x37] UPDATE_EVENT_POSITION_AND_DIR: x=-450.623*, z=-239.427*, y=-167.199*, direction=175.8°*
  1: 0x058F [0x00] END_REQSTACK()
```

### Event 65535.11

#### Metadata

| Field        | Value    |
|--------------|----------|
| Entrypoint   | 0x0590   |
| Data Size    | 27 bytes |
| Instructions | 7        |

```
      00 01 02 03 04 05 06 07  08 09 0A 0B 0C 0D 0E 0F
      -- -- -- -- -- -- -- --  -- -- -- -- -- -- -- --
0590: 61 00 32 07 80 1F 00 55  80 56 80 57 80 1F 01 6F  a.2....U.V.W...o
05A0: 79 00 F0 FF FF 7F 4B C0  0F 01 00                 y.....K....     
```

#### Opcodes

```
  0: 0x0590 [0x61] EventEntity->Render.Flags2 &= ~0x00000001
  1: 0x0592 [0x32] ExtData[1]->MainSpeed = 13* * 0.1
  2: 0x0595 [0x1F] MOVE_ENTITY: EventEntity moves to X=-454.046*, Z=-239.692*, Y=-167.111*
  3: 0x059D [0x1F] MOVE_ENTITY: Update entity position (mode=1)
  4: 0x059F [0x6F] WAIT_FRAME_DELAY: Yield until WaitTime reaches zero
  5: 0x05A0 [0x79] LocalPlayer looks at Raogrimm (ID: 17809483/0x010FC04B) (Basic look)
  6: 0x05AA [0x00] END_REQSTACK()
```

### Event 65535.12

#### Metadata

| Field        | Value    |
|--------------|----------|
| Entrypoint   | 0x05AB   |
| Data Size    | 15 bytes |
| Instructions | 3        |

```
      00 01 02 03 04 05 06 07  08 09 0A 0B 0C 0D 0E 0F
      -- -- -- -- -- -- -- --  -- -- -- -- -- -- -- --
05A0:                                   37 58 80 59 80             7X.Y.
05B0: 53 80 5A 80 1E 4D C0 0F  01 00                    S.Z..M....      
```

#### Opcodes

```
  0: 0x05AB [0x37] UPDATE_EVENT_POSITION_AND_DIR: x=-454.295*, z=-239.261*, y=-167.199*, direction=20.4°*
  1: 0x05B4 [0x1E] EventEntity looks at Kam'lanaut (ID: 17809485/0x010FC04D) and starts talking
  2: 0x05B9 [0x00] END_REQSTACK()
```

### Event 65535.13

#### Metadata

| Field        | Value   |
|--------------|---------|
| Entrypoint   | 0x05BA  |
| Data Size    | 4 bytes |
| Instructions | 2       |

```
      00 01 02 03 04 05 06 07  08 09 0A 0B 0C 0D 0E 0F
      -- -- -- -- -- -- -- --  -- -- -- -- -- -- -- --
05B0:                                39 5B 80 00                  9[..  
```

#### Opcodes

```
  0: 0x05BA [0x39] SET_ENTITY_DIRECTION(direction=16.2°*)
  1: 0x05BD [0x00] END_REQSTACK()
```

### Event 65535.14

#### Metadata

| Field        | Value    |
|--------------|----------|
| Entrypoint   | 0x05BE   |
| Data Size    | 21 bytes |
| Instructions | 4        |

```
      00 01 02 03 04 05 06 07  08 09 0A 0B 0C 0D 0E 0F
      -- -- -- -- -- -- -- --  -- -- -- -- -- -- -- --
05B0:                                            1C 5C                .\
05C0: 80 4B F0 FF FF 7F 5D 80  79 00 F0 FF FF 7F 4C C0  .K....].y.....L.
05D0: 0F 01 00                                          ...             
```

#### Opcodes

```
  0: 0x05BE [0x1C] WAIT(45* ticks)
  1: 0x05C1 [0x4B] UPDATE_ENTITY_YAW(entity=LocalPlayer, yaw=12.1°*)
  2: 0x05C8 [0x79] LocalPlayer looks at Eald'narche (ID: 17809484/0x010FC04C) (Basic look)
  3: 0x05D2 [0x00] END_REQSTACK()
```

### Event 65535.15

#### Metadata

| Field        | Value    |
|--------------|----------|
| Entrypoint   | 0x05D3   |
| Data Size    | 15 bytes |
| Instructions | 3        |

```
      00 01 02 03 04 05 06 07  08 09 0A 0B 0C 0D 0E 0F
      -- -- -- -- -- -- -- --  -- -- -- -- -- -- -- --
05D0:          37 5E 80 5F 80  60 80 61 80 7B F0 FF FF     7^._.`.a.{...
05E0: 7F 00                                             ..              
```

#### Opcodes

```
  0: 0x05D3 [0x37] UPDATE_EVENT_POSITION_AND_DIR: x=-454.145*, z=-238.475*, y=-167.057*, direction=174.5°*
  1: 0x05DC [0x7B] LocalPlayer stops talking
  2: 0x05E1 [0x00] END_REQSTACK()
```

### Event 65535.16

#### Metadata

| Field        | Value    |
|--------------|----------|
| Entrypoint   | 0x05E2   |
| Data Size    | 15 bytes |
| Instructions | 3        |

```
      00 01 02 03 04 05 06 07  08 09 0A 0B 0C 0D 0E 0F
      -- -- -- -- -- -- -- --  -- -- -- -- -- -- -- --
05E0:       5E 69 64 6C 30 37  62 80 63 80 64 80 65 80    ^idl07b.c.d.e.
05F0: 00                                                .               
```

#### Opcodes

```
  0: 0x05E2 [0x5E] EventEntity goes idle (kills current action) (animation: "idl0")
  1: 0x05E7 [0x37] UPDATE_EVENT_POSITION_AND_DIR: x=-438.402*, z=-239.884*, y=-167.101*, direction=2.8°*
  2: 0x05F0 [0x00] END_REQSTACK()
```

### Event 65535.17

#### Metadata

| Field        | Value    |
|--------------|----------|
| Entrypoint   | 0x05F1   |
| Data Size    | 26 bytes |
| Instructions | 7        |

```
      00 01 02 03 04 05 06 07  08 09 0A 0B 0C 0D 0E 0F
      -- -- -- -- -- -- -- --  -- -- -- -- -- -- -- --
05F0:    61 00 32 66 80 1F 00  67 80 68 80 69 80 1F 01   a.2f...g.h.i...
0600: 6F 37 6A 80 6B 80 6C 80  6D 80 00                 o7j.k.l.m..     
```

#### Opcodes

```
  0: 0x05F1 [0x61] EventEntity->Render.Flags2 &= ~0x00000001
  1: 0x05F3 [0x32] ExtData[1]->MainSpeed = 40* * 0.1
  2: 0x05F6 [0x1F] MOVE_ENTITY: EventEntity moves to X=-425.766*, Z=-240.256*, Y=-167.000*
  3: 0x05FE [0x1F] MOVE_ENTITY: Update entity position (mode=1)
  4: 0x0600 [0x6F] WAIT_FRAME_DELAY: Yield until WaitTime reaches zero
  5: 0x0601 [0x37] UPDATE_EVENT_POSITION_AND_DIR: x=-414.457*, z=-239.821*, y=-166.750*, direction=1.1°*
  6: 0x060A [0x00] END_REQSTACK()
```

### Event 65535.18

#### Metadata

| Field        | Value    |
|--------------|----------|
| Entrypoint   | 0x060B   |
| Data Size    | 10 bytes |
| Instructions | 2        |

```
      00 01 02 03 04 05 06 07  08 09 0A 0B 0C 0D 0E 0F
      -- -- -- -- -- -- -- --  -- -- -- -- -- -- -- --
0600:                                   37 11 80 12 80             7....
0610: 13 80 6E 80 00                                    ..n..           
```

#### Opcodes

```
  0: 0x060B [0x37] UPDATE_EVENT_POSITION_AND_DIR: x=-20.136*, z=-55.429*, y=0.146*, direction=269.9°*
  1: 0x0614 [0x00] END_REQSTACK()
```

### Event 65535.19

#### Metadata

| Field        | Value    |
|--------------|----------|
| Entrypoint   | 0x0615   |
| Data Size    | 17 bytes |
| Instructions | 6        |

```
      00 01 02 03 04 05 06 07  08 09 0A 0B 0C 0D 0E 0F
      -- -- -- -- -- -- -- --  -- -- -- -- -- -- -- --
0610:                61 00 32  6F 80 1F 00 70 80 71 80       a.2o...p.q.
0620: 53 80 1F 01 6F 00                                 S...o.          
```

#### Opcodes

```
  0: 0x0615 [0x61] EventEntity->Render.Flags2 &= ~0x00000001
  1: 0x0617 [0x32] ExtData[1]->MainSpeed = 35* * 0.1
  2: 0x061A [0x1F] MOVE_ENTITY: EventEntity moves to X=-456.226*, Z=-238.377*, Y=-167.199*
  3: 0x0622 [0x1F] MOVE_ENTITY: Update entity position (mode=1)
  4: 0x0624 [0x6F] WAIT_FRAME_DELAY: Yield until WaitTime reaches zero
  5: 0x0625 [0x00] END_REQSTACK()
```

### Event 65535.20

#### Metadata

| Field        | Value    |
|--------------|----------|
| Entrypoint   | 0x0626   |
| Data Size    | 10 bytes |
| Instructions | 2        |

```
      00 01 02 03 04 05 06 07  08 09 0A 0B 0C 0D 0E 0F
      -- -- -- -- -- -- -- --  -- -- -- -- -- -- -- --
0620:                   37 72  80 73 80 02 80 74 80 00        7r.s...t..
```

#### Opcodes

```
  0: 0x0626 [0x37] UPDATE_EVENT_POSITION_AND_DIR: x=90.532*, z=-7.486*, y=-7.086*, direction=264.4°*
  1: 0x062F [0x00] END_REQSTACK()
```

### Event 65535.21

#### Metadata

| Field        | Value    |
|--------------|----------|
| Entrypoint   | 0x0630   |
| Data Size    | 20 bytes |
| Instructions | 3        |

```
      00 01 02 03 04 05 06 07  08 09 0A 0B 0C 0D 0E 0F
      -- -- -- -- -- -- -- --  -- -- -- -- -- -- -- --
0630: 37 75 80 76 80 02 80 77  80 79 00 F8 FF FF 7F F8  7u.v...w.y......
0640: FF FF 7F 00                                       ....            
```

#### Opcodes

```
  0: 0x0630 [0x37] UPDATE_EVENT_POSITION_AND_DIR: x=99.384*, z=-11.668*, y=-7.086*, direction=357.4°*
  1: 0x0639 [0x79] EventEntity looks at EventEntity (Basic look)
  2: 0x0643 [0x00] END_REQSTACK()
```

### Event 65535.22

#### Metadata

| Field        | Value    |
|--------------|----------|
| Entrypoint   | 0x0644   |
| Data Size    | 18 bytes |
| Instructions | 6        |

```
      00 01 02 03 04 05 06 07  08 09 0A 0B 0C 0D 0E 0F
      -- -- -- -- -- -- -- --  -- -- -- -- -- -- -- --
0640:             1C 2A 80 32  07 80 1F 00 78 80 79 80      .*.2....x.y.
0650: 02 80 1F 01 6F 00                                 ....o.          
```

#### Opcodes

```
  0: 0x0644 [0x1C] WAIT(3* ticks)
  1: 0x0647 [0x32] ExtData[1]->MainSpeed = 13* * 0.1
  2: 0x064A [0x1F] MOVE_ENTITY: EventEntity moves to X=103.773*, Z=-11.521*, Y=-7.086*
  3: 0x0652 [0x1F] MOVE_ENTITY: Update entity position (mode=1)
  4: 0x0654 [0x6F] WAIT_FRAME_DELAY: Yield until WaitTime reaches zero
  5: 0x0655 [0x00] END_REQSTACK()
```

### Event 65535.23

#### Metadata

| Field        | Value    |
|--------------|----------|
| Entrypoint   | 0x0656   |
| Data Size    | 37 bytes |
| Instructions | 8        |

```
      00 01 02 03 04 05 06 07  08 09 0A 0B 0C 0D 0E 0F
      -- -- -- -- -- -- -- --  -- -- -- -- -- -- -- --
0650:                   37 7A  80 7B 80 02 80 24 80 1C        7z.{...$..
0660: 17 80 32 7C 80 1F 00 19  80 1A 80 1B 80 1F 01 6F  ..2|...........o
0670: 79 00 F8 FF FF 7F 03 C0  0F 01 00                 y..........     
```

#### Opcodes

```
  0: 0x0656 [0x37] UPDATE_EVENT_POSITION_AND_DIR: x=114.135*, z=-11.984*, y=-7.086*, direction=0.0°*
  1: 0x065F [0x1C] WAIT(1* ticks)
  2: 0x0662 [0x32] ExtData[1]->MainSpeed = 9* * 0.1
  3: 0x0665 [0x1F] MOVE_ENTITY: EventEntity moves to X=119.148*, Z=-12.008*, Y=-8.009*
  4: 0x066D [0x1F] MOVE_ENTITY: Update entity position (mode=1)
  5: 0x066F [0x6F] WAIT_FRAME_DELAY: Yield until WaitTime reaches zero
  6: 0x0670 [0x79] EventEntity looks at Gilgamesh (ID: 17809411/0x010FC003) (Basic look)
  7: 0x067A [0x00] END_REQSTACK()
```

### Event 65535.24

#### Metadata

| Field        | Value     |
|--------------|-----------|
| Entrypoint   | 0x067B    |
| Data Size    | 121 bytes |
| Instructions | 19        |

```
      00 01 02 03 04 05 06 07  08 09 0A 0B 0C 0D 0E 0F
      -- -- -- -- -- -- -- --  -- -- -- -- -- -- -- --
0670:                                   02 04 10 24 80             ...$.
0680: 80 8F 06 37 7D 80 7E 80  7F 80 50 80 01 F3 06 02  ...7}.~...P.....
0690: 04 10 17 80 80 A3 06 37  80 80 81 80 82 80 83 80  .......7........
06A0: 01 F3 06 02 04 10 84 80  80 B7 06 37 85 80 86 80  ...........7....
06B0: 87 80 88 80 01 F3 06 02  04 10 2A 80 80 CB 06 37  ..........*....7
06C0: 89 80 8A 80 8B 80 8C 80  01 F3 06 02 04 10 8D 80  ................
06D0: 80 DF 06 37 8E 80 8F 80  24 80 90 80 01 F3 06 02  ...7....$.......
06E0: 04 10 91 80 80 F3 06 37  92 80 93 80 94 80 95 80  .......7........
06F0: 01 F3 06 00                                       ....            
```

#### Opcodes

```
  0: 0x067B [0x02] IF !(Work_Zone[4] == 0*) GOTO 0x068F
  1: 0x0683 [0x37] UPDATE_EVENT_POSITION_AND_DIR: x=98.226*, z=-97.241*, y=-13.999*, direction=18.4°*
  2: 0x068C [0x01] GOTO 0x06F3
  3: 0x068F [0x02] IF !(Work_Zone[4] == 1*) GOTO 0x06A3
  4: 0x0697 [0x37] UPDATE_EVENT_POSITION_AND_DIR: x=35.388*, z=-41.034*, y=7.499*, direction=176.2°*
  5: 0x06A0 [0x01] GOTO 0x06F3
  6: 0x06A3 [0x02] IF !(Work_Zone[4] == 2*) GOTO 0x06B7
  7: 0x06AB [0x37] UPDATE_EVENT_POSITION_AND_DIR: x=-13.961*, z=-20.697*, y=1.097*, direction=354.5°*
  8: 0x06B4 [0x01] GOTO 0x06F3
  9: 0x06B7 [0x02] IF !(Work_Zone[4] == 3*) GOTO 0x06CB
 10: 0x06BF [0x37] UPDATE_EVENT_POSITION_AND_DIR: x=-17.871*, z=-11.595*, y=7.652*, direction=23.2°*
 11: 0x06C8 [0x01] GOTO 0x06F3
 12: 0x06CB [0x02] IF !(Work_Zone[4] == 4*) GOTO 0x06DF
 13: 0x06D3 [0x37] UPDATE_EVENT_POSITION_AND_DIR: x=-186.234*, z=108.403*, y=0.000*, direction=210.8°*
 14: 0x06DC [0x01] GOTO 0x06F3
 15: 0x06DF [0x02] IF !(Work_Zone[4] == 5*) GOTO 0x06F3
 16: 0x06E7 [0x37] UPDATE_EVENT_POSITION_AND_DIR: x=29.370*, z=57.233*, y=-15.802*, direction=69.3°*
 17: 0x06F0 [0x01] GOTO 0x06F3

SUBROUTINE_06F3:
 18: 0x06F3 [0x00] END_REQSTACK()
```

### Event 65535.25

#### Metadata

| Field        | Value    |
|--------------|----------|
| Entrypoint   | 0x06F4   |
| Data Size    | 10 bytes |
| Instructions | 2        |

```
      00 01 02 03 04 05 06 07  08 09 0A 0B 0C 0D 0E 0F
      -- -- -- -- -- -- -- --  -- -- -- -- -- -- -- --
06F0:             37 96 80 97  80 98 80 99 80 00            7.........  
```

#### Opcodes

```
  0: 0x06F4 [0x37] UPDATE_EVENT_POSITION_AND_DIR: x=21.982*, z=30.049*, y=-18.138*, direction=298.8°*
  1: 0x06FD [0x00] END_REQSTACK()
```

### Event 65535.26

#### Metadata

| Field        | Value    |
|--------------|----------|
| Entrypoint   | 0x06FE   |
| Data Size    | 27 bytes |
| Instructions | 6        |

```
      00 01 02 03 04 05 06 07  08 09 0A 0B 0C 0D 0E 0F
      -- -- -- -- -- -- -- --  -- -- -- -- -- -- -- --
06F0:                                            7B F0                {.
0700: FF FF 7F 1C 29 80 79 00  F0 FF FF 7F 5C C0 0F 01  ....).y.....\...
0710: 1C 29 80 7B F0 FF FF 7F  00                       .).{.....       
```

#### Opcodes

```
  0: 0x06FE [0x7B] LocalPlayer stops talking
  1: 0x0703 [0x1C] WAIT(30* ticks)
  2: 0x0706 [0x79] LocalPlayer looks at Talking Doll (ID: 17809500/0x010FC05C) (Basic look)
  3: 0x0710 [0x1C] WAIT(30* ticks)
  4: 0x0713 [0x7B] LocalPlayer stops talking
  5: 0x0718 [0x00] END_REQSTACK()
```

### Event 65535.27

#### Metadata

| Field        | Value   |
|--------------|---------|
| Entrypoint   | 0x0719  |
| Data Size    | 6 bytes |
| Instructions | 2       |

```
      00 01 02 03 04 05 06 07  08 09 0A 0B 0C 0D 0E 0F
      -- -- -- -- -- -- -- --  -- -- -- -- -- -- -- --
0710:                             03 09 10 07 7F 00              ...... 
```

#### Opcodes

```
  0: 0x0719 [0x03] Work_Zone[9] = Entity->Race
  1: 0x071E [0x00] END_REQSTACK()
```

### Event 65535.28

#### Metadata

| Field        | Value    |
|--------------|----------|
| Entrypoint   | 0x071F   |
| Data Size    | 10 bytes |
| Instructions | 2        |

```
      00 01 02 03 04 05 06 07  08 09 0A 0B 0C 0D 0E 0F
      -- -- -- -- -- -- -- --  -- -- -- -- -- -- -- --
0710:                                               37                 7
0720: 80 80 81 80 82 80 83 80  00                       .........       
```

#### Opcodes

```
  0: 0x071F [0x37] UPDATE_EVENT_POSITION_AND_DIR: x=35.388*, z=-41.034*, y=7.499*, direction=176.2°*
  1: 0x0728 [0x00] END_REQSTACK()
```

### Event 65535.29

#### Metadata

| Field        | Value    |
|--------------|----------|
| Entrypoint   | 0x0729   |
| Data Size    | 10 bytes |
| Instructions | 2        |

```
      00 01 02 03 04 05 06 07  08 09 0A 0B 0C 0D 0E 0F
      -- -- -- -- -- -- -- --  -- -- -- -- -- -- -- --
0720:                             37 8E 80 8F 80 24 80           7....$.
0730: 90 80 00                                          ...             
```

#### Opcodes

```
  0: 0x0729 [0x37] UPDATE_EVENT_POSITION_AND_DIR: x=-186.234*, z=108.403*, y=0.000*, direction=210.8°*
  1: 0x0732 [0x00] END_REQSTACK()
```

### Event 65535.30

#### Metadata

| Field        | Value    |
|--------------|----------|
| Entrypoint   | 0x0733   |
| Data Size    | 10 bytes |
| Instructions | 2        |

```
      00 01 02 03 04 05 06 07  08 09 0A 0B 0C 0D 0E 0F
      -- -- -- -- -- -- -- --  -- -- -- -- -- -- -- --
0730:          37 9A 80 9B 80  9C 80 9D 80 00              7.........   
```

#### Opcodes

```
  0: 0x0733 [0x37] UPDATE_EVENT_POSITION_AND_DIR: x=-17.766*, z=-11.913*, y=7.645*, direction=1.3°*
  1: 0x073C [0x00] END_REQSTACK()
```

### Event 65535.31

#### Metadata

| Field        | Value    |
|--------------|----------|
| Entrypoint   | 0x073D   |
| Data Size    | 10 bytes |
| Instructions | 2        |

```
      00 01 02 03 04 05 06 07  08 09 0A 0B 0C 0D 0E 0F
      -- -- -- -- -- -- -- --  -- -- -- -- -- -- -- --
0730:                                         37 9E 80               7..
0740: 9F 80 87 80 A0 80 00                              .......         
```

#### Opcodes

```
  0: 0x073D [0x37] UPDATE_EVENT_POSITION_AND_DIR: x=-18.754*, z=-30.605*, y=1.097*, direction=248.5°*
  1: 0x0746 [0x00] END_REQSTACK()
```

### Event 65535.32

#### Metadata

| Field        | Value    |
|--------------|----------|
| Entrypoint   | 0x0747   |
| Data Size    | 15 bytes |
| Instructions | 5        |

```
      00 01 02 03 04 05 06 07  08 09 0A 0B 0C 0D 0E 0F
      -- -- -- -- -- -- -- --  -- -- -- -- -- -- -- --
0740:                      32  18 80 1F 00 A1 80 A2 80         2........
0750: 87 80 1F 01 6F 00                                 ....o.          
```

#### Opcodes

```
  0: 0x0747 [0x32] ExtData[1]->MainSpeed = 10* * 0.1
  1: 0x074A [0x1F] MOVE_ENTITY: EventEntity moves to X=-19.690*, Z=-29.153*, Y=1.097*
  2: 0x0752 [0x1F] MOVE_ENTITY: Update entity position (mode=1)
  3: 0x0754 [0x6F] WAIT_FRAME_DELAY: Yield until WaitTime reaches zero
  4: 0x0755 [0x00] END_REQSTACK()
```

### Event 65535.33

#### Metadata

| Field        | Value    |
|--------------|----------|
| Entrypoint   | 0x0756   |
| Data Size    | 10 bytes |
| Instructions | 2        |

```
      00 01 02 03 04 05 06 07  08 09 0A 0B 0C 0D 0E 0F
      -- -- -- -- -- -- -- --  -- -- -- -- -- -- -- --
0750:                   37 A3  80 A4 80 A5 80 A6 80 00        7.........
```

#### Opcodes

```
  0: 0x0756 [0x37] UPDATE_EVENT_POSITION_AND_DIR: x=-24.913*, z=-9.202*, y=0.625*, direction=212.2°*
  1: 0x075F [0x00] END_REQSTACK()
```

### Event 65535.34

#### Metadata

| Field        | Value    |
|--------------|----------|
| Entrypoint   | 0x0760   |
| Data Size    | 10 bytes |
| Instructions | 2        |

```
      00 01 02 03 04 05 06 07  08 09 0A 0B 0C 0D 0E 0F
      -- -- -- -- -- -- -- --  -- -- -- -- -- -- -- --
0760: 37 A7 80 A8 80 A9 80 AA  80 00                    7.........      
```

#### Opcodes

```
  0: 0x0760 [0x37] UPDATE_EVENT_POSITION_AND_DIR: x=-59.188*, z=68.286*, y=-9.414*, direction=344.4°*
  1: 0x0769 [0x00] END_REQSTACK()
```

### Event 65535.35

#### Metadata

| Field        | Value   |
|--------------|---------|
| Entrypoint   | 0x076A  |
| Data Size    | 6 bytes |
| Instructions | 2       |

```
      00 01 02 03 04 05 06 07  08 09 0A 0B 0C 0D 0E 0F
      -- -- -- -- -- -- -- --  -- -- -- -- -- -- -- --
0760:                                03 02 10 0B 7F 00            ......
```

#### Opcodes

```
  0: 0x076A [0x03] Work_Zone[2] = (Entity->Render.Flags01 >> 25) & 1
  1: 0x076F [0x00] END_REQSTACK()
```

### Event 65535.36

#### Metadata

| Field        | Value   |
|--------------|---------|
| Entrypoint   | 0x0770  |
| Data Size    | 6 bytes |
| Instructions | 2       |

```
      00 01 02 03 04 05 06 07  08 09 0A 0B 0C 0D 0E 0F
      -- -- -- -- -- -- -- --  -- -- -- -- -- -- -- --
0770: 03 09 10 07 7F 00                                 ......          
```

#### Opcodes

```
  0: 0x0770 [0x03] Work_Zone[9] = Entity->Race
  1: 0x0775 [0x00] END_REQSTACK()
```

### Event 65535.37

#### Metadata

| Field        | Value   |
|--------------|---------|
| Entrypoint   | 0x0776  |
| Data Size    | 6 bytes |
| Instructions | 2       |

```
      00 01 02 03 04 05 06 07  08 09 0A 0B 0C 0D 0E 0F
      -- -- -- -- -- -- -- --  -- -- -- -- -- -- -- --
0770:                   03 02  10 06 7F 00                    ......    
```

#### Opcodes

```
  0: 0x0776 [0x03] Work_Zone[2] = Entity->JobId (if LocalPlayer)
  1: 0x077B [0x00] END_REQSTACK()
```

### Event 65535.38

#### Metadata

| Field        | Value    |
|--------------|----------|
| Entrypoint   | 0x077C   |
| Data Size    | 10 bytes |
| Instructions | 2        |

```
      00 01 02 03 04 05 06 07  08 09 0A 0B 0C 0D 0E 0F
      -- -- -- -- -- -- -- --  -- -- -- -- -- -- -- --
0770:                                      37 AB 80 AC              7...
0780: 80 02 80 AD 80 00                                 ......          
```

#### Opcodes

```
  0: 0x077C [0x37] UPDATE_EVENT_POSITION_AND_DIR: x=97.290*, z=-13.709*, y=-7.086*, direction=14.1°*
  1: 0x0785 [0x00] END_REQSTACK()
```

### Event 65535.39

#### Metadata

| Field        | Value    |
|--------------|----------|
| Entrypoint   | 0x0786   |
| Data Size    | 10 bytes |
| Instructions | 2        |

```
      00 01 02 03 04 05 06 07  08 09 0A 0B 0C 0D 0E 0F
      -- -- -- -- -- -- -- --  -- -- -- -- -- -- -- --
0780:                   37 AE  80 AF 80 02 80 B0 80 00        7.........
```

#### Opcodes

```
  0: 0x0786 [0x37] UPDATE_EVENT_POSITION_AND_DIR: x=92.777*, z=-18.479*, y=-7.086*, direction=356.9°*
  1: 0x078F [0x00] END_REQSTACK()
```

### Event 65535.40

#### Metadata

| Field        | Value   |
|--------------|---------|
| Entrypoint   | 0x0790  |
| Data Size    | 6 bytes |
| Instructions | 2       |

```
      00 01 02 03 04 05 06 07  08 09 0A 0B 0C 0D 0E 0F
      -- -- -- -- -- -- -- --  -- -- -- -- -- -- -- --
0790: 03 02 10 0B 7F 00                                 ......          
```

#### Opcodes

```
  0: 0x0790 [0x03] Work_Zone[2] = (Entity->Render.Flags01 >> 25) & 1
  1: 0x0795 [0x00] END_REQSTACK()
```

### Event 65535.41

#### Metadata

| Field        | Value    |
|--------------|----------|
| Entrypoint   | 0x0796   |
| Data Size    | 10 bytes |
| Instructions | 2        |

```
      00 01 02 03 04 05 06 07  08 09 0A 0B 0C 0D 0E 0F
      -- -- -- -- -- -- -- --  -- -- -- -- -- -- -- --
0790:                   37 B1  80 B2 80 B3 80 B4 80 00        7.........
```

#### Opcodes

```
  0: 0x0796 [0x37] UPDATE_EVENT_POSITION_AND_DIR: x=47.771*, z=12.862*, y=-6.282*, direction=222.0°*
  1: 0x079F [0x00] END_REQSTACK()
```

### Event 65535.42

#### Metadata

| Field        | Value    |
|--------------|----------|
| Entrypoint   | 0x07A0   |
| Data Size    | 10 bytes |
| Instructions | 2        |

```
      00 01 02 03 04 05 06 07  08 09 0A 0B 0C 0D 0E 0F
      -- -- -- -- -- -- -- --  -- -- -- -- -- -- -- --
07A0: 37 B5 80 B6 80 B7 80 10  80 00                    7.........      
```

#### Opcodes

```
  0: 0x07A0 [0x37] UPDATE_EVENT_POSITION_AND_DIR: x=-6.790*, z=-44.116*, y=-1.001*, direction=1.0°*
  1: 0x07A9 [0x00] END_REQSTACK()
```

### Event 225

#### Metadata

| Field        | Value     |
|--------------|-----------|
| Entrypoint   | 0x07AA    |
| Data Size    | 711 bytes |
| Instructions | 94        |

```
      00 01 02 03 04 05 06 07  08 09 0A 0B 0C 0D 0E 0F
      -- -- -- -- -- -- -- --  -- -- -- -- -- -- -- --
07A0:                                42 45 25 80 F8 FF            BE%...
07B0: FF 7F F8 FF FF 7F 66 64  6F 31 24 80 55 25 80 F8  ......fdo1$.U%..
07C0: FF FF 7F F8 FF FF 7F 66  64 6F 31 46 01 38 B8 80  .......fdo1F.8..
07D0: 37 B9 80 BA 80 87 80 BB  80 1E 6B C0 0F 01 45 8D  7.........k...E.
07E0: 80 F0 FF FF 7F F0 FF FF  7F 73 30 30 31 24 80 1C  .........s001$..
07F0: 29 80 27 0F 6B C0 0F 01  02 1C BC 80 45 25 80 F8  ).'.k.......E%..
0800: FF FF 7F F8 FF FF 7F 66  64 69 32 24 80 1C BD 80  .......fdi2$....
0810: 2B 6B C0 0F 01 BE 80 23  1C 29 80 27 0E 6B C0 0F  +k.....#.).'.k..
0820: 01 03 1C 9D 80 2B 6B C0  0F 01 BF 80 23 2A 0F 6B  .....+k.....#*.k
0830: C0 0F 01 1C 39 80 4A 6B  C0 0F 01 F0 FF FF 7F 79  ....9.Jk.......y
0840: 00 6B C0 0F 01 F0 FF FF  7F 45 25 80 F8 FF FF 7F  .k.......E%.....
0850: F8 FF FF 7F 6F 76 6C 31  24 80 52 8D 80 F0 FF FF  ....ovl1$.R.....
0860: 7F F0 FF FF 7F 73 30 30  31 45 8D 80 F0 FF FF 7F  .....s001E......
0870: F0 FF FF 7F 73 30 30 32  24 80 1C 29 80 66 39 80  ....s002$..).f9.
0880: 6B C0 0F 01 6B C0 0F 01  74 61 6C 6B 2B 6B C0 0F  k...k...talk+k..
0890: 01 C0 80 23 1C 9D 80 66  39 80 6B C0 0F 01 6B C0  ...#...f9.k...k.
08A0: 0F 01 74 6C 6B 31 2B 6B  C0 0F 01 C1 80 23 2B 6B  ..tlk1+k.....#+k
08B0: C0 0F 01 C2 80 23 1C 3B  80 2B 6B C0 0F 01 C3 80  .....#.;.+k.....
08C0: 23 27 0A 6B C0 0F 01 06  1C BC 80 45 25 80 F8 FF  #'.k.......E%...
08D0: FF 7F F8 FF FF 7F 6F 76  6C 32 24 80 52 8D 80 F0  ......ovl2$.R...
08E0: FF FF 7F F0 FF FF 7F 73  30 30 32 45 8D 80 F0 FF  .......s002E....
08F0: FF 7F F0 FF FF 7F 73 30  30 36 24 80 2A 0A 6B C0  ......s006$.*.k.
0900: 0F 01 66 39 80 6B C0 0F  01 6B C0 0F 01 61 6E 67  ..f9.k...k...ang
0910: 30 1C 39 80 2B 6B C0 0F  01 C4 80 23 1C 39 80 66  0.9.+k.....#.9.f
0920: 39 80 6B C0 0F 01 6B C0  0F 01 64 69 73 30 2B 6B  9.k...k...dis0+k
0930: C0 0F 01 C5 80 23 1C BC  80 4A 6B C0 0F 01 F0 FF  .....#...Jk.....
0940: FF 7F 79 00 6B C0 0F 01  F0 FF FF 7F 1C 39 80 52  ..y.k........9.R
0950: 8D 80 F0 FF FF 7F F0 FF  FF 7F 73 30 30 36 45 8D  ..........s006E.
0960: 80 F0 FF FF 7F F0 FF FF  7F 73 30 30 37 24 80 66  .........s007$.f
0970: C6 80 6B C0 0F 01 6B C0  0F 01 6B 69 64 30 1C 29  ..k...k...kid0.)
0980: 80 66 C6 80 6B C0 0F 01  6B C0 0F 01 64 65 6E 30  .f..k...k...den0
0990: 2B 6B C0 0F 01 C7 80 23  52 8D 80 F0 FF FF 7F F0  +k.....#R.......
09A0: FF FF 7F 73 30 30 37 45  8D 80 F0 FF FF 7F F0 FF  ...s007E........
09B0: FF 7F 73 30 30 38 24 80  1C 39 80 27 0F 6B C0 0F  ..s008$..9.'.k..
09C0: 01 05 2A 0F 6B C0 0F 01  1C BC 80 66 39 80 6B C0  ..*.k......f9.k.
09D0: 0F 01 6B C0 0F 01 74 61  6C 6B 2B 6B C0 0F 01 C8  ..k...talk+k....
09E0: 80 23 2B 6B C0 0F 01 C9  80 23 1C 3B 80 52 8D 80  .#+k.....#.;.R..
09F0: F0 FF FF 7F F0 FF FF 7F  73 30 30 38 45 8D 80 F0  ........s008E...
0A00: FF FF 7F F0 FF FF 7F 73  30 30 35 24 80 1C 39 80  .......s005$..9.
0A10: 6E F0 FF FF 7F 03 80 99  F0 FF FF 7F 1C 3B 80 2B  n............;.+
0A20: 6B C0 0F 01 CA 80 23 1C  CB 80 45 25 80 F8 FF FF  k.....#...E%....
0A30: 7F F8 FF FF 7F 66 64 6F  32 24 80 55 25 80 F8 FF  .....fdo2$.U%...
0A40: FF 7F F8 FF FF 7F 66 64  6F 32 52 8D 80 F0 FF FF  ......fdo2R.....
0A50: 7F F0 FF FF 7F 73 30 30  35 46 00 1C 3B 80 45 25  .....s005F..;.E%
0A60: 80 F8 FF FF 7F F8 FF FF  7F 66 64 69 31 24 80 21  .........fdi1$.!
0A70: 00                                                .               
```

#### Opcodes

```
  0: 0x07AA [0x42] SET_CLI_EVENT_CANCEL_DATA()
  1: 0x07AB [0x45] LOAD_SCHEDULED_TASK: Load scheduler "fdo1" with entities [EventEntity, EventEntity], work=[200*, 0*]
  2: 0x07BC [0x55] WAIT_LOAD_SCHEDULER: Wait for scheduler "fdo1" with entities [EventEntity, EventEntity], work=200*
  3: 0x07CB [0x46] CAMERA_CONTROL: Disable user control
  4: 0x07CD [0x38] SET_CLIENT_EVENT_MODE(mode=19*)
  5: 0x07D0 [0x37] UPDATE_EVENT_POSITION_AND_DIR: x=-15.506*, z=-25.152*, y=1.097*, direction=218.8°*
  6: 0x07D9 [0x1E] EventEntity looks at Stray Cloud (ID: 17809515/0x010FC06B) and starts talking
  7: 0x07DE [0x45] LOAD_SCHEDULED_TASK: Load scheduler "s001" with entities [LocalPlayer, LocalPlayer], work=[4*, 0*]
  8: 0x07EF [0x1C] WAIT(30* ticks)
  9: 0x07F2 [0x27] REQ_SET(priority=0x0F, entity_id=Stray Cloud (ID: 17809515/0x010FC06B), tag_num=0x02)
 10: 0x07F9 [0x1C] WAIT(90* ticks)
 11: 0x07FC [0x45] LOAD_SCHEDULED_TASK: Load scheduler "fdi2" with entities [EventEntity, EventEntity], work=[200*, 0*]
 12: 0x080D [0x1C] WAIT(210* ticks)
 13: 0x0810 [0x2B] Stray Cloud (ID: 17809515/0x010FC06B) [11169*]:
    → "That rat... Where could he 'ave gotten off to...?"
 14: 0x0817 [0x23] WAIT_FOR_DIALOG_INTERACTION
 15: 0x0818 [0x1C] WAIT(30* ticks)
 16: 0x081B [0x27] REQ_SET(priority=0x0E, entity_id=Stray Cloud (ID: 17809515/0x010FC06B), tag_num=0x03)
 17: 0x0822 [0x1C] WAIT(15* ticks)
 18: 0x0825 [0x2B] Stray Cloud (ID: 17809515/0x010FC06B) [11170*]:
    → "I've got me a bad feeling about this... It brings back unpleasant memories, it does..."
 19: 0x082C [0x23] WAIT_FOR_DIALOG_INTERACTION
 20: 0x082D [0x2A] GET_REQ_LEVEL(level=15, entity_id=Stray Cloud (ID: 17809515/0x010FC06B))
 21: 0x0833 [0x1C] WAIT(60* ticks)
 22: 0x0836 [0x4A] Stray Cloud (ID: 17809515/0x010FC06B) looks at LocalPlayer
 23: 0x083F [0x79] Stray Cloud (ID: 17809515/0x010FC06B) looks at LocalPlayer (Basic look)
 24: 0x0849 [0x45] LOAD_SCHEDULED_TASK: Load scheduler "ovl1" with entities [EventEntity, EventEntity], work=[200*, 0*]
 25: 0x085A [0x52] END_LOAD_SCHEDULER: End scheduler "s001" with entities [LocalPlayer, LocalPlayer], work=4*
 26: 0x0869 [0x45] LOAD_SCHEDULED_TASK: Load scheduler "s002" with entities [LocalPlayer, LocalPlayer], work=[4*, 0*]
 27: 0x087A [0x1C] WAIT(30* ticks)
 28: 0x087D [0x66] LOAD_EXT_SCHEDULER_MAIN: Load scheduler "talk" with entities [Stray Cloud (ID: 17809515/0x010FC06B), Stray Cloud (ID: 17809515/0x010FC06B)], work=60*
 29: 0x088C [0x2B] Stray Cloud (ID: 17809515/0x010FC06B) [11171*]:
    → "...Eh? You say you're an adventurer, do ya? Say, could I take a bit o' your time? I've got me a slight problem, you see."
 30: 0x0893 [0x23] WAIT_FOR_DIALOG_INTERACTION
 31: 0x0894 [0x1C] WAIT(15* ticks)
 32: 0x0897 [0x66] LOAD_EXT_SCHEDULER_MAIN: Load scheduler "tlk1" with entities [Stray Cloud (ID: 17809515/0x010FC06B), Stray Cloud (ID: 17809515/0x010FC06B)], work=60*
 33: 0x08A6 [0x2B] Stray Cloud (ID: 17809515/0x010FC06B) [11172*]:
    → "My mate Gubokka's gone down by 'imself to the Sea Serpent Grotto."
 34: 0x08AD [0x23] WAIT_FOR_DIALOG_INTERACTION
 35: 0x08AE [0x2B] Stray Cloud (ID: 17809515/0x010FC06B) [11173*]:
    → "We've always capered around that place like a blinkin' playground, so he shouldn't be gettin' himself lost."
 36: 0x08B5 [0x23] WAIT_FOR_DIALOG_INTERACTION
 37: 0x08B6 [0x1C] WAIT(120* ticks)
 38: 0x08B9 [0x2B] Stray Cloud (ID: 17809515/0x010FC06B) [11174*]:
    → "I haven't seen the little git's face once since his decidin' t' set off."
 39: 0x08C0 [0x23] WAIT_FOR_DIALOG_INTERACTION
 40: 0x08C1 [0x27] REQ_SET(priority=0x0A, entity_id=Stray Cloud (ID: 17809515/0x010FC06B), tag_num=0x06)
 41: 0x08C8 [0x1C] WAIT(90* ticks)
 42: 0x08CB [0x45] LOAD_SCHEDULED_TASK: Load scheduler "ovl2" with entities [EventEntity, EventEntity], work=[200*, 0*]
 43: 0x08DC [0x52] END_LOAD_SCHEDULER: End scheduler "s002" with entities [LocalPlayer, LocalPlayer], work=4*
 44: 0x08EB [0x45] LOAD_SCHEDULED_TASK: Load scheduler "s006" with entities [LocalPlayer, LocalPlayer], work=[4*, 0*]
 45: 0x08FC [0x2A] GET_REQ_LEVEL(level=10, entity_id=Stray Cloud (ID: 17809515/0x010FC06B))
 46: 0x0902 [0x66] LOAD_EXT_SCHEDULER_MAIN: Load scheduler "ang0" with entities [Stray Cloud (ID: 17809515/0x010FC06B), Stray Cloud (ID: 17809515/0x010FC06B)], work=60*
 47: 0x0911 [0x1C] WAIT(60* ticks)
 48: 0x0914 [0x2B] Stray Cloud (ID: 17809515/0x010FC06B) [11175*]:
    → "Lately the people of Norg're up in arms due to all the monsters showin' up in the grotto."
 49: 0x091B [0x23] WAIT_FOR_DIALOG_INTERACTION
 50: 0x091C [0x1C] WAIT(60* ticks)
 51: 0x091F [0x66] LOAD_EXT_SCHEDULER_MAIN: Load scheduler "dis0" with entities [Stray Cloud (ID: 17809515/0x010FC06B), Stray Cloud (ID: 17809515/0x010FC06B)], work=60*
 52: 0x092E [0x2B] Stray Cloud (ID: 17809515/0x010FC06B) [11176*]:
    → "I told that nitwit Gubokka t' be careful, but still..."
 53: 0x0935 [0x23] WAIT_FOR_DIALOG_INTERACTION
 54: 0x0936 [0x1C] WAIT(90* ticks)
 55: 0x0939 [0x4A] Stray Cloud (ID: 17809515/0x010FC06B) looks at LocalPlayer
 56: 0x0942 [0x79] Stray Cloud (ID: 17809515/0x010FC06B) looks at LocalPlayer (Basic look)
 57: 0x094C [0x1C] WAIT(60* ticks)
 58: 0x094F [0x52] END_LOAD_SCHEDULER: End scheduler "s006" with entities [LocalPlayer, LocalPlayer], work=4*
 59: 0x095E [0x45] LOAD_SCHEDULED_TASK: Load scheduler "s007" with entities [LocalPlayer, LocalPlayer], work=[4*, 0*]
 60: 0x096F [0x66] LOAD_EXT_SCHEDULER_MAIN: Load scheduler "kid0" with entities [Stray Cloud (ID: 17809515/0x010FC06B), Stray Cloud (ID: 17809515/0x010FC06B)], work=62*
 61: 0x097E [0x1C] WAIT(30* ticks)
 62: 0x0981 [0x66] LOAD_EXT_SCHEDULER_MAIN: Load scheduler "den0" with entities [Stray Cloud (ID: 17809515/0x010FC06B), Stray Cloud (ID: 17809515/0x010FC06B)], work=62*
 63: 0x0990 [0x2B] Stray Cloud (ID: 17809515/0x010FC06B) [11177*]:
    → "I wanna go and check on the poor runt, but goin' alone into that monster-infested hole is just askin' for more trouble."
 64: 0x0997 [0x23] WAIT_FOR_DIALOG_INTERACTION
 65: 0x0998 [0x52] END_LOAD_SCHEDULER: End scheduler "s007" with entities [LocalPlayer, LocalPlayer], work=4*
 66: 0x09A7 [0x45] LOAD_SCHEDULED_TASK: Load scheduler "s008" with entities [LocalPlayer, LocalPlayer], work=[4*, 0*]
 67: 0x09B8 [0x1C] WAIT(60* ticks)
 68: 0x09BB [0x27] REQ_SET(priority=0x0F, entity_id=Stray Cloud (ID: 17809515/0x010FC06B), tag_num=0x05)
 69: 0x09C2 [0x2A] GET_REQ_LEVEL(level=15, entity_id=Stray Cloud (ID: 17809515/0x010FC06B))
 70: 0x09C8 [0x1C] WAIT(90* ticks)
 71: 0x09CB [0x66] LOAD_EXT_SCHEDULER_MAIN: Load scheduler "talk" with entities [Stray Cloud (ID: 17809515/0x010FC06B), Stray Cloud (ID: 17809515/0x010FC06B)], work=60*
 72: 0x09DA [0x2B] Stray Cloud (ID: 17809515/0x010FC06B) [11178*]:
    → "That's where you come in. Think ya could go t' Sea Serpent Grotto and find Gubokka for me?"
 73: 0x09E1 [0x23] WAIT_FOR_DIALOG_INTERACTION
 74: 0x09E2 [0x2B] Stray Cloud (ID: 17809515/0x010FC06B) [11179*]:
    → "I really need yer 'elp."
 75: 0x09E9 [0x23] WAIT_FOR_DIALOG_INTERACTION
 76: 0x09EA [0x1C] WAIT(120* ticks)
 77: 0x09ED [0x52] END_LOAD_SCHEDULER: End scheduler "s008" with entities [LocalPlayer, LocalPlayer], work=4*
 78: 0x09FC [0x45] LOAD_SCHEDULED_TASK: Load scheduler "s005" with entities [LocalPlayer, LocalPlayer], work=[4*, 0*]
 79: 0x0A0D [0x1C] WAIT(60* ticks)
 80: 0x0A10 [0x6E] LocalPlayer uses emote 7*
 81: 0x0A17 [0x99] Wait for LocalPlayer animation to complete
 82: 0x0A1C [0x1C] WAIT(120* ticks)
 83: 0x0A1F [0x2B] Stray Cloud (ID: 17809515/0x010FC06B) [11180*]:
    → "You'll do it!? Why, thank ya! O' course, you'll be rewarded as handsomely as I can do for ya."
 84: 0x0A26 [0x23] WAIT_FOR_DIALOG_INTERACTION
 85: 0x0A27 [0x1C] WAIT(150* ticks)
 86: 0x0A2A [0x45] LOAD_SCHEDULED_TASK: Load scheduler "fdo2" with entities [EventEntity, EventEntity], work=[200*, 0*]
 87: 0x0A3B [0x55] WAIT_LOAD_SCHEDULER: Wait for scheduler "fdo2" with entities [EventEntity, EventEntity], work=200*
 88: 0x0A4A [0x52] END_LOAD_SCHEDULER: End scheduler "s005" with entities [LocalPlayer, LocalPlayer], work=4*
 89: 0x0A59 [0x46] CAMERA_CONTROL: Restore default settings
 90: 0x0A5B [0x1C] WAIT(120* ticks)
 91: 0x0A5E [0x45] LOAD_SCHEDULED_TASK: Load scheduler "fdi1" with entities [EventEntity, EventEntity], work=[200*, 0*]
 92: 0x0A6F [0x21] END_EVENT
 93: 0x0A70 [0x00] END_REQSTACK()
```

### Event 226

#### Metadata

| Field        | Value      |
|--------------|------------|
| Entrypoint   | 0x0A71     |
| Data Size    | 2612 bytes |
| Instructions | 320        |

```
      00 01 02 03 04 05 06 07  08 09 0A 0B 0C 0D 0E 0F
      -- -- -- -- -- -- -- --  -- -- -- -- -- -- -- --
0A70:    42 45 25 80 F8 FF FF  7F F8 FF FF 7F 66 64 6F   BE%.........fdo
0A80: 31 24 80 5D 24 80 3B 80  55 25 80 F8 FF FF 7F F8  1$.]$.;.U%......
0A90: FF FF 7F 66 64 6F 31 46  01 38 B8 80 4E 00 6C C0  ...fdo1F.8..N.l.
0AA0: 0F 01 80 6C C0 0F 01 2F  00 6C C0 0F 01 79 00 F0  ...l.../.l...y..
0AB0: FF FF 7F 6C C0 0F 01 37  CC 80 CD 80 CE 80 CF 80  ...l...7........
0AC0: 45 8D 80 F0 FF FF 7F F0  FF FF 7F 73 30 30 39 24  E..........s009$
0AD0: 80 27 0F 6C C0 0F 01 02  1C 17 80 5C 00 D0 80 5C  .'.l.......\...\
0AE0: 01 D0 80 9A 45 25 80 F8  FF FF 7F F8 FF FF 7F 66  ....E%.........f
0AF0: 64 69 31 24 80 2A 0F 6C  C0 0F 01 1C 29 80 66 D1  di1$.*.l....).f.
0B00: 80 6C C0 0F 01 6C C0 0F  01 73 68 61 30 1C 39 80  .l...l...sha0.9.
0B10: 2B 6C C0 0F 01 D2 80 23  2B 6C C0 0F 01 D3 80 23  +l.....#+l.....#
0B20: 1C 29 80 52 8D 80 F0 FF  FF 7F F0 FF FF 7F 73 30  .).R..........s0
0B30: 30 39 45 8D 80 F0 FF FF  7F F0 FF FF 7F 73 30 31  09E..........s01
0B40: 31 24 80 4A 6B C0 0F 01  6C C0 0F 01 79 00 6B C0  1$.Jk...l...y.k.
0B50: 0F 01 6C C0 0F 01 2B 6B  C0 0F 01 D4 80 23 52 8D  ..l...+k.....#R.
0B60: 80 F0 FF FF 7F F0 FF FF  7F 73 30 31 31 45 8D 80  .........s011E..
0B70: F0 FF FF 7F F0 FF FF 7F  73 30 31 32 24 80 1C 9D  ........s012$...
0B80: 80 27 0F 6B C0 0F 01 08  1C CB 80 45 25 80 F8 FF  .'.k.......E%...
0B90: FF 7F F8 FF FF 7F 6F 76  6C 32 24 80 52 8D 80 F0  ......ovl2$.R...
0BA0: FF FF 7F F0 FF FF 7F 73  30 31 32 45 8D 80 F0 FF  .......s012E....
0BB0: FF 7F F0 FF FF 7F 73 30  31 33 24 80 2A 0F 6B C0  ......s013$.*.k.
0BC0: 0F 01 27 0E 6B C0 0F 01  09 4A F0 FF FF 7F 6B C0  ..'.k....J....k.
0BD0: 0F 01 79 00 F0 FF FF 7F  6B C0 0F 01 2A 0E 6B C0  ..y.....k...*.k.
0BE0: 0F 01 4A F0 FF FF 7F 6B  C0 0F 01 79 00 F0 FF FF  ..J....k...y....
0BF0: 7F 6B C0 0F 01 1C 29 80  79 00 6C C0 0F 01 6B C0  .k....).y.l...k.
0C00: 0F 01 2B 6C C0 0F 01 D5  80 23 79 00 6B C0 0F 01  ..+l.....#y.k...
0C10: 6C C0 0F 01 66 39 80 6B  C0 0F 01 6B C0 0F 01 74  l...f9.k...k...t
0C20: 61 6C 6B 2B 6B C0 0F 01  D6 80 23 45 25 80 F8 FF  alk+k.....#E%...
0C30: FF 7F F8 FF FF 7F 6F 76  6C 31 24 80 52 8D 80 F0  ......ovl1$.R...
0C40: FF FF 7F F0 FF FF 7F 73  30 31 33 45 8D 80 F0 FF  .......s013E....
0C50: FF 7F F0 FF FF 7F 73 30  31 34 24 80 66 39 80 6B  ......s014$.f9.k
0C60: C0 0F 01 6B C0 0F 01 74  6C 6B 31 1C 3B 80 2B 6C  ...k...tlk1.;.+l
0C70: C0 0F 01 D7 80 23 1C 39  80 2B 6C C0 0F 01 D8 80  .....#.9.+l.....
0C80: 23 79 00 6C C0 0F 01 6B  C0 0F 01 2B 6C C0 0F 01  #y.l...k...+l...
0C90: D9 80 23 1C 29 80 45 25  80 F8 FF FF 7F F8 FF FF  ..#.).E%........
0CA0: 7F 66 64 6F 31 24 80 55  25 80 F8 FF FF 7F F8 FF  .fdo1$.U%.......
0CB0: FF 7F 66 64 6F 31 52 8D  80 F0 FF FF 7F F0 FF FF  ..fdo1R.........
0CC0: 7F 73 30 31 34 1C 17 80  34 DA 80 77 DB 80 17 80  .s014...4..w....
0CD0: 1C 17 80 2F 00 71 C0 0F  01 4E 00 71 C0 0F 01 80  .../.q...N.q....
0CE0: 71 C0 0F 01 45 8D 80 F0  FF FF 7F F0 FF FF 7F 73  q...E..........s
0CF0: 30 35 32 24 80 1C DC 80  27 0F 71 C0 0F 01 03 45  052$....'.q....E
0D00: 25 80 F8 FF FF 7F F8 FF  FF 7F 66 64 69 32 24 80  %.........fdi2$.
0D10: 1C 3B 80 2B 6C C0 0F 01  DD 80 23 2A 0F 71 C0 0F  .;.+l.....#*.q..
0D20: 01 1C 39 80 4B 71 C0 0F  01 DE 80 1C DC 80 27 0E  ..9.Kq........'.
0D30: 71 C0 0F 01 04 1C DF 80  45 25 80 F8 FF FF 7F F8  q.......E%......
0D40: FF FF 7F 6F 76 6C 31 24  80 52 8D 80 F0 FF FF 7F  ...ovl1$.R......
0D50: F0 FF FF 7F 73 30 35 32  45 8D 80 F0 FF FF 7F F0  ....s052E.......
0D60: FF FF 7F 73 30 35 33 24  80 1C E0 80 2B 6C C0 0F  ...s053$....+l..
0D70: 01 E1 80 23 2B 6C C0 0F  01 E2 80 23 1C E0 80 52  ...#+l.....#...R
0D80: 8D 80 F0 FF FF 7F F0 FF  FF 7F 73 30 35 33 45 8D  ..........s053E.
0D90: 80 F0 FF FF 7F F0 FF FF  7F 73 30 35 34 24 80 1C  .........s054$..
0DA0: 91 80 4B 71 C0 0F 01 DE  80 1C 9D 80 6E 71 C0 0F  ..Kq........nq..
0DB0: 01 E3 80 99 71 C0 0F 01  1C 5C 80 45 E4 80 F0 FF  ....q....\.E....
0DC0: FF 7F F0 FF FF 7F 77 68  6F 30 24 80 55 E4 80 F0  ......who0$.U...
0DD0: FF FF 7F F0 FF FF 7F 77  68 6F 30 52 8D 80 F0 FF  .......who0R....
0DE0: FF 7F F0 FF FF 7F 73 30  35 34 45 8D 80 F0 FF FF  ......s054E.....
0DF0: 7F F0 FF FF 7F 73 30 35  35 24 80 66 C6 80 71 C0  .....s055$.f..q.
0E00: 0F 01 71 C0 0F 01 68 75  6B 30 1C 39 80 2B 6C C0  ..q...huk0.9.+l.
0E10: 0F 01 E5 80 23 45 E4 80  F0 FF FF 7F F0 FF FF 7F  ....#E..........
0E20: 77 68 69 31 24 80 1C 39  80 2B 6C C0 0F 01 E6 80  whi1$..9.+l.....
0E30: 23 1C 39 80 2B 6C C0 0F  01 E7 80 23 1C BC 80 45  #.9.+l.....#...E
0E40: 25 80 F8 FF FF 7F F8 FF  FF 7F 66 64 6F 30 24 80  %.........fdo0$.
0E50: 55 25 80 F8 FF FF 7F F8  FF FF 7F 66 64 6F 30 52  U%.........fdo0R
0E60: 8D 80 F0 FF FF 7F F0 FF  FF 7F 73 30 35 35 45 8D  ..........s055E.
0E70: 80 F0 FF FF 7F F0 FF FF  7F 73 30 35 36 24 80 27  .........s056$.'
0E80: 0E 71 C0 0F 01 05 2A 0E  71 C0 0F 01 1C 39 80 45  .q....*.q....9.E
0E90: 25 80 F8 FF FF 7F F8 FF  FF 7F 66 64 69 30 24 80  %.........fdi0$.
0EA0: 1C 9D 80 66 D1 80 71 C0  0F 01 71 C0 0F 01 73 68  ...f..q...q...sh
0EB0: 61 30 1C 3B 80 2B 6C C0  0F 01 E8 80 23 45 25 80  a0.;.+l.....#E%.
0EC0: F8 FF FF 7F F8 FF FF 7F  6F 76 6C 32 24 80 52 8D  ........ovl2$.R.
0ED0: 80 F0 FF FF 7F F0 FF FF  7F 73 30 35 36 45 8D 80  .........s056E..
0EE0: F0 FF FF 7F F0 FF FF 7F  73 30 35 37 24 80 1C BC  ........s057$...
0EF0: 80 2B 6C C0 0F 01 E9 80  23 1C 39 80 45 25 80 F8  .+l.....#.9.E%..
0F00: FF FF 7F F8 FF FF 7F 66  64 6F 32 24 80 55 25 80  .......fdo2$.U%.
0F10: F8 FF FF 7F F8 FF FF 7F  66 64 6F 32 52 8D 80 F0  ........fdo2R...
0F20: FF FF 7F F0 FF FF 7F 73  30 35 37 4E 00 72 C0 0F  .......s057N.r..
0F30: 01 2F 00 72 C0 0F 01 45  8D 80 F0 FF FF 7F F0 FF  ./.r...E........
0F40: FF 7F 73 30 35 38 24 80  1C 3B 80 27 0F 72 C0 0F  ..s058$..;.'.r..
0F50: 01 03 45 25 80 F8 FF FF  7F F8 FF FF 7F 66 64 69  ..E%.........fdi
0F60: 31 24 80 2A 0F 72 C0 0F  01 4B 72 C0 0F 01 EA 80  1$.*.r...Kr.....
0F70: 1C 39 80 66 17 80 72 C0  0F 01 72 C0 0F 01 69 6E  .9.f..r...r...in
0F80: 30 30 1C 39 80 2B 6C C0  0F 01 EB 80 23 1C 39 80  00.9.+l.....#.9.
0F90: 45 25 80 F8 FF FF 7F F8  FF FF 7F 66 64 6F 31 24  E%.........fdo1$
0FA0: 80 55 25 80 F8 FF FF 7F  F8 FF FF 7F 66 64 6F 31  .U%.........fdo1
0FB0: 1C 17 80 52 8D 80 F0 FF  FF 7F F0 FF FF 7F 73 30  ...R..........s0
0FC0: 35 38 45 8D 80 F0 FF FF  7F F0 FF FF 7F 73 30 35  58E..........s05
0FD0: 39 24 80 1C 39 80 45 25  80 F8 FF FF 7F F8 FF FF  9$..9.E%........
0FE0: 7F 66 64 69 31 24 80 79  00 71 C0 0F 01 72 C0 0F  .fdi1$.y.q...r..
0FF0: 01 2B 72 C0 0F 01 EC 80  23 2B 72 C0 0F 01 ED 80  .+r.....#+r.....
1000: 23 27 0F 72 C0 0F 01 04  1C BC 80 66 D1 80 6D C0  #'.r.......f..m.
1010: 0F 01 6D C0 0F 01 73 68  61 31 2B 71 C0 0F 01 EE  ..m...sha1+q....
1020: 80 23 27 0F 71 C0 0F 01  06 1C 39 80 45 25 80 F8  .#'.q.....9.E%..
1030: FF FF 7F F8 FF FF 7F 66  64 6F 30 24 80 2A 0F 6D  .......fdo0$.*.m
1040: C0 0F 01 55 25 80 F8 FF  FF 7F F8 FF FF 7F 66 64  ...U%.........fd
1050: 6F 30 52 8D 80 F0 FF FF  7F F0 FF FF 7F 73 30 35  o0R..........s05
1060: 39 4E 01 6D C0 0F 01 35  EF 80 78 1C 17 80 22 00  9N.m...5..x...".
1070: 4E 00 6C C0 0F 01 80 6C  C0 0F 01 4E 00 6B C0 0F  N.l....l...N.k..
1080: 01 80 6B C0 0F 01 45 8D  80 F0 FF FF 7F F0 FF FF  ..k...E.........
1090: 7F 73 30 31 35 24 80 37  F0 80 F1 80 F2 80 F3 80  .s015$.7........
10A0: 45 25 80 F8 FF FF 7F F8  FF FF 7F 66 64 69 32 24  E%.........fdi2$
10B0: 80 1C 3B 80 79 00 6C C0  0F 01 6B C0 0F 01 1C BC  ..;.y.l...k.....
10C0: 80 2B 6C C0 0F 01 F4 80  23 66 39 80 6B C0 0F 01  .+l.....#f9.k...
10D0: 6B C0 0F 01 74 61 6C 6B  2B 6B C0 0F 01 F5 80 23  k...talk+k.....#
10E0: 1C 39 80 66 39 80 6B C0  0F 01 6B C0 0F 01 74 6C  .9.f9.k...k...tl
10F0: 6B 31 1C 29 80 66 D1 80  6C C0 0F 01 6C C0 0F 01  k1.).f..l...l...
1100: 74 68 6B 31 2B 6C C0 0F  01 F6 80 23 66 C6 80 6B  thk1+l.....#f..k
1110: C0 0F 01 6B C0 0F 01 6B  69 64 30 66 C6 80 6B C0  ...k...kid0f..k.
1120: 0F 01 6B C0 0F 01 64 65  6E 30 2B 6B C0 0F 01 F7  ..k...den0+k....
1130: 80 23 4A 6C C0 0F 01 6B  C0 0F 01 66 D1 80 6C C0  .#Jl...k...f..l.
1140: 0F 01 6C C0 0F 01 74 6C  6B 30 1C 39 80 2B 6C C0  ..l...tlk0.9.+l.
1150: 0F 01 F8 80 23 52 8D 80  F0 FF FF 7F F0 FF FF 7F  ....#R..........
1160: 73 30 31 35 45 8D 80 F0  FF FF 7F F0 FF FF 7F 73  s015E..........s
1170: 30 31 36 24 80 66 39 80  6B C0 0F 01 6B C0 0F 01  016$.f9.k...k...
1180: 61 6E 67 30 2B 6B C0 0F  01 F9 80 23 1C 39 80 66  ang0+k.....#.9.f
1190: D1 80 6C C0 0F 01 6C C0  0F 01 74 6C 6B 31 4B 6B  ..l...l...tlk1Kk
11A0: C0 0F 01 FA 80 1C BC 80  52 8D 80 F0 FF FF 7F F0  ........R.......
11B0: FF FF 7F 73 30 31 36 45  8D 80 F0 FF FF 7F F0 FF  ...s016E........
11C0: FF 7F 73 30 32 30 24 80  27 0F 6B C0 0F 01 0A 2A  ..s020$.'.k....*
11D0: 0F 6B C0 0F 01 1C E0 80  45 25 80 F8 FF FF 7F F8  .k......E%......
11E0: FF FF 7F 6F 76 6C 32 24  80 52 8D 80 F0 FF FF 7F  ...ovl2$.R......
11F0: F0 FF FF 7F 73 30 32 30  45 8D 80 F0 FF FF 7F F0  ....s020E.......
1200: FF FF 7F 73 30 32 32 24  80 66 39 80 6B C0 0F 01  ...s022$.f9.k...
1210: 6B C0 0F 01 74 61 6C 6B  2B 6B C0 0F 01 FB 80 23  k...talk+k.....#
1220: 66 39 80 6B C0 0F 01 6B  C0 0F 01 74 6C 6B 31 1C  f9.k...k...tlk1.
1230: 39 80 66 C6 80 6B C0 0F  01 6B C0 0F 01 64 65 6E  9.f..k...k...den
1240: 30 2B 6B C0 0F 01 FC 80  23 1C DC 80 52 8D 80 F0  0+k.....#...R...
1250: FF FF 7F F0 FF FF 7F 73  30 32 32 22 01 45 8D 80  .......s022".E..
1260: F0 FF FF 7F F0 FF FF 7F  73 30 31 37 24 80 1C 39  ........s017$..9
1270: 80 66 D1 80 6C C0 0F 01  6C C0 0F 01 74 6C 6B 30  .f..l...l...tlk0
1280: 66 D1 80 6C C0 0F 01 6C  C0 0F 01 74 6C 6B 31 2B  f..l...l...tlk1+
1290: 6C C0 0F 01 FD 80 23 1C  BC 80 4A 6B C0 0F 01 6C  l.....#...Jk...l
12A0: C0 0F 01 79 00 6B C0 0F  01 6C C0 0F 01 1C 3B 80  ...y.k...l....;.
12B0: 66 FE 80 6B C0 0F 01 6B  C0 0F 01 74 6C 62 30 2B  f..k...k...tlb0+
12C0: 6B C0 0F 01 FF 80 23 66  FE 80 6B C0 0F 01 6B C0  k.....#f..k...k.
12D0: 0F 01 74 6C 62 31 2B 6B  C0 0F 01 00 81 23 52 8D  ..tlb1+k.....#R.
12E0: 80 F0 FF FF 7F F0 FF FF  7F 73 30 31 37 45 8D 80  .........s017E..
12F0: F0 FF FF 7F F0 FF FF 7F  73 30 31 38 24 80 66 D1  ........s018$.f.
1300: 80 6C C0 0F 01 6C C0 0F  01 74 68 6B 31 2B 6C C0  .l...l...thk1+l.
1310: 0F 01 01 81 23 66 D1 80  6C C0 0F 01 6C C0 0F 01  ....#f..l...l...
1320: 74 68 6B 32 2B 6C C0 0F  01 02 81 23 52 8D 80 F0  thk2+l.....#R...
1330: FF FF 7F F0 FF FF 7F 73  30 31 38 37 CC 80 CD 80  .......s0187....
1340: CE 80 CF 80 22 00 45 8D  80 F0 FF FF 7F F0 FF FF  ....".E.........
1350: 7F 73 30 31 39 24 80 66  39 80 6B C0 0F 01 6B C0  .s019$.f9.k...k.
1360: 0F 01 6B 75 64 30 2B 6B  C0 0F 01 03 81 23 1C BC  ..kud0+k.....#..
1370: 80 66 D1 80 6C C0 0F 01  6C C0 0F 01 74 6C 6B 30  .f..l...l...tlk0
1380: 66 D1 80 6C C0 0F 01 6C  C0 0F 01 74 6C 6B 31 2B  f..l...l...tlk1+
1390: 6C C0 0F 01 04 81 23 1C  39 80 52 8D 80 F0 FF FF  l.....#.9.R.....
13A0: 7F F0 FF FF 7F 73 30 31  39 45 8D 80 F0 FF FF 7F  .....s019E......
13B0: F0 FF FF 7F 73 30 32 31  24 80 1C 39 80 79 00 6B  ....s021$..9.y.k
13C0: C0 0F 01 F0 FF FF 7F 4A  6B C0 0F 01 F0 FF FF 7F  .......Jk.......
13D0: 1C 39 80 27 0F 6B C0 0F  01 0B 2A 0F 6B C0 0F 01  .9.'.k....*.k...
13E0: 1C 39 80 66 C6 80 6B C0  0F 01 6B C0 0F 01 6B 69  .9.f..k...k...ki
13F0: 64 30 66 FE 80 6B C0 0F  01 6B C0 0F 01 74 6C 62  d0f..k...k...tlb
1400: 30 2B 6B C0 0F 01 05 81  23 2B 6B C0 0F 01 06 81  0+k.....#+k.....
1410: 23 66 FE 80 6B C0 0F 01  6B C0 0F 01 74 6C 62 31  #f..k...k...tlb1
1420: 1C 3B 80 52 8D 80 F0 FF  FF 7F F0 FF FF 7F 73 30  .;.R..........s0
1430: 32 31 45 8D 80 F0 FF FF  7F F0 FF FF 7F 73 30 32  21E..........s02
1440: 33 24 80 1C 39 80 2B 6B  C0 0F 01 07 81 23 1C 3B  3$..9.+k.....#.;
1450: 80 45 25 80 F8 FF FF 7F  F8 FF FF 7F 66 64 6F 31  .E%.........fdo1
1460: 24 80 5D 24 80 3B 80 55  25 80 F8 FF FF 7F F8 FF  $.]$.;.U%.......
1470: FF 7F 66 64 6F 31 52 8D  80 F0 FF FF 7F F0 FF FF  ..fdo1R.........
1480: 7F 73 30 32 33 46 00 1C  3B 80 5C 00 50 80 5C 01  .s023F..;.\.P.\.
1490: 50 80 45 25 80 F8 FF FF  7F F8 FF FF 7F 66 64 69  P.E%.........fdi
14A0: 31 24 80 21 00                                    1$.!.           
```

#### Opcodes

```
  0: 0x0A71 [0x42] SET_CLI_EVENT_CANCEL_DATA()
  1: 0x0A72 [0x45] LOAD_SCHEDULED_TASK: Load scheduler "fdo1" with entities [EventEntity, EventEntity], work=[200*, 0*]
  2: 0x0A83 [0x5D] SET_MUSIC_VOLUME(volume=0*, fade_time=120*)
  3: 0x0A88 [0x55] WAIT_LOAD_SCHEDULER: Wait for scheduler "fdo1" with entities [EventEntity, EventEntity], work=200*
  4: 0x0A97 [0x46] CAMERA_CONTROL: Disable user control
  5: 0x0A99 [0x38] SET_CLIENT_EVENT_MODE(mode=19*)
  6: 0x0A9C [0x4E] SET_ENTITY_HIDE_FLAG: Show Gubokka (ID: 17809516/0x010FC06C)
  7: 0x0AA2 [0x80] LOAD_WAIT(entity=Gubokka (ID: 17809516/0x010FC06C))
  8: 0x0AA7 [0x2F] Gubokka (ID: 17809516/0x010FC06C)->Render.Flags0 &= ~0x80000 // Bit 19
  9: 0x0AAD [0x79] LocalPlayer looks at Gubokka (ID: 17809516/0x010FC06C) (Basic look)
 10: 0x0AB7 [0x37] UPDATE_EVENT_POSITION_AND_DIR: x=-20.168*, z=-49.389*, y=0.239*, direction=90.6°*
 11: 0x0AC0 [0x45] LOAD_SCHEDULED_TASK: Load scheduler "s009" with entities [LocalPlayer, LocalPlayer], work=[4*, 0*]
 12: 0x0AD1 [0x27] REQ_SET(priority=0x0F, entity_id=Gubokka (ID: 17809516/0x010FC06C), tag_num=0x02)
 13: 0x0AD8 [0x1C] WAIT(1* ticks)
 14: 0x0ADB [0x5C] MUSIC_CONTROL: Set Idle (Day) music to song 231*
 15: 0x0ADF [0x5C] MUSIC_CONTROL: Set Idle (Night) music to song 231*
 16: 0x0AE3 [0x9A] WAIT_MUSIC_SERVER()
 17: 0x0AE4 [0x45] LOAD_SCHEDULED_TASK: Load scheduler "fdi1" with entities [EventEntity, EventEntity], work=[200*, 0*]
 18: 0x0AF5 [0x2A] GET_REQ_LEVEL(level=15, entity_id=Gubokka (ID: 17809516/0x010FC06C))
 19: 0x0AFB [0x1C] WAIT(30* ticks)
 20: 0x0AFE [0x66] LOAD_EXT_SCHEDULER_MAIN: Load scheduler "sha0" with entities [Gubokka (ID: 17809516/0x010FC06C), Gubokka (ID: 17809516/0x010FC06C)], work=69*
 21: 0x0B0D [0x1C] WAIT(60* ticks)
 22: 0x0B10 [0x2B] Gubokka (ID: 17809516/0x010FC06C) [11183*]:
    → "...<pant>...<gasp>... ...I...I'm...safe...?"
 23: 0x0B17 [0x23] WAIT_FOR_DIALOG_INTERACTION
 24: 0x0B18 [0x2B] Gubokka (ID: 17809516/0x010FC06C) [11184*]:
    → "...<pant>...<wheeze>...whew."
 25: 0x0B1F [0x23] WAIT_FOR_DIALOG_INTERACTION
 26: 0x0B20 [0x1C] WAIT(30* ticks)
 27: 0x0B23 [0x52] END_LOAD_SCHEDULER: End scheduler "s009" with entities [LocalPlayer, LocalPlayer], work=4*
 28: 0x0B32 [0x45] LOAD_SCHEDULED_TASK: Load scheduler "s011" with entities [LocalPlayer, LocalPlayer], work=[4*, 0*]
 29: 0x0B43 [0x4A] Stray Cloud (ID: 17809515/0x010FC06B) looks at Gubokka (ID: 17809516/0x010FC06C)
 30: 0x0B4C [0x79] Stray Cloud (ID: 17809515/0x010FC06B) looks at Gubokka (ID: 17809516/0x010FC06C) (Basic look)
 31: 0x0B56 [0x2B] Stray Cloud (ID: 17809515/0x010FC06B) [11185*]:
    → "Gubokka!!!"
 32: 0x0B5D [0x23] WAIT_FOR_DIALOG_INTERACTION
 33: 0x0B5E [0x52] END_LOAD_SCHEDULER: End scheduler "s011" with entities [LocalPlayer, LocalPlayer], work=4*
