# Event 65535

## Metadata

| Field           | Value    |
|-----------------|----------|
| Event Index     | 13/13    |
| Offset          | 0x006B   |
| Data Size       | 73 bytes |
| Calculated Size | 73 bytes |
| Instructions    | 7        |

```
      00 01 02 03 04 05 06 07  08 09 0A 0B 0C 0D 0E 0F
      -- -- -- -- -- -- -- --  -- -- -- -- -- -- -- --
0060:                                   7B F8 FF FF 7F             {....
0070: 5F 05 11 80 F8 FF FF 7F  F8 FF FF 7F 70 6E 74 30  _...........pnt0
0080: 12 80 5F 07 F8 FF FF 7F  F8 FF FF 7F 70 6E 74 30  .._.........pnt0
0090: 1C 13 80 5F 05 11 80 F8  FF FF 7F F8 FF FF 7F 70  ..._...........p
00A0: 6E 74 31 14 80 5F 07 F8  FF FF 7F F8 FF FF 7F 70  nt1.._.........p
00B0: 6E 74 31 00                                       nt1.            
```

## Opcodes

```
  0: 0x006B [0x7B] EventEntity stops talking
  1: 0x0070 [0x5F] MULTI_HANDLER_COMPLEX(mode=0x05 - Load ext scheduler with flag (OpCode 0x5B mode 0, flag 1), ref=3271*, entity1=EventEntity, entity2=EventEntity, string="pnt0", extra=132*)
  2: 0x0082 [0x5F] MULTI_HANDLER_COMPLEX(mode=0x07 - Wait scheduler task (OpCode 0x53))
  3: 0x0090 [0x1C] WAIT(45* ticks)
  4: 0x0093 [0x5F] MULTI_HANDLER_COMPLEX(mode=0x05 - Load ext scheduler with flag (OpCode 0x5B mode 0, flag 1), ref=3271*, entity1=EventEntity, entity2=EventEntity, string="pnt1", extra=133*)
  5: 0x00A5 [0x5F] MULTI_HANDLER_COMPLEX(mode=0x07 - Wait scheduler task (OpCode 0x53))
  6: 0x00B3 [0x00] END_REQSTACK()
```
