# Event 221

## Metadata

| Field           | Value    |
|-----------------|----------|
| Event Index     | 4/5      |
| Offset          | 0x0006   |
| Data Size       | 19 bytes |
| Calculated Size | 19 bytes |
| Instructions    | 10       |

```
      00 01 02 03 04 05 06 07  08 09 0A 0B 0C 0D 0E 0F
      -- -- -- -- -- -- -- --  -- -- -- -- -- -- -- --
0000:                   1E F0  FF FF 7F 6F 70 1D 01 80        .....op...
0010: 23 1D 02 80 23 20 00 21  00                       #...# .!.       
```

## Opcodes

```
  0: 0x0006 [0x1E] EventEntity looks at LocalPlayer and starts talking
  1: 0x000B [0x6F] WAIT_FRAME_DELAY: Yield until WaitTime reaches zero
  2: 0x000C [0x70] WAIT_ENTITY_RENDER_FLAG: Wait while EventEntity->Render.Flags3 bit 2 is set (cancel turn if not)
  3: 0x000D [0x1D] PRINT_EVENT_MESSAGE(message_id=3638*)
    → "HeRe\u0001\u001AIN\u0001\u001ApOrT\u0001\u001AWiNdUrSt\u0001\u001AIs tHE\u0001\u001AMaGe\u0001\u001AAcA-dEmY\u0001\u001ArUn By\u0001\u001AtHe\u0001\u001AORa-STeRy!\u007F1\u0000\u0007"
  4: 0x0010 [0x23] WAIT_FOR_DIALOG_INTERACTION
  5: 0x0011 [0x1D] PRINT_EVENT_MESSAGE(message_id=3639*)
    → "tO\u0001\u001AGo\u0001\u001AtO tHe\u0001\u001AoRaStErY's\u0001\u001AMaGe\u0001\u001AAcA-dEmY hEAd\u0001\u001AWesT!\u0001\u001AIt\u0001\u001AIS\u0001\u001AoPPo-SiTe\u0001\u001AtHe CoN-sUlAtE\u0001\u001AoF\u0001\u001AbAsToK!\u007F1\u0000\u0007"
  6: 0x0014 [0x23] WAIT_FOR_DIALOG_INTERACTION
  7: 0x0015 [0x20] SET_CLI_EVENT_UC_FLAG: Unlock player control
  8: 0x0017 [0x21] END_EVENT
  9: 0x0018 [0x00] END_REQSTACK()
```
