# Event 157

## Metadata

| Field           | Value    |
|-----------------|----------|
| Event Index     | 21/44    |
| Offset          | 0x014B   |
| Data Size       | 33 bytes |
| Calculated Size | 33 bytes |
| Instructions    | 12       |

```
      00 01 02 03 04 05 06 07  08 09 0A 0B 0C 0D 0E 0F
      -- -- -- -- -- -- -- --  -- -- -- -- -- -- -- --
0140:                                   1E F0 FF FF 7F             .....
0150: 6F 70 29 08 13 10 0F 01  03 1D 18 80 23 1D 19 80  op).........#...
0160: 23 29 08 13 10 0F 01 05  20 00 21 00              #)...... .!.    
```

## Opcodes

```
  0: 0x014B [0x1E] EventEntity looks at LocalPlayer and starts talking
  1: 0x0150 [0x6F] WAIT_FRAME_DELAY: Yield until WaitTime reaches zero
  2: 0x0151 [0x70] WAIT_ENTITY_RENDER_FLAG: Wait while EventEntity->Render.Flags3 bit 2 is set (cancel turn if not)
  3: 0x0152 [0x29] REQ_SET_WAIT(priority=0x08, entity_id=Miiri-Wohri (ID: 17764371/0x010F1013), tag_num=0x03)
  4: 0x0159 [0x1D] PRINT_EVENT_MESSAGE(message_id=7804*)
    → "W-well done!\u0007I knew you could do it. I, I hope you didn't get hurty-wurty.\u007F1\u0000\u0007"
  5: 0x015C [0x23] WAIT_FOR_DIALOG_INTERACTION
  6: 0x015D [0x1D] PRINT_EVENT_MESSAGE(message_id=7805*)
    → "If only those Yagudo would let down their guardy-wuardy a bit, we wouldn't have to go through all that just to give them their offerings.\u007F1\u0000\u0007"
  7: 0x0160 [0x23] WAIT_FOR_DIALOG_INTERACTION
  8: 0x0161 [0x29] REQ_SET_WAIT(priority=0x08, entity_id=Miiri-Wohri (ID: 17764371/0x010F1013), tag_num=0x05)
  9: 0x0168 [0x20] SET_CLI_EVENT_UC_FLAG: Unlock player control
 10: 0x016A [0x21] END_EVENT
 11: 0x016B [0x00] END_REQSTACK()
```
