# Event 191

## Metadata

| Field           | Value    |
|-----------------|----------|
| Event Index     | 27/44    |
| Offset          | 0x0211   |
| Data Size       | 33 bytes |
| Calculated Size | 33 bytes |
| Instructions    | 12       |

```
      00 01 02 03 04 05 06 07  08 09 0A 0B 0C 0D 0E 0F
      -- -- -- -- -- -- -- --  -- -- -- -- -- -- -- --
0210:    1E F0 FF FF 7F 6F 70  29 08 13 10 0F 01 03 1D   .....op).......
0220: 24 80 23 1D 25 80 23 29  08 13 10 0F 01 05 20 00  $.#.%.#)...... .
0230: 21 00                                             !.              
```

## Opcodes

```
  0: 0x0211 [0x1E] EventEntity looks at LocalPlayer and starts talking
  1: 0x0216 [0x6F] WAIT_FRAME_DELAY: Yield until WaitTime reaches zero
  2: 0x0217 [0x70] WAIT_ENTITY_RENDER_FLAG: Wait while EventEntity->Render.Flags3 bit 2 is set (cancel turn if not)
  3: 0x0218 [0x29] REQ_SET_WAIT(priority=0x08, entity_id=Miiri-Wohri (ID: 17764371/0x010F1013), tag_num=0x03)
  4: 0x021F [0x1D] PRINT_EVENT_MESSAGE(message_id=7880*)
    → "A, a mission from Z-Z-Zubaba!?\u007F1\u0000\u0007"
  5: 0x0222 [0x23] WAIT_FOR_DIALOG_INTERACTION
  6: 0x0223 [0x1D] PRINT_EVENT_MESSAGE(message_id=7881*)
    → "Wow! \u0007You mean, Zubaba's still alivey-wivey?\u0007Gee...\u007F1\u0000\u0007"
  7: 0x0226 [0x23] WAIT_FOR_DIALOG_INTERACTION
  8: 0x0227 [0x29] REQ_SET_WAIT(priority=0x08, entity_id=Miiri-Wohri (ID: 17764371/0x010F1013), tag_num=0x05)
  9: 0x022E [0x20] SET_CLI_EVENT_UC_FLAG: Unlock player control
 10: 0x0230 [0x21] END_EVENT
 11: 0x0231 [0x00] END_REQSTACK()
```
