# Event 564

## Metadata

| Field           | Value    |
|-----------------|----------|
| Event Index     | 35/44    |
| Offset          | 0x031D   |
| Data Size       | 33 bytes |
| Calculated Size | 33 bytes |
| Instructions    | 12       |

```
      00 01 02 03 04 05 06 07  08 09 0A 0B 0C 0D 0E 0F
      -- -- -- -- -- -- -- --  -- -- -- -- -- -- -- --
0310:                                         1E F0 FF               ...
0320: FF 7F 6F 70 29 08 13 10  0F 01 03 1D 35 80 23 1D  ..op).......5.#.
0330: 36 80 23 29 08 13 10 0F  01 05 20 00 21 00        6.#)...... .!.  
```

## Opcodes

```
  0: 0x031D [0x1E] EventEntity looks at LocalPlayer and starts talking
  1: 0x0322 [0x6F] WAIT_FRAME_DELAY: Yield until WaitTime reaches zero
  2: 0x0323 [0x70] WAIT_ENTITY_RENDER_FLAG: Wait while EventEntity->Render.Flags3 bit 2 is set (cancel turn if not)
  3: 0x0324 [0x29] REQ_SET_WAIT(priority=0x08, entity_id=Miiri-Wohri (ID: 17764371/0x010F1013), tag_num=0x03)
  4: 0x032B [0x1D] PRINT_EVENT_MESSAGE(message_id=9432*)
    → "The D-Dark D-Dungeon is the w-worst punishment that a criminal can g-getaru.\u007F1\u0000\u0007"
  5: 0x032E [0x23] WAIT_FOR_DIALOG_INTERACTION
  6: 0x032F [0x1D] PRINT_EVENT_MESSAGE(message_id=9433*)
    → "There's n-no leaving the Dark Dungeon until you d-die. H-h-h-how h-h-h-horrible!\u007F1\u0000\u0007"
  7: 0x0332 [0x23] WAIT_FOR_DIALOG_INTERACTION
  8: 0x0333 [0x29] REQ_SET_WAIT(priority=0x08, entity_id=Miiri-Wohri (ID: 17764371/0x010F1013), tag_num=0x05)
  9: 0x033A [0x20] SET_CLI_EVENT_UC_FLAG: Unlock player control
 10: 0x033C [0x21] END_EVENT
 11: 0x033D [0x00] END_REQSTACK()
```
