# Event 65535

## Metadata

| Field           | Value    |
|-----------------|----------|
| Event Index     | 39/44    |
| Offset          | 0x025A   |
| Data Size       | 47 bytes |
| Calculated Size | 47 bytes |
| Instructions    | 11       |

```
      00 01 02 03 04 05 06 07  08 09 0A 0B 0C 0D 0E 0F
      -- -- -- -- -- -- -- --  -- -- -- -- -- -- -- --
0250:                                32 2A 80 1F 00 3B            2*...;
0260: 80 3C 80 2D 80 1F 01 1F  00 3D 80 3E 80 2D 80 1F  .<.-.....=.>.-..
0270: 01 1F 00 3F 80 40 80 2D  80 1F 01 4B F8 FF FF 7F  ...?.@.-...K....
0280: 41 80 6F 76 F8 FF FF 7F  00                       A.ov.....       
```

## Opcodes

```
  0: 0x025A [0x32] ExtData[1]->MainSpeed = 40* * 0.1
  1: 0x025D [0x1F] MOVE_ENTITY: EventEntity moves to X=84.032*, Z=-136.002*, Y=-5.999*
  2: 0x0265 [0x1F] MOVE_ENTITY: Update entity position (mode=1)
  3: 0x0267 [0x1F] MOVE_ENTITY: EventEntity moves to X=85.414*, Z=-133.565*, Y=-5.999*
  4: 0x026F [0x1F] MOVE_ENTITY: Update entity position (mode=1)
  5: 0x0271 [0x1F] MOVE_ENTITY: EventEntity moves to X=80.721*, Z=-123.569*, Y=-5.999*
  6: 0x0279 [0x1F] MOVE_ENTITY: Update entity position (mode=1)
  7: 0x027B [0x4B] UPDATE_ENTITY_YAW(entity=EventEntity, yaw=5.9°*)
  8: 0x0282 [0x6F] WAIT_FRAME_DELAY: Yield until WaitTime reaches zero
  9: 0x0283 [0x76] CHECK_ENTITY_RENDER_FLAGS: Wait until EventEntity Render.Flags0 and Render.Flags3 conditions are met
 10: 0x0288 [0x00] END_REQSTACK()
```
