# Event 65535

## Metadata

| Field           | Value    |
|-----------------|----------|
| Event Index     | 113/113  |
| Offset          | 0x06B1   |
| Data Size       | 45 bytes |
| Calculated Size | 45 bytes |
| Instructions    | 11       |

```
      00 01 02 03 04 05 06 07  08 09 0A 0B 0C 0D 0E 0F
      -- -- -- -- -- -- -- --  -- -- -- -- -- -- -- --
06B0:    32 06 80 1F 00 69 80  6A 80 6B 80 1F 01 1C 6C   2....i.j.k....l
06C0: 80 37 69 80 6A 80 6D 80  00 80 1C 10 80 32 23 80  .7i.j.m......2#.
06D0: 1F 00 6E 80 6A 80 6D 80  1F 01 39 6F 80 00        ..n.j.m...9o..  
```

## Opcodes

```
  0: 0x06B1 [0x32] ExtData[1]->MainSpeed = 40* * 0.1
  1: 0x06B4 [0x1F] MOVE_ENTITY: EventEntity moves to X=377.900*, Z=418.200*, Y=-20.000*
  2: 0x06BC [0x1F] MOVE_ENTITY: Update entity position (mode=1)
  3: 0x06BE [0x1C] WAIT(10* ticks)
  4: 0x06C1 [0x37] UPDATE_EVENT_POSITION_AND_DIR: x=377.900*, z=418.200*, y=-19.700*, direction=0.0°*
  5: 0x06CA [0x1C] WAIT(60* ticks)
  6: 0x06CD [0x32] ExtData[1]->MainSpeed = 13* * 0.1
  7: 0x06D0 [0x1F] MOVE_ENTITY: EventEntity moves to X=378.700*, Z=418.200*, Y=-19.700*
  8: 0x06D8 [0x1F] MOVE_ENTITY: Update entity position (mode=1)
  9: 0x06DA [0x39] SET_ENTITY_DIRECTION(direction=359.3°*)
 10: 0x06DD [0x00] END_REQSTACK()
```
