# Event 65535

## Metadata

| Field           | Value    |
|-----------------|----------|
| Event Index     | 15/28    |
| Offset          | 0x0041   |
| Data Size       | 69 bytes |
| Calculated Size | 69 bytes |
| Instructions    | 7        |

```
      00 01 02 03 04 05 06 07  08 09 0A 0B 0C 0D 0E 0F
      -- -- -- -- -- -- -- --  -- -- -- -- -- -- -- --
0040:    1C 09 80 BA F0 FF FF  7F 0A 80 0B 80 0C 80 0D   ...............
0050: 80 BA 58 62 0B 01 0E 80  0F 80 0C 80 10 80 BA 59  ..Xb...........Y
0060: 62 0B 01 0E 80 0F 80 0C  80 10 80 BA 5A 62 0B 01  b...........Zb..
0070: 11 80 12 80 0C 80 13 80  BA 5D 62 0B 01 14 80 15  .........]b.....
0080: 80 0C 80 16 80 00                                 ......          
```

## Opcodes

```
  0: 0x0041 [0x1C] WAIT(200* ticks)
  1: 0x0044 [0xBA] SET_ENTITY_POSITION(entity_id=LocalPlayer, pos_x=-699.963*, pos_z=-143.702*, pos_y=-12.769*, direction=270.5°*)
  2: 0x0051 [0xBA] SET_ENTITY_POSITION(entity_id=Cait Sith (ID: 17523288/0x010B6258), pos_x=-698.269*, pos_z=-143.646*, pos_y=-12.769*, direction=268.9°*)
  3: 0x005E [0xBA] SET_ENTITY_POSITION(entity_id=Cait Sith (ID: 17523289/0x010B6259), pos_x=-698.269*, pos_z=-143.646*, pos_y=-12.769*, direction=268.9°*)
  4: 0x006B [0xBA] SET_ENTITY_POSITION(entity_id=Larzos (ID: 17523290/0x010B625A), pos_x=-697.619*, pos_z=-137.421*, pos_y=-12.769*, direction=96.7°*)
  5: 0x0078 [0xBA] SET_ENTITY_POSITION(entity_id=Portia (ID: 17523293/0x010B625D), pos_x=-702.864*, pos_z=-137.300*, pos_y=-12.769*, direction=79.1°*)
  6: 0x0085 [0x00] END_REQSTACK()
```
