# Event 65535

## Metadata

| Field           | Value    |
|-----------------|----------|
| Event Index     | 21/28    |
| Offset          | 0x0108   |
| Data Size       | 53 bytes |
| Calculated Size | 53 bytes |
| Instructions    | 11       |

```
      00 01 02 03 04 05 06 07  08 09 0A 0B 0C 0D 0E 0F
      -- -- -- -- -- -- -- --  -- -- -- -- -- -- -- --
0100:                          03 00 00 18 80 03 01 00          ........
0110: 02 10 3F 02 00 01 00 00  00 02 02 00 03 80 03 26  ..?............&
0120: 01 03 02 00 03 80 02 00  00 02 80 04 3C 01 5D 00  ............<.].
0130: 00 03 80 0C 00 00 1C 02  00 01 26 01 00           ..........&..   
```

## Opcodes

```
  0: 0x0108 [0x03] ExtData[1]->WorkLocal[0] = 85*
  1: 0x010D [0x03] ExtData[1]->WorkLocal[1] = Work_Zone[2]
  2: 0x0112 [0x3F] ExtData[1]->WorkLocal[2] = ExtData[1]->WorkLocal[1] % ExtData[1]->WorkLocal[0]
  3: 0x0119 [0x02] IF !(ExtData[1]->WorkLocal[2] >= 1*) GOTO 0x0126
  4: 0x0121 [0x03] ExtData[1]->WorkLocal[2] = 1*
  5: 0x0126 [0x02] IF !(ExtData[1]->WorkLocal[0] < 0*) GOTO 0x013C
  6: 0x012E [0x5D] SET_MUSIC_VOLUME(volume=0, fade_time=1*)
  7: 0x0133 [0x0C] ExtData[1]->WorkLocal[0]--
  8: 0x0136 [0x1C] WAIT(ExtData[1]->WorkLocal[2] ticks)
  9: 0x0139 [0x01] GOTO 0x0126

SUBROUTINE_013C:
 10: 0x013C [0x00] END_REQSTACK()
```
