# Event 350

## Metadata

| Field           | Value    |
|-----------------|----------|
| Event Index     | 4/32     |
| Offset          | 0x002D   |
| Data Size       | 22 bytes |
| Calculated Size | 22 bytes |
| Instructions    | 11       |

```
      00 01 02 03 04 05 06 07  08 09 0A 0B 0C 0D 0E 0F
      -- -- -- -- -- -- -- --  -- -- -- -- -- -- -- --
0020:                                         1E F0 FF               ...
0030: FF 7F 6F 70 1D 04 80 23  1D 05 80 23 1A 62 01 20  ..op...#...#.b. 
0040: 00 21 00                                          .!.             
```

## Opcodes

```
  0: 0x002D [0x1E] EventEntity looks at LocalPlayer and starts talking
  1: 0x0032 [0x6F] WAIT_FRAME_DELAY: Yield until WaitTime reaches zero
  2: 0x0033 [0x70] WAIT_ENTITY_RENDER_FLAG: Wait while EventEntity->Render.Flags3 bit 2 is set (cancel turn if not)
  3: 0x0034 [0x1D] PRINT_EVENT_MESSAGE(message_id=8274*)
    → "No one is willing to say it out loud, but we all feel that something is about to occurrr.\u007F1\u0000\u0007"
  4: 0x0037 [0x23] WAIT_FOR_DIALOG_INTERACTION
  5: 0x0038 [0x1D] PRINT_EVENT_MESSAGE(message_id=8275*)
    → "It was exactly the same twenty years ago. There was a grrreat sense of loss back then, as if some grrrand presence had suddenly disappeared. But what was it that was lost?\u007F1\u0000\u0007"
  6: 0x003B [0x23] WAIT_FOR_DIALOG_INTERACTION
  7: 0x003C [0x1A] CALL_SUBROUTINE(address=0x0162)
  8: 0x003F [0x20] SET_CLI_EVENT_UC_FLAG: Unlock player control
  9: 0x0041 [0x21] END_EVENT
 10: 0x0042 [0x00] END_REQSTACK()
```
