# Event 526

## Metadata

| Field           | Value    |
|-----------------|----------|
| Event Index     | 12/32    |
| Offset          | 0x008F   |
| Data Size       | 22 bytes |
| Calculated Size | 22 bytes |
| Instructions    | 11       |

```
      00 01 02 03 04 05 06 07  08 09 0A 0B 0C 0D 0E 0F
      -- -- -- -- -- -- -- --  -- -- -- -- -- -- -- --
0080:                                               1E                 .
0090: F0 FF FF 7F 6F 70 1D 0D  80 23 1D 0E 80 23 1A 62  ....op...#...#.b
00A0: 01 20 00 21 00                                    . .!.           
```

## Opcodes

```
  0: 0x008F [0x1E] EventEntity looks at LocalPlayer and starts talking
  1: 0x0094 [0x6F] WAIT_FRAME_DELAY: Yield until WaitTime reaches zero
  2: 0x0095 [0x70] WAIT_ENTITY_RENDER_FLAG: Wait while EventEntity->Render.Flags3 bit 2 is set (cancel turn if not)
  3: 0x0096 [0x1D] PRINT_EVENT_MESSAGE(message_id=8924*)
    → "For Mithra, there are three laws that are inviolate.\u007F1\u0000\u0007"
  4: 0x0099 [0x23] WAIT_FOR_DIALOG_INTERACTION
  5: 0x009A [0x1D] PRINT_EVENT_MESSAGE(message_id=8925*)
    → "The Mithran Tracker is the one who brings judgment for those sins. The family who perpetrated the sin is extinguished from the land, from the sky, from time itself.\u007F1\u0000\u0007"
  6: 0x009D [0x23] WAIT_FOR_DIALOG_INTERACTION
  7: 0x009E [0x1A] CALL_SUBROUTINE(address=0x0162)
  8: 0x00A1 [0x20] SET_CLI_EVENT_UC_FLAG: Unlock player control
  9: 0x00A3 [0x21] END_EVENT
 10: 0x00A4 [0x00] END_REQSTACK()
```
