# Event 640

## Metadata

| Field           | Value    |
|-----------------|----------|
| Event Index     | 24/32    |
| Offset          | 0x0122   |
| Data Size       | 22 bytes |
| Calculated Size | 22 bytes |
| Instructions    | 11       |

```
      00 01 02 03 04 05 06 07  08 09 0A 0B 0C 0D 0E 0F
      -- -- -- -- -- -- -- --  -- -- -- -- -- -- -- --
0120:       1E F0 FF FF 7F 6F  70 1D 1D 80 23 1D 1E 80    .....op...#...
0130: 23 1A 62 01 20 00 21 00                           #.b. .!.        
```

## Opcodes

```
  0: 0x0122 [0x1E] EventEntity looks at LocalPlayer and starts talking
  1: 0x0127 [0x6F] WAIT_FRAME_DELAY: Yield until WaitTime reaches zero
  2: 0x0128 [0x70] WAIT_ENTITY_RENDER_FLAG: Wait while EventEntity->Render.Flags3 bit 2 is set (cancel turn if not)
  3: 0x0129 [0x1D] PRINT_EVENT_MESSAGE(message_id=9683*)
    → "Several of our units are already concealed near the Yagudo strrronghold.\u007F1\u0000\u0007"
  4: 0x012C [0x23] WAIT_FOR_DIALOG_INTERACTION
  5: 0x012D [0x1D] PRINT_EVENT_MESSAGE(message_id=9684*)
    → "As soon as the enemy makes its move, we'll go straight for the thrrroat. I can almost see the panicked faces of those Yagudo wrrretches.\u007F1\u0000\u0007"
  6: 0x0130 [0x23] WAIT_FOR_DIALOG_INTERACTION
  7: 0x0131 [0x1A] CALL_SUBROUTINE(address=0x0162)
  8: 0x0134 [0x20] SET_CLI_EVENT_UC_FLAG: Unlock player control
  9: 0x0136 [0x21] END_EVENT
 10: 0x0137 [0x00] END_REQSTACK()
```
