# Event 65535

## Metadata

| Field           | Value    |
|-----------------|----------|
| Event Index     | 4/4      |
| Offset          | 0x0041   |
| Data Size       | 80 bytes |
| Calculated Size | 80 bytes |
| Instructions    | 18       |

```
      00 01 02 03 04 05 06 07  08 09 0A 0B 0C 0D 0E 0F
      -- -- -- -- -- -- -- --  -- -- -- -- -- -- -- --
0040:    32 00 80 1F 00 01 80  02 80 03 80 1F 01 6F 02   2............o.
0050: 53 10 06 80 00 5D 00 1C  08 80 01 60 00 1C 09 80  S....].....`....
0060: 4B F8 FF FF 7F 04 80 1C  05 80 02 53 10 06 80 00  K..........S....
0070: 81 00 6E F8 FF FF 7F 07  80 99 F8 FF FF 7F 01 8D  ..n.............
0080: 00 6E F8 FF FF 7F 06 80  99 F8 FF FF 7F 1C 05 80  .n..............
0090: 00                                                .               
```

## Opcodes

```
  0: 0x0041 [0x32] ExtData[1]->MainSpeed = 40* * 0.1
  1: 0x0044 [0x1F] MOVE_ENTITY: EventEntity moves to X=1.069*, Z=45.078*, Y=-1.999*
  2: 0x004C [0x1F] MOVE_ENTITY: Update entity position (mode=1)
  3: 0x004E [0x6F] WAIT_FRAME_DELAY: Yield until WaitTime reaches zero
  4: 0x004F [0x02] IF !(Work_Zone[83] == 0*) GOTO 0x005D
  5: 0x0057 [0x1C] WAIT(60* ticks)
  6: 0x005A [0x01] GOTO 0x0060
  7: 0x005D [0x1C] WAIT(30* ticks)
  8: 0x0060 [0x4B] UPDATE_ENTITY_YAW(entity=EventEntity, yaw=5.38°*)
  9: 0x0067 [0x1C] WAIT(120* ticks)
 10: 0x006A [0x02] IF !(Work_Zone[83] == 0*) GOTO 0x0081
 11: 0x0072 [0x6E] EventEntity uses emote 8*
 12: 0x0079 [0x99] Wait for EventEntity animation to complete
 13: 0x007E [0x01] GOTO 0x008D
 14: 0x0081 [0x6E] EventEntity uses emote 0*
 15: 0x0088 [0x99] Wait for EventEntity animation to complete
 16: 0x008D [0x1C] WAIT(120* ticks)
 17: 0x0090 [0x00] END_REQSTACK()
```
