# Event 65535

## Metadata

| Field           | Value    |
|-----------------|----------|
| Event Index     | 17/18    |
| Offset          | 0x00D1   |
| Data Size       | 73 bytes |
| Calculated Size | 73 bytes |
| Instructions    | 17       |

```
      00 01 02 03 04 05 06 07  08 09 0A 0B 0C 0D 0E 0F
      -- -- -- -- -- -- -- --  -- -- -- -- -- -- -- --
00D0:    1C 10 80 1E 39 12 04  01 7B F8 FF FF 7F 6F 70   ....9...{....op
00E0: 6E F8 FF FF 7F 0E 80 99  F8 FF FF 7F 1C 0D 80 6E  n..............n
00F0: 39 12 04 01 11 80 99 39  12 04 01 1C 12 80 6E 39  9......9......n9
0100: 12 04 01 13 80 99 39 12  04 01 6E F8 FF FF 7F 14  ......9...n.....
0110: 80 99 F8 FF FF 7F 1C 15  80 00                    ..........      
```

## Opcodes

```
  0: 0x00D1 [0x1C] WAIT(100* ticks)
  1: 0x00D4 [0x1E] EventEntity looks at Salwa-Molwa (ID: 17044025/0x01041239) and starts talking
  2: 0x00D9 [0x7B] EventEntity stops talking
  3: 0x00DE [0x6F] WAIT_FRAME_DELAY: Yield until WaitTime reaches zero
  4: 0x00DF [0x70] WAIT_ENTITY_RENDER_FLAG: Wait while EventEntity->Render.Flags3 bit 2 is set (cancel turn if not)
  5: 0x00E0 [0x6E] EventEntity uses emote 6*
  6: 0x00E7 [0x99] Wait for EventEntity animation to complete
  7: 0x00EC [0x1C] WAIT(40* ticks)
  8: 0x00EF [0x6E] Salwa-Molwa (ID: 17044025/0x01041239) uses emote 7*
  9: 0x00F6 [0x99] Wait for Salwa-Molwa (ID: 17044025/0x01041239) animation to complete
 10: 0x00FB [0x1C] WAIT(60* ticks)
 11: 0x00FE [0x6E] Salwa-Molwa (ID: 17044025/0x01041239) uses emote 4*
 12: 0x0105 [0x99] Wait for Salwa-Molwa (ID: 17044025/0x01041239) animation to complete
 13: 0x010A [0x6E] EventEntity uses emote 25*
 14: 0x0111 [0x99] Wait for EventEntity animation to complete
 15: 0x0116 [0x1C] WAIT(140* ticks)
 16: 0x0119 [0x00] END_REQSTACK()
```
