# Event 10130

## Metadata

| Field           | Value    |
|-----------------|----------|
| Event Index     | 7/25     |
| Offset          | 0x165C   |
| Data Size       | 41 bytes |
| Calculated Size | 41 bytes |
| Instructions    | 12       |

```
      00 01 02 03 04 05 06 07  08 09 0A 0B 0C 0D 0E 0F
      -- -- -- -- -- -- -- --  -- -- -- -- -- -- -- --
1650:                                      2E 03 05 00              ....
1660: 02 10 1E F0 FF FF 7F 79  00 F8 FF FF 7F F0 FF FF  .......y........
1670: 7F 03 02 10 11 80 1D A8  82 23 03 02 10 05 00 1D  .........#......
1680: A9 82 23 21 00                                    ..#!.           
```

## Opcodes

```
  0: 0x165C [0x2E] SET_CLI_EVENT_CANCEL_FLAGS()
  1: 0x165D [0x03] ExtData[1]->WorkLocal[5] = Work_Zone[2]
  2: 0x1662 [0x1E] EventEntity looks at LocalPlayer and starts talking
  3: 0x1667 [0x79] EventEntity looks at LocalPlayer (Basic look)
  4: 0x1671 [0x03] Work_Zone[2] = 1261*
  5: 0x1676 [0x1D] PRINT_EVENT_MESSAGE(message_id=14530*)
    → "You have done well, kupo.\u007F1\u0000\u0007"
  6: 0x1679 [0x23] WAIT_FOR_DIALOG_INTERACTION
  7: 0x167A [0x03] Work_Zone[2] = ExtData[1]->WorkLocal[5]
  8: 0x167F [0x1D] PRINT_EVENT_MESSAGE(message_id=14547*)
    → "You must dispose of the \u0001\u0005#\u0002\u0000\u0000\u0000 in your possession before I can confer upon you another one.\u007F1\u0000\u0007"
  9: 0x1682 [0x23] WAIT_FOR_DIALOG_INTERACTION
 10: 0x1683 [0x21] END_EVENT
 11: 0x1684 [0x00] END_REQSTACK()
```
