# Event 3

## Metadata

| Field           | Value    |
|-----------------|----------|
| Event Index     | 6/8      |
| Offset          | 0x00B3   |
| Data Size       | 59 bytes |
| Calculated Size | 59 bytes |
| Instructions    | 11       |

```
      00 01 02 03 04 05 06 07  08 09 0A 0B 0C 0D 0E 0F
      -- -- -- -- -- -- -- --  -- -- -- -- -- -- -- --
00B0:          20 01 42 62 00  80 F8 FF FF 7F F8 FF FF      .Bb.........
00C0: 7F 6D 61 69 6E 01 80 1C  02 80 47 00 0E 80 0F 80  .main.....G.....
00D0: 05 80 10 80 47 01 62 07  80 F8 FF FF 7F F8 FF FF  ....G.b.........
00E0: 7F 6D 61 69 6E 01 80 1C  02 80 20 00 21 00        .main..... .!.  
```

## Opcodes

```
  0: 0x00B3 [0x20] SET_CLI_EVENT_UC_FLAG: Lock player control
  1: 0x00B5 [0x42] SET_CLI_EVENT_CANCEL_DATA()
  2: 0x00B6 [0x62] LOAD_EVENT_SCHEDULER (arg=5012): Load scheduler "main" with entities [EventEntity, EventEntity], work=[1*, 0*]
  3: 0x00C7 [0x1C] WAIT(180* ticks)
  4: 0x00CA [0x47] UPDATE_PLAYER_POS(-199.428*, 160.314*, -8.000*, yaw=270.4°*)
  5: 0x00D4 [0x47] WAIT_PLAYER_POS_UPDATE
  6: 0x00D6 [0x62] LOAD_EVENT_SCHEDULER (arg=5012): Load scheduler "main" with entities [EventEntity, EventEntity], work=[2*, 0*]
  7: 0x00E7 [0x1C] WAIT(180* ticks)
  8: 0x00EA [0x20] SET_CLI_EVENT_UC_FLAG: Unlock player control
  9: 0x00EC [0x21] END_EVENT
 10: 0x00ED [0x00] END_REQSTACK()
```
