# Event 10

## Metadata

| Field           | Value    |
|-----------------|----------|
| Event Index     | 7/114    |
| Offset          | 0x0221   |
| Data Size       | 20 bytes |
| Calculated Size | 20 bytes |
| Instructions    | 11       |

```
      00 01 02 03 04 05 06 07  08 09 0A 0B 0C 0D 0E 0F
      -- -- -- -- -- -- -- --  -- -- -- -- -- -- -- --
0220:    20 01 42 1E F0 FF FF  7F 6F 70 1D 29 80 23 1D    .B.....op.).#.
0230: 31 80 23 21 00                                    1.#!.           
```

## Opcodes

```
  0: 0x0221 [0x20] SET_CLI_EVENT_UC_FLAG: Lock player control
  1: 0x0223 [0x42] SET_CLI_EVENT_CANCEL_DATA()
  2: 0x0224 [0x1E] EventEntity looks at LocalPlayer and starts talking
  3: 0x0229 [0x6F] WAIT_FRAME_DELAY: Yield until WaitTime reaches zero
  4: 0x022A [0x70] WAIT_ENTITY_RENDER_FLAG: Wait while EventEntity->Render.Flags3 bit 2 is set (cancel turn if not)
  5: 0x022B [0x1D] PRINT_EVENT_MESSAGE(message_id=7354*)
    → "All right, it's a deal. (Heh, what a sucker!)\u007F1\u0000\u0007"
  6: 0x022E [0x23] WAIT_FOR_DIALOG_INTERACTION
  7: 0x022F [0x1D] PRINT_EVENT_MESSAGE(message_id=7368*)
    → "I think the dealer that sold me the Themis orbs said something about being able to release the monster in burning circles in the Yughott Grotto, the Palborough Mines, and Giddeus.\u007F1\u0000\u0007"
  8: 0x0232 [0x23] WAIT_FOR_DIALOG_INTERACTION
  9: 0x0233 [0x21] END_EVENT
 10: 0x0234 [0x00] END_REQSTACK()
```
