# Event 317

## Metadata

| Field           | Value    |
|-----------------|----------|
| Event Index     | 29/114   |
| Offset          | 0x0482   |
| Data Size       | 52 bytes |
| Calculated Size | 52 bytes |
| Instructions    | 12       |

```
      00 01 02 03 04 05 06 07  08 09 0A 0B 0C 0D 0E 0F
      -- -- -- -- -- -- -- --  -- -- -- -- -- -- -- --
0480:       42 48 39 80 1E F0  FF FF 7F 1C 16 80 5B 02    BH9.........[.
0490: 80 F8 FF FF 7F F8 FF FF  7F 74 6C 6B 31 1D 3A 80  .........tlk1.:.
04A0: 23 1D 3B 80 23 5B 02 80  F8 FF FF 7F F8 FF FF 7F  #.;.#[..........
04B0: 74 6C 6B 32 21 00                                 tlk2!.          
```

## Opcodes

```
  0: 0x0482 [0x42] SET_CLI_EVENT_CANCEL_DATA()
  1: 0x0483 [0x48] [System] [8109*]:
    → "\u001F\u000F\u0008's badge flashes brightly.\u007F1\u0000\u0007"
  2: 0x0486 [0x1E] EventEntity looks at LocalPlayer and starts talking
  3: 0x048B [0x1C] WAIT(30* ticks)
  4: 0x048E [0x5B] LOAD_EXT_SCHEDULER: Load scheduler "tlk1" with entities [EventEntity, EventEntity], work=65*
  5: 0x049D [0x1D] PRINT_EVENT_MESSAGE(message_id=8124*)
    → "Oh, I've heard rumors about that company's president...\u007F1\u0000\u0007"
  6: 0x04A0 [0x23] WAIT_FOR_DIALOG_INTERACTION
  7: 0x04A1 [0x1D] PRINT_EVENT_MESSAGE(message_id=8125*)
    → "Apparently, she's extremely aggressive and won't let anything she can use to her advantage slip through her iron grip. They say even the most hardened, rugged Galka becomes like a sheep for the slaughter around her.\u007F1\u0000\u0007"
  8: 0x04A4 [0x23] WAIT_FOR_DIALOG_INTERACTION
  9: 0x04A5 [0x5B] LOAD_EXT_SCHEDULER: Load scheduler "tlk2" with entities [EventEntity, EventEntity], work=65*
 10: 0x04B4 [0x21] END_EVENT
 11: 0x04B5 [0x00] END_REQSTACK()
```
