# Event 346

## Metadata

| Field           | Value    |
|-----------------|----------|
| Event Index     | 8/114    |
| Offset          | 0x0235   |
| Data Size       | 20 bytes |
| Calculated Size | 20 bytes |
| Instructions    | 11       |

```
      00 01 02 03 04 05 06 07  08 09 0A 0B 0C 0D 0E 0F
      -- -- -- -- -- -- -- --  -- -- -- -- -- -- -- --
0230:                20 01 42  1E F0 FF FF 7F 6F 70 1D        .B.....op.
0240: 29 80 23 1D 32 80 23 21  00                       ).#.2.#!.       
```

## Opcodes

```
  0: 0x0235 [0x20] SET_CLI_EVENT_UC_FLAG: Lock player control
  1: 0x0237 [0x42] SET_CLI_EVENT_CANCEL_DATA()
  2: 0x0238 [0x1E] EventEntity looks at LocalPlayer and starts talking
  3: 0x023D [0x6F] WAIT_FRAME_DELAY: Yield until WaitTime reaches zero
  4: 0x023E [0x70] WAIT_ENTITY_RENDER_FLAG: Wait while EventEntity->Render.Flags3 bit 2 is set (cancel turn if not)
  5: 0x023F [0x1D] PRINT_EVENT_MESSAGE(message_id=7354*)
    → "All right, it's a deal. (Heh, what a sucker!)\u007F1\u0000\u0007"
  6: 0x0242 [0x23] WAIT_FOR_DIALOG_INTERACTION
  7: 0x0243 [0x1D] PRINT_EVENT_MESSAGE(message_id=7369*)
    → "The traveling merchant who sold me the orb said that the beast within can only be released in burning circles located deep within the Yughott Grotto, the Palborough Mines, and Giddeus, or in the arcane halls of the Sacrificial Chamber, the Chamber of Oracles, and the Spire of Vahzl.\u0007He was a shady sort, though, so who can say whether his word can be trusted?\u007F1\u0000\u0007"
  8: 0x0246 [0x23] WAIT_FOR_DIALOG_INTERACTION
  9: 0x0247 [0x21] END_EVENT
 10: 0x0248 [0x00] END_REQSTACK()
```
