# Event 355

## Metadata

| Field           | Value    |
|-----------------|----------|
| Event Index     | 18/114   |
| Offset          | 0x032D   |
| Data Size       | 31 bytes |
| Calculated Size | 31 bytes |
| Instructions    | 13       |

```
      00 01 02 03 04 05 06 07  08 09 0A 0B 0C 0D 0E 0F
      -- -- -- -- -- -- -- --  -- -- -- -- -- -- -- --
0320:                                         20 01 42                .B
0330: 1E F0 FF FF 7F 6F 70 02  02 10 00 80 00 46 03 1D  .....op......F..
0340: 33 80 23 01 4A 03 1D 36  80 23 21 00              3.#.J..6.#!.    
```

## Opcodes

```
  0: 0x032D [0x20] SET_CLI_EVENT_UC_FLAG: Lock player control
  1: 0x032F [0x42] SET_CLI_EVENT_CANCEL_DATA()
  2: 0x0330 [0x1E] EventEntity looks at LocalPlayer and starts talking
  3: 0x0335 [0x6F] WAIT_FRAME_DELAY: Yield until WaitTime reaches zero
  4: 0x0336 [0x70] WAIT_ENTITY_RENDER_FLAG: Wait while EventEntity->Render.Flags3 bit 2 is set (cancel turn if not)
  5: 0x0337 [0x02] IF !(Work_Zone[2] == 0*) GOTO 0x0346
  6: 0x033F [0x1D] PRINT_EVENT_MESSAGE(message_id=7370*)
    → "The traveling merchant who sold me the orb said that the beast within can only be released in burning circles located deep within the Yughott Grotto, the Palborough Mines, and Giddeus, or in the arcane halls of the Spires of Holla, Dem, and Mea.\u0007He was a shady sort, though, so who can say whether his word can be trusted?\u007F1\u0000\u0007"
  7: 0x0342 [0x23] WAIT_FOR_DIALOG_INTERACTION
  8: 0x0343 [0x01] GOTO 0x034A

SUBROUTINE_0346:
  9: 0x0346 [0x1D] PRINT_EVENT_MESSAGE(message_id=7373*)
    → "Oh, dear! I see a crack here. It's worthless now, so I'll dispose of it. But, I've still got more!\u007F1\u0000\u0007"
 10: 0x0349 [0x23] WAIT_FOR_DIALOG_INTERACTION
 11: 0x034A [0x21] END_EVENT
 12: 0x034B [0x00] END_REQSTACK()
```
