# Event 356

## Metadata

| Field           | Value    |
|-----------------|----------|
| Event Index     | 10/114   |
| Offset          | 0x025D   |
| Data Size       | 20 bytes |
| Calculated Size | 20 bytes |
| Instructions    | 11       |

```
      00 01 02 03 04 05 06 07  08 09 0A 0B 0C 0D 0E 0F
      -- -- -- -- -- -- -- --  -- -- -- -- -- -- -- --
0250:                                         20 01 42                .B
0260: 1E F0 FF FF 7F 6F 70 1D  29 80 23 1D 34 80 23 21  .....op.).#.4.#!
0270: 00                                                .               
```

## Opcodes

```
  0: 0x025D [0x20] SET_CLI_EVENT_UC_FLAG: Lock player control
  1: 0x025F [0x42] SET_CLI_EVENT_CANCEL_DATA()
  2: 0x0260 [0x1E] EventEntity looks at LocalPlayer and starts talking
  3: 0x0265 [0x6F] WAIT_FRAME_DELAY: Yield until WaitTime reaches zero
  4: 0x0266 [0x70] WAIT_ENTITY_RENDER_FLAG: Wait while EventEntity->Render.Flags3 bit 2 is set (cancel turn if not)
  5: 0x0267 [0x1D] PRINT_EVENT_MESSAGE(message_id=7354*)
    → "All right, it's a deal. (Heh, what a sucker!)\u007F1\u0000\u0007"
  6: 0x026A [0x23] WAIT_FOR_DIALOG_INTERACTION
  7: 0x026B [0x1D] PRINT_EVENT_MESSAGE(message_id=7371*)
    → "The trader who I acquired these from was muttering something about terrible beasts sealed away in the far-off reaches of Bearclaw Pinnacle and the Boneyard Gully.\u0007I give you fair warning though: there was something...unsettling about that man. That knotted, grime-ridden mess of hair reaching almost to the ground, that glint of madness in his bloodshot eyes...\u007F1\u0000\u0007"
  8: 0x026E [0x23] WAIT_FOR_DIALOG_INTERACTION
  9: 0x026F [0x21] END_EVENT
 10: 0x0270 [0x00] END_REQSTACK()
```
