# Event 360

## Metadata

| Field           | Value    |
|-----------------|----------|
| Event Index     | 30/114   |
| Offset          | 0x04B6   |
| Data Size       | 25 bytes |
| Calculated Size | 25 bytes |
| Instructions    | 12       |

```
      00 01 02 03 04 05 06 07  08 09 0A 0B 0C 0D 0E 0F
      -- -- -- -- -- -- -- --  -- -- -- -- -- -- -- --
04B0:                   20 01  42 1E F0 FF FF 7F 6F 70         .B.....op
04C0: 1D 3C 80 23 1D 3D 80 23  03 01 10 02 10 21 00     .<.#.=.#.....!. 
```

## Opcodes

```
  0: 0x04B6 [0x20] SET_CLI_EVENT_UC_FLAG: Lock player control
  1: 0x04B8 [0x42] SET_CLI_EVENT_CANCEL_DATA()
  2: 0x04B9 [0x1E] EventEntity looks at LocalPlayer and starts talking
  3: 0x04BE [0x6F] WAIT_FRAME_DELAY: Yield until WaitTime reaches zero
  4: 0x04BF [0x70] WAIT_ENTITY_RENDER_FLAG: Wait while EventEntity->Render.Flags3 bit 2 is set (cancel turn if not)
  5: 0x04C0 [0x1D] PRINT_EVENT_MESSAGE(message_id=8761*)
    → "Wonderful! There's a suck--\u0007Er, a satisfied customer born every minute!\u007F1\u0000\u0007"
  6: 0x04C3 [0x23] WAIT_FOR_DIALOG_INTERACTION
  7: 0x04C4 [0x1D] PRINT_EVENT_MESSAGE(message_id=8762*)
    → "So don't hesitate to come back, you hear?\u007F1\u0000\u0007"
  8: 0x04C7 [0x23] WAIT_FOR_DIALOG_INTERACTION
  9: 0x04C8 [0x03] Work_Zone[1] = Work_Zone[2]
 10: 0x04CD [0x21] END_EVENT
 11: 0x04CE [0x00] END_REQSTACK()
```
