# Event 390

## Metadata

| Field           | Value    |
|-----------------|----------|
| Event Index     | 21/114   |
| Offset          | 0x038A   |
| Data Size       | 31 bytes |
| Calculated Size | 31 bytes |
| Instructions    | 13       |

```
      00 01 02 03 04 05 06 07  08 09 0A 0B 0C 0D 0E 0F
      -- -- -- -- -- -- -- --  -- -- -- -- -- -- -- --
0380:                                20 01 42 1E F0 FF             .B...
0390: FF 7F 6F 70 02 02 10 00  80 00 A3 03 1D 2A 80 23  ..op.........*.#
03A0: 01 A7 03 1D 36 80 23 21  00                       ....6.#!.       
```

## Opcodes

```
  0: 0x038A [0x20] SET_CLI_EVENT_UC_FLAG: Lock player control
  1: 0x038C [0x42] SET_CLI_EVENT_CANCEL_DATA()
  2: 0x038D [0x1E] EventEntity looks at LocalPlayer and starts talking
  3: 0x0392 [0x6F] WAIT_FRAME_DELAY: Yield until WaitTime reaches zero
  4: 0x0393 [0x70] WAIT_ENTITY_RENDER_FLAG: Wait while EventEntity->Render.Flags3 bit 2 is set (cancel turn if not)
  5: 0x0394 [0x02] IF !(Work_Zone[2] == 0*) GOTO 0x03A3
  6: 0x039C [0x1D] PRINT_EVENT_MESSAGE(message_id=7363*)
    → "The merchant I bought it from told me that the monster can easily be released! Just toss it into the burning circles in Qu'Bia, the Yughott Grotto, the Palborough Mines, and Giddeus.\u007F1\u0000\u0007"
  7: 0x039F [0x23] WAIT_FOR_DIALOG_INTERACTION
  8: 0x03A0 [0x01] GOTO 0x03A7
  9: 0x03A3 [0x1D] PRINT_EVENT_MESSAGE(message_id=7373*)
    → "Oh, dear! I see a crack here. It's worthless now, so I'll dispose of it. But, I've still got more!\u007F1\u0000\u0007"
 10: 0x03A6 [0x23] WAIT_FOR_DIALOG_INTERACTION
 11: 0x03A7 [0x21] END_EVENT
 12: 0x03A8 [0x00] END_REQSTACK()
```
