# Event 5

## Metadata

| Field           | Value    |
|-----------------|----------|
| Event Index     | 15/114   |
| Offset          | 0x02D0   |
| Data Size       | 31 bytes |
| Calculated Size | 31 bytes |
| Instructions    | 13       |

```
      00 01 02 03 04 05 06 07  08 09 0A 0B 0C 0D 0E 0F
      -- -- -- -- -- -- -- --  -- -- -- -- -- -- -- --
02D0: 20 01 42 1E F0 FF FF 7F  6F 70 02 02 10 00 80 00   .B.....op......
02E0: E9 02 1D 30 80 23 01 ED  02 1D 36 80 23 21 00     ...0.#....6.#!. 
```

## Opcodes

```
  0: 0x02D0 [0x20] SET_CLI_EVENT_UC_FLAG: Lock player control
  1: 0x02D2 [0x42] SET_CLI_EVENT_CANCEL_DATA()
  2: 0x02D3 [0x1E] EventEntity looks at LocalPlayer and starts talking
  3: 0x02D8 [0x6F] WAIT_FRAME_DELAY: Yield until WaitTime reaches zero
  4: 0x02D9 [0x70] WAIT_ENTITY_RENDER_FLAG: Wait while EventEntity->Render.Flags3 bit 2 is set (cancel turn if not)
  5: 0x02DA [0x02] IF !(Work_Zone[2] == 0*) GOTO 0x02E9
  6: 0x02E2 [0x1D] PRINT_EVENT_MESSAGE(message_id=7367*)
    → "The dealer that sold me that strange orb said that the monster inside could only be released by tossing it in burning circles in the Yughott Grotto, the Palborough Mines, and Giddeus, or at some strange door in Ghelsba.\u007F1\u0000\u0007"
  7: 0x02E5 [0x23] WAIT_FOR_DIALOG_INTERACTION
  8: 0x02E6 [0x01] GOTO 0x02ED
  9: 0x02E9 [0x1D] PRINT_EVENT_MESSAGE(message_id=7373*)
    → "Oh, dear! I see a crack here. It's worthless now, so I'll dispose of it. But, I've still got more!\u007F1\u0000\u0007"
 10: 0x02EC [0x23] WAIT_FOR_DIALOG_INTERACTION
 11: 0x02ED [0x21] END_EVENT
 12: 0x02EE [0x00] END_REQSTACK()
```
