# Event 65535

## Metadata

| Field           | Value    |
|-----------------|----------|
| Event Index     | 75/114   |
| Offset          | 0x1797   |
| Data Size       | 55 bytes |
| Calculated Size | 55 bytes |
| Instructions    | 11       |

```
      00 01 02 03 04 05 06 07  08 09 0A 0B 0C 0D 0E 0F
      -- -- -- -- -- -- -- --  -- -- -- -- -- -- -- --
1790:                      1E  AB 60 0F 01 1C BA 80 1E         ..`......
17A0: 9B 60 0F 01 6F 70 5B 02  80 F8 FF FF 7F F8 FF FF  .`..op[.........
17B0: 7F 6A 69 6D 30 1C 7C 80  5B 02 80 F8 FF FF 7F F8  .jim0.|.[.......
17C0: FF FF 7F 6A 69 6D 31 1C  14 80 39 BB 80 00        ...jim1...9...  
```

## Opcodes

```
  0: 0x1797 [0x1E] EventEntity looks at Mewk Chorosap (ID: 17785003/0x010F60AB) and starts talking
  1: 0x179C [0x1C] WAIT(270* ticks)
  2: 0x179F [0x1E] EventEntity looks at Shemo (ID: 17784987/0x010F609B) and starts talking
  3: 0x17A4 [0x6F] WAIT_FRAME_DELAY: Yield until WaitTime reaches zero
  4: 0x17A5 [0x70] WAIT_ENTITY_RENDER_FLAG: Wait while EventEntity->Render.Flags3 bit 2 is set (cancel turn if not)
  5: 0x17A6 [0x5B] LOAD_EXT_SCHEDULER: Load scheduler "jim0" with entities [EventEntity, EventEntity], work=65*
  6: 0x17B5 [0x1C] WAIT(120* ticks)
  7: 0x17B8 [0x5B] LOAD_EXT_SCHEDULER: Load scheduler "jim1" with entities [EventEntity, EventEntity], work=65*
  8: 0x17C7 [0x1C] WAIT(60* ticks)
  9: 0x17CA [0x39] SET_ENTITY_DIRECTION(direction=8.4°*)
 10: 0x17CD [0x00] END_REQSTACK()
```
