# Event 65535

## Metadata

| Field           | Value    |
|-----------------|----------|
| Event Index     | 60/114   |
| Offset          | 0x15A0   |
| Data Size       | 45 bytes |
| Calculated Size | 45 bytes |
| Instructions    | 12       |

```
      00 01 02 03 04 05 06 07  08 09 0A 0B 0C 0D 0E 0F
      -- -- -- -- -- -- -- --  -- -- -- -- -- -- -- --
15A0: 32 65 80 1F 00 94 80 95  80 00 80 1F 01 1C 16 80  2e..............
15B0: 39 96 80 1C 97 80 1F 00  98 80 99 80 00 80 1F 01  9...............
15C0: 1C 16 80 39 9A 80 1C 97  80 01 A0 15 00           ...9.........   
```

## Opcodes

```
  0: 0x15A0 [0x32] ExtData[1]->MainSpeed = 13* * 0.1
  1: 0x15A3 [0x1F] MOVE_ENTITY: EventEntity moves to X=-96.584*, Z=-8.519*, Y=0.000*
  2: 0x15AB [0x1F] MOVE_ENTITY: Update entity position (mode=1)
  3: 0x15AD [0x1C] WAIT(30* ticks)
  4: 0x15B0 [0x39] SET_ENTITY_DIRECTION(direction=19.7°*)
  5: 0x15B3 [0x1C] WAIT(360* ticks)
  6: 0x15B6 [0x1F] MOVE_ENTITY: EventEntity moves to X=-96.241*, Z=8.872*, Y=0.000*
  7: 0x15BE [0x1F] MOVE_ENTITY: Update entity position (mode=1)
  8: 0x15C0 [0x1C] WAIT(30* ticks)
  9: 0x15C3 [0x39] SET_ENTITY_DIRECTION(direction=2.8°*)
 10: 0x15C6 [0x1C] WAIT(360* ticks)
 11: 0x15C9 [0x01] GOTO 0x15A0
```

## Data or dead code:

```
# Dead code (unreachable instructions):
     0x15CC [0x00] END_REQSTACK()
```