# Event 65535

## Metadata

| Field           | Value    |
|-----------------|----------|
| Event Index     | 71/114   |
| Offset          | 0x1720   |
| Data Size       | 53 bytes |
| Calculated Size | 53 bytes |
| Instructions    | 10       |

```
      00 01 02 03 04 05 06 07  08 09 0A 0B 0C 0D 0E 0F
      -- -- -- -- -- -- -- --  -- -- -- -- -- -- -- --
1720: 32 65 80 1F 00 B2 80 B3  80 00 80 1F 01 1F 00 B4  2e..............
1730: 80 B5 80 00 80 1F 01 6F  1C 4E 80 79 00 49 60 0F  .......o.N.y.I`.
1740: 01 86 60 0F 01 5B B6 80  86 60 0F 01 86 60 0F 01  ..`..[...`...`..
1750: 74 6C 6B 30 00                                    tlk0.           
```

## Opcodes

```
  0: 0x1720 [0x32] ExtData[1]->MainSpeed = 13* * 0.1
  1: 0x1723 [0x1F] MOVE_ENTITY: EventEntity moves to X=-58.047*, Z=9.433*, Y=0.000*
  2: 0x172B [0x1F] MOVE_ENTITY: Update entity position (mode=1)
  3: 0x172D [0x1F] MOVE_ENTITY: EventEntity moves to X=-56.466*, Z=10.018*, Y=0.000*
  4: 0x1735 [0x1F] MOVE_ENTITY: Update entity position (mode=1)
  5: 0x1737 [0x6F] WAIT_FRAME_DELAY: Yield until WaitTime reaches zero
  6: 0x1738 [0x1C] WAIT(15* ticks)
  7: 0x173B [0x79] Shami (ID: 17784905/0x010F6049) looks at Squintrox Dryeyes (ID: 17784966/0x010F6086) (Basic look)
  8: 0x1745 [0x5B] LOAD_EXT_SCHEDULER: Load scheduler "tlk0" with entities [Squintrox Dryeyes (ID: 17784966/0x010F6086), Squintrox Dryeyes (ID: 17784966/0x010F6086)], work=215*
  9: 0x1754 [0x00] END_REQSTACK()
```
