# Event 611

## Metadata

| Field           | Value    |
|-----------------|----------|
| Event Index     | 15/15    |
| Offset          | 0x0397   |
| Data Size       | 44 bytes |
| Calculated Size | 44 bytes |
| Instructions    | 10       |

```
      00 01 02 03 04 05 06 07  08 09 0A 0B 0C 0D 0E 0F
      -- -- -- -- -- -- -- --  -- -- -- -- -- -- -- --
0390:                      1E  F0 FF FF 7F 6F 70 5B 14         .....op[.
03A0: 80 07 80 0E 01 07 80 0E  01 65 30 30 31 1D 22 80  .........e001.".
03B0: 23 53 07 80 0E 01 07 80  0E 01 65 30 30 31 1C 16  #S........e001..
03C0: 80 21 00                                          .!.             
```

## Opcodes

```
  0: 0x0397 [0x1E] EventEntity looks at LocalPlayer and starts talking
  1: 0x039C [0x6F] WAIT_FRAME_DELAY: Yield until WaitTime reaches zero
  2: 0x039D [0x70] WAIT_ENTITY_RENDER_FLAG: Wait while EventEntity->Render.Flags3 bit 2 is set (cancel turn if not)
  3: 0x039E [0x5B] LOAD_EXT_SCHEDULER: Load scheduler "e001" with entities [Miene (ID: 17727495/0x010E8007), Miene (ID: 17727495/0x010E8007)], work=80*
  4: 0x03AD [0x1D] PRINT_EVENT_MESSAGE(message_id=7483*)
    → "Say, what's this doing here? Isn't this the button I gave you? You must have dropped it, silly!\u007F1\u0000\u0007"
  5: 0x03B0 [0x23] WAIT_FOR_DIALOG_INTERACTION
  6: 0x03B1 [0x53] WAIT_SCHEDULER_TASK: Wait for scheduler "e001" with entities [Miene (ID: 17727495/0x010E8007), Miene (ID: 17727495/0x010E8007)]
  7: 0x03BE [0x1C] WAIT(30* ticks)
  8: 0x03C1 [0x21] END_EVENT
  9: 0x03C2 [0x00] END_REQSTACK()
```
