# Event 65535

## Metadata

| Field           | Value    |
|-----------------|----------|
| Event Index     | 18/23    |
| Offset          | 0x4617   |
| Data Size       | 72 bytes |
| Calculated Size | 72 bytes |
| Instructions    | 12       |

```
      00 01 02 03 04 05 06 07  08 09 0A 0B 0C 0D 0E 0F
      -- -- -- -- -- -- -- --  -- -- -- -- -- -- -- --
4610:                      42  45 0E 80 F8 FF FF 7F F8         BE.......
4620: FF FF 7F 66 64 6F 31 00  80 55 0E 80 F8 FF FF 7F  ...fdo1..U......
4630: F8 FF FF 7F 66 64 6F 31  46 01 38 0F 80 80 F0 FF  ....fdo1F.8.....
4640: FF 7F 1C 2A 80 03 02 10  0B 7F 46 00 45 0E 80 F8  ...*......F.E...
4650: FF FF 7F F8 FF FF 7F 66  64 69 31 00 80 21 00     .......fdi1..!. 
```

## Opcodes

```
  0: 0x4617 [0x42] SET_CLI_EVENT_CANCEL_DATA()
  1: 0x4618 [0x45] LOAD_SCHEDULED_TASK: Load scheduler "fdo1" with entities [EventEntity, EventEntity], work=[200*, 0*]
  2: 0x4629 [0x55] WAIT_LOAD_SCHEDULER: Wait for scheduler "fdo1" with entities [EventEntity, EventEntity], work=200*
  3: 0x4638 [0x46] CAMERA_CONTROL: Disable user control
  4: 0x463A [0x38] SET_CLIENT_EVENT_MODE(mode=19*)
  5: 0x463D [0x80] LOAD_WAIT(entity=LocalPlayer)
  6: 0x4642 [0x1C] WAIT(30* ticks)
  7: 0x4645 [0x03] Work_Zone[2] = (Entity->Render.Flags01 >> 25) & 1
  8: 0x464A [0x46] CAMERA_CONTROL: Restore default settings
  9: 0x464C [0x45] LOAD_SCHEDULED_TASK: Load scheduler "fdi1" with entities [EventEntity, EventEntity], work=[200*, 0*]
 10: 0x465D [0x21] END_EVENT
 11: 0x465E [0x00] END_REQSTACK()
```
