# Event 65535

## Metadata

| Field           | Value    |
|-----------------|----------|
| Event Index     | 17/23    |
| Offset          | 0x45CF   |
| Data Size       | 72 bytes |
| Calculated Size | 72 bytes |
| Instructions    | 12       |

```
      00 01 02 03 04 05 06 07  08 09 0A 0B 0C 0D 0E 0F
      -- -- -- -- -- -- -- --  -- -- -- -- -- -- -- --
45C0:                                               42                 B
45D0: 45 0E 80 F8 FF FF 7F F8  FF FF 7F 66 64 6F 31 00  E..........fdo1.
45E0: 80 55 0E 80 F8 FF FF 7F  F8 FF FF 7F 66 64 6F 31  .U..........fdo1
45F0: 46 01 38 0F 80 80 F0 FF  FF 7F 1C 2A 80 03 02 10  F.8........*....
4600: 0B 7F 46 00 45 0E 80 F8  FF FF 7F F8 FF FF 7F 66  ..F.E..........f
4610: 64 69 31 00 80 21 00                              di1..!.         
```

## Opcodes

```
  0: 0x45CF [0x42] SET_CLI_EVENT_CANCEL_DATA()
  1: 0x45D0 [0x45] LOAD_SCHEDULED_TASK: Load scheduler "fdo1" with entities [EventEntity, EventEntity], work=[200*, 0*]
  2: 0x45E1 [0x55] WAIT_LOAD_SCHEDULER: Wait for scheduler "fdo1" with entities [EventEntity, EventEntity], work=200*
  3: 0x45F0 [0x46] CAMERA_CONTROL: Disable user control
  4: 0x45F2 [0x38] SET_CLIENT_EVENT_MODE(mode=19*)
  5: 0x45F5 [0x80] LOAD_WAIT(entity=LocalPlayer)
  6: 0x45FA [0x1C] WAIT(30* ticks)
  7: 0x45FD [0x03] Work_Zone[2] = (Entity->Render.Flags01 >> 25) & 1
  8: 0x4602 [0x46] CAMERA_CONTROL: Restore default settings
  9: 0x4604 [0x45] LOAD_SCHEDULED_TASK: Load scheduler "fdi1" with entities [EventEntity, EventEntity], work=[200*, 0*]
 10: 0x4615 [0x21] END_EVENT
 11: 0x4616 [0x00] END_REQSTACK()
```
