# Event 65535

## Metadata

| Field           | Value    |
|-----------------|----------|
| Event Index     | 23/23    |
| Offset          | 0x468E   |
| Data Size       | 52 bytes |
| Calculated Size | 52 bytes |
| Instructions    | 12       |

```
      00 01 02 03 04 05 06 07  08 09 0A 0B 0C 0D 0E 0F
      -- -- -- -- -- -- -- --  -- -- -- -- -- -- -- --
4680:                                            32 1D                2.
4690: 80 1F 00 F2 81 F3 81 F4  81 1F 01 1F 00 F5 81 F6  ................
46A0: 81 F7 81 1F 01 1F 00 F8  81 F9 81 FA 81 1F 01 1F  ................
46B0: 00 FB 81 FC 81 FD 81 1F  01 1E ED 90 03 01 1C A1  ................
46C0: 80 00                                             ..              
```

## Opcodes

```
  0: 0x468E [0x32] ExtData[1]->MainSpeed = 13* * 0.1
  1: 0x4691 [0x1F] MOVE_ENTITY: EventEntity moves to X=19.459*, Z=169.764*, Y=-0.643*
  2: 0x4699 [0x1F] MOVE_ENTITY: Update entity position (mode=1)
  3: 0x469B [0x1F] MOVE_ENTITY: EventEntity moves to X=18.338*, Z=169.436*, Y=-0.693*
  4: 0x46A3 [0x1F] MOVE_ENTITY: Update entity position (mode=1)
  5: 0x46A5 [0x1F] MOVE_ENTITY: EventEntity moves to X=18.077*, Z=169.327*, Y=-0.661*
  6: 0x46AD [0x1F] MOVE_ENTITY: Update entity position (mode=1)
  7: 0x46AF [0x1F] MOVE_ENTITY: EventEntity moves to X=17.455*, Z=167.766*, Y=-0.585*
  8: 0x46B7 [0x1F] MOVE_ENTITY: Update entity position (mode=1)
  9: 0x46B9 [0x1E] EventEntity looks at Gessho (ID: 17010925/0x010390ED) and starts talking
 10: 0x46BE [0x1C] WAIT(90* ticks)
 11: 0x46C1 [0x00] END_REQSTACK()
```
