# Event 65535

## Metadata

| Field           | Value    |
|-----------------|----------|
| Event Index     | 12/16    |
| Offset          | 0x00AB   |
| Data Size       | 69 bytes |
| Calculated Size | 69 bytes |
| Instructions    | 17       |

```
      00 01 02 03 04 05 06 07  08 09 0A 0B 0C 0D 0E 0F
      -- -- -- -- -- -- -- --  -- -- -- -- -- -- -- --
00A0:                                   1E F0 FF FF 7F             .....
00B0: 1C 02 80 29 08 C6 A0 0A  01 06 1E F0 FF FF 7F 1C  ...)............
00C0: 02 80 1E F0 FF FF 7F 1C  02 80 1E F0 FF FF 7F 1C  ................
00D0: 02 80 1E F0 FF FF 7F 1C  02 80 1E F0 FF FF 7F 1C  ................
00E0: 02 80 1E F0 FF FF 7F 1C  02 80 1E F0 FF FF 7F 00  ................
```

## Opcodes

```
  0: 0x00AB [0x1E] EventEntity looks at LocalPlayer and starts talking
  1: 0x00B0 [0x1C] WAIT(30* ticks)
  2: 0x00B3 [0x29] REQ_SET_WAIT(priority=0x08, entity_id=23 (ID: 17473734/0x010AA0C6), tag_num=0x06)
  3: 0x00BA [0x1E] EventEntity looks at LocalPlayer and starts talking
  4: 0x00BF [0x1C] WAIT(30* ticks)
  5: 0x00C2 [0x1E] EventEntity looks at LocalPlayer and starts talking
  6: 0x00C7 [0x1C] WAIT(30* ticks)
  7: 0x00CA [0x1E] EventEntity looks at LocalPlayer and starts talking
  8: 0x00CF [0x1C] WAIT(30* ticks)
  9: 0x00D2 [0x1E] EventEntity looks at LocalPlayer and starts talking
 10: 0x00D7 [0x1C] WAIT(30* ticks)
 11: 0x00DA [0x1E] EventEntity looks at LocalPlayer and starts talking
 12: 0x00DF [0x1C] WAIT(30* ticks)
 13: 0x00E2 [0x1E] EventEntity looks at LocalPlayer and starts talking
 14: 0x00E7 [0x1C] WAIT(30* ticks)
 15: 0x00EA [0x1E] EventEntity looks at LocalPlayer and starts talking
 16: 0x00EF [0x00] END_REQSTACK()
```
