# Event 65535

## Metadata

| Field           | Value    |
|-----------------|----------|
| Event Index     | 4/6      |
| Offset          | 0x0006   |
| Data Size       | 54 bytes |
| Calculated Size | 54 bytes |
| Instructions    | 9        |

```
      00 01 02 03 04 05 06 07  08 09 0A 0B 0C 0D 0E 0F
      -- -- -- -- -- -- -- --  -- -- -- -- -- -- -- --
0000:                   1C 00  80 81 00 B8 B2 06 01 5B        .........[
0010: 01 80 B8 B2 06 01 B8 B2  06 01 73 72 61 31 53 B8  ..........sra1S.
0020: B2 06 01 B8 B2 06 01 73  72 61 31 1C 02 80 4B B8  .......sra1...K.
0030: B2 06 01 03 80 6F 76 B8  B2 06 01 00              .....ov.....    
```

## Opcodes

```
  0: 0x0006 [0x1C] WAIT(30* ticks)
  1: 0x0009 [0x81] SET_ENTITY_BLINKING(blink_flag=0x00, entity=Prishe (ID: 17216184/0x0106B2B8))
  2: 0x000F [0x5B] LOAD_EXT_SCHEDULER: Load scheduler "sra1" with entities [Prishe (ID: 17216184/0x0106B2B8), Prishe (ID: 17216184/0x0106B2B8)], work=481*
  3: 0x001E [0x53] WAIT_SCHEDULER_TASK: Wait for scheduler "sra1" with entities [Prishe (ID: 17216184/0x0106B2B8), Prishe (ID: 17216184/0x0106B2B8)]
  4: 0x002B [0x1C] WAIT(6* ticks)
  5: 0x002E [0x4B] UPDATE_ENTITY_YAW(entity=Prishe (ID: 17216184/0x0106B2B8), yaw=16.2°*)
  6: 0x0035 [0x6F] WAIT_FRAME_DELAY: Yield until WaitTime reaches zero
  7: 0x0036 [0x76] CHECK_ENTITY_RENDER_FLAGS: Wait until Prishe (ID: 17216184/0x0106B2B8) Render.Flags0 and Render.Flags3 conditions are met
  8: 0x003B [0x00] END_REQSTACK()
```
