# 17928252

## Common Data

| Field            | Value               |
|------------------|---------------------|
| Zone             | Leafallia (ID: 281) |
| Block Size       | 16856 bytes         |
| Total Events     | 6                   |
| References Count | 267                 |

## List of Events

| Event ID              | Entrypoint   |   Size |   Instructions |
|-----------------------|--------------|--------|----------------|
| [65535](#event-65535) | 0x0000       |    658 |             62 |
| [64](#event-64)       | 0x0292       |   1635 |            196 |
| [65](#event-65)       | 0x08F5       |   7130 |            796 |
| [66](#event-66)       | 0x24CF       |   4827 |            579 |
| [67](#event-67)       | 0x37AA       |    390 |             55 |
| [68](#event-68)       | 0x3930       |   1108 |            151 |

## DAT References (imed_data)

|   Index | Hex Value   |   Dec Value |
|---------|-------------|-------------|
|       0 | 0x00C8      |         200 |
|       1 | 0x0000      |           0 |
|       2 | 0x00C9      |         201 |
|       3 | 0x0001      |           1 |
|       4 | 0x002D      |          45 |
|       5 | 0x0002      |           2 |
|       6 | 0x001E      |          30 |
|       7 | 0x00D7      |         215 |
|       8 | 0x0093      |         147 |
|       9 | 0xFFFFC5CC  |  4294952396 |
|      10 | 0x50FA      |       20730 |
|      11 | 0xFFFFFE8E  |  4294966926 |
|      12 | 0x0BB8      |        3000 |
|      13 | 0xFFFFBB22  |  4294949666 |
|      14 | 0x4B0A      |       19210 |
|      15 | 0xFFFFFDEE  |  4294966766 |
|      16 | 0xFFFFBFC8  |  4294950856 |
|      17 | 0x44F2      |       17650 |
|      18 | 0xFFFFFF9C  |  4294967196 |
|      19 | 0x03E8      |        1000 |
|      20 | 0x0366      |         870 |
|      21 | 0x0154      |         340 |
|      22 | 0xFFFFFE2A  |  4294966826 |
|      23 | 0x0A8C      |        2700 |
|      24 | 0x0C91      |        3217 |
|      25 | 0x0D49      |        3401 |
|      26 | 0x0CB0      |        3248 |
|      27 | 0x032E      |         814 |
|      28 | 0x0258      |         600 |
|      29 | 0x0005      |           5 |
|      30 | 0x0006      |           6 |
|      31 | 0x00F0      |         240 |
|      32 | 0x09F6      |        2550 |
|      33 | 0xFFFFD530  |  4294956336 |
|      34 | 0x31B0      |       12720 |
|      35 | 0xFFFFFFEC  |  4294967276 |
|      36 | 0x0AF0      |        2800 |
|      37 | 0x0096      |         150 |
|      38 | 0x0DCF      |        3535 |
|      39 | 0x0078      |         120 |
|      40 | 0x003C      |          60 |
|      41 | 0x1F1A      |        7962 |
|      42 | 0xFFFFBCB2  |  4294950066 |
|      43 | 0x46AA      |       18090 |
|      44 | 0xFFFFFE48  |  4294966856 |
|      45 | 0x0F32      |        3890 |
|      46 | 0x0DE8      |        3560 |
|      47 | 0x0DE9      |        3561 |
|      48 | 0x005A      |          90 |
|      49 | 0x0D3D      |        3389 |
|      50 | 0x02BC      |         700 |
|      51 | 0x0D8A      |        3466 |
|      52 | 0x01FE      |         510 |
|      53 | 0x010E      |         270 |
|      54 | 0x0C9F      |        3231 |
|      55 | 0x1F1B      |        7963 |
|      56 | 0x0050      |          80 |
|      57 | 0x000A      |          10 |
|      58 | 0x0DE5      |        3557 |
|      59 | 0x0DE6      |        3558 |
|      60 | 0x0064      |         100 |
|      61 | 0x1F1C      |        7964 |
|      62 | 0x1F1D      |        7965 |
|      63 | 0x1F1E      |        7966 |
|      64 | 0x1F1F      |        7967 |
|      65 | 0x1F20      |        7968 |
|      66 | 0x1F21      |        7969 |
|      67 | 0x1F22      |        7970 |
|      68 | 0x1F23      |        7971 |
|      69 | 0x0384      |         900 |
|      70 | 0x0C99      |        3225 |
|      71 | 0x1F24      |        7972 |
|      72 | 0x00B4      |         180 |
|      73 | 0x000F      |          15 |
|      74 | 0x0C9A      |        3226 |
|      75 | 0x0014      |          20 |
|      76 | 0x0D53      |        3411 |
|      77 | 0xFFFFBA6E  |  4294949486 |
|      78 | 0x16A94     |       92820 |
|      79 | 0xFFFFCF68  |  4294954856 |
|      80 | 0x69AB4     |      432820 |
|      81 | 0xFFFFAC2C  |  4294945836 |
|      82 | 0x16C06     |       93190 |
|      83 | 0xFFFFCF7C  |  4294954876 |
|      84 | 0x0C80      |        3200 |
|      85 | 0xFFFFB582  |  4294948226 |
|      86 | 0x1BF08     |      114440 |
|      87 | 0xFFFFC568  |  4294952296 |
|      88 | 0xFFFFB0B4  |  4294946996 |
|      89 | 0x1674C     |       91980 |
|      90 | 0xFFFFD120  |  4294955296 |
|      91 | 0x0C1C      |        3100 |
|      92 | 0xFFFFB334  |  4294947636 |
|      93 | 0x169FE     |       92670 |
|      94 | 0xFFFFCAE0  |  4294953696 |
|      95 | 0xFFFFFC18  |  4294966296 |
|      96 | 0xFFFFB14B  |  4294947147 |
|      97 | 0x1678E     |       92046 |
|      98 | 0xFFFFCD38  |  4294954296 |
|      99 | 0xFFFFCB44  |  4294953796 |
|     100 | 0xFFFFCD9C  |  4294954396 |
|     101 | 0x0003      |           3 |
|     102 | 0xFFFFC8EC  |  4294953196 |
|     103 | 0xFFFFCC70  |  4294954096 |
|     104 | 0x0004      |           4 |
|     105 | 0xFFFFCCD4  |  4294954196 |
|     106 | 0xFFFFCE64  |  4294954596 |
|     107 | 0xFFFFD012  |  4294955026 |
|     108 | 0x0007      |           7 |
|     109 | 0xFFFFCDCE  |  4294954446 |
|     110 | 0x0008      |           8 |
|     111 | 0xFFFFC9B4  |  4294953396 |
|     112 | 0xFFFFACD6  |  4294946006 |
|     113 | 0x16C60     |       93280 |
|     114 | 0xFFFFCD56  |  4294954326 |
|     115 | 0xFFFFB6B8  |  4294948536 |
|     116 | 0x1671A     |       91930 |
|     117 | 0xFFFFD094  |  4294955156 |
|     118 | 0x0BEA      |        3050 |
|     119 | 0xFFFFACC2  |  4294945986 |
|     120 | 0x16ADA     |       92890 |
|     121 | 0xFFFFD01C  |  4294955036 |
|     122 | 0x0032      |          50 |
|     123 | 0x16918     |       92440 |
|     124 | 0x0D82      |        3458 |
|     125 | 0x0F08      |        3848 |
|     126 | 0x0F26      |        3878 |
|     127 | 0x0474      |        1140 |
|     128 | 0x0DCA      |        3530 |
|     129 | 0x008E      |         142 |
|     130 | 0x194F6     |      103670 |
|     131 | 0xFFFFC888  |  4294953096 |
|     132 | 0x0168      |         360 |
|     133 | 0x1B544     |      111940 |
|     134 | 0xFFFFC374  |  4294951796 |
|     135 | 0x1F25      |        7973 |
|     136 | 0x1F26      |        7974 |
|     137 | 0x0E68      |        3688 |
|     138 | 0x00E6      |         230 |
|     139 | 0x1F27      |        7975 |
|     140 | 0x0E69      |        3689 |
|     141 | 0x00C6      |         198 |
|     142 | 0x0028      |          40 |
|     143 | 0x1F28      |        7976 |
|     144 | 0x0CFD      |        3325 |
|     145 | 0x005E      |          94 |
|     146 | 0x0097      |         151 |
|     147 | 0x01E0      |         480 |
|     148 | 0x0D2F      |        3375 |
|     149 | 0x1F29      |        7977 |
|     150 | 0x1F2A      |        7978 |
|     151 | 0x01A4      |         420 |
|     152 | 0x001D      |          29 |
|     153 | 0x0080      |         128 |
|     154 | 0x1F2B      |        7979 |
|     155 | 0x007D      |         125 |
|     156 | 0x1F2C      |        7980 |
|     157 | 0x1F2D      |        7981 |
|     158 | 0x1F2E      |        7982 |
|     159 | 0x012C      |         300 |
|     160 | 0x0091      |         145 |
|     161 | 0x0276      |         630 |
|     162 | 0x6ED34     |      453940 |
|     163 | 0xFFFFC180  |  4294951296 |
|     164 | 0x03E7      |         999 |
|     165 | 0x1F2F      |        7983 |
|     166 | 0x1F30      |        7984 |
|     167 | 0x008C      |         140 |
|     168 | 0x1F31      |        7985 |
|     169 | 0x1F32      |        7986 |
|     170 | 0x1F33      |        7987 |
|     171 | 0x0048      |          72 |
|     172 | 0x1BD14     |      113940 |
|     173 | 0x0090      |         144 |
|     174 | 0x0058      |          88 |
|     175 | 0x0CB4      |        3252 |
|     176 | 0x00E9      |         233 |
|     177 | 0x1F34      |        7988 |
|     178 | 0x026C      |         620 |
|     179 | 0x1F35      |        7989 |
|     180 | 0x0F6E      |        3950 |
|     181 | 0x0ED8      |        3800 |
|     182 | 0x0D48      |        3400 |
|     183 | 0x0D35      |        3381 |
|     184 | 0x0046      |          70 |
|     185 | 0x1F36      |        7990 |
|     186 | 0x1F37      |        7991 |
|     187 | 0x041A      |        1050 |
|     188 | 0x1CC4      |        7364 |
|     189 | 0x1F38      |        7992 |
|     190 | 0x1F39      |        7993 |
|     191 | 0x1F3A      |        7994 |
|     192 | 0x1F3B      |        7995 |
|     193 | 0x1F3C      |        7996 |
|     194 | 0x0039      |          57 |
|     195 | 0x1F3D      |        7997 |
|     196 | 0x1F3E      |        7998 |
|     197 | 0x0F28      |        3880 |
|     198 | 0x1F3F      |        7999 |
|     199 | 0x1F40      |        8000 |
|     200 | 0x032F      |         815 |
|     201 | 0x1F42      |        8002 |
|     202 | 0x1F43      |        8003 |
|     203 | 0x1F44      |        8004 |
|     204 | 0x1F45      |        8005 |
|     205 | 0x1F46      |        8006 |
|     206 | 0x2710      |       10000 |
|     207 | 0x1F47      |        8007 |
|     208 | 0x1F48      |        8008 |
|     209 | 0x1F49      |        8009 |
|     210 | 0x1F4A      |        8010 |
|     211 | 0x1F4B      |        8011 |
|     212 | 0x09C5      |        2501 |
|     213 | 0x1F4C      |        8012 |
|     214 | 0x1F4D      |        8013 |
|     215 | 0x0C76      |        3190 |
|     216 | 0x1F4E      |        8014 |
|     217 | 0x0275      |         629 |
|     218 | 0x044C      |        1100 |
|     219 | 0x0F0A      |        3850 |
|     220 | 0x0190      |         400 |
|     221 | 0x04B0      |        1200 |
|     222 | 0x0D33      |        3379 |
|     223 | 0x1F4F      |        8015 |
|     224 | 0xFFFFFC00  |  4294966272 |
|     225 | 0x00D2      |         210 |
|     226 | 0x0C90      |        3216 |
|     227 | 0x1F50      |        8016 |
|     228 | 0x0D85      |        3461 |
|     229 | 0x1F51      |        8017 |
|     230 | 0x01F4      |         500 |
|     231 | 0x1F52      |        8018 |
|     232 | 0x0CB7      |        3255 |
|     233 | 0x06A4      |        1700 |
|     234 | 0x1F53      |        8019 |
|     235 | 0x0EA6      |        3750 |
|     236 | 0x07FF      |        2047 |
|     237 | 0x0DD9      |        3545 |
|     238 | 0x1F54      |        8020 |
|     239 | 0x1F55      |        8021 |
|     240 | 0x1F56      |        8022 |
|     241 | 0x0C93      |        3219 |
|     242 | 0x1F57      |        8023 |
|     243 | 0x1F58      |        8024 |
|     244 | 0x1F59      |        8025 |
|     245 | 0x0D7B      |        3451 |
|     246 | 0x0CA3      |        3235 |
|     247 | 0x1F5A      |        8026 |
|     248 | 0x0EF6      |        3830 |
|     249 | 0x1F5B      |        8027 |
|     250 | 0x1F5C      |        8028 |
|     251 | 0x1F5D      |        8029 |
|     252 | 0x1F5E      |        8030 |
|     253 | 0x003A      |          58 |
|     254 | 0x0E6C      |        3692 |
|     255 | 0x1F5F      |        8031 |
|     256 | 0xFFFFCF9F  |  4294954911 |
|     257 | 0x1F60      |        8032 |
|     258 | 0x1F61      |        8033 |
|     259 | 0x1F62      |        8034 |
|     260 | 0x5547      |       21831 |
|     261 | 0x6669      |       26217 |
|     262 | 0x66F6      |       26358 |
|     263 | 0x1F66      |        8038 |
|     264 | 0x1F67      |        8039 |
|     265 | 0x1F68      |        8040 |
|     266 | 0x1F6A      |        8042 |

## String References

- **7364**: @@
- **8010**: Are you sure you want $3 bayld? [Yes./On second thought...]
- **8011**: Are you sure about this? [Yes./On second thought...]

## Events

### Event 65535

#### Metadata

| Field        | Value     |
|--------------|-----------|
| Entrypoint   | 0x0000    |
| Data Size    | 658 bytes |
| Instructions | 1         |

```
      00 01 02 03 04 05 06 07  08 09 0A 0B 0C 0D 0E 0F
      -- -- -- -- -- -- -- --  -- -- -- -- -- -- -- --
0000: 00 45 00 80 F0 FF FF 7F  F0 FF FF 7F 66 64 69 30  .E..........fdi0
0010: 01 80 55 00 80 F0 FF FF  7F F0 FF FF 7F 66 64 69  ..U..........fdi
0020: 30 1B 45 00 80 F0 FF FF  7F F0 FF FF 7F 66 64 6F  0.E..........fdo
0030: 30 01 80 55 00 80 F0 FF  FF 7F F0 FF FF 7F 66 64  0..U..........fd
0040: 6F 30 1B 45 00 80 F0 FF  FF 7F F0 FF FF 7F 66 64  o0.E..........fd
0050: 69 31 01 80 55 00 80 F0  FF FF 7F F0 FF FF 7F 66  i1..U..........f
0060: 64 69 31 1B 45 00 80 F0  FF FF 7F F0 FF FF 7F 66  di1.E..........f
0070: 64 6F 31 01 80 55 00 80  F0 FF FF 7F F0 FF FF 7F  do1..U..........
0080: 66 64 6F 31 1B 45 02 80  F0 FF FF 7F F0 FF FF 7F  fdo1.E..........
0090: 77 68 69 31 01 80 55 02  80 F0 FF FF 7F F0 FF FF  whi1..U.........
00A0: 7F 77 68 69 31 1B 45 02  80 F0 FF FF 7F F0 FF FF  .whi1.E.........
00B0: 7F 77 68 6F 31 01 80 55  02 80 F0 FF FF 7F F0 FF  .who1..U........
00C0: FF 7F 77 68 6F 31 1B 45  02 80 F0 FF FF 7F F0 FF  ..who1.E........
00D0: FF 7F 77 68 6F 32 01 80  55 02 80 F0 FF FF 7F F0  ..who2..U.......
00E0: FF FF 7F 77 68 6F 32 1B  45 02 80 F0 FF FF 7F F0  ...who2.E.......
00F0: FF FF 7F 77 68 6F 33 01  80 55 02 80 F0 FF FF 7F  ...who3..U......
0100: F0 FF FF 7F 77 68 6F 33  1B 62 03 80 F0 FF FF 7F  ....who3.b......
0110: F0 FF FF 7F 6D 61 69 6E  01 80 1C 04 80 45 00 80  ....main.....E..
0120: F0 FF FF 7F F0 FF FF 7F  66 64 6F 31 01 80 55 00  ........fdo1..U.
0130: 80 F0 FF FF 7F F0 FF FF  7F 66 64 6F 31 1B 45 00  .........fdo1.E.
0140: 80 F0 FF FF 7F F0 FF FF  7F 66 64 69 31 01 80 62  .........fdi1..b
0150: 05 80 F0 FF FF 7F F0 FF  FF 7F 6D 61 69 6E 01 80  ..........main..
0160: 1C 06 80 55 00 80 F0 FF  FF 7F F0 FF FF 7F 66 64  ...U..........fd
0170: 69 31 1B 45 00 80 F0 FF  FF 7F F0 FF FF 7F 62 6C  i1.E..........bl
0180: 6F 6E 01 80 45 02 80 F0  FF FF 7F F0 FF FF 7F 62  on..E..........b
0190: 6C 6F 6E 01 80 1B 45 02  80 F0 FF FF 7F F0 FF FF  lon...E.........
01A0: 7F 77 68 69 30 01 80 55  02 80 F0 FF FF 7F F0 FF  .whi0..U........
01B0: FF 7F 77 68 69 30 1B 45  02 80 F0 FF FF 7F F0 FF  ..whi0.E........
01C0: FF 7F 77 68 6F 30 01 80  55 02 80 F0 FF FF 7F F0  ..who0..U.......
01D0: FF FF 7F 77 68 6F 30 1B  45 07 80 F0 FF FF 7F F0  ...who0.E.......
01E0: FF FF 7F 65 66 6F 6E 01  80 55 07 80 F0 FF FF 7F  ...efon..U......
01F0: F0 FF FF 7F 65 66 6F 6E  1B 45 00 80 F0 FF FF 7F  ....efon.E......
0200: F0 FF FF 7F 66 64 69 73  01 80 1B 45 00 80 F0 FF  ....fdis...E....
0210: FF 7F F0 FF FF 7F 66 64  6F 73 01 80 55 00 80 F0  ......fdos..U...
0220: FF FF 7F F0 FF FF 7F 66  64 6F 73 1B 45 00 80 F0  .......fdos.E...
0230: FF FF 7F F0 FF FF 7F 66  64 69 66 01 80 1B 45 00  .......fdif...E.
0240: 80 F0 FF FF 7F F0 FF FF  7F 66 64 6F 66 01 80 55  .........fdof..U
0250: 00 80 F0 FF FF 7F F0 FF  FF 7F 66 64 6F 66 1B 45  ..........fdof.E
0260: 00 80 F0 FF FF 7F F0 FF  FF 7F 66 64 69 70 01 80  ..........fdip..
0270: 1B 45 00 80 F0 FF FF 7F  F0 FF FF 7F 66 64 6F 70  .E..........fdop
0280: 01 80 55 00 80 F0 FF FF  7F F0 FF FF 7F 66 64 6F  ..U..........fdo
0290: 70 1B                                             p.              
```

#### Opcodes

```
  0: 0x0000 [0x00] END_REQSTACK()
```

#### Data or dead code:

```
# Dead code (unreachable instructions):
     0x0001 [0x45] LOAD_SCHEDULED_TASK: Load scheduler "fdi0" with entities [LocalPlayer, LocalPlayer], work=[200*, 0*]
     0x0012 [0x55] WAIT_LOAD_SCHEDULER: Wait for scheduler "fdi0" with entities [LocalPlayer, LocalPlayer], work=200*
     0x0021 [0x1B] RETURN
     0x0022 [0x45] LOAD_SCHEDULED_TASK: Load scheduler "fdo0" with entities [LocalPlayer, LocalPlayer], work=[200*, 0*]
     0x0033 [0x55] WAIT_LOAD_SCHEDULER: Wait for scheduler "fdo0" with entities [LocalPlayer, LocalPlayer], work=200*
     0x0042 [0x1B] RETURN
     0x0043 [0x45] LOAD_SCHEDULED_TASK: Load scheduler "fdi1" with entities [LocalPlayer, LocalPlayer], work=[200*, 0*]
     0x0054 [0x55] WAIT_LOAD_SCHEDULER: Wait for scheduler "fdi1" with entities [LocalPlayer, LocalPlayer], work=200*
     0x0063 [0x1B] RETURN
     0x0064 [0x45] LOAD_SCHEDULED_TASK: Load scheduler "fdo1" with entities [LocalPlayer, LocalPlayer], work=[200*, 0*]
     0x0075 [0x55] WAIT_LOAD_SCHEDULER: Wait for scheduler "fdo1" with entities [LocalPlayer, LocalPlayer], work=200*
     0x0084 [0x1B] RETURN
     0x0085 [0x45] LOAD_SCHEDULED_TASK: Load scheduler "whi1" with entities [LocalPlayer, LocalPlayer], work=[201*, 0*]
     0x0096 [0x55] WAIT_LOAD_SCHEDULER: Wait for scheduler "whi1" with entities [LocalPlayer, LocalPlayer], work=201*
     0x00A5 [0x1B] RETURN
     0x00A6 [0x45] LOAD_SCHEDULED_TASK: Load scheduler "who1" with entities [LocalPlayer, LocalPlayer], work=[201*, 0*]
     0x00B7 [0x55] WAIT_LOAD_SCHEDULER: Wait for scheduler "who1" with entities [LocalPlayer, LocalPlayer], work=201*
     0x00C6 [0x1B] RETURN
     0x00C7 [0x45] LOAD_SCHEDULED_TASK: Load scheduler "who2" with entities [LocalPlayer, LocalPlayer], work=[201*, 0*]
     0x00D8 [0x55] WAIT_LOAD_SCHEDULER: Wait for scheduler "who2" with entities [LocalPlayer, LocalPlayer], work=201*
     0x00E7 [0x1B] RETURN
     0x00E8 [0x45] LOAD_SCHEDULED_TASK: Load scheduler "who3" with entities [LocalPlayer, LocalPlayer], work=[201*, 0*]
     0x00F9 [0x55] WAIT_LOAD_SCHEDULER: Wait for scheduler "who3" with entities [LocalPlayer, LocalPlayer], work=201*
     0x0108 [0x1B] RETURN
     0x0109 [0x62] LOAD_EVENT_SCHEDULER: Load scheduler "main" with entities [LocalPlayer, LocalPlayer], work=[1*, 0*]
     0x011A [0x1C] WAIT(45* ticks)
     0x011D [0x45] LOAD_SCHEDULED_TASK: Load scheduler "fdo1" with entities [LocalPlayer, LocalPlayer], work=[200*, 0*]
     0x012E [0x55] WAIT_LOAD_SCHEDULER: Wait for scheduler "fdo1" with entities [LocalPlayer, LocalPlayer], work=200*
     0x013D [0x1B] RETURN
     0x013E [0x45] LOAD_SCHEDULED_TASK: Load scheduler "fdi1" with entities [LocalPlayer, LocalPlayer], work=[200*, 0*]
     0x014F [0x62] LOAD_EVENT_SCHEDULER: Load scheduler "main" with entities [LocalPlayer, LocalPlayer], work=[2*, 0*]
     0x0160 [0x1C] WAIT(30* ticks)
     0x0163 [0x55] WAIT_LOAD_SCHEDULER: Wait for scheduler "fdi1" with entities [LocalPlayer, LocalPlayer], work=200*
     0x0172 [0x1B] RETURN
     0x0173 [0x45] LOAD_SCHEDULED_TASK: Load scheduler "blon" with entities [LocalPlayer, LocalPlayer], work=[200*, 0*]
     0x0184 [0x45] LOAD_SCHEDULED_TASK: Load scheduler "blon" with entities [LocalPlayer, LocalPlayer], work=[201*, 0*]
     0x0195 [0x1B] RETURN
     0x0196 [0x45] LOAD_SCHEDULED_TASK: Load scheduler "whi0" with entities [LocalPlayer, LocalPlayer], work=[201*, 0*]
     0x01A7 [0x55] WAIT_LOAD_SCHEDULER: Wait for scheduler "whi0" with entities [LocalPlayer, LocalPlayer], work=201*
     0x01B6 [0x1B] RETURN
     0x01B7 [0x45] LOAD_SCHEDULED_TASK: Load scheduler "who0" with entities [LocalPlayer, LocalPlayer], work=[201*, 0*]
     0x01C8 [0x55] WAIT_LOAD_SCHEDULER: Wait for scheduler "who0" with entities [LocalPlayer, LocalPlayer], work=201*
     0x01D7 [0x1B] RETURN
     0x01D8 [0x45] LOAD_SCHEDULED_TASK: Load scheduler "efon" with entities [LocalPlayer, LocalPlayer], work=[215*, 0*]
     0x01E9 [0x55] WAIT_LOAD_SCHEDULER: Wait for scheduler "efon" with entities [LocalPlayer, LocalPlayer], work=215*
     0x01F8 [0x1B] RETURN
     0x01F9 [0x45] LOAD_SCHEDULED_TASK: Load scheduler "fdis" with entities [LocalPlayer, LocalPlayer], work=[200*, 0*]
     0x020A [0x1B] RETURN
     0x020B [0x45] LOAD_SCHEDULED_TASK: Load scheduler "fdos" with entities [LocalPlayer, LocalPlayer], work=[200*, 0*]
     0x021C [0x55] WAIT_LOAD_SCHEDULER: Wait for scheduler "fdos" with entities [LocalPlayer, LocalPlayer], work=200*
     0x022B [0x1B] RETURN
     0x022C [0x45] LOAD_SCHEDULED_TASK: Load scheduler "fdif" with entities [LocalPlayer, LocalPlayer], work=[200*, 0*]
     0x023D [0x1B] RETURN
     0x023E [0x45] LOAD_SCHEDULED_TASK: Load scheduler "fdof" with entities [LocalPlayer, LocalPlayer], work=[200*, 0*]
     0x024F [0x55] WAIT_LOAD_SCHEDULER: Wait for scheduler "fdof" with entities [LocalPlayer, LocalPlayer], work=200*
     0x025E [0x1B] RETURN
     0x025F [0x45] LOAD_SCHEDULED_TASK: Load scheduler "fdip" with entities [LocalPlayer, LocalPlayer], work=[200*, 0*]
     0x0270 [0x1B] RETURN
     0x0271 [0x45] LOAD_SCHEDULED_TASK: Load scheduler "fdop" with entities [LocalPlayer, LocalPlayer], work=[200*, 0*]
     0x0282 [0x55] WAIT_LOAD_SCHEDULER: Wait for scheduler "fdop" with entities [LocalPlayer, LocalPlayer], work=200*
     0x0291 [0x1B] RETURN
```

### Event 64

#### Metadata

| Field        | Value      |
|--------------|------------|
| Entrypoint   | 0x0292     |
| Data Size    | 1635 bytes |
| Instructions | 196        |

```
      00 01 02 03 04 05 06 07  08 09 0A 0B 0C 0D 0E 0F
      -- -- -- -- -- -- -- --  -- -- -- -- -- -- -- --
0290:       42 1A 64 00 46 01  38 08 80 2F 00 20 90 11    B.d.F.8../. ..
02A0: 01 2F 00 23 90 11 01 2F  00 28 90 11 01 4E 00 20  ./.#.../.(...N. 
02B0: 90 11 01 4E 00 23 90 11  01 4E 00 F0 FF FF 7F 94  ...N.#...N......
02C0: 01 20 90 11 01 94 01 23  90 11 01 94 01 28 90 11  . .....#.....(..
02D0: 01 94 01 F0 FF FF 7F 59  05 23 90 11 01 01 59 05  .......Y.#....Y.
02E0: 28 90 11 01 01 BA 20 90  11 01 09 80 0A 80 0B 80  (..... .........
02F0: 0C 80 BA 23 90 11 01 0D  80 0E 80 0F 80 01 80 BA  ...#............
0300: 28 90 11 01 10 80 11 80  12 80 13 80 BA F0 FF FF  (...............
0310: 7F 14 80 15 80 16 80 17  80 80 20 90 11 01 80 23  .......... ....#
0320: 90 11 01 80 28 90 11 01  80 F0 FF FF 7F 5F 03 18  ....(........_..
0330: 80 20 90 11 01 20 90 11  01 6C 75 70 30 5F 03 19  . ... ...lup0_..
0340: 80 23 90 11 01 23 90 11  01 79 72 69 30 5F 03 1A  .#...#...yri0_..
0350: 80 28 90 11 01 28 90 11  01 6D 61 6E 6C 1C 06 80  .(...(...manl...
0360: 45 1B 80 F8 FF FF 7F F8  FF FF 7F 62 32 6F 6E 01  E..........b2on.
0370: 80 45 1B 80 F8 FF FF 7F  F8 FF FF 7F 73 30 30 30  .E..........s000
0380: 01 80 1A 43 00 1C 1C 80  27 10 F0 FF FF 7F 1E 52  ...C....'......R
0390: 1B 80 F8 FF FF 7F F8 FF  FF 7F 73 30 30 30 02 87  ..........s000..
03A0: 7F 1D 80 80 BA 03 45 1B  80 F8 FF FF 7F F8 FF FF  ......E.........
03B0: 7F 73 74 30 31 01 80 01  E7 03 02 87 7F 1E 80 80  .st01...........
03C0: D6 03 45 1B 80 F8 FF FF  7F F8 FF FF 7F 73 74 30  ..E..........st0
03D0: 31 01 80 01 E7 03 45 1B  80 F8 FF FF 7F F8 FF FF  1.....E.........
03E0: 7F 73 30 30 31 01 80 45  1B 80 F8 FF FF 7F F8 FF  .s001..E........
03F0: FF 7F 62 6C 6F 66 01 80  1C 1F 80 4B 20 90 11 01  ..blof.....K ...
0400: 20 80 BA F0 FF FF 7F 21  80 22 80 23 80 24 80 4A   ......!.".#.$.J
0410: F0 FF FF 7F 20 90 11 01  7A 00 F0 FF FF 7F 27 10  .... ...z.....'.
0420: F0 FF FF 7F 1F 02 87 7F  1D 80 80 50 04 52 1B 80  ...........P.R..
0430: F8 FF FF 7F F8 FF FF 7F  73 74 30 31 45 1B 80 F8  ........st01E...
0440: FF FF 7F F8 FF FF 7F 73  74 30 32 01 80 01 9B 04  .......st02.....
0450: 02 87 7F 1E 80 80 7B 04  52 1B 80 F8 FF FF 7F F8  ......{.R.......
0460: FF FF 7F 73 74 30 31 45  1B 80 F8 FF FF 7F F8 FF  ...st01E........
0470: FF 7F 73 74 30 32 01 80  01 9B 04 52 1B 80 F8 FF  ..st02.....R....
0480: FF 7F F8 FF FF 7F 73 30  30 31 45 1B 80 F8 FF FF  ......s001E.....
0490: 7F F8 FF FF 7F 73 30 30  32 01 80 5B 19 80 23 90  .....s002..[..#.
04A0: 11 01 23 90 11 01 79 72  69 31 1C 25 80 4E 00 28  ..#...yri1.%.N.(
04B0: 90 11 01 5B 1A 80 28 90  11 01 28 90 11 01 6D 61  ...[..(...(...ma
04C0: 6E 31 2A 10 F0 FF FF 7F  4A F0 FF FF 7F 20 90 11  n1*.....J.... ..
04D0: 01 1C 06 80 5B 26 80 20  90 11 01 20 90 11 01 6B  ....[&. ... ...k
04E0: 6F 6C 30 1C 27 80 02 87  7F 1D 80 80 00 05 52 1B  ol0.'.........R.
04F0: 80 F8 FF FF 7F F8 FF FF  7F 73 74 30 32 01 29 05  .........st02.).
0500: 02 87 7F 1E 80 80 1A 05  52 1B 80 F8 FF FF 7F F8  ........R.......
0510: FF FF 7F 73 74 30 32 01  29 05 52 1B 80 F8 FF FF  ...st02.).R.....
0520: 7F F8 FF FF 7F 73 30 30  32 45 1B 80 F8 FF FF 7F  .....s002E......
0530: F8 FF FF 7F 73 30 30 33  01 80 1C 28 80 2B 20 90  ....s003...(.+ .
0540: 11 01 29 80 23 1C 28 80  BA 23 90 11 01 2A 80 2B  ..).#.(..#...*.+
0550: 80 2C 80 2D 80 BA 28 90  11 01 2A 80 2B 80 2C 80  .,.-..(...*.+.,.
0560: 2D 80 AE 05 23 90 11 01  28 90 11 01 5F 03 2E 80  -...#...(..._...
0570: 23 90 11 01 23 90 11 01  6F 72 69 30 5F 03 2F 80  #...#...ori0_./.
0580: 28 90 11 01 28 90 11 01  6F 72 69 30 AE 06 28 90  (...(...ori0..(.
0590: 11 01 1C 28 80 52 1B 80  F8 FF FF 7F F8 FF FF 7F  ...(.R..........
05A0: 73 30 30 33 45 1B 80 F8  FF FF 7F F8 FF FF 7F 73  s003E..........s
05B0: 30 30 34 01 80 1C 30 80  AE 05 23 90 11 01 28 90  004...0...#...(.
05C0: 11 01 5B 31 80 23 90 11  01 23 90 11 01 73 69 74  ..[1.#...#...sit
05D0: 30 5B 2F 80 28 90 11 01  28 90 11 01 67 64 6F 30  0[/.(...(...gdo0
05E0: AE 06 28 90 11 01 1C 06  80 52 1B 80 F8 FF FF 7F  ..(......R......
05F0: F8 FF FF 7F 73 30 30 34  45 1B 80 F8 FF FF 7F F8  ....s004E.......
0600: FF FF 7F 73 30 30 35 01  80 7A 00 20 90 11 01 6B  ...s005..z. ...k
0610: 69 64 6C 30 20 90 11 01  4B 20 90 11 01 32 80 4A  idl0 ...K ...2.J
0620: 20 90 11 01 F0 FF FF 7F  6F 76 20 90 11 01 7B 20   .......ov ...{ 
0630: 90 11 01 7C 00 20 90 11  01 81 00 20 90 11 01 5B  ...|. ..... ...[
0640: 33 80 20 90 11 01 20 90  11 01 75 6E 64 30 1C 25  3. ... ...und0.%
0650: 80 52 1B 80 F8 FF FF 7F  F8 FF FF 7F 73 30 30 35  .R..........s005
0660: 45 1B 80 F8 FF FF 7F F8  FF FF 7F 73 30 30 36 01  E..........s006.
0670: 80 1C 34 80 52 1B 80 F8  FF FF 7F F8 FF FF 7F 73  ..4.R..........s
0680: 30 30 36 45 1B 80 F8 FF  FF 7F F8 FF FF 7F 73 30  006E..........s0
0690: 30 37 01 80 1C 35 80 81  01 20 90 11 01 7C 01 20  07...5... ...|. 
06A0: 90 11 01 5B 36 80 20 90  11 01 20 90 11 01 79 65  ...[6. ... ...ye
06B0: 73 30 2B 20 90 11 01 37  80 23 1C 27 80 59 01 20  s0+ ...7.#.'.Y. 
06C0: 90 11 01 38 80 4A 20 90  11 01 23 90 11 01 7B 20  ...8.J ...#...{ 
06D0: 90 11 01 5B 18 80 20 90  11 01 20 90 11 01 6C 75  ...[.. ... ...lu
06E0: 70 30 1C 05 80 52 1B 80  F8 FF FF 7F F8 FF FF 7F  p0...R..........
06F0: 73 30 30 37 45 1B 80 F8  FF FF 7F F8 FF FF 7F 73  s007E..........s
0700: 30 30 38 01 80 1C 39 80  AE 05 23 90 11 01 28 90  008...9...#...(.
0710: 11 01 5B 3A 80 23 90 11  01 23 90 11 01 73 69 6C  ..[:.#...#...sil
0720: 30 5B 3B 80 28 90 11 01  28 90 11 01 67 64 6C 30  0[;.(...(...gdl0
0730: AE 06 28 90 11 01 6F 76  20 90 11 01 59 01 20 90  ..(...ov ...Y. .
0740: 11 01 3C 80 5B 18 80 20  90 11 01 20 90 11 01 6C  ..<.[.. ... ...l
0750: 75 74 30 2B 20 90 11 01  3D 80 23 2B 20 90 11 01  ut0+ ...=.#+ ...
0760: 3E 80 23 2B 20 90 11 01  3F 80 23 2B 20 90 11 01  >.#+ ...?.#+ ...
0770: 40 80 23 5B 18 80 20 90  11 01 20 90 11 01 6C 75  @.#[.. ... ...lu
0780: 74 31 1C 06 80 52 1B 80  F8 FF FF 7F F8 FF FF 7F  t1...R..........
0790: 73 30 30 38 45 1B 80 F8  FF FF 7F F8 FF FF 7F 73  s008E..........s
07A0: 30 30 39 01 80 2B 23 90  11 01 41 80 23 1C 28 80  009..+#...A.#.(.
07B0: 2B 23 90 11 01 42 80 23  2B 23 90 11 01 43 80 23  +#...B.#+#...C.#
07C0: 1C 28 80 52 1B 80 F8 FF  FF 7F F8 FF FF 7F 73 30  .(.R..........s0
07D0: 30 39 45 1B 80 F8 FF FF  7F F8 FF FF 7F 73 30 31  09E..........s01
07E0: 30 01 80 2B 20 90 11 01  44 80 23 1C 25 80 6B 69  0..+ ...D.#.%.ki
07F0: 64 6C 30 20 90 11 01 4B  20 90 11 01 45 80 52 1B  dl0 ...K ...E.R.
0800: 80 F8 FF FF 7F F8 FF FF  7F 73 30 31 30 45 1B 80  .........s010E..
0810: F8 FF FF 7F F8 FF FF 7F  73 30 31 31 01 80 6F 76  ........s011..ov
0820: 20 90 11 01 1C 28 80 81  00 20 90 11 01 7C 00 20   ....(... ...|. 
0830: 90 11 01 5B 46 80 20 90  11 01 20 90 11 01 61 74  ...[F. ... ...at
0840: 61 30 2B 20 90 11 01 47  80 23 1C 48 80 4B 20 90  a0+ ...G.#.H.K .
0850: 11 01 0C 80 1C 49 80 5B  4A 80 20 90 11 01 20 90  .....I.[J. ... .
0860: 11 01 77 61 6B 30 1C 06  80 27 10 F0 FF FF 7F 20  ..wak0...'..... 
0870: 1C 06 80 5B 2F 80 28 90  11 01 28 90 11 01 67 64  ...[/.(...(...gd
0880: 6F 31 45 00 80 F8 FF FF  7F F8 FF FF 7F 66 64 6F  o1E..........fdo
0890: 31 01 80 1C 4B 80 5B 4C  80 23 90 11 01 23 90 11  1...K.[L.#...#..
08A0: 01 61 72 63 30 55 00 80  F8 FF FF 7F F8 FF FF 7F  .arc0U..........
08B0: 66 64 6F 31 1C 06 80 52  1B 80 F8 FF FF 7F F8 FF  fdo1...R........
08C0: FF 7F 73 30 31 31 59 05  23 90 11 01 00 59 05 28  ..s011Y.#....Y.(
08D0: 90 11 01 00 1C 49 80 AB  11 01 80 1C 03 80 AB 0A  .....I..........
08E0: 46 00 45 00 80 F8 FF FF  7F F8 FF FF 7F 66 64 69  F.E..........fdi
08F0: 32 01 80 21 00                                    2..!.           
```

#### Opcodes

```
  0: 0x0292 [0x42] SET_CLI_EVENT_CANCEL_DATA()
  1: 0x0293 [0x1A] CALL_SUBROUTINE(address=0x0064)
  2: 0x0296 [0x46] CAMERA_CONTROL: Disable user control
  3: 0x0298 [0x38] SET_CLIENT_EVENT_MODE(mode=147*)
  4: 0x029B [0x2F] Arciela (ID: 17928224/0x01119020)->Render.Flags0 &= ~0x80000 // Bit 19
  5: 0x02A1 [0x2F] Darrcuiln (ID: 17928227/0x01119023)->Render.Flags0 &= ~0x80000 // Bit 19
  6: 0x02A7 [0x2F] Unnamed NPC (ID: 17928232/0x01119028)->Render.Flags0 &= ~0x80000 // Bit 19
  7: 0x02AD [0x4E] SET_ENTITY_HIDE_FLAG: Show Arciela (ID: 17928224/0x01119020)
  8: 0x02B3 [0x4E] SET_ENTITY_HIDE_FLAG: Show Darrcuiln (ID: 17928227/0x01119023)
  9: 0x02B9 [0x4E] SET_ENTITY_HIDE_FLAG: Show LocalPlayer
 10: 0x02BF [0x94] Arciela (ID: 17928224/0x01119020)->Render.Flags3 ^= 0x01
 11: 0x02C5 [0x94] Darrcuiln (ID: 17928227/0x01119023)->Render.Flags3 ^= 0x01
 12: 0x02CB [0x94] Unnamed NPC (ID: 17928232/0x01119028)->Render.Flags3 ^= 0x01
 13: 0x02D1 [0x94] LocalPlayer->Render.Flags3 ^= 0x01
 14: 0x02D7 [0x59] UPDATE_ENTITY_DATA: Darrcuiln (ID: 17928227/0x01119023)->Render.Flags0 |= 0x200000
 15: 0x02DE [0x59] UPDATE_ENTITY_DATA: Unnamed NPC (ID: 17928232/0x01119028)->Render.Flags0 |= 0x200000
 16: 0x02E5 [0xBA] SET_ENTITY_POSITION(entity_id=Arciela (ID: 17928224/0x01119020), pos_x=-14.900*, pos_z=20.730*, pos_y=-0.370*, direction=263.7°*)
 17: 0x02F2 [0xBA] SET_ENTITY_POSITION(entity_id=Darrcuiln (ID: 17928227/0x01119023), pos_x=-17.630*, pos_z=19.210*, pos_y=-0.530*, direction=0.0°*)
 18: 0x02FF [0xBA] SET_ENTITY_POSITION(entity_id=Unnamed NPC (ID: 17928232/0x01119028), pos_x=-16.440*, pos_z=17.650*, pos_y=-0.100*, direction=87.9°*)
 19: 0x030C [0xBA] SET_ENTITY_POSITION(entity_id=LocalPlayer, pos_x=0.870*, pos_z=0.340*, pos_y=-0.470*, direction=237.3°*)
 20: 0x0319 [0x80] LOAD_WAIT(entity=Arciela (ID: 17928224/0x01119020))
 21: 0x031E [0x80] LOAD_WAIT(entity=Darrcuiln (ID: 17928227/0x01119023))
 22: 0x0323 [0x80] LOAD_WAIT(entity=Unnamed NPC (ID: 17928232/0x01119028))
 23: 0x0328 [0x80] LOAD_WAIT(entity=LocalPlayer)
 24: 0x032D [0x5F] MULTI_HANDLER_COMPLEX(mode=0x03 - Load ext scheduler (OpCode 0x5B mode 0), ref=3217*, entity1=Arciela (ID: 17928224/0x01119020), entity2=Arciela (ID: 17928224/0x01119020), string="lup0")
 25: 0x033D [0x5F] MULTI_HANDLER_COMPLEX(mode=0x03 - Load ext scheduler (OpCode 0x5B mode 0), ref=3401*, entity1=Darrcuiln (ID: 17928227/0x01119023), entity2=Darrcuiln (ID: 17928227/0x01119023), string="yri0")
 26: 0x034D [0x5F] MULTI_HANDLER_COMPLEX(mode=0x03 - Load ext scheduler (OpCode 0x5B mode 0), ref=3248*, entity1=Unnamed NPC (ID: 17928232/0x01119028), entity2=Unnamed NPC (ID: 17928232/0x01119028), string="manl")
 27: 0x035D [0x1C] WAIT(30* ticks)
 28: 0x0360 [0x45] LOAD_SCHEDULED_TASK: Load scheduler "b2on" with entities [EventEntity, EventEntity], work=[814*, 0*]
 29: 0x0371 [0x45] LOAD_SCHEDULED_TASK: Load scheduler "s000" with entities [EventEntity, EventEntity], work=[814*, 0*]
 30: 0x0382 [0x1A] CALL_SUBROUTINE(address=0x0043)
 31: 0x0385 [0x1C] WAIT(600* ticks)
 32: 0x0388 [0x27] REQ_SET(priority=0x10, entity_id=LocalPlayer, tag_num=0x1E)
 33: 0x038F [0x52] END_LOAD_SCHEDULER: End scheduler "s000" with entities [EventEntity, EventEntity], work=814*
 34: 0x039E [0x02] IF !(LocalPlayer->Race == 5*) GOTO 0x03BA
 35: 0x03A6 [0x45] LOAD_SCHEDULED_TASK: Load scheduler "st01" with entities [EventEntity, EventEntity], work=[814*, 0*]
 36: 0x03B7 [0x01] GOTO 0x03E7
 37: 0x03BA [0x02] IF !(LocalPlayer->Race == 6*) GOTO 0x03D6
 38: 0x03C2 [0x45] LOAD_SCHEDULED_TASK: Load scheduler "st01" with entities [EventEntity, EventEntity], work=[814*, 0*]
 39: 0x03D3 [0x01] GOTO 0x03E7
 40: 0x03D6 [0x45] LOAD_SCHEDULED_TASK: Load scheduler "s001" with entities [EventEntity, EventEntity], work=[814*, 0*]

SUBROUTINE_03E7:
 41: 0x03E7 [0x45] LOAD_SCHEDULED_TASK: Load scheduler "blof" with entities [EventEntity, EventEntity], work=[814*, 0*]
 42: 0x03F8 [0x1C] WAIT(240* ticks)
 43: 0x03FB [0x4B] UPDATE_ENTITY_YAW(entity=Arciela (ID: 17928224/0x01119020), yaw=14.0°*)
 44: 0x0402 [0xBA] SET_ENTITY_POSITION(entity_id=LocalPlayer, pos_x=-10.960*, pos_z=12.720*, pos_y=-0.020*, direction=246.1°*)
 45: 0x040F [0x4A] LocalPlayer looks at Arciela (ID: 17928224/0x01119020)
 46: 0x0418 [0x7A] VM_CONTROL: Reset VM for LocalPlayer
 47: 0x041E [0x27] REQ_SET(priority=0x10, entity_id=LocalPlayer, tag_num=0x1F)
 48: 0x0425 [0x02] IF !(LocalPlayer->Race == 5*) GOTO 0x0450
 49: 0x042D [0x52] END_LOAD_SCHEDULER: End scheduler "st01" with entities [EventEntity, EventEntity], work=814*
 50: 0x043C [0x45] LOAD_SCHEDULED_TASK: Load scheduler "st02" with entities [EventEntity, EventEntity], work=[814*, 0*]
 51: 0x044D [0x01] GOTO 0x049B
 52: 0x0450 [0x02] IF !(LocalPlayer->Race == 6*) GOTO 0x047B
 53: 0x0458 [0x52] END_LOAD_SCHEDULER: End scheduler "st01" with entities [EventEntity, EventEntity], work=814*
 54: 0x0467 [0x45] LOAD_SCHEDULED_TASK: Load scheduler "st02" with entities [EventEntity, EventEntity], work=[814*, 0*]
 55: 0x0478 [0x01] GOTO 0x049B
 56: 0x047B [0x52] END_LOAD_SCHEDULER: End scheduler "s001" with entities [EventEntity, EventEntity], work=814*
 57: 0x048A [0x45] LOAD_SCHEDULED_TASK: Load scheduler "s002" with entities [EventEntity, EventEntity], work=[814*, 0*]

SUBROUTINE_049B:
 58: 0x049B [0x5B] LOAD_EXT_SCHEDULER: Load scheduler "yri1" with entities [Darrcuiln (ID: 17928227/0x01119023), Darrcuiln (ID: 17928227/0x01119023)], work=3401*
 59: 0x04AA [0x1C] WAIT(150* ticks)
 60: 0x04AD [0x4E] SET_ENTITY_HIDE_FLAG: Show Unnamed NPC (ID: 17928232/0x01119028)
 61: 0x04B3 [0x5B] LOAD_EXT_SCHEDULER: Load scheduler "man1" with entities [Unnamed NPC (ID: 17928232/0x01119028), Unnamed NPC (ID: 17928232/0x01119028)], work=3248*
 62: 0x04C2 [0x2A] GET_REQ_LEVEL(level=16, entity_id=LocalPlayer)
 63: 0x04C8 [0x4A] LocalPlayer looks at Arciela (ID: 17928224/0x01119020)
 64: 0x04D1 [0x1C] WAIT(30* ticks)
 65: 0x04D4 [0x5B] LOAD_EXT_SCHEDULER: Load scheduler "kol0" with entities [Arciela (ID: 17928224/0x01119020), Arciela (ID: 17928224/0x01119020)], work=3535*
 66: 0x04E3 [0x1C] WAIT(120* ticks)
 67: 0x04E6 [0x02] IF !(LocalPlayer->Race == 5*) GOTO 0x0500
 68: 0x04EE [0x52] END_LOAD_SCHEDULER: End scheduler "st02" with entities [EventEntity, EventEntity], work=814*
 69: 0x04FD [0x01] GOTO 0x0529
 70: 0x0500 [0x02] IF !(LocalPlayer->Race == 6*) GOTO 0x051A
 71: 0x0508 [0x52] END_LOAD_SCHEDULER: End scheduler "st02" with entities [EventEntity, EventEntity], work=814*
 72: 0x0517 [0x01] GOTO 0x0529
 73: 0x051A [0x52] END_LOAD_SCHEDULER: End scheduler "s002" with entities [EventEntity, EventEntity], work=814*

SUBROUTINE_0529:
 74: 0x0529 [0x45] LOAD_SCHEDULED_TASK: Load scheduler "s003" with entities [EventEntity, EventEntity], work=[814*, 0*]
 75: 0x053A [0x1C] WAIT(60* ticks)
 76: 0x053D [0x2B] Arciela (ID: 17928224/0x01119020) [7962*]:
    → "Okay, it looks like we're all here."
 77: 0x0544 [0x23] WAIT_FOR_DIALOG_INTERACTION
 78: 0x0545 [0x1C] WAIT(60* ticks)
 79: 0x0548 [0xBA] SET_ENTITY_POSITION(entity_id=Darrcuiln (ID: 17928227/0x01119023), pos_x=-17.230*, pos_z=18.090*, pos_y=-0.440*, direction=341.9°*)
 80: 0x0555 [0xBA] SET_ENTITY_POSITION(entity_id=Unnamed NPC (ID: 17928232/0x01119028), pos_x=-17.230*, pos_z=18.090*, pos_y=-0.440*, direction=341.9°*)
 81: 0x0562 [0xAE] MULTI_PURPOSE_ENTITY_HANDLER(case_type=0x05 - Link ActorPointer, entity1=Darrcuiln (ID: 17928227/0x01119023), entity2=Unnamed NPC (ID: 17928232/0x01119028))
 82: 0x056C [0x5F] MULTI_HANDLER_COMPLEX(mode=0x03 - Load ext scheduler (OpCode 0x5B mode 0), ref=3560*, entity1=Darrcuiln (ID: 17928227/0x01119023), entity2=Darrcuiln (ID: 17928227/0x01119023), string="ori0")
 83: 0x057C [0x5F] MULTI_HANDLER_COMPLEX(mode=0x03 - Load ext scheduler (OpCode 0x5B mode 0), ref=3561*, entity1=Unnamed NPC (ID: 17928232/0x01119028), entity2=Unnamed NPC (ID: 17928232/0x01119028), string="ori0")
 84: 0x058C [0xAE] MULTI_PURPOSE_ENTITY_HANDLER(case_type=0x06 - Unset ActorPointer, entity=Unnamed NPC (ID: 17928232/0x01119028))
 85: 0x0592 [0x1C] WAIT(60* ticks)
 86: 0x0595 [0x52] END_LOAD_SCHEDULER: End scheduler "s003" with entities [EventEntity, EventEntity], work=814*
 87: 0x05A4 [0x45] LOAD_SCHEDULED_TASK: Load scheduler "s004" with entities [EventEntity, EventEntity], work=[814*, 0*]
 88: 0x05B5 [0x1C] WAIT(90* ticks)
 89: 0x05B8 [0xAE] MULTI_PURPOSE_ENTITY_HANDLER(case_type=0x05 - Link ActorPointer, entity1=Darrcuiln (ID: 17928227/0x01119023), entity2=Unnamed NPC (ID: 17928232/0x01119028))
 90: 0x05C2 [0x5B] LOAD_EXT_SCHEDULER: Load scheduler "sit0" with entities [Darrcuiln (ID: 17928227/0x01119023), Darrcuiln (ID: 17928227/0x01119023)], work=3389*
 91: 0x05D1 [0x5B] LOAD_EXT_SCHEDULER: Load scheduler "gdo0" with entities [Unnamed NPC (ID: 17928232/0x01119028), Unnamed NPC (ID: 17928232/0x01119028)], work=3561*
 92: 0x05E0 [0xAE] MULTI_PURPOSE_ENTITY_HANDLER(case_type=0x06 - Unset ActorPointer, entity=Unnamed NPC (ID: 17928232/0x01119028))
 93: 0x05E6 [0x1C] WAIT(30* ticks)
 94: 0x05E9 [0x52] END_LOAD_SCHEDULER: End scheduler "s004" with entities [EventEntity, EventEntity], work=814*
 95: 0x05F8 [0x45] LOAD_SCHEDULED_TASK: Load scheduler "s005" with entities [EventEntity, EventEntity], work=[814*, 0*]
 96: 0x0609 [0x7A] VM_CONTROL: Reset VM for Arciela (ID: 17928224/0x01119020)
 97: 0x060F [0x6B] STOP_AND_IDLE: Arciela (ID: 17928224/0x01119020) stops current action and resets to idle (animation="idl0")
 98: 0x0618 [0x4B] UPDATE_ENTITY_YAW(entity=Arciela (ID: 17928224/0x01119020), yaw=3.8°*)
 99: 0x061F [0x4A] Arciela (ID: 17928224/0x01119020) looks at LocalPlayer
100: 0x0628 [0x6F] WAIT_FRAME_DELAY: Yield until WaitTime reaches zero
101: 0x0629 [0x76] CHECK_ENTITY_RENDER_FLAGS: Wait until Arciela (ID: 17928224/0x01119020) Render.Flags0 and Render.Flags3 conditions are met
102: 0x062E [0x7B] Arciela (ID: 17928224/0x01119020) stops talking
103: 0x0633 [0x7C] Arciela (ID: 17928224/0x01119020)->Render.Flags2 |= 0x00
104: 0x0639 [0x81] SET_ENTITY_BLINKING(blink_flag=0x00, entity=Arciela (ID: 17928224/0x01119020))
105: 0x063F [0x5B] LOAD_EXT_SCHEDULER: Load scheduler "und0" with entities [Arciela (ID: 17928224/0x01119020), Arciela (ID: 17928224/0x01119020)], work=3466*
106: 0x064E [0x1C] WAIT(150* ticks)
107: 0x0651 [0x52] END_LOAD_SCHEDULER: End scheduler "s005" with entities [EventEntity, EventEntity], work=814*
108: 0x0660 [0x45] LOAD_SCHEDULED_TASK: Load scheduler "s006" with entities [EventEntity, EventEntity], work=[814*, 0*]
109: 0x0671 [0x1C] WAIT(510* ticks)
110: 0x0674 [0x52] END_LOAD_SCHEDULER: End scheduler "s006" with entities [EventEntity, EventEntity], work=814*
111: 0x0683 [0x45] LOAD_SCHEDULED_TASK: Load scheduler "s007" with entities [EventEntity, EventEntity], work=[814*, 0*]
112: 0x0694 [0x1C] WAIT(270* ticks)
113: 0x0697 [0x81] SET_ENTITY_BLINKING(blink_flag=0x01, entity=Arciela (ID: 17928224/0x01119020))
114: 0x069D [0x7C] Arciela (ID: 17928224/0x01119020)->Render.Flags2 |= 0x01
115: 0x06A3 [0x5B] LOAD_EXT_SCHEDULER: Load scheduler "yes0" with entities [Arciela (ID: 17928224/0x01119020), Arciela (ID: 17928224/0x01119020)], work=3231*
116: 0x06B2 [0x2B] Arciela (ID: 17928224/0x01119020) [7963*]:
    → "The moment of truth awaits. However, before that..."
117: 0x06B9 [0x23] WAIT_FOR_DIALOG_INTERACTION
118: 0x06BA [0x1C] WAIT(120* ticks)
119: 0x06BD [0x59] UPDATE_ENTITY_DATA: Set Arciela (ID: 17928224/0x01119020) turn speed = 80*
120: 0x06C5 [0x4A] Arciela (ID: 17928224/0x01119020) looks at Darrcuiln (ID: 17928227/0x01119023)
121: 0x06CE [0x7B] Arciela (ID: 17928224/0x01119020) stops talking
122: 0x06D3 [0x5B] LOAD_EXT_SCHEDULER: Load scheduler "lup0" with entities [Arciela (ID: 17928224/0x01119020), Arciela (ID: 17928224/0x01119020)], work=3217*
123: 0x06E2 [0x1C] WAIT(2* ticks)
124: 0x06E5 [0x52] END_LOAD_SCHEDULER: End scheduler "s007" with entities [EventEntity, EventEntity], work=814*
125: 0x06F4 [0x45] LOAD_SCHEDULED_TASK: Load scheduler "s008" with entities [EventEntity, EventEntity], work=[814*, 0*]
126: 0x0705 [0x1C] WAIT(10* ticks)
127: 0x0708 [0xAE] MULTI_PURPOSE_ENTITY_HANDLER(case_type=0x05 - Link ActorPointer, entity1=Darrcuiln (ID: 17928227/0x01119023), entity2=Unnamed NPC (ID: 17928232/0x01119028))
128: 0x0712 [0x5B] LOAD_EXT_SCHEDULER: Load scheduler "sil0" with entities [Darrcuiln (ID: 17928227/0x01119023), Darrcuiln (ID: 17928227/0x01119023)], work=3557*
129: 0x0721 [0x5B] LOAD_EXT_SCHEDULER: Load scheduler "gdl0" with entities [Unnamed NPC (ID: 17928232/0x01119028), Unnamed NPC (ID: 17928232/0x01119028)], work=3558*
130: 0x0730 [0xAE] MULTI_PURPOSE_ENTITY_HANDLER(case_type=0x06 - Unset ActorPointer, entity=Unnamed NPC (ID: 17928232/0x01119028))
131: 0x0736 [0x6F] WAIT_FRAME_DELAY: Yield until WaitTime reaches zero
132: 0x0737 [0x76] CHECK_ENTITY_RENDER_FLAGS: Wait until Arciela (ID: 17928224/0x01119020) Render.Flags0 and Render.Flags3 conditions are met
133: 0x073C [0x59] UPDATE_ENTITY_DATA: Set Arciela (ID: 17928224/0x01119020) turn speed = 100*
134: 0x0744 [0x5B] LOAD_EXT_SCHEDULER: Load scheduler "lut0" with entities [Arciela (ID: 17928224/0x01119020), Arciela (ID: 17928224/0x01119020)], work=3217*
135: 0x0753 [0x2B] Arciela (ID: 17928224/0x01119020) [7964*]:
    → "Darrcuiln, please wait here until we return."
136: 0x075A [0x23] WAIT_FOR_DIALOG_INTERACTION
137: 0x075B [0x2B] Arciela (ID: 17928224/0x01119020) [7965*]:
    → "We do not know what dangers lie in store."
138: 0x0762 [0x23] WAIT_FOR_DIALOG_INTERACTION
139: 0x0763 [0x2B] Arciela (ID: 17928224/0x01119020) [7966*]:
    → "Therefore, if anything were to happen to us, I want you to report back to Morimar."
140: 0x076A [0x23] WAIT_FOR_DIALOG_INTERACTION
141: 0x076B [0x2B] Arciela (ID: 17928224/0x01119020) [7967*]:
    → "I know that he will be capable of maintaining peace between the various orders and Ingrid."
142: 0x0772 [0x23] WAIT_FOR_DIALOG_INTERACTION
143: 0x0773 [0x5B] LOAD_EXT_SCHEDULER: Load scheduler "lut1" with entities [Arciela (ID: 17928224/0x01119020), Arciela (ID: 17928224/0x01119020)], work=3217*
144: 0x0782 [0x1C] WAIT(30* ticks)
145: 0x0785 [0x52] END_LOAD_SCHEDULER: End scheduler "s008" with entities [EventEntity, EventEntity], work=814*
146: 0x0794 [0x45] LOAD_SCHEDULED_TASK: Load scheduler "s009" with entities [EventEntity, EventEntity], work=[814*, 0*]
147: 0x07A5 [0x2B] Darrcuiln (ID: 17928227/0x01119023) [7968*]:
    → "(Hmph... Even if I said that I was going with you, I doubt you would listen.)"
148: 0x07AC [0x23] WAIT_FOR_DIALOG_INTERACTION
149: 0x07AD [0x1C] WAIT(60* ticks)
150: 0x07B0 [0x2B] Darrcuiln (ID: 17928227/0x01119023) [7969*]:
    → "(By your word.)"
151: 0x07B7 [0x23] WAIT_FOR_DIALOG_INTERACTION
152: 0x07B8 [0x2B] Darrcuiln (ID: 17928227/0x01119023) [7970*]:
    → "(However, you must promise me that you will return safely!)"
153: 0x07BF [0x23] WAIT_FOR_DIALOG_INTERACTION
154: 0x07C0 [0x1C] WAIT(60* ticks)
155: 0x07C3 [0x52] END_LOAD_SCHEDULER: End scheduler "s009" with entities [EventEntity, EventEntity], work=814*
156: 0x07D2 [0x45] LOAD_SCHEDULED_TASK: Load scheduler "s010" with entities [EventEntity, EventEntity], work=[814*, 0*]
157: 0x07E3 [0x2B] Arciela (ID: 17928224/0x01119020) [7971*]:
    → "Thank you, Darrcuiln."
158: 0x07EA [0x23] WAIT_FOR_DIALOG_INTERACTION
159: 0x07EB [0x1C] WAIT(150* ticks)
160: 0x07EE [0x6B] STOP_AND_IDLE: Arciela (ID: 17928224/0x01119020) stops current action and resets to idle (animation="idl0")
161: 0x07F7 [0x4B] UPDATE_ENTITY_YAW(entity=Arciela (ID: 17928224/0x01119020), yaw=4.9°*)
162: 0x07FE [0x52] END_LOAD_SCHEDULER: End scheduler "s010" with entities [EventEntity, EventEntity], work=814*
163: 0x080D [0x45] LOAD_SCHEDULED_TASK: Load scheduler "s011" with entities [EventEntity, EventEntity], work=[814*, 0*]
164: 0x081E [0x6F] WAIT_FRAME_DELAY: Yield until WaitTime reaches zero
165: 0x081F [0x76] CHECK_ENTITY_RENDER_FLAGS: Wait until Arciela (ID: 17928224/0x01119020) Render.Flags0 and Render.Flags3 conditions are met
166: 0x0824 [0x1C] WAIT(60* ticks)
167: 0x0827 [0x81] SET_ENTITY_BLINKING(blink_flag=0x00, entity=Arciela (ID: 17928224/0x01119020))
168: 0x082D [0x7C] Arciela (ID: 17928224/0x01119020)->Render.Flags2 |= 0x00
169: 0x0833 [0x5B] LOAD_EXT_SCHEDULER: Load scheduler "ata0" with entities [Arciela (ID: 17928224/0x01119020), Arciela (ID: 17928224/0x01119020)], work=3225*
170: 0x0842 [0x2B] Arciela (ID: 17928224/0x01119020) [7972*]:
    → "Okay, Ygnas, <Player>... Let's get going!"
171: 0x0849 [0x23] WAIT_FOR_DIALOG_INTERACTION
172: 0x084A [0x1C] WAIT(180* ticks)
173: 0x084D [0x4B] UPDATE_ENTITY_YAW(entity=Arciela (ID: 17928224/0x01119020), yaw=16.5°*)
174: 0x0854 [0x1C] WAIT(15* ticks)
175: 0x0857 [0x5B] LOAD_EXT_SCHEDULER: Load scheduler "wak0" with entities [Arciela (ID: 17928224/0x01119020), Arciela (ID: 17928224/0x01119020)], work=3226*
176: 0x0866 [0x1C] WAIT(30* ticks)
177: 0x0869 [0x27] REQ_SET(priority=0x10, entity_id=LocalPlayer, tag_num=0x20)
178: 0x0870 [0x1C] WAIT(30* ticks)
179: 0x0873 [0x5B] LOAD_EXT_SCHEDULER: Load scheduler "gdo1" with entities [Unnamed NPC (ID: 17928232/0x01119028), Unnamed NPC (ID: 17928232/0x01119028)], work=3561*
180: 0x0882 [0x45] LOAD_SCHEDULED_TASK: Load scheduler "fdo1" with entities [EventEntity, EventEntity], work=[200*, 0*]
181: 0x0893 [0x1C] WAIT(20* ticks)
182: 0x0896 [0x5B] LOAD_EXT_SCHEDULER: Load scheduler "arc0" with entities [Darrcuiln (ID: 17928227/0x01119023), Darrcuiln (ID: 17928227/0x01119023)], work=3411*
183: 0x08A5 [0x55] WAIT_LOAD_SCHEDULER: Wait for scheduler "fdo1" with entities [EventEntity, EventEntity], work=200*
184: 0x08B4 [0x1C] WAIT(30* ticks)
185: 0x08B7 [0x52] END_LOAD_SCHEDULER: End scheduler "s011" with entities [EventEntity, EventEntity], work=814*
186: 0x08C6 [0x59] UPDATE_ENTITY_DATA: Darrcuiln (ID: 17928227/0x01119023)->Render.Flags0 &= ~0x200000
187: 0x08CD [0x59] UPDATE_ENTITY_DATA: Unnamed NPC (ID: 17928232/0x01119028)->Render.Flags0 &= ~0x200000
188: 0x08D4 [0x1C] WAIT(15* ticks)
189: 0x08D7 [0xAB] EventEntity->DespawnValue = 0* // Set despawn value
190: 0x08DB [0x1C] WAIT(1* ticks)
191: 0x08DE [0xAB] EventEntity->UnknownFlag = 0 // Disable unknown flag
192: 0x08E0 [0x46] CAMERA_CONTROL: Restore default settings
193: 0x08E2 [0x45] LOAD_SCHEDULED_TASK: Load scheduler "fdi2" with entities [EventEntity, EventEntity], work=[200*, 0*]
194: 0x08F3 [0x21] END_EVENT
195: 0x08F4 [0x00] END_REQSTACK()
```

### Event 65

#### Metadata

| Field        | Value      |
|--------------|------------|
| Entrypoint   | 0x08F5     |
| Data Size    | 7130 bytes |
| Instructions | 796        |

```
      00 01 02 03 04 05 06 07  08 09 0A 0B 0C 0D 0E 0F
      -- -- -- -- -- -- -- --  -- -- -- -- -- -- -- --
08F0:                42 1A 64  00 46 01 38 08 80 2F 00       B.d.F.8../.
0900: 20 90 11 01 2F 00 3E 90  11 01 2F 00 28 90 11 01   .../.>.../.(...
0910: 2F 00 29 90 11 01 2F 00  2A 90 11 01 2F 00 2B 90  /.).../.*.../.+.
0920: 11 01 2F 00 2C 90 11 01  2F 00 2D 90 11 01 2F 00  ../.,.../.-.../.
0930: 2E 90 11 01 2F 00 2F 90  11 01 4E 00 20 90 11 01  ...././...N. ...
0940: 4E 00 3E 90 11 01 4E 00  28 90 11 01 4E 00 29 90  N.>...N.(...N.).
0950: 11 01 4E 00 2B 90 11 01  4E 00 2C 90 11 01 4E 00  ..N.+...N.,...N.
0960: 2D 90 11 01 4E 00 2E 90  11 01 4E 00 2F 90 11 01  -...N.....N./...
0970: 94 01 20 90 11 01 94 01  3E 90 11 01 94 01 28 90  .. .....>.....(.
0980: 11 01 94 01 29 90 11 01  94 01 2A 90 11 01 94 01  ....).....*.....
0990: 2B 90 11 01 94 01 2C 90  11 01 94 01 2D 90 11 01  +.....,.....-...
09A0: 94 01 2E 90 11 01 94 01  2F 90 11 01 94 01 F0 FF  ......../.......
09B0: FF 7F 59 05 20 90 11 01  01 59 05 3E 90 11 01 01  ..Y. ....Y.>....
09C0: 59 05 28 90 11 01 01 59  05 29 90 11 01 01 59 05  Y.(....Y.)....Y.
09D0: 2A 90 11 01 01 59 05 2B  90 11 01 01 59 05 2C 90  *....Y.+....Y.,.
09E0: 11 01 01 59 05 2D 90 11  01 01 59 05 2E 90 11 01  ...Y.-....Y.....
09F0: 01 59 05 2F 90 11 01 01  59 05 F0 FF FF 7F 01 BA  .Y./....Y.......
0A00: 20 90 11 01 4D 80 4E 80  4F 80 0C 80 BA 3E 90 11   ...M.N.O....>..
0A10: 01 4D 80 50 80 4F 80 0C  80 BA 28 90 11 01 51 80  .M.P.O....(...Q.
0A20: 52 80 53 80 54 80 BA 29  90 11 01 55 80 56 80 57  R.S.T..)...U.V.W
0A30: 80 13 80 BA 2B 90 11 01  58 80 59 80 5A 80 5B 80  ....+...X.Y.Z.[.
0A40: 02 87 7F 03 80 80 65 0A  BA 2A 90 11 01 5C 80 5D  ......e..*...\.]
0A50: 80 5E 80 5F 80 BA 2C 90  11 01 60 80 61 80 62 80  .^._..,...`.a.b.
0A60: 5B 80 01 68 0B 02 87 7F  05 80 80 8A 0A BA 2A 90  [..h..........*.
0A70: 11 01 5C 80 5D 80 63 80  5F 80 BA 2C 90 11 01 60  ..\.].c._..,...`
0A80: 80 61 80 64 80 5B 80 01  68 0B 02 87 7F 65 80 80  .a.d.[..h....e..
0A90: AF 0A BA 2A 90 11 01 5C  80 5D 80 66 80 5F 80 BA  ...*...\.].f._..
0AA0: 2C 90 11 01 60 80 61 80  67 80 5B 80 01 68 0B 02  ,...`.a.g.[..h..
0AB0: 87 7F 68 80 80 D4 0A BA  2A 90 11 01 5C 80 5D 80  ..h.....*...\.].
0AC0: 5E 80 5F 80 BA 2C 90 11  01 60 80 61 80 69 80 5B  ^._..,...`.a.i.[
0AD0: 80 01 68 0B 02 87 7F 1D  80 80 F9 0A BA 2A 90 11  ..h..........*..
0AE0: 01 5C 80 5D 80 6A 80 5F  80 BA 2C 90 11 01 60 80  .\.].j._..,...`.
0AF0: 61 80 6B 80 5B 80 01 68  0B 02 87 7F 1E 80 80 1E  a.k.[..h........
0B00: 0B BA 2A 90 11 01 5C 80  5D 80 6A 80 5F 80 BA 2C  ..*...\.].j._..,
0B10: 90 11 01 60 80 61 80 6B  80 5B 80 01 68 0B 02 87  ...`.a.k.[..h...
0B20: 7F 6C 80 80 43 0B BA 2A  90 11 01 5C 80 5D 80 63  .l..C..*...\.].c
0B30: 80 5F 80 BA 2C 90 11 01  60 80 61 80 6D 80 5B 80  ._..,...`.a.m.[.
0B40: 01 68 0B 02 87 7F 6E 80  80 68 0B BA 2A 90 11 01  .h....n..h..*...
0B50: 5C 80 5D 80 6F 80 5F 80  BA 2C 90 11 01 60 80 61  \.].o._..,...`.a
0B60: 80 67 80 5B 80 01 68 0B  BA 2D 90 11 01 70 80 71  .g.[..h..-...p.q
0B70: 80 72 80 54 80 BA 2E 90  11 01 73 80 74 80 75 80  .r.T......s.t.u.
0B80: 76 80 BA 2F 90 11 01 77  80 78 80 79 80 54 80 D8  v../...w.x.y.T..
0B90: 01 2F 90 11 01 48 80 D8  03 2F 90 11 01 7A 80 D8  ./...H.../...z..
0BA0: 02 2F 90 11 01 0C 80 BA  F0 FF FF 7F 58 80 7B 80  ./..........X.{.
0BB0: 5A 80 5B 80 80 20 90 11  01 80 3E 90 11 01 80 28  Z.[.. ....>....(
0BC0: 90 11 01 80 29 90 11 01  80 2A 90 11 01 80 2B 90  ....)....*....+.
0BD0: 11 01 80 2C 90 11 01 80  2D 90 11 01 80 2E 90 11  ...,....-.......
0BE0: 01 80 2F 90 11 01 80 F0  FF FF 7F 4A 20 90 11 01  ../........J ...
0BF0: 29 90 11 01 7B 20 90 11  01 4A 28 90 11 01 29 90  )...{ ...J(...).
0C00: 11 01 4A F0 FF FF 7F 29  90 11 01 7B F0 FF FF 7F  ..J....)...{....
0C10: 27 10 F0 FF FF 7F 21 5F  03 7C 80 20 90 11 01 20  '.....!_.|. ... 
0C20: 90 11 01 6B 6F 75 6C 5F  03 7D 80 2A 90 11 01 2A  ...koul_.}.*...*
0C30: 90 11 01 74 75 65 6C 6C  2B 90 11 01 01 80 03 80  ...tuell+.......
0C40: 02 87 7F 03 80 80 5B 0C  5F 03 7E 80 2B 90 11 01  ......[._.~.+...
0C50: 2B 90 11 01 68 6D 6D 6C  01 18 0D 02 87 7F 05 80  +...hmml........
0C60: 80 76 0C 5F 03 7E 80 2B  90 11 01 2B 90 11 01 68  .v._.~.+...+...h
0C70: 66 6D 6C 01 18 0D 02 87  7F 65 80 80 91 0C 5F 03  fml......e...._.
0C80: 7E 80 2B 90 11 01 2B 90  11 01 65 6D 6D 6C 01 18  ~.+...+...emml..
0C90: 0D 02 87 7F 68 80 80 AC  0C 5F 03 7E 80 2B 90 11  ....h...._.~.+..
0CA0: 01 2B 90 11 01 65 66 6D  6C 01 18 0D 02 87 7F 1D  .+...efml.......
0CB0: 80 80 C7 0C 5F 03 7E 80  2B 90 11 01 2B 90 11 01  ...._.~.+...+...
0CC0: 74 6D 61 6C 01 18 0D 02  87 7F 1E 80 80 E2 0C 5F  tmal..........._
0CD0: 03 7E 80 2B 90 11 01 2B  90 11 01 74 6D 61 6C 01  .~.+...+...tmal.
0CE0: 18 0D 02 87 7F 6C 80 80  FD 0C 5F 03 7E 80 2B 90  .....l...._.~.+.
0CF0: 11 01 2B 90 11 01 6D 6D  61 6C 01 18 0D 02 87 7F  ..+...mmal......
0D00: 6E 80 80 18 0D 5F 03 7E  80 2B 90 11 01 2B 90 11  n...._.~.+...+..
0D10: 01 67 6D 61 6C 01 18 0D  6C 2C 90 11 01 01 80 03  .gmal...l,......
0D20: 80 7C 00 3E 90 11 01 81  00 3E 90 11 01 5F 03 33  .|.>.....>..._.3
0D30: 80 3E 90 11 01 3E 90 11  01 75 6E 64 30 6C 29 90  .>...>...und0l).
0D40: 11 01 01 80 03 80 81 00  29 90 11 01 7C 00 29 90  ........)...|.).
0D50: 11 01 6C 2E 90 11 01 01  80 03 80 81 00 2F 90 11  ..l........../..
0D60: 01 2C 2F 90 11 01 2F 90  11 01 63 6F 72 70 6C 2F  .,/.../...corpl/
0D70: 90 11 01 01 80 03 80 69  01 6C 80 45 1B 80 F8 FF  .......i.l.E....
0D80: FF 7F F8 FF FF 7F 73 65  30 31 01 80 1C 06 80 69  ......se01.....i
0D90: 00 6C 80 45 1B 80 F8 FF  FF 7F F8 FF FF 7F 62 32  .l.E..........b2
0DA0: 6F 6E 01 80 45 1B 80 F8  FF FF 7F F8 FF FF 7F 73  on..E..........s
0DB0: 30 32 32 01 80 1A 43 00  1C 7F 80 45 00 80 F8 FF  022...C....E....
0DC0: FF 7F F8 FF FF 7F 6F 76  6C 31 01 80 45 1B 80 F8  ......ovl1..E...
0DD0: FF FF 7F F8 FF FF 7F 62  6C 6F 66 01 80 52 1B 80  .......blof..R..
0DE0: F8 FF FF 7F F8 FF FF 7F  73 30 32 32 45 1B 80 F8  ........s022E...
0DF0: FF FF 7F F8 FF FF 7F 73  30 32 33 01 80 1C 1F 80  .......s023.....
0E00: 5B 80 80 20 90 11 01 20  90 11 01 6B 6F 70 30 92  [.. ... ...kop0.
0E10: 01 F0 FF FF 7F 52 1B 80  F8 FF FF 7F F8 FF FF 7F  .....R..........
0E20: 73 30 32 33 02 87 7F 65  80 80 40 0E 45 1B 80 F8  s023...e..@.E...
0E30: FF FF 7F F8 FF FF 7F 73  67 32 34 01 80 01 C1 0E  .......sg24.....
0E40: 02 87 7F 68 80 80 5C 0E  45 1B 80 F8 FF FF 7F F8  ...h..\.E.......
0E50: FF FF 7F 73 67 32 34 01  80 01 C1 0E 02 87 7F 1D  ...sg24.........
0E60: 80 80 78 0E 45 1B 80 F8  FF FF 7F F8 FF FF 7F 73  ..x.E..........s
0E70: 74 32 34 01 80 01 C1 0E  02 87 7F 1E 80 80 94 0E  t24.............
0E80: 45 1B 80 F8 FF FF 7F F8  FF FF 7F 73 74 32 34 01  E..........st24.
0E90: 80 01 C1 0E 02 87 7F 6E  80 80 B0 0E 45 1B 80 F8  .......n....E...
0EA0: FF FF 7F F8 FF FF 7F 73  67 32 34 01 80 01 C1 0E  .......sg24.....
0EB0: 45 1B 80 F8 FF FF 7F F8  FF FF 7F 73 30 32 34 01  E..........s024.
0EC0: 80 1C 27 80 27 10 F0 FF  FF 7F 22 1C 06 80 02 87  ..'.'.....".....
0ED0: 7F 65 80 80 F9 0E 52 1B  80 F8 FF FF 7F F8 FF FF  .e....R.........
0EE0: 7F 73 67 32 34 45 1B 80  F8 FF FF 7F F8 FF FF 7F  .sg24E..........
0EF0: 73 67 32 35 01 80 01 C5  0F 02 87 7F 68 80 80 24  sg25........h..$
0F00: 0F 52 1B 80 F8 FF FF 7F  F8 FF FF 7F 73 67 32 34  .R..........sg24
0F10: 45 1B 80 F8 FF FF 7F F8  FF FF 7F 73 67 32 35 01  E..........sg25.
0F20: 80 01 C5 0F 02 87 7F 1D  80 80 4F 0F 52 1B 80 F8  ..........O.R...
0F30: FF FF 7F F8 FF FF 7F 73  74 32 34 45 1B 80 F8 FF  .......st24E....
0F40: FF 7F F8 FF FF 7F 73 74  32 35 01 80 01 C5 0F 02  ......st25......
0F50: 87 7F 1E 80 80 7A 0F 52  1B 80 F8 FF FF 7F F8 FF  .....z.R........
0F60: FF 7F 73 74 32 34 45 1B  80 F8 FF FF 7F F8 FF FF  ..st24E.........
0F70: 7F 73 74 32 35 01 80 01  C5 0F 02 87 7F 6E 80 80  .st25........n..
0F80: A5 0F 52 1B 80 F8 FF FF  7F F8 FF FF 7F 73 67 32  ..R..........sg2
0F90: 34 45 1B 80 F8 FF FF 7F  F8 FF FF 7F 73 67 32 35  4E..........sg25
0FA0: 01 80 01 C5 0F 52 1B 80  F8 FF FF 7F F8 FF FF 7F  .....R..........
0FB0: 73 30 32 34 45 1B 80 F8  FF FF 7F F8 FF FF 7F 73  s024E..........s
0FC0: 30 32 35 01 80 1C 27 80  92 00 F0 FF FF 7F 45 00  025...'.......E.
0FD0: 80 F8 FF FF 7F F8 FF FF  7F 6F 76 6C 31 01 80 02  .........ovl1...
0FE0: 87 7F 65 80 80 F9 0F 52  1B 80 F8 FF FF 7F F8 FF  ..e....R........
0FF0: FF 7F 73 67 32 35 01 70  10 02 87 7F 68 80 80 13  ..sg25.p....h...
1000: 10 52 1B 80 F8 FF FF 7F  F8 FF FF 7F 73 67 32 35  .R..........sg25
1010: 01 70 10 02 87 7F 1D 80  80 2D 10 52 1B 80 F8 FF  .p.......-.R....
1020: FF 7F F8 FF FF 7F 73 74  32 35 01 70 10 02 87 7F  ......st25.p....
1030: 1E 80 80 47 10 52 1B 80  F8 FF FF 7F F8 FF FF 7F  ...G.R..........
1040: 73 74 32 35 01 70 10 02  87 7F 6E 80 80 61 10 52  st25.p....n..a.R
1050: 1B 80 F8 FF FF 7F F8 FF  FF 7F 73 67 32 35 01 70  ..........sg25.p
1060: 10 52 1B 80 F8 FF FF 7F  F8 FF FF 7F 73 30 32 35  .R..........s025
1070: 45 1B 80 F8 FF FF 7F F8  FF FF 7F 73 30 32 36 01  E..........s026.
1080: 80 4E 00 2A 90 11 01 27  10 2A 90 11 01 0B 1C 27  .N.*...'.*.....'
1090: 80 D0 81 80 2A 90 11 01  2A 90 11 01 62 6C 30 61  ....*...*...bl0a
10A0: 01 80 5B 7C 80 20 90 11  01 20 90 11 01 6B 6F 75  ..[|. ... ...kou
10B0: 6C 1C 27 80 7A 00 2A 90  11 01 BA 2A 90 11 01 5C  l.'.z.*....*...\
10C0: 80 82 80 83 80 5F 80 27  10 2A 90 11 01 0B 52 1B  ....._.'.*....R.
10D0: 80 F8 FF FF 7F F8 FF FF  7F 73 30 32 36 45 1B 80  .........s026E..
10E0: F8 FF FF 7F F8 FF FF 7F  73 30 32 37 01 80 1C 27  ........s027...'
10F0: 80 BA F0 FF FF 7F 58 80  59 80 5A 80 5B 80 6B 69  ......X.Y.Z.[.ki
1100: 64 6C 30 F0 FF FF 7F 1C  84 80 7A 00 2A 90 11 01  dl0.......z.*...
1110: 52 1B 80 F8 FF FF 7F F8  FF FF 7F 73 30 32 37 45  R..........s027E
1120: 1B 80 F8 FF FF 7F F8 FF  FF 7F 73 30 32 38 01 80  ..........s028..
1130: BA 2A 90 11 01 55 80 85  80 86 80 5F 80 27 10 2A  .*...U....._.'.*
1140: 90 11 01 0B 2A 10 2A 90  11 01 79 00 F0 FF FF 7F  ....*.*...y.....
1150: 2A 90 11 01 1C 28 80 7C  00 20 90 11 01 81 00 20  *....(.|. ..... 
1160: 90 11 01 5B 33 80 20 90  11 01 20 90 11 01 75 6E  ...[3. ... ...un
1170: 64 30 1C 28 80 45 00 80  F8 FF FF 7F F8 FF FF 7F  d0.(.E..........
1180: 6F 76 6C 31 01 80 52 1B  80 F8 FF FF 7F F8 FF FF  ovl1..R.........
1190: 7F 73 30 32 38 45 1B 80  F8 FF FF 7F F8 FF FF 7F  .s028E..........
11A0: 73 30 32 39 01 80 2B 20  90 11 01 87 80 1C 1F 80  s029..+ ........
11B0: 23 7C 01 20 90 11 01 81  01 20 90 11 01 5B 7C 80  #|. ..... ...[|.
11C0: 20 90 11 01 20 90 11 01  6B 6F 75 6C 1C 39 80 52   ... ...koul.9.R
11D0: 1B 80 F8 FF FF 7F F8 FF  FF 7F 73 30 32 39 45 1B  ..........s029E.
11E0: 80 F8 FF FF 7F F8 FF FF  7F 73 30 33 30 01 80 1C  .........s030...
11F0: 06 80 5B 7C 80 20 90 11  01 20 90 11 01 6B 6F 75  ..[|. ... ...kou
1200: 30 2B 20 90 11 01 88 80  1C 30 80 23 52 1B 80 F8  0+ ......0.#R...
1210: FF FF 7F F8 FF FF 7F 73  30 33 30 45 1B 80 F8 FF  .......s030E....
1220: FF 7F F8 FF FF 7F 73 30  33 31 01 80 7C 00 20 90  ......s031..|. .
1230: 11 01 81 00 20 90 11 01  5B 89 80 20 90 11 01 20  .... ...[.. ... 
1240: 90 11 01 6F 72 64 30 1C  27 80 52 1B 80 F8 FF FF  ...ord0.'.R.....
1250: 7F F8 FF FF 7F 73 30 33  31 45 1B 80 F8 FF FF 7F  .....s031E......
1260: F8 FF FF 7F 73 30 33 32  01 80 1C 8A 80 52 1B 80  ....s032.....R..
1270: F8 FF FF 7F F8 FF FF 7F  73 30 33 32 45 1B 80 F8  ........s032E...
1280: FF FF 7F F8 FF FF 7F 73  30 33 33 01 80 1C 06 80  .......s033.....
1290: 2B 20 90 11 01 8B 80 1C  48 80 23 52 1B 80 F8 FF  + ......H.#R....
12A0: FF 7F F8 FF FF 7F 73 30  33 33 45 1B 80 F8 FF FF  ......s033E.....
12B0: 7F F8 FF FF 7F 73 30 33  34 01 80 5B 8C 80 20 90  .....s034..[.. .
12C0: 11 01 20 90 11 01 6F 72  64 31 1C 27 80 52 1B 80  .. ...ord1.'.R..
12D0: F8 FF FF 7F F8 FF FF 7F  73 30 33 34 45 1B 80 F8  ........s034E...
12E0: FF FF 7F F8 FF FF 7F 73  30 33 35 01 80 1C 8A 80  .......s035.....
12F0: CD 8D 80 20 90 11 01 20  90 11 01 73 30 30 31 01  ... ... ...s001.
1300: 80 1C 06 80 52 1B 80 F8  FF FF 7F F8 FF FF 7F 73  ....R..........s
1310: 30 33 35 45 1B 80 F8 FF  FF 7F F8 FF FF 7F 73 30  035E..........s0
1320: 33 36 01 80 1C 8E 80 2B  20 90 11 01 8F 80 1C 27  36.....+ ......'
1330: 80 52 1B 80 F8 FF FF 7F  F8 FF FF 7F 73 30 33 36  .R..........s036
1340: 45 1B 80 F8 FF FF 7F F8  FF FF 7F 73 30 33 37 01  E..........s037.
1350: 80 1C 1F 80 23 7C 01 20  90 11 01 81 01 20 90 11  ....#|. ..... ..
1360: 01 52 1B 80 F8 FF FF 7F  F8 FF FF 7F 73 30 33 37  .R..........s037
1370: 45 1B 80 F8 FF FF 7F F8  FF FF 7F 73 30 33 38 01  E..........s038.
1380: 80 7C 00 28 90 11 01 81  00 28 90 11 01 5F 03 90  .|.(.....(..._..
1390: 80 28 90 11 01 28 90 11  01 75 65 70 30 1C 91 80  .(...(...uep0...
13A0: CD 92 80 2D 90 11 01 2D  90 11 01 73 74 61 72 01  ...-...-...star.
13B0: 80 1C 28 80 7C 01 28 90  11 01 81 01 28 90 11 01  ..(.|.(.....(...
13C0: 27 10 F0 FF FF 7F 24 CD  92 80 2B 90 11 01 2B 90  '.....$...+...+.
13D0: 11 01 73 74 61 72 01 80  1C 48 80 52 1B 80 F8 FF  ..star...H.R....
13E0: FF 7F F8 FF FF 7F 73 30  33 38 02 87 7F 65 80 80  ......s038...e..
13F0: 06 14 45 1B 80 F8 FF FF  7F F8 FF FF 7F 73 67 33  ..E..........sg3
1400: 39 01 80 01 87 14 02 87  7F 68 80 80 22 14 45 1B  9........h..".E.
1410: 80 F8 FF FF 7F F8 FF FF  7F 73 67 33 39 01 80 01  .........sg39...
1420: 87 14 02 87 7F 1D 80 80  3E 14 45 1B 80 F8 FF FF  ........>.E.....
1430: 7F F8 FF FF 7F 73 74 33  39 01 80 01 87 14 02 87  .....st39.......
1440: 7F 1E 80 80 5A 14 45 1B  80 F8 FF FF 7F F8 FF FF  ....Z.E.........
1450: 7F 73 74 33 39 01 80 01  87 14 02 87 7F 6E 80 80  .st39........n..
1460: 76 14 45 1B 80 F8 FF FF  7F F8 FF FF 7F 73 67 33  v.E..........sg3
1470: 39 01 80 01 87 14 45 1B  80 F8 FF FF 7F F8 FF FF  9.....E.........
1480: 7F 73 30 33 39 01 80 1C  27 80 1C 1F 80 02 87 7F  .s039...'.......
1490: 65 80 80 A7 14 52 1B 80  F8 FF FF 7F F8 FF FF 7F  e....R..........
14A0: 73 67 33 39 01 1E 15 02  87 7F 68 80 80 C1 14 52  sg39......h....R
14B0: 1B 80 F8 FF FF 7F F8 FF  FF 7F 73 67 33 39 01 1E  ..........sg39..
14C0: 15 02 87 7F 1D 80 80 DB  14 52 1B 80 F8 FF FF 7F  .........R......
14D0: F8 FF FF 7F 73 74 33 39  01 1E 15 02 87 7F 1E 80  ....st39........
14E0: 80 F5 14 52 1B 80 F8 FF  FF 7F F8 FF FF 7F 73 74  ...R..........st
14F0: 33 39 01 1E 15 02 87 7F  6E 80 80 0F 15 52 1B 80  39......n....R..
1500: F8 FF FF 7F F8 FF FF 7F  73 67 33 39 01 1E 15 52  ........sg39...R
1510: 1B 80 F8 FF FF 7F F8 FF  FF 7F 73 30 33 39 45 1B  ..........s039E.
1520: 80 F8 FF FF 7F F8 FF FF  7F 73 30 34 30 01 80 1C  .........s040...
1530: 93 80 5F 03 94 80 20 90  11 01 20 90 11 01 66 6C  .._... ... ...fl
1540: 30 30 52 1B 80 F8 FF FF  7F F8 FF FF 7F 73 30 34  00R..........s04
1550: 30 45 1B 80 F8 FF FF 7F  F8 FF FF 7F 73 30 34 31  0E..........s041
1560: 01 80 2B 28 90 11 01 95  80 23 1C 48 80 52 1B 80  ..+(.....#.H.R..
1570: F8 FF FF 7F F8 FF FF 7F  73 30 34 31 45 1B 80 F8  ........s041E...
1580: FF FF 7F F8 FF FF 7F 73  30 34 32 01 80 81 00 20  .......s042.... 
1590: 90 11 01 7C 00 20 90 11  01 2B 20 90 11 01 96 80  ...|. ...+ .....
15A0: 23 1C 48 80 7C 01 20 90  11 01 81 01 20 90 11 01  #.H.|. ..... ...
15B0: 45 00 80 F8 FF FF 7F F8  FF FF 7F 6F 76 6C 31 01  E..........ovl1.
15C0: 80 52 1B 80 F8 FF FF 7F  F8 FF FF 7F 73 30 34 32  .R..........s042
15D0: 45 1B 80 F8 FF FF 7F F8  FF FF 7F 73 30 34 33 01  E..........s043.
15E0: 80 1C 97 80 52 1B 80 F8  FF FF 7F F8 FF FF 7F 73  ....R..........s
15F0: 30 34 33 02 87 7F 65 80  80 0F 16 45 1B 80 F8 FF  043...e....E....
1600: FF 7F F8 FF FF 7F 73 67  34 34 01 80 01 90 16 02  ......sg44......
1610: 87 7F 68 80 80 2B 16 45  1B 80 F8 FF FF 7F F8 FF  ..h..+.E........
1620: FF 7F 73 67 34 34 01 80  01 90 16 02 87 7F 1D 80  ..sg44..........
1630: 80 47 16 45 1B 80 F8 FF  FF 7F F8 FF FF 7F 73 74  .G.E..........st
1640: 34 34 01 80 01 90 16 02  87 7F 1E 80 80 63 16 45  44...........c.E
1650: 1B 80 F8 FF FF 7F F8 FF  FF 7F 73 74 34 34 01 80  ..........st44..
1660: 01 90 16 02 87 7F 6E 80  80 7F 16 45 1B 80 F8 FF  ......n....E....
1670: FF 7F F8 FF FF 7F 73 67  34 34 01 80 01 90 16 45  ......sg44.....E
1680: 1B 80 F8 FF FF 7F F8 FF  FF 7F 73 30 34 34 01 80  ..........s044..
1690: 1C 28 80 D0 98 80 2C 90  11 01 2C 90 11 01 62 73  .(....,...,...bs
16A0: 74 61 01 80 1C 48 80 02  87 7F 65 80 80 C1 16 52  ta...H....e....R
16B0: 1B 80 F8 FF FF 7F F8 FF  FF 7F 73 67 34 34 01 38  ..........sg44.8
16C0: 17 02 87 7F 68 80 80 DB  16 52 1B 80 F8 FF FF 7F  ....h....R......
16D0: F8 FF FF 7F 73 67 34 34  01 38 17 02 87 7F 1D 80  ....sg44.8......
16E0: 80 F5 16 52 1B 80 F8 FF  FF 7F F8 FF FF 7F 73 74  ...R..........st
16F0: 34 34 01 38 17 02 87 7F  1E 80 80 0F 17 52 1B 80  44.8.........R..
1700: F8 FF FF 7F F8 FF FF 7F  73 74 34 34 01 38 17 02  ........st44.8..
1710: 87 7F 6E 80 80 29 17 52  1B 80 F8 FF FF 7F F8 FF  ..n..).R........
1720: FF 7F 73 67 34 34 01 38  17 52 1B 80 F8 FF FF 7F  ..sg44.8.R......
1730: F8 FF FF 7F 73 30 34 34  45 1B 80 F8 FF FF 7F F8  ....s044E.......
1740: FF FF 7F 73 30 34 35 01  80 1C 28 80 D0 98 80 2C  ...s045...(....,
1750: 90 11 01 2C 90 11 01 62  73 74 70 01 80 1C 48 80  ...,...bstp...H.
1760: 52 1B 80 F8 FF FF 7F F8  FF FF 7F 73 30 34 35 45  R..........s045E
1770: 1B 80 F8 FF FF 7F F8 FF  FF 7F 73 30 34 36 01 80  ..........s046..
1780: 9F 1F 80 2E 90 11 01 2E  90 11 01 6D 61 69 6E 01  ...........main.
1790: 80 6C 2E 90 11 01 99 80  1F 80 1C 27 80 2B 2E 90  .l.........'.+..
17A0: 11 01 9A 80 1C 28 80 23  52 1B 80 F8 FF FF 7F F8  .....(.#R.......
17B0: FF FF 7F 73 30 34 36 45  1B 80 F8 FF FF 7F F8 FF  ...s046E........
17C0: FF 7F 73 30 34 37 01 80  59 03 20 90 11 01 9B 80  ..s047..Y. .....
17D0: 79 01 20 90 11 01 28 90  11 01 39 80 7C 00 20 90  y. ...(...9.|. .
17E0: 11 01 1C 06 80 2B 20 90  11 01 9C 80 23 7C 01 20  .....+ .....#|. 
17F0: 90 11 01 1C 28 80 52 1B  80 F8 FF FF 7F F8 FF FF  ....(.R.........
1800: 7F 73 30 34 37 45 1B 80  F8 FF FF 7F F8 FF FF 7F  .s047E..........
1810: 73 30 34 38 01 80 2B 2E  90 11 01 9D 80 23 1C 27  s048..+......#.'
1820: 80 7B 20 90 11 01 59 03  20 90 11 01 3C 80 52 1B  .{ ...Y. ...<.R.
1830: 80 F8 FF FF 7F F8 FF FF  7F 73 30 34 38 45 1B 80  .........s048E..
1840: F8 FF FF 7F F8 FF FF 7F  73 30 34 39 01 80 2B 28  ........s049..+(
1850: 90 11 01 9E 80 1C 06 80  45 1B 80 F8 FF FF 7F F8  ........E.......
1860: FF FF 7F 73 65 30 31 01  80 1C 27 80 23 6A 01 80  ...se01...'.#j..
1870: 9F 80 68 80 5C 00 01 80  5C 01 01 80 1A 64 00 9A  ..h.\...\....d..
1880: 92 01 F0 FF FF 7F D3 00  20 90 11 01 1C 1D 80 7C  ........ ......|
1890: 00 20 90 11 01 81 00 20  90 11 01 5B 8C 80 20 90  . ..... ...[.. .
18A0: 11 01 20 90 11 01 6F 72  64 31 CD 8D 80 20 90 11  .. ...ord1... ..
18B0: 01 20 90 11 01 73 30 30  31 01 80 45 00 80 F8 FF  . ...s001..E....
18C0: FF 7F F8 FF FF 7F 62 6C  6F 6E 01 80 D0 A0 80 3E  ......blon.....>
18D0: 90 11 01 3E 90 11 01 73  30 30 31 01 80 1C 28 80  ...>...s001...(.
18E0: 52 1B 80 F8 FF FF 7F F8  FF FF 7F 73 30 34 39 45  R..........s049E
18F0: 1B 80 F8 FF FF 7F F8 FF  FF 7F 73 30 35 30 01 80  ..........s050..
1900: 1A 43 00 1C A1 80 BA 2A  90 11 01 55 80 A2 80 A3  .C.....*...U....
1910: 80 5F 80 7C 01 3E 90 11  01 81 01 3E 90 11 01 5B  ._.|.>.....>...[
1920: 7C 80 3E 90 11 01 3E 90  11 01 6B 6F 75 6C 45 00  |.>...>...koulE.
1930: 80 F8 FF FF 7F F8 FF FF  7F 6F 76 6C 31 01 80 52  .........ovl1..R
1940: 1B 80 F8 FF FF 7F F8 FF  FF 7F 73 30 35 30 45 1B  ..........s050E.
1950: 80 F8 FF FF 7F F8 FF FF  7F 73 30 35 31 01 80 1C  .........s051...
1960: 06 80 2B 3E 90 11 01 8B  80 23 1C 30 80 45 00 80  ..+>.....#.0.E..
1970: F8 FF FF 7F F8 FF FF 7F  6F 76 6C 32 01 80 52 1B  ........ovl2..R.
1980: 80 F8 FF FF 7F F8 FF FF  7F 73 30 35 31 45 1B 80  .........s051E..
1990: F8 FF FF 7F F8 FF FF 7F  73 30 35 32 01 80 6A 01  ........s052..j.
19A0: 80 03 80 03 80 7C 00 3E  90 11 01 81 00 3E 90 11  .....|.>.....>..
19B0: 01 5B 89 80 3E 90 11 01  3E 90 11 01 6F 72 64 30  .[..>...>...ord0
19C0: 1C 9F 80 6A A4 80 03 80  03 80 45 00 80 F8 FF FF  ...j......E.....
19D0: 7F F8 FF FF 7F 6F 76 6C  31 01 80 52 1B 80 F8 FF  .....ovl1..R....
19E0: FF 7F F8 FF FF 7F 73 30  35 32 45 1B 80 F8 FF FF  ......s052E.....
19F0: 7F F8 FF FF 7F 73 30 35  33 01 80 1C 06 80 2B 3E  .....s053.....+>
1A00: 90 11 01 A5 80 23 2B 3E  90 11 01 A6 80 23 1C 27  .....#+>.....#.'
1A10: 80 45 00 80 F8 FF FF 7F  F8 FF FF 7F 6F 76 6C 31  .E..........ovl1
1A20: 01 80 52 1B 80 F8 FF FF  7F F8 FF FF 7F 73 30 35  ..R..........s05
1A30: 33 45 1B 80 F8 FF FF 7F  F8 FF FF 7F 73 30 35 34  3E..........s054
1A40: 01 80 5B 8C 80 3E 90 11  01 3E 90 11 01 6F 72 64  ..[..>...>...ord
1A50: 31 1C A7 80 2B 3E 90 11  01 A8 80 1C 48 80 2B 3E  1...+>......H.+>
1A60: 90 11 01 A9 80 CD 8D 80  3E 90 11 01 3E 90 11 01  ........>...>...
1A70: 73 30 30 31 01 80 1C 28  80 45 00 80 F8 FF FF 7F  s001...(.E......
1A80: F8 FF FF 7F 6F 76 6C 31  01 80 52 1B 80 F8 FF FF  ....ovl1..R.....
1A90: 7F F8 FF FF 7F 73 30 35  34 45 1B 80 F8 FF FF 7F  .....s054E......
1AA0: F8 FF FF 7F 73 30 35 35  01 80 1C 06 80 2B 3E 90  ....s055.....+>.
1AB0: 11 01 AA 80 6A A4 80 48  80 68 80 1C 48 80 5C 00  ....j..H.h..H.\.
1AC0: AB 80 5C 01 AB 80 9A 7C  01 3E 90 11 01 81 01 3E  ..\....|.>.....>
1AD0: 90 11 01 45 00 80 F8 FF  FF 7F F8 FF FF 7F 6F 76  ...E..........ov
1AE0: 6C 32 01 80 45 00 80 F8  FF FF 7F F8 FF FF 7F 62  l2..E..........b
1AF0: 6C 6F 66 01 80 52 1B 80  F8 FF FF 7F F8 FF FF 7F  lof..R..........
1B00: 73 30 35 35 45 1B 80 F8  FF FF 7F F8 FF FF 7F 73  s055E..........s
1B10: 30 35 36 01 80 1C 28 80  92 00 F0 FF FF 7F BA 2A  056...(........*
1B20: 90 11 01 55 80 AC 80 A3  80 5F 80 BA 2C 90 11 01  ...U....._..,...
1B30: 73 80 74 80 75 80 76 80  CD 8D 80 3E 90 11 01 3E  s.t.u.v....>...>
1B40: 90 11 01 6B 69 6C 30 01  80 D0 A0 80 3E 90 11 01  ...kil0.....>...
1B50: 3E 90 11 01 6B 6C 30 31  01 80 4E 01 3E 90 11 01  >...kl01..N.>...
1B60: 5F 04 AD 80 2E 90 11 01  2E 90 11 01 6D 61 67 30  _...........mag0
1B70: 5F 03 7E 80 2C 90 11 01  2C 90 11 01 68 6D 6D 61  _.~.,...,...hmma
1B80: CD 92 80 2C 90 11 01 2C  90 11 01 73 74 61 72 01  ...,...,...star.
1B90: 80 1C 48 80 52 1B 80 F8  FF FF 7F F8 FF FF 7F 73  ..H.R..........s
1BA0: 30 35 36 45 1B 80 F8 FF  FF 7F F8 FF FF 7F 73 30  056E..........s0
1BB0: 35 37 01 80 1C 30 80 1C  48 80 52 1B 80 F8 FF FF  57...0..H.R.....
1BC0: 7F F8 FF FF 7F 73 30 35  37 45 1B 80 F8 FF FF 7F  .....s057E......
1BD0: F8 FF FF 7F 73 30 35 38  01 80 22 00 1C 28 80 D0  ....s058.."..(..
1BE0: AE 80 F8 FF FF 7F F8 FF  FF 7F 73 30 30 31 01 80  ..........s001..
1BF0: 1C 93 80 52 1B 80 F8 FF  FF 7F F8 FF FF 7F 73 30  ...R..........s0
1C00: 35 38 45 1B 80 F8 FF FF  7F F8 FF FF 7F 73 30 35  58E..........s05
1C10: 39 01 80 1C 28 80 6B 69  64 6C 30 2A 90 11 01 1C  9...(.kidl0*....
1C20: 84 80 45 00 80 F8 FF FF  7F F8 FF FF 7F 6F 76 6C  ..E..........ovl
1C30: 31 01 80 52 1B 80 F8 FF  FF 7F F8 FF FF 7F 73 30  1..R..........s0
1C40: 35 39 45 1B 80 F8 FF FF  7F F8 FF FF 7F 73 30 36  59E..........s06
1C50: 30 01 80 D0 81 80 2A 90  11 01 2A 90 11 01 62 6C  0.....*...*...bl
1C60: 30 61 01 80 5B AF 80 2A  90 11 01 2A 90 11 01 72  0a..[..*...*...r
1C70: 69 67 30 D0 81 80 2A 90  11 01 2A 90 11 01 72 62  ig0...*...*...rb
1C80: 6C 30 01 80 1C 9F 80 5B  AF 80 2A 90 11 01 2A 90  l0.....[..*...*.
1C90: 11 01 6C 65 66 30 D0 81  80 2A 90 11 01 2A 90 11  ..lef0...*...*..
1CA0: 01 6C 62 6C 30 01 80 1C  9F 80 5B AF 80 2A 90 11  .lbl0.....[..*..
1CB0: 01 2A 90 11 01 66 72 69  30 D0 81 80 2A 90 11 01  .*...fri0...*...
1CC0: 2A 90 11 01 62 6C 30 31  01 80 CD B0 80 2A 90 11  *...bl01.....*..
1CD0: 01 2A 90 11 01 71 30 30  34 01 80 1C 30 80 1A A6  .*...q004...0...
1CE0: 00 1C 27 80 CD B0 80 2A  90 11 01 2A 90 11 01 71  ..'....*...*...q
1CF0: 73 74 35 01 80 CD 8D 80  20 90 11 01 20 90 11 01  st5..... ... ...
1D00: 6B 69 6C 30 01 80 CD 92  80 2D 90 11 01 2D 90 11  kil0.....-...-..
1D10: 01 6B 69 6C 6C 01 80 6B  69 64 6C 30 20 90 11 01  .kill..kidl0 ...
1D20: D3 00 20 90 11 01 2C 20  90 11 01 20 90 11 01 77  .. ..., ... ...w
1D30: 37 6F 66 6B 69 64 6C 30  F0 FF FF 7F 6B 69 64 6C  7ofkidl0....kidl
1D40: 30 2E 90 11 01 CD 92 80  2C 90 11 01 2C 90 11 01  0.......,...,...
1D50: 6B 69 6C 6C 01 80 CD 92  80 2B 90 11 01 2B 90 11  kill.....+...+..
1D60: 01 6B 69 6C 6C 01 80 BA  2A 90 11 01 01 80 01 80  .kill...*.......
1D70: 01 80 01 80 4E 01 2A 90  11 01 1C 28 80 2B 29 90  ....N.*....(.+).
1D80: 11 01 B1 80 1C 27 80 52  1B 80 F8 FF FF 7F F8 FF  .....'.R........
1D90: FF 7F 73 30 36 30 45 1B  80 F8 FF FF 7F F8 FF FF  ..s060E.........
1DA0: 7F 73 30 36 31 01 80 45  02 80 F0 FF FF 7F F0 FF  .s061..E........
1DB0: FF 7F 77 68 69 31 01 80  1C 4B 80 73 B2 80 29 90  ..whi1...K.s..).
1DC0: 11 01 29 90 11 01 55 02  80 F0 FF FF 7F F0 FF FF  ..)...U.........
1DD0: 7F 77 68 69 31 1C 28 80  D0 AE 80 F8 FF FF 7F F8  .whi1.(.........
1DE0: FF FF 7F 73 74 70 31 01  80 1C 28 80 2B 29 90 11  ...stp1...(.+)..
1DF0: 01 B3 80 1C 28 80 22 01  1C 48 80 23 45 00 80 F8  ....(."..H.#E...
1E00: FF FF 7F F8 FF FF 7F 6F  76 6C 31 01 80 52 1B 80  .......ovl1..R..
1E10: F8 FF FF 7F F8 FF FF 7F  73 30 36 31 45 1B 80 F8  ........s061E...
1E20: FF FF 7F F8 FF FF 7F 73  30 36 32 01 80 7C 00 28  .......s062..|.(
1E30: 90 11 01 81 00 28 90 11  01 5B 90 80 28 90 11 01  .....(...[..(...
1E40: 28 90 11 01 75 65 70 31  1C 48 80 7C 00 20 90 11  (...uep1.H.|. ..
1E50: 01 81 00 20 90 11 01 D8  01 20 90 11 01 B4 80 D8  ... ..... ......
1E60: 03 20 90 11 01 B5 80 D8  02 20 90 11 01 B6 80 5F  . ....... ....._
1E70: 03 B7 80 20 90 11 01 20  90 11 01 6B 65 69 34 1C  ... ... ...kei4.
1E80: 06 80 45 1B 80 F8 FF FF  7F F8 FF FF 7F 62 6C 6F  ..E..........blo
1E90: 6E 01 80 52 1B 80 F8 FF  FF 7F F8 FF FF 7F 73 30  n..R..........s0
1EA0: 36 32 45 1B 80 F8 FF FF  7F F8 FF FF 7F 73 30 36  62E..........s06
1EB0: 33 01 80 1C 48 80 5F 03  B7 80 20 90 11 01 20 90  3...H._... ... .
1EC0: 11 01 74 61 6F 30 45 1B  80 F8 FF FF 7F F8 FF FF  ..tao0E.........
1ED0: 7F 62 6C 6F 66 01 80 52  1B 80 F8 FF FF 7F F8 FF  .blof..R........
1EE0: FF 7F 73 30 36 33 45 1B  80 F8 FF FF 7F F8 FF FF  ..s063E.........
1EF0: 7F 73 30 36 34 01 80 1C  25 80 52 1B 80 F8 FF FF  .s064...%.R.....
1F00: 7F F8 FF FF 7F 73 30 36  34 02 87 7F 65 80 80 25  .....s064...e..%
1F10: 1F 45 1B 80 F8 FF FF 7F  F8 FF FF 7F 73 67 36 35  .E..........sg65
1F20: 01 80 01 A6 1F 02 87 7F  68 80 80 41 1F 45 1B 80  ........h..A.E..
1F30: F8 FF FF 7F F8 FF FF 7F  73 67 36 35 01 80 01 A6  ........sg65....
1F40: 1F 02 87 7F 1D 80 80 5D  1F 45 1B 80 F8 FF FF 7F  .......].E......
1F50: F8 FF FF 7F 73 74 36 35  01 80 01 A6 1F 02 87 7F  ....st65........
1F60: 1E 80 80 79 1F 45 1B 80  F8 FF FF 7F F8 FF FF 7F  ...y.E..........
1F70: 73 74 36 35 01 80 01 A6  1F 02 87 7F 6E 80 80 95  st65........n...
1F80: 1F 45 1B 80 F8 FF FF 7F  F8 FF FF 7F 73 67 36 35  .E..........sg65
1F90: 01 80 01 A6 1F 45 1B 80  F8 FF FF 7F F8 FF FF 7F  .....E..........
1FA0: 73 30 36 35 01 80 6E F0  FF FF 7F 98 80 99 F0 FF  s065..n.........
1FB0: FF 7F 1C 27 80 02 87 7F  65 80 80 CF 1F 52 1B 80  ...'....e....R..
1FC0: F8 FF FF 7F F8 FF FF 7F  73 67 36 35 01 46 20 02  ........sg65.F .
1FD0: 87 7F 68 80 80 E9 1F 52  1B 80 F8 FF FF 7F F8 FF  ..h....R........
1FE0: FF 7F 73 67 36 35 01 46  20 02 87 7F 1D 80 80 03  ..sg65.F .......
1FF0: 20 52 1B 80 F8 FF FF 7F  F8 FF FF 7F 73 74 36 35   R..........st65
2000: 01 46 20 02 87 7F 1E 80  80 1D 20 52 1B 80 F8 FF  .F ....... R....
2010: FF 7F F8 FF FF 7F 73 74  36 35 01 46 20 02 87 7F  ......st65.F ...
2020: 6E 80 80 37 20 52 1B 80  F8 FF FF 7F F8 FF FF 7F  n..7 R..........
2030: 73 67 36 35 01 46 20 52  1B 80 F8 FF FF 7F F8 FF  sg65.F R........
2040: FF 7F 73 30 36 35 45 1B  80 F8 FF FF 7F F8 FF FF  ..s065E.........
2050: 7F 73 30 36 36 01 80 79  00 2E 90 11 01 28 90 11  .s066..y.....(..
2060: 01 1C 1F 80 52 1B 80 F8  FF FF 7F F8 FF FF 7F 73  ....R..........s
2070: 30 36 36 45 1B 80 F8 FF  FF 7F F8 FF FF 7F 73 30  066E..........s0
2080: 36 37 01 80 1C B8 80 6C  2F 90 11 01 8E 80 30 80  67.....l/.....0.
2090: 1C 48 80 52 1B 80 F8 FF  FF 7F F8 FF FF 7F 73 30  .H.R..........s0
20A0: 36 37 45 1B 80 F8 FF FF  7F F8 FF FF 7F 73 30 36  67E..........s06
20B0: 38 01 80 79 00 2E 90 11  01 20 90 11 01 1C 48 80  8..y..... ....H.
20C0: 4E 01 2F 90 11 01 52 1B  80 F8 FF FF 7F F8 FF FF  N./...R.........
20D0: 7F 73 30 36 38 45 1B 80  F8 FF FF 7F F8 FF FF 7F  .s068E..........
20E0: 73 30 36 39 01 80 1C 27  80 2B 2E 90 11 01 B9 80  s069...'.+......
20F0: 23 1C 27 80 7B 2E 90 11  01 52 1B 80 F8 FF FF 7F  #.'.{....R......
2100: F8 FF FF 7F 73 30 36 39  45 1B 80 F8 FF FF 7F F8  ....s069E.......
2110: FF FF 7F 73 30 37 30 01  80 2B 2E 90 11 01 BA 80  ...s070..+......
2120: 23 1C 27 80 27 10 2E 90  11 01 04 4B 2E 90 11 01  #.'.'......K....
2130: BB 80 1C 05 80 52 1B 80  F8 FF FF 7F F8 FF FF 7F  .....R..........
2140: 73 30 37 30 45 1B 80 F8  FF FF 7F F8 FF FF 7F 73  s070E..........s
2150: 30 37 31 01 80 6F 76 2E  90 11 01 59 05 2E 90 11  071..ov....Y....
2160: 01 00 27 0F 2E 90 11 01  06 1C 28 80 4A F0 FF FF  ..'.......(.J...
2170: 7F 2E 90 11 01 1C 28 80  6C 2E 90 11 01 01 80 9F  ......(.l.......
2180: 80 9F 1F 80 2E 90 11 01  2E 90 11 01 6B 69 65 30  ............kie0
2190: 01 80 1C 1F 80 1A 64 00  1C 28 80 7B F0 FF FF 7F  ......d..(.{....
21A0: 48 BC 80 1C 28 80 52 1B  80 F8 FF FF 7F F8 FF FF  H...(.R.........
21B0: 7F 73 30 37 31 45 1B 80  F8 FF FF 7F F8 FF FF 7F  .s071E..........
21C0: 73 30 37 32 01 80 1A 43  00 2B 29 90 11 01 BD 80  s072...C.+).....
21D0: 23 1C 27 80 4A F0 FF FF  7F 29 90 11 01 1C 65 80  #.'.J....)....e.
21E0: 52 1B 80 F8 FF FF 7F F8  FF FF 7F 73 30 37 32 45  R..........s072E
21F0: 1B 80 F8 FF FF 7F F8 FF  FF 7F 73 30 37 33 01 80  ..........s073..
2200: 6F 76 F0 FF FF 7F 1C 28  80 6E F0 FF FF 7F 6C 80  ov.....(.n....l.
2210: 99 F0 FF FF 7F 1C 48 80  52 1B 80 F8 FF FF 7F F8  ......H.R.......
2220: FF FF 7F 73 30 37 33 02  87 7F 65 80 80 43 22 45  ...s073...e..C"E
2230: 1B 80 F8 FF FF 7F F8 FF  FF 7F 73 67 37 34 01 80  ..........sg74..
2240: 01 C4 22 02 87 7F 68 80  80 5F 22 45 1B 80 F8 FF  .."...h.._"E....
2250: FF 7F F8 FF FF 7F 73 67  37 34 01 80 01 C4 22 02  ......sg74....".
2260: 87 7F 1D 80 80 7B 22 45  1B 80 F8 FF FF 7F F8 FF  .....{"E........
2270: FF 7F 73 74 37 34 01 80  01 C4 22 02 87 7F 1E 80  ..st74....".....
2280: 80 97 22 45 1B 80 F8 FF  FF 7F F8 FF FF 7F 73 74  .."E..........st
2290: 37 34 01 80 01 C4 22 02  87 7F 6E 80 80 B3 22 45  74...."...n..."E
22A0: 1B 80 F8 FF FF 7F F8 FF  FF 7F 73 67 37 34 01 80  ..........sg74..
22B0: 01 C4 22 45 1B 80 F8 FF  FF 7F F8 FF FF 7F 73 30  .."E..........s0
22C0: 37 34 01 80 2B 29 90 11  01 BE 80 23 2B 29 90 11  74..+).....#+)..
22D0: 01 BF 80 23 2B 29 90 11  01 C0 80 23 2B 29 90 11  ...#+).....#+)..
22E0: 01 C1 80 23 1C 28 80 5C  00 C2 80 5C 01 C2 80 9A  ...#.(.\...\....
22F0: 02 87 7F 65 80 80 0A 23  52 1B 80 F8 FF FF 7F F8  ...e...#R.......
2300: FF FF 7F 73 67 37 34 01  81 23 02 87 7F 68 80 80  ...sg74..#...h..
2310: 24 23 52 1B 80 F8 FF FF  7F F8 FF FF 7F 73 67 37  $#R..........sg7
2320: 34 01 81 23 02 87 7F 1D  80 80 3E 23 52 1B 80 F8  4..#......>#R...
2330: FF FF 7F F8 FF FF 7F 73  74 37 34 01 81 23 02 87  .......st74..#..
2340: 7F 1E 80 80 58 23 52 1B  80 F8 FF FF 7F F8 FF FF  ....X#R.........
2350: 7F 73 74 37 34 01 81 23  02 87 7F 6E 80 80 72 23  .st74..#...n..r#
2360: 52 1B 80 F8 FF FF 7F F8  FF FF 7F 73 67 37 34 01  R..........sg74.
2370: 81 23 52 1B 80 F8 FF FF  7F F8 FF FF 7F 73 30 37  .#R..........s07
2380: 34 45 1B 80 F8 FF FF 7F  F8 FF FF 7F 73 30 37 35  4E..........s075
2390: 01 80 2B 29 90 11 01 C3  80 23 2B 29 90 11 01 C4  ..+).....#+)....
23A0: 80 23 1C 28 80 5B C5 80  29 90 11 01 F0 FF FF 7F  .#.(.[..).......
23B0: 62 74 6C 6C 52 1B 80 F8  FF FF 7F F8 FF FF 7F 73  btllR..........s
23C0: 30 37 35 45 1B 80 F8 FF  FF 7F F8 FF FF 7F 73 30  075E..........s0
23D0: 37 36 01 80 2B 29 90 11  01 C6 80 23 1C 28 80 45  76..+).....#.(.E
23E0: 00 80 F8 FF FF 7F F8 FF  FF 7F 62 6C 6F 6E 01 80  ..........blon..
23F0: 52 1B 80 F8 FF FF 7F F8  FF FF 7F 73 30 37 36 45  R..........s076E
2400: 1B 80 F8 FF FF 7F F8 FF  FF 7F 73 30 37 37 01 80  ..........s077..
2410: 5B C5 80 29 90 11 01 F0  FF FF 7F 62 74 6C 30 2B  [..).......btl0+
2420: 29 90 11 01 C7 80 1C 28  80 1A A6 00 1C 48 80 45  )......(.....H.E
2430: 00 80 F8 FF FF 7F F8 FF  FF 7F 66 64 6F 31 01 80  ..........fdo1..
2440: 1C 06 80 52 1B 80 F8 FF  FF 7F F8 FF FF 7F 73 30  ...R..........s0
2450: 37 37 45 00 80 F8 FF FF  7F F8 FF FF 7F 62 6C 6F  77E..........blo
2460: 66 01 80 27 10 28 90 11  01 04 27 10 28 90 11 01  f..'.(....'.(...
2470: 03 27 10 29 90 11 01 04  27 10 2A 90 11 01 06 27  .'.)....'.*....'
2480: 10 2B 90 11 01 04 27 10  2C 90 11 01 04 27 10 2E  .+....'.,....'..
2490: 90 11 01 02 27 10 2E 90  11 01 03 27 10 2F 90 11  ....'......'./..
24A0: 01 02 1C 49 80 AB 11 01  80 1C 03 80 AB 0A 46 00  ...I..........F.
24B0: 1A 85 00 5C 00 AB 80 5C  01 AB 80 9A 45 00 80 F8  ...\...\....E...
24C0: FF FF 7F F8 FF FF 7F 66  64 69 32 01 80 21 00     .......fdi2..!. 
```

#### Opcodes

```
  0: 0x08F5 [0x42] SET_CLI_EVENT_CANCEL_DATA()
  1: 0x08F6 [0x1A] CALL_SUBROUTINE(address=0x0064)
  2: 0x08F9 [0x46] CAMERA_CONTROL: Disable user control
  3: 0x08FB [0x38] SET_CLIENT_EVENT_MODE(mode=147*)
  4: 0x08FE [0x2F] Arciela (ID: 17928224/0x01119020)->Render.Flags0 &= ~0x80000 // Bit 19
  5: 0x0904 [0x2F] Arciela (ID: 17928254/0x0111903E)->Render.Flags0 &= ~0x80000 // Bit 19
  6: 0x090A [0x2F] Unnamed NPC (ID: 17928232/0x01119028)->Render.Flags0 &= ~0x80000 // Bit 19
  7: 0x0910 [0x2F] Unnamed NPC (ID: 17928233/0x01119029)->Render.Flags0 &= ~0x80000 // Bit 19
  8: 0x0916 [0x2F] Unnamed NPC (ID: 17928234/0x0111902A)->Render.Flags0 &= ~0x80000 // Bit 19
  9: 0x091C [0x2F] Unnamed NPC (ID: 17928235/0x0111902B)->Render.Flags0 &= ~0x80000 // Bit 19
 10: 0x0922 [0x2F] Unnamed NPC (ID: 17928236/0x0111902C)->Render.Flags0 &= ~0x80000 // Bit 19
 11: 0x0928 [0x2F] Unnamed NPC (ID: 17928237/0x0111902D)->Render.Flags0 &= ~0x80000 // Bit 19
 12: 0x092E [0x2F] Unnamed NPC (ID: 17928238/0x0111902E)->Render.Flags0 &= ~0x80000 // Bit 19
 13: 0x0934 [0x2F] Unnamed NPC (ID: 17928239/0x0111902F)->Render.Flags0 &= ~0x80000 // Bit 19
 14: 0x093A [0x4E] SET_ENTITY_HIDE_FLAG: Show Arciela (ID: 17928224/0x01119020)
 15: 0x0940 [0x4E] SET_ENTITY_HIDE_FLAG: Show Arciela (ID: 17928254/0x0111903E)
 16: 0x0946 [0x4E] SET_ENTITY_HIDE_FLAG: Show Unnamed NPC (ID: 17928232/0x01119028)
 17: 0x094C [0x4E] SET_ENTITY_HIDE_FLAG: Show Unnamed NPC (ID: 17928233/0x01119029)
 18: 0x0952 [0x4E] SET_ENTITY_HIDE_FLAG: Show Unnamed NPC (ID: 17928235/0x0111902B)
 19: 0x0958 [0x4E] SET_ENTITY_HIDE_FLAG: Show Unnamed NPC (ID: 17928236/0x0111902C)
 20: 0x095E [0x4E] SET_ENTITY_HIDE_FLAG: Show Unnamed NPC (ID: 17928237/0x0111902D)
 21: 0x0964 [0x4E] SET_ENTITY_HIDE_FLAG: Show Unnamed NPC (ID: 17928238/0x0111902E)
 22: 0x096A [0x4E] SET_ENTITY_HIDE_FLAG: Show Unnamed NPC (ID: 17928239/0x0111902F)
 23: 0x0970 [0x94] Arciela (ID: 17928224/0x01119020)->Render.Flags3 ^= 0x01
 24: 0x0976 [0x94] Arciela (ID: 17928254/0x0111903E)->Render.Flags3 ^= 0x01
 25: 0x097C [0x94] Unnamed NPC (ID: 17928232/0x01119028)->Render.Flags3 ^= 0x01
 26: 0x0982 [0x94] Unnamed NPC (ID: 17928233/0x01119029)->Render.Flags3 ^= 0x01
 27: 0x0988 [0x94] Unnamed NPC (ID: 17928234/0x0111902A)->Render.Flags3 ^= 0x01
 28: 0x098E [0x94] Unnamed NPC (ID: 17928235/0x0111902B)->Render.Flags3 ^= 0x01
 29: 0x0994 [0x94] Unnamed NPC (ID: 17928236/0x0111902C)->Render.Flags3 ^= 0x01
 30: 0x099A [0x94] Unnamed NPC (ID: 17928237/0x0111902D)->Render.Flags3 ^= 0x01
 31: 0x09A0 [0x94] Unnamed NPC (ID: 17928238/0x0111902E)->Render.Flags3 ^= 0x01
 32: 0x09A6 [0x94] Unnamed NPC (ID: 17928239/0x0111902F)->Render.Flags3 ^= 0x01
 33: 0x09AC [0x94] LocalPlayer->Render.Flags3 ^= 0x01
 34: 0x09B2 [0x59] UPDATE_ENTITY_DATA: Arciela (ID: 17928224/0x01119020)->Render.Flags0 |= 0x200000
 35: 0x09B9 [0x59] UPDATE_ENTITY_DATA: Arciela (ID: 17928254/0x0111903E)->Render.Flags0 |= 0x200000
 36: 0x09C0 [0x59] UPDATE_ENTITY_DATA: Unnamed NPC (ID: 17928232/0x01119028)->Render.Flags0 |= 0x200000
 37: 0x09C7 [0x59] UPDATE_ENTITY_DATA: Unnamed NPC (ID: 17928233/0x01119029)->Render.Flags0 |= 0x200000
 38: 0x09CE [0x59] UPDATE_ENTITY_DATA: Unnamed NPC (ID: 17928234/0x0111902A)->Render.Flags0 |= 0x200000
 39: 0x09D5 [0x59] UPDATE_ENTITY_DATA: Unnamed NPC (ID: 17928235/0x0111902B)->Render.Flags0 |= 0x200000
 40: 0x09DC [0x59] UPDATE_ENTITY_DATA: Unnamed NPC (ID: 17928236/0x0111902C)->Render.Flags0 |= 0x200000
 41: 0x09E3 [0x59] UPDATE_ENTITY_DATA: Unnamed NPC (ID: 17928237/0x0111902D)->Render.Flags0 |= 0x200000
 42: 0x09EA [0x59] UPDATE_ENTITY_DATA: Unnamed NPC (ID: 17928238/0x0111902E)->Render.Flags0 |= 0x200000
 43: 0x09F1 [0x59] UPDATE_ENTITY_DATA: Unnamed NPC (ID: 17928239/0x0111902F)->Render.Flags0 |= 0x200000
 44: 0x09F8 [0x59] UPDATE_ENTITY_DATA: LocalPlayer->Render.Flags0 |= 0x200000
 45: 0x09FF [0xBA] SET_ENTITY_POSITION(entity_id=Arciela (ID: 17928224/0x01119020), pos_x=-17.810*, pos_z=92.820*, pos_y=-12.440*, direction=263.7°*)
 46: 0x0A0C [0xBA] SET_ENTITY_POSITION(entity_id=Arciela (ID: 17928254/0x0111903E), pos_x=-17.810*, pos_z=432.820*, pos_y=-12.440*, direction=263.7°*)
 47: 0x0A19 [0xBA] SET_ENTITY_POSITION(entity_id=Unnamed NPC (ID: 17928232/0x01119028), pos_x=-21.460*, pos_z=93.190*, pos_y=-12.420*, direction=281.2°*)
 48: 0x0A26 [0xBA] SET_ENTITY_POSITION(entity_id=Unnamed NPC (ID: 17928233/0x01119029), pos_x=-19.070*, pos_z=114.440*, pos_y=-15.000*, direction=87.9°*)
 49: 0x0A33 [0xBA] SET_ENTITY_POSITION(entity_id=Unnamed NPC (ID: 17928235/0x0111902B), pos_x=-20.300*, pos_z=91.980*, pos_y=-12.000*, direction=272.5°*)
 50: 0x0A40 [0x02] IF !(LocalPlayer->Race == 1*) GOTO 0x0A65
 51: 0x0A48 [0xBA] SET_ENTITY_POSITION(entity_id=Unnamed NPC (ID: 17928234/0x0111902A), pos_x=-19.660*, pos_z=92.670*, pos_y=-13.600*, direction=377476131.3°*)
 52: 0x0A55 [0xBA] SET_ENTITY_POSITION(entity_id=Unnamed NPC (ID: 17928236/0x0111902C), pos_x=-20.149*, pos_z=92.046*, pos_y=-13.000*, direction=272.5°*)
 53: 0x0A62 [0x01] GOTO 0x0B68
 54: 0x0A65 [0x02] IF !(LocalPlayer->Race == 2*) GOTO 0x0A8A
 55: 0x0A6D [0xBA] SET_ENTITY_POSITION(entity_id=Unnamed NPC (ID: 17928234/0x0111902A), pos_x=-19.660*, pos_z=92.670*, pos_y=-13.500*, direction=377476131.3°*)
 56: 0x0A7A [0xBA] SET_ENTITY_POSITION(entity_id=Unnamed NPC (ID: 17928236/0x0111902C), pos_x=-20.149*, pos_z=92.046*, pos_y=-12.900*, direction=272.5°*)
 57: 0x0A87 [0x01] GOTO 0x0B68
 58: 0x0A8A [0x02] IF !(LocalPlayer->Race == 3*) GOTO 0x0AAF
 59: 0x0A92 [0xBA] SET_ENTITY_POSITION(entity_id=Unnamed NPC (ID: 17928234/0x0111902A), pos_x=-19.660*, pos_z=92.670*, pos_y=-14.100*, direction=377476131.3°*)
 60: 0x0A9F [0xBA] SET_ENTITY_POSITION(entity_id=Unnamed NPC (ID: 17928236/0x0111902C), pos_x=-20.149*, pos_z=92.046*, pos_y=-13.200*, direction=272.5°*)
 61: 0x0AAC [0x01] GOTO 0x0B68
 62: 0x0AAF [0x02] IF !(LocalPlayer->Race == 4*) GOTO 0x0AD4
 63: 0x0AB7 [0xBA] SET_ENTITY_POSITION(entity_id=Unnamed NPC (ID: 17928234/0x0111902A), pos_x=-19.660*, pos_z=92.670*, pos_y=-13.600*, direction=377476131.3°*)
 64: 0x0AC4 [0xBA] SET_ENTITY_POSITION(entity_id=Unnamed NPC (ID: 17928236/0x0111902C), pos_x=-20.149*, pos_z=92.046*, pos_y=-13.100*, direction=272.5°*)
 65: 0x0AD1 [0x01] GOTO 0x0B68
 66: 0x0AD4 [0x02] IF !(LocalPlayer->Race == 5*) GOTO 0x0AF9
 67: 0x0ADC [0xBA] SET_ENTITY_POSITION(entity_id=Unnamed NPC (ID: 17928234/0x0111902A), pos_x=-19.660*, pos_z=92.670*, pos_y=-12.700*, direction=377476131.3°*)
 68: 0x0AE9 [0xBA] SET_ENTITY_POSITION(entity_id=Unnamed NPC (ID: 17928236/0x0111902C), pos_x=-20.149*, pos_z=92.046*, pos_y=-12.270*, direction=272.5°*)
 69: 0x0AF6 [0x01] GOTO 0x0B68
 70: 0x0AF9 [0x02] IF !(LocalPlayer->Race == 6*) GOTO 0x0B1E
 71: 0x0B01 [0xBA] SET_ENTITY_POSITION(entity_id=Unnamed NPC (ID: 17928234/0x0111902A), pos_x=-19.660*, pos_z=92.670*, pos_y=-12.700*, direction=377476131.3°*)
 72: 0x0B0E [0xBA] SET_ENTITY_POSITION(entity_id=Unnamed NPC (ID: 17928236/0x0111902C), pos_x=-20.149*, pos_z=92.046*, pos_y=-12.270*, direction=272.5°*)
 73: 0x0B1B [0x01] GOTO 0x0B68
 74: 0x0B1E [0x02] IF !(LocalPlayer->Race == 7*) GOTO 0x0B43
 75: 0x0B26 [0xBA] SET_ENTITY_POSITION(entity_id=Unnamed NPC (ID: 17928234/0x0111902A), pos_x=-19.660*, pos_z=92.670*, pos_y=-13.500*, direction=377476131.3°*)
 76: 0x0B33 [0xBA] SET_ENTITY_POSITION(entity_id=Unnamed NPC (ID: 17928236/0x0111902C), pos_x=-20.149*, pos_z=92.046*, pos_y=-12.850*, direction=272.5°*)
 77: 0x0B40 [0x01] GOTO 0x0B68
 78: 0x0B43 [0x02] IF !(LocalPlayer->Race == 8*) GOTO 0x0B68
 79: 0x0B4B [0xBA] SET_ENTITY_POSITION(entity_id=Unnamed NPC (ID: 17928234/0x0111902A), pos_x=-19.660*, pos_z=92.670*, pos_y=-13.900*, direction=377476131.3°*)
 80: 0x0B58 [0xBA] SET_ENTITY_POSITION(entity_id=Unnamed NPC (ID: 17928236/0x0111902C), pos_x=-20.149*, pos_z=92.046*, pos_y=-13.200*, direction=272.5°*)
 81: 0x0B65 [0x01] GOTO 0x0B68

SUBROUTINE_0B68:
 82: 0x0B68 [0xBA] SET_ENTITY_POSITION(entity_id=Unnamed NPC (ID: 17928237/0x0111902D), pos_x=-21.290*, pos_z=93.280*, pos_y=-12.970*, direction=281.2°*)
 83: 0x0B75 [0xBA] SET_ENTITY_POSITION(entity_id=Unnamed NPC (ID: 17928238/0x0111902E), pos_x=-18.760*, pos_z=91.930*, pos_y=-12.140*, direction=268.1°*)
 84: 0x0B82 [0xBA] SET_ENTITY_POSITION(entity_id=Unnamed NPC (ID: 17928239/0x0111902F), pos_x=-21.310*, pos_z=92.890*, pos_y=-12.260*, direction=281.2°*)
 85: 0x0B8F [0xD8] SET_ENTITY_EVENT_DIR: Set Unnamed NPC (ID: 17928239/0x0111902F) EventDir[0] = 180*
 86: 0x0B97 [0xD8] SET_ENTITY_EVENT_DIR: Set Unnamed NPC (ID: 17928239/0x0111902F) EventDir[2] = 50*
 87: 0x0B9F [0xD8] SET_ENTITY_EVENT_DIR: Set Unnamed NPC (ID: 17928239/0x0111902F) EventDir[1] = 3000*
 88: 0x0BA7 [0xBA] SET_ENTITY_POSITION(entity_id=LocalPlayer, pos_x=-20.300*, pos_z=92.440*, pos_y=-12.000*, direction=272.5°*)
 89: 0x0BB4 [0x80] LOAD_WAIT(entity=Arciela (ID: 17928224/0x01119020))
 90: 0x0BB9 [0x80] LOAD_WAIT(entity=Arciela (ID: 17928254/0x0111903E))
 91: 0x0BBE [0x80] LOAD_WAIT(entity=Unnamed NPC (ID: 17928232/0x01119028))
 92: 0x0BC3 [0x80] LOAD_WAIT(entity=Unnamed NPC (ID: 17928233/0x01119029))
 93: 0x0BC8 [0x80] LOAD_WAIT(entity=Unnamed NPC (ID: 17928234/0x0111902A))
 94: 0x0BCD [0x80] LOAD_WAIT(entity=Unnamed NPC (ID: 17928235/0x0111902B))
 95: 0x0BD2 [0x80] LOAD_WAIT(entity=Unnamed NPC (ID: 17928236/0x0111902C))
 96: 0x0BD7 [0x80] LOAD_WAIT(entity=Unnamed NPC (ID: 17928237/0x0111902D))
 97: 0x0BDC [0x80] LOAD_WAIT(entity=Unnamed NPC (ID: 17928238/0x0111902E))
 98: 0x0BE1 [0x80] LOAD_WAIT(entity=Unnamed NPC (ID: 17928239/0x0111902F))
 99: 0x0BE6 [0x80] LOAD_WAIT(entity=LocalPlayer)
100: 0x0BEB [0x4A] Arciela (ID: 17928224/0x01119020) looks at Unnamed NPC (ID: 17928233/0x01119029)
101: 0x0BF4 [0x7B] Arciela (ID: 17928224/0x01119020) stops talking
102: 0x0BF9 [0x4A] Unnamed NPC (ID: 17928232/0x01119028) looks at Unnamed NPC (ID: 17928233/0x01119029)
103: 0x0C02 [0x4A] LocalPlayer looks at Unnamed NPC (ID: 17928233/0x01119029)
104: 0x0C0B [0x7B] LocalPlayer stops talking
105: 0x0C10 [0x27] REQ_SET(priority=0x10, entity_id=LocalPlayer, tag_num=0x21)
106: 0x0C17 [0x5F] MULTI_HANDLER_COMPLEX(mode=0x03 - Load ext scheduler (OpCode 0x5B mode 0), ref=3458*, entity1=Arciela (ID: 17928224/0x01119020), entity2=Arciela (ID: 17928224/0x01119020), string="koul")
107: 0x0C27 [0x5F] MULTI_HANDLER_COMPLEX(mode=0x03 - Load ext scheduler (OpCode 0x5B mode 0), ref=3848*, entity1=Unnamed NPC (ID: 17928234/0x0111902A), entity2=Unnamed NPC (ID: 17928234/0x0111902A), string="tuel")
108: 0x0C37 [0x6C] FADE_ENTITY_COLOR(entity_id=Unnamed NPC (ID: 17928235/0x0111902B), end_alpha=0*, fade_time=1*)
109: 0x0C40 [0x02] IF !(LocalPlayer->Race == 1*) GOTO 0x0C5B
110: 0x0C48 [0x5F] MULTI_HANDLER_COMPLEX(mode=0x03 - Load ext scheduler (OpCode 0x5B mode 0), ref=3878*, entity1=Unnamed NPC (ID: 17928235/0x0111902B), entity2=Unnamed NPC (ID: 17928235/0x0111902B), string="hmml")
111: 0x0C58 [0x01] GOTO 0x0D18
112: 0x0C5B [0x02] IF !(LocalPlayer->Race == 2*) GOTO 0x0C76
113: 0x0C63 [0x5F] MULTI_HANDLER_COMPLEX(mode=0x03 - Load ext scheduler (OpCode 0x5B mode 0), ref=3878*, entity1=Unnamed NPC (ID: 17928235/0x0111902B), entity2=Unnamed NPC (ID: 17928235/0x0111902B), string="hfml")
114: 0x0C73 [0x01] GOTO 0x0D18
115: 0x0C76 [0x02] IF !(LocalPlayer->Race == 3*) GOTO 0x0C91
116: 0x0C7E [0x5F] MULTI_HANDLER_COMPLEX(mode=0x03 - Load ext scheduler (OpCode 0x5B mode 0), ref=3878*, entity1=Unnamed NPC (ID: 17928235/0x0111902B), entity2=Unnamed NPC (ID: 17928235/0x0111902B), string="emml")
117: 0x0C8E [0x01] GOTO 0x0D18
118: 0x0C91 [0x02] IF !(LocalPlayer->Race == 4*) GOTO 0x0CAC
119: 0x0C99 [0x5F] MULTI_HANDLER_COMPLEX(mode=0x03 - Load ext scheduler (OpCode 0x5B mode 0), ref=3878*, entity1=Unnamed NPC (ID: 17928235/0x0111902B), entity2=Unnamed NPC (ID: 17928235/0x0111902B), string="efml")
120: 0x0CA9 [0x01] GOTO 0x0D18
121: 0x0CAC [0x02] IF !(LocalPlayer->Race == 5*) GOTO 0x0CC7
122: 0x0CB4 [0x5F] MULTI_HANDLER_COMPLEX(mode=0x03 - Load ext scheduler (OpCode 0x5B mode 0), ref=3878*, entity1=Unnamed NPC (ID: 17928235/0x0111902B), entity2=Unnamed NPC (ID: 17928235/0x0111902B), string="tmal")
123: 0x0CC4 [0x01] GOTO 0x0D18
124: 0x0CC7 [0x02] IF !(LocalPlayer->Race == 6*) GOTO 0x0CE2
125: 0x0CCF [0x5F] MULTI_HANDLER_COMPLEX(mode=0x03 - Load ext scheduler (OpCode 0x5B mode 0), ref=3878*, entity1=Unnamed NPC (ID: 17928235/0x0111902B), entity2=Unnamed NPC (ID: 17928235/0x0111902B), string="tmal")
126: 0x0CDF [0x01] GOTO 0x0D18
127: 0x0CE2 [0x02] IF !(LocalPlayer->Race == 7*) GOTO 0x0CFD
128: 0x0CEA [0x5F] MULTI_HANDLER_COMPLEX(mode=0x03 - Load ext scheduler (OpCode 0x5B mode 0), ref=3878*, entity1=Unnamed NPC (ID: 17928235/0x0111902B), entity2=Unnamed NPC (ID: 17928235/0x0111902B), string="mmal")
129: 0x0CFA [0x01] GOTO 0x0D18
130: 0x0CFD [0x02] IF !(LocalPlayer->Race == 8*) GOTO 0x0D18
131: 0x0D05 [0x5F] MULTI_HANDLER_COMPLEX(mode=0x03 - Load ext scheduler (OpCode 0x5B mode 0), ref=3878*, entity1=Unnamed NPC (ID: 17928235/0x0111902B), entity2=Unnamed NPC (ID: 17928235/0x0111902B), string="gmal")
132: 0x0D15 [0x01] GOTO 0x0D18

SUBROUTINE_0D18:
133: 0x0D18 [0x6C] FADE_ENTITY_COLOR(entity_id=Unnamed NPC (ID: 17928236/0x0111902C), end_alpha=0*, fade_time=1*)
134: 0x0D21 [0x7C] Arciela (ID: 17928254/0x0111903E)->Render.Flags2 |= 0x00
135: 0x0D27 [0x81] SET_ENTITY_BLINKING(blink_flag=0x00, entity=Arciela (ID: 17928254/0x0111903E))
136: 0x0D2D [0x5F] MULTI_HANDLER_COMPLEX(mode=0x03 - Load ext scheduler (OpCode 0x5B mode 0), ref=3466*, entity1=Arciela (ID: 17928254/0x0111903E), entity2=Arciela (ID: 17928254/0x0111903E), string="und0")
137: 0x0D3D [0x6C] FADE_ENTITY_COLOR(entity_id=Unnamed NPC (ID: 17928233/0x01119029), end_alpha=0*, fade_time=1*)
138: 0x0D46 [0x81] SET_ENTITY_BLINKING(blink_flag=0x00, entity=Unnamed NPC (ID: 17928233/0x01119029))
139: 0x0D4C [0x7C] Unnamed NPC (ID: 17928233/0x01119029)->Render.Flags2 |= 0x00
140: 0x0D52 [0x6C] FADE_ENTITY_COLOR(entity_id=Unnamed NPC (ID: 17928238/0x0111902E), end_alpha=0*, fade_time=1*)
141: 0x0D5B [0x81] SET_ENTITY_BLINKING(blink_flag=0x00, entity=Unnamed NPC (ID: 17928239/0x0111902F))
142: 0x0D61 [0x2C] CREATE_SCHEDULER_TASK: Create scheduler "corp" with entities [Unnamed NPC (ID: 17928239/0x0111902F), Unnamed NPC (ID: 17928239/0x0111902F)]
143: 0x0D6E [0x6C] FADE_ENTITY_COLOR(entity_id=Unnamed NPC (ID: 17928239/0x0111902F), end_alpha=0*, fade_time=1*)
144: 0x0D77 [0x69] SET_SOUND_VOLUME: Mute Zone/Master
145: 0x0D7B [0x45] LOAD_SCHEDULED_TASK: Load scheduler "se01" with entities [EventEntity, EventEntity], work=[814*, 0*]
146: 0x0D8C [0x1C] WAIT(30* ticks)
147: 0x0D8F [0x69] SET_SOUND_VOLUME: Unmute Zone/Master
148: 0x0D93 [0x45] LOAD_SCHEDULED_TASK: Load scheduler "b2on" with entities [EventEntity, EventEntity], work=[814*, 0*]
149: 0x0DA4 [0x45] LOAD_SCHEDULED_TASK: Load scheduler "s022" with entities [EventEntity, EventEntity], work=[814*, 0*]
150: 0x0DB5 [0x1A] CALL_SUBROUTINE(address=0x0043)
151: 0x0DB8 [0x1C] WAIT(1140* ticks)
152: 0x0DBB [0x45] LOAD_SCHEDULED_TASK: Load scheduler "ovl1" with entities [EventEntity, EventEntity], work=[200*, 0*]
153: 0x0DCC [0x45] LOAD_SCHEDULED_TASK: Load scheduler "blof" with entities [EventEntity, EventEntity], work=[814*, 0*]
154: 0x0DDD [0x52] END_LOAD_SCHEDULER: End scheduler "s022" with entities [EventEntity, EventEntity], work=814*
155: 0x0DEC [0x45] LOAD_SCHEDULED_TASK: Load scheduler "s023" with entities [EventEntity, EventEntity], work=[814*, 0*]
156: 0x0DFD [0x1C] WAIT(240* ticks)
157: 0x0E00 [0x5B] LOAD_EXT_SCHEDULER: Load scheduler "kop0" with entities [Arciela (ID: 17928224/0x01119020), Arciela (ID: 17928224/0x01119020)], work=3530*
158: 0x0E0F [0x92] LocalPlayer->Render.Flags3 ^= 0x01
159: 0x0E15 [0x52] END_LOAD_SCHEDULER: End scheduler "s023" with entities [EventEntity, EventEntity], work=814*
160: 0x0E24 [0x02] IF !(LocalPlayer->Race == 3*) GOTO 0x0E40
161: 0x0E2C [0x45] LOAD_SCHEDULED_TASK: Load scheduler "sg24" with entities [EventEntity, EventEntity], work=[814*, 0*]
162: 0x0E3D [0x01] GOTO 0x0EC1
163: 0x0E40 [0x02] IF !(LocalPlayer->Race == 4*) GOTO 0x0E5C
164: 0x0E48 [0x45] LOAD_SCHEDULED_TASK: Load scheduler "sg24" with entities [EventEntity, EventEntity], work=[814*, 0*]
165: 0x0E59 [0x01] GOTO 0x0EC1
166: 0x0E5C [0x02] IF !(LocalPlayer->Race == 5*) GOTO 0x0E78
167: 0x0E64 [0x45] LOAD_SCHEDULED_TASK: Load scheduler "st24" with entities [EventEntity, EventEntity], work=[814*, 0*]
168: 0x0E75 [0x01] GOTO 0x0EC1
169: 0x0E78 [0x02] IF !(LocalPlayer->Race == 6*) GOTO 0x0E94
170: 0x0E80 [0x45] LOAD_SCHEDULED_TASK: Load scheduler "st24" with entities [EventEntity, EventEntity], work=[814*, 0*]
171: 0x0E91 [0x01] GOTO 0x0EC1
172: 0x0E94 [0x02] IF !(LocalPlayer->Race == 8*) GOTO 0x0EB0
173: 0x0E9C [0x45] LOAD_SCHEDULED_TASK: Load scheduler "sg24" with entities [EventEntity, EventEntity], work=[814*, 0*]
174: 0x0EAD [0x01] GOTO 0x0EC1
175: 0x0EB0 [0x45] LOAD_SCHEDULED_TASK: Load scheduler "s024" with entities [EventEntity, EventEntity], work=[814*, 0*]

SUBROUTINE_0EC1:
176: 0x0EC1 [0x1C] WAIT(120* ticks)
177: 0x0EC4 [0x27] REQ_SET(priority=0x10, entity_id=LocalPlayer, tag_num=0x22)
178: 0x0ECB [0x1C] WAIT(30* ticks)
179: 0x0ECE [0x02] IF !(LocalPlayer->Race == 3*) GOTO 0x0EF9
180: 0x0ED6 [0x52] END_LOAD_SCHEDULER: End scheduler "sg24" with entities [EventEntity, EventEntity], work=814*
181: 0x0EE5 [0x45] LOAD_SCHEDULED_TASK: Load scheduler "sg25" with entities [EventEntity, EventEntity], work=[814*, 0*]
182: 0x0EF6 [0x01] GOTO 0x0FC5
183: 0x0EF9 [0x02] IF !(LocalPlayer->Race == 4*) GOTO 0x0F24
184: 0x0F01 [0x52] END_LOAD_SCHEDULER: End scheduler "sg24" with entities [EventEntity, EventEntity], work=814*
185: 0x0F10 [0x45] LOAD_SCHEDULED_TASK: Load scheduler "sg25" with entities [EventEntity, EventEntity], work=[814*, 0*]
186: 0x0F21 [0x01] GOTO 0x0FC5
187: 0x0F24 [0x02] IF !(LocalPlayer->Race == 5*) GOTO 0x0F4F
188: 0x0F2C [0x52] END_LOAD_SCHEDULER: End scheduler "st24" with entities [EventEntity, EventEntity], work=814*
189: 0x0F3B [0x45] LOAD_SCHEDULED_TASK: Load scheduler "st25" with entities [EventEntity, EventEntity], work=[814*, 0*]
190: 0x0F4C [0x01] GOTO 0x0FC5
191: 0x0F4F [0x02] IF !(LocalPlayer->Race == 6*) GOTO 0x0F7A
192: 0x0F57 [0x52] END_LOAD_SCHEDULER: End scheduler "st24" with entities [EventEntity, EventEntity], work=814*
193: 0x0F66 [0x45] LOAD_SCHEDULED_TASK: Load scheduler "st25" with entities [EventEntity, EventEntity], work=[814*, 0*]
194: 0x0F77 [0x01] GOTO 0x0FC5
195: 0x0F7A [0x02] IF !(LocalPlayer->Race == 8*) GOTO 0x0FA5
196: 0x0F82 [0x52] END_LOAD_SCHEDULER: End scheduler "sg24" with entities [EventEntity, EventEntity], work=814*
197: 0x0F91 [0x45] LOAD_SCHEDULED_TASK: Load scheduler "sg25" with entities [EventEntity, EventEntity], work=[814*, 0*]
198: 0x0FA2 [0x01] GOTO 0x0FC5
199: 0x0FA5 [0x52] END_LOAD_SCHEDULER: End scheduler "s024" with entities [EventEntity, EventEntity], work=814*
200: 0x0FB4 [0x45] LOAD_SCHEDULED_TASK: Load scheduler "s025" with entities [EventEntity, EventEntity], work=[814*, 0*]

SUBROUTINE_0FC5:
201: 0x0FC5 [0x1C] WAIT(120* ticks)
202: 0x0FC8 [0x92] LocalPlayer->Render.Flags3 = Flags3  // No change (flag=0)
203: 0x0FCE [0x45] LOAD_SCHEDULED_TASK: Load scheduler "ovl1" with entities [EventEntity, EventEntity], work=[200*, 0*]
204: 0x0FDF [0x02] IF !(LocalPlayer->Race == 3*) GOTO 0x0FF9
205: 0x0FE7 [0x52] END_LOAD_SCHEDULER: End scheduler "sg25" with entities [EventEntity, EventEntity], work=814*
206: 0x0FF6 [0x01] GOTO 0x1070
207: 0x0FF9 [0x02] IF !(LocalPlayer->Race == 4*) GOTO 0x1013
208: 0x1001 [0x52] END_LOAD_SCHEDULER: End scheduler "sg25" with entities [EventEntity, EventEntity], work=814*
209: 0x1010 [0x01] GOTO 0x1070
210: 0x1013 [0x02] IF !(LocalPlayer->Race == 5*) GOTO 0x102D
211: 0x101B [0x52] END_LOAD_SCHEDULER: End scheduler "st25" with entities [EventEntity, EventEntity], work=814*
212: 0x102A [0x01] GOTO 0x1070
213: 0x102D [0x02] IF !(LocalPlayer->Race == 6*) GOTO 0x1047
214: 0x1035 [0x52] END_LOAD_SCHEDULER: End scheduler "st25" with entities [EventEntity, EventEntity], work=814*
215: 0x1044 [0x01] GOTO 0x1070
216: 0x1047 [0x02] IF !(LocalPlayer->Race == 8*) GOTO 0x1061
217: 0x104F [0x52] END_LOAD_SCHEDULER: End scheduler "sg25" with entities [EventEntity, EventEntity], work=814*
218: 0x105E [0x01] GOTO 0x1070
219: 0x1061 [0x52] END_LOAD_SCHEDULER: End scheduler "s025" with entities [EventEntity, EventEntity], work=814*

SUBROUTINE_1070:
