# 17928240

## Common Data

| Field            | Value               |
|------------------|---------------------|
| Zone             | Leafallia (ID: 281) |
| Block Size       | 180 bytes           |
| Total Events     | 5                   |
| References Count | 12                  |

## List of Events

| Event ID                 | Entrypoint   |   Size |   Instructions |
|--------------------------|--------------|--------|----------------|
| [65535](#event-65535)    | 0x0000       |      1 |              1 |
| [65535.1](#event-655351) | 0x0001       |     45 |              4 |
| [10](#event-10)          | 0x002E       |     21 |              2 |
| [80](#event-80)          | 0x0043       |      7 |              2 |
| [65535.2](#event-655352) | 0x004A       |     21 |              2 |

## DAT References (imed_data)

|   Index | Hex Value   |   Dec Value |
|---------|-------------|-------------|
|       0 | 0x0001      |           1 |
|       1 | 0x0000      |           0 |
|       2 | 0x0002      |           2 |
|       3 | 0x0077      |         119 |
|       4 | 0x002E      |          46 |
|       5 | 0x00BA      |         186 |
|       6 | 0x0013      |          19 |
|       7 | 0x000A      |          10 |
|       8 | 0x003A      |          58 |
|       9 | 0x004E      |          78 |
|      10 | 0x0113      |         275 |
|      11 | 0x0019      |          25 |

## Events

### Event 65535

#### Metadata

| Field        | Value   |
|--------------|---------|
| Entrypoint   | 0x0000  |
| Data Size    | 1 bytes |
| Instructions | 1       |

```
      00 01 02 03 04 05 06 07  08 09 0A 0B 0C 0D 0E 0F
      -- -- -- -- -- -- -- --  -- -- -- -- -- -- -- --
0000: 00                                                .               
```

#### Opcodes

```
  0: 0x0000 [0x00] END_REQSTACK()
```

### Event 65535.1

#### Metadata

| Field        | Value    |
|--------------|----------|
| Entrypoint   | 0x0001   |
| Data Size    | 45 bytes |
| Instructions | 4        |

```
      00 01 02 03 04 05 06 07  08 09 0A 0B 0C 0D 0E 0F
      -- -- -- -- -- -- -- --  -- -- -- -- -- -- -- --
0000:    B4 00 00 00 00 00 00  00 00 00 00 00 00 00 00   ...............
0010: 00 00 00 00 00 B5 00 00  00 B6 0B 00 80 01 80 01  ................
0020: 80 01 80 01 80 01 80 01  80 01 80 01 80 00        ..............  
```

#### Opcodes

```
  0: 0x0001 [0xB4] UI_WINDOW_STRING_HANDLER(case=0x00 - Copy string from opcode, work_offset=ExtData[1]->WorkLocal[0], string="")
  1: 0x0015 [0xB5] SET_EVENT_ENTITY_NAME: Change EventEntity name to ExtData[1]->WorkLocal[0]
  2: 0x0019 [0xB6] ENTITY_APPEARANCE_HANDLER(case=Full entity look, race=1*, hair=0*, head=0*, body=0*, hands=0*, legs=0*, feet=0*, main=0*, sub=0*)
  3: 0x002D [0x00] END_REQSTACK()
```

### Event 10

#### Metadata

| Field        | Value    |
|--------------|----------|
| Entrypoint   | 0x002E   |
| Data Size    | 21 bytes |
| Instructions | 2        |

```
      00 01 02 03 04 05 06 07  08 09 0A 0B 0C 0D 0E 0F
      -- -- -- -- -- -- -- --  -- -- -- -- -- -- -- --
0020:                                            B6 0B                ..
0030: 02 80 00 80 03 80 04 80  01 80 05 80 06 80 01 80  ................
0040: 01 80 00                                          ...             
```

#### Opcodes

```
  0: 0x002E [0xB6] ENTITY_APPEARANCE_HANDLER(case=Full entity look, race=2*, hair=1*, head=119*, body=46*, hands=0*, legs=186*, feet=19*, main=0*, sub=0*)
  1: 0x0042 [0x00] END_REQSTACK()
```

### Event 80

#### Metadata

| Field        | Value   |
|--------------|---------|
| Entrypoint   | 0x0043  |
| Data Size    | 7 bytes |
| Instructions | 2       |

```
      00 01 02 03 04 05 06 07  08 09 0A 0B 0C 0D 0E 0F
      -- -- -- -- -- -- -- --  -- -- -- -- -- -- -- --
0040:          92 01 F8 FF FF  7F 00                       .......      
```

#### Opcodes

```
  0: 0x0043 [0x92] EventEntity->Render.Flags3 ^= 0x01
  1: 0x0049 [0x00] END_REQSTACK()
```

### Event 65535.2

#### Metadata

| Field        | Value    |
|--------------|----------|
| Entrypoint   | 0x004A   |
| Data Size    | 21 bytes |
| Instructions | 2        |

```
      00 01 02 03 04 05 06 07  08 09 0A 0B 0C 0D 0E 0F
      -- -- -- -- -- -- -- --  -- -- -- -- -- -- -- --
0040:                                B6 0B 00 80 07 80            ......
0050: 08 80 08 80 09 80 09 80  09 80 0A 80 0B 80 00     ............... 
```

#### Opcodes

```
  0: 0x004A [0xB6] ENTITY_APPEARANCE_HANDLER(case=Full entity look, race=1*, hair=10*, head=58*, body=58*, hands=78*, legs=78*, feet=78*, main=275*, sub=25*)
  1: 0x005E [0x00] END_REQSTACK()
```
