# 17928267

## Common Data

| Field            | Value               |
|------------------|---------------------|
| Zone             | Leafallia (ID: 281) |
| Block Size       | 34168 bytes         |
| Total Events     | 7                   |
| References Count | 625                 |

## List of Events

| Event ID              | Entrypoint   |   Size |   Instructions |
|-----------------------|--------------|--------|----------------|
| [65535](#event-65535) | 0x0000       |    658 |             62 |
| [77](#event-77)       | 0x0292       |   4130 |            513 |
| [78](#event-78)       | 0x12B4       |   4275 |            511 |
| [79](#event-79)       | 0x2367       |   5464 |            770 |
| [80](#event-80)       | 0x38BF       |   7424 |            888 |
| [81](#event-81)       | 0x55BF       |   6156 |            732 |
| [82](#event-82)       | 0x6DCB       |   3517 |            471 |

## DAT References (imed_data)

|   Index | Hex Value   |   Dec Value |
|---------|-------------|-------------|
|       0 | 0x00C8      |         200 |
|       1 | 0x0000      |           0 |
|       2 | 0x00C9      |         201 |
|       3 | 0x0001      |           1 |
|       4 | 0x002D      |          45 |
|       5 | 0x0002      |           2 |
|       6 | 0x001E      |          30 |
|       7 | 0x00D7      |         215 |
|       8 | 0x012C      |         300 |
|       9 | 0x0093      |         147 |
|      10 | 0xFFFFC106  |  4294951174 |
|      11 | 0x139E      |        5022 |
|      12 | 0xFFFFFF7E  |  4294967166 |
|      13 | 0x06B5      |        1717 |
|      14 | 0xFFFF1802  |  4294907906 |
|      15 | 0xFFFF5136  |  4294922550 |
|      16 | 0xFFFC2D2E  |  4294716718 |
|      17 | 0x0170      |         368 |
|      18 | 0xFFFF1953  |  4294908243 |
|      19 | 0xFFFF572B  |  4294924075 |
|      20 | 0xFFFC2DF6  |  4294716918 |
|      21 | 0x00C6      |         198 |
|      22 | 0xFFFF3858  |  4294916184 |
|      23 | 0xFFFF53E4  |  4294923236 |
|      24 | 0xFFFC2C02  |  4294716418 |
|      25 | 0x0745      |        1861 |
|      26 | 0xFFFFA573  |  4294944115 |
|      27 | 0xFFFFFB2D  |  4294966061 |
|      28 | 0xFFFFFE3F  |  4294966847 |
|      29 | 0x0756      |        1878 |
|      30 | 0x001F      |          31 |
|      31 | 0x007F      |         127 |
|      32 | 0x036B      |         875 |
|      33 | 0x0096      |         150 |
|      34 | 0x1FA5      |        8101 |
|      35 | 0x1FA6      |        8102 |
|      36 | 0x00A9      |         169 |
|      37 | 0x1FA7      |        8103 |
|      38 | 0x00F0      |         240 |
|      39 | 0x0078      |         120 |
|      40 | 0x003C      |          60 |
|      41 | 0x0006      |           6 |
|      42 | 0xFFFF2E4C  |  4294913612 |
|      43 | 0xFFFF52C5  |  4294922949 |
|      44 | 0x07F6      |        2038 |
|      45 | 0xFFFF23B7  |  4294910903 |
|      46 | 0xFFFF4A63  |  4294920803 |
|      47 | 0x096C      |        2412 |
|      48 | 0x00AC      |         172 |
|      49 | 0x1CC4      |        7364 |
|      50 | 0x003D      |          61 |
|      51 | 0x001D      |          29 |
|      52 | 0x1FA8      |        8104 |
|      53 | 0x1FA9      |        8105 |
|      54 | 0x1FAA      |        8106 |
|      55 | 0x1FAB      |        8107 |
|      56 | 0x0CE6      |        3302 |
|      57 | 0x1FAC      |        8108 |
|      58 | 0x0003      |           3 |
|      59 | 0x0004      |           4 |
|      60 | 0x0005      |           5 |
|      61 | 0x0008      |           8 |
|      62 | 0x1FAD      |        8109 |
|      63 | 0x1FAE      |        8110 |
|      64 | 0x1FAF      |        8111 |
|      65 | 0x1FB0      |        8112 |
|      66 | 0x1FB1      |        8113 |
|      67 | 0x1FB2      |        8114 |
|      68 | 0x00B4      |         180 |
|      69 | 0x1FB3      |        8115 |
|      70 | 0x1FB4      |        8116 |
|      71 | 0x1FB5      |        8117 |
|      72 | 0x0007      |           7 |
|      73 | 0x005A      |          90 |
|      74 | 0x1FB6      |        8118 |
|      75 | 0x0014      |          20 |
|      76 | 0x005E      |          94 |
|      77 | 0x1FB7      |        8119 |
|      78 | 0x1FB8      |        8120 |
|      79 | 0x1FB9      |        8121 |
|      80 | 0x1FBA      |        8122 |
|      81 | 0x1FBB      |        8123 |
|      82 | 0x1FBC      |        8124 |
|      83 | 0x1FBD      |        8125 |
|      84 | 0x1FBE      |        8126 |
|      85 | 0x03E7      |         999 |
|      86 | 0x00D2      |         210 |
|      87 | 0xFFFFAB88  |  4294945672 |
|      88 | 0x0389      |         905 |
|      89 | 0xFFFFFE98  |  4294966936 |
|      90 | 0x0612      |        1554 |
|      91 | 0xFFFFA4D6  |  4294943958 |
|      92 | 0xFFFFF4AA  |  4294964394 |
|      93 | 0xFFFFFDF0  |  4294966768 |
|      94 | 0x084B      |        2123 |
|      95 | 0x1FBF      |        8127 |
|      96 | 0x1FC0      |        8128 |
|      97 | 0x1FC1      |        8129 |
|      98 | 0x1FC2      |        8130 |
|      99 | 0x1FC3      |        8131 |
|     100 | 0x1FC4      |        8132 |
|     101 | 0x08A8      |        2216 |
|     102 | 0x1FC5      |        8133 |
|     103 | 0x1FC6      |        8134 |
|     104 | 0x0048      |          72 |
|     105 | 0x000F      |          15 |
|     106 | 0x009C      |         156 |
|     107 | 0x000C      |          12 |
|     108 | 0x0013      |          19 |
|     109 | 0xFFF9433E  |  4294525758 |
|     110 | 0xFFFC5A3C  |  4294728252 |
|     111 | 0xFFFD73A8  |  4294800296 |
|     112 | 0x0784      |        1924 |
|     113 | 0xFFF90550  |  4294509904 |
|     114 | 0xFFFC5C41  |  4294728769 |
|     115 | 0xFFFD7296  |  4294800022 |
|     116 | 0x07E7      |        2023 |
|     117 | 0xFFF8F96B  |  4294506859 |
|     118 | 0xFFFC560B  |  4294727179 |
|     119 | 0xFFFD72CC  |  4294800076 |
|     120 | 0x0800      |        2048 |
|     121 | 0xFFF8EF58  |  4294504280 |
|     122 | 0xFFFC630A  |  4294730506 |
|     123 | 0xFFFD72E1  |  4294800097 |
|     124 | 0x05CB      |        1483 |
|     125 | 0xFFF8F0BF  |  4294504639 |
|     126 | 0xFFFC49B3  |  4294724019 |
|     127 | 0xFFFD72C7  |  4294800071 |
|     128 | 0x09E7      |        2535 |
|     129 | 0xFFF8E448  |  4294501448 |
|     130 | 0xFFFC4392  |  4294722450 |
|     131 | 0xFFFD72E0  |  4294800096 |
|     132 | 0x0B71      |        2929 |
|     133 | 0xFFF8E1BC  |  4294500796 |
|     134 | 0xFFFC5680  |  4294727296 |
|     135 | 0xFFFD70EC  |  4294799596 |
|     136 | 0xFFF94249  |  4294525513 |
|     137 | 0xFFFC4FC3  |  4294725571 |
|     138 | 0x07FE      |        2046 |
|     139 | 0x0C0A      |        3082 |
|     140 | 0x0809      |        2057 |
|     141 | 0x0077      |         119 |
|     142 | 0x036C      |         876 |
|     143 | 0x02A1      |         673 |
|     144 | 0x02A9      |         681 |
|     145 | 0x0037      |          55 |
|     146 | 0x06D6      |        1750 |
|     147 | 0x00A0      |         160 |
|     148 | 0x0104      |         260 |
|     149 | 0x004B      |          75 |
|     150 | 0x02AC      |         684 |
|     151 | 0x0098      |         152 |
|     152 | 0x005B      |          91 |
|     153 | 0x06D5      |        1749 |
|     154 | 0x0808      |        2056 |
|     155 | 0x1FC8      |        8136 |
|     156 | 0x055C      |        1372 |
|     157 | 0x0015      |          21 |
|     158 | 0x1FC9      |        8137 |
|     159 | 0x03F2      |        1010 |
|     160 | 0x1FCA      |        8138 |
|     161 | 0x1FCB      |        8139 |
|     162 | 0x1FCC      |        8140 |
|     163 | 0x1FCD      |        8141 |
|     164 | 0x1FCE      |        8142 |
|     165 | 0x1FCF      |        8143 |
|     166 | 0x1FD0      |        8144 |
|     167 | 0x1FD1      |        8145 |
|     168 | 0x1FD2      |        8146 |
|     169 | 0x1FD3      |        8147 |
|     170 | 0x1FD4      |        8148 |
|     171 | 0x1FD5      |        8149 |
|     172 | 0x0040      |          64 |
|     173 | 0x1FD6      |        8150 |
|     174 | 0x1FD7      |        8151 |
|     175 | 0x1FD8      |        8152 |
|     176 | 0x0019      |          25 |
|     177 | 0x1FD9      |        8153 |
|     178 | 0x1FDA      |        8154 |
|     179 | 0x1FDB      |        8155 |
|     180 | 0xFFF934D8  |  4294522072 |
|     181 | 0xFFFC6729  |  4294731561 |
|     182 | 0x079E      |        1950 |
|     183 | 0xFFF93979  |  4294523257 |
|     184 | 0xFFFC4E6D  |  4294725229 |
|     185 | 0x0845      |        2117 |
|     186 | 0xFFF93415  |  4294521877 |
|     187 | 0xFFFC4507  |  4294722823 |
|     188 | 0x0883      |        2179 |
|     189 | 0x1FDC      |        8156 |
|     190 | 0x1FDD      |        8157 |
|     191 | 0x02D5      |         725 |
|     192 | 0x0039      |          57 |
|     193 | 0xFFFFB38C  |  4294947724 |
|     194 | 0x0CE7      |        3303 |
|     195 | 0xFFFFFF06  |  4294967046 |
|     196 | 0x059E      |        1438 |
|     197 | 0x0010      |          16 |
|     198 | 0x000A      |          10 |
|     199 | 0xFFF8E370  |  4294501232 |
|     200 | 0xFFFC575F  |  4294727519 |
|     201 | 0xFFFD72BC  |  4294800060 |
|     202 | 0x0FA0      |        4000 |
|     203 | 0xFFF8FD68  |  4294507880 |
|     204 | 0xFFFC53AD  |  4294726573 |
|     205 | 0xFFFD7380  |  4294800256 |
|     206 | 0x0843      |        2115 |
|     207 | 0xFFF90ADD  |  4294511325 |
|     208 | 0xFFFC58D9  |  4294727897 |
|     209 | 0xFFF91094  |  4294512788 |
|     210 | 0xFFFC5377  |  4294726519 |
|     211 | 0x07D2      |        2002 |
|     212 | 0xFFF9376D  |  4294522733 |
|     213 | 0xFFFC5B94  |  4294728596 |
|     214 | 0xFFFC516C  |  4294725996 |
|     215 | 0x002B      |          43 |
|     216 | 0x0064      |         100 |
|     217 | 0x00B2      |         178 |
|     218 | 0x0383      |         899 |
|     219 | 0x0028      |          40 |
|     220 | 0x1FDE      |        8158 |
|     221 | 0x1FDF      |        8159 |
|     222 | 0x1FE0      |        8160 |
|     223 | 0x1FE1      |        8161 |
|     224 | 0x0022      |          34 |
|     225 | 0x1FE2      |        8162 |
|     226 | 0x1FE3      |        8163 |
|     227 | 0x1FE4      |        8164 |
|     228 | 0x1FE5      |        8165 |
|     229 | 0x1FE6      |        8166 |
|     230 | 0x0026      |          38 |
|     231 | 0x1FE7      |        8167 |
|     232 | 0xFFFFB337  |  4294947639 |
|     233 | 0xFFFFDBDB  |  4294958043 |
|     234 | 0xFFFFF81F  |  4294965279 |
|     235 | 0xFFFFB275  |  4294947445 |
|     236 | 0xFFFFE818  |  4294961176 |
|     237 | 0xFFFFFB5A  |  4294966106 |
|     238 | 0x0400      |        1024 |
|     239 | 0xFFFFBBA4  |  4294949796 |
|     240 | 0xFFFFE250  |  4294959696 |
|     241 | 0xFFFFF883  |  4294965379 |
|     242 | 0x0627      |        1575 |
|     243 | 0xFFFFB6D6  |  4294948566 |
|     244 | 0xFFFFDCB1  |  4294958257 |
|     245 | 0xFFFFF7E9  |  4294965225 |
|     246 | 0x0044      |          68 |
|     247 | 0x1FE8      |        8168 |
|     248 | 0x1FE9      |        8169 |
|     249 | 0x0080      |         128 |
|     250 | 0x1FEA      |        8170 |
|     251 | 0x1FEB      |        8171 |
|     252 | 0x1FEC      |        8172 |
|     253 | 0x1FED      |        8173 |
|     254 | 0x1FEE      |        8174 |
|     255 | 0x1FEF      |        8175 |
|     256 | 0x1FF0      |        8176 |
|     257 | 0x1FF1      |        8177 |
|     258 | 0x1FF2      |        8178 |
|     259 | 0x1FF3      |        8179 |
|     260 | 0x1FF4      |        8180 |
|     261 | 0x1FF5      |        8181 |
|     262 | 0x1FF6      |        8182 |
|     263 | 0x1FF7      |        8183 |
|     264 | 0xFFFFFF17  |  4294967063 |
|     265 | 0xFFFF3CB0  |  4294917296 |
|     266 | 0x03E8      |        1000 |
|     267 | 0xC350      |       50000 |
|     268 | 0x1FF8      |        8184 |
|     269 | 0x0190      |         400 |
|     270 | 0x1FF9      |        8185 |
|     271 | 0x1FFA      |        8186 |
|     272 | 0x1FFB      |        8187 |
|     273 | 0x1FFC      |        8188 |
|     274 | 0x1FFD      |        8189 |
|     275 | 0x1FFE      |        8190 |
|     276 | 0x1FFF      |        8191 |
|     277 | 0x2000      |        8192 |
|     278 | 0x2001      |        8193 |
|     279 | 0xFFFFB2E5  |  4294947557 |
|     280 | 0xFFFFE785  |  4294961029 |
|     281 | 0xFFFFFB16  |  4294966038 |
|     282 | 0x0B72      |        2930 |
|     283 | 0xFFFFAED4  |  4294946516 |
|     284 | 0xFFFFEDB4  |  4294962612 |
|     285 | 0xFFFFFCDA  |  4294966490 |
|     286 | 0xFFFFB4CA  |  4294948042 |
|     287 | 0xFFFFF245  |  4294963781 |
|     288 | 0xFFFFFD10  |  4294966544 |
|     289 | 0xFFFFABBC  |  4294945724 |
|     290 | 0xFFFF14A6  |  4294907046 |
|     291 | 0xFFFFB580  |  4294948224 |
|     292 | 0xFFFF0600  |  4294903296 |
|     293 | 0x07FD      |        2045 |
|     294 | 0x00D5      |         213 |
|     295 | 0x2002      |        8194 |
|     296 | 0x2003      |        8195 |
|     297 | 0x2004      |        8196 |
|     298 | 0x2005      |        8197 |
|     299 | 0x2006      |        8198 |
|     300 | 0x2007      |        8199 |
|     301 | 0x2008      |        8200 |
|     302 | 0x2009      |        8201 |
|     303 | 0x200A      |        8202 |
|     304 | 0x200B      |        8203 |
|     305 | 0x200C      |        8204 |
|     306 | 0x200D      |        8205 |
|     307 | 0x200E      |        8206 |
|     308 | 0x200F      |        8207 |
|     309 | 0x2010      |        8208 |
|     310 | 0x2011      |        8209 |
|     311 | 0x2012      |        8210 |
|     312 | 0x2013      |        8211 |
|     313 | 0x2014      |        8212 |
|     314 | 0x2015      |        8213 |
|     315 | 0x2016      |        8214 |
|     316 | 0x2017      |        8215 |
|     317 | 0x2018      |        8216 |
|     318 | 0xFFFF229A  |  4294910618 |
|     319 | 0xFFFF4675  |  4294919797 |
|     320 | 0x08ED      |        2285 |
|     321 | 0xFFFF276B  |  4294911851 |
|     322 | 0xFFFF52D5  |  4294922965 |
|     323 | 0x08D9      |        2265 |
|     324 | 0xFFFF2033  |  4294910003 |
|     325 | 0xFFFF4E95  |  4294921877 |
|     326 | 0x08EA      |        2282 |
|     327 | 0xFFFF09DF  |  4294904287 |
|     328 | 0xFFFF5933  |  4294924595 |
|     329 | 0x0139      |         313 |
|     330 | 0xFFFF076B  |  4294903659 |
|     331 | 0xFFFF5461  |  4294923361 |
|     332 | 0xFFFC281A  |  4294715418 |
|     333 | 0x0036      |          54 |
|     334 | 0xFFFF0BEA  |  4294904810 |
|     335 | 0xFFFF5E42  |  4294925890 |
|     336 | 0x0133      |         307 |
|     337 | 0xFFFF1DD9  |  4294909401 |
|     338 | 0xFFFF4E8D  |  4294921869 |
|     339 | 0x08AF      |        2223 |
|     340 | 0xFFFF100F  |  4294905871 |
|     341 | 0xFFFF558C  |  4294923660 |
|     342 | 0xFFFF9945  |  4294940997 |
|     343 | 0xFFFFFAEA  |  4294965994 |
|     344 | 0xFFFFFDD0  |  4294966736 |
|     345 | 0x02CE      |         718 |
|     346 | 0xFFFFA19A  |  4294943130 |
|     347 | 0xFFFFF6DD  |  4294964957 |
|     348 | 0xFFFFFE0E  |  4294966798 |
|     349 | 0x08FF      |        2303 |
|     350 | 0x036D      |         877 |
|     351 | 0xFFFF3470  |  4294915184 |
|     352 | 0xFFFF4462  |  4294919266 |
|     353 | 0x091F      |        2335 |
|     354 | 0x0F0B      |        3851 |
|     355 | 0x0D60      |        3424 |
|     356 | 0x00AA      |         170 |
|     357 | 0x201A      |        8218 |
|     358 | 0x0384      |         900 |
|     359 | 0xFFFFFCE0  |  4294966496 |
|     360 | 0x201B      |        8219 |
|     361 | 0x201C      |        8220 |
|     362 | 0x201E      |        8222 |
|     363 | 0x201D      |        8221 |
|     364 | 0x201F      |        8223 |
|     365 | 0x2020      |        8224 |
|     366 | 0x2021      |        8225 |
|     367 | 0x2022      |        8226 |
|     368 | 0x2023      |        8227 |
|     369 | 0x8D987     |      579975 |
|     370 | 0x2EFC      |       12028 |
|     371 | 0x17700     |       96000 |
|     372 | 0x0C4D      |        3149 |
|     373 | 0x8D9DD     |      580061 |
|     374 | 0x38D9      |       14553 |
|     375 | 0x186A0     |      100000 |
|     376 | 0x0422      |        1058 |
|     377 | 0x8DBB3     |      580531 |
|     378 | 0x405F      |       16479 |
|     379 | 0x03E6      |         998 |
|     380 | 0x8D708     |      579336 |
|     381 | 0x4070      |       16496 |
|     382 | 0x0385      |         901 |
|     383 | 0x8DD79     |      580985 |
|     384 | 0x4590      |       17808 |
|     385 | 0x036E      |         878 |
|     386 | 0x8D57F     |      578943 |
|     387 | 0x4741      |       18241 |
|     388 | 0x03B8      |         952 |
|     389 | 0x8D2AC     |      578220 |
|     390 | 0x43FF      |       17407 |
|     391 | 0x0345      |         837 |
|     392 | 0x008C      |         140 |
|     393 | 0x008D      |         141 |
|     394 | 0x05C3      |        1475 |
|     395 | 0x09B9      |        2489 |
|     396 | 0x2024      |        8228 |
|     397 | 0x2025      |        8229 |
|     398 | 0x2026      |        8230 |
|     399 | 0x2027      |        8231 |
|     400 | 0x2028      |        8232 |
|     401 | 0x2029      |        8233 |
|     402 | 0x202A      |        8234 |
|     403 | 0x202B      |        8235 |
|     404 | 0x202C      |        8236 |
|     405 | 0x202D      |        8237 |
|     406 | 0x202E      |        8238 |
|     407 | 0x202F      |        8239 |
|     408 | 0x2030      |        8240 |
|     409 | 0x2031      |        8241 |
|     410 | 0x2032      |        8242 |
|     411 | 0x2033      |        8243 |
|     412 | 0x2034      |        8244 |
|     413 | 0x2035      |        8245 |
|     414 | 0x2036      |        8246 |
|     415 | 0x2037      |        8247 |
|     416 | 0x2038      |        8248 |
|     417 | 0x2039      |        8249 |
|     418 | 0xFFFF0EC6  |  4294905542 |
|     419 | 0xFFFF5552  |  4294923602 |
|     420 | 0xFFFC220C  |  4294713868 |
|     421 | 0x00DF      |         223 |
|     422 | 0x203A      |        8250 |
|     423 | 0x203B      |        8251 |
|     424 | 0x203C      |        8252 |
|     425 | 0x203D      |        8253 |
|     426 | 0x203E      |        8254 |
|     427 | 0x203F      |        8255 |
|     428 | 0x2040      |        8256 |
|     429 | 0x2041      |        8257 |
|     430 | 0x2042      |        8258 |
|     431 | 0x2043      |        8259 |
|     432 | 0x2044      |        8260 |
|     433 | 0x2045      |        8261 |
|     434 | 0x2046      |        8262 |
|     435 | 0xFFFF10AC  |  4294906028 |
|     436 | 0xFFFF56D3  |  4294923987 |
|     437 | 0xFFFC2626  |  4294714918 |
|     438 | 0x0030      |          48 |
|     439 | 0x2047      |        8263 |
|     440 | 0x2048      |        8264 |
|     441 | 0x2049      |        8265 |
|     442 | 0x204A      |        8266 |
|     443 | 0x204B      |        8267 |
|     444 | 0x204C      |        8268 |
|     445 | 0x204D      |        8269 |
|     446 | 0x204E      |        8270 |
|     447 | 0xFFFF1C2F  |  4294908975 |
|     448 | 0xFFFF507E  |  4294922366 |
|     449 | 0x0FC6      |        4038 |
|     450 | 0xFFFF1D92  |  4294909330 |
|     451 | 0xFFFF4F52  |  4294922066 |
|     452 | 0x0913      |        2323 |
|     453 | 0x0A4B      |        2635 |
|     454 | 0x0081      |         129 |
|     455 | 0x0031      |          49 |
|     456 | 0x204F      |        8271 |
|     457 | 0xFFFFA72C  |  4294944556 |
|     458 | 0xFFFFF3DE  |  4294964190 |
|     459 | 0xFFFFFDF6  |  4294966774 |
|     460 | 0x0885      |        2181 |
|     461 | 0xFFFFA6ED  |  4294944493 |
|     462 | 0x0158      |         344 |
|     463 | 0xFFFFFE69  |  4294966889 |
|     464 | 0x071E      |        1822 |
|     465 | 0xFFFFA371  |  4294943601 |
|     466 | 0xFFFFFA38  |  4294965816 |
|     467 | 0xFFFFFE49  |  4294966857 |
|     468 | 0x0821      |        2081 |
|     469 | 0xFFFFAEC2  |  4294946498 |
|     470 | 0xFFFFFA33  |  4294965811 |
|     471 | 0xFFFFFE2D  |  4294966829 |
|     472 | 0x07EE      |        2030 |
|     473 | 0x2050      |        8272 |
|     474 | 0x001A      |          26 |
|     475 | 0x2051      |        8273 |
|     476 | 0x2052      |        8274 |
|     477 | 0x2053      |        8275 |
|     478 | 0x2054      |        8276 |
|     479 | 0x2055      |        8277 |
|     480 | 0x0024      |          36 |
|     481 | 0x2056      |        8278 |
|     482 | 0x2057      |        8279 |
|     483 | 0x4B0A      |       19210 |
|     484 | 0x2058      |        8280 |
|     485 | 0x2059      |        8281 |
|     486 | 0x205A      |        8282 |
|     487 | 0x205B      |        8283 |
|     488 | 0x205C      |        8284 |
|     489 | 0x205D      |        8285 |
|     490 | 0xFFFF20BE  |  4294910142 |
|     491 | 0xFFFF4738  |  4294919992 |
|     492 | 0xFFFF25BD  |  4294911421 |
|     493 | 0xFFFF53FA  |  4294923258 |
|     494 | 0xFFFC27B6  |  4294715318 |
|     495 | 0xFFFF1EB8  |  4294909624 |
|     496 | 0xFFFF4F11  |  4294922001 |
|     497 | 0xFFFC2A72  |  4294716018 |
|     498 | 0xFFFFFB50  |  4294966096 |
|     499 | 0xFFFFFBB4  |  4294966196 |
|     500 | 0xFFFFFA88  |  4294965896 |
|     501 | 0xFFFFFAEC  |  4294965996 |
|     502 | 0xFFFFFE70  |  4294966896 |
|     503 | 0x3D3FE     |      250878 |
|     504 | 0xFFFF2816  |  4294912022 |
|     505 | 0xFFFF4A28  |  4294920744 |
|     506 | 0xFFFF28F6  |  4294912246 |
|     507 | 0xFFFF49DF  |  4294920671 |
|     508 | 0x205F      |        8287 |
|     509 | 0x2060      |        8288 |
|     510 | 0x2061      |        8289 |
|     511 | 0x2062      |        8290 |
|     512 | 0x2063      |        8291 |
|     513 | 0x2064      |        8292 |
|     514 | 0x2065      |        8293 |
|     515 | 0x2066      |        8294 |
|     516 | 0x2067      |        8295 |
|     517 | 0x2068      |        8296 |
|     518 | 0x2069      |        8297 |
|     519 | 0x206A      |        8298 |
|     520 | 0xFFFFFF15  |  4294967061 |
|     521 | 0x13880     |       80000 |
|     522 | 0xFFFEC780  |  4294887296 |
|     523 | 0x05DC      |        1500 |
|     524 | 0x02BC      |         700 |
|     525 | 0x206B      |        8299 |
|     526 | 0x206C      |        8300 |
|     527 | 0x206D      |        8301 |
|     528 | 0x206E      |        8302 |
|     529 | 0x206F      |        8303 |
|     530 | 0x2070      |        8304 |
|     531 | 0x2071      |        8305 |
|     532 | 0x2072      |        8306 |
|     533 | 0x2073      |        8307 |
|     534 | 0x2074      |        8308 |
|     535 | 0x2075      |        8309 |
|     536 | 0x2076      |        8310 |
|     537 | 0x2077      |        8311 |
|     538 | 0x2078      |        8312 |
|     539 | 0x2079      |        8313 |
|     540 | 0x207A      |        8314 |
|     541 | 0x207B      |        8315 |
|     542 | 0x207C      |        8316 |
|     543 | 0x207D      |        8317 |
|     544 | 0x207E      |        8318 |
|     545 | 0x207F      |        8319 |
|     546 | 0x2080      |        8320 |
|     547 | 0x2081      |        8321 |
|     548 | 0x2082      |        8322 |
|     549 | 0x2083      |        8323 |
|     550 | 0x2084      |        8324 |
|     551 | 0x2085      |        8325 |
|     552 | 0x2086      |        8326 |
|     553 | 0x2087      |        8327 |
|     554 | 0x2088      |        8328 |
|     555 | 0x2089      |        8329 |
|     556 | 0x208A      |        8330 |
|     557 | 0x208B      |        8331 |
|     558 | 0x208C      |        8332 |
|     559 | 0x0939      |        2361 |
|     560 | 0x00FA      |         250 |
|     561 | 0x208D      |        8333 |
|     562 | 0x010E      |         270 |
|     563 | 0x208E      |        8334 |
|     564 | 0x208F      |        8335 |
|     565 | 0x2090      |        8336 |
|     566 | 0x2091      |        8337 |
|     567 | 0x2092      |        8338 |
|     568 | 0x2093      |        8339 |
|     569 | 0x2094      |        8340 |
|     570 | 0x2095      |        8341 |
|     571 | 0x2096      |        8342 |
|     572 | 0x2097      |        8343 |
|     573 | 0x2098      |        8344 |
|     574 | 0x209B      |        8347 |
|     575 | 0x2099      |        8345 |
|     576 | 0x209A      |        8346 |
|     577 | 0xFFFFFE0C  |  4294966796 |
|     578 | 0x209C      |        8348 |
|     579 | 0xFFFEFEFC  |  4294901500 |
|     580 | 0xFFFF70AA  |  4294930602 |
|     581 | 0xFFFC0E6A  |  4294708842 |
|     582 | 0x090F      |        2319 |
|     583 | 0xFFFFFC00  |  4294966272 |
|     584 | 0x03A3      |         931 |
|     585 | 0x209E      |        8350 |
|     586 | 0x209F      |        8351 |
|     587 | 0x20A0      |        8352 |
|     588 | 0x20A1      |        8353 |
|     589 | 0x20A2      |        8354 |
|     590 | 0x20A3      |        8355 |
|     591 | 0x20A4      |        8356 |
|     592 | 0x20A5      |        8357 |
|     593 | 0x20A6      |        8358 |
|     594 | 0x20A7      |        8359 |
|     595 | 0x20A8      |        8360 |
|     596 | 0x20A9      |        8361 |
|     597 | 0x20AA      |        8362 |
|     598 | 0x20AB      |        8363 |
|     599 | 0x20AC      |        8364 |
|     600 | 0x20AD      |        8365 |
|     601 | 0x20AE      |        8366 |
|     602 | 0x0016      |          22 |
|     603 | 0x20AF      |        8367 |
|     604 | 0x20B0      |        8368 |
|     605 | 0x20B1      |        8369 |
|     606 | 0x20B2      |        8370 |
|     607 | 0x20B3      |        8371 |
|     608 | 0x20B4      |        8372 |
|     609 | 0x20B5      |        8373 |
|     610 | 0x20B6      |        8374 |
|     611 | 0x20B7      |        8375 |
|     612 | 0x20B8      |        8376 |
|     613 | 0x20B9      |        8377 |
|     614 | 0x20BA      |        8378 |
|     615 | 0x20BB      |        8379 |
|     616 | 0x20BC      |        8380 |
|     617 | 0x20BD      |        8381 |
|     618 | 0x20BE      |        8382 |
|     619 | 0x0058      |          88 |
|     620 | 0xFFFC204A  |  4294713418 |
|     621 | 0xFFFF2D12  |  4294913298 |
|     622 | 0xFFFF479F  |  4294920095 |
|     623 | 0x090E      |        2318 |
|     624 | 0x20BF      |        8383 |

## String References

- **7364**: @@
- **8117**: Do you wish to meet their master? [Yes./Maybe later.]
- **8220**: Hand it over? [Yes./No.]
- **8344**: What will you do? [Sure, I'll participate./Sorry, maybe next time.]

## Events

### Event 65535

#### Metadata

| Field        | Value     |
|--------------|-----------|
| Entrypoint   | 0x0000    |
| Data Size    | 658 bytes |
| Instructions | 1         |

```
      00 01 02 03 04 05 06 07  08 09 0A 0B 0C 0D 0E 0F
      -- -- -- -- -- -- -- --  -- -- -- -- -- -- -- --
0000: 00 45 00 80 F0 FF FF 7F  F0 FF FF 7F 66 64 69 30  .E..........fdi0
0010: 01 80 55 00 80 F0 FF FF  7F F0 FF FF 7F 66 64 69  ..U..........fdi
0020: 30 1B 45 00 80 F0 FF FF  7F F0 FF FF 7F 66 64 6F  0.E..........fdo
0030: 30 01 80 55 00 80 F0 FF  FF 7F F0 FF FF 7F 66 64  0..U..........fd
0040: 6F 30 1B 45 00 80 F0 FF  FF 7F F0 FF FF 7F 66 64  o0.E..........fd
0050: 69 31 01 80 55 00 80 F0  FF FF 7F F0 FF FF 7F 66  i1..U..........f
0060: 64 69 31 1B 45 00 80 F0  FF FF 7F F0 FF FF 7F 66  di1.E..........f
0070: 64 6F 31 01 80 55 00 80  F0 FF FF 7F F0 FF FF 7F  do1..U..........
0080: 66 64 6F 31 1B 45 02 80  F0 FF FF 7F F0 FF FF 7F  fdo1.E..........
0090: 77 68 69 31 01 80 55 02  80 F0 FF FF 7F F0 FF FF  whi1..U.........
00A0: 7F 77 68 69 31 1B 45 02  80 F0 FF FF 7F F0 FF FF  .whi1.E.........
00B0: 7F 77 68 6F 31 01 80 55  02 80 F0 FF FF 7F F0 FF  .who1..U........
00C0: FF 7F 77 68 6F 31 1B 45  02 80 F0 FF FF 7F F0 FF  ..who1.E........
00D0: FF 7F 77 68 6F 32 01 80  55 02 80 F0 FF FF 7F F0  ..who2..U.......
00E0: FF FF 7F 77 68 6F 32 1B  45 02 80 F0 FF FF 7F F0  ...who2.E.......
00F0: FF FF 7F 77 68 6F 33 01  80 55 02 80 F0 FF FF 7F  ...who3..U......
0100: F0 FF FF 7F 77 68 6F 33  1B 62 03 80 F0 FF FF 7F  ....who3.b......
0110: F0 FF FF 7F 6D 61 69 6E  01 80 1C 04 80 45 00 80  ....main.....E..
0120: F0 FF FF 7F F0 FF FF 7F  66 64 6F 31 01 80 55 00  ........fdo1..U.
0130: 80 F0 FF FF 7F F0 FF FF  7F 66 64 6F 31 1B 45 00  .........fdo1.E.
0140: 80 F0 FF FF 7F F0 FF FF  7F 66 64 69 31 01 80 62  .........fdi1..b
0150: 05 80 F0 FF FF 7F F0 FF  FF 7F 6D 61 69 6E 01 80  ..........main..
0160: 1C 06 80 55 00 80 F0 FF  FF 7F F0 FF FF 7F 66 64  ...U..........fd
0170: 69 31 1B 45 00 80 F0 FF  FF 7F F0 FF FF 7F 62 6C  i1.E..........bl
0180: 6F 6E 01 80 45 02 80 F0  FF FF 7F F0 FF FF 7F 62  on..E..........b
0190: 6C 6F 6E 01 80 1B 45 02  80 F0 FF FF 7F F0 FF FF  lon...E.........
01A0: 7F 77 68 69 30 01 80 55  02 80 F0 FF FF 7F F0 FF  .whi0..U........
01B0: FF 7F 77 68 69 30 1B 45  02 80 F0 FF FF 7F F0 FF  ..whi0.E........
01C0: FF 7F 77 68 6F 30 01 80  55 02 80 F0 FF FF 7F F0  ..who0..U.......
01D0: FF FF 7F 77 68 6F 30 1B  45 07 80 F0 FF FF 7F F0  ...who0.E.......
01E0: FF FF 7F 65 66 6F 6E 01  80 55 07 80 F0 FF FF 7F  ...efon..U......
01F0: F0 FF FF 7F 65 66 6F 6E  1B 45 00 80 F0 FF FF 7F  ....efon.E......
0200: F0 FF FF 7F 66 64 69 73  01 80 1B 45 00 80 F0 FF  ....fdis...E....
0210: FF 7F F0 FF FF 7F 66 64  6F 73 01 80 55 00 80 F0  ......fdos..U...
0220: FF FF 7F F0 FF FF 7F 66  64 6F 73 1B 45 00 80 F0  .......fdos.E...
0230: FF FF 7F F0 FF FF 7F 66  64 69 66 01 80 1B 45 00  .......fdif...E.
0240: 80 F0 FF FF 7F F0 FF FF  7F 66 64 6F 66 01 80 55  .........fdof..U
0250: 00 80 F0 FF FF 7F F0 FF  FF 7F 66 64 6F 66 1B 45  ..........fdof.E
0260: 00 80 F0 FF FF 7F F0 FF  FF 7F 66 64 69 70 01 80  ..........fdip..
0270: 1B 45 00 80 F0 FF FF 7F  F0 FF FF 7F 66 64 6F 70  .E..........fdop
0280: 01 80 55 00 80 F0 FF FF  7F F0 FF FF 7F 66 64 6F  ..U..........fdo
0290: 70 1B                                             p.              
```

#### Opcodes

```
  0: 0x0000 [0x00] END_REQSTACK()
```

#### Data or dead code:

```
# Dead code (unreachable instructions):
     0x0001 [0x45] LOAD_SCHEDULED_TASK: Load scheduler "fdi0" with entities [LocalPlayer, LocalPlayer], work=[200*, 0*]
     0x0012 [0x55] WAIT_LOAD_SCHEDULER: Wait for scheduler "fdi0" with entities [LocalPlayer, LocalPlayer], work=200*
     0x0021 [0x1B] RETURN
     0x0022 [0x45] LOAD_SCHEDULED_TASK: Load scheduler "fdo0" with entities [LocalPlayer, LocalPlayer], work=[200*, 0*]
     0x0033 [0x55] WAIT_LOAD_SCHEDULER: Wait for scheduler "fdo0" with entities [LocalPlayer, LocalPlayer], work=200*
     0x0042 [0x1B] RETURN
     0x0043 [0x45] LOAD_SCHEDULED_TASK: Load scheduler "fdi1" with entities [LocalPlayer, LocalPlayer], work=[200*, 0*]
     0x0054 [0x55] WAIT_LOAD_SCHEDULER: Wait for scheduler "fdi1" with entities [LocalPlayer, LocalPlayer], work=200*
     0x0063 [0x1B] RETURN
     0x0064 [0x45] LOAD_SCHEDULED_TASK: Load scheduler "fdo1" with entities [LocalPlayer, LocalPlayer], work=[200*, 0*]
     0x0075 [0x55] WAIT_LOAD_SCHEDULER: Wait for scheduler "fdo1" with entities [LocalPlayer, LocalPlayer], work=200*
     0x0084 [0x1B] RETURN
     0x0085 [0x45] LOAD_SCHEDULED_TASK: Load scheduler "whi1" with entities [LocalPlayer, LocalPlayer], work=[201*, 0*]
     0x0096 [0x55] WAIT_LOAD_SCHEDULER: Wait for scheduler "whi1" with entities [LocalPlayer, LocalPlayer], work=201*
     0x00A5 [0x1B] RETURN
     0x00A6 [0x45] LOAD_SCHEDULED_TASK: Load scheduler "who1" with entities [LocalPlayer, LocalPlayer], work=[201*, 0*]
     0x00B7 [0x55] WAIT_LOAD_SCHEDULER: Wait for scheduler "who1" with entities [LocalPlayer, LocalPlayer], work=201*
     0x00C6 [0x1B] RETURN
     0x00C7 [0x45] LOAD_SCHEDULED_TASK: Load scheduler "who2" with entities [LocalPlayer, LocalPlayer], work=[201*, 0*]
     0x00D8 [0x55] WAIT_LOAD_SCHEDULER: Wait for scheduler "who2" with entities [LocalPlayer, LocalPlayer], work=201*
     0x00E7 [0x1B] RETURN
     0x00E8 [0x45] LOAD_SCHEDULED_TASK: Load scheduler "who3" with entities [LocalPlayer, LocalPlayer], work=[201*, 0*]
     0x00F9 [0x55] WAIT_LOAD_SCHEDULER: Wait for scheduler "who3" with entities [LocalPlayer, LocalPlayer], work=201*
     0x0108 [0x1B] RETURN
     0x0109 [0x62] LOAD_EVENT_SCHEDULER: Load scheduler "main" with entities [LocalPlayer, LocalPlayer], work=[1*, 0*]
     0x011A [0x1C] WAIT(45* ticks)
     0x011D [0x45] LOAD_SCHEDULED_TASK: Load scheduler "fdo1" with entities [LocalPlayer, LocalPlayer], work=[200*, 0*]
     0x012E [0x55] WAIT_LOAD_SCHEDULER: Wait for scheduler "fdo1" with entities [LocalPlayer, LocalPlayer], work=200*
     0x013D [0x1B] RETURN
     0x013E [0x45] LOAD_SCHEDULED_TASK: Load scheduler "fdi1" with entities [LocalPlayer, LocalPlayer], work=[200*, 0*]
     0x014F [0x62] LOAD_EVENT_SCHEDULER: Load scheduler "main" with entities [LocalPlayer, LocalPlayer], work=[2*, 0*]
     0x0160 [0x1C] WAIT(30* ticks)
     0x0163 [0x55] WAIT_LOAD_SCHEDULER: Wait for scheduler "fdi1" with entities [LocalPlayer, LocalPlayer], work=200*
     0x0172 [0x1B] RETURN
     0x0173 [0x45] LOAD_SCHEDULED_TASK: Load scheduler "blon" with entities [LocalPlayer, LocalPlayer], work=[200*, 0*]
     0x0184 [0x45] LOAD_SCHEDULED_TASK: Load scheduler "blon" with entities [LocalPlayer, LocalPlayer], work=[201*, 0*]
     0x0195 [0x1B] RETURN
     0x0196 [0x45] LOAD_SCHEDULED_TASK: Load scheduler "whi0" with entities [LocalPlayer, LocalPlayer], work=[201*, 0*]
     0x01A7 [0x55] WAIT_LOAD_SCHEDULER: Wait for scheduler "whi0" with entities [LocalPlayer, LocalPlayer], work=201*
     0x01B6 [0x1B] RETURN
     0x01B7 [0x45] LOAD_SCHEDULED_TASK: Load scheduler "who0" with entities [LocalPlayer, LocalPlayer], work=[201*, 0*]
     0x01C8 [0x55] WAIT_LOAD_SCHEDULER: Wait for scheduler "who0" with entities [LocalPlayer, LocalPlayer], work=201*
     0x01D7 [0x1B] RETURN
     0x01D8 [0x45] LOAD_SCHEDULED_TASK: Load scheduler "efon" with entities [LocalPlayer, LocalPlayer], work=[215*, 0*]
     0x01E9 [0x55] WAIT_LOAD_SCHEDULER: Wait for scheduler "efon" with entities [LocalPlayer, LocalPlayer], work=215*
     0x01F8 [0x1B] RETURN
     0x01F9 [0x45] LOAD_SCHEDULED_TASK: Load scheduler "fdis" with entities [LocalPlayer, LocalPlayer], work=[200*, 0*]
     0x020A [0x1B] RETURN
     0x020B [0x45] LOAD_SCHEDULED_TASK: Load scheduler "fdos" with entities [LocalPlayer, LocalPlayer], work=[200*, 0*]
     0x021C [0x55] WAIT_LOAD_SCHEDULER: Wait for scheduler "fdos" with entities [LocalPlayer, LocalPlayer], work=200*
     0x022B [0x1B] RETURN
     0x022C [0x45] LOAD_SCHEDULED_TASK: Load scheduler "fdif" with entities [LocalPlayer, LocalPlayer], work=[200*, 0*]
     0x023D [0x1B] RETURN
     0x023E [0x45] LOAD_SCHEDULED_TASK: Load scheduler "fdof" with entities [LocalPlayer, LocalPlayer], work=[200*, 0*]
     0x024F [0x55] WAIT_LOAD_SCHEDULER: Wait for scheduler "fdof" with entities [LocalPlayer, LocalPlayer], work=200*
     0x025E [0x1B] RETURN
     0x025F [0x45] LOAD_SCHEDULED_TASK: Load scheduler "fdip" with entities [LocalPlayer, LocalPlayer], work=[200*, 0*]
     0x0270 [0x1B] RETURN
     0x0271 [0x45] LOAD_SCHEDULED_TASK: Load scheduler "fdop" with entities [LocalPlayer, LocalPlayer], work=[200*, 0*]
     0x0282 [0x55] WAIT_LOAD_SCHEDULER: Wait for scheduler "fdop" with entities [LocalPlayer, LocalPlayer], work=200*
     0x0291 [0x1B] RETURN
```

### Event 77

#### Metadata

| Field        | Value      |
|--------------|------------|
| Entrypoint   | 0x0292     |
| Data Size    | 4130 bytes |
| Instructions | 513        |

```
      00 01 02 03 04 05 06 07  08 09 0A 0B 0C 0D 0E 0F
      -- -- -- -- -- -- -- --  -- -- -- -- -- -- -- --
0290:       42 5D 01 80 08 80  1A 64 00 46 01 38 09 80    B].....d.F.8..
02A0: AB 09 2F 00 4C 90 11 01  2F 00 26 90 11 01 2F 00  ../.L.../.&.../.
02B0: 27 90 11 01 2F 00 39 90  11 01 4E 00 4C 90 11 01  '.../.9...N.L...
02C0: 4E 00 26 90 11 01 4E 00  27 90 11 01 4E 00 39 90  N.&...N.'...N.9.
02D0: 11 01 94 01 4C 90 11 01  94 01 26 90 11 01 94 01  ....L.....&.....
02E0: 27 90 11 01 94 01 F0 FF  FF 7F 59 05 26 90 11 01  '.........Y.&...
02F0: 01 59 05 27 90 11 01 01  59 05 39 90 11 01 01 BA  .Y.'....Y.9.....
0300: 4C 90 11 01 0A 80 0B 80  0C 80 0D 80 BA 26 90 11  L............&..
0310: 01 0E 80 0F 80 10 80 11  80 BA 27 90 11 01 12 80  ..........'.....
0320: 13 80 14 80 15 80 BA 39  90 11 01 16 80 17 80 18  .......9........
0330: 80 19 80 4A F0 FF FF 7F  F0 FF FF 7F 6F 76 F0 FF  ...J........ov..
0340: FF 7F BA F0 FF FF 7F 1A  80 1B 80 1C 80 1D 80 29  ...............)
0350: 10 26 90 11 01 19 29 10  27 90 11 01 17 80 4C 90  .&....).'.....L.
0360: 11 01 80 26 90 11 01 80  27 90 11 01 80 F0 FF FF  ...&....'.......
0370: 7F 1C 06 80 29 10 26 90  11 01 1B 29 10 27 90 11  ....).&....).'..
0380: 01 19 29 10 39 90 11 01  05 29 10 39 90 11 01 08  ..).9....).9....
0390: 5C 00 1E 80 5C 01 1E 80  9A 5D 1F 80 03 80 79 00  \...\....]....y.
03A0: 4C 90 11 01 F0 FF FF 7F  27 10 4C 90 11 01 25 45  L.......'.L...%E
03B0: 20 80 F8 FF FF 7F F8 FF  FF 7F 73 30 30 30 01 80   .........s000..
03C0: 1A 43 00 1C 21 80 52 20  80 F8 FF FF 7F F8 FF FF  .C..!.R ........
03D0: 7F 73 30 30 30 45 20 80  F8 FF FF 7F F8 FF FF 7F  .s000E .........
03E0: 73 30 30 31 01 80 2B 4C  90 11 01 22 80 2A 10 4C  s001..+L...".*.L
03F0: 90 11 01 23 7B F0 FF FF  7F 4A F0 FF FF 7F 4C 90  ...#{....J....L.
0400: 11 01 6F 76 F0 FF FF 7F  7B 4C 90 11 01 27 10 4C  ..ov....{L...'.L
0410: 90 11 01 01 1C 06 80 52  20 80 F8 FF FF 7F F8 FF  .......R .......
0420: FF 7F 73 30 30 31 45 20  80 F8 FF FF 7F F8 FF FF  ..s001E ........
0430: 7F 73 30 30 32 01 80 2B  4C 90 11 01 23 80 29 10  .s002..+L...#.).
0440: 4C 90 11 01 02 23 27 10  4C 90 11 01 03 22 00 CD  L....#'.L...."..
0450: 24 80 F8 FF FF 7F F8 FF  FF 7F 73 30 30 30 01 80  $.........s000..
0460: 52 20 80 F8 FF FF 7F F8  FF FF 7F 73 30 30 32 45  R .........s002E
0470: 20 80 F8 FF FF 7F F8 FF  FF 7F 62 6C 6F 6E 01 80   .........blon..
0480: 45 20 80 F8 FF FF 7F F8  FF FF 7F 73 30 30 33 01  E .........s003.
0490: 80 45 20 80 F8 FF FF 7F  F8 FF FF 7F 38 33 30 35  .E .........8305
04A0: 01 80 7C 00 4C 90 11 01  2B 4C 90 11 01 25 80 7C  ..|.L...+L...%.|
04B0: 01 4C 90 11 01 1C 26 80  5D 01 80 08 80 1A A6 00  .L....&.].......
04C0: 1C 27 80 1A 64 00 6A 01  80 28 80 29 80 22 01 CD  .'..d.j..(.)."..
04D0: 24 80 F8 FF FF 7F F8 FF  FF 7F 6B 6C 6C 30 01 80  $.........kll0..
04E0: 7B F0 FF FF 7F 59 05 4C  90 11 01 01 59 05 F0 FF  {....Y.L....Y...
04F0: FF 7F 01 BA 4C 90 11 01  2A 80 2B 80 18 80 2C 80  ....L...*.+...,.
0500: BA F0 FF FF 7F 2D 80 2E  80 18 80 2F 80 27 10 F0  .....-...../.'..
0510: FF FF 7F 02 27 10 4C 90  11 01 09 29 10 4C 90 11  ....'.L....).L..
0520: 01 0A C5 30 80 39 90 11  01 39 90 11 01 73 30 30  ...0.9...9...s00
0530: 30 01 80 AB 0A 48 31 80  1C 28 80 5C 00 32 80 5C  0....H1..(.\.2.\
0540: 01 32 80 9A 5D 1F 80 03  80 52 20 80 F8 FF FF 7F  .2..]....R .....
0550: F8 FF FF 7F 73 30 30 33  45 20 80 F8 FF FF 7F F8  ....s003E ......
0560: FF FF 7F 62 6C 6E 32 01  80 45 20 80 F8 FF FF 7F  ...bln2..E .....
0570: F8 FF FF 7F 73 30 30 34  01 80 1A 96 01 1A 43 00  ....s004......C.
0580: 1C 28 80 27 10 4C 90 11  01 0B 1C 06 80 27 10 F0  .(.'.L.......'..
0590: FF FF 7F 03 52 20 80 F8  FF FF 7F F8 FF FF 7F 73  ....R .........s
05A0: 30 30 34 45 20 80 F8 FF  FF 7F F8 FF FF 7F 73 30  004E .........s0
05B0: 30 35 01 80 29 10 4C 90  11 01 0C 1C 06 80 29 10  05..).L.......).
05C0: 4C 90 11 01 26 1C 06 80  6E 4C 90 11 01 33 80 99  L...&...nL...3..
05D0: 4C 90 11 01 1C 27 80 4A  26 90 11 01 4C 90 11 01  L....'.J&...L...
05E0: 4A 27 90 11 01 4C 90 11  01 6F 76 26 90 11 01 6F  J'...L...ov&...o
05F0: 76 27 90 11 01 52 20 80  F8 FF FF 7F F8 FF FF 7F  v'...R .........
0600: 73 30 30 35 45 20 80 F8  FF FF 7F F8 FF FF 7F 73  s005E .........s
0610: 30 30 36 01 80 27 10 39  90 11 01 07 2B 26 90 11  006..'.9....+&..
0620: 01 34 80 2A 10 39 90 11  01 79 00 4C 90 11 01 26  .4.*.9...y.L...&
0630: 90 11 01 79 00 F0 FF FF  7F 26 90 11 01 23 52 20  ...y.....&...#R 
0640: 80 F8 FF FF 7F F8 FF FF  7F 73 30 30 36 45 20 80  .........s006E .
0650: F8 FF FF 7F F8 FF FF 7F  73 30 30 37 01 80 27 10  ........s007..'.
0660: 39 90 11 01 0A 2B 27 90  11 01 35 80 2A 10 39 90  9....+'...5.*.9.
0670: 11 01 79 00 4C 90 11 01  27 90 11 01 79 00 F0 FF  ..y.L...'...y...
0680: FF 7F 27 90 11 01 23 52  20 80 F8 FF FF 7F F8 FF  ..'...#R .......
0690: FF 7F 73 30 30 37 45 20  80 F8 FF FF 7F F8 FF FF  ..s007E ........
06A0: 7F 73 30 30 38 01 80 7B  4C 90 11 01 27 10 4C 90  .s008..{L...'.L.
06B0: 11 01 01 2B 4C 90 11 01  36 80 29 10 4C 90 11 01  ...+L...6.).L...
06C0: 02 23 52 20 80 F8 FF FF  7F F8 FF FF 7F 73 30 30  .#R .........s00
06D0: 38 45 20 80 F8 FF FF 7F  F8 FF FF 7F 73 30 30 39  8E .........s009
06E0: 01 80 2B 27 90 11 01 37  80 23 52 20 80 F8 FF FF  ..+'...7.#R ....
06F0: 7F F8 FF FF 7F 73 30 30  39 45 20 80 F8 FF FF 7F  .....s009E .....
0700: F8 FF FF 7F 73 30 31 30  01 80 27 10 4C 90 11 01  ....s010..'.L...
0710: 03 03 03 10 38 80 2B 4C  90 11 01 39 80 29 10 4C  ....8.+L...9.).L
0720: 90 11 01 04 23 4A 4C 90  11 01 F0 FF FF 7F 52 20  ....#JL.......R 
0730: 80 F8 FF FF 7F F8 FF FF  7F 73 30 31 30 02 87 7F  .........s010...
0740: 3A 80 80 59 07 45 20 80  F8 FF FF 7F F8 FF FF 7F  :..Y.E .........
0750: 73 67 31 31 01 80 01 DA  07 02 87 7F 3B 80 80 75  sg11........;..u
0760: 07 45 20 80 F8 FF FF 7F  F8 FF FF 7F 73 65 31 31  .E .........se11
0770: 01 80 01 DA 07 02 87 7F  3C 80 80 91 07 45 20 80  ........<....E .
0780: F8 FF FF 7F F8 FF FF 7F  73 74 31 31 01 80 01 DA  ........st11....
0790: 07 02 87 7F 29 80 80 AD  07 45 20 80 F8 FF FF 7F  ....)....E .....
07A0: F8 FF FF 7F 73 74 31 31  01 80 01 DA 07 02 87 7F  ....st11........
07B0: 3D 80 80 C9 07 45 20 80  F8 FF FF 7F F8 FF FF 7F  =....E .........
07C0: 73 67 31 31 01 80 01 DA  07 45 20 80 F8 FF FF 7F  sg11.....E .....
07D0: F8 FF FF 7F 73 30 31 31  01 80 6F 76 4C 90 11 01  ....s011..ovL...
07E0: 4A F0 FF FF 7F 4C 90 11  01 27 10 4C 90 11 01 0F  J....L...'.L....
07F0: 2B 4C 90 11 01 3E 80 29  10 4C 90 11 01 10 23 02  +L...>.).L....#.
0800: 87 7F 3A 80 80 19 08 52  20 80 F8 FF FF 7F F8 FF  ..:....R .......
0810: FF 7F 73 67 31 31 01 90  08 02 87 7F 3B 80 80 33  ..sg11......;..3
0820: 08 52 20 80 F8 FF FF 7F  F8 FF FF 7F 73 65 31 31  .R .........se11
0830: 01 90 08 02 87 7F 3C 80  80 4D 08 52 20 80 F8 FF  ......<..M.R ...
0840: FF 7F F8 FF FF 7F 73 74  31 31 01 90 08 02 87 7F  ......st11......
0850: 29 80 80 67 08 52 20 80  F8 FF FF 7F F8 FF FF 7F  )..g.R .........
0860: 73 74 31 31 01 90 08 02  87 7F 3D 80 80 81 08 52  st11......=....R
0870: 20 80 F8 FF FF 7F F8 FF  FF 7F 73 67 31 31 01 90   .........sg11..
0880: 08 52 20 80 F8 FF FF 7F  F8 FF FF 7F 73 30 31 31  .R .........s011
0890: 45 20 80 F8 FF FF 7F F8  FF FF 7F 73 30 31 32 01  E .........s012.
08A0: 80 7B 4C 90 11 01 27 10  4C 90 11 01 01 2B 4C 90  .{L...'.L....+L.
08B0: 11 01 3F 80 29 10 4C 90  11 01 02 23 27 10 4C 90  ..?.).L....#'.L.
08C0: 11 01 03 52 20 80 F8 FF  FF 7F F8 FF FF 7F 73 30  ...R .........s0
08D0: 31 32 45 20 80 F8 FF FF  7F F8 FF FF 7F 73 30 31  12E .........s01
08E0: 33 01 80 1C 06 80 2B 27  90 11 01 40 80 29 10 4C  3.....+'...@.).L
08F0: 90 11 01 04 4A 4C 90 11  01 27 90 11 01 4A F0 FF  ....JL...'...J..
0900: FF 7F 27 90 11 01 23 52  20 80 F8 FF FF 7F F8 FF  ..'...#R .......
0910: FF 7F 73 30 31 33 45 20  80 F8 FF FF 7F F8 FF FF  ..s013E ........
0920: 7F 73 30 31 34 01 80 2B  26 90 11 01 41 80 79 00  .s014..+&...A.y.
0930: 4C 90 11 01 26 90 11 01  79 00 F0 FF FF 7F 26 90  L...&...y.....&.
0940: 11 01 23 2B 26 90 11 01  42 80 23 52 20 80 F8 FF  ..#+&...B.#R ...
0950: FF 7F F8 FF FF 7F 73 30  31 34 45 20 80 F8 FF FF  ......s014E ....
0960: 7F F8 FF FF 7F 73 30 31  35 01 80 7B 4C 90 11 01  .....s015..{L...
0970: 2B 4C 90 11 01 43 80 1C  44 80 52 20 80 F8 FF FF  +L...C..D.R ....
0980: 7F F8 FF FF 7F 73 30 31  35 45 20 80 F8 FF FF 7F  .....s015E .....
0990: F8 FF FF 7F 73 30 31 36  01 80 79 00 4C 90 11 01  ....s016..y.L...
09A0: 26 90 11 01 27 10 4C 90  11 01 0F 2B 4C 90 11 01  &...'.L....+L...
09B0: 45 80 29 10 4C 90 11 01  10 23 27 10 4C 90 11 01  E.).L....#'.L...
09C0: 11 52 20 80 F8 FF FF 7F  F8 FF FF 7F 73 30 31 36  .R .........s016
09D0: 02 87 7F 3A 80 80 EC 09  45 20 80 F8 FF FF 7F F8  ...:....E ......
09E0: FF FF 7F 73 67 31 37 01  80 01 51 0A 02 87 7F 3C  ...sg17...Q....<
09F0: 80 80 08 0A 45 20 80 F8  FF FF 7F F8 FF FF 7F 73  ....E .........s
0A00: 74 31 37 01 80 01 51 0A  02 87 7F 29 80 80 24 0A  t17...Q....)..$.
0A10: 45 20 80 F8 FF FF 7F F8  FF FF 7F 73 74 31 37 01  E .........st17.
0A20: 80 01 51 0A 02 87 7F 3D  80 80 40 0A 45 20 80 F8  ..Q....=..@.E ..
0A30: FF FF 7F F8 FF FF 7F 73  67 31 37 01 80 01 51 0A  .......sg17...Q.
0A40: 45 20 80 F8 FF FF 7F F8  FF FF 7F 73 30 31 37 01  E .........s017.
0A50: 80 4A 27 90 11 01 F0 FF  FF 7F 4A 26 90 11 01 F0  .J'.......J&....
0A60: FF FF 7F 2B 27 90 11 01  46 80 23 79 00 4C 90 11  ...+'...F.#y.L..
0A70: 01 27 90 11 01 79 00 F0  FF FF 7F 27 90 11 01 24  .'...y.....'...$
0A80: 47 80 01 80 01 80 25 02  00 10 01 80 00 3E 0B 6E  G.....%......>.n
0A90: F0 FF FF 7F 48 80 99 F0  FF FF 7F 1C 49 80 4A 26  ....H.......I.J&
0AA0: 90 11 01 4C 90 11 01 4A  27 90 11 01 4C 90 11 01  ...L...J'...L...
0AB0: 1C 06 80 02 87 7F 3A 80  80 CD 0A 52 20 80 F8 FF  ......:....R ...
0AC0: FF 7F F8 FF FF 7F 73 67  31 37 01 2A 0B 02 87 7F  ......sg17.*....
0AD0: 3C 80 80 E7 0A 52 20 80  F8 FF FF 7F F8 FF FF 7F  <....R .........
0AE0: 73 74 31 37 01 2A 0B 02  87 7F 29 80 80 01 0B 52  st17.*....)....R
0AF0: 20 80 F8 FF FF 7F F8 FF  FF 7F 73 74 31 37 01 2A   .........st17.*
0B00: 0B 02 87 7F 3D 80 80 1B  0B 52 20 80 F8 FF FF 7F  ....=....R .....
0B10: F8 FF FF 7F 73 67 31 37  01 2A 0B 52 20 80 F8 FF  ....sg17.*.R ...
0B20: FF 7F F8 FF FF 7F 73 30  31 37 45 20 80 F8 FF FF  ......s017E ....
0B30: 7F F8 FF FF 7F 73 30 32  30 01 80 01 9B 0D 02 00  .....s020.......
0B40: 10 03 80 00 9B 0D 6E F0  FF FF 7F 29 80 99 F0 FF  ......n....)....
0B50: FF 7F 1C 27 80 02 87 7F  3A 80 80 80 0B 52 20 80  ...'....:....R .
0B60: F8 FF FF 7F F8 FF FF 7F  73 67 31 37 45 20 80 F8  ........sg17E ..
0B70: FF FF 7F F8 FF FF 7F 73  67 31 38 01 80 01 4C 0C  .......sg18...L.
0B80: 02 87 7F 3B 80 80 AB 0B  52 20 80 F8 FF FF 7F F8  ...;....R ......
0B90: FF FF 7F 73 67 31 37 45  20 80 F8 FF FF 7F F8 FF  ...sg17E .......
0BA0: FF 7F 73 67 31 38 01 80  01 4C 0C 02 87 7F 3C 80  ..sg18...L....<.
0BB0: 80 D6 0B 52 20 80 F8 FF  FF 7F F8 FF FF 7F 73 74  ...R .........st
0BC0: 31 37 45 20 80 F8 FF FF  7F F8 FF FF 7F 73 74 31  17E .........st1
0BD0: 38 01 80 01 4C 0C 02 87  7F 29 80 80 01 0C 52 20  8...L....)....R 
0BE0: 80 F8 FF FF 7F F8 FF FF  7F 73 74 31 37 45 20 80  .........st17E .
0BF0: F8 FF FF 7F F8 FF FF 7F  73 74 31 38 01 80 01 4C  ........st18...L
0C00: 0C 02 87 7F 3D 80 80 2C  0C 52 20 80 F8 FF FF 7F  ....=..,.R .....
0C10: F8 FF FF 7F 73 67 31 37  45 20 80 F8 FF FF 7F F8  ....sg17E ......
0C20: FF FF 7F 73 67 31 38 01  80 01 4C 0C 52 20 80 F8  ...sg18...L.R ..
0C30: FF FF 7F F8 FF FF 7F 73  30 31 37 45 20 80 F8 FF  .......s017E ...
0C40: FF 7F F8 FF FF 7F 73 30  31 38 01 80 4A 4C 90 11  ......s018..JL..
0C50: 01 F0 FF FF 7F 6F 76 4C  90 11 01 4A F0 FF FF 7F  .....ovL...J....
0C60: 4C 90 11 01 4A 26 90 11  01 4C 90 11 01 4A 27 90  L...J&...L...J'.
0C70: 11 01 4C 90 11 01 1C 06  80 6E 4C 90 11 01 29 80  ..L......nL...).
0C80: 99 4C 90 11 01 2B 4C 90  11 01 4A 80 1C 21 80 23  .L...+L...J..!.#
0C90: 4A 4C 90 11 01 27 90 11  01 1C 4B 80 02 87 7F 3A  JL...'....K....:
0CA0: 80 80 B6 0C 52 20 80 F8  FF FF 7F F8 FF FF 7F 73  ....R .........s
0CB0: 67 31 38 01 2D 0D 02 87  7F 3B 80 80 D0 0C 52 20  g18.-....;....R 
0CC0: 80 F8 FF FF 7F F8 FF FF  7F 73 67 31 38 01 2D 0D  .........sg18.-.
0CD0: 02 87 7F 3C 80 80 EA 0C  52 20 80 F8 FF FF 7F F8  ...<....R ......
0CE0: FF FF 7F 73 74 31 38 01  2D 0D 02 87 7F 29 80 80  ...st18.-....)..
0CF0: 04 0D 52 20 80 F8 FF FF  7F F8 FF FF 7F 73 74 31  ..R .........st1
0D00: 38 01 2D 0D 02 87 7F 3D  80 80 1E 0D 52 20 80 F8  8.-....=....R ..
0D10: FF FF 7F F8 FF FF 7F 73  67 31 38 01 2D 0D 52 20  .......sg18.-.R 
0D20: 80 F8 FF FF 7F F8 FF FF  7F 73 30 31 38 45 20 80  .........s018E .
0D30: F8 FF FF 7F F8 FF FF 7F  73 30 31 39 01 80 6F 76  ........s019..ov
0D40: 4C 90 11 01 66 4C 80 4C  90 11 01 4C 90 11 01 70  L...fL.L...L...p
0D50: 6F 73 30 2B 4C 90 11 01  4D 80 4A F0 FF FF 7F 27  os0+L...M.J....'
0D60: 90 11 01 53 4C 90 11 01  4C 90 11 01 70 6F 73 30  ...SL...L...pos0
0D70: 23 27 10 4C 90 11 01 11  52 20 80 F8 FF FF 7F F8  #'.L....R ......
0D80: FF FF 7F 73 30 31 39 45  20 80 F8 FF FF 7F F8 FF  ...s019E .......
0D90: FF 7F 73 30 32 30 01 80  01 9B 0D 2B 27 90 11 01  ..s020.....+'...
0DA0: 4E 80 23 2B 27 90 11 01  4F 80 23 2B 26 90 11 01  N.#+'...O.#+&...
0DB0: 50 80 79 00 4C 90 11 01  26 90 11 01 79 00 F0 FF  P.y.L...&...y...
0DC0: FF 7F 26 90 11 01 23 52  20 80 F8 FF FF 7F F8 FF  ..&...#R .......
0DD0: FF 7F 73 30 32 30 45 20  80 F8 FF FF 7F F8 FF FF  ..s020E ........
0DE0: 7F 73 30 32 31 01 80 2B  26 90 11 01 51 80 23 52  .s021..+&...Q.#R
0DF0: 20 80 F8 FF FF 7F F8 FF  FF 7F 73 30 32 31 45 20   .........s021E 
0E00: 80 F8 FF FF 7F F8 FF FF  7F 73 30 32 32 01 80 7B  .........s022..{
0E10: 4C 90 11 01 27 10 4C 90  11 01 01 2B 4C 90 11 01  L...'.L....+L...
0E20: 52 80 29 10 4C 90 11 01  02 23 27 10 4C 90 11 01  R.).L....#'.L...
0E30: 03 79 00 4C 90 11 01 26  90 11 01 52 20 80 F8 FF  .y.L...&...R ...
0E40: FF 7F F8 FF FF 7F 73 30  32 32 45 20 80 F8 FF FF  ......s022E ....
0E50: 7F F8 FF FF 7F 73 30 32  33 01 80 2B 27 90 11 01  .....s023..+'...
0E60: 53 80 79 00 4C 90 11 01  26 90 11 01 79 00 F0 FF  S.y.L...&...y...
0E70: FF 7F 26 90 11 01 23 2B  27 90 11 01 54 80 23 6A  ..&...#+'...T.#j
0E80: 55 80 28 80 06 80 52 20  80 F8 FF FF 7F F8 FF FF  U.(...R ........
0E90: 7F 73 30 32 33 45 20 80  F8 FF FF 7F F8 FF FF 7F  .s023E .........
0EA0: 73 30 32 34 01 80 45 20  80 F8 FF FF 7F F8 FF FF  s024..E ........
0EB0: 7F 38 30 30 33 01 80 1C  56 80 5D 01 80 08 80 1A  .8003...V.].....
0EC0: A6 00 1C 27 80 1A 64 00  59 05 4C 90 11 01 00 59  ...'..d.Y.L....Y
0ED0: 05 F0 FF FF 7F 00 7B 4C  90 11 01 7B F0 FF FF 7F  ......{L...{....
0EE0: BA 4C 90 11 01 57 80 58  80 59 80 5A 80 BA F0 FF  .L...W.X.Y.Z....
0EF0: FF 7F 5B 80 5C 80 5D 80  5E 80 27 10 F0 FF FF 7F  ..[.\.].^.'.....
0F00: 02 27 10 4C 90 11 01 09  29 10 4C 90 11 01 0A C5  .'.L....).L.....
0F10: 30 80 39 90 11 01 39 90  11 01 6B 69 6C 30 01 80  0.9...9...kil0..
0F20: 4E 01 39 90 11 01 48 31  80 1C 28 80 6A 55 80 28  N.9...H1..(.jU.(
0F30: 80 1E 80 5C 00 1E 80 5C  01 1E 80 9A 5D 1F 80 03  ...\...\....]...
0F40: 80 52 20 80 F8 FF FF 7F  F8 FF FF 7F 73 30 32 34  .R .........s024
0F50: 45 20 80 F8 FF FF 7F F8  FF FF 7F 62 6C 6F 66 01  E .........blof.
0F60: 80 45 20 80 F8 FF FF 7F  F8 FF FF 7F 73 30 32 35  .E .........s025
0F70: 01 80 1A 96 01 1A 43 00  27 10 4C 90 11 01 0B 1C  ......C.'.L.....
0F80: 06 80 27 10 F0 FF FF 7F  03 2B 4C 90 11 01 5F 80  ..'......+L..._.
0F90: 29 10 4C 90 11 01 0C 23  52 20 80 F8 FF FF 7F F8  ).L....#R ......
0FA0: FF FF 7F 73 30 32 35 45  20 80 F8 FF FF 7F F8 FF  ...s025E .......
0FB0: FF 7F 73 30 32 36 01 80  27 10 4C 90 11 01 01 2B  ..s026..'.L....+
0FC0: 4C 90 11 01 60 80 29 10  4C 90 11 01 02 23 27 10  L...`.).L....#'.
0FD0: 4C 90 11 01 03 52 20 80  F8 FF FF 7F F8 FF FF 7F  L....R .........
0FE0: 73 30 32 36 45 20 80 F8  FF FF 7F F8 FF FF 7F 73  s026E .........s
0FF0: 30 32 37 01 80 2B 4C 90  11 01 61 80 29 10 4C 90  027..+L...a.).L.
1000: 11 01 04 23 4A 4C 90 11  01 F0 FF FF 7F 52 20 80  ...#JL.......R .
1010: F8 FF FF 7F F8 FF FF 7F  73 30 32 37 02 87 7F 3A  ........s027...:
1020: 80 80 38 10 45 20 80 F8  FF FF 7F F8 FF FF 7F 73  ..8.E .........s
1030: 67 32 38 01 80 01 B9 10  02 87 7F 3B 80 80 54 10  g28........;..T.
1040: 45 20 80 F8 FF FF 7F F8  FF FF 7F 73 65 32 38 01  E .........se28.
1050: 80 01 B9 10 02 87 7F 3C  80 80 70 10 45 20 80 F8  .......<..p.E ..
1060: FF FF 7F F8 FF FF 7F 73  74 32 38 01 80 01 B9 10  .......st28.....
1070: 02 87 7F 29 80 80 8C 10  45 20 80 F8 FF FF 7F F8  ...)....E ......
1080: FF FF 7F 73 74 32 38 01  80 01 B9 10 02 87 7F 3D  ...st28........=
1090: 80 80 A8 10 45 20 80 F8  FF FF 7F F8 FF FF 7F 73  ....E .........s
10A0: 67 32 38 01 80 01 B9 10  45 20 80 F8 FF FF 7F F8  g28.....E ......
10B0: FF FF 7F 73 30 32 38 01  80 6F 76 4C 90 11 01 4A  ...s028..ovL...J
10C0: F0 FF FF 7F 4C 90 11 01  27 10 4C 90 11 01 0F 2B  ....L...'.L....+
10D0: 4C 90 11 01 62 80 23 2B  4C 90 11 01 63 80 29 10  L...b.#+L...c.).
10E0: 4C 90 11 01 10 23 27 10  4C 90 11 01 11 29 10 4C  L....#'.L....).L
10F0: 90 11 01 12 7B 4C 90 11  01 02 87 7F 3A 80 80 13  ....{L......:...
1100: 11 52 20 80 F8 FF FF 7F  F8 FF FF 7F 73 67 32 38  .R .........sg28
1110: 01 8A 11 02 87 7F 3B 80  80 2D 11 52 20 80 F8 FF  ......;..-.R ...
1120: FF 7F F8 FF FF 7F 73 65  32 38 01 8A 11 02 87 7F  ......se28......
1130: 3C 80 80 47 11 52 20 80  F8 FF FF 7F F8 FF FF 7F  <..G.R .........
1140: 73 74 32 38 01 8A 11 02  87 7F 29 80 80 61 11 52  st28......)..a.R
1150: 20 80 F8 FF FF 7F F8 FF  FF 7F 73 74 32 38 01 8A   .........st28..
1160: 11 02 87 7F 3D 80 80 7B  11 52 20 80 F8 FF FF 7F  ....=..{.R .....
1170: F8 FF FF 7F 73 67 32 38  01 8A 11 52 20 80 F8 FF  ....sg28...R ...
1180: FF 7F F8 FF FF 7F 73 30  32 38 45 20 80 F8 FF FF  ......s028E ....
1190: 7F F8 FF FF 7F 73 30 32  39 01 80 1C 06 80 6E 4C  .....s029.....nL
11A0: 90 11 01 29 80 99 4C 90  11 01 2B 4C 90 11 01 64  ...)..L...+L...d
11B0: 80 1C 44 80 23 52 20 80  F8 FF FF 7F F8 FF FF 7F  ..D.#R .........
11C0: 73 30 32 39 45 20 80 F8  FF FF 7F F8 FF FF 7F 73  s029E .........s
11D0: 30 33 30 01 80 5B 65 80  4C 90 11 01 4C 90 11 01  030..[e.L...L...
11E0: 70 61 70 30 2B 4C 90 11  01 66 80 53 4C 90 11 01  pap0+L...f.SL...
11F0: 4C 90 11 01 70 61 70 30  23 52 20 80 F8 FF FF 7F  L...pap0#R .....
1200: F8 FF FF 7F 73 30 33 30  45 20 80 F8 FF FF 7F F8  ....s030E ......
1210: FF FF 7F 73 30 33 31 01  80 5B 65 80 4C 90 11 01  ...s031..[e.L...
1220: 4C 90 11 01 70 61 70 31  2B 4C 90 11 01 67 80 53  L...pap1+L...g.S
1230: 4C 90 11 01 4C 90 11 01  70 61 70 31 23 5D 01 80  L...L...pap1#]..
1240: 08 80 1A 64 00 52 20 80  F8 FF FF 7F F8 FF FF 7F  ...d.R .........
1250: 73 30 33 31 59 05 26 90  11 01 00 59 05 27 90 11  s031Y.&....Y.'..
1260: 01 00 59 05 39 90 11 01  00 29 10 26 90 11 01 0C  ..Y.9....).&....
1270: 29 10 27 90 11 01 0C 29  10 26 90 11 01 13 29 10  ).'....).&....).
1280: 27 90 11 01 11 5C 00 68  80 5C 01 68 80 9A 5D 1F  '....\.h.\.h..].
1290: 80 03 80 1C 69 80 AB 11  01 80 1C 03 80 AB 0A 46  ....i..........F
12A0: 00 45 00 80 F8 FF FF 7F  F8 FF FF 7F 66 64 69 32  .E..........fdi2
12B0: 01 80 21 00                                       ..!.            
```

#### Opcodes

```
  0: 0x0292 [0x42] SET_CLI_EVENT_CANCEL_DATA()
  1: 0x0293 [0x5D] SET_MUSIC_VOLUME(volume=0*, fade_time=300*)
  2: 0x0298 [0x1A] CALL_SUBROUTINE(address=0x0064)
  3: 0x029B [0x46] CAMERA_CONTROL: Disable user control
  4: 0x029D [0x38] SET_CLIENT_EVENT_MODE(mode=147*)
  5: 0x02A0 [0xAB] EventEntity->UnknownFlag = 1 // Enable unknown flag
  6: 0x02A2 [0x2F] Valli (ID: 17928268/0x0111904C)->Render.Flags0 &= ~0x80000 // Bit 19
  7: 0x02A8 [0x2F] Unnamed NPC (ID: 17928230/0x01119026)->Render.Flags0 &= ~0x80000 // Bit 19
  8: 0x02AE [0x2F] Unnamed NPC (ID: 17928231/0x01119027)->Render.Flags0 &= ~0x80000 // Bit 19
  9: 0x02B4 [0x2F] Unnamed NPC (ID: 17928249/0x01119039)->Render.Flags0 &= ~0x80000 // Bit 19
 10: 0x02BA [0x4E] SET_ENTITY_HIDE_FLAG: Show Valli (ID: 17928268/0x0111904C)
 11: 0x02C0 [0x4E] SET_ENTITY_HIDE_FLAG: Show Unnamed NPC (ID: 17928230/0x01119026)
 12: 0x02C6 [0x4E] SET_ENTITY_HIDE_FLAG: Show Unnamed NPC (ID: 17928231/0x01119027)
 13: 0x02CC [0x4E] SET_ENTITY_HIDE_FLAG: Show Unnamed NPC (ID: 17928249/0x01119039)
 14: 0x02D2 [0x94] Valli (ID: 17928268/0x0111904C)->Render.Flags3 ^= 0x01
 15: 0x02D8 [0x94] Unnamed NPC (ID: 17928230/0x01119026)->Render.Flags3 ^= 0x01
 16: 0x02DE [0x94] Unnamed NPC (ID: 17928231/0x01119027)->Render.Flags3 ^= 0x01
 17: 0x02E4 [0x94] LocalPlayer->Render.Flags3 ^= 0x01
 18: 0x02EA [0x59] UPDATE_ENTITY_DATA: Unnamed NPC (ID: 17928230/0x01119026)->Render.Flags0 |= 0x200000
 19: 0x02F1 [0x59] UPDATE_ENTITY_DATA: Unnamed NPC (ID: 17928231/0x01119027)->Render.Flags0 |= 0x200000
 20: 0x02F8 [0x59] UPDATE_ENTITY_DATA: Unnamed NPC (ID: 17928249/0x01119039)->Render.Flags0 |= 0x200000
 21: 0x02FF [0xBA] SET_ENTITY_POSITION(entity_id=Valli (ID: 17928268/0x0111904C), pos_x=-16.122*, pos_z=5.022*, pos_y=-0.130*, direction=150.9*)
 22: 0x030C [0xBA] SET_ENTITY_POSITION(entity_id=Unnamed NPC (ID: 17928230/0x01119026), pos_x=-59.390*, pos_z=-44.746*, pos_y=-250.578*, direction=32.3*)
 23: 0x0319 [0xBA] SET_ENTITY_POSITION(entity_id=Unnamed NPC (ID: 17928231/0x01119027), pos_x=-59.053*, pos_z=-43.221*, pos_y=-250.378*, direction=17.4*)
 24: 0x0326 [0xBA] SET_ENTITY_POSITION(entity_id=Unnamed NPC (ID: 17928249/0x01119039), pos_x=-51.112*, pos_z=-44.060*, pos_y=-250.878*, direction=163.6*)
 25: 0x0333 [0x4A] LocalPlayer looks at LocalPlayer
 26: 0x033C [0x6F] WAIT_FRAME_DELAY: Yield until WaitTime reaches zero
 27: 0x033D [0x76] CHECK_ENTITY_RENDER_FLAGS: Wait until LocalPlayer Render.Flags0 and Render.Flags3 conditions are met
 28: 0x0342 [0xBA] SET_ENTITY_POSITION(entity_id=LocalPlayer, pos_x=-23.181*, pos_z=-1.235*, pos_y=-0.449*, direction=165.1*)
 29: 0x034F [0x29] REQ_SET_WAIT(priority=0x10, entity_id=Unnamed NPC (ID: 17928230/0x01119026), tag_num=0x19)
 30: 0x0356 [0x29] REQ_SET_WAIT(priority=0x10, entity_id=Unnamed NPC (ID: 17928231/0x01119027), tag_num=0x17)
 31: 0x035D [0x80] LOAD_WAIT(entity=Valli (ID: 17928268/0x0111904C))
 32: 0x0362 [0x80] LOAD_WAIT(entity=Unnamed NPC (ID: 17928230/0x01119026))
 33: 0x0367 [0x80] LOAD_WAIT(entity=Unnamed NPC (ID: 17928231/0x01119027))
 34: 0x036C [0x80] LOAD_WAIT(entity=LocalPlayer)
 35: 0x0371 [0x1C] WAIT(30* ticks)
 36: 0x0374 [0x29] REQ_SET_WAIT(priority=0x10, entity_id=Unnamed NPC (ID: 17928230/0x01119026), tag_num=0x1B)
 37: 0x037B [0x29] REQ_SET_WAIT(priority=0x10, entity_id=Unnamed NPC (ID: 17928231/0x01119027), tag_num=0x19)
 38: 0x0382 [0x29] REQ_SET_WAIT(priority=0x10, entity_id=Unnamed NPC (ID: 17928249/0x01119039), tag_num=0x05)
 39: 0x0389 [0x29] REQ_SET_WAIT(priority=0x10, entity_id=Unnamed NPC (ID: 17928249/0x01119039), tag_num=0x08)
 40: 0x0390 [0x5C] MUSIC_CONTROL: Set Idle (Day) music to song 31*
 41: 0x0394 [0x5C] MUSIC_CONTROL: Set Idle (Night) music to song 31*
 42: 0x0398 [0x9A] WAIT_MUSIC_SERVER()
 43: 0x0399 [0x5D] SET_MUSIC_VOLUME(volume=127*, fade_time=1*)
 44: 0x039E [0x79] Valli (ID: 17928268/0x0111904C) looks at LocalPlayer (Basic look)
 45: 0x03A8 [0x27] REQ_SET(priority=0x10, entity_id=Valli (ID: 17928268/0x0111904C), tag_num=0x25)
 46: 0x03AF [0x45] LOAD_SCHEDULED_TASK: Load scheduler "s000" with entities [EventEntity, EventEntity], work=[875*, 0*]
 47: 0x03C0 [0x1A] CALL_SUBROUTINE(address=0x0043)
 48: 0x03C3 [0x1C] WAIT(150* ticks)
 49: 0x03C6 [0x52] END_LOAD_SCHEDULER: End scheduler "s000" with entities [EventEntity, EventEntity], work=875*
 50: 0x03D5 [0x45] LOAD_SCHEDULED_TASK: Load scheduler "s001" with entities [EventEntity, EventEntity], work=[875*, 0*]
 51: 0x03E6 [0x2B] Valli (ID: 17928268/0x0111904C) [8101*]:
     "I see you knew exactly where to come."
 52: 0x03ED [0x2A] GET_REQ_LEVEL(level=16, entity_id=Valli (ID: 17928268/0x0111904C))
 53: 0x03F3 [0x23] WAIT_FOR_DIALOG_INTERACTION
 54: 0x03F4 [0x7B] LocalPlayer stops talking
 55: 0x03F9 [0x4A] LocalPlayer looks at Valli (ID: 17928268/0x0111904C)
 56: 0x0402 [0x6F] WAIT_FRAME_DELAY: Yield until WaitTime reaches zero
 57: 0x0403 [0x76] CHECK_ENTITY_RENDER_FLAGS: Wait until LocalPlayer Render.Flags0 and Render.Flags3 conditions are met
 58: 0x0408 [0x7B] Valli (ID: 17928268/0x0111904C) stops talking
 59: 0x040D [0x27] REQ_SET(priority=0x10, entity_id=Valli (ID: 17928268/0x0111904C), tag_num=0x01)
 60: 0x0414 [0x1C] WAIT(30* ticks)
 61: 0x0417 [0x52] END_LOAD_SCHEDULER: End scheduler "s001" with entities [EventEntity, EventEntity], work=875*
 62: 0x0426 [0x45] LOAD_SCHEDULED_TASK: Load scheduler "s002" with entities [EventEntity, EventEntity], work=[875*, 0*]
 63: 0x0437 [0x2B] Valli (ID: 17928268/0x0111904C) [8102*]:
     "This is where Oshasha disappeared. Perhaps there is some kind of trap around here?"
 64: 0x043E [0x29] REQ_SET_WAIT(priority=0x10, entity_id=Valli (ID: 17928268/0x0111904C), tag_num=0x02)
 65: 0x0445 [0x23] WAIT_FOR_DIALOG_INTERACTION
 66: 0x0446 [0x27] REQ_SET(priority=0x10, entity_id=Valli (ID: 17928268/0x0111904C), tag_num=0x03)
 67: 0x044D [0x22] ENTITY_HIDE_FLAG(enabled=0x00)
 68: 0x044F [0xCD] LOAD_SCHEDULED_TASK_ALT4: Load scheduler "s000" with entities [EventEntity, EventEntity], work=[169*, 0*]
 69: 0x0460 [0x52] END_LOAD_SCHEDULER: End scheduler "s002" with entities [EventEntity, EventEntity], work=875*
 70: 0x046F [0x45] LOAD_SCHEDULED_TASK: Load scheduler "blon" with entities [EventEntity, EventEntity], work=[875*, 0*]
 71: 0x0480 [0x45] LOAD_SCHEDULED_TASK: Load scheduler "s003" with entities [EventEntity, EventEntity], work=[875*, 0*]
 72: 0x0491 [0x45] LOAD_SCHEDULED_TASK: Load scheduler "8305" with entities [EventEntity, EventEntity], work=[875*, 0*]
 73: 0x04A2 [0x7C] Valli (ID: 17928268/0x0111904C)->Render.Flags2 |= 0x00
 74: 0x04A8 [0x2B] Valli (ID: 17928268/0x0111904C) [8103*]:
     "!?"
 75: 0x04AF [0x7C] Valli (ID: 17928268/0x0111904C)->Render.Flags2 |= 0x01
 76: 0x04B5 [0x1C] WAIT(240* ticks)
 77: 0x04B8 [0x5D] SET_MUSIC_VOLUME(volume=0*, fade_time=300*)
 78: 0x04BD [0x1A] CALL_SUBROUTINE(address=0x00A6)
 79: 0x04C0 [0x1C] WAIT(120* ticks)
 80: 0x04C3 [0x1A] CALL_SUBROUTINE(address=0x0064)
 81: 0x04C6 [0x6A] CHANGE_SOUND_VOLUME: Set (System/Zone)* volume to 0*, fade_time=60*
 82: 0x04CD [0x22] ENTITY_HIDE_FLAG(enabled=0x01)
 83: 0x04CF [0xCD] LOAD_SCHEDULED_TASK_ALT4: Load scheduler "kll0" with entities [EventEntity, EventEntity], work=[169*, 0*]
 84: 0x04E0 [0x7B] LocalPlayer stops talking
 85: 0x04E5 [0x59] UPDATE_ENTITY_DATA: Valli (ID: 17928268/0x0111904C)->Render.Flags0 |= 0x200000
 86: 0x04EC [0x59] UPDATE_ENTITY_DATA: LocalPlayer->Render.Flags0 |= 0x200000
 87: 0x04F3 [0xBA] SET_ENTITY_POSITION(entity_id=Valli (ID: 17928268/0x0111904C), pos_x=-53.684*, pos_z=-44.347*, pos_y=-250.878*, direction=179.1*)
 88: 0x0500 [0xBA] SET_ENTITY_POSITION(entity_id=LocalPlayer, pos_x=-56.393*, pos_z=-46.493*, pos_y=-250.878*, direction=212.0*)
 89: 0x050D [0x27] REQ_SET(priority=0x10, entity_id=LocalPlayer, tag_num=0x02)
 90: 0x0514 [0x27] REQ_SET(priority=0x10, entity_id=Valli (ID: 17928268/0x0111904C), tag_num=0x09)
 91: 0x051B [0x29] REQ_SET_WAIT(priority=0x10, entity_id=Valli (ID: 17928268/0x0111904C), tag_num=0x0A)
 92: 0x0522 [0xC5] LOAD_SCHEDULED_TASK_ALT3: Load scheduler 0x80013030 for entities [Unnamed NPC (ID: 17928249/0x01119039), Unnamed NPC (ID: 17928249/0x01119039)], work=172*, param=12403
 93: 0x0533 [0xAB] EventEntity->UnknownFlag = 0 // Disable unknown flag
 94: 0x0535 [0x48] [System] [7364*]:
     "@@"
 95: 0x0538 [0x1C] WAIT(60* ticks)
 96: 0x053B [0x5C] MUSIC_CONTROL: Set Idle (Day) music to song 61*
 97: 0x053F [0x5C] MUSIC_CONTROL: Set Idle (Night) music to song 61*
 98: 0x0543 [0x9A] WAIT_MUSIC_SERVER()
 99: 0x0544 [0x5D] SET_MUSIC_VOLUME(volume=127*, fade_time=1*)
100: 0x0549 [0x52] END_LOAD_SCHEDULER: End scheduler "s003" with entities [EventEntity, EventEntity], work=875*
101: 0x0558 [0x45] LOAD_SCHEDULED_TASK: Load scheduler "bln2" with entities [EventEntity, EventEntity], work=[875*, 0*]
102: 0x0569 [0x45] LOAD_SCHEDULED_TASK: Load scheduler "s004" with entities [EventEntity, EventEntity], work=[875*, 0*]
103: 0x057A [0x1A] CALL_SUBROUTINE(address=0x0196)
104: 0x057D [0x1A] CALL_SUBROUTINE(address=0x0043)
105: 0x0580 [0x1C] WAIT(60* ticks)
106: 0x0583 [0x27] REQ_SET(priority=0x10, entity_id=Valli (ID: 17928268/0x0111904C), tag_num=0x0B)
107: 0x058A [0x1C] WAIT(30* ticks)
108: 0x058D [0x27] REQ_SET(priority=0x10, entity_id=LocalPlayer, tag_num=0x03)
109: 0x0594 [0x52] END_LOAD_SCHEDULER: End scheduler "s004" with entities [EventEntity, EventEntity], work=875*
110: 0x05A3 [0x45] LOAD_SCHEDULED_TASK: Load scheduler "s005" with entities [EventEntity, EventEntity], work=[875*, 0*]
111: 0x05B4 [0x29] REQ_SET_WAIT(priority=0x10, entity_id=Valli (ID: 17928268/0x0111904C), tag_num=0x0C)
112: 0x05BB [0x1C] WAIT(30* ticks)
113: 0x05BE [0x29] REQ_SET_WAIT(priority=0x10, entity_id=Valli (ID: 17928268/0x0111904C), tag_num=0x26)
114: 0x05C5 [0x1C] WAIT(30* ticks)
115: 0x05C8 [0x6E] Valli (ID: 17928268/0x0111904C) uses emote 29*
116: 0x05CF [0x99] Wait for Valli (ID: 17928268/0x0111904C) animation to complete
117: 0x05D4 [0x1C] WAIT(120* ticks)
118: 0x05D7 [0x4A] Unnamed NPC (ID: 17928230/0x01119026) looks at Valli (ID: 17928268/0x0111904C)
119: 0x05E0 [0x4A] Unnamed NPC (ID: 17928231/0x01119027) looks at Valli (ID: 17928268/0x0111904C)
120: 0x05E9 [0x6F] WAIT_FRAME_DELAY: Yield until WaitTime reaches zero
121: 0x05EA [0x76] CHECK_ENTITY_RENDER_FLAGS: Wait until Unnamed NPC (ID: 17928230/0x01119026) Render.Flags0 and Render.Flags3 conditions are met
122: 0x05EF [0x6F] WAIT_FRAME_DELAY: Yield until WaitTime reaches zero
123: 0x05F0 [0x76] CHECK_ENTITY_RENDER_FLAGS: Wait until Unnamed NPC (ID: 17928231/0x01119027) Render.Flags0 and Render.Flags3 conditions are met
124: 0x05F5 [0x52] END_LOAD_SCHEDULER: End scheduler "s005" with entities [EventEntity, EventEntity], work=875*
125: 0x0604 [0x45] LOAD_SCHEDULED_TASK: Load scheduler "s006" with entities [EventEntity, EventEntity], work=[875*, 0*]
126: 0x0615 [0x27] REQ_SET(priority=0x10, entity_id=Unnamed NPC (ID: 17928249/0x01119039), tag_num=0x07)
127: 0x061C [0x2B] Unnamed NPC (ID: 17928230/0x01119026) [8104*]:
     "Ah, I wasn't expecting any additional visitors here..."
128: 0x0623 [0x2A] GET_REQ_LEVEL(level=16, entity_id=Unnamed NPC (ID: 17928249/0x01119039))
129: 0x0629 [0x79] Valli (ID: 17928268/0x0111904C) looks at Unnamed NPC (ID: 17928230/0x01119026) (Basic look)
130: 0x0633 [0x79] LocalPlayer looks at Unnamed NPC (ID: 17928230/0x01119026) (Basic look)
131: 0x063D [0x23] WAIT_FOR_DIALOG_INTERACTION
132: 0x063E [0x52] END_LOAD_SCHEDULER: End scheduler "s006" with entities [EventEntity, EventEntity], work=875*
133: 0x064D [0x45] LOAD_SCHEDULED_TASK: Load scheduler "s007" with entities [EventEntity, EventEntity], work=[875*, 0*]
134: 0x065E [0x27] REQ_SET(priority=0x10, entity_id=Unnamed NPC (ID: 17928249/0x01119039), tag_num=0x0A)
135: 0x0665 [0x2B] Unnamed NPC (ID: 17928231/0x01119027) [8105*]:
     "Our master is away. You should leave here at once."
136: 0x066C [0x2A] GET_REQ_LEVEL(level=16, entity_id=Unnamed NPC (ID: 17928249/0x01119039))
137: 0x0672 [0x79] Valli (ID: 17928268/0x0111904C) looks at Unnamed NPC (ID: 17928231/0x01119027) (Basic look)
138: 0x067C [0x79] LocalPlayer looks at Unnamed NPC (ID: 17928231/0x01119027) (Basic look)
139: 0x0686 [0x23] WAIT_FOR_DIALOG_INTERACTION
140: 0x0687 [0x52] END_LOAD_SCHEDULER: End scheduler "s007" with entities [EventEntity, EventEntity], work=875*
141: 0x0696 [0x45] LOAD_SCHEDULED_TASK: Load scheduler "s008" with entities [EventEntity, EventEntity], work=[875*, 0*]
142: 0x06A7 [0x7B] Valli (ID: 17928268/0x0111904C) stops talking
143: 0x06AC [0x27] REQ_SET(priority=0x10, entity_id=Valli (ID: 17928268/0x0111904C), tag_num=0x01)
144: 0x06B3 [0x2B] Valli (ID: 17928268/0x0111904C) [8106*]:
     "Your master? What is this place?"
145: 0x06BA [0x29] REQ_SET_WAIT(priority=0x10, entity_id=Valli (ID: 17928268/0x0111904C), tag_num=0x02)
146: 0x06C1 [0x23] WAIT_FOR_DIALOG_INTERACTION
147: 0x06C2 [0x52] END_LOAD_SCHEDULER: End scheduler "s008" with entities [EventEntity, EventEntity], work=875*
148: 0x06D1 [0x45] LOAD_SCHEDULED_TASK: Load scheduler "s009" with entities [EventEntity, EventEntity], work=[875*, 0*]
149: 0x06E2 [0x2B] Unnamed NPC (ID: 17928231/0x01119027) [8107*]:
     "This territory was created by our master, Skhoh Undhreh."
150: 0x06E9 [0x23] WAIT_FOR_DIALOG_INTERACTION
151: 0x06EA [0x52] END_LOAD_SCHEDULER: End scheduler "s009" with entities [EventEntity, EventEntity], work=875*
152: 0x06F9 [0x45] LOAD_SCHEDULED_TASK: Load scheduler "s010" with entities [EventEntity, EventEntity], work=[875*, 0*]
153: 0x070A [0x27] REQ_SET(priority=0x10, entity_id=Valli (ID: 17928268/0x0111904C), tag_num=0x03)
154: 0x0711 [0x03] Work_Zone[3] = 3302*
155: 0x0716 [0x2B] Valli (ID: 17928268/0x0111904C) [8108*]:
     "Skhoh Undhreh!? That was one of the names written in the $3!"
156: 0x071D [0x29] REQ_SET_WAIT(priority=0x10, entity_id=Valli (ID: 17928268/0x0111904C), tag_num=0x04)
157: 0x0724 [0x23] WAIT_FOR_DIALOG_INTERACTION
158: 0x0725 [0x4A] Valli (ID: 17928268/0x0111904C) looks at LocalPlayer
159: 0x072E [0x52] END_LOAD_SCHEDULER: End scheduler "s010" with entities [EventEntity, EventEntity], work=875*
160: 0x073D [0x02] IF !(LocalPlayer->Race == 3*) GOTO 0x0759
161: 0x0745 [0x45] LOAD_SCHEDULED_TASK: Load scheduler "sg11" with entities [EventEntity, EventEntity], work=[875*, 0*]
162: 0x0756 [0x01] GOTO 0x07DA
163: 0x0759 [0x02] IF !(LocalPlayer->Race == 4*) GOTO 0x0775
164: 0x0761 [0x45] LOAD_SCHEDULED_TASK: Load scheduler "se11" with entities [EventEntity, EventEntity], work=[875*, 0*]
165: 0x0772 [0x01] GOTO 0x07DA
166: 0x0775 [0x02] IF !(LocalPlayer->Race == 5*) GOTO 0x0791
167: 0x077D [0x45] LOAD_SCHEDULED_TASK: Load scheduler "st11" with entities [EventEntity, EventEntity], work=[875*, 0*]
168: 0x078E [0x01] GOTO 0x07DA
169: 0x0791 [0x02] IF !(LocalPlayer->Race == 6*) GOTO 0x07AD
170: 0x0799 [0x45] LOAD_SCHEDULED_TASK: Load scheduler "st11" with entities [EventEntity, EventEntity], work=[875*, 0*]
171: 0x07AA [0x01] GOTO 0x07DA
172: 0x07AD [0x02] IF !(LocalPlayer->Race == 8*) GOTO 0x07C9
173: 0x07B5 [0x45] LOAD_SCHEDULED_TASK: Load scheduler "sg11" with entities [EventEntity, EventEntity], work=[875*, 0*]
174: 0x07C6 [0x01] GOTO 0x07DA
175: 0x07C9 [0x45] LOAD_SCHEDULED_TASK: Load scheduler "s011" with entities [EventEntity, EventEntity], work=[875*, 0*]

SUBROUTINE_07DA:
176: 0x07DA [0x6F] WAIT_FRAME_DELAY: Yield until WaitTime reaches zero
177: 0x07DB [0x76] CHECK_ENTITY_RENDER_FLAGS: Wait until Valli (ID: 17928268/0x0111904C) Render.Flags0 and Render.Flags3 conditions are met
178: 0x07E0 [0x4A] LocalPlayer looks at Valli (ID: 17928268/0x0111904C)
179: 0x07E9 [0x27] REQ_SET(priority=0x10, entity_id=Valli (ID: 17928268/0x0111904C), tag_num=0x0F)
180: 0x07F0 [0x2B] Valli (ID: 17928268/0x0111904C) [8109*]:
     "We read that only those who are deemed worthy can gain an audience with him, so Oshasha and I were searching throughout Leafallia."
181: 0x07F7 [0x29] REQ_SET_WAIT(priority=0x10, entity_id=Valli (ID: 17928268/0x0111904C), tag_num=0x10)
182: 0x07FE [0x23] WAIT_FOR_DIALOG_INTERACTION
183: 0x07FF [0x02] IF !(LocalPlayer->Race == 3*) GOTO 0x0819
184: 0x0807 [0x52] END_LOAD_SCHEDULER: End scheduler "sg11" with entities [EventEntity, EventEntity], work=875*
185: 0x0816 [0x01] GOTO 0x0890
186: 0x0819 [0x02] IF !(LocalPlayer->Race == 4*) GOTO 0x0833
187: 0x0821 [0x52] END_LOAD_SCHEDULER: End scheduler "se11" with entities [EventEntity, EventEntity], work=875*
188: 0x0830 [0x01] GOTO 0x0890
189: 0x0833 [0x02] IF !(LocalPlayer->Race == 5*) GOTO 0x084D
190: 0x083B [0x52] END_LOAD_SCHEDULER: End scheduler "st11" with entities [EventEntity, EventEntity], work=875*
191: 0x084A [0x01] GOTO 0x0890
192: 0x084D [0x02] IF !(LocalPlayer->Race == 6*) GOTO 0x0867
193: 0x0855 [0x52] END_LOAD_SCHEDULER: End scheduler "st11" with entities [EventEntity, EventEntity], work=875*
194: 0x0864 [0x01] GOTO 0x0890
195: 0x0867 [0x02] IF !(LocalPlayer->Race == 8*) GOTO 0x0881
196: 0x086F [0x52] END_LOAD_SCHEDULER: End scheduler "sg11" with entities [EventEntity, EventEntity], work=875*
197: 0x087E [0x01] GOTO 0x0890
198: 0x0881 [0x52] END_LOAD_SCHEDULER: End scheduler "s011" with entities [EventEntity, EventEntity], work=875*

SUBROUTINE_0890:
199: 0x0890 [0x45] LOAD_SCHEDULED_TASK: Load scheduler "s012" with entities [EventEntity, EventEntity], work=[875*, 0*]
200: 0x08A1 [0x7B] Valli (ID: 17928268/0x0111904C) stops talking
201: 0x08A6 [0x27] REQ_SET(priority=0x10, entity_id=Valli (ID: 17928268/0x0111904C), tag_num=0x01)
202: 0x08AD [0x2B] Valli (ID: 17928268/0x0111904C) [8110*]:
     "So perhaps this means that Oshasha is here as well..."
203: 0x08B4 [0x29] REQ_SET_WAIT(priority=0x10, entity_id=Valli (ID: 17928268/0x0111904C), tag_num=0x02)
204: 0x08BB [0x23] WAIT_FOR_DIALOG_INTERACTION
205: 0x08BC [0x27] REQ_SET(priority=0x10, entity_id=Valli (ID: 17928268/0x0111904C), tag_num=0x03)
206: 0x08C3 [0x52] END_LOAD_SCHEDULER: End scheduler "s012" with entities [EventEntity, EventEntity], work=875*
207: 0x08D2 [0x45] LOAD_SCHEDULED_TASK: Load scheduler "s013" with entities [EventEntity, EventEntity], work=[875*, 0*]
208: 0x08E3 [0x1C] WAIT(30* ticks)
209: 0x08E6 [0x2B] Unnamed NPC (ID: 17928231/0x01119027) [8111*]:
     "That is correct. The path is openly revealed to those who are pure of soul."
210: 0x08ED [0x29] REQ_SET_WAIT(priority=0x10, entity_id=Valli (ID: 17928268/0x0111904C), tag_num=0x04)
211: 0x08F4 [0x4A] Valli (ID: 17928268/0x0111904C) looks at Unnamed NPC (ID: 17928231/0x01119027)
212: 0x08FD [0x4A] LocalPlayer looks at Unnamed NPC (ID: 17928231/0x01119027)
213: 0x0906 [0x23] WAIT_FOR_DIALOG_INTERACTION
214: 0x0907 [0x52] END_LOAD_SCHEDULER: End scheduler "s013" with entities [EventEntity, EventEntity], work=875*
215: 0x0916 [0x45] LOAD_SCHEDULED_TASK: Load scheduler "s014" with entities [EventEntity, EventEntity], work=[875*, 0*]
216: 0x0927 [0x2B] Unnamed NPC (ID: 17928230/0x01119026) [8112*]:
     "Those who request an audience with our master must first prove that they are worthy of such an honor."
217: 0x092E [0x79] Valli (ID: 17928268/0x0111904C) looks at Unnamed NPC (ID: 17928230/0x01119026) (Basic look)
218: 0x0938 [0x79] LocalPlayer looks at Unnamed NPC (ID: 17928230/0x01119026) (Basic look)
219: 0x0942 [0x23] WAIT_FOR_DIALOG_INTERACTION
220: 0x0943 [0x2B] Unnamed NPC (ID: 17928230/0x01119026) [8113*]:
     "New possibilities await those souls that our master holds in high esteem."
221: 0x094A [0x23] WAIT_FOR_DIALOG_INTERACTION
222: 0x094B [0x52] END_LOAD_SCHEDULER: End scheduler "s014" with entities [EventEntity, EventEntity], work=875*
223: 0x095A [0x45] LOAD_SCHEDULED_TASK: Load scheduler "s015" with entities [EventEntity, EventEntity], work=[875*, 0*]
224: 0x096B [0x7B] Valli (ID: 17928268/0x0111904C) stops talking
225: 0x0970 [0x2B] Valli (ID: 17928268/0x0111904C) [8114*]:
     "New possibilities..."
226: 0x0977 [0x1C] WAIT(180* ticks)
227: 0x097A [0x52] END_LOAD_SCHEDULER: End scheduler "s015" with entities [EventEntity, EventEntity], work=875*
228: 0x0989 [0x45] LOAD_SCHEDULED_TASK: Load scheduler "s016" with entities [EventEntity, EventEntity], work=[875*, 0*]
229: 0x099A [0x79] Valli (ID: 17928268/0x0111904C) looks at Unnamed NPC (ID: 17928230/0x01119026) (Basic look)
230: 0x09A4 [0x27] REQ_SET(priority=0x10, entity_id=Valli (ID: 17928268/0x0111904C), tag_num=0x0F)
231: 0x09AB [0x2B] Valli (ID: 17928268/0x0111904C) [8115*]:
     "And what must we do to prove our worthiness?"
232: 0x09B2 [0x29] REQ_SET_WAIT(priority=0x10, entity_id=Valli (ID: 17928268/0x0111904C), tag_num=0x10)
233: 0x09B9 [0x23] WAIT_FOR_DIALOG_INTERACTION
234: 0x09BA [0x27] REQ_SET(priority=0x10, entity_id=Valli (ID: 17928268/0x0111904C), tag_num=0x11)
235: 0x09C1 [0x52] END_LOAD_SCHEDULER: End scheduler "s016" with entities [EventEntity, EventEntity], work=875*
236: 0x09D0 [0x02] IF !(LocalPlayer->Race == 3*) GOTO 0x09EC
237: 0x09D8 [0x45] LOAD_SCHEDULED_TASK: Load scheduler "sg17" with entities [EventEntity, EventEntity], work=[875*, 0*]
238: 0x09E9 [0x01] GOTO 0x0A51
239: 0x09EC [0x02] IF !(LocalPlayer->Race == 5*) GOTO 0x0A08
240: 0x09F4 [0x45] LOAD_SCHEDULED_TASK: Load scheduler "st17" with entities [EventEntity, EventEntity], work=[875*, 0*]
241: 0x0A05 [0x01] GOTO 0x0A51
242: 0x0A08 [0x02] IF !(LocalPlayer->Race == 6*) GOTO 0x0A24
243: 0x0A10 [0x45] LOAD_SCHEDULED_TASK: Load scheduler "st17" with entities [EventEntity, EventEntity], work=[875*, 0*]
244: 0x0A21 [0x01] GOTO 0x0A51
245: 0x0A24 [0x02] IF !(LocalPlayer->Race == 8*) GOTO 0x0A40
246: 0x0A2C [0x45] LOAD_SCHEDULED_TASK: Load scheduler "sg17" with entities [EventEntity, EventEntity], work=[875*, 0*]
247: 0x0A3D [0x01] GOTO 0x0A51
248: 0x0A40 [0x45] LOAD_SCHEDULED_TASK: Load scheduler "s017" with entities [EventEntity, EventEntity], work=[875*, 0*]

SUBROUTINE_0A51:
249: 0x0A51 [0x4A] Unnamed NPC (ID: 17928231/0x01119027) looks at LocalPlayer
250: 0x0A5A [0x4A] Unnamed NPC (ID: 17928230/0x01119026) looks at LocalPlayer
251: 0x0A63 [0x2B] Unnamed NPC (ID: 17928231/0x01119027) [8116*]:
     "Wait. You too wish an audience with our master?"
252: 0x0A6A [0x23] WAIT_FOR_DIALOG_INTERACTION
253: 0x0A6B [0x79] Valli (ID: 17928268/0x0111904C) looks at Unnamed NPC (ID: 17928231/0x01119027) (Basic look)
254: 0x0A75 [0x79] LocalPlayer looks at Unnamed NPC (ID: 17928231/0x01119027) (Basic look)
255: 0x0A7F [0x24] CREATE_DIALOG(message_id=8117*, default_option=0*, option_flags=0*)
     "Do you wish to meet their master? [Yes./Maybe later.]"
256: 0x0A86 [0x25] WAIT_DIALOG_SELECT()
257: 0x0A87 [0x02] IF !(Work_Zone[0] == 0*) GOTO 0x0B3E
258: 0x0A8F [0x6E] LocalPlayer uses emote 7*
259: 0x0A96 [0x99] Wait for LocalPlayer animation to complete
260: 0x0A9B [0x1C] WAIT(90* ticks)
261: 0x0A9E [0x4A] Unnamed NPC (ID: 17928230/0x01119026) looks at Valli (ID: 17928268/0x0111904C)
262: 0x0AA7 [0x4A] Unnamed NPC (ID: 17928231/0x01119027) looks at Valli (ID: 17928268/0x0111904C)
263: 0x0AB0 [0x1C] WAIT(30* ticks)
264: 0x0AB3 [0x02] IF !(LocalPlayer->Race == 3*) GOTO 0x0ACD
265: 0x0ABB [0x52] END_LOAD_SCHEDULER: End scheduler "sg17" with entities [EventEntity, EventEntity], work=875*
266: 0x0ACA [0x01] GOTO 0x0B2A
267: 0x0ACD [0x02] IF !(LocalPlayer->Race == 5*) GOTO 0x0AE7
268: 0x0AD5 [0x52] END_LOAD_SCHEDULER: End scheduler "st17" with entities [EventEntity, EventEntity], work=875*
269: 0x0AE4 [0x01] GOTO 0x0B2A
270: 0x0AE7 [0x02] IF !(LocalPlayer->Race == 6*) GOTO 0x0B01
271: 0x0AEF [0x52] END_LOAD_SCHEDULER: End scheduler "st17" with entities [EventEntity, EventEntity], work=875*
272: 0x0AFE [0x01] GOTO 0x0B2A
273: 0x0B01 [0x02] IF !(LocalPlayer->Race == 8*) GOTO 0x0B1B
274: 0x0B09 [0x52] END_LOAD_SCHEDULER: End scheduler "sg17" with entities [EventEntity, EventEntity], work=875*
275: 0x0B18 [0x01] GOTO 0x0B2A
276: 0x0B1B [0x52] END_LOAD_SCHEDULER: End scheduler "s017" with entities [EventEntity, EventEntity], work=875*

SUBROUTINE_0B2A:
277: 0x0B2A [0x45] LOAD_SCHEDULED_TASK: Load scheduler "s020" with entities [EventEntity, EventEntity], work=[875*, 0*]
278: 0x0B3B [0x01] GOTO 0x0D9B
279: 0x0B3E [0x02] IF !(Work_Zone[0] == 1*) GOTO 0x0D9B
280: 0x0B46 [0x6E] LocalPlayer uses emote 6*
281: 0x0B4D [0x99] Wait for LocalPlayer animation to complete
282: 0x0B52 [0x1C] WAIT(120* ticks)
283: 0x0B55 [0x02] IF !(LocalPlayer->Race == 3*) GOTO 0x0B80
284: 0x0B5D [0x52] END_LOAD_SCHEDULER: End scheduler "sg17" with entities [EventEntity, EventEntity], work=875*
285: 0x0B6C [0x45] LOAD_SCHEDULED_TASK: Load scheduler "sg18" with entities [EventEntity, EventEntity], work=[875*, 0*]
286: 0x0B7D [0x01] GOTO 0x0C4C
287: 0x0B80 [0x02] IF !(LocalPlayer->Race == 4*) GOTO 0x0BAB
288: 0x0B88 [0x52] END_LOAD_SCHEDULER: End scheduler "sg17" with entities [EventEntity, EventEntity], work=875*
289: 0x0B97 [0x45] LOAD_SCHEDULED_TASK: Load scheduler "sg18" with entities [EventEntity, EventEntity], work=[875*, 0*]
290: 0x0BA8 [0x01] GOTO 0x0C4C
291: 0x0BAB [0x02] IF !(LocalPlayer->Race == 5*) GOTO 0x0BD6
292: 0x0BB3 [0x52] END_LOAD_SCHEDULER: End scheduler "st17" with entities [EventEntity, EventEntity], work=875*
293: 0x0BC2 [0x45] LOAD_SCHEDULED_TASK: Load scheduler "st18" with entities [EventEntity, EventEntity], work=[875*, 0*]
294: 0x0BD3 [0x01] GOTO 0x0C4C
295: 0x0BD6 [0x02] IF !(LocalPlayer->Race == 6*) GOTO 0x0C01
296: 0x0BDE [0x52] END_LOAD_SCHEDULER: End scheduler "st17" with entities [EventEntity, EventEntity], work=875*
297: 0x0BED [0x45] LOAD_SCHEDULED_TASK: Load scheduler "st18" with entities [EventEntity, EventEntity], work=[875*, 0*]
298: 0x0BFE [0x01] GOTO 0x0C4C
299: 0x0C01 [0x02] IF !(LocalPlayer->Race == 8*) GOTO 0x0C2C
300: 0x0C09 [0x52] END_LOAD_SCHEDULER: End scheduler "sg17" with entities [EventEntity, EventEntity], work=875*
301: 0x0C18 [0x45] LOAD_SCHEDULED_TASK: Load scheduler "sg18" with entities [EventEntity, EventEntity], work=[875*, 0*]
302: 0x0C29 [0x01] GOTO 0x0C4C
303: 0x0C2C [0x52] END_LOAD_SCHEDULER: End scheduler "s017" with entities [EventEntity, EventEntity], work=875*
304: 0x0C3B [0x45] LOAD_SCHEDULED_TASK: Load scheduler "s018" with entities [EventEntity, EventEntity], work=[875*, 0*]

SUBROUTINE_0C4C:
305: 0x0C4C [0x4A] Valli (ID: 17928268/0x0111904C) looks at LocalPlayer
306: 0x0C55 [0x6F] WAIT_FRAME_DELAY: Yield until WaitTime reaches zero
307: 0x0C56 [0x76] CHECK_ENTITY_RENDER_FLAGS: Wait until Valli (ID: 17928268/0x0111904C) Render.Flags0 and Render.Flags3 conditions are met
308: 0x0C5B [0x4A] LocalPlayer looks at Valli (ID: 17928268/0x0111904C)
309: 0x0C64 [0x4A] Unnamed NPC (ID: 17928230/0x01119026) looks at Valli (ID: 17928268/0x0111904C)
310: 0x0C6D [0x4A] Unnamed NPC (ID: 17928231/0x01119027) looks at Valli (ID: 17928268/0x0111904C)
311: 0x0C76 [0x1C] WAIT(30* ticks)
312: 0x0C79 [0x6E] Valli (ID: 17928268/0x0111904C) uses emote 6*
313: 0x0C80 [0x99] Wait for Valli (ID: 17928268/0x0111904C) animation to complete
314: 0x0C85 [0x2B] Valli (ID: 17928268/0x0111904C) [8118*]:
     "If we are to find Oshasha, we have no other choice."
315: 0x0C8C [0x1C] WAIT(150* ticks)
316: 0x0C8F [0x23] WAIT_FOR_DIALOG_INTERACTION
317: 0x0C90 [0x4A] Valli (ID: 17928268/0x0111904C) looks at Unnamed NPC (ID: 17928231/0x01119027)
318: 0x0C99 [0x1C] WAIT(20* ticks)
319: 0x0C9C [0x02] IF !(LocalPlayer->Race == 3*) GOTO 0x0CB6
320: 0x0CA4 [0x52] END_LOAD_SCHEDULER: End scheduler "sg18" with entities [EventEntity, EventEntity], work=875*
321: 0x0CB3 [0x01] GOTO 0x0D2D
322: 0x0CB6 [0x02] IF !(LocalPlayer->Race == 4*) GOTO 0x0CD0
323: 0x0CBE [0x52] END_LOAD_SCHEDULER: End scheduler "sg18" with entities [EventEntity, EventEntity], work=875*
324: 0x0CCD [0x01] GOTO 0x0D2D
325: 0x0CD0 [0x02] IF !(LocalPlayer->Race == 5*) GOTO 0x0CEA
326: 0x0CD8 [0x52] END_LOAD_SCHEDULER: End scheduler "st18" with entities [EventEntity, EventEntity], work=875*
327: 0x0CE7 [0x01] GOTO 0x0D2D
328: 0x0CEA [0x02] IF !(LocalPlayer->Race == 6*) GOTO 0x0D04
329: 0x0CF2 [0x52] END_LOAD_SCHEDULER: End scheduler "st18" with entities [EventEntity, EventEntity], work=875*
330: 0x0D01 [0x01] GOTO 0x0D2D
331: 0x0D04 [0x02] IF !(LocalPlayer->Race == 8*) GOTO 0x0D1E
332: 0x0D0C [0x52] END_LOAD_SCHEDULER: End scheduler "sg18" with entities [EventEntity, EventEntity], work=875*
333: 0x0D1B [0x01] GOTO 0x0D2D
334: 0x0D1E [0x52] END_LOAD_SCHEDULER: End scheduler "s018" with entities [EventEntity, EventEntity], work=875*

SUBROUTINE_0D2D:
335: 0x0D2D [0x45] LOAD_SCHEDULED_TASK: Load scheduler "s019" with entities [EventEntity, EventEntity], work=[875*, 0*]
336: 0x0D3E [0x6F] WAIT_FRAME_DELAY: Yield until WaitTime reaches zero
337: 0x0D3F [0x76] CHECK_ENTITY_RENDER_FLAGS: Wait until Valli (ID: 17928268/0x0111904C) Render.Flags0 and Render.Flags3 conditions are met
338: 0x0D44 [0x66] LOAD_EXT_SCHEDULER_MAIN: Load scheduler "pos0" with entities [Valli (ID: 17928268/0x0111904C), Valli (ID: 17928268/0x0111904C)], work=94*
339: 0x0D53 [0x2B] Valli (ID: 17928268/0x0111904C) [8119*]:
     "I do! I request an audience with Skhoh Undhreh!"
340: 0x0D5A [0x4A] LocalPlayer looks at Unnamed NPC (ID: 17928231/0x01119027)
341: 0x0D63 [0x53] WAIT_SCHEDULER_TASK: Wait for scheduler "pos0" with entities [Valli (ID: 17928268/0x0111904C), Valli (ID: 17928268/0x0111904C)]
342: 0x0D70 [0x23] WAIT_FOR_DIALOG_INTERACTION
343: 0x0D71 [0x27] REQ_SET(priority=0x10, entity_id=Valli (ID: 17928268/0x0111904C), tag_num=0x11)
344: 0x0D78 [0x52] END_LOAD_SCHEDULER: End scheduler "s019" with entities [EventEntity, EventEntity], work=875*
345: 0x0D87 [0x45] LOAD_SCHEDULED_TASK: Load scheduler "s020" with entities [EventEntity, EventEntity], work=[875*, 0*]
346: 0x0D98 [0x01] GOTO 0x0D9B

SUBROUTINE_0D9B:
347: 0x0D9B [0x2B] Unnamed NPC (ID: 17928231/0x01119027) [8120*]:
     "Very well. In that case, there is only one thing you must do."
348: 0x0DA2 [0x23] WAIT_FOR_DIALOG_INTERACTION
349: 0x0DA3 [0x2B] Unnamed NPC (ID: 17928231/0x01119027) [8121*]:
     "You must work together with this Oshasha to defeat the opponent presented before you."
350: 0x0DAA [0x23] WAIT_FOR_DIALOG_INTERACTION
351: 0x0DAB [0x2B] Unnamed NPC (ID: 17928230/0x01119026) [8122*]:
     "The opponent's soul is stitched together from the recollections of the countless battles etched in Oshasha's soul."
352: 0x0DB2 [0x79] Valli (ID: 17928268/0x0111904C) looks at Unnamed NPC (ID: 17928230/0x01119026) (Basic look)
353: 0x0DBC [0x79] LocalPlayer looks at Unnamed NPC (ID: 17928230/0x01119026) (Basic look)
354: 0x0DC6 [0x23] WAIT_FOR_DIALOG_INTERACTION
355: 0x0DC7 [0x52] END_LOAD_SCHEDULER: End scheduler "s020" with entities [EventEntity, EventEntity], work=875*
356: 0x0DD6 [0x45] LOAD_SCHEDULED_TASK: Load scheduler "s021" with entities [EventEntity, EventEntity], work=[875*, 0*]
357: 0x0DE7 [0x2B] Unnamed NPC (ID: 17928230/0x01119026) [8123*]:
     "That same memory is also within your soul as well. A most powerful and unforgettable memory..."
358: 0x0DEE [0x23] WAIT_FOR_DIALOG_INTERACTION
359: 0x0DEF [0x52] END_LOAD_SCHEDULER: End scheduler "s021" with entities [EventEntity, EventEntity], work=875*
360: 0x0DFE [0x45] LOAD_SCHEDULED_TASK: Load scheduler "s022" with entities [EventEntity, EventEntity], work=[875*, 0*]
361: 0x0E0F [0x7B] Valli (ID: 17928268/0x0111904C) stops talking
362: 0x0E14 [0x27] REQ_SET(priority=0x10, entity_id=Valli (ID: 17928268/0x0111904C), tag_num=0x01)
363: 0x0E1B [0x2B] Valli (ID: 17928268/0x0111904C) [8124*]:
     "An unforgettable memory?"
364: 0x0E22 [0x29] REQ_SET_WAIT(priority=0x10, entity_id=Valli (ID: 17928268/0x0111904C), tag_num=0x02)
365: 0x0E29 [0x23] WAIT_FOR_DIALOG_INTERACTION
366: 0x0E2A [0x27] REQ_SET(priority=0x10, entity_id=Valli (ID: 17928268/0x0111904C), tag_num=0x03)
367: 0x0E31 [0x79] Valli (ID: 17928268/0x0111904C) looks at Unnamed NPC (ID: 17928230/0x01119026) (Basic look)
368: 0x0E3B [0x52] END_LOAD_SCHEDULER: End scheduler "s022" with entities [EventEntity, EventEntity], work=875*
369: 0x0E4A [0x45] LOAD_SCHEDULED_TASK: Load scheduler "s023" with entities [EventEntity, EventEntity], work=[875*, 0*]
370: 0x0E5B [0x2B] Unnamed NPC (ID: 17928231/0x01119027) [8125*]:
     "Once you are ready, head to the entrance of the trial that we have prepared for you."
371: 0x0E62 [0x79] Valli (ID: 17928268/0x0111904C) looks at Unnamed NPC (ID: 17928230/0x01119026) (Basic look)
372: 0x0E6C [0x79] LocalPlayer looks at Unnamed NPC (ID: 17928230/0x01119026) (Basic look)
373: 0x0E76 [0x23] WAIT_FOR_DIALOG_INTERACTION
374: 0x0E77 [0x2B] Unnamed NPC (ID: 17928231/0x01119027) [8126*]:
     "The gem shall guide you to the trial's location."
375: 0x0E7E [0x23] WAIT_FOR_DIALOG_INTERACTION
376: 0x0E7F [0x6A] CHANGE_SOUND_VOLUME: Set (System/Zone/Master/SpecialChat)* volume to 999*, fade_time=60*
377: 0x0E86 [0x52] END_LOAD_SCHEDULER: End scheduler "s023" with entities [EventEntity, EventEntity], work=875*
378: 0x0E95 [0x45] LOAD_SCHEDULED_TASK: Load scheduler "s024" with entities [EventEntity, EventEntity], work=[875*, 0*]
379: 0x0EA6 [0x45] LOAD_SCHEDULED_TASK: Load scheduler "8003" with entities [EventEntity, EventEntity], work=[875*, 0*]
380: 0x0EB7 [0x1C] WAIT(210* ticks)
381: 0x0EBA [0x5D] SET_MUSIC_VOLUME(volume=0*, fade_time=300*)
382: 0x0EBF [0x1A] CALL_SUBROUTINE(address=0x00A6)
383: 0x0EC2 [0x1C] WAIT(120* ticks)
384: 0x0EC5 [0x1A] CALL_SUBROUTINE(address=0x0064)
385: 0x0EC8 [0x59] UPDATE_ENTITY_DATA: Valli (ID: 17928268/0x0111904C)->Render.Flags0 &= ~0x200000
386: 0x0ECF [0x59] UPDATE_ENTITY_DATA: LocalPlayer->Render.Flags0 &= ~0x200000
387: 0x0ED6 [0x7B] Valli (ID: 17928268/0x0111904C) stops talking
388: 0x0EDB [0x7B] LocalPlayer stops talking
389: 0x0EE0 [0xBA] SET_ENTITY_POSITION(entity_id=Valli (ID: 17928268/0x0111904C), pos_x=-21.624*, pos_z=0.905*, pos_y=-0.360*, direction=136.6*)
390: 0x0EED [0xBA] SET_ENTITY_POSITION(entity_id=LocalPlayer, pos_x=-23.338*, pos_z=-2.902*, pos_y=-0.528*, direction=186.6*)
391: 0x0EFA [0x27] REQ_SET(priority=0x10, entity_id=LocalPlayer, tag_num=0x02)
392: 0x0F01 [0x27] REQ_SET(priority=0x10, entity_id=Valli (ID: 17928268/0x0111904C), tag_num=0x09)
393: 0x0F08 [0x29] REQ_SET_WAIT(priority=0x10, entity_id=Valli (ID: 17928268/0x0111904C), tag_num=0x0A)
394: 0x0F0F [0xC5] LOAD_SCHEDULED_TASK_ALT3: Load scheduler 0x8001306C for entities [Unnamed NPC (ID: 17928249/0x01119039), Unnamed NPC (ID: 17928249/0x01119039)], work=172*, param=26987
395: 0x0F20 [0x4E] SET_ENTITY_HIDE_FLAG: Hide Unnamed NPC (ID: 17928249/0x01119039)
396: 0x0F26 [0x48] [System] [7364*]:
     "@@"
397: 0x0F29 [0x1C] WAIT(60* ticks)
398: 0x0F2C [0x6A] CHANGE_SOUND_VOLUME: Set (Effects/System/Zone/Master/SpecialChat)* volume to 999*, fade_time=60*
399: 0x0F33 [0x5C] MUSIC_CONTROL: Set Idle (Day) music to song 31*
400: 0x0F37 [0x5C] MUSIC_CONTROL: Set Idle (Night) music to song 31*
401: 0x0F3B [0x9A] WAIT_MUSIC_SERVER()
402: 0x0F3C [0x5D] SET_MUSIC_VOLUME(volume=127*, fade_time=1*)
403: 0x0F41 [0x52] END_LOAD_SCHEDULER: End scheduler "s024" with entities [EventEntity, EventEntity], work=875*
404: 0x0F50 [0x45] LOAD_SCHEDULED_TASK: Load scheduler "blof" with entities [EventEntity, EventEntity], work=[875*, 0*]
405: 0x0F61 [0x45] LOAD_SCHEDULED_TASK: Load scheduler "s025" with entities [EventEntity, EventEntity], work=[875*, 0*]
406: 0x0F72 [0x1A] CALL_SUBROUTINE(address=0x0196)
407: 0x0F75 [0x1A] CALL_SUBROUTINE(address=0x0043)
408: 0x0F78 [0x27] REQ_SET(priority=0x10, entity_id=Valli (ID: 17928268/0x0111904C), tag_num=0x0B)
409: 0x0F7F [0x1C] WAIT(30* ticks)
410: 0x0F82 [0x27] REQ_SET(priority=0x10, entity_id=LocalPlayer, tag_num=0x03)
411: 0x0F89 [0x2B] Valli (ID: 17928268/0x0111904C) [8127*]:
     "We are back where we started..."
412: 0x0F90 [0x29] REQ_SET_WAIT(priority=0x10, entity_id=Valli (ID: 17928268/0x0111904C), tag_num=0x0C)
413: 0x0F97 [0x23] WAIT_FOR_DIALOG_INTERACTION
414: 0x0F98 [0x52] END_LOAD_SCHEDULER: End scheduler "s025" with entities [EventEntity, EventEntity], work=875*
415: 0x0FA7 [0x45] LOAD_SCHEDULED_TASK: Load scheduler "s026" with entities [EventEntity, EventEntity], work=[875*, 0*]
416: 0x0FB8 [0x27] REQ_SET(priority=0x10, entity_id=Valli (ID: 17928268/0x0111904C), tag_num=0x01)
417: 0x0FBF [0x2B] Valli (ID: 17928268/0x0111904C) [8128*]:
     "Could it be that the reason we were unable to find Oshasha is because she was already here fighting against this memory of hers?"
418: 0x0FC6 [0x29] REQ_SET_WAIT(priority=0x10, entity_id=Valli (ID: 17928268/0x0111904C), tag_num=0x02)
419: 0x0FCD [0x23] WAIT_FOR_DIALOG_INTERACTION
420: 0x0FCE [0x27] REQ_SET(priority=0x10, entity_id=Valli (ID: 17928268/0x0111904C), tag_num=0x03)
421: 0x0FD5 [0x52] END_LOAD_SCHEDULER: End scheduler "s026" with entities [EventEntity, EventEntity], work=875*
422: 0x0FE4 [0x45] LOAD_SCHEDULED_TASK: Load scheduler "s027" with entities [EventEntity, EventEntity], work=[875*, 0*]
423: 0x0FF5 [0x2B] Valli (ID: 17928268/0x0111904C) [8129*]:
     "If I am right, we cannot afford to wait for Lerene."
424: 0x0FFC [0x29] REQ_SET_WAIT(priority=0x10, entity_id=Valli (ID: 17928268/0x0111904C), tag_num=0x04)
425: 0x1003 [0x23] WAIT_FOR_DIALOG_INTERACTION
426: 0x1004 [0x4A] Valli (ID: 17928268/0x0111904C) looks at LocalPlayer
427: 0x100D [0x52] END_LOAD_SCHEDULER: End scheduler "s027" with entities [EventEntity, EventEntity], work=875*
428: 0x101C [0x02] IF !(LocalPlayer->Race == 3*) GOTO 0x1038
429: 0x1024 [0x45] LOAD_SCHEDULED_TASK: Load scheduler "sg28" with entities [EventEntity, EventEntity], work=[875*, 0*]
430: 0x1035 [0x01] GOTO 0x10B9
431: 0x1038 [0x02] IF !(LocalPlayer->Race == 4*) GOTO 0x1054
432: 0x1040 [0x45] LOAD_SCHEDULED_TASK: Load scheduler "se28" with entities [EventEntity, EventEntity], work=[875*, 0*]
433: 0x1051 [0x01] GOTO 0x10B9
434: 0x1054 [0x02] IF !(LocalPlayer->Race == 5*) GOTO 0x1070
435: 0x105C [0x45] LOAD_SCHEDULED_TASK: Load scheduler "st28" with entities [EventEntity, EventEntity], work=[875*, 0*]
436: 0x106D [0x01] GOTO 0x10B9
437: 0x1070 [0x02] IF !(LocalPlayer->Race == 6*) GOTO 0x108C
438: 0x1078 [0x45] LOAD_SCHEDULED_TASK: Load scheduler "st28" with entities [EventEntity, EventEntity], work=[875*, 0*]
439: 0x1089 [0x01] GOTO 0x10B9
440: 0x108C [0x02] IF !(LocalPlayer->Race == 8*) GOTO 0x10A8
441: 0x1094 [0x45] LOAD_SCHEDULED_TASK: Load scheduler "sg28" with entities [EventEntity, EventEntity], work=[875*, 0*]
442: 0x10A5 [0x01] GOTO 0x10B9
443: 0x10A8 [0x45] LOAD_SCHEDULED_TASK: Load scheduler "s028" with entities [EventEntity, EventEntity], work=[875*, 0*]

SUBROUTINE_10B9:
444: 0x10B9 [0x6F] WAIT_FRAME_DELAY: Yield until WaitTime reaches zero
445: 0x10BA [0x76] CHECK_ENTITY_RENDER_FLAGS: Wait until Valli (ID: 17928268/0x0111904C) Render.Flags0 and Render.Flags3 conditions are met
446: 0x10BF [0x4A] LocalPlayer looks at Valli (ID: 17928268/0x0111904C)
447: 0x10C8 [0x27] REQ_SET(priority=0x10, entity_id=Valli (ID: 17928268/0x0111904C), tag_num=0x0F)
448: 0x10CF [0x2B] Valli (ID: 17928268/0x0111904C) [8130*]:
     "Just between us, Oshasha faced a traumatic experience in her past that prevents her from being able to use magic."
449: 0x10D6 [0x23] WAIT_FOR_DIALOG_INTERACTION
450: 0x10D7 [0x2B] Valli (ID: 17928268/0x0111904C) [8131*]:
     "However, she has been able to serve as conservator of the library due to her vast knowledge and experience, and as long as she is still able to use items that are imbued with magic."
451: 0x10DE [0x29] REQ_SET_WAIT(priority=0x10, entity_id=Valli (ID: 17928268/0x0111904C), tag_num=0x10)
452: 0x10E5 [0x23] WAIT_FOR_DIALOG_INTERACTION
453: 0x10E6 [0x27] REQ_SET(priority=0x10, entity_id=Valli (ID: 17928268/0x0111904C), tag_num=0x11)
454: 0x10ED [0x29] REQ_SET_WAIT(priority=0x10, entity_id=Valli (ID: 17928268/0x0111904C), tag_num=0x12)
455: 0x10F4 [0x7B] Valli (ID: 17928268/0x0111904C) stops talking
456: 0x10F9 [0x02] IF !(LocalPlayer->Race == 3*) GOTO 0x1113
457: 0x1101 [0x52] END_LOAD_SCHEDULER: End scheduler "sg28" with entities [EventEntity, EventEntity], work=875*
458: 0x1110 [0x01] GOTO 0x118A
459: 0x1113 [0x02] IF !(LocalPlayer->Race == 4*) GOTO 0x112D
460: 0x111B [0x52] END_LOAD_SCHEDULER: End scheduler "se28" with entities [EventEntity, EventEntity], work=875*
461: 0x112A [0x01] GOTO 0x118A
462: 0x112D [0x02] IF !(LocalPlayer->Race == 5*) GOTO 0x1147
463: 0x1135 [0x52] END_LOAD_SCHEDULER: End scheduler "st28" with entities [EventEntity, EventEntity], work=875*
464: 0x1144 [0x01] GOTO 0x118A
465: 0x1147 [0x02] IF !(LocalPlayer->Race == 6*) GOTO 0x1161
466: 0x114F [0x52] END_LOAD_SCHEDULER: End scheduler "st28" with entities [EventEntity, EventEntity], work=875*
467: 0x115E [0x01] GOTO 0x118A
468: 0x1161 [0x02] IF !(LocalPlayer->Race == 8*) GOTO 0x117B
469: 0x1169 [0x52] END_LOAD_SCHEDULER: End scheduler "sg28" with entities [EventEntity, EventEntity], work=875*
470: 0x1178 [0x01] GOTO 0x118A
471: 0x117B [0x52] END_LOAD_SCHEDULER: End scheduler "s028" with entities [EventEntity, EventEntity], work=875*

SUBROUTINE_118A:
472: 0x118A [0x45] LOAD_SCHEDULED_TASK: Load scheduler "s029" with entities [EventEntity, EventEntity], work=[875*, 0*]
473: 0x119B [0x1C] WAIT(30* ticks)
474: 0x119E [0x6E] Valli (ID: 17928268/0x0111904C) uses emote 6*
475: 0x11A5 [0x99] Wait for Valli (ID: 17928268/0x0111904C) animation to complete
476: 0x11AA [0x2B] Valli (ID: 17928268/0x0111904C) [8132*]:
     "As such, I do not think she is capable of facing this trial prepared by the demons on her own."
477: 0x11B1 [0x1C] WAIT(180* ticks)
478: 0x11B4 [0x23] WAIT_FOR_DIALOG_INTERACTION
479: 0x11B5 [0x52] END_LOAD_SCHEDULER: End scheduler "s029" with entities [EventEntity, EventEntity], work=875*
480: 0x11C4 [0x45] LOAD_SCHEDULED_TASK: Load scheduler "s030" with entities [EventEntity, EventEntity], work=[875*, 0*]
481: 0x11D5 [0x5B] LOAD_EXT_SCHEDULER: Load scheduler "pap0" with entities [Valli (ID: 17928268/0x0111904C), Valli (ID: 17928268/0x0111904C)], work=2216*
482: 0x11E4 [0x2B] Valli (ID: 17928268/0x0111904C) [8133*]:
     "We must find Oshasha as quickly as possible and help her!"
483: 0x11EB [0x53] WAIT_SCHEDULER_TASK: Wait for scheduler "pap0" with entities [Valli (ID: 17928268/0x0111904C), Valli (ID: 17928268/0x0111904C)]
484: 0x11F8 [0x23] WAIT_FOR_DIALOG_INTERACTION
485: 0x11F9 [0x52] END_LOAD_SCHEDULER: End scheduler "s030" with entities [EventEntity, EventEntity], work=875*
486: 0x1208 [0x45] LOAD_SCHEDULED_TASK: Load scheduler "s031" with entities [EventEntity, EventEntity], work=[875*, 0*]
487: 0x1219 [0x5B] LOAD_EXT_SCHEDULER: Load scheduler "pap1" with entities [Valli (ID: 17928268/0x0111904C), Valli (ID: 17928268/0x0111904C)], work=2216*
488: 0x1228 [0x2B] Valli (ID: 17928268/0x0111904C) [8134*]:
     "Lerene has nothing but good things to say about you, pioneer. I am counting on your assistance. Let's go!"
489: 0x122F [0x53] WAIT_SCHEDULER_TASK: Wait for scheduler "pap1" with entities [Valli (ID: 17928268/0x0111904C), Valli (ID: 17928268/0x0111904C)]
490: 0x123C [0x23] WAIT_FOR_DIALOG_INTERACTION
491: 0x123D [0x5D] SET_MUSIC_VOLUME(volume=0*, fade_time=300*)
492: 0x1242 [0x1A] CALL_SUBROUTINE(address=0x0064)
493: 0x1245 [0x52] END_LOAD_SCHEDULER: End scheduler "s031" with entities [EventEntity, EventEntity], work=875*
494: 0x1254 [0x59] UPDATE_ENTITY_DATA: Unnamed NPC (ID: 17928230/0x01119026)->Render.Flags0 &= ~0x200000
495: 0x125B [0x59] UPDATE_ENTITY_DATA: Unnamed NPC (ID: 17928231/0x01119027)->Render.Flags0 &= ~0x200000
496: 0x1262 [0x59] UPDATE_ENTITY_DATA: Unnamed NPC (ID: 17928249/0x01119039)->Render.Flags0 &= ~0x200000
497: 0x1269 [0x29] REQ_SET_WAIT(priority=0x10, entity_id=Unnamed NPC (ID: 17928230/0x01119026), tag_num=0x0C)
498: 0x1270 [0x29] REQ_SET_WAIT(priority=0x10, entity_id=Unnamed NPC (ID: 17928231/0x01119027), tag_num=0x0C)
499: 0x1277 [0x29] REQ_SET_WAIT(priority=0x10, entity_id=Unnamed NPC (ID: 17928230/0x01119026), tag_num=0x13)
500: 0x127E [0x29] REQ_SET_WAIT(priority=0x10, entity_id=Unnamed NPC (ID: 17928231/0x01119027), tag_num=0x11)
501: 0x1285 [0x5C] MUSIC_CONTROL: Set Idle (Day) music to song 72*
502: 0x1289 [0x5C] MUSIC_CONTROL: Set Idle (Night) music to song 72*
503: 0x128D [0x9A] WAIT_MUSIC_SERVER()
504: 0x128E [0x5D] SET_MUSIC_VOLUME(volume=127*, fade_time=1*)
505: 0x1293 [0x1C] WAIT(15* ticks)
506: 0x1296 [0xAB] EventEntity->DespawnValue = 0* // Set despawn value
507: 0x129A [0x1C] WAIT(1* ticks)
508: 0x129D [0xAB] EventEntity->UnknownFlag = 0 // Disable unknown flag
509: 0x129F [0x46] CAMERA_CONTROL: Restore default settings
510: 0x12A1 [0x45] LOAD_SCHEDULED_TASK: Load scheduler "fdi2" with entities [EventEntity, EventEntity], work=[200*, 0*]
511: 0x12B2 [0x21] END_EVENT
512: 0x12B3 [0x00] END_REQSTACK()
```

### Event 78

#### Metadata

| Field        | Value      |
|--------------|------------|
| Entrypoint   | 0x12B4     |
| Data Size    | 4275 bytes |
| Instructions | 511        |

```
      00 01 02 03 04 05 06 07  08 09 0A 0B 0C 0D 0E 0F
      -- -- -- -- -- -- -- --  -- -- -- -- -- -- -- --
12B0:             42 5D 01 80  08 80 1A 64 00 46 01 38      B].....d.F.8
12C0: 09 80 34 6A 80 77 6B 80  6C 80 AB 09 2F 00 4C 90  ..4j.wk.l.../.L.
12D0: 11 01 2F 00 4D 90 11 01  2F 00 4E 90 11 01 2F 00  ../.M.../.N.../.
12E0: 4F 90 11 01 2F 00 50 90  11 01 2F 00 51 90 11 01  O.../.P.../.Q...
12F0: 2F 00 52 90 11 01 2F 00  53 90 11 01 2F 00 39 90  /.R.../.S.../.9.
1300: 11 01 4E 00 4C 90 11 01  4E 00 4D 90 11 01 4E 00  ..N.L...N.M...N.
1310: 4E 90 11 01 4E 00 4F 90  11 01 4E 00 50 90 11 01  N...N.O...N.P...
1320: 4E 00 51 90 11 01 4E 00  52 90 11 01 4E 00 53 90  N.Q...N.R...N.S.
1330: 11 01 4E 00 39 90 11 01  92 01 F0 FF FF 7F 94 01  ..N.9...........
1340: 4C 90 11 01 94 01 4D 90  11 01 94 01 4E 90 11 01  L.....M.....N...
1350: 94 01 4F 90 11 01 94 01  50 90 11 01 94 01 51 90  ..O.....P.....Q.
1360: 11 01 94 01 52 90 11 01  94 01 53 90 11 01 94 01  ....R.....S.....
1370: 39 90 11 01 94 01 F0 FF  FF 7F BA 4C 90 11 01 6D  9..........L...m
1380: 80 6E 80 6F 80 70 80 BA  4D 90 11 01 01 80 01 80  .n.o.p..M.......
1390: 01 80 01 80 BA 4E 90 11  01 71 80 72 80 73 80 74  .....N...q.r.s.t
