# 17928265 - Odyssean Passage

## Common Data

| Field            | Value               |
|------------------|---------------------|
| Zone             | Leafallia (ID: 281) |
| Block Size       | 16624 bytes         |
| Total Events     | 19                  |
| References Count | 325                 |

## List of Events

| Event ID              | Entrypoint   |   Size |   Instructions |
|-----------------------|--------------|--------|----------------|
| [65535](#event-65535) | 0x0000       |      1 |              1 |
| [50](#event-50)       | 0x0001       |   1269 |            183 |
| [51](#event-51)       | 0x04F6       |    767 |            119 |
| [52](#event-52)       | 0x07F5       |    698 |            103 |
| [54](#event-54)       | 0x0AAF       |    113 |             31 |
| [53](#event-53)       | 0x0B20       |    592 |             90 |
| [55](#event-55)       | 0x0D70       |   1921 |            229 |
| [57](#event-57)       | 0x14F1       |    592 |             89 |
| [56](#event-56)       | 0x1741       |   1608 |            201 |
| [59](#event-59)       | 0x1D89       |    632 |             83 |
| [60](#event-60)       | 0x2001       |   1670 |            209 |
| [61](#event-61)       | 0x2687       |   1451 |            177 |
| [58](#event-58)       | 0x2C32       |   1820 |            264 |
| [63](#event-63)       | 0x334E       |   2092 |            272 |
| [77](#event-77)       | 0x3B7A       |      1 |              1 |
| [79](#event-79)       | 0x3B7B       |      1 |              1 |
| [80](#event-80)       | 0x3B7C       |      1 |              1 |
| [81](#event-81)       | 0x3B7D       |      1 |              1 |
| [82](#event-82)       | 0x3B7E       |      1 |              1 |

## DAT References (imed_data)

|   Index | Hex Value   |   Dec Value |
|---------|-------------|-------------|
|       0 | 0x0013      |          19 |
|       1 | 0x0000      |           0 |
|       2 | 0x003C      |          60 |
|       3 | 0x0006      |           6 |
|       4 | 0xFFFF2581  |  4294911361 |
|       5 | 0xFFFF494E  |  4294920526 |
|       6 | 0xFFFC2C02  |  4294716418 |
|       7 | 0x0939      |        2361 |
|       8 | 0xFFFF09DF  |  4294904287 |
|       9 | 0xFFFF5933  |  4294924595 |
|      10 | 0xFFFF1802  |  4294907906 |
|      11 | 0xFFFF5136  |  4294922550 |
|      12 | 0xFFFC2D2E  |  4294716718 |
|      13 | 0x0170      |         368 |
|      14 | 0xFFFF1EAE  |  4294909614 |
|      15 | 0xFFFF5982  |  4294924674 |
|      16 | 0xFFFC2DF6  |  4294716918 |
|      17 | 0x03AE      |         942 |
|      18 | 0xFFFF3858  |  4294916184 |
|      19 | 0xFFFF53E4  |  4294923236 |
|      20 | 0x0745      |        1861 |
|      21 | 0x001E      |          30 |
|      22 | 0x00AC      |         172 |
|      23 | 0x0041      |          65 |
|      24 | 0x003D      |          61 |
|      25 | 0x02DA      |         730 |
|      26 | 0x000F      |          15 |
|      27 | 0x0200      |         512 |
|      28 | 0x0078      |         120 |
|      29 | 0x00B4      |         180 |
|      30 | 0x1E53      |        7763 |
|      31 | 0x1E54      |        7764 |
|      32 | 0x002D      |          45 |
|      33 | 0x1E55      |        7765 |
|      34 | 0x1E56      |        7766 |
|      35 | 0x1E57      |        7767 |
|      36 | 0x1E58      |        7768 |
|      37 | 0x1E59      |        7769 |
|      38 | 0x1E5A      |        7770 |
|      39 | 0x1E5B      |        7771 |
|      40 | 0x1E5C      |        7772 |
|      41 | 0x1E5D      |        7773 |
|      42 | 0x1E5E      |        7774 |
|      43 | 0x1E5F      |        7775 |
|      44 | 0x1E60      |        7776 |
|      45 | 0x1E61      |        7777 |
|      46 | 0x2330      |        9008 |
|      47 | 0x1E62      |        7778 |
|      48 | 0x0016      |          22 |
|      49 | 0x0096      |         150 |
|      50 | 0x1E63      |        7779 |
|      51 | 0x1E64      |        7780 |
|      52 | 0x03E7      |         999 |
|      53 | 0x0048      |          72 |
|      54 | 0x0001      |           1 |
|      55 | 0x00C8      |         200 |
|      56 | 0xFFFF2033  |  4294910003 |
|      57 | 0xFFFF4E95  |  4294921877 |
|      58 | 0x08EA      |        2282 |
|      59 | 0xFFFF1953  |  4294908243 |
|      60 | 0xFFFF572B  |  4294924075 |
|      61 | 0x00C6      |         198 |
|      62 | 0x1E67      |        7783 |
|      63 | 0x1E68      |        7784 |
|      64 | 0x1E69      |        7785 |
|      65 | 0x1E6A      |        7786 |
|      66 | 0x1E6B      |        7787 |
|      67 | 0x1E6C      |        7788 |
|      68 | 0x0002      |           2 |
|      69 | 0x0A51      |        2641 |
|      70 | 0x1E6D      |        7789 |
|      71 | 0x1E6E      |        7790 |
|      72 | 0x1E6F      |        7791 |
|      73 | 0x1E70      |        7792 |
|      74 | 0x1E71      |        7793 |
|      75 | 0x005A      |          90 |
|      76 | 0x1E72      |        7794 |
|      77 | 0x1E73      |        7795 |
|      78 | 0x1E74      |        7796 |
|      79 | 0x1E75      |        7797 |
|      80 | 0x1E7C      |        7804 |
|      81 | 0x1E76      |        7798 |
|      82 | 0x1E77      |        7799 |
|      83 | 0x1E78      |        7800 |
|      84 | 0x1E79      |        7801 |
|      85 | 0x1E7A      |        7802 |
|      86 | 0x1E7B      |        7803 |
|      87 | 0x1E7D      |        7805 |
|      88 | 0x1E7E      |        7806 |
|      89 | 0x1E7F      |        7807 |
|      90 | 0x1E80      |        7808 |
|      91 | 0x1E81      |        7809 |
|      92 | 0x1E82      |        7810 |
|      93 | 0x0139      |         313 |
|      94 | 0x0F0B      |        3851 |
|      95 | 0x010E      |         270 |
|      96 | 0x1E83      |        7811 |
|      97 | 0x1E84      |        7812 |
|      98 | 0x1E85      |        7813 |
|      99 | 0x1E86      |        7814 |
|     100 | 0x1E87      |        7815 |
|     101 | 0x1E88      |        7816 |
|     102 | 0x1E89      |        7817 |
|     103 | 0x1E8A      |        7818 |
|     104 | 0x1E8B      |        7819 |
|     105 | 0x00AA      |         170 |
|     106 | 0x1E8C      |        7820 |
|     107 | 0x1E8D      |        7821 |
|     108 | 0x1E8E      |        7822 |
|     109 | 0x0015      |          21 |
|     110 | 0x1E8F      |        7823 |
|     111 | 0x1E90      |        7824 |
|     112 | 0x1E91      |        7825 |
|     113 | 0x1E92      |        7826 |
|     114 | 0x1E93      |        7827 |
|     115 | 0x1E94      |        7828 |
|     116 | 0x1E95      |        7829 |
|     117 | 0x1EA6      |        7846 |
|     118 | 0x1EA7      |        7847 |
|     119 | 0x0B07      |        2823 |
|     120 | 0x1E96      |        7830 |
|     121 | 0x1E97      |        7831 |
|     122 | 0x1E98      |        7832 |
|     123 | 0x1E99      |        7833 |
|     124 | 0x1E9A      |        7834 |
|     125 | 0x1E9B      |        7835 |
|     126 | 0x1E9C      |        7836 |
|     127 | 0x1E9D      |        7837 |
|     128 | 0x1E9E      |        7838 |
|     129 | 0x1E9F      |        7839 |
|     130 | 0x1EA0      |        7840 |
|     131 | 0x1EA1      |        7841 |
|     132 | 0x1EA2      |        7842 |
|     133 | 0x1EA3      |        7843 |
|     134 | 0x1EA4      |        7844 |
|     135 | 0x1EA5      |        7845 |
|     136 | 0x1EA8      |        7848 |
|     137 | 0x1EA9      |        7849 |
|     138 | 0x1EAA      |        7850 |
|     139 | 0x1EAB      |        7851 |
|     140 | 0x1EAC      |        7852 |
|     141 | 0x1EAD      |        7853 |
|     142 | 0x0005      |           5 |
|     143 | 0x1EAE      |        7854 |
|     144 | 0x1EAF      |        7855 |
|     145 | 0x1EB0      |        7856 |
|     146 | 0x1EB1      |        7857 |
|     147 | 0x1EB2      |        7858 |
|     148 | 0x1EB3      |        7859 |
|     149 | 0x1EB4      |        7860 |
|     150 | 0x1EB5      |        7861 |
|     151 | 0x002C      |          44 |
|     152 | 0x1EB6      |        7862 |
|     153 | 0x1EB7      |        7863 |
|     154 | 0x1EB8      |        7864 |
|     155 | 0x0090      |         144 |
|     156 | 0x1EB9      |        7865 |
|     157 | 0x1EBA      |        7866 |
|     158 | 0x1EBB      |        7867 |
|     159 | 0x1EBC      |        7868 |
|     160 | 0x1EBD      |        7869 |
|     161 | 0x1EBE      |        7870 |
|     162 | 0x1EBF      |        7871 |
|     163 | 0x1EC0      |        7872 |
|     164 | 0x1EC1      |        7873 |
|     165 | 0x1CC4      |        7364 |
|     166 | 0x1EC2      |        7874 |
|     167 | 0x1EC3      |        7875 |
|     168 | 0x1EC4      |        7876 |
|     169 | 0x1EC5      |        7877 |
|     170 | 0x1EC6      |        7878 |
|     171 | 0x1EC7      |        7879 |
|     172 | 0x1EC8      |        7880 |
|     173 | 0x0B08      |        2824 |
|     174 | 0x1EC9      |        7881 |
|     175 | 0x1ECA      |        7882 |
|     176 | 0x0007      |           7 |
|     177 | 0x1ECB      |        7883 |
|     178 | 0x0B05      |        2821 |
|     179 | 0x1ECC      |        7884 |
|     180 | 0x1ECD      |        7885 |
|     181 | 0x1ECE      |        7886 |
|     182 | 0x1ECF      |        7887 |
|     183 | 0x1ED0      |        7888 |
|     184 | 0x1ED1      |        7889 |
|     185 | 0x1ED2      |        7890 |
|     186 | 0x1ED3      |        7891 |
|     187 | 0x1ED4      |        7892 |
|     188 | 0x1ED5      |        7893 |
|     189 | 0x1ED6      |        7894 |
|     190 | 0x1ED7      |        7895 |
|     191 | 0x1ED8      |        7896 |
|     192 | 0x1ED9      |        7897 |
|     193 | 0x1EDA      |        7898 |
|     194 | 0x092E      |        2350 |
|     195 | 0x1EDB      |        7899 |
|     196 | 0x1EDC      |        7900 |
|     197 | 0x1EDD      |        7901 |
|     198 | 0x1EDE      |        7902 |
|     199 | 0x1EDF      |        7903 |
|     200 | 0x1EE0      |        7904 |
|     201 | 0x1EE1      |        7905 |
|     202 | 0x1EE2      |        7906 |
|     203 | 0x1EE3      |        7907 |
|     204 | 0x1EE4      |        7908 |
|     205 | 0x1EE5      |        7909 |
|     206 | 0x1EE6      |        7910 |
|     207 | 0x1EE7      |        7911 |
|     208 | 0x1EE8      |        7912 |
|     209 | 0x1EE9      |        7913 |
|     210 | 0x1EEA      |        7914 |
|     211 | 0x1EEB      |        7915 |
|     212 | 0x1EEC      |        7916 |
|     213 | 0x1EED      |        7917 |
|     214 | 0x1EEE      |        7918 |
|     215 | 0x1EEF      |        7919 |
|     216 | 0x1EF0      |        7920 |
|     217 | 0x1EF1      |        7921 |
|     218 | 0x1EF2      |        7922 |
|     219 | 0x1EF3      |        7923 |
|     220 | 0x1EF4      |        7924 |
|     221 | 0x1EF5      |        7925 |
|     222 | 0x1EF6      |        7926 |
|     223 | 0x1EF7      |        7927 |
|     224 | 0x1EF8      |        7928 |
|     225 | 0x1EF9      |        7929 |
|     226 | 0x1EFA      |        7930 |
|     227 | 0x1EFB      |        7931 |
|     228 | 0x1EFC      |        7932 |
|     229 | 0x1EFD      |        7933 |
|     230 | 0x1EFE      |        7934 |
|     231 | 0x1EFF      |        7935 |
|     232 | 0x0004      |           4 |
|     233 | 0x0008      |           8 |
|     234 | 0x0010      |          16 |
|     235 | 0x0B06      |        2822 |
|     236 | 0x1F00      |        7936 |
|     237 | 0x1F01      |        7937 |
|     238 | 0x1F02      |        7938 |
|     239 | 0x0003      |           3 |
|     240 | 0x1F03      |        7939 |
|     241 | 0x1F04      |        7940 |
|     242 | 0x1F05      |        7941 |
|     243 | 0x1F06      |        7942 |
|     244 | 0x1F07      |        7943 |
|     245 | 0x1F0D      |        7949 |
|     246 | 0x1F0E      |        7950 |
|     247 | 0x1F08      |        7944 |
|     248 | 0x1F09      |        7945 |
|     249 | 0x1F0A      |        7946 |
|     250 | 0x1F0B      |        7947 |
|     251 | 0x1F0C      |        7948 |
|     252 | 0x1F0F      |        7951 |
|     253 | 0x1F10      |        7952 |
|     254 | 0x1F11      |        7953 |
|     255 | 0x1F12      |        7954 |
|     256 | 0x1F13      |        7955 |
|     257 | 0x498A      |       18826 |
|     258 | 0x507D      |       20605 |
|     259 | 0x5082      |       20610 |
|     260 | 0x50EB      |       20715 |
|     261 | 0x5114      |       20756 |
|     262 | 0x5177      |       20855 |
|     263 | 0x51A4      |       20900 |
|     264 | 0x51FA      |       20986 |
|     265 | 0x52A9      |       21161 |
|     266 | 0x0009      |           9 |
|     267 | 0x52E5      |       21221 |
|     268 | 0x000A      |          10 |
|     269 | 0x5361      |       21345 |
|     270 | 0x000B      |          11 |
|     271 | 0x6861      |       26721 |
|     272 | 0x000C      |          12 |
|     273 | 0x68A6      |       26790 |
|     274 | 0x000D      |          13 |
|     275 | 0x68FA      |       26874 |
|     276 | 0x000E      |          14 |
|     277 | 0x6941      |       26945 |
|     278 | 0x69A4      |       27044 |
|     279 | 0x69D8      |       27096 |
|     280 | 0x0011      |          17 |
|     281 | 0x6A54      |       27220 |
|     282 | 0x0012      |          18 |
|     283 | 0x6A55      |       27221 |
|     284 | 0x6A56      |       27222 |
|     285 | 0x0014      |          20 |
|     286 | 0x6A57      |       27223 |
|     287 | 0x6B72      |       27506 |
|     288 | 0x6B73      |       27507 |
|     289 | 0x0017      |          23 |
|     290 | 0x6BC8      |       27592 |
|     291 | 0x0018      |          24 |
|     292 | 0x6EA3      |       28323 |
|     293 | 0x0019      |          25 |
|     294 | 0x6F02      |       28418 |
|     295 | 0x001A      |          26 |
|     296 | 0x6F05      |       28421 |
|     297 | 0x001B      |          27 |
|     298 | 0x6F06      |       28422 |
|     299 | 0x001C      |          28 |
|     300 | 0x6F3E      |       28478 |
|     301 | 0x001D      |          29 |
|     302 | 0x6F3F      |       28479 |
|     303 | 0x6F43      |       28483 |
|     304 | 0x001F      |          31 |
|     305 | 0x1F14      |        7956 |
|     306 | 0x1F15      |        7957 |
|     307 | 0x1F16      |        7958 |
|     308 | 0x1F17      |        7959 |
|     309 | 0x232A      |        9002 |
|     310 | 0x232B      |        9003 |
|     311 | 0x232C      |        9004 |
|     312 | 0x232D      |        9005 |
|     313 | 0x232E      |        9006 |
|     314 | 0x232F      |        9007 |
|     315 | 0x2365      |        9061 |
|     316 | 0x2366      |        9062 |
|     317 | 0x2367      |        9063 |
|     318 | 0x2368      |        9064 |
|     319 | 0x18DF      |        6367 |
|     320 | 0xFFFFF000  |  4294963200 |
|     321 | 0x1F18      |        7960 |
|     322 | 0x1F19      |        7961 |
|     323 | 0x00C9      |         201 |
|     324 | 0x00D7      |         215 |

## String References

- **7364**: @@
- **7804**: A raspy voice reverberates within your mind.
- **7805**: Silence descends once more.
- **7853**: Why are you here today? [It scares me. Take it back./I want to hear more./No real reason.]
- **7861**: Return $3? [Yep, who needs it?/No, it might prove useful.]
- **7882**: How do you respond? [Actually, I do want to return it./I want to know more./Heavens forbid!]
- **7936**: What do you require? [I want $6./I want $6./Return $6./Return $6./Hand over $6./Nothing for now.]
- **7955**: What would you like? [Nothing./Equipment./Materials./Whatever the master deems worthy.]
- **7958**: Is that correct? [Of course./Hold on.]

## Events

### Event 65535

#### Metadata

| Field        | Value   |
|--------------|---------|
| Entrypoint   | 0x0000  |
| Data Size    | 1 bytes |
| Instructions | 1       |

```
      00 01 02 03 04 05 06 07  08 09 0A 0B 0C 0D 0E 0F
      -- -- -- -- -- -- -- --  -- -- -- -- -- -- -- --
0000: 00                                                .               
```

#### Opcodes

```
  0: 0x0000 [0x00] END_REQSTACK()
```

### Event 50

#### Metadata

| Field        | Value      |
|--------------|------------|
| Entrypoint   | 0x0001     |
| Data Size    | 1269 bytes |
| Instructions | 183        |

```
      00 01 02 03 04 05 06 07  08 09 0A 0B 0C 0D 0E 0F
      -- -- -- -- -- -- -- --  -- -- -- -- -- -- -- --
0000:    42 1A 4C 39 46 01 38  00 80 4E 00 F0 FF FF 7F   B.L9F.8..N.....
0010: AB 09 5D 01 80 02 80 6A  01 80 02 80 03 80 4E 00  ..]....j......N.
0020: 39 90 11 01 27 10 25 90  11 01 04 92 01 25 90 11  9...'.%......%..
0030: 01 92 01 26 90 11 01 92  01 27 90 11 01 94 01 F0  ...&.....'......
0040: FF FF 7F 94 01 25 90 11  01 94 01 26 90 11 01 94  .....%.....&....
0050: 01 27 90 11 01 94 01 39  90 11 01 59 05 F0 FF FF  .'.....9...Y....
0060: 7F 01 59 05 25 90 11 01  01 59 05 26 90 11 01 01  ..Y.%....Y.&....
0070: 59 05 27 90 11 01 01 59  05 39 90 11 01 01 BA F0  Y.'....Y.9......
0080: FF FF 7F 04 80 05 80 06  80 07 80 BA 25 90 11 01  ............%...
0090: 08 80 09 80 06 80 07 80  BA 26 90 11 01 0A 80 0B  .........&......
00A0: 80 0C 80 0D 80 BA 27 90  11 01 0E 80 0F 80 10 80  ......'.........
00B0: 11 80 BA 39 90 11 01 12  80 13 80 06 80 14 80 29  ...9...........)
00C0: 10 25 90 11 01 1A 29 10  26 90 11 01 19 29 10 27  .%....).&....).'
00D0: 90 11 01 17 80 F0 FF FF  7F 80 25 90 11 01 80 26  ..........%....&
00E0: 90 11 01 80 27 90 11 01  80 39 90 11 01 1C 15 80  ....'....9......
00F0: 29 10 26 90 11 01 1A 29  10 27 90 11 01 18 27 10  ).&....).'....'.
0100: 26 90 11 01 02 27 10 27  90 11 01 02 29 10 F0 FF  &....'.'....)...
0110: FF 7F 02 C5 16 80 39 90  11 01 39 90 11 01 73 30  ......9...9...s0
0120: 30 30 01 80 C5 17 80 25  90 11 01 25 90 11 01 7A  00.....%...%...z
0130: 7A 6F 6E 01 80 4A 26 90  11 01 F0 FF FF 7F 4A 27  zon..J&.......J'
0140: 90 11 01 F0 FF FF 7F 7B  26 90 11 01 7B 27 90 11  .......{&...{'..
0150: 01 5C 00 18 80 5C 01 18  80 9A 45 19 80 F8 FF FF  .\...\....E.....
0160: 7F F8 FF FF 7F 62 61 30  31 01 80 1A 2B 39 1C 02  .....ba01...+9..
0170: 80 29 10 F0 FF FF 7F 03  1C 1A 80 52 19 80 F8 FF  .).........R....
0180: FF 7F F8 FF FF 7F 62 61  30 31 45 19 80 F8 FF FF  ......ba01E.....
0190: 7F F8 FF FF 7F 62 61 30  32 01 80 1C 1A 80 79 02  .....ba02.....y.
01A0: F0 FF FF 7F 1B 80 01 80  1C 1C 80 52 19 80 F8 FF  ...........R....
01B0: FF 7F F8 FF FF 7F 62 61  30 32 45 19 80 F8 FF FF  ......ba02E.....
01C0: 7F F8 FF FF 7F 62 61 30  33 01 80 1C 15 80 7B F0  .....ba03.....{.
01D0: FF FF 7F 1C 1D 80 27 10  F0 FF FF 7F 1C 1C 15 80  ......'.........
01E0: 52 19 80 F8 FF FF 7F F8  FF FF 7F 62 61 30 33 45  R..........ba03E
01F0: 19 80 F8 FF FF 7F F8 FF  FF 7F 62 61 30 34 01 80  ..........ba04..
0200: 27 10 39 90 11 01 07 7A  00 F0 FF FF 7F 1C 15 80  '.9....z........
0210: 2B 26 90 11 01 1E 80 1C  02 80 23 52 19 80 F8 FF  +&........#R....
0220: FF 7F F8 FF FF 7F 62 61  30 34 45 19 80 F8 FF FF  ......ba04E.....
0230: 7F F8 FF FF 7F 62 61 30  35 01 80 27 10 39 90 11  .....ba05..'.9..
0240: 01 0A 1C 15 80 79 00 F0  FF FF 7F 27 90 11 01 2B  .....y.....'...+
0250: 27 90 11 01 1F 80 1C 1C  80 23 4A 26 90 11 01 27  '........#J&...'
0260: 90 11 01 1C 20 80 2B 26  90 11 01 21 80 23 1C 1A  .... .+&...!.#..
0270: 80 79 00 F0 FF FF 7F 26  90 11 01 1C 20 80 23 52  .y.....&.... .#R
0280: 19 80 F8 FF FF 7F F8 FF  FF 7F 62 61 30 35 45 19  ..........ba05E.
0290: 80 F8 FF FF 7F F8 FF FF  7F 62 61 30 36 01 80 29  .........ba06..)
02A0: 10 27 90 11 01 19 2B 27  90 11 01 22 80 23 29 10  .'....+'...".#).
02B0: 26 90 11 01 1B 2B 26 90  11 01 23 80 23 4A 27 90  &....+&...#.#J'.
02C0: 11 01 26 90 11 01 1C 15  80 2B 27 90 11 01 24 80  ..&......+'...$.
02D0: 23 52 19 80 F8 FF FF 7F  F8 FF FF 7F 62 61 30 36  #R..........ba06
02E0: 45 19 80 F8 FF FF 7F F8  FF FF 7F 62 61 30 37 01  E..........ba07.
02F0: 80 1C 15 80 2B 26 90 11  01 25 80 23 52 19 80 F8  ....+&...%.#R...
0300: FF FF 7F F8 FF FF 7F 62  61 30 37 45 19 80 F8 FF  .......ba07E....
0310: FF 7F F8 FF FF 7F 62 61  30 38 01 80 1C 15 80 2B  ......ba08.....+
0320: 27 90 11 01 26 80 23 2B  26 90 11 01 27 80 23 2B  '...&.#+&...'.#+
0330: 27 90 11 01 28 80 23 4A  26 90 11 01 F0 FF FF 7F  '...(.#J&.......
0340: 52 19 80 F8 FF FF 7F F8  FF FF 7F 62 61 30 38 45  R..........ba08E
0350: 19 80 F8 FF FF 7F F8 FF  FF 7F 62 61 30 39 01 80  ..........ba09..
0360: 6F 76 26 90 11 01 2B 26  90 11 01 29 80 1C 1C 80  ov&...+&...)....
0370: 23 4A 27 90 11 01 F0 FF  FF 7F 52 19 80 F8 FF FF  #J'.......R.....
0380: 7F F8 FF FF 7F 62 61 30  39 45 19 80 F8 FF FF 7F  .....ba09E......
0390: F8 FF FF 7F 62 61 31 31  01 80 6F 76 27 90 11 01  ....ba11..ov'...
03A0: 2B 27 90 11 01 2A 80 23  2B 26 90 11 01 2B 80 23  +'...*.#+&...+.#
03B0: 52 19 80 F8 FF FF 7F F8  FF FF 7F 62 61 31 31 45  R..........ba11E
03C0: 19 80 F8 FF FF 7F F8 FF  FF 7F 62 61 31 30 01 80  ..........ba10..
03D0: 2B 27 90 11 01 2C 80 23  2B 26 90 11 01 2D 80 23  +'...,.#+&...-.#
03E0: 52 19 80 F8 FF FF 7F F8  FF FF 7F 62 61 31 30 45  R..........ba10E
03F0: 19 80 F8 FF FF 7F F8 FF  FF 7F 62 61 31 32 01 80  ..........ba12..
0400: 03 02 10 2E 80 2B 27 90  11 01 2F 80 1C 1A 80 79  .....+'.../....y
0410: 00 F0 FF FF 7F 27 90 11  01 1C 20 80 23 6E F0 FF  .....'.... .#n..
0420: FF 7F 30 80 99 F0 FF FF  7F 1C 31 80 2B 27 90 11  ..0.......1.+'..
0430: 01 32 80 23 52 19 80 F8  FF FF 7F F8 FF FF 7F 62  .2.#R..........b
0440: 61 31 32 45 19 80 F8 FF  FF 7F F8 FF FF 7F 62 61  a12E..........ba
0450: 31 33 01 80 2B 26 90 11  01 33 80 23 5D 01 80 1C  13..+&...3.#]...
0460: 80 1A 8E 39 1C 15 80 52  19 80 F8 FF FF 7F F8 FF  ...9...R........
0470: FF 7F 62 61 31 33 45 19  80 F8 FF FF 7F F8 FF FF  ..ba13E.........
0480: 7F 30 62 6C 66 01 80 1A  4C 39 1A 6D 39 C5 16 80  .0blf...L9.m9...
0490: 39 90 11 01 39 90 11 01  6B 69 6C 30 01 80 C5 17  9...9...kil0....
04A0: 80 25 90 11 01 25 90 11  01 6B 69 6C 6C 01 80 27  .%...%...kill..'
04B0: 05 25 90 11 01 0C 27 05  26 90 11 01 0C 27 05 27  .%....'.&....'.'
04C0: 90 11 01 0C 78 6A 34 80  02 80 03 80 5C 00 35 80  ....xj4.....\.5.
04D0: 5C 01 35 80 9A 1C 1A 80  AB 11 01 80 1C 36 80 AB  \.5..........6..
04E0: 0A 46 00 45 37 80 F0 FF  FF 7F F0 FF FF 7F 66 64  .F.E7.........fd
04F0: 69 32 01 80 21 00                                 i2..!.          
```

#### Opcodes

```
  0: 0x0001 [0x42] SET_CLI_EVENT_CANCEL_DATA()
  1: 0x0002 [0x1A] CALL_SUBROUTINE(address=0x394C)
  2: 0x0005 [0x46] CAMERA_CONTROL: Disable user control
  3: 0x0007 [0x38] SET_CLIENT_EVENT_MODE(mode=19*)
  4: 0x000A [0x4E] SET_ENTITY_HIDE_FLAG: Show LocalPlayer
  5: 0x0010 [0xAB] EventEntity->UnknownFlag = 1 // Enable unknown flag
  6: 0x0012 [0x5D] SET_MUSIC_VOLUME(volume=0*, fade_time=60*)
  7: 0x0017 [0x6A] CHANGE_SOUND_VOLUME: Set (System/Zone)* volume to 0*, fade_time=60*
  8: 0x001E [0x4E] SET_ENTITY_HIDE_FLAG: Show Unnamed NPC (ID: 17928249/0x01119039)
  9: 0x0024 [0x27] REQ_SET(priority=0x10, entity_id=Unnamed NPC (ID: 17928229/0x01119025), tag_num=0x04)
 10: 0x002B [0x92] Unnamed NPC (ID: 17928229/0x01119025)->Render.Flags3 ^= 0x01
 11: 0x0031 [0x92] Unnamed NPC (ID: 17928230/0x01119026)->Render.Flags3 ^= 0x01
 12: 0x0037 [0x92] Unnamed NPC (ID: 17928231/0x01119027)->Render.Flags3 ^= 0x01
 13: 0x003D [0x94] LocalPlayer->Render.Flags3 ^= 0x01
 14: 0x0043 [0x94] Unnamed NPC (ID: 17928229/0x01119025)->Render.Flags3 ^= 0x01
 15: 0x0049 [0x94] Unnamed NPC (ID: 17928230/0x01119026)->Render.Flags3 ^= 0x01
 16: 0x004F [0x94] Unnamed NPC (ID: 17928231/0x01119027)->Render.Flags3 ^= 0x01
 17: 0x0055 [0x94] Unnamed NPC (ID: 17928249/0x01119039)->Render.Flags3 ^= 0x01
 18: 0x005B [0x59] UPDATE_ENTITY_DATA: LocalPlayer->Render.Flags0 |= 0x200000
 19: 0x0062 [0x59] UPDATE_ENTITY_DATA: Unnamed NPC (ID: 17928229/0x01119025)->Render.Flags0 |= 0x200000
 20: 0x0069 [0x59] UPDATE_ENTITY_DATA: Unnamed NPC (ID: 17928230/0x01119026)->Render.Flags0 |= 0x200000
 21: 0x0070 [0x59] UPDATE_ENTITY_DATA: Unnamed NPC (ID: 17928231/0x01119027)->Render.Flags0 |= 0x200000
 22: 0x0077 [0x59] UPDATE_ENTITY_DATA: Unnamed NPC (ID: 17928249/0x01119039)->Render.Flags0 |= 0x200000
 23: 0x007E [0xBA] SET_ENTITY_POSITION(entity_id=LocalPlayer, pos_x=-55.935*, pos_z=-46.770*, pos_y=-250.878*, direction=207.5°*)
 24: 0x008B [0xBA] SET_ENTITY_POSITION(entity_id=Unnamed NPC (ID: 17928229/0x01119025), pos_x=-63.009*, pos_z=-42.701*, pos_y=-250.878*, direction=207.5°*)
 25: 0x0098 [0xBA] SET_ENTITY_POSITION(entity_id=Unnamed NPC (ID: 17928230/0x01119026), pos_x=-59.390*, pos_z=-44.746*, pos_y=-250.578*, direction=32.3°*)
 26: 0x00A5 [0xBA] SET_ENTITY_POSITION(entity_id=Unnamed NPC (ID: 17928231/0x01119027), pos_x=-57.682*, pos_z=-42.622*, pos_y=-250.378*, direction=82.8°*)
 27: 0x00B2 [0xBA] SET_ENTITY_POSITION(entity_id=Unnamed NPC (ID: 17928249/0x01119039), pos_x=-51.112*, pos_z=-44.060*, pos_y=-250.878*, direction=163.6°*)
 28: 0x00BF [0x29] REQ_SET_WAIT(priority=0x10, entity_id=Unnamed NPC (ID: 17928229/0x01119025), tag_num=0x1A)
 29: 0x00C6 [0x29] REQ_SET_WAIT(priority=0x10, entity_id=Unnamed NPC (ID: 17928230/0x01119026), tag_num=0x19)
 30: 0x00CD [0x29] REQ_SET_WAIT(priority=0x10, entity_id=Unnamed NPC (ID: 17928231/0x01119027), tag_num=0x17)
 31: 0x00D4 [0x80] LOAD_WAIT(entity=LocalPlayer)
 32: 0x00D9 [0x80] LOAD_WAIT(entity=Unnamed NPC (ID: 17928229/0x01119025))
 33: 0x00DE [0x80] LOAD_WAIT(entity=Unnamed NPC (ID: 17928230/0x01119026))
 34: 0x00E3 [0x80] LOAD_WAIT(entity=Unnamed NPC (ID: 17928231/0x01119027))
 35: 0x00E8 [0x80] LOAD_WAIT(entity=Unnamed NPC (ID: 17928249/0x01119039))
 36: 0x00ED [0x1C] WAIT(30* ticks)
 37: 0x00F0 [0x29] REQ_SET_WAIT(priority=0x10, entity_id=Unnamed NPC (ID: 17928230/0x01119026), tag_num=0x1A)
 38: 0x00F7 [0x29] REQ_SET_WAIT(priority=0x10, entity_id=Unnamed NPC (ID: 17928231/0x01119027), tag_num=0x18)
 39: 0x00FE [0x27] REQ_SET(priority=0x10, entity_id=Unnamed NPC (ID: 17928230/0x01119026), tag_num=0x02)
 40: 0x0105 [0x27] REQ_SET(priority=0x10, entity_id=Unnamed NPC (ID: 17928231/0x01119027), tag_num=0x02)
 41: 0x010C [0x29] REQ_SET_WAIT(priority=0x10, entity_id=LocalPlayer, tag_num=0x02)
 42: 0x0113 [0xC5] LOAD_SCHEDULED_TASK_ALT3: Load scheduler 0x80013030 for entities [Unnamed NPC (ID: 17928249/0x01119039), Unnamed NPC (ID: 17928249/0x01119039)], work=172*, param=12403
 43: 0x0124 [0xC5] LOAD_SCHEDULED_TASK_ALT3: Load scheduler 0x80016E6F for entities [Unnamed NPC (ID: 17928229/0x01119025), Unnamed NPC (ID: 17928229/0x01119025)], work=65*, param=31354
 44: 0x0135 [0x4A] Unnamed NPC (ID: 17928230/0x01119026) looks at LocalPlayer
 45: 0x013E [0x4A] Unnamed NPC (ID: 17928231/0x01119027) looks at LocalPlayer
 46: 0x0147 [0x7B] Unnamed NPC (ID: 17928230/0x01119026) stops talking
 47: 0x014C [0x7B] Unnamed NPC (ID: 17928231/0x01119027) stops talking
 48: 0x0151 [0x5C] MUSIC_CONTROL: Set Idle (Day) music to song 61*
 49: 0x0155 [0x5C] MUSIC_CONTROL: Set Idle (Night) music to song 61*
 50: 0x0159 [0x9A] WAIT_MUSIC_SERVER()
 51: 0x015A [0x45] LOAD_SCHEDULED_TASK: Load scheduler "ba01" with entities [EventEntity, EventEntity], work=[730*, 0*]
 52: 0x016B [0x1A] CALL_SUBROUTINE(address=0x392B)
 53: 0x016E [0x1C] WAIT(60* ticks)
 54: 0x0171 [0x29] REQ_SET_WAIT(priority=0x10, entity_id=LocalPlayer, tag_num=0x03)
 55: 0x0178 [0x1C] WAIT(15* ticks)
 56: 0x017B [0x52] END_LOAD_SCHEDULER: End scheduler "ba01" with entities [EventEntity, EventEntity], work=730*
 57: 0x018A [0x45] LOAD_SCHEDULED_TASK: Load scheduler "ba02" with entities [EventEntity, EventEntity], work=[730*, 0*]
 58: 0x019B [0x1C] WAIT(15* ticks)
 59: 0x019E [0x79] LocalPlayer looks at Unknown NPC (ID: 2147581979/0x8001801B) (Direct axis set)
 60: 0x01A8 [0x1C] WAIT(120* ticks)
 61: 0x01AB [0x52] END_LOAD_SCHEDULER: End scheduler "ba02" with entities [EventEntity, EventEntity], work=730*
 62: 0x01BA [0x45] LOAD_SCHEDULED_TASK: Load scheduler "ba03" with entities [EventEntity, EventEntity], work=[730*, 0*]
 63: 0x01CB [0x1C] WAIT(30* ticks)
 64: 0x01CE [0x7B] LocalPlayer stops talking
 65: 0x01D3 [0x1C] WAIT(180* ticks)
 66: 0x01D6 [0x27] REQ_SET(priority=0x10, entity_id=LocalPlayer, tag_num=0x1C)
 67: 0x01DD [0x1C] WAIT(30* ticks)
 68: 0x01E0 [0x52] END_LOAD_SCHEDULER: End scheduler "ba03" with entities [EventEntity, EventEntity], work=730*
 69: 0x01EF [0x45] LOAD_SCHEDULED_TASK: Load scheduler "ba04" with entities [EventEntity, EventEntity], work=[730*, 0*]
 70: 0x0200 [0x27] REQ_SET(priority=0x10, entity_id=Unnamed NPC (ID: 17928249/0x01119039), tag_num=0x07)
 71: 0x0207 [0x7A] VM_CONTROL: Reset VM for LocalPlayer
 72: 0x020D [0x1C] WAIT(30* ticks)
 73: 0x0210 [0x2B] Unnamed NPC (ID: 17928230/0x01119026) [7763*]:
    → "Ahhhhhhhhh... How strange, having a visitor to our humble abode. Surprising, strange, and difficult to believe."
 74: 0x0217 [0x1C] WAIT(60* ticks)
 75: 0x021A [0x23] WAIT_FOR_DIALOG_INTERACTION
 76: 0x021B [0x52] END_LOAD_SCHEDULER: End scheduler "ba04" with entities [EventEntity, EventEntity], work=730*
 77: 0x022A [0x45] LOAD_SCHEDULED_TASK: Load scheduler "ba05" with entities [EventEntity, EventEntity], work=[730*, 0*]
 78: 0x023B [0x27] REQ_SET(priority=0x10, entity_id=Unnamed NPC (ID: 17928249/0x01119039), tag_num=0x0A)
 79: 0x0242 [0x1C] WAIT(30* ticks)
 80: 0x0245 [0x79] LocalPlayer looks at Unnamed NPC (ID: 17928231/0x01119027) (Basic look)
 81: 0x024F [0x2B] Unnamed NPC (ID: 17928231/0x01119027) [7764*]:
    → "Surprising! Surprising indeed! Our master isn't present right now, so leave!"
 82: 0x0256 [0x1C] WAIT(120* ticks)
 83: 0x0259 [0x23] WAIT_FOR_DIALOG_INTERACTION
 84: 0x025A [0x4A] Unnamed NPC (ID: 17928230/0x01119026) looks at Unnamed NPC (ID: 17928231/0x01119027)
 85: 0x0263 [0x1C] WAIT(45* ticks)
 86: 0x0266 [0x2B] Unnamed NPC (ID: 17928230/0x01119026) [7765*]:
    → "...No. How could it come to pass that one could find this secluded place? It's utterly sealed off, separated, and removed from the world."
 87: 0x026D [0x23] WAIT_FOR_DIALOG_INTERACTION
 88: 0x026E [0x1C] WAIT(15* ticks)
 89: 0x0271 [0x79] LocalPlayer looks at Unnamed NPC (ID: 17928230/0x01119026) (Basic look)
 90: 0x027B [0x1C] WAIT(45* ticks)
 91: 0x027E [0x23] WAIT_FOR_DIALOG_INTERACTION
 92: 0x027F [0x52] END_LOAD_SCHEDULER: End scheduler "ba05" with entities [EventEntity, EventEntity], work=730*
 93: 0x028E [0x45] LOAD_SCHEDULED_TASK: Load scheduler "ba06" with entities [EventEntity, EventEntity], work=[730*, 0*]
 94: 0x029F [0x29] REQ_SET_WAIT(priority=0x10, entity_id=Unnamed NPC (ID: 17928231/0x01119027), tag_num=0x19)
 95: 0x02A6 [0x2B] Unnamed NPC (ID: 17928231/0x01119027) [7766*]:
    → "Yes, yes! Separated! But if [he/she] is here, that only means our master willed it!"
 96: 0x02AD [0x23] WAIT_FOR_DIALOG_INTERACTION
 97: 0x02AE [0x29] REQ_SET_WAIT(priority=0x10, entity_id=Unnamed NPC (ID: 17928230/0x01119026), tag_num=0x1B)
 98: 0x02B5 [0x2B] Unnamed NPC (ID: 17928230/0x01119026) [7767*]:
    → "Hmmmmmmmmm... If our research, studies, and investigations have taken a backseat for now, then perhaps we can discuss that special thing..."
 99: 0x02BC [0x23] WAIT_FOR_DIALOG_INTERACTION
100: 0x02BD [0x4A] Unnamed NPC (ID: 17928231/0x01119027) looks at Unnamed NPC (ID: 17928230/0x01119026)
101: 0x02C6 [0x1C] WAIT(30* ticks)
102: 0x02C9 [0x2B] Unnamed NPC (ID: 17928231/0x01119027) [7768*]:
    → "Oho, quite special! An adventurer is the perfect guinea pig!"
103: 0x02D0 [0x23] WAIT_FOR_DIALOG_INTERACTION
104: 0x02D1 [0x52] END_LOAD_SCHEDULER: End scheduler "ba06" with entities [EventEntity, EventEntity], work=730*
105: 0x02E0 [0x45] LOAD_SCHEDULED_TASK: Load scheduler "ba07" with entities [EventEntity, EventEntity], work=[730*, 0*]
106: 0x02F1 [0x1C] WAIT(30* ticks)
107: 0x02F4 [0x2B] Unnamed NPC (ID: 17928230/0x01119026) [7769*]:
    → "Then we have but one simple, easy, and altogether elementary task to do."
108: 0x02FB [0x23] WAIT_FOR_DIALOG_INTERACTION
109: 0x02FC [0x52] END_LOAD_SCHEDULER: End scheduler "ba07" with entities [EventEntity, EventEntity], work=730*
110: 0x030B [0x45] LOAD_SCHEDULED_TASK: Load scheduler "ba08" with entities [EventEntity, EventEntity], work=[730*, 0*]
111: 0x031C [0x1C] WAIT(30* ticks)
112: 0x031F [0x2B] Unnamed NPC (ID: 17928231/0x01119027) [7770*]:
    → "A straightforward task, yes! Carry out the master's will!"
113: 0x0326 [0x23] WAIT_FOR_DIALOG_INTERACTION
114: 0x0327 [0x2B] Unnamed NPC (ID: 17928230/0x01119026) [7771*]:
    → "And if we're wrong, we just seal off, shelter, and bar the doors to the place forever."
115: 0x032E [0x23] WAIT_FOR_DIALOG_INTERACTION
116: 0x032F [0x2B] Unnamed NPC (ID: 17928231/0x01119027) [7772*]:
    → "Close off! Understood!"
117: 0x0336 [0x23] WAIT_FOR_DIALOG_INTERACTION
118: 0x0337 [0x4A] Unnamed NPC (ID: 17928230/0x01119026) looks at LocalPlayer
119: 0x0340 [0x52] END_LOAD_SCHEDULER: End scheduler "ba08" with entities [EventEntity, EventEntity], work=730*
120: 0x034F [0x45] LOAD_SCHEDULED_TASK: Load scheduler "ba09" with entities [EventEntity, EventEntity], work=[730*, 0*]
121: 0x0360 [0x6F] WAIT_FRAME_DELAY: Yield until WaitTime reaches zero
122: 0x0361 [0x76] CHECK_ENTITY_RENDER_FLAGS: Wait until Unnamed NPC (ID: 17928230/0x01119026) Render.Flags0 and Render.Flags3 conditions are met
123: 0x0366 [0x2B] Unnamed NPC (ID: 17928230/0x01119026) [7773*]:
    → "Listen well, most esteemed guest. Our master has unlocked new possibilities for spirits, souls, and consciousnesses."
124: 0x036D [0x1C] WAIT(120* ticks)
125: 0x0370 [0x23] WAIT_FOR_DIALOG_INTERACTION
126: 0x0371 [0x4A] Unnamed NPC (ID: 17928231/0x01119027) looks at LocalPlayer
127: 0x037A [0x52] END_LOAD_SCHEDULER: End scheduler "ba09" with entities [EventEntity, EventEntity], work=730*
128: 0x0389 [0x45] LOAD_SCHEDULED_TASK: Load scheduler "ba11" with entities [EventEntity, EventEntity], work=[730*, 0*]
129: 0x039A [0x6F] WAIT_FRAME_DELAY: Yield until WaitTime reaches zero
130: 0x039B [0x76] CHECK_ENTITY_RENDER_FLAGS: Wait until Unnamed NPC (ID: 17928231/0x01119027) Render.Flags0 and Render.Flags3 conditions are met
131: 0x03A0 [0x2B] Unnamed NPC (ID: 17928231/0x01119027) [7774*]:
    → "Open the door, he did! Memories of battles etched upon completely new existences!"
132: 0x03A7 [0x23] WAIT_FOR_DIALOG_INTERACTION
133: 0x03A8 [0x2B] Unnamed NPC (ID: 17928230/0x01119026) [7775*]:
    → "Yet a spirit is a complex, difficult-to-understand, and nigh-incomprehensible thing made of many interwoven threads."
134: 0x03AF [0x23] WAIT_FOR_DIALOG_INTERACTION
135: 0x03B0 [0x52] END_LOAD_SCHEDULER: End scheduler "ba11" with entities [EventEntity, EventEntity], work=730*
136: 0x03BF [0x45] LOAD_SCHEDULED_TASK: Load scheduler "ba10" with entities [EventEntity, EventEntity], work=[730*, 0*]
137: 0x03D0 [0x2B] Unnamed NPC (ID: 17928231/0x01119027) [7776*]:
    → "A most difficult nut to crack!"
138: 0x03D7 [0x23] WAIT_FOR_DIALOG_INTERACTION
139: 0x03D8 [0x2B] Unnamed NPC (ID: 17928230/0x01119026) [7777*]:
    → "But your spirit is marked with memories of battles, fights, and struggles, each a shining star amongst the sky. We wish to view those stars close-up."
140: 0x03DF [0x23] WAIT_FOR_DIALOG_INTERACTION
141: 0x03E0 [0x52] END_LOAD_SCHEDULER: End scheduler "ba10" with entities [EventEntity, EventEntity], work=730*
142: 0x03EF [0x45] LOAD_SCHEDULED_TASK: Load scheduler "ba12" with entities [EventEntity, EventEntity], work=[730*, 0*]
143: 0x0400 [0x03] Work_Zone[2] = 9008*
144: 0x0405 [0x2B] Unnamed NPC (ID: 17928231/0x01119027) [7778*]:
    → "Yes, a most pleasing brightness! Bring us $0 and we will open the gates for you!"
145: 0x040C [0x1C] WAIT(15* ticks)
146: 0x040F [0x79] LocalPlayer looks at Unnamed NPC (ID: 17928231/0x01119027) (Basic look)
147: 0x0419 [0x1C] WAIT(45* ticks)
148: 0x041C [0x23] WAIT_FOR_DIALOG_INTERACTION
149: 0x041D [0x6E] LocalPlayer uses emote 22*
150: 0x0424 [0x99] Wait for LocalPlayer animation to complete
151: 0x0429 [0x1C] WAIT(150* ticks)
152: 0x042C [0x2B] Unnamed NPC (ID: 17928231/0x01119027) [7779*]:
    → "You seem confused, befuddled, and out of sorts. Don't worry--you'll know where to look when you return to your world."
153: 0x0433 [0x23] WAIT_FOR_DIALOG_INTERACTION
154: 0x0434 [0x52] END_LOAD_SCHEDULER: End scheduler "ba12" with entities [EventEntity, EventEntity], work=730*
155: 0x0443 [0x45] LOAD_SCHEDULED_TASK: Load scheduler "ba13" with entities [EventEntity, EventEntity], work=[730*, 0*]
156: 0x0454 [0x2B] Unnamed NPC (ID: 17928230/0x01119026) [7780*]:
    → "And return you will! Both to there, and to here!"
157: 0x045B [0x23] WAIT_FOR_DIALOG_INTERACTION
158: 0x045C [0x5D] SET_MUSIC_VOLUME(volume=0*, fade_time=120*)
159: 0x0461 [0x1A] CALL_SUBROUTINE(address=0x398E)
160: 0x0464 [0x1C] WAIT(30* ticks)
161: 0x0467 [0x52] END_LOAD_SCHEDULER: End scheduler "ba13" with entities [EventEntity, EventEntity], work=730*
162: 0x0476 [0x45] LOAD_SCHEDULED_TASK: Load scheduler "0blf" with entities [EventEntity, EventEntity], work=[730*, 0*]
163: 0x0487 [0x1A] CALL_SUBROUTINE(address=0x394C)
164: 0x048A [0x1A] CALL_SUBROUTINE(address=0x396D)
165: 0x048D [0xC5] LOAD_SCHEDULED_TASK_ALT3: Load scheduler 0x8001306C for entities [Unnamed NPC (ID: 17928249/0x01119039), Unnamed NPC (ID: 17928249/0x01119039)], work=172*, param=26987
166: 0x049E [0xC5] LOAD_SCHEDULED_TASK_ALT3: Load scheduler 0x80016C6C for entities [Unnamed NPC (ID: 17928229/0x01119025), Unnamed NPC (ID: 17928229/0x01119025)], work=65*, param=26987
167: 0x04AF [0x27] REQ_SET(priority=0x05, entity_id=Unnamed NPC (ID: 17928229/0x01119025), tag_num=0x0C)
168: 0x04B6 [0x27] REQ_SET(priority=0x05, entity_id=Unnamed NPC (ID: 17928230/0x01119026), tag_num=0x0C)
169: 0x04BD [0x27] REQ_SET(priority=0x05, entity_id=Unnamed NPC (ID: 17928231/0x01119027), tag_num=0x0C)
170: 0x04C4 [0x78] ENABLE_GAME_TIMER_RESET_WEATHER()
171: 0x04C5 [0x6A] CHANGE_SOUND_VOLUME: Set (System/Zone)* volume to 999*, fade_time=60*
172: 0x04CC [0x5C] MUSIC_CONTROL: Set Idle (Day) music to song 72*
173: 0x04D0 [0x5C] MUSIC_CONTROL: Set Idle (Night) music to song 72*
174: 0x04D4 [0x9A] WAIT_MUSIC_SERVER()
175: 0x04D5 [0x1C] WAIT(15* ticks)
176: 0x04D8 [0xAB] EventEntity->DespawnValue = 0* // Set despawn value
177: 0x04DC [0x1C] WAIT(1* ticks)
178: 0x04DF [0xAB] EventEntity->UnknownFlag = 0 // Disable unknown flag
179: 0x04E1 [0x46] CAMERA_CONTROL: Restore default settings
180: 0x04E3 [0x45] LOAD_SCHEDULED_TASK: Load scheduler "fdi2" with entities [LocalPlayer, LocalPlayer], work=[200*, 0*]
181: 0x04F4 [0x21] END_EVENT
182: 0x04F5 [0x00] END_REQSTACK()
```

### Event 51

#### Metadata

| Field        | Value     |
|--------------|-----------|
| Entrypoint   | 0x04F6    |
| Data Size    | 767 bytes |
| Instructions | 119       |

```
      00 01 02 03 04 05 06 07  08 09 0A 0B 0C 0D 0E 0F
      -- -- -- -- -- -- -- --  -- -- -- -- -- -- -- --
04F0:                   42 1A  4C 39 46 01 38 00 80 4E        B.L9F.8..N
0500: 00 F0 FF FF 7F AB 09 5D  01 80 02 80 6A 01 80 02  .......]....j...
0510: 80 03 80 4E 00 39 90 11  01 27 10 26 90 11 01 04  ...N.9...'.&....
0520: 27 10 27 90 11 01 04 92  01 26 90 11 01 92 01 27  '.'......&.....'
0530: 90 11 01 94 01 F0 FF FF  7F 94 01 26 90 11 01 94  ...........&....
0540: 01 27 90 11 01 94 01 39  90 11 01 59 05 F0 FF FF  .'.....9...Y....
0550: 7F 01 59 05 26 90 11 01  01 59 05 27 90 11 01 01  ..Y.&....Y.'....
0560: 59 05 39 90 11 01 01 BA  F0 FF FF 7F 38 80 39 80  Y.9.........8.9.
0570: 06 80 3A 80 BA 26 90 11  01 0A 80 0B 80 0C 80 0D  ..:..&..........
0580: 80 BA 27 90 11 01 3B 80  3C 80 10 80 3D 80 BA 39  ..'...;.<...=..9
0590: 90 11 01 12 80 13 80 06  80 14 80 29 10 26 90 11  ...........).&..
05A0: 01 19 29 10 27 90 11 01  17 80 F0 FF FF 7F 80 26  ..).'..........&
05B0: 90 11 01 80 27 90 11 01  80 39 90 11 01 1C 15 80  ....'....9......
05C0: 29 10 26 90 11 01 1B 29  10 27 90 11 01 19 C5 16  ).&....).'......
05D0: 80 39 90 11 01 39 90 11  01 73 30 30 30 01 80 4A  .9...9...s000..J
05E0: F0 FF FF 7F 26 90 11 01  4A 26 90 11 01 F0 FF FF  ....&...J&......
05F0: 7F 4A 27 90 11 01 F0 FF  FF 7F 7B 26 90 11 01 7B  .J'.......{&...{
0600: 27 90 11 01 5C 00 18 80  5C 01 18 80 9A 45 19 80  '...\...\....E..
0610: F8 FF FF 7F F8 FF FF 7F  62 62 30 31 01 80 1A 2B  ........bb01...+
0620: 39 1C 1C 80 2B 26 90 11  01 3E 80 23 52 19 80 F8  9...+&...>.#R...
0630: FF FF 7F F8 FF FF 7F 62  62 30 31 45 19 80 F8 FF  .......bb01E....
0640: FF 7F F8 FF FF 7F 62 62  30 32 01 80 2B 27 90 11  ......bb02..+'..
0650: 01 3F 80 1C 1A 80 79 00  F0 FF FF 7F 27 90 11 01  .?....y.....'...
0660: 1C 20 80 23 2B 27 90 11  01 40 80 23 52 19 80 F8  . .#+'...@.#R...
0670: FF FF 7F F8 FF FF 7F 62  62 30 32 45 19 80 F8 FF  .......bb02E....
0680: FF 7F F8 FF FF 7F 62 62  30 33 01 80 2B 26 90 11  ......bb03..+&..
0690: 01 41 80 1C 1A 80 79 00  F0 FF FF 7F 26 90 11 01  .A....y.....&...
06A0: 1C 20 80 23 2B 26 90 11  01 42 80 23 03 02 10 01  . .#+&...B.#....
06B0: 80 2B 26 90 11 01 43 80  23 03 02 10 36 80 2B 26  .+&...C.#...6.+&
06C0: 90 11 01 43 80 23 03 02  10 44 80 2B 26 90 11 01  ...C.#...D.+&...
06D0: 43 80 23 52 19 80 F8 FF  FF 7F F8 FF FF 7F 62 62  C.#R..........bb
06E0: 30 33 45 19 80 F8 FF FF  7F F8 FF FF 7F 62 62 30  03E..........bb0
06F0: 34 01 80 03 02 10 45 80  2B 27 90 11 01 46 80 1C  4.....E.+'...F..
0700: 1A 80 79 00 F0 FF FF 7F  27 90 11 01 1C 20 80 23  ..y.....'.... .#
0710: 2B 27 90 11 01 47 80 23  2B 27 90 11 01 48 80 23  +'...G.#+'...H.#
0720: 52 19 80 F8 FF FF 7F F8  FF FF 7F 62 62 30 34 45  R..........bb04E
0730: 19 80 F8 FF FF 7F F8 FF  FF 7F 62 62 30 35 01 80  ..........bb05..
0740: 2B 26 90 11 01 49 80 23  2B 26 90 11 01 4A 80 23  +&...I.#+&...J.#
0750: 52 19 80 F8 FF FF 7F F8  FF FF 7F 62 62 30 35 45  R..........bb05E
0760: 19 80 F8 FF FF 7F F8 FF  FF 7F 62 62 30 36 01 80  ..........bb06..
0770: 5D 01 80 1C 80 1C 4B 80  1A 8E 39 1C 15 80 52 19  ].....K...9...R.
0780: 80 F8 FF FF 7F F8 FF FF  7F 62 62 30 36 45 19 80  .........bb06E..
0790: F8 FF FF 7F F8 FF FF 7F  30 62 6C 66 01 80 1A 4C  ........0blf...L
07A0: 39 1A 6D 39 C5 16 80 39  90 11 01 39 90 11 01 6B  9.m9...9...9...k
07B0: 69 6C 30 01 80 27 05 26  90 11 01 0C 27 05 27 90  il0..'.&....'.'.
07C0: 11 01 0C 78 6A 34 80 02  80 03 80 5C 00 35 80 5C  ...xj4.....\.5.\
07D0: 01 35 80 9A 1C 1A 80 AB  11 01 80 1C 36 80 AB 0A  .5..........6...
07E0: 46 00 45 37 80 F0 FF FF  7F F0 FF FF 7F 66 64 69  F.E7.........fdi
07F0: 32 01 80 21 00                                    2..!.           
```

#### Opcodes

```
  0: 0x04F6 [0x42] SET_CLI_EVENT_CANCEL_DATA()
  1: 0x04F7 [0x1A] CALL_SUBROUTINE(address=0x394C)
  2: 0x04FA [0x46] CAMERA_CONTROL: Disable user control
  3: 0x04FC [0x38] SET_CLIENT_EVENT_MODE(mode=19*)
  4: 0x04FF [0x4E] SET_ENTITY_HIDE_FLAG: Show LocalPlayer
  5: 0x0505 [0xAB] EventEntity->UnknownFlag = 1 // Enable unknown flag
  6: 0x0507 [0x5D] SET_MUSIC_VOLUME(volume=0*, fade_time=60*)
  7: 0x050C [0x6A] CHANGE_SOUND_VOLUME: Set (System/Zone)* volume to 0*, fade_time=60*
  8: 0x0513 [0x4E] SET_ENTITY_HIDE_FLAG: Show Unnamed NPC (ID: 17928249/0x01119039)
  9: 0x0519 [0x27] REQ_SET(priority=0x10, entity_id=Unnamed NPC (ID: 17928230/0x01119026), tag_num=0x04)
 10: 0x0520 [0x27] REQ_SET(priority=0x10, entity_id=Unnamed NPC (ID: 17928231/0x01119027), tag_num=0x04)
 11: 0x0527 [0x92] Unnamed NPC (ID: 17928230/0x01119026)->Render.Flags3 ^= 0x01
 12: 0x052D [0x92] Unnamed NPC (ID: 17928231/0x01119027)->Render.Flags3 ^= 0x01
 13: 0x0533 [0x94] LocalPlayer->Render.Flags3 ^= 0x01
 14: 0x0539 [0x94] Unnamed NPC (ID: 17928230/0x01119026)->Render.Flags3 ^= 0x01
 15: 0x053F [0x94] Unnamed NPC (ID: 17928231/0x01119027)->Render.Flags3 ^= 0x01
 16: 0x0545 [0x94] Unnamed NPC (ID: 17928249/0x01119039)->Render.Flags3 ^= 0x01
 17: 0x054B [0x59] UPDATE_ENTITY_DATA: LocalPlayer->Render.Flags0 |= 0x200000
 18: 0x0552 [0x59] UPDATE_ENTITY_DATA: Unnamed NPC (ID: 17928230/0x01119026)->Render.Flags0 |= 0x200000
 19: 0x0559 [0x59] UPDATE_ENTITY_DATA: Unnamed NPC (ID: 17928231/0x01119027)->Render.Flags0 |= 0x200000
 20: 0x0560 [0x59] UPDATE_ENTITY_DATA: Unnamed NPC (ID: 17928249/0x01119039)->Render.Flags0 |= 0x200000
 21: 0x0567 [0xBA] SET_ENTITY_POSITION(entity_id=LocalPlayer, pos_x=-57.293*, pos_z=-45.419*, pos_y=-250.878*, direction=200.6°*)
 22: 0x0574 [0xBA] SET_ENTITY_POSITION(entity_id=Unnamed NPC (ID: 17928230/0x01119026), pos_x=-59.390*, pos_z=-44.746*, pos_y=-250.578*, direction=32.3°*)
 23: 0x0581 [0xBA] SET_ENTITY_POSITION(entity_id=Unnamed NPC (ID: 17928231/0x01119027), pos_x=-59.053*, pos_z=-43.221*, pos_y=-250.378*, direction=17.4°*)
 24: 0x058E [0xBA] SET_ENTITY_POSITION(entity_id=Unnamed NPC (ID: 17928249/0x01119039), pos_x=-51.112*, pos_z=-44.060*, pos_y=-250.878*, direction=163.6°*)
 25: 0x059B [0x29] REQ_SET_WAIT(priority=0x10, entity_id=Unnamed NPC (ID: 17928230/0x01119026), tag_num=0x19)
 26: 0x05A2 [0x29] REQ_SET_WAIT(priority=0x10, entity_id=Unnamed NPC (ID: 17928231/0x01119027), tag_num=0x17)
 27: 0x05A9 [0x80] LOAD_WAIT(entity=LocalPlayer)
 28: 0x05AE [0x80] LOAD_WAIT(entity=Unnamed NPC (ID: 17928230/0x01119026))
 29: 0x05B3 [0x80] LOAD_WAIT(entity=Unnamed NPC (ID: 17928231/0x01119027))
 30: 0x05B8 [0x80] LOAD_WAIT(entity=Unnamed NPC (ID: 17928249/0x01119039))
 31: 0x05BD [0x1C] WAIT(30* ticks)
 32: 0x05C0 [0x29] REQ_SET_WAIT(priority=0x10, entity_id=Unnamed NPC (ID: 17928230/0x01119026), tag_num=0x1B)
 33: 0x05C7 [0x29] REQ_SET_WAIT(priority=0x10, entity_id=Unnamed NPC (ID: 17928231/0x01119027), tag_num=0x19)
 34: 0x05CE [0xC5] LOAD_SCHEDULED_TASK_ALT3: Load scheduler 0x80013030 for entities [Unnamed NPC (ID: 17928249/0x01119039), Unnamed NPC (ID: 17928249/0x01119039)], work=172*, param=12403
 35: 0x05DF [0x4A] LocalPlayer looks at Unnamed NPC (ID: 17928230/0x01119026)
 36: 0x05E8 [0x4A] Unnamed NPC (ID: 17928230/0x01119026) looks at LocalPlayer
 37: 0x05F1 [0x4A] Unnamed NPC (ID: 17928231/0x01119027) looks at LocalPlayer
 38: 0x05FA [0x7B] Unnamed NPC (ID: 17928230/0x01119026) stops talking
 39: 0x05FF [0x7B] Unnamed NPC (ID: 17928231/0x01119027) stops talking
 40: 0x0604 [0x5C] MUSIC_CONTROL: Set Idle (Day) music to song 61*
 41: 0x0608 [0x5C] MUSIC_CONTROL: Set Idle (Night) music to song 61*
 42: 0x060C [0x9A] WAIT_MUSIC_SERVER()
 43: 0x060D [0x45] LOAD_SCHEDULED_TASK: Load scheduler "bb01" with entities [EventEntity, EventEntity], work=[730*, 0*]
 44: 0x061E [0x1A] CALL_SUBROUTINE(address=0x392B)
 45: 0x0621 [0x1C] WAIT(120* ticks)
 46: 0x0624 [0x2B] Unnamed NPC (ID: 17928230/0x01119026) [7783*]:
    → "Well done! Absolutely perfect and without flaw."
 47: 0x062B [0x23] WAIT_FOR_DIALOG_INTERACTION
 48: 0x062C [0x52] END_LOAD_SCHEDULER: End scheduler "bb01" with entities [EventEntity, EventEntity], work=730*
 49: 0x063B [0x45] LOAD_SCHEDULED_TASK: Load scheduler "bb02" with entities [EventEntity, EventEntity], work=[730*, 0*]
 50: 0x064C [0x2B] Unnamed NPC (ID: 17928231/0x01119027) [7784*]:
    → "Splendid! Our master is still out, but we deem you worthy in his place!"
 51: 0x0653 [0x1C] WAIT(15* ticks)
 52: 0x0656 [0x79] LocalPlayer looks at Unnamed NPC (ID: 17928231/0x01119027) (Basic look)
 53: 0x0660 [0x1C] WAIT(45* ticks)
 54: 0x0663 [0x23] WAIT_FOR_DIALOG_INTERACTION
 55: 0x0664 [0x2B] Unnamed NPC (ID: 17928231/0x01119027) [7785*]:
    → "You should feel honored, blessed, and proud."
 56: 0x066B [0x23] WAIT_FOR_DIALOG_INTERACTION
 57: 0x066C [0x52] END_LOAD_SCHEDULER: End scheduler "bb02" with entities [EventEntity, EventEntity], work=730*
 58: 0x067B [0x45] LOAD_SCHEDULED_TASK: Load scheduler "bb03" with entities [EventEntity, EventEntity], work=[730*, 0*]
 59: 0x068C [0x2B] Unnamed NPC (ID: 17928230/0x01119026) [7786*]:
    → "Honored to receive your just reward!"
 60: 0x0693 [0x1C] WAIT(15* ticks)
 61: 0x0696 [0x79] LocalPlayer looks at Unnamed NPC (ID: 17928230/0x01119026) (Basic look)
 62: 0x06A0 [0x1C] WAIT(45* ticks)
 63: 0x06A3 [0x23] WAIT_FOR_DIALOG_INTERACTION
 64: 0x06A4 [0x2B] Unnamed NPC (ID: 17928230/0x01119026) [7787*]:
    → "We have prepared, set up, and established three different...dimensions for you to explore."
 65: 0x06AB [0x23] WAIT_FOR_DIALOG_INTERACTION
 66: 0x06AC [0x03] Work_Zone[2] = 0*
 67: 0x06B1 [0x2B] Unnamed NPC (ID: 17928230/0x01119026) [7788*]:
    → "That one opens to a land of [toxic miasma/biting winds/unending filth]."
 68: 0x06B8 [0x23] WAIT_FOR_DIALOG_INTERACTION
 69: 0x06B9 [0x03] Work_Zone[2] = 1*
 70: 0x06BE [0x2B] Unnamed NPC (ID: 17928230/0x01119026) [7788*]:
    → "That one opens to a land of [toxic miasma/biting winds/unending filth]."
 71: 0x06C5 [0x23] WAIT_FOR_DIALOG_INTERACTION
 72: 0x06C6 [0x03] Work_Zone[2] = 2*
 73: 0x06CB [0x2B] Unnamed NPC (ID: 17928230/0x01119026) [7788*]:
    → "That one opens to a land of [toxic miasma/biting winds/unending filth]."
 74: 0x06D2 [0x23] WAIT_FOR_DIALOG_INTERACTION
 75: 0x06D3 [0x52] END_LOAD_SCHEDULER: End scheduler "bb03" with entities [EventEntity, EventEntity], work=730*
 76: 0x06E2 [0x45] LOAD_SCHEDULED_TASK: Load scheduler "bb04" with entities [EventEntity, EventEntity], work=[730*, 0*]
 77: 0x06F3 [0x03] Work_Zone[2] = 2641*
 78: 0x06F8 [0x2B] Unnamed NPC (ID: 17928231/0x01119027) [7789*]:
    → "Many lands, all for you with just a quick shake of this $3!"
 79: 0x06FF [0x1C] WAIT(15* ticks)
 80: 0x0702 [0x79] LocalPlayer looks at Unnamed NPC (ID: 17928231/0x01119027) (Basic look)
 81: 0x070C [0x1C] WAIT(45* ticks)
 82: 0x070F [0x23] WAIT_FOR_DIALOG_INTERACTION
 83: 0x0710 [0x2B] Unnamed NPC (ID: 17928231/0x01119027) [7790*]:
    → "Seek your charge in the ruins, the Serpentine Labyrinth, Outer Ra'Kaznar."
 84: 0x0717 [0x23] WAIT_FOR_DIALOG_INTERACTION
 85: 0x0718 [0x2B] Unnamed NPC (ID: 17928231/0x01119027) [7791*]:
    → "Outer Ra'Kaznar! Our master's experiments await!"
 86: 0x071F [0x23] WAIT_FOR_DIALOG_INTERACTION
 87: 0x0720 [0x52] END_LOAD_SCHEDULER: End scheduler "bb04" with entities [EventEntity, EventEntity], work=730*
 88: 0x072F [0x45] LOAD_SCHEDULED_TASK: Load scheduler "bb05" with entities [EventEntity, EventEntity], work=[730*, 0*]
 89: 0x0740 [0x2B] Unnamed NPC (ID: 17928230/0x01119026) [7792*]:
    → "Your Goddess's protection may serve you well...or it may not. Go forth, and flourish in the thrill of battle!"
 90: 0x0747 [0x23] WAIT_FOR_DIALOG_INTERACTION
 91: 0x0748 [0x2B] Unnamed NPC (ID: 17928230/0x01119026) [7793*]:
    → "Be healthy and hale!"
 92: 0x074F [0x23] WAIT_FOR_DIALOG_INTERACTION
 93: 0x0750 [0x52] END_LOAD_SCHEDULER: End scheduler "bb05" with entities [EventEntity, EventEntity], work=730*
 94: 0x075F [0x45] LOAD_SCHEDULED_TASK: Load scheduler "bb06" with entities [EventEntity, EventEntity], work=[730*, 0*]
 95: 0x0770 [0x5D] SET_MUSIC_VOLUME(volume=0*, fade_time=120*)
 96: 0x0775 [0x1C] WAIT(90* ticks)
 97: 0x0778 [0x1A] CALL_SUBROUTINE(address=0x398E)
 98: 0x077B [0x1C] WAIT(30* ticks)
 99: 0x077E [0x52] END_LOAD_SCHEDULER: End scheduler "bb06" with entities [EventEntity, EventEntity], work=730*
100: 0x078D [0x45] LOAD_SCHEDULED_TASK: Load scheduler "0blf" with entities [EventEntity, EventEntity], work=[730*, 0*]
101: 0x079E [0x1A] CALL_SUBROUTINE(address=0x394C)
102: 0x07A1 [0x1A] CALL_SUBROUTINE(address=0x396D)
103: 0x07A4 [0xC5] LOAD_SCHEDULED_TASK_ALT3: Load scheduler 0x8001306C for entities [Unnamed NPC (ID: 17928249/0x01119039), Unnamed NPC (ID: 17928249/0x01119039)], work=172*, param=26987
104: 0x07B5 [0x27] REQ_SET(priority=0x05, entity_id=Unnamed NPC (ID: 17928230/0x01119026), tag_num=0x0C)
105: 0x07BC [0x27] REQ_SET(priority=0x05, entity_id=Unnamed NPC (ID: 17928231/0x01119027), tag_num=0x0C)
106: 0x07C3 [0x78] ENABLE_GAME_TIMER_RESET_WEATHER()
107: 0x07C4 [0x6A] CHANGE_SOUND_VOLUME: Set (System/Zone)* volume to 999*, fade_time=60*
108: 0x07CB [0x5C] MUSIC_CONTROL: Set Idle (Day) music to song 72*
109: 0x07CF [0x5C] MUSIC_CONTROL: Set Idle (Night) music to song 72*
110: 0x07D3 [0x9A] WAIT_MUSIC_SERVER()
111: 0x07D4 [0x1C] WAIT(15* ticks)
112: 0x07D7 [0xAB] EventEntity->DespawnValue = 0* // Set despawn value
113: 0x07DB [0x1C] WAIT(1* ticks)
114: 0x07DE [0xAB] EventEntity->UnknownFlag = 0 // Disable unknown flag
115: 0x07E0 [0x46] CAMERA_CONTROL: Restore default settings
116: 0x07E2 [0x45] LOAD_SCHEDULED_TASK: Load scheduler "fdi2" with entities [LocalPlayer, LocalPlayer], work=[200*, 0*]
117: 0x07F3 [0x21] END_EVENT
118: 0x07F4 [0x00] END_REQSTACK()
```

### Event 52

#### Metadata

| Field        | Value     |
|--------------|-----------|
| Entrypoint   | 0x07F5    |
| Data Size    | 698 bytes |
| Instructions | 103       |

```
      00 01 02 03 04 05 06 07  08 09 0A 0B 0C 0D 0E 0F
      -- -- -- -- -- -- -- --  -- -- -- -- -- -- -- --
07F0:                42 1A 4C  39 46 01 38 00 80 4E 00       B.L9F.8..N.
0800: F0 FF FF 7F AB 09 5D 01  80 02 80 6A 01 80 02 80  ......]....j....
0810: 03 80 4E 00 39 90 11 01  27 10 26 90 11 01 04 27  ..N.9...'.&....'
0820: 10 27 90 11 01 04 92 01  26 90 11 01 92 01 27 90  .'......&.....'.
0830: 11 01 94 01 F0 FF FF 7F  94 01 26 90 11 01 94 01  ..........&.....
0840: 27 90 11 01 94 01 39 90  11 01 59 05 F0 FF FF 7F  '.....9...Y.....
0850: 01 59 05 26 90 11 01 01  59 05 27 90 11 01 01 59  .Y.&....Y.'....Y
0860: 05 39 90 11 01 01 BA F0  FF FF 7F 38 80 39 80 06  .9.........8.9..
0870: 80 3A 80 BA 26 90 11 01  0A 80 0B 80 0C 80 0D 80  .:..&...........
0880: BA 27 90 11 01 3B 80 3C  80 10 80 3D 80 BA 39 90  .'...;.<...=..9.
0890: 11 01 12 80 13 80 06 80  14 80 29 10 26 90 11 01  ..........).&...
08A0: 19 29 10 27 90 11 01 17  80 F0 FF FF 7F 80 26 90  .).'..........&.
08B0: 11 01 80 27 90 11 01 80  39 90 11 01 1C 15 80 29  ...'....9......)
08C0: 10 26 90 11 01 1B 29 10  27 90 11 01 19 C5 16 80  .&....).'.......
08D0: 39 90 11 01 39 90 11 01  73 30 30 30 01 80 4A F0  9...9...s000..J.
08E0: FF FF 7F 26 90 11 01 4A  26 90 11 01 F0 FF FF 7F  ...&...J&.......
08F0: 4A 27 90 11 01 F0 FF FF  7F 7B 26 90 11 01 7B 27  J'.......{&...{'
0900: 90 11 01 5C 00 18 80 5C  01 18 80 9A 45 19 80 F8  ...\...\....E...
0910: FF FF 7F F8 FF FF 7F 62  63 30 31 01 80 1A 2B 39  .......bc01...+9
0920: 03 02 10 2E 80 2B 26 90  11 01 4C 80 23 03 02 10  .....+&...L.#...
0930: 45 80 52 19 80 F8 FF FF  7F F8 FF FF 7F 62 63 30  E.R..........bc0
0940: 31 45 19 80 F8 FF FF 7F  F8 FF FF 7F 62 63 30 32  1E..........bc02
0950: 01 80 2B 27 90 11 01 4D  80 1C 1A 80 79 00 F0 FF  ..+'...M....y...
0960: FF 7F 27 90 11 01 1C 20  80 23 2B 27 90 11 01 4E  ..'.... .#+'...N
0970: 80 23 52 19 80 F8 FF FF  7F F8 FF FF 7F 62 63 30  .#R..........bc0
0980: 32 45 19 80 F8 FF FF 7F  F8 FF FF 7F 62 63 30 33  2E..........bc03
0990: 01 80 2B 26 90 11 01 4F  80 1C 1A 80 79 00 F0 FF  ..+&...O....y...
09A0: FF 7F 26 90 11 01 1C 20  80 23 52 19 80 F8 FF FF  ..&.... .#R.....
09B0: 7F F8 FF FF 7F 62 63 30  33 45 19 80 F8 FF FF 7F  .....bc03E......
09C0: F8 FF FF 7F 62 62 30 34  01 80 2B 27 90 11 01 47  ....bb04..+'...G
09D0: 80 23 2B 27 90 11 01 48  80 23 52 19 80 F8 FF FF  .#+'...H.#R.....
09E0: 7F F8 FF FF 7F 62 62 30  34 45 19 80 F8 FF FF 7F  .....bb04E......
09F0: F8 FF FF 7F 62 62 30 35  01 80 2B 26 90 11 01 49  ....bb05..+&...I
0A00: 80 23 2B 26 90 11 01 4A  80 23 52 19 80 F8 FF FF  .#+&...J.#R.....
0A10: 7F F8 FF FF 7F 62 62 30  35 45 19 80 F8 FF FF 7F  .....bb05E......
0A20: F8 FF FF 7F 62 62 30 36  01 80 5D 01 80 1C 80 1C  ....bb06..].....
0A30: 4B 80 1A 8E 39 1C 15 80  52 19 80 F8 FF FF 7F F8  K...9...R.......
0A40: FF FF 7F 62 62 30 36 45  19 80 F8 FF FF 7F F8 FF  ...bb06E........
0A50: FF 7F 30 62 6C 66 01 80  1A 4C 39 1A 6D 39 C5 16  ..0blf...L9.m9..
0A60: 80 39 90 11 01 39 90 11  01 6B 69 6C 30 01 80 27  .9...9...kil0..'
0A70: 05 26 90 11 01 0C 27 05  27 90 11 01 0C 78 6A 34  .&....'.'....xj4
0A80: 80 02 80 03 80 5C 00 35  80 5C 01 35 80 9A 1C 1A  .....\.5.\.5....
0A90: 80 AB 11 01 80 1C 36 80  AB 0A 46 00 45 37 80 F0  ......6...F.E7..
0AA0: FF FF 7F F0 FF FF 7F 66  64 69 32 01 80 21 00     .......fdi2..!. 
```

#### Opcodes

```
  0: 0x07F5 [0x42] SET_CLI_EVENT_CANCEL_DATA()
  1: 0x07F6 [0x1A] CALL_SUBROUTINE(address=0x394C)
  2: 0x07F9 [0x46] CAMERA_CONTROL: Disable user control
  3: 0x07FB [0x38] SET_CLIENT_EVENT_MODE(mode=19*)
  4: 0x07FE [0x4E] SET_ENTITY_HIDE_FLAG: Show LocalPlayer
  5: 0x0804 [0xAB] EventEntity->UnknownFlag = 1 // Enable unknown flag
  6: 0x0806 [0x5D] SET_MUSIC_VOLUME(volume=0*, fade_time=60*)
  7: 0x080B [0x6A] CHANGE_SOUND_VOLUME: Set (System/Zone)* volume to 0*, fade_time=60*
  8: 0x0812 [0x4E] SET_ENTITY_HIDE_FLAG: Show Unnamed NPC (ID: 17928249/0x01119039)
  9: 0x0818 [0x27] REQ_SET(priority=0x10, entity_id=Unnamed NPC (ID: 17928230/0x01119026), tag_num=0x04)
 10: 0x081F [0x27] REQ_SET(priority=0x10, entity_id=Unnamed NPC (ID: 17928231/0x01119027), tag_num=0x04)
 11: 0x0826 [0x92] Unnamed NPC (ID: 17928230/0x01119026)->Render.Flags3 ^= 0x01
 12: 0x082C [0x92] Unnamed NPC (ID: 17928231/0x01119027)->Render.Flags3 ^= 0x01
 13: 0x0832 [0x94] LocalPlayer->Render.Flags3 ^= 0x01
 14: 0x0838 [0x94] Unnamed NPC (ID: 17928230/0x01119026)->Render.Flags3 ^= 0x01
 15: 0x083E [0x94] Unnamed NPC (ID: 17928231/0x01119027)->Render.Flags3 ^= 0x01
 16: 0x0844 [0x94] Unnamed NPC (ID: 17928249/0x01119039)->Render.Flags3 ^= 0x01
 17: 0x084A [0x59] UPDATE_ENTITY_DATA: LocalPlayer->Render.Flags0 |= 0x200000
 18: 0x0851 [0x59] UPDATE_ENTITY_DATA: Unnamed NPC (ID: 17928230/0x01119026)->Render.Flags0 |= 0x200000
 19: 0x0858 [0x59] UPDATE_ENTITY_DATA: Unnamed NPC (ID: 17928231/0x01119027)->Render.Flags0 |= 0x200000
 20: 0x085F [0x59] UPDATE_ENTITY_DATA: Unnamed NPC (ID: 17928249/0x01119039)->Render.Flags0 |= 0x200000
 21: 0x0866 [0xBA] SET_ENTITY_POSITION(entity_id=LocalPlayer, pos_x=-57.293*, pos_z=-45.419*, pos_y=-250.878*, direction=200.6°*)
 22: 0x0873 [0xBA] SET_ENTITY_POSITION(entity_id=Unnamed NPC (ID: 17928230/0x01119026), pos_x=-59.390*, pos_z=-44.746*, pos_y=-250.578*, direction=32.3°*)
 23: 0x0880 [0xBA] SET_ENTITY_POSITION(entity_id=Unnamed NPC (ID: 17928231/0x01119027), pos_x=-59.053*, pos_z=-43.221*, pos_y=-250.378*, direction=17.4°*)
 24: 0x088D [0xBA] SET_ENTITY_POSITION(entity_id=Unnamed NPC (ID: 17928249/0x01119039), pos_x=-51.112*, pos_z=-44.060*, pos_y=-250.878*, direction=163.6°*)
 25: 0x089A [0x29] REQ_SET_WAIT(priority=0x10, entity_id=Unnamed NPC (ID: 17928230/0x01119026), tag_num=0x19)
 26: 0x08A1 [0x29] REQ_SET_WAIT(priority=0x10, entity_id=Unnamed NPC (ID: 17928231/0x01119027), tag_num=0x17)
 27: 0x08A8 [0x80] LOAD_WAIT(entity=LocalPlayer)
 28: 0x08AD [0x80] LOAD_WAIT(entity=Unnamed NPC (ID: 17928230/0x01119026))
 29: 0x08B2 [0x80] LOAD_WAIT(entity=Unnamed NPC (ID: 17928231/0x01119027))
 30: 0x08B7 [0x80] LOAD_WAIT(entity=Unnamed NPC (ID: 17928249/0x01119039))
 31: 0x08BC [0x1C] WAIT(30* ticks)
 32: 0x08BF [0x29] REQ_SET_WAIT(priority=0x10, entity_id=Unnamed NPC (ID: 17928230/0x01119026), tag_num=0x1B)
 33: 0x08C6 [0x29] REQ_SET_WAIT(priority=0x10, entity_id=Unnamed NPC (ID: 17928231/0x01119027), tag_num=0x19)
 34: 0x08CD [0xC5] LOAD_SCHEDULED_TASK_ALT3: Load scheduler 0x80013030 for entities [Unnamed NPC (ID: 17928249/0x01119039), Unnamed NPC (ID: 17928249/0x01119039)], work=172*, param=12403
 35: 0x08DE [0x4A] LocalPlayer looks at Unnamed NPC (ID: 17928230/0x01119026)
 36: 0x08E7 [0x4A] Unnamed NPC (ID: 17928230/0x01119026) looks at LocalPlayer
 37: 0x08F0 [0x4A] Unnamed NPC (ID: 17928231/0x01119027) looks at LocalPlayer
 38: 0x08F9 [0x7B] Unnamed NPC (ID: 17928230/0x01119026) stops talking
 39: 0x08FE [0x7B] Unnamed NPC (ID: 17928231/0x01119027) stops talking
 40: 0x0903 [0x5C] MUSIC_CONTROL: Set Idle (Day) music to song 61*
 41: 0x0907 [0x5C] MUSIC_CONTROL: Set Idle (Night) music to song 61*
 42: 0x090B [0x9A] WAIT_MUSIC_SERVER()
 43: 0x090C [0x45] LOAD_SCHEDULED_TASK: Load scheduler "bc01" with entities [EventEntity, EventEntity], work=[730*, 0*]
 44: 0x091D [0x1A] CALL_SUBROUTINE(address=0x392B)
 45: 0x0920 [0x03] Work_Zone[2] = 9008*
 46: 0x0925 [0x2B] Unnamed NPC (ID: 17928230/0x01119026) [7794*]:
    → "Oho, $0!"
 47: 0x092C [0x23] WAIT_FOR_DIALOG_INTERACTION
 48: 0x092D [0x03] Work_Zone[2] = 2641*
 49: 0x0932 [0x52] END_LOAD_SCHEDULER: End scheduler "bc01" with entities [EventEntity, EventEntity], work=730*
 50: 0x0941 [0x45] LOAD_SCHEDULED_TASK: Load scheduler "bc02" with entities [EventEntity, EventEntity], work=[730*, 0*]
 51: 0x0952 [0x2B] Unnamed NPC (ID: 17928231/0x01119027) [7795*]:
    → "You do! You do have $6!"
 52: 0x0959 [0x1C] WAIT(15* ticks)
 53: 0x095C [0x79] LocalPlayer looks at Unnamed NPC (ID: 17928231/0x01119027) (Basic look)
 54: 0x0966 [0x1C] WAIT(45* ticks)
 55: 0x0969 [0x23] WAIT_FOR_DIALOG_INTERACTION
 56: 0x096A [0x2B] Unnamed NPC (ID: 17928231/0x01119027) [7796*]:
    → "Its energies will be consumed, dissipated, and fully extinguished when you use it to enter our master's "testing chamber," but you can enter again by procuring another."
 57: 0x0971 [0x23] WAIT_FOR_DIALOG_INTERACTION
 58: 0x0972 [0x52] END_LOAD_SCHEDULER: End scheduler "bc02" with entities [EventEntity, EventEntity], work=730*
 59: 0x0981 [0x45] LOAD_SCHEDULED_TASK: Load scheduler "bc03" with entities [EventEntity, EventEntity], work=[730*, 0*]
 60: 0x0992 [0x2B] Unnamed NPC (ID: 17928230/0x01119026) [7797*]:
    → "Let me return it, give it back to you, and hand it over."
 61: 0x0999 [0x1C] WAIT(15* ticks)
 62: 0x099C [0x79] LocalPlayer looks at Unnamed NPC (ID: 17928230/0x01119026) (Basic look)
 63: 0x09A6 [0x1C] WAIT(45* ticks)
 64: 0x09A9 [0x23] WAIT_FOR_DIALOG_INTERACTION
 65: 0x09AA [0x52] END_LOAD_SCHEDULER: End scheduler "bc03" with entities [EventEntity, EventEntity], work=730*
 66: 0x09B9 [0x45] LOAD_SCHEDULED_TASK: Load scheduler "bb04" with entities [EventEntity, EventEntity], work=[730*, 0*]
 67: 0x09CA [0x2B] Unnamed NPC (ID: 17928231/0x01119027) [7790*]:
    → "Seek your charge in the ruins, the Serpentine Labyrinth, Outer Ra'Kaznar."
 68: 0x09D1 [0x23] WAIT_FOR_DIALOG_INTERACTION
 69: 0x09D2 [0x2B] Unnamed NPC (ID: 17928231/0x01119027) [7791*]:
    → "Outer Ra'Kaznar! Our master's experiments await!"
 70: 0x09D9 [0x23] WAIT_FOR_DIALOG_INTERACTION
 71: 0x09DA [0x52] END_LOAD_SCHEDULER: End scheduler "bb04" with entities [EventEntity, EventEntity], work=730*
 72: 0x09E9 [0x45] LOAD_SCHEDULED_TASK: Load scheduler "bb05" with entities [EventEntity, EventEntity], work=[730*, 0*]
 73: 0x09FA [0x2B] Unnamed NPC (ID: 17928230/0x01119026) [7792*]:
    → "Your Goddess's protection may serve you well...or it may not. Go forth, and flourish in the thrill of battle!"
 74: 0x0A01 [0x23] WAIT_FOR_DIALOG_INTERACTION
 75: 0x0A02 [0x2B] Unnamed NPC (ID: 17928230/0x01119026) [7793*]:
    → "Be healthy and hale!"
 76: 0x0A09 [0x23] WAIT_FOR_DIALOG_INTERACTION
 77: 0x0A0A [0x52] END_LOAD_SCHEDULER: End scheduler "bb05" with entities [EventEntity, EventEntity], work=730*
 78: 0x0A19 [0x45] LOAD_SCHEDULED_TASK: Load scheduler "bb06" with entities [EventEntity, EventEntity], work=[730*, 0*]
 79: 0x0A2A [0x5D] SET_MUSIC_VOLUME(volume=0*, fade_time=120*)
 80: 0x0A2F [0x1C] WAIT(90* ticks)
 81: 0x0A32 [0x1A] CALL_SUBROUTINE(address=0x398E)
 82: 0x0A35 [0x1C] WAIT(30* ticks)
 83: 0x0A38 [0x52] END_LOAD_SCHEDULER: End scheduler "bb06" with entities [EventEntity, EventEntity], work=730*
 84: 0x0A47 [0x45] LOAD_SCHEDULED_TASK: Load scheduler "0blf" with entities [EventEntity, EventEntity], work=[730*, 0*]
 85: 0x0A58 [0x1A] CALL_SUBROUTINE(address=0x394C)
 86: 0x0A5B [0x1A] CALL_SUBROUTINE(address=0x396D)
 87: 0x0A5E [0xC5] LOAD_SCHEDULED_TASK_ALT3: Load scheduler 0x8001306C for entities [Unnamed NPC (ID: 17928249/0x01119039), Unnamed NPC (ID: 17928249/0x01119039)], work=172*, param=26987
 88: 0x0A6F [0x27] REQ_SET(priority=0x05, entity_id=Unnamed NPC (ID: 17928230/0x01119026), tag_num=0x0C)
 89: 0x0A76 [0x27] REQ_SET(priority=0x05, entity_id=Unnamed NPC (ID: 17928231/0x01119027), tag_num=0x0C)
 90: 0x0A7D [0x78] ENABLE_GAME_TIMER_RESET_WEATHER()
 91: 0x0A7E [0x6A] CHANGE_SOUND_VOLUME: Set (System/Zone)* volume to 999*, fade_time=60*
 92: 0x0A85 [0x5C] MUSIC_CONTROL: Set Idle (Day) music to song 72*
 93: 0x0A89 [0x5C] MUSIC_CONTROL: Set Idle (Night) music to song 72*
 94: 0x0A8D [0x9A] WAIT_MUSIC_SERVER()
 95: 0x0A8E [0x1C] WAIT(15* ticks)
 96: 0x0A91 [0xAB] EventEntity->DespawnValue = 0* // Set despawn value
 97: 0x0A95 [0x1C] WAIT(1* ticks)
 98: 0x0A98 [0xAB] EventEntity->UnknownFlag = 0 // Disable unknown flag
 99: 0x0A9A [0x46] CAMERA_CONTROL: Restore default settings
100: 0x0A9C [0x45] LOAD_SCHEDULED_TASK: Load scheduler "fdi2" with entities [LocalPlayer, LocalPlayer], work=[200*, 0*]
101: 0x0AAD [0x21] END_EVENT
102: 0x0AAE [0x00] END_REQSTACK()
```

### Event 54

#### Metadata

| Field        | Value     |
|--------------|-----------|
| Entrypoint   | 0x0AAF    |
| Data Size    | 113 bytes |
| Instructions | 31        |

```
      00 01 02 03 04 05 06 07  08 09 0A 0B 0C 0D 0E 0F
      -- -- -- -- -- -- -- --  -- -- -- -- -- -- -- --
0AA0:                                               48                 H
0AB0: 50 80 23 1C 15 80 29 10  26 90 11 01 1B 2B 26 90  P.#...).&....+&.
0AC0: 11 01 47 80 23 29 10 27  90 11 01 19 2B 27 90 11  ..G.#).'....+'..
0AD0: 01 48 80 23 2B 26 90 11  01 49 80 23 2B 27 90 11  .H.#+&...I.#+'..
0AE0: 01 4A 80 23 1C 02 80 2B  26 90 11 01 51 80 23 2B  .J.#...+&...Q.#+
0AF0: 27 90 11 01 52 80 23 2B  26 90 11 01 53 80 23 2B  '...R.#+&...S.#+
0B00: 27 90 11 01 54 80 23 2B  26 90 11 01 55 80 23 2B  '...T.#+&...U.#+
0B10: 27 90 11 01 56 80 23 1C  02 80 48 57 80 23 21 00  '...V.#...HW.#!.
```

#### Opcodes

```
  0: 0x0AAF [0x48] [System] [7804*]:
    → "A raspy voice reverberates within your mind."
  1: 0x0AB2 [0x23] WAIT_FOR_DIALOG_INTERACTION
  2: 0x0AB3 [0x1C] WAIT(30* ticks)
  3: 0x0AB6 [0x29] REQ_SET_WAIT(priority=0x10, entity_id=Unnamed NPC (ID: 17928230/0x01119026), tag_num=0x1B)
  4: 0x0ABD [0x2B] Unnamed NPC (ID: 17928230/0x01119026) [7790*]:
    → "Seek your charge in the ruins, the Serpentine Labyrinth, Outer Ra'Kaznar."
  5: 0x0AC4 [0x23] WAIT_FOR_DIALOG_INTERACTION
  6: 0x0AC5 [0x29] REQ_SET_WAIT(priority=0x10, entity_id=Unnamed NPC (ID: 17928231/0x01119027), tag_num=0x19)
  7: 0x0ACC [0x2B] Unnamed NPC (ID: 17928231/0x01119027) [7791*]:
    → "Outer Ra'Kaznar! Our master's experiments await!"
  8: 0x0AD3 [0x23] WAIT_FOR_DIALOG_INTERACTION
  9: 0x0AD4 [0x2B] Unnamed NPC (ID: 17928230/0x01119026) [7792*]:
    → "Your Goddess's protection may serve you well...or it may not. Go forth, and flourish in the thrill of battle!"
 10: 0x0ADB [0x23] WAIT_FOR_DIALOG_INTERACTION
 11: 0x0ADC [0x2B] Unnamed NPC (ID: 17928231/0x01119027) [7793*]:
    → "Be healthy and hale!"
 12: 0x0AE3 [0x23] WAIT_FOR_DIALOG_INTERACTION
 13: 0x0AE4 [0x1C] WAIT(60* ticks)
 14: 0x0AE7 [0x2B] Unnamed NPC (ID: 17928230/0x01119026) [7798*]:
    → "Should you, for whatever reason, find the experiment...wanting...it would behoove you to visit Ra'Kaznar Turris."
 15: 0x0AEE [0x23] WAIT_FOR_DIALOG_INTERACTION
 16: 0x0AEF [0x2B] Unnamed NPC (ID: 17928231/0x01119027) [7799*]:
    → "For there, you will find another testing chamber...one which may prove more to your liking."
 17: 0x0AF6 [0x23] WAIT_FOR_DIALOG_INTERACTION
 18: 0x0AF7 [0x2B] Unnamed NPC (ID: 17928230/0x01119026) [7800*]:
    → "Yes...in that chamber, visions of the most formidable of foes await you. And though they may be but passing fantasies, the battles will be no less demanding."
 19: 0x0AFE [0x23] WAIT_FOR_DIALOG_INTERACTION
 20: 0x0AFF [0x2B] Unnamed NPC (ID: 17928231/0x01119027) [7801*]:
    → "And yet, since there is no substance to the terrors you will face, there will be nothing to be gained from your triumphs...if you triumph at all."
 21: 0x0B06 [0x23] WAIT_FOR_DIALOG_INTERACTION
 22: 0x0B07 [0x2B] Unnamed NPC (ID: 17928230/0x01119026) [7802*]:
    → "You seek no material gain, but only the honor and glory of the fight...?"
 23: 0x0B0E [0x23] WAIT_FOR_DIALOG_INTERACTION
 24: 0x0B0F [0x2B] Unnamed NPC (ID: 17928231/0x01119027) [7803*]:
    → "Very well...then honor and glory shall be yours."
 25: 0x0B16 [0x23] WAIT_FOR_DIALOG_INTERACTION
 26: 0x0B17 [0x1C] WAIT(60* ticks)
 27: 0x0B1A [0x48] [System] [7805*]:
    → "Silence descends once more."
 28: 0x0B1D [0x23] WAIT_FOR_DIALOG_INTERACTION
 29: 0x0B1E [0x21] END_EVENT
 30: 0x0B1F [0x00] END_REQSTACK()
```

### Event 53

#### Metadata

| Field        | Value     |
|--------------|-----------|
| Entrypoint   | 0x0B20    |
| Data Size    | 592 bytes |
| Instructions | 90        |

```
      00 01 02 03 04 05 06 07  08 09 0A 0B 0C 0D 0E 0F
      -- -- -- -- -- -- -- --  -- -- -- -- -- -- -- --
0B20: 42 1A 4C 39 46 01 38 00  80 4E 00 F0 FF FF 7F AB  B.L9F.8..N......
0B30: 09 5D 01 80 02 80 6A 01  80 02 80 03 80 4E 00 39  .]....j......N.9
0B40: 90 11 01 27 10 26 90 11  01 04 27 10 27 90 11 01  ...'.&....'.'...
0B50: 04 92 01 26 90 11 01 92  01 27 90 11 01 94 01 F0  ...&.....'......
0B60: FF FF 7F 94 01 26 90 11  01 94 01 27 90 11 01 94  .....&.....'....
0B70: 01 39 90 11 01 59 05 F0  FF FF 7F 01 59 05 26 90  .9...Y......Y.&.
0B80: 11 01 01 59 05 27 90 11  01 01 59 05 39 90 11 01  ...Y.'....Y.9...
0B90: 01 BA F0 FF FF 7F 38 80  39 80 06 80 3A 80 BA 26  ......8.9...:..&
0BA0: 90 11 01 0A 80 0B 80 0C  80 0D 80 BA 27 90 11 01  ............'...
0BB0: 3B 80 3C 80 10 80 3D 80  BA 39 90 11 01 12 80 13  ;.<...=..9......
0BC0: 80 06 80 14 80 29 10 26  90 11 01 19 29 10 27 90  .....).&....).'.
0BD0: 11 01 17 80 F0 FF FF 7F  80 26 90 11 01 80 27 90  .........&....'.
0BE0: 11 01 80 39 90 11 01 1C  15 80 29 10 26 90 11 01  ...9......).&...
0BF0: 1B 29 10 27 90 11 01 19  C5 16 80 39 90 11 01 39  .).'.......9...9
0C00: 90 11 01 73 30 30 30 01  80 4A F0 FF FF 7F 26 90  ...s000..J....&.
0C10: 11 01 4A 26 90 11 01 F0  FF FF 7F 4A 27 90 11 01  ..J&.......J'...
0C20: F0 FF FF 7F 7B 26 90 11  01 7B 27 90 11 01 5C 00  ....{&...{'...\.
0C30: 18 80 5C 01 18 80 9A 45  19 80 F8 FF FF 7F F8 FF  ..\....E........
0C40: FF 7F 62 64 30 31 01 80  1A 2B 39 2B 26 90 11 01  ..bd01...+9+&...
0C50: 58 80 23 2B 26 90 11 01  59 80 23 52 19 80 F8 FF  X.#+&...Y.#R....
0C60: FF 7F F8 FF FF 7F 62 64  30 31 45 19 80 F8 FF FF  ......bd01E.....
0C70: 7F F8 FF FF 7F 62 64 30  32 01 80 2B 26 90 11 01  .....bd02..+&...
0C80: 5A 80 23 1C 15 80 2B 27  90 11 01 5B 80 79 00 F0  Z.#...+'...[.y..
0C90: FF FF 7F 27 90 11 01 1C  20 80 23 2B 27 90 11 01  ...'.... .#+'...
0CA0: 5C 80 23 52 19 80 F8 FF  FF 7F F8 FF FF 7F 62 64  \.#R..........bd
0CB0: 30 32 45 19 80 F8 FF FF  7F F8 FF FF 7F 62 64 30  02E..........bd0
0CC0: 33 01 80 2B 26 90 11 01  41 80 23 52 19 80 F8 FF  3..+&...A.#R....
0CD0: FF 7F F8 FF FF 7F 62 64  30 33 45 19 80 F8 FF FF  ......bd03E.....
0CE0: 7F F8 FF FF 7F 62 64 30  34 01 80 5D 01 80 1C 80  .....bd04..]....
0CF0: 1C 4B 80 1A 8E 39 1C 15  80 52 19 80 F8 FF FF 7F  .K...9...R......
0D00: F8 FF FF 7F 62 64 30 34  45 19 80 F8 FF FF 7F F8  ....bd04E.......
0D10: FF FF 7F 30 62 6C 66 01  80 1A 4C 39 1A 6D 39 C5  ...0blf...L9.m9.
0D20: 16 80 39 90 11 01 39 90  11 01 6B 69 6C 30 01 80  ..9...9...kil0..
0D30: 27 05 26 90 11 01 0C 27  05 27 90 11 01 0C 78 6A  '.&....'.'....xj
0D40: 34 80 02 80 03 80 5C 00  35 80 5C 01 35 80 9A 1C  4.....\.5.\.5...
0D50: 1A 80 AB 11 01 80 1C 36  80 AB 0A 46 00 45 37 80  .......6...F.E7.
0D60: F0 FF FF 7F F0 FF FF 7F  66 64 69 32 01 80 21 00  ........fdi2..!.
```

#### Opcodes

```
  0: 0x0B20 [0x42] SET_CLI_EVENT_CANCEL_DATA()
  1: 0x0B21 [0x1A] CALL_SUBROUTINE(address=0x394C)
  2: 0x0B24 [0x46] CAMERA_CONTROL: Disable user control
  3: 0x0B26 [0x38] SET_CLIENT_EVENT_MODE(mode=19*)
  4: 0x0B29 [0x4E] SET_ENTITY_HIDE_FLAG: Show LocalPlayer
  5: 0x0B2F [0xAB] EventEntity->UnknownFlag = 1 // Enable unknown flag
  6: 0x0B31 [0x5D] SET_MUSIC_VOLUME(volume=0*, fade_time=60*)
  7: 0x0B36 [0x6A] CHANGE_SOUND_VOLUME: Set (System/Zone)* volume to 0*, fade_time=60*
  8: 0x0B3D [0x4E] SET_ENTITY_HIDE_FLAG: Show Unnamed NPC (ID: 17928249/0x01119039)
  9: 0x0B43 [0x27] REQ_SET(priority=0x10, entity_id=Unnamed NPC (ID: 17928230/0x01119026), tag_num=0x04)
 10: 0x0B4A [0x27] REQ_SET(priority=0x10, entity_id=Unnamed NPC (ID: 17928231/0x01119027), tag_num=0x04)
 11: 0x0B51 [0x92] Unnamed NPC (ID: 17928230/0x01119026)->Render.Flags3 ^= 0x01
 12: 0x0B57 [0x92] Unnamed NPC (ID: 17928231/0x01119027)->Render.Flags3 ^= 0x01
 13: 0x0B5D [0x94] LocalPlayer->Render.Flags3 ^= 0x01
 14: 0x0B63 [0x94] Unnamed NPC (ID: 17928230/0x01119026)->Render.Flags3 ^= 0x01
 15: 0x0B69 [0x94] Unnamed NPC (ID: 17928231/0x01119027)->Render.Flags3 ^= 0x01
 16: 0x0B6F [0x94] Unnamed NPC (ID: 17928249/0x01119039)->Render.Flags3 ^= 0x01
 17: 0x0B75 [0x59] UPDATE_ENTITY_DATA: LocalPlayer->Render.Flags0 |= 0x200000
 18: 0x0B7C [0x59] UPDATE_ENTITY_DATA: Unnamed NPC (ID: 17928230/0x01119026)->Render.Flags0 |= 0x200000
 19: 0x0B83 [0x59] UPDATE_ENTITY_DATA: Unnamed NPC (ID: 17928231/0x01119027)->Render.Flags0 |= 0x200000
 20: 0x0B8A [0x59] UPDATE_ENTITY_DATA: Unnamed NPC (ID: 17928249/0x01119039)->Render.Flags0 |= 0x200000
 21: 0x0B91 [0xBA] SET_ENTITY_POSITION(entity_id=LocalPlayer, pos_x=-57.293*, pos_z=-45.419*, pos_y=-250.878*, direction=200.6°*)
 22: 0x0B9E [0xBA] SET_ENTITY_POSITION(entity_id=Unnamed NPC (ID: 17928230/0x01119026), pos_x=-59.390*, pos_z=-44.746*, pos_y=-250.578*, direction=32.3°*)
 23: 0x0BAB [0xBA] SET_ENTITY_POSITION(entity_id=Unnamed NPC (ID: 17928231/0x01119027), pos_x=-59.053*, pos_z=-43.221*, pos_y=-250.378*, direction=17.4°*)
 24: 0x0BB8 [0xBA] SET_ENTITY_POSITION(entity_id=Unnamed NPC (ID: 17928249/0x01119039), pos_x=-51.112*, pos_z=-44.060*, pos_y=-250.878*, direction=163.6°*)
 25: 0x0BC5 [0x29] REQ_SET_WAIT(priority=0x10, entity_id=Unnamed NPC (ID: 17928230/0x01119026), tag_num=0x19)
 26: 0x0BCC [0x29] REQ_SET_WAIT(priority=0x10, entity_id=Unnamed NPC (ID: 17928231/0x01119027), tag_num=0x17)
 27: 0x0BD3 [0x80] LOAD_WAIT(entity=LocalPlayer)
 28: 0x0BD8 [0x80] LOAD_WAIT(entity=Unnamed NPC (ID: 17928230/0x01119026))
 29: 0x0BDD [0x80] LOAD_WAIT(entity=Unnamed NPC (ID: 17928231/0x01119027))
 30: 0x0BE2 [0x80] LOAD_WAIT(entity=Unnamed NPC (ID: 17928249/0x01119039))
 31: 0x0BE7 [0x1C] WAIT(30* ticks)
 32: 0x0BEA [0x29] REQ_SET_WAIT(priority=0x10, entity_id=Unnamed NPC (ID: 17928230/0x01119026), tag_num=0x1B)
 33: 0x0BF1 [0x29] REQ_SET_WAIT(priority=0x10, entity_id=Unnamed NPC (ID: 17928231/0x01119027), tag_num=0x19)
 34: 0x0BF8 [0xC5] LOAD_SCHEDULED_TASK_ALT3: Load scheduler 0x80013030 for entities [Unnamed NPC (ID: 17928249/0x01119039), Unnamed NPC (ID: 17928249/0x01119039)], work=172*, param=12403
 35: 0x0C09 [0x4A] LocalPlayer looks at Unnamed NPC (ID: 17928230/0x01119026)
 36: 0x0C12 [0x4A] Unnamed NPC (ID: 17928230/0x01119026) looks at LocalPlayer
 37: 0x0C1B [0x4A] Unnamed NPC (ID: 17928231/0x01119027) looks at LocalPlayer
 38: 0x0C24 [0x7B] Unnamed NPC (ID: 17928230/0x01119026) stops talking
 39: 0x0C29 [0x7B] Unnamed NPC (ID: 17928231/0x01119027) stops talking
 40: 0x0C2E [0x5C] MUSIC_CONTROL: Set Idle (Day) music to song 61*
 41: 0x0C32 [0x5C] MUSIC_CONTROL: Set Idle (Night) music to song 61*
 42: 0x0C36 [0x9A] WAIT_MUSIC_SERVER()
 43: 0x0C37 [0x45] LOAD_SCHEDULED_TASK: Load scheduler "bd01" with entities [EventEntity, EventEntity], work=[730*, 0*]
 44: 0x0C48 [0x1A] CALL_SUBROUTINE(address=0x392B)
 45: 0x0C4B [0x2B] Unnamed NPC (ID: 17928230/0x01119026) [7806*]:
    → "Spirits are only one part of the experiments, tests, and trials. The other part...is throwing yourself against your foes over and over."
 46: 0x0C52 [0x23] WAIT_FOR_DIALOG_INTERACTION
 47: 0x0C53 [0x2B] Unnamed NPC (ID: 17928230/0x01119026) [7807*]:
    → "Hehehe, and you certainly are enjoying yourself."
 48: 0x0C5A [0x23] WAIT_FOR_DIALOG_INTERACTION
 49: 0x0C5B [0x52] END_LOAD_SCHEDULER: End scheduler "bd01" with entities [EventEntity, EventEntity], work=730*
 50: 0x0C6A [0x45] LOAD_SCHEDULED_TASK: Load scheduler "bd02" with entities [EventEntity, EventEntity], work=[730*, 0*]
 51: 0x0C7B [0x2B] Unnamed NPC (ID: 17928230/0x01119026) [7808*]:
    → "Much enjoyment to be had! Your soul beams at the very mention of combat!"
 52: 0x0C82 [0x23] WAIT_FOR_DIALOG_INTERACTION
 53: 0x0C83 [0x1C] WAIT(30* ticks)
 54: 0x0C86 [0x2B] Unnamed NPC (ID: 17928231/0x01119027) [7809*]:
    → "No, no, no! The spirit tells no lies!"
 55: 0x0C8D [0x79] LocalPlayer looks at Unnamed NPC (ID: 17928231/0x01119027) (Basic look)
 56: 0x0C97 [0x1C] WAIT(45* ticks)
 57: 0x0C9A [0x23] WAIT_FOR_DIALOG_INTERACTION
 58: 0x0C9B [0x2B] Unnamed NPC (ID: 17928231/0x01119027) [7810*]:
    → "Some may call it a blood craze, a lust for battle, an inclination for combat, but our master is pleased at your successes, no matter the reason behind them."
 59: 0x0CA2 [0x23] WAIT_FOR_DIALOG_INTERACTION
 60: 0x0CA3 [0x52] END_LOAD_SCHEDULER: End scheduler "bd02" with entities [EventEntity, EventEntity], work=730*
 61: 0x0CB2 [0x45] LOAD_SCHEDULED_TASK: Load scheduler "bd03" with entities [EventEntity, EventEntity], work=[730*, 0*]
 62: 0x0CC3 [0x2B] Unnamed NPC (ID: 17928230/0x01119026) [7786*]:
    → "Honored to receive your just reward!"
 63: 0x0CCA [0x23] WAIT_FOR_DIALOG_INTERACTION
 64: 0x0CCB [0x52] END_LOAD_SCHEDULER: End scheduler "bd03" with entities [EventEntity, EventEntity], work=730*
 65: 0x0CDA [0x45] LOAD_SCHEDULED_TASK: Load scheduler "bd04" with entities [EventEntity, EventEntity], work=[730*, 0*]
 66: 0x0CEB [0x5D] SET_MUSIC_VOLUME(volume=0*, fade_time=120*)
 67: 0x0CF0 [0x1C] WAIT(90* ticks)
 68: 0x0CF3 [0x1A] CALL_SUBROUTINE(address=0x398E)
 69: 0x0CF6 [0x1C] WAIT(30* ticks)
 70: 0x0CF9 [0x52] END_LOAD_SCHEDULER: End scheduler "bd04" with entities [EventEntity, EventEntity], work=730*
 71: 0x0D08 [0x45] LOAD_SCHEDULED_TASK: Load scheduler "0blf" with entities [EventEntity, EventEntity], work=[730*, 0*]
 72: 0x0D19 [0x1A] CALL_SUBROUTINE(address=0x394C)
 73: 0x0D1C [0x1A] CALL_SUBROUTINE(address=0x396D)
 74: 0x0D1F [0xC5] LOAD_SCHEDULED_TASK_ALT3: Load scheduler 0x8001306C for entities [Unnamed NPC (ID: 17928249/0x01119039), Unnamed NPC (ID: 17928249/0x01119039)], work=172*, param=26987
 75: 0x0D30 [0x27] REQ_SET(priority=0x05, entity_id=Unnamed NPC (ID: 17928230/0x01119026), tag_num=0x0C)
 76: 0x0D37 [0x27] REQ_SET(priority=0x05, entity_id=Unnamed NPC (ID: 17928231/0x01119027), tag_num=0x0C)
 77: 0x0D3E [0x78] ENABLE_GAME_TIMER_RESET_WEATHER()
 78: 0x0D3F [0x6A] CHANGE_SOUND_VOLUME: Set (System/Zone)* volume to 999*, fade_time=60*
 79: 0x0D46 [0x5C] MUSIC_CONTROL: Set Idle (Day) music to song 72*
 80: 0x0D4A [0x5C] MUSIC_CONTROL: Set Idle (Night) music to song 72*
 81: 0x0D4E [0x9A] WAIT_MUSIC_SERVER()
 82: 0x0D4F [0x1C] WAIT(15* ticks)
 83: 0x0D52 [0xAB] EventEntity->DespawnValue = 0* // Set despawn value
 84: 0x0D56 [0x1C] WAIT(1* ticks)
 85: 0x0D59 [0xAB] EventEntity->UnknownFlag = 0 // Disable unknown flag
 86: 0x0D5B [0x46] CAMERA_CONTROL: Restore default settings
 87: 0x0D5D [0x45] LOAD_SCHEDULED_TASK: Load scheduler "fdi2" with entities [LocalPlayer, LocalPlayer], work=[200*, 0*]
 88: 0x0D6E [0x21] END_EVENT
 89: 0x0D6F [0x00] END_REQSTACK()
```

### Event 55

#### Metadata

| Field        | Value      |
|--------------|------------|
| Entrypoint   | 0x0D70     |
| Data Size    | 1921 bytes |
| Instructions | 229        |

```
      00 01 02 03 04 05 06 07  08 09 0A 0B 0C 0D 0E 0F
      -- -- -- -- -- -- -- --  -- -- -- -- -- -- -- --
0D70: 42 1A 4C 39 03 09 00 09  10 46 01 38 00 80 4E 00  B.L9.....F.8..N.
0D80: F0 FF FF 7F AB 09 5D 01  80 02 80 6A 01 80 02 80  ......]....j....
0D90: 03 80 4E 00 39 90 11 01  27 10 25 90 11 01 04 92  ..N.9...'.%.....
0DA0: 01 25 90 11 01 94 01 F0  FF FF 7F 94 01 25 90 11  .%...........%..
0DB0: 01 94 01 39 90 11 01 59  05 F0 FF FF 7F 01 59 05  ...9...Y......Y.
0DC0: 25 90 11 01 01 59 05 39  90 11 01 01 BA F0 FF FF  %....Y.9........
0DD0: 7F 38 80 39 80 06 80 3A  80 BA 25 90 11 01 08 80  .8.9...:..%.....
0DE0: 09 80 06 80 5D 80 BA 39  90 11 01 12 80 13 80 06  ....]..9........
0DF0: 80 14 80 29 10 25 90 11  01 1A 80 F0 FF FF 7F 80  ...).%..........
0E00: 25 90 11 01 80 39 90 11  01 1C 15 80 29 10 F0 FF  %....9......)...
0E10: FF 7F 02 29 10 25 90 11  01 1B C5 16 80 39 90 11  ...).%.......9..
0E20: 01 39 90 11 01 73 30 30  30 01 80 5B 5E 80 25 90  .9...s000..[^.%.
0E30: 11 01 25 90 11 01 75 73  69 30 5C 00 18 80 5C 01  ..%...usi0\...\.
0E40: 18 80 9A 45 19 80 F8 FF  FF 7F F8 FF FF 7F 62 65  ...E..........be
0E50: 30 31 01 80 1A 2B 39 1C  02 80 79 00 F0 FF FF 7F  01...+9...y.....
0E60: 25 90 11 01 29 10 F0 FF  FF 7F 03 52 19 80 F8 FF  %...)......R....
0E70: FF 7F F8 FF FF 7F 62 65  30 31 45 19 80 F8 FF FF  ......be01E.....
0E80: 7F F8 FF FF 7F 62 65 30  32 01 80 5F 05 5E 80 25  .....be02.._.^.%
0E90: 90 11 01 25 90 11 01 75  73 69 31 5F 80 5F 07 25  ...%...usi1_._.%
0EA0: 90 11 01 25 90 11 01 75  73 69 31 52 19 80 F8 FF  ...%...usi1R....
0EB0: FF 7F F8 FF FF 7F 62 65  30 32 45 19 80 F8 FF FF  ......be02E.....
0EC0: 7F F8 FF FF 7F 62 65 30  34 01 80 1C 15 80 2B 25  .....be04.....+%
0ED0: 90 11 01 60 80 1C 4B 80  23 52 19 80 F8 FF FF 7F  ...`..K.#R......
0EE0: F8 FF FF 7F 62 65 30 34  45 19 80 F8 FF FF 7F F8  ....be04E.......
0EF0: FF FF 7F 62 65 30 35 01  80 1C 15 80 2B 25 90 11  ...be05.....+%..
0F00: 01 61 80 23 1C 02 80 2B  25 90 11 01 62 80 23 52  .a.#...+%...b.#R
0F10: 19 80 F8 FF FF 7F F8 FF  FF 7F 62 65 30 35 45 19  ..........be05E.
0F20: 80 F8 FF FF 7F F8 FF FF  7F 62 65 30 36 01 80 5F  .........be06.._
0F30: 05 5E 80 25 90 11 01 25  90 11 01 6C 61 68 30 31  .^.%...%...lah01
0F40: 80 2B 25 90 11 01 63 80  23 5F 07 25 90 11 01 25  .+%...c.#_.%...%
0F50: 90 11 01 6C 61 68 30 52  19 80 F8 FF FF 7F F8 FF  ...lah0R........
0F60: FF 7F 62 65 30 36 45 19  80 F8 FF FF 7F F8 FF FF  ..be06E.........
0F70: 7F 62 65 30 37 01 80 29  10 F0 FF FF 7F 0E 1C 15  .be07..)........
0F80: 80 29 10 25 90 11 01 1D  2B 25 90 11 01 64 80 23  .).%....+%...d.#
0F90: 29 10 25 90 11 01 1C 2B  25 90 11 01 65 80 23 52  ).%....+%...e.#R
0FA0: 19 80 F8 FF FF 7F F8 FF  FF 7F 62 65 30 37 45 19  ..........be07E.
0FB0: 80 F8 FF FF 7F F8 FF FF  7F 62 65 30 38 01 80 5F  .........be08.._
0FC0: 05 5E 80 25 90 11 01 25  90 11 01 74 68 6B 30 31  .^.%...%...thk01
0FD0: 80 1C 15 80 2B 25 90 11  01 66 80 23 03 02 10 45  ....+%...f.#...E
0FE0: 80 2B 25 90 11 01 67 80  23 5F 07 25 90 11 01 25  .+%...g.#_.%...%
0FF0: 90 11 01 74 68 6B 30 5F  05 5E 80 25 90 11 01 25  ...thk0_.^.%...%
1000: 90 11 01 74 68 6B 31 31  80 1C 15 80 52 19 80 F8  ...thk11....R...
1010: FF FF 7F F8 FF FF 7F 62  65 30 38 45 19 80 F8 FF  .......be08E....
1020: FF 7F F8 FF FF 7F 62 65  30 39 01 80 1C 1A 80 2B  ......be09.....+
1030: 25 90 11 01 68 80 23 5F  07 25 90 11 01 25 90 11  %...h.#_.%...%..
1040: 01 74 68 6B 31 52 19 80  F8 FF FF 7F F8 FF FF 7F  .thk1R..........
1050: 62 65 30 39 45 19 80 F8  FF FF 7F F8 FF FF 7F 62  be09E..........b
1060: 65 31 30 01 80 5F 05 5E  80 25 90 11 01 25 90 11  e10.._.^.%...%..
1070: 01 74 6C 6B 30 69 80 2B  25 90 11 01 6A 80 23 2B  .tlk0i.+%...j.#+
1080: 25 90 11 01 6B 80 23 5F  07 25 90 11 01 25 90 11  %...k.#_.%...%..
1090: 01 74 6C 6B 30 52 19 80  F8 FF FF 7F F8 FF FF 7F  .tlk0R..........
10A0: 62 65 31 30 45 19 80 F8  FF FF 7F F8 FF FF 7F 62  be10E..........b
10B0: 65 31 31 01 80 5F 05 5E  80 25 90 11 01 25 90 11  e11.._.^.%...%..
10C0: 01 74 6C 6B 31 69 80 1C  20 80 2B 25 90 11 01 6C  .tlk1i.. .+%...l
10D0: 80 23 5F 07 25 90 11 01  25 90 11 01 74 6C 6B 31  .#_.%...%...tlk1
10E0: 6E F0 FF FF 7F 6D 80 99  F0 FF FF 7F 1C 1C 80 5F  n....m........._
10F0: 05 5E 80 25 90 11 01 25  90 11 01 6C 61 68 30 31  .^.%...%...lah01
1100: 80 2B 25 90 11 01 6E 80  23 5F 07 25 90 11 01 25  .+%...n.#_.%...%
1110: 90 11 01 6C 61 68 30 52  19 80 F8 FF FF 7F F8 FF  ...lah0R........
1120: FF 7F 62 65 31 31 45 19  80 F8 FF FF 7F F8 FF FF  ..be11E.........
1130: 7F 62 65 31 32 01 80 5F  05 5E 80 25 90 11 01 25  .be12.._.^.%...%
1140: 90 11 01 74 6C 6B 30 69  80 2B 25 90 11 01 6F 80  ...tlk0i.+%...o.
1150: 23 2B 25 90 11 01 70 80  23 5F 07 25 90 11 01 25  #+%...p.#_.%...%
1160: 90 11 01 74 6C 6B 30 52  19 80 F8 FF FF 7F F8 FF  ...tlk0R........
1170: FF 7F 62 65 31 32 45 19  80 F8 FF FF 7F F8 FF FF  ..be12E.........
1180: 7F 62 65 31 33 01 80 5F  05 5E 80 25 90 11 01 25  .be13.._.^.%...%
1190: 90 11 01 74 6C 6B 31 69  80 2B 25 90 11 01 71 80  ...tlk1i.+%...q.
11A0: 23 02 09 00 01 80 00 FC  11 2B 25 90 11 01 72 80  #........+%...r.
11B0: 23 5F 07 25 90 11 01 25  90 11 01 74 6C 6B 31 52  #_.%...%...tlk1R
11C0: 19 80 F8 FF FF 7F F8 FF  FF 7F 62 65 31 32 45 19  ..........be12E.
11D0: 80 F8 FF FF 7F F8 FF FF  7F 62 65 31 34 01 80 03  .........be14...
11E0: 02 10 2E 80 2B 25 90 11  01 73 80 23 03 02 10 45  ....+%...s.#...E
11F0: 80 2B 25 90 11 01 74 80  23 01 5F 12 2B 25 90 11  .+%...t.#._.+%..
1200: 01 75 80 23 5F 07 25 90  11 01 25 90 11 01 74 6C  .u.#_.%...%...tl
1210: 6B 31 52 19 80 F8 FF FF  7F F8 FF FF 7F 62 65 31  k1R..........be1
1220: 32 45 19 80 F8 FF FF 7F  F8 FF FF 7F 62 65 31 34  2E..........be14
1230: 01 80 5F 05 5E 80 25 90  11 01 25 90 11 01 6C 61  .._.^.%...%...la
1240: 68 30 31 80 03 02 10 2E  80 2B 25 90 11 01 76 80  h01......+%...v.
1250: 23 5F 07 25 90 11 01 25  90 11 01 6C 61 68 30 03  #_.%...%...lah0.
1260: 03 10 77 80 2B 25 90 11  01 78 80 23 52 19 80 F8  ..w.+%...x.#R...
1270: FF FF 7F F8 FF FF 7F 62  65 31 34 45 19 80 F8 FF  .......be14E....
1280: FF 7F F8 FF FF 7F 62 65  31 35 01 80 2B 25 90 11  ......be15..+%..
1290: 01 79 80 23 5F 05 5E 80  25 90 11 01 25 90 11 01  .y.#_.^.%...%...
12A0: 6E 6F 6E 30 69 80 2B 25  90 11 01 7A 80 23 5F 07  non0i.+%...z.#_.
12B0: 25 90 11 01 25 90 11 01  6E 6F 6E 30 52 19 80 F8  %...%...non0R...
12C0: FF FF 7F F8 FF FF 7F 62  65 31 35 45 19 80 F8 FF  .......be15E....
12D0: FF 7F F8 FF FF 7F 62 65  31 36 01 80 2B 25 90 11  ......be16..+%..
12E0: 01 7B 80 23 2B 25 90 11  01 7C 80 23 2B 25 90 11  .{.#+%...|.#+%..
12F0: 01 7D 80 23 52 19 80 F8  FF FF 7F F8 FF FF 7F 62  .}.#R..........b
1300: 65 31 36 45 19 80 F8 FF  FF 7F F8 FF FF 7F 62 65  e16E..........be
1310: 31 37 01 80 5F 05 5E 80  25 90 11 01 25 90 11 01  17.._.^.%...%...
1320: 6C 61 68 30 31 80 2B 25  90 11 01 7E 80 23 2B 25  lah01.+%...~.#+%
1330: 90 11 01 7F 80 23 5F 07  25 90 11 01 25 90 11 01  .....#_.%...%...
1340: 6C 61 68 30 52 19 80 F8  FF FF 7F F8 FF FF 7F 62  lah0R..........b
1350: 65 31 37 45 19 80 F8 FF  FF 7F F8 FF FF 7F 62 65  e17E..........be
1360: 31 38 01 80 2B 25 90 11  01 80 80 23 5F 05 5E 80  18..+%.....#_.^.
1370: 25 90 11 01 25 90 11 01  74 6C 6B 30 69 80 2B 25  %...%...tlk0i.+%
1380: 90 11 01 81 80 23 2B 25  90 11 01 82 80 23 5F 07  .....#+%.....#_.
1390: 25 90 11 01 25 90 11 01  74 6C 6B 30 52 19 80 F8  %...%...tlk0R...
13A0: FF FF 7F F8 FF FF 7F 62  65 31 38 45 19 80 F8 FF  .......be18E....
13B0: FF 7F F8 FF FF 7F 62 65  31 39 01 80 5F 05 5E 80  ......be19.._.^.
13C0: 25 90 11 01 25 90 11 01  74 6C 6B 31 69 80 1C 20  %...%...tlk1i.. 
13D0: 80 2B 25 90 11 01 83 80  23 5F 07 25 90 11 01 25  .+%.....#_.%...%
13E0: 90 11 01 74 6C 6B 31 5F  05 5E 80 25 90 11 01 25  ...tlk1_.^.%...%
13F0: 90 11 01 6C 61 68 30 31  80 2B 25 90 11 01 84 80  ...lah01.+%.....
1400: 23 5F 07 25 90 11 01 25  90 11 01 6C 61 68 30 52  #_.%...%...lah0R
1410: 19 80 F8 FF FF 7F F8 FF  FF 7F 62 65 31 39 45 19  ..........be19E.
1420: 80 F8 FF FF 7F F8 FF FF  7F 62 65 32 30 01 80 2B  .........be20..+
1430: 25 90 11 01 85 80 23 2B  25 90 11 01 86 80 23 52  %.....#+%.....#R
1440: 19 80 F8 FF FF 7F F8 FF  FF 7F 62 65 32 30 45 19  ..........be20E.
1450: 80 F8 FF FF 7F F8 FF FF  7F 62 65 32 31 01 80 1C  .........be21...
1460: 15 80 2B 25 90 11 01 87  80 23 1A 8E 39 1C 15 80  ..+%.....#..9...
1470: 52 19 80 F8 FF FF 7F F8  FF FF 7F 62 65 32 31 45  R..........be21E
1480: 19 80 F8 FF FF 7F F8 FF  FF 7F 30 62 6C 66 01 80  ..........0blf..
1490: 1A 4C 39 1A 6D 39 C5 16  80 39 90 11 01 39 90 11  .L9.m9...9...9..
14A0: 01 6B 69 6C 30 01 80 C5  17 80 25 90 11 01 25 90  .kil0.....%...%.
14B0: 11 01 6B 69 6C 6C 01 80  27 05 25 90 11 01 0C 78  ..kill..'.%....x
14C0: 6A 34 80 02 80 03 80 5C  00 35 80 5C 01 35 80 9A  j4.....\.5.\.5..
14D0: 1C 1A 80 AB 11 01 80 1C  36 80 AB 0A 46 00 45 37  ........6...F.E7
14E0: 80 F0 FF FF 7F F0 FF FF  7F 66 64 69 32 01 80 21  .........fdi2..!
14F0: 00                                                .               
```

#### Opcodes

```
  0: 0x0D70 [0x42] SET_CLI_EVENT_CANCEL_DATA()
  1: 0x0D71 [0x1A] CALL_SUBROUTINE(address=0x394C)
  2: 0x0D74 [0x03] ExtData[1]->WorkLocal[9] = Work_Zone[9]
  3: 0x0D79 [0x46] CAMERA_CONTROL: Disable user control
  4: 0x0D7B [0x38] SET_CLIENT_EVENT_MODE(mode=19*)
  5: 0x0D7E [0x4E] SET_ENTITY_HIDE_FLAG: Show LocalPlayer
  6: 0x0D84 [0xAB] EventEntity->UnknownFlag = 1 // Enable unknown flag
  7: 0x0D86 [0x5D] SET_MUSIC_VOLUME(volume=0*, fade_time=60*)
  8: 0x0D8B [0x6A] CHANGE_SOUND_VOLUME: Set (System/Zone)* volume to 0*, fade_time=60*
  9: 0x0D92 [0x4E] SET_ENTITY_HIDE_FLAG: Show Unnamed NPC (ID: 17928249/0x01119039)
 10: 0x0D98 [0x27] REQ_SET(priority=0x10, entity_id=Unnamed NPC (ID: 17928229/0x01119025), tag_num=0x04)
 11: 0x0D9F [0x92] Unnamed NPC (ID: 17928229/0x01119025)->Render.Flags3 ^= 0x01
 12: 0x0DA5 [0x94] LocalPlayer->Render.Flags3 ^= 0x01
 13: 0x0DAB [0x94] Unnamed NPC (ID: 17928229/0x01119025)->Render.Flags3 ^= 0x01
 14: 0x0DB1 [0x94] Unnamed NPC (ID: 17928249/0x01119039)->Render.Flags3 ^= 0x01
 15: 0x0DB7 [0x59] UPDATE_ENTITY_DATA: LocalPlayer->Render.Flags0 |= 0x200000
 16: 0x0DBE [0x59] UPDATE_ENTITY_DATA: Unnamed NPC (ID: 17928229/0x01119025)->Render.Flags0 |= 0x200000
 17: 0x0DC5 [0x59] UPDATE_ENTITY_DATA: Unnamed NPC (ID: 17928249/0x01119039)->Render.Flags0 |= 0x200000
 18: 0x0DCC [0xBA] SET_ENTITY_POSITION(entity_id=LocalPlayer, pos_x=-57.293*, pos_z=-45.419*, pos_y=-250.878*, direction=200.6°*)
 19: 0x0DD9 [0xBA] SET_ENTITY_POSITION(entity_id=Unnamed NPC (ID: 17928229/0x01119025), pos_x=-63.009*, pos_z=-42.701*, pos_y=-250.878*, direction=27.5°*)
 20: 0x0DE6 [0xBA] SET_ENTITY_POSITION(entity_id=Unnamed NPC (ID: 17928249/0x01119039), pos_x=-51.112*, pos_z=-44.060*, pos_y=-250.878*, direction=163.6°*)
 21: 0x0DF3 [0x29] REQ_SET_WAIT(priority=0x10, entity_id=Unnamed NPC (ID: 17928229/0x01119025), tag_num=0x1A)
 22: 0x0DFA [0x80] LOAD_WAIT(entity=LocalPlayer)
 23: 0x0DFF [0x80] LOAD_WAIT(entity=Unnamed NPC (ID: 17928229/0x01119025))
 24: 0x0E04 [0x80] LOAD_WAIT(entity=Unnamed NPC (ID: 17928249/0x01119039))
 25: 0x0E09 [0x1C] WAIT(30* ticks)
 26: 0x0E0C [0x29] REQ_SET_WAIT(priority=0x10, entity_id=LocalPlayer, tag_num=0x02)
 27: 0x0E13 [0x29] REQ_SET_WAIT(priority=0x10, entity_id=Unnamed NPC (ID: 17928229/0x01119025), tag_num=0x1B)
 28: 0x0E1A [0xC5] LOAD_SCHEDULED_TASK_ALT3: Load scheduler 0x80013030 for entities [Unnamed NPC (ID: 17928249/0x01119039), Unnamed NPC (ID: 17928249/0x01119039)], work=172*, param=12403
 29: 0x0E2B [0x5B] LOAD_EXT_SCHEDULER: Load scheduler "usi0" with entities [Unnamed NPC (ID: 17928229/0x01119025), Unnamed NPC (ID: 17928229/0x01119025)], work=3851*
 30: 0x0E3A [0x5C] MUSIC_CONTROL: Set Idle (Day) music to song 61*
 31: 0x0E3E [0x5C] MUSIC_CONTROL: Set Idle (Night) music to song 61*
 32: 0x0E42 [0x9A] WAIT_MUSIC_SERVER()
 33: 0x0E43 [0x45] LOAD_SCHEDULED_TASK: Load scheduler "be01" with entities [EventEntity, EventEntity], work=[730*, 0*]
 34: 0x0E54 [0x1A] CALL_SUBROUTINE(address=0x392B)
 35: 0x0E57 [0x1C] WAIT(60* ticks)
 36: 0x0E5A [0x79] LocalPlayer looks at Unnamed NPC (ID: 17928229/0x01119025) (Basic look)
 37: 0x0E64 [0x29] REQ_SET_WAIT(priority=0x10, entity_id=LocalPlayer, tag_num=0x03)
 38: 0x0E6B [0x52] END_LOAD_SCHEDULER: End scheduler "be01" with entities [EventEntity, EventEntity], work=730*
 39: 0x0E7A [0x45] LOAD_SCHEDULED_TASK: Load scheduler "be02" with entities [EventEntity, EventEntity], work=[730*, 0*]
 40: 0x0E8B [0x5F] MULTI_HANDLER_COMPLEX(mode=0x05 - Load ext scheduler with flag (OpCode 0x5B mode 0, flag 1), ref=3851*, entity1=Unnamed NPC (ID: 17928229/0x01119025), entity2=Unnamed NPC (ID: 17928229/0x01119025), string="usi1", extra=270*)
 41: 0x0E9D [0x5F] MULTI_HANDLER_COMPLEX(mode=0x07 - Wait scheduler task (OpCode 0x53))
 42: 0x0EAB [0x52] END_LOAD_SCHEDULER: End scheduler "be02" with entities [EventEntity, EventEntity], work=730*
 43: 0x0EBA [0x45] LOAD_SCHEDULED_TASK: Load scheduler "be04" with entities [EventEntity, EventEntity], work=[730*, 0*]
 44: 0x0ECB [0x1C] WAIT(30* ticks)
 45: 0x0ECE [0x2B] Unnamed NPC (ID: 17928229/0x01119025) [7811*]:
    → "I have been waiting for you, [son/daughter] of man."
 46: 0x0ED5 [0x1C] WAIT(90* ticks)
 47: 0x0ED8 [0x23] WAIT_FOR_DIALOG_INTERACTION
 48: 0x0ED9 [0x52] END_LOAD_SCHEDULER: End scheduler "be04" with entities [EventEntity, EventEntity], work=730*
 49: 0x0EE8 [0x45] LOAD_SCHEDULED_TASK: Load scheduler "be05" with entities [EventEntity, EventEntity], work=[730*, 0*]
 50: 0x0EF9 [0x1C] WAIT(30* ticks)
 51: 0x0EFC [0x2B] Unnamed NPC (ID: 17928229/0x01119025) [7812*]:
    → "And what did you call yourself again?"
 52: 0x0F03 [0x23] WAIT_FOR_DIALOG_INTERACTION
 53: 0x0F04 [0x1C] WAIT(60* ticks)
 54: 0x0F07 [0x2B] Unnamed NPC (ID: 17928229/0x01119025) [7813*]:
    → "Ah, yes. <Player>."
 55: 0x0F0E [0x23] WAIT_FOR_DIALOG_INTERACTION
 56: 0x0F0F [0x52] END_LOAD_SCHEDULER: End scheduler "be05" with entities [EventEntity, EventEntity], work=730*
 57: 0x0F1E [0x45] LOAD_SCHEDULED_TASK: Load scheduler "be06" with entities [EventEntity, EventEntity], work=[730*, 0*]
 58: 0x0F2F [0x5F] MULTI_HANDLER_COMPLEX(mode=0x05 - Load ext scheduler with flag (OpCode 0x5B mode 0, flag 1), ref=3851*, entity1=Unnamed NPC (ID: 17928229/0x01119025), entity2=Unnamed NPC (ID: 17928229/0x01119025), string="lah0", extra=150*)
 59: 0x0F41 [0x2B] Unnamed NPC (ID: 17928229/0x01119025) [7814*]:
    → "Hahaha! Normally I'm not one to remember the moniker of one with so short a lifespan, but yours stuck with me."
 60: 0x0F48 [0x23] WAIT_FOR_DIALOG_INTERACTION
 61: 0x0F49 [0x5F] MULTI_HANDLER_COMPLEX(mode=0x07 - Wait scheduler task (OpCode 0x53))
 62: 0x0F57 [0x52] END_LOAD_SCHEDULER: End scheduler "be06" with entities [EventEntity, EventEntity], work=730*
 63: 0x0F66 [0x45] LOAD_SCHEDULED_TASK: Load scheduler "be07" with entities [EventEntity, EventEntity], work=[730*, 0*]
 64: 0x0F77 [0x29] REQ_SET_WAIT(priority=0x10, entity_id=LocalPlayer, tag_num=0x0E)
 65: 0x0F7E [0x1C] WAIT(30* ticks)
 66: 0x0F81 [0x29] REQ_SET_WAIT(priority=0x10, entity_id=Unnamed NPC (ID: 17928229/0x01119025), tag_num=0x1D)
 67: 0x0F88 [0x2B] Unnamed NPC (ID: 17928229/0x01119025) [7815*]:
    → "My name? Skokkr Undrborn."
 68: 0x0F8F [0x23] WAIT_FOR_DIALOG_INTERACTION
 69: 0x0F90 [0x29] REQ_SET_WAIT(priority=0x10, entity_id=Unnamed NPC (ID: 17928229/0x01119025), tag_num=0x1C)
 70: 0x0F97 [0x2B] Unnamed NPC (ID: 17928229/0x01119025) [7816*]:
    → "I realize that "Undrborn" doesn't roll off the tongue, so you may address me as simply "Skokkr.""
 71: 0x0F9E [0x23] WAIT_FOR_DIALOG_INTERACTION
 72: 0x0F9F [0x52] END_LOAD_SCHEDULER: End scheduler "be07" with entities [EventEntity, EventEntity], work=730*
 73: 0x0FAE [0x45] LOAD_SCHEDULED_TASK: Load scheduler "be08" with entities [EventEntity, EventEntity], work=[730*, 0*]
 74: 0x0FBF [0x5F] MULTI_HANDLER_COMPLEX(mode=0x05 - Load ext scheduler with flag (OpCode 0x5B mode 0, flag 1), ref=3851*, entity1=Unnamed NPC (ID: 17928229/0x01119025), entity2=Unnamed NPC (ID: 17928229/0x01119025), string="thk0", extra=150*)
 75: 0x0FD1 [0x1C] WAIT(30* ticks)
 76: 0x0FD4 [0x2B] Unnamed NPC (ID: 17928229/0x01119025) [7817*]:
    → "Oooh hooo hoo! Yes, I see what those two were saying about your vibrant spirit. Humanity remains as curious as ever."
 77: 0x0FDB [0x23] WAIT_FOR_DIALOG_INTERACTION
 78: 0x0FDC [0x03] Work_Zone[2] = 2641*
 79: 0x0FE1 [0x2B] Unnamed NPC (ID: 17928229/0x01119025) [7818*]:
    → "It can not only draw out the energies of my $3, but also contain it and even twist it into different forms."
 80: 0x0FE8 [0x23] WAIT_FOR_DIALOG_INTERACTION
 81: 0x0FE9 [0x5F] MULTI_HANDLER_COMPLEX(mode=0x07 - Wait scheduler task (OpCode 0x53))
 82: 0x0FF7 [0x5F] MULTI_HANDLER_COMPLEX(mode=0x05 - Load ext scheduler with flag (OpCode 0x5B mode 0, flag 1), ref=3851*, entity1=Unnamed NPC (ID: 17928229/0x01119025), entity2=Unnamed NPC (ID: 17928229/0x01119025), string="thk1", extra=150*)
 83: 0x1009 [0x1C] WAIT(30* ticks)
 84: 0x100C [0x52] END_LOAD_SCHEDULER: End scheduler "be08" with entities [EventEntity, EventEntity], work=730*
 85: 0x101B [0x45] LOAD_SCHEDULED_TASK: Load scheduler "be09" with entities [EventEntity, EventEntity], work=[730*, 0*]
 86: 0x102C [0x1C] WAIT(15* ticks)
 87: 0x102F [0x2B] Unnamed NPC (ID: 17928229/0x01119025) [7819*]:
    → "Outstanding. Your will and determination are utterly without parallel."
 88: 0x1036 [0x23] WAIT_FOR_DIALOG_INTERACTION
 89: 0x1037 [0x5F] MULTI_HANDLER_COMPLEX(mode=0x07 - Wait scheduler task (OpCode 0x53))
 90: 0x1045 [0x52] END_LOAD_SCHEDULER: End scheduler "be09" with entities [EventEntity, EventEntity], work=730*
 91: 0x1054 [0x45] LOAD_SCHEDULED_TASK: Load scheduler "be10" with entities [EventEntity, EventEntity], work=[730*, 0*]
 92: 0x1065 [0x5F] MULTI_HANDLER_COMPLEX(mode=0x05 - Load ext scheduler with flag (OpCode 0x5B mode 0, flag 1), ref=3851*, entity1=Unnamed NPC (ID: 17928229/0x01119025), entity2=Unnamed NPC (ID: 17928229/0x01119025), string="tlk0", extra=170*)
 93: 0x1077 [0x2B] Unnamed NPC (ID: 17928229/0x01119025) [7820*]:
    → "There were once many curious folk like my underlings meandering throughout my lands."
 94: 0x107E [0x23] WAIT_FOR_DIALOG_INTERACTION
 95: 0x107F [0x2B] Unnamed NPC (ID: 17928229/0x01119025) [7821*]:
    → "But none ever emerged victorious. Setting aside the question of good versus evil, let me merely point out that the scales of balance failed to tip so much as one ilm in one side's favor."
 96: 0x1086 [0x23] WAIT_FOR_DIALOG_INTERACTION
 97: 0x1087 [0x5F] MULTI_HANDLER_COMPLEX(mode=0x07 - Wait scheduler task (OpCode 0x53))
 98: 0x1095 [0x52] END_LOAD_SCHEDULER: End scheduler "be10" with entities [EventEntity, EventEntity], work=730*
 99: 0x10A4 [0x45] LOAD_SCHEDULED_TASK: Load scheduler "be11" with entities [EventEntity, EventEntity], work=[730*, 0*]
100: 0x10B5 [0x5F] MULTI_HANDLER_COMPLEX(mode=0x05 - Load ext scheduler with flag (OpCode 0x5B mode 0, flag 1), ref=3851*, entity1=Unnamed NPC (ID: 17928229/0x01119025), entity2=Unnamed NPC (ID: 17928229/0x01119025), string="tlk1", extra=170*)
101: 0x10C7 [0x1C] WAIT(45* ticks)
102: 0x10CA [0x2B] Unnamed NPC (ID: 17928229/0x01119025) [7822*]:
    → "And then you came and flipped the entire contraption over."
103: 0x10D1 [0x23] WAIT_FOR_DIALOG_INTERACTION
104: 0x10D2 [0x5F] MULTI_HANDLER_COMPLEX(mode=0x07 - Wait scheduler task (OpCode 0x53))
105: 0x10E0 [0x6E] LocalPlayer uses emote 21*
106: 0x10E7 [0x99] Wait for LocalPlayer animation to complete
107: 0x10EC [0x1C] WAIT(120* ticks)
108: 0x10EF [0x5F] MULTI_HANDLER_COMPLEX(mode=0x05 - Load ext scheduler with flag (OpCode 0x5B mode 0, flag 1), ref=3851*, entity1=Unnamed NPC (ID: 17928229/0x01119025), entity2=Unnamed NPC (ID: 17928229/0x01119025), string="lah0", extra=150*)
109: 0x1101 [0x2B] Unnamed NPC (ID: 17928229/0x01119025) [7823*]:
    → "Oooh, hooo! None can blame you, <Player>, least of all me. Take pride in your works."
110: 0x1108 [0x23] WAIT_FOR_DIALOG_INTERACTION
111: 0x1109 [0x5F] MULTI_HANDLER_COMPLEX(mode=0x07 - Wait scheduler task (OpCode 0x53))
112: 0x1117 [0x52] END_LOAD_SCHEDULER: End scheduler "be11" with entities [EventEntity, EventEntity], work=730*
113: 0x1126 [0x45] LOAD_SCHEDULED_TASK: Load scheduler "be12" with entities [EventEntity, EventEntity], work=[730*, 0*]
114: 0x1137 [0x5F] MULTI_HANDLER_COMPLEX(mode=0x05 - Load ext scheduler with flag (OpCode 0x5B mode 0, flag 1), ref=3851*, entity1=Unnamed NPC (ID: 17928229/0x01119025), entity2=Unnamed NPC (ID: 17928229/0x01119025), string="tlk0", extra=170*)
115: 0x1149 [0x2B] Unnamed NPC (ID: 17928229/0x01119025) [7824*]:
    → "But I didn't invite you here to give you a treatise on the powers that be...or were."
116: 0x1150 [0x23] WAIT_FOR_DIALOG_INTERACTION
117: 0x1151 [0x2B] Unnamed NPC (ID: 17928229/0x01119025) [7825*]:
    → "I am here to give you a prototype sigil of sorts in exchange for the three you already hold."
118: 0x1158 [0x23] WAIT_FOR_DIALOG_INTERACTION
119: 0x1159 [0x5F] MULTI_HANDLER_COMPLEX(mode=0x07 - Wait scheduler task (OpCode 0x53))
120: 0x1167 [0x52] END_LOAD_SCHEDULER: End scheduler "be12" with entities [EventEntity, EventEntity], work=730*
121: 0x1176 [0x45] LOAD_SCHEDULED_TASK: Load scheduler "be13" with entities [EventEntity, EventEntity], work=[730*, 0*]
122: 0x1187 [0x5F] MULTI_HANDLER_COMPLEX(mode=0x05 - Load ext scheduler with flag (OpCode 0x5B mode 0, flag 1), ref=3851*, entity1=Unnamed NPC (ID: 17928229/0x01119025), entity2=Unnamed NPC (ID: 17928229/0x01119025), string="tlk1", extra=170*)
