# 17928248

## Common Data

| Field            | Value               |
|------------------|---------------------|
| Zone             | Leafallia (ID: 281) |
| Block Size       | 1180 bytes          |
| Total Events     | 15                  |
| References Count | 78                  |

## List of Events

| Event ID                   | Entrypoint   |   Size |   Instructions |
|----------------------------|--------------|--------|----------------|
| [65535](#event-65535)      | 0x0000       |      1 |              1 |
| [65535.1](#event-655351)   | 0x0001       |      4 |              2 |
| [3](#event-3)              | 0x0005       |      1 |              1 |
| [65535.2](#event-655352)   | 0x0006       |     79 |             10 |
| [65535.3](#event-655353)   | 0x0055       |     63 |              6 |
| [65535.4](#event-655354)   | 0x0094       |     36 |              5 |
| [65535.5](#event-655355)   | 0x00B8       |    100 |              9 |
| [65535.6](#event-655356)   | 0x011C       |     67 |              8 |
| [65535.7](#event-655357)   | 0x015F       |     69 |              7 |
| [65535.8](#event-655358)   | 0x01A4       |     74 |              6 |
| [13](#event-13)            | 0x01EE       |      1 |              1 |
| [65535.9](#event-655359)   | 0x01EF       |     26 |              7 |
| [65535.10](#event-6553510) | 0x0209       |    151 |             14 |
| [65535.11](#event-6553511) | 0x02A0       |    117 |             11 |
| [50](#event-50)            | 0x0315       |      1 |              1 |

## DAT References (imed_data)

|   Index | Hex Value   |   Dec Value |
|---------|-------------|-------------|
|       0 | 0xFFFFB1C7  |  4294947271 |
|       1 | 0x15E1E     |       89630 |
|       2 | 0xFFFFD064  |  4294955108 |
|       3 | 0x0C00      |        3072 |
|       4 | 0xFFFFB31D  |  4294947613 |
|       5 | 0x165E7     |       91623 |
|       6 | 0xFFFFD012  |  4294955026 |
|       7 | 0x0400      |        1024 |
|       8 | 0xFFFFB0A4  |  4294946980 |
|       9 | 0x16B50     |       93008 |
|      10 | 0xFFFFCFFA  |  4294955002 |
|      11 | 0x0D88      |        3464 |
|      12 | 0xFFFFAFA7  |  4294946727 |
|      13 | 0x15C67     |       89191 |
|      14 | 0xFFFFD005  |  4294955013 |
|      15 | 0x0CC6      |        3270 |
|      16 | 0x0C8C      |        3212 |
|      17 | 0xFFFFB549  |  4294948169 |
|      18 | 0x15BF9     |       89081 |
|      19 | 0xFFFFCFF8  |  4294955000 |
|      20 | 0xFFFFB62C  |  4294948396 |
|      21 | 0x16BD8     |       93144 |
|      22 | 0xFFFFD000  |  4294955008 |
|      23 | 0x06AB      |        1707 |
|      24 | 0xFFFFB658  |  4294948440 |
|      25 | 0x1694E     |       92494 |
|      26 | 0xFFFFD081  |  4294955137 |
|      27 | 0x03C7      |         967 |
|      28 | 0x0DCB      |        3531 |
|      29 | 0x0DC3      |        3523 |
|      30 | 0x0DF6      |        3574 |
|      31 | 0x12897     |       75927 |
|      32 | 0xFFFFDAC0  |  4294957760 |
|      33 | 0x15386     |       86918 |
|      34 | 0xFFFFD0F5  |  4294955253 |
|      35 | 0x0C8D      |        3213 |
|      36 | 0x0D67      |        3431 |
|      37 | 0x0014      |          20 |
|      38 | 0x0CA4      |        3236 |
|      39 | 0x0D9D      |        3485 |
|      40 | 0x0001      |           1 |
|      41 | 0x0EA7      |        3751 |
|      42 | 0x50F6      |       20726 |
|      43 | 0x019D      |         413 |
|      44 | 0x00B3      |         179 |
|      45 | 0x2763      |       10083 |
|      46 | 0x488B      |       18571 |
|      47 | 0xFFFFF517  |  4294964503 |
|      48 | 0x08F4      |        2292 |
|      49 | 0x0B27      |        2855 |
|      50 | 0x3706      |       14086 |
|      51 | 0xFFFFFE43  |  4294966851 |
|      52 | 0x0C06      |        3078 |
|      53 | 0x27B4      |       10164 |
|      54 | 0x446E      |       17518 |
|      55 | 0xFFFFF51B  |  4294964507 |
|      56 | 0x094D      |        2381 |
|      57 | 0x0D93      |        3475 |
|      58 | 0x0D95      |        3477 |
|      59 | 0x0D3D      |        3389 |
|      60 | 0x0C99      |        3225 |
|      61 | 0xFFFFB2A2  |  4294947490 |
|      62 | 0x1715B     |       94555 |
|      63 | 0xFFFFD077  |  4294955127 |
|      64 | 0x0C0E      |        3086 |
|      65 | 0xFFFFBB33  |  4294949683 |
|      66 | 0x167D8     |       92120 |
|      67 | 0xFFFFCFD0  |  4294954960 |
|      68 | 0x0A8F      |        2703 |
|      69 | 0xFFFFB2CC  |  4294947532 |
|      70 | 0x15C4F     |       89167 |
|      71 | 0xFFFFD079  |  4294955129 |
|      72 | 0x0BE8      |        3048 |
|      73 | 0xFFFFA8F2  |  4294945010 |
|      74 | 0x1754B     |       95563 |
|      75 | 0xFFFFCD79  |  4294954361 |
|      76 | 0x0C19      |        3097 |
|      77 | 0x0D82      |        3458 |

## Events

### Event 65535

#### Metadata

| Field        | Value   |
|--------------|---------|
| Entrypoint   | 0x0000  |
| Data Size    | 1 bytes |
| Instructions | 1       |

```
      00 01 02 03 04 05 06 07  08 09 0A 0B 0C 0D 0E 0F
      -- -- -- -- -- -- -- --  -- -- -- -- -- -- -- --
0000: 00                                                .               
```

#### Opcodes

```
  0: 0x0000 [0x00] END_REQSTACK()
```

### Event 65535.1

#### Metadata

| Field        | Value   |
|--------------|---------|
| Entrypoint   | 0x0001  |
| Data Size    | 4 bytes |
| Instructions | 2       |

```
      00 01 02 03 04 05 06 07  08 09 0A 0B 0C 0D 0E 0F
      -- -- -- -- -- -- -- --  -- -- -- -- -- -- -- --
0000:    1C 02 10 00                                     ....           
```

#### Opcodes

```
  0: 0x0001 [0x1C] WAIT(Work_Zone[2] ticks)
  1: 0x0004 [0x00] END_REQSTACK()
```

### Event 3

#### Metadata

| Field        | Value   |
|--------------|---------|
| Entrypoint   | 0x0005  |
| Data Size    | 1 bytes |
| Instructions | 1       |

```
      00 01 02 03 04 05 06 07  08 09 0A 0B 0C 0D 0E 0F
      -- -- -- -- -- -- -- --  -- -- -- -- -- -- -- --
0000:                00                                      .          
```

#### Opcodes

```
  0: 0x0005 [0x00] END_REQSTACK()
```

### Event 65535.2

#### Metadata

| Field        | Value    |
|--------------|----------|
| Entrypoint   | 0x0006   |
| Data Size    | 79 bytes |
| Instructions | 10       |

```
      00 01 02 03 04 05 06 07  08 09 0A 0B 0C 0D 0E 0F
      -- -- -- -- -- -- -- --  -- -- -- -- -- -- -- --
0000:                   27 05  28 90 11 01 03 BA 22 90        '.(.....".
0010: 11 01 00 80 01 80 02 80  03 80 81 00 20 90 11 01  ............ ...
0020: 81 00 22 90 11 01 7C 00  20 90 11 01 59 05 20 90  .."...|. ...Y. .
0030: 11 01 01 59 05 28 90 11  01 01 BA 20 90 11 01 04  ...Y.(..... ....
0040: 80 05 80 06 80 07 80 BA  28 90 11 01 04 80 05 80  ........(.......
0050: 06 80 07 80 00                                    .....           
```

#### Opcodes

```
  0: 0x0006 [0x27] REQ_SET(priority=0x05, entity_id=Unnamed NPC (ID: 17928232/0x01119028), tag_num=0x03)
  1: 0x000D [0xBA] SET_ENTITY_POSITION(entity_id=Morimar (ID: 17928226/0x01119022), pos_x=-20.025*, pos_z=89.630*, pos_y=-12.188*, direction=270.0°*)
  2: 0x001A [0x81] SET_ENTITY_BLINKING(blink_flag=0x00, entity=Arciela (ID: 17928224/0x01119020))
  3: 0x0020 [0x81] SET_ENTITY_BLINKING(blink_flag=0x00, entity=Morimar (ID: 17928226/0x01119022))
  4: 0x0026 [0x7C] Arciela (ID: 17928224/0x01119020)->Render.Flags2 |= 0x00
  5: 0x002C [0x59] UPDATE_ENTITY_DATA: Arciela (ID: 17928224/0x01119020)->Render.Flags0 |= 0x200000
  6: 0x0033 [0x59] UPDATE_ENTITY_DATA: Unnamed NPC (ID: 17928232/0x01119028)->Render.Flags0 |= 0x200000
  7: 0x003A [0xBA] SET_ENTITY_POSITION(entity_id=Arciela (ID: 17928224/0x01119020), pos_x=-19.683*, pos_z=91.623*, pos_y=-12.270*, direction=90.0°*)
  8: 0x0047 [0xBA] SET_ENTITY_POSITION(entity_id=Unnamed NPC (ID: 17928232/0x01119028), pos_x=-19.683*, pos_z=91.623*, pos_y=-12.270*, direction=90.0°*)
  9: 0x0054 [0x00] END_REQSTACK()
```

### Event 65535.3

#### Metadata

| Field        | Value    |
|--------------|----------|
| Entrypoint   | 0x0055   |
| Data Size    | 63 bytes |
| Instructions | 6        |

```
      00 01 02 03 04 05 06 07  08 09 0A 0B 0C 0D 0E 0F
      -- -- -- -- -- -- -- --  -- -- -- -- -- -- -- --
0050:                BA F0 FF  FF 7F 08 80 09 80 0A 80       ...........
0060: 0B 80 BA 22 90 11 01 0C  80 0D 80 0E 80 0F 80 BA  ..."............
0070: 2A 90 11 01 04 80 05 80  06 80 07 80 5F 03 10 80  *..........._...
0080: 2A 90 11 01 2A 90 11 01  6A 79 75 6C 27 10 F0 FF  *...*...jyul'...
0090: FF 7F 10 00                                       ....            
```

#### Opcodes

```
  0: 0x0055 [0xBA] SET_ENTITY_POSITION(entity_id=LocalPlayer, pos_x=-20.316*, pos_z=93.008*, pos_y=-12.294*, direction=304.4°*)
  1: 0x0062 [0xBA] SET_ENTITY_POSITION(entity_id=Morimar (ID: 17928226/0x01119022), pos_x=-20.569*, pos_z=89.191*, pos_y=-12.283*, direction=287.4°*)
  2: 0x006F [0xBA] SET_ENTITY_POSITION(entity_id=Unnamed NPC (ID: 17928234/0x0111902A), pos_x=-19.683*, pos_z=91.623*, pos_y=-12.270*, direction=90.0°*)
  3: 0x007C [0x5F] MULTI_HANDLER_COMPLEX(mode=0x03 - Load ext scheduler (OpCode 0x5B mode 0), ref=3212*, entity1=Unnamed NPC (ID: 17928234/0x0111902A), entity2=Unnamed NPC (ID: 17928234/0x0111902A), string="jyul")
  4: 0x008C [0x27] REQ_SET(priority=0x10, entity_id=LocalPlayer, tag_num=0x10)
  5: 0x0093 [0x00] END_REQSTACK()
```

### Event 65535.4

#### Metadata

| Field        | Value    |
|--------------|----------|
| Entrypoint   | 0x0094   |
| Data Size    | 36 bytes |
| Instructions | 5        |

```
      00 01 02 03 04 05 06 07  08 09 0A 0B 0C 0D 0E 0F
      -- -- -- -- -- -- -- --  -- -- -- -- -- -- -- --
0090:             4E 01 22 90  11 01 BA F0 FF FF 7F 04      N.".........
00A0: 80 05 80 06 80 07 80 6B  69 64 6C 30 F0 FF FF 7F  .......kidl0....
00B0: 27 10 39 90 11 01 1D 00                           '.9.....        
```

#### Opcodes

```
  0: 0x0094 [0x4E] SET_ENTITY_HIDE_FLAG: Hide Morimar (ID: 17928226/0x01119022)
  1: 0x009A [0xBA] SET_ENTITY_POSITION(entity_id=LocalPlayer, pos_x=-19.683*, pos_z=91.623*, pos_y=-12.270*, direction=90.0°*)
  2: 0x00A7 [0x6B] STOP_AND_IDLE: LocalPlayer stops current action and resets to idle (animation="idl0")
  3: 0x00B0 [0x27] REQ_SET(priority=0x10, entity_id=Unnamed NPC (ID: 17928249/0x01119039), tag_num=0x1D)
  4: 0x00B7 [0x00] END_REQSTACK()
```

### Event 65535.5

#### Metadata

| Field        | Value     |
|--------------|-----------|
| Entrypoint   | 0x00B8    |
| Data Size    | 100 bytes |
| Instructions | 9         |

```
      00 01 02 03 04 05 06 07  08 09 0A 0B 0C 0D 0E 0F
      -- -- -- -- -- -- -- --  -- -- -- -- -- -- -- --
00B0:                          4E 00 22 90 11 01 4E 00          N."...N.
00C0: 2A 90 11 01 BA 2A 90 11  01 11 80 12 80 13 80 03  *....*..........
00D0: 80 BA 20 90 11 01 14 80  15 80 16 80 17 80 BA 28  .. ............(
00E0: 90 11 01 18 80 19 80 1A  80 1B 80 5F 03 1C 80 20  ..........._... 
00F0: 90 11 01 20 90 11 01 66  72 69 30 5F 03 1D 80 28  ... ...fri0_...(
0100: 90 11 01 28 90 11 01 6D  61 6D 30 5F 03 1E 80 2A  ...(...mam0_...*
0110: 90 11 01 2A 90 11 01 6B  61 6D 30 00              ...*...kam0.    
```

#### Opcodes

```
  0: 0x00B8 [0x4E] SET_ENTITY_HIDE_FLAG: Show Morimar (ID: 17928226/0x01119022)
  1: 0x00BE [0x4E] SET_ENTITY_HIDE_FLAG: Show Unnamed NPC (ID: 17928234/0x0111902A)
  2: 0x00C4 [0xBA] SET_ENTITY_POSITION(entity_id=Unnamed NPC (ID: 17928234/0x0111902A), pos_x=-19.127*, pos_z=89.081*, pos_y=-12.296*, direction=270.0°*)
  3: 0x00D1 [0xBA] SET_ENTITY_POSITION(entity_id=Arciela (ID: 17928224/0x01119020), pos_x=-18.900*, pos_z=93.144*, pos_y=-12.288*, direction=150.0°*)
  4: 0x00DE [0xBA] SET_ENTITY_POSITION(entity_id=Unnamed NPC (ID: 17928232/0x01119028), pos_x=-18.856*, pos_z=92.494*, pos_y=-12.159*, direction=85.0°*)
  5: 0x00EB [0x5F] MULTI_HANDLER_COMPLEX(mode=0x03 - Load ext scheduler (OpCode 0x5B mode 0), ref=3531*, entity1=Arciela (ID: 17928224/0x01119020), entity2=Arciela (ID: 17928224/0x01119020), string="fri0")
  6: 0x00FB [0x5F] MULTI_HANDLER_COMPLEX(mode=0x03 - Load ext scheduler (OpCode 0x5B mode 0), ref=3523*, entity1=Unnamed NPC (ID: 17928232/0x01119028), entity2=Unnamed NPC (ID: 17928232/0x01119028), string="mam0")
  7: 0x010B [0x5F] MULTI_HANDLER_COMPLEX(mode=0x03 - Load ext scheduler (OpCode 0x5B mode 0), ref=3574*, entity1=Unnamed NPC (ID: 17928234/0x0111902A), entity2=Unnamed NPC (ID: 17928234/0x0111902A), string="kam0")
  8: 0x011B [0x00] END_REQSTACK()
```

### Event 65535.6

#### Metadata

| Field        | Value    |
|--------------|----------|
| Entrypoint   | 0x011C   |
| Data Size    | 67 bytes |
| Instructions | 8        |

```
      00 01 02 03 04 05 06 07  08 09 0A 0B 0C 0D 0E 0F
      -- -- -- -- -- -- -- --  -- -- -- -- -- -- -- --
0110:                                      BA 34 90 11              .4..
0120: 01 04 80 1F 80 20 80 07  80 BA 2A 90 11 01 04 80  ..... ....*.....
0130: 21 80 22 80 03 80 81 00  2A 90 11 01 81 00 29 90  !.".....*.....).
0140: 11 01 7C 00 2A 90 11 01  7C 00 29 90 11 01 5F 03  ..|.*...|.)..._.
0150: 23 80 2A 90 11 01 2A 90  11 01 6A 6B 6D 30 00     #.*...*...jkm0. 
```

#### Opcodes

```
  0: 0x011C [0xBA] SET_ENTITY_POSITION(entity_id=Unnamed NPC (ID: 17928244/0x01119034), pos_x=-19.683*, pos_z=75.927*, pos_y=-9.536*, direction=90.0°*)
  1: 0x0129 [0xBA] SET_ENTITY_POSITION(entity_id=Unnamed NPC (ID: 17928234/0x0111902A), pos_x=-19.683*, pos_z=86.918*, pos_y=-12.043*, direction=270.0°*)
  2: 0x0136 [0x81] SET_ENTITY_BLINKING(blink_flag=0x00, entity=Unnamed NPC (ID: 17928234/0x0111902A))
  3: 0x013C [0x81] SET_ENTITY_BLINKING(blink_flag=0x00, entity=Unnamed NPC (ID: 17928233/0x01119029))
  4: 0x0142 [0x7C] Unnamed NPC (ID: 17928234/0x0111902A)->Render.Flags2 |= 0x00
  5: 0x0148 [0x7C] Unnamed NPC (ID: 17928233/0x01119029)->Render.Flags2 |= 0x00
  6: 0x014E [0x5F] MULTI_HANDLER_COMPLEX(mode=0x03 - Load ext scheduler (OpCode 0x5B mode 0), ref=3213*, entity1=Unnamed NPC (ID: 17928234/0x0111902A), entity2=Unnamed NPC (ID: 17928234/0x0111902A), string="jkm0")
  7: 0x015E [0x00] END_REQSTACK()
```

### Event 65535.7

#### Metadata

| Field        | Value    |
|--------------|----------|
| Entrypoint   | 0x015F   |
| Data Size    | 69 bytes |
| Instructions | 7        |

```
      00 01 02 03 04 05 06 07  08 09 0A 0B 0C 0D 0E 0F
      -- -- -- -- -- -- -- --  -- -- -- -- -- -- -- --
0150:                                               BA                 .
0160: 34 90 11 01 04 80 05 80  06 80 07 80 5F 03 24 80  4..........._.$.
0170: 34 90 11 01 34 90 11 01  6A 6B 6D 31 5F 03 23 80  4...4...jkm1_.#.
0180: 2A 90 11 01 2A 90 11 01  6A 6B 6D 31 1C 25 80 BA  *...*...jkm1.%..
0190: 29 90 11 01 04 80 05 80  06 80 03 80 27 10 39 90  )...........'.9.
01A0: 11 01 0D 00                                       ....            
```

#### Opcodes

```
  0: 0x015F [0xBA] SET_ENTITY_POSITION(entity_id=Unnamed NPC (ID: 17928244/0x01119034), pos_x=-19.683*, pos_z=91.623*, pos_y=-12.270*, direction=90.0°*)
  1: 0x016C [0x5F] MULTI_HANDLER_COMPLEX(mode=0x03 - Load ext scheduler (OpCode 0x5B mode 0), ref=3431*, entity1=Unnamed NPC (ID: 17928244/0x01119034), entity2=Unnamed NPC (ID: 17928244/0x01119034), string="jkm1")
  2: 0x017C [0x5F] MULTI_HANDLER_COMPLEX(mode=0x03 - Load ext scheduler (OpCode 0x5B mode 0), ref=3213*, entity1=Unnamed NPC (ID: 17928234/0x0111902A), entity2=Unnamed NPC (ID: 17928234/0x0111902A), string="jkm1")
  3: 0x018C [0x1C] WAIT(20* ticks)
  4: 0x018F [0xBA] SET_ENTITY_POSITION(entity_id=Unnamed NPC (ID: 17928233/0x01119029), pos_x=-19.683*, pos_z=91.623*, pos_y=-12.270*, direction=270.0°*)
  5: 0x019C [0x27] REQ_SET(priority=0x10, entity_id=Unnamed NPC (ID: 17928249/0x01119039), tag_num=0x0D)
  6: 0x01A3 [0x00] END_REQSTACK()
```

### Event 65535.8

#### Metadata

| Field        | Value    |
|--------------|----------|
| Entrypoint   | 0x01A4   |
| Data Size    | 74 bytes |
| Instructions | 6        |

```
      00 01 02 03 04 05 06 07  08 09 0A 0B 0C 0D 0E 0F
      -- -- -- -- -- -- -- --  -- -- -- -- -- -- -- --
01A0:             5B 26 80 2B  90 11 01 2B 90 11 01 6E      [&.+...+...n
01B0: 69 67 30 5B 26 80 2C 90  11 01 2C 90 11 01 6E 69  ig0[&.,...,...ni
01C0: 67 32 5B 26 80 2D 90 11  01 2D 90 11 01 6E 69 67  g2[&.-...-...nig
01D0: 31 BA 22 90 11 01 0C 80  0D 80 0E 80 0F 80 5B 27  1."...........['
01E0: 80 22 90 11 01 22 90 11  01 74 61 6F 6C 00        ."..."...taol.  
```

#### Opcodes

```
  0: 0x01A4 [0x5B] LOAD_EXT_SCHEDULER: Load scheduler "nig0" with entities [Unnamed NPC (ID: 17928235/0x0111902B), Unnamed NPC (ID: 17928235/0x0111902B)], work=3236*
  1: 0x01B3 [0x5B] LOAD_EXT_SCHEDULER: Load scheduler "nig2" with entities [Unnamed NPC (ID: 17928236/0x0111902C), Unnamed NPC (ID: 17928236/0x0111902C)], work=3236*
  2: 0x01C2 [0x5B] LOAD_EXT_SCHEDULER: Load scheduler "nig1" with entities [Unnamed NPC (ID: 17928237/0x0111902D), Unnamed NPC (ID: 17928237/0x0111902D)], work=3236*
  3: 0x01D1 [0xBA] SET_ENTITY_POSITION(entity_id=Morimar (ID: 17928226/0x01119022), pos_x=-20.569*, pos_z=89.191*, pos_y=-12.283*, direction=287.4°*)
  4: 0x01DE [0x5B] LOAD_EXT_SCHEDULER: Load scheduler "taol" with entities [Morimar (ID: 17928226/0x01119022), Morimar (ID: 17928226/0x01119022)], work=3485*
  5: 0x01ED [0x00] END_REQSTACK()
```

### Event 13

#### Metadata

| Field        | Value   |
|--------------|---------|
| Entrypoint   | 0x01EE  |
| Data Size    | 1 bytes |
| Instructions | 1       |

```
      00 01 02 03 04 05 06 07  08 09 0A 0B 0C 0D 0E 0F
      -- -- -- -- -- -- -- --  -- -- -- -- -- -- -- --
01E0:                                            00                   . 
```

#### Opcodes

```
  0: 0x01EE [0x00] END_REQSTACK()
```

### Event 65535.9

#### Metadata

| Field        | Value    |
|--------------|----------|
| Entrypoint   | 0x01EF   |
| Data Size    | 26 bytes |
| Instructions | 7        |

```
      00 01 02 03 04 05 06 07  08 09 0A 0B 0C 0D 0E 0F
      -- -- -- -- -- -- -- --  -- -- -- -- -- -- -- --
01E0:                                               03                 .
01F0: 01 00 02 10 06 00 00 02  00 00 01 00 03 08 02 1C  ................
0200: 28 80 57 00 00 01 F7 01  00                       (.W......       
```

#### Opcodes

```
  0: 0x01EF [0x03] ExtData[1]->WorkLocal[1] = Work_Zone[2]
  1: 0x01F4 [0x06] ExtData[1]->WorkLocal[0] = 0
  2: 0x01F7 [0x02] IF !(ExtData[1]->WorkLocal[0] >= ExtData[1]->WorkLocal[1]) GOTO 0x0208
  3: 0x01FF [0x1C] WAIT(1* ticks)
  4: 0x0202 [0x57] CREATE_FRAME_DELAY(delay=ExtData[1]->WorkLocal[0])
  5: 0x0205 [0x01] GOTO 0x01F7
  6: 0x0208 [0x00] END_REQSTACK()
```

### Event 65535.10

#### Metadata

| Field        | Value     |
|--------------|-----------|
| Entrypoint   | 0x0209    |
| Data Size    | 151 bytes |
| Instructions | 14        |

```
      00 01 02 03 04 05 06 07  08 09 0A 0B 0C 0D 0E 0F
      -- -- -- -- -- -- -- --  -- -- -- -- -- -- -- --
0200:                             BA 20 90 11 01 29 80           . ...).
0210: 2A 80 2B 80 2C 80 BA 22  90 11 01 2D 80 2E 80 2F  *.+.,.."...-.../
0220: 80 30 80 BA 26 90 11 01  31 80 32 80 33 80 34 80  .0..&...1.2.3.4.
0230: BA 28 90 11 01 35 80 36  80 37 80 38 80 81 01 22  .(...5.6.7.8..."
0240: 90 11 01 7C 01 22 90 11  01 D3 00 22 90 11 01 5B  ...|."....."...[
0250: 39 80 22 90 11 01 22 90  11 01 66 30 30 30 5B 3A  9."..."...f000[:
0260: 80 22 90 11 01 22 90 11  01 75 64 65 30 5B 3B 80  ."..."...ude0[;.
0270: 26 90 11 01 26 90 11 01  73 69 74 6C 5B 3C 80 20  &...&...sitl[<. 
0280: 90 11 01 20 90 11 01 74  6C 61 30 79 00 20 90 11  ... ...tla0y. ..
0290: 01 22 90 11 01 79 00 22  90 11 01 20 90 11 01 00  ."...y."... ....
```

#### Opcodes

```
  0: 0x0209 [0xBA] SET_ENTITY_POSITION(entity_id=Arciela (ID: 17928224/0x01119020), pos_x=3.751*, pos_z=20.726*, pos_y=0.413*, direction=15.7°*)
  1: 0x0216 [0xBA] SET_ENTITY_POSITION(entity_id=Morimar (ID: 17928226/0x01119022), pos_x=10.083*, pos_z=18.571*, pos_y=-2.793*, direction=201.4°*)
  2: 0x0223 [0xBA] SET_ENTITY_POSITION(entity_id=Unnamed NPC (ID: 17928230/0x01119026), pos_x=2.855*, pos_z=14.086*, pos_y=-0.445*, direction=270.5°*)
  3: 0x0230 [0xBA] SET_ENTITY_POSITION(entity_id=Unnamed NPC (ID: 17928232/0x01119028), pos_x=10.164*, pos_z=17.518*, pos_y=-2.789*, direction=209.3°*)
  4: 0x023D [0x81] SET_ENTITY_BLINKING(blink_flag=0x01, entity=Morimar (ID: 17928226/0x01119022))
  5: 0x0243 [0x7C] Morimar (ID: 17928226/0x01119022)->Render.Flags2 |= 0x01
  6: 0x0249 [0xD3] CLEAR_ENTITY_MOTION_QUEUE(condition_flag=0x00, entity_server_id=0x01119022)
  7: 0x024F [0x5B] LOAD_EXT_SCHEDULER: Load scheduler "f000" with entities [Morimar (ID: 17928226/0x01119022), Morimar (ID: 17928226/0x01119022)], work=3475*
  8: 0x025E [0x5B] LOAD_EXT_SCHEDULER: Load scheduler "ude0" with entities [Morimar (ID: 17928226/0x01119022), Morimar (ID: 17928226/0x01119022)], work=3477*
  9: 0x026D [0x5B] LOAD_EXT_SCHEDULER: Load scheduler "sitl" with entities [Unnamed NPC (ID: 17928230/0x01119026), Unnamed NPC (ID: 17928230/0x01119026)], work=3389*
 10: 0x027C [0x5B] LOAD_EXT_SCHEDULER: Load scheduler "tla0" with entities [Arciela (ID: 17928224/0x01119020), Arciela (ID: 17928224/0x01119020)], work=3225*
 11: 0x028B [0x79] Arciela (ID: 17928224/0x01119020) looks at Morimar (ID: 17928226/0x01119022) (Basic look)
 12: 0x0295 [0x79] Morimar (ID: 17928226/0x01119022) looks at Arciela (ID: 17928224/0x01119020) (Basic look)
 13: 0x029F [0x00] END_REQSTACK()
```

### Event 65535.11

#### Metadata

| Field        | Value     |
|--------------|-----------|
| Entrypoint   | 0x02A0    |
| Data Size    | 117 bytes |
| Instructions | 11        |

```
      00 01 02 03 04 05 06 07  08 09 0A 0B 0C 0D 0E 0F
      -- -- -- -- -- -- -- --  -- -- -- -- -- -- -- --
02A0: BA 20 90 11 01 3D 80 3E  80 3F 80 40 80 BA 22 90  . ...=.>.?.@..".
02B0: 11 01 41 80 42 80 43 80  44 80 BA 26 90 11 01 45  ..A.B.C.D..&...E
02C0: 80 46 80 47 80 48 80 BA  28 90 11 01 49 80 4A 80  .F.G.H..(...I.J.
02D0: 4B 80 4C 80 5B 3A 80 22  90 11 01 22 90 11 01 77  K.L.[:."..."...w
02E0: 73 74 30 5B 3B 80 26 90  11 01 26 90 11 01 73 69  st0[;.&...&...si
02F0: 74 6C 5B 4D 80 20 90 11  01 20 90 11 01 6B 6F 6C  tl[M. ... ...kol
0300: 30 6B 69 64 6C 30 20 90  11 01 7B 20 90 11 01 7B  0kidl0 ...{ ...{
0310: 22 90 11 01 00                                    "....           
```

#### Opcodes

```
  0: 0x02A0 [0xBA] SET_ENTITY_POSITION(entity_id=Arciela (ID: 17928224/0x01119020), pos_x=-19.806*, pos_z=94.555*, pos_y=-12.169*, direction=271.2°*)
  1: 0x02AD [0xBA] SET_ENTITY_POSITION(entity_id=Morimar (ID: 17928226/0x01119022), pos_x=-17.613*, pos_z=92.120*, pos_y=-12.336*, direction=237.6°*)
  2: 0x02BA [0xBA] SET_ENTITY_POSITION(entity_id=Unnamed NPC (ID: 17928230/0x01119026), pos_x=-19.764*, pos_z=89.167*, pos_y=-12.167*, direction=267.9°*)
  3: 0x02C7 [0xBA] SET_ENTITY_POSITION(entity_id=Unnamed NPC (ID: 17928232/0x01119028), pos_x=-22.286*, pos_z=95.563*, pos_y=-12.935*, direction=272.2°*)
  4: 0x02D4 [0x5B] LOAD_EXT_SCHEDULER: Load scheduler "wst0" with entities [Morimar (ID: 17928226/0x01119022), Morimar (ID: 17928226/0x01119022)], work=3477*
  5: 0x02E3 [0x5B] LOAD_EXT_SCHEDULER: Load scheduler "sitl" with entities [Unnamed NPC (ID: 17928230/0x01119026), Unnamed NPC (ID: 17928230/0x01119026)], work=3389*
  6: 0x02F2 [0x5B] LOAD_EXT_SCHEDULER: Load scheduler "kol0" with entities [Arciela (ID: 17928224/0x01119020), Arciela (ID: 17928224/0x01119020)], work=3458*
  7: 0x0301 [0x6B] STOP_AND_IDLE: Arciela (ID: 17928224/0x01119020) stops current action and resets to idle (animation="idl0")
  8: 0x030A [0x7B] Arciela (ID: 17928224/0x01119020) stops talking
  9: 0x030F [0x7B] Morimar (ID: 17928226/0x01119022) stops talking
 10: 0x0314 [0x00] END_REQSTACK()
```

### Event 50

#### Metadata

| Field        | Value   |
|--------------|---------|
| Entrypoint   | 0x0315  |
| Data Size    | 1 bytes |
| Instructions | 1       |

```
      00 01 02 03 04 05 06 07  08 09 0A 0B 0C 0D 0E 0F
      -- -- -- -- -- -- -- --  -- -- -- -- -- -- -- --
0310:                00                                      .          
```

#### Opcodes

```
  0: 0x0315 [0x00] END_REQSTACK()
```
