# 17928223

## Common Data

| Field            | Value               |
|------------------|---------------------|
| Zone             | Leafallia (ID: 281) |
| Block Size       | 38696 bytes         |
| Total Events     | 9                   |
| References Count | 994                 |

## List of Events

| Event ID              | Entrypoint   |   Size |   Instructions |
|-----------------------|--------------|--------|----------------|
| [65535](#event-65535) | 0x0000       |      1 |              1 |
| [2](#event-2)         | 0x0001       |    608 |             85 |
| [4](#event-4)         | 0x0261       |    372 |             50 |
| [3](#event-3)         | 0x03D5       |  19719 |           2124 |
| [9](#event-9)         | 0x50DC       |   1481 |            169 |
| [10](#event-10)       | 0x56A5       |   5228 |            631 |
| [11](#event-11)       | 0x6B11       |   4721 |            557 |
| [12](#event-12)       | 0x7D82       |    748 |             98 |
| [13](#event-13)       | 0x806E       |   1790 |            284 |

## DAT References (imed_data)

|   Index | Hex Value   |   Dec Value |
|---------|-------------|-------------|
|       0 | 0x0093      |         147 |
|       1 | 0xFFFFF84A  |  4294965322 |
|       2 | 0x2680      |        9856 |
|       3 | 0xFFFFFE7C  |  4294966908 |
|       4 | 0x096D      |        2413 |
|       5 | 0x0493      |        1171 |
|       6 | 0x01EE      |         494 |
|       7 | 0xFFFFFE2C  |  4294966828 |
|       8 | 0x0A5F      |        2655 |
|       9 | 0xFFFFE939  |  4294961465 |
|      10 | 0x34C1      |       13505 |
|      11 | 0xFFFFFF52  |  4294967122 |
|      12 | 0x0562      |        1378 |
|      13 | 0x0AE2      |        2786 |
|      14 | 0x363A      |       13882 |
|      15 | 0xFFFFFE37  |  4294966839 |
|      16 | 0x051F      |        1311 |
|      17 | 0x0279      |         633 |
|      18 | 0x0000      |           0 |
|      19 | 0x000F      |          15 |
|      20 | 0x00C8      |         200 |
|      21 | 0x0008      |           8 |
|      22 | 0x0050      |          80 |
|      23 | 0x0028      |          40 |
|      24 | 0x003C      |          60 |
|      25 | 0x0D94      |        3476 |
|      26 | 0x1CEC      |        7404 |
|      27 | 0x1CED      |        7405 |
|      28 | 0x1CEE      |        7406 |
|      29 | 0x1CEF      |        7407 |
|      30 | 0x1CF0      |        7408 |
|      31 | 0x1CF1      |        7409 |
|      32 | 0x001E      |          30 |
|      33 | 0x0001      |           1 |
|      34 | 0xFFFF9C3B  |  4294941755 |
|      35 | 0x78C3      |       30915 |
|      36 | 0xFFFFFE22  |  4294966818 |
|      37 | 0x0A92      |        2706 |
|      38 | 0xFFFF940E  |  4294939662 |
|      39 | 0x8388      |       33672 |
|      40 | 0xFFFFF80A  |  4294965258 |
|      41 | 0x0274      |         628 |
|      42 | 0x0CF6      |        3318 |
|      43 | 0x0096      |         150 |
|      44 | 0x1CF2      |        7410 |
|      45 | 0x1CF3      |        7411 |
|      46 | 0x1CF4      |        7412 |
|      47 | 0x1CF5      |        7413 |
|      48 | 0xFFFF9F36  |  4294942518 |
|      49 | 0x64D7      |       25815 |
|      50 | 0xFFFFB047  |  4294946887 |
|      51 | 0x0B44      |        2884 |
|      52 | 0xFFFFB44B  |  4294947915 |
|      53 | 0x4439      |       17465 |
|      54 | 0xFFFFFE6D  |  4294966893 |
|      55 | 0x0B18      |        2840 |
|      56 | 0xFFFFC211  |  4294951441 |
|      57 | 0x4499      |       17561 |
|      58 | 0xFFFFFE9F  |  4294966943 |
|      59 | 0x0901      |        2305 |
|      60 | 0xFFFFA522  |  4294944034 |
|      61 | 0x3C80      |       15488 |
|      62 | 0xFFFFFF73  |  4294967155 |
|      63 | 0x09E0      |        2528 |
|      64 | 0x099C      |        2460 |
|      65 | 0xFFFFF694  |  4294964884 |
|      66 | 0xFFFFFFEE  |  4294967278 |
|      67 | 0x0A54      |        2644 |
|      68 | 0xFFFFC672  |  4294952562 |
|      69 | 0x4EB9      |       20153 |
|      70 | 0xFFFFFA49  |  4294965833 |
|      71 | 0x07BA      |        1978 |
|      72 | 0xFFFFF959  |  4294965593 |
|      73 | 0xFFFFB5BE  |  4294948286 |
|      74 | 0x51BF      |       20927 |
|      75 | 0xFFFFF7F1  |  4294965233 |
|      76 | 0x03AF      |         943 |
|      77 | 0xFFFFFDCD  |  4294966733 |
|      78 | 0x01FB      |         507 |
|      79 | 0xFFFFBA0E  |  4294949390 |
|      80 | 0xD8CB      |       55499 |
|      81 | 0xFFFFFB4C  |  4294966092 |
|      82 | 0x051A      |        1306 |
|      83 | 0xFFFFB2B0  |  4294947504 |
|      84 | 0xDA99      |       55961 |
|      85 | 0xFFFFFB6F  |  4294966127 |
|      86 | 0x035C      |         860 |
|      87 | 0x0FEF      |        4079 |
|      88 | 0x0C90      |        3216 |
|      89 | 0x0DEB      |        3563 |
|      90 | 0x0291      |         657 |
|      91 | 0x0014      |          20 |
|      92 | 0x1CF7      |        7415 |
|      93 | 0x0DE8      |        3560 |
|      94 | 0x0DE9      |        3561 |
|      95 | 0x0DCE      |        3534 |
|      96 | 0x010E      |         270 |
|      97 | 0x1CF8      |        7416 |
|      98 | 0x0082      |         130 |
|      99 | 0x0015      |          21 |
|     100 | 0x005A      |          90 |
|     101 | 0x1CF9      |        7417 |
|     102 | 0x002D      |          45 |
|     103 | 0x1CFA      |        7418 |
|     104 | 0x0D3D      |        3389 |
|     105 | 0x0078      |         120 |
|     106 | 0x0DF2      |        3570 |
|     107 | 0x1CFB      |        7419 |
|     108 | 0x0004      |           4 |
|     109 | 0x0005      |           5 |
|     110 | 0x0006      |           6 |
|     111 | 0x0007      |           7 |
|     112 | 0x1CFC      |        7420 |
|     113 | 0x0003      |           3 |
|     114 | 0xFFFFC2A2  |  4294951586 |
|     115 | 0x4B65      |       19301 |
|     116 | 0xFFFFFE5A  |  4294966874 |
|     117 | 0x0947      |        2375 |
|     118 | 0x0C99      |        3225 |
|     119 | 0x1CFD      |        7421 |
|     120 | 0x1CFE      |        7422 |
|     121 | 0x0002      |           2 |
|     122 | 0x0D89      |        3465 |
|     123 | 0x00D2      |         210 |
|     124 | 0x1CFF      |        7423 |
|     125 | 0x1D00      |        7424 |
|     126 | 0x00A3      |         163 |
|     127 | 0x0CA4      |        3236 |
|     128 | 0x1D01      |        7425 |
|     129 | 0x0D97      |        3479 |
|     130 | 0x1D02      |        7426 |
|     131 | 0x0C98      |        3224 |
|     132 | 0x1D03      |        7427 |
|     133 | 0x0D9B      |        3483 |
|     134 | 0x1D04      |        7428 |
|     135 | 0x1D05      |        7429 |
|     136 | 0xFFFFA0EA  |  4294942954 |
|     137 | 0x399A      |       14746 |
|     138 | 0xFFFFFFA7  |  4294967207 |
|     139 | 0x07D0      |        2000 |
|     140 | 0x0CA5      |        3237 |
|     141 | 0xFFFFFC18  |  4294966296 |
|     142 | 0x1D06      |        7430 |
|     143 | 0x1D07      |        7431 |
|     144 | 0x0DCD      |        3533 |
|     145 | 0xFFFFAFAF  |  4294946735 |
|     146 | 0x4F08      |       20232 |
|     147 | 0xFFFFBE41  |  4294950465 |
|     148 | 0x5259      |       21081 |
|     149 | 0x0BB8      |        3000 |
|     150 | 0x0D93      |        3475 |
|     151 | 0x1D08      |        7432 |
|     152 | 0x0122      |         290 |
|     153 | 0x1D09      |        7433 |
|     154 | 0x1D0A      |        7434 |
|     155 | 0x1D0B      |        7435 |
|     156 | 0x1D0C      |        7436 |
|     157 | 0x1D0D      |        7437 |
|     158 | 0x1D0E      |        7438 |
|     159 | 0x1D0F      |        7439 |
|     160 | 0x1D10      |        7440 |
|     161 | 0x1D11      |        7441 |
|     162 | 0x1D12      |        7442 |
|     163 | 0x0048      |          72 |
|     164 | 0x0010      |          16 |
|     165 | 0x1D13      |        7443 |
|     166 | 0x1D14      |        7444 |
|     167 | 0x0D96      |        3478 |
|     168 | 0x1D15      |        7445 |
|     169 | 0x0DE5      |        3557 |
|     170 | 0x0DE6      |        3558 |
|     171 | 0x1D16      |        7446 |
|     172 | 0x1D17      |        7447 |
|     173 | 0x1D18      |        7448 |
|     174 | 0x0D9C      |        3484 |
|     175 | 0x1D19      |        7449 |
|     176 | 0x0064      |         100 |
|     177 | 0x1D1A      |        7450 |
|     178 | 0x0C88      |        3208 |
|     179 | 0x1D1B      |        7451 |
|     180 | 0x00B4      |         180 |
|     181 | 0x1D1C      |        7452 |
|     182 | 0x0C87      |        3207 |
|     183 | 0x1D1D      |        7453 |
|     184 | 0x1D1E      |        7454 |
|     185 | 0x1D1F      |        7455 |
|     186 | 0x0C91      |        3217 |
|     187 | 0x1D20      |        7456 |
|     188 | 0x0C8A      |        3210 |
|     189 | 0x1D21      |        7457 |
|     190 | 0x1D22      |        7458 |
|     191 | 0x0C86      |        3206 |
|     192 | 0x0C93      |        3219 |
|     193 | 0x1D23      |        7459 |
|     194 | 0x1D24      |        7460 |
|     195 | 0x1D25      |        7461 |
|     196 | 0x0D8B      |        3467 |
|     197 | 0x1D26      |        7462 |
|     198 | 0x0D95      |        3477 |
|     199 | 0x1D27      |        7463 |
|     200 | 0x1D28      |        7464 |
|     201 | 0x0DF6      |        3574 |
|     202 | 0x00FA      |         250 |
|     203 | 0x1D29      |        7465 |
|     204 | 0x1D2A      |        7466 |
|     205 | 0x1D2B      |        7467 |
|     206 | 0x1D2C      |        7468 |
|     207 | 0x1D2D      |        7469 |
|     208 | 0x1D2E      |        7470 |
|     209 | 0x1D2F      |        7471 |
|     210 | 0x0C89      |        3209 |
|     211 | 0x1D30      |        7472 |
|     212 | 0xFFFFB5B2  |  4294948274 |
|     213 | 0xD512      |       54546 |
|     214 | 0xFFFFFCA4  |  4294966436 |
|     215 | 0x0383      |         899 |
|     216 | 0x0009      |           9 |
|     217 | 0x1D31      |        7473 |
|     218 | 0x00A0      |         160 |
|     219 | 0x1D32      |        7474 |
|     220 | 0x1D33      |        7475 |
|     221 | 0x012C      |         300 |
|     222 | 0xFFFFB167  |  4294947175 |
|     223 | 0x8AE2      |       35554 |
|     224 | 0xFFFFFF84  |  4294967172 |
|     225 | 0x0208      |         520 |
|     226 | 0xFFFFB22D  |  4294947373 |
|     227 | 0x8E1E      |       36382 |
|     228 | 0xFFFFFF7B  |  4294967163 |
|     229 | 0x051C      |        1308 |
|     230 | 0xFFFFB846  |  4294948934 |
|     231 | 0xA82B      |       43051 |
|     232 | 0xFFFFFE3C  |  4294966844 |
|     233 | 0x0C67      |        3175 |
|     234 | 0xFFFFB2A0  |  4294947488 |
|     235 | 0xA24F      |       41551 |
|     236 | 0xFFFFFEFA  |  4294967034 |
|     237 | 0x0C55      |        3157 |
|     238 | 0xFFFFC21E  |  4294951454 |
|     239 | 0x98EF      |       39151 |
|     240 | 0xFFFFFE6E  |  4294966894 |
|     241 | 0x0B17      |        2839 |
|     242 | 0xFFFFB907  |  4294949127 |
|     243 | 0x9E0D      |       40461 |
|     244 | 0xFFFFFEB6  |  4294966966 |
|     245 | 0xFFFFBCD6  |  4294950102 |
|     246 | 0xA68C      |       42636 |
|     247 | 0xFFFFFE36  |  4294966838 |
|     248 | 0xFFFFB73D  |  4294948669 |
|     249 | 0xB5F3      |       46579 |
|     250 | 0x00E0      |         224 |
|     251 | 0x0CB2      |        3250 |
|     252 | 0x0DA5      |        3493 |
|     253 | 0x1CC4      |        7364 |
|     254 | 0x1D34      |        7476 |
|     255 | 0x1D35      |        7477 |
|     256 | 0x1D36      |        7478 |
|     257 | 0x1D37      |        7479 |
|     258 | 0x1D38      |        7480 |
|     259 | 0x1D39      |        7481 |
|     260 | 0x0DC6      |        3526 |
|     261 | 0x03E8      |        1000 |
|     262 | 0x007F      |         127 |
|     263 | 0xFFFFC676  |  4294952566 |
|     264 | 0x19D62     |      105826 |
|     265 | 0x09C4      |        2500 |
|     266 | 0x0EBD      |        3773 |
|     267 | 0xFFFFBA3C  |  4294949436 |
|     268 | 0x15F9A     |       90010 |
|     269 | 0xFFFFCF10  |  4294954768 |
|     270 | 0x0CCB      |        3275 |
|     271 | 0xFFFFB31D  |  4294947613 |
|     272 | 0x165E7     |       91623 |
|     273 | 0xFFFFD012  |  4294955026 |
|     274 | 0x0400      |        1024 |
|     275 | 0xFFFFB318  |  4294947608 |
|     276 | 0x17019     |       94233 |
|     277 | 0x0C00      |        3072 |
|     278 | 0xFFFFB5BA  |  4294948282 |
|     279 | 0x169EF     |       92655 |
|     280 | 0xFFFFD054  |  4294955092 |
|     281 | 0x0BD0      |        3024 |
|     282 | 0xFFFFB0C6  |  4294947014 |
|     283 | 0x16A9F     |       92831 |
|     284 | 0xFFFFD0B8  |  4294955192 |
|     285 | 0x0C47      |        3143 |
|     286 | 0xFFFFBC6C  |  4294949996 |
|     287 | 0x162E6     |       90854 |
|     288 | 0xFFFFCF16  |  4294954774 |
|     289 | 0xFFFFC128  |  4294951208 |
|     290 | 0xB16C      |       45420 |
|     291 | 0xFFFFFD20  |  4294966560 |
|     292 | 0x0800      |        2048 |
|     293 | 0xFFFFB162  |  4294947170 |
|     294 | 0x15C0E     |       89102 |
|     295 | 0xFFFFD064  |  4294955108 |
|     296 | 0x0C4A      |        3146 |
|     297 | 0xFFFFB7AA  |  4294948778 |
|     298 | 0x15A6C     |       88684 |
|     299 | 0xFFFFCFC8  |  4294954952 |
|     300 | 0xFFFFAEE3  |  4294946531 |
|     301 | 0x162FE     |       90878 |
|     302 | 0xFFFFD00C  |  4294955020 |
|     303 | 0x0C49      |        3145 |
|     304 | 0xFFFFA43F  |  4294943807 |
|     305 | 0x17F07     |       98055 |
|     306 | 0xFFFFCD3F  |  4294954303 |
|     307 | 0x0B61      |        2913 |
|     308 | 0xFFFFB041  |  4294946881 |
|     309 | 0x17277     |       94839 |
|     310 | 0xFFFFC180  |  4294951296 |
|     311 | 0xFFFFC262  |  4294951522 |
|     312 | 0x18298     |       98968 |
|     313 | 0xFFFFC568  |  4294952296 |
|     314 | 0xFFFFB089  |  4294946953 |
|     315 | 0x20BE1     |      134113 |
|     316 | 0xFFFFDCD8  |  4294958296 |
|     317 | 0x0DC1      |        3521 |
|     318 | 0x0D49      |        3401 |
|     319 | 0x0044      |          68 |
|     320 | 0x0348      |         840 |
|     321 | 0x1D3A      |        7482 |
|     322 | 0xFFFFB502  |  4294948098 |
|     323 | 0x17183     |       94595 |
|     324 | 0xFFFFB9B0  |  4294949296 |
|     325 | 0x1D3B      |        7483 |
|     326 | 0x00E1      |         225 |
|     327 | 0x0032      |          50 |
|     328 | 0x0DC3      |        3523 |
|     329 | 0x00E2      |         226 |
|     330 | 0x0DC2      |        3522 |
|     331 | 0x0D67      |        3431 |
|     332 | 0x0D66      |        3430 |
|     333 | 0xFFFFB04A  |  4294946890 |
|     334 | 0x16AA9     |       92841 |
|     335 | 0xFFFFD097  |  4294955159 |
|     336 | 0xFFFFD020  |  4294955040 |
|     337 | 0x0DC4      |        3524 |
|     338 | 0x0C8C      |        3212 |
|     339 | 0xFFFFB0D4  |  4294947028 |
|     340 | 0x116A8     |       71336 |
|     341 | 0xFFFFE307  |  4294959879 |
|     342 | 0x0C59      |        3161 |
|     343 | 0x0CFD      |        3325 |
|     344 | 0x0DBA      |        3514 |
|     345 | 0x00C9      |         201 |
|     346 | 0x1D3C      |        7484 |
|     347 | 0x009C      |         156 |
|     348 | 0x1D3D      |        7485 |
|     349 | 0x00E6      |         230 |
|     350 | 0x00E3      |         227 |
|     351 | 0x0104      |         260 |
|     352 | 0x0020      |          32 |
|     353 | 0x1D3E      |        7486 |
|     354 | 0x004A      |          74 |
|     355 | 0xFFFFB549  |  4294948169 |
|     356 | 0x15BF9     |       89081 |
|     357 | 0xFFFFCFF8  |  4294955000 |
|     358 | 0x0063      |          99 |
|     359 | 0x0C8F      |        3215 |
|     360 | 0x00F0      |         240 |
|     361 | 0x0D68      |        3432 |
|     362 | 0x002C      |          44 |
|     363 | 0x0761      |        1889 |
|     364 | 0x011C      |         284 |
|     365 | 0x0021      |          33 |
|     366 | 0x001C      |          28 |
|     367 | 0x001D      |          29 |
|     368 | 0x000A      |          10 |
|     369 | 0x16DDB     |       93659 |
|     370 | 0x0024      |          36 |
|     371 | 0x0034      |          52 |
|     372 | 0x00F5      |         245 |
|     373 | 0x0DCB      |        3531 |
|     374 | 0x1D3F      |        7487 |
|     375 | 0x0136      |         310 |
|     376 | 0x1D40      |        7488 |
|     377 | 0xFFFFB62C  |  4294948396 |
|     378 | 0x16BD8     |       93144 |
|     379 | 0xFFFFD000  |  4294955008 |
|     380 | 0x0CA8      |        3240 |
|     381 | 0x00E4      |         228 |
|     382 | 0x0C8D      |        3213 |
|     383 | 0x0DC7      |        3527 |
|     384 | 0x00E7      |         231 |
|     385 | 0x00E8      |         232 |
|     386 | 0x0190      |         400 |
|     387 | 0x0DC8      |        3528 |
|     388 | 0x0026      |          38 |
|     389 | 0x12897     |       75927 |
|     390 | 0xFFFFDAC0  |  4294957760 |
|     391 | 0x0C8E      |        3214 |
|     392 | 0x0DDD      |        3549 |
|     393 | 0x014A      |         330 |
|     394 | 0xFFFFBD9D  |  4294950301 |
|     395 | 0xA5E8      |       42472 |
|     396 | 0xFFFFFE55  |  4294966869 |
|     397 | 0x0C8B      |        3211 |
|     398 | 0x0DA6      |        3494 |
|     399 | 0x004C      |          76 |
|     400 | 0x0068      |         104 |
|     401 | 0x008C      |         140 |
|     402 | 0x0DA7      |        3495 |
|     403 | 0x0118      |         280 |
|     404 | 0x1D41      |        7489 |
|     405 | 0x0060      |          96 |
|     406 | 0x00D0      |         208 |
|     407 | 0xFFFFB5C2  |  4294948290 |
|     408 | 0x16FAB     |       94123 |
|     409 | 0xFFFFCF66  |  4294954854 |
|     410 | 0x06AB      |        1707 |
|     411 | 0xFFFFB40D  |  4294947853 |
|     412 | 0x16EE8     |       93928 |
|     413 | 0xFFFFCFFA  |  4294955002 |
|     414 | 0xFFFFB5E3  |  4294948323 |
|     415 | 0xB025      |       45093 |
|     416 | 0xFFFFFDCB  |  4294966731 |
|     417 | 0xFFFFB6A2  |  4294948514 |
|     418 | 0x9F81      |       40833 |
|     419 | 0xFFFFFEDF  |  4294967007 |
|     420 | 0x1000      |        4096 |
|     421 | 0x0DDE      |        3550 |
|     422 | 0x0DBE      |        3518 |
|     423 | 0x0DCA      |        3530 |
|     424 | 0x00E5      |         229 |
|     425 | 0x0080      |         128 |
|     426 | 0x016C      |         364 |
|     427 | 0x0094      |         148 |
|     428 | 0x1D42      |        7490 |
|     429 | 0x0049      |          73 |
|     430 | 0x1D43      |        7491 |
|     431 | 0x1D44      |        7492 |
|     432 | 0xFFFFDB19  |  4294957849 |
|     433 | 0x9F95      |       40853 |
|     434 | 0xFFFFFF09  |  4294967049 |
|     435 | 0x0F00      |        3840 |
|     436 | 0x1D45      |        7493 |
|     437 | 0x0074      |         116 |
|     438 | 0x1D46      |        7494 |
|     439 | 0x0DBF      |        3519 |
|     440 | 0x0030      |          48 |
|     441 | 0x1D47      |        7495 |
|     442 | 0x1D48      |        7496 |
|     443 | 0x1D49      |        7497 |
|     444 | 0x0258      |         600 |
|     445 | 0xFFFFC67A  |  4294952570 |
|     446 | 0x75BE      |       30142 |
|     447 | 0x0646      |        1606 |
|     448 | 0xFFFF9230  |  4294939184 |
|     449 | 0x833A      |       33594 |
|     450 | 0x0F6A      |        3946 |
|     451 | 0xFFFF95B5  |  4294940085 |
|     452 | 0x849A      |       33946 |
|     453 | 0xFFFFF7E9  |  4294965225 |
|     454 | 0x07B8      |        1976 |
|     455 | 0xFFFFB928  |  4294949160 |
|     456 | 0x8D50      |       36176 |
|     457 | 0xFFFFFF6F  |  4294967151 |
|     458 | 0x041A      |        1050 |
|     459 | 0xFFFFB77F  |  4294948735 |
|     460 | 0x8386      |       33670 |
|     461 | 0xFFFFFFF0  |  4294967280 |
|     462 | 0x02AB      |         683 |
|     463 | 0xFFFFC41F  |  4294951967 |
|     464 | 0x7C17      |       31767 |
|     465 | 0xFFFFFBF6  |  4294966262 |
|     466 | 0x02AA      |         682 |
|     467 | 0xFFFFC01C  |  4294950940 |
|     468 | 0x71DC      |       29148 |
|     469 | 0xFFFFFE10  |  4294966800 |
|     470 | 0x0E41      |        3649 |
|     471 | 0xFFFFB011  |  4294946833 |
|     472 | 0x90A5      |       37029 |
|     473 | 0xFFFFFF47  |  4294967111 |
|     474 | 0x0754      |        1876 |
|     475 | 0x0D8D      |        3469 |
|     476 | 0x0DF3      |        3571 |
|     477 | 0x1D4A      |        7498 |
|     478 | 0x1D4B      |        7499 |
|     479 | 0x1D4C      |        7500 |
|     480 | 0x1D4D      |        7501 |
|     481 | 0x1D4E      |        7502 |
|     482 | 0x1D4F      |        7503 |
|     483 | 0x1D50      |        7504 |
|     484 | 0x1D51      |        7505 |
|     485 | 0x1D52      |        7506 |
|     486 | 0x1D53      |        7507 |
|     487 | 0x1D54      |        7508 |
|     488 | 0x00AA      |         170 |
|     489 | 0x1D55      |        7509 |
|     490 | 0xFFFFBA75  |  4294949493 |
|     491 | 0x7D9A      |       32154 |
|     492 | 0x005C      |          92 |
|     493 | 0x022F      |         559 |
|     494 | 0xFFFFB547  |  4294948167 |
|     495 | 0x92B6      |       37558 |
|     496 | 0xFFFFFF3F  |  4294967103 |
|     497 | 0xFFFFC09C  |  4294951068 |
|     498 | 0x8050      |       32848 |
|     499 | 0x022E      |         558 |
|     500 | 0x009F      |         159 |
|     501 | 0x0DBB      |        3515 |
|     502 | 0x01F4      |         500 |
|     503 | 0xFFFFB95B  |  4294949211 |
|     504 | 0x7B55      |       31573 |
|     505 | 0x00B1      |         177 |
|     506 | 0x1D56      |        7510 |
|     507 | 0x1D57      |        7511 |
|     508 | 0x1D58      |        7512 |
|     509 | 0x00DF      |         223 |
|     510 | 0x0DBC      |        3516 |
|     511 | 0xFFFFC4E7  |  4294952167 |
|     512 | 0x77B2      |       30642 |
|     513 | 0x0335      |         821 |
|     514 | 0x1D59      |        7513 |
|     515 | 0x1D5A      |        7514 |
|     516 | 0x0DBD      |        3517 |
|     517 | 0x1D5B      |        7515 |
|     518 | 0x0DC9      |        3529 |
|     519 | 0x1D5C      |        7516 |
|     520 | 0x1D5D      |        7517 |
|     521 | 0x0DF1      |        3569 |
|     522 | 0x1D5E      |        7518 |
|     523 | 0xFFFFB685  |  4294948485 |
|     524 | 0x162F6     |       90870 |
|     525 | 0xFFFFD026  |  4294955046 |
|     526 | 0x0BC0      |        3008 |
|     527 | 0xFFFFAE2E  |  4294946350 |
|     528 | 0x1E524     |      124196 |
|     529 | 0xFFFFD108  |  4294955272 |
|     530 | 0xFFFFB1DF  |  4294947295 |
|     531 | 0x1EA29     |      125481 |
|     532 | 0x04B7      |        1207 |
|     533 | 0xFFFFAA6D  |  4294945389 |
|     534 | 0x1E938     |      125240 |
|     535 | 0x03D8      |         984 |
|     536 | 0xFFFFB862  |  4294948962 |
|     537 | 0x1634A     |       90954 |
|     538 | 0xFFFFCFD8  |  4294954968 |
|     539 | 0xFFFFADE3  |  4294946275 |
|     540 | 0x162BB     |       90811 |
|     541 | 0xFFFFCFD2  |  4294954962 |
|     542 | 0x00E9      |         233 |
|     543 | 0x00DC      |         220 |
|     544 | 0x0154      |         340 |
|     545 | 0x0CA2      |        3234 |
|     546 | 0x1D5F      |        7519 |
|     547 | 0x1D60      |        7520 |
|     548 | 0x1D61      |        7521 |
|     549 | 0x1D62      |        7522 |
|     550 | 0x0D85      |        3461 |
|     551 | 0x1D63      |        7523 |
|     552 | 0x1D64      |        7524 |
|     553 | 0x1D65      |        7525 |
|     554 | 0x0C9F      |        3231 |
|     555 | 0x1D66      |        7526 |
|     556 | 0xFFFFBB06  |  4294949638 |
|     557 | 0xA55E      |       42334 |
|     558 | 0xFFFFFE6C  |  4294966892 |
|     559 | 0x037B      |         891 |
|     560 | 0xFFFFC141  |  4294951233 |
|     561 | 0x9FC9      |       40905 |
|     562 | 0xFFFFFE59  |  4294966873 |
|     563 | 0x0379      |         889 |
|     564 | 0xFFFFC5B9  |  4294952377 |
|     565 | 0x9F88      |       40840 |
|     566 | 0xFFFFFE0D  |  4294966797 |
|     567 | 0x040A      |        1034 |
|     568 | 0xFFFFB8A4  |  4294949028 |
|     569 | 0x96EF      |       38639 |
|     570 | 0xFFFFFEEB  |  4294967019 |
|     571 | 0x0D8C      |        3468 |
|     572 | 0xFFFFBF35  |  4294950709 |
|     573 | 0x98F4      |       39156 |
|     574 | 0xFFFFFE8D  |  4294966925 |
|     575 | 0x0BCC      |        3020 |
|     576 | 0x1D67      |        7527 |
|     577 | 0x1D68      |        7528 |
|     578 | 0x1D69      |        7529 |
|     579 | 0x1D6A      |        7530 |
|     580 | 0x1D6B      |        7531 |
|     581 | 0x1D6C      |        7532 |
|     582 | 0x1D6D      |        7533 |
|     583 | 0x1D6E      |        7534 |
|     584 | 0x1D6F      |        7535 |
|     585 | 0x0DB9      |        3513 |
|     586 | 0x1D70      |        7536 |
|     587 | 0x1D71      |        7537 |
|     588 | 0x1D72      |        7538 |
|     589 | 0x1D73      |        7539 |
|     590 | 0x1D74      |        7540 |
|     591 | 0x1D75      |        7541 |
|     592 | 0x1D76      |        7542 |
|     593 | 0x0DDF      |        3551 |
|     594 | 0x1D77      |        7543 |
|     595 | 0x1D78      |        7544 |
|     596 | 0x1D79      |        7545 |
|     597 | 0x00D7      |         215 |
|     598 | 0xFFFFBBD0  |  4294949840 |
|     599 | 0x4A81      |       19073 |
|     600 | 0xFFFFFE08  |  4294966792 |
|     601 | 0x0310      |         784 |
|     602 | 0xFFFFB4F7  |  4294948087 |
|     603 | 0x47A2      |       18338 |
|     604 | 0x0373      |         883 |
|     605 | 0x015E      |         350 |
|     606 | 0x2D0B      |       11531 |
|     607 | 0xFFFFD24E  |  4294955598 |
|     608 | 0x08B0      |        2224 |
|     609 | 0x02E3      |         739 |
|     610 | 0x0E24      |        3620 |
|     611 | 0x1D7F      |        7551 |
|     612 | 0x0D82      |        3458 |
|     613 | 0x1D80      |        7552 |
|     614 | 0x1D81      |        7553 |
|     615 | 0xFFFFE08F  |  4294959247 |
|     616 | 0x4452      |       17490 |
|     617 | 0xFFFFFFEA  |  4294967274 |
|     618 | 0x1D82      |        7554 |
|     619 | 0x0C9E      |        3230 |
|     620 | 0x1D83      |        7555 |
|     621 | 0x1D84      |        7556 |
|     622 | 0x1D85      |        7557 |
|     623 | 0x00D8      |         216 |
|     624 | 0x0D7B      |        3451 |
|     625 | 0x1D86      |        7558 |
|     626 | 0x0DD1      |        3537 |
|     627 | 0x1D87      |        7559 |
|     628 | 0x0DCF      |        3535 |
|     629 | 0x1D88      |        7560 |
|     630 | 0x1D89      |        7561 |
|     631 | 0xFFFFAA28  |  4294945320 |
|     632 | 0x91CF      |       37327 |
|     633 | 0xFFFFF6F9  |  4294964985 |
|     634 | 0x0AE9      |        2793 |
|     635 | 0xFFFF9F97  |  4294942615 |
|     636 | 0x7562      |       30050 |
|     637 | 0xFFFFFEDA  |  4294967002 |
|     638 | 0x0A4C      |        2636 |
|     639 | 0xFFFFA5A7  |  4294944167 |
|     640 | 0x741F      |       29727 |
|     641 | 0xFFFFFF9F  |  4294967199 |
|     642 | 0x09D6      |        2518 |
|     643 | 0xFFFFA0F8  |  4294942968 |
|     644 | 0x6EA2      |       28322 |
|     645 | 0xFFFFFFA1  |  4294967201 |
|     646 | 0x0A40      |        2624 |
|     647 | 0xFFFFB4B7  |  4294948023 |
|     648 | 0x18840     |      100416 |
|     649 | 0xFFFFCC77  |  4294954103 |
|     650 | 0x0414      |        1044 |
|     651 | 0xFFFF9B91  |  4294941585 |
|     652 | 0x69D2      |       27090 |
|     653 | 0xFFFFFFB6  |  4294967222 |
|     654 | 0x0AEE      |        2798 |
|     655 | 0xFFFFB2EB  |  4294947563 |
|     656 | 0x184F7     |       99575 |
|     657 | 0xFFFFCAE8  |  4294953704 |
|     658 | 0xFFFFB6FB  |  4294948603 |
|     659 | 0x18503     |       99587 |
|     660 | 0x1D8A      |        7562 |
|     661 | 0x1D8B      |        7563 |
|     662 | 0xFFFFB0F3  |  4294947059 |
|     663 | 0x154BB     |       87227 |
|     664 | 0xFFFFD0F2  |  4294955250 |
|     665 | 0xFFFFABC5  |  4294945733 |
|     666 | 0x14D5D     |       85341 |
|     667 | 0xFFFFD14D  |  4294955341 |
|     668 | 0xFFFFB4E5  |  4294948069 |
|     669 | 0x14EC5     |       85701 |
|     670 | 0xFFFFD237  |  4294955575 |
|     671 | 0x1D8C      |        7564 |
|     672 | 0x1D8D      |        7565 |
|     673 | 0x1D8E      |        7566 |
|     674 | 0x1D8F      |        7567 |
|     675 | 0x1D90      |        7568 |
|     676 | 0x1D91      |        7569 |
|     677 | 0x1D92      |        7570 |
|     678 | 0x1D93      |        7571 |
|     679 | 0x1D94      |        7572 |
|     680 | 0x1D95      |        7573 |
|     681 | 0x0CA3      |        3235 |
|     682 | 0x1D96      |        7574 |
|     683 | 0x1D97      |        7575 |
|     684 | 0x1D98      |        7576 |
|     685 | 0x1D99      |        7577 |
|     686 | 0x1D9A      |        7578 |
|     687 | 0x1D9B      |        7579 |
|     688 | 0x1D9C      |        7580 |
|     689 | 0x096A      |        2410 |
|     690 | 0x1D9D      |        7581 |
|     691 | 0x1D9E      |        7582 |
|     692 | 0x1D9F      |        7583 |
|     693 | 0x1DA0      |        7584 |
|     694 | 0x1DA1      |        7585 |
|     695 | 0xFFFFF651  |  4294964817 |
|     696 | 0xFFFDE31C  |  4294828828 |
|     697 | 0x06FC      |        1788 |
|     698 | 0xFFFFF159  |  4294963545 |
|     699 | 0xFFFFFF68  |  4294967144 |
|     700 | 0x0D60      |        3424 |
|     701 | 0xFFFFF2D6  |  4294963926 |
|     702 | 0x02A6      |         678 |
|     703 | 0xFFFDE31B  |  4294828827 |
|     704 | 0x0313      |         787 |
|     705 | 0x06CA      |        1738 |
|     706 | 0xFFFFC09F  |  4294951071 |
|     707 | 0x7FB1      |       32689 |
|     708 | 0x0BB6      |        2998 |
|     709 | 0xFFFFC786  |  4294952838 |
|     710 | 0x845A      |       33882 |
|     711 | 0x0B3B      |        2875 |
|     712 | 0xFFFFBCA8  |  4294950056 |
|     713 | 0x8C46      |       35910 |
|     714 | 0xFFFFFF70  |  4294967152 |
|     715 | 0x02D9      |         729 |
|     716 | 0xFFFFC214  |  4294951444 |
|     717 | 0x9272      |       37490 |
|     718 | 0xFFFFFED5  |  4294966997 |
|     719 | 0x03C3      |         963 |
|     720 | 0x0C6F      |        3183 |
|     721 | 0x0805      |        2053 |
|     722 | 0x1DA2      |        7586 |
|     723 | 0x1DA3      |        7587 |
|     724 | 0x1DA4      |        7588 |
|     725 | 0x1DA5      |        7589 |
|     726 | 0x1DA6      |        7590 |
|     727 | 0x1DA7      |        7591 |
|     728 | 0x1DA8      |        7592 |
|     729 | 0x0CA1      |        3233 |
|     730 | 0x1DA9      |        7593 |
|     731 | 0x1DAA      |        7594 |
|     732 | 0x1DAB      |        7595 |
|     733 | 0x1DAC      |        7596 |
|     734 | 0x0927      |        2343 |
|     735 | 0x1DAD      |        7597 |
|     736 | 0x1DAE      |        7598 |
|     737 | 0x1DAF      |        7599 |
|     738 | 0x1DB0      |        7600 |
|     739 | 0x1DB1      |        7601 |
|     740 | 0x1DB2      |        7602 |
|     741 | 0x1DB3      |        7603 |
|     742 | 0x1DB4      |        7604 |
|     743 | 0x1DB5      |        7605 |
|     744 | 0x1DB6      |        7606 |
|     745 | 0x1DB7      |        7607 |
|     746 | 0x1DB8      |        7608 |
|     747 | 0x1DB9      |        7609 |
|     748 | 0x1DBA      |        7610 |
|     749 | 0x1DBB      |        7611 |
|     750 | 0x1DBC      |        7612 |
|     751 | 0x1DBD      |        7613 |
|     752 | 0x1DBE      |        7614 |
|     753 | 0x0042      |          66 |
|     754 | 0x1DBF      |        7615 |
|     755 | 0x1DC0      |        7616 |
|     756 | 0x1DC1      |        7617 |
|     757 | 0x1DC2      |        7618 |
|     758 | 0x1DC3      |        7619 |
|     759 | 0x0DF4      |        3572 |
|     760 | 0x1DC4      |        7620 |
|     761 | 0x1DC5      |        7621 |
|     762 | 0x1DC6      |        7622 |
|     763 | 0x1DC7      |        7623 |
|     764 | 0xFFFFFF7A  |  4294967162 |
|     765 | 0x94CA      |       38090 |
|     766 | 0x0424      |        1060 |
|     767 | 0x0081      |         129 |
|     768 | 0xFFFF8F6C  |  4294938476 |
|     769 | 0x1DC8      |        7624 |
|     770 | 0x1DC9      |        7625 |
|     771 | 0x00D5      |         213 |
|     772 | 0x1DCA      |        7626 |
|     773 | 0x04B0      |        1200 |
|     774 | 0x1DCB      |        7627 |
|     775 | 0x1DCC      |        7628 |
|     776 | 0x1DCD      |        7629 |
|     777 | 0x1DCE      |        7630 |
|     778 | 0x0040      |          64 |
|     779 | 0x1DCF      |        7631 |
|     780 | 0x1DD0      |        7632 |
|     781 | 0x1DD1      |        7633 |
|     782 | 0x1DD2      |        7634 |
|     783 | 0x1DD3      |        7635 |
|     784 | 0x1DD4      |        7636 |
|     785 | 0x00BE      |         190 |
|     786 | 0x1DD5      |        7637 |
|     787 | 0x1DD6      |        7638 |
|     788 | 0xFFFFB818  |  4294948888 |
|     789 | 0x5776      |       22390 |
|     790 | 0xFFFFFE02  |  4294966786 |
|     791 | 0x0A16      |        2582 |
|     792 | 0x0CB7      |        3255 |
|     793 | 0xFFFFFCCE  |  4294966478 |
|     794 | 0xFFFFFE67  |  4294966887 |
|     795 | 0x0AAE      |        2734 |
|     796 | 0x0A88      |        2696 |
|     797 | 0xFFFFEFD8  |  4294963160 |
|     798 | 0x004E      |          78 |
|     799 | 0x0A93      |        2707 |
|     800 | 0xFFFFA3E2  |  4294943714 |
|     801 | 0x4C05      |       19461 |
|     802 | 0x0F06      |        3846 |
|     803 | 0x1A8A      |        6794 |
|     804 | 0xFFFFDFA5  |  4294959013 |
|     805 | 0x01BB      |         443 |
|     806 | 0x0A44      |        2628 |
|     807 | 0xFFFFB85F  |  4294948959 |
|     808 | 0x4DF7      |       19959 |
|     809 | 0x07CD      |        1997 |
|     810 | 0x0E01      |        3585 |
|     811 | 0x0E28      |        3624 |
|     812 | 0x000B      |          11 |
|     813 | 0x01E0      |         480 |
|     814 | 0x006E      |         110 |
|     815 | 0x06F6      |        1782 |
|     816 | 0xFFFFFE17  |  4294966807 |
|     817 | 0x0A94      |        2708 |
|     818 | 0xFFFFBD1D  |  4294950173 |
|     819 | 0x48BE      |       18622 |
|     820 | 0x0B29      |        2857 |
|     821 | 0xFFFFC42C  |  4294951980 |
|     822 | 0x4CF6      |       19702 |
|     823 | 0xFFFFFE88  |  4294966920 |
|     824 | 0xFFFFCB15  |  4294953749 |
|     825 | 0x5123      |       20771 |
|     826 | 0xFFFFFF33  |  4294967091 |
|     827 | 0x0915      |        2325 |
|     828 | 0x01E9      |         489 |
|     829 | 0x0DD6      |        3542 |
|     830 | 0x1DD7      |        7639 |
|     831 | 0x1DD8      |        7640 |
|     832 | 0x1DD9      |        7641 |
|     833 | 0x1DDA      |        7642 |
|     834 | 0x1DDB      |        7643 |
|     835 | 0x007D      |         125 |
|     836 | 0x1DDC      |        7644 |
|     837 | 0x0DF5      |        3573 |
|     838 | 0x0E35      |        3637 |
|     839 | 0x1DDD      |        7645 |
|     840 | 0x1DDE      |        7646 |
|     841 | 0x1DDF      |        7647 |
|     842 | 0x1DE0      |        7648 |
|     843 | 0x1DE1      |        7649 |
|     844 | 0x1DE2      |        7650 |
|     845 | 0x1DE3      |        7651 |
|     846 | 0x1DE4      |        7652 |
|     847 | 0x0DC0      |        3520 |
|     848 | 0x1DE5      |        7653 |
|     849 | 0x0016      |          22 |
|     850 | 0x1DE6      |        7654 |
|     851 | 0x1DE7      |        7655 |
|     852 | 0x1DE8      |        7656 |
|     853 | 0x1DE9      |        7657 |
|     854 | 0x0E29      |        3625 |
|     855 | 0x01EA      |         490 |
|     856 | 0x1DEA      |        7658 |
|     857 | 0x001A      |          26 |
|     858 | 0x1DEB      |        7659 |
|     859 | 0x1DEC      |        7660 |
|     860 | 0xFFFFBA30  |  4294949424 |
|     861 | 0x4DC3      |       19907 |
|     862 | 0xFFFFFDAF  |  4294966703 |
|     863 | 0x0855      |        2133 |
|     864 | 0x0DE7      |        3559 |
|     865 | 0x0E1E      |        3614 |
|     866 | 0x1DED      |        7661 |
|     867 | 0x1DEF      |        7663 |
|     868 | 0x1DEE      |        7662 |
|     869 | 0x0DFB      |        3579 |
|     870 | 0x1DF0      |        7664 |
|     871 | 0x0018      |          24 |
|     872 | 0x1DF1      |        7665 |
|     873 | 0x1DF2      |        7666 |
|     874 | 0x0E1C      |        3612 |
|     875 | 0x1DF3      |        7667 |
|     876 | 0x1DF4      |        7668 |
|     877 | 0x1DF5      |        7669 |
|     878 | 0x0E1A      |        3610 |
|     879 | 0x1DF6      |        7670 |
|     880 | 0xFFFFC292  |  4294951570 |
|     881 | 0x48F7      |       18679 |
|     882 | 0xFFFFFE7B  |  4294966907 |
|     883 | 0x1DF7      |        7671 |
|     884 | 0x0E1B      |        3611 |
|     885 | 0x1DF8      |        7672 |
|     886 | 0x1DF9      |        7673 |
|     887 | 0x1DFA      |        7674 |
|     888 | 0x1DFB      |        7675 |
|     889 | 0x1DFC      |        7676 |
|     890 | 0x1DFD      |        7677 |
|     891 | 0x1DFE      |        7678 |
|     892 | 0x0E8B      |        3723 |
|     893 | 0x1DFF      |        7679 |
|     894 | 0x1E00      |        7680 |
|     895 | 0x1E01      |        7681 |
|     896 | 0x1E02      |        7682 |
|     897 | 0xFFFFBD39  |  4294950201 |
|     898 | 0x4476      |       17526 |
|     899 | 0xFFFFFE60  |  4294966880 |
|     900 | 0x0409      |        1033 |
|     901 | 0xFFFFC435  |  4294951989 |
|     902 | 0x6C4F      |       27727 |
|     903 | 0x0132      |         306 |
|     904 | 0x03FB      |        1019 |
|     905 | 0xFFFF8987  |  4294936967 |
|     906 | 0x2818      |       10264 |
|     907 | 0x0067      |         103 |
|     908 | 0x0C65      |        3173 |
|     909 | 0xFFFF9F8C  |  4294942604 |
|     910 | 0x72BF      |       29375 |
|     911 | 0xFFFFFF2B  |  4294967083 |
|     912 | 0x0466      |        1126 |
|     913 | 0x0277      |         631 |
|     914 | 0x1E03      |        7683 |
|     915 | 0x1E04      |        7684 |
|     916 | 0x1E05      |        7685 |
|     917 | 0x1E06      |        7686 |
|     918 | 0x1E07      |        7687 |
|     919 | 0x1E08      |        7688 |
|     920 | 0x1E09      |        7689 |
|     921 | 0x1E0A      |        7690 |
|     922 | 0x1E0B      |        7691 |
|     923 | 0x1E0C      |        7692 |
|     924 | 0x1E0D      |        7693 |
|     925 | 0x1E0E      |        7694 |
|     926 | 0x0084      |         132 |
|     927 | 0x1E0F      |        7695 |
|     928 | 0x000D      |          13 |
|     929 | 0xFFFFAFFA  |  4294946810 |
|     930 | 0x53E6      |       21478 |
|     931 | 0xFFFDDB91  |  4294826897 |
|     932 | 0x09AC      |        2476 |
|     933 | 0x2EA3      |       11939 |
|     934 | 0xFFFFC73B  |  4294952763 |
|     935 | 0x01F3      |         499 |
|     936 | 0x0A47      |        2631 |
|     937 | 0xFFFFC328  |  4294951720 |
|     938 | 0x8495      |       33941 |
|     939 | 0xFFFFFFD2  |  4294967250 |
|     940 | 0x04C6      |        1222 |
|     941 | 0xFFFFC4E8  |  4294952168 |
|     942 | 0x8BF0      |       35824 |
|     943 | 0xFFFFFF5F  |  4294967135 |
|     944 | 0x0551      |        1361 |
|     945 | 0xFFFFD4C7  |  4294956231 |
|     946 | 0x0A3C      |        2620 |
|     947 | 0x00AD      |         173 |
|     948 | 0xFFFFFFCE  |  4294967246 |
|     949 | 0xFFFFFFAA  |  4294967210 |
|     950 | 0x085C      |        2140 |
|     951 | 0x02E1      |         737 |
|     952 | 0x01A4      |         420 |
|     953 | 0xFFFFC8BA  |  4294953146 |
|     954 | 0x3C53      |       15443 |
|     955 | 0xFFFFFF2E  |  4294967086 |
|     956 | 0x0AA1      |        2721 |
|     957 | 0xFFFFC6FD  |  4294952701 |
|     958 | 0x4752      |       18258 |
|     959 | 0xFFFFFED0  |  4294966992 |
|     960 | 0x0B30      |        2864 |
|     961 | 0x1E22      |        7714 |
|     962 | 0x1E23      |        7715 |
|     963 | 0x1E24      |        7716 |
|     964 | 0x1E25      |        7717 |
|     965 | 0x1E26      |        7718 |
|     966 | 0x1E27      |        7719 |
|     967 | 0x1E28      |        7720 |
|     968 | 0x1E29      |        7721 |
|     969 | 0x1E2A      |        7722 |
|     970 | 0x1E2B      |        7723 |
|     971 | 0x1E2C      |        7724 |
|     972 | 0x1E2D      |        7725 |
|     973 | 0x1E2E      |        7726 |
|     974 | 0x0A50      |        2640 |
|     975 | 0x0EA6      |        3750 |
|     976 | 0x0CEC      |        3308 |
|     977 | 0xFFFDDC59  |  4294827097 |
|     978 | 0x1C20      |        7200 |
|     979 | 0x1E2F      |        7727 |
|     980 | 0x1E30      |        7728 |
|     981 | 0x1E31      |        7729 |
|     982 | 0x1E32      |        7730 |
|     983 | 0x1E33      |        7731 |
|     984 | 0x1E34      |        7732 |
|     985 | 0x1E35      |        7733 |
|     986 | 0x1E36      |        7734 |
|     987 | 0x1E37      |        7735 |
|     988 | 0x1E38      |        7736 |
|     989 | 0x1E39      |        7737 |
|     990 | 0x1E3A      |        7738 |
|     991 | 0x1E3B      |        7739 |
|     992 | 0x1E3C      |        7740 |
|     993 | 0x03E7      |         999 |

## String References

- **7364**: @@
- **7420**: Is that true? [Yes. It was out of concern./No. I didn't feel like it.]
- **7499**: Are you all right? [Fine. I'm more worried about you./None of his bullets hit me./I've been dealt worse hands.]
- **7509**: What do you tell Arciela? [You couldn't have known./There was nothing you could have done.]
- **7538**: What will you say? [I know you can do it!/(She doesn't have it in her.)]
- **7612**: How do you respond? [What do you mean?/Did your lunch not agree with you?]
- **7623**: How do you respond? [When she was young?/You kept her safe?]
- **7649**: What do you do? [Blame Morimar./Ask for forgiveness.]
- **7656**: How do you respond? [Well, you see.../I promise.]
- **7714**: @@We strolled through the colors,
- **7715**: @@The sun shining on our steps
- **7716**: @@Reaching for the light to set us free
- **7717**: @@Memories
- **7718**: @@Our shadows fluttering as we chased on$0
- **7719**: @@Don't leave me here alone$0
- **7720**: @@I need you by my side
- **7721**: @@Take my hand
- **7722**: @@Close your eyes
- **7723**: @@I'm just hitting my stride
- **7724**: @@When all around was dark
- **7725**: @@You gave me wings of light
- **7726**: @@Telling me it would remain forever today$3
- **7727**: @@Memories
- **7728**: @@Shining off the streams below
- **7729**: @@Stay here next to me$0
- **7730**: @@As I spread my wings and fly$0
- **7731**: @@Take my hand
- **7732**: @@Close your eyes
- **7733**: @@I'm just hitting my stride
- **7734**: @@Memories
- **7735**: @@Our shadows fluttering as we chased on
- **7736**: @@Don't leave me here alone$0
- **7737**: @@I need you by my side
- **7738**: @@Take my hand
- **7739**: @@Lift your voice
- **7740**: @@And say it will remain forever today$4

## Events

### Event 65535

#### Metadata

| Field        | Value   |
|--------------|---------|
| Entrypoint   | 0x0000  |
| Data Size    | 1 bytes |
| Instructions | 1       |

```
      00 01 02 03 04 05 06 07  08 09 0A 0B 0C 0D 0E 0F
      -- -- -- -- -- -- -- --  -- -- -- -- -- -- -- --
0000: 00                                                .               
```

#### Opcodes

```
  0: 0x0000 [0x00] END_REQSTACK()
```

### Event 2

#### Metadata

| Field        | Value     |
|--------------|-----------|
| Entrypoint   | 0x0001    |
| Data Size    | 608 bytes |
| Instructions | 85        |

```
      00 01 02 03 04 05 06 07  08 09 0A 0B 0C 0D 0E 0F
      -- -- -- -- -- -- -- --  -- -- -- -- -- -- -- --
0000:    42 1A AE 4E 46 01 38  00 80 2F 00 26 90 11 01   B..NF.8../.&...
0010: 2F 00 27 90 11 01 2F 00  22 90 11 01 4E 00 22 90  /.'.../."...N.".
0020: 11 01 4E 00 26 90 11 01  4E 00 27 90 11 01 4E 00  ..N.&...N.'...N.
0030: F0 FF FF 7F 92 01 22 90  11 01 92 01 16 90 11 01  ......".........
0040: 94 01 22 90 11 01 94 01  F0 FF FF 7F 94 01 26 90  .."...........&.
0050: 11 01 94 01 27 90 11 01  BA 22 90 11 01 01 80 02  ....'...."......
0060: 80 03 80 04 80 BA F0 FF  FF 7F 05 80 06 80 07 80  ................
0070: 08 80 BA 26 90 11 01 09  80 0A 80 0B 80 0C 80 BA  ...&............
0080: 27 90 11 01 0D 80 0E 80  0F 80 10 80 80 F0 FF FF  '...............
0090: 7F 80 22 90 11 01 80 16  90 11 01 80 26 90 11 01  ..".........&...
00A0: 80 27 90 11 01 80 28 90  11 01 27 10 39 90 11 01  .'....(...'.9...
00B0: 01 7B F0 FF FF 7F 27 05  26 90 11 01 09 45 11 80  .{....'.&....E..
00C0: F8 FF FF 7F F8 FF FF 7F  73 30 35 31 12 80 1C 13  ........s051....
00D0: 80 1A 8D 4E 1C 14 80 52  11 80 F8 FF FF 7F F8 FF  ...N...R........
00E0: FF 7F 73 30 35 31 45 11  80 F8 FF FF 7F F8 FF FF  ..s051E.........
00F0: 7F 73 30 32 36 12 80 6E  F0 FF FF 7F 15 80 99 F0  .s026..n........
0100: FF FF 7F 1C 16 80 27 05  22 90 11 01 02 79 00 22  ......'."....y."
0110: 90 11 01 F0 FF FF 7F 1C  17 80 52 11 80 F8 FF FF  ..........R.....
0120: 7F F8 FF FF 7F 73 30 32  36 45 11 80 F8 FF FF 7F  .....s026E......
0130: F8 FF FF 7F 73 30 32 38  12 80 27 05 F0 FF FF 7F  ....s028..'.....
0140: 15 1C 16 80 52 11 80 F8  FF FF 7F F8 FF FF 7F 73  ....R..........s
0150: 30 32 38 45 11 80 F8 FF  FF 7F F8 FF FF 7F 73 30  028E..........s0
0160: 35 32 12 80 1C 13 80 27  10 39 90 11 01 02 1C 18  52.....'.9......
0170: 80 27 05 27 90 11 01 08  2A 05 22 90 11 01 5B 19  .'.'....*."...[.
0180: 80 22 90 11 01 22 90 11  01 74 6C 6B 30 2B 22 90  ."..."...tlk0+".
0190: 11 01 1A 80 23 79 00 F0  FF FF 7F 22 90 11 01 2B  ....#y....."...+
01A0: 22 90 11 01 1B 80 23 52  11 80 F8 FF FF 7F F8 FF  ".....#R........
01B0: FF 7F 73 30 35 32 45 11  80 F8 FF FF 7F F8 FF FF  ..s052E.........
01C0: 7F 73 30 35 33 12 80 5B  19 80 22 90 11 01 22 90  .s053..[.."...".
01D0: 11 01 74 6C 6B 31 2B 22  90 11 01 1C 80 23 4E 01  ..tlk1+".....#N.
01E0: 16 90 11 01 2B 22 90 11  01 1D 80 23 52 11 80 F8  ....+".....#R...
01F0: FF FF 7F F8 FF FF 7F 73  30 35 33 45 11 80 F8 FF  .......s053E....
0200: FF 7F F8 FF FF 7F 73 30  35 34 12 80 5B 19 80 22  ......s054..[.."
0210: 90 11 01 22 90 11 01 74  6C 6B 30 2B 22 90 11 01  ..."...tlk0+"...
0220: 1E 80 23 2B 22 90 11 01  1F 80 23 1A AE 4E 1C 20  ..#+".....#..N. 
0230: 80 52 11 80 F8 FF FF 7F  F8 FF FF 7F 73 30 35 34  .R..........s054
0240: 1C 13 80 AB 11 12 80 1C  21 80 AB 0A 46 00 45 14  ........!...F.E.
0250: 80 F0 FF FF 7F F0 FF FF  7F 66 64 69 32 12 80 21  .........fdi2..!
0260: 00                                                .               
```

#### Opcodes

```
  0: 0x0001 [0x42] SET_CLI_EVENT_CANCEL_DATA()
  1: 0x0002 [0x1A] CALL_SUBROUTINE(address=0x4EAE)
  2: 0x0005 [0x46] CAMERA_CONTROL: Disable user control
  3: 0x0007 [0x38] SET_CLIENT_EVENT_MODE(mode=147*)
  4: 0x000A [0x2F] Unnamed NPC (ID: 17928230/0x01119026)->Render.Flags0 &= ~0x80000 // Bit 19
  5: 0x0010 [0x2F] Unnamed NPC (ID: 17928231/0x01119027)->Render.Flags0 &= ~0x80000 // Bit 19
  6: 0x0016 [0x2F] Morimar (ID: 17928226/0x01119022)->Render.Flags0 &= ~0x80000 // Bit 19
  7: 0x001C [0x4E] SET_ENTITY_HIDE_FLAG: Show Morimar (ID: 17928226/0x01119022)
  8: 0x0022 [0x4E] SET_ENTITY_HIDE_FLAG: Show Unnamed NPC (ID: 17928230/0x01119026)
  9: 0x0028 [0x4E] SET_ENTITY_HIDE_FLAG: Show Unnamed NPC (ID: 17928231/0x01119027)
 10: 0x002E [0x4E] SET_ENTITY_HIDE_FLAG: Show LocalPlayer
 11: 0x0034 [0x92] Morimar (ID: 17928226/0x01119022)->Render.Flags3 ^= 0x01
 12: 0x003A [0x92] Meandering Leafkin (ID: 17928214/0x01119016)->Render.Flags3 ^= 0x01
 13: 0x0040 [0x94] Morimar (ID: 17928226/0x01119022)->Render.Flags3 ^= 0x01
 14: 0x0046 [0x94] LocalPlayer->Render.Flags3 ^= 0x01
 15: 0x004C [0x94] Unnamed NPC (ID: 17928230/0x01119026)->Render.Flags3 ^= 0x01
 16: 0x0052 [0x94] Unnamed NPC (ID: 17928231/0x01119027)->Render.Flags3 ^= 0x01
 17: 0x0058 [0xBA] SET_ENTITY_POSITION(entity_id=Morimar (ID: 17928226/0x01119022), pos_x=-1.974*, pos_z=9.856*, pos_y=-0.388*, direction=212.1째*)
 18: 0x0065 [0xBA] SET_ENTITY_POSITION(entity_id=LocalPlayer, pos_x=1.171*, pos_z=0.494*, pos_y=-0.468*, direction=233.3째*)
 19: 0x0072 [0xBA] SET_ENTITY_POSITION(entity_id=Unnamed NPC (ID: 17928230/0x01119026), pos_x=-5.831*, pos_z=13.505*, pos_y=-0.174*, direction=121.1째*)
 20: 0x007F [0xBA] SET_ENTITY_POSITION(entity_id=Unnamed NPC (ID: 17928231/0x01119027), pos_x=2.786*, pos_z=13.882*, pos_y=-0.457*, direction=115.2째*)
 21: 0x008C [0x80] LOAD_WAIT(entity=LocalPlayer)
 22: 0x0091 [0x80] LOAD_WAIT(entity=Morimar (ID: 17928226/0x01119022))
 23: 0x0096 [0x80] LOAD_WAIT(entity=Meandering Leafkin (ID: 17928214/0x01119016))
 24: 0x009B [0x80] LOAD_WAIT(entity=Unnamed NPC (ID: 17928230/0x01119026))
 25: 0x00A0 [0x80] LOAD_WAIT(entity=Unnamed NPC (ID: 17928231/0x01119027))
 26: 0x00A5 [0x80] LOAD_WAIT(entity=Unnamed NPC (ID: 17928232/0x01119028))
 27: 0x00AA [0x27] REQ_SET(priority=0x10, entity_id=Unnamed NPC (ID: 17928249/0x01119039), tag_num=0x01)
 28: 0x00B1 [0x7B] LocalPlayer stops talking
 29: 0x00B6 [0x27] REQ_SET(priority=0x05, entity_id=Unnamed NPC (ID: 17928230/0x01119026), tag_num=0x09)
 30: 0x00BD [0x45] LOAD_SCHEDULED_TASK: Load scheduler "s051" with entities [EventEntity, EventEntity], work=[633*, 0*]
 31: 0x00CE [0x1C] WAIT(15* ticks)
 32: 0x00D1 [0x1A] CALL_SUBROUTINE(address=0x4E8D)
 33: 0x00D4 [0x1C] WAIT(200* ticks)
 34: 0x00D7 [0x52] END_LOAD_SCHEDULER: End scheduler "s051" with entities [EventEntity, EventEntity], work=633*
 35: 0x00E6 [0x45] LOAD_SCHEDULED_TASK: Load scheduler "s026" with entities [EventEntity, EventEntity], work=[633*, 0*]
 36: 0x00F7 [0x6E] LocalPlayer uses emote 8*
 37: 0x00FE [0x99] Wait for LocalPlayer animation to complete
 38: 0x0103 [0x1C] WAIT(80* ticks)
 39: 0x0106 [0x27] REQ_SET(priority=0x05, entity_id=Morimar (ID: 17928226/0x01119022), tag_num=0x02)
 40: 0x010D [0x79] Morimar (ID: 17928226/0x01119022) looks at LocalPlayer (Basic look)
 41: 0x0117 [0x1C] WAIT(40* ticks)
 42: 0x011A [0x52] END_LOAD_SCHEDULER: End scheduler "s026" with entities [EventEntity, EventEntity], work=633*
 43: 0x0129 [0x45] LOAD_SCHEDULED_TASK: Load scheduler "s028" with entities [EventEntity, EventEntity], work=[633*, 0*]
 44: 0x013A [0x27] REQ_SET(priority=0x05, entity_id=LocalPlayer, tag_num=0x15)
 45: 0x0141 [0x1C] WAIT(80* ticks)
 46: 0x0144 [0x52] END_LOAD_SCHEDULER: End scheduler "s028" with entities [EventEntity, EventEntity], work=633*
 47: 0x0153 [0x45] LOAD_SCHEDULED_TASK: Load scheduler "s052" with entities [EventEntity, EventEntity], work=[633*, 0*]
 48: 0x0164 [0x1C] WAIT(15* ticks)
 49: 0x0167 [0x27] REQ_SET(priority=0x10, entity_id=Unnamed NPC (ID: 17928249/0x01119039), tag_num=0x02)
 50: 0x016E [0x1C] WAIT(60* ticks)
 51: 0x0171 [0x27] REQ_SET(priority=0x05, entity_id=Unnamed NPC (ID: 17928231/0x01119027), tag_num=0x08)
 52: 0x0178 [0x2A] GET_REQ_LEVEL(level=5, entity_id=Morimar (ID: 17928226/0x01119022))
 53: 0x017E [0x5B] LOAD_EXT_SCHEDULER: Load scheduler "tlk0" with entities [Morimar (ID: 17928226/0x01119022), Morimar (ID: 17928226/0x01119022)], work=3476*
 54: 0x018D [0x2B] Morimar (ID: 17928226/0x01119022) [7404*]:
     "So ya made it, after all."
 55: 0x0194 [0x23] WAIT_FOR_DIALOG_INTERACTION
 56: 0x0195 [0x79] LocalPlayer looks at Morimar (ID: 17928226/0x01119022) (Basic look)
 57: 0x019F [0x2B] Morimar (ID: 17928226/0x01119022) [7405*]:
     "Sometimes the truth is right under yer nose, and ya just don't know it. We thought this place was destroyed and buried centuries ago."
 58: 0x01A6 [0x23] WAIT_FOR_DIALOG_INTERACTION
 59: 0x01A7 [0x52] END_LOAD_SCHEDULER: End scheduler "s052" with entities [EventEntity, EventEntity], work=633*
 60: 0x01B6 [0x45] LOAD_SCHEDULED_TASK: Load scheduler "s053" with entities [EventEntity, EventEntity], work=[633*, 0*]
 61: 0x01C7 [0x5B] LOAD_EXT_SCHEDULER: Load scheduler "tlk1" with entities [Morimar (ID: 17928226/0x01119022), Morimar (ID: 17928226/0x01119022)], work=3476*
 62: 0x01D6 [0x2B] Morimar (ID: 17928226/0x01119022) [7406*]:
     "This is Leafallia, the sacred home of the leafkin...and the site where the World Tree was first planted."
 63: 0x01DD [0x23] WAIT_FOR_DIALOG_INTERACTION
 64: 0x01DE [0x4E] SET_ENTITY_HIDE_FLAG: Hide Meandering Leafkin (ID: 17928214/0x01119016)
 65: 0x01E4 [0x2B] Morimar (ID: 17928226/0x01119022) [7407*]:
     "To think that we're actually here!"
 66: 0x01EB [0x23] WAIT_FOR_DIALOG_INTERACTION
 67: 0x01EC [0x52] END_LOAD_SCHEDULER: End scheduler "s053" with entities [EventEntity, EventEntity], work=633*
 68: 0x01FB [0x45] LOAD_SCHEDULED_TASK: Load scheduler "s054" with entities [EventEntity, EventEntity], work=[633*, 0*]
 69: 0x020C [0x5B] LOAD_EXT_SCHEDULER: Load scheduler "tlk0" with entities [Morimar (ID: 17928226/0x01119022), Morimar (ID: 17928226/0x01119022)], work=3476*
 70: 0x021B [0x2B] Morimar (ID: 17928226/0x01119022) [7408*]:
     "I know you're itchin' to get started, but we've got to wait for Darrcuiln to bring your princess."
 71: 0x0222 [0x23] WAIT_FOR_DIALOG_INTERACTION
 72: 0x0223 [0x2B] Morimar (ID: 17928226/0x01119022) [7409*]:
     "How's 'bout takin' a look around while ya wait?"
 73: 0x022A [0x23] WAIT_FOR_DIALOG_INTERACTION
 74: 0x022B [0x1A] CALL_SUBROUTINE(address=0x4EAE)
 75: 0x022E [0x1C] WAIT(30* ticks)
 76: 0x0231 [0x52] END_LOAD_SCHEDULER: End scheduler "s054" with entities [EventEntity, EventEntity], work=633*
 77: 0x0240 [0x1C] WAIT(15* ticks)
 78: 0x0243 [0xAB] EventEntity->DespawnValue = 0* // Set despawn value
 79: 0x0247 [0x1C] WAIT(1* ticks)
 80: 0x024A [0xAB] EventEntity->UnknownFlag = 0 // Disable unknown flag
 81: 0x024C [0x46] CAMERA_CONTROL: Restore default settings
 82: 0x024E [0x45] LOAD_SCHEDULED_TASK: Load scheduler "fdi2" with entities [LocalPlayer, LocalPlayer], work=[200*, 0*]
 83: 0x025F [0x21] END_EVENT
 84: 0x0260 [0x00] END_REQSTACK()
```

### Event 4

#### Metadata

| Field        | Value     |
|--------------|-----------|
| Entrypoint   | 0x0261    |
| Data Size    | 372 bytes |
| Instructions | 50        |

```
      00 01 02 03 04 05 06 07  08 09 0A 0B 0C 0D 0E 0F
      -- -- -- -- -- -- -- --  -- -- -- -- -- -- -- --
0260:    42 1A AE 4E 46 01 38  00 80 2F 00 25 90 11 01   B..NF.8../.%...
0270: 4E 00 F0 FF FF 7F 4E 00  25 90 11 01 92 01 25 90  N.....N.%.....%.
0280: 11 01 94 01 25 90 11 01  94 01 F0 FF FF 7F BA F0  ....%...........
0290: FF FF 7F 22 80 23 80 24  80 25 80 BA 25 90 11 01  ...".#.$.%..%...
02A0: 26 80 27 80 28 80 29 80  80 F0 FF FF 7F 80 25 90  &.'.(.).......%.
02B0: 11 01 79 00 25 90 11 01  F0 FF FF 7F 4A F0 FF FF  ..y.%.......J...
02C0: 7F 25 90 11 01 1C 20 80  45 11 80 F0 FF FF 7F F0  .%.... .E.......
02D0: FF FF 7F 73 30 35 35 12  80 1C 13 80 1A 8D 4E 5B  ...s055.......N[
02E0: 2A 80 25 90 11 01 25 90  11 01 74 6C 6B 30 CD 2B  *.%...%...tlk0.+
02F0: 80 25 90 11 01 25 90 11  01 70 6F 77 31 12 80 2B  .%...%...pow1..+
0300: 25 90 11 01 2C 80 23 2A  05 25 90 11 01 52 11 80  %...,.#*.%...R..
0310: F0 FF FF 7F F0 FF FF 7F  73 30 35 35 45 11 80 F0  ........s055E...
0320: FF FF 7F F0 FF FF 7F 73  30 35 36 12 80 CD 2B 80  .......s056...+.
0330: 25 90 11 01 25 90 11 01  70 6F 77 31 12 80 2B 25  %...%...pow1..+%
0340: 90 11 01 2D 80 23 CD 2B  80 25 90 11 01 25 90 11  ...-.#.+.%...%..
0350: 01 70 6F 77 31 12 80 2B  25 90 11 01 2E 80 23 52  .pow1..+%.....#R
0360: 11 80 F0 FF FF 7F F0 FF  FF 7F 73 30 35 36 45 11  ..........s056E.
0370: 80 F0 FF FF 7F F0 FF FF  7F 73 30 35 37 12 80 CD  .........s057...
0380: 2B 80 25 90 11 01 25 90  11 01 70 6F 77 31 12 80  +.%...%...pow1..
0390: 2B 25 90 11 01 2F 80 23  1A AE 4E 1C 20 80 52 11  +%.../.#..N. .R.
03A0: 80 F0 FF FF 7F F0 FF FF  7F 73 30 35 37 27 05 25  .........s057'.%
03B0: 90 11 01 0C 1C 13 80 AB  11 12 80 1C 21 80 AB 0A  ............!...
03C0: 46 00 45 14 80 F0 FF FF  7F F0 FF FF 7F 66 64 69  F.E..........fdi
03D0: 32 12 80 21 00                                    2..!.           
```

#### Opcodes

```
  0: 0x0261 [0x42] SET_CLI_EVENT_CANCEL_DATA()
  1: 0x0262 [0x1A] CALL_SUBROUTINE(address=0x4EAE)
  2: 0x0265 [0x46] CAMERA_CONTROL: Disable user control
  3: 0x0267 [0x38] SET_CLIENT_EVENT_MODE(mode=147*)
  4: 0x026A [0x2F] Unnamed NPC (ID: 17928229/0x01119025)->Render.Flags0 &= ~0x80000 // Bit 19
  5: 0x0270 [0x4E] SET_ENTITY_HIDE_FLAG: Show LocalPlayer
  6: 0x0276 [0x4E] SET_ENTITY_HIDE_FLAG: Show Unnamed NPC (ID: 17928229/0x01119025)
  7: 0x027C [0x92] Unnamed NPC (ID: 17928229/0x01119025)->Render.Flags3 ^= 0x01
  8: 0x0282 [0x94] Unnamed NPC (ID: 17928229/0x01119025)->Render.Flags3 ^= 0x01
  9: 0x0288 [0x94] LocalPlayer->Render.Flags3 ^= 0x01
 10: 0x028E [0xBA] SET_ENTITY_POSITION(entity_id=LocalPlayer, pos_x=-25.541*, pos_z=30.915*, pos_y=-0.478*, direction=237.8째*)
 11: 0x029B [0xBA] SET_ENTITY_POSITION(entity_id=Unnamed NPC (ID: 17928229/0x01119025), pos_x=-27.634*, pos_z=33.672*, pos_y=-2.038*, direction=55.2째*)
 12: 0x02A8 [0x80] LOAD_WAIT(entity=LocalPlayer)
 13: 0x02AD [0x80] LOAD_WAIT(entity=Unnamed NPC (ID: 17928229/0x01119025))
 14: 0x02B2 [0x79] Unnamed NPC (ID: 17928229/0x01119025) looks at LocalPlayer (Basic look)
 15: 0x02BC [0x4A] LocalPlayer looks at Unnamed NPC (ID: 17928229/0x01119025)
 16: 0x02C5 [0x1C] WAIT(30* ticks)
 17: 0x02C8 [0x45] LOAD_SCHEDULED_TASK: Load scheduler "s055" with entities [LocalPlayer, LocalPlayer], work=[633*, 0*]
 18: 0x02D9 [0x1C] WAIT(15* ticks)
 19: 0x02DC [0x1A] CALL_SUBROUTINE(address=0x4E8D)
 20: 0x02DF [0x5B] LOAD_EXT_SCHEDULER: Load scheduler "tlk0" with entities [Unnamed NPC (ID: 17928229/0x01119025), Unnamed NPC (ID: 17928229/0x01119025)], work=3318*
 21: 0x02EE [0xCD] LOAD_SCHEDULED_TASK_ALT4: Load scheduler "pow1" with entities [Unnamed NPC (ID: 17928229/0x01119025), Unnamed NPC (ID: 17928229/0x01119025)], work=[150*, 0*]
 22: 0x02FF [0x2B] Unnamed NPC (ID: 17928229/0x01119025) [7410*]:
     "<I have seen all, childreeen. Both what you have done, and what has befallen the world.>"
 23: 0x0306 [0x23] WAIT_FOR_DIALOG_INTERACTION
 24: 0x0307 [0x2A] GET_REQ_LEVEL(level=5, entity_id=Unnamed NPC (ID: 17928229/0x01119025))
 25: 0x030D [0x52] END_LOAD_SCHEDULER: End scheduler "s055" with entities [LocalPlayer, LocalPlayer], work=633*
 26: 0x031C [0x45] LOAD_SCHEDULED_TASK: Load scheduler "s056" with entities [LocalPlayer, LocalPlayer], work=[633*, 0*]
 27: 0x032D [0xCD] LOAD_SCHEDULED_TASK_ALT4: Load scheduler "pow1" with entities [Unnamed NPC (ID: 17928229/0x01119025), Unnamed NPC (ID: 17928229/0x01119025)], work=[150*, 0*]
 28: 0x033E [0x2B] Unnamed NPC (ID: 17928229/0x01119025) [7411*]:
     "<And I have choseeen to put my faith in you.>"
 29: 0x0345 [0x23] WAIT_FOR_DIALOG_INTERACTION
 30: 0x0346 [0xCD] LOAD_SCHEDULED_TASK_ALT4: Load scheduler "pow1" with entities [Unnamed NPC (ID: 17928229/0x01119025), Unnamed NPC (ID: 17928229/0x01119025)], work=[150*, 0*]
 31: 0x0357 [0x2B] Unnamed NPC (ID: 17928229/0x01119025) [7412*]:
     "<Pure water is our sustenance, and shiniiing light our shelter. Without those, we would never survive.>"
 32: 0x035E [0x23] WAIT_FOR_DIALOG_INTERACTION
 33: 0x035F [0x52] END_LOAD_SCHEDULER: End scheduler "s056" with entities [LocalPlayer, LocalPlayer], work=633*
 34: 0x036E [0x45] LOAD_SCHEDULED_TASK: Load scheduler "s057" with entities [LocalPlayer, LocalPlayer], work=[633*, 0*]
 35: 0x037F [0xCD] LOAD_SCHEDULED_TASK_ALT4: Load scheduler "pow1" with entities [Unnamed NPC (ID: 17928229/0x01119025), Unnamed NPC (ID: 17928229/0x01119025)], work=[150*, 0*]
 36: 0x0390 [0x2B] Unnamed NPC (ID: 17928229/0x01119025) [7413*]:
     "<Our Mother cries out for aid. Come, let us begin the preparatiooons.>"
 37: 0x0397 [0x23] WAIT_FOR_DIALOG_INTERACTION
 38: 0x0398 [0x1A] CALL_SUBROUTINE(address=0x4EAE)
 39: 0x039B [0x1C] WAIT(30* ticks)
 40: 0x039E [0x52] END_LOAD_SCHEDULER: End scheduler "s057" with entities [LocalPlayer, LocalPlayer], work=633*
 41: 0x03AD [0x27] REQ_SET(priority=0x05, entity_id=Unnamed NPC (ID: 17928229/0x01119025), tag_num=0x0C)
 42: 0x03B4 [0x1C] WAIT(15* ticks)
 43: 0x03B7 [0xAB] EventEntity->DespawnValue = 0* // Set despawn value
 44: 0x03BB [0x1C] WAIT(1* ticks)
 45: 0x03BE [0xAB] EventEntity->UnknownFlag = 0 // Disable unknown flag
 46: 0x03C0 [0x46] CAMERA_CONTROL: Restore default settings
 47: 0x03C2 [0x45] LOAD_SCHEDULED_TASK: Load scheduler "fdi2" with entities [LocalPlayer, LocalPlayer], work=[200*, 0*]
 48: 0x03D3 [0x21] END_EVENT
 49: 0x03D4 [0x00] END_REQSTACK()
```

### Event 3

#### Metadata

| Field        | Value       |
|--------------|-------------|
| Entrypoint   | 0x03D5      |
| Data Size    | 19719 bytes |
| Instructions | 2076        |

```
      00 01 02 03 04 05 06 07  08 09 0A 0B 0C 0D 0E 0F
      -- -- -- -- -- -- -- --  -- -- -- -- -- -- -- --
03D0:                42 1A AE  4E 03 00 00 02 10 46 01       B..N.....F.
03E0: 38 00 80 2F 00 20 90 11  01 2F 00 34 90 11 01 2F  8../. .../.4.../
03F0: 00 22 90 11 01 2F 00 25  90 11 01 2F 00 26 90 11  .".../.%.../.&..
0400: 01 2F 00 27 90 11 01 2F  00 28 90 11 01 2F 00 29  ./.'.../.(.../.)
0410: 90 11 01 2F 00 2A 90 11  01 2F 00 2B 90 11 01 2F  .../.*.../.+.../
0420: 00 2C 90 11 01 2F 00 2D  90 11 01 4E 00 34 90 11  .,.../.-...N.4..
0430: 01 4E 00 25 90 11 01 4E  00 20 90 11 01 4E 00 28  .N.%...N. ...N.(
0440: 90 11 01 4E 00 29 90 11  01 4E 00 39 90 11 01 4E  ...N.)...N.9...N
0450: 00 22 90 11 01 22 00 92  01 20 90 11 01 92 01 22  ."..."... ....."
0460: 90 11 01 92 01 25 90 11  01 92 01 26 90 11 01 92  .....%.....&....
0470: 01 27 90 11 01 92 01 28  90 11 01 92 01 29 90 11  .'.....(.....)..
0480: 01 92 01 2A 90 11 01 92  01 2B 90 11 01 92 01 2C  ...*.....+.....,
0490: 90 11 01 92 01 2D 90 11  01 94 01 20 90 11 01 94  .....-..... ....
04A0: 01 22 90 11 01 94 01 34  90 11 01 94 01 25 90 11  .".....4.....%..
04B0: 01 94 01 26 90 11 01 94  01 27 90 11 01 94 01 28  ...&.....'.....(
04C0: 90 11 01 94 01 29 90 11  01 94 01 2A 90 11 01 94  .....).....*....
04D0: 01 2B 90 11 01 94 01 2C  90 11 01 94 01 2D 90 11  .+.....,.....-..
04E0: 01 94 01 F0 FF FF 7F 59  05 20 90 11 01 01 59 05  .......Y. ....Y.
04F0: 25 90 11 01 01 59 05 2B  90 11 01 01 59 05 28 90  %....Y.+....Y.(.
0500: 11 01 01 59 05 29 90 11  01 01 59 05 2C 90 11 01  ...Y.)....Y.,...
0510: 01 59 05 2D 90 11 01 01  33 01 37 30 80 31 80 32  .Y.-....3.70.1.2
0520: 80 33 80 BA 22 90 11 01  34 80 35 80 36 80 37 80  .3.."...4.5.6.7.
0530: BA 20 90 11 01 38 80 39  80 3A 80 3B 80 BA 28 90  . ...8.9.:.;..(.
0540: 11 01 38 80 39 80 3A 80  3B 80 BA 29 90 11 01 38  ..8.9.:.;..)...8
0550: 80 39 80 3A 80 3B 80 BA  2A 90 11 01 3C 80 3D 80  .9.:.;..*...<.=.
0560: 3E 80 3F 80 BA 25 90 11  01 40 80 41 80 42 80 43  >.?..%...@.A.B.C
0570: 80 BA 2B 90 11 01 44 80  45 80 46 80 47 80 BA 2C  ..+...D.E.F.G..,
0580: 90 11 01 34 80 35 80 48  80 37 80 BA 2D 90 11 01  ...4.5.H.7..-...
0590: 49 80 4A 80 4B 80 4C 80  BA F0 FF FF 7F 49 80 4A  I.J.K.L......I.J
05A0: 80 4D 80 4E 80 BA 26 90  11 01 4F 80 50 80 51 80  .M.N..&...O.P.Q.
05B0: 52 80 BA 27 90 11 01 53  80 54 80 55 80 56 80 80  R..'...S.T.U.V..
05C0: 26 90 11 01 80 27 90 11  01 80 22 90 11 01 80 29  &....'...."....)
05D0: 90 11 01 80 F0 FF FF 7F  79 00 F0 FF FF 7F F0 FF  ........y.......
05E0: FF 7F 79 00 2A 90 11 01  F8 FF FF 7F 4B 22 90 11  ..y.*.......K"..
05F0: 01 57 80 1C 20 80 27 10  25 90 11 01 0D 5F 03 58  .W.. .'.%...._.X
0600: 80 20 90 11 01 20 90 11  01 66 6A 30 30 5B 59 80  . ... ...fj00[Y.
0610: 25 90 11 01 25 90 11 01  72 75 6E 30 45 5A 80 F0  %...%...run0EZ..
0620: FF FF 7F F0 FF FF 7F 73  31 39 34 12 80 1C 13 80  .......s194.....
0630: 45 14 80 F0 FF FF 7F F0  FF FF 7F 66 64 69 31 12  E..........fdi1.
0640: 80 1C 2B 80 27 10 39 90  11 01 22 1C 5B 80 52 5A  ..+.'.9...".[.RZ
0650: 80 F0 FF FF 7F F0 FF FF  7F 73 31 39 34 45 5A 80  .........s194EZ.
0660: F0 FF FF 7F F0 FF FF 7F  73 30 35 38 12 80 1C 20  ........s058... 
0670: 80 27 10 25 90 11 01 0E  27 10 39 90 11 01 03 2B  .'.%....'.9....+
0680: 22 90 11 01 5C 80 23 5F  03 5D 80 29 90 11 01 29  "...\.#_.].)...)
0690: 90 11 01 6F 72 69 30 5F  03 5E 80 28 90 11 01 28  ...ori0_.^.(...(
06A0: 90 11 01 6F 72 69 30 5F  03 5F 80 20 90 11 01 20  ...ori0_._. ... 
06B0: 90 11 01 6F 72 69 30 03  02 10 60 80 27 10 38 90  ...ori0...`.'.8.
06C0: 11 01 01 52 5A 80 F0 FF  FF 7F F0 FF FF 7F 73 30  ...RZ.........s0
06D0: 35 38 45 5A 80 F0 FF FF  7F F0 FF FF 7F 73 30 33  58EZ.........s03
06E0: 34 12 80 2A 10 38 90 11  01 5F 03 58 80 20 90 11  4..*.8..._.X. ..
06F0: 01 20 90 11 01 66 6A 30  31 5F 03 5F 80 20 90 11  . ...fj01_._. ..
0700: 01 20 90 11 01 6F 72 69  31 2B 20 90 11 01 61 80  . ...ori1+ ...a.
0710: 1C 62 80 23 5F 03 58 80  20 90 11 01 20 90 11 01  .b.#_.X. ... ...
0720: 66 6A 30 30 52 5A 80 F0  FF FF 7F F0 FF FF 7F 73  fj00RZ.........s
0730: 30 33 34 45 5A 80 F0 FF  FF 7F F0 FF FF 7F 73 30  034EZ.........s0
0740: 35 39 12 80 6E F0 FF FF  7F 63 80 99 F0 FF FF 7F  59..n....c......
0750: 1C 64 80 52 5A 80 F0 FF  FF 7F F0 FF FF 7F 73 30  .d.RZ.........s0
0760: 35 39 45 5A 80 F0 FF FF  7F F0 FF FF 7F 73 30 36  59EZ.........s06
0770: 30 12 80 5B 19 80 22 90  11 01 22 90 11 01 74 6C  0..[.."..."...tl
0780: 6B 30 2B 22 90 11 01 65  80 1C 13 80 6B 69 64 6C  k0+"...e....kidl
0790: 30 29 90 11 01 5F 03 5E  80 28 90 11 01 28 90 11  0)..._.^.(...(..
07A0: 01 67 64 31 6C 1C 66 80  23 5B 19 80 22 90 11 01  .gd1l.f.#[.."...
07B0: 22 90 11 01 74 6C 6B 31  52 5A 80 F0 FF FF 7F F0  "...tlk1RZ......
07C0: FF FF 7F 73 30 36 30 45  5A 80 F0 FF FF 7F F0 FF  ...s060EZ.......
07D0: FF 7F 73 30 36 31 12 80  79 00 22 90 11 01 F0 FF  ..s061..y.".....
07E0: FF 7F 1C 20 80 79 00 F0  FF FF 7F 22 90 11 01 2B  ... .y....."...+
07F0: 22 90 11 01 67 80 5F 03  68 80 29 90 11 01 29 90  "...g._.h.)...).
0800: 11 01 73 69 74 30 5F 03  5E 80 28 90 11 01 28 90  ..sit0_.^.(...(.
0810: 11 01 67 64 6F 30 1C 69  80 23 53 22 90 11 01 22  ..gdo0.i.#S"..."
0820: 90 11 01 74 6C 6B 31 7B  22 90 11 01 5B 6A 80 22  ...tlk1{"...[j."
0830: 90 11 01 22 90 11 01 6B  6F 70 30 2B 22 90 11 01  ..."...kop0+"...
0840: 6B 80 23 52 5A 80 F0 FF  FF 7F F0 FF FF 7F 73 30  k.#RZ.........s0
0850: 36 31 45 5A 80 F0 FF FF  7F F0 FF FF 7F 73 30 36  61EZ.........s06
0860: 32 12 80 40 6C 80 6D 80  01 00 12 80 40 6E 80 6F  2..@l.m.....@n.o
0870: 80 01 00 12 80 24 70 80  12 80 12 80 25 02 00 10  .....$p.....%...
0880: 12 80 00 D5 09 02 00 00  12 80 00 BE 08 41 6C 80  .............Al.
0890: 6D 80 01 00 02 10 02 02  10 71 80 03 BE 08 03 01  m........q......
08A0: 10 21 80 43 00 43 01 41  6C 80 6D 80 01 00 02 10  .!.C.C.Al.m.....
08B0: 07 02 10 21 80 40 6C 80  6D 80 01 00 02 10 6E F0  ...!.@l.m.....n.
08C0: FF FF 7F 6F 80 99 F0 FF  FF 7F 6B 69 64 6C 30 20  ...o......kidl0 
08D0: 90 11 01 BA 20 90 11 01  72 80 73 80 74 80 75 80  .... ...r.s.t.u.
08E0: 4A 20 90 11 01 F0 FF FF  7F 4A 29 90 11 01 F0 FF  J .......J).....
08F0: FF 7F 4A 28 90 11 01 F0  FF FF 7F 7B 20 90 11 01  ..J(.......{ ...
0900: 7B 28 90 11 01 7B 29 90  11 01 6F 76 28 90 11 01  {(...{)...ov(...
0910: 5B 58 80 20 90 11 01 20  90 11 01 66 30 30 30 81  [X. ... ...f000.
0920: 01 20 90 11 01 7C 01 20  90 11 01 D3 00 20 90 11  . ...|. ..... ..
0930: 01 1C 13 80 81 00 29 90  11 01 5F 03 68 80 29 90  ......)..._.h.).
0940: 11 01 29 90 11 01 73 69  74 6C 5F 03 5E 80 28 90  ..)...sitl_.^.(.
0950: 11 01 28 90 11 01 67 64  30 6C 52 5A 80 F0 FF FF  ..(...gd0lRZ....
0960: 7F F0 FF FF 7F 73 30 36  32 45 5A 80 F0 FF FF 7F  .....s062EZ.....
0970: F0 FF FF 7F 73 30 36 34  12 80 5B 76 80 20 90 11  ....s064..[v. ..
0980: 01 20 90 11 01 74 6C 61  30 79 00 F0 FF FF 7F 20  . ...tla0y..... 
0990: 90 11 01 2B 20 90 11 01  77 80 23 52 5A 80 F0 FF  ...+ ...w.#RZ...
09A0: FF 7F F0 FF FF 7F 73 30  36 34 45 5A 80 F0 FF FF  ......s064EZ....
09B0: 7F F0 FF FF 7F 33 36 30  37 12 80 2B 20 90 11 01  .....3607..+ ...
09C0: 78 80 23 5B 76 80 20 90  11 01 20 90 11 01 74 6C  x.#[v. ... ...tl
09D0: 61 31 01 76 0B 02 00 10  21 80 00 76 0B 02 00 00  a1.v....!..v....
09E0: 12 80 00 16 0A 41 6E 80  6F 80 01 00 02 10 02 02  .....An.o.......
09F0: 10 71 80 03 16 0A 03 01  10 79 80 43 00 43 01 41  .q.......y.C.C.A
0A00: 6E 80 6F 80 01 00 02 10  07 02 10 21 80 40 6E 80  n.o........!.@n.
0A10: 6F 80 01 00 02 10 6E F0  FF FF 7F 6E 80 99 F0 FF  o.....n....n....
0A20: FF 7F 6B 69 64 6C 30 20  90 11 01 BA 20 90 11 01  ..kidl0 .... ...
0A30: 72 80 73 80 74 80 75 80  4A 20 90 11 01 F0 FF FF  r.s.t.u.J ......
0A40: 7F 4A 29 90 11 01 F0 FF  FF 7F 4A 28 90 11 01 F0  .J).......J(....
0A50: FF FF 7F 7B 20 90 11 01  7B 28 90 11 01 7B 29 90  ...{ ...{(...{).
0A60: 11 01 6F 76 28 90 11 01  1C 13 80 81 00 29 90 11  ..ov(........)..
0A70: 01 5F 03 68 80 29 90 11  01 29 90 11 01 73 69 74  ._.h.)...)...sit
0A80: 6C 5F 03 5E 80 28 90 11  01 28 90 11 01 67 64 30  l_.^.(...(...gd0
0A90: 6C 81 00 20 90 11 01 7C  00 20 90 11 01 5B 58 80  l.. ...|. ...[X.
0AA0: 20 90 11 01 20 90 11 01  66 64 30 31 5B 7A 80 20   ... ...fd01[z. 
0AB0: 90 11 01 20 90 11 01 70  75 6E 30 03 02 10 7B 80  ... ...pun0...{.
0AC0: 27 10 38 90 11 01 01 1C  20 80 52 5A 80 F0 FF FF  '.8..... .RZ....
0AD0: 7F F0 FF FF 7F 73 30 36  32 45 5A 80 F0 FF FF 7F  .....s062EZ.....
0AE0: F0 FF FF 7F 73 30 36 33  12 80 2B 20 90 11 01 7C  ....s063..+ ...|
0AF0: 80 23 2A 10 38 90 11 01  5B 58 80 20 90 11 01 20  .#*.8...[X. ... 
0B00: 90 11 01 66 6B 30 31 52  5A 80 F0 FF FF 7F F0 FF  ...fk01RZ.......
0B10: FF 7F 73 30 36 33 45 5A  80 F0 FF FF 7F F0 FF FF  ..s063EZ........
0B20: 7F 33 36 30 36 12 80 2B  20 90 11 01 7D 80 23 52  .3606..+ ...}.#R
0B30: 5A 80 F0 FF FF 7F F0 FF  FF 7F 33 36 30 36 45 5A  Z.........3606EZ
0B40: 80 F0 FF FF 7F F0 FF FF  7F 73 30 36 32 12 80 5B  .........s062..[
0B50: 58 80 20 90 11 01 20 90  11 01 66 30 30 30 81 01  X. ... ...f000..
0B60: 20 90 11 01 7C 01 20 90  11 01 D3 00 20 90 11 01   ...|. ..... ...
0B70: 01 75 08 01 76 0B 5C 00  7E 80 5C 01 7E 80 9A 4E  .u..v.\.~.\.~..N
0B80: 00 2B 90 11 01 5B 7F 80  2B 90 11 01 2B 90 11 01  .+...[..+...+...
0B90: 6F 72 69 30 1C 6D 80 52  5A 80 F0 FF FF 7F F0 FF  ori0.m.RZ.......
0BA0: FF 7F 33 36 30 37 45 5A  80 F0 FF FF 7F F0 FF FF  ..3607EZ........
0BB0: 7F 33 36 31 39 12 80 4E  00 2C 90 11 01 4E 00 2D  .3619..N.,...N.-
0BC0: 90 11 01 5B 7F 80 2C 90  11 01 2C 90 11 01 6B 61  ...[..,...,...ka
0BD0: 69 30 5B 7F 80 2D 90 11  01 2D 90 11 01 6B 61 69  i0[..-...-...kai
0BE0: 30 79 00 F0 FF FF 7F 2D  90 11 01 CD 62 80 2B 90  0y.....-....b.+.
0BF0: 11 01 2B 90 11 01 30 72  65 64 12 80 29 10 2B 90  ..+...0red..).+.
0C00: 11 01 06 2B 2B 90 11 01  80 80 1C 13 80 79 00 22  ...++........y."
0C10: 90 11 01 F0 FF FF 7F 5B  81 80 22 90 11 01 22 90  .......[.."...".
0C20: 11 01 6B 6F 75 6C 1C 66  80 23 55 5A 80 F0 FF FF  ..koul.f.#UZ....
0C30: 7F F0 FF FF 7F 33 36 31  39 45 5A 80 F0 FF FF 7F  .....3619EZ.....
0C40: F0 FF FF 7F 73 30 36 36  12 80 CD 62 80 2C 90 11  ....s066...b.,..
0C50: 01 2C 90 11 01 30 67 72  65 12 80 29 10 2C 90 11  .,...0gre..).,..
0C60: 01 05 2B 2C 90 11 01 82  80 23 5B 83 80 20 90 11  ..+,.....#[.. ..
0C70: 01 20 90 11 01 75 65 6F  30 CD 62 80 2D 90 11 01  . ...ueo0.b.-...
0C80: 2D 90 11 01 30 79 65 6C  12 80 29 10 2D 90 11 01  -...0yel..).-...
0C90: 03 2B 2D 90 11 01 84 80  23 5B 85 80 22 90 11 01  .+-.....#[.."...
0CA0: 22 90 11 01 6B 6F 64 30  03 02 10 2B 80 27 10 38  "...kod0...+.'.8
0CB0: 90 11 01 01 52 5A 80 F0  FF FF 7F F0 FF FF 7F 73  ....RZ.........s
0CC0: 30 36 36 45 5A 80 F0 FF  FF 7F F0 FF FF 7F 73 30  066EZ.........s0
0CD0: 36 37 12 80 2B 22 90 11  01 86 80 23 2B 22 90 11  67..+".....#+"..
0CE0: 01 87 80 23 2A 10 38 90  11 01 BA 2B 90 11 01 88  ...#*.8....+....
0CF0: 80 89 80 8A 80 8B 80 5B  8C 80 2B 90 11 01 2B 90  .......[..+...+.
0D00: 11 01 70 69 74 30 52 5A  80 F0 FF FF 7F F0 FF FF  ..pit0RZ........
0D10: 7F 73 30 36 37 45 5A 80  F0 FF FF 7F F0 FF FF 7F  .s067EZ.........
0D20: 73 30 36 38 12 80 1C 13  80 5F 03 5D 80 29 90 11  s068....._.].)..
0D30: 01 29 90 11 01 73 69 75  30 5F 03 5E 80 28 90 11  .)...siu0_.^.(..
0D40: 01 28 90 11 01 73 69 75  30 6B 69 64 6C 30 2C 90  .(...siu0kidl0,.
0D50: 11 01 BA 2C 90 11 01 44  80 45 80 8D 80 47 80 1C  ...,...D.E...G..
0D60: 20 80 2B 2C 90 11 01 8E  80 23 5B 8C 80 2C 90 11   .+,.....#[..,..
0D70: 01 2C 90 11 01 6D 61 65  30 CD 62 80 2C 90 11 01  .,...mae0.b.,...
0D80: 2C 90 11 01 31 67 72 65  12 80 55 5A 80 F0 FF FF  ,...1gre..UZ....
0D90: 7F F0 FF FF 7F 73 30 36  38 45 5A 80 F0 FF FF 7F  .....s068EZ.....
0DA0: F0 FF FF 7F 73 30 36 39  12 80 CD 62 80 2D 90 11  ....s069...b.-..
0DB0: 01 2D 90 11 01 30 79 65  6C 12 80 2B 2D 90 11 01  .-...0yel..+-...
0DC0: 8F 80 23 CD 62 80 2B 90  11 01 2B 90 11 01 30 72  ..#.b.+...+...0r
0DD0: 65 64 12 80 2B 2B 90 11  01 80 80 23 5B 90 80 20  ed..++.....#[.. 
0DE0: 90 11 01 20 90 11 01 75  65 74 6C 1C 20 80 52 5A  ... ...uetl. .RZ
0DF0: 80 F0 FF FF 7F F0 FF FF  7F 73 30 36 39 45 5A 80  .........s069EZ.
0E00: F0 FF FF 7F F0 FF FF 7F  73 30 37 30 12 80 5D 12  ........s070..].
0E10: 80 20 80 1C 13 80 CD 62  80 2C 90 11 01 2C 90 11  . .....b.,...,..
0E20: 01 6B 69 6C 67 12 80 6B  69 64 6C 30 2B 90 11 01  .kilg..kidl0+...
0E30: 6B 69 64 6C 30 2C 90 11  01 6B 69 64 6C 30 2D 90  kidl0,...kidl0-.
0E40: 11 01 BA 2B 90 11 01 44  80 45 80 46 80 47 80 BA  ...+...D.E.F.G..
0E50: 2C 90 11 01 91 80 92 80  48 80 4E 80 BA 2D 90 11  ,.......H.N..-..
0E60: 01 93 80 94 80 4B 80 95  80 7C 00 22 90 11 01 81  .....K...|."....
0E70: 00 22 90 11 01 5B 96 80  22 90 11 01 22 90 11 01  ."...[.."..."...
0E80: 66 30 30 30 D3 00 22 90  11 01 2B 20 90 11 01 97  f000.."...+ ....
0E90: 80 23 5B 8C 80 2D 90 11  01 2D 90 11 01 70 69 74  .#[..-...-...pit
0EA0: 30 52 5A 80 F0 FF FF 7F  F0 FF FF 7F 73 30 37 30  0RZ.........s070
0EB0: 45 5A 80 F0 FF FF 7F F0  FF FF 7F 73 30 37 31 12  EZ.........s071.
0EC0: 80 1C 69 80 52 5A 80 F0  FF FF 7F F0 FF FF 7F 73  ..i.RZ.........s
0ED0: 30 37 31 45 5A 80 F0 FF  FF 7F F0 FF FF 7F 33 36  071EZ.........36
0EE0: 31 30 12 80 81 00 20 90  11 01 7C 00 20 90 11 01  10.... ...|. ...
0EF0: 5B 90 80 20 90 11 01 20  90 11 01 75 65 74 30 03  [.. ... ...uet0.
0F00: 02 10 98 80 27 10 38 90  11 01 01 2B 20 90 11 01  ....'.8....+ ...
0F10: 99 80 23 2A 10 38 90 11  01 52 5A 80 F0 FF FF 7F  ..#*.8...RZ.....
0F20: F0 FF FF 7F 33 36 31 30  45 5A 80 F0 FF FF 7F F0  ....3610EZ......
0F30: FF FF 7F 73 30 37 32 12  80 CD 62 80 2D 90 11 01  ...s072...b.-...
0F40: 2D 90 11 01 30 67 72 65  12 80 2B 2C 90 11 01 9A  -...0gre..+,....
0F50: 80 23 52 5A 80 F0 FF FF  7F F0 FF FF 7F 73 30 37  .#RZ.........s07
0F60: 32 45 5A 80 F0 FF FF 7F  F0 FF FF 7F 73 30 37 33  2EZ.........s073
0F70: 12 80 CD 62 80 2D 90 11  01 2D 90 11 01 30 79 65  ...b.-...-...0ye
0F80: 6C 12 80 2B 2D 90 11 01  9B 80 23 5B 8C 80 2B 90  l..+-.....#[..+.
0F90: 11 01 2B 90 11 01 6D 61  65 30 CD 62 80 2B 90 11  ..+...mae0.b.+..
0FA0: 01 2B 90 11 01 31 72 65  64 12 80 2B 2B 90 11 01  .+...1red..++...
0FB0: 9C 80 23 52 5A 80 F0 FF  FF 7F F0 FF FF 7F 73 30  ..#RZ.........s0
0FC0: 37 33 45 5A 80 F0 FF FF  7F F0 FF FF 7F 73 30 37  73EZ.........s07
0FD0: 34 12 80 2B 22 90 11 01  9D 80 23 5B 85 80 22 90  4..+".....#[..".
0FE0: 11 01 22 90 11 01 6B 6F  64 31 1C 66 80 2B 22 90  .."...kod1.f.+".
0FF0: 11 01 9E 80 23 53 22 90  11 01 22 90 11 01 6B 6F  ....#S"..."...ko
1000: 64 31 52 5A 80 F0 FF FF  7F F0 FF FF 7F 73 30 37  d1RZ.........s07
1010: 34 45 5A 80 F0 FF FF 7F  F0 FF FF 7F 73 30 37 35  4EZ.........s075
1020: 12 80 CD 62 80 2B 90 11  01 2B 90 11 01 30 72 65  ...b.+...+...0re
1030: 64 12 80 2B 2B 90 11 01  9F 80 23 7C 00 22 90 11  d..++.....#|."..
1040: 01 81 00 22 90 11 01 5B  96 80 22 90 11 01 22 90  ..."...[.."...".
1050: 11 01 66 63 30 31 2B 22  90 11 01 A0 80 1C 20 80  ..fc01+"...... .
1060: 5B 85 80 22 90 11 01 22  90 11 01 6B 6F 64 30 03  [.."..."...kod0.
1070: 02 10 2B 80 27 10 38 90  11 01 01 1C 20 80 52 5A  ..+.'.8..... .RZ
1080: 80 F0 FF FF 7F F0 FF FF  7F 73 30 37 35 45 5A 80  .........s075EZ.
1090: F0 FF FF 7F F0 FF FF 7F  33 36 30 38 12 80 1C 64  ........3608...d
10A0: 80 23 2A 10 38 90 11 01  5B 96 80 22 90 11 01 22  .#*.8...[.."..."
10B0: 90 11 01 66 63 30 30 5B  7F 80 2B 90 11 01 2B 90  ...fc00[..+...+.
10C0: 11 01 6E 69 67 30 5B 7F  80 2C 90 11 01 2C 90 11  ..nig0[..,...,..
10D0: 01 6E 69 67 32 5B 7F 80  2D 90 11 01 2D 90 11 01  .nig2[..-...-...
10E0: 6E 69 67 31 52 5A 80 F0  FF FF 7F F0 FF FF 7F 33  nig1RZ.........3
10F0: 36 30 38 45 5A 80 F0 FF  FF 7F F0 FF FF 7F 73 30  608EZ.........s0
1100: 37 36 12 80 1C 14 80 52  5A 80 F0 FF FF 7F F0 FF  76.....RZ.......
1110: FF 7F 73 30 37 36 45 5A  80 F0 FF FF 7F F0 FF FF  ..s076EZ........
1120: 7F 73 30 37 37 12 80 1C  64 80 81 01 22 90 11 01  .s077...d..."...
1130: 7C 01 22 90 11 01 5B 96  80 22 90 11 01 22 90 11  |."...[.."..."..
1140: 01 66 30 30 30 5B 85 80  22 90 11 01 22 90 11 01  .f000[.."..."...
1150: 6B 6F 64 31 1C 18 80 7B  F0 FF FF 7F 4E 01 2B 90  kod1...{....N.+.
1160: 11 01 4E 01 2C 90 11 01  4E 01 2D 90 11 01 2B 22  ..N.,...N.-...+"
1170: 90 11 01 A1 80 23 53 22  90 11 01 22 90 11 01 6B  .....#S"..."...k
1180: 6F 64 31 52 5A 80 F0 FF  FF 7F F0 FF FF 7F 73 30  od1RZ.........s0
1190: 37 37 45 5A 80 F0 FF FF  7F F0 FF FF 7F 73 30 37  77EZ.........s07
11A0: 38 12 80 1C 20 80 5B 58  80 20 90 11 01 20 90 11  8... .[X. ... ..
11B0: 01 66 68 30 31 2B 20 90  11 01 A2 80 1C 69 80 23  .fh01+ ......i.#
11C0: 5C 00 A3 80 5C 01 A3 80  9A 52 5A 80 F0 FF FF 7F  \...\....RZ.....
11D0: F0 FF FF 7F 73 30 37 38  45 5A 80 F0 FF FF 7F F0  ....s078EZ......
11E0: FF FF 7F 73 30 37 39 12  80 79 00 F0 FF FF 7F 28  ...s079..y.....(
11F0: 90 11 01 81 01 20 90 11  01 7C 01 20 90 11 01 5B  ..... ...|. ...[
1200: 7A 80 20 90 11 01 20 90  11 01 66 30 30 30 D3 00  z. ... ...f000..
1210: 20 90 11 01 6B 69 64 6C  30 20 90 11 01 6B 69 64   ...kidl0 ...kid
1220: 6C 30 22 90 11 01 7B 22  90 11 01 1C 69 80 52 5A  l0"...{"....i.RZ
1230: 80 F0 FF FF 7F F0 FF FF  7F 73 30 37 39 45 5A 80  .........s079EZ.
1240: F0 FF FF 7F F0 FF FF 7F  33 36 30 39 12 80 1C 69  ........3609...i
1250: 80 52 5A 80 F0 FF FF 7F  F0 FF FF 7F 33 36 30 39  .RZ.........3609
1260: 45 5A 80 F0 FF FF 7F F0  FF FF 7F 73 30 38 30 12  EZ.........s080.
1270: 80 79 00 F0 FF FF 7F 20  90 11 01 6E F0 FF FF 7F  .y..... ...n....
1280: A4 80 99 F0 FF FF 7F 1C  20 80 4A 22 90 11 01 28  ........ .J"...(
1290: 90 11 01 1C 64 80 52 5A  80 F0 FF FF 7F F0 FF FF  ....d.RZ........
12A0: 7F 73 30 38 30 45 5A 80  F0 FF FF 7F F0 FF FF 7F  .s080EZ.........
12B0: 33 36 31 31 12 80 5B 76  80 20 90 11 01 20 90 11  3611..[v. ... ..
12C0: 01 74 6C 61 30 2B 20 90  11 01 A5 80 1C 20 80 5F  .tla0+ ...... ._
12D0: 03 68 80 29 90 11 01 29  90 11 01 73 69 74 6C 5F  .h.)...)...sitl_
12E0: 03 5E 80 28 90 11 01 28  90 11 01 67 64 30 6C 1C  .^.(...(...gd0l.
12F0: 64 80 23 52 5A 80 F0 FF  FF 7F F0 FF FF 7F 33 36  d.#RZ.........36
1300: 31 31 45 5A 80 F0 FF FF  7F F0 FF FF 7F 33 36 31  11EZ.........361
1310: 32 12 80 2B 20 90 11 01  A6 80 23 5B 76 80 20 90  2..+ .....#[v. .
1320: 11 01 20 90 11 01 74 6C  61 31 52 5A 80 F0 FF FF  .. ...tla1RZ....
1330: 7F F0 FF FF 7F 33 36 31  32 45 5A 80 F0 FF FF 7F  .....3612EZ.....
1340: F0 FF FF 7F 73 30 38 31  12 80 5B A7 80 22 90 11  ....s081..[.."..
1350: 01 22 90 11 01 6C 67 68  30 2B 22 90 11 01 A8 80  ."...lgh0+".....
1360: 23 27 10 39 90 11 01 23  1C 20 80 52 5A 80 F0 FF  #'.9...#. .RZ...
1370: FF 7F F0 FF FF 7F 73 30  38 31 45 5A 80 F0 FF FF  ......s081EZ....
1380: 7F F0 FF FF 7F 73 30 38  32 12 80 AE 05 29 90 11  .....s082....)..
1390: 01 28 90 11 01 5F 03 A9  80 29 90 11 01 29 90 11  .(..._...)...)..
13A0: 01 73 69 6C 30 5F 03 AA  80 28 90 11 01 28 90 11  .sil0_...(...(..
13B0: 01 67 64 6C 30 81 00 29  90 11 01 03 02 10 69 80  .gdl0..)......i.
13C0: 27 10 38 90 11 01 01 29  10 29 90 11 01 07 2B 29  '.8....).)....+)
13D0: 90 11 01 AB 80 23 5B 19  80 22 90 11 01 22 90 11  .....#[.."..."..
13E0: 01 74 6C 6B 30 2B 22 90  11 01 AC 80 23 5B 19 80  .tlk0+".....#[..
13F0: 22 90 11 01 22 90 11 01  74 6C 6B 31 2A 10 38 90  "..."...tlk1*.8.
1400: 11 01 52 5A 80 F0 FF FF  7F F0 FF FF 7F 73 30 38  ..RZ.........s08
1410: 32 45 5A 80 F0 FF FF 7F  F0 FF FF 7F 33 36 31 34  2EZ.........3614
1420: 12 80 27 10 39 90 11 01  24 1C 5B 80 5F 03 A9 80  ..'.9...$.[._...
1430: 29 90 11 01 29 90 11 01  73 69 6C 31 5F 03 AA 80  )...)...sil1_...
1440: 28 90 11 01 28 90 11 01  67 64 6C 31 2B 29 90 11  (...(...gdl1+)..
1450: 01 AD 80 23 52 5A 80 F0  FF FF 7F F0 FF FF 7F 33  ...#RZ.........3
1460: 36 31 34 45 5A 80 F0 FF  FF 7F F0 FF FF 7F 73 30  614EZ.........s0
1470: 38 34 12 80 5B AE 80 22  90 11 01 22 90 11 01 6B  84..[.."..."...k
1480: 61 74 30 2B 22 90 11 01  AF 80 23 81 01 29 90 11  at0+".....#..)..
1490: 01 4E 00 2A 90 11 01 80  2A 90 11 01 27 05 2A 90  .N.*....*...'.*.
14A0: 11 01 02 1C 13 80 52 5A  80 F0 FF FF 7F F0 FF FF  ......RZ........
14B0: 7F 73 30 38 34 45 5A 80  F0 FF FF 7F F0 FF FF 7F  .s084EZ.........
14C0: 73 30 38 35 12 80 4E 01  2B 90 11 01 4E 01 2C 90  s085..N.+...N.,.
14D0: 11 01 4E 01 2D 90 11 01  1C B0 80 52 5A 80 F0 FF  ..N.-......RZ...
14E0: FF 7F F0 FF FF 7F 73 30  38 35 45 5A 80 F0 FF FF  ......s085EZ....
14F0: 7F F0 FF FF 7F 73 30 38  36 12 80 2A 05 2A 90 11  .....s086..*.*..
1500: 01 4A 20 90 11 01 2A 90  11 01 4A F0 FF FF 7F 2A  .J ...*...J....*
1510: 90 11 01 4A 28 90 11 01  2A 90 11 01 4A 29 90 11  ...J(...*...J)..
1520: 01 2A 90 11 01 7B 28 90  11 01 7B 29 90 11 01 29  .*...{(...{)...)
1530: 10 2A 90 11 01 09 2B 2A  90 11 01 B1 80 23 1C 20  .*....+*.....#. 
1540: 80 52 5A 80 F0 FF FF 7F  F0 FF FF 7F 73 30 38 36  .RZ.........s086
1550: 45 5A 80 F0 FF FF 7F F0  FF FF 7F 73 30 38 37 12  EZ.........s087.
1560: 80 7B 2A 90 11 01 5F 03  B2 80 2A 90 11 01 2A 90  .{*..._...*...*.
1570: 11 01 75 65 6F 30 4A 22  90 11 01 2A 90 11 01 2B  ..ueo0J"...*...+
1580: 22 90 11 01 B3 80 23 29  05 2A 90 11 01 03 52 5A  ".....#).*....RZ
1590: 80 F0 FF FF 7F F0 FF FF  7F 73 30 38 37 45 5A 80  .........s087EZ.
15A0: F0 FF FF 7F F0 FF FF 7F  73 30 38 38 12 80 1C B4  ........s088....
15B0: 80 52 5A 80 F0 FF FF 7F  F0 FF FF 7F 73 30 38 38  .RZ.........s088
15C0: 45 5A 80 F0 FF FF 7F F0  FF FF 7F 73 30 38 39 12  EZ.........s089.
15D0: 80 1C 13 80 2B 20 90 11  01 B5 80 23 52 5A 80 F0  ....+ .....#RZ..
15E0: FF FF 7F F0 FF FF 7F 73  30 38 39 45 5A 80 F0 FF  .......s089EZ...
15F0: FF 7F F0 FF FF 7F 73 30  39 30 12 80 4A 2A 90 11  ......s090..J*..
1600: 01 20 90 11 01 7B 2A 90  11 01 1C 20 80 5B B6 80  . ...{*.... .[..
1610: 2A 90 11 01 2A 90 11 01  61 67 65 30 2B 2A 90 11  *...*...age0+*..
1620: 01 B7 80 23 52 5A 80 F0  FF FF 7F F0 FF FF 7F 73  ...#RZ.........s
1630: 30 39 30 45 5A 80 F0 FF  FF 7F F0 FF FF 7F 73 30  090EZ.........s0
1640: 39 31 12 80 27 05 2A 90  11 01 04 2B 2A 90 11 01  91..'.*....+*...
1650: B8 80 23 2B 2A 90 11 01  B9 80 23 2A 05 2A 90 11  ..#+*.....#*.*..
1660: 01 52 5A 80 F0 FF FF 7F  F0 FF FF 7F 73 30 39 31  .RZ.........s091
1670: 45 5A 80 F0 FF FF 7F F0  FF FF 7F 73 30 39 32 12  EZ.........s092.
1680: 80 5B BA 80 20 90 11 01  20 90 11 01 74 6C 6B 30  .[.. ... ...tlk0
1690: 2B 20 90 11 01 BB 80 23  5B BA 80 20 90 11 01 20  + .....#[.. ... 
16A0: 90 11 01 74 6C 6B 31 52  5A 80 F0 FF FF 7F F0 FF  ...tlk1RZ.......
16B0: FF 7F 73 30 39 32 45 5A  80 F0 FF FF 7F F0 FF FF  ..s092EZ........
16C0: 7F 73 30 39 33 12 80 81  00 2A 90 11 01 5B BC 80  .s093....*...[..
16D0: 2A 90 11 01 2A 90 11 01  74 68 6B 30 7B 20 90 11  *...*...thk0{ ..
16E0: 01 2B 2A 90 11 01 BD 80  23 81 01 2A 90 11 01 5B  .+*.....#..*...[
16F0: BC 80 2A 90 11 01 2A 90  11 01 74 68 6B 31 2B 2A  ..*...*...thk1+*
1700: 90 11 01 BE 80 23 5B BF  80 2A 90 11 01 2A 90 11  .....#[..*...*..
1710: 01 74 6C 6B 30 52 5A 80  F0 FF FF 7F F0 FF FF 7F  .tlk0RZ.........
1720: 73 30 39 33 45 5A 80 F0  FF FF 7F F0 FF FF 7F 73  s093EZ.........s
1730: 30 39 34 12 80 5B C0 80  20 90 11 01 20 90 11 01  094..[.. ... ...
1740: 74 68 6B 30 2B 2A 90 11  01 C1 80 23 2B 2A 90 11  thk0+*.....#+*..
1750: 01 C2 80 23 81 00 2A 90  11 01 7C 00 2A 90 11 01  ...#..*...|.*...
1760: 5B BF 80 2A 90 11 01 2A  90 11 01 66 68 30 31 52  [..*...*...fh01R
1770: 5A 80 F0 FF FF 7F F0 FF  FF 7F 73 30 39 34 45 5A  Z.........s094EZ
1780: 80 F0 FF FF 7F F0 FF FF  7F 33 36 31 33 12 80 5B  .........3613..[
1790: BF 80 2A 90 11 01 2A 90  11 01 74 6C 6B 31 1C 66  ..*...*...tlk1.f
17A0: 80 6B 69 64 6C 30 20 90  11 01 2B 2A 90 11 01 C3  .kidl0 ...+*....
17B0: 80 23 53 2A 90 11 01 2A  90 11 01 74 6C 6B 31 5B  .#S*...*...tlk1[
17C0: BF 80 2A 90 11 01 2A 90  11 01 66 68 30 30 81 00  ..*...*...fh00..
17D0: 20 90 11 01 7C 00 20 90  11 01 5B C4 80 20 90 11   ...|. ...[.. ..
17E0: 01 20 90 11 01 74 6B 74  30 52 5A 80 F0 FF FF 7F  . ...tkt0RZ.....
17F0: F0 FF FF 7F 33 36 31 33  45 5A 80 F0 FF FF 7F F0  ....3613EZ......
1800: FF FF 7F 73 30 39 35 12  80 1C 13 80 4A 22 90 11  ...s095.....J"..
1810: 01 2A 90 11 01 4A 2A 90  11 01 22 90 11 01 7B 2A  .*...J*..."...{*
1820: 90 11 01 2B 20 90 11 01  C5 80 23 1C 20 80 52 5A  ...+ .....#. .RZ
1830: 80 F0 FF FF 7F F0 FF FF  7F 73 30 39 35 45 5A 80  .........s095EZ.
1840: F0 FF FF 7F F0 FF FF 7F  73 30 39 36 12 80 5B C6  ........s096..[.
1850: 80 22 90 11 01 22 90 11  01 77 73 74 30 2B 22 90  ."..."...wst0+".
1860: 11 01 C7 80 1C 69 80 23  5B C6 80 22 90 11 01 22  .....i.#[.."..."
1870: 90 11 01 77 73 74 31 5B  C4 80 20 90 11 01 20 90  ...wst1[.. ... .
1880: 11 01 74 6B 74 31 81 01  20 90 11 01 7C 01 20 90  ..tkt1.. ...|. .
1890: 11 01 79 00 20 90 11 01  22 90 11 01 2B 20 90 11  ..y. ..."...+ ..
18A0: 01 C8 80 23 52 5A 80 F0  FF FF 7F F0 FF FF 7F 73  ...#RZ.........s
18B0: 30 39 36 45 5A 80 F0 FF  FF 7F F0 FF FF 7F 73 30  096EZ.........s0
18C0: 39 37 12 80 79 00 20 90  11 01 2A 90 11 01 5B BF  97..y. ...*...[.
18D0: 80 2A 90 11 01 2A 90 11  01 66 68 30 31 5B C9 80  .*...*...fh01[..
18E0: 2A 90 11 01 2A 90 11 01  6F 6A 69 30 03 02 10 CA  *...*...oji0....
18F0: 80 27 10 38 90 11 01 01  2B 2A 90 11 01 CB 80 23  .'.8....+*.....#
1900: 52 5A 80 F0 FF FF 7F F0  FF FF 7F 73 30 39 37 45  RZ.........s097E
1910: 5A 80 F0 FF FF 7F F0 FF  FF 7F 73 30 39 38 12 80  Z.........s098..
1920: 1C 20 80 5B 19 80 22 90  11 01 22 90 11 01 74 6C  . .[.."..."...tl
1930: 6B 30 2B 22 90 11 01 CC  80 1C 69 80 23 2B 22 90  k0+"......i.#+".
1940: 11 01 CD 80 23 5B 19 80  22 90 11 01 22 90 11 01  ....#[.."..."...
1950: 74 6C 6B 31 2A 10 38 90  11 01 52 5A 80 F0 FF FF  tlk1*.8...RZ....
1960: 7F F0 FF FF 7F 73 30 39  38 45 5A 80 F0 FF FF 7F  .....s098EZ.....
1970: F0 FF FF 7F 73 30 39 39  12 80 5B BF 80 2A 90 11  ....s099..[..*..
1980: 01 2A 90 11 01 74 6C 6B  30 2B 2A 90 11 01 CE 80  .*...tlk0+*.....
1990: 23 5B BF 80 2A 90 11 01  2A 90 11 01 74 6C 6B 31  #[..*...*...tlk1
19A0: 52 5A 80 F0 FF FF 7F F0  FF FF 7F 73 30 39 39 45  RZ.........s099E
19B0: 5A 80 F0 FF FF 7F F0 FF  FF 7F 73 31 30 30 12 80  Z.........s100..
19C0: 81 00 22 90 11 01 7C 00  22 90 11 01 5B A7 80 22  .."...|."...[.."
19D0: 90 11 01 22 90 11 01 6C  67 68 30 2B 22 90 11 01  ..."...lgh0+"...
19E0: CF 80 23 53 22 90 11 01  22 90 11 01 6C 67 68 30  ..#S"..."...lgh0
19F0: 81 01 22 90 11 01 7C 01  22 90 11 01 52 5A 80 F0  .."...|."...RZ..
1A00: FF FF 7F F0 FF FF 7F 73  31 30 30 45 5A 80 F0 FF  .......s100EZ...
1A10: FF 7F F0 FF FF 7F 73 31  30 31 12 80 5B BF 80 2A  ......s101..[..*
1A20: 90 11 01 2A 90 11 01 74  6C 6B 30 2B 2A 90 11 01  ...*...tlk0+*...
1A30: D0 80 23 5B BF 80 2A 90  11 01 2A 90 11 01 74 6C  ..#[..*...*...tl
1A40: 6B 31 5B BF 80 2A 90 11  01 2A 90 11 01 66 68 30  k1[..*...*...fh0
1A50: 30 5B C6 80 22 90 11 01  22 90 11 01 75 64 65 30  0[.."..."...ude0
1A60: 2B 22 90 11 01 D1 80 23  52 5A 80 F0 FF FF 7F F0  +".....#RZ......
1A70: FF FF 7F 73 31 30 31 45  5A 80 F0 FF FF 7F F0 FF  ...s101EZ.......
1A80: FF 7F 73 31 30 32 12 80  81 00 2A 90 11 01 5B BF  ..s102....*...[.
1A90: 80 2A 90 11 01 2A 90 11  01 66 68 30 31 5B D2 80  .*...*...fh01[..
1AA0: 2A 90 11 01 2A 90 11 01  61 74 61 30 2B 2A 90 11  *...*...ata0+*..
1AB0: 01 D3 80 1C 14 80 52 5A  80 F0 FF FF 7F F0 FF FF  ......RZ........
1AC0: 7F 73 31 30 32 45 5A 80  F0 FF FF 7F F0 FF FF 7F  .s102EZ.........
1AD0: 73 31 39 31 12 80 5B BF  80 2A 90 11 01 2A 90 11  s191..[..*...*..
1AE0: 01 66 68 30 30 1C 69 80  23 27 10 39 90 11 01 04  .fh00.i.#'.9....
1AF0: 29 05 25 90 11 01 0A 4E  00 26 90 11 01 4E 00 27  ).%....N.&...N.'
1B00: 90 11 01 BA 25 90 11 01  D4 80 D5 80 D6 80 D7 80  ....%...........
1B10: 80 25 90 11 01 80 26 90  11 01 80 27 90 11 01 27  .%....&....'...'
1B20: 05 25 90 11 01 0B 1C 13  80 27 05 26 90 11 01 0B  .%.......'.&....
1B30: 1C D8 80 27 05 27 90 11  01 0B 1C 6E 80 52 5A 80  ...'.'.....n.RZ.
1B40: F0 FF FF 7F F0 FF FF 7F  73 31 39 31 45 5A 80 F0  ........s191EZ..
1B50: FF FF 7F F0 FF FF 7F 73  31 30 33 12 80 1C 5B 80  .......s103...[.
1B60: 4A 22 90 11 01 25 90 11  01 4A F0 FF FF 7F 25 90  J"...%...J....%.
1B70: 11 01 4A 20 90 11 01 25  90 11 01 4A 28 90 11 01  ..J ...%...J(...
1B80: 25 90 11 01 4A 29 90 11  01 25 90 11 01 7B 28 90  %...J)...%...{(.
1B90: 11 01 7B 29 90 11 01 6B  69 64 6C 30 2A 90 11 01  ..{)...kidl0*...
1BA0: 1C B0 80 5F 03 68 80 29  90 11 01 29 90 11 01 73  ..._.h.)...)...s
1BB0: 69 74 6C 5F 03 5E 80 28  90 11 01 28 90 11 01 67  itl_.^.(...(...g
1BC0: 64 30 6C 5B 96 80 22 90  11 01 22 90 11 01 66 63  d0l[.."..."...fc
1BD0: 30 31 5B C6 80 22 90 11  01 22 90 11 01 75 64 65  01[.."..."...ude
1BE0: 31 1C 20 80 52 5A 80 F0  FF FF 7F F0 FF FF 7F 73  1. .RZ.........s
1BF0: 31 30 33 45 5A 80 F0 FF  FF 7F F0 FF FF 7F 73 31  103EZ.........s1
1C00: 30 34 12 80 2B 22 90 11  01 D9 80 1C DA 80 23 5B  04..+"........#[
1C10: 96 80 22 90 11 01 22 90  11 01 66 63 30 30 5B BF  .."..."...fc00[.
1C20: 80 2A 90 11 01 2A 90 11  01 66 68 30 31 5B BF 80  .*...*...fh01[..
1C30: 2A 90 11 01 2A 90 11 01  74 6C 6B 30 2B 2A 90 11  *...*...tlk0+*..
1C40: 01 DB 80 1C 69 80 23 5B  BF 80 2A 90 11 01 2A 90  ....i.#[..*...*.
1C50: 11 01 66 68 30 30 5B BF  80 2A 90 11 01 2A 90 11  ..fh00[..*...*..
1C60: 01 74 6C 6B 31 52 5A 80  F0 FF FF 7F F0 FF FF 7F  .tlk1RZ.........
1C70: 73 31 30 34 45 5A 80 F0  FF FF 7F F0 FF FF 7F 73  s104EZ.........s
1C80: 31 30 35 12 80 4A 22 90  11 01 2A 90 11 01 1C 20  105..J"...*.... 
1C90: 80 81 00 22 90 11 01 7C  00 22 90 11 01 5B 96 80  ..."...|."...[..
1CA0: 22 90 11 01 22 90 11 01  66 63 30 31 5B 19 80 22  "..."...fc01[.."
1CB0: 90 11 01 22 90 11 01 74  6C 6B 30 2B 22 90 11 01  ..."...tlk0+"...
1CC0: DC 80 1C 69 80 23 5B 96  80 22 90 11 01 22 90 11  ...i.#[.."..."..
1CD0: 01 66 63 30 30 5B 19 80  22 90 11 01 22 90 11 01  .fc00[.."..."...
1CE0: 74 6C 6B 31 59 05 20 90  11 01 00 27 05 20 90 11  tlk1Y. ....'. ..
1CF0: 01 02 1C 13 80 27 05 F0  FF FF 7F 16 1C 13 80 52  .....'.........R
1D00: 5A 80 F0 FF FF 7F F0 FF  FF 7F 73 31 30 35 45 5A  Z.........s105EZ
1D10: 80 F0 FF FF 7F F0 FF FF  7F 73 31 30 36 12 80 5D  .........s106..]
1D20: 12 80 DD 80 1C 20 80 5F  03 68 80 29 90 11 01 29  ..... ._.h.)...)
1D30: 90 11 01 73 69 74 31 5F  03 5E 80 28 90 11 01 28  ...sit1_.^.(...(
1D40: 90 11 01 67 64 6F 31 1C  13 80 27 05 2A 90 11 01  ...gdo1...'.*...
1D50: 05 1C 18 80 27 05 22 90  11 01 04 1C 64 80 1A AE  ....'.".....d...
1D60: 4E 1C 20 80 52 5A 80 F0  FF FF 7F F0 FF FF 7F 73  N. .RZ.........s
1D70: 31 30 36 45 5A 80 F0 FF  FF 7F F0 FF FF 7F 30 62  106EZ.........0b
1D80: 6C 66 12 80 7A 00 F0 FF  FF 7F 7A 00 20 90 11 01  lf..z.....z. ...
1D90: 7A 00 22 90 11 01 7A 00  2A 90 11 01 AE 06 28 90  z."...z.*.....(.
1DA0: 11 01 6B 69 64 6C 30 28  90 11 01 6B 69 64 6C 30  ..kidl0(...kidl0
1DB0: 29 90 11 01 81 01 22 90  11 01 81 01 29 90 11 01  ).....".....)...
1DC0: 81 01 2A 90 11 01 7C 01  22 90 11 01 7C 01 2A 90  ..*...|."...|.*.
1DD0: 11 01 5B 96 80 22 90 11  01 22 90 11 01 66 30 30  ..[.."..."...f00
1DE0: 30 5B BF 80 2A 90 11 01  2A 90 11 01 66 30 30 30  0[..*...*...f000
1DF0: D3 00 22 90 11 01 D3 00  2A 90 11 01 4E 00 2B 90  ..".....*...N.+.
1E00: 11 01 4E 00 2C 90 11 01  4E 00 2B 90 11 01 4E 00  ..N.,...N.+...N.
1E10: 2C 90 11 01 27 05 2B 90  11 01 02 27 05 2C 90 11  ,...'.+....'.,..
1E20: 01 02 59 05 29 90 11 01  01 81 00 29 90 11 01 BA  ..Y.)......)....
1E30: 2B 90 11 01 DE 80 DF 80  E0 80 E1 80 BA 29 90 11  +............)..
1E40: 01 E2 80 E3 80 E4 80 E5  80 BA 20 90 11 01 E6 80  .......... .....
1E50: E7 80 E8 80 E9 80 BA F0  FF FF 7F EA 80 EB 80 EC  ................
1E60: 80 ED 80 BA 2A 90 11 01  EE 80 EF 80 F0 80 F1 80  ....*...........
1E70: BA 22 90 11 01 F2 80 F3  80 F4 80 E9 80 BA 28 90  ."............(.
1E80: 11 01 F5 80 F6 80 F7 80  E9 80 BA 2C 90 11 01 F8  ...........,....
1E90: 80 F9 80 8D 80 E9 80 80  29 90 11 01 80 28 90 11  ........)....(..
1EA0: 01 80 2A 90 11 01 80 2B  90 11 01 80 2C 90 11 01  ..*....+....,...
1EB0: 80 22 90 11 01 80 20 90  11 01 80 F0 FF FF 7F 27  .".... ........'
1EC0: 05 28 90 11 01 02 4A 20  90 11 01 25 90 11 01 4A  .(....J ...%...J
1ED0: F0 FF FF 7F 25 90 11 01  4A 22 90 11 01 25 90 11  ....%...J"...%..
1EE0: 01 4A 2A 90 11 01 25 90  11 01 4A 28 90 11 01 25  .J*...%...J(...%
1EF0: 90 11 01 1C 20 80 CD FA  80 25 90 11 01 2C 90 11  .... ....%...,..
1F00: 01 6E 30 30 30 12 80 45  5A 80 2C 90 11 01 2C 90  .n000..EZ.,...,.
1F10: 11 01 31 30 37 73 12 80  5B 5D 80 29 90 11 01 29  ..107s..[].)...)
1F20: 90 11 01 73 69 70 30 5B  FB 80 2B 90 11 01 2B 90  ...sip0[..+...+.
1F30: 11 01 62 74 6C 30 5B FC  80 2C 90 11 01 2C 90 11  ..btl0[..,...,..
1F40: 01 66 79 75 30 48 FD 80  23 45 5A 80 F0 FF FF 7F  .fyu0H..#EZ.....
1F50: F0 FF FF 7F 73 31 30 37  12 80 1C 13 80 1A 8D 4E  ....s107.......N
1F60: 1C 2B 80 52 5A 80 F0 FF  FF 7F F0 FF FF 7F 73 31  .+.RZ.........s1
1F70: 30 37 45 5A 80 F0 FF FF  7F F0 FF FF 7F 73 31 30  07EZ.........s10
1F80: 38 12 80 1C 2B 80 52 5A  80 F0 FF FF 7F F0 FF FF  8...+.RZ........
1F90: 7F 73 31 30 38 45 5A 80  F0 FF FF 7F F0 FF FF 7F  .s108EZ.........
1FA0: 73 31 30 39 12 80 5B 2A  80 25 90 11 01 25 90 11  s109..[*.%...%..
1FB0: 01 74 6C 6B 30 CD 2B 80  25 90 11 01 25 90 11 01  .tlk0.+.%...%...
1FC0: 70 6F 77 31 12 80 29 10  25 90 11 01 0F 2B 25 90  pow1..).%....+%.
1FD0: 11 01 FE 80 1C 13 80 27  10 2B 90 11 01 05 1C 66  .......'.+.....f
1FE0: 80 23 52 5A 80 F0 FF FF  7F F0 FF FF 7F 73 31 30  .#RZ.........s10
1FF0: 39 45 5A 80 F0 FF FF 7F  F0 FF FF 7F 33 36 32 30  9EZ.........3620
2000: 12 80 CD 2B 80 25 90 11  01 25 90 11 01 70 6F 77  ...+.%...%...pow
2010: 31 12 80 2B 25 90 11 01  FF 80 1C 18 80 23 5B 2A  1..+%........#[*
2020: 80 25 90 11 01 25 90 11  01 74 6C 6B 31 52 5A 80  .%...%...tlk1RZ.
2030: F0 FF FF 7F F0 FF FF 7F  33 36 32 30 45 5A 80 F0  ........3620EZ..
2040: FF FF 7F F0 FF FF 7F 73  31 31 30 12 80 7B 20 90  .......s110..{ .
2050: 11 01 81 00 20 90 11 01  5B 76 80 20 90 11 01 20  .... ...[v. ... 
2060: 90 11 01 62 69 6B 6F 2B  20 90 11 01 00 81 23 52  ...biko+ .....#R
2070: 5A 80 F0 FF FF 7F F0 FF  FF 7F 73 31 31 30 45 5A  Z.........s110EZ
2080: 80 F0 FF FF 7F F0 FF FF  7F 73 31 31 31 12 80 5B  .........s111..[
2090: 2A 80 25 90 11 01 25 90  11 01 74 6C 6B 30 CD 2B  *.%...%...tlk0.+
20A0: 80 25 90 11 01 25 90 11  01 70 6F 77 31 12 80 2B  .%...%...pow1..+
20B0: 25 90 11 01 01 81 23 6B  69 64 6C 30 20 90 11 01  %.....#kidl0 ...
20C0: 5B 58 80 20 90 11 01 20  90 11 01 66 6B 30 30 CD  [X. ... ...fk00.
20D0: 2B 80 25 90 11 01 25 90  11 01 70 6F 77 31 12 80  +.%...%...pow1..
20E0: 2B 25 90 11 01 02 81 23  5B 2A 80 25 90 11 01 25  +%.....#[*.%...%
20F0: 90 11 01 74 6C 6B 31 52  5A 80 F0 FF FF 7F F0 FF  ...tlk1RZ.......
2100: FF 7F 73 31 31 31 45 5A  80 F0 FF FF 7F F0 FF FF  ..s111EZ........
2110: 7F 73 31 31 32 12 80 7C  00 20 90 11 01 2B 20 90  .s112..|. ...+ .
2120: 11 01 03 81 23 81 00 25  90 11 01 52 5A 80 F0 FF  ....#..%...RZ...
2130: FF 7F F0 FF FF 7F 73 31  31 32 45 5A 80 F0 FF FF  ......s112EZ....
2140: 7F F0 FF FF 7F 73 30 33  32 12 80 5B 04 81 25 90  .....s032..[..%.
2150: 11 01 25 90 11 01 77 61  6B 30 CD FA 80 25 90 11  ..%...wak0...%..
2160: 01 2C 90 11 01 71 30 30  30 12 80 45 5A 80 2C 90  .,...q000..EZ.,.
2170: 11 01 2C 90 11 01 31 30  37 6B 12 80 1C 05 81 1A  ..,...107k......
2180: AE 4E 1C 20 80 81 01 20  90 11 01 7C 01 20 90 11  .N. ... ...|. ..
2190: 01 5B 58 80 20 90 11 01  20 90 11 01 66 30 30 30  .[X. ... ...f000
21A0: D3 00 20 90 11 01 52 5A  80 F0 FF FF 7F F0 FF FF  .. ...RZ........
21B0: 7F 73 30 33 32 6B 69 64  6C 30 25 90 11 01 6B 69  .s032kidl0%...ki
21C0: 64 6C 30 2B 90 11 01 6B  69 64 6C 30 2D 90 11 01  dl0+...kidl0-...
21D0: 6C 2C 90 11 01 06 81 21  80 27 05 2B 90 11 01 03  l,.....!.'.+....
21E0: 27 05 2C 90 11 01 03 22  00 4E 00 2D 90 11 01 33  '.,....".N.-...3
21F0: 01 59 05 20 90 11 01 01  59 05 25 90 11 01 01 59  .Y. ....Y.%....Y
2200: 05 2A 90 11 01 01 59 05  34 90 11 01 01 37 07 81  .*....Y.4....7..
2210: 08 81 09 81 0A 81 BA 20  90 11 01 0B 81 0C 81 0D  ....... ........
2220: 81 0E 81 BA 34 90 11 01  0F 81 10 81 11 81 12 81  ....4...........
2230: BA 25 90 11 01 13 81 14  81 11 81 15 81 BA 26 90  .%............&.
2240: 11 01 16 81 17 81 18 81  19 81 BA 27 90 11 01 1A  ...........'....
2250: 81 1B 81 1C 81 1D 81 BA  28 90 11 01 1E 81 1F 81  ........(.......
2260: 20 81 0E 81 BA 29 90 11  01 21 81 22 81 23 81 24   ....)...!.".#.$
2270: 81 BA 22 90 11 01 25 81  26 81 27 81 28 81 BA 2A  .."...%.&.'.(..*
2280: 90 11 01 29 81 2A 81 2B  81 28 81 BA F0 FF FF 7F  ...).*.+.(......
2290: 2C 81 2D 81 2E 81 2F 81  BA 2B 90 11 01 30 81 31  ,.-.../..+...0.1
22A0: 81 32 81 33 81 BA 2C 90  11 01 34 81 35 81 36 81  .2.3..,...4.5.6.
22B0: 33 81 BA 2D 90 11 01 37  81 38 81 39 81 33 81 59  3..-...7.8.9.3.Y
22C0: 05 39 90 11 01 01 BA 39  90 11 01 3A 81 3B 81 3C  .9.....9...:.;.<
22D0: 81 12 80 80 20 90 11 01  80 25 90 11 01 80 26 90  .... ....%....&.
22E0: 11 01 80 27 90 11 01 80  28 90 11 01 80 22 90 11  ...'....(...."..
22F0: 01 80 2A 90 11 01 80 2B  90 11 01 80 2C 90 11 01  ..*....+....,...
2300: 80 2D 90 11 01 80 F0 FF  FF 7F 4A 20 90 11 01 25  .-........J ...%
2310: 90 11 01 4A F0 FF FF 7F  25 90 11 01 4A 28 90 11  ...J....%...J(..
2320: 01 25 90 11 01 4A 22 90  11 01 25 90 11 01 4A 2A  .%...J"...%...J*
2330: 90 11 01 25 90 11 01 7B  20 90 11 01 7B 22 90 11  ...%...{ ...{"..
2340: 01 7B 2A 90 11 01 1C 20  80 81 00 29 90 11 01 81  .{*.... ...)....
2350: 00 2A 90 11 01 5B 3D 81  25 90 11 01 25 90 11 01  .*...[=.%...%...
2360: 74 6F 62 6C 5B 3E 81 29  90 11 01 29 90 11 01 79  tobl[>.)...)...y
2370: 72 69 30 2D F8 FF FF 7F  F8 FF FF 7F 63 31 6F 6E  ri0-........c1on
2380: 5C 00 3F 81 5C 01 3F 81  9A 48 FD 80 23 45 5A 80  \.?.\.?..H..#EZ.
2390: F0 FF FF 7F F0 FF FF 7F  73 30 32 36 12 80 1C 13  ........s026....
23A0: 80 1A 8D 4E 1C B4 80 52  5A 80 F0 FF FF 7F F0 FF  ...N...RZ.......
23B0: FF 7F 73 30 32 36 45 5A  80 F0 FF FF 7F F0 FF FF  ..s026EZ........
23C0: 7F 33 36 33 30 12 80 1C  40 81 52 5A 80 F0 FF FF  .3630...@.RZ....
23D0: 7F F0 FF FF 7F 33 36 33  30 45 5A 80 F0 FF FF 7F  .....3630EZ.....
23E0: F0 FF FF 7F 73 30 32 37  12 80 5F 03 C6 80 22 90  ....s027.._...".
23F0: 11 01 22 90 11 01 75 64  65 30 1C 20 80 2B 22 90  .."...ude0. .+".
2400: 11 01 41 81 23 BA 2C 90  11 01 42 81 43 81 44 81  ..A.#.,...B.C.D.
2410: 33 81 2B 20 90 11 01 45  81 23 81 00 25 90 11 01  3.+ ...E.#..%...
2420: 52 5A 80 F0 FF FF 7F F0  FF FF 7F 73 30 32 37 45  RZ.........s027E
2430: 5A 80 F0 FF FF 7F F0 FF  FF 7F 73 30 32 38 12 80  Z.........s028..
2440: 5F 03 3D 81 25 90 11 01  25 90 11 01 74 6F 62 30  _.=.%...%...tob0
2450: CD 46 81 25 90 11 01 25  90 11 01 71 30 30 31 12  .F.%...%...q001.
2460: 80 45 5A 80 25 90 11 01  25 90 11 01 62 73 35 37  .EZ.%...%...bs57
2470: 12 80 1C 64 80 52 5A 80  F0 FF FF 7F F0 FF FF 7F  ...d.RZ.........
2480: 73 30 32 38 45 5A 80 F0  FF FF 7F F0 FF FF 7F 73  s028EZ.........s
2490: 30 32 39 12 80 1C 47 81  52 5A 80 F0 FF FF 7F F0  029...G.RZ......
24A0: FF FF 7F 73 30 32 39 45  5A 80 F0 FF FF 7F F0 FF  ...s029EZ.......
24B0: FF 7F 73 30 33 30 12 80  5F 03 48 81 27 90 11 01  ..s030.._.H.'...
24C0: 27 90 11 01 6C 65 66 30  CD 49 81 27 90 11 01 27  '...lef0.I.'...'
24D0: 90 11 01 6C 30 30 30 12  80 45 5A 80 27 90 11 01  ...l000..EZ.'...
24E0: 27 90 11 01 62 73 37 39  12 80 5F 03 4A 81 26 90  '...bs79.._.J.&.
24F0: 11 01 26 90 11 01 72 69  67 30 CD 49 81 26 90 11  ..&...rig0.I.&..
2500: 01 26 90 11 01 6C 30 30  30 12 80 45 5A 80 26 90  .&...l000..EZ.&.
2510: 11 01 26 90 11 01 62 73  37 39 12 80 1C 62 80 52  ..&...bs79...b.R
2520: 5A 80 F0 FF FF 7F F0 FF  FF 7F 73 30 33 30 5F 03  Z.........s030_.
2530: 4B 81 34 90 11 01 34 90  11 01 74 6F 62 30 5F 03  K.4...4...tob0_.
2540: 4A 81 26 90 11 01 26 90  11 01 72 69 67 31 5F 03  J.&...&...rig1_.
2550: 48 81 27 90 11 01 27 90  11 01 6C 65 66 31 1C 7B  H.'...'...lef1.{
2560: 80 5F 03 4C 81 34 90 11  01 34 90 11 01 63 6D 6F  ._.L.4...4...cmo
2570: 66 5F 02 34 90 11 01 45  5A 80 F0 FF FF 7F F0 FF  f_.4...EZ.......
2580: FF 7F 73 30 33 33 12 80  45 5A 80 25 90 11 01 25  ..s033..EZ.%...%
2590: 90 11 01 62 6B 35 37 12  80 45 5A 80 26 90 11 01  ...bk57..EZ.&...
25A0: 26 90 11 01 62 6B 37 39  12 80 45 5A 80 27 90 11  &...bk79..EZ.'..
25B0: 01 27 90 11 01 62 6B 37  39 12 80 1C 5B 80 59 05  .'...bk79...[.Y.
25C0: 22 90 11 01 01 BA 22 90  11 01 2C 81 2D 81 2E 81  "....."...,.-...
