# 17928238

## Common Data

| Field            | Value               |
|------------------|---------------------|
| Zone             | Leafallia (ID: 281) |
| Block Size       | 292 bytes           |
| Total Events     | 9                   |
| References Count | 18                  |

## List of Events

| Event ID                 | Entrypoint   |   Size |   Instructions |
|--------------------------|--------------|--------|----------------|
| [65535](#event-65535)    | 0x0000       |      1 |              1 |
| [10](#event-10)          | 0x0001       |     21 |              2 |
| [65535.1](#event-655351) | 0x0016       |     45 |              4 |
| [65535.2](#event-655352) | 0x0043       |      3 |              2 |
| [65535.3](#event-655353) | 0x0046       |      3 |              2 |
| [65](#event-65)          | 0x0049       |     51 |              5 |
| [65535.4](#event-655354) | 0x007C       |     14 |              4 |
| [80](#event-80)          | 0x008A       |      7 |              2 |
| [65535.5](#event-655355) | 0x0091       |     21 |              2 |

## DAT References (imed_data)

|   Index | Hex Value   |   Dec Value |
|---------|-------------|-------------|
|       0 | 0x0007      |           7 |
|       1 | 0x000C      |          12 |
|       2 | 0x0105      |         261 |
|       3 | 0x00BA      |         186 |
|       4 | 0x0000      |           0 |
|       5 | 0x000F      |          15 |
|       6 | 0x00AF      |         175 |
|       7 | 0x0001      |           1 |
|       8 | 0x0002      |           2 |
|       9 | 0x00B6      |         182 |
|      10 | 0x004E      |          78 |
|      11 | 0x006D      |         109 |
|      12 | 0x0046      |          70 |
|      13 | 0x0059      |          89 |
|      14 | 0x000D      |          13 |
|      15 | 0xFFFFB4BA  |  4294948026 |
|      16 | 0x126E2     |       75490 |
|      17 | 0xFFFFDD64  |  4294958436 |

## Events

### Event 65535

#### Metadata

| Field        | Value   |
|--------------|---------|
| Entrypoint   | 0x0000  |
| Data Size    | 1 bytes |
| Instructions | 1       |

```
      00 01 02 03 04 05 06 07  08 09 0A 0B 0C 0D 0E 0F
      -- -- -- -- -- -- -- --  -- -- -- -- -- -- -- --
0000: 00                                                .               
```

#### Opcodes

```
  0: 0x0000 [0x00] END_REQSTACK()
```

### Event 10

#### Metadata

| Field        | Value    |
|--------------|----------|
| Entrypoint   | 0x0001   |
| Data Size    | 21 bytes |
| Instructions | 2        |

```
      00 01 02 03 04 05 06 07  08 09 0A 0B 0C 0D 0E 0F
      -- -- -- -- -- -- -- --  -- -- -- -- -- -- -- --
0000:    B6 0B 00 80 01 80 02  80 03 80 04 80 05 80 06   ...............
0010: 80 04 80 04 80 00                                 ......          
```

#### Opcodes

```
  0: 0x0001 [0xB6] ENTITY_APPEARANCE_HANDLER(case=Full entity look, race=7*, hair=12*, head=261*, body=186*, hands=0*, legs=15*, feet=175*, main=0*, sub=0*)
  1: 0x0015 [0x00] END_REQSTACK()
```

### Event 65535.1

#### Metadata

| Field        | Value    |
|--------------|----------|
| Entrypoint   | 0x0016   |
| Data Size    | 45 bytes |
| Instructions | 4        |

```
      00 01 02 03 04 05 06 07  08 09 0A 0B 0C 0D 0E 0F
      -- -- -- -- -- -- -- --  -- -- -- -- -- -- -- --
0010:                   B4 00  00 00 00 00 00 00 00 00        ..........
0020: 00 00 00 00 00 00 00 00  00 00 B5 00 00 00 B6 0B  ................
0030: 07 80 04 80 04 80 04 80  04 80 04 80 04 80 04 80  ................
0040: 04 80 00                                          ...             
```

#### Opcodes

```
  0: 0x0016 [0xB4] UI_WINDOW_STRING_HANDLER(case=0x00 - Copy string from opcode, work_offset=ExtData[1]->WorkLocal[0], string="")
  1: 0x002A [0xB5] SET_EVENT_ENTITY_NAME: Change EventEntity name to ExtData[1]->WorkLocal[0]
  2: 0x002E [0xB6] ENTITY_APPEARANCE_HANDLER(case=Full entity look, race=1*, hair=0*, head=0*, body=0*, hands=0*, legs=0*, feet=0*, main=0*, sub=0*)
  3: 0x0042 [0x00] END_REQSTACK()
```

### Event 65535.2

#### Metadata

| Field        | Value   |
|--------------|---------|
| Entrypoint   | 0x0043  |
| Data Size    | 3 bytes |
| Instructions | 2       |

```
      00 01 02 03 04 05 06 07  08 09 0A 0B 0C 0D 0E 0F
      -- -- -- -- -- -- -- --  -- -- -- -- -- -- -- --
0040:          61 01 00                                    a..          
```

#### Opcodes

```
  0: 0x0043 [0x61] EventEntity->Render.Flags2 |= 0x00000001
  1: 0x0045 [0x00] END_REQSTACK()
```

### Event 65535.3

#### Metadata

| Field        | Value   |
|--------------|---------|
| Entrypoint   | 0x0046  |
| Data Size    | 3 bytes |
| Instructions | 2       |

```
      00 01 02 03 04 05 06 07  08 09 0A 0B 0C 0D 0E 0F
      -- -- -- -- -- -- -- --  -- -- -- -- -- -- -- --
0040:                   61 00  00                             a..       
```

#### Opcodes

```
  0: 0x0046 [0x61] EventEntity->Render.Flags2 &= ~0x00000001
  1: 0x0048 [0x00] END_REQSTACK()
```

### Event 65

#### Metadata

| Field        | Value    |
|--------------|----------|
| Entrypoint   | 0x0049   |
| Data Size    | 51 bytes |
| Instructions | 5        |

```
      00 01 02 03 04 05 06 07  08 09 0A 0B 0C 0D 0E 0F
      -- -- -- -- -- -- -- --  -- -- -- -- -- -- -- --
0040:                             B6 0B 07 80 08 80 09           .......
0050: 80 0A 80 0B 80 0A 80 0A  80 0C 80 0D 80 B4 00 00  ................
0060: 00 3F 3F 3F 00 00 00 00  00 00 00 00 00 00 00 00  .???............
0070: 00 B5 00 00 00 92 01 F8  FF FF 7F 00              ............    
```

#### Opcodes

```
  0: 0x0049 [0xB6] ENTITY_APPEARANCE_HANDLER(case=Full entity look, race=1*, hair=2*, head=182*, body=78*, hands=109*, legs=78*, feet=78*, main=70*, sub=89*)
  1: 0x005D [0xB4] UI_WINDOW_STRING_HANDLER(case=0x00 - Copy string from opcode, work_offset=ExtData[1]->WorkLocal[0], string="???")
  2: 0x0071 [0xB5] SET_EVENT_ENTITY_NAME: Change EventEntity name to ExtData[1]->WorkLocal[0]
  3: 0x0075 [0x92] EventEntity->Render.Flags3 ^= 0x01
  4: 0x007B [0x00] END_REQSTACK()
```

### Event 65535.4

#### Metadata

| Field        | Value    |
|--------------|----------|
| Entrypoint   | 0x007C   |
| Data Size    | 14 bytes |
| Instructions | 4        |

```
      00 01 02 03 04 05 06 07  08 09 0A 0B 0C 0D 0E 0F
      -- -- -- -- -- -- -- --  -- -- -- -- -- -- -- --
0070:                                      32 0E 80 5A              2..Z
0080: 00 0F 80 10 80 11 80 5A  01 00                    .......Z..      
```

#### Opcodes

```
  0: 0x007C [0x32] ExtData[1]->MainSpeed = 13* * 0.1
  1: 0x007F [0x5A] UPDATE_EVENT_POSITION: Set EventEntity MovePosition to X=-19.270*, Z=75.490*, Y=-8.860*
  2: 0x0087 [0x5A] UPDATE_EVENT_POSITION: Move EventEntity incrementally towards MovePosition
  3: 0x0089 [0x00] END_REQSTACK()
```

### Event 80

#### Metadata

| Field        | Value   |
|--------------|---------|
| Entrypoint   | 0x008A  |
| Data Size    | 7 bytes |
| Instructions | 2       |

```
      00 01 02 03 04 05 06 07  08 09 0A 0B 0C 0D 0E 0F
      -- -- -- -- -- -- -- --  -- -- -- -- -- -- -- --
0080:                                92 01 F8 FF FF 7F            ......
0090: 00                                                .               
```

#### Opcodes

```
  0: 0x008A [0x92] EventEntity->Render.Flags3 ^= 0x01
  1: 0x0090 [0x00] END_REQSTACK()
```

### Event 65535.5

#### Metadata

| Field        | Value    |
|--------------|----------|
| Entrypoint   | 0x0091   |
| Data Size    | 21 bytes |
| Instructions | 2        |

```
      00 01 02 03 04 05 06 07  08 09 0A 0B 0C 0D 0E 0F
      -- -- -- -- -- -- -- --  -- -- -- -- -- -- -- --
0090:    B6 0B 07 80 08 80 09  80 0A 80 0B 80 0A 80 0A   ...............
00A0: 80 0C 80 0D 80 00                                 ......          
```

#### Opcodes

```
  0: 0x0091 [0xB6] ENTITY_APPEARANCE_HANDLER(case=Full entity look, race=1*, hair=2*, head=182*, body=78*, hands=109*, legs=78*, feet=78*, main=70*, sub=89*)
  1: 0x00A5 [0x00] END_REQSTACK()
```
