# 17928266 - Ruspix

## Common Data

| Field            | Value               |
|------------------|---------------------|
| Zone             | Leafallia (ID: 281) |
| Block Size       | 6152 bytes          |
| Total Events     | 10                  |
| References Count | 448                 |

## List of Events

| Event ID                 | Entrypoint   |   Size |   Instructions |
|--------------------------|--------------|--------|----------------|
| [65535](#event-65535)    | 0x0000       |      1 |              1 |
| [69](#event-69)          | 0x0001       |    428 |             83 |
| [70](#event-70)          | 0x01AD       |    136 |             34 |
| [71](#event-71)          | 0x0235       |   1909 |            318 |
| [72](#event-72)          | 0x09AA       |     70 |             10 |
| [73](#event-73)          | 0x09F0       |     70 |             10 |
| [74](#event-74)          | 0x0A36       |     70 |             10 |
| [75](#event-75)          | 0x0A7C       |     70 |             10 |
| [76](#event-76)          | 0x0AC2       |     70 |             10 |
| [65535.1](#event-655351) | 0x0B08       |   1478 |            270 |

## DAT References (imed_data)

|   Index | Hex Value   |   Dec Value |
|---------|-------------|-------------|
|       0 | 0x0001      |           1 |
|       1 | 0x1F6C      |        8044 |
|       2 | 0x1F6D      |        8045 |
|       3 | 0x0000      |           0 |
|       4 | 0x00D7      |         215 |
|       5 | 0x1F6E      |        8046 |
|       6 | 0x1F6F      |        8047 |
|       7 | 0x00D8      |         216 |
|       8 | 0x1F70      |        8048 |
|       9 | 0x1F71      |        8049 |
|      10 | 0x1F72      |        8050 |
|      11 | 0x1F73      |        8051 |
|      12 | 0x1F74      |        8052 |
|      13 | 0x1F75      |        8053 |
|      14 | 0x1F76      |        8054 |
|      15 | 0x1F77      |        8055 |
|      16 | 0x1F78      |        8056 |
|      17 | 0x0CE4      |        3300 |
|      18 | 0x0CE5      |        3301 |
|      19 | 0x1F79      |        8057 |
|      20 | 0x1F7A      |        8058 |
|      21 | 0x1F7B      |        8059 |
|      22 | 0x1F7C      |        8060 |
|      23 | 0x1F7D      |        8061 |
|      24 | 0x1F7E      |        8062 |
|      25 | 0x1F7F      |        8063 |
|      26 | 0x1F80      |        8064 |
|      27 | 0x1F81      |        8065 |
|      28 | 0x1F82      |        8066 |
|      29 | 0x1F84      |        8068 |
|      30 | 0x1F85      |        8069 |
|      31 | 0x1F86      |        8070 |
|      32 | 0x1F87      |        8071 |
|      33 | 0x1F88      |        8072 |
|      34 | 0x1F89      |        8073 |
|      35 | 0x1F8A      |        8074 |
|      36 | 0x1F8B      |        8075 |
|      37 | 0x1F8C      |        8076 |
|      38 | 0x0D00      |        3328 |
|      39 | 0x1F8D      |        8077 |
|      40 | 0x1F8E      |        8078 |
|      41 | 0x0004      |           4 |
|      42 | 0x0005      |           5 |
|      43 | 0x0D1D      |        3357 |
|      44 | 0x1F8F      |        8079 |
|      45 | 0x000F      |          15 |
|      46 | 0x1000      |        4096 |
|      47 | 0x000A      |          10 |
|      48 | 0x0018      |          24 |
|      49 | 0x0010      |          16 |
|      50 | 0x1F90      |        8080 |
|      51 | 0x0011      |          17 |
|      52 | 0x1F97      |        8087 |
|      53 | 0x1F98      |        8088 |
|      54 | 0x186A0     |      100000 |
|      55 | 0x26C7      |        9927 |
|      56 | 0x2710      |       10000 |
|      57 | 0x26C8      |        9928 |
|      58 | 0x11170     |       70000 |
|      59 | 0x0002      |           2 |
|      60 | 0x1F91      |        8081 |
|      61 | 0x1F92      |        8082 |
|      62 | 0x0016      |          22 |
|      63 | 0x0015      |          21 |
|      64 | 0x0003      |           3 |
|      65 | 0x1F93      |        8083 |
|      66 | 0x1F83      |        8067 |
|      67 | 0x1F99      |        8089 |
|      68 | 0x1F9C      |        8092 |
|      69 | 0x1F9A      |        8090 |
|      70 | 0x1F9B      |        8091 |
|      71 | 0x1F9D      |        8093 |
|      72 | 0x1FA3      |        8099 |
|      73 | 0x0014      |          20 |
|      74 | 0x0013      |          19 |
|      75 | 0x1FA4      |        8100 |
|      76 | 0x0006      |           6 |
|      77 | 0x1F6B      |        8043 |
|      78 | 0x1F94      |        8084 |
|      79 | 0x1F96      |        8086 |
|      80 | 0x1F95      |        8085 |
|      81 | 0x19D6      |        6614 |
|      82 | 0x3A98      |       15000 |
|      83 | 0x15F90     |       90000 |
|      84 | 0x13880     |       80000 |
|      85 | 0x5A2D      |       23085 |
|      86 | 0x5A2E      |       23086 |
|      87 | 0x5A2F      |       23087 |
|      88 | 0x5A30      |       23088 |
|      89 | 0x5A31      |       23089 |
|      90 | 0x5A32      |       23090 |
|      91 | 0x5A33      |       23091 |
|      92 | 0x5A34      |       23092 |
|      93 | 0x5A35      |       23093 |
|      94 | 0x5A36      |       23094 |
|      95 | 0x5A37      |       23095 |
|      96 | 0x5A38      |       23096 |
|      97 | 0x5A39      |       23097 |
|      98 | 0x5A3A      |       23098 |
|      99 | 0x5A3B      |       23099 |
|     100 | 0x5A3C      |       23100 |
|     101 | 0x5A3D      |       23101 |
|     102 | 0x5A3E      |       23102 |
|     103 | 0x5A3F      |       23103 |
|     104 | 0x5A40      |       23104 |
|     105 | 0x5A41      |       23105 |
|     106 | 0x5A42      |       23106 |
|     107 | 0x5A70      |       23152 |
|     108 | 0x5A71      |       23153 |
|     109 | 0x5A72      |       23154 |
|     110 | 0x5A73      |       23155 |
|     111 | 0x5A74      |       23156 |
|     112 | 0x5A75      |       23157 |
|     113 | 0x5A76      |       23158 |
|     114 | 0x5A77      |       23159 |
|     115 | 0x5A78      |       23160 |
|     116 | 0x5A79      |       23161 |
|     117 | 0x5A7A      |       23162 |
|     118 | 0x5A7B      |       23163 |
|     119 | 0x5A7C      |       23164 |
|     120 | 0x5A7D      |       23165 |
|     121 | 0x5A7E      |       23166 |
|     122 | 0x5A7F      |       23167 |
|     123 | 0x5A80      |       23168 |
|     124 | 0x5A81      |       23169 |
|     125 | 0x5A82      |       23170 |
|     126 | 0x5A83      |       23171 |
|     127 | 0x5A84      |       23172 |
|     128 | 0x5A85      |       23173 |
|     129 | 0x5AB3      |       23219 |
|     130 | 0x5AB4      |       23220 |
|     131 | 0x5AB5      |       23221 |
|     132 | 0x5AB6      |       23222 |
|     133 | 0x5AB7      |       23223 |
|     134 | 0x5AB8      |       23224 |
|     135 | 0x5AB9      |       23225 |
|     136 | 0x5ABA      |       23226 |
|     137 | 0x5ABB      |       23227 |
|     138 | 0x5ABC      |       23228 |
|     139 | 0x5ABD      |       23229 |
|     140 | 0x5ABE      |       23230 |
|     141 | 0x5ABF      |       23231 |
|     142 | 0x5AC0      |       23232 |
|     143 | 0x5AC1      |       23233 |
|     144 | 0x5AC2      |       23234 |
|     145 | 0x5AC3      |       23235 |
|     146 | 0x5AC4      |       23236 |
|     147 | 0x5AC5      |       23237 |
|     148 | 0x5AC6      |       23238 |
|     149 | 0x5AC7      |       23239 |
|     150 | 0x5AC8      |       23240 |
|     151 | 0x5AF6      |       23286 |
|     152 | 0x5AF7      |       23287 |
|     153 | 0x5AF8      |       23288 |
|     154 | 0x5AF9      |       23289 |
|     155 | 0x5AFA      |       23290 |
|     156 | 0x5AFB      |       23291 |
|     157 | 0x5AFC      |       23292 |
|     158 | 0x5AFD      |       23293 |
|     159 | 0x5AFE      |       23294 |
|     160 | 0x5AFF      |       23295 |
|     161 | 0x5B00      |       23296 |
|     162 | 0x5B01      |       23297 |
|     163 | 0x5B02      |       23298 |
|     164 | 0x5B03      |       23299 |
|     165 | 0x5B04      |       23300 |
|     166 | 0x5B05      |       23301 |
|     167 | 0x5B06      |       23302 |
|     168 | 0x5B07      |       23303 |
|     169 | 0x5B08      |       23304 |
|     170 | 0x5B09      |       23305 |
|     171 | 0x5B0A      |       23306 |
|     172 | 0x5B0B      |       23307 |
|     173 | 0x5B39      |       23353 |
|     174 | 0x5B3A      |       23354 |
|     175 | 0x5B3B      |       23355 |
|     176 | 0x5B3C      |       23356 |
|     177 | 0x5B3D      |       23357 |
|     178 | 0x5B3E      |       23358 |
|     179 | 0x5B3F      |       23359 |
|     180 | 0x5B40      |       23360 |
|     181 | 0x5B41      |       23361 |
|     182 | 0x5B42      |       23362 |
|     183 | 0x5B43      |       23363 |
|     184 | 0x5B44      |       23364 |
|     185 | 0x5B45      |       23365 |
|     186 | 0x5B46      |       23366 |
|     187 | 0x5B47      |       23367 |
|     188 | 0x5B48      |       23368 |
|     189 | 0x5B49      |       23369 |
|     190 | 0x5B4A      |       23370 |
|     191 | 0x5B4B      |       23371 |
|     192 | 0x5B4C      |       23372 |
|     193 | 0x5B4D      |       23373 |
|     194 | 0x5B4E      |       23374 |
|     195 | 0x5B7C      |       23420 |
|     196 | 0x5B7D      |       23421 |
|     197 | 0x5B7E      |       23422 |
|     198 | 0x5B7F      |       23423 |
|     199 | 0x5B80      |       23424 |
|     200 | 0x5B81      |       23425 |
|     201 | 0x5B82      |       23426 |
|     202 | 0x5B83      |       23427 |
|     203 | 0x5B84      |       23428 |
|     204 | 0x5B85      |       23429 |
|     205 | 0x5B86      |       23430 |
|     206 | 0x5B87      |       23431 |
|     207 | 0x5B88      |       23432 |
|     208 | 0x5B89      |       23433 |
|     209 | 0x5B8A      |       23434 |
|     210 | 0x5B8B      |       23435 |
|     211 | 0x5B8C      |       23436 |
|     212 | 0x5B8D      |       23437 |
|     213 | 0x5B8E      |       23438 |
|     214 | 0x5B8F      |       23439 |
|     215 | 0x5B90      |       23440 |
|     216 | 0x5B91      |       23441 |
|     217 | 0x5BBF      |       23487 |
|     218 | 0x5BC0      |       23488 |
|     219 | 0x5BC1      |       23489 |
|     220 | 0x5BC2      |       23490 |
|     221 | 0x5BC3      |       23491 |
|     222 | 0x5BC4      |       23492 |
|     223 | 0x5BC5      |       23493 |
|     224 | 0x5BC6      |       23494 |
|     225 | 0x5BC7      |       23495 |
|     226 | 0x5BC8      |       23496 |
|     227 | 0x5BC9      |       23497 |
|     228 | 0x5BCA      |       23498 |
|     229 | 0x5BCB      |       23499 |
|     230 | 0x5BCC      |       23500 |
|     231 | 0x5BCD      |       23501 |
|     232 | 0x5BCE      |       23502 |
|     233 | 0x5BCF      |       23503 |
|     234 | 0x5BD0      |       23504 |
|     235 | 0x5BD1      |       23505 |
|     236 | 0x5BD2      |       23506 |
|     237 | 0x5BD3      |       23507 |
|     238 | 0x5BD4      |       23508 |
|     239 | 0x5C02      |       23554 |
|     240 | 0x5C03      |       23555 |
|     241 | 0x5C04      |       23556 |
|     242 | 0x5C05      |       23557 |
|     243 | 0x5C06      |       23558 |
|     244 | 0x5C07      |       23559 |
|     245 | 0x5C08      |       23560 |
|     246 | 0x5C09      |       23561 |
|     247 | 0x5C0A      |       23562 |
|     248 | 0x5C0B      |       23563 |
|     249 | 0x5C0C      |       23564 |
|     250 | 0x5C0D      |       23565 |
|     251 | 0x5C0E      |       23566 |
|     252 | 0x5C0F      |       23567 |
|     253 | 0x5C10      |       23568 |
|     254 | 0x5C11      |       23569 |
|     255 | 0x5C12      |       23570 |
|     256 | 0x5C13      |       23571 |
|     257 | 0x5C14      |       23572 |
|     258 | 0x5C15      |       23573 |
|     259 | 0x5C16      |       23574 |
|     260 | 0x5C17      |       23575 |
|     261 | 0x5C45      |       23621 |
|     262 | 0x5C46      |       23622 |
|     263 | 0x5C47      |       23623 |
|     264 | 0x5C48      |       23624 |
|     265 | 0x5C49      |       23625 |
|     266 | 0x5C4A      |       23626 |
|     267 | 0x5C4B      |       23627 |
|     268 | 0x5C4C      |       23628 |
|     269 | 0x5C4D      |       23629 |
|     270 | 0x5C4E      |       23630 |
|     271 | 0x5C4F      |       23631 |
|     272 | 0x5C50      |       23632 |
|     273 | 0x5C51      |       23633 |
|     274 | 0x5C52      |       23634 |
|     275 | 0x5C53      |       23635 |
|     276 | 0x5C54      |       23636 |
|     277 | 0x5C55      |       23637 |
|     278 | 0x5C56      |       23638 |
|     279 | 0x5C57      |       23639 |
|     280 | 0x5C58      |       23640 |
|     281 | 0x5C59      |       23641 |
|     282 | 0x5C5A      |       23642 |
|     283 | 0x5C88      |       23688 |
|     284 | 0x5C89      |       23689 |
|     285 | 0x5C8A      |       23690 |
|     286 | 0x5C8B      |       23691 |
|     287 | 0x5C8C      |       23692 |
|     288 | 0x5C8D      |       23693 |
|     289 | 0x5C8E      |       23694 |
|     290 | 0x5C8F      |       23695 |
|     291 | 0x5C90      |       23696 |
|     292 | 0x5C91      |       23697 |
|     293 | 0x5C92      |       23698 |
|     294 | 0x5C93      |       23699 |
|     295 | 0x5C94      |       23700 |
|     296 | 0x5C95      |       23701 |
|     297 | 0x5C96      |       23702 |
|     298 | 0x5C97      |       23703 |
|     299 | 0x5C98      |       23704 |
|     300 | 0x5C99      |       23705 |
|     301 | 0x5C9A      |       23706 |
|     302 | 0x5C9B      |       23707 |
|     303 | 0x5C9C      |       23708 |
|     304 | 0x5C9D      |       23709 |
|     305 | 0x6875      |       26741 |
|     306 | 0x6877      |       26743 |
|     307 | 0x6879      |       26745 |
|     308 | 0x687B      |       26747 |
|     309 | 0x687D      |       26749 |
|     310 | 0x687F      |       26751 |
|     311 | 0x6881      |       26753 |
|     312 | 0x6883      |       26755 |
|     313 | 0x6885      |       26757 |
|     314 | 0x6887      |       26759 |
|     315 | 0x6889      |       26761 |
|     316 | 0x688B      |       26763 |
|     317 | 0x688D      |       26765 |
|     318 | 0x688F      |       26767 |
|     319 | 0x6891      |       26769 |
|     320 | 0x6893      |       26771 |
|     321 | 0x6895      |       26773 |
|     322 | 0x6897      |       26775 |
|     323 | 0x6899      |       26777 |
|     324 | 0x689B      |       26779 |
|     325 | 0x689D      |       26781 |
|     326 | 0x689F      |       26783 |
|     327 | 0x6913      |       26899 |
|     328 | 0x6915      |       26901 |
|     329 | 0x6917      |       26903 |
|     330 | 0x6919      |       26905 |
|     331 | 0x691B      |       26907 |
|     332 | 0x691D      |       26909 |
|     333 | 0x691F      |       26911 |
|     334 | 0x6921      |       26913 |
|     335 | 0x6923      |       26915 |
|     336 | 0x6925      |       26917 |
|     337 | 0x6927      |       26919 |
|     338 | 0x6929      |       26921 |
|     339 | 0x692B      |       26923 |
|     340 | 0x692D      |       26925 |
|     341 | 0x692F      |       26927 |
|     342 | 0x6931      |       26929 |
|     343 | 0x6933      |       26931 |
|     344 | 0x6935      |       26933 |
|     345 | 0x6937      |       26935 |
|     346 | 0x6939      |       26937 |
|     347 | 0x693B      |       26939 |
|     348 | 0x693D      |       26941 |
|     349 | 0x69AD      |       27053 |
|     350 | 0x69AF      |       27055 |
|     351 | 0x69B1      |       27057 |
|     352 | 0x69B3      |       27059 |
|     353 | 0x69B5      |       27061 |
|     354 | 0x69B7      |       27063 |
|     355 | 0x69B9      |       27065 |
|     356 | 0x69BB      |       27067 |
|     357 | 0x69BD      |       27069 |
|     358 | 0x69BF      |       27071 |
|     359 | 0x69C1      |       27073 |
|     360 | 0x69C3      |       27075 |
|     361 | 0x69C5      |       27077 |
|     362 | 0x69C7      |       27079 |
|     363 | 0x69C9      |       27081 |
|     364 | 0x69CB      |       27083 |
|     365 | 0x69CD      |       27085 |
|     366 | 0x69CF      |       27087 |
|     367 | 0x69D1      |       27089 |
|     368 | 0x69D3      |       27091 |
|     369 | 0x69D5      |       27093 |
|     370 | 0x69D7      |       27095 |
|     371 | 0x6A66      |       27238 |
|     372 | 0x6A68      |       27240 |
|     373 | 0x6A6A      |       27242 |
|     374 | 0x6A6C      |       27244 |
|     375 | 0x6A6E      |       27246 |
|     376 | 0x6A70      |       27248 |
|     377 | 0x6A72      |       27250 |
|     378 | 0x6A74      |       27252 |
|     379 | 0x6A76      |       27254 |
|     380 | 0x6A78      |       27256 |
|     381 | 0x6A7A      |       27258 |
|     382 | 0x6A7C      |       27260 |
|     383 | 0x6A7E      |       27262 |
|     384 | 0x6A80      |       27264 |
|     385 | 0x6A82      |       27266 |
|     386 | 0x6A84      |       27268 |
|     387 | 0x6A86      |       27270 |
|     388 | 0x6A88      |       27272 |
|     389 | 0x6A8A      |       27274 |
|     390 | 0x6A8C      |       27276 |
|     391 | 0x6A8E      |       27278 |
|     392 | 0x6A90      |       27280 |
|     393 | 0x6B14      |       27412 |
|     394 | 0x6B16      |       27414 |
|     395 | 0x6B18      |       27416 |
|     396 | 0x6B1A      |       27418 |
|     397 | 0x6B1C      |       27420 |
|     398 | 0x6B1E      |       27422 |
|     399 | 0x6B20      |       27424 |
|     400 | 0x6B22      |       27426 |
|     401 | 0x6B24      |       27428 |
|     402 | 0x6B26      |       27430 |
|     403 | 0x6B28      |       27432 |
|     404 | 0x6B2A      |       27434 |
|     405 | 0x6B2C      |       27436 |
|     406 | 0x6B2E      |       27438 |
|     407 | 0x6B30      |       27440 |
|     408 | 0x6B32      |       27442 |
|     409 | 0x6B34      |       27444 |
|     410 | 0x6B36      |       27446 |
|     411 | 0x6B38      |       27448 |
|     412 | 0x6B3A      |       27450 |
|     413 | 0x6B3C      |       27452 |
|     414 | 0x6B3E      |       27454 |
|     415 | 0x26A6      |        9894 |
|     416 | 0x26A7      |        9895 |
|     417 | 0x26A8      |        9896 |
|     418 | 0x26A9      |        9897 |
|     419 | 0x26AA      |        9898 |
|     420 | 0x26AB      |        9899 |
|     421 | 0x26AC      |        9900 |
|     422 | 0x26AD      |        9901 |
|     423 | 0x26AE      |        9902 |
|     424 | 0x26AF      |        9903 |
|     425 | 0x26B0      |        9904 |
|     426 | 0x26B1      |        9905 |
|     427 | 0x26B2      |        9906 |
|     428 | 0x26B3      |        9907 |
|     429 | 0x26B4      |        9908 |
|     430 | 0x26B5      |        9909 |
|     431 | 0x26B6      |        9910 |
|     432 | 0x26B7      |        9911 |
|     433 | 0x26B8      |        9912 |
|     434 | 0x26B9      |        9913 |
|     435 | 0x26BA      |        9914 |
|     436 | 0x26BB      |        9915 |
|     437 | 0x26BC      |        9916 |
|     438 | 0x26BD      |        9917 |
|     439 | 0x26BE      |        9918 |
|     440 | 0x26BF      |        9919 |
|     441 | 0x26C0      |        9920 |
|     442 | 0x26C1      |        9921 |
|     443 | 0x26C2      |        9922 |
|     444 | 0x26C3      |        9923 |
|     445 | 0x26C4      |        9924 |
|     446 | 0x26C5      |        9925 |
|     447 | 0x26C6      |        9926 |

## String References

- **8043**: Hm? Oh, hello. And...goodbye.
- **8044**: Hm?
- **8045**: How do you respond? [Hm?/Hello!]
- **8046**: Hmmm??? Ugh. Why do you not understand how to give a simple greeting?
- **8047**: How do you respond? [Hmmm???/Hello!]
- **8048**: You really are denser than Selbina butter. And with that...goodbye.
- **8049**: Oh. Hello there.
- **8050**: I always did appreciate someone who knows how to properly greet others.
- **8051**: You're one of the good ones--that much I can tell. Now, if you would, please listen to my request.
- **8052**: I'm looking for a special powder--a hodgepodge of different minerals and assorted residue that I've taken to calling "gallimaufry." But it's quite difficult to come by on my own.
- **8053**: So my request is simple--I'd like you to gather gallimaufry for me.
- **8054**: I assume that your answer would be "yes" either way...
- **8055**: But let me sweeten the pot.
- **8056**: Will you help? [Fish for more info./Not interested.]
- **8057**: Ah, yes. My eyes are discerning as ever.
- **8058**: First, let me provide you with $6. Now, here's what I need you to do.
- **8059**: I need you to take the $3 and head to the diaphanous transposer in northwestern Kamihr Drifts (F-6). From there, you can teleport to Outer Ra'Kaznar.
- **8060**: That's where you can find all the gallimaufry I need.
- **8061**: This Outer Ra'Kaznar is a little different from the one you may be used to, so take care.
- **8062**: As soon as you enter Outer Ra'Kaznar, your $3 will lose its potency and transform into $6.
- **8063**: Fear not. The $3 will turn back into $6 if you approach the diaphanous transposer after 20 hours (Earth time) have elapsed.
- **8064**: Be aware that only a total of six people can teleport into Outer Ra'Kaznar at any given time.
- **8065**: Any more, and you will likely get stuck in the walls or something.
- **8066**: That's all you need to know. Good luck!
- **8067**: Need a refresher? The diaphanous transposer is in Kamihr Drifts (F-6).
- **8068**: I knew I could count on you. Oh, happy day!
- **8069**: I've taken the liberty of preparing a list of items I'll give you in exchange for gallimaufry.
- **8070**: You wouldn't happen to have any Empyrean armor, would you?
- **8071**: I've pulled some strings with a blacksmith friend of mine, and if you bring me the proper materials I'm sure she'll lend a hand. Take a look at my list for the details.
- **8072**: Oh, I know, I know. You're sick of waiting for your $3 to regenerate. And I'm sick of waiting for more gallimaufry.
- **8073**: So I figured "Hey, if I make another $3, then we can both be happy!"
- **8074**: But nothing is ever so easy, is it? No matter how much blood, sweat, and tears I poured into the process, I couldn't get it to come together properly.
- **8075**: But the next day, once my tears were dry, I went back and collected the residual energies from the $3...
- **8076**: And who woulda thunk it--the process was a success after all! The $3 turned back into $6! This time, the tears I shed were of joy.
- **8077**: So here you are! A brand new $3!
- **8078**: Care to browse my special list?
- **8079**: What do you do? [View the list./Ask about Outer Ra'Kaznar./Ask about $5./Ask about $5./Ask about temporary items/Ask about $5./Leave for now.]
- **8081**: To reforge empyrean armor to 119[+2/+3], I'll need the 119[+1/+2] version of the empyrean armor piece, $1, and $2 gallimaufry. Would you like to see what the end result will look like?
- **8082**: View which? [Boii Armor./Bhikku Attire./Ebers Attire./Wicce Attire./Lethargy Armor./Skulker's Attire./Chevalier's Armor./Heathen's Armor./Nukumi Armor./Fili Attire./Amini Attire./Kasuga Armor./Hattori Garb./Peltast's Armor./Beckoner's Attire./Hashishin Attire./Chasseur's Attire./Karagoz Attire./Maculele Attire./Arbatel Attire./Azimuth Attire./Erilaz Attire./Back.]
- **8084**: It'll take a little while to reforge your $0. Jeuno wasn't built in a day...but this armor will be, so come back tomorrow.
- **8085**: My contact is hard at work. You'll need to come back a little bit later.
- **8086**: The equipment you ordered is ready! Here you are!
- **8087**: $0? It'll run you $1 gallimaufry.
- **8088**: Are you sure? ($0 gall.) [Yes./Hang on...]
- **8089**: Your $3 will regenerate in $0 [hour/minute][/s].
- **8090**: Do you want to use the $3?
- **8091**: Use it? [Yes, please./No, thank you.]
- **8092**: You don't need to use the $3. Just head to the diaphanous transposer.
- **8093**: You can't use the $3 for another $1 second[/s] (Earth time).
- **8099**: Here are the temporary items you currently possess.

## Events

### Event 65535

#### Metadata

| Field        | Value   |
|--------------|---------|
| Entrypoint   | 0x0000  |
| Data Size    | 1 bytes |
| Instructions | 1       |

```
      00 01 02 03 04 05 06 07  08 09 0A 0B 0C 0D 0E 0F
      -- -- -- -- -- -- -- --  -- -- -- -- -- -- -- --
0000: 00                                                .               
```

#### Opcodes

```
  0: 0x0000 [0x00] END_REQSTACK()
```

### Event 69

#### Metadata

| Field        | Value     |
|--------------|-----------|
| Entrypoint   | 0x0001    |
| Data Size    | 428 bytes |
| Instructions | 81        |

```
      00 01 02 03 04 05 06 07  08 09 0A 0B 0C 0D 0E 0F
      -- -- -- -- -- -- -- --  -- -- -- -- -- -- -- --
0000:    1E F0 FF FF 7F 1C 00  80 1D 01 80 23 24 02 80   ...........#$..
0010: 03 80 03 80 25 02 00 10  03 80 00 96 00 5B 04 80  ....%........[..
0020: F8 FF FF 7F F8 FF FF 7F  74 6C 6B 30 1D 05 80 23  ........tlk0...#
0030: 53 F8 FF FF 7F F8 FF FF  7F 74 6C 6B 30 5B 04 80  S........tlk0[..
0040: F8 FF FF 7F F8 FF FF 7F  74 6C 6B 65 53 F8 FF FF  ........tlkeS...
0050: 7F F8 FF FF 7F 74 6C 6B  65 24 06 80 03 80 03 80  .....tlke$......
0060: 25 02 00 10 03 80 00 93  00 5B 07 80 F8 FF FF 7F  %........[......
0070: F8 FF FF 7F 62 79 65 30  1D 08 80 23 53 F8 FF FF  ....bye0...#S...
0080: 7F F8 FF FF 7F 62 79 65  30 03 01 10 03 80 21 00  .....bye0.....!.
0090: 01 93 00 01 96 00 5B 04  80 F8 FF FF 7F F8 FF FF  ......[.........
00A0: 7F 74 6C 6B 30 1D 09 80  23 1D 0A 80 23 1D 0B 80  .tlk0...#...#...
00B0: 23 1D 0C 80 23 1D 0D 80  23 1D 0E 80 23 1D 0F 80  #...#...#...#...
00C0: 23 53 F8 FF FF 7F F8 FF  FF 7F 74 6C 6B 30 5B 04  #S........tlk0[.
00D0: 80 F8 FF FF 7F F8 FF FF  7F 74 6C 6B 65 53 F8 FF  .........tlkeS..
00E0: FF 7F F8 FF FF 7F 74 6C  6B 65 24 10 80 03 80 03  ......tlke$.....
00F0: 80 25 02 00 10 00 80 00  04 01 03 01 10 03 80 21  .%.............!
0100: 00 01 04 01 03 02 10 11  80 03 03 10 12 80 5B 04  ..............[.
0110: 80 F8 FF FF 7F F8 FF FF  7F 74 6C 6B 31 1D 13 80  .........tlk1...
0120: 23 1D 14 80 23 53 F8 FF  FF 7F F8 FF FF 7F 74 6C  #...#S........tl
0130: 6B 31 5B 04 80 F8 FF FF  7F F8 FF FF 7F 74 6C 6B  k1[..........tlk
0140: 65 53 F8 FF FF 7F F8 FF  FF 7F 74 6C 6B 65 5B 04  eS........tlke[.
0150: 80 F8 FF FF 7F F8 FF FF  7F 74 6C 6B 30 1D 15 80  .........tlk0...
0160: 23 1D 16 80 23 1D 17 80  23 1D 18 80 23 1D 19 80  #...#...#...#...
0170: 23 1D 1A 80 23 1D 1B 80  23 1D 1C 80 23 53 F8 FF  #...#...#...#S..
0180: FF 7F F8 FF FF 7F 74 6C  6B 30 5B 04 80 F8 FF FF  ......tlk0[.....
0190: 7F F8 FF FF 7F 74 6C 6B  65 53 F8 FF FF 7F F8 FF  .....tlkeS......
01A0: FF 7F 74 6C 6B 65 03 01  10 00 80 21 00           ..tlke.....!.   
```

#### Opcodes

```
  0: 0x0001 [0x1E] EventEntity looks at LocalPlayer and starts talking
  1: 0x0006 [0x1C] WAIT(1* ticks)
  2: 0x0009 [0x1D] PRINT_EVENT_MESSAGE(message_id=8044*)
    → "Hm?"
  3: 0x000C [0x23] WAIT_FOR_DIALOG_INTERACTION
  4: 0x000D [0x24] CREATE_DIALOG(message_id=8045*, default_option=0*, option_flags=0*)
    → "How do you respond? [Hm?/Hello!]"
  5: 0x0014 [0x25] WAIT_DIALOG_SELECT()
  6: 0x0015 [0x02] IF !(Work_Zone[0] == 0*) GOTO 0x0096
  7: 0x001D [0x5B] LOAD_EXT_SCHEDULER: Load scheduler "tlk0" with entities [EventEntity, EventEntity], work=215*
  8: 0x002C [0x1D] PRINT_EVENT_MESSAGE(message_id=8046*)
    → "Hmmm??? Ugh. Why do you not understand how to give a simple greeting?"
  9: 0x002F [0x23] WAIT_FOR_DIALOG_INTERACTION
 10: 0x0030 [0x53] WAIT_SCHEDULER_TASK: Wait for scheduler "tlk0" with entities [EventEntity, EventEntity]
 11: 0x003D [0x5B] LOAD_EXT_SCHEDULER: Load scheduler "tlke" with entities [EventEntity, EventEntity], work=215*
 12: 0x004C [0x53] WAIT_SCHEDULER_TASK: Wait for scheduler "tlke" with entities [EventEntity, EventEntity]
 13: 0x0059 [0x24] CREATE_DIALOG(message_id=8047*, default_option=0*, option_flags=0*)
    → "How do you respond? [Hmmm???/Hello!]"
 14: 0x0060 [0x25] WAIT_DIALOG_SELECT()
 15: 0x0061 [0x02] IF !(Work_Zone[0] == 0*) GOTO 0x0093
 16: 0x0069 [0x5B] LOAD_EXT_SCHEDULER: Load scheduler "bye0" with entities [EventEntity, EventEntity], work=216*
 17: 0x0078 [0x1D] PRINT_EVENT_MESSAGE(message_id=8048*)
    → "You really are denser than Selbina butter. And with that...goodbye."
 18: 0x007B [0x23] WAIT_FOR_DIALOG_INTERACTION
 19: 0x007C [0x53] WAIT_SCHEDULER_TASK: Wait for scheduler "bye0" with entities [EventEntity, EventEntity]
 20: 0x0089 [0x03] Work_Zone[1] = 0*
 21: 0x008E [0x21] END_EVENT
 22: 0x008F [0x00] END_REQSTACK()

SUBROUTINE_0093:
 23: 0x0093 [0x01] GOTO 0x0096

SUBROUTINE_0096:
 24: 0x0096 [0x5B] LOAD_EXT_SCHEDULER: Load scheduler "tlk0" with entities [EventEntity, EventEntity], work=215*
 25: 0x00A5 [0x1D] PRINT_EVENT_MESSAGE(message_id=8049*)
    → "Oh. Hello there."
 26: 0x00A8 [0x23] WAIT_FOR_DIALOG_INTERACTION
 27: 0x00A9 [0x1D] PRINT_EVENT_MESSAGE(message_id=8050*)
    → "I always did appreciate someone who knows how to properly greet others."
 28: 0x00AC [0x23] WAIT_FOR_DIALOG_INTERACTION
 29: 0x00AD [0x1D] PRINT_EVENT_MESSAGE(message_id=8051*)
    → "You're one of the good ones--that much I can tell. Now, if you would, please listen to my request."
 30: 0x00B0 [0x23] WAIT_FOR_DIALOG_INTERACTION
 31: 0x00B1 [0x1D] PRINT_EVENT_MESSAGE(message_id=8052*)
    → "I'm looking for a special powder--a hodgepodge of different minerals and assorted residue that I've taken to calling "gallimaufry." But it's quite difficult to come by on my own."
 32: 0x00B4 [0x23] WAIT_FOR_DIALOG_INTERACTION
 33: 0x00B5 [0x1D] PRINT_EVENT_MESSAGE(message_id=8053*)
    → "So my request is simple--I'd like you to gather gallimaufry for me."
 34: 0x00B8 [0x23] WAIT_FOR_DIALOG_INTERACTION
 35: 0x00B9 [0x1D] PRINT_EVENT_MESSAGE(message_id=8054*)
    → "I assume that your answer would be "yes" either way..."
 36: 0x00BC [0x23] WAIT_FOR_DIALOG_INTERACTION
 37: 0x00BD [0x1D] PRINT_EVENT_MESSAGE(message_id=8055*)
    → "But let me sweeten the pot."
 38: 0x00C0 [0x23] WAIT_FOR_DIALOG_INTERACTION
 39: 0x00C1 [0x53] WAIT_SCHEDULER_TASK: Wait for scheduler "tlk0" with entities [EventEntity, EventEntity]
 40: 0x00CE [0x5B] LOAD_EXT_SCHEDULER: Load scheduler "tlke" with entities [EventEntity, EventEntity], work=215*
 41: 0x00DD [0x53] WAIT_SCHEDULER_TASK: Wait for scheduler "tlke" with entities [EventEntity, EventEntity]
 42: 0x00EA [0x24] CREATE_DIALOG(message_id=8056*, default_option=0*, option_flags=0*)
    → "Will you help? [Fish for more info./Not interested.]"
 43: 0x00F1 [0x25] WAIT_DIALOG_SELECT()
 44: 0x00F2 [0x02] IF !(Work_Zone[0] == 1*) GOTO 0x0104
 45: 0x00FA [0x03] Work_Zone[1] = 0*
 46: 0x00FF [0x21] END_EVENT
 47: 0x0100 [0x00] END_REQSTACK()

SUBROUTINE_0104:
 48: 0x0104 [0x03] Work_Zone[2] = 3300*
 49: 0x0109 [0x03] Work_Zone[3] = 3301*
 50: 0x010E [0x5B] LOAD_EXT_SCHEDULER: Load scheduler "tlk1" with entities [EventEntity, EventEntity], work=215*
 51: 0x011D [0x1D] PRINT_EVENT_MESSAGE(message_id=8057*)
    → "Ah, yes. My eyes are discerning as ever."
 52: 0x0120 [0x23] WAIT_FOR_DIALOG_INTERACTION
 53: 0x0121 [0x1D] PRINT_EVENT_MESSAGE(message_id=8058*)
    → "First, let me provide you with $6. Now, here's what I need you to do."
 54: 0x0124 [0x23] WAIT_FOR_DIALOG_INTERACTION
 55: 0x0125 [0x53] WAIT_SCHEDULER_TASK: Wait for scheduler "tlk1" with entities [EventEntity, EventEntity]
 56: 0x0132 [0x5B] LOAD_EXT_SCHEDULER: Load scheduler "tlke" with entities [EventEntity, EventEntity], work=215*
 57: 0x0141 [0x53] WAIT_SCHEDULER_TASK: Wait for scheduler "tlke" with entities [EventEntity, EventEntity]
 58: 0x014E [0x5B] LOAD_EXT_SCHEDULER: Load scheduler "tlk0" with entities [EventEntity, EventEntity], work=215*
 59: 0x015D [0x1D] PRINT_EVENT_MESSAGE(message_id=8059*)
    → "I need you to take the $3 and head to the diaphanous transposer in northwestern Kamihr Drifts (F-6). From there, you can teleport to Outer Ra'Kaznar."
 60: 0x0160 [0x23] WAIT_FOR_DIALOG_INTERACTION
 61: 0x0161 [0x1D] PRINT_EVENT_MESSAGE(message_id=8060*)
    → "That's where you can find all the gallimaufry I need."
 62: 0x0164 [0x23] WAIT_FOR_DIALOG_INTERACTION
 63: 0x0165 [0x1D] PRINT_EVENT_MESSAGE(message_id=8061*)
    → "This Outer Ra'Kaznar is a little different from the one you may be used to, so take care."
 64: 0x0168 [0x23] WAIT_FOR_DIALOG_INTERACTION
 65: 0x0169 [0x1D] PRINT_EVENT_MESSAGE(message_id=8062*)
    → "As soon as you enter Outer Ra'Kaznar, your $3 will lose its potency and transform into $6."
 66: 0x016C [0x23] WAIT_FOR_DIALOG_INTERACTION
 67: 0x016D [0x1D] PRINT_EVENT_MESSAGE(message_id=8063*)
    → "Fear not. The $3 will turn back into $6 if you approach the diaphanous transposer after 20 hours (Earth time) have elapsed."
 68: 0x0170 [0x23] WAIT_FOR_DIALOG_INTERACTION
 69: 0x0171 [0x1D] PRINT_EVENT_MESSAGE(message_id=8064*)
    → "Be aware that only a total of six people can teleport into Outer Ra'Kaznar at any given time."
 70: 0x0174 [0x23] WAIT_FOR_DIALOG_INTERACTION
 71: 0x0175 [0x1D] PRINT_EVENT_MESSAGE(message_id=8065*)
    → "Any more, and you will likely get stuck in the walls or something."
 72: 0x0178 [0x23] WAIT_FOR_DIALOG_INTERACTION
 73: 0x0179 [0x1D] PRINT_EVENT_MESSAGE(message_id=8066*)
    → "That's all you need to know. Good luck!"
 74: 0x017C [0x23] WAIT_FOR_DIALOG_INTERACTION
 75: 0x017D [0x53] WAIT_SCHEDULER_TASK: Wait for scheduler "tlk0" with entities [EventEntity, EventEntity]
 76: 0x018A [0x5B] LOAD_EXT_SCHEDULER: Load scheduler "tlke" with entities [EventEntity, EventEntity], work=215*
 77: 0x0199 [0x53] WAIT_SCHEDULER_TASK: Wait for scheduler "tlke" with entities [EventEntity, EventEntity]
 78: 0x01A6 [0x03] Work_Zone[1] = 1*
 79: 0x01AB [0x21] END_EVENT
 80: 0x01AC [0x00] END_REQSTACK()
```

#### Data or dead code:

```
# Dead code (unreachable instructions):
     0x0090 [0x01] GOTO 0x0093
# Dead code (unreachable instructions):
     0x0101 [0x01] GOTO 0x0104
```

### Event 70

#### Metadata

| Field        | Value     |
|--------------|-----------|
| Entrypoint   | 0x01AD    |
| Data Size    | 136 bytes |
| Instructions | 34        |

```
      00 01 02 03 04 05 06 07  08 09 0A 0B 0C 0D 0E 0F
      -- -- -- -- -- -- -- --  -- -- -- -- -- -- -- --
01A0:                                         1E F0 FF               ...
01B0: FF 7F 1C 00 80 5B 04 80  F8 FF FF 7F F8 FF FF 7F  .....[..........
01C0: 74 6C 6B 30 1D 1D 80 23  1D 1E 80 23 1D 1F 80 23  tlk0...#...#...#
01D0: 1D 20 80 23 03 02 10 12  80 1D 21 80 23 03 02 10  . .#......!.#...
01E0: 11 80 1D 22 80 23 1D 23  80 23 03 02 10 11 80 1D  ...".#.#.#......
01F0: 24 80 23 03 02 10 12 80  03 03 10 11 80 1D 25 80  $.#...........%.
0200: 23 03 02 10 26 80 1D 27  80 23 53 F8 FF FF 7F F8  #...&..'.#S.....
0210: FF FF 7F 74 6C 6B 30 5B  04 80 F8 FF FF 7F F8 FF  ...tlk0[........
0220: FF 7F 74 6C 6B 65 53 F8  FF FF 7F F8 FF FF 7F 74  ..tlkeS........t
0230: 6C 6B 65 21 00                                    lke!.           
```

#### Opcodes

```
  0: 0x01AD [0x1E] EventEntity looks at LocalPlayer and starts talking
  1: 0x01B2 [0x1C] WAIT(1* ticks)
  2: 0x01B5 [0x5B] LOAD_EXT_SCHEDULER: Load scheduler "tlk0" with entities [EventEntity, EventEntity], work=215*
  3: 0x01C4 [0x1D] PRINT_EVENT_MESSAGE(message_id=8068*)
    → "I knew I could count on you. Oh, happy day!"
  4: 0x01C7 [0x23] WAIT_FOR_DIALOG_INTERACTION
  5: 0x01C8 [0x1D] PRINT_EVENT_MESSAGE(message_id=8069*)
    → "I've taken the liberty of preparing a list of items I'll give you in exchange for gallimaufry."
  6: 0x01CB [0x23] WAIT_FOR_DIALOG_INTERACTION
  7: 0x01CC [0x1D] PRINT_EVENT_MESSAGE(message_id=8070*)
    → "You wouldn't happen to have any Empyrean armor, would you?"
  8: 0x01CF [0x23] WAIT_FOR_DIALOG_INTERACTION
  9: 0x01D0 [0x1D] PRINT_EVENT_MESSAGE(message_id=8071*)
    → "I've pulled some strings with a blacksmith friend of mine, and if you bring me the proper materials I'm sure she'll lend a hand. Take a look at my list for the details."
 10: 0x01D3 [0x23] WAIT_FOR_DIALOG_INTERACTION
 11: 0x01D4 [0x03] Work_Zone[2] = 3301*
 12: 0x01D9 [0x1D] PRINT_EVENT_MESSAGE(message_id=8072*)
    → "Oh, I know, I know. You're sick of waiting for your $3 to regenerate. And I'm sick of waiting for more gallimaufry."
 13: 0x01DC [0x23] WAIT_FOR_DIALOG_INTERACTION
 14: 0x01DD [0x03] Work_Zone[2] = 3300*
 15: 0x01E2 [0x1D] PRINT_EVENT_MESSAGE(message_id=8073*)
    → "So I figured "Hey, if I make another $3, then we can both be happy!""
 16: 0x01E5 [0x23] WAIT_FOR_DIALOG_INTERACTION
 17: 0x01E6 [0x1D] PRINT_EVENT_MESSAGE(message_id=8074*)
    → "But nothing is ever so easy, is it? No matter how much blood, sweat, and tears I poured into the process, I couldn't get it to come together properly."
 18: 0x01E9 [0x23] WAIT_FOR_DIALOG_INTERACTION
 19: 0x01EA [0x03] Work_Zone[2] = 3300*
 20: 0x01EF [0x1D] PRINT_EVENT_MESSAGE(message_id=8075*)
    → "But the next day, once my tears were dry, I went back and collected the residual energies from the $3..."
 21: 0x01F2 [0x23] WAIT_FOR_DIALOG_INTERACTION
 22: 0x01F3 [0x03] Work_Zone[2] = 3301*
 23: 0x01F8 [0x03] Work_Zone[3] = 3300*
 24: 0x01FD [0x1D] PRINT_EVENT_MESSAGE(message_id=8076*)
    → "And who woulda thunk it--the process was a success after all! The $3 turned back into $6! This time, the tears I shed were of joy."
 25: 0x0200 [0x23] WAIT_FOR_DIALOG_INTERACTION
 26: 0x0201 [0x03] Work_Zone[2] = 3328*
 27: 0x0206 [0x1D] PRINT_EVENT_MESSAGE(message_id=8077*)
    → "So here you are! A brand new $3!"
 28: 0x0209 [0x23] WAIT_FOR_DIALOG_INTERACTION
 29: 0x020A [0x53] WAIT_SCHEDULER_TASK: Wait for scheduler "tlk0" with entities [EventEntity, EventEntity]
 30: 0x0217 [0x5B] LOAD_EXT_SCHEDULER: Load scheduler "tlke" with entities [EventEntity, EventEntity], work=215*
 31: 0x0226 [0x53] WAIT_SCHEDULER_TASK: Wait for scheduler "tlke" with entities [EventEntity, EventEntity]
 32: 0x0233 [0x21] END_EVENT
 33: 0x0234 [0x00] END_REQSTACK()
```

### Event 71

#### Metadata

| Field        | Value      |
|--------------|------------|
| Entrypoint   | 0x0235     |
| Data Size    | 1909 bytes |
| Instructions | 203        |

```
      00 01 02 03 04 05 06 07  08 09 0A 0B 0C 0D 0E 0F
      -- -- -- -- -- -- -- --  -- -- -- -- -- -- -- --
0230:                1E F0 FF  FF 7F 1C 00 80 5B 04 80       ........[..
0240: F8 FF FF 7F F8 FF FF 7F  74 6C 6B 30 1D 28 80 23  ........tlk0.(.#
0250: 5B 04 80 F8 FF FF 7F F8  FF FF 7F 74 6C 6B 65 03  [..........tlke.
0260: 00 00 03 80 03 01 00 03  80 03 02 00 03 80 03 03  ................
0270: 00 03 80 03 04 00 03 80  03 05 00 03 80 03 06 00  ................
0280: 03 80 03 07 00 03 80 03  08 00 03 80 03 09 00 03  ................
0290: 80 03 0A 00 02 10 03 0E  00 03 10 03 0F 00 04 10  ................
02A0: 03 10 00 05 10 02 0F 00  03 80 00 C9 02 02 10 00  ................
02B0: 03 80 00 BF 02 3C 00 00  29 80 00 80 01 C6 02 3D  .....<..)......=
02C0: 00 00 29 80 00 80 01 D0  02 3D 00 00 29 80 00 80  ..)......=..)...
02D0: 02 06 10 03 80 00 E2 02  3C 00 00 2A 80 00 80 01  ........<..*....
02E0: E9 02 3D 00 00 2A 80 00  80 03 02 10 11 80 03 03  ..=..*..........
02F0: 10 26 80 03 04 10 2B 80  24 2C 80 05 00 00 00 25  .&....+.$,.....%
0300: 02 00 10 03 80 00 15 06  03 05 00 00 10 03 02 10  ................
0310: 0A 00 03 0B 00 03 80 02  0B 00 2D 80 03 E5 03 9D  ..........-.....
0320: 0A 4E 0B 0C 00 0B 00 2D  80 02 0C 00 03 80 00 45  .N.....-.......E
0330: 03 3C 01 00 0B 00 00 80  9D 0F AE 0B 2E 80 0B 00  .<..............
0340: 2D 80 01 DF 03 9D 0A 8E  0B 0C 00 0B 00 2D 80 02  -............-..
0350: 0C 00 03 80 00 8F 03 3D  01 00 0B 00 00 80 9D 0A  .......=........
0360: 4E 0B 0C 00 0B 00 2D 80  9D 0F AE 0B 0C 00 0B 00  N.....-.........
0370: 2D 80 D4 03 0B 00 0C 00  9D 0A 6E 0B 0C 00 0B 00  -.........n.....
0380: 2D 80 9D 0F DE 0B 0C 00  0B 00 2D 80 01 DF 03 3E  -.........-....>
0390: 0E 00 0C 00 CE 03 3D 01  00 0B 00 00 80 9D 0A 4E  ......=........N
03A0: 0B 0C 00 0B 00 2D 80 9D  0F AE 0B 0C 00 0B 00 2D  .....-.........-
03B0: 80 D4 03 0B 00 0C 00 9D  0A 6E 0B 0C 00 0B 00 2D  .........n.....-
03C0: 80 9D 0F DE 0B 0C 00 0B  00 2D 80 01 DF 03 3C 01  .........-....<.
03D0: 00 0B 00 00 80 9D 0F AE  0B 2E 80 0B 00 2D 80 0B  .............-..
03E0: 0B 00 01 17 03 3E 0E 00  2F 80 F6 03 3D 01 00 2D  .....>../...=..-
03F0: 80 00 80 01 FD 03 3C 01  00 2D 80 00 80 3E 0E 00  ......<..-...>..
0400: 30 80 0E 04 3D 01 00 31  80 00 80 01 15 04 3C 01  0...=..1......<.
0410: 00 31 80 00 80 D4 02 32  80 06 00 01 00 25 02 00  .1.....2.....%..
0420: 10 2D 80 00 33 04 03 06  00 00 10 03 02 10 03 80  .-..3...........
0430: 01 D2 04 02 00 10 31 80  00 48 04 03 06 00 00 10  ......1..H......
0440: 03 02 10 00 80 01 D2 04  02 00 10 33 80 00 56 04  ...........3..V.
0450: 01 E9 02 01 D2 04 03 06  00 00 10 9D 0A 4E 0B 02  .............N..
0460: 10 00 10 2D 80 9D 0A 6E  0B 03 10 00 10 2D 80 5B  ...-...n.....-.[
0470: 04 80 F8 FF FF 7F F8 FF  FF 7F 74 6C 6B 31 1D 34  ..........tlk1.4
0480: 80 23 5B 04 80 F8 FF FF  7F F8 FF FF 7F 74 6C 6B  .#[..........tlk
0490: 30 03 02 10 0A 00 24 35  80 00 80 03 80 25 02 00  0.....$5.....%..
04A0: 10 03 80 00 C4 04 5B 04  80 F8 FF FF 7F F8 FF FF  ......[.........
04B0: 7F 70 61 73 30 03 01 10  06 00 07 01 10 36 80 21  .pas0........6.!
04C0: 00 01 D2 04 02 00 10 00  80 00 D2 04 01 0D 03 01  ................
04D0: D2 04 02 00 10 2D 80 04  12 06 02 00 10 31 80 05  .....-.......1..
04E0: 12 06 02 06 00 2D 80 00  F9 04 03 03 10 37 80 03  .....-.......7..
04F0: 04 10 38 80 03 01 10 00  80 02 06 00 31 80 00 10  ..8.........1...
0500: 05 03 03 10 39 80 03 04  10 3A 80 03 01 10 3B 80  ....9....:....;.
0510: 5B 04 80 F8 FF FF 7F F8  FF FF 7F 74 6C 6B 30 1D  [..........tlk0.
0520: 3C 80 23 5B 04 80 F8 FF  FF 7F F8 FF FF 7F 74 6C  <.#[..........tl
0530: 6B 65 43 00 43 01 03 03  00 02 10 24 3D 80 08 00  keC.C......$=...
0540: 03 00 25 02 00 10 3E 80  00 51 05 01 0D 03 01 56  ..%...>..Q.....V
0550: 05 03 08 00 00 10 02 00  10 03 80 04 12 06 02 00  ................
0560: 10 3F 80 05 12 06 02 06  00 2D 80 00 A0 05 9D 0A  .?.......-......
0570: FE 0B 02 10 00 10 3E 80  9D 0A 2E 0C 03 10 00 10  ......>.........
0580: 3E 80 9D 0A 5E 0C 04 10  00 10 3E 80 9D 0A 8E 0C  >...^.....>.....
0590: 05 10 00 10 3E 80 9D 0A  BE 0C 06 10 00 10 3E 80  ....>.........>.
05A0: 02 06 00 31 80 00 DA 05  9D 0A EE 0C 02 10 00 10  ...1............
05B0: 3E 80 9D 0A 1E 0D 03 10  00 10 3E 80 9D 0A 4E 0D  >.........>...N.
05C0: 04 10 00 10 3E 80 9D 0A  7E 0D 05 10 00 10 3E 80  ....>...~.....>.
05D0: 9D 0A AE 0D 06 10 00 10  3E 80 D4 03 03 80 02 10  ........>.......
05E0: D4 03 00 80 03 10 D4 03  3B 80 04 10 D4 03 40 80  ........;.....@.
05F0: 05 10 D4 03 29 80 06 10  D4 02 41 80 09 00 03 80  ....).....A.....
0600: 25 02 00 10 2A 80 00 0F  06 01 3B 05 01 12 06 01  %...*.....;.....
0610: 3B 05 01 A8 09 02 00 10  00 80 00 82 06 03 02 10  ;...............
0620: 11 80 03 03 10 12 80 03  05 00 00 10 5B 04 80 F8  ............[...
0630: FF FF 7F F8 FF FF 7F 74  6C 6B 30 1D 15 80 23 1D  .......tlk0...#.
0640: 16 80 23 1D 17 80 23 1D  18 80 23 1D 19 80 23 1D  ..#...#...#...#.
0650: 1A 80 23 53 F8 FF FF 7F  F8 FF FF 7F 74 6C 6B 31  ..#S........tlk1
0660: 5B 04 80 F8 FF FF 7F F8  FF FF 7F 74 6C 6B 65 53  [..........tlkeS
0670: F8 FF FF 7F F8 FF FF 7F  74 6C 6B 65 01 E9 02 01  ........tlke....
0680: A8 09 02 00 10 3B 80 00  B6 06 03 05 00 00 10 03  .....;..........
0690: 01 10 29 80 43 00 43 01  02 03 10 3B 80 00 A7 06  ..).C.C....;....
06A0: 1D 42 80 23 01 B0 06 03  04 10 11 80 1D 43 80 23  .B.#.........C.#
06B0: 01 E9 02 01 A8 09 02 00  10 40 80 00 55 07 03 05  .........@..U...
06C0: 00 00 10 03 01 10 2A 80  43 00 43 01 02 02 10 00  ......*.C.C.....
06D0: 80 80 E3 06 03 02 10 26  80 1D 44 80 23 01 E9 02  .......&..D.#...
06E0: 01 52 07 02 02 10 3B 80  80 3B 07 5B 04 80 F8 FF  .R....;..;.[....
06F0: FF 7F F8 FF FF 7F 74 6C  6B 30 03 02 10 26 80 1D  ......tlk0...&..
0700: 45 80 23 5B 04 80 F8 FF  FF 7F F8 FF FF 7F 74 6C  E.#[..........tl
0710: 6B 65 24 46 80 00 80 03  80 25 02 00 10 03 80 00  ke$F.....%......
0720: 2A 07 03 01 10 00 80 01  38 07 02 00 10 00 80 00  *.......8.......
0730: 38 07 01 E9 02 01 38 07  01 52 07 02 02 10 40 80  8.....8..R....@.
0740: 80 52 07 03 02 10 26 80  1D 47 80 23 01 E9 02 01  .R....&..G.#....
0750: 52 07 01 A8 09 02 00 10  29 80 00 10 09 03 05 00  R.......).......
0760: 00 10 03 12 00 03 80 02  0F 00 03 80 00 7D 07 0B  .............}..
0770: 12 00 02 10 00 03 80 00  7D 07 0B 12 00 5B 04 80  ........}....[..
0780: F8 FF FF 7F F8 FF FF 7F  74 6C 6B 31 1D 48 80 23  ........tlk1.H.#
0790: 5B 04 80 F8 FF FF 7F F8  FF FF 7F 74 6C 6B 30 03  [..........tlk0.
07A0: 11 00 03 80 02 12 00 03  80 80 2E 08 02 10 00 03  ................
07B0: 80 00 BE 07 3C 11 00 49  80 00 80 01 C5 07 3D 11  ....<..I......=.
07C0: 00 49 80 00 80 3C 11 00  3F 80 00 80 03 0B 00 03  .I...<..?.......
07D0: 80 03 0C 00 03 80 02 0B  00 4A 80 05 2B 08 3E 0F  .........J..+.>.
07E0: 00 0B 00 14 08 9D 0A 7E  10 0C 00 0B 00 49 80 02  .......~.....I..
07F0: 0C 00 03 80 00 01 08 3C  11 00 0B 00 00 80 01 11  .......<........
0800: 08 9D 0F AE 0B 0C 00 0B  00 49 80 D4 03 0B 00 0C  .........I......
0810: 00 01 25 08 9D 0F AE 0B  03 80 0B 00 49 80 3C 11  ..%.........I.<.
0820: 00 0B 00 00 80 0B 0B 00  01 D6 07 01 D1 08 02 12  ................
0830: 00 00 80 80 B8 08 3C 11  00 49 80 00 80 02 0F 00  ......<..I......
0840: 03 80 00 4F 08 3C 11 00  3F 80 00 80 01 56 08 3D  ...O.<..?....V.=
0850: 11 00 3F 80 00 80 03 0B  00 03 80 03 0C 00 03 80  ..?.............
0860: 02 0B 00 4A 80 05 B5 08  3E 10 00 0B 00 9E 08 9D  ...J....>.......
0870: 0A AE 10 0C 00 0B 00 49  80 02 0C 00 03 80 00 8B  .......I........
0880: 08 3C 11 00 0B 00 00 80  01 9B 08 9D 0F AE 0B 0C  .<..............
0890: 00 0B 00 49 80 D4 03 0B  00 0C 00 01 AF 08 9D 0F  ...I............
08A0: AE 0B 03 80 0B 00 49 80  3C 11 00 0B 00 00 80 0B  ......I.<.......
08B0: 0B 00 01 60 08 01 D1 08  02 12 00 3B 80 80 D1 08  ...`.......;....
08C0: 3D 11 00 49 80 00 80 3D  11 00 3F 80 00 80 01 D1  =..I...=..?.....
08D0: 08 D4 02 4B 80 03 80 11  00 25 02 00 10 49 80 00  ...K.....%...I..
08E0: EB 08 0B 12 00 01 9F 07  01 0D 09 02 00 10 3F 80  ..............?.
08F0: 00 FC 08 0C 12 00 01 9F  07 01 0D 09 02 00 10 3E  ...............>
0900: 80 00 0A 09 01 E9 02 01  0D 09 01 E9 02 01 A8 09  ................
0910: 02 00 10 2A 80 00 98 09  03 05 00 00 10 03 01 10  ...*............
0920: 4C 80 43 00 43 01 02 02  10 00 80 80 3D 09 03 02  L.C.C.......=...
0930: 10 2B 80 1D 44 80 23 01  E9 02 01 95 09 02 02 10  .+..D.#.........
0940: 3B 80 80 95 09 5B 04 80  F8 FF FF 7F F8 FF FF 7F  ;....[..........
0950: 74 6C 6B 30 03 02 10 2B  80 1D 45 80 23 5B 04 80  tlk0...+..E.#[..
0960: F8 FF FF 7F F8 FF FF 7F  74 6C 6B 65 24 46 80 00  ........tlke$F..
0970: 80 03 80 25 02 00 10 03  80 00 84 09 03 01 10 3B  ...%...........;
0980: 80 01 92 09 02 00 10 00  80 00 92 09 01 E9 02 01  ................
0990: 92 09 01 95 09 01 A8 09  02 00 10 4C 80 00 A8 09  ...........L....
09A0: 03 01 10 03 80 01 A8 09  21 00                    ........!.      
```

#### Opcodes

```
  0: 0x0235 [0x1E] EventEntity looks at LocalPlayer and starts talking
  1: 0x023A [0x1C] WAIT(1* ticks)
  2: 0x023D [0x5B] LOAD_EXT_SCHEDULER: Load scheduler "tlk0" with entities [EventEntity, EventEntity], work=215*
  3: 0x024C [0x1D] PRINT_EVENT_MESSAGE(message_id=8078*)
    → "Care to browse my special list?"
  4: 0x024F [0x23] WAIT_FOR_DIALOG_INTERACTION
  5: 0x0250 [0x5B] LOAD_EXT_SCHEDULER: Load scheduler "tlke" with entities [EventEntity, EventEntity], work=215*
  6: 0x025F [0x03] ExtData[1]->WorkLocal[0] = 0*
  7: 0x0264 [0x03] ExtData[1]->WorkLocal[1] = 0*
  8: 0x0269 [0x03] ExtData[1]->WorkLocal[2] = 0*
  9: 0x026E [0x03] ExtData[1]->WorkLocal[3] = 0*
 10: 0x0273 [0x03] ExtData[1]->WorkLocal[4] = 0*
 11: 0x0278 [0x03] ExtData[1]->WorkLocal[5] = 0*
 12: 0x027D [0x03] ExtData[1]->WorkLocal[6] = 0*
 13: 0x0282 [0x03] ExtData[1]->WorkLocal[7] = 0*
 14: 0x0287 [0x03] ExtData[1]->WorkLocal[8] = 0*
 15: 0x028C [0x03] ExtData[1]->WorkLocal[9] = 0*
 16: 0x0291 [0x03] ExtData[1]->WorkLocal[10] = Work_Zone[2]
 17: 0x0296 [0x03] ExtData[1]->WorkLocal[14] = Work_Zone[3]
 18: 0x029B [0x03] ExtData[1]->WorkLocal[15] = Work_Zone[4]
 19: 0x02A0 [0x03] ExtData[1]->WorkLocal[16] = Work_Zone[5]
 20: 0x02A5 [0x02] IF !(ExtData[1]->WorkLocal[15] == 0*) GOTO 0x02C9
 21: 0x02AD [0x02] IF !(ExtData[1]->WorkLocal[16] == 0*) GOTO 0x02BF
 22: 0x02B5 [0x3C] SET_BIT_FLAG_CONDITIONAL(target_work_offset=ExtData[1]->WorkLocal[0], bit_index_work_offset=4*, condition_work_offset=1*)
 23: 0x02BC [0x01] GOTO 0x02C6
 24: 0x02BF [0x3D] CLEAR_BIT_FLAG_CONDITIONAL(target_work_offset=ExtData[1]->WorkLocal[0], bit_index_work_offset=4*, condition_work_offset=1*)

SUBROUTINE_02C6:
 25: 0x02C6 [0x01] GOTO 0x02D0
 26: 0x02C9 [0x3D] CLEAR_BIT_FLAG_CONDITIONAL(target_work_offset=ExtData[1]->WorkLocal[0], bit_index_work_offset=4*, condition_work_offset=1*)

SUBROUTINE_02D0:
 27: 0x02D0 [0x02] IF !(Work_Zone[6] == 0*) GOTO 0x02E2
 28: 0x02D8 [0x3C] SET_BIT_FLAG_CONDITIONAL(target_work_offset=ExtData[1]->WorkLocal[0], bit_index_work_offset=5*, condition_work_offset=1*)
 29: 0x02DF [0x01] GOTO 0x02E9
 30: 0x02E2 [0x3D] CLEAR_BIT_FLAG_CONDITIONAL(target_work_offset=ExtData[1]->WorkLocal[0], bit_index_work_offset=5*, condition_work_offset=1*)

SUBROUTINE_02E9:
 31: 0x02E9 [0x03] Work_Zone[2] = 3300*
 32: 0x02EE [0x03] Work_Zone[3] = 3328*
 33: 0x02F3 [0x03] Work_Zone[4] = 3357*
 34: 0x02F8 [0x24] CREATE_DIALOG(message_id=8079*, default_option=ExtData[1]->WorkLocal[5], option_flags=ExtData[1]->WorkLocal[0])
    → "What do you do? [View the list./Ask about Outer Ra'Kaznar./Ask about $5./Ask about $5./Ask about temporary items/Ask about $5./Leave for now.]"
 35: 0x02FF [0x25] WAIT_DIALOG_SELECT()
 36: 0x0300 [0x02] IF !(Work_Zone[0] == 0*) GOTO 0x0615
 37: 0x0308 [0x03] ExtData[1]->WorkLocal[5] = Work_Zone[0]

SUBROUTINE_030D:
 38: 0x030D [0x03] Work_Zone[2] = ExtData[1]->WorkLocal[10]
 39: 0x0312 [0x03] ExtData[1]->WorkLocal[11] = 0*

SUBROUTINE_0317:
 40: 0x0317 [0x02] IF !(ExtData[1]->WorkLocal[11] >= 15*) GOTO 0x03E5
 41: 0x031F [0x9D] IF (0x0B4E) ExtData[1]->WorkLocal[11] = ExtData[1]->WorkLocal[12] // extra=0x802D
 42: 0x0329 [0x02] IF !(ExtData[1]->WorkLocal[12] == 0*) GOTO 0x0345
 43: 0x0331 [0x3C] SET_BIT_FLAG_CONDITIONAL(target_work_offset=ExtData[1]->WorkLocal[1], bit_index_work_offset=ExtData[1]->WorkLocal[11], condition_work_offset=1*)
 44: 0x0338 [0x9D] Table[0x0BAE] = 4096* // p3=ExtData[1]->WorkLocal[11], p4=0x802D
 45: 0x0342 [0x01] GOTO 0x03DF
 46: 0x0345 [0x9D] IF (0x0B8E) ExtData[1]->WorkLocal[11] = ExtData[1]->WorkLocal[12] // extra=0x802D
 47: 0x034F [0x02] IF !(ExtData[1]->WorkLocal[12] == 0*) GOTO 0x038F
 48: 0x0357 [0x3D] CLEAR_BIT_FLAG_CONDITIONAL(target_work_offset=ExtData[1]->WorkLocal[1], bit_index_work_offset=ExtData[1]->WorkLocal[11], condition_work_offset=1*)
 49: 0x035E [0x9D] IF (0x0B4E) ExtData[1]->WorkLocal[11] = ExtData[1]->WorkLocal[12] // extra=0x802D
 50: 0x0368 [0x9D] Table[0x0BAE] = ExtData[1]->WorkLocal[12] // p3=ExtData[1]->WorkLocal[11], p4=0x802D
 51: 0x0372 [0xD4] MAP_QUERY_WINDOW: Prepare buffer configuration A (buffer=[0B 00 0C 00 9D 0A 6E 0B...])
 52: 0x0390 [0x0E] 0x0C00 |= 0xCE00
 53: 0x0395 [0x03] 0x013D = 0x0B00
 54: 0x039A [0x00] END_REQSTACK()
 55: 0x039B [0x00] END_REQSTACK()

SUBROUTINE_03DF:
 56: 0x03DF [0x0B] ExtData[1]->WorkLocal[11]++
 57: 0x03E2 [0x01] GOTO 0x0317
 58: 0x03E5 [0x3E] IF !(ExtData[1]->WorkLocal[14] bit 10*) GOTO 0x03F6
 59: 0x03EC [0x3D] CLEAR_BIT_FLAG_CONDITIONAL(target_work_offset=ExtData[1]->WorkLocal[1], bit_index_work_offset=15*, condition_work_offset=1*)
 60: 0x03F3 [0x01] GOTO 0x03FD
 61: 0x03F6 [0x3C] SET_BIT_FLAG_CONDITIONAL(target_work_offset=ExtData[1]->WorkLocal[1], bit_index_work_offset=15*, condition_work_offset=1*)

SUBROUTINE_03FD:
 62: 0x03FD [0x3E] IF !(ExtData[1]->WorkLocal[14] bit 24*) GOTO 0x040E
 63: 0x0404 [0x3D] CLEAR_BIT_FLAG_CONDITIONAL(target_work_offset=ExtData[1]->WorkLocal[1], bit_index_work_offset=16*, condition_work_offset=1*)
 64: 0x040B [0x01] GOTO 0x0415
 65: 0x040E [0x3C] SET_BIT_FLAG_CONDITIONAL(target_work_offset=ExtData[1]->WorkLocal[1], bit_index_work_offset=16*, condition_work_offset=1*)

SUBROUTINE_0415:
 66: 0x0415 [0xD4] MAP_QUERY_WINDOW: Test and open query window (flag=0x32, work=[0x0680, 0x0100, 0x2500])
 67: 0x041E [0x02] IF !(Work_Zone[0] == 15*) GOTO 0x0433
 68: 0x0426 [0x03] ExtData[1]->WorkLocal[6] = Work_Zone[0]
 69: 0x042B [0x03] Work_Zone[2] = 0*
 70: 0x0430 [0x01] GOTO 0x04D2
 71: 0x0433 [0x02] IF !(Work_Zone[0] == 16*) GOTO 0x0448
 72: 0x043B [0x03] ExtData[1]->WorkLocal[6] = Work_Zone[0]
 73: 0x0440 [0x03] Work_Zone[2] = 1*
 74: 0x0445 [0x01] GOTO 0x04D2
 75: 0x0448 [0x02] IF !(Work_Zone[0] == 17*) GOTO 0x0456
 76: 0x0450 [0x01] GOTO 0x02E9

SUBROUTINE_04D2:
 77: 0x04D2 [0x02] IF !(Work_Zone[0] < 15*) GOTO 0x0612
 78: 0x04DA [0x02] IF !(Work_Zone[0] > 16*) GOTO 0x0612
 79: 0x04E2 [0x02] IF !(ExtData[1]->WorkLocal[6] == 15*) GOTO 0x04F9
 80: 0x04EA [0x03] Work_Zone[3] = 9927*
 81: 0x04EF [0x03] Work_Zone[4] = 10000*
 82: 0x04F4 [0x03] Work_Zone[1] = 1*
 83: 0x04F9 [0x02] IF !(ExtData[1]->WorkLocal[6] == 16*) GOTO 0x0510
 84: 0x0501 [0x03] Work_Zone[3] = 9928*
 85: 0x0506 [0x03] Work_Zone[4] = 70000*
 86: 0x050B [0x03] Work_Zone[1] = 2*
 87: 0x0510 [0x5B] LOAD_EXT_SCHEDULER: Load scheduler "tlk0" with entities [EventEntity, EventEntity], work=215*
 88: 0x051F [0x1D] PRINT_EVENT_MESSAGE(message_id=8081*)
    → "To reforge empyrean armor to 119[+2/+3], I'll need the 119[+1/+2] version of the empyrean armor piece, $1, and $2 gallimaufry. Would you like to see what the end result will look like?"
 89: 0x0522 [0x23] WAIT_FOR_DIALOG_INTERACTION
 90: 0x0523 [0x5B] LOAD_EXT_SCHEDULER: Load scheduler "tlke" with entities [EventEntity, EventEntity], work=215*
 91: 0x0532 [0x43] SEND_EVENT_UPDATE: Send pending tag to server (packet 0x005B)
 92: 0x0534 [0x43] SEND_EVENT_UPDATE: Check pending flag (skip if not pending)
 93: 0x0536 [0x03] ExtData[1]->WorkLocal[3] = Work_Zone[2]

SUBROUTINE_053B:
 94: 0x053B [0x24] CREATE_DIALOG(message_id=8082*, default_option=ExtData[1]->WorkLocal[8], option_flags=ExtData[1]->WorkLocal[3])
    → "View which? [Boii Armor./Bhikku Attire./Ebers Attire./Wicce Attire./Lethargy Armor./Skulker's Attire./Chevalier's Armor./Heathen's Armor./Nukumi Armor./Fili Attire./Amini Attire./Kasuga Armor./Hattori Garb./Peltast's Armor./Beckoner's Attire./Hashishin Attire./Chasseur's Attire./Karagoz Attire./Maculele Attire./Arbatel Attire./Azimuth Attire./Erilaz Attire./Back.]"
 95: 0x0542 [0x25] WAIT_DIALOG_SELECT()
 96: 0x0543 [0x02] IF !(Work_Zone[0] == 22*) GOTO 0x0551
 97: 0x054B [0x01] GOTO 0x030D

SUBROUTINE_0556:
 98: 0x0556 [0x02] IF !(Work_Zone[0] < 0*) GOTO 0x0612
 99: 0x055E [0x02] IF !(Work_Zone[0] > 21*) GOTO 0x0612
100: 0x0566 [0x02] IF !(ExtData[1]->WorkLocal[6] == 15*) GOTO 0x05A0
101: 0x056E [0x9D] IF (0x0BFE) Work_Zone[0] = Work_Zone[2] // extra=0x803E
102: 0x0578 [0x9D] IF (0x0C2E) Work_Zone[0] = Work_Zone[3] // extra=0x803E
103: 0x0582 [0x9D] IF (0x0C5E) Work_Zone[0] = Work_Zone[4] // extra=0x803E
104: 0x058C [0x9D] IF (0x0C8E) Work_Zone[0] = Work_Zone[5] // extra=0x803E
105: 0x0596 [0x9D] IF (0x0CBE) Work_Zone[0] = Work_Zone[6] // extra=0x803E
106: 0x05A0 [0x02] IF !(ExtData[1]->WorkLocal[6] == 16*) GOTO 0x05DA
107: 0x05A8 [0x9D] IF (0x0CEE) Work_Zone[0] = Work_Zone[2] // extra=0x803E
108: 0x05B2 [0x9D] IF (0x0D1E) Work_Zone[0] = Work_Zone[3] // extra=0x803E
109: 0x05BC [0x9D] IF (0x0D4E) Work_Zone[0] = Work_Zone[4] // extra=0x803E
110: 0x05C6 [0x9D] IF (0x0D7E) Work_Zone[0] = Work_Zone[5] // extra=0x803E
111: 0x05D0 [0x9D] IF (0x0DAE) Work_Zone[0] = Work_Zone[6] // extra=0x803E
112: 0x05DA [0xD4] MAP_QUERY_WINDOW: Prepare buffer configuration A (buffer=[03 80 02 10 D4 03 00 80...])
113: 0x05F8 [0xD4] MAP_QUERY_WINDOW: Test and open query window (flag=0x41, work=[0x0980, 0x0300, 0x2580])
114: 0x0601 [0x02] IF !(Work_Zone[0] == 5*) GOTO 0x060F
115: 0x0609 [0x01] GOTO 0x053B

SUBROUTINE_0612:
116: 0x0612 [0x01] GOTO 0x09A8
117: 0x0615 [0x02] IF !(Work_Zone[0] == 1*) GOTO 0x0682
118: 0x061D [0x03] Work_Zone[2] = 3300*
119: 0x0622 [0x03] Work_Zone[3] = 3301*
120: 0x0627 [0x03] ExtData[1]->WorkLocal[5] = Work_Zone[0]
121: 0x062C [0x5B] LOAD_EXT_SCHEDULER: Load scheduler "tlk0" with entities [EventEntity, EventEntity], work=215*
122: 0x063B [0x1D] PRINT_EVENT_MESSAGE(message_id=8059*)
    → "I need you to take the $3 and head to the diaphanous transposer in northwestern Kamihr Drifts (F-6). From there, you can teleport to Outer Ra'Kaznar."
123: 0x063E [0x23] WAIT_FOR_DIALOG_INTERACTION
124: 0x063F [0x1D] PRINT_EVENT_MESSAGE(message_id=8060*)
    → "That's where you can find all the gallimaufry I need."
125: 0x0642 [0x23] WAIT_FOR_DIALOG_INTERACTION
126: 0x0643 [0x1D] PRINT_EVENT_MESSAGE(message_id=8061*)
    → "This Outer Ra'Kaznar is a little different from the one you may be used to, so take care."
127: 0x0646 [0x23] WAIT_FOR_DIALOG_INTERACTION
128: 0x0647 [0x1D] PRINT_EVENT_MESSAGE(message_id=8062*)
    → "As soon as you enter Outer Ra'Kaznar, your $3 will lose its potency and transform into $6."
129: 0x064A [0x23] WAIT_FOR_DIALOG_INTERACTION
130: 0x064B [0x1D] PRINT_EVENT_MESSAGE(message_id=8063*)
    → "Fear not. The $3 will turn back into $6 if you approach the diaphanous transposer after 20 hours (Earth time) have elapsed."
131: 0x064E [0x23] WAIT_FOR_DIALOG_INTERACTION
132: 0x064F [0x1D] PRINT_EVENT_MESSAGE(message_id=8064*)
    → "Be aware that only a total of six people can teleport into Outer Ra'Kaznar at any given time."
133: 0x0652 [0x23] WAIT_FOR_DIALOG_INTERACTION
134: 0x0653 [0x53] WAIT_SCHEDULER_TASK: Wait for scheduler "tlk1" with entities [EventEntity, EventEntity]
135: 0x0660 [0x5B] LOAD_EXT_SCHEDULER: Load scheduler "tlke" with entities [EventEntity, EventEntity], work=215*
136: 0x066F [0x53] WAIT_SCHEDULER_TASK: Wait for scheduler "tlke" with entities [EventEntity, EventEntity]
137: 0x067C [0x01] GOTO 0x02E9

SUBROUTINE_06B0:
138: 0x06B0 [0x01] GOTO 0x02E9

SUBROUTINE_0738:
139: 0x0738 [0x01] GOTO 0x0752
140: 0x073B [0x02] IF !(Work_Zone[2] == 3*) GOTO 0x0752
141: 0x0743 [0x03] Work_Zone[2] = 3328*
142: 0x0748 [0x1D] PRINT_EVENT_MESSAGE(message_id=8093*)
    → "You can't use the $3 for another $1 second[/s] (Earth time)."
143: 0x074B [0x23] WAIT_FOR_DIALOG_INTERACTION
144: 0x074C [0x01] GOTO 0x02E9

SUBROUTINE_0752:
145: 0x0752 [0x01] GOTO 0x09A8
146: 0x0755 [0x02] IF !(Work_Zone[0] == 4*) GOTO 0x0910
147: 0x075D [0x03] ExtData[1]->WorkLocal[5] = Work_Zone[0]
148: 0x0762 [0x03] ExtData[1]->WorkLocal[18] = 0*
149: 0x0767 [0x02] IF !(ExtData[1]->WorkLocal[15] == 0*) GOTO 0x077D
150: 0x076F [0x0B] ExtData[1]->WorkLocal[18]++
151: 0x0772 [0x02] IF !(ExtData[1]->WorkLocal[16] == 0*) GOTO 0x077D
152: 0x077A [0x0B] ExtData[1]->WorkLocal[18]++
153: 0x077D [0x5B] LOAD_EXT_SCHEDULER: Load scheduler "tlk1" with entities [EventEntity, EventEntity], work=215*
154: 0x078C [0x1D] PRINT_EVENT_MESSAGE(message_id=8099*)
    → "Here are the temporary items you currently possess."
155: 0x078F [0x23] WAIT_FOR_DIALOG_INTERACTION
156: 0x0790 [0x5B] LOAD_EXT_SCHEDULER: Load scheduler "tlk0" with entities [EventEntity, EventEntity], work=215*

SUBROUTINE_079F:
157: 0x079F [0x03] ExtData[1]->WorkLocal[17] = 0*
158: 0x07A4 [0x02] IF !(ExtData[1]->WorkLocal[18] == 0*) GOTO 0x082E
159: 0x07AC [0x02] IF !(ExtData[1]->WorkLocal[16] == 0*) GOTO 0x07BE
160: 0x07B4 [0x3C] SET_BIT_FLAG_CONDITIONAL(target_work_offset=ExtData[1]->WorkLocal[17], bit_index_work_offset=20*, condition_work_offset=1*)
161: 0x07BB [0x01] GOTO 0x07C5
162: 0x07BE [0x3D] CLEAR_BIT_FLAG_CONDITIONAL(target_work_offset=ExtData[1]->WorkLocal[17], bit_index_work_offset=20*, condition_work_offset=1*)

SUBROUTINE_07C5:
163: 0x07C5 [0x3C] SET_BIT_FLAG_CONDITIONAL(target_work_offset=ExtData[1]->WorkLocal[17], bit_index_work_offset=21*, condition_work_offset=1*)
164: 0x07CC [0x03] ExtData[1]->WorkLocal[11] = 0*
165: 0x07D1 [0x03] ExtData[1]->WorkLocal[12] = 0*
166: 0x07D6 [0x02] IF !(ExtData[1]->WorkLocal[11] > 19*) GOTO 0x082B
167: 0x07DE [0x3E] IF !(ExtData[1]->WorkLocal[15] bit ExtData[1]->WorkLocal[11]) GOTO 0x0814
168: 0x07E5 [0x9D] IF (0x107E) ExtData[1]->WorkLocal[11] = ExtData[1]->WorkLocal[12] // extra=0x8049
169: 0x07EF [0x02] IF !(ExtData[1]->WorkLocal[12] == 0*) GOTO 0x0801
170: 0x07F7 [0x3C] SET_BIT_FLAG_CONDITIONAL(target_work_offset=ExtData[1]->WorkLocal[17], bit_index_work_offset=ExtData[1]->WorkLocal[11], condition_work_offset=1*)
171: 0x07FE [0x01] GOTO 0x0811
172: 0x0801 [0x9D] Table[0x0BAE] = ExtData[1]->WorkLocal[12] // p3=ExtData[1]->WorkLocal[11], p4=0x8049
173: 0x080B [0xD4] MAP_QUERY_WINDOW: Prepare buffer configuration A (buffer=[0B 00 0C 00 01 25 08 9D...])
174: 0x0829 [0xD6] WAIT_LOAD_SCHEDULER_ALT6: Wait for scheduler 0x113C08B8 with entities [Unknown NPC (ID: 302123217/0x120208D1), Unknown NPC (ID: 2155872256/0x80800000)], work=0x0107
175: 0x0838 [0x00] END_REQSTACK()
176: 0x0839 [0x49] Unknown NPC (ID: 41943168/0x02800080) (No speaker name) [ExtData[1]->WorkLocal[15]]:
177: 0x0840 [0x03] 0x80 = 0x084F
178: 0x0845 [0x3C] SET_BIT_FLAG_CONDITIONAL(target_work_offset=ExtData[1]->WorkLocal[17], bit_index_work_offset=21*, condition_work_offset=1*)
179: 0x084C [0x01] GOTO 0x0856

SUBROUTINE_0856:
180: 0x0856 [0x03] ExtData[1]->WorkLocal[11] = 0*
181: 0x085B [0x03] ExtData[1]->WorkLocal[12] = 0*
182: 0x0860 [0x02] IF !(ExtData[1]->WorkLocal[11] > 19*) GOTO 0x08B5
183: 0x0868 [0x3E] IF !(ExtData[1]->WorkLocal[16] bit ExtData[1]->WorkLocal[11]) GOTO 0x089E
184: 0x086F [0x9D] IF (0x10AE) ExtData[1]->WorkLocal[11] = ExtData[1]->WorkLocal[12] // extra=0x8049
185: 0x0879 [0x02] IF !(ExtData[1]->WorkLocal[12] == 0*) GOTO 0x088B
186: 0x0881 [0x3C] SET_BIT_FLAG_CONDITIONAL(target_work_offset=ExtData[1]->WorkLocal[17], bit_index_work_offset=ExtData[1]->WorkLocal[11], condition_work_offset=1*)
187: 0x0888 [0x01] GOTO 0x089B
188: 0x088B [0x9D] Table[0x0BAE] = ExtData[1]->WorkLocal[12] // p3=ExtData[1]->WorkLocal[11], p4=0x8049
189: 0x0895 [0xD4] MAP_QUERY_WINDOW: Prepare buffer configuration A (buffer=[0B 00 0C 00 01 AF 08 9D...])
190: 0x08B3 [0x60] ADJUST_RENDER_FLAGS1_MULTI: Deprecated mode 0x8 (no operation)
191: 0x08B5 [0x01] GOTO 0x08D1

SUBROUTINE_08D1:
192: 0x08D1 [0xD4] MAP_QUERY_WINDOW: Test and open query window (flag=0x4B, work=[0x0380, 0x1180, 0x2500])
193: 0x08DA [0x02] IF !(Work_Zone[0] == 20*) GOTO 0x08EB
194: 0x08E2 [0x0B] ExtData[1]->WorkLocal[18]++
195: 0x08E5 [0x01] GOTO 0x079F

SUBROUTINE_0992:
196: 0x0992 [0x01] GOTO 0x0995

SUBROUTINE_0995:
197: 0x0995 [0x01] GOTO 0x09A8
198: 0x0998 [0x02] IF !(Work_Zone[0] == 6*) GOTO 0x09A8
199: 0x09A0 [0x03] Work_Zone[1] = 0*
200: 0x09A5 [0x01] GOTO 0x09A8

SUBROUTINE_09A8:
201: 0x09A8 [0x21] END_EVENT
202: 0x09A9 [0x00] END_REQSTACK()
```

#### Data or dead code:

```
# Dead code (unreachable instructions):
     0x039C [0x80] LOAD_WAIT(entity=Unknown NPC (ID: 189663901/0x0B4E0A9D))
     0x03A1 [0x0C] 0x0B00--
     0x03A4 [0x00] END_REQSTACK()
     0x03A5 [0x2D] CREATE_ZONE_SCHEDULER_TASK: Create scheduler 0xD4802D00 with entities [Unknown NPC (ID: 2920258944/0xAE0F9D80), Unknown NPC (ID: 184552459/0x0B000C0B)]
     0x03B2 [0x03] ExtData[1]->WorkLocal[11] = ExtData[1]->WorkLocal[12]
     0x03B7 [0x9D] IF (0x0B6E) ExtData[1]->WorkLocal[11] = ExtData[1]->WorkLocal[12] // extra=0x802D
     0x03C1 [0x9D] Table[0x0BDE] = ExtData[1]->WorkLocal[12] // p3=ExtData[1]->WorkLocal[11], p4=0x802D
     0x03CB [0x01] GOTO 0x03DF
     0x03CE [0x3C] SET_BIT_FLAG_CONDITIONAL(target_work_offset=ExtData[1]->WorkLocal[1], bit_index_work_offset=ExtData[1]->WorkLocal[11], condition_work_offset=1*)
     0x03D5 [0x9D] Table[0x0BAE] = 4096* // p3=ExtData[1]->WorkLocal[11], p4=0x802D
# Dead code (unreachable instructions):
     0x0453 [0x01] GOTO 0x04D2
     0x04C1 [0x01] GOTO 0x04D2
     0x04CF [0x01] GOTO 0x04D2
# Dead code (unreachable instructions):
     0x054E [0x01] GOTO 0x0556
# Dead code (unreachable instructions):
     0x060C [0x01] GOTO 0x0612
# Dead code (unreachable instructions):
     0x067F [0x01] GOTO 0x09A8
# Dead code (unreachable instructions):
     0x06B3 [0x01] GOTO 0x09A8
     0x06E0 [0x01] GOTO 0x0752
     0x0735 [0x01] GOTO 0x0738
# Dead code (unreachable instructions):
     0x074F [0x01] GOTO 0x0752
# Dead code (unreachable instructions):
     0x084F [0x3D] CLEAR_BIT_FLAG_CONDITIONAL(target_work_offset=ExtData[1]->WorkLocal[17], bit_index_work_offset=21*, condition_work_offset=1*)
# Dead code (unreachable instructions):
     0x08B8 [0x02] IF !(ExtData[1]->WorkLocal[18] == 2*) GOTO 0x08D1
     0x08C0 [0x3D] CLEAR_BIT_FLAG_CONDITIONAL(target_work_offset=ExtData[1]->WorkLocal[17], bit_index_work_offset=20*, condition_work_offset=1*)
     0x08C7 [0x3D] CLEAR_BIT_FLAG_CONDITIONAL(target_work_offset=ExtData[1]->WorkLocal[17], bit_index_work_offset=21*, condition_work_offset=1*)
     0x08CE [0x01] GOTO 0x08D1
# Dead code (unreachable instructions):
     0x08E8 [0x01] GOTO 0x090D
     0x08F9 [0x01] GOTO 0x090D
     0x0907 [0x01] GOTO 0x090D
     0x090D [0x01] GOTO 0x09A8
     0x093A [0x01] GOTO 0x0995
     0x098F [0x01] GOTO 0x0992
```

### Event 72

#### Metadata

| Field        | Value    |
|--------------|----------|
| Entrypoint   | 0x09AA   |
| Data Size    | 70 bytes |
| Instructions | 10       |

```
      00 01 02 03 04 05 06 07  08 09 0A 0B 0C 0D 0E 0F
      -- -- -- -- -- -- -- --  -- -- -- -- -- -- -- --
09A0:                                1E F0 FF FF 7F 1C            ......
09B0: 00 80 5B 04 80 F8 FF FF  7F F8 FF FF 7F 74 6C 6B  ..[..........tlk
09C0: 30 1D 4D 80 23 53 F8 FF  FF 7F F8 FF FF 7F 74 6C  0.M.#S........tl
09D0: 6B 30 5B 04 80 F8 FF FF  7F F8 FF FF 7F 74 6C 6B  k0[..........tlk
09E0: 65 53 F8 FF FF 7F F8 FF  FF 7F 74 6C 6B 65 21 00  eS........tlke!.
```

#### Opcodes

```
  0: 0x09AA [0x1E] EventEntity looks at LocalPlayer and starts talking
  1: 0x09AF [0x1C] WAIT(1* ticks)
  2: 0x09B2 [0x5B] LOAD_EXT_SCHEDULER: Load scheduler "tlk0" with entities [EventEntity, EventEntity], work=215*
  3: 0x09C1 [0x1D] PRINT_EVENT_MESSAGE(message_id=8043*)
    → "Hm? Oh, hello. And...goodbye."
  4: 0x09C4 [0x23] WAIT_FOR_DIALOG_INTERACTION
  5: 0x09C5 [0x53] WAIT_SCHEDULER_TASK: Wait for scheduler "tlk0" with entities [EventEntity, EventEntity]
  6: 0x09D2 [0x5B] LOAD_EXT_SCHEDULER: Load scheduler "tlke" with entities [EventEntity, EventEntity], work=215*
  7: 0x09E1 [0x53] WAIT_SCHEDULER_TASK: Wait for scheduler "tlke" with entities [EventEntity, EventEntity]
  8: 0x09EE [0x21] END_EVENT
  9: 0x09EF [0x00] END_REQSTACK()
```

### Event 73

#### Metadata

| Field        | Value    |
|--------------|----------|
| Entrypoint   | 0x09F0   |
| Data Size    | 70 bytes |
| Instructions | 10       |

```
      00 01 02 03 04 05 06 07  08 09 0A 0B 0C 0D 0E 0F
      -- -- -- -- -- -- -- --  -- -- -- -- -- -- -- --
09F0: 1E F0 FF FF 7F 1C 00 80  5B 04 80 F8 FF FF 7F F8  ........[.......
0A00: FF FF 7F 74 6C 6B 31 1D  42 80 23 53 F8 FF FF 7F  ...tlk1.B.#S....
0A10: F8 FF FF 7F 74 6C 6B 31  5B 04 80 F8 FF FF 7F F8  ....tlk1[.......
0A20: FF FF 7F 74 6C 6B 65 53  F8 FF FF 7F F8 FF FF 7F  ...tlkeS........
0A30: 74 6C 6B 65 21 00                                 tlke!.          
```

#### Opcodes

```
  0: 0x09F0 [0x1E] EventEntity looks at LocalPlayer and starts talking
  1: 0x09F5 [0x1C] WAIT(1* ticks)
  2: 0x09F8 [0x5B] LOAD_EXT_SCHEDULER: Load scheduler "tlk1" with entities [EventEntity, EventEntity], work=215*
  3: 0x0A07 [0x1D] PRINT_EVENT_MESSAGE(message_id=8067*)
    → "Need a refresher? The diaphanous transposer is in Kamihr Drifts (F-6)."
  4: 0x0A0A [0x23] WAIT_FOR_DIALOG_INTERACTION
  5: 0x0A0B [0x53] WAIT_SCHEDULER_TASK: Wait for scheduler "tlk1" with entities [EventEntity, EventEntity]
  6: 0x0A18 [0x5B] LOAD_EXT_SCHEDULER: Load scheduler "tlke" with entities [EventEntity, EventEntity], work=215*
  7: 0x0A27 [0x53] WAIT_SCHEDULER_TASK: Wait for scheduler "tlke" with entities [EventEntity, EventEntity]
  8: 0x0A34 [0x21] END_EVENT
  9: 0x0A35 [0x00] END_REQSTACK()
```

### Event 74

#### Metadata

| Field        | Value    |
|--------------|----------|
| Entrypoint   | 0x0A36   |
| Data Size    | 70 bytes |
| Instructions | 10       |

```
      00 01 02 03 04 05 06 07  08 09 0A 0B 0C 0D 0E 0F
      -- -- -- -- -- -- -- --  -- -- -- -- -- -- -- --
0A30:                   1E F0  FF FF 7F 1C 00 80 5B 04        ........[.
0A40: 80 F8 FF FF 7F F8 FF FF  7F 74 6C 6B 31 1D 4E 80  .........tlk1.N.
0A50: 23 53 F8 FF FF 7F F8 FF  FF 7F 74 6C 6B 31 5B 04  #S........tlk1[.
0A60: 80 F8 FF FF 7F F8 FF FF  7F 74 6C 6B 65 53 F8 FF  .........tlkeS..
0A70: FF 7F F8 FF FF 7F 74 6C  6B 65 21 00              ......tlke!.    
```

#### Opcodes

```
  0: 0x0A36 [0x1E] EventEntity looks at LocalPlayer and starts talking
  1: 0x0A3B [0x1C] WAIT(1* ticks)
  2: 0x0A3E [0x5B] LOAD_EXT_SCHEDULER: Load scheduler "tlk1" with entities [EventEntity, EventEntity], work=215*
  3: 0x0A4D [0x1D] PRINT_EVENT_MESSAGE(message_id=8084*)
    → "It'll take a little while to reforge your $0. Jeuno wasn't built in a day...but this armor will be, so come back tomorrow."
  4: 0x0A50 [0x23] WAIT_FOR_DIALOG_INTERACTION
  5: 0x0A51 [0x53] WAIT_SCHEDULER_TASK: Wait for scheduler "tlk1" with entities [EventEntity, EventEntity]
  6: 0x0A5E [0x5B] LOAD_EXT_SCHEDULER: Load scheduler "tlke" with entities [EventEntity, EventEntity], work=215*
  7: 0x0A6D [0x53] WAIT_SCHEDULER_TASK: Wait for scheduler "tlke" with entities [EventEntity, EventEntity]
  8: 0x0A7A [0x21] END_EVENT
  9: 0x0A7B [0x00] END_REQSTACK()
```

### Event 75

#### Metadata

| Field        | Value    |
|--------------|----------|
| Entrypoint   | 0x0A7C   |
| Data Size    | 70 bytes |
| Instructions | 10       |

```
      00 01 02 03 04 05 06 07  08 09 0A 0B 0C 0D 0E 0F
      -- -- -- -- -- -- -- --  -- -- -- -- -- -- -- --
0A70:                                      1E F0 FF FF              ....
0A80: 7F 1C 00 80 5B 04 80 F8  FF FF 7F F8 FF FF 7F 74  ....[..........t
0A90: 6C 6B 31 1D 4F 80 23 53  F8 FF FF 7F F8 FF FF 7F  lk1.O.#S........
0AA0: 74 6C 6B 31 5B 04 80 F8  FF FF 7F F8 FF FF 7F 74  tlk1[..........t
0AB0: 6C 6B 65 53 F8 FF FF 7F  F8 FF FF 7F 74 6C 6B 65  lkeS........tlke
0AC0: 21 00                                             !.              
```

#### Opcodes

```
  0: 0x0A7C [0x1E] EventEntity looks at LocalPlayer and starts talking
  1: 0x0A81 [0x1C] WAIT(1* ticks)
  2: 0x0A84 [0x5B] LOAD_EXT_SCHEDULER: Load scheduler "tlk1" with entities [EventEntity, EventEntity], work=215*
  3: 0x0A93 [0x1D] PRINT_EVENT_MESSAGE(message_id=8086*)
    → "The equipment you ordered is ready! Here you are!"
  4: 0x0A96 [0x23] WAIT_FOR_DIALOG_INTERACTION
  5: 0x0A97 [0x53] WAIT_SCHEDULER_TASK: Wait for scheduler "tlk1" with entities [EventEntity, EventEntity]
  6: 0x0AA4 [0x5B] LOAD_EXT_SCHEDULER: Load scheduler "tlke" with entities [EventEntity, EventEntity], work=215*
  7: 0x0AB3 [0x53] WAIT_SCHEDULER_TASK: Wait for scheduler "tlke" with entities [EventEntity, EventEntity]
  8: 0x0AC0 [0x21] END_EVENT
  9: 0x0AC1 [0x00] END_REQSTACK()
```

### Event 76

#### Metadata

| Field        | Value    |
|--------------|----------|
| Entrypoint   | 0x0AC2   |
| Data Size    | 70 bytes |
| Instructions | 10       |

```
      00 01 02 03 04 05 06 07  08 09 0A 0B 0C 0D 0E 0F
      -- -- -- -- -- -- -- --  -- -- -- -- -- -- -- --
0AC0:       1E F0 FF FF 7F 1C  00 80 5B 04 80 F8 FF FF    ........[.....
0AD0: 7F F8 FF FF 7F 74 6C 6B  31 1D 50 80 23 53 F8 FF  .....tlk1.P.#S..
0AE0: FF 7F F8 FF FF 7F 74 6C  6B 31 5B 04 80 F8 FF FF  ......tlk1[.....
0AF0: 7F F8 FF FF 7F 74 6C 6B  65 53 F8 FF FF 7F F8 FF  .....tlkeS......
0B00: FF 7F 74 6C 6B 65 21 00                           ..tlke!.        
```

#### Opcodes

```
  0: 0x0AC2 [0x1E] EventEntity looks at LocalPlayer and starts talking
  1: 0x0AC7 [0x1C] WAIT(1* ticks)
  2: 0x0ACA [0x5B] LOAD_EXT_SCHEDULER: Load scheduler "tlk1" with entities [EventEntity, EventEntity], work=215*
  3: 0x0AD9 [0x1D] PRINT_EVENT_MESSAGE(message_id=8085*)
    → "My contact is hard at work. You'll need to come back a little bit later."
  4: 0x0ADC [0x23] WAIT_FOR_DIALOG_INTERACTION
  5: 0x0ADD [0x53] WAIT_SCHEDULER_TASK: Wait for scheduler "tlk1" with entities [EventEntity, EventEntity]
  6: 0x0AEA [0x5B] LOAD_EXT_SCHEDULER: Load scheduler "tlke" with entities [EventEntity, EventEntity], work=215*
  7: 0x0AF9 [0x53] WAIT_SCHEDULER_TASK: Wait for scheduler "tlke" with entities [EventEntity, EventEntity]
  8: 0x0B06 [0x21] END_EVENT
  9: 0x0B07 [0x00] END_REQSTACK()
```

### Event 65535.1

#### Metadata

| Field        | Value      |
|--------------|------------|
| Entrypoint   | 0x0B08     |
| Data Size    | 1478 bytes |
| Instructions | 10         |

```
      00 01 02 03 04 05 06 07  08 09 0A 0B 0C 0D 0E 0F
      -- -- -- -- -- -- -- --  -- -- -- -- -- -- -- --
0B00:                          1E F0 FF FF 7F 1C 00 80          ........
0B10: 5B 04 80 F8 FF FF 7F F8  FF FF 7F 74 6C 6B 31 1D  [..........tlk1.
0B20: 50 80 23 53 F8 FF FF 7F  F8 FF FF 7F 74 6C 6B 31  P.#S........tlk1
0B30: 5B 04 80 F8 FF FF 7F F8  FF FF 7F 74 6C 6B 65 53  [..........tlkeS
0B40: F8 FF FF 7F F8 FF FF 7F  74 6C 6B 65 21 00 37 80  ........tlke!.7.
0B50: 39 80 51 80 03 80 03 80  03 80 03 80 03 80 03 80  9.Q.............
0B60: 03 80 03 80 03 80 03 80  03 80 03 80 03 80 52 80  ..............R.
0B70: 53 80 54 80 03 80 03 80  03 80 03 80 03 80 03 80  S.T.............
0B80: 03 80 03 80 03 80 03 80  03 80 03 80 03 80 2F 80  ............../.
0B90: 30 80 2F 80 03 80 03 80  03 80 03 80 03 80 03 80  0./.............
0BA0: 03 80 03 80 03 80 03 80  03 80 03 80 03 80 03 10  ................
0BB0: 04 10 05 10 06 10 07 10  08 10 09 10 00 17 01 17  ................
0BC0: 02 17 03 17 04 17 05 17  06 17 07 17 08 17 09 17  ................
0BD0: 0A 17 0B 17 0C 17 0D 17  0E 17 0F 17 10 17 08 17  ................
0BE0: 09 17 0A 17 0B 17 0C 17  0D 17 0E 17 0F 17 10 17  ................
0BF0: 11 17 12 17 13 17 14 17  15 17 16 17 17 17 55 80  ..............U.
0C00: 56 80 57 80 58 80 59 80  5A 80 5B 80 5C 80 5D 80  V.W.X.Y.Z.[.\.].
0C10: 5E 80 5F 80 60 80 61 80  62 80 63 80 64 80 65 80  ^._.`.a.b.c.d.e.
0C20: 66 80 67 80 68 80 69 80  6A 80 03 80 03 80 6B 80  f.g.h.i.j.....k.
0C30: 6C 80 6D 80 6E 80 6F 80  70 80 71 80 72 80 73 80  l.m.n.o.p.q.r.s.
0C40: 74 80 75 80 76 80 77 80  78 80 79 80 7A 80 7B 80  t.u.v.w.x.y.z.{.
0C50: 7C 80 7D 80 7E 80 7F 80  80 80 03 80 03 80 81 80  |.}.~...........
0C60: 82 80 83 80 84 80 85 80  86 80 87 80 88 80 89 80  ................
0C70: 8A 80 8B 80 8C 80 8D 80  8E 80 8F 80 90 80 91 80  ................
0C80: 92 80 93 80 94 80 95 80  96 80 03 80 03 80 97 80  ................
0C90: 98 80 99 80 9A 80 9B 80  9C 80 9D 80 9E 80 9F 80  ................
0CA0: A0 80 A1 80 A2 80 A3 80  A4 80 A5 80 A6 80 A7 80  ................
0CB0: A8 80 A9 80 AA 80 AB 80  AC 80 03 80 03 80 AD 80  ................
0CC0: AE 80 AF 80 B0 80 B1 80  B2 80 B3 80 B4 80 B5 80  ................
0CD0: B6 80 B7 80 B8 80 B9 80  BA 80 BB 80 BC 80 BD 80  ................
0CE0: BE 80 BF 80 C0 80 C1 80  C2 80 03 80 03 80 C3 80  ................
0CF0: C4 80 C5 80 C6 80 C7 80  C8 80 C9 80 CA 80 CB 80  ................
0D00: CC 80 CD 80 CE 80 CF 80  D0 80 D1 80 D2 80 D3 80  ................
0D10: D4 80 D5 80 D6 80 D7 80  D8 80 03 80 03 80 D9 80  ................
0D20: DA 80 DB 80 DC 80 DD 80  DE 80 DF 80 E0 80 E1 80  ................
0D30: E2 80 E3 80 E4 80 E5 80  E6 80 E7 80 E8 80 E9 80  ................
0D40: EA 80 EB 80 EC 80 ED 80  EE 80 03 80 03 80 EF 80  ................
0D50: F0 80 F1 80 F2 80 F3 80  F4 80 F5 80 F6 80 F7 80  ................
0D60: F8 80 F9 80 FA 80 FB 80  FC 80 FD 80 FE 80 FF 80  ................
0D70: 00 81 01 81 02 81 03 81  04 81 03 80 03 80 05 81  ................
0D80: 06 81 07 81 08 81 09 81  0A 81 0B 81 0C 81 0D 81  ................
0D90: 0E 81 0F 81 10 81 11 81  12 81 13 81 14 81 15 81  ................
0DA0: 16 81 17 81 18 81 19 81  1A 81 03 80 03 80 1B 81  ................
0DB0: 1C 81 1D 81 1E 81 1F 81  20 81 21 81 22 81 23 81  ........ .!.".#.
0DC0: 24 81 25 81 26 81 27 81  28 81 29 81 2A 81 2B 81  $.%.&.'.(.).*.+.
0DD0: 2C 81 2D 81 2E 81 2F 81  30 81 03 80 03 80 31 81  ,.-.../.0.....1.
0DE0: 32 81 33 81 34 81 35 81  36 81 37 81 38 81 39 81  2.3.4.5.6.7.8.9.
0DF0: 3A 81 3B 81 3C 81 3D 81  3E 81 3F 81 40 81 41 81  :.;.<.=.>.?.@.A.
0E00: 42 81 43 81 44 81 45 81  46 81 47 81 48 81 49 81  B.C.D.E.F.G.H.I.
0E10: 4A 81 4B 81 4C 81 4D 81  4E 81 4F 81 50 81 51 81  J.K.L.M.N.O.P.Q.
0E20: 52 81 53 81 54 81 55 81  56 81 57 81 58 81 59 81  R.S.T.U.V.W.X.Y.
0E30: 5A 81 5B 81 5C 81 5D 81  5E 81 5F 81 60 81 61 81  Z.[.\.].^._.`.a.
0E40: 62 81 63 81 64 81 65 81  66 81 67 81 68 81 69 81  b.c.d.e.f.g.h.i.
0E50: 6A 81 6B 81 6C 81 6D 81  6E 81 6F 81 70 81 71 81  j.k.l.m.n.o.p.q.
0E60: 72 81 73 81 74 81 75 81  76 81 77 81 78 81 79 81  r.s.t.u.v.w.x.y.
0E70: 7A 81 7B 81 7C 81 7D 81  7E 81 7F 81 80 81 81 81  z.{.|.}.~.......
0E80: 82 81 83 81 84 81 85 81  86 81 87 81 88 81 89 81  ................
0E90: 8A 81 8B 81 8C 81 8D 81  8E 81 8F 81 90 81 91 81  ................
0EA0: 92 81 93 81 94 81 95 81  96 81 97 81 98 81 99 81  ................
0EB0: 9A 81 9B 81 9C 81 9D 81  9E 81 03 80 03 80 55 80  ..............U.
0EC0: 56 80 57 80 58 80 59 80  5A 80 5B 80 5C 80 5D 80  V.W.X.Y.Z.[.\.].
0ED0: 5E 80 5F 80 60 80 61 80  62 80 63 80 64 80 65 80  ^._.`.a.b.c.d.e.
0EE0: 66 80 67 80 68 80 69 80  6A 80 6B 80 6C 80 6D 80  f.g.h.i.j.k.l.m.
0EF0: 6E 80 6F 80 70 80 71 80  72 80 73 80 74 80 75 80  n.o.p.q.r.s.t.u.
0F00: 76 80 77 80 78 80 79 80  7A 80 7B 80 7C 80 7D 80  v.w.x.y.z.{.|.}.
0F10: 7E 80 7F 80 80 80 81 80  82 80 83 80 84 80 85 80  ~...............
0F20: 86 80 87 80 88 80 89 80  8A 80 8B 80 8C 80 8D 80  ................
0F30: 8E 80 8F 80 90 80 91 80  92 80 93 80 94 80 95 80  ................
0F40: 96 80 97 80 98 80 99 80  9A 80 9B 80 9C 80 9D 80  ................
0F50: 9E 80 9F 80 A0 80 A1 80  A2 80 A3 80 A4 80 A5 80  ................
0F60: A6 80 A7 80 A8 80 A9 80  AA 80 AB 80 AC 80 AD 80  ................
0F70: AE 80 AF 80 B0 80 B1 80  B2 80 B3 80 B4 80 B5 80  ................
0F80: B6 80 B7 80 B8 80 B9 80  BA 80 BB 80 BC 80 BD 80  ................
0F90: BE 80 BF 80 C0 80 C1 80  C2 80 03 80 03 80 C3 80  ................
0FA0: C4 80 C5 80 C6 80 C7 80  C8 80 C9 80 CA 80 CB 80  ................
0FB0: CC 80 CD 80 CE 80 CF 80  D0 80 D1 80 D2 80 D3 80  ................
0FC0: D4 80 D5 80 D6 80 D7 80  D8 80 D9 80 DA 80 DB 80  ................
0FD0: DC 80 DD 80 DE 80 DF 80  E0 80 E1 80 E2 80 E3 80  ................
0FE0: E4 80 E5 80 E6 80 E7 80  E8 80 E9 80 EA 80 EB 80  ................
0FF0: EC 80 ED 80 EE 80 EF 80  F0 80 F1 80 F2 80 F3 80  ................
1000: F4 80 F5 80 F6 80 F7 80  F8 80 F9 80 FA 80 FB 80  ................
1010: FC 80 FD 80 FE 80 FF 80  00 81 01 81 02 81 03 81  ................
1020: 04 81 05 81 06 81 07 81  08 81 09 81 0A 81 0B 81  ................
1030: 0C 81 0D 81 0E 81 0F 81  10 81 11 81 12 81 13 81  ................
1040: 14 81 15 81 16 81 17 81  18 81 19 81 1A 81 1B 81  ................
1050: 1C 81 1D 81 1E 81 1F 81  20 81 21 81 22 81 23 81  ........ .!.".#.
1060: 24 81 25 81 26 81 27 81  28 81 29 81 2A 81 2B 81  $.%.&.'.(.).*.+.
1070: 2C 81 2D 81 2E 81 2F 81  30 81 03 80 03 80 9F 81  ,.-.../.0.......
1080: A0 81 A1 81 A2 81 A3 81  A4 81 A5 81 A6 81 A7 81  ................
1090: A8 81 A9 81 AA 81 AB 81  AC 81 AD 81 AE 81 AF 81  ................
10A0: B0 81 B1 81 B2 81 03 80  03 80 03 80 03 80 B3 81  ................
10B0: B4 81 B5 81 B6 81 B7 81  B8 81 B9 81 BA 81 BB 81  ................
10C0: BC 81 BD 81 BE 81 BF 81  03 80 03 80 03 80        ..............  
```

#### Opcodes

```
  0: 0x0B08 [0x1E] EventEntity looks at LocalPlayer and starts talking
  1: 0x0B0D [0x1C] WAIT(1* ticks)
  2: 0x0B10 [0x5B] LOAD_EXT_SCHEDULER: Load scheduler "tlk1" with entities [EventEntity, EventEntity], work=215*
  3: 0x0B1F [0x1D] PRINT_EVENT_MESSAGE(message_id=8085*)
    → "My contact is hard at work. You'll need to come back a little bit later."
  4: 0x0B22 [0x23] WAIT_FOR_DIALOG_INTERACTION
  5: 0x0B23 [0x53] WAIT_SCHEDULER_TASK: Wait for scheduler "tlk1" with entities [EventEntity, EventEntity]
  6: 0x0B30 [0x5B] LOAD_EXT_SCHEDULER: Load scheduler "tlke" with entities [EventEntity, EventEntity], work=215*
  7: 0x0B3F [0x53] WAIT_SCHEDULER_TASK: Wait for scheduler "tlke" with entities [EventEntity, EventEntity]
  8: 0x0B4C [0x21] END_EVENT
  9: 0x0B4D [0x00] END_REQSTACK()
```

#### Data or dead code:

```
# Dead code (unreachable instructions):
     0x0B4E [0x37] UPDATE_EVENT_POSITION_AND_DIR: x=0x3980, z=0x5180, y=0x0380, direction=0x0380
     0x0B57 [0x80] LOAD_WAIT(entity=Unknown NPC (ID: 2147713027/0x80038003))
     0x0B5C [0x03] 0x0380 = 0x0380
     0x0B61 [0x80] LOAD_WAIT(entity=Unknown NPC (ID: 2147713027/0x80038003))
     0x0B66 [0x03] 0x0380 = 0x0380
     0x0B6B [0x80] LOAD_WAIT(entity=Unknown NPC (ID: 2152890371/0x80528003))
     0x0B70 [0x53] WAIT_SCHEDULER_TASK: Wait for scheduler 0x03800380 with entities [Unknown NPC (ID: 58741888/0x03805480), Unknown NPC (ID: 58721152/0x03800380)]
     0x0B7D [0x80] LOAD_WAIT(entity=Unknown NPC (ID: 2147713027/0x80038003))
     0x0B82 [0x03] 0x0380 = 0x0380
     0x0B87 [0x80] LOAD_WAIT(entity=Unknown NPC (ID: 2147713027/0x80038003))
     0x0B8C [0x03] 0x2F80 = 0x3080
     0x0B91 [0x80] LOAD_WAIT(entity=Unknown NPC (ID: 2147713071/0x8003802F))
     0x0B96 [0x03] 0x0380 = 0x0380
     0x0B9B [0x80] LOAD_WAIT(entity=Unknown NPC (ID: 2147713027/0x80038003))
     0x0BA0 [0x03] 0x0380 = 0x0380
     0x0BA5 [0x80] LOAD_WAIT(entity=Unknown NPC (ID: 2147713027/0x80038003))
     0x0BAA [0x03] 0x0380 = 0x0380
     0x0BAF [0x10] Work_Zone[4] <<= Work_Zone[5]
     0x0BB4 [0x06] 0x0710 = 0
     0x0BB7 [0x10] Work_Zone[8] <<= Work_Zone[9]
     0x0BBC [0x00] END_REQSTACK()
     0x0BBD [0x17] Work_Zone_1700[1] = cos(Work_Zone_1700[2]) * Work_Zone_1700[3]
     0x0BC4 [0x04] DEPRECATED_NOP(unused=0x0517)
     0x0BC7 [0x17] Work_Zone_1700[6] = cos(Work_Zone_1700[7]) * Work_Zone_1700[8]
     0x0BCE [0x09] 0x0A17 |= (1 << 0x0B17)
     0x0BD3 [0x17] Work_Zone_1700[12] = cos(Work_Zone_1700[13]) * Work_Zone_1700[14]
     0x0BDA [0x0F] Work_Zone[23] ^= 0x0817
     0x0BDF [0x17] Work_Zone_1700[9] = cos(Work_Zone_1700[10]) * Work_Zone_1700[11]
     0x0BE6 [0x0C] 0x0D17--
     0x0BE9 [0x17] Work_Zone_1700[14] = cos(Work_Zone_1700[15]) * Work_Zone_1700[16]
     0x0BF0 [0x11] 0x1217 >>= 0x1317
     0x0BF5 [0x17] Work_Zone_1700[20] = cos(Work_Zone_1700[21]) * Work_Zone_1700[22]
     0x0BFC [0x17] 0x5517 = cos(0x5680) * 0x5780
     0x0C03 [0x80] LOAD_WAIT(entity=Unknown NPC (ID: 2153349208/0x80598058))
     0x0C08 [0x5A] UPDATE_EVENT_POSITION: Move EventEntity incrementally towards MovePosition
     0x0C0A [0x5B] LOAD_EXT_SCHEDULER: Load scheduler 0x62806180 with entities [Unknown NPC (ID: 1585470848/0x5E805D80), Unknown NPC (ID: 1619025792/0x60805F80)], work=0x5C80
     0x0C19 [0x80] LOAD_WAIT(entity=Unknown NPC (ID: 2154070115/0x80648063))
     0x0C1E [0x65] CALCULATE_3D_DISTANCE(result=0x6680, entity1=Unknown NPC (ID: 1753245568/0x68806780), entity2=Unknown NPC (ID: 1786800512/0x6A806980))
     0x0C29 [0x80] LOAD_WAIT(entity=Unknown NPC (ID: 2147713027/0x80038003))
     0x0C2E [0x6B] STOP_AND_IDLE: Unknown NPC (ID: 1870687872/0x6F806E80) stops current action and resets to idle (animation="lm")
     0x0C37 [0x80] LOAD_WAIT(entity=Unknown NPC (ID: 2154922096/0x80718070))
     0x0C3C [0x72] LOAD_EVENT_WEATHER: Unknown mode 128, weather_id=23160*
     0x0C40 [0x74] EventEntity->Render.Flags1 ^= 0x00
     0x0C42 [0x75] LOAD_ROOM(Unknown mode 128, room=23163*)
     0x0C46 [0x77] SET_EVENT_TIME_WEATHER(hour=0x7880, weather=0x7980)
     0x0C4B [0x80] LOAD_WAIT(entity=Unknown NPC (ID: 2155577466/0x807B807A))
     0x0C50 [0x7C] Unknown NPC (ID: 2155774077/0x807E807D)->Render.Flags2 ^= 0x00
     0x0C56 [0x7F] WAIT_DIALOG_SELECT_ALT()
     0x0C57 [0x80] LOAD_WAIT(entity=Unknown NPC (ID: 2147713152/0x80038080))
     0x0C5C [0x03] 27264* = References[640]
     0x0C61 [0x80] LOAD_WAIT(entity=Unknown NPC (ID: 2156167299/0x80848083))
     0x0C66 [0x85] OPEN_MOOGLE_MENU()
     0x0C67 [0x80] LOAD_WAIT(entity=Unknown NPC (ID: 2156363910/0x80878086))
     0x0C6C [0x88] WORLD_PASS_HANDLER_B: Send world pass packet 0x1B (Para=1, sets RecFriendPassFlag)
     0x0C6D [0x80] LOAD_WAIT(entity=Unknown NPC (ID: 2156560521/0x808A8089))
     0x0C72 [0x8B] SET_EVENT_MARK: Add/update map marker on map References[3200] at (References[3712], References[3968]), index=References[3456], name=(no name)
     0x0C7B [0x80] LOAD_WAIT(entity=Unknown NPC (ID: 2157019280/0x80918090))
     0x0C80 [0x92] Unknown NPC (ID: 2157215891/0x80948093)->Render.Flags3 ^= 0x80
     0x0C86 [0x95] SETUP_EVENT_NPC: Prepare NPC for event (Render.Flags3 = 0x9680)
     0x0C89 [0x80] LOAD_WAIT(entity=Unknown NPC (ID: 2147713027/0x80038003))
     0x0C8E [0x97] SAVE_SET_WIND_VALUES(wind_base=0x9880, wind_width=0x9980)
     0x0C93 [0x80] LOAD_WAIT(entity=Unknown NPC (ID: 2157674650/0x809B809A))
     0x0C98 [0x9C] STORE_CLIENT_LANGUAGE_ID(result=0x9D80)
     0x0C9B [0x80] LOAD_WAIT(entity=Unknown NPC (ID: 2157936798/0x809F809E))
     0x0CA0 [0xA0] WAIT_LOAD_SCHEDULER_MAIN_ALT2: Wait for scheduler 0xA780A680 with entities [Unknown NPC (ID: 2743116416/0xA380A280), Unknown NPC (ID: 2776671360/0xA580A480)], work=0xA180
     0x0CAF [0x80] LOAD_WAIT(entity=Unknown NPC (ID: 2158592168/0x80A980A8))
     0x0CB4 [0xAA] VANA_DIEL_TIMESTAMP_CONVERTER(timestamp=0xAB80, year=0xAC80, month=0x0380, day=0x0380, weekday=0xAD80, hour=0xAE80, minute=0xAF80, moon=0xB080)
     0x0CC5 [0x80] LOAD_WAIT(entity=Unknown NPC (ID: 2159182001/0x80B280B1))
     0x0CCA [0xB3] RANKINGS_BOARD_HANDLER(case_type=0x80)
     0x0CCC [0xB4] UI_WINDOW_STRING_HANDLER(case=0x80 - Unknown case 0x80)
     0x0CCE [0xB5] SET_EVENT_ENTITY_NAME: Change EventEntity name to "B["*
     0x0CD2 [0xB7] ENTITY_DATA_HANDLER: Unknown case 0x80 for Unknown NPC (ID: 2159640760/0x80B980B8)
     0x0CDA [0xBB] LOAD_EVENT_SCHEDULER_ALT: Load scheduler 0xC280C180 with entities [Unknown NPC (ID: 3196108160/0xBE80BD80), Unknown NPC (ID: 3229663104/0xC080BF80)], work=[0xBC80, 0x0380]
     0x0CEB [0x80] LOAD_WAIT(entity=Unknown NPC (ID: 2160295939/0x80C38003))
     0x0CF0 [0xC4] SCHEDULE_MAGIC_CASTING_ALT (arg=16): Unknown NPC (ID: 2160558278/0x80C780C6) casts magic 23422* on Unknown NPC (ID: 2160689352/0x80C980C8)
     0x0CFC [0xCA] DEPRECATED_OPCODE_CA()
     0x0CFD [0x80] LOAD_WAIT(entity=Unknown NPC (ID: 2160885963/0x80CC80CB))
     0x0D02 [0xCD] LOAD_SCHEDULED_TASK_ALT4: Load scheduler 0xD480D380 with entities [Unknown NPC (ID: 3498102656/0xD080CF80), Unknown NPC (ID: 3531657600/0xD280D180)], work=[0xCE80, 0xD580]
     0x0D13 [0x80] LOAD_WAIT(entity=Unknown NPC (ID: 2161606870/0x80D780D6))
     0x0D18 [0xD8] SET_ENTITY_EVENT_DIR: Unknown mode 0x80 for Unknown NPC (ID: 2147713027/0x80038003)
     0x0D1E [0xD9] SET_SOUND_EFFECT_LIMIT_FLAG(flag_value=0x80)
     0x0D20 [0xDA] UNKNOWN_0xDA
     0x0D21 [0x80] LOAD_WAIT(entity=Unknown NPC (ID: 2161934555/0x80DC80DB))
     0x0D26 [0xDD] UNKNOWN_0xDD
     0x0D27 [0x80] LOAD_WAIT(entity=Unknown NPC (ID: 2162131166/0x80DF80DE))
     0x0D2C [0xE0] UNKNOWN_0xE0
     0x0D2D [0x80] LOAD_WAIT(entity=Unknown NPC (ID: 2162327777/0x80E280E1))
     0x0D32 [0xE3] UNKNOWN_0xE3
     0x0D33 [0x80] LOAD_WAIT(entity=Unknown NPC (ID: 2162524388/0x80E580E4))
     0x0D38 [0xE6] UNKNOWN_0xE6
     0x0D39 [0x80] LOAD_WAIT(entity=Unknown NPC (ID: 2162720999/0x80E880E7))
     0x0D3E [0xE9] UNKNOWN_0xE9
     0x0D3F [0x80] LOAD_WAIT(entity=Unknown NPC (ID: 2162917610/0x80EB80EA))
     0x0D44 [0xEC] UNKNOWN_0xEC
     0x0D45 [0x80] LOAD_WAIT(entity=Unknown NPC (ID: 2163114221/0x80EE80ED))
     0x0D4A [0x03] 0x0380 = 0xEF80
     0x0D4F [0x80] LOAD_WAIT(entity=Unknown NPC (ID: 2163310832/0x80F180F0))
     0x0D54 [0xF2] UNKNOWN_0xF2
     0x0D55 [0x80] LOAD_WAIT(entity=Unknown NPC (ID: 2163507443/0x80F480F3))
     0x0D5A [0xF5] UNKNOWN_0xF5
     0x0D5B [0x80] LOAD_WAIT(entity=Unknown NPC (ID: 2163704054/0x80F780F6))
     0x0D60 [0xF8] UNKNOWN_0xF8
     0x0D61 [0x80] LOAD_WAIT(entity=Unknown NPC (ID: 2163900665/0x80FA80F9))
     0x0D66 [0xFB] UNKNOWN_0xFB
     0x0D67 [0x80] LOAD_WAIT(entity=Unknown NPC (ID: 2164097276/0x80FD80FC))
     0x0D6C [0xFE] UNKNOWN_0xFE
     0x0D6D [0x80] LOAD_WAIT(entity=Unknown NPC (ID: 2164293887/0x810080FF))
     0x0D72 [0x01] GOTO 0x0281
     0x0D75 [0x81] SET_ENTITY_BLINKING(blink_flag=0x03, entity=Unknown NPC (ID: 58786945/0x03810481))
     0x0D7B [0x80] LOAD_WAIT(entity=Unknown NPC (ID: 2164621315/0x81058003))
     0x0D80 [0x06] 0x0781 = 0
     0x0D83 [0x81] SET_ENTITY_BLINKING(blink_flag=0x08, entity=Unknown NPC (ID: 176228737/0x0A810981))
     0x0D89 [0x81] SET_ENTITY_BLINKING(blink_flag=0x0B, entity=Unknown NPC (ID: 226561153/0x0D810C81))
     0x0D8F [0x81] SET_ENTITY_BLINKING(blink_flag=0x0E, entity=Unknown NPC (ID: 276893569/0x10810F81))
     0x0D95 [0x81] SET_ENTITY_BLINKING(blink_flag=0x11, entity=Unknown NPC (ID: 327225985/0x13811281))
     0x0D9B [0x81] SET_ENTITY_BLINKING(blink_flag=0x14, entity=Unknown NPC (ID: 377558401/0x16811581))
     0x0DA1 [0x81] SET_ENTITY_BLINKING(blink_flag=0x17, entity=Unknown NPC (ID: 427890817/0x19811881))
     0x0DA7 [0x81] SET_ENTITY_BLINKING(blink_flag=0x1A, entity=Unknown NPC (ID: 58721153/0x03800381))
     0x0DAD [0x80] LOAD_WAIT(entity=Unknown NPC (ID: 2166128923/0x811C811B))
     0x0DB2 [0x1D] PRINT_EVENT_MESSAGE(message_id=0x1E81)
     0x0DB5 [0x81] SET_ENTITY_BLINKING(blink_flag=0x1F, entity=Unknown NPC (ID: 562110593/0x21812081))
     0x0DBB [0x81] SET_ENTITY_BLINKING(blink_flag=0x22, entity=Unknown NPC (ID: 612443009/0x24812381))
     0x0DC1 [0x81] SET_ENTITY_BLINKING(blink_flag=0x25, entity=Unknown NPC (ID: 662775425/0x27812681))
     0x0DC7 [0x81] SET_ENTITY_BLINKING(blink_flag=0x28, entity=Unknown NPC (ID: 713107841/0x2A812981))
     0x0DCD [0x81] SET_ENTITY_BLINKING(blink_flag=0x2B, entity=Unknown NPC (ID: 763440257/0x2D812C81))
     0x0DD3 [0x81] SET_ENTITY_BLINKING(blink_flag=0x2E, entity=Unknown NPC (ID: 813772673/0x30812F81))
     0x0DD9 [0x81] SET_ENTITY_BLINKING(blink_flag=0x03, entity=Unknown NPC (ID: 830473088/0x31800380))
     0x0DDF [0x81] SET_ENTITY_BLINKING(blink_flag=0x32, entity=Unknown NPC (ID: 880882561/0x34813381))
     0x0DE5 [0x81] SET_ENTITY_BLINKING(blink_flag=0x35, entity=Unknown NPC (ID: 931214977/0x37813681))
     0x0DEB [0x81] SET_ENTITY_BLINKING(blink_flag=0x38, entity=Unknown NPC (ID: 981547393/0x3A813981))
     0x0DF1 [0x81] SET_ENTITY_BLINKING(blink_flag=0x3B, entity=Unknown NPC (ID: 1031879809/0x3D813C81))
     0x0DF7 [0x81] SET_ENTITY_BLINKING(blink_flag=0x3E, entity=Unknown NPC (ID: 1082212225/0x40813F81))
     0x0DFD [0x81] SET_ENTITY_BLINKING(blink_flag=0x41, entity=Unknown NPC (ID: 1132544641/0x43814281))
     0x0E03 [0x81] SET_ENTITY_BLINKING(blink_flag=0x44, entity=Unknown NPC (ID: 1182877057/0x46814581))
     0x0E09 [0x81] SET_ENTITY_BLINKING(blink_flag=0x47, entity=Unknown NPC (ID: 1233209473/0x49814881))
     0x0E0F [0x81] SET_ENTITY_BLINKING(blink_flag=0x4A, entity=Unknown NPC (ID: 1283541889/0x4C814B81))
     0x0E15 [0x81] SET_ENTITY_BLINKING(blink_flag=0x4D, entity=Unknown NPC (ID: 1333874305/0x4F814E81))
     0x0E1B [0x81] SET_ENTITY_BLINKING(blink_flag=0x50, entity=Unknown NPC (ID: 1384206721/0x52815181))
     0x0E21 [0x81] SET_ENTITY_BLINKING(blink_flag=0x53, entity=Unknown NPC (ID: 1434539137/0x55815481))
     0x0E27 [0x81] SET_ENTITY_BLINKING(blink_flag=0x56, entity=Unknown NPC (ID: 1484871553/0x58815781))
     0x0E2D [0x81] SET_ENTITY_BLINKING(blink_flag=0x59, entity=Unknown NPC (ID: 1535203969/0x5B815A81))
     0x0E33 [0x81] SET_ENTITY_BLINKING(blink_flag=0x5C, entity=Unknown NPC (ID: 1585536385/0x5E815D81))
     0x0E39 [0x81] SET_ENTITY_BLINKING(blink_flag=0x5F, entity=Unknown NPC (ID: 1635868801/0x61816081))
     0x0E3F [0x81] SET_ENTITY_BLINKING(blink_flag=0x62, entity=Unknown NPC (ID: 1686201217/0x64816381))
     0x0E45 [0x81] SET_ENTITY_BLINKING(blink_flag=0x65, entity=Unknown NPC (ID: 1736533633/0x67816681))
     0x0E4B [0x81] SET_ENTITY_BLINKING(blink_flag=0x68, entity=Unknown NPC (ID: 1786866049/0x6A816981))
     0x0E51 [0x81] SET_ENTITY_BLINKING(blink_flag=0x6B, entity=Unknown NPC (ID: 1837198465/0x6D816C81))
     0x0E57 [0x81] SET_ENTITY_BLINKING(blink_flag=0x6E, entity=Unknown NPC (ID: 1887530881/0x70816F81))
     0x0E5D [0x81] SET_ENTITY_BLINKING(blink_flag=0x71, entity=Unknown NPC (ID: 1937863297/0x73817281))
     0x0E63 [0x81] SET_ENTITY_BLINKING(blink_flag=0x74, entity=Unknown NPC (ID: 1988195713/0x76817581))
     0x0E69 [0x81] SET_ENTITY_BLINKING(blink_flag=0x77, entity=Unknown NPC (ID: 2038528129/0x79817881))
     0x0E6F [0x81] SET_ENTITY_BLINKING(blink_flag=0x7A, entity=Unknown NPC (ID: 2088860545/0x7C817B81))
     0x0E75 [0x81] SET_ENTITY_BLINKING(blink_flag=0x7D, entity=Unknown NPC (ID: 2139192961/0x7F817E81))
     0x0E7B [0x81] SET_ENTITY_BLINKING(blink_flag=0x80, entity=Unknown NPC (ID: 2189525377/0x82818181))
     0x0E81 [0x81] SET_ENTITY_BLINKING(blink_flag=0x83, entity=Unknown NPC (ID: 2239857793/0x85818481))
     0x0E87 [0x81] SET_ENTITY_BLINKING(blink_flag=0x86, entity=Unknown NPC (ID: 2290190209/0x88818781))
     0x0E8D [0x81] SET_ENTITY_BLINKING(blink_flag=0x89, entity=Unknown NPC (ID: 2340522625/0x8B818A81))
     0x0E93 [0x81] SET_ENTITY_BLINKING(blink_flag=0x8C, entity=Unknown NPC (ID: 2390855041/0x8E818D81))
     0x0E99 [0x81] SET_ENTITY_BLINKING(blink_flag=0x8F, entity=Unknown NPC (ID: 2441187457/0x91819081))
     0x0E9F [0x81] SET_ENTITY_BLINKING(blink_flag=0x92, entity=Unknown NPC (ID: 2491519873/0x94819381))
     0x0EA5 [0x81] SET_ENTITY_BLINKING(blink_flag=0x95, entity=Unknown NPC (ID: 2541852289/0x97819681))
     0x0EAB [0x81] SET_ENTITY_BLINKING(blink_flag=0x98, entity=Unknown NPC (ID: 2592184705/0x9A819981))
     0x0EB1 [0x81] SET_ENTITY_BLINKING(blink_flag=0x9B, entity=Unknown NPC (ID: 2642517121/0x9D819C81))
     0x0EB7 [0x81] SET_ENTITY_BLINKING(blink_flag=0x9E, entity=Unknown NPC (ID: 58721153/0x03800381))
     0x0EBD [0x80] LOAD_WAIT(entity=Unknown NPC (ID: 2153152597/0x80568055))
     0x0EC2 [0x57] CREATE_FRAME_DELAY(delay=0x5880)
     0x0EC5 [0x80] LOAD_WAIT(entity=Unknown NPC (ID: 2153414745/0x805A8059))
     0x0ECA [0x5B] LOAD_EXT_SCHEDULER: Load scheduler 0x62806180 with entities [Unknown NPC (ID: 1585470848/0x5E805D80), Unknown NPC (ID: 1619025792/0x60805F80)], work=0x5C80
     0x0ED9 [0x80] LOAD_WAIT(entity=Unknown NPC (ID: 2154070115/0x80648063))
     0x0EDE [0x65] CALCULATE_3D_DISTANCE(result=0x6680, entity1=Unknown NPC (ID: 1753245568/0x68806780), entity2=Unknown NPC (ID: 1786800512/0x6A806980))
     0x0EE9 [0x80] LOAD_WAIT(entity=Unknown NPC (ID: 2154594411/0x806C806B))
     0x0EEE [0x6D] DEPRECATED_OPCODE(unused1=0x6E80, unused2=0x6F80, unused3=0x7080)
     0x0EF5 [0x80] LOAD_WAIT(entity=Unknown NPC (ID: 2154987633/0x80728071))
     0x0EFA [0x73] Unknown NPC (ID: 1988130176/0x76807580) casts magic 0x7480 on Unknown NPC (ID: 2021685120/0x78807780)
     0x0F05 [0x80] LOAD_WAIT(entity=Unknown NPC (ID: 2155511929/0x807A8079))
     0x0F0A [0x7B] Unknown NPC (ID: 2105572480/0x7D807C80) stops talking
     0x0F0F [0x80] LOAD_WAIT(entity=Unknown NPC (ID: 2155839614/0x807F807E))
     0x0F14 [0x80] LOAD_WAIT(entity=Unknown NPC (ID: 2189459840/0x82808180))
     0x0F19 [0x80] LOAD_WAIT(entity=Unknown NPC (ID: 2156167299/0x80848083))
     0x0F1E [0x85] OPEN_MOOGLE_MENU()
     0x0F1F [0x80] LOAD_WAIT(entity=Unknown NPC (ID: 2156363910/0x80878086))
     0x0F24 [0x88] WORLD_PASS_HANDLER_B: Send world pass packet 0x1B (Para=1, sets RecFriendPassFlag)
     0x0F25 [0x80] LOAD_WAIT(entity=Unknown NPC (ID: 2156560521/0x808A8089))
     0x0F2A [0x8B] SET_EVENT_MARK: Add/update map marker on map References[3200] at (References[3712], References[3968]), index=References[3456], name=(no name)
     0x0F33 [0x80] LOAD_WAIT(entity=Unknown NPC (ID: 2157019280/0x80918090))
     0x0F38 [0x92] Unknown NPC (ID: 2157215891/0x80948093)->Render.Flags3 ^= 0x80
     0x0F3E [0x95] SETUP_EVENT_NPC: Prepare NPC for event (Render.Flags3 = 0x9680)
     0x0F41 [0x80] LOAD_WAIT(entity=Unknown NPC (ID: 2157478039/0x80988097))
     0x0F46 [0x99] Wait for Unknown NPC (ID: 2608896640/0x9B809A80) animation to complete
     0x0F4B [0x80] LOAD_WAIT(entity=Unknown NPC (ID: 2157805724/0x809D809C))
     0x0F50 [0x9E] SET_RECT_EVENT_SEND_FLAG: Notify client of area movement
     0x0F52 [0x9F] LOAD_SCHEDULED_TASK_ALT: Load scheduler 0xA680A580 with entities [Unknown NPC (ID: 2726338944/0xA280A180), Unknown NPC (ID: 2759893888/0xA480A380)], work=[0xA080, 0xA780]
     0x0F63 [0x80] LOAD_WAIT(entity=Unknown NPC (ID: 2158592168/0x80A980A8))
     0x0F68 [0xAA] VANA_DIEL_TIMESTAMP_CONVERTER(timestamp=0xAB80, year=0xAC80, month=0xAD80, day=0xAE80, weekday=0xAF80, hour=0xB080, minute=0xB180, moon=0xB280)
     0x0F79 [0x80] LOAD_WAIT(entity=Unknown NPC (ID: 2159313075/0x80B480B3))
     0x0F7E [0xB5] SET_EVENT_ENTITY_NAME: Change EventEntity name to "B["*
     0x0F82 [0xB7] ENTITY_DATA_HANDLER: Unknown case 0x80 for Unknown NPC (ID: 2159640760/0x80B980B8)
     0x0F8A [0xBB] LOAD_EVENT_SCHEDULER_ALT: Load scheduler 0xC280C180 with entities [Unknown NPC (ID: 3196108160/0xBE80BD80), Unknown NPC (ID: 3229663104/0xC080BF80)], work=[0xBC80, 0x0380]
     0x0F9B [0x80] LOAD_WAIT(entity=Unknown NPC (ID: 2160295939/0x80C38003))
     0x0FA0 [0xC4] SCHEDULE_MAGIC_CASTING_ALT (arg=16): Unknown NPC (ID: 2160558278/0x80C780C6) casts magic 23422* on Unknown NPC (ID: 2160689352/0x80C980C8)
     0x0FAC [0xCA] DEPRECATED_OPCODE_CA()
     0x0FAD [0x80] LOAD_WAIT(entity=Unknown NPC (ID: 2160885963/0x80CC80CB))
     0x0FB2 [0xCD] LOAD_SCHEDULED_TASK_ALT4: Load scheduler 0xD480D380 with entities [Unknown NPC (ID: 3498102656/0xD080CF80), Unknown NPC (ID: 3531657600/0xD280D180)], work=[0xCE80, 0xD580]
     0x0FC3 [0x80] LOAD_WAIT(entity=Unknown NPC (ID: 2161606870/0x80D780D6))
     0x0FC8 [0xD8] SET_ENTITY_EVENT_DIR: Unknown mode 0x80 for Unknown NPC (ID: 2161803481/0x80DA80D9)
     0x0FCE [0xDB] UNKNOWN_0xDB
     0x0FCF [0x80] LOAD_WAIT(entity=Unknown NPC (ID: 2162000092/0x80DD80DC))
     0x0FD4 [0xDE] UNKNOWN_0xDE
     0x0FD5 [0x80] LOAD_WAIT(entity=Unknown NPC (ID: 2162196703/0x80E080DF))
     0x0FDA [0xE1] UNKNOWN_0xE1
     0x0FDB [0x80] LOAD_WAIT(entity=Unknown NPC (ID: 2162393314/0x80E380E2))
     0x0FE0 [0xE4] UNKNOWN_0xE4
     0x0FE1 [0x80] LOAD_WAIT(entity=Unknown NPC (ID: 2162589925/0x80E680E5))
     0x0FE6 [0xE7] UNKNOWN_0xE7
     0x0FE7 [0x80] LOAD_WAIT(entity=Unknown NPC (ID: 2162786536/0x80E980E8))
     0x0FEC [0xEA] UNKNOWN_0xEA
     0x0FED [0x80] LOAD_WAIT(entity=Unknown NPC (ID: 2162983147/0x80EC80EB))
     0x0FF2 [0xED] UNKNOWN_0xED
     0x0FF3 [0x80] LOAD_WAIT(entity=Unknown NPC (ID: 2163179758/0x80EF80EE))
     0x0FF8 [0xF0] UNKNOWN_0xF0
     0x0FF9 [0x80] LOAD_WAIT(entity=Unknown NPC (ID: 2163376369/0x80F280F1))
     0x0FFE [0xF3] UNKNOWN_0xF3
     0x0FFF [0x80] LOAD_WAIT(entity=Unknown NPC (ID: 2163572980/0x80F580F4))
     0x1004 [0xF6] UNKNOWN_0xF6
     0x1005 [0x80] LOAD_WAIT(entity=Unknown NPC (ID: 2163769591/0x80F880F7))
     0x100A [0xF9] UNKNOWN_0xF9
     0x100B [0x80] LOAD_WAIT(entity=Unknown NPC (ID: 2163966202/0x80FB80FA))
     0x1010 [0xFC] UNKNOWN_0xFC
     0x1011 [0x80] LOAD_WAIT(entity=Unknown NPC (ID: 2164162813/0x80FE80FD))
     0x1016 [0xFF] UNKNOWN_0xFF
     0x1017 [0x80] LOAD_WAIT(entity=Unknown NPC (ID: 2164359424/0x81018100))
     0x101C [0x02] IF !(0x0381 == 0x0481) GOTO 0x8105
     0x1024 [0x06] 0x0781 = 0
     0x1027 [0x81] SET_ENTITY_BLINKING(blink_flag=0x08, entity=Unknown NPC (ID: 176228737/0x0A810981))
     0x102D [0x81] SET_ENTITY_BLINKING(blink_flag=0x0B, entity=Unknown NPC (ID: 226561153/0x0D810C81))
     0x1033 [0x81] SET_ENTITY_BLINKING(blink_flag=0x0E, entity=Unknown NPC (ID: 276893569/0x10810F81))
     0x1039 [0x81] SET_ENTITY_BLINKING(blink_flag=0x11, entity=Unknown NPC (ID: 327225985/0x13811281))
     0x103F [0x81] SET_ENTITY_BLINKING(blink_flag=0x14, entity=Unknown NPC (ID: 377558401/0x16811581))
     0x1045 [0x81] SET_ENTITY_BLINKING(blink_flag=0x17, entity=Unknown NPC (ID: 427890817/0x19811881))
     0x104B [0x81] SET_ENTITY_BLINKING(blink_flag=0x1A, entity=Unknown NPC (ID: 478223233/0x1C811B81))
