# 17928250

## Common Data

| Field            | Value               |
|------------------|---------------------|
| Zone             | Leafallia (ID: 281) |
| Block Size       | 516 bytes           |
| Total Events     | 5                   |
| References Count | 24                  |

## List of Events

| Event ID                 | Entrypoint   |   Size |   Instructions |
|--------------------------|--------------|--------|----------------|
| [65535](#event-65535)    | 0x0000       |      1 |              1 |
| [13](#event-13)          | 0x0001       |      1 |              1 |
| [65535.1](#event-655351) | 0x0002       |    127 |             17 |
| [65535.2](#event-655352) | 0x0081       |    137 |             17 |
| [65535.3](#event-655353) | 0x010A       |    116 |             14 |

## DAT References (imed_data)

|   Index | Hex Value   |   Dec Value |
|---------|-------------|-------------|
|       0 | 0x0078      |         120 |
|       1 | 0x0015      |          21 |
|       2 | 0x0000      |           0 |
|       3 | 0x00F0      |         240 |
|       4 | 0x01A4      |         420 |
|       5 | 0x02F8      |         760 |
|       6 | 0x0E40      |        3648 |
|       7 | 0x0258      |         600 |
|       8 | 0x00C8      |         200 |
|       9 | 0x0DC6      |        3526 |
|      10 | 0x0D3E      |        3390 |
|      11 | 0x0CA4      |        3236 |
|      12 | 0x0168      |         360 |
|      13 | 0x0CA5      |        3237 |
|      14 | 0x012C      |         300 |
|      15 | 0x0CA8      |        3240 |
|      16 | 0x00B4      |         180 |
|      17 | 0x0F05      |        3845 |
|      18 | 0x0DC2      |        3522 |
|      19 | 0x02B2      |         690 |
|      20 | 0x0CF7      |        3319 |
|      21 | 0x0384      |         900 |
|      22 | 0x0EA6      |        3750 |
|      23 | 0x0CFD      |        3325 |

## Events

### Event 65535

#### Metadata

| Field        | Value   |
|--------------|---------|
| Entrypoint   | 0x0000  |
| Data Size    | 1 bytes |
| Instructions | 1       |

```
      00 01 02 03 04 05 06 07  08 09 0A 0B 0C 0D 0E 0F
      -- -- -- -- -- -- -- --  -- -- -- -- -- -- -- --
0000: 00                                                .               
```

#### Opcodes

```
  0: 0x0000 [0x00] END_REQSTACK()
```

### Event 13

#### Metadata

| Field        | Value   |
|--------------|---------|
| Entrypoint   | 0x0001  |
| Data Size    | 1 bytes |
| Instructions | 1       |

```
      00 01 02 03 04 05 06 07  08 09 0A 0B 0C 0D 0E 0F
      -- -- -- -- -- -- -- --  -- -- -- -- -- -- -- --
0000:    00                                              .              
```

#### Opcodes

```
  0: 0x0001 [0x00] END_REQSTACK()
```

### Event 65535.1

#### Metadata

| Field        | Value     |
|--------------|-----------|
| Entrypoint   | 0x0002    |
| Data Size    | 127 bytes |
| Instructions | 17        |

```
      00 01 02 03 04 05 06 07  08 09 0A 0B 0C 0D 0E 0F
      -- -- -- -- -- -- -- --  -- -- -- -- -- -- -- --
0000:       1C 00 80 D0 01 80  25 90 11 01 25 90 11 01    ......%...%...
0010: 71 30 30 30 02 80 1C 03  80 1C 04 80 1C 05 80 81  q000............
0020: 00 25 90 11 01 5B 06 80  25 90 11 01 25 90 11 01  .%...[..%...%...
0030: 74 75 62 30 1C 07 80 1C  08 80 5B 06 80 25 90 11  tub0......[..%..
0040: 01 25 90 11 01 74 75 62  31 53 25 90 11 01 25 90  .%...tub1S%...%.
0050: 11 01 74 75 62 31 81 00  25 90 11 01 5B 09 80 25  ..tub1..%...[..%
0060: 90 11 01 25 90 11 01 77  61 6B 30 1C 04 80 1C 00  ...%...wak0.....
0070: 80 5B 0A 80 25 90 11 01  25 90 11 01 74 6F 62 30  .[..%...%...tob0
0080: 00                                                .               
```

#### Opcodes

```
  0: 0x0002 [0x1C] WAIT(120* ticks)
  1: 0x0005 [0xD0] LOAD_SCHEDULED_TASK_ALT5: Load scheduler "q000" with entities [Unnamed NPC (ID: 17928229/0x01119025), Unnamed NPC (ID: 17928229/0x01119025)], work=[21*, 0*]
  2: 0x0016 [0x1C] WAIT(240* ticks)
  3: 0x0019 [0x1C] WAIT(420* ticks)
  4: 0x001C [0x1C] WAIT(760* ticks)
  5: 0x001F [0x81] SET_ENTITY_BLINKING(blink_flag=0x00, entity=Unnamed NPC (ID: 17928229/0x01119025))
  6: 0x0025 [0x5B] LOAD_EXT_SCHEDULER: Load scheduler "tub0" with entities [Unnamed NPC (ID: 17928229/0x01119025), Unnamed NPC (ID: 17928229/0x01119025)], work=3648*
  7: 0x0034 [0x1C] WAIT(600* ticks)
  8: 0x0037 [0x1C] WAIT(200* ticks)
  9: 0x003A [0x5B] LOAD_EXT_SCHEDULER: Load scheduler "tub1" with entities [Unnamed NPC (ID: 17928229/0x01119025), Unnamed NPC (ID: 17928229/0x01119025)], work=3648*
 10: 0x0049 [0x53] WAIT_SCHEDULER_TASK: Wait for scheduler "tub1" with entities [Unnamed NPC (ID: 17928229/0x01119025), Unnamed NPC (ID: 17928229/0x01119025)]
 11: 0x0056 [0x81] SET_ENTITY_BLINKING(blink_flag=0x00, entity=Unnamed NPC (ID: 17928229/0x01119025))
 12: 0x005C [0x5B] LOAD_EXT_SCHEDULER: Load scheduler "wak0" with entities [Unnamed NPC (ID: 17928229/0x01119025), Unnamed NPC (ID: 17928229/0x01119025)], work=3526*
 13: 0x006B [0x1C] WAIT(420* ticks)
 14: 0x006E [0x1C] WAIT(120* ticks)
 15: 0x0071 [0x5B] LOAD_EXT_SCHEDULER: Load scheduler "tob0" with entities [Unnamed NPC (ID: 17928229/0x01119025), Unnamed NPC (ID: 17928229/0x01119025)], work=3390*
 16: 0x0080 [0x00] END_REQSTACK()
```

### Event 65535.2

#### Metadata

| Field        | Value     |
|--------------|-----------|
| Entrypoint   | 0x0081    |
| Data Size    | 137 bytes |
| Instructions | 17        |

```
      00 01 02 03 04 05 06 07  08 09 0A 0B 0C 0D 0E 0F
      -- -- -- -- -- -- -- --  -- -- -- -- -- -- -- --
0080:    5B 0B 80 2B 90 11 01  2B 90 11 01 6F 72 69 30   [..+...+...ori0
0090: 27 10 39 90 11 01 2B 1C  0C 80 1C 00 80 5B 0D 80  '.9...+......[..
00A0: 2B 90 11 01 2B 90 11 01  6D 69 67 30 1C 0E 80 5B  +...+...mig0...[
00B0: 0D 80 2B 90 11 01 2B 90  11 01 68 69 64 30 1C 0E  ..+...+...hid0..
00C0: 80 5B 0F 80 2B 90 11 01  2B 90 11 01 6D 6F 6E 32  .[..+...+...mon2
00D0: 1C 10 80 5B 0D 80 2B 90  11 01 2B 90 11 01 6D 69  ...[..+...+...mi
00E0: 67 30 1C 0E 80 5B 11 80  2B 90 11 01 2B 90 11 01  g0...[..+...+...
00F0: 6D 67 63 30 1C 0E 80 1C  10 80 5B 0B 80 2B 90 11  mgc0......[..+..
0100: 01 2B 90 11 01 6E 69 67  30 00                    .+...nig0.      
```

#### Opcodes

```
  0: 0x0081 [0x5B] LOAD_EXT_SCHEDULER: Load scheduler "ori0" with entities [Unnamed NPC (ID: 17928235/0x0111902B), Unnamed NPC (ID: 17928235/0x0111902B)], work=3236*
  1: 0x0090 [0x27] REQ_SET(priority=0x10, entity_id=Unnamed NPC (ID: 17928249/0x01119039), tag_num=0x2B)
  2: 0x0097 [0x1C] WAIT(360* ticks)
  3: 0x009A [0x1C] WAIT(120* ticks)
  4: 0x009D [0x5B] LOAD_EXT_SCHEDULER: Load scheduler "mig0" with entities [Unnamed NPC (ID: 17928235/0x0111902B), Unnamed NPC (ID: 17928235/0x0111902B)], work=3237*
  5: 0x00AC [0x1C] WAIT(300* ticks)
  6: 0x00AF [0x5B] LOAD_EXT_SCHEDULER: Load scheduler "hid0" with entities [Unnamed NPC (ID: 17928235/0x0111902B), Unnamed NPC (ID: 17928235/0x0111902B)], work=3237*
  7: 0x00BE [0x1C] WAIT(300* ticks)
  8: 0x00C1 [0x5B] LOAD_EXT_SCHEDULER: Load scheduler "mon2" with entities [Unnamed NPC (ID: 17928235/0x0111902B), Unnamed NPC (ID: 17928235/0x0111902B)], work=3240*
  9: 0x00D0 [0x1C] WAIT(180* ticks)
 10: 0x00D3 [0x5B] LOAD_EXT_SCHEDULER: Load scheduler "mig0" with entities [Unnamed NPC (ID: 17928235/0x0111902B), Unnamed NPC (ID: 17928235/0x0111902B)], work=3237*
 11: 0x00E2 [0x1C] WAIT(300* ticks)
 12: 0x00E5 [0x5B] LOAD_EXT_SCHEDULER: Load scheduler "mgc0" with entities [Unnamed NPC (ID: 17928235/0x0111902B), Unnamed NPC (ID: 17928235/0x0111902B)], work=3845*
 13: 0x00F4 [0x1C] WAIT(300* ticks)
 14: 0x00F7 [0x1C] WAIT(180* ticks)
 15: 0x00FA [0x5B] LOAD_EXT_SCHEDULER: Load scheduler "nig0" with entities [Unnamed NPC (ID: 17928235/0x0111902B), Unnamed NPC (ID: 17928235/0x0111902B)], work=3236*
 16: 0x0109 [0x00] END_REQSTACK()
```

### Event 65535.3

#### Metadata

| Field        | Value     |
|--------------|-----------|
| Entrypoint   | 0x010A    |
| Data Size    | 116 bytes |
| Instructions | 14        |

```
      00 01 02 03 04 05 06 07  08 09 0A 0B 0C 0D 0E 0F
      -- -- -- -- -- -- -- --  -- -- -- -- -- -- -- --
0100:                                5B 12 80 28 90 11            [..(..
0110: 01 28 90 11 01 6B 72 6F  30 27 10 39 90 11 01 2A  .(...kro0'.9...*
0120: 1C 13 80 5B 14 80 28 90  11 01 28 90 11 01 77 6C  ...[..(...(...wl
0130: 6B 30 1C 04 80 5B 14 80  28 90 11 01 28 90 11 01  k0...[..(...(...
0140: 64 65 64 30 1C 07 80 1C  15 80 5B 16 80 28 90 11  ded0......[..(..
0150: 01 28 90 11 01 70 79 6E  30 1C 0C 80 5B 17 80 28  .(...pyn0...[..(
0160: 90 11 01 28 90 11 01 74  6C 6B 31 1C 03 80 5B 16  ...(...tlk1...[.
0170: 80 28 90 11 01 28 90 11  01 74 65 6D 30 00        .(...(...tem0.  
```

#### Opcodes

```
  0: 0x010A [0x5B] LOAD_EXT_SCHEDULER: Load scheduler "kro0" with entities [Unnamed NPC (ID: 17928232/0x01119028), Unnamed NPC (ID: 17928232/0x01119028)], work=3522*
  1: 0x0119 [0x27] REQ_SET(priority=0x10, entity_id=Unnamed NPC (ID: 17928249/0x01119039), tag_num=0x2A)
  2: 0x0120 [0x1C] WAIT(690* ticks)
  3: 0x0123 [0x5B] LOAD_EXT_SCHEDULER: Load scheduler "wlk0" with entities [Unnamed NPC (ID: 17928232/0x01119028), Unnamed NPC (ID: 17928232/0x01119028)], work=3319*
  4: 0x0132 [0x1C] WAIT(420* ticks)
  5: 0x0135 [0x5B] LOAD_EXT_SCHEDULER: Load scheduler "ded0" with entities [Unnamed NPC (ID: 17928232/0x01119028), Unnamed NPC (ID: 17928232/0x01119028)], work=3319*
  6: 0x0144 [0x1C] WAIT(600* ticks)
  7: 0x0147 [0x1C] WAIT(900* ticks)
  8: 0x014A [0x5B] LOAD_EXT_SCHEDULER: Load scheduler "pyn0" with entities [Unnamed NPC (ID: 17928232/0x01119028), Unnamed NPC (ID: 17928232/0x01119028)], work=3750*
  9: 0x0159 [0x1C] WAIT(360* ticks)
 10: 0x015C [0x5B] LOAD_EXT_SCHEDULER: Load scheduler "tlk1" with entities [Unnamed NPC (ID: 17928232/0x01119028), Unnamed NPC (ID: 17928232/0x01119028)], work=3325*
 11: 0x016B [0x1C] WAIT(240* ticks)
 12: 0x016E [0x5B] LOAD_EXT_SCHEDULER: Load scheduler "tem0" with entities [Unnamed NPC (ID: 17928232/0x01119028), Unnamed NPC (ID: 17928232/0x01119028)], work=3750*
 13: 0x017D [0x00] END_REQSTACK()
```
