# Event 79

## Metadata

| Field           | Value    |
|-----------------|----------|
| Event Index     | 15/20    |
| Offset          | 0x02D4   |
| Data Size       | 53 bytes |
| Calculated Size | 53 bytes |
| Instructions    | 9        |

```
      00 01 02 03 04 05 06 07  08 09 0A 0B 0C 0D 0E 0F
      -- -- -- -- -- -- -- --  -- -- -- -- -- -- -- --
02D0:             1E F0 FF FF  7F 66 00 80 C7 02 05 01      .....f......
02E0: C7 02 05 01 74 6C 6B 30  03 02 10 1E 80 2B F8 FF  ....tlk0.....+..
02F0: FF 7F 1F 80 23 66 00 80  C7 02 05 01 C7 02 05 01  ....#f..........
0300: 74 6C 6B 31 1C 20 80 21  00                       tlk1. .!.       
```

## Opcodes

```
  0: 0x02D4 [0x1E] EventEntity looks at LocalPlayer and starts talking
  1: 0x02D9 [0x66] LOAD_EXT_SCHEDULER_MAIN: Load scheduler "tlk0" with entities [Nichais (ID: 17105607/0x010502C7), Nichais (ID: 17105607/0x010502C7)], work=29*
  2: 0x02E8 [0x03] Work_Zone[2] = 17397*
  3: 0x02ED [0x2B] EventEntity [13631*]:
    → "I have an elaborate jeweled box that I think may be just the thing!\u0007I shall make all the necessary preparations and head to Grauberg at once!\u007F1\u0000\u0007"
  4: 0x02F4 [0x23] WAIT_FOR_DIALOG_INTERACTION
  5: 0x02F5 [0x66] LOAD_EXT_SCHEDULER_MAIN: Load scheduler "tlk1" with entities [Nichais (ID: 17105607/0x010502C7), Nichais (ID: 17105607/0x010502C7)], work=29*
  6: 0x0304 [0x1C] WAIT(90* ticks)
  7: 0x0307 [0x21] END_EVENT
  8: 0x0308 [0x00] END_REQSTACK()
```
