# Event 65535

## Metadata

| Field           | Value    |
|-----------------|----------|
| Event Index     | 27/31    |
| Offset          | 0x011E   |
| Data Size       | 61 bytes |
| Calculated Size | 61 bytes |
| Instructions    | 11       |

```
      00 01 02 03 04 05 06 07  08 09 0A 0B 0C 0D 0E 0F
      -- -- -- -- -- -- -- --  -- -- -- -- -- -- -- --
0110:                                            1F 00                ..
0120: 1D 80 1E 80 0D 80 1F 01  6F 4A F4 71 05 01 41 72  ........oJ.q..Ar
0130: 05 01 1C 1F 80 45 20 80  F8 FF FF 7F F8 FF FF 7F  .....E .........
0140: 64 6F 70 6E 10 80 27 10  41 72 05 01 03 1C 21 80  dopn..'.Ar....!.
0150: 1F 00 22 80 23 80 0D 80  1F 01 00                 ..".#......     
```

## Opcodes

```
  0: 0x011E [0x1F] MOVE_ENTITY: EventEntity moves to X=88.426*, Z=8.828*, Y=-20.170*
  1: 0x0126 [0x1F] MOVE_ENTITY: Update entity position (mode=1)
  2: 0x0128 [0x6F] WAIT_FRAME_DELAY: Yield until WaitTime reaches zero
  3: 0x0129 [0x4A] Five Moons (ID: 17134068/0x010571F4) looks at Unnamed NPC (ID: 17134145/0x01057241)
  4: 0x0132 [0x1C] WAIT(20* ticks)
  5: 0x0135 [0x45] LOAD_SCHEDULED_TASK: Load scheduler "dopn" with entities [EventEntity, EventEntity], work=[341*, 0*]
  6: 0x0146 [0x27] REQ_SET(priority=0x10, entity_id=Unnamed NPC (ID: 17134145/0x01057241), tag_num=0x03)
  7: 0x014D [0x1C] WAIT(80* ticks)
  8: 0x0150 [0x1F] MOVE_ENTITY: EventEntity moves to X=88.406*, Z=4.206*, Y=-20.170*
  9: 0x0158 [0x1F] MOVE_ENTITY: Update entity position (mode=1)
 10: 0x015A [0x00] END_REQSTACK()
```
