# Event 65535

## Metadata

| Field           | Value    |
|-----------------|----------|
| Event Index     | 16/31    |
| Offset          | 0x0086   |
| Data Size       | 41 bytes |
| Calculated Size | 41 bytes |
| Instructions    | 8        |

```
      00 01 02 03 04 05 06 07  08 09 0A 0B 0C 0D 0E 0F
      -- -- -- -- -- -- -- --  -- -- -- -- -- -- -- --
0080:                   1C 12  80 79 00 F4 71 05 01 B3        ...y..q...
0090: 71 05 01 1C 13 80 4A EB  71 05 01 B3 71 05 01 1C  q.....J.q...q...
00A0: 04 80 4A 40 72 05 01 B3  71 05 01 1C 04 80 00     ..J@r...q...... 
```

## Opcodes

```
  0: 0x0086 [0x1C] WAIT(70* ticks)
  1: 0x0089 [0x79] Five Moons (ID: 17134068/0x010571F4) looks at Zeid (ID: 17134003/0x010571B3) (Basic look)
  2: 0x0093 [0x1C] WAIT(10* ticks)
  3: 0x0096 [0x4A] Dunbaff (ID: 17134059/0x010571EB) looks at Zeid (ID: 17134003/0x010571B3)
  4: 0x009F [0x1C] WAIT(30* ticks)
  5: 0x00A2 [0x4A] Garlbrei (ID: 17134144/0x01057240) looks at Zeid (ID: 17134003/0x010571B3)
  6: 0x00AB [0x1C] WAIT(30* ticks)
  7: 0x00AE [0x00] END_REQSTACK()
```
