# 16822496

## Common Data

| Field            | Value                      |
|------------------|----------------------------|
| Zone             | Oldton Movalpolos (ID: 11) |
| Block Size       | 4188 bytes                 |
| Total Events     | 5                          |
| References Count | 83                         |

## List of Events

| Event ID              | Entrypoint   |   Size |   Instructions |
|-----------------------|--------------|--------|----------------|
| [65535](#event-65535) | 0x0000       |      1 |              1 |
| [6](#event-6)         | 0x0001       |   1011 |            140 |
| [20](#event-20)       | 0x03F4       |    748 |            113 |
| [22](#event-22)       | 0x06E0       |    851 |            118 |
| [26](#event-26)       | 0x0A33       |   1208 |            170 |

## DAT References (imed_data)

|   Index | Hex Value   |   Dec Value |
|---------|-------------|-------------|
|       0 | 0x00C8      |         200 |
|       1 | 0x0000      |           0 |
|       2 | 0x003C      |          60 |
|       3 | 0x0013      |          19 |
|       4 | 0x0019      |          25 |
|       5 | 0x1E41      |        7745 |
|       6 | 0x0002      |           2 |
|       7 | 0x000A      |          10 |
|       8 | 0x1E42      |        7746 |
|       9 | 0x1E43      |        7747 |
|      10 | 0x0003      |           3 |
|      11 | 0x0005      |           5 |
|      12 | 0x0006      |           6 |
|      13 | 0x0008      |           8 |
|      14 | 0x1E44      |        7748 |
|      15 | 0x1E45      |        7749 |
|      16 | 0x1E46      |        7750 |
|      17 | 0x0001      |           1 |
|      18 | 0x1E47      |        7751 |
|      19 | 0x1E48      |        7752 |
|      20 | 0x1E49      |        7753 |
|      21 | 0x1E4A      |        7754 |
|      22 | 0x1E4B      |        7755 |
|      23 | 0x1EC0      |        7872 |
|      24 | 0x0078      |         120 |
|      25 | 0x00A3      |         163 |
|      26 | 0x0016      |          22 |
|      27 | 0x1EC1      |        7873 |
|      28 | 0x1EC2      |        7874 |
|      29 | 0x1EC3      |        7875 |
|      30 | 0x1EC4      |        7876 |
|      31 | 0x1EC5      |        7877 |
|      32 | 0x1EC6      |        7878 |
|      33 | 0x1EC7      |        7879 |
|      34 | 0x1EC8      |        7880 |
|      35 | 0x1EC9      |        7881 |
|      36 | 0x1ECA      |        7882 |
|      37 | 0x1ECB      |        7883 |
|      38 | 0x1ECC      |        7884 |
|      39 | 0x00DD      |         221 |
|      40 | 0x1ECD      |        7885 |
|      41 | 0x007F      |         127 |
|      42 | 0x1ECE      |        7886 |
|      43 | 0x1ECF      |        7887 |
|      44 | 0x1ED0      |        7888 |
|      45 | 0x1ED1      |        7889 |
|      46 | 0x1ED2      |        7890 |
|      47 | 0x1ED3      |        7891 |
|      48 | 0x1ED4      |        7892 |
|      49 | 0x1ED5      |        7893 |
|      50 | 0x0870      |        2160 |
|      51 | 0x005A      |          90 |
|      52 | 0x1ED6      |        7894 |
|      53 | 0x1ED7      |        7895 |
|      54 | 0x1ED8      |        7896 |
|      55 | 0x1EE1      |        7905 |
|      56 | 0x1EE2      |        7906 |
|      57 | 0x1EE3      |        7907 |
|      58 | 0x1EE4      |        7908 |
|      59 | 0x00B4      |         180 |
|      60 | 0x1EE5      |        7909 |
|      61 | 0x0064      |         100 |
|      62 | 0x1EE6      |        7910 |
|      63 | 0x1EE7      |        7911 |
|      64 | 0x1EE8      |        7912 |
|      65 | 0x1EE9      |        7913 |
|      66 | 0x1EEA      |        7914 |
|      67 | 0x1EEB      |        7915 |
|      68 | 0x1EEC      |        7916 |
|      69 | 0x1EED      |        7917 |
|      70 | 0x1EEE      |        7918 |
|      71 | 0x1EEF      |        7919 |
|      72 | 0x1EF0      |        7920 |
|      73 | 0x1EF1      |        7921 |
|      74 | 0x0096      |         150 |
|      75 | 0x1EF2      |        7922 |
|      76 | 0x1EF3      |        7923 |
|      77 | 0x1EF4      |        7924 |
|      78 | 0x1EF5      |        7925 |
|      79 | 0x1F5D      |        8029 |
|      80 | 0x1EF6      |        7926 |
|      81 | 0x1EF7      |        7927 |
|      82 | 0x00C9      |         201 |

## String References

- **7909**: Sis...

## Events

### Event 65535

#### Metadata

| Field        | Value   |
|--------------|---------|
| Entrypoint   | 0x0000  |
| Data Size    | 1 bytes |
| Instructions | 1       |

```
      00 01 02 03 04 05 06 07  08 09 0A 0B 0C 0D 0E 0F
      -- -- -- -- -- -- -- --  -- -- -- -- -- -- -- --
0000: 00                                                .               
```

#### Opcodes

```
  0: 0x0000 [0x00] END_REQSTACK()
```

### Event 6

#### Metadata

| Field        | Value      |
|--------------|------------|
| Entrypoint   | 0x0001     |
| Data Size    | 1011 bytes |
| Instructions | 140        |

```
      00 01 02 03 04 05 06 07  08 09 0A 0B 0C 0D 0E 0F
      -- -- -- -- -- -- -- --  -- -- -- -- -- -- -- --
0000:    20 01 42 46 01 45 00  80 F8 FF FF 7F F8 FF FF    .BF.E.........
0010: 7F 66 64 6F 31 01 80 1C  02 80 38 03 80 29 08 F0  .fdo1.....8..)..
0020: FF FF 7F 06 29 0B E6 B0  00 01 02 29 0B F0 FF FF  ....)......)....
0030: 7F 08 29 0B E1 B0 00 01  05 4A E5 B0 00 01 F0 FF  ..)......J......
0040: FF 7F 4A F0 FF FF 7F E5  B0 00 01 6F 76 E5 B0 00  ..J........ov...
0050: 01 6F 76 F0 FF FF 7F 4E  00 E5 B0 00 01 02 07 10  .ov....N........
0060: 01 80 00 73 00 4E 00 E6  B0 00 01 80 E6 B0 00 01  ...s.N..........
0070: 01 7E 00 4E 00 E1 B0 00  01 80 E1 B0 00 01 80 E5  .~.N............
0080: B0 00 01 92 01 E5 B0 00  01 92 01 E6 B0 00 01 92  ................
0090: 01 E1 B0 00 01 29 08 E5  B0 00 01 0F 45 04 80 F8  .....)......E...
00A0: FF FF 7F F8 FF FF 7F 73  30 36 30 01 80 45 00 80  .......s060..E..
00B0: F8 FF FF 7F F8 FF FF 7F  66 64 69 31 01 80 2B E5  ........fdi1..+.
00C0: B0 00 01 05 80 23 29 08  E5 B0 00 01 10 52 04 80  .....#)......R..
00D0: F8 FF FF 7F F8 FF FF 7F  73 30 36 30 45 04 80 F8  ........s060E...
00E0: FF FF 7F F8 FF FF 7F 73  30 36 31 01 80 02 07 10  .......s061.....
00F0: 01 80 00 91 02 03 01 10  06 80 4A E5 B0 00 01 E6  ..........J.....
0100: B0 00 01 4A F0 FF FF 7F  E6 B0 00 01 27 0B E6 B0  ...J........'...
0110: 00 01 03 1C 07 80 2B E6  B0 00 01 08 80 23 29 08  ......+......#).
0120: E5 B0 00 01 11 2B E5 B0  00 01 09 80 23 2A 0B E6  .....+......#*..
0130: B0 00 01 52 04 80 F8 FF  FF 7F F8 FF FF 7F 73 30  ...R..........s0
0140: 36 31 02 09 10 0A 80 00  5E 01 45 04 80 F8 FF FF  61......^.E.....
0150: 7F F8 FF FF 7F 73 30 36  34 01 80 01 C3 01 02 09  .....s064.......
0160: 10 0B 80 00 7A 01 45 04  80 F8 FF FF 7F F8 FF FF  ....z.E.........
0170: 7F 73 30 36 35 01 80 01  C3 01 02 09 10 0C 80 00  .s065...........
0180: 96 01 45 04 80 F8 FF FF  7F F8 FF FF 7F 73 30 36  ..E..........s06
0190: 35 01 80 01 C3 01 02 09  10 0D 80 00 B2 01 45 04  5.............E.
01A0: 80 F8 FF FF 7F F8 FF FF  7F 73 30 36 34 01 80 01  .........s064...
01B0: C3 01 45 04 80 F8 FF FF  7F F8 FF FF 7F 73 30 36  ..E..........s06
01C0: 32 01 80 4A E6 B0 00 01  F0 FF FF 7F 2B E6 B0 00  2..J........+...
01D0: 01 0E 80 23 6F 76 E6 B0  00 01 2B E6 B0 00 01 0F  ...#ov....+.....
01E0: 80 23 02 09 10 0A 80 00  FC 01 52 04 80 F8 FF FF  .#........R.....
01F0: 7F F8 FF FF 7F 73 30 36  34 01 59 02 02 09 10 0B  .....s064.Y.....
0200: 80 00 16 02 52 04 80 F8  FF FF 7F F8 FF FF 7F 73  ....R..........s
0210: 30 36 35 01 59 02 02 09  10 0C 80 00 30 02 52 04  065.Y.......0.R.
0220: 80 F8 FF FF 7F F8 FF FF  7F 73 30 36 35 01 59 02  .........s065.Y.
0230: 02 09 10 0D 80 00 4A 02  52 04 80 F8 FF FF 7F F8  ......J.R.......
0240: FF FF 7F 73 30 36 34 01  59 02 52 04 80 F8 FF FF  ...s064.Y.R.....
0250: 7F F8 FF FF 7F 73 30 36  32 45 04 80 F8 FF FF 7F  .....s062E......
0260: F8 FF FF 7F 73 30 36 33  01 80 7B E6 B0 00 01 27  ....s063..{....'
0270: 0B E6 B0 00 01 04 2B E6  B0 00 01 10 80 23 2A 0B  ......+......#*.
0280: E6 B0 00 01 27 0B E6 B0  00 01 05 1C 02 80 01 BE  ....'...........
0290: 03 03 01 10 11 80 4A E5  B0 00 01 E1 B0 00 01 4A  ......J........J
02A0: F0 FF FF 7F E1 B0 00 01  27 0B E1 B0 00 01 06 1C  ........'.......
02B0: 07 80 2B E1 B0 00 01 12  80 23 29 08 E5 B0 00 01  ..+......#).....
02C0: 11 2B E1 B0 00 01 13 80  23 2A 0B E1 B0 00 01 52  .+......#*.....R
02D0: 04 80 F8 FF FF 7F F8 FF  FF 7F 73 30 36 31 02 09  ..........s061..
02E0: 10 0B 80 00 FA 02 45 04  80 F8 FF FF 7F F8 FF FF  ......E.........
02F0: 7F 73 30 36 37 01 80 01  27 03 02 09 10 0C 80 00  .s067...'.......
0300: 16 03 45 04 80 F8 FF FF  7F F8 FF FF 7F 73 30 36  ..E..........s06
0310: 37 01 80 01 27 03 45 04  80 F8 FF FF 7F F8 FF FF  7...'.E.........
0320: 7F 73 30 36 36 01 80 4A  E1 B0 00 01 F0 FF FF 7F  .s066..J........
0330: 2B E1 B0 00 01 14 80 23  2B E1 B0 00 01 15 80 23  +......#+......#
0340: 6F 76 E1 B0 00 01 02 09  10 0B 80 00 60 03 52 04  ov..........`.R.
0350: 80 F8 FF FF 7F F8 FF FF  7F 73 30 36 37 01 89 03  .........s067...
0360: 02 09 10 0C 80 00 7A 03  52 04 80 F8 FF FF 7F F8  ......z.R.......
0370: FF FF 7F 73 30 36 37 01  89 03 52 04 80 F8 FF FF  ...s067...R.....
0380: 7F F8 FF FF 7F 73 30 36  36 45 04 80 F8 FF FF 7F  .....s066E......
0390: F8 FF FF 7F 73 30 36 33  01 80 7B E6 B0 00 01 27  ....s063..{....'
03A0: 0B E1 B0 00 01 07 2B E1  B0 00 01 16 80 23 2A 0B  ......+......#*.
03B0: E1 B0 00 01 27 0B E1 B0  00 01 08 1C 02 80 45 00  ....'.........E.
03C0: 80 F0 FF FF 7F F0 FF FF  7F 66 64 6F 31 01 80 1C  .........fdo1...
03D0: 02 80 4E 00 F0 FF FF 7F  80 F0 FF FF 7F 46 00 45  ..N..........F.E
03E0: 00 80 F0 FF FF 7F F0 FF  FF 7F 66 64 69 31 01 80  ..........fdi1..
03F0: 20 00 21 00                                        .!.            
```

#### Opcodes

```
  0: 0x0001 [0x20] SET_CLI_EVENT_UC_FLAG: Lock player control
  1: 0x0003 [0x42] SET_CLI_EVENT_CANCEL_DATA()
  2: 0x0004 [0x46] CAMERA_CONTROL: Disable user control
  3: 0x0006 [0x45] LOAD_SCHEDULED_TASK: Load scheduler "fdo1" with entities [EventEntity, EventEntity], work=[200*, 0*]
  4: 0x0017 [0x1C] WAIT(60* ticks)
  5: 0x001A [0x38] SET_CLIENT_EVENT_MODE(mode=19*)
  6: 0x001D [0x29] REQ_SET_WAIT(priority=0x08, entity_id=LocalPlayer, tag_num=0x06)
  7: 0x0024 [0x29] REQ_SET_WAIT(priority=0x0B, entity_id=Jabbos (ID: 16822502/0x0100B0E6), tag_num=0x02)
  8: 0x002B [0x29] REQ_SET_WAIT(priority=0x0B, entity_id=LocalPlayer, tag_num=0x08)
  9: 0x0032 [0x29] REQ_SET_WAIT(priority=0x0B, entity_id=Brakobrik (ID: 16822497/0x0100B0E1), tag_num=0x05)
 10: 0x0039 [0x4A] Rakorok (ID: 16822501/0x0100B0E5) looks at LocalPlayer
 11: 0x0042 [0x4A] LocalPlayer looks at Rakorok (ID: 16822501/0x0100B0E5)
 12: 0x004B [0x6F] WAIT_FRAME_DELAY: Yield until WaitTime reaches zero
 13: 0x004C [0x76] CHECK_ENTITY_RENDER_FLAGS: Wait until Rakorok (ID: 16822501/0x0100B0E5) Render.Flags0 and Render.Flags3 conditions are met
 14: 0x0051 [0x6F] WAIT_FRAME_DELAY: Yield until WaitTime reaches zero
 15: 0x0052 [0x76] CHECK_ENTITY_RENDER_FLAGS: Wait until LocalPlayer Render.Flags0 and Render.Flags3 conditions are met
 16: 0x0057 [0x4E] SET_ENTITY_HIDE_FLAG: Show Rakorok (ID: 16822501/0x0100B0E5)
 17: 0x005D [0x02] IF !(Work_Zone[7] == 0*) GOTO 0x0073
 18: 0x0065 [0x4E] SET_ENTITY_HIDE_FLAG: Show Jabbos (ID: 16822502/0x0100B0E6)
 19: 0x006B [0x80] LOAD_WAIT(entity=Jabbos (ID: 16822502/0x0100B0E6))
 20: 0x0070 [0x01] GOTO 0x007E
 21: 0x0073 [0x4E] SET_ENTITY_HIDE_FLAG: Show Brakobrik (ID: 16822497/0x0100B0E1)
 22: 0x0079 [0x80] LOAD_WAIT(entity=Brakobrik (ID: 16822497/0x0100B0E1))

SUBROUTINE_007E:
 23: 0x007E [0x80] LOAD_WAIT(entity=Rakorok (ID: 16822501/0x0100B0E5))
 24: 0x0083 [0x92] Rakorok (ID: 16822501/0x0100B0E5)->Render.Flags3 ^= 0x01
 25: 0x0089 [0x92] Jabbos (ID: 16822502/0x0100B0E6)->Render.Flags3 ^= 0x01
 26: 0x008F [0x92] Brakobrik (ID: 16822497/0x0100B0E1)->Render.Flags3 ^= 0x01
 27: 0x0095 [0x29] REQ_SET_WAIT(priority=0x08, entity_id=Rakorok (ID: 16822501/0x0100B0E5), tag_num=0x0F)
 28: 0x009C [0x45] LOAD_SCHEDULED_TASK: Load scheduler "s060" with entities [EventEntity, EventEntity], work=[25*, 0*]
 29: 0x00AD [0x45] LOAD_SCHEDULED_TASK: Load scheduler "fdi1" with entities [EventEntity, EventEntity], work=[200*, 0*]
 30: 0x00BE [0x2B] Rakorok (ID: 16822501/0x0100B0E5) [7745*]:
    → "Nashinchnge baidis! Yupipul taimiz upp!"
 31: 0x00C5 [0x23] WAIT_FOR_DIALOG_INTERACTION
 32: 0x00C6 [0x29] REQ_SET_WAIT(priority=0x08, entity_id=Rakorok (ID: 16822501/0x0100B0E5), tag_num=0x10)
 33: 0x00CD [0x52] END_LOAD_SCHEDULER: End scheduler "s060" with entities [EventEntity, EventEntity], work=25*
 34: 0x00DC [0x45] LOAD_SCHEDULED_TASK: Load scheduler "s061" with entities [EventEntity, EventEntity], work=[25*, 0*]
 35: 0x00ED [0x02] IF !(Work_Zone[7] == 0*) GOTO 0x0291
 36: 0x00F5 [0x03] Work_Zone[1] = 2*
 37: 0x00FA [0x4A] Rakorok (ID: 16822501/0x0100B0E5) looks at Jabbos (ID: 16822502/0x0100B0E6)
 38: 0x0103 [0x4A] LocalPlayer looks at Jabbos (ID: 16822502/0x0100B0E6)
 39: 0x010C [0x27] REQ_SET(priority=0x0B, entity_id=Jabbos (ID: 16822502/0x0100B0E6), tag_num=0x03)
 40: 0x0113 [0x1C] WAIT(10* ticks)
 41: 0x0116 [0x2B] Jabbos (ID: 16822502/0x0100B0E6) [7746*]:
    → "Karmdn! Litmi handurza uplda!"
 42: 0x011D [0x23] WAIT_FOR_DIALOG_INTERACTION
 43: 0x011E [0x29] REQ_SET_WAIT(priority=0x08, entity_id=Rakorok (ID: 16822501/0x0100B0E5), tag_num=0x11)
 44: 0x0125 [0x2B] Rakorok (ID: 16822501/0x0100B0E5) [7747*]:
    → "...Urrr!?"
 45: 0x012C [0x23] WAIT_FOR_DIALOG_INTERACTION
 46: 0x012D [0x2A] GET_REQ_LEVEL(level=11, entity_id=Jabbos (ID: 16822502/0x0100B0E6))
 47: 0x0133 [0x52] END_LOAD_SCHEDULER: End scheduler "s061" with entities [EventEntity, EventEntity], work=25*
 48: 0x0142 [0x02] IF !(Work_Zone[9] == 3*) GOTO 0x015E
 49: 0x014A [0x45] LOAD_SCHEDULED_TASK: Load scheduler "s064" with entities [EventEntity, EventEntity], work=[25*, 0*]
 50: 0x015B [0x01] GOTO 0x01C3
 51: 0x015E [0x02] IF !(Work_Zone[9] == 5*) GOTO 0x017A
 52: 0x0166 [0x45] LOAD_SCHEDULED_TASK: Load scheduler "s065" with entities [EventEntity, EventEntity], work=[25*, 0*]
 53: 0x0177 [0x01] GOTO 0x01C3
 54: 0x017A [0x02] IF !(Work_Zone[9] == 6*) GOTO 0x0196
 55: 0x0182 [0x45] LOAD_SCHEDULED_TASK: Load scheduler "s065" with entities [EventEntity, EventEntity], work=[25*, 0*]
 56: 0x0193 [0x01] GOTO 0x01C3
 57: 0x0196 [0x02] IF !(Work_Zone[9] == 8*) GOTO 0x01B2
 58: 0x019E [0x45] LOAD_SCHEDULED_TASK: Load scheduler "s064" with entities [EventEntity, EventEntity], work=[25*, 0*]
 59: 0x01AF [0x01] GOTO 0x01C3
 60: 0x01B2 [0x45] LOAD_SCHEDULED_TASK: Load scheduler "s062" with entities [EventEntity, EventEntity], work=[25*, 0*]

SUBROUTINE_01C3:
 61: 0x01C3 [0x4A] Jabbos (ID: 16822502/0x0100B0E6) looks at LocalPlayer
 62: 0x01CC [0x2B] Jabbos (ID: 16822502/0x0100B0E6) [7748*]:
    → "That...$3...is very...dangerous...here... I will...take it...for you..."
 63: 0x01D3 [0x23] WAIT_FOR_DIALOG_INTERACTION
 64: 0x01D4 [0x6F] WAIT_FRAME_DELAY: Yield until WaitTime reaches zero
 65: 0x01D5 [0x76] CHECK_ENTITY_RENDER_FLAGS: Wait until Jabbos (ID: 16822502/0x0100B0E6) Render.Flags0 and Render.Flags3 conditions are met
 66: 0x01DA [0x2B] Jabbos (ID: 16822502/0x0100B0E6) [7749*]:
    → "You...should leave...now...and not...turn back... That...would be...for the...best."
 67: 0x01E1 [0x23] WAIT_FOR_DIALOG_INTERACTION
 68: 0x01E2 [0x02] IF !(Work_Zone[9] == 3*) GOTO 0x01FC
 69: 0x01EA [0x52] END_LOAD_SCHEDULER: End scheduler "s064" with entities [EventEntity, EventEntity], work=25*
 70: 0x01F9 [0x01] GOTO 0x0259
 71: 0x01FC [0x02] IF !(Work_Zone[9] == 5*) GOTO 0x0216
 72: 0x0204 [0x52] END_LOAD_SCHEDULER: End scheduler "s065" with entities [EventEntity, EventEntity], work=25*
 73: 0x0213 [0x01] GOTO 0x0259
 74: 0x0216 [0x02] IF !(Work_Zone[9] == 6*) GOTO 0x0230
 75: 0x021E [0x52] END_LOAD_SCHEDULER: End scheduler "s065" with entities [EventEntity, EventEntity], work=25*
 76: 0x022D [0x01] GOTO 0x0259
 77: 0x0230 [0x02] IF !(Work_Zone[9] == 8*) GOTO 0x024A
 78: 0x0238 [0x52] END_LOAD_SCHEDULER: End scheduler "s064" with entities [EventEntity, EventEntity], work=25*
 79: 0x0247 [0x01] GOTO 0x0259
 80: 0x024A [0x52] END_LOAD_SCHEDULER: End scheduler "s062" with entities [EventEntity, EventEntity], work=25*

SUBROUTINE_0259:
 81: 0x0259 [0x45] LOAD_SCHEDULED_TASK: Load scheduler "s063" with entities [EventEntity, EventEntity], work=[25*, 0*]
 82: 0x026A [0x7B] Jabbos (ID: 16822502/0x0100B0E6) stops talking
 83: 0x026F [0x27] REQ_SET(priority=0x0B, entity_id=Jabbos (ID: 16822502/0x0100B0E6), tag_num=0x04)
 84: 0x0276 [0x2B] Jabbos (ID: 16822502/0x0100B0E6) [7750*]:
    → "Listen...to me... Do not...tell...anyone...what...you saw...here..."
 85: 0x027D [0x23] WAIT_FOR_DIALOG_INTERACTION
 86: 0x027E [0x2A] GET_REQ_LEVEL(level=11, entity_id=Jabbos (ID: 16822502/0x0100B0E6))
 87: 0x0284 [0x27] REQ_SET(priority=0x0B, entity_id=Jabbos (ID: 16822502/0x0100B0E6), tag_num=0x05)
 88: 0x028B [0x1C] WAIT(60* ticks)
 89: 0x028E [0x01] GOTO 0x03BE
 90: 0x0291 [0x03] Work_Zone[1] = 1*
 91: 0x0296 [0x4A] Rakorok (ID: 16822501/0x0100B0E5) looks at Brakobrik (ID: 16822497/0x0100B0E1)
 92: 0x029F [0x4A] LocalPlayer looks at Brakobrik (ID: 16822497/0x0100B0E1)
 93: 0x02A8 [0x27] REQ_SET(priority=0x0B, entity_id=Brakobrik (ID: 16822497/0x0100B0E1), tag_num=0x06)
 94: 0x02AF [0x1C] WAIT(10* ticks)
 95: 0x02B2 [0x2B] Brakobrik (ID: 16822497/0x0100B0E1) [7751*]:
    → "Karmdn! Litmi handurza uplda!"
 96: 0x02B9 [0x23] WAIT_FOR_DIALOG_INTERACTION
 97: 0x02BA [0x29] REQ_SET_WAIT(priority=0x08, entity_id=Rakorok (ID: 16822501/0x0100B0E5), tag_num=0x11)
 98: 0x02C1 [0x2B] Brakobrik (ID: 16822497/0x0100B0E1) [7752*]:
    → "...Urrr!?"
 99: 0x02C8 [0x23] WAIT_FOR_DIALOG_INTERACTION
100: 0x02C9 [0x2A] GET_REQ_LEVEL(level=11, entity_id=Brakobrik (ID: 16822497/0x0100B0E1))
101: 0x02CF [0x52] END_LOAD_SCHEDULER: End scheduler "s061" with entities [EventEntity, EventEntity], work=25*
102: 0x02DE [0x02] IF !(Work_Zone[9] == 5*) GOTO 0x02FA
103: 0x02E6 [0x45] LOAD_SCHEDULED_TASK: Load scheduler "s067" with entities [EventEntity, EventEntity], work=[25*, 0*]
104: 0x02F7 [0x01] GOTO 0x0327
105: 0x02FA [0x02] IF !(Work_Zone[9] == 6*) GOTO 0x0316
106: 0x0302 [0x45] LOAD_SCHEDULED_TASK: Load scheduler "s067" with entities [EventEntity, EventEntity], work=[25*, 0*]
107: 0x0313 [0x01] GOTO 0x0327
108: 0x0316 [0x45] LOAD_SCHEDULED_TASK: Load scheduler "s066" with entities [EventEntity, EventEntity], work=[25*, 0*]

SUBROUTINE_0327:
109: 0x0327 [0x4A] Brakobrik (ID: 16822497/0x0100B0E1) looks at LocalPlayer
110: 0x0330 [0x2B] Brakobrik (ID: 16822497/0x0100B0E1) [7753*]:
    → "That...$3...very...dangerous...here. Me...take..."
111: 0x0337 [0x23] WAIT_FOR_DIALOG_INTERACTION
112: 0x0338 [0x2B] Brakobrik (ID: 16822497/0x0100B0E1) [7754*]:
    → "I...learned...speak...from...Galka."
113: 0x033F [0x23] WAIT_FOR_DIALOG_INTERACTION
114: 0x0340 [0x6F] WAIT_FRAME_DELAY: Yield until WaitTime reaches zero
115: 0x0341 [0x76] CHECK_ENTITY_RENDER_FLAGS: Wait until Brakobrik (ID: 16822497/0x0100B0E1) Render.Flags0 and Render.Flags3 conditions are met
116: 0x0346 [0x02] IF !(Work_Zone[9] == 5*) GOTO 0x0360
117: 0x034E [0x52] END_LOAD_SCHEDULER: End scheduler "s067" with entities [EventEntity, EventEntity], work=25*
118: 0x035D [0x01] GOTO 0x0389
119: 0x0360 [0x02] IF !(Work_Zone[9] == 6*) GOTO 0x037A
120: 0x0368 [0x52] END_LOAD_SCHEDULER: End scheduler "s067" with entities [EventEntity, EventEntity], work=25*
121: 0x0377 [0x01] GOTO 0x0389
122: 0x037A [0x52] END_LOAD_SCHEDULER: End scheduler "s066" with entities [EventEntity, EventEntity], work=25*

SUBROUTINE_0389:
123: 0x0389 [0x45] LOAD_SCHEDULED_TASK: Load scheduler "s063" with entities [EventEntity, EventEntity], work=[25*, 0*]
124: 0x039A [0x7B] Jabbos (ID: 16822502/0x0100B0E6) stops talking
125: 0x039F [0x27] REQ_SET(priority=0x0B, entity_id=Brakobrik (ID: 16822497/0x0100B0E1), tag_num=0x07)
126: 0x03A6 [0x2B] Brakobrik (ID: 16822497/0x0100B0E1) [7755*]:
    → "Galka...not here...not here...now. You...should...leave..."
127: 0x03AD [0x23] WAIT_FOR_DIALOG_INTERACTION
128: 0x03AE [0x2A] GET_REQ_LEVEL(level=11, entity_id=Brakobrik (ID: 16822497/0x0100B0E1))
129: 0x03B4 [0x27] REQ_SET(priority=0x0B, entity_id=Brakobrik (ID: 16822497/0x0100B0E1), tag_num=0x08)
130: 0x03BB [0x1C] WAIT(60* ticks)

SUBROUTINE_03BE:
131: 0x03BE [0x45] LOAD_SCHEDULED_TASK: Load scheduler "fdo1" with entities [LocalPlayer, LocalPlayer], work=[200*, 0*]
132: 0x03CF [0x1C] WAIT(60* ticks)
133: 0x03D2 [0x4E] SET_ENTITY_HIDE_FLAG: Show LocalPlayer
134: 0x03D8 [0x80] LOAD_WAIT(entity=LocalPlayer)
135: 0x03DD [0x46] CAMERA_CONTROL: Restore default settings
136: 0x03DF [0x45] LOAD_SCHEDULED_TASK: Load scheduler "fdi1" with entities [LocalPlayer, LocalPlayer], work=[200*, 0*]
137: 0x03F0 [0x20] SET_CLI_EVENT_UC_FLAG: Unlock player control
138: 0x03F2 [0x21] END_EVENT
139: 0x03F3 [0x00] END_REQSTACK()
```

### Event 20

#### Metadata

| Field        | Value     |
|--------------|-----------|
| Entrypoint   | 0x03F4    |
| Data Size    | 748 bytes |
| Instructions | 113       |

```
      00 01 02 03 04 05 06 07  08 09 0A 0B 0C 0D 0E 0F
      -- -- -- -- -- -- -- --  -- -- -- -- -- -- -- --
03F0:             20 01 42 46  01 4A EC B0 00 01 F0 FF       .BF.J......
0400: FF 7F 6F 76 EC B0 00 01  29 08 EC B0 00 01 0F 2B  ..ov....)......+
0410: EC B0 00 01 17 80 23 29  08 EC B0 00 01 10 5D 01  ......#)......].
0420: 80 18 80 45 00 80 F8 FF  FF 7F F8 FF FF 7F 66 64  ...E..........fd
0430: 6F 31 01 80 1C 18 80 38  03 80 29 08 F0 FF FF 7F  o1.....8..).....
0440: 06 4E 00 ED B0 00 01 80  ED B0 00 01 29 0B F0 FF  .N..........)...
0450: FF 7F 0E 29 0B ED B0 00  01 2B 4A EC B0 00 01 ED  ...).....+J.....
0460: B0 00 01 4A ED B0 00 01  F0 FF FF 7F 4A F0 FF FF  ...J........J...
0470: 7F ED B0 00 01 6F 76 EC  B0 00 01 6F 76 F0 FF FF  .....ov....ov...
0480: 7F 6F 76 ED B0 00 01 29  08 EC B0 00 01 11 29 08  .ov....)......).
0490: EC B0 00 01 12 5C 00 19  80 5C 01 19 80 45 1A 80  .....\...\...E..
04A0: F8 FF FF 7F F8 FF FF 7F  73 30 33 39 01 80 45 00  ........s039..E.
04B0: 80 F8 FF FF 7F F8 FF FF  7F 66 64 69 31 01 80 29  .........fdi1..)
04C0: 08 ED B0 00 01 01 2B ED  B0 00 01 1B 80 23 29 08  ......+......#).
04D0: ED B0 00 01 02 52 1A 80  F8 FF FF 7F F8 FF FF 7F  .....R..........
04E0: 73 30 33 39 45 1A 80 F8  FF FF 7F F8 FF FF 7F 73  s039E..........s
04F0: 30 33 38 01 80 29 08 ED  B0 00 01 25 2B ED B0 00  038..).....%+...
0500: 01 1C 80 23 2B ED B0 00  01 1D 80 23 29 08 ED B0  ...#+......#)...
0510: 00 01 26 29 08 ED B0 00  01 27 29 08 ED B0 00 01  ..&).....').....
0520: 28 27 0B ED B0 00 01 2C  2B ED B0 00 01 1E 80 23  ('.....,+......#
0530: 2A 0B ED B0 00 01 29 08  ED B0 00 01 1D 2B ED B0  *.....)......+..
0540: 00 01 1F 80 23 29 08 ED  B0 00 01 1E 52 1A 80 F8  ....#)......R...
0550: FF FF 7F F8 FF FF 7F 73  30 33 38 45 1A 80 F8 FF  .......s038E....
0560: FF 7F F8 FF FF 7F 73 30  34 30 01 80 29 08 ED B0  ......s040..)...
0570: 00 01 1F 4A ED B0 00 01  EC B0 00 01 29 08 EC B0  ...J........)...
0580: 00 01 1D 2B EC B0 00 01  20 80 23 2B EC B0 00 01  ...+.... .#+....
0590: 21 80 23 29 08 EC B0 00  01 1E 29 08 ED B0 00 01  !.#)......).....
05A0: 20 6F 76 ED B0 00 01 29  08 ED B0 00 01 03 29 08   ov....)......).
05B0: EC B0 00 01 1F 2B ED B0  00 01 22 80 23 29 08 EC  .....+....".#)..
05C0: B0 00 01 20 29 08 ED B0  00 01 04 52 1A 80 F8 FF  ... )......R....
05D0: FF 7F F8 FF FF 7F 73 30  34 30 45 00 80 F0 FF FF  ......s040E.....
05E0: 7F F0 FF FF 7F 6F 76 6C  31 01 80 45 1A 80 F8 FF  .....ovl1..E....
05F0: FF 7F F8 FF FF 7F 73 30  34 31 01 80 79 00 F0 FF  ......s041..y...
0600: FF 7F EC B0 00 01 29 08  EC B0 00 01 25 2B EC B0  ......).....%+..
0610: 00 01 23 80 23 29 08 EC  B0 00 01 26 29 08 EC B0  ..#.#).....&)...
0620: 00 01 27 2B EC B0 00 01  24 80 23 29 08 EC B0 00  ..'+....$.#)....
0630: 01 28 52 1A 80 F8 FF FF  7F F8 FF FF 7F 73 30 34  .(R..........s04
0640: 31 45 1A 80 F8 FF FF 7F  F8 FF FF 7F 73 30 34 32  1E..........s042
0650: 01 80 92 01 EC B0 00 01  4A F0 FF FF 7F EC B0 00  ........J.......
0660: 01 4A EC B0 00 01 F0 FF  FF 7F 6F 76 EC B0 00 01  .J........ov....
0670: 29 08 EC B0 00 01 0F 2B  EC B0 00 01 25 80 23 2B  )......+....%.#+
0680: EC B0 00 01 26 80 23 5D  01 80 18 80 45 00 80 F0  ....&.#]....E...
0690: FF FF 7F F0 FF FF 7F 66  64 6F 31 01 80 1C 18 80  .......fdo1.....
06A0: 29 08 EC B0 00 01 10 52  1A 80 F8 FF FF 7F F8 FF  )......R........
06B0: FF 7F 73 30 34 32 5C 00  27 80 5C 01 27 80 4E 00  ..s042\.'.\.'.N.
06C0: F0 FF FF 7F 80 F0 FF FF  7F 46 00 45 00 80 F0 FF  .........F.E....
06D0: FF 7F F0 FF FF 7F 66 64  69 31 01 80 20 00 21 00  ......fdi1.. .!.
```

#### Opcodes

```
  0: 0x03F4 [0x20] SET_CLI_EVENT_UC_FLAG: Lock player control
  1: 0x03F6 [0x42] SET_CLI_EVENT_CANCEL_DATA()
  2: 0x03F7 [0x46] CAMERA_CONTROL: Disable user control
  3: 0x03F9 [0x4A] Koblakiq (ID: 16822508/0x0100B0EC) looks at LocalPlayer
  4: 0x0402 [0x6F] WAIT_FRAME_DELAY: Yield until WaitTime reaches zero
  5: 0x0403 [0x76] CHECK_ENTITY_RENDER_FLAGS: Wait until Koblakiq (ID: 16822508/0x0100B0EC) Render.Flags0 and Render.Flags3 conditions are met
  6: 0x0408 [0x29] REQ_SET_WAIT(priority=0x08, entity_id=Koblakiq (ID: 16822508/0x0100B0EC), tag_num=0x0F)
  7: 0x040F [0x2B] Koblakiq (ID: 16822508/0x0100B0EC) [7872*]:
    → "My little brother has come back! Zeelozok, welcome home!"
  8: 0x0416 [0x23] WAIT_FOR_DIALOG_INTERACTION
  9: 0x0417 [0x29] REQ_SET_WAIT(priority=0x08, entity_id=Koblakiq (ID: 16822508/0x0100B0EC), tag_num=0x10)
 10: 0x041E [0x5D] SET_MUSIC_VOLUME(volume=0*, fade_time=120*)
 11: 0x0423 [0x45] LOAD_SCHEDULED_TASK: Load scheduler "fdo1" with entities [EventEntity, EventEntity], work=[200*, 0*]
 12: 0x0434 [0x1C] WAIT(120* ticks)
 13: 0x0437 [0x38] SET_CLIENT_EVENT_MODE(mode=19*)
 14: 0x043A [0x29] REQ_SET_WAIT(priority=0x08, entity_id=LocalPlayer, tag_num=0x06)
 15: 0x0441 [0x4E] SET_ENTITY_HIDE_FLAG: Show Zeelozok (ID: 16822509/0x0100B0ED)
 16: 0x0447 [0x80] LOAD_WAIT(entity=Zeelozok (ID: 16822509/0x0100B0ED))
 17: 0x044C [0x29] REQ_SET_WAIT(priority=0x0B, entity_id=LocalPlayer, tag_num=0x0E)
 18: 0x0453 [0x29] REQ_SET_WAIT(priority=0x0B, entity_id=Zeelozok (ID: 16822509/0x0100B0ED), tag_num=0x2B)
 19: 0x045A [0x4A] Koblakiq (ID: 16822508/0x0100B0EC) looks at Zeelozok (ID: 16822509/0x0100B0ED)
 20: 0x0463 [0x4A] Zeelozok (ID: 16822509/0x0100B0ED) looks at LocalPlayer
 21: 0x046C [0x4A] LocalPlayer looks at Zeelozok (ID: 16822509/0x0100B0ED)
 22: 0x0475 [0x6F] WAIT_FRAME_DELAY: Yield until WaitTime reaches zero
 23: 0x0476 [0x76] CHECK_ENTITY_RENDER_FLAGS: Wait until Koblakiq (ID: 16822508/0x0100B0EC) Render.Flags0 and Render.Flags3 conditions are met
 24: 0x047B [0x6F] WAIT_FRAME_DELAY: Yield until WaitTime reaches zero
 25: 0x047C [0x76] CHECK_ENTITY_RENDER_FLAGS: Wait until LocalPlayer Render.Flags0 and Render.Flags3 conditions are met
 26: 0x0481 [0x6F] WAIT_FRAME_DELAY: Yield until WaitTime reaches zero
 27: 0x0482 [0x76] CHECK_ENTITY_RENDER_FLAGS: Wait until Zeelozok (ID: 16822509/0x0100B0ED) Render.Flags0 and Render.Flags3 conditions are met
 28: 0x0487 [0x29] REQ_SET_WAIT(priority=0x08, entity_id=Koblakiq (ID: 16822508/0x0100B0EC), tag_num=0x11)
 29: 0x048E [0x29] REQ_SET_WAIT(priority=0x08, entity_id=Koblakiq (ID: 16822508/0x0100B0EC), tag_num=0x12)
 30: 0x0495 [0x5C] MUSIC_CONTROL: Set Idle (Day) music to song 163*
 31: 0x0499 [0x5C] MUSIC_CONTROL: Set Idle (Night) music to song 163*
 32: 0x049D [0x45] LOAD_SCHEDULED_TASK: Load scheduler "s039" with entities [EventEntity, EventEntity], work=[22*, 0*]
 33: 0x04AE [0x45] LOAD_SCHEDULED_TASK: Load scheduler "fdi1" with entities [EventEntity, EventEntity], work=[200*, 0*]
 34: 0x04BF [0x29] REQ_SET_WAIT(priority=0x08, entity_id=Zeelozok (ID: 16822509/0x0100B0ED), tag_num=0x01)
 35: 0x04C6 [0x2B] Zeelozok (ID: 16822509/0x0100B0ED) [7873*]:
    → "I'm Zeelozok. Thanks for all your help."
 36: 0x04CD [0x23] WAIT_FOR_DIALOG_INTERACTION
 37: 0x04CE [0x29] REQ_SET_WAIT(priority=0x08, entity_id=Zeelozok (ID: 16822509/0x0100B0ED), tag_num=0x02)
 38: 0x04D5 [0x52] END_LOAD_SCHEDULER: End scheduler "s039" with entities [EventEntity, EventEntity], work=22*
 39: 0x04E4 [0x45] LOAD_SCHEDULED_TASK: Load scheduler "s038" with entities [EventEntity, EventEntity], work=[22*, 0*]
 40: 0x04F5 [0x29] REQ_SET_WAIT(priority=0x08, entity_id=Zeelozok (ID: 16822509/0x0100B0ED), tag_num=0x25)
 41: 0x04FC [0x2B] Zeelozok (ID: 16822509/0x0100B0ED) [7874*]:
    → "I learned some things from visiting the Orcs, the Yagudo, and the Quadav. My travels have taught me much."
 42: 0x0503 [0x23] WAIT_FOR_DIALOG_INTERACTION
 43: 0x0504 [0x2B] Zeelozok (ID: 16822509/0x0100B0ED) [7875*]:
    → "Orcs will follow anyone with strength. Yagudo will follow anyone who holds their sacred vessel. Quadav will follow anyone who can give them status."
 44: 0x050B [0x23] WAIT_FOR_DIALOG_INTERACTION
 45: 0x050C [0x29] REQ_SET_WAIT(priority=0x08, entity_id=Zeelozok (ID: 16822509/0x0100B0ED), tag_num=0x26)
 46: 0x0513 [0x29] REQ_SET_WAIT(priority=0x08, entity_id=Zeelozok (ID: 16822509/0x0100B0ED), tag_num=0x27)
 47: 0x051A [0x29] REQ_SET_WAIT(priority=0x08, entity_id=Zeelozok (ID: 16822509/0x0100B0ED), tag_num=0x28)
 48: 0x0521 [0x27] REQ_SET(priority=0x0B, entity_id=Zeelozok (ID: 16822509/0x0100B0ED), tag_num=0x2C)
 49: 0x0528 [0x2B] Zeelozok (ID: 16822509/0x0100B0ED) [7876*]:
    → "And then I realized: we should conquer the Kindred demons. We would then hold the sacred vessel, and status would cease to have meaning."
 50: 0x052F [0x23] WAIT_FOR_DIALOG_INTERACTION
 51: 0x0530 [0x2A] GET_REQ_LEVEL(level=11, entity_id=Zeelozok (ID: 16822509/0x0100B0ED))
 52: 0x0536 [0x29] REQ_SET_WAIT(priority=0x08, entity_id=Zeelozok (ID: 16822509/0x0100B0ED), tag_num=0x1D)
 53: 0x053D [0x2B] Zeelozok (ID: 16822509/0x0100B0ED) [7877*]:
    → "There are too many demons to hack up, though. That's why I'm just going to kill their Divinity of Darkness."
 54: 0x0544 [0x23] WAIT_FOR_DIALOG_INTERACTION
 55: 0x0545 [0x29] REQ_SET_WAIT(priority=0x08, entity_id=Zeelozok (ID: 16822509/0x0100B0ED), tag_num=0x1E)
 56: 0x054C [0x52] END_LOAD_SCHEDULER: End scheduler "s038" with entities [EventEntity, EventEntity], work=22*
 57: 0x055B [0x45] LOAD_SCHEDULED_TASK: Load scheduler "s040" with entities [EventEntity, EventEntity], work=[22*, 0*]
 58: 0x056C [0x29] REQ_SET_WAIT(priority=0x08, entity_id=Zeelozok (ID: 16822509/0x0100B0ED), tag_num=0x1F)
 59: 0x0573 [0x4A] Zeelozok (ID: 16822509/0x0100B0ED) looks at Koblakiq (ID: 16822508/0x0100B0EC)
 60: 0x057C [0x29] REQ_SET_WAIT(priority=0x08, entity_id=Koblakiq (ID: 16822508/0x0100B0EC), tag_num=0x1D)
 61: 0x0583 [0x2B] Koblakiq (ID: 16822508/0x0100B0EC) [7878*]:
    → "Zeelozok! That's a brilliant plan!"
 62: 0x058A [0x23] WAIT_FOR_DIALOG_INTERACTION
 63: 0x058B [0x2B] Koblakiq (ID: 16822508/0x0100B0EC) [7879*]:
    → "My brother has grown wise on his travels!"
 64: 0x0592 [0x23] WAIT_FOR_DIALOG_INTERACTION
 65: 0x0593 [0x29] REQ_SET_WAIT(priority=0x08, entity_id=Koblakiq (ID: 16822508/0x0100B0EC), tag_num=0x1E)
 66: 0x059A [0x29] REQ_SET_WAIT(priority=0x08, entity_id=Zeelozok (ID: 16822509/0x0100B0ED), tag_num=0x20)
 67: 0x05A1 [0x6F] WAIT_FRAME_DELAY: Yield until WaitTime reaches zero
 68: 0x05A2 [0x76] CHECK_ENTITY_RENDER_FLAGS: Wait until Zeelozok (ID: 16822509/0x0100B0ED) Render.Flags0 and Render.Flags3 conditions are met
 69: 0x05A7 [0x29] REQ_SET_WAIT(priority=0x08, entity_id=Zeelozok (ID: 16822509/0x0100B0ED), tag_num=0x03)
 70: 0x05AE [0x29] REQ_SET_WAIT(priority=0x08, entity_id=Koblakiq (ID: 16822508/0x0100B0EC), tag_num=0x1F)
 71: 0x05B5 [0x2B] Zeelozok (ID: 16822509/0x0100B0ED) [7880*]:
    → "Sis, I'm going to Castle Zvahl to find the Divinity of Darkness."
 72: 0x05BC [0x23] WAIT_FOR_DIALOG_INTERACTION
 73: 0x05BD [0x29] REQ_SET_WAIT(priority=0x08, entity_id=Koblakiq (ID: 16822508/0x0100B0EC), tag_num=0x20)
 74: 0x05C4 [0x29] REQ_SET_WAIT(priority=0x08, entity_id=Zeelozok (ID: 16822509/0x0100B0ED), tag_num=0x04)
 75: 0x05CB [0x52] END_LOAD_SCHEDULER: End scheduler "s040" with entities [EventEntity, EventEntity], work=22*
 76: 0x05DA [0x45] LOAD_SCHEDULED_TASK: Load scheduler "ovl1" with entities [LocalPlayer, LocalPlayer], work=[200*, 0*]
 77: 0x05EB [0x45] LOAD_SCHEDULED_TASK: Load scheduler "s041" with entities [EventEntity, EventEntity], work=[22*, 0*]
 78: 0x05FC [0x79] LocalPlayer looks at Koblakiq (ID: 16822508/0x0100B0EC) (Basic look)
 79: 0x0606 [0x29] REQ_SET_WAIT(priority=0x08, entity_id=Koblakiq (ID: 16822508/0x0100B0EC), tag_num=0x25)
 80: 0x060D [0x2B] Koblakiq (ID: 16822508/0x0100B0EC) [7881*]:
    → "Hold on, hold on. You need to study up on the demons first. Those guys are scary smart."
 81: 0x0614 [0x23] WAIT_FOR_DIALOG_INTERACTION
 82: 0x0615 [0x29] REQ_SET_WAIT(priority=0x08, entity_id=Koblakiq (ID: 16822508/0x0100B0EC), tag_num=0x26)
 83: 0x061C [0x29] REQ_SET_WAIT(priority=0x08, entity_id=Koblakiq (ID: 16822508/0x0100B0EC), tag_num=0x27)
 84: 0x0623 [0x2B] Koblakiq (ID: 16822508/0x0100B0EC) [7882*]:
    → "Leave that to me. All I need is $1, and then I'll know everything there is to know about the Kindred."
 85: 0x062A [0x23] WAIT_FOR_DIALOG_INTERACTION
 86: 0x062B [0x29] REQ_SET_WAIT(priority=0x08, entity_id=Koblakiq (ID: 16822508/0x0100B0EC), tag_num=0x28)
 87: 0x0632 [0x52] END_LOAD_SCHEDULER: End scheduler "s041" with entities [EventEntity, EventEntity], work=22*
 88: 0x0641 [0x45] LOAD_SCHEDULED_TASK: Load scheduler "s042" with entities [EventEntity, EventEntity], work=[22*, 0*]
 89: 0x0652 [0x92] Koblakiq (ID: 16822508/0x0100B0EC)->Render.Flags3 ^= 0x01
 90: 0x0658 [0x4A] LocalPlayer looks at Koblakiq (ID: 16822508/0x0100B0EC)
 91: 0x0661 [0x4A] Koblakiq (ID: 16822508/0x0100B0EC) looks at LocalPlayer
 92: 0x066A [0x6F] WAIT_FRAME_DELAY: Yield until WaitTime reaches zero
 93: 0x066B [0x76] CHECK_ENTITY_RENDER_FLAGS: Wait until Koblakiq (ID: 16822508/0x0100B0EC) Render.Flags0 and Render.Flags3 conditions are met
 94: 0x0670 [0x29] REQ_SET_WAIT(priority=0x08, entity_id=Koblakiq (ID: 16822508/0x0100B0EC), tag_num=0x0F)
 95: 0x0677 [0x2B] Koblakiq (ID: 16822508/0x0100B0EC) [7883*]:
    → "You! Go to Castle Zvahl and bring back $1!"
 96: 0x067E [0x23] WAIT_FOR_DIALOG_INTERACTION
 97: 0x067F [0x2B] Koblakiq (ID: 16822508/0x0100B0EC) [7884*]:
    → "And be quick, 'cause once Zeelozok makes up his mind, he plunges right in. Go on, scoot!"
 98: 0x0686 [0x23] WAIT_FOR_DIALOG_INTERACTION
 99: 0x0687 [0x5D] SET_MUSIC_VOLUME(volume=0*, fade_time=120*)
100: 0x068C [0x45] LOAD_SCHEDULED_TASK: Load scheduler "fdo1" with entities [LocalPlayer, LocalPlayer], work=[200*, 0*]
101: 0x069D [0x1C] WAIT(120* ticks)
102: 0x06A0 [0x29] REQ_SET_WAIT(priority=0x08, entity_id=Koblakiq (ID: 16822508/0x0100B0EC), tag_num=0x10)
103: 0x06A7 [0x52] END_LOAD_SCHEDULER: End scheduler "s042" with entities [EventEntity, EventEntity], work=22*
104: 0x06B6 [0x5C] MUSIC_CONTROL: Set Idle (Day) music to song 221*
105: 0x06BA [0x5C] MUSIC_CONTROL: Set Idle (Night) music to song 221*
106: 0x06BE [0x4E] SET_ENTITY_HIDE_FLAG: Show LocalPlayer
107: 0x06C4 [0x80] LOAD_WAIT(entity=LocalPlayer)
108: 0x06C9 [0x46] CAMERA_CONTROL: Restore default settings
109: 0x06CB [0x45] LOAD_SCHEDULED_TASK: Load scheduler "fdi1" with entities [LocalPlayer, LocalPlayer], work=[200*, 0*]
110: 0x06DC [0x20] SET_CLI_EVENT_UC_FLAG: Unlock player control
111: 0x06DE [0x21] END_EVENT
112: 0x06DF [0x00] END_REQSTACK()
```

### Event 22

#### Metadata

| Field        | Value     |
|--------------|-----------|
| Entrypoint   | 0x06E0    |
| Data Size    | 851 bytes |
| Instructions | 118       |

```
      00 01 02 03 04 05 06 07  08 09 0A 0B 0C 0D 0E 0F
      -- -- -- -- -- -- -- --  -- -- -- -- -- -- -- --
06E0: 20 01 42 46 01 4A EC B0  00 01 F0 FF FF 7F 6F 76   .BF.J........ov
06F0: EC B0 00 01 29 08 EC B0  00 01 1D 2B EC B0 00 01  ....)......+....
0700: 28 80 23 29 08 EC B0 00  01 1E 5D 01 80 18 80 45  (.#)......]....E
0710: 00 80 F8 FF FF 7F F8 FF  FF 7F 66 64 6F 31 01 80  ..........fdo1..
0720: 1C 18 80 38 03 80 29 08  F0 FF FF 7F 06 4E 00 ED  ...8..)......N..
0730: B0 00 01 80 ED B0 00 01  29 0B F0 FF FF 7F 0E 29  ........)......)
0740: 0B ED B0 00 01 2B 4A EC  B0 00 01 ED B0 00 01 4A  .....+J........J
0750: ED B0 00 01 F0 FF FF 7F  4A F0 FF FF 7F ED B0 00  ........J.......
0760: 01 6F 76 EC B0 00 01 6F  76 F0 FF FF 7F 6F 76 ED  .ov....ov....ov.
0770: B0 00 01 29 08 EC B0 00  01 1F 29 08 EC B0 00 01  ...)......).....
0780: 20 5C 00 29 80 5C 01 29  80 45 1A 80 F8 FF FF 7F   \.).\.).E......
0790: F8 FF FF 7F 73 30 34 33  01 80 45 00 80 F8 FF FF  ....s043..E.....
07A0: 7F F8 FF FF 7F 66 64 69  31 01 80 29 08 EC B0 00  .....fdi1..)....
07B0: 01 25 2B EC B0 00 01 2A  80 23 29 08 EC B0 00 01  .%+....*.#).....
07C0: 26 52 1A 80 F8 FF FF 7F  F8 FF FF 7F 73 30 34 33  &R..........s043
07D0: 45 00 80 F0 FF FF 7F F0  FF FF 7F 6F 76 6C 31 01  E..........ovl1.
07E0: 80 45 1A 80 F8 FF FF 7F  F8 FF FF 7F 73 30 33 39  .E..........s039
07F0: 01 80 2B ED B0 00 01 2B  80 23 29 08 EC B0 00 01  ..+....+.#).....
0800: 27 29 08 EC B0 00 01 28  27 0B ED B0 00 01 2C 52  ').....('.....,R
0810: 1A 80 F8 FF FF 7F F8 FF  FF 7F 73 30 33 39 45 1A  ..........s039E.
0820: 80 F8 FF FF 7F F8 FF FF  7F 73 30 33 38 01 80 29  .........s038..)
0830: 08 EC B0 00 01 0F 2B EC  B0 00 01 2C 80 23 29 08  ......+....,.#).
0840: EC B0 00 01 10 29 08 EC  B0 00 01 11 29 08 EC B0  .....)......)...
0850: 00 01 12 29 08 ED B0 00  01 1B 29 08 ED B0 00 01  ...)......).....
0860: 1C 2B ED B0 00 01 2D 80  23 52 1A 80 F8 FF FF 7F  .+....-.#R......
0870: F8 FF FF 7F 73 30 33 38  45 00 80 F0 FF FF 7F F0  ....s038E.......
0880: FF FF 7F 6F 76 6C 31 01  80 45 1A 80 F8 FF FF 7F  ...ovl1..E......
0890: F8 FF FF 7F 73 30 34 34  01 80 4A EC B0 00 01 ED  ....s044..J.....
08A0: B0 00 01 29 08 EC B0 00  01 29 2B ED B0 00 01 2E  ...).....)+.....
08B0: 80 23 29 08 ED B0 00 01  01 2B ED B0 00 01 2F 80  .#)......+..../.
08C0: 23 29 08 ED B0 00 01 02  6F 76 EC B0 00 01 52 1A  #)......ov....R.
08D0: 80 F8 FF FF 7F F8 FF FF  7F 73 30 34 34 45 1A 80  .........s044E..
08E0: F8 FF FF 7F F8 FF FF 7F  73 30 34 30 01 80 4A ED  ........s040..J.
08F0: B0 00 01 EC B0 00 01 6F  76 ED B0 00 01 2B ED B0  .......ov....+..
0900: 00 01 30 80 23 29 08 EC  B0 00 01 29 2B EC B0 00  ..0.#).....)+...
0910: 01 31 80 23 27 0B ED B0  00 01 2E 52 1A 80 F8 FF  .1.#'......R....
0920: FF 7F F8 FF FF 7F 73 30  34 30 45 1A 80 F8 FF FF  ......s040E.....
0930: 7F F8 FF FF 7F 73 30 34  35 01 80 4B EC B0 00 01  .....s045..K....
0940: 32 80 4B F0 FF FF 7F 32  80 79 00 F0 FF FF 7F ED  2.K....2.y......
0950: B0 00 01 1C 33 80 52 1A  80 F8 FF FF 7F F8 FF FF  ....3.R.........
0960: 7F 73 30 34 35 45 1A 80  F8 FF FF 7F F8 FF FF 7F  .s045E..........
0970: 73 30 34 31 01 80 92 01  EC B0 00 01 2B EC B0 00  s041........+...
0980: 01 34 80 23 79 00 F0 FF  FF 7F EC B0 00 01 29 08  .4.#y.........).
0990: EC B0 00 01 25 2B EC B0  00 01 35 80 23 29 08 EC  ....%+....5.#)..
09A0: B0 00 01 26 52 1A 80 F8  FF FF 7F F8 FF FF 7F 73  ...&R..........s
09B0: 30 34 31 45 1A 80 F8 FF  FF 7F F8 FF FF 7F 73 30  041E..........s0
09C0: 34 36 01 80 29 08 EC B0  00 01 27 2B EC B0 00 01  46..).....'+....
09D0: 36 80 23 29 08 EC B0 00  01 28 5D 01 80 18 80 45  6.#).....(]....E
09E0: 00 80 F0 FF FF 7F F0 FF  FF 7F 66 64 6F 31 01 80  ..........fdo1..
09F0: 1C 18 80 29 08 EC B0 00  01 10 52 1A 80 F8 FF FF  ...)......R.....
0A00: 7F F8 FF FF 7F 73 30 34  36 5C 00 27 80 5C 01 27  .....s046\.'.\.'
0A10: 80 4E 00 F0 FF FF 7F 80  F0 FF FF 7F 46 00 45 00  .N..........F.E.
0A20: 80 F0 FF FF 7F F0 FF FF  7F 66 64 69 31 01 80 20  .........fdi1.. 
0A30: 00 21 00                                          .!.             
```

#### Opcodes

```
  0: 0x06E0 [0x20] SET_CLI_EVENT_UC_FLAG: Lock player control
  1: 0x06E2 [0x42] SET_CLI_EVENT_CANCEL_DATA()
  2: 0x06E3 [0x46] CAMERA_CONTROL: Disable user control
  3: 0x06E5 [0x4A] Koblakiq (ID: 16822508/0x0100B0EC) looks at LocalPlayer
  4: 0x06EE [0x6F] WAIT_FRAME_DELAY: Yield until WaitTime reaches zero
  5: 0x06EF [0x76] CHECK_ENTITY_RENDER_FLAGS: Wait until Koblakiq (ID: 16822508/0x0100B0EC) Render.Flags0 and Render.Flags3 conditions are met
  6: 0x06F4 [0x29] REQ_SET_WAIT(priority=0x08, entity_id=Koblakiq (ID: 16822508/0x0100B0EC), tag_num=0x1D)
  7: 0x06FB [0x2B] Koblakiq (ID: 16822508/0x0100B0EC) [7885*]:
    → "Now that I have this, the demons have nowhere to hide. I can tell what they're thinking, and what they're doing."
  8: 0x0702 [0x23] WAIT_FOR_DIALOG_INTERACTION
  9: 0x0703 [0x29] REQ_SET_WAIT(priority=0x08, entity_id=Koblakiq (ID: 16822508/0x0100B0EC), tag_num=0x1E)
 10: 0x070A [0x5D] SET_MUSIC_VOLUME(volume=0*, fade_time=120*)
 11: 0x070F [0x45] LOAD_SCHEDULED_TASK: Load scheduler "fdo1" with entities [EventEntity, EventEntity], work=[200*, 0*]
 12: 0x0720 [0x1C] WAIT(120* ticks)
 13: 0x0723 [0x38] SET_CLIENT_EVENT_MODE(mode=19*)
 14: 0x0726 [0x29] REQ_SET_WAIT(priority=0x08, entity_id=LocalPlayer, tag_num=0x06)
 15: 0x072D [0x4E] SET_ENTITY_HIDE_FLAG: Show Zeelozok (ID: 16822509/0x0100B0ED)
 16: 0x0733 [0x80] LOAD_WAIT(entity=Zeelozok (ID: 16822509/0x0100B0ED))
 17: 0x0738 [0x29] REQ_SET_WAIT(priority=0x0B, entity_id=LocalPlayer, tag_num=0x0E)
 18: 0x073F [0x29] REQ_SET_WAIT(priority=0x0B, entity_id=Zeelozok (ID: 16822509/0x0100B0ED), tag_num=0x2B)
 19: 0x0746 [0x4A] Koblakiq (ID: 16822508/0x0100B0EC) looks at Zeelozok (ID: 16822509/0x0100B0ED)
 20: 0x074F [0x4A] Zeelozok (ID: 16822509/0x0100B0ED) looks at LocalPlayer
 21: 0x0758 [0x4A] LocalPlayer looks at Zeelozok (ID: 16822509/0x0100B0ED)
 22: 0x0761 [0x6F] WAIT_FRAME_DELAY: Yield until WaitTime reaches zero
 23: 0x0762 [0x76] CHECK_ENTITY_RENDER_FLAGS: Wait until Koblakiq (ID: 16822508/0x0100B0EC) Render.Flags0 and Render.Flags3 conditions are met
 24: 0x0767 [0x6F] WAIT_FRAME_DELAY: Yield until WaitTime reaches zero
 25: 0x0768 [0x76] CHECK_ENTITY_RENDER_FLAGS: Wait until LocalPlayer Render.Flags0 and Render.Flags3 conditions are met
 26: 0x076D [0x6F] WAIT_FRAME_DELAY: Yield until WaitTime reaches zero
 27: 0x076E [0x76] CHECK_ENTITY_RENDER_FLAGS: Wait until Zeelozok (ID: 16822509/0x0100B0ED) Render.Flags0 and Render.Flags3 conditions are met
 28: 0x0773 [0x29] REQ_SET_WAIT(priority=0x08, entity_id=Koblakiq (ID: 16822508/0x0100B0EC), tag_num=0x1F)
 29: 0x077A [0x29] REQ_SET_WAIT(priority=0x08, entity_id=Koblakiq (ID: 16822508/0x0100B0EC), tag_num=0x20)
 30: 0x0781 [0x5C] MUSIC_CONTROL: Set Idle (Day) music to song 127*
 31: 0x0785 [0x5C] MUSIC_CONTROL: Set Idle (Night) music to song 127*
 32: 0x0789 [0x45] LOAD_SCHEDULED_TASK: Load scheduler "s043" with entities [EventEntity, EventEntity], work=[22*, 0*]
 33: 0x079A [0x45] LOAD_SCHEDULED_TASK: Load scheduler "fdi1" with entities [EventEntity, EventEntity], work=[200*, 0*]
 34: 0x07AB [0x29] REQ_SET_WAIT(priority=0x08, entity_id=Koblakiq (ID: 16822508/0x0100B0EC), tag_num=0x25)
 35: 0x07B2 [0x2B] Koblakiq (ID: 16822508/0x0100B0EC) [7886*]:
    → "But, there's one small problem. This demonscratch is difficult to read..."
 36: 0x07B9 [0x23] WAIT_FOR_DIALOG_INTERACTION
 37: 0x07BA [0x29] REQ_SET_WAIT(priority=0x08, entity_id=Koblakiq (ID: 16822508/0x0100B0EC), tag_num=0x26)
 38: 0x07C1 [0x52] END_LOAD_SCHEDULER: End scheduler "s043" with entities [EventEntity, EventEntity], work=22*
 39: 0x07D0 [0x45] LOAD_SCHEDULED_TASK: Load scheduler "ovl1" with entities [LocalPlayer, LocalPlayer], work=[200*, 0*]
 40: 0x07E1 [0x45] LOAD_SCHEDULED_TASK: Load scheduler "s039" with entities [EventEntity, EventEntity], work=[22*, 0*]
 41: 0x07F2 [0x2B] Zeelozok (ID: 16822509/0x0100B0ED) [7887*]:
    → "Hrm. I can't wait for your translation. I'm going on ahead."
 42: 0x07F9 [0x23] WAIT_FOR_DIALOG_INTERACTION
 43: 0x07FA [0x29] REQ_SET_WAIT(priority=0x08, entity_id=Koblakiq (ID: 16822508/0x0100B0EC), tag_num=0x27)
 44: 0x0801 [0x29] REQ_SET_WAIT(priority=0x08, entity_id=Koblakiq (ID: 16822508/0x0100B0EC), tag_num=0x28)
 45: 0x0808 [0x27] REQ_SET(priority=0x0B, entity_id=Zeelozok (ID: 16822509/0x0100B0ED), tag_num=0x2C)
 46: 0x080F [0x52] END_LOAD_SCHEDULER: End scheduler "s039" with entities [EventEntity, EventEntity], work=22*
 47: 0x081E [0x45] LOAD_SCHEDULED_TASK: Load scheduler "s038" with entities [EventEntity, EventEntity], work=[22*, 0*]
 48: 0x082F [0x29] REQ_SET_WAIT(priority=0x08, entity_id=Koblakiq (ID: 16822508/0x0100B0EC), tag_num=0x0F)
 49: 0x0836 [0x2B] Koblakiq (ID: 16822508/0x0100B0EC) [7888*]:
    → "Going by yourself is only gonna get you killed! You should take everyone with you, including me!"
 50: 0x083D [0x23] WAIT_FOR_DIALOG_INTERACTION
 51: 0x083E [0x29] REQ_SET_WAIT(priority=0x08, entity_id=Koblakiq (ID: 16822508/0x0100B0EC), tag_num=0x10)
 52: 0x0845 [0x29] REQ_SET_WAIT(priority=0x08, entity_id=Koblakiq (ID: 16822508/0x0100B0EC), tag_num=0x11)
 53: 0x084C [0x29] REQ_SET_WAIT(priority=0x08, entity_id=Koblakiq (ID: 16822508/0x0100B0EC), tag_num=0x12)
 54: 0x0853 [0x29] REQ_SET_WAIT(priority=0x08, entity_id=Zeelozok (ID: 16822509/0x0100B0ED), tag_num=0x1B)
 55: 0x085A [0x29] REQ_SET_WAIT(priority=0x08, entity_id=Zeelozok (ID: 16822509/0x0100B0ED), tag_num=0x1C)
 56: 0x0861 [0x2B] Zeelozok (ID: 16822509/0x0100B0ED) [7889*]:
    → "None of the other Moblins believe in what I'm doing. They think it's enough for them alone to be Promathia's children."
 57: 0x0868 [0x23] WAIT_FOR_DIALOG_INTERACTION
 58: 0x0869 [0x52] END_LOAD_SCHEDULER: End scheduler "s038" with entities [EventEntity, EventEntity], work=22*
 59: 0x0878 [0x45] LOAD_SCHEDULED_TASK: Load scheduler "ovl1" with entities [LocalPlayer, LocalPlayer], work=[200*, 0*]
 60: 0x0889 [0x45] LOAD_SCHEDULED_TASK: Load scheduler "s044" with entities [EventEntity, EventEntity], work=[22*, 0*]
 61: 0x089A [0x4A] Koblakiq (ID: 16822508/0x0100B0EC) looks at Zeelozok (ID: 16822509/0x0100B0ED)
 62: 0x08A3 [0x29] REQ_SET_WAIT(priority=0x08, entity_id=Koblakiq (ID: 16822508/0x0100B0EC), tag_num=0x29)
 63: 0x08AA [0x2B] Zeelozok (ID: 16822509/0x0100B0ED) [7890*]:
    → "But this is no good. All the beastmen are the children of Promathia. We all must be ready to greet him when he is reborn."
 64: 0x08B1 [0x23] WAIT_FOR_DIALOG_INTERACTION
 65: 0x08B2 [0x29] REQ_SET_WAIT(priority=0x08, entity_id=Zeelozok (ID: 16822509/0x0100B0ED), tag_num=0x01)
 66: 0x08B9 [0x2B] Zeelozok (ID: 16822509/0x0100B0ED) [7891*]:
    → "I'll write you a letter. I want you to share it with everyone in Movalpolos so they start to think more."
 67: 0x08C0 [0x23] WAIT_FOR_DIALOG_INTERACTION
 68: 0x08C1 [0x29] REQ_SET_WAIT(priority=0x08, entity_id=Zeelozok (ID: 16822509/0x0100B0ED), tag_num=0x02)
 69: 0x08C8 [0x6F] WAIT_FRAME_DELAY: Yield until WaitTime reaches zero
 70: 0x08C9 [0x76] CHECK_ENTITY_RENDER_FLAGS: Wait until Koblakiq (ID: 16822508/0x0100B0EC) Render.Flags0 and Render.Flags3 conditions are met
 71: 0x08CE [0x52] END_LOAD_SCHEDULER: End scheduler "s044" with entities [EventEntity, EventEntity], work=22*
 72: 0x08DD [0x45] LOAD_SCHEDULED_TASK: Load scheduler "s040" with entities [EventEntity, EventEntity], work=[22*, 0*]
 73: 0x08EE [0x4A] Zeelozok (ID: 16822509/0x0100B0ED) looks at Koblakiq (ID: 16822508/0x0100B0EC)
 74: 0x08F7 [0x6F] WAIT_FRAME_DELAY: Yield until WaitTime reaches zero
 75: 0x08F8 [0x76] CHECK_ENTITY_RENDER_FLAGS: Wait until Zeelozok (ID: 16822509/0x0100B0ED) Render.Flags0 and Render.Flags3 conditions are met
 76: 0x08FD [0x2B] Zeelozok (ID: 16822509/0x0100B0ED) [7892*]:
    → "You stay here and wait for my letter."
 77: 0x0904 [0x23] WAIT_FOR_DIALOG_INTERACTION
 78: 0x0905 [0x29] REQ_SET_WAIT(priority=0x08, entity_id=Koblakiq (ID: 16822508/0x0100B0EC), tag_num=0x29)
 79: 0x090C [0x2B] Koblakiq (ID: 16822508/0x0100B0EC) [7893*]:
    → "..."
 80: 0x0913 [0x23] WAIT_FOR_DIALOG_INTERACTION
 81: 0x0914 [0x27] REQ_SET(priority=0x0B, entity_id=Zeelozok (ID: 16822509/0x0100B0ED), tag_num=0x2E)
 82: 0x091B [0x52] END_LOAD_SCHEDULER: End scheduler "s040" with entities [EventEntity, EventEntity], work=22*
 83: 0x092A [0x45] LOAD_SCHEDULED_TASK: Load scheduler "s045" with entities [EventEntity, EventEntity], work=[22*, 0*]
 84: 0x093B [0x4B] UPDATE_ENTITY_YAW(entity=Koblakiq (ID: 16822508/0x0100B0EC), yaw=11.9°*)
 85: 0x0942 [0x4B] UPDATE_ENTITY_YAW(entity=LocalPlayer, yaw=11.9°*)
 86: 0x0949 [0x79] LocalPlayer looks at Zeelozok (ID: 16822509/0x0100B0ED) (Basic look)
 87: 0x0953 [0x1C] WAIT(90* ticks)
 88: 0x0956 [0x52] END_LOAD_SCHEDULER: End scheduler "s045" with entities [EventEntity, EventEntity], work=22*
 89: 0x0965 [0x45] LOAD_SCHEDULED_TASK: Load scheduler "s041" with entities [EventEntity, EventEntity], work=[22*, 0*]
 90: 0x0976 [0x92] Koblakiq (ID: 16822508/0x0100B0EC)->Render.Flags3 ^= 0x01
 91: 0x097C [0x2B] Koblakiq (ID: 16822508/0x0100B0EC) [7894*]:
    → "My brother is one hell of a Moblin."
 92: 0x0983 [0x23] WAIT_FOR_DIALOG_INTERACTION
 93: 0x0984 [0x79] LocalPlayer looks at Koblakiq (ID: 16822508/0x0100B0EC) (Basic look)
 94: 0x098E [0x29] REQ_SET_WAIT(priority=0x08, entity_id=Koblakiq (ID: 16822508/0x0100B0EC), tag_num=0x25)
 95: 0x0995 [0x2B] Koblakiq (ID: 16822508/0x0100B0EC) [7895*]:
    → "Hmmm. There must be something I can do to help him..."
 96: 0x099C [0x23] WAIT_FOR_DIALOG_INTERACTION
 97: 0x099D [0x29] REQ_SET_WAIT(priority=0x08, entity_id=Koblakiq (ID: 16822508/0x0100B0EC), tag_num=0x26)
 98: 0x09A4 [0x52] END_LOAD_SCHEDULER: End scheduler "s041" with entities [EventEntity, EventEntity], work=22*
 99: 0x09B3 [0x45] LOAD_SCHEDULED_TASK: Load scheduler "s046" with entities [EventEntity, EventEntity], work=[22*, 0*]
100: 0x09C4 [0x29] REQ_SET_WAIT(priority=0x08, entity_id=Koblakiq (ID: 16822508/0x0100B0EC), tag_num=0x27)
101: 0x09CB [0x2B] Koblakiq (ID: 16822508/0x0100B0EC) [7896*]:
    → "I know, I can work on the translation of that demon script. That could come in handy."
102: 0x09D2 [0x23] WAIT_FOR_DIALOG_INTERACTION
103: 0x09D3 [0x29] REQ_SET_WAIT(priority=0x08, entity_id=Koblakiq (ID: 16822508/0x0100B0EC), tag_num=0x28)
104: 0x09DA [0x5D] SET_MUSIC_VOLUME(volume=0*, fade_time=120*)
105: 0x09DF [0x45] LOAD_SCHEDULED_TASK: Load scheduler "fdo1" with entities [LocalPlayer, LocalPlayer], work=[200*, 0*]
106: 0x09F0 [0x1C] WAIT(120* ticks)
107: 0x09F3 [0x29] REQ_SET_WAIT(priority=0x08, entity_id=Koblakiq (ID: 16822508/0x0100B0EC), tag_num=0x10)
108: 0x09FA [0x52] END_LOAD_SCHEDULER: End scheduler "s046" with entities [EventEntity, EventEntity], work=22*
109: 0x0A09 [0x5C] MUSIC_CONTROL: Set Idle (Day) music to song 221*
110: 0x0A0D [0x5C] MUSIC_CONTROL: Set Idle (Night) music to song 221*
111: 0x0A11 [0x4E] SET_ENTITY_HIDE_FLAG: Show LocalPlayer
112: 0x0A17 [0x80] LOAD_WAIT(entity=LocalPlayer)
113: 0x0A1C [0x46] CAMERA_CONTROL: Restore default settings
114: 0x0A1E [0x45] LOAD_SCHEDULED_TASK: Load scheduler "fdi1" with entities [LocalPlayer, LocalPlayer], work=[200*, 0*]
115: 0x0A2F [0x20] SET_CLI_EVENT_UC_FLAG: Unlock player control
116: 0x0A31 [0x21] END_EVENT
117: 0x0A32 [0x00] END_REQSTACK()
```

### Event 26

#### Metadata

| Field        | Value      |
|--------------|------------|
| Entrypoint   | 0x0A33     |
| Data Size    | 1208 bytes |
| Instructions | 170        |

```
      00 01 02 03 04 05 06 07  08 09 0A 0B 0C 0D 0E 0F
      -- -- -- -- -- -- -- --  -- -- -- -- -- -- -- --
0A30:          20 01 42 03 00  00 09 10 46 01 5D 01 80      .B.....F.]..
0A40: 18 80 45 00 80 F8 FF FF  7F F8 FF FF 7F 66 64 6F  ..E..........fdo
0A50: 31 01 80 1C 18 80 38 03  80 29 08 F0 FF FF 7F 06  1.....8..)......
0A60: 4E 00 ED B0 00 01 80 ED  B0 00 01 29 0B F0 FF FF  N..........)....
0A70: 7F 0F 29 0B ED B0 00 01  30 4A EC B0 00 01 ED B0  ..).....0J......
0A80: 00 01 4A ED B0 00 01 F0  FF FF 7F 4A F0 FF FF 7F  ..J........J....
0A90: EC B0 00 01 6F 76 EC B0  00 01 6F 76 F0 FF FF 7F  ....ov....ov....
0AA0: 6F 76 ED B0 00 01 29 08  EC B0 00 01 1D 29 08 EC  ov....)......)..
0AB0: B0 00 01 1E 92 01 EC B0  00 01 92 01 F0 FF FF 7F  ................
0AC0: 45 1A 80 F8 FF FF 7F F8  FF FF 7F 73 30 34 37 01  E..........s047.
0AD0: 80 45 00 80 F8 FF FF 7F  F8 FF FF 7F 66 64 69 31  .E..........fdi1
0AE0: 01 80 1C 18 80 2B EC B0  00 01 37 80 23 2B EC B0  .....+....7.#+..
0AF0: 00 01 38 80 23 52 1A 80  F8 FF FF 7F F8 FF FF 7F  ..8.#R..........
0B00: 73 30 34 37 45 00 80 F0  FF FF 7F F0 FF FF 7F 6F  s047E..........o
0B10: 76 6C 31 01 80 45 1A 80  F8 FF FF 7F F8 FF FF 7F  vl1..E..........
0B20: 73 30 34 38 01 80 2B EC  B0 00 01 39 80 23 2B EC  s048..+....9.#+.
0B30: B0 00 01 3A 80 23 45 00  80 F0 FF FF 7F F0 FF FF  ...:.#E.........
0B40: 7F 66 64 6F 31 01 80 1C  18 80 52 1A 80 F8 FF FF  .fdo1.....R.....
0B50: 7F F8 FF FF 7F 73 30 34  38 1C 3B 80 1D 3C 80 23  .....s048.;..<.#
0B60: 1C 02 80 5C 00 18 80 5C  01 18 80 29 0B F0 FF FF  ...\...\...)....
0B70: 7F 10 92 00 EC B0 00 01  27 0B ED B0 00 01 31 4A  ........'.....1J
0B80: F0 FF FF 7F ED B0 00 01  45 1A 80 F8 FF FF 7F F8  ........E.......
0B90: FF FF 7F 73 30 35 31 01  80 45 00 80 F0 FF FF 7F  ...s051..E......
0BA0: F0 FF FF 7F 66 64 69 31  01 80 1C 3D 80 52 1A 80  ....fdi1...=.R..
0BB0: F8 FF FF 7F F8 FF FF 7F  73 30 35 31 45 00 80 F0  ........s051E...
0BC0: FF FF 7F F0 FF FF 7F 6F  76 6C 31 01 80 02 09 10  .......ovl1.....
0BD0: 0D 80 00 E9 0B 45 1A 80  F8 FF FF 7F F8 FF FF 7F  .....E..........
0BE0: 73 30 35 37 01 80 01 FA  0B 45 1A 80 F8 FF FF 7F  s057.....E......
0BF0: F8 FF FF 7F 73 30 34 39  01 80 29 0B EC B0 00 01  ....s049..).....
0C00: 3C 2A 0B ED B0 00 01 29  08 EC B0 00 01 0F 2B EC  <*.....)......+.
0C10: B0 00 01 3E 80 23 2B EC  B0 00 01 3F 80 23 29 08  ...>.#+....?.#).
0C20: EC B0 00 01 10 02 09 10  0D 80 00 3F 0C 52 1A 80  ...........?.R..
0C30: F8 FF FF 7F F8 FF FF 7F  73 30 35 37 01 4E 0C 52  ........s057.N.R
0C40: 1A 80 F8 FF FF 7F F8 FF  FF 7F 73 30 34 39 45 1A  ..........s049E.
0C50: 80 F8 FF FF 7F F8 FF FF  7F 73 30 35 30 01 80 29  .........s050..)
0C60: 08 EC B0 00 01 11 2B ED  B0 00 01 40 80 23 29 08  ......+....@.#).
0C70: ED B0 00 01 03 2B ED B0  00 01 41 80 23 29 08 ED  .....+....A.#)..
0C80: B0 00 01 04 52 1A 80 F8  FF FF 7F F8 FF FF 7F 73  ....R..........s
0C90: 30 35 30 45 1A 80 F8 FF  FF 7F F8 FF FF 7F 73 30  050E..........s0
0CA0: 35 32 01 80 2B ED B0 00  01 42 80 23 2B ED B0 00  52..+....B.#+...
0CB0: 01 43 80 23 29 08 ED B0  00 01 29 29 08 EC B0 00  .C.#).....))....
0CC0: 01 1D 2B EC B0 00 01 44  80 23 29 08 EC B0 00 01  ..+....D.#).....
0CD0: 1E 52 1A 80 F8 FF FF 7F  F8 FF FF 7F 73 30 35 32  .R..........s052
0CE0: 45 1A 80 F8 FF FF 7F F8  FF FF 7F 73 30 35 33 01  E..........s053.
0CF0: 80 29 08 EC B0 00 01 1F  4A EC B0 00 01 ED B0 00  .)......J.......
0D00: 01 29 08 ED B0 00 01 01  2B ED B0 00 01 45 80 23  .)......+....E.#
0D10: 2B ED B0 00 01 46 80 23  29 08 ED B0 00 01 02 29  +....F.#)......)
0D20: 08 ED B0 00 01 29 6F 76  EC B0 00 01 52 1A 80 F8  .....)ov....R...
0D30: FF FF 7F F8 FF FF 7F 73  30 35 33 45 1A 80 F8 FF  .......s053E....
0D40: FF 7F F8 FF FF 7F 73 30  35 35 01 80 29 08 EC B0  ......s055..)...
0D50: 00 01 0F 2B EC B0 00 01  47 80 23 29 08 EC B0 00  ...+....G.#)....
0D60: 01 10 2B EC B0 00 01 48  80 23 52 1A 80 F8 FF FF  ..+....H.#R.....
0D70: 7F F8 FF FF 7F 73 30 35  35 45 1A 80 F8 FF FF 7F  .....s055E......
0D80: F8 FF FF 7F 73 30 35 34  01 80 4A F0 FF FF 7F EC  ....s054..J.....
0D90: B0 00 01 29 08 EC B0 00  01 11 29 08 ED B0 00 01  ...)......).....
0DA0: 03 2B ED B0 00 01 49 80  23 29 08 ED B0 00 01 04  .+....I.#)......
0DB0: 6F 76 F0 FF FF 7F 29 08  EC B0 00 01 12 29 08 ED  ov....)......)..
0DC0: B0 00 01 29 27 0B ED B0  00 01 32 1C 4A 80 52 1A  ...)'.....2.J.R.
0DD0: 80 F8 FF FF 7F F8 FF FF  7F 73 30 35 34 45 1A 80  .........s054E..
0DE0: F8 FF FF 7F F8 FF FF 7F  73 30 35 36 01 80 29 0B  ........s056..).
0DF0: EC B0 00 01 3D 2B EC B0  00 01 4B 80 23 29 08 ED  ....=+....K.#)..
0E00: B0 00 01 03 2B EC B0 00  01 4C 80 23 2B EC B0 00  ....+....L.#+...
0E10: 01 4D 80 23 29 08 ED B0  00 01 04 52 1A 80 F8 FF  .M.#)......R....
0E20: FF 7F F8 FF FF 7F 73 30  35 36 45 1A 80 F8 FF FF  ......s056E.....
0E30: 7F F8 FF FF 7F 73 30 35  38 01 80 4E 01 F0 FF FF  .....s058..N....
0E40: 7F 2B EC B0 00 01 4E 80  23 29 08 EC B0 00 01 05  .+....N.#)......
0E50: 02 00 00 11 80 00 63 0E  2B EC B0 00 01 4F 80 23  ......c.+....O.#
0E60: 01 6B 0E 2B EC B0 00 01  50 80 23 29 08 EC B0 00  .k.+....P.#)....
0E70: 01 06 29 08 EC B0 00 01  1B 2B EC B0 00 01 51 80  ..)......+....Q.
0E80: 23 29 08 EC B0 00 01 1C  5D 01 80 18 80 45 00 80  #)......]....E..
0E90: F0 FF FF 7F F0 FF FF 7F  66 64 6F 31 01 80 1C 18  ........fdo1....
0EA0: 80 52 1A 80 F8 FF FF 7F  F8 FF FF 7F 73 30 35 36  .R..........s056
0EB0: 5C 00 27 80 5C 01 27 80  4E 00 F0 FF FF 7F 80 F0  \.'.\.'.N.......
0EC0: FF FF 7F 46 00 45 52 80  F0 FF FF 7F F0 FF FF 7F  ...F.ER.........
0ED0: 71 73 74 63 01 80 45 00  80 F0 FF FF 7F F0 FF FF  qstc..E.........
0EE0: 7F 66 64 69 31 01 80 20  00 21 00                 .fdi1.. .!.     
```

#### Opcodes

```
  0: 0x0A33 [0x20] SET_CLI_EVENT_UC_FLAG: Lock player control
  1: 0x0A35 [0x42] SET_CLI_EVENT_CANCEL_DATA()
  2: 0x0A36 [0x03] ExtData[1]->WorkLocal[0] = Work_Zone[9]
  3: 0x0A3B [0x46] CAMERA_CONTROL: Disable user control
  4: 0x0A3D [0x5D] SET_MUSIC_VOLUME(volume=0*, fade_time=120*)
  5: 0x0A42 [0x45] LOAD_SCHEDULED_TASK: Load scheduler "fdo1" with entities [EventEntity, EventEntity], work=[200*, 0*]
  6: 0x0A53 [0x1C] WAIT(120* ticks)
  7: 0x0A56 [0x38] SET_CLIENT_EVENT_MODE(mode=19*)
  8: 0x0A59 [0x29] REQ_SET_WAIT(priority=0x08, entity_id=LocalPlayer, tag_num=0x06)
  9: 0x0A60 [0x4E] SET_ENTITY_HIDE_FLAG: Show Zeelozok (ID: 16822509/0x0100B0ED)
 10: 0x0A66 [0x80] LOAD_WAIT(entity=Zeelozok (ID: 16822509/0x0100B0ED))
 11: 0x0A6B [0x29] REQ_SET_WAIT(priority=0x0B, entity_id=LocalPlayer, tag_num=0x0F)
 12: 0x0A72 [0x29] REQ_SET_WAIT(priority=0x0B, entity_id=Zeelozok (ID: 16822509/0x0100B0ED), tag_num=0x30)
 13: 0x0A79 [0x4A] Koblakiq (ID: 16822508/0x0100B0EC) looks at Zeelozok (ID: 16822509/0x0100B0ED)
 14: 0x0A82 [0x4A] Zeelozok (ID: 16822509/0x0100B0ED) looks at LocalPlayer
 15: 0x0A8B [0x4A] LocalPlayer looks at Koblakiq (ID: 16822508/0x0100B0EC)
 16: 0x0A94 [0x6F] WAIT_FRAME_DELAY: Yield until WaitTime reaches zero
 17: 0x0A95 [0x76] CHECK_ENTITY_RENDER_FLAGS: Wait until Koblakiq (ID: 16822508/0x0100B0EC) Render.Flags0 and Render.Flags3 conditions are met
 18: 0x0A9A [0x6F] WAIT_FRAME_DELAY: Yield until WaitTime reaches zero
 19: 0x0A9B [0x76] CHECK_ENTITY_RENDER_FLAGS: Wait until LocalPlayer Render.Flags0 and Render.Flags3 conditions are met
 20: 0x0AA0 [0x6F] WAIT_FRAME_DELAY: Yield until WaitTime reaches zero
 21: 0x0AA1 [0x76] CHECK_ENTITY_RENDER_FLAGS: Wait until Zeelozok (ID: 16822509/0x0100B0ED) Render.Flags0 and Render.Flags3 conditions are met
 22: 0x0AA6 [0x29] REQ_SET_WAIT(priority=0x08, entity_id=Koblakiq (ID: 16822508/0x0100B0EC), tag_num=0x1D)
 23: 0x0AAD [0x29] REQ_SET_WAIT(priority=0x08, entity_id=Koblakiq (ID: 16822508/0x0100B0EC), tag_num=0x1E)
 24: 0x0AB4 [0x92] Koblakiq (ID: 16822508/0x0100B0EC)->Render.Flags3 ^= 0x01
 25: 0x0ABA [0x92] LocalPlayer->Render.Flags3 ^= 0x01
 26: 0x0AC0 [0x45] LOAD_SCHEDULED_TASK: Load scheduler "s047" with entities [EventEntity, EventEntity], work=[22*, 0*]
 27: 0x0AD1 [0x45] LOAD_SCHEDULED_TASK: Load scheduler "fdi1" with entities [EventEntity, EventEntity], work=[200*, 0*]
 28: 0x0AE2 [0x1C] WAIT(120* ticks)
 29: 0x0AE5 [0x2B] Koblakiq (ID: 16822508/0x0100B0EC) [7905*]:
    → "This was my brother's..."
 30: 0x0AEC [0x23] WAIT_FOR_DIALOG_INTERACTION
 31: 0x0AED [0x2B] Koblakiq (ID: 16822508/0x0100B0EC) [7906*]:
    → "No Moblin would willingly give up their earplug..."
 32: 0x0AF4 [0x23] WAIT_FOR_DIALOG_INTERACTION
 33: 0x0AF5 [0x52] END_LOAD_SCHEDULER: End scheduler "s047" with entities [EventEntity, EventEntity], work=22*
 34: 0x0B04 [0x45] LOAD_SCHEDULED_TASK: Load scheduler "ovl1" with entities [LocalPlayer, LocalPlayer], work=[200*, 0*]
 35: 0x0B15 [0x45] LOAD_SCHEDULED_TASK: Load scheduler "s048" with entities [EventEntity, EventEntity], work=[22*, 0*]
 36: 0x0B26 [0x2B] Koblakiq (ID: 16822508/0x0100B0EC) [7907*]:
    → "If Zeelozok no longer has this, then he won't be coming home..."
 37: 0x0B2D [0x23] WAIT_FOR_DIALOG_INTERACTION
 38: 0x0B2E [0x2B] Koblakiq (ID: 16822508/0x0100B0EC) [7908*]:
    → "Oh! My precious little brother! My stupendous, adorable Zeelozok!"
 39: 0x0B35 [0x23] WAIT_FOR_DIALOG_INTERACTION
 40: 0x0B36 [0x45] LOAD_SCHEDULED_TASK: Load scheduler "fdo1" with entities [LocalPlayer, LocalPlayer], work=[200*, 0*]
 41: 0x0B47 [0x1C] WAIT(120* ticks)
 42: 0x0B4A [0x52] END_LOAD_SCHEDULER: End scheduler "s048" with entities [EventEntity, EventEntity], work=22*
 43: 0x0B59 [0x1C] WAIT(180* ticks)
 44: 0x0B5C [0x1D] PRINT_EVENT_MESSAGE(message_id=7909*)
    → "Sis..."
 45: 0x0B5F [0x23] WAIT_FOR_DIALOG_INTERACTION
 46: 0x0B60 [0x1C] WAIT(60* ticks)
 47: 0x0B63 [0x5C] MUSIC_CONTROL: Set Idle (Day) music to song 120*
 48: 0x0B67 [0x5C] MUSIC_CONTROL: Set Idle (Night) music to song 120*
 49: 0x0B6B [0x29] REQ_SET_WAIT(priority=0x0B, entity_id=LocalPlayer, tag_num=0x10)
 50: 0x0B72 [0x92] Koblakiq (ID: 16822508/0x0100B0EC)->Render.Flags3 = Flags3  // No change (flag=0)
 51: 0x0B78 [0x27] REQ_SET(priority=0x0B, entity_id=Zeelozok (ID: 16822509/0x0100B0ED), tag_num=0x31)
 52: 0x0B7F [0x4A] LocalPlayer looks at Zeelozok (ID: 16822509/0x0100B0ED)
 53: 0x0B88 [0x45] LOAD_SCHEDULED_TASK: Load scheduler "s051" with entities [EventEntity, EventEntity], work=[22*, 0*]
 54: 0x0B99 [0x45] LOAD_SCHEDULED_TASK: Load scheduler "fdi1" with entities [LocalPlayer, LocalPlayer], work=[200*, 0*]
 55: 0x0BAA [0x1C] WAIT(100* ticks)
 56: 0x0BAD [0x52] END_LOAD_SCHEDULER: End scheduler "s051" with entities [EventEntity, EventEntity], work=22*
 57: 0x0BBC [0x45] LOAD_SCHEDULED_TASK: Load scheduler "ovl1" with entities [LocalPlayer, LocalPlayer], work=[200*, 0*]
 58: 0x0BCD [0x02] IF !(Work_Zone[9] == 8*) GOTO 0x0BE9
 59: 0x0BD5 [0x45] LOAD_SCHEDULED_TASK: Load scheduler "s057" with entities [EventEntity, EventEntity], work=[22*, 0*]
 60: 0x0BE6 [0x01] GOTO 0x0BFA
 61: 0x0BE9 [0x45] LOAD_SCHEDULED_TASK: Load scheduler "s049" with entities [EventEntity, EventEntity], work=[22*, 0*]

SUBROUTINE_0BFA:
 62: 0x0BFA [0x29] REQ_SET_WAIT(priority=0x0B, entity_id=Koblakiq (ID: 16822508/0x0100B0EC), tag_num=0x3C)
 63: 0x0C01 [0x2A] GET_REQ_LEVEL(level=11, entity_id=Zeelozok (ID: 16822509/0x0100B0ED))
 64: 0x0C07 [0x29] REQ_SET_WAIT(priority=0x08, entity_id=Koblakiq (ID: 16822508/0x0100B0EC), tag_num=0x0F)
 65: 0x0C0E [0x2B] Koblakiq (ID: 16822508/0x0100B0EC) [7910*]:
    → "Zeelozok!?"
 66: 0x0C15 [0x23] WAIT_FOR_DIALOG_INTERACTION
 67: 0x0C16 [0x2B] Koblakiq (ID: 16822508/0x0100B0EC) [7911*]:
    → "You made it back!? How did you find the entrance to the warp cavern without your earplug?"
 68: 0x0C1D [0x23] WAIT_FOR_DIALOG_INTERACTION
 69: 0x0C1E [0x29] REQ_SET_WAIT(priority=0x08, entity_id=Koblakiq (ID: 16822508/0x0100B0EC), tag_num=0x10)
 70: 0x0C25 [0x02] IF !(Work_Zone[9] == 8*) GOTO 0x0C3F
 71: 0x0C2D [0x52] END_LOAD_SCHEDULER: End scheduler "s057" with entities [EventEntity, EventEntity], work=22*
 72: 0x0C3C [0x01] GOTO 0x0C4E
 73: 0x0C3F [0x52] END_LOAD_SCHEDULER: End scheduler "s049" with entities [EventEntity, EventEntity], work=22*

SUBROUTINE_0C4E:
 74: 0x0C4E [0x45] LOAD_SCHEDULED_TASK: Load scheduler "s050" with entities [EventEntity, EventEntity], work=[22*, 0*]
 75: 0x0C5F [0x29] REQ_SET_WAIT(priority=0x08, entity_id=Koblakiq (ID: 16822508/0x0100B0EC), tag_num=0x11)
 76: 0x0C66 [0x2B] Zeelozok (ID: 16822509/0x0100B0ED) [7912*]:
    → "I didn't. Without the earplug, there was nothing to do but walk."
 77: 0x0C6D [0x23] WAIT_FOR_DIALOG_INTERACTION
 78: 0x0C6E [0x29] REQ_SET_WAIT(priority=0x08, entity_id=Zeelozok (ID: 16822509/0x0100B0ED), tag_num=0x03)
 79: 0x0C75 [0x2B] Zeelozok (ID: 16822509/0x0100B0ED) [7913*]:
    → "I wrote lots of letters while I was walking, so that even if I collapsed my thoughts would remain on paper."
 80: 0x0C7C [0x23] WAIT_FOR_DIALOG_INTERACTION
 81: 0x0C7D [0x29] REQ_SET_WAIT(priority=0x08, entity_id=Zeelozok (ID: 16822509/0x0100B0ED), tag_num=0x04)
 82: 0x0C84 [0x52] END_LOAD_SCHEDULER: End scheduler "s050" with entities [EventEntity, EventEntity], work=22*
 83: 0x0C93 [0x45] LOAD_SCHEDULED_TASK: Load scheduler "s052" with entities [EventEntity, EventEntity], work=[22*, 0*]
 84: 0x0CA4 [0x2B] Zeelozok (ID: 16822509/0x0100B0ED) [7914*]:
    → "Some Goblins found me wandering and offered to help."
 85: 0x0CAB [0x23] WAIT_FOR_DIALOG_INTERACTION
 86: 0x0CAC [0x2B] Zeelozok (ID: 16822509/0x0100B0ED) [7915*]:
    → "They brought me all the way here to Movalpolos."
 87: 0x0CB3 [0x23] WAIT_FOR_DIALOG_INTERACTION
 88: 0x0CB4 [0x29] REQ_SET_WAIT(priority=0x08, entity_id=Zeelozok (ID: 16822509/0x0100B0ED), tag_num=0x29)
 89: 0x0CBB [0x29] REQ_SET_WAIT(priority=0x08, entity_id=Koblakiq (ID: 16822508/0x0100B0EC), tag_num=0x1D)
 90: 0x0CC2 [0x2B] Koblakiq (ID: 16822508/0x0100B0EC) [7916*]:
    → "Those Goblins will be blessed by the Twilight God!"
 91: 0x0CC9 [0x23] WAIT_FOR_DIALOG_INTERACTION
 92: 0x0CCA [0x29] REQ_SET_WAIT(priority=0x08, entity_id=Koblakiq (ID: 16822508/0x0100B0EC), tag_num=0x1E)
 93: 0x0CD1 [0x52] END_LOAD_SCHEDULER: End scheduler "s052" with entities [EventEntity, EventEntity], work=22*
 94: 0x0CE0 [0x45] LOAD_SCHEDULED_TASK: Load scheduler "s053" with entities [EventEntity, EventEntity], work=[22*, 0*]
 95: 0x0CF1 [0x29] REQ_SET_WAIT(priority=0x08, entity_id=Koblakiq (ID: 16822508/0x0100B0EC), tag_num=0x1F)
 96: 0x0CF8 [0x4A] Koblakiq (ID: 16822508/0x0100B0EC) looks at Zeelozok (ID: 16822509/0x0100B0ED)
 97: 0x0D01 [0x29] REQ_SET_WAIT(priority=0x08, entity_id=Zeelozok (ID: 16822509/0x0100B0ED), tag_num=0x01)
 98: 0x0D08 [0x2B] Zeelozok (ID: 16822509/0x0100B0ED) [7917*]:
    → "Oh yeah, they also told me something important."
 99: 0x0D0F [0x23] WAIT_FOR_DIALOG_INTERACTION
100: 0x0D10 [0x2B] Zeelozok (ID: 16822509/0x0100B0ED) [7918*]:
    → "The Divinity of Darkness is searching for a statue beneath the earth."
101: 0x0D17 [0x23] WAIT_FOR_DIALOG_INTERACTION
102: 0x0D18 [0x29] REQ_SET_WAIT(priority=0x08, entity_id=Zeelozok (ID: 16822509/0x0100B0ED), tag_num=0x02)
103: 0x0D1F [0x29] REQ_SET_WAIT(priority=0x08, entity_id=Zeelozok (ID: 16822509/0x0100B0ED), tag_num=0x29)
104: 0x0D26 [0x6F] WAIT_FRAME_DELAY: Yield until WaitTime reaches zero
105: 0x0D27 [0x76] CHECK_ENTITY_RENDER_FLAGS: Wait until Koblakiq (ID: 16822508/0x0100B0EC) Render.Flags0 and Render.Flags3 conditions are met
106: 0x0D2C [0x52] END_LOAD_SCHEDULER: End scheduler "s053" with entities [EventEntity, EventEntity], work=22*
107: 0x0D3B [0x45] LOAD_SCHEDULED_TASK: Load scheduler "s055" with entities [EventEntity, EventEntity], work=[22*, 0*]
108: 0x0D4C [0x29] REQ_SET_WAIT(priority=0x08, entity_id=Koblakiq (ID: 16822508/0x0100B0EC), tag_num=0x0F)
109: 0x0D53 [0x2B] Koblakiq (ID: 16822508/0x0100B0EC) [7919*]:
    → "A statue beneath the earth! The statue of legend? The statue that will bring about the age of Moblins!?"
110: 0x0D5A [0x23] WAIT_FOR_DIALOG_INTERACTION
111: 0x0D5B [0x29] REQ_SET_WAIT(priority=0x08, entity_id=Koblakiq (ID: 16822508/0x0100B0EC), tag_num=0x10)
112: 0x0D62 [0x2B] Koblakiq (ID: 16822508/0x0100B0EC) [7920*]:
    → "The dark god must be afraid of its power! We have to find it first!"
113: 0x0D69 [0x23] WAIT_FOR_DIALOG_INTERACTION
114: 0x0D6A [0x52] END_LOAD_SCHEDULER: End scheduler "s055" with entities [EventEntity, EventEntity], work=22*
115: 0x0D79 [0x45] LOAD_SCHEDULED_TASK: Load scheduler "s054" with entities [EventEntity, EventEntity], work=[22*, 0*]
116: 0x0D8A [0x4A] LocalPlayer looks at Koblakiq (ID: 16822508/0x0100B0EC)
117: 0x0D93 [0x29] REQ_SET_WAIT(priority=0x08, entity_id=Koblakiq (ID: 16822508/0x0100B0EC), tag_num=0x11)
118: 0x0D9A [0x29] REQ_SET_WAIT(priority=0x08, entity_id=Zeelozok (ID: 16822509/0x0100B0ED), tag_num=0x03)
119: 0x0DA1 [0x2B] Zeelozok (ID: 16822509/0x0100B0ED) [7921*]:
    → "You're right! I'm going to help search right now! Later, Sis!"
120: 0x0DA8 [0x23] WAIT_FOR_DIALOG_INTERACTION
121: 0x0DA9 [0x29] REQ_SET_WAIT(priority=0x08, entity_id=Zeelozok (ID: 16822509/0x0100B0ED), tag_num=0x04)
122: 0x0DB0 [0x6F] WAIT_FRAME_DELAY: Yield until WaitTime reaches zero
123: 0x0DB1 [0x76] CHECK_ENTITY_RENDER_FLAGS: Wait until LocalPlayer Render.Flags0 and Render.Flags3 conditions are met
124: 0x0DB6 [0x29] REQ_SET_WAIT(priority=0x08, entity_id=Koblakiq (ID: 16822508/0x0100B0EC), tag_num=0x12)
125: 0x0DBD [0x29] REQ_SET_WAIT(priority=0x08, entity_id=Zeelozok (ID: 16822509/0x0100B0ED), tag_num=0x29)
126: 0x0DC4 [0x27] REQ_SET(priority=0x0B, entity_id=Zeelozok (ID: 16822509/0x0100B0ED), tag_num=0x32)
127: 0x0DCB [0x1C] WAIT(150* ticks)
128: 0x0DCE [0x52] END_LOAD_SCHEDULER: End scheduler "s054" with entities [EventEntity, EventEntity], work=22*
129: 0x0DDD [0x45] LOAD_SCHEDULED_TASK: Load scheduler "s056" with entities [EventEntity, EventEntity], work=[22*, 0*]
130: 0x0DEE [0x29] REQ_SET_WAIT(priority=0x0B, entity_id=Koblakiq (ID: 16822508/0x0100B0EC), tag_num=0x3D)
131: 0x0DF5 [0x2B] Koblakiq (ID: 16822508/0x0100B0EC) [7922*]:
    → "You look confused, <Player>."
132: 0x0DFC [0x23] WAIT_FOR_DIALOG_INTERACTION
133: 0x0DFD [0x29] REQ_SET_WAIT(priority=0x08, entity_id=Zeelozok (ID: 16822509/0x0100B0ED), tag_num=0x03)
134: 0x0E04 [0x2B] Koblakiq (ID: 16822508/0x0100B0EC) [7923*]:
    → "The warp caverns are open areas left in the tunnels we collapse behind us. They're all linked together like one big chain."
135: 0x0E0B [0x23] WAIT_FOR_DIALOG_INTERACTION
136: 0x0E0C [0x2B] Koblakiq (ID: 16822508/0x0100B0EC) [7924*]:
    → "With a Moblin earplug, you can find the entrances to the warp caverns. Makes traveling easy. Only we Moblins know they exist."
137: 0x0E13 [0x23] WAIT_FOR_DIALOG_INTERACTION
138: 0x0E14 [0x29] REQ_SET_WAIT(priority=0x08, entity_id=Zeelozok (ID: 16822509/0x0100B0ED), tag_num=0x04)
139: 0x0E1B [0x52] END_LOAD_SCHEDULER: End scheduler "s056" with entities [EventEntity, EventEntity], work=22*
140: 0x0E2A [0x45] LOAD_SCHEDULED_TASK: Load scheduler "s058" with entities [EventEntity, EventEntity], work=[22*, 0*]
141: 0x0E3B [0x4E] SET_ENTITY_HIDE_FLAG: Hide LocalPlayer
142: 0x0E41 [0x2B] Koblakiq (ID: 16822508/0x0100B0EC) [7925*]:
    → "We're gonna start digging out from those caverns again, and search for the statue. You people are no good at digging, so you don't have to help."
143: 0x0E48 [0x23] WAIT_FOR_DIALOG_INTERACTION
144: 0x0E49 [0x29] REQ_SET_WAIT(priority=0x08, entity_id=Koblakiq (ID: 16822508/0x0100B0EC), tag_num=0x05)
145: 0x0E50 [0x02] IF !(ExtData[1]->WorkLocal[0] == 1*) GOTO 0x0E63
146: 0x0E58 [0x2B] Koblakiq (ID: 16822508/0x0100B0EC) [8029*]:
    → "Take this. When Moblins and demons go to war, use it for the glory of the children of Promathia!"
147: 0x0E5F [0x23] WAIT_FOR_DIALOG_INTERACTION
148: 0x0E60 [0x01] GOTO 0x0E6B
149: 0x0E63 [0x2B] Koblakiq (ID: 16822508/0x0100B0EC) [7926*]:
    → "Take this. When Moblins and people go to war, use it for the glory of the children of Promathia."
150: 0x0E6A [0x23] WAIT_FOR_DIALOG_INTERACTION

SUBROUTINE_0E6B:
151: 0x0E6B [0x29] REQ_SET_WAIT(priority=0x08, entity_id=Koblakiq (ID: 16822508/0x0100B0EC), tag_num=0x06)
152: 0x0E72 [0x29] REQ_SET_WAIT(priority=0x08, entity_id=Koblakiq (ID: 16822508/0x0100B0EC), tag_num=0x1B)
153: 0x0E79 [0x2B] Koblakiq (ID: 16822508/0x0100B0EC) [7927*]:
    → "I'll be looking for you when the battle starts, so don't go dying yet, okay?"
154: 0x0E80 [0x23] WAIT_FOR_DIALOG_INTERACTION
155: 0x0E81 [0x29] REQ_SET_WAIT(priority=0x08, entity_id=Koblakiq (ID: 16822508/0x0100B0EC), tag_num=0x1C)
156: 0x0E88 [0x5D] SET_MUSIC_VOLUME(volume=0*, fade_time=120*)
157: 0x0E8D [0x45] LOAD_SCHEDULED_TASK: Load scheduler "fdo1" with entities [LocalPlayer, LocalPlayer], work=[200*, 0*]
158: 0x0E9E [0x1C] WAIT(120* ticks)
159: 0x0EA1 [0x52] END_LOAD_SCHEDULER: End scheduler "s056" with entities [EventEntity, EventEntity], work=22*
160: 0x0EB0 [0x5C] MUSIC_CONTROL: Set Idle (Day) music to song 221*
161: 0x0EB4 [0x5C] MUSIC_CONTROL: Set Idle (Night) music to song 221*
162: 0x0EB8 [0x4E] SET_ENTITY_HIDE_FLAG: Show LocalPlayer
163: 0x0EBE [0x80] LOAD_WAIT(entity=LocalPlayer)
164: 0x0EC3 [0x46] CAMERA_CONTROL: Restore default settings
165: 0x0EC5 [0x45] LOAD_SCHEDULED_TASK: Load scheduler "qstc" with entities [LocalPlayer, LocalPlayer], work=[201*, 0*]
166: 0x0ED6 [0x45] LOAD_SCHEDULED_TASK: Load scheduler "fdi1" with entities [LocalPlayer, LocalPlayer], work=[200*, 0*]
167: 0x0EE7 [0x20] SET_CLI_EVENT_UC_FLAG: Unlock player control
168: 0x0EE9 [0x21] END_EVENT
169: 0x0EEA [0x00] END_REQSTACK()
```
