# 16822535 - Twinkbrix

## Common Data

| Field            | Value                      |
|------------------|----------------------------|
| Zone             | Oldton Movalpolos (ID: 11) |
| Block Size       | 664 bytes                  |
| Total Events     | 7                          |
| References Count | 40                         |

## List of Events

| Event ID              | Entrypoint   |   Size |   Instructions |
|-----------------------|--------------|--------|----------------|
| [65535](#event-65535) | 0x0000       |      1 |              1 |
| [50](#event-50)       | 0x0001       |     11 |              5 |
| [51](#event-51)       | 0x000C       |     12 |              6 |
| [52](#event-52)       | 0x0018       |    103 |             39 |
| [55](#event-55)       | 0x007F       |    119 |             32 |
| [53](#event-53)       | 0x00F6       |     23 |             11 |
| [56](#event-56)       | 0x010D       |    189 |             41 |

## DAT References (imed_data)

|   Index | Hex Value   |   Dec Value |
|---------|-------------|-------------|
|       0 | 0x1EF8      |        7928 |
|       1 | 0x1EFC      |        7932 |
|       2 | 0x1EF9      |        7929 |
|       3 | 0x0002      |           2 |
|       4 | 0x1F10      |        7952 |
|       5 | 0x0000      |           0 |
|       6 | 0x1EFD      |        7933 |
|       7 | 0x1EFE      |        7934 |
|       8 | 0x1EFF      |        7935 |
|       9 | 0x1F07      |        7943 |
|      10 | 0x1F08      |        7944 |
|      11 | 0x0003      |           3 |
|      12 | 0x0001      |           1 |
|      13 | 0x1F0D      |        7949 |
|      14 | 0x1F0E      |        7950 |
|      15 | 0x1F0F      |        7951 |
|      16 | 0x1F09      |        7945 |
|      17 | 0x1F0A      |        7946 |
|      18 | 0x1F0B      |        7947 |
|      19 | 0x1F0C      |        7948 |
|      20 | 0x0A9C      |        2716 |
|      21 | 0x1F12      |        7954 |
|      22 | 0x1F11      |        7953 |
|      23 | 0x1F14      |        7956 |
|      24 | 0x1F13      |        7955 |
|      25 | 0x1F15      |        7957 |
|      26 | 0x0080      |         128 |
|      27 | 0x1F16      |        7958 |
|      28 | 0x1F17      |        7959 |
|      29 | 0x1F19      |        7961 |
|      30 | 0x1F18      |        7960 |
|      31 | 0x1F1A      |        7962 |
|      32 | 0x1F1B      |        7963 |
|      33 | 0x02A4      |         676 |
|      34 | 0x1F03      |        7939 |
|      35 | 0x1F1C      |        7964 |
|      36 | 0x1F1D      |        7965 |
|      37 | 0x010A      |         266 |
|      38 | 0x012C      |         300 |
|      39 | 0x00C8      |         200 |

## String References

- **7928**: Yous gots whats yous came for, now scram!
- **7929**: Pssst! Hey yous! Ever beens to da mine shaft alls da ways beyonds Newston?
- **7932**: Heh heh heh... Comes to papa, $0. Alrights. A promise's a promise. Twinkbrix ain't a Gob to go back on his word!
- **7933**: Ya know, as much as I'd like to get my hands on another one o' dem jewels, I'm fresh outta levers.
- **7934**: Now says you came back on ( Earth time). You visits your cousin Twinkbrix then, and I'll hooks yous up with what yous need!
- **7935**: And don't forgets to bring $0. I ain't runnin' no charity here!
- **7939**: Give him the $3? [Yes./No.]
- **7943**: Da bigg boss of dis here place don'ts wants nobodys goin' back there, sos he broke off da lever to da main gate.
- **7944**: Nows, I could gives ya dis here spare lever, but I'ms gonna need somes incentives in return. Hows about we works out a trade? You brings me $0, and then we'll talk. Whaddaya say?
- **7945**: Oh yeah, there's another way to gets beyond da gate, and it won'ts rub da boss da wrong way...but I ain't tellin' the likes o' you...
- **7946**: But if yous really wants to know, I could gives ya a chance. Here's whats we'll do. Yous play dice witha me. Yous win, I lets ya in on my secrects.
- **7947**: But don't goes a thinkin' that I'ms gonna play for free. That's right, incentives! Yous forks over some gils, I'll tells ya if it's enough. Oh, and don't go givin' me any more than 10,000. I'ms not a crook, ya knows!
- **7948**: We'll sees if yous upworlders have what it takes to plays with da big boys!
- **7949**: Oh yeah, there's another way to gets beyond da gate, and it won'ts rub da boss da wrong way...but I ain't tellin' the likes o' you. 'Least nots yet.
- **7950**: Now says you came back on ( Earth time). You visits your cousin Twinkbrix then, and I'll hooks yous up with all the information yous need!
- **7951**: But don't thinks you'll be gettin' it easy!
- **7952**: Hey! Yous gots what ya came for, now git outta my face!
- **7953**: $0 gil? Alright. Lets me fill yous in on da finer details of our agreement.
- **7954**: $0 gil? Is that supposed have somes kinda meaning? Whatever, lets me fill yous in on da finer details of our agreement.
- **7955**: Rules are simple: I throws two 50-sided dice. If the total's betweens 2 and $1, yous win.
- **7956**: Rules are simple: I throws two 50-sided dice. If the total's 2, yous win.
- **7957**: Heres we go!
- **7958**: And the total is...$2!
- **7959**: Hmph... These dice must be fixed! But a deal's a deal... Takes dis!
- **7960**: Heh heh heh! Looks who wins again! Better luck next time, sucker!
- **7961**: Oh, and just to shows ya I'ms a good sport, I'll warps ya to the gate...for a meres $3 gils! But yous'd better not be carryin' anything that'll gets me in trouble!
- **7962**: Heh heh. That's what I likes about yous adventurers--pockets lined witha gil!
- **7963**: Hey hey hey! I tolds yous not to bring anythings that'd gets me in trouble! Gimme that!
- **7964**: Twinkbrix snatches the $3 from your hand.
- **7965**: Holds on, upworlder!

## Events

### Event 65535

#### Metadata

| Field        | Value   |
|--------------|---------|
| Entrypoint   | 0x0000  |
| Data Size    | 1 bytes |
| Instructions | 1       |

```
      00 01 02 03 04 05 06 07  08 09 0A 0B 0C 0D 0E 0F
      -- -- -- -- -- -- -- --  -- -- -- -- -- -- -- --
0000: 00                                                .               
```

#### Opcodes

```
  0: 0x0000 [0x00] END_REQSTACK()
```

### Event 50

#### Metadata

| Field        | Value    |
|--------------|----------|
| Entrypoint   | 0x0001   |
| Data Size    | 11 bytes |
| Instructions | 5        |

```
      00 01 02 03 04 05 06 07  08 09 0A 0B 0C 0D 0E 0F
      -- -- -- -- -- -- -- --  -- -- -- -- -- -- -- --
0000:    1E F0 FF FF 7F 1D 00  80 23 21 00               ........#!.    
```

#### Opcodes

```
  0: 0x0001 [0x1E] EventEntity looks at LocalPlayer and starts talking
  1: 0x0006 [0x1D] PRINT_EVENT_MESSAGE(message_id=7928*)
    → "Yous gots whats yous came for, now scram!"
  2: 0x0009 [0x23] WAIT_FOR_DIALOG_INTERACTION
  3: 0x000A [0x21] END_EVENT
  4: 0x000B [0x00] END_REQSTACK()
```

### Event 51

#### Metadata

| Field        | Value    |
|--------------|----------|
| Entrypoint   | 0x000C   |
| Data Size    | 12 bytes |
| Instructions | 6        |

```
      00 01 02 03 04 05 06 07  08 09 0A 0B 0C 0D 0E 0F
      -- -- -- -- -- -- -- --  -- -- -- -- -- -- -- --
0000:                                      42 1E F0 FF              B...
0010: FF 7F 1D 01 80 23 21 00                           .....#!.        
```

#### Opcodes

```
  0: 0x000C [0x42] SET_CLI_EVENT_CANCEL_DATA()
  1: 0x000D [0x1E] EventEntity looks at LocalPlayer and starts talking
  2: 0x0012 [0x1D] PRINT_EVENT_MESSAGE(message_id=7932*)
    → "Heh heh heh... Comes to papa, $0. Alrights. A promise's a promise. Twinkbrix ain't a Gob to go back on his word!"
  3: 0x0015 [0x23] WAIT_FOR_DIALOG_INTERACTION
  4: 0x0016 [0x21] END_EVENT
  5: 0x0017 [0x00] END_REQSTACK()
```

### Event 52

#### Metadata

| Field        | Value     |
|--------------|-----------|
| Entrypoint   | 0x0018    |
| Data Size    | 103 bytes |
| Instructions | 39        |

```
      00 01 02 03 04 05 06 07  08 09 0A 0B 0C 0D 0E 0F
      -- -- -- -- -- -- -- --  -- -- -- -- -- -- -- --
0010:                          1E F0 FF FF 7F 1D 02 80          ........
0020: 23 3E 06 10 03 80 2F 00  1D 04 80 23 01 4D 00 3E  #>..../....#.M.>
0030: 06 10 05 80 45 00 1D 06  80 23 1D 07 80 23 1D 08  ....E....#...#..
0040: 80 23 01 4D 00 1D 09 80  23 1D 0A 80 23 3E 06 10  .#.M....#...#>..
0050: 0B 80 57 00 01 7D 00 3E  06 10 0C 80 6D 00 1D 0D  ..W..}.>....m...
0060: 80 23 1D 0E 80 23 1D 0F  80 23 01 7D 00 1D 10 80  .#...#...#.}....
0070: 23 1D 11 80 23 1D 12 80  23 1D 13 80 23 21 00     #...#...#...#!. 
```

#### Opcodes

```
  0: 0x0018 [0x1E] EventEntity looks at LocalPlayer and starts talking
  1: 0x001D [0x1D] PRINT_EVENT_MESSAGE(message_id=7929*)
    → "Pssst! Hey yous! Ever beens to da mine shaft alls da ways beyonds Newston?"
  2: 0x0020 [0x23] WAIT_FOR_DIALOG_INTERACTION
  3: 0x0021 [0x3E] IF !(Work_Zone[6] bit 2*) GOTO 0x002F
  4: 0x0028 [0x1D] PRINT_EVENT_MESSAGE(message_id=7952*)
    → "Hey! Yous gots what ya came for, now git outta my face!"
  5: 0x002B [0x23] WAIT_FOR_DIALOG_INTERACTION
  6: 0x002C [0x01] GOTO 0x004D
  7: 0x002F [0x3E] IF !(Work_Zone[6] bit 0*) GOTO 0x0045
  8: 0x0036 [0x1D] PRINT_EVENT_MESSAGE(message_id=7933*)
    → "Ya know, as much as I'd like to get my hands on another one o' dem jewels, I'm fresh outta levers."
  9: 0x0039 [0x23] WAIT_FOR_DIALOG_INTERACTION
 10: 0x003A [0x1D] PRINT_EVENT_MESSAGE(message_id=7934*)
    → "Now says you came back on ( Earth time). You visits your cousin Twinkbrix then, and I'll hooks yous up with what yous need!"
 11: 0x003D [0x23] WAIT_FOR_DIALOG_INTERACTION
 12: 0x003E [0x1D] PRINT_EVENT_MESSAGE(message_id=7935*)
    → "And don't forgets to bring $0. I ain't runnin' no charity here!"
 13: 0x0041 [0x23] WAIT_FOR_DIALOG_INTERACTION
 14: 0x0042 [0x01] GOTO 0x004D
 15: 0x0045 [0x1D] PRINT_EVENT_MESSAGE(message_id=7943*)
    → "Da bigg boss of dis here place don'ts wants nobodys goin' back there, sos he broke off da lever to da main gate."
 16: 0x0048 [0x23] WAIT_FOR_DIALOG_INTERACTION
 17: 0x0049 [0x1D] PRINT_EVENT_MESSAGE(message_id=7944*)
    → "Nows, I could gives ya dis here spare lever, but I'ms gonna need somes incentives in return. Hows about we works out a trade? You brings me $0, and then we'll talk. Whaddaya say?"
 18: 0x004C [0x23] WAIT_FOR_DIALOG_INTERACTION

SUBROUTINE_004D:
 19: 0x004D [0x3E] IF !(Work_Zone[6] bit 3*) GOTO 0x0057
 20: 0x0054 [0x01] GOTO 0x007D
 21: 0x0057 [0x3E] IF !(Work_Zone[6] bit 1*) GOTO 0x006D
 22: 0x005E [0x1D] PRINT_EVENT_MESSAGE(message_id=7949*)
    → "Oh yeah, there's another way to gets beyond da gate, and it won'ts rub da boss da wrong way...but I ain't tellin' the likes o' you. 'Least nots yet."
 23: 0x0061 [0x23] WAIT_FOR_DIALOG_INTERACTION
 24: 0x0062 [0x1D] PRINT_EVENT_MESSAGE(message_id=7950*)
    → "Now says you came back on ( Earth time). You visits your cousin Twinkbrix then, and I'll hooks yous up with all the information yous need!"
 25: 0x0065 [0x23] WAIT_FOR_DIALOG_INTERACTION
 26: 0x0066 [0x1D] PRINT_EVENT_MESSAGE(message_id=7951*)
    → "But don't thinks you'll be gettin' it easy!"
 27: 0x0069 [0x23] WAIT_FOR_DIALOG_INTERACTION
 28: 0x006A [0x01] GOTO 0x007D
 29: 0x006D [0x1D] PRINT_EVENT_MESSAGE(message_id=7945*)
    → "Oh yeah, there's another way to gets beyond da gate, and it won'ts rub da boss da wrong way...but I ain't tellin' the likes o' you..."
 30: 0x0070 [0x23] WAIT_FOR_DIALOG_INTERACTION
 31: 0x0071 [0x1D] PRINT_EVENT_MESSAGE(message_id=7946*)
    → "But if yous really wants to know, I could gives ya a chance. Here's whats we'll do. Yous play dice witha me. Yous win, I lets ya in on my secrects."
 32: 0x0074 [0x23] WAIT_FOR_DIALOG_INTERACTION
 33: 0x0075 [0x1D] PRINT_EVENT_MESSAGE(message_id=7947*)
    → "But don't goes a thinkin' that I'ms gonna play for free. That's right, incentives! Yous forks over some gils, I'll tells ya if it's enough. Oh, and don't go givin' me any more than 10,000. I'ms not a crook, ya knows!"
 34: 0x0078 [0x23] WAIT_FOR_DIALOG_INTERACTION
 35: 0x0079 [0x1D] PRINT_EVENT_MESSAGE(message_id=7948*)
    → "We'll sees if yous upworlders have what it takes to plays with da big boys!"
 36: 0x007C [0x23] WAIT_FOR_DIALOG_INTERACTION

SUBROUTINE_007D:
 37: 0x007D [0x21] END_EVENT
 38: 0x007E [0x00] END_REQSTACK()
```

### Event 55

#### Metadata

| Field        | Value     |
|--------------|-----------|
| Entrypoint   | 0x007F    |
| Data Size    | 119 bytes |
| Instructions | 32        |

```
      00 01 02 03 04 05 06 07  08 09 0A 0B 0C 0D 0E 0F
      -- -- -- -- -- -- -- --  -- -- -- -- -- -- -- --
0070:                                               42                 B
0080: 1E F0 FF FF 7F 02 02 10  14 80 00 94 00 1D 15 80  ................
0090: 23 01 98 00 1D 16 80 23  02 03 10 03 80 00 A7 00  #......#........
00A0: 1D 17 80 23 01 AB 00 1D  18 80 23 1D 19 80 23 9F  ...#......#...#.
00B0: 1A 80 F8 FF FF 7F F8 FF  FF 7F 6D 61 69 6E 05 80  ..........main..
00C0: A2 1A 80 F8 FF FF 7F F8  FF FF 7F 6D 61 69 6E 1D  ...........main.
00D0: 1B 80 23 02 03 10 04 10  04 EB 00 1D 1C 80 23 1D  ..#...........#.
00E0: 1D 80 23 03 01 10 0C 80  01 F4 00 1D 1E 80 23 03  ..#...........#.
00F0: 01 10 05 80 21 00                                 ....!.          
```

#### Opcodes

```
  0: 0x007F [0x42] SET_CLI_EVENT_CANCEL_DATA()
  1: 0x0080 [0x1E] EventEntity looks at LocalPlayer and starts talking
  2: 0x0085 [0x02] IF !(Work_Zone[2] == 2716*) GOTO 0x0094
  3: 0x008D [0x1D] PRINT_EVENT_MESSAGE(message_id=7954*)
    → "$0 gil? Is that supposed have somes kinda meaning? Whatever, lets me fill yous in on da finer details of our agreement."
  4: 0x0090 [0x23] WAIT_FOR_DIALOG_INTERACTION
  5: 0x0091 [0x01] GOTO 0x0098
  6: 0x0094 [0x1D] PRINT_EVENT_MESSAGE(message_id=7953*)
    → "$0 gil? Alright. Lets me fill yous in on da finer details of our agreement."
  7: 0x0097 [0x23] WAIT_FOR_DIALOG_INTERACTION

SUBROUTINE_0098:
  8: 0x0098 [0x02] IF !(Work_Zone[3] == 2*) GOTO 0x00A7
  9: 0x00A0 [0x1D] PRINT_EVENT_MESSAGE(message_id=7956*)
    → "Rules are simple: I throws two 50-sided dice. If the total's 2, yous win."
 10: 0x00A3 [0x23] WAIT_FOR_DIALOG_INTERACTION
 11: 0x00A4 [0x01] GOTO 0x00AB
 12: 0x00A7 [0x1D] PRINT_EVENT_MESSAGE(message_id=7955*)
    → "Rules are simple: I throws two 50-sided dice. If the total's betweens 2 and $1, yous win."
 13: 0x00AA [0x23] WAIT_FOR_DIALOG_INTERACTION

SUBROUTINE_00AB:
 14: 0x00AB [0x1D] PRINT_EVENT_MESSAGE(message_id=7957*)
    → "Heres we go!"
 15: 0x00AE [0x23] WAIT_FOR_DIALOG_INTERACTION
 16: 0x00AF [0x9F] LOAD_SCHEDULED_TASK_ALT: Load scheduler "main" with entities [EventEntity, EventEntity], work=[128*, 0*]
 17: 0x00C0 [0xA2] WAIT_LOAD_SCHEDULER_MAIN: Wait for scheduler "main" with entities [EventEntity, EventEntity], work=128*
 18: 0x00CF [0x1D] PRINT_EVENT_MESSAGE(message_id=7958*)
    → "And the total is...$2!"
 19: 0x00D2 [0x23] WAIT_FOR_DIALOG_INTERACTION
 20: 0x00D3 [0x02] IF !(Work_Zone[3] < Work_Zone[4]) GOTO 0x00EB
 21: 0x00DB [0x1D] PRINT_EVENT_MESSAGE(message_id=7959*)
    → "Hmph... These dice must be fixed! But a deal's a deal... Takes dis!"
 22: 0x00DE [0x23] WAIT_FOR_DIALOG_INTERACTION
 23: 0x00DF [0x1D] PRINT_EVENT_MESSAGE(message_id=7961*)
    → "Oh, and just to shows ya I'ms a good sport, I'll warps ya to the gate...for a meres $3 gils! But yous'd better not be carryin' anything that'll gets me in trouble!"
 24: 0x00E2 [0x23] WAIT_FOR_DIALOG_INTERACTION
 25: 0x00E3 [0x03] Work_Zone[1] = 1*
 26: 0x00E8 [0x01] GOTO 0x00F4
 27: 0x00EB [0x1D] PRINT_EVENT_MESSAGE(message_id=7960*)
    → "Heh heh heh! Looks who wins again! Better luck next time, sucker!"
 28: 0x00EE [0x23] WAIT_FOR_DIALOG_INTERACTION
 29: 0x00EF [0x03] Work_Zone[1] = 0*

SUBROUTINE_00F4:
 30: 0x00F4 [0x21] END_EVENT
 31: 0x00F5 [0x00] END_REQSTACK()
```

### Event 53

#### Metadata

| Field        | Value    |
|--------------|----------|
| Entrypoint   | 0x00F6   |
| Data Size    | 23 bytes |
| Instructions | 11       |

```
      00 01 02 03 04 05 06 07  08 09 0A 0B 0C 0D 0E 0F
      -- -- -- -- -- -- -- --  -- -- -- -- -- -- -- --
00F0:                   1E F0  FF FF 7F 1D 02 80 23 1D        ........#.
0100: 06 80 23 1D 07 80 23 1D  08 80 23 21 00           ..#...#...#!.   
```

#### Opcodes

```
  0: 0x00F6 [0x1E] EventEntity looks at LocalPlayer and starts talking
  1: 0x00FB [0x1D] PRINT_EVENT_MESSAGE(message_id=7929*)
    → "Pssst! Hey yous! Ever beens to da mine shaft alls da ways beyonds Newston?"
  2: 0x00FE [0x23] WAIT_FOR_DIALOG_INTERACTION
  3: 0x00FF [0x1D] PRINT_EVENT_MESSAGE(message_id=7933*)
    → "Ya know, as much as I'd like to get my hands on another one o' dem jewels, I'm fresh outta levers."
  4: 0x0102 [0x23] WAIT_FOR_DIALOG_INTERACTION
  5: 0x0103 [0x1D] PRINT_EVENT_MESSAGE(message_id=7934*)
    → "Now says you came back on ( Earth time). You visits your cousin Twinkbrix then, and I'll hooks yous up with what yous need!"
  6: 0x0106 [0x23] WAIT_FOR_DIALOG_INTERACTION
  7: 0x0107 [0x1D] PRINT_EVENT_MESSAGE(message_id=7935*)
    → "And don't forgets to bring $0. I ain't runnin' no charity here!"
  8: 0x010A [0x23] WAIT_FOR_DIALOG_INTERACTION
  9: 0x010B [0x21] END_EVENT
 10: 0x010C [0x00] END_REQSTACK()
```

### Event 56

#### Metadata

| Field        | Value     |
|--------------|-----------|
| Entrypoint   | 0x010D    |
| Data Size    | 189 bytes |
| Instructions | 41        |

```
      00 01 02 03 04 05 06 07  08 09 0A 0B 0C 0D 0E 0F
      -- -- -- -- -- -- -- --  -- -- -- -- -- -- -- --
0100:                                         42 1E F0               B..
0110: FF FF 7F 1D 1F 80 23 03  01 10 05 80 02 03 10 05  ......#.........
0120: 80 01 8A 01 1D 20 80 23  03 02 10 21 80 24 22 80  ..... .#...!.$".
0130: 0C 80 05 80 25 02 00 10  05 80 00 87 01 03 03 10  ....%...........
0140: 21 80 48 23 80 23 1D 24  80 23 43 00 43 01 73 25  !.H#.#.$.#C.C.s%
0150: 80 F8 FF FF 7F F0 FF FF  7F 1C 26 80 45 27 80 F0  ..........&.E'..
0160: FF FF 7F F0 FF FF 7F 66  64 6F 31 05 80 55 27 80  .......fdo1..U'.
0170: F0 FF FF 7F F0 FF FF 7F  66 64 6F 31 20 01 30 03  ........fdo1 .0.
0180: 01 10 0C 80 01 87 01 01  C8 01 1D 24 80 23 43 00  ...........$.#C.
0190: 43 01 73 25 80 F8 FF FF  7F F0 FF FF 7F 1C 26 80  C.s%..........&.
01A0: 45 27 80 F0 FF FF 7F F0  FF FF 7F 66 64 6F 31 05  E'.........fdo1.
01B0: 80 55 27 80 F0 FF FF 7F  F0 FF FF 7F 66 64 6F 31  .U'.........fdo1
01C0: 20 01 30 03 01 10 0C 80  21 00                     .0.....!.      
```

#### Opcodes

```
  0: 0x010D [0x42] SET_CLI_EVENT_CANCEL_DATA()
  1: 0x010E [0x1E] EventEntity looks at LocalPlayer and starts talking
  2: 0x0113 [0x1D] PRINT_EVENT_MESSAGE(message_id=7962*)
    → "Heh heh. That's what I likes about yous adventurers--pockets lined witha gil!"
  3: 0x0116 [0x23] WAIT_FOR_DIALOG_INTERACTION
  4: 0x0117 [0x03] Work_Zone[1] = 0*
  5: 0x011C [0x02] IF !(Work_Zone[3] == 0*) GOTO 0x018A
  6: 0x0124 [0x1D] PRINT_EVENT_MESSAGE(message_id=7963*)
    → "Hey hey hey! I tolds yous not to bring anythings that'd gets me in trouble! Gimme that!"
  7: 0x0127 [0x23] WAIT_FOR_DIALOG_INTERACTION
  8: 0x0128 [0x03] Work_Zone[2] = 676*
  9: 0x012D [0x24] CREATE_DIALOG(message_id=7939*, default_option=1*, option_flags=0*)
    → "Give him the $3? [Yes./No.]"
 10: 0x0134 [0x25] WAIT_DIALOG_SELECT()
 11: 0x0135 [0x02] IF !(Work_Zone[0] == 0*) GOTO 0x0187
 12: 0x013D [0x03] Work_Zone[3] = 676*
 13: 0x0142 [0x48] [System] [7964*]:
    → "Twinkbrix snatches the $3 from your hand."
 14: 0x0145 [0x23] WAIT_FOR_DIALOG_INTERACTION
 15: 0x0146 [0x1D] PRINT_EVENT_MESSAGE(message_id=7965*)
    → "Holds on, upworlder!"
 16: 0x0149 [0x23] WAIT_FOR_DIALOG_INTERACTION
 17: 0x014A [0x43] SEND_EVENT_UPDATE: Send pending tag to server (packet 0x005B)
 18: 0x014C [0x43] SEND_EVENT_UPDATE: Check pending flag (skip if not pending)
 19: 0x014E [0x73] EventEntity casts magic 266* on LocalPlayer
 20: 0x0159 [0x1C] WAIT(300* ticks)
 21: 0x015C [0x45] LOAD_SCHEDULED_TASK: Load scheduler "fdo1" with entities [LocalPlayer, LocalPlayer], work=[200*, 0*]
 22: 0x016D [0x55] WAIT_LOAD_SCHEDULER: Wait for scheduler "fdo1" with entities [LocalPlayer, LocalPlayer], work=200*
 23: 0x017C [0x20] SET_CLI_EVENT_UC_FLAG: Lock player control
 24: 0x017E [0x30] SET_UCOFF_CONTINUE_ZERO()
 25: 0x017F [0x03] Work_Zone[1] = 1*
 26: 0x0184 [0x01] GOTO 0x0187

SUBROUTINE_0187:
 27: 0x0187 [0x01] GOTO 0x01C8
 28: 0x018A [0x1D] PRINT_EVENT_MESSAGE(message_id=7965*)
    → "Holds on, upworlder!"
 29: 0x018D [0x23] WAIT_FOR_DIALOG_INTERACTION
 30: 0x018E [0x43] SEND_EVENT_UPDATE: Send pending tag to server (packet 0x005B)
 31: 0x0190 [0x43] SEND_EVENT_UPDATE: Check pending flag (skip if not pending)
 32: 0x0192 [0x73] EventEntity casts magic 266* on LocalPlayer
 33: 0x019D [0x1C] WAIT(300* ticks)
 34: 0x01A0 [0x45] LOAD_SCHEDULED_TASK: Load scheduler "fdo1" with entities [LocalPlayer, LocalPlayer], work=[200*, 0*]
 35: 0x01B1 [0x55] WAIT_LOAD_SCHEDULER: Wait for scheduler "fdo1" with entities [LocalPlayer, LocalPlayer], work=200*
 36: 0x01C0 [0x20] SET_CLI_EVENT_UC_FLAG: Lock player control
 37: 0x01C2 [0x30] SET_UCOFF_CONTINUE_ZERO()
 38: 0x01C3 [0x03] Work_Zone[1] = 1*

SUBROUTINE_01C8:
 39: 0x01C8 [0x21] END_EVENT
 40: 0x01C9 [0x00] END_REQSTACK()
```
