# 16822508 - Koblakiq

## Common Data

| Field            | Value                      |
|------------------|----------------------------|
| Zone             | Oldton Movalpolos (ID: 11) |
| Block Size       | 2916 bytes                 |
| Total Events     | 63                         |
| References Count | 86                         |

## List of Events

| Event ID                   | Entrypoint   |   Size |   Instructions |
|----------------------------|--------------|--------|----------------|
| [65535](#event-65535)      | 0x0000       |      1 |              1 |
| [65535.1](#event-655351)   | 0x0001       |     16 |              2 |
| [65535.2](#event-655352)   | 0x0011       |     14 |              2 |
| [65535.3](#event-655353)   | 0x001F       |     16 |              2 |
| [65535.4](#event-655354)   | 0x002F       |     14 |              2 |
| [65535.5](#event-655355)   | 0x003D       |     16 |              2 |
| [65535.6](#event-655356)   | 0x004D       |     14 |              2 |
| [65535.7](#event-655357)   | 0x005B       |     16 |              2 |
| [65535.8](#event-655358)   | 0x006B       |     14 |              2 |
| [65535.9](#event-655359)   | 0x0079       |     16 |              2 |
| [65535.10](#event-6553510) | 0x0089       |     14 |              2 |
| [65535.11](#event-6553511) | 0x0097       |     16 |              2 |
| [65535.12](#event-6553512) | 0x00A7       |     14 |              2 |
| [65535.13](#event-6553513) | 0x00B5       |     16 |              2 |
| [65535.14](#event-6553514) | 0x00C5       |     14 |              2 |
| [65535.15](#event-6553515) | 0x00D3       |     16 |              2 |
| [65535.16](#event-6553516) | 0x00E3       |     14 |              2 |
| [65535.17](#event-6553517) | 0x00F1       |     16 |              2 |
| [65535.18](#event-6553518) | 0x0101       |     14 |              2 |
| [65535.19](#event-6553519) | 0x010F       |     16 |              2 |
| [65535.20](#event-6553520) | 0x011F       |     14 |              2 |
| [65535.21](#event-6553521) | 0x012D       |     16 |              2 |
| [65535.22](#event-6553522) | 0x013D       |     14 |              2 |
| [65535.23](#event-6553523) | 0x014B       |     16 |              2 |
| [65535.24](#event-6553524) | 0x015B       |     14 |              2 |
| [65535.25](#event-6553525) | 0x0169       |     16 |              2 |
| [65535.26](#event-6553526) | 0x0179       |     14 |              2 |
| [65535.27](#event-6553527) | 0x0187       |     16 |              2 |
| [65535.28](#event-6553528) | 0x0197       |     14 |              2 |
| [65535.29](#event-6553529) | 0x01A5       |     16 |              2 |
| [65535.30](#event-6553530) | 0x01B5       |     14 |              2 |
| [65535.31](#event-6553531) | 0x01C3       |     16 |              2 |
| [65535.32](#event-6553532) | 0x01D3       |     14 |              2 |
| [65535.33](#event-6553533) | 0x01E1       |     16 |              2 |
| [65535.34](#event-6553534) | 0x01F1       |     14 |              2 |
| [65535.35](#event-6553535) | 0x01FF       |     16 |              2 |
| [65535.36](#event-6553536) | 0x020F       |     14 |              2 |
| [65535.37](#event-6553537) | 0x021D       |     16 |              2 |
| [65535.38](#event-6553538) | 0x022D       |     14 |              2 |
| [65535.39](#event-6553539) | 0x023B       |     16 |              2 |
| [65535.40](#event-6553540) | 0x024B       |     14 |              2 |
| [65535.41](#event-6553541) | 0x0259       |      9 |              3 |
| [13](#event-13)            | 0x0262       |     15 |              8 |
| [7](#event-7)              | 0x0271       |    360 |             83 |
| [8](#event-8)              | 0x03D9       |     51 |             16 |
| [9](#event-9)              | 0x040C       |    166 |             36 |
| [12](#event-12)            | 0x04B2       |     43 |             12 |
| [14](#event-14)            | 0x04DD       |    215 |             53 |
| [15](#event-15)            | 0x05B4       |     47 |             14 |
| [16](#event-16)            | 0x05E3       |    249 |             65 |
| [17](#event-17)            | 0x06DC       |     15 |              8 |
| [18](#event-18)            | 0x06EB       |    171 |             39 |
| [19](#event-19)            | 0x0796       |     63 |             17 |
| [20](#event-20)            | 0x07D5       |      1 |              1 |
| [21](#event-21)            | 0x07D6       |     33 |             12 |
| [22](#event-22)            | 0x07F7       |      1 |              1 |
| [23](#event-23)            | 0x07F8       |     22 |              7 |
| [24](#event-24)            | 0x080E       |    142 |             37 |
| [25](#event-25)            | 0x089C       |     33 |             12 |
| [26](#event-26)            | 0x08BD       |      1 |              1 |
| [65535.42](#event-6553542) | 0x08BE       |     15 |              5 |
| [65535.43](#event-6553543) | 0x08CD       |     15 |              5 |
| [27](#event-27)            | 0x08DC       |     33 |             12 |

## DAT References (imed_data)

|   Index | Hex Value   |   Dec Value |
|---------|-------------|-------------|
|       0 | 0x00D7      |         215 |
|       1 | 0x00D8      |         216 |
|       2 | 0x001E      |          30 |
|       3 | 0x1E8A      |        7818 |
|       4 | 0x0000      |           0 |
|       5 | 0x1E8B      |        7819 |
|       6 | 0x1E8C      |        7820 |
|       7 | 0x1E8D      |        7821 |
|       8 | 0x0001      |           1 |
|       9 | 0x1E8F      |        7823 |
|      10 | 0x1E8E      |        7822 |
|      11 | 0x1E91      |        7825 |
|      12 | 0x1E90      |        7824 |
|      13 | 0x1F59      |        8025 |
|      14 | 0x1E92      |        7826 |
|      15 | 0x1F5A      |        8026 |
|      16 | 0x1E94      |        7828 |
|      17 | 0x0002      |           2 |
|      18 | 0x1E95      |        7829 |
|      19 | 0x1E93      |        7827 |
|      20 | 0x1E96      |        7830 |
|      21 | 0x1E97      |        7831 |
|      22 | 0x00C8      |         200 |
|      23 | 0x0096      |         150 |
|      24 | 0x1E98      |        7832 |
|      25 | 0x1E99      |        7833 |
|      26 | 0x1E9A      |        7834 |
|      27 | 0x1E9B      |        7835 |
|      28 | 0x1E9C      |        7836 |
|      29 | 0x1E9D      |        7837 |
|      30 | 0x00C9      |         201 |
|      31 | 0x1E9E      |        7838 |
|      32 | 0x1E9F      |        7839 |
|      33 | 0x1EA0      |        7840 |
|      34 | 0x1EA1      |        7841 |
|      35 | 0x1EA2      |        7842 |
|      36 | 0x1EA3      |        7843 |
|      37 | 0x1EA4      |        7844 |
|      38 | 0x1EA5      |        7845 |
|      39 | 0x1EA6      |        7846 |
|      40 | 0x1EA7      |        7847 |
|      41 | 0x1EA8      |        7848 |
|      42 | 0x1EA9      |        7849 |
|      43 | 0x1EAA      |        7850 |
|      44 | 0x1EAB      |        7851 |
|      45 | 0x1EAC      |        7852 |
|      46 | 0x1EAD      |        7853 |
|      47 | 0x1EAE      |        7854 |
|      48 | 0x1EAF      |        7855 |
|      49 | 0x1EB0      |        7856 |
|      50 | 0x1EB1      |        7857 |
|      51 | 0x1EB2      |        7858 |
|      52 | 0x1EB3      |        7859 |
|      53 | 0x1EB4      |        7860 |
|      54 | 0x1F5B      |        8027 |
|      55 | 0x1EB5      |        7861 |
|      56 | 0x1EB6      |        7862 |
|      57 | 0x1EB7      |        7863 |
|      58 | 0x1EB8      |        7864 |
|      59 | 0x1EB9      |        7865 |
|      60 | 0x1EBA      |        7866 |
|      61 | 0x1EBB      |        7867 |
|      62 | 0x1EBD      |        7869 |
|      63 | 0x1EBE      |        7870 |
|      64 | 0x1F5C      |        8028 |
|      65 | 0x1EBF      |        7871 |
|      66 | 0x1ECB      |        7883 |
|      67 | 0x1ECC      |        7884 |
|      68 | 0x1ED8      |        7896 |
|      69 | 0x1ED9      |        7897 |
|      70 | 0x1EDA      |        7898 |
|      71 | 0x1EDB      |        7899 |
|      72 | 0x1EDC      |        7900 |
|      73 | 0x1EDD      |        7901 |
|      74 | 0x1EDE      |        7902 |
|      75 | 0x1EDF      |        7903 |
|      76 | 0x1EE0      |        7904 |
|      77 | 0x0028      |          40 |
|      78 | 0xFFFEF2D3  |  4294898387 |
|      79 | 0xFFFE387B  |  4294850683 |
|      80 | 0x5932      |       22834 |
|      81 | 0x000D      |          13 |
|      82 | 0xFFFEF858  |  4294899800 |
|      83 | 0xFFFE33E8  |  4294849512 |
|      84 | 0x1EF3      |        7923 |
|      85 | 0x1EF4      |        7924 |

## String References

- **7818**: Back off!
- **7819**: No mail! No mail! My brother is missing!
- **7820**: Zeelozok always sends me letters! Always!
- **7821**: Zeelozok is on a pilgrimage to teach the other beastmen about Promathia's [statue/reincarnation].
- **7822**: He went to Davoi first to talk to the Orcs, followers of the Kindred. My brother will teach them that the Divinity of Darkness who the Kindred worship is a false idol.
- **7823**: Promathia has been reborn. Zeelozok went first to Davoi to enlighten the Orcs.
- **7824**: Something must've happened in Davoi. I want to go and find my brother, but I don't know how to get there.
- **7825**: Something must've happened in Davoi. I want to go and find my brother, but I can't leave Movalpolos right now.
- **7826**: That's why you're going in my place. If you fear Promathia, you'll do as the Moblins say.
- **7827**: Are you afraid of Promathia? [Terrified./Not particularly...]
- **7828**: That's the way it should be. Now go and find Zeelozok. He said he was going to Davoi to see the Orcs.
- **7829**: Promathia will be reborn and mash your people into oblivion!
- **7830**: Zeelozok said he was going to see the Orcs in Davoi. Go and find my brother!
- **7831**: A letter! This is a letter from my brother!
- **7832**: He got in to talk to the overlord, but the Orcs were too stupid to understand what he was saying.
- **7833**: Zeelozok writes that the Orcs only follow the strong. The demon army of the Kindred crushed the Orcs, so the Orcs obey the demons.
- **7834**: Then Zeelozok was taken captive. The Orcs said that people and Moblins are only good for eating.
- **7835**: My brother is really good at digging, though. He dug a tunnel straight out of Davoi and escaped.
- **7836**: But he was mighty mad by now, and said he let all the other "food" go free as well.
- **7837**: He got something from them as thanks. We don't need this stuff, so you can have it.
- **7838**: You're pretty useful for a person! Keep up the good work and show your obedience to the Moblins, and to Promathia!
- **7839**: I got another letter from my brother. He says that he's visiting the Yagudo next.
- **7840**: The Yagudo say that their god lives among them. Maybe their god is the reincarnation of Promathia!
- **7841**: The Yagudo say that their god lives among them. Maybe their god is the same reincarnation of Promathia that appeared to us!
- **7842**: Zeelozok went to Castle Oztroja to see for himself.
- **7843**: The Yagudo wouldn't let him meet with their god, so instead he found someone who's seen their divinity close up.
- **7844**: Zeelozok found a Yagudo who was injured while protecting the bird people's deity.
- **7845**: He wants someone to bring him $1, but I don't know where to get one of those.
- **7846**: If you find some, take it to Zeelozok in the bird men's fortress.
- **7847**: Do as she asks? [I've come this far.../Not this time.]
- **7848**: Find $1 and take it to Castle Oztroja!
- **7849**: My brother wants $1 for the Yagudo who was injured protecting the bird men's deity.
- **7850**: You took your time getting back. I got another letter from Zeelozok that explains what happened.
- **7851**: Before the injured Yagudo died, he told Zeelozok about his god.
- **7852**: The Yagudo divinity has nothing to do with Promathia.
- **7853**: And since the Kindred stole the sacred vessel of their god, the Yagudo have no choice but to obey them.
- **7854**: Zeelozok said the Moblins follow the true god. After hearing this, the Yagudo chased him out of Oztroja!
- **7855**: Now Zeelozok is in Beadeaux, talking with the Quadav.
- **7856**: Here's a surprise! He says that the Quadav are far smarter than he expected!
- **7857**: They knew that the Moblins had found a big sparkly crystal and were really impressed!
- **7858**: They said that they would help the Moblins to destroy Bastok.
- **7859**: But first they want to see proof that the big sparkly crystal really exists. Aw, come on!
- **7860**: Well, fair's fair, I suppose. Here, take this $3 to the Quadav near the smoking kilns.
- **7861**: Beadeaux is not that far from here, right? Do your job right and I'll put a good word in for you when Promathia comes to destroy all the children of Altana.
- **7862**: Help out again? [Hail Promathia!/I've had enough.]
- **7863**: Say whatever you want. You can't defy the will of Promathia.
- **7864**: Right, then. Go to the smoking kilns in Beadeaux. The Quadav will be waiting for you.
- **7865**: The mail's in. My brother writes that the Quadav deceived the Moblins.
- **7866**: They gave proof of the big sparkly crystal straight to the Kindred. The Moblins were betrayed to improve the standing of the Quadav.
- **7867**: I just don't get it. Why don't any of them understand that the Moblins are right?
- **7869**: When Zeelozok gets back, I'm going with him on his next trip.
- **7870**: You've made yourself useful, so you can come along, too. Take this with you.
- **7871**: Just hold on to it. Promathia loathes the children of the Dawn Goddess. You people have gotta try harder to get into the Twilight God's good books.
- **7883**: You! Go to Castle Zvahl and bring back $1!
- **7884**: And be quick, 'cause once Zeelozok makes up his mind, he plunges right in. Go on, scoot!
- **7896**: I know, I can work on the translation of that demon script. That could come in handy.
- **7897**: We're in trouble! The demons are angry at the Moblins!
- **7898**: They've found out about Zeelozok's visits to the other beastmen!
- **7899**: The Kindred demons are discussing whether or not to obliterate Movalpolos!
- **7900**: King Paimon prefers to wait and watch the Moblins before doing anything.
- **7901**: But another demon called Marquis Andrealphus is ready to make this city our tomb.
- **7902**: If this marquis discovers Zeelozok wandering around Castle Zvahl, Promathia only knows what he'll do to my brother!
- **7903**: You have to catch up with Zeelozok!
- **7904**: Tell him to stay out of the castle baileys. That's where Marquis Andrealphus can be found.
- **7923**: The warp caverns are open areas left in the tunnels we collapse behind us. They're all linked together like one big chain.
- **7924**: With a Moblin earplug, you can find the entrances to the warp caverns. Makes traveling easy. Only we Moblins know they exist.
- **8025**: That's why you're going in my place. If you're a child of Promathia like you say, you'll do what I'll tell you!
- **8026**: Do as she asks? [Your will is my command!/Not gonna happen.]
- **8027**: Beadeaux is not that far from here, right? Do your job right and maybe Promathia will forgive your trangressions.
- **8028**: Just hold on to it. Are you people really children of the Twilight God? You gotta try harder to get along with your Moblin brothers.

## Events

### Event 65535

#### Metadata

| Field        | Value   |
|--------------|---------|
| Entrypoint   | 0x0000  |
| Data Size    | 1 bytes |
| Instructions | 1       |

```
      00 01 02 03 04 05 06 07  08 09 0A 0B 0C 0D 0E 0F
      -- -- -- -- -- -- -- --  -- -- -- -- -- -- -- --
0000: 00                                                .               
```

#### Opcodes

```
  0: 0x0000 [0x00] END_REQSTACK()
```

### Event 65535.1

#### Metadata

| Field        | Value    |
|--------------|----------|
| Entrypoint   | 0x0001   |
| Data Size    | 16 bytes |
| Instructions | 2        |

```
      00 01 02 03 04 05 06 07  08 09 0A 0B 0C 0D 0E 0F
      -- -- -- -- -- -- -- --  -- -- -- -- -- -- -- --
0000:    5B 00 80 F8 FF FF 7F  F8 FF FF 7F 74 6C 6B 30   [..........tlk0
0010: 00                                                .               
```

#### Opcodes

```
  0: 0x0001 [0x5B] LOAD_EXT_SCHEDULER: Load scheduler "tlk0" with entities [EventEntity, EventEntity], work=215*
  1: 0x0010 [0x00] END_REQSTACK()
```

### Event 65535.2

#### Metadata

| Field        | Value    |
|--------------|----------|
| Entrypoint   | 0x0011   |
| Data Size    | 14 bytes |
| Instructions | 2        |

```
      00 01 02 03 04 05 06 07  08 09 0A 0B 0C 0D 0E 0F
      -- -- -- -- -- -- -- --  -- -- -- -- -- -- -- --
0010:    53 F8 FF FF 7F F8 FF  FF 7F 74 6C 6B 30 00      S........tlk0. 
```

#### Opcodes

```
  0: 0x0011 [0x53] WAIT_SCHEDULER_TASK: Wait for scheduler "tlk0" with entities [EventEntity, EventEntity]
  1: 0x001E [0x00] END_REQSTACK()
```

### Event 65535.3

#### Metadata

| Field        | Value    |
|--------------|----------|
| Entrypoint   | 0x001F   |
| Data Size    | 16 bytes |
| Instructions | 2        |

```
      00 01 02 03 04 05 06 07  08 09 0A 0B 0C 0D 0E 0F
      -- -- -- -- -- -- -- --  -- -- -- -- -- -- -- --
0010:                                               5B                 [
0020: 00 80 F8 FF FF 7F F8 FF  FF 7F 74 6C 6B 31 00     ..........tlk1. 
```

#### Opcodes

```
  0: 0x001F [0x5B] LOAD_EXT_SCHEDULER: Load scheduler "tlk1" with entities [EventEntity, EventEntity], work=215*
  1: 0x002E [0x00] END_REQSTACK()
```

### Event 65535.4

#### Metadata

| Field        | Value    |
|--------------|----------|
| Entrypoint   | 0x002F   |
| Data Size    | 14 bytes |
| Instructions | 2        |

```
      00 01 02 03 04 05 06 07  08 09 0A 0B 0C 0D 0E 0F
      -- -- -- -- -- -- -- --  -- -- -- -- -- -- -- --
0020:                                               53                 S
0030: F8 FF FF 7F F8 FF FF 7F  74 6C 6B 31 00           ........tlk1.   
```

#### Opcodes

```
  0: 0x002F [0x53] WAIT_SCHEDULER_TASK: Wait for scheduler "tlk1" with entities [EventEntity, EventEntity]
  1: 0x003C [0x00] END_REQSTACK()
```

### Event 65535.5

#### Metadata

| Field        | Value    |
|--------------|----------|
| Entrypoint   | 0x003D   |
| Data Size    | 16 bytes |
| Instructions | 2        |

```
      00 01 02 03 04 05 06 07  08 09 0A 0B 0C 0D 0E 0F
      -- -- -- -- -- -- -- --  -- -- -- -- -- -- -- --
0030:                                         5B 00 80               [..
0040: F8 FF FF 7F F8 FF FF 7F  70 61 73 30 00           ........pas0.   
```

#### Opcodes

```
  0: 0x003D [0x5B] LOAD_EXT_SCHEDULER: Load scheduler "pas0" with entities [EventEntity, EventEntity], work=215*
  1: 0x004C [0x00] END_REQSTACK()
```

### Event 65535.6

#### Metadata

| Field        | Value    |
|--------------|----------|
| Entrypoint   | 0x004D   |
| Data Size    | 14 bytes |
| Instructions | 2        |

```
      00 01 02 03 04 05 06 07  08 09 0A 0B 0C 0D 0E 0F
      -- -- -- -- -- -- -- --  -- -- -- -- -- -- -- --
0040:                                         53 F8 FF               S..
0050: FF 7F F8 FF FF 7F 70 61  73 30 00                 ......pas0.     
```

#### Opcodes

```
  0: 0x004D [0x53] WAIT_SCHEDULER_TASK: Wait for scheduler "pas0" with entities [EventEntity, EventEntity]
  1: 0x005A [0x00] END_REQSTACK()
```

### Event 65535.7

#### Metadata

| Field        | Value    |
|--------------|----------|
| Entrypoint   | 0x005B   |
| Data Size    | 16 bytes |
| Instructions | 2        |

```
      00 01 02 03 04 05 06 07  08 09 0A 0B 0C 0D 0E 0F
      -- -- -- -- -- -- -- --  -- -- -- -- -- -- -- --
0050:                                   5B 00 80 F8 FF             [....
0060: FF 7F F8 FF FF 7F 63 6F  72 30 00                 ......cor0.     
```

#### Opcodes

```
  0: 0x005B [0x5B] LOAD_EXT_SCHEDULER: Load scheduler "cor0" with entities [EventEntity, EventEntity], work=215*
  1: 0x006A [0x00] END_REQSTACK()
```

### Event 65535.8

#### Metadata

| Field        | Value    |
|--------------|----------|
| Entrypoint   | 0x006B   |
| Data Size    | 14 bytes |
| Instructions | 2        |

```
      00 01 02 03 04 05 06 07  08 09 0A 0B 0C 0D 0E 0F
      -- -- -- -- -- -- -- --  -- -- -- -- -- -- -- --
0060:                                   53 F8 FF FF 7F             S....
0070: F8 FF FF 7F 63 6F 72 30  00                       ....cor0.       
```

#### Opcodes

```
  0: 0x006B [0x53] WAIT_SCHEDULER_TASK: Wait for scheduler "cor0" with entities [EventEntity, EventEntity]
  1: 0x0078 [0x00] END_REQSTACK()
```

### Event 65535.9

#### Metadata

| Field        | Value    |
|--------------|----------|
| Entrypoint   | 0x0079   |
| Data Size    | 16 bytes |
| Instructions | 2        |

```
      00 01 02 03 04 05 06 07  08 09 0A 0B 0C 0D 0E 0F
      -- -- -- -- -- -- -- --  -- -- -- -- -- -- -- --
0070:                             5B 00 80 F8 FF FF 7F           [......
0080: F8 FF FF 7F 6F 6B 69 30  00                       ....oki0.       
```

#### Opcodes

```
  0: 0x0079 [0x5B] LOAD_EXT_SCHEDULER: Load scheduler "oki0" with entities [EventEntity, EventEntity], work=215*
  1: 0x0088 [0x00] END_REQSTACK()
```

### Event 65535.10

#### Metadata

| Field        | Value    |
|--------------|----------|
| Entrypoint   | 0x0089   |
| Data Size    | 14 bytes |
| Instructions | 2        |

```
      00 01 02 03 04 05 06 07  08 09 0A 0B 0C 0D 0E 0F
      -- -- -- -- -- -- -- --  -- -- -- -- -- -- -- --
0080:                             53 F8 FF FF 7F F8 FF           S......
0090: FF 7F 6F 6B 69 30 00                              ..oki0.         
```

#### Opcodes

```
  0: 0x0089 [0x53] WAIT_SCHEDULER_TASK: Wait for scheduler "oki0" with entities [EventEntity, EventEntity]
  1: 0x0096 [0x00] END_REQSTACK()
```

### Event 65535.11

#### Metadata

| Field        | Value    |
|--------------|----------|
| Entrypoint   | 0x0097   |
| Data Size    | 16 bytes |
| Instructions | 2        |

```
      00 01 02 03 04 05 06 07  08 09 0A 0B 0C 0D 0E 0F
      -- -- -- -- -- -- -- --  -- -- -- -- -- -- -- --
0090:                      5B  00 80 F8 FF FF 7F F8 FF         [........
00A0: FF 7F 74 69 64 30 00                              ..tid0.         
```

#### Opcodes

```
  0: 0x0097 [0x5B] LOAD_EXT_SCHEDULER: Load scheduler "tid0" with entities [EventEntity, EventEntity], work=215*
  1: 0x00A6 [0x00] END_REQSTACK()
```

### Event 65535.12

#### Metadata

| Field        | Value    |
|--------------|----------|
| Entrypoint   | 0x00A7   |
| Data Size    | 14 bytes |
| Instructions | 2        |

```
      00 01 02 03 04 05 06 07  08 09 0A 0B 0C 0D 0E 0F
      -- -- -- -- -- -- -- --  -- -- -- -- -- -- -- --
00A0:                      53  F8 FF FF 7F F8 FF FF 7F         S........
00B0: 74 69 64 30 00                                    tid0.           
```

#### Opcodes

```
  0: 0x00A7 [0x53] WAIT_SCHEDULER_TASK: Wait for scheduler "tid0" with entities [EventEntity, EventEntity]
  1: 0x00B4 [0x00] END_REQSTACK()
```

### Event 65535.13

#### Metadata

| Field        | Value    |
|--------------|----------|
| Entrypoint   | 0x00B5   |
| Data Size    | 16 bytes |
| Instructions | 2        |

```
      00 01 02 03 04 05 06 07  08 09 0A 0B 0C 0D 0E 0F
      -- -- -- -- -- -- -- --  -- -- -- -- -- -- -- --
00B0:                5B 00 80  F8 FF FF 7F F8 FF FF 7F       [..........
00C0: 74 6C 6B 32 00                                    tlk2.           
```

#### Opcodes

```
  0: 0x00B5 [0x5B] LOAD_EXT_SCHEDULER: Load scheduler "tlk2" with entities [EventEntity, EventEntity], work=215*
  1: 0x00C4 [0x00] END_REQSTACK()
```

### Event 65535.14

#### Metadata

| Field        | Value    |
|--------------|----------|
| Entrypoint   | 0x00C5   |
| Data Size    | 14 bytes |
| Instructions | 2        |

```
      00 01 02 03 04 05 06 07  08 09 0A 0B 0C 0D 0E 0F
      -- -- -- -- -- -- -- --  -- -- -- -- -- -- -- --
00C0:                53 F8 FF  FF 7F F8 FF FF 7F 74 6C       S........tl
00D0: 6B 32 00                                          k2.             
```

#### Opcodes

```
  0: 0x00C5 [0x53] WAIT_SCHEDULER_TASK: Wait for scheduler "tlk2" with entities [EventEntity, EventEntity]
  1: 0x00D2 [0x00] END_REQSTACK()
```

### Event 65535.15

#### Metadata

| Field        | Value    |
|--------------|----------|
| Entrypoint   | 0x00D3   |
| Data Size    | 16 bytes |
| Instructions | 2        |

```
      00 01 02 03 04 05 06 07  08 09 0A 0B 0C 0D 0E 0F
      -- -- -- -- -- -- -- --  -- -- -- -- -- -- -- --
00D0:          5B 01 80 F8 FF  FF 7F F8 FF FF 7F 61 6E     [..........an
00E0: 67 30 00                                          g0.             
```

#### Opcodes

```
  0: 0x00D3 [0x5B] LOAD_EXT_SCHEDULER: Load scheduler "ang0" with entities [EventEntity, EventEntity], work=216*
  1: 0x00E2 [0x00] END_REQSTACK()
```

### Event 65535.16

#### Metadata

| Field        | Value    |
|--------------|----------|
| Entrypoint   | 0x00E3   |
| Data Size    | 14 bytes |
| Instructions | 2        |

```
      00 01 02 03 04 05 06 07  08 09 0A 0B 0C 0D 0E 0F
      -- -- -- -- -- -- -- --  -- -- -- -- -- -- -- --
00E0:          53 F8 FF FF 7F  F8 FF FF 7F 61 6E 67 30     S........ang0
00F0: 00                                                .               
```

#### Opcodes

```
  0: 0x00E3 [0x53] WAIT_SCHEDULER_TASK: Wait for scheduler "ang0" with entities [EventEntity, EventEntity]
  1: 0x00F0 [0x00] END_REQSTACK()
```

### Event 65535.17

#### Metadata

| Field        | Value    |
|--------------|----------|
| Entrypoint   | 0x00F1   |
| Data Size    | 16 bytes |
| Instructions | 2        |

```
      00 01 02 03 04 05 06 07  08 09 0A 0B 0C 0D 0E 0F
      -- -- -- -- -- -- -- --  -- -- -- -- -- -- -- --
00F0:    5B 01 80 F8 FF FF 7F  F8 FF FF 7F 61 6E 67 31   [..........ang1
0100: 00                                                .               
```

#### Opcodes

```
  0: 0x00F1 [0x5B] LOAD_EXT_SCHEDULER: Load scheduler "ang1" with entities [EventEntity, EventEntity], work=216*
  1: 0x0100 [0x00] END_REQSTACK()
```

### Event 65535.18

#### Metadata

| Field        | Value    |
|--------------|----------|
| Entrypoint   | 0x0101   |
| Data Size    | 14 bytes |
| Instructions | 2        |

```
      00 01 02 03 04 05 06 07  08 09 0A 0B 0C 0D 0E 0F
      -- -- -- -- -- -- -- --  -- -- -- -- -- -- -- --
0100:    53 F8 FF FF 7F F8 FF  FF 7F 61 6E 67 31 00      S........ang1. 
```

#### Opcodes

```
  0: 0x0101 [0x53] WAIT_SCHEDULER_TASK: Wait for scheduler "ang1" with entities [EventEntity, EventEntity]
  1: 0x010E [0x00] END_REQSTACK()
```

### Event 65535.19

#### Metadata

| Field        | Value    |
|--------------|----------|
| Entrypoint   | 0x010F   |
| Data Size    | 16 bytes |
| Instructions | 2        |

```
      00 01 02 03 04 05 06 07  08 09 0A 0B 0C 0D 0E 0F
      -- -- -- -- -- -- -- --  -- -- -- -- -- -- -- --
0100:                                               5B                 [
0110: 01 80 F8 FF FF 7F F8 FF  FF 7F 62 69 6B 30 00     ..........bik0. 
```

#### Opcodes

```
  0: 0x010F [0x5B] LOAD_EXT_SCHEDULER: Load scheduler "bik0" with entities [EventEntity, EventEntity], work=216*
  1: 0x011E [0x00] END_REQSTACK()
```

### Event 65535.20

#### Metadata

| Field        | Value    |
|--------------|----------|
| Entrypoint   | 0x011F   |
| Data Size    | 14 bytes |
| Instructions | 2        |

```
      00 01 02 03 04 05 06 07  08 09 0A 0B 0C 0D 0E 0F
      -- -- -- -- -- -- -- --  -- -- -- -- -- -- -- --
0110:                                               53                 S
0120: F8 FF FF 7F F8 FF FF 7F  62 69 6B 30 00           ........bik0.   
```

#### Opcodes

```
  0: 0x011F [0x53] WAIT_SCHEDULER_TASK: Wait for scheduler "bik0" with entities [EventEntity, EventEntity]
  1: 0x012C [0x00] END_REQSTACK()
```

### Event 65535.21

#### Metadata

| Field        | Value    |
|--------------|----------|
| Entrypoint   | 0x012D   |
| Data Size    | 16 bytes |
| Instructions | 2        |

```
      00 01 02 03 04 05 06 07  08 09 0A 0B 0C 0D 0E 0F
      -- -- -- -- -- -- -- --  -- -- -- -- -- -- -- --
0120:                                         5B 01 80               [..
0130: F8 FF FF 7F F8 FF FF 7F  62 69 6B 31 00           ........bik1.   
```

#### Opcodes

```
  0: 0x012D [0x5B] LOAD_EXT_SCHEDULER: Load scheduler "bik1" with entities [EventEntity, EventEntity], work=216*
  1: 0x013C [0x00] END_REQSTACK()
```

### Event 65535.22

#### Metadata

| Field        | Value    |
|--------------|----------|
| Entrypoint   | 0x013D   |
| Data Size    | 14 bytes |
| Instructions | 2        |

```
      00 01 02 03 04 05 06 07  08 09 0A 0B 0C 0D 0E 0F
      -- -- -- -- -- -- -- --  -- -- -- -- -- -- -- --
0130:                                         53 F8 FF               S..
0140: FF 7F F8 FF FF 7F 62 69  6B 31 00                 ......bik1.     
```

#### Opcodes

```
  0: 0x013D [0x53] WAIT_SCHEDULER_TASK: Wait for scheduler "bik1" with entities [EventEntity, EventEntity]
  1: 0x014A [0x00] END_REQSTACK()
```

### Event 65535.23

#### Metadata

| Field        | Value    |
|--------------|----------|
| Entrypoint   | 0x014B   |
| Data Size    | 16 bytes |
| Instructions | 2        |

```
      00 01 02 03 04 05 06 07  08 09 0A 0B 0C 0D 0E 0F
      -- -- -- -- -- -- -- --  -- -- -- -- -- -- -- --
0140:                                   5B 01 80 F8 FF             [....
0150: FF 7F F8 FF FF 7F 66 75  6D 30 00                 ......fum0.     
```

#### Opcodes

```
  0: 0x014B [0x5B] LOAD_EXT_SCHEDULER: Load scheduler "fum0" with entities [EventEntity, EventEntity], work=216*
  1: 0x015A [0x00] END_REQSTACK()
```

### Event 65535.24

#### Metadata

| Field        | Value    |
|--------------|----------|
| Entrypoint   | 0x015B   |
| Data Size    | 14 bytes |
| Instructions | 2        |

```
      00 01 02 03 04 05 06 07  08 09 0A 0B 0C 0D 0E 0F
      -- -- -- -- -- -- -- --  -- -- -- -- -- -- -- --
0150:                                   53 F8 FF FF 7F             S....
0160: F8 FF FF 7F 66 75 6D 30  00                       ....fum0.       
```

#### Opcodes

```
  0: 0x015B [0x53] WAIT_SCHEDULER_TASK: Wait for scheduler "fum0" with entities [EventEntity, EventEntity]
  1: 0x0168 [0x00] END_REQSTACK()
```

### Event 65535.25

#### Metadata

| Field        | Value    |
|--------------|----------|
| Entrypoint   | 0x0169   |
| Data Size    | 16 bytes |
| Instructions | 2        |

```
      00 01 02 03 04 05 06 07  08 09 0A 0B 0C 0D 0E 0F
      -- -- -- -- -- -- -- --  -- -- -- -- -- -- -- --
0160:                             5B 01 80 F8 FF FF 7F           [......
0170: F8 FF FF 7F 66 75 6D 31  00                       ....fum1.       
```

#### Opcodes

```
  0: 0x0169 [0x5B] LOAD_EXT_SCHEDULER: Load scheduler "fum1" with entities [EventEntity, EventEntity], work=216*
  1: 0x0178 [0x00] END_REQSTACK()
```

### Event 65535.26

#### Metadata

| Field        | Value    |
|--------------|----------|
| Entrypoint   | 0x0179   |
| Data Size    | 14 bytes |
| Instructions | 2        |

```
      00 01 02 03 04 05 06 07  08 09 0A 0B 0C 0D 0E 0F
      -- -- -- -- -- -- -- --  -- -- -- -- -- -- -- --
0170:                             53 F8 FF FF 7F F8 FF           S......
0180: FF 7F 66 75 6D 31 00                              ..fum1.         
```

#### Opcodes

```
  0: 0x0179 [0x53] WAIT_SCHEDULER_TASK: Wait for scheduler "fum1" with entities [EventEntity, EventEntity]
  1: 0x0186 [0x00] END_REQSTACK()
```

### Event 65535.27

#### Metadata

| Field        | Value    |
|--------------|----------|
| Entrypoint   | 0x0187   |
| Data Size    | 16 bytes |
| Instructions | 2        |

```
      00 01 02 03 04 05 06 07  08 09 0A 0B 0C 0D 0E 0F
      -- -- -- -- -- -- -- --  -- -- -- -- -- -- -- --
0180:                      5B  01 80 F8 FF FF 7F F8 FF         [........
0190: FF 7F 62 79 65 30 00                              ..bye0.         
```

#### Opcodes

```
  0: 0x0187 [0x5B] LOAD_EXT_SCHEDULER: Load scheduler "bye0" with entities [EventEntity, EventEntity], work=216*
  1: 0x0196 [0x00] END_REQSTACK()
```

### Event 65535.28

#### Metadata

| Field        | Value    |
|--------------|----------|
| Entrypoint   | 0x0197   |
| Data Size    | 14 bytes |
| Instructions | 2        |

```
      00 01 02 03 04 05 06 07  08 09 0A 0B 0C 0D 0E 0F
      -- -- -- -- -- -- -- --  -- -- -- -- -- -- -- --
0190:                      53  F8 FF FF 7F F8 FF FF 7F         S........
01A0: 62 79 65 30 00                                    bye0.           
```

#### Opcodes

```
  0: 0x0197 [0x53] WAIT_SCHEDULER_TASK: Wait for scheduler "bye0" with entities [EventEntity, EventEntity]
  1: 0x01A4 [0x00] END_REQSTACK()
```

### Event 65535.29

#### Metadata

| Field        | Value    |
|--------------|----------|
| Entrypoint   | 0x01A5   |
| Data Size    | 16 bytes |
| Instructions | 2        |

```
      00 01 02 03 04 05 06 07  08 09 0A 0B 0C 0D 0E 0F
      -- -- -- -- -- -- -- --  -- -- -- -- -- -- -- --
01A0:                5B 01 80  F8 FF FF 7F F8 FF FF 7F       [..........
01B0: 68 61 70 30 00                                    hap0.           
```

#### Opcodes

```
  0: 0x01A5 [0x5B] LOAD_EXT_SCHEDULER: Load scheduler "hap0" with entities [EventEntity, EventEntity], work=216*
  1: 0x01B4 [0x00] END_REQSTACK()
```

### Event 65535.30

#### Metadata

| Field        | Value    |
|--------------|----------|
| Entrypoint   | 0x01B5   |
| Data Size    | 14 bytes |
| Instructions | 2        |

```
      00 01 02 03 04 05 06 07  08 09 0A 0B 0C 0D 0E 0F
      -- -- -- -- -- -- -- --  -- -- -- -- -- -- -- --
01B0:                53 F8 FF  FF 7F F8 FF FF 7F 68 61       S........ha
01C0: 70 30 00                                          p0.             
```

#### Opcodes

```
  0: 0x01B5 [0x53] WAIT_SCHEDULER_TASK: Wait for scheduler "hap0" with entities [EventEntity, EventEntity]
  1: 0x01C2 [0x00] END_REQSTACK()
```

### Event 65535.31

#### Metadata

| Field        | Value    |
|--------------|----------|
| Entrypoint   | 0x01C3   |
| Data Size    | 16 bytes |
| Instructions | 2        |

```
      00 01 02 03 04 05 06 07  08 09 0A 0B 0C 0D 0E 0F
      -- -- -- -- -- -- -- --  -- -- -- -- -- -- -- --
01C0:          5B 01 80 F8 FF  FF 7F F8 FF FF 7F 68 61     [..........ha
01D0: 70 31 00                                          p1.             
```

#### Opcodes

```
  0: 0x01C3 [0x5B] LOAD_EXT_SCHEDULER: Load scheduler "hap1" with entities [EventEntity, EventEntity], work=216*
  1: 0x01D2 [0x00] END_REQSTACK()
```

### Event 65535.32

#### Metadata

| Field        | Value    |
|--------------|----------|
| Entrypoint   | 0x01D3   |
| Data Size    | 14 bytes |
| Instructions | 2        |

```
      00 01 02 03 04 05 06 07  08 09 0A 0B 0C 0D 0E 0F
      -- -- -- -- -- -- -- --  -- -- -- -- -- -- -- --
01D0:          53 F8 FF FF 7F  F8 FF FF 7F 68 61 70 31     S........hap1
01E0: 00                                                .               
```

#### Opcodes

```
  0: 0x01D3 [0x53] WAIT_SCHEDULER_TASK: Wait for scheduler "hap1" with entities [EventEntity, EventEntity]
  1: 0x01E0 [0x00] END_REQSTACK()
```

### Event 65535.33

#### Metadata

| Field        | Value    |
|--------------|----------|
| Entrypoint   | 0x01E1   |
| Data Size    | 16 bytes |
| Instructions | 2        |

```
      00 01 02 03 04 05 06 07  08 09 0A 0B 0C 0D 0E 0F
      -- -- -- -- -- -- -- --  -- -- -- -- -- -- -- --
01E0:    5B 01 80 F8 FF FF 7F  F8 FF FF 7F 66 6E 64 30   [..........fnd0
01F0: 00                                                .               
```

#### Opcodes

```
  0: 0x01E1 [0x5B] LOAD_EXT_SCHEDULER: Load scheduler "fnd0" with entities [EventEntity, EventEntity], work=216*
  1: 0x01F0 [0x00] END_REQSTACK()
```

### Event 65535.34

#### Metadata

| Field        | Value    |
|--------------|----------|
| Entrypoint   | 0x01F1   |
| Data Size    | 14 bytes |
| Instructions | 2        |

```
      00 01 02 03 04 05 06 07  08 09 0A 0B 0C 0D 0E 0F
      -- -- -- -- -- -- -- --  -- -- -- -- -- -- -- --
01F0:    53 F8 FF FF 7F F8 FF  FF 7F 66 6E 64 30 00      S........fnd0. 
```

#### Opcodes

```
  0: 0x01F1 [0x53] WAIT_SCHEDULER_TASK: Wait for scheduler "fnd0" with entities [EventEntity, EventEntity]
  1: 0x01FE [0x00] END_REQSTACK()
```

### Event 65535.35

#### Metadata

| Field        | Value    |
|--------------|----------|
| Entrypoint   | 0x01FF   |
| Data Size    | 16 bytes |
| Instructions | 2        |

```
      00 01 02 03 04 05 06 07  08 09 0A 0B 0C 0D 0E 0F
      -- -- -- -- -- -- -- --  -- -- -- -- -- -- -- --
01F0:                                               5B                 [
0200: 01 80 F8 FF FF 7F F8 FF  FF 7F 66 6E 64 31 00     ..........fnd1. 
```

#### Opcodes

```
  0: 0x01FF [0x5B] LOAD_EXT_SCHEDULER: Load scheduler "fnd1" with entities [EventEntity, EventEntity], work=216*
  1: 0x020E [0x00] END_REQSTACK()
```

### Event 65535.36

#### Metadata

| Field        | Value    |
|--------------|----------|
| Entrypoint   | 0x020F   |
| Data Size    | 14 bytes |
| Instructions | 2        |

```
      00 01 02 03 04 05 06 07  08 09 0A 0B 0C 0D 0E 0F
      -- -- -- -- -- -- -- --  -- -- -- -- -- -- -- --
0200:                                               53                 S
0210: F8 FF FF 7F F8 FF FF 7F  66 6E 64 31 00           ........fnd1.   
```

#### Opcodes

```
  0: 0x020F [0x53] WAIT_SCHEDULER_TASK: Wait for scheduler "fnd1" with entities [EventEntity, EventEntity]
  1: 0x021C [0x00] END_REQSTACK()
```

### Event 65535.37

#### Metadata

| Field        | Value    |
|--------------|----------|
| Entrypoint   | 0x021D   |
| Data Size    | 16 bytes |
| Instructions | 2        |

```
      00 01 02 03 04 05 06 07  08 09 0A 0B 0C 0D 0E 0F
      -- -- -- -- -- -- -- --  -- -- -- -- -- -- -- --
0210:                                         5B 01 80               [..
0220: F8 FF FF 7F F8 FF FF 7F  6D 6D 6D 30 00           ........mmm0.   
```

#### Opcodes

```
  0: 0x021D [0x5B] LOAD_EXT_SCHEDULER: Load scheduler "mmm0" with entities [EventEntity, EventEntity], work=216*
  1: 0x022C [0x00] END_REQSTACK()
```

### Event 65535.38

#### Metadata

| Field        | Value    |
|--------------|----------|
| Entrypoint   | 0x022D   |
| Data Size    | 14 bytes |
| Instructions | 2        |

```
      00 01 02 03 04 05 06 07  08 09 0A 0B 0C 0D 0E 0F
      -- -- -- -- -- -- -- --  -- -- -- -- -- -- -- --
0220:                                         53 F8 FF               S..
0230: FF 7F F8 FF FF 7F 6D 6D  6D 30 00                 ......mmm0.     
```

#### Opcodes

```
  0: 0x022D [0x53] WAIT_SCHEDULER_TASK: Wait for scheduler "mmm0" with entities [EventEntity, EventEntity]
  1: 0x023A [0x00] END_REQSTACK()
```

### Event 65535.39

#### Metadata

| Field        | Value    |
|--------------|----------|
| Entrypoint   | 0x023B   |
| Data Size    | 16 bytes |
| Instructions | 2        |

```
      00 01 02 03 04 05 06 07  08 09 0A 0B 0C 0D 0E 0F
      -- -- -- -- -- -- -- --  -- -- -- -- -- -- -- --
0230:                                   5B 01 80 F8 FF             [....
0240: FF 7F F8 FF FF 7F 6D 6D  6D 31 00                 ......mmm1.     
```

#### Opcodes

```
  0: 0x023B [0x5B] LOAD_EXT_SCHEDULER: Load scheduler "mmm1" with entities [EventEntity, EventEntity], work=216*
  1: 0x024A [0x00] END_REQSTACK()
```

### Event 65535.40

#### Metadata

| Field        | Value    |
|--------------|----------|
| Entrypoint   | 0x024B   |
| Data Size    | 14 bytes |
| Instructions | 2        |

```
      00 01 02 03 04 05 06 07  08 09 0A 0B 0C 0D 0E 0F
      -- -- -- -- -- -- -- --  -- -- -- -- -- -- -- --
0240:                                   53 F8 FF FF 7F             S....
0250: F8 FF FF 7F 6D 6D 6D 31  00                       ....mmm1.       
```

#### Opcodes

```
  0: 0x024B [0x53] WAIT_SCHEDULER_TASK: Wait for scheduler "mmm1" with entities [EventEntity, EventEntity]
  1: 0x0258 [0x00] END_REQSTACK()
```

### Event 65535.41

#### Metadata

| Field        | Value   |
|--------------|---------|
| Entrypoint   | 0x0259  |
| Data Size    | 9 bytes |
| Instructions | 3       |

```
      00 01 02 03 04 05 06 07  08 09 0A 0B 0C 0D 0E 0F
      -- -- -- -- -- -- -- --  -- -- -- -- -- -- -- --
0250:                             5E 69 64 6C 30 1C 02           ^idl0..
0260: 80 00                                             ..              
```

#### Opcodes

```
  0: 0x0259 [0x5E] EventEntity goes idle (kills current action) (animation: "idl0")
  1: 0x025E [0x1C] WAIT(30* ticks)
  2: 0x0261 [0x00] END_REQSTACK()
```

### Event 13

#### Metadata

| Field        | Value    |
|--------------|----------|
| Entrypoint   | 0x0262   |
| Data Size    | 15 bytes |
| Instructions | 8        |

```
      00 01 02 03 04 05 06 07  08 09 0A 0B 0C 0D 0E 0F
      -- -- -- -- -- -- -- --  -- -- -- -- -- -- -- --
0260:       1E F0 FF FF 7F 6F  70 1D 03 80 23 20 00 21    .....op...# .!
0270: 00                                                .               
```

#### Opcodes

```
  0: 0x0262 [0x1E] EventEntity looks at LocalPlayer and starts talking
  1: 0x0267 [0x6F] WAIT_FRAME_DELAY: Yield until WaitTime reaches zero
  2: 0x0268 [0x70] WAIT_ENTITY_RENDER_FLAG: Wait while EventEntity->Render.Flags3 bit 2 is set (cancel turn if not)
  3: 0x0269 [0x1D] PRINT_EVENT_MESSAGE(message_id=7818*)
    → "Back off!"
  4: 0x026C [0x23] WAIT_FOR_DIALOG_INTERACTION
  5: 0x026D [0x20] SET_CLI_EVENT_UC_FLAG: Unlock player control
  6: 0x026F [0x21] END_EVENT
  7: 0x0270 [0x00] END_REQSTACK()
```

### Event 7

#### Metadata

| Field        | Value     |
|--------------|-----------|
| Entrypoint   | 0x0271    |
| Data Size    | 360 bytes |
| Instructions | 83        |

```
      00 01 02 03 04 05 06 07  08 09 0A 0B 0C 0D 0E 0F
      -- -- -- -- -- -- -- --  -- -- -- -- -- -- -- --
0270:    03 00 00 09 10 03 01  10 04 80 1E F0 FF FF 7F   ...............
0280: 6F 70 29 08 EC B0 00 01  0F 1D 05 80 23 1D 06 80  op).........#...
0290: 23 29 08 EC B0 00 01 10  29 08 EC B0 00 01 11 29  #)......)......)
02A0: 08 EC B0 00 01 12 29 08  EC B0 00 01 25 1D 07 80  ......).....%...
02B0: 23 29 08 EC B0 00 01 26  29 08 EC B0 00 01 27 02  #).....&).....'.
02C0: 07 10 08 80 00 CE 02 1D  09 80 23 01 D2 02 1D 0A  ..........#.....
02D0: 80 23 29 08 EC B0 00 01  28 29 08 EC B0 00 01 1D  .#).....()......
02E0: 02 07 10 08 80 00 EF 02  1D 0B 80 23 01 F3 02 1D  ...........#....
02F0: 0C 80 23 02 00 00 08 80  00 02 03 1D 0D 80 23 01  ..#...........#.
0300: 06 03 1D 0E 80 23 29 08  EC B0 00 01 1E 29 08 EC  .....#)......)..
0310: B0 00 01 1F 02 00 00 08  80 00 7A 03 24 0F 80 04  ..........z.$...
0320: 80 04 80 25 02 00 10 04  80 00 40 03 42 03 01 10  ...%......@.B...
0330: 08 80 1D 10 80 23 29 08  EC B0 00 01 20 01 77 03  .....#)..... .w.
0340: 02 00 10 08 80 00 77 03  03 01 10 11 80 29 08 EC  ......w......)..
0350: B0 00 01 20 29 08 EC B0  00 01 0F 1D 12 80 23 29  ... ).........#)
0360: 08 EC B0 00 01 10 29 08  EC B0 00 01 11 29 08 EC  ......)......)..
0370: B0 00 01 12 01 77 03 01  D5 03 24 13 80 04 80 04  .....w....$.....
0380: 80 25 02 00 10 04 80 00  9E 03 42 03 01 10 08 80  .%........B.....
0390: 1D 10 80 23 29 08 EC B0  00 01 20 01 D5 03 02 00  ...#)..... .....
03A0: 10 08 80 00 D5 03 03 01  10 11 80 29 08 EC B0 00  ...........)....
03B0: 01 20 29 08 EC B0 00 01  0F 1D 12 80 23 29 08 EC  . ).........#)..
03C0: B0 00 01 10 29 08 EC B0  00 01 11 29 08 EC B0 00  ....)......)....
03D0: 01 12 01 D5 03 20 00 21  00                       ..... .!.       
```

#### Opcodes

```
  0: 0x0271 [0x03] ExtData[1]->WorkLocal[0] = Work_Zone[9]
  1: 0x0276 [0x03] Work_Zone[1] = 0*
  2: 0x027B [0x1E] EventEntity looks at LocalPlayer and starts talking
  3: 0x0280 [0x6F] WAIT_FRAME_DELAY: Yield until WaitTime reaches zero
  4: 0x0281 [0x70] WAIT_ENTITY_RENDER_FLAG: Wait while EventEntity->Render.Flags3 bit 2 is set (cancel turn if not)
  5: 0x0282 [0x29] REQ_SET_WAIT(priority=0x08, entity_id=Koblakiq (ID: 16822508/0x0100B0EC), tag_num=0x0F)
  6: 0x0289 [0x1D] PRINT_EVENT_MESSAGE(message_id=7819*)
    → "No mail! No mail! My brother is missing!"
  7: 0x028C [0x23] WAIT_FOR_DIALOG_INTERACTION
  8: 0x028D [0x1D] PRINT_EVENT_MESSAGE(message_id=7820*)
    → "Zeelozok always sends me letters! Always!"
  9: 0x0290 [0x23] WAIT_FOR_DIALOG_INTERACTION
 10: 0x0291 [0x29] REQ_SET_WAIT(priority=0x08, entity_id=Koblakiq (ID: 16822508/0x0100B0EC), tag_num=0x10)
 11: 0x0298 [0x29] REQ_SET_WAIT(priority=0x08, entity_id=Koblakiq (ID: 16822508/0x0100B0EC), tag_num=0x11)
 12: 0x029F [0x29] REQ_SET_WAIT(priority=0x08, entity_id=Koblakiq (ID: 16822508/0x0100B0EC), tag_num=0x12)
 13: 0x02A6 [0x29] REQ_SET_WAIT(priority=0x08, entity_id=Koblakiq (ID: 16822508/0x0100B0EC), tag_num=0x25)
 14: 0x02AD [0x1D] PRINT_EVENT_MESSAGE(message_id=7821*)
    → "Zeelozok is on a pilgrimage to teach the other beastmen about Promathia's [statue/reincarnation]."
 15: 0x02B0 [0x23] WAIT_FOR_DIALOG_INTERACTION
 16: 0x02B1 [0x29] REQ_SET_WAIT(priority=0x08, entity_id=Koblakiq (ID: 16822508/0x0100B0EC), tag_num=0x26)
 17: 0x02B8 [0x29] REQ_SET_WAIT(priority=0x08, entity_id=Koblakiq (ID: 16822508/0x0100B0EC), tag_num=0x27)
 18: 0x02BF [0x02] IF !(Work_Zone[7] == 1*) GOTO 0x02CE
 19: 0x02C7 [0x1D] PRINT_EVENT_MESSAGE(message_id=7823*)
    → "Promathia has been reborn. Zeelozok went first to Davoi to enlighten the Orcs."
 20: 0x02CA [0x23] WAIT_FOR_DIALOG_INTERACTION
 21: 0x02CB [0x01] GOTO 0x02D2
 22: 0x02CE [0x1D] PRINT_EVENT_MESSAGE(message_id=7822*)
    → "He went to Davoi first to talk to the Orcs, followers of the Kindred. My brother will teach them that the Divinity of Darkness who the Kindred worship is a false idol."
 23: 0x02D1 [0x23] WAIT_FOR_DIALOG_INTERACTION

SUBROUTINE_02D2:
 24: 0x02D2 [0x29] REQ_SET_WAIT(priority=0x08, entity_id=Koblakiq (ID: 16822508/0x0100B0EC), tag_num=0x28)
 25: 0x02D9 [0x29] REQ_SET_WAIT(priority=0x08, entity_id=Koblakiq (ID: 16822508/0x0100B0EC), tag_num=0x1D)
 26: 0x02E0 [0x02] IF !(Work_Zone[7] == 1*) GOTO 0x02EF
 27: 0x02E8 [0x1D] PRINT_EVENT_MESSAGE(message_id=7825*)
    → "Something must've happened in Davoi. I want to go and find my brother, but I can't leave Movalpolos right now."
 28: 0x02EB [0x23] WAIT_FOR_DIALOG_INTERACTION
 29: 0x02EC [0x01] GOTO 0x02F3
 30: 0x02EF [0x1D] PRINT_EVENT_MESSAGE(message_id=7824*)
    → "Something must've happened in Davoi. I want to go and find my brother, but I don't know how to get there."
 31: 0x02F2 [0x23] WAIT_FOR_DIALOG_INTERACTION

SUBROUTINE_02F3:
 32: 0x02F3 [0x02] IF !(ExtData[1]->WorkLocal[0] == 1*) GOTO 0x0302
 33: 0x02FB [0x1D] PRINT_EVENT_MESSAGE(message_id=8025*)
    → "That's why you're going in my place. If you're a child of Promathia like you say, you'll do what I'll tell you!"
 34: 0x02FE [0x23] WAIT_FOR_DIALOG_INTERACTION
 35: 0x02FF [0x01] GOTO 0x0306
 36: 0x0302 [0x1D] PRINT_EVENT_MESSAGE(message_id=7826*)
    → "That's why you're going in my place. If you fear Promathia, you'll do as the Moblins say."
 37: 0x0305 [0x23] WAIT_FOR_DIALOG_INTERACTION

SUBROUTINE_0306:
 38: 0x0306 [0x29] REQ_SET_WAIT(priority=0x08, entity_id=Koblakiq (ID: 16822508/0x0100B0EC), tag_num=0x1E)
 39: 0x030D [0x29] REQ_SET_WAIT(priority=0x08, entity_id=Koblakiq (ID: 16822508/0x0100B0EC), tag_num=0x1F)
 40: 0x0314 [0x02] IF !(ExtData[1]->WorkLocal[0] == 1*) GOTO 0x037A
 41: 0x031C [0x24] CREATE_DIALOG(message_id=8026*, default_option=0*, option_flags=0*)
    → "Do as she asks? [Your will is my command!/Not gonna happen.]"
 42: 0x0323 [0x25] WAIT_DIALOG_SELECT()
 43: 0x0324 [0x02] IF !(Work_Zone[0] == 0*) GOTO 0x0340
 44: 0x032C [0x42] SET_CLI_EVENT_CANCEL_DATA()
 45: 0x032D [0x03] Work_Zone[1] = 1*
 46: 0x0332 [0x1D] PRINT_EVENT_MESSAGE(message_id=7828*)
    → "That's the way it should be. Now go and find Zeelozok. He said he was going to Davoi to see the Orcs."
 47: 0x0335 [0x23] WAIT_FOR_DIALOG_INTERACTION
 48: 0x0336 [0x29] REQ_SET_WAIT(priority=0x08, entity_id=Koblakiq (ID: 16822508/0x0100B0EC), tag_num=0x20)
 49: 0x033D [0x01] GOTO 0x0377
 50: 0x0340 [0x02] IF !(Work_Zone[0] == 1*) GOTO 0x0377
 51: 0x0348 [0x03] Work_Zone[1] = 2*
 52: 0x034D [0x29] REQ_SET_WAIT(priority=0x08, entity_id=Koblakiq (ID: 16822508/0x0100B0EC), tag_num=0x20)
 53: 0x0354 [0x29] REQ_SET_WAIT(priority=0x08, entity_id=Koblakiq (ID: 16822508/0x0100B0EC), tag_num=0x0F)
 54: 0x035B [0x1D] PRINT_EVENT_MESSAGE(message_id=7829*)
    → "Promathia will be reborn and mash your people into oblivion!"
 55: 0x035E [0x23] WAIT_FOR_DIALOG_INTERACTION
 56: 0x035F [0x29] REQ_SET_WAIT(priority=0x08, entity_id=Koblakiq (ID: 16822508/0x0100B0EC), tag_num=0x10)
 57: 0x0366 [0x29] REQ_SET_WAIT(priority=0x08, entity_id=Koblakiq (ID: 16822508/0x0100B0EC), tag_num=0x11)
 58: 0x036D [0x29] REQ_SET_WAIT(priority=0x08, entity_id=Koblakiq (ID: 16822508/0x0100B0EC), tag_num=0x12)
 59: 0x0374 [0x01] GOTO 0x0377

SUBROUTINE_0377:
 60: 0x0377 [0x01] GOTO 0x03D5
 61: 0x037A [0x24] CREATE_DIALOG(message_id=7827*, default_option=0*, option_flags=0*)
    → "Are you afraid of Promathia? [Terrified./Not particularly...]"
 62: 0x0381 [0x25] WAIT_DIALOG_SELECT()
 63: 0x0382 [0x02] IF !(Work_Zone[0] == 0*) GOTO 0x039E
 64: 0x038A [0x42] SET_CLI_EVENT_CANCEL_DATA()
 65: 0x038B [0x03] Work_Zone[1] = 1*
 66: 0x0390 [0x1D] PRINT_EVENT_MESSAGE(message_id=7828*)
    → "That's the way it should be. Now go and find Zeelozok. He said he was going to Davoi to see the Orcs."
 67: 0x0393 [0x23] WAIT_FOR_DIALOG_INTERACTION
 68: 0x0394 [0x29] REQ_SET_WAIT(priority=0x08, entity_id=Koblakiq (ID: 16822508/0x0100B0EC), tag_num=0x20)
 69: 0x039B [0x01] GOTO 0x03D5
 70: 0x039E [0x02] IF !(Work_Zone[0] == 1*) GOTO 0x03D5
 71: 0x03A6 [0x03] Work_Zone[1] = 2*
 72: 0x03AB [0x29] REQ_SET_WAIT(priority=0x08, entity_id=Koblakiq (ID: 16822508/0x0100B0EC), tag_num=0x20)
 73: 0x03B2 [0x29] REQ_SET_WAIT(priority=0x08, entity_id=Koblakiq (ID: 16822508/0x0100B0EC), tag_num=0x0F)
 74: 0x03B9 [0x1D] PRINT_EVENT_MESSAGE(message_id=7829*)
    → "Promathia will be reborn and mash your people into oblivion!"
 75: 0x03BC [0x23] WAIT_FOR_DIALOG_INTERACTION
 76: 0x03BD [0x29] REQ_SET_WAIT(priority=0x08, entity_id=Koblakiq (ID: 16822508/0x0100B0EC), tag_num=0x10)
 77: 0x03C4 [0x29] REQ_SET_WAIT(priority=0x08, entity_id=Koblakiq (ID: 16822508/0x0100B0EC), tag_num=0x11)
 78: 0x03CB [0x29] REQ_SET_WAIT(priority=0x08, entity_id=Koblakiq (ID: 16822508/0x0100B0EC), tag_num=0x12)
 79: 0x03D2 [0x01] GOTO 0x03D5

SUBROUTINE_03D5:
 80: 0x03D5 [0x20] SET_CLI_EVENT_UC_FLAG: Unlock player control
 81: 0x03D7 [0x21] END_EVENT
 82: 0x03D8 [0x00] END_REQSTACK()
```

### Event 8

#### Metadata

| Field        | Value    |
|--------------|----------|
| Entrypoint   | 0x03D9   |
| Data Size    | 51 bytes |
| Instructions | 16       |

```
      00 01 02 03 04 05 06 07  08 09 0A 0B 0C 0D 0E 0F
      -- -- -- -- -- -- -- --  -- -- -- -- -- -- -- --
03D0:                             1E F0 FF FF 7F 6F 70           .....op
03E0: 29 08 EC B0 00 01 0F 1D  05 80 23 1D 06 80 23 1D  ).........#...#.
03F0: 14 80 23 29 08 EC B0 00  01 10 29 08 EC B0 00 01  ..#)......).....
0400: 11 29 08 EC B0 00 01 12  20 00 21 00              .)...... .!.    
```

#### Opcodes

```
  0: 0x03D9 [0x1E] EventEntity looks at LocalPlayer and starts talking
  1: 0x03DE [0x6F] WAIT_FRAME_DELAY: Yield until WaitTime reaches zero
  2: 0x03DF [0x70] WAIT_ENTITY_RENDER_FLAG: Wait while EventEntity->Render.Flags3 bit 2 is set (cancel turn if not)
  3: 0x03E0 [0x29] REQ_SET_WAIT(priority=0x08, entity_id=Koblakiq (ID: 16822508/0x0100B0EC), tag_num=0x0F)
  4: 0x03E7 [0x1D] PRINT_EVENT_MESSAGE(message_id=7819*)
    → "No mail! No mail! My brother is missing!"
  5: 0x03EA [0x23] WAIT_FOR_DIALOG_INTERACTION
  6: 0x03EB [0x1D] PRINT_EVENT_MESSAGE(message_id=7820*)
    → "Zeelozok always sends me letters! Always!"
  7: 0x03EE [0x23] WAIT_FOR_DIALOG_INTERACTION
  8: 0x03EF [0x1D] PRINT_EVENT_MESSAGE(message_id=7830*)
    → "Zeelozok said he was going to see the Orcs in Davoi. Go and find my brother!"
  9: 0x03F2 [0x23] WAIT_FOR_DIALOG_INTERACTION
 10: 0x03F3 [0x29] REQ_SET_WAIT(priority=0x08, entity_id=Koblakiq (ID: 16822508/0x0100B0EC), tag_num=0x10)
 11: 0x03FA [0x29] REQ_SET_WAIT(priority=0x08, entity_id=Koblakiq (ID: 16822508/0x0100B0EC), tag_num=0x11)
 12: 0x0401 [0x29] REQ_SET_WAIT(priority=0x08, entity_id=Koblakiq (ID: 16822508/0x0100B0EC), tag_num=0x12)
 13: 0x0408 [0x20] SET_CLI_EVENT_UC_FLAG: Unlock player control
 14: 0x040A [0x21] END_EVENT
 15: 0x040B [0x00] END_REQSTACK()
```

### Event 9

#### Metadata

| Field        | Value     |
|--------------|-----------|
| Entrypoint   | 0x040C    |
| Data Size    | 166 bytes |
| Instructions | 36        |

```
      00 01 02 03 04 05 06 07  08 09 0A 0B 0C 0D 0E 0F
      -- -- -- -- -- -- -- --  -- -- -- -- -- -- -- --
0400:                                      20 01 42 1E               .B.
0410: F0 FF FF 7F 6F 70 29 08  EC B0 00 01 0F 1D 15 80  ....op).........
0420: 23 45 16 80 F8 FF FF 7F  F8 FF FF 7F 66 64 6F 31  #E..........fdo1
0430: 04 80 1C 17 80 29 08 EC  B0 00 01 10 29 08 EC B0  .....)......)...
0440: 00 01 25 29 08 EC B0 00  01 26 45 16 80 F8 FF FF  ..%).....&E.....
0450: 7F F8 FF FF 7F 66 64 69  31 04 80 1D 18 80 23 29  .....fdi1.....#)
0460: 08 EC B0 00 01 27 1D 19  80 23 29 08 EC B0 00 01  .....'...#).....
0470: 28 1D 1A 80 23 29 08 EC  B0 00 01 0F 1D 1B 80 23  (...#).........#
0480: 1D 1C 80 23 29 08 EC B0  00 01 10 29 08 EC B0 00  ...#)......)....
0490: 01 11 1D 1D 80 23 29 08  EC B0 00 01 12 45 1E 80  .....#)......E..
04A0: F0 FF FF 7F F0 FF FF 7F  71 73 74 63 04 80 20 00  ........qstc.. .
04B0: 21 00                                             !.              
```

#### Opcodes

```
  0: 0x040C [0x20] SET_CLI_EVENT_UC_FLAG: Lock player control
  1: 0x040E [0x42] SET_CLI_EVENT_CANCEL_DATA()
  2: 0x040F [0x1E] EventEntity looks at LocalPlayer and starts talking
  3: 0x0414 [0x6F] WAIT_FRAME_DELAY: Yield until WaitTime reaches zero
  4: 0x0415 [0x70] WAIT_ENTITY_RENDER_FLAG: Wait while EventEntity->Render.Flags3 bit 2 is set (cancel turn if not)
  5: 0x0416 [0x29] REQ_SET_WAIT(priority=0x08, entity_id=Koblakiq (ID: 16822508/0x0100B0EC), tag_num=0x0F)
  6: 0x041D [0x1D] PRINT_EVENT_MESSAGE(message_id=7831*)
    → "A letter! This is a letter from my brother!"
  7: 0x0420 [0x23] WAIT_FOR_DIALOG_INTERACTION
  8: 0x0421 [0x45] LOAD_SCHEDULED_TASK: Load scheduler "fdo1" with entities [EventEntity, EventEntity], work=[200*, 0*]
  9: 0x0432 [0x1C] WAIT(150* ticks)
 10: 0x0435 [0x29] REQ_SET_WAIT(priority=0x08, entity_id=Koblakiq (ID: 16822508/0x0100B0EC), tag_num=0x10)
 11: 0x043C [0x29] REQ_SET_WAIT(priority=0x08, entity_id=Koblakiq (ID: 16822508/0x0100B0EC), tag_num=0x25)
 12: 0x0443 [0x29] REQ_SET_WAIT(priority=0x08, entity_id=Koblakiq (ID: 16822508/0x0100B0EC), tag_num=0x26)
 13: 0x044A [0x45] LOAD_SCHEDULED_TASK: Load scheduler "fdi1" with entities [EventEntity, EventEntity], work=[200*, 0*]
 14: 0x045B [0x1D] PRINT_EVENT_MESSAGE(message_id=7832*)
    → "He got in to talk to the overlord, but the Orcs were too stupid to understand what he was saying."
 15: 0x045E [0x23] WAIT_FOR_DIALOG_INTERACTION
 16: 0x045F [0x29] REQ_SET_WAIT(priority=0x08, entity_id=Koblakiq (ID: 16822508/0x0100B0EC), tag_num=0x27)
 17: 0x0466 [0x1D] PRINT_EVENT_MESSAGE(message_id=7833*)
    → "Zeelozok writes that the Orcs only follow the strong. The demon army of the Kindred crushed the Orcs, so the Orcs obey the demons."
 18: 0x0469 [0x23] WAIT_FOR_DIALOG_INTERACTION
 19: 0x046A [0x29] REQ_SET_WAIT(priority=0x08, entity_id=Koblakiq (ID: 16822508/0x0100B0EC), tag_num=0x28)
 20: 0x0471 [0x1D] PRINT_EVENT_MESSAGE(message_id=7834*)
    → "Then Zeelozok was taken captive. The Orcs said that people and Moblins are only good for eating."
 21: 0x0474 [0x23] WAIT_FOR_DIALOG_INTERACTION
 22: 0x0475 [0x29] REQ_SET_WAIT(priority=0x08, entity_id=Koblakiq (ID: 16822508/0x0100B0EC), tag_num=0x0F)
 23: 0x047C [0x1D] PRINT_EVENT_MESSAGE(message_id=7835*)
    → "My brother is really good at digging, though. He dug a tunnel straight out of Davoi and escaped."
 24: 0x047F [0x23] WAIT_FOR_DIALOG_INTERACTION
 25: 0x0480 [0x1D] PRINT_EVENT_MESSAGE(message_id=7836*)
    → "But he was mighty mad by now, and said he let all the other "food" go free as well."
 26: 0x0483 [0x23] WAIT_FOR_DIALOG_INTERACTION
 27: 0x0484 [0x29] REQ_SET_WAIT(priority=0x08, entity_id=Koblakiq (ID: 16822508/0x0100B0EC), tag_num=0x10)
 28: 0x048B [0x29] REQ_SET_WAIT(priority=0x08, entity_id=Koblakiq (ID: 16822508/0x0100B0EC), tag_num=0x11)
 29: 0x0492 [0x1D] PRINT_EVENT_MESSAGE(message_id=7837*)
    → "He got something from them as thanks. We don't need this stuff, so you can have it."
 30: 0x0495 [0x23] WAIT_FOR_DIALOG_INTERACTION
 31: 0x0496 [0x29] REQ_SET_WAIT(priority=0x08, entity_id=Koblakiq (ID: 16822508/0x0100B0EC), tag_num=0x12)
 32: 0x049D [0x45] LOAD_SCHEDULED_TASK: Load scheduler "qstc" with entities [LocalPlayer, LocalPlayer], work=[201*, 0*]
 33: 0x04AE [0x20] SET_CLI_EVENT_UC_FLAG: Unlock player control
 34: 0x04B0 [0x21] END_EVENT
 35: 0x04B1 [0x00] END_REQSTACK()
```

### Event 12

#### Metadata

| Field        | Value    |
|--------------|----------|
| Entrypoint   | 0x04B2   |
| Data Size    | 43 bytes |
| Instructions | 12       |

```
      00 01 02 03 04 05 06 07  08 09 0A 0B 0C 0D 0E 0F
      -- -- -- -- -- -- -- --  -- -- -- -- -- -- -- --
04B0:       1E F0 FF FF 7F 6F  70 29 08 EC B0 00 01 1D    .....op)......
04C0: 1D 1F 80 23 29 08 EC B0  00 01 1E 29 08 EC B0 00  ...#)......)....
04D0: 01 1F 29 08 EC B0 00 01  20 20 00 21 00           ..).....  .!.   
```

#### Opcodes

```
  0: 0x04B2 [0x1E] EventEntity looks at LocalPlayer and starts talking
  1: 0x04B7 [0x6F] WAIT_FRAME_DELAY: Yield until WaitTime reaches zero
  2: 0x04B8 [0x70] WAIT_ENTITY_RENDER_FLAG: Wait while EventEntity->Render.Flags3 bit 2 is set (cancel turn if not)
  3: 0x04B9 [0x29] REQ_SET_WAIT(priority=0x08, entity_id=Koblakiq (ID: 16822508/0x0100B0EC), tag_num=0x1D)
  4: 0x04C0 [0x1D] PRINT_EVENT_MESSAGE(message_id=7838*)
    → "You're pretty useful for a person! Keep up the good work and show your obedience to the Moblins, and to Promathia!"
  5: 0x04C3 [0x23] WAIT_FOR_DIALOG_INTERACTION
  6: 0x04C4 [0x29] REQ_SET_WAIT(priority=0x08, entity_id=Koblakiq (ID: 16822508/0x0100B0EC), tag_num=0x1E)
  7: 0x04CB [0x29] REQ_SET_WAIT(priority=0x08, entity_id=Koblakiq (ID: 16822508/0x0100B0EC), tag_num=0x1F)
  8: 0x04D2 [0x29] REQ_SET_WAIT(priority=0x08, entity_id=Koblakiq (ID: 16822508/0x0100B0EC), tag_num=0x20)
  9: 0x04D9 [0x20] SET_CLI_EVENT_UC_FLAG: Unlock player control
 10: 0x04DB [0x21] END_EVENT
 11: 0x04DC [0x00] END_REQSTACK()
```

### Event 14

#### Metadata

| Field        | Value     |
|--------------|-----------|
| Entrypoint   | 0x04DD    |
| Data Size    | 215 bytes |
| Instructions | 53        |

```
      00 01 02 03 04 05 06 07  08 09 0A 0B 0C 0D 0E 0F
      -- -- -- -- -- -- -- --  -- -- -- -- -- -- -- --
04D0:                                         1E F0 FF               ...
04E0: FF 7F 6F 70 29 08 EC B0  00 01 1D 1D 20 80 23 02  ..op)....... .#.
04F0: 07 10 04 80 00 FE 04 1D  21 80 23 01 02 05 1D 22  ........!.#...."
0500: 80 23 1D 23 80 23 29 08  EC B0 00 01 1E 29 08 EC  .#.#.#)......)..
0510: B0 00 01 1F 1D 24 80 23  1D 25 80 23 29 08 EC B0  .....$.#.%.#)...
0520: 00 01 20 29 08 EC B0 00  01 17 1D 26 80 23 29 08  .. ).......&.#).
0530: EC B0 00 01 18 29 08 EC  B0 00 01 19 1D 27 80 23  .....).......'.#
0540: 29 08 EC B0 00 01 1A 24  28 80 04 80 04 80 25 02  )......$(.....%.
0550: 00 10 04 80 00 80 05 42  03 01 10 08 80 29 08 EC  .......B.....)..
0560: B0 00 01 0F 1D 29 80 23  29 08 EC B0 00 01 10 29  .....).#)......)
0570: 08 EC B0 00 01 11 29 08  EC B0 00 01 12 01 B0 05  ......).........
0580: 02 00 10 08 80 00 B0 05  03 01 10 11 80 29 08 EC  .............)..
0590: B0 00 01 0F 1D 12 80 23  29 08 EC B0 00 01 10 29  .......#)......)
05A0: 08 EC B0 00 01 11 29 08  EC B0 00 01 12 01 B0 05  ......).........
05B0: 20 00 21 00                                        .!.            
```

#### Opcodes

```
  0: 0x04DD [0x1E] EventEntity looks at LocalPlayer and starts talking
  1: 0x04E2 [0x6F] WAIT_FRAME_DELAY: Yield until WaitTime reaches zero
  2: 0x04E3 [0x70] WAIT_ENTITY_RENDER_FLAG: Wait while EventEntity->Render.Flags3 bit 2 is set (cancel turn if not)
  3: 0x04E4 [0x29] REQ_SET_WAIT(priority=0x08, entity_id=Koblakiq (ID: 16822508/0x0100B0EC), tag_num=0x1D)
  4: 0x04EB [0x1D] PRINT_EVENT_MESSAGE(message_id=7839*)
    → "I got another letter from my brother. He says that he's visiting the Yagudo next."
  5: 0x04EE [0x23] WAIT_FOR_DIALOG_INTERACTION
  6: 0x04EF [0x02] IF !(Work_Zone[7] == 0*) GOTO 0x04FE
  7: 0x04F7 [0x1D] PRINT_EVENT_MESSAGE(message_id=7840*)
    → "The Yagudo say that their god lives among them. Maybe their god is the reincarnation of Promathia!"
  8: 0x04FA [0x23] WAIT_FOR_DIALOG_INTERACTION
  9: 0x04FB [0x01] GOTO 0x0502
 10: 0x04FE [0x1D] PRINT_EVENT_MESSAGE(message_id=7841*)
    → "The Yagudo say that their god lives among them. Maybe their god is the same reincarnation of Promathia that appeared to us!"
 11: 0x0501 [0x23] WAIT_FOR_DIALOG_INTERACTION

SUBROUTINE_0502:
 12: 0x0502 [0x1D] PRINT_EVENT_MESSAGE(message_id=7842*)
    → "Zeelozok went to Castle Oztroja to see for himself."
 13: 0x0505 [0x23] WAIT_FOR_DIALOG_INTERACTION
 14: 0x0506 [0x29] REQ_SET_WAIT(priority=0x08, entity_id=Koblakiq (ID: 16822508/0x0100B0EC), tag_num=0x1E)
 15: 0x050D [0x29] REQ_SET_WAIT(priority=0x08, entity_id=Koblakiq (ID: 16822508/0x0100B0EC), tag_num=0x1F)
 16: 0x0514 [0x1D] PRINT_EVENT_MESSAGE(message_id=7843*)
    → "The Yagudo wouldn't let him meet with their god, so instead he found someone who's seen their divinity close up."
 17: 0x0517 [0x23] WAIT_FOR_DIALOG_INTERACTION
 18: 0x0518 [0x1D] PRINT_EVENT_MESSAGE(message_id=7844*)
    → "Zeelozok found a Yagudo who was injured while protecting the bird people's deity."
 19: 0x051B [0x23] WAIT_FOR_DIALOG_INTERACTION
 20: 0x051C [0x29] REQ_SET_WAIT(priority=0x08, entity_id=Koblakiq (ID: 16822508/0x0100B0EC), tag_num=0x20)
 21: 0x0523 [0x29] REQ_SET_WAIT(priority=0x08, entity_id=Koblakiq (ID: 16822508/0x0100B0EC), tag_num=0x17)
 22: 0x052A [0x1D] PRINT_EVENT_MESSAGE(message_id=7845*)
    → "He wants someone to bring him $1, but I don't know where to get one of those."
 23: 0x052D [0x23] WAIT_FOR_DIALOG_INTERACTION
 24: 0x052E [0x29] REQ_SET_WAIT(priority=0x08, entity_id=Koblakiq (ID: 16822508/0x0100B0EC), tag_num=0x18)
 25: 0x0535 [0x29] REQ_SET_WAIT(priority=0x08, entity_id=Koblakiq (ID: 16822508/0x0100B0EC), tag_num=0x19)
 26: 0x053C [0x1D] PRINT_EVENT_MESSAGE(message_id=7846*)
    → "If you find some, take it to Zeelozok in the bird men's fortress."
 27: 0x053F [0x23] WAIT_FOR_DIALOG_INTERACTION
 28: 0x0540 [0x29] REQ_SET_WAIT(priority=0x08, entity_id=Koblakiq (ID: 16822508/0x0100B0EC), tag_num=0x1A)
 29: 0x0547 [0x24] CREATE_DIALOG(message_id=7847*, default_option=0*, option_flags=0*)
    → "Do as she asks? [I've come this far.../Not this time.]"
 30: 0x054E [0x25] WAIT_DIALOG_SELECT()
 31: 0x054F [0x02] IF !(Work_Zone[0] == 0*) GOTO 0x0580
 32: 0x0557 [0x42] SET_CLI_EVENT_CANCEL_DATA()
 33: 0x0558 [0x03] Work_Zone[1] = 1*
 34: 0x055D [0x29] REQ_SET_WAIT(priority=0x08, entity_id=Koblakiq (ID: 16822508/0x0100B0EC), tag_num=0x0F)
 35: 0x0564 [0x1D] PRINT_EVENT_MESSAGE(message_id=7848*)
    → "Find $1 and take it to Castle Oztroja!"
 36: 0x0567 [0x23] WAIT_FOR_DIALOG_INTERACTION
 37: 0x0568 [0x29] REQ_SET_WAIT(priority=0x08, entity_id=Koblakiq (ID: 16822508/0x0100B0EC), tag_num=0x10)
 38: 0x056F [0x29] REQ_SET_WAIT(priority=0x08, entity_id=Koblakiq (ID: 16822508/0x0100B0EC), tag_num=0x11)
 39: 0x0576 [0x29] REQ_SET_WAIT(priority=0x08, entity_id=Koblakiq (ID: 16822508/0x0100B0EC), tag_num=0x12)
 40: 0x057D [0x01] GOTO 0x05B0
 41: 0x0580 [0x02] IF !(Work_Zone[0] == 1*) GOTO 0x05B0
 42: 0x0588 [0x03] Work_Zone[1] = 2*
 43: 0x058D [0x29] REQ_SET_WAIT(priority=0x08, entity_id=Koblakiq (ID: 16822508/0x0100B0EC), tag_num=0x0F)
 44: 0x0594 [0x1D] PRINT_EVENT_MESSAGE(message_id=7829*)
    → "Promathia will be reborn and mash your people into oblivion!"
 45: 0x0597 [0x23] WAIT_FOR_DIALOG_INTERACTION
 46: 0x0598 [0x29] REQ_SET_WAIT(priority=0x08, entity_id=Koblakiq (ID: 16822508/0x0100B0EC), tag_num=0x10)
 47: 0x059F [0x29] REQ_SET_WAIT(priority=0x08, entity_id=Koblakiq (ID: 16822508/0x0100B0EC), tag_num=0x11)
 48: 0x05A6 [0x29] REQ_SET_WAIT(priority=0x08, entity_id=Koblakiq (ID: 16822508/0x0100B0EC), tag_num=0x12)
 49: 0x05AD [0x01] GOTO 0x05B0

SUBROUTINE_05B0:
 50: 0x05B0 [0x20] SET_CLI_EVENT_UC_FLAG: Unlock player control
 51: 0x05B2 [0x21] END_EVENT
 52: 0x05B3 [0x00] END_REQSTACK()
```

### Event 15

#### Metadata

| Field        | Value    |
|--------------|----------|
| Entrypoint   | 0x05B4   |
| Data Size    | 47 bytes |
| Instructions | 14       |

```
      00 01 02 03 04 05 06 07  08 09 0A 0B 0C 0D 0E 0F
      -- -- -- -- -- -- -- --  -- -- -- -- -- -- -- --
05B0:             1E F0 FF FF  7F 6F 70 29 08 EC B0 00      .....op)....
05C0: 01 0F 1D 2A 80 23 1D 29  80 23 29 08 EC B0 00 01  ...*.#.).#).....
05D0: 10 29 08 EC B0 00 01 11  29 08 EC B0 00 01 12 20  .)......)...... 
05E0: 00 21 00                                          .!.             
```

#### Opcodes

```
  0: 0x05B4 [0x1E] EventEntity looks at LocalPlayer and starts talking
  1: 0x05B9 [0x6F] WAIT_FRAME_DELAY: Yield until WaitTime reaches zero
  2: 0x05BA [0x70] WAIT_ENTITY_RENDER_FLAG: Wait while EventEntity->Render.Flags3 bit 2 is set (cancel turn if not)
  3: 0x05BB [0x29] REQ_SET_WAIT(priority=0x08, entity_id=Koblakiq (ID: 16822508/0x0100B0EC), tag_num=0x0F)
  4: 0x05C2 [0x1D] PRINT_EVENT_MESSAGE(message_id=7849*)
    → "My brother wants $1 for the Yagudo who was injured protecting the bird men's deity."
  5: 0x05C5 [0x23] WAIT_FOR_DIALOG_INTERACTION
  6: 0x05C6 [0x1D] PRINT_EVENT_MESSAGE(message_id=7848*)
    → "Find $1 and take it to Castle Oztroja!"
  7: 0x05C9 [0x23] WAIT_FOR_DIALOG_INTERACTION
  8: 0x05CA [0x29] REQ_SET_WAIT(priority=0x08, entity_id=Koblakiq (ID: 16822508/0x0100B0EC), tag_num=0x10)
  9: 0x05D1 [0x29] REQ_SET_WAIT(priority=0x08, entity_id=Koblakiq (ID: 16822508/0x0100B0EC), tag_num=0x11)
 10: 0x05D8 [0x29] REQ_SET_WAIT(priority=0x08, entity_id=Koblakiq (ID: 16822508/0x0100B0EC), tag_num=0x12)
 11: 0x05DF [0x20] SET_CLI_EVENT_UC_FLAG: Unlock player control
 12: 0x05E1 [0x21] END_EVENT
 13: 0x05E2 [0x00] END_REQSTACK()
```

### Event 16

#### Metadata

| Field        | Value     |
|--------------|-----------|
| Entrypoint   | 0x05E3    |
| Data Size    | 249 bytes |
| Instructions | 65        |

```
      00 01 02 03 04 05 06 07  08 09 0A 0B 0C 0D 0E 0F
      -- -- -- -- -- -- -- --  -- -- -- -- -- -- -- --
05E0:          03 00 00 09 10  1E F0 FF FF 7F 6F 70 29     ..........op)
05F0: 08 EC B0 00 01 01 1D 2B  80 23 1D 2C 80 23 29 08  .......+.#.,.#).
0600: EC B0 00 01 02 29 08 EC  B0 00 01 03 29 08 EC B0  .....)......)...
0610: 00 01 04 29 08 EC B0 00  01 25 1D 2D 80 23 1D 2E  ...).....%.-.#..
0620: 80 23 29 08 EC B0 00 01  26 29 08 EC B0 00 01 27  .#).....&).....'
0630: 1D 2F 80 23 29 08 EC B0  00 01 28 29 08 EC B0 00  ./.#).....()....
0640: 01 1D 1D 30 80 23 1D 31  80 23 1D 32 80 23 29 08  ...0.#.1.#.2.#).
0650: EC B0 00 01 1E 29 08 EC  B0 00 01 1F 29 08 EC B0  .....)......)...
0660: 00 01 20 29 08 EC B0 00  01 01 1D 33 80 23 1D 34  .. ).......3.#.4
0670: 80 23 29 08 EC B0 00 01  02 29 08 EC B0 00 01 03  .#)......)......
0680: 1D 35 80 23 02 00 00 08  80 00 93 06 1D 36 80 23  .5.#.........6.#
0690: 01 97 06 1D 37 80 23 29  08 EC B0 00 01 04 24 38  ....7.#)......$8
06A0: 80 04 80 04 80 25 02 00  10 04 80 00 B2 06 42 01  .....%........B.
06B0: C6 06 02 00 10 08 80 00  C6 06 03 01 10 11 80 1D  ................
06C0: 39 80 23 01 C6 06 29 08  EC B0 00 01 1B 1D 3A 80  9.#...).......:.
06D0: 23 29 08 EC B0 00 01 1C  20 00 21 00              #)...... .!.    
```

#### Opcodes

```
  0: 0x05E3 [0x03] ExtData[1]->WorkLocal[0] = Work_Zone[9]
  1: 0x05E8 [0x1E] EventEntity looks at LocalPlayer and starts talking
  2: 0x05ED [0x6F] WAIT_FRAME_DELAY: Yield until WaitTime reaches zero
  3: 0x05EE [0x70] WAIT_ENTITY_RENDER_FLAG: Wait while EventEntity->Render.Flags3 bit 2 is set (cancel turn if not)
  4: 0x05EF [0x29] REQ_SET_WAIT(priority=0x08, entity_id=Koblakiq (ID: 16822508/0x0100B0EC), tag_num=0x01)
  5: 0x05F6 [0x1D] PRINT_EVENT_MESSAGE(message_id=7850*)
    → "You took your time getting back. I got another letter from Zeelozok that explains what happened."
  6: 0x05F9 [0x23] WAIT_FOR_DIALOG_INTERACTION
  7: 0x05FA [0x1D] PRINT_EVENT_MESSAGE(message_id=7851*)
    → "Before the injured Yagudo died, he told Zeelozok about his god."
  8: 0x05FD [0x23] WAIT_FOR_DIALOG_INTERACTION
  9: 0x05FE [0x29] REQ_SET_WAIT(priority=0x08, entity_id=Koblakiq (ID: 16822508/0x0100B0EC), tag_num=0x02)
 10: 0x0605 [0x29] REQ_SET_WAIT(priority=0x08, entity_id=Koblakiq (ID: 16822508/0x0100B0EC), tag_num=0x03)
 11: 0x060C [0x29] REQ_SET_WAIT(priority=0x08, entity_id=Koblakiq (ID: 16822508/0x0100B0EC), tag_num=0x04)
 12: 0x0613 [0x29] REQ_SET_WAIT(priority=0x08, entity_id=Koblakiq (ID: 16822508/0x0100B0EC), tag_num=0x25)
 13: 0x061A [0x1D] PRINT_EVENT_MESSAGE(message_id=7852*)
    → "The Yagudo divinity has nothing to do with Promathia."
 14: 0x061D [0x23] WAIT_FOR_DIALOG_INTERACTION
 15: 0x061E [0x1D] PRINT_EVENT_MESSAGE(message_id=7853*)
    → "And since the Kindred stole the sacred vessel of their god, the Yagudo have no choice but to obey them."
 16: 0x0621 [0x23] WAIT_FOR_DIALOG_INTERACTION
 17: 0x0622 [0x29] REQ_SET_WAIT(priority=0x08, entity_id=Koblakiq (ID: 16822508/0x0100B0EC), tag_num=0x26)
 18: 0x0629 [0x29] REQ_SET_WAIT(priority=0x08, entity_id=Koblakiq (ID: 16822508/0x0100B0EC), tag_num=0x27)
 19: 0x0630 [0x1D] PRINT_EVENT_MESSAGE(message_id=7854*)
    → "Zeelozok said the Moblins follow the true god. After hearing this, the Yagudo chased him out of Oztroja!"
 20: 0x0633 [0x23] WAIT_FOR_DIALOG_INTERACTION
 21: 0x0634 [0x29] REQ_SET_WAIT(priority=0x08, entity_id=Koblakiq (ID: 16822508/0x0100B0EC), tag_num=0x28)
 22: 0x063B [0x29] REQ_SET_WAIT(priority=0x08, entity_id=Koblakiq (ID: 16822508/0x0100B0EC), tag_num=0x1D)
 23: 0x0642 [0x1D] PRINT_EVENT_MESSAGE(message_id=7855*)
    → "Now Zeelozok is in Beadeaux, talking with the Quadav."
 24: 0x0645 [0x23] WAIT_FOR_DIALOG_INTERACTION
 25: 0x0646 [0x1D] PRINT_EVENT_MESSAGE(message_id=7856*)
    → "Here's a surprise! He says that the Quadav are far smarter than he expected!"
 26: 0x0649 [0x23] WAIT_FOR_DIALOG_INTERACTION
 27: 0x064A [0x1D] PRINT_EVENT_MESSAGE(message_id=7857*)
    → "They knew that the Moblins had found a big sparkly crystal and were really impressed!"
 28: 0x064D [0x23] WAIT_FOR_DIALOG_INTERACTION
 29: 0x064E [0x29] REQ_SET_WAIT(priority=0x08, entity_id=Koblakiq (ID: 16822508/0x0100B0EC), tag_num=0x1E)
 30: 0x0655 [0x29] REQ_SET_WAIT(priority=0x08, entity_id=Koblakiq (ID: 16822508/0x0100B0EC), tag_num=0x1F)
 31: 0x065C [0x29] REQ_SET_WAIT(priority=0x08, entity_id=Koblakiq (ID: 16822508/0x0100B0EC), tag_num=0x20)
 32: 0x0663 [0x29] REQ_SET_WAIT(priority=0x08, entity_id=Koblakiq (ID: 16822508/0x0100B0EC), tag_num=0x01)
 33: 0x066A [0x1D] PRINT_EVENT_MESSAGE(message_id=7858*)
    → "They said that they would help the Moblins to destroy Bastok."
 34: 0x066D [0x23] WAIT_FOR_DIALOG_INTERACTION
 35: 0x066E [0x1D] PRINT_EVENT_MESSAGE(message_id=7859*)
    → "But first they want to see proof that the big sparkly crystal really exists. Aw, come on!"
 36: 0x0671 [0x23] WAIT_FOR_DIALOG_INTERACTION
 37: 0x0672 [0x29] REQ_SET_WAIT(priority=0x08, entity_id=Koblakiq (ID: 16822508/0x0100B0EC), tag_num=0x02)
 38: 0x0679 [0x29] REQ_SET_WAIT(priority=0x08, entity_id=Koblakiq (ID: 16822508/0x0100B0EC), tag_num=0x03)
 39: 0x0680 [0x1D] PRINT_EVENT_MESSAGE(message_id=7860*)
    → "Well, fair's fair, I suppose. Here, take this $3 to the Quadav near the smoking kilns."
 40: 0x0683 [0x23] WAIT_FOR_DIALOG_INTERACTION
 41: 0x0684 [0x02] IF !(ExtData[1]->WorkLocal[0] == 1*) GOTO 0x0693
 42: 0x068C [0x1D] PRINT_EVENT_MESSAGE(message_id=8027*)
    → "Beadeaux is not that far from here, right? Do your job right and maybe Promathia will forgive your trangressions."
 43: 0x068F [0x23] WAIT_FOR_DIALOG_INTERACTION
 44: 0x0690 [0x01] GOTO 0x0697
 45: 0x0693 [0x1D] PRINT_EVENT_MESSAGE(message_id=7861*)
    → "Beadeaux is not that far from here, right? Do your job right and I'll put a good word in for you when Promathia comes to destroy all the children of Altana."
 46: 0x0696 [0x23] WAIT_FOR_DIALOG_INTERACTION

SUBROUTINE_0697:
 47: 0x0697 [0x29] REQ_SET_WAIT(priority=0x08, entity_id=Koblakiq (ID: 16822508/0x0100B0EC), tag_num=0x04)
 48: 0x069E [0x24] CREATE_DIALOG(message_id=7862*, default_option=0*, option_flags=0*)
    → "Help out again? [Hail Promathia!/I've had enough.]"
 49: 0x06A5 [0x25] WAIT_DIALOG_SELECT()
 50: 0x06A6 [0x02] IF !(Work_Zone[0] == 0*) GOTO 0x06B2
 51: 0x06AE [0x42] SET_CLI_EVENT_CANCEL_DATA()
 52: 0x06AF [0x01] GOTO 0x06C6
 53: 0x06B2 [0x02] IF !(Work_Zone[0] == 1*) GOTO 0x06C6
 54: 0x06BA [0x03] Work_Zone[1] = 2*
 55: 0x06BF [0x1D] PRINT_EVENT_MESSAGE(message_id=7863*)
    → "Say whatever you want. You can't defy the will of Promathia."
 56: 0x06C2 [0x23] WAIT_FOR_DIALOG_INTERACTION
 57: 0x06C3 [0x01] GOTO 0x06C6

SUBROUTINE_06C6:
 58: 0x06C6 [0x29] REQ_SET_WAIT(priority=0x08, entity_id=Koblakiq (ID: 16822508/0x0100B0EC), tag_num=0x1B)
 59: 0x06CD [0x1D] PRINT_EVENT_MESSAGE(message_id=7864*)
    → "Right, then. Go to the smoking kilns in Beadeaux. The Quadav will be waiting for you."
 60: 0x06D0 [0x23] WAIT_FOR_DIALOG_INTERACTION
 61: 0x06D1 [0x29] REQ_SET_WAIT(priority=0x08, entity_id=Koblakiq (ID: 16822508/0x0100B0EC), tag_num=0x1C)
 62: 0x06D8 [0x20] SET_CLI_EVENT_UC_FLAG: Unlock player control
 63: 0x06DA [0x21] END_EVENT
 64: 0x06DB [0x00] END_REQSTACK()
```

### Event 17

#### Metadata

| Field        | Value    |
|--------------|----------|
| Entrypoint   | 0x06DC   |
| Data Size    | 15 bytes |
| Instructions | 8        |

```
      00 01 02 03 04 05 06 07  08 09 0A 0B 0C 0D 0E 0F
      -- -- -- -- -- -- -- --  -- -- -- -- -- -- -- --
06D0:                                      1E F0 FF FF              ....
06E0: 7F 6F 70 1D 3A 80 23 20  00 21 00                 .op.:.# .!.     
```

#### Opcodes

```
  0: 0x06DC [0x1E] EventEntity looks at LocalPlayer and starts talking
  1: 0x06E1 [0x6F] WAIT_FRAME_DELAY: Yield until WaitTime reaches zero
  2: 0x06E2 [0x70] WAIT_ENTITY_RENDER_FLAG: Wait while EventEntity->Render.Flags3 bit 2 is set (cancel turn if not)
  3: 0x06E3 [0x1D] PRINT_EVENT_MESSAGE(message_id=7864*)
    → "Right, then. Go to the smoking kilns in Beadeaux. The Quadav will be waiting for you."
  4: 0x06E6 [0x23] WAIT_FOR_DIALOG_INTERACTION
  5: 0x06E7 [0x20] SET_CLI_EVENT_UC_FLAG: Unlock player control
  6: 0x06E9 [0x21] END_EVENT
  7: 0x06EA [0x00] END_REQSTACK()
```

### Event 18

#### Metadata

| Field        | Value     |
|--------------|-----------|
| Entrypoint   | 0x06EB    |
| Data Size    | 171 bytes |
| Instructions | 39        |

```
      00 01 02 03 04 05 06 07  08 09 0A 0B 0C 0D 0E 0F
      -- -- -- -- -- -- -- --  -- -- -- -- -- -- -- --
06E0:                                   42 03 00 00 09             B....
06F0: 10 1E F0 FF FF 7F 6F 70  1D 3B 80 23 29 08 EC B0  ......op.;.#)...
0700: 00 01 0F 1D 3C 80 23 29  08 EC B0 00 01 10 29 08  ....<.#)......).
0710: EC B0 00 01 11 29 08 EC  B0 00 01 12 29 08 EC B0  .....)......)...
0720: 00 01 25 1D 3D 80 23 29  08 EC B0 00 01 26 29 08  ..%.=.#).....&).
0730: EC B0 00 01 27 1D 3E 80  23 29 08 EC B0 00 01 28  ....'.>.#).....(
0740: 29 08 EC B0 00 01 05 1D  3F 80 23 29 08 EC B0 00  ).......?.#)....
0750: 01 06 29 08 EC B0 00 01  0F 02 00 00 08 80 00 68  ..)............h
0760: 07 1D 40 80 23 01 6C 07  1D 41 80 23 29 08 EC B0  ..@.#.l..A.#)...
0770: 00 01 10 29 08 EC B0 00  01 11 29 08 EC B0 00 01  ...)......).....
0780: 12 45 1E 80 F0 FF FF 7F  F0 FF FF 7F 71 73 74 63  .E..........qstc
0790: 04 80 20 00 21 00                                 .. .!.          
```

#### Opcodes

```
  0: 0x06EB [0x42] SET_CLI_EVENT_CANCEL_DATA()
  1: 0x06EC [0x03] ExtData[1]->WorkLocal[0] = Work_Zone[9]
  2: 0x06F1 [0x1E] EventEntity looks at LocalPlayer and starts talking
  3: 0x06F6 [0x6F] WAIT_FRAME_DELAY: Yield until WaitTime reaches zero
  4: 0x06F7 [0x70] WAIT_ENTITY_RENDER_FLAG: Wait while EventEntity->Render.Flags3 bit 2 is set (cancel turn if not)
  5: 0x06F8 [0x1D] PRINT_EVENT_MESSAGE(message_id=7865*)
    → "The mail's in. My brother writes that the Quadav deceived the Moblins."
  6: 0x06FB [0x23] WAIT_FOR_DIALOG_INTERACTION
  7: 0x06FC [0x29] REQ_SET_WAIT(priority=0x08, entity_id=Koblakiq (ID: 16822508/0x0100B0EC), tag_num=0x0F)
  8: 0x0703 [0x1D] PRINT_EVENT_MESSAGE(message_id=7866*)
    → "They gave proof of the big sparkly crystal straight to the Kindred. The Moblins were betrayed to improve the standing of the Quadav."
  9: 0x0706 [0x23] WAIT_FOR_DIALOG_INTERACTION
 10: 0x0707 [0x29] REQ_SET_WAIT(priority=0x08, entity_id=Koblakiq (ID: 16822508/0x0100B0EC), tag_num=0x10)
 11: 0x070E [0x29] REQ_SET_WAIT(priority=0x08, entity_id=Koblakiq (ID: 16822508/0x0100B0EC), tag_num=0x11)
 12: 0x0715 [0x29] REQ_SET_WAIT(priority=0x08, entity_id=Koblakiq (ID: 16822508/0x0100B0EC), tag_num=0x12)
 13: 0x071C [0x29] REQ_SET_WAIT(priority=0x08, entity_id=Koblakiq (ID: 16822508/0x0100B0EC), tag_num=0x25)
 14: 0x0723 [0x1D] PRINT_EVENT_MESSAGE(message_id=7867*)
    → "I just don't get it. Why don't any of them understand that the Moblins are right?"
 15: 0x0726 [0x23] WAIT_FOR_DIALOG_INTERACTION
 16: 0x0727 [0x29] REQ_SET_WAIT(priority=0x08, entity_id=Koblakiq (ID: 16822508/0x0100B0EC), tag_num=0x26)
 17: 0x072E [0x29] REQ_SET_WAIT(priority=0x08, entity_id=Koblakiq (ID: 16822508/0x0100B0EC), tag_num=0x27)
 18: 0x0735 [0x1D] PRINT_EVENT_MESSAGE(message_id=7869*)
    → "When Zeelozok gets back, I'm going with him on his next trip."
 19: 0x0738 [0x23] WAIT_FOR_DIALOG_INTERACTION
 20: 0x0739 [0x29] REQ_SET_WAIT(priority=0x08, entity_id=Koblakiq (ID: 16822508/0x0100B0EC), tag_num=0x28)
 21: 0x0740 [0x29] REQ_SET_WAIT(priority=0x08, entity_id=Koblakiq (ID: 16822508/0x0100B0EC), tag_num=0x05)
 22: 0x0747 [0x1D] PRINT_EVENT_MESSAGE(message_id=7870*)
    → "You've made yourself useful, so you can come along, too. Take this with you."
 23: 0x074A [0x23] WAIT_FOR_DIALOG_INTERACTION
 24: 0x074B [0x29] REQ_SET_WAIT(priority=0x08, entity_id=Koblakiq (ID: 16822508/0x0100B0EC), tag_num=0x06)
 25: 0x0752 [0x29] REQ_SET_WAIT(priority=0x08, entity_id=Koblakiq (ID: 16822508/0x0100B0EC), tag_num=0x0F)
 26: 0x0759 [0x02] IF !(ExtData[1]->WorkLocal[0] == 1*) GOTO 0x0768
 27: 0x0761 [0x1D] PRINT_EVENT_MESSAGE(message_id=8028*)
    → "Just hold on to it. Are you people really children of the Twilight God? You gotta try harder to get along with your Moblin brothers."
 28: 0x0764 [0x23] WAIT_FOR_DIALOG_INTERACTION
 29: 0x0765 [0x01] GOTO 0x076C
 30: 0x0768 [0x1D] PRINT_EVENT_MESSAGE(message_id=7871*)
    → "Just hold on to it. Promathia loathes the children of the Dawn Goddess. You people have gotta try harder to get into the Twilight God's good books."
 31: 0x076B [0x23] WAIT_FOR_DIALOG_INTERACTION

SUBROUTINE_076C:
 32: 0x076C [0x29] REQ_SET_WAIT(priority=0x08, entity_id=Koblakiq (ID: 16822508/0x0100B0EC), tag_num=0x10)
 33: 0x0773 [0x29] REQ_SET_WAIT(priority=0x08, entity_id=Koblakiq (ID: 16822508/0x0100B0EC), tag_num=0x11)
 34: 0x077A [0x29] REQ_SET_WAIT(priority=0x08, entity_id=Koblakiq (ID: 16822508/0x0100B0EC), tag_num=0x12)
 35: 0x0781 [0x45] LOAD_SCHEDULED_TASK: Load scheduler "qstc" with entities [LocalPlayer, LocalPlayer], work=[201*, 0*]
 36: 0x0792 [0x20] SET_CLI_EVENT_UC_FLAG: Unlock player control
 37: 0x0794 [0x21] END_EVENT
 38: 0x0795 [0x00] END_REQSTACK()
```

### Event 19

#### Metadata

| Field        | Value    |
|--------------|----------|
| Entrypoint   | 0x0796   |
| Data Size    | 63 bytes |
| Instructions | 17       |

```
      00 01 02 03 04 05 06 07  08 09 0A 0B 0C 0D 0E 0F
      -- -- -- -- -- -- -- --  -- -- -- -- -- -- -- --
0790:                   03 00  00 09 10 1E F0 FF FF 7F        ..........
07A0: 6F 70 29 08 EC B0 00 01  0F 02 00 00 08 80 00 B8  op).............
07B0: 07 1D 40 80 23 01 BC 07  1D 41 80 23 29 08 EC B0  ..@.#....A.#)...
07C0: 00 01 10 29 08 EC B0 00  01 11 29 08 EC B0 00 01  ...)......).....
07D0: 12 20 00 21 00                                    . .!.           
```

#### Opcodes

```
  0: 0x0796 [0x03] ExtData[1]->WorkLocal[0] = Work_Zone[9]
  1: 0x079B [0x1E] EventEntity looks at LocalPlayer and starts talking
  2: 0x07A0 [0x6F] WAIT_FRAME_DELAY: Yield until WaitTime reaches zero
  3: 0x07A1 [0x70] WAIT_ENTITY_RENDER_FLAG: Wait while EventEntity->Render.Flags3 bit 2 is set (cancel turn if not)
  4: 0x07A2 [0x29] REQ_SET_WAIT(priority=0x08, entity_id=Koblakiq (ID: 16822508/0x0100B0EC), tag_num=0x0F)
  5: 0x07A9 [0x02] IF !(ExtData[1]->WorkLocal[0] == 1*) GOTO 0x07B8
  6: 0x07B1 [0x1D] PRINT_EVENT_MESSAGE(message_id=8028*)
    → "Just hold on to it. Are you people really children of the Twilight God? You gotta try harder to get along with your Moblin brothers."
  7: 0x07B4 [0x23] WAIT_FOR_DIALOG_INTERACTION
  8: 0x07B5 [0x01] GOTO 0x07BC
  9: 0x07B8 [0x1D] PRINT_EVENT_MESSAGE(message_id=7871*)
    → "Just hold on to it. Promathia loathes the children of the Dawn Goddess. You people have gotta try harder to get into the Twilight God's good books."
 10: 0x07BB [0x23] WAIT_FOR_DIALOG_INTERACTION

SUBROUTINE_07BC:
 11: 0x07BC [0x29] REQ_SET_WAIT(priority=0x08, entity_id=Koblakiq (ID: 16822508/0x0100B0EC), tag_num=0x10)
 12: 0x07C3 [0x29] REQ_SET_WAIT(priority=0x08, entity_id=Koblakiq (ID: 16822508/0x0100B0EC), tag_num=0x11)
 13: 0x07CA [0x29] REQ_SET_WAIT(priority=0x08, entity_id=Koblakiq (ID: 16822508/0x0100B0EC), tag_num=0x12)
 14: 0x07D1 [0x20] SET_CLI_EVENT_UC_FLAG: Unlock player control
 15: 0x07D3 [0x21] END_EVENT
 16: 0x07D4 [0x00] END_REQSTACK()
```

### Event 20

#### Metadata

| Field        | Value   |
|--------------|---------|
| Entrypoint   | 0x07D5  |
| Data Size    | 1 bytes |
| Instructions | 1       |

```
      00 01 02 03 04 05 06 07  08 09 0A 0B 0C 0D 0E 0F
      -- -- -- -- -- -- -- --  -- -- -- -- -- -- -- --
07D0:                00                                      .          
```

#### Opcodes

```
  0: 0x07D5 [0x00] END_REQSTACK()
```

### Event 21

#### Metadata

| Field        | Value    |
|--------------|----------|
| Entrypoint   | 0x07D6   |
| Data Size    | 33 bytes |
| Instructions | 12       |

```
      00 01 02 03 04 05 06 07  08 09 0A 0B 0C 0D 0E 0F
      -- -- -- -- -- -- -- --  -- -- -- -- -- -- -- --
07D0:                   1E F0  FF FF 7F 6F 70 29 08 EC        .....op)..
07E0: B0 00 01 0F 1D 42 80 23  1D 43 80 23 29 08 EC B0  .....B.#.C.#)...
07F0: 00 01 10 20 00 21 00                              ... .!.         
```

#### Opcodes

```
  0: 0x07D6 [0x1E] EventEntity looks at LocalPlayer and starts talking
  1: 0x07DB [0x6F] WAIT_FRAME_DELAY: Yield until WaitTime reaches zero
  2: 0x07DC [0x70] WAIT_ENTITY_RENDER_FLAG: Wait while EventEntity->Render.Flags3 bit 2 is set (cancel turn if not)
  3: 0x07DD [0x29] REQ_SET_WAIT(priority=0x08, entity_id=Koblakiq (ID: 16822508/0x0100B0EC), tag_num=0x0F)
  4: 0x07E4 [0x1D] PRINT_EVENT_MESSAGE(message_id=7883*)
    → "You! Go to Castle Zvahl and bring back $1!"
  5: 0x07E7 [0x23] WAIT_FOR_DIALOG_INTERACTION
  6: 0x07E8 [0x1D] PRINT_EVENT_MESSAGE(message_id=7884*)
    → "And be quick, 'cause once Zeelozok makes up his mind, he plunges right in. Go on, scoot!"
  7: 0x07EB [0x23] WAIT_FOR_DIALOG_INTERACTION
  8: 0x07EC [0x29] REQ_SET_WAIT(priority=0x08, entity_id=Koblakiq (ID: 16822508/0x0100B0EC), tag_num=0x10)
  9: 0x07F3 [0x20] SET_CLI_EVENT_UC_FLAG: Unlock player control
 10: 0x07F5 [0x21] END_EVENT
 11: 0x07F6 [0x00] END_REQSTACK()
```

### Event 22

#### Metadata

| Field        | Value   |
|--------------|---------|
| Entrypoint   | 0x07F7  |
| Data Size    | 1 bytes |
| Instructions | 1       |

```
      00 01 02 03 04 05 06 07  08 09 0A 0B 0C 0D 0E 0F
      -- -- -- -- -- -- -- --  -- -- -- -- -- -- -- --
07F0:                      00                                  .        
```

#### Opcodes

```
  0: 0x07F7 [0x00] END_REQSTACK()
```

### Event 23

#### Metadata

| Field        | Value    |
|--------------|----------|
| Entrypoint   | 0x07F8   |
| Data Size    | 22 bytes |
| Instructions | 7        |

```
      00 01 02 03 04 05 06 07  08 09 0A 0B 0C 0D 0E 0F
      -- -- -- -- -- -- -- --  -- -- -- -- -- -- -- --
07F0:                          29 08 EC B0 00 01 25 1D          ).....%.
0800: 44 80 23 29 08 EC B0 00  01 26 20 00 21 00        D.#).....& .!.  
```

#### Opcodes

```
  0: 0x07F8 [0x29] REQ_SET_WAIT(priority=0x08, entity_id=Koblakiq (ID: 16822508/0x0100B0EC), tag_num=0x25)
  1: 0x07FF [0x1D] PRINT_EVENT_MESSAGE(message_id=7896*)
    → "I know, I can work on the translation of that demon script. That could come in handy."
  2: 0x0802 [0x23] WAIT_FOR_DIALOG_INTERACTION
  3: 0x0803 [0x29] REQ_SET_WAIT(priority=0x08, entity_id=Koblakiq (ID: 16822508/0x0100B0EC), tag_num=0x26)
  4: 0x080A [0x20] SET_CLI_EVENT_UC_FLAG: Unlock player control
  5: 0x080C [0x21] END_EVENT
  6: 0x080D [0x00] END_REQSTACK()
```

### Event 24

#### Metadata

| Field        | Value     |
|--------------|-----------|
| Entrypoint   | 0x080E    |
| Data Size    | 142 bytes |
| Instructions | 37        |

```
      00 01 02 03 04 05 06 07  08 09 0A 0B 0C 0D 0E 0F
      -- -- -- -- -- -- -- --  -- -- -- -- -- -- -- --
0800:                                            42 1E                B.
0810: F0 FF FF 7F 6F 70 29 08  EC B0 00 01 0F 1D 45 80  ....op).......E.
0820: 23 1D 46 80 23 29 08 EC  B0 00 01 10 29 08 EC B0  #.F.#)......)...
0830: 00 01 11 29 08 EC B0 00  01 12 29 08 EC B0 00 01  ...)......).....
0840: 17 1D 47 80 23 29 08 EC  B0 00 01 18 29 08 EC B0  ..G.#)......)...
0850: 00 01 19 29 08 EC B0 00  01 1A 29 08 EC B0 00 01  ...)......).....
0860: 1D 1D 48 80 23 1D 49 80  23 29 08 EC B0 00 01 1E  ..H.#.I.#)......
0870: 29 08 EC B0 00 01 1F 1D  4A 80 23 29 08 EC B0 00  ).......J.#)....
0880: 01 20 29 08 EC B0 00 01  0F 1D 4B 80 23 1D 4C 80  . ).......K.#.L.
0890: 23 29 08 EC B0 00 01 10  20 00 21 00              #)...... .!.    
```

#### Opcodes

```
  0: 0x080E [0x42] SET_CLI_EVENT_CANCEL_DATA()
  1: 0x080F [0x1E] EventEntity looks at LocalPlayer and starts talking
  2: 0x0814 [0x6F] WAIT_FRAME_DELAY: Yield until WaitTime reaches zero
  3: 0x0815 [0x70] WAIT_ENTITY_RENDER_FLAG: Wait while EventEntity->Render.Flags3 bit 2 is set (cancel turn if not)
  4: 0x0816 [0x29] REQ_SET_WAIT(priority=0x08, entity_id=Koblakiq (ID: 16822508/0x0100B0EC), tag_num=0x0F)
  5: 0x081D [0x1D] PRINT_EVENT_MESSAGE(message_id=7897*)
    → "We're in trouble! The demons are angry at the Moblins!"
  6: 0x0820 [0x23] WAIT_FOR_DIALOG_INTERACTION
  7: 0x0821 [0x1D] PRINT_EVENT_MESSAGE(message_id=7898*)
    → "They've found out about Zeelozok's visits to the other beastmen!"
  8: 0x0824 [0x23] WAIT_FOR_DIALOG_INTERACTION
  9: 0x0825 [0x29] REQ_SET_WAIT(priority=0x08, entity_id=Koblakiq (ID: 16822508/0x0100B0EC), tag_num=0x10)
 10: 0x082C [0x29] REQ_SET_WAIT(priority=0x08, entity_id=Koblakiq (ID: 16822508/0x0100B0EC), tag_num=0x11)
 11: 0x0833 [0x29] REQ_SET_WAIT(priority=0x08, entity_id=Koblakiq (ID: 16822508/0x0100B0EC), tag_num=0x12)
 12: 0x083A [0x29] REQ_SET_WAIT(priority=0x08, entity_id=Koblakiq (ID: 16822508/0x0100B0EC), tag_num=0x17)
 13: 0x0841 [0x1D] PRINT_EVENT_MESSAGE(message_id=7899*)
    → "The Kindred demons are discussing whether or not to obliterate Movalpolos!"
 14: 0x0844 [0x23] WAIT_FOR_DIALOG_INTERACTION
 15: 0x0845 [0x29] REQ_SET_WAIT(priority=0x08, entity_id=Koblakiq (ID: 16822508/0x0100B0EC), tag_num=0x18)
 16: 0x084C [0x29] REQ_SET_WAIT(priority=0x08, entity_id=Koblakiq (ID: 16822508/0x0100B0EC), tag_num=0x19)
 17: 0x0853 [0x29] REQ_SET_WAIT(priority=0x08, entity_id=Koblakiq (ID: 16822508/0x0100B0EC), tag_num=0x1A)
 18: 0x085A [0x29] REQ_SET_WAIT(priority=0x08, entity_id=Koblakiq (ID: 16822508/0x0100B0EC), tag_num=0x1D)
 19: 0x0861 [0x1D] PRINT_EVENT_MESSAGE(message_id=7900*)
    → "King Paimon prefers to wait and watch the Moblins before doing anything."
 20: 0x0864 [0x23] WAIT_FOR_DIALOG_INTERACTION
 21: 0x0865 [0x1D] PRINT_EVENT_MESSAGE(message_id=7901*)
    → "But another demon called Marquis Andrealphus is ready to make this city our tomb."
 22: 0x0868 [0x23] WAIT_FOR_DIALOG_INTERACTION
 23: 0x0869 [0x29] REQ_SET_WAIT(priority=0x08, entity_id=Koblakiq (ID: 16822508/0x0100B0EC), tag_num=0x1E)
 24: 0x0870 [0x29] REQ_SET_WAIT(priority=0x08, entity_id=Koblakiq (ID: 16822508/0x0100B0EC), tag_num=0x1F)
 25: 0x0877 [0x1D] PRINT_EVENT_MESSAGE(message_id=7902*)
    → "If this marquis discovers Zeelozok wandering around Castle Zvahl, Promathia only knows what he'll do to my brother!"
 26: 0x087A [0x23] WAIT_FOR_DIALOG_INTERACTION
 27: 0x087B [0x29] REQ_SET_WAIT(priority=0x08, entity_id=Koblakiq (ID: 16822508/0x0100B0EC), tag_num=0x20)
 28: 0x0882 [0x29] REQ_SET_WAIT(priority=0x08, entity_id=Koblakiq (ID: 16822508/0x0100B0EC), tag_num=0x0F)
 29: 0x0889 [0x1D] PRINT_EVENT_MESSAGE(message_id=7903*)
    → "You have to catch up with Zeelozok!"
 30: 0x088C [0x23] WAIT_FOR_DIALOG_INTERACTION
 31: 0x088D [0x1D] PRINT_EVENT_MESSAGE(message_id=7904*)
    → "Tell him to stay out of the castle baileys. That's where Marquis Andrealphus can be found."
 32: 0x0890 [0x23] WAIT_FOR_DIALOG_INTERACTION
 33: 0x0891 [0x29] REQ_SET_WAIT(priority=0x08, entity_id=Koblakiq (ID: 16822508/0x0100B0EC), tag_num=0x10)
 34: 0x0898 [0x20] SET_CLI_EVENT_UC_FLAG: Unlock player control
 35: 0x089A [0x21] END_EVENT
 36: 0x089B [0x00] END_REQSTACK()
```

### Event 25

#### Metadata

| Field        | Value    |
|--------------|----------|
| Entrypoint   | 0x089C   |
| Data Size    | 33 bytes |
| Instructions | 12       |

```
      00 01 02 03 04 05 06 07  08 09 0A 0B 0C 0D 0E 0F
      -- -- -- -- -- -- -- --  -- -- -- -- -- -- -- --
0890:                                      1E F0 FF FF              ....
08A0: 7F 6F 70 29 08 EC B0 00  01 0F 1D 4A 80 23 1D 4C  .op).......J.#.L
08B0: 80 23 29 08 EC B0 00 01  10 20 00 21 00           .#)...... .!.   
```

#### Opcodes

```
  0: 0x089C [0x1E] EventEntity looks at LocalPlayer and starts talking
  1: 0x08A1 [0x6F] WAIT_FRAME_DELAY: Yield until WaitTime reaches zero
  2: 0x08A2 [0x70] WAIT_ENTITY_RENDER_FLAG: Wait while EventEntity->Render.Flags3 bit 2 is set (cancel turn if not)
  3: 0x08A3 [0x29] REQ_SET_WAIT(priority=0x08, entity_id=Koblakiq (ID: 16822508/0x0100B0EC), tag_num=0x0F)
  4: 0x08AA [0x1D] PRINT_EVENT_MESSAGE(message_id=7902*)
    → "If this marquis discovers Zeelozok wandering around Castle Zvahl, Promathia only knows what he'll do to my brother!"
  5: 0x08AD [0x23] WAIT_FOR_DIALOG_INTERACTION
  6: 0x08AE [0x1D] PRINT_EVENT_MESSAGE(message_id=7904*)
    → "Tell him to stay out of the castle baileys. That's where Marquis Andrealphus can be found."
  7: 0x08B1 [0x23] WAIT_FOR_DIALOG_INTERACTION
  8: 0x08B2 [0x29] REQ_SET_WAIT(priority=0x08, entity_id=Koblakiq (ID: 16822508/0x0100B0EC), tag_num=0x10)
  9: 0x08B9 [0x20] SET_CLI_EVENT_UC_FLAG: Unlock player control
 10: 0x08BB [0x21] END_EVENT
 11: 0x08BC [0x00] END_REQSTACK()
```

### Event 26

#### Metadata

| Field        | Value   |
|--------------|---------|
| Entrypoint   | 0x08BD  |
| Data Size    | 1 bytes |
| Instructions | 1       |

```
      00 01 02 03 04 05 06 07  08 09 0A 0B 0C 0D 0E 0F
      -- -- -- -- -- -- -- --  -- -- -- -- -- -- -- --
08B0:                                         00                     .  
```

#### Opcodes

```
  0: 0x08BD [0x00] END_REQSTACK()
```

### Event 65535.42

#### Metadata

| Field        | Value    |
|--------------|----------|
| Entrypoint   | 0x08BE   |
| Data Size    | 15 bytes |
| Instructions | 5        |

```
      00 01 02 03 04 05 06 07  08 09 0A 0B 0C 0D 0E 0F
      -- -- -- -- -- -- -- --  -- -- -- -- -- -- -- --
08B0:                                            32 4D                2M
08C0: 80 1F 00 4E 80 4F 80 50  80 1F 01 6F 00           ...N.O.P...o.   
```

#### Opcodes

```
  0: 0x08BE [0x32] ExtData[1]->MainSpeed = 40* * 0.1
  1: 0x08C1 [0x1F] MOVE_ENTITY: EventEntity moves to X=-68.909*, Z=-116.613*, Y=22.834*
  2: 0x08C9 [0x1F] MOVE_ENTITY: Update entity position (mode=1)
  3: 0x08CB [0x6F] WAIT_FRAME_DELAY: Yield until WaitTime reaches zero
  4: 0x08CC [0x00] END_REQSTACK()
```

### Event 65535.43

#### Metadata

| Field        | Value    |
|--------------|----------|
| Entrypoint   | 0x08CD   |
| Data Size    | 15 bytes |
| Instructions | 5        |

```
      00 01 02 03 04 05 06 07  08 09 0A 0B 0C 0D 0E 0F
      -- -- -- -- -- -- -- --  -- -- -- -- -- -- -- --
08C0:                                         32 51 80               2Q.
08D0: 1F 00 52 80 53 80 50 80  1F 01 6F 00              ..R.S.P...o.    
```

#### Opcodes

```
  0: 0x08CD [0x32] ExtData[1]->MainSpeed = 13* * 0.1
  1: 0x08D0 [0x1F] MOVE_ENTITY: EventEntity moves to X=-67.496*, Z=-117.784*, Y=22.834*
  2: 0x08D8 [0x1F] MOVE_ENTITY: Update entity position (mode=1)
  3: 0x08DA [0x6F] WAIT_FRAME_DELAY: Yield until WaitTime reaches zero
  4: 0x08DB [0x00] END_REQSTACK()
```

### Event 27

#### Metadata

| Field        | Value    |
|--------------|----------|
| Entrypoint   | 0x08DC   |
| Data Size    | 33 bytes |
| Instructions | 12       |

```
      00 01 02 03 04 05 06 07  08 09 0A 0B 0C 0D 0E 0F
      -- -- -- -- -- -- -- --  -- -- -- -- -- -- -- --
08D0:                                      1E F0 FF FF              ....
08E0: 7F 6F 70 29 08 EC B0 00  01 03 1D 54 80 23 1D 55  .op).......T.#.U
08F0: 80 23 29 08 EC B0 00 01  04 20 00 21 00           .#)...... .!.   
```

#### Opcodes

```
  0: 0x08DC [0x1E] EventEntity looks at LocalPlayer and starts talking
  1: 0x08E1 [0x6F] WAIT_FRAME_DELAY: Yield until WaitTime reaches zero
  2: 0x08E2 [0x70] WAIT_ENTITY_RENDER_FLAG: Wait while EventEntity->Render.Flags3 bit 2 is set (cancel turn if not)
  3: 0x08E3 [0x29] REQ_SET_WAIT(priority=0x08, entity_id=Koblakiq (ID: 16822508/0x0100B0EC), tag_num=0x03)
  4: 0x08EA [0x1D] PRINT_EVENT_MESSAGE(message_id=7923*)
    → "The warp caverns are open areas left in the tunnels we collapse behind us. They're all linked together like one big chain."
  5: 0x08ED [0x23] WAIT_FOR_DIALOG_INTERACTION
  6: 0x08EE [0x1D] PRINT_EVENT_MESSAGE(message_id=7924*)
    → "With a Moblin earplug, you can find the entrances to the warp caverns. Makes traveling easy. Only we Moblins know they exist."
  7: 0x08F1 [0x23] WAIT_FOR_DIALOG_INTERACTION
  8: 0x08F2 [0x29] REQ_SET_WAIT(priority=0x08, entity_id=Koblakiq (ID: 16822508/0x0100B0EC), tag_num=0x04)
  9: 0x08F9 [0x20] SET_CLI_EVENT_UC_FLAG: Unlock player control
 10: 0x08FB [0x21] END_EVENT
 11: 0x08FC [0x00] END_REQSTACK()
```
