# 16822554

## Common Data

| Field            | Value                      |
|------------------|----------------------------|
| Zone             | Oldton Movalpolos (ID: 11) |
| Block Size       | 12308 bytes                |
| Total Events     | 8                          |
| References Count | 191                        |

## List of Events

| Event ID              | Entrypoint   |   Size |   Instructions |
|-----------------------|--------------|--------|----------------|
| [65535](#event-65535) | 0x0000       |    658 |             62 |
| [67](#event-67)       | 0x0292       |   1169 |            161 |
| [68](#event-68)       | 0x0723       |    101 |             18 |
| [69](#event-69)       | 0x0788       |   1505 |            209 |
| [70](#event-70)       | 0x0D69       |   3224 |            447 |
| [71](#event-71)       | 0x1A01       |    162 |             26 |
| [72](#event-72)       | 0x1AA3       |   4492 |            588 |
| [73](#event-73)       | 0x2C2F       |    184 |             29 |

## DAT References (imed_data)

|   Index | Hex Value   |   Dec Value |
|---------|-------------|-------------|
|       0 | 0x00C8      |         200 |
|       1 | 0x0000      |           0 |
|       2 | 0x00C9      |         201 |
|       3 | 0x0001      |           1 |
|       4 | 0x002D      |          45 |
|       5 | 0x0002      |           2 |
|       6 | 0x001E      |          30 |
|       7 | 0x00D7      |         215 |
|       8 | 0x012C      |         300 |
|       9 | 0x0093      |         147 |
|      10 | 0x27480     |      160896 |
|      11 | 0xFFFF2695  |  4294911637 |
|      12 | 0x2EDF      |       11999 |
|      13 | 0x0C00      |        3072 |
|      14 | 0x282FD     |      164605 |
|      15 | 0xFFFE9B8B  |  4294876043 |
|      16 | 0x2ED8      |       11992 |
|      17 | 0x05BE      |        1470 |
|      18 | 0x26693     |      157331 |
|      19 | 0xFFFF6078  |  4294926456 |
|      20 | 0x36AF      |       13999 |
|      21 | 0x08FE      |        2302 |
|      22 | 0x220F6     |      139510 |
|      23 | 0xFFFF10B0  |  4294906032 |
|      24 | 0x2F16      |       12054 |
|      25 | 0x0FE5      |        4069 |
|      26 | 0x26C5E     |      158814 |
|      27 | 0xFFFF1B42  |  4294908738 |
|      28 | 0x0DF7      |        3575 |
|      29 | 0x0020      |          32 |
|      30 | 0x007F      |         127 |
|      31 | 0x0005      |           5 |
|      32 | 0x03A4      |         932 |
|      33 | 0x0006      |           6 |
|      34 | 0x1FD6      |        8150 |
|      35 | 0x1FD7      |        8151 |
|      36 | 0x1FD8      |        8152 |
|      37 | 0x1FD9      |        8153 |
|      38 | 0x1FDA      |        8154 |
|      39 | 0x1FDB      |        8155 |
|      40 | 0x0007      |           7 |
|      41 | 0x003C      |          60 |
|      42 | 0x1FDC      |        8156 |
|      43 | 0x1FDD      |        8157 |
|      44 | 0x0080      |         128 |
|      45 | 0x1FDE      |        8158 |
|      46 | 0x1FDF      |        8159 |
|      47 | 0x1FE0      |        8160 |
|      48 | 0x00DD      |         221 |
|      49 | 0x000F      |          15 |
|      50 | 0x022C      |         556 |
|      51 | 0x1FE1      |        8161 |
|      52 | 0x1FE2      |        8162 |
|      53 | 0x1FE3      |        8163 |
|      54 | 0x28EFC     |      167676 |
|      55 | 0xFFFF5196  |  4294922646 |
|      56 | 0x36AC      |       13996 |
|      57 | 0x03FA      |        1018 |
|      58 | 0x0019      |          25 |
|      59 | 0x1FE4      |        8164 |
|      60 | 0x1FE5      |        8165 |
|      61 | 0x1FE6      |        8166 |
|      62 | 0x1FE7      |        8167 |
|      63 | 0x1FE8      |        8168 |
|      64 | 0x1FE9      |        8169 |
|      65 | 0x1FEA      |        8170 |
|      66 | 0x1FEB      |        8171 |
|      67 | 0x1FEC      |        8172 |
|      68 | 0x1FED      |        8173 |
|      69 | 0x005A      |          90 |
|      70 | 0x1FEE      |        8174 |
|      71 | 0x1FEF      |        8175 |
|      72 | 0x1FF0      |        8176 |
|      73 | 0x27BDE     |      162782 |
|      74 | 0xFFFF21A5  |  4294910373 |
|      75 | 0x0E3B      |        3643 |
|      76 | 0x25329     |      152361 |
|      77 | 0xFFFF1619  |  4294907417 |
|      78 | 0x2EA5      |       11941 |
|      79 | 0x0118      |         280 |
|      80 | 0x2484E     |      149582 |
|      81 | 0xFFFF0DF3  |  4294905331 |
|      82 | 0x27329     |      160553 |
|      83 | 0xFFFF19D9  |  4294908377 |
|      84 | 0x001F      |          31 |
|      85 | 0x1FF3      |        8179 |
|      86 | 0x0028      |          40 |
|      87 | 0x1FF4      |        8180 |
|      88 | 0x0DAC      |        3500 |
|      89 | 0x1FF5      |        8181 |
|      90 | 0x1FF6      |        8182 |
|      91 | 0x1FF7      |        8183 |
|      92 | 0x1FF8      |        8184 |
|      93 | 0x0014      |          20 |
|      94 | 0x1FF9      |        8185 |
|      95 | 0x1FFA      |        8186 |
|      96 | 0x1FFB      |        8187 |
|      97 | 0x1FFC      |        8188 |
|      98 | 0x1FFD      |        8189 |
|      99 | 0x1FFE      |        8190 |
|     100 | 0x1FFF      |        8191 |
|     101 | 0x2000      |        8192 |
|     102 | 0x2001      |        8193 |
|     103 | 0x2002      |        8194 |
|     104 | 0x2003      |        8195 |
|     105 | 0x2004      |        8196 |
|     106 | 0x0064      |         100 |
|     107 | 0x0800      |        2048 |
|     108 | 0x2005      |        8197 |
|     109 | 0x0003      |           3 |
|     110 | 0x0008      |           8 |
|     111 | 0x2006      |        8198 |
|     112 | 0x2007      |        8199 |
|     113 | 0x062B      |        1579 |
|     114 | 0x032B      |         811 |
|     115 | 0x002B      |          43 |
|     116 | 0x042B      |        1067 |
|     117 | 0x012B      |         299 |
|     118 | 0x052B      |        1323 |
|     119 | 0x022B      |         555 |
|     120 | 0x001C      |          28 |
|     121 | 0x2008      |        8200 |
|     122 | 0x0015      |          21 |
|     123 | 0x2009      |        8201 |
|     124 | 0x200A      |        8202 |
|     125 | 0x200B      |        8203 |
|     126 | 0x200C      |        8204 |
|     127 | 0x200D      |        8205 |
|     128 | 0x200E      |        8206 |
|     129 | 0x200F      |        8207 |
|     130 | 0x0246      |         582 |
|     131 | 0x1FF1      |        8177 |
|     132 | 0x1FF2      |        8178 |
|     133 | 0x024A      |         586 |
|     134 | 0x2010      |        8208 |
|     135 | 0x2011      |        8209 |
|     136 | 0x27191     |      160145 |
|     137 | 0xFFFF190D  |  4294908173 |
|     138 | 0x0D71      |        3441 |
|     139 | 0x03AA      |         938 |
|     140 | 0x2012      |        8210 |
|     141 | 0x2013      |        8211 |
|     142 | 0x2014      |        8212 |
|     143 | 0x2015      |        8213 |
|     144 | 0x2016      |        8214 |
|     145 | 0x2017      |        8215 |
|     146 | 0x0032      |          50 |
|     147 | 0x000D      |          13 |
|     148 | 0x00FF      |         255 |
|     149 | 0xFFF8D90D  |  4294498573 |
|     150 | 0x4EBC      |       20156 |
|     151 | 0x1DC8F     |      121999 |
|     152 | 0x0AB6      |        2742 |
|     153 | 0xFFF8D0F7  |  4294496503 |
|     154 | 0x4EBE      |       20158 |
|     155 | 0x0B00      |        2816 |
|     156 | 0xFFF8EB07  |  4294503175 |
|     157 | 0x2EC8      |       11976 |
|     158 | 0x2032      |        8242 |
|     159 | 0x0078      |         120 |
|     160 | 0x2018      |        8216 |
|     161 | 0x2019      |        8217 |
|     162 | 0x201A      |        8218 |
|     163 | 0x201B      |        8219 |
|     164 | 0x201C      |        8220 |
|     165 | 0x201F      |        8223 |
|     166 | 0x0113      |         275 |
|     167 | 0x2020      |        8224 |
|     168 | 0x201D      |        8221 |
|     169 | 0x201E      |        8222 |
|     170 | 0x0024      |          36 |
|     171 | 0x2021      |        8225 |
|     172 | 0x2022      |        8226 |
|     173 | 0x2023      |        8227 |
|     174 | 0x2024      |        8228 |
|     175 | 0x2025      |        8229 |
|     176 | 0x2026      |        8230 |
|     177 | 0x2027      |        8231 |
|     178 | 0x2028      |        8232 |
|     179 | 0x06E9      |        1769 |
|     180 | 0x0004      |           4 |
|     181 | 0x2029      |        8233 |
|     182 | 0x202A      |        8234 |
|     183 | 0x202B      |        8235 |
|     184 | 0x202C      |        8236 |
|     185 | 0x202D      |        8237 |
|     186 | 0x000B      |          11 |
|     187 | 0x202E      |        8238 |
|     188 | 0x202F      |        8239 |
|     189 | 0x2030      |        8240 |
|     190 | 0x2031      |        8241 |

## String References

- **8173**: Is it okay? [Yes, it's fine./No, probably not./I'm not sure.]
- **8199**: How do you respond? [<Player>!/...]
- **8220**: Did you come to see Boudox? [Yes./No, not really.]
- **8242**: @@

## Events

### Event 65535

#### Metadata

| Field        | Value     |
|--------------|-----------|
| Entrypoint   | 0x0000    |
| Data Size    | 658 bytes |
| Instructions | 1         |

```
      00 01 02 03 04 05 06 07  08 09 0A 0B 0C 0D 0E 0F
      -- -- -- -- -- -- -- --  -- -- -- -- -- -- -- --
0000: 00 45 00 80 F0 FF FF 7F  F0 FF FF 7F 66 64 69 30  .E..........fdi0
0010: 01 80 55 00 80 F0 FF FF  7F F0 FF FF 7F 66 64 69  ..U..........fdi
0020: 30 1B 45 00 80 F0 FF FF  7F F0 FF FF 7F 66 64 6F  0.E..........fdo
0030: 30 01 80 55 00 80 F0 FF  FF 7F F0 FF FF 7F 66 64  0..U..........fd
0040: 6F 30 1B 45 00 80 F0 FF  FF 7F F0 FF FF 7F 66 64  o0.E..........fd
0050: 69 31 01 80 55 00 80 F0  FF FF 7F F0 FF FF 7F 66  i1..U..........f
0060: 64 69 31 1B 45 00 80 F0  FF FF 7F F0 FF FF 7F 66  di1.E..........f
0070: 64 6F 31 01 80 55 00 80  F0 FF FF 7F F0 FF FF 7F  do1..U..........
0080: 66 64 6F 31 1B 45 02 80  F0 FF FF 7F F0 FF FF 7F  fdo1.E..........
0090: 77 68 69 31 01 80 55 02  80 F0 FF FF 7F F0 FF FF  whi1..U.........
00A0: 7F 77 68 69 31 1B 45 02  80 F0 FF FF 7F F0 FF FF  .whi1.E.........
00B0: 7F 77 68 6F 31 01 80 55  02 80 F0 FF FF 7F F0 FF  .who1..U........
00C0: FF 7F 77 68 6F 31 1B 45  02 80 F0 FF FF 7F F0 FF  ..who1.E........
00D0: FF 7F 77 68 6F 32 01 80  55 02 80 F0 FF FF 7F F0  ..who2..U.......
00E0: FF FF 7F 77 68 6F 32 1B  45 02 80 F0 FF FF 7F F0  ...who2.E.......
00F0: FF FF 7F 77 68 6F 33 01  80 55 02 80 F0 FF FF 7F  ...who3..U......
0100: F0 FF FF 7F 77 68 6F 33  1B 62 03 80 F0 FF FF 7F  ....who3.b......
0110: F0 FF FF 7F 6D 61 69 6E  01 80 1C 04 80 45 00 80  ....main.....E..
0120: F0 FF FF 7F F0 FF FF 7F  66 64 6F 31 01 80 55 00  ........fdo1..U.
0130: 80 F0 FF FF 7F F0 FF FF  7F 66 64 6F 31 1B 45 00  .........fdo1.E.
0140: 80 F0 FF FF 7F F0 FF FF  7F 66 64 69 31 01 80 62  .........fdi1..b
0150: 05 80 F0 FF FF 7F F0 FF  FF 7F 6D 61 69 6E 01 80  ..........main..
0160: 1C 06 80 55 00 80 F0 FF  FF 7F F0 FF FF 7F 66 64  ...U..........fd
0170: 69 31 1B 45 00 80 F0 FF  FF 7F F0 FF FF 7F 62 6C  i1.E..........bl
0180: 6F 6E 01 80 45 02 80 F0  FF FF 7F F0 FF FF 7F 62  on..E..........b
0190: 6C 6F 6E 01 80 1B 45 02  80 F0 FF FF 7F F0 FF FF  lon...E.........
01A0: 7F 77 68 69 30 01 80 55  02 80 F0 FF FF 7F F0 FF  .whi0..U........
01B0: FF 7F 77 68 69 30 1B 45  02 80 F0 FF FF 7F F0 FF  ..whi0.E........
01C0: FF 7F 77 68 6F 30 01 80  55 02 80 F0 FF FF 7F F0  ..who0..U.......
01D0: FF FF 7F 77 68 6F 30 1B  45 07 80 F0 FF FF 7F F0  ...who0.E.......
01E0: FF FF 7F 65 66 6F 6E 01  80 55 07 80 F0 FF FF 7F  ...efon..U......
01F0: F0 FF FF 7F 65 66 6F 6E  1B 45 00 80 F0 FF FF 7F  ....efon.E......
0200: F0 FF FF 7F 66 64 69 73  01 80 1B 45 00 80 F0 FF  ....fdis...E....
0210: FF 7F F0 FF FF 7F 66 64  6F 73 01 80 55 00 80 F0  ......fdos..U...
0220: FF FF 7F F0 FF FF 7F 66  64 6F 73 1B 45 00 80 F0  .......fdos.E...
0230: FF FF 7F F0 FF FF 7F 66  64 69 66 01 80 1B 45 00  .......fdif...E.
0240: 80 F0 FF FF 7F F0 FF FF  7F 66 64 6F 66 01 80 55  .........fdof..U
0250: 00 80 F0 FF FF 7F F0 FF  FF 7F 66 64 6F 66 1B 45  ..........fdof.E
0260: 00 80 F0 FF FF 7F F0 FF  FF 7F 66 64 69 70 01 80  ..........fdip..
0270: 1B 45 00 80 F0 FF FF 7F  F0 FF FF 7F 66 64 6F 70  .E..........fdop
0280: 01 80 55 00 80 F0 FF FF  7F F0 FF FF 7F 66 64 6F  ..U..........fdo
0290: 70 1B                                             p.              
```

#### Opcodes

```
  0: 0x0000 [0x00] END_REQSTACK()
```

#### Data or dead code:

```
# Dead code (unreachable instructions):
     0x0001 [0x45] LOAD_SCHEDULED_TASK: Load scheduler "fdi0" with entities [LocalPlayer, LocalPlayer], work=[200*, 0*]
     0x0012 [0x55] WAIT_LOAD_SCHEDULER: Wait for scheduler "fdi0" with entities [LocalPlayer, LocalPlayer], work=200*
     0x0021 [0x1B] RETURN
     0x0022 [0x45] LOAD_SCHEDULED_TASK: Load scheduler "fdo0" with entities [LocalPlayer, LocalPlayer], work=[200*, 0*]
     0x0033 [0x55] WAIT_LOAD_SCHEDULER: Wait for scheduler "fdo0" with entities [LocalPlayer, LocalPlayer], work=200*
     0x0042 [0x1B] RETURN
     0x0043 [0x45] LOAD_SCHEDULED_TASK: Load scheduler "fdi1" with entities [LocalPlayer, LocalPlayer], work=[200*, 0*]
     0x0054 [0x55] WAIT_LOAD_SCHEDULER: Wait for scheduler "fdi1" with entities [LocalPlayer, LocalPlayer], work=200*
     0x0063 [0x1B] RETURN
     0x0064 [0x45] LOAD_SCHEDULED_TASK: Load scheduler "fdo1" with entities [LocalPlayer, LocalPlayer], work=[200*, 0*]
     0x0075 [0x55] WAIT_LOAD_SCHEDULER: Wait for scheduler "fdo1" with entities [LocalPlayer, LocalPlayer], work=200*
     0x0084 [0x1B] RETURN
     0x0085 [0x45] LOAD_SCHEDULED_TASK: Load scheduler "whi1" with entities [LocalPlayer, LocalPlayer], work=[201*, 0*]
     0x0096 [0x55] WAIT_LOAD_SCHEDULER: Wait for scheduler "whi1" with entities [LocalPlayer, LocalPlayer], work=201*
     0x00A5 [0x1B] RETURN
     0x00A6 [0x45] LOAD_SCHEDULED_TASK: Load scheduler "who1" with entities [LocalPlayer, LocalPlayer], work=[201*, 0*]
     0x00B7 [0x55] WAIT_LOAD_SCHEDULER: Wait for scheduler "who1" with entities [LocalPlayer, LocalPlayer], work=201*
     0x00C6 [0x1B] RETURN
     0x00C7 [0x45] LOAD_SCHEDULED_TASK: Load scheduler "who2" with entities [LocalPlayer, LocalPlayer], work=[201*, 0*]
     0x00D8 [0x55] WAIT_LOAD_SCHEDULER: Wait for scheduler "who2" with entities [LocalPlayer, LocalPlayer], work=201*
     0x00E7 [0x1B] RETURN
     0x00E8 [0x45] LOAD_SCHEDULED_TASK: Load scheduler "who3" with entities [LocalPlayer, LocalPlayer], work=[201*, 0*]
     0x00F9 [0x55] WAIT_LOAD_SCHEDULER: Wait for scheduler "who3" with entities [LocalPlayer, LocalPlayer], work=201*
     0x0108 [0x1B] RETURN
     0x0109 [0x62] LOAD_EVENT_SCHEDULER: Load scheduler "main" with entities [LocalPlayer, LocalPlayer], work=[1*, 0*]
     0x011A [0x1C] WAIT(45* ticks)
     0x011D [0x45] LOAD_SCHEDULED_TASK: Load scheduler "fdo1" with entities [LocalPlayer, LocalPlayer], work=[200*, 0*]
     0x012E [0x55] WAIT_LOAD_SCHEDULER: Wait for scheduler "fdo1" with entities [LocalPlayer, LocalPlayer], work=200*
     0x013D [0x1B] RETURN
     0x013E [0x45] LOAD_SCHEDULED_TASK: Load scheduler "fdi1" with entities [LocalPlayer, LocalPlayer], work=[200*, 0*]
     0x014F [0x62] LOAD_EVENT_SCHEDULER: Load scheduler "main" with entities [LocalPlayer, LocalPlayer], work=[2*, 0*]
     0x0160 [0x1C] WAIT(30* ticks)
     0x0163 [0x55] WAIT_LOAD_SCHEDULER: Wait for scheduler "fdi1" with entities [LocalPlayer, LocalPlayer], work=200*
     0x0172 [0x1B] RETURN
     0x0173 [0x45] LOAD_SCHEDULED_TASK: Load scheduler "blon" with entities [LocalPlayer, LocalPlayer], work=[200*, 0*]
     0x0184 [0x45] LOAD_SCHEDULED_TASK: Load scheduler "blon" with entities [LocalPlayer, LocalPlayer], work=[201*, 0*]
     0x0195 [0x1B] RETURN
     0x0196 [0x45] LOAD_SCHEDULED_TASK: Load scheduler "whi0" with entities [LocalPlayer, LocalPlayer], work=[201*, 0*]
     0x01A7 [0x55] WAIT_LOAD_SCHEDULER: Wait for scheduler "whi0" with entities [LocalPlayer, LocalPlayer], work=201*
     0x01B6 [0x1B] RETURN
     0x01B7 [0x45] LOAD_SCHEDULED_TASK: Load scheduler "who0" with entities [LocalPlayer, LocalPlayer], work=[201*, 0*]
     0x01C8 [0x55] WAIT_LOAD_SCHEDULER: Wait for scheduler "who0" with entities [LocalPlayer, LocalPlayer], work=201*
     0x01D7 [0x1B] RETURN
     0x01D8 [0x45] LOAD_SCHEDULED_TASK: Load scheduler "efon" with entities [LocalPlayer, LocalPlayer], work=[215*, 0*]
     0x01E9 [0x55] WAIT_LOAD_SCHEDULER: Wait for scheduler "efon" with entities [LocalPlayer, LocalPlayer], work=215*
     0x01F8 [0x1B] RETURN
     0x01F9 [0x45] LOAD_SCHEDULED_TASK: Load scheduler "fdis" with entities [LocalPlayer, LocalPlayer], work=[200*, 0*]
     0x020A [0x1B] RETURN
     0x020B [0x45] LOAD_SCHEDULED_TASK: Load scheduler "fdos" with entities [LocalPlayer, LocalPlayer], work=[200*, 0*]
     0x021C [0x55] WAIT_LOAD_SCHEDULER: Wait for scheduler "fdos" with entities [LocalPlayer, LocalPlayer], work=200*
     0x022B [0x1B] RETURN
     0x022C [0x45] LOAD_SCHEDULED_TASK: Load scheduler "fdif" with entities [LocalPlayer, LocalPlayer], work=[200*, 0*]
     0x023D [0x1B] RETURN
     0x023E [0x45] LOAD_SCHEDULED_TASK: Load scheduler "fdof" with entities [LocalPlayer, LocalPlayer], work=[200*, 0*]
     0x024F [0x55] WAIT_LOAD_SCHEDULER: Wait for scheduler "fdof" with entities [LocalPlayer, LocalPlayer], work=200*
     0x025E [0x1B] RETURN
     0x025F [0x45] LOAD_SCHEDULED_TASK: Load scheduler "fdip" with entities [LocalPlayer, LocalPlayer], work=[200*, 0*]
     0x0270 [0x1B] RETURN
     0x0271 [0x45] LOAD_SCHEDULED_TASK: Load scheduler "fdop" with entities [LocalPlayer, LocalPlayer], work=[200*, 0*]
     0x0282 [0x55] WAIT_LOAD_SCHEDULER: Wait for scheduler "fdop" with entities [LocalPlayer, LocalPlayer], work=200*
     0x0291 [0x1B] RETURN
```

### Event 67

#### Metadata

| Field        | Value      |
|--------------|------------|
| Entrypoint   | 0x0292     |
| Data Size    | 1169 bytes |
| Instructions | 161        |

```
      00 01 02 03 04 05 06 07  08 09 0A 0B 0C 0D 0E 0F
      -- -- -- -- -- -- -- --  -- -- -- -- -- -- -- --
0290:       42 5D 01 80 08 80  1A 64 00 46 01 38 09 80    B].....d.F.8..
02A0: 2F 00 1B B1 00 01 4E 00  1B B1 00 01 92 01 D9 B0  /.....N.........
02B0: 00 01 92 01 E1 B0 00 01  92 01 E5 B0 00 01 94 01  ................
02C0: D9 B0 00 01 94 01 E1 B0  00 01 94 01 E5 B0 00 01  ................
02D0: 94 01 1B B1 00 01 94 01  F0 FF FF 7F BA D9 B0 00  ................
02E0: 01 0A 80 0B 80 0C 80 0D  80 BA E1 B0 00 01 0E 80  ................
02F0: 0F 80 10 80 11 80 BA E5  B0 00 01 12 80 13 80 14  ................
0300: 80 15 80 BA 1B B1 00 01  16 80 17 80 18 80 19 80  ................
0310: BA F0 FF FF 7F 1A 80 1B  80 0C 80 1C 80 80 D9 B0  ................
0320: 00 01 80 E1 B0 00 01 80  E5 B0 00 01 80 1B B1 00  ................
0330: 01 80 F0 FF FF 7F 4A D9  B0 00 01 F0 FF FF 7F 4A  ......J........J
0340: F0 FF FF 7F D9 B0 00 01  6F 76 D9 B0 00 01 6F 76  ........ov....ov
0350: F0 FF FF 7F 29 0F F0 FF  FF 7F 06 2C 1B B1 00 01  ....)......,....
0360: 1B B1 00 01 77 70 6F 66  6C 1B B1 00 01 01 80 03  ....wpofl.......
0370: 80 5C 00 1D 80 5C 01 1D  80 9A 5D 1E 80 03 80 02  .\...\....].....
0380: 09 10 1F 80 00 9B 03 45  20 80 F8 FF FF 7F F8 FF  .......E .......
0390: FF 7F 73 30 31 39 01 80  01 C8 03 02 09 10 21 80  ..s019........!.
03A0: 00 B7 03 45 20 80 F8 FF  FF 7F F8 FF FF 7F 73 30  ...E .........s0
03B0: 31 39 01 80 01 C8 03 45  20 80 F8 FF FF 7F F8 FF  19.....E .......
03C0: FF 7F 73 30 31 32 01 80  1A 43 00 29 0F D9 B0 00  ..s012...C.)....
03D0: 01 10 2B D9 B0 00 01 22  80 23 2B D9 B0 00 01 23  ..+....".#+....#
03E0: 80 23 29 0F D9 B0 00 01  11 02 09 10 1F 80 00 03  .#).............
03F0: 04 52 20 80 F8 FF FF 7F  F8 FF FF 7F 73 30 31 39  .R .........s019
0400: 01 2C 04 02 09 10 21 80  00 1D 04 52 20 80 F8 FF  .,....!....R ...
0410: FF 7F F8 FF FF 7F 73 30  31 39 01 2C 04 52 20 80  ......s019.,.R .
0420: F8 FF FF 7F F8 FF FF 7F  73 30 31 32 45 20 80 F8  ........s012E ..
0430: FF FF 7F F8 FF FF 7F 73  30 31 33 01 80 29 0F D9  .......s013..)..
0440: B0 00 01 12 2B D9 B0 00  01 24 80 23 29 0F D9 B0  ....+....$.#)...
0450: 00 01 13 29 0F D9 B0 00  01 2C 2B D9 B0 00 01 25  ...).....,+....%
0460: 80 23 52 20 80 F8 FF FF  7F F8 FF FF 7F 73 30 31  .#R .........s01
0470: 33 02 09 10 1F 80 00 8D  04 45 20 80 F8 FF FF 7F  3........E .....
0480: F8 FF FF 7F 73 30 32 30  01 80 01 BA 04 02 09 10  ....s020........
0490: 21 80 00 A9 04 45 20 80  F8 FF FF 7F F8 FF FF 7F  !....E .........
04A0: 73 30 32 30 01 80 01 BA  04 45 20 80 F8 FF FF 7F  s020.....E .....
04B0: F8 FF FF 7F 73 30 31 34  01 80 2B D9 B0 00 01 26  ....s014..+....&
04C0: 80 23 29 0F D9 B0 00 01  2D 29 0F D9 B0 00 01 2E  .#).....-)......
04D0: 2B D9 B0 00 01 27 80 23  29 0F D9 B0 00 01 2F 6E  +....'.#)...../n
04E0: F0 FF FF 7F 28 80 99 F0  FF FF 7F 1C 29 80 02 09  ....(.......)...
04F0: 10 1F 80 00 08 05 52 20  80 F8 FF FF 7F F8 FF FF  ......R ........
0500: 7F 73 30 32 30 01 31 05  02 09 10 21 80 00 22 05  .s020.1....!..".
0510: 52 20 80 F8 FF FF 7F F8  FF FF 7F 73 30 32 30 01  R .........s020.
0520: 31 05 52 20 80 F8 FF FF  7F F8 FF FF 7F 73 30 31  1.R .........s01
0530: 34 45 20 80 F8 FF FF 7F  F8 FF FF 7F 73 30 31 33  4E .........s013
0540: 01 80 29 0F D9 B0 00 01  26 2B D9 B0 00 01 2A 80  ..).....&+....*.
0550: 23 2B D9 B0 00 01 2B 80  23 29 0F D9 B0 00 01 27  #+....+.#).....'
0560: 6C 1B B1 00 01 2C 80 03  80 1C 03 80 27 0F 1B B1  l....,......'...
0570: 00 01 4C 1C 03 80 5D 01  80 08 80 52 20 80 F8 FF  ..L...]....R ...
0580: FF 7F F8 FF FF 7F 73 30  31 33 45 20 80 F8 FF FF  ......s013E ....
0590: 7F F8 FF FF 7F 73 30 31  35 01 80 29 0F D9 B0 00  .....s015..)....
05A0: 01 28 29 0F D9 B0 00 01  29 4A D9 B0 00 01 1B B1  .().....)J......
05B0: 00 01 6F 76 D9 B0 00 01  29 0F D9 B0 00 01 22 2B  ..ov....)....."+
05C0: D9 B0 00 01 2D 80 1C 06  80 4A F0 FF FF 7F 1B B1  ....-....J......
05D0: 00 01 6F 76 F0 FF FF 7F  52 20 80 F8 FF FF 7F F8  ..ov....R ......
05E0: FF FF 7F 73 30 31 35 45  20 80 F8 FF FF 7F F8 FF  ...s015E .......
05F0: FF 7F 73 30 31 36 01 80  23 29 0F D9 B0 00 01 23  ..s016..#).....#
0600: 29 0F D9 B0 00 01 24 1C  06 80 1C 06 80 52 20 80  ).....$......R .
0610: F8 FF FF 7F F8 FF FF 7F  73 30 31 36 02 09 10 1F  ........s016....
0620: 80 00 38 06 45 20 80 F8  FF FF 7F F8 FF FF 7F 73  ..8.E .........s
0630: 30 32 31 01 80 01 65 06  02 09 10 21 80 00 54 06  021...e....!..T.
0640: 45 20 80 F8 FF FF 7F F8  FF FF 7F 73 30 32 31 01  E .........s021.
0650: 80 01 65 06 45 20 80 F8  FF FF 7F F8 FF FF 7F 73  ..e.E .........s
0660: 30 31 37 01 80 2B D9 B0  00 01 2E 80 23 02 09 10  017..+......#...
0670: 1F 80 00 87 06 52 20 80  F8 FF FF 7F F8 FF FF 7F  .....R .........
0680: 73 30 32 31 01 B0 06 02  09 10 21 80 00 A1 06 52  s021......!....R
0690: 20 80 F8 FF FF 7F F8 FF  FF 7F 73 30 32 31 01 B0   .........s021..
06A0: 06 52 20 80 F8 FF FF 7F  F8 FF FF 7F 73 30 31 37  .R .........s017
06B0: 45 20 80 F8 FF FF 7F F8  FF FF 7F 73 30 31 38 01  E .........s018.
06C0: 80 29 0F D9 B0 00 01 25  29 0F D9 B0 00 01 26 2B  .).....%).....&+
06D0: D9 B0 00 01 2F 80 23 1A  64 00 2A 0F 1B B1 00 01  ..../.#.d.*.....
06E0: 52 20 80 F8 FF FF 7F F8  FF FF 7F 73 30 31 38 29  R .........s018)
06F0: 0F D9 B0 00 01 27 5C 00  30 80 5C 01 30 80 9A 5D  .....'\.0.\.0..]
0700: 1E 80 03 80 1C 31 80 AB  11 01 80 1C 03 80 46 00  .....1........F.
0710: 45 00 80 F8 FF FF 7F F8  FF FF 7F 66 64 69 32 01  E..........fdi2.
0720: 80 21 00                                          .!.             
```

#### Opcodes

```
  0: 0x0292 [0x42] SET_CLI_EVENT_CANCEL_DATA()
  1: 0x0293 [0x5D] SET_MUSIC_VOLUME(volume=0*, fade_time=300*)
  2: 0x0298 [0x1A] CALL_SUBROUTINE(address=0x0064)
  3: 0x029B [0x46] CAMERA_CONTROL: Disable user control
  4: 0x029D [0x38] SET_CLIENT_EVENT_MODE(mode=147*)
  5: 0x02A0 [0x2F] Gloom Phantom (ID: 16822555/0x0100B11B)->Render.Flags0 &= ~0x80000 // Bit 19
  6: 0x02A6 [0x4E] SET_ENTITY_HIDE_FLAG: Show Gloom Phantom (ID: 16822555/0x0100B11B)
  7: 0x02AC [0x92] Tarnotik (ID: 16822489/0x0100B0D9)->Render.Flags3 ^= 0x01
  8: 0x02B2 [0x92] Brakobrik (ID: 16822497/0x0100B0E1)->Render.Flags3 ^= 0x01
  9: 0x02B8 [0x92] Rakorok (ID: 16822501/0x0100B0E5)->Render.Flags3 ^= 0x01
 10: 0x02BE [0x94] Tarnotik (ID: 16822489/0x0100B0D9)->Render.Flags3 ^= 0x01
 11: 0x02C4 [0x94] Brakobrik (ID: 16822497/0x0100B0E1)->Render.Flags3 ^= 0x01
 12: 0x02CA [0x94] Rakorok (ID: 16822501/0x0100B0E5)->Render.Flags3 ^= 0x01
 13: 0x02D0 [0x94] Gloom Phantom (ID: 16822555/0x0100B11B)->Render.Flags3 ^= 0x01
 14: 0x02D6 [0x94] LocalPlayer->Render.Flags3 ^= 0x01
 15: 0x02DC [0xBA] SET_ENTITY_POSITION(entity_id=Tarnotik (ID: 16822489/0x0100B0D9), pos_x=160.896*, pos_z=-55.659*, pos_y=11.999*, direction=270.0°*)
 16: 0x02E9 [0xBA] SET_ENTITY_POSITION(entity_id=Brakobrik (ID: 16822497/0x0100B0E1), pos_x=164.605*, pos_z=-91.253*, pos_y=11.992*, direction=129.2°*)
 17: 0x02F6 [0xBA] SET_ENTITY_POSITION(entity_id=Rakorok (ID: 16822501/0x0100B0E5), pos_x=157.331*, pos_z=-40.840*, pos_y=13.999*, direction=202.3°*)
 18: 0x0303 [0xBA] SET_ENTITY_POSITION(entity_id=Gloom Phantom (ID: 16822555/0x0100B11B), pos_x=139.510*, pos_z=-61.264*, pos_y=12.054*, direction=357.6°*)
 19: 0x0310 [0xBA] SET_ENTITY_POSITION(entity_id=LocalPlayer, pos_x=158.814*, pos_z=-58.558*, pos_y=11.999*, direction=314.2°*)
 20: 0x031D [0x80] LOAD_WAIT(entity=Tarnotik (ID: 16822489/0x0100B0D9))
 21: 0x0322 [0x80] LOAD_WAIT(entity=Brakobrik (ID: 16822497/0x0100B0E1))
 22: 0x0327 [0x80] LOAD_WAIT(entity=Rakorok (ID: 16822501/0x0100B0E5))
 23: 0x032C [0x80] LOAD_WAIT(entity=Gloom Phantom (ID: 16822555/0x0100B11B))
 24: 0x0331 [0x80] LOAD_WAIT(entity=LocalPlayer)
 25: 0x0336 [0x4A] Tarnotik (ID: 16822489/0x0100B0D9) looks at LocalPlayer
 26: 0x033F [0x4A] LocalPlayer looks at Tarnotik (ID: 16822489/0x0100B0D9)
 27: 0x0348 [0x6F] WAIT_FRAME_DELAY: Yield until WaitTime reaches zero
 28: 0x0349 [0x76] CHECK_ENTITY_RENDER_FLAGS: Wait until Tarnotik (ID: 16822489/0x0100B0D9) Render.Flags0 and Render.Flags3 conditions are met
 29: 0x034E [0x6F] WAIT_FRAME_DELAY: Yield until WaitTime reaches zero
 30: 0x034F [0x76] CHECK_ENTITY_RENDER_FLAGS: Wait until LocalPlayer Render.Flags0 and Render.Flags3 conditions are met
 31: 0x0354 [0x29] REQ_SET_WAIT(priority=0x0F, entity_id=LocalPlayer, tag_num=0x06)
 32: 0x035B [0x2C] CREATE_SCHEDULER_TASK: Create scheduler "wpof" with entities [Gloom Phantom (ID: 16822555/0x0100B11B), Gloom Phantom (ID: 16822555/0x0100B11B)]
 33: 0x0368 [0x6C] FADE_ENTITY_COLOR(entity_id=Gloom Phantom (ID: 16822555/0x0100B11B), end_alpha=0*, fade_time=1*)
 34: 0x0371 [0x5C] MUSIC_CONTROL: Set Idle (Day) music to song 32*
 35: 0x0375 [0x5C] MUSIC_CONTROL: Set Idle (Night) music to song 32*
 36: 0x0379 [0x9A] WAIT_MUSIC_SERVER()
 37: 0x037A [0x5D] SET_MUSIC_VOLUME(volume=127*, fade_time=1*)
 38: 0x037F [0x02] IF !(Work_Zone[9] == 5*) GOTO 0x039B
 39: 0x0387 [0x45] LOAD_SCHEDULED_TASK: Load scheduler "s019" with entities [EventEntity, EventEntity], work=[932*, 0*]
 40: 0x0398 [0x01] GOTO 0x03C8
 41: 0x039B [0x02] IF !(Work_Zone[9] == 6*) GOTO 0x03B7
 42: 0x03A3 [0x45] LOAD_SCHEDULED_TASK: Load scheduler "s019" with entities [EventEntity, EventEntity], work=[932*, 0*]
 43: 0x03B4 [0x01] GOTO 0x03C8
 44: 0x03B7 [0x45] LOAD_SCHEDULED_TASK: Load scheduler "s012" with entities [EventEntity, EventEntity], work=[932*, 0*]

SUBROUTINE_03C8:
 45: 0x03C8 [0x1A] CALL_SUBROUTINE(address=0x0043)
 46: 0x03CB [0x29] REQ_SET_WAIT(priority=0x0F, entity_id=Tarnotik (ID: 16822489/0x0100B0D9), tag_num=0x10)
 47: 0x03D2 [0x2B] Tarnotik (ID: 16822489/0x0100B0D9) [8150*]:
    → "I am Tarnotik. I tired. Completely exhausted."
 48: 0x03D9 [0x23] WAIT_FOR_DIALOG_INTERACTION
 49: 0x03DA [0x2B] Tarnotik (ID: 16822489/0x0100B0D9) [8151*]:
    → "Why, you say? Too many visitors in Movalpolos."
 50: 0x03E1 [0x23] WAIT_FOR_DIALOG_INTERACTION
 51: 0x03E2 [0x29] REQ_SET_WAIT(priority=0x0F, entity_id=Tarnotik (ID: 16822489/0x0100B0D9), tag_num=0x11)
 52: 0x03E9 [0x02] IF !(Work_Zone[9] == 5*) GOTO 0x0403
 53: 0x03F1 [0x52] END_LOAD_SCHEDULER: End scheduler "s019" with entities [EventEntity, EventEntity], work=932*
 54: 0x0400 [0x01] GOTO 0x042C
 55: 0x0403 [0x02] IF !(Work_Zone[9] == 6*) GOTO 0x041D
 56: 0x040B [0x52] END_LOAD_SCHEDULER: End scheduler "s019" with entities [EventEntity, EventEntity], work=932*
 57: 0x041A [0x01] GOTO 0x042C
 58: 0x041D [0x52] END_LOAD_SCHEDULER: End scheduler "s012" with entities [EventEntity, EventEntity], work=932*

SUBROUTINE_042C:
 59: 0x042C [0x45] LOAD_SCHEDULED_TASK: Load scheduler "s013" with entities [EventEntity, EventEntity], work=[932*, 0*]
 60: 0x043D [0x29] REQ_SET_WAIT(priority=0x0F, entity_id=Tarnotik (ID: 16822489/0x0100B0D9), tag_num=0x12)
 61: 0x0444 [0x2B] Tarnotik (ID: 16822489/0x0100B0D9) [8152*]:
    → "Orcs, Yagudo, Quadav, Goblins... Why they all here?"
 62: 0x044B [0x23] WAIT_FOR_DIALOG_INTERACTION
 63: 0x044C [0x29] REQ_SET_WAIT(priority=0x0F, entity_id=Tarnotik (ID: 16822489/0x0100B0D9), tag_num=0x13)
 64: 0x0453 [0x29] REQ_SET_WAIT(priority=0x0F, entity_id=Tarnotik (ID: 16822489/0x0100B0D9), tag_num=0x2C)
 65: 0x045A [0x2B] Tarnotik (ID: 16822489/0x0100B0D9) [8153*]:
    → "They in Mine Shaft No. 2716 talking about mighty dragon Chaos and its minions."
 66: 0x0461 [0x23] WAIT_FOR_DIALOG_INTERACTION
 67: 0x0462 [0x52] END_LOAD_SCHEDULER: End scheduler "s013" with entities [EventEntity, EventEntity], work=932*
 68: 0x0471 [0x02] IF !(Work_Zone[9] == 5*) GOTO 0x048D
 69: 0x0479 [0x45] LOAD_SCHEDULED_TASK: Load scheduler "s020" with entities [EventEntity, EventEntity], work=[932*, 0*]
 70: 0x048A [0x01] GOTO 0x04BA
 71: 0x048D [0x02] IF !(Work_Zone[9] == 6*) GOTO 0x04A9
 72: 0x0495 [0x45] LOAD_SCHEDULED_TASK: Load scheduler "s020" with entities [EventEntity, EventEntity], work=[932*, 0*]
 73: 0x04A6 [0x01] GOTO 0x04BA
 74: 0x04A9 [0x45] LOAD_SCHEDULED_TASK: Load scheduler "s014" with entities [EventEntity, EventEntity], work=[932*, 0*]

SUBROUTINE_04BA:
 75: 0x04BA [0x2B] Tarnotik (ID: 16822489/0x0100B0D9) [8154*]:
    → "I excited by sight of so many strange beings. However, is very tiring."
 76: 0x04C1 [0x23] WAIT_FOR_DIALOG_INTERACTION
 77: 0x04C2 [0x29] REQ_SET_WAIT(priority=0x0F, entity_id=Tarnotik (ID: 16822489/0x0100B0D9), tag_num=0x2D)
 78: 0x04C9 [0x29] REQ_SET_WAIT(priority=0x0F, entity_id=Tarnotik (ID: 16822489/0x0100B0D9), tag_num=0x2E)
 79: 0x04D0 [0x2B] Tarnotik (ID: 16822489/0x0100B0D9) [8155*]:
    → "Oh, you want go deeper into mine?"
 80: 0x04D7 [0x23] WAIT_FOR_DIALOG_INTERACTION
 81: 0x04D8 [0x29] REQ_SET_WAIT(priority=0x0F, entity_id=Tarnotik (ID: 16822489/0x0100B0D9), tag_num=0x2F)
 82: 0x04DF [0x6E] LocalPlayer uses emote 7*
 83: 0x04E6 [0x99] Wait for LocalPlayer animation to complete
 84: 0x04EB [0x1C] WAIT(60* ticks)
 85: 0x04EE [0x02] IF !(Work_Zone[9] == 5*) GOTO 0x0508
 86: 0x04F6 [0x52] END_LOAD_SCHEDULER: End scheduler "s020" with entities [EventEntity, EventEntity], work=932*
 87: 0x0505 [0x01] GOTO 0x0531
 88: 0x0508 [0x02] IF !(Work_Zone[9] == 6*) GOTO 0x0522
 89: 0x0510 [0x52] END_LOAD_SCHEDULER: End scheduler "s020" with entities [EventEntity, EventEntity], work=932*
 90: 0x051F [0x01] GOTO 0x0531
 91: 0x0522 [0x52] END_LOAD_SCHEDULER: End scheduler "s014" with entities [EventEntity, EventEntity], work=932*

SUBROUTINE_0531:
 92: 0x0531 [0x45] LOAD_SCHEDULED_TASK: Load scheduler "s013" with entities [EventEntity, EventEntity], work=[932*, 0*]
 93: 0x0542 [0x29] REQ_SET_WAIT(priority=0x0F, entity_id=Tarnotik (ID: 16822489/0x0100B0D9), tag_num=0x26)
 94: 0x0549 [0x2B] Tarnotik (ID: 16822489/0x0100B0D9) [8156*]:
    → "I don't recommend it. They likely not welcome your kind there."
 95: 0x0550 [0x23] WAIT_FOR_DIALOG_INTERACTION
 96: 0x0551 [0x2B] Tarnotik (ID: 16822489/0x0100B0D9) [8157*]:
    → "But, I send you there in exchange for item."
 97: 0x0558 [0x23] WAIT_FOR_DIALOG_INTERACTION
 98: 0x0559 [0x29] REQ_SET_WAIT(priority=0x0F, entity_id=Tarnotik (ID: 16822489/0x0100B0D9), tag_num=0x27)
 99: 0x0560 [0x6C] FADE_ENTITY_COLOR(entity_id=Gloom Phantom (ID: 16822555/0x0100B11B), end_alpha=128*, fade_time=1*)
100: 0x0569 [0x1C] WAIT(1* ticks)
101: 0x056C [0x27] REQ_SET(priority=0x0F, entity_id=Gloom Phantom (ID: 16822555/0x0100B11B), tag_num=0x4C)
102: 0x0573 [0x1C] WAIT(1* ticks)
103: 0x0576 [0x5D] SET_MUSIC_VOLUME(volume=0*, fade_time=300*)
104: 0x057B [0x52] END_LOAD_SCHEDULER: End scheduler "s013" with entities [EventEntity, EventEntity], work=932*
105: 0x058A [0x45] LOAD_SCHEDULED_TASK: Load scheduler "s015" with entities [EventEntity, EventEntity], work=[932*, 0*]
106: 0x059B [0x29] REQ_SET_WAIT(priority=0x0F, entity_id=Tarnotik (ID: 16822489/0x0100B0D9), tag_num=0x28)
107: 0x05A2 [0x29] REQ_SET_WAIT(priority=0x0F, entity_id=Tarnotik (ID: 16822489/0x0100B0D9), tag_num=0x29)
108: 0x05A9 [0x4A] Tarnotik (ID: 16822489/0x0100B0D9) looks at Gloom Phantom (ID: 16822555/0x0100B11B)
109: 0x05B2 [0x6F] WAIT_FRAME_DELAY: Yield until WaitTime reaches zero
110: 0x05B3 [0x76] CHECK_ENTITY_RENDER_FLAGS: Wait until Tarnotik (ID: 16822489/0x0100B0D9) Render.Flags0 and Render.Flags3 conditions are met
111: 0x05B8 [0x29] REQ_SET_WAIT(priority=0x0F, entity_id=Tarnotik (ID: 16822489/0x0100B0D9), tag_num=0x22)
112: 0x05BF [0x2B] Tarnotik (ID: 16822489/0x0100B0D9) [8158*]:
    → "!?"
113: 0x05C6 [0x1C] WAIT(30* ticks)
114: 0x05C9 [0x4A] LocalPlayer looks at Gloom Phantom (ID: 16822555/0x0100B11B)
115: 0x05D2 [0x6F] WAIT_FRAME_DELAY: Yield until WaitTime reaches zero
116: 0x05D3 [0x76] CHECK_ENTITY_RENDER_FLAGS: Wait until LocalPlayer Render.Flags0 and Render.Flags3 conditions are met
117: 0x05D8 [0x52] END_LOAD_SCHEDULER: End scheduler "s015" with entities [EventEntity, EventEntity], work=932*
118: 0x05E7 [0x45] LOAD_SCHEDULED_TASK: Load scheduler "s016" with entities [EventEntity, EventEntity], work=[932*, 0*]
119: 0x05F8 [0x23] WAIT_FOR_DIALOG_INTERACTION
120: 0x05F9 [0x29] REQ_SET_WAIT(priority=0x0F, entity_id=Tarnotik (ID: 16822489/0x0100B0D9), tag_num=0x23)
121: 0x0600 [0x29] REQ_SET_WAIT(priority=0x0F, entity_id=Tarnotik (ID: 16822489/0x0100B0D9), tag_num=0x24)
122: 0x0607 [0x1C] WAIT(30* ticks)
123: 0x060A [0x1C] WAIT(30* ticks)
124: 0x060D [0x52] END_LOAD_SCHEDULER: End scheduler "s016" with entities [EventEntity, EventEntity], work=932*
125: 0x061C [0x02] IF !(Work_Zone[9] == 5*) GOTO 0x0638
126: 0x0624 [0x45] LOAD_SCHEDULED_TASK: Load scheduler "s021" with entities [EventEntity, EventEntity], work=[932*, 0*]
127: 0x0635 [0x01] GOTO 0x0665
128: 0x0638 [0x02] IF !(Work_Zone[9] == 6*) GOTO 0x0654
129: 0x0640 [0x45] LOAD_SCHEDULED_TASK: Load scheduler "s021" with entities [EventEntity, EventEntity], work=[932*, 0*]
130: 0x0651 [0x01] GOTO 0x0665
131: 0x0654 [0x45] LOAD_SCHEDULED_TASK: Load scheduler "s017" with entities [EventEntity, EventEntity], work=[932*, 0*]

SUBROUTINE_0665:
132: 0x0665 [0x2B] Tarnotik (ID: 16822489/0x0100B0D9) [8159*]:
    → "Is that a Goblin?"
133: 0x066C [0x23] WAIT_FOR_DIALOG_INTERACTION
134: 0x066D [0x02] IF !(Work_Zone[9] == 5*) GOTO 0x0687
135: 0x0675 [0x52] END_LOAD_SCHEDULER: End scheduler "s021" with entities [EventEntity, EventEntity], work=932*
136: 0x0684 [0x01] GOTO 0x06B0
137: 0x0687 [0x02] IF !(Work_Zone[9] == 6*) GOTO 0x06A1
138: 0x068F [0x52] END_LOAD_SCHEDULER: End scheduler "s021" with entities [EventEntity, EventEntity], work=932*
139: 0x069E [0x01] GOTO 0x06B0
140: 0x06A1 [0x52] END_LOAD_SCHEDULER: End scheduler "s017" with entities [EventEntity, EventEntity], work=932*

SUBROUTINE_06B0:
141: 0x06B0 [0x45] LOAD_SCHEDULED_TASK: Load scheduler "s018" with entities [EventEntity, EventEntity], work=[932*, 0*]
142: 0x06C1 [0x29] REQ_SET_WAIT(priority=0x0F, entity_id=Tarnotik (ID: 16822489/0x0100B0D9), tag_num=0x25)
143: 0x06C8 [0x29] REQ_SET_WAIT(priority=0x0F, entity_id=Tarnotik (ID: 16822489/0x0100B0D9), tag_num=0x26)
144: 0x06CF [0x2B] Tarnotik (ID: 16822489/0x0100B0D9) [8160*]:
    → "He clad in black... Maybe he famous Goblin everyone talk about?"
145: 0x06D6 [0x23] WAIT_FOR_DIALOG_INTERACTION
146: 0x06D7 [0x1A] CALL_SUBROUTINE(address=0x0064)
147: 0x06DA [0x2A] GET_REQ_LEVEL(level=15, entity_id=Gloom Phantom (ID: 16822555/0x0100B11B))
148: 0x06E0 [0x52] END_LOAD_SCHEDULER: End scheduler "s018" with entities [EventEntity, EventEntity], work=932*
149: 0x06EF [0x29] REQ_SET_WAIT(priority=0x0F, entity_id=Tarnotik (ID: 16822489/0x0100B0D9), tag_num=0x27)
150: 0x06F6 [0x5C] MUSIC_CONTROL: Set Idle (Day) music to song 221*
151: 0x06FA [0x5C] MUSIC_CONTROL: Set Idle (Night) music to song 221*
152: 0x06FE [0x9A] WAIT_MUSIC_SERVER()
153: 0x06FF [0x5D] SET_MUSIC_VOLUME(volume=127*, fade_time=1*)
154: 0x0704 [0x1C] WAIT(15* ticks)
155: 0x0707 [0xAB] EventEntity->DespawnValue = 0* // Set despawn value
156: 0x070B [0x1C] WAIT(1* ticks)
157: 0x070E [0x46] CAMERA_CONTROL: Restore default settings
158: 0x0710 [0x45] LOAD_SCHEDULED_TASK: Load scheduler "fdi2" with entities [EventEntity, EventEntity], work=[200*, 0*]
159: 0x0721 [0x21] END_EVENT
160: 0x0722 [0x00] END_REQSTACK()
```

### Event 68

#### Metadata

| Field        | Value     |
|--------------|-----------|
| Entrypoint   | 0x0723    |
| Data Size    | 101 bytes |
| Instructions | 18        |

```
      00 01 02 03 04 05 06 07  08 09 0A 0B 0C 0D 0E 0F
      -- -- -- -- -- -- -- --  -- -- -- -- -- -- -- --
0720:          42 4A D9 B0 00  01 F0 FF FF 7F 6F 76 D9     BJ........ov.
0730: B0 00 01 4A F0 FF FF 7F  D9 B0 00 01 02 02 10 32  ...J...........2
0740: 80 00 86 07 27 10 D9 B0  00 01 10 2B D9 B0 00 01  ....'......+....
0750: 33 80 23 2B D9 B0 00 01  34 80 23 2B D9 B0 00 01  3.#+....4.#+....
0760: 35 80 23 29 10 D9 B0 00  01 11 5B 07 80 D9 B0 00  5.#)......[.....
0770: 01 D9 B0 00 01 74 6C 6B  65 53 D9 B0 00 01 D9 B0  .....tlkeS......
0780: 00 01 74 6C 6B 65 21 00                           ..tlke!.        
```

#### Opcodes

```
  0: 0x0723 [0x42] SET_CLI_EVENT_CANCEL_DATA()
  1: 0x0724 [0x4A] Tarnotik (ID: 16822489/0x0100B0D9) looks at LocalPlayer
  2: 0x072D [0x6F] WAIT_FRAME_DELAY: Yield until WaitTime reaches zero
  3: 0x072E [0x76] CHECK_ENTITY_RENDER_FLAGS: Wait until Tarnotik (ID: 16822489/0x0100B0D9) Render.Flags0 and Render.Flags3 conditions are met
  4: 0x0733 [0x4A] LocalPlayer looks at Tarnotik (ID: 16822489/0x0100B0D9)
  5: 0x073C [0x02] IF !(Work_Zone[2] == 556*) GOTO 0x0786
  6: 0x0744 [0x27] REQ_SET(priority=0x10, entity_id=Tarnotik (ID: 16822489/0x0100B0D9), tag_num=0x10)
  7: 0x074B [0x2B] Tarnotik (ID: 16822489/0x0100B0D9) [8161*]:
    → "Movalpolos overrun with visitors... You still want to continue?"
  8: 0x0752 [0x23] WAIT_FOR_DIALOG_INTERACTION
  9: 0x0753 [0x2B] Tarnotik (ID: 16822489/0x0100B0D9) [8162*]:
    → "I don't recommend it. They likely not welcome your kind there."
 10: 0x075A [0x23] WAIT_FOR_DIALOG_INTERACTION
 11: 0x075B [0x2B] Tarnotik (ID: 16822489/0x0100B0D9) [8163*]:
    → "But, I send you there in exchange for item."
 12: 0x0762 [0x23] WAIT_FOR_DIALOG_INTERACTION
 13: 0x0763 [0x29] REQ_SET_WAIT(priority=0x10, entity_id=Tarnotik (ID: 16822489/0x0100B0D9), tag_num=0x11)
 14: 0x076A [0x5B] LOAD_EXT_SCHEDULER: Load scheduler "tlke" with entities [Tarnotik (ID: 16822489/0x0100B0D9), Tarnotik (ID: 16822489/0x0100B0D9)], work=215*
 15: 0x0779 [0x53] WAIT_SCHEDULER_TASK: Wait for scheduler "tlke" with entities [Tarnotik (ID: 16822489/0x0100B0D9), Tarnotik (ID: 16822489/0x0100B0D9)]
 16: 0x0786 [0x21] END_EVENT
 17: 0x0787 [0x00] END_REQSTACK()
```

### Event 69

#### Metadata

| Field        | Value      |
|--------------|------------|
| Entrypoint   | 0x0788     |
| Data Size    | 1505 bytes |
| Instructions | 209        |

```
      00 01 02 03 04 05 06 07  08 09 0A 0B 0C 0D 0E 0F
      -- -- -- -- -- -- -- --  -- -- -- -- -- -- -- --
0780:                          42 5D 01 80 08 80 1A 64          B].....d
0790: 00 46 01 38 09 80 2F 00  08 B1 00 01 4E 00 08 B1  .F.8../.....N...
07A0: 00 01 92 01 D9 B0 00 01  92 01 E1 B0 00 01 92 01  ................
07B0: E5 B0 00 01 94 01 D9 B0  00 01 94 01 E1 B0 00 01  ................
07C0: 94 01 E5 B0 00 01 94 01  08 B1 00 01 94 01 F0 FF  ................
07D0: FF 7F BA D9 B0 00 01 0A  80 0B 80 0C 80 0D 80 BA  ................
07E0: E1 B0 00 01 0E 80 0F 80  10 80 11 80 BA E5 B0 00  ................
07F0: 01 12 80 13 80 14 80 15  80 BA 08 B1 00 01 36 80  ..............6.
0800: 37 80 38 80 39 80 BA F0  FF FF 7F 1A 80 1B 80 0C  7.8.9...........
0810: 80 1C 80 80 D9 B0 00 01  80 E1 B0 00 01 80 E5 B0  ................
0820: 00 01 80 08 B1 00 01 80  F0 FF FF 7F 4A D9 B0 00  ............J...
0830: 01 F0 FF FF 7F 4A F0 FF  FF 7F D9 B0 00 01 6F 76  .....J........ov
0840: D9 B0 00 01 6F 76 F0 FF  FF 7F 29 0F F0 FF FF 7F  ....ov....).....
0850: 06 6C 08 B1 00 01 01 80  03 80 5C 00 3A 80 5C 01  .l........\.:.\.
0860: 3A 80 9A 5D 1E 80 03 80  02 09 10 1F 80 00 84 08  :..]............
0870: 45 20 80 F8 FF FF 7F F8  FF FF 7F 73 30 31 39 01  E .........s019.
0880: 80 01 B1 08 02 09 10 21  80 00 A0 08 45 20 80 F8  .......!....E ..
0890: FF FF 7F F8 FF FF 7F 73  30 31 39 01 80 01 B1 08  .......s019.....
08A0: 45 20 80 F8 FF FF 7F F8  FF FF 7F 73 30 31 32 01  E .........s012.
08B0: 80 1A 43 00 29 0F D9 B0  00 01 10 2B D9 B0 00 01  ..C.)......+....
08C0: 3B 80 23 2B D9 B0 00 01  3C 80 23 29 0F D9 B0 00  ;.#+....<.#)....
08D0: 01 11 02 09 10 1F 80 00  EC 08 52 20 80 F8 FF FF  ..........R ....
08E0: 7F F8 FF FF 7F 73 30 31  39 01 15 09 02 09 10 21  .....s019......!
08F0: 80 00 06 09 52 20 80 F8  FF FF 7F F8 FF FF 7F 73  ....R .........s
0900: 30 31 39 01 15 09 52 20  80 F8 FF FF 7F F8 FF FF  019...R ........
0910: 7F 73 30 31 32 45 20 80  F8 FF FF 7F F8 FF FF 7F  .s012E .........
0920: 73 30 31 33 01 80 29 0F  D9 B0 00 01 12 2B D9 B0  s013..)......+..
0930: 00 01 3D 80 23 2B D9 B0  00 01 3E 80 23 29 0F D9  ..=.#+....>.#)..
0940: B0 00 01 13 52 20 80 F8  FF FF 7F F8 FF FF 7F 73  ....R .........s
0950: 30 31 33 02 09 10 1F 80  00 6F 09 45 20 80 F8 FF  013......o.E ...
0960: FF 7F F8 FF FF 7F 73 30  32 30 01 80 01 9C 09 02  ......s020......
0970: 09 10 21 80 00 8B 09 45  20 80 F8 FF FF 7F F8 FF  ..!....E .......
0980: FF 7F 73 30 32 30 01 80  01 9C 09 45 20 80 F8 FF  ..s020.....E ...
0990: FF 7F F8 FF FF 7F 73 30  31 34 01 80 29 0F D9 B0  ......s014..)...
09A0: 00 01 2C 2B D9 B0 00 01  3F 80 23 29 0F D9 B0 00  ..,+....?.#)....
09B0: 01 2D 29 0F D9 B0 00 01  2E 6C 08 B1 00 01 2C 80  .-)......l....,.
09C0: 03 80 1C 03 80 27 0F 08  B1 00 01 32 1C 03 80 02  .....'.....2....
09D0: 09 10 1F 80 00 E9 09 52  20 80 F8 FF FF 7F F8 FF  .......R .......
09E0: FF 7F 73 30 32 30 01 12  0A 02 09 10 21 80 00 03  ..s020......!...
09F0: 0A 52 20 80 F8 FF FF 7F  F8 FF FF 7F 73 30 32 30  .R .........s020
0A00: 01 12 0A 52 20 80 F8 FF  FF 7F F8 FF FF 7F 73 30  ...R .........s0
0A10: 31 34 45 20 80 F8 FF FF  7F F8 FF FF 7F 73 30 37  14E .........s07
0A20: 35 01 80 29 0F D9 B0 00  01 2F 4A D9 B0 00 01 08  5..)...../J.....
0A30: B1 00 01 6F 76 D9 B0 00  01 1C 06 80 4A F0 FF FF  ...ov.......J...
0A40: 7F 08 B1 00 01 6F 76 F0  FF FF 7F 52 20 80 F8 FF  .....ov....R ...
0A50: FF 7F F8 FF FF 7F 73 30  37 35 45 20 80 F8 FF FF  ......s075E ....
0A60: 7F F8 FF FF 7F 73 30 37  36 01 80 4A D9 B0 00 01  .....s076..J....
0A70: 08 B1 00 01 6F 76 D9 B0  00 01 1C 29 80 52 20 80  ....ov.....).R .
0A80: F8 FF FF 7F F8 FF FF 7F  73 30 37 36 45 20 80 F8  ........s076E ..
0A90: FF FF 7F F8 FF FF 7F 73  30 37 37 01 80 1C 06 80  .......s077.....
0AA0: 2B 08 B1 00 01 40 80 23  2A 0F 08 B1 00 01 4A D9  +....@.#*.....J.
0AB0: B0 00 01 08 B1 00 01 4A  F0 FF FF 7F 08 B1 00 01  .......J........
0AC0: 29 10 08 B1 00 01 25 2B  08 B1 00 01 41 80 23 6F  ).....%+....A.#o
0AD0: 76 D9 B0 00 01 6F 76 F0  FF FF 7F 52 20 80 F8 FF  v....ov....R ...
0AE0: FF 7F F8 FF FF 7F 73 30  37 37 02 09 10 1F 80 00  ......s077......
0AF0: 06 0B 45 20 80 F8 FF FF  7F F8 FF FF 7F 73 30 38  ..E .........s08
0B00: 31 01 80 01 33 0B 02 09  10 21 80 00 22 0B 45 20  1...3....!..".E 
0B10: 80 F8 FF FF 7F F8 FF FF  7F 73 30 38 31 01 80 01  .........s081...
0B20: 33 0B 45 20 80 F8 FF FF  7F F8 FF FF 7F 73 30 37  3.E .........s07
0B30: 38 01 80 2B 08 B1 00 01  42 80 23 29 10 08 B1 00  8..+....B.#)....
0B40: 01 26 29 10 08 B1 00 01  27 2B 08 B1 00 01 43 80  .&).....'+....C.
0B50: 23 29 10 08 B1 00 01 28  03 01 10 01 80 24 44 80  #).....(.....$D.
0B60: 01 80 01 80 25 02 00 10  01 80 00 E8 0B 6E F0 FF  ....%........n..
0B70: FF 7F 28 80 99 F0 FF FF  7F 1C 45 80 02 09 10 1F  ..(.......E.....
0B80: 80 00 96 0B 52 20 80 F8  FF FF 7F F8 FF FF 7F 73  ....R .........s
0B90: 30 38 31 01 BF 0B 02 09  10 21 80 00 B0 0B 52 20  081......!....R 
0BA0: 80 F8 FF FF 7F F8 FF FF  7F 73 30 38 31 01 BF 0B  .........s081...
0BB0: 52 20 80 F8 FF FF 7F F8  FF FF 7F 73 30 37 38 45  R .........s078E
0BC0: 20 80 F8 FF FF 7F F8 FF  FF 7F 73 30 37 39 01 80   .........s079..
0BD0: 27 10 08 B1 00 01 1B 2B  08 B1 00 01 46 80 23 2A  '......+....F.#*
0BE0: 10 08 B1 00 01 01 F3 0C  02 00 10 03 80 00 70 0C  ..............p.
0BF0: 6E F0 FF FF 7F 21 80 99  F0 FF FF 7F 1C 45 80 02  n....!.......E..
0C00: 09 10 1F 80 00 19 0C 52  20 80 F8 FF FF 7F F8 FF  .......R .......
0C10: FF 7F 73 30 38 31 01 42  0C 02 09 10 21 80 00 33  ..s081.B....!..3
0C20: 0C 52 20 80 F8 FF FF 7F  F8 FF FF 7F 73 30 38 31  .R .........s081
0C30: 01 42 0C 52 20 80 F8 FF  FF 7F F8 FF FF 7F 73 30  .B.R .........s0
0C40: 37 38 03 01 10 03 80 45  20 80 F8 FF FF 7F F8 FF  78.....E .......
0C50: FF 7F 73 30 37 39 01 80  27 10 08 B1 00 01 1B 2B  ..s079..'......+
0C60: 08 B1 00 01 47 80 23 2A  10 08 B1 00 01 01 F3 0C  ....G.#*........
0C70: 02 00 10 05 80 00 F3 0C  6E F0 FF FF 7F 21 80 99  ........n....!..
0C80: F0 FF FF 7F 1C 45 80 02  09 10 1F 80 00 A1 0C 52  .....E.........R
0C90: 20 80 F8 FF FF 7F F8 FF  FF 7F 73 30 38 31 01 CA   .........s081..
0CA0: 0C 02 09 10 21 80 00 BB  0C 52 20 80 F8 FF FF 7F  ....!....R .....
0CB0: F8 FF FF 7F 73 30 38 31  01 CA 0C 52 20 80 F8 FF  ....s081...R ...
0CC0: FF 7F F8 FF FF 7F 73 30  37 38 45 20 80 F8 FF FF  ......s078E ....
0CD0: 7F F8 FF FF 7F 73 30 37  39 01 80 27 10 08 B1 00  .....s079..'....
0CE0: 01 1B 2B 08 B1 00 01 48  80 23 2A 10 08 B1 00 01  ..+....H.#*.....
0CF0: 01 F3 0C 52 20 80 F8 FF  FF 7F F8 FF FF 7F 73 30  ...R .........s0
0D00: 37 39 45 20 80 F8 FF FF  7F F8 FF FF 7F 73 30 38  79E .........s08
0D10: 30 01 80 1C 06 80 6E F0  FF FF 7F 28 80 99 F0 FF  0.....n....(....
0D20: FF 7F 1C 45 80 5D 01 80  08 80 1A 64 00 52 20 80  ...E.].....d.R .
0D30: F8 FF FF 7F F8 FF FF 7F  73 30 38 30 5C 00 30 80  ........s080\.0.
0D40: 5C 01 30 80 9A 5D 1E 80  03 80 1C 31 80 AB 11 01  \.0..].....1....
0D50: 80 1C 03 80 46 00 45 00  80 F8 FF FF 7F F8 FF FF  ....F.E.........
0D60: 7F 66 64 69 32 01 80 21  00                       .fdi2..!.       
```

#### Opcodes

```
  0: 0x0788 [0x42] SET_CLI_EVENT_CANCEL_DATA()
  1: 0x0789 [0x5D] SET_MUSIC_VOLUME(volume=0*, fade_time=300*)
  2: 0x078E [0x1A] CALL_SUBROUTINE(address=0x0064)
  3: 0x0791 [0x46] CAMERA_CONTROL: Disable user control
  4: 0x0793 [0x38] SET_CLIENT_EVENT_MODE(mode=147*)
  5: 0x0796 [0x2F] Jabbos (ID: 16822536/0x0100B108)->Render.Flags0 &= ~0x80000 // Bit 19
  6: 0x079C [0x4E] SET_ENTITY_HIDE_FLAG: Show Jabbos (ID: 16822536/0x0100B108)
  7: 0x07A2 [0x92] Tarnotik (ID: 16822489/0x0100B0D9)->Render.Flags3 ^= 0x01
  8: 0x07A8 [0x92] Brakobrik (ID: 16822497/0x0100B0E1)->Render.Flags3 ^= 0x01
  9: 0x07AE [0x92] Rakorok (ID: 16822501/0x0100B0E5)->Render.Flags3 ^= 0x01
 10: 0x07B4 [0x94] Tarnotik (ID: 16822489/0x0100B0D9)->Render.Flags3 ^= 0x01
 11: 0x07BA [0x94] Brakobrik (ID: 16822497/0x0100B0E1)->Render.Flags3 ^= 0x01
 12: 0x07C0 [0x94] Rakorok (ID: 16822501/0x0100B0E5)->Render.Flags3 ^= 0x01
 13: 0x07C6 [0x94] Jabbos (ID: 16822536/0x0100B108)->Render.Flags3 ^= 0x01
 14: 0x07CC [0x94] LocalPlayer->Render.Flags3 ^= 0x01
 15: 0x07D2 [0xBA] SET_ENTITY_POSITION(entity_id=Tarnotik (ID: 16822489/0x0100B0D9), pos_x=160.896*, pos_z=-55.659*, pos_y=11.999*, direction=270.0°*)
 16: 0x07DF [0xBA] SET_ENTITY_POSITION(entity_id=Brakobrik (ID: 16822497/0x0100B0E1), pos_x=164.605*, pos_z=-91.253*, pos_y=11.992*, direction=129.2°*)
 17: 0x07EC [0xBA] SET_ENTITY_POSITION(entity_id=Rakorok (ID: 16822501/0x0100B0E5), pos_x=157.331*, pos_z=-40.840*, pos_y=13.999*, direction=202.3°*)
 18: 0x07F9 [0xBA] SET_ENTITY_POSITION(entity_id=Jabbos (ID: 16822536/0x0100B108), pos_x=167.676*, pos_z=-44.650*, pos_y=13.996*, direction=89.5°*)
 19: 0x0806 [0xBA] SET_ENTITY_POSITION(entity_id=LocalPlayer, pos_x=158.814*, pos_z=-58.558*, pos_y=11.999*, direction=314.2°*)
 20: 0x0813 [0x80] LOAD_WAIT(entity=Tarnotik (ID: 16822489/0x0100B0D9))
 21: 0x0818 [0x80] LOAD_WAIT(entity=Brakobrik (ID: 16822497/0x0100B0E1))
 22: 0x081D [0x80] LOAD_WAIT(entity=Rakorok (ID: 16822501/0x0100B0E5))
 23: 0x0822 [0x80] LOAD_WAIT(entity=Jabbos (ID: 16822536/0x0100B108))
 24: 0x0827 [0x80] LOAD_WAIT(entity=LocalPlayer)
 25: 0x082C [0x4A] Tarnotik (ID: 16822489/0x0100B0D9) looks at LocalPlayer
 26: 0x0835 [0x4A] LocalPlayer looks at Tarnotik (ID: 16822489/0x0100B0D9)
 27: 0x083E [0x6F] WAIT_FRAME_DELAY: Yield until WaitTime reaches zero
 28: 0x083F [0x76] CHECK_ENTITY_RENDER_FLAGS: Wait until Tarnotik (ID: 16822489/0x0100B0D9) Render.Flags0 and Render.Flags3 conditions are met
 29: 0x0844 [0x6F] WAIT_FRAME_DELAY: Yield until WaitTime reaches zero
 30: 0x0845 [0x76] CHECK_ENTITY_RENDER_FLAGS: Wait until LocalPlayer Render.Flags0 and Render.Flags3 conditions are met
 31: 0x084A [0x29] REQ_SET_WAIT(priority=0x0F, entity_id=LocalPlayer, tag_num=0x06)
 32: 0x0851 [0x6C] FADE_ENTITY_COLOR(entity_id=Jabbos (ID: 16822536/0x0100B108), end_alpha=0*, fade_time=1*)
 33: 0x085A [0x5C] MUSIC_CONTROL: Set Idle (Day) music to song 25*
 34: 0x085E [0x5C] MUSIC_CONTROL: Set Idle (Night) music to song 25*
 35: 0x0862 [0x9A] WAIT_MUSIC_SERVER()
 36: 0x0863 [0x5D] SET_MUSIC_VOLUME(volume=127*, fade_time=1*)
 37: 0x0868 [0x02] IF !(Work_Zone[9] == 5*) GOTO 0x0884
 38: 0x0870 [0x45] LOAD_SCHEDULED_TASK: Load scheduler "s019" with entities [EventEntity, EventEntity], work=[932*, 0*]
 39: 0x0881 [0x01] GOTO 0x08B1
 40: 0x0884 [0x02] IF !(Work_Zone[9] == 6*) GOTO 0x08A0
 41: 0x088C [0x45] LOAD_SCHEDULED_TASK: Load scheduler "s019" with entities [EventEntity, EventEntity], work=[932*, 0*]
 42: 0x089D [0x01] GOTO 0x08B1
 43: 0x08A0 [0x45] LOAD_SCHEDULED_TASK: Load scheduler "s012" with entities [EventEntity, EventEntity], work=[932*, 0*]

SUBROUTINE_08B1:
 44: 0x08B1 [0x1A] CALL_SUBROUTINE(address=0x0043)
 45: 0x08B4 [0x29] REQ_SET_WAIT(priority=0x0F, entity_id=Tarnotik (ID: 16822489/0x0100B0D9), tag_num=0x10)
 46: 0x08BB [0x2B] Tarnotik (ID: 16822489/0x0100B0D9) [8164*]:
    → "I'm Tarnotik. I exhausted from being so busy."
 47: 0x08C2 [0x23] WAIT_FOR_DIALOG_INTERACTION
 48: 0x08C3 [0x2B] Tarnotik (ID: 16822489/0x0100B0D9) [8165*]:
    → "Why Tarnotik so busy, you ask? There be some strange visitors in Movalpolos."
 49: 0x08CA [0x23] WAIT_FOR_DIALOG_INTERACTION
 50: 0x08CB [0x29] REQ_SET_WAIT(priority=0x0F, entity_id=Tarnotik (ID: 16822489/0x0100B0D9), tag_num=0x11)
 51: 0x08D2 [0x02] IF !(Work_Zone[9] == 5*) GOTO 0x08EC
 52: 0x08DA [0x52] END_LOAD_SCHEDULER: End scheduler "s019" with entities [EventEntity, EventEntity], work=932*
 53: 0x08E9 [0x01] GOTO 0x0915
 54: 0x08EC [0x02] IF !(Work_Zone[9] == 6*) GOTO 0x0906
 55: 0x08F4 [0x52] END_LOAD_SCHEDULER: End scheduler "s019" with entities [EventEntity, EventEntity], work=932*
 56: 0x0903 [0x01] GOTO 0x0915
 57: 0x0906 [0x52] END_LOAD_SCHEDULER: End scheduler "s012" with entities [EventEntity, EventEntity], work=932*

SUBROUTINE_0915:
 58: 0x0915 [0x45] LOAD_SCHEDULED_TASK: Load scheduler "s013" with entities [EventEntity, EventEntity], work=[932*, 0*]
 59: 0x0926 [0x29] REQ_SET_WAIT(priority=0x0F, entity_id=Tarnotik (ID: 16822489/0x0100B0D9), tag_num=0x12)
 60: 0x092D [0x2B] Tarnotik (ID: 16822489/0x0100B0D9) [8166*]:
    → "Aren't citrullus usually more silent?"
 61: 0x0934 [0x23] WAIT_FOR_DIALOG_INTERACTION
 62: 0x0935 [0x2B] Tarnotik (ID: 16822489/0x0100B0D9) [8167*]:
    → "And Meebles be more docile?"
 63: 0x093C [0x23] WAIT_FOR_DIALOG_INTERACTION
 64: 0x093D [0x29] REQ_SET_WAIT(priority=0x0F, entity_id=Tarnotik (ID: 16822489/0x0100B0D9), tag_num=0x13)
 65: 0x0944 [0x52] END_LOAD_SCHEDULER: End scheduler "s013" with entities [EventEntity, EventEntity], work=932*
 66: 0x0953 [0x02] IF !(Work_Zone[9] == 5*) GOTO 0x096F
 67: 0x095B [0x45] LOAD_SCHEDULED_TASK: Load scheduler "s020" with entities [EventEntity, EventEntity], work=[932*, 0*]
 68: 0x096C [0x01] GOTO 0x099C
 69: 0x096F [0x02] IF !(Work_Zone[9] == 6*) GOTO 0x098B
 70: 0x0977 [0x45] LOAD_SCHEDULED_TASK: Load scheduler "s020" with entities [EventEntity, EventEntity], work=[932*, 0*]
 71: 0x0988 [0x01] GOTO 0x099C
 72: 0x098B [0x45] LOAD_SCHEDULED_TASK: Load scheduler "s014" with entities [EventEntity, EventEntity], work=[932*, 0*]

SUBROUTINE_099C:
 73: 0x099C [0x29] REQ_SET_WAIT(priority=0x0F, entity_id=Tarnotik (ID: 16822489/0x0100B0D9), tag_num=0x2C)
 74: 0x09A3 [0x2B] Tarnotik (ID: 16822489/0x0100B0D9) [8168*]:
    → "What wrong with those two!?"
 75: 0x09AA [0x23] WAIT_FOR_DIALOG_INTERACTION
 76: 0x09AB [0x29] REQ_SET_WAIT(priority=0x0F, entity_id=Tarnotik (ID: 16822489/0x0100B0D9), tag_num=0x2D)
 77: 0x09B2 [0x29] REQ_SET_WAIT(priority=0x0F, entity_id=Tarnotik (ID: 16822489/0x0100B0D9), tag_num=0x2E)
 78: 0x09B9 [0x6C] FADE_ENTITY_COLOR(entity_id=Jabbos (ID: 16822536/0x0100B108), end_alpha=128*, fade_time=1*)
 79: 0x09C2 [0x1C] WAIT(1* ticks)
 80: 0x09C5 [0x27] REQ_SET(priority=0x0F, entity_id=Jabbos (ID: 16822536/0x0100B108), tag_num=0x32)
 81: 0x09CC [0x1C] WAIT(1* ticks)
 82: 0x09CF [0x02] IF !(Work_Zone[9] == 5*) GOTO 0x09E9
 83: 0x09D7 [0x52] END_LOAD_SCHEDULER: End scheduler "s020" with entities [EventEntity, EventEntity], work=932*
 84: 0x09E6 [0x01] GOTO 0x0A12
 85: 0x09E9 [0x02] IF !(Work_Zone[9] == 6*) GOTO 0x0A03
 86: 0x09F1 [0x52] END_LOAD_SCHEDULER: End scheduler "s020" with entities [EventEntity, EventEntity], work=932*
 87: 0x0A00 [0x01] GOTO 0x0A12
 88: 0x0A03 [0x52] END_LOAD_SCHEDULER: End scheduler "s014" with entities [EventEntity, EventEntity], work=932*

SUBROUTINE_0A12:
 89: 0x0A12 [0x45] LOAD_SCHEDULED_TASK: Load scheduler "s075" with entities [EventEntity, EventEntity], work=[932*, 0*]
 90: 0x0A23 [0x29] REQ_SET_WAIT(priority=0x0F, entity_id=Tarnotik (ID: 16822489/0x0100B0D9), tag_num=0x2F)
 91: 0x0A2A [0x4A] Tarnotik (ID: 16822489/0x0100B0D9) looks at Jabbos (ID: 16822536/0x0100B108)
 92: 0x0A33 [0x6F] WAIT_FRAME_DELAY: Yield until WaitTime reaches zero
 93: 0x0A34 [0x76] CHECK_ENTITY_RENDER_FLAGS: Wait until Tarnotik (ID: 16822489/0x0100B0D9) Render.Flags0 and Render.Flags3 conditions are met
 94: 0x0A39 [0x1C] WAIT(30* ticks)
 95: 0x0A3C [0x4A] LocalPlayer looks at Jabbos (ID: 16822536/0x0100B108)
 96: 0x0A45 [0x6F] WAIT_FRAME_DELAY: Yield until WaitTime reaches zero
 97: 0x0A46 [0x76] CHECK_ENTITY_RENDER_FLAGS: Wait until LocalPlayer Render.Flags0 and Render.Flags3 conditions are met
 98: 0x0A4B [0x52] END_LOAD_SCHEDULER: End scheduler "s075" with entities [EventEntity, EventEntity], work=932*
 99: 0x0A5A [0x45] LOAD_SCHEDULED_TASK: Load scheduler "s076" with entities [EventEntity, EventEntity], work=[932*, 0*]
100: 0x0A6B [0x4A] Tarnotik (ID: 16822489/0x0100B0D9) looks at Jabbos (ID: 16822536/0x0100B108)
101: 0x0A74 [0x6F] WAIT_FRAME_DELAY: Yield until WaitTime reaches zero
102: 0x0A75 [0x76] CHECK_ENTITY_RENDER_FLAGS: Wait until Tarnotik (ID: 16822489/0x0100B0D9) Render.Flags0 and Render.Flags3 conditions are met
103: 0x0A7A [0x1C] WAIT(60* ticks)
104: 0x0A7D [0x52] END_LOAD_SCHEDULER: End scheduler "s076" with entities [EventEntity, EventEntity], work=932*
105: 0x0A8C [0x45] LOAD_SCHEDULED_TASK: Load scheduler "s077" with entities [EventEntity, EventEntity], work=[932*, 0*]
106: 0x0A9D [0x1C] WAIT(30* ticks)
107: 0x0AA0 [0x2B] Jabbos (ID: 16822536/0x0100B108) [8169*]:
    → "<Player>, you came...at just...the right time!"
108: 0x0AA7 [0x23] WAIT_FOR_DIALOG_INTERACTION
109: 0x0AA8 [0x2A] GET_REQ_LEVEL(level=15, entity_id=Jabbos (ID: 16822536/0x0100B108))
110: 0x0AAE [0x4A] Tarnotik (ID: 16822489/0x0100B0D9) looks at Jabbos (ID: 16822536/0x0100B108)
111: 0x0AB7 [0x4A] LocalPlayer looks at Jabbos (ID: 16822536/0x0100B108)
112: 0x0AC0 [0x29] REQ_SET_WAIT(priority=0x10, entity_id=Jabbos (ID: 16822536/0x0100B108), tag_num=0x25)
113: 0x0AC7 [0x2B] Jabbos (ID: 16822536/0x0100B108) [8170*]:
    → "Gloom Phantom's friends...are here! You know...the Destiny Destroyers!"
114: 0x0ACE [0x23] WAIT_FOR_DIALOG_INTERACTION
115: 0x0ACF [0x6F] WAIT_FRAME_DELAY: Yield until WaitTime reaches zero
116: 0x0AD0 [0x76] CHECK_ENTITY_RENDER_FLAGS: Wait until Tarnotik (ID: 16822489/0x0100B0D9) Render.Flags0 and Render.Flags3 conditions are met
117: 0x0AD5 [0x6F] WAIT_FRAME_DELAY: Yield until WaitTime reaches zero
118: 0x0AD6 [0x76] CHECK_ENTITY_RENDER_FLAGS: Wait until LocalPlayer Render.Flags0 and Render.Flags3 conditions are met
119: 0x0ADB [0x52] END_LOAD_SCHEDULER: End scheduler "s077" with entities [EventEntity, EventEntity], work=932*
120: 0x0AEA [0x02] IF !(Work_Zone[9] == 5*) GOTO 0x0B06
121: 0x0AF2 [0x45] LOAD_SCHEDULED_TASK: Load scheduler "s081" with entities [EventEntity, EventEntity], work=[932*, 0*]
122: 0x0B03 [0x01] GOTO 0x0B33
123: 0x0B06 [0x02] IF !(Work_Zone[9] == 6*) GOTO 0x0B22
124: 0x0B0E [0x45] LOAD_SCHEDULED_TASK: Load scheduler "s081" with entities [EventEntity, EventEntity], work=[932*, 0*]
125: 0x0B1F [0x01] GOTO 0x0B33
126: 0x0B22 [0x45] LOAD_SCHEDULED_TASK: Load scheduler "s078" with entities [EventEntity, EventEntity], work=[932*, 0*]

SUBROUTINE_0B33:
127: 0x0B33 [0x2B] Jabbos (ID: 16822536/0x0100B108) [8171*]:
    → "They are...eager to see...Gloom Phantom. But...I must...ask you first..."
128: 0x0B3A [0x23] WAIT_FOR_DIALOG_INTERACTION
129: 0x0B3B [0x29] REQ_SET_WAIT(priority=0x10, entity_id=Jabbos (ID: 16822536/0x0100B108), tag_num=0x26)
130: 0x0B42 [0x29] REQ_SET_WAIT(priority=0x10, entity_id=Jabbos (ID: 16822536/0x0100B108), tag_num=0x27)
131: 0x0B49 [0x2B] Jabbos (ID: 16822536/0x0100B108) [8172*]:
    → "Are...Magh Bihu...and Dazbog...okay? Can we...take them...to her?"
132: 0x0B50 [0x23] WAIT_FOR_DIALOG_INTERACTION
133: 0x0B51 [0x29] REQ_SET_WAIT(priority=0x10, entity_id=Jabbos (ID: 16822536/0x0100B108), tag_num=0x28)
134: 0x0B58 [0x03] Work_Zone[1] = 0*
135: 0x0B5D [0x24] CREATE_DIALOG(message_id=8173*, default_option=0*, option_flags=0*)
    → "Is it okay? [Yes, it's fine./No, probably not./I'm not sure.]"
136: 0x0B64 [0x25] WAIT_DIALOG_SELECT()
137: 0x0B65 [0x02] IF !(Work_Zone[0] == 0*) GOTO 0x0BE8
138: 0x0B6D [0x6E] LocalPlayer uses emote 7*
139: 0x0B74 [0x99] Wait for LocalPlayer animation to complete
140: 0x0B79 [0x1C] WAIT(90* ticks)
141: 0x0B7C [0x02] IF !(Work_Zone[9] == 5*) GOTO 0x0B96
142: 0x0B84 [0x52] END_LOAD_SCHEDULER: End scheduler "s081" with entities [EventEntity, EventEntity], work=932*
143: 0x0B93 [0x01] GOTO 0x0BBF
144: 0x0B96 [0x02] IF !(Work_Zone[9] == 6*) GOTO 0x0BB0
145: 0x0B9E [0x52] END_LOAD_SCHEDULER: End scheduler "s081" with entities [EventEntity, EventEntity], work=932*
146: 0x0BAD [0x01] GOTO 0x0BBF
147: 0x0BB0 [0x52] END_LOAD_SCHEDULER: End scheduler "s078" with entities [EventEntity, EventEntity], work=932*

SUBROUTINE_0BBF:
148: 0x0BBF [0x45] LOAD_SCHEDULED_TASK: Load scheduler "s079" with entities [EventEntity, EventEntity], work=[932*, 0*]
149: 0x0BD0 [0x27] REQ_SET(priority=0x10, entity_id=Jabbos (ID: 16822536/0x0100B108), tag_num=0x1B)
150: 0x0BD7 [0x2B] Jabbos (ID: 16822536/0x0100B108) [8174*]:
    → "I see... Let's...do this... <Player>...you come to...Shaft 2716 too..."
151: 0x0BDE [0x23] WAIT_FOR_DIALOG_INTERACTION
152: 0x0BDF [0x2A] GET_REQ_LEVEL(level=16, entity_id=Jabbos (ID: 16822536/0x0100B108))
153: 0x0BE5 [0x01] GOTO 0x0CF3
154: 0x0BE8 [0x02] IF !(Work_Zone[0] == 1*) GOTO 0x0C70
155: 0x0BF0 [0x6E] LocalPlayer uses emote 6*
156: 0x0BF7 [0x99] Wait for LocalPlayer animation to complete
157: 0x0BFC [0x1C] WAIT(90* ticks)
158: 0x0BFF [0x02] IF !(Work_Zone[9] == 5*) GOTO 0x0C19
159: 0x0C07 [0x52] END_LOAD_SCHEDULER: End scheduler "s081" with entities [EventEntity, EventEntity], work=932*
160: 0x0C16 [0x01] GOTO 0x0C42
161: 0x0C19 [0x02] IF !(Work_Zone[9] == 6*) GOTO 0x0C33
162: 0x0C21 [0x52] END_LOAD_SCHEDULER: End scheduler "s081" with entities [EventEntity, EventEntity], work=932*
163: 0x0C30 [0x01] GOTO 0x0C42
164: 0x0C33 [0x52] END_LOAD_SCHEDULER: End scheduler "s078" with entities [EventEntity, EventEntity], work=932*

SUBROUTINE_0C42:
165: 0x0C42 [0x03] Work_Zone[1] = 1*
166: 0x0C47 [0x45] LOAD_SCHEDULED_TASK: Load scheduler "s079" with entities [EventEntity, EventEntity], work=[932*, 0*]
167: 0x0C58 [0x27] REQ_SET(priority=0x10, entity_id=Jabbos (ID: 16822536/0x0100B108), tag_num=0x1B)
168: 0x0C5F [0x2B] Jabbos (ID: 16822536/0x0100B108) [8175*]:
    → "Very well... In that case...<Player>...I want you...to go to...Shaft 2716...and explain the situation..."
169: 0x0C66 [0x23] WAIT_FOR_DIALOG_INTERACTION
170: 0x0C67 [0x2A] GET_REQ_LEVEL(level=16, entity_id=Jabbos (ID: 16822536/0x0100B108))
171: 0x0C6D [0x01] GOTO 0x0CF3
172: 0x0C70 [0x02] IF !(Work_Zone[0] == 2*) GOTO 0x0CF3
173: 0x0C78 [0x6E] LocalPlayer uses emote 6*
174: 0x0C7F [0x99] Wait for LocalPlayer animation to complete
175: 0x0C84 [0x1C] WAIT(90* ticks)
176: 0x0C87 [0x02] IF !(Work_Zone[9] == 5*) GOTO 0x0CA1
177: 0x0C8F [0x52] END_LOAD_SCHEDULER: End scheduler "s081" with entities [EventEntity, EventEntity], work=932*
178: 0x0C9E [0x01] GOTO 0x0CCA
179: 0x0CA1 [0x02] IF !(Work_Zone[9] == 6*) GOTO 0x0CBB
180: 0x0CA9 [0x52] END_LOAD_SCHEDULER: End scheduler "s081" with entities [EventEntity, EventEntity], work=932*
181: 0x0CB8 [0x01] GOTO 0x0CCA
182: 0x0CBB [0x52] END_LOAD_SCHEDULER: End scheduler "s078" with entities [EventEntity, EventEntity], work=932*

SUBROUTINE_0CCA:
183: 0x0CCA [0x45] LOAD_SCHEDULED_TASK: Load scheduler "s079" with entities [EventEntity, EventEntity], work=[932*, 0*]
184: 0x0CDB [0x27] REQ_SET(priority=0x10, entity_id=Jabbos (ID: 16822536/0x0100B108), tag_num=0x1B)
185: 0x0CE2 [0x2B] Jabbos (ID: 16822536/0x0100B108) [8176*]:
    → "Very well... <Player>...you come to...Shaft 2716...and talk to them..."
186: 0x0CE9 [0x23] WAIT_FOR_DIALOG_INTERACTION
187: 0x0CEA [0x2A] GET_REQ_LEVEL(level=16, entity_id=Jabbos (ID: 16822536/0x0100B108))
188: 0x0CF0 [0x01] GOTO 0x0CF3

SUBROUTINE_0CF3:
189: 0x0CF3 [0x52] END_LOAD_SCHEDULER: End scheduler "s079" with entities [EventEntity, EventEntity], work=932*
190: 0x0D02 [0x45] LOAD_SCHEDULED_TASK: Load scheduler "s080" with entities [EventEntity, EventEntity], work=[932*, 0*]
191: 0x0D13 [0x1C] WAIT(30* ticks)
192: 0x0D16 [0x6E] LocalPlayer uses emote 7*
193: 0x0D1D [0x99] Wait for LocalPlayer animation to complete
194: 0x0D22 [0x1C] WAIT(90* ticks)
195: 0x0D25 [0x5D] SET_MUSIC_VOLUME(volume=0*, fade_time=300*)
196: 0x0D2A [0x1A] CALL_SUBROUTINE(address=0x0064)
197: 0x0D2D [0x52] END_LOAD_SCHEDULER: End scheduler "s080" with entities [EventEntity, EventEntity], work=932*
198: 0x0D3C [0x5C] MUSIC_CONTROL: Set Idle (Day) music to song 221*
199: 0x0D40 [0x5C] MUSIC_CONTROL: Set Idle (Night) music to song 221*
200: 0x0D44 [0x9A] WAIT_MUSIC_SERVER()
201: 0x0D45 [0x5D] SET_MUSIC_VOLUME(volume=127*, fade_time=1*)
202: 0x0D4A [0x1C] WAIT(15* ticks)
203: 0x0D4D [0xAB] EventEntity->DespawnValue = 0* // Set despawn value
204: 0x0D51 [0x1C] WAIT(1* ticks)
205: 0x0D54 [0x46] CAMERA_CONTROL: Restore default settings
206: 0x0D56 [0x45] LOAD_SCHEDULED_TASK: Load scheduler "fdi2" with entities [EventEntity, EventEntity], work=[200*, 0*]
207: 0x0D67 [0x21] END_EVENT
208: 0x0D68 [0x00] END_REQSTACK()
```

### Event 70

#### Metadata

| Field        | Value      |
|--------------|------------|
| Entrypoint   | 0x0D69     |
| Data Size    | 3224 bytes |
| Instructions | 447        |

```
      00 01 02 03 04 05 06 07  08 09 0A 0B 0C 0D 0E 0F
      -- -- -- -- -- -- -- --  -- -- -- -- -- -- -- --
0D60:                             03 01 00 06 10 42 5D           .....B]
0D70: 01 80 08 80 1A 64 00 46  01 38 09 80 2F 00 08 B1  .....d.F.8../...
0D80: 00 01 2F 00 1C B1 00 01  2F 00 1D B1 00 01 4E 00  ../...../.....N.
0D90: 08 B1 00 01 4E 00 1C B1  00 01 4E 00 1D B1 00 01  ....N.....N.....
0DA0: 92 01 D9 B0 00 01 92 01  E1 B0 00 01 92 01 E5 B0  ................
0DB0: 00 01 94 01 D9 B0 00 01  94 01 E1 B0 00 01 94 01  ................
0DC0: E5 B0 00 01 94 01 08 B1  00 01 94 01 1C B1 00 01  ................
0DD0: 94 01 1D B1 00 01 94 01  F0 FF FF 7F BA D9 B0 00  ................
0DE0: 01 0A 80 0B 80 0C 80 0D  80 BA E1 B0 00 01 0E 80  ................
0DF0: 0F 80 10 80 11 80 BA E5  B0 00 01 12 80 13 80 14  ................
0E00: 80 15 80 BA 08 B1 00 01  49 80 4A 80 0C 80 4B 80  ........I.J...K.
0E10: BA 1C B1 00 01 4C 80 4D  80 4E 80 4F 80 BA 1D B1  .....L.M.N.O....
0E20: 00 01 50 80 51 80 4E 80  4F 80 BA F0 FF FF 7F 52  ..P.Q.N.O......R
0E30: 80 53 80 0C 80 0D 80 80  D9 B0 00 01 80 E1 B0 00  .S..............
0E40: 01 80 E5 B0 00 01 80 08  B1 00 01 80 1C B1 00 01  ................
0E50: 80 1D B1 00 01 80 F0 FF  FF 7F 4A F0 FF FF 7F D9  ..........J.....
0E60: B0 00 01 4A D9 B0 00 01  08 B1 00 01 4A 08 B1 00  ...J........J...
0E70: 01 D9 B0 00 01 6F 76 D9  B0 00 01 6F 76 08 B1 00  .....ov....ov...
0E80: 01 6F 76 F0 FF FF 7F 29  0F F0 FF FF 7F 06 02 09  .ov....)........
0E90: 10 1F 80 00 9E 0E 7B F0  FF FF 7F 01 AB 0E 02 09  ......{.........
0EA0: 10 21 80 00 AB 0E 7B F0  FF FF 7F 5C 00 54 80 5C  .!....{....\.T.\
0EB0: 01 54 80 9A 5D 1E 80 03  80 29 0F D9 B0 00 01 26  .T..]....).....&
0EC0: 29 0F D9 B0 00 01 27 27  0F 1C B1 00 01 14 27 0F  ).....''......'.
0ED0: 1D B1 00 01 11 45 20 80  F8 FF FF 7F F8 FF FF 7F  .....E .........
0EE0: 73 30 38 33 01 80 1A 43  00 1C 45 80 2B D9 B0 00  s083...C..E.+...
0EF0: 01 55 80 1C 56 80 52 20  80 F8 FF FF 7F F8 FF FF  .U..V.R ........
0F00: 7F 73 30 38 33 02 09 10  1F 80 00 21 0F 45 20 80  .s083......!.E .
0F10: F8 FF FF 7F F8 FF FF 7F  73 30 39 39 01 80 01 4E  ........s099...N
0F20: 0F 02 09 10 21 80 00 3D  0F 45 20 80 F8 FF FF 7F  ....!..=.E .....
0F30: F8 FF FF 7F 73 30 39 39  01 80 01 4E 0F 45 20 80  ....s099...N.E .
0F40: F8 FF FF 7F F8 FF FF 7F  73 30 38 32 01 80 23 29  ........s082..#)
0F50: 0F D9 B0 00 01 28 27 0F  08 B1 00 01 1B 2B 08 B1  .....('......+..
0F60: 00 01 57 80 23 2A 0F 08  B1 00 01 29 0F D9 B0 00  ..W.#*.....)....
0F70: 01 29 2A 0F 1C B1 00 01  2A 0F 1D B1 00 01 02 09  .)*.....*.......
0F80: 10 1F 80 00 98 0F 52 20  80 F8 FF FF 7F F8 FF FF  ......R ........
0F90: 7F 73 30 39 39 01 C1 0F  02 09 10 21 80 00 B2 0F  .s099......!....
0FA0: 52 20 80 F8 FF FF 7F F8  FF FF 7F 73 30 39 39 01  R .........s099.
0FB0: C1 0F 52 20 80 F8 FF FF  7F F8 FF FF 7F 73 30 38  ..R .........s08
0FC0: 32 45 20 80 F8 FF FF 7F  F8 FF FF 7F 73 30 38 34  2E .........s084
0FD0: 01 80 4A 08 B1 00 01 F0  FF FF 7F 6F 76 08 B1 00  ..J........ov...
0FE0: 01 4B F0 FF FF 7F 58 80  79 00 F0 FF FF 7F 08 B1  .K....X.y.......
0FF0: 00 01 29 0F 08 B1 00 01  10 2B 08 B1 00 01 59 80  ..)......+....Y.
1000: 1C 06 80 4A D9 B0 00 01  F0 FF FF 7F 6F 76 D9 B0  ...J........ov..
1010: 00 01 23 6F 76 F0 FF FF  7F 29 0F 08 B1 00 01 11  ..#ov....)......
1020: 79 00 08 B1 00 01 1D B1  00 01 29 0F 08 B1 00 01  y.........).....
1030: 12 29 0F 08 B1 00 01 13  52 20 80 F8 FF FF 7F F8  .)......R ......
1040: FF FF 7F 73 30 38 34 45  20 80 F8 FF FF 7F F8 FF  ...s084E .......
1050: FF 7F 73 30 38 35 01 80  29 0F 08 B1 00 01 25 2B  ..s085..).....%+
1060: 08 B1 00 01 5A 80 23 4A  D9 B0 00 01 08 B1 00 01  ....Z.#J........
1070: 2B 08 B1 00 01 5B 80 23  6F 76 D9 B0 00 01 29 0F  +....[.#ov....).
1080: 08 B1 00 01 26 29 0F 08  B1 00 01 27 52 20 80 F8  ....&).....'R ..
1090: FF FF 7F F8 FF FF 7F 73  30 38 35 45 20 80 F8 FF  .......s085E ...
10A0: FF 7F F8 FF FF 7F 73 30  38 36 01 80 29 0F D9 B0  ......s086..)...
10B0: 00 01 1E 2B D9 B0 00 01  5C 80 1C 5D 80 79 00 F0  ...+....\..].y..
10C0: FF FF 7F D9 B0 00 01 4A  08 B1 00 01 D9 B0 00 01  .......J........
10D0: 6F 76 08 B1 00 01 23 29  0F 08 B1 00 01 28 2B D9  ov....#).....(+.
10E0: B0 00 01 5E 80 23 2B D9  B0 00 01 5F 80 23 29 0F  ...^.#+...._.#).
10F0: D9 B0 00 01 1F 29 0F D9  B0 00 01 20 52 20 80 F8  .....)..... R ..
1100: FF FF 7F F8 FF FF 7F 73  30 38 36 02 09 10 1F 80  .......s086.....
1110: 00 27 11 45 20 80 F8 FF  FF 7F F8 FF FF 7F 73 31  .'.E .........s1
1120: 30 30 01 80 01 54 11 02  09 10 21 80 00 43 11 45  00...T....!..C.E
1130: 20 80 F8 FF FF 7F F8 FF  FF 7F 73 31 30 30 01 80   .........s100..
1140: 01 54 11 45 20 80 F8 FF  FF 7F F8 FF FF 7F 73 30  .T.E .........s0
1150: 38 37 01 80 4A 08 B1 00  01 F0 FF FF 7F 6F 76 08  87..J........ov.
1160: B1 00 01 79 00 F0 FF FF  7F 08 B1 00 01 29 0F 08  ...y.........)..
1170: B1 00 01 10 2B 08 B1 00  01 60 80 29 0F D9 B0 00  ....+....`.)....
1180: 01 21 4A D9 B0 00 01 F0  FF FF 7F 6F 76 D9 B0 00  .!J........ov...
1190: 01 23 2B 08 B1 00 01 61  80 23 29 0F 08 B1 00 01  .#+....a.#).....
11A0: 11 29 0F 08 B1 00 01 12  29 0F 08 B1 00 01 13 02  .)......).......
11B0: 09 10 1F 80 00 C9 11 52  20 80 F8 FF FF 7F F8 FF  .......R .......
11C0: FF 7F 73 31 30 30 01 F2  11 02 09 10 21 80 00 E3  ..s100......!...
11D0: 11 52 20 80 F8 FF FF 7F  F8 FF FF 7F 73 31 30 30  .R .........s100
11E0: 01 F2 11 52 20 80 F8 FF  FF 7F F8 FF FF 7F 73 30  ...R .........s0
11F0: 38 37 45 20 80 F8 FF FF  7F F8 FF FF 7F 73 30 38  87E .........s08
1200: 38 01 80 4A 1D B1 00 01  08 B1 00 01 4A 1C B1 00  8..J........J...
1210: 01 08 B1 00 01 29 0F D9  B0 00 01 26 79 00 F0 FF  .....).....&y...
1220: FF 7F D9 B0 00 01 2B D9  B0 00 01 62 80 23 29 0F  ......+....b.#).
1230: D9 B0 00 01 27 29 0F D9  B0 00 01 28 6F 76 1D B1  ....').....(ov..
1240: 00 01 6F 76 1C B1 00 01  52 20 80 F8 FF FF 7F F8  ..ov....R ......
1250: FF FF 7F 73 30 38 38 45  20 80 F8 FF FF 7F F8 FF  ...s088E .......
1260: FF 7F 73 30 38 39 01 80  29 0F 1D B1 00 01 0A 2B  ..s089..)......+
1270: 1D B1 00 01 63 80 1C 06  80 4A 08 B1 00 01 1D B1  ....c....J......
1280: 00 01 1C 06 80 4A D9 B0  00 01 1D B1 00 01 4A F0  .....J........J.
1290: FF FF 7F 1D B1 00 01 4A  1C B1 00 01 1D B1 00 01  .......J........
12A0: 6F 76 1C B1 00 01 23 52  20 80 F8 FF FF 7F F8 FF  ov....#R .......
12B0: FF 7F 73 30 38 39 45 20  80 F8 FF FF 7F F8 FF FF  ..s089E ........
12C0: 7F 73 30 39 30 01 80 2B  1D B1 00 01 64 80 23 29  .s090..+....d.#)
12D0: 0F 1D B1 00 01 0B 52 20  80 F8 FF FF 7F F8 FF FF  ......R ........
12E0: 7F 73 30 39 30 45 20 80  F8 FF FF 7F F8 FF FF 7F  .s090E .........
12F0: 73 30 39 31 01 80 29 0F  1C B1 00 01 0B 2B 1C B1  s091..)......+..
1300: 00 01 65 80 1C 06 80 4A  1D B1 00 01 1C B1 00 01  ..e....J........
1310: 6F 76 1D B1 00 01 23 29  0F 1C B1 00 01 0C 2B 1D  ov....#)......+.
1320: B1 00 01 66 80 23 29 0F  1C B1 00 01 05 2B 1C B1  ...f.#)......+..
1330: 00 01 67 80 23 29 0F 1D  B1 00 01 0A 2B 1D B1 00  ..g.#)......+...
1340: 01 68 80 29 0F 1C B1 00  01 06 29 0F 1C B1 00 01  .h.)......).....
1350: 07 23 29 0F 1C B1 00 01  08 29 0F 1D B1 00 01 0B  .#)......)......
1360: 5D 01 80 08 80 4B 1D B1  00 01 01 80 6F 76 1D B1  ]....K......ov..
1370: 00 01 4B 1C B1 00 01 01  80 6F 76 1C B1 00 01 1C  ..K......ov.....
1380: 45 80 52 20 80 F8 FF FF  7F F8 FF FF 7F 73 30 39  E.R .........s09
1390: 31 45 20 80 F8 FF FF 7F  F8 FF FF 7F 73 30 39 32  1E .........s092
13A0: 01 80 45 20 80 F8 FF FF  7F F8 FF FF 7F 38 31 36  ..E .........816
13B0: 30 01 80 4B 1D B1 00 01  01 80 6F 76 1D B1 00 01  0..K......ov....
13C0: 2B 1D B1 00 01 69 80 23  1C 6A 80 52 20 80 F8 FF  +....i.#.j.R ...
13D0: FF 7F F8 FF FF 7F 73 30  39 32 45 20 80 F8 FF FF  ......s092E ....
13E0: 7F F8 FF FF 7F 73 30 39  33 01 80 45 20 80 F8 FF  .....s093..E ...
13F0: FF 7F F8 FF FF 7F 38 31  36 30 01 80 4B F0 FF FF  ......8160..K...
1400: 7F 6B 80 4B 1C B1 00 01  01 80 6F 76 1C B1 00 01  .k.K......ov....
1410: 6F 76 F0 FF FF 7F 79 00  F0 FF FF 7F 1D B1 00 01  ov....y.........
1420: 29 0F 1C B1 00 01 05 2B  1C B1 00 01 6C 80 1C 45  )......+....l..E
1430: 80 52 20 80 F8 FF FF 7F  F8 FF FF 7F 73 30 39 33  .R .........s093
1440: 45 20 80 F8 FF FF 7F F8  FF FF 7F 62 72 6F 66 01  E .........brof.
1450: 80 02 09 10 6D 80 00 6D  14 45 20 80 F8 FF FF 7F  ....m..m.E .....
1460: F8 FF FF 7F 73 30 39 34  01 80 01 D2 14 02 09 10  ....s094........
1470: 1F 80 00 89 14 45 20 80  F8 FF FF 7F F8 FF FF 7F  .....E .........
1480: 73 31 30 31 01 80 01 D2  14 02 09 10 21 80 00 A5  s101........!...
1490: 14 45 20 80 F8 FF FF 7F  F8 FF FF 7F 73 31 30 31  .E .........s101
14A0: 01 80 01 D2 14 02 09 10  6E 80 00 C1 14 45 20 80  ........n....E .
14B0: F8 FF FF 7F F8 FF FF 7F  73 30 39 34 01 80 01 D2  ........s094....
14C0: 14 45 20 80 F8 FF FF 7F  F8 FF FF 7F 73 31 30 33  .E .........s103
14D0: 01 80 29 0F 1C B1 00 01  06 79 00 F0 FF FF 7F 1D  ..)......y......
14E0: B1 00 01 4A 1D B1 00 01  F0 FF FF 7F 4A 1C B1 00  ...J........J...
14F0: 01 F0 FF FF 7F 79 00 F0  FF FF 7F 1D B1 00 01 6F  .....y.........o
1500: 76 1D B1 00 01 6F 76 1C  B1 00 01 1C 45 80 29 0F  v....ov.....E.).
1510: 1C B1 00 01 07 2B 1C B1  00 01 6F 80 23 29 0F 1C  .....+....o.#)..
1520: B1 00 01 08 24 70 80 01  80 01 80 25 02 00 10 01  ....$p.....%....
1530: 80 00 E0 16 02 01 00 71  80 80 46 15 27 0F F0 FF  .......q..F.'...
1540: FF 7F 20 01 B2 15 02 01  00 72 80 80 58 15 27 0F  .. ......r..X.'.
1550: F0 FF FF 7F 21 01 B2 15  02 01 00 73 80 80 6A 15  ....!......s..j.
1560: 27 0F F0 FF FF 7F 22 01  B2 15 02 01 00 74 80 80  '....."......t..
1570: 7C 15 27 0F F0 FF FF 7F  23 01 B2 15 02 01 00 75  |.'.....#......u
1580: 80 80 8E 15 27 0F F0 FF  FF 7F 24 01 B2 15 02 01  ....'.....$.....
1590: 00 76 80 80 A0 15 27 0F  F0 FF FF 7F 25 01 B2 15  .v....'.....%...
15A0: 02 01 00 77 80 80 B2 15  27 0F F0 FF FF 7F 26 01  ...w....'.....&.
15B0: B2 15 1C 45 80 02 09 10  6D 80 00 CF 15 52 20 80  ...E....m....R .
15C0: F8 FF FF 7F F8 FF FF 7F  73 30 39 34 01 2C 16 02  ........s094.,..
15D0: 09 10 1F 80 00 E9 15 52  20 80 F8 FF FF 7F F8 FF  .......R .......
15E0: FF 7F 73 31 30 31 01 2C  16 02 09 10 21 80 00 03  ..s101.,....!...
15F0: 16 52 20 80 F8 FF FF 7F  F8 FF FF 7F 73 31 30 31  .R .........s101
1600: 01 2C 16 02 09 10 6E 80  00 1D 16 52 20 80 F8 FF  .,....n....R ...
1610: FF 7F F8 FF FF 7F 73 30  39 34 01 2C 16 52 20 80  ......s094.,.R .
1620: F8 FF FF 7F F8 FF FF 7F  73 31 30 33 02 09 10 1F  ........s103....
1630: 80 00 48 16 45 20 80 F8  FF FF 7F F8 FF FF 7F 73  ..H.E .........s
1640: 31 30 32 01 80 01 75 16  02 09 10 21 80 00 64 16  102...u....!..d.
1650: 45 20 80 F8 FF FF 7F F8  FF FF 7F 73 31 30 32 01  E .........s102.
1660: 80 01 75 16 45 20 80 F8  FF FF 7F F8 FF FF 7F 73  ..u.E .........s
1670: 30 39 35 01 80 45 20 80  F8 FF FF 7F F8 FF FF 7F  095..E .........
1680: 38 31 36 30 01 80 1C 45  80 5C 00 78 80 5C 01 78  8160...E.\.x.\.x
1690: 80 9A 5D 1E 80 03 80 1C  29 80 02 09 10 1F 80 00  ..].....).......
16A0: B4 16 52 20 80 F8 FF FF  7F F8 FF FF 7F 73 31 30  ..R .........s10
16B0: 32 01 DD 16 02 09 10 21  80 00 CE 16 52 20 80 F8  2......!....R ..
16C0: FF FF 7F F8 FF FF 7F 73  31 30 32 01 DD 16 52 20  .......s102...R 
16D0: 80 F8 FF FF 7F F8 FF FF  7F 73 30 39 35 01 28 18  .........s095.(.
16E0: 02 00 10 03 80 00 28 18  02 09 10 6D 80 00 02 17  ......(....m....
16F0: 52 20 80 F8 FF FF 7F F8  FF FF 7F 73 30 39 34 01  R .........s094.
1700: 5F 17 02 09 10 1F 80 00  1C 17 52 20 80 F8 FF FF  _.........R ....
1710: 7F F8 FF FF 7F 73 31 30  31 01 5F 17 02 09 10 21  .....s101._....!
1720: 80 00 36 17 52 20 80 F8  FF FF 7F F8 FF FF 7F 73  ..6.R .........s
1730: 31 30 31 01 5F 17 02 09  10 6E 80 00 50 17 52 20  101._....n..P.R 
1740: 80 F8 FF FF 7F F8 FF FF  7F 73 30 39 34 01 5F 17  .........s094._.
1750: 52 20 80 F8 FF FF 7F F8  FF FF 7F 73 31 30 33 02  R .........s103.
1760: 09 10 1F 80 00 7B 17 45  20 80 F8 FF FF 7F F8 FF  .....{.E .......
1770: FF 7F 73 31 30 32 01 80  01 A8 17 02 09 10 21 80  ..s102........!.
1780: 00 97 17 45 20 80 F8 FF  FF 7F F8 FF FF 7F 73 31  ...E .........s1
1790: 30 32 01 80 01 A8 17 45  20 80 F8 FF FF 7F F8 FF  02.....E .......
17A0: FF 7F 73 30 39 35 01 80  7B F0 FF FF 7F 4A 08 B1  ..s095..{....J..
17B0: 00 01 F0 FF FF 7F 6F 76  08 B1 00 01 6E 08 B1 00  ......ov....n...
17C0: 01 01 80 99 08 B1 00 01  1C 6A 80 2B 08 B1 00 01  .........j.+....
17D0: 79 80 6E F0 FF FF 7F 7A  80 99 F0 FF FF 7F 23 1C  y.n....z......#.
17E0: 29 80 02 09 10 1F 80 00  FC 17 52 20 80 F8 FF FF  ).........R ....
17F0: 7F F8 FF FF 7F 73 31 30  32 01 25 18 02 09 10 21  .....s102.%....!
1800: 80 00 16 18 52 20 80 F8  FF FF 7F F8 FF FF 7F 73  ....R .........s
1810: 31 30 32 01 25 18 52 20  80 F8 FF FF 7F F8 FF FF  102.%.R ........
1820: 7F 73 30 39 35 01 28 18  45 20 80 F8 FF FF 7F F8  .s095.(.E ......
1830: FF FF 7F 73 30 39 36 01  80 1C 06 80 2B 1D B1 00  ...s096.....+...
1840: 01 7B 80 29 0F 1C B1 00  01 0F 29 0F 1D B1 00 01  .{.)......).....
1850: 0A 1C 56 80 45 20 80 F8  FF FF 7F F8 FF FF 7F 38  ..V.E .........8
1860: 31 36 30 01 80 2B 1D B1  00 01 7C 80 23 29 0F 1C  160..+....|.#)..
1870: B1 00 01 10 52 20 80 F8  FF FF 7F F8 FF FF 7F 73  ....R .........s
1880: 30 39 36 45 20 80 F8 FF  FF 7F F8 FF FF 7F 62 72  096E .........br
1890: 6F 66 01 80 45 20 80 F8  FF FF 7F F8 FF FF 7F 73  of..E .........s
18A0: 30 39 37 01 80 29 0F 1D  B1 00 01 0B 1C 29 80 29  097..).......).)
18B0: 0F 1D B1 00 01 0A 2B 1D  B1 00 01 7D 80 23 29 0F  ......+....}.#).
18C0: 1C B1 00 01 05 2B 1C B1  00 01 7E 80 23 52 20 80  .....+....~.#R .
18D0: F8 FF FF 7F F8 FF FF 7F  73 30 39 37 45 20 80 F8  ........s097E ..
18E0: FF FF 7F F8 FF FF 7F 73  30 38 30 01 80 29 0F 1D  .......s080..)..
18F0: B1 00 01 0B 27 0F 1D B1  00 01 12 1C 5D 80 29 0F  ....'.......].).
1900: 1C B1 00 01 06 27 0F 1C  B1 00 01 15 1C 06 80 1C  .....'..........
1910: 29 80 4A 08 B1 00 01 F0  FF FF 7F 6F 76 08 B1 00  ).J........ov...
1920: 01 52 20 80 F8 FF FF 7F  F8 FF FF 7F 73 30 38 30  .R .........s080
1930: 45 20 80 F8 FF FF 7F F8  FF FF 7F 73 30 39 38 01  E .........s098.
1940: 80 2B 08 B1 00 01 7F 80  1C 06 80 4A F0 FF FF 7F  .+.........J....
1950: 08 B1 00 01 4A D9 B0 00  01 F0 FF FF 7F 6F 76 F0  ....J........ov.
1960: FF FF 7F 6F 76 D9 B0 00  01 23 2B 08 B1 00 01 80  ...ov....#+.....
1970: 80 23 52 20 80 F8 FF FF  7F F8 FF FF 7F 73 30 39  .#R .........s09
1980: 38 45 20 80 F8 FF FF 7F  F8 FF FF 7F 73 30 38 35  8E .........s085
1990: 01 80 2B 08 B1 00 01 81  80 23 52 20 80 F8 FF FF  ..+......#R ....
19A0: 7F F8 FF FF 7F 73 30 38  35 45 20 80 F8 FF FF 7F  .....s085E .....
19B0: F8 FF FF 7F 73 30 38 30  01 80 1C 45 80 5D 01 80  ....s080...E.]..
19C0: 08 80 1A 64 00 52 20 80  F8 FF FF 7F F8 FF FF 7F  ...d.R .........
19D0: 73 30 38 30 5C 00 30 80  5C 01 30 80 9A 5D 1E 80  s080\.0.\.0..]..
19E0: 03 80 1C 31 80 AB 11 01  80 1C 03 80 46 00 45 00  ...1........F.E.
19F0: 80 F8 FF FF 7F F8 FF FF  7F 66 64 69 32 01 80 21  .........fdi2..!
1A00: 00                                                .               
```

#### Opcodes

```
  0: 0x0D69 [0x03] ExtData[1]->WorkLocal[1] = Work_Zone[6]
  1: 0x0D6E [0x42] SET_CLI_EVENT_CANCEL_DATA()
  2: 0x0D6F [0x5D] SET_MUSIC_VOLUME(volume=0*, fade_time=300*)
  3: 0x0D74 [0x1A] CALL_SUBROUTINE(address=0x0064)
  4: 0x0D77 [0x46] CAMERA_CONTROL: Disable user control
  5: 0x0D79 [0x38] SET_CLIENT_EVENT_MODE(mode=147*)
  6: 0x0D7C [0x2F] Jabbos (ID: 16822536/0x0100B108)->Render.Flags0 &= ~0x80000 // Bit 19
  7: 0x0D82 [0x2F] Magh Bihu (ID: 16822556/0x0100B11C)->Render.Flags0 &= ~0x80000 // Bit 19
  8: 0x0D88 [0x2F] Dazbog (ID: 16822557/0x0100B11D)->Render.Flags0 &= ~0x80000 // Bit 19
  9: 0x0D8E [0x4E] SET_ENTITY_HIDE_FLAG: Show Jabbos (ID: 16822536/0x0100B108)
 10: 0x0D94 [0x4E] SET_ENTITY_HIDE_FLAG: Show Magh Bihu (ID: 16822556/0x0100B11C)
 11: 0x0D9A [0x4E] SET_ENTITY_HIDE_FLAG: Show Dazbog (ID: 16822557/0x0100B11D)
 12: 0x0DA0 [0x92] Tarnotik (ID: 16822489/0x0100B0D9)->Render.Flags3 ^= 0x01
 13: 0x0DA6 [0x92] Brakobrik (ID: 16822497/0x0100B0E1)->Render.Flags3 ^= 0x01
 14: 0x0DAC [0x92] Rakorok (ID: 16822501/0x0100B0E5)->Render.Flags3 ^= 0x01
 15: 0x0DB2 [0x94] Tarnotik (ID: 16822489/0x0100B0D9)->Render.Flags3 ^= 0x01
 16: 0x0DB8 [0x94] Brakobrik (ID: 16822497/0x0100B0E1)->Render.Flags3 ^= 0x01
 17: 0x0DBE [0x94] Rakorok (ID: 16822501/0x0100B0E5)->Render.Flags3 ^= 0x01
 18: 0x0DC4 [0x94] Jabbos (ID: 16822536/0x0100B108)->Render.Flags3 ^= 0x01
 19: 0x0DCA [0x94] Magh Bihu (ID: 16822556/0x0100B11C)->Render.Flags3 ^= 0x01
 20: 0x0DD0 [0x94] Dazbog (ID: 16822557/0x0100B11D)->Render.Flags3 ^= 0x01
 21: 0x0DD6 [0x94] LocalPlayer->Render.Flags3 ^= 0x01
 22: 0x0DDC [0xBA] SET_ENTITY_POSITION(entity_id=Tarnotik (ID: 16822489/0x0100B0D9), pos_x=160.896*, pos_z=-55.659*, pos_y=11.999*, direction=270.0°*)
 23: 0x0DE9 [0xBA] SET_ENTITY_POSITION(entity_id=Brakobrik (ID: 16822497/0x0100B0E1), pos_x=164.605*, pos_z=-91.253*, pos_y=11.992*, direction=129.2°*)
 24: 0x0DF6 [0xBA] SET_ENTITY_POSITION(entity_id=Rakorok (ID: 16822501/0x0100B0E5), pos_x=157.331*, pos_z=-40.840*, pos_y=13.999*, direction=202.3°*)
 25: 0x0E03 [0xBA] SET_ENTITY_POSITION(entity_id=Jabbos (ID: 16822536/0x0100B108), pos_x=162.782*, pos_z=-56.923*, pos_y=11.999*, direction=320.2°*)
 26: 0x0E10 [0xBA] SET_ENTITY_POSITION(entity_id=Magh Bihu (ID: 16822556/0x0100B11C), pos_x=152.361*, pos_z=-59.879*, pos_y=11.941*, direction=24.6°*)
 27: 0x0E1D [0xBA] SET_ENTITY_POSITION(entity_id=Dazbog (ID: 16822557/0x0100B11D), pos_x=149.582*, pos_z=-61.965*, pos_y=11.941*, direction=24.6°*)
 28: 0x0E2A [0xBA] SET_ENTITY_POSITION(entity_id=LocalPlayer, pos_x=160.553*, pos_z=-58.919*, pos_y=11.999*, direction=270.0°*)
 29: 0x0E37 [0x80] LOAD_WAIT(entity=Tarnotik (ID: 16822489/0x0100B0D9))
 30: 0x0E3C [0x80] LOAD_WAIT(entity=Brakobrik (ID: 16822497/0x0100B0E1))
 31: 0x0E41 [0x80] LOAD_WAIT(entity=Rakorok (ID: 16822501/0x0100B0E5))
 32: 0x0E46 [0x80] LOAD_WAIT(entity=Jabbos (ID: 16822536/0x0100B108))
 33: 0x0E4B [0x80] LOAD_WAIT(entity=Magh Bihu (ID: 16822556/0x0100B11C))
 34: 0x0E50 [0x80] LOAD_WAIT(entity=Dazbog (ID: 16822557/0x0100B11D))
 35: 0x0E55 [0x80] LOAD_WAIT(entity=LocalPlayer)
 36: 0x0E5A [0x4A] LocalPlayer looks at Tarnotik (ID: 16822489/0x0100B0D9)
 37: 0x0E63 [0x4A] Tarnotik (ID: 16822489/0x0100B0D9) looks at Jabbos (ID: 16822536/0x0100B108)
 38: 0x0E6C [0x4A] Jabbos (ID: 16822536/0x0100B108) looks at Tarnotik (ID: 16822489/0x0100B0D9)
 39: 0x0E75 [0x6F] WAIT_FRAME_DELAY: Yield until WaitTime reaches zero
 40: 0x0E76 [0x76] CHECK_ENTITY_RENDER_FLAGS: Wait until Tarnotik (ID: 16822489/0x0100B0D9) Render.Flags0 and Render.Flags3 conditions are met
 41: 0x0E7B [0x6F] WAIT_FRAME_DELAY: Yield until WaitTime reaches zero
 42: 0x0E7C [0x76] CHECK_ENTITY_RENDER_FLAGS: Wait until Jabbos (ID: 16822536/0x0100B108) Render.Flags0 and Render.Flags3 conditions are met
 43: 0x0E81 [0x6F] WAIT_FRAME_DELAY: Yield until WaitTime reaches zero
 44: 0x0E82 [0x76] CHECK_ENTITY_RENDER_FLAGS: Wait until LocalPlayer Render.Flags0 and Render.Flags3 conditions are met
 45: 0x0E87 [0x29] REQ_SET_WAIT(priority=0x0F, entity_id=LocalPlayer, tag_num=0x06)
 46: 0x0E8E [0x02] IF !(Work_Zone[9] == 5*) GOTO 0x0E9E
 47: 0x0E96 [0x7B] LocalPlayer stops talking
 48: 0x0E9B [0x01] GOTO 0x0EAB
 49: 0x0E9E [0x02] IF !(Work_Zone[9] == 6*) GOTO 0x0EAB
 50: 0x0EA6 [0x7B] LocalPlayer stops talking

SUBROUTINE_0EAB:
 51: 0x0EAB [0x5C] MUSIC_CONTROL: Set Idle (Day) music to song 31*
 52: 0x0EAF [0x5C] MUSIC_CONTROL: Set Idle (Night) music to song 31*
 53: 0x0EB3 [0x9A] WAIT_MUSIC_SERVER()
 54: 0x0EB4 [0x5D] SET_MUSIC_VOLUME(volume=127*, fade_time=1*)
 55: 0x0EB9 [0x29] REQ_SET_WAIT(priority=0x0F, entity_id=Tarnotik (ID: 16822489/0x0100B0D9), tag_num=0x26)
 56: 0x0EC0 [0x29] REQ_SET_WAIT(priority=0x0F, entity_id=Tarnotik (ID: 16822489/0x0100B0D9), tag_num=0x27)
 57: 0x0EC7 [0x27] REQ_SET(priority=0x0F, entity_id=Magh Bihu (ID: 16822556/0x0100B11C), tag_num=0x14)
 58: 0x0ECE [0x27] REQ_SET(priority=0x0F, entity_id=Dazbog (ID: 16822557/0x0100B11D), tag_num=0x11)
 59: 0x0ED5 [0x45] LOAD_SCHEDULED_TASK: Load scheduler "s083" with entities [EventEntity, EventEntity], work=[932*, 0*]
 60: 0x0EE6 [0x1A] CALL_SUBROUTINE(address=0x0043)
 61: 0x0EE9 [0x1C] WAIT(90* ticks)
 62: 0x0EEC [0x2B] Tarnotik (ID: 16822489/0x0100B0D9) [8179*]:
    → "Yes... Tarnotik think these stories be connected..."
 63: 0x0EF3 [0x1C] WAIT(40* ticks)
 64: 0x0EF6 [0x52] END_LOAD_SCHEDULER: End scheduler "s083" with entities [EventEntity, EventEntity], work=932*
 65: 0x0F05 [0x02] IF !(Work_Zone[9] == 5*) GOTO 0x0F21
 66: 0x0F0D [0x45] LOAD_SCHEDULED_TASK: Load scheduler "s099" with entities [EventEntity, EventEntity], work=[932*, 0*]
 67: 0x0F1E [0x01] GOTO 0x0F4E
 68: 0x0F21 [0x02] IF !(Work_Zone[9] == 6*) GOTO 0x0F3D
 69: 0x0F29 [0x45] LOAD_SCHEDULED_TASK: Load scheduler "s099" with entities [EventEntity, EventEntity], work=[932*, 0*]
 70: 0x0F3A [0x01] GOTO 0x0F4E
 71: 0x0F3D [0x45] LOAD_SCHEDULED_TASK: Load scheduler "s082" with entities [EventEntity, EventEntity], work=[932*, 0*]

SUBROUTINE_0F4E:
 72: 0x0F4E [0x23] WAIT_FOR_DIALOG_INTERACTION
 73: 0x0F4F [0x29] REQ_SET_WAIT(priority=0x0F, entity_id=Tarnotik (ID: 16822489/0x0100B0D9), tag_num=0x28)
 74: 0x0F56 [0x27] REQ_SET(priority=0x0F, entity_id=Jabbos (ID: 16822536/0x0100B108), tag_num=0x1B)
 75: 0x0F5D [0x2B] Jabbos (ID: 16822536/0x0100B108) [8180*]:
    → "So you...think so too?"
 76: 0x0F64 [0x23] WAIT_FOR_DIALOG_INTERACTION
 77: 0x0F65 [0x2A] GET_REQ_LEVEL(level=15, entity_id=Jabbos (ID: 16822536/0x0100B108))
 78: 0x0F6B [0x29] REQ_SET_WAIT(priority=0x0F, entity_id=Tarnotik (ID: 16822489/0x0100B0D9), tag_num=0x29)
 79: 0x0F72 [0x2A] GET_REQ_LEVEL(level=15, entity_id=Magh Bihu (ID: 16822556/0x0100B11C))
 80: 0x0F78 [0x2A] GET_REQ_LEVEL(level=15, entity_id=Dazbog (ID: 16822557/0x0100B11D))
 81: 0x0F7E [0x02] IF !(Work_Zone[9] == 5*) GOTO 0x0F98
 82: 0x0F86 [0x52] END_LOAD_SCHEDULER: End scheduler "s099" with entities [EventEntity, EventEntity], work=932*
 83: 0x0F95 [0x01] GOTO 0x0FC1
 84: 0x0F98 [0x02] IF !(Work_Zone[9] == 6*) GOTO 0x0FB2
 85: 0x0FA0 [0x52] END_LOAD_SCHEDULER: End scheduler "s099" with entities [EventEntity, EventEntity], work=932*
 86: 0x0FAF [0x01] GOTO 0x0FC1
 87: 0x0FB2 [0x52] END_LOAD_SCHEDULER: End scheduler "s082" with entities [EventEntity, EventEntity], work=932*

SUBROUTINE_0FC1:
 88: 0x0FC1 [0x45] LOAD_SCHEDULED_TASK: Load scheduler "s084" with entities [EventEntity, EventEntity], work=[932*, 0*]
 89: 0x0FD2 [0x4A] Jabbos (ID: 16822536/0x0100B108) looks at LocalPlayer
 90: 0x0FDB [0x6F] WAIT_FRAME_DELAY: Yield until WaitTime reaches zero
 91: 0x0FDC [0x76] CHECK_ENTITY_RENDER_FLAGS: Wait until Jabbos (ID: 16822536/0x0100B108) Render.Flags0 and Render.Flags3 conditions are met
 92: 0x0FE1 [0x4B] UPDATE_ENTITY_YAW(entity=LocalPlayer, yaw=19.2°*)
 93: 0x0FE8 [0x79] LocalPlayer looks at Jabbos (ID: 16822536/0x0100B108) (Basic look)
 94: 0x0FF2 [0x29] REQ_SET_WAIT(priority=0x0F, entity_id=Jabbos (ID: 16822536/0x0100B108), tag_num=0x10)
 95: 0x0FF9 [0x2B] Jabbos (ID: 16822536/0x0100B108) [8181*]:
    → "<Player>, Destiny Destroyers... Please...listen to...our story."
 96: 0x1000 [0x1C] WAIT(30* ticks)
 97: 0x1003 [0x4A] Tarnotik (ID: 16822489/0x0100B0D9) looks at LocalPlayer
 98: 0x100C [0x6F] WAIT_FRAME_DELAY: Yield until WaitTime reaches zero
 99: 0x100D [0x76] CHECK_ENTITY_RENDER_FLAGS: Wait until Tarnotik (ID: 16822489/0x0100B0D9) Render.Flags0 and Render.Flags3 conditions are met
100: 0x1012 [0x23] WAIT_FOR_DIALOG_INTERACTION
101: 0x1013 [0x6F] WAIT_FRAME_DELAY: Yield until WaitTime reaches zero
102: 0x1014 [0x76] CHECK_ENTITY_RENDER_FLAGS: Wait until LocalPlayer Render.Flags0 and Render.Flags3 conditions are met
103: 0x1019 [0x29] REQ_SET_WAIT(priority=0x0F, entity_id=Jabbos (ID: 16822536/0x0100B108), tag_num=0x11)
104: 0x1020 [0x79] Jabbos (ID: 16822536/0x0100B108) looks at Dazbog (ID: 16822557/0x0100B11D) (Basic look)
105: 0x102A [0x29] REQ_SET_WAIT(priority=0x0F, entity_id=Jabbos (ID: 16822536/0x0100B108), tag_num=0x12)
106: 0x1031 [0x29] REQ_SET_WAIT(priority=0x0F, entity_id=Jabbos (ID: 16822536/0x0100B108), tag_num=0x13)
107: 0x1038 [0x52] END_LOAD_SCHEDULER: End scheduler "s084" with entities [EventEntity, EventEntity], work=932*
108: 0x1047 [0x45] LOAD_SCHEDULED_TASK: Load scheduler "s085" with entities [EventEntity, EventEntity], work=[932*, 0*]
109: 0x1058 [0x29] REQ_SET_WAIT(priority=0x0F, entity_id=Jabbos (ID: 16822536/0x0100B108), tag_num=0x25)
110: 0x105F [0x2B] Jabbos (ID: 16822536/0x0100B108) [8182*]:
    → "After the explosion...an urgent message...came for the Orcs...Quadav...and Yagudo."
111: 0x1066 [0x23] WAIT_FOR_DIALOG_INTERACTION
112: 0x1067 [0x4A] Tarnotik (ID: 16822489/0x0100B0D9) looks at Jabbos (ID: 16822536/0x0100B108)
113: 0x1070 [0x2B] Jabbos (ID: 16822536/0x0100B108) [8183*]:
    → "I did not know...what the messenger...was saying... However..."
114: 0x1077 [0x23] WAIT_FOR_DIALOG_INTERACTION
115: 0x1078 [0x6F] WAIT_FRAME_DELAY: Yield until WaitTime reaches zero
116: 0x1079 [0x76] CHECK_ENTITY_RENDER_FLAGS: Wait until Tarnotik (ID: 16822489/0x0100B0D9) Render.Flags0 and Render.Flags3 conditions are met
117: 0x107E [0x29] REQ_SET_WAIT(priority=0x0F, entity_id=Jabbos (ID: 16822536/0x0100B108), tag_num=0x26)
118: 0x1085 [0x29] REQ_SET_WAIT(priority=0x0F, entity_id=Jabbos (ID: 16822536/0x0100B108), tag_num=0x27)
119: 0x108C [0x52] END_LOAD_SCHEDULER: End scheduler "s085" with entities [EventEntity, EventEntity], work=932*
120: 0x109B [0x45] LOAD_SCHEDULED_TASK: Load scheduler "s086" with entities [EventEntity, EventEntity], work=[932*, 0*]
121: 0x10AC [0x29] REQ_SET_WAIT(priority=0x0F, entity_id=Tarnotik (ID: 16822489/0x0100B0D9), tag_num=0x1E)
122: 0x10B3 [0x2B] Tarnotik (ID: 16822489/0x0100B0D9) [8184*]:
    → "Tarnotik know... I tell you!"
123: 0x10BA [0x1C] WAIT(20* ticks)
124: 0x10BD [0x79] LocalPlayer looks at Tarnotik (ID: 16822489/0x0100B0D9) (Basic look)
125: 0x10C7 [0x4A] Jabbos (ID: 16822536/0x0100B108) looks at Tarnotik (ID: 16822489/0x0100B0D9)
126: 0x10D0 [0x6F] WAIT_FRAME_DELAY: Yield until WaitTime reaches zero
127: 0x10D1 [0x76] CHECK_ENTITY_RENDER_FLAGS: Wait until Jabbos (ID: 16822536/0x0100B108) Render.Flags0 and Render.Flags3 conditions are met
128: 0x10D6 [0x23] WAIT_FOR_DIALOG_INTERACTION
129: 0x10D7 [0x29] REQ_SET_WAIT(priority=0x0F, entity_id=Jabbos (ID: 16822536/0x0100B108), tag_num=0x28)
130: 0x10DE [0x2B] Tarnotik (ID: 16822489/0x0100B0D9) [8185*]:
    → "Messenger say that traitors, Chaos's disciples, will be gathering!"
131: 0x10E5 [0x23] WAIT_FOR_DIALOG_INTERACTION
132: 0x10E6 [0x2B] Tarnotik (ID: 16822489/0x0100B0D9) [8186*]:
    → "Something was stolen, and the thief pursued... Everyone gather at Castle Zvahl!"
133: 0x10ED [0x23] WAIT_FOR_DIALOG_INTERACTION
134: 0x10EE [0x29] REQ_SET_WAIT(priority=0x0F, entity_id=Tarnotik (ID: 16822489/0x0100B0D9), tag_num=0x1F)
135: 0x10F5 [0x29] REQ_SET_WAIT(priority=0x0F, entity_id=Tarnotik (ID: 16822489/0x0100B0D9), tag_num=0x20)
136: 0x10FC [0x52] END_LOAD_SCHEDULER: End scheduler "s086" with entities [EventEntity, EventEntity], work=932*
137: 0x110B [0x02] IF !(Work_Zone[9] == 5*) GOTO 0x1127
138: 0x1113 [0x45] LOAD_SCHEDULED_TASK: Load scheduler "s100" with entities [EventEntity, EventEntity], work=[932*, 0*]
139: 0x1124 [0x01] GOTO 0x1154
140: 0x1127 [0x02] IF !(Work_Zone[9] == 6*) GOTO 0x1143
141: 0x112F [0x45] LOAD_SCHEDULED_TASK: Load scheduler "s100" with entities [EventEntity, EventEntity], work=[932*, 0*]
142: 0x1140 [0x01] GOTO 0x1154
143: 0x1143 [0x45] LOAD_SCHEDULED_TASK: Load scheduler "s087" with entities [EventEntity, EventEntity], work=[932*, 0*]

SUBROUTINE_1154:
144: 0x1154 [0x4A] Jabbos (ID: 16822536/0x0100B108) looks at LocalPlayer
145: 0x115D [0x6F] WAIT_FRAME_DELAY: Yield until WaitTime reaches zero
146: 0x115E [0x76] CHECK_ENTITY_RENDER_FLAGS: Wait until Jabbos (ID: 16822536/0x0100B108) Render.Flags0 and Render.Flags3 conditions are met
147: 0x1163 [0x79] LocalPlayer looks at Jabbos (ID: 16822536/0x0100B108) (Basic look)
148: 0x116D [0x29] REQ_SET_WAIT(priority=0x0F, entity_id=Jabbos (ID: 16822536/0x0100B108), tag_num=0x10)
149: 0x1174 [0x2B] Jabbos (ID: 16822536/0x0100B108) [8187*]:
    → "The Moblins...also said...the following..."
150: 0x117B [0x29] REQ_SET_WAIT(priority=0x0F, entity_id=Tarnotik (ID: 16822489/0x0100B0D9), tag_num=0x21)
151: 0x1182 [0x4A] Tarnotik (ID: 16822489/0x0100B0D9) looks at LocalPlayer
152: 0x118B [0x6F] WAIT_FRAME_DELAY: Yield until WaitTime reaches zero
153: 0x118C [0x76] CHECK_ENTITY_RENDER_FLAGS: Wait until Tarnotik (ID: 16822489/0x0100B0D9) Render.Flags0 and Render.Flags3 conditions are met
154: 0x1191 [0x23] WAIT_FOR_DIALOG_INTERACTION
155: 0x1192 [0x2B] Jabbos (ID: 16822536/0x0100B108) [8188*]:
    → "Apparently, there is magic...at Castle Zvahl...that can resurrect...the Shadow Lord."
156: 0x1199 [0x23] WAIT_FOR_DIALOG_INTERACTION
157: 0x119A [0x29] REQ_SET_WAIT(priority=0x0F, entity_id=Jabbos (ID: 16822536/0x0100B108), tag_num=0x11)
158: 0x11A1 [0x29] REQ_SET_WAIT(priority=0x0F, entity_id=Jabbos (ID: 16822536/0x0100B108), tag_num=0x12)
159: 0x11A8 [0x29] REQ_SET_WAIT(priority=0x0F, entity_id=Jabbos (ID: 16822536/0x0100B108), tag_num=0x13)
160: 0x11AF [0x02] IF !(Work_Zone[9] == 5*) GOTO 0x11C9
161: 0x11B7 [0x52] END_LOAD_SCHEDULER: End scheduler "s100" with entities [EventEntity, EventEntity], work=932*
162: 0x11C6 [0x01] GOTO 0x11F2
163: 0x11C9 [0x02] IF !(Work_Zone[9] == 6*) GOTO 0x11E3
164: 0x11D1 [0x52] END_LOAD_SCHEDULER: End scheduler "s100" with entities [EventEntity, EventEntity], work=932*
165: 0x11E0 [0x01] GOTO 0x11F2
166: 0x11E3 [0x52] END_LOAD_SCHEDULER: End scheduler "s087" with entities [EventEntity, EventEntity], work=932*

SUBROUTINE_11F2:
167: 0x11F2 [0x45] LOAD_SCHEDULED_TASK: Load scheduler "s088" with entities [EventEntity, EventEntity], work=[932*, 0*]
168: 0x1203 [0x4A] Dazbog (ID: 16822557/0x0100B11D) looks at Jabbos (ID: 16822536/0x0100B108)
169: 0x120C [0x4A] Magh Bihu (ID: 16822556/0x0100B11C) looks at Jabbos (ID: 16822536/0x0100B108)
170: 0x1215 [0x29] REQ_SET_WAIT(priority=0x0F, entity_id=Tarnotik (ID: 16822489/0x0100B0D9), tag_num=0x26)
171: 0x121C [0x79] LocalPlayer looks at Tarnotik (ID: 16822489/0x0100B0D9) (Basic look)
172: 0x1226 [0x2B] Tarnotik (ID: 16822489/0x0100B0D9) [8189*]:
    → "Maybe this magicite be used to resurrect Chaos and Garazu-Horeizu?"
173: 0x122D [0x23] WAIT_FOR_DIALOG_INTERACTION
174: 0x122E [0x29] REQ_SET_WAIT(priority=0x0F, entity_id=Tarnotik (ID: 16822489/0x0100B0D9), tag_num=0x27)
175: 0x1235 [0x29] REQ_SET_WAIT(priority=0x0F, entity_id=Tarnotik (ID: 16822489/0x0100B0D9), tag_num=0x28)
176: 0x123C [0x6F] WAIT_FRAME_DELAY: Yield until WaitTime reaches zero
177: 0x123D [0x76] CHECK_ENTITY_RENDER_FLAGS: Wait until Dazbog (ID: 16822557/0x0100B11D) Render.Flags0 and Render.Flags3 conditions are met
178: 0x1242 [0x6F] WAIT_FRAME_DELAY: Yield until WaitTime reaches zero
179: 0x1243 [0x76] CHECK_ENTITY_RENDER_FLAGS: Wait until Magh Bihu (ID: 16822556/0x0100B11C) Render.Flags0 and Render.Flags3 conditions are met
180: 0x1248 [0x52] END_LOAD_SCHEDULER: End scheduler "s088" with entities [EventEntity, EventEntity], work=932*
181: 0x1257 [0x45] LOAD_SCHEDULED_TASK: Load scheduler "s089" with entities [EventEntity, EventEntity], work=[932*, 0*]
182: 0x1268 [0x29] REQ_SET_WAIT(priority=0x0F, entity_id=Dazbog (ID: 16822557/0x0100B11D), tag_num=0x0A)
183: 0x126F [0x2B] Dazbog (ID: 16822557/0x0100B11D) [8190*]:
    → "Y-yes, it's definitely p-possible..."
184: 0x1276 [0x1C] WAIT(30* ticks)
185: 0x1279 [0x4A] Jabbos (ID: 16822536/0x0100B108) looks at Dazbog (ID: 16822557/0x0100B11D)
186: 0x1282 [0x1C] WAIT(30* ticks)
187: 0x1285 [0x4A] Tarnotik (ID: 16822489/0x0100B0D9) looks at Dazbog (ID: 16822557/0x0100B11D)
188: 0x128E [0x4A] LocalPlayer looks at Dazbog (ID: 16822557/0x0100B11D)
189: 0x1297 [0x4A] Magh Bihu (ID: 16822556/0x0100B11C) looks at Dazbog (ID: 16822557/0x0100B11D)
190: 0x12A0 [0x6F] WAIT_FRAME_DELAY: Yield until WaitTime reaches zero
191: 0x12A1 [0x76] CHECK_ENTITY_RENDER_FLAGS: Wait until Magh Bihu (ID: 16822556/0x0100B11C) Render.Flags0 and Render.Flags3 conditions are met
192: 0x12A6 [0x23] WAIT_FOR_DIALOG_INTERACTION
193: 0x12A7 [0x52] END_LOAD_SCHEDULER: End scheduler "s089" with entities [EventEntity, EventEntity], work=932*
194: 0x12B6 [0x45] LOAD_SCHEDULED_TASK: Load scheduler "s090" with entities [EventEntity, EventEntity], work=[932*, 0*]
195: 0x12C7 [0x2B] Dazbog (ID: 16822557/0x0100B11D) [8191*]:
    → "I've heard there's a g-gate to the underworld in C-Castle Zvahl..."
196: 0x12CE [0x23] WAIT_FOR_DIALOG_INTERACTION
197: 0x12CF [0x29] REQ_SET_WAIT(priority=0x0F, entity_id=Dazbog (ID: 16822557/0x0100B11D), tag_num=0x0B)
198: 0x12D6 [0x52] END_LOAD_SCHEDULER: End scheduler "s090" with entities [EventEntity, EventEntity], work=932*
199: 0x12E5 [0x45] LOAD_SCHEDULED_TASK: Load scheduler "s091" with entities [EventEntity, EventEntity], work=[932*, 0*]
200: 0x12F6 [0x29] REQ_SET_WAIT(priority=0x0F, entity_id=Magh Bihu (ID: 16822556/0x0100B11C), tag_num=0x0B)
201: 0x12FD [0x2B] Magh Bihu (ID: 16822556/0x0100B11C) [8192*]:
    → "Can this magicite be used to open the gate by resurrecting the dead?"
202: 0x1304 [0x1C] WAIT(30* ticks)
203: 0x1307 [0x4A] Dazbog (ID: 16822557/0x0100B11D) looks at Magh Bihu (ID: 16822556/0x0100B11C)
204: 0x1310 [0x6F] WAIT_FRAME_DELAY: Yield until WaitTime reaches zero
205: 0x1311 [0x76] CHECK_ENTITY_RENDER_FLAGS: Wait until Dazbog (ID: 16822557/0x0100B11D) Render.Flags0 and Render.Flags3 conditions are met
206: 0x1316 [0x23] WAIT_FOR_DIALOG_INTERACTION
207: 0x1317 [0x29] REQ_SET_WAIT(priority=0x0F, entity_id=Magh Bihu (ID: 16822556/0x0100B11C), tag_num=0x0C)
208: 0x131E [0x2B] Dazbog (ID: 16822557/0x0100B11D) [8193*]:
    → "M-maybe? According to legend, m-magicite has untold power..."
209: 0x1325 [0x23] WAIT_FOR_DIALOG_INTERACTION
210: 0x1326 [0x29] REQ_SET_WAIT(priority=0x0F, entity_id=Magh Bihu (ID: 16822556/0x0100B11C), tag_num=0x05)
211: 0x132D [0x2B] Magh Bihu (ID: 16822556/0x0100B11C) [8194*]:
    → "This isn't good! We've got to do something!"
212: 0x1334 [0x23] WAIT_FOR_DIALOG_INTERACTION
213: 0x1335 [0x29] REQ_SET_WAIT(priority=0x0F, entity_id=Dazbog (ID: 16822557/0x0100B11D), tag_num=0x0A)
214: 0x133C [0x2B] Dazbog (ID: 16822557/0x0100B11D) [8195*]:
    → "Y-yes indeed! I-if Gloom Phantom was here with us..."
215: 0x1343 [0x29] REQ_SET_WAIT(priority=0x0F, entity_id=Magh Bihu (ID: 16822556/0x0100B11C), tag_num=0x06)
216: 0x134A [0x29] REQ_SET_WAIT(priority=0x0F, entity_id=Magh Bihu (ID: 16822556/0x0100B11C), tag_num=0x07)
217: 0x1351 [0x23] WAIT_FOR_DIALOG_INTERACTION
218: 0x1352 [0x29] REQ_SET_WAIT(priority=0x0F, entity_id=Magh Bihu (ID: 16822556/0x0100B11C), tag_num=0x08)
219: 0x1359 [0x29] REQ_SET_WAIT(priority=0x0F, entity_id=Dazbog (ID: 16822557/0x0100B11D), tag_num=0x0B)
220: 0x1360 [0x5D] SET_MUSIC_VOLUME(volume=0*, fade_time=300*)
221: 0x1365 [0x4B] UPDATE_ENTITY_YAW(entity=Dazbog (ID: 16822557/0x0100B11D), yaw=0.0°*)
222: 0x136C [0x6F] WAIT_FRAME_DELAY: Yield until WaitTime reaches zero
223: 0x136D [0x76] CHECK_ENTITY_RENDER_FLAGS: Wait until Dazbog (ID: 16822557/0x0100B11D) Render.Flags0 and Render.Flags3 conditions are met
224: 0x1372 [0x4B] UPDATE_ENTITY_YAW(entity=Magh Bihu (ID: 16822556/0x0100B11C), yaw=0.0°*)
225: 0x1379 [0x6F] WAIT_FRAME_DELAY: Yield until WaitTime reaches zero
226: 0x137A [0x76] CHECK_ENTITY_RENDER_FLAGS: Wait until Magh Bihu (ID: 16822556/0x0100B11C) Render.Flags0 and Render.Flags3 conditions are met
227: 0x137F [0x1C] WAIT(90* ticks)
228: 0x1382 [0x52] END_LOAD_SCHEDULER: End scheduler "s091" with entities [EventEntity, EventEntity], work=932*
229: 0x1391 [0x45] LOAD_SCHEDULED_TASK: Load scheduler "s092" with entities [EventEntity, EventEntity], work=[932*, 0*]
230: 0x13A2 [0x45] LOAD_SCHEDULED_TASK: Load scheduler "8160" with entities [EventEntity, EventEntity], work=[932*, 0*]
231: 0x13B3 [0x4B] UPDATE_ENTITY_YAW(entity=Dazbog (ID: 16822557/0x0100B11D), yaw=0.0°*)
232: 0x13BA [0x6F] WAIT_FRAME_DELAY: Yield until WaitTime reaches zero
233: 0x13BB [0x76] CHECK_ENTITY_RENDER_FLAGS: Wait until Dazbog (ID: 16822557/0x0100B11D) Render.Flags0 and Render.Flags3 conditions are met
234: 0x13C0 [0x2B] Dazbog (ID: 16822557/0x0100B11D) [8196*]:
    → "I-I am Dazbog!"
235: 0x13C7 [0x23] WAIT_FOR_DIALOG_INTERACTION
236: 0x13C8 [0x1C] WAIT(100* ticks)
237: 0x13CB [0x52] END_LOAD_SCHEDULER: End scheduler "s092" with entities [EventEntity, EventEntity], work=932*
