# 16822489 - Tarnotik

## Common Data

| Field            | Value                      |
|------------------|----------------------------|
| Zone             | Oldton Movalpolos (ID: 11) |
| Block Size       | 1312 bytes                 |
| Total Events     | 62                         |
| References Count | 39                         |

## List of Events

| Event ID                   | Entrypoint   |   Size |   Instructions |
|----------------------------|--------------|--------|----------------|
| [65535](#event-65535)      | 0x0000       |      1 |              1 |
| [30](#event-30)            | 0x0001       |     10 |              6 |
| [31](#event-31)            | 0x000B       |     35 |             17 |
| [32](#event-32)            | 0x002E       |     74 |             21 |
| [33](#event-33)            | 0x0078       |     20 |              8 |
| [34](#event-34)            | 0x008C       |     32 |             14 |
| [42](#event-42)            | 0x00AC       |      1 |              1 |
| [43](#event-43)            | 0x00AD       |      1 |              1 |
| [44](#event-44)            | 0x00AE       |      1 |              1 |
| [45](#event-45)            | 0x00AF       |      1 |              1 |
| [54](#event-54)            | 0x00B0       |     72 |             22 |
| [57](#event-57)            | 0x00F8       |      1 |              1 |
| [65535.1](#event-655351)   | 0x00F9       |     10 |              2 |
| [65535.2](#event-655352)   | 0x0103       |     14 |              4 |
| [67](#event-67)            | 0x0111       |      1 |              1 |
| [68](#event-68)            | 0x0112       |      1 |              1 |
| [65535.3](#event-655353)   | 0x0113       |     16 |              2 |
| [65535.4](#event-655354)   | 0x0123       |     14 |              2 |
| [65535.5](#event-655355)   | 0x0131       |     16 |              2 |
| [65535.6](#event-655356)   | 0x0141       |     14 |              2 |
| [65535.7](#event-655357)   | 0x014F       |     16 |              2 |
| [65535.8](#event-655358)   | 0x015F       |     14 |              2 |
| [65535.9](#event-655359)   | 0x016D       |     16 |              2 |
| [65535.10](#event-6553510) | 0x017D       |     14 |              2 |
| [65535.11](#event-6553511) | 0x018B       |     16 |              2 |
| [65535.12](#event-6553512) | 0x019B       |     14 |              2 |
| [65535.13](#event-6553513) | 0x01A9       |     16 |              2 |
| [65535.14](#event-6553514) | 0x01B9       |     14 |              2 |
| [65535.15](#event-6553515) | 0x01C7       |     16 |              2 |
| [65535.16](#event-6553516) | 0x01D7       |     14 |              2 |
| [65535.17](#event-6553517) | 0x01E5       |     16 |              2 |
| [65535.18](#event-6553518) | 0x01F5       |     14 |              2 |
| [65535.19](#event-6553519) | 0x0203       |     16 |              2 |
| [65535.20](#event-6553520) | 0x0213       |     14 |              2 |
| [65535.21](#event-6553521) | 0x0221       |     16 |              2 |
| [65535.22](#event-6553522) | 0x0231       |     14 |              2 |
| [65535.23](#event-6553523) | 0x023F       |     16 |              2 |
| [65535.24](#event-6553524) | 0x024F       |     14 |              2 |
| [65535.25](#event-6553525) | 0x025D       |     16 |              2 |
| [65535.26](#event-6553526) | 0x026D       |     14 |              2 |
| [65535.27](#event-6553527) | 0x027B       |     16 |              2 |
| [65535.28](#event-6553528) | 0x028B       |     14 |              2 |
| [65535.29](#event-6553529) | 0x0299       |     16 |              2 |
| [65535.30](#event-6553530) | 0x02A9       |     14 |              2 |
| [65535.31](#event-6553531) | 0x02B7       |     16 |              2 |
| [65535.32](#event-6553532) | 0x02C7       |     14 |              2 |
| [65535.33](#event-6553533) | 0x02D5       |     16 |              2 |
| [65535.34](#event-6553534) | 0x02E5       |     14 |              2 |
| [65535.35](#event-6553535) | 0x02F3       |     16 |              2 |
| [65535.36](#event-6553536) | 0x0303       |     14 |              2 |
| [65535.37](#event-6553537) | 0x0311       |     16 |              2 |
| [65535.38](#event-6553538) | 0x0321       |     14 |              2 |
| [65535.39](#event-6553539) | 0x032F       |     16 |              2 |
| [65535.40](#event-6553540) | 0x033F       |     14 |              2 |
| [65535.41](#event-6553541) | 0x034D       |     16 |              2 |
| [65535.42](#event-6553542) | 0x035D       |     14 |              2 |
| [65535.43](#event-6553543) | 0x036B       |      9 |              3 |
| [69](#event-69)            | 0x0374       |      1 |              1 |
| [70](#event-70)            | 0x0375       |      1 |              1 |
| [71](#event-71)            | 0x0376       |      1 |              1 |
| [72](#event-72)            | 0x0377       |      1 |              1 |
| [73](#event-73)            | 0x0378       |      1 |              1 |

## DAT References (imed_data)

|   Index | Hex Value   |   Dec Value |
|---------|-------------|-------------|
|       0 | 0x1D93      |        7571 |
|       1 | 0x1D94      |        7572 |
|       2 | 0x1D95      |        7573 |
|       3 | 0x1D96      |        7574 |
|       4 | 0x1D97      |        7575 |
|       5 | 0x1D98      |        7576 |
|       6 | 0x1D99      |        7577 |
|       7 | 0x06BD      |        1725 |
|       8 | 0x1D9A      |        7578 |
|       9 | 0x1D9B      |        7579 |
|      10 | 0x1D9C      |        7580 |
|      11 | 0x1D9D      |        7581 |
|      12 | 0x0001      |           1 |
|      13 | 0x010A      |         266 |
|      14 | 0x012C      |         300 |
|      15 | 0x00C8      |         200 |
|      16 | 0x0000      |           0 |
|      17 | 0x003C      |          60 |
|      18 | 0x1D9E      |        7582 |
|      19 | 0x1DA1      |        7585 |
|      20 | 0x0694      |        1684 |
|      21 | 0x1DA2      |        7586 |
|      22 | 0x1F00      |        7936 |
|      23 | 0x1F01      |        7937 |
|      24 | 0x1F02      |        7938 |
|      25 | 0x02A4      |         676 |
|      26 | 0x1F03      |        7939 |
|      27 | 0x1F04      |        7940 |
|      28 | 0x1F06      |        7942 |
|      29 | 0xFFF8CD8F  |  4294495631 |
|      30 | 0x7CC1      |       31937 |
|      31 | 0x1DC8F     |      121999 |
|      32 | 0x01B7      |         439 |
|      33 | 0x000D      |          13 |
|      34 | 0xFFF8D146  |  4294496582 |
|      35 | 0x78CC      |       30924 |
|      36 | 0x00D7      |         215 |
|      37 | 0x00D8      |         216 |
|      38 | 0x001E      |          30 |

## String References

- **7571**: ...No fun... Nothing around but rocks... I want to see pretty things... Crazy things...
- **7572**: I'm Tarnotik.
- **7573**: Hm? You [guy/lady] that want to go deep into Movalpolos? You crazy. Crazier than Tarnotik.
- **7574**: But I like crazies. I take you, but first you give me goodie.
- **7575**: I want crazy goodie. I want flower that grows in snow. That's crazy!
- **7576**: You give me crazy flower and I take you to Shaft 2716.
- **7577**: But that's as far as Tarnotik go. Shaft 2716 is bad place. Even crazy Tarnotik not go in there.
- **7578**: #!
- **7579**: Tarnotik happy!
- **7580**: Tarnotik like crazy adventurer!
- **7581**: Moblins no break promises! Tarnotik take you to Shaft 2716 now.
- **7582**: Every day fun for Tarnotik! I loves my crazy goodies! I loves my crazy adventurer friend!
- **7585**: You look for Jabbos, no? I sees Jabbos in Shaft 2716!
- **7586**: He no crazy. He say he want to be alone. He lock door so he can be alone. Crazy adventurer find $1, crazy adventurer can maybe open door.
- **7936**: Hey! Hey! Hey! Crazy adventurer holding crazy lever! Crazy adventurer not supposed to have crazy lever!
- **7937**: You use crazy lever, you break door! You break door, Tarnotik can't get inside!
- **7938**: How about we make deal? We make crazy deal! You give me crazy lever, I help you out.
- **7939**: Give him the $3? [Yes./No.]
- **7940**: Oh! Crazy adventurer smarter than looks! Tarnotik help you out!
- **7942**: Crazy adventurer saying crazy things! Tarnotik no help no one crazier than he!

## Events

### Event 65535

#### Metadata

| Field        | Value   |
|--------------|---------|
| Entrypoint   | 0x0000  |
| Data Size    | 1 bytes |
| Instructions | 1       |

```
      00 01 02 03 04 05 06 07  08 09 0A 0B 0C 0D 0E 0F
      -- -- -- -- -- -- -- --  -- -- -- -- -- -- -- --
0000: 00                                                .               
```

#### Opcodes

```
  0: 0x0000 [0x00] END_REQSTACK()
```

### Event 30

#### Metadata

| Field        | Value    |
|--------------|----------|
| Entrypoint   | 0x0001   |
| Data Size    | 10 bytes |
| Instructions | 6        |

```
      00 01 02 03 04 05 06 07  08 09 0A 0B 0C 0D 0E 0F
      -- -- -- -- -- -- -- --  -- -- -- -- -- -- -- --
0000:    20 01 1D 00 80 23 20  00 21 00                   ....# .!.     
```

#### Opcodes

```
  0: 0x0001 [0x20] SET_CLI_EVENT_UC_FLAG: Lock player control
  1: 0x0003 [0x1D] PRINT_EVENT_MESSAGE(message_id=7571*)
    → "...No fun... Nothing around but rocks... I want to see pretty things... Crazy things..."
  2: 0x0006 [0x23] WAIT_FOR_DIALOG_INTERACTION
  3: 0x0007 [0x20] SET_CLI_EVENT_UC_FLAG: Unlock player control
  4: 0x0009 [0x21] END_EVENT
  5: 0x000A [0x00] END_REQSTACK()
```

### Event 31

#### Metadata

| Field        | Value    |
|--------------|----------|
| Entrypoint   | 0x000B   |
| Data Size    | 35 bytes |
| Instructions | 17       |

```
      00 01 02 03 04 05 06 07  08 09 0A 0B 0C 0D 0E 0F
      -- -- -- -- -- -- -- --  -- -- -- -- -- -- -- --
0000:                                   1E F0 FF FF 7F             .....
0010: 20 01 1D 01 80 23 1D 02  80 23 1D 03 80 23 1D 04   ....#...#...#..
0020: 80 23 1D 05 80 23 1D 06  80 23 20 00 21 00        .#...#...# .!.  
```

#### Opcodes

```
  0: 0x000B [0x1E] EventEntity looks at LocalPlayer and starts talking
  1: 0x0010 [0x20] SET_CLI_EVENT_UC_FLAG: Lock player control
  2: 0x0012 [0x1D] PRINT_EVENT_MESSAGE(message_id=7572*)
    → "I'm Tarnotik."
  3: 0x0015 [0x23] WAIT_FOR_DIALOG_INTERACTION
  4: 0x0016 [0x1D] PRINT_EVENT_MESSAGE(message_id=7573*)
    → "Hm? You [guy/lady] that want to go deep into Movalpolos? You crazy. Crazier than Tarnotik."
  5: 0x0019 [0x23] WAIT_FOR_DIALOG_INTERACTION
  6: 0x001A [0x1D] PRINT_EVENT_MESSAGE(message_id=7574*)
    → "But I like crazies. I take you, but first you give me goodie."
  7: 0x001D [0x23] WAIT_FOR_DIALOG_INTERACTION
  8: 0x001E [0x1D] PRINT_EVENT_MESSAGE(message_id=7575*)
    → "I want crazy goodie. I want flower that grows in snow. That's crazy!"
  9: 0x0021 [0x23] WAIT_FOR_DIALOG_INTERACTION
 10: 0x0022 [0x1D] PRINT_EVENT_MESSAGE(message_id=7576*)
    → "You give me crazy flower and I take you to Shaft 2716."
 11: 0x0025 [0x23] WAIT_FOR_DIALOG_INTERACTION
 12: 0x0026 [0x1D] PRINT_EVENT_MESSAGE(message_id=7577*)
    → "But that's as far as Tarnotik go. Shaft 2716 is bad place. Even crazy Tarnotik not go in there."
 13: 0x0029 [0x23] WAIT_FOR_DIALOG_INTERACTION
 14: 0x002A [0x20] SET_CLI_EVENT_UC_FLAG: Unlock player control
 15: 0x002C [0x21] END_EVENT
 16: 0x002D [0x00] END_REQSTACK()
```

### Event 32

#### Metadata

| Field        | Value    |
|--------------|----------|
| Entrypoint   | 0x002E   |
| Data Size    | 74 bytes |
| Instructions | 21       |

```
      00 01 02 03 04 05 06 07  08 09 0A 0B 0C 0D 0E 0F
      -- -- -- -- -- -- -- --  -- -- -- -- -- -- -- --
0020:                                            42 1E                B.
0030: F0 FF FF 7F 20 01 03 02  10 07 80 1D 08 80 23 1D  .... .........#.
0040: 09 80 23 1D 0A 80 23 1D  0B 80 23 03 01 10 0C 80  ..#...#...#.....
0050: 73 0D 80 D9 B0 00 01 F0  FF FF 7F 1C 0E 80 45 0F  s.............E.
0060: 80 F0 FF FF 7F F0 FF FF  7F 66 64 6F 31 10 80 1C  .........fdo1...
0070: 11 80 46 00 20 00 21 00                           ..F. .!.        
```

#### Opcodes

```
  0: 0x002E [0x42] SET_CLI_EVENT_CANCEL_DATA()
  1: 0x002F [0x1E] EventEntity looks at LocalPlayer and starts talking
  2: 0x0034 [0x20] SET_CLI_EVENT_UC_FLAG: Lock player control
  3: 0x0036 [0x03] Work_Zone[2] = 1725*
  4: 0x003B [0x1D] PRINT_EVENT_MESSAGE(message_id=7578*)
    → "#!"
  5: 0x003E [0x23] WAIT_FOR_DIALOG_INTERACTION
  6: 0x003F [0x1D] PRINT_EVENT_MESSAGE(message_id=7579*)
    → "Tarnotik happy!"
  7: 0x0042 [0x23] WAIT_FOR_DIALOG_INTERACTION
  8: 0x0043 [0x1D] PRINT_EVENT_MESSAGE(message_id=7580*)
    → "Tarnotik like crazy adventurer!"
  9: 0x0046 [0x23] WAIT_FOR_DIALOG_INTERACTION
 10: 0x0047 [0x1D] PRINT_EVENT_MESSAGE(message_id=7581*)
    → "Moblins no break promises! Tarnotik take you to Shaft 2716 now."
 11: 0x004A [0x23] WAIT_FOR_DIALOG_INTERACTION
 12: 0x004B [0x03] Work_Zone[1] = 1*
 13: 0x0050 [0x73] Tarnotik (ID: 16822489/0x0100B0D9) casts magic 266* on LocalPlayer
 14: 0x005B [0x1C] WAIT(300* ticks)
 15: 0x005E [0x45] LOAD_SCHEDULED_TASK: Load scheduler "fdo1" with entities [LocalPlayer, LocalPlayer], work=[200*, 0*]
 16: 0x006F [0x1C] WAIT(60* ticks)
 17: 0x0072 [0x46] CAMERA_CONTROL: Restore default settings
 18: 0x0074 [0x20] SET_CLI_EVENT_UC_FLAG: Unlock player control
 19: 0x0076 [0x21] END_EVENT
 20: 0x0077 [0x00] END_REQSTACK()
```

### Event 33

#### Metadata

| Field        | Value    |
|--------------|----------|
| Entrypoint   | 0x0078   |
| Data Size    | 20 bytes |
| Instructions | 8        |

```
      00 01 02 03 04 05 06 07  08 09 0A 0B 0C 0D 0E 0F
      -- -- -- -- -- -- -- --  -- -- -- -- -- -- -- --
0070:                          1E F0 FF FF 7F 20 01 03          ..... ..
0080: 02 10 07 80 1D 12 80 23  20 00 21 00              .......# .!.    
```

#### Opcodes

```
  0: 0x0078 [0x1E] EventEntity looks at LocalPlayer and starts talking
  1: 0x007D [0x20] SET_CLI_EVENT_UC_FLAG: Lock player control
  2: 0x007F [0x03] Work_Zone[2] = 1725*
  3: 0x0084 [0x1D] PRINT_EVENT_MESSAGE(message_id=7582*)
    → "Every day fun for Tarnotik! I loves my crazy goodies! I loves my crazy adventurer friend!"
  4: 0x0087 [0x23] WAIT_FOR_DIALOG_INTERACTION
  5: 0x0088 [0x20] SET_CLI_EVENT_UC_FLAG: Unlock player control
  6: 0x008A [0x21] END_EVENT
  7: 0x008B [0x00] END_REQSTACK()
```

### Event 34

#### Metadata

| Field        | Value    |
|--------------|----------|
| Entrypoint   | 0x008C   |
| Data Size    | 32 bytes |
| Instructions | 14       |

```
      00 01 02 03 04 05 06 07  08 09 0A 0B 0C 0D 0E 0F
      -- -- -- -- -- -- -- --  -- -- -- -- -- -- -- --
0080:                                      1E F0 FF FF              ....
0090: 7F 20 01 1D 13 80 23 03  03 10 14 80 1D 15 80 23  . ....#........#
00A0: 1D 05 80 23 1D 06 80 23  20 00 21 00              ...#...# .!.    
```

#### Opcodes

```
  0: 0x008C [0x1E] EventEntity looks at LocalPlayer and starts talking
  1: 0x0091 [0x20] SET_CLI_EVENT_UC_FLAG: Lock player control
  2: 0x0093 [0x1D] PRINT_EVENT_MESSAGE(message_id=7585*)
    → "You look for Jabbos, no? I sees Jabbos in Shaft 2716!"
  3: 0x0096 [0x23] WAIT_FOR_DIALOG_INTERACTION
  4: 0x0097 [0x03] Work_Zone[3] = 1684*
  5: 0x009C [0x1D] PRINT_EVENT_MESSAGE(message_id=7586*)
    → "He no crazy. He say he want to be alone. He lock door so he can be alone. Crazy adventurer find $1, crazy adventurer can maybe open door."
  6: 0x009F [0x23] WAIT_FOR_DIALOG_INTERACTION
  7: 0x00A0 [0x1D] PRINT_EVENT_MESSAGE(message_id=7576*)
    → "You give me crazy flower and I take you to Shaft 2716."
  8: 0x00A3 [0x23] WAIT_FOR_DIALOG_INTERACTION
  9: 0x00A4 [0x1D] PRINT_EVENT_MESSAGE(message_id=7577*)
    → "But that's as far as Tarnotik go. Shaft 2716 is bad place. Even crazy Tarnotik not go in there."
 10: 0x00A7 [0x23] WAIT_FOR_DIALOG_INTERACTION
 11: 0x00A8 [0x20] SET_CLI_EVENT_UC_FLAG: Unlock player control
 12: 0x00AA [0x21] END_EVENT
 13: 0x00AB [0x00] END_REQSTACK()
```

### Event 42

#### Metadata

| Field        | Value   |
|--------------|---------|
| Entrypoint   | 0x00AC  |
| Data Size    | 1 bytes |
| Instructions | 1       |

```
      00 01 02 03 04 05 06 07  08 09 0A 0B 0C 0D 0E 0F
      -- -- -- -- -- -- -- --  -- -- -- -- -- -- -- --
00A0:                                      00                       .   
```

#### Opcodes

```
  0: 0x00AC [0x00] END_REQSTACK()
```

### Event 43

#### Metadata

| Field        | Value   |
|--------------|---------|
| Entrypoint   | 0x00AD  |
| Data Size    | 1 bytes |
| Instructions | 1       |

```
      00 01 02 03 04 05 06 07  08 09 0A 0B 0C 0D 0E 0F
      -- -- -- -- -- -- -- --  -- -- -- -- -- -- -- --
00A0:                                         00                     .  
```

#### Opcodes

```
  0: 0x00AD [0x00] END_REQSTACK()
```

### Event 44

#### Metadata

| Field        | Value   |
|--------------|---------|
| Entrypoint   | 0x00AE  |
| Data Size    | 1 bytes |
| Instructions | 1       |

```
      00 01 02 03 04 05 06 07  08 09 0A 0B 0C 0D 0E 0F
      -- -- -- -- -- -- -- --  -- -- -- -- -- -- -- --
00A0:                                            00                   . 
```

#### Opcodes

```
  0: 0x00AE [0x00] END_REQSTACK()
```

### Event 45

#### Metadata

| Field        | Value   |
|--------------|---------|
| Entrypoint   | 0x00AF  |
| Data Size    | 1 bytes |
| Instructions | 1       |

```
      00 01 02 03 04 05 06 07  08 09 0A 0B 0C 0D 0E 0F
      -- -- -- -- -- -- -- --  -- -- -- -- -- -- -- --
00A0:                                               00                 .
```

#### Opcodes

```
  0: 0x00AF [0x00] END_REQSTACK()
```

### Event 54

#### Metadata

| Field        | Value    |
|--------------|----------|
| Entrypoint   | 0x00B0   |
| Data Size    | 72 bytes |
| Instructions | 22       |

```
      00 01 02 03 04 05 06 07  08 09 0A 0B 0C 0D 0E 0F
      -- -- -- -- -- -- -- --  -- -- -- -- -- -- -- --
00B0: 1E F0 FF FF 7F 1D 16 80  23 1D 17 80 23 1D 18 80  ........#...#...
00C0: 23 03 01 10 10 80 03 02  10 19 80 24 1A 80 0C 80  #..........$....
00D0: 10 80 25 02 00 10 10 80  00 E7 00 1D 1B 80 23 03  ..%...........#.
00E0: 01 10 0C 80 01 F6 00 02  00 10 0C 80 00 F6 00 1D  ................
00F0: 1C 80 23 01 F6 00 21 00                           ..#...!.        
```

#### Opcodes

```
  0: 0x00B0 [0x1E] EventEntity looks at LocalPlayer and starts talking
  1: 0x00B5 [0x1D] PRINT_EVENT_MESSAGE(message_id=7936*)
    → "Hey! Hey! Hey! Crazy adventurer holding crazy lever! Crazy adventurer not supposed to have crazy lever!"
  2: 0x00B8 [0x23] WAIT_FOR_DIALOG_INTERACTION
  3: 0x00B9 [0x1D] PRINT_EVENT_MESSAGE(message_id=7937*)
    → "You use crazy lever, you break door! You break door, Tarnotik can't get inside!"
  4: 0x00BC [0x23] WAIT_FOR_DIALOG_INTERACTION
  5: 0x00BD [0x1D] PRINT_EVENT_MESSAGE(message_id=7938*)
    → "How about we make deal? We make crazy deal! You give me crazy lever, I help you out."
  6: 0x00C0 [0x23] WAIT_FOR_DIALOG_INTERACTION
  7: 0x00C1 [0x03] Work_Zone[1] = 0*
  8: 0x00C6 [0x03] Work_Zone[2] = 676*
  9: 0x00CB [0x24] CREATE_DIALOG(message_id=7939*, default_option=1*, option_flags=0*)
    → "Give him the $3? [Yes./No.]"
 10: 0x00D2 [0x25] WAIT_DIALOG_SELECT()
 11: 0x00D3 [0x02] IF !(Work_Zone[0] == 0*) GOTO 0x00E7
 12: 0x00DB [0x1D] PRINT_EVENT_MESSAGE(message_id=7940*)
    → "Oh! Crazy adventurer smarter than looks! Tarnotik help you out!"
 13: 0x00DE [0x23] WAIT_FOR_DIALOG_INTERACTION
 14: 0x00DF [0x03] Work_Zone[1] = 1*
 15: 0x00E4 [0x01] GOTO 0x00F6
 16: 0x00E7 [0x02] IF !(Work_Zone[0] == 1*) GOTO 0x00F6
 17: 0x00EF [0x1D] PRINT_EVENT_MESSAGE(message_id=7942*)
    → "Crazy adventurer saying crazy things! Tarnotik no help no one crazier than he!"
 18: 0x00F2 [0x23] WAIT_FOR_DIALOG_INTERACTION
 19: 0x00F3 [0x01] GOTO 0x00F6

SUBROUTINE_00F6:
 20: 0x00F6 [0x21] END_EVENT
 21: 0x00F7 [0x00] END_REQSTACK()
```

### Event 57

#### Metadata

| Field        | Value   |
|--------------|---------|
| Entrypoint   | 0x00F8  |
| Data Size    | 1 bytes |
| Instructions | 1       |

```
      00 01 02 03 04 05 06 07  08 09 0A 0B 0C 0D 0E 0F
      -- -- -- -- -- -- -- --  -- -- -- -- -- -- -- --
00F0:                          00                               .       
```

#### Opcodes

```
  0: 0x00F8 [0x00] END_REQSTACK()
```

### Event 65535.1

#### Metadata

| Field        | Value    |
|--------------|----------|
| Entrypoint   | 0x00F9   |
| Data Size    | 10 bytes |
| Instructions | 2        |

```
      00 01 02 03 04 05 06 07  08 09 0A 0B 0C 0D 0E 0F
      -- -- -- -- -- -- -- --  -- -- -- -- -- -- -- --
00F0:                             37 1D 80 1E 80 1F 80           7......
0100: 20 80 00                                           ..             
```

#### Opcodes

```
  0: 0x00F9 [0x37] UPDATE_EVENT_POSITION_AND_DIR: x=-471.665*, z=31.937*, y=121.999*, direction=38.6°*
  1: 0x0102 [0x00] END_REQSTACK()
```

### Event 65535.2

#### Metadata

| Field        | Value    |
|--------------|----------|
| Entrypoint   | 0x0103   |
| Data Size    | 14 bytes |
| Instructions | 4        |

```
      00 01 02 03 04 05 06 07  08 09 0A 0B 0C 0D 0E 0F
      -- -- -- -- -- -- -- --  -- -- -- -- -- -- -- --
0100:          32 21 80 1F 00  22 80 23 80 1F 80 1F 01     2!...".#.....
0110: 00                                                .               
```

#### Opcodes

```
  0: 0x0103 [0x32] ExtData[1]->MainSpeed = 13* * 0.1
  1: 0x0106 [0x1F] MOVE_ENTITY: EventEntity moves to X=-470.714*, Z=30.924*, Y=121.999*
  2: 0x010E [0x1F] MOVE_ENTITY: Update entity position (mode=1)
  3: 0x0110 [0x00] END_REQSTACK()
```

### Event 67

#### Metadata

| Field        | Value   |
|--------------|---------|
| Entrypoint   | 0x0111  |
| Data Size    | 1 bytes |
| Instructions | 1       |

```
      00 01 02 03 04 05 06 07  08 09 0A 0B 0C 0D 0E 0F
      -- -- -- -- -- -- -- --  -- -- -- -- -- -- -- --
0110:    00                                              .              
```

#### Opcodes

```
  0: 0x0111 [0x00] END_REQSTACK()
```

### Event 68

#### Metadata

| Field        | Value   |
|--------------|---------|
| Entrypoint   | 0x0112  |
| Data Size    | 1 bytes |
| Instructions | 1       |

```
      00 01 02 03 04 05 06 07  08 09 0A 0B 0C 0D 0E 0F
      -- -- -- -- -- -- -- --  -- -- -- -- -- -- -- --
0110:       00                                            .             
```

#### Opcodes

```
  0: 0x0112 [0x00] END_REQSTACK()
```

### Event 65535.3

#### Metadata

| Field        | Value    |
|--------------|----------|
| Entrypoint   | 0x0113   |
| Data Size    | 16 bytes |
| Instructions | 2        |

```
      00 01 02 03 04 05 06 07  08 09 0A 0B 0C 0D 0E 0F
      -- -- -- -- -- -- -- --  -- -- -- -- -- -- -- --
0110:          5B 24 80 F8 FF  FF 7F F8 FF FF 7F 74 6C     [$.........tl
0120: 6B 30 00                                          k0.             
```

#### Opcodes

```
  0: 0x0113 [0x5B] LOAD_EXT_SCHEDULER: Load scheduler "tlk0" with entities [EventEntity, EventEntity], work=215*
  1: 0x0122 [0x00] END_REQSTACK()
```

### Event 65535.4

#### Metadata

| Field        | Value    |
|--------------|----------|
| Entrypoint   | 0x0123   |
| Data Size    | 14 bytes |
| Instructions | 2        |

```
      00 01 02 03 04 05 06 07  08 09 0A 0B 0C 0D 0E 0F
      -- -- -- -- -- -- -- --  -- -- -- -- -- -- -- --
0120:          53 F8 FF FF 7F  F8 FF FF 7F 74 6C 6B 30     S........tlk0
0130: 00                                                .               
```

#### Opcodes

```
  0: 0x0123 [0x53] WAIT_SCHEDULER_TASK: Wait for scheduler "tlk0" with entities [EventEntity, EventEntity]
  1: 0x0130 [0x00] END_REQSTACK()
```

### Event 65535.5

#### Metadata

| Field        | Value    |
|--------------|----------|
| Entrypoint   | 0x0131   |
| Data Size    | 16 bytes |
| Instructions | 2        |

```
      00 01 02 03 04 05 06 07  08 09 0A 0B 0C 0D 0E 0F
      -- -- -- -- -- -- -- --  -- -- -- -- -- -- -- --
0130:    5B 24 80 F8 FF FF 7F  F8 FF FF 7F 74 6C 6B 31   [$.........tlk1
0140: 00                                                .               
```

#### Opcodes

```
  0: 0x0131 [0x5B] LOAD_EXT_SCHEDULER: Load scheduler "tlk1" with entities [EventEntity, EventEntity], work=215*
  1: 0x0140 [0x00] END_REQSTACK()
```

### Event 65535.6

#### Metadata

| Field        | Value    |
|--------------|----------|
| Entrypoint   | 0x0141   |
| Data Size    | 14 bytes |
| Instructions | 2        |

```
      00 01 02 03 04 05 06 07  08 09 0A 0B 0C 0D 0E 0F
      -- -- -- -- -- -- -- --  -- -- -- -- -- -- -- --
0140:    53 F8 FF FF 7F F8 FF  FF 7F 74 6C 6B 31 00      S........tlk1. 
```

#### Opcodes

```
  0: 0x0141 [0x53] WAIT_SCHEDULER_TASK: Wait for scheduler "tlk1" with entities [EventEntity, EventEntity]
  1: 0x014E [0x00] END_REQSTACK()
```

### Event 65535.7

#### Metadata

| Field        | Value    |
|--------------|----------|
| Entrypoint   | 0x014F   |
| Data Size    | 16 bytes |
| Instructions | 2        |

```
      00 01 02 03 04 05 06 07  08 09 0A 0B 0C 0D 0E 0F
      -- -- -- -- -- -- -- --  -- -- -- -- -- -- -- --
0140:                                               5B                 [
0150: 24 80 F8 FF FF 7F F8 FF  FF 7F 70 61 73 30 00     $.........pas0. 
```

#### Opcodes

```
  0: 0x014F [0x5B] LOAD_EXT_SCHEDULER: Load scheduler "pas0" with entities [EventEntity, EventEntity], work=215*
  1: 0x015E [0x00] END_REQSTACK()
```

### Event 65535.8

#### Metadata

| Field        | Value    |
|--------------|----------|
| Entrypoint   | 0x015F   |
| Data Size    | 14 bytes |
| Instructions | 2        |

```
      00 01 02 03 04 05 06 07  08 09 0A 0B 0C 0D 0E 0F
      -- -- -- -- -- -- -- --  -- -- -- -- -- -- -- --
0150:                                               53                 S
0160: F8 FF FF 7F F8 FF FF 7F  70 61 73 30 00           ........pas0.   
```

#### Opcodes

```
  0: 0x015F [0x53] WAIT_SCHEDULER_TASK: Wait for scheduler "pas0" with entities [EventEntity, EventEntity]
  1: 0x016C [0x00] END_REQSTACK()
```

### Event 65535.9

#### Metadata

| Field        | Value    |
|--------------|----------|
| Entrypoint   | 0x016D   |
| Data Size    | 16 bytes |
| Instructions | 2        |

```
      00 01 02 03 04 05 06 07  08 09 0A 0B 0C 0D 0E 0F
      -- -- -- -- -- -- -- --  -- -- -- -- -- -- -- --
0160:                                         5B 24 80               [$.
0170: F8 FF FF 7F F8 FF FF 7F  63 6F 72 30 00           ........cor0.   
```

#### Opcodes

```
  0: 0x016D [0x5B] LOAD_EXT_SCHEDULER: Load scheduler "cor0" with entities [EventEntity, EventEntity], work=215*
  1: 0x017C [0x00] END_REQSTACK()
```

### Event 65535.10

#### Metadata

| Field        | Value    |
|--------------|----------|
| Entrypoint   | 0x017D   |
| Data Size    | 14 bytes |
| Instructions | 2        |

```
      00 01 02 03 04 05 06 07  08 09 0A 0B 0C 0D 0E 0F
      -- -- -- -- -- -- -- --  -- -- -- -- -- -- -- --
0170:                                         53 F8 FF               S..
0180: FF 7F F8 FF FF 7F 63 6F  72 30 00                 ......cor0.     
```

#### Opcodes

```
  0: 0x017D [0x53] WAIT_SCHEDULER_TASK: Wait for scheduler "cor0" with entities [EventEntity, EventEntity]
  1: 0x018A [0x00] END_REQSTACK()
```

### Event 65535.11

#### Metadata

| Field        | Value    |
|--------------|----------|
| Entrypoint   | 0x018B   |
| Data Size    | 16 bytes |
| Instructions | 2        |

```
      00 01 02 03 04 05 06 07  08 09 0A 0B 0C 0D 0E 0F
      -- -- -- -- -- -- -- --  -- -- -- -- -- -- -- --
0180:                                   5B 24 80 F8 FF             [$...
0190: FF 7F F8 FF FF 7F 6F 6B  69 30 00                 ......oki0.     
```

#### Opcodes

```
  0: 0x018B [0x5B] LOAD_EXT_SCHEDULER: Load scheduler "oki0" with entities [EventEntity, EventEntity], work=215*
  1: 0x019A [0x00] END_REQSTACK()
```

### Event 65535.12

#### Metadata

| Field        | Value    |
|--------------|----------|
| Entrypoint   | 0x019B   |
| Data Size    | 14 bytes |
| Instructions | 2        |

```
      00 01 02 03 04 05 06 07  08 09 0A 0B 0C 0D 0E 0F
      -- -- -- -- -- -- -- --  -- -- -- -- -- -- -- --
0190:                                   53 F8 FF FF 7F             S....
01A0: F8 FF FF 7F 6F 6B 69 30  00                       ....oki0.       
```

#### Opcodes

```
  0: 0x019B [0x53] WAIT_SCHEDULER_TASK: Wait for scheduler "oki0" with entities [EventEntity, EventEntity]
  1: 0x01A8 [0x00] END_REQSTACK()
```

### Event 65535.13

#### Metadata

| Field        | Value    |
|--------------|----------|
| Entrypoint   | 0x01A9   |
| Data Size    | 16 bytes |
| Instructions | 2        |

```
      00 01 02 03 04 05 06 07  08 09 0A 0B 0C 0D 0E 0F
      -- -- -- -- -- -- -- --  -- -- -- -- -- -- -- --
01A0:                             5B 24 80 F8 FF FF 7F           [$.....
01B0: F8 FF FF 7F 74 69 64 30  00                       ....tid0.       
```

#### Opcodes

```
  0: 0x01A9 [0x5B] LOAD_EXT_SCHEDULER: Load scheduler "tid0" with entities [EventEntity, EventEntity], work=215*
  1: 0x01B8 [0x00] END_REQSTACK()
```

### Event 65535.14

#### Metadata

| Field        | Value    |
|--------------|----------|
| Entrypoint   | 0x01B9   |
| Data Size    | 14 bytes |
| Instructions | 2        |

```
      00 01 02 03 04 05 06 07  08 09 0A 0B 0C 0D 0E 0F
      -- -- -- -- -- -- -- --  -- -- -- -- -- -- -- --
01B0:                             53 F8 FF FF 7F F8 FF           S......
01C0: FF 7F 74 69 64 30 00                              ..tid0.         
```

#### Opcodes

```
  0: 0x01B9 [0x53] WAIT_SCHEDULER_TASK: Wait for scheduler "tid0" with entities [EventEntity, EventEntity]
  1: 0x01C6 [0x00] END_REQSTACK()
```

### Event 65535.15

#### Metadata

| Field        | Value    |
|--------------|----------|
| Entrypoint   | 0x01C7   |
| Data Size    | 16 bytes |
| Instructions | 2        |

```
      00 01 02 03 04 05 06 07  08 09 0A 0B 0C 0D 0E 0F
      -- -- -- -- -- -- -- --  -- -- -- -- -- -- -- --
01C0:                      5B  24 80 F8 FF FF 7F F8 FF         [$.......
01D0: FF 7F 74 6C 6B 32 00                              ..tlk2.         
```

#### Opcodes

```
  0: 0x01C7 [0x5B] LOAD_EXT_SCHEDULER: Load scheduler "tlk2" with entities [EventEntity, EventEntity], work=215*
  1: 0x01D6 [0x00] END_REQSTACK()
```

### Event 65535.16

#### Metadata

| Field        | Value    |
|--------------|----------|
| Entrypoint   | 0x01D7   |
| Data Size    | 14 bytes |
| Instructions | 2        |

```
      00 01 02 03 04 05 06 07  08 09 0A 0B 0C 0D 0E 0F
      -- -- -- -- -- -- -- --  -- -- -- -- -- -- -- --
01D0:                      53  F8 FF FF 7F F8 FF FF 7F         S........
01E0: 74 6C 6B 32 00                                    tlk2.           
```

#### Opcodes

```
  0: 0x01D7 [0x53] WAIT_SCHEDULER_TASK: Wait for scheduler "tlk2" with entities [EventEntity, EventEntity]
  1: 0x01E4 [0x00] END_REQSTACK()
```

### Event 65535.17

#### Metadata

| Field        | Value    |
|--------------|----------|
| Entrypoint   | 0x01E5   |
| Data Size    | 16 bytes |
| Instructions | 2        |

```
      00 01 02 03 04 05 06 07  08 09 0A 0B 0C 0D 0E 0F
      -- -- -- -- -- -- -- --  -- -- -- -- -- -- -- --
01E0:                5B 25 80  F8 FF FF 7F F8 FF FF 7F       [%.........
01F0: 61 6E 67 30 00                                    ang0.           
```

#### Opcodes

```
  0: 0x01E5 [0x5B] LOAD_EXT_SCHEDULER: Load scheduler "ang0" with entities [EventEntity, EventEntity], work=216*
  1: 0x01F4 [0x00] END_REQSTACK()
```

### Event 65535.18

#### Metadata

| Field        | Value    |
|--------------|----------|
| Entrypoint   | 0x01F5   |
| Data Size    | 14 bytes |
| Instructions | 2        |

```
      00 01 02 03 04 05 06 07  08 09 0A 0B 0C 0D 0E 0F
      -- -- -- -- -- -- -- --  -- -- -- -- -- -- -- --
01F0:                53 F8 FF  FF 7F F8 FF FF 7F 61 6E       S........an
0200: 67 30 00                                          g0.             
```

#### Opcodes

```
  0: 0x01F5 [0x53] WAIT_SCHEDULER_TASK: Wait for scheduler "ang0" with entities [EventEntity, EventEntity]
  1: 0x0202 [0x00] END_REQSTACK()
```

### Event 65535.19

#### Metadata

| Field        | Value    |
|--------------|----------|
| Entrypoint   | 0x0203   |
| Data Size    | 16 bytes |
| Instructions | 2        |

```
      00 01 02 03 04 05 06 07  08 09 0A 0B 0C 0D 0E 0F
      -- -- -- -- -- -- -- --  -- -- -- -- -- -- -- --
0200:          5B 25 80 F8 FF  FF 7F F8 FF FF 7F 61 6E     [%.........an
0210: 67 31 00                                          g1.             
```

#### Opcodes

```
  0: 0x0203 [0x5B] LOAD_EXT_SCHEDULER: Load scheduler "ang1" with entities [EventEntity, EventEntity], work=216*
  1: 0x0212 [0x00] END_REQSTACK()
```

### Event 65535.20

#### Metadata

| Field        | Value    |
|--------------|----------|
| Entrypoint   | 0x0213   |
| Data Size    | 14 bytes |
| Instructions | 2        |

```
      00 01 02 03 04 05 06 07  08 09 0A 0B 0C 0D 0E 0F
      -- -- -- -- -- -- -- --  -- -- -- -- -- -- -- --
0210:          53 F8 FF FF 7F  F8 FF FF 7F 61 6E 67 31     S........ang1
0220: 00                                                .               
```

#### Opcodes

```
  0: 0x0213 [0x53] WAIT_SCHEDULER_TASK: Wait for scheduler "ang1" with entities [EventEntity, EventEntity]
  1: 0x0220 [0x00] END_REQSTACK()
```

### Event 65535.21

#### Metadata

| Field        | Value    |
|--------------|----------|
| Entrypoint   | 0x0221   |
| Data Size    | 16 bytes |
| Instructions | 2        |

```
      00 01 02 03 04 05 06 07  08 09 0A 0B 0C 0D 0E 0F
      -- -- -- -- -- -- -- --  -- -- -- -- -- -- -- --
0220:    5B 25 80 F8 FF FF 7F  F8 FF FF 7F 62 69 6B 30   [%.........bik0
0230: 00                                                .               
```

#### Opcodes

```
  0: 0x0221 [0x5B] LOAD_EXT_SCHEDULER: Load scheduler "bik0" with entities [EventEntity, EventEntity], work=216*
  1: 0x0230 [0x00] END_REQSTACK()
```

### Event 65535.22

#### Metadata

| Field        | Value    |
|--------------|----------|
| Entrypoint   | 0x0231   |
| Data Size    | 14 bytes |
| Instructions | 2        |

```
      00 01 02 03 04 05 06 07  08 09 0A 0B 0C 0D 0E 0F
      -- -- -- -- -- -- -- --  -- -- -- -- -- -- -- --
0230:    53 F8 FF FF 7F F8 FF  FF 7F 62 69 6B 30 00      S........bik0. 
```

#### Opcodes

```
  0: 0x0231 [0x53] WAIT_SCHEDULER_TASK: Wait for scheduler "bik0" with entities [EventEntity, EventEntity]
  1: 0x023E [0x00] END_REQSTACK()
```

### Event 65535.23

#### Metadata

| Field        | Value    |
|--------------|----------|
| Entrypoint   | 0x023F   |
| Data Size    | 16 bytes |
| Instructions | 2        |

```
      00 01 02 03 04 05 06 07  08 09 0A 0B 0C 0D 0E 0F
      -- -- -- -- -- -- -- --  -- -- -- -- -- -- -- --
0230:                                               5B                 [
0240: 25 80 F8 FF FF 7F F8 FF  FF 7F 62 69 6B 31 00     %.........bik1. 
```

#### Opcodes

```
  0: 0x023F [0x5B] LOAD_EXT_SCHEDULER: Load scheduler "bik1" with entities [EventEntity, EventEntity], work=216*
  1: 0x024E [0x00] END_REQSTACK()
```

### Event 65535.24

#### Metadata

| Field        | Value    |
|--------------|----------|
| Entrypoint   | 0x024F   |
| Data Size    | 14 bytes |
| Instructions | 2        |

```
      00 01 02 03 04 05 06 07  08 09 0A 0B 0C 0D 0E 0F
      -- -- -- -- -- -- -- --  -- -- -- -- -- -- -- --
0240:                                               53                 S
0250: F8 FF FF 7F F8 FF FF 7F  62 69 6B 31 00           ........bik1.   
```

#### Opcodes

```
  0: 0x024F [0x53] WAIT_SCHEDULER_TASK: Wait for scheduler "bik1" with entities [EventEntity, EventEntity]
  1: 0x025C [0x00] END_REQSTACK()
```

### Event 65535.25

#### Metadata

| Field        | Value    |
|--------------|----------|
| Entrypoint   | 0x025D   |
| Data Size    | 16 bytes |
| Instructions | 2        |

```
      00 01 02 03 04 05 06 07  08 09 0A 0B 0C 0D 0E 0F
      -- -- -- -- -- -- -- --  -- -- -- -- -- -- -- --
0250:                                         5B 25 80               [%.
0260: F8 FF FF 7F F8 FF FF 7F  66 75 6D 30 00           ........fum0.   
```

#### Opcodes

```
  0: 0x025D [0x5B] LOAD_EXT_SCHEDULER: Load scheduler "fum0" with entities [EventEntity, EventEntity], work=216*
  1: 0x026C [0x00] END_REQSTACK()
```

### Event 65535.26

#### Metadata

| Field        | Value    |
|--------------|----------|
| Entrypoint   | 0x026D   |
| Data Size    | 14 bytes |
| Instructions | 2        |

```
      00 01 02 03 04 05 06 07  08 09 0A 0B 0C 0D 0E 0F
      -- -- -- -- -- -- -- --  -- -- -- -- -- -- -- --
0260:                                         53 F8 FF               S..
0270: FF 7F F8 FF FF 7F 66 75  6D 30 00                 ......fum0.     
```

#### Opcodes

```
  0: 0x026D [0x53] WAIT_SCHEDULER_TASK: Wait for scheduler "fum0" with entities [EventEntity, EventEntity]
  1: 0x027A [0x00] END_REQSTACK()
```

### Event 65535.27

#### Metadata

| Field        | Value    |
|--------------|----------|
| Entrypoint   | 0x027B   |
| Data Size    | 16 bytes |
| Instructions | 2        |

```
      00 01 02 03 04 05 06 07  08 09 0A 0B 0C 0D 0E 0F
      -- -- -- -- -- -- -- --  -- -- -- -- -- -- -- --
0270:                                   5B 25 80 F8 FF             [%...
0280: FF 7F F8 FF FF 7F 66 75  6D 31 00                 ......fum1.     
```

#### Opcodes

```
  0: 0x027B [0x5B] LOAD_EXT_SCHEDULER: Load scheduler "fum1" with entities [EventEntity, EventEntity], work=216*
  1: 0x028A [0x00] END_REQSTACK()
```

### Event 65535.28

#### Metadata

| Field        | Value    |
|--------------|----------|
| Entrypoint   | 0x028B   |
| Data Size    | 14 bytes |
| Instructions | 2        |

```
      00 01 02 03 04 05 06 07  08 09 0A 0B 0C 0D 0E 0F
      -- -- -- -- -- -- -- --  -- -- -- -- -- -- -- --
0280:                                   53 F8 FF FF 7F             S....
0290: F8 FF FF 7F 66 75 6D 31  00                       ....fum1.       
```

#### Opcodes

```
  0: 0x028B [0x53] WAIT_SCHEDULER_TASK: Wait for scheduler "fum1" with entities [EventEntity, EventEntity]
  1: 0x0298 [0x00] END_REQSTACK()
```

### Event 65535.29

#### Metadata

| Field        | Value    |
|--------------|----------|
| Entrypoint   | 0x0299   |
| Data Size    | 16 bytes |
| Instructions | 2        |

```
      00 01 02 03 04 05 06 07  08 09 0A 0B 0C 0D 0E 0F
      -- -- -- -- -- -- -- --  -- -- -- -- -- -- -- --
0290:                             5B 25 80 F8 FF FF 7F           [%.....
02A0: F8 FF FF 7F 62 79 65 30  00                       ....bye0.       
```

#### Opcodes

```
  0: 0x0299 [0x5B] LOAD_EXT_SCHEDULER: Load scheduler "bye0" with entities [EventEntity, EventEntity], work=216*
  1: 0x02A8 [0x00] END_REQSTACK()
```

### Event 65535.30

#### Metadata

| Field        | Value    |
|--------------|----------|
| Entrypoint   | 0x02A9   |
| Data Size    | 14 bytes |
| Instructions | 2        |

```
      00 01 02 03 04 05 06 07  08 09 0A 0B 0C 0D 0E 0F
      -- -- -- -- -- -- -- --  -- -- -- -- -- -- -- --
02A0:                             53 F8 FF FF 7F F8 FF           S......
02B0: FF 7F 62 79 65 30 00                              ..bye0.         
```

#### Opcodes

```
  0: 0x02A9 [0x53] WAIT_SCHEDULER_TASK: Wait for scheduler "bye0" with entities [EventEntity, EventEntity]
  1: 0x02B6 [0x00] END_REQSTACK()
```

### Event 65535.31

#### Metadata

| Field        | Value    |
|--------------|----------|
| Entrypoint   | 0x02B7   |
| Data Size    | 16 bytes |
| Instructions | 2        |

```
      00 01 02 03 04 05 06 07  08 09 0A 0B 0C 0D 0E 0F
      -- -- -- -- -- -- -- --  -- -- -- -- -- -- -- --
02B0:                      5B  25 80 F8 FF FF 7F F8 FF         [%.......
02C0: FF 7F 68 61 70 30 00                              ..hap0.         
```

#### Opcodes

```
  0: 0x02B7 [0x5B] LOAD_EXT_SCHEDULER: Load scheduler "hap0" with entities [EventEntity, EventEntity], work=216*
  1: 0x02C6 [0x00] END_REQSTACK()
```

### Event 65535.32

#### Metadata

| Field        | Value    |
|--------------|----------|
| Entrypoint   | 0x02C7   |
| Data Size    | 14 bytes |
| Instructions | 2        |

```
      00 01 02 03 04 05 06 07  08 09 0A 0B 0C 0D 0E 0F
      -- -- -- -- -- -- -- --  -- -- -- -- -- -- -- --
02C0:                      53  F8 FF FF 7F F8 FF FF 7F         S........
02D0: 68 61 70 30 00                                    hap0.           
```

#### Opcodes

```
  0: 0x02C7 [0x53] WAIT_SCHEDULER_TASK: Wait for scheduler "hap0" with entities [EventEntity, EventEntity]
  1: 0x02D4 [0x00] END_REQSTACK()
```

### Event 65535.33

#### Metadata

| Field        | Value    |
|--------------|----------|
| Entrypoint   | 0x02D5   |
| Data Size    | 16 bytes |
| Instructions | 2        |

```
      00 01 02 03 04 05 06 07  08 09 0A 0B 0C 0D 0E 0F
      -- -- -- -- -- -- -- --  -- -- -- -- -- -- -- --
02D0:                5B 25 80  F8 FF FF 7F F8 FF FF 7F       [%.........
02E0: 68 61 70 31 00                                    hap1.           
```

#### Opcodes

```
  0: 0x02D5 [0x5B] LOAD_EXT_SCHEDULER: Load scheduler "hap1" with entities [EventEntity, EventEntity], work=216*
  1: 0x02E4 [0x00] END_REQSTACK()
```

### Event 65535.34

#### Metadata

| Field        | Value    |
|--------------|----------|
| Entrypoint   | 0x02E5   |
| Data Size    | 14 bytes |
| Instructions | 2        |

```
      00 01 02 03 04 05 06 07  08 09 0A 0B 0C 0D 0E 0F
      -- -- -- -- -- -- -- --  -- -- -- -- -- -- -- --
02E0:                53 F8 FF  FF 7F F8 FF FF 7F 68 61       S........ha
02F0: 70 31 00                                          p1.             
```

#### Opcodes

```
  0: 0x02E5 [0x53] WAIT_SCHEDULER_TASK: Wait for scheduler "hap1" with entities [EventEntity, EventEntity]
  1: 0x02F2 [0x00] END_REQSTACK()
```

### Event 65535.35

#### Metadata

| Field        | Value    |
|--------------|----------|
| Entrypoint   | 0x02F3   |
| Data Size    | 16 bytes |
| Instructions | 2        |

```
      00 01 02 03 04 05 06 07  08 09 0A 0B 0C 0D 0E 0F
      -- -- -- -- -- -- -- --  -- -- -- -- -- -- -- --
02F0:          5B 25 80 F8 FF  FF 7F F8 FF FF 7F 66 6E     [%.........fn
0300: 64 30 00                                          d0.             
```

#### Opcodes

```
  0: 0x02F3 [0x5B] LOAD_EXT_SCHEDULER: Load scheduler "fnd0" with entities [EventEntity, EventEntity], work=216*
  1: 0x0302 [0x00] END_REQSTACK()
```

### Event 65535.36

#### Metadata

| Field        | Value    |
|--------------|----------|
| Entrypoint   | 0x0303   |
| Data Size    | 14 bytes |
| Instructions | 2        |

```
      00 01 02 03 04 05 06 07  08 09 0A 0B 0C 0D 0E 0F
      -- -- -- -- -- -- -- --  -- -- -- -- -- -- -- --
0300:          53 F8 FF FF 7F  F8 FF FF 7F 66 6E 64 30     S........fnd0
0310: 00                                                .               
```

#### Opcodes

```
  0: 0x0303 [0x53] WAIT_SCHEDULER_TASK: Wait for scheduler "fnd0" with entities [EventEntity, EventEntity]
  1: 0x0310 [0x00] END_REQSTACK()
```

### Event 65535.37

#### Metadata

| Field        | Value    |
|--------------|----------|
| Entrypoint   | 0x0311   |
| Data Size    | 16 bytes |
| Instructions | 2        |

```
      00 01 02 03 04 05 06 07  08 09 0A 0B 0C 0D 0E 0F
      -- -- -- -- -- -- -- --  -- -- -- -- -- -- -- --
0310:    5B 25 80 F8 FF FF 7F  F8 FF FF 7F 66 6E 64 31   [%.........fnd1
0320: 00                                                .               
```

#### Opcodes

```
  0: 0x0311 [0x5B] LOAD_EXT_SCHEDULER: Load scheduler "fnd1" with entities [EventEntity, EventEntity], work=216*
  1: 0x0320 [0x00] END_REQSTACK()
```

### Event 65535.38

#### Metadata

| Field        | Value    |
|--------------|----------|
| Entrypoint   | 0x0321   |
| Data Size    | 14 bytes |
| Instructions | 2        |

```
      00 01 02 03 04 05 06 07  08 09 0A 0B 0C 0D 0E 0F
      -- -- -- -- -- -- -- --  -- -- -- -- -- -- -- --
0320:    53 F8 FF FF 7F F8 FF  FF 7F 66 6E 64 31 00      S........fnd1. 
```

#### Opcodes

```
  0: 0x0321 [0x53] WAIT_SCHEDULER_TASK: Wait for scheduler "fnd1" with entities [EventEntity, EventEntity]
  1: 0x032E [0x00] END_REQSTACK()
```

### Event 65535.39

#### Metadata

| Field        | Value    |
|--------------|----------|
| Entrypoint   | 0x032F   |
| Data Size    | 16 bytes |
| Instructions | 2        |

```
      00 01 02 03 04 05 06 07  08 09 0A 0B 0C 0D 0E 0F
      -- -- -- -- -- -- -- --  -- -- -- -- -- -- -- --
0320:                                               5B                 [
0330: 25 80 F8 FF FF 7F F8 FF  FF 7F 6D 6D 6D 30 00     %.........mmm0. 
```

#### Opcodes

```
  0: 0x032F [0x5B] LOAD_EXT_SCHEDULER: Load scheduler "mmm0" with entities [EventEntity, EventEntity], work=216*
  1: 0x033E [0x00] END_REQSTACK()
```

### Event 65535.40

#### Metadata

| Field        | Value    |
|--------------|----------|
| Entrypoint   | 0x033F   |
| Data Size    | 14 bytes |
| Instructions | 2        |

```
      00 01 02 03 04 05 06 07  08 09 0A 0B 0C 0D 0E 0F
      -- -- -- -- -- -- -- --  -- -- -- -- -- -- -- --
0330:                                               53                 S
0340: F8 FF FF 7F F8 FF FF 7F  6D 6D 6D 30 00           ........mmm0.   
```

#### Opcodes

```
  0: 0x033F [0x53] WAIT_SCHEDULER_TASK: Wait for scheduler "mmm0" with entities [EventEntity, EventEntity]
  1: 0x034C [0x00] END_REQSTACK()
```

### Event 65535.41

#### Metadata

| Field        | Value    |
|--------------|----------|
| Entrypoint   | 0x034D   |
| Data Size    | 16 bytes |
| Instructions | 2        |

```
      00 01 02 03 04 05 06 07  08 09 0A 0B 0C 0D 0E 0F
      -- -- -- -- -- -- -- --  -- -- -- -- -- -- -- --
0340:                                         5B 25 80               [%.
0350: F8 FF FF 7F F8 FF FF 7F  6D 6D 6D 31 00           ........mmm1.   
```

#### Opcodes

```
  0: 0x034D [0x5B] LOAD_EXT_SCHEDULER: Load scheduler "mmm1" with entities [EventEntity, EventEntity], work=216*
  1: 0x035C [0x00] END_REQSTACK()
```

### Event 65535.42

#### Metadata

| Field        | Value    |
|--------------|----------|
| Entrypoint   | 0x035D   |
| Data Size    | 14 bytes |
| Instructions | 2        |

```
      00 01 02 03 04 05 06 07  08 09 0A 0B 0C 0D 0E 0F
      -- -- -- -- -- -- -- --  -- -- -- -- -- -- -- --
0350:                                         53 F8 FF               S..
0360: FF 7F F8 FF FF 7F 6D 6D  6D 31 00                 ......mmm1.     
```

#### Opcodes

```
  0: 0x035D [0x53] WAIT_SCHEDULER_TASK: Wait for scheduler "mmm1" with entities [EventEntity, EventEntity]
  1: 0x036A [0x00] END_REQSTACK()
```

### Event 65535.43

#### Metadata

| Field        | Value   |
|--------------|---------|
| Entrypoint   | 0x036B  |
| Data Size    | 9 bytes |
| Instructions | 3       |

```
      00 01 02 03 04 05 06 07  08 09 0A 0B 0C 0D 0E 0F
      -- -- -- -- -- -- -- --  -- -- -- -- -- -- -- --
0360:                                   5E 69 64 6C 30             ^idl0
0370: 1C 26 80 00                                       .&..            
```

#### Opcodes

```
  0: 0x036B [0x5E] EventEntity goes idle (kills current action) (animation: "idl0")
  1: 0x0370 [0x1C] WAIT(30* ticks)
  2: 0x0373 [0x00] END_REQSTACK()
```

### Event 69

#### Metadata

| Field        | Value   |
|--------------|---------|
| Entrypoint   | 0x0374  |
| Data Size    | 1 bytes |
| Instructions | 1       |

```
      00 01 02 03 04 05 06 07  08 09 0A 0B 0C 0D 0E 0F
      -- -- -- -- -- -- -- --  -- -- -- -- -- -- -- --
0370:             00                                        .           
```

#### Opcodes

```
  0: 0x0374 [0x00] END_REQSTACK()
```

### Event 70

#### Metadata

| Field        | Value   |
|--------------|---------|
| Entrypoint   | 0x0375  |
| Data Size    | 1 bytes |
| Instructions | 1       |

```
      00 01 02 03 04 05 06 07  08 09 0A 0B 0C 0D 0E 0F
      -- -- -- -- -- -- -- --  -- -- -- -- -- -- -- --
0370:                00                                      .          
```

#### Opcodes

```
  0: 0x0375 [0x00] END_REQSTACK()
```

### Event 71

#### Metadata

| Field        | Value   |
|--------------|---------|
| Entrypoint   | 0x0376  |
| Data Size    | 1 bytes |
| Instructions | 1       |

```
      00 01 02 03 04 05 06 07  08 09 0A 0B 0C 0D 0E 0F
      -- -- -- -- -- -- -- --  -- -- -- -- -- -- -- --
0370:                   00                                    .         
```

#### Opcodes

```
  0: 0x0376 [0x00] END_REQSTACK()
```

### Event 72

#### Metadata

| Field        | Value   |
|--------------|---------|
| Entrypoint   | 0x0377  |
| Data Size    | 1 bytes |
| Instructions | 1       |

```
      00 01 02 03 04 05 06 07  08 09 0A 0B 0C 0D 0E 0F
      -- -- -- -- -- -- -- --  -- -- -- -- -- -- -- --
0370:                      00                                  .        
```

#### Opcodes

```
  0: 0x0377 [0x00] END_REQSTACK()
```

### Event 73

#### Metadata

| Field        | Value   |
|--------------|---------|
| Entrypoint   | 0x0378  |
| Data Size    | 1 bytes |
| Instructions | 1       |

```
      00 01 02 03 04 05 06 07  08 09 0A 0B 0C 0D 0E 0F
      -- -- -- -- -- -- -- --  -- -- -- -- -- -- -- --
0370:                          00                               .       
```

#### Opcodes

```
  0: 0x0378 [0x00] END_REQSTACK()
```
