# 16822491

## Common Data

| Field            | Value                      |
|------------------|----------------------------|
| Zone             | Oldton Movalpolos (ID: 11) |
| Block Size       | 10564 bytes                |
| Total Events     | 10                         |
| References Count | 168                        |

## List of Events

| Event ID              | Entrypoint   |   Size |   Instructions |
|-----------------------|--------------|--------|----------------|
| [65535](#event-65535) | 0x0000       |      1 |              1 |
| [0](#event-0)         | 0x0001       |    153 |             37 |
| [1](#event-1)         | 0x009A       |    720 |             97 |
| [40](#event-40)       | 0x036A       |    992 |            136 |
| [41](#event-41)       | 0x074A       |    413 |             60 |
| [42](#event-42)       | 0x08E7       |   1626 |            186 |
| [43](#event-43)       | 0x0F41       |     72 |             12 |
| [44](#event-44)       | 0x0F89       |     96 |             20 |
| [45](#event-45)       | 0x0FE9       |     80 |             14 |
| [57](#event-57)       | 0x1039       |   5681 |            672 |

## DAT References (imed_data)

|   Index | Hex Value   |   Dec Value |
|---------|-------------|-------------|
|       0 | 0x1E22      |        7714 |
|       1 | 0x0000      |           0 |
|       2 | 0x0001      |           1 |
|       3 | 0x0002      |           2 |
|       4 | 0x00B3      |         179 |
|       5 | 0x1E24      |        7716 |
|       6 | 0x0003      |           3 |
|       7 | 0x1E25      |        7717 |
|       8 | 0x005A      |          90 |
|       9 | 0x1E23      |        7715 |
|      10 | 0x0013      |          19 |
|      11 | 0x000F      |          15 |
|      12 | 0x001D      |          29 |
|      13 | 0x00DD      |         221 |
|      14 | 0x0073      |         115 |
|      15 | 0x00DA      |         218 |
|      16 | 0x001E      |          30 |
|      17 | 0x003C      |          60 |
|      18 | 0x002D      |          45 |
|      19 | 0x1E07      |        7687 |
|      20 | 0x1E08      |        7688 |
|      21 | 0x1E09      |        7689 |
|      22 | 0x1E0A      |        7690 |
|      23 | 0x1E0B      |        7691 |
|      24 | 0x1E0C      |        7692 |
|      25 | 0x1E0D      |        7693 |
|      26 | 0x1E0E      |        7694 |
|      27 | 0x0290      |         656 |
|      28 | 0x1E0F      |        7695 |
|      29 | 0x010E      |         270 |
|      30 | 0x1E10      |        7696 |
|      31 | 0x0078      |         120 |
|      32 | 0x00C8      |         200 |
|      33 | 0x0063      |          99 |
|      34 | 0x00A3      |         163 |
|      35 | 0x009C      |         156 |
|      36 | 0x1E5F      |        7775 |
|      37 | 0x1E5E      |        7774 |
|      38 | 0x00D7      |         215 |
|      39 | 0x1E60      |        7776 |
|      40 | 0x1E61      |        7777 |
|      41 | 0x1E62      |        7778 |
|      42 | 0x1E63      |        7779 |
|      43 | 0x00D8      |         216 |
|      44 | 0x1E65      |        7781 |
|      45 | 0x1E64      |        7780 |
|      46 | 0x1E67      |        7783 |
|      47 | 0x1E66      |        7782 |
|      48 | 0x1E69      |        7785 |
|      49 | 0x1E68      |        7784 |
|      50 | 0x00F0      |         240 |
|      51 | 0x0C00      |        3072 |
|      52 | 0x1E6A      |        7786 |
|      53 | 0x1E6B      |        7787 |
|      54 | 0x1E6C      |        7788 |
|      55 | 0x1E6D      |        7789 |
|      56 | 0x1E6E      |        7790 |
|      57 | 0x1E6F      |        7791 |
|      58 | 0x1E70      |        7792 |
|      59 | 0x1E83      |        7811 |
|      60 | 0x0007      |           7 |
|      61 | 0x0006      |           6 |
|      62 | 0x1E71      |        7793 |
|      63 | 0x1E72      |        7794 |
|      64 | 0x1E73      |        7795 |
|      65 | 0x1E74      |        7796 |
|      66 | 0x1E75      |        7797 |
|      67 | 0x1E76      |        7798 |
|      68 | 0x1E77      |        7799 |
|      69 | 0x1E78      |        7800 |
|      70 | 0x1E79      |        7801 |
|      71 | 0x1E7A      |        7802 |
|      72 | 0x1E7B      |        7803 |
|      73 | 0x1E7C      |        7804 |
|      74 | 0x1E7D      |        7805 |
|      75 | 0x1E7E      |        7806 |
|      76 | 0x1E84      |        7812 |
|      77 | 0x1D96      |        7574 |
|      78 | 0x1E86      |        7814 |
|      79 | 0x1E87      |        7815 |
|      80 | 0x1E80      |        7808 |
|      81 | 0x1E81      |        7809 |
|      82 | 0x1E82      |        7810 |
|      83 | 0x1D9B      |        7579 |
|      84 | 0x1E85      |        7813 |
|      85 | 0x010A      |         266 |
|      86 | 0x012C      |         300 |
|      87 | 0x1E88      |        7816 |
|      88 | 0x1E89      |        7817 |
|      89 | 0x1F1E      |        7966 |
|      90 | 0x1F1F      |        7967 |
|      91 | 0x1F20      |        7968 |
|      92 | 0x1F21      |        7969 |
|      93 | 0x1F22      |        7970 |
|      94 | 0x1F23      |        7971 |
|      95 | 0x000D      |          13 |
|      96 | 0x0080      |         128 |
|      97 | 0x01ED      |         493 |
|      98 | 0x1F24      |        7972 |
|      99 | 0x1F25      |        7973 |
|     100 | 0x1F26      |        7974 |
|     101 | 0x000A      |          10 |
|     102 | 0x1F27      |        7975 |
|     103 | 0x0064      |         100 |
|     104 | 0x0050      |          80 |
|     105 | 0x02E4      |         740 |
|     106 | 0x0014      |          20 |
|     107 | 0x1F28      |        7976 |
|     108 | 0x1F29      |        7977 |
|     109 | 0x009F      |         159 |
|     110 | 0x1F2A      |        7978 |
|     111 | 0x1F2B      |        7979 |
|     112 | 0x1F2C      |        7980 |
|     113 | 0x1F2D      |        7981 |
|     114 | 0x1F2E      |        7982 |
|     115 | 0x1F2F      |        7983 |
|     116 | 0x1F30      |        7984 |
|     117 | 0x1F31      |        7985 |
|     118 | 0x1F32      |        7986 |
|     119 | 0x0032      |          50 |
|     120 | 0x0028      |          40 |
|     121 | 0x1F33      |        7987 |
|     122 | 0x06D6      |        1750 |
|     123 | 0x1F34      |        7988 |
|     124 | 0x1F35      |        7989 |
|     125 | 0x1F36      |        7990 |
|     126 | 0x1F37      |        7991 |
|     127 | 0x1F38      |        7992 |
|     128 | 0x1F39      |        7993 |
|     129 | 0x00C9      |         201 |
|     130 | 0x1F3A      |        7994 |
|     131 | 0x1F3B      |        7995 |
|     132 | 0x0045      |          69 |
|     133 | 0x1F3C      |        7996 |
|     134 | 0x1F3D      |        7997 |
|     135 | 0x1F3E      |        7998 |
|     136 | 0x1F3F      |        7999 |
|     137 | 0x1F40      |        8000 |
|     138 | 0x1F41      |        8001 |
|     139 | 0x1F42      |        8002 |
|     140 | 0x1F43      |        8003 |
|     141 | 0x1F44      |        8004 |
|     142 | 0x1F45      |        8005 |
|     143 | 0x1F46      |        8006 |
|     144 | 0x1F47      |        8007 |
|     145 | 0x1F48      |        8008 |
|     146 | 0x1F49      |        8009 |
|     147 | 0x1F4A      |        8010 |
|     148 | 0x00D9      |         217 |
|     149 | 0x1F4B      |        8011 |
|     150 | 0x1F4C      |        8012 |
|     151 | 0x0005      |           5 |
|     152 | 0x00B4      |         180 |
|     153 | 0x000B      |          11 |
|     154 | 0x0DC0      |        3520 |
|     155 | 0x1F4D      |        8013 |
|     156 | 0x1F4E      |        8014 |
|     157 | 0x1F4F      |        8015 |
|     158 | 0x1F50      |        8016 |
|     159 | 0x1F53      |        8019 |
|     160 | 0x1F54      |        8020 |
|     161 | 0x1F51      |        8017 |
|     162 | 0x1F52      |        8018 |
|     163 | 0x1F55      |        8021 |
|     164 | 0x1F56      |        8022 |
|     165 | 0x1F57      |        8023 |
|     166 | 0x0EDA      |        3802 |
|     167 | 0x1F58      |        8024 |

## String References

- **7714**: B$P10l$3f$3o$3b$3O%p$3$3j$3$5[ [$3L$3$3$3$3Z$3 [/$3$1[$3v/$3J$3$3$7$3C$3x$3$3g]
- **7715**: $3C$3x$3$3gp$P11I$P11p [$3 $3o$3 [$3|$3$3X/$P122$P10.%p]
- **7716**: $3{$3^$3$97F$31V$P10i]\\7
- **7717**: $3W$3$3$3$3v$P10fp$P11I$P11p [$3|$3C$3$3gH"U[]
- **7811**: Hee, Goblin? [Sure./Not so much.]
- **7812**: You really wanna go? [I'm crazy enough!/Maybe not...]
- **8016**: Should Jabbos tell them? [Of course./Not a good idea.]

## Events

### Event 65535

#### Metadata

| Field        | Value   |
|--------------|---------|
| Entrypoint   | 0x0000  |
| Data Size    | 1 bytes |
| Instructions | 1       |

```
      00 01 02 03 04 05 06 07  08 09 0A 0B 0C 0D 0E 0F
      -- -- -- -- -- -- -- --  -- -- -- -- -- -- -- --
0000: 00                                                .               
```

#### Opcodes

```
  0: 0x0000 [0x00] END_REQSTACK()
```

### Event 0

#### Metadata

| Field        | Value     |
|--------------|-----------|
| Entrypoint   | 0x0001    |
| Data Size    | 153 bytes |
| Instructions | 37        |

```
      00 01 02 03 04 05 06 07  08 09 0A 0B 0C 0D 0E 0F
      -- -- -- -- -- -- -- --  -- -- -- -- -- -- -- --
0000:    24 00 80 01 80 01 80  25 02 00 10 02 80 00 17   $......%.......
0010: 00 1A 47 00 01 45 00 02  00 10 03 80 00 37 00 45  ..G..E.......7.E
0020: 04 80 F0 FF FF 7F F0 FF  FF 7F 00 FE FE FE 01 80  ................
0030: 48 05 80 23 01 45 00 02  00 10 06 80 00 45 00 1A  H..#.E.......E..
0040: 60 00 01 45 00 21 00 24  07 80 01 80 01 80 25 02  `..E.!.$......%.
0050: 00 10 01 80 00 5F 00 03  01 10 08 80 01 5F 00 1B  ....._......._..
0060: 5C 00 01 80 5C 01 01 80  5C 02 01 80 5C 03 01 80  \...\...\...\...
0070: 9A 46 01 24 09 80 01 80  01 80 25 02 00 10 01 80  .F.$......%.....
0080: 00 89 00 1A 9A 00 01 97  00 02 00 10 02 80 00 97  ................
0090: 00 1A 69 03 01 97 00 46  00 1B                    ..i....F..      
```

#### Opcodes

```
  0: 0x0001 [0x24] CREATE_DIALOG(message_id=7714*, default_option=0*, option_flags=0*)
    → "B$P10l$3f$3o$3b$3O%p$3$3j$3$5[ [$3L$3$3$3$3Z$3 [/$3$1[$3v/$3J$3$3$7$3C$3x$3$3g]"
  1: 0x0008 [0x25] WAIT_DIALOG_SELECT()
  2: 0x0009 [0x02] IF !(Work_Zone[0] == 1*) GOTO 0x0017
  3: 0x0011 [0x1A] CALL_SUBROUTINE(address=0x0047)
  4: 0x0014 [0x01] GOTO 0x0045
  5: 0x0017 [0x02] IF !(Work_Zone[0] == 2*) GOTO 0x0037
  6: 0x001F [0x45] LOAD_SCHEDULED_TASK: Load scheduler 0xFEFEFE00 with entities [LocalPlayer, LocalPlayer], work=[179*, 0*]
  7: 0x0030 [0x48] [System] [7716*]:
    → "$3{$3^$3$97F$31V$P10i]\7"
  8: 0x0033 [0x23] WAIT_FOR_DIALOG_INTERACTION
  9: 0x0034 [0x01] GOTO 0x0045
 10: 0x0037 [0x02] IF !(Work_Zone[0] == 3*) GOTO 0x0045
 11: 0x003F [0x1A] CALL_SUBROUTINE(address=0x0060)
 12: 0x0042 [0x01] GOTO 0x0045

SUBROUTINE_0045:
 13: 0x0045 [0x21] END_EVENT
 14: 0x0046 [0x00] END_REQSTACK()

SUBROUTINE_0047:
 15: 0x0047 [0x24] CREATE_DIALOG(message_id=7717*, default_option=0*, option_flags=0*)
    → "$3W$3$3$3$3v$P10fp$P11I$P11p [$3|$3C$3$3gH"U[]"
 16: 0x004E [0x25] WAIT_DIALOG_SELECT()
 17: 0x004F [0x02] IF !(Work_Zone[0] == 0*) GOTO 0x005F
 18: 0x0057 [0x03] Work_Zone[1] = 90*
 19: 0x005C [0x01] GOTO 0x005F

SUBROUTINE_005F:
 20: 0x005F [0x1B] RETURN

SUBROUTINE_0060:
 21: 0x0060 [0x5C] MUSIC_CONTROL: Set Idle (Day) music to song 0*
 22: 0x0064 [0x5C] MUSIC_CONTROL: Set Idle (Night) music to song 0*
 23: 0x0068 [0x5C] MUSIC_CONTROL: Set Combat (Solo) music to song 0*
 24: 0x006C [0x5C] MUSIC_CONTROL: Set Combat (Party) music to song 0*
 25: 0x0070 [0x9A] WAIT_MUSIC_SERVER()
 26: 0x0071 [0x46] CAMERA_CONTROL: Disable user control
 27: 0x0073 [0x24] CREATE_DIALOG(message_id=7715*, default_option=0*, option_flags=0*)
    → "$3C$3x$3$3gp$P11I$P11p [$3 $3o$3 [$3|$3$3X/$P122$P10.%p]"
 28: 0x007A [0x25] WAIT_DIALOG_SELECT()
 29: 0x007B [0x02] IF !(Work_Zone[0] == 0*) GOTO 0x0089
 30: 0x0083 [0x1A] CALL_SUBROUTINE(address=0x009A)
 31: 0x0086 [0x01] GOTO 0x0097
 32: 0x0089 [0x02] IF !(Work_Zone[0] == 1*) GOTO 0x0097
 33: 0x0091 [0x1A] CALL_SUBROUTINE(address=0x0369)
 34: 0x0094 [0x01] GOTO 0x0097

SUBROUTINE_0097:
 35: 0x0097 [0x46] CAMERA_CONTROL: Restore default settings
 36: 0x0099 [0x1B] RETURN
```

### Event 1

#### Metadata

| Field        | Value     |
|--------------|-----------|
| Entrypoint   | 0x009A    |
| Data Size    | 720 bytes |
| Instructions | 96        |

```
      00 01 02 03 04 05 06 07  08 09 0A 0B 0C 0D 0E 0F
      -- -- -- -- -- -- -- --  -- -- -- -- -- -- -- --
0090:                                42 1A 3C 24 46 01            B.<$F.
00A0: 38 0A 80 1C 0B 80 79 00  F0 FF FF 7F F0 FF FF 7F  8.....y.........
00B0: 4E 00 F0 FF FF 7F 27 10  DE B0 00 01 04 27 10 DF  N.....'......'..
00C0: B0 00 01 04 92 01 DE B0  00 01 92 01 DF B0 00 01  ................
00D0: 27 10 F0 FF FF 7F 02 27  10 DE B0 00 01 09 27 10  '......'......'.
00E0: DF B0 00 01 09 80 F0 FF  FF 7F 66 0C 80 DF B0 00  ..........f.....
00F0: 01 DF B0 00 01 74 68 6B  31 5C 00 0D 80 5C 01 0D  .....thk1\...\..
0100: 80 5C 02 0E 80 5C 03 0F  80 9A 1C 10 80 45 04 80  .\...\.......E..
0110: F0 FF FF 7F F0 FF FF 7F  6D 62 30 30 01 80 27 10  ........mb00..'.
0120: F0 FF FF 7F 03 1A 1B 24  2A 10 F0 FF FF 7F 55 04  .......$*.....U.
0130: 80 F0 FF FF 7F F0 FF FF  7F 6D 62 30 30 45 04 80  .........mb00E..
0140: F0 FF FF 7F F0 FF FF 7F  6D 62 30 31 01 80 66 0C  ........mb01..f.
0150: 80 DF B0 00 01 DF B0 00  01 74 68 6B 32 1C 11 80  .........thk2...
0160: 4A DF B0 00 01 F0 FF FF  7F 1C 12 80 66 0C 80 DF  J...........f...
0170: B0 00 01 DF B0 00 01 74  6C 6B 30 2B DF B0 00 01  .......tlk0+....
0180: 13 80 23 2B DF B0 00 01  14 80 23 66 0C 80 DF B0  ..#+......#f....
0190: 00 01 DF B0 00 01 74 6C  6B 31 52 04 80 F0 FF FF  ......tlk1R.....
01A0: 7F F0 FF FF 7F 6D 62 30  31 45 04 80 F0 FF FF 7F  .....mb01E......
01B0: F0 FF FF 7F 6D 62 30 32  01 80 38 06 80 2B DF B0  ....mb02..8..+..
01C0: 00 01 15 80 23 52 04 80  F0 FF FF 7F F0 FF FF 7F  ....#R..........
01D0: 6D 62 30 32 45 04 80 F0  FF FF 7F F0 FF FF 7F 6D  mb02E..........m
01E0: 62 30 33 01 80 2B DF B0  00 01 16 80 23 2B DF B0  b03..+......#+..
01F0: 00 01 17 80 23 2B DF B0  00 01 18 80 23 1A 3C 24  ....#+......#.<$
0200: 1C 10 80 27 10 F0 FF FF  7F 04 38 0A 80 52 04 80  ...'......8..R..
0210: F0 FF FF 7F F0 FF FF 7F  6D 62 30 33 45 04 80 F0  ........mb03E...
0220: FF FF 7F F0 FF FF 7F 6D  62 30 35 01 80 1A 1B 24  .......mb05....$
0230: 66 0C 80 DF B0 00 01 DF  B0 00 01 74 68 6B 31 2B  f..........thk1+
0240: DF B0 00 01 19 80 23 66  0C 80 DF B0 00 01 DF B0  ......#f........
0250: 00 01 74 68 6B 32 1C 11  80 4A DF B0 00 01 DE B0  ..thk2...J......
0260: 00 01 52 04 80 F0 FF FF  7F F0 FF FF 7F 6D 62 30  ..R..........mb0
0270: 35 45 04 80 F0 FF FF 7F  F0 FF FF 7F 6D 62 30 36  5E..........mb06
0280: 01 80 2B DF B0 00 01 1A  80 23 5B 1B 80 DF B0 00  ..+......#[.....
0290: 01 DF B0 00 01 6F 64 6F  30 1C 10 80 2B DF B0 00  .....odo0...+...
02A0: 01 1C 80 23 52 04 80 F0  FF FF 7F F0 FF FF 7F 6D  ...#R..........m
02B0: 62 30 36 45 04 80 F0 FF  FF 7F F0 FF FF 7F 6D 62  b06E..........mb
02C0: 30 37 01 80 27 10 DE B0  00 01 0A 1C 1D 80 1A 3C  07..'..........<
02D0: 24 1C 10 80 52 04 80 F0  FF FF 7F F0 FF FF 7F 6D  $...R..........m
02E0: 62 30 37 45 04 80 F0 FF  FF 7F F0 FF FF 7F 6D 62  b07E..........mb
02F0: 30 39 01 80 1A 1B 24 2B  DF B0 00 01 1E 80 23 52  09....$+......#R
0300: 04 80 F0 FF FF 7F F0 FF  FF 7F 6D 62 30 39 45 04  ..........mb09E.
0310: 80 F0 FF FF 7F F0 FF FF  7F 6D 62 31 30 01 80 7B  .........mb10..{
0320: DF B0 00 01 27 10 DF B0  00 01 0A 1C 1F 80 1A 3C  ....'..........<
0330: 24 1C 10 80 52 04 80 F0  FF FF 7F F0 FF FF 7F 6D  $...R..........m
0340: 62 31 30 45 04 80 F0 FF  FF 7F F0 FF FF 7F 30 62  b10E..........0b
0350: 6C 66 01 80 46 00 45 20  80 F0 FF FF 7F F0 FF FF  lf..F.E ........
0360: 7F 66 64 69 32 01 80 21  00 1B                    .fdi2..!..      
```

#### Opcodes

```
  0: 0x009A [0x42] SET_CLI_EVENT_CANCEL_DATA()
  1: 0x009B [0x1A] CALL_SUBROUTINE(address=0x243C)
  2: 0x009E [0x46] CAMERA_CONTROL: Disable user control
  3: 0x00A0 [0x38] SET_CLIENT_EVENT_MODE(mode=19*)
  4: 0x00A3 [0x1C] WAIT(15* ticks)
  5: 0x00A6 [0x79] LocalPlayer looks at LocalPlayer (Basic look)
  6: 0x00B0 [0x4E] SET_ENTITY_HIDE_FLAG: Show LocalPlayer
  7: 0x00B6 [0x27] REQ_SET(priority=0x10, entity_id=Selh'teus (ID: 16822494/0x0100B0DE), tag_num=0x04)
  8: 0x00BD [0x27] REQ_SET(priority=0x10, entity_id=Louverance (ID: 16822495/0x0100B0DF), tag_num=0x04)
  9: 0x00C4 [0x92] Selh'teus (ID: 16822494/0x0100B0DE)->Render.Flags3 ^= 0x01
 10: 0x00CA [0x92] Louverance (ID: 16822495/0x0100B0DF)->Render.Flags3 ^= 0x01
 11: 0x00D0 [0x27] REQ_SET(priority=0x10, entity_id=LocalPlayer, tag_num=0x02)
 12: 0x00D7 [0x27] REQ_SET(priority=0x10, entity_id=Selh'teus (ID: 16822494/0x0100B0DE), tag_num=0x09)
 13: 0x00DE [0x27] REQ_SET(priority=0x10, entity_id=Louverance (ID: 16822495/0x0100B0DF), tag_num=0x09)
 14: 0x00E5 [0x80] LOAD_WAIT(entity=LocalPlayer)
 15: 0x00EA [0x66] LOAD_EXT_SCHEDULER_MAIN: Load scheduler "thk1" with entities [Louverance (ID: 16822495/0x0100B0DF), Louverance (ID: 16822495/0x0100B0DF)], work=29*
 16: 0x00F9 [0x5C] MUSIC_CONTROL: Set Idle (Day) music to song 221*
 17: 0x00FD [0x5C] MUSIC_CONTROL: Set Idle (Night) music to song 221*
 18: 0x0101 [0x5C] MUSIC_CONTROL: Set Combat (Solo) music to song 115*
 19: 0x0105 [0x5C] MUSIC_CONTROL: Set Combat (Party) music to song 218*
 20: 0x0109 [0x9A] WAIT_MUSIC_SERVER()
 21: 0x010A [0x1C] WAIT(30* ticks)
 22: 0x010D [0x45] LOAD_SCHEDULED_TASK: Load scheduler "mb00" with entities [LocalPlayer, LocalPlayer], work=[179*, 0*]
 23: 0x011E [0x27] REQ_SET(priority=0x10, entity_id=LocalPlayer, tag_num=0x03)
 24: 0x0125 [0x1A] CALL_SUBROUTINE(address=0x241B)
 25: 0x0128 [0x2A] GET_REQ_LEVEL(level=16, entity_id=LocalPlayer)
 26: 0x012E [0x55] WAIT_LOAD_SCHEDULER: Wait for scheduler "mb00" with entities [LocalPlayer, LocalPlayer], work=179*
 27: 0x013D [0x45] LOAD_SCHEDULED_TASK: Load scheduler "mb01" with entities [LocalPlayer, LocalPlayer], work=[179*, 0*]
 28: 0x014E [0x66] LOAD_EXT_SCHEDULER_MAIN: Load scheduler "thk2" with entities [Louverance (ID: 16822495/0x0100B0DF), Louverance (ID: 16822495/0x0100B0DF)], work=29*
 29: 0x015D [0x1C] WAIT(60* ticks)
 30: 0x0160 [0x4A] Louverance (ID: 16822495/0x0100B0DF) looks at LocalPlayer
 31: 0x0169 [0x1C] WAIT(45* ticks)
 32: 0x016C [0x66] LOAD_EXT_SCHEDULER_MAIN: Load scheduler "tlk0" with entities [Louverance (ID: 16822495/0x0100B0DF), Louverance (ID: 16822495/0x0100B0DF)], work=29*
 33: 0x017B [0x2B] Louverance (ID: 16822495/0x0100B0DF) [7687*]:
    → "Why, if it isn't the adventurer, <Player>."
 34: 0x0182 [0x23] WAIT_FOR_DIALOG_INTERACTION
 35: 0x0183 [0x2B] Louverance (ID: 16822495/0x0100B0DF) [7688*]:
    → "I must commend you on your insight."
 36: 0x018A [0x23] WAIT_FOR_DIALOG_INTERACTION
 37: 0x018B [0x66] LOAD_EXT_SCHEDULER_MAIN: Load scheduler "tlk1" with entities [Louverance (ID: 16822495/0x0100B0DF), Louverance (ID: 16822495/0x0100B0DF)], work=29*
 38: 0x019A [0x52] END_LOAD_SCHEDULER: End scheduler "mb01" with entities [LocalPlayer, LocalPlayer], work=179*
 39: 0x01A9 [0x45] LOAD_SCHEDULED_TASK: Load scheduler "mb02" with entities [LocalPlayer, LocalPlayer], work=[179*, 0*]
 40: 0x01BA [0x38] SET_CLIENT_EVENT_MODE(mode=3*)
 41: 0x01BD [0x2B] Louverance (ID: 16822495/0x0100B0DF) [7689*]:
    → "Yes, it was nearly one hundred years ago, too, that the Moblins wandered their way up from the bowels of Vana'diel..."
 42: 0x01C4 [0x23] WAIT_FOR_DIALOG_INTERACTION
 43: 0x01C5 [0x52] END_LOAD_SCHEDULER: End scheduler "mb02" with entities [LocalPlayer, LocalPlayer], work=179*
 44: 0x01D4 [0x45] LOAD_SCHEDULED_TASK: Load scheduler "mb03" with entities [LocalPlayer, LocalPlayer], work=[179*, 0*]
 45: 0x01E5 [0x2B] Louverance (ID: 16822495/0x0100B0DF) [7690*]:
    → "And then the Tarutaru scientist who examined the statue in Tavnazia--what he said about the statue dug up from a labyrinth..."
 46: 0x01EC [0x23] WAIT_FOR_DIALOG_INTERACTION
 47: 0x01ED [0x2B] Louverance (ID: 16822495/0x0100B0DF) [7691*]:
    → "I advise you, do not let down your guard when traveling through these caves. The Moblins' behavior is often erratic, and they can be quite nastier than their cousins on the surface."
 48: 0x01F4 [0x23] WAIT_FOR_DIALOG_INTERACTION
 49: 0x01F5 [0x2B] Louverance (ID: 16822495/0x0100B0DF) [7692*]:
    → "Out of all the beastmen, they seem to realize that they are the children of the Twilight, and it is this fact that drives them."
 50: 0x01FC [0x23] WAIT_FOR_DIALOG_INTERACTION
 51: 0x01FD [0x1A] CALL_SUBROUTINE(address=0x243C)
 52: 0x0200 [0x1C] WAIT(30* ticks)
 53: 0x0203 [0x27] REQ_SET(priority=0x10, entity_id=LocalPlayer, tag_num=0x04)
 54: 0x020A [0x38] SET_CLIENT_EVENT_MODE(mode=19*)
 55: 0x020D [0x52] END_LOAD_SCHEDULER: End scheduler "mb03" with entities [LocalPlayer, LocalPlayer], work=179*
 56: 0x021C [0x45] LOAD_SCHEDULED_TASK: Load scheduler "mb05" with entities [LocalPlayer, LocalPlayer], work=[179*, 0*]
 57: 0x022D [0x1A] CALL_SUBROUTINE(address=0x241B)
 58: 0x0230 [0x66] LOAD_EXT_SCHEDULER_MAIN: Load scheduler "thk1" with entities [Louverance (ID: 16822495/0x0100B0DF), Louverance (ID: 16822495/0x0100B0DF)], work=29*
 59: 0x023F [0x2B] Louverance (ID: 16822495/0x0100B0DF) [7693*]:
    → "Ah yes, one of my colleagues said he spoke with a creature known as Tarnotik deep in the eastern end of this area the Moblins call Oldton Movalpolos. Whether that beast will help you or not..."
 60: 0x0246 [0x23] WAIT_FOR_DIALOG_INTERACTION
 61: 0x0247 [0x66] LOAD_EXT_SCHEDULER_MAIN: Load scheduler "thk2" with entities [Louverance (ID: 16822495/0x0100B0DF), Louverance (ID: 16822495/0x0100B0DF)], work=29*
 62: 0x0256 [0x1C] WAIT(60* ticks)
 63: 0x0259 [0x4A] Louverance (ID: 16822495/0x0100B0DF) looks at Selh'teus (ID: 16822494/0x0100B0DE)
 64: 0x0262 [0x52] END_LOAD_SCHEDULER: End scheduler "mb05" with entities [LocalPlayer, LocalPlayer], work=179*
 65: 0x0271 [0x45] LOAD_SCHEDULED_TASK: Load scheduler "mb06" with entities [LocalPlayer, LocalPlayer], work=[179*, 0*]
 66: 0x0282 [0x2B] Louverance (ID: 16822495/0x0100B0DF) [7694*]:
    → "I still am not convinced that this cave is truly the path to Al'Taieu."
 67: 0x0289 [0x23] WAIT_FOR_DIALOG_INTERACTION
 68: 0x028A [0x5B] LOAD_EXT_SCHEDULER: Load scheduler "odo0" with entities [Louverance (ID: 16822495/0x0100B0DF), Louverance (ID: 16822495/0x0100B0DF)], work=656*
 69: 0x0299 [0x1C] WAIT(30* ticks)
 70: 0x029C [0x2B] Louverance (ID: 16822495/0x0100B0DF) [7695*]:
    → "..."
 71: 0x02A3 [0x23] WAIT_FOR_DIALOG_INTERACTION
 72: 0x02A4 [0x52] END_LOAD_SCHEDULER: End scheduler "mb06" with entities [LocalPlayer, LocalPlayer], work=179*
 73: 0x02B3 [0x45] LOAD_SCHEDULED_TASK: Load scheduler "mb07" with entities [LocalPlayer, LocalPlayer], work=[179*, 0*]
 74: 0x02C4 [0x27] REQ_SET(priority=0x10, entity_id=Selh'teus (ID: 16822494/0x0100B0DE), tag_num=0x0A)
 75: 0x02CB [0x1C] WAIT(270* ticks)
 76: 0x02CE [0x1A] CALL_SUBROUTINE(address=0x243C)
 77: 0x02D1 [0x1C] WAIT(30* ticks)
 78: 0x02D4 [0x52] END_LOAD_SCHEDULER: End scheduler "mb07" with entities [LocalPlayer, LocalPlayer], work=179*
 79: 0x02E3 [0x45] LOAD_SCHEDULED_TASK: Load scheduler "mb09" with entities [LocalPlayer, LocalPlayer], work=[179*, 0*]
 80: 0x02F4 [0x1A] CALL_SUBROUTINE(address=0x241B)
 81: 0x02F7 [0x2B] Louverance (ID: 16822495/0x0100B0DF) [7696*]:
    → "It cannot be!"
 82: 0x02FE [0x23] WAIT_FOR_DIALOG_INTERACTION
 83: 0x02FF [0x52] END_LOAD_SCHEDULER: End scheduler "mb09" with entities [LocalPlayer, LocalPlayer], work=179*
 84: 0x030E [0x45] LOAD_SCHEDULED_TASK: Load scheduler "mb10" with entities [LocalPlayer, LocalPlayer], work=[179*, 0*]
 85: 0x031F [0x7B] Louverance (ID: 16822495/0x0100B0DF) stops talking
 86: 0x0324 [0x27] REQ_SET(priority=0x10, entity_id=Louverance (ID: 16822495/0x0100B0DF), tag_num=0x0A)
 87: 0x032B [0x1C] WAIT(120* ticks)
 88: 0x032E [0x1A] CALL_SUBROUTINE(address=0x243C)
 89: 0x0331 [0x1C] WAIT(30* ticks)
 90: 0x0334 [0x52] END_LOAD_SCHEDULER: End scheduler "mb10" with entities [LocalPlayer, LocalPlayer], work=179*
 91: 0x0343 [0x45] LOAD_SCHEDULED_TASK: Load scheduler "0blf" with entities [LocalPlayer, LocalPlayer], work=[179*, 0*]
 92: 0x0354 [0x46] CAMERA_CONTROL: Restore default settings
 93: 0x0356 [0x45] LOAD_SCHEDULED_TASK: Load scheduler "fdi2" with entities [LocalPlayer, LocalPlayer], work=[200*, 0*]
 94: 0x0367 [0x21] END_EVENT
 95: 0x0368 [0x00] END_REQSTACK()
```

#### Data or dead code:

```
# Dead code (unreachable instructions):
     0x0369 [0x1B] RETURN
```

### Event 40

#### Metadata

| Field        | Value     |
|--------------|-----------|
| Entrypoint   | 0x036A    |
| Data Size    | 992 bytes |
| Instructions | 136       |

```
      00 01 02 03 04 05 06 07  08 09 0A 0B 0C 0D 0E 0F
      -- -- -- -- -- -- -- --  -- -- -- -- -- -- -- --
0360:                                42 1A 3C 24 46 01            B.<$F.
0370: 02 09 10 21 80 01 81 03  03 01 10 21 80 43 00 43  ...!.......!.C.C
0380: 01 03 00 00 03 10 03 01  00 04 10 03 02 00 05 10  ................
0390: 03 03 00 06 10 38 0A 80  79 00 F0 FF FF 7F F0 FF  .....8..y.......
03A0: FF 7F 4E 00 F0 FF FF 7F  27 10 05 B1 00 01 05 27  ..N.....'......'
03B0: 10 06 B1 00 01 05 92 01  05 B1 00 01 92 01 06 B1  ................
03C0: 00 01 27 10 05 B1 00 01  06 27 10 06 B1 00 01 06  ..'......'......
03D0: 29 10 F0 FF FF 7F 09 80  05 B1 00 01 80 06 B1 00  )...............
03E0: 01 80 F0 FF FF 7F 1C 0B  80 5C 00 22 80 5C 01 22  .........\.".\."
03F0: 80 9A 45 23 80 F0 FF FF  7F F0 FF FF 7F 6D 31 30  ..E#.........m10
0400: 31 01 80 27 10 F0 FF FF  7F 0A 1A 1B 24 2A 10 F0  1..'........$*..
0410: FF FF 7F 52 23 80 F0 FF  FF 7F F0 FF FF 7F 6D 31  ...R#.........m1
0420: 30 31 45 23 80 F0 FF FF  7F F0 FF FF 7F 6D 31 30  01E#.........m10
0430: 32 01 80 27 10 05 B1 00  01 07 27 10 06 B1 00 01  2..'......'.....
0440: 07 1C 08 80 2B 05 B1 00  01 24 80 23 2B 06 B1 00  ....+....$.#+...
0450: 01 25 80 23 2A 10 05 B1  00 01 2A 10 06 B1 00 01  .%.#*.....*.....
0460: 52 23 80 F0 FF FF 7F F0  FF FF 7F 6D 31 30 32 45  R#.........m102E
0470: 23 80 F0 FF FF 7F F0 FF  FF 7F 6D 31 30 33 01 80  #.........m103..
0480: 5B 26 80 05 B1 00 01 05  B1 00 01 74 6C 6B 30 03  [&.........tlk0.
0490: 03 10 00 00 2B 05 B1 00  01 27 80 23 6B 69 64 6C  ....+....'.#kidl
04A0: 30 05 B1 00 01 5B 26 80  06 B1 00 01 06 B1 00 01  0....[&.........
04B0: 74 6C 6B 30 03 04 10 01  00 2B 06 B1 00 01 28 80  tlk0.....+....(.
04C0: 23 6B 69 64 6C 30 06 B1  00 01 1C 10 80 52 23 80  #kidl0.......R#.
04D0: F0 FF FF 7F F0 FF FF 7F  6D 31 30 33 45 23 80 F0  ........m103E#..
04E0: FF FF 7F F0 FF FF 7F 6D  31 30 34 01 80 27 10 05  .......m104..'..
04F0: B1 00 01 08 27 10 06 B1  00 01 08 1C 08 80 2B 05  ....'.........+.
0500: B1 00 01 24 80 23 2B 06  B1 00 01 25 80 23 2A 10  ...$.#+....%.#*.
0510: 05 B1 00 01 2A 10 06 B1  00 01 5B 26 80 05 B1 00  ....*.....[&....
0520: 01 05 B1 00 01 74 6C 6B  31 03 05 10 02 00 2B 05  .....tlk1.....+.
0530: B1 00 01 29 80 23 6B 69  64 6C 30 05 B1 00 01 5B  ...).#kidl0....[
0540: 26 80 06 B1 00 01 06 B1  00 01 74 6C 6B 31 03 06  &.........tlk1..
0550: 10 03 00 2B 06 B1 00 01  2A 80 23 6B 69 64 6C 30  ...+....*.#kidl0
0560: 06 B1 00 01 52 23 80 F0  FF FF 7F F0 FF FF 7F 6D  ....R#.........m
0570: 31 30 34 45 23 80 F0 FF  FF 7F F0 FF FF 7F 6D 31  104E#.........m1
0580: 30 35 01 80 1C 10 80 4A  05 B1 00 01 F0 FF FF 7F  05.....J........
0590: 4A 06 B1 00 01 F0 FF FF  7F 1C 12 80 55 23 80 F0  J...........U#..
05A0: FF FF 7F F0 FF FF 7F 6D  31 30 35 45 23 80 F0 FF  .......m105E#...
05B0: FF 7F F0 FF FF 7F 6D 31  30 36 01 80 5B 2B 80 05  ......m106..[+..
05C0: B1 00 01 05 B1 00 01 62  69 6B 30 5B 2B 80 06 B1  .......bik0[+...
05D0: 00 01 06 B1 00 01 62 69  6B 30 1C 10 80 2B 05 B1  ......bik0...+..
05E0: 00 01 2C 80 23 2B 06 B1  00 01 2D 80 23 52 23 80  ..,.#+....-.#R#.
05F0: F0 FF FF 7F F0 FF FF 7F  6D 31 30 36 45 23 80 F0  ........m106E#..
0600: FF FF 7F F0 FF FF 7F 6D  31 30 37 01 80 5B 2B 80  .......m107..[+.
0610: 05 B1 00 01 05 B1 00 01  62 69 6B 31 5B 2B 80 06  ........bik1[+..
0620: B1 00 01 06 B1 00 01 62  69 6B 31 1C 11 80 5B 26  .......bik1...[&
0630: 80 05 B1 00 01 05 B1 00  01 74 6C 6B 30 5B 26 80  .........tlk0[&.
0640: 06 B1 00 01 06 B1 00 01  74 6C 6B 30 2B 05 B1 00  ........tlk0+...
0650: 01 2E 80 23 2B 06 B1 00  01 2F 80 23 52 23 80 F0  ...#+..../.#R#..
0660: FF FF 7F F0 FF FF 7F 6D  31 30 37 45 23 80 F0 FF  .......m107E#...
0670: FF 7F F0 FF FF 7F 6D 31  30 38 01 80 4A 05 B1 00  ......m108..J...
0680: 01 06 B1 00 01 4A 06 B1  00 01 05 B1 00 01 1C 12  .....J..........
0690: 80 5B 26 80 05 B1 00 01  05 B1 00 01 74 6C 6B 30  .[&.........tlk0
06A0: 5B 26 80 06 B1 00 01 06  B1 00 01 74 6C 6B 30 2B  [&.........tlk0+
06B0: 05 B1 00 01 30 80 23 2B  06 B1 00 01 31 80 23 4A  ....0.#+....1.#J
06C0: 05 B1 00 01 F0 FF FF 7F  4A 06 B1 00 01 F0 FF FF  ........J.......
06D0: 7F 1C 10 80 52 23 80 F0  FF FF 7F F0 FF FF 7F 6D  ....R#.........m
06E0: 31 30 38 45 23 80 F0 FF  FF 7F F0 FF FF 7F 6D 31  108E#.........m1
06F0: 30 39 01 80 27 10 05 B1  00 01 09 27 10 06 B1 00  09..'......'....
0700: 01 09 1C 32 80 4B F0 FF  FF 7F 33 80 1C 10 80 1A  ...2.K....3.....
0710: 3C 24 1C 10 80 52 23 80  F0 FF FF 7F F0 FF FF 7F  <$...R#.........
0720: 6D 31 30 39 5C 00 0D 80  5C 01 0D 80 5C 02 0E 80  m109\...\...\...
0730: 5C 03 0F 80 9A 46 00 45  20 80 F0 FF FF 7F F0 FF  \....F.E .......
0740: FF 7F 66 64 69 32 01 80  21 00                    ..fdi2..!.      
```

#### Opcodes

```
  0: 0x036A [0x42] SET_CLI_EVENT_CANCEL_DATA()
  1: 0x036B [0x1A] CALL_SUBROUTINE(address=0x243C)
  2: 0x036E [0x46] CAMERA_CONTROL: Disable user control
  3: 0x0370 [0x02] IF !(Work_Zone[9] == 99*) GOTO 0x0381
  4: 0x0378 [0x03] Work_Zone[1] = 99*
  5: 0x037D [0x43] SEND_EVENT_UPDATE: Send pending tag to server (packet 0x005B)
  6: 0x037F [0x43] SEND_EVENT_UPDATE: Check pending flag (skip if not pending)
  7: 0x0381 [0x03] ExtData[1]->WorkLocal[0] = Work_Zone[3]
  8: 0x0386 [0x03] ExtData[1]->WorkLocal[1] = Work_Zone[4]
  9: 0x038B [0x03] ExtData[1]->WorkLocal[2] = Work_Zone[5]
 10: 0x0390 [0x03] ExtData[1]->WorkLocal[3] = Work_Zone[6]
 11: 0x0395 [0x38] SET_CLIENT_EVENT_MODE(mode=19*)
 12: 0x0398 [0x79] LocalPlayer looks at LocalPlayer (Basic look)
 13: 0x03A2 [0x4E] SET_ENTITY_HIDE_FLAG: Show LocalPlayer
 14: 0x03A8 [0x27] REQ_SET(priority=0x10, entity_id=Pawnpix (ID: 16822533/0x0100B105), tag_num=0x05)
 15: 0x03AF [0x27] REQ_SET(priority=0x10, entity_id=Stufstix (ID: 16822534/0x0100B106), tag_num=0x05)
 16: 0x03B6 [0x92] Pawnpix (ID: 16822533/0x0100B105)->Render.Flags3 ^= 0x01
 17: 0x03BC [0x92] Stufstix (ID: 16822534/0x0100B106)->Render.Flags3 ^= 0x01
 18: 0x03C2 [0x27] REQ_SET(priority=0x10, entity_id=Pawnpix (ID: 16822533/0x0100B105), tag_num=0x06)
 19: 0x03C9 [0x27] REQ_SET(priority=0x10, entity_id=Stufstix (ID: 16822534/0x0100B106), tag_num=0x06)
 20: 0x03D0 [0x29] REQ_SET_WAIT(priority=0x10, entity_id=LocalPlayer, tag_num=0x09)
 21: 0x03D7 [0x80] LOAD_WAIT(entity=Pawnpix (ID: 16822533/0x0100B105))
 22: 0x03DC [0x80] LOAD_WAIT(entity=Stufstix (ID: 16822534/0x0100B106))
 23: 0x03E1 [0x80] LOAD_WAIT(entity=LocalPlayer)
 24: 0x03E6 [0x1C] WAIT(15* ticks)
 25: 0x03E9 [0x5C] MUSIC_CONTROL: Set Idle (Day) music to song 163*
 26: 0x03ED [0x5C] MUSIC_CONTROL: Set Idle (Night) music to song 163*
 27: 0x03F1 [0x9A] WAIT_MUSIC_SERVER()
 28: 0x03F2 [0x45] LOAD_SCHEDULED_TASK: Load scheduler "m101" with entities [LocalPlayer, LocalPlayer], work=[156*, 0*]
 29: 0x0403 [0x27] REQ_SET(priority=0x10, entity_id=LocalPlayer, tag_num=0x0A)
 30: 0x040A [0x1A] CALL_SUBROUTINE(address=0x241B)
 31: 0x040D [0x2A] GET_REQ_LEVEL(level=16, entity_id=LocalPlayer)
 32: 0x0413 [0x52] END_LOAD_SCHEDULER: End scheduler "m101" with entities [LocalPlayer, LocalPlayer], work=156*
 33: 0x0422 [0x45] LOAD_SCHEDULED_TASK: Load scheduler "m102" with entities [LocalPlayer, LocalPlayer], work=[156*, 0*]
 34: 0x0433 [0x27] REQ_SET(priority=0x10, entity_id=Pawnpix (ID: 16822533/0x0100B105), tag_num=0x07)
 35: 0x043A [0x27] REQ_SET(priority=0x10, entity_id=Stufstix (ID: 16822534/0x0100B106), tag_num=0x07)
 36: 0x0441 [0x1C] WAIT(90* ticks)
 37: 0x0444 [0x2B] Pawnpix (ID: 16822533/0x0100B105) [7775*]:
    → "This's all your fault."
 38: 0x044B [0x23] WAIT_FOR_DIALOG_INTERACTION
 39: 0x044C [0x2B] Stufstix (ID: 16822534/0x0100B106) [7774*]:
    → "It's all your fault."
 40: 0x0453 [0x23] WAIT_FOR_DIALOG_INTERACTION
 41: 0x0454 [0x2A] GET_REQ_LEVEL(level=16, entity_id=Pawnpix (ID: 16822533/0x0100B105))
 42: 0x045A [0x2A] GET_REQ_LEVEL(level=16, entity_id=Stufstix (ID: 16822534/0x0100B106))
 43: 0x0460 [0x52] END_LOAD_SCHEDULER: End scheduler "m102" with entities [LocalPlayer, LocalPlayer], work=156*
 44: 0x046F [0x45] LOAD_SCHEDULED_TASK: Load scheduler "m103" with entities [LocalPlayer, LocalPlayer], work=[156*, 0*]
 45: 0x0480 [0x5B] LOAD_EXT_SCHEDULER: Load scheduler "tlk0" with entities [Pawnpix (ID: 16822533/0x0100B105), Pawnpix (ID: 16822533/0x0100B105)], work=215*
 46: 0x048F [0x03] Work_Zone[3] = ExtData[1]->WorkLocal[0]
 47: 0x0494 [0x2B] Pawnpix (ID: 16822533/0x0100B105) [7776*]:
    → "He'll love $1, you said."
 48: 0x049B [0x23] WAIT_FOR_DIALOG_INTERACTION
 49: 0x049C [0x6B] STOP_AND_IDLE: Pawnpix (ID: 16822533/0x0100B105) stops current action and resets to idle (animation="idl0")
 50: 0x04A5 [0x5B] LOAD_EXT_SCHEDULER: Load scheduler "tlk0" with entities [Stufstix (ID: 16822534/0x0100B106), Stufstix (ID: 16822534/0x0100B106)], work=215*
 51: 0x04B4 [0x03] Work_Zone[4] = ExtData[1]->WorkLocal[1]
 52: 0x04B9 [0x2B] Stufstix (ID: 16822534/0x0100B106) [7777*]:
    → "$2 are better, you said."
 53: 0x04C0 [0x23] WAIT_FOR_DIALOG_INTERACTION
 54: 0x04C1 [0x6B] STOP_AND_IDLE: Stufstix (ID: 16822534/0x0100B106) stops current action and resets to idle (animation="idl0")
 55: 0x04CA [0x1C] WAIT(30* ticks)
 56: 0x04CD [0x52] END_LOAD_SCHEDULER: End scheduler "m103" with entities [LocalPlayer, LocalPlayer], work=156*
 57: 0x04DC [0x45] LOAD_SCHEDULED_TASK: Load scheduler "m104" with entities [LocalPlayer, LocalPlayer], work=[156*, 0*]
 58: 0x04ED [0x27] REQ_SET(priority=0x10, entity_id=Pawnpix (ID: 16822533/0x0100B105), tag_num=0x08)
 59: 0x04F4 [0x27] REQ_SET(priority=0x10, entity_id=Stufstix (ID: 16822534/0x0100B106), tag_num=0x08)
 60: 0x04FB [0x1C] WAIT(90* ticks)
 61: 0x04FE [0x2B] Pawnpix (ID: 16822533/0x0100B105) [7775*]:
    → "This's all your fault."
 62: 0x0505 [0x23] WAIT_FOR_DIALOG_INTERACTION
 63: 0x0506 [0x2B] Stufstix (ID: 16822534/0x0100B106) [7774*]:
    → "It's all your fault."
 64: 0x050D [0x23] WAIT_FOR_DIALOG_INTERACTION
 65: 0x050E [0x2A] GET_REQ_LEVEL(level=16, entity_id=Pawnpix (ID: 16822533/0x0100B105))
 66: 0x0514 [0x2A] GET_REQ_LEVEL(level=16, entity_id=Stufstix (ID: 16822534/0x0100B106))
 67: 0x051A [0x5B] LOAD_EXT_SCHEDULER: Load scheduler "tlk1" with entities [Pawnpix (ID: 16822533/0x0100B105), Pawnpix (ID: 16822533/0x0100B105)], work=215*
 68: 0x0529 [0x03] Work_Zone[5] = ExtData[1]->WorkLocal[2]
 69: 0x052E [0x2B] Pawnpix (ID: 16822533/0x0100B105) [7778*]:
    → "Get some $3, you said."
 70: 0x0535 [0x23] WAIT_FOR_DIALOG_INTERACTION
 71: 0x0536 [0x6B] STOP_AND_IDLE: Pawnpix (ID: 16822533/0x0100B105) stops current action and resets to idle (animation="idl0")
 72: 0x053F [0x5B] LOAD_EXT_SCHEDULER: Load scheduler "tlk1" with entities [Stufstix (ID: 16822534/0x0100B106), Stufstix (ID: 16822534/0x0100B106)], work=215*
 73: 0x054E [0x03] Work_Zone[6] = ExtData[1]->WorkLocal[3]
 74: 0x0553 [0x2B] Stufstix (ID: 16822534/0x0100B106) [7779*]:
    → "$4 won't work, you said."
 75: 0x055A [0x23] WAIT_FOR_DIALOG_INTERACTION
 76: 0x055B [0x6B] STOP_AND_IDLE: Stufstix (ID: 16822534/0x0100B106) stops current action and resets to idle (animation="idl0")
 77: 0x0564 [0x52] END_LOAD_SCHEDULER: End scheduler "m104" with entities [LocalPlayer, LocalPlayer], work=156*
 78: 0x0573 [0x45] LOAD_SCHEDULED_TASK: Load scheduler "m105" with entities [LocalPlayer, LocalPlayer], work=[156*, 0*]
 79: 0x0584 [0x1C] WAIT(30* ticks)
 80: 0x0587 [0x4A] Pawnpix (ID: 16822533/0x0100B105) looks at LocalPlayer
 81: 0x0590 [0x4A] Stufstix (ID: 16822534/0x0100B106) looks at LocalPlayer
 82: 0x0599 [0x1C] WAIT(45* ticks)
 83: 0x059C [0x55] WAIT_LOAD_SCHEDULER: Wait for scheduler "m105" with entities [LocalPlayer, LocalPlayer], work=156*
 84: 0x05AB [0x45] LOAD_SCHEDULED_TASK: Load scheduler "m106" with entities [LocalPlayer, LocalPlayer], work=[156*, 0*]
 85: 0x05BC [0x5B] LOAD_EXT_SCHEDULER: Load scheduler "bik0" with entities [Pawnpix (ID: 16822533/0x0100B105), Pawnpix (ID: 16822533/0x0100B105)], work=216*
 86: 0x05CB [0x5B] LOAD_EXT_SCHEDULER: Load scheduler "bik0" with entities [Stufstix (ID: 16822534/0x0100B106), Stufstix (ID: 16822534/0x0100B106)], work=216*
 87: 0x05DA [0x1C] WAIT(30* ticks)
 88: 0x05DD [0x2B] Pawnpix (ID: 16822533/0x0100B105) [7781*]:
    → "..."
 89: 0x05E4 [0x23] WAIT_FOR_DIALOG_INTERACTION
 90: 0x05E5 [0x2B] Stufstix (ID: 16822534/0x0100B106) [7780*]:
    → "..."
 91: 0x05EC [0x23] WAIT_FOR_DIALOG_INTERACTION
 92: 0x05ED [0x52] END_LOAD_SCHEDULER: End scheduler "m106" with entities [LocalPlayer, LocalPlayer], work=156*
 93: 0x05FC [0x45] LOAD_SCHEDULED_TASK: Load scheduler "m107" with entities [LocalPlayer, LocalPlayer], work=[156*, 0*]
 94: 0x060D [0x5B] LOAD_EXT_SCHEDULER: Load scheduler "bik1" with entities [Pawnpix (ID: 16822533/0x0100B105), Pawnpix (ID: 16822533/0x0100B105)], work=216*
 95: 0x061C [0x5B] LOAD_EXT_SCHEDULER: Load scheduler "bik1" with entities [Stufstix (ID: 16822534/0x0100B106), Stufstix (ID: 16822534/0x0100B106)], work=216*
 96: 0x062B [0x1C] WAIT(60* ticks)
 97: 0x062E [0x5B] LOAD_EXT_SCHEDULER: Load scheduler "tlk0" with entities [Pawnpix (ID: 16822533/0x0100B105), Pawnpix (ID: 16822533/0x0100B105)], work=215*
 98: 0x063D [0x5B] LOAD_EXT_SCHEDULER: Load scheduler "tlk0" with entities [Stufstix (ID: 16822534/0x0100B106), Stufstix (ID: 16822534/0x0100B106)], work=215*
 99: 0x064C [0x2B] Pawnpix (ID: 16822533/0x0100B105) [7783*]:
    → "Let's blame it on this [guy/gal]."
100: 0x0653 [0x23] WAIT_FOR_DIALOG_INTERACTION
101: 0x0654 [0x2B] Stufstix (ID: 16822534/0x0100B106) [7782*]:
    → "Yeah, let's blame it on the adventurer."
102: 0x065B [0x23] WAIT_FOR_DIALOG_INTERACTION
103: 0x065C [0x52] END_LOAD_SCHEDULER: End scheduler "m107" with entities [LocalPlayer, LocalPlayer], work=156*
104: 0x066B [0x45] LOAD_SCHEDULED_TASK: Load scheduler "m108" with entities [LocalPlayer, LocalPlayer], work=[156*, 0*]
105: 0x067C [0x4A] Pawnpix (ID: 16822533/0x0100B105) looks at Stufstix (ID: 16822534/0x0100B106)
106: 0x0685 [0x4A] Stufstix (ID: 16822534/0x0100B106) looks at Pawnpix (ID: 16822533/0x0100B105)
107: 0x068E [0x1C] WAIT(45* ticks)
108: 0x0691 [0x5B] LOAD_EXT_SCHEDULER: Load scheduler "tlk0" with entities [Pawnpix (ID: 16822533/0x0100B105), Pawnpix (ID: 16822533/0x0100B105)], work=215*
109: 0x06A0 [0x5B] LOAD_EXT_SCHEDULER: Load scheduler "tlk0" with entities [Stufstix (ID: 16822534/0x0100B106), Stufstix (ID: 16822534/0x0100B106)], work=215*
110: 0x06AF [0x2B] Pawnpix (ID: 16822533/0x0100B105) [7785*]:
    → "Let's go back to Jeuno."
111: 0x06B6 [0x23] WAIT_FOR_DIALOG_INTERACTION
112: 0x06B7 [0x2B] Stufstix (ID: 16822534/0x0100B106) [7784*]:
    → "This'll get us out of trouble."
113: 0x06BE [0x23] WAIT_FOR_DIALOG_INTERACTION
114: 0x06BF [0x4A] Pawnpix (ID: 16822533/0x0100B105) looks at LocalPlayer
115: 0x06C8 [0x4A] Stufstix (ID: 16822534/0x0100B106) looks at LocalPlayer
116: 0x06D1 [0x1C] WAIT(30* ticks)
117: 0x06D4 [0x52] END_LOAD_SCHEDULER: End scheduler "m108" with entities [LocalPlayer, LocalPlayer], work=156*
118: 0x06E3 [0x45] LOAD_SCHEDULED_TASK: Load scheduler "m109" with entities [LocalPlayer, LocalPlayer], work=[156*, 0*]
119: 0x06F4 [0x27] REQ_SET(priority=0x10, entity_id=Pawnpix (ID: 16822533/0x0100B105), tag_num=0x09)
120: 0x06FB [0x27] REQ_SET(priority=0x10, entity_id=Stufstix (ID: 16822534/0x0100B106), tag_num=0x09)
121: 0x0702 [0x1C] WAIT(240* ticks)
122: 0x0705 [0x4B] UPDATE_ENTITY_YAW(entity=LocalPlayer, yaw=16.9°*)
123: 0x070C [0x1C] WAIT(30* ticks)
124: 0x070F [0x1A] CALL_SUBROUTINE(address=0x243C)
125: 0x0712 [0x1C] WAIT(30* ticks)
126: 0x0715 [0x52] END_LOAD_SCHEDULER: End scheduler "m109" with entities [LocalPlayer, LocalPlayer], work=156*
127: 0x0724 [0x5C] MUSIC_CONTROL: Set Idle (Day) music to song 221*
128: 0x0728 [0x5C] MUSIC_CONTROL: Set Idle (Night) music to song 221*
129: 0x072C [0x5C] MUSIC_CONTROL: Set Combat (Solo) music to song 115*
130: 0x0730 [0x5C] MUSIC_CONTROL: Set Combat (Party) music to song 218*
131: 0x0734 [0x9A] WAIT_MUSIC_SERVER()
132: 0x0735 [0x46] CAMERA_CONTROL: Restore default settings
133: 0x0737 [0x45] LOAD_SCHEDULED_TASK: Load scheduler "fdi2" with entities [LocalPlayer, LocalPlayer], work=[200*, 0*]
134: 0x0748 [0x21] END_EVENT
135: 0x0749 [0x00] END_REQSTACK()
```

### Event 41

#### Metadata

| Field        | Value     |
|--------------|-----------|
| Entrypoint   | 0x074A    |
| Data Size    | 413 bytes |
| Instructions | 60        |

```
      00 01 02 03 04 05 06 07  08 09 0A 0B 0C 0D 0E 0F
      -- -- -- -- -- -- -- --  -- -- -- -- -- -- -- --
0740:                                42 1A 3C 24 46 01            B.<$F.
0750: 38 0A 80 79 00 F0 FF FF  7F F0 FF FF 7F 4E 00 F0  8..y.........N..
0760: FF FF 7F 27 10 05 B1 00  01 05 27 10 06 B1 00 01  ...'......'.....
0770: 05 92 01 05 B1 00 01 92  01 06 B1 00 01 27 10 05  .............'..
0780: B1 00 01 0A 27 10 06 B1  00 01 0A 29 10 F0 FF FF  ....'......)....
0790: 7F 0B 80 05 B1 00 01 80  06 B1 00 01 80 F0 FF FF  ................
07A0: 7F 1C 0B 80 5C 00 22 80  5C 01 22 80 9A 45 23 80  ....\.".\."..E#.
07B0: F0 FF FF 7F F0 FF FF 7F  6D 32 30 31 01 80 1A 1B  ........m201....
07C0: 24 79 00 F0 FF FF 7F 05  B1 00 01 1C 10 80 4A 05  $y............J.
07D0: B1 00 01 06 B1 00 01 1C  12 80 5B 26 80 05 B1 00  ..........[&....
07E0: 01 05 B1 00 01 74 6C 6B  30 2B 05 B1 00 01 34 80  .....tlk0+....4.
07F0: 23 6B 69 64 6C 30 05 B1  00 01 4A 06 B1 00 01 F0  #kidl0....J.....
0800: FF FF 7F 1C 12 80 52 23  80 F0 FF FF 7F F0 FF FF  ......R#........
0810: 7F 6D 32 30 31 45 23 80  F0 FF FF 7F F0 FF FF 7F  .m201E#.........
0820: 6D 32 30 32 01 80 79 00  F0 FF FF 7F 06 B1 00 01  m202..y.........
0830: 5B 2B 80 06 B1 00 01 06  B1 00 01 66 75 6D 30 2B  [+.........fum0+
0840: 06 B1 00 01 35 80 23 4A  05 B1 00 01 F0 FF FF 7F  ....5.#J........
0850: 1C 10 80 79 00 F0 FF FF  7F 05 B1 00 01 5B 26 80  ...y.........[&.
0860: 05 B1 00 01 05 B1 00 01  74 6C 6B 31 52 23 80 F0  ........tlk1R#..
0870: FF FF 7F F0 FF FF 7F 6D  32 30 32 45 23 80 F0 FF  .......m202E#...
0880: FF 7F F0 FF FF 7F 6D 32  30 33 01 80 2B 05 B1 00  ......m203..+...
0890: 01 36 80 23 6B 69 64 6C  30 05 B1 00 01 5B 2B 80  .6.#kidl0....[+.
08A0: 06 B1 00 01 06 B1 00 01  66 75 6D 31 1A 3C 24 1C  ........fum1.<$.
08B0: 10 80 52 23 80 F0 FF FF  7F F0 FF FF 7F 6D 32 30  ..R#.........m20
08C0: 33 5C 00 0D 80 5C 01 0D  80 5C 02 0E 80 5C 03 0F  3\...\...\...\..
08D0: 80 9A 46 00 45 20 80 F0  FF FF 7F F0 FF FF 7F 66  ..F.E .........f
08E0: 64 69 32 01 80 21 00                              di2..!.         
```

#### Opcodes

```
  0: 0x074A [0x42] SET_CLI_EVENT_CANCEL_DATA()
  1: 0x074B [0x1A] CALL_SUBROUTINE(address=0x243C)
  2: 0x074E [0x46] CAMERA_CONTROL: Disable user control
  3: 0x0750 [0x38] SET_CLIENT_EVENT_MODE(mode=19*)
  4: 0x0753 [0x79] LocalPlayer looks at LocalPlayer (Basic look)
  5: 0x075D [0x4E] SET_ENTITY_HIDE_FLAG: Show LocalPlayer
  6: 0x0763 [0x27] REQ_SET(priority=0x10, entity_id=Pawnpix (ID: 16822533/0x0100B105), tag_num=0x05)
  7: 0x076A [0x27] REQ_SET(priority=0x10, entity_id=Stufstix (ID: 16822534/0x0100B106), tag_num=0x05)
  8: 0x0771 [0x92] Pawnpix (ID: 16822533/0x0100B105)->Render.Flags3 ^= 0x01
  9: 0x0777 [0x92] Stufstix (ID: 16822534/0x0100B106)->Render.Flags3 ^= 0x01
 10: 0x077D [0x27] REQ_SET(priority=0x10, entity_id=Pawnpix (ID: 16822533/0x0100B105), tag_num=0x0A)
 11: 0x0784 [0x27] REQ_SET(priority=0x10, entity_id=Stufstix (ID: 16822534/0x0100B106), tag_num=0x0A)
 12: 0x078B [0x29] REQ_SET_WAIT(priority=0x10, entity_id=LocalPlayer, tag_num=0x0B)
 13: 0x0792 [0x80] LOAD_WAIT(entity=Pawnpix (ID: 16822533/0x0100B105))
 14: 0x0797 [0x80] LOAD_WAIT(entity=Stufstix (ID: 16822534/0x0100B106))
 15: 0x079C [0x80] LOAD_WAIT(entity=LocalPlayer)
 16: 0x07A1 [0x1C] WAIT(15* ticks)
 17: 0x07A4 [0x5C] MUSIC_CONTROL: Set Idle (Day) music to song 163*
 18: 0x07A8 [0x5C] MUSIC_CONTROL: Set Idle (Night) music to song 163*
 19: 0x07AC [0x9A] WAIT_MUSIC_SERVER()
 20: 0x07AD [0x45] LOAD_SCHEDULED_TASK: Load scheduler "m201" with entities [LocalPlayer, LocalPlayer], work=[156*, 0*]
 21: 0x07BE [0x1A] CALL_SUBROUTINE(address=0x241B)
 22: 0x07C1 [0x79] LocalPlayer looks at Pawnpix (ID: 16822533/0x0100B105) (Basic look)
 23: 0x07CB [0x1C] WAIT(30* ticks)
 24: 0x07CE [0x4A] Pawnpix (ID: 16822533/0x0100B105) looks at Stufstix (ID: 16822534/0x0100B106)
 25: 0x07D7 [0x1C] WAIT(45* ticks)
 26: 0x07DA [0x5B] LOAD_EXT_SCHEDULER: Load scheduler "tlk0" with entities [Pawnpix (ID: 16822533/0x0100B105), Pawnpix (ID: 16822533/0x0100B105)], work=215*
 27: 0x07E9 [0x2B] Pawnpix (ID: 16822533/0x0100B105) [7786*]:
    → "Our Moblin guide is waitin' in there."
 28: 0x07F0 [0x23] WAIT_FOR_DIALOG_INTERACTION
 29: 0x07F1 [0x6B] STOP_AND_IDLE: Pawnpix (ID: 16822533/0x0100B105) stops current action and resets to idle (animation="idl0")
 30: 0x07FA [0x4A] Stufstix (ID: 16822534/0x0100B106) looks at LocalPlayer
 31: 0x0803 [0x1C] WAIT(45* ticks)
 32: 0x0806 [0x52] END_LOAD_SCHEDULER: End scheduler "m201" with entities [LocalPlayer, LocalPlayer], work=156*
 33: 0x0815 [0x45] LOAD_SCHEDULED_TASK: Load scheduler "m202" with entities [LocalPlayer, LocalPlayer], work=[156*, 0*]
 34: 0x0826 [0x79] LocalPlayer looks at Stufstix (ID: 16822534/0x0100B106) (Basic look)
 35: 0x0830 [0x5B] LOAD_EXT_SCHEDULER: Load scheduler "fum0" with entities [Stufstix (ID: 16822534/0x0100B106), Stufstix (ID: 16822534/0x0100B106)], work=216*
 36: 0x083F [0x2B] Stufstix (ID: 16822534/0x0100B106) [7787*]:
    → "He's gonna ask about you, for sure."
 37: 0x0846 [0x23] WAIT_FOR_DIALOG_INTERACTION
 38: 0x0847 [0x4A] Pawnpix (ID: 16822533/0x0100B105) looks at LocalPlayer
 39: 0x0850 [0x1C] WAIT(30* ticks)
 40: 0x0853 [0x79] LocalPlayer looks at Pawnpix (ID: 16822533/0x0100B105) (Basic look)
 41: 0x085D [0x5B] LOAD_EXT_SCHEDULER: Load scheduler "tlk1" with entities [Pawnpix (ID: 16822533/0x0100B105), Pawnpix (ID: 16822533/0x0100B105)], work=215*
 42: 0x086C [0x52] END_LOAD_SCHEDULER: End scheduler "m202" with entities [LocalPlayer, LocalPlayer], work=156*
 43: 0x087B [0x45] LOAD_SCHEDULED_TASK: Load scheduler "m203" with entities [LocalPlayer, LocalPlayer], work=[156*, 0*]
 44: 0x088C [0x2B] Pawnpix (ID: 16822533/0x0100B105) [7788*]:
    → "If the plan fails, you're Orc meat. Be ready."
 45: 0x0893 [0x23] WAIT_FOR_DIALOG_INTERACTION
 46: 0x0894 [0x6B] STOP_AND_IDLE: Pawnpix (ID: 16822533/0x0100B105) stops current action and resets to idle (animation="idl0")
 47: 0x089D [0x5B] LOAD_EXT_SCHEDULER: Load scheduler "fum1" with entities [Stufstix (ID: 16822534/0x0100B106), Stufstix (ID: 16822534/0x0100B106)], work=216*
 48: 0x08AC [0x1A] CALL_SUBROUTINE(address=0x243C)
 49: 0x08AF [0x1C] WAIT(30* ticks)
 50: 0x08B2 [0x52] END_LOAD_SCHEDULER: End scheduler "m203" with entities [LocalPlayer, LocalPlayer], work=156*
 51: 0x08C1 [0x5C] MUSIC_CONTROL: Set Idle (Day) music to song 221*
 52: 0x08C5 [0x5C] MUSIC_CONTROL: Set Idle (Night) music to song 221*
 53: 0x08C9 [0x5C] MUSIC_CONTROL: Set Combat (Solo) music to song 115*
 54: 0x08CD [0x5C] MUSIC_CONTROL: Set Combat (Party) music to song 218*
 55: 0x08D1 [0x9A] WAIT_MUSIC_SERVER()
 56: 0x08D2 [0x46] CAMERA_CONTROL: Restore default settings
 57: 0x08D4 [0x45] LOAD_SCHEDULED_TASK: Load scheduler "fdi2" with entities [LocalPlayer, LocalPlayer], work=[200*, 0*]
 58: 0x08E5 [0x21] END_EVENT
 59: 0x08E6 [0x00] END_REQSTACK()
```

### Event 42

#### Metadata

| Field        | Value      |
|--------------|------------|
| Entrypoint   | 0x08E7     |
| Data Size    | 1626 bytes |
| Instructions | 186        |

```
      00 01 02 03 04 05 06 07  08 09 0A 0B 0C 0D 0E 0F
      -- -- -- -- -- -- -- --  -- -- -- -- -- -- -- --
08E0:                      42  1A 3C 24 46 01 03 03 00         B.<$F....
08F0: 06 10 38 0A 80 79 00 F0  FF FF 7F F0 FF FF 7F 27  ..8..y.........'
0900: 10 05 B1 00 01 05 27 10  06 B1 00 01 05 92 01 05  ......'.........
0910: B1 00 01 92 01 06 B1 00  01 92 01 D9 B0 00 01 27  ...............'
0920: 10 05 B1 00 01 0B 27 10  06 B1 00 01 0B 29 10 F0  ......'......)..
0930: FF FF 7F 0C 80 05 B1 00  01 80 06 B1 00 01 80 F0  ................
0940: FF FF 7F 1C 0B 80 4A D9  B0 00 01 F0 FF FF 7F 45  ......J........E
0950: 23 80 F0 FF FF 7F F0 FF  FF 7F 6D 33 30 31 01 80  #.........m301..
0960: 1A 1B 24 55 23 80 F0 FF  FF 7F F0 FF FF 7F 6D 33  ..$U#.........m3
0970: 30 31 45 23 80 F0 FF FF  7F F0 FF FF 7F 6D 33 30  01E#.........m30
0980: 32 01 80 5B 2B 80 D9 B0  00 01 D9 B0 00 01 6D 6D  2..[+.........mm
0990: 6D 30 2B D9 B0 00 01 37  80 23 55 23 80 F0 FF FF  m0+....7.#U#....
09A0: 7F F0 FF FF 7F 6D 33 30  32 45 23 80 F0 FF FF 7F  .....m302E#.....
09B0: F0 FF FF 7F 6D 33 30 33  01 80 79 00 F0 FF FF 7F  ....m303..y.....
09C0: 05 B1 00 01 5B 26 80 05  B1 00 01 05 B1 00 01 74  ....[&.........t
09D0: 6C 6B 31 2B 05 B1 00 01  38 80 23 6B 69 64 6C 30  lk1+....8.#kidl0
09E0: 05 B1 00 01 79 00 F0 FF  FF 7F 06 B1 00 01 5B 26  ....y.........[&
09F0: 80 06 B1 00 01 06 B1 00  01 74 6C 6B 30 2B 06 B1  .........tlk0+..
0A00: 00 01 39 80 23 6B 69 64  6C 30 06 B1 00 01 52 23  ..9.#kidl0....R#
0A10: 80 F0 FF FF 7F F0 FF FF  7F 6D 33 30 33 45 23 80  .........m303E#.
0A20: F0 FF FF 7F F0 FF FF 7F  6D 33 30 34 01 80 5B 2B  ........m304..[+
0A30: 80 D9 B0 00 01 D9 B0 00  01 6D 6D 6D 31 53 D9 B0  .........mmm1S..
0A40: 00 01 D9 B0 00 01 6D 6D  6D 31 1C 0B 80 79 00 F0  ......mmm1...y..
0A50: FF FF 7F D9 B0 00 01 5B  26 80 D9 B0 00 01 D9 B0  .......[&.......
0A60: 00 01 74 6C 6B 30 2B D9  B0 00 01 3A 80 23 6B 69  ..tlk0+....:.#ki
0A70: 64 6C 30 D9 B0 00 01 24  3B 80 01 80 01 80 25 02  dl0....$;.....%.
0A80: 00 10 01 80 00 96 0A 6E  F0 FF FF 7F 3C 80 99 F0  .......n....<...
0A90: FF FF 7F 01 AD 0A 02 00  10 02 80 00 AD 0A 6E F0  ..............n.
0AA0: FF FF 7F 3D 80 99 F0 FF  FF 7F 01 AD 0A 52 23 80  ...=.........R#.
0AB0: F0 FF FF 7F F0 FF FF 7F  6D 33 30 34 45 23 80 F0  ........m304E#..
0AC0: FF FF 7F F0 FF FF 7F 6D  33 30 35 01 80 99 F0 FF  .......m305.....
0AD0: FF 7F 1C 08 80 52 23 80  F0 FF FF 7F F0 FF FF 7F  .....R#.........
0AE0: 6D 33 30 35 45 23 80 F0  FF FF 7F F0 FF FF 7F 6D  m305E#.........m
0AF0: 33 30 36 01 80 5B 26 80  D9 B0 00 01 D9 B0 00 01  306..[&.........
0B00: 74 6C 6B 31 2B D9 B0 00  01 3E 80 23 52 23 80 F0  tlk1+....>.#R#..
0B10: FF FF 7F F0 FF FF 7F 6D  33 30 36 45 23 80 F0 FF  .......m306E#...
0B20: FF 7F F0 FF FF 7F 6D 33  30 37 01 80 5B 2B 80 D9  ......m307..[+..
0B30: B0 00 01 D9 B0 00 01 66  75 6D 30 2B D9 B0 00 01  .......fum0+....
0B40: 3F 80 23 52 23 80 F0 FF  FF 7F F0 FF FF 7F 6D 33  ?.#R#.........m3
0B50: 30 37 45 23 80 F0 FF FF  7F F0 FF FF 7F 6D 33 30  07E#.........m30
0B60: 38 01 80 4A 05 B1 00 01  F0 FF FF 7F 1C 10 80 79  8..J...........y
0B70: 00 F0 FF FF 7F 05 B1 00  01 5B 26 80 05 B1 00 01  .........[&.....
0B80: 05 B1 00 01 74 6C 6B 30  2B 05 B1 00 01 40 80 23  ....tlk0+....@.#
0B90: 52 23 80 F0 FF FF 7F F0  FF FF 7F 6D 33 30 38 45  R#.........m308E
0BA0: 23 80 F0 FF FF 7F F0 FF  FF 7F 6D 33 30 39 01 80  #.........m309..
0BB0: 6B 69 64 6C 30 05 B1 00  01 5B 26 80 06 B1 00 01  kidl0....[&.....
0BC0: 06 B1 00 01 74 6C 6B 30  2B 06 B1 00 01 41 80 23  ....tlk0+....A.#
0BD0: 6B 69 64 6C 30 06 B1 00  01 79 00 F0 FF FF 7F D9  kidl0....y......
0BE0: B0 00 01 2B D9 B0 00 01  42 80 23 4A 05 B1 00 01  ...+....B.#J....
0BF0: D9 B0 00 01 1C 10 80 52  23 80 F0 FF FF 7F F0 FF  .......R#.......
0C00: FF 7F 6D 33 30 39 45 23  80 F0 FF FF 7F F0 FF FF  ..m309E#........
0C10: 7F 6D 33 31 30 01 80 5B  2B 80 D9 B0 00 01 D9 B0  .m310..[+.......
0C20: 00 01 66 75 6D 31 53 D9  B0 00 01 D9 B0 00 01 66  ..fum1S........f
0C30: 75 6D 31 5B 26 80 D9 B0  00 01 D9 B0 00 01 74 6C  um1[&.........tl
0C40: 6B 30 2B D9 B0 00 01 43  80 23 6B 69 64 6C 30 D9  k0+....C.#kidl0.
0C50: B0 00 01 52 23 80 F0 FF  FF 7F F0 FF FF 7F 6D 33  ...R#.........m3
0C60: 31 30 45 23 80 F0 FF FF  7F F0 FF FF 7F 6D 33 31  10E#.........m31
0C70: 31 01 80 5B 2B 80 05 B1  00 01 05 B1 00 01 62 69  1..[+.........bi
0C80: 6B 30 2B 05 B1 00 01 44  80 23 5B 26 80 D9 B0 00  k0+....D.#[&....
0C90: 01 D9 B0 00 01 74 6C 6B  30 2B D9 B0 00 01 45 80  .....tlk0+....E.
0CA0: 23 6B 69 64 6C 30 D9 B0  00 01 5B 26 80 06 B1 00  #kidl0....[&....
0CB0: 01 06 B1 00 01 74 6C 6B  30 2B 06 B1 00 01 46 80  .....tlk0+....F.
0CC0: 23 6B 69 64 6C 30 06 B1  00 01 5B 2B 80 05 B1 00  #kidl0....[+....
0CD0: 01 05 B1 00 01 62 69 6B  31 52 23 80 F0 FF FF 7F  .....bik1R#.....
0CE0: F0 FF FF 7F 6D 33 31 31  45 23 80 F0 FF FF 7F F0  ....m311E#......
0CF0: FF FF 7F 6D 33 31 32 01  80 5B 2B 80 D9 B0 00 01  ...m312..[+.....
0D00: D9 B0 00 01 61 6E 67 30  03 06 10 03 00 2B D9 B0  ....ang0.....+..
0D10: 00 01 47 80 23 2B D9 B0  00 01 48 80 23 5B 2B 80  ..G.#+....H.#[+.
0D20: D9 B0 00 01 D9 B0 00 01  61 6E 67 31 52 23 80 F0  ........ang1R#..
0D30: FF FF 7F F0 FF FF 7F 6D  33 31 32 45 23 80 F0 FF  .......m312E#...
0D40: FF 7F F0 FF FF 7F 6D 33  31 33 01 80 5B 26 80 05  ......m313..[&..
0D50: B1 00 01 05 B1 00 01 74  6C 6B 31 2B 05 B1 00 01  .......tlk1+....
0D60: 49 80 23 6B 69 64 6C 30  05 B1 00 01 5B 26 80 D9  I.#kidl0....[&..
0D70: B0 00 01 D9 B0 00 01 74  6C 6B 31 2B D9 B0 00 01  .......tlk1+....
0D80: 4A 80 23 52 23 80 F0 FF  FF 7F F0 FF FF 7F 6D 33  J.#R#.........m3
0D90: 31 33 45 23 80 F0 FF FF  7F F0 FF FF 7F 6D 33 30  13E#.........m30
0DA0: 35 01 80 2B D9 B0 00 01  4B 80 23 6B 69 64 6C 30  5..+....K.#kidl0
0DB0: D9 B0 00 01 24 4C 80 01  80 01 80 25 02 00 10 01  ....$L.....%....
0DC0: 80 00 59 0E 55 23 80 F0  FF FF 7F F0 FF FF 7F 6D  ..Y.U#.........m
0DD0: 33 30 35 45 23 80 F0 FF  FF 7F F0 FF FF 7F 6D 33  305E#.........m3
0DE0: 31 34 01 80 5B 26 80 D9  B0 00 01 D9 B0 00 01 74  14..[&.........t
0DF0: 6C 6B 30 2B D9 B0 00 01  4D 80 23 2B D9 B0 00 01  lk0+....M.#+....
0E00: 4E 80 23 5B 26 80 D9 B0  00 01 D9 B0 00 01 74 6C  N.#[&.........tl
0E10: 6B 31 2B D9 B0 00 01 4F  80 23 6B 69 64 6C 30 D9  k1+....O.#kidl0.
0E20: B0 00 01 1C 0B 80 52 23  80 F0 FF FF 7F F0 FF FF  ......R#........
0E30: 7F 6D 33 31 34 45 23 80  F0 FF FF 7F F0 FF FF 7F  .m314E#.........
0E40: 6D 33 31 35 01 80 4B D9  B0 00 01 33 80 4A 05 B1  m315..K....3.J..
0E50: 00 01 F0 FF FF 7F 01 ED  0E 02 00 10 02 80 00 ED  ................
0E60: 0E 52 23 80 F0 FF FF 7F  F0 FF FF 7F 6D 33 30 35  .R#.........m305
0E70: 45 23 80 F0 FF FF 7F F0  FF FF 7F 6D 33 31 35 01  E#.........m315.
0E80: 80 4A 05 B1 00 01 F0 FF  FF 7F 4A 06 B1 00 01 F0  .J........J.....
0E90: FF FF 7F 1C 12 80 79 00  F0 FF FF 7F 05 B1 00 01  ......y.........
0EA0: 5B 26 80 05 B1 00 01 05  B1 00 01 74 6C 6B 31 2B  [&.........tlk1+
0EB0: 05 B1 00 01 50 80 23 6B  69 64 6C 30 05 B1 00 01  ....P.#kidl0....
0EC0: 79 00 F0 FF FF 7F 06 B1  00 01 5B 26 80 06 B1 00  y.........[&....
0ED0: 01 06 B1 00 01 74 6C 6B  31 2B 06 B1 00 01 51 80  .....tlk1+....Q.
0EE0: 23 6B 69 64 6C 30 06 B1  00 01 01 ED 0E 79 00 F0  #kidl0.......y..
0EF0: FF FF 7F 05 B1 00 01 5B  26 80 05 B1 00 01 05 B1  .......[&.......
0F00: 00 01 74 6C 6B 31 2B 05  B1 00 01 52 80 23 6B 69  ..tlk1+....R.#ki
0F10: 64 6C 30 05 B1 00 01 1A  3C 24 1C 10 80 52 23 80  dl0.....<$...R#.
0F20: F0 FF FF 7F F0 FF FF 7F  6D 33 31 35 46 00 45 20  ........m315F.E 
0F30: 80 F0 FF FF 7F F0 FF FF  7F 66 64 69 32 01 80 21  .........fdi2..!
0F40: 00                                                .               
```

#### Opcodes

```
  0: 0x08E7 [0x42] SET_CLI_EVENT_CANCEL_DATA()
  1: 0x08E8 [0x1A] CALL_SUBROUTINE(address=0x243C)
  2: 0x08EB [0x46] CAMERA_CONTROL: Disable user control
  3: 0x08ED [0x03] ExtData[1]->WorkLocal[3] = Work_Zone[6]
  4: 0x08F2 [0x38] SET_CLIENT_EVENT_MODE(mode=19*)
  5: 0x08F5 [0x79] LocalPlayer looks at LocalPlayer (Basic look)
  6: 0x08FF [0x27] REQ_SET(priority=0x10, entity_id=Pawnpix (ID: 16822533/0x0100B105), tag_num=0x05)
  7: 0x0906 [0x27] REQ_SET(priority=0x10, entity_id=Stufstix (ID: 16822534/0x0100B106), tag_num=0x05)
  8: 0x090D [0x92] Pawnpix (ID: 16822533/0x0100B105)->Render.Flags3 ^= 0x01
  9: 0x0913 [0x92] Stufstix (ID: 16822534/0x0100B106)->Render.Flags3 ^= 0x01
 10: 0x0919 [0x92] Tarnotik (ID: 16822489/0x0100B0D9)->Render.Flags3 ^= 0x01
 11: 0x091F [0x27] REQ_SET(priority=0x10, entity_id=Pawnpix (ID: 16822533/0x0100B105), tag_num=0x0B)
 12: 0x0926 [0x27] REQ_SET(priority=0x10, entity_id=Stufstix (ID: 16822534/0x0100B106), tag_num=0x0B)
 13: 0x092D [0x29] REQ_SET_WAIT(priority=0x10, entity_id=LocalPlayer, tag_num=0x0C)
 14: 0x0934 [0x80] LOAD_WAIT(entity=Pawnpix (ID: 16822533/0x0100B105))
 15: 0x0939 [0x80] LOAD_WAIT(entity=Stufstix (ID: 16822534/0x0100B106))
 16: 0x093E [0x80] LOAD_WAIT(entity=LocalPlayer)
 17: 0x0943 [0x1C] WAIT(15* ticks)
 18: 0x0946 [0x4A] Tarnotik (ID: 16822489/0x0100B0D9) looks at LocalPlayer
 19: 0x094F [0x45] LOAD_SCHEDULED_TASK: Load scheduler "m301" with entities [LocalPlayer, LocalPlayer], work=[156*, 0*]
 20: 0x0960 [0x1A] CALL_SUBROUTINE(address=0x241B)
 21: 0x0963 [0x55] WAIT_LOAD_SCHEDULER: Wait for scheduler "m301" with entities [LocalPlayer, LocalPlayer], work=156*
 22: 0x0972 [0x45] LOAD_SCHEDULED_TASK: Load scheduler "m302" with entities [LocalPlayer, LocalPlayer], work=[156*, 0*]
 23: 0x0983 [0x5B] LOAD_EXT_SCHEDULER: Load scheduler "mmm0" with entities [Tarnotik (ID: 16822489/0x0100B0D9), Tarnotik (ID: 16822489/0x0100B0D9)], work=216*
 24: 0x0992 [0x2B] Tarnotik (ID: 16822489/0x0100B0D9) [7789*]:
    → "Jahb, naggekwaha ronmhu deig?"
 25: 0x0999 [0x23] WAIT_FOR_DIALOG_INTERACTION
 26: 0x099A [0x55] WAIT_LOAD_SCHEDULER: Wait for scheduler "m302" with entities [LocalPlayer, LocalPlayer], work=156*
 27: 0x09A9 [0x45] LOAD_SCHEDULED_TASK: Load scheduler "m303" with entities [LocalPlayer, LocalPlayer], work=[156*, 0*]
 28: 0x09BA [0x79] LocalPlayer looks at Pawnpix (ID: 16822533/0x0100B105) (Basic look)
 29: 0x09C4 [0x5B] LOAD_EXT_SCHEDULER: Load scheduler "tlk1" with entities [Pawnpix (ID: 16822533/0x0100B105), Pawnpix (ID: 16822533/0x0100B105)], work=215*
 30: 0x09D3 [0x2B] Pawnpix (ID: 16822533/0x0100B105) [7790*]:
    → "Seidhi, hee, dahharho ronmhu Goblin."
 31: 0x09DA [0x23] WAIT_FOR_DIALOG_INTERACTION
 32: 0x09DB [0x6B] STOP_AND_IDLE: Pawnpix (ID: 16822533/0x0100B105) stops current action and resets to idle (animation="idl0")
 33: 0x09E4 [0x79] LocalPlayer looks at Stufstix (ID: 16822534/0x0100B106) (Basic look)
 34: 0x09EE [0x5B] LOAD_EXT_SCHEDULER: Load scheduler "tlk0" with entities [Stufstix (ID: 16822534/0x0100B106), Stufstix (ID: 16822534/0x0100B106)], work=215*
 35: 0x09FD [0x2B] Stufstix (ID: 16822534/0x0100B106) [7791*]:
    → "Pughuu dabba. Seghib aarogha, Goblin."
 36: 0x0A04 [0x23] WAIT_FOR_DIALOG_INTERACTION
 37: 0x0A05 [0x6B] STOP_AND_IDLE: Stufstix (ID: 16822534/0x0100B106) stops current action and resets to idle (animation="idl0")
 38: 0x0A0E [0x52] END_LOAD_SCHEDULER: End scheduler "m303" with entities [LocalPlayer, LocalPlayer], work=156*
 39: 0x0A1D [0x45] LOAD_SCHEDULED_TASK: Load scheduler "m304" with entities [LocalPlayer, LocalPlayer], work=[156*, 0*]
 40: 0x0A2E [0x5B] LOAD_EXT_SCHEDULER: Load scheduler "mmm1" with entities [Tarnotik (ID: 16822489/0x0100B0D9), Tarnotik (ID: 16822489/0x0100B0D9)], work=216*
 41: 0x0A3D [0x53] WAIT_SCHEDULER_TASK: Wait for scheduler "mmm1" with entities [Tarnotik (ID: 16822489/0x0100B0D9), Tarnotik (ID: 16822489/0x0100B0D9)]
 42: 0x0A4A [0x1C] WAIT(15* ticks)
 43: 0x0A4D [0x79] LocalPlayer looks at Tarnotik (ID: 16822489/0x0100B0D9) (Basic look)
 44: 0x0A57 [0x5B] LOAD_EXT_SCHEDULER: Load scheduler "tlk0" with entities [Tarnotik (ID: 16822489/0x0100B0D9), Tarnotik (ID: 16822489/0x0100B0D9)], work=215*
 45: 0x0A66 [0x2B] Tarnotik (ID: 16822489/0x0100B0D9) [7792*]:
    → "Sei, chabuirho, hee Goblin?"
 46: 0x0A6D [0x23] WAIT_FOR_DIALOG_INTERACTION
 47: 0x0A6E [0x6B] STOP_AND_IDLE: Tarnotik (ID: 16822489/0x0100B0D9) stops current action and resets to idle (animation="idl0")
 48: 0x0A77 [0x24] CREATE_DIALOG(message_id=7811*, default_option=0*, option_flags=0*)
    → "Hee, Goblin? [Sure./Not so much.]"
 49: 0x0A7E [0x25] WAIT_DIALOG_SELECT()
 50: 0x0A7F [0x02] IF !(Work_Zone[0] == 0*) GOTO 0x0A96
 51: 0x0A87 [0x6E] LocalPlayer uses emote 7*
 52: 0x0A8E [0x99] Wait for LocalPlayer animation to complete
 53: 0x0A93 [0x01] GOTO 0x0AAD
 54: 0x0A96 [0x02] IF !(Work_Zone[0] == 1*) GOTO 0x0AAD
 55: 0x0A9E [0x6E] LocalPlayer uses emote 6*
 56: 0x0AA5 [0x99] Wait for LocalPlayer animation to complete
 57: 0x0AAA [0x01] GOTO 0x0AAD

SUBROUTINE_0AAD:
 58: 0x0AAD [0x52] END_LOAD_SCHEDULER: End scheduler "m304" with entities [LocalPlayer, LocalPlayer], work=156*
 59: 0x0ABC [0x45] LOAD_SCHEDULED_TASK: Load scheduler "m305" with entities [LocalPlayer, LocalPlayer], work=[156*, 0*]
 60: 0x0ACD [0x99] Wait for LocalPlayer animation to complete
 61: 0x0AD2 [0x1C] WAIT(90* ticks)
 62: 0x0AD5 [0x52] END_LOAD_SCHEDULER: End scheduler "m305" with entities [LocalPlayer, LocalPlayer], work=156*
 63: 0x0AE4 [0x45] LOAD_SCHEDULED_TASK: Load scheduler "m306" with entities [LocalPlayer, LocalPlayer], work=[156*, 0*]
 64: 0x0AF5 [0x5B] LOAD_EXT_SCHEDULER: Load scheduler "tlk1" with entities [Tarnotik (ID: 16822489/0x0100B0D9), Tarnotik (ID: 16822489/0x0100B0D9)], work=215*
 65: 0x0B04 [0x2B] Tarnotik (ID: 16822489/0x0100B0D9) [7793*]:
    → "Dahha! Dahhaan!"
 66: 0x0B0B [0x23] WAIT_FOR_DIALOG_INTERACTION
 67: 0x0B0C [0x52] END_LOAD_SCHEDULER: End scheduler "m306" with entities [LocalPlayer, LocalPlayer], work=156*
 68: 0x0B1B [0x45] LOAD_SCHEDULED_TASK: Load scheduler "m307" with entities [LocalPlayer, LocalPlayer], work=[156*, 0*]
 69: 0x0B2C [0x5B] LOAD_EXT_SCHEDULER: Load scheduler "fum0" with entities [Tarnotik (ID: 16822489/0x0100B0D9), Tarnotik (ID: 16822489/0x0100B0D9)], work=216*
 70: 0x0B3B [0x2B] Tarnotik (ID: 16822489/0x0100B0D9) [7794*]:
    → "Auha, dhin. Gaevhoaa, ouwajhu."
 71: 0x0B42 [0x23] WAIT_FOR_DIALOG_INTERACTION
 72: 0x0B43 [0x52] END_LOAD_SCHEDULER: End scheduler "m307" with entities [LocalPlayer, LocalPlayer], work=156*
 73: 0x0B52 [0x45] LOAD_SCHEDULED_TASK: Load scheduler "m308" with entities [LocalPlayer, LocalPlayer], work=[156*, 0*]
 74: 0x0B63 [0x4A] Pawnpix (ID: 16822533/0x0100B105) looks at LocalPlayer
 75: 0x0B6C [0x1C] WAIT(30* ticks)
 76: 0x0B6F [0x79] LocalPlayer looks at Pawnpix (ID: 16822533/0x0100B105) (Basic look)
 77: 0x0B79 [0x5B] LOAD_EXT_SCHEDULER: Load scheduler "tlk0" with entities [Pawnpix (ID: 16822533/0x0100B105), Pawnpix (ID: 16822533/0x0100B105)], work=215*
 78: 0x0B88 [0x2B] Pawnpix (ID: 16822533/0x0100B105) [7795*]:
    → "He's gettin' suspicious. Wants to know why ya don't speak Goblin."
 79: 0x0B8F [0x23] WAIT_FOR_DIALOG_INTERACTION
 80: 0x0B90 [0x52] END_LOAD_SCHEDULER: End scheduler "m308" with entities [LocalPlayer, LocalPlayer], work=156*
 81: 0x0B9F [0x45] LOAD_SCHEDULED_TASK: Load scheduler "m309" with entities [LocalPlayer, LocalPlayer], work=[156*, 0*]
 82: 0x0BB0 [0x6B] STOP_AND_IDLE: Pawnpix (ID: 16822533/0x0100B105) stops current action and resets to idle (animation="idl0")
 83: 0x0BB9 [0x5B] LOAD_EXT_SCHEDULER: Load scheduler "tlk0" with entities [Stufstix (ID: 16822534/0x0100B106), Stufstix (ID: 16822534/0x0100B106)], work=215*
 84: 0x0BC8 [0x2B] Stufstix (ID: 16822534/0x0100B106) [7796*]:
    → "This magic makes a Goblin all person. Makes 'em stupid."
 85: 0x0BCF [0x23] WAIT_FOR_DIALOG_INTERACTION
 86: 0x0BD0 [0x6B] STOP_AND_IDLE: Stufstix (ID: 16822534/0x0100B106) stops current action and resets to idle (animation="idl0")
 87: 0x0BD9 [0x79] LocalPlayer looks at Tarnotik (ID: 16822489/0x0100B0D9) (Basic look)
 88: 0x0BE3 [0x2B] Tarnotik (ID: 16822489/0x0100B0D9) [7797*]:
    → "..."
 89: 0x0BEA [0x23] WAIT_FOR_DIALOG_INTERACTION
 90: 0x0BEB [0x4A] Pawnpix (ID: 16822533/0x0100B105) looks at Tarnotik (ID: 16822489/0x0100B0D9)
 91: 0x0BF4 [0x1C] WAIT(30* ticks)
 92: 0x0BF7 [0x52] END_LOAD_SCHEDULER: End scheduler "m309" with entities [LocalPlayer, LocalPlayer], work=156*
 93: 0x0C06 [0x45] LOAD_SCHEDULED_TASK: Load scheduler "m310" with entities [LocalPlayer, LocalPlayer], work=[156*, 0*]
 94: 0x0C17 [0x5B] LOAD_EXT_SCHEDULER: Load scheduler "fum1" with entities [Tarnotik (ID: 16822489/0x0100B0D9), Tarnotik (ID: 16822489/0x0100B0D9)], work=216*
 95: 0x0C26 [0x53] WAIT_SCHEDULER_TASK: Wait for scheduler "fum1" with entities [Tarnotik (ID: 16822489/0x0100B0D9), Tarnotik (ID: 16822489/0x0100B0D9)]
 96: 0x0C33 [0x5B] LOAD_EXT_SCHEDULER: Load scheduler "tlk0" with entities [Tarnotik (ID: 16822489/0x0100B0D9), Tarnotik (ID: 16822489/0x0100B0D9)], work=215*
 97: 0x0C42 [0x2B] Tarnotik (ID: 16822489/0x0100B0D9) [7798*]:
    → "Then Tarnotik speak different for crazy Goblin. Take crazy Goblins where they want to go."
 98: 0x0C49 [0x23] WAIT_FOR_DIALOG_INTERACTION
 99: 0x0C4A [0x6B] STOP_AND_IDLE: Tarnotik (ID: 16822489/0x0100B0D9) stops current action and resets to idle (animation="idl0")
100: 0x0C53 [0x52] END_LOAD_SCHEDULER: End scheduler "m310" with entities [LocalPlayer, LocalPlayer], work=156*
101: 0x0C62 [0x45] LOAD_SCHEDULED_TASK: Load scheduler "m311" with entities [LocalPlayer, LocalPlayer], work=[156*, 0*]
102: 0x0C73 [0x5B] LOAD_EXT_SCHEDULER: Load scheduler "bik0" with entities [Pawnpix (ID: 16822533/0x0100B105), Pawnpix (ID: 16822533/0x0100B105)], work=216*
103: 0x0C82 [0x2B] Pawnpix (ID: 16822533/0x0100B105) [7799*]:
    → "You talk people talk?"
104: 0x0C89 [0x23] WAIT_FOR_DIALOG_INTERACTION
105: 0x0C8A [0x5B] LOAD_EXT_SCHEDULER: Load scheduler "tlk0" with entities [Tarnotik (ID: 16822489/0x0100B0D9), Tarnotik (ID: 16822489/0x0100B0D9)], work=215*
106: 0x0C99 [0x2B] Tarnotik (ID: 16822489/0x0100B0D9) [7800*]:
    → "Tarnotik learn crazy people speak. Learn the language of Promathia."
107: 0x0CA0 [0x23] WAIT_FOR_DIALOG_INTERACTION
108: 0x0CA1 [0x6B] STOP_AND_IDLE: Tarnotik (ID: 16822489/0x0100B0D9) stops current action and resets to idle (animation="idl0")
109: 0x0CAA [0x5B] LOAD_EXT_SCHEDULER: Load scheduler "tlk0" with entities [Stufstix (ID: 16822534/0x0100B106), Stufstix (ID: 16822534/0x0100B106)], work=215*
110: 0x0CB9 [0x2B] Stufstix (ID: 16822534/0x0100B106) [7801*]:
    → "Who taught ya?"
111: 0x0CC0 [0x23] WAIT_FOR_DIALOG_INTERACTION
112: 0x0CC1 [0x6B] STOP_AND_IDLE: Stufstix (ID: 16822534/0x0100B106) stops current action and resets to idle (animation="idl0")
113: 0x0CCA [0x5B] LOAD_EXT_SCHEDULER: Load scheduler "bik1" with entities [Pawnpix (ID: 16822533/0x0100B105), Pawnpix (ID: 16822533/0x0100B105)], work=216*
114: 0x0CD9 [0x52] END_LOAD_SCHEDULER: End scheduler "m311" with entities [LocalPlayer, LocalPlayer], work=156*
115: 0x0CE8 [0x45] LOAD_SCHEDULED_TASK: Load scheduler "m312" with entities [LocalPlayer, LocalPlayer], work=[156*, 0*]
116: 0x0CF9 [0x5B] LOAD_EXT_SCHEDULER: Load scheduler "ang0" with entities [Tarnotik (ID: 16822489/0x0100B0D9), Tarnotik (ID: 16822489/0x0100B0D9)], work=216*
117: 0x0D08 [0x03] Work_Zone[6] = ExtData[1]->WorkLocal[3]
118: 0x0D0D [0x2B] Tarnotik (ID: 16822489/0x0100B0D9) [7802*]:
    → "Forget that! First bring crazy $4!"
119: 0x0D14 [0x23] WAIT_FOR_DIALOG_INTERACTION
120: 0x0D15 [0x2B] Tarnotik (ID: 16822489/0x0100B0D9) [7803*]:
    → "There's a crazy celebration now. The reincarnation of Promathia has come."
121: 0x0D1C [0x23] WAIT_FOR_DIALOG_INTERACTION
122: 0x0D1D [0x5B] LOAD_EXT_SCHEDULER: Load scheduler "ang1" with entities [Tarnotik (ID: 16822489/0x0100B0D9), Tarnotik (ID: 16822489/0x0100B0D9)], work=216*
123: 0x0D2C [0x52] END_LOAD_SCHEDULER: End scheduler "m312" with entities [LocalPlayer, LocalPlayer], work=156*
124: 0x0D3B [0x45] LOAD_SCHEDULED_TASK: Load scheduler "m313" with entities [LocalPlayer, LocalPlayer], work=[156*, 0*]
125: 0x0D4C [0x5B] LOAD_EXT_SCHEDULER: Load scheduler "tlk1" with entities [Pawnpix (ID: 16822533/0x0100B105), Pawnpix (ID: 16822533/0x0100B105)], work=215*
126: 0x0D5B [0x2B] Pawnpix (ID: 16822533/0x0100B105) [7804*]:
    → "Promathia was reborn?"
127: 0x0D62 [0x23] WAIT_FOR_DIALOG_INTERACTION
128: 0x0D63 [0x6B] STOP_AND_IDLE: Pawnpix (ID: 16822533/0x0100B105) stops current action and resets to idle (animation="idl0")
129: 0x0D6C [0x5B] LOAD_EXT_SCHEDULER: Load scheduler "tlk1" with entities [Tarnotik (ID: 16822489/0x0100B0D9), Tarnotik (ID: 16822489/0x0100B0D9)], work=215*
130: 0x0D7B [0x2B] Tarnotik (ID: 16822489/0x0100B0D9) [7805*]:
    → "Tarnotik take you to meet Promathia, but this crazy Goblin get killed in there wearing people face."
131: 0x0D82 [0x23] WAIT_FOR_DIALOG_INTERACTION
132: 0x0D83 [0x52] END_LOAD_SCHEDULER: End scheduler "m313" with entities [LocalPlayer, LocalPlayer], work=156*
133: 0x0D92 [0x45] LOAD_SCHEDULED_TASK: Load scheduler "m305" with entities [LocalPlayer, LocalPlayer], work=[156*, 0*]
134: 0x0DA3 [0x2B] Tarnotik (ID: 16822489/0x0100B0D9) [7806*]:
    → "Tarnotik not sure if he should really send you deep into Movalpolos with crazy warp magic."
135: 0x0DAA [0x23] WAIT_FOR_DIALOG_INTERACTION
136: 0x0DAB [0x6B] STOP_AND_IDLE: Tarnotik (ID: 16822489/0x0100B0D9) stops current action and resets to idle (animation="idl0")
137: 0x0DB4 [0x24] CREATE_DIALOG(message_id=7812*, default_option=0*, option_flags=0*)
    → "You really wanna go? [I'm crazy enough!/Maybe not...]"
138: 0x0DBB [0x25] WAIT_DIALOG_SELECT()
139: 0x0DBC [0x02] IF !(Work_Zone[0] == 0*) GOTO 0x0E59
140: 0x0DC4 [0x55] WAIT_LOAD_SCHEDULER: Wait for scheduler "m305" with entities [LocalPlayer, LocalPlayer], work=156*
141: 0x0DD3 [0x45] LOAD_SCHEDULED_TASK: Load scheduler "m314" with entities [LocalPlayer, LocalPlayer], work=[156*, 0*]
142: 0x0DE4 [0x5B] LOAD_EXT_SCHEDULER: Load scheduler "tlk0" with entities [Tarnotik (ID: 16822489/0x0100B0D9), Tarnotik (ID: 16822489/0x0100B0D9)], work=215*
143: 0x0DF3 [0x2B] Tarnotik (ID: 16822489/0x0100B0D9) [7574*]:
    → "But I like crazies. I take you, but first you give me goodie."
144: 0x0DFA [0x23] WAIT_FOR_DIALOG_INTERACTION
145: 0x0DFB [0x2B] Tarnotik (ID: 16822489/0x0100B0D9) [7814*]:
    → "Tarnotik has seen those crazy big eye guys that fly around out there. They cry crazy tears. Pretty, sparkly tears."
146: 0x0E02 [0x23] WAIT_FOR_DIALOG_INTERACTION
147: 0x0E03 [0x5B] LOAD_EXT_SCHEDULER: Load scheduler "tlk1" with entities [Tarnotik (ID: 16822489/0x0100B0D9), Tarnotik (ID: 16822489/0x0100B0D9)], work=215*
148: 0x0E12 [0x2B] Tarnotik (ID: 16822489/0x0100B0D9) [7815*]:
    → "Drippy, pretty, sparkly, crazy tears. You bring one to Tarnotik, and Tarnotik send you deep into Movalpolos, to Shaft 2716."
149: 0x0E19 [0x23] WAIT_FOR_DIALOG_INTERACTION
150: 0x0E1A [0x6B] STOP_AND_IDLE: Tarnotik (ID: 16822489/0x0100B0D9) stops current action and resets to idle (animation="idl0")
151: 0x0E23 [0x1C] WAIT(15* ticks)
152: 0x0E26 [0x52] END_LOAD_SCHEDULER: End scheduler "m314" with entities [LocalPlayer, LocalPlayer], work=156*
153: 0x0E35 [0x45] LOAD_SCHEDULED_TASK: Load scheduler "m315" with entities [LocalPlayer, LocalPlayer], work=[156*, 0*]
154: 0x0E46 [0x4B] UPDATE_ENTITY_YAW(entity=Tarnotik (ID: 16822489/0x0100B0D9), yaw=16.9°*)
155: 0x0E4D [0x4A] Pawnpix (ID: 16822533/0x0100B105) looks at LocalPlayer
156: 0x0E56 [0x01] GOTO 0x0EED
157: 0x0E59 [0x02] IF !(Work_Zone[0] == 1*) GOTO 0x0EED
158: 0x0E61 [0x52] END_LOAD_SCHEDULER: End scheduler "m305" with entities [LocalPlayer, LocalPlayer], work=156*
159: 0x0E70 [0x45] LOAD_SCHEDULED_TASK: Load scheduler "m315" with entities [LocalPlayer, LocalPlayer], work=[156*, 0*]
160: 0x0E81 [0x4A] Pawnpix (ID: 16822533/0x0100B105) looks at LocalPlayer
161: 0x0E8A [0x4A] Stufstix (ID: 16822534/0x0100B106) looks at LocalPlayer
162: 0x0E93 [0x1C] WAIT(45* ticks)
163: 0x0E96 [0x79] LocalPlayer looks at Pawnpix (ID: 16822533/0x0100B105) (Basic look)
164: 0x0EA0 [0x5B] LOAD_EXT_SCHEDULER: Load scheduler "tlk1" with entities [Pawnpix (ID: 16822533/0x0100B105), Pawnpix (ID: 16822533/0x0100B105)], work=215*
165: 0x0EAF [0x2B] Pawnpix (ID: 16822533/0x0100B105) [7808*]:
    → "You scared? Maybe you don't got the guts for this."
166: 0x0EB6 [0x23] WAIT_FOR_DIALOG_INTERACTION
167: 0x0EB7 [0x6B] STOP_AND_IDLE: Pawnpix (ID: 16822533/0x0100B105) stops current action and resets to idle (animation="idl0")
168: 0x0EC0 [0x79] LocalPlayer looks at Stufstix (ID: 16822534/0x0100B106) (Basic look)
169: 0x0ECA [0x5B] LOAD_EXT_SCHEDULER: Load scheduler "tlk1" with entities [Stufstix (ID: 16822534/0x0100B106), Stufstix (ID: 16822534/0x0100B106)], work=215*
170: 0x0ED9 [0x2B] Stufstix (ID: 16822534/0x0100B106) [7809*]:
    → "We're goin'. See you in Mine Shaft 2716."
171: 0x0EE0 [0x23] WAIT_FOR_DIALOG_INTERACTION
172: 0x0EE1 [0x6B] STOP_AND_IDLE: Stufstix (ID: 16822534/0x0100B106) stops current action and resets to idle (animation="idl0")
173: 0x0EEA [0x01] GOTO 0x0EED

SUBROUTINE_0EED:
174: 0x0EED [0x79] LocalPlayer looks at Pawnpix (ID: 16822533/0x0100B105) (Basic look)
175: 0x0EF7 [0x5B] LOAD_EXT_SCHEDULER: Load scheduler "tlk1" with entities [Pawnpix (ID: 16822533/0x0100B105), Pawnpix (ID: 16822533/0x0100B105)], work=215*
176: 0x0F06 [0x2B] Pawnpix (ID: 16822533/0x0100B105) [7810*]:
    → "Oops, we don't got your tear. Give the Moblin a tear from one of those big eye guys. He'll send you to Mine Shaft 2716."
177: 0x0F0D [0x23] WAIT_FOR_DIALOG_INTERACTION
178: 0x0F0E [0x6B] STOP_AND_IDLE: Pawnpix (ID: 16822533/0x0100B105) stops current action and resets to idle (animation="idl0")
179: 0x0F17 [0x1A] CALL_SUBROUTINE(address=0x243C)
180: 0x0F1A [0x1C] WAIT(30* ticks)
181: 0x0F1D [0x52] END_LOAD_SCHEDULER: End scheduler "m315" with entities [LocalPlayer, LocalPlayer], work=156*
182: 0x0F2C [0x46] CAMERA_CONTROL: Restore default settings
183: 0x0F2E [0x45] LOAD_SCHEDULED_TASK: Load scheduler "fdi2" with entities [LocalPlayer, LocalPlayer], work=[200*, 0*]
184: 0x0F3F [0x21] END_EVENT
185: 0x0F40 [0x00] END_REQSTACK()
```

### Event 43

#### Metadata

| Field        | Value    |
|--------------|----------|
| Entrypoint   | 0x0F41   |
| Data Size    | 72 bytes |
| Instructions | 12       |

```
      00 01 02 03 04 05 06 07  08 09 0A 0B 0C 0D 0E 0F
      -- -- -- -- -- -- -- --  -- -- -- -- -- -- -- --
0F40:    4A F0 FF FF 7F D9 B0  00 01 4A D9 B0 00 01 F0   J........J.....
0F50: FF FF 7F 6F 76 D9 B0 00  01 5B 26 80 D9 B0 00 01  ...ov....[&.....
0F60: D9 B0 00 01 74 6C 6B 30  2B D9 B0 00 01 4E 80 23  ....tlk0+....N.#
0F70: 5B 26 80 D9 B0 00 01 D9  B0 00 01 74 6C 6B 31 2B  [&.........tlk1+
0F80: D9 B0 00 01 4F 80 23 21  00                       ....O.#!.       
```

#### Opcodes

```
  0: 0x0F41 [0x4A] LocalPlayer looks at Tarnotik (ID: 16822489/0x0100B0D9)
  1: 0x0F4A [0x4A] Tarnotik (ID: 16822489/0x0100B0D9) looks at LocalPlayer
  2: 0x0F53 [0x6F] WAIT_FRAME_DELAY: Yield until WaitTime reaches zero
  3: 0x0F54 [0x76] CHECK_ENTITY_RENDER_FLAGS: Wait until Tarnotik (ID: 16822489/0x0100B0D9) Render.Flags0 and Render.Flags3 conditions are met
  4: 0x0F59 [0x5B] LOAD_EXT_SCHEDULER: Load scheduler "tlk0" with entities [Tarnotik (ID: 16822489/0x0100B0D9), Tarnotik (ID: 16822489/0x0100B0D9)], work=215*
  5: 0x0F68 [0x2B] Tarnotik (ID: 16822489/0x0100B0D9) [7814*]:
    → "Tarnotik has seen those crazy big eye guys that fly around out there. They cry crazy tears. Pretty, sparkly tears."
  6: 0x0F6F [0x23] WAIT_FOR_DIALOG_INTERACTION
  7: 0x0F70 [0x5B] LOAD_EXT_SCHEDULER: Load scheduler "tlk1" with entities [Tarnotik (ID: 16822489/0x0100B0D9), Tarnotik (ID: 16822489/0x0100B0D9)], work=215*
  8: 0x0F7F [0x2B] Tarnotik (ID: 16822489/0x0100B0D9) [7815*]:
    → "Drippy, pretty, sparkly, crazy tears. You bring one to Tarnotik, and Tarnotik send you deep into Movalpolos, to Shaft 2716."
  9: 0x0F86 [0x23] WAIT_FOR_DIALOG_INTERACTION
 10: 0x0F87 [0x21] END_EVENT
 11: 0x0F88 [0x00] END_REQSTACK()
```

### Event 44

#### Metadata

| Field        | Value    |
|--------------|----------|
| Entrypoint   | 0x0F89   |
| Data Size    | 96 bytes |
| Instructions | 20       |

```
      00 01 02 03 04 05 06 07  08 09 0A 0B 0C 0D 0E 0F
      -- -- -- -- -- -- -- --  -- -- -- -- -- -- -- --
0F80:                             42 4A F0 FF FF 7F D9           BJ.....
0F90: B0 00 01 4A D9 B0 00 01  F0 FF FF 7F 6F 76 D9 B0  ...J........ov..
0FA0: 00 01 5B 26 80 D9 B0 00  01 D9 B0 00 01 74 6C 6B  ..[&.........tlk
0FB0: 31 2B D9 B0 00 01 53 80  23 6B 69 64 6C 30 D9 B0  1+....S.#kidl0..
0FC0: 00 01 1C 0B 80 2B D9 B0  00 01 54 80 23 73 55 80  .....+....T.#sU.
0FD0: D9 B0 00 01 F0 FF FF 7F  1C 56 80 1A 3C 24 1C 10  .........V..<$..
0FE0: 80 03 01 10 02 80 30 21  00                       ......0!.       
```

#### Opcodes

```
  0: 0x0F89 [0x42] SET_CLI_EVENT_CANCEL_DATA()
  1: 0x0F8A [0x4A] LocalPlayer looks at Tarnotik (ID: 16822489/0x0100B0D9)
  2: 0x0F93 [0x4A] Tarnotik (ID: 16822489/0x0100B0D9) looks at LocalPlayer
  3: 0x0F9C [0x6F] WAIT_FRAME_DELAY: Yield until WaitTime reaches zero
  4: 0x0F9D [0x76] CHECK_ENTITY_RENDER_FLAGS: Wait until Tarnotik (ID: 16822489/0x0100B0D9) Render.Flags0 and Render.Flags3 conditions are met
  5: 0x0FA2 [0x5B] LOAD_EXT_SCHEDULER: Load scheduler "tlk1" with entities [Tarnotik (ID: 16822489/0x0100B0D9), Tarnotik (ID: 16822489/0x0100B0D9)], work=215*
  6: 0x0FB1 [0x2B] Tarnotik (ID: 16822489/0x0100B0D9) [7579*]:
    → "Tarnotik happy!"
  7: 0x0FB8 [0x23] WAIT_FOR_DIALOG_INTERACTION
  8: 0x0FB9 [0x6B] STOP_AND_IDLE: Tarnotik (ID: 16822489/0x0100B0D9) stops current action and resets to idle (animation="idl0")
  9: 0x0FC2 [0x1C] WAIT(15* ticks)
 10: 0x0FC5 [0x2B] Tarnotik (ID: 16822489/0x0100B0D9) [7813*]:
    → "Moblins no break promises! Tarnotik send you to Shaft 2716 now."
 11: 0x0FCC [0x23] WAIT_FOR_DIALOG_INTERACTION
 12: 0x0FCD [0x73] Tarnotik (ID: 16822489/0x0100B0D9) casts magic 266* on LocalPlayer
 13: 0x0FD8 [0x1C] WAIT(300* ticks)
 14: 0x0FDB [0x1A] CALL_SUBROUTINE(address=0x243C)
 15: 0x0FDE [0x1C] WAIT(30* ticks)
 16: 0x0FE1 [0x03] Work_Zone[1] = 1*
 17: 0x0FE6 [0x30] SET_UCOFF_CONTINUE_ZERO()
 18: 0x0FE7 [0x21] END_EVENT
 19: 0x0FE8 [0x00] END_REQSTACK()
```

### Event 45

#### Metadata

| Field        | Value    |
|--------------|----------|
| Entrypoint   | 0x0FE9   |
| Data Size    | 80 bytes |
| Instructions | 14       |

```
      00 01 02 03 04 05 06 07  08 09 0A 0B 0C 0D 0E 0F
      -- -- -- -- -- -- -- --  -- -- -- -- -- -- -- --
0FE0:                             4A F0 FF FF 7F D9 B0           J......
0FF0: 00 01 4A D9 B0 00 01 F0  FF FF 7F 6F 76 D9 B0 00  ..J........ov...
1000: 01 5B 26 80 D9 B0 00 01  D9 B0 00 01 74 6C 6B 30  .[&.........tlk0
1010: 2B D9 B0 00 01 57 80 23  2B D9 B0 00 01 58 80 23  +....W.#+....X.#
1020: 5B 26 80 D9 B0 00 01 D9  B0 00 01 74 6C 6B 31 2B  [&.........tlk1+
1030: D9 B0 00 01 4F 80 23 21  00                       ....O.#!.       
```

#### Opcodes

```
  0: 0x0FE9 [0x4A] LocalPlayer looks at Tarnotik (ID: 16822489/0x0100B0D9)
  1: 0x0FF2 [0x4A] Tarnotik (ID: 16822489/0x0100B0D9) looks at LocalPlayer
  2: 0x0FFB [0x6F] WAIT_FRAME_DELAY: Yield until WaitTime reaches zero
  3: 0x0FFC [0x76] CHECK_ENTITY_RENDER_FLAGS: Wait until Tarnotik (ID: 16822489/0x0100B0D9) Render.Flags0 and Render.Flags3 conditions are met
  4: 0x1001 [0x5B] LOAD_EXT_SCHEDULER: Load scheduler "tlk0" with entities [Tarnotik (ID: 16822489/0x0100B0D9), Tarnotik (ID: 16822489/0x0100B0D9)], work=215*
  5: 0x1010 [0x2B] Tarnotik (ID: 16822489/0x0100B0D9) [7816*]:
    → "Hey, Tarnotik remembers you! You crazy Goblin with person-shape magic!"
  6: 0x1017 [0x23] WAIT_FOR_DIALOG_INTERACTION
  7: 0x1018 [0x2B] Tarnotik (ID: 16822489/0x0100B0D9) [7817*]:
    → "You want Tarnotik to send you crazy deep into Movalpolos again?"
  8: 0x101F [0x23] WAIT_FOR_DIALOG_INTERACTION
  9: 0x1020 [0x5B] LOAD_EXT_SCHEDULER: Load scheduler "tlk1" with entities [Tarnotik (ID: 16822489/0x0100B0D9), Tarnotik (ID: 16822489/0x0100B0D9)], work=215*
 10: 0x102F [0x2B] Tarnotik (ID: 16822489/0x0100B0D9) [7815*]:
    → "Drippy, pretty, sparkly, crazy tears. You bring one to Tarnotik, and Tarnotik send you deep into Movalpolos, to Shaft 2716."
 11: 0x1036 [0x23] WAIT_FOR_DIALOG_INTERACTION
 12: 0x1037 [0x21] END_EVENT
 13: 0x1038 [0x00] END_REQSTACK()
```

### Event 57

#### Metadata

| Field        | Value      |
|--------------|------------|
| Entrypoint   | 0x1039     |
| Data Size    | 5681 bytes |
| Instructions | 617        |

```
      00 01 02 03 04 05 06 07  08 09 0A 0B 0C 0D 0E 0F
      -- -- -- -- -- -- -- --  -- -- -- -- -- -- -- --
1030:                             42 5D 01 80 11 80 1A           B].....
1040: 3C 24 46 01 38 0A 80 4E  00 F0 FF FF 7F 03 09 10  <$F.8..N........
1050: 02 80 1A B5 20 5C 00 22  80 5C 01 22 80 9A 27 0A  .... \.".\."..'.
1060: F0 FF FF 7F 12 45 22 80  F0 FF FF 7F F0 FF FF 7F  .....E".........
1070: 73 30 39 38 01 80 1A 1B  24 79 00 F0 FF FF 7F 09  s098....$y......
1080: B1 00 01 1C 1F 80 4A 0A  B1 00 01 09 B1 00 01 1C  ......J.........
1090: 08 80 4A 09 B1 00 01 0A  B1 00 01 1C 11 80 55 22  ..J...........U"
10A0: 80 F0 FF FF 7F F0 FF FF  7F 73 30 39 38 45 20 80  .........s098E .
10B0: F0 FF FF 7F F0 FF FF 7F  6F 76 6C 31 01 80 45 22  ........ovl1..E"
10C0: 80 F0 FF FF 7F F0 FF FF  7F 73 30 39 39 01 80 4A  .........s099..J
10D0: 09 B1 00 01 F0 FF FF 7F  2B 09 B1 00 01 59 80 23  ........+....Y.#
10E0: 4A 0A B1 00 01 F0 FF FF  7F 2B 0A B1 00 01 5A 80  J........+....Z.
10F0: 23 5B 26 80 09 B1 00 01  09 B1 00 01 74 6C 6B 31  #[&.........tlk1
1100: 2B 09 B1 00 01 5B 80 23  6B 69 64 6C 30 09 B1 00  +....[.#kidl0...
1110: 01 5B 26 80 0A B1 00 01  0A B1 00 01 74 6C 6B 31  .[&.........tlk1
1120: 2B 0A B1 00 01 5C 80 23  6B 69 64 6C 30 0A B1 00  +....\.#kidl0...
1130: 01 45 20 80 F0 FF FF 7F  F0 FF FF 7F 6F 76 6C 31  .E .........ovl1
1140: 01 80 52 22 80 F0 FF FF  7F F0 FF FF 7F 73 30 39  ..R".........s09
1150: 39 45 22 80 F0 FF FF 7F  F0 FF FF 7F 73 31 30 30  9E".........s100
1160: 01 80 5B 26 80 09 B1 00  01 09 B1 00 01 74 6C 6B  ..[&.........tlk
1170: 30 2B 09 B1 00 01 5D 80  23 6B 69 64 6C 30 09 B1  0+....].#kidl0..
1180: 00 01 5B 26 80 0A B1 00  01 0A B1 00 01 74 6C 6B  ..[&.........tlk
1190: 30 2B 0A B1 00 01 5E 80  23 6B 69 64 6C 30 0A B1  0+....^.#kidl0..
11A0: 00 01 1C 10 80 4A 09 B1  00 01 0A B1 00 01 1C 12  .....J..........
11B0: 80 4A 0A B1 00 01 09 B1  00 01 1C 08 80 27 0A 09  .J...........'..
11C0: B1 00 01 0A 1C 10 80 27  0A 0A B1 00 01 0A 1C 08  .......'........
11D0: 80 52 22 80 F0 FF FF 7F  F0 FF FF 7F 73 31 30 30  .R".........s100
11E0: 45 20 80 F0 FF FF 7F F0  FF FF 7F 6F 76 6C 31 01  E .........ovl1.
11F0: 80 45 22 80 F0 FF FF 7F  F0 FF FF 7F 73 31 30 31  .E".........s101
1200: 01 80 1C 1F 80 27 0A F0  FF FF 7F 13 1C 11 80 45  .....'.........E
1210: 20 80 F0 FF FF 7F F0 FF  FF 7F 66 64 6F 32 01 80   .........fdo2..
1220: 55 20 80 F0 FF FF 7F F0  FF FF 7F 66 64 6F 32 2A  U .........fdo2*
1230: 0A 09 B1 00 01 2A 0A 0A  B1 00 01 2A 0A F0 FF FF  .....*.....*....
1240: 7F 34 5F 80 78 1C 10 80  AB 09 1C 0B 80 1A 8E 21  .4_.x..........!
1250: 6C 08 B1 00 01 60 80 02  80 5B 61 80 08 B1 00 01  l....`...[a.....
1260: 08 B1 00 01 73 69 74 32  9A 45 22 80 F0 FF FF 7F  ....sit2.E".....
1270: F0 FF FF 7F 73 30 36 38  01 80 45 20 80 F0 FF FF  ....s068..E ....
1280: 7F F0 FF FF 7F 66 64 69  32 01 80 55 22 80 F0 FF  .....fdi2..U"...
1290: FF 7F F0 FF FF 7F 73 30  36 38 45 20 80 F0 FF FF  ......s068E ....
12A0: 7F F0 FF FF 7F 6F 76 6C  31 01 80 45 22 80 F0 FF  .....ovl1..E"...
12B0: FF 7F F0 FF FF 7F 73 30  36 37 01 80 1C 11 80 2B  ......s067.....+
12C0: 09 B1 00 01 62 80 23 29  0A 0A B1 00 01 0C 2B 0A  ....b.#)......+.
12D0: B1 00 01 63 80 23 52 22  80 F0 FF FF 7F F0 FF FF  ...c.#R"........
12E0: 7F 73 30 36 37 45 20 80  F0 FF FF 7F F0 FF FF 7F  .s067E .........
12F0: 6F 76 6C 31 01 80 45 22  80 F0 FF FF 7F F0 FF FF  ovl1..E"........
1300: 7F 73 30 36 39 01 80 4A  09 B1 00 01 F0 FF FF 7F  .s069..J........
1310: 2B 09 B1 00 01 64 80 1C  65 80 5B 2B 80 09 B1 00  +....d..e.[+....
1320: 01 09 B1 00 01 61 6E 67  30 1C 11 80 23 5B 2B 80  .....ang0...#[+.
1330: 09 B1 00 01 09 B1 00 01  61 6E 67 31 4A 0A B1 00  ........ang1J...
1340: 01 F0 FF FF 7F 2B 0A B1  00 01 66 80 1C 65 80 5B  .....+....f..e.[
1350: 2B 80 0A B1 00 01 0A B1  00 01 61 6E 67 30 1C 11  +.........ang0..
1360: 80 23 5B 2B 80 09 B1 00  01 09 B1 00 01 61 6E 67  .#[+.........ang
1370: 30 52 22 80 F0 FF FF 7F  F0 FF FF 7F 73 30 36 39  0R".........s069
1380: 45 20 80 F0 FF FF 7F F0  FF FF 7F 6F 76 6C 31 01  E .........ovl1.
1390: 80 45 22 80 F0 FF FF 7F  F0 FF FF 7F 73 30 37 31  .E".........s071
13A0: 01 80 1C 67 80 27 0A F0  FF FF 7F 16 1C 68 80 5B  ...g.'.......h.[
13B0: 69 80 08 B1 00 01 08 B1  00 01 65 64 30 30 55 22  i.........ed00U"
13C0: 80 F0 FF FF 7F F0 FF FF  7F 73 30 37 31 45 20 80  .........s071E .
13D0: F0 FF FF 7F F0 FF FF 7F  6F 76 6C 31 01 80 5B 2B  ........ovl1..[+
13E0: 80 09 B1 00 01 09 B1 00  01 61 6E 67 31 5B 2B 80  .........ang1[+.
13F0: 0A B1 00 01 0A B1 00 01  61 6E 67 31 45 22 80 F0  ........ang1E"..
1400: FF FF 7F F0 FF FF 7F 73  30 37 32 01 80 1C 6A 80  .......s072...j.
1410: 5D 01 80 1F 80 2B 08 B1  00 01 6B 80 23 1A 3C 24  ]....+....k.#.<$
1420: 27 0A F0 FF FF 7F 15 27  0A 08 B1 00 01 0A 27 0A  '......'......'.
1430: 09 B1 00 01 0C 27 0A 0A  B1 00 01 0D 1C 02 80 4E  .....'.........N
1440: 01 09 B1 00 01 4E 01 0A  B1 00 01 52 22 80 F0 FF  .....N.....R"...
1450: FF 7F F0 FF FF 7F 73 30  37 32 45 22 80 F0 FF FF  ......s072E"....
1460: 7F F0 FF FF 7F 73 30 37  30 01 80 6B 69 64 6C 30  .....s070..kidl0
1470: 08 B1 00 01 1C 65 80 27  0A 08 B1 00 01 0B 1A 1B  .....e.'........
1480: 24 1C 11 80 2B 08 B1 00  01 6C 80 23 2A 0A 08 B1  $...+....l.#*...
1490: 00 01 5C 00 6D 80 5C 01  6D 80 6E 08 B1 00 01 3D  ..\.m.\.m.n....=
14A0: 80 99 08 B1 00 01 2B 08  B1 00 01 6E 80 23 45 20  ......+....n.#E 
14B0: 80 F0 FF FF 7F F0 FF FF  7F 6F 76 6C 31 01 80 52  .........ovl1..R
14C0: 22 80 F0 FF FF 7F F0 FF  FF 7F 73 30 37 30 45 22  ".........s070E"
14D0: 80 F0 FF FF 7F F0 FF FF  7F 73 30 37 33 01 80 2B  .........s073..+
14E0: 08 B1 00 01 6F 80 23 2B  08 B1 00 01 70 80 23 5B  ....o.#+....p.#[
14F0: 69 80 08 B1 00 01 08 B1  00 01 65 64 30 31 2B 08  i.........ed01+.
1500: B1 00 01 71 80 23 45 20  80 F0 FF FF 7F F0 FF FF  ...q.#E ........
1510: 7F 6F 76 6C 31 01 80 52  22 80 F0 FF FF 7F F0 FF  .ovl1..R".......
1520: FF 7F 73 30 37 33 45 22  80 F0 FF FF 7F F0 FF FF  ..s073E"........
1530: 7F 73 30 37 34 01 80 6C  E1 B0 00 01 60 80 02 80  .s074..l....`...
1540: 6C E5 B0 00 01 60 80 02  80 2B 08 B1 00 01 72 80  l....`...+....r.
1550: 23 5B 69 80 08 B1 00 01  08 B1 00 01 65 64 30 32  #[i.........ed02
1560: 2B 08 B1 00 01 73 80 23  2B 08 B1 00 01 74 80 23  +....s.#+....t.#
1570: 52 22 80 F0 FF FF 7F F0  FF FF 7F 73 30 37 34 45  R".........s074E
1580: 22 80 F0 FF FF 7F F0 FF  FF 7F 73 30 37 35 01 80  ".........s075..
1590: 4A 0B B1 00 01 08 B1 00  01 4A 0C B1 00 01 08 B1  J........J......
15A0: 00 01 4A 0D B1 00 01 08  B1 00 01 4A 0E B1 00 01  ..J........J....
15B0: 08 B1 00 01 4A 0F B1 00  01 08 B1 00 01 4A 10 B1  ....J........J..
15C0: 00 01 08 B1 00 01 6B 69  64 6C 30 08 B1 00 01 27  ......kidl0....'
15D0: 0A E1 B0 00 01 0B 1C 12  80 4A F0 FF FF 7F E1 B0  .........J......
15E0: 00 01 2B E1 B0 00 01 75  80 23 29 0A E5 B0 00 01  ..+....u.#).....
15F0: 2D 79 00 F0 FF FF 7F 0C  B1 00 01 5B 2B 80 E5 B0  -y.........[+...
1600: 00 01 E5 B0 00 01 61 6E  67 30 2B E5 B0 00 01 76  ......ang0+....v
1610: 80 23 5B 2B 80 E5 B0 00  01 E5 B0 00 01 61 6E 67  .#[+.........ang
1620: 31 4E 00 09 B1 00 01 4E  00 0A B1 00 01 4E 00 17  1N.....N.....N..
1630: B1 00 01 6C 17 B1 00 01  60 80 02 80 6C 0B B1 00  ...l....`...l...
1640: 01 60 80 02 80 6C 0C B1  00 01 60 80 02 80 6C 0D  .`...l....`...l.
1650: B1 00 01 60 80 02 80 6C  0E B1 00 01 60 80 02 80  ...`...l....`...
1660: 6C 0F B1 00 01 60 80 02  80 6C 10 B1 00 01 60 80  l....`...l....`.
1670: 02 80 6C D9 B0 00 01 60  80 02 80 45 20 80 F0 FF  ..l....`...E ...
1680: FF 7F F0 FF FF 7F 6F 76  6C 31 01 80 52 22 80 F0  ......ovl1..R"..
1690: FF FF 7F F0 FF FF 7F 73  30 37 35 45 22 80 F0 FF  .......s075E"...
16A0: FF 7F F0 FF FF 7F 73 30  37 36 01 80 4A 08 B1 00  ......s076..J...
16B0: 01 17 B1 00 01 1C 77 80  4A F0 FF FF 7F 0C B1 00  ......w.J.......
16C0: 01 55 22 80 F0 FF FF 7F  F0 FF FF 7F 73 30 37 36  .U".........s076
16D0: 45 20 80 F0 FF FF 7F F0  FF FF 7F 6F 76 6C 31 01  E .........ovl1.
16E0: 80 45 22 80 F0 FF FF 7F  F0 FF FF 7F 73 30 37 37  .E".........s077
16F0: 01 80 79 00 08 B1 00 01  D9 B0 00 01 27 0A D9 B0  ..y.........'...
1700: 00 01 0D 1C 78 80 2B D9  B0 00 01 79 80 23 45 20  ....x.+....y.#E 
1710: 80 F0 FF FF 7F F0 FF FF  7F 6F 76 6C 31 01 80 52  .........ovl1..R
1720: 22 80 F0 FF FF 7F F0 FF  FF 7F 73 30 37 37 45 22  ".........s077E"
1730: 80 F0 FF FF 7F F0 FF FF  7F 73 30 37 38 01 80 4B  .........s078..K
1740: F0 FF FF 7F 7A 80 79 00  F0 FF FF 7F 08 B1 00 01  ....z.y.........
1750: 1C 10 80 7B 08 B1 00 01  2B 08 B1 00 01 7B 80 23  ...{....+....{.#
1760: 6E 08 B1 00 01 3D 80 99  08 B1 00 01 2B 08 B1 00  n....=......+...
1770: 01 7C 80 23 45 20 80 F0  FF FF 7F F0 FF FF 7F 6F  .|.#E .........o
1780: 76 6C 31 01 80 52 22 80  F0 FF FF 7F F0 FF FF 7F  vl1..R".........
1790: 73 30 37 38 45 22 80 F0  FF FF 7F F0 FF FF 7F 73  s078E".........s
17A0: 30 37 39 01 80 27 0A 08  B1 00 01 0C 2B 08 B1 00  079..'......+...
17B0: 01 7D 80 1C 11 80 4A E1  B0 00 01 08 B1 00 01 23  .}....J........#
17C0: 79 00 08 B1 00 01 F0 FF  FF 7F 2B 08 B1 00 01 7E  y.........+....~
17D0: 80 23 45 20 80 F0 FF FF  7F F0 FF FF 7F 6F 76 6C  .#E .........ovl
17E0: 31 01 80 52 22 80 F0 FF  FF 7F F0 FF FF 7F 73 30  1..R".........s0
17F0: 37 39 45 22 80 F0 FF FF  7F F0 FF FF 7F 73 30 38  79E".........s08
1800: 30 01 80 7B 08 B1 00 01  2B 08 B1 00 01 7F 80 23  0..{....+......#
1810: 2B 08 B1 00 01 80 80 23  45 81 80 F0 FF FF 7F F0  +......#E.......
1820: FF FF 7F 77 68 6F 30 01  80 55 81 80 F0 FF FF 7F  ...who0..U......
1830: F0 FF FF 7F 77 68 6F 30  52 22 80 F0 FF FF 7F F0  ....who0R"......
1840: FF FF 7F 73 30 38 30 45  22 80 F0 FF FF 7F F0 FF  ...s080E".......
1850: FF 7F 73 30 38 31 01 80  45 81 80 F0 FF FF 7F F0  ..s081..E.......
1860: FF FF 7F 77 68 69 31 01  80 5B 2B 80 D9 B0 00 01  ...whi1..[+.....
1870: D9 B0 00 01 62 69 6B 30  2B D9 B0 00 01 82 80 23  ....bik0+......#
1880: 5B 2B 80 E5 B0 00 01 E5  B0 00 01 62 69 6B 30 2B  [+.........bik0+
1890: E5 B0 00 01 82 80 23 45  20 80 F0 FF FF 7F F0 FF  ......#E .......
18A0: FF 7F 6F 76 6C 31 01 80  52 22 80 F0 FF FF 7F F0  ..ovl1..R"......
18B0: FF FF 7F 73 30 38 31 45  22 80 F0 FF FF 7F F0 FF  ...s081E".......
18C0: FF 7F 73 30 38 32 01 80  6B 69 64 6C 30 E5 B0 00  ..s082..kidl0...
18D0: 01 6B 69 64 6C 30 D9 B0  00 01 79 00 08 B1 00 01  .kidl0....y.....
18E0: 09 B1 00 01 2B 08 B1 00  01 83 80 23 66 84 80 08  ....+......#f...
18F0: B1 00 01 08 B1 00 01 74  77 61 30 79 00 08 B1 00  .......twa0y....
1900: 01 0B B1 00 01 2B 08 B1  00 01 85 80 23 7B 08 B1  .....+......#{..
1910: 00 01 66 84 80 08 B1 00  01 08 B1 00 01 74 77 61  ..f..........twa
1920: 31 2B 08 B1 00 01 86 80  23 45 20 80 F0 FF FF 7F  1+......#E .....
1930: F0 FF FF 7F 66 64 6F 32  01 80 55 20 80 F0 FF FF  ....fdo2..U ....
1940: 7F F0 FF FF 7F 66 64 6F  32 1C 12 80 52 22 80 F0  .....fdo2...R"..
1950: FF FF 7F F0 FF FF 7F 73  30 38 32 45 22 80 F0 FF  .......s082E"...
1960: FF 7F F0 FF FF 7F 73 30  38 33 01 80 27 0A 09 B1  ......s083..'...
1970: 00 01 0D 1A 1B 24 1C 10  80 2B 09 B1 00 01 87 80  .....$...+......
1980: 23 79 00 08 B1 00 01 09  B1 00 01 2B 08 B1 00 01  #y.........+....
1990: 88 80 23 45 20 80 F0 FF  FF 7F F0 FF FF 7F 6F 76  ..#E .........ov
19A0: 6C 31 01 80 52 22 80 F0  FF FF 7F F0 FF FF 7F 73  l1..R".........s
19B0: 30 38 33 45 22 80 F0 FF  FF 7F F0 FF FF 7F 73 30  083E".........s0
19C0: 38 34 01 80 5B 2B 80 0A  B1 00 01 0A B1 00 01 6D  84..[+.........m
19D0: 6D 6D 30 2B 0A B1 00 01  89 80 23 7B 08 B1 00 01  mm0+......#{....
19E0: 6E 08 B1 00 01 3D 80 99  08 B1 00 01 2B 08 B1 00  n....=......+...
19F0: 01 8A 80 23 45 20 80 F0  FF FF 7F F0 FF FF 7F 6F  ...#E .........o
1A00: 76 6C 31 01 80 52 22 80  F0 FF FF 7F F0 FF FF 7F  vl1..R".........
1A10: 73 30 38 34 45 22 80 F0  FF FF 7F F0 FF FF 7F 73  s084E".........s
1A20: 30 38 35 01 80 6B 69 64  6C 30 0A B1 00 01 5B 69  085..kidl0....[i
1A30: 80 08 B1 00 01 08 B1 00  01 65 64 30 31 2B 08 B1  .........ed01+..
1A40: 00 01 8B 80 23 5B 69 80  08 B1 00 01 08 B1 00 01  ....#[i.........
1A50: 65 64 30 32 2B 08 B1 00  01 8C 80 23 45 20 80 F0  ed02+......#E ..
1A60: FF FF 7F F0 FF FF 7F 6F  76 6C 31 01 80 52 22 80  .......ovl1..R".
1A70: F0 FF FF 7F F0 FF FF 7F  73 30 38 35 45 22 80 F0  ........s085E"..
1A80: FF FF 7F F0 FF FF 7F 73  30 38 36 01 80 6B 69 64  .......s086..kid
1A90: 6C 30 08 B1 00 01 5D 01  80 1F 80 5B 26 80 0B B1  l0....]....[&...
1AA0: 00 01 0B B1 00 01 74 6C  6B 31 2B 0B B1 00 01 8D  ......tlk1+.....
1AB0: 80 23 6B 69 64 6C 30 0B  B1 00 01 45 20 80 F0 FF  .#kidl0....E ...
1AC0: FF 7F F0 FF FF 7F 6F 76  6C 31 01 80 52 22 80 F0  ......ovl1..R"..
1AD0: FF FF 7F F0 FF FF 7F 73  30 38 36 45 22 80 F0 FF  .......s086E"...
1AE0: FF 7F F0 FF FF 7F 73 30  38 37 01 80 5B 26 80 E5  ......s087..[&..
1AF0: B0 00 01 E5 B0 00 01 74  6C 6B 30 2B E5 B0 00 01  .......tlk0+....
1B00: 8E 80 23 6B 69 64 6C 30  E5 B0 00 01 5C 00 0D 80  ..#kidl0....\...
1B10: 5C 01 0D 80 5B 2B 80 0C  B1 00 01 0C B1 00 01 68  \...[+.........h
1B20: 61 70 30 2B 0C B1 00 01  8F 80 23 6B 69 64 6C 30  ap0+......#kidl0
1B30: 0C B1 00 01 45 20 80 F0  FF FF 7F F0 FF FF 7F 6F  ....E .........o
1B40: 76 6C 31 01 80 52 22 80  F0 FF FF 7F F0 FF FF 7F  vl1..R".........
1B50: 73 30 38 37 45 22 80 F0  FF FF 7F F0 FF FF 7F 73  s087E".........s
1B60: 30 38 38 01 80 2B 08 B1  00 01 90 80 23 5B 26 80  088..+......#[&.
1B70: D9 B0 00 01 D9 B0 00 01  74 6C 6B 31 2B D9 B0 00  ........tlk1+...
1B80: 01 91 80 23 6B 69 64 6C  30 D9 B0 00 01 5B 2B 80  ...#kidl0....[+.
1B90: 09 B1 00 01 09 B1 00 01  68 61 70 30 2B 09 B1 00  ........hap0+...
1BA0: 01 92 80 23 45 20 80 F0  FF FF 7F F0 FF FF 7F 6F  ...#E .........o
1BB0: 76 6C 31 01 80 52 22 80  F0 FF FF 7F F0 FF FF 7F  vl1..R".........
1BC0: 73 30 38 38 45 22 80 F0  FF FF 7F F0 FF FF 7F 73  s088E".........s
1BD0: 30 38 39 01 80 6B 69 64  6C 30 09 B1 00 01 1C 10  089..kidl0......
1BE0: 80 7C 00 08 B1 00 01 2B  08 B1 00 01 93 80 23 7C  .|.....+......#|
1BF0: 01 08 B1 00 01 55 22 80  F0 FF FF 7F F0 FF FF 7F  .....U".........
1C00: 73 30 38 39 45 20 80 F0  FF FF 7F F0 FF FF 7F 6F  s089E .........o
1C10: 76 6C 31 01 80 45 22 80  F0 FF FF 7F F0 FF FF 7F  vl1..E".........
1C20: 73 30 39 30 01 80 5B 94  80 0B B1 00 01 0B B1 00  s090..[.........
1C30: 01 64 61 6E 30 2B 0B B1  00 01 95 80 23 5B 94 80  .dan0+......#[..
1C40: 0B B1 00 01 0B B1 00 01  64 61 6E 31 5B 94 80 0C  ........dan1[...
1C50: B1 00 01 0C B1 00 01 64  61 6E 30 2B 0C B1 00 01  .......dan0+....
1C60: 96 80 1C 11 80 5B 94 80  0C B1 00 01 0C B1 00 01  .....[..........
1C70: 64 61 6E 31 23 5B 94 80  0A B1 00 01 0A B1 00 01  dan1#[..........
1C80: 64 61 6E 30 5B 94 80 0D  B1 00 01 0D B1 00 01 64  dan0[..........d
1C90: 61 6E 30 5B 94 80 0E B1  00 01 0E B1 00 01 64 61  an0[..........da
1CA0: 6E 30 5B 94 80 0F B1 00  01 0F B1 00 01 64 61 6E  n0[..........dan
1CB0: 30 5B 94 80 10 B1 00 01  10 B1 00 01 64 61 6E 30  0[..........dan0
1CC0: 5B 94 80 E1 B0 00 01 E1  B0 00 01 64 61 6E 30 45  [..........dan0E
1CD0: 20 80 F0 FF FF 7F F0 FF  FF 7F 6F 76 6C 32 01 80   .........ovl2..
1CE0: 52 22 80 F0 FF FF 7F F0  FF FF 7F 73 30 39 30 45  R".........s090E
1CF0: 22 80 F0 FF FF 7F F0 FF  FF 7F 73 30 39 31 01 80  ".........s091..
1D00: 5B 94 80 0A B1 00 01 0A  B1 00 01 64 61 6E 31 1C  [..........dan1.
1D10: 97 80 5B 94 80 0E B1 00  01 0E B1 00 01 64 61 6E  ..[..........dan
1D20: 31 1C 97 80 5B 94 80 09  B1 00 01 09 B1 00 01 64  1...[..........d
1D30: 61 6E 30 1C 97 80 5B 94  80 0F B1 00 01 0F B1 00  an0...[.........
1D40: 01 64 61 6E 31 1C 97 80  79 00 08 B1 00 01 D9 B0  .dan1...y.......
1D50: 00 01 5B 94 80 E5 B0 00  01 E5 B0 00 01 64 61 6E  ..[..........dan
1D60: 30 1C 97 80 5B 94 80 E1  B0 00 01 E1 B0 00 01 64  0...[..........d
1D70: 61 6E 31 1C 97 80 5B 94  80 D9 B0 00 01 D9 B0 00  an1...[.........
1D80: 01 64 61 6E 30 1C 97 80  5B 94 80 0D B1 00 01 0D  .dan0...[.......
1D90: B1 00 01 64 61 6E 31 1C  97 80 5B 94 80 10 B1 00  ...dan1...[.....
1DA0: 01 10 B1 00 01 64 61 6E  31 1C 97 80 5B 94 80 E5  .....dan1...[...
1DB0: B0 00 01 E5 B0 00 01 64  61 6E 31 1C 97 80 5B 94  .......dan1...[.
1DC0: 80 D9 B0 00 01 D9 B0 00  01 64 61 6E 31 1C 97 80  .........dan1...
1DD0: 5B 94 80 09 B1 00 01 09  B1 00 01 64 61 6E 31 1C  [..........dan1.
1DE0: 08 80 79 00 08 B1 00 01  0F B1 00 01 55 22 80 F0  ..y.........U"..
1DF0: FF FF 7F F0 FF FF 7F 73  30 39 31 45 22 80 F0 FF  .......s091E"...
1E00: FF 7F F0 FF FF 7F 73 30  39 32 01 80 1C 98 80 45  ......s092.....E
1E10: 20 80 F0 FF FF 7F F0 FF  FF 7F 66 64 6F 32 01 80   .........fdo2..
1E20: 55 20 80 F0 FF FF 7F F0  FF FF 7F 66 64 6F 32 35  U .........fdo25
1E30: 99 80 78 1C 10 80 AB 0A  1C 0B 80 1A 1B 23 1C 0B  ..x..........#..
1E40: 80 9A 27 0A F0 FF FF 7F  18 27 0A 08 B1 00 01 0E  ..'......'......
1E50: 45 22 80 F0 FF FF 7F F0  FF FF 7F 73 30 39 33 01  E".........s093.
1E60: 80 7B 08 B1 00 01 1A 1B  24 2A 0A F0 FF FF 7F 1C  .{......$*......
1E70: 65 80 4B F0 FF FF 7F 9A  80 79 00 F0 FF FF 7F 08  e.K......y......
1E80: B1 00 01 2B 08 B1 00 01  9B 80 23 45 20 80 F0 FF  ...+......#E ...
1E90: FF 7F F0 FF FF 7F 6F 76  6C 31 01 80 52 22 80 F0  ......ovl1..R"..
1EA0: FF FF 7F F0 FF FF 7F 73  30 39 33 45 22 80 F0 FF  .......s093E"...
1EB0: FF 7F F0 FF FF 7F 73 30  39 34 01 80 66 84 80 08  ......s094..f...
1EC0: B1 00 01 08 B1 00 01 74  77 61 30 2B 08 B1 00 01  .......twa0+....
1ED0: 9C 80 23 66 84 80 08 B1  00 01 08 B1 00 01 74 77  ..#f..........tw
1EE0: 61 31 2B 08 B1 00 01 9D  80 23 24 9E 80 01 80 01  a1+......#$.....
1EF0: 80 25 02 00 10 01 80 00  4D 1F 45 20 80 F0 FF FF  .%......M.E ....
1F00: 7F F0 FF FF 7F 6F 76 6C  31 01 80 52 22 80 F0 FF  .....ovl1..R"...
1F10: FF 7F F0 FF FF 7F 73 30  39 34 45 22 80 F0 FF FF  ......s094E"....
1F20: 7F F0 FF FF 7F 73 30 39  35 01 80 66 84 80 08 B1  .....s095..f....
1F30: 00 01 08 B1 00 01 74 68  6B 31 2B 08 B1 00 01 9F  ......thk1+.....
1F40: 80 23 2B 08 B1 00 01 A0  80 23 01 A8 1F 02 00 10  .#+......#......
1F50: 02 80 00 A8 1F 45 20 80  F0 FF FF 7F F0 FF FF 7F  .....E .........
1F60: 6F 76 6C 31 01 80 52 22  80 F0 FF FF 7F F0 FF FF  ovl1..R"........
1F70: 7F 73 30 39 34 45 22 80  F0 FF FF 7F F0 FF FF 7F  .s094E".........
1F80: 73 30 39 35 01 80 66 84  80 08 B1 00 01 08 B1 00  s095..f.........
1F90: 01 74 68 6B 31 2B 08 B1  00 01 A1 80 23 2B 08 B1  .thk1+......#+..
1FA0: 00 01 A2 80 23 01 A8 1F  45 20 80 F0 FF FF 7F F0  ....#...E ......
1FB0: FF FF 7F 6F 76 6C 31 01  80 52 22 80 F0 FF FF 7F  ...ovl1..R".....
1FC0: F0 FF FF 7F 73 30 39 35  45 22 80 F0 FF FF 7F F0  ....s095E"......
1FD0: FF FF 7F 73 30 39 36 01  80 66 84 80 08 B1 00 01  ...s096..f......
1FE0: 08 B1 00 01 74 68 6B 32  2B 08 B1 00 01 A3 80 23  ....thk2+......#
1FF0: 6E 08 B1 00 01 3C 80 99  08 B1 00 01 2B 08 B1 00  n....<......+...
2000: 01 A4 80 23 66 84 80 08  B1 00 01 08 B1 00 01 74  ...#f..........t
2010: 77 61 30 2B 08 B1 00 01  A5 80 23 66 84 80 08 B1  wa0+......#f....
2020: 00 01 08 B1 00 01 74 77  61 31 4B 08 B1 00 01 A6  ......twa1K.....
2030: 80 45 20 80 F0 FF FF 7F  F0 FF FF 7F 6F 76 6C 31  .E .........ovl1
2040: 01 80 52 22 80 F0 FF FF  7F F0 FF FF 7F 73 30 39  ..R".........s09
2050: 36 45 22 80 F0 FF FF 7F  F0 FF FF 7F 73 30 39 37  6E".........s097
2060: 01 80 2B 08 B1 00 01 A7  80 23 27 0A 08 B1 00 01  ..+......#'.....
2070: 0F 1C 11 80 45 20 80 F0  FF FF 7F F0 FF FF 7F 66  ....E .........f
2080: 64 6F 32 01 80 55 20 80  F0 FF FF 7F F0 FF FF 7F  do2..U .........
2090: 66 64 6F 32 1C 10 80 5C  02 0E 80 5C 03 0F 80 9A  fdo2...\...\....
20A0: 46 00 45 20 80 F0 FF FF  7F F0 FF FF 7F 66 64 69  F.E .........fdi
20B0: 32 01 80 21 00 27 10 08  B1 00 01 02 27 10 09 B1  2..!.'......'...
20C0: 00 01 04 27 10 0A B1 00  01 04 27 10 0B B1 00 01  ...'......'.....
20D0: 02 27 10 0C B1 00 01 02  27 10 0D B1 00 01 02 27  .'......'......'
20E0: 10 0E B1 00 01 02 27 10  0F B1 00 01 02 27 10 10  ......'......'..
