# 0x7FFFFFF0 - Zone Events

## Common Data

| Field            | Value                      |
|------------------|----------------------------|
| Zone             | Oldton Movalpolos (ID: 11) |
| Block Size       | 5640 bytes                 |
| Total Events     | 41                         |
| References Count | 201                        |

## List of Events

| Event ID                   | Entrypoint   |   Size |   Instructions |
|----------------------------|--------------|--------|----------------|
| [65535](#event-65535)      | 0x0000       |      1 |              1 |
| [65534](#event-65534)      | 0x0001       |      1 |              1 |
| [65535.1](#event-655351)   | 0x0002       |     10 |              2 |
| [65535.2](#event-655352)   | 0x000C       |     15 |              5 |
| [65535.3](#event-655353)   | 0x001B       |     10 |              2 |
| [65535.4](#event-655354)   | 0x0025       |      6 |              2 |
| [65535.5](#event-655355)   | 0x002B       |      6 |              2 |
| [65535.6](#event-655356)   | 0x0031       |      6 |              2 |
| [65535.7](#event-655357)   | 0x0037       |     10 |              2 |
| [65535.8](#event-655358)   | 0x0041       |     10 |              2 |
| [65535.9](#event-655359)   | 0x004B       |     15 |              5 |
| [65535.10](#event-6553510) | 0x005A       |     10 |              2 |
| [65535.11](#event-6553511) | 0x0064       |     10 |              2 |
| [65535.12](#event-6553512) | 0x006E       |      1 |              1 |
| [65535.13](#event-6553513) | 0x006F       |     10 |              2 |
| [65535.14](#event-6553514) | 0x0079       |     10 |              2 |
| [65535.15](#event-6553515) | 0x0083       |     10 |              2 |
| [65535.16](#event-6553516) | 0x008D       |     20 |              3 |
| [65535.17](#event-6553517) | 0x00A1       |     14 |              4 |
| [65535.18](#event-6553518) | 0x00AF       |     14 |              4 |
| [65535.19](#event-6553519) | 0x00BD       |     20 |              3 |
| [65535.20](#event-6553520) | 0x00D1       |     22 |              4 |
| [65535.21](#event-6553521) | 0x00E7       |     17 |              6 |
| [65535.22](#event-6553522) | 0x00F8       |     12 |              3 |
| [65535.23](#event-6553523) | 0x0104       |     14 |              4 |
| [60](#event-60)            | 0x0112       |   1158 |            140 |
| [61](#event-61)            | 0x0598       |    441 |             53 |
| [62](#event-62)            | 0x0751       |    264 |             30 |
| [63](#event-63)            | 0x0859       |    688 |             80 |
| [64](#event-64)            | 0x0B09       |    975 |            119 |
| [65](#event-65)            | 0x0ED8       |    558 |             69 |
| [65535.24](#event-6553524) | 0x1106       |     15 |              5 |
| [65535.25](#event-6553525) | 0x1115       |     13 |              3 |
| [65535.26](#event-6553526) | 0x1122       |     13 |              3 |
| [65535.27](#event-6553527) | 0x112F       |     13 |              3 |
| [65535.28](#event-6553528) | 0x113C       |     13 |              3 |
| [65535.29](#event-6553529) | 0x1149       |     13 |              3 |
| [65535.30](#event-6553530) | 0x1156       |     13 |              3 |
| [65535.31](#event-6553531) | 0x1163       |     13 |              3 |
| [65535.32](#event-6553532) | 0x1170       |    163 |             37 |
| [65535.33](#event-6553533) | 0x1213       |     27 |              5 |

## DAT References (imed_data)

|   Index | Hex Value   |   Dec Value |
|---------|-------------|-------------|
|       0 | 0xFFFC0830  |  4294707248 |
|       1 | 0xFFFF1792  |  4294907794 |
|       2 | 0x1F4B      |        8011 |
|       3 | 0x0BDF      |        3039 |
|       4 | 0x000D      |          13 |
|       5 | 0xFFFC08C5  |  4294707397 |
|       6 | 0xFFFF29E7  |  4294912487 |
|       7 | 0x1F40      |        8000 |
|       8 | 0xFFFC0703  |  4294706947 |
|       9 | 0xFFFF42B5  |  4294918837 |
|      10 | 0x1F3F      |        7999 |
|      11 | 0x0ACF      |        2767 |
|      12 | 0x27067     |      159847 |
|      13 | 0xFFFF6156  |  4294926678 |
|      14 | 0x369C      |       13980 |
|      15 | 0x0804      |        2052 |
|      16 | 0xFFFACF6F  |  4294627183 |
|      17 | 0x65D37     |      417079 |
|      18 | 0xFFFFE0C1  |  4294959297 |
|      19 | 0x03F5      |        1013 |
|      20 | 0xFFFACF8A  |  4294627210 |
|      21 | 0x6530B     |      414475 |
|      22 | 0xFFFFE0B9  |  4294959289 |
|      23 | 0xFFFAD2A7  |  4294628007 |
|      24 | 0x66BB6     |      420790 |
|      25 | 0xFFFFE0CC  |  4294959308 |
|      26 | 0x04BC      |        1212 |
|      27 | 0x27375     |      160629 |
|      28 | 0xFFFF197B  |  4294908283 |
|      29 | 0x2EDF      |       11999 |
|      30 | 0x0C25      |        3109 |
|      31 | 0xFFFEFF9E  |  4294901662 |
|      32 | 0xFFFE2EFE  |  4294848254 |
|      33 | 0x5932      |       22834 |
|      34 | 0x0C2A      |        3114 |
|      35 | 0xFFFEF9BD  |  4294900157 |
|      36 | 0xFFFE3546  |  4294849862 |
|      37 | 0x000A      |          10 |
|      38 | 0xFFFEFD00  |  4294900992 |
|      39 | 0xFFFE3005  |  4294848517 |
|      40 | 0x08C7      |        2247 |
|      41 | 0xFFFBA358  |  4294681432 |
|      42 | 0xFFFE7AAC  |  4294867628 |
|      43 | 0xFFFFFE3F  |  4294966847 |
|      44 | 0x0058      |          88 |
|      45 | 0xFFFBAEEC  |  4294684396 |
|      46 | 0xFFFE79C2  |  4294867394 |
|      47 | 0xFFFFFFF7  |  4294967287 |
|      48 | 0xFFFBBBCE  |  4294687694 |
|      49 | 0xFFFE796F  |  4294867311 |
|      50 | 0x007C      |         124 |
|      51 | 0xFFF8BE70  |  4294491760 |
|      52 | 0x883F      |       34879 |
|      53 | 0x1D8E6     |      121062 |
|      54 | 0x09E5      |        2533 |
|      55 | 0xFFF8DB94  |  4294499220 |
|      56 | 0x7613      |       30227 |
|      57 | 0x1DC8F     |      121999 |
|      58 | 0x06D6      |        1750 |
|      59 | 0xFFF8BC7C  |  4294491260 |
|      60 | 0x8A33      |       35379 |
|      61 | 0xFFFBCBAA  |  4294691754 |
|      62 | 0xFFFE76E8  |  4294866664 |
|      63 | 0x029C      |         668 |
|      64 | 0x0933      |        2355 |
|      65 | 0xFFFBBE93  |  4294688403 |
|      66 | 0xFFFE76A1  |  4294866593 |
|      67 | 0x0000      |           0 |
|      68 | 0x003C      |          60 |
|      69 | 0x00C8      |         200 |
|      70 | 0x0013      |          19 |
|      71 | 0xFFFB1706  |  4294645510 |
|      72 | 0xFFFC0439  |  4294706233 |
|      73 | 0x1FA7      |        8103 |
|      74 | 0x0FD2      |        4050 |
|      75 | 0x00A2      |         162 |
|      76 | 0xFFFB1F23  |  4294647587 |
|      77 | 0xFFFC0476  |  4294706294 |
|      78 | 0x1FB6      |        8118 |
|      79 | 0x00C9      |         201 |
|      80 | 0x1F63      |        8035 |
|      81 | 0x001E      |          30 |
|      82 | 0x1F64      |        8036 |
|      83 | 0x005A      |          90 |
|      84 | 0x00A3      |         163 |
|      85 | 0x1F65      |        8037 |
|      86 | 0x1F66      |        8038 |
|      87 | 0x00E3      |         227 |
|      88 | 0x1F67      |        8039 |
|      89 | 0x1F68      |        8040 |
|      90 | 0x1F69      |        8041 |
|      91 | 0x1F6A      |        8042 |
|      92 | 0x1F6B      |        8043 |
|      93 | 0x1F6C      |        8044 |
|      94 | 0x1F6D      |        8045 |
|      95 | 0x1F6E      |        8046 |
|      96 | 0x0001      |           1 |
|      97 | 0x1F6F      |        8047 |
|      98 | 0x1F70      |        8048 |
|      99 | 0x0064      |         100 |
|     100 | 0x1F71      |        8049 |
|     101 | 0x1F72      |        8050 |
|     102 | 0x0655      |        1621 |
|     103 | 0x1F73      |        8051 |
|     104 | 0x1F74      |        8052 |
|     105 | 0x0800      |        2048 |
|     106 | 0x1F75      |        8053 |
|     107 | 0x1F76      |        8054 |
|     108 | 0x1F77      |        8055 |
|     109 | 0x1F78      |        8056 |
|     110 | 0x1F79      |        8057 |
|     111 | 0x1F7A      |        8058 |
|     112 | 0x002D      |          45 |
|     113 | 0x0078      |         120 |
|     114 | 0x00DD      |         221 |
|     115 | 0x0073      |         115 |
|     116 | 0x00DA      |         218 |
|     117 | 0x0258      |         600 |
|     118 | 0x1F7B      |        8059 |
|     119 | 0x1F7C      |        8060 |
|     120 | 0x1F7D      |        8061 |
|     121 | 0x1F7E      |        8062 |
|     122 | 0x1F7F      |        8063 |
|     123 | 0x1F80      |        8064 |
|     124 | 0xFFFDDB63  |  4294826851 |
|     125 | 0x2612E     |      155950 |
|     126 | 0x0ADE      |        2782 |
|     127 | 0x0027      |          39 |
|     128 | 0x1F83      |        8067 |
|     129 | 0x000F      |          15 |
|     130 | 0x1F84      |        8068 |
|     131 | 0xFFFDD9A7  |  4294826407 |
|     132 | 0x25F1F     |      155423 |
|     133 | 0x047A      |        1146 |
|     134 | 0x00B4      |         180 |
|     135 | 0x1F85      |        8069 |
|     136 | 0x1F86      |        8070 |
|     137 | 0x00D7      |         215 |
|     138 | 0x1F87      |        8071 |
|     139 | 0x1F88      |        8072 |
|     140 | 0x1F89      |        8073 |
|     141 | 0x1F8A      |        8074 |
|     142 | 0x1F8B      |        8075 |
|     143 | 0x1F8C      |        8076 |
|     144 | 0x1F8D      |        8077 |
|     145 | 0x1F8E      |        8078 |
|     146 | 0x1F8F      |        8079 |
|     147 | 0x1F90      |        8080 |
|     148 | 0x1F91      |        8081 |
|     149 | 0x1F92      |        8082 |
|     150 | 0x0014      |          20 |
|     151 | 0x0D8C      |        3468 |
|     152 | 0x1F93      |        8083 |
|     153 | 0x1F94      |        8084 |
|     154 | 0x1F95      |        8085 |
|     155 | 0x1F96      |        8086 |
|     156 | 0x1F97      |        8087 |
|     157 | 0x00D8      |         216 |
|     158 | 0x1F98      |        8088 |
|     159 | 0x1F99      |        8089 |
|     160 | 0x1F9A      |        8090 |
|     161 | 0x1F9B      |        8091 |
|     162 | 0x1F9C      |        8092 |
|     163 | 0x1F9D      |        8093 |
|     164 | 0x01F5      |         501 |
|     165 | 0x0096      |         150 |
|     166 | 0x1F9E      |        8094 |
|     167 | 0x1F9F      |        8095 |
|     168 | 0x1FA0      |        8096 |
|     169 | 0x1FA1      |        8097 |
|     170 | 0x1FA2      |        8098 |
|     171 | 0x1FA3      |        8099 |
|     172 | 0x1FA4      |        8100 |
|     173 | 0x1FA5      |        8101 |
|     174 | 0x1FA6      |        8102 |
|     175 | 0x1FA8      |        8104 |
|     176 | 0x1FA9      |        8105 |
|     177 | 0x1FAA      |        8106 |
|     178 | 0x1FAB      |        8107 |
|     179 | 0x1FAC      |        8108 |
|     180 | 0x1FAD      |        8109 |
|     181 | 0x073A      |        1850 |
|     182 | 0x1FAE      |        8110 |
|     183 | 0x1FAF      |        8111 |
|     184 | 0x26C5E     |      158814 |
|     185 | 0xFFFF1B42  |  4294908738 |
|     186 | 0x062B      |        1579 |
|     187 | 0x032B      |         811 |
|     188 | 0x002B      |          43 |
|     189 | 0x042B      |        1067 |
|     190 | 0x012B      |         299 |
|     191 | 0x052B      |        1323 |
|     192 | 0x022B      |         555 |
|     193 | 0xFFF8DD74  |  4294499700 |
|     194 | 0x3F93      |       16275 |
|     195 | 0x0005      |           5 |
|     196 | 0x0002      |           2 |
|     197 | 0x0009      |           9 |
|     198 | 0x0046      |          70 |
|     199 | 0x008C      |         140 |
|     200 | 0x00D2      |         210 |

## String References

- **8046**: Your grade in Movalpolos geography: [A+./F-.]
- **8052**: What do you say? Will you help? [Of course!/On second thought...]

## Events

### Event 65535

#### Metadata

| Field        | Value   |
|--------------|---------|
| Entrypoint   | 0x0000  |
| Data Size    | 1 bytes |
| Instructions | 1       |

```
      00 01 02 03 04 05 06 07  08 09 0A 0B 0C 0D 0E 0F
      -- -- -- -- -- -- -- --  -- -- -- -- -- -- -- --
0000: 00                                                .               
```

#### Opcodes

```
  0: 0x0000 [0x00] END_REQSTACK()
```

### Event 65534

#### Metadata

| Field        | Value   |
|--------------|---------|
| Entrypoint   | 0x0001  |
| Data Size    | 1 bytes |
| Instructions | 1       |

```
      00 01 02 03 04 05 06 07  08 09 0A 0B 0C 0D 0E 0F
      -- -- -- -- -- -- -- --  -- -- -- -- -- -- -- --
0000:    00                                              .              
```

#### Opcodes

```
  0: 0x0001 [0x00] END_REQSTACK()
```

### Event 65535.1

#### Metadata

| Field        | Value    |
|--------------|----------|
| Entrypoint   | 0x0002   |
| Data Size    | 10 bytes |
| Instructions | 2        |

```
      00 01 02 03 04 05 06 07  08 09 0A 0B 0C 0D 0E 0F
      -- -- -- -- -- -- -- --  -- -- -- -- -- -- -- --
0000:       37 00 80 01 80 02  80 03 80 00                7.........    
```

#### Opcodes

```
  0: 0x0002 [0x37] UPDATE_EVENT_POSITION_AND_DIR: x=-260.048*, z=-59.502*, y=8.011*, direction=267.1°*
  1: 0x000B [0x00] END_REQSTACK()
```

### Event 65535.2

#### Metadata

| Field        | Value    |
|--------------|----------|
| Entrypoint   | 0x000C   |
| Data Size    | 15 bytes |
| Instructions | 5        |

```
      00 01 02 03 04 05 06 07  08 09 0A 0B 0C 0D 0E 0F
      -- -- -- -- -- -- -- --  -- -- -- -- -- -- -- --
0000:                                      32 04 80 1F              2...
0010: 00 05 80 06 80 07 80 1F  01 6F 00                 .........o.     
```

#### Opcodes

```
  0: 0x000C [0x32] ExtData[1]->MainSpeed = 13* * 0.1
  1: 0x000F [0x1F] MOVE_ENTITY: EventEntity moves to X=-259.899*, Z=-54.809*, Y=8.000*
  2: 0x0017 [0x1F] MOVE_ENTITY: Update entity position (mode=1)
  3: 0x0019 [0x6F] WAIT_FRAME_DELAY: Yield until WaitTime reaches zero
  4: 0x001A [0x00] END_REQSTACK()
```

### Event 65535.3

#### Metadata

| Field        | Value    |
|--------------|----------|
| Entrypoint   | 0x001B   |
| Data Size    | 10 bytes |
| Instructions | 2        |

```
      00 01 02 03 04 05 06 07  08 09 0A 0B 0C 0D 0E 0F
      -- -- -- -- -- -- -- --  -- -- -- -- -- -- -- --
0010:                                   37 08 80 09 80             7....
0020: 0A 80 0B 80 00                                    .....           
```

#### Opcodes

```
  0: 0x001B [0x37] UPDATE_EVENT_POSITION_AND_DIR: x=-260.349*, z=-48.459*, y=7.999*, direction=243.2°*
  1: 0x0024 [0x00] END_REQSTACK()
```

### Event 65535.4

#### Metadata

| Field        | Value   |
|--------------|---------|
| Entrypoint   | 0x0025  |
| Data Size    | 6 bytes |
| Instructions | 2       |

```
      00 01 02 03 04 05 06 07  08 09 0A 0B 0C 0D 0E 0F
      -- -- -- -- -- -- -- --  -- -- -- -- -- -- -- --
0020:                03 02 10  0B 7F 00                      ......     
```

#### Opcodes

```
  0: 0x0025 [0x03] Work_Zone[2] = (Entity->Render.Flags01 >> 25) & 1
  1: 0x002A [0x00] END_REQSTACK()
```

### Event 65535.5

#### Metadata

| Field        | Value   |
|--------------|---------|
| Entrypoint   | 0x002B  |
| Data Size    | 6 bytes |
| Instructions | 2       |

```
      00 01 02 03 04 05 06 07  08 09 0A 0B 0C 0D 0E 0F
      -- -- -- -- -- -- -- --  -- -- -- -- -- -- -- --
0020:                                   03 09 10 07 7F             .....
0030: 00                                                .               
```

#### Opcodes

```
  0: 0x002B [0x03] Work_Zone[9] = Entity->Race
  1: 0x0030 [0x00] END_REQSTACK()
```

### Event 65535.6

#### Metadata

| Field        | Value   |
|--------------|---------|
| Entrypoint   | 0x0031  |
| Data Size    | 6 bytes |
| Instructions | 2       |

```
      00 01 02 03 04 05 06 07  08 09 0A 0B 0C 0D 0E 0F
      -- -- -- -- -- -- -- --  -- -- -- -- -- -- -- --
0030:    03 02 10 06 7F 00                               ......         
```

#### Opcodes

```
  0: 0x0031 [0x03] Work_Zone[2] = Entity->JobId (if LocalPlayer)
  1: 0x0036 [0x00] END_REQSTACK()
```

### Event 65535.7

#### Metadata

| Field        | Value    |
|--------------|----------|
| Entrypoint   | 0x0037   |
| Data Size    | 10 bytes |
| Instructions | 2        |

```
      00 01 02 03 04 05 06 07  08 09 0A 0B 0C 0D 0E 0F
      -- -- -- -- -- -- -- --  -- -- -- -- -- -- -- --
0030:                      37  0C 80 0D 80 0E 80 0F 80         7........
0040: 00                                                .               
```

#### Opcodes

```
  0: 0x0037 [0x37] UPDATE_EVENT_POSITION_AND_DIR: x=159.847*, z=-40.618*, y=13.980*, direction=180.3°*
  1: 0x0040 [0x00] END_REQSTACK()
```

### Event 65535.8

#### Metadata

| Field        | Value    |
|--------------|----------|
| Entrypoint   | 0x0041   |
| Data Size    | 10 bytes |
| Instructions | 2        |

```
      00 01 02 03 04 05 06 07  08 09 0A 0B 0C 0D 0E 0F
      -- -- -- -- -- -- -- --  -- -- -- -- -- -- -- --
0040:    37 10 80 11 80 12 80  13 80 00                  7.........     
```

#### Opcodes

```
  0: 0x0041 [0x37] UPDATE_EVENT_POSITION_AND_DIR: x=-340.113*, z=417.079*, y=-7.999*, direction=89.0°*
  1: 0x004A [0x00] END_REQSTACK()
```

### Event 65535.9

#### Metadata

| Field        | Value    |
|--------------|----------|
| Entrypoint   | 0x004B   |
| Data Size    | 15 bytes |
| Instructions | 5        |

```
      00 01 02 03 04 05 06 07  08 09 0A 0B 0C 0D 0E 0F
      -- -- -- -- -- -- -- --  -- -- -- -- -- -- -- --
0040:                                   32 04 80 1F 00             2....
0050: 14 80 15 80 16 80 1F 01  6F 00                    ........o.      
```

#### Opcodes

```
  0: 0x004B [0x32] ExtData[1]->MainSpeed = 13* * 0.1
  1: 0x004E [0x1F] MOVE_ENTITY: EventEntity moves to X=-340.086*, Z=414.475*, Y=-8.007*
  2: 0x0056 [0x1F] MOVE_ENTITY: Update entity position (mode=1)
  3: 0x0058 [0x6F] WAIT_FRAME_DELAY: Yield until WaitTime reaches zero
  4: 0x0059 [0x00] END_REQSTACK()
```

### Event 65535.10

#### Metadata

| Field        | Value    |
|--------------|----------|
| Entrypoint   | 0x005A   |
| Data Size    | 10 bytes |
| Instructions | 2        |

```
      00 01 02 03 04 05 06 07  08 09 0A 0B 0C 0D 0E 0F
      -- -- -- -- -- -- -- --  -- -- -- -- -- -- -- --
0050:                                37 17 80 18 80 19            7.....
0060: 80 1A 80 00                                       ....            
```

#### Opcodes

```
  0: 0x005A [0x37] UPDATE_EVENT_POSITION_AND_DIR: x=-339.289*, z=420.790*, y=-7.988*, direction=106.5°*
  1: 0x0063 [0x00] END_REQSTACK()
```

### Event 65535.11

#### Metadata

| Field        | Value    |
|--------------|----------|
| Entrypoint   | 0x0064   |
| Data Size    | 10 bytes |
| Instructions | 2        |

```
      00 01 02 03 04 05 06 07  08 09 0A 0B 0C 0D 0E 0F
      -- -- -- -- -- -- -- --  -- -- -- -- -- -- -- --
0060:             37 1B 80 1C  80 1D 80 1E 80 00            7.........  
```

#### Opcodes

```
  0: 0x0064 [0x37] UPDATE_EVENT_POSITION_AND_DIR: x=160.629*, z=-59.013*, y=11.999*, direction=273.2°*
  1: 0x006D [0x00] END_REQSTACK()
```

### Event 65535.12

#### Metadata

| Field        | Value   |
|--------------|---------|
| Entrypoint   | 0x006E  |
| Data Size    | 1 bytes |
| Instructions | 1       |

```
      00 01 02 03 04 05 06 07  08 09 0A 0B 0C 0D 0E 0F
      -- -- -- -- -- -- -- --  -- -- -- -- -- -- -- --
0060:                                            00                   . 
```

#### Opcodes

```
  0: 0x006E [0x00] END_REQSTACK()
```

### Event 65535.13

#### Metadata

| Field        | Value    |
|--------------|----------|
| Entrypoint   | 0x006F   |
| Data Size    | 10 bytes |
| Instructions | 2        |

```
      00 01 02 03 04 05 06 07  08 09 0A 0B 0C 0D 0E 0F
      -- -- -- -- -- -- -- --  -- -- -- -- -- -- -- --
0060:                                               37                 7
0070: 1F 80 20 80 21 80 22 80  00                       .. .!."..       
```

#### Opcodes

```
  0: 0x006F [0x37] UPDATE_EVENT_POSITION_AND_DIR: x=-65.634*, z=-119.042*, y=22.834*, direction=273.7°*
  1: 0x0078 [0x00] END_REQSTACK()
```

### Event 65535.14

#### Metadata

| Field        | Value    |
|--------------|----------|
| Entrypoint   | 0x0079   |
| Data Size    | 10 bytes |
| Instructions | 2        |

```
      00 01 02 03 04 05 06 07  08 09 0A 0B 0C 0D 0E 0F
      -- -- -- -- -- -- -- --  -- -- -- -- -- -- -- --
0070:                             37 23 80 24 80 21 80           7#.$.!.
0080: 25 80 00                                          %..             
```

#### Opcodes

```
  0: 0x0079 [0x37] UPDATE_EVENT_POSITION_AND_DIR: x=-67.139*, z=-117.434*, y=22.834*, direction=0.9°*
  1: 0x0082 [0x00] END_REQSTACK()
```

### Event 65535.15

#### Metadata

| Field        | Value    |
|--------------|----------|
| Entrypoint   | 0x0083   |
| Data Size    | 10 bytes |
| Instructions | 2        |

```
      00 01 02 03 04 05 06 07  08 09 0A 0B 0C 0D 0E 0F
      -- -- -- -- -- -- -- --  -- -- -- -- -- -- -- --
0080:          37 26 80 27 80  21 80 28 80 00              7&.'.!.(..   
```

#### Opcodes

```
  0: 0x0083 [0x37] UPDATE_EVENT_POSITION_AND_DIR: x=-66.304*, z=-118.779*, y=22.834*, direction=197.5°*
  1: 0x008C [0x00] END_REQSTACK()
```

### Event 65535.16

#### Metadata

| Field        | Value    |
|--------------|----------|
| Entrypoint   | 0x008D   |
| Data Size    | 20 bytes |
| Instructions | 3        |

```
      00 01 02 03 04 05 06 07  08 09 0A 0B 0C 0D 0E 0F
      -- -- -- -- -- -- -- --  -- -- -- -- -- -- -- --
0080:                                         79 00 F0               y..
0090: FF FF 7F 09 B1 00 01 37  29 80 2A 80 2B 80 2C 80  .......7).*.+.,.
00A0: 00                                                .               
```

#### Opcodes

```
  0: 0x008D [0x79] LocalPlayer looks at Chekochuk (ID: 16822537/0x0100B109) (Basic look)
  1: 0x0097 [0x37] UPDATE_EVENT_POSITION_AND_DIR: x=-285.864*, z=-99.668*, y=-0.449*, direction=7.7°*
  2: 0x00A0 [0x00] END_REQSTACK()
```

### Event 65535.17

#### Metadata

| Field        | Value    |
|--------------|----------|
| Entrypoint   | 0x00A1   |
| Data Size    | 14 bytes |
| Instructions | 4        |

```
      00 01 02 03 04 05 06 07  08 09 0A 0B 0C 0D 0E 0F
      -- -- -- -- -- -- -- --  -- -- -- -- -- -- -- --
00A0:    32 04 80 1F 00 2D 80  2E 80 2F 80 1F 01 00      2....-.../.... 
```

#### Opcodes

```
  0: 0x00A1 [0x32] ExtData[1]->MainSpeed = 13* * 0.1
  1: 0x00A4 [0x1F] MOVE_ENTITY: EventEntity moves to X=-282.900*, Z=-99.902*, Y=-0.009*
  2: 0x00AC [0x1F] MOVE_ENTITY: Update entity position (mode=1)
  3: 0x00AE [0x00] END_REQSTACK()
```

### Event 65535.18

#### Metadata

| Field        | Value    |
|--------------|----------|
| Entrypoint   | 0x00AF   |
| Data Size    | 14 bytes |
| Instructions | 4        |

```
      00 01 02 03 04 05 06 07  08 09 0A 0B 0C 0D 0E 0F
      -- -- -- -- -- -- -- --  -- -- -- -- -- -- -- --
00A0:                                               32                 2
00B0: 04 80 1F 00 30 80 31 80  32 80 1F 01 00           ....0.1.2....   
```

#### Opcodes

```
  0: 0x00AF [0x32] ExtData[1]->MainSpeed = 13* * 0.1
  1: 0x00B2 [0x1F] MOVE_ENTITY: EventEntity moves to X=-279.602*, Z=-99.985*, Y=0.124*
  2: 0x00BA [0x1F] MOVE_ENTITY: Update entity position (mode=1)
  3: 0x00BC [0x00] END_REQSTACK()
```

### Event 65535.19

#### Metadata

| Field        | Value    |
|--------------|----------|
| Entrypoint   | 0x00BD   |
| Data Size    | 20 bytes |
| Instructions | 3        |

```
      00 01 02 03 04 05 06 07  08 09 0A 0B 0C 0D 0E 0F
      -- -- -- -- -- -- -- --  -- -- -- -- -- -- -- --
00B0:                                         79 00 F0               y..
00C0: FF FF 7F 08 B1 00 01 37  33 80 34 80 35 80 36 80  .......73.4.5.6.
00D0: 00                                                .               
```

#### Opcodes

```
  0: 0x00BD [0x79] LocalPlayer looks at Jabbos (ID: 16822536/0x0100B108) (Basic look)
  1: 0x00C7 [0x37] UPDATE_EVENT_POSITION_AND_DIR: x=-475.536*, z=34.879*, y=121.062*, direction=222.6°*
  2: 0x00D0 [0x00] END_REQSTACK()
```

### Event 65535.20

#### Metadata

| Field        | Value    |
|--------------|----------|
| Entrypoint   | 0x00D1   |
| Data Size    | 22 bytes |
| Instructions | 4        |

```
      00 01 02 03 04 05 06 07  08 09 0A 0B 0C 0D 0E 0F
      -- -- -- -- -- -- -- --  -- -- -- -- -- -- -- --
00D0:    33 00 79 00 F0 FF FF  7F 08 B1 00 01 37 37 80   3.y.........77.
00E0: 38 80 39 80 3A 80 00                              8.9.:..         
```

#### Opcodes

```
  0: 0x00D1 [0x33] EventEntity->Render.Flags0 &= ~ 0x200000 // Bit 21 (flag=0x00)
  1: 0x00D3 [0x79] LocalPlayer looks at Jabbos (ID: 16822536/0x0100B108) (Basic look)
  2: 0x00DD [0x37] UPDATE_EVENT_POSITION_AND_DIR: x=-468.076*, z=30.227*, y=121.999*, direction=153.8°*
  3: 0x00E6 [0x00] END_REQSTACK()
```

### Event 65535.21

#### Metadata

| Field        | Value    |
|--------------|----------|
| Entrypoint   | 0x00E7   |
| Data Size    | 17 bytes |
| Instructions | 6        |

```
      00 01 02 03 04 05 06 07  08 09 0A 0B 0C 0D 0E 0F
      -- -- -- -- -- -- -- --  -- -- -- -- -- -- -- --
00E0:                      33  01 32 04 80 1F 00 3B 80         3.2....;.
00F0: 3C 80 35 80 1F 01 6F 00                           <.5...o.        
```

#### Opcodes

```
  0: 0x00E7 [0x33] EventEntity->Render.Flags0 |= 0x200000 // Bit 21 (flag=0x01)
  1: 0x00E9 [0x32] ExtData[1]->MainSpeed = 13* * 0.1
  2: 0x00EC [0x1F] MOVE_ENTITY: EventEntity moves to X=-476.036*, Z=35.379*, Y=121.062*
  3: 0x00F4 [0x1F] MOVE_ENTITY: Update entity position (mode=1)
  4: 0x00F6 [0x6F] WAIT_FRAME_DELAY: Yield until WaitTime reaches zero
  5: 0x00F7 [0x00] END_REQSTACK()
```

### Event 65535.22

#### Metadata

| Field        | Value    |
|--------------|----------|
| Entrypoint   | 0x00F8   |
| Data Size    | 12 bytes |
| Instructions | 3        |

```
      00 01 02 03 04 05 06 07  08 09 0A 0B 0C 0D 0E 0F
      -- -- -- -- -- -- -- --  -- -- -- -- -- -- -- --
00F0:                          33 00 37 3D 80 3E 80 3F          3.7=.>.?
0100: 80 40 80 00                                       .@..            
```

#### Opcodes

```
  0: 0x00F8 [0x33] EventEntity->Render.Flags0 &= ~ 0x200000 // Bit 21 (flag=0x00)
  1: 0x00FA [0x37] UPDATE_EVENT_POSITION_AND_DIR: x=-275.542*, z=-100.632*, y=0.668*, direction=207.0°*
  2: 0x0103 [0x00] END_REQSTACK()
```

### Event 65535.23

#### Metadata

| Field        | Value    |
|--------------|----------|
| Entrypoint   | 0x0104   |
| Data Size    | 14 bytes |
| Instructions | 4        |

```
      00 01 02 03 04 05 06 07  08 09 0A 0B 0C 0D 0E 0F
      -- -- -- -- -- -- -- --  -- -- -- -- -- -- -- --
0100:             32 04 80 1F  00 41 80 42 80 32 80 1F      2....A.B.2..
0110: 01 00                                             ..              
```

#### Opcodes

```
  0: 0x0104 [0x32] ExtData[1]->MainSpeed = 13* * 0.1
  1: 0x0107 [0x1F] MOVE_ENTITY: EventEntity moves to X=-278.893*, Z=-100.703*, Y=0.124*
  2: 0x010F [0x1F] MOVE_ENTITY: Update entity position (mode=1)
  3: 0x0111 [0x00] END_REQSTACK()
```

### Event 60

#### Metadata

| Field        | Value      |
|--------------|------------|
| Entrypoint   | 0x0112     |
| Data Size    | 1158 bytes |
| Instructions | 138        |

```
      00 01 02 03 04 05 06 07  08 09 0A 0B 0C 0D 0E 0F
      -- -- -- -- -- -- -- --  -- -- -- -- -- -- -- --
0110:       42 46 01 5D 43 80  44 80 45 45 80 F0 FF FF    BF.]C.D.EE....
0120: 7F F0 FF FF 7F 66 64 6F  31 43 80 55 45 80 F0 FF  .....fdo1C.UE...
0130: FF 7F F0 FF FF 7F 66 64  6F 31 38 46 80 37 47 80  ......fdo18F.7G.
0140: 48 80 49 80 4A 80 22 00  4E 00 12 B1 00 01 45 4B  H.I.J.".N.....EK
0150: 80 F0 FF FF 7F F0 FF FF  7F 73 30 38 33 43 80 45  .........s083C.E
0160: 45 80 F0 FF FF 7F F0 FF  FF 7F 66 64 69 31 43 80  E.........fdi1C.
0170: 32 04 80 1F 00 4C 80 4D  80 4E 80 1F 01 55 4B 80  2....L.M.N...UK.
0180: F0 FF FF 7F F0 FF FF 7F  73 30 38 33 45 45 80 F0  ........s083EE..
0190: FF FF 7F F0 FF FF 7F 62  6C 6F 6E 43 80 45 4F 80  .......blonC.EO.
01A0: F0 FF FF 7F F0 FF FF 7F  62 6C 6F 6E 43 80 45 4B  ........blonC.EK
01B0: 80 F0 FF FF 7F F0 FF FF  7F 73 30 38 34 43 80 6B  .........s084C.k
01C0: 62 74 6C 30 12 B1 00 01  55 4B 80 F0 FF FF 7F F0  btl0....UK......
01D0: FF FF 7F 73 30 38 34 2B  12 B1 00 01 50 80 1C 51  ...s084+....P..Q
01E0: 80 45 45 80 F0 FF FF 7F  F0 FF FF 7F 62 6C 6F 66  .EE.........blof
01F0: 43 80 23 2B 12 B1 00 01  52 80 23 45 45 80 F0 FF  C.#+....R.#EE...
0200: FF 7F F0 FF FF 7F 6F 76  6C 31 43 80 45 4B 80 F0  ......ovl1C.EK..
0210: FF FF 7F F0 FF FF 7F 73  30 38 35 43 80 1C 53 80  .......s085C..S.
0220: 5C 00 54 80 5C 01 54 80  2B 12 B1 00 01 55 80 23  \.T.\.T.+....U.#
0230: 6B 69 64 6C 30 12 B1 00  01 2B 12 B1 00 01 56 80  kidl0....+....V.
0240: 23 52 4B 80 F0 FF FF 7F  F0 FF FF 7F 73 30 38 35  #RK.........s085
0250: 45 4B 80 F0 FF FF 7F F0  FF FF 7F 73 30 38 36 43  EK.........s086C
0260: 80 5B 57 80 12 B1 00 01  12 B1 00 01 74 6C 6B 30  .[W.........tlk0
0270: 2B 12 B1 00 01 58 80 23  5B 57 80 12 B1 00 01 12  +....X.#[W......
0280: B1 00 01 74 6C 6B 31 2B  12 B1 00 01 59 80 23 45  ...tlk1+....Y.#E
0290: 45 80 F0 FF FF 7F F0 FF  FF 7F 6F 76 6C 31 43 80  E.........ovl1C.
02A0: 52 4B 80 F0 FF FF 7F F0  FF FF 7F 73 30 38 36 45  RK.........s086E
02B0: 4B 80 F0 FF FF 7F F0 FF  FF 7F 73 30 38 37 43 80  K.........s087C.
02C0: 2B 12 B1 00 01 5A 80 23  5B 57 80 12 B1 00 01 12  +....Z.#[W......
02D0: B1 00 01 74 6C 6B 30 2B  12 B1 00 01 5B 80 23 5B  ...tlk0+....[.#[
02E0: 57 80 12 B1 00 01 12 B1  00 01 74 6C 6B 31 2B 12  W.........tlk1+.
02F0: B1 00 01 5C 80 23 45 45  80 F0 FF FF 7F F0 FF FF  ...\.#EE........
0300: 7F 6F 76 6C 31 43 80 52  4B 80 F0 FF FF 7F F0 FF  .ovl1C.RK.......
0310: FF 7F 73 30 38 37 45 4B  80 F0 FF FF 7F F0 FF FF  ..s087EK........
0320: 7F 73 30 38 38 43 80 5B  57 80 12 B1 00 01 12 B1  .s088C.[W.......
0330: 00 01 74 6C 6B 30 2B 12  B1 00 01 5D 80 23 5B 57  ..tlk0+....].#[W
0340: 80 12 B1 00 01 12 B1 00  01 74 6C 6B 31 2B 12 B1  .........tlk1+..
0350: 00 01 5E 80 23 24 5F 80  43 80 43 80 25 02 00 10  ..^.#$_.C.C.%...
0360: 60 80 00 A3 03 52 4B 80  F0 FF FF 7F F0 FF FF 7F  `....RK.........
0370: 73 30 38 38 45 4B 80 F0  FF FF 7F F0 FF FF 7F 73  s088EK.........s
0380: 30 38 39 43 80 27 0A 12  B1 00 01 02 2B 12 B1 00  089C.'......+...
0390: 01 61 80 23 2A 0A 12 B1  00 01 05 01 10 01 12 05  .a.#*...........
03A0: 01 A3 03 52 4B 80 F0 FF  FF 7F F0 FF FF 7F 73 30  ...RK.........s0
03B0: 38 38 45 4B 80 F0 FF FF  7F F0 FF FF 7F 73 30 38  88EK.........s08
03C0: 39 43 80 27 0A 12 B1 00  01 02 2B 12 B1 00 01 62  9C.'......+....b
03D0: 80 1C 63 80 1E 12 B1 00  01 23 2B 12 B1 00 01 64  ..c......#+....d
03E0: 80 23 2A 0A 12 B1 00 01  5B 57 80 12 B1 00 01 12  .#*.....[W......
03F0: B1 00 01 74 6C 6B 30 2B  12 B1 00 01 65 80 23 5B  ...tlk0+....e.#[
0400: 57 80 12 B1 00 01 12 B1  00 01 74 6C 6B 31 52 4B  W.........tlk1RK
0410: 80 F0 FF FF 7F F0 FF FF  7F 73 30 38 39 45 4B 80  .........s089EK.
0420: F0 FF FF 7F F0 FF FF 7F  73 30 39 30 43 80 4B 12  ........s090C.K.
0430: B1 00 01 66 80 2B 12 B1  00 01 67 80 23 24 68 80  ...f.+....g.#$h.
0440: 43 80 43 80 25 02 00 10  60 80 00 65 04 4B 12 B1  C.C.%...`..e.K..
0450: 00 01 69 80 2B 12 B1 00  01 6A 80 23 05 01 10 01  ..i.+....j.#....
0460: 12 05 01 65 04 52 4B 80  F0 FF FF 7F F0 FF FF 7F  ...e.RK.........
0470: 73 30 39 30 45 4B 80 F0  FF FF 7F F0 FF FF 7F 73  s090EK.........s
0480: 30 39 31 43 80 4A 12 B1  00 01 F0 FF FF 7F 2B 12  091C.J........+.
0490: B1 00 01 6B 80 23 5B 57  80 12 B1 00 01 12 B1 00  ...k.#[W........
04A0: 01 74 6C 6B 30 2B 12 B1  00 01 6C 80 23 5B 57 80  .tlk0+....l.#[W.
04B0: 12 B1 00 01 12 B1 00 01  74 6C 6B 31 2B 12 B1 00  ........tlk1+...
04C0: 01 6D 80 23 52 4B 80 F0  FF FF 7F F0 FF FF 7F 73  .m.#RK.........s
04D0: 30 39 31 45 4B 80 F0 FF  FF 7F F0 FF FF 7F 73 30  091EK.........s0
04E0: 39 32 43 80 5B 57 80 12  B1 00 01 12 B1 00 01 74  92C.[W.........t
04F0: 6C 6B 30 2B 12 B1 00 01  6E 80 23 5B 57 80 12 B1  lk0+....n.#[W...
0500: 00 01 12 B1 00 01 74 6C  6B 31 2B 12 B1 00 01 6F  ......tlk1+....o
0510: 80 23 27 0A 12 B1 00 01  03 1C 70 80 1E 12 B1 00  .#'.......p.....
0520: 01 5D 43 80 71 80 45 45  80 F0 FF FF 7F F0 FF FF  .]C.q.EE........
0530: 7F 66 64 6F 32 43 80 55  45 80 F0 FF FF 7F F0 FF  .fdo2C.UE.......
0540: FF 7F 66 64 6F 32 52 4B  80 F0 FF FF 7F F0 FF FF  ..fdo2RK........
0550: 7F 73 30 38 39 52 4B 80  F0 FF FF 7F F0 FF FF 7F  .s089RK.........
0560: 73 30 39 30 52 4B 80 F0  FF FF 7F F0 FF FF 7F 73  s090RK.........s
0570: 30 39 32 46 00 5C 00 72  80 5C 01 72 80 5C 02 73  092F.\.r.\.r.\.s
0580: 80 5C 03 74 80 45 45 80  F0 FF FF 7F F0 FF FF 7F  .\.t.EE.........
0590: 66 64 69 31 43 80 21 00                           fdi1C.!.        
```

#### Opcodes

```
  0: 0x0112 [0x42] SET_CLI_EVENT_CANCEL_DATA()
  1: 0x0113 [0x46] CAMERA_CONTROL: Disable user control
  2: 0x0115 [0x5D] SET_MUSIC_VOLUME(volume=0*, fade_time=60*)
  3: 0x011A [0x45] LOAD_SCHEDULED_TASK: Load scheduler "fdo1" with entities [LocalPlayer, LocalPlayer], work=[200*, 0*]
  4: 0x012B [0x55] WAIT_LOAD_SCHEDULER: Wait for scheduler "fdo1" with entities [LocalPlayer, LocalPlayer], work=200*
  5: 0x013A [0x38] SET_CLIENT_EVENT_MODE(mode=19*)
  6: 0x013D [0x37] UPDATE_EVENT_POSITION_AND_DIR: x=-321.786*, z=-261.063*, y=8.103*, direction=355.9°*
  7: 0x0146 [0x22] ENTITY_HIDE_FLAG(enabled=0x00)
  8: 0x0148 [0x4E] SET_ENTITY_HIDE_FLAG: Show Gu'Zho Thunderblade (ID: 16822546/0x0100B112)
  9: 0x014E [0x45] LOAD_SCHEDULED_TASK: Load scheduler "s083" with entities [LocalPlayer, LocalPlayer], work=[162*, 0*]
 10: 0x015F [0x45] LOAD_SCHEDULED_TASK: Load scheduler "fdi1" with entities [LocalPlayer, LocalPlayer], work=[200*, 0*]
 11: 0x0170 [0x32] ExtData[1]->MainSpeed = 13* * 0.1
 12: 0x0173 [0x1F] MOVE_ENTITY: EventEntity moves to X=-319.709*, Z=-261.002*, Y=8.118*
 13: 0x017B [0x1F] MOVE_ENTITY: Update entity position (mode=1)
 14: 0x017D [0x55] WAIT_LOAD_SCHEDULER: Wait for scheduler "s083" with entities [LocalPlayer, LocalPlayer], work=162*
 15: 0x018C [0x45] LOAD_SCHEDULED_TASK: Load scheduler "blon" with entities [LocalPlayer, LocalPlayer], work=[200*, 0*]
 16: 0x019D [0x45] LOAD_SCHEDULED_TASK: Load scheduler "blon" with entities [LocalPlayer, LocalPlayer], work=[201*, 0*]
 17: 0x01AE [0x45] LOAD_SCHEDULED_TASK: Load scheduler "s084" with entities [LocalPlayer, LocalPlayer], work=[162*, 0*]
 18: 0x01BF [0x6B] STOP_AND_IDLE: Gu'Zho Thunderblade (ID: 16822546/0x0100B112) stops current action and resets to idle (animation="btl0")
 19: 0x01C8 [0x55] WAIT_LOAD_SCHEDULER: Wait for scheduler "s084" with entities [LocalPlayer, LocalPlayer], work=162*
 20: 0x01D7 [0x2B] Gu'Zho Thunderblade (ID: 16822546/0x0100B112) [8035*]:
    → "Rwarrr! Sho-ow yourself! I know you're the-ere. Dra-aw your weapon and face your fate like a true wa-arrior!"
 21: 0x01DE [0x1C] WAIT(30* ticks)
 22: 0x01E1 [0x45] LOAD_SCHEDULED_TASK: Load scheduler "blof" with entities [LocalPlayer, LocalPlayer], work=[200*, 0*]
 23: 0x01F2 [0x23] WAIT_FOR_DIALOG_INTERACTION
 24: 0x01F3 [0x2B] Gu'Zho Thunderblade (ID: 16822546/0x0100B112) [8036*]:
    → "Insigni-aficant flea, prepare to hear the ro-oar of Gu'Zho Thunderblade!!!"
 25: 0x01FA [0x23] WAIT_FOR_DIALOG_INTERACTION
 26: 0x01FB [0x45] LOAD_SCHEDULED_TASK: Load scheduler "ovl1" with entities [LocalPlayer, LocalPlayer], work=[200*, 0*]
 27: 0x020C [0x45] LOAD_SCHEDULED_TASK: Load scheduler "s085" with entities [LocalPlayer, LocalPlayer], work=[162*, 0*]
 28: 0x021D [0x1C] WAIT(90* ticks)
 29: 0x0220 [0x5C] MUSIC_CONTROL: Set Idle (Day) music to song 163*
 30: 0x0224 [0x5C] MUSIC_CONTROL: Set Idle (Night) music to song 163*
 31: 0x0228 [0x2B] Gu'Zho Thunderblade (ID: 16822546/0x0100B112) [8037*]:
    → "Wait! Don't run away. I was only pla-aying with you."
 32: 0x022F [0x23] WAIT_FOR_DIALOG_INTERACTION
 33: 0x0230 [0x6B] STOP_AND_IDLE: Gu'Zho Thunderblade (ID: 16822546/0x0100B112) stops current action and resets to idle (animation="idl0")
 34: 0x0239 [0x2B] Gu'Zho Thunderblade (ID: 16822546/0x0100B112) [8038*]:
    → "I couldn't fi-ight you on any empty stomach like thi-is anyway. Grahahaw!"
 35: 0x0240 [0x23] WAIT_FOR_DIALOG_INTERACTION
 36: 0x0241 [0x52] END_LOAD_SCHEDULER: End scheduler "s085" with entities [LocalPlayer, LocalPlayer], work=162*
 37: 0x0250 [0x45] LOAD_SCHEDULED_TASK: Load scheduler "s086" with entities [LocalPlayer, LocalPlayer], work=[162*, 0*]
 38: 0x0261 [0x5B] LOAD_EXT_SCHEDULER: Load scheduler "tlk0" with entities [Gu'Zho Thunderblade (ID: 16822546/0x0100B112), Gu'Zho Thunderblade (ID: 16822546/0x0100B112)], work=227*
 39: 0x0270 [0x2B] Gu'Zho Thunderblade (ID: 16822546/0x0100B112) [8039*]:
    → "Let me intro-oduce myself. My name is Gu'Zho--officer in the 7th Waughroon Armored Divi-ision of the Quadav Shieldwa-arriors, or should I say fo-ormer officer... I'm what you'd call a de-eserter."
 40: 0x0277 [0x23] WAIT_FOR_DIALOG_INTERACTION
 41: 0x0278 [0x5B] LOAD_EXT_SCHEDULER: Load scheduler "tlk1" with entities [Gu'Zho Thunderblade (ID: 16822546/0x0100B112), Gu'Zho Thunderblade (ID: 16822546/0x0100B112)], work=227*
 42: 0x0287 [0x2B] Gu'Zho Thunderblade (ID: 16822546/0x0100B112) [8040*]:
    → "I'm not proud of it, but I did wha-at I had to do. Day after da-ay, I watched as hundreds of my troops would be slaughte-ered by the waves of adventurers pouring through the mi-ine shafts in search of their pre-ecious mythril. Why didn't the Adamantking try to ma-ake peace with the chi-ildren of Altana? What twisted se-ense of pride made him so stubborn?"
 43: 0x028E [0x23] WAIT_FOR_DIALOG_INTERACTION
 44: 0x028F [0x45] LOAD_SCHEDULED_TASK: Load scheduler "ovl1" with entities [LocalPlayer, LocalPlayer], work=[200*, 0*]
 45: 0x02A0 [0x52] END_LOAD_SCHEDULER: End scheduler "s086" with entities [LocalPlayer, LocalPlayer], work=162*
 46: 0x02AF [0x45] LOAD_SCHEDULED_TASK: Load scheduler "s087" with entities [LocalPlayer, LocalPlayer], work=[162*, 0*]
 47: 0x02C0 [0x2B] Gu'Zho Thunderblade (ID: 16822546/0x0100B112) [8041*]:
    → "I was ti-ired of being a pawn for a leader whose ideals confli-icted with mine. So, I ga-athered up a handful of my best troops and le-eft the Shieldwarriors behind me. Howe-ever, it was not long before the guilt and pressure of being wanted me-en bore down on the already weakened souls of my comra-ades."
 48: 0x02C7 [0x23] WAIT_FOR_DIALOG_INTERACTION
 49: 0x02C8 [0x5B] LOAD_EXT_SCHEDULER: Load scheduler "tlk0" with entities [Gu'Zho Thunderblade (ID: 16822546/0x0100B112), Gu'Zho Thunderblade (ID: 16822546/0x0100B112)], work=227*
 50: 0x02D7 [0x2B] Gu'Zho Thunderblade (ID: 16822546/0x0100B112) [8042*]:
    → "And one by one they le-eft my side and returned to the mi-ines, until I was left here alone. But what can a Quadav who has known no-othing but the battlefield do when there is no battle for him le-eft to fight?"
 51: 0x02DE [0x23] WAIT_FOR_DIALOG_INTERACTION
 52: 0x02DF [0x5B] LOAD_EXT_SCHEDULER: Load scheduler "tlk1" with entities [Gu'Zho Thunderblade (ID: 16822546/0x0100B112), Gu'Zho Thunderblade (ID: 16822546/0x0100B112)], work=227*
 53: 0x02EE [0x2B] Gu'Zho Thunderblade (ID: 16822546/0x0100B112) [8043*]:
    → "That's why I ca-ame here to Modalpolas. I heard that the Moblies are always lo-ooking for new mercenaries to fill out their ra-anks."
 54: 0x02F5 [0x23] WAIT_FOR_DIALOG_INTERACTION
 55: 0x02F6 [0x45] LOAD_SCHEDULED_TASK: Load scheduler "ovl1" with entities [LocalPlayer, LocalPlayer], work=[200*, 0*]
 56: 0x0307 [0x52] END_LOAD_SCHEDULER: End scheduler "s087" with entities [LocalPlayer, LocalPlayer], work=162*
 57: 0x0316 [0x45] LOAD_SCHEDULED_TASK: Load scheduler "s088" with entities [LocalPlayer, LocalPlayer], work=[162*, 0*]
 58: 0x0327 [0x5B] LOAD_EXT_SCHEDULER: Load scheduler "tlk0" with entities [Gu'Zho Thunderblade (ID: 16822546/0x0100B112), Gu'Zho Thunderblade (ID: 16822546/0x0100B112)], work=227*
 59: 0x0336 [0x2B] Gu'Zho Thunderblade (ID: 16822546/0x0100B112) [8044*]:
    → "I paid a Gobly scribe a sackful of mythri-il ore to write me a recommenda-ation. Now all I have to do is take it to the applica-ation box located somewhere in this mess of scaffolding and ro-ock."
 60: 0x033D [0x23] WAIT_FOR_DIALOG_INTERACTION
 61: 0x033E [0x5B] LOAD_EXT_SCHEDULER: Load scheduler "tlk1" with entities [Gu'Zho Thunderblade (ID: 16822546/0x0100B112), Gu'Zho Thunderblade (ID: 16822546/0x0100B112)], work=227*
 62: 0x034D [0x2B] Gu'Zho Thunderblade (ID: 16822546/0x0100B112) [8045*]:
    → "You wouldn't happen to know your way around this pla-ace, would you?"
 63: 0x0354 [0x23] WAIT_FOR_DIALOG_INTERACTION
 64: 0x0355 [0x24] CREATE_DIALOG(message_id=8046*, default_option=0*, option_flags=0*)
    → "Your grade in Movalpolos geography: [A+./F-.]"
 65: 0x035C [0x25] WAIT_DIALOG_SELECT()
 66: 0x035D [0x02] IF !(Work_Zone[0] == 1*) GOTO 0x03A3
 67: 0x0365 [0x52] END_LOAD_SCHEDULER: End scheduler "s088" with entities [LocalPlayer, LocalPlayer], work=162*
 68: 0x0374 [0x45] LOAD_SCHEDULED_TASK: Load scheduler "s089" with entities [LocalPlayer, LocalPlayer], work=[162*, 0*]
 69: 0x0385 [0x27] REQ_SET(priority=0x0A, entity_id=Gu'Zho Thunderblade (ID: 16822546/0x0100B112), tag_num=0x02)
 70: 0x038C [0x2B] Gu'Zho Thunderblade (ID: 16822546/0x0100B112) [8047*]:
    → "Don't worry about it. I'm not tha-at good with directions either... I'll just wait he-ere a little longer until someone with a ma-ap comes along."
 71: 0x0393 [0x23] WAIT_FOR_DIALOG_INTERACTION
 72: 0x0394 [0x2A] GET_REQ_LEVEL(level=10, entity_id=Gu'Zho Thunderblade (ID: 16822546/0x0100B112))
 73: 0x039A [0x05] Work_Zone[1] = 1
 74: 0x039D [0x01] GOTO 0x0512

SUBROUTINE_03A3:
 75: 0x03A3 [0x52] END_LOAD_SCHEDULER: End scheduler "s088" with entities [LocalPlayer, LocalPlayer], work=162*
 76: 0x03B2 [0x45] LOAD_SCHEDULED_TASK: Load scheduler "s089" with entities [LocalPlayer, LocalPlayer], work=[162*, 0*]
 77: 0x03C3 [0x27] REQ_SET(priority=0x0A, entity_id=Gu'Zho Thunderblade (ID: 16822546/0x0100B112), tag_num=0x02)
 78: 0x03CA [0x2B] Gu'Zho Thunderblade (ID: 16822546/0x0100B112) [8048*]:
    → "You don't say! Well, then I have a pro-oposition for you."
 79: 0x03D1 [0x1C] WAIT(100* ticks)
 80: 0x03D4 [0x1E] EventEntity looks at Gu'Zho Thunderblade (ID: 16822546/0x0100B112) and starts talking
 81: 0x03D9 [0x23] WAIT_FOR_DIALOG_INTERACTION
 82: 0x03DA [0x2B] Gu'Zho Thunderblade (ID: 16822546/0x0100B112) [8049*]:
    → "You see, as you already may kno-ow, we Quadav don't have that good eyesi-ight; we mainly rely on our hearing and a set of se-ensory organs that pre-event us from getting lost."
 83: 0x03E1 [0x23] WAIT_FOR_DIALOG_INTERACTION
 84: 0x03E2 [0x2A] GET_REQ_LEVEL(level=10, entity_id=Gu'Zho Thunderblade (ID: 16822546/0x0100B112))
 85: 0x03E8 [0x5B] LOAD_EXT_SCHEDULER: Load scheduler "tlk0" with entities [Gu'Zho Thunderblade (ID: 16822546/0x0100B112), Gu'Zho Thunderblade (ID: 16822546/0x0100B112)], work=227*
 86: 0x03F7 [0x2B] Gu'Zho Thunderblade (ID: 16822546/0x0100B112) [8050*]:
    → "However, the magne-etic field created by all this crazy Mobly equipme-ent has been sending my sense of direction haywire. I've tried naviga-ating the tunnels here, but I always end up ba-ack in the same spot..."
 87: 0x03FE [0x23] WAIT_FOR_DIALOG_INTERACTION
 88: 0x03FF [0x5B] LOAD_EXT_SCHEDULER: Load scheduler "tlk1" with entities [Gu'Zho Thunderblade (ID: 16822546/0x0100B112), Gu'Zho Thunderblade (ID: 16822546/0x0100B112)], work=227*
 89: 0x040E [0x52] END_LOAD_SCHEDULER: End scheduler "s089" with entities [LocalPlayer, LocalPlayer], work=162*
 90: 0x041D [0x45] LOAD_SCHEDULED_TASK: Load scheduler "s090" with entities [LocalPlayer, LocalPlayer], work=[162*, 0*]
 91: 0x042E [0x4B] UPDATE_ENTITY_YAW(entity=Gu'Zho Thunderblade (ID: 16822546/0x0100B112), yaw=8.9°*)
 92: 0x0435 [0x2B] Gu'Zho Thunderblade (ID: 16822546/0x0100B112) [8051*]:
    → "And that's why I need your he-elp. If you can really traverse the Mobly tu-unnels as well as you say you can, you should have no trouble in deli-ivering my recommendation to the application bo-ox."
 93: 0x043C [0x23] WAIT_FOR_DIALOG_INTERACTION
 94: 0x043D [0x24] CREATE_DIALOG(message_id=8052*, default_option=0*, option_flags=0*)
    → "What do you say? Will you help? [Of course!/On second thought...]"
 95: 0x0444 [0x25] WAIT_DIALOG_SELECT()
 96: 0x0445 [0x02] IF !(Work_Zone[0] == 1*) GOTO 0x0465
 97: 0x044D [0x4B] UPDATE_ENTITY_YAW(entity=Gu'Zho Thunderblade (ID: 16822546/0x0100B112), yaw=11.2°*)
 98: 0x0454 [0x2B] Gu'Zho Thunderblade (ID: 16822546/0x0100B112) [8053*]:
    → "Hm... Maybe I should have me-entioned I was willing to pay in gold be-efore I asked..."
 99: 0x045B [0x23] WAIT_FOR_DIALOG_INTERACTION
100: 0x045C [0x05] Work_Zone[1] = 1
101: 0x045F [0x01] GOTO 0x0512

SUBROUTINE_0465:
102: 0x0465 [0x52] END_LOAD_SCHEDULER: End scheduler "s090" with entities [LocalPlayer, LocalPlayer], work=162*
103: 0x0474 [0x45] LOAD_SCHEDULED_TASK: Load scheduler "s091" with entities [LocalPlayer, LocalPlayer], work=[162*, 0*]
104: 0x0485 [0x4A] Gu'Zho Thunderblade (ID: 16822546/0x0100B112) looks at LocalPlayer
105: 0x048E [0x2B] Gu'Zho Thunderblade (ID: 16822546/0x0100B112) [8054*]:
    → "You will!? I don't know how to tha-ank you! How about gold? I heard it is quite va-aluable in your world as well."
106: 0x0495 [0x23] WAIT_FOR_DIALOG_INTERACTION
107: 0x0496 [0x5B] LOAD_EXT_SCHEDULER: Load scheduler "tlk0" with entities [Gu'Zho Thunderblade (ID: 16822546/0x0100B112), Gu'Zho Thunderblade (ID: 16822546/0x0100B112)], work=227*
108: 0x04A5 [0x2B] Gu'Zho Thunderblade (ID: 16822546/0x0100B112) [8055*]:
    → "Wait... We're not he-eading into Mobalpolus to pick any fi-ights with the Moblies."
109: 0x04AC [0x23] WAIT_FOR_DIALOG_INTERACTION
110: 0x04AD [0x5B] LOAD_EXT_SCHEDULER: Load scheduler "tlk1" with entities [Gu'Zho Thunderblade (ID: 16822546/0x0100B112), Gu'Zho Thunderblade (ID: 16822546/0x0100B112)], work=227*
111: 0x04BC [0x2B] Gu'Zho Thunderblade (ID: 16822546/0x0100B112) [8056*]:
    → "If you wa-alked in looking like that, there might be more unwanted bloodshe-ed...and that's the last thing I need any mo-ore of on my conscience."
112: 0x04C3 [0x23] WAIT_FOR_DIALOG_INTERACTION
113: 0x04C4 [0x52] END_LOAD_SCHEDULER: End scheduler "s091" with entities [LocalPlayer, LocalPlayer], work=162*
114: 0x04D3 [0x45] LOAD_SCHEDULED_TASK: Load scheduler "s092" with entities [LocalPlayer, LocalPlayer], work=[162*, 0*]
115: 0x04E4 [0x5B] LOAD_EXT_SCHEDULER: Load scheduler "tlk0" with entities [Gu'Zho Thunderblade (ID: 16822546/0x0100B112), Gu'Zho Thunderblade (ID: 16822546/0x0100B112)], work=227*
116: 0x04F3 [0x2B] Gu'Zho Thunderblade (ID: 16822546/0x0100B112) [8057*]:
    → "What you need is a di-isguise... What if you were to make one of those stra-ange masks that those Moblies are always we-earing? There must be a few softbacks in one of your towns that spe-ecializes in leathercraft..."
117: 0x04FA [0x23] WAIT_FOR_DIALOG_INTERACTION
118: 0x04FB [0x5B] LOAD_EXT_SCHEDULER: Load scheduler "tlk1" with entities [Gu'Zho Thunderblade (ID: 16822546/0x0100B112), Gu'Zho Thunderblade (ID: 16822546/0x0100B112)], work=227*
119: 0x050A [0x2B] Gu'Zho Thunderblade (ID: 16822546/0x0100B112) [8058*]:
    → "I don't know if I can tru-ust your type, but then I don't know if I can tru-ust anybody right now. I'll be waiting here for you, adve-enturer..."
120: 0x0511 [0x23] WAIT_FOR_DIALOG_INTERACTION

SUBROUTINE_0512:
121: 0x0512 [0x27] REQ_SET(priority=0x0A, entity_id=Gu'Zho Thunderblade (ID: 16822546/0x0100B112), tag_num=0x03)
122: 0x0519 [0x1C] WAIT(45* ticks)
123: 0x051C [0x1E] EventEntity looks at Gu'Zho Thunderblade (ID: 16822546/0x0100B112) and starts talking
124: 0x0521 [0x5D] SET_MUSIC_VOLUME(volume=0*, fade_time=120*)
125: 0x0526 [0x45] LOAD_SCHEDULED_TASK: Load scheduler "fdo2" with entities [LocalPlayer, LocalPlayer], work=[200*, 0*]
126: 0x0537 [0x55] WAIT_LOAD_SCHEDULER: Wait for scheduler "fdo2" with entities [LocalPlayer, LocalPlayer], work=200*
127: 0x0546 [0x52] END_LOAD_SCHEDULER: End scheduler "s089" with entities [LocalPlayer, LocalPlayer], work=162*
128: 0x0555 [0x52] END_LOAD_SCHEDULER: End scheduler "s090" with entities [LocalPlayer, LocalPlayer], work=162*
129: 0x0564 [0x52] END_LOAD_SCHEDULER: End scheduler "s092" with entities [LocalPlayer, LocalPlayer], work=162*
130: 0x0573 [0x46] CAMERA_CONTROL: Restore default settings
131: 0x0575 [0x5C] MUSIC_CONTROL: Set Idle (Day) music to song 221*
132: 0x0579 [0x5C] MUSIC_CONTROL: Set Idle (Night) music to song 221*
133: 0x057D [0x5C] MUSIC_CONTROL: Set Combat (Solo) music to song 115*
134: 0x0581 [0x5C] MUSIC_CONTROL: Set Combat (Party) music to song 218*
135: 0x0585 [0x45] LOAD_SCHEDULED_TASK: Load scheduler "fdi1" with entities [LocalPlayer, LocalPlayer], work=[200*, 0*]
136: 0x0596 [0x21] END_EVENT
137: 0x0597 [0x00] END_REQSTACK()
```

#### Data or dead code:

```
# Dead code (unreachable instructions):
     0x03A0 [0x01] GOTO 0x03A3
# Dead code (unreachable instructions):
     0x0462 [0x01] GOTO 0x0465
```

### Event 61

#### Metadata

| Field        | Value     |
|--------------|-----------|
| Entrypoint   | 0x0598    |
| Data Size    | 441 bytes |
| Instructions | 53        |

```
      00 01 02 03 04 05 06 07  08 09 0A 0B 0C 0D 0E 0F
      -- -- -- -- -- -- -- --  -- -- -- -- -- -- -- --
0590:                          42 46 01 5D 43 80 44 80          BF.]C.D.
05A0: 45 45 80 F0 FF FF 7F F0  FF FF 7F 66 64 6F 31 43  EE.........fdo1C
05B0: 80 55 45 80 F0 FF FF 7F  F0 FF FF 7F 66 64 6F 31  .UE.........fdo1
05C0: 38 46 80 22 00 45 4B 80  F0 FF FF 7F F0 FF FF 7F  8F.".EK.........
05D0: 73 30 38 33 44 80 37 4C  80 4D 80 4E 80 75 80 1E  s083D.7L.M.N.u..
05E0: F0 FF FF 7F 4E 00 12 B1  00 01 80 12 B1 00 01 45  ....N..........E
05F0: 45 80 F0 FF FF 7F F0 FF  FF 7F 66 64 69 31 43 80  E.........fdi1C.
0600: 55 4B 80 F0 FF FF 7F F0  FF FF 7F 73 30 38 33 45  UK.........s083E
0610: 45 80 F0 FF FF 7F F0 FF  FF 7F 62 6C 6F 6E 43 80  E.........blonC.
0620: 45 4F 80 F0 FF FF 7F F0  FF FF 7F 62 6C 6F 6E 43  EO.........blonC
0630: 80 45 4B 80 F0 FF FF 7F  F0 FF FF 7F 73 30 38 34  .EK.........s084
0640: 43 80 6B 62 74 6C 30 12  B1 00 01 2B 12 B1 00 01  C.kbtl0....+....
0650: 76 80 1C 51 80 45 45 80  F0 FF FF 7F F0 FF FF 7F  v..Q.EE.........
0660: 62 6C 6F 66 43 80 23 5C  00 54 80 5C 01 54 80 2B  blofC.#\.T.\.T.+
0670: 12 B1 00 01 77 80 23 45  45 80 F0 FF FF 7F F0 FF  ....w.#EE.......
0680: FF 7F 6F 76 6C 31 43 80  45 4B 80 F0 FF FF 7F F0  ..ovl1C.EK......
0690: FF FF 7F 73 30 38 35 43  80 6B 69 64 6C 30 12 B1  ...s085C.kidl0..
06A0: 00 01 2B 12 B1 00 01 78  80 23 5B 57 80 12 B1 00  ..+....x.#[W....
06B0: 01 12 B1 00 01 74 6C 6B  30 2B 12 B1 00 01 79 80  .....tlk0+....y.
06C0: 23 5B 57 80 12 B1 00 01  12 B1 00 01 74 6C 6B 31  #[W.........tlk1
06D0: 2B 12 B1 00 01 7A 80 23  52 4B 80 F0 FF FF 7F F0  +....z.#RK......
06E0: FF FF 7F 73 30 38 35 45  4B 80 F0 FF FF 7F F0 FF  ...s085EK.......
06F0: FF 7F 73 30 38 36 43 80  2B 12 B1 00 01 7B 80 23  ..s086C.+....{.#
0700: 27 0A 12 B1 00 01 03 5D  43 80 71 80 45 45 80 F0  '......]C.q.EE..
0710: FF FF 7F F0 FF FF 7F 66  64 6F 32 43 80 55 45 80  .......fdo2C.UE.
0720: F0 FF FF 7F F0 FF FF 7F  66 64 6F 32 46 00 5C 00  ........fdo2F.\.
0730: 72 80 5C 01 72 80 5C 02  73 80 5C 03 74 80 45 45  r.\.r.\.s.\.t.EE
0740: 80 F0 FF FF 7F F0 FF FF  7F 66 64 69 31 43 80 21  .........fdi1C.!
0750: 00                                                .               
```

#### Opcodes

```
  0: 0x0598 [0x42] SET_CLI_EVENT_CANCEL_DATA()
  1: 0x0599 [0x46] CAMERA_CONTROL: Disable user control
  2: 0x059B [0x5D] SET_MUSIC_VOLUME(volume=0*, fade_time=60*)
  3: 0x05A0 [0x45] LOAD_SCHEDULED_TASK: Load scheduler "fdo1" with entities [LocalPlayer, LocalPlayer], work=[200*, 0*]
  4: 0x05B1 [0x55] WAIT_LOAD_SCHEDULER: Wait for scheduler "fdo1" with entities [LocalPlayer, LocalPlayer], work=200*
  5: 0x05C0 [0x38] SET_CLIENT_EVENT_MODE(mode=19*)
  6: 0x05C3 [0x22] ENTITY_HIDE_FLAG(enabled=0x00)
  7: 0x05C5 [0x45] LOAD_SCHEDULED_TASK: Load scheduler "s083" with entities [LocalPlayer, LocalPlayer], work=[162*, 60*]
  8: 0x05D6 [0x37] UPDATE_EVENT_POSITION_AND_DIR: x=-319.709*, z=-261.002*, y=8.118*, direction=52.7°*
  9: 0x05DF [0x1E] EventEntity looks at LocalPlayer and starts talking
 10: 0x05E4 [0x4E] SET_ENTITY_HIDE_FLAG: Show Gu'Zho Thunderblade (ID: 16822546/0x0100B112)
 11: 0x05EA [0x80] LOAD_WAIT(entity=Gu'Zho Thunderblade (ID: 16822546/0x0100B112))
 12: 0x05EF [0x45] LOAD_SCHEDULED_TASK: Load scheduler "fdi1" with entities [LocalPlayer, LocalPlayer], work=[200*, 0*]
 13: 0x0600 [0x55] WAIT_LOAD_SCHEDULER: Wait for scheduler "s083" with entities [LocalPlayer, LocalPlayer], work=162*
 14: 0x060F [0x45] LOAD_SCHEDULED_TASK: Load scheduler "blon" with entities [LocalPlayer, LocalPlayer], work=[200*, 0*]
 15: 0x0620 [0x45] LOAD_SCHEDULED_TASK: Load scheduler "blon" with entities [LocalPlayer, LocalPlayer], work=[201*, 0*]
 16: 0x0631 [0x45] LOAD_SCHEDULED_TASK: Load scheduler "s084" with entities [LocalPlayer, LocalPlayer], work=[162*, 0*]
 17: 0x0642 [0x6B] STOP_AND_IDLE: Gu'Zho Thunderblade (ID: 16822546/0x0100B112) stops current action and resets to idle (animation="btl0")
 18: 0x064B [0x2B] Gu'Zho Thunderblade (ID: 16822546/0x0100B112) [8059*]:
    → "Rwarrr! Sho-ow yourself! I know you're the-ere. Dra-aw your weapon and face your fate like a true wa-arrior!"
 19: 0x0652 [0x1C] WAIT(30* ticks)
 20: 0x0655 [0x45] LOAD_SCHEDULED_TASK: Load scheduler "blof" with entities [LocalPlayer, LocalPlayer], work=[200*, 0*]
 21: 0x0666 [0x23] WAIT_FOR_DIALOG_INTERACTION
 22: 0x0667 [0x5C] MUSIC_CONTROL: Set Idle (Day) music to song 163*
 23: 0x066B [0x5C] MUSIC_CONTROL: Set Idle (Night) music to song 163*
 24: 0x066F [0x2B] Gu'Zho Thunderblade (ID: 16822546/0x0100B112) [8060*]:
    → "........."
 25: 0x0676 [0x23] WAIT_FOR_DIALOG_INTERACTION
 26: 0x0677 [0x45] LOAD_SCHEDULED_TASK: Load scheduler "ovl1" with entities [LocalPlayer, LocalPlayer], work=[200*, 0*]
 27: 0x0688 [0x45] LOAD_SCHEDULED_TASK: Load scheduler "s085" with entities [LocalPlayer, LocalPlayer], work=[162*, 0*]
 28: 0x0699 [0x6B] STOP_AND_IDLE: Gu'Zho Thunderblade (ID: 16822546/0x0100B112) stops current action and resets to idle (animation="idl0")
 29: 0x06A2 [0x2B] Gu'Zho Thunderblade (ID: 16822546/0x0100B112) [8061*]:
    → "Grawhawhawh! I tho-ought for a minute there that you were one of those pe-esky Gobly scouts!"
 30: 0x06A9 [0x23] WAIT_FOR_DIALOG_INTERACTION
 31: 0x06AA [0x5B] LOAD_EXT_SCHEDULER: Load scheduler "tlk0" with entities [Gu'Zho Thunderblade (ID: 16822546/0x0100B112), Gu'Zho Thunderblade (ID: 16822546/0x0100B112)], work=227*
 32: 0x06B9 [0x2B] Gu'Zho Thunderblade (ID: 16822546/0x0100B112) [8062*]:
    → "That's one heck of a di-isguise you managed to put together! I can't see you that well, but from what I can make out, you shouldn't have any trouble ma-aking your way into the mi-ines!"
 33: 0x06C0 [0x23] WAIT_FOR_DIALOG_INTERACTION
 34: 0x06C1 [0x5B] LOAD_EXT_SCHEDULER: Load scheduler "tlk1" with entities [Gu'Zho Thunderblade (ID: 16822546/0x0100B112), Gu'Zho Thunderblade (ID: 16822546/0x0100B112)], work=227*
 35: 0x06D0 [0x2B] Gu'Zho Thunderblade (ID: 16822546/0x0100B112) [8063*]:
    → "Here, take my recommenda-ation and take it to the applica-ation box. Where is it? How should I know? I barely even know whe-ere here is!"
 36: 0x06D7 [0x23] WAIT_FOR_DIALOG_INTERACTION
 37: 0x06D8 [0x52] END_LOAD_SCHEDULER: End scheduler "s085" with entities [LocalPlayer, LocalPlayer], work=162*
 38: 0x06E7 [0x45] LOAD_SCHEDULED_TASK: Load scheduler "s086" with entities [LocalPlayer, LocalPlayer], work=[162*, 0*]
 39: 0x06F8 [0x2B] Gu'Zho Thunderblade (ID: 16822546/0x0100B112) [8064*]:
    → "After you place the le-etter in the box, it won't be long before one of their merce-enary serjeants will come out to collect it. When he does, lead him ba-ack here, and I'll give you your rewa-ard."
 40: 0x06FF [0x23] WAIT_FOR_DIALOG_INTERACTION
 41: 0x0700 [0x27] REQ_SET(priority=0x0A, entity_id=Gu'Zho Thunderblade (ID: 16822546/0x0100B112), tag_num=0x03)
 42: 0x0707 [0x5D] SET_MUSIC_VOLUME(volume=0*, fade_time=120*)
 43: 0x070C [0x45] LOAD_SCHEDULED_TASK: Load scheduler "fdo2" with entities [LocalPlayer, LocalPlayer], work=[200*, 0*]
 44: 0x071D [0x55] WAIT_LOAD_SCHEDULER: Wait for scheduler "fdo2" with entities [LocalPlayer, LocalPlayer], work=200*
 45: 0x072C [0x46] CAMERA_CONTROL: Restore default settings
 46: 0x072E [0x5C] MUSIC_CONTROL: Set Idle (Day) music to song 221*
 47: 0x0732 [0x5C] MUSIC_CONTROL: Set Idle (Night) music to song 221*
 48: 0x0736 [0x5C] MUSIC_CONTROL: Set Combat (Solo) music to song 115*
 49: 0x073A [0x5C] MUSIC_CONTROL: Set Combat (Party) music to song 218*
 50: 0x073E [0x45] LOAD_SCHEDULED_TASK: Load scheduler "fdi1" with entities [LocalPlayer, LocalPlayer], work=[200*, 0*]
 51: 0x074F [0x21] END_EVENT
 52: 0x0750 [0x00] END_REQSTACK()
```

### Event 62

#### Metadata

| Field        | Value     |
|--------------|-----------|
| Entrypoint   | 0x0751    |
| Data Size    | 264 bytes |
| Instructions | 30        |

```
      00 01 02 03 04 05 06 07  08 09 0A 0B 0C 0D 0E 0F
      -- -- -- -- -- -- -- --  -- -- -- -- -- -- -- --
0750:    42 46 01 45 45 80 F0  FF FF 7F F0 FF FF 7F 66   BF.EE.........f
0760: 64 6F 31 43 80 55 45 80  F0 FF FF 7F F0 FF FF 7F  do1C.UE.........
0770: 66 64 6F 31 38 46 80 37  7C 80 7D 80 0A 80 7E 80  fdo18F.7|.}...~.
0780: 45 4B 80 F0 FF FF 7F F0  FF FF 7F 73 30 36 36 43  EK.........s066C
0790: 80 22 00 4E 00 14 B1 00  01 45 45 80 F0 FF FF 7F  .".N.....EE.....
07A0: F0 FF FF 7F 66 64 69 31  43 80 6E F0 FF FF 7F 7F  ....fdi1C.n.....
07B0: 80 99 F0 FF FF 7F 2B 13  B1 00 01 80 80 1C 81 80  ......+.........
07C0: 1E 14 B1 00 01 23 52 4B  80 F0 FF FF 7F F0 FF FF  .....#RK........
07D0: 7F 73 30 36 36 45 4B 80  F0 FF FF 7F F0 FF FF 7F  .s066EK.........
07E0: 73 30 36 37 43 80 45 45  80 F0 FF FF 7F F0 FF FF  s067C.EE........
07F0: 7F 62 6C 6F 6E 43 80 45  4F 80 F0 FF FF 7F F0 FF  .blonC.EO.......
0800: FF 7F 62 6C 6F 6E 43 80  2B 14 B1 00 01 82 80 1C  ..blonC.+.......
0810: 44 80 45 45 80 F0 FF FF  7F F0 FF FF 7F 62 6C 6F  D.EE.........blo
0820: 66 43 80 23 45 45 80 F0  FF FF 7F F0 FF FF 7F 66  fC.#EE.........f
0830: 64 6F 31 43 80 55 45 80  F0 FF FF 7F F0 FF FF 7F  do1C.UE.........
0840: 66 64 6F 31 46 00 45 45  80 F0 FF FF 7F F0 FF FF  fdo1F.EE........
0850: 7F 66 64 69 31 43 80 21  00                       .fdi1C.!.       
```

#### Opcodes

```
  0: 0x0751 [0x42] SET_CLI_EVENT_CANCEL_DATA()
  1: 0x0752 [0x46] CAMERA_CONTROL: Disable user control
  2: 0x0754 [0x45] LOAD_SCHEDULED_TASK: Load scheduler "fdo1" with entities [LocalPlayer, LocalPlayer], work=[200*, 0*]
  3: 0x0765 [0x55] WAIT_LOAD_SCHEDULER: Wait for scheduler "fdo1" with entities [LocalPlayer, LocalPlayer], work=200*
  4: 0x0774 [0x38] SET_CLIENT_EVENT_MODE(mode=19*)
  5: 0x0777 [0x37] UPDATE_EVENT_POSITION_AND_DIR: x=-140.445*, z=155.950*, y=7.999*, direction=244.5°*
  6: 0x0780 [0x45] LOAD_SCHEDULED_TASK: Load scheduler "s066" with entities [LocalPlayer, LocalPlayer], work=[162*, 0*]
  7: 0x0791 [0x22] ENTITY_HIDE_FLAG(enabled=0x00)
  8: 0x0793 [0x4E] SET_ENTITY_HIDE_FLAG: Show Goblin Preceptor (ID: 16822548/0x0100B114)
  9: 0x0799 [0x45] LOAD_SCHEDULED_TASK: Load scheduler "fdi1" with entities [LocalPlayer, LocalPlayer], work=[200*, 0*]
 10: 0x07AA [0x6E] LocalPlayer uses emote 39*
 11: 0x07B1 [0x99] Wait for LocalPlayer animation to complete
 12: 0x07B6 [0x2B] ??? (ID: 16822547/0x0100B113) [8067*]:
    → "Hwait! Hwait hright there, peskyky adventurerer! Hyou have hquite the nerve to show your face aroundnd here!"
 13: 0x07BD [0x1C] WAIT(15* ticks)
 14: 0x07C0 [0x1E] EventEntity looks at Goblin Preceptor (ID: 16822548/0x0100B114) and starts talking
 15: 0x07C5 [0x23] WAIT_FOR_DIALOG_INTERACTION
 16: 0x07C6 [0x52] END_LOAD_SCHEDULER: End scheduler "s066" with entities [LocalPlayer, LocalPlayer], work=162*
 17: 0x07D5 [0x45] LOAD_SCHEDULED_TASK: Load scheduler "s067" with entities [LocalPlayer, LocalPlayer], work=[162*, 0*]
 18: 0x07E6 [0x45] LOAD_SCHEDULED_TASK: Load scheduler "blon" with entities [LocalPlayer, LocalPlayer], work=[200*, 0*]
 19: 0x07F7 [0x45] LOAD_SCHEDULED_TASK: Load scheduler "blon" with entities [LocalPlayer, LocalPlayer], work=[201*, 0*]
 20: 0x0808 [0x2B] Goblin Preceptor (ID: 16822548/0x0100B114) [8068*]:
    → "Or hmaybe hyou'd like to join our ranksks!? Hwell, hlet's see if hyou can pass our testst!"
 21: 0x080F [0x1C] WAIT(60* ticks)
 22: 0x0812 [0x45] LOAD_SCHEDULED_TASK: Load scheduler "blof" with entities [LocalPlayer, LocalPlayer], work=[200*, 0*]
 23: 0x0823 [0x23] WAIT_FOR_DIALOG_INTERACTION
 24: 0x0824 [0x45] LOAD_SCHEDULED_TASK: Load scheduler "fdo1" with entities [LocalPlayer, LocalPlayer], work=[200*, 0*]
 25: 0x0835 [0x55] WAIT_LOAD_SCHEDULER: Wait for scheduler "fdo1" with entities [LocalPlayer, LocalPlayer], work=200*
 26: 0x0844 [0x46] CAMERA_CONTROL: Restore default settings
 27: 0x0846 [0x45] LOAD_SCHEDULED_TASK: Load scheduler "fdi1" with entities [LocalPlayer, LocalPlayer], work=[200*, 0*]
 28: 0x0857 [0x21] END_EVENT
 29: 0x0858 [0x00] END_REQSTACK()
```

### Event 63

#### Metadata

| Field        | Value     |
|--------------|-----------|
| Entrypoint   | 0x0859    |
| Data Size    | 688 bytes |
| Instructions | 80        |

```
      00 01 02 03 04 05 06 07  08 09 0A 0B 0C 0D 0E 0F
      -- -- -- -- -- -- -- --  -- -- -- -- -- -- -- --
0850:                             42 46 01 45 45 80 F0           BF.EE..
0860: FF FF 7F F0 FF FF 7F 66  64 6F 31 43 80 55 45 80  .......fdo1C.UE.
0870: F0 FF FF 7F F0 FF FF 7F  66 64 6F 31 38 46 80 37  ........fdo18F.7
0880: 83 80 84 80 0A 80 85 80  22 00 4E 00 15 B1 00 01  ........".N.....
0890: 4E 00 14 B1 00 01 79 00  F0 FF FF 7F 14 B1 00 01  N.....y.........
08A0: 80 14 B1 00 01 2C 14 B1  00 01 14 B1 00 01 64 65  .....,........de
08B0: 61 64 53 14 B1 00 01 14  B1 00 01 64 65 61 64 45  adS........deadE
08C0: 4B 80 F0 FF FF 7F F0 FF  FF 7F 73 30 36 38 43 80  K.........s068C.
08D0: 45 45 80 F0 FF FF 7F F0  FF FF 7F 66 64 69 32 43  EE.........fdi2C
08E0: 80 1C 86 80 27 0A 15 B1  00 01 02 1C 44 80 2B 13  ....'.......D.+.
08F0: B1 00 01 87 80 1C 81 80  79 00 F0 FF FF 7F 15 B1  ........y.......
0900: 00 01 23 2A 0A 15 B1 00  01 45 45 80 F0 FF FF 7F  ..#*.....EE.....
0910: F0 FF FF 7F 6F 76 6C 31  43 80 52 4B 80 F0 FF FF  ....ovl1C.RK....
0920: 7F F0 FF FF 7F 73 30 36  38 45 4B 80 F0 FF FF 7F  .....s068EK.....
0930: F0 FF FF 7F 73 30 36 39  43 80 4A 15 B1 00 01 F0  ....s069C.J.....
0940: FF FF 7F 2B 15 B1 00 01  88 80 23 5B 89 80 15 B1  ...+......#[....
0950: 00 01 15 B1 00 01 74 6C  6B 30 2B 15 B1 00 01 8A  ......tlk0+.....
0960: 80 23 6B 69 64 6C 30 15  B1 00 01 2B 15 B1 00 01  .#kidl0....+....
0970: 8B 80 23 52 4B 80 F0 FF  FF 7F F0 FF FF 7F 73 30  ..#RK.........s0
0980: 36 39 45 4B 80 F0 FF FF  7F F0 FF FF 7F 73 30 37  69EK.........s07
0990: 30 43 80 2B 15 B1 00 01  8C 80 23 2B 15 B1 00 01  0C.+......#+....
09A0: 8D 80 23 45 45 80 F0 FF  FF 7F F0 FF FF 7F 66 64  ..#EE.........fd
09B0: 6F 31 43 80 55 45 80 F0  FF FF 7F F0 FF FF 7F 66  o1C.UE.........f
09C0: 64 6F 31 45 45 80 F0 FF  FF 7F F0 FF FF 7F 66 64  do1EE.........fd
09D0: 69 32 43 80 52 4B 80 F0  FF FF 7F F0 FF FF 7F 73  i2C.RK.........s
09E0: 30 37 30 45 4B 80 F0 FF  FF 7F F0 FF FF 7F 73 30  070EK.........s0
09F0: 37 31 43 80 5B 89 80 15  B1 00 01 15 B1 00 01 74  71C.[..........t
0A00: 6C 6B 30 2B 15 B1 00 01  8E 80 23 6B 69 64 6C 30  lk0+......#kidl0
0A10: 15 B1 00 01 2B 15 B1 00  01 8F 80 23 45 45 80 F0  ....+......#EE..
0A20: FF FF 7F F0 FF FF 7F 6F  76 6C 31 43 80 52 4B 80  .......ovl1C.RK.
0A30: F0 FF FF 7F F0 FF FF 7F  73 30 37 31 45 4B 80 F0  ........s071EK..
0A40: FF FF 7F F0 FF FF 7F 73  30 37 32 43 80 27 0A 15  .......s072C.'..
0A50: B1 00 01 03 2B 15 B1 00  01 90 80 1C 44 80 1E 15  ....+.......D...
0A60: B1 00 01 23 2B 15 B1 00  01 91 80 23 4A 15 B1 00  ...#+......#J...
0A70: 01 F0 FF FF 7F 2B 15 B1  00 01 92 80 23 52 4B 80  .....+......#RK.
0A80: F0 FF FF 7F F0 FF FF 7F  73 30 37 32 45 4B 80 F0  ........s072EK..
0A90: FF FF 7F F0 FF FF 7F 73  30 37 33 43 80 5B 89 80  .......s073C.[..
0AA0: 15 B1 00 01 15 B1 00 01  74 6C 6B 30 2B 15 B1 00  ........tlk0+...
0AB0: 01 93 80 23 6B 69 64 6C  30 15 B1 00 01 2B 15 B1  ...#kidl0....+..
0AC0: 00 01 94 80 23 45 45 80  F0 FF FF 7F F0 FF FF 7F  ....#EE.........
0AD0: 66 64 6F 31 43 80 55 45  80 F0 FF FF 7F F0 FF FF  fdo1C.UE........
0AE0: 7F 66 64 6F 31 52 4B 80  F0 FF FF 7F F0 FF FF 7F  .fdo1RK.........
0AF0: 73 30 37 33 46 00 45 45  80 F0 FF FF 7F F0 FF FF  s073F.EE........
0B00: 7F 66 64 69 31 43 80 21  00                       .fdi1C.!.       
```

#### Opcodes

```
  0: 0x0859 [0x42] SET_CLI_EVENT_CANCEL_DATA()
  1: 0x085A [0x46] CAMERA_CONTROL: Disable user control
  2: 0x085C [0x45] LOAD_SCHEDULED_TASK: Load scheduler "fdo1" with entities [LocalPlayer, LocalPlayer], work=[200*, 0*]
  3: 0x086D [0x55] WAIT_LOAD_SCHEDULER: Wait for scheduler "fdo1" with entities [LocalPlayer, LocalPlayer], work=200*
  4: 0x087C [0x38] SET_CLIENT_EVENT_MODE(mode=19*)
  5: 0x087F [0x37] UPDATE_EVENT_POSITION_AND_DIR: x=-140.889*, z=155.423*, y=7.999*, direction=100.7°*
  6: 0x0888 [0x22] ENTITY_HIDE_FLAG(enabled=0x00)
  7: 0x088A [0x4E] SET_ENTITY_HIDE_FLAG: Show Mighty Minded Generajiq (ID: 16822549/0x0100B115)
  8: 0x0890 [0x4E] SET_ENTITY_HIDE_FLAG: Show Goblin Preceptor (ID: 16822548/0x0100B114)
  9: 0x0896 [0x79] LocalPlayer looks at Goblin Preceptor (ID: 16822548/0x0100B114) (Basic look)
 10: 0x08A0 [0x80] LOAD_WAIT(entity=Goblin Preceptor (ID: 16822548/0x0100B114))
 11: 0x08A5 [0x2C] CREATE_SCHEDULER_TASK: Create scheduler "dead" with entities [Goblin Preceptor (ID: 16822548/0x0100B114), Goblin Preceptor (ID: 16822548/0x0100B114)]
 12: 0x08B2 [0x53] WAIT_SCHEDULER_TASK: Wait for scheduler "dead" with entities [Goblin Preceptor (ID: 16822548/0x0100B114), Goblin Preceptor (ID: 16822548/0x0100B114)]
 13: 0x08BF [0x45] LOAD_SCHEDULED_TASK: Load scheduler "s068" with entities [LocalPlayer, LocalPlayer], work=[162*, 0*]
 14: 0x08D0 [0x45] LOAD_SCHEDULED_TASK: Load scheduler "fdi2" with entities [LocalPlayer, LocalPlayer], work=[200*, 0*]
 15: 0x08E1 [0x1C] WAIT(180* ticks)
 16: 0x08E4 [0x27] REQ_SET(priority=0x0A, entity_id=Mighty Minded Generajiq (ID: 16822549/0x0100B115), tag_num=0x02)
 17: 0x08EB [0x1C] WAIT(60* ticks)
 18: 0x08EE [0x2B] ??? (ID: 16822547/0x0100B113) [8069*]:
    → "StUpid! Crazy Goblins so stUUUpid! I tolds them SO many times, always chEck enemy befores fighting!"
 19: 0x08F5 [0x1C] WAIT(15* ticks)
 20: 0x08F8 [0x79] LocalPlayer looks at Mighty Minded Generajiq (ID: 16822549/0x0100B115) (Basic look)
 21: 0x0902 [0x23] WAIT_FOR_DIALOG_INTERACTION
 22: 0x0903 [0x2A] GET_REQ_LEVEL(level=10, entity_id=Mighty Minded Generajiq (ID: 16822549/0x0100B115))
 23: 0x0909 [0x45] LOAD_SCHEDULED_TASK: Load scheduler "ovl1" with entities [LocalPlayer, LocalPlayer], work=[200*, 0*]
 24: 0x091A [0x52] END_LOAD_SCHEDULER: End scheduler "s068" with entities [LocalPlayer, LocalPlayer], work=162*
 25: 0x0929 [0x45] LOAD_SCHEDULED_TASK: Load scheduler "s069" with entities [LocalPlayer, LocalPlayer], work=[162*, 0*]
 26: 0x093A [0x4A] Mighty Minded Generajiq (ID: 16822549/0x0100B115) looks at LocalPlayer
 27: 0x0943 [0x2B] Mighty Minded Generajiq (ID: 16822549/0x0100B115) [8070*]:
    → "Ngeh? Waits a mInutes... You are not GOblin. Pwah phah phwah! I sees. No wOnder precEptor cannot wins!"
 28: 0x094A [0x23] WAIT_FOR_DIALOG_INTERACTION
 29: 0x094B [0x5B] LOAD_EXT_SCHEDULER: Load scheduler "tlk0" with entities [Mighty Minded Generajiq (ID: 16822549/0x0100B115), Mighty Minded Generajiq (ID: 16822549/0x0100B115)], work=215*
 30: 0x095A [0x2B] Mighty Minded Generajiq (ID: 16822549/0x0100B115) [8071*]:
    → "Wonderful! I could care less if you are tUrtles or bIrds or GAlkas. My armies need strOngest bodies available--and you one super-strOng body!"
 31: 0x0961 [0x23] WAIT_FOR_DIALOG_INTERACTION
 32: 0x0962 [0x6B] STOP_AND_IDLE: Mighty Minded Generajiq (ID: 16822549/0x0100B115) stops current action and resets to idle (animation="idl0")
 33: 0x096B [0x2B] Mighty Minded Generajiq (ID: 16822549/0x0100B115) [8072*]:
    → "Welcomes advEnturer! I am leader of MovalpOlos Moblin mercenAries, Mighty Minded GenErajiq!"
 34: 0x0972 [0x23] WAIT_FOR_DIALOG_INTERACTION
 35: 0x0973 [0x52] END_LOAD_SCHEDULER: End scheduler "s069" with entities [LocalPlayer, LocalPlayer], work=162*
 36: 0x0982 [0x45] LOAD_SCHEDULED_TASK: Load scheduler "s070" with entities [LocalPlayer, LocalPlayer], work=[162*, 0*]
 37: 0x0993 [0x2B] Mighty Minded Generajiq (ID: 16822549/0x0100B115) [8073*]:
    → "Why spEaks I your languages so good? Hah hah! Moblins more smArters than you thINks! I spents years in rOOf of San d'Oria Cathedral listening to fUnny old Elvaan preaching mumbo-jUmbo abouts AltAna lady."
 38: 0x099A [0x23] WAIT_FOR_DIALOG_INTERACTION
 39: 0x099B [0x2B] Mighty Minded Generajiq (ID: 16822549/0x0100B115) [8074*]:
    → "Some Moblins shUns upworld and upworlders' life, but nots mE! "Knowsest thous EnEmicles," I thinks yous says."
 40: 0x09A2 [0x23] WAIT_FOR_DIALOG_INTERACTION
 41: 0x09A3 [0x45] LOAD_SCHEDULED_TASK: Load scheduler "fdo1" with entities [LocalPlayer, LocalPlayer], work=[200*, 0*]
 42: 0x09B4 [0x55] WAIT_LOAD_SCHEDULER: Wait for scheduler "fdo1" with entities [LocalPlayer, LocalPlayer], work=200*
 43: 0x09C3 [0x45] LOAD_SCHEDULED_TASK: Load scheduler "fdi2" with entities [LocalPlayer, LocalPlayer], work=[200*, 0*]
 44: 0x09D4 [0x52] END_LOAD_SCHEDULER: End scheduler "s070" with entities [LocalPlayer, LocalPlayer], work=162*
 45: 0x09E3 [0x45] LOAD_SCHEDULED_TASK: Load scheduler "s071" with entities [LocalPlayer, LocalPlayer], work=[162*, 0*]
 46: 0x09F4 [0x5B] LOAD_EXT_SCHEDULER: Load scheduler "tlk0" with entities [Mighty Minded Generajiq (ID: 16822549/0x0100B115), Mighty Minded Generajiq (ID: 16822549/0x0100B115)], work=215*
 47: 0x0A03 [0x2B] Mighty Minded Generajiq (ID: 16822549/0x0100B115) [8075*]:
    → "........."
 48: 0x0A0A [0x23] WAIT_FOR_DIALOG_INTERACTION
 49: 0x0A0B [0x6B] STOP_AND_IDLE: Mighty Minded Generajiq (ID: 16822549/0x0100B115) stops current action and resets to idle (animation="idl0")
 50: 0x0A14 [0x2B] Mighty Minded Generajiq (ID: 16822549/0x0100B115) [8076*]:
    → "Hmweh? You're not here to joins Moblin mercenAries? Then why put you applicAtion in bOx?"
 51: 0x0A1B [0x23] WAIT_FOR_DIALOG_INTERACTION
 52: 0x0A1C [0x45] LOAD_SCHEDULED_TASK: Load scheduler "ovl1" with entities [LocalPlayer, LocalPlayer], work=[200*, 0*]
 53: 0x0A2D [0x52] END_LOAD_SCHEDULER: End scheduler "s071" with entities [LocalPlayer, LocalPlayer], work=162*
 54: 0x0A3C [0x45] LOAD_SCHEDULED_TASK: Load scheduler "s072" with entities [LocalPlayer, LocalPlayer], work=[162*, 0*]
 55: 0x0A4D [0x27] REQ_SET(priority=0x0A, entity_id=Mighty Minded Generajiq (ID: 16822549/0x0100B115), tag_num=0x03)
 56: 0x0A54 [0x2B] Mighty Minded Generajiq (ID: 16822549/0x0100B115) [8077*]:
    → "........."
 57: 0x0A5B [0x1C] WAIT(60* ticks)
 58: 0x0A5E [0x1E] EventEntity looks at Mighty Minded Generajiq (ID: 16822549/0x0100B115) and starts talking
 59: 0x0A63 [0x23] WAIT_FOR_DIALOG_INTERACTION
 60: 0x0A64 [0x2B] Mighty Minded Generajiq (ID: 16822549/0x0100B115) [8078*]:
    → "Sweesh! Nice [guy/gal] you are. Not quIte ruthless mercenAry types, though. You tells this Gu'Zho he's welcOme in my armies...but only if he can mAkes it to office!"
 61: 0x0A6B [0x23] WAIT_FOR_DIALOG_INTERACTION
 62: 0x0A6C [0x4A] Mighty Minded Generajiq (ID: 16822549/0x0100B115) looks at LocalPlayer
 63: 0x0A75 [0x2B] Mighty Minded Generajiq (ID: 16822549/0x0100B115) [8079*]:
    → "And whAts abouts you? Are you sUres you don't want to give second thoughts to glAmorous mercenary lIfe?"
 64: 0x0A7C [0x23] WAIT_FOR_DIALOG_INTERACTION
 65: 0x0A7D [0x52] END_LOAD_SCHEDULER: End scheduler "s072" with entities [LocalPlayer, LocalPlayer], work=162*
 66: 0x0A8C [0x45] LOAD_SCHEDULED_TASK: Load scheduler "s073" with entities [LocalPlayer, LocalPlayer], work=[162*, 0*]
 67: 0x0A9D [0x5B] LOAD_EXT_SCHEDULER: Load scheduler "tlk0" with entities [Mighty Minded Generajiq (ID: 16822549/0x0100B115), Mighty Minded Generajiq (ID: 16822549/0x0100B115)], work=215*
 68: 0x0AAC [0x2B] Mighty Minded Generajiq (ID: 16822549/0x0100B115) [8080*]:
    → "...Pfuff... I sees... Well, at lEast lets me apOlogize for stUUUpid Goblin's stUUUpiditinesses."
 69: 0x0AB3 [0x23] WAIT_FOR_DIALOG_INTERACTION
 70: 0x0AB4 [0x6B] STOP_AND_IDLE: Mighty Minded Generajiq (ID: 16822549/0x0100B115) stops current action and resets to idle (animation="idl0")
 71: 0x0ABD [0x2B] Mighty Minded Generajiq (ID: 16822549/0x0100B115) [8081*]:
    → "I knows! Take that crAzy Goblin hat and puts it on iron box. I use Moblin sUper technology to changes it into crAzy Goblin sUper hat!"
 72: 0x0AC4 [0x23] WAIT_FOR_DIALOG_INTERACTION
 73: 0x0AC5 [0x45] LOAD_SCHEDULED_TASK: Load scheduler "fdo1" with entities [LocalPlayer, LocalPlayer], work=[200*, 0*]
 74: 0x0AD6 [0x55] WAIT_LOAD_SCHEDULER: Wait for scheduler "fdo1" with entities [LocalPlayer, LocalPlayer], work=200*
 75: 0x0AE5 [0x52] END_LOAD_SCHEDULER: End scheduler "s073" with entities [LocalPlayer, LocalPlayer], work=162*
 76: 0x0AF4 [0x46] CAMERA_CONTROL: Restore default settings
 77: 0x0AF6 [0x45] LOAD_SCHEDULED_TASK: Load scheduler "fdi1" with entities [LocalPlayer, LocalPlayer], work=[200*, 0*]
 78: 0x0B07 [0x21] END_EVENT
 79: 0x0B08 [0x00] END_REQSTACK()
```

### Event 64

#### Metadata

| Field        | Value     |
|--------------|-----------|
| Entrypoint   | 0x0B09    |
| Data Size    | 975 bytes |
| Instructions | 119       |

```
      00 01 02 03 04 05 06 07  08 09 0A 0B 0C 0D 0E 0F
      -- -- -- -- -- -- -- --  -- -- -- -- -- -- -- --
0B00:                             42 46 01 45 45 80 F0           BF.EE..
0B10: FF FF 7F F0 FF FF 7F 66  64 6F 31 43 80 55 45 80  .......fdo1C.UE.
0B20: F0 FF FF 7F F0 FF FF 7F  66 64 6F 31 45 4B 80 F0  ........fdo1EK..
0B30: FF FF 7F F0 FF FF 7F 73  30 37 34 43 80 38 46 80  .......s074C.8F.
0B40: 37 7C 80 7D 80 0A 80 7E  80 4E 00 15 B1 00 01 4E  7|.}...~.N.....N
0B50: 00 16 B1 00 01 45 45 80  F0 FF FF 7F F0 FF FF 7F  .....EE.........
0B60: 66 64 69 31 43 80 6E F0  FF FF 7F 7F 80 99 F0 FF  fdi1C.n.........
0B70: FF 7F 2B 15 B1 00 01 95  80 1C 96 80 1E 15 B1 00  ..+.............
0B80: 01 23 4B 15 B1 00 01 97  80 2B 15 B1 00 01 98 80  .#K......+......
0B90: 23 52 4B 80 F0 FF FF 7F  F0 FF FF 7F 73 30 37 34  #RK.........s074
0BA0: 45 4B 80 F0 FF FF 7F F0  FF FF 7F 73 30 37 35 43  EK.........s075C
0BB0: 80 27 0A 16 B1 00 01 02  2B 16 B1 00 01 99 80 23  .'......+......#
0BC0: 5B 89 80 15 B1 00 01 15  B1 00 01 74 6C 6B 30 2B  [..........tlk0+
0BD0: 15 B1 00 01 9A 80 23 6B  69 64 6C 30 15 B1 00 01  ......#kidl0....
0BE0: 4A 16 B1 00 01 15 B1 00  01 52 4B 80 F0 FF FF 7F  J........RK.....
0BF0: F0 FF FF 7F 73 30 37 35  45 4B 80 F0 FF FF 7F F0  ....s075EK......
0C00: FF FF 7F 73 30 37 36 43  80 2B 16 B1 00 01 9B 80  ...s076C.+......
0C10: 23 4A 15 B1 00 01 16 B1  00 01 2B 15 B1 00 01 9C  #J........+.....
0C20: 80 23 5B 9D 80 16 B1 00  01 16 B1 00 01 61 6E 67  .#[..........ang
0C30: 30 2B 16 B1 00 01 9E 80  23 5B 9D 80 16 B1 00 01  0+......#[......
0C40: 16 B1 00 01 61 6E 67 31  52 4B 80 F0 FF FF 7F F0  ....ang1RK......
0C50: FF FF 7F 73 30 37 36 45  4B 80 F0 FF FF 7F F0 FF  ...s076EK.......
0C60: FF 7F 73 30 37 37 43 80  45 45 80 F0 FF FF 7F F0  ..s077C.EE......
0C70: FF FF 7F 6F 76 6C 31 43  80 53 16 B1 00 01 16 B1  ...ovl1C.S......
0C80: 00 01 61 6E 67 31 27 0A  16 B1 00 01 03 2B 16 B1  ..ang1'......+..
0C90: 00 01 9F 80 1C 96 80 1E  16 B1 00 01 1C 25 80 4A  .............%.J
0CA0: 15 B1 00 01 16 B1 00 01  1C 25 80 23 2A 0A 16 B1  .........%.#*...
0CB0: 00 01 4A 16 B1 00 01 F0  FF FF 7F 2B 16 B1 00 01  ..J........+....
0CC0: A0 80 23 2A 0A 16 B1 00  01 4A 16 B1 00 01 15 B1  ..#*.....J......
0CD0: 00 01 2B 16 B1 00 01 A1  80 23 4A 15 B1 00 01 16  ..+......#J.....
0CE0: B1 00 01 52 4B 80 F0 FF  FF 7F F0 FF FF 7F 73 30  ...RK.........s0
0CF0: 37 37 45 4B 80 F0 FF FF  7F F0 FF FF 7F 73 30 37  77EK.........s07
0D00: 38 43 80 2B 15 B1 00 01  A2 80 23 4A 16 B1 00 01  8C.+......#J....
0D10: F0 FF FF 7F 2B 16 B1 00  01 A3 80 23 6F 70 73 A4  ....+......#ops.
0D20: 80 16 B1 00 01 16 B1 00  01 1C A5 80 45 45 80 F0  ............EE..
0D30: FF FF 7F F0 FF FF 7F 66  64 6F 32 43 80 55 45 80  .......fdo2C.UE.
0D40: F0 FF FF 7F F0 FF FF 7F  66 64 6F 32 4E 01 16 B1  ........fdo2N...
0D50: 00 01 4A 15 B1 00 01 F0  FF FF 7F 52 4B 80 F0 FF  ..J........RK...
0D60: FF 7F F0 FF FF 7F 73 30  37 38 45 4B 80 F0 FF FF  ......s078EK....
0D70: 7F F0 FF FF 7F 73 30 37  39 43 80 45 45 80 F0 FF  .....s079C.EE...
0D80: FF 7F F0 FF FF 7F 66 64  69 31 43 80 1C 51 80 5B  ......fdi1C..Q.[
0D90: 89 80 15 B1 00 01 15 B1  00 01 70 61 73 30 79 00  ..........pas0y.
0DA0: F0 FF FF 7F 15 B1 00 01  2B 15 B1 00 01 A6 80 23  ........+......#
0DB0: 2B 15 B1 00 01 A7 80 23  52 4B 80 F0 FF FF 7F F0  +......#RK......
0DC0: FF FF 7F 73 30 37 39 45  4B 80 F0 FF FF 7F F0 FF  ...s079EK.......
0DD0: FF 7F 73 30 38 30 43 80  4B 15 B1 00 01 97 80 2B  ..s080C.K......+
0DE0: 15 B1 00 01 A8 80 23 5B  89 80 15 B1 00 01 15 B1  ......#[........
0DF0: 00 01 74 6C 6B 30 2B 15  B1 00 01 A9 80 23 6B 69  ..tlk0+......#ki
0E00: 64 6C 30 15 B1 00 01 52  4B 80 F0 FF FF 7F F0 FF  dl0....RK.......
0E10: FF 7F 73 30 38 30 45 4B  80 F0 FF FF 7F F0 FF FF  ..s080EK........
0E20: 7F 73 30 38 31 43 80 4A  15 B1 00 01 F0 FF FF 7F  .s081C.J........
0E30: 2B 15 B1 00 01 AA 80 23  5B 89 80 15 B1 00 01 15  +......#[.......
0E40: B1 00 01 74 6C 6B 30 2B  15 B1 00 01 AB 80 23 6B  ...tlk0+......#k
0E50: 69 64 6C 30 15 B1 00 01  2B 15 B1 00 01 AC 80 23  idl0....+......#
0E60: 52 4B 80 F0 FF FF 7F F0  FF FF 7F 73 30 38 31 45  RK.........s081E
0E70: 4B 80 F0 FF FF 7F F0 FF  FF 7F 73 30 38 32 43 80  K.........s082C.
0E80: 2B 15 B1 00 01 AD 80 23  27 0A 15 B1 00 01 05 1C  +......#'.......
0E90: 44 80 45 45 80 F0 FF FF  7F F0 FF FF 7F 66 64 6F  D.EE.........fdo
0EA0: 32 43 80 55 45 80 F0 FF  FF 7F F0 FF FF 7F 66 64  2C.UE.........fd
0EB0: 6F 32 46 00 45 4F 80 F0  FF FF 7F F0 FF FF 7F 71  o2F.EO.........q
0EC0: 73 74 63 43 80 45 45 80  F0 FF FF 7F F0 FF FF 7F  stcC.EE.........
0ED0: 66 64 69 32 43 80 21 00                           fdi2C.!.        
```

#### Opcodes

```
  0: 0x0B09 [0x42] SET_CLI_EVENT_CANCEL_DATA()
  1: 0x0B0A [0x46] CAMERA_CONTROL: Disable user control
  2: 0x0B0C [0x45] LOAD_SCHEDULED_TASK: Load scheduler "fdo1" with entities [LocalPlayer, LocalPlayer], work=[200*, 0*]
  3: 0x0B1D [0x55] WAIT_LOAD_SCHEDULER: Wait for scheduler "fdo1" with entities [LocalPlayer, LocalPlayer], work=200*
  4: 0x0B2C [0x45] LOAD_SCHEDULED_TASK: Load scheduler "s074" with entities [LocalPlayer, LocalPlayer], work=[162*, 0*]
  5: 0x0B3D [0x38] SET_CLIENT_EVENT_MODE(mode=19*)
  6: 0x0B40 [0x37] UPDATE_EVENT_POSITION_AND_DIR: x=-140.445*, z=155.950*, y=7.999*, direction=244.5°*
  7: 0x0B49 [0x4E] SET_ENTITY_HIDE_FLAG: Show Mighty Minded Generajiq (ID: 16822549/0x0100B115)
  8: 0x0B4F [0x4E] SET_ENTITY_HIDE_FLAG: Show Choplix Limblopper (ID: 16822550/0x0100B116)
  9: 0x0B55 [0x45] LOAD_SCHEDULED_TASK: Load scheduler "fdi1" with entities [LocalPlayer, LocalPlayer], work=[200*, 0*]
 10: 0x0B66 [0x6E] LocalPlayer uses emote 39*
 11: 0x0B6D [0x99] Wait for LocalPlayer animation to complete
 12: 0x0B72 [0x2B] Mighty Minded Generajiq (ID: 16822549/0x0100B115) [8082*]:
    → "A sOldier whos follows orders! Are you sUre you don't want to joins us and have glamOrous mercenAry life?"
 13: 0x0B79 [0x1C] WAIT(20* ticks)
 14: 0x0B7C [0x1E] EventEntity looks at Mighty Minded Generajiq (ID: 16822549/0x0100B115) and starts talking
 15: 0x0B81 [0x23] WAIT_FOR_DIALOG_INTERACTION
 16: 0x0B82 [0x4B] UPDATE_ENTITY_YAW(entity=Mighty Minded Generajiq (ID: 16822549/0x0100B115), yaw=19.1°*)
 17: 0x0B89 [0x2B] Mighty Minded Generajiq (ID: 16822549/0x0100B115) [8083*]:
    → "...... Psheesh. Doesn't hurt to Asking! Ahkhem! Promises is promises. DoctOr Chop! DoctOr Chop!"
 18: 0x0B90 [0x23] WAIT_FOR_DIALOG_INTERACTION
 19: 0x0B91 [0x52] END_LOAD_SCHEDULER: End scheduler "s074" with entities [LocalPlayer, LocalPlayer], work=162*
 20: 0x0BA0 [0x45] LOAD_SCHEDULED_TASK: Load scheduler "s075" with entities [LocalPlayer, LocalPlayer], work=[162*, 0*]
 21: 0x0BB1 [0x27] REQ_SET(priority=0x0A, entity_id=Choplix Limblopper (ID: 16822550/0x0100B116), tag_num=0x02)
 22: 0x0BB8 [0x2B] Choplix Limblopper (ID: 16822550/0x0100B116) [8084*]:
    → "Wha? Whoo's caalin' me? Wher'r ya? Ya neeedsa amput...anmpyu...amputit...amptitationn? <Hic!>"
 23: 0x0BBF [0x23] WAIT_FOR_DIALOG_INTERACTION
 24: 0x0BC0 [0x5B] LOAD_EXT_SCHEDULER: Load scheduler "tlk0" with entities [Mighty Minded Generajiq (ID: 16822549/0x0100B115), Mighty Minded Generajiq (ID: 16822549/0x0100B115)], work=215*
 25: 0x0BCF [0x2B] Mighty Minded Generajiq (ID: 16822549/0x0100B115) [8085*]:
    → "Fwhee-ew! DoctOr Chop! WhAt haves I told you abOut drInking Opo-opo brEws on job!?"
 26: 0x0BD6 [0x23] WAIT_FOR_DIALOG_INTERACTION
 27: 0x0BD7 [0x6B] STOP_AND_IDLE: Mighty Minded Generajiq (ID: 16822549/0x0100B115) stops current action and resets to idle (animation="idl0")
 28: 0x0BE0 [0x4A] Choplix Limblopper (ID: 16822550/0x0100B116) looks at Mighty Minded Generajiq (ID: 16822549/0x0100B115)
 29: 0x0BE9 [0x52] END_LOAD_SCHEDULER: End scheduler "s075" with entities [LocalPlayer, LocalPlayer], work=162*
 30: 0x0BF8 [0x45] LOAD_SCHEDULED_TASK: Load scheduler "s076" with entities [LocalPlayer, LocalPlayer], work=[162*, 0*]
 31: 0x0C09 [0x2B] Choplix Limblopper (ID: 16822550/0x0100B116) [8086*]:
    → "Opo-opopopoos brew on the njob? Don't minnd if I doo! <Hic!>"
 32: 0x0C10 [0x23] WAIT_FOR_DIALOG_INTERACTION
 33: 0x0C11 [0x4A] Mighty Minded Generajiq (ID: 16822549/0x0100B115) looks at Choplix Limblopper (ID: 16822550/0x0100B116)
 34: 0x0C1A [0x2B] Mighty Minded Generajiq (ID: 16822549/0x0100B115) [8087*]:
    → "Doctor ChOp. I thinks it is time for me to deAl punishment for sneaksing into MOblin brewery and swimmsing in tank... Death!............Or temporary service to thIs advEnturer."
 35: 0x0C21 [0x23] WAIT_FOR_DIALOG_INTERACTION
 36: 0x0C22 [0x5B] LOAD_EXT_SCHEDULER: Load scheduler "ang0" with entities [Choplix Limblopper (ID: 16822550/0x0100B116), Choplix Limblopper (ID: 16822550/0x0100B116)], work=216*
 37: 0x0C31 [0x2B] Choplix Limblopper (ID: 16822550/0x0100B116) [8088*]:
    → "<Ulp!>...<Hic!> Allriigh, alllriigh! Ya don' haftaa go gett your reathers fluffl...freathers fruffal...featherrrs fluffeled! I'lll help ou this advennteurerueraroo."
 38: 0x0C38 [0x23] WAIT_FOR_DIALOG_INTERACTION
 39: 0x0C39 [0x5B] LOAD_EXT_SCHEDULER: Load scheduler "ang1" with entities [Choplix Limblopper (ID: 16822550/0x0100B116), Choplix Limblopper (ID: 16822550/0x0100B116)], work=216*
 40: 0x0C48 [0x52] END_LOAD_SCHEDULER: End scheduler "s076" with entities [LocalPlayer, LocalPlayer], work=162*
 41: 0x0C57 [0x45] LOAD_SCHEDULED_TASK: Load scheduler "s077" with entities [LocalPlayer, LocalPlayer], work=[162*, 0*]
 42: 0x0C68 [0x45] LOAD_SCHEDULED_TASK: Load scheduler "ovl1" with entities [LocalPlayer, LocalPlayer], work=[200*, 0*]
 43: 0x0C79 [0x53] WAIT_SCHEDULER_TASK: Wait for scheduler "ang1" with entities [Choplix Limblopper (ID: 16822550/0x0100B116), Choplix Limblopper (ID: 16822550/0x0100B116)]
 44: 0x0C86 [0x27] REQ_SET(priority=0x0A, entity_id=Choplix Limblopper (ID: 16822550/0x0100B116), tag_num=0x03)
 45: 0x0C8D [0x2B] Choplix Limblopper (ID: 16822550/0x0100B116) [8089*]:
    → "Hey, [misser/laady]! You'rre lookin at the bes Goblin doctor this sida Gustabtysyuaygjh. <Hic!>"
 46: 0x0C94 [0x1C] WAIT(20* ticks)
 47: 0x0C97 [0x1E] EventEntity looks at Choplix Limblopper (ID: 16822550/0x0100B116) and starts talking
 48: 0x0C9C [0x1C] WAIT(10* ticks)
 49: 0x0C9F [0x4A] Mighty Minded Generajiq (ID: 16822549/0x0100B115) looks at Choplix Limblopper (ID: 16822550/0x0100B116)
 50: 0x0CA8 [0x1C] WAIT(10* ticks)
 51: 0x0CAB [0x23] WAIT_FOR_DIALOG_INTERACTION
 52: 0x0CAC [0x2A] GET_REQ_LEVEL(level=10, entity_id=Choplix Limblopper (ID: 16822550/0x0100B116))
 53: 0x0CB2 [0x4A] Choplix Limblopper (ID: 16822550/0x0100B116) looks at LocalPlayer
 54: 0x0CBB [0x2B] Choplix Limblopper (ID: 16822550/0x0100B116) [8090*]:
    → "Ya need a goo' leechin, <hic!> ya jus usse tha crazy hatn' I'lll be righ there. N'if any of my Gobbie budddies seees me fratr...fratin...frertin...fratrinrizin with th nenenemy, I'll jus tell'm I 'ad one too many nightcapss fer breaksfastst!"
 55: 0x0CC2 [0x23] WAIT_FOR_DIALOG_INTERACTION
 56: 0x0CC3 [0x2A] GET_REQ_LEVEL(level=10, entity_id=Choplix Limblopper (ID: 16822550/0x0100B116))
 57: 0x0CC9 [0x4A] Choplix Limblopper (ID: 16822550/0x0100B116) looks at Mighty Minded Generajiq (ID: 16822549/0x0100B115)
 58: 0x0CD2 [0x2B] Choplix Limblopper (ID: 16822550/0x0100B116) [8091*]:
    → "Sounnnd goood, Mighty morphin Genererarrajudy? <Hic!>"
 59: 0x0CD9 [0x23] WAIT_FOR_DIALOG_INTERACTION
 60: 0x0CDA [0x4A] Mighty Minded Generajiq (ID: 16822549/0x0100B115) looks at Choplix Limblopper (ID: 16822550/0x0100B116)
 61: 0x0CE3 [0x52] END_LOAD_SCHEDULER: End scheduler "s077" with entities [LocalPlayer, LocalPlayer], work=162*
 62: 0x0CF2 [0x45] LOAD_SCHEDULED_TASK: Load scheduler "s078" with entities [LocalPlayer, LocalPlayer], work=[162*, 0*]
 63: 0x0D03 [0x2B] Mighty Minded Generajiq (ID: 16822549/0x0100B115) [8092*]:
    → "Hmphw! That's fine! Just mAkes sure you stays hiding when not nEEded. This is yOUr punishments, not advEnturer's!"
 64: 0x0D0A [0x23] WAIT_FOR_DIALOG_INTERACTION
 65: 0x0D0B [0x4A] Choplix Limblopper (ID: 16822550/0x0100B116) looks at LocalPlayer
 66: 0x0D14 [0x2B] Choplix Limblopper (ID: 16822550/0x0100B116) [8093*]:
    → "Ya don' haffa worrrry 'bou nothn'. Me'n my canteen'll stays outta your way ntil ycalls. <Hic!> Gooobyongooynshjsdkjl! <Hic!>"
 67: 0x0D1B [0x23] WAIT_FOR_DIALOG_INTERACTION
 68: 0x0D1C [0x6F] WAIT_FRAME_DELAY: Yield until WaitTime reaches zero
 69: 0x0D1D [0x70] WAIT_ENTITY_RENDER_FLAG: Wait while EventEntity->Render.Flags3 bit 2 is set (cancel turn if not)
 70: 0x0D1E [0x73] Choplix Limblopper (ID: 16822550/0x0100B116) casts magic 501* on Choplix Limblopper (ID: 16822550/0x0100B116)
 71: 0x0D29 [0x1C] WAIT(150* ticks)
 72: 0x0D2C [0x45] LOAD_SCHEDULED_TASK: Load scheduler "fdo2" with entities [LocalPlayer, LocalPlayer], work=[200*, 0*]
 73: 0x0D3D [0x55] WAIT_LOAD_SCHEDULER: Wait for scheduler "fdo2" with entities [LocalPlayer, LocalPlayer], work=200*
 74: 0x0D4C [0x4E] SET_ENTITY_HIDE_FLAG: Hide Choplix Limblopper (ID: 16822550/0x0100B116)
 75: 0x0D52 [0x4A] Mighty Minded Generajiq (ID: 16822549/0x0100B115) looks at LocalPlayer
 76: 0x0D5B [0x52] END_LOAD_SCHEDULER: End scheduler "s078" with entities [LocalPlayer, LocalPlayer], work=162*
 77: 0x0D6A [0x45] LOAD_SCHEDULED_TASK: Load scheduler "s079" with entities [LocalPlayer, LocalPlayer], work=[162*, 0*]
 78: 0x0D7B [0x45] LOAD_SCHEDULED_TASK: Load scheduler "fdi1" with entities [LocalPlayer, LocalPlayer], work=[200*, 0*]
 79: 0x0D8C [0x1C] WAIT(30* ticks)
 80: 0x0D8F [0x5B] LOAD_EXT_SCHEDULER: Load scheduler "pas0" with entities [Mighty Minded Generajiq (ID: 16822549/0x0100B115), Mighty Minded Generajiq (ID: 16822549/0x0100B115)], work=215*
 81: 0x0D9E [0x79] LocalPlayer looks at Mighty Minded Generajiq (ID: 16822549/0x0100B115) (Basic look)
 82: 0x0DA8 [0x2B] Mighty Minded Generajiq (ID: 16822549/0x0100B115) [8094*]:
    → "I am sOrry for that, adventurer. Please, takes the hAt."
 83: 0x0DAF [0x23] WAIT_FOR_DIALOG_INTERACTION
 84: 0x0DB0 [0x2B] Mighty Minded Generajiq (ID: 16822549/0x0100B115) [8095*]:
    → "Choplix may not looks like good dOctor, but he's best we haves in MovAlpolos."
 85: 0x0DB7 [0x23] WAIT_FOR_DIALOG_INTERACTION
 86: 0x0DB8 [0x52] END_LOAD_SCHEDULER: End scheduler "s079" with entities [LocalPlayer, LocalPlayer], work=162*
 87: 0x0DC7 [0x45] LOAD_SCHEDULED_TASK: Load scheduler "s080" with entities [LocalPlayer, LocalPlayer], work=[162*, 0*]
 88: 0x0DD8 [0x4B] UPDATE_ENTITY_YAW(entity=Mighty Minded Generajiq (ID: 16822549/0x0100B115), yaw=19.1°*)
 89: 0x0DDF [0x2B] Mighty Minded Generajiq (ID: 16822549/0x0100B115) [8096*]:
    → "Last year, there was bIg cave in near Mine Shaft #8765. Many Moblin brOthers and sisters injured badly. Doctor Chop save mAny lves."
 90: 0x0DE6 [0x23] WAIT_FOR_DIALOG_INTERACTION
 91: 0x0DE7 [0x5B] LOAD_EXT_SCHEDULER: Load scheduler "tlk0" with entities [Mighty Minded Generajiq (ID: 16822549/0x0100B115), Mighty Minded Generajiq (ID: 16822549/0x0100B115)], work=215*
 92: 0x0DF6 [0x2B] Mighty Minded Generajiq (ID: 16822549/0x0100B115) [8097*]:
    → "MAybe someday, Chop saves your life, tOO."
 93: 0x0DFD [0x23] WAIT_FOR_DIALOG_INTERACTION
 94: 0x0DFE [0x6B] STOP_AND_IDLE: Mighty Minded Generajiq (ID: 16822549/0x0100B115) stops current action and resets to idle (animation="idl0")
 95: 0x0E07 [0x52] END_LOAD_SCHEDULER: End scheduler "s080" with entities [LocalPlayer, LocalPlayer], work=162*
 96: 0x0E16 [0x45] LOAD_SCHEDULED_TASK: Load scheduler "s081" with entities [LocalPlayer, LocalPlayer], work=[162*, 0*]
 97: 0x0E27 [0x4A] Mighty Minded Generajiq (ID: 16822549/0x0100B115) looks at LocalPlayer
 98: 0x0E30 [0x2B] Mighty Minded Generajiq (ID: 16822549/0x0100B115) [8098*]:
    → "Well, I must gOes now. Generajiq's busy busy womAn. I nEEds to find a new preceptOrs, thanks to yOu! Hweh heh hwah!"
 99: 0x0E37 [0x23] WAIT_FOR_DIALOG_INTERACTION
100: 0x0E38 [0x5B] LOAD_EXT_SCHEDULER: Load scheduler "tlk0" with entities [Mighty Minded Generajiq (ID: 16822549/0x0100B115), Mighty Minded Generajiq (ID: 16822549/0x0100B115)], work=215*
101: 0x0E47 [0x2B] Mighty Minded Generajiq (ID: 16822549/0x0100B115) [8099*]:
    → "Justs kiddIng! And remEmbers, if you ever gets sick of upwOrld life, you can always comes back hEre..."
102: 0x0E4E [0x23] WAIT_FOR_DIALOG_INTERACTION
103: 0x0E4F [0x6B] STOP_AND_IDLE: Mighty Minded Generajiq (ID: 16822549/0x0100B115) stops current action and resets to idle (animation="idl0")
104: 0x0E58 [0x2B] Mighty Minded Generajiq (ID: 16822549/0x0100B115) [8100*]:
    → "It's dark, hot, mUggy, smelly, damp, mOldy, greasy, dusty, and fIlthy...what mores could you ask fOr!? Fweh hweh hwah!"
105: 0x0E5F [0x23] WAIT_FOR_DIALOG_INTERACTION
106: 0x0E60 [0x52] END_LOAD_SCHEDULER: End scheduler "s081" with entities [LocalPlayer, LocalPlayer], work=162*
107: 0x0E6F [0x45] LOAD_SCHEDULED_TASK: Load scheduler "s082" with entities [LocalPlayer, LocalPlayer], work=[162*, 0*]
108: 0x0E80 [0x2B] Mighty Minded Generajiq (ID: 16822549/0x0100B115) [8101*]:
    → "I'll sees you arOUnd, adventUrer! GoodebyOngo!"
109: 0x0E87 [0x23] WAIT_FOR_DIALOG_INTERACTION
110: 0x0E88 [0x27] REQ_SET(priority=0x0A, entity_id=Mighty Minded Generajiq (ID: 16822549/0x0100B115), tag_num=0x05)
111: 0x0E8F [0x1C] WAIT(60* ticks)
112: 0x0E92 [0x45] LOAD_SCHEDULED_TASK: Load scheduler "fdo2" with entities [LocalPlayer, LocalPlayer], work=[200*, 0*]
113: 0x0EA3 [0x55] WAIT_LOAD_SCHEDULER: Wait for scheduler "fdo2" with entities [LocalPlayer, LocalPlayer], work=200*
114: 0x0EB2 [0x46] CAMERA_CONTROL: Restore default settings
115: 0x0EB4 [0x45] LOAD_SCHEDULED_TASK: Load scheduler "qstc" with entities [LocalPlayer, LocalPlayer], work=[201*, 0*]
116: 0x0EC5 [0x45] LOAD_SCHEDULED_TASK: Load scheduler "fdi2" with entities [LocalPlayer, LocalPlayer], work=[200*, 0*]
117: 0x0ED6 [0x21] END_EVENT
118: 0x0ED7 [0x00] END_REQSTACK()
```

### Event 65

#### Metadata

| Field        | Value     |
|--------------|-----------|
| Entrypoint   | 0x0ED8    |
| Data Size    | 558 bytes |
| Instructions | 69        |

```
      00 01 02 03 04 05 06 07  08 09 0A 0B 0C 0D 0E 0F
      -- -- -- -- -- -- -- --  -- -- -- -- -- -- -- --
0ED0:                          42 46 01 5D 43 80 44 80          BF.]C.D.
0EE0: 45 45 80 F0 FF FF 7F F0  FF FF 7F 66 64 6F 31 43  EE.........fdo1C
0EF0: 80 55 45 80 F0 FF FF 7F  F0 FF FF 7F 66 64 6F 31  .UE.........fdo1
0F00: 38 46 80 37 4C 80 4D 80  4E 80 75 80 22 00 4E 00  8F.7L.M.N.u.".N.
0F10: 12 B1 00 01 1E 12 B1 00  01 5C 00 54 80 5C 01 54  .........\.T.\.T
0F20: 80 45 4B 80 F0 FF FF 7F  F0 FF FF 7F 73 30 38 35  .EK.........s085
0F30: 43 80 45 45 80 F0 FF FF  7F F0 FF FF 7F 66 64 69  C.EE.........fdi
0F40: 31 43 80 2B 12 B1 00 01  AE 80 23 2B 12 B1 00 01  1C.+......#+....
0F50: 49 80 23 45 45 80 F0 FF  FF 7F F0 FF FF 7F 66 64  I.#EE.........fd
0F60: 6F 31 43 80 55 45 80 F0  FF FF 7F F0 FF FF 7F 66  o1C.UE.........f
0F70: 64 6F 31 52 4B 80 F0 FF  FF 7F F0 FF FF 7F 73 30  do1RK.........s0
0F80: 38 35 45 4B 80 F0 FF FF  7F F0 FF FF 7F 73 30 38  85EK.........s08
0F90: 39 43 80 45 45 80 F0 FF  FF 7F F0 FF FF 7F 66 64  9C.EE.........fd
0FA0: 69 31 43 80 27 0A 12 B1  00 01 02 2B 12 B1 00 01  i1C.'......+....
0FB0: AF 80 1C 53 80 1E 12 B1  00 01 23 2B 12 B1 00 01  ...S......#+....
0FC0: B0 80 23 2A 0A 12 B1 00  01 5B 57 80 12 B1 00 01  ..#*.....[W.....
0FD0: 12 B1 00 01 74 6C 6B 30  2B 12 B1 00 01 B1 80 23  ....tlk0+......#
0FE0: 5B 57 80 12 B1 00 01 12  B1 00 01 74 6C 6B 31 52  [W.........tlk1R
0FF0: 4B 80 F0 FF FF 7F F0 FF  FF 7F 73 30 38 39 45 4B  K.........s089EK
1000: 80 F0 FF FF 7F F0 FF FF  7F 73 30 39 30 43 80 4B  .........s090C.K
1010: 12 B1 00 01 66 80 2B 12  B1 00 01 B2 80 23 5B 57  ....f.+......#[W
1020: 80 12 B1 00 01 12 B1 00  01 74 6C 6B 30 2B 12 B1  .........tlk0+..
1030: 00 01 B3 80 23 5B 57 80  12 B1 00 01 12 B1 00 01  ....#[W.........
1040: 74 6C 6B 31 2B 12 B1 00  01 B4 80 23 52 4B 80 F0  tlk1+......#RK..
1050: FF FF 7F F0 FF FF 7F 73  30 39 30 45 4B 80 F0 FF  .......s090EK...
1060: FF 7F F0 FF FF 7F 73 30  39 31 43 80 4B 12 B1 00  ......s091C.K...
1070: 01 B5 80 2B 12 B1 00 01  B6 80 23 5B 57 80 12 B1  ...+......#[W...
1080: 00 01 12 B1 00 01 74 6C  6B 30 2B 12 B1 00 01 B7  ......tlk0+.....
1090: 80 23 5B 57 80 12 B1 00  01 12 B1 00 01 74 6C 6B  .#[W.........tlk
10A0: 31 27 0A 12 B1 00 01 03  1C 44 80 5D 43 80 71 80  1'.......D.]C.q.
10B0: 45 45 80 F0 FF FF 7F F0  FF FF 7F 66 64 6F 32 43  EE.........fdo2C
10C0: 80 55 45 80 F0 FF FF 7F  F0 FF FF 7F 66 64 6F 32  .UE.........fdo2
10D0: 46 00 5C 00 72 80 5C 01  72 80 5C 02 73 80 5C 03  F.\.r.\.r.\.s.\.
10E0: 74 80 45 4F 80 F0 FF FF  7F F0 FF FF 7F 71 73 74  t.EO.........qst
10F0: 63 43 80 45 45 80 F0 FF  FF 7F F0 FF FF 7F 66 64  cC.EE.........fd
1100: 69 32 43 80 21 00                                 i2C.!.          
```

#### Opcodes

```
  0: 0x0ED8 [0x42] SET_CLI_EVENT_CANCEL_DATA()
  1: 0x0ED9 [0x46] CAMERA_CONTROL: Disable user control
  2: 0x0EDB [0x5D] SET_MUSIC_VOLUME(volume=0*, fade_time=60*)
  3: 0x0EE0 [0x45] LOAD_SCHEDULED_TASK: Load scheduler "fdo1" with entities [LocalPlayer, LocalPlayer], work=[200*, 0*]
  4: 0x0EF1 [0x55] WAIT_LOAD_SCHEDULER: Wait for scheduler "fdo1" with entities [LocalPlayer, LocalPlayer], work=200*
  5: 0x0F00 [0x38] SET_CLIENT_EVENT_MODE(mode=19*)
  6: 0x0F03 [0x37] UPDATE_EVENT_POSITION_AND_DIR: x=-319.709*, z=-261.002*, y=8.118*, direction=52.7°*
  7: 0x0F0C [0x22] ENTITY_HIDE_FLAG(enabled=0x00)
  8: 0x0F0E [0x4E] SET_ENTITY_HIDE_FLAG: Show Gu'Zho Thunderblade (ID: 16822546/0x0100B112)
  9: 0x0F14 [0x1E] EventEntity looks at Gu'Zho Thunderblade (ID: 16822546/0x0100B112) and starts talking
 10: 0x0F19 [0x5C] MUSIC_CONTROL: Set Idle (Day) music to song 163*
 11: 0x0F1D [0x5C] MUSIC_CONTROL: Set Idle (Night) music to song 163*
 12: 0x0F21 [0x45] LOAD_SCHEDULED_TASK: Load scheduler "s085" with entities [LocalPlayer, LocalPlayer], work=[162*, 0*]
 13: 0x0F32 [0x45] LOAD_SCHEDULED_TASK: Load scheduler "fdi1" with entities [LocalPlayer, LocalPlayer], work=[200*, 0*]
 14: 0x0F43 [0x2B] Gu'Zho Thunderblade (ID: 16822546/0x0100B112) [8102*]:
    → "You're fi-inally back. Where's the serjeant? I'm ready to begin my entra-ance examination."
 15: 0x0F4A [0x23] WAIT_FOR_DIALOG_INTERACTION
 16: 0x0F4B [0x2B] Gu'Zho Thunderblade (ID: 16822546/0x0100B112) [8103*]:
    → "........."
 17: 0x0F52 [0x23] WAIT_FOR_DIALOG_INTERACTION
 18: 0x0F53 [0x45] LOAD_SCHEDULED_TASK: Load scheduler "fdo1" with entities [LocalPlayer, LocalPlayer], work=[200*, 0*]
 19: 0x0F64 [0x55] WAIT_LOAD_SCHEDULER: Wait for scheduler "fdo1" with entities [LocalPlayer, LocalPlayer], work=200*
 20: 0x0F73 [0x52] END_LOAD_SCHEDULER: End scheduler "s085" with entities [LocalPlayer, LocalPlayer], work=162*
 21: 0x0F82 [0x45] LOAD_SCHEDULED_TASK: Load scheduler "s089" with entities [LocalPlayer, LocalPlayer], work=[162*, 0*]
 22: 0x0F93 [0x45] LOAD_SCHEDULED_TASK: Load scheduler "fdi1" with entities [LocalPlayer, LocalPlayer], work=[200*, 0*]
 23: 0x0FA4 [0x27] REQ_SET(priority=0x0A, entity_id=Gu'Zho Thunderblade (ID: 16822546/0x0100B112), tag_num=0x02)
 24: 0x0FAB [0x2B] Gu'Zho Thunderblade (ID: 16822546/0x0100B112) [8104*]:
    → "Make it to the ge-eneral's office on my own!? Well, she does have a po-oint..."
 25: 0x0FB2 [0x1C] WAIT(90* ticks)
 26: 0x0FB5 [0x1E] EventEntity looks at Gu'Zho Thunderblade (ID: 16822546/0x0100B112) and starts talking
 27: 0x0FBA [0x23] WAIT_FOR_DIALOG_INTERACTION
 28: 0x0FBB [0x2B] Gu'Zho Thunderblade (ID: 16822546/0x0100B112) [8105*]:
    → "<Sigh> I guess I'll be mo-oving on. I could stay, but I don't know how much lo-onger this place'll be safe."
 29: 0x0FC2 [0x23] WAIT_FOR_DIALOG_INTERACTION
 30: 0x0FC3 [0x2A] GET_REQ_LEVEL(level=10, entity_id=Gu'Zho Thunderblade (ID: 16822546/0x0100B112))
 31: 0x0FC9 [0x5B] LOAD_EXT_SCHEDULER: Load scheduler "tlk0" with entities [Gu'Zho Thunderblade (ID: 16822546/0x0100B112), Gu'Zho Thunderblade (ID: 16822546/0x0100B112)], work=227*
 32: 0x0FD8 [0x2B] Gu'Zho Thunderblade (ID: 16822546/0x0100B112) [8106*]:
    → "While you were gone, I he-eard from a passing Goblin merchant that the Adamantki-ing has put a bounty on my head and that hu-unters from around Quon are combing the de-esert lo-ooking for me...dead or alive."
 33: 0x0FDF [0x23] WAIT_FOR_DIALOG_INTERACTION
 34: 0x0FE0 [0x5B] LOAD_EXT_SCHEDULER: Load scheduler "tlk1" with entities [Gu'Zho Thunderblade (ID: 16822546/0x0100B112), Gu'Zho Thunderblade (ID: 16822546/0x0100B112)], work=227*
 35: 0x0FEF [0x52] END_LOAD_SCHEDULER: End scheduler "s089" with entities [LocalPlayer, LocalPlayer], work=162*
 36: 0x0FFE [0x45] LOAD_SCHEDULED_TASK: Load scheduler "s090" with entities [LocalPlayer, LocalPlayer], work=[162*, 0*]
 37: 0x100F [0x4B] UPDATE_ENTITY_YAW(entity=Gu'Zho Thunderblade (ID: 16822546/0x0100B112), yaw=8.9°*)
 38: 0x1016 [0x2B] Gu'Zho Thunderblade (ID: 16822546/0x0100B112) [8107*]:
    → "Here, you held up your end of the ba-argain. It's not much of a rewa-ard, but it's all I can offer."
 39: 0x101D [0x23] WAIT_FOR_DIALOG_INTERACTION
 40: 0x101E [0x5B] LOAD_EXT_SCHEDULER: Load scheduler "tlk0" with entities [Gu'Zho Thunderblade (ID: 16822546/0x0100B112), Gu'Zho Thunderblade (ID: 16822546/0x0100B112)], work=227*
 41: 0x102D [0x2B] Gu'Zho Thunderblade (ID: 16822546/0x0100B112) [8108*]:
    → "I'm going to need the re-est of my funds to hire a ship to the Eastern Empi-ires. I heard that a war is bre-ewing in those parts and they're lo-ooking for good fighters."
 42: 0x1034 [0x23] WAIT_FOR_DIALOG_INTERACTION
 43: 0x1035 [0x5B] LOAD_EXT_SCHEDULER: Load scheduler "tlk1" with entities [Gu'Zho Thunderblade (ID: 16822546/0x0100B112), Gu'Zho Thunderblade (ID: 16822546/0x0100B112)], work=227*
 44: 0x1044 [0x2B] Gu'Zho Thunderblade (ID: 16822546/0x0100B112) [8109*]:
    → "Hey, how about we go toge-- No, wait, just being se-een with me would make you an accomplice. If that happened, it wouldn't be lo-ong before a bounty was on your he-ead as well."
 45: 0x104B [0x23] WAIT_FOR_DIALOG_INTERACTION
 46: 0x104C [0x52] END_LOAD_SCHEDULER: End scheduler "s090" with entities [LocalPlayer, LocalPlayer], work=162*
 47: 0x105B [0x45] LOAD_SCHEDULED_TASK: Load scheduler "s091" with entities [LocalPlayer, LocalPlayer], work=[162*, 0*]
 48: 0x106C [0x4B] UPDATE_ENTITY_YAW(entity=Gu'Zho Thunderblade (ID: 16822546/0x0100B112), yaw=10.2°*)
 49: 0x1073 [0x2B] Gu'Zho Thunderblade (ID: 16822546/0x0100B112) [8110*]:
    → "Goodbye, adve-enturer..."
 50: 0x107A [0x23] WAIT_FOR_DIALOG_INTERACTION
 51: 0x107B [0x5B] LOAD_EXT_SCHEDULER: Load scheduler "tlk0" with entities [Gu'Zho Thunderblade (ID: 16822546/0x0100B112), Gu'Zho Thunderblade (ID: 16822546/0x0100B112)], work=227*
