# Event 269

## Metadata

| Field           | Value    |
|-----------------|----------|
| Event Index     | 2/7      |
| Offset          | 0x0001   |
| Data Size       | 37 bytes |
| Calculated Size | 37 bytes |
| Instructions    | 11       |

```
      00 01 02 03 04 05 06 07  08 09 0A 0B 0C 0D 0E 0F
      -- -- -- -- -- -- -- --  -- -- -- -- -- -- -- --
0000:    1E F0 FF FF 7F 1D 00  80 23 1D 01 80 23 5B 02   ........#...#[.
0010: 80 F8 FF FF 7F F8 FF FF  7F 61 6E 67 30 1C 03 80  .........ang0...
0020: 1D 04 80 23 21 00                                 ...#!.          
```

## Opcodes

```
  0: 0x0001 [0x1E] EventEntity looks at LocalPlayer and starts talking
  1: 0x0006 [0x1D] PRINT_EVENT_MESSAGE(message_id=10577*)
    → "Yooo know Lamiaaa?\u0007They control person after life ooover and maaake them do teeerrible things. Scary, yes?\u007F1\u0000\u0007"
  2: 0x0009 [0x23] WAIT_FOR_DIALOG_INTERACTION
  3: 0x000A [0x1D] PRINT_EVENT_MESSAGE(message_id=10578*)
    → "But Lamia no control fallen Qiqirn. Maybe they no interest?\u007F1\u0000\u0007"
  4: 0x000D [0x23] WAIT_FOR_DIALOG_INTERACTION
  5: 0x000E [0x5B] LOAD_EXT_SCHEDULER(work_offset=843*, entity1=EventEntity, entity2=EventEntity, action="ang0")
  6: 0x001D [0x1C] WAIT(30* ticks)
  7: 0x0020 [0x1D] PRINT_EVENT_MESSAGE(message_id=10579*)
    → "Why just Qiqirn? That kind of roood, no?\u007F1\u0000\u0007"
  8: 0x0023 [0x23] WAIT_FOR_DIALOG_INTERACTION
  9: 0x0024 [0x21] END_EVENT
 10: 0x0025 [0x00] END_REQSTACK()
```
