# 16785745 - Chuaie

## Common Data

| Field            | Value                       |
|------------------|-----------------------------|
| Zone             | Carpenters' Landing (ID: 2) |
| Block Size       | 208 bytes                   |
| Total Events     | 2                           |
| References Count | 13                          |

## List of Events

| Event ID              | Entrypoint   |   Size |   Instructions |
|-----------------------|--------------|--------|----------------|
| [65535](#event-65535) | 0x0000       |      1 |              1 |
| [18](#event-18)       | 0x0001       |    128 |             38 |

## DAT References (imed_data)

|   Index | Hex Value   |   Dec Value |
|---------|-------------|-------------|
|       0 | 0x1D3C      |        7484 |
|       1 | 0x0090      |         144 |
|       2 | 0x003C      |          60 |
|       3 | 0x0000      |           0 |
|       4 | 0x1D39      |        7481 |
|       5 | 0x0001      |           1 |
|       6 | 0x1D38      |        7480 |
|       7 | 0x0002      |           2 |
|       8 | 0x1C48      |        7240 |
|       9 | 0x1D3B      |        7483 |
|      10 | 0x1D3A      |        7482 |
|      11 | 0x0003      |           3 |
|      12 | 0x1C49      |        7241 |

## String References

- **7240**: The next barge is about to arrive. However, it is out-of-service and will not be accepting passengers.
- **7241**: This barge is out-of-service. It is not accepting passengers.
- **7480**: The barge bound for [South Landing via Newtpool/Central Landing via the Emfea Waterway/North Landing via the main canal/Central Landing via the main canal] will [arrive/depart] in [less than an hour/about 1 hour/about 2 hours/about 3 hours/about 4 hours/about 5 hours/about 6 hours/about 7 hours/about 8 hours/about 9 hours/about 10 hours/about 11 hours/about 12 hours/about 13 hours/about 14 hours/about 15 hours/about 16 hours/about 17 hours/about 18 hours/about 19 hours/about 20 hours/about 21 hours/about 22 hours/about 23 hours/about 24 hours] ($0 [minute/minutes] in Earth time).
- **7481**: The ship bound for [South Landing via Newtpool/Central Landing via the Emfea Waterway/North Landing via the main canal/Central Landing via the main canal] is now [arriving/departing].
- **7482**: The next barge will arrive in [less than an hour/about 1 hour/about 2 hours/about 3 hours/about 4 hours/about 5 hours/about 6 hours/about 7 hours/about 8 hours/about 9 hours/about 10 hours/about 11 hours/about 12 hours/about 13 hours/about 14 hours/about 15 hours/about 16 hours/about 17 hours/about 18 hours/about 19 hours/about 20 hours/about 21 hours/about 22 hours/about 23 hours/about 24 hours] ($0 [minute/minutes] in Earth time). However, it is out-of-service, and will not be accepting passengers.
- **7483**: If you can wait, a barge bound for [South Landing via Newtpool/Central Landing via the Emfea Waterway/North Landing via the main canal/Central Landing via the main canal] will be arriving soon after that one.
- **7484**: Welcome to South Landing.

## Events

### Event 65535

#### Metadata

| Field        | Value   |
|--------------|---------|
| Entrypoint   | 0x0000  |
| Data Size    | 1 bytes |
| Instructions | 1       |

```
      00 01 02 03 04 05 06 07  08 09 0A 0B 0C 0D 0E 0F
      -- -- -- -- -- -- -- --  -- -- -- -- -- -- -- --
0000: 00                                                .               
```

#### Opcodes

```
  0: 0x0000 [0x00] END_REQSTACK()
```

### Event 18

#### Metadata

| Field        | Value     |
|--------------|-----------|
| Entrypoint   | 0x0001    |
| Data Size    | 128 bytes |
| Instructions | 38        |

```
      00 01 02 03 04 05 06 07  08 09 0A 0B 0C 0D 0E 0F
      -- -- -- -- -- -- -- --  -- -- -- -- -- -- -- --
0000:    1E F0 FF FF 7F 1D 00  80 23 03 04 10 02 10 15   ........#......
0010: 04 10 01 80 15 02 10 02  80 02 03 10 03 80 80 28  ...............(
0020: 00 1D 04 80 23 01 7F 00  02 03 10 05 80 80 46 00  ....#.........F.
0030: 02 02 10 03 80 00 3F 00  1D 04 80 23 01 43 00 1D  ......?....#.C..
0040: 06 80 23 01 7F 00 02 03  10 07 80 80 6C 00 02 02  ..#.........l...
0050: 10 03 80 00 61 00 1D 08  80 23 1D 09 80 23 01 69  ....a....#...#.i
0060: 00 1D 0A 80 23 1D 09 80  23 01 7F 00 02 03 10 0B  ....#...#.......
0070: 80 80 7F 00 1D 0C 80 23  1D 09 80 23 01 7F 00 21  .......#...#...!
0080: 00                                                .               
```

#### Opcodes

```
  0: 0x0001 [0x1E] EventEntity looks at LocalPlayer and starts talking
  1: 0x0006 [0x1D] PRINT_EVENT_MESSAGE(message_id=7484*)
    → "Welcome to South Landing."
  2: 0x0009 [0x23] WAIT_FOR_DIALOG_INTERACTION
  3: 0x000A [0x03] Work_Zone[4] = Work_Zone[2]
  4: 0x000F [0x15] Work_Zone[4] /= 144*
  5: 0x0014 [0x15] Work_Zone[2] /= 60*
  6: 0x0019 [0x02] IF !(Work_Zone[3] == 0*) GOTO 0x0028
  7: 0x0021 [0x1D] PRINT_EVENT_MESSAGE(message_id=7481*)
    → "The ship bound for [South Landing via Newtpool/Central Landing via the Emfea Waterway/North Landing via the main canal/Central Landing via the main canal] is now [arriving/departing]."
  8: 0x0024 [0x23] WAIT_FOR_DIALOG_INTERACTION
  9: 0x0025 [0x01] GOTO 0x007F
 10: 0x0028 [0x02] IF !(Work_Zone[3] == 1*) GOTO 0x0046
 11: 0x0030 [0x02] IF !(Work_Zone[2] == 0*) GOTO 0x003F
 12: 0x0038 [0x1D] PRINT_EVENT_MESSAGE(message_id=7481*)
    → "The ship bound for [South Landing via Newtpool/Central Landing via the Emfea Waterway/North Landing via the main canal/Central Landing via the main canal] is now [arriving/departing]."
 13: 0x003B [0x23] WAIT_FOR_DIALOG_INTERACTION
 14: 0x003C [0x01] GOTO 0x0043
 15: 0x003F [0x1D] PRINT_EVENT_MESSAGE(message_id=7480*)
    → "The barge bound for [South Landing via Newtpool/Central Landing via the Emfea Waterway/North Landing via the main canal/Central Landing via the main canal] will [arrive/depart] in [less than an hour/about 1 hour/about 2 hours/about 3 hours/about 4 hours/about 5 hours/about 6 hours/about 7 hours/about 8 hours/about 9 hours/about 10 hours/about 11 hours/about 12 hours/about 13 hours/about 14 hours/about 15 hours/about 16 hours/about 17 hours/about 18 hours/about 19 hours/about 20 hours/about 21 hours/about 22 hours/about 23 hours/about 24 hours] ($0 [minute/minutes] in Earth time)."
 16: 0x0042 [0x23] WAIT_FOR_DIALOG_INTERACTION

SUBROUTINE_0043:
 17: 0x0043 [0x01] GOTO 0x007F
 18: 0x0046 [0x02] IF !(Work_Zone[3] == 2*) GOTO 0x006C
 19: 0x004E [0x02] IF !(Work_Zone[2] == 0*) GOTO 0x0061
 20: 0x0056 [0x1D] PRINT_EVENT_MESSAGE(message_id=7240*)
    → "The next barge is about to arrive. However, it is out-of-service and will not be accepting passengers."
 21: 0x0059 [0x23] WAIT_FOR_DIALOG_INTERACTION
 22: 0x005A [0x1D] PRINT_EVENT_MESSAGE(message_id=7483*)
    → "If you can wait, a barge bound for [South Landing via Newtpool/Central Landing via the Emfea Waterway/North Landing via the main canal/Central Landing via the main canal] will be arriving soon after that one."
 23: 0x005D [0x23] WAIT_FOR_DIALOG_INTERACTION
 24: 0x005E [0x01] GOTO 0x0069
 25: 0x0061 [0x1D] PRINT_EVENT_MESSAGE(message_id=7482*)
    → "The next barge will arrive in [less than an hour/about 1 hour/about 2 hours/about 3 hours/about 4 hours/about 5 hours/about 6 hours/about 7 hours/about 8 hours/about 9 hours/about 10 hours/about 11 hours/about 12 hours/about 13 hours/about 14 hours/about 15 hours/about 16 hours/about 17 hours/about 18 hours/about 19 hours/about 20 hours/about 21 hours/about 22 hours/about 23 hours/about 24 hours] ($0 [minute/minutes] in Earth time). However, it is out-of-service, and will not be accepting passengers."
 26: 0x0064 [0x23] WAIT_FOR_DIALOG_INTERACTION
 27: 0x0065 [0x1D] PRINT_EVENT_MESSAGE(message_id=7483*)
    → "If you can wait, a barge bound for [South Landing via Newtpool/Central Landing via the Emfea Waterway/North Landing via the main canal/Central Landing via the main canal] will be arriving soon after that one."
 28: 0x0068 [0x23] WAIT_FOR_DIALOG_INTERACTION

SUBROUTINE_0069:
 29: 0x0069 [0x01] GOTO 0x007F
 30: 0x006C [0x02] IF !(Work_Zone[3] == 3*) GOTO 0x007F
 31: 0x0074 [0x1D] PRINT_EVENT_MESSAGE(message_id=7241*)
    → "This barge is out-of-service. It is not accepting passengers."
 32: 0x0077 [0x23] WAIT_FOR_DIALOG_INTERACTION
 33: 0x0078 [0x1D] PRINT_EVENT_MESSAGE(message_id=7483*)
    → "If you can wait, a barge bound for [South Landing via Newtpool/Central Landing via the Emfea Waterway/North Landing via the main canal/Central Landing via the main canal] will be arriving soon after that one."
 34: 0x007B [0x23] WAIT_FOR_DIALOG_INTERACTION
 35: 0x007C [0x01] GOTO 0x007F

SUBROUTINE_007F:
 36: 0x007F [0x21] END_EVENT
 37: 0x0080 [0x00] END_REQSTACK()
```
