# 16785772 - Anguenet

## Common Data

| Field            | Value                       |
|------------------|-----------------------------|
| Zone             | Carpenters' Landing (ID: 2) |
| Block Size       | 1620 bytes                  |
| Total Events     | 38                          |
| References Count | 41                          |

## List of Events

| Event ID                   | Entrypoint   |   Size |   Instructions |
|----------------------------|--------------|--------|----------------|
| [65535](#event-65535)      | 0x0000       |      1 |              1 |
| [65535.1](#event-655351)   | 0x0001       |     16 |              2 |
| [65535.2](#event-655352)   | 0x0011       |     14 |              2 |
| [65535.3](#event-655353)   | 0x001F       |     16 |              2 |
| [65535.4](#event-655354)   | 0x002F       |     14 |              2 |
| [65535.5](#event-655355)   | 0x003D       |     16 |              2 |
| [65535.6](#event-655356)   | 0x004D       |     14 |              2 |
| [65535.7](#event-655357)   | 0x005B       |     16 |              2 |
| [65535.8](#event-655358)   | 0x006B       |     14 |              2 |
| [65535.9](#event-655359)   | 0x0079       |     16 |              2 |
| [65535.10](#event-6553510) | 0x0089       |     14 |              2 |
| [65535.11](#event-6553511) | 0x0097       |     16 |              2 |
| [65535.12](#event-6553512) | 0x00A7       |     14 |              2 |
| [65535.13](#event-6553513) | 0x00B5       |     16 |              2 |
| [65535.14](#event-6553514) | 0x00C5       |     14 |              2 |
| [65535.15](#event-6553515) | 0x00D3       |     16 |              2 |
| [65535.16](#event-6553516) | 0x00E3       |     14 |              2 |
| [65535.17](#event-6553517) | 0x00F1       |     16 |              2 |
| [65535.18](#event-6553518) | 0x0101       |     14 |              2 |
| [65535.19](#event-6553519) | 0x010F       |     16 |              2 |
| [65535.20](#event-6553520) | 0x011F       |     14 |              2 |
| [65535.21](#event-6553521) | 0x012D       |     16 |              2 |
| [65535.22](#event-6553522) | 0x013D       |     14 |              2 |
| [65535.23](#event-6553523) | 0x014B       |     16 |              2 |
| [65535.24](#event-6553524) | 0x015B       |     14 |              2 |
| [65535.25](#event-6553525) | 0x0169       |     16 |              2 |
| [65535.26](#event-6553526) | 0x0179       |     14 |              2 |
| [65535.27](#event-6553527) | 0x0187       |     16 |              2 |
| [65535.28](#event-6553528) | 0x0197       |     14 |              2 |
| [65535.29](#event-6553529) | 0x01A5       |     16 |              2 |
| [65535.30](#event-6553530) | 0x01B5       |     14 |              2 |
| [21](#event-21)            | 0x01C3       |    350 |             89 |
| [23](#event-23)            | 0x0321       |    349 |             88 |
| [27](#event-27)            | 0x047E       |      1 |              1 |
| [65535.31](#event-6553531) | 0x047F       |     15 |              5 |
| [28](#event-28)            | 0x048E       |     29 |             10 |
| [29](#event-29)            | 0x04AB       |     56 |             19 |
| [35](#event-35)            | 0x04E3       |     37 |             14 |

## DAT References (imed_data)

|   Index | Hex Value   |   Dec Value |
|---------|-------------|-------------|
|       0 | 0x0014      |          20 |
|       1 | 0x0015      |          21 |
|       2 | 0x001A      |          26 |
|       3 | 0x001B      |          27 |
|       4 | 0x001D      |          29 |
|       5 | 0x1CF5      |        7413 |
|       6 | 0x1CF6      |        7414 |
|       7 | 0x1CF7      |        7415 |
|       8 | 0x1CF8      |        7416 |
|       9 | 0x1CF9      |        7417 |
|      10 | 0x0000      |           0 |
|      11 | 0x0001      |           1 |
|      12 | 0x0002      |           2 |
|      13 | 0x1D05      |        7429 |
|      14 | 0x1D06      |        7430 |
|      15 | 0x1D07      |        7431 |
|      16 | 0x1D08      |        7432 |
|      17 | 0x1D09      |        7433 |
|      18 | 0x1D0A      |        7434 |
|      19 | 0x0003      |           3 |
|      20 | 0x1D00      |        7424 |
|      21 | 0x1D01      |        7425 |
|      22 | 0x1D02      |        7426 |
|      23 | 0x1D03      |        7427 |
|      24 | 0x1D04      |        7428 |
|      25 | 0x0004      |           4 |
|      26 | 0x1CFA      |        7418 |
|      27 | 0x1CFB      |        7419 |
|      28 | 0x1CFC      |        7420 |
|      29 | 0x1CFD      |        7421 |
|      30 | 0x1CFE      |        7422 |
|      31 | 0x1CFF      |        7423 |
|      32 | 0x000D      |          13 |
|      33 | 0x34EAB     |      216747 |
|      34 | 0xFFF7ECC0  |  4294438080 |
|      35 | 0xFFFFF81B  |  4294965275 |
|      36 | 0x1D33      |        7475 |
|      37 | 0x1D34      |        7476 |
|      38 | 0x1D35      |        7477 |
|      39 | 0x1D36      |        7478 |
|      40 | 0x1D37      |        7479 |

## String References

- **7413**: Well, what have we here? An adventurer, by chance?
- **7414**: I am Anguenet.
- **7415**: My job here at the Carpenters' Landing is to make your short trip on the channel as enjoyable as possible.
- **7416**: Shall I give you an idea of the different routes the barge follows?
- **7417**: Hear an explanation of the routes? [That won't be necessary./The main canal./The Emfea Waterway./Newtpool.]
- **7418**: We leave Central Landing and embark on a leisurely southern course for South Landing. Our route takes us through Newtpool, which as the name suggests, is literally squirming with newts.
- **7419**: This is the birthplace of "frog-fishing," an activity requiring the use of live flies.
- **7420**: The Newtpool route is extraordinarily popular with fisherman of all shapes and sizes all year round.
- **7421**: Ah yes--if you happen to catch yourself a brownish newt, a $1, hand it over to my vertically challenged partner over there.
- **7422**: He is a man of few words, but I can assure you his delicious charred newts reflect his unwavering devotion towards pleasing our customers.
- **7423**: These mouthwatering delicacies are a treat for young and old. In particular, Mithran customers are always showering our diminutive chef with compliments, and pestering him for the names of his secret spices.
- **7424**: We leave South Landing and head northwards to Central Landing through the narrow and winding Emfea Waterway. This is the most exciting route.
- **7425**: At times, the barge comes to within several ilms of the cliffs on both sides, causing not a few sweaty palms among the passengers...
- **7426**: But please, do not be alarmed. Our experienced captain is the best in the guild, and a safe journey is guaranteed.
- **7427**: This waterway is the oldest part of the channel, and its depths teem with rare fish peculiar to this area.
- **7428**: Those passengers that have come for a spot of fishing will not go home disappointed. The Emfea Waterway route is an experience not to be missed.
- **7429**: We leave from South Landing and head for North Landing, following the main waterway of the Phanauet Channel. This is the longest of the three routes.
- **7430**: This canal is the Phanauet Channel's newest and widest waterway.
- **7431**: Its waters are used by the Carpenters' Guild to bring in wood and ship out processed lumber--week in, week out.
- **7432**: Please pay careful attention to the eastern cliff. You will be able to witness the gentle waterfalls that are one of the main attractions of this route.
- **7433**: This canal is also home to an abundant variety of fish, providing a distraction for even the novice fisherman.
- **7434**: Enjoy the bounties of nature on the Carpenters' Guild barge.
- **7475**: Bring me $1 if you want to speak to the Tonberries.
- **7476**: Your contribution is most appreciated. And here is my end of the bargain.
- **7477**: This is the blackboard we use when communicating with the Tonberry, Riche.
- **7478**: Riche rarely speaks, but he can be convinced to write a few words.
- **7479**: Just remember to complete your business before the barge reaches the cliffs. The Tonberries have work to attend to.

## Events

### Event 65535

#### Metadata

| Field        | Value   |
|--------------|---------|
| Entrypoint   | 0x0000  |
| Data Size    | 1 bytes |
| Instructions | 1       |

```
      00 01 02 03 04 05 06 07  08 09 0A 0B 0C 0D 0E 0F
      -- -- -- -- -- -- -- --  -- -- -- -- -- -- -- --
0000: 00                                                .               
```

#### Opcodes

```
  0: 0x0000 [0x00] END_REQSTACK()
```

### Event 65535.1

#### Metadata

| Field        | Value    |
|--------------|----------|
| Entrypoint   | 0x0001   |
| Data Size    | 16 bytes |
| Instructions | 2        |

```
      00 01 02 03 04 05 06 07  08 09 0A 0B 0C 0D 0E 0F
      -- -- -- -- -- -- -- --  -- -- -- -- -- -- -- --
0000:    66 00 80 F8 FF FF 7F  F8 FF FF 7F 74 6C 6B 30   f..........tlk0
0010: 00                                                .               
```

#### Opcodes

```
  0: 0x0001 [0x66] LOAD_EXT_SCHEDULER_MAIN: Load scheduler "tlk0" with entities [EventEntity, EventEntity], work=20*
  1: 0x0010 [0x00] END_REQSTACK()
```

### Event 65535.2

#### Metadata

| Field        | Value    |
|--------------|----------|
| Entrypoint   | 0x0011   |
| Data Size    | 14 bytes |
| Instructions | 2        |

```
      00 01 02 03 04 05 06 07  08 09 0A 0B 0C 0D 0E 0F
      -- -- -- -- -- -- -- --  -- -- -- -- -- -- -- --
0010:    53 F8 FF FF 7F F8 FF  FF 7F 74 6C 6B 30 00      S........tlk0. 
```

#### Opcodes

```
  0: 0x0011 [0x53] WAIT_SCHEDULER_TASK: Wait for scheduler "tlk0" with entities [EventEntity, EventEntity]
  1: 0x001E [0x00] END_REQSTACK()
```

### Event 65535.3

#### Metadata

| Field        | Value    |
|--------------|----------|
| Entrypoint   | 0x001F   |
| Data Size    | 16 bytes |
| Instructions | 2        |

```
      00 01 02 03 04 05 06 07  08 09 0A 0B 0C 0D 0E 0F
      -- -- -- -- -- -- -- --  -- -- -- -- -- -- -- --
0010:                                               66                 f
0020: 00 80 F8 FF FF 7F F8 FF  FF 7F 74 6C 6B 31 00     ..........tlk1. 
```

#### Opcodes

```
  0: 0x001F [0x66] LOAD_EXT_SCHEDULER_MAIN: Load scheduler "tlk1" with entities [EventEntity, EventEntity], work=20*
  1: 0x002E [0x00] END_REQSTACK()
```

### Event 65535.4

#### Metadata

| Field        | Value    |
|--------------|----------|
| Entrypoint   | 0x002F   |
| Data Size    | 14 bytes |
| Instructions | 2        |

```
      00 01 02 03 04 05 06 07  08 09 0A 0B 0C 0D 0E 0F
      -- -- -- -- -- -- -- --  -- -- -- -- -- -- -- --
0020:                                               53                 S
0030: F8 FF FF 7F F8 FF FF 7F  74 6C 6B 31 00           ........tlk1.   
```

#### Opcodes

```
  0: 0x002F [0x53] WAIT_SCHEDULER_TASK: Wait for scheduler "tlk1" with entities [EventEntity, EventEntity]
  1: 0x003C [0x00] END_REQSTACK()
```

### Event 65535.5

#### Metadata

| Field        | Value    |
|--------------|----------|
| Entrypoint   | 0x003D   |
| Data Size    | 16 bytes |
| Instructions | 2        |

```
      00 01 02 03 04 05 06 07  08 09 0A 0B 0C 0D 0E 0F
      -- -- -- -- -- -- -- --  -- -- -- -- -- -- -- --
0030:                                         66 00 80               f..
0040: F8 FF FF 7F F8 FF FF 7F  74 68 6B 31 00           ........thk1.   
```

#### Opcodes

```
  0: 0x003D [0x66] LOAD_EXT_SCHEDULER_MAIN: Load scheduler "thk1" with entities [EventEntity, EventEntity], work=20*
  1: 0x004C [0x00] END_REQSTACK()
```

### Event 65535.6

#### Metadata

| Field        | Value    |
|--------------|----------|
| Entrypoint   | 0x004D   |
| Data Size    | 14 bytes |
| Instructions | 2        |

```
      00 01 02 03 04 05 06 07  08 09 0A 0B 0C 0D 0E 0F
      -- -- -- -- -- -- -- --  -- -- -- -- -- -- -- --
0040:                                         53 F8 FF               S..
0050: FF 7F F8 FF FF 7F 74 68  6B 31 00                 ......thk1.     
```

#### Opcodes

```
  0: 0x004D [0x53] WAIT_SCHEDULER_TASK: Wait for scheduler "thk1" with entities [EventEntity, EventEntity]
  1: 0x005A [0x00] END_REQSTACK()
```

### Event 65535.7

#### Metadata

| Field        | Value    |
|--------------|----------|
| Entrypoint   | 0x005B   |
| Data Size    | 16 bytes |
| Instructions | 2        |

```
      00 01 02 03 04 05 06 07  08 09 0A 0B 0C 0D 0E 0F
      -- -- -- -- -- -- -- --  -- -- -- -- -- -- -- --
0050:                                   66 00 80 F8 FF             f....
0060: FF 7F F8 FF FF 7F 74 68  6B 32 00                 ......thk2.     
```

#### Opcodes

```
  0: 0x005B [0x66] LOAD_EXT_SCHEDULER_MAIN: Load scheduler "thk2" with entities [EventEntity, EventEntity], work=20*
  1: 0x006A [0x00] END_REQSTACK()
```

### Event 65535.8

#### Metadata

| Field        | Value    |
|--------------|----------|
| Entrypoint   | 0x006B   |
| Data Size    | 14 bytes |
| Instructions | 2        |

```
      00 01 02 03 04 05 06 07  08 09 0A 0B 0C 0D 0E 0F
      -- -- -- -- -- -- -- --  -- -- -- -- -- -- -- --
0060:                                   53 F8 FF FF 7F             S....
0070: F8 FF FF 7F 74 68 6B 32  00                       ....thk2.       
```

#### Opcodes

```
  0: 0x006B [0x53] WAIT_SCHEDULER_TASK: Wait for scheduler "thk2" with entities [EventEntity, EventEntity]
  1: 0x0078 [0x00] END_REQSTACK()
```

### Event 65535.9

#### Metadata

| Field        | Value    |
|--------------|----------|
| Entrypoint   | 0x0079   |
| Data Size    | 16 bytes |
| Instructions | 2        |

```
      00 01 02 03 04 05 06 07  08 09 0A 0B 0C 0D 0E 0F
      -- -- -- -- -- -- -- --  -- -- -- -- -- -- -- --
0070:                             66 00 80 F8 FF FF 7F           f......
0080: F8 FF FF 7F 70 61 73 30  00                       ....pas0.       
```

#### Opcodes

```
  0: 0x0079 [0x66] LOAD_EXT_SCHEDULER_MAIN: Load scheduler "pas0" with entities [EventEntity, EventEntity], work=20*
  1: 0x0088 [0x00] END_REQSTACK()
```

### Event 65535.10

#### Metadata

| Field        | Value    |
|--------------|----------|
| Entrypoint   | 0x0089   |
| Data Size    | 14 bytes |
| Instructions | 2        |

```
      00 01 02 03 04 05 06 07  08 09 0A 0B 0C 0D 0E 0F
      -- -- -- -- -- -- -- --  -- -- -- -- -- -- -- --
0080:                             53 F8 FF FF 7F F8 FF           S......
0090: FF 7F 70 61 73 30 00                              ..pas0.         
```

#### Opcodes

```
  0: 0x0089 [0x53] WAIT_SCHEDULER_TASK: Wait for scheduler "pas0" with entities [EventEntity, EventEntity]
  1: 0x0096 [0x00] END_REQSTACK()
```

### Event 65535.11

#### Metadata

| Field        | Value    |
|--------------|----------|
| Entrypoint   | 0x0097   |
| Data Size    | 16 bytes |
| Instructions | 2        |

```
      00 01 02 03 04 05 06 07  08 09 0A 0B 0C 0D 0E 0F
      -- -- -- -- -- -- -- --  -- -- -- -- -- -- -- --
0090:                      66  01 80 F8 FF FF 7F F8 FF         f........
00A0: FF 7F 70 6F 69 30 00                              ..poi0.         
```

#### Opcodes

```
  0: 0x0097 [0x66] LOAD_EXT_SCHEDULER_MAIN: Load scheduler "poi0" with entities [EventEntity, EventEntity], work=21*
  1: 0x00A6 [0x00] END_REQSTACK()
```

### Event 65535.12

#### Metadata

| Field        | Value    |
|--------------|----------|
| Entrypoint   | 0x00A7   |
| Data Size    | 14 bytes |
| Instructions | 2        |

```
      00 01 02 03 04 05 06 07  08 09 0A 0B 0C 0D 0E 0F
      -- -- -- -- -- -- -- --  -- -- -- -- -- -- -- --
00A0:                      53  F8 FF FF 7F F8 FF FF 7F         S........
00B0: 70 6F 69 30 00                                    poi0.           
```

#### Opcodes

```
  0: 0x00A7 [0x53] WAIT_SCHEDULER_TASK: Wait for scheduler "poi0" with entities [EventEntity, EventEntity]
  1: 0x00B4 [0x00] END_REQSTACK()
```

### Event 65535.13

#### Metadata

| Field        | Value    |
|--------------|----------|
| Entrypoint   | 0x00B5   |
| Data Size    | 16 bytes |
| Instructions | 2        |

```
      00 01 02 03 04 05 06 07  08 09 0A 0B 0C 0D 0E 0F
      -- -- -- -- -- -- -- --  -- -- -- -- -- -- -- --
00B0:                66 01 80  F8 FF FF 7F F8 FF FF 7F       f..........
00C0: 70 6F 69 31 00                                    poi1.           
```

#### Opcodes

```
  0: 0x00B5 [0x66] LOAD_EXT_SCHEDULER_MAIN: Load scheduler "poi1" with entities [EventEntity, EventEntity], work=21*
  1: 0x00C4 [0x00] END_REQSTACK()
```

### Event 65535.14

#### Metadata

| Field        | Value    |
|--------------|----------|
| Entrypoint   | 0x00C5   |
| Data Size    | 14 bytes |
| Instructions | 2        |

```
      00 01 02 03 04 05 06 07  08 09 0A 0B 0C 0D 0E 0F
      -- -- -- -- -- -- -- --  -- -- -- -- -- -- -- --
00C0:                53 F8 FF  FF 7F F8 FF FF 7F 70 6F       S........po
00D0: 69 31 00                                          i1.             
```

#### Opcodes

```
  0: 0x00C5 [0x53] WAIT_SCHEDULER_TASK: Wait for scheduler "poi1" with entities [EventEntity, EventEntity]
  1: 0x00D2 [0x00] END_REQSTACK()
```

### Event 65535.15

#### Metadata

| Field        | Value    |
|--------------|----------|
| Entrypoint   | 0x00D3   |
| Data Size    | 16 bytes |
| Instructions | 2        |

```
      00 01 02 03 04 05 06 07  08 09 0A 0B 0C 0D 0E 0F
      -- -- -- -- -- -- -- --  -- -- -- -- -- -- -- --
00D0:          66 01 80 F8 FF  FF 7F F8 FF FF 7F 64 69     f..........di
00E0: 73 30 00                                          s0.             
```

#### Opcodes

```
  0: 0x00D3 [0x66] LOAD_EXT_SCHEDULER_MAIN: Load scheduler "dis0" with entities [EventEntity, EventEntity], work=21*
  1: 0x00E2 [0x00] END_REQSTACK()
```

### Event 65535.16

#### Metadata

| Field        | Value    |
|--------------|----------|
| Entrypoint   | 0x00E3   |
| Data Size    | 14 bytes |
| Instructions | 2        |

```
      00 01 02 03 04 05 06 07  08 09 0A 0B 0C 0D 0E 0F
      -- -- -- -- -- -- -- --  -- -- -- -- -- -- -- --
00E0:          53 F8 FF FF 7F  F8 FF FF 7F 64 69 73 30     S........dis0
00F0: 00                                                .               
```

#### Opcodes

```
  0: 0x00E3 [0x53] WAIT_SCHEDULER_TASK: Wait for scheduler "dis0" with entities [EventEntity, EventEntity]
  1: 0x00F0 [0x00] END_REQSTACK()
```

### Event 65535.17

#### Metadata

| Field        | Value    |
|--------------|----------|
| Entrypoint   | 0x00F1   |
| Data Size    | 16 bytes |
| Instructions | 2        |

```
      00 01 02 03 04 05 06 07  08 09 0A 0B 0C 0D 0E 0F
      -- -- -- -- -- -- -- --  -- -- -- -- -- -- -- --
00F0:    66 02 80 F8 FF FF 7F  F8 FF FF 7F 6F 72 6F 30   f..........oro0
0100: 00                                                .               
```

#### Opcodes

```
  0: 0x00F1 [0x66] LOAD_EXT_SCHEDULER_MAIN: Load scheduler "oro0" with entities [EventEntity, EventEntity], work=26*
  1: 0x0100 [0x00] END_REQSTACK()
```

### Event 65535.18

#### Metadata

| Field        | Value    |
|--------------|----------|
| Entrypoint   | 0x0101   |
| Data Size    | 14 bytes |
| Instructions | 2        |

```
      00 01 02 03 04 05 06 07  08 09 0A 0B 0C 0D 0E 0F
      -- -- -- -- -- -- -- --  -- -- -- -- -- -- -- --
0100:    53 F8 FF FF 7F F8 FF  FF 7F 6F 72 6F 30 00      S........oro0. 
```

#### Opcodes

```
  0: 0x0101 [0x53] WAIT_SCHEDULER_TASK: Wait for scheduler "oro0" with entities [EventEntity, EventEntity]
  1: 0x010E [0x00] END_REQSTACK()
```

### Event 65535.19

#### Metadata

| Field        | Value    |
|--------------|----------|
| Entrypoint   | 0x010F   |
| Data Size    | 16 bytes |
| Instructions | 2        |

```
      00 01 02 03 04 05 06 07  08 09 0A 0B 0C 0D 0E 0F
      -- -- -- -- -- -- -- --  -- -- -- -- -- -- -- --
0100:                                               66                 f
0110: 02 80 F8 FF FF 7F F8 FF  FF 7F 6F 72 6F 31 00     ..........oro1. 
```

#### Opcodes

```
  0: 0x010F [0x66] LOAD_EXT_SCHEDULER_MAIN: Load scheduler "oro1" with entities [EventEntity, EventEntity], work=26*
  1: 0x011E [0x00] END_REQSTACK()
```

### Event 65535.20

#### Metadata

| Field        | Value    |
|--------------|----------|
| Entrypoint   | 0x011F   |
| Data Size    | 14 bytes |
| Instructions | 2        |

```
      00 01 02 03 04 05 06 07  08 09 0A 0B 0C 0D 0E 0F
      -- -- -- -- -- -- -- --  -- -- -- -- -- -- -- --
0110:                                               53                 S
0120: F8 FF FF 7F F8 FF FF 7F  6F 72 6F 31 00           ........oro1.   
```

#### Opcodes

```
  0: 0x011F [0x53] WAIT_SCHEDULER_TASK: Wait for scheduler "oro1" with entities [EventEntity, EventEntity]
  1: 0x012C [0x00] END_REQSTACK()
```

### Event 65535.21

#### Metadata

| Field        | Value    |
|--------------|----------|
| Entrypoint   | 0x012D   |
| Data Size    | 16 bytes |
| Instructions | 2        |

```
      00 01 02 03 04 05 06 07  08 09 0A 0B 0C 0D 0E 0F
      -- -- -- -- -- -- -- --  -- -- -- -- -- -- -- --
0120:                                         66 03 80               f..
0130: F8 FF FF 7F F8 FF FF 7F  74 6C 62 30 00           ........tlb0.   
```

#### Opcodes

```
  0: 0x012D [0x66] LOAD_EXT_SCHEDULER_MAIN: Load scheduler "tlb0" with entities [EventEntity, EventEntity], work=27*
  1: 0x013C [0x00] END_REQSTACK()
```

### Event 65535.22

#### Metadata

| Field        | Value    |
|--------------|----------|
| Entrypoint   | 0x013D   |
| Data Size    | 14 bytes |
| Instructions | 2        |

```
      00 01 02 03 04 05 06 07  08 09 0A 0B 0C 0D 0E 0F
      -- -- -- -- -- -- -- --  -- -- -- -- -- -- -- --
0130:                                         53 F8 FF               S..
0140: FF 7F F8 FF FF 7F 74 6C  62 30 00                 ......tlb0.     
```

#### Opcodes

```
  0: 0x013D [0x53] WAIT_SCHEDULER_TASK: Wait for scheduler "tlb0" with entities [EventEntity, EventEntity]
  1: 0x014A [0x00] END_REQSTACK()
```

### Event 65535.23

#### Metadata

| Field        | Value    |
|--------------|----------|
| Entrypoint   | 0x014B   |
| Data Size    | 16 bytes |
| Instructions | 2        |

```
      00 01 02 03 04 05 06 07  08 09 0A 0B 0C 0D 0E 0F
      -- -- -- -- -- -- -- --  -- -- -- -- -- -- -- --
0140:                                   66 03 80 F8 FF             f....
0150: FF 7F F8 FF FF 7F 74 6C  62 31 00                 ......tlb1.     
```

#### Opcodes

```
  0: 0x014B [0x66] LOAD_EXT_SCHEDULER_MAIN: Load scheduler "tlb1" with entities [EventEntity, EventEntity], work=27*
  1: 0x015A [0x00] END_REQSTACK()
```

### Event 65535.24

#### Metadata

| Field        | Value    |
|--------------|----------|
| Entrypoint   | 0x015B   |
| Data Size    | 14 bytes |
| Instructions | 2        |

```
      00 01 02 03 04 05 06 07  08 09 0A 0B 0C 0D 0E 0F
      -- -- -- -- -- -- -- --  -- -- -- -- -- -- -- --
0150:                                   53 F8 FF FF 7F             S....
0160: F8 FF FF 7F 74 6C 62 31  00                       ....tlb1.       
```

#### Opcodes

```
  0: 0x015B [0x53] WAIT_SCHEDULER_TASK: Wait for scheduler "tlb1" with entities [EventEntity, EventEntity]
  1: 0x0168 [0x00] END_REQSTACK()
```

### Event 65535.25

#### Metadata

| Field        | Value    |
|--------------|----------|
| Entrypoint   | 0x0169   |
| Data Size    | 16 bytes |
| Instructions | 2        |

```
      00 01 02 03 04 05 06 07  08 09 0A 0B 0C 0D 0E 0F
      -- -- -- -- -- -- -- --  -- -- -- -- -- -- -- --
0160:                             66 04 80 F8 FF FF 7F           f......
0170: F8 FF FF 7F 73 69 74 30  00                       ....sit0.       
```

#### Opcodes

```
  0: 0x0169 [0x66] LOAD_EXT_SCHEDULER_MAIN: Load scheduler "sit0" with entities [EventEntity, EventEntity], work=29*
  1: 0x0178 [0x00] END_REQSTACK()
```

### Event 65535.26

#### Metadata

| Field        | Value    |
|--------------|----------|
| Entrypoint   | 0x0179   |
| Data Size    | 14 bytes |
| Instructions | 2        |

```
      00 01 02 03 04 05 06 07  08 09 0A 0B 0C 0D 0E 0F
      -- -- -- -- -- -- -- --  -- -- -- -- -- -- -- --
0170:                             53 F8 FF FF 7F F8 FF           S......
0180: FF 7F 73 69 74 30 00                              ..sit0.         
```

#### Opcodes

```
  0: 0x0179 [0x53] WAIT_SCHEDULER_TASK: Wait for scheduler "sit0" with entities [EventEntity, EventEntity]
  1: 0x0186 [0x00] END_REQSTACK()
```

### Event 65535.27

#### Metadata

| Field        | Value    |
|--------------|----------|
| Entrypoint   | 0x0187   |
| Data Size    | 16 bytes |
| Instructions | 2        |

```
      00 01 02 03 04 05 06 07  08 09 0A 0B 0C 0D 0E 0F
      -- -- -- -- -- -- -- --  -- -- -- -- -- -- -- --
0180:                      66  04 80 F8 FF FF 7F F8 FF         f........
0190: FF 7F 73 69 74 31 00                              ..sit1.         
```

#### Opcodes

```
  0: 0x0187 [0x66] LOAD_EXT_SCHEDULER_MAIN: Load scheduler "sit1" with entities [EventEntity, EventEntity], work=29*
  1: 0x0196 [0x00] END_REQSTACK()
```

### Event 65535.28

#### Metadata

| Field        | Value    |
|--------------|----------|
| Entrypoint   | 0x0197   |
| Data Size    | 14 bytes |
| Instructions | 2        |

```
      00 01 02 03 04 05 06 07  08 09 0A 0B 0C 0D 0E 0F
      -- -- -- -- -- -- -- --  -- -- -- -- -- -- -- --
0190:                      53  F8 FF FF 7F F8 FF FF 7F         S........
01A0: 73 69 74 31 00                                    sit1.           
```

#### Opcodes

```
  0: 0x0197 [0x53] WAIT_SCHEDULER_TASK: Wait for scheduler "sit1" with entities [EventEntity, EventEntity]
  1: 0x01A4 [0x00] END_REQSTACK()
```

### Event 65535.29

#### Metadata

| Field        | Value    |
|--------------|----------|
| Entrypoint   | 0x01A5   |
| Data Size    | 16 bytes |
| Instructions | 2        |

```
      00 01 02 03 04 05 06 07  08 09 0A 0B 0C 0D 0E 0F
      -- -- -- -- -- -- -- --  -- -- -- -- -- -- -- --
01A0:                66 04 80  F8 FF FF 7F F8 FF FF 7F       f..........
01B0: 73 69 74 6C 00                                    sitl.           
```

#### Opcodes

```
  0: 0x01A5 [0x66] LOAD_EXT_SCHEDULER_MAIN: Load scheduler "sitl" with entities [EventEntity, EventEntity], work=29*
  1: 0x01B4 [0x00] END_REQSTACK()
```

### Event 65535.30

#### Metadata

| Field        | Value    |
|--------------|----------|
| Entrypoint   | 0x01B5   |
| Data Size    | 14 bytes |
| Instructions | 2        |

```
      00 01 02 03 04 05 06 07  08 09 0A 0B 0C 0D 0E 0F
      -- -- -- -- -- -- -- --  -- -- -- -- -- -- -- --
01B0:                53 F8 FF  FF 7F F8 FF FF 7F 73 69       S........si
01C0: 74 6C 00                                          tl.             
```

#### Opcodes

```
  0: 0x01B5 [0x53] WAIT_SCHEDULER_TASK: Wait for scheduler "sitl" with entities [EventEntity, EventEntity]
  1: 0x01C2 [0x00] END_REQSTACK()
```

### Event 21

#### Metadata

| Field        | Value     |
|--------------|-----------|
| Entrypoint   | 0x01C3    |
| Data Size    | 350 bytes |
| Instructions | 89        |

```
      00 01 02 03 04 05 06 07  08 09 0A 0B 0C 0D 0E 0F
      -- -- -- -- -- -- -- --  -- -- -- -- -- -- -- --
01C0:          1E F0 FF FF 7F  6F 70 29 08 6C 21 00 01     .....op).l!..
01D0: 15 1D 05 80 23 1D 06 80  23 29 08 6C 21 00 01 16  ....#...#).l!...
01E0: 29 08 6C 21 00 01 17 1D  07 80 23 29 08 6C 21 00  ).l!......#).l!.
01F0: 01 18 29 08 6C 21 00 01  05 1D 08 80 23 29 08 6C  ..).l!......#).l
0200: 21 00 01 06 24 09 80 0A  80 0A 80 25 02 00 10 0A  !...$......%....
0210: 80 00 1C 02 03 01 10 0B  80 01 1D 03 02 00 10 0B  ................
0220: 80 00 6E 02 03 01 10 0C  80 29 08 6C 21 00 01 07  ..n......).l!...
0230: 1D 0D 80 23 29 08 6C 21  00 01 08 29 08 6C 21 00  ...#).l!...).l!.
0240: 01 01 1D 0E 80 23 1D 0F  80 23 1D 10 80 23 29 08  .....#...#...#).
0250: 6C 21 00 01 02 29 08 6C  21 00 01 03 1D 11 80 23  l!...).l!......#
0260: 29 08 6C 21 00 01 04 1D  12 80 23 01 1D 03 02 00  ).l!......#.....
0270: 10 0C 80 00 BC 02 03 01  10 13 80 29 08 6C 21 00  ...........).l!.
0280: 01 07 1D 14 80 23 29 08  6C 21 00 01 08 29 08 6C  .....#).l!...).l
0290: 21 00 01 01 1D 15 80 23  1D 16 80 23 1D 17 80 23  !......#...#...#
02A0: 29 08 6C 21 00 01 02 29  08 6C 21 00 01 03 1D 18  ).l!...).l!.....
02B0: 80 23 29 08 6C 21 00 01  04 01 1D 03 02 00 10 13  .#).l!..........
02C0: 80 00 1D 03 42 03 01 10  19 80 29 08 6C 21 00 01  ....B.....).l!..
02D0: 07 1D 1A 80 23 29 08 6C  21 00 01 08 29 08 6C 21  ....#).l!...).l!
02E0: 00 01 01 1D 1B 80 23 1D  1C 80 23 29 08 6C 21 00  ......#...#).l!.
02F0: 01 02 29 08 6C 21 00 01  03 1D 1D 80 23 29 08 6C  ..).l!......#).l
0300: 21 00 01 04 29 08 6C 21  00 01 0F 1D 1E 80 23 29  !...).l!......#)
0310: 08 6C 21 00 01 10 1D 1F  80 23 01 1D 03 20 00 21  .l!......#... .!
0320: 00                                                .               
```

#### Opcodes

```
  0: 0x01C3 [0x1E] EventEntity looks at LocalPlayer and starts talking
  1: 0x01C8 [0x6F] WAIT_FRAME_DELAY: Yield until WaitTime reaches zero
  2: 0x01C9 [0x70] WAIT_ENTITY_RENDER_FLAG: Wait while EventEntity->Render.Flags3 bit 2 is set (cancel turn if not)
  3: 0x01CA [0x29] REQ_SET_WAIT(priority=0x08, entity_id=Anguenet (ID: 16785772/0x0100216C), tag_num=0x15)
  4: 0x01D1 [0x1D] PRINT_EVENT_MESSAGE(message_id=7413*)
    → "Well, what have we here? An adventurer, by chance?"
  5: 0x01D4 [0x23] WAIT_FOR_DIALOG_INTERACTION
  6: 0x01D5 [0x1D] PRINT_EVENT_MESSAGE(message_id=7414*)
    → "I am Anguenet."
  7: 0x01D8 [0x23] WAIT_FOR_DIALOG_INTERACTION
  8: 0x01D9 [0x29] REQ_SET_WAIT(priority=0x08, entity_id=Anguenet (ID: 16785772/0x0100216C), tag_num=0x16)
  9: 0x01E0 [0x29] REQ_SET_WAIT(priority=0x08, entity_id=Anguenet (ID: 16785772/0x0100216C), tag_num=0x17)
 10: 0x01E7 [0x1D] PRINT_EVENT_MESSAGE(message_id=7415*)
    → "My job here at the Carpenters' Landing is to make your short trip on the channel as enjoyable as possible."
 11: 0x01EA [0x23] WAIT_FOR_DIALOG_INTERACTION
 12: 0x01EB [0x29] REQ_SET_WAIT(priority=0x08, entity_id=Anguenet (ID: 16785772/0x0100216C), tag_num=0x18)
 13: 0x01F2 [0x29] REQ_SET_WAIT(priority=0x08, entity_id=Anguenet (ID: 16785772/0x0100216C), tag_num=0x05)
 14: 0x01F9 [0x1D] PRINT_EVENT_MESSAGE(message_id=7416*)
    → "Shall I give you an idea of the different routes the barge follows?"
 15: 0x01FC [0x23] WAIT_FOR_DIALOG_INTERACTION
 16: 0x01FD [0x29] REQ_SET_WAIT(priority=0x08, entity_id=Anguenet (ID: 16785772/0x0100216C), tag_num=0x06)
 17: 0x0204 [0x24] CREATE_DIALOG(message_id=7417*, default_option=0*, option_flags=0*)
    → "Hear an explanation of the routes? [That won't be necessary./The main canal./The Emfea Waterway./Newtpool.]"
 18: 0x020B [0x25] WAIT_DIALOG_SELECT()
 19: 0x020C [0x02] IF !(Work_Zone[0] == 0*) GOTO 0x021C
 20: 0x0214 [0x03] Work_Zone[1] = 1*
 21: 0x0219 [0x01] GOTO 0x031D
 22: 0x021C [0x02] IF !(Work_Zone[0] == 1*) GOTO 0x026E
 23: 0x0224 [0x03] Work_Zone[1] = 2*
 24: 0x0229 [0x29] REQ_SET_WAIT(priority=0x08, entity_id=Anguenet (ID: 16785772/0x0100216C), tag_num=0x07)
 25: 0x0230 [0x1D] PRINT_EVENT_MESSAGE(message_id=7429*)
    → "We leave from South Landing and head for North Landing, following the main waterway of the Phanauet Channel. This is the longest of the three routes."
 26: 0x0233 [0x23] WAIT_FOR_DIALOG_INTERACTION
 27: 0x0234 [0x29] REQ_SET_WAIT(priority=0x08, entity_id=Anguenet (ID: 16785772/0x0100216C), tag_num=0x08)
 28: 0x023B [0x29] REQ_SET_WAIT(priority=0x08, entity_id=Anguenet (ID: 16785772/0x0100216C), tag_num=0x01)
 29: 0x0242 [0x1D] PRINT_EVENT_MESSAGE(message_id=7430*)
    → "This canal is the Phanauet Channel's newest and widest waterway."
 30: 0x0245 [0x23] WAIT_FOR_DIALOG_INTERACTION
 31: 0x0246 [0x1D] PRINT_EVENT_MESSAGE(message_id=7431*)
    → "Its waters are used by the Carpenters' Guild to bring in wood and ship out processed lumber--week in, week out."
 32: 0x0249 [0x23] WAIT_FOR_DIALOG_INTERACTION
 33: 0x024A [0x1D] PRINT_EVENT_MESSAGE(message_id=7432*)
    → "Please pay careful attention to the eastern cliff. You will be able to witness the gentle waterfalls that are one of the main attractions of this route."
 34: 0x024D [0x23] WAIT_FOR_DIALOG_INTERACTION
 35: 0x024E [0x29] REQ_SET_WAIT(priority=0x08, entity_id=Anguenet (ID: 16785772/0x0100216C), tag_num=0x02)
 36: 0x0255 [0x29] REQ_SET_WAIT(priority=0x08, entity_id=Anguenet (ID: 16785772/0x0100216C), tag_num=0x03)
 37: 0x025C [0x1D] PRINT_EVENT_MESSAGE(message_id=7433*)
    → "This canal is also home to an abundant variety of fish, providing a distraction for even the novice fisherman."
 38: 0x025F [0x23] WAIT_FOR_DIALOG_INTERACTION
 39: 0x0260 [0x29] REQ_SET_WAIT(priority=0x08, entity_id=Anguenet (ID: 16785772/0x0100216C), tag_num=0x04)
 40: 0x0267 [0x1D] PRINT_EVENT_MESSAGE(message_id=7434*)
    → "Enjoy the bounties of nature on the Carpenters' Guild barge."
 41: 0x026A [0x23] WAIT_FOR_DIALOG_INTERACTION
 42: 0x026B [0x01] GOTO 0x031D
 43: 0x026E [0x02] IF !(Work_Zone[0] == 2*) GOTO 0x02BC
 44: 0x0276 [0x03] Work_Zone[1] = 3*
 45: 0x027B [0x29] REQ_SET_WAIT(priority=0x08, entity_id=Anguenet (ID: 16785772/0x0100216C), tag_num=0x07)
 46: 0x0282 [0x1D] PRINT_EVENT_MESSAGE(message_id=7424*)
    → "We leave South Landing and head northwards to Central Landing through the narrow and winding Emfea Waterway. This is the most exciting route."
 47: 0x0285 [0x23] WAIT_FOR_DIALOG_INTERACTION
 48: 0x0286 [0x29] REQ_SET_WAIT(priority=0x08, entity_id=Anguenet (ID: 16785772/0x0100216C), tag_num=0x08)
 49: 0x028D [0x29] REQ_SET_WAIT(priority=0x08, entity_id=Anguenet (ID: 16785772/0x0100216C), tag_num=0x01)
 50: 0x0294 [0x1D] PRINT_EVENT_MESSAGE(message_id=7425*)
    → "At times, the barge comes to within several ilms of the cliffs on both sides, causing not a few sweaty palms among the passengers..."
 51: 0x0297 [0x23] WAIT_FOR_DIALOG_INTERACTION
 52: 0x0298 [0x1D] PRINT_EVENT_MESSAGE(message_id=7426*)
    → "But please, do not be alarmed. Our experienced captain is the best in the guild, and a safe journey is guaranteed."
 53: 0x029B [0x23] WAIT_FOR_DIALOG_INTERACTION
 54: 0x029C [0x1D] PRINT_EVENT_MESSAGE(message_id=7427*)
    → "This waterway is the oldest part of the channel, and its depths teem with rare fish peculiar to this area."
 55: 0x029F [0x23] WAIT_FOR_DIALOG_INTERACTION
 56: 0x02A0 [0x29] REQ_SET_WAIT(priority=0x08, entity_id=Anguenet (ID: 16785772/0x0100216C), tag_num=0x02)
 57: 0x02A7 [0x29] REQ_SET_WAIT(priority=0x08, entity_id=Anguenet (ID: 16785772/0x0100216C), tag_num=0x03)
 58: 0x02AE [0x1D] PRINT_EVENT_MESSAGE(message_id=7428*)
    → "Those passengers that have come for a spot of fishing will not go home disappointed. The Emfea Waterway route is an experience not to be missed."
 59: 0x02B1 [0x23] WAIT_FOR_DIALOG_INTERACTION
 60: 0x02B2 [0x29] REQ_SET_WAIT(priority=0x08, entity_id=Anguenet (ID: 16785772/0x0100216C), tag_num=0x04)
 61: 0x02B9 [0x01] GOTO 0x031D
 62: 0x02BC [0x02] IF !(Work_Zone[0] == 3*) GOTO 0x031D
 63: 0x02C4 [0x42] SET_CLI_EVENT_CANCEL_DATA()
 64: 0x02C5 [0x03] Work_Zone[1] = 4*
 65: 0x02CA [0x29] REQ_SET_WAIT(priority=0x08, entity_id=Anguenet (ID: 16785772/0x0100216C), tag_num=0x07)
 66: 0x02D1 [0x1D] PRINT_EVENT_MESSAGE(message_id=7418*)
    → "We leave Central Landing and embark on a leisurely southern course for South Landing. Our route takes us through Newtpool, which as the name suggests, is literally squirming with newts."
 67: 0x02D4 [0x23] WAIT_FOR_DIALOG_INTERACTION
 68: 0x02D5 [0x29] REQ_SET_WAIT(priority=0x08, entity_id=Anguenet (ID: 16785772/0x0100216C), tag_num=0x08)
 69: 0x02DC [0x29] REQ_SET_WAIT(priority=0x08, entity_id=Anguenet (ID: 16785772/0x0100216C), tag_num=0x01)
 70: 0x02E3 [0x1D] PRINT_EVENT_MESSAGE(message_id=7419*)
    → "This is the birthplace of "frog-fishing," an activity requiring the use of live flies."
 71: 0x02E6 [0x23] WAIT_FOR_DIALOG_INTERACTION
 72: 0x02E7 [0x1D] PRINT_EVENT_MESSAGE(message_id=7420*)
    → "The Newtpool route is extraordinarily popular with fisherman of all shapes and sizes all year round."
 73: 0x02EA [0x23] WAIT_FOR_DIALOG_INTERACTION
 74: 0x02EB [0x29] REQ_SET_WAIT(priority=0x08, entity_id=Anguenet (ID: 16785772/0x0100216C), tag_num=0x02)
 75: 0x02F2 [0x29] REQ_SET_WAIT(priority=0x08, entity_id=Anguenet (ID: 16785772/0x0100216C), tag_num=0x03)
 76: 0x02F9 [0x1D] PRINT_EVENT_MESSAGE(message_id=7421*)
    → "Ah yes--if you happen to catch yourself a brownish newt, a $1, hand it over to my vertically challenged partner over there."
 77: 0x02FC [0x23] WAIT_FOR_DIALOG_INTERACTION
 78: 0x02FD [0x29] REQ_SET_WAIT(priority=0x08, entity_id=Anguenet (ID: 16785772/0x0100216C), tag_num=0x04)
 79: 0x0304 [0x29] REQ_SET_WAIT(priority=0x08, entity_id=Anguenet (ID: 16785772/0x0100216C), tag_num=0x0F)
 80: 0x030B [0x1D] PRINT_EVENT_MESSAGE(message_id=7422*)
    → "He is a man of few words, but I can assure you his delicious charred newts reflect his unwavering devotion towards pleasing our customers."
 81: 0x030E [0x23] WAIT_FOR_DIALOG_INTERACTION
 82: 0x030F [0x29] REQ_SET_WAIT(priority=0x08, entity_id=Anguenet (ID: 16785772/0x0100216C), tag_num=0x10)
 83: 0x0316 [0x1D] PRINT_EVENT_MESSAGE(message_id=7423*)
    → "These mouthwatering delicacies are a treat for young and old. In particular, Mithran customers are always showering our diminutive chef with compliments, and pestering him for the names of his secret spices."
 84: 0x0319 [0x23] WAIT_FOR_DIALOG_INTERACTION
 85: 0x031A [0x01] GOTO 0x031D

SUBROUTINE_031D:
 86: 0x031D [0x20] SET_CLI_EVENT_UC_FLAG: Unlock player control
 87: 0x031F [0x21] END_EVENT
 88: 0x0320 [0x00] END_REQSTACK()
```

### Event 23

#### Metadata

| Field        | Value     |
|--------------|-----------|
| Entrypoint   | 0x0321    |
| Data Size    | 349 bytes |
| Instructions | 88        |

```
      00 01 02 03 04 05 06 07  08 09 0A 0B 0C 0D 0E 0F
      -- -- -- -- -- -- -- --  -- -- -- -- -- -- -- --
0320:    1E F0 FF FF 7F 6F 70  29 08 6C 21 00 01 15 1D   .....op).l!....
0330: 05 80 23 1D 06 80 23 29  08 6C 21 00 01 16 29 08  ..#...#).l!...).
0340: 6C 21 00 01 17 1D 07 80  23 29 08 6C 21 00 01 18  l!......#).l!...
0350: 29 08 6C 21 00 01 05 1D  08 80 23 29 08 6C 21 00  ).l!......#).l!.
0360: 01 06 24 09 80 0A 80 0A  80 25 02 00 10 0A 80 00  ..$......%......
0370: 7A 03 03 01 10 0B 80 01  7A 04 02 00 10 0B 80 00  z.......z.......
0380: CC 03 03 01 10 0C 80 29  08 6C 21 00 01 07 1D 0D  .......).l!.....
0390: 80 23 29 08 6C 21 00 01  08 29 08 6C 21 00 01 01  .#).l!...).l!...
03A0: 1D 0E 80 23 1D 0F 80 23  1D 10 80 23 29 08 6C 21  ...#...#...#).l!
03B0: 00 01 02 29 08 6C 21 00  01 03 1D 11 80 23 29 08  ...).l!......#).
03C0: 6C 21 00 01 04 1D 12 80  23 01 7A 04 02 00 10 0C  l!......#.z.....
03D0: 80 00 1A 04 03 01 10 13  80 29 08 6C 21 00 01 07  .........).l!...
03E0: 1D 14 80 23 29 08 6C 21  00 01 08 29 08 6C 21 00  ...#).l!...).l!.
03F0: 01 01 1D 15 80 23 1D 16  80 23 1D 17 80 23 29 08  .....#...#...#).
0400: 6C 21 00 01 02 29 08 6C  21 00 01 03 1D 18 80 23  l!...).l!......#
0410: 29 08 6C 21 00 01 04 01  7A 04 02 00 10 13 80 00  ).l!....z.......
0420: 7A 04 03 01 10 19 80 29  08 6C 21 00 01 07 1D 1A  z......).l!.....
0430: 80 23 29 08 6C 21 00 01  08 29 08 6C 21 00 01 01  .#).l!...).l!...
0440: 1D 1B 80 23 1D 1C 80 23  29 08 6C 21 00 01 02 29  ...#...#).l!...)
0450: 08 6C 21 00 01 03 1D 1D  80 23 29 08 6C 21 00 01  .l!......#).l!..
0460: 04 29 08 6C 21 00 01 0F  1D 1E 80 23 29 08 6C 21  .).l!......#).l!
0470: 00 01 10 1D 1F 80 23 01  7A 04 20 00 21 00        ......#.z. .!.  
```

#### Opcodes

```
  0: 0x0321 [0x1E] EventEntity looks at LocalPlayer and starts talking
  1: 0x0326 [0x6F] WAIT_FRAME_DELAY: Yield until WaitTime reaches zero
  2: 0x0327 [0x70] WAIT_ENTITY_RENDER_FLAG: Wait while EventEntity->Render.Flags3 bit 2 is set (cancel turn if not)
  3: 0x0328 [0x29] REQ_SET_WAIT(priority=0x08, entity_id=Anguenet (ID: 16785772/0x0100216C), tag_num=0x15)
  4: 0x032F [0x1D] PRINT_EVENT_MESSAGE(message_id=7413*)
    → "Well, what have we here? An adventurer, by chance?"
  5: 0x0332 [0x23] WAIT_FOR_DIALOG_INTERACTION
  6: 0x0333 [0x1D] PRINT_EVENT_MESSAGE(message_id=7414*)
    → "I am Anguenet."
  7: 0x0336 [0x23] WAIT_FOR_DIALOG_INTERACTION
  8: 0x0337 [0x29] REQ_SET_WAIT(priority=0x08, entity_id=Anguenet (ID: 16785772/0x0100216C), tag_num=0x16)
  9: 0x033E [0x29] REQ_SET_WAIT(priority=0x08, entity_id=Anguenet (ID: 16785772/0x0100216C), tag_num=0x17)
 10: 0x0345 [0x1D] PRINT_EVENT_MESSAGE(message_id=7415*)
    → "My job here at the Carpenters' Landing is to make your short trip on the channel as enjoyable as possible."
 11: 0x0348 [0x23] WAIT_FOR_DIALOG_INTERACTION
 12: 0x0349 [0x29] REQ_SET_WAIT(priority=0x08, entity_id=Anguenet (ID: 16785772/0x0100216C), tag_num=0x18)
 13: 0x0350 [0x29] REQ_SET_WAIT(priority=0x08, entity_id=Anguenet (ID: 16785772/0x0100216C), tag_num=0x05)
 14: 0x0357 [0x1D] PRINT_EVENT_MESSAGE(message_id=7416*)
    → "Shall I give you an idea of the different routes the barge follows?"
 15: 0x035A [0x23] WAIT_FOR_DIALOG_INTERACTION
 16: 0x035B [0x29] REQ_SET_WAIT(priority=0x08, entity_id=Anguenet (ID: 16785772/0x0100216C), tag_num=0x06)
 17: 0x0362 [0x24] CREATE_DIALOG(message_id=7417*, default_option=0*, option_flags=0*)
    → "Hear an explanation of the routes? [That won't be necessary./The main canal./The Emfea Waterway./Newtpool.]"
 18: 0x0369 [0x25] WAIT_DIALOG_SELECT()
 19: 0x036A [0x02] IF !(Work_Zone[0] == 0*) GOTO 0x037A
 20: 0x0372 [0x03] Work_Zone[1] = 1*
 21: 0x0377 [0x01] GOTO 0x047A
 22: 0x037A [0x02] IF !(Work_Zone[0] == 1*) GOTO 0x03CC
 23: 0x0382 [0x03] Work_Zone[1] = 2*
 24: 0x0387 [0x29] REQ_SET_WAIT(priority=0x08, entity_id=Anguenet (ID: 16785772/0x0100216C), tag_num=0x07)
 25: 0x038E [0x1D] PRINT_EVENT_MESSAGE(message_id=7429*)
    → "We leave from South Landing and head for North Landing, following the main waterway of the Phanauet Channel. This is the longest of the three routes."
 26: 0x0391 [0x23] WAIT_FOR_DIALOG_INTERACTION
 27: 0x0392 [0x29] REQ_SET_WAIT(priority=0x08, entity_id=Anguenet (ID: 16785772/0x0100216C), tag_num=0x08)
 28: 0x0399 [0x29] REQ_SET_WAIT(priority=0x08, entity_id=Anguenet (ID: 16785772/0x0100216C), tag_num=0x01)
 29: 0x03A0 [0x1D] PRINT_EVENT_MESSAGE(message_id=7430*)
    → "This canal is the Phanauet Channel's newest and widest waterway."
 30: 0x03A3 [0x23] WAIT_FOR_DIALOG_INTERACTION
 31: 0x03A4 [0x1D] PRINT_EVENT_MESSAGE(message_id=7431*)
    → "Its waters are used by the Carpenters' Guild to bring in wood and ship out processed lumber--week in, week out."
 32: 0x03A7 [0x23] WAIT_FOR_DIALOG_INTERACTION
 33: 0x03A8 [0x1D] PRINT_EVENT_MESSAGE(message_id=7432*)
    → "Please pay careful attention to the eastern cliff. You will be able to witness the gentle waterfalls that are one of the main attractions of this route."
 34: 0x03AB [0x23] WAIT_FOR_DIALOG_INTERACTION
 35: 0x03AC [0x29] REQ_SET_WAIT(priority=0x08, entity_id=Anguenet (ID: 16785772/0x0100216C), tag_num=0x02)
 36: 0x03B3 [0x29] REQ_SET_WAIT(priority=0x08, entity_id=Anguenet (ID: 16785772/0x0100216C), tag_num=0x03)
 37: 0x03BA [0x1D] PRINT_EVENT_MESSAGE(message_id=7433*)
    → "This canal is also home to an abundant variety of fish, providing a distraction for even the novice fisherman."
 38: 0x03BD [0x23] WAIT_FOR_DIALOG_INTERACTION
 39: 0x03BE [0x29] REQ_SET_WAIT(priority=0x08, entity_id=Anguenet (ID: 16785772/0x0100216C), tag_num=0x04)
 40: 0x03C5 [0x1D] PRINT_EVENT_MESSAGE(message_id=7434*)
    → "Enjoy the bounties of nature on the Carpenters' Guild barge."
 41: 0x03C8 [0x23] WAIT_FOR_DIALOG_INTERACTION
 42: 0x03C9 [0x01] GOTO 0x047A
 43: 0x03CC [0x02] IF !(Work_Zone[0] == 2*) GOTO 0x041A
 44: 0x03D4 [0x03] Work_Zone[1] = 3*
 45: 0x03D9 [0x29] REQ_SET_WAIT(priority=0x08, entity_id=Anguenet (ID: 16785772/0x0100216C), tag_num=0x07)
 46: 0x03E0 [0x1D] PRINT_EVENT_MESSAGE(message_id=7424*)
    → "We leave South Landing and head northwards to Central Landing through the narrow and winding Emfea Waterway. This is the most exciting route."
 47: 0x03E3 [0x23] WAIT_FOR_DIALOG_INTERACTION
 48: 0x03E4 [0x29] REQ_SET_WAIT(priority=0x08, entity_id=Anguenet (ID: 16785772/0x0100216C), tag_num=0x08)
 49: 0x03EB [0x29] REQ_SET_WAIT(priority=0x08, entity_id=Anguenet (ID: 16785772/0x0100216C), tag_num=0x01)
 50: 0x03F2 [0x1D] PRINT_EVENT_MESSAGE(message_id=7425*)
    → "At times, the barge comes to within several ilms of the cliffs on both sides, causing not a few sweaty palms among the passengers..."
 51: 0x03F5 [0x23] WAIT_FOR_DIALOG_INTERACTION
 52: 0x03F6 [0x1D] PRINT_EVENT_MESSAGE(message_id=7426*)
    → "But please, do not be alarmed. Our experienced captain is the best in the guild, and a safe journey is guaranteed."
 53: 0x03F9 [0x23] WAIT_FOR_DIALOG_INTERACTION
 54: 0x03FA [0x1D] PRINT_EVENT_MESSAGE(message_id=7427*)
    → "This waterway is the oldest part of the channel, and its depths teem with rare fish peculiar to this area."
 55: 0x03FD [0x23] WAIT_FOR_DIALOG_INTERACTION
 56: 0x03FE [0x29] REQ_SET_WAIT(priority=0x08, entity_id=Anguenet (ID: 16785772/0x0100216C), tag_num=0x02)
 57: 0x0405 [0x29] REQ_SET_WAIT(priority=0x08, entity_id=Anguenet (ID: 16785772/0x0100216C), tag_num=0x03)
 58: 0x040C [0x1D] PRINT_EVENT_MESSAGE(message_id=7428*)
    → "Those passengers that have come for a spot of fishing will not go home disappointed. The Emfea Waterway route is an experience not to be missed."
 59: 0x040F [0x23] WAIT_FOR_DIALOG_INTERACTION
 60: 0x0410 [0x29] REQ_SET_WAIT(priority=0x08, entity_id=Anguenet (ID: 16785772/0x0100216C), tag_num=0x04)
 61: 0x0417 [0x01] GOTO 0x047A
 62: 0x041A [0x02] IF !(Work_Zone[0] == 3*) GOTO 0x047A
 63: 0x0422 [0x03] Work_Zone[1] = 4*
 64: 0x0427 [0x29] REQ_SET_WAIT(priority=0x08, entity_id=Anguenet (ID: 16785772/0x0100216C), tag_num=0x07)
 65: 0x042E [0x1D] PRINT_EVENT_MESSAGE(message_id=7418*)
    → "We leave Central Landing and embark on a leisurely southern course for South Landing. Our route takes us through Newtpool, which as the name suggests, is literally squirming with newts."
 66: 0x0431 [0x23] WAIT_FOR_DIALOG_INTERACTION
 67: 0x0432 [0x29] REQ_SET_WAIT(priority=0x08, entity_id=Anguenet (ID: 16785772/0x0100216C), tag_num=0x08)
 68: 0x0439 [0x29] REQ_SET_WAIT(priority=0x08, entity_id=Anguenet (ID: 16785772/0x0100216C), tag_num=0x01)
 69: 0x0440 [0x1D] PRINT_EVENT_MESSAGE(message_id=7419*)
    → "This is the birthplace of "frog-fishing," an activity requiring the use of live flies."
 70: 0x0443 [0x23] WAIT_FOR_DIALOG_INTERACTION
 71: 0x0444 [0x1D] PRINT_EVENT_MESSAGE(message_id=7420*)
    → "The Newtpool route is extraordinarily popular with fisherman of all shapes and sizes all year round."
 72: 0x0447 [0x23] WAIT_FOR_DIALOG_INTERACTION
 73: 0x0448 [0x29] REQ_SET_WAIT(priority=0x08, entity_id=Anguenet (ID: 16785772/0x0100216C), tag_num=0x02)
 74: 0x044F [0x29] REQ_SET_WAIT(priority=0x08, entity_id=Anguenet (ID: 16785772/0x0100216C), tag_num=0x03)
 75: 0x0456 [0x1D] PRINT_EVENT_MESSAGE(message_id=7421*)
    → "Ah yes--if you happen to catch yourself a brownish newt, a $1, hand it over to my vertically challenged partner over there."
 76: 0x0459 [0x23] WAIT_FOR_DIALOG_INTERACTION
 77: 0x045A [0x29] REQ_SET_WAIT(priority=0x08, entity_id=Anguenet (ID: 16785772/0x0100216C), tag_num=0x04)
 78: 0x0461 [0x29] REQ_SET_WAIT(priority=0x08, entity_id=Anguenet (ID: 16785772/0x0100216C), tag_num=0x0F)
 79: 0x0468 [0x1D] PRINT_EVENT_MESSAGE(message_id=7422*)
    → "He is a man of few words, but I can assure you his delicious charred newts reflect his unwavering devotion towards pleasing our customers."
 80: 0x046B [0x23] WAIT_FOR_DIALOG_INTERACTION
 81: 0x046C [0x29] REQ_SET_WAIT(priority=0x08, entity_id=Anguenet (ID: 16785772/0x0100216C), tag_num=0x10)
 82: 0x0473 [0x1D] PRINT_EVENT_MESSAGE(message_id=7423*)
    → "These mouthwatering delicacies are a treat for young and old. In particular, Mithran customers are always showering our diminutive chef with compliments, and pestering him for the names of his secret spices."
 83: 0x0476 [0x23] WAIT_FOR_DIALOG_INTERACTION
 84: 0x0477 [0x01] GOTO 0x047A

SUBROUTINE_047A:
 85: 0x047A [0x20] SET_CLI_EVENT_UC_FLAG: Unlock player control
 86: 0x047C [0x21] END_EVENT
 87: 0x047D [0x00] END_REQSTACK()
```

### Event 27

#### Metadata

| Field        | Value   |
|--------------|---------|
| Entrypoint   | 0x047E  |
| Data Size    | 1 bytes |
| Instructions | 1       |

```
      00 01 02 03 04 05 06 07  08 09 0A 0B 0C 0D 0E 0F
      -- -- -- -- -- -- -- --  -- -- -- -- -- -- -- --
0470:                                            00                   . 
```

#### Opcodes

```
  0: 0x047E [0x00] END_REQSTACK()
```

### Event 65535.31

#### Metadata

| Field        | Value    |
|--------------|----------|
| Entrypoint   | 0x047F   |
| Data Size    | 15 bytes |
| Instructions | 5        |

```
      00 01 02 03 04 05 06 07  08 09 0A 0B 0C 0D 0E 0F
      -- -- -- -- -- -- -- --  -- -- -- -- -- -- -- --
0470:                                               32                 2
0480: 20 80 1F 00 21 80 22 80  23 80 1F 01 6F 00         ...!.".#...o.  
```

#### Opcodes

```
  0: 0x047F [0x32] ExtData[1]->MainSpeed = 13* * 0.1
  1: 0x0482 [0x1F] MOVE_ENTITY: EventEntity moves to X=216.747*, Z=-529.216*, Y=-2.021*
  2: 0x048A [0x1F] MOVE_ENTITY: Update entity position (mode=1)
  3: 0x048C [0x6F] WAIT_FRAME_DELAY: Yield until WaitTime reaches zero
  4: 0x048D [0x00] END_REQSTACK()
```

### Event 28

#### Metadata

| Field        | Value    |
|--------------|----------|
| Entrypoint   | 0x048E   |
| Data Size    | 29 bytes |
| Instructions | 10       |

```
      00 01 02 03 04 05 06 07  08 09 0A 0B 0C 0D 0E 0F
      -- -- -- -- -- -- -- --  -- -- -- -- -- -- -- --
0480:                                            1E F0                ..
0490: FF FF 7F 6F 70 29 08 6C  21 00 01 01 1D 24 80 23  ...op).l!....$.#
04A0: 29 08 6C 21 00 01 02 20  00 21 00                 ).l!... .!.     
```

#### Opcodes

```
  0: 0x048E [0x1E] EventEntity looks at LocalPlayer and starts talking
  1: 0x0493 [0x6F] WAIT_FRAME_DELAY: Yield until WaitTime reaches zero
  2: 0x0494 [0x70] WAIT_ENTITY_RENDER_FLAG: Wait while EventEntity->Render.Flags3 bit 2 is set (cancel turn if not)
  3: 0x0495 [0x29] REQ_SET_WAIT(priority=0x08, entity_id=Anguenet (ID: 16785772/0x0100216C), tag_num=0x01)
  4: 0x049C [0x1D] PRINT_EVENT_MESSAGE(message_id=7475*)
    → "Bring me $1 if you want to speak to the Tonberries."
  5: 0x049F [0x23] WAIT_FOR_DIALOG_INTERACTION
  6: 0x04A0 [0x29] REQ_SET_WAIT(priority=0x08, entity_id=Anguenet (ID: 16785772/0x0100216C), tag_num=0x02)
  7: 0x04A7 [0x20] SET_CLI_EVENT_UC_FLAG: Unlock player control
  8: 0x04A9 [0x21] END_EVENT
  9: 0x04AA [0x00] END_REQSTACK()
```

### Event 29

#### Metadata

| Field        | Value    |
|--------------|----------|
| Entrypoint   | 0x04AB   |
| Data Size    | 56 bytes |
| Instructions | 19       |

```
      00 01 02 03 04 05 06 07  08 09 0A 0B 0C 0D 0E 0F
      -- -- -- -- -- -- -- --  -- -- -- -- -- -- -- --
04A0:                                   42 1E F0 FF FF             B....
04B0: 7F 6F 70 29 08 6C 21 00  01 09 1D 25 80 23 29 08  .op).l!....%.#).
04C0: 6C 21 00 01 0A 29 08 6C  21 00 01 01 1D 26 80 23  l!...).l!....&.#
04D0: 1D 27 80 23 1D 28 80 23  29 08 6C 21 00 01 02 20  .'.#.(.#).l!... 
04E0: 00 21 00                                          .!.             
```

#### Opcodes

```
  0: 0x04AB [0x42] SET_CLI_EVENT_CANCEL_DATA()
  1: 0x04AC [0x1E] EventEntity looks at LocalPlayer and starts talking
  2: 0x04B1 [0x6F] WAIT_FRAME_DELAY: Yield until WaitTime reaches zero
  3: 0x04B2 [0x70] WAIT_ENTITY_RENDER_FLAG: Wait while EventEntity->Render.Flags3 bit 2 is set (cancel turn if not)
  4: 0x04B3 [0x29] REQ_SET_WAIT(priority=0x08, entity_id=Anguenet (ID: 16785772/0x0100216C), tag_num=0x09)
  5: 0x04BA [0x1D] PRINT_EVENT_MESSAGE(message_id=7476*)
    → "Your contribution is most appreciated. And here is my end of the bargain."
  6: 0x04BD [0x23] WAIT_FOR_DIALOG_INTERACTION
  7: 0x04BE [0x29] REQ_SET_WAIT(priority=0x08, entity_id=Anguenet (ID: 16785772/0x0100216C), tag_num=0x0A)
  8: 0x04C5 [0x29] REQ_SET_WAIT(priority=0x08, entity_id=Anguenet (ID: 16785772/0x0100216C), tag_num=0x01)
  9: 0x04CC [0x1D] PRINT_EVENT_MESSAGE(message_id=7477*)
    → "This is the blackboard we use when communicating with the Tonberry, Riche."
 10: 0x04CF [0x23] WAIT_FOR_DIALOG_INTERACTION
 11: 0x04D0 [0x1D] PRINT_EVENT_MESSAGE(message_id=7478*)
    → "Riche rarely speaks, but he can be convinced to write a few words."
 12: 0x04D3 [0x23] WAIT_FOR_DIALOG_INTERACTION
 13: 0x04D4 [0x1D] PRINT_EVENT_MESSAGE(message_id=7479*)
    → "Just remember to complete your business before the barge reaches the cliffs. The Tonberries have work to attend to."
 14: 0x04D7 [0x23] WAIT_FOR_DIALOG_INTERACTION
 15: 0x04D8 [0x29] REQ_SET_WAIT(priority=0x08, entity_id=Anguenet (ID: 16785772/0x0100216C), tag_num=0x02)
 16: 0x04DF [0x20] SET_CLI_EVENT_UC_FLAG: Unlock player control
 17: 0x04E1 [0x21] END_EVENT
 18: 0x04E2 [0x00] END_REQSTACK()
```

### Event 35

#### Metadata

| Field        | Value    |
|--------------|----------|
| Entrypoint   | 0x04E3   |
| Data Size    | 37 bytes |
| Instructions | 14       |

```
      00 01 02 03 04 05 06 07  08 09 0A 0B 0C 0D 0E 0F
      -- -- -- -- -- -- -- --  -- -- -- -- -- -- -- --
04E0:          1E F0 FF FF 7F  6F 70 29 08 6C 21 00 01     .....op).l!..
04F0: 01 1D 26 80 23 1D 27 80  23 1D 28 80 23 29 08 6C  ..&.#.'.#.(.#).l
0500: 21 00 01 02 20 00 21 00                           !... .!.        
```

#### Opcodes

```
  0: 0x04E3 [0x1E] EventEntity looks at LocalPlayer and starts talking
  1: 0x04E8 [0x6F] WAIT_FRAME_DELAY: Yield until WaitTime reaches zero
  2: 0x04E9 [0x70] WAIT_ENTITY_RENDER_FLAG: Wait while EventEntity->Render.Flags3 bit 2 is set (cancel turn if not)
  3: 0x04EA [0x29] REQ_SET_WAIT(priority=0x08, entity_id=Anguenet (ID: 16785772/0x0100216C), tag_num=0x01)
  4: 0x04F1 [0x1D] PRINT_EVENT_MESSAGE(message_id=7477*)
    → "This is the blackboard we use when communicating with the Tonberry, Riche."
  5: 0x04F4 [0x23] WAIT_FOR_DIALOG_INTERACTION
  6: 0x04F5 [0x1D] PRINT_EVENT_MESSAGE(message_id=7478*)
    → "Riche rarely speaks, but he can be convinced to write a few words."
  7: 0x04F8 [0x23] WAIT_FOR_DIALOG_INTERACTION
  8: 0x04F9 [0x1D] PRINT_EVENT_MESSAGE(message_id=7479*)
    → "Just remember to complete your business before the barge reaches the cliffs. The Tonberries have work to attend to."
  9: 0x04FC [0x23] WAIT_FOR_DIALOG_INTERACTION
 10: 0x04FD [0x29] REQ_SET_WAIT(priority=0x08, entity_id=Anguenet (ID: 16785772/0x0100216C), tag_num=0x02)
 11: 0x0504 [0x20] SET_CLI_EVENT_UC_FLAG: Unlock player control
 12: 0x0506 [0x21] END_EVENT
 13: 0x0507 [0x00] END_REQSTACK()
```
