# 16785754 - Chocobo

## Common Data

| Field            | Value                       |
|------------------|-----------------------------|
| Zone             | Carpenters' Landing (ID: 2) |
| Block Size       | 128 bytes                   |
| Total Events     | 4                           |
| References Count | 5                           |

## List of Events

| Event ID                 | Entrypoint   |   Size |   Instructions |
|--------------------------|--------------|--------|----------------|
| [65535](#event-65535)    | 0x0000       |      1 |              1 |
| [0](#event-0)            | 0x0001       |     42 |              6 |
| [65535.1](#event-655351) | 0x002B       |     16 |              2 |
| [65535.2](#event-655352) | 0x003B       |     16 |              2 |

## DAT References (imed_data)

|   Index | Hex Value   |   Dec Value |
|---------|-------------|-------------|
|       0 | 0xFFFE1677  |  4294841975 |
|       1 | 0xFFF8BEA2  |  4294491810 |
|       2 | 0xFFFFE8EA  |  4294961386 |
|       3 | 0x0E18      |        3608 |
|       4 | 0x00DD      |         221 |

## Events

### Event 65535

#### Metadata

| Field        | Value   |
|--------------|---------|
| Entrypoint   | 0x0000  |
| Data Size    | 1 bytes |
| Instructions | 1       |

```
      00 01 02 03 04 05 06 07  08 09 0A 0B 0C 0D 0E 0F
      -- -- -- -- -- -- -- --  -- -- -- -- -- -- -- --
0000: 00                                                .               
```

#### Opcodes

```
  0: 0x0000 [0x00] END_REQSTACK()
```

### Event 0

#### Metadata

| Field        | Value    |
|--------------|----------|
| Entrypoint   | 0x0001   |
| Data Size    | 42 bytes |
| Instructions | 6        |

```
      00 01 02 03 04 05 06 07  08 09 0A 0B 0C 0D 0E 0F
      -- -- -- -- -- -- -- --  -- -- -- -- -- -- -- --
0000:    94 01 F8 FF FF 7F 92  01 F8 FF FF 7F 37 00 80   ............7..
0010: 01 80 02 80 03 80 80 F8  FF FF 7F 5B 04 80 F8 FF  ...........[....
0020: FF 7F F8 FF FF 7F 63 68  30 32 00                 ......ch02.     
```

#### Opcodes

```
  0: 0x0001 [0x94] EventEntity->Render.Flags3 ^= 0x01
  1: 0x0007 [0x92] EventEntity->Render.Flags3 ^= 0x01
  2: 0x000D [0x37] UPDATE_EVENT_POSITION_AND_DIR: x=-125.321*, z=-475.486*, y=-5.910*, direction=317.1°*
  3: 0x0016 [0x80] LOAD_WAIT(entity=EventEntity)
  4: 0x001B [0x5B] LOAD_EXT_SCHEDULER: Load scheduler "ch02" with entities [EventEntity, EventEntity], work=221*
  5: 0x002A [0x00] END_REQSTACK()
```

### Event 65535.1

#### Metadata

| Field        | Value    |
|--------------|----------|
| Entrypoint   | 0x002B   |
| Data Size    | 16 bytes |
| Instructions | 2        |

```
      00 01 02 03 04 05 06 07  08 09 0A 0B 0C 0D 0E 0F
      -- -- -- -- -- -- -- --  -- -- -- -- -- -- -- --
0020:                                   5B 04 80 F8 FF             [....
0030: FF 7F F8 FF FF 7F 63 68  30 30 00                 ......ch00.     
```

#### Opcodes

```
  0: 0x002B [0x5B] LOAD_EXT_SCHEDULER: Load scheduler "ch00" with entities [EventEntity, EventEntity], work=221*
  1: 0x003A [0x00] END_REQSTACK()
```

### Event 65535.2

#### Metadata

| Field        | Value    |
|--------------|----------|
| Entrypoint   | 0x003B   |
| Data Size    | 16 bytes |
| Instructions | 2        |

```
      00 01 02 03 04 05 06 07  08 09 0A 0B 0C 0D 0E 0F
      -- -- -- -- -- -- -- --  -- -- -- -- -- -- -- --
0030:                                   5B 04 80 F8 FF             [....
0040: FF 7F F8 FF FF 7F 63 68  30 31 00                 ......ch01.     
```

#### Opcodes

```
  0: 0x003B [0x5B] LOAD_EXT_SCHEDULER: Load scheduler "ch01" with entities [EventEntity, EventEntity], work=221*
  1: 0x004A [0x00] END_REQSTACK()
```
