# 16785748 - ship

## Common Data

| Field            | Value                       |
|------------------|-----------------------------|
| Zone             | Carpenters' Landing (ID: 2) |
| Block Size       | 100 bytes                   |
| Total Events     | 5                           |
| References Count | 8                           |

## List of Events

| Event ID              | Entrypoint   |   Size |   Instructions |
|-----------------------|--------------|--------|----------------|
| [65535](#event-65535) | 0x0000       |      1 |              1 |
| [14](#event-14)       | 0x0001       |      7 |              3 |
| [40](#event-40)       | 0x0008       |      7 |              3 |
| [16](#event-16)       | 0x000F       |      7 |              3 |
| [10](#event-10)       | 0x0016       |     10 |              2 |

## DAT References (imed_data)

|   Index | Hex Value   |   Dec Value |
|---------|-------------|-------------|
|       0 | 0x001E      |          30 |
|       1 | 0x0001      |           1 |
|       2 | 0x0003      |           3 |
|       3 | 0x0007      |           7 |
|       4 | 0xFFFE178E  |  4294842254 |
|       5 | 0x11C52     |       72786 |
|       6 | 0x0000      |           0 |
|       7 | 0x0A00      |        2560 |

## Events

### Event 65535

#### Metadata

| Field        | Value   |
|--------------|---------|
| Entrypoint   | 0x0000  |
| Data Size    | 1 bytes |
| Instructions | 1       |

```
      00 01 02 03 04 05 06 07  08 09 0A 0B 0C 0D 0E 0F
      -- -- -- -- -- -- -- --  -- -- -- -- -- -- -- --
0000: 00                                                .               
```

#### Opcodes

```
  0: 0x0000 [0x00] END_REQSTACK()
```

### Event 14

#### Metadata

| Field        | Value   |
|--------------|---------|
| Entrypoint   | 0x0001  |
| Data Size    | 7 bytes |
| Instructions | 3       |

```
      00 01 02 03 04 05 06 07  08 09 0A 0B 0C 0D 0E 0F
      -- -- -- -- -- -- -- --  -- -- -- -- -- -- -- --
0000:    1C 00 80 4F 01 80 00                            ...O...        
```

#### Opcodes

```
  0: 0x0001 [0x1C] WAIT(30* ticks)
  1: 0x0004 [0x4F] EventEntity->StatusEvent = 1* // Custom event value
  2: 0x0007 [0x00] END_REQSTACK()
```

### Event 40

#### Metadata

| Field        | Value   |
|--------------|---------|
| Entrypoint   | 0x0008  |
| Data Size    | 7 bytes |
| Instructions | 3       |

```
      00 01 02 03 04 05 06 07  08 09 0A 0B 0C 0D 0E 0F
      -- -- -- -- -- -- -- --  -- -- -- -- -- -- -- --
0000:                          1C 00 80 4F 02 80 00             ...O... 
```

#### Opcodes

```
  0: 0x0008 [0x1C] WAIT(30* ticks)
  1: 0x000B [0x4F] EventEntity->StatusEvent = 3* // Custom event value
  2: 0x000E [0x00] END_REQSTACK()
```

### Event 16

#### Metadata

| Field        | Value   |
|--------------|---------|
| Entrypoint   | 0x000F  |
| Data Size    | 7 bytes |
| Instructions | 3       |

```
      00 01 02 03 04 05 06 07  08 09 0A 0B 0C 0D 0E 0F
      -- -- -- -- -- -- -- --  -- -- -- -- -- -- -- --
0000:                                               1C                 .
0010: 00 80 4F 03 80 00                                 ..O...          
```

#### Opcodes

```
  0: 0x000F [0x1C] WAIT(30* ticks)
  1: 0x0012 [0x4F] EventEntity->StatusEvent = 7* // Custom event value
  2: 0x0015 [0x00] END_REQSTACK()
```

### Event 10

#### Metadata

| Field        | Value    |
|--------------|----------|
| Entrypoint   | 0x0016   |
| Data Size    | 10 bytes |
| Instructions | 2        |

```
      00 01 02 03 04 05 06 07  08 09 0A 0B 0C 0D 0E 0F
      -- -- -- -- -- -- -- --  -- -- -- -- -- -- -- --
0010:                   37 04  80 05 80 06 80 07 80 00        7.........
```

#### Opcodes

```
  0: 0x0016 [0x37] UPDATE_EVENT_POSITION_AND_DIR: x=-125.042*, z=72.786*, y=0.000*, direction=225.0°*
  1: 0x001F [0x00] END_REQSTACK()
```
