# 0x7FFFFFF0 - Zone Events

## Common Data

| Field            | Value                       |
|------------------|-----------------------------|
| Zone             | Carpenters' Landing (ID: 2) |
| Block Size       | 5100 bytes                  |
| Total Events     | 26                          |
| References Count | 112                         |

## List of Events

| Event ID                 | Entrypoint   |   Size |   Instructions |
|--------------------------|--------------|--------|----------------|
| [65535](#event-65535)    | 0x0000       |      1 |              1 |
| [65534](#event-65534)    | 0x0001       |      1 |              1 |
| [38](#event-38)          | 0x0002       |    124 |             14 |
| [10](#event-10)          | 0x007E       |    124 |             14 |
| [11](#event-11)          | 0x00FA       |    124 |             14 |
| [14](#event-14)          | 0x0176       |    170 |             24 |
| [15](#event-15)          | 0x0220       |     81 |             10 |
| [12](#event-12)          | 0x0271       |     15 |              5 |
| [40](#event-40)          | 0x0280       |    170 |             24 |
| [41](#event-41)          | 0x032A       |     81 |             10 |
| [39](#event-39)          | 0x037B       |     15 |              5 |
| [16](#event-16)          | 0x038A       |    170 |             24 |
| [17](#event-17)          | 0x0434       |     81 |             10 |
| [13](#event-13)          | 0x0485       |     15 |              5 |
| [33](#event-33)          | 0x0494       |    228 |             29 |
| [34](#event-34)          | 0x0578       |    228 |             29 |
| [42](#event-42)          | 0x065C       |    228 |             29 |
| [37](#event-37)          | 0x0740       |   1400 |            195 |
| [0](#event-0)            | 0x0CB8       |   1223 |            162 |
| [65535.1](#event-655351) | 0x117F       |     10 |              2 |
| [65535.2](#event-655352) | 0x1189       |      6 |              2 |
| [65535.3](#event-655353) | 0x118F       |      6 |              2 |
| [65535.4](#event-655354) | 0x1195       |      6 |              2 |
| [65535.5](#event-655355) | 0x119B       |      6 |              2 |
| [65535.6](#event-655356) | 0x11A1       |      6 |              2 |
| [65535.7](#event-655357) | 0x11A7       |     10 |              2 |

## DAT References (imed_data)

|   Index | Hex Value   |   Dec Value |
|---------|-------------|-------------|
|       0 | 0x00C8      |         200 |
|       1 | 0x0000      |           0 |
|       2 | 0x003D      |          61 |
|       3 | 0x003C      |          60 |
|       4 | 0x1D21      |        7457 |
|       5 | 0x1D22      |        7458 |
|       6 | 0x00E5      |         229 |
|       7 | 0x0065      |         101 |
|       8 | 0x00DB      |         219 |
|       9 | 0x38581     |      230785 |
|      10 | 0xFFF7E9A7  |  4294437287 |
|      11 | 0xFFFFF83E  |  4294965310 |
|      12 | 0x0816      |        2070 |
|      13 | 0xFFFDE8E9  |  4294830313 |
|      14 | 0xECED      |       60653 |
|      15 | 0xFFFFF830  |  4294965296 |
|      16 | 0x0600      |        1536 |
|      17 | 0xFFFB62B1  |  4294664881 |
|      18 | 0x7B70E     |      505614 |
|      19 | 0xFFFFF842  |  4294965314 |
|      20 | 0x0606      |        1542 |
|      21 | 0x38580     |      230784 |
|      22 | 0xFFF7E9A9  |  4294437289 |
|      23 | 0x0811      |        2065 |
|      24 | 0x001E      |          30 |
|      25 | 0x026A      |         618 |
|      26 | 0x1D18      |        7448 |
|      27 | 0x00B4      |         180 |
|      28 | 0x1D15      |        7445 |
|      29 | 0xFFFB62B2  |  4294664882 |
|      30 | 0x7B70C     |      505612 |
|      31 | 0x0013      |          19 |
|      32 | 0x1D969     |      121193 |
|      33 | 0xFFFA0071  |  4294574193 |
|      34 | 0xFFFFECEA  |  4294962410 |
|      35 | 0x0B70      |        2928 |
|      36 | 0x0001      |           1 |
|      37 | 0x0078      |         120 |
|      38 | 0x0074      |         116 |
|      39 | 0x1C63      |        7267 |
|      40 | 0x0046      |          70 |
|      41 | 0x1C64      |        7268 |
|      42 | 0x000A      |          10 |
|      43 | 0x1C65      |        7269 |
|      44 | 0x0007      |           7 |
|      45 | 0x1C66      |        7270 |
|      46 | 0x0006      |           6 |
|      47 | 0x1C67      |        7271 |
|      48 | 0x005A      |          90 |
|      49 | 0x1C68      |        7272 |
|      50 | 0x00AA      |         170 |
|      51 | 0x1C69      |        7273 |
|      52 | 0x1C6A      |        7274 |
|      53 | 0x1C6B      |        7275 |
|      54 | 0x1C6C      |        7276 |
|      55 | 0x1C6D      |        7277 |
|      56 | 0x1C6E      |        7278 |
|      57 | 0x1C6F      |        7279 |
|      58 | 0x1C70      |        7280 |
|      59 | 0x1C71      |        7281 |
|      60 | 0x012C      |         300 |
|      61 | 0x1C72      |        7282 |
|      62 | 0x006E      |         110 |
|      63 | 0x000D      |          13 |
|      64 | 0x0960      |        2400 |
|      65 | 0x00A3      |         163 |
|      66 | 0x1C73      |        7283 |
|      67 | 0x1C74      |        7284 |
|      68 | 0x1C75      |        7285 |
|      69 | 0x1C76      |        7286 |
|      70 | 0x1C77      |        7287 |
|      71 | 0x1C78      |        7288 |
|      72 | 0xFFFE2E96  |  4294848150 |
|      73 | 0xFFF8D8AD  |  4294498477 |
|      74 | 0xFFFFEA59  |  4294961753 |
|      75 | 0x07E2      |        2018 |
|      76 | 0x004A      |          74 |
|      77 | 0x1C4D      |        7245 |
|      78 | 0x1C4E      |        7246 |
|      79 | 0x1C4F      |        7247 |
|      80 | 0x0014      |          20 |
|      81 | 0x0064      |         100 |
|      82 | 0x006C      |         108 |
|      83 | 0x1C50      |        7248 |
|      84 | 0x0005      |           5 |
|      85 | 0x1C51      |        7249 |
|      86 | 0x000F      |          15 |
|      87 | 0x1C52      |        7250 |
|      88 | 0x1C53      |        7251 |
|      89 | 0x1C54      |        7252 |
|      90 | 0x1C55      |        7253 |
|      91 | 0x1C56      |        7254 |
|      92 | 0x1C57      |        7255 |
|      93 | 0x010D      |         269 |
|      94 | 0x007F      |         127 |
|      95 | 0x1C58      |        7256 |
|      96 | 0x1C59      |        7257 |
|      97 | 0x1C5A      |        7258 |
|      98 | 0x1C5B      |        7259 |
|      99 | 0x1C5C      |        7260 |
|     100 | 0x0032      |          50 |
|     101 | 0x1C5D      |        7261 |
|     102 | 0x1C5E      |        7262 |
|     103 | 0x00A0      |         160 |
|     104 | 0x34850     |      215120 |
|     105 | 0xFFF7EBB3  |  4294437811 |
|     106 | 0xFFFFF820  |  4294965280 |
|     107 | 0x0CBC      |        3260 |
|     108 | 0xFFFE739E  |  4294865822 |
|     109 | 0xFFF82502  |  4294452482 |
|     110 | 0xFFFFFCAC  |  4294966444 |
|     111 | 0x0037      |          55 |

## String References

- **7269**: How do you respond? [Yes, I have a message./I have no message for you.]
- **7448**: You were refused passage for failing to present $6!
- **7457**: You use your $3. ($2 trip[/s] remaining)
- **7458**: You use up your $3.

## Events

### Event 65535

#### Metadata

| Field        | Value   |
|--------------|---------|
| Entrypoint   | 0x0000  |
| Data Size    | 1 bytes |
| Instructions | 1       |

```
      00 01 02 03 04 05 06 07  08 09 0A 0B 0C 0D 0E 0F
      -- -- -- -- -- -- -- --  -- -- -- -- -- -- -- --
0000: 00                                                .               
```

#### Opcodes

```
  0: 0x0000 [0x00] END_REQSTACK()
```

### Event 65534

#### Metadata

| Field        | Value   |
|--------------|---------|
| Entrypoint   | 0x0001  |
| Data Size    | 1 bytes |
| Instructions | 1       |

```
      00 01 02 03 04 05 06 07  08 09 0A 0B 0C 0D 0E 0F
      -- -- -- -- -- -- -- --  -- -- -- -- -- -- -- --
0000:    00                                              .              
```

#### Opcodes

```
  0: 0x0001 [0x00] END_REQSTACK()
```

### Event 38

#### Metadata

| Field        | Value     |
|--------------|-----------|
| Entrypoint   | 0x0002    |
| Data Size    | 124 bytes |
| Instructions | 14        |

```
      00 01 02 03 04 05 06 07  08 09 0A 0B 0C 0D 0E 0F
      -- -- -- -- -- -- -- --  -- -- -- -- -- -- -- --
0000:       42 46 01 22 01 45  00 80 F0 FF FF 7F F0 FF    BF.".E........
0010: FF 7F 66 64 69 32 01 80  45 02 80 F0 FF FF 7F F0  ..fdi2..E.......
0020: FF FF 7F 73 6A 30 35 01  80 55 02 80 F0 FF FF 7F  ...sj05..U......
0030: F0 FF FF 7F 73 6A 30 35  45 00 80 F0 FF FF 7F F0  ....sj05E.......
0040: FF FF 7F 66 64 6F 31 01  80 55 00 80 F0 FF FF 7F  ...fdo1..U......
0050: F0 FF FF 7F 66 64 6F 31  46 00 22 00 45 00 80 F0  ....fdo1F.".E...
0060: FF FF 7F F0 FF FF 7F 66  64 69 31 01 80 55 00 80  .......fdi1..U..
0070: F0 FF FF 7F F0 FF FF 7F  66 64 69 31 21 00        ........fdi1!.  
```

#### Opcodes

```
  0: 0x0002 [0x42] SET_CLI_EVENT_CANCEL_DATA()
  1: 0x0003 [0x46] CAMERA_CONTROL: Disable user control
  2: 0x0005 [0x22] ENTITY_HIDE_FLAG(enabled=0x01)
  3: 0x0007 [0x45] LOAD_SCHEDULED_TASK: Load scheduler "fdi2" with entities [LocalPlayer, LocalPlayer], work=[200*, 0*]
  4: 0x0018 [0x45] LOAD_SCHEDULED_TASK: Load scheduler "sj05" with entities [LocalPlayer, LocalPlayer], work=[61*, 0*]
  5: 0x0029 [0x55] WAIT_LOAD_SCHEDULER: Wait for scheduler "sj05" with entities [LocalPlayer, LocalPlayer], work=61*
  6: 0x0038 [0x45] LOAD_SCHEDULED_TASK: Load scheduler "fdo1" with entities [LocalPlayer, LocalPlayer], work=[200*, 0*]
  7: 0x0049 [0x55] WAIT_LOAD_SCHEDULER: Wait for scheduler "fdo1" with entities [LocalPlayer, LocalPlayer], work=200*
  8: 0x0058 [0x46] CAMERA_CONTROL: Restore default settings
  9: 0x005A [0x22] ENTITY_HIDE_FLAG(enabled=0x00)
 10: 0x005C [0x45] LOAD_SCHEDULED_TASK: Load scheduler "fdi1" with entities [LocalPlayer, LocalPlayer], work=[200*, 0*]
 11: 0x006D [0x55] WAIT_LOAD_SCHEDULER: Wait for scheduler "fdi1" with entities [LocalPlayer, LocalPlayer], work=200*
 12: 0x007C [0x21] END_EVENT
 13: 0x007D [0x00] END_REQSTACK()
```

### Event 10

#### Metadata

| Field        | Value     |
|--------------|-----------|
| Entrypoint   | 0x007E    |
| Data Size    | 124 bytes |
| Instructions | 14        |

```
      00 01 02 03 04 05 06 07  08 09 0A 0B 0C 0D 0E 0F
      -- -- -- -- -- -- -- --  -- -- -- -- -- -- -- --
0070:                                            42 46                BF
0080: 01 22 01 45 00 80 F0 FF  FF 7F F0 FF FF 7F 66 64  .".E..........fd
0090: 69 32 01 80 45 02 80 F0  FF FF 7F F0 FF FF 7F 73  i2..E..........s
00A0: 6A 32 6E 01 80 55 02 80  F0 FF FF 7F F0 FF FF 7F  j2n..U..........
00B0: 73 6A 32 6E 45 00 80 F0  FF FF 7F F0 FF FF 7F 66  sj2nE..........f
00C0: 64 6F 31 01 80 55 00 80  F0 FF FF 7F F0 FF FF 7F  do1..U..........
00D0: 66 64 6F 31 46 00 22 00  45 00 80 F0 FF FF 7F F0  fdo1F.".E.......
00E0: FF FF 7F 66 64 69 31 01  80 55 00 80 F0 FF FF 7F  ...fdi1..U......
00F0: F0 FF FF 7F 66 64 69 31  21 00                    ....fdi1!.      
```

#### Opcodes

```
  0: 0x007E [0x42] SET_CLI_EVENT_CANCEL_DATA()
  1: 0x007F [0x46] CAMERA_CONTROL: Disable user control
  2: 0x0081 [0x22] ENTITY_HIDE_FLAG(enabled=0x01)
  3: 0x0083 [0x45] LOAD_SCHEDULED_TASK: Load scheduler "fdi2" with entities [LocalPlayer, LocalPlayer], work=[200*, 0*]
  4: 0x0094 [0x45] LOAD_SCHEDULED_TASK: Load scheduler "sj2n" with entities [LocalPlayer, LocalPlayer], work=[61*, 0*]
  5: 0x00A5 [0x55] WAIT_LOAD_SCHEDULER: Wait for scheduler "sj2n" with entities [LocalPlayer, LocalPlayer], work=61*
  6: 0x00B4 [0x45] LOAD_SCHEDULED_TASK: Load scheduler "fdo1" with entities [LocalPlayer, LocalPlayer], work=[200*, 0*]
  7: 0x00C5 [0x55] WAIT_LOAD_SCHEDULER: Wait for scheduler "fdo1" with entities [LocalPlayer, LocalPlayer], work=200*
  8: 0x00D4 [0x46] CAMERA_CONTROL: Restore default settings
  9: 0x00D6 [0x22] ENTITY_HIDE_FLAG(enabled=0x00)
 10: 0x00D8 [0x45] LOAD_SCHEDULED_TASK: Load scheduler "fdi1" with entities [LocalPlayer, LocalPlayer], work=[200*, 0*]
 11: 0x00E9 [0x55] WAIT_LOAD_SCHEDULER: Wait for scheduler "fdi1" with entities [LocalPlayer, LocalPlayer], work=200*
 12: 0x00F8 [0x21] END_EVENT
 13: 0x00F9 [0x00] END_REQSTACK()
```

### Event 11

#### Metadata

| Field        | Value     |
|--------------|-----------|
| Entrypoint   | 0x00FA    |
| Data Size    | 124 bytes |
| Instructions | 14        |

```
      00 01 02 03 04 05 06 07  08 09 0A 0B 0C 0D 0E 0F
      -- -- -- -- -- -- -- --  -- -- -- -- -- -- -- --
00F0:                                42 46 01 22 01 45            BF.".E
0100: 00 80 F0 FF FF 7F F0 FF  FF 7F 66 64 69 32 01 80  ..........fdi2..
0110: 45 02 80 F0 FF FF 7F F0  FF FF 7F 73 6A 34 6E 01  E..........sj4n.
0120: 80 55 02 80 F0 FF FF 7F  F0 FF FF 7F 73 6A 34 6E  .U..........sj4n
0130: 45 00 80 F0 FF FF 7F F0  FF FF 7F 66 64 6F 31 01  E..........fdo1.
0140: 80 55 00 80 F0 FF FF 7F  F0 FF FF 7F 66 64 6F 31  .U..........fdo1
0150: 46 00 22 00 45 00 80 F0  FF FF 7F F0 FF FF 7F 66  F.".E..........f
0160: 64 69 31 01 80 55 00 80  F0 FF FF 7F F0 FF FF 7F  di1..U..........
0170: 66 64 69 31 21 00                                 fdi1!.          
```

#### Opcodes

```
  0: 0x00FA [0x42] SET_CLI_EVENT_CANCEL_DATA()
  1: 0x00FB [0x46] CAMERA_CONTROL: Disable user control
  2: 0x00FD [0x22] ENTITY_HIDE_FLAG(enabled=0x01)
  3: 0x00FF [0x45] LOAD_SCHEDULED_TASK: Load scheduler "fdi2" with entities [LocalPlayer, LocalPlayer], work=[200*, 0*]
  4: 0x0110 [0x45] LOAD_SCHEDULED_TASK: Load scheduler "sj4n" with entities [LocalPlayer, LocalPlayer], work=[61*, 0*]
  5: 0x0121 [0x55] WAIT_LOAD_SCHEDULER: Wait for scheduler "sj4n" with entities [LocalPlayer, LocalPlayer], work=61*
  6: 0x0130 [0x45] LOAD_SCHEDULED_TASK: Load scheduler "fdo1" with entities [LocalPlayer, LocalPlayer], work=[200*, 0*]
  7: 0x0141 [0x55] WAIT_LOAD_SCHEDULER: Wait for scheduler "fdo1" with entities [LocalPlayer, LocalPlayer], work=200*
  8: 0x0150 [0x46] CAMERA_CONTROL: Restore default settings
  9: 0x0152 [0x22] ENTITY_HIDE_FLAG(enabled=0x00)
 10: 0x0154 [0x45] LOAD_SCHEDULED_TASK: Load scheduler "fdi1" with entities [LocalPlayer, LocalPlayer], work=[200*, 0*]
 11: 0x0165 [0x55] WAIT_LOAD_SCHEDULER: Wait for scheduler "fdi1" with entities [LocalPlayer, LocalPlayer], work=200*
 12: 0x0174 [0x21] END_EVENT
 13: 0x0175 [0x00] END_REQSTACK()
```

### Event 14

#### Metadata

| Field        | Value     |
|--------------|-----------|
| Entrypoint   | 0x0176    |
| Data Size    | 170 bytes |
| Instructions | 24        |

```
      00 01 02 03 04 05 06 07  08 09 0A 0B 0C 0D 0E 0F
      -- -- -- -- -- -- -- --  -- -- -- -- -- -- -- --
0170:                   42 46  01 5D 01 80 03 80 45 00        BF.]....E.
0180: 80 F0 FF FF 7F F0 FF FF  7F 66 64 6F 30 01 80 55  .........fdo0..U
0190: 00 80 F0 FF FF 7F F0 FF  FF 7F 66 64 6F 30 22 01  ..........fdo0".
01A0: 02 03 10 01 80 01 BC 01  0C 04 10 02 04 10 01 80  ................
01B0: 02 B9 01 48 04 80 01 BC  01 48 05 80 45 00 80 F0  ...H.....H..E...
01C0: FF FF 7F F0 FF FF 7F 66  64 69 30 01 80 45 02 80  .......fdi0..E..
01D0: F0 FF FF 7F F0 FF FF 7F  73 6A 31 6E 01 80 5C 00  ........sj1n..\.
01E0: 06 80 5C 01 06 80 5C 02  07 80 5C 03 08 80 55 02  ..\...\...\...U.
01F0: 80 F0 FF FF 7F F0 FF FF  7F 73 6A 31 6E 45 00 80  .........sj1nE..
0200: F0 FF FF 7F F0 FF FF 7F  66 64 6F 32 01 80 55 00  ........fdo2..U.
0210: 80 F0 FF FF 7F F0 FF FF  7F 66 64 6F 32 30 21 00  .........fdo20!.
```

#### Opcodes

```
  0: 0x0176 [0x42] SET_CLI_EVENT_CANCEL_DATA()
  1: 0x0177 [0x46] CAMERA_CONTROL: Disable user control
  2: 0x0179 [0x5D] SET_MUSIC_VOLUME(volume=0*, fade_time=60*)
  3: 0x017E [0x45] LOAD_SCHEDULED_TASK: Load scheduler "fdo0" with entities [LocalPlayer, LocalPlayer], work=[200*, 0*]
  4: 0x018F [0x55] WAIT_LOAD_SCHEDULER: Wait for scheduler "fdo0" with entities [LocalPlayer, LocalPlayer], work=200*
  5: 0x019E [0x22] ENTITY_HIDE_FLAG(enabled=0x01)
  6: 0x01A0 [0x02] IF !(Work_Zone[3] == 0*) GOTO 0x01BC
  7: 0x01A8 [0x0C] Work_Zone[4]--
  8: 0x01AB [0x02] IF !(Work_Zone[4] <= 0*) GOTO 0x01B9
  9: 0x01B3 [0x48] [System] [7457*]:
    → "You use your $3. ($2 trip[/s] remaining)"
 10: 0x01B6 [0x01] GOTO 0x01BC
 11: 0x01B9 [0x48] [System] [7458*]:
    → "You use up your $3."

SUBROUTINE_01BC:
 12: 0x01BC [0x45] LOAD_SCHEDULED_TASK: Load scheduler "fdi0" with entities [LocalPlayer, LocalPlayer], work=[200*, 0*]
 13: 0x01CD [0x45] LOAD_SCHEDULED_TASK: Load scheduler "sj1n" with entities [LocalPlayer, LocalPlayer], work=[61*, 0*]
 14: 0x01DE [0x5C] MUSIC_CONTROL: Set Idle (Day) music to song 229*
 15: 0x01E2 [0x5C] MUSIC_CONTROL: Set Idle (Night) music to song 229*
 16: 0x01E6 [0x5C] MUSIC_CONTROL: Set Combat (Solo) music to song 101*
 17: 0x01EA [0x5C] MUSIC_CONTROL: Set Combat (Party) music to song 219*
 18: 0x01EE [0x55] WAIT_LOAD_SCHEDULER: Wait for scheduler "sj1n" with entities [LocalPlayer, LocalPlayer], work=61*
 19: 0x01FD [0x45] LOAD_SCHEDULED_TASK: Load scheduler "fdo2" with entities [LocalPlayer, LocalPlayer], work=[200*, 0*]
 20: 0x020E [0x55] WAIT_LOAD_SCHEDULER: Wait for scheduler "fdo2" with entities [LocalPlayer, LocalPlayer], work=200*
 21: 0x021D [0x30] SET_UCOFF_CONTINUE_ZERO()
 22: 0x021E [0x21] END_EVENT
 23: 0x021F [0x00] END_REQSTACK()
```

### Event 15

#### Metadata

| Field        | Value    |
|--------------|----------|
| Entrypoint   | 0x0220   |
| Data Size    | 81 bytes |
| Instructions | 10       |

```
      00 01 02 03 04 05 06 07  08 09 0A 0B 0C 0D 0E 0F
      -- -- -- -- -- -- -- --  -- -- -- -- -- -- -- --
0220: 20 01 42 45 00 80 F0 FF  FF 7F F0 FF FF 7F 66 64   .BE..........fd
0230: 6F 30 01 80 55 00 80 F0  FF FF 7F F0 FF FF 7F 66  o0..U..........f
0240: 64 6F 30 47 00 09 80 0A  80 0B 80 0C 80 47 01 45  do0G.........G.E
0250: 00 80 F0 FF FF 7F F0 FF  FF 7F 66 64 69 30 01 80  ..........fdi0..
0260: 55 00 80 F0 FF FF 7F F0  FF FF 7F 66 64 69 30 21  U..........fdi0!
0270: 00                                                .               
```

#### Opcodes

```
  0: 0x0220 [0x20] SET_CLI_EVENT_UC_FLAG: Lock player control
  1: 0x0222 [0x42] SET_CLI_EVENT_CANCEL_DATA()
  2: 0x0223 [0x45] LOAD_SCHEDULED_TASK: Load scheduler "fdo0" with entities [LocalPlayer, LocalPlayer], work=[200*, 0*]
  3: 0x0234 [0x55] WAIT_LOAD_SCHEDULER: Wait for scheduler "fdo0" with entities [LocalPlayer, LocalPlayer], work=200*
  4: 0x0243 [0x47] UPDATE_PLAYER_POS(230.785*, -530.009*, -1.986*, yaw=181.9°*)
  5: 0x024D [0x47] WAIT_PLAYER_POS_UPDATE
  6: 0x024F [0x45] LOAD_SCHEDULED_TASK: Load scheduler "fdi0" with entities [LocalPlayer, LocalPlayer], work=[200*, 0*]
  7: 0x0260 [0x55] WAIT_LOAD_SCHEDULER: Wait for scheduler "fdi0" with entities [LocalPlayer, LocalPlayer], work=200*
  8: 0x026F [0x21] END_EVENT
  9: 0x0270 [0x00] END_REQSTACK()
```

### Event 12

#### Metadata

| Field        | Value    |
|--------------|----------|
| Entrypoint   | 0x0271   |
| Data Size    | 15 bytes |
| Instructions | 5        |

```
      00 01 02 03 04 05 06 07  08 09 0A 0B 0C 0D 0E 0F
      -- -- -- -- -- -- -- --  -- -- -- -- -- -- -- --
0270:    42 47 00 09 80 0A 80  0B 80 0C 80 47 01 21 00   BG.........G.!.
```

#### Opcodes

```
  0: 0x0271 [0x42] SET_CLI_EVENT_CANCEL_DATA()
  1: 0x0272 [0x47] UPDATE_PLAYER_POS(230.785*, -530.009*, -1.986*, yaw=181.9°*)
  2: 0x027C [0x47] WAIT_PLAYER_POS_UPDATE
  3: 0x027E [0x21] END_EVENT
  4: 0x027F [0x00] END_REQSTACK()
```

### Event 40

#### Metadata

| Field        | Value     |
|--------------|-----------|
| Entrypoint   | 0x0280    |
| Data Size    | 170 bytes |
| Instructions | 24        |

```
      00 01 02 03 04 05 06 07  08 09 0A 0B 0C 0D 0E 0F
      -- -- -- -- -- -- -- --  -- -- -- -- -- -- -- --
0280: 42 46 01 5D 01 80 03 80  45 00 80 F0 FF FF 7F F0  BF.]....E.......
0290: FF FF 7F 66 64 6F 30 01  80 55 00 80 F0 FF FF 7F  ...fdo0..U......
02A0: F0 FF FF 7F 66 64 6F 30  22 01 02 03 10 01 80 01  ....fdo0".......
02B0: C6 02 0C 04 10 02 04 10  01 80 02 C3 02 48 04 80  .............H..
02C0: 01 C6 02 48 05 80 45 00  80 F0 FF FF 7F F0 FF FF  ...H..E.........
02D0: 7F 66 64 69 30 01 80 45  02 80 F0 FF FF 7F F0 FF  .fdi0..E........
02E0: FF 7F 73 6A 30 33 01 80  5C 00 06 80 5C 01 06 80  ..sj03..\...\...
02F0: 5C 02 07 80 5C 03 08 80  55 02 80 F0 FF FF 7F F0  \...\...U.......
0300: FF FF 7F 73 6A 30 33 45  00 80 F0 FF FF 7F F0 FF  ...sj03E........
0310: FF 7F 66 64 6F 32 01 80  55 00 80 F0 FF FF 7F F0  ..fdo2..U.......
0320: FF FF 7F 66 64 6F 32 30  21 00                    ...fdo20!.      
```

#### Opcodes

```
  0: 0x0280 [0x42] SET_CLI_EVENT_CANCEL_DATA()
  1: 0x0281 [0x46] CAMERA_CONTROL: Disable user control
  2: 0x0283 [0x5D] SET_MUSIC_VOLUME(volume=0*, fade_time=60*)
  3: 0x0288 [0x45] LOAD_SCHEDULED_TASK: Load scheduler "fdo0" with entities [LocalPlayer, LocalPlayer], work=[200*, 0*]
  4: 0x0299 [0x55] WAIT_LOAD_SCHEDULER: Wait for scheduler "fdo0" with entities [LocalPlayer, LocalPlayer], work=200*
  5: 0x02A8 [0x22] ENTITY_HIDE_FLAG(enabled=0x01)
  6: 0x02AA [0x02] IF !(Work_Zone[3] == 0*) GOTO 0x02C6
  7: 0x02B2 [0x0C] Work_Zone[4]--
  8: 0x02B5 [0x02] IF !(Work_Zone[4] <= 0*) GOTO 0x02C3
  9: 0x02BD [0x48] [System] [7457*]:
    → "You use your $3. ($2 trip[/s] remaining)"
 10: 0x02C0 [0x01] GOTO 0x02C6
 11: 0x02C3 [0x48] [System] [7458*]:
    → "You use up your $3."

SUBROUTINE_02C6:
 12: 0x02C6 [0x45] LOAD_SCHEDULED_TASK: Load scheduler "fdi0" with entities [LocalPlayer, LocalPlayer], work=[200*, 0*]
 13: 0x02D7 [0x45] LOAD_SCHEDULED_TASK: Load scheduler "sj03" with entities [LocalPlayer, LocalPlayer], work=[61*, 0*]
 14: 0x02E8 [0x5C] MUSIC_CONTROL: Set Idle (Day) music to song 229*
 15: 0x02EC [0x5C] MUSIC_CONTROL: Set Idle (Night) music to song 229*
 16: 0x02F0 [0x5C] MUSIC_CONTROL: Set Combat (Solo) music to song 101*
 17: 0x02F4 [0x5C] MUSIC_CONTROL: Set Combat (Party) music to song 219*
 18: 0x02F8 [0x55] WAIT_LOAD_SCHEDULER: Wait for scheduler "sj03" with entities [LocalPlayer, LocalPlayer], work=61*
 19: 0x0307 [0x45] LOAD_SCHEDULED_TASK: Load scheduler "fdo2" with entities [LocalPlayer, LocalPlayer], work=[200*, 0*]
 20: 0x0318 [0x55] WAIT_LOAD_SCHEDULER: Wait for scheduler "fdo2" with entities [LocalPlayer, LocalPlayer], work=200*
 21: 0x0327 [0x30] SET_UCOFF_CONTINUE_ZERO()
 22: 0x0328 [0x21] END_EVENT
 23: 0x0329 [0x00] END_REQSTACK()
```

### Event 41

#### Metadata

| Field        | Value    |
|--------------|----------|
| Entrypoint   | 0x032A   |
| Data Size    | 81 bytes |
| Instructions | 10       |

```
      00 01 02 03 04 05 06 07  08 09 0A 0B 0C 0D 0E 0F
      -- -- -- -- -- -- -- --  -- -- -- -- -- -- -- --
0320:                                20 01 42 45 00 80             .BE..
0330: F0 FF FF 7F F0 FF FF 7F  66 64 6F 30 01 80 55 00  ........fdo0..U.
0340: 80 F0 FF FF 7F F0 FF FF  7F 66 64 6F 30 47 00 0D  .........fdo0G..
0350: 80 0E 80 0F 80 10 80 47  01 45 00 80 F0 FF FF 7F  .......G.E......
0360: F0 FF FF 7F 66 64 69 30  01 80 55 00 80 F0 FF FF  ....fdi0..U.....
0370: 7F F0 FF FF 7F 66 64 69  30 21 00                 .....fdi0!.     
```

#### Opcodes

```
  0: 0x032A [0x20] SET_CLI_EVENT_UC_FLAG: Lock player control
  1: 0x032C [0x42] SET_CLI_EVENT_CANCEL_DATA()
  2: 0x032D [0x45] LOAD_SCHEDULED_TASK: Load scheduler "fdo0" with entities [LocalPlayer, LocalPlayer], work=[200*, 0*]
  3: 0x033E [0x55] WAIT_LOAD_SCHEDULER: Wait for scheduler "fdo0" with entities [LocalPlayer, LocalPlayer], work=200*
  4: 0x034D [0x47] UPDATE_PLAYER_POS(-136.983*, 60.653*, -2.000*, yaw=135.0°*)
  5: 0x0357 [0x47] WAIT_PLAYER_POS_UPDATE
  6: 0x0359 [0x45] LOAD_SCHEDULED_TASK: Load scheduler "fdi0" with entities [LocalPlayer, LocalPlayer], work=[200*, 0*]
  7: 0x036A [0x55] WAIT_LOAD_SCHEDULER: Wait for scheduler "fdi0" with entities [LocalPlayer, LocalPlayer], work=200*
  8: 0x0379 [0x21] END_EVENT
  9: 0x037A [0x00] END_REQSTACK()
```

### Event 39

#### Metadata

| Field        | Value    |
|--------------|----------|
| Entrypoint   | 0x037B   |
| Data Size    | 15 bytes |
| Instructions | 5        |

```
      00 01 02 03 04 05 06 07  08 09 0A 0B 0C 0D 0E 0F
      -- -- -- -- -- -- -- --  -- -- -- -- -- -- -- --
0370:                                   42 47 00 0D 80             BG...
0380: 0E 80 0F 80 10 80 47 01  21 00                    ......G.!.      
```

#### Opcodes

```
  0: 0x037B [0x42] SET_CLI_EVENT_CANCEL_DATA()
  1: 0x037C [0x47] UPDATE_PLAYER_POS(-136.983*, 60.653*, -2.000*, yaw=135.0°*)
  2: 0x0386 [0x47] WAIT_PLAYER_POS_UPDATE
  3: 0x0388 [0x21] END_EVENT
  4: 0x0389 [0x00] END_REQSTACK()
```

### Event 16

#### Metadata

| Field        | Value     |
|--------------|-----------|
| Entrypoint   | 0x038A    |
| Data Size    | 170 bytes |
| Instructions | 24        |

```
      00 01 02 03 04 05 06 07  08 09 0A 0B 0C 0D 0E 0F
      -- -- -- -- -- -- -- --  -- -- -- -- -- -- -- --
0380:                                42 46 01 5D 01 80            BF.]..
0390: 03 80 45 00 80 F0 FF FF  7F F0 FF FF 7F 66 64 6F  ..E..........fdo
03A0: 30 01 80 55 00 80 F0 FF  FF 7F F0 FF FF 7F 66 64  0..U..........fd
03B0: 6F 30 22 01 02 03 10 01  80 01 D0 03 0C 04 10 02  o0".............
03C0: 04 10 01 80 02 CD 03 48  04 80 01 D0 03 48 05 80  .......H.....H..
03D0: 45 00 80 F0 FF FF 7F F0  FF FF 7F 66 64 69 30 01  E..........fdi0.
03E0: 80 45 02 80 F0 FF FF 7F  F0 FF FF 7F 73 6A 37 6E  .E..........sj7n
03F0: 01 80 5C 00 06 80 5C 01  06 80 5C 02 07 80 5C 03  ..\...\...\...\.
0400: 08 80 55 02 80 F0 FF FF  7F F0 FF FF 7F 73 6A 37  ..U..........sj7
0410: 6E 45 00 80 F0 FF FF 7F  F0 FF FF 7F 66 64 6F 32  nE..........fdo2
0420: 01 80 55 00 80 F0 FF FF  7F F0 FF FF 7F 66 64 6F  ..U..........fdo
0430: 32 30 21 00                                       20!.            
```

#### Opcodes

```
  0: 0x038A [0x42] SET_CLI_EVENT_CANCEL_DATA()
  1: 0x038B [0x46] CAMERA_CONTROL: Disable user control
  2: 0x038D [0x5D] SET_MUSIC_VOLUME(volume=0*, fade_time=60*)
  3: 0x0392 [0x45] LOAD_SCHEDULED_TASK: Load scheduler "fdo0" with entities [LocalPlayer, LocalPlayer], work=[200*, 0*]
  4: 0x03A3 [0x55] WAIT_LOAD_SCHEDULER: Wait for scheduler "fdo0" with entities [LocalPlayer, LocalPlayer], work=200*
  5: 0x03B2 [0x22] ENTITY_HIDE_FLAG(enabled=0x01)
  6: 0x03B4 [0x02] IF !(Work_Zone[3] == 0*) GOTO 0x03D0
  7: 0x03BC [0x0C] Work_Zone[4]--
  8: 0x03BF [0x02] IF !(Work_Zone[4] <= 0*) GOTO 0x03CD
  9: 0x03C7 [0x48] [System] [7457*]:
    → "You use your $3. ($2 trip[/s] remaining)"
 10: 0x03CA [0x01] GOTO 0x03D0
 11: 0x03CD [0x48] [System] [7458*]:
    → "You use up your $3."

SUBROUTINE_03D0:
 12: 0x03D0 [0x45] LOAD_SCHEDULED_TASK: Load scheduler "fdi0" with entities [LocalPlayer, LocalPlayer], work=[200*, 0*]
 13: 0x03E1 [0x45] LOAD_SCHEDULED_TASK: Load scheduler "sj7n" with entities [LocalPlayer, LocalPlayer], work=[61*, 0*]
 14: 0x03F2 [0x5C] MUSIC_CONTROL: Set Idle (Day) music to song 229*
 15: 0x03F6 [0x5C] MUSIC_CONTROL: Set Idle (Night) music to song 229*
 16: 0x03FA [0x5C] MUSIC_CONTROL: Set Combat (Solo) music to song 101*
 17: 0x03FE [0x5C] MUSIC_CONTROL: Set Combat (Party) music to song 219*
 18: 0x0402 [0x55] WAIT_LOAD_SCHEDULER: Wait for scheduler "sj7n" with entities [LocalPlayer, LocalPlayer], work=61*
 19: 0x0411 [0x45] LOAD_SCHEDULED_TASK: Load scheduler "fdo2" with entities [LocalPlayer, LocalPlayer], work=[200*, 0*]
 20: 0x0422 [0x55] WAIT_LOAD_SCHEDULER: Wait for scheduler "fdo2" with entities [LocalPlayer, LocalPlayer], work=200*
 21: 0x0431 [0x30] SET_UCOFF_CONTINUE_ZERO()
 22: 0x0432 [0x21] END_EVENT
 23: 0x0433 [0x00] END_REQSTACK()
```

### Event 17

#### Metadata

| Field        | Value    |
|--------------|----------|
| Entrypoint   | 0x0434   |
| Data Size    | 81 bytes |
| Instructions | 10       |

```
      00 01 02 03 04 05 06 07  08 09 0A 0B 0C 0D 0E 0F
      -- -- -- -- -- -- -- --  -- -- -- -- -- -- -- --
0430:             20 01 42 45  00 80 F0 FF FF 7F F0 FF       .BE........
0440: FF 7F 66 64 6F 30 01 80  55 00 80 F0 FF FF 7F F0  ..fdo0..U.......
0450: FF FF 7F 66 64 6F 30 47  00 11 80 12 80 13 80 14  ...fdo0G........
0460: 80 47 01 45 00 80 F0 FF  FF 7F F0 FF FF 7F 66 64  .G.E..........fd
0470: 69 30 01 80 55 00 80 F0  FF FF 7F F0 FF FF 7F 66  i0..U..........f
0480: 64 69 30 21 00                                    di0!.           
```

#### Opcodes

```
  0: 0x0434 [0x20] SET_CLI_EVENT_UC_FLAG: Lock player control
  1: 0x0436 [0x42] SET_CLI_EVENT_CANCEL_DATA()
  2: 0x0437 [0x45] LOAD_SCHEDULED_TASK: Load scheduler "fdo0" with entities [LocalPlayer, LocalPlayer], work=[200*, 0*]
  3: 0x0448 [0x55] WAIT_LOAD_SCHEDULER: Wait for scheduler "fdo0" with entities [LocalPlayer, LocalPlayer], work=200*
  4: 0x0457 [0x47] UPDATE_PLAYER_POS(-302.415*, 505.614*, -1.982*, yaw=135.5°*)
  5: 0x0461 [0x47] WAIT_PLAYER_POS_UPDATE
  6: 0x0463 [0x45] LOAD_SCHEDULED_TASK: Load scheduler "fdi0" with entities [LocalPlayer, LocalPlayer], work=[200*, 0*]
  7: 0x0474 [0x55] WAIT_LOAD_SCHEDULER: Wait for scheduler "fdi0" with entities [LocalPlayer, LocalPlayer], work=200*
  8: 0x0483 [0x21] END_EVENT
  9: 0x0484 [0x00] END_REQSTACK()
```

### Event 13

#### Metadata

| Field        | Value    |
|--------------|----------|
| Entrypoint   | 0x0485   |
| Data Size    | 15 bytes |
| Instructions | 5        |

```
      00 01 02 03 04 05 06 07  08 09 0A 0B 0C 0D 0E 0F
      -- -- -- -- -- -- -- --  -- -- -- -- -- -- -- --
0480:                42 47 00  11 80 12 80 13 80 14 80       BG.........
0490: 47 01 21 00                                       G.!.            
```

#### Opcodes

```
  0: 0x0485 [0x42] SET_CLI_EVENT_CANCEL_DATA()
  1: 0x0486 [0x47] UPDATE_PLAYER_POS(-302.415*, 505.614*, -1.982*, yaw=135.5°*)
  2: 0x0490 [0x47] WAIT_PLAYER_POS_UPDATE
  3: 0x0492 [0x21] END_EVENT
  4: 0x0493 [0x00] END_REQSTACK()
```

### Event 33

#### Metadata

| Field        | Value     |
|--------------|-----------|
| Entrypoint   | 0x0494    |
| Data Size    | 228 bytes |
| Instructions | 29        |

```
      00 01 02 03 04 05 06 07  08 09 0A 0B 0C 0D 0E 0F
      -- -- -- -- -- -- -- --  -- -- -- -- -- -- -- --
0490:             20 01 42 45  00 80 F8 FF FF 7F F8 FF       .BE........
04A0: FF 7F 66 64 6F 30 01 80  55 00 80 F8 FF FF 7F F8  ..fdo0..U.......
04B0: FF FF 7F 66 64 6F 30 46  01 45 02 80 F8 FF FF 7F  ...fdo0F.E......
04C0: F8 FF FF 7F 73 66 6A 30  01 80 47 00 15 80 16 80  ....sfj0..G.....
04D0: 0B 80 17 80 47 01 80 F0  FF FF 7F 1C 18 80 2C F0  ....G.........,.
04E0: FF FF 7F F0 FF FF 7F 63  6F 72 70 53 F0 FF FF 7F  .......corpS....
04F0: F0 FF FF 7F 63 6F 72 70  45 00 80 F8 FF FF 7F F8  ....corpE.......
0500: FF FF 7F 66 64 69 30 01  80 55 00 80 F8 FF FF 7F  ...fdi0..U......
0510: F8 FF FF 7F 66 64 69 30  03 02 10 19 80 48 1A 80  ....fdi0.....H..
0520: 23 1C 1B 80 2B 51 21 00  01 1C 80 23 45 00 80 F8  #...+Q!....#E...
0530: FF FF 7F F8 FF FF 7F 66  64 6F 30 01 80 55 00 80  .......fdo0..U..
0540: F8 FF FF 7F F8 FF FF 7F  66 64 6F 30 46 00 5E 69  ........fdo0F.^i
0550: 64 6C 30 1C 18 80 45 00  80 F8 FF FF 7F F8 FF FF  dl0...E.........
0560: 7F 66 64 69 30 01 80 55  00 80 F8 FF FF 7F F8 FF  .fdi0..U........
0570: FF 7F 66 64 69 30 21 00                           ..fdi0!.        
```

#### Opcodes

```
  0: 0x0494 [0x20] SET_CLI_EVENT_UC_FLAG: Lock player control
  1: 0x0496 [0x42] SET_CLI_EVENT_CANCEL_DATA()
  2: 0x0497 [0x45] LOAD_SCHEDULED_TASK: Load scheduler "fdo0" with entities [EventEntity, EventEntity], work=[200*, 0*]
  3: 0x04A8 [0x55] WAIT_LOAD_SCHEDULER: Wait for scheduler "fdo0" with entities [EventEntity, EventEntity], work=200*
  4: 0x04B7 [0x46] CAMERA_CONTROL: Disable user control
  5: 0x04B9 [0x45] LOAD_SCHEDULED_TASK: Load scheduler "sfj0" with entities [EventEntity, EventEntity], work=[61*, 0*]
  6: 0x04CA [0x47] UPDATE_PLAYER_POS(230.784*, -530.007*, -1.986*, yaw=181.5°*)
  7: 0x04D4 [0x47] WAIT_PLAYER_POS_UPDATE
  8: 0x04D6 [0x80] LOAD_WAIT(entity=LocalPlayer)
  9: 0x04DB [0x1C] WAIT(30* ticks)
 10: 0x04DE [0x2C] CREATE_SCHEDULER_TASK: Create scheduler "corp" with entities [LocalPlayer, LocalPlayer]
 11: 0x04EB [0x53] WAIT_SCHEDULER_TASK: Wait for scheduler "corp" with entities [LocalPlayer, LocalPlayer]
 12: 0x04F8 [0x45] LOAD_SCHEDULED_TASK: Load scheduler "fdi0" with entities [EventEntity, EventEntity], work=[200*, 0*]
 13: 0x0509 [0x55] WAIT_LOAD_SCHEDULER: Wait for scheduler "fdi0" with entities [EventEntity, EventEntity], work=200*
 14: 0x0518 [0x03] Work_Zone[2] = 618*
 15: 0x051D [0x48] [System] [7448*]:
    → "You were refused passage for failing to present $6!"
 16: 0x0520 [0x23] WAIT_FOR_DIALOG_INTERACTION
 17: 0x0521 [0x1C] WAIT(180* ticks)
 18: 0x0524 [0x2B] Chuaie (ID: 16785745/0x01002151) [7445*]:
    → "If you wish to board the barge, please purchase a ticket from the vendor at the foot of the landing."
 19: 0x052B [0x23] WAIT_FOR_DIALOG_INTERACTION
 20: 0x052C [0x45] LOAD_SCHEDULED_TASK: Load scheduler "fdo0" with entities [EventEntity, EventEntity], work=[200*, 0*]
 21: 0x053D [0x55] WAIT_LOAD_SCHEDULER: Wait for scheduler "fdo0" with entities [EventEntity, EventEntity], work=200*
 22: 0x054C [0x46] CAMERA_CONTROL: Restore default settings
 23: 0x054E [0x5E] EventEntity goes idle (kills current action) (animation: "idl0")
 24: 0x0553 [0x1C] WAIT(30* ticks)
 25: 0x0556 [0x45] LOAD_SCHEDULED_TASK: Load scheduler "fdi0" with entities [EventEntity, EventEntity], work=[200*, 0*]
 26: 0x0567 [0x55] WAIT_LOAD_SCHEDULER: Wait for scheduler "fdi0" with entities [EventEntity, EventEntity], work=200*
 27: 0x0576 [0x21] END_EVENT
 28: 0x0577 [0x00] END_REQSTACK()
```

### Event 34

#### Metadata

| Field        | Value     |
|--------------|-----------|
| Entrypoint   | 0x0578    |
| Data Size    | 228 bytes |
| Instructions | 29        |

```
      00 01 02 03 04 05 06 07  08 09 0A 0B 0C 0D 0E 0F
      -- -- -- -- -- -- -- --  -- -- -- -- -- -- -- --
0570:                          20 01 42 45 00 80 F8 FF           .BE....
0580: FF 7F F8 FF FF 7F 66 64  6F 30 01 80 55 00 80 F8  ......fdo0..U...
0590: FF FF 7F F8 FF FF 7F 66  64 6F 30 46 01 45 02 80  .......fdo0F.E..
05A0: F8 FF FF 7F F8 FF FF 7F  73 66 6A 31 01 80 47 00  ........sfj1..G.
05B0: 1D 80 1E 80 13 80 10 80  47 01 80 F0 FF FF 7F 1C  ........G.......
05C0: 18 80 2C F0 FF FF 7F F0  FF FF 7F 63 6F 72 70 53  ..,........corpS
05D0: F0 FF FF 7F F0 FF FF 7F  63 6F 72 70 45 00 80 F8  ........corpE...
05E0: FF FF 7F F8 FF FF 7F 66  64 69 30 01 80 55 00 80  .......fdi0..U..
05F0: F8 FF FF 7F F8 FF FF 7F  66 64 69 30 03 02 10 19  ........fdi0....
0600: 80 48 1A 80 23 1C 1B 80  2B 53 21 00 01 1C 80 23  .H..#...+S!....#
0610: 45 00 80 F8 FF FF 7F F8  FF FF 7F 66 64 6F 30 01  E..........fdo0.
0620: 80 55 00 80 F8 FF FF 7F  F8 FF FF 7F 66 64 6F 30  .U..........fdo0
0630: 46 00 5E 69 64 6C 30 1C  18 80 45 00 80 F8 FF FF  F.^idl0...E.....
0640: 7F F8 FF FF 7F 66 64 69  30 01 80 55 00 80 F8 FF  .....fdi0..U....
0650: FF 7F F8 FF FF 7F 66 64  69 30 21 00              ......fdi0!.    
```

#### Opcodes

```
  0: 0x0578 [0x20] SET_CLI_EVENT_UC_FLAG: Lock player control
  1: 0x057A [0x42] SET_CLI_EVENT_CANCEL_DATA()
  2: 0x057B [0x45] LOAD_SCHEDULED_TASK: Load scheduler "fdo0" with entities [EventEntity, EventEntity], work=[200*, 0*]
  3: 0x058C [0x55] WAIT_LOAD_SCHEDULER: Wait for scheduler "fdo0" with entities [EventEntity, EventEntity], work=200*
  4: 0x059B [0x46] CAMERA_CONTROL: Disable user control
  5: 0x059D [0x45] LOAD_SCHEDULED_TASK: Load scheduler "sfj1" with entities [EventEntity, EventEntity], work=[61*, 0*]
  6: 0x05AE [0x47] UPDATE_PLAYER_POS(-302.414*, 505.612*, -1.982*, yaw=135.0°*)
  7: 0x05B8 [0x47] WAIT_PLAYER_POS_UPDATE
  8: 0x05BA [0x80] LOAD_WAIT(entity=LocalPlayer)
  9: 0x05BF [0x1C] WAIT(30* ticks)
 10: 0x05C2 [0x2C] CREATE_SCHEDULER_TASK: Create scheduler "corp" with entities [LocalPlayer, LocalPlayer]
 11: 0x05CF [0x53] WAIT_SCHEDULER_TASK: Wait for scheduler "corp" with entities [LocalPlayer, LocalPlayer]
 12: 0x05DC [0x45] LOAD_SCHEDULED_TASK: Load scheduler "fdi0" with entities [EventEntity, EventEntity], work=[200*, 0*]
 13: 0x05ED [0x55] WAIT_LOAD_SCHEDULER: Wait for scheduler "fdi0" with entities [EventEntity, EventEntity], work=200*
 14: 0x05FC [0x03] Work_Zone[2] = 618*
 15: 0x0601 [0x48] [System] [7448*]:
    → "You were refused passage for failing to present $6!"
 16: 0x0604 [0x23] WAIT_FOR_DIALOG_INTERACTION
 17: 0x0605 [0x1C] WAIT(180* ticks)
 18: 0x0608 [0x2B] Felourie (ID: 16785747/0x01002153) [7445*]:
    → "If you wish to board the barge, please purchase a ticket from the vendor at the foot of the landing."
 19: 0x060F [0x23] WAIT_FOR_DIALOG_INTERACTION
 20: 0x0610 [0x45] LOAD_SCHEDULED_TASK: Load scheduler "fdo0" with entities [EventEntity, EventEntity], work=[200*, 0*]
 21: 0x0621 [0x55] WAIT_LOAD_SCHEDULER: Wait for scheduler "fdo0" with entities [EventEntity, EventEntity], work=200*
 22: 0x0630 [0x46] CAMERA_CONTROL: Restore default settings
 23: 0x0632 [0x5E] EventEntity goes idle (kills current action) (animation: "idl0")
 24: 0x0637 [0x1C] WAIT(30* ticks)
 25: 0x063A [0x45] LOAD_SCHEDULED_TASK: Load scheduler "fdi0" with entities [EventEntity, EventEntity], work=[200*, 0*]
 26: 0x064B [0x55] WAIT_LOAD_SCHEDULER: Wait for scheduler "fdi0" with entities [EventEntity, EventEntity], work=200*
 27: 0x065A [0x21] END_EVENT
 28: 0x065B [0x00] END_REQSTACK()
```

### Event 42

#### Metadata

| Field        | Value     |
|--------------|-----------|
| Entrypoint   | 0x065C    |
| Data Size    | 228 bytes |
| Instructions | 29        |

```
      00 01 02 03 04 05 06 07  08 09 0A 0B 0C 0D 0E 0F
      -- -- -- -- -- -- -- --  -- -- -- -- -- -- -- --
0650:                                      20 01 42 45               .BE
0660: 00 80 F8 FF FF 7F F8 FF  FF 7F 66 64 6F 30 01 80  ..........fdo0..
0670: 55 00 80 F8 FF FF 7F F8  FF FF 7F 66 64 6F 30 46  U..........fdo0F
0680: 01 45 02 80 F8 FF FF 7F  F8 FF FF 7F 73 66 6A 32  .E..........sfj2
0690: 01 80 47 00 0D 80 0E 80  0F 80 10 80 47 01 80 F0  ..G.........G...
06A0: FF FF 7F 1C 18 80 2C F0  FF FF 7F F0 FF FF 7F 63  ......,........c
06B0: 6F 72 70 53 F0 FF FF 7F  F0 FF FF 7F 63 6F 72 70  orpS........corp
06C0: 45 00 80 F8 FF FF 7F F8  FF FF 7F 66 64 69 30 01  E..........fdi0.
06D0: 80 55 00 80 F8 FF FF 7F  F8 FF FF 7F 66 64 69 30  .U..........fdi0
06E0: 03 02 10 19 80 48 1A 80  23 1C 1B 80 2B 52 21 00  .....H..#...+R!.
06F0: 01 1C 80 23 45 00 80 F8  FF FF 7F F8 FF FF 7F 66  ...#E..........f
0700: 64 6F 30 01 80 55 00 80  F8 FF FF 7F F8 FF FF 7F  do0..U..........
0710: 66 64 6F 30 46 00 5E 69  64 6C 30 1C 18 80 45 00  fdo0F.^idl0...E.
0720: 80 F8 FF FF 7F F8 FF FF  7F 66 64 69 30 01 80 55  .........fdi0..U
0730: 00 80 F8 FF FF 7F F8 FF  FF 7F 66 64 69 30 21 00  ..........fdi0!.
```

#### Opcodes

```
  0: 0x065C [0x20] SET_CLI_EVENT_UC_FLAG: Lock player control
  1: 0x065E [0x42] SET_CLI_EVENT_CANCEL_DATA()
  2: 0x065F [0x45] LOAD_SCHEDULED_TASK: Load scheduler "fdo0" with entities [EventEntity, EventEntity], work=[200*, 0*]
  3: 0x0670 [0x55] WAIT_LOAD_SCHEDULER: Wait for scheduler "fdo0" with entities [EventEntity, EventEntity], work=200*
  4: 0x067F [0x46] CAMERA_CONTROL: Disable user control
  5: 0x0681 [0x45] LOAD_SCHEDULED_TASK: Load scheduler "sfj2" with entities [EventEntity, EventEntity], work=[61*, 0*]
  6: 0x0692 [0x47] UPDATE_PLAYER_POS(-136.983*, 60.653*, -2.000*, yaw=135.0°*)
  7: 0x069C [0x47] WAIT_PLAYER_POS_UPDATE
  8: 0x069E [0x80] LOAD_WAIT(entity=LocalPlayer)
  9: 0x06A3 [0x1C] WAIT(30* ticks)
 10: 0x06A6 [0x2C] CREATE_SCHEDULER_TASK: Create scheduler "corp" with entities [LocalPlayer, LocalPlayer]
 11: 0x06B3 [0x53] WAIT_SCHEDULER_TASK: Wait for scheduler "corp" with entities [LocalPlayer, LocalPlayer]
 12: 0x06C0 [0x45] LOAD_SCHEDULED_TASK: Load scheduler "fdi0" with entities [EventEntity, EventEntity], work=[200*, 0*]
 13: 0x06D1 [0x55] WAIT_LOAD_SCHEDULER: Wait for scheduler "fdi0" with entities [EventEntity, EventEntity], work=200*
 14: 0x06E0 [0x03] Work_Zone[2] = 618*
 15: 0x06E5 [0x48] [System] [7448*]:
    → "You were refused passage for failing to present $6!"
 16: 0x06E8 [0x23] WAIT_FOR_DIALOG_INTERACTION
 17: 0x06E9 [0x1C] WAIT(180* ticks)
 18: 0x06EC [0x2B] Ratoulle (ID: 16785746/0x01002152) [7445*]:
    → "If you wish to board the barge, please purchase a ticket from the vendor at the foot of the landing."
 19: 0x06F3 [0x23] WAIT_FOR_DIALOG_INTERACTION
 20: 0x06F4 [0x45] LOAD_SCHEDULED_TASK: Load scheduler "fdo0" with entities [EventEntity, EventEntity], work=[200*, 0*]
 21: 0x0705 [0x55] WAIT_LOAD_SCHEDULER: Wait for scheduler "fdo0" with entities [EventEntity, EventEntity], work=200*
 22: 0x0714 [0x46] CAMERA_CONTROL: Restore default settings
 23: 0x0716 [0x5E] EventEntity goes idle (kills current action) (animation: "idl0")
 24: 0x071B [0x1C] WAIT(30* ticks)
 25: 0x071E [0x45] LOAD_SCHEDULED_TASK: Load scheduler "fdi0" with entities [EventEntity, EventEntity], work=[200*, 0*]
 26: 0x072F [0x55] WAIT_LOAD_SCHEDULER: Wait for scheduler "fdi0" with entities [EventEntity, EventEntity], work=200*
 27: 0x073E [0x21] END_EVENT
 28: 0x073F [0x00] END_REQSTACK()
```

### Event 37

#### Metadata

| Field        | Value      |
|--------------|------------|
| Entrypoint   | 0x0740     |
| Data Size    | 1400 bytes |
| Instructions | 190        |

```
      00 01 02 03 04 05 06 07  08 09 0A 0B 0C 0D 0E 0F
      -- -- -- -- -- -- -- --  -- -- -- -- -- -- -- --
0740: 20 01 46 01 42 92 01 55  21 00 01 92 01 56 21 00   .F.B..U!....V!.
0750: 01 92 01 59 21 00 01 5D  01 80 1B 80 45 00 80 F0  ...Y!..]....E...
0760: FF FF 7F F0 FF FF 7F 66  64 6F 31 01 80 55 00 80  .......fdo1..U..
0770: F0 FF FF 7F F0 FF FF 7F  66 64 6F 31 94 01 F0 FF  ........fdo1....
0780: FF 7F 38 1F 80 37 20 80  21 80 22 80 23 80 4E 00  ..8..7 .!.".#.N.
0790: 56 21 00 01 80 56 21 00  01 97 01 80 24 80 5C 00  V!...V!.....$.\.
07A0: 25 80 5C 01 25 80 55 00  80 F0 FF FF 7F F0 FF FF  %.\.%.U.........
07B0: 7F 66 64 69 31 45 26 80  F0 FF FF 7F F0 FF FF 7F  .fdi1E&.........
07C0: 7A 30 30 30 01 80 45 00  80 F0 FF FF 7F F0 FF FF  z000..E.........
07D0: 7F 66 64 69 31 01 80 29  03 56 21 00 01 02 2B 56  .fdi1..).V!...+V
07E0: 21 00 01 27 80 1C 03 80  4A F0 FF FF 7F 56 21 00  !..'....J....V!.
07F0: 01 23 6F 76 F0 FF FF 7F  52 26 80 F0 FF FF 7F F0  .#ov....R&......
0800: FF FF 7F 7A 30 30 30 45  26 80 F0 FF FF 7F F0 FF  ...z000E&.......
0810: FF 7F 7A 30 30 31 01 80  1C 28 80 2B 56 21 00 01  ..z001...(.+V!..
0820: 29 80 23 55 26 80 F0 FF  FF 7F F0 FF FF 7F 7A 30  ).#U&.........z0
0830: 30 31 45 00 80 F0 FF FF  7F F0 FF FF 7F 6F 76 6C  01E..........ovl
0840: 31 01 80 45 26 80 F0 FF  FF 7F F0 FF FF 7F 7A 30  1..E&.........z0
0850: 30 32 01 80 55 26 80 F0  FF FF 7F F0 FF FF 7F 7A  02..U&.........z
0860: 30 30 32 1C 2A 80 24 2B  80 01 80 01 80 25 02 00  002.*.$+.....%..
0870: 10 01 80 00 A8 08 6E F0  FF FF 7F 2C 80 99 F0 FF  ......n....,....
0880: FF 7F 1C 03 80 45 26 80  F0 FF FF 7F F0 FF FF 7F  .....E&.........
0890: 7A 30 30 33 01 80 27 03  56 21 00 01 03 2B 56 21  z003..'.V!...+V!
08A0: 00 01 2D 80 23 01 E2 08  02 00 10 24 80 00 E2 08  ..-.#......$....
08B0: 6E F0 FF FF 7F 2E 80 99  F0 FF FF 7F 1C 03 80 45  n..............E
08C0: 26 80 F0 FF FF 7F F0 FF  FF 7F 7A 30 30 33 01 80  &.........z003..
08D0: 27 03 56 21 00 01 03 2B  56 21 00 01 2F 80 23 01  '.V!...+V!../.#.
08E0: E2 08 2A 03 56 21 00 01  55 26 80 F0 FF FF 7F F0  ..*.V!..U&......
08F0: FF FF 7F 7A 30 30 33 45  26 80 F0 FF FF 7F F0 FF  ...z003E&.......
0900: FF 7F 7A 30 30 34 01 80  1C 18 80 5D 01 80 30 80  ..z004.....]..0.
0910: 2B 56 21 00 01 31 80 23  55 26 80 F0 FF FF 7F F0  +V!..1.#U&......
0920: FF FF 7F 7A 30 30 34 4E  00 55 21 00 01 5C 00 32  ...z004N.U!..\.2
0930: 80 5C 01 32 80 2B 55 21  00 01 33 80 1C 18 80 27  .\.2.+U!..3....'
0940: 03 55 21 00 01 02 4A 56  21 00 01 55 21 00 01 1C  .U!...JV!..U!...
0950: 03 80 45 26 80 F0 FF FF  7F F0 FF FF 7F 7A 30 30  ..E&.........z00
0960: 35 01 80 55 26 80 F0 FF  FF 7F F0 FF FF 7F 7A 30  5..U&.........z0
0970: 30 35 23 27 03 55 21 00  01 07 2B 55 21 00 01 34  05#'.U!...+U!..4
0980: 80 23 27 03 56 21 00 01  0B 2B 56 21 00 01 35 80  .#'.V!...+V!..5.
0990: 23 27 03 56 21 00 01 0C  45 26 80 F0 FF FF 7F F0  #'.V!...E&......
09A0: FF FF 7F 7A 30 30 36 01  80 2B 55 21 00 01 36 80  ...z006..+U!..6.
09B0: 23 2B 55 21 00 01 37 80  23 27 03 55 21 00 01 08  #+U!..7.#'.U!...
09C0: 52 26 80 F0 FF FF 7F F0  FF FF 7F 7A 30 30 36 45  R&.........z006E
09D0: 00 80 F0 FF FF 7F F0 FF  FF 7F 6F 76 6C 31 01 80  ..........ovl1..
09E0: 45 26 80 F0 FF FF 7F F0  FF FF 7F 7A 30 30 37 01  E&.........z007.
09F0: 80 55 26 80 F0 FF FF 7F  F0 FF FF 7F 7A 30 30 37  .U&.........z007
0A00: 7B 56 21 00 01 1C 03 80  7C 00 56 21 00 01 2B 56  {V!.....|.V!..+V
0A10: 21 00 01 38 80 23 7C 01  56 21 00 01 2B 56 21 00  !..8.#|.V!..+V!.
0A20: 01 39 80 23 1C 18 80 2B  55 21 00 01 3A 80 23 4A  .9.#...+U!..:.#J
0A30: 56 21 00 01 F0 FF FF 7F  1C 2A 80 45 26 80 F0 FF  V!.......*.E&...
0A40: FF 7F F0 FF FF 7F 7A 30  30 38 01 80 55 26 80 F0  ......z008..U&..
0A50: FF FF 7F F0 FF FF 7F 7A  30 30 38 6F 76 56 21 00  .......z008ovV!.
0A60: 01 2B 56 21 00 01 3B 80  23 5D 01 80 3C 80 27 03  .+V!..;.#]..<.'.
0A70: 56 21 00 01 05 7B 56 21  00 01 27 03 55 21 00 01  V!...{V!..'.U!..
0A80: 03 5D 01 80 3C 80 2B 56  21 00 01 3D 80 23 1C 3E  .]..<.+V!..=.#.>
0A90: 80 45 26 80 F0 FF FF 7F  F0 FF FF 7F 7A 30 30 39  .E&.........z009
0AA0: 01 80 1C 32 80 52 26 80  F0 FF FF 7F F0 FF FF 7F  ...2.R&.........
0AB0: 7A 30 30 39 45 26 80 F0  FF FF 7F F0 FF FF 7F 7A  z009E&.........z
0AC0: 30 30 61 01 80 55 26 80  F0 FF FF 7F F0 FF FF 7F  00a..U&.........
0AD0: 7A 30 30 61 1C 03 80 7B  F0 FF FF 7F 1C 03 80 27  z00a...{.......'
0AE0: 03 55 21 00 01 04 27 03  59 21 00 01 02 32 3F 80  .U!...'.Y!...2?.
0AF0: 03 00 00 40 80 1A 74 0C  1F 00 01 00 02 00 03 00  ...@..t.........
0B00: 1F 01 79 00 F0 FF FF 7F  59 21 00 01 5C 00 41 80  ..y.....Y!..\.A.
0B10: 5C 01 41 80 2A 03 59 21  00 01 1C 03 80 45 26 80  \.A.*.Y!.....E&.
0B20: F0 FF FF 7F F0 FF FF 7F  7A 30 31 31 01 80 55 26  ........z011..U&
0B30: 80 F0 FF FF 7F F0 FF FF  7F 7A 30 31 31 2B 59 21  .........z011+Y!
0B40: 00 01 42 80 23 45 26 80  F0 FF FF 7F F0 FF FF 7F  ..B.#E&.........
0B50: 7A 30 31 32 01 80 27 03  59 21 00 01 06 2B 59 21  z012..'.Y!...+Y!
0B60: 00 01 43 80 23 27 03 59  21 00 01 08 1C 18 80 52  ..C.#'.Y!......R
0B70: 26 80 F0 FF FF 7F F0 FF  FF 7F 7A 30 31 32 45 26  &.........z012E&
0B80: 80 F0 FF FF 7F F0 FF FF  7F 7A 30 31 33 01 80 2B  .........z013..+
0B90: 59 21 00 01 44 80 23 2A  03 59 21 00 01 2B 59 21  Y!..D.#*.Y!..+Y!
0BA0: 00 01 45 80 23 55 26 80  F0 FF FF 7F F0 FF FF 7F  ..E.#U&.........
0BB0: 7A 30 31 33 27 03 59 21  00 01 09 45 26 80 F0 FF  z013'.Y!...E&...
0BC0: FF 7F F0 FF FF 7F 7A 30  31 34 01 80 2B 59 21 00  ......z014..+Y!.
0BD0: 01 46 80 23 55 26 80 F0  FF FF 7F F0 FF FF 7F 7A  .F.#U&.........z
0BE0: 30 31 34 2A 03 59 21 00  01 29 03 59 21 00 01 03  014*.Y!..).Y!...
0BF0: 29 03 59 21 00 01 04 45  26 80 F0 FF FF 7F F0 FF  ).Y!...E&.......
0C00: FF 7F 7A 30 31 35 01 80  55 26 80 F0 FF FF 7F F0  ..z015..U&......
0C10: FF FF 7F 7A 30 31 35 2B  59 21 00 01 47 80 23 27  ...z015+Y!..G.#'
0C20: 03 59 21 00 01 05 1C 18  80 45 00 80 F0 FF FF 7F  .Y!......E......
0C30: F0 FF FF 7F 66 64 6F 32  01 80 55 00 80 F0 FF FF  ....fdo2..U.....
0C40: 7F F0 FF FF 7F 66 64 6F  32 5D 01 80 3C 80 1C 3C  .....fdo2]..<..<
0C50: 80 5C 00 01 80 5C 01 01  80 4E 01 59 21 00 01 46  .\...\...N.Y!..F
0C60: 00 45 00 80 F0 FF FF 7F  F0 FF FF 7F 66 64 69 32  .E..........fdi2
0C70: 01 80 21 00 3B F8 FF FF  7F 01 00 02 00 03 00 3A  ..!.;..........:
0C80: F8 FF FF 7F 04 00 17 05  00 04 00 00 00 16 06 00  ................
0C90: 04 00 00 00 07 01 00 05  00 07 02 00 06 00 1B 17  ................
0CA0: 05 00 04 00 00 00 16 06  00 04 00 00 00 07 01 00  ................
0CB0: 05 00 07 02 00 06 00 1B                           ........        
```

#### Opcodes

```
  0: 0x0740 [0x20] SET_CLI_EVENT_UC_FLAG: Lock player control
  1: 0x0742 [0x46] CAMERA_CONTROL: Disable user control
  2: 0x0744 [0x42] SET_CLI_EVENT_CANCEL_DATA()
  3: 0x0745 [0x92] Guilloud (ID: 16785749/0x01002155)->Render.Flags3 ^= 0x01
  4: 0x074B [0x92] Louverance (ID: 16785750/0x01002156)->Render.Flags3 ^= 0x01
  5: 0x0751 [0x92] Louverance (ID: 16785753/0x01002159)->Render.Flags3 ^= 0x01
  6: 0x0757 [0x5D] SET_MUSIC_VOLUME(volume=0*, fade_time=180*)
  7: 0x075C [0x45] LOAD_SCHEDULED_TASK: Load scheduler "fdo1" with entities [LocalPlayer, LocalPlayer], work=[200*, 0*]
  8: 0x076D [0x55] WAIT_LOAD_SCHEDULER: Wait for scheduler "fdo1" with entities [LocalPlayer, LocalPlayer], work=200*
  9: 0x077C [0x94] LocalPlayer->Render.Flags3 ^= 0x01
 10: 0x0782 [0x38] SET_CLIENT_EVENT_MODE(mode=19*)
 11: 0x0785 [0x37] UPDATE_EVENT_POSITION_AND_DIR: x=121.193*, z=-393.103*, y=-4.886*, direction=257.3°*
 12: 0x078E [0x4E] SET_ENTITY_HIDE_FLAG: Show Louverance (ID: 16785750/0x01002156)
 13: 0x0794 [0x80] LOAD_WAIT(entity=Louverance (ID: 16785750/0x01002156))
 14: 0x0799 [0x97] SAVE_SET_WIND_VALUES(wind_base=0x8001, wind_width=0x8024)
 15: 0x079E [0x5C] MUSIC_CONTROL: Set Idle (Day) music to song 120*
 16: 0x07A2 [0x5C] MUSIC_CONTROL: Set Idle (Night) music to song 120*
 17: 0x07A6 [0x55] WAIT_LOAD_SCHEDULER: Wait for scheduler "fdi1" with entities [LocalPlayer, LocalPlayer], work=200*
 18: 0x07B5 [0x45] LOAD_SCHEDULED_TASK: Load scheduler "z000" with entities [LocalPlayer, LocalPlayer], work=[116*, 0*]
 19: 0x07C6 [0x45] LOAD_SCHEDULED_TASK: Load scheduler "fdi1" with entities [LocalPlayer, LocalPlayer], work=[200*, 0*]
 20: 0x07D7 [0x29] REQ_SET_WAIT(priority=0x03, entity_id=Louverance (ID: 16785750/0x01002156), tag_num=0x02)
 21: 0x07DE [0x2B] Louverance (ID: 16785750/0x01002156) [7267*]:
    → "I recognize your face, adventurer. How do you know of this place?"
 22: 0x07E5 [0x1C] WAIT(60* ticks)
 23: 0x07E8 [0x4A] LocalPlayer looks at Louverance (ID: 16785750/0x01002156)
 24: 0x07F1 [0x23] WAIT_FOR_DIALOG_INTERACTION
 25: 0x07F2 [0x6F] WAIT_FRAME_DELAY: Yield until WaitTime reaches zero
 26: 0x07F3 [0x76] CHECK_ENTITY_RENDER_FLAGS: Wait until LocalPlayer Render.Flags0 and Render.Flags3 conditions are met
 27: 0x07F8 [0x52] END_LOAD_SCHEDULER: End scheduler "z000" with entities [LocalPlayer, LocalPlayer], work=116*
 28: 0x0807 [0x45] LOAD_SCHEDULED_TASK: Load scheduler "z001" with entities [LocalPlayer, LocalPlayer], work=[116*, 0*]
 29: 0x0818 [0x1C] WAIT(70* ticks)
 30: 0x081B [0x2B] Louverance (ID: 16785750/0x01002156) [7268*]:
    → "Have you come with a message from him? I hear the matter is urgent..."
 31: 0x0822 [0x23] WAIT_FOR_DIALOG_INTERACTION
 32: 0x0823 [0x55] WAIT_LOAD_SCHEDULER: Wait for scheduler "z001" with entities [LocalPlayer, LocalPlayer], work=116*
 33: 0x0832 [0x45] LOAD_SCHEDULED_TASK: Load scheduler "ovl1" with entities [LocalPlayer, LocalPlayer], work=[200*, 0*]
 34: 0x0843 [0x45] LOAD_SCHEDULED_TASK: Load scheduler "z002" with entities [LocalPlayer, LocalPlayer], work=[116*, 0*]
 35: 0x0854 [0x55] WAIT_LOAD_SCHEDULER: Wait for scheduler "z002" with entities [LocalPlayer, LocalPlayer], work=116*
 36: 0x0863 [0x1C] WAIT(10* ticks)
 37: 0x0866 [0x24] CREATE_DIALOG(message_id=7269*, default_option=0*, option_flags=0*)
    → "How do you respond? [Yes, I have a message./I have no message for you.]"
 38: 0x086D [0x25] WAIT_DIALOG_SELECT()
 39: 0x086E [0x02] IF !(Work_Zone[0] == 0*) GOTO 0x08A8
 40: 0x0876 [0x6E] LocalPlayer uses emote 7*
 41: 0x087D [0x99] Wait for LocalPlayer animation to complete
 42: 0x0882 [0x1C] WAIT(60* ticks)
 43: 0x0885 [0x45] LOAD_SCHEDULED_TASK: Load scheduler "z003" with entities [LocalPlayer, LocalPlayer], work=[116*, 0*]
 44: 0x0896 [0x27] REQ_SET(priority=0x03, entity_id=Louverance (ID: 16785750/0x01002156), tag_num=0x03)
 45: 0x089D [0x2B] Louverance (ID: 16785750/0x01002156) [7270*]:
    → "What's this you say? A "Master Cid" requests my presence? That name sounds somewhat familiar..."
 46: 0x08A4 [0x23] WAIT_FOR_DIALOG_INTERACTION
 47: 0x08A5 [0x01] GOTO 0x08E2
 48: 0x08A8 [0x02] IF !(Work_Zone[0] == 1*) GOTO 0x08E2
 49: 0x08B0 [0x6E] LocalPlayer uses emote 6*
 50: 0x08B7 [0x99] Wait for LocalPlayer animation to complete
 51: 0x08BC [0x1C] WAIT(60* ticks)
 52: 0x08BF [0x45] LOAD_SCHEDULED_TASK: Load scheduler "z003" with entities [LocalPlayer, LocalPlayer], work=[116*, 0*]
 53: 0x08D0 [0x27] REQ_SET(priority=0x03, entity_id=Louverance (ID: 16785750/0x01002156), tag_num=0x03)
 54: 0x08D7 [0x2B] Louverance (ID: 16785750/0x01002156) [7271*]:
    → "What's this you say? You came to request my presence?"
 55: 0x08DE [0x23] WAIT_FOR_DIALOG_INTERACTION
 56: 0x08DF [0x01] GOTO 0x08E2

SUBROUTINE_08E2:
 57: 0x08E2 [0x2A] GET_REQ_LEVEL(level=3, entity_id=Louverance (ID: 16785750/0x01002156))
 58: 0x08E8 [0x55] WAIT_LOAD_SCHEDULER: Wait for scheduler "z003" with entities [LocalPlayer, LocalPlayer], work=116*
 59: 0x08F7 [0x45] LOAD_SCHEDULED_TASK: Load scheduler "z004" with entities [LocalPlayer, LocalPlayer], work=[116*, 0*]
 60: 0x0908 [0x1C] WAIT(30* ticks)
 61: 0x090B [0x5D] SET_MUSIC_VOLUME(volume=0*, fade_time=90*)
 62: 0x0910 [0x2B] Louverance (ID: 16785750/0x01002156) [7272*]:
    → "One moment, [sir/madame]. I do believe you are mistaking me for...him."
 63: 0x0917 [0x23] WAIT_FOR_DIALOG_INTERACTION
 64: 0x0918 [0x55] WAIT_LOAD_SCHEDULER: Wait for scheduler "z004" with entities [LocalPlayer, LocalPlayer], work=116*
 65: 0x0927 [0x4E] SET_ENTITY_HIDE_FLAG: Show Guilloud (ID: 16785749/0x01002155)
 66: 0x092D [0x5C] MUSIC_CONTROL: Set Idle (Day) music to song 170*
 67: 0x0931 [0x5C] MUSIC_CONTROL: Set Idle (Night) music to song 170*
 68: 0x0935 [0x2B] Guilloud (ID: 16785749/0x01002155) [7273*]:
    → "Sir Louverance! It's a trap!"
 69: 0x093C [0x1C] WAIT(30* ticks)
 70: 0x093F [0x27] REQ_SET(priority=0x03, entity_id=Guilloud (ID: 16785749/0x01002155), tag_num=0x02)
 71: 0x0946 [0x4A] Louverance (ID: 16785750/0x01002156) looks at Guilloud (ID: 16785749/0x01002155)
 72: 0x094F [0x1C] WAIT(60* ticks)
 73: 0x0952 [0x45] LOAD_SCHEDULED_TASK: Load scheduler "z005" with entities [LocalPlayer, LocalPlayer], work=[116*, 0*]
 74: 0x0963 [0x55] WAIT_LOAD_SCHEDULER: Wait for scheduler "z005" with entities [LocalPlayer, LocalPlayer], work=116*
 75: 0x0972 [0x23] WAIT_FOR_DIALOG_INTERACTION
 76: 0x0973 [0x27] REQ_SET(priority=0x03, entity_id=Guilloud (ID: 16785749/0x01002155), tag_num=0x07)
 77: 0x097A [0x2B] Guilloud (ID: 16785749/0x01002155) [7274*]:
    → "That honorless count set this trap to take your life, young sir!"
 78: 0x0981 [0x23] WAIT_FOR_DIALOG_INTERACTION
 79: 0x0982 [0x27] REQ_SET(priority=0x03, entity_id=Louverance (ID: 16785750/0x01002156), tag_num=0x0B)
 80: 0x0989 [0x2B] Louverance (ID: 16785750/0x01002156) [7275*]:
    → "Explain this treachery!"
 81: 0x0990 [0x23] WAIT_FOR_DIALOG_INTERACTION
 82: 0x0991 [0x27] REQ_SET(priority=0x03, entity_id=Louverance (ID: 16785750/0x01002156), tag_num=0x0C)
 83: 0x0998 [0x45] LOAD_SCHEDULED_TASK: Load scheduler "z006" with entities [LocalPlayer, LocalPlayer], work=[116*, 0*]
 84: 0x09A9 [0x2B] Guilloud (ID: 16785749/0x01002155) [7276*]:
    → "I heard word that those vicious Tonberries had been released under the pretense of dealing with an interloping brigand."
 85: 0x09B0 [0x23] WAIT_FOR_DIALOG_INTERACTION
 86: 0x09B1 [0x2B] Guilloud (ID: 16785749/0x01002155) [7277*]:
    → "They described the bandit as a male Elvaan wearing a mask and bright brigandine armor."
 87: 0x09B8 [0x23] WAIT_FOR_DIALOG_INTERACTION
 88: 0x09B9 [0x27] REQ_SET(priority=0x03, entity_id=Guilloud (ID: 16785749/0x01002155), tag_num=0x08)
 89: 0x09C0 [0x52] END_LOAD_SCHEDULER: End scheduler "z006" with entities [LocalPlayer, LocalPlayer], work=116*
 90: 0x09CF [0x45] LOAD_SCHEDULED_TASK: Load scheduler "ovl1" with entities [LocalPlayer, LocalPlayer], work=[200*, 0*]
 91: 0x09E0 [0x45] LOAD_SCHEDULED_TASK: Load scheduler "z007" with entities [LocalPlayer, LocalPlayer], work=[116*, 0*]
 92: 0x09F1 [0x55] WAIT_LOAD_SCHEDULER: Wait for scheduler "z007" with entities [LocalPlayer, LocalPlayer], work=116*
 93: 0x0A00 [0x7B] Louverance (ID: 16785750/0x01002156) stops talking
 94: 0x0A05 [0x1C] WAIT(60* ticks)
 95: 0x0A08 [0x7C] Louverance (ID: 16785750/0x01002156)->Render.Flags2 |= 0x00
 96: 0x0A0E [0x2B] Louverance (ID: 16785750/0x01002156) [7278*]:
    → "..."
 97: 0x0A15 [0x23] WAIT_FOR_DIALOG_INTERACTION
 98: 0x0A16 [0x7C] Louverance (ID: 16785750/0x01002156)->Render.Flags2 |= 0x01
 99: 0x0A1C [0x2B] Louverance (ID: 16785750/0x01002156) [7279*]:
    → "Once a thief, always a thief. It seems he is not content with stealing just my name!"
100: 0x0A23 [0x23] WAIT_FOR_DIALOG_INTERACTION
101: 0x0A24 [0x1C] WAIT(30* ticks)
102: 0x0A27 [0x2B] Guilloud (ID: 16785749/0x01002155) [7280*]:
    → "Sir Louverance?"
103: 0x0A2E [0x23] WAIT_FOR_DIALOG_INTERACTION
104: 0x0A2F [0x4A] Louverance (ID: 16785750/0x01002156) looks at LocalPlayer
105: 0x0A38 [0x1C] WAIT(10* ticks)
106: 0x0A3B [0x45] LOAD_SCHEDULED_TASK: Load scheduler "z008" with entities [LocalPlayer, LocalPlayer], work=[116*, 0*]
107: 0x0A4C [0x55] WAIT_LOAD_SCHEDULER: Wait for scheduler "z008" with entities [LocalPlayer, LocalPlayer], work=116*
108: 0x0A5B [0x6F] WAIT_FRAME_DELAY: Yield until WaitTime reaches zero
109: 0x0A5C [0x76] CHECK_ENTITY_RENDER_FLAGS: Wait until Louverance (ID: 16785750/0x01002156) Render.Flags0 and Render.Flags3 conditions are met
110: 0x0A61 [0x2B] Louverance (ID: 16785750/0x01002156) [7281*]:
    → "If you meet this man, give him a message: If you would call yourself a knight, then you must seek a just cause to champion!"
111: 0x0A68 [0x23] WAIT_FOR_DIALOG_INTERACTION
112: 0x0A69 [0x5D] SET_MUSIC_VOLUME(volume=0*, fade_time=300*)
113: 0x0A6E [0x27] REQ_SET(priority=0x03, entity_id=Louverance (ID: 16785750/0x01002156), tag_num=0x05)
114: 0x0A75 [0x7B] Louverance (ID: 16785750/0x01002156) stops talking
115: 0x0A7A [0x27] REQ_SET(priority=0x03, entity_id=Guilloud (ID: 16785749/0x01002155), tag_num=0x03)
116: 0x0A81 [0x5D] SET_MUSIC_VOLUME(volume=0*, fade_time=300*)
117: 0x0A86 [0x2B] Louverance (ID: 16785750/0x01002156) [7282*]:
    → "Farewell!"
118: 0x0A8D [0x23] WAIT_FOR_DIALOG_INTERACTION
119: 0x0A8E [0x1C] WAIT(110* ticks)
120: 0x0A91 [0x45] LOAD_SCHEDULED_TASK: Load scheduler "z009" with entities [LocalPlayer, LocalPlayer], work=[116*, 0*]
121: 0x0AA2 [0x1C] WAIT(170* ticks)
122: 0x0AA5 [0x52] END_LOAD_SCHEDULER: End scheduler "z009" with entities [LocalPlayer, LocalPlayer], work=116*
123: 0x0AB4 [0x45] LOAD_SCHEDULED_TASK: Load scheduler "z00a" with entities [LocalPlayer, LocalPlayer], work=[116*, 0*]
124: 0x0AC5 [0x55] WAIT_LOAD_SCHEDULER: Wait for scheduler "z00a" with entities [LocalPlayer, LocalPlayer], work=116*
125: 0x0AD4 [0x1C] WAIT(60* ticks)
126: 0x0AD7 [0x7B] LocalPlayer stops talking
127: 0x0ADC [0x1C] WAIT(60* ticks)
128: 0x0ADF [0x27] REQ_SET(priority=0x03, entity_id=Guilloud (ID: 16785749/0x01002155), tag_num=0x04)
129: 0x0AE6 [0x27] REQ_SET(priority=0x03, entity_id=Louverance (ID: 16785753/0x01002159), tag_num=0x02)
130: 0x0AED [0x32] ExtData[1]->MainSpeed = 13* * 0.1
131: 0x0AF0 [0x03] ExtData[1]->WorkLocal[0] = 2400*
132: 0x0AF5 [0x1A] CALL_SUBROUTINE(address=0x0C74)
133: 0x0AF8 [0x1F] MOVE_ENTITY: EventEntity moves to X=ExtData[1]->WorkLocal[1], Z=ExtData[1]->WorkLocal[2], Y=ExtData[1]->WorkLocal[3]
134: 0x0B00 [0x1F] MOVE_ENTITY: Update entity position (mode=1)
135: 0x0B02 [0x79] LocalPlayer looks at Louverance (ID: 16785753/0x01002159) (Basic look)
136: 0x0B0C [0x5C] MUSIC_CONTROL: Set Idle (Day) music to song 163*
137: 0x0B10 [0x5C] MUSIC_CONTROL: Set Idle (Night) music to song 163*
138: 0x0B14 [0x2A] GET_REQ_LEVEL(level=3, entity_id=Louverance (ID: 16785753/0x01002159))
139: 0x0B1A [0x1C] WAIT(60* ticks)
140: 0x0B1D [0x45] LOAD_SCHEDULED_TASK: Load scheduler "z011" with entities [LocalPlayer, LocalPlayer], work=[116*, 0*]
141: 0x0B2E [0x55] WAIT_LOAD_SCHEDULER: Wait for scheduler "z011" with entities [LocalPlayer, LocalPlayer], work=116*
142: 0x0B3D [0x2B] Louverance (ID: 16785753/0x01002159) [7283*]:
    → "[Sir/Lady] <Player>... I must apologize. It appears you have defeated the Tonberries meant for my demise."
143: 0x0B44 [0x23] WAIT_FOR_DIALOG_INTERACTION
144: 0x0B45 [0x45] LOAD_SCHEDULED_TASK: Load scheduler "z012" with entities [LocalPlayer, LocalPlayer], work=[116*, 0*]
145: 0x0B56 [0x27] REQ_SET(priority=0x03, entity_id=Louverance (ID: 16785753/0x01002159), tag_num=0x06)
146: 0x0B5D [0x2B] Louverance (ID: 16785753/0x01002159) [7284*]:
    → "You are a most resourceful ally. I will be sure to return the favor in the future."
147: 0x0B64 [0x23] WAIT_FOR_DIALOG_INTERACTION
148: 0x0B65 [0x27] REQ_SET(priority=0x03, entity_id=Louverance (ID: 16785753/0x01002159), tag_num=0x08)
149: 0x0B6C [0x1C] WAIT(30* ticks)
150: 0x0B6F [0x52] END_LOAD_SCHEDULER: End scheduler "z012" with entities [LocalPlayer, LocalPlayer], work=116*
151: 0x0B7E [0x45] LOAD_SCHEDULED_TASK: Load scheduler "z013" with entities [LocalPlayer, LocalPlayer], work=[116*, 0*]
152: 0x0B8F [0x2B] Louverance (ID: 16785753/0x01002159) [7285*]:
    → "You say that Master Cid requires my presence in Bastok? I must say, gathering lumber was never my most cherished activity in any case."
153: 0x0B96 [0x23] WAIT_FOR_DIALOG_INTERACTION
154: 0x0B97 [0x2A] GET_REQ_LEVEL(level=3, entity_id=Louverance (ID: 16785753/0x01002159))
155: 0x0B9D [0x2B] Louverance (ID: 16785753/0x01002159) [7286*]:
    → "At last, we journey to the celestial capital of Al'Taieu. Our confrontation with the Keeper of the Apocalypse is at hand."
156: 0x0BA4 [0x23] WAIT_FOR_DIALOG_INTERACTION
157: 0x0BA5 [0x55] WAIT_LOAD_SCHEDULER: Wait for scheduler "z013" with entities [LocalPlayer, LocalPlayer], work=116*
158: 0x0BB4 [0x27] REQ_SET(priority=0x03, entity_id=Louverance (ID: 16785753/0x01002159), tag_num=0x09)
159: 0x0BBB [0x45] LOAD_SCHEDULED_TASK: Load scheduler "z014" with entities [LocalPlayer, LocalPlayer], work=[116*, 0*]
160: 0x0BCC [0x2B] Louverance (ID: 16785753/0x01002159) [7287*]:
    → "Let us finish this battle forthwith. If I am to follow the path of the knight, I must see justice done as a true knight should."
161: 0x0BD3 [0x23] WAIT_FOR_DIALOG_INTERACTION
162: 0x0BD4 [0x55] WAIT_LOAD_SCHEDULER: Wait for scheduler "z014" with entities [LocalPlayer, LocalPlayer], work=116*
163: 0x0BE3 [0x2A] GET_REQ_LEVEL(level=3, entity_id=Louverance (ID: 16785753/0x01002159))
164: 0x0BE9 [0x29] REQ_SET_WAIT(priority=0x03, entity_id=Louverance (ID: 16785753/0x01002159), tag_num=0x03)
165: 0x0BF0 [0x29] REQ_SET_WAIT(priority=0x03, entity_id=Louverance (ID: 16785753/0x01002159), tag_num=0x04)
166: 0x0BF7 [0x45] LOAD_SCHEDULED_TASK: Load scheduler "z015" with entities [LocalPlayer, LocalPlayer], work=[116*, 0*]
167: 0x0C08 [0x55] WAIT_LOAD_SCHEDULER: Wait for scheduler "z015" with entities [LocalPlayer, LocalPlayer], work=116*
168: 0x0C17 [0x2B] Louverance (ID: 16785753/0x01002159) [7288*]:
    → "And there is no higher cause than saving the world from destruction... Wouldn't you agree, Louverance Mistalle?"
169: 0x0C1E [0x23] WAIT_FOR_DIALOG_INTERACTION
170: 0x0C1F [0x27] REQ_SET(priority=0x03, entity_id=Louverance (ID: 16785753/0x01002159), tag_num=0x05)
171: 0x0C26 [0x1C] WAIT(30* ticks)
172: 0x0C29 [0x45] LOAD_SCHEDULED_TASK: Load scheduler "fdo2" with entities [LocalPlayer, LocalPlayer], work=[200*, 0*]
173: 0x0C3A [0x55] WAIT_LOAD_SCHEDULER: Wait for scheduler "fdo2" with entities [LocalPlayer, LocalPlayer], work=200*
174: 0x0C49 [0x5D] SET_MUSIC_VOLUME(volume=0*, fade_time=300*)
175: 0x0C4E [0x1C] WAIT(300* ticks)
176: 0x0C51 [0x5C] MUSIC_CONTROL: Set Idle (Day) music to song 0*
177: 0x0C55 [0x5C] MUSIC_CONTROL: Set Idle (Night) music to song 0*
178: 0x0C59 [0x4E] SET_ENTITY_HIDE_FLAG: Hide Louverance (ID: 16785753/0x01002159)
179: 0x0C5F [0x46] CAMERA_CONTROL: Restore default settings
180: 0x0C61 [0x45] LOAD_SCHEDULED_TASK: Load scheduler "fdi2" with entities [LocalPlayer, LocalPlayer], work=[200*, 0*]
181: 0x0C72 [0x21] END_EVENT
182: 0x0C73 [0x00] END_REQSTACK()

SUBROUTINE_0C74:
183: 0x0C74 [0x3B] GET_ENTITY_POSITION(entity=EventEntity, x_destination=ExtData[1]->WorkLocal[1], y_destination=ExtData[1]->WorkLocal[2], z_destination=ExtData[1]->WorkLocal[3])
184: 0x0C7F [0x3A] CONVERT_YAW_TO_BYTE(entity=EventEntity, result_destination=ExtData[1]->WorkLocal[4])
185: 0x0C86 [0x17] ExtData[1]->WorkLocal[5] = cos(ExtData[1]->WorkLocal[4]) * ExtData[1]->WorkLocal[0]
186: 0x0C8D [0x16] ExtData[1]->WorkLocal[6] = sin(ExtData[1]->WorkLocal[4]) * ExtData[1]->WorkLocal[0]
187: 0x0C94 [0x07] ExtData[1]->WorkLocal[1] += ExtData[1]->WorkLocal[5]
188: 0x0C99 [0x07] ExtData[1]->WorkLocal[2] += ExtData[1]->WorkLocal[6]
189: 0x0C9E [0x1B] RETURN
```

#### Data or dead code:

```
# Dead code (unreachable instructions):
     0x0C9F [0x17] ExtData[1]->WorkLocal[5] = cos(ExtData[1]->WorkLocal[4]) * ExtData[1]->WorkLocal[0]
     0x0CA6 [0x16] ExtData[1]->WorkLocal[6] = sin(ExtData[1]->WorkLocal[4]) * ExtData[1]->WorkLocal[0]
     0x0CAD [0x07] ExtData[1]->WorkLocal[1] += ExtData[1]->WorkLocal[5]
     0x0CB2 [0x07] ExtData[1]->WorkLocal[2] += ExtData[1]->WorkLocal[6]
     0x0CB7 [0x1B] RETURN
```

### Event 0

#### Metadata

| Field        | Value      |
|--------------|------------|
| Entrypoint   | 0x0CB8     |
| Data Size    | 1223 bytes |
| Instructions | 162        |

```
      00 01 02 03 04 05 06 07  08 09 0A 0B 0C 0D 0E 0F
      -- -- -- -- -- -- -- --  -- -- -- -- -- -- -- --
0CB0:                          03 07 00 02 10 20 01 46          ..... .F
0CC0: 01 42 45 00 80 F0 FF FF  7F F0 FF FF 7F 66 64 6F  .BE..........fdo
0CD0: 31 01 80 55 00 80 F0 FF  FF 7F F0 FF FF 7F 66 64  1..U..........fd
0CE0: 6F 31 94 01 F8 FF FF 7F  92 01 55 21 00 01 38 1F  o1........U!..8.
0CF0: 80 37 48 80 49 80 4A 80  4B 80 97 01 80 24 80 45  .7H.I.J.K....$.E
0D00: 4C 80 F0 FF FF 7F F0 FF  FF 7F 7A 30 30 30 01 80  L.........z000..
0D10: 45 00 80 F0 FF FF 7F F0  FF FF 7F 66 64 69 31 01  E..........fdi1.
0D20: 80 55 00 80 F0 FF FF 7F  F0 FF FF 7F 66 64 69 31  .U..........fdi1
0D30: 2B 55 21 00 01 4D 80 23  52 4C 80 F0 FF FF 7F F0  +U!..M.#RL......
0D40: FF FF 7F 7A 30 30 30 45  00 80 F0 FF FF 7F F0 FF  ...z000E........
0D50: FF 7F 6F 76 6C 31 01 80  45 4C 80 F0 FF FF 7F F0  ..ovl1..EL......
0D60: FF FF 7F 7A 30 30 31 01  80 1C 2A 80 2B 55 21 00  ...z001...*.+U!.
0D70: 01 4E 80 23 5C 00 25 80  5C 01 25 80 9A 55 4C 80  .N.#\.%.\.%..UL.
0D80: F0 FF FF 7F F0 FF FF 7F  7A 30 30 31 2B 56 21 00  ........z001+V!.
0D90: 01 4F 80 23 4E 00 5A 21  00 01 4E 00 56 21 00 01  .O.#N.Z!..N.V!..
0DA0: 4A F0 FF FF 7F 56 21 00  01 27 03 56 21 00 01 09  J....V!..'.V!...
0DB0: 27 03 5A 21 00 01 03 4A  55 21 00 01 56 21 00 01  '.Z!...JU!..V!..
0DC0: 1C 50 80 45 4C 80 F0 FF  FF 7F F0 FF FF 7F 7A 30  .P.EL.........z0
0DD0: 30 32 01 80 1C 2A 80 45  4C 80 55 21 00 01 55 21  02...*.EL.U!..U!
0DE0: 00 01 73 30 38 39 01 80  1C 51 80 55 4C 80 F0 FF  ..s089...Q.UL...
0DF0: FF 7F F0 FF FF 7F 7A 30  30 32 6F 76 55 21 00 01  ......z002ovU!..
0E00: 45 00 80 F0 FF FF 7F F0  FF FF 7F 6F 76 6C 31 01  E..........ovl1.
0E10: 80 45 52 80 F0 FF FF 7F  F0 FF FF 7F 62 61 73 68  .ER.........bash
0E20: 01 80 45 4C 80 F0 FF FF  7F F0 FF FF 7F 7A 30 30  ..EL.........z00
0E30: 62 01 80 55 4C 80 F0 FF  FF 7F F0 FF FF 7F 7A 30  b..UL.........z0
0E40: 30 62 2A 03 56 21 00 01  2A 03 5A 21 00 01 2B 55  0b*.V!..*.Z!..+U
0E50: 21 00 01 53 80 23 1C 18  80 45 4C 80 F0 FF FF 7F  !..S.#...EL.....
0E60: F0 FF FF 7F 7A 30 30 33  01 80 1C 54 80 27 03 56  ....z003...T.'.V
0E70: 21 00 01 07 1C 30 80 2B  56 21 00 01 55 80 23 2A  !....0.+V!..U.#*
0E80: 03 56 21 00 01 4A 55 21  00 01 56 21 00 01 1C 03  .V!..JU!..V!....
0E90: 80 4A 56 21 00 01 F0 FF  FF 7F 1C 56 80 55 4C 80  .JV!.......V.UL.
0EA0: F0 FF FF 7F F0 FF FF 7F  7A 30 30 33 45 4C 80 F0  ........z003EL..
0EB0: FF FF 7F F0 FF FF 7F 7A  30 30 34 01 80 6F 76 56  .......z004..ovV
0EC0: 21 00 01 27 03 56 21 00  01 0B 2B 56 21 00 01 57  !..'.V!...+V!..W
0ED0: 80 23 2B 56 21 00 01 58  80 23 52 4C 80 F0 FF FF  .#+V!..X.#RL....
0EE0: 7F F0 FF FF 7F 7A 30 30  34 45 00 80 F0 FF FF 7F  .....z004E......
0EF0: F0 FF FF 7F 6F 76 6C 31  01 80 45 4C 80 F0 FF FF  ....ovl1..EL....
0F00: 7F F0 FF FF 7F 7A 30 30  35 01 80 1C 03 80 02 07  .....z005.......
0F10: 00 24 80 00 21 0F 2B 56  21 00 01 59 80 23 01 29  .$..!.+V!..Y.#.)
0F20: 0F 2B 56 21 00 01 5A 80  23 27 03 56 21 00 01 0C  .+V!..Z.#'.V!...
0F30: 1C 18 80 27 03 55 21 00  01 07 1C 18 80 2B 55 21  ...'.U!......+U!
0F40: 00 01 5B 80 23 29 03 55  21 00 01 08 23 55 4C 80  ..[.#).U!...#UL.
0F50: F0 FF FF 7F F0 FF FF 7F  7A 30 30 35 45 4C 80 F0  ........z005EL..
0F60: FF FF 7F F0 FF FF 7F 7A  30 30 36 01 80 55 4C 80  .......z006..UL.
0F70: F0 FF FF 7F F0 FF FF 7F  7A 30 30 36 1C 50 80 2B  ........z006.P.+
0F80: 56 21 00 01 5C 80 23 1C  18 80 45 00 80 F0 FF FF  V!..\.#...E.....
0F90: 7F F0 FF FF 7F 6F 76 6C  31 01 80 45 4C 80 F0 FF  .....ovl1..EL...
0FA0: FF 7F F0 FF FF 7F 7A 30  30 64 01 80 55 4C 80 F0  ......z00d..UL..
0FB0: FF FF 7F F0 FF FF 7F 7A  30 30 64 5D 18 80 25 80  .......z00d]..%.
0FC0: 1C 03 80 27 03 56 21 00  01 0D 4B 5A 21 00 01 5D  ...'.V!...KZ!..]
0FD0: 80 7B 56 21 00 01 1C 1B  80 2A 03 56 21 00 01 5D  .{V!.....*.V!..]
0FE0: 5E 80 25 80 1C 03 80 45  00 80 F0 FF FF 7F F0 FF  ^.%....E........
0FF0: FF 7F 6F 76 6C 31 01 80  45 4C 80 F0 FF FF 7F F0  ..ovl1..EL......
1000: FF FF 7F 7A 30 30 37 01  80 2B 56 21 00 01 5F 80  ...z007..+V!.._.
1010: 23 2B 56 21 00 01 60 80  23 79 00 56 21 00 01 F0  #+V!..`.#y.V!...
1020: FF FF 7F 52 4C 80 F0 FF  FF 7F F0 FF FF 7F 7A 30  ...RL.........z0
1030: 30 37 45 4C 80 F0 FF FF  7F F0 FF FF 7F 7A 30 30  07EL.........z00
1040: 38 01 80 2B 56 21 00 01  61 80 23 27 03 56 21 00  8..+V!..a.#'.V!.
1050: 01 0E 1C 18 80 2B 56 21  00 01 62 80 23 2A 03 56  .....+V!..b.#*.V
1060: 21 00 01 27 03 56 21 00  01 08 2B 56 21 00 01 63  !..'.V!...+V!..c
1070: 80 23 2A 03 56 21 00 01  27 03 56 21 00 01 0A 27  .#*.V!..'.V!...'
1080: 03 5A 21 00 01 02 1C 64  80 52 4C 80 F0 FF FF 7F  .Z!....d.RL.....
1090: F0 FF FF 7F 7A 30 30 38  45 4C 80 F0 FF FF 7F F0  ....z008EL......
10A0: FF FF 7F 7A 30 30 63 01  80 1C 03 80 55 4C 80 F0  ...z00c.....UL..
10B0: FF FF 7F F0 FF FF 7F 7A  30 30 63 45 4C 80 F0 FF  .......z00cEL...
10C0: FF 7F F0 FF FF 7F 7A 30  30 39 01 80 55 4C 80 F0  ......z009..UL..
10D0: FF FF 7F F0 FF FF 7F 7A  30 30 39 2B 56 21 00 01  .......z009+V!..
10E0: 65 80 23 2A 03 56 21 00  01 2B 56 21 00 01 66 80  e.#*.V!..+V!..f.
10F0: 27 03 57 21 00 01 02 1C  03 80 2A 03 57 21 00 01  '.W!......*.W!..
1100: 23 27 03 57 21 00 01 03  1C 54 80 45 4C 80 F0 FF  #'.W!....T.EL...
1110: FF 7F F0 FF FF 7F 7A 30  30 61 01 80 4E 01 56 21  ......z00a..N.V!
1120: 00 01 4E 01 5A 21 00 01  1C 67 80 45 00 80 F0 FF  ..N.Z!...g.E....
1130: FF 7F F0 FF FF 7F 66 64  6F 32 01 80 55 00 80 F0  ......fdo2..U...
1140: FF FF 7F F0 FF FF 7F 66  64 6F 32 52 4C 80 F0 FF  .......fdo2RL...
1150: FF 7F F0 FF FF 7F 7A 30  30 61 5D 01 80 3C 80 1C  ......z00a]..<..
1160: 3C 80 5C 00 01 80 5C 01  01 80 46 00 45 00 80 F0  <.\...\...F.E...
1170: FF FF 7F F0 FF FF 7F 66  64 69 32 01 80 21 00     .......fdi2..!. 
```

#### Opcodes

```
  0: 0x0CB8 [0x03] ExtData[1]->WorkLocal[7] = Work_Zone[2]
  1: 0x0CBD [0x20] SET_CLI_EVENT_UC_FLAG: Lock player control
  2: 0x0CBF [0x46] CAMERA_CONTROL: Disable user control
  3: 0x0CC1 [0x42] SET_CLI_EVENT_CANCEL_DATA()
  4: 0x0CC2 [0x45] LOAD_SCHEDULED_TASK: Load scheduler "fdo1" with entities [LocalPlayer, LocalPlayer], work=[200*, 0*]
  5: 0x0CD3 [0x55] WAIT_LOAD_SCHEDULER: Wait for scheduler "fdo1" with entities [LocalPlayer, LocalPlayer], work=200*
  6: 0x0CE2 [0x94] EventEntity->Render.Flags3 ^= 0x01
  7: 0x0CE8 [0x92] Guilloud (ID: 16785749/0x01002155)->Render.Flags3 ^= 0x01
  8: 0x0CEE [0x38] SET_CLIENT_EVENT_MODE(mode=19*)
  9: 0x0CF1 [0x37] UPDATE_EVENT_POSITION_AND_DIR: x=-119.146*, z=-468.819*, y=-5.543*, direction=177.4°*
 10: 0x0CFA [0x97] SAVE_SET_WIND_VALUES(wind_base=0x8001, wind_width=0x8024)
 11: 0x0CFF [0x45] LOAD_SCHEDULED_TASK: Load scheduler "z000" with entities [LocalPlayer, LocalPlayer], work=[74*, 0*]
 12: 0x0D10 [0x45] LOAD_SCHEDULED_TASK: Load scheduler "fdi1" with entities [LocalPlayer, LocalPlayer], work=[200*, 0*]
 13: 0x0D21 [0x55] WAIT_LOAD_SCHEDULER: Wait for scheduler "fdi1" with entities [LocalPlayer, LocalPlayer], work=200*
 14: 0x0D30 [0x2B] Guilloud (ID: 16785749/0x01002155) [7245*]:
    → "How...how could you defeat..."
 15: 0x0D37 [0x23] WAIT_FOR_DIALOG_INTERACTION
 16: 0x0D38 [0x52] END_LOAD_SCHEDULER: End scheduler "z000" with entities [LocalPlayer, LocalPlayer], work=74*
 17: 0x0D47 [0x45] LOAD_SCHEDULED_TASK: Load scheduler "ovl1" with entities [LocalPlayer, LocalPlayer], work=[200*, 0*]
 18: 0x0D58 [0x45] LOAD_SCHEDULED_TASK: Load scheduler "z001" with entities [LocalPlayer, LocalPlayer], work=[74*, 0*]
 19: 0x0D69 [0x1C] WAIT(10* ticks)
 20: 0x0D6C [0x2B] Guilloud (ID: 16785749/0x01002155) [7246*]:
    → "Come! Strike me down! I am not afraid of death! There is nothing I could want more than to die in the service of my master."
 21: 0x0D73 [0x23] WAIT_FOR_DIALOG_INTERACTION
 22: 0x0D74 [0x5C] MUSIC_CONTROL: Set Idle (Day) music to song 120*
 23: 0x0D78 [0x5C] MUSIC_CONTROL: Set Idle (Night) music to song 120*
 24: 0x0D7C [0x9A] WAIT_MUSIC_SERVER()
 25: 0x0D7D [0x55] WAIT_LOAD_SCHEDULER: Wait for scheduler "z001" with entities [LocalPlayer, LocalPlayer], work=74*
 26: 0x0D8C [0x2B] Louverance (ID: 16785750/0x01002156) [7247*]:
    → "Stop this foolishness!"
 27: 0x0D93 [0x23] WAIT_FOR_DIALOG_INTERACTION
 28: 0x0D94 [0x4E] SET_ENTITY_HIDE_FLAG: Show Chocobo (ID: 16785754/0x0100215A)
 29: 0x0D9A [0x4E] SET_ENTITY_HIDE_FLAG: Show Louverance (ID: 16785750/0x01002156)
 30: 0x0DA0 [0x4A] LocalPlayer looks at Louverance (ID: 16785750/0x01002156)
 31: 0x0DA9 [0x27] REQ_SET(priority=0x03, entity_id=Louverance (ID: 16785750/0x01002156), tag_num=0x09)
 32: 0x0DB0 [0x27] REQ_SET(priority=0x03, entity_id=Chocobo (ID: 16785754/0x0100215A), tag_num=0x03)
 33: 0x0DB7 [0x4A] Guilloud (ID: 16785749/0x01002155) looks at Louverance (ID: 16785750/0x01002156)
 34: 0x0DC0 [0x1C] WAIT(20* ticks)
 35: 0x0DC3 [0x45] LOAD_SCHEDULED_TASK: Load scheduler "z002" with entities [LocalPlayer, LocalPlayer], work=[74*, 0*]
 36: 0x0DD4 [0x1C] WAIT(10* ticks)
 37: 0x0DD7 [0x45] LOAD_SCHEDULED_TASK: Load scheduler "s089" with entities [Guilloud (ID: 16785749/0x01002155), Guilloud (ID: 16785749/0x01002155)], work=[74*, 0*]
 38: 0x0DE8 [0x1C] WAIT(100* ticks)
 39: 0x0DEB [0x55] WAIT_LOAD_SCHEDULER: Wait for scheduler "z002" with entities [LocalPlayer, LocalPlayer], work=74*
 40: 0x0DFA [0x6F] WAIT_FRAME_DELAY: Yield until WaitTime reaches zero
 41: 0x0DFB [0x76] CHECK_ENTITY_RENDER_FLAGS: Wait until Guilloud (ID: 16785749/0x01002155) Render.Flags0 and Render.Flags3 conditions are met
 42: 0x0E00 [0x45] LOAD_SCHEDULED_TASK: Load scheduler "ovl1" with entities [LocalPlayer, LocalPlayer], work=[200*, 0*]
 43: 0x0E11 [0x45] LOAD_SCHEDULED_TASK: Load scheduler "bash" with entities [LocalPlayer, LocalPlayer], work=[108*, 0*]
 44: 0x0E22 [0x45] LOAD_SCHEDULED_TASK: Load scheduler "z00b" with entities [LocalPlayer, LocalPlayer], work=[74*, 0*]
 45: 0x0E33 [0x55] WAIT_LOAD_SCHEDULER: Wait for scheduler "z00b" with entities [LocalPlayer, LocalPlayer], work=74*
 46: 0x0E42 [0x2A] GET_REQ_LEVEL(level=3, entity_id=Louverance (ID: 16785750/0x01002156))
 47: 0x0E48 [0x2A] GET_REQ_LEVEL(level=3, entity_id=Chocobo (ID: 16785754/0x0100215A))
 48: 0x0E4E [0x2B] Guilloud (ID: 16785749/0x01002155) [7248*]:
    → "Sir Louverance!"
 49: 0x0E55 [0x23] WAIT_FOR_DIALOG_INTERACTION
 50: 0x0E56 [0x1C] WAIT(30* ticks)
 51: 0x0E59 [0x45] LOAD_SCHEDULED_TASK: Load scheduler "z003" with entities [LocalPlayer, LocalPlayer], work=[74*, 0*]
 52: 0x0E6A [0x1C] WAIT(5* ticks)
 53: 0x0E6D [0x27] REQ_SET(priority=0x03, entity_id=Louverance (ID: 16785750/0x01002156), tag_num=0x07)
 54: 0x0E74 [0x1C] WAIT(90* ticks)
 55: 0x0E77 [0x2B] Louverance (ID: 16785750/0x01002156) [7249*]:
    → "Do you truly feel your actions here today would please Count Francmage?"
 56: 0x0E7E [0x23] WAIT_FOR_DIALOG_INTERACTION
 57: 0x0E7F [0x2A] GET_REQ_LEVEL(level=3, entity_id=Louverance (ID: 16785750/0x01002156))
 58: 0x0E85 [0x4A] Guilloud (ID: 16785749/0x01002155) looks at Louverance (ID: 16785750/0x01002156)
 59: 0x0E8E [0x1C] WAIT(60* ticks)
 60: 0x0E91 [0x4A] Louverance (ID: 16785750/0x01002156) looks at LocalPlayer
 61: 0x0E9A [0x1C] WAIT(15* ticks)
 62: 0x0E9D [0x55] WAIT_LOAD_SCHEDULER: Wait for scheduler "z003" with entities [LocalPlayer, LocalPlayer], work=74*
 63: 0x0EAC [0x45] LOAD_SCHEDULED_TASK: Load scheduler "z004" with entities [LocalPlayer, LocalPlayer], work=[74*, 0*]
 64: 0x0EBD [0x6F] WAIT_FRAME_DELAY: Yield until WaitTime reaches zero
 65: 0x0EBE [0x76] CHECK_ENTITY_RENDER_FLAGS: Wait until Louverance (ID: 16785750/0x01002156) Render.Flags0 and Render.Flags3 conditions are met
 66: 0x0EC3 [0x27] REQ_SET(priority=0x03, entity_id=Louverance (ID: 16785750/0x01002156), tag_num=0x0B)
 67: 0x0ECA [0x2B] Louverance (ID: 16785750/0x01002156) [7250*]:
    → "Noble adventurer, please forgive this man. The Knights Mistalle were once a proud family of knights...until certain happenings within the Kingdom left the count's name scarred with disgrace."
 68: 0x0ED1 [0x23] WAIT_FOR_DIALOG_INTERACTION
 69: 0x0ED2 [0x2B] Louverance (ID: 16785750/0x01002156) [7251*]:
    → "The family vowed revenge... However, without a target for that revenge, they were never able to prove their innocence, and their nobility was stripped from them."
 70: 0x0ED9 [0x23] WAIT_FOR_DIALOG_INTERACTION
 71: 0x0EDA [0x52] END_LOAD_SCHEDULER: End scheduler "z004" with entities [LocalPlayer, LocalPlayer], work=74*
 72: 0x0EE9 [0x45] LOAD_SCHEDULED_TASK: Load scheduler "ovl1" with entities [LocalPlayer, LocalPlayer], work=[200*, 0*]
 73: 0x0EFA [0x45] LOAD_SCHEDULED_TASK: Load scheduler "z005" with entities [LocalPlayer, LocalPlayer], work=[74*, 0*]
 74: 0x0F0B [0x1C] WAIT(60* ticks)
 75: 0x0F0E [0x02] IF !(ExtData[1]->WorkLocal[7] == 1*) GOTO 0x0F21
 76: 0x0F16 [0x2B] Louverance (ID: 16785750/0x01002156) [7252*]:
    → "As you are quite aware, San d'Oria is a country built upon honor. Thirty years have passed since ill fate befell the Knights Mistalle, but the contempt towards the family remains."
 77: 0x0F1D [0x23] WAIT_FOR_DIALOG_INTERACTION
 78: 0x0F1E [0x01] GOTO 0x0F29
 79: 0x0F21 [0x2B] Louverance (ID: 16785750/0x01002156) [7253*]:
    → "San d'Oria is a country built upon honor. Thirty years have passed since ill fate befell the Knights Mistalle, but the contempt towards the family remains."
 80: 0x0F28 [0x23] WAIT_FOR_DIALOG_INTERACTION

SUBROUTINE_0F29:
 81: 0x0F29 [0x27] REQ_SET(priority=0x03, entity_id=Louverance (ID: 16785750/0x01002156), tag_num=0x0C)
 82: 0x0F30 [0x1C] WAIT(30* ticks)
 83: 0x0F33 [0x27] REQ_SET(priority=0x03, entity_id=Guilloud (ID: 16785749/0x01002155), tag_num=0x07)
 84: 0x0F3A [0x1C] WAIT(30* ticks)
 85: 0x0F3D [0x2B] Guilloud (ID: 16785749/0x01002155) [7254*]:
    → "And now I'm just an old man..."
 86: 0x0F44 [0x23] WAIT_FOR_DIALOG_INTERACTION
 87: 0x0F45 [0x29] REQ_SET_WAIT(priority=0x03, entity_id=Guilloud (ID: 16785749/0x01002155), tag_num=0x08)
 88: 0x0F4C [0x23] WAIT_FOR_DIALOG_INTERACTION
 89: 0x0F4D [0x55] WAIT_LOAD_SCHEDULER: Wait for scheduler "z005" with entities [LocalPlayer, LocalPlayer], work=74*
 90: 0x0F5C [0x45] LOAD_SCHEDULED_TASK: Load scheduler "z006" with entities [LocalPlayer, LocalPlayer], work=[74*, 0*]
 91: 0x0F6D [0x55] WAIT_LOAD_SCHEDULER: Wait for scheduler "z006" with entities [LocalPlayer, LocalPlayer], work=74*
 92: 0x0F7C [0x1C] WAIT(20* ticks)
 93: 0x0F7F [0x2B] Louverance (ID: 16785750/0x01002156) [7255*]:
    → "What answers have you come in search of today? What do you wish to know of the count?"
 94: 0x0F86 [0x23] WAIT_FOR_DIALOG_INTERACTION
 95: 0x0F87 [0x1C] WAIT(30* ticks)
 96: 0x0F8A [0x45] LOAD_SCHEDULED_TASK: Load scheduler "ovl1" with entities [LocalPlayer, LocalPlayer], work=[200*, 0*]
 97: 0x0F9B [0x45] LOAD_SCHEDULED_TASK: Load scheduler "z00d" with entities [LocalPlayer, LocalPlayer], work=[74*, 0*]
 98: 0x0FAC [0x55] WAIT_LOAD_SCHEDULER: Wait for scheduler "z00d" with entities [LocalPlayer, LocalPlayer], work=74*
 99: 0x0FBB [0x5D] SET_MUSIC_VOLUME(volume=30*, fade_time=120*)
100: 0x0FC0 [0x1C] WAIT(60* ticks)
101: 0x0FC3 [0x27] REQ_SET(priority=0x03, entity_id=Louverance (ID: 16785750/0x01002156), tag_num=0x0D)
102: 0x0FCA [0x4B] UPDATE_ENTITY_YAW(entity=Chocobo (ID: 16785754/0x0100215A), yaw=1.5°*)
103: 0x0FD1 [0x7B] Louverance (ID: 16785750/0x01002156) stops talking
104: 0x0FD6 [0x1C] WAIT(180* ticks)
105: 0x0FD9 [0x2A] GET_REQ_LEVEL(level=3, entity_id=Louverance (ID: 16785750/0x01002156))
106: 0x0FDF [0x5D] SET_MUSIC_VOLUME(volume=127*, fade_time=120*)
107: 0x0FE4 [0x1C] WAIT(60* ticks)
108: 0x0FE7 [0x45] LOAD_SCHEDULED_TASK: Load scheduler "ovl1" with entities [LocalPlayer, LocalPlayer], work=[200*, 0*]
109: 0x0FF8 [0x45] LOAD_SCHEDULED_TASK: Load scheduler "z007" with entities [LocalPlayer, LocalPlayer], work=[74*, 0*]
110: 0x1009 [0x2B] Louverance (ID: 16785750/0x01002156) [7256*]:
    → "Ah, the Multinational Expedition to the Northlands. What were they searching for?"
111: 0x1010 [0x23] WAIT_FOR_DIALOG_INTERACTION
112: 0x1011 [0x2B] Louverance (ID: 16785750/0x01002156) [7257*]:
    → "I assume their purpose was to investigate the Gates of Paradise. Detailed information on the subject can more than likely be found in the San d'Orian Cathedral."
113: 0x1018 [0x23] WAIT_FOR_DIALOG_INTERACTION
114: 0x1019 [0x79] Louverance (ID: 16785750/0x01002156) looks at LocalPlayer (Basic look)
115: 0x1023 [0x52] END_LOAD_SCHEDULER: End scheduler "z007" with entities [LocalPlayer, LocalPlayer], work=74*
116: 0x1032 [0x45] LOAD_SCHEDULED_TASK: Load scheduler "z008" with entities [LocalPlayer, LocalPlayer], work=[74*, 0*]
117: 0x1043 [0x2B] Louverance (ID: 16785750/0x01002156) [7258*]:
    → "However, even if they did exist, not even a marquis, let alone a count could lay his eyes on the documents without direct permission from the papsque."
118: 0x104A [0x23] WAIT_FOR_DIALOG_INTERACTION
119: 0x104B [0x27] REQ_SET(priority=0x03, entity_id=Louverance (ID: 16785750/0x01002156), tag_num=0x0E)
120: 0x1052 [0x1C] WAIT(30* ticks)
121: 0x1055 [0x2B] Louverance (ID: 16785750/0x01002156) [7259*]:
    → "Though things were quite different when the cathedral was led by the former papsque...Muchavatte..."
122: 0x105C [0x23] WAIT_FOR_DIALOG_INTERACTION
123: 0x105D [0x2A] GET_REQ_LEVEL(level=3, entity_id=Louverance (ID: 16785750/0x01002156))
124: 0x1063 [0x27] REQ_SET(priority=0x03, entity_id=Louverance (ID: 16785750/0x01002156), tag_num=0x08)
125: 0x106A [0x2B] Louverance (ID: 16785750/0x01002156) [7260*]:
    → "Muchavatte P Couchiret had strong ties with Count Caffaule. While the count passed away many years ago, his wife, Hinaree, still lives alone in their manor in Southern San d'Oria."
126: 0x1071 [0x23] WAIT_FOR_DIALOG_INTERACTION
127: 0x1072 [0x2A] GET_REQ_LEVEL(level=3, entity_id=Louverance (ID: 16785750/0x01002156))
128: 0x1078 [0x27] REQ_SET(priority=0x03, entity_id=Louverance (ID: 16785750/0x01002156), tag_num=0x0A)
129: 0x107F [0x27] REQ_SET(priority=0x03, entity_id=Chocobo (ID: 16785754/0x0100215A), tag_num=0x02)
130: 0x1086 [0x1C] WAIT(50* ticks)
131: 0x1089 [0x52] END_LOAD_SCHEDULER: End scheduler "z008" with entities [LocalPlayer, LocalPlayer], work=74*
132: 0x1098 [0x45] LOAD_SCHEDULED_TASK: Load scheduler "z00c" with entities [LocalPlayer, LocalPlayer], work=[74*, 0*]
133: 0x10A9 [0x1C] WAIT(60* ticks)
134: 0x10AC [0x55] WAIT_LOAD_SCHEDULER: Wait for scheduler "z00c" with entities [LocalPlayer, LocalPlayer], work=74*
135: 0x10BB [0x45] LOAD_SCHEDULED_TASK: Load scheduler "z009" with entities [LocalPlayer, LocalPlayer], work=[74*, 0*]
136: 0x10CC [0x55] WAIT_LOAD_SCHEDULER: Wait for scheduler "z009" with entities [LocalPlayer, LocalPlayer], work=74*
137: 0x10DB [0x2B] Louverance (ID: 16785750/0x01002156) [7261*]:
    → "Perhaps she knows something that may be of use to you. If you mention my name, she should be delighted to assist you."
138: 0x10E2 [0x23] WAIT_FOR_DIALOG_INTERACTION
139: 0x10E3 [0x2A] GET_REQ_LEVEL(level=3, entity_id=Louverance (ID: 16785750/0x01002156))
140: 0x10E9 [0x2B] Louverance (ID: 16785750/0x01002156) [7262*]:
    → "Take my words, adventurer, in exchange for the forgiveness of this old man's sins. Until we meet again..."
141: 0x10F0 [0x27] REQ_SET(priority=0x03, entity_id=Louverance (ID: 16785751/0x01002157), tag_num=0x02)
142: 0x10F7 [0x1C] WAIT(60* ticks)
143: 0x10FA [0x2A] GET_REQ_LEVEL(level=3, entity_id=Louverance (ID: 16785751/0x01002157))
144: 0x1100 [0x23] WAIT_FOR_DIALOG_INTERACTION
145: 0x1101 [0x27] REQ_SET(priority=0x03, entity_id=Louverance (ID: 16785751/0x01002157), tag_num=0x03)
146: 0x1108 [0x1C] WAIT(5* ticks)
147: 0x110B [0x45] LOAD_SCHEDULED_TASK: Load scheduler "z00a" with entities [LocalPlayer, LocalPlayer], work=[74*, 0*]
148: 0x111C [0x4E] SET_ENTITY_HIDE_FLAG: Hide Louverance (ID: 16785750/0x01002156)
149: 0x1122 [0x4E] SET_ENTITY_HIDE_FLAG: Hide Chocobo (ID: 16785754/0x0100215A)
150: 0x1128 [0x1C] WAIT(160* ticks)
151: 0x112B [0x45] LOAD_SCHEDULED_TASK: Load scheduler "fdo2" with entities [LocalPlayer, LocalPlayer], work=[200*, 0*]
152: 0x113C [0x55] WAIT_LOAD_SCHEDULER: Wait for scheduler "fdo2" with entities [LocalPlayer, LocalPlayer], work=200*
153: 0x114B [0x52] END_LOAD_SCHEDULER: End scheduler "z00a" with entities [LocalPlayer, LocalPlayer], work=74*
154: 0x115A [0x5D] SET_MUSIC_VOLUME(volume=0*, fade_time=300*)
155: 0x115F [0x1C] WAIT(300* ticks)
156: 0x1162 [0x5C] MUSIC_CONTROL: Set Idle (Day) music to song 0*
157: 0x1166 [0x5C] MUSIC_CONTROL: Set Idle (Night) music to song 0*
158: 0x116A [0x46] CAMERA_CONTROL: Restore default settings
159: 0x116C [0x45] LOAD_SCHEDULED_TASK: Load scheduler "fdi2" with entities [LocalPlayer, LocalPlayer], work=[200*, 0*]
160: 0x117D [0x21] END_EVENT
161: 0x117E [0x00] END_REQSTACK()
```

### Event 65535.1

#### Metadata

| Field        | Value    |
|--------------|----------|
| Entrypoint   | 0x117F   |
| Data Size    | 10 bytes |
| Instructions | 2        |

```
      00 01 02 03 04 05 06 07  08 09 0A 0B 0C 0D 0E 0F
      -- -- -- -- -- -- -- --  -- -- -- -- -- -- -- --
1170:                                               37                 7
1180: 68 80 69 80 6A 80 6B 80  00                       h.i.j.k..       
```

#### Opcodes

```
  0: 0x117F [0x37] UPDATE_EVENT_POSITION_AND_DIR: x=215.120*, z=-529.485*, y=-2.016*, direction=286.5°*
  1: 0x1188 [0x00] END_REQSTACK()
```

### Event 65535.2

#### Metadata

| Field        | Value   |
|--------------|---------|
| Entrypoint   | 0x1189  |
| Data Size    | 6 bytes |
| Instructions | 2       |

```
      00 01 02 03 04 05 06 07  08 09 0A 0B 0C 0D 0E 0F
      -- -- -- -- -- -- -- --  -- -- -- -- -- -- -- --
1180:                             03 02 10 0B 7F 00              ...... 
```

#### Opcodes

```
  0: 0x1189 [0x03] Work_Zone[2] = (Entity->Render.Flags01 >> 25) & 1
  1: 0x118E [0x00] END_REQSTACK()
```

### Event 65535.3

#### Metadata

| Field        | Value   |
|--------------|---------|
| Entrypoint   | 0x118F  |
| Data Size    | 6 bytes |
| Instructions | 2       |

```
      00 01 02 03 04 05 06 07  08 09 0A 0B 0C 0D 0E 0F
      -- -- -- -- -- -- -- --  -- -- -- -- -- -- -- --
1180:                                               03                 .
1190: 02 10 07 7F 00                                    .....           
```

#### Opcodes

```
  0: 0x118F [0x03] Work_Zone[2] = Entity->Race
  1: 0x1194 [0x00] END_REQSTACK()
```

### Event 65535.4

#### Metadata

| Field        | Value   |
|--------------|---------|
| Entrypoint   | 0x1195  |
| Data Size    | 6 bytes |
| Instructions | 2       |

```
      00 01 02 03 04 05 06 07  08 09 0A 0B 0C 0D 0E 0F
      -- -- -- -- -- -- -- --  -- -- -- -- -- -- -- --
1190:                03 09 10  07 7F 00                      ......     
```

#### Opcodes

```
  0: 0x1195 [0x03] Work_Zone[9] = Entity->Race
  1: 0x119A [0x00] END_REQSTACK()
```

### Event 65535.5

#### Metadata

| Field        | Value   |
|--------------|---------|
| Entrypoint   | 0x119B  |
| Data Size    | 6 bytes |
| Instructions | 2       |

```
      00 01 02 03 04 05 06 07  08 09 0A 0B 0C 0D 0E 0F
      -- -- -- -- -- -- -- --  -- -- -- -- -- -- -- --
1190:                                   03 02 10 06 7F             .....
11A0: 00                                                .               
```

#### Opcodes

```
  0: 0x119B [0x03] Work_Zone[2] = Entity->JobId (if LocalPlayer)
  1: 0x11A0 [0x00] END_REQSTACK()
```

### Event 65535.6

#### Metadata

| Field        | Value   |
|--------------|---------|
| Entrypoint   | 0x11A1  |
| Data Size    | 6 bytes |
| Instructions | 2       |

```
      00 01 02 03 04 05 06 07  08 09 0A 0B 0C 0D 0E 0F
      -- -- -- -- -- -- -- --  -- -- -- -- -- -- -- --
11A0:    03 08 10 07 7F 00                               ......         
```

#### Opcodes

```
  0: 0x11A1 [0x03] Work_Zone[8] = Entity->Race
  1: 0x11A6 [0x00] END_REQSTACK()
```

### Event 65535.7

#### Metadata

| Field        | Value    |
|--------------|----------|
| Entrypoint   | 0x11A7   |
| Data Size    | 10 bytes |
| Instructions | 2        |

```
      00 01 02 03 04 05 06 07  08 09 0A 0B 0C 0D 0E 0F
      -- -- -- -- -- -- -- --  -- -- -- -- -- -- -- --
11A0:                      37  6C 80 6D 80 6E 80 6F 80         7l.m.n.o.
11B0: 00                                                .               
```

#### Opcodes

```
  0: 0x11A7 [0x37] UPDATE_EVENT_POSITION_AND_DIR: x=-101.474*, z=-514.814*, y=-0.852*, direction=4.8°*
  1: 0x11B0 [0x00] END_REQSTACK()
```
