# Event 65535

## Metadata

| Field           | Value    |
|-----------------|----------|
| Event Index     | 4/7      |
| Offset          | 0x000C   |
| Data Size       | 71 bytes |
| Calculated Size | 71 bytes |
| Instructions    | 7        |

```
      00 01 02 03 04 05 06 07  08 09 0A 0B 0C 0D 0E 0F
      -- -- -- -- -- -- -- --  -- -- -- -- -- -- -- --
0000:                                      1C 02 80 45              ...E
0010: 03 80 F0 FF FF 7F F0 FF  FF 7F 73 30 30 33 04 80  ..........s003..
0020: 5B 05 80 4B 81 0B 01 4B  81 0B 01 6B 74 6E 30 1C  [..K...K...ktn0.
0030: 06 80 5B 05 80 4B 81 0B  01 4B 81 0B 01 6B 74 6E  ..[..K...K...ktn
0040: 31 45 03 80 F0 FF FF 7F  F0 FF FF 7F 6B 30 30 33  1E..........k003
0050: 04 80 00                                          ...             
```

## Opcodes

```
  0: 0x000C [0x1C] WAIT(45* ticks)
  1: 0x000F [0x45] LOAD_SCHEDULED_TASK: Load scheduler "s003" with entities [LocalPlayer, LocalPlayer], work=[154*, 0*]
  2: 0x0020 [0x5B] LOAD_EXT_SCHEDULER: Load scheduler "ktn0" with entities [Tenzen (ID: 17531211/0x010B814B), Tenzen (ID: 17531211/0x010B814B)], work=428*
  3: 0x002F [0x1C] WAIT(60* ticks)
  4: 0x0032 [0x5B] LOAD_EXT_SCHEDULER: Load scheduler "ktn1" with entities [Tenzen (ID: 17531211/0x010B814B), Tenzen (ID: 17531211/0x010B814B)], work=428*
  5: 0x0041 [0x45] LOAD_SCHEDULED_TASK: Load scheduler "k003" with entities [LocalPlayer, LocalPlayer], work=[154*, 0*]
  6: 0x0052 [0x00] END_REQSTACK()
```
