# Event 65535

## Metadata

| Field           | Value    |
|-----------------|----------|
| Event Index     | 14/15    |
| Offset          | 0x161D   |
| Data Size       | 65 bytes |
| Calculated Size | 65 bytes |
| Instructions    | 8        |

```
      00 01 02 03 04 05 06 07  08 09 0A 0B 0C 0D 0E 0F
      -- -- -- -- -- -- -- --  -- -- -- -- -- -- -- --
1610:                                         D0 20 81               . .
1620: F0 FF FF 7F F0 FF FF 7F  6D 61 69 6E 00 80 1C 23  ........main...#
1630: 80 92 01 F0 FF FF 7F 1C  7A 80 45 21 81 F0 FF FF  ........z.E!....
1640: 7F F0 FF FF 7F 77 68 6F  31 00 80 55 21 81 F0 FF  .....who1..U!...
1650: FF 7F F0 FF FF 7F 77 68  6F 31 1C 23 80 00        ......who1.#..  
```

## Opcodes

```
  0: 0x161D [0xD0] LOAD_SCHEDULED_TASK_ALT5(work_offset=123*, entity1=LocalPlayer, entity2=LocalPlayer, action="main", work_offset2=0*)
  1: 0x162E [0x1C] WAIT(60* ticks)
  2: 0x1631 [0x92] LocalPlayer->Render.Flags3 ^= 0x01
  3: 0x1637 [0x1C] WAIT(120* ticks)
  4: 0x163A [0x45] LOAD_SCHEDULED_TASK(work_offset1=201*, entity1=LocalPlayer, entity2=LocalPlayer, scheduler_id="who1", work_offset2=0*)
  5: 0x164B [0x55] WAIT_LOAD_SCHEDULER(work_offset=201*, entity1=LocalPlayer, entity2=LocalPlayer, scheduler_id="who1")
  6: 0x165A [0x1C] WAIT(60* ticks)
  7: 0x165D [0x00] END_REQSTACK()
```
