# Event 9250

## Metadata

| Field           | Value    |
|-----------------|----------|
| Event Index     | 6/15     |
| Offset          | 0x10F7   |
| Data Size       | 36 bytes |
| Calculated Size | 36 bytes |
| Instructions    | 12       |

```
      00 01 02 03 04 05 06 07  08 09 0A 0B 0C 0D 0E 0F
      -- -- -- -- -- -- -- --  -- -- -- -- -- -- -- --
10F0:                      1A  7E 12 1A 98 12 20 01 1C         .~.... ..
1100: 23 80 06 0D 00 06 0C 00  06 0B 00 02 0D 00 00 80  #...............
1110: 00 19 11 1A BD 12 01 0B  11 21 00                 .........!.     
```

## Opcodes

```
  0: 0x10F7 [0x1A] CALL_SUBROUTINE(address=0x127E)
  1: 0x10FA [0x1A] CALL_SUBROUTINE(address=0x1298)
  2: 0x10FD [0x20] SET_CLI_EVENT_UC_FLAG: Lock player control
  3: 0x10FF [0x1C] WAIT(60* ticks)
  4: 0x1102 [0x06] ExtData[1]->WorkLocal[13] = 0
  5: 0x1105 [0x06] ExtData[1]->WorkLocal[12] = 0
  6: 0x1108 [0x06] ExtData[1]->WorkLocal[11] = 0
  7: 0x110B [0x02] IF !(ExtData[1]->WorkLocal[13] == 0*) GOTO 0x1119
  8: 0x1113 [0x1A] CALL_SUBROUTINE(address=0x12BD)
  9: 0x1116 [0x01] GOTO 0x110B
 10: 0x1119 [0x21] END_EVENT
 11: 0x111A [0x00] END_REQSTACK()
```
