# Event 9251

## Metadata

| Field           | Value    |
|-----------------|----------|
| Event Index     | 5/15     |
| Offset          | 0x10D3   |
| Data Size       | 36 bytes |
| Calculated Size | 36 bytes |
| Instructions    | 12       |

```
      00 01 02 03 04 05 06 07  08 09 0A 0B 0C 0D 0E 0F
      -- -- -- -- -- -- -- --  -- -- -- -- -- -- -- --
10D0:          1A 7E 12 1A 98  12 20 01 1C 23 80 06 0D     .~.... ..#...
10E0: 00 06 0C 00 06 0B 00 02  0D 00 00 80 00 F5 10 1A  ................
10F0: 5E 13 01 E7 10 21 00                              ^....!.         
```

## Opcodes

```
  0: 0x10D3 [0x1A] CALL_SUBROUTINE(address=0x127E)
  1: 0x10D6 [0x1A] CALL_SUBROUTINE(address=0x1298)
  2: 0x10D9 [0x20] SET_CLI_EVENT_UC_FLAG: Lock player control
  3: 0x10DB [0x1C] WAIT(60* ticks)
  4: 0x10DE [0x06] ExtData[1]->WorkLocal[13] = 0
  5: 0x10E1 [0x06] ExtData[1]->WorkLocal[12] = 0
  6: 0x10E4 [0x06] ExtData[1]->WorkLocal[11] = 0
  7: 0x10E7 [0x02] IF !(ExtData[1]->WorkLocal[13] == 0*) GOTO 0x10F5
  8: 0x10EF [0x1A] CALL_SUBROUTINE(address=0x135E)
  9: 0x10F2 [0x01] GOTO 0x10E7

SUBROUTINE_10F5:
 10: 0x10F5 [0x21] END_EVENT
 11: 0x10F6 [0x00] END_REQSTACK()
```
