# Event 65535

## Metadata

| Field           | Value    |
|-----------------|----------|
| Event Index     | 14/24    |
| Offset          | 0x23E2   |
| Data Size       | 59 bytes |
| Calculated Size | 59 bytes |
| Instructions    | 10       |

```
      00 01 02 03 04 05 06 07  08 09 0A 0B 0C 0D 0E 0F
      -- -- -- -- -- -- -- --  -- -- -- -- -- -- -- --
23E0:       32 1D 80 1F 00 04  81 07 81 08 81 1F 01 4A    2............J
23F0: A8 70 01 01 A9 70 01 01  79 00 A8 70 01 01 F0 FF  .p...p..y..p....
2400: FF 7F 79 00 A7 70 01 01  F0 FF FF 7F 79 00 A9 70  ..y..p......y..p
2410: 01 01 F0 FF FF 7F 6F 76  A8 70 01 01 00           ......ov.p...   
```

## Opcodes

```
  0: 0x23E2 [0x32] ExtData[1]->MainSpeed = 13* * 0.1
  1: 0x23E5 [0x1F] MOVE_ENTITY: EventEntity moves to X=240.600*, Z=-231.500*, Y=-0.999*
  2: 0x23ED [0x1F] MOVE_ENTITY: Update entity position (mode=1)
  3: 0x23EF [0x4A] Louverance (ID: 16871592/0x010170A8) looks at Ulmia (ID: 16871593/0x010170A9)
  4: 0x23F8 [0x79] Louverance (ID: 16871592/0x010170A8) looks at LocalPlayer (Basic look)
  5: 0x2402 [0x79] Tenzen (ID: 16871591/0x010170A7) looks at LocalPlayer (Basic look)
  6: 0x240C [0x79] Ulmia (ID: 16871593/0x010170A9) looks at LocalPlayer (Basic look)
  7: 0x2416 [0x6F] WAIT_FRAME_DELAY: Yield until WaitTime reaches zero
  8: 0x2417 [0x76] CHECK_ENTITY_RENDER_FLAGS: Wait until Louverance (ID: 16871592/0x010170A8) Render.Flags0 and Render.Flags3 conditions are met
  9: 0x241C [0x00] END_REQSTACK()
```
