# Event 234

## Metadata

| Field           | Value    |
|-----------------|----------|
| Event Index     | 13/18    |
| Offset          | 0x00F7   |
| Data Size       | 33 bytes |
| Calculated Size | 33 bytes |
| Instructions    | 12       |

```
      00 01 02 03 04 05 06 07  08 09 0A 0B 0C 0D 0E 0F
      -- -- -- -- -- -- -- --  -- -- -- -- -- -- -- --
00F0:                      1E  F0 FF FF 7F 6F 70 29 08         .....op).
0100: 31 20 0F 01 01 1D 0B 80  23 1D 0C 80 23 29 08 31  1 ......#...#).1
0110: 20 0F 01 02 20 00 21 00                            ... .!.        
```

## Opcodes

```
  0: 0x00F7 [0x1E] EventEntity looks at LocalPlayer and starts talking
  1: 0x00FC [0x6F] WAIT_FRAME_DELAY: Yield until WaitTime reaches zero
  2: 0x00FD [0x70] WAIT_ENTITY_RENDER_FLAG: Wait while EventEntity->Render.Flags3 bit 2 is set (cancel turn if not)
  3: 0x00FE [0x29] REQ_SET_WAIT(priority=0x08, entity_id=Nebibi (ID: 17768497/0x010F2031), tag_num=0x01)
  4: 0x0105 [0x1D] PRINT_EVENT_MESSAGE(message_id=519*)
    → "Now that you mention it, I haven't seen the Orastery minister around lately...\u007F1\u0000\u0007"
  5: 0x0108 [0x23] WAIT_FOR_DIALOG_INTERACTION
  6: 0x0109 [0x1D] PRINT_EVENT_MESSAGE(message_id=520*)
    → "Before, he was here almost every day, flapping his gummy-gums off. I hardly got any bed-making done.\u007F1\u0000\u0007"
  7: 0x010C [0x23] WAIT_FOR_DIALOG_INTERACTION
  8: 0x010D [0x29] REQ_SET_WAIT(priority=0x08, entity_id=Nebibi (ID: 17768497/0x010F2031), tag_num=0x02)
  9: 0x0114 [0x20] SET_CLI_EVENT_UC_FLAG: Unlock player control
 10: 0x0116 [0x21] END_EVENT
 11: 0x0117 [0x00] END_REQSTACK()
```
