# Event 399

## Metadata

| Field           | Value    |
|-----------------|----------|
| Event Index     | 18/18    |
| Offset          | 0x0198   |
| Data Size       | 33 bytes |
| Calculated Size | 33 bytes |
| Instructions    | 12       |

```
      00 01 02 03 04 05 06 07  08 09 0A 0B 0C 0D 0E 0F
      -- -- -- -- -- -- -- --  -- -- -- -- -- -- -- --
0190:                          1E F0 FF FF 7F 6F 70 29          .....op)
01A0: 08 31 20 0F 01 01 1D 13  80 23 1D 14 80 23 29 08  .1 ......#...#).
01B0: 31 20 0F 01 02 20 00 21  00                       1 ... .!.       
```

## Opcodes

```
  0: 0x0198 [0x1E] EventEntity looks at LocalPlayer and starts talking
  1: 0x019D [0x6F] WAIT_FRAME_DELAY: Yield until WaitTime reaches zero
  2: 0x019E [0x70] WAIT_ENTITY_RENDER_FLAG: Wait while EventEntity->Render.Flags3 bit 2 is set (cancel turn if not)
  3: 0x019F [0x29] REQ_SET_WAIT(priority=0x08, entity_id=Nebibi (ID: 17768497/0x010F2031), tag_num=0x01)
  4: 0x01A6 [0x1D] PRINT_EVENT_MESSAGE(message_id=8533*)
    → "Making beds and sweeping floors, oh what a lovely day.\u0001t\u007F1\u0000\u0007"
  5: 0x01A9 [0x23] WAIT_FOR_DIALOG_INTERACTION
  6: 0x01AA [0x1D] PRINT_EVENT_MESSAGE(message_id=8534*)
    → "Things have finally returned to normal in Heavens Tower. Lady Zubaba is back to her usual naggy-waggy self, which is the bestaru indication that all is well in Windurst.\u007F1\u0000\u0007"
  7: 0x01AD [0x23] WAIT_FOR_DIALOG_INTERACTION
  8: 0x01AE [0x29] REQ_SET_WAIT(priority=0x08, entity_id=Nebibi (ID: 17768497/0x010F2031), tag_num=0x02)
  9: 0x01B5 [0x20] SET_CLI_EVENT_UC_FLAG: Unlock player control
 10: 0x01B7 [0x21] END_EVENT
 11: 0x01B8 [0x00] END_REQSTACK()
```
