# Event 65535

## Metadata

| Field           | Value    |
|-----------------|----------|
| Event Index     | 29/33    |
| Offset          | 0x01E4   |
| Data Size       | 73 bytes |
| Calculated Size | 73 bytes |
| Instructions    | 12       |

```
      00 01 02 03 04 05 06 07  08 09 0A 0B 0C 0D 0E 0F
      -- -- -- -- -- -- -- --  -- -- -- -- -- -- -- --
01E0:             BA 61 31 0A  01 1A 80 1B 80 1C 80 1D      .a1.........
01F0: 80 80 61 31 0A 01 4A F8  FF FF 7F 61 31 0A 01 6F  ..a1..J....a1..o
0200: 76 F8 FF FF 7F 79 00 F8  FF FF 7F 66 31 0A 01 1C  v....y.....f1...
0210: 08 80 79 00 F8 FF FF 7F  F0 FF FF 7F 1C 08 80 79  ..y............y
0220: 00 F8 FF FF 7F 61 31 0A  01 1C 1E 80 00           .....a1......   
```

## Opcodes

```
  0: 0x01E4 [0xBA] SET_ENTITY_POSITION(entity_id=??? (ID: 17445217/0x010A3161), pos_x=0.260*, pos_z=41.650*, pos_y=-1.500*, direction=41.3°*)
  1: 0x01F1 [0x80] LOAD_WAIT(entity=??? (ID: 17445217/0x010A3161))
  2: 0x01F6 [0x4A] EventEntity looks at ??? (ID: 17445217/0x010A3161)
  3: 0x01FF [0x6F] WAIT_FRAME_DELAY: Yield until WaitTime reaches zero
  4: 0x0200 [0x76] CHECK_ENTITY_RENDER_FLAGS: Wait until EventEntity Render.Flags0 and Render.Flags3 conditions are met
  5: 0x0205 [0x79] EventEntity looks at Aldo (ID: 17445222/0x010A3166) (Basic look)
  6: 0x020F [0x1C] WAIT(120* ticks)
  7: 0x0212 [0x79] EventEntity looks at LocalPlayer (Basic look)
  8: 0x021C [0x1C] WAIT(120* ticks)
  9: 0x021F [0x79] EventEntity looks at ??? (ID: 17445217/0x010A3161) (Basic look)
 10: 0x0229 [0x1C] WAIT(90* ticks)
 11: 0x022C [0x00] END_REQSTACK()
```
