# Event 65535

## Metadata

| Field           | Value    |
|-----------------|----------|
| Event Index     | 8/19     |
| Offset          | 0x00ED   |
| Data Size       | 88 bytes |
| Calculated Size | 88 bytes |
| Instructions    | 8        |

```
      00 01 02 03 04 05 06 07  08 09 0A 0B 0C 0D 0E 0F
      -- -- -- -- -- -- -- --  -- -- -- -- -- -- -- --
00E0:                                         45 14 80               E..
00F0: F8 FF FF 7F F8 FF FF 7F  73 30 32 35 0D 80 1C 15  ........s025....
0100: 80 52 14 80 F8 FF FF 7F  F8 FF FF 7F 73 30 32 35  .R..........s025
0110: 45 16 80 F0 FF FF 7F F0  FF FF 7F 6F 76 6C 31 0D  E..........ovl1.
0120: 80 45 14 80 F8 FF FF 7F  F8 FF FF 7F 73 30 32 36  .E..........s026
0130: 0D 80 1C 15 80 52 14 80  F8 FF FF 7F F8 FF FF 7F  .....R..........
0140: 73 30 32 36 00                                    s026.           
```

## Opcodes

```
  0: 0x00ED [0x45] LOAD_SCHEDULED_TASK: Load scheduler "s025" with entities [EventEntity, EventEntity], work=[249*, 0*]
  1: 0x00FE [0x1C] WAIT(100* ticks)
  2: 0x0101 [0x52] END_LOAD_SCHEDULER: End scheduler "s025" with entities [EventEntity, EventEntity], work=249*
  3: 0x0110 [0x45] LOAD_SCHEDULED_TASK: Load scheduler "ovl1" with entities [LocalPlayer, LocalPlayer], work=[200*, 0*]
  4: 0x0121 [0x45] LOAD_SCHEDULED_TASK: Load scheduler "s026" with entities [EventEntity, EventEntity], work=[249*, 0*]
  5: 0x0132 [0x1C] WAIT(100* ticks)
  6: 0x0135 [0x52] END_LOAD_SCHEDULER: End scheduler "s026" with entities [EventEntity, EventEntity], work=249*
  7: 0x0144 [0x00] END_REQSTACK()
```
