# Event 58

## Metadata

| Field           | Value    |
|-----------------|----------|
| Event Index     | 7/8      |
| Offset          | 0x01E6   |
| Data Size       | 48 bytes |
| Calculated Size | 48 bytes |
| Instructions    | 10       |

```
      00 01 02 03 04 05 06 07  08 09 0A 0B 0C 0D 0E 0F
      -- -- -- -- -- -- -- --  -- -- -- -- -- -- -- --
01E0:                   42 1E  F0 FF FF 7F 1D 1F 80 23        B........#
01F0: 5B 02 80 F8 FF FF 7F F8  FF FF 7F 74 6C 6B 30 1D  [..........tlk0.
0200: 20 80 23 45 11 80 F0 FF  FF 7F F0 FF FF 7F 71 73   .#E..........qs
0210: 74 63 07 80 21 00                                 tc..!.          
```

## Opcodes

```
  0: 0x01E6 [0x42] SET_CLI_EVENT_CANCEL_DATA()
  1: 0x01E7 [0x1E] EventEntity looks at LocalPlayer and starts talking
  2: 0x01EC [0x1D] PRINT_EVENT_MESSAGE(message_id=7334*)
    → "Ah, you're back! Where is Sir Domien?\u0007What!? He gave you this letter and left in a fury!?\u007F1\u0000\u0007"
  3: 0x01EF [0x23] WAIT_FOR_DIALOG_INTERACTION
  4: 0x01F0 [0x5B] LOAD_EXT_SCHEDULER: Load scheduler "tlk0" with entities [EventEntity, EventEntity], work=65*
  5: 0x01FF [0x1D] PRINT_EVENT_MESSAGE(message_id=7335*)
    → "Oh, no! What am I to do?\u0007...Still, you've done what I've asked you to do, and I feel I still owe you for the last time.\u0007Here, take this.\u007F1\u0000\u0007"
  6: 0x0202 [0x23] WAIT_FOR_DIALOG_INTERACTION
  7: 0x0203 [0x45] LOAD_SCHEDULED_TASK: Load scheduler "qstc" with entities [LocalPlayer, LocalPlayer], work=[201*, 0*]
  8: 0x0214 [0x21] END_EVENT
  9: 0x0215 [0x00] END_REQSTACK()
```
