# Event 317

## Metadata

| Field           | Value    |
|-----------------|----------|
| Event Index     | 28/77    |
| Offset          | 0x021A   |
| Data Size       | 33 bytes |
| Calculated Size | 33 bytes |
| Instructions    | 12       |

```
      00 01 02 03 04 05 06 07  08 09 0A 0B 0C 0D 0E 0F
      -- -- -- -- -- -- -- --  -- -- -- -- -- -- -- --
0210:                                1E F0 FF FF 7F 6F            .....o
0220: 70 29 08 2D E0 0E 01 01  1D 12 80 23 1D 13 80 23  p).-.......#...#
0230: 29 08 2D E0 0E 01 02 20  00 21 00                 ).-.... .!.     
```

## Opcodes

```
  0: 0x021A [0x1E] EventEntity looks at LocalPlayer and starts talking
  1: 0x021F [0x6F] WAIT_FRAME_DELAY: Yield until WaitTime reaches zero
  2: 0x0220 [0x70] WAIT_ENTITY_RENDER_FLAG: Wait while EventEntity->Render.Flags3 bit 2 is set (cancel turn if not)
  3: 0x0221 [0x29] REQ_SET_WAIT(priority=0x08, entity_id=Ohbiru-Dohbiru (ID: 17752109/0x010EE02D), tag_num=0x01)
  4: 0x0228 [0x1D] PRINT_EVENT_MESSAGE(message_id=8057*)
    → "I'll have the \u0001\u0005#\u0002\u0001\u0000\u0000 with \u0001\u0001\u0001 \u0001\u0005$\u0002\u0002\u0000\u0000 and a side order of \u0001\u0001\u0001 \u0001\u0005$\u0002\u0003\u0000\u0000 to go, thank you.\u007F1\u0000\u0007"
  5: 0x022B [0x23] WAIT_FOR_DIALOG_INTERACTION
  6: 0x022C [0x1D] PRINT_EVENT_MESSAGE(message_id=8058*)
    → "While I'm waiting for you, I'll sink my last remaining energy into continuing this project.\u007F1\u0000\u0007"
  7: 0x022F [0x23] WAIT_FOR_DIALOG_INTERACTION
  8: 0x0230 [0x29] REQ_SET_WAIT(priority=0x08, entity_id=Ohbiru-Dohbiru (ID: 17752109/0x010EE02D), tag_num=0x02)
  9: 0x0237 [0x20] SET_CLI_EVENT_UC_FLAG: Unlock player control
 10: 0x0239 [0x21] END_EVENT
 11: 0x023A [0x00] END_REQSTACK()
```
