# Event 355

## Metadata

| Field           | Value    |
|-----------------|----------|
| Event Index     | 43/77    |
| Offset          | 0x0457   |
| Data Size       | 41 bytes |
| Calculated Size | 41 bytes |
| Instructions    | 11       |

```
      00 01 02 03 04 05 06 07  08 09 0A 0B 0C 0D 0E 0F
      -- -- -- -- -- -- -- --  -- -- -- -- -- -- -- --
0450:                      20  01 42 1E F0 FF FF 7F 6F          .B.....o
0460: 70 29 0B 2D E0 0E 01 2B  45 17 80 F0 FF FF 7F F0  p).-...+E.......
0470: FF FF 7F 71 73 74 63 18  80 48 19 80 20 00 21 00  ...qstc..H.. .!.
```

## Opcodes

```
  0: 0x0457 [0x20] SET_CLI_EVENT_UC_FLAG: Lock player control
  1: 0x0459 [0x42] SET_CLI_EVENT_CANCEL_DATA()
  2: 0x045A [0x1E] EventEntity looks at LocalPlayer and starts talking
  3: 0x045F [0x6F] WAIT_FRAME_DELAY: Yield until WaitTime reaches zero
  4: 0x0460 [0x70] WAIT_ENTITY_RENDER_FLAG: Wait while EventEntity->Render.Flags3 bit 2 is set (cancel turn if not)
  5: 0x0461 [0x29] REQ_SET_WAIT(priority=0x0B, entity_id=Ohbiru-Dohbiru (ID: 17752109/0x010EE02D), tag_num=0x2B)
  6: 0x0468 [0x45] LOAD_SCHEDULED_TASK: Load scheduler "qstc" with entities [LocalPlayer, LocalPlayer], work=[201*, 0*]
  7: 0x0479 [0x48] [System] [6552*]:
    → "Obtained 
\u0000 gil.\u0000\u0007"
  8: 0x047C [0x20] SET_CLI_EVENT_UC_FLAG: Unlock player control
  9: 0x047E [0x21] END_EVENT
 10: 0x047F [0x00] END_REQSTACK()
```
