# Event 65535

## Metadata

| Field           | Value    |
|-----------------|----------|
| Event Index     | 38/77    |
| Offset          | 0x03CE   |
| Data Size       | 37 bytes |
| Calculated Size | 37 bytes |
| Instructions    | 9        |

```
      00 01 02 03 04 05 06 07  08 09 0A 0B 0C 0D 0E 0F
      -- -- -- -- -- -- -- --  -- -- -- -- -- -- -- --
03C0:                                            29 08                ).
03D0: 2D E0 0E 01 03 1D 2B 80  23 29 08 2D E0 0E 01 04  -.....+.#).-....
03E0: 29 08 2D E0 0E 01 05 1D  2C 80 23 29 08 2D E0 0E  ).-.....,.#).-..
03F0: 01 06 00                                          ...             
```

## Opcodes

```
  0: 0x03CE [0x29] REQ_SET_WAIT(priority=0x08, entity_id=Ohbiru-Dohbiru (ID: 17752109/0x010EE02D), tag_num=0x03)
  1: 0x03D5 [0x1D] PRINT_EVENT_MESSAGE(message_id=8123*)
    → "But the \u0001\u0005#\u0002\u0001\u0000\u0000 needed to carry out our enhancing work is running in short supply.\u007F1\u0000\u0007"
  2: 0x03D8 [0x23] WAIT_FOR_DIALOG_INTERACTION
  3: 0x03D9 [0x29] REQ_SET_WAIT(priority=0x08, entity_id=Ohbiru-Dohbiru (ID: 17752109/0x010EE02D), tag_num=0x04)
  4: 0x03E0 [0x29] REQ_SET_WAIT(priority=0x08, entity_id=Ohbiru-Dohbiru (ID: 17752109/0x010EE02D), tag_num=0x05)
  5: 0x03E7 [0x1D] PRINT_EVENT_MESSAGE(message_id=8124*)
    → "Could I dare ask you to obtain \u0001\u0001\u0001 \u0001\u0005$\u0002\u0001\u0000\u0000 for us? I must warn you, it involves going to some dangerous territory!\u007F1\u0000\u0007"
  6: 0x03EA [0x23] WAIT_FOR_DIALOG_INTERACTION
  7: 0x03EB [0x29] REQ_SET_WAIT(priority=0x08, entity_id=Ohbiru-Dohbiru (ID: 17752109/0x010EE02D), tag_num=0x06)
  8: 0x03F2 [0x00] END_REQSTACK()
```
