# Event 65535

## Metadata

| Field           | Value    |
|-----------------|----------|
| Event Index     | 52/77    |
| Offset          | 0x08ED   |
| Data Size       | 37 bytes |
| Calculated Size | 37 bytes |
| Instructions    | 9        |

```
      00 01 02 03 04 05 06 07  08 09 0A 0B 0C 0D 0E 0F
      -- -- -- -- -- -- -- --  -- -- -- -- -- -- -- --
08E0:                                         29 08 2D               ).-
08F0: E0 0E 01 03 1D 51 80 23  29 08 2D E0 0E 01 04 29  .....Q.#).-....)
0900: 08 2D E0 0E 01 05 1D 52  80 23 29 08 2D E0 0E 01  .-.....R.#).-...
0910: 06 00                                             ..              
```

## Opcodes

```
  0: 0x08ED [0x29] REQ_SET_WAIT(priority=0x08, entity_id=Ohbiru-Dohbiru (ID: 17752109/0x010EE02D), tag_num=0x03)
  1: 0x08F4 [0x1D] PRINT_EVENT_MESSAGE(message_id=8560*)
    → "Hmm...\u0007The flower you talk of does exist, but...\u007F1\u0000\u0007"
  2: 0x08F7 [0x23] WAIT_FOR_DIALOG_INTERACTION
  3: 0x08F8 [0x29] REQ_SET_WAIT(priority=0x08, entity_id=Ohbiru-Dohbiru (ID: 17752109/0x010EE02D), tag_num=0x04)
  4: 0x08FF [0x29] REQ_SET_WAIT(priority=0x08, entity_id=Ohbiru-Dohbiru (ID: 17752109/0x010EE02D), tag_num=0x05)
  5: 0x0906 [0x1D] PRINT_EVENT_MESSAGE(message_id=8561*)
    → "I think Kerutoto is using the last one we have in some kind of experiment. She's in the meditation chamber next door.\u007F1\u0000\u0007"
  6: 0x0909 [0x23] WAIT_FOR_DIALOG_INTERACTION
  7: 0x090A [0x29] REQ_SET_WAIT(priority=0x08, entity_id=Ohbiru-Dohbiru (ID: 17752109/0x010EE02D), tag_num=0x06)
  8: 0x0911 [0x00] END_REQSTACK()
```
