# Event 65535

## Metadata

| Field           | Value    |
|-----------------|----------|
| Event Index     | 41/74    |
| Offset          | 0x0284   |
| Data Size       | 37 bytes |
| Calculated Size | 37 bytes |
| Instructions    | 9        |

```
      00 01 02 03 04 05 06 07  08 09 0A 0B 0C 0D 0E 0F
      -- -- -- -- -- -- -- --  -- -- -- -- -- -- -- --
0280:             29 08 DD 10  0F 01 01 1D 12 80 23 1D      ).........#.
0290: 13 80 23 29 08 DD 10 0F  01 02 29 08 DD 10 0F 01  ..#)......).....
02A0: 04 29 08 DD 10 0F 01 05  00                       .).......       
```

## Opcodes

```
  0: 0x0284 [0x29] REQ_SET_WAIT(priority=0x08, entity_id=Semih Lafihna (ID: 17764573/0x010F10DD), tag_num=0x01)
  1: 0x028B [0x1D] PRINT_EVENT_MESSAGE(message_id=8943*)
    → "Yes, she followed me to Jugner Forest. It seems the sinner carries a scent that we cannot detect.\u007F1\u0000\u0007"
  2: 0x028E [0x23] WAIT_FOR_DIALOG_INTERACTION
  3: 0x028F [0x1D] PRINT_EVENT_MESSAGE(message_id=8944*)
    → "But I was not the daughter the Tracker was seeking. Did you send the earring out of concern for me? If so, your fears appear to be unfounded.\u007F1\u0000 \u0007"
  4: 0x0292 [0x23] WAIT_FOR_DIALOG_INTERACTION
  5: 0x0293 [0x29] REQ_SET_WAIT(priority=0x08, entity_id=Semih Lafihna (ID: 17764573/0x010F10DD), tag_num=0x02)
  6: 0x029A [0x29] REQ_SET_WAIT(priority=0x08, entity_id=Semih Lafihna (ID: 17764573/0x010F10DD), tag_num=0x04)
  7: 0x02A1 [0x29] REQ_SET_WAIT(priority=0x08, entity_id=Semih Lafihna (ID: 17764573/0x010F10DD), tag_num=0x05)
  8: 0x02A8 [0x00] END_REQSTACK()
```
