# Event 556

## Metadata

| Field           | Value    |
|-----------------|----------|
| Event Index     | 3/3      |
| Offset          | 0x003C   |
| Data Size       | 59 bytes |
| Calculated Size | 59 bytes |
| Instructions    | 11       |

```
      00 01 02 03 04 05 06 07  08 09 0A 0B 0C 0D 0E 0F
      -- -- -- -- -- -- -- --  -- -- -- -- -- -- -- --
0030:                                      1E F0 FF FF              ....
0040: 7F 6F 70 66 00 80 F8 FF  FF 7F F8 FF FF 7F 74 6C  .opf..........tl
0050: 6B 32 1D 03 80 23 66 00  80 F8 FF FF 7F F8 FF FF  k2...#f.........
0060: 7F 74 65 6E 32 53 F8 FF  FF 7F F8 FF FF 7F 74 65  .ten2S........te
0070: 6E 32 1C 02 80 21 00                              n2...!.         
```

## Opcodes

```
  0: 0x003C [0x1E] EventEntity looks at LocalPlayer and starts talking
  1: 0x0041 [0x6F] WAIT_FRAME_DELAY: Yield until WaitTime reaches zero
  2: 0x0042 [0x70] WAIT_ENTITY_RENDER_FLAG: Wait while EventEntity->Render.Flags3 bit 2 is set (cancel turn if not)
  3: 0x0043 [0x66] LOAD_EXT_SCHEDULER_MAIN(work_offset=0*, entity1=EventEntity, entity2=EventEntity, action="tlk2")
  4: 0x0052 [0x1D] PRINT_EVENT_MESSAGE(message_id=11406*)
    → "You're here with business from the administration, correct? I believe you should talk to Consul Helaku.\u007F1\u0000\u0007"
  5: 0x0055 [0x23] WAIT_FOR_DIALOG_INTERACTION
  6: 0x0056 [0x66] LOAD_EXT_SCHEDULER_MAIN(work_offset=0*, entity1=EventEntity, entity2=EventEntity, action="ten2")
  7: 0x0065 [0x53] WAIT_SCHEDULER_TASK(entity1=EventEntity, entity2=EventEntity, action_id="ten2")
  8: 0x0072 [0x1C] WAIT(30* ticks)
  9: 0x0075 [0x21] END_EVENT
 10: 0x0076 [0x00] END_REQSTACK()
```
