# Event 65535

## Metadata

| Field           | Value    |
|-----------------|----------|
| Event Index     | 5/8      |
| Offset          | 0x00D1   |
| Data Size       | 50 bytes |
| Calculated Size | 50 bytes |
| Instructions    | 6        |

```
      00 01 02 03 04 05 06 07  08 09 0A 0B 0C 0D 0E 0F
      -- -- -- -- -- -- -- --  -- -- -- -- -- -- -- --
00D0:    66 0A 80 F8 FF FF 7F  F8 FF FF 7F 31 72 74 6E   f..........1rtn
00E0: 53 F8 FF FF 7F F8 FF FF  7F 31 72 74 6E 1C 0F 80  S........1rtn...
00F0: 37 10 80 11 80 12 80 13  80 6C F8 FF FF 7F 14 80  7........l......
0100: 09 80 00                                          ...             
```

## Opcodes

```
  0: 0x00D1 [0x66] LOAD_EXT_SCHEDULER_MAIN(work_offset=24*, entity1=EventEntity, entity2=EventEntity, action="1rtn")
  1: 0x00E0 [0x53] WAIT_SCHEDULER_TASK(entity1=EventEntity, entity2=EventEntity, action_id="1rtn")
  2: 0x00ED [0x1C] WAIT(150* ticks)
  3: 0x00F0 [0x37] UPDATE_EVENT_POSITION_AND_DIR: x=-185.429*, z=48.510*, y=-10.136*, direction=141.0°*
  4: 0x00F9 [0x6C] FADE_ENTITY_COLOR(entity_id=EventEntity, end_alpha=128*, fade_time=0*)
  5: 0x0102 [0x00] END_REQSTACK()
```
