# Event 65535

## Metadata

| Field           | Value    |
|-----------------|----------|
| Event Index     | 24/26    |
| Offset          | 0x0279   |
| Data Size       | 51 bytes |
| Calculated Size | 51 bytes |
| Instructions    | 11       |

```
      00 01 02 03 04 05 06 07  08 09 0A 0B 0C 0D 0E 0F
      -- -- -- -- -- -- -- --  -- -- -- -- -- -- -- --
0270:                             32 4F 80 1F 00 60 80           2O...`.
0280: 61 80 62 80 1F 01 1F 00  63 80 64 80 65 80 1F 01  a.b.....c.d.e...
0290: 1F 00 66 80 67 80 68 80  1F 01 1E 4A 10 0F 01 1C  ..f.g.h....J....
02A0: 48 80 4A 4A 10 0F 01 4C  10 0F 01 00              H.JJ...L....    
```

## Opcodes

```
  0: 0x0279 [0x32] ExtData[1]->MainSpeed = 45* * 0.1
  1: 0x027C [0x1F] MOVE_ENTITY: EventEntity moves to X=-604.257*, Z=586.573*, Y=0.057*
  2: 0x0284 [0x1F] MOVE_ENTITY: Update entity position (mode=1)
  3: 0x0286 [0x1F] MOVE_ENTITY: EventEntity moves to X=-603.318*, Z=588.527*, Y=0.196*
  4: 0x028E [0x1F] MOVE_ENTITY: Update entity position (mode=1)
  5: 0x0290 [0x1F] MOVE_ENTITY: EventEntity moves to X=-601.495*, Z=586.040*, Y=0.496*
  6: 0x0298 [0x1F] MOVE_ENTITY: Update entity position (mode=1)
  7: 0x029A [0x1E] EventEntity looks at Unnamed NPC (ID: 17764426/0x010F104A) and starts talking
  8: 0x029F [0x1C] WAIT(30* ticks)
  9: 0x02A2 [0x4A] Unnamed NPC (ID: 17764426/0x010F104A) looks at Unnamed NPC (ID: 17764428/0x010F104C)
 10: 0x02AB [0x00] END_REQSTACK()
```
