# Event 65535

## Metadata

| Field           | Value    |
|-----------------|----------|
| Event Index     | 22/26    |
| Offset          | 0x0228   |
| Data Size       | 67 bytes |
| Calculated Size | 67 bytes |
| Instructions    | 15       |

```
      00 01 02 03 04 05 06 07  08 09 0A 0B 0C 0D 0E 0F
      -- -- -- -- -- -- -- --  -- -- -- -- -- -- -- --
0220:                          32 4F 80 1F 00 50 80 51          2O...P.Q
0230: 80 52 80 1F 01 4B 4C 10  0F 01 53 80 1C 37 80 1F  .R...KL...S..7..
0240: 00 54 80 55 80 56 80 1F  01 4B 4C 10 0F 01 57 80  .T.U.V...KL...W.
0250: 1C 58 80 1F 00 59 80 5A  80 5B 80 1F 01 1C 48 80  .X...Y.Z.[....H.
0260: 4B 4C 10 0F 01 5C 80 1C  37 80 00                 KL...\..7..     
```

## Opcodes

```
  0: 0x0228 [0x32] ExtData[1]->MainSpeed = 45* * 0.1
  1: 0x022B [0x1F] MOVE_ENTITY: EventEntity moves to X=-599.295*, Z=590.678*, Y=0.264*
  2: 0x0233 [0x1F] MOVE_ENTITY: Update entity position (mode=1)
  3: 0x0235 [0x4B] UPDATE_ENTITY_YAW(entity=Unnamed NPC (ID: 17764428/0x010F104C), yaw=5.3°*)
  4: 0x023C [0x1C] WAIT(60* ticks)
  5: 0x023F [0x1F] MOVE_ENTITY: EventEntity moves to X=-604.353*, Z=586.292*, Y=0.138*
  6: 0x0247 [0x1F] MOVE_ENTITY: Update entity position (mode=1)
  7: 0x0249 [0x4B] UPDATE_ENTITY_YAW(entity=Unnamed NPC (ID: 17764428/0x010F104C), yaw=0.2°*)
  8: 0x0250 [0x1C] WAIT(240* ticks)
  9: 0x0253 [0x1F] MOVE_ENTITY: EventEntity moves to X=-600.328*, Z=582.410*, Y=0.802*
 10: 0x025B [0x1F] MOVE_ENTITY: Update entity position (mode=1)
 11: 0x025D [0x1C] WAIT(30* ticks)
 12: 0x0260 [0x4B] UPDATE_ENTITY_YAW(entity=Unnamed NPC (ID: 17764428/0x010F104C), yaw=16.6°*)
 13: 0x0267 [0x1C] WAIT(60* ticks)
 14: 0x026A [0x00] END_REQSTACK()
```
