# Event 65535

## Metadata

| Field           | Value    |
|-----------------|----------|
| Event Index     | 71/79    |
| Offset          | 0x0418   |
| Data Size       | 56 bytes |
| Calculated Size | 56 bytes |
| Instructions    | 6        |

```
      00 01 02 03 04 05 06 07  08 09 0A 0B 0C 0D 0E 0F
      -- -- -- -- -- -- -- --  -- -- -- -- -- -- -- --
0410:                          45 11 80 F8 FF FF 7F F8          E.......
0420: FF FF 7F 73 30 30 33 12  80 1C 13 80 52 11 80 F8  ...s003.....R...
0430: FF FF 7F F8 FF FF 7F 73  30 30 33 45 11 80 F8 FF  .......s003E....
0440: FF 7F F8 FF FF 7F 73 30  30 34 12 80 1C 13 80 00  ......s004......
```

## Opcodes

```
  0: 0x0418 [0x45] LOAD_SCHEDULED_TASK(work_offset1=128*, entity1=EventEntity, entity2=EventEntity, scheduler_id="s003", work_offset2=0*)
  1: 0x0429 [0x1C] WAIT(90* ticks)
  2: 0x042C [0x52] END_LOAD_SCHEDULER: End scheduler "s003" with entities [EventEntity, EventEntity], work=128*
  3: 0x043B [0x45] LOAD_SCHEDULED_TASK(work_offset1=128*, entity1=EventEntity, entity2=EventEntity, scheduler_id="s004", work_offset2=0*)
  4: 0x044C [0x1C] WAIT(90* ticks)
  5: 0x044F [0x00] END_REQSTACK()
```
