# Event 18

## Metadata

| Field           | Value    |
|-----------------|----------|
| Event Index     | 4/4      |
| Offset          | 0x1B1C   |
| Data Size       | 61 bytes |
| Calculated Size | 61 bytes |
| Instructions    | 13       |

```
      00 01 02 03 04 05 06 07  08 09 0A 0B 0C 0D 0E 0F
      -- -- -- -- -- -- -- --  -- -- -- -- -- -- -- --
1B10:                                      42 03 02 10              B...
1B20: D5 81 48 D6 81 23 03 02  10 D7 81 CC 20 02 10 48  ..H..#...... ..H
1B30: D8 81 23 CC 20 00 80 45  3B 80 F0 FF FF 7F F0 FF  ..#. ..E;.......
1B40: FF 7F 66 64 69 31 00 80  55 3B 80 F0 FF FF 7F F0  ..fdi1..U;......
1B50: FF FF 7F 66 64 69 31 21  00                       ...fdi1!.       
```

## Opcodes

```
  0: 0x1B1C [0x42] SET_CLI_EVENT_CANCEL_DATA()
  1: 0x1B1D [0x03] Work_Zone[2] = 23894*
  2: 0x1B22 [0x48] [System] [7540*]:
    → "Your \u0001\u0005#\u0002\u0000\u0000\u0000 begins to quiver!\u007F1\u0000\u0007"
  3: 0x1B25 [0x23] WAIT_FOR_DIALOG_INTERACTION
  4: 0x1B26 [0x03] Work_Zone[2] = 3369*
  5: 0x1B2B [0xCC] ITEM_INFO_WINDOW_HANDLER(case=0x20 - Event item window create/destroy, window_action=Work_Zone[2])
  6: 0x1B2F [0x48] [System] [6394*]:
    → "Obtained key item: \u007F\u0000\u0001\u0001\u00053\u0002\u0000\u0000\u0000.\u007F1\u0000\u0007"
  7: 0x1B32 [0x23] WAIT_FOR_DIALOG_INTERACTION
  8: 0x1B33 [0xCC] ITEM_INFO_WINDOW_HANDLER(case=0x20 - Event item window create/destroy, window_action=0*)
  9: 0x1B37 [0x45] LOAD_SCHEDULED_TASK(work_offset1=200*, entity1=LocalPlayer, entity2=LocalPlayer, scheduler_id="fdi1", work_offset2=0*)
 10: 0x1B48 [0x55] WAIT_LOAD_SCHEDULER(work_offset=200*, entity1=LocalPlayer, entity2=LocalPlayer, scheduler_id="fdi1")
 11: 0x1B57 [0x21] END_EVENT
 12: 0x1B58 [0x00] END_REQSTACK()
```
