# Event 65535

## Metadata

| Field           | Value    |
|-----------------|----------|
| Event Index     | 8/11     |
| Offset          | 0x0114   |
| Data Size       | 50 bytes |
| Calculated Size | 50 bytes |
| Instructions    | 11       |

```
      00 01 02 03 04 05 06 07  08 09 0A 0B 0C 0D 0E 0F
      -- -- -- -- -- -- -- --  -- -- -- -- -- -- -- --
0110:             59 04 F8 FF  FF 7F 23 80 1F 00 24 80      Y.....#...$.
0120: 25 80 19 80 1F 01 1F 00  26 80 27 80 19 80 1F 01  %.......&.'.....
0130: 1F 00 28 80 29 80 19 80  1F 01 1F 00 2A 80 2B 80  ..(.).......*.+.
0140: 19 80 1F 01 6F 00                                 ....o.          
```

## Opcodes

```
  0: 0x0114 [0x59] UPDATE_ENTITY_DATA: Set EventEntity main speed = 13* * 0.1
  1: 0x011C [0x1F] MOVE_ENTITY: EventEntity moves to X=-52.265*, Z=43.584*, Y=-3.499*
  2: 0x0124 [0x1F] MOVE_ENTITY: Update entity position (mode=1)
  3: 0x0126 [0x1F] MOVE_ENTITY: EventEntity moves to X=-53.224*, Z=46.410*, Y=-3.499*
  4: 0x012E [0x1F] MOVE_ENTITY: Update entity position (mode=1)
  5: 0x0130 [0x1F] MOVE_ENTITY: EventEntity moves to X=-51.390*, Z=49.730*, Y=-3.499*
  6: 0x0138 [0x1F] MOVE_ENTITY: Update entity position (mode=1)
  7: 0x013A [0x1F] MOVE_ENTITY: EventEntity moves to X=-50.650*, Z=51.920*, Y=-3.499*
  8: 0x0142 [0x1F] MOVE_ENTITY: Update entity position (mode=1)
  9: 0x0144 [0x6F] WAIT_FRAME_DELAY: Yield until WaitTime reaches zero
 10: 0x0145 [0x00] END_REQSTACK()
```
