# Event 348

## Metadata

| Field           | Value    |
|-----------------|----------|
| Event Index     | 8/13     |
| Offset          | 0x1EF5   |
| Data Size       | 63 bytes |
| Calculated Size | 63 bytes |
| Instructions    | 16       |

```
      00 01 02 03 04 05 06 07  08 09 0A 0B 0C 0D 0E 0F
      -- -- -- -- -- -- -- --  -- -- -- -- -- -- -- --
1EF0:                03 0A 00  04 10 48 B3 80 23 02 0A       .....H..#..
1F00: 00 03 80 80 0E 1F 03 02  10 B0 80 01 2E 1F 02 0A  ................
1F10: 00 05 80 80 1E 1F 03 02  10 B1 80 01 2E 1F 02 0A  ................
1F20: 00 1C 80 80 2E 1F 03 02  10 B1 80 01 2E 1F 48 B4  ..............H.
1F30: 80 23 21 00                                       .#!.            
```

## Opcodes

```
  0: 0x1EF5 [0x03] ExtData[1]->WorkLocal[10] = Work_Zone[4]
  1: 0x1EFA [0x48] [System] [8641*]:
    → "A note scrawled in barely legible handwriting rests upon the floor.\u007F1\u0000\u0007"
  2: 0x1EFD [0x23] WAIT_FOR_DIALOG_INTERACTION
  3: 0x1EFE [0x02] IF !(ExtData[1]->WorkLocal[10] == 1*) GOTO 0x1F0E
  4: 0x1F06 [0x03] Work_Zone[2] = 12500*
  5: 0x1F0B [0x01] GOTO 0x1F2E
  6: 0x1F0E [0x02] IF !(ExtData[1]->WorkLocal[10] == 2*) GOTO 0x1F1E
  7: 0x1F16 [0x03] Work_Zone[2] = 10000*
  8: 0x1F1B [0x01] GOTO 0x1F2E
  9: 0x1F1E [0x02] IF !(ExtData[1]->WorkLocal[10] == 3*) GOTO 0x1F2E
 10: 0x1F26 [0x03] Work_Zone[2] = 10000*
 11: 0x1F2B [0x01] GOTO 0x1F2E

SUBROUTINE_1F2E:
 12: 0x1F2E [0x48] [System] [8642*]:
    → "\u00072
\u0000 bayld!\u00073\u007F1\u0000\u0007"
 13: 0x1F31 [0x23] WAIT_FOR_DIALOG_INTERACTION
 14: 0x1F32 [0x21] END_EVENT
 15: 0x1F33 [0x00] END_REQSTACK()
```
