# 17731686 - Trion

## Common Data

| Field            | Value                         |
|------------------|-------------------------------|
| Zone             | Chateau d'Oraguille (ID: 233) |
| Block Size       | 1616 bytes                    |
| Total Events     | 69                            |
| References Count | 67                            |

## List of Events

| Event ID                   | Entrypoint   |   Size |   Instructions |
|----------------------------|--------------|--------|----------------|
| [65535](#event-65535)      | 0x0000       |      1 |              1 |
| [65535.1](#event-655351)   | 0x0001       |     16 |              2 |
| [65535.2](#event-655352)   | 0x0011       |     14 |              2 |
| [65535.3](#event-655353)   | 0x001F       |     16 |              2 |
| [65535.4](#event-655354)   | 0x002F       |     14 |              2 |
| [65535.5](#event-655355)   | 0x003D       |     16 |              2 |
| [65535.6](#event-655356)   | 0x004D       |     14 |              2 |
| [65535.7](#event-655357)   | 0x005B       |     16 |              2 |
| [65535.8](#event-655358)   | 0x006B       |     14 |              2 |
| [65535.9](#event-655359)   | 0x0079       |     16 |              2 |
| [65535.10](#event-6553510) | 0x0089       |     14 |              2 |
| [65535.11](#event-6553511) | 0x0097       |     16 |              2 |
| [65535.12](#event-6553512) | 0x00A7       |     14 |              2 |
| [65535.13](#event-6553513) | 0x00B5       |     16 |              2 |
| [65535.14](#event-6553514) | 0x00C5       |     14 |              2 |
| [65535.15](#event-6553515) | 0x00D3       |     16 |              2 |
| [65535.16](#event-6553516) | 0x00E3       |     14 |              2 |
| [65535.17](#event-6553517) | 0x00F1       |     16 |              2 |
| [65535.18](#event-6553518) | 0x0101       |     14 |              2 |
| [65535.19](#event-6553519) | 0x010F       |     16 |              2 |
| [65535.20](#event-6553520) | 0x011F       |     14 |              2 |
| [65535.21](#event-6553521) | 0x012D       |     16 |              2 |
| [65535.22](#event-6553522) | 0x013D       |     14 |              2 |
| [65535.23](#event-6553523) | 0x014B       |     16 |              2 |
| [65535.24](#event-6553524) | 0x015B       |     14 |              2 |
| [65535.25](#event-6553525) | 0x0169       |     16 |              2 |
| [65535.26](#event-6553526) | 0x0179       |     14 |              2 |
| [65535.27](#event-6553527) | 0x0187       |     16 |              2 |
| [65535.28](#event-6553528) | 0x0197       |     14 |              2 |
| [65535.29](#event-6553529) | 0x01A5       |     16 |              2 |
| [65535.30](#event-6553530) | 0x01B5       |     14 |              2 |
| [65535.31](#event-6553531) | 0x01C3       |     29 |              3 |
| [65535.32](#event-6553532) | 0x01E0       |     29 |              3 |
| [65535.33](#event-6553533) | 0x01FD       |     29 |              3 |
| [65535.34](#event-6553534) | 0x021A       |     29 |              3 |
| [65535.35](#event-6553535) | 0x0237       |     29 |              3 |
| [65535.36](#event-6553536) | 0x0254       |      9 |              3 |
| [592](#event-592)          | 0x025D       |      1 |              1 |
| [65535.37](#event-6553537) | 0x025E       |     15 |              5 |
| [65535.38](#event-6553538) | 0x026D       |     15 |              5 |
| [65535.39](#event-6553539) | 0x027C       |     43 |              7 |
| [65535.40](#event-6553540) | 0x02A7       |     15 |              5 |
| [597](#event-597)          | 0x02B6       |      1 |              1 |
| [65535.41](#event-6553541) | 0x02B7       |     15 |              5 |
| [65535.42](#event-6553542) | 0x02C6       |     15 |              5 |
| [65535.43](#event-6553543) | 0x02D5       |     15 |              5 |
| [65535.44](#event-6553544) | 0x02E4       |     15 |              5 |
| [65535.45](#event-6553545) | 0x02F3       |     34 |              8 |
| [598](#event-598)          | 0x0315       |      1 |              1 |
| [65535.46](#event-6553546) | 0x0316       |     15 |              5 |
| [65535.47](#event-6553547) | 0x0325       |     15 |              5 |
| [65535.48](#event-6553548) | 0x0334       |     22 |              8 |
| [65535.49](#event-6553549) | 0x034A       |     15 |              5 |
| [65535.50](#event-6553550) | 0x0359       |     15 |              5 |
| [65535.51](#event-6553551) | 0x0368       |     17 |              6 |
| [602](#event-602)          | 0x0379       |      7 |              2 |
| [603](#event-603)          | 0x0380       |      7 |              2 |
| [65535.52](#event-6553552) | 0x0387       |     15 |              5 |
| [65535.53](#event-6553553) | 0x0396       |     22 |              8 |
| [604](#event-604)          | 0x03AC       |      7 |              2 |
| [65535.54](#event-6553554) | 0x03B3       |     15 |              5 |
| [65535.55](#event-6553555) | 0x03C2       |     15 |              5 |
| [65535.56](#event-6553556) | 0x03D1       |     15 |              5 |
| [65535.57](#event-6553557) | 0x03E0       |     15 |              5 |
| [65535.58](#event-6553558) | 0x03EF       |     15 |              5 |
| [65535.59](#event-6553559) | 0x03FE       |     15 |              5 |
| [65535.60](#event-6553560) | 0x040D       |      5 |              2 |
| [65535.61](#event-6553561) | 0x0412       |      5 |              2 |
| [609](#event-609)          | 0x0417       |      7 |              2 |

## DAT References (imed_data)

|   Index | Hex Value   |   Dec Value |
|---------|-------------|-------------|
|       0 | 0x0073      |         115 |
|       1 | 0x0074      |         116 |
|       2 | 0x0075      |         117 |
|       3 | 0x0076      |         118 |
|       4 | 0x001E      |          30 |
|       5 | 0x000D      |          13 |
|       6 | 0xFFFF7381  |  4294931329 |
|       7 | 0x153C7     |       86983 |
|       8 | 0xFFFFF15B  |  4294963547 |
|       9 | 0xFFFF6B90  |  4294929296 |
|      10 | 0x158F2     |       88306 |
|      11 | 0x0028      |          40 |
|      12 | 0xFFFF53B9  |  4294923193 |
|      13 | 0x12F17     |       77591 |
|      14 | 0xFFFFF029  |  4294963241 |
|      15 | 0xFFFF6B45  |  4294929221 |
|      16 | 0x10E6C     |       69228 |
|      17 | 0xFFFFF448  |  4294964296 |
|      18 | 0xFFFF75B4  |  4294931892 |
|      19 | 0x142FE     |       82686 |
|      20 | 0xFFFFF14C  |  4294963532 |
|      21 | 0xFFFF78FB  |  4294932731 |
|      22 | 0x143B6     |       82870 |
|      23 | 0xFFFF77C7  |  4294932423 |
|      24 | 0x14109     |       82185 |
|      25 | 0xFFFF7445  |  4294931525 |
|      26 | 0x14153     |       82259 |
|      27 | 0xFFFF6BA2  |  4294929314 |
|      28 | 0x12D9A     |       77210 |
|      29 | 0xFFFFF159  |  4294963545 |
|      30 | 0xFFFF6965  |  4294928741 |
|      31 | 0x11059     |       69721 |
|      32 | 0x0000      |           0 |
|      33 | 0x0001      |           1 |
|      34 | 0xFFFF7A79  |  4294933113 |
|      35 | 0x0EBD      |        3773 |
|      36 | 0xFFFFF449  |  4294964297 |
|      37 | 0xFFFF8EE3  |  4294938339 |
|      38 | 0x0F97      |        3991 |
|      39 | 0xFFFFF92A  |  4294965546 |
|      40 | 0xFFFFA295  |  4294943381 |
|      41 | 0x0372      |         882 |
|      42 | 0xFFFFA291  |  4294943377 |
|      43 | 0xFFFFFDF6  |  4294966774 |
|      44 | 0xFFFFA35C  |  4294943580 |
|      45 | 0xFFFFF27F  |  4294963839 |
|      46 | 0xFFFFBE46  |  4294950470 |
|      47 | 0xFFFFF0CC  |  4294963404 |
|      48 | 0xFFFF6FEE  |  4294930414 |
|      49 | 0x149FF     |       84479 |
|      50 | 0xFFFF6C0D  |  4294929421 |
|      51 | 0x1451A     |       83226 |
|      52 | 0xFFFF6B51  |  4294929233 |
|      53 | 0x15126     |       86310 |
|      54 | 0xFFFFF15A  |  4294963546 |
|      55 | 0xFFFF65D0  |  4294927824 |
|      56 | 0x15049     |       86089 |
|      57 | 0xFFFF66FA  |  4294928122 |
|      58 | 0x14D30     |       85296 |
|      59 | 0xFFFF6558  |  4294927704 |
|      60 | 0x153DC     |       87004 |
|      61 | 0xFFFF6805  |  4294928389 |
|      62 | 0x14F3D     |       85821 |
|      63 | 0xFFFF690C  |  4294928652 |
|      64 | 0x14C8F     |       85135 |
|      65 | 0x0C62      |        3170 |
|      66 | 0x0C61      |        3169 |

## Events

### Event 65535

#### Metadata

| Field        | Value   |
|--------------|---------|
| Entrypoint   | 0x0000  |
| Data Size    | 1 bytes |
| Instructions | 1       |

```
      00 01 02 03 04 05 06 07  08 09 0A 0B 0C 0D 0E 0F
      -- -- -- -- -- -- -- --  -- -- -- -- -- -- -- --
0000: 00                                                .               
```

#### Opcodes

```
  0: 0x0000 [0x00] END_REQSTACK()
```

### Event 65535.1

#### Metadata

| Field        | Value    |
|--------------|----------|
| Entrypoint   | 0x0001   |
| Data Size    | 16 bytes |
| Instructions | 2        |

```
      00 01 02 03 04 05 06 07  08 09 0A 0B 0C 0D 0E 0F
      -- -- -- -- -- -- -- --  -- -- -- -- -- -- -- --
0000:    5B 00 80 F8 FF FF 7F  F8 FF FF 7F 74 6C 6B 30   [..........tlk0
0010: 00                                                .               
```

#### Opcodes

```
  0: 0x0001 [0x5B] LOAD_EXT_SCHEDULER: Load scheduler "tlk0" with entities [EventEntity, EventEntity], work=115*
  1: 0x0010 [0x00] END_REQSTACK()
```

### Event 65535.2

#### Metadata

| Field        | Value    |
|--------------|----------|
| Entrypoint   | 0x0011   |
| Data Size    | 14 bytes |
| Instructions | 2        |

```
      00 01 02 03 04 05 06 07  08 09 0A 0B 0C 0D 0E 0F
      -- -- -- -- -- -- -- --  -- -- -- -- -- -- -- --
0010:    53 F8 FF FF 7F F8 FF  FF 7F 74 6C 6B 30 00      S........tlk0. 
```

#### Opcodes

```
  0: 0x0011 [0x53] WAIT_SCHEDULER_TASK: Wait for scheduler "tlk0" with entities [EventEntity, EventEntity]
  1: 0x001E [0x00] END_REQSTACK()
```

### Event 65535.3

#### Metadata

| Field        | Value    |
|--------------|----------|
| Entrypoint   | 0x001F   |
| Data Size    | 16 bytes |
| Instructions | 2        |

```
      00 01 02 03 04 05 06 07  08 09 0A 0B 0C 0D 0E 0F
      -- -- -- -- -- -- -- --  -- -- -- -- -- -- -- --
0010:                                               5B                 [
0020: 00 80 F8 FF FF 7F F8 FF  FF 7F 74 6C 6B 31 00     ..........tlk1. 
```

#### Opcodes

```
  0: 0x001F [0x5B] LOAD_EXT_SCHEDULER: Load scheduler "tlk1" with entities [EventEntity, EventEntity], work=115*
  1: 0x002E [0x00] END_REQSTACK()
```

### Event 65535.4

#### Metadata

| Field        | Value    |
|--------------|----------|
| Entrypoint   | 0x002F   |
| Data Size    | 14 bytes |
| Instructions | 2        |

```
      00 01 02 03 04 05 06 07  08 09 0A 0B 0C 0D 0E 0F
      -- -- -- -- -- -- -- --  -- -- -- -- -- -- -- --
0020:                                               53                 S
0030: F8 FF FF 7F F8 FF FF 7F  74 6C 6B 31 00           ........tlk1.   
```

#### Opcodes

```
  0: 0x002F [0x53] WAIT_SCHEDULER_TASK: Wait for scheduler "tlk1" with entities [EventEntity, EventEntity]
  1: 0x003C [0x00] END_REQSTACK()
```

### Event 65535.5

#### Metadata

| Field        | Value    |
|--------------|----------|
| Entrypoint   | 0x003D   |
| Data Size    | 16 bytes |
| Instructions | 2        |

```
      00 01 02 03 04 05 06 07  08 09 0A 0B 0C 0D 0E 0F
      -- -- -- -- -- -- -- --  -- -- -- -- -- -- -- --
0030:                                         5B 00 80               [..
0040: F8 FF FF 7F F8 FF FF 7F  6C 61 75 30 00           ........lau0.   
```

#### Opcodes

```
  0: 0x003D [0x5B] LOAD_EXT_SCHEDULER: Load scheduler "lau0" with entities [EventEntity, EventEntity], work=115*
  1: 0x004C [0x00] END_REQSTACK()
```

### Event 65535.6

#### Metadata

| Field        | Value    |
|--------------|----------|
| Entrypoint   | 0x004D   |
| Data Size    | 14 bytes |
| Instructions | 2        |

```
      00 01 02 03 04 05 06 07  08 09 0A 0B 0C 0D 0E 0F
      -- -- -- -- -- -- -- --  -- -- -- -- -- -- -- --
0040:                                         53 F8 FF               S..
0050: FF 7F F8 FF FF 7F 6C 61  75 30 00                 ......lau0.     
```

#### Opcodes

```
  0: 0x004D [0x53] WAIT_SCHEDULER_TASK: Wait for scheduler "lau0" with entities [EventEntity, EventEntity]
  1: 0x005A [0x00] END_REQSTACK()
```

### Event 65535.7

#### Metadata

| Field        | Value    |
|--------------|----------|
| Entrypoint   | 0x005B   |
| Data Size    | 16 bytes |
| Instructions | 2        |

```
      00 01 02 03 04 05 06 07  08 09 0A 0B 0C 0D 0E 0F
      -- -- -- -- -- -- -- --  -- -- -- -- -- -- -- --
0050:                                   5B 00 80 F8 FF             [....
0060: FF 7F F8 FF FF 7F 6C 61  75 31 00                 ......lau1.     
```

#### Opcodes

```
  0: 0x005B [0x5B] LOAD_EXT_SCHEDULER: Load scheduler "lau1" with entities [EventEntity, EventEntity], work=115*
  1: 0x006A [0x00] END_REQSTACK()
```

### Event 65535.8

#### Metadata

| Field        | Value    |
|--------------|----------|
| Entrypoint   | 0x006B   |
| Data Size    | 14 bytes |
| Instructions | 2        |

```
      00 01 02 03 04 05 06 07  08 09 0A 0B 0C 0D 0E 0F
      -- -- -- -- -- -- -- --  -- -- -- -- -- -- -- --
0060:                                   53 F8 FF FF 7F             S....
0070: F8 FF FF 7F 6C 61 75 31  00                       ....lau1.       
```

#### Opcodes

```
  0: 0x006B [0x53] WAIT_SCHEDULER_TASK: Wait for scheduler "lau1" with entities [EventEntity, EventEntity]
  1: 0x0078 [0x00] END_REQSTACK()
```

### Event 65535.9

#### Metadata

| Field        | Value    |
|--------------|----------|
| Entrypoint   | 0x0079   |
| Data Size    | 16 bytes |
| Instructions | 2        |

```
      00 01 02 03 04 05 06 07  08 09 0A 0B 0C 0D 0E 0F
      -- -- -- -- -- -- -- --  -- -- -- -- -- -- -- --
0070:                             5B 00 80 F8 FF FF 7F           [......
0080: F8 FF FF 7F 61 72 61 30  00                       ....ara0.       
```

#### Opcodes

```
  0: 0x0079 [0x5B] LOAD_EXT_SCHEDULER: Load scheduler "ara0" with entities [EventEntity, EventEntity], work=115*
  1: 0x0088 [0x00] END_REQSTACK()
```

### Event 65535.10

#### Metadata

| Field        | Value    |
|--------------|----------|
| Entrypoint   | 0x0089   |
| Data Size    | 14 bytes |
| Instructions | 2        |

```
      00 01 02 03 04 05 06 07  08 09 0A 0B 0C 0D 0E 0F
      -- -- -- -- -- -- -- --  -- -- -- -- -- -- -- --
0080:                             53 F8 FF FF 7F F8 FF           S......
0090: FF 7F 61 72 61 30 00                              ..ara0.         
```

#### Opcodes

```
  0: 0x0089 [0x53] WAIT_SCHEDULER_TASK: Wait for scheduler "ara0" with entities [EventEntity, EventEntity]
  1: 0x0096 [0x00] END_REQSTACK()
```

### Event 65535.11

#### Metadata

| Field        | Value    |
|--------------|----------|
| Entrypoint   | 0x0097   |
| Data Size    | 16 bytes |
| Instructions | 2        |

```
      00 01 02 03 04 05 06 07  08 09 0A 0B 0C 0D 0E 0F
      -- -- -- -- -- -- -- --  -- -- -- -- -- -- -- --
0090:                      5B  00 80 F8 FF FF 7F F8 FF         [........
00A0: FF 7F 61 72 61 31 00                              ..ara1.         
```

#### Opcodes

```
  0: 0x0097 [0x5B] LOAD_EXT_SCHEDULER: Load scheduler "ara1" with entities [EventEntity, EventEntity], work=115*
  1: 0x00A6 [0x00] END_REQSTACK()
```

### Event 65535.12

#### Metadata

| Field        | Value    |
|--------------|----------|
| Entrypoint   | 0x00A7   |
| Data Size    | 14 bytes |
| Instructions | 2        |

```
      00 01 02 03 04 05 06 07  08 09 0A 0B 0C 0D 0E 0F
      -- -- -- -- -- -- -- --  -- -- -- -- -- -- -- --
00A0:                      53  F8 FF FF 7F F8 FF FF 7F         S........
00B0: 61 72 61 31 00                                    ara1.           
```

#### Opcodes

```
  0: 0x00A7 [0x53] WAIT_SCHEDULER_TASK: Wait for scheduler "ara1" with entities [EventEntity, EventEntity]
  1: 0x00B4 [0x00] END_REQSTACK()
```

### Event 65535.13

#### Metadata

| Field        | Value    |
|--------------|----------|
| Entrypoint   | 0x00B5   |
| Data Size    | 16 bytes |
| Instructions | 2        |

```
      00 01 02 03 04 05 06 07  08 09 0A 0B 0C 0D 0E 0F
      -- -- -- -- -- -- -- --  -- -- -- -- -- -- -- --
00B0:                5B 01 80  F8 FF FF 7F F8 FF FF 7F       [..........
00C0: 70 75 69 30 00                                    pui0.           
```

#### Opcodes

```
  0: 0x00B5 [0x5B] LOAD_EXT_SCHEDULER: Load scheduler "pui0" with entities [EventEntity, EventEntity], work=116*
  1: 0x00C4 [0x00] END_REQSTACK()
```

### Event 65535.14

#### Metadata

| Field        | Value    |
|--------------|----------|
| Entrypoint   | 0x00C5   |
| Data Size    | 14 bytes |
| Instructions | 2        |

```
      00 01 02 03 04 05 06 07  08 09 0A 0B 0C 0D 0E 0F
      -- -- -- -- -- -- -- --  -- -- -- -- -- -- -- --
00C0:                53 F8 FF  FF 7F F8 FF FF 7F 70 75       S........pu
00D0: 69 30 00                                          i0.             
```

#### Opcodes

```
  0: 0x00C5 [0x53] WAIT_SCHEDULER_TASK: Wait for scheduler "pui0" with entities [EventEntity, EventEntity]
  1: 0x00D2 [0x00] END_REQSTACK()
```

### Event 65535.15

#### Metadata

| Field        | Value    |
|--------------|----------|
| Entrypoint   | 0x00D3   |
| Data Size    | 16 bytes |
| Instructions | 2        |

```
      00 01 02 03 04 05 06 07  08 09 0A 0B 0C 0D 0E 0F
      -- -- -- -- -- -- -- --  -- -- -- -- -- -- -- --
00D0:          5B 01 80 F8 FF  FF 7F F8 FF FF 7F 70 75     [..........pu
00E0: 69 31 00                                          i1.             
```

#### Opcodes

```
  0: 0x00D3 [0x5B] LOAD_EXT_SCHEDULER: Load scheduler "pui1" with entities [EventEntity, EventEntity], work=116*
  1: 0x00E2 [0x00] END_REQSTACK()
```

### Event 65535.16

#### Metadata

| Field        | Value    |
|--------------|----------|
| Entrypoint   | 0x00E3   |
| Data Size    | 14 bytes |
| Instructions | 2        |

```
      00 01 02 03 04 05 06 07  08 09 0A 0B 0C 0D 0E 0F
      -- -- -- -- -- -- -- --  -- -- -- -- -- -- -- --
00E0:          53 F8 FF FF 7F  F8 FF FF 7F 70 75 69 31     S........pui1
00F0: 00                                                .               
```

#### Opcodes

```
  0: 0x00E3 [0x53] WAIT_SCHEDULER_TASK: Wait for scheduler "pui1" with entities [EventEntity, EventEntity]
  1: 0x00F0 [0x00] END_REQSTACK()
```

### Event 65535.17

#### Metadata

| Field        | Value    |
|--------------|----------|
| Entrypoint   | 0x00F1   |
| Data Size    | 16 bytes |
| Instructions | 2        |

```
      00 01 02 03 04 05 06 07  08 09 0A 0B 0C 0D 0E 0F
      -- -- -- -- -- -- -- --  -- -- -- -- -- -- -- --
00F0:    5B 01 80 F8 FF FF 7F  F8 FF FF 7F 74 68 6B 30   [..........thk0
0100: 00                                                .               
```

#### Opcodes

```
  0: 0x00F1 [0x5B] LOAD_EXT_SCHEDULER: Load scheduler "thk0" with entities [EventEntity, EventEntity], work=116*
  1: 0x0100 [0x00] END_REQSTACK()
```

### Event 65535.18

#### Metadata

| Field        | Value    |
|--------------|----------|
| Entrypoint   | 0x0101   |
| Data Size    | 14 bytes |
| Instructions | 2        |

```
      00 01 02 03 04 05 06 07  08 09 0A 0B 0C 0D 0E 0F
      -- -- -- -- -- -- -- --  -- -- -- -- -- -- -- --
0100:    53 F8 FF FF 7F F8 FF  FF 7F 74 68 6B 30 00      S........thk0. 
```

#### Opcodes

```
  0: 0x0101 [0x53] WAIT_SCHEDULER_TASK: Wait for scheduler "thk0" with entities [EventEntity, EventEntity]
  1: 0x010E [0x00] END_REQSTACK()
```

### Event 65535.19

#### Metadata

| Field        | Value    |
|--------------|----------|
| Entrypoint   | 0x010F   |
| Data Size    | 16 bytes |
| Instructions | 2        |

```
      00 01 02 03 04 05 06 07  08 09 0A 0B 0C 0D 0E 0F
      -- -- -- -- -- -- -- --  -- -- -- -- -- -- -- --
0100:                                               5B                 [
0110: 01 80 F8 FF FF 7F F8 FF  FF 7F 74 68 6B 31 00     ..........thk1. 
```

#### Opcodes

```
  0: 0x010F [0x5B] LOAD_EXT_SCHEDULER: Load scheduler "thk1" with entities [EventEntity, EventEntity], work=116*
  1: 0x011E [0x00] END_REQSTACK()
```

### Event 65535.20

#### Metadata

| Field        | Value    |
|--------------|----------|
| Entrypoint   | 0x011F   |
| Data Size    | 14 bytes |
| Instructions | 2        |

```
      00 01 02 03 04 05 06 07  08 09 0A 0B 0C 0D 0E 0F
      -- -- -- -- -- -- -- --  -- -- -- -- -- -- -- --
0110:                                               53                 S
0120: F8 FF FF 7F F8 FF FF 7F  74 68 6B 31 00           ........thk1.   
```

#### Opcodes

```
  0: 0x011F [0x53] WAIT_SCHEDULER_TASK: Wait for scheduler "thk1" with entities [EventEntity, EventEntity]
  1: 0x012C [0x00] END_REQSTACK()
```

### Event 65535.21

#### Metadata

| Field        | Value    |
|--------------|----------|
| Entrypoint   | 0x012D   |
| Data Size    | 16 bytes |
| Instructions | 2        |

```
      00 01 02 03 04 05 06 07  08 09 0A 0B 0C 0D 0E 0F
      -- -- -- -- -- -- -- --  -- -- -- -- -- -- -- --
0120:                                         5B 01 80               [..
0130: F8 FF FF 7F F8 FF FF 7F  70 61 73 30 00           ........pas0.   
```

#### Opcodes

```
  0: 0x012D [0x5B] LOAD_EXT_SCHEDULER: Load scheduler "pas0" with entities [EventEntity, EventEntity], work=116*
  1: 0x013C [0x00] END_REQSTACK()
```

### Event 65535.22

#### Metadata

| Field        | Value    |
|--------------|----------|
| Entrypoint   | 0x013D   |
| Data Size    | 14 bytes |
| Instructions | 2        |

```
      00 01 02 03 04 05 06 07  08 09 0A 0B 0C 0D 0E 0F
      -- -- -- -- -- -- -- --  -- -- -- -- -- -- -- --
0130:                                         53 F8 FF               S..
0140: FF 7F F8 FF FF 7F 70 61  73 30 00                 ......pas0.     
```

#### Opcodes

```
  0: 0x013D [0x53] WAIT_SCHEDULER_TASK: Wait for scheduler "pas0" with entities [EventEntity, EventEntity]
  1: 0x014A [0x00] END_REQSTACK()
```

### Event 65535.23

#### Metadata

| Field        | Value    |
|--------------|----------|
| Entrypoint   | 0x014B   |
| Data Size    | 16 bytes |
| Instructions | 2        |

```
      00 01 02 03 04 05 06 07  08 09 0A 0B 0C 0D 0E 0F
      -- -- -- -- -- -- -- --  -- -- -- -- -- -- -- --
0140:                                   5B 01 80 F8 FF             [....
0150: FF 7F F8 FF FF 7F 61 63  74 30 00                 ......act0.     
```

#### Opcodes

```
  0: 0x014B [0x5B] LOAD_EXT_SCHEDULER: Load scheduler "act0" with entities [EventEntity, EventEntity], work=116*
  1: 0x015A [0x00] END_REQSTACK()
```

### Event 65535.24

#### Metadata

| Field        | Value    |
|--------------|----------|
| Entrypoint   | 0x015B   |
| Data Size    | 14 bytes |
| Instructions | 2        |

```
      00 01 02 03 04 05 06 07  08 09 0A 0B 0C 0D 0E 0F
      -- -- -- -- -- -- -- --  -- -- -- -- -- -- -- --
0150:                                   53 F8 FF FF 7F             S....
0160: F8 FF FF 7F 61 63 74 30  00                       ....act0.       
```

#### Opcodes

```
  0: 0x015B [0x53] WAIT_SCHEDULER_TASK: Wait for scheduler "act0" with entities [EventEntity, EventEntity]
  1: 0x0168 [0x00] END_REQSTACK()
```

### Event 65535.25

#### Metadata

| Field        | Value    |
|--------------|----------|
| Entrypoint   | 0x0169   |
| Data Size    | 16 bytes |
| Instructions | 2        |

```
      00 01 02 03 04 05 06 07  08 09 0A 0B 0C 0D 0E 0F
      -- -- -- -- -- -- -- --  -- -- -- -- -- -- -- --
0160:                             5B 02 80 F8 FF FF 7F           [......
0170: F8 FF FF 7F 69 6E 30 30  00                       ....in00.       
```

#### Opcodes

```
  0: 0x0169 [0x5B] LOAD_EXT_SCHEDULER: Load scheduler "in00" with entities [EventEntity, EventEntity], work=117*
  1: 0x0178 [0x00] END_REQSTACK()
```

### Event 65535.26

#### Metadata

| Field        | Value    |
|--------------|----------|
| Entrypoint   | 0x0179   |
| Data Size    | 14 bytes |
| Instructions | 2        |

```
      00 01 02 03 04 05 06 07  08 09 0A 0B 0C 0D 0E 0F
      -- -- -- -- -- -- -- --  -- -- -- -- -- -- -- --
0170:                             53 F8 FF FF 7F F8 FF           S......
0180: FF 7F 69 6E 30 30 00                              ..in00.         
```

#### Opcodes

```
  0: 0x0179 [0x53] WAIT_SCHEDULER_TASK: Wait for scheduler "in00" with entities [EventEntity, EventEntity]
  1: 0x0186 [0x00] END_REQSTACK()
```

### Event 65535.27

#### Metadata

| Field        | Value    |
|--------------|----------|
| Entrypoint   | 0x0187   |
| Data Size    | 16 bytes |
| Instructions | 2        |

```
      00 01 02 03 04 05 06 07  08 09 0A 0B 0C 0D 0E 0F
      -- -- -- -- -- -- -- --  -- -- -- -- -- -- -- --
0180:                      5B  02 80 F8 FF FF 7F F8 FF         [........
0190: FF 7F 69 6E 30 31 00                              ..in01.         
```

#### Opcodes

```
  0: 0x0187 [0x5B] LOAD_EXT_SCHEDULER: Load scheduler "in01" with entities [EventEntity, EventEntity], work=117*
  1: 0x0196 [0x00] END_REQSTACK()
```

### Event 65535.28

#### Metadata

| Field        | Value    |
|--------------|----------|
| Entrypoint   | 0x0197   |
| Data Size    | 14 bytes |
| Instructions | 2        |

```
      00 01 02 03 04 05 06 07  08 09 0A 0B 0C 0D 0E 0F
      -- -- -- -- -- -- -- --  -- -- -- -- -- -- -- --
0190:                      53  F8 FF FF 7F F8 FF FF 7F         S........
01A0: 69 6E 30 31 00                                    in01.           
```

#### Opcodes

```
  0: 0x0197 [0x53] WAIT_SCHEDULER_TASK: Wait for scheduler "in01" with entities [EventEntity, EventEntity]
  1: 0x01A4 [0x00] END_REQSTACK()
```

### Event 65535.29

#### Metadata

| Field        | Value    |
|--------------|----------|
| Entrypoint   | 0x01A5   |
| Data Size    | 16 bytes |
| Instructions | 2        |

```
      00 01 02 03 04 05 06 07  08 09 0A 0B 0C 0D 0E 0F
      -- -- -- -- -- -- -- --  -- -- -- -- -- -- -- --
01A0:                5B 03 80  F8 FF FF 7F F8 FF FF 7F       [..........
01B0: 74 6C 62 30 00                                    tlb0.           
```

#### Opcodes

```
  0: 0x01A5 [0x5B] LOAD_EXT_SCHEDULER: Load scheduler "tlb0" with entities [EventEntity, EventEntity], work=118*
  1: 0x01B4 [0x00] END_REQSTACK()
```

### Event 65535.30

#### Metadata

| Field        | Value    |
|--------------|----------|
| Entrypoint   | 0x01B5   |
| Data Size    | 14 bytes |
| Instructions | 2        |

```
      00 01 02 03 04 05 06 07  08 09 0A 0B 0C 0D 0E 0F
      -- -- -- -- -- -- -- --  -- -- -- -- -- -- -- --
01B0:                53 F8 FF  FF 7F F8 FF FF 7F 74 6C       S........tl
01C0: 62 30 00                                          b0.             
```

#### Opcodes

```
  0: 0x01B5 [0x53] WAIT_SCHEDULER_TASK: Wait for scheduler "tlb0" with entities [EventEntity, EventEntity]
  1: 0x01C2 [0x00] END_REQSTACK()
```

### Event 65535.31

#### Metadata

| Field        | Value    |
|--------------|----------|
| Entrypoint   | 0x01C3   |
| Data Size    | 29 bytes |
| Instructions | 3        |

```
      00 01 02 03 04 05 06 07  08 09 0A 0B 0C 0D 0E 0F
      -- -- -- -- -- -- -- --  -- -- -- -- -- -- -- --
01C0:          5B 02 80 F8 FF  FF 7F F8 FF FF 7F 62 74     [..........bt
01D0: 6C 30 53 F8 FF FF 7F F8  FF FF 7F 62 74 6C 30 00  l0S........btl0.
```

#### Opcodes

```
  0: 0x01C3 [0x5B] LOAD_EXT_SCHEDULER: Load scheduler "btl0" with entities [EventEntity, EventEntity], work=117*
  1: 0x01D2 [0x53] WAIT_SCHEDULER_TASK: Wait for scheduler "btl0" with entities [EventEntity, EventEntity]
  2: 0x01DF [0x00] END_REQSTACK()
```

### Event 65535.32

#### Metadata

| Field        | Value    |
|--------------|----------|
| Entrypoint   | 0x01E0   |
| Data Size    | 29 bytes |
| Instructions | 3        |

```
      00 01 02 03 04 05 06 07  08 09 0A 0B 0C 0D 0E 0F
      -- -- -- -- -- -- -- --  -- -- -- -- -- -- -- --
01E0: 5B 02 80 F8 FF FF 7F F8  FF FF 7F 73 6E 6B 30 53  [..........snk0S
01F0: F8 FF FF 7F F8 FF FF 7F  73 6E 6B 30 00           ........snk0.   
```

#### Opcodes

```
  0: 0x01E0 [0x5B] LOAD_EXT_SCHEDULER: Load scheduler "snk0" with entities [EventEntity, EventEntity], work=117*
  1: 0x01EF [0x53] WAIT_SCHEDULER_TASK: Wait for scheduler "snk0" with entities [EventEntity, EventEntity]
  2: 0x01FC [0x00] END_REQSTACK()
```

### Event 65535.33

#### Metadata

| Field        | Value    |
|--------------|----------|
| Entrypoint   | 0x01FD   |
| Data Size    | 29 bytes |
| Instructions | 3        |

```
      00 01 02 03 04 05 06 07  08 09 0A 0B 0C 0D 0E 0F
      -- -- -- -- -- -- -- --  -- -- -- -- -- -- -- --
01F0:                                         5B 03 80               [..
0200: F8 FF FF 7F F8 FF FF 7F  6B 6B 67 30 53 F8 FF FF  ........kkg0S...
0210: 7F F8 FF FF 7F 6B 6B 67  30 00                    .....kkg0.      
```

#### Opcodes

```
  0: 0x01FD [0x5B] LOAD_EXT_SCHEDULER: Load scheduler "kkg0" with entities [EventEntity, EventEntity], work=118*
  1: 0x020C [0x53] WAIT_SCHEDULER_TASK: Wait for scheduler "kkg0" with entities [EventEntity, EventEntity]
  2: 0x0219 [0x00] END_REQSTACK()
```

### Event 65535.34

#### Metadata

| Field        | Value    |
|--------------|----------|
| Entrypoint   | 0x021A   |
| Data Size    | 29 bytes |
| Instructions | 3        |

```
      00 01 02 03 04 05 06 07  08 09 0A 0B 0C 0D 0E 0F
      -- -- -- -- -- -- -- --  -- -- -- -- -- -- -- --
0210:                                5B 03 80 F8 FF FF            [.....
0220: 7F F8 FF FF 7F 6B 6B 67  31 53 F8 FF FF 7F F8 FF  .....kkg1S......
0230: FF 7F 6B 6B 67 31 00                              ..kkg1.         
```

#### Opcodes

```
  0: 0x021A [0x5B] LOAD_EXT_SCHEDULER: Load scheduler "kkg1" with entities [EventEntity, EventEntity], work=118*
  1: 0x0229 [0x53] WAIT_SCHEDULER_TASK: Wait for scheduler "kkg1" with entities [EventEntity, EventEntity]
  2: 0x0236 [0x00] END_REQSTACK()
```

### Event 65535.35

#### Metadata

| Field        | Value    |
|--------------|----------|
| Entrypoint   | 0x0237   |
| Data Size    | 29 bytes |
| Instructions | 3        |

```
      00 01 02 03 04 05 06 07  08 09 0A 0B 0C 0D 0E 0F
      -- -- -- -- -- -- -- --  -- -- -- -- -- -- -- --
0230:                      5B  03 80 F8 FF FF 7F F8 FF         [........
0240: FF 7F 6B 6B 67 32 53 F8  FF FF 7F F8 FF FF 7F 6B  ..kkg2S........k
0250: 6B 67 32 00                                       kg2.            
```

#### Opcodes

```
  0: 0x0237 [0x5B] LOAD_EXT_SCHEDULER: Load scheduler "kkg2" with entities [EventEntity, EventEntity], work=118*
  1: 0x0246 [0x53] WAIT_SCHEDULER_TASK: Wait for scheduler "kkg2" with entities [EventEntity, EventEntity]
  2: 0x0253 [0x00] END_REQSTACK()
```

### Event 65535.36

#### Metadata

| Field        | Value   |
|--------------|---------|
| Entrypoint   | 0x0254  |
| Data Size    | 9 bytes |
| Instructions | 3       |

```
      00 01 02 03 04 05 06 07  08 09 0A 0B 0C 0D 0E 0F
      -- -- -- -- -- -- -- --  -- -- -- -- -- -- -- --
0250:             5E 69 64 6C  30 1C 04 80 00               ^idl0....   
```

#### Opcodes

```
  0: 0x0254 [0x5E] EventEntity goes idle (kills current action) (animation: "idl0")
  1: 0x0259 [0x1C] WAIT(30* ticks)
  2: 0x025C [0x00] END_REQSTACK()
```

### Event 592

#### Metadata

| Field        | Value   |
|--------------|---------|
| Entrypoint   | 0x025D  |
| Data Size    | 1 bytes |
| Instructions | 1       |

```
      00 01 02 03 04 05 06 07  08 09 0A 0B 0C 0D 0E 0F
      -- -- -- -- -- -- -- --  -- -- -- -- -- -- -- --
0250:                                         00                     .  
```

#### Opcodes

```
  0: 0x025D [0x00] END_REQSTACK()
```

### Event 65535.37

#### Metadata

| Field        | Value    |
|--------------|----------|
| Entrypoint   | 0x025E   |
| Data Size    | 15 bytes |
| Instructions | 5        |

```
      00 01 02 03 04 05 06 07  08 09 0A 0B 0C 0D 0E 0F
      -- -- -- -- -- -- -- --  -- -- -- -- -- -- -- --
0250:                                            32 05                2.
0260: 80 1F 00 06 80 07 80 08  80 1F 01 6F 00           ...........o.   
```

#### Opcodes

```
  0: 0x025E [0x32] ExtData[1]->MainSpeed = 13* * 0.1
  1: 0x0261 [0x1F] MOVE_ENTITY: EventEntity moves to X=-35.967*, Z=86.983*, Y=-3.749*
  2: 0x0269 [0x1F] MOVE_ENTITY: Update entity position (mode=1)
  3: 0x026B [0x6F] WAIT_FRAME_DELAY: Yield until WaitTime reaches zero
  4: 0x026C [0x00] END_REQSTACK()
```

### Event 65535.38

#### Metadata

| Field        | Value    |
|--------------|----------|
| Entrypoint   | 0x026D   |
| Data Size    | 15 bytes |
| Instructions | 5        |

```
      00 01 02 03 04 05 06 07  08 09 0A 0B 0C 0D 0E 0F
      -- -- -- -- -- -- -- --  -- -- -- -- -- -- -- --
0260:                                         32 05 80               2..
0270: 1F 00 09 80 0A 80 08 80  1F 01 6F 00              ..........o.    
```

#### Opcodes

```
  0: 0x026D [0x32] ExtData[1]->MainSpeed = 13* * 0.1
  1: 0x0270 [0x1F] MOVE_ENTITY: EventEntity moves to X=-38.000*, Z=88.306*, Y=-3.749*
  2: 0x0278 [0x1F] MOVE_ENTITY: Update entity position (mode=1)
  3: 0x027A [0x6F] WAIT_FRAME_DELAY: Yield until WaitTime reaches zero
  4: 0x027B [0x00] END_REQSTACK()
```

### Event 65535.39

#### Metadata

| Field        | Value    |
|--------------|----------|
| Entrypoint   | 0x027C   |
| Data Size    | 43 bytes |
| Instructions | 7        |

```
      00 01 02 03 04 05 06 07  08 09 0A 0B 0C 0D 0E 0F
      -- -- -- -- -- -- -- --  -- -- -- -- -- -- -- --
0270:                                      32 0B 80 1F              2...
0280: 00 0C 80 0D 80 0E 80 1F  01 6F 5B 03 80 F8 FF FF  .........o[.....
0290: 7F F8 FF FF 7F 6B 6B 67  30 53 F8 FF FF 7F F8 FF  .....kkg0S......
02A0: FF 7F 6B 6B 67 30 00                              ..kkg0.         
```

#### Opcodes

```
  0: 0x027C [0x32] ExtData[1]->MainSpeed = 40* * 0.1
  1: 0x027F [0x1F] MOVE_ENTITY: EventEntity moves to X=-44.103*, Z=77.591*, Y=-4.055*
  2: 0x0287 [0x1F] MOVE_ENTITY: Update entity position (mode=1)
  3: 0x0289 [0x6F] WAIT_FRAME_DELAY: Yield until WaitTime reaches zero
  4: 0x028A [0x5B] LOAD_EXT_SCHEDULER: Load scheduler "kkg0" with entities [EventEntity, EventEntity], work=118*
  5: 0x0299 [0x53] WAIT_SCHEDULER_TASK: Wait for scheduler "kkg0" with entities [EventEntity, EventEntity]
  6: 0x02A6 [0x00] END_REQSTACK()
```

### Event 65535.40

#### Metadata

| Field        | Value    |
|--------------|----------|
| Entrypoint   | 0x02A7   |
| Data Size    | 15 bytes |
| Instructions | 5        |

```
      00 01 02 03 04 05 06 07  08 09 0A 0B 0C 0D 0E 0F
      -- -- -- -- -- -- -- --  -- -- -- -- -- -- -- --
02A0:                      32  0B 80 1F 00 0F 80 10 80         2........
02B0: 11 80 1F 01 6F 00                                 ....o.          
```

#### Opcodes

```
  0: 0x02A7 [0x32] ExtData[1]->MainSpeed = 40* * 0.1
  1: 0x02AA [0x1F] MOVE_ENTITY: EventEntity moves to X=-38.075*, Z=69.228*, Y=-3.000*
  2: 0x02B2 [0x1F] MOVE_ENTITY: Update entity position (mode=1)
  3: 0x02B4 [0x6F] WAIT_FRAME_DELAY: Yield until WaitTime reaches zero
  4: 0x02B5 [0x00] END_REQSTACK()
```

### Event 597

#### Metadata

| Field        | Value   |
|--------------|---------|
| Entrypoint   | 0x02B6  |
| Data Size    | 1 bytes |
| Instructions | 1       |

```
      00 01 02 03 04 05 06 07  08 09 0A 0B 0C 0D 0E 0F
      -- -- -- -- -- -- -- --  -- -- -- -- -- -- -- --
02B0:                   00                                    .         
```

#### Opcodes

```
  0: 0x02B6 [0x00] END_REQSTACK()
```

### Event 65535.41

#### Metadata

| Field        | Value    |
|--------------|----------|
| Entrypoint   | 0x02B7   |
| Data Size    | 15 bytes |
| Instructions | 5        |

```
      00 01 02 03 04 05 06 07  08 09 0A 0B 0C 0D 0E 0F
      -- -- -- -- -- -- -- --  -- -- -- -- -- -- -- --
02B0:                      32  05 80 1F 00 12 80 13 80         2........
02C0: 14 80 1F 01 6F 00                                 ....o.          
```

#### Opcodes

```
  0: 0x02B7 [0x32] ExtData[1]->MainSpeed = 13* * 0.1
  1: 0x02BA [0x1F] MOVE_ENTITY: EventEntity moves to X=-35.404*, Z=82.686*, Y=-3.764*
  2: 0x02C2 [0x1F] MOVE_ENTITY: Update entity position (mode=1)
  3: 0x02C4 [0x6F] WAIT_FRAME_DELAY: Yield until WaitTime reaches zero
  4: 0x02C5 [0x00] END_REQSTACK()
```

### Event 65535.42

#### Metadata

| Field        | Value    |
|--------------|----------|
| Entrypoint   | 0x02C6   |
| Data Size    | 15 bytes |
| Instructions | 5        |

```
      00 01 02 03 04 05 06 07  08 09 0A 0B 0C 0D 0E 0F
      -- -- -- -- -- -- -- --  -- -- -- -- -- -- -- --
02C0:                   32 05  80 1F 00 15 80 16 80 14        2.........
02D0: 80 1F 01 6F 00                                    ...o.           
```

#### Opcodes

```
  0: 0x02C6 [0x32] ExtData[1]->MainSpeed = 13* * 0.1
  1: 0x02C9 [0x1F] MOVE_ENTITY: EventEntity moves to X=-34.565*, Z=82.870*, Y=-3.764*
  2: 0x02D1 [0x1F] MOVE_ENTITY: Update entity position (mode=1)
  3: 0x02D3 [0x6F] WAIT_FRAME_DELAY: Yield until WaitTime reaches zero
  4: 0x02D4 [0x00] END_REQSTACK()
```

### Event 65535.43

#### Metadata

| Field        | Value    |
|--------------|----------|
| Entrypoint   | 0x02D5   |
| Data Size    | 15 bytes |
| Instructions | 5        |

```
      00 01 02 03 04 05 06 07  08 09 0A 0B 0C 0D 0E 0F
      -- -- -- -- -- -- -- --  -- -- -- -- -- -- -- --
02D0:                32 05 80  1F 00 17 80 18 80 14 80       2..........
02E0: 1F 01 6F 00                                       ..o.            
```

#### Opcodes

```
  0: 0x02D5 [0x32] ExtData[1]->MainSpeed = 13* * 0.1
  1: 0x02D8 [0x1F] MOVE_ENTITY: EventEntity moves to X=-34.873*, Z=82.185*, Y=-3.764*
  2: 0x02E0 [0x1F] MOVE_ENTITY: Update entity position (mode=1)
  3: 0x02E2 [0x6F] WAIT_FRAME_DELAY: Yield until WaitTime reaches zero
  4: 0x02E3 [0x00] END_REQSTACK()
```

### Event 65535.44

#### Metadata

| Field        | Value    |
|--------------|----------|
| Entrypoint   | 0x02E4   |
| Data Size    | 15 bytes |
| Instructions | 5        |

```
      00 01 02 03 04 05 06 07  08 09 0A 0B 0C 0D 0E 0F
      -- -- -- -- -- -- -- --  -- -- -- -- -- -- -- --
02E0:             32 05 80 1F  00 19 80 1A 80 08 80 1F      2...........
02F0: 01 6F 00                                          .o.             
```

#### Opcodes

```
  0: 0x02E4 [0x32] ExtData[1]->MainSpeed = 13* * 0.1
  1: 0x02E7 [0x1F] MOVE_ENTITY: EventEntity moves to X=-35.771*, Z=82.259*, Y=-3.749*
  2: 0x02EF [0x1F] MOVE_ENTITY: Update entity position (mode=1)
  3: 0x02F1 [0x6F] WAIT_FRAME_DELAY: Yield until WaitTime reaches zero
  4: 0x02F2 [0x00] END_REQSTACK()
```

### Event 65535.45

#### Metadata

| Field        | Value    |
|--------------|----------|
| Entrypoint   | 0x02F3   |
| Data Size    | 34 bytes |
| Instructions | 8        |

```
      00 01 02 03 04 05 06 07  08 09 0A 0B 0C 0D 0E 0F
      -- -- -- -- -- -- -- --  -- -- -- -- -- -- -- --
02F0:          32 0B 80 1F 00  1B 80 1C 80 1D 80 1F 01     2............
0300: 1F 00 1E 80 1F 80 11 80  1F 01 6F 6C F8 FF FF 7F  ..........ol....
0310: 20 80 21 80 00                                     .!..           
```

#### Opcodes

```
  0: 0x02F3 [0x32] ExtData[1]->MainSpeed = 40* * 0.1
  1: 0x02F6 [0x1F] MOVE_ENTITY: EventEntity moves to X=-37.982*, Z=77.210*, Y=-3.751*
  2: 0x02FE [0x1F] MOVE_ENTITY: Update entity position (mode=1)
  3: 0x0300 [0x1F] MOVE_ENTITY: EventEntity moves to X=-38.555*, Z=69.721*, Y=-3.000*
  4: 0x0308 [0x1F] MOVE_ENTITY: Update entity position (mode=1)
  5: 0x030A [0x6F] WAIT_FRAME_DELAY: Yield until WaitTime reaches zero
  6: 0x030B [0x6C] FADE_ENTITY_COLOR(entity_id=EventEntity, end_alpha=0*, fade_time=1*)
  7: 0x0314 [0x00] END_REQSTACK()
```

### Event 598

#### Metadata

| Field        | Value   |
|--------------|---------|
| Entrypoint   | 0x0315  |
| Data Size    | 1 bytes |
| Instructions | 1       |

```
      00 01 02 03 04 05 06 07  08 09 0A 0B 0C 0D 0E 0F
      -- -- -- -- -- -- -- --  -- -- -- -- -- -- -- --
0310:                00                                      .          
```

#### Opcodes

```
  0: 0x0315 [0x00] END_REQSTACK()
```

### Event 65535.46

#### Metadata

| Field        | Value    |
|--------------|----------|
| Entrypoint   | 0x0316   |
| Data Size    | 15 bytes |
| Instructions | 5        |

```
      00 01 02 03 04 05 06 07  08 09 0A 0B 0C 0D 0E 0F
      -- -- -- -- -- -- -- --  -- -- -- -- -- -- -- --
0310:                   32 05  80 1F 00 22 80 23 80 24        2....".#.$
0320: 80 1F 01 6F 00                                    ...o.           
```

#### Opcodes

```
  0: 0x0316 [0x32] ExtData[1]->MainSpeed = 13* * 0.1
  1: 0x0319 [0x1F] MOVE_ENTITY: EventEntity moves to X=-34.183*, Z=3.773*, Y=-2.999*
  2: 0x0321 [0x1F] MOVE_ENTITY: Update entity position (mode=1)
  3: 0x0323 [0x6F] WAIT_FRAME_DELAY: Yield until WaitTime reaches zero
  4: 0x0324 [0x00] END_REQSTACK()
```

### Event 65535.47

#### Metadata

| Field        | Value    |
|--------------|----------|
| Entrypoint   | 0x0325   |
| Data Size    | 15 bytes |
| Instructions | 5        |

```
      00 01 02 03 04 05 06 07  08 09 0A 0B 0C 0D 0E 0F
      -- -- -- -- -- -- -- --  -- -- -- -- -- -- -- --
0320:                32 05 80  1F 00 25 80 26 80 27 80       2....%.&.'.
0330: 1F 01 6F 00                                       ..o.            
```

#### Opcodes

```
  0: 0x0325 [0x32] ExtData[1]->MainSpeed = 13* * 0.1
  1: 0x0328 [0x1F] MOVE_ENTITY: EventEntity moves to X=-28.957*, Z=3.991*, Y=-1.750*
  2: 0x0330 [0x1F] MOVE_ENTITY: Update entity position (mode=1)
  3: 0x0332 [0x6F] WAIT_FRAME_DELAY: Yield until WaitTime reaches zero
  4: 0x0333 [0x00] END_REQSTACK()
```

### Event 65535.48

#### Metadata

| Field        | Value    |
|--------------|----------|
| Entrypoint   | 0x0334   |
| Data Size    | 22 bytes |
| Instructions | 8        |

```
      00 01 02 03 04 05 06 07  08 09 0A 0B 0C 0D 0E 0F
      -- -- -- -- -- -- -- --  -- -- -- -- -- -- -- --
0330:             32 05 80 1F  00 28 80 29 80 20 80 1F      2....(.). ..
0340: 01 6F 1E 08 90 0E 01 6F  70 00                    .o.....op.      
```

#### Opcodes

```
  0: 0x0334 [0x32] ExtData[1]->MainSpeed = 13* * 0.1
  1: 0x0337 [0x1F] MOVE_ENTITY: EventEntity moves to X=-23.915*, Z=0.882*, Y=0.000*
  2: 0x033F [0x1F] MOVE_ENTITY: Update entity position (mode=1)
  3: 0x0341 [0x6F] WAIT_FRAME_DELAY: Yield until WaitTime reaches zero
  4: 0x0342 [0x1E] EventEntity looks at Rahal (ID: 17731592/0x010E9008) and starts talking
  5: 0x0347 [0x6F] WAIT_FRAME_DELAY: Yield until WaitTime reaches zero
  6: 0x0348 [0x70] WAIT_ENTITY_RENDER_FLAG: Wait while EventEntity->Render.Flags3 bit 2 is set (cancel turn if not)
  7: 0x0349 [0x00] END_REQSTACK()
```

### Event 65535.49

#### Metadata

| Field        | Value    |
|--------------|----------|
| Entrypoint   | 0x034A   |
| Data Size    | 15 bytes |
| Instructions | 5        |

```
      00 01 02 03 04 05 06 07  08 09 0A 0B 0C 0D 0E 0F
      -- -- -- -- -- -- -- --  -- -- -- -- -- -- -- --
0340:                                32 05 80 1F 00 2A            2....*
0350: 80 2B 80 20 80 1F 01 6F  00                       .+. ...o.       
```

#### Opcodes

```
  0: 0x034A [0x32] ExtData[1]->MainSpeed = 13* * 0.1
  1: 0x034D [0x1F] MOVE_ENTITY: EventEntity moves to X=-23.919*, Z=-0.522*, Y=0.000*
  2: 0x0355 [0x1F] MOVE_ENTITY: Update entity position (mode=1)
  3: 0x0357 [0x6F] WAIT_FRAME_DELAY: Yield until WaitTime reaches zero
  4: 0x0358 [0x00] END_REQSTACK()
```

### Event 65535.50

#### Metadata

| Field        | Value    |
|--------------|----------|
| Entrypoint   | 0x0359   |
| Data Size    | 15 bytes |
| Instructions | 5        |

```
      00 01 02 03 04 05 06 07  08 09 0A 0B 0C 0D 0E 0F
      -- -- -- -- -- -- -- --  -- -- -- -- -- -- -- --
0350:                             32 05 80 1F 00 2C 80           2....,.
0360: 2D 80 20 80 1F 01 6F 00                           -. ...o.        
```

#### Opcodes

```
  0: 0x0359 [0x32] ExtData[1]->MainSpeed = 13* * 0.1
  1: 0x035C [0x1F] MOVE_ENTITY: EventEntity moves to X=-23.716*, Z=-3.457*, Y=0.000*
  2: 0x0364 [0x1F] MOVE_ENTITY: Update entity position (mode=1)
  3: 0x0366 [0x6F] WAIT_FRAME_DELAY: Yield until WaitTime reaches zero
  4: 0x0367 [0x00] END_REQSTACK()
```

### Event 65535.51

#### Metadata

| Field        | Value    |
|--------------|----------|
| Entrypoint   | 0x0368   |
| Data Size    | 17 bytes |
| Instructions | 6        |

```
      00 01 02 03 04 05 06 07  08 09 0A 0B 0C 0D 0E 0F
      -- -- -- -- -- -- -- --  -- -- -- -- -- -- -- --
0360:                          32 05 80 1F 00 2E 80 2F          2....../
0370: 80 20 80 1F 01 6F 22 01  00                       . ...o"..       
```

#### Opcodes

```
  0: 0x0368 [0x32] ExtData[1]->MainSpeed = 13* * 0.1
  1: 0x036B [0x1F] MOVE_ENTITY: EventEntity moves to X=-16.826*, Z=-3.892*, Y=0.000*
  2: 0x0373 [0x1F] MOVE_ENTITY: Update entity position (mode=1)
  3: 0x0375 [0x6F] WAIT_FRAME_DELAY: Yield until WaitTime reaches zero
  4: 0x0376 [0x22] ENTITY_HIDE_FLAG(enabled=0x01)
  5: 0x0378 [0x00] END_REQSTACK()
```

### Event 602

#### Metadata

| Field        | Value   |
|--------------|---------|
| Entrypoint   | 0x0379  |
| Data Size    | 7 bytes |
| Instructions | 2       |

```
      00 01 02 03 04 05 06 07  08 09 0A 0B 0C 0D 0E 0F
      -- -- -- -- -- -- -- --  -- -- -- -- -- -- -- --
0370:                             92 01 F8 FF FF 7F 00           .......
```

#### Opcodes

```
  0: 0x0379 [0x92] EventEntity->Render.Flags3 ^= 0x01
  1: 0x037F [0x00] END_REQSTACK()
```

### Event 603

#### Metadata

| Field        | Value   |
|--------------|---------|
| Entrypoint   | 0x0380  |
| Data Size    | 7 bytes |
| Instructions | 2       |

```
      00 01 02 03 04 05 06 07  08 09 0A 0B 0C 0D 0E 0F
      -- -- -- -- -- -- -- --  -- -- -- -- -- -- -- --
0380: 92 01 F8 FF FF 7F 00                              .......         
```

#### Opcodes

```
  0: 0x0380 [0x92] EventEntity->Render.Flags3 ^= 0x01
  1: 0x0386 [0x00] END_REQSTACK()
```

### Event 65535.52

#### Metadata

| Field        | Value    |
|--------------|----------|
| Entrypoint   | 0x0387   |
| Data Size    | 15 bytes |
| Instructions | 5        |

```
      00 01 02 03 04 05 06 07  08 09 0A 0B 0C 0D 0E 0F
      -- -- -- -- -- -- -- --  -- -- -- -- -- -- -- --
0380:                      32  05 80 1F 00 30 80 31 80         2....0.1.
0390: 08 80 1F 01 6F 00                                 ....o.          
```

#### Opcodes

```
  0: 0x0387 [0x32] ExtData[1]->MainSpeed = 13* * 0.1
  1: 0x038A [0x1F] MOVE_ENTITY: EventEntity moves to X=-36.882*, Z=84.479*, Y=-3.749*
  2: 0x0392 [0x1F] MOVE_ENTITY: Update entity position (mode=1)
  3: 0x0394 [0x6F] WAIT_FRAME_DELAY: Yield until WaitTime reaches zero
  4: 0x0395 [0x00] END_REQSTACK()
```

### Event 65535.53

#### Metadata

| Field        | Value    |
|--------------|----------|
| Entrypoint   | 0x0396   |
| Data Size    | 22 bytes |
| Instructions | 8        |

```
      00 01 02 03 04 05 06 07  08 09 0A 0B 0C 0D 0E 0F
      -- -- -- -- -- -- -- --  -- -- -- -- -- -- -- --
0390:                   32 05  80 1F 00 32 80 33 80 08        2....2.3..
03A0: 80 1F 01 6F 1E F0 FF FF  7F 6F 70 00              ...o.....op.    
```

#### Opcodes

```
  0: 0x0396 [0x32] ExtData[1]->MainSpeed = 13* * 0.1
  1: 0x0399 [0x1F] MOVE_ENTITY: EventEntity moves to X=-37.875*, Z=83.226*, Y=-3.749*
  2: 0x03A1 [0x1F] MOVE_ENTITY: Update entity position (mode=1)
  3: 0x03A3 [0x6F] WAIT_FRAME_DELAY: Yield until WaitTime reaches zero
  4: 0x03A4 [0x1E] EventEntity looks at LocalPlayer and starts talking
  5: 0x03A9 [0x6F] WAIT_FRAME_DELAY: Yield until WaitTime reaches zero
  6: 0x03AA [0x70] WAIT_ENTITY_RENDER_FLAG: Wait while EventEntity->Render.Flags3 bit 2 is set (cancel turn if not)
  7: 0x03AB [0x00] END_REQSTACK()
```

### Event 604

#### Metadata

| Field        | Value   |
|--------------|---------|
| Entrypoint   | 0x03AC  |
| Data Size    | 7 bytes |
| Instructions | 2       |

```
      00 01 02 03 04 05 06 07  08 09 0A 0B 0C 0D 0E 0F
      -- -- -- -- -- -- -- --  -- -- -- -- -- -- -- --
03A0:                                      92 01 F8 FF              ....
03B0: FF 7F 00                                          ...             
```

#### Opcodes

```
  0: 0x03AC [0x92] EventEntity->Render.Flags3 ^= 0x01
  1: 0x03B2 [0x00] END_REQSTACK()
```

### Event 65535.54

#### Metadata

| Field        | Value    |
|--------------|----------|
| Entrypoint   | 0x03B3   |
| Data Size    | 15 bytes |
| Instructions | 5        |

```
      00 01 02 03 04 05 06 07  08 09 0A 0B 0C 0D 0E 0F
      -- -- -- -- -- -- -- --  -- -- -- -- -- -- -- --
03B0:          32 05 80 1F 00  34 80 35 80 36 80 1F 01     2....4.5.6...
03C0: 6F 00                                             o.              
```

#### Opcodes

```
  0: 0x03B3 [0x32] ExtData[1]->MainSpeed = 13* * 0.1
  1: 0x03B6 [0x1F] MOVE_ENTITY: EventEntity moves to X=-38.063*, Z=86.310*, Y=-3.750*
  2: 0x03BE [0x1F] MOVE_ENTITY: Update entity position (mode=1)
  3: 0x03C0 [0x6F] WAIT_FRAME_DELAY: Yield until WaitTime reaches zero
  4: 0x03C1 [0x00] END_REQSTACK()
```

### Event 65535.55

#### Metadata

| Field        | Value    |
|--------------|----------|
| Entrypoint   | 0x03C2   |
| Data Size    | 15 bytes |
| Instructions | 5        |

```
      00 01 02 03 04 05 06 07  08 09 0A 0B 0C 0D 0E 0F
      -- -- -- -- -- -- -- --  -- -- -- -- -- -- -- --
03C0:       32 05 80 1F 00 37  80 38 80 36 80 1F 01 6F    2....7.8.6...o
03D0: 00                                                .               
```

#### Opcodes

```
  0: 0x03C2 [0x32] ExtData[1]->MainSpeed = 13* * 0.1
  1: 0x03C5 [0x1F] MOVE_ENTITY: EventEntity moves to X=-39.472*, Z=86.089*, Y=-3.750*
  2: 0x03CD [0x1F] MOVE_ENTITY: Update entity position (mode=1)
  3: 0x03CF [0x6F] WAIT_FRAME_DELAY: Yield until WaitTime reaches zero
  4: 0x03D0 [0x00] END_REQSTACK()
```

### Event 65535.56

#### Metadata

| Field        | Value    |
|--------------|----------|
| Entrypoint   | 0x03D1   |
| Data Size    | 15 bytes |
| Instructions | 5        |

```
      00 01 02 03 04 05 06 07  08 09 0A 0B 0C 0D 0E 0F
      -- -- -- -- -- -- -- --  -- -- -- -- -- -- -- --
03D0:    32 05 80 1F 00 39 80  3A 80 36 80 1F 01 6F 00   2....9.:.6...o.
```

#### Opcodes

```
  0: 0x03D1 [0x32] ExtData[1]->MainSpeed = 13* * 0.1
  1: 0x03D4 [0x1F] MOVE_ENTITY: EventEntity moves to X=-39.174*, Z=85.296*, Y=-3.750*
  2: 0x03DC [0x1F] MOVE_ENTITY: Update entity position (mode=1)
  3: 0x03DE [0x6F] WAIT_FRAME_DELAY: Yield until WaitTime reaches zero
  4: 0x03DF [0x00] END_REQSTACK()
```

### Event 65535.57

#### Metadata

| Field        | Value    |
|--------------|----------|
| Entrypoint   | 0x03E0   |
| Data Size    | 15 bytes |
| Instructions | 5        |

```
      00 01 02 03 04 05 06 07  08 09 0A 0B 0C 0D 0E 0F
      -- -- -- -- -- -- -- --  -- -- -- -- -- -- -- --
03E0: 32 05 80 1F 00 3B 80 3C  80 36 80 1F 01 6F 00     2....;.<.6...o. 
```

#### Opcodes

```
  0: 0x03E0 [0x32] ExtData[1]->MainSpeed = 13* * 0.1
  1: 0x03E3 [0x1F] MOVE_ENTITY: EventEntity moves to X=-39.592*, Z=87.004*, Y=-3.750*
  2: 0x03EB [0x1F] MOVE_ENTITY: Update entity position (mode=1)
  3: 0x03ED [0x6F] WAIT_FRAME_DELAY: Yield until WaitTime reaches zero
  4: 0x03EE [0x00] END_REQSTACK()
```

### Event 65535.58

#### Metadata

| Field        | Value    |
|--------------|----------|
| Entrypoint   | 0x03EF   |
| Data Size    | 15 bytes |
| Instructions | 5        |

```
      00 01 02 03 04 05 06 07  08 09 0A 0B 0C 0D 0E 0F
      -- -- -- -- -- -- -- --  -- -- -- -- -- -- -- --
03E0:                                               32                 2
03F0: 05 80 1F 00 3D 80 3E 80  36 80 1F 01 6F 00        ....=.>.6...o.  
```

#### Opcodes

```
  0: 0x03EF [0x32] ExtData[1]->MainSpeed = 13* * 0.1
  1: 0x03F2 [0x1F] MOVE_ENTITY: EventEntity moves to X=-38.907*, Z=85.821*, Y=-3.750*
  2: 0x03FA [0x1F] MOVE_ENTITY: Update entity position (mode=1)
  3: 0x03FC [0x6F] WAIT_FRAME_DELAY: Yield until WaitTime reaches zero
  4: 0x03FD [0x00] END_REQSTACK()
```

### Event 65535.59

#### Metadata

| Field        | Value    |
|--------------|----------|
| Entrypoint   | 0x03FE   |
| Data Size    | 15 bytes |
| Instructions | 5        |

```
      00 01 02 03 04 05 06 07  08 09 0A 0B 0C 0D 0E 0F
      -- -- -- -- -- -- -- --  -- -- -- -- -- -- -- --
03F0:                                            32 05                2.
0400: 80 1F 00 3F 80 40 80 36  80 1F 01 6F 00           ...?.@.6...o.   
```

#### Opcodes

```
  0: 0x03FE [0x32] ExtData[1]->MainSpeed = 13* * 0.1
  1: 0x0401 [0x1F] MOVE_ENTITY: EventEntity moves to X=-38.644*, Z=85.135*, Y=-3.750*
  2: 0x0409 [0x1F] MOVE_ENTITY: Update entity position (mode=1)
  3: 0x040B [0x6F] WAIT_FRAME_DELAY: Yield until WaitTime reaches zero
  4: 0x040C [0x00] END_REQSTACK()
```

### Event 65535.60

#### Metadata

| Field        | Value   |
|--------------|---------|
| Entrypoint   | 0x040D  |
| Data Size    | 5 bytes |
| Instructions | 2       |

```
      00 01 02 03 04 05 06 07  08 09 0A 0B 0C 0D 0E 0F
      -- -- -- -- -- -- -- --  -- -- -- -- -- -- -- --
0400:                                         B6 00 41               ..A
0410: 80 00                                             ..              
```

#### Opcodes

```
  0: 0x040D [0xB6] ENTITY_APPEARANCE_HANDLER(case=Hair style, value=3170*)
  1: 0x0411 [0x00] END_REQSTACK()
```

### Event 65535.61

#### Metadata

| Field        | Value   |
|--------------|---------|
| Entrypoint   | 0x0412  |
| Data Size    | 5 bytes |
| Instructions | 2       |

```
      00 01 02 03 04 05 06 07  08 09 0A 0B 0C 0D 0E 0F
      -- -- -- -- -- -- -- --  -- -- -- -- -- -- -- --
0410:       B6 00 42 80 00                                ..B..         
```

#### Opcodes

```
  0: 0x0412 [0xB6] ENTITY_APPEARANCE_HANDLER(case=Hair style, value=3169*)
  1: 0x0416 [0x00] END_REQSTACK()
```

### Event 609

#### Metadata

| Field        | Value   |
|--------------|---------|
| Entrypoint   | 0x0417  |
| Data Size    | 7 bytes |
| Instructions | 2       |

```
      00 01 02 03 04 05 06 07  08 09 0A 0B 0C 0D 0E 0F
      -- -- -- -- -- -- -- --  -- -- -- -- -- -- -- --
0410:                      92  01 F8 FF FF 7F 00               .......  
```

#### Opcodes

```
  0: 0x0417 [0x92] EventEntity->Render.Flags3 ^= 0x01
  1: 0x041D [0x00] END_REQSTACK()
```
