# 17731593 - Rahal

## Common Data

| Field            | Value                         |
|------------------|-------------------------------|
| Zone             | Chateau d'Oraguille (ID: 233) |
| Block Size       | 464 bytes                     |
| Total Events     | 16                            |
| References Count | 18                            |

## List of Events

| Event ID                   | Entrypoint   |   Size |   Instructions |
|----------------------------|--------------|--------|----------------|
| [65535](#event-65535)      | 0x0000       |      1 |              1 |
| [121](#event-121)          | 0x0001       |      1 |              1 |
| [120](#event-120)          | 0x0002       |      1 |              1 |
| [65535.1](#event-655351)   | 0x0003       |     28 |              4 |
| [65535.2](#event-655352)   | 0x001F       |     25 |              6 |
| [65535.3](#event-655353)   | 0x0038       |     34 |              8 |
| [65535.4](#event-655354)   | 0x005A       |     29 |              7 |
| [65535.5](#event-655355)   | 0x0077       |     16 |              2 |
| [65535.6](#event-655356)   | 0x0087       |      4 |              2 |
| [65535.7](#event-655357)   | 0x008B       |     29 |              3 |
| [65535.8](#event-655358)   | 0x00A8       |     29 |              3 |
| [65535.9](#event-655359)   | 0x00C5       |     16 |              2 |
| [65535.10](#event-6553510) | 0x00D5       |     29 |              3 |
| [65535.11](#event-6553511) | 0x00F2       |      9 |              3 |
| [65535.12](#event-6553512) | 0x00FB       |     29 |              3 |
| [65535.13](#event-6553513) | 0x0118       |     29 |              3 |

## DAT References (imed_data)

|   Index | Hex Value   |   Dec Value |
|---------|-------------|-------------|
|       0 | 0x0028      |          40 |
|       1 | 0xFFFF8456  |  4294935638 |
|       2 | 0xFFFFF5F3  |  4294964723 |
|       3 | 0x0000      |           0 |
|       4 | 0xFFFF8846  |  4294936646 |
|       5 | 0xFFFFF547  |  4294964551 |
|       6 | 0x0E5D      |        3677 |
|       7 | 0xFFFF891C  |  4294936860 |
|       8 | 0xFFFFEE50  |  4294962768 |
|       9 | 0xFFFF9386  |  4294939526 |
|      10 | 0xFFFFED40  |  4294962496 |
|      11 | 0x000D      |          13 |
|      12 | 0xFFFF8F7B  |  4294938491 |
|      13 | 0xFFFFE29A  |  4294959770 |
|      14 | 0x0018      |          24 |
|      15 | 0x005A      |          90 |
|      16 | 0x001D      |          29 |
|      17 | 0x003C      |          60 |

## Events

### Event 65535

#### Metadata

| Field        | Value   |
|--------------|---------|
| Entrypoint   | 0x0000  |
| Data Size    | 1 bytes |
| Instructions | 1       |

```
      00 01 02 03 04 05 06 07  08 09 0A 0B 0C 0D 0E 0F
      -- -- -- -- -- -- -- --  -- -- -- -- -- -- -- --
0000: 00                                                .               
```

#### Opcodes

```
  0: 0x0000 [0x00] END_REQSTACK()
```

### Event 121

#### Metadata

| Field        | Value   |
|--------------|---------|
| Entrypoint   | 0x0001  |
| Data Size    | 1 bytes |
| Instructions | 1       |

```
      00 01 02 03 04 05 06 07  08 09 0A 0B 0C 0D 0E 0F
      -- -- -- -- -- -- -- --  -- -- -- -- -- -- -- --
0000:    00                                              .              
```

#### Opcodes

```
  0: 0x0001 [0x00] END_REQSTACK()
```

### Event 120

#### Metadata

| Field        | Value   |
|--------------|---------|
| Entrypoint   | 0x0002  |
| Data Size    | 1 bytes |
| Instructions | 1       |

```
      00 01 02 03 04 05 06 07  08 09 0A 0B 0C 0D 0E 0F
      -- -- -- -- -- -- -- --  -- -- -- -- -- -- -- --
0000:       00                                            .             
```

#### Opcodes

```
  0: 0x0002 [0x00] END_REQSTACK()
```

### Event 65535.1

#### Metadata

| Field        | Value    |
|--------------|----------|
| Entrypoint   | 0x0003   |
| Data Size    | 28 bytes |
| Instructions | 4        |

```
      00 01 02 03 04 05 06 07  08 09 0A 0B 0C 0D 0E 0F
      -- -- -- -- -- -- -- --  -- -- -- -- -- -- -- --
0000:          3B 08 90 0E 01  00 00 01 00 02 00 3A 08     ;..........:.
0010: 90 0E 01 03 00 37 00 00  01 00 02 00 03 00 00     .....7......... 
```

#### Opcodes

```
  0: 0x0003 [0x3B] GET_ENTITY_POSITION(entity=Rahal (ID: 17731592/0x010E9008), x_destination=ExtData[1]->WorkLocal[0], y_destination=ExtData[1]->WorkLocal[1], z_destination=ExtData[1]->WorkLocal[2])
  1: 0x000E [0x3A] CONVERT_YAW_TO_BYTE(entity=Rahal (ID: 17731592/0x010E9008), result_destination=ExtData[1]->WorkLocal[3])
  2: 0x0015 [0x37] UPDATE_EVENT_POSITION_AND_DIR: x=ExtData[1]->WorkLocal[0], z=ExtData[1]->WorkLocal[1], y=ExtData[1]->WorkLocal[2], direction=ExtData[1]->WorkLocal[3]
  3: 0x001E [0x00] END_REQSTACK()
```

### Event 65535.2

#### Metadata

| Field        | Value    |
|--------------|----------|
| Entrypoint   | 0x001F   |
| Data Size    | 25 bytes |
| Instructions | 6        |

```
      00 01 02 03 04 05 06 07  08 09 0A 0B 0C 0D 0E 0F
      -- -- -- -- -- -- -- --  -- -- -- -- -- -- -- --
0010:                                               32                 2
0020: 00 80 1F 00 01 80 02 80  03 80 1F 01 6F 79 00 F8  ............oy..
0030: FF FF 7F 1F 90 0E 01 00                           ........        
```

#### Opcodes

```
  0: 0x001F [0x32] ExtData[1]->MainSpeed = 40* * 0.1
  1: 0x0022 [0x1F] MOVE_ENTITY: EventEntity moves to X=-31.658*, Z=-2.573*, Y=0.000*
  2: 0x002A [0x1F] MOVE_ENTITY: Update entity position (mode=1)
  3: 0x002C [0x6F] WAIT_FRAME_DELAY: Yield until WaitTime reaches zero
  4: 0x002D [0x79] EventEntity looks at Unnamed NPC (ID: 17731615/0x010E901F) (Basic look)
  5: 0x0037 [0x00] END_REQSTACK()
```

### Event 65535.3

#### Metadata

| Field        | Value    |
|--------------|----------|
| Entrypoint   | 0x0038   |
| Data Size    | 34 bytes |
| Instructions | 8        |

```
      00 01 02 03 04 05 06 07  08 09 0A 0B 0C 0D 0E 0F
      -- -- -- -- -- -- -- --  -- -- -- -- -- -- -- --
0030:                          32 00 80 37 04 80 05 80          2..7....
0040: 03 80 06 80 1F 00 07 80  08 80 03 80 1F 01 1F 00  ................
0050: 09 80 0A 80 03 80 1F 01  6F 00                    ........o.      
```

#### Opcodes

```
  0: 0x0038 [0x32] ExtData[1]->MainSpeed = 40* * 0.1
  1: 0x003B [0x37] UPDATE_EVENT_POSITION_AND_DIR: x=-30.650*, z=-2.745*, y=0.000*, direction=323.2°*
  2: 0x0044 [0x1F] MOVE_ENTITY: EventEntity moves to X=-30.436*, Z=-4.528*, Y=0.000*
  3: 0x004C [0x1F] MOVE_ENTITY: Update entity position (mode=1)
  4: 0x004E [0x1F] MOVE_ENTITY: EventEntity moves to X=-27.770*, Z=-4.800*, Y=0.000*
  5: 0x0056 [0x1F] MOVE_ENTITY: Update entity position (mode=1)
  6: 0x0058 [0x6F] WAIT_FRAME_DELAY: Yield until WaitTime reaches zero
  7: 0x0059 [0x00] END_REQSTACK()
```

### Event 65535.4

#### Metadata

| Field        | Value    |
|--------------|----------|
| Entrypoint   | 0x005A   |
| Data Size    | 29 bytes |
| Instructions | 7        |

```
      00 01 02 03 04 05 06 07  08 09 0A 0B 0C 0D 0E 0F
      -- -- -- -- -- -- -- --  -- -- -- -- -- -- -- --
0050:                                32 0B 80 4A F0 FF            2..J..
0060: FF 7F 09 90 0E 01 1F 00  0C 80 0D 80 03 80 1F 01  ................
0070: 6F 1E F0 FF FF 7F 00                              o......         
```

#### Opcodes

```
  0: 0x005A [0x32] ExtData[1]->MainSpeed = 13* * 0.1
  1: 0x005D [0x4A] LocalPlayer looks at Rahal (ID: 17731593/0x010E9009)
  2: 0x0066 [0x1F] MOVE_ENTITY: EventEntity moves to X=-28.805*, Z=-7.526*, Y=0.000*
  3: 0x006E [0x1F] MOVE_ENTITY: Update entity position (mode=1)
  4: 0x0070 [0x6F] WAIT_FRAME_DELAY: Yield until WaitTime reaches zero
  5: 0x0071 [0x1E] EventEntity looks at LocalPlayer and starts talking
  6: 0x0076 [0x00] END_REQSTACK()
```

### Event 65535.5

#### Metadata

| Field        | Value    |
|--------------|----------|
| Entrypoint   | 0x0077   |
| Data Size    | 16 bytes |
| Instructions | 2        |

```
      00 01 02 03 04 05 06 07  08 09 0A 0B 0C 0D 0E 0F
      -- -- -- -- -- -- -- --  -- -- -- -- -- -- -- --
0070:                      66  0E 80 F8 FF FF 7F F8 FF         f........
0080: FF 7F 31 72 64 79 00                              ..1rdy.         
```

#### Opcodes

```
  0: 0x0077 [0x66] LOAD_EXT_SCHEDULER_MAIN: Load scheduler "1rdy" with entities [EventEntity, EventEntity], work=24*
  1: 0x0086 [0x00] END_REQSTACK()
```

### Event 65535.6

#### Metadata

| Field        | Value   |
|--------------|---------|
| Entrypoint   | 0x0087  |
| Data Size    | 4 bytes |
| Instructions | 2       |

```
      00 01 02 03 04 05 06 07  08 09 0A 0B 0C 0D 0E 0F
      -- -- -- -- -- -- -- --  -- -- -- -- -- -- -- --
0080:                      1C  0F 80 00                        ....     
```

#### Opcodes

```
  0: 0x0087 [0x1C] WAIT(90* ticks)
  1: 0x008A [0x00] END_REQSTACK()
```

### Event 65535.7

#### Metadata

| Field        | Value    |
|--------------|----------|
| Entrypoint   | 0x008B   |
| Data Size    | 29 bytes |
| Instructions | 3        |

```
      00 01 02 03 04 05 06 07  08 09 0A 0B 0C 0D 0E 0F
      -- -- -- -- -- -- -- --  -- -- -- -- -- -- -- --
0080:                                   66 0E 80 F8 FF             f....
0090: FF 7F F8 FF FF 7F 31 72  74 6E 53 F8 FF FF 7F F8  ......1rtnS.....
00A0: FF FF 7F 31 72 74 6E 00                           ...1rtn.        
```

#### Opcodes

```
  0: 0x008B [0x66] LOAD_EXT_SCHEDULER_MAIN: Load scheduler "1rtn" with entities [EventEntity, EventEntity], work=24*
  1: 0x009A [0x53] WAIT_SCHEDULER_TASK: Wait for scheduler "1rtn" with entities [EventEntity, EventEntity]
  2: 0x00A7 [0x00] END_REQSTACK()
```

### Event 65535.8

#### Metadata

| Field        | Value    |
|--------------|----------|
| Entrypoint   | 0x00A8   |
| Data Size    | 29 bytes |
| Instructions | 3        |

```
      00 01 02 03 04 05 06 07  08 09 0A 0B 0C 0D 0E 0F
      -- -- -- -- -- -- -- --  -- -- -- -- -- -- -- --
00A0:                          66 0E 80 F8 FF FF 7F F8          f.......
00B0: FF FF 7F 31 73 6C 68 53  F8 FF FF 7F F8 FF FF 7F  ...1slhS........
00C0: 31 73 6C 68 00                                    1slh.           
```

#### Opcodes

```
  0: 0x00A8 [0x66] LOAD_EXT_SCHEDULER_MAIN: Load scheduler "1slh" with entities [EventEntity, EventEntity], work=24*
  1: 0x00B7 [0x53] WAIT_SCHEDULER_TASK: Wait for scheduler "1slh" with entities [EventEntity, EventEntity]
  2: 0x00C4 [0x00] END_REQSTACK()
```

### Event 65535.9

#### Metadata

| Field        | Value    |
|--------------|----------|
| Entrypoint   | 0x00C5   |
| Data Size    | 16 bytes |
| Instructions | 2        |

```
      00 01 02 03 04 05 06 07  08 09 0A 0B 0C 0D 0E 0F
      -- -- -- -- -- -- -- --  -- -- -- -- -- -- -- --
00C0:                66 0E 80  F8 FF FF 7F F8 FF FF 7F       f..........
00D0: 31 73 6C 68 00                                    1slh.           
```

#### Opcodes

```
  0: 0x00C5 [0x66] LOAD_EXT_SCHEDULER_MAIN: Load scheduler "1slh" with entities [EventEntity, EventEntity], work=24*
  1: 0x00D4 [0x00] END_REQSTACK()
```

### Event 65535.10

#### Metadata

| Field        | Value    |
|--------------|----------|
| Entrypoint   | 0x00D5   |
| Data Size    | 29 bytes |
| Instructions | 3        |

```
      00 01 02 03 04 05 06 07  08 09 0A 0B 0C 0D 0E 0F
      -- -- -- -- -- -- -- --  -- -- -- -- -- -- -- --
00D0:                66 10 80  F8 FF FF 7F F8 FF FF 7F       f..........
00E0: 74 6C 6B 30 53 F8 FF FF  7F F8 FF FF 7F 74 6C 6B  tlk0S........tlk
00F0: 30 00                                             0.              
```

#### Opcodes

```
  0: 0x00D5 [0x66] LOAD_EXT_SCHEDULER_MAIN: Load scheduler "tlk0" with entities [EventEntity, EventEntity], work=29*
  1: 0x00E4 [0x53] WAIT_SCHEDULER_TASK: Wait for scheduler "tlk0" with entities [EventEntity, EventEntity]
  2: 0x00F1 [0x00] END_REQSTACK()
```

### Event 65535.11

#### Metadata

| Field        | Value   |
|--------------|---------|
| Entrypoint   | 0x00F2  |
| Data Size    | 9 bytes |
| Instructions | 3       |

```
      00 01 02 03 04 05 06 07  08 09 0A 0B 0C 0D 0E 0F
      -- -- -- -- -- -- -- --  -- -- -- -- -- -- -- --
00F0:       5E 69 64 6C 30 1C  11 80 00                   ^idl0....     
```

#### Opcodes

```
  0: 0x00F2 [0x5E] EventEntity goes idle (kills current action) (animation: "idl0")
  1: 0x00F7 [0x1C] WAIT(60* ticks)
  2: 0x00FA [0x00] END_REQSTACK()
```

### Event 65535.12

#### Metadata

| Field        | Value    |
|--------------|----------|
| Entrypoint   | 0x00FB   |
| Data Size    | 29 bytes |
| Instructions | 3        |

```
      00 01 02 03 04 05 06 07  08 09 0A 0B 0C 0D 0E 0F
      -- -- -- -- -- -- -- --  -- -- -- -- -- -- -- --
00F0:                                   66 10 80 F8 FF             f....
0100: FF 7F F8 FF FF 7F 74 68  6B 31 53 F8 FF FF 7F F8  ......thk1S.....
0110: FF FF 7F 74 68 6B 31 00                           ...thk1.        
```

#### Opcodes

```
  0: 0x00FB [0x66] LOAD_EXT_SCHEDULER_MAIN: Load scheduler "thk1" with entities [EventEntity, EventEntity], work=29*
  1: 0x010A [0x53] WAIT_SCHEDULER_TASK: Wait for scheduler "thk1" with entities [EventEntity, EventEntity]
  2: 0x0117 [0x00] END_REQSTACK()
```

### Event 65535.13

#### Metadata

| Field        | Value    |
|--------------|----------|
| Entrypoint   | 0x0118   |
| Data Size    | 29 bytes |
| Instructions | 3        |

```
      00 01 02 03 04 05 06 07  08 09 0A 0B 0C 0D 0E 0F
      -- -- -- -- -- -- -- --  -- -- -- -- -- -- -- --
0110:                          66 10 80 F8 FF FF 7F F8          f.......
0120: FF FF 7F 74 68 6B 32 53  F8 FF FF 7F F8 FF FF 7F  ...thk2S........
0130: 74 68 6B 32 00                                    thk2.           
```

#### Opcodes

```
  0: 0x0118 [0x66] LOAD_EXT_SCHEDULER_MAIN: Load scheduler "thk2" with entities [EventEntity, EventEntity], work=29*
  1: 0x0127 [0x53] WAIT_SCHEDULER_TASK: Wait for scheduler "thk2" with entities [EventEntity, EventEntity]
  2: 0x0134 [0x00] END_REQSTACK()
```
