# 17731636 - Exoroche

## Common Data

| Field            | Value                         |
|------------------|-------------------------------|
| Zone             | Chateau d'Oraguille (ID: 233) |
| Block Size       | 340 bytes                     |
| Total Events     | 12                            |
| References Count | 19                            |

## List of Events

| Event ID                 | Entrypoint   |   Size |   Instructions |
|--------------------------|--------------|--------|----------------|
| [65535](#event-65535)    | 0x0000       |      1 |              1 |
| [9](#event-9)            | 0x0001       |      1 |              1 |
| [65535.1](#event-655351) | 0x0002       |     10 |              2 |
| [89](#event-89)          | 0x000C       |     10 |              2 |
| [65535.2](#event-655352) | 0x0016       |     37 |              9 |
| [65535.3](#event-655353) | 0x003B       |     14 |              3 |
| [65535.4](#event-655354) | 0x0049       |     30 |              7 |
| [65535.5](#event-655355) | 0x0067       |     11 |              3 |
| [65535.6](#event-655356) | 0x0072       |     29 |              3 |
| [65535.7](#event-655357) | 0x008F       |     29 |              3 |
| [65535.8](#event-655358) | 0x00AC       |     19 |              3 |
| [65535.9](#event-655359) | 0x00BF       |      9 |              3 |

## DAT References (imed_data)

|   Index | Hex Value   |   Dec Value |
|---------|-------------|-------------|
|       0 | 0xFFFFF52E  |  4294964526 |
|       1 | 0xFFFFD3CE  |  4294955982 |
|       2 | 0x0000      |           0 |
|       3 | 0xFFFF68F6  |  4294928630 |
|       4 | 0x1240A     |       74762 |
|       5 | 0xFFFFF15B  |  4294963547 |
|       6 | 0x0BC4      |        3012 |
|       7 | 0x000D      |          13 |
|       8 | 0xFFFF6913  |  4294928659 |
|       9 | 0x14EDE     |       85726 |
|      10 | 0x001D      |          29 |
|      11 | 0x0E9E      |        3742 |
|      12 | 0x007F      |         127 |
|      13 | 0xFFFF6DBF  |  4294929855 |
|      14 | 0x10E72     |       69234 |
|      15 | 0xFFFFF448  |  4294964296 |
|      16 | 0x0015      |          21 |
|      17 | 0x0014      |          20 |
|      18 | 0x001E      |          30 |

## Events

### Event 65535

#### Metadata

| Field        | Value   |
|--------------|---------|
| Entrypoint   | 0x0000  |
| Data Size    | 1 bytes |
| Instructions | 1       |

```
      00 01 02 03 04 05 06 07  08 09 0A 0B 0C 0D 0E 0F
      -- -- -- -- -- -- -- --  -- -- -- -- -- -- -- --
0000: 00                                                .               
```

#### Opcodes

```
  0: 0x0000 [0x00] END_REQSTACK()
```

### Event 9

#### Metadata

| Field        | Value   |
|--------------|---------|
| Entrypoint   | 0x0001  |
| Data Size    | 1 bytes |
| Instructions | 1       |

```
      00 01 02 03 04 05 06 07  08 09 0A 0B 0C 0D 0E 0F
      -- -- -- -- -- -- -- --  -- -- -- -- -- -- -- --
0000:    00                                              .              
```

#### Opcodes

```
  0: 0x0001 [0x00] END_REQSTACK()
```

### Event 65535.1

#### Metadata

| Field        | Value    |
|--------------|----------|
| Entrypoint   | 0x0002   |
| Data Size    | 10 bytes |
| Instructions | 2        |

```
      00 01 02 03 04 05 06 07  08 09 0A 0B 0C 0D 0E 0F
      -- -- -- -- -- -- -- --  -- -- -- -- -- -- -- --
0000:       37 00 80 01 80 02  80 02 80 00                7.........    
```

#### Opcodes

```
  0: 0x0002 [0x37] UPDATE_EVENT_POSITION_AND_DIR: x=-2.770*, z=-11.314*, y=0.000*, direction=0.0째*
  1: 0x000B [0x00] END_REQSTACK()
```

### Event 89

#### Metadata

| Field        | Value    |
|--------------|----------|
| Entrypoint   | 0x000C   |
| Data Size    | 10 bytes |
| Instructions | 2        |

```
      00 01 02 03 04 05 06 07  08 09 0A 0B 0C 0D 0E 0F
      -- -- -- -- -- -- -- --  -- -- -- -- -- -- -- --
0000:                                      37 03 80 04              7...
0010: 80 05 80 06 80 00                                 ......          
```

#### Opcodes

```
  0: 0x000C [0x37] UPDATE_EVENT_POSITION_AND_DIR: x=-38.666*, z=74.762*, y=-3.749*, direction=264.7째*
  1: 0x0015 [0x00] END_REQSTACK()
```

### Event 65535.2

#### Metadata

| Field        | Value    |
|--------------|----------|
| Entrypoint   | 0x0016   |
| Data Size    | 37 bytes |
| Instructions | 9        |

```
      00 01 02 03 04 05 06 07  08 09 0A 0B 0C 0D 0E 0F
      -- -- -- -- -- -- -- --  -- -- -- -- -- -- -- --
0010:                   32 07  80 1F 00 08 80 09 80 05        2.........
0020: 80 1F 01 6F 1E 03 90 0E  01 6F 70 66 0A 80 F8 FF  ...o.....opf....
0030: FF 7F F8 FF FF 7F 73 68  61 30 00                 ......sha0.     
```

#### Opcodes

```
  0: 0x0016 [0x32] ExtData[1]->MainSpeed = 13* * 0.1
  1: 0x0019 [0x1F] MOVE_ENTITY: EventEntity moves to X=-38.637*, Z=85.726*, Y=-3.749*
  2: 0x0021 [0x1F] MOVE_ENTITY: Update entity position (mode=1)
  3: 0x0023 [0x6F] WAIT_FRAME_DELAY: Yield until WaitTime reaches zero
  4: 0x0024 [0x1E] EventEntity looks at Trion (ID: 17731587/0x010E9003) and starts talking
  5: 0x0029 [0x6F] WAIT_FRAME_DELAY: Yield until WaitTime reaches zero
  6: 0x002A [0x70] WAIT_ENTITY_RENDER_FLAG: Wait while EventEntity->Render.Flags3 bit 2 is set (cancel turn if not)
  7: 0x002B [0x66] LOAD_EXT_SCHEDULER_MAIN: Load scheduler "sha0" with entities [EventEntity, EventEntity], work=29*
  8: 0x003A [0x00] END_REQSTACK()
```

### Event 65535.3

#### Metadata

| Field        | Value    |
|--------------|----------|
| Entrypoint   | 0x003B   |
| Data Size    | 14 bytes |
| Instructions | 3        |

```
      00 01 02 03 04 05 06 07  08 09 0A 0B 0C 0D 0E 0F
      -- -- -- -- -- -- -- --  -- -- -- -- -- -- -- --
0030:                                   39 0B 80 79 00             9..y.
0040: F8 FF FF 7F 33 90 0E 01  00                       ....3....       
```

#### Opcodes

```
  0: 0x003B [0x39] SET_ENTITY_DIRECTION(direction=20.6째*)
  1: 0x003E [0x79] EventEntity looks at Ailbeche (ID: 17731635/0x010E9033) (Basic look)
  2: 0x0048 [0x00] END_REQSTACK()
```

### Event 65535.4

#### Metadata

| Field        | Value    |
|--------------|----------|
| Entrypoint   | 0x0049   |
| Data Size    | 30 bytes |
| Instructions | 7        |

```
      00 01 02 03 04 05 06 07  08 09 0A 0B 0C 0D 0E 0F
      -- -- -- -- -- -- -- --  -- -- -- -- -- -- -- --
0040:                             7B F8 FF FF 7F 1F 00           {......
0050: 03 80 04 80 05 80 1F 01  6F 39 0C 80 79 00 F8 FF  ........o9..y...
0060: FF 7F F0 FF FF 7F 00                              .......         
```

#### Opcodes

```
  0: 0x0049 [0x7B] EventEntity stops talking
  1: 0x004E [0x1F] MOVE_ENTITY: EventEntity moves to X=-38.666*, Z=74.762*, Y=-3.749*
  2: 0x0056 [0x1F] MOVE_ENTITY: Update entity position (mode=1)
  3: 0x0058 [0x6F] WAIT_FRAME_DELAY: Yield until WaitTime reaches zero
  4: 0x0059 [0x39] SET_ENTITY_DIRECTION(direction=0.7째*)
  5: 0x005C [0x79] EventEntity looks at LocalPlayer (Basic look)
  6: 0x0066 [0x00] END_REQSTACK()
```

### Event 65535.5

#### Metadata

| Field        | Value    |
|--------------|----------|
| Entrypoint   | 0x0067   |
| Data Size    | 11 bytes |
| Instructions | 3        |

```
      00 01 02 03 04 05 06 07  08 09 0A 0B 0C 0D 0E 0F
      -- -- -- -- -- -- -- --  -- -- -- -- -- -- -- --
0060:                      1F  00 0D 80 0E 80 0F 80 1F         .........
0070: 01 00                                             ..              
```

#### Opcodes

```
  0: 0x0067 [0x1F] MOVE_ENTITY: EventEntity moves to X=-37.441*, Z=69.234*, Y=-3.000*
  1: 0x006F [0x1F] MOVE_ENTITY: Update entity position (mode=1)
  2: 0x0071 [0x00] END_REQSTACK()
```

### Event 65535.6

#### Metadata

| Field        | Value    |
|--------------|----------|
| Entrypoint   | 0x0072   |
| Data Size    | 29 bytes |
| Instructions | 3        |

```
      00 01 02 03 04 05 06 07  08 09 0A 0B 0C 0D 0E 0F
      -- -- -- -- -- -- -- --  -- -- -- -- -- -- -- --
0070:       66 0A 80 F8 FF FF  7F F8 FF FF 7F 73 68 61    f..........sha
0080: 31 53 F8 FF FF 7F F8 FF  FF 7F 73 68 61 31 00     1S........sha1. 
```

#### Opcodes

```
  0: 0x0072 [0x66] LOAD_EXT_SCHEDULER_MAIN: Load scheduler "sha1" with entities [EventEntity, EventEntity], work=29*
  1: 0x0081 [0x53] WAIT_SCHEDULER_TASK: Wait for scheduler "sha1" with entities [EventEntity, EventEntity]
  2: 0x008E [0x00] END_REQSTACK()
```

### Event 65535.7

#### Metadata

| Field        | Value    |
|--------------|----------|
| Entrypoint   | 0x008F   |
| Data Size    | 29 bytes |
| Instructions | 3        |

```
      00 01 02 03 04 05 06 07  08 09 0A 0B 0C 0D 0E 0F
      -- -- -- -- -- -- -- --  -- -- -- -- -- -- -- --
0080:                                               66                 f
0090: 10 80 F8 FF FF 7F F8 FF  FF 7F 73 6C 30 30 53 F8  ..........sl00S.
00A0: FF FF 7F F8 FF FF 7F 73  6C 30 30 00              .......sl00.    
```

#### Opcodes

```
  0: 0x008F [0x66] LOAD_EXT_SCHEDULER_MAIN: Load scheduler "sl00" with entities [EventEntity, EventEntity], work=21*
  1: 0x009E [0x53] WAIT_SCHEDULER_TASK: Wait for scheduler "sl00" with entities [EventEntity, EventEntity]
  2: 0x00AB [0x00] END_REQSTACK()
```

### Event 65535.8

#### Metadata

| Field        | Value    |
|--------------|----------|
| Entrypoint   | 0x00AC   |
| Data Size    | 19 bytes |
| Instructions | 3        |

```
      00 01 02 03 04 05 06 07  08 09 0A 0B 0C 0D 0E 0F
      -- -- -- -- -- -- -- --  -- -- -- -- -- -- -- --
00A0:                                      66 11 80 F8              f...
00B0: FF FF 7F F8 FF FF 7F 74  6C 6B 30 1C 12 80 00     .......tlk0.... 
```

#### Opcodes

```
  0: 0x00AC [0x66] LOAD_EXT_SCHEDULER_MAIN: Load scheduler "tlk0" with entities [EventEntity, EventEntity], work=20*
  1: 0x00BB [0x1C] WAIT(30* ticks)
  2: 0x00BE [0x00] END_REQSTACK()
```

### Event 65535.9

#### Metadata

| Field        | Value   |
|--------------|---------|
| Entrypoint   | 0x00BF  |
| Data Size    | 9 bytes |
| Instructions | 3       |

```
      00 01 02 03 04 05 06 07  08 09 0A 0B 0C 0D 0E 0F
      -- -- -- -- -- -- -- --  -- -- -- -- -- -- -- --
00B0:                                               5E                 ^
00C0: 69 64 6C 30 1C 12 80 00                           idl0....        
```

#### Opcodes

```
  0: 0x00BF [0x5E] EventEntity goes idle (kills current action) (animation: "idl0")
  1: 0x00C4 [0x1C] WAIT(30* ticks)
  2: 0x00C7 [0x00] END_REQSTACK()
```
