# 17731678 - Halver

## Common Data

| Field            | Value                         |
|------------------|-------------------------------|
| Zone             | Chateau d'Oraguille (ID: 233) |
| Block Size       | 84 bytes                      |
| Total Events     | 4                             |
| References Count | 3                             |

## List of Events

| Event ID                 | Entrypoint   |   Size |   Instructions |
|--------------------------|--------------|--------|----------------|
| [566](#event-566)        | 0x0000       |      1 |              1 |
| [65535](#event-65535)    | 0x0001       |     19 |              3 |
| [65535.1](#event-655351) | 0x0014       |     19 |              3 |

## DAT References (imed_data)

|   Index | Hex Value   |   Dec Value |
|---------|-------------|-------------|
|       0 | 0x0000      |           0 |
|       1 | 0x0001      |           1 |
|       2 | 0x0080      |         128 |

## Events

### Event 566

#### Metadata

| Field        | Value   |
|--------------|---------|
| Entrypoint   | 0x0000  |
| Data Size    | 1 bytes |
| Instructions | 1       |

```
      00 01 02 03 04 05 06 07  08 09 0A 0B 0C 0D 0E 0F
      -- -- -- -- -- -- -- --  -- -- -- -- -- -- -- --
0000: 00                                                .               
```

#### Opcodes

```
  0: 0x0000 [0x00] END_REQSTACK()
```

### Event 65535

#### Metadata

| Field        | Value    |
|--------------|----------|
| Entrypoint   | 0x0001   |
| Data Size    | 19 bytes |
| Instructions | 3        |

```
      00 01 02 03 04 05 06 07  08 09 0A 0B 0C 0D 0E 0F
      -- -- -- -- -- -- -- --  -- -- -- -- -- -- -- --
0000:    6C 5E 90 0E 01 00 80  01 80 6C 07 90 0E 01 02   l^.......l.....
0010: 80 01 80 00                                       ....            
```

#### Opcodes

```
  0: 0x0001 [0x6C] FADE_ENTITY_COLOR(entity_id=Halver (ID: 17731678/0x010E905E), end_alpha=0*, fade_time=1*)
  1: 0x000A [0x6C] FADE_ENTITY_COLOR(entity_id=Halver (ID: 17731591/0x010E9007), end_alpha=128*, fade_time=1*)
  2: 0x0013 [0x00] END_REQSTACK()
```

### Event 65535.1

#### Metadata

| Field        | Value    |
|--------------|----------|
| Entrypoint   | 0x0014   |
| Data Size    | 19 bytes |
| Instructions | 3        |

```
      00 01 02 03 04 05 06 07  08 09 0A 0B 0C 0D 0E 0F
      -- -- -- -- -- -- -- --  -- -- -- -- -- -- -- --
0010:             6C 5E 90 0E  01 02 80 01 80 6C 07 90      l^.......l..
0020: 0E 01 00 80 01 80 00                              .......         
```

#### Opcodes

```
  0: 0x0014 [0x6C] FADE_ENTITY_COLOR(entity_id=Halver (ID: 17731678/0x010E905E), end_alpha=128*, fade_time=1*)
  1: 0x001D [0x6C] FADE_ENTITY_COLOR(entity_id=Halver (ID: 17731591/0x010E9007), end_alpha=0*, fade_time=1*)
  2: 0x0026 [0x00] END_REQSTACK()
```
