# 17731591 - Halver

## Common Data

| Field            | Value                         |
|------------------|-------------------------------|
| Zone             | Chateau d'Oraguille (ID: 233) |
| Block Size       | 14620 bytes                   |
| Total Events     | 120                           |
| References Count | 347                           |

## List of Events

| Event ID                   | Entrypoint   |   Size |   Instructions |
|----------------------------|--------------|--------|----------------|
| [65535](#event-65535)      | 0x0000       |      1 |              1 |
| [65535.1](#event-655351)   | 0x0001       |     10 |              2 |
| [65535.2](#event-655352)   | 0x000B       |     29 |              3 |
| [65535.3](#event-655353)   | 0x0028       |     29 |              3 |
| [65535.4](#event-655354)   | 0x0045       |     29 |              3 |
| [65535.5](#event-655355)   | 0x0062       |     29 |              3 |
| [65535.6](#event-655356)   | 0x007F       |     29 |              3 |
| [65535.7](#event-655357)   | 0x009C       |     29 |              3 |
| [563](#event-563)          | 0x00B9       |      1 |              1 |
| [564](#event-564)          | 0x00BA       |      1 |              1 |
| [65535.8](#event-655358)   | 0x00BB       |     10 |              2 |
| [65535.9](#event-655359)   | 0x00C5       |     22 |              6 |
| [65535.10](#event-6553510) | 0x00DB       |     15 |              3 |
| [65535.11](#event-6553511) | 0x00EA       |     10 |              2 |
| [65535.12](#event-6553512) | 0x00F4       |     35 |              9 |
| [567](#event-567)          | 0x0117       |      1 |              1 |
| [568](#event-568)          | 0x0118       |     69 |             13 |
| [66](#event-66)            | 0x015D       |   6644 |           1030 |
| [65](#event-65)            | 0x1B51       |      7 |              2 |
| [67](#event-67)            | 0x1B58       |     80 |             26 |
| [65535.13](#event-6553513) | 0x1BA8       |   1024 |            270 |
| [112](#event-112)          | 0x1FA8       |      7 |              2 |
| [65535.14](#event-6553514) | 0x1FAF       |     10 |              2 |
| [65535.15](#event-6553515) | 0x1FB9       |      6 |              2 |
| [65535.16](#event-6553516) | 0x1FBF       |      6 |              2 |
| [65535.17](#event-6553517) | 0x1FC5       |      6 |              2 |
| [30](#event-30)            | 0x1FCB       |     13 |              7 |
| [28](#event-28)            | 0x1FD8       |     13 |              7 |
| [29](#event-29)            | 0x1FE5       |     13 |              7 |
| [27](#event-27)            | 0x1FF2       |     13 |              7 |
| [26](#event-26)            | 0x1FFF       |     13 |              7 |
| [10](#event-10)            | 0x200C       |     10 |              2 |
| [9](#event-9)              | 0x2016       |      1 |              1 |
| [65535.18](#event-6553518) | 0x2017       |     10 |              2 |
| [25](#event-25)            | 0x2021       |    141 |             25 |
| [23](#event-23)            | 0x20AE       |     18 |              8 |
| [24](#event-24)            | 0x20C0       |     23 |              9 |
| [22](#event-22)            | 0x20D7       |     18 |              8 |
| [1](#event-1)              | 0x20E9       |     25 |              9 |
| [31](#event-31)            | 0x2102       |     84 |             16 |
| [65535.19](#event-6553519) | 0x2156       |     44 |              4 |
| [65535.20](#event-6553520) | 0x2182       |     14 |              2 |
| [505](#event-505)          | 0x2190       |    221 |             44 |
| [576](#event-576)          | 0x226D       |     35 |             12 |
| [577](#event-577)          | 0x2290       |     35 |             12 |
| [532](#event-532)          | 0x22B3       |     36 |             10 |
| [501](#event-501)          | 0x22D7       |    252 |             53 |
| [502](#event-502)          | 0x23D3       |    252 |             53 |
| [503](#event-503)          | 0x24CF       |    225 |             48 |
| [504](#event-504)          | 0x25B0       |    225 |             48 |
| [507](#event-507)          | 0x2691       |    225 |             45 |
| [543](#event-543)          | 0x2772       |      2 |              2 |
| [508](#event-508)          | 0x2774       |     58 |             20 |
| [510](#event-510)          | 0x27AE       |     36 |             10 |
| [509](#event-509)          | 0x27D2       |      1 |              1 |
| [65535.21](#event-6553521) | 0x27D3       |     22 |              8 |
| [533](#event-533)          | 0x27E9       |    170 |             46 |
| [534](#event-534)          | 0x2893       |      1 |              1 |
| [546](#event-546)          | 0x2894       |    114 |             22 |
| [548](#event-548)          | 0x2906       |     98 |             24 |
| [549](#event-549)          | 0x2968       |     33 |             10 |
| [65535.22](#event-6553522) | 0x2989       |      9 |              5 |
| [65535.23](#event-6553523) | 0x2992       |     25 |              6 |
| [65535.24](#event-6553524) | 0x29AB       |      5 |              3 |
| [65535.25](#event-6553525) | 0x29B0       |     16 |              2 |
| [65535.26](#event-6553526) | 0x29C0       |     22 |              4 |
| [65535.27](#event-6553527) | 0x29D6       |     16 |              2 |
| [65535.28](#event-6553528) | 0x29E6       |     14 |              2 |
| [65535.29](#event-6553529) | 0x29F4       |     16 |              2 |
| [65535.30](#event-6553530) | 0x2A04       |     14 |              2 |
| [65535.31](#event-6553531) | 0x2A12       |     16 |              2 |
| [65535.32](#event-6553532) | 0x2A22       |     14 |              2 |
| [65535.33](#event-6553533) | 0x2A30       |     16 |              2 |
| [65535.34](#event-6553534) | 0x2A40       |     14 |              2 |
| [65535.35](#event-6553535) | 0x2A4E       |     16 |              2 |
| [65535.36](#event-6553536) | 0x2A5E       |     14 |              2 |
| [65535.37](#event-6553537) | 0x2A6C       |     16 |              2 |
| [65535.38](#event-6553538) | 0x2A7C       |     14 |              2 |
| [65535.39](#event-6553539) | 0x2A8A       |     16 |              2 |
| [65535.40](#event-6553540) | 0x2A9A       |     14 |              2 |
| [65535.41](#event-6553541) | 0x2AA8       |     16 |              2 |
| [65535.42](#event-6553542) | 0x2AB8       |     14 |              2 |
| [65535.43](#event-6553543) | 0x2AC6       |     16 |              2 |
| [65535.44](#event-6553544) | 0x2AD6       |     14 |              2 |
| [555](#event-555)          | 0x2AE4       |      1 |              1 |
| [65535.45](#event-6553545) | 0x2AE5       |      5 |              3 |
| [65535.46](#event-6553546) | 0x2AEA       |      5 |              3 |
| [65535.47](#event-6553547) | 0x2AEF       |      9 |              5 |
| [65535.48](#event-6553548) | 0x2AF8       |      5 |              3 |
| [65535.49](#event-6553549) | 0x2AFD       |      5 |              3 |
| [99](#event-99)            | 0x2B02       |     17 |              4 |
| [58](#event-58)            | 0x2B13       |     33 |             16 |
| [102](#event-102)          | 0x2B34       |     42 |             13 |
| [100](#event-100)          | 0x2B5E       |      1 |              1 |
| [65535.50](#event-6553550) | 0x2B5F       |     10 |              2 |
| [65535.51](#event-6553551) | 0x2B69       |     10 |              2 |
| [65535.52](#event-6553552) | 0x2B73       |     15 |              5 |
| [558](#event-558)          | 0x2B82       |     60 |             16 |
| [565](#event-565)          | 0x2BBE       |     48 |             12 |
| [566](#event-566)          | 0x2BEE       |      1 |              1 |
| [571](#event-571)          | 0x2BEF       |      1 |              1 |
| [572](#event-572)          | 0x2BF0       |      1 |              1 |
| [65535.53](#event-6553553) | 0x2BF1       |    649 |             97 |
| [575](#event-575)          | 0x2E7A       |    793 |             84 |
| [578](#event-578)          | 0x3193       |      1 |              1 |
| [581](#event-581)          | 0x3194       |      1 |              1 |
| [583](#event-583)          | 0x3195       |      1 |              1 |
| [586](#event-586)          | 0x3196       |      1 |              1 |
| [587](#event-587)          | 0x3197       |      1 |              1 |
| [590](#event-590)          | 0x3198       |      1 |              1 |
| [591](#event-591)          | 0x3199       |      1 |              1 |
| [594](#event-594)          | 0x319A       |      1 |              1 |
| [597](#event-597)          | 0x319B       |      1 |              1 |
| [65535.54](#event-6553554) | 0x319C       |     14 |              4 |
| [599](#event-599)          | 0x31AA       |      1 |              1 |
| [604](#event-604)          | 0x31AB       |      1 |              1 |
| [607](#event-607)          | 0x31AC       |      1 |              1 |
| [65535.55](#event-6553555) | 0x31AD       |     15 |              5 |
| [609](#event-609)          | 0x31BC       |      1 |              1 |
| [610](#event-610)          | 0x31BD       |      1 |              1 |

## DAT References (imed_data)

|   Index | Hex Value   |   Dec Value |
|---------|-------------|-------------|
|       0 | 0x0974      |        2420 |
|       1 | 0x07AE      |        1966 |
|       2 | 0x0000      |           0 |
|       3 | 0x0494      |        1172 |
|       4 | 0x0015      |          21 |
|       5 | 0x0014      |          20 |
|       6 | 0xFFFFF97F  |  4294965631 |
|       7 | 0x0C00      |        3072 |
|       8 | 0x01F4      |         500 |
|       9 | 0x000D      |          13 |
|      10 | 0x0DB3      |        3507 |
|      11 | 0x0400      |        1024 |
|      12 | 0x07E2      |        2018 |
|      13 | 0x07D0      |        2000 |
|      14 | 0x080B      |        2059 |
|      15 | 0x003E      |          62 |
|      16 | 0x0DC6      |        3526 |
|      17 | 0x00C8      |         200 |
|      18 | 0x0001      |           1 |
|      19 | 0x1FEF      |        8175 |
|      20 | 0x0002      |           2 |
|      21 | 0x0006      |           6 |
|      22 | 0x0078      |         120 |
|      23 | 0x0003      |           3 |
|      24 | 0x0004      |           4 |
|      25 | 0x0005      |           5 |
|      26 | 0x0036      |          54 |
|      27 | 0x1FC1      |        8129 |
|      28 | 0x000A      |          10 |
|      29 | 0x0096      |         150 |
|      30 | 0x1FC2      |        8130 |
|      31 | 0x1FC3      |        8131 |
|      32 | 0x1FC4      |        8132 |
|      33 | 0x1FC5      |        8133 |
|      34 | 0x1FC6      |        8134 |
|      35 | 0x1FC7      |        8135 |
|      36 | 0x1FC8      |        8136 |
|      37 | 0x1FC9      |        8137 |
|      38 | 0x070D      |        1805 |
|      39 | 0xFFFFF612  |  4294964754 |
|      40 | 0xFFFFFF97  |  4294967191 |
|      41 | 0x00B4      |         180 |
|      42 | 0xFFFFB9B0  |  4294949296 |
|      43 | 0x10AAB     |       68267 |
|      44 | 0xFFFFF448  |  4294964296 |
|      45 | 0x07F0      |        2032 |
|      46 | 0xFFFF8AEC  |  4294937324 |
|      47 | 0xFFFF6B3A  |  4294929210 |
|      48 | 0x1133A     |       70458 |
|      49 | 0xFFFFF255  |  4294963797 |
|      50 | 0x0BD9      |        3033 |
|      51 | 0x12110     |       74000 |
|      52 | 0x1FCB      |        8139 |
|      53 | 0x002D      |          45 |
|      54 | 0xFFFF6B99  |  4294929305 |
|      55 | 0x143B9     |       82873 |
|      56 | 0xFFFFF15B  |  4294963547 |
|      57 | 0x14B55     |       84821 |
|      58 | 0x1FCC      |        8140 |
|      59 | 0x1FCD      |        8141 |
|      60 | 0x1FCE      |        8142 |
|      61 | 0x1FCF      |        8143 |
|      62 | 0x001E      |          30 |
|      63 | 0x003C      |          60 |
|      64 | 0x0007      |           7 |
|      65 | 0x1FD0      |        8144 |
|      66 | 0x1FD1      |        8145 |
|      67 | 0x1FD2      |        8146 |
|      68 | 0x1FD3      |        8147 |
|      69 | 0x00A3      |         163 |
|      70 | 0x1FD4      |        8148 |
|      71 | 0x1FD5      |        8149 |
|      72 | 0x1FD6      |        8150 |
|      73 | 0x1FD7      |        8151 |
|      74 | 0x0064      |         100 |
|      75 | 0x1FD8      |        8152 |
|      76 | 0x1FD9      |        8153 |
|      77 | 0x1FDA      |        8154 |
|      78 | 0x1FDB      |        8155 |
|      79 | 0x1FDC      |        8156 |
|      80 | 0x1FDD      |        8157 |
|      81 | 0x1FDE      |        8158 |
|      82 | 0x1FDF      |        8159 |
|      83 | 0x1FE0      |        8160 |
|      84 | 0x1FE1      |        8161 |
|      85 | 0x1FE2      |        8162 |
|      86 | 0x007D      |         125 |
|      87 | 0x1FE3      |        8163 |
|      88 | 0x1FE4      |        8164 |
|      89 | 0x1FE5      |        8165 |
|      90 | 0x1FE6      |        8166 |
|      91 | 0x1FE7      |        8167 |
|      92 | 0xFFFF6BD8  |  4294929368 |
|      93 | 0x11AE7     |       72423 |
|      94 | 0x03EF      |        1007 |
|      95 | 0x0028      |          40 |
|      96 | 0xFFFF6B77  |  4294929271 |
|      97 | 0x10BFF     |       68607 |
|      98 | 0x1FE8      |        8168 |
|      99 | 0x0177      |         375 |
|     100 | 0x012C      |         300 |
|     101 | 0x1FE9      |        8169 |
|     102 | 0x1FEA      |        8170 |
|     103 | 0x009C      |         156 |
|     104 | 0x1FEB      |        8171 |
|     105 | 0x1FEC      |        8172 |
|     106 | 0x1FED      |        8173 |
|     107 | 0x00C9      |         201 |
|     108 | 0x1FF1      |        8177 |
|     109 | 0x40000000  |  1073741824 |
|     110 | 0x1FBB      |        8123 |
|     111 | 0x1FBC      |        8124 |
|     112 | 0x1FBD      |        8125 |
|     113 | 0x1FBE      |        8126 |
|     114 | 0x1FBF      |        8127 |
|     115 | 0x1F75      |        8053 |
|     116 | 0x1F76      |        8054 |
|     117 | 0x1F77      |        8055 |
|     118 | 0x1F78      |        8056 |
|     119 | 0x1F79      |        8057 |
|     120 | 0x1F7A      |        8058 |
|     121 | 0x1F7B      |        8059 |
|     122 | 0x1F7C      |        8060 |
|     123 | 0x0008      |           8 |
|     124 | 0x1F7D      |        8061 |
|     125 | 0x0009      |           9 |
|     126 | 0x1F7E      |        8062 |
|     127 | 0x1F7F      |        8063 |
|     128 | 0x000B      |          11 |
|     129 | 0x1F80      |        8064 |
|     130 | 0x000C      |          12 |
|     131 | 0x1F81      |        8065 |
|     132 | 0x1F82      |        8066 |
|     133 | 0x000E      |          14 |
|     134 | 0x1F83      |        8067 |
|     135 | 0x000F      |          15 |
|     136 | 0x1F84      |        8068 |
|     137 | 0x1F85      |        8069 |
|     138 | 0x1F86      |        8070 |
|     139 | 0x1F87      |        8071 |
|     140 | 0x1F88      |        8072 |
|     141 | 0x1F89      |        8073 |
|     142 | 0x1F8A      |        8074 |
|     143 | 0x1F8B      |        8075 |
|     144 | 0x1F8C      |        8076 |
|     145 | 0x1F8D      |        8077 |
|     146 | 0x1F8E      |        8078 |
|     147 | 0x1F8F      |        8079 |
|     148 | 0x1F90      |        8080 |
|     149 | 0x1F91      |        8081 |
|     150 | 0x1F92      |        8082 |
|     151 | 0x1F93      |        8083 |
|     152 | 0x1F94      |        8084 |
|     153 | 0x1F95      |        8085 |
|     154 | 0x1F96      |        8086 |
|     155 | 0x1F99      |        8089 |
|     156 | 0x1F9A      |        8090 |
|     157 | 0x1F9D      |        8093 |
|     158 | 0x1F9E      |        8094 |
|     159 | 0x1FA1      |        8097 |
|     160 | 0x1FA2      |        8098 |
|     161 | 0x1F97      |        8087 |
|     162 | 0x1F98      |        8088 |
|     163 | 0x1F9B      |        8091 |
|     164 | 0x1F9C      |        8092 |
|     165 | 0x1F9F      |        8095 |
|     166 | 0x1FA0      |        8096 |
|     167 | 0x1FA3      |        8099 |
|     168 | 0x1FA4      |        8100 |
|     169 | 0x1FA5      |        8101 |
|     170 | 0x1FA6      |        8102 |
|     171 | 0x1FA7      |        8103 |
|     172 | 0x1FA8      |        8104 |
|     173 | 0x1FA9      |        8105 |
|     174 | 0x1FAA      |        8106 |
|     175 | 0x1FAB      |        8107 |
|     176 | 0x1FAC      |        8108 |
|     177 | 0x1FAD      |        8109 |
|     178 | 0x1FAE      |        8110 |
|     179 | 0x1FAF      |        8111 |
|     180 | 0x1FB0      |        8112 |
|     181 | 0x1FB1      |        8113 |
|     182 | 0x1FB2      |        8114 |
|     183 | 0x1FB3      |        8115 |
|     184 | 0x1FB4      |        8116 |
|     185 | 0x1EA6      |        7846 |
|     186 | 0x1E81      |        7809 |
|     187 | 0x1E78      |        7800 |
|     188 | 0x1E51      |        7761 |
|     189 | 0x1DFE      |        7678 |
|     190 | 0xFFFFFF7B  |  4294967163 |
|     191 | 0x0D04      |        3332 |
|     192 | 0x0C08      |        3080 |
|     193 | 0x0AD2      |        2770 |
|     194 | 0x03A8      |         936 |
|     195 | 0x0837      |        2103 |
|     196 | 0x1A48      |        6728 |
|     197 | 0x1A49      |        6729 |
|     198 | 0x1A4A      |        6730 |
|     199 | 0x1A4B      |        6731 |
|     200 | 0x1A4C      |        6732 |
|     201 | 0x1A4D      |        6733 |
|     202 | 0x1A4E      |        6734 |
|     203 | 0x1A4F      |        6735 |
|     204 | 0x010C      |         268 |
|     205 | 0x1A56      |        6742 |
|     206 | 0x1A57      |        6743 |
|     207 | 0x1E36      |        7734 |
|     208 | 0x1E37      |        7735 |
|     209 | 0x1EB5      |        7861 |
|     210 | 0x1EB6      |        7862 |
|     211 | 0x1EB7      |        7863 |
|     212 | 0x1B91      |        7057 |
|     213 | 0x1B92      |        7058 |
|     214 | 0x0023      |          35 |
|     215 | 0x1B93      |        7059 |
|     216 | 0x1B94      |        7060 |
|     217 | 0x1B95      |        7061 |
|     218 | 0x1B96      |        7062 |
|     219 | 0x1B97      |        7063 |
|     220 | 0x1B98      |        7064 |
|     221 | 0x1B9A      |        7066 |
|     222 | 0x1B99      |        7065 |
|     223 | 0x1B9B      |        7067 |
|     224 | 0x1B9D      |        7069 |
|     225 | 0x1B9E      |        7070 |
|     226 | 0x1B9F      |        7071 |
|     227 | 0x1BA0      |        7072 |
|     228 | 0x1BA1      |        7073 |
|     229 | 0x1BA2      |        7074 |
|     230 | 0x1BA3      |        7075 |
|     231 | 0x1BA4      |        7076 |
|     232 | 0x1BA5      |        7077 |
|     233 | 0x1B9C      |        7068 |
|     234 | 0x1BA8      |        7080 |
|     235 | 0x1BAA      |        7082 |
|     236 | 0x1BAB      |        7083 |
|     237 | 0x1BAC      |        7084 |
|     238 | 0x1BAE      |        7086 |
|     239 | 0x1BAF      |        7087 |
|     240 | 0x1BB0      |        7088 |
|     241 | 0x1BB1      |        7089 |
|     242 | 0x1BB2      |        7090 |
|     243 | 0x1BA9      |        7081 |
|     244 | 0x1BAD      |        7085 |
|     245 | 0x1BB4      |        7092 |
|     246 | 0x1BB5      |        7093 |
|     247 | 0x1BB6      |        7094 |
|     248 | 0x1BB7      |        7095 |
|     249 | 0x1BB8      |        7096 |
|     250 | 0x1BB9      |        7097 |
|     251 | 0x1BBA      |        7098 |
|     252 | 0x0021      |          33 |
|     253 | 0x1BBB      |        7099 |
|     254 | 0x1BBC      |        7100 |
|     255 | 0x1BBD      |        7101 |
|     256 | 0x1BBE      |        7102 |
|     257 | 0x1BBF      |        7103 |
|     258 | 0x1BCB      |        7115 |
|     259 | 0x069E      |        1694 |
|     260 | 0x0ECC      |        3788 |
|     261 | 0x1BE0      |        7136 |
|     262 | 0x1BE1      |        7137 |
|     263 | 0x1BE2      |        7138 |
|     264 | 0x1BE3      |        7139 |
|     265 | 0x1BE4      |        7140 |
|     266 | 0x1BE5      |        7141 |
|     267 | 0x1BE6      |        7142 |
|     268 | 0x1BE7      |        7143 |
|     269 | 0x1BE8      |        7144 |
|     270 | 0x1BE9      |        7145 |
|     271 | 0x1BEA      |        7146 |
|     272 | 0x1C04      |        7172 |
|     273 | 0x1C6A      |        7274 |
|     274 | 0x1C6B      |        7275 |
|     275 | 0x1C70      |        7280 |
|     276 | 0x1C71      |        7281 |
|     277 | 0x0024      |          36 |
|     278 | 0x1C72      |        7282 |
|     279 | 0x1C73      |        7283 |
|     280 | 0x1A30      |        6704 |
|     281 | 0x1A31      |        6705 |
|     282 | 0x1A32      |        6706 |
|     283 | 0x1A33      |        6707 |
|     284 | 0x001B      |          27 |
|     285 | 0x1DC7      |        7623 |
|     286 | 0x1DC9      |        7625 |
|     287 | 0x1DCB      |        7627 |
|     288 | 0x1DCC      |        7628 |
|     289 | 0x1DD0      |        7632 |
|     290 | 0x1DD4      |        7636 |
|     291 | 0xFFFFFA61  |  4294965857 |
|     292 | 0xA0F7      |       41207 |
|     293 | 0xFFFFF2BA  |  4294963898 |
|     294 | 0x0D50      |        3408 |
|     295 | 0x0120      |         288 |
|     296 | 0x1A99      |        6809 |
|     297 | 0x1A9A      |        6810 |
|     298 | 0x1A9B      |        6811 |
|     299 | 0x1A9C      |        6812 |
|     300 | 0x1AA6      |        6822 |
|     301 | 0x1AA7      |        6823 |
|     302 | 0x035F      |         863 |
|     303 | 0x62A8      |       25256 |
|     304 | 0xFFFFFA24  |  4294965796 |
|     305 | 0x0BD1      |        3025 |
|     306 | 0x87F5      |       34805 |
|     307 | 0x0BD6      |        3030 |
|     308 | 0x9340      |       37696 |
|     309 | 0x2061      |        8289 |
|     310 | 0x2062      |        8290 |
|     311 | 0x2063      |        8291 |
|     312 | 0x2064      |        8292 |
|     313 | 0x2065      |        8293 |
|     314 | 0x20F4      |        8436 |
|     315 | 0x20F5      |        8437 |
|     316 | 0x01F8      |         504 |
|     317 | 0x26A4      |        9892 |
|     318 | 0xFFFFFA25  |  4294965797 |
|     319 | 0x0050      |          80 |
|     320 | 0x21A5      |        8613 |
|     321 | 0x07F9      |        2041 |
|     322 | 0xFFFFFCAB  |  4294966443 |
|     323 | 0x0C8C      |        3212 |
|     324 | 0x02FA      |         762 |
|     325 | 0x21A6      |        8614 |
|     326 | 0x21A7      |        8615 |
|     327 | 0x21A8      |        8616 |
|     328 | 0x21A9      |        8617 |
|     329 | 0x21AA      |        8618 |
|     330 | 0x21AB      |        8619 |
|     331 | 0x21AC      |        8620 |
|     332 | 0x21AD      |        8621 |
|     333 | 0x21AE      |        8622 |
|     334 | 0x21AF      |        8623 |
|     335 | 0x21B0      |        8624 |
|     336 | 0x21B1      |        8625 |
|     337 | 0x21B2      |        8626 |
|     338 | 0x21B3      |        8627 |
|     339 | 0x21B4      |        8628 |
|     340 | 0x21B5      |        8629 |
|     341 | 0x21B6      |        8630 |
|     342 | 0x00D7      |         215 |
|     343 | 0xFFFFEC56  |  4294962262 |
|     344 | 0xFFFFFAD9  |  4294965977 |
|     345 | 0xFFFFE5B0  |  4294960560 |
|     346 | 0xFFFFFB18  |  4294966040 |

## String References

- **6704**: What's this, then? Someone gave you this envelope, did they?
- **6705**: Wh-what is this!?
- **6706**: This rubbish does not fool me! I know a forgery when I see one.
- **6707**: Most unpleasant. Do not speak to me of this matter again!
- **6809**: <Player>, I assume an adventurer of your stature has heard the rumors of Princess Claidie's coming-of-age ceremony.
- **6810**: This ceremony is a piece of d'Oraguille tradition and requires much preparation. This is where your assistance is necessary.
- **6811**: Travel to the Fountain of Kings located within the Quicksand Caves, and bring back $6.
- **6812**: The princess is always speaking of your deeds for the Kingdom. Everyone here is counting on you, <Player>.
- **6822**: Ah, $3. These were used during the princes' ceremonies as well.
- **6823**: Tradition prohibits us from allowing you to attend the ceremony, but feel free to view it. The princess would be delighted at your presence.
- **7057**: Ah, you are <Player>, are you not? I've heard word of you from the gatehouse. We've got a mission for you--a special mission.
- **7058**: Our scouts say the beastmen are rising again... Not just here, but in lands abroad. We want you to go to Bastok and Windurst and see how they fare.
- **7059**: While there, you can be recognized by both nations, with $6. Not a bad deal, is it?
- **7060**: I hereby order you on official business. Visit the two countries of Bastok and Windurst, and receive recognition as an adventurer.
- **7061**: Here is a letter of introduction to the consulates of San d'Oria. Just hand it to the consul, and they'll know what to do with you.
- **7062**: The consulate will give you further orders. Once both countries have given you official recognition, come back here. I will issue you your $3.
- **7063**: This will be your first journey abroad, <Player>, no? None can tell what adventures await. Take care, and come home safe.
- **7064**: First you must visit the San d'Orian consulates in Bastok and Windurst. The consuls there will give you further orders.
- **7065**: Ah, it's you, <Player>. How are things in lands abroad? Come back once you've been officially recognized. I have every confidence in you.
- **7066**: You are within the walls of Chateau d'Oraguille, home of royalty. Conduct yourself accordingly.
- **7067**: An adventurer from Bastok, are you? Well, you have my respect for coming all the way here.
- **7068**: An adventurer from Windurst, are you? Well, you have my respect for coming all the way here.
- **7069**: But know you this: our Kingdom of San d'Oria has no intention of showing a friendly facade to either Bastok or Windurst.
- **7070**: How you classless mobs could ever think to stand shoulder-to-shoulder with the Elvaan is, frankly, beyond me.
- **7071**: Yet on you come--impertinent stuttering shrimps, lumbering ore-heads, purring fur-balls! It's simply unacceptable.
- **7072**: But, enough of that...
- **7073**: Here is your mission: infiltrate Ghelsba Outpost, northwest of San d'Oria.
- **7074**: In the middle of the Ghelsba camps is a place called the highland encampment. We want you to defeat the camp head, a "Warchief Vatgit."
- **7075**: You'll find the encampment a little ways into Ghelsba. Go in, cross the river, and you'll see the camps up on a ridge to the east.
- **7076**: When you've finished, if you aren't Orc fodder, report back to your own consulate. We don't take kindly to foreigners loitering around the chateau, if you get my meaning.
- **7077**: The Orcs aren't so much of a problem that the Kingdom need worry about sending out knights. Let the adventurers clean them up for pocket change--that is our policy.
- **7080**: An adventurer from Bastok, are you? Consul Helaku sent word about you. You look able, that's for sure.
- **7081**: An adventurer from Windurst, are you? Consul Kasaroro sent word about you. You look able, that's for sure.
- **7082**: Well, you may never reach the glory of the Royal Knights, but do good work, and you'll be rewarded accordingly.
- **7083**: Here is our dilemma. The Orcs have set up a front-line base of operations in a place called Ghelsba Outpost, northwest of San d'Oria.
- **7084**: You're familiar with the Quadav, no? Well, Orcs are just like them. A vicious and barbaric race, and quite stupid to boot.
- **7085**: You're familiar with the Yagudo, no? Well, Orcs are just like them. A vicious and barbaric race, and quite stupid to boot.
- **7086**: The problem is, those Orcs have been showing signs of intelligence lately. They've started using ranged weapons...even machines of war!
- **7087**: Our investigations indicate that someone is behind the Orcs, supplying them with weapons.
- **7088**: We want you to find a cavern deep in Ghelsba Outpost--a place called Yughott Grotto.
- **7089**: We've sent many an adventurer to Yughott Grotto, but few have returned, and we are desperate for knowledge.
- **7090**: There may be some...danger involved, but if you provide us with useful information, formal recognition from the Kingdom of San d'Oria will be yours.
- **7092**: Well, <Player>, it's good to see you again. Let's see the report you've brought back, then!
- **7093**: The Shadow Lord...back!? That's impossible! He was slain by our forces in the Great War twenty years ago...
- **7094**: What!? The nether beasts have broken out into this land? This is dire news, indeed!
- **7095**: If this report is true, we must take action.
- **7096**: Hmm...but, to be honest, I find it hard to believe.
- **7097**: Very well. I will take this report. You will be issued $6, as promised.
- **7098**: Your latest accomplishment raises your mission rank to 3. Congratulations.
- **7099**: You must be weary. Be at ease in this chateau. There is much here to soothe the mind and warm the spirit.
- **7100**: I've been waiting for you, <Player>. As you've probably already heard from the gatehouse, you are to report to the Embassy of San d'Oria at Jeuno.
- **7101**: Our relations with Jeuno are vital to maintaining the balance of power between our Kingdom of San d'Oria, Windurst, and Bastok.
- **7102**: You will receive your letter of introduction to Jeuno from His Majesty Royaulais Destin himself. Great honor this is!
- **7103**: Proceed through the door to the audience chamber. The king is waiting for you. Remember to mind protocol!
- **7115**: Get to Jeuno, and take that letter of introduction with you. Ambassador Jima is anxious to see you!
- **7136**: We've come to a decision at last, <Player>. We will send an expedition to the accursed Northlands.
- **7137**: It will go to the ancient ruins of Fei'Yin, northeast of the Beaucedine Glacier. Of course, you'll be going, too.
- **7138**: The ruins are those of a city built by an ancient civilization that we believe was more advanced than our own.
- **7139**: The race that lived there called themselves the Zilart. We have found similar ruins on Cape Teriggan to the south.
- **7140**: Amazingly they both remain, though they were built long ago. It is as if some unseen force defies time to protect them.
- **7141**: Once, thirty years ago, an international expedition was sent to the Northlands. They were to uncover the secret of the Zilart's power.
- **7142**: They returned empty-handed. We need you to head to the Beaucedine Glacier and scour the ruins of Fei'Yin yourself.
- **7143**: The ruins are overrun with fiends, you know. We captured it from the Shadow Lord twenty years ago at the cost of many lives.
- **7144**: We set a seal on the ruined coliseum to strengthen the barrier of the Northlands from the inside.
- **7145**: You must find it, and use this new seal to strengthen its magic if necessary.
- **7146**: Yes, I'm concerned about the Shadow Lord's return. But if the border falls and the nether beasts pass into our realm, all in this world will fall to ruin.
- **7172**: Ah, <Player>, is it not? Prince Trion was looking for you.
- **7274**: The prince seems...troubled that a decision has not been made on what action to take. Take care not to further ruffle any royal feathers.
- **7275**: Prince Trion went to his chambers a short while ago and has yet to return. You should go speak with him there.
- **7280**: <Player>! I knew you were the one for the job. But don't rest on your laurels!
- **7281**: With the success of this last mission, I formally bestow upon you: mission rank six.
- **7282**: The terror of the Shadow Lord is past. But Vana'diel is never at rest, and our kingdom needs you to watch over it. Vigilance, always!
- **7283**: Go, <Player>. His Majesty awaits!
- **7623**: So, you're saying nothing was actually taken?
- **7625**: The chambers are as they were when the queen passed away. Might she have left something of importance?
- **7627**: Hmm. However, it has come to my attention that $1 has been circulating outside the castle.
- **7628**: If the thieves possess these floor plans, then perhaps they have motives other than just stealing treasure.
- **7632**: Please be at ease, Your Holiness. The Temple Knights have determined that the thieves stole nothing from the chateau.
- **7636**: Of course, Your Holiness. I will order the Temple Knights to continue their investigation, and have them inform you if they find anything.
- **7678**: Ah, it is you, <Player>. I was beginning to wonder who would be chosen for this next mission. You may proceed to the Audience Chamber.
- **7761**: With the recovery of the royaulais, the Rites of Succession will soon be upon us. The preparations for such an important ceremony will create many sleepless nights for those of us working here in the chateau.
- **7800**: <Player>! We can count on your assistance in our country's time of need, can we not? This is no longer a matter that can be handled by the royal family alone!
- **7809**: <Player>! I never doubted your ability on the front line. We are truly in your debt. Proceed to the Audience Chamber. His Highness awaits!
- **7846**: Proceed to King Ranperre's Tomb with caution. We must be on our guard until Lightbringer has been returned to its proper resting place.
- **8053**: Prince Trion prefers Hume girls with blonde hair that almost hides the eyebrows and is tied back in a short ponytail.
- **8054**: Prince Trion prefers Hume girls with brown hair that almost hides the eyebrows and is tied back in a short ponytail.
- **8055**: Prince Trion prefers Hume girls with long blonde hair parted on the left and tied back in a ponytail.
- **8056**: Prince Trion prefers Hume girls with long black hair parted on the left and tied back in a ponytail.
- **8057**: Prince Trion prefers Hume girls with flowing, shoulder-length black hair.
- **8058**: Prince Trion prefers Hume girls with flowing, shoulder-length chestnut-colored hair.
- **8059**: Prince Trion prefers Hume girls with short black hair brushed neatly over to the right.
- **8060**: Prince Trion prefers Hume girls with short blonde hair brushed neatly over to the right.
- **8061**: Prince Trion prefers Hume girls with short-cropped blonde hair that stands up in the front.
- **8062**: Prince Trion prefers Hume girls with short-cropped brown hair that stands up in the front.
- **8063**: Prince Trion prefers Hume girls with long black hair brushed over to the left.
- **8064**: Prince Trion prefers Hume girls with long brown hair brushed over to the left.
- **8065**: Prince Trion prefers Hume girls with very short, wavy brown hair.
- **8066**: Prince Trion prefers Hume girls with very short, wavy blonde hair.
- **8067**: Prince Trion prefers Hume girls with short brown hair brushed to the right in the front, and tied in a small ponytail in the back.
- **8068**: Prince Trion prefers Hume girls with short blonde hair brushed to the right in the front, and tied in a small ponytail in the back.
- **8069**: Prince Trion prefers Elvaan girls with shoulder-length blonde hair parted in the middle.
- **8070**: Prince Trion prefers Elvaan girls with shoulder-length red hair parted in the middle.
- **8071**: Prince Trion prefers Elvaan girls with pinned-up, braided silver hair.
- **8072**: Prince Trion prefers Elvaan girls with pinned-up, braided black hair.
- **8073**: Prince Trion prefers Elvaan girls with blonde hair brushed to the right, and braided on the left.
- **8074**: Prince Trion prefers Elvaan girls with red hair brushed to the right, and braided on the left.
- **8075**: Prince Trion prefers Elvaan girls with blonde hair tied into two braids in the back.
- **8076**: Prince Trion prefers Elvaan girls with red hair tied into two braids in the back.
- **8077**: Prince Trion prefers Elvaan girls with white hair bound backwards while leaving the sides to frame the face.
- **8078**: Prince Trion prefers Elvaan girls with red hair bound backwards while leaving the sides to frame the face.
- **8079**: Prince Trion prefers Elvaan girls with long, straight silver hair parted in the middle.
- **8080**: Prince Trion prefers Elvaan girls with long, straight black hair parted in the middle.
- **8081**: Prince Trion prefers Elvaan girls with shoulder-length silver hair brushed back from the face.
- **8082**: Prince Trion prefers Elvaan girls with shoulder-length black hair brushed back from the face.
- **8083**: Prince Trion prefers Elvaan girls with black hair braided behind the left ear.
- **8084**: Prince Trion prefers Elvaan girls with silver hair braided behind the left ear.
- **8085**: Prince Trion prefers Tarutaru girls with red hair parted in the front, and tied back in a ponytail.
- **8086**: Prince Trion prefers Tarutaru girls with reddish-blonde hair parted in the front, and tied back in a ponytail.
- **8087**: Prince Trion prefers Tarutaru girls with blue hair parted in the front, and tied back in a ponytail.
- **8088**: Prince Trion prefers Tarutaru girls with brown hair parted in the front, and tied back in a ponytail.
- **8089**: Prince Trion prefers Tarutaru girls with bluish-black hair tied in three braids and cut straight across the forehead.
- **8090**: Prince Trion prefers Tarutaru girls with green hair tied in three braids and cut straight across the forehead.
- **8091**: Prince Trion prefers Tarutaru girls with silver hair tied in three braids and cut straight across the forehead.
- **8092**: Prince Trion prefers Tarutaru girls with bluish-white hair tied in three braids and cut straight across the forehead.
- **8093**: Prince Trion prefers Tarutaru girls with brown hair tied up in two pigtails.
- **8094**: Prince Trion prefers Tarutaru girls with red hair tied up in two pigtails.
- **8095**: Prince Trion prefers Tarutaru girls with green hair tied up in two pigtails.
- **8096**: Prince Trion prefers Tarutaru girls with blonde hair tied up in two pigtails.
- **8097**: Prince Trion prefers Tarutaru girls with voluminous blonde hair parted in two and tied back behind the ears.
- **8098**: Prince Trion prefers Tarutaru girls with voluminous reddish-blonde hair parted in two and tied back behind the ears.
- **8099**: Prince Trion prefers Tarutaru girls with voluminous brown hair parted in two and tied back behind the ears.
- **8100**: Prince Trion prefers Tarutaru girls with voluminous green hair parted in two and tied back behind the ears.
- **8101**: Prince Trion prefers Mithra with longish red hair held back with a brown band.
- **8102**: Prince Trion prefers Mithra with longish chestnut-colored hair held back with a red band.
- **8103**: Prince Trion prefers Mithra with short white hair and white markings on the cheeks.
- **8104**: Prince Trion prefers Mithra with short silver hair and white markings on the cheeks.
- **8105**: Prince Trion prefers Mithra with silver hair cut straight across the forehead, and white markings around the eyes and on the cheeks.
- **8106**: Prince Trion prefers Mithra with red hair cut straight across the forehead, and purple markings around the eyes and on the cheeks.
- **8107**: Prince Trion prefers Mithra with blonde hair tied in two braids on either side of the face.
- **8108**: Prince Trion prefers Mithra with red hair tied in two braids on either side of the face.
- **8109**: Prince Trion prefers Mithra with voluminous red hair tied back with a lavender ribbon.
- **8110**: Prince Trion prefers Mithra with voluminous chestnut-colored hair tied back with a lavender ribbon.
- **8111**: Prince Trion prefers Mithra with wild white hair flowing over a headband.
- **8112**: Prince Trion prefers Mithra with wild red hair flowing over a headband.
- **8113**: Prince Trion prefers Mithra with blonde hair that almost hides the eyebrows, and is tied back in a short ponytail.
- **8114**: Prince Trion prefers Mithra with brown hair that almost hides the eyebrows, and is tied back in a short ponytail.
- **8115**: Prince Trion prefers Mithra with a colorful headband and brown hair tied in the back in two small pigtails.
- **8116**: Prince Trion prefers Mithra with a colorful headband and blonde hair tied in the back in two small pigtails.
- **8123**: You have been unable to find a suitable bride for Prince Trion? Well, I will not ask you to do the impossible.
- **8124**: Give up the search? [Yes, this is impossible!/No, the prince shall have his consort!]
- **8125**: I do not hold it against you. If a fitting bride is nowhere to be found, then there is little we can do. Forget this little task and return to your life, adventurer.
- **8126**: I am counting on you, <Player>. Let me give you the description again, in case you have forgotten. According to Prince Pieuje...
- **8127**: When you find someone matching the description, bring them here as a member of your party. Dismissed.
- **8173**: I hope you will continue to offer your services to the Kingdom.
- **8175**: [As there are no party members/As there are no female party members], you are unable to see this event.
- **8177**: The member who accompanied you in this event has left your party. Event canceled.
- **8289**: <Player>'s badge flashes brightly.
- **8290**: It appears the Empire of Aht Urhgan is desperate to recruit mercenaries. I assume that is the function of the badge you wear?
- **8291**: And how would I know such a thing, you ask? Through the now ruined nation of Tavnazia, San d'Oria once had much traffic with the Near East.
- **8292**: Those ties persist to this day, and we yet maintain a perfunctory level of international diplomacy. All manner of information makes its way to my ears.
- **8293**: However, there is one thing I struggle to understand. Why would a nation with enough military power to have her neighbors trembling in fear need to ask for assistance...?
- **8436**: <Player>. Arrangements for the meeting will be made in all haste.
- **8437**: Make your way to Jeuno as soon as your preparations are complete.

## Events

### Event 65535

#### Metadata

| Field        | Value   |
|--------------|---------|
| Entrypoint   | 0x0000  |
| Data Size    | 1 bytes |
| Instructions | 1       |

```
      00 01 02 03 04 05 06 07  08 09 0A 0B 0C 0D 0E 0F
      -- -- -- -- -- -- -- --  -- -- -- -- -- -- -- --
0000: 00                                                .               
```

#### Opcodes

```
  0: 0x0000 [0x00] END_REQSTACK()
```

### Event 65535.1

#### Metadata

| Field        | Value    |
|--------------|----------|
| Entrypoint   | 0x0001   |
| Data Size    | 10 bytes |
| Instructions | 2        |

```
      00 01 02 03 04 05 06 07  08 09 0A 0B 0C 0D 0E 0F
      -- -- -- -- -- -- -- --  -- -- -- -- -- -- -- --
0000:    37 00 80 01 80 02 80  03 80 00                  7.........     
```

#### Opcodes

```
  0: 0x0001 [0x37] UPDATE_EVENT_POSITION_AND_DIR: x=2.420*, z=1.966*, y=0.000*, direction=103.0°*
  1: 0x000A [0x00] END_REQSTACK()
```

### Event 65535.2

#### Metadata

| Field        | Value    |
|--------------|----------|
| Entrypoint   | 0x000B   |
| Data Size    | 29 bytes |
| Instructions | 3        |

```
      00 01 02 03 04 05 06 07  08 09 0A 0B 0C 0D 0E 0F
      -- -- -- -- -- -- -- --  -- -- -- -- -- -- -- --
0000:                                   66 04 80 F8 FF             f....
0010: FF 7F F8 FF FF 7F 73 6C  30 30 53 F8 FF FF 7F F8  ......sl00S.....
0020: FF FF 7F 73 6C 30 30 00                           ...sl00.        
```

#### Opcodes

```
  0: 0x000B [0x66] LOAD_EXT_SCHEDULER_MAIN: Load scheduler "sl00" with entities [EventEntity, EventEntity], work=21*
  1: 0x001A [0x53] WAIT_SCHEDULER_TASK: Wait for scheduler "sl00" with entities [EventEntity, EventEntity]
  2: 0x0027 [0x00] END_REQSTACK()
```

### Event 65535.3

#### Metadata

| Field        | Value    |
|--------------|----------|
| Entrypoint   | 0x0028   |
| Data Size    | 29 bytes |
| Instructions | 3        |

```
      00 01 02 03 04 05 06 07  08 09 0A 0B 0C 0D 0E 0F
      -- -- -- -- -- -- -- --  -- -- -- -- -- -- -- --
0020:                          66 05 80 F8 FF FF 7F F8          f.......
0030: FF FF 7F 70 61 73 30 53  F8 FF FF 7F F8 FF FF 7F  ...pas0S........
0040: 70 61 73 30 00                                    pas0.           
```

#### Opcodes

```
  0: 0x0028 [0x66] LOAD_EXT_SCHEDULER_MAIN: Load scheduler "pas0" with entities [EventEntity, EventEntity], work=20*
  1: 0x0037 [0x53] WAIT_SCHEDULER_TASK: Wait for scheduler "pas0" with entities [EventEntity, EventEntity]
  2: 0x0044 [0x00] END_REQSTACK()
```

### Event 65535.4

#### Metadata

| Field        | Value    |
|--------------|----------|
| Entrypoint   | 0x0045   |
| Data Size    | 29 bytes |
| Instructions | 3        |

```
      00 01 02 03 04 05 06 07  08 09 0A 0B 0C 0D 0E 0F
      -- -- -- -- -- -- -- --  -- -- -- -- -- -- -- --
0040:                66 05 80  F8 FF FF 7F F8 FF FF 7F       f..........
0050: 74 6C 6B 30 53 F8 FF FF  7F F8 FF FF 7F 74 6C 6B  tlk0S........tlk
0060: 30 00                                             0.              
```

#### Opcodes

```
  0: 0x0045 [0x66] LOAD_EXT_SCHEDULER_MAIN: Load scheduler "tlk0" with entities [EventEntity, EventEntity], work=20*
  1: 0x0054 [0x53] WAIT_SCHEDULER_TASK: Wait for scheduler "tlk0" with entities [EventEntity, EventEntity]
  2: 0x0061 [0x00] END_REQSTACK()
```

### Event 65535.5

#### Metadata

| Field        | Value    |
|--------------|----------|
| Entrypoint   | 0x0062   |
| Data Size    | 29 bytes |
| Instructions | 3        |

```
      00 01 02 03 04 05 06 07  08 09 0A 0B 0C 0D 0E 0F
      -- -- -- -- -- -- -- --  -- -- -- -- -- -- -- --
0060:       66 05 80 F8 FF FF  7F F8 FF FF 7F 74 6C 6B    f..........tlk
0070: 31 53 F8 FF FF 7F F8 FF  FF 7F 74 6C 6B 31 00     1S........tlk1. 
```

#### Opcodes

```
  0: 0x0062 [0x66] LOAD_EXT_SCHEDULER_MAIN: Load scheduler "tlk1" with entities [EventEntity, EventEntity], work=20*
  1: 0x0071 [0x53] WAIT_SCHEDULER_TASK: Wait for scheduler "tlk1" with entities [EventEntity, EventEntity]
  2: 0x007E [0x00] END_REQSTACK()
```

### Event 65535.6

#### Metadata

| Field        | Value    |
|--------------|----------|
| Entrypoint   | 0x007F   |
| Data Size    | 29 bytes |
| Instructions | 3        |

```
      00 01 02 03 04 05 06 07  08 09 0A 0B 0C 0D 0E 0F
      -- -- -- -- -- -- -- --  -- -- -- -- -- -- -- --
0070:                                               66                 f
0080: 05 80 F8 FF FF 7F F8 FF  FF 7F 74 68 6B 31 53 F8  ..........thk1S.
0090: FF FF 7F F8 FF FF 7F 74  68 6B 31 00              .......thk1.    
```

#### Opcodes

```
  0: 0x007F [0x66] LOAD_EXT_SCHEDULER_MAIN: Load scheduler "thk1" with entities [EventEntity, EventEntity], work=20*
  1: 0x008E [0x53] WAIT_SCHEDULER_TASK: Wait for scheduler "thk1" with entities [EventEntity, EventEntity]
  2: 0x009B [0x00] END_REQSTACK()
```

### Event 65535.7

#### Metadata

| Field        | Value    |
|--------------|----------|
| Entrypoint   | 0x009C   |
| Data Size    | 29 bytes |
| Instructions | 3        |

```
      00 01 02 03 04 05 06 07  08 09 0A 0B 0C 0D 0E 0F
      -- -- -- -- -- -- -- --  -- -- -- -- -- -- -- --
0090:                                      66 05 80 F8              f...
00A0: FF FF 7F F8 FF FF 7F 74  68 6B 32 53 F8 FF FF 7F  .......thk2S....
00B0: F8 FF FF 7F 74 68 6B 32  00                       ....thk2.       
```

#### Opcodes

```
  0: 0x009C [0x66] LOAD_EXT_SCHEDULER_MAIN: Load scheduler "thk2" with entities [EventEntity, EventEntity], work=20*
  1: 0x00AB [0x53] WAIT_SCHEDULER_TASK: Wait for scheduler "thk2" with entities [EventEntity, EventEntity]
  2: 0x00B8 [0x00] END_REQSTACK()
```

### Event 563

#### Metadata

| Field        | Value   |
|--------------|---------|
| Entrypoint   | 0x00B9  |
| Data Size    | 1 bytes |
| Instructions | 1       |

```
      00 01 02 03 04 05 06 07  08 09 0A 0B 0C 0D 0E 0F
      -- -- -- -- -- -- -- --  -- -- -- -- -- -- -- --
00B0:                             00                             .      
```

#### Opcodes

```
  0: 0x00B9 [0x00] END_REQSTACK()
```

### Event 564

#### Metadata

| Field        | Value   |
|--------------|---------|
| Entrypoint   | 0x00BA  |
| Data Size    | 1 bytes |
| Instructions | 1       |

```
      00 01 02 03 04 05 06 07  08 09 0A 0B 0C 0D 0E 0F
      -- -- -- -- -- -- -- --  -- -- -- -- -- -- -- --
00B0:                                00                           .     
```

#### Opcodes

```
  0: 0x00BA [0x00] END_REQSTACK()
```

### Event 65535.8

#### Metadata

| Field        | Value    |
|--------------|----------|
| Entrypoint   | 0x00BB   |
| Data Size    | 10 bytes |
| Instructions | 2        |

```
      00 01 02 03 04 05 06 07  08 09 0A 0B 0C 0D 0E 0F
      -- -- -- -- -- -- -- --  -- -- -- -- -- -- -- --
00B0:                                   37 02 80 06 80             7....
00C0: 02 80 07 80 00                                    .....           
```

#### Opcodes

```
  0: 0x00BB [0x37] UPDATE_EVENT_POSITION_AND_DIR: x=0.000*, z=-1.665*, y=0.000*, direction=270.0°*
  1: 0x00C4 [0x00] END_REQSTACK()
```

### Event 65535.9

#### Metadata

| Field        | Value    |
|--------------|----------|
| Entrypoint   | 0x00C5   |
| Data Size    | 22 bytes |
| Instructions | 6        |

```
      00 01 02 03 04 05 06 07  08 09 0A 0B 0C 0D 0E 0F
      -- -- -- -- -- -- -- --  -- -- -- -- -- -- -- --
00C0:                03 00 00  08 80 1A 19 01 32 09 80       ........2..
00D0: 1F 00 01 00 02 00 03 00  1F 01 00                 ...........     
```

#### Opcodes

```
  0: 0x00C5 [0x03] ExtData[1]->WorkLocal[0] = 500*
  1: 0x00CA [0x1A] CALL_SUBROUTINE(address=0x0119)
  2: 0x00CD [0x32] ExtData[1]->MainSpeed = 13* * 0.1
  3: 0x00D0 [0x1F] MOVE_ENTITY: EventEntity moves to X=ExtData[1]->WorkLocal[1], Z=ExtData[1]->WorkLocal[2], Y=ExtData[1]->WorkLocal[3]
  4: 0x00D8 [0x1F] MOVE_ENTITY: Update entity position (mode=1)
  5: 0x00DA [0x00] END_REQSTACK()
```

### Event 65535.10

#### Metadata

| Field        | Value    |
|--------------|----------|
| Entrypoint   | 0x00DB   |
| Data Size    | 15 bytes |
| Instructions | 3        |

```
      00 01 02 03 04 05 06 07  08 09 0A 0B 0C 0D 0E 0F
      -- -- -- -- -- -- -- --  -- -- -- -- -- -- -- --
00D0:                                   7B F8 FF FF 7F             {....
00E0: 37 02 80 0A 80 02 80 0B  80 00                    7.........      
```

#### Opcodes

```
  0: 0x00DB [0x7B] EventEntity stops talking
  1: 0x00E0 [0x37] UPDATE_EVENT_POSITION_AND_DIR: x=0.000*, z=3.507*, y=0.000*, direction=90.0°*
  2: 0x00E9 [0x00] END_REQSTACK()
```

### Event 65535.11

#### Metadata

| Field        | Value    |
|--------------|----------|
| Entrypoint   | 0x00EA   |
| Data Size    | 10 bytes |
| Instructions | 2        |

```
      00 01 02 03 04 05 06 07  08 09 0A 0B 0C 0D 0E 0F
      -- -- -- -- -- -- -- --  -- -- -- -- -- -- -- --
00E0:                                37 0C 80 0D 80 02            7.....
00F0: 80 0E 80 00                                       ....            
```

#### Opcodes

```
  0: 0x00EA [0x37] UPDATE_EVENT_POSITION_AND_DIR: x=2.018*, z=2.000*, y=0.000*, direction=181.0°*
  1: 0x00F3 [0x00] END_REQSTACK()
```

### Event 65535.12

#### Metadata

| Field        | Value    |
|--------------|----------|
| Entrypoint   | 0x00F4   |
| Data Size    | 35 bytes |
| Instructions | 9        |

```
      00 01 02 03 04 05 06 07  08 09 0A 0B 0C 0D 0E 0F
      -- -- -- -- -- -- -- --  -- -- -- -- -- -- -- --
00F0:             32 09 80 1F  00 0F 80 10 80 02 80 1F      2...........
0100: 01 6F 39 07 80 6F 70 66  05 80 F8 FF FF 7F F8 FF  .o9..opf........
0110: FF 7F 74 68 6B 31 00                              ..thk1.         
```

#### Opcodes

```
  0: 0x00F4 [0x32] ExtData[1]->MainSpeed = 13* * 0.1
  1: 0x00F7 [0x1F] MOVE_ENTITY: EventEntity moves to X=0.062*, Z=3.526*, Y=0.000*
  2: 0x00FF [0x1F] MOVE_ENTITY: Update entity position (mode=1)
  3: 0x0101 [0x6F] WAIT_FRAME_DELAY: Yield until WaitTime reaches zero
  4: 0x0102 [0x39] SET_ENTITY_DIRECTION(direction=16.9°*)
  5: 0x0105 [0x6F] WAIT_FRAME_DELAY: Yield until WaitTime reaches zero
  6: 0x0106 [0x70] WAIT_ENTITY_RENDER_FLAG: Wait while EventEntity->Render.Flags3 bit 2 is set (cancel turn if not)
  7: 0x0107 [0x66] LOAD_EXT_SCHEDULER_MAIN: Load scheduler "thk1" with entities [EventEntity, EventEntity], work=20*
  8: 0x0116 [0x00] END_REQSTACK()
```

### Event 567

#### Metadata

| Field        | Value   |
|--------------|---------|
| Entrypoint   | 0x0117  |
| Data Size    | 1 bytes |
| Instructions | 1       |

```
      00 01 02 03 04 05 06 07  08 09 0A 0B 0C 0D 0E 0F
      -- -- -- -- -- -- -- --  -- -- -- -- -- -- -- --
0110:                      00                                  .        
```

#### Opcodes

```
  0: 0x0117 [0x00] END_REQSTACK()
```

### Event 568

#### Metadata

| Field        | Value    |
|--------------|----------|
| Entrypoint   | 0x0118   |
| Data Size    | 69 bytes |
| Instructions | 1        |

```
      00 01 02 03 04 05 06 07  08 09 0A 0B 0C 0D 0E 0F
      -- -- -- -- -- -- -- --  -- -- -- -- -- -- -- --
0110:                          00 3B F8 FF FF 7F 01 00          .;......
0120: 02 00 03 00 3A F8 FF FF  7F 04 00 17 05 00 04 00  ....:...........
0130: 00 00 16 06 00 04 00 00  00 07 01 00 05 00 07 02  ................
0140: 00 06 00 1B 17 05 00 04  00 00 00 16 06 00 04 00  ................
0150: 00 00 07 01 00 05 00 07  02 00 06 00 1B           .............   
```

#### Opcodes

```
  0: 0x0118 [0x00] END_REQSTACK()
```

#### Data or dead code:

```
# Dead code (unreachable instructions):
     0x0119 [0x3B] GET_ENTITY_POSITION(entity=EventEntity, x_destination=ExtData[1]->WorkLocal[1], y_destination=ExtData[1]->WorkLocal[2], z_destination=ExtData[1]->WorkLocal[3])
     0x0124 [0x3A] CONVERT_YAW_TO_BYTE(entity=EventEntity, result_destination=ExtData[1]->WorkLocal[4])
     0x012B [0x17] ExtData[1]->WorkLocal[5] = cos(ExtData[1]->WorkLocal[4]) * ExtData[1]->WorkLocal[0]
     0x0132 [0x16] ExtData[1]->WorkLocal[6] = sin(ExtData[1]->WorkLocal[4]) * ExtData[1]->WorkLocal[0]
     0x0139 [0x07] ExtData[1]->WorkLocal[1] += ExtData[1]->WorkLocal[5]
     0x013E [0x07] ExtData[1]->WorkLocal[2] += ExtData[1]->WorkLocal[6]
     0x0143 [0x1B] RETURN
     0x0144 [0x17] ExtData[1]->WorkLocal[5] = cos(ExtData[1]->WorkLocal[4]) * ExtData[1]->WorkLocal[0]
     0x014B [0x16] ExtData[1]->WorkLocal[6] = sin(ExtData[1]->WorkLocal[4]) * ExtData[1]->WorkLocal[0]
     0x0152 [0x07] ExtData[1]->WorkLocal[1] += ExtData[1]->WorkLocal[5]
     0x0157 [0x07] ExtData[1]->WorkLocal[2] += ExtData[1]->WorkLocal[6]
     0x015C [0x1B] RETURN
```

### Event 66

#### Metadata

| Field        | Value      |
|--------------|------------|
| Entrypoint   | 0x015D     |
| Data Size    | 6644 bytes |
| Instructions | 999        |

```
      00 01 02 03 04 05 06 07  08 09 0A 0B 0C 0D 0E 0F
      -- -- -- -- -- -- -- --  -- -- -- -- -- -- -- --
0150:                                         20 01 42                .B
0160: 45 11 80 F8 FF FF 7F F8  FF FF 7F 66 64 6F 31 02  E..........fdo1.
0170: 80 55 11 80 F8 FF FF 7F  F8 FF FF 7F 66 64 6F 31  .U..........fdo1
0180: 03 07 00 02 10 03 09 00  04 10 03 0A 00 05 10 03  ................
0190: 0B 00 06 10 03 0C 00 07  10 02 0C 00 12 80 80 D7  ................
01A0: 01 02 09 00 02 80 00 D4  01 03 02 10 12 80 48 13  ..............H.
01B0: 80 23 45 11 80 F8 FF FF  7F F8 FF FF 7F 66 64 69  .#E..........fdi
01C0: 31 02 80 55 11 80 F8 FF  FF 7F F8 FF FF 7F 66 64  1..U..........fd
01D0: 69 31 21 00 01 15 02 02  0C 00 14 80 80 15 02 02  i1!.............
01E0: 0A 00 15 80 04 12 02 03  02 10 02 80 48 13 80 23  ............H..#
01F0: 45 11 80 F8 FF FF 7F F8  FF FF 7F 66 64 69 31 02  E..........fdi1.
0200: 80 55 11 80 F8 FF FF 7F  F8 FF FF 7F 66 64 69 31  .U..........fdi1
0210: 21 00 01 15 02 02 0A 00  15 80 04 3F 02 45 11 80  !..........?.E..
0220: F8 FF FF 7F F8 FF FF 7F  66 64 69 31 02 80 55 11  ........fdi1..U.
0230: 80 F8 FF FF 7F F8 FF FF  7F 66 64 69 31 21 00 46  .........fdi1!.F
0240: 01 1A A0 19 5C 00 16 80  5C 01 16 80 94 01 07 90  ....\...\.......
0250: 0E 01 38 17 80 4E 01 C1  FF FF 7F 4E 01 C2 FF FF  ..8..N.....N....
0260: 7F 4E 01 C3 FF FF 7F 4E  01 C4 FF FF 7F 4E 01 C5  .N.....N.....N..
0270: FF FF 7F 02 09 00 02 80  80 8B 02 27 03 F0 FF FF  ...........'....
0280: 7F 0D 4E 00 F0 FF FF 7F  01 1B 03 02 09 00 12 80  ..N.............
0290: 80 A3 02 27 03 C1 FF FF  7F 0A 4E 00 C1 FF FF 7F  ...'......N.....
02A0: 01 1B 03 02 09 00 14 80  80 BB 02 27 03 C2 FF FF  ...........'....
02B0: 7F 0A 4E 00 C2 FF FF 7F  01 1B 03 02 09 00 17 80  ..N.............
02C0: 80 D3 02 27 03 C3 FF FF  7F 0A 4E 00 C3 FF FF 7F  ...'......N.....
02D0: 01 1B 03 02 09 00 18 80  80 EB 02 27 03 C4 FF FF  ...........'....
02E0: 7F 0A 4E 00 C4 FF FF 7F  01 1B 03 02 09 00 19 80  ..N.............
02F0: 80 03 03 27 03 C5 FF FF  7F 0A 4E 00 C5 FF FF 7F  ...'......N.....
0300: 01 1B 03 02 09 00 15 80  80 1B 03 27 03 52 90 0E  ...........'.R..
0310: 01 0A 4E 00 52 90 0E 01  01 1B 03 02 0A 00 02 80  ..N.R...........
0320: 80 33 03 27 03 F0 FF FF  7F 06 4E 00 F0 FF FF 7F  .3.'......N.....
0330: 01 C3 03 02 0A 00 12 80  80 4B 03 27 03 C1 FF FF  .........K.'....
0340: 7F 03 4E 00 C1 FF FF 7F  01 C3 03 02 0A 00 14 80  ..N.............
0350: 80 63 03 27 03 C2 FF FF  7F 03 4E 00 C2 FF FF 7F  .c.'......N.....
0360: 01 C3 03 02 0A 00 17 80  80 7B 03 27 03 C3 FF FF  .........{.'....
0370: 7F 03 4E 00 C3 FF FF 7F  01 C3 03 02 0A 00 18 80  ..N.............
0380: 80 93 03 27 03 C4 FF FF  7F 03 4E 00 C4 FF FF 7F  ...'......N.....
0390: 01 C3 03 02 0A 00 19 80  80 AB 03 27 03 C5 FF FF  ...........'....
03A0: 7F 03 4E 00 C5 FF FF 7F  01 C3 03 02 0A 00 15 80  ..N.............
03B0: 80 C3 03 27 03 52 90 0E  01 03 4E 00 52 90 0E 01  ...'.R....N.R...
03C0: 01 C3 03 97 02 80 12 80  45 1A 80 F8 FF FF 7F F8  ........E.......
03D0: FF FF 7F 78 30 30 30 02  80 55 1A 80 F8 FF FF 7F  ...x000..U......
03E0: F8 FF FF 7F 78 30 30 30  45 11 80 F8 FF FF 7F F8  ....x000E.......
03F0: FF FF 7F 66 64 69 31 02  80 55 11 80 F8 FF FF 7F  ...fdi1..U......
0400: F8 FF FF 7F 66 64 69 31  2B 07 90 0E 01 1B 80 23  ....fdi1+......#
0410: 02 09 00 02 80 80 24 04  4A 07 90 0E 01 F0 FF FF  ......$.J.......
0420: 7F 01 9C 04 02 09 00 12  80 80 38 04 4A 07 90 0E  ..........8.J...
0430: 01 C1 FF FF 7F 01 9C 04  02 09 00 14 80 80 4C 04  ..............L.
0440: 4A 07 90 0E 01 C2 FF FF  7F 01 9C 04 02 09 00 17  J...............
0450: 80 80 60 04 4A 07 90 0E  01 C3 FF FF 7F 01 9C 04  ..`.J...........
0460: 02 09 00 18 80 80 74 04  4A 07 90 0E 01 C4 FF FF  ......t.J.......
0470: 7F 01 9C 04 02 09 00 19  80 80 88 04 4A 07 90 0E  ............J...
0480: 01 C5 FF FF 7F 01 9C 04  02 09 00 15 80 80 9C 04  ................
0490: 4A 07 90 0E 01 52 90 0E  01 01 9C 04 1C 1C 80 02  J....R..........
04A0: 07 00 15 80 80 BB 04 45  1A 80 F8 FF FF 7F F8 FF  .......E........
04B0: FF 7F 78 30 30 62 02 80  01 CC 04 45 1A 80 F8 FF  ..x00b.....E....
04C0: FF 7F F8 FF FF 7F 78 30  30 31 02 80 1C 1D 80 66  ......x001.....f
04D0: 05 80 F8 FF FF 7F F8 FF  FF 7F 74 68 6B 31 2B 07  ..........thk1+.
04E0: 90 0E 01 1E 80 23 02 07  00 15 80 80 00 05 55 1A  .....#........U.
04F0: 80 F8 FF FF 7F F8 FF FF  7F 78 30 30 62 01 0F 05  .........x00b...
0500: 55 1A 80 F8 FF FF 7F F8  FF FF 7F 78 30 30 31 45  U..........x001E
0510: 1A 80 F8 FF FF 7F F8 FF  FF 7F 78 30 30 32 02 80  ..........x002..
0520: 55 1A 80 F8 FF FF 7F F8  FF FF 7F 78 30 30 32 02  U..........x002.
0530: 09 00 02 80 80 42 05 2B  07 90 0E 01 1F 80 23 01  .....B.+......#.
0540: A1 05 02 09 00 12 80 80  55 05 2B 07 90 0E 01 20  ........U.+.... 
0550: 80 23 01 A1 05 02 09 00  14 80 80 68 05 2B 07 90  .#.........h.+..
0560: 0E 01 21 80 23 01 A1 05  02 09 00 17 80 80 7B 05  ..!.#.........{.
0570: 2B 07 90 0E 01 22 80 23  01 A1 05 02 09 00 18 80  +....".#........
0580: 80 8E 05 2B 07 90 0E 01  23 80 23 01 A1 05 02 09  ...+....#.#.....
0590: 00 19 80 80 A1 05 2B 07  90 0E 01 24 80 23 01 A1  ......+....$.#..
05A0: 05 2B 07 90 0E 01 25 80  53 F8 FF FF 7F F8 FF FF  .+....%.S.......
05B0: 7F 74 68 6B 31 66 05 80  F8 FF FF 7F F8 FF FF 7F  .thk1f..........
05C0: 74 68 6B 32 53 F8 FF FF  7F F8 FF FF 7F 74 68 6B  thk2S........thk
05D0: 32 32 09 80 39 26 80 6F  70 27 03 0C 90 0E 01 08  22..9&.op'......
05E0: 31 00 27 80 28 80 02 80  29 80 31 01 1C 16 80 2A  1.'.(...).1....*
05F0: 03 0C 90 0E 01 23 1A A0  19 37 2A 80 2B 80 2C 80  .....#...7*.+.,.
0600: 2D 80 02 09 00 02 80 80  14 06 29 03 F0 FF FF 7F  -.........).....
0610: 0E 01 80 06 02 09 00 12  80 80 26 06 29 03 C1 FF  ..........&.)...
0620: FF 7F 0B 01 80 06 02 09  00 14 80 80 38 06 29 03  ............8.).
0630: C2 FF FF 7F 0B 01 80 06  02 09 00 17 80 80 4A 06  ..............J.
0640: 29 03 C3 FF FF 7F 0B 01  80 06 02 09 00 18 80 80  )...............
0650: 5C 06 29 03 C4 FF FF 7F  0B 01 80 06 02 09 00 19  \.).............
0660: 80 80 6E 06 29 03 C5 FF  FF 7F 0B 01 80 06 02 09  ..n.)...........
0670: 00 15 80 80 80 06 27 03  52 90 0E 01 0B 01 80 06  ......'.R.......
0680: 02 0A 00 02 80 80 98 06  27 03 F0 FF FF 7F 07 4E  ........'......N
0690: 00 F0 FF FF 7F 01 28 07  02 0A 00 12 80 80 B0 06  ......(.........
06A0: 27 03 C1 FF FF 7F 04 4E  00 C1 FF FF 7F 01 28 07  '......N......(.
06B0: 02 0A 00 14 80 80 C8 06  27 03 C2 FF FF 7F 04 4E  ........'......N
06C0: 00 C2 FF FF 7F 01 28 07  02 0A 00 17 80 80 E0 06  ......(.........
06D0: 27 03 C3 FF FF 7F 04 4E  00 C3 FF FF 7F 01 28 07  '......N......(.
06E0: 02 0A 00 18 80 80 F8 06  27 03 C4 FF FF 7F 04 4E  ........'......N
06F0: 00 C4 FF FF 7F 01 28 07  02 0A 00 19 80 80 10 07  ......(.........
0700: 27 03 C5 FF FF 7F 04 4E  00 C5 FF FF 7F 01 28 07  '......N......(.
0710: 02 0A 00 15 80 80 28 07  27 03 52 90 0E 01 04 4E  ......(.'.R....N
0720: 00 52 90 0E 01 01 28 07  45 1A 80 F8 FF FF 7F F8  .R....(.E.......
0730: FF FF 7F 78 30 30 33 02  80 45 11 80 F8 FF FF 7F  ...x003..E......
0740: F8 FF FF 7F 66 64 69 31  02 80 32 09 80 27 03 0C  ....fdi1..2..'..
0750: 90 0E 01 07 02 09 00 02  80 80 66 07 27 03 F0 FF  ..........f.'...
0760: FF 7F 0F 01 D2 07 02 09  00 12 80 80 78 07 27 03  ............x.'.
0770: C1 FF FF 7F 0C 01 D2 07  02 09 00 14 80 80 8A 07  ................
0780: 27 03 C2 FF FF 7F 0C 01  D2 07 02 09 00 17 80 80  '...............
0790: 9C 07 27 03 C3 FF FF 7F  0C 01 D2 07 02 09 00 18  ..'.............
07A0: 80 80 AE 07 27 03 C4 FF  FF 7F 0C 01 D2 07 02 09  ....'...........
07B0: 00 19 80 80 C0 07 27 03  C5 FF FF 7F 0C 01 D2 07  ......'.........
07C0: 02 09 00 15 80 80 D2 07  27 03 52 90 0E 01 0C 01  ........'.R.....
07D0: D2 07 02 0A 00 02 80 80  E4 07 27 03 F0 FF FF 7F  ..........'.....
07E0: 08 01 3E 08 02 0A 00 12  80 80 F6 07 27 03 C1 FF  ..>.........'...
07F0: FF 7F 05 01 3E 08 02 0A  00 14 80 80 08 08 27 03  ....>.........'.
0800: C2 FF FF 7F 05 01 3E 08  02 0A 00 17 80 80 1A 08  ......>.........
0810: 27 03 C3 FF FF 7F 05 01  3E 08 02 0A 00 18 80 80  '.......>.......
0820: 2C 08 27 03 C4 FF FF 7F  05 01 3E 08 02 0A 00 19  ,.'.......>.....
0830: 80 80 3E 08 27 03 C5 FF  FF 7F 05 01 3E 08 1F 00  ..>.'.......>...
0840: 2E 80 2B 80 2C 80 1F 01  02 09 00 02 80 80 59 08  ..+.,.........Y.
0850: 2A 03 F0 FF FF 7F 01 BF  08 02 09 00 12 80 80 6A  *..............j
0860: 08 2A 03 C1 FF FF 7F 01  BF 08 02 09 00 14 80 80  .*..............
0870: 7B 08 2A 03 C2 FF FF 7F  01 BF 08 02 09 00 17 80  {.*.............
0880: 80 8C 08 2A 03 C3 FF FF  7F 01 BF 08 02 09 00 18  ...*............
0890: 80 80 9D 08 2A 03 C4 FF  FF 7F 01 BF 08 02 09 00  ....*...........
08A0: 19 80 80 AE 08 2A 03 C5  FF FF 7F 01 BF 08 02 09  .....*..........
08B0: 00 15 80 80 BF 08 2A 03  52 90 0E 01 01 BF 08 2A  ......*.R......*
08C0: 03 0C 90 0E 01 45 1A 80  F8 FF FF 7F F8 FF FF 7F  .....E..........
08D0: 78 30 30 34 02 80 55 1A  80 F8 FF FF 7F F8 FF FF  x004..U.........
08E0: 7F 78 30 30 34 02 0A 00  02 80 80 F7 08 27 03 F0  .x004........'..
08F0: FF FF 7F 0A 01 63 09 02  0A 00 12 80 80 09 09 27  .....c.........'
0900: 03 C1 FF FF 7F 07 01 63  09 02 0A 00 14 80 80 1B  .......c........
0910: 09 27 03 C2 FF FF 7F 07  01 63 09 02 0A 00 17 80  .'.......c......
0920: 80 2D 09 27 03 C3 FF FF  7F 07 01 63 09 02 0A 00  .-.'.......c....
0930: 18 80 80 3F 09 27 03 C4  FF FF 7F 07 01 63 09 02  ...?.'.......c..
0940: 0A 00 19 80 80 51 09 27  03 C5 FF FF 7F 07 01 63  .....Q.'.......c
0950: 09 02 0A 00 15 80 80 63  09 27 03 52 90 0E 01 07  .......c.'.R....
0960: 01 63 09 02 09 00 02 80  80 75 09 27 03 F0 FF FF  .c.......u.'....
0970: 7F 10 01 E1 09 02 09 00  12 80 80 87 09 27 03 C1  .............'..
0980: FF FF 7F 0D 01 E1 09 02  09 00 14 80 80 99 09 27  ...............'
0990: 03 C2 FF FF 7F 0D 01 E1  09 02 09 00 17 80 80 AB  ................
09A0: 09 27 03 C3 FF FF 7F 0D  01 E1 09 02 09 00 18 80  .'..............
09B0: 80 BD 09 27 03 C4 FF FF  7F 0D 01 E1 09 02 09 00  ...'............
09C0: 19 80 80 CF 09 27 03 C5  FF FF 7F 0D 01 E1 09 02  .....'..........
09D0: 09 00 15 80 80 E1 09 27  03 52 90 0E 01 0D 01 E1  .......'.R......
09E0: 09 37 2F 80 30 80 31 80  32 80 45 11 80 F8 FF FF  .7/.0.1.2.E.....
09F0: 7F F8 FF FF 7F 66 64 69  31 02 80 02 09 00 02 80  .....fdi1.......
0A00: 80 0D 0A 27 03 F0 FF FF  7F 11 01 79 0A 02 09 00  ...'.......y....
0A10: 12 80 80 1F 0A 27 03 C1  FF FF 7F 0E 01 79 0A 02  .....'.......y..
0A20: 09 00 14 80 80 31 0A 27  03 C2 FF FF 7F 0E 01 79  .....1.'.......y
0A30: 0A 02 09 00 17 80 80 43  0A 27 03 C3 FF FF 7F 0E  .......C.'......
0A40: 01 79 0A 02 09 00 18 80  80 55 0A 27 03 C4 FF FF  .y.......U.'....
0A50: 7F 0E 01 79 0A 02 09 00  19 80 80 67 0A 27 03 C5  ...y.......g.'..
0A60: FF FF 7F 0E 01 79 0A 02  09 00 15 80 80 79 0A 27  .....y.......y.'
0A70: 03 52 90 0E 01 0E 01 79  0A 02 0A 00 02 80 80 8B  .R.....y........
0A80: 0A 27 03 F0 FF FF 7F 09  01 F7 0A 02 0A 00 12 80  .'..............
0A90: 80 9D 0A 27 03 C1 FF FF  7F 06 01 F7 0A 02 0A 00  ...'............
0AA0: 14 80 80 AF 0A 27 03 C2  FF FF 7F 06 01 F7 0A 02  .....'..........
0AB0: 0A 00 17 80 80 C1 0A 27  03 C3 FF FF 7F 06 01 F7  .......'........
0AC0: 0A 02 0A 00 18 80 80 D3  0A 27 03 C4 FF FF 7F 06  .........'......
0AD0: 01 F7 0A 02 0A 00 19 80  80 E5 0A 27 03 C5 FF FF  ...........'....
0AE0: 7F 06 01 F7 0A 02 0A 00  15 80 80 F7 0A 27 03 52  .............'.R
0AF0: 90 0E 01 06 01 F7 0A 32  09 80 1F 00 2F 80 33 80  .......2..../.3.
0B00: 31 80 1F 01 6F 2B 07 90  0E 01 34 80 23 02 09 00  1...o+....4.#...
0B10: 02 80 80 1D 0B 7B F0 FF  FF 7F 01 7D 0B 02 09 00  .....{.....}....
0B20: 12 80 80 2D 0B 7B C1 FF  FF 7F 01 7D 0B 02 09 00  ...-.{.....}....
0B30: 14 80 80 3D 0B 7B C2 FF  FF 7F 01 7D 0B 02 09 00  ...=.{.....}....
0B40: 17 80 80 4D 0B 7B C3 FF  FF 7F 01 7D 0B 02 09 00  ...M.{.....}....
0B50: 18 80 80 5D 0B 7B C4 FF  FF 7F 01 7D 0B 02 09 00  ...].{.....}....
0B60: 19 80 80 6D 0B 7B C5 FF  FF 7F 01 7D 0B 02 09 00  ...m.{.....}....
0B70: 15 80 80 7D 0B 7B 52 90  0E 01 01 7D 0B 27 03 28  ...}.{R....}.'.(
0B80: 90 0E 01 02 1C 35 80 45  1A 80 F8 FF FF 7F F8 FF  .....5.E........
0B90: FF 7F 78 30 30 36 02 80  55 1A 80 F8 FF FF 7F F8  ..x006..U.......
0BA0: FF FF 7F 78 30 30 36 02  0A 00 02 80 80 B9 0B 27  ...x006........'
0BB0: 03 F0 FF FF 7F 0B 01 25  0C 02 0A 00 12 80 80 CB  .......%........
0BC0: 0B 27 03 C1 FF FF 7F 08  01 25 0C 02 0A 00 14 80  .'.......%......
0BD0: 80 DD 0B 27 03 C2 FF FF  7F 08 01 25 0C 02 0A 00  ...'.......%....
0BE0: 17 80 80 EF 0B 27 03 C3  FF FF 7F 08 01 25 0C 02  .....'.......%..
0BF0: 0A 00 18 80 80 01 0C 27  03 C4 FF FF 7F 08 01 25  .......'.......%
0C00: 0C 02 0A 00 19 80 80 13  0C 27 03 C5 FF FF 7F 08  .........'......
0C10: 01 25 0C 02 0A 00 15 80  80 25 0C 27 03 52 90 0E  .%.......%.'.R..
0C20: 01 08 01 25 0C 37 36 80  37 80 38 80 07 80 32 09  ...%.76.7.8...2.
0C30: 80 1F 00 36 80 39 80 38  80 1F 01 4A 03 90 0E 01  ...6.9.8...J....
0C40: 07 90 0E 01 6F 76 03 90  0E 01 27 03 28 90 0E 01  ....ov....'.(...
0C50: 03 2B 03 90 0E 01 3A 80  23 2A 03 07 90 0E 01 2B  .+....:.#*.....+
0C60: 07 90 0E 01 3B 80 23 2B  03 90 0E 01 3C 80 23 1A  ....;.#+....<.#.
0C70: A0 19 02 09 00 02 80 80  84 0C 27 03 F0 FF FF 7F  ..........'.....
0C80: 12 01 F0 0C 02 09 00 12  80 80 96 0C 27 03 C1 FF  ............'...
0C90: FF 7F 0F 01 F0 0C 02 09  00 14 80 80 A8 0C 27 03  ..............'.
0CA0: C2 FF FF 7F 0F 01 F0 0C  02 09 00 17 80 80 BA 0C  ................
0CB0: 27 03 C3 FF FF 7F 0F 01  F0 0C 02 09 00 18 80 80  '...............
0CC0: CC 0C 27 03 C4 FF FF 7F  0F 01 F0 0C 02 09 00 19  ..'.............
0CD0: 80 80 DE 0C 27 03 C5 FF  FF 7F 0F 01 F0 0C 02 09  ....'...........
0CE0: 00 15 80 80 F0 0C 27 03  52 90 0E 01 0F 01 F0 0C  ......'.R.......
0CF0: 5D 02 80 16 80 2B 07 90  0E 01 3D 80 1C 3E 80 02  ]....+....=..>..
0D00: 09 00 02 80 80 13 0D 4A  07 90 0E 01 F0 FF FF 7F  .......J........
0D10: 01 8B 0D 02 09 00 12 80  80 27 0D 4A 07 90 0E 01  .........'.J....
0D20: C1 FF FF 7F 01 8B 0D 02  09 00 14 80 80 3B 0D 4A  .............;.J
0D30: 07 90 0E 01 C2 FF FF 7F  01 8B 0D 02 09 00 17 80  ................
0D40: 80 4F 0D 4A 07 90 0E 01  C3 FF FF 7F 01 8B 0D 02  .O.J............
0D50: 09 00 18 80 80 63 0D 4A  07 90 0E 01 C4 FF FF 7F  .....c.J........
0D60: 01 8B 0D 02 09 00 19 80  80 77 0D 4A 07 90 0E 01  .........w.J....
0D70: C5 FF FF 7F 01 8B 0D 02  09 00 15 80 80 8B 0D 4A  ...............J
0D80: 07 90 0E 01 52 90 0E 01  01 8B 0D 1C 3F 80 02 09  ....R.......?...
0D90: 00 02 80 80 A2 0D 4A 07  90 0E 01 F0 FF FF 7F 01  ......J.........
0DA0: 1A 0E 02 09 00 12 80 80  B6 0D 4A 07 90 0E 01 C1  ..........J.....
0DB0: FF FF 7F 01 1A 0E 02 09  00 14 80 80 CA 0D 4A 07  ..............J.
0DC0: 90 0E 01 C2 FF FF 7F 01  1A 0E 02 09 00 17 80 80  ................
0DD0: DE 0D 4A 07 90 0E 01 C3  FF FF 7F 01 1A 0E 02 09  ..J.............
0DE0: 00 18 80 80 F2 0D 4A 07  90 0E 01 C4 FF FF 7F 01  ......J.........
0DF0: 1A 0E 02 09 00 19 80 80  06 0E 4A 07 90 0E 01 C5  ..........J.....
0E00: FF FF 7F 01 1A 0E 02 09  00 15 80 80 1A 0E 4A 07  ..............J.
0E10: 90 0E 01 52 90 0E 01 01  1A 0E 02 09 00 02 80 80  ...R............
0E20: 2B 0E 2A 03 F0 FF FF 7F  01 91 0E 02 09 00 12 80  +.*.............
0E30: 80 3C 0E 2A 03 C1 FF FF  7F 01 91 0E 02 09 00 14  .<.*............
0E40: 80 80 4D 0E 2A 03 C2 FF  FF 7F 01 91 0E 02 09 00  ..M.*...........
0E50: 17 80 80 5E 0E 2A 03 C3  FF FF 7F 01 91 0E 02 09  ...^.*..........
0E60: 00 18 80 80 6F 0E 2A 03  C4 FF FF 7F 01 91 0E 02  ....o.*.........
0E70: 09 00 19 80 80 80 0E 2A  03 C5 FF FF 7F 01 91 0E  .......*........
0E80: 02 09 00 15 80 80 91 0E  2A 03 52 90 0E 01 01 91  ........*.R.....
0E90: 0E 02 09 00 02 80 80 A5  0E 4A 03 90 0E 01 F0 FF  .........J......
0EA0: FF 7F 01 1D 0F 02 09 00  12 80 80 B9 0E 4A 03 90  .............J..
0EB0: 0E 01 C1 FF FF 7F 01 1D  0F 02 09 00 14 80 80 CD  ................
0EC0: 0E 4A 03 90 0E 01 C2 FF  FF 7F 01 1D 0F 02 09 00  .J..............
0ED0: 17 80 80 E1 0E 4A 03 90  0E 01 C3 FF FF 7F 01 1D  .....J..........
0EE0: 0F 02 09 00 18 80 80 F5  0E 4A 03 90 0E 01 C4 FF  .........J......
0EF0: FF 7F 01 1D 0F 02 09 00  19 80 80 09 0F 4A 03 90  .............J..
0F00: 0E 01 C5 FF FF 7F 01 1D  0F 02 09 00 15 80 80 1D  ................
0F10: 0F 4A 03 90 0E 01 52 90  0E 01 01 1D 0F 1C 1C 80  .J....R.........
0F20: 02 09 00 02 80 80 34 0F  4A F0 FF FF 7F 03 90 0E  ......4.J.......
0F30: 01 01 AC 0F 02 09 00 12  80 80 48 0F 4A C1 FF FF  ..........H.J...
0F40: 7F 03 90 0E 01 01 AC 0F  02 09 00 14 80 80 5C 0F  ..............\.
0F50: 4A C2 FF FF 7F 03 90 0E  01 01 AC 0F 02 09 00 17  J...............
0F60: 80 80 70 0F 4A C3 FF FF  7F 03 90 0E 01 01 AC 0F  ..p.J...........
0F70: 02 09 00 18 80 80 84 0F  4A C4 FF FF 7F 03 90 0E  ........J.......
0F80: 01 01 AC 0F 02 09 00 19  80 80 98 0F 4A C5 FF FF  ............J...
0F90: 7F 03 90 0E 01 01 AC 0F  02 09 00 15 80 80 AC 0F  ................
0FA0: 4A 52 90 0E 01 03 90 0E  01 01 AC 0F 1C 3E 80 02  JR...........>..
0FB0: 07 00 18 80 80 CB 0F 45  1A 80 F8 FF FF 7F F8 FF  .......E........
0FC0: FF 7F 78 30 30 37 02 80  01 14 10 02 07 00 15 80  ..x007..........
0FD0: 80 E7 0F 45 1A 80 F8 FF  FF 7F F8 FF FF 7F 78 30  ...E..........x0
0FE0: 30 63 02 80 01 14 10 02  07 00 40 80 80 03 10 45  0c........@....E
0FF0: 1A 80 F8 FF FF 7F F8 FF  FF 7F 78 30 30 64 02 80  ..........x00d..
1000: 01 14 10 45 1A 80 F8 FF  FF 7F F8 FF FF 7F 78 30  ...E..........x0
1010: 30 61 02 80 4A 07 90 0E  01 03 90 0E 01 02 07 00  0a..J...........
1020: 18 80 80 37 10 55 1A 80  F8 FF FF 7F F8 FF FF 7F  ...7.U..........
1030: 78 30 30 37 01 7A 10 02  07 00 15 80 80 51 10 55  x007.z.......Q.U
1040: 1A 80 F8 FF FF 7F F8 FF  FF 7F 78 30 30 63 01 7A  ..........x00c.z
1050: 10 02 07 00 40 80 80 6B  10 55 1A 80 F8 FF FF 7F  ....@..k.U......
1060: F8 FF FF 7F 78 30 30 64  01 7A 10 55 1A 80 F8 FF  ....x00d.z.U....
1070: FF 7F F8 FF FF 7F 78 30  30 61 1C 3E 80 23 45 1A  ......x00a.>.#E.
1080: 80 F8 FF FF 7F F8 FF FF  7F 78 30 30 38 02 80 55  .........x008..U
1090: 1A 80 F8 FF FF 7F F8 FF  FF 7F 78 30 30 38 1C 3E  ..........x008.>
10A0: 80 2B 03 90 0E 01 41 80  23 2B 07 90 0E 01 42 80  .+....A.#+....B.
10B0: 23 79 00 03 90 0E 01 07  90 0E 01 2B 03 90 0E 01  #y.........+....
10C0: 43 80 23 2B 07 90 0E 01  44 80 23 5C 00 45 80 5C  C.#+....D.#\.E.\
10D0: 01 45 80 4A 03 90 0E 01  07 90 0E 01 1C 1C 80 45  .E.J...........E
10E0: 1A 80 F8 FF FF 7F F8 FF  FF 7F 78 30 30 39 02 80  ..........x009..
10F0: 6F 76 03 90 0E 01 2B 03  90 0E 01 46 80 23 55 1A  ov....+....F.#U.
1100: 80 F8 FF FF 7F F8 FF FF  7F 78 30 30 39 2B 07 90  .........x009+..
1110: 0E 01 47 80 23 45 1A 80  F8 FF FF 7F F8 FF FF 7F  ..G.#E..........
1120: 78 30 31 30 02 80 55 1A  80 F8 FF FF 7F F8 FF FF  x010..U.........
1130: 7F 78 30 31 30 2B 07 90  0E 01 48 80 23 45 1A 80  .x010+....H.#E..
1140: F8 FF FF 7F F8 FF FF 7F  78 30 31 31 02 80 55 1A  ........x011..U.
1150: 80 F8 FF FF 7F F8 FF FF  7F 78 30 31 31 1C 3E 80  .........x011.>.
1160: 2B 03 90 0E 01 49 80 23  1A A0 19 29 03 0C 90 0E  +....I.#...)....
1170: 01 09 27 03 28 90 0E 01  02 1C 3E 80 45 1A 80 F8  ..'.(.....>.E...
1180: FF FF 7F F8 FF FF 7F 78  30 31 32 02 80 55 1A 80  .......x012..U..
1190: F8 FF FF 7F F8 FF FF 7F  78 30 31 32 1C 3E 80 27  ........x012.>.'
11A0: 03 0C 90 0E 01 0A 1C 4A  80 45 1A 80 F8 FF FF 7F  .......J.E......
11B0: F8 FF FF 7F 78 30 31 33  02 80 02 0A 00 02 80 80  ....x013........
11C0: CE 11 4A F0 FF FF 7F 0C  90 0E 01 01 46 12 02 0A  ..J.........F...
11D0: 00 12 80 80 E2 11 4A C1  FF FF 7F 0C 90 0E 01 01  ......J.........
11E0: 46 12 02 0A 00 14 80 80  F6 11 4A C2 FF FF 7F 0C  F.........J.....
11F0: 90 0E 01 01 46 12 02 0A  00 17 80 80 0A 12 4A C3  ....F.........J.
1200: FF FF 7F 0C 90 0E 01 01  46 12 02 0A 00 18 80 80  ........F.......
1210: 1E 12 4A C4 FF FF 7F 0C  90 0E 01 01 46 12 02 0A  ..J.........F...
1220: 00 19 80 80 32 12 4A C5  FF FF 7F 0C 90 0E 01 01  ....2.J.........
1230: 46 12 02 0A 00 15 80 80  46 12 4A 52 90 0E 01 0C  F.......F.JR....
1240: 90 0E 01 01 46 12 55 1A  80 F8 FF FF 7F F8 FF FF  ....F.U.........
1250: 7F 78 30 31 33 2A 03 0C  90 0E 01 2B 0C 90 0E 01  .x013*.....+....
1260: 4B 80 1C 3F 80 23 45 1A  80 F8 FF FF 7F F8 FF FF  K..?.#E.........
1270: 7F 78 30 31 34 02 80 55  1A 80 F8 FF FF 7F F8 FF  .x014..U........
1280: FF 7F 78 30 31 34 1C 3E  80 2B 03 90 0E 01 4C 80  ..x014.>.+....L.
1290: 23 2B 0C 90 0E 01 4D 80  23 4A 07 90 0E 01 0C 90  #+....M.#J......
12A0: 0E 01 45 1A 80 F8 FF FF  7F F8 FF FF 7F 78 30 31  ..E..........x01
12B0: 36 02 80 55 1A 80 F8 FF  FF 7F F8 FF FF 7F 78 30  6..U..........x0
12C0: 31 36 2B 07 90 0E 01 4E  80 23 2B 0C 90 0E 01 4F  16+....N.#+....O
12D0: 80 23 45 1A 80 F8 FF FF  7F F8 FF FF 7F 78 30 31  .#E..........x01
12E0: 37 02 80 02 09 00 02 80  80 F7 12 4A 0C 90 0E 01  7..........J....
12F0: F0 FF FF 7F 01 6F 13 02  09 00 12 80 80 0B 13 4A  .....o.........J
1300: 0C 90 0E 01 C1 FF FF 7F  01 6F 13 02 09 00 14 80  .........o......
1310: 80 1F 13 4A 0C 90 0E 01  C2 FF FF 7F 01 6F 13 02  ...J.........o..
1320: 09 00 17 80 80 33 13 4A  0C 90 0E 01 C3 FF FF 7F  .....3.J........
1330: 01 6F 13 02 09 00 18 80  80 47 13 4A 0C 90 0E 01  .o.......G.J....
1340: C4 FF FF 7F 01 6F 13 02  09 00 19 80 80 5B 13 4A  .....o.......[.J
1350: 0C 90 0E 01 C5 FF FF 7F  01 6F 13 02 09 00 15 80  .........o......
1360: 80 6F 13 4A 0C 90 0E 01  52 90 0E 01 01 6F 13 55  .o.J....R....o.U
1370: 1A 80 F8 FF FF 7F F8 FF  FF 7F 78 30 31 37 2B 0C  ..........x017+.
1380: 90 0E 01 50 80 23 6F 76  0C 90 0E 01 2B 0C 90 0E  ...P.#ov....+...
1390: 01 51 80 23 2B 07 90 0E  01 52 80 23 4A 0C 90 0E  .Q.#+....R.#J...
13A0: 01 03 90 0E 01 45 1A 80  F8 FF FF 7F F8 FF FF 7F  .....E..........
13B0: 78 30 31 35 02 80 55 1A  80 F8 FF FF 7F F8 FF FF  x015..U.........
13C0: 7F 78 30 31 35 4A F8 FF  FF 7F 03 90 0E 01 6F 76  .x015J........ov
13D0: 0C 90 0E 01 2B 0C 90 0E  01 53 80 23 27 03 0C 90  ....+....S.#'...
13E0: 0E 01 0B 1C 3E 80 27 03  03 90 0E 01 02 45 1A 80  ....>.'......E..
13F0: F8 FF FF 7F F8 FF FF 7F  78 30 31 38 02 80 2B 03  ........x018..+.
1400: 90 0E 01 54 80 7C 00 03  90 0E 01 55 1A 80 F8 FF  ...T.|.....U....
1410: FF 7F F8 FF FF 7F 78 30  31 38 1C 3E 80 4A 07 90  ......x018.>.J..
1420: 0E 01 03 90 0E 01 1C 1C  80 45 1A 80 F8 FF FF 7F  .........E......
1430: F8 FF FF 7F 78 30 31 39  02 80 55 1A 80 F8 FF FF  ....x019..U.....
1440: 7F F8 FF FF 7F 78 30 31  39 6F 76 07 90 0E 01 23  .....x019ov....#
1450: 7C 01 03 90 0E 01 2B 07  90 0E 01 55 80 23 2A 03  |.....+....U.#*.
1460: 03 90 0E 01 2A 03 0C 90  0E 01 5C 00 56 80 5C 01  ....*.....\.V.\.
1470: 56 80 2B 03 90 0E 01 57  80 23 2B 07 90 0E 01 58  V.+....W.#+....X
1480: 80 23 27 03 03 90 0E 01  32 45 1A 80 F8 FF FF 7F  .#'.....2E......
1490: F8 FF FF 7F 78 30 32 30  02 80 1C 3E 80 2B 03 90  ....x020...>.+..
14A0: 0E 01 59 80 23 55 1A 80  F8 FF FF 7F F8 FF FF 7F  ..Y.#U..........
14B0: 78 30 32 30 2B 07 90 0E  01 5A 80 23 2B 03 90 0E  x020+....Z.#+...
14C0: 01 5B 80 1C 3F 80 1A A0  19 45 1A 80 F8 FF FF 7F  .[..?....E......
14D0: F8 FF FF 7F 78 30 32 31  02 80 55 1A 80 F8 FF FF  ....x021..U.....
14E0: 7F F8 FF FF 7F 78 30 32  31 27 03 29 90 0E 01 06  .....x021'.)....
14F0: 02 09 00 02 80 80 02 15  27 03 F0 FF FF 7F 13 01  ........'.......
1500: 6E 15 02 09 00 12 80 80  14 15 27 03 C1 FF FF 7F  n.........'.....
1510: 10 01 6E 15 02 09 00 14  80 80 26 15 27 03 C2 FF  ..n.......&.'...
1520: FF 7F 10 01 6E 15 02 09  00 17 80 80 38 15 27 03  ....n.......8.'.
1530: C3 FF FF 7F 10 01 6E 15  02 09 00 18 80 80 4A 15  ......n.......J.
1540: 27 03 C4 FF FF 7F 10 01  6E 15 02 09 00 19 80 80  '.......n.......
1550: 5C 15 27 03 C5 FF FF 7F  10 01 6E 15 02 09 00 15  \.'.......n.....
1560: 80 80 6E 15 27 03 52 90  0E 01 10 01 6E 15 02 0A  ..n.'.R.....n...
1570: 00 02 80 80 80 15 27 03  F0 FF FF 7F 0C 01 EC 15  ......'.........
1580: 02 0A 00 12 80 80 92 15  27 03 C1 FF FF 7F 09 01  ........'.......
1590: EC 15 02 0A 00 14 80 80  A4 15 27 03 C2 FF FF 7F  ..........'.....
15A0: 09 01 EC 15 02 0A 00 17  80 80 B6 15 27 03 C3 FF  ............'...
15B0: FF 7F 09 01 EC 15 02 0A  00 18 80 80 C8 15 27 03  ..............'.
15C0: C4 FF FF 7F 09 01 EC 15  02 0A 00 19 80 80 DA 15  ................
15D0: 27 03 C5 FF FF 7F 09 01  EC 15 02 0A 00 15 80 80  '...............
15E0: EC 15 27 03 52 90 0E 01  09 01 EC 15 37 5C 80 5D  ..'.R.......7\.]
15F0: 80 31 80 5E 80 32 5F 80  1F 00 60 80 61 80 2C 80  .1.^.2_...`.a.,.
1600: 1F 01 6F 02 09 00 02 80  80 14 16 2A 03 F0 FF FF  ..o........*....
1610: 7F 01 7A 16 02 09 00 12  80 80 25 16 2A 03 C1 FF  ..z.......%.*...
1620: FF 7F 01 7A 16 02 09 00  14 80 80 36 16 2A 03 C2  ...z.......6.*..
1630: FF FF 7F 01 7A 16 02 09  00 17 80 80 47 16 2A 03  ....z.......G.*.
1640: C3 FF FF 7F 01 7A 16 02  09 00 18 80 80 58 16 2A  .....z.......X.*
1650: 03 C4 FF FF 7F 01 7A 16  02 09 00 19 80 80 69 16  ......z.......i.
1660: 2A 03 C5 FF FF 7F 01 7A  16 02 09 00 15 80 80 7A  *......z.......z
1670: 16 2A 03 52 90 0E 01 01  7A 16 4A 07 90 0E 01 03  .*.R....z.J.....
1680: 90 0E 01 6F 76 07 90 0E  01 27 03 07 90 0E 01 06  ...ov....'......
1690: 1C 1C 80 45 1A 80 F8 FF  FF 7F F8 FF FF 7F 78 30  ...E..........x0
16A0: 32 34 02 80 55 1A 80 F8  FF FF 7F F8 FF FF 7F 78  24..U..........x
16B0: 30 32 34 23 2B 07 90 0E  01 62 80 23 29 03 F0 FF  024#+....b.#)...
16C0: FF 7F 05 75 00 63 80 75  01 5D 02 80 64 80 45 11  ...u.c.u.]..d.E.
16D0: 80 F0 FF FF 7F F0 FF FF  7F 6F 76 6C 31 02 80 45  .........ovl1..E
16E0: 1A 80 F8 FF FF 7F F8 FF  FF 7F 78 30 32 32 02 80  ..........x022..
16F0: 55 1A 80 F8 FF FF 7F F8  FF FF 7F 78 30 32 32 27  U..........x022'
1700: 03 29 90 0E 01 07 1C 3E  80 29 03 05 90 0E 01 2E  .).....>.)......
1710: 2B 05 90 0E 01 65 80 29  03 05 90 0E 01 0D 27 03  +....e.)......'.
1720: 05 90 0E 01 0E 45 1A 80  F8 FF FF 7F F8 FF FF 7F  .....E..........
1730: 78 30 32 33 02 80 55 1A  80 F8 FF FF 7F F8 FF FF  x023..U.........
1740: 7F 78 30 32 33 2A 03 05  90 0E 01 1C 3E 80 27 03  .x023*......>.'.
1750: 05 90 0E 01 2D 23 2B 05  90 0E 01 66 80 23 45 11  ....-#+....f.#E.
1760: 80 F8 FF FF 7F F8 FF FF  7F 66 64 6F 31 02 80 55  .........fdo1..U
1770: 11 80 F8 FF FF 7F F8 FF  FF 7F 66 64 6F 31 1A A0  ..........fdo1..
1780: 19 5C 00 67 80 5C 01 67  80 02 09 00 02 80 80 9B  .\.g.\.g........
1790: 17 27 03 F0 FF FF 7F 0D  01 07 18 02 09 00 12 80  .'..............
17A0: 80 AD 17 27 03 C1 FF FF  7F 0A 01 07 18 02 09 00  ...'............
17B0: 14 80 80 BF 17 27 03 C2  FF FF 7F 0A 01 07 18 02  .....'..........
17C0: 09 00 17 80 80 D1 17 27  03 C3 FF FF 7F 0A 01 07  .......'........
17D0: 18 02 09 00 18 80 80 E3  17 27 03 C4 FF FF 7F 0A  .........'......
17E0: 01 07 18 02 09 00 19 80  80 F5 17 27 03 C5 FF FF  ...........'....
17F0: 7F 0A 01 07 18 02 09 00  15 80 80 07 18 27 03 52  .............'.R
1800: 90 0E 01 0A 01 07 18 02  0A 00 02 80 80 23 18 27  .............#.'
1810: 03 F0 FF FF 7F 06 79 00  07 90 0E 01 F0 FF FF 7F  ......y.........
1820: 01 CB 18 02 0A 00 12 80  80 3F 18 27 03 C1 FF FF  .........?.'....
1830: 7F 03 79 00 07 90 0E 01  C1 FF FF 7F 01 CB 18 02  ..y.............
1840: 0A 00 14 80 80 5B 18 27  03 C2 FF FF 7F 03 79 00  .....[.'......y.
1850: 07 90 0E 01 C2 FF FF 7F  01 CB 18 02 0A 00 17 80  ................
1860: 80 77 18 27 03 C3 FF FF  7F 03 79 00 07 90 0E 01  .w.'......y.....
1870: C3 FF FF 7F 01 CB 18 02  0A 00 18 80 80 93 18 27  ...............'
1880: 03 C4 FF FF 7F 03 79 00  07 90 0E 01 C4 FF FF 7F  ......y.........
1890: 01 CB 18 02 0A 00 19 80  80 AF 18 27 03 C5 FF FF  ...........'....
18A0: 7F 03 79 00 07 90 0E 01  C5 FF FF 7F 01 CB 18 02  ..y.............
18B0: 0A 00 15 80 80 CB 18 27  03 52 90 0E 01 03 79 00  .......'.R....y.
18C0: 07 90 0E 01 52 90 0E 01  01 CB 18 37 00 80 01 80  ....R......7....
18D0: 02 80 03 80 1C 16 80 45  1A 80 F8 FF FF 7F F8 FF  .......E........
18E0: FF 7F 78 30 32 35 02 80  55 1A 80 F8 FF FF 7F F8  ..x025..U.......
18F0: FF FF 7F 78 30 32 35 45  11 80 F8 FF FF 7F F8 FF  ...x025E........
1900: FF 7F 66 64 69 31 02 80  55 11 80 F8 FF FF 7F F8  ..fdi1..U.......
1910: FF FF 7F 66 64 69 31 2B  07 90 0E 01 68 80 23 4A  ...fdi1+....h.#J
1920: 07 90 0E 01 F0 FF FF 7F  6F 76 07 90 0E 01 02 0B  ........ov......
1930: 00 02 80 00 48 19 2B 07  90 0E 01 69 80 29 03 07  ....H.+....i.)..
1940: 90 0E 01 03 23 01 4C 19  1D 6A 80 23 45 11 80 F8  ....#.L..j.#E...
1950: FF FF 7F F8 FF FF 7F 66  64 6F 32 02 80 55 11 80  .......fdo2..U..
1960: F8 FF FF 7F F8 FF FF 7F  66 64 6F 32 06 01 10 02  ........fdo2....
1970: 0A 00 02 80 00 8B 19 45  6B 80 F8 FF FF 7F F8 FF  .......Ek.......
1980: FF 7F 71 73 74 63 02 80  05 01 10 46 00 45 11 80  ..qstc.....F.E..
1990: F8 FF FF 7F F8 FF FF 7F  66 64 69 32 02 80 21 00  ........fdi2..!.
19A0: 43 00 43 01 02 09 10 12  80 00 F5 19 48 6C 80 23  C.C.........Hl.#
19B0: 45 11 80 F8 FF FF 7F F8  FF FF 7F 66 64 6F 32 02  E..........fdo2.
19C0: 80 55 11 80 F8 FF FF 7F  F8 FF FF 7F 66 64 6F 32  .U..........fdo2
19D0: 03 01 10 6D 80 5C 00 67  80 5C 01 67 80 46 00 45  ...m.\.g.\.g.F.E
19E0: 11 80 F8 FF FF 7F F8 FF  FF 7F 66 64 69 32 02 80  ..........fdi2..
19F0: 21 00 01 50 1B 02 09 00  02 80 00 A8 1A 02 0A 00  !..P............
1A00: 05 10 01 A5 1A 03 0A 00  05 10 4E 01 C1 FF FF 7F  ..........N.....
1A10: 4E 01 C2 FF FF 7F 4E 01  C3 FF FF 7F 4E 01 C4 FF  N.....N.....N...
1A20: FF 7F 4E 01 C5 FF FF 7F  4E 01 52 90 0E 01 02 0A  ..N.....N.R.....
1A30: 00 02 80 80 3F 1A 4E 00  F0 FF FF 7F 01 A5 1A 02  ....?.N.........
1A40: 0A 00 12 80 80 50 1A 4E  00 C1 FF FF 7F 01 A5 1A  .....P.N........
1A50: 02 0A 00 14 80 80 61 1A  4E 00 C2 FF FF 7F 01 A5  ......a.N.......
1A60: 1A 02 0A 00 17 80 80 72  1A 4E 00 C3 FF FF 7F 01  .......r.N......
1A70: A5 1A 02 0A 00 18 80 80  83 1A 4E 00 C4 FF FF 7F  ..........N.....
1A80: 01 A5 1A 02 0A 00 19 80  80 94 1A 4E 00 C5 FF FF  ...........N....
1A90: 7F 01 A5 1A 02 0A 00 15  80 80 A5 1A 4E 00 52 90  ............N.R.
1AA0: 0E 01 01 A5 1A 01 50 1B  02 09 00 05 10 01 50 1B  ......P.......P.
1AB0: 03 09 00 05 10 4E 01 C1  FF FF 7F 4E 01 C2 FF FF  .....N.....N....
1AC0: 7F 4E 01 C3 FF FF 7F 4E  01 C4 FF FF 7F 4E 01 C5  .N.....N.....N..
1AD0: FF FF 7F 4E 01 52 90 0E  01 02 09 00 02 80 80 EA  ...N.R..........
1AE0: 1A 4E 00 F0 FF FF 7F 01  50 1B 02 09 00 12 80 80  .N......P.......
1AF0: FB 1A 4E 00 C1 FF FF 7F  01 50 1B 02 09 00 14 80  ..N......P......
1B00: 80 0C 1B 4E 00 C2 FF FF  7F 01 50 1B 02 09 00 17  ...N......P.....
1B10: 80 80 1D 1B 4E 00 C3 FF  FF 7F 01 50 1B 02 09 00  ....N......P....
1B20: 18 80 80 2E 1B 4E 00 C4  FF FF 7F 01 50 1B 02 09  .....N......P...
1B30: 00 19 80 80 3F 1B 4E 00  C5 FF FF 7F 01 50 1B 02  ....?.N......P..
1B40: 09 00 15 80 80 50 1B 4E  00 52 90 0E 01 01 50 1B  .....P.N.R....P.
1B50: 1B                                                .               
```

#### Opcodes

```
  0: 0x015D [0x20] SET_CLI_EVENT_UC_FLAG: Lock player control
  1: 0x015F [0x42] SET_CLI_EVENT_CANCEL_DATA()
  2: 0x0160 [0x45] LOAD_SCHEDULED_TASK: Load scheduler "fdo1" with entities [EventEntity, EventEntity], work=[200*, 0*]
  3: 0x0171 [0x55] WAIT_LOAD_SCHEDULER: Wait for scheduler "fdo1" with entities [EventEntity, EventEntity], work=200*
  4: 0x0180 [0x03] ExtData[1]->WorkLocal[7] = Work_Zone[2]
  5: 0x0185 [0x03] ExtData[1]->WorkLocal[9] = Work_Zone[4]
  6: 0x018A [0x03] ExtData[1]->WorkLocal[10] = Work_Zone[5]
  7: 0x018F [0x03] ExtData[1]->WorkLocal[11] = Work_Zone[6]
  8: 0x0194 [0x03] ExtData[1]->WorkLocal[12] = Work_Zone[7]
  9: 0x0199 [0x02] IF !(ExtData[1]->WorkLocal[12] == 1*) GOTO 0x01D7
 10: 0x01A1 [0x02] IF !(ExtData[1]->WorkLocal[9] == 0*) GOTO 0x01D4
 11: 0x01A9 [0x03] Work_Zone[2] = 1*
 12: 0x01AE [0x48] [System] [8175*]:
    → "[As there are no party members/As there are no female party members], you are unable to see this event."
 13: 0x01B1 [0x23] WAIT_FOR_DIALOG_INTERACTION
 14: 0x01B2 [0x45] LOAD_SCHEDULED_TASK: Load scheduler "fdi1" with entities [EventEntity, EventEntity], work=[200*, 0*]
 15: 0x01C3 [0x55] WAIT_LOAD_SCHEDULER: Wait for scheduler "fdi1" with entities [EventEntity, EventEntity], work=200*
 16: 0x01D2 [0x21] END_EVENT
 17: 0x01D3 [0x00] END_REQSTACK()
 18: 0x01D4 [0x01] GOTO 0x0215
 19: 0x01D7 [0x02] IF !(ExtData[1]->WorkLocal[12] == 2*) GOTO 0x0215
 20: 0x01DF [0x02] IF !(ExtData[1]->WorkLocal[10] < 6*) GOTO 0x0212
 21: 0x01E7 [0x03] Work_Zone[2] = 0*
 22: 0x01EC [0x48] [System] [8175*]:
    → "[As there are no party members/As there are no female party members], you are unable to see this event."
 23: 0x01EF [0x23] WAIT_FOR_DIALOG_INTERACTION
 24: 0x01F0 [0x45] LOAD_SCHEDULED_TASK: Load scheduler "fdi1" with entities [EventEntity, EventEntity], work=[200*, 0*]
 25: 0x0201 [0x55] WAIT_LOAD_SCHEDULER: Wait for scheduler "fdi1" with entities [EventEntity, EventEntity], work=200*
 26: 0x0210 [0x21] END_EVENT
 27: 0x0211 [0x00] END_REQSTACK()
 28: 0x0212 [0x01] GOTO 0x0215

SUBROUTINE_0215:
 29: 0x0215 [0x02] IF !(ExtData[1]->WorkLocal[10] < 6*) GOTO 0x023F
 30: 0x021D [0x45] LOAD_SCHEDULED_TASK: Load scheduler "fdi1" with entities [EventEntity, EventEntity], work=[200*, 0*]
 31: 0x022E [0x55] WAIT_LOAD_SCHEDULER: Wait for scheduler "fdi1" with entities [EventEntity, EventEntity], work=200*
 32: 0x023D [0x21] END_EVENT
 33: 0x023E [0x00] END_REQSTACK()
 34: 0x023F [0x46] CAMERA_CONTROL: Disable user control
 35: 0x0241 [0x1A] CALL_SUBROUTINE(address=0x19A0)
 36: 0x0244 [0x5C] MUSIC_CONTROL: Set Idle (Day) music to song 120*
 37: 0x0248 [0x5C] MUSIC_CONTROL: Set Idle (Night) music to song 120*
 38: 0x024C [0x94] Halver (ID: 17731591/0x010E9007)->Render.Flags3 ^= 0x01
 39: 0x0252 [0x38] SET_CLIENT_EVENT_MODE(mode=3*)
 40: 0x0255 [0x4E] SET_ENTITY_HIDE_FLAG: Hide Unknown NPC (ID: 2147483585/0x7FFFFFC1)
 41: 0x025B [0x4E] SET_ENTITY_HIDE_FLAG: Hide Unknown NPC (ID: 2147483586/0x7FFFFFC2)
 42: 0x0261 [0x4E] SET_ENTITY_HIDE_FLAG: Hide Unknown NPC (ID: 2147483587/0x7FFFFFC3)
 43: 0x0267 [0x4E] SET_ENTITY_HIDE_FLAG: Hide Unknown NPC (ID: 2147483588/0x7FFFFFC4)
 44: 0x026D [0x4E] SET_ENTITY_HIDE_FLAG: Hide Unknown NPC (ID: 2147483589/0x7FFFFFC5)
 45: 0x0273 [0x02] IF !(ExtData[1]->WorkLocal[9] == 0*) GOTO 0x028B
 46: 0x027B [0x27] REQ_SET(priority=0x03, entity_id=LocalPlayer, tag_num=0x0D)
 47: 0x0282 [0x4E] SET_ENTITY_HIDE_FLAG: Show LocalPlayer
 48: 0x0288 [0x01] GOTO 0x031B
 49: 0x028B [0x02] IF !(ExtData[1]->WorkLocal[9] == 1*) GOTO 0x02A3
 50: 0x0293 [0x27] REQ_SET(priority=0x03, entity_id=Unknown NPC (ID: 2147483585/0x7FFFFFC1), tag_num=0x0A)
 51: 0x029A [0x4E] SET_ENTITY_HIDE_FLAG: Show Unknown NPC (ID: 2147483585/0x7FFFFFC1)
 52: 0x02A0 [0x01] GOTO 0x031B
 53: 0x02A3 [0x02] IF !(ExtData[1]->WorkLocal[9] == 2*) GOTO 0x02BB
 54: 0x02AB [0x27] REQ_SET(priority=0x03, entity_id=Unknown NPC (ID: 2147483586/0x7FFFFFC2), tag_num=0x0A)
 55: 0x02B2 [0x4E] SET_ENTITY_HIDE_FLAG: Show Unknown NPC (ID: 2147483586/0x7FFFFFC2)
 56: 0x02B8 [0x01] GOTO 0x031B
 57: 0x02BB [0x02] IF !(ExtData[1]->WorkLocal[9] == 3*) GOTO 0x02D3
 58: 0x02C3 [0x27] REQ_SET(priority=0x03, entity_id=Unknown NPC (ID: 2147483587/0x7FFFFFC3), tag_num=0x0A)
 59: 0x02CA [0x4E] SET_ENTITY_HIDE_FLAG: Show Unknown NPC (ID: 2147483587/0x7FFFFFC3)
 60: 0x02D0 [0x01] GOTO 0x031B
 61: 0x02D3 [0x02] IF !(ExtData[1]->WorkLocal[9] == 4*) GOTO 0x02EB
 62: 0x02DB [0x27] REQ_SET(priority=0x03, entity_id=Unknown NPC (ID: 2147483588/0x7FFFFFC4), tag_num=0x0A)
 63: 0x02E2 [0x4E] SET_ENTITY_HIDE_FLAG: Show Unknown NPC (ID: 2147483588/0x7FFFFFC4)
 64: 0x02E8 [0x01] GOTO 0x031B
 65: 0x02EB [0x02] IF !(ExtData[1]->WorkLocal[9] == 5*) GOTO 0x0303
 66: 0x02F3 [0x27] REQ_SET(priority=0x03, entity_id=Unknown NPC (ID: 2147483589/0x7FFFFFC5), tag_num=0x0A)
 67: 0x02FA [0x4E] SET_ENTITY_HIDE_FLAG: Show Unknown NPC (ID: 2147483589/0x7FFFFFC5)
 68: 0x0300 [0x01] GOTO 0x031B
 69: 0x0303 [0x02] IF !(ExtData[1]->WorkLocal[9] == 6*) GOTO 0x031B
 70: 0x030B [0x27] REQ_SET(priority=0x03, entity_id=Unknown NPC (ID: 17731666/0x010E9052), tag_num=0x0A)
 71: 0x0312 [0x4E] SET_ENTITY_HIDE_FLAG: Show Unknown NPC (ID: 17731666/0x010E9052)
 72: 0x0318 [0x01] GOTO 0x031B

SUBROUTINE_031B:
 73: 0x031B [0x02] IF !(ExtData[1]->WorkLocal[10] == 0*) GOTO 0x0333
 74: 0x0323 [0x27] REQ_SET(priority=0x03, entity_id=LocalPlayer, tag_num=0x06)
 75: 0x032A [0x4E] SET_ENTITY_HIDE_FLAG: Show LocalPlayer
 76: 0x0330 [0x01] GOTO 0x03C3
 77: 0x0333 [0x02] IF !(ExtData[1]->WorkLocal[10] == 1*) GOTO 0x034B
 78: 0x033B [0x27] REQ_SET(priority=0x03, entity_id=Unknown NPC (ID: 2147483585/0x7FFFFFC1), tag_num=0x03)
 79: 0x0342 [0x4E] SET_ENTITY_HIDE_FLAG: Show Unknown NPC (ID: 2147483585/0x7FFFFFC1)
 80: 0x0348 [0x01] GOTO 0x03C3
 81: 0x034B [0x02] IF !(ExtData[1]->WorkLocal[10] == 2*) GOTO 0x0363
 82: 0x0353 [0x27] REQ_SET(priority=0x03, entity_id=Unknown NPC (ID: 2147483586/0x7FFFFFC2), tag_num=0x03)
 83: 0x035A [0x4E] SET_ENTITY_HIDE_FLAG: Show Unknown NPC (ID: 2147483586/0x7FFFFFC2)
 84: 0x0360 [0x01] GOTO 0x03C3
 85: 0x0363 [0x02] IF !(ExtData[1]->WorkLocal[10] == 3*) GOTO 0x037B
 86: 0x036B [0x27] REQ_SET(priority=0x03, entity_id=Unknown NPC (ID: 2147483587/0x7FFFFFC3), tag_num=0x03)
 87: 0x0372 [0x4E] SET_ENTITY_HIDE_FLAG: Show Unknown NPC (ID: 2147483587/0x7FFFFFC3)
 88: 0x0378 [0x01] GOTO 0x03C3
 89: 0x037B [0x02] IF !(ExtData[1]->WorkLocal[10] == 4*) GOTO 0x0393
 90: 0x0383 [0x27] REQ_SET(priority=0x03, entity_id=Unknown NPC (ID: 2147483588/0x7FFFFFC4), tag_num=0x03)
 91: 0x038A [0x4E] SET_ENTITY_HIDE_FLAG: Show Unknown NPC (ID: 2147483588/0x7FFFFFC4)
 92: 0x0390 [0x01] GOTO 0x03C3
 93: 0x0393 [0x02] IF !(ExtData[1]->WorkLocal[10] == 5*) GOTO 0x03AB
 94: 0x039B [0x27] REQ_SET(priority=0x03, entity_id=Unknown NPC (ID: 2147483589/0x7FFFFFC5), tag_num=0x03)
 95: 0x03A2 [0x4E] SET_ENTITY_HIDE_FLAG: Show Unknown NPC (ID: 2147483589/0x7FFFFFC5)
 96: 0x03A8 [0x01] GOTO 0x03C3
 97: 0x03AB [0x02] IF !(ExtData[1]->WorkLocal[10] == 6*) GOTO 0x03C3
 98: 0x03B3 [0x27] REQ_SET(priority=0x03, entity_id=Unknown NPC (ID: 17731666/0x010E9052), tag_num=0x03)
 99: 0x03BA [0x4E] SET_ENTITY_HIDE_FLAG: Show Unknown NPC (ID: 17731666/0x010E9052)
100: 0x03C0 [0x01] GOTO 0x03C3

SUBROUTINE_03C3:
101: 0x03C3 [0x97] SAVE_SET_WIND_VALUES(wind_base=0x8002, wind_width=0x8012)
102: 0x03C8 [0x45] LOAD_SCHEDULED_TASK: Load scheduler "x000" with entities [EventEntity, EventEntity], work=[54*, 0*]
103: 0x03D9 [0x55] WAIT_LOAD_SCHEDULER: Wait for scheduler "x000" with entities [EventEntity, EventEntity], work=54*
104: 0x03E8 [0x45] LOAD_SCHEDULED_TASK: Load scheduler "fdi1" with entities [EventEntity, EventEntity], work=[200*, 0*]
105: 0x03F9 [0x55] WAIT_LOAD_SCHEDULER: Wait for scheduler "fdi1" with entities [EventEntity, EventEntity], work=200*
106: 0x0408 [0x2B] Halver (ID: 17731591/0x010E9007) [8129*]:
    → "You have brought a lady who meets Prince Trion's preferences?"
107: 0x040F [0x23] WAIT_FOR_DIALOG_INTERACTION
108: 0x0410 [0x02] IF !(ExtData[1]->WorkLocal[9] == 0*) GOTO 0x0424
109: 0x0418 [0x4A] Halver (ID: 17731591/0x010E9007) looks at LocalPlayer
110: 0x0421 [0x01] GOTO 0x049C
111: 0x0424 [0x02] IF !(ExtData[1]->WorkLocal[9] == 1*) GOTO 0x0438
112: 0x042C [0x4A] Halver (ID: 17731591/0x010E9007) looks at Unknown NPC (ID: 2147483585/0x7FFFFFC1)
113: 0x0435 [0x01] GOTO 0x049C
114: 0x0438 [0x02] IF !(ExtData[1]->WorkLocal[9] == 2*) GOTO 0x044C
115: 0x0440 [0x4A] Halver (ID: 17731591/0x010E9007) looks at Unknown NPC (ID: 2147483586/0x7FFFFFC2)
116: 0x0449 [0x01] GOTO 0x049C
117: 0x044C [0x02] IF !(ExtData[1]->WorkLocal[9] == 3*) GOTO 0x0460
118: 0x0454 [0x4A] Halver (ID: 17731591/0x010E9007) looks at Unknown NPC (ID: 2147483587/0x7FFFFFC3)
119: 0x045D [0x01] GOTO 0x049C
120: 0x0460 [0x02] IF !(ExtData[1]->WorkLocal[9] == 4*) GOTO 0x0474
121: 0x0468 [0x4A] Halver (ID: 17731591/0x010E9007) looks at Unknown NPC (ID: 2147483588/0x7FFFFFC4)
122: 0x0471 [0x01] GOTO 0x049C
123: 0x0474 [0x02] IF !(ExtData[1]->WorkLocal[9] == 5*) GOTO 0x0488
124: 0x047C [0x4A] Halver (ID: 17731591/0x010E9007) looks at Unknown NPC (ID: 2147483589/0x7FFFFFC5)
125: 0x0485 [0x01] GOTO 0x049C
126: 0x0488 [0x02] IF !(ExtData[1]->WorkLocal[9] == 6*) GOTO 0x049C
127: 0x0490 [0x4A] Halver (ID: 17731591/0x010E9007) looks at Unknown NPC (ID: 17731666/0x010E9052)
128: 0x0499 [0x01] GOTO 0x049C

SUBROUTINE_049C:
129: 0x049C [0x1C] WAIT(10* ticks)
130: 0x049F [0x02] IF !(ExtData[1]->WorkLocal[7] == 6*) GOTO 0x04BB
131: 0x04A7 [0x45] LOAD_SCHEDULED_TASK: Load scheduler "x00b" with entities [EventEntity, EventEntity], work=[54*, 0*]
132: 0x04B8 [0x01] GOTO 0x04CC
133: 0x04BB [0x45] LOAD_SCHEDULED_TASK: Load scheduler "x001" with entities [EventEntity, EventEntity], work=[54*, 0*]

SUBROUTINE_04CC:
134: 0x04CC [0x1C] WAIT(150* ticks)
135: 0x04CF [0x66] LOAD_EXT_SCHEDULER_MAIN: Load scheduler "thk1" with entities [EventEntity, EventEntity], work=20*
136: 0x04DE [0x2B] Halver (ID: 17731591/0x010E9007) [8130*]:
    → "Yes, this person certainly matches Prince Pieuje's description."
137: 0x04E5 [0x23] WAIT_FOR_DIALOG_INTERACTION
138: 0x04E6 [0x02] IF !(ExtData[1]->WorkLocal[7] == 6*) GOTO 0x0500
139: 0x04EE [0x55] WAIT_LOAD_SCHEDULER: Wait for scheduler "x00b" with entities [EventEntity, EventEntity], work=54*
140: 0x04FD [0x01] GOTO 0x050F
141: 0x0500 [0x55] WAIT_LOAD_SCHEDULER: Wait for scheduler "x001" with entities [EventEntity, EventEntity], work=54*

SUBROUTINE_050F:
142: 0x050F [0x45] LOAD_SCHEDULED_TASK: Load scheduler "x002" with entities [EventEntity, EventEntity], work=[54*, 0*]
143: 0x0520 [0x55] WAIT_LOAD_SCHEDULER: Wait for scheduler "x002" with entities [EventEntity, EventEntity], work=54*
144: 0x052F [0x02] IF !(ExtData[1]->WorkLocal[9] == 0*) GOTO 0x0542
145: 0x0537 [0x2B] Halver (ID: 17731591/0x010E9007) [8131*]:
    → "And your name, madame? %0, is it? %0 d'Oraguille... Hmm, passable."
146: 0x053E [0x23] WAIT_FOR_DIALOG_INTERACTION
147: 0x053F [0x01] GOTO 0x05A1
148: 0x0542 [0x02] IF !(ExtData[1]->WorkLocal[9] == 1*) GOTO 0x0555
149: 0x054A [0x2B] Halver (ID: 17731591/0x010E9007) [8132*]:
    → "And your name, madame? %1, is it? %1 d'Oraguille... Hmm, passable."
150: 0x0551 [0x23] WAIT_FOR_DIALOG_INTERACTION
151: 0x0552 [0x01] GOTO 0x05A1
152: 0x0555 [0x02] IF !(ExtData[1]->WorkLocal[9] == 2*) GOTO 0x0568
153: 0x055D [0x2B] Halver (ID: 17731591/0x010E9007) [8133*]:
    → "And your name, madame? %2, is it? %2 d'Oraguille... Hmm, passable."
154: 0x0564 [0x23] WAIT_FOR_DIALOG_INTERACTION
155: 0x0565 [0x01] GOTO 0x05A1
156: 0x0568 [0x02] IF !(ExtData[1]->WorkLocal[9] == 3*) GOTO 0x057B
157: 0x0570 [0x2B] Halver (ID: 17731591/0x010E9007) [8134*]:
    → "And your name, madame? %3, is it? %3 d'Oraguille... Hmm, passable."
158: 0x0577 [0x23] WAIT_FOR_DIALOG_INTERACTION
159: 0x0578 [0x01] GOTO 0x05A1
160: 0x057B [0x02] IF !(ExtData[1]->WorkLocal[9] == 4*) GOTO 0x058E
161: 0x0583 [0x2B] Halver (ID: 17731591/0x010E9007) [8135*]:
    → "And your name, madame? %4, is it? %4 d'Oraguille... Hmm, passable."
162: 0x058A [0x23] WAIT_FOR_DIALOG_INTERACTION
163: 0x058B [0x01] GOTO 0x05A1
164: 0x058E [0x02] IF !(ExtData[1]->WorkLocal[9] == 5*) GOTO 0x05A1
165: 0x0596 [0x2B] Halver (ID: 17731591/0x010E9007) [8136*]:
    → "And your name, madame? %5, is it? %5 d'Oraguille... Hmm, passable."
166: 0x059D [0x23] WAIT_FOR_DIALOG_INTERACTION
167: 0x059E [0x01] GOTO 0x05A1

SUBROUTINE_05A1:
168: 0x05A1 [0x2B] Halver (ID: 17731591/0x010E9007) [8137*]:
    → "We shall perform the introductions immediately. Come with me, and be on your best behavior."
169: 0x05A8 [0x53] WAIT_SCHEDULER_TASK: Wait for scheduler "thk1" with entities [EventEntity, EventEntity]
170: 0x05B5 [0x66] LOAD_EXT_SCHEDULER_MAIN: Load scheduler "thk2" with entities [EventEntity, EventEntity], work=20*
171: 0x05C4 [0x53] WAIT_SCHEDULER_TASK: Wait for scheduler "thk2" with entities [EventEntity, EventEntity]
172: 0x05D1 [0x32] ExtData[1]->MainSpeed = 13* * 0.1
173: 0x05D4 [0x39] SET_ENTITY_DIRECTION(direction=9.9°*)
174: 0x05D7 [0x6F] WAIT_FRAME_DELAY: Yield until WaitTime reaches zero
175: 0x05D8 [0x70] WAIT_ENTITY_RENDER_FLAG: Wait while EventEntity->Render.Flags3 bit 2 is set (cancel turn if not)
176: 0x05D9 [0x27] REQ_SET(priority=0x03, entity_id=Curilla (ID: 17731596/0x010E900C), tag_num=0x08)
177: 0x05E0 [0x31] UPDATE_ENTITY_POSITION: Set EventEntity goal position to X=-2.542*, Z=-0.105*, Y=0.000*, Time=180*
178: 0x05EA [0x31] UPDATE_ENTITY_POSITION: Move EventEntity towards goal position
179: 0x05EC [0x1C] WAIT(120* ticks)
180: 0x05EF [0x2A] GET_REQ_LEVEL(level=3, entity_id=Curilla (ID: 17731596/0x010E900C))
181: 0x05F5 [0x23] WAIT_FOR_DIALOG_INTERACTION
182: 0x05F6 [0x1A] CALL_SUBROUTINE(address=0x19A0)
183: 0x05F9 [0x37] UPDATE_EVENT_POSITION_AND_DIR: x=-18.000*, z=68.267*, y=-3.000*, direction=178.6°*
184: 0x0602 [0x02] IF !(ExtData[1]->WorkLocal[9] == 0*) GOTO 0x0614
185: 0x060A [0x29] REQ_SET_WAIT(priority=0x03, entity_id=LocalPlayer, tag_num=0x0E)
186: 0x0611 [0x01] GOTO 0x0680
187: 0x0614 [0x02] IF !(ExtData[1]->WorkLocal[9] == 1*) GOTO 0x0626
188: 0x061C [0x29] REQ_SET_WAIT(priority=0x03, entity_id=Unknown NPC (ID: 2147483585/0x7FFFFFC1), tag_num=0x0B)
189: 0x0623 [0x01] GOTO 0x0680
190: 0x0626 [0x02] IF !(ExtData[1]->WorkLocal[9] == 2*) GOTO 0x0638
191: 0x062E [0x29] REQ_SET_WAIT(priority=0x03, entity_id=Unknown NPC (ID: 2147483586/0x7FFFFFC2), tag_num=0x0B)
192: 0x0635 [0x01] GOTO 0x0680
193: 0x0638 [0x02] IF !(ExtData[1]->WorkLocal[9] == 3*) GOTO 0x064A
194: 0x0640 [0x29] REQ_SET_WAIT(priority=0x03, entity_id=Unknown NPC (ID: 2147483587/0x7FFFFFC3), tag_num=0x0B)
195: 0x0647 [0x01] GOTO 0x0680
196: 0x064A [0x02] IF !(ExtData[1]->WorkLocal[9] == 4*) GOTO 0x065C
