# 17731590 - Claidie

## Common Data

| Field            | Value                         |
|------------------|-------------------------------|
| Zone             | Chateau d'Oraguille (ID: 233) |
| Block Size       | 2720 bytes                    |
| Total Events     | 110                           |
| References Count | 148                           |

## List of Events

| Event ID                   | Entrypoint   |   Size |   Instructions |
|----------------------------|--------------|--------|----------------|
| [65535](#event-65535)      | 0x0000       |      1 |              1 |
| [10](#event-10)            | 0x0001       |     10 |              2 |
| [8](#event-8)              | 0x000B       |     10 |              2 |
| [65535.1](#event-655351)   | 0x0015       |     18 |              6 |
| [65535.2](#event-655352)   | 0x0027       |     12 |              4 |
| [9](#event-9)              | 0x0033       |     10 |              2 |
| [65535.3](#event-655353)   | 0x003D       |     20 |              6 |
| [65535.4](#event-655354)   | 0x0051       |     12 |              3 |
| [65535.5](#event-655355)   | 0x005D       |     14 |              4 |
| [65535.6](#event-655356)   | 0x006B       |     11 |              3 |
| [76](#event-76)            | 0x0076       |     12 |              3 |
| [32](#event-32)            | 0x0082       |     12 |              3 |
| [65535.7](#event-655357)   | 0x008E       |     14 |              4 |
| [65535.8](#event-655358)   | 0x009C       |     33 |              5 |
| [65535.9](#event-655359)   | 0x00BD       |     13 |              4 |
| [65535.10](#event-6553510) | 0x00CA       |     22 |              8 |
| [65535.11](#event-6553511) | 0x00E0       |     13 |              4 |
| [538](#event-538)          | 0x00ED       |      1 |              1 |
| [528](#event-528)          | 0x00EE       |      2 |              2 |
| [65535.12](#event-6553512) | 0x00F0       |      9 |              3 |
| [65535.13](#event-6553513) | 0x00F9       |     10 |              2 |
| [65535.14](#event-6553514) | 0x0103       |     14 |              4 |
| [65535.15](#event-6553515) | 0x0111       |      6 |              2 |
| [65535.16](#event-6553516) | 0x0117       |     14 |              4 |
| [61](#event-61)            | 0x0125       |     12 |              3 |
| [21](#event-21)            | 0x0131       |     13 |              4 |
| [99](#event-99)            | 0x013E       |     11 |              3 |
| [0](#event-0)              | 0x0149       |     11 |              3 |
| [116](#event-116)          | 0x0154       |     10 |              2 |
| [65535.17](#event-6553517) | 0x015E       |     14 |              4 |
| [65535.18](#event-6553518) | 0x016C       |     12 |              4 |
| [65535.19](#event-6553519) | 0x0178       |     19 |              7 |
| [65535.20](#event-6553520) | 0x018B       |     11 |              3 |
| [65535.21](#event-6553521) | 0x0196       |     40 |              9 |
| [96](#event-96)            | 0x01BE       |     20 |              4 |
| [100](#event-100)          | 0x01D2       |     11 |              3 |
| [65535.22](#event-6553522) | 0x01DD       |     10 |              2 |
| [65535.23](#event-6553523) | 0x01E7       |     16 |              4 |
| [65535.24](#event-6553524) | 0x01F7       |     39 |              9 |
| [65535.25](#event-6553525) | 0x021E       |     11 |              3 |
| [65535.26](#event-6553526) | 0x0229       |      7 |              3 |
| [65535.27](#event-6553527) | 0x0230       |     44 |             10 |
| [65535.28](#event-6553528) | 0x025C       |     19 |              3 |
| [65535.29](#event-6553529) | 0x026F       |     29 |              3 |
| [65535.30](#event-6553530) | 0x028C       |     19 |              3 |
| [65535.31](#event-6553531) | 0x029F       |     29 |              3 |
| [65535.32](#event-6553532) | 0x02BC       |     19 |              3 |
| [65535.33](#event-6553533) | 0x02CF       |     29 |              3 |
| [65535.34](#event-6553534) | 0x02EC       |     19 |              3 |
| [65535.35](#event-6553535) | 0x02FF       |     29 |              3 |
| [65535.36](#event-6553536) | 0x031C       |     19 |              3 |
| [65535.37](#event-6553537) | 0x032F       |     29 |              3 |
| [65535.38](#event-6553538) | 0x034C       |     16 |              2 |
| [65535.39](#event-6553539) | 0x035C       |     14 |              2 |
| [65535.40](#event-6553540) | 0x036A       |     16 |              2 |
| [65535.41](#event-6553541) | 0x037A       |     14 |              2 |
| [65535.42](#event-6553542) | 0x0388       |     16 |              2 |
| [65535.43](#event-6553543) | 0x0398       |     14 |              2 |
| [65535.44](#event-6553544) | 0x03A6       |     16 |              2 |
| [65535.45](#event-6553545) | 0x03B6       |     14 |              2 |
| [65535.46](#event-6553546) | 0x03C4       |     16 |              2 |
| [65535.47](#event-6553547) | 0x03D4       |     14 |              2 |
| [65535.48](#event-6553548) | 0x03E2       |     16 |              2 |
| [65535.49](#event-6553549) | 0x03F2       |     14 |              2 |
| [65535.50](#event-6553550) | 0x0400       |     16 |              2 |
| [65535.51](#event-6553551) | 0x0410       |     14 |              2 |
| [65535.52](#event-6553552) | 0x041E       |     16 |              2 |
| [65535.53](#event-6553553) | 0x042E       |     14 |              2 |
| [65535.54](#event-6553554) | 0x043C       |     16 |              2 |
| [65535.55](#event-6553555) | 0x044C       |     14 |              2 |
| [65535.56](#event-6553556) | 0x045A       |     16 |              2 |
| [65535.57](#event-6553557) | 0x046A       |     14 |              2 |
| [65535.58](#event-6553558) | 0x0478       |     16 |              2 |
| [65535.59](#event-6553559) | 0x0488       |     14 |              2 |
| [65535.60](#event-6553560) | 0x0496       |     16 |              2 |
| [65535.61](#event-6553561) | 0x04A6       |     14 |              2 |
| [65535.62](#event-6553562) | 0x04B4       |     16 |              2 |
| [65535.63](#event-6553563) | 0x04C4       |     14 |              2 |
| [65535.64](#event-6553564) | 0x04D2       |     16 |              2 |
| [65535.65](#event-6553565) | 0x04E2       |     14 |              2 |
| [65535.66](#event-6553566) | 0x04F0       |     16 |              2 |
| [65535.67](#event-6553567) | 0x0500       |     14 |              2 |
| [65535.68](#event-6553568) | 0x050E       |     16 |              2 |
| [65535.69](#event-6553569) | 0x051E       |     14 |              2 |
| [65535.70](#event-6553570) | 0x052C       |      9 |              3 |
| [556](#event-556)          | 0x0535       |      1 |              1 |
| [65535.71](#event-6553571) | 0x0536       |     10 |              2 |
| [65535.72](#event-6553572) | 0x0540       |     14 |              4 |
| [65535.73](#event-6553573) | 0x054E       |     14 |              4 |
| [65535.74](#event-6553574) | 0x055C       |     45 |              9 |
| [65535.75](#event-6553575) | 0x0589       |      5 |              3 |
| [65535.76](#event-6553576) | 0x058E       |      5 |              3 |
| [65535.77](#event-6553577) | 0x0593       |      5 |              3 |
| [65535.78](#event-6553578) | 0x0598       |      5 |              3 |
| [65535.79](#event-6553579) | 0x059D       |      5 |              3 |
| [65535.80](#event-6553580) | 0x05A2       |      5 |              3 |
| [584](#event-584)          | 0x05A7       |      1 |              1 |
| [585](#event-585)          | 0x05A8       |      1 |              1 |
| [65535.81](#event-6553581) | 0x05A9       |     15 |              5 |
| [65535.82](#event-6553582) | 0x05B8       |     15 |              5 |
| [65535.83](#event-6553583) | 0x05C7       |     15 |              5 |
| [65535.84](#event-6553584) | 0x05D6       |     15 |              5 |
| [65535.85](#event-6553585) | 0x05E5       |     15 |              5 |
| [65535.86](#event-6553586) | 0x05F4       |      2 |              2 |
| [65535.87](#event-6553587) | 0x05F6       |     15 |              5 |
| [65535.88](#event-6553588) | 0x0605       |     15 |              5 |
| [65535.89](#event-6553589) | 0x0614       |     15 |              5 |
| [65535.90](#event-6553590) | 0x0623       |     47 |              5 |
| [597](#event-597)          | 0x0652       |      7 |              2 |
| [65535.91](#event-6553591) | 0x0659       |     46 |             11 |

## DAT References (imed_data)

|   Index | Hex Value   |   Dec Value |
|---------|-------------|-------------|
|       0 | 0xFFFFD1CA  |  4294955466 |
|       1 | 0xFFFFF09C  |  4294963356 |
|       2 | 0x0000      |           0 |
|       3 | 0x0FDA      |        4058 |
|       4 | 0xFFFFFD41  |  4294966593 |
|       5 | 0x5FB4      |       24500 |
|       6 | 0xFFFFFA24  |  4294965796 |
|       7 | 0x0C17      |        3095 |
|       8 | 0x001E      |          30 |
|       9 | 0x000D      |          13 |
|      10 | 0x6784      |       26500 |
|      11 | 0xFFFFFCE3  |  4294966499 |
|      12 | 0x8927      |       35111 |
|      13 | 0xFFFFF449  |  4294964297 |
|      14 | 0x053B      |        1339 |
|      15 | 0x0EB3      |        3763 |
|      16 | 0x0BDD      |        3037 |
|      17 | 0x0BDC      |        3036 |
|      18 | 0x0D5B      |        3419 |
|      19 | 0x0C08      |        3080 |
|      20 | 0x000A      |          10 |
|      21 | 0xFFFFE01B  |  4294959131 |
|      22 | 0xFFFFF10D  |  4294963469 |
|      23 | 0xFFFFE92A  |  4294961450 |
|      24 | 0xFFFFF971  |  4294965617 |
|      25 | 0xFFFE6AC4  |  4294863556 |
|      26 | 0xFAAD      |       64173 |
|      27 | 0x018E      |         398 |
|      28 | 0x05F3      |        1523 |
|      29 | 0xFFFFD997  |  4294957463 |
|      30 | 0xA40F      |       41999 |
|      31 | 0xFFFFF448  |  4294964296 |
|      32 | 0x0FF3      |        4083 |
|      33 | 0xFFFFEE6E  |  4294962798 |
|      34 | 0x9FE3      |       40931 |
|      35 | 0x00F0      |         240 |
|      36 | 0xFFFFF812  |  4294965266 |
|      37 | 0x2AEC      |       10988 |
|      38 | 0x0D83      |        3459 |
|      39 | 0xFFFFFE9F  |  4294966943 |
|      40 | 0x33D4      |       13268 |
|      41 | 0x0019      |          25 |
|      42 | 0x1ED3      |        7891 |
|      43 | 0xFFFE7998  |  4294867352 |
|      44 | 0x1264B     |       75339 |
|      45 | 0x077D      |        1917 |
|      46 | 0x0008      |           8 |
|      47 | 0xFFFE6C54  |  4294863956 |
|      48 | 0x11F7A     |       73594 |
|      49 | 0xFFFE9266  |  4294873702 |
|      50 | 0x12EE1     |       77537 |
|      51 | 0x1068      |        4200 |
|      52 | 0xA5A6      |       42406 |
|      53 | 0x062B      |        1579 |
|      54 | 0x0356      |         854 |
|      55 | 0x8C3A      |       35898 |
|      56 | 0x0B74      |        2932 |
|      57 | 0xFFFFF9E7  |  4294965735 |
|      58 | 0xA839      |       43065 |
|      59 | 0xFFFFF2BA  |  4294963898 |
|      60 | 0x02FF      |         767 |
|      61 | 0xFFFEA44B  |  4294878283 |
|      62 | 0x133D4     |       78804 |
|      63 | 0x0067      |         103 |
|      64 | 0xFFFE6AC9  |  4294863561 |
|      65 | 0xFA75      |       64117 |
|      66 | 0x05E5      |        1509 |
|      67 | 0xFFFF8EE6  |  4294938342 |
|      68 | 0x8B61      |       35681 |
|      69 | 0x0800      |        2048 |
|      70 | 0xFFFF75C3  |  4294931907 |
|      71 | 0x8B7C      |       35708 |
|      72 | 0xFFFF7356  |  4294931286 |
|      73 | 0x93DE      |       37854 |
|      74 | 0xFFFF6FB2  |  4294930354 |
|      75 | 0xC046      |       49222 |
|      76 | 0xFFFFFA8A  |  4294965898 |
|      77 | 0x1080      |        4224 |
|      78 | 0x0400      |        1024 |
|      79 | 0x0040      |          64 |
|      80 | 0x0001      |           1 |
|      81 | 0xFFFEB6B2  |  4294882994 |
|      82 | 0x129D9     |       76249 |
|      83 | 0x03E6      |         998 |
|      84 | 0x0399      |         921 |
|      85 | 0x6ABF      |       27327 |
|      86 | 0x0B85      |        2949 |
|      87 | 0x0078      |         120 |
|      88 | 0xFFFEB73F  |  4294883135 |
|      89 | 0x11978     |       72056 |
|      90 | 0x00BE      |         190 |
|      91 | 0x0014      |          20 |
|      92 | 0xFFFEB9B7  |  4294883767 |
|      93 | 0x1174A     |       71498 |
|      94 | 0x0094      |         148 |
|      95 | 0x03C8      |         968 |
|      96 | 0xFFFEB771  |  4294883185 |
|      97 | 0x10B63     |       68451 |
|      98 | 0xFFFFFBB3  |  4294966195 |
|      99 | 0xFFFEB952  |  4294883666 |
|     100 | 0xF3AE      |       62382 |
|     101 | 0x0D70      |        3440 |
|     102 | 0x003C      |          60 |
|     103 | 0xFFFEABEB  |  4294880235 |
|     104 | 0x12823     |       75811 |
|     105 | 0xFFFEB060  |  4294881376 |
|     106 | 0x1199E     |       72094 |
|     107 | 0xFFFEB321  |  4294882081 |
|     108 | 0x10D21     |       68897 |
|     109 | 0xFFFEB876  |  4294883446 |
|     110 | 0xEE19      |       60953 |
|     111 | 0x007D      |         125 |
|     112 | 0x007E      |         126 |
|     113 | 0xFFFE9227  |  4294873639 |
|     114 | 0x12C87     |       76935 |
|     115 | 0x07A0      |        1952 |
|     116 | 0xFFFE74A0  |  4294866080 |
|     117 | 0x1211F     |       74015 |
|     118 | 0xFFFE8127  |  4294869287 |
|     119 | 0x1267F     |       75391 |
|     120 | 0x0E17      |        3607 |
|     121 | 0x0080      |         128 |
|     122 | 0x1DDF      |        7647 |
|     123 | 0x1DE0      |        7648 |
|     124 | 0x1DE3      |        7651 |
|     125 | 0x1DE4      |        7652 |
|     126 | 0x1DE6      |        7654 |
|     127 | 0x1DE7      |        7655 |
|     128 | 0xFFFE658C  |  4294862220 |
|     129 | 0x11BA7     |       72615 |
|     130 | 0xFFFE5D40  |  4294860096 |
|     131 | 0x12140     |       74048 |
|     132 | 0xFFFE5DA0  |  4294860192 |
|     133 | 0x1297F     |       76159 |
|     134 | 0xFFFE643D  |  4294861885 |
|     135 | 0x121B1     |       74161 |
|     136 | 0xFFFE7718  |  4294866712 |
|     137 | 0x12DA6     |       77222 |
|     138 | 0xFFFE6A95  |  4294863509 |
|     139 | 0x1217C     |       74108 |
|     140 | 0xFFFE6DCF  |  4294864335 |
|     141 | 0x11F30     |       73520 |
|     142 | 0x007F      |         127 |
|     143 | 0xFFFF7BC3  |  4294933443 |
|     144 | 0x13969     |       80233 |
|     145 | 0xFFFFF14C  |  4294963532 |
|     146 | 0x0002      |           2 |
|     147 | 0x0007      |           7 |

## String References

- **7647**: Chalvatot, what has happened in my mother's chambers?
- **7648**: When I went to give some water to the flowers, I passed by some Temple Guards.
- **7651**: I--I do not know what to say...
- **7652**: I knew something was wrong when I found my mother's diary in a strange place...
- **7654**: Chalvatot, something is amiss... Could you please come to my chambers later?
- **7655**: Farewell, [Sir/Lady] <Player>. May you find the thieves that disgraced our great kingdom.

## Events

### Event 65535

#### Metadata

| Field        | Value   |
|--------------|---------|
| Entrypoint   | 0x0000  |
| Data Size    | 1 bytes |
| Instructions | 1       |

```
      00 01 02 03 04 05 06 07  08 09 0A 0B 0C 0D 0E 0F
      -- -- -- -- -- -- -- --  -- -- -- -- -- -- -- --
0000: 00                                                .               
```

#### Opcodes

```
  0: 0x0000 [0x00] END_REQSTACK()
```

### Event 10

#### Metadata

| Field        | Value    |
|--------------|----------|
| Entrypoint   | 0x0001   |
| Data Size    | 10 bytes |
| Instructions | 2        |

```
      00 01 02 03 04 05 06 07  08 09 0A 0B 0C 0D 0E 0F
      -- -- -- -- -- -- -- --  -- -- -- -- -- -- -- --
0000:    37 00 80 01 80 02 80  03 80 00                  7.........     
```

#### Opcodes

```
  0: 0x0001 [0x37] UPDATE_EVENT_POSITION_AND_DIR: x=-11.830*, z=-3.940*, y=0.000*, direction=356.6°*
  1: 0x000A [0x00] END_REQSTACK()
```

### Event 8

#### Metadata

| Field        | Value    |
|--------------|----------|
| Entrypoint   | 0x000B   |
| Data Size    | 10 bytes |
| Instructions | 2        |

```
      00 01 02 03 04 05 06 07  08 09 0A 0B 0C 0D 0E 0F
      -- -- -- -- -- -- -- --  -- -- -- -- -- -- -- --
0000:                                   37 04 80 05 80             7....
0010: 06 80 07 80 00                                    .....           
```

#### Opcodes

```
  0: 0x000B [0x37] UPDATE_EVENT_POSITION_AND_DIR: x=-0.703*, z=24.500*, y=-1.500*, direction=272.0°*
  1: 0x0014 [0x00] END_REQSTACK()
```

### Event 65535.1

#### Metadata

| Field        | Value    |
|--------------|----------|
| Entrypoint   | 0x0015   |
| Data Size    | 18 bytes |
| Instructions | 6        |

```
      00 01 02 03 04 05 06 07  08 09 0A 0B 0C 0D 0E 0F
      -- -- -- -- -- -- -- --  -- -- -- -- -- -- -- --
0010:                1C 08 80  32 09 80 1F 00 04 80 0A       ...2.......
0020: 80 06 80 1F 01 6F 00                              .....o.         
```

#### Opcodes

```
  0: 0x0015 [0x1C] WAIT(30* ticks)
  1: 0x0018 [0x32] ExtData[1]->MainSpeed = 13* * 0.1
  2: 0x001B [0x1F] MOVE_ENTITY: EventEntity moves to X=-0.703*, Z=26.500*, Y=-1.500*
  3: 0x0023 [0x1F] MOVE_ENTITY: Update entity position (mode=1)
  4: 0x0025 [0x6F] WAIT_FRAME_DELAY: Yield until WaitTime reaches zero
  5: 0x0026 [0x00] END_REQSTACK()
```

### Event 65535.2

#### Metadata

| Field        | Value    |
|--------------|----------|
| Entrypoint   | 0x0027   |
| Data Size    | 12 bytes |
| Instructions | 4        |

```
      00 01 02 03 04 05 06 07  08 09 0A 0B 0C 0D 0E 0F
      -- -- -- -- -- -- -- --  -- -- -- -- -- -- -- --
0020:                      1F  00 0B 80 0C 80 0D 80 1F         .........
0030: 01 6F 00                                          .o.             
```

#### Opcodes

```
  0: 0x0027 [0x1F] MOVE_ENTITY: EventEntity moves to X=-0.797*, Z=35.111*, Y=-2.999*
  1: 0x002F [0x1F] MOVE_ENTITY: Update entity position (mode=1)
  2: 0x0031 [0x6F] WAIT_FRAME_DELAY: Yield until WaitTime reaches zero
  3: 0x0032 [0x00] END_REQSTACK()
```

### Event 9

#### Metadata

| Field        | Value    |
|--------------|----------|
| Entrypoint   | 0x0033   |
| Data Size    | 10 bytes |
| Instructions | 2        |

```
      00 01 02 03 04 05 06 07  08 09 0A 0B 0C 0D 0E 0F
      -- -- -- -- -- -- -- --  -- -- -- -- -- -- -- --
0030:          37 0E 80 0F 80  02 80 10 80 00              7.........   
```

#### Opcodes

```
  0: 0x0033 [0x37] UPDATE_EVENT_POSITION_AND_DIR: x=1.339*, z=3.763*, y=0.000*, direction=266.9°*
  1: 0x003C [0x00] END_REQSTACK()
```

### Event 65535.3

#### Metadata

| Field        | Value    |
|--------------|----------|
| Entrypoint   | 0x003D   |
| Data Size    | 20 bytes |
| Instructions | 6        |

```
      00 01 02 03 04 05 06 07  08 09 0A 0B 0C 0D 0E 0F
      -- -- -- -- -- -- -- --  -- -- -- -- -- -- -- --
0030:                                         32 09 80               2..
0040: 1F 00 11 80 12 80 02 80  1F 01 6F 1E F0 FF FF 7F  ..........o.....
0050: 00                                                .               
```

#### Opcodes

```
  0: 0x003D [0x32] ExtData[1]->MainSpeed = 13* * 0.1
  1: 0x0040 [0x1F] MOVE_ENTITY: EventEntity moves to X=3.036*, Z=3.419*, Y=0.000*
  2: 0x0048 [0x1F] MOVE_ENTITY: Update entity position (mode=1)
  3: 0x004A [0x6F] WAIT_FRAME_DELAY: Yield until WaitTime reaches zero
  4: 0x004B [0x1E] EventEntity looks at LocalPlayer and starts talking
  5: 0x0050 [0x00] END_REQSTACK()
```

### Event 65535.4

#### Metadata

| Field        | Value    |
|--------------|----------|
| Entrypoint   | 0x0051   |
| Data Size    | 12 bytes |
| Instructions | 3        |

```
      00 01 02 03 04 05 06 07  08 09 0A 0B 0C 0D 0E 0F
      -- -- -- -- -- -- -- --  -- -- -- -- -- -- -- --
0050:    33 01 37 0B 80 0C 80  0D 80 13 80 00            3.7.........   
```

#### Opcodes

```
  0: 0x0051 [0x33] EventEntity->Render.Flags0 |= 0x200000 // Bit 21 (flag=0x01)
  1: 0x0053 [0x37] UPDATE_EVENT_POSITION_AND_DIR: x=-0.797*, z=35.111*, y=-2.999*, direction=270.7°*
  2: 0x005C [0x00] END_REQSTACK()
```

### Event 65535.5

#### Metadata

| Field        | Value    |
|--------------|----------|
| Entrypoint   | 0x005D   |
| Data Size    | 14 bytes |
| Instructions | 4        |

```
      00 01 02 03 04 05 06 07  08 09 0A 0B 0C 0D 0E 0F
      -- -- -- -- -- -- -- --  -- -- -- -- -- -- -- --
0050:                                         32 14 80               2..
0060: 1F 00 15 80 16 80 02 80  1F 01 00                 ...........     
```

#### Opcodes

```
  0: 0x005D [0x32] ExtData[1]->MainSpeed = 10* * 0.1
  1: 0x0060 [0x1F] MOVE_ENTITY: EventEntity moves to X=-8.165*, Z=-3.827*, Y=0.000*
  2: 0x0068 [0x1F] MOVE_ENTITY: Update entity position (mode=1)
  3: 0x006A [0x00] END_REQSTACK()
```

### Event 65535.6

#### Metadata

| Field        | Value    |
|--------------|----------|
| Entrypoint   | 0x006B   |
| Data Size    | 11 bytes |
| Instructions | 3        |

```
      00 01 02 03 04 05 06 07  08 09 0A 0B 0C 0D 0E 0F
      -- -- -- -- -- -- -- --  -- -- -- -- -- -- -- --
0060:                                   1F 00 17 80 18             .....
0070: 80 02 80 1F 01 00                                 ......          
```

#### Opcodes

```
  0: 0x006B [0x1F] MOVE_ENTITY: EventEntity moves to X=-5.846*, Z=-1.679*, Y=0.000*
  1: 0x0073 [0x1F] MOVE_ENTITY: Update entity position (mode=1)
  2: 0x0075 [0x00] END_REQSTACK()
```

### Event 76

#### Metadata

| Field        | Value    |
|--------------|----------|
| Entrypoint   | 0x0076   |
| Data Size    | 12 bytes |
| Instructions | 3        |

```
      00 01 02 03 04 05 06 07  08 09 0A 0B 0C 0D 0E 0F
      -- -- -- -- -- -- -- --  -- -- -- -- -- -- -- --
0070:                   22 00  37 19 80 1A 80 1B 80 1C        ".7.......
0080: 80 00                                             ..              
```

#### Opcodes

```
  0: 0x0076 [0x22] ENTITY_HIDE_FLAG(enabled=0x00)
  1: 0x0078 [0x37] UPDATE_EVENT_POSITION_AND_DIR: x=-103.740*, z=64.173*, y=0.398*, direction=133.9°*
  2: 0x0081 [0x00] END_REQSTACK()
```

### Event 32

#### Metadata

| Field        | Value    |
|--------------|----------|
| Entrypoint   | 0x0082   |
| Data Size    | 12 bytes |
| Instructions | 3        |

```
      00 01 02 03 04 05 06 07  08 09 0A 0B 0C 0D 0E 0F
      -- -- -- -- -- -- -- --  -- -- -- -- -- -- -- --
0080:       37 1D 80 1E 80 1F  80 20 80 22 01 00          7...... ."..  
```

#### Opcodes

```
  0: 0x0082 [0x37] UPDATE_EVENT_POSITION_AND_DIR: x=-9.833*, z=41.999*, y=-3.000*, direction=358.8°*
  1: 0x008B [0x22] ENTITY_HIDE_FLAG(enabled=0x01)
  2: 0x008D [0x00] END_REQSTACK()
```

### Event 65535.7

#### Metadata

| Field        | Value    |
|--------------|----------|
| Entrypoint   | 0x008E   |
| Data Size    | 14 bytes |
| Instructions | 4        |

```
      00 01 02 03 04 05 06 07  08 09 0A 0B 0C 0D 0E 0F
      -- -- -- -- -- -- -- --  -- -- -- -- -- -- -- --
0080:                                            32 14                2.
0090: 80 1F 00 21 80 22 80 1F  80 1F 01 00              ...!."......    
```

#### Opcodes

```
  0: 0x008E [0x32] ExtData[1]->MainSpeed = 10* * 0.1
  1: 0x0091 [0x1F] MOVE_ENTITY: EventEntity moves to X=-4.498*, Z=40.931*, Y=-3.000*
  2: 0x0099 [0x1F] MOVE_ENTITY: Update entity position (mode=1)
  3: 0x009B [0x00] END_REQSTACK()
```

### Event 65535.8

#### Metadata

| Field        | Value    |
|--------------|----------|
| Entrypoint   | 0x009C   |
| Data Size    | 33 bytes |
| Instructions | 5        |

```
      00 01 02 03 04 05 06 07  08 09 0A 0B 0C 0D 0E 0F
      -- -- -- -- -- -- -- --  -- -- -- -- -- -- -- --
0090:                                      32 14 80 31              2..1
00A0: 00 1D 80 1E 80 1F 80 23  80 31 01 45 09 80 F0 FF  .......#.1.E....
00B0: FF 7F F0 FF FF 7F 73 65  30 30 02 80 00           ......se00...   
```

#### Opcodes

```
  0: 0x009C [0x32] ExtData[1]->MainSpeed = 10* * 0.1
  1: 0x009F [0x31] UPDATE_ENTITY_POSITION: Set EventEntity goal position to X=-9.833*, Z=41.999*, Y=-3.000*, Time=240*
  2: 0x00A9 [0x31] UPDATE_ENTITY_POSITION: Move EventEntity towards goal position
  3: 0x00AB [0x45] LOAD_SCHEDULED_TASK: Load scheduler "se00" with entities [LocalPlayer, LocalPlayer], work=[13*, 0*]
  4: 0x00BC [0x00] END_REQSTACK()
```

### Event 65535.9

#### Metadata

| Field        | Value    |
|--------------|----------|
| Entrypoint   | 0x00BD   |
| Data Size    | 13 bytes |
| Instructions | 4        |

```
      00 01 02 03 04 05 06 07  08 09 0A 0B 0C 0D 0E 0F
      -- -- -- -- -- -- -- --  -- -- -- -- -- -- -- --
00B0:                                         84 22 00               .".
00C0: 37 24 80 25 80 06 80 26  80 00                    7$.%...&..      
```

#### Opcodes

```
  0: 0x00BD [0x84] ADJUST_RENDER_FLAGS3_BIT0()
  1: 0x00BE [0x22] ENTITY_HIDE_FLAG(enabled=0x00)
  2: 0x00C0 [0x37] UPDATE_EVENT_POSITION_AND_DIR: x=-2.030*, z=10.988*, y=-1.500*, direction=304.0°*
  3: 0x00C9 [0x00] END_REQSTACK()
```

### Event 65535.10

#### Metadata

| Field        | Value    |
|--------------|----------|
| Entrypoint   | 0x00CA   |
| Data Size    | 22 bytes |
| Instructions | 8        |

```
      00 01 02 03 04 05 06 07  08 09 0A 0B 0C 0D 0E 0F
      -- -- -- -- -- -- -- --  -- -- -- -- -- -- -- --
00C0:                                32 14 80 1F 00 27            2....'
00D0: 80 28 80 06 80 1F 01 6F  1E F0 FF FF 7F 6F 70 00  .(.....o.....op.
```

#### Opcodes

```
  0: 0x00CA [0x32] ExtData[1]->MainSpeed = 10* * 0.1
  1: 0x00CD [0x1F] MOVE_ENTITY: EventEntity moves to X=-0.353*, Z=13.268*, Y=-1.500*
  2: 0x00D5 [0x1F] MOVE_ENTITY: Update entity position (mode=1)
  3: 0x00D7 [0x6F] WAIT_FRAME_DELAY: Yield until WaitTime reaches zero
  4: 0x00D8 [0x1E] EventEntity looks at LocalPlayer and starts talking
  5: 0x00DD [0x6F] WAIT_FRAME_DELAY: Yield until WaitTime reaches zero
  6: 0x00DE [0x70] WAIT_ENTITY_RENDER_FLAG: Wait while EventEntity->Render.Flags3 bit 2 is set (cancel turn if not)
  7: 0x00DF [0x00] END_REQSTACK()
```

### Event 65535.11

#### Metadata

| Field        | Value    |
|--------------|----------|
| Entrypoint   | 0x00E0   |
| Data Size    | 13 bytes |
| Instructions | 4        |

```
      00 01 02 03 04 05 06 07  08 09 0A 0B 0C 0D 0E 0F
      -- -- -- -- -- -- -- --  -- -- -- -- -- -- -- --
00E0: 1F 00 29 80 2A 80 06 80  1F 01 22 01 00           ..).*....."..   
```

#### Opcodes

```
  0: 0x00E0 [0x1F] MOVE_ENTITY: EventEntity moves to X=0.025*, Z=7.891*, Y=-1.500*
  1: 0x00E8 [0x1F] MOVE_ENTITY: Update entity position (mode=1)
  2: 0x00EA [0x22] ENTITY_HIDE_FLAG(enabled=0x01)
  3: 0x00EC [0x00] END_REQSTACK()
```

### Event 538

#### Metadata

| Field        | Value   |
|--------------|---------|
| Entrypoint   | 0x00ED  |
| Data Size    | 1 bytes |
| Instructions | 1       |

```
      00 01 02 03 04 05 06 07  08 09 0A 0B 0C 0D 0E 0F
      -- -- -- -- -- -- -- --  -- -- -- -- -- -- -- --
00E0:                                         00                     .  
```

#### Opcodes

```
  0: 0x00ED [0x00] END_REQSTACK()
```

### Event 528

#### Metadata

| Field        | Value   |
|--------------|---------|
| Entrypoint   | 0x00EE  |
| Data Size    | 2 bytes |
| Instructions | 2       |

```
      00 01 02 03 04 05 06 07  08 09 0A 0B 0C 0D 0E 0F
      -- -- -- -- -- -- -- --  -- -- -- -- -- -- -- --
00E0:                                            21 00                !.
```

#### Opcodes

```
  0: 0x00EE [0x21] END_EVENT
  1: 0x00EF [0x00] END_REQSTACK()
```

### Event 65535.12

#### Metadata

| Field        | Value   |
|--------------|---------|
| Entrypoint   | 0x00F0  |
| Data Size    | 9 bytes |
| Instructions | 3       |

```
      00 01 02 03 04 05 06 07  08 09 0A 0B 0C 0D 0E 0F
      -- -- -- -- -- -- -- --  -- -- -- -- -- -- -- --
00F0: 2F 00 06 90 0E 01 22 00  00                       /....."..       
```

#### Opcodes

```
  0: 0x00F0 [0x2F] Claidie (ID: 17731590/0x010E9006)->Render.Flags0 &= ~0x80000 // Bit 19
  1: 0x00F6 [0x22] ENTITY_HIDE_FLAG(enabled=0x00)
  2: 0x00F8 [0x00] END_REQSTACK()
```

### Event 65535.13

#### Metadata

| Field        | Value    |
|--------------|----------|
| Entrypoint   | 0x00F9   |
| Data Size    | 10 bytes |
| Instructions | 2        |

```
      00 01 02 03 04 05 06 07  08 09 0A 0B 0C 0D 0E 0F
      -- -- -- -- -- -- -- --  -- -- -- -- -- -- -- --
00F0:                             37 2B 80 2C 80 1B 80           7+.,...
0100: 2D 80 00                                          -..             
```

#### Opcodes

```
  0: 0x00F9 [0x37] UPDATE_EVENT_POSITION_AND_DIR: x=-99.944*, z=75.339*, y=0.398*, direction=168.5°*
  1: 0x0102 [0x00] END_REQSTACK()
```

### Event 65535.14

#### Metadata

| Field        | Value    |
|--------------|----------|
| Entrypoint   | 0x0103   |
| Data Size    | 14 bytes |
| Instructions | 4        |

```
      00 01 02 03 04 05 06 07  08 09 0A 0B 0C 0D 0E 0F
      -- -- -- -- -- -- -- --  -- -- -- -- -- -- -- --
0100:          32 2E 80 1F 00  2F 80 30 80 1B 80 1F 01     2..../.0.....
0110: 00                                                .               
```

#### Opcodes

```
  0: 0x0103 [0x32] ExtData[1]->MainSpeed = 8* * 0.1
  1: 0x0106 [0x1F] MOVE_ENTITY: EventEntity moves to X=-103.340*, Z=73.594*, Y=0.398*
  2: 0x010E [0x1F] MOVE_ENTITY: Update entity position (mode=1)
  3: 0x0110 [0x00] END_REQSTACK()
```

### Event 65535.15

#### Metadata

| Field        | Value   |
|--------------|---------|
| Entrypoint   | 0x0111  |
| Data Size    | 6 bytes |
| Instructions | 2       |

```
      00 01 02 03 04 05 06 07  08 09 0A 0B 0C 0D 0E 0F
      -- -- -- -- -- -- -- --  -- -- -- -- -- -- -- --
0110:    1E F0 FF FF 7F 00                               ......         
```

#### Opcodes

```
  0: 0x0111 [0x1E] EventEntity looks at LocalPlayer and starts talking
  1: 0x0116 [0x00] END_REQSTACK()
```

### Event 65535.16

#### Metadata

| Field        | Value    |
|--------------|----------|
| Entrypoint   | 0x0117   |
| Data Size    | 14 bytes |
| Instructions | 4        |

```
      00 01 02 03 04 05 06 07  08 09 0A 0B 0C 0D 0E 0F
      -- -- -- -- -- -- -- --  -- -- -- -- -- -- -- --
0110:                      32  2E 80 1F 00 31 80 32 80         2....1.2.
0120: 1B 80 1F 01 00                                    .....           
```

#### Opcodes

```
  0: 0x0117 [0x32] ExtData[1]->MainSpeed = 8* * 0.1
  1: 0x011A [0x1F] MOVE_ENTITY: EventEntity moves to X=-93.594*, Z=77.537*, Y=0.398*
  2: 0x0122 [0x1F] MOVE_ENTITY: Update entity position (mode=1)
  3: 0x0124 [0x00] END_REQSTACK()
```

### Event 61

#### Metadata

| Field        | Value    |
|--------------|----------|
| Entrypoint   | 0x0125   |
| Data Size    | 12 bytes |
| Instructions | 3        |

```
      00 01 02 03 04 05 06 07  08 09 0A 0B 0C 0D 0E 0F
      -- -- -- -- -- -- -- --  -- -- -- -- -- -- -- --
0120:                22 00 37  33 80 34 80 1F 80 35 80       ".73.4...5.
0130: 00                                                .               
```

#### Opcodes

```
  0: 0x0125 [0x22] ENTITY_HIDE_FLAG(enabled=0x00)
  1: 0x0127 [0x37] UPDATE_EVENT_POSITION_AND_DIR: x=4.200*, z=42.406*, y=-3.000*, direction=138.8°*
  2: 0x0130 [0x00] END_REQSTACK()
```

### Event 21

#### Metadata

| Field        | Value    |
|--------------|----------|
| Entrypoint   | 0x0131   |
| Data Size    | 13 bytes |
| Instructions | 4        |

```
      00 01 02 03 04 05 06 07  08 09 0A 0B 0C 0D 0E 0F
      -- -- -- -- -- -- -- --  -- -- -- -- -- -- -- --
0130:    22 00 84 37 36 80 37  80 1F 80 38 80 00         "..76.7...8..  
```

#### Opcodes

```
  0: 0x0131 [0x22] ENTITY_HIDE_FLAG(enabled=0x00)
  1: 0x0133 [0x84] ADJUST_RENDER_FLAGS3_BIT0()
  2: 0x0134 [0x37] UPDATE_EVENT_POSITION_AND_DIR: x=0.854*, z=35.898*, y=-3.000*, direction=257.7°*
  3: 0x013D [0x00] END_REQSTACK()
```

### Event 99

#### Metadata

| Field        | Value    |
|--------------|----------|
| Entrypoint   | 0x013E   |
| Data Size    | 11 bytes |
| Instructions | 3        |

```
      00 01 02 03 04 05 06 07  08 09 0A 0B 0C 0D 0E 0F
      -- -- -- -- -- -- -- --  -- -- -- -- -- -- -- --
0130:                                            84 37                .7
0140: 39 80 3A 80 3B 80 3C 80  00                       9.:.;.<..       
```

#### Opcodes

```
  0: 0x013E [0x84] ADJUST_RENDER_FLAGS3_BIT0()
  1: 0x013F [0x37] UPDATE_EVENT_POSITION_AND_DIR: x=-1.561*, z=43.065*, y=-3.398*, direction=67.4°*
  2: 0x0148 [0x00] END_REQSTACK()
```

### Event 0

#### Metadata

| Field        | Value    |
|--------------|----------|
| Entrypoint   | 0x0149   |
| Data Size    | 11 bytes |
| Instructions | 3        |

```
      00 01 02 03 04 05 06 07  08 09 0A 0B 0C 0D 0E 0F
      -- -- -- -- -- -- -- --  -- -- -- -- -- -- -- --
0140:                             84 37 3D 80 3E 80 1B           .7=.>..
0150: 80 3F 80 00                                       .?..            
```

#### Opcodes

```
  0: 0x0149 [0x84] ADJUST_RENDER_FLAGS3_BIT0()
  1: 0x014A [0x37] UPDATE_EVENT_POSITION_AND_DIR: x=-89.013*, z=78.804*, y=0.398*, direction=9.1°*
  2: 0x0153 [0x00] END_REQSTACK()
```

### Event 116

#### Metadata

| Field        | Value    |
|--------------|----------|
| Entrypoint   | 0x0154   |
| Data Size    | 10 bytes |
| Instructions | 2        |

```
      00 01 02 03 04 05 06 07  08 09 0A 0B 0C 0D 0E 0F
      -- -- -- -- -- -- -- --  -- -- -- -- -- -- -- --
0150:             37 40 80 41  80 1B 80 42 80 00            7@.A...B..  
```

#### Opcodes

```
  0: 0x0154 [0x37] UPDATE_EVENT_POSITION_AND_DIR: x=-103.735*, z=64.117*, y=0.398*, direction=132.6°*
  1: 0x015D [0x00] END_REQSTACK()
```

### Event 65535.17

#### Metadata

| Field        | Value    |
|--------------|----------|
| Entrypoint   | 0x015E   |
| Data Size    | 14 bytes |
| Instructions | 4        |

```
      00 01 02 03 04 05 06 07  08 09 0A 0B 0C 0D 0E 0F
      -- -- -- -- -- -- -- --  -- -- -- -- -- -- -- --
0150:                                            32 14                2.
0160: 80 84 37 43 80 44 80 1F  80 45 80 00              ..7C.D...E..    
```

#### Opcodes

```
  0: 0x015E [0x32] ExtData[1]->MainSpeed = 10* * 0.1
  1: 0x0161 [0x84] ADJUST_RENDER_FLAGS3_BIT0()
  2: 0x0162 [0x37] UPDATE_EVENT_POSITION_AND_DIR: x=-28.954*, z=35.681*, y=-3.000*, direction=180.0°*
  3: 0x016B [0x00] END_REQSTACK()
```

### Event 65535.18

#### Metadata

| Field        | Value    |
|--------------|----------|
| Entrypoint   | 0x016C   |
| Data Size    | 12 bytes |
| Instructions | 4        |

```
      00 01 02 03 04 05 06 07  08 09 0A 0B 0C 0D 0E 0F
      -- -- -- -- -- -- -- --  -- -- -- -- -- -- -- --
0160:                                      1F 00 46 80              ..F.
0170: 47 80 1F 80 1F 01 6F 00                           G.....o.        
```

#### Opcodes

```
  0: 0x016C [0x1F] MOVE_ENTITY: EventEntity moves to X=-35.389*, Z=35.708*, Y=-3.000*
  1: 0x0174 [0x1F] MOVE_ENTITY: Update entity position (mode=1)
  2: 0x0176 [0x6F] WAIT_FRAME_DELAY: Yield until WaitTime reaches zero
  3: 0x0177 [0x00] END_REQSTACK()
```

### Event 65535.19

#### Metadata

| Field        | Value    |
|--------------|----------|
| Entrypoint   | 0x0178   |
| Data Size    | 19 bytes |
| Instructions | 7        |

```
      00 01 02 03 04 05 06 07  08 09 0A 0B 0C 0D 0E 0F
      -- -- -- -- -- -- -- --  -- -- -- -- -- -- -- --
0170:                          1F 00 48 80 49 80 1F 80          ..H.I...
0180: 1F 01 6F 1E 2F 90 0E 01  6F 70 00                 ..o./...op.     
```

#### Opcodes

```
  0: 0x0178 [0x1F] MOVE_ENTITY: EventEntity moves to X=-36.010*, Z=37.854*, Y=-3.000*
  1: 0x0180 [0x1F] MOVE_ENTITY: Update entity position (mode=1)
  2: 0x0182 [0x6F] WAIT_FRAME_DELAY: Yield until WaitTime reaches zero
  3: 0x0183 [0x1E] EventEntity looks at Unnamed NPC (ID: 17731631/0x010E902F) and starts talking
  4: 0x0188 [0x6F] WAIT_FRAME_DELAY: Yield until WaitTime reaches zero
  5: 0x0189 [0x70] WAIT_ENTITY_RENDER_FLAG: Wait while EventEntity->Render.Flags3 bit 2 is set (cancel turn if not)
  6: 0x018A [0x00] END_REQSTACK()
```

### Event 65535.20

#### Metadata

| Field        | Value    |
|--------------|----------|
| Entrypoint   | 0x018B   |
| Data Size    | 11 bytes |
| Instructions | 3        |

```
      00 01 02 03 04 05 06 07  08 09 0A 0B 0C 0D 0E 0F
      -- -- -- -- -- -- -- --  -- -- -- -- -- -- -- --
0180:                                   84 37 4A 80 4B             .7J.K
0190: 80 4C 80 4D 80 00                                 .L.M..          
```

#### Opcodes

```
  0: 0x018B [0x84] ADJUST_RENDER_FLAGS3_BIT0()
  1: 0x018C [0x37] UPDATE_EVENT_POSITION_AND_DIR: x=-36.942*, z=49.222*, y=-1.398*, direction=371.2°*
  2: 0x0195 [0x00] END_REQSTACK()
```

### Event 65535.21

#### Metadata

| Field        | Value    |
|--------------|----------|
| Entrypoint   | 0x0196   |
| Data Size    | 40 bytes |
| Instructions | 9        |

```
      00 01 02 03 04 05 06 07  08 09 0A 0B 0C 0D 0E 0F
      -- -- -- -- -- -- -- --  -- -- -- -- -- -- -- --
0190:                   03 01  00 4E 80 3A F8 FF FF 7F        ...N.:....
01A0: 00 00 02 00 00 01 00 04  B8 01 39 00 00 08 00 00  ..........9.....
01B0: 4F 80 1C 50 80 01 A2 01  1E 0E 90 0E 01 00        O..P..........  
```

#### Opcodes

```
  0: 0x0196 [0x03] ExtData[1]->WorkLocal[1] = 1024*
  1: 0x019B [0x3A] CONVERT_YAW_TO_BYTE(entity=EventEntity, result_destination=ExtData[1]->WorkLocal[0])
  2: 0x01A2 [0x02] IF !(ExtData[1]->WorkLocal[0] < ExtData[1]->WorkLocal[1]) GOTO 0x01B8
  3: 0x01AA [0x39] SET_ENTITY_DIRECTION(direction=ExtData[1]->WorkLocal[0])
  4: 0x01AD [0x08] ExtData[1]->WorkLocal[0] -= 64*
  5: 0x01B2 [0x1C] WAIT(1* ticks)
  6: 0x01B5 [0x01] GOTO 0x01A2
  7: 0x01B8 [0x1E] EventEntity looks at Chalvatot (ID: 17731598/0x010E900E) and starts talking
  8: 0x01BD [0x00] END_REQSTACK()
```

### Event 96

#### Metadata

| Field        | Value    |
|--------------|----------|
| Entrypoint   | 0x01BE   |
| Data Size    | 20 bytes |
| Instructions | 4        |

```
      00 01 02 03 04 05 06 07  08 09 0A 0B 0C 0D 0E 0F
      -- -- -- -- -- -- -- --  -- -- -- -- -- -- -- --
01B0:                                            84 37                .7
01C0: 51 80 52 80 1B 80 53 80  6C F8 FF FF 7F 02 80 02  Q.R...S.l.......
01D0: 80 00                                             ..              
```

#### Opcodes

```
  0: 0x01BE [0x84] ADJUST_RENDER_FLAGS3_BIT0()
  1: 0x01BF [0x37] UPDATE_EVENT_POSITION_AND_DIR: x=-84.302*, z=76.249*, y=0.398*, direction=87.7°*
  2: 0x01C8 [0x6C] FADE_ENTITY_COLOR(entity_id=EventEntity, end_alpha=0*, fade_time=0*)
  3: 0x01D1 [0x00] END_REQSTACK()
```

### Event 100

#### Metadata

| Field        | Value    |
|--------------|----------|
| Entrypoint   | 0x01D2   |
| Data Size    | 11 bytes |
| Instructions | 3        |

```
      00 01 02 03 04 05 06 07  08 09 0A 0B 0C 0D 0E 0F
      -- -- -- -- -- -- -- --  -- -- -- -- -- -- -- --
01D0:       84 37 54 80 55 80  06 80 56 80 00             .7T.U...V..   
```

#### Opcodes

```
  0: 0x01D2 [0x84] ADJUST_RENDER_FLAGS3_BIT0()
  1: 0x01D3 [0x37] UPDATE_EVENT_POSITION_AND_DIR: x=0.921*, z=27.327*, y=-1.500*, direction=259.2°*
  2: 0x01DC [0x00] END_REQSTACK()
```

### Event 65535.22

#### Metadata

| Field        | Value    |
|--------------|----------|
| Entrypoint   | 0x01DD   |
| Data Size    | 10 bytes |
| Instructions | 2        |

```
      00 01 02 03 04 05 06 07  08 09 0A 0B 0C 0D 0E 0F
      -- -- -- -- -- -- -- --  -- -- -- -- -- -- -- --
01D0:                                         6C F8 FF               l..
01E0: FF 7F 4F 80 57 80 00                              ..O.W..         
```

#### Opcodes

```
  0: 0x01DD [0x6C] FADE_ENTITY_COLOR(entity_id=EventEntity, end_alpha=64*, fade_time=120*)
  1: 0x01E6 [0x00] END_REQSTACK()
```

### Event 65535.23

#### Metadata

| Field        | Value    |
|--------------|----------|
| Entrypoint   | 0x01E7   |
| Data Size    | 16 bytes |
| Instructions | 4        |

```
      00 01 02 03 04 05 06 07  08 09 0A 0B 0C 0D 0E 0F
      -- -- -- -- -- -- -- --  -- -- -- -- -- -- -- --
01E0:                      32  14 80 31 00 58 80 59 80         2..1.X.Y.
01F0: 1B 80 5A 80 31 01 00                              ..Z.1..         
```

#### Opcodes

```
  0: 0x01E7 [0x32] ExtData[1]->MainSpeed = 10* * 0.1
  1: 0x01EA [0x31] UPDATE_ENTITY_POSITION: Set EventEntity goal position to X=-84.161*, Z=72.056*, Y=0.398*, Time=190*
  2: 0x01F4 [0x31] UPDATE_ENTITY_POSITION: Move EventEntity towards goal position
  3: 0x01F6 [0x00] END_REQSTACK()
```

### Event 65535.24

#### Metadata

| Field        | Value    |
|--------------|----------|
| Entrypoint   | 0x01F7   |
| Data Size    | 39 bytes |
| Instructions | 9        |

```
      00 01 02 03 04 05 06 07  08 09 0A 0B 0C 0D 0E 0F
      -- -- -- -- -- -- -- --  -- -- -- -- -- -- -- --
01F0:                      84  1C 5B 80 6C F8 FF FF 7F         ..[.l....
0200: 4F 80 02 80 37 5C 80 5D  80 5E 80 5F 80 1F 00 60  O...7\.].^._...`
0210: 80 61 80 62 80 1F 01 6F  1E 2F 90 0E 01 00        .a.b...o./....  
```

#### Opcodes

```
  0: 0x01F7 [0x84] ADJUST_RENDER_FLAGS3_BIT0()
  1: 0x01F8 [0x1C] WAIT(20* ticks)
  2: 0x01FB [0x6C] FADE_ENTITY_COLOR(entity_id=EventEntity, end_alpha=64*, fade_time=0*)
  3: 0x0204 [0x37] UPDATE_EVENT_POSITION_AND_DIR: x=-83.529*, z=71.498*, y=0.148*, direction=85.1°*
  4: 0x020D [0x1F] MOVE_ENTITY: EventEntity moves to X=-84.111*, Z=68.451*, Y=-1.101*
  5: 0x0215 [0x1F] MOVE_ENTITY: Update entity position (mode=1)
  6: 0x0217 [0x6F] WAIT_FRAME_DELAY: Yield until WaitTime reaches zero
  7: 0x0218 [0x1E] EventEntity looks at Unnamed NPC (ID: 17731631/0x010E902F) and starts talking
  8: 0x021D [0x00] END_REQSTACK()
```

### Event 65535.25

#### Metadata

| Field        | Value    |
|--------------|----------|
| Entrypoint   | 0x021E   |
| Data Size    | 11 bytes |
| Instructions | 3        |

```
      00 01 02 03 04 05 06 07  08 09 0A 0B 0C 0D 0E 0F
      -- -- -- -- -- -- -- --  -- -- -- -- -- -- -- --
0210:                                            1F 00                ..
0220: 63 80 64 80 62 80 1F 01  00                       c.d.b....       
```

#### Opcodes

```
  0: 0x021E [0x1F] MOVE_ENTITY: EventEntity moves to X=-83.630*, Z=62.382*, Y=-1.101*
  1: 0x0226 [0x1F] MOVE_ENTITY: Update entity position (mode=1)
  2: 0x0228 [0x00] END_REQSTACK()
```

### Event 65535.26

#### Metadata

| Field        | Value   |
|--------------|---------|
| Entrypoint   | 0x0229  |
| Data Size    | 7 bytes |
| Instructions | 3       |

```
      00 01 02 03 04 05 06 07  08 09 0A 0B 0C 0D 0E 0F
      -- -- -- -- -- -- -- --  -- -- -- -- -- -- -- --
0220:                             39 65 80 1C 66 80 00           9e..f..
```

#### Opcodes

```
  0: 0x0229 [0x39] SET_ENTITY_DIRECTION(direction=18.9°*)
  1: 0x022C [0x1C] WAIT(60* ticks)
  2: 0x022F [0x00] END_REQSTACK()
```

### Event 65535.27

#### Metadata

| Field        | Value    |
|--------------|----------|
| Entrypoint   | 0x0230   |
| Data Size    | 44 bytes |
| Instructions | 10       |

```
      00 01 02 03 04 05 06 07  08 09 0A 0B 0C 0D 0E 0F
      -- -- -- -- -- -- -- --  -- -- -- -- -- -- -- --
0230: 32 14 80 1F 00 67 80 68  80 1B 80 1F 01 1F 00 69  2....g.h.......i
0240: 80 6A 80 1B 80 1F 01 1F  00 6B 80 6C 80 62 80 1F  .j.......k.l.b..
0250: 01 1F 00 6D 80 6E 80 62  80 1F 01 00              ...m.n.b....    
```

#### Opcodes

```
  0: 0x0230 [0x32] ExtData[1]->MainSpeed = 10* * 0.1
  1: 0x0233 [0x1F] MOVE_ENTITY: EventEntity moves to X=-87.061*, Z=75.811*, Y=0.398*
  2: 0x023B [0x1F] MOVE_ENTITY: Update entity position (mode=1)
  3: 0x023D [0x1F] MOVE_ENTITY: EventEntity moves to X=-85.920*, Z=72.094*, Y=0.398*
  4: 0x0245 [0x1F] MOVE_ENTITY: Update entity position (mode=1)
  5: 0x0247 [0x1F] MOVE_ENTITY: EventEntity moves to X=-85.215*, Z=68.897*, Y=-1.101*
  6: 0x024F [0x1F] MOVE_ENTITY: Update entity position (mode=1)
  7: 0x0251 [0x1F] MOVE_ENTITY: EventEntity moves to X=-83.850*, Z=60.953*, Y=-1.101*
  8: 0x0259 [0x1F] MOVE_ENTITY: Update entity position (mode=1)
  9: 0x025B [0x00] END_REQSTACK()
```

### Event 65535.28

#### Metadata

| Field        | Value    |
|--------------|----------|
| Entrypoint   | 0x025C   |
| Data Size    | 19 bytes |
| Instructions | 3        |

```
      00 01 02 03 04 05 06 07  08 09 0A 0B 0C 0D 0E 0F
      -- -- -- -- -- -- -- --  -- -- -- -- -- -- -- --
0250:                                      5B 6F 80 06              [o..
0260: 90 0E 01 06 90 0E 01 75  6D 75 30 1C 08 80 00     .......umu0.... 
```

#### Opcodes

```
  0: 0x025C [0x5B] LOAD_EXT_SCHEDULER: Load scheduler "umu0" with entities [Claidie (ID: 17731590/0x010E9006), Claidie (ID: 17731590/0x010E9006)], work=125*
  1: 0x026B [0x1C] WAIT(30* ticks)
  2: 0x026E [0x00] END_REQSTACK()
```

### Event 65535.29

#### Metadata

| Field        | Value    |
|--------------|----------|
| Entrypoint   | 0x026F   |
| Data Size    | 29 bytes |
| Instructions | 3        |

```
      00 01 02 03 04 05 06 07  08 09 0A 0B 0C 0D 0E 0F
      -- -- -- -- -- -- -- --  -- -- -- -- -- -- -- --
0260:                                               5B                 [
0270: 6F 80 06 90 0E 01 06 90  0E 01 75 6D 75 31 53 06  o.........umu1S.
0280: 90 0E 01 06 90 0E 01 75  6D 75 31 00              .......umu1.    
```

#### Opcodes

```
  0: 0x026F [0x5B] LOAD_EXT_SCHEDULER: Load scheduler "umu1" with entities [Claidie (ID: 17731590/0x010E9006), Claidie (ID: 17731590/0x010E9006)], work=125*
  1: 0x027E [0x53] WAIT_SCHEDULER_TASK: Wait for scheduler "umu1" with entities [Claidie (ID: 17731590/0x010E9006), Claidie (ID: 17731590/0x010E9006)]
  2: 0x028B [0x00] END_REQSTACK()
```

### Event 65535.30

#### Metadata

| Field        | Value    |
|--------------|----------|
| Entrypoint   | 0x028C   |
| Data Size    | 19 bytes |
| Instructions | 3        |

```
      00 01 02 03 04 05 06 07  08 09 0A 0B 0C 0D 0E 0F
      -- -- -- -- -- -- -- --  -- -- -- -- -- -- -- --
0280:                                      5B 6F 80 06              [o..
0290: 90 0E 01 06 90 0E 01 74  68 6B 31 1C 08 80 00     .......thk1.... 
```

#### Opcodes

```
  0: 0x028C [0x5B] LOAD_EXT_SCHEDULER: Load scheduler "thk1" with entities [Claidie (ID: 17731590/0x010E9006), Claidie (ID: 17731590/0x010E9006)], work=125*
  1: 0x029B [0x1C] WAIT(30* ticks)
  2: 0x029E [0x00] END_REQSTACK()
```

### Event 65535.31

#### Metadata

| Field        | Value    |
|--------------|----------|
| Entrypoint   | 0x029F   |
| Data Size    | 29 bytes |
| Instructions | 3        |

```
      00 01 02 03 04 05 06 07  08 09 0A 0B 0C 0D 0E 0F
      -- -- -- -- -- -- -- --  -- -- -- -- -- -- -- --
0290:                                               5B                 [
02A0: 6F 80 06 90 0E 01 06 90  0E 01 74 68 6B 32 53 06  o.........thk2S.
02B0: 90 0E 01 06 90 0E 01 74  68 6B 32 00              .......thk2.    
```

#### Opcodes

```
  0: 0x029F [0x5B] LOAD_EXT_SCHEDULER: Load scheduler "thk2" with entities [Claidie (ID: 17731590/0x010E9006), Claidie (ID: 17731590/0x010E9006)], work=125*
  1: 0x02AE [0x53] WAIT_SCHEDULER_TASK: Wait for scheduler "thk2" with entities [Claidie (ID: 17731590/0x010E9006), Claidie (ID: 17731590/0x010E9006)]
  2: 0x02BB [0x00] END_REQSTACK()
```

### Event 65535.32

#### Metadata

| Field        | Value    |
|--------------|----------|
| Entrypoint   | 0x02BC   |
| Data Size    | 19 bytes |
| Instructions | 3        |

```
      00 01 02 03 04 05 06 07  08 09 0A 0B 0C 0D 0E 0F
      -- -- -- -- -- -- -- --  -- -- -- -- -- -- -- --
02B0:                                      5B 6F 80 06              [o..
02C0: 90 0E 01 06 90 0E 01 74  6C 6B 30 1C 08 80 00     .......tlk0.... 
```

#### Opcodes

```
  0: 0x02BC [0x5B] LOAD_EXT_SCHEDULER: Load scheduler "tlk0" with entities [Claidie (ID: 17731590/0x010E9006), Claidie (ID: 17731590/0x010E9006)], work=125*
  1: 0x02CB [0x1C] WAIT(30* ticks)
  2: 0x02CE [0x00] END_REQSTACK()
```

### Event 65535.33

#### Metadata

| Field        | Value    |
|--------------|----------|
| Entrypoint   | 0x02CF   |
| Data Size    | 29 bytes |
| Instructions | 3        |

```
      00 01 02 03 04 05 06 07  08 09 0A 0B 0C 0D 0E 0F
      -- -- -- -- -- -- -- --  -- -- -- -- -- -- -- --
02C0:                                               5B                 [
02D0: 6F 80 06 90 0E 01 06 90  0E 01 74 6C 6B 31 53 06  o.........tlk1S.
02E0: 90 0E 01 06 90 0E 01 74  6C 6B 31 00              .......tlk1.    
```

#### Opcodes

```
  0: 0x02CF [0x5B] LOAD_EXT_SCHEDULER: Load scheduler "tlk1" with entities [Claidie (ID: 17731590/0x010E9006), Claidie (ID: 17731590/0x010E9006)], work=125*
  1: 0x02DE [0x53] WAIT_SCHEDULER_TASK: Wait for scheduler "tlk1" with entities [Claidie (ID: 17731590/0x010E9006), Claidie (ID: 17731590/0x010E9006)]
  2: 0x02EB [0x00] END_REQSTACK()
```

### Event 65535.34

#### Metadata

| Field        | Value    |
|--------------|----------|
| Entrypoint   | 0x02EC   |
| Data Size    | 19 bytes |
| Instructions | 3        |

```
      00 01 02 03 04 05 06 07  08 09 0A 0B 0C 0D 0E 0F
      -- -- -- -- -- -- -- --  -- -- -- -- -- -- -- --
02E0:                                      5B 6F 80 06              [o..
02F0: 90 0E 01 06 90 0E 01 6F  67 61 30 1C 08 80 00     .......oga0.... 
```

#### Opcodes

```
  0: 0x02EC [0x5B] LOAD_EXT_SCHEDULER: Load scheduler "oga0" with entities [Claidie (ID: 17731590/0x010E9006), Claidie (ID: 17731590/0x010E9006)], work=125*
  1: 0x02FB [0x1C] WAIT(30* ticks)
  2: 0x02FE [0x00] END_REQSTACK()
```

### Event 65535.35

#### Metadata

| Field        | Value    |
|--------------|----------|
| Entrypoint   | 0x02FF   |
| Data Size    | 29 bytes |
| Instructions | 3        |

```
      00 01 02 03 04 05 06 07  08 09 0A 0B 0C 0D 0E 0F
      -- -- -- -- -- -- -- --  -- -- -- -- -- -- -- --
02F0:                                               5B                 [
0300: 6F 80 06 90 0E 01 06 90  0E 01 6F 67 61 31 53 06  o.........oga1S.
0310: 90 0E 01 06 90 0E 01 6F  67 61 31 00              .......oga1.    
```

#### Opcodes

```
  0: 0x02FF [0x5B] LOAD_EXT_SCHEDULER: Load scheduler "oga1" with entities [Claidie (ID: 17731590/0x010E9006), Claidie (ID: 17731590/0x010E9006)], work=125*
  1: 0x030E [0x53] WAIT_SCHEDULER_TASK: Wait for scheduler "oga1" with entities [Claidie (ID: 17731590/0x010E9006), Claidie (ID: 17731590/0x010E9006)]
  2: 0x031B [0x00] END_REQSTACK()
```

### Event 65535.36

#### Metadata

| Field        | Value    |
|--------------|----------|
| Entrypoint   | 0x031C   |
| Data Size    | 19 bytes |
| Instructions | 3        |

```
      00 01 02 03 04 05 06 07  08 09 0A 0B 0C 0D 0E 0F
      -- -- -- -- -- -- -- --  -- -- -- -- -- -- -- --
0310:                                      5B 6F 80 06              [o..
0320: 90 0E 01 06 90 0E 01 70  72 79 30 1C 66 80 00     .......pry0.f.. 
```

#### Opcodes

```
  0: 0x031C [0x5B] LOAD_EXT_SCHEDULER: Load scheduler "pry0" with entities [Claidie (ID: 17731590/0x010E9006), Claidie (ID: 17731590/0x010E9006)], work=125*
  1: 0x032B [0x1C] WAIT(60* ticks)
  2: 0x032E [0x00] END_REQSTACK()
```

### Event 65535.37

#### Metadata

| Field        | Value    |
|--------------|----------|
| Entrypoint   | 0x032F   |
| Data Size    | 29 bytes |
| Instructions | 3        |

```
      00 01 02 03 04 05 06 07  08 09 0A 0B 0C 0D 0E 0F
      -- -- -- -- -- -- -- --  -- -- -- -- -- -- -- --
0320:                                               5B                 [
0330: 6F 80 06 90 0E 01 06 90  0E 01 70 72 79 31 53 06  o.........pry1S.
0340: 90 0E 01 06 90 0E 01 70  72 79 31 00              .......pry1.    
```

#### Opcodes

```
  0: 0x032F [0x5B] LOAD_EXT_SCHEDULER: Load scheduler "pry1" with entities [Claidie (ID: 17731590/0x010E9006), Claidie (ID: 17731590/0x010E9006)], work=125*
  1: 0x033E [0x53] WAIT_SCHEDULER_TASK: Wait for scheduler "pry1" with entities [Claidie (ID: 17731590/0x010E9006), Claidie (ID: 17731590/0x010E9006)]
  2: 0x034B [0x00] END_REQSTACK()
```

### Event 65535.38

#### Metadata

| Field        | Value    |
|--------------|----------|
| Entrypoint   | 0x034C   |
| Data Size    | 16 bytes |
| Instructions | 2        |

```
      00 01 02 03 04 05 06 07  08 09 0A 0B 0C 0D 0E 0F
      -- -- -- -- -- -- -- --  -- -- -- -- -- -- -- --
0340:                                      5B 6F 80 F8              [o..
0350: FF FF 7F F8 FF FF 7F 74  6C 6B 30 00              .......tlk0.    
```

#### Opcodes

```
  0: 0x034C [0x5B] LOAD_EXT_SCHEDULER: Load scheduler "tlk0" with entities [EventEntity, EventEntity], work=125*
  1: 0x035B [0x00] END_REQSTACK()
```

### Event 65535.39

#### Metadata

| Field        | Value    |
|--------------|----------|
| Entrypoint   | 0x035C   |
| Data Size    | 14 bytes |
| Instructions | 2        |

```
      00 01 02 03 04 05 06 07  08 09 0A 0B 0C 0D 0E 0F
      -- -- -- -- -- -- -- --  -- -- -- -- -- -- -- --
0350:                                      53 F8 FF FF              S...
0360: 7F F8 FF FF 7F 74 6C 6B  30 00                    .....tlk0.      
```

#### Opcodes

```
  0: 0x035C [0x53] WAIT_SCHEDULER_TASK: Wait for scheduler "tlk0" with entities [EventEntity, EventEntity]
  1: 0x0369 [0x00] END_REQSTACK()
```

### Event 65535.40

#### Metadata

| Field        | Value    |
|--------------|----------|
| Entrypoint   | 0x036A   |
| Data Size    | 16 bytes |
| Instructions | 2        |

```
      00 01 02 03 04 05 06 07  08 09 0A 0B 0C 0D 0E 0F
      -- -- -- -- -- -- -- --  -- -- -- -- -- -- -- --
0360:                                5B 6F 80 F8 FF FF            [o....
0370: 7F F8 FF FF 7F 74 6C 6B  31 00                    .....tlk1.      
```

#### Opcodes

```
  0: 0x036A [0x5B] LOAD_EXT_SCHEDULER: Load scheduler "tlk1" with entities [EventEntity, EventEntity], work=125*
  1: 0x0379 [0x00] END_REQSTACK()
```

### Event 65535.41

#### Metadata

| Field        | Value    |
|--------------|----------|
| Entrypoint   | 0x037A   |
| Data Size    | 14 bytes |
| Instructions | 2        |

```
      00 01 02 03 04 05 06 07  08 09 0A 0B 0C 0D 0E 0F
      -- -- -- -- -- -- -- --  -- -- -- -- -- -- -- --
0370:                                53 F8 FF FF 7F F8            S.....
0380: FF FF 7F 74 6C 6B 31 00                           ...tlk1.        
```

#### Opcodes

```
  0: 0x037A [0x53] WAIT_SCHEDULER_TASK: Wait for scheduler "tlk1" with entities [EventEntity, EventEntity]
  1: 0x0387 [0x00] END_REQSTACK()
```

### Event 65535.42

#### Metadata

| Field        | Value    |
|--------------|----------|
| Entrypoint   | 0x0388   |
| Data Size    | 16 bytes |
| Instructions | 2        |

```
      00 01 02 03 04 05 06 07  08 09 0A 0B 0C 0D 0E 0F
      -- -- -- -- -- -- -- --  -- -- -- -- -- -- -- --
0380:                          5B 6F 80 F8 FF FF 7F F8          [o......
0390: FF FF 7F 74 68 6B 31 00                           ...thk1.        
```

#### Opcodes

```
  0: 0x0388 [0x5B] LOAD_EXT_SCHEDULER: Load scheduler "thk1" with entities [EventEntity, EventEntity], work=125*
  1: 0x0397 [0x00] END_REQSTACK()
```

### Event 65535.43

#### Metadata

| Field        | Value    |
|--------------|----------|
| Entrypoint   | 0x0398   |
| Data Size    | 14 bytes |
| Instructions | 2        |

```
      00 01 02 03 04 05 06 07  08 09 0A 0B 0C 0D 0E 0F
      -- -- -- -- -- -- -- --  -- -- -- -- -- -- -- --
0390:                          53 F8 FF FF 7F F8 FF FF          S.......
03A0: 7F 74 68 6B 31 00                                 .thk1.          
```

#### Opcodes

```
  0: 0x0398 [0x53] WAIT_SCHEDULER_TASK: Wait for scheduler "thk1" with entities [EventEntity, EventEntity]
  1: 0x03A5 [0x00] END_REQSTACK()
```

### Event 65535.44

#### Metadata

| Field        | Value    |
|--------------|----------|
| Entrypoint   | 0x03A6   |
| Data Size    | 16 bytes |
| Instructions | 2        |

```
      00 01 02 03 04 05 06 07  08 09 0A 0B 0C 0D 0E 0F
      -- -- -- -- -- -- -- --  -- -- -- -- -- -- -- --
03A0:                   5B 6F  80 F8 FF FF 7F F8 FF FF        [o........
03B0: 7F 74 68 6B 32 00                                 .thk2.          
```

#### Opcodes

```
  0: 0x03A6 [0x5B] LOAD_EXT_SCHEDULER: Load scheduler "thk2" with entities [EventEntity, EventEntity], work=125*
  1: 0x03B5 [0x00] END_REQSTACK()
```

### Event 65535.45

#### Metadata

| Field        | Value    |
|--------------|----------|
| Entrypoint   | 0x03B6   |
| Data Size    | 14 bytes |
| Instructions | 2        |

```
      00 01 02 03 04 05 06 07  08 09 0A 0B 0C 0D 0E 0F
      -- -- -- -- -- -- -- --  -- -- -- -- -- -- -- --
03B0:                   53 F8  FF FF 7F F8 FF FF 7F 74        S........t
03C0: 68 6B 32 00                                       hk2.            
```

#### Opcodes

```
  0: 0x03B6 [0x53] WAIT_SCHEDULER_TASK: Wait for scheduler "thk2" with entities [EventEntity, EventEntity]
  1: 0x03C3 [0x00] END_REQSTACK()
```

### Event 65535.46

#### Metadata

| Field        | Value    |
|--------------|----------|
| Entrypoint   | 0x03C4   |
| Data Size    | 16 bytes |
| Instructions | 2        |

```
      00 01 02 03 04 05 06 07  08 09 0A 0B 0C 0D 0E 0F
      -- -- -- -- -- -- -- --  -- -- -- -- -- -- -- --
03C0:             5B 70 80 F8  FF FF 7F F8 FF FF 7F 70      [p.........p
03D0: 61 73 30 00                                       as0.            
```

#### Opcodes

```
  0: 0x03C4 [0x5B] LOAD_EXT_SCHEDULER: Load scheduler "pas0" with entities [EventEntity, EventEntity], work=126*
  1: 0x03D3 [0x00] END_REQSTACK()
```

### Event 65535.47

#### Metadata

| Field        | Value    |
|--------------|----------|
| Entrypoint   | 0x03D4   |
| Data Size    | 14 bytes |
| Instructions | 2        |

```
      00 01 02 03 04 05 06 07  08 09 0A 0B 0C 0D 0E 0F
      -- -- -- -- -- -- -- --  -- -- -- -- -- -- -- --
03D0:             53 F8 FF FF  7F F8 FF FF 7F 70 61 73      S........pas
03E0: 30 00                                             0.              
```

#### Opcodes

```
  0: 0x03D4 [0x53] WAIT_SCHEDULER_TASK: Wait for scheduler "pas0" with entities [EventEntity, EventEntity]
  1: 0x03E1 [0x00] END_REQSTACK()
```

### Event 65535.48

#### Metadata

| Field        | Value    |
|--------------|----------|
| Entrypoint   | 0x03E2   |
| Data Size    | 16 bytes |
| Instructions | 2        |

```
      00 01 02 03 04 05 06 07  08 09 0A 0B 0C 0D 0E 0F
      -- -- -- -- -- -- -- --  -- -- -- -- -- -- -- --
03E0:       5B 6F 80 F8 FF FF  7F F8 FF FF 7F 75 6D 75    [o.........umu
03F0: 30 00                                             0.              
```

#### Opcodes

```
  0: 0x03E2 [0x5B] LOAD_EXT_SCHEDULER: Load scheduler "umu0" with entities [EventEntity, EventEntity], work=125*
  1: 0x03F1 [0x00] END_REQSTACK()
```

### Event 65535.49

#### Metadata

| Field        | Value    |
|--------------|----------|
| Entrypoint   | 0x03F2   |
| Data Size    | 14 bytes |
| Instructions | 2        |

```
      00 01 02 03 04 05 06 07  08 09 0A 0B 0C 0D 0E 0F
      -- -- -- -- -- -- -- --  -- -- -- -- -- -- -- --
03F0:       53 F8 FF FF 7F F8  FF FF 7F 75 6D 75 30 00    S........umu0.
```

#### Opcodes

```
  0: 0x03F2 [0x53] WAIT_SCHEDULER_TASK: Wait for scheduler "umu0" with entities [EventEntity, EventEntity]
  1: 0x03FF [0x00] END_REQSTACK()
```

### Event 65535.50

#### Metadata

| Field        | Value    |
|--------------|----------|
| Entrypoint   | 0x0400   |
| Data Size    | 16 bytes |
| Instructions | 2        |

```
      00 01 02 03 04 05 06 07  08 09 0A 0B 0C 0D 0E 0F
      -- -- -- -- -- -- -- --  -- -- -- -- -- -- -- --
0400: 5B 6F 80 F8 FF FF 7F F8  FF FF 7F 75 6D 75 31 00  [o.........umu1.
```

#### Opcodes

```
  0: 0x0400 [0x5B] LOAD_EXT_SCHEDULER: Load scheduler "umu1" with entities [EventEntity, EventEntity], work=125*
  1: 0x040F [0x00] END_REQSTACK()
```

### Event 65535.51

#### Metadata

| Field        | Value    |
|--------------|----------|
| Entrypoint   | 0x0410   |
| Data Size    | 14 bytes |
| Instructions | 2        |

```
      00 01 02 03 04 05 06 07  08 09 0A 0B 0C 0D 0E 0F
      -- -- -- -- -- -- -- --  -- -- -- -- -- -- -- --
0410: 53 F8 FF FF 7F F8 FF FF  7F 75 6D 75 31 00        S........umu1.  
```

#### Opcodes

```
  0: 0x0410 [0x53] WAIT_SCHEDULER_TASK: Wait for scheduler "umu1" with entities [EventEntity, EventEntity]
  1: 0x041D [0x00] END_REQSTACK()
```

### Event 65535.52

#### Metadata

| Field        | Value    |
|--------------|----------|
| Entrypoint   | 0x041E   |
| Data Size    | 16 bytes |
| Instructions | 2        |

```
      00 01 02 03 04 05 06 07  08 09 0A 0B 0C 0D 0E 0F
      -- -- -- -- -- -- -- --  -- -- -- -- -- -- -- --
0410:                                            5B 6F                [o
0420: 80 F8 FF FF 7F F8 FF FF  7F 6F 67 61 30 00        .........oga0.  
```

#### Opcodes

```
  0: 0x041E [0x5B] LOAD_EXT_SCHEDULER: Load scheduler "oga0" with entities [EventEntity, EventEntity], work=125*
  1: 0x042D [0x00] END_REQSTACK()
```

### Event 65535.53

#### Metadata

| Field        | Value    |
|--------------|----------|
| Entrypoint   | 0x042E   |
| Data Size    | 14 bytes |
| Instructions | 2        |

```
      00 01 02 03 04 05 06 07  08 09 0A 0B 0C 0D 0E 0F
      -- -- -- -- -- -- -- --  -- -- -- -- -- -- -- --
0420:                                            53 F8                S.
0430: FF FF 7F F8 FF FF 7F 6F  67 61 30 00              .......oga0.    
```

#### Opcodes

```
  0: 0x042E [0x53] WAIT_SCHEDULER_TASK: Wait for scheduler "oga0" with entities [EventEntity, EventEntity]
  1: 0x043B [0x00] END_REQSTACK()
```

### Event 65535.54

#### Metadata

| Field        | Value    |
|--------------|----------|
| Entrypoint   | 0x043C   |
| Data Size    | 16 bytes |
| Instructions | 2        |

```
      00 01 02 03 04 05 06 07  08 09 0A 0B 0C 0D 0E 0F
      -- -- -- -- -- -- -- --  -- -- -- -- -- -- -- --
0430:                                      5B 6F 80 F8              [o..
0440: FF FF 7F F8 FF FF 7F 6F  67 61 31 00              .......oga1.    
```

#### Opcodes

```
  0: 0x043C [0x5B] LOAD_EXT_SCHEDULER: Load scheduler "oga1" with entities [EventEntity, EventEntity], work=125*
  1: 0x044B [0x00] END_REQSTACK()
```

### Event 65535.55

#### Metadata

| Field        | Value    |
|--------------|----------|
| Entrypoint   | 0x044C   |
| Data Size    | 14 bytes |
| Instructions | 2        |

```
      00 01 02 03 04 05 06 07  08 09 0A 0B 0C 0D 0E 0F
      -- -- -- -- -- -- -- --  -- -- -- -- -- -- -- --
0440:                                      53 F8 FF FF              S...
0450: 7F F8 FF FF 7F 6F 67 61  31 00                    .....oga1.      
```

#### Opcodes

```
  0: 0x044C [0x53] WAIT_SCHEDULER_TASK: Wait for scheduler "oga1" with entities [EventEntity, EventEntity]
  1: 0x0459 [0x00] END_REQSTACK()
```

### Event 65535.56

#### Metadata

| Field        | Value    |
|--------------|----------|
| Entrypoint   | 0x045A   |
| Data Size    | 16 bytes |
| Instructions | 2        |

```
      00 01 02 03 04 05 06 07  08 09 0A 0B 0C 0D 0E 0F
      -- -- -- -- -- -- -- --  -- -- -- -- -- -- -- --
0450:                                5B 6F 80 F8 FF FF            [o....
0460: 7F F8 FF FF 7F 70 72 79  30 00                    .....pry0.      
```

#### Opcodes

```
  0: 0x045A [0x5B] LOAD_EXT_SCHEDULER: Load scheduler "pry0" with entities [EventEntity, EventEntity], work=125*
  1: 0x0469 [0x00] END_REQSTACK()
```

### Event 65535.57

#### Metadata

| Field        | Value    |
|--------------|----------|
| Entrypoint   | 0x046A   |
| Data Size    | 14 bytes |
| Instructions | 2        |

```
      00 01 02 03 04 05 06 07  08 09 0A 0B 0C 0D 0E 0F
      -- -- -- -- -- -- -- --  -- -- -- -- -- -- -- --
0460:                                53 F8 FF FF 7F F8            S.....
0470: FF FF 7F 70 72 79 30 00                           ...pry0.        
```

#### Opcodes

```
  0: 0x046A [0x53] WAIT_SCHEDULER_TASK: Wait for scheduler "pry0" with entities [EventEntity, EventEntity]
  1: 0x0477 [0x00] END_REQSTACK()
```

### Event 65535.58

#### Metadata

| Field        | Value    |
|--------------|----------|
| Entrypoint   | 0x0478   |
| Data Size    | 16 bytes |
| Instructions | 2        |

```
      00 01 02 03 04 05 06 07  08 09 0A 0B 0C 0D 0E 0F
      -- -- -- -- -- -- -- --  -- -- -- -- -- -- -- --
0470:                          5B 6F 80 F8 FF FF 7F F8          [o......
0480: FF FF 7F 70 72 79 31 00                           ...pry1.        
```

#### Opcodes

```
  0: 0x0478 [0x5B] LOAD_EXT_SCHEDULER: Load scheduler "pry1" with entities [EventEntity, EventEntity], work=125*
  1: 0x0487 [0x00] END_REQSTACK()
```

### Event 65535.59

#### Metadata

| Field        | Value    |
|--------------|----------|
| Entrypoint   | 0x0488   |
| Data Size    | 14 bytes |
| Instructions | 2        |

```
      00 01 02 03 04 05 06 07  08 09 0A 0B 0C 0D 0E 0F
      -- -- -- -- -- -- -- --  -- -- -- -- -- -- -- --
0480:                          53 F8 FF FF 7F F8 FF FF          S.......
0490: 7F 70 72 79 31 00                                 .pry1.          
```

#### Opcodes

```
  0: 0x0488 [0x53] WAIT_SCHEDULER_TASK: Wait for scheduler "pry1" with entities [EventEntity, EventEntity]
  1: 0x0495 [0x00] END_REQSTACK()
```

### Event 65535.60

#### Metadata

| Field        | Value    |
|--------------|----------|
| Entrypoint   | 0x0496   |
| Data Size    | 16 bytes |
| Instructions | 2        |

```
      00 01 02 03 04 05 06 07  08 09 0A 0B 0C 0D 0E 0F
      -- -- -- -- -- -- -- --  -- -- -- -- -- -- -- --
0490:                   5B 70  80 F8 FF FF 7F F8 FF FF        [p........
04A0: 7F 6E 61 79 30 00                                 .nay0.          
```

#### Opcodes

```
  0: 0x0496 [0x5B] LOAD_EXT_SCHEDULER: Load scheduler "nay0" with entities [EventEntity, EventEntity], work=126*
  1: 0x04A5 [0x00] END_REQSTACK()
```

### Event 65535.61

#### Metadata

| Field        | Value    |
|--------------|----------|
| Entrypoint   | 0x04A6   |
| Data Size    | 14 bytes |
| Instructions | 2        |

```
      00 01 02 03 04 05 06 07  08 09 0A 0B 0C 0D 0E 0F
      -- -- -- -- -- -- -- --  -- -- -- -- -- -- -- --
04A0:                   53 F8  FF FF 7F F8 FF FF 7F 6E        S........n
04B0: 61 79 30 00                                       ay0.            
```

#### Opcodes

```
  0: 0x04A6 [0x53] WAIT_SCHEDULER_TASK: Wait for scheduler "nay0" with entities [EventEntity, EventEntity]
  1: 0x04B3 [0x00] END_REQSTACK()
```

### Event 65535.62

#### Metadata

| Field        | Value    |
|--------------|----------|
| Entrypoint   | 0x04B4   |
| Data Size    | 16 bytes |
| Instructions | 2        |

```
      00 01 02 03 04 05 06 07  08 09 0A 0B 0C 0D 0E 0F
      -- -- -- -- -- -- -- --  -- -- -- -- -- -- -- --
04B0:             5B 70 80 F8  FF FF 7F F8 FF FF 7F 6E      [p.........n
04C0: 61 79 31 00                                       ay1.            
```

#### Opcodes

```
  0: 0x04B4 [0x5B] LOAD_EXT_SCHEDULER: Load scheduler "nay1" with entities [EventEntity, EventEntity], work=126*
  1: 0x04C3 [0x00] END_REQSTACK()
```

### Event 65535.63

#### Metadata

| Field        | Value    |
|--------------|----------|
| Entrypoint   | 0x04C4   |
| Data Size    | 14 bytes |
| Instructions | 2        |

```
      00 01 02 03 04 05 06 07  08 09 0A 0B 0C 0D 0E 0F
      -- -- -- -- -- -- -- --  -- -- -- -- -- -- -- --
04C0:             53 F8 FF FF  7F F8 FF FF 7F 6E 61 79      S........nay
04D0: 31 00                                             1.              
```

#### Opcodes

```
  0: 0x04C4 [0x53] WAIT_SCHEDULER_TASK: Wait for scheduler "nay1" with entities [EventEntity, EventEntity]
  1: 0x04D1 [0x00] END_REQSTACK()
```

### Event 65535.64

#### Metadata

| Field        | Value    |
|--------------|----------|
| Entrypoint   | 0x04D2   |
| Data Size    | 16 bytes |
| Instructions | 2        |

```
      00 01 02 03 04 05 06 07  08 09 0A 0B 0C 0D 0E 0F
      -- -- -- -- -- -- -- --  -- -- -- -- -- -- -- --
04D0:       5B 70 80 F8 FF FF  7F F8 FF FF 7F 6E 7A 6F    [p.........nzo
04E0: 30 00                                             0.              
```

#### Opcodes

```
  0: 0x04D2 [0x5B] LOAD_EXT_SCHEDULER: Load scheduler "nzo0" with entities [EventEntity, EventEntity], work=126*
  1: 0x04E1 [0x00] END_REQSTACK()
```

### Event 65535.65

#### Metadata

| Field        | Value    |
|--------------|----------|
| Entrypoint   | 0x04E2   |
| Data Size    | 14 bytes |
| Instructions | 2        |

```
      00 01 02 03 04 05 06 07  08 09 0A 0B 0C 0D 0E 0F
      -- -- -- -- -- -- -- --  -- -- -- -- -- -- -- --
04E0:       53 F8 FF FF 7F F8  FF FF 7F 6E 7A 6F 30 00    S........nzo0.
```

#### Opcodes

```
  0: 0x04E2 [0x53] WAIT_SCHEDULER_TASK: Wait for scheduler "nzo0" with entities [EventEntity, EventEntity]
  1: 0x04EF [0x00] END_REQSTACK()
```

### Event 65535.66

#### Metadata

| Field        | Value    |
|--------------|----------|
| Entrypoint   | 0x04F0   |
| Data Size    | 16 bytes |
| Instructions | 2        |

```
      00 01 02 03 04 05 06 07  08 09 0A 0B 0C 0D 0E 0F
      -- -- -- -- -- -- -- --  -- -- -- -- -- -- -- --
04F0: 5B 70 80 F8 FF FF 7F F8  FF FF 7F 6E 7A 6F 31 00  [p.........nzo1.
```

#### Opcodes

```
  0: 0x04F0 [0x5B] LOAD_EXT_SCHEDULER: Load scheduler "nzo1" with entities [EventEntity, EventEntity], work=126*
  1: 0x04FF [0x00] END_REQSTACK()
```

### Event 65535.67

#### Metadata

| Field        | Value    |
|--------------|----------|
| Entrypoint   | 0x0500   |
| Data Size    | 14 bytes |
| Instructions | 2        |

```
      00 01 02 03 04 05 06 07  08 09 0A 0B 0C 0D 0E 0F
      -- -- -- -- -- -- -- --  -- -- -- -- -- -- -- --
0500: 53 F8 FF FF 7F F8 FF FF  7F 6E 7A 6F 31 00        S........nzo1.  
```

#### Opcodes

```
  0: 0x0500 [0x53] WAIT_SCHEDULER_TASK: Wait for scheduler "nzo1" with entities [EventEntity, EventEntity]
  1: 0x050D [0x00] END_REQSTACK()
```

### Event 65535.68

#### Metadata

| Field        | Value    |
|--------------|----------|
| Entrypoint   | 0x050E   |
| Data Size    | 16 bytes |
| Instructions | 2        |

```
      00 01 02 03 04 05 06 07  08 09 0A 0B 0C 0D 0E 0F
      -- -- -- -- -- -- -- --  -- -- -- -- -- -- -- --
0500:                                            5B 70                [p
0510: 80 F8 FF FF 7F F8 FF FF  7F 6D 65 64 30 00        .........med0.  
```

#### Opcodes

```
  0: 0x050E [0x5B] LOAD_EXT_SCHEDULER: Load scheduler "med0" with entities [EventEntity, EventEntity], work=126*
  1: 0x051D [0x00] END_REQSTACK()
```

### Event 65535.69

#### Metadata

| Field        | Value    |
|--------------|----------|
| Entrypoint   | 0x051E   |
| Data Size    | 14 bytes |
| Instructions | 2        |

```
      00 01 02 03 04 05 06 07  08 09 0A 0B 0C 0D 0E 0F
      -- -- -- -- -- -- -- --  -- -- -- -- -- -- -- --
0510:                                            53 F8                S.
0520: FF FF 7F F8 FF FF 7F 6D  65 64 30 00              .......med0.    
```

#### Opcodes

```
  0: 0x051E [0x53] WAIT_SCHEDULER_TASK: Wait for scheduler "med0" with entities [EventEntity, EventEntity]
  1: 0x052B [0x00] END_REQSTACK()
```

### Event 65535.70

#### Metadata

| Field        | Value   |
|--------------|---------|
| Entrypoint   | 0x052C  |
| Data Size    | 9 bytes |
| Instructions | 3       |

```
      00 01 02 03 04 05 06 07  08 09 0A 0B 0C 0D 0E 0F
      -- -- -- -- -- -- -- --  -- -- -- -- -- -- -- --
0520:                                      5E 69 64 6C              ^idl
0530: 30 1C 08 80 00                                    0....           
```

#### Opcodes

```
  0: 0x052C [0x5E] EventEntity goes idle (kills current action) (animation: "idl0")
  1: 0x0531 [0x1C] WAIT(30* ticks)
  2: 0x0534 [0x00] END_REQSTACK()
```

### Event 556

#### Metadata

| Field        | Value   |
|--------------|---------|
| Entrypoint   | 0x0535  |
| Data Size    | 1 bytes |
| Instructions | 1       |

```
      00 01 02 03 04 05 06 07  08 09 0A 0B 0C 0D 0E 0F
      -- -- -- -- -- -- -- --  -- -- -- -- -- -- -- --
0530:                00                                      .          
```

#### Opcodes

```
  0: 0x0535 [0x00] END_REQSTACK()
```

### Event 65535.71

#### Metadata

| Field        | Value    |
|--------------|----------|
| Entrypoint   | 0x0536   |
| Data Size    | 10 bytes |
| Instructions | 2        |

```
      00 01 02 03 04 05 06 07  08 09 0A 0B 0C 0D 0E 0F
      -- -- -- -- -- -- -- --  -- -- -- -- -- -- -- --
0530:                   37 71  80 72 80 1B 80 73 80 00        7q.r...s..
```

#### Opcodes

```
  0: 0x0536 [0x37] UPDATE_EVENT_POSITION_AND_DIR: x=-93.657*, z=76.935*, y=0.398*, direction=171.6°*
  1: 0x053F [0x00] END_REQSTACK()
```

### Event 65535.72

#### Metadata

| Field        | Value    |
|--------------|----------|
| Entrypoint   | 0x0540   |
| Data Size    | 14 bytes |
| Instructions | 4        |

```
      00 01 02 03 04 05 06 07  08 09 0A 0B 0C 0D 0E 0F
      -- -- -- -- -- -- -- --  -- -- -- -- -- -- -- --
0540: 32 14 80 1F 00 74 80 75  80 1B 80 1F 01 00        2....t.u......  
```

#### Opcodes

```
  0: 0x0540 [0x32] ExtData[1]->MainSpeed = 10* * 0.1
  1: 0x0543 [0x1F] MOVE_ENTITY: EventEntity moves to X=-101.216*, Z=74.015*, Y=0.398*
  2: 0x054B [0x1F] MOVE_ENTITY: Update entity position (mode=1)
  3: 0x054D [0x00] END_REQSTACK()
```

### Event 65535.73

#### Metadata

| Field        | Value    |
|--------------|----------|
| Entrypoint   | 0x054E   |
| Data Size    | 14 bytes |
| Instructions | 4        |

```
      00 01 02 03 04 05 06 07  08 09 0A 0B 0C 0D 0E 0F
      -- -- -- -- -- -- -- --  -- -- -- -- -- -- -- --
0540:                                            32 14                2.
0550: 80 1F 00 76 80 77 80 1B  80 1F 01 00              ...v.w......    
```

#### Opcodes

```
  0: 0x054E [0x32] ExtData[1]->MainSpeed = 10* * 0.1
  1: 0x0551 [0x1F] MOVE_ENTITY: EventEntity moves to X=-98.009*, Z=75.391*, Y=0.398*
  2: 0x0559 [0x1F] MOVE_ENTITY: Update entity position (mode=1)
  3: 0x055B [0x00] END_REQSTACK()
```

### Event 65535.74

#### Metadata

| Field        | Value    |
|--------------|----------|
| Entrypoint   | 0x055C   |
| Data Size    | 45 bytes |
| Instructions | 9        |

```
      00 01 02 03 04 05 06 07  08 09 0A 0B 0C 0D 0E 0F
      -- -- -- -- -- -- -- --  -- -- -- -- -- -- -- --
0550:                                      03 01 00 78              ...x
0560: 80 79 00 F8 FF FF 7F F0  FF FF 7F 3A F8 FF FF 7F  .y.........:....
0570: 00 00 02 00 00 01 00 04  88 05 39 00 00 08 00 00  ..........9.....
0580: 79 80 1C 50 80 01 72 05  00                       y..P..r..       
```

#### Opcodes

```
  0: 0x055C [0x03] ExtData[1]->WorkLocal[1] = 3607*
  1: 0x0561 [0x79] EventEntity looks at LocalPlayer (Basic look)
  2: 0x056B [0x3A] CONVERT_YAW_TO_BYTE(entity=EventEntity, result_destination=ExtData[1]->WorkLocal[0])
  3: 0x0572 [0x02] IF !(ExtData[1]->WorkLocal[0] < ExtData[1]->WorkLocal[1]) GOTO 0x0588
  4: 0x057A [0x39] SET_ENTITY_DIRECTION(direction=ExtData[1]->WorkLocal[0])
  5: 0x057D [0x08] ExtData[1]->WorkLocal[0] -= 128*
  6: 0x0582 [0x1C] WAIT(1* ticks)
  7: 0x0585 [0x01] GOTO 0x0572
  8: 0x0588 [0x00] END_REQSTACK()
```

### Event 65535.75

#### Metadata

| Field        | Value   |
|--------------|---------|
| Entrypoint   | 0x0589  |
| Data Size    | 5 bytes |
| Instructions | 3       |

```
      00 01 02 03 04 05 06 07  08 09 0A 0B 0C 0D 0E 0F
      -- -- -- -- -- -- -- --  -- -- -- -- -- -- -- --
0580:                             1D 7A 80 23 00                 .z.#.  
```

#### Opcodes

```
  0: 0x0589 [0x1D] PRINT_EVENT_MESSAGE(message_id=7647*)
    → "Chalvatot, what has happened in my mother's chambers?"
  1: 0x058C [0x23] WAIT_FOR_DIALOG_INTERACTION
  2: 0x058D [0x00] END_REQSTACK()
```

### Event 65535.76

#### Metadata

| Field        | Value   |
|--------------|---------|
| Entrypoint   | 0x058E  |
| Data Size    | 5 bytes |
| Instructions | 3       |

```
      00 01 02 03 04 05 06 07  08 09 0A 0B 0C 0D 0E 0F
      -- -- -- -- -- -- -- --  -- -- -- -- -- -- -- --
0580:                                            1D 7B                .{
0590: 80 23 00                                          .#.             
```

#### Opcodes

```
  0: 0x058E [0x1D] PRINT_EVENT_MESSAGE(message_id=7648*)
    → "When I went to give some water to the flowers, I passed by some Temple Guards."
  1: 0x0591 [0x23] WAIT_FOR_DIALOG_INTERACTION
  2: 0x0592 [0x00] END_REQSTACK()
```

### Event 65535.77

#### Metadata

| Field        | Value   |
|--------------|---------|
| Entrypoint   | 0x0593  |
| Data Size    | 5 bytes |
| Instructions | 3       |

```
      00 01 02 03 04 05 06 07  08 09 0A 0B 0C 0D 0E 0F
      -- -- -- -- -- -- -- --  -- -- -- -- -- -- -- --
0590:          1D 7C 80 23 00                              .|.#.        
```

#### Opcodes

```
  0: 0x0593 [0x1D] PRINT_EVENT_MESSAGE(message_id=7651*)
    → "I--I do not know what to say..."
  1: 0x0596 [0x23] WAIT_FOR_DIALOG_INTERACTION
  2: 0x0597 [0x00] END_REQSTACK()
```

### Event 65535.78

#### Metadata

| Field        | Value   |
|--------------|---------|
| Entrypoint   | 0x0598  |
| Data Size    | 5 bytes |
| Instructions | 3       |

```
      00 01 02 03 04 05 06 07  08 09 0A 0B 0C 0D 0E 0F
      -- -- -- -- -- -- -- --  -- -- -- -- -- -- -- --
0590:                          1D 7D 80 23 00                   .}.#.   
```

#### Opcodes

```
  0: 0x0598 [0x1D] PRINT_EVENT_MESSAGE(message_id=7652*)
    → "I knew something was wrong when I found my mother's diary in a strange place..."
  1: 0x059B [0x23] WAIT_FOR_DIALOG_INTERACTION
  2: 0x059C [0x00] END_REQSTACK()
```

### Event 65535.79

#### Metadata

| Field        | Value   |
|--------------|---------|
| Entrypoint   | 0x059D  |
| Data Size    | 5 bytes |
| Instructions | 3       |

```
      00 01 02 03 04 05 06 07  08 09 0A 0B 0C 0D 0E 0F
      -- -- -- -- -- -- -- --  -- -- -- -- -- -- -- --
0590:                                         1D 7E 80               .~.
05A0: 23 00                                             #.              
```

#### Opcodes

```
  0: 0x059D [0x1D] PRINT_EVENT_MESSAGE(message_id=7654*)
    → "Chalvatot, something is amiss... Could you please come to my chambers later?"
  1: 0x05A0 [0x23] WAIT_FOR_DIALOG_INTERACTION
  2: 0x05A1 [0x00] END_REQSTACK()
```

### Event 65535.80

#### Metadata

| Field        | Value   |
|--------------|---------|
| Entrypoint   | 0x05A2  |
| Data Size    | 5 bytes |
| Instructions | 3       |

```
      00 01 02 03 04 05 06 07  08 09 0A 0B 0C 0D 0E 0F
      -- -- -- -- -- -- -- --  -- -- -- -- -- -- -- --
05A0:       1D 7F 80 23 00                                ...#.         
```

#### Opcodes

```
  0: 0x05A2 [0x1D] PRINT_EVENT_MESSAGE(message_id=7655*)
    → "Farewell, [Sir/Lady] <Player>. May you find the thieves that disgraced our great kingdom."
  1: 0x05A5 [0x23] WAIT_FOR_DIALOG_INTERACTION
  2: 0x05A6 [0x00] END_REQSTACK()
```

### Event 584

#### Metadata

| Field        | Value   |
|--------------|---------|
| Entrypoint   | 0x05A7  |
| Data Size    | 1 bytes |
| Instructions | 1       |

```
      00 01 02 03 04 05 06 07  08 09 0A 0B 0C 0D 0E 0F
      -- -- -- -- -- -- -- --  -- -- -- -- -- -- -- --
05A0:                      00                                  .        
```

#### Opcodes

```
  0: 0x05A7 [0x00] END_REQSTACK()
```

### Event 585

#### Metadata

| Field        | Value   |
|--------------|---------|
| Entrypoint   | 0x05A8  |
| Data Size    | 1 bytes |
| Instructions | 1       |

```
      00 01 02 03 04 05 06 07  08 09 0A 0B 0C 0D 0E 0F
      -- -- -- -- -- -- -- --  -- -- -- -- -- -- -- --
05A0:                          00                               .       
```

#### Opcodes

```
  0: 0x05A8 [0x00] END_REQSTACK()
```

### Event 65535.81

#### Metadata

| Field        | Value    |
|--------------|----------|
| Entrypoint   | 0x05A9   |
| Data Size    | 15 bytes |
| Instructions | 5        |

```
      00 01 02 03 04 05 06 07  08 09 0A 0B 0C 0D 0E 0F
      -- -- -- -- -- -- -- --  -- -- -- -- -- -- -- --
05A0:                             32 14 80 1F 00 80 80           2......
05B0: 81 80 1B 80 1F 01 6F 00                           ......o.        
```

#### Opcodes

```
  0: 0x05A9 [0x32] ExtData[1]->MainSpeed = 10* * 0.1
  1: 0x05AC [0x1F] MOVE_ENTITY: EventEntity moves to X=-105.076*, Z=72.615*, Y=0.398*
  2: 0x05B4 [0x1F] MOVE_ENTITY: Update entity position (mode=1)
  3: 0x05B6 [0x6F] WAIT_FRAME_DELAY: Yield until WaitTime reaches zero
  4: 0x05B7 [0x00] END_REQSTACK()
```

### Event 65535.82

#### Metadata

| Field        | Value    |
|--------------|----------|
| Entrypoint   | 0x05B8   |
| Data Size    | 15 bytes |
| Instructions | 5        |

```
      00 01 02 03 04 05 06 07  08 09 0A 0B 0C 0D 0E 0F
      -- -- -- -- -- -- -- --  -- -- -- -- -- -- -- --
05B0:                          32 14 80 1F 00 82 80 83          2.......
05C0: 80 1B 80 1F 01 6F 00                              .....o.         
```

#### Opcodes

```
  0: 0x05B8 [0x32] ExtData[1]->MainSpeed = 10* * 0.1
  1: 0x05BB [0x1F] MOVE_ENTITY: EventEntity moves to X=-107.200*, Z=74.048*, Y=0.398*
  2: 0x05C3 [0x1F] MOVE_ENTITY: Update entity position (mode=1)
  3: 0x05C5 [0x6F] WAIT_FRAME_DELAY: Yield until WaitTime reaches zero
  4: 0x05C6 [0x00] END_REQSTACK()
```

### Event 65535.83

#### Metadata

| Field        | Value    |
|--------------|----------|
| Entrypoint   | 0x05C7   |
| Data Size    | 15 bytes |
| Instructions | 5        |

```
      00 01 02 03 04 05 06 07  08 09 0A 0B 0C 0D 0E 0F
      -- -- -- -- -- -- -- --  -- -- -- -- -- -- -- --
05C0:                      32  14 80 1F 00 84 80 85 80         2........
05D0: 1B 80 1F 01 6F 00                                 ....o.          
```

#### Opcodes

```
  0: 0x05C7 [0x32] ExtData[1]->MainSpeed = 10* * 0.1
  1: 0x05CA [0x1F] MOVE_ENTITY: EventEntity moves to X=-107.104*, Z=76.159*, Y=0.398*
  2: 0x05D2 [0x1F] MOVE_ENTITY: Update entity position (mode=1)
  3: 0x05D4 [0x6F] WAIT_FRAME_DELAY: Yield until WaitTime reaches zero
  4: 0x05D5 [0x00] END_REQSTACK()
```

### Event 65535.84

#### Metadata

| Field        | Value    |
|--------------|----------|
| Entrypoint   | 0x05D6   |
| Data Size    | 15 bytes |
| Instructions | 5        |

```
      00 01 02 03 04 05 06 07  08 09 0A 0B 0C 0D 0E 0F
      -- -- -- -- -- -- -- --  -- -- -- -- -- -- -- --
05D0:                   32 14  80 1F 00 86 80 87 80 1B        2.........
05E0: 80 1F 01 6F 00                                    ...o.           
```

#### Opcodes

```
  0: 0x05D6 [0x32] ExtData[1]->MainSpeed = 10* * 0.1
  1: 0x05D9 [0x1F] MOVE_ENTITY: EventEntity moves to X=-105.411*, Z=74.161*, Y=0.398*
  2: 0x05E1 [0x1F] MOVE_ENTITY: Update entity position (mode=1)
  3: 0x05E3 [0x6F] WAIT_FRAME_DELAY: Yield until WaitTime reaches zero
  4: 0x05E4 [0x00] END_REQSTACK()
```

### Event 65535.85

#### Metadata

| Field        | Value    |
|--------------|----------|
| Entrypoint   | 0x05E5   |
| Data Size    | 15 bytes |
| Instructions | 5        |

```
      00 01 02 03 04 05 06 07  08 09 0A 0B 0C 0D 0E 0F
      -- -- -- -- -- -- -- --  -- -- -- -- -- -- -- --
05E0:                32 14 80  1F 00 88 80 89 80 1B 80       2..........
05F0: 1F 01 6F 00                                       ..o.            
```

#### Opcodes

```
  0: 0x05E5 [0x32] ExtData[1]->MainSpeed = 10* * 0.1
  1: 0x05E8 [0x1F] MOVE_ENTITY: EventEntity moves to X=-100.584*, Z=77.222*, Y=0.398*
  2: 0x05F0 [0x1F] MOVE_ENTITY: Update entity position (mode=1)
  3: 0x05F2 [0x6F] WAIT_FRAME_DELAY: Yield until WaitTime reaches zero
  4: 0x05F3 [0x00] END_REQSTACK()
```

### Event 65535.86

#### Metadata

| Field        | Value   |
|--------------|---------|
| Entrypoint   | 0x05F4  |
| Data Size    | 2 bytes |
| Instructions | 2       |

```
      00 01 02 03 04 05 06 07  08 09 0A 0B 0C 0D 0E 0F
      -- -- -- -- -- -- -- --  -- -- -- -- -- -- -- --
05F0:             84 00                                     ..          
```

#### Opcodes

```
  0: 0x05F4 [0x84] ADJUST_RENDER_FLAGS3_BIT0()
  1: 0x05F5 [0x00] END_REQSTACK()
```

### Event 65535.87

#### Metadata

| Field        | Value    |
|--------------|----------|
| Entrypoint   | 0x05F6   |
| Data Size    | 15 bytes |
| Instructions | 5        |

```
      00 01 02 03 04 05 06 07  08 09 0A 0B 0C 0D 0E 0F
      -- -- -- -- -- -- -- --  -- -- -- -- -- -- -- --
05F0:                   32 14  80 1F 00 8A 80 8B 80 1B        2.........
0600: 80 1F 01 6F 00                                    ...o.           
```

#### Opcodes

```
  0: 0x05F6 [0x32] ExtData[1]->MainSpeed = 10* * 0.1
  1: 0x05F9 [0x1F] MOVE_ENTITY: EventEntity moves to X=-103.787*, Z=74.108*, Y=0.398*
  2: 0x0601 [0x1F] MOVE_ENTITY: Update entity position (mode=1)
  3: 0x0603 [0x6F] WAIT_FRAME_DELAY: Yield until WaitTime reaches zero
  4: 0x0604 [0x00] END_REQSTACK()
```

### Event 65535.88

#### Metadata

| Field        | Value    |
|--------------|----------|
| Entrypoint   | 0x0605   |
| Data Size    | 15 bytes |
| Instructions | 5        |

```
      00 01 02 03 04 05 06 07  08 09 0A 0B 0C 0D 0E 0F
      -- -- -- -- -- -- -- --  -- -- -- -- -- -- -- --
0600:                32 14 80  1F 00 8C 80 8D 80 1B 80       2..........
0610: 1F 01 6F 00                                       ..o.            
```

#### Opcodes

```
  0: 0x0605 [0x32] ExtData[1]->MainSpeed = 10* * 0.1
  1: 0x0608 [0x1F] MOVE_ENTITY: EventEntity moves to X=-102.961*, Z=73.520*, Y=0.398*
  2: 0x0610 [0x1F] MOVE_ENTITY: Update entity position (mode=1)
  3: 0x0612 [0x6F] WAIT_FRAME_DELAY: Yield until WaitTime reaches zero
  4: 0x0613 [0x00] END_REQSTACK()
```

### Event 65535.89

#### Metadata

| Field        | Value    |
|--------------|----------|
| Entrypoint   | 0x0614   |
| Data Size    | 15 bytes |
| Instructions | 5        |

```
      00 01 02 03 04 05 06 07  08 09 0A 0B 0C 0D 0E 0F
      -- -- -- -- -- -- -- --  -- -- -- -- -- -- -- --
0610:             32 14 80 1F  00 8A 80 8B 80 1B 80 1F      2...........
0620: 01 6F 00                                          .o.             
```

#### Opcodes

```
  0: 0x0614 [0x32] ExtData[1]->MainSpeed = 10* * 0.1
  1: 0x0617 [0x1F] MOVE_ENTITY: EventEntity moves to X=-103.787*, Z=74.108*, Y=0.398*
  2: 0x061F [0x1F] MOVE_ENTITY: Update entity position (mode=1)
  3: 0x0621 [0x6F] WAIT_FRAME_DELAY: Yield until WaitTime reaches zero
  4: 0x0622 [0x00] END_REQSTACK()
```

### Event 65535.90

#### Metadata

| Field        | Value    |
|--------------|----------|
| Entrypoint   | 0x0623   |
| Data Size    | 47 bytes |
| Instructions | 5        |

```
      00 01 02 03 04 05 06 07  08 09 0A 0B 0C 0D 0E 0F
      -- -- -- -- -- -- -- --  -- -- -- -- -- -- -- --
0620:          5B 8E 80 06 90  0E 01 06 90 0E 01 68 6E     [..........hn
0630: 72 30 1C 29 80 5B 8E 80  06 90 0E 01 06 90 0E 01  r0.).[..........
0640: 6B 6E 62 30 53 06 90 0E  01 06 90 0E 01 6B 6E 62  knb0S........knb
0650: 30 00                                             0.              
```

#### Opcodes

```
  0: 0x0623 [0x5B] LOAD_EXT_SCHEDULER: Load scheduler "hnr0" with entities [Claidie (ID: 17731590/0x010E9006), Claidie (ID: 17731590/0x010E9006)], work=127*
  1: 0x0632 [0x1C] WAIT(25* ticks)
  2: 0x0635 [0x5B] LOAD_EXT_SCHEDULER: Load scheduler "knb0" with entities [Claidie (ID: 17731590/0x010E9006), Claidie (ID: 17731590/0x010E9006)], work=127*
  3: 0x0644 [0x53] WAIT_SCHEDULER_TASK: Wait for scheduler "knb0" with entities [Claidie (ID: 17731590/0x010E9006), Claidie (ID: 17731590/0x010E9006)]
  4: 0x0651 [0x00] END_REQSTACK()
```

### Event 597

#### Metadata

| Field        | Value   |
|--------------|---------|
| Entrypoint   | 0x0652  |
| Data Size    | 7 bytes |
| Instructions | 2       |

```
      00 01 02 03 04 05 06 07  08 09 0A 0B 0C 0D 0E 0F
      -- -- -- -- -- -- -- --  -- -- -- -- -- -- -- --
0650:       92 01 F8 FF FF 7F  00                         .......       
```

#### Opcodes

```
  0: 0x0652 [0x92] EventEntity->Render.Flags3 ^= 0x01
  1: 0x0658 [0x00] END_REQSTACK()
```

### Event 65535.91

#### Metadata

| Field        | Value    |
|--------------|----------|
| Entrypoint   | 0x0659   |
| Data Size    | 46 bytes |
| Instructions | 11       |

```
      00 01 02 03 04 05 06 07  08 09 0A 0B 0C 0D 0E 0F
      -- -- -- -- -- -- -- --  -- -- -- -- -- -- -- --
0650:                             32 14 80 1F 00 8F 80           2......
0660: 90 80 91 80 1F 01 6F 4A  06 90 0E 01 F0 FF FF 7F  ......oJ........
0670: 1C 92 80 02 09 10 93 80  00 80 06 7B 06 90 0E 01  ...........{....
0680: 6F 76 06 90 0E 01 00                              ov.....         
```

#### Opcodes

```
  0: 0x0659 [0x32] ExtData[1]->MainSpeed = 10* * 0.1
  1: 0x065C [0x1F] MOVE_ENTITY: EventEntity moves to X=-33.853*, Z=80.233*, Y=-3.764*
  2: 0x0664 [0x1F] MOVE_ENTITY: Update entity position (mode=1)
  3: 0x0666 [0x6F] WAIT_FRAME_DELAY: Yield until WaitTime reaches zero
  4: 0x0667 [0x4A] Claidie (ID: 17731590/0x010E9006) looks at LocalPlayer
  5: 0x0670 [0x1C] WAIT(2* ticks)
  6: 0x0673 [0x02] IF !(Work_Zone[9] == 7*) GOTO 0x0680
  7: 0x067B [0x7B] Claidie (ID: 17731590/0x010E9006) stops talking
  8: 0x0680 [0x6F] WAIT_FRAME_DELAY: Yield until WaitTime reaches zero
  9: 0x0681 [0x76] CHECK_ENTITY_RENDER_FLAGS: Wait until Claidie (ID: 17731590/0x010E9006) Render.Flags0 and Render.Flags3 conditions are met
 10: 0x0686 [0x00] END_REQSTACK()
```
