# 17731587 - Trion

## Common Data

| Field            | Value                         |
|------------------|-------------------------------|
| Zone             | Chateau d'Oraguille (ID: 233) |
| Block Size       | 2576 bytes                    |
| Total Events     | 120                           |
| References Count | 125                           |

## List of Events

| Event ID                   | Entrypoint   |   Size |   Instructions |
|----------------------------|--------------|--------|----------------|
| [65535](#event-65535)      | 0x0000       |      1 |              1 |
| [66](#event-66)            | 0x0001       |     10 |              3 |
| [65535.1](#event-655351)   | 0x000B       |     17 |              5 |
| [10](#event-10)            | 0x001C       |     12 |              3 |
| [9](#event-9)              | 0x0028       |      1 |              1 |
| [65535.2](#event-655352)   | 0x0029       |     10 |              2 |
| [65535.3](#event-655353)   | 0x0033       |     20 |              6 |
| [32](#event-32)            | 0x0047       |     10 |              2 |
| [76](#event-76)            | 0x0051       |     12 |              3 |
| [8](#event-8)              | 0x005D       |     20 |              3 |
| [65535.4](#event-655354)   | 0x0071       |     12 |              3 |
| [65535.5](#event-655355)   | 0x007D       |     24 |              6 |
| [65535.6](#event-655356)   | 0x0095       |     26 |              7 |
| [65535.7](#event-655357)   | 0x00AF       |     23 |              6 |
| [115](#event-115)          | 0x00C6       |      1 |              1 |
| [100](#event-100)          | 0x00C7       |     10 |              2 |
| [64](#event-64)            | 0x00D1       |      1 |              1 |
| [63](#event-63)            | 0x00D2       |      1 |              1 |
| [3](#event-3)              | 0x00D3       |      1 |              1 |
| [62](#event-62)            | 0x00D4       |      1 |              1 |
| [547](#event-547)          | 0x00D5       |      1 |              1 |
| [81](#event-81)            | 0x00D6       |      1 |              1 |
| [80](#event-80)            | 0x00D7       |      1 |              1 |
| [21](#event-21)            | 0x00D8       |      1 |              1 |
| [65535.8](#event-655358)   | 0x00D9       |     10 |              2 |
| [65535.9](#event-655359)   | 0x00E3       |     26 |              6 |
| [65535.10](#event-6553510) | 0x00FD       |     36 |              4 |
| [534](#event-534)          | 0x0121       |     12 |              3 |
| [65535.11](#event-6553511) | 0x012D       |     15 |              5 |
| [65535.12](#event-6553512) | 0x013C       |     15 |              5 |
| [65535.13](#event-6553513) | 0x014B       |     15 |              5 |
| [65535.14](#event-6553514) | 0x015A       |     17 |              6 |
| [526](#event-526)          | 0x016B       |      2 |              2 |
| [65535.15](#event-6553515) | 0x016D       |      9 |              3 |
| [65535.16](#event-6553516) | 0x0176       |      6 |              2 |
| [65535.17](#event-6553517) | 0x017C       |     14 |              4 |
| [61](#event-61)            | 0x018A       |     10 |              2 |
| [101](#event-101)          | 0x0194       |     12 |              3 |
| [88](#event-88)            | 0x01A0       |      4 |              2 |
| [65535.18](#event-6553518) | 0x01A4       |     88 |             12 |
| [65535.19](#event-6553519) | 0x01FC       |     46 |              6 |
| [90](#event-90)            | 0x022A       |      1 |              1 |
| [91](#event-91)            | 0x022B       |      1 |              1 |
| [89](#event-89)            | 0x022C       |      4 |              2 |
| [65535.20](#event-6553520) | 0x0230       |     26 |              6 |
| [65535.21](#event-6553521) | 0x024A       |     11 |              3 |
| [65535.22](#event-6553522) | 0x0255       |     19 |              3 |
| [65535.23](#event-6553523) | 0x0268       |     29 |              3 |
| [65535.24](#event-6553524) | 0x0285       |     19 |              3 |
| [65535.25](#event-6553525) | 0x0298       |     29 |              3 |
| [65535.26](#event-6553526) | 0x02B5       |     19 |              3 |
| [65535.27](#event-6553527) | 0x02C8       |     29 |              3 |
| [65535.28](#event-6553528) | 0x02E5       |     29 |              3 |
| [552](#event-552)          | 0x0302       |      1 |              1 |
| [65535.29](#event-6553529) | 0x0303       |     34 |              9 |
| [65535.30](#event-6553530) | 0x0325       |     28 |              9 |
| [567](#event-567)          | 0x0341       |      1 |              1 |
| [65535.31](#event-6553531) | 0x0342       |     16 |              2 |
| [65535.32](#event-6553532) | 0x0352       |     14 |              2 |
| [65535.33](#event-6553533) | 0x0360       |     16 |              2 |
| [65535.34](#event-6553534) | 0x0370       |     14 |              2 |
| [65535.35](#event-6553535) | 0x037E       |     16 |              2 |
| [65535.36](#event-6553536) | 0x038E       |     14 |              2 |
| [65535.37](#event-6553537) | 0x039C       |     16 |              2 |
| [65535.38](#event-6553538) | 0x03AC       |     14 |              2 |
| [65535.39](#event-6553539) | 0x03BA       |     16 |              2 |
| [65535.40](#event-6553540) | 0x03CA       |     14 |              2 |
| [65535.41](#event-6553541) | 0x03D8       |     16 |              2 |
| [65535.42](#event-6553542) | 0x03E8       |     14 |              2 |
| [65535.43](#event-6553543) | 0x03F6       |     16 |              2 |
| [65535.44](#event-6553544) | 0x0406       |     14 |              2 |
| [65535.45](#event-6553545) | 0x0414       |     16 |              2 |
| [65535.46](#event-6553546) | 0x0424       |     14 |              2 |
| [65535.47](#event-6553547) | 0x0432       |     16 |              2 |
| [65535.48](#event-6553548) | 0x0442       |     14 |              2 |
| [65535.49](#event-6553549) | 0x0450       |     16 |              2 |
| [65535.50](#event-6553550) | 0x0460       |     14 |              2 |
| [65535.51](#event-6553551) | 0x046E       |     16 |              2 |
| [65535.52](#event-6553552) | 0x047E       |     14 |              2 |
| [65535.53](#event-6553553) | 0x048C       |     16 |              2 |
| [65535.54](#event-6553554) | 0x049C       |     14 |              2 |
| [65535.55](#event-6553555) | 0x04AA       |     29 |              3 |
| [65535.56](#event-6553556) | 0x04C7       |     29 |              3 |
| [65535.57](#event-6553557) | 0x04E4       |     29 |              3 |
| [65535.58](#event-6553558) | 0x0501       |     16 |              2 |
| [65535.59](#event-6553559) | 0x0511       |     14 |              2 |
| [553](#event-553)          | 0x051F       |      1 |              1 |
| [65535.60](#event-6553560) | 0x0520       |     10 |              2 |
| [65535.61](#event-6553561) | 0x052A       |     14 |              4 |
| [65535.62](#event-6553562) | 0x0538       |     14 |              4 |
| [65535.63](#event-6553563) | 0x0546       |      5 |              3 |
| [65535.64](#event-6553564) | 0x054B       |      5 |              3 |
| [65535.65](#event-6553565) | 0x0550       |      5 |              3 |
| [65535.66](#event-6553566) | 0x0555       |      5 |              3 |
| [65535.67](#event-6553567) | 0x055A       |      5 |              3 |
| [65535.68](#event-6553568) | 0x055F       |      5 |              3 |
| [65535.69](#event-6553569) | 0x0564       |      5 |              3 |
| [65535.70](#event-6553570) | 0x0569       |      5 |              3 |
| [65535.71](#event-6553571) | 0x056E       |      5 |              3 |
| [65535.72](#event-6553572) | 0x0573       |      5 |              3 |
| [65535.73](#event-6553573) | 0x0578       |      5 |              3 |
| [65535.74](#event-6553574) | 0x057D       |      5 |              3 |
| [554](#event-554)          | 0x0582       |      1 |              1 |
| [65535.75](#event-6553575) | 0x0583       |     10 |              2 |
| [65535.76](#event-6553576) | 0x058D       |     23 |              5 |
| [65535.77](#event-6553577) | 0x05A4       |     14 |              4 |
| [65535.78](#event-6553578) | 0x05B2       |     29 |              5 |
| [65535.79](#event-6553579) | 0x05CF       |      5 |              3 |
| [65535.80](#event-6553580) | 0x05D4       |      5 |              3 |
| [65535.81](#event-6553581) | 0x05D9       |      5 |              3 |
| [65535.82](#event-6553582) | 0x05DE       |      5 |              3 |
| [65535.83](#event-6553583) | 0x05E3       |      5 |              3 |
| [574](#event-574)          | 0x05E8       |      1 |              1 |
| [65535.84](#event-6553584) | 0x05E9       |     15 |              5 |
| [590](#event-590)          | 0x05F8       |      1 |              1 |
| [593](#event-593)          | 0x05F9       |      1 |              1 |
| [65535.85](#event-6553585) | 0x05FA       |     15 |              5 |
| [65535.86](#event-6553586) | 0x0609       |     17 |              6 |
| [65535.87](#event-6553587) | 0x061A       |     15 |              5 |
| [597](#event-597)          | 0x0629       |      1 |              1 |

## DAT References (imed_data)

|   Index | Hex Value   |   Dec Value |
|---------|-------------|-------------|
|       0 | 0x0C0F      |        3087 |
|       1 | 0x003C      |          60 |
|       2 | 0x000D      |          13 |
|       3 | 0xFFFF6B55  |  4294929237 |
|       4 | 0x1539C     |       86940 |
|       5 | 0xFFFFF15B  |  4294963547 |
|       6 | 0xFFFFFBE0  |  4294966240 |
|       7 | 0x2122      |        8482 |
|       8 | 0xFFFFFA25  |  4294965797 |
|       9 | 0x0C09      |        3081 |
|      10 | 0x0000      |           0 |
|      11 | 0x0D77      |        3447 |
|      12 | 0x0BEF      |        3055 |
|      13 | 0xFFFFF5B9  |  4294964665 |
|      14 | 0x0DCA      |        3530 |
|      15 | 0xFFFFFC5A  |  4294966362 |
|      16 | 0x9DF7      |       40439 |
|      17 | 0xFFFFF2BA  |  4294963898 |
|      18 | 0x0372      |         882 |
|      19 | 0x175D      |        5981 |
|      20 | 0xADD9      |       44505 |
|      21 | 0xFFFFF448  |  4294964296 |
|      22 | 0x03F2      |        1010 |
|      23 | 0xFFFFFA4D  |  4294965837 |
|      24 | 0xA3EE      |       41966 |
|      25 | 0x0327      |         807 |
|      26 | 0x1788      |        6024 |
|      27 | 0xA500      |       42240 |
|      28 | 0x0D6C      |        3436 |
|      29 | 0x9E8B      |       40587 |
|      30 | 0x0BBC      |        3004 |
|      31 | 0x9E6E      |       40558 |
|      32 | 0x1664      |        5732 |
|      33 | 0xA640      |       42560 |
|      34 | 0xFFFFFC06  |  4294966278 |
|      35 | 0x7303      |       29443 |
|      36 | 0xFFFFF736  |  4294965046 |
|      37 | 0x0CB0      |        3248 |
|      38 | 0xFFFFFB8E  |  4294966158 |
|      39 | 0x9124      |       37156 |
|      40 | 0x0C84      |        3204 |
|      41 | 0xFFFF7075  |  4294930549 |
|      42 | 0x15491     |       87185 |
|      43 | 0xFFFF6FB1  |  4294930353 |
|      44 | 0x142C2     |       82626 |
|      45 | 0x0078      |         120 |
|      46 | 0x00C8      |         200 |
|      47 | 0xFFFFE7D9  |  4294961113 |
|      48 | 0xFFFFF777  |  4294965111 |
|      49 | 0x0F2A      |        3882 |
|      50 | 0xFFFFEAE5  |  4294961893 |
|      51 | 0xFFFFF8BA  |  4294965434 |
|      52 | 0xFFFFFA52  |  4294965842 |
|      53 | 0xFFFFFE55  |  4294966869 |
|      54 | 0xFFFFDAE3  |  4294957795 |
|      55 | 0xFFFFF106  |  4294963462 |
|      56 | 0xFFFF6B90  |  4294929296 |
|      57 | 0x14DF9     |       85497 |
|      58 | 0xFFFFF645  |  4294964805 |
|      59 | 0x9D73      |       40307 |
|      60 | 0x0340      |         832 |
|      61 | 0x9339      |       37689 |
|      62 | 0x0CBB      |        3259 |
|      63 | 0xFFFFF449  |  4294964297 |
|      64 | 0x065A      |        1626 |
|      65 | 0x0BCB      |        3019 |
|      66 | 0x0096      |         150 |
|      67 | 0x005A      |          90 |
|      68 | 0x00D0      |         208 |
|      69 | 0x000A      |          10 |
|      70 | 0x0064      |         100 |
|      71 | 0x89C5      |       35269 |
|      72 | 0x0366      |         870 |
|      73 | 0x0073      |         115 |
|      74 | 0x001E      |          30 |
|      75 | 0x0074      |         116 |
|      76 | 0x0128      |         296 |
|      77 | 0xFFFF6DA9  |  4294929833 |
|      78 | 0x64A1      |       25761 |
|      79 | 0xFFFFF14C  |  4294963532 |
|      80 | 0x0BBD      |        3005 |
|      81 | 0xFFFF6DE2  |  4294929890 |
|      82 | 0x72B5      |       29365 |
|      83 | 0xFFFF6EC6  |  4294930118 |
|      84 | 0x84DA      |       34010 |
|      85 | 0xFFFF6FF8  |  4294930424 |
|      86 | 0xA812      |       43026 |
|      87 | 0xFFFFFA8A  |  4294965898 |
|      88 | 0x0076      |         118 |
|      89 | 0x0075      |         117 |
|      90 | 0x158F2     |       88306 |
|      91 | 0x0F66      |        3942 |
|      92 | 0x149C3     |       84419 |
|      93 | 0xFFFF6F78  |  4294930296 |
|      94 | 0x1DB5      |        7605 |
|      95 | 0x1DB6      |        7606 |
|      96 | 0x1DB7      |        7607 |
|      97 | 0x1DB8      |        7608 |
|      98 | 0x1DB9      |        7609 |
|      99 | 0x1DBA      |        7610 |
|     100 | 0x1DBB      |        7611 |
|     101 | 0x1DBC      |        7612 |
|     102 | 0x1DBD      |        7613 |
|     103 | 0x1DBE      |        7614 |
|     104 | 0x1DBF      |        7615 |
|     105 | 0x1DC0      |        7616 |
|     106 | 0x14ECA     |       85706 |
|     107 | 0x0400      |        1024 |
|     108 | 0x141F3     |       82419 |
|     109 | 0x12CE8     |       77032 |
|     110 | 0xFFFFF159  |  4294963545 |
|     111 | 0x12130     |       74032 |
|     112 | 0x1DC1      |        7617 |
|     113 | 0x1DC2      |        7618 |
|     114 | 0x1DC3      |        7619 |
|     115 | 0x1DC4      |        7620 |
|     116 | 0x1DC6      |        7622 |
|     117 | 0xFFFF7381  |  4294931329 |
|     118 | 0x153C7     |       86983 |
|     119 | 0x0535      |        1333 |
|     120 | 0x0C1C      |        3100 |
|     121 | 0xFFFFDFFC  |  4294959100 |
|     122 | 0xFFFFF4BF  |  4294964415 |
|     123 | 0x88D4      |       35028 |
|     124 | 0x0157      |         343 |

## String References

- **7605**: <Player>! Many are those who speak of your triumphs in the name of San d'Oria!
- **7606**: And much have I heard of your journeys abroad, and how you fought nether beasts in the lair of the enemy.
- **7607**: So the return of the Shadow Lord is at hand. Perhaps never will the hand of evil be banished from this world.
- **7608**: But always will the righteous stand up to face it. Am I not right, <Player>?
- **7609**: The Royal Knights have but a single purpose: to exterminate the Orcs who ravage our lands!
- **7610**: We have sent scouts already to the Orcish stronghold of Davoi.
- **7611**: They are to report on the Orcs' numbers, map the territory, and find their lines of supply. Once such knowledge is ours, we shall strike.
- **7612**: But, the scouts' report has not yet arrived! What could this mean?
- **7613**: What? The Temple Knights have also sent scouts to Davoi? On whose orders?
- **7614**: Pieuje. I knew it! What madness has made him do this?
- **7615**: But, we must not be dismayed. <Player>, I want you to head to Davoi straight away.
- **7616**: Seek the Royal Knight Quemaricond and take his $3. Now, make haste!
- **7617**: You're back! Quick, show me the $3.
- **7618**: What a report! We must send troops immediately!
- **7619**: No, but wait... This matter requires more than Royal Knights... Confound it! We need Temple Knights as well!
- **7620**: Perfaumand! Where are Pieuje and Curilla?
- **7622**: <Player>, your mission is over. Thank you!

## Events

### Event 65535

#### Metadata

| Field        | Value   |
|--------------|---------|
| Entrypoint   | 0x0000  |
| Data Size    | 1 bytes |
| Instructions | 1       |

```
      00 01 02 03 04 05 06 07  08 09 0A 0B 0C 0D 0E 0F
      -- -- -- -- -- -- -- --  -- -- -- -- -- -- -- --
0000: 00                                                .               
```

#### Opcodes

```
  0: 0x0000 [0x00] END_REQSTACK()
```

### Event 66

#### Metadata

| Field        | Value    |
|--------------|----------|
| Entrypoint   | 0x0001   |
| Data Size    | 10 bytes |
| Instructions | 3        |

```
      00 01 02 03 04 05 06 07  08 09 0A 0B 0C 0D 0E 0F
      -- -- -- -- -- -- -- --  -- -- -- -- -- -- -- --
0000:    94 01 F8 FF FF 7F 39  00 80 00                  ......9...     
```

#### Opcodes

```
  0: 0x0001 [0x94] EventEntity->Render.Flags3 ^= 0x01
  1: 0x0007 [0x39] SET_ENTITY_DIRECTION(direction=17.0°*)
  2: 0x000A [0x00] END_REQSTACK()
```

### Event 65535.1

#### Metadata

| Field        | Value    |
|--------------|----------|
| Entrypoint   | 0x000B   |
| Data Size    | 17 bytes |
| Instructions | 5        |

```
      00 01 02 03 04 05 06 07  08 09 0A 0B 0C 0D 0E 0F
      -- -- -- -- -- -- -- --  -- -- -- -- -- -- -- --
0000:                                   1C 01 80 32 02             ...2.
0010: 80 1F 00 03 80 04 80 05  80 1F 01 00              ............    
```

#### Opcodes

```
  0: 0x000B [0x1C] WAIT(60* ticks)
  1: 0x000E [0x32] ExtData[1]->MainSpeed = 13* * 0.1
  2: 0x0011 [0x1F] MOVE_ENTITY: EventEntity moves to X=-38.059*, Z=86.940*, Y=-3.749*
  3: 0x0019 [0x1F] MOVE_ENTITY: Update entity position (mode=1)
  4: 0x001B [0x00] END_REQSTACK()
```

### Event 10

#### Metadata

| Field        | Value    |
|--------------|----------|
| Entrypoint   | 0x001C   |
| Data Size    | 12 bytes |
| Instructions | 3        |

```
      00 01 02 03 04 05 06 07  08 09 0A 0B 0C 0D 0E 0F
      -- -- -- -- -- -- -- --  -- -- -- -- -- -- -- --
0010:                                      22 00 37 06              ".7.
0020: 80 07 80 08 80 09 80 00                           ........        
```

#### Opcodes

```
  0: 0x001C [0x22] ENTITY_HIDE_FLAG(enabled=0x00)
  1: 0x001E [0x37] UPDATE_EVENT_POSITION_AND_DIR: x=-1.056*, z=8.482*, y=-1.499*, direction=270.8°*
  2: 0x0027 [0x00] END_REQSTACK()
```

### Event 9

#### Metadata

| Field        | Value   |
|--------------|---------|
| Entrypoint   | 0x0028  |
| Data Size    | 1 bytes |
| Instructions | 1       |

```
      00 01 02 03 04 05 06 07  08 09 0A 0B 0C 0D 0E 0F
      -- -- -- -- -- -- -- --  -- -- -- -- -- -- -- --
0020:                          00                               .       
```

#### Opcodes

```
  0: 0x0028 [0x00] END_REQSTACK()
```

### Event 65535.2

#### Metadata

| Field        | Value    |
|--------------|----------|
| Entrypoint   | 0x0029   |
| Data Size    | 10 bytes |
| Instructions | 2        |

```
      00 01 02 03 04 05 06 07  08 09 0A 0B 0C 0D 0E 0F
      -- -- -- -- -- -- -- --  -- -- -- -- -- -- -- --
0020:                             37 0A 80 0B 80 0A 80           7......
0030: 0C 80 00                                          ...             
```

#### Opcodes

```
  0: 0x0029 [0x37] UPDATE_EVENT_POSITION_AND_DIR: x=0.000*, z=3.447*, y=0.000*, direction=268.5°*
  1: 0x0032 [0x00] END_REQSTACK()
```

### Event 65535.3

#### Metadata

| Field        | Value    |
|--------------|----------|
| Entrypoint   | 0x0033   |
| Data Size    | 20 bytes |
| Instructions | 6        |

```
      00 01 02 03 04 05 06 07  08 09 0A 0B 0C 0D 0E 0F
      -- -- -- -- -- -- -- --  -- -- -- -- -- -- -- --
0030:          32 02 80 1F 00  0D 80 0E 80 0A 80 1F 01     2............
0040: 6F 1E F0 FF FF 7F 00                              o......         
```

#### Opcodes

```
  0: 0x0033 [0x32] ExtData[1]->MainSpeed = 13* * 0.1
  1: 0x0036 [0x1F] MOVE_ENTITY: EventEntity moves to X=-2.631*, Z=3.530*, Y=0.000*
  2: 0x003E [0x1F] MOVE_ENTITY: Update entity position (mode=1)
  3: 0x0040 [0x6F] WAIT_FRAME_DELAY: Yield until WaitTime reaches zero
  4: 0x0041 [0x1E] EventEntity looks at LocalPlayer and starts talking
  5: 0x0046 [0x00] END_REQSTACK()
```

### Event 32

#### Metadata

| Field        | Value    |
|--------------|----------|
| Entrypoint   | 0x0047   |
| Data Size    | 10 bytes |
| Instructions | 2        |

```
      00 01 02 03 04 05 06 07  08 09 0A 0B 0C 0D 0E 0F
      -- -- -- -- -- -- -- --  -- -- -- -- -- -- -- --
0040:                      37  0F 80 10 80 11 80 12 80         7........
0050: 00                                                .               
```

#### Opcodes

```
  0: 0x0047 [0x37] UPDATE_EVENT_POSITION_AND_DIR: x=-0.934*, z=40.439*, y=-3.398*, direction=77.5°*
  1: 0x0050 [0x00] END_REQSTACK()
```

### Event 76

#### Metadata

| Field        | Value    |
|--------------|----------|
| Entrypoint   | 0x0051   |
| Data Size    | 12 bytes |
| Instructions | 3        |

```
      00 01 02 03 04 05 06 07  08 09 0A 0B 0C 0D 0E 0F
      -- -- -- -- -- -- -- --  -- -- -- -- -- -- -- --
0050:    22 01 37 13 80 14 80  15 80 16 80 00            ".7.........   
```

#### Opcodes

```
  0: 0x0051 [0x22] ENTITY_HIDE_FLAG(enabled=0x01)
  1: 0x0053 [0x37] UPDATE_EVENT_POSITION_AND_DIR: x=5.981*, z=44.505*, y=-3.000*, direction=88.8°*
  2: 0x005C [0x00] END_REQSTACK()
```

### Event 8

#### Metadata

| Field        | Value    |
|--------------|----------|
| Entrypoint   | 0x005D   |
| Data Size    | 20 bytes |
| Instructions | 3        |

```
      00 01 02 03 04 05 06 07  08 09 0A 0B 0C 0D 0E 0F
      -- -- -- -- -- -- -- --  -- -- -- -- -- -- -- --
0050:                                         37 17 80               7..
0060: 18 80 11 80 19 80 79 00  F8 FF FF 7F F0 FF FF 7F  ......y.........
0070: 00                                                .               
```

#### Opcodes

```
  0: 0x005D [0x37] UPDATE_EVENT_POSITION_AND_DIR: x=-1.459*, z=41.966*, y=-3.398*, direction=70.9°*
  1: 0x0066 [0x79] EventEntity looks at LocalPlayer (Basic look)
  2: 0x0070 [0x00] END_REQSTACK()
```

### Event 65535.4

#### Metadata

| Field        | Value    |
|--------------|----------|
| Entrypoint   | 0x0071   |
| Data Size    | 12 bytes |
| Instructions | 3        |

```
      00 01 02 03 04 05 06 07  08 09 0A 0B 0C 0D 0E 0F
      -- -- -- -- -- -- -- --  -- -- -- -- -- -- -- --
0070:    33 01 37 17 80 18 80  11 80 19 80 00            3.7.........   
```

#### Opcodes

```
  0: 0x0071 [0x33] EventEntity->Render.Flags0 |= 0x200000 // Bit 21 (flag=0x01)
  1: 0x0073 [0x37] UPDATE_EVENT_POSITION_AND_DIR: x=-1.459*, z=41.966*, y=-3.398*, direction=70.9°*
  2: 0x007C [0x00] END_REQSTACK()
```

### Event 65535.5

#### Metadata

| Field        | Value    |
|--------------|----------|
| Entrypoint   | 0x007D   |
| Data Size    | 24 bytes |
| Instructions | 6        |

```
      00 01 02 03 04 05 06 07  08 09 0A 0B 0C 0D 0E 0F
      -- -- -- -- -- -- -- --  -- -- -- -- -- -- -- --
0070:                                         32 02 80               2..
0080: 1F 00 1A 80 1B 80 15 80  1F 01 1F 00 1C 80 1D 80  ................
0090: 11 80 1F 01 00                                    .....           
```

#### Opcodes

```
  0: 0x007D [0x32] ExtData[1]->MainSpeed = 13* * 0.1
  1: 0x0080 [0x1F] MOVE_ENTITY: EventEntity moves to X=6.024*, Z=42.240*, Y=-3.000*
  2: 0x0088 [0x1F] MOVE_ENTITY: Update entity position (mode=1)
  3: 0x008A [0x1F] MOVE_ENTITY: EventEntity moves to X=3.436*, Z=40.587*, Y=-3.398*
  4: 0x0092 [0x1F] MOVE_ENTITY: Update entity position (mode=1)
  5: 0x0094 [0x00] END_REQSTACK()
```

### Event 65535.6

#### Metadata

| Field        | Value    |
|--------------|----------|
| Entrypoint   | 0x0095   |
| Data Size    | 26 bytes |
| Instructions | 7        |

```
      00 01 02 03 04 05 06 07  08 09 0A 0B 0C 0D 0E 0F
      -- -- -- -- -- -- -- --  -- -- -- -- -- -- -- --
0090:                32 02 80  1F 00 1E 80 1F 80 11 80       2..........
00A0: 1F 01 1F 00 20 80 21 80  15 80 1F 01 22 01 00     .... .!.....".. 
```

#### Opcodes

```
  0: 0x0095 [0x32] ExtData[1]->MainSpeed = 13* * 0.1
  1: 0x0098 [0x1F] MOVE_ENTITY: EventEntity moves to X=3.004*, Z=40.558*, Y=-3.398*
  2: 0x00A0 [0x1F] MOVE_ENTITY: Update entity position (mode=1)
  3: 0x00A2 [0x1F] MOVE_ENTITY: EventEntity moves to X=5.732*, Z=42.560*, Y=-3.000*
  4: 0x00AA [0x1F] MOVE_ENTITY: Update entity position (mode=1)
  5: 0x00AC [0x22] ENTITY_HIDE_FLAG(enabled=0x01)
  6: 0x00AE [0x00] END_REQSTACK()
```

### Event 65535.7

#### Metadata

| Field        | Value    |
|--------------|----------|
| Entrypoint   | 0x00AF   |
| Data Size    | 23 bytes |
| Instructions | 6        |

```
      00 01 02 03 04 05 06 07  08 09 0A 0B 0C 0D 0E 0F
      -- -- -- -- -- -- -- --  -- -- -- -- -- -- -- --
00A0:                                               1F                 .
00B0: 00 1A 80 1B 80 15 80 1F  01 1F 00 13 80 14 80 15  ................
00C0: 80 1F 01 22 01 00                                 ..."..          
```

#### Opcodes

```
  0: 0x00AF [0x1F] MOVE_ENTITY: EventEntity moves to X=6.024*, Z=42.240*, Y=-3.000*
  1: 0x00B7 [0x1F] MOVE_ENTITY: Update entity position (mode=1)
  2: 0x00B9 [0x1F] MOVE_ENTITY: EventEntity moves to X=5.981*, Z=44.505*, Y=-3.000*
  3: 0x00C1 [0x1F] MOVE_ENTITY: Update entity position (mode=1)
  4: 0x00C3 [0x22] ENTITY_HIDE_FLAG(enabled=0x01)
  5: 0x00C5 [0x00] END_REQSTACK()
```

### Event 115

#### Metadata

| Field        | Value   |
|--------------|---------|
| Entrypoint   | 0x00C6  |
| Data Size    | 1 bytes |
| Instructions | 1       |

```
      00 01 02 03 04 05 06 07  08 09 0A 0B 0C 0D 0E 0F
      -- -- -- -- -- -- -- --  -- -- -- -- -- -- -- --
00C0:                   00                                    .         
```

#### Opcodes

```
  0: 0x00C6 [0x00] END_REQSTACK()
```

### Event 100

#### Metadata

| Field        | Value    |
|--------------|----------|
| Entrypoint   | 0x00C7   |
| Data Size    | 10 bytes |
| Instructions | 2        |

```
      00 01 02 03 04 05 06 07  08 09 0A 0B 0C 0D 0E 0F
      -- -- -- -- -- -- -- --  -- -- -- -- -- -- -- --
00C0:                      37  22 80 23 80 24 80 25 80         7".#.$.%.
00D0: 00                                                .               
```

#### Opcodes

```
  0: 0x00C7 [0x37] UPDATE_EVENT_POSITION_AND_DIR: x=-1.018*, z=29.443*, y=-2.250*, direction=285.5°*
  1: 0x00D0 [0x00] END_REQSTACK()
```

### Event 64

#### Metadata

| Field        | Value   |
|--------------|---------|
| Entrypoint   | 0x00D1  |
| Data Size    | 1 bytes |
| Instructions | 1       |

```
      00 01 02 03 04 05 06 07  08 09 0A 0B 0C 0D 0E 0F
      -- -- -- -- -- -- -- --  -- -- -- -- -- -- -- --
00D0:    00                                              .              
```

#### Opcodes

```
  0: 0x00D1 [0x00] END_REQSTACK()
```

### Event 63

#### Metadata

| Field        | Value   |
|--------------|---------|
| Entrypoint   | 0x00D2  |
| Data Size    | 1 bytes |
| Instructions | 1       |

```
      00 01 02 03 04 05 06 07  08 09 0A 0B 0C 0D 0E 0F
      -- -- -- -- -- -- -- --  -- -- -- -- -- -- -- --
00D0:       00                                            .             
```

#### Opcodes

```
  0: 0x00D2 [0x00] END_REQSTACK()
```

### Event 3

#### Metadata

| Field        | Value   |
|--------------|---------|
| Entrypoint   | 0x00D3  |
| Data Size    | 1 bytes |
| Instructions | 1       |

```
      00 01 02 03 04 05 06 07  08 09 0A 0B 0C 0D 0E 0F
      -- -- -- -- -- -- -- --  -- -- -- -- -- -- -- --
00D0:          00                                          .            
```

#### Opcodes

```
  0: 0x00D3 [0x00] END_REQSTACK()
```

### Event 62

#### Metadata

| Field        | Value   |
|--------------|---------|
| Entrypoint   | 0x00D4  |
| Data Size    | 1 bytes |
| Instructions | 1       |

```
      00 01 02 03 04 05 06 07  08 09 0A 0B 0C 0D 0E 0F
      -- -- -- -- -- -- -- --  -- -- -- -- -- -- -- --
00D0:             00                                        .           
```

#### Opcodes

```
  0: 0x00D4 [0x00] END_REQSTACK()
```

### Event 547

#### Metadata

| Field        | Value   |
|--------------|---------|
| Entrypoint   | 0x00D5  |
| Data Size    | 1 bytes |
| Instructions | 1       |

```
      00 01 02 03 04 05 06 07  08 09 0A 0B 0C 0D 0E 0F
      -- -- -- -- -- -- -- --  -- -- -- -- -- -- -- --
00D0:                00                                      .          
```

#### Opcodes

```
  0: 0x00D5 [0x00] END_REQSTACK()
```

### Event 81

#### Metadata

| Field        | Value   |
|--------------|---------|
| Entrypoint   | 0x00D6  |
| Data Size    | 1 bytes |
| Instructions | 1       |

```
      00 01 02 03 04 05 06 07  08 09 0A 0B 0C 0D 0E 0F
      -- -- -- -- -- -- -- --  -- -- -- -- -- -- -- --
00D0:                   00                                    .         
```

#### Opcodes

```
  0: 0x00D6 [0x00] END_REQSTACK()
```

### Event 80

#### Metadata

| Field        | Value   |
|--------------|---------|
| Entrypoint   | 0x00D7  |
| Data Size    | 1 bytes |
| Instructions | 1       |

```
      00 01 02 03 04 05 06 07  08 09 0A 0B 0C 0D 0E 0F
      -- -- -- -- -- -- -- --  -- -- -- -- -- -- -- --
00D0:                      00                                  .        
```

#### Opcodes

```
  0: 0x00D7 [0x00] END_REQSTACK()
```

### Event 21

#### Metadata

| Field        | Value   |
|--------------|---------|
| Entrypoint   | 0x00D8  |
| Data Size    | 1 bytes |
| Instructions | 1       |

```
      00 01 02 03 04 05 06 07  08 09 0A 0B 0C 0D 0E 0F
      -- -- -- -- -- -- -- --  -- -- -- -- -- -- -- --
00D0:                          00                               .       
```

#### Opcodes

```
  0: 0x00D8 [0x00] END_REQSTACK()
```

### Event 65535.8

#### Metadata

| Field        | Value    |
|--------------|----------|
| Entrypoint   | 0x00D9   |
| Data Size    | 10 bytes |
| Instructions | 2        |

```
      00 01 02 03 04 05 06 07  08 09 0A 0B 0C 0D 0E 0F
      -- -- -- -- -- -- -- --  -- -- -- -- -- -- -- --
00D0:                             37 26 80 27 80 15 80           7&.'...
00E0: 28 80 00                                          (..             
```

#### Opcodes

```
  0: 0x00D9 [0x37] UPDATE_EVENT_POSITION_AND_DIR: x=-1.138*, z=37.156*, y=-3.000*, direction=281.6°*
  1: 0x00E2 [0x00] END_REQSTACK()
```

### Event 65535.9

#### Metadata

| Field        | Value    |
|--------------|----------|
| Entrypoint   | 0x00E3   |
| Data Size    | 26 bytes |
| Instructions | 6        |

```
      00 01 02 03 04 05 06 07  08 09 0A 0B 0C 0D 0E 0F
      -- -- -- -- -- -- -- --  -- -- -- -- -- -- -- --
00E0:          32 02 80 1F 00  29 80 2A 80 05 80 1F 01     2....).*.....
00F0: 31 00 2B 80 2C 80 05 80  2D 80 31 01 00           1.+.,...-.1..   
```

#### Opcodes

```
  0: 0x00E3 [0x32] ExtData[1]->MainSpeed = 13* * 0.1
  1: 0x00E6 [0x1F] MOVE_ENTITY: EventEntity moves to X=-36.747*, Z=87.185*, Y=-3.749*
  2: 0x00EE [0x1F] MOVE_ENTITY: Update entity position (mode=1)
  3: 0x00F0 [0x31] UPDATE_ENTITY_POSITION: Set EventEntity goal position to X=-36.943*, Z=82.626*, Y=-3.749*, Time=120*
  4: 0x00FA [0x31] UPDATE_ENTITY_POSITION: Move EventEntity towards goal position
  5: 0x00FC [0x00] END_REQSTACK()
```

### Event 65535.10

#### Metadata

| Field        | Value    |
|--------------|----------|
| Entrypoint   | 0x00FD   |
| Data Size    | 36 bytes |
| Instructions | 4        |

```
      00 01 02 03 04 05 06 07  08 09 0A 0B 0C 0D 0E 0F
      -- -- -- -- -- -- -- --  -- -- -- -- -- -- -- --
00F0:                                         1C 01 80               ...
0100: 45 2E 80 F0 FF FF 7F F0  FF FF 7F 66 64 6F 32 0A  E..........fdo2.
0110: 80 55 2E 80 F0 FF FF 7F  F0 FF FF 7F 66 64 6F 32  .U..........fdo2
0120: 00                                                .               
```

#### Opcodes

```
  0: 0x00FD [0x1C] WAIT(60* ticks)
  1: 0x0100 [0x45] LOAD_SCHEDULED_TASK: Load scheduler "fdo2" with entities [LocalPlayer, LocalPlayer], work=[200*, 0*]
  2: 0x0111 [0x55] WAIT_LOAD_SCHEDULER: Wait for scheduler "fdo2" with entities [LocalPlayer, LocalPlayer], work=200*
  3: 0x0120 [0x00] END_REQSTACK()
```

### Event 534

#### Metadata

| Field        | Value    |
|--------------|----------|
| Entrypoint   | 0x0121   |
| Data Size    | 12 bytes |
| Instructions | 3        |

```
      00 01 02 03 04 05 06 07  08 09 0A 0B 0C 0D 0E 0F
      -- -- -- -- -- -- -- --  -- -- -- -- -- -- -- --
0120:    22 01 37 2F 80 30 80  0A 80 31 80 00            ".7/.0...1..   
```

#### Opcodes

```
  0: 0x0121 [0x22] ENTITY_HIDE_FLAG(enabled=0x01)
  1: 0x0123 [0x37] UPDATE_EVENT_POSITION_AND_DIR: x=-6.183*, z=-2.185*, y=0.000*, direction=341.2°*
  2: 0x012C [0x00] END_REQSTACK()
```

### Event 65535.11

#### Metadata

| Field        | Value    |
|--------------|----------|
| Entrypoint   | 0x012D   |
| Data Size    | 15 bytes |
| Instructions | 5        |

```
      00 01 02 03 04 05 06 07  08 09 0A 0B 0C 0D 0E 0F
      -- -- -- -- -- -- -- --  -- -- -- -- -- -- -- --
0120:                                         32 02 80               2..
0130: 1F 00 32 80 33 80 0A 80  1F 01 6F 00              ..2.3.....o.    
```

#### Opcodes

```
  0: 0x012D [0x32] ExtData[1]->MainSpeed = 13* * 0.1
  1: 0x0130 [0x1F] MOVE_ENTITY: EventEntity moves to X=-5.403*, Z=-1.862*, Y=0.000*
  2: 0x0138 [0x1F] MOVE_ENTITY: Update entity position (mode=1)
  3: 0x013A [0x6F] WAIT_FRAME_DELAY: Yield until WaitTime reaches zero
  4: 0x013B [0x00] END_REQSTACK()
```

### Event 65535.12

#### Metadata

| Field        | Value    |
|--------------|----------|
| Entrypoint   | 0x013C   |
| Data Size    | 15 bytes |
| Instructions | 5        |

```
      00 01 02 03 04 05 06 07  08 09 0A 0B 0C 0D 0E 0F
      -- -- -- -- -- -- -- --  -- -- -- -- -- -- -- --
0130:                                      32 02 80 1F              2...
0140: 00 34 80 35 80 0A 80 1F  01 6F 00                 .4.5.....o.     
```

#### Opcodes

```
  0: 0x013C [0x32] ExtData[1]->MainSpeed = 13* * 0.1
  1: 0x013F [0x1F] MOVE_ENTITY: EventEntity moves to X=-1.454*, Z=-0.427*, Y=0.000*
  2: 0x0147 [0x1F] MOVE_ENTITY: Update entity position (mode=1)
  3: 0x0149 [0x6F] WAIT_FRAME_DELAY: Yield until WaitTime reaches zero
  4: 0x014A [0x00] END_REQSTACK()
```

### Event 65535.13

#### Metadata

| Field        | Value    |
|--------------|----------|
| Entrypoint   | 0x014B   |
| Data Size    | 15 bytes |
| Instructions | 5        |

```
      00 01 02 03 04 05 06 07  08 09 0A 0B 0C 0D 0E 0F
      -- -- -- -- -- -- -- --  -- -- -- -- -- -- -- --
0140:                                   32 02 80 1F 00             2....
0150: 32 80 33 80 0A 80 1F 01  6F 00                    2.3.....o.      
```

#### Opcodes

```
  0: 0x014B [0x32] ExtData[1]->MainSpeed = 13* * 0.1
  1: 0x014E [0x1F] MOVE_ENTITY: EventEntity moves to X=-5.403*, Z=-1.862*, Y=0.000*
  2: 0x0156 [0x1F] MOVE_ENTITY: Update entity position (mode=1)
  3: 0x0158 [0x6F] WAIT_FRAME_DELAY: Yield until WaitTime reaches zero
  4: 0x0159 [0x00] END_REQSTACK()
```

### Event 65535.14

#### Metadata

| Field        | Value    |
|--------------|----------|
| Entrypoint   | 0x015A   |
| Data Size    | 17 bytes |
| Instructions | 6        |

```
      00 01 02 03 04 05 06 07  08 09 0A 0B 0C 0D 0E 0F
      -- -- -- -- -- -- -- --  -- -- -- -- -- -- -- --
0150:                                32 02 80 1F 00 36            2....6
0160: 80 37 80 0A 80 1F 01 6F  22 01 00                 .7.....o"..     
```

#### Opcodes

```
  0: 0x015A [0x32] ExtData[1]->MainSpeed = 13* * 0.1
  1: 0x015D [0x1F] MOVE_ENTITY: EventEntity moves to X=-9.501*, Z=-3.834*, Y=0.000*
  2: 0x0165 [0x1F] MOVE_ENTITY: Update entity position (mode=1)
  3: 0x0167 [0x6F] WAIT_FRAME_DELAY: Yield until WaitTime reaches zero
  4: 0x0168 [0x22] ENTITY_HIDE_FLAG(enabled=0x01)
  5: 0x016A [0x00] END_REQSTACK()
```

### Event 526

#### Metadata

| Field        | Value   |
|--------------|---------|
| Entrypoint   | 0x016B  |
| Data Size    | 2 bytes |
| Instructions | 2       |

```
      00 01 02 03 04 05 06 07  08 09 0A 0B 0C 0D 0E 0F
      -- -- -- -- -- -- -- --  -- -- -- -- -- -- -- --
0160:                                   21 00                      !.   
```

#### Opcodes

```
  0: 0x016B [0x21] END_EVENT
  1: 0x016C [0x00] END_REQSTACK()
```

### Event 65535.15

#### Metadata

| Field        | Value   |
|--------------|---------|
| Entrypoint   | 0x016D  |
| Data Size    | 9 bytes |
| Instructions | 3       |

```
      00 01 02 03 04 05 06 07  08 09 0A 0B 0C 0D 0E 0F
      -- -- -- -- -- -- -- --  -- -- -- -- -- -- -- --
0160:                                         2F 00 03               /..
0170: 90 0E 01 22 00 00                                 ..."..          
```

#### Opcodes

```
  0: 0x016D [0x2F] Trion (ID: 17731587/0x010E9003)->Render.Flags0 &= ~0x80000 // Bit 19
  1: 0x0173 [0x22] ENTITY_HIDE_FLAG(enabled=0x00)
  2: 0x0175 [0x00] END_REQSTACK()
```

### Event 65535.16

#### Metadata

| Field        | Value   |
|--------------|---------|
| Entrypoint   | 0x0176  |
| Data Size    | 6 bytes |
| Instructions | 2       |

```
      00 01 02 03 04 05 06 07  08 09 0A 0B 0C 0D 0E 0F
      -- -- -- -- -- -- -- --  -- -- -- -- -- -- -- --
0170:                   1E F0  FF FF 7F 00                    ......    
```

#### Opcodes

```
  0: 0x0176 [0x1E] EventEntity looks at LocalPlayer and starts talking
  1: 0x017B [0x00] END_REQSTACK()
```

### Event 65535.17

#### Metadata

| Field        | Value    |
|--------------|----------|
| Entrypoint   | 0x017C   |
| Data Size    | 14 bytes |
| Instructions | 4        |

```
      00 01 02 03 04 05 06 07  08 09 0A 0B 0C 0D 0E 0F
      -- -- -- -- -- -- -- --  -- -- -- -- -- -- -- --
0170:                                      32 02 80 1F              2...
0180: 00 38 80 39 80 05 80 1F  01 00                    .8.9......      
```

#### Opcodes

```
  0: 0x017C [0x32] ExtData[1]->MainSpeed = 13* * 0.1
  1: 0x017F [0x1F] MOVE_ENTITY: EventEntity moves to X=-38.000*, Z=85.497*, Y=-3.749*
  2: 0x0187 [0x1F] MOVE_ENTITY: Update entity position (mode=1)
  3: 0x0189 [0x00] END_REQSTACK()
```

### Event 61

#### Metadata

| Field        | Value    |
|--------------|----------|
| Entrypoint   | 0x018A   |
| Data Size    | 10 bytes |
| Instructions | 2        |

```
      00 01 02 03 04 05 06 07  08 09 0A 0B 0C 0D 0E 0F
      -- -- -- -- -- -- -- --  -- -- -- -- -- -- -- --
0180:                                37 3A 80 3B 80 11            7:.;..
0190: 80 3C 80 00                                       .<..            
```

#### Opcodes

```
  0: 0x018A [0x37] UPDATE_EVENT_POSITION_AND_DIR: x=-2.491*, z=40.307*, y=-3.398*, direction=73.1°*
  1: 0x0193 [0x00] END_REQSTACK()
```

### Event 101

#### Metadata

| Field        | Value    |
|--------------|----------|
| Entrypoint   | 0x0194   |
| Data Size    | 12 bytes |
| Instructions | 3        |

```
      00 01 02 03 04 05 06 07  08 09 0A 0B 0C 0D 0E 0F
      -- -- -- -- -- -- -- --  -- -- -- -- -- -- -- --
0190:             22 01 37 3D  80 3E 80 3F 80 40 80 00      ".7=.>.?.@..
```

#### Opcodes

```
  0: 0x0194 [0x22] ENTITY_HIDE_FLAG(enabled=0x01)
  1: 0x0196 [0x37] UPDATE_EVENT_POSITION_AND_DIR: x=37.689*, z=3.259*, y=-2.999*, direction=142.9°*
  2: 0x019F [0x00] END_REQSTACK()
```

### Event 88

#### Metadata

| Field        | Value   |
|--------------|---------|
| Entrypoint   | 0x01A0  |
| Data Size    | 4 bytes |
| Instructions | 2       |

```
      00 01 02 03 04 05 06 07  08 09 0A 0B 0C 0D 0E 0F
      -- -- -- -- -- -- -- --  -- -- -- -- -- -- -- --
01A0: 39 41 80 00                                       9A..            
```

#### Opcodes

```
  0: 0x01A0 [0x39] SET_ENTITY_DIRECTION(direction=16.6°*)
  1: 0x01A3 [0x00] END_REQSTACK()
```

### Event 65535.18

#### Metadata

| Field        | Value    |
|--------------|----------|
| Entrypoint   | 0x01A4   |
| Data Size    | 88 bytes |
| Instructions | 12       |

```
      00 01 02 03 04 05 06 07  08 09 0A 0B 0C 0D 0E 0F
      -- -- -- -- -- -- -- --  -- -- -- -- -- -- -- --
01A0:             1C 42 80 27  04 28 90 0E 01 03 1C 43      .B.'.(.....C
01B0: 80 45 44 80 F0 FF FF 7F  F0 FF FF 7F 79 30 30 36  .ED.........y006
01C0: 0A 80 55 44 80 F0 FF FF  7F F0 FF FF 7F 79 30 30  ..UD.........y00
01D0: 36 45 44 80 F0 FF FF 7F  F0 FF FF 7F 79 30 30 31  6ED.........y001
01E0: 0A 80 55 44 80 F0 FF FF  7F F0 FF FF 7F 79 30 30  ..UD.........y00
01F0: 31 1C 45 80 1E F0 FF FF  7F 6F 70 00              1.E......op.    
```

#### Opcodes

```
  0: 0x01A4 [0x1C] WAIT(150* ticks)
  1: 0x01A7 [0x27] REQ_SET(priority=0x04, entity_id=Door:Prince Royal's Rm (ID: 17731624/0x010E9028), tag_num=0x03)
  2: 0x01AE [0x1C] WAIT(90* ticks)
  3: 0x01B1 [0x45] LOAD_SCHEDULED_TASK: Load scheduler "y006" with entities [LocalPlayer, LocalPlayer], work=[208*, 0*]
  4: 0x01C2 [0x55] WAIT_LOAD_SCHEDULER: Wait for scheduler "y006" with entities [LocalPlayer, LocalPlayer], work=208*
  5: 0x01D1 [0x45] LOAD_SCHEDULED_TASK: Load scheduler "y001" with entities [LocalPlayer, LocalPlayer], work=[208*, 0*]
  6: 0x01E2 [0x55] WAIT_LOAD_SCHEDULER: Wait for scheduler "y001" with entities [LocalPlayer, LocalPlayer], work=208*
  7: 0x01F1 [0x1C] WAIT(10* ticks)
  8: 0x01F4 [0x1E] EventEntity looks at LocalPlayer and starts talking
  9: 0x01F9 [0x6F] WAIT_FRAME_DELAY: Yield until WaitTime reaches zero
 10: 0x01FA [0x70] WAIT_ENTITY_RENDER_FLAG: Wait while EventEntity->Render.Flags3 bit 2 is set (cancel turn if not)
 11: 0x01FB [0x00] END_REQSTACK()
```

### Event 65535.19

#### Metadata

| Field        | Value    |
|--------------|----------|
| Entrypoint   | 0x01FC   |
| Data Size    | 46 bytes |
| Instructions | 6        |

```
      00 01 02 03 04 05 06 07  08 09 0A 0B 0C 0D 0E 0F
      -- -- -- -- -- -- -- --  -- -- -- -- -- -- -- --
01F0:                                      1C 2E 80 27              ...'
0200: 03 28 90 0E 01 03 1C 46  80 45 44 80 F0 FF FF 7F  .(.....F.ED.....
0210: F0 FF FF 7F 78 30 30 31  0A 80 55 44 80 F0 FF FF  ....x001..UD....
0220: 7F F0 FF FF 7F 78 30 30  31 00                    .....x001.      
```

#### Opcodes

```
  0: 0x01FC [0x1C] WAIT(200* ticks)
  1: 0x01FF [0x27] REQ_SET(priority=0x03, entity_id=Door:Prince Royal's Rm (ID: 17731624/0x010E9028), tag_num=0x03)
  2: 0x0206 [0x1C] WAIT(100* ticks)
  3: 0x0209 [0x45] LOAD_SCHEDULED_TASK: Load scheduler "x001" with entities [LocalPlayer, LocalPlayer], work=[208*, 0*]
  4: 0x021A [0x55] WAIT_LOAD_SCHEDULER: Wait for scheduler "x001" with entities [LocalPlayer, LocalPlayer], work=208*
  5: 0x0229 [0x00] END_REQSTACK()
```

### Event 90

#### Metadata

| Field        | Value   |
|--------------|---------|
| Entrypoint   | 0x022A  |
| Data Size    | 1 bytes |
| Instructions | 1       |

```
      00 01 02 03 04 05 06 07  08 09 0A 0B 0C 0D 0E 0F
      -- -- -- -- -- -- -- --  -- -- -- -- -- -- -- --
0220:                                00                           .     
```

#### Opcodes

```
  0: 0x022A [0x00] END_REQSTACK()
```

### Event 91

#### Metadata

| Field        | Value   |
|--------------|---------|
| Entrypoint   | 0x022B  |
| Data Size    | 1 bytes |
| Instructions | 1       |

```
      00 01 02 03 04 05 06 07  08 09 0A 0B 0C 0D 0E 0F
      -- -- -- -- -- -- -- --  -- -- -- -- -- -- -- --
0220:                                   00                         .    
```

#### Opcodes

```
  0: 0x022B [0x00] END_REQSTACK()
```

### Event 89

#### Metadata

| Field        | Value   |
|--------------|---------|
| Entrypoint   | 0x022C  |
| Data Size    | 4 bytes |
| Instructions | 2       |

```
      00 01 02 03 04 05 06 07  08 09 0A 0B 0C 0D 0E 0F
      -- -- -- -- -- -- -- --  -- -- -- -- -- -- -- --
0220:                                      39 41 80 00              9A..
```

#### Opcodes

```
  0: 0x022C [0x39] SET_ENTITY_DIRECTION(direction=16.6°*)
  1: 0x022F [0x00] END_REQSTACK()
```

### Event 65535.20

#### Metadata

| Field        | Value    |
|--------------|----------|
| Entrypoint   | 0x0230   |
| Data Size    | 26 bytes |
| Instructions | 6        |

```
      00 01 02 03 04 05 06 07  08 09 0A 0B 0C 0D 0E 0F
      -- -- -- -- -- -- -- --  -- -- -- -- -- -- -- --
0230: 32 02 80 1F 00 47 80 48  80 3F 80 1F 01 1C 45 80  2....G.H.?....E.
0240: 4A 03 90 0E 01 0C 90 0E  01 00                    J.........      
```

#### Opcodes

```
  0: 0x0230 [0x32] ExtData[1]->MainSpeed = 13* * 0.1
  1: 0x0233 [0x1F] MOVE_ENTITY: EventEntity moves to X=35.269*, Z=0.870*, Y=-2.999*
  2: 0x023B [0x1F] MOVE_ENTITY: Update entity position (mode=1)
  3: 0x023D [0x1C] WAIT(10* ticks)
  4: 0x0240 [0x4A] Trion (ID: 17731587/0x010E9003) looks at Curilla (ID: 17731596/0x010E900C)
  5: 0x0249 [0x00] END_REQSTACK()
```

### Event 65535.21

#### Metadata

| Field        | Value    |
|--------------|----------|
| Entrypoint   | 0x024A   |
| Data Size    | 11 bytes |
| Instructions | 3        |

```
      00 01 02 03 04 05 06 07  08 09 0A 0B 0C 0D 0E 0F
      -- -- -- -- -- -- -- --  -- -- -- -- -- -- -- --
0240:                                1F 00 3D 80 3E 80            ..=.>.
0250: 3F 80 1F 01 00                                    ?....           
```

#### Opcodes

```
  0: 0x024A [0x1F] MOVE_ENTITY: EventEntity moves to X=37.689*, Z=3.259*, Y=-2.999*
  1: 0x0252 [0x1F] MOVE_ENTITY: Update entity position (mode=1)
  2: 0x0254 [0x00] END_REQSTACK()
```

### Event 65535.22

#### Metadata

| Field        | Value    |
|--------------|----------|
| Entrypoint   | 0x0255   |
| Data Size    | 19 bytes |
| Instructions | 3        |

```
      00 01 02 03 04 05 06 07  08 09 0A 0B 0C 0D 0E 0F
      -- -- -- -- -- -- -- --  -- -- -- -- -- -- -- --
0250:                5B 49 80  03 90 0E 01 03 90 0E 01       [I.........
0260: 74 6C 6B 30 1C 4A 80 00                           tlk0.J..        
```

#### Opcodes

```
  0: 0x0255 [0x5B] LOAD_EXT_SCHEDULER: Load scheduler "tlk0" with entities [Trion (ID: 17731587/0x010E9003), Trion (ID: 17731587/0x010E9003)], work=115*
  1: 0x0264 [0x1C] WAIT(30* ticks)
  2: 0x0267 [0x00] END_REQSTACK()
```

### Event 65535.23

#### Metadata

| Field        | Value    |
|--------------|----------|
| Entrypoint   | 0x0268   |
| Data Size    | 29 bytes |
| Instructions | 3        |

```
      00 01 02 03 04 05 06 07  08 09 0A 0B 0C 0D 0E 0F
      -- -- -- -- -- -- -- --  -- -- -- -- -- -- -- --
0260:                          5B 49 80 03 90 0E 01 03          [I......
0270: 90 0E 01 74 6C 6B 31 53  03 90 0E 01 03 90 0E 01  ...tlk1S........
0280: 74 6C 6B 31 00                                    tlk1.           
```

#### Opcodes

```
  0: 0x0268 [0x5B] LOAD_EXT_SCHEDULER: Load scheduler "tlk1" with entities [Trion (ID: 17731587/0x010E9003), Trion (ID: 17731587/0x010E9003)], work=115*
  1: 0x0277 [0x53] WAIT_SCHEDULER_TASK: Wait for scheduler "tlk1" with entities [Trion (ID: 17731587/0x010E9003), Trion (ID: 17731587/0x010E9003)]
  2: 0x0284 [0x00] END_REQSTACK()
```

### Event 65535.24

#### Metadata

| Field        | Value    |
|--------------|----------|
| Entrypoint   | 0x0285   |
| Data Size    | 19 bytes |
| Instructions | 3        |

```
      00 01 02 03 04 05 06 07  08 09 0A 0B 0C 0D 0E 0F
      -- -- -- -- -- -- -- --  -- -- -- -- -- -- -- --
0280:                5B 4B 80  03 90 0E 01 03 90 0E 01       [K.........
0290: 74 68 6B 30 1C 4A 80 00                           thk0.J..        
```

#### Opcodes

```
  0: 0x0285 [0x5B] LOAD_EXT_SCHEDULER: Load scheduler "thk0" with entities [Trion (ID: 17731587/0x010E9003), Trion (ID: 17731587/0x010E9003)], work=116*
  1: 0x0294 [0x1C] WAIT(30* ticks)
  2: 0x0297 [0x00] END_REQSTACK()
```

### Event 65535.25

#### Metadata

| Field        | Value    |
|--------------|----------|
| Entrypoint   | 0x0298   |
| Data Size    | 29 bytes |
| Instructions | 3        |

```
      00 01 02 03 04 05 06 07  08 09 0A 0B 0C 0D 0E 0F
      -- -- -- -- -- -- -- --  -- -- -- -- -- -- -- --
0290:                          5B 4B 80 03 90 0E 01 03          [K......
02A0: 90 0E 01 74 68 6B 31 53  03 90 0E 01 03 90 0E 01  ...thk1S........
02B0: 74 68 6B 31 00                                    thk1.           
```

#### Opcodes

```
  0: 0x0298 [0x5B] LOAD_EXT_SCHEDULER: Load scheduler "thk1" with entities [Trion (ID: 17731587/0x010E9003), Trion (ID: 17731587/0x010E9003)], work=116*
  1: 0x02A7 [0x53] WAIT_SCHEDULER_TASK: Wait for scheduler "thk1" with entities [Trion (ID: 17731587/0x010E9003), Trion (ID: 17731587/0x010E9003)]
  2: 0x02B4 [0x00] END_REQSTACK()
```

### Event 65535.26

#### Metadata

| Field        | Value    |
|--------------|----------|
| Entrypoint   | 0x02B5   |
| Data Size    | 19 bytes |
| Instructions | 3        |

```
      00 01 02 03 04 05 06 07  08 09 0A 0B 0C 0D 0E 0F
      -- -- -- -- -- -- -- --  -- -- -- -- -- -- -- --
02B0:                5B 49 80  03 90 0E 01 03 90 0E 01       [I.........
02C0: 61 72 61 30 1C 4A 80 00                           ara0.J..        
```

#### Opcodes

```
  0: 0x02B5 [0x5B] LOAD_EXT_SCHEDULER: Load scheduler "ara0" with entities [Trion (ID: 17731587/0x010E9003), Trion (ID: 17731587/0x010E9003)], work=115*
  1: 0x02C4 [0x1C] WAIT(30* ticks)
  2: 0x02C7 [0x00] END_REQSTACK()
```

### Event 65535.27

#### Metadata

| Field        | Value    |
|--------------|----------|
| Entrypoint   | 0x02C8   |
| Data Size    | 29 bytes |
| Instructions | 3        |

```
      00 01 02 03 04 05 06 07  08 09 0A 0B 0C 0D 0E 0F
      -- -- -- -- -- -- -- --  -- -- -- -- -- -- -- --
02C0:                          5B 49 80 03 90 0E 01 03          [I......
02D0: 90 0E 01 61 72 61 31 53  03 90 0E 01 03 90 0E 01  ...ara1S........
02E0: 61 72 61 31 00                                    ara1.           
```

#### Opcodes

```
  0: 0x02C8 [0x5B] LOAD_EXT_SCHEDULER: Load scheduler "ara1" with entities [Trion (ID: 17731587/0x010E9003), Trion (ID: 17731587/0x010E9003)], work=115*
  1: 0x02D7 [0x53] WAIT_SCHEDULER_TASK: Wait for scheduler "ara1" with entities [Trion (ID: 17731587/0x010E9003), Trion (ID: 17731587/0x010E9003)]
  2: 0x02E4 [0x00] END_REQSTACK()
```

### Event 65535.28

#### Metadata

| Field        | Value    |
|--------------|----------|
| Entrypoint   | 0x02E5   |
| Data Size    | 29 bytes |
| Instructions | 3        |

```
      00 01 02 03 04 05 06 07  08 09 0A 0B 0C 0D 0E 0F
      -- -- -- -- -- -- -- --  -- -- -- -- -- -- -- --
02E0:                5B 4C 80  03 90 0E 01 03 90 0E 01       [L.........
02F0: 70 61 73 30 53 03 90 0E  01 03 90 0E 01 70 61 73  pas0S........pas
0300: 30 00                                             0.              
```

#### Opcodes

```
  0: 0x02E5 [0x5B] LOAD_EXT_SCHEDULER: Load scheduler "pas0" with entities [Trion (ID: 17731587/0x010E9003), Trion (ID: 17731587/0x010E9003)], work=296*
  1: 0x02F4 [0x53] WAIT_SCHEDULER_TASK: Wait for scheduler "pas0" with entities [Trion (ID: 17731587/0x010E9003), Trion (ID: 17731587/0x010E9003)]
  2: 0x0301 [0x00] END_REQSTACK()
```

### Event 552

#### Metadata

| Field        | Value   |
|--------------|---------|
| Entrypoint   | 0x0302  |
| Data Size    | 1 bytes |
| Instructions | 1       |

```
      00 01 02 03 04 05 06 07  08 09 0A 0B 0C 0D 0E 0F
      -- -- -- -- -- -- -- --  -- -- -- -- -- -- -- --
0300:       00                                            .             
```

#### Opcodes

```
  0: 0x0302 [0x00] END_REQSTACK()
```

### Event 65535.29

#### Metadata

| Field        | Value    |
|--------------|----------|
| Entrypoint   | 0x0303   |
| Data Size    | 34 bytes |
| Instructions | 9        |

```
      00 01 02 03 04 05 06 07  08 09 0A 0B 0C 0D 0E 0F
      -- -- -- -- -- -- -- --  -- -- -- -- -- -- -- --
0300:          22 00 37 4D 80  4E 80 4F 80 50 80 1C 01     ".7M.N.O.P...
0310: 80 32 02 80 1F 00 51 80  52 80 4F 80 1F 01 6F 1E  .2....Q.R.O...o.
0320: 05 90 0E 01 00                                    .....           
```

#### Opcodes

```
  0: 0x0303 [0x22] ENTITY_HIDE_FLAG(enabled=0x00)
  1: 0x0305 [0x37] UPDATE_EVENT_POSITION_AND_DIR: x=-37.463*, z=25.761*, y=-3.764*, direction=264.1°*
  2: 0x030E [0x1C] WAIT(60* ticks)
  3: 0x0311 [0x32] ExtData[1]->MainSpeed = 13* * 0.1
  4: 0x0314 [0x1F] MOVE_ENTITY: EventEntity moves to X=-37.406*, Z=29.365*, Y=-3.764*
  5: 0x031C [0x1F] MOVE_ENTITY: Update entity position (mode=1)
  6: 0x031E [0x6F] WAIT_FRAME_DELAY: Yield until WaitTime reaches zero
  7: 0x031F [0x1E] EventEntity looks at Pieuje (ID: 17731589/0x010E9005) and starts talking
  8: 0x0324 [0x00] END_REQSTACK()
```

### Event 65535.30

#### Metadata

| Field        | Value    |
|--------------|----------|
| Entrypoint   | 0x0325   |
| Data Size    | 28 bytes |
| Instructions | 9        |

```
      00 01 02 03 04 05 06 07  08 09 0A 0B 0C 0D 0E 0F
      -- -- -- -- -- -- -- --  -- -- -- -- -- -- -- --
0320:                6F 70 32  02 80 1F 00 53 80 54 80       op2....S.T.
0330: 15 80 1F 01 1F 00 55 80  56 80 57 80 1F 01 22 01  ......U.V.W...".
0340: 00                                                .               
```

#### Opcodes

```
  0: 0x0325 [0x6F] WAIT_FRAME_DELAY: Yield until WaitTime reaches zero
  1: 0x0326 [0x70] WAIT_ENTITY_RENDER_FLAG: Wait while EventEntity->Render.Flags3 bit 2 is set (cancel turn if not)
  2: 0x0327 [0x32] ExtData[1]->MainSpeed = 13* * 0.1
  3: 0x032A [0x1F] MOVE_ENTITY: EventEntity moves to X=-37.178*, Z=34.010*, Y=-3.000*
  4: 0x0332 [0x1F] MOVE_ENTITY: Update entity position (mode=1)
  5: 0x0334 [0x1F] MOVE_ENTITY: EventEntity moves to X=-36.872*, Z=43.026*, Y=-1.398*
  6: 0x033C [0x1F] MOVE_ENTITY: Update entity position (mode=1)
  7: 0x033E [0x22] ENTITY_HIDE_FLAG(enabled=0x01)
  8: 0x0340 [0x00] END_REQSTACK()
```

### Event 567

#### Metadata

| Field        | Value   |
|--------------|---------|
| Entrypoint   | 0x0341  |
| Data Size    | 1 bytes |
| Instructions | 1       |

```
      00 01 02 03 04 05 06 07  08 09 0A 0B 0C 0D 0E 0F
      -- -- -- -- -- -- -- --  -- -- -- -- -- -- -- --
0340:    00                                              .              
```

#### Opcodes

```
  0: 0x0341 [0x00] END_REQSTACK()
```

### Event 65535.31

#### Metadata

| Field        | Value    |
|--------------|----------|
| Entrypoint   | 0x0342   |
| Data Size    | 16 bytes |
| Instructions | 2        |

```
      00 01 02 03 04 05 06 07  08 09 0A 0B 0C 0D 0E 0F
      -- -- -- -- -- -- -- --  -- -- -- -- -- -- -- --
0340:       5B 49 80 F8 FF FF  7F F8 FF FF 7F 74 6C 6B    [I.........tlk
0350: 30 00                                             0.              
```

#### Opcodes

```
  0: 0x0342 [0x5B] LOAD_EXT_SCHEDULER: Load scheduler "tlk0" with entities [EventEntity, EventEntity], work=115*
  1: 0x0351 [0x00] END_REQSTACK()
```

### Event 65535.32

#### Metadata

| Field        | Value    |
|--------------|----------|
| Entrypoint   | 0x0352   |
| Data Size    | 14 bytes |
| Instructions | 2        |

```
      00 01 02 03 04 05 06 07  08 09 0A 0B 0C 0D 0E 0F
      -- -- -- -- -- -- -- --  -- -- -- -- -- -- -- --
0350:       53 F8 FF FF 7F F8  FF FF 7F 74 6C 6B 30 00    S........tlk0.
```

#### Opcodes

```
  0: 0x0352 [0x53] WAIT_SCHEDULER_TASK: Wait for scheduler "tlk0" with entities [EventEntity, EventEntity]
  1: 0x035F [0x00] END_REQSTACK()
```

### Event 65535.33

#### Metadata

| Field        | Value    |
|--------------|----------|
| Entrypoint   | 0x0360   |
| Data Size    | 16 bytes |
| Instructions | 2        |

```
      00 01 02 03 04 05 06 07  08 09 0A 0B 0C 0D 0E 0F
      -- -- -- -- -- -- -- --  -- -- -- -- -- -- -- --
0360: 5B 49 80 F8 FF FF 7F F8  FF FF 7F 74 6C 6B 31 00  [I.........tlk1.
```

#### Opcodes

```
  0: 0x0360 [0x5B] LOAD_EXT_SCHEDULER: Load scheduler "tlk1" with entities [EventEntity, EventEntity], work=115*
  1: 0x036F [0x00] END_REQSTACK()
```

### Event 65535.34

#### Metadata

| Field        | Value    |
|--------------|----------|
| Entrypoint   | 0x0370   |
| Data Size    | 14 bytes |
| Instructions | 2        |

```
      00 01 02 03 04 05 06 07  08 09 0A 0B 0C 0D 0E 0F
      -- -- -- -- -- -- -- --  -- -- -- -- -- -- -- --
0370: 53 F8 FF FF 7F F8 FF FF  7F 74 6C 6B 31 00        S........tlk1.  
```

#### Opcodes

```
  0: 0x0370 [0x53] WAIT_SCHEDULER_TASK: Wait for scheduler "tlk1" with entities [EventEntity, EventEntity]
  1: 0x037D [0x00] END_REQSTACK()
```

### Event 65535.35

#### Metadata

| Field        | Value    |
|--------------|----------|
| Entrypoint   | 0x037E   |
| Data Size    | 16 bytes |
| Instructions | 2        |

```
      00 01 02 03 04 05 06 07  08 09 0A 0B 0C 0D 0E 0F
      -- -- -- -- -- -- -- --  -- -- -- -- -- -- -- --
0370:                                            5B 49                [I
0380: 80 F8 FF FF 7F F8 FF FF  7F 6C 61 75 30 00        .........lau0.  
```

#### Opcodes

```
  0: 0x037E [0x5B] LOAD_EXT_SCHEDULER: Load scheduler "lau0" with entities [EventEntity, EventEntity], work=115*
  1: 0x038D [0x00] END_REQSTACK()
```

### Event 65535.36

#### Metadata

| Field        | Value    |
|--------------|----------|
| Entrypoint   | 0x038E   |
| Data Size    | 14 bytes |
| Instructions | 2        |

```
      00 01 02 03 04 05 06 07  08 09 0A 0B 0C 0D 0E 0F
      -- -- -- -- -- -- -- --  -- -- -- -- -- -- -- --
0380:                                            53 F8                S.
0390: FF FF 7F F8 FF FF 7F 6C  61 75 30 00              .......lau0.    
```

#### Opcodes

```
  0: 0x038E [0x53] WAIT_SCHEDULER_TASK: Wait for scheduler "lau0" with entities [EventEntity, EventEntity]
  1: 0x039B [0x00] END_REQSTACK()
```

### Event 65535.37

#### Metadata

| Field        | Value    |
|--------------|----------|
| Entrypoint   | 0x039C   |
| Data Size    | 16 bytes |
| Instructions | 2        |

```
      00 01 02 03 04 05 06 07  08 09 0A 0B 0C 0D 0E 0F
      -- -- -- -- -- -- -- --  -- -- -- -- -- -- -- --
0390:                                      5B 49 80 F8              [I..
03A0: FF FF 7F F8 FF FF 7F 6C  61 75 31 00              .......lau1.    
```

#### Opcodes

```
  0: 0x039C [0x5B] LOAD_EXT_SCHEDULER: Load scheduler "lau1" with entities [EventEntity, EventEntity], work=115*
  1: 0x03AB [0x00] END_REQSTACK()
```

### Event 65535.38

#### Metadata

| Field        | Value    |
|--------------|----------|
| Entrypoint   | 0x03AC   |
| Data Size    | 14 bytes |
| Instructions | 2        |

```
      00 01 02 03 04 05 06 07  08 09 0A 0B 0C 0D 0E 0F
      -- -- -- -- -- -- -- --  -- -- -- -- -- -- -- --
03A0:                                      53 F8 FF FF              S...
03B0: 7F F8 FF FF 7F 6C 61 75  31 00                    .....lau1.      
```

#### Opcodes

```
  0: 0x03AC [0x53] WAIT_SCHEDULER_TASK: Wait for scheduler "lau1" with entities [EventEntity, EventEntity]
  1: 0x03B9 [0x00] END_REQSTACK()
```

### Event 65535.39

#### Metadata

| Field        | Value    |
|--------------|----------|
| Entrypoint   | 0x03BA   |
| Data Size    | 16 bytes |
| Instructions | 2        |

```
      00 01 02 03 04 05 06 07  08 09 0A 0B 0C 0D 0E 0F
      -- -- -- -- -- -- -- --  -- -- -- -- -- -- -- --
03B0:                                5B 49 80 F8 FF FF            [I....
03C0: 7F F8 FF FF 7F 61 72 61  30 00                    .....ara0.      
```

#### Opcodes

```
  0: 0x03BA [0x5B] LOAD_EXT_SCHEDULER: Load scheduler "ara0" with entities [EventEntity, EventEntity], work=115*
  1: 0x03C9 [0x00] END_REQSTACK()
```

### Event 65535.40

#### Metadata

| Field        | Value    |
|--------------|----------|
| Entrypoint   | 0x03CA   |
| Data Size    | 14 bytes |
| Instructions | 2        |

```
      00 01 02 03 04 05 06 07  08 09 0A 0B 0C 0D 0E 0F
      -- -- -- -- -- -- -- --  -- -- -- -- -- -- -- --
03C0:                                53 F8 FF FF 7F F8            S.....
03D0: FF FF 7F 61 72 61 30 00                           ...ara0.        
```

#### Opcodes

```
  0: 0x03CA [0x53] WAIT_SCHEDULER_TASK: Wait for scheduler "ara0" with entities [EventEntity, EventEntity]
  1: 0x03D7 [0x00] END_REQSTACK()
```

### Event 65535.41

#### Metadata

| Field        | Value    |
|--------------|----------|
| Entrypoint   | 0x03D8   |
| Data Size    | 16 bytes |
| Instructions | 2        |

```
      00 01 02 03 04 05 06 07  08 09 0A 0B 0C 0D 0E 0F
      -- -- -- -- -- -- -- --  -- -- -- -- -- -- -- --
03D0:                          5B 49 80 F8 FF FF 7F F8          [I......
03E0: FF FF 7F 61 72 61 31 00                           ...ara1.        
```

#### Opcodes

```
  0: 0x03D8 [0x5B] LOAD_EXT_SCHEDULER: Load scheduler "ara1" with entities [EventEntity, EventEntity], work=115*
  1: 0x03E7 [0x00] END_REQSTACK()
```

### Event 65535.42

#### Metadata

| Field        | Value    |
|--------------|----------|
| Entrypoint   | 0x03E8   |
| Data Size    | 14 bytes |
| Instructions | 2        |

```
      00 01 02 03 04 05 06 07  08 09 0A 0B 0C 0D 0E 0F
      -- -- -- -- -- -- -- --  -- -- -- -- -- -- -- --
03E0:                          53 F8 FF FF 7F F8 FF FF          S.......
03F0: 7F 61 72 61 31 00                                 .ara1.          
```

#### Opcodes

```
  0: 0x03E8 [0x53] WAIT_SCHEDULER_TASK: Wait for scheduler "ara1" with entities [EventEntity, EventEntity]
  1: 0x03F5 [0x00] END_REQSTACK()
```

### Event 65535.43

#### Metadata

| Field        | Value    |
|--------------|----------|
| Entrypoint   | 0x03F6   |
| Data Size    | 16 bytes |
| Instructions | 2        |

```
      00 01 02 03 04 05 06 07  08 09 0A 0B 0C 0D 0E 0F
      -- -- -- -- -- -- -- --  -- -- -- -- -- -- -- --
03F0:                   5B 4B  80 F8 FF FF 7F F8 FF FF        [K........
0400: 7F 70 75 69 30 00                                 .pui0.          
```

#### Opcodes

```
  0: 0x03F6 [0x5B] LOAD_EXT_SCHEDULER: Load scheduler "pui0" with entities [EventEntity, EventEntity], work=116*
  1: 0x0405 [0x00] END_REQSTACK()
```

### Event 65535.44

#### Metadata

| Field        | Value    |
|--------------|----------|
| Entrypoint   | 0x0406   |
| Data Size    | 14 bytes |
| Instructions | 2        |

```
      00 01 02 03 04 05 06 07  08 09 0A 0B 0C 0D 0E 0F
      -- -- -- -- -- -- -- --  -- -- -- -- -- -- -- --
0400:                   53 F8  FF FF 7F F8 FF FF 7F 70        S........p
0410: 75 69 30 00                                       ui0.            
```

#### Opcodes

```
  0: 0x0406 [0x53] WAIT_SCHEDULER_TASK: Wait for scheduler "pui0" with entities [EventEntity, EventEntity]
  1: 0x0413 [0x00] END_REQSTACK()
```

### Event 65535.45

#### Metadata

| Field        | Value    |
|--------------|----------|
| Entrypoint   | 0x0414   |
| Data Size    | 16 bytes |
| Instructions | 2        |

```
      00 01 02 03 04 05 06 07  08 09 0A 0B 0C 0D 0E 0F
      -- -- -- -- -- -- -- --  -- -- -- -- -- -- -- --
0410:             5B 4B 80 F8  FF FF 7F F8 FF FF 7F 70      [K.........p
0420: 75 69 31 00                                       ui1.            
```

#### Opcodes

```
  0: 0x0414 [0x5B] LOAD_EXT_SCHEDULER: Load scheduler "pui1" with entities [EventEntity, EventEntity], work=116*
  1: 0x0423 [0x00] END_REQSTACK()
```

### Event 65535.46

#### Metadata

| Field        | Value    |
|--------------|----------|
| Entrypoint   | 0x0424   |
| Data Size    | 14 bytes |
| Instructions | 2        |

```
      00 01 02 03 04 05 06 07  08 09 0A 0B 0C 0D 0E 0F
      -- -- -- -- -- -- -- --  -- -- -- -- -- -- -- --
0420:             53 F8 FF FF  7F F8 FF FF 7F 70 75 69      S........pui
0430: 31 00                                             1.              
```

#### Opcodes

```
  0: 0x0424 [0x53] WAIT_SCHEDULER_TASK: Wait for scheduler "pui1" with entities [EventEntity, EventEntity]
  1: 0x0431 [0x00] END_REQSTACK()
```

### Event 65535.47

#### Metadata

| Field        | Value    |
|--------------|----------|
| Entrypoint   | 0x0432   |
| Data Size    | 16 bytes |
| Instructions | 2        |

```
      00 01 02 03 04 05 06 07  08 09 0A 0B 0C 0D 0E 0F
      -- -- -- -- -- -- -- --  -- -- -- -- -- -- -- --
0430:       5B 4B 80 F8 FF FF  7F F8 FF FF 7F 74 68 6B    [K.........thk
0440: 30 00                                             0.              
```

#### Opcodes

```
  0: 0x0432 [0x5B] LOAD_EXT_SCHEDULER: Load scheduler "thk0" with entities [EventEntity, EventEntity], work=116*
  1: 0x0441 [0x00] END_REQSTACK()
```

### Event 65535.48

#### Metadata

| Field        | Value    |
|--------------|----------|
| Entrypoint   | 0x0442   |
| Data Size    | 14 bytes |
| Instructions | 2        |

```
      00 01 02 03 04 05 06 07  08 09 0A 0B 0C 0D 0E 0F
      -- -- -- -- -- -- -- --  -- -- -- -- -- -- -- --
0440:       53 F8 FF FF 7F F8  FF FF 7F 74 68 6B 30 00    S........thk0.
```

#### Opcodes

```
  0: 0x0442 [0x53] WAIT_SCHEDULER_TASK: Wait for scheduler "thk0" with entities [EventEntity, EventEntity]
  1: 0x044F [0x00] END_REQSTACK()
```

### Event 65535.49

#### Metadata

| Field        | Value    |
|--------------|----------|
| Entrypoint   | 0x0450   |
| Data Size    | 16 bytes |
| Instructions | 2        |

```
      00 01 02 03 04 05 06 07  08 09 0A 0B 0C 0D 0E 0F
      -- -- -- -- -- -- -- --  -- -- -- -- -- -- -- --
0450: 5B 4B 80 F8 FF FF 7F F8  FF FF 7F 74 68 6B 31 00  [K.........thk1.
```

#### Opcodes

```
  0: 0x0450 [0x5B] LOAD_EXT_SCHEDULER: Load scheduler "thk1" with entities [EventEntity, EventEntity], work=116*
  1: 0x045F [0x00] END_REQSTACK()
```

### Event 65535.50

#### Metadata

| Field        | Value    |
|--------------|----------|
| Entrypoint   | 0x0460   |
| Data Size    | 14 bytes |
| Instructions | 2        |

```
      00 01 02 03 04 05 06 07  08 09 0A 0B 0C 0D 0E 0F
      -- -- -- -- -- -- -- --  -- -- -- -- -- -- -- --
0460: 53 F8 FF FF 7F F8 FF FF  7F 74 68 6B 31 00        S........thk1.  
```

#### Opcodes

```
  0: 0x0460 [0x53] WAIT_SCHEDULER_TASK: Wait for scheduler "thk1" with entities [EventEntity, EventEntity]
  1: 0x046D [0x00] END_REQSTACK()
```

### Event 65535.51

#### Metadata

| Field        | Value    |
|--------------|----------|
| Entrypoint   | 0x046E   |
| Data Size    | 16 bytes |
| Instructions | 2        |

```
      00 01 02 03 04 05 06 07  08 09 0A 0B 0C 0D 0E 0F
      -- -- -- -- -- -- -- --  -- -- -- -- -- -- -- --
0460:                                            5B 4B                [K
0470: 80 F8 FF FF 7F F8 FF FF  7F 70 61 73 30 00        .........pas0.  
```

#### Opcodes

```
  0: 0x046E [0x5B] LOAD_EXT_SCHEDULER: Load scheduler "pas0" with entities [EventEntity, EventEntity], work=116*
  1: 0x047D [0x00] END_REQSTACK()
```

### Event 65535.52

#### Metadata

| Field        | Value    |
|--------------|----------|
| Entrypoint   | 0x047E   |
| Data Size    | 14 bytes |
| Instructions | 2        |

```
      00 01 02 03 04 05 06 07  08 09 0A 0B 0C 0D 0E 0F
      -- -- -- -- -- -- -- --  -- -- -- -- -- -- -- --
0470:                                            53 F8                S.
0480: FF FF 7F F8 FF FF 7F 70  61 73 30 00              .......pas0.    
```

#### Opcodes

```
  0: 0x047E [0x53] WAIT_SCHEDULER_TASK: Wait for scheduler "pas0" with entities [EventEntity, EventEntity]
  1: 0x048B [0x00] END_REQSTACK()
```

### Event 65535.53

#### Metadata

| Field        | Value    |
|--------------|----------|
| Entrypoint   | 0x048C   |
| Data Size    | 16 bytes |
| Instructions | 2        |

```
      00 01 02 03 04 05 06 07  08 09 0A 0B 0C 0D 0E 0F
      -- -- -- -- -- -- -- --  -- -- -- -- -- -- -- --
0480:                                      5B 4B 80 F8              [K..
0490: FF FF 7F F8 FF FF 7F 61  63 74 30 00              .......act0.    
```

#### Opcodes

```
  0: 0x048C [0x5B] LOAD_EXT_SCHEDULER: Load scheduler "act0" with entities [EventEntity, EventEntity], work=116*
  1: 0x049B [0x00] END_REQSTACK()
```

### Event 65535.54

#### Metadata

| Field        | Value    |
|--------------|----------|
| Entrypoint   | 0x049C   |
| Data Size    | 14 bytes |
| Instructions | 2        |

```
      00 01 02 03 04 05 06 07  08 09 0A 0B 0C 0D 0E 0F
      -- -- -- -- -- -- -- --  -- -- -- -- -- -- -- --
0490:                                      53 F8 FF FF              S...
04A0: 7F F8 FF FF 7F 61 63 74  30 00                    .....act0.      
```

#### Opcodes

```
  0: 0x049C [0x53] WAIT_SCHEDULER_TASK: Wait for scheduler "act0" with entities [EventEntity, EventEntity]
  1: 0x04A9 [0x00] END_REQSTACK()
```

### Event 65535.55

#### Metadata

| Field        | Value    |
|--------------|----------|
| Entrypoint   | 0x04AA   |
| Data Size    | 29 bytes |
| Instructions | 3        |

```
      00 01 02 03 04 05 06 07  08 09 0A 0B 0C 0D 0E 0F
      -- -- -- -- -- -- -- --  -- -- -- -- -- -- -- --
04A0:                                5B 58 80 F8 FF FF            [X....
04B0: 7F F8 FF FF 7F 6B 6B 67  30 53 F8 FF FF 7F F8 FF  .....kkg0S......
04C0: FF 7F 6B 6B 67 30 00                              ..kkg0.         
```

#### Opcodes

```
  0: 0x04AA [0x5B] LOAD_EXT_SCHEDULER: Load scheduler "kkg0" with entities [EventEntity, EventEntity], work=118*
  1: 0x04B9 [0x53] WAIT_SCHEDULER_TASK: Wait for scheduler "kkg0" with entities [EventEntity, EventEntity]
  2: 0x04C6 [0x00] END_REQSTACK()
```

### Event 65535.56

#### Metadata

| Field        | Value    |
|--------------|----------|
| Entrypoint   | 0x04C7   |
| Data Size    | 29 bytes |
| Instructions | 3        |

```
      00 01 02 03 04 05 06 07  08 09 0A 0B 0C 0D 0E 0F
      -- -- -- -- -- -- -- --  -- -- -- -- -- -- -- --
04C0:                      5B  58 80 F8 FF FF 7F F8 FF         [X.......
04D0: FF 7F 6B 6B 67 31 53 F8  FF FF 7F F8 FF FF 7F 6B  ..kkg1S........k
04E0: 6B 67 31 00                                       kg1.            
```

#### Opcodes

```
  0: 0x04C7 [0x5B] LOAD_EXT_SCHEDULER: Load scheduler "kkg1" with entities [EventEntity, EventEntity], work=118*
  1: 0x04D6 [0x53] WAIT_SCHEDULER_TASK: Wait for scheduler "kkg1" with entities [EventEntity, EventEntity]
  2: 0x04E3 [0x00] END_REQSTACK()
```

### Event 65535.57

#### Metadata

| Field        | Value    |
|--------------|----------|
| Entrypoint   | 0x04E4   |
| Data Size    | 29 bytes |
| Instructions | 3        |

```
      00 01 02 03 04 05 06 07  08 09 0A 0B 0C 0D 0E 0F
      -- -- -- -- -- -- -- --  -- -- -- -- -- -- -- --
04E0:             5B 58 80 F8  FF FF 7F F8 FF FF 7F 6B      [X.........k
04F0: 6B 67 32 53 F8 FF FF 7F  F8 FF FF 7F 6B 6B 67 32  kg2S........kkg2
0500: 00                                                .               
```

#### Opcodes

```
  0: 0x04E4 [0x5B] LOAD_EXT_SCHEDULER: Load scheduler "kkg2" with entities [EventEntity, EventEntity], work=118*
  1: 0x04F3 [0x53] WAIT_SCHEDULER_TASK: Wait for scheduler "kkg2" with entities [EventEntity, EventEntity]
  2: 0x0500 [0x00] END_REQSTACK()
```

### Event 65535.58

#### Metadata

| Field        | Value    |
|--------------|----------|
| Entrypoint   | 0x0501   |
| Data Size    | 16 bytes |
| Instructions | 2        |

```
      00 01 02 03 04 05 06 07  08 09 0A 0B 0C 0D 0E 0F
      -- -- -- -- -- -- -- --  -- -- -- -- -- -- -- --
0500:    5B 59 80 F8 FF FF 7F  F8 FF FF 7F 69 6E 30 30   [Y.........in00
0510: 00                                                .               
```

#### Opcodes

```
  0: 0x0501 [0x5B] LOAD_EXT_SCHEDULER: Load scheduler "in00" with entities [EventEntity, EventEntity], work=117*
  1: 0x0510 [0x00] END_REQSTACK()
```

### Event 65535.59

#### Metadata

| Field        | Value    |
|--------------|----------|
| Entrypoint   | 0x0511   |
| Data Size    | 14 bytes |
| Instructions | 2        |

```
      00 01 02 03 04 05 06 07  08 09 0A 0B 0C 0D 0E 0F
      -- -- -- -- -- -- -- --  -- -- -- -- -- -- -- --
0510:    53 F8 FF FF 7F F8 FF  FF 7F 69 6E 30 30 00      S........in00. 
```

#### Opcodes

```
  0: 0x0511 [0x53] WAIT_SCHEDULER_TASK: Wait for scheduler "in00" with entities [EventEntity, EventEntity]
  1: 0x051E [0x00] END_REQSTACK()
```

### Event 553

#### Metadata

| Field        | Value   |
|--------------|---------|
| Entrypoint   | 0x051F  |
| Data Size    | 1 bytes |
| Instructions | 1       |

```
      00 01 02 03 04 05 06 07  08 09 0A 0B 0C 0D 0E 0F
      -- -- -- -- -- -- -- --  -- -- -- -- -- -- -- --
0510:                                               00                 .
```

#### Opcodes

```
  0: 0x051F [0x00] END_REQSTACK()
```

### Event 65535.60

#### Metadata

| Field        | Value    |
|--------------|----------|
| Entrypoint   | 0x0520   |
| Data Size    | 10 bytes |
| Instructions | 2        |

```
      00 01 02 03 04 05 06 07  08 09 0A 0B 0C 0D 0E 0F
      -- -- -- -- -- -- -- --  -- -- -- -- -- -- -- --
0520: 37 38 80 5A 80 05 80 5B  80 00                    78.Z...[..      
```

#### Opcodes

```
  0: 0x0520 [0x37] UPDATE_EVENT_POSITION_AND_DIR: x=-38.000*, z=88.306*, y=-3.749*, direction=346.5°*
  1: 0x0529 [0x00] END_REQSTACK()
```

### Event 65535.61

#### Metadata

| Field        | Value    |
|--------------|----------|
| Entrypoint   | 0x052A   |
| Data Size    | 14 bytes |
| Instructions | 4        |

```
      00 01 02 03 04 05 06 07  08 09 0A 0B 0C 0D 0E 0F
      -- -- -- -- -- -- -- --  -- -- -- -- -- -- -- --
0520:                                32 02 80 1F 00 38            2....8
0530: 80 5C 80 05 80 1F 01 00                           .\......        
```

#### Opcodes

```
  0: 0x052A [0x32] ExtData[1]->MainSpeed = 13* * 0.1
  1: 0x052D [0x1F] MOVE_ENTITY: EventEntity moves to X=-38.000*, Z=84.419*, Y=-3.749*
  2: 0x0535 [0x1F] MOVE_ENTITY: Update entity position (mode=1)
  3: 0x0537 [0x00] END_REQSTACK()
```

### Event 65535.62

#### Metadata

| Field        | Value    |
|--------------|----------|
| Entrypoint   | 0x0538   |
| Data Size    | 14 bytes |
| Instructions | 4        |

```
      00 01 02 03 04 05 06 07  08 09 0A 0B 0C 0D 0E 0F
      -- -- -- -- -- -- -- --  -- -- -- -- -- -- -- --
0530:                          32 02 80 1F 00 5D 80 5C          2....].\
0540: 80 05 80 1F 01 00                                 ......          
```

#### Opcodes

```
  0: 0x0538 [0x32] ExtData[1]->MainSpeed = 13* * 0.1
  1: 0x053B [0x1F] MOVE_ENTITY: EventEntity moves to X=-37.000*, Z=84.419*, Y=-3.749*
  2: 0x0543 [0x1F] MOVE_ENTITY: Update entity position (mode=1)
  3: 0x0545 [0x00] END_REQSTACK()
```

### Event 65535.63

#### Metadata

| Field        | Value   |
|--------------|---------|
| Entrypoint   | 0x0546  |
| Data Size    | 5 bytes |
| Instructions | 3       |

```
      00 01 02 03 04 05 06 07  08 09 0A 0B 0C 0D 0E 0F
      -- -- -- -- -- -- -- --  -- -- -- -- -- -- -- --
0540:                   1D 5E  80 23 00                       .^.#.     
```

#### Opcodes

```
  0: 0x0546 [0x1D] PRINT_EVENT_MESSAGE(message_id=7605*)
    → "<Player>! Many are those who speak of your triumphs in the name of San d'Oria!"
  1: 0x0549 [0x23] WAIT_FOR_DIALOG_INTERACTION
  2: 0x054A [0x00] END_REQSTACK()
```

### Event 65535.64

#### Metadata

| Field        | Value   |
|--------------|---------|
| Entrypoint   | 0x054B  |
| Data Size    | 5 bytes |
| Instructions | 3       |

```
      00 01 02 03 04 05 06 07  08 09 0A 0B 0C 0D 0E 0F
      -- -- -- -- -- -- -- --  -- -- -- -- -- -- -- --
0540:                                   1D 5F 80 23 00             ._.#.
```

#### Opcodes

```
  0: 0x054B [0x1D] PRINT_EVENT_MESSAGE(message_id=7606*)
    → "And much have I heard of your journeys abroad, and how you fought nether beasts in the lair of the enemy."
  1: 0x054E [0x23] WAIT_FOR_DIALOG_INTERACTION
  2: 0x054F [0x00] END_REQSTACK()
```

### Event 65535.65

#### Metadata

| Field        | Value   |
|--------------|---------|
| Entrypoint   | 0x0550  |
| Data Size    | 5 bytes |
| Instructions | 3       |

```
      00 01 02 03 04 05 06 07  08 09 0A 0B 0C 0D 0E 0F
      -- -- -- -- -- -- -- --  -- -- -- -- -- -- -- --
0550: 1D 60 80 23 00                                    .`.#.           
```

#### Opcodes

```
  0: 0x0550 [0x1D] PRINT_EVENT_MESSAGE(message_id=7607*)
    → "So the return of the Shadow Lord is at hand. Perhaps never will the hand of evil be banished from this world."
  1: 0x0553 [0x23] WAIT_FOR_DIALOG_INTERACTION
  2: 0x0554 [0x00] END_REQSTACK()
```

### Event 65535.66

#### Metadata

| Field        | Value   |
|--------------|---------|
| Entrypoint   | 0x0555  |
| Data Size    | 5 bytes |
| Instructions | 3       |

```
      00 01 02 03 04 05 06 07  08 09 0A 0B 0C 0D 0E 0F
      -- -- -- -- -- -- -- --  -- -- -- -- -- -- -- --
0550:                1D 61 80  23 00                         .a.#.      
```

#### Opcodes

```
  0: 0x0555 [0x1D] PRINT_EVENT_MESSAGE(message_id=7608*)
    → "But always will the righteous stand up to face it. Am I not right, <Player>?"
  1: 0x0558 [0x23] WAIT_FOR_DIALOG_INTERACTION
  2: 0x0559 [0x00] END_REQSTACK()
```

### Event 65535.67

#### Metadata

| Field        | Value   |
|--------------|---------|
| Entrypoint   | 0x055A  |
| Data Size    | 5 bytes |
| Instructions | 3       |

```
      00 01 02 03 04 05 06 07  08 09 0A 0B 0C 0D 0E 0F
      -- -- -- -- -- -- -- --  -- -- -- -- -- -- -- --
0550:                                1D 62 80 23 00               .b.#. 
```

#### Opcodes

```
  0: 0x055A [0x1D] PRINT_EVENT_MESSAGE(message_id=7609*)
    → "The Royal Knights have but a single purpose: to exterminate the Orcs who ravage our lands!"
  1: 0x055D [0x23] WAIT_FOR_DIALOG_INTERACTION
  2: 0x055E [0x00] END_REQSTACK()
```

### Event 65535.68

#### Metadata

| Field        | Value   |
|--------------|---------|
| Entrypoint   | 0x055F  |
| Data Size    | 5 bytes |
| Instructions | 3       |

```
      00 01 02 03 04 05 06 07  08 09 0A 0B 0C 0D 0E 0F
      -- -- -- -- -- -- -- --  -- -- -- -- -- -- -- --
0550:                                               1D                 .
0560: 63 80 23 00                                       c.#.            
```

#### Opcodes

```
  0: 0x055F [0x1D] PRINT_EVENT_MESSAGE(message_id=7610*)
    → "We have sent scouts already to the Orcish stronghold of Davoi."
  1: 0x0562 [0x23] WAIT_FOR_DIALOG_INTERACTION
  2: 0x0563 [0x00] END_REQSTACK()
```

### Event 65535.69

#### Metadata

| Field        | Value   |
|--------------|---------|
| Entrypoint   | 0x0564  |
| Data Size    | 5 bytes |
| Instructions | 3       |

```
      00 01 02 03 04 05 06 07  08 09 0A 0B 0C 0D 0E 0F
      -- -- -- -- -- -- -- --  -- -- -- -- -- -- -- --
0560:             1D 64 80 23  00                           .d.#.       
```

#### Opcodes

```
  0: 0x0564 [0x1D] PRINT_EVENT_MESSAGE(message_id=7611*)
    → "They are to report on the Orcs' numbers, map the territory, and find their lines of supply. Once such knowledge is ours, we shall strike."
  1: 0x0567 [0x23] WAIT_FOR_DIALOG_INTERACTION
  2: 0x0568 [0x00] END_REQSTACK()
```

### Event 65535.70

#### Metadata

| Field        | Value   |
|--------------|---------|
| Entrypoint   | 0x0569  |
| Data Size    | 5 bytes |
| Instructions | 3       |

```
      00 01 02 03 04 05 06 07  08 09 0A 0B 0C 0D 0E 0F
      -- -- -- -- -- -- -- --  -- -- -- -- -- -- -- --
0560:                             1D 65 80 23 00                 .e.#.  
```

#### Opcodes

```
  0: 0x0569 [0x1D] PRINT_EVENT_MESSAGE(message_id=7612*)
    → "But, the scouts' report has not yet arrived! What could this mean?"
  1: 0x056C [0x23] WAIT_FOR_DIALOG_INTERACTION
  2: 0x056D [0x00] END_REQSTACK()
```

### Event 65535.71

#### Metadata

| Field        | Value   |
|--------------|---------|
| Entrypoint   | 0x056E  |
| Data Size    | 5 bytes |
| Instructions | 3       |

```
      00 01 02 03 04 05 06 07  08 09 0A 0B 0C 0D 0E 0F
      -- -- -- -- -- -- -- --  -- -- -- -- -- -- -- --
0560:                                            1D 66                .f
0570: 80 23 00                                          .#.             
```

#### Opcodes

```
  0: 0x056E [0x1D] PRINT_EVENT_MESSAGE(message_id=7613*)
    → "What? The Temple Knights have also sent scouts to Davoi? On whose orders?"
  1: 0x0571 [0x23] WAIT_FOR_DIALOG_INTERACTION
  2: 0x0572 [0x00] END_REQSTACK()
```

### Event 65535.72

#### Metadata

| Field        | Value   |
|--------------|---------|
| Entrypoint   | 0x0573  |
| Data Size    | 5 bytes |
| Instructions | 3       |

```
      00 01 02 03 04 05 06 07  08 09 0A 0B 0C 0D 0E 0F
      -- -- -- -- -- -- -- --  -- -- -- -- -- -- -- --
0570:          1D 67 80 23 00                              .g.#.        
```

#### Opcodes

```
  0: 0x0573 [0x1D] PRINT_EVENT_MESSAGE(message_id=7614*)
    → "Pieuje. I knew it! What madness has made him do this?"
  1: 0x0576 [0x23] WAIT_FOR_DIALOG_INTERACTION
  2: 0x0577 [0x00] END_REQSTACK()
```

### Event 65535.73

#### Metadata

| Field        | Value   |
|--------------|---------|
| Entrypoint   | 0x0578  |
| Data Size    | 5 bytes |
| Instructions | 3       |

```
      00 01 02 03 04 05 06 07  08 09 0A 0B 0C 0D 0E 0F
      -- -- -- -- -- -- -- --  -- -- -- -- -- -- -- --
0570:                          1D 68 80 23 00                   .h.#.   
```

#### Opcodes

```
  0: 0x0578 [0x1D] PRINT_EVENT_MESSAGE(message_id=7615*)
    → "But, we must not be dismayed. <Player>, I want you to head to Davoi straight away."
  1: 0x057B [0x23] WAIT_FOR_DIALOG_INTERACTION
  2: 0x057C [0x00] END_REQSTACK()
```

### Event 65535.74

#### Metadata

| Field        | Value   |
|--------------|---------|
| Entrypoint   | 0x057D  |
| Data Size    | 5 bytes |
| Instructions | 3       |

```
      00 01 02 03 04 05 06 07  08 09 0A 0B 0C 0D 0E 0F
      -- -- -- -- -- -- -- --  -- -- -- -- -- -- -- --
0570:                                         1D 69 80               .i.
0580: 23 00                                             #.              
```

#### Opcodes

```
  0: 0x057D [0x1D] PRINT_EVENT_MESSAGE(message_id=7616*)
    → "Seek the Royal Knight Quemaricond and take his $3. Now, make haste!"
  1: 0x0580 [0x23] WAIT_FOR_DIALOG_INTERACTION
  2: 0x0581 [0x00] END_REQSTACK()
```

### Event 554

#### Metadata

| Field        | Value   |
|--------------|---------|
| Entrypoint   | 0x0582  |
| Data Size    | 1 bytes |
| Instructions | 1       |

```
      00 01 02 03 04 05 06 07  08 09 0A 0B 0C 0D 0E 0F
      -- -- -- -- -- -- -- --  -- -- -- -- -- -- -- --
0580:       00                                            .             
```

#### Opcodes

```
  0: 0x0582 [0x00] END_REQSTACK()
```

### Event 65535.75

#### Metadata

| Field        | Value    |
|--------------|----------|
| Entrypoint   | 0x0583   |
| Data Size    | 10 bytes |
| Instructions | 2        |

```
      00 01 02 03 04 05 06 07  08 09 0A 0B 0C 0D 0E 0F
      -- -- -- -- -- -- -- --  -- -- -- -- -- -- -- --
0580:          37 38 80 6A 80  05 80 6B 80 00              78.j...k..   
```

#### Opcodes

```
  0: 0x0583 [0x37] UPDATE_EVENT_POSITION_AND_DIR: x=-38.000*, z=85.706*, y=-3.749*, direction=90.0°*
  1: 0x058C [0x00] END_REQSTACK()
```

### Event 65535.76

#### Metadata

| Field        | Value    |
|--------------|----------|
| Entrypoint   | 0x058D   |
| Data Size    | 23 bytes |
| Instructions | 5        |

```
      00 01 02 03 04 05 06 07  08 09 0A 0B 0C 0D 0E 0F
      -- -- -- -- -- -- -- --  -- -- -- -- -- -- -- --
0580:                                         32 02 80               2..
0590: 37 38 80 6C 80 05 80 6B  80 1F 00 38 80 6D 80 6E  78.l...k...8.m.n
05A0: 80 1F 01 00                                       ....            
```

#### Opcodes

```
  0: 0x058D [0x32] ExtData[1]->MainSpeed = 13* * 0.1
  1: 0x0590 [0x37] UPDATE_EVENT_POSITION_AND_DIR: x=-38.000*, z=82.419*, y=-3.749*, direction=90.0°*
  2: 0x0599 [0x1F] MOVE_ENTITY: EventEntity moves to X=-38.000*, Z=77.032*, Y=-3.751*
  3: 0x05A1 [0x1F] MOVE_ENTITY: Update entity position (mode=1)
  4: 0x05A3 [0x00] END_REQSTACK()
```

### Event 65535.77

#### Metadata

| Field        | Value    |
|--------------|----------|
| Entrypoint   | 0x05A4   |
| Data Size    | 14 bytes |
| Instructions | 4        |

```
      00 01 02 03 04 05 06 07  08 09 0A 0B 0C 0D 0E 0F
      -- -- -- -- -- -- -- --  -- -- -- -- -- -- -- --
05A0:             32 02 80 1F  00 38 80 6F 80 6E 80 1F      2....8.o.n..
05B0: 01 00                                             ..              
```

#### Opcodes

```
  0: 0x05A4 [0x32] ExtData[1]->MainSpeed = 13* * 0.1
  1: 0x05A7 [0x1F] MOVE_ENTITY: EventEntity moves to X=-38.000*, Z=74.032*, Y=-3.751*
  2: 0x05AF [0x1F] MOVE_ENTITY: Update entity position (mode=1)
  3: 0x05B1 [0x00] END_REQSTACK()
```

### Event 65535.78

#### Metadata

| Field        | Value    |
|--------------|----------|
| Entrypoint   | 0x05B2   |
| Data Size    | 29 bytes |
| Instructions | 5        |

```
      00 01 02 03 04 05 06 07  08 09 0A 0B 0C 0D 0E 0F
      -- -- -- -- -- -- -- --  -- -- -- -- -- -- -- --
05B0:       29 0A 03 90 0E 01  45 29 0A 03 90 0E 01 46    ).....E).....F
05C0: 29 0A 03 90 0E 01 47 29  0A 03 90 0E 01 48 00     ).....G).....H. 
```

#### Opcodes

```
  0: 0x05B2 [0x29] REQ_SET_WAIT(priority=0x0A, entity_id=Trion (ID: 17731587/0x010E9003), tag_num=0x45)
  1: 0x05B9 [0x29] REQ_SET_WAIT(priority=0x0A, entity_id=Trion (ID: 17731587/0x010E9003), tag_num=0x46)
  2: 0x05C0 [0x29] REQ_SET_WAIT(priority=0x0A, entity_id=Trion (ID: 17731587/0x010E9003), tag_num=0x47)
  3: 0x05C7 [0x29] REQ_SET_WAIT(priority=0x0A, entity_id=Trion (ID: 17731587/0x010E9003), tag_num=0x48)
  4: 0x05CE [0x00] END_REQSTACK()
```

### Event 65535.79

#### Metadata

| Field        | Value   |
|--------------|---------|
| Entrypoint   | 0x05CF  |
| Data Size    | 5 bytes |
| Instructions | 3       |

```
      00 01 02 03 04 05 06 07  08 09 0A 0B 0C 0D 0E 0F
      -- -- -- -- -- -- -- --  -- -- -- -- -- -- -- --
05C0:                                               1D                 .
05D0: 70 80 23 00                                       p.#.            
```

#### Opcodes

```
  0: 0x05CF [0x1D] PRINT_EVENT_MESSAGE(message_id=7617*)
    → "You're back! Quick, show me the $3."
  1: 0x05D2 [0x23] WAIT_FOR_DIALOG_INTERACTION
  2: 0x05D3 [0x00] END_REQSTACK()
```

### Event 65535.80

#### Metadata

| Field        | Value   |
|--------------|---------|
| Entrypoint   | 0x05D4  |
| Data Size    | 5 bytes |
| Instructions | 3       |

```
      00 01 02 03 04 05 06 07  08 09 0A 0B 0C 0D 0E 0F
      -- -- -- -- -- -- -- --  -- -- -- -- -- -- -- --
05D0:             1D 71 80 23  00                           .q.#.       
```

#### Opcodes

```
  0: 0x05D4 [0x1D] PRINT_EVENT_MESSAGE(message_id=7618*)
    → "What a report! We must send troops immediately!"
  1: 0x05D7 [0x23] WAIT_FOR_DIALOG_INTERACTION
  2: 0x05D8 [0x00] END_REQSTACK()
```

### Event 65535.81

#### Metadata

| Field        | Value   |
|--------------|---------|
| Entrypoint   | 0x05D9  |
| Data Size    | 5 bytes |
| Instructions | 3       |

```
      00 01 02 03 04 05 06 07  08 09 0A 0B 0C 0D 0E 0F
      -- -- -- -- -- -- -- --  -- -- -- -- -- -- -- --
05D0:                             1D 72 80 23 00                 .r.#.  
```

#### Opcodes

```
  0: 0x05D9 [0x1D] PRINT_EVENT_MESSAGE(message_id=7619*)
    → "No, but wait... This matter requires more than Royal Knights... Confound it! We need Temple Knights as well!"
  1: 0x05DC [0x23] WAIT_FOR_DIALOG_INTERACTION
  2: 0x05DD [0x00] END_REQSTACK()
```

### Event 65535.82

#### Metadata

| Field        | Value   |
|--------------|---------|
| Entrypoint   | 0x05DE  |
| Data Size    | 5 bytes |
| Instructions | 3       |

```
      00 01 02 03 04 05 06 07  08 09 0A 0B 0C 0D 0E 0F
      -- -- -- -- -- -- -- --  -- -- -- -- -- -- -- --
05D0:                                            1D 73                .s
05E0: 80 23 00                                          .#.             
```

#### Opcodes

```
  0: 0x05DE [0x1D] PRINT_EVENT_MESSAGE(message_id=7620*)
    → "Perfaumand! Where are Pieuje and Curilla?"
  1: 0x05E1 [0x23] WAIT_FOR_DIALOG_INTERACTION
  2: 0x05E2 [0x00] END_REQSTACK()
```

### Event 65535.83

#### Metadata

| Field        | Value   |
|--------------|---------|
| Entrypoint   | 0x05E3  |
| Data Size    | 5 bytes |
| Instructions | 3       |

```
      00 01 02 03 04 05 06 07  08 09 0A 0B 0C 0D 0E 0F
      -- -- -- -- -- -- -- --  -- -- -- -- -- -- -- --
05E0:          1D 74 80 23 00                              .t.#.        
```

#### Opcodes

```
  0: 0x05E3 [0x1D] PRINT_EVENT_MESSAGE(message_id=7622*)
    → "<Player>, your mission is over. Thank you!"
  1: 0x05E6 [0x23] WAIT_FOR_DIALOG_INTERACTION
  2: 0x05E7 [0x00] END_REQSTACK()
```

### Event 574

#### Metadata

| Field        | Value   |
|--------------|---------|
| Entrypoint   | 0x05E8  |
| Data Size    | 1 bytes |
| Instructions | 1       |

```
      00 01 02 03 04 05 06 07  08 09 0A 0B 0C 0D 0E 0F
      -- -- -- -- -- -- -- --  -- -- -- -- -- -- -- --
05E0:                          00                               .       
```

#### Opcodes

```
  0: 0x05E8 [0x00] END_REQSTACK()
```

### Event 65535.84

#### Metadata

| Field        | Value    |
|--------------|----------|
| Entrypoint   | 0x05E9   |
| Data Size    | 15 bytes |
| Instructions | 5        |

```
      00 01 02 03 04 05 06 07  08 09 0A 0B 0C 0D 0E 0F
      -- -- -- -- -- -- -- --  -- -- -- -- -- -- -- --
05E0:                             32 02 80 1F 00 75 80           2....u.
05F0: 76 80 05 80 1F 01 6F 00                           v.....o.        
```

#### Opcodes

```
  0: 0x05E9 [0x32] ExtData[1]->MainSpeed = 13* * 0.1
  1: 0x05EC [0x1F] MOVE_ENTITY: EventEntity moves to X=-35.967*, Z=86.983*, Y=-3.749*
  2: 0x05F4 [0x1F] MOVE_ENTITY: Update entity position (mode=1)
  3: 0x05F6 [0x6F] WAIT_FRAME_DELAY: Yield until WaitTime reaches zero
  4: 0x05F7 [0x00] END_REQSTACK()
```

### Event 590

#### Metadata

| Field        | Value   |
|--------------|---------|
| Entrypoint   | 0x05F8  |
| Data Size    | 1 bytes |
| Instructions | 1       |

```
      00 01 02 03 04 05 06 07  08 09 0A 0B 0C 0D 0E 0F
      -- -- -- -- -- -- -- --  -- -- -- -- -- -- -- --
05F0:                          00                               .       
```

#### Opcodes

```
  0: 0x05F8 [0x00] END_REQSTACK()
```

### Event 593

#### Metadata

| Field        | Value   |
|--------------|---------|
| Entrypoint   | 0x05F9  |
| Data Size    | 1 bytes |
| Instructions | 1       |

```
      00 01 02 03 04 05 06 07  08 09 0A 0B 0C 0D 0E 0F
      -- -- -- -- -- -- -- --  -- -- -- -- -- -- -- --
05F0:                             00                             .      
```

#### Opcodes

```
  0: 0x05F9 [0x00] END_REQSTACK()
```

### Event 65535.85

#### Metadata

| Field        | Value    |
|--------------|----------|
| Entrypoint   | 0x05FA   |
| Data Size    | 15 bytes |
| Instructions | 5        |

```
      00 01 02 03 04 05 06 07  08 09 0A 0B 0C 0D 0E 0F
      -- -- -- -- -- -- -- --  -- -- -- -- -- -- -- --
05F0:                                32 02 80 1F 00 77            2....w
0600: 80 78 80 0A 80 1F 01 6F  00                       .x.....o.       
```

#### Opcodes

```
  0: 0x05FA [0x32] ExtData[1]->MainSpeed = 13* * 0.1
  1: 0x05FD [0x1F] MOVE_ENTITY: EventEntity moves to X=1.333*, Z=3.100*, Y=0.000*
  2: 0x0605 [0x1F] MOVE_ENTITY: Update entity position (mode=1)
  3: 0x0607 [0x6F] WAIT_FRAME_DELAY: Yield until WaitTime reaches zero
  4: 0x0608 [0x00] END_REQSTACK()
```

### Event 65535.86

#### Metadata

| Field        | Value    |
|--------------|----------|
| Entrypoint   | 0x0609   |
| Data Size    | 17 bytes |
| Instructions | 6        |

```
      00 01 02 03 04 05 06 07  08 09 0A 0B 0C 0D 0E 0F
      -- -- -- -- -- -- -- --  -- -- -- -- -- -- -- --
0600:                             32 02 80 1F 00 79 80           2....y.
0610: 7A 80 0A 80 1F 01 6F 22  01 00                    z.....o"..      
```

#### Opcodes

```
  0: 0x0609 [0x32] ExtData[1]->MainSpeed = 13* * 0.1
  1: 0x060C [0x1F] MOVE_ENTITY: EventEntity moves to X=-8.196*, Z=-2.881*, Y=0.000*
  2: 0x0614 [0x1F] MOVE_ENTITY: Update entity position (mode=1)
  3: 0x0616 [0x6F] WAIT_FRAME_DELAY: Yield until WaitTime reaches zero
  4: 0x0617 [0x22] ENTITY_HIDE_FLAG(enabled=0x01)
  5: 0x0619 [0x00] END_REQSTACK()
```

### Event 65535.87

#### Metadata

| Field        | Value    |
|--------------|----------|
| Entrypoint   | 0x061A   |
| Data Size    | 15 bytes |
| Instructions | 5        |

```
      00 01 02 03 04 05 06 07  08 09 0A 0B 0C 0D 0E 0F
      -- -- -- -- -- -- -- --  -- -- -- -- -- -- -- --
0610:                                32 02 80 1F 00 7B            2....{
0620: 80 7C 80 3F 80 1F 01 6F  00                       .|.?...o.       
```

#### Opcodes

```
  0: 0x061A [0x32] ExtData[1]->MainSpeed = 13* * 0.1
  1: 0x061D [0x1F] MOVE_ENTITY: EventEntity moves to X=35.028*, Z=0.343*, Y=-2.999*
  2: 0x0625 [0x1F] MOVE_ENTITY: Update entity position (mode=1)
  3: 0x0627 [0x6F] WAIT_FRAME_DELAY: Yield until WaitTime reaches zero
  4: 0x0628 [0x00] END_REQSTACK()
```

### Event 597

#### Metadata

| Field        | Value   |
|--------------|---------|
| Entrypoint   | 0x0629  |
| Data Size    | 1 bytes |
| Instructions | 1       |

```
      00 01 02 03 04 05 06 07  08 09 0A 0B 0C 0D 0E 0F
      -- -- -- -- -- -- -- --  -- -- -- -- -- -- -- --
0620:                             00                             .      
```

#### Opcodes

```
  0: 0x0629 [0x00] END_REQSTACK()
```
