# 17731648

## Common Data

| Field            | Value                         |
|------------------|-------------------------------|
| Zone             | Chateau d'Oraguille (ID: 233) |
| Block Size       | 464 bytes                     |
| Total Events     | 16                            |
| References Count | 27                            |

## List of Events

| Event ID                 | Entrypoint   |   Size |   Instructions |
|--------------------------|--------------|--------|----------------|
| [65535](#event-65535)    | 0x0000       |      1 |              1 |
| [100](#event-100)        | 0x0001       |     10 |              2 |
| [87](#event-87)          | 0x000B       |     10 |              2 |
| [21](#event-21)          | 0x0015       |     10 |              2 |
| [537](#event-537)        | 0x001F       |     10 |              2 |
| [61](#event-61)          | 0x0029       |     10 |              2 |
| [65535.1](#event-655351) | 0x0033       |     15 |              5 |
| [509](#event-509)        | 0x0042       |     10 |              2 |
| [65535.2](#event-655352) | 0x004C       |     17 |              5 |
| [65535.3](#event-655353) | 0x005D       |     21 |              7 |
| [65535.4](#event-655354) | 0x0072       |     31 |              9 |
| [65535.5](#event-655355) | 0x0091       |     43 |              7 |
| [65535.6](#event-655356) | 0x00BC       |     32 |              4 |
| [598](#event-598)        | 0x00DC       |      7 |              2 |
| [65535.7](#event-655357) | 0x00E3       |     31 |              9 |
| [65535.8](#event-655358) | 0x0102       |     18 |              6 |

## DAT References (imed_data)

|   Index | Hex Value   |   Dec Value |
|---------|-------------|-------------|
|       0 | 0xFFFFF54B  |  4294964555 |
|       1 | 0x8257      |       33367 |
|       2 | 0xFFFFF449  |  4294964297 |
|       3 | 0x0000      |           0 |
|       4 | 0xFFFFF63C  |  4294964796 |
|       5 | 0x9088      |       37000 |
|       6 | 0x0294      |         660 |
|       7 | 0x4CB3      |       19635 |
|       8 | 0xFFFFFA25  |  4294965797 |
|       9 | 0x03E1      |         993 |
|      10 | 0x0078      |         120 |
|      11 | 0x000D      |          13 |
|      12 | 0x3543      |       13635 |
|      13 | 0x06C9      |        1737 |
|      14 | 0x00B4      |         180 |
|      15 | 0x6647      |       26183 |
|      16 | 0xFFFFFB50  |  4294966096 |
|      17 | 0x0018      |          24 |
|      18 | 0x005A      |          90 |
|      19 | 0x0028      |          40 |
|      20 | 0xFFFF9D68  |  4294942056 |
|      21 | 0xFFFFED72  |  4294962546 |
|      22 | 0xFFFFAA91  |  4294945425 |
|      23 | 0x112D      |        4397 |
|      24 | 0x001E      |          30 |
|      25 | 0xFFFF65D2  |  4294927826 |
|      26 | 0x0CD2      |        3282 |

## Events

### Event 65535

#### Metadata

| Field        | Value   |
|--------------|---------|
| Entrypoint   | 0x0000  |
| Data Size    | 1 bytes |
| Instructions | 1       |

```
      00 01 02 03 04 05 06 07  08 09 0A 0B 0C 0D 0E 0F
      -- -- -- -- -- -- -- --  -- -- -- -- -- -- -- --
0000: 00                                                .               
```

#### Opcodes

```
  0: 0x0000 [0x00] END_REQSTACK()
```

### Event 100

#### Metadata

| Field        | Value    |
|--------------|----------|
| Entrypoint   | 0x0001   |
| Data Size    | 10 bytes |
| Instructions | 2        |

```
      00 01 02 03 04 05 06 07  08 09 0A 0B 0C 0D 0E 0F
      -- -- -- -- -- -- -- --  -- -- -- -- -- -- -- --
0000:    37 00 80 01 80 02 80  03 80 00                  7.........     
```

#### Opcodes

```
  0: 0x0001 [0x37] UPDATE_EVENT_POSITION_AND_DIR: x=-2.741*, z=33.367*, y=-2.999*, direction=0.0°*
  1: 0x000A [0x00] END_REQSTACK()
```

### Event 87

#### Metadata

| Field        | Value    |
|--------------|----------|
| Entrypoint   | 0x000B   |
| Data Size    | 10 bytes |
| Instructions | 2        |

```
      00 01 02 03 04 05 06 07  08 09 0A 0B 0C 0D 0E 0F
      -- -- -- -- -- -- -- --  -- -- -- -- -- -- -- --
0000:                                   37 00 80 01 80             7....
0010: 02 80 03 80 00                                    .....           
```

#### Opcodes

```
  0: 0x000B [0x37] UPDATE_EVENT_POSITION_AND_DIR: x=-2.741*, z=33.367*, y=-2.999*, direction=0.0°*
  1: 0x0014 [0x00] END_REQSTACK()
```

### Event 21

#### Metadata

| Field        | Value    |
|--------------|----------|
| Entrypoint   | 0x0015   |
| Data Size    | 10 bytes |
| Instructions | 2        |

```
      00 01 02 03 04 05 06 07  08 09 0A 0B 0C 0D 0E 0F
      -- -- -- -- -- -- -- --  -- -- -- -- -- -- -- --
0010:                37 00 80  01 80 02 80 03 80 00          7......... 
```

#### Opcodes

```
  0: 0x0015 [0x37] UPDATE_EVENT_POSITION_AND_DIR: x=-2.741*, z=33.367*, y=-2.999*, direction=0.0°*
  1: 0x001E [0x00] END_REQSTACK()
```

### Event 537

#### Metadata

| Field        | Value    |
|--------------|----------|
| Entrypoint   | 0x001F   |
| Data Size    | 10 bytes |
| Instructions | 2        |

```
      00 01 02 03 04 05 06 07  08 09 0A 0B 0C 0D 0E 0F
      -- -- -- -- -- -- -- --  -- -- -- -- -- -- -- --
0010:                                               37                 7
0020: 04 80 05 80 02 80 03 80  00                       .........       
```

#### Opcodes

```
  0: 0x001F [0x37] UPDATE_EVENT_POSITION_AND_DIR: x=-2.500*, z=37.000*, y=-2.999*, direction=0.0°*
  1: 0x0028 [0x00] END_REQSTACK()
```

### Event 61

#### Metadata

| Field        | Value    |
|--------------|----------|
| Entrypoint   | 0x0029   |
| Data Size    | 10 bytes |
| Instructions | 2        |

```
      00 01 02 03 04 05 06 07  08 09 0A 0B 0C 0D 0E 0F
      -- -- -- -- -- -- -- --  -- -- -- -- -- -- -- --
0020:                             37 00 80 01 80 02 80           7......
0030: 03 80 00                                          ...             
```

#### Opcodes

```
  0: 0x0029 [0x37] UPDATE_EVENT_POSITION_AND_DIR: x=-2.741*, z=33.367*, y=-2.999*, direction=0.0°*
  1: 0x0032 [0x00] END_REQSTACK()
```

### Event 65535.1

#### Metadata

| Field        | Value    |
|--------------|----------|
| Entrypoint   | 0x0033   |
| Data Size    | 15 bytes |
| Instructions | 5        |

```
      00 01 02 03 04 05 06 07  08 09 0A 0B 0C 0D 0E 0F
      -- -- -- -- -- -- -- --  -- -- -- -- -- -- -- --
0030:          1F 00 04 80 05  80 02 80 1F 01 6F 39 03     ..........o9.
0040: 80 00                                             ..              
```

#### Opcodes

```
  0: 0x0033 [0x1F] MOVE_ENTITY: EventEntity moves to X=-2.500*, Z=37.000*, Y=-2.999*
  1: 0x003B [0x1F] MOVE_ENTITY: Update entity position (mode=1)
  2: 0x003D [0x6F] WAIT_FRAME_DELAY: Yield until WaitTime reaches zero
  3: 0x003E [0x39] SET_ENTITY_DIRECTION(direction=0.0°*)
  4: 0x0041 [0x00] END_REQSTACK()
```

### Event 509

#### Metadata

| Field        | Value    |
|--------------|----------|
| Entrypoint   | 0x0042   |
| Data Size    | 10 bytes |
| Instructions | 2        |

```
      00 01 02 03 04 05 06 07  08 09 0A 0B 0C 0D 0E 0F
      -- -- -- -- -- -- -- --  -- -- -- -- -- -- -- --
0040:       37 06 80 07 80 08  80 09 80 00                7.........    
```

#### Opcodes

```
  0: 0x0042 [0x37] UPDATE_EVENT_POSITION_AND_DIR: x=0.660*, z=19.635*, y=-1.499*, direction=87.3°*
  1: 0x004B [0x00] END_REQSTACK()
```

### Event 65535.2

#### Metadata

| Field        | Value    |
|--------------|----------|
| Entrypoint   | 0x004C   |
| Data Size    | 17 bytes |
| Instructions | 5        |

```
      00 01 02 03 04 05 06 07  08 09 0A 0B 0C 0D 0E 0F
      -- -- -- -- -- -- -- --  -- -- -- -- -- -- -- --
0040:                                      1C 0A 80 32              ...2
0050: 0B 80 1F 00 06 80 0C 80  08 80 1F 01 00           .............   
```

#### Opcodes

```
  0: 0x004C [0x1C] WAIT(120* ticks)
  1: 0x004F [0x32] ExtData[1]->MainSpeed = 13* * 0.1
  2: 0x0052 [0x1F] MOVE_ENTITY: EventEntity moves to X=0.660*, Z=13.635*, Y=-1.499*
  3: 0x005A [0x1F] MOVE_ENTITY: Update entity position (mode=1)
  4: 0x005C [0x00] END_REQSTACK()
```

### Event 65535.3

#### Metadata

| Field        | Value    |
|--------------|----------|
| Entrypoint   | 0x005D   |
| Data Size    | 21 bytes |
| Instructions | 7        |

```
      00 01 02 03 04 05 06 07  08 09 0A 0B 0C 0D 0E 0F
      -- -- -- -- -- -- -- --  -- -- -- -- -- -- -- --
0050:                                         32 0B 80               2..
0060: 1F 00 0D 80 0C 80 08 80  1F 01 1E 41 90 0E 01 6F  ...........A...o
0070: 70 00                                             p.              
```

#### Opcodes

```
  0: 0x005D [0x32] ExtData[1]->MainSpeed = 13* * 0.1
  1: 0x0060 [0x1F] MOVE_ENTITY: EventEntity moves to X=1.737*, Z=13.635*, Y=-1.499*
  2: 0x0068 [0x1F] MOVE_ENTITY: Update entity position (mode=1)
  3: 0x006A [0x1E] EventEntity looks at Unnamed NPC (ID: 17731649/0x010E9041) and starts talking
  4: 0x006F [0x6F] WAIT_FRAME_DELAY: Yield until WaitTime reaches zero
  5: 0x0070 [0x70] WAIT_ENTITY_RENDER_FLAG: Wait while EventEntity->Render.Flags3 bit 2 is set (cancel turn if not)
  6: 0x0071 [0x00] END_REQSTACK()
```

### Event 65535.4

#### Metadata

| Field        | Value    |
|--------------|----------|
| Entrypoint   | 0x0072   |
| Data Size    | 31 bytes |
| Instructions | 9        |

```
      00 01 02 03 04 05 06 07  08 09 0A 0B 0C 0D 0E 0F
      -- -- -- -- -- -- -- --  -- -- -- -- -- -- -- --
0070:       7B F8 FF FF 7F 1C  0E 80 1F 00 06 80 0C 80    {.............
0080: 08 80 1F 01 6F 1F 00 06  80 0F 80 08 80 1F 01 6F  ....o..........o
0090: 00                                                .               
```

#### Opcodes

```
  0: 0x0072 [0x7B] EventEntity stops talking
  1: 0x0077 [0x1C] WAIT(180* ticks)
  2: 0x007A [0x1F] MOVE_ENTITY: EventEntity moves to X=0.660*, Z=13.635*, Y=-1.499*
  3: 0x0082 [0x1F] MOVE_ENTITY: Update entity position (mode=1)
  4: 0x0084 [0x6F] WAIT_FRAME_DELAY: Yield until WaitTime reaches zero
  5: 0x0085 [0x1F] MOVE_ENTITY: EventEntity moves to X=0.660*, Z=26.183*, Y=-1.499*
  6: 0x008D [0x1F] MOVE_ENTITY: Update entity position (mode=1)
  7: 0x008F [0x6F] WAIT_FRAME_DELAY: Yield until WaitTime reaches zero
  8: 0x0090 [0x00] END_REQSTACK()
```

### Event 65535.5

#### Metadata

| Field        | Value    |
|--------------|----------|
| Entrypoint   | 0x0091   |
| Data Size    | 43 bytes |
| Instructions | 7        |

```
      00 01 02 03 04 05 06 07  08 09 0A 0B 0C 0D 0E 0F
      -- -- -- -- -- -- -- --  -- -- -- -- -- -- -- --
0090:    32 0B 80 1F 00 10 80  05 80 02 80 1F 01 6F 66   2............of
00A0: 11 80 F8 FF FF 7F F8 FF  FF 7F 31 72 64 79 53 F8  ..........1rdyS.
00B0: FF FF 7F F8 FF FF 7F 31  72 64 79 00              .......1rdy.    
```

#### Opcodes

```
  0: 0x0091 [0x32] ExtData[1]->MainSpeed = 13* * 0.1
  1: 0x0094 [0x1F] MOVE_ENTITY: EventEntity moves to X=-1.200*, Z=37.000*, Y=-2.999*
  2: 0x009C [0x1F] MOVE_ENTITY: Update entity position (mode=1)
  3: 0x009E [0x6F] WAIT_FRAME_DELAY: Yield until WaitTime reaches zero
  4: 0x009F [0x66] LOAD_EXT_SCHEDULER_MAIN: Load scheduler "1rdy" with entities [EventEntity, EventEntity], work=24*
  5: 0x00AE [0x53] WAIT_SCHEDULER_TASK: Wait for scheduler "1rdy" with entities [EventEntity, EventEntity]
  6: 0x00BB [0x00] END_REQSTACK()
```

### Event 65535.6

#### Metadata

| Field        | Value    |
|--------------|----------|
| Entrypoint   | 0x00BC   |
| Data Size    | 32 bytes |
| Instructions | 4        |

```
      00 01 02 03 04 05 06 07  08 09 0A 0B 0C 0D 0E 0F
      -- -- -- -- -- -- -- --  -- -- -- -- -- -- -- --
00B0:                                      1C 12 80 66              ...f
00C0: 11 80 F8 FF FF 7F F8 FF  FF 7F 31 72 74 6E 53 F8  ..........1rtnS.
00D0: FF FF 7F F8 FF FF 7F 31  72 74 6E 00              .......1rtn.    
```

#### Opcodes

```
  0: 0x00BC [0x1C] WAIT(90* ticks)
  1: 0x00BF [0x66] LOAD_EXT_SCHEDULER_MAIN: Load scheduler "1rtn" with entities [EventEntity, EventEntity], work=24*
  2: 0x00CE [0x53] WAIT_SCHEDULER_TASK: Wait for scheduler "1rtn" with entities [EventEntity, EventEntity]
  3: 0x00DB [0x00] END_REQSTACK()
```

### Event 598

#### Metadata

| Field        | Value   |
|--------------|---------|
| Entrypoint   | 0x00DC  |
| Data Size    | 7 bytes |
| Instructions | 2       |

```
      00 01 02 03 04 05 06 07  08 09 0A 0B 0C 0D 0E 0F
      -- -- -- -- -- -- -- --  -- -- -- -- -- -- -- --
00D0:                                      92 01 F8 FF              ....
00E0: FF 7F 00                                          ...             
```

#### Opcodes

```
  0: 0x00DC [0x92] EventEntity->Render.Flags3 ^= 0x01
  1: 0x00E2 [0x00] END_REQSTACK()
```

### Event 65535.7

#### Metadata

| Field        | Value    |
|--------------|----------|
| Entrypoint   | 0x00E3   |
| Data Size    | 31 bytes |
| Instructions | 9        |

```
      00 01 02 03 04 05 06 07  08 09 0A 0B 0C 0D 0E 0F
      -- -- -- -- -- -- -- --  -- -- -- -- -- -- -- --
00E0:          32 13 80 1F 00  14 80 15 80 03 80 1F 01     2............
00F0: 6F 1F 00 16 80 17 80 03  80 1F 01 6F 1E 0A 90 0E  o..........o....
0100: 01 00                                             ..              
```

#### Opcodes

```
  0: 0x00E3 [0x32] ExtData[1]->MainSpeed = 40* * 0.1
  1: 0x00E6 [0x1F] MOVE_ENTITY: EventEntity moves to X=-25.240*, Z=-4.750*, Y=0.000*
  2: 0x00EE [0x1F] MOVE_ENTITY: Update entity position (mode=1)
  3: 0x00F0 [0x6F] WAIT_FRAME_DELAY: Yield until WaitTime reaches zero
  4: 0x00F1 [0x1F] MOVE_ENTITY: EventEntity moves to X=-21.871*, Z=4.397*, Y=0.000*
  5: 0x00F9 [0x1F] MOVE_ENTITY: Update entity position (mode=1)
  6: 0x00FB [0x6F] WAIT_FRAME_DELAY: Yield until WaitTime reaches zero
  7: 0x00FC [0x1E] EventEntity looks at Milchupain (ID: 17731594/0x010E900A) and starts talking
  8: 0x0101 [0x00] END_REQSTACK()
```

### Event 65535.8

#### Metadata

| Field        | Value    |
|--------------|----------|
| Entrypoint   | 0x0102   |
| Data Size    | 18 bytes |
| Instructions | 6        |

```
      00 01 02 03 04 05 06 07  08 09 0A 0B 0C 0D 0E 0F
      -- -- -- -- -- -- -- --  -- -- -- -- -- -- -- --
0100:       1C 18 80 32 0B 80  1F 00 19 80 1A 80 02 80    ...2..........
0110: 1F 01 6F 00                                       ..o.            
```

#### Opcodes

```
  0: 0x0102 [0x1C] WAIT(30* ticks)
  1: 0x0105 [0x32] ExtData[1]->MainSpeed = 13* * 0.1
  2: 0x0108 [0x1F] MOVE_ENTITY: EventEntity moves to X=-39.470*, Z=3.282*, Y=-2.999*
  3: 0x0110 [0x1F] MOVE_ENTITY: Update entity position (mode=1)
  4: 0x0112 [0x6F] WAIT_FRAME_DELAY: Yield until WaitTime reaches zero
  5: 0x0113 [0x00] END_REQSTACK()
```
