# 17731631

## Common Data

| Field            | Value                         |
|------------------|-------------------------------|
| Zone             | Chateau d'Oraguille (ID: 233) |
| Block Size       | 316 bytes                     |
| Total Events     | 10                            |
| References Count | 22                            |

## List of Events

| Event ID                 | Entrypoint   |   Size |   Instructions |
|--------------------------|--------------|--------|----------------|
| [65535](#event-65535)    | 0x0000       |      1 |              1 |
| [99](#event-99)          | 0x0001       |     10 |              2 |
| [65535.1](#event-655351) | 0x000B       |     29 |              3 |
| [65535.2](#event-655352) | 0x0028       |     29 |              3 |
| [65535.3](#event-655353) | 0x0045       |     14 |              3 |
| [65535.4](#event-655354) | 0x0053       |     20 |              3 |
| [96](#event-96)          | 0x0067       |     25 |              5 |
| [65535.5](#event-655355) | 0x0080       |     10 |              2 |
| [65535.6](#event-655356) | 0x008A       |     17 |              4 |
| [65535.7](#event-655357) | 0x009B       |     14 |              4 |

## DAT References (imed_data)

|   Index | Hex Value   |   Dec Value |
|---------|-------------|-------------|
|       0 | 0x0052      |          82 |
|       1 | 0x90B6      |       37046 |
|       2 | 0xFFFFF448  |  4294964296 |
|       3 | 0x0BE8      |        3048 |
|       4 | 0x0001      |           1 |
|       5 | 0x0002      |           2 |
|       6 | 0x003C      |          60 |
|       7 | 0xFFFF7B83  |  4294933379 |
|       8 | 0x9FF4      |       40948 |
|       9 | 0xFFFFFA24  |  4294965796 |
|      10 | 0x0651      |        1617 |
|      11 | 0xFFFEB4B6  |  4294882486 |
|      12 | 0x1075C     |       67420 |
|      13 | 0xFFFFFBB3  |  4294966195 |
|      14 | 0x0BB6      |        2998 |
|      15 | 0x0000      |           0 |
|      16 | 0x0040      |          64 |
|      17 | 0x0078      |         120 |
|      18 | 0x0F4B      |        3915 |
|      19 | 0x000D      |          13 |
|      20 | 0xFFFEB627  |  4294882855 |
|      21 | 0xF706      |       63238 |

## Events

### Event 65535

#### Metadata

| Field        | Value   |
|--------------|---------|
| Entrypoint   | 0x0000  |
| Data Size    | 1 bytes |
| Instructions | 1       |

```
      00 01 02 03 04 05 06 07  08 09 0A 0B 0C 0D 0E 0F
      -- -- -- -- -- -- -- --  -- -- -- -- -- -- -- --
0000: 00                                                .               
```

#### Opcodes

```
  0: 0x0000 [0x00] END_REQSTACK()
```

### Event 99

#### Metadata

| Field        | Value    |
|--------------|----------|
| Entrypoint   | 0x0001   |
| Data Size    | 10 bytes |
| Instructions | 2        |

```
      00 01 02 03 04 05 06 07  08 09 0A 0B 0C 0D 0E 0F
      -- -- -- -- -- -- -- --  -- -- -- -- -- -- -- --
0000:    37 00 80 01 80 02 80  03 80 00                  7.........     
```

#### Opcodes

```
  0: 0x0001 [0x37] UPDATE_EVENT_POSITION_AND_DIR: x=0.082*, z=37.046*, y=-3.000*, direction=267.9째*
  1: 0x000A [0x00] END_REQSTACK()
```

### Event 65535.1

#### Metadata

| Field        | Value    |
|--------------|----------|
| Entrypoint   | 0x000B   |
| Data Size    | 29 bytes |
| Instructions | 3        |

```
      00 01 02 03 04 05 06 07  08 09 0A 0B 0C 0D 0E 0F
      -- -- -- -- -- -- -- --  -- -- -- -- -- -- -- --
0000:                                   66 04 80 F8 FF             f....
0010: FF 7F F8 FF FF 7F 75 74  61 30 53 F8 FF FF 7F F8  ......uta0S.....
0020: FF FF 7F 75 74 61 30 00                           ...uta0.        
```

#### Opcodes

```
  0: 0x000B [0x66] LOAD_EXT_SCHEDULER_MAIN: Load scheduler "uta0" with entities [EventEntity, EventEntity], work=1*
  1: 0x001A [0x53] WAIT_SCHEDULER_TASK: Wait for scheduler "uta0" with entities [EventEntity, EventEntity]
  2: 0x0027 [0x00] END_REQSTACK()
```

### Event 65535.2

#### Metadata

| Field        | Value    |
|--------------|----------|
| Entrypoint   | 0x0028   |
| Data Size    | 29 bytes |
| Instructions | 3        |

```
      00 01 02 03 04 05 06 07  08 09 0A 0B 0C 0D 0E 0F
      -- -- -- -- -- -- -- --  -- -- -- -- -- -- -- --
0020:                          66 05 80 F8 FF FF 7F F8          f.......
0030: FF FF 7F 6B 73 6B 30 53  F8 FF FF 7F F8 FF FF 7F  ...ksk0S........
0040: 6B 73 6B 30 00                                    ksk0.           
```

#### Opcodes

```
  0: 0x0028 [0x66] LOAD_EXT_SCHEDULER_MAIN: Load scheduler "ksk0" with entities [EventEntity, EventEntity], work=2*
  1: 0x0037 [0x53] WAIT_SCHEDULER_TASK: Wait for scheduler "ksk0" with entities [EventEntity, EventEntity]
  2: 0x0044 [0x00] END_REQSTACK()
```

### Event 65535.3

#### Metadata

| Field        | Value    |
|--------------|----------|
| Entrypoint   | 0x0045   |
| Data Size    | 14 bytes |
| Instructions | 3        |

```
      00 01 02 03 04 05 06 07  08 09 0A 0B 0C 0D 0E 0F
      -- -- -- -- -- -- -- --  -- -- -- -- -- -- -- --
0040:                1C 06 80  79 00 F8 FF FF 7F 06 90       ...y.......
0050: 0E 01 00                                          ...             
```

#### Opcodes

```
  0: 0x0045 [0x1C] WAIT(60* ticks)
  1: 0x0048 [0x79] EventEntity looks at Claidie (ID: 17731590/0x010E9006) (Basic look)
  2: 0x0052 [0x00] END_REQSTACK()
```

### Event 65535.4

#### Metadata

| Field        | Value    |
|--------------|----------|
| Entrypoint   | 0x0053   |
| Data Size    | 20 bytes |
| Instructions | 3        |

```
      00 01 02 03 04 05 06 07  08 09 0A 0B 0C 0D 0E 0F
      -- -- -- -- -- -- -- --  -- -- -- -- -- -- -- --
0050:          37 07 80 08 80  09 80 0A 80 79 00 F8 FF     7........y...
0060: FF 7F 06 90 0E 01 00                              .......         
```

#### Opcodes

```
  0: 0x0053 [0x37] UPDATE_EVENT_POSITION_AND_DIR: x=-33.917*, z=40.948*, y=-1.500*, direction=142.1째*
  1: 0x005C [0x79] EventEntity looks at Claidie (ID: 17731590/0x010E9006) (Basic look)
  2: 0x0066 [0x00] END_REQSTACK()
```

### Event 96

#### Metadata

| Field        | Value    |
|--------------|----------|
| Entrypoint   | 0x0067   |
| Data Size    | 25 bytes |
| Instructions | 5        |

```
      00 01 02 03 04 05 06 07  08 09 0A 0B 0C 0D 0E 0F
      -- -- -- -- -- -- -- --  -- -- -- -- -- -- -- --
0060:                      84  37 0B 80 0C 80 0D 80 0E         .7.......
0070: 80 1E 06 90 0E 01 6C F8  FF FF 7F 0F 80 0F 80 00  ......l.........
```

#### Opcodes

```
  0: 0x0067 [0x84] ADJUST_RENDER_FLAGS3_BIT0()
  1: 0x0068 [0x37] UPDATE_EVENT_POSITION_AND_DIR: x=-84.810*, z=67.420*, y=-1.101*, direction=263.5째*
  2: 0x0071 [0x1E] EventEntity looks at Claidie (ID: 17731590/0x010E9006) and starts talking
  3: 0x0076 [0x6C] FADE_ENTITY_COLOR(entity_id=EventEntity, end_alpha=0*, fade_time=0*)
  4: 0x007F [0x00] END_REQSTACK()
```

### Event 65535.5

#### Metadata

| Field        | Value    |
|--------------|----------|
| Entrypoint   | 0x0080   |
| Data Size    | 10 bytes |
| Instructions | 2        |

```
      00 01 02 03 04 05 06 07  08 09 0A 0B 0C 0D 0E 0F
      -- -- -- -- -- -- -- --  -- -- -- -- -- -- -- --
0080: 6C F8 FF FF 7F 10 80 11  80 00                    l.........      
```

#### Opcodes

```
  0: 0x0080 [0x6C] FADE_ENTITY_COLOR(entity_id=EventEntity, end_alpha=64*, fade_time=120*)
  1: 0x0089 [0x00] END_REQSTACK()
```

### Event 65535.6

#### Metadata

| Field        | Value    |
|--------------|----------|
| Entrypoint   | 0x008A   |
| Data Size    | 17 bytes |
| Instructions | 4        |

```
      00 01 02 03 04 05 06 07  08 09 0A 0B 0C 0D 0E 0F
      -- -- -- -- -- -- -- --  -- -- -- -- -- -- -- --
0080:                                79 00 F8 FF FF 7F            y.....
0090: 06 90 0E 01 39 12 80 1C  06 80 00                 ....9......     
```

#### Opcodes

```
  0: 0x008A [0x79] EventEntity looks at Claidie (ID: 17731590/0x010E9006) (Basic look)
  1: 0x0094 [0x39] SET_ENTITY_DIRECTION(direction=21.5째*)
  2: 0x0097 [0x1C] WAIT(60* ticks)
  3: 0x009A [0x00] END_REQSTACK()
```

### Event 65535.7

#### Metadata

| Field        | Value    |
|--------------|----------|
| Entrypoint   | 0x009B   |
| Data Size    | 14 bytes |
| Instructions | 4        |

```
      00 01 02 03 04 05 06 07  08 09 0A 0B 0C 0D 0E 0F
      -- -- -- -- -- -- -- --  -- -- -- -- -- -- -- --
0090:                                   32 13 80 1F 00             2....
00A0: 14 80 15 80 0D 80 1F 01  00                       .........       
```

#### Opcodes

```
  0: 0x009B [0x32] ExtData[1]->MainSpeed = 13* * 0.1
  1: 0x009E [0x1F] MOVE_ENTITY: EventEntity moves to X=-84.441*, Z=63.238*, Y=-1.101*
  2: 0x00A6 [0x1F] MOVE_ENTITY: Update entity position (mode=1)
  3: 0x00A8 [0x00] END_REQSTACK()
```
