# 17731596 - Curilla

## Common Data

| Field            | Value                         |
|------------------|-------------------------------|
| Zone             | Chateau d'Oraguille (ID: 233) |
| Block Size       | 4528 bytes                    |
| Total Events     | 102                           |
| References Count | 158                           |

## List of Events

| Event ID                   | Entrypoint   |   Size |   Instructions |
|----------------------------|--------------|--------|----------------|
| [65535](#event-65535)      | 0x0000       |      1 |              1 |
| [563](#event-563)          | 0x0001       |      1 |              1 |
| [564](#event-564)          | 0x0002       |      1 |              1 |
| [65535.1](#event-655351)   | 0x0003       |     15 |              3 |
| [65535.2](#event-655352)   | 0x0012       |     22 |              6 |
| [65535.3](#event-655353)   | 0x0028       |     89 |             18 |
| [66](#event-66)            | 0x0081       |      7 |              2 |
| [65535.4](#event-655354)   | 0x0088       |     47 |              7 |
| [65535.5](#event-655355)   | 0x00B7       |     36 |              4 |
| [65535.6](#event-655356)   | 0x00DB       |     15 |              3 |
| [65535.7](#event-655357)   | 0x00EA       |     15 |              5 |
| [65535.8](#event-655358)   | 0x00F9       |     35 |              8 |
| [43](#event-43)            | 0x011C       |      1 |              1 |
| [46](#event-46)            | 0x011D       |    291 |             47 |
| [45](#event-45)            | 0x0240       |     27 |              7 |
| [44](#event-44)            | 0x025B       |      1 |              1 |
| [47](#event-47)            | 0x025C       |     32 |              8 |
| [48](#event-48)            | 0x027C       |      1 |              1 |
| [65535.9](#event-655359)   | 0x027D       |     20 |              8 |
| [65535.10](#event-6553510) | 0x0291       |     27 |              9 |
| [10](#event-10)            | 0x02AC       |     15 |              3 |
| [9](#event-9)              | 0x02BB       |      1 |              1 |
| [65535.11](#event-6553511) | 0x02BC       |     15 |              3 |
| [100](#event-100)          | 0x02CB       |     17 |              4 |
| [530](#event-530)          | 0x02DC       |     96 |             20 |
| [545](#event-545)          | 0x033C       |     59 |             11 |
| [56](#event-56)            | 0x0377       |     56 |             10 |
| [57](#event-57)            | 0x03AF       |     36 |             10 |
| [103](#event-103)          | 0x03D3       |     64 |             14 |
| [16](#event-16)            | 0x0413       |     56 |             10 |
| [17](#event-17)            | 0x044B       |     69 |             11 |
| [18](#event-18)            | 0x0490       |     73 |             13 |
| [19](#event-19)            | 0x04D9       |     60 |             12 |
| [20](#event-20)            | 0x0515       |    102 |             24 |
| [55](#event-55)            | 0x057B       |    538 |             89 |
| [53](#event-53)            | 0x0795       |     18 |              8 |
| [54](#event-54)            | 0x07A7       |    547 |             71 |
| [93](#event-93)            | 0x09CA       |      1 |              1 |
| [94](#event-94)            | 0x09CB       |      1 |              1 |
| [95](#event-95)            | 0x09CC       |      1 |              1 |
| [92](#event-92)            | 0x09CD       |     20 |              5 |
| [101](#event-101)          | 0x09E1       |      1 |              1 |
| [117](#event-117)          | 0x09E2       |     30 |             10 |
| [114](#event-114)          | 0x0A00       |     25 |              9 |
| [109](#event-109)          | 0x0A19       |    101 |             26 |
| [108](#event-108)          | 0x0A7E       |     17 |              7 |
| [113](#event-113)          | 0x0A8F       |     17 |              7 |
| [51](#event-51)            | 0x0AA0       |     17 |              7 |
| [52](#event-52)            | 0x0AB1       |     33 |             12 |
| [65535.12](#event-6553512) | 0x0AD2       |     14 |              4 |
| [509](#event-509)          | 0x0AE0       |      1 |              1 |
| [65535.13](#event-6553513) | 0x0AE1       |     15 |              3 |
| [65535.14](#event-6553514) | 0x0AF0       |     22 |              8 |
| [65535.15](#event-6553515) | 0x0B06       |     27 |              5 |
| [534](#event-534)          | 0x0B21       |     12 |              3 |
| [65535.16](#event-6553516) | 0x0B2D       |     26 |              7 |
| [65535.17](#event-6553517) | 0x0B47       |     16 |              2 |
| [65535.18](#event-6553518) | 0x0B57       |     19 |              3 |
| [65535.19](#event-6553519) | 0x0B6A       |     16 |              2 |
| [65535.20](#event-6553520) | 0x0B7A       |     19 |              3 |
| [65535.21](#event-6553521) | 0x0B8D       |     29 |              3 |
| [65535.22](#event-6553522) | 0x0BAA       |     29 |              3 |
| [65535.23](#event-6553523) | 0x0BC7       |     29 |              3 |
| [65535.24](#event-6553524) | 0x0BE4       |     16 |              2 |
| [65535.25](#event-6553525) | 0x0BF4       |     14 |              2 |
| [65535.26](#event-6553526) | 0x0C02       |     16 |              2 |
| [65535.27](#event-6553527) | 0x0C12       |     14 |              2 |
| [65535.28](#event-6553528) | 0x0C20       |     16 |              2 |
| [65535.29](#event-6553529) | 0x0C30       |     14 |              2 |
| [65535.30](#event-6553530) | 0x0C3E       |     16 |              2 |
| [65535.31](#event-6553531) | 0x0C4E       |     14 |              2 |
| [65535.32](#event-6553532) | 0x0C5C       |     16 |              2 |
| [65535.33](#event-6553533) | 0x0C6C       |     14 |              2 |
| [65535.34](#event-6553534) | 0x0C7A       |     16 |              2 |
| [65535.35](#event-6553535) | 0x0C8A       |     14 |              2 |
| [65535.36](#event-6553536) | 0x0C98       |     16 |              2 |
| [65535.37](#event-6553537) | 0x0CA8       |     14 |              2 |
| [65535.38](#event-6553538) | 0x0CB6       |     16 |              2 |
| [65535.39](#event-6553539) | 0x0CC6       |     14 |              2 |
| [555](#event-555)          | 0x0CD4       |      1 |              1 |
| [65535.40](#event-6553540) | 0x0CD5       |     10 |              2 |
| [65535.41](#event-6553541) | 0x0CDF       |     10 |              2 |
| [65535.42](#event-6553542) | 0x0CE9       |     10 |              2 |
| [65535.43](#event-6553543) | 0x0CF3       |      5 |              3 |
| [65535.44](#event-6553544) | 0x0CF8       |      5 |              3 |
| [65535.45](#event-6553545) | 0x0CFD       |      5 |              3 |
| [65535.46](#event-6553546) | 0x0D02       |      5 |              3 |
| [65535.47](#event-6553547) | 0x0D07       |      5 |              3 |
| [65535.48](#event-6553548) | 0x0D0C       |      5 |              3 |
| [65535.49](#event-6553549) | 0x0D11       |      5 |              3 |
| [65535.50](#event-6553550) | 0x0D16       |      5 |              3 |
| [65535.51](#event-6553551) | 0x0D1B       |      5 |              3 |
| [65535.52](#event-6553552) | 0x0D20       |      5 |              3 |
| [65535.53](#event-6553553) | 0x0D25       |      5 |              3 |
| [562](#event-562)          | 0x0D2A       |     52 |             12 |
| [573](#event-573)          | 0x0D5E       |      1 |              1 |
| [589](#event-589)          | 0x0D5F       |      1 |              1 |
| [595](#event-595)          | 0x0D60       |      1 |              1 |
| [593](#event-593)          | 0x0D61       |      1 |              1 |
| [65535.54](#event-6553554) | 0x0D62       |     15 |              5 |
| [65535.55](#event-6553555) | 0x0D71       |     15 |              5 |
| [65535.56](#event-6553556) | 0x0D80       |     15 |              5 |

## DAT References (imed_data)

|   Index | Hex Value   |   Dec Value |
|---------|-------------|-------------|
|       0 | 0x0000      |           0 |
|       1 | 0xFFFFFA24  |  4294965796 |
|       2 | 0x0C00      |        3072 |
|       3 | 0x01F4      |         500 |
|       4 | 0x000D      |          13 |
|       5 | 0x001E      |          30 |
|       6 | 0x21C4      |        8644 |
|       7 | 0xFFFFF14F  |  4294963535 |
|       8 | 0x00B4      |         180 |
|       9 | 0x0078      |         120 |
|      10 | 0x1FCA      |        8138 |
|      11 | 0x00C8      |         200 |
|      12 | 0xFFFF6B6D  |  4294929261 |
|      13 | 0x122C8     |       74440 |
|      14 | 0xFFFFF15B  |  4294963547 |
|      15 | 0x0C14      |        3092 |
|      16 | 0xFFFF6B52  |  4294929234 |
|      17 | 0x13164     |       78180 |
|      18 | 0xFFFFF159  |  4294963545 |
|      19 | 0xFFFF6B92  |  4294929298 |
|      20 | 0x111A0     |       70048 |
|      21 | 0xFFFFF448  |  4294964296 |
|      22 | 0xFFFF60FD  |  4294926589 |
|      23 | 0x10EFD     |       69373 |
|      24 | 0x0001      |           1 |
|      25 | 0x008C      |         140 |
|      26 | 0x44F6      |       17654 |
|      27 | 0x1EF2      |        7922 |
|      28 | 0x1EF3      |        7923 |
|      29 | 0x0002      |           2 |
|      30 | 0x1EF4      |        7924 |
|      31 | 0x1EF5      |        7925 |
|      32 | 0x1EF6      |        7926 |
|      33 | 0x1EF7      |        7927 |
|      34 | 0x1EF9      |        7929 |
|      35 | 0x1EFA      |        7930 |
|      36 | 0x1EF8      |        7928 |
|      37 | 0x1EF1      |        7921 |
|      38 | 0x0158      |         344 |
|      39 | 0x0159      |         345 |
|      40 | 0x1EFF      |        7935 |
|      41 | 0x0008      |           8 |
|      42 | 0x76DE      |       30430 |
|      43 | 0xFFFFFC29  |  4294966313 |
|      44 | 0x71DF      |       29151 |
|      45 | 0xFFFFFC74  |  4294966388 |
|      46 | 0x0520      |        1312 |
|      47 | 0x0BF0      |        3056 |
|      48 | 0x0BF1      |        3057 |
|      49 | 0x0AD2      |        2770 |
|      50 | 0xFFFFFCD2  |  4294966482 |
|      51 | 0x0837      |        2103 |
|      52 | 0x0886      |        2182 |
|      53 | 0x5E30      |       24112 |
|      54 | 0x0B60      |        2912 |
|      55 | 0x1C30      |        7216 |
|      56 | 0x1C31      |        7217 |
|      57 | 0x1C32      |        7218 |
|      58 | 0x003C      |          60 |
|      59 | 0x1C02      |        7170 |
|      60 | 0x1D03      |        7427 |
|      61 | 0x1ABC      |        6844 |
|      62 | 0x1AC3      |        6851 |
|      63 | 0x1AC4      |        6852 |
|      64 | 0x1AC5      |        6853 |
|      65 | 0x1E53      |        7763 |
|      66 | 0x1E55      |        7765 |
|      67 | 0x1E7B      |        7803 |
|      68 | 0x1E7C      |        7804 |
|      69 | 0x1EA9      |        7849 |
|      70 | 0x1EAA      |        7850 |
|      71 | 0x1EBB      |        7867 |
|      72 | 0x1EBC      |        7868 |
|      73 | 0x1EBD      |        7869 |
|      74 | 0x1EBE      |        7870 |
|      75 | 0x1EBF      |        7871 |
|      76 | 0x1EC0      |        7872 |
|      77 | 0x0173      |         371 |
|      78 | 0x1CE2      |        7394 |
|      79 | 0x1CDF      |        7391 |
|      80 | 0x1CE0      |        7392 |
|      81 | 0x1CE1      |        7393 |
|      82 | 0x000F      |          15 |
|      83 | 0x0085      |         133 |
|      84 | 0x0003      |           3 |
|      85 | 0x1CDB      |        7387 |
|      86 | 0x1CDC      |        7388 |
|      87 | 0x0007      |           7 |
|      88 | 0x002D      |          45 |
|      89 | 0x1CDD      |        7389 |
|      90 | 0x1CDE      |        7390 |
|      91 | 0x0006      |           6 |
|      92 | 0x00A4      |         164 |
|      93 | 0x1CD5      |        7381 |
|      94 | 0x1CE3      |        7395 |
|      95 | 0x1CE4      |        7396 |
|      96 | 0x0E3B      |        3643 |
|      97 | 0x1CE5      |        7397 |
|      98 | 0x1CE6      |        7398 |
|      99 | 0x1CE7      |        7399 |
|     100 | 0x1CE8      |        7400 |
|     101 | 0x1CE9      |        7401 |
|     102 | 0x00C9      |         201 |
|     103 | 0x1D12      |        7442 |
|     104 | 0x1D23      |        7459 |
|     105 | 0x1D24      |        7460 |
|     106 | 0x1D25      |        7461 |
|     107 | 0x1D26      |        7462 |
|     108 | 0x1D27      |        7463 |
|     109 | 0x1D28      |        7464 |
|     110 | 0x1D29      |        7465 |
|     111 | 0x1D2A      |        7466 |
|     112 | 0x1D2B      |        7467 |
|     113 | 0x1D2C      |        7468 |
|     114 | 0x1D2D      |        7469 |
|     115 | 0x1D2E      |        7470 |
|     116 | 0x1D2F      |        7471 |
|     117 | 0x771E      |       30494 |
|     118 | 0xFFFFFD58  |  4294966616 |
|     119 | 0xFFFFFB34  |  4294966068 |
|     120 | 0xFFFFF6C5  |  4294964933 |
|     121 | 0x09FF      |        2559 |
|     122 | 0x0E33      |        3635 |
|     123 | 0x04B3      |        1203 |
|     124 | 0xFFFFFC83  |  4294966403 |
|     125 | 0x0D4E      |        3406 |
|     126 | 0x2221      |        8737 |
|     127 | 0xFFFFF08C  |  4294963340 |
|     128 | 0x45B8      |       17848 |
|     129 | 0xFFFFF011  |  4294963217 |
|     130 | 0x008D      |         141 |
|     131 | 0x0608      |        1544 |
|     132 | 0x0296      |         662 |
|     133 | 0x0DB7      |        3511 |
|     134 | 0x04AD      |        1197 |
|     135 | 0x0813      |        2067 |
|     136 | 0x02FA      |         762 |
|     137 | 0xFFFFF2CA  |  4294963914 |
|     138 | 0x0400      |        1024 |
|     139 | 0x1DC8      |        7624 |
|     140 | 0x1DCA      |        7626 |
|     141 | 0x1DCD      |        7629 |
|     142 | 0x1DCE      |        7630 |
|     143 | 0x1DD2      |        7634 |
|     144 | 0x1DD6      |        7638 |
|     145 | 0x1DD7      |        7639 |
|     146 | 0x1DD8      |        7640 |
|     147 | 0x1DD9      |        7641 |
|     148 | 0x1DDA      |        7642 |
|     149 | 0x1DDB      |        7643 |
|     150 | 0x2061      |        8289 |
|     151 | 0x206E      |        8302 |
|     152 | 0x206F      |        8303 |
|     153 | 0x6C3D      |       27709 |
|     154 | 0xFFFFFE9B  |  4294966939 |
|     155 | 0x0028      |          40 |
|     156 | 0x6ABE      |       27326 |
|     157 | 0xFFFFFC86  |  4294966406 |

## String References

- **6844**: I have been assigned to the investigation of a remote island off the west of the Vollbow coast. This will be the first time I have left San d'Oria since I was a knight in training.
- **6851**: We located Lightbringer on a small, remote island off the coast of Vollbow.
- **6852**: Once a part of Vollbow, the island was ripped away from the mainland by the force of the beastmen's terrible weapons. Now the area is nothing but a wasteland.
- **6853**: When I took the sword up in my hands, I could feel something running through it. At that moment, I knew I was holding the true sword of King Ranperre.
- **7170**: Things cannot be allowed to proceed as they are. There must be a way to convince him...
- **7216**: I am Curilla V Mecru, and these are the Temple Knights' quarters. We are San d'Oria's shield, protecting the walls of the city from fiends.
- **7217**: Chateau and city guards also belong to the Temple Knights. Remember, we are here to serve and protect you.
- **7218**: Of course, we have little patience with unsavory folk. Take care you're not mistaken for one.
- **7381**: Listen, I want you to bring me water that flows from Horlais Peak. Use this bottle to draw it. I'll be waiting!
- **7388**: Listen to Curilla's request? [Listen./Not now.]
- **7391**: Accept Curilla's request? [Accept./Decline.]
- **7427**: It seems we avoided the worst, but my heart quickens. I hope it is naught but my imagination.
- **7464**: Will you investigate? [Of course I will./I'm afraid not.]
- **7624**: That is right, Lord Halver. I can see ransacking our treasure vaults, but the chambers of Leaute I d'Oraguille? What could they have been after?
- **7626**: Her jewelry all went untouched. It is possible that the thieves mistook the queen's chambers for another room.
- **7629**: That may be true. But even with $1, it would take a skilled thief indeed to hide from all the guards in the chateau.
- **7630**: And according to the gardener, our visitors were a party of two Elvaan...
- **7634**: Pardon me, Your Holiness, but what do you mean by "something"?
- **7638**: Hmm? It seems as if we have a visitor.
- **7639**: You were sent to stop the thieves? Well, as you can see, they have already escaped.
- **7640**: Considering we know nothing of the thieves, it would be futile to send out a search party.
- **7641**: However, an adventurer such as yourself would have connections in many more places than we.
- **7642**: Inquire with the gardener. He is the only one who saw the thieves. He may tell you something of importance.
- **7643**: Inquire with the gardener. He is the only one who said he saw the thieves. He may tell you something that rings a bell.
- **7763**: I have heard the rumors of the fate of Rochefogne. However, I will not believe he is dead until I have seen the body with my own eyes.
- **7765**: We have increased the guard for the Rites of Succession twofold. We do not wish a repeat of the fiasco caused by Rochefogne at the coming-of-age ceremony.
- **7803**: It is time for the Temple Knights and the Royal Knights to put their differences aside for the good of the Kingdom. We must retrieve Lightbringer at all costs!
- **7804**: Let this battle once again bring glory to the Temple Knights!
- **7849**: Our mission is finally over... I feel that sometimes we soldiers forget the frailty of life until we see it lost before our eyes on the battlefield.
- **7850**: However, that gives us all the more reason to continue the fight. We cannot let those who have parted with us be forgotten. If you can spare a moment, journey to the cathedral and offer a prayer for the souls that gave their lives for the glory of the Kingdom.
- **7867**: The conflict with the Orcs may be finally coming to an end, but I doubt that instant peace will follow. We Temple Knights must remain alert at all times, lest danger rear its head within the boundaries of our noble kingdom.
- **7868**: <Player>, would you not consider joining our ranks? You have much untapped potential.
- **7869**: Join the Temple Knights? [Yes./No.]
- **7870**: While I am flattered by your enthusiasm, I know that you would not be satisfied if tied down by the duties of the knights. Your place is under the open skies of Vana'diel.
- **7871**: As I expected. I know that you would not be satisfied if tied down by the duties of the knights. Your place is under the open skies of Vana'diel.
- **7872**: Now go! Adventure awaits!
- **7923**: Why are you here? [I've misplaced the $1./I wish to end my training./I apologize for the disturbance.]
- **7927**: Do you really want to end your training? [I am positive./On second thought...]
- **8289**: <Player>'s badge flashes brightly.
- **8302**: Ever since that recruiter from Aht Urhgan arrived, the chateau has been in an uproar. Especially Prince Tri--
- **8303**: Be on your way, adventurer. I'll thank you to forget what you have heard here.

## Events

### Event 65535

#### Metadata

| Field        | Value   |
|--------------|---------|
| Entrypoint   | 0x0000  |
| Data Size    | 1 bytes |
| Instructions | 1       |

```
      00 01 02 03 04 05 06 07  08 09 0A 0B 0C 0D 0E 0F
      -- -- -- -- -- -- -- --  -- -- -- -- -- -- -- --
0000: 00                                                .               
```

#### Opcodes

```
  0: 0x0000 [0x00] END_REQSTACK()
```

### Event 563

#### Metadata

| Field        | Value   |
|--------------|---------|
| Entrypoint   | 0x0001  |
| Data Size    | 1 bytes |
| Instructions | 1       |

```
      00 01 02 03 04 05 06 07  08 09 0A 0B 0C 0D 0E 0F
      -- -- -- -- -- -- -- --  -- -- -- -- -- -- -- --
0000:    00                                              .              
```

#### Opcodes

```
  0: 0x0001 [0x00] END_REQSTACK()
```

### Event 564

#### Metadata

| Field        | Value   |
|--------------|---------|
| Entrypoint   | 0x0002  |
| Data Size    | 1 bytes |
| Instructions | 1       |

```
      00 01 02 03 04 05 06 07  08 09 0A 0B 0C 0D 0E 0F
      -- -- -- -- -- -- -- --  -- -- -- -- -- -- -- --
0000:       00                                            .             
```

#### Opcodes

```
  0: 0x0002 [0x00] END_REQSTACK()
```

### Event 65535.1

#### Metadata

| Field        | Value    |
|--------------|----------|
| Entrypoint   | 0x0003   |
| Data Size    | 15 bytes |
| Instructions | 3        |

```
      00 01 02 03 04 05 06 07  08 09 0A 0B 0C 0D 0E 0F
      -- -- -- -- -- -- -- --  -- -- -- -- -- -- -- --
0000:          5E 64 66 74 30  37 00 80 01 80 00 80 02     ^dft07.......
0010: 80 00                                             ..              
```

#### Opcodes

```
  0: 0x0003 [0x5E] EventEntity goes idle (kills current action) (animation: "dft0")
  1: 0x0008 [0x37] UPDATE_EVENT_POSITION_AND_DIR: x=0.000*, z=-1.500*, y=0.000*, direction=270.0°*
  2: 0x0011 [0x00] END_REQSTACK()
```

### Event 65535.2

#### Metadata

| Field        | Value    |
|--------------|----------|
| Entrypoint   | 0x0012   |
| Data Size    | 22 bytes |
| Instructions | 6        |

```
      00 01 02 03 04 05 06 07  08 09 0A 0B 0C 0D 0E 0F
      -- -- -- -- -- -- -- --  -- -- -- -- -- -- -- --
0010:       03 00 00 03 80 1A  3D 00 32 04 80 1F 00 01    ......=.2.....
0020: 00 02 00 03 00 1F 01 00                           ........        
```

#### Opcodes

```
  0: 0x0012 [0x03] ExtData[1]->WorkLocal[0] = 500*
  1: 0x0017 [0x1A] CALL_SUBROUTINE(address=0x003D)
  2: 0x001A [0x32] ExtData[1]->MainSpeed = 13* * 0.1
  3: 0x001D [0x1F] MOVE_ENTITY: EventEntity moves to X=ExtData[1]->WorkLocal[1], Z=ExtData[1]->WorkLocal[2], Y=ExtData[1]->WorkLocal[3]
  4: 0x0025 [0x1F] MOVE_ENTITY: Update entity position (mode=1)
  5: 0x0027 [0x00] END_REQSTACK()
```

### Event 65535.3

#### Metadata

| Field        | Value    |
|--------------|----------|
| Entrypoint   | 0x0028   |
| Data Size    | 89 bytes |
| Instructions | 6        |

```
      00 01 02 03 04 05 06 07  08 09 0A 0B 0C 0D 0E 0F
      -- -- -- -- -- -- -- --  -- -- -- -- -- -- -- --
0020:                          1C 05 80 32 04 80 31 00          ...2..1.
0030: 06 80 07 80 00 80 08 80  31 01 22 01 00 3B F8 FF  ........1."..;..
0040: FF 7F 01 00 02 00 03 00  3A F8 FF FF 7F 04 00 17  ........:.......
0050: 05 00 04 00 00 00 16 06  00 04 00 00 00 07 01 00  ................
0060: 05 00 07 02 00 06 00 1B  17 05 00 04 00 00 00 16  ................
0070: 06 00 04 00 00 00 07 01  00 05 00 07 02 00 06 00  ................
0080: 1B                                                .               
```

#### Opcodes

```
  0: 0x0028 [0x1C] WAIT(30* ticks)
  1: 0x002B [0x32] ExtData[1]->MainSpeed = 13* * 0.1
  2: 0x002E [0x31] UPDATE_ENTITY_POSITION: Set EventEntity goal position to X=8.644*, Z=-3.761*, Y=0.000*, Time=180*
  3: 0x0038 [0x31] UPDATE_ENTITY_POSITION: Move EventEntity towards goal position
  4: 0x003A [0x22] ENTITY_HIDE_FLAG(enabled=0x01)
  5: 0x003C [0x00] END_REQSTACK()
```

#### Data or dead code:

```
# Dead code (unreachable instructions):
     0x003D [0x3B] GET_ENTITY_POSITION(entity=EventEntity, x_destination=ExtData[1]->WorkLocal[1], y_destination=ExtData[1]->WorkLocal[2], z_destination=ExtData[1]->WorkLocal[3])
     0x0048 [0x3A] CONVERT_YAW_TO_BYTE(entity=EventEntity, result_destination=ExtData[1]->WorkLocal[4])
     0x004F [0x17] ExtData[1]->WorkLocal[5] = cos(ExtData[1]->WorkLocal[4]) * ExtData[1]->WorkLocal[0]
     0x0056 [0x16] ExtData[1]->WorkLocal[6] = sin(ExtData[1]->WorkLocal[4]) * ExtData[1]->WorkLocal[0]
     0x005D [0x07] ExtData[1]->WorkLocal[1] += ExtData[1]->WorkLocal[5]
     0x0062 [0x07] ExtData[1]->WorkLocal[2] += ExtData[1]->WorkLocal[6]
     0x0067 [0x1B] RETURN
     0x0068 [0x17] ExtData[1]->WorkLocal[5] = cos(ExtData[1]->WorkLocal[4]) * ExtData[1]->WorkLocal[0]
     0x006F [0x16] ExtData[1]->WorkLocal[6] = sin(ExtData[1]->WorkLocal[4]) * ExtData[1]->WorkLocal[0]
     0x0076 [0x07] ExtData[1]->WorkLocal[1] += ExtData[1]->WorkLocal[5]
     0x007B [0x07] ExtData[1]->WorkLocal[2] += ExtData[1]->WorkLocal[6]
     0x0080 [0x1B] RETURN
```

### Event 66

#### Metadata

| Field        | Value   |
|--------------|---------|
| Entrypoint   | 0x0081  |
| Data Size    | 7 bytes |
| Instructions | 2       |

```
      00 01 02 03 04 05 06 07  08 09 0A 0B 0C 0D 0E 0F
      -- -- -- -- -- -- -- --  -- -- -- -- -- -- -- --
0080:    94 01 F8 FF FF 7F 00                            .......        
```

#### Opcodes

```
  0: 0x0081 [0x94] EventEntity->Render.Flags3 ^= 0x01
  1: 0x0087 [0x00] END_REQSTACK()
```

### Event 65535.4

#### Metadata

| Field        | Value    |
|--------------|----------|
| Entrypoint   | 0x0088   |
| Data Size    | 47 bytes |
| Instructions | 7        |

```
      00 01 02 03 04 05 06 07  08 09 0A 0B 0C 0D 0E 0F
      -- -- -- -- -- -- -- --  -- -- -- -- -- -- -- --
0080:                          1C 09 80 2B 07 90 0E 01          ...+....
0090: 0A 80 1C 08 80 45 0B 80  F0 FF FF 7F F0 FF FF 7F  .....E..........
00A0: 66 64 6F 31 00 80 55 0B  80 F0 FF FF 7F F0 FF FF  fdo1..U.........
00B0: 7F 66 64 6F 31 23 00                              .fdo1#.         
```

#### Opcodes

```
  0: 0x0088 [0x1C] WAIT(120* ticks)
  1: 0x008B [0x2B] Halver (ID: 17731591/0x010E9007) [8138*]:
    → "Not that you need overly worry. In private Prince Trion is a gentle soul, quite different from the stern face he presents to the world."
  2: 0x0092 [0x1C] WAIT(180* ticks)
  3: 0x0095 [0x45] LOAD_SCHEDULED_TASK: Load scheduler "fdo1" with entities [LocalPlayer, LocalPlayer], work=[200*, 0*]
  4: 0x00A6 [0x55] WAIT_LOAD_SCHEDULER: Wait for scheduler "fdo1" with entities [LocalPlayer, LocalPlayer], work=200*
  5: 0x00B5 [0x23] WAIT_FOR_DIALOG_INTERACTION
  6: 0x00B6 [0x00] END_REQSTACK()
```

### Event 65535.5

#### Metadata

| Field        | Value    |
|--------------|----------|
| Entrypoint   | 0x00B7   |
| Data Size    | 36 bytes |
| Instructions | 4        |

```
      00 01 02 03 04 05 06 07  08 09 0A 0B 0C 0D 0E 0F
      -- -- -- -- -- -- -- --  -- -- -- -- -- -- -- --
00B0:                      1C  09 80 45 0B 80 F8 FF FF         ...E.....
00C0: 7F F8 FF FF 7F 66 64 6F  31 00 80 55 0B 80 F8 FF  .....fdo1..U....
00D0: FF 7F F8 FF FF 7F 66 64  6F 31 00                 ......fdo1.     
```

#### Opcodes

```
  0: 0x00B7 [0x1C] WAIT(120* ticks)
  1: 0x00BA [0x45] LOAD_SCHEDULED_TASK: Load scheduler "fdo1" with entities [EventEntity, EventEntity], work=[200*, 0*]
  2: 0x00CB [0x55] WAIT_LOAD_SCHEDULER: Wait for scheduler "fdo1" with entities [EventEntity, EventEntity], work=200*
  3: 0x00DA [0x00] END_REQSTACK()
```

### Event 65535.6

#### Metadata

| Field        | Value    |
|--------------|----------|
| Entrypoint   | 0x00DB   |
| Data Size    | 15 bytes |
| Instructions | 3        |

```
      00 01 02 03 04 05 06 07  08 09 0A 0B 0C 0D 0E 0F
      -- -- -- -- -- -- -- --  -- -- -- -- -- -- -- --
00D0:                                   5E 64 66 74 30             ^dft0
00E0: 37 0C 80 0D 80 0E 80 0F  80 00                    7.........      
```

#### Opcodes

```
  0: 0x00DB [0x5E] EventEntity goes idle (kills current action) (animation: "dft0")
  1: 0x00E0 [0x37] UPDATE_EVENT_POSITION_AND_DIR: x=-38.035*, z=74.440*, y=-3.749*, direction=271.7°*
  2: 0x00E9 [0x00] END_REQSTACK()
```

### Event 65535.7

#### Metadata

| Field        | Value    |
|--------------|----------|
| Entrypoint   | 0x00EA   |
| Data Size    | 15 bytes |
| Instructions | 5        |

```
      00 01 02 03 04 05 06 07  08 09 0A 0B 0C 0D 0E 0F
      -- -- -- -- -- -- -- --  -- -- -- -- -- -- -- --
00E0:                                32 04 80 1F 00 10            2.....
00F0: 80 11 80 12 80 1F 01 6F  00                       .......o.       
```

#### Opcodes

```
  0: 0x00EA [0x32] ExtData[1]->MainSpeed = 13* * 0.1
  1: 0x00ED [0x1F] MOVE_ENTITY: EventEntity moves to X=-38.062*, Z=78.180*, Y=-3.751*
  2: 0x00F5 [0x1F] MOVE_ENTITY: Update entity position (mode=1)
  3: 0x00F7 [0x6F] WAIT_FRAME_DELAY: Yield until WaitTime reaches zero
  4: 0x00F8 [0x00] END_REQSTACK()
```

### Event 65535.8

#### Metadata

| Field        | Value    |
|--------------|----------|
| Entrypoint   | 0x00F9   |
| Data Size    | 35 bytes |
| Instructions | 8        |

```
      00 01 02 03 04 05 06 07  08 09 0A 0B 0C 0D 0E 0F
      -- -- -- -- -- -- -- --  -- -- -- -- -- -- -- --
00F0:                             32 04 80 1F 00 13 80           2......
0100: 14 80 15 80 1F 01 27 03  28 90 0E 01 03 31 00 16  ......'.(....1..
0110: 80 17 80 15 80 09 80 31  01 22 01 00              .......1."..    
```

#### Opcodes

```
  0: 0x00F9 [0x32] ExtData[1]->MainSpeed = 13* * 0.1
  1: 0x00FC [0x1F] MOVE_ENTITY: EventEntity moves to X=-37.998*, Z=70.048*, Y=-3.000*
  2: 0x0104 [0x1F] MOVE_ENTITY: Update entity position (mode=1)
  3: 0x0106 [0x27] REQ_SET(priority=0x03, entity_id=Door:Prince Royal's Rm (ID: 17731624/0x010E9028), tag_num=0x03)
  4: 0x010D [0x31] UPDATE_ENTITY_POSITION: Set EventEntity goal position to X=-40.707*, Z=69.373*, Y=-3.000*, Time=120*
  5: 0x0117 [0x31] UPDATE_ENTITY_POSITION: Move EventEntity towards goal position
  6: 0x0119 [0x22] ENTITY_HIDE_FLAG(enabled=0x01)
  7: 0x011B [0x00] END_REQSTACK()
```

### Event 43

#### Metadata

| Field        | Value   |
|--------------|---------|
| Entrypoint   | 0x011C  |
| Data Size    | 1 bytes |
| Instructions | 1       |

```
      00 01 02 03 04 05 06 07  08 09 0A 0B 0C 0D 0E 0F
      -- -- -- -- -- -- -- --  -- -- -- -- -- -- -- --
0110:                                      00                       .   
```

#### Opcodes

```
  0: 0x011C [0x00] END_REQSTACK()
```

### Event 46

#### Metadata

| Field        | Value     |
|--------------|-----------|
| Entrypoint   | 0x011D    |
| Data Size    | 291 bytes |
| Instructions | 47        |

```
      00 01 02 03 04 05 06 07  08 09 0A 0B 0C 0D 0E 0F
      -- -- -- -- -- -- -- --  -- -- -- -- -- -- -- --
0110:                                         20 01 42                .B
0120: 1E F0 FF FF 7F 06 07 00  02 02 10 18 80 00 37 01  ..............7.
0130: 3C 07 00 00 80 18 80 06  01 10 5B 19 80 F8 FF FF  <.........[.....
0140: 7F F8 FF FF 7F 74 6C 6B  30 03 03 10 1A 80 2B 0C  .....tlk0.....+.
0150: 90 0E 01 1B 80 23 5B 19  80 F8 FF FF 7F F8 FF FF  .....#[.........
0160: 7F 74 6C 6B 31 53 F8 FF  FF 7F F8 FF FF 7F 74 6C  .tlk1S........tl
0170: 6B 31 24 1C 80 1D 80 07  00 25 02 00 10 00 80 00  k1$......%......
0180: C5 01 5B 19 80 F8 FF FF  7F F8 FF FF 7F 74 6C 6B  ..[..........tlk
0190: 30 2B 0C 90 0E 01 1E 80  23 2B 0C 90 0E 01 1F 80  0+......#+......
01A0: 23 5B 19 80 F8 FF FF 7F  F8 FF FF 7F 74 6C 6B 31  #[..........tlk1
01B0: 53 F8 FF FF 7F F8 FF FF  7F 74 6C 6B 31 03 01 10  S........tlk1...
01C0: 18 80 01 3E 02 02 00 10  18 80 00 3E 02 5B 19 80  ...>.......>.[..
01D0: F8 FF FF 7F F8 FF FF 7F  74 68 6B 31 2B 0C 90 0E  ........thk1+...
01E0: 01 20 80 23 24 21 80 18  80 00 80 25 5B 19 80 F8  . .#$!.....%[...
01F0: FF FF 7F F8 FF FF 7F 74  68 6B 32 53 F8 FF FF 7F  .......thk2S....
0200: F8 FF FF 7F 74 68 6B 32  02 00 10 00 80 00 28 02  ....thk2......(.
0210: 2B 0C 90 0E 01 22 80 23  2B 0C 90 0E 01 23 80 23  +....".#+....#.#
0220: 03 01 10 1D 80 01 3B 02  02 00 10 18 80 00 3B 02  ......;.......;.
0230: 2B 0C 90 0E 01 24 80 23  01 3B 02 01 3E 02 21 00  +....$.#.;..>.!.
```

#### Opcodes

```
  0: 0x011D [0x20] SET_CLI_EVENT_UC_FLAG: Lock player control
  1: 0x011F [0x42] SET_CLI_EVENT_CANCEL_DATA()
  2: 0x0120 [0x1E] EventEntity looks at LocalPlayer and starts talking
  3: 0x0125 [0x06] ExtData[1]->WorkLocal[7] = 0
  4: 0x0128 [0x02] IF !(Work_Zone[2] == 1*) GOTO 0x0137
  5: 0x0130 [0x3C] SET_BIT_FLAG_CONDITIONAL(target_work_offset=ExtData[1]->WorkLocal[7], bit_index_work_offset=0*, condition_work_offset=1*)
  6: 0x0137 [0x06] Work_Zone[1] = 0
  7: 0x013A [0x5B] LOAD_EXT_SCHEDULER: Load scheduler "tlk0" with entities [EventEntity, EventEntity], work=140*
  8: 0x0149 [0x03] Work_Zone[3] = 17654*
  9: 0x014E [0x2B] Curilla (ID: 17731596/0x010E900C) [7922*]:
    → "Ah, <Player>. "Trade" me the sword if you wish me to evaluate your progress. Or is there another reason why you have called?"
 10: 0x0155 [0x23] WAIT_FOR_DIALOG_INTERACTION
 11: 0x0156 [0x5B] LOAD_EXT_SCHEDULER: Load scheduler "tlk1" with entities [EventEntity, EventEntity], work=140*
 12: 0x0165 [0x53] WAIT_SCHEDULER_TASK: Wait for scheduler "tlk1" with entities [EventEntity, EventEntity]
 13: 0x0172 [0x24] CREATE_DIALOG(message_id=7923*, default_option=2*, option_flags=ExtData[1]->WorkLocal[7])
    → "Why are you here? [I've misplaced the $1./I wish to end my training./I apologize for the disturbance.]"
 14: 0x0179 [0x25] WAIT_DIALOG_SELECT()
 15: 0x017A [0x02] IF !(Work_Zone[0] == 0*) GOTO 0x01C5
 16: 0x0182 [0x5B] LOAD_EXT_SCHEDULER: Load scheduler "tlk0" with entities [EventEntity, EventEntity], work=140*
 17: 0x0191 [0x2B] Curilla (ID: 17731596/0x010E900C) [7924*]:
    → "The blade that you have "misplaced" was specially ordered for the training of the San d'Orian knights. A large sum of the Kingdom's tax money was used to purchase it. What you have done could be considered a crime!"
 18: 0x0198 [0x23] WAIT_FOR_DIALOG_INTERACTION
 19: 0x0199 [0x2B] Curilla (ID: 17731596/0x010E900C) [7925*]:
    → "<Sigh> But it was I who made the decision to begin your training, therefore I will take responsibility for your actions this time. However, If you do not wish to travel to each and every one of our citizens' residences and make a personal apology for squandering their hard-earned gil, I suggest that you be more careful in the future."
 20: 0x01A0 [0x23] WAIT_FOR_DIALOG_INTERACTION
 21: 0x01A1 [0x5B] LOAD_EXT_SCHEDULER: Load scheduler "tlk1" with entities [EventEntity, EventEntity], work=140*
 22: 0x01B0 [0x53] WAIT_SCHEDULER_TASK: Wait for scheduler "tlk1" with entities [EventEntity, EventEntity]
 23: 0x01BD [0x03] Work_Zone[1] = 1*
 24: 0x01C2 [0x01] GOTO 0x023E
 25: 0x01C5 [0x02] IF !(Work_Zone[0] == 1*) GOTO 0x023E
 26: 0x01CD [0x5B] LOAD_EXT_SCHEDULER: Load scheduler "thk1" with entities [EventEntity, EventEntity], work=140*
 27: 0x01DC [0x2B] Curilla (ID: 17731596/0x010E900C) [7926*]:
    → "You cannot be serious! Think of the opportunity you are passing by! I will give you one more chance..."
 28: 0x01E3 [0x23] WAIT_FOR_DIALOG_INTERACTION
 29: 0x01E4 [0x24] CREATE_DIALOG(message_id=7927*, default_option=1*, option_flags=0*)
    → "Do you really want to end your training? [I am positive./On second thought...]"
 30: 0x01EB [0x25] WAIT_DIALOG_SELECT()
 31: 0x01EC [0x5B] LOAD_EXT_SCHEDULER: Load scheduler "thk2" with entities [EventEntity, EventEntity], work=140*
 32: 0x01FB [0x53] WAIT_SCHEDULER_TASK: Wait for scheduler "thk2" with entities [EventEntity, EventEntity]
 33: 0x0208 [0x02] IF !(Work_Zone[0] == 0*) GOTO 0x0228
 34: 0x0210 [0x2B] Curilla (ID: 17731596/0x010E900C) [7929*]:
    → "I see... I have trained many knights, and among them have been many who put down their swords just as you have. However, with time, those knights have faded into obscurity, their decision haunting them day in and day out."
 35: 0x0217 [0x23] WAIT_FOR_DIALOG_INTERACTION
 36: 0x0218 [0x2B] Curilla (ID: 17731596/0x010E900C) [7930*]:
    → "If you do not wish to join their ranks, return here, and I will reconsider your training. I believe that you will make the correct decision."
 37: 0x021F [0x23] WAIT_FOR_DIALOG_INTERACTION
 38: 0x0220 [0x03] Work_Zone[1] = 2*
 39: 0x0225 [0x01] GOTO 0x023B
 40: 0x0228 [0x02] IF !(Work_Zone[0] == 1*) GOTO 0x023B
 41: 0x0230 [0x2B] Curilla (ID: 17731596/0x010E900C) [7928*]:
    → "Excellent. I am not sure of your intentions today, but if you were searching for kind words of moral support, you will not find them here. Such gibberish can only bind one and lead them to a false sense of success."
 42: 0x0237 [0x23] WAIT_FOR_DIALOG_INTERACTION
 43: 0x0238 [0x01] GOTO 0x023B

SUBROUTINE_023B:
 44: 0x023B [0x01] GOTO 0x023E

SUBROUTINE_023E:
 45: 0x023E [0x21] END_EVENT
 46: 0x023F [0x00] END_REQSTACK()
```

### Event 45

#### Metadata

| Field        | Value    |
|--------------|----------|
| Entrypoint   | 0x0240   |
| Data Size    | 27 bytes |
| Instructions | 7        |

```
      00 01 02 03 04 05 06 07  08 09 0A 0B 0C 0D 0E 0F
      -- -- -- -- -- -- -- --  -- -- -- -- -- -- -- --
0240: 20 01 79 00 F8 FF FF 7F  F0 FF FF 7F 03 02 10 1A   .y.............
0250: 80 2B 0C 90 0E 01 25 80  23 21 00                 .+....%.#!.     
```

#### Opcodes

```
  0: 0x0240 [0x20] SET_CLI_EVENT_UC_FLAG: Lock player control
  1: 0x0242 [0x79] EventEntity looks at LocalPlayer (Basic look)
  2: 0x024C [0x03] Work_Zone[2] = 17654*
  3: 0x0251 [0x2B] Curilla (ID: 17731596/0x010E900C) [7921*]:
    → "I do not yet feel that the $0 has recognized your true strength. You have much road yet to travel."
  4: 0x0258 [0x23] WAIT_FOR_DIALOG_INTERACTION
  5: 0x0259 [0x21] END_EVENT
  6: 0x025A [0x00] END_REQSTACK()
```

### Event 44

#### Metadata

| Field        | Value   |
|--------------|---------|
| Entrypoint   | 0x025B  |
| Data Size    | 1 bytes |
| Instructions | 1       |

```
      00 01 02 03 04 05 06 07  08 09 0A 0B 0C 0D 0E 0F
      -- -- -- -- -- -- -- --  -- -- -- -- -- -- -- --
0250:                                   00                         .    
```

#### Opcodes

```
  0: 0x025B [0x00] END_REQSTACK()
```

### Event 47

#### Metadata

| Field        | Value    |
|--------------|----------|
| Entrypoint   | 0x025C   |
| Data Size    | 32 bytes |
| Instructions | 8        |

```
      00 01 02 03 04 05 06 07  08 09 0A 0B 0C 0D 0E 0F
      -- -- -- -- -- -- -- --  -- -- -- -- -- -- -- --
0250:                                      20 01 79 00               .y.
0260: F8 FF FF 7F F0 FF FF 7F  03 03 10 26 80 03 04 10  ...........&....
0270: 27 80 2B 0C 90 0E 01 28  80 23 21 00              '.+....(.#!.    
```

#### Opcodes

```
  0: 0x025C [0x20] SET_CLI_EVENT_UC_FLAG: Lock player control
  1: 0x025E [0x79] EventEntity looks at LocalPlayer (Basic look)
  2: 0x0268 [0x03] Work_Zone[3] = 344*
  3: 0x026D [0x03] Work_Zone[4] = 345*
  4: 0x0272 [0x2B] Curilla (ID: 17731596/0x010E900C) [7935*]:
    → "Take that $3 and set forth to the Quicksand Caves. There you shall find $6. Be thorough in your preparations, as your greatest challenge awaits you."
  5: 0x0279 [0x23] WAIT_FOR_DIALOG_INTERACTION
  6: 0x027A [0x21] END_EVENT
  7: 0x027B [0x00] END_REQSTACK()
```

### Event 48

#### Metadata

| Field        | Value   |
|--------------|---------|
| Entrypoint   | 0x027C  |
| Data Size    | 1 bytes |
| Instructions | 1       |

```
      00 01 02 03 04 05 06 07  08 09 0A 0B 0C 0D 0E 0F
      -- -- -- -- -- -- -- --  -- -- -- -- -- -- -- --
0270:                                      00                       .   
```

#### Opcodes

```
  0: 0x027C [0x00] END_REQSTACK()
```

### Event 65535.9

#### Metadata

| Field        | Value    |
|--------------|----------|
| Entrypoint   | 0x027D   |
| Data Size    | 20 bytes |
| Instructions | 8        |

```
      00 01 02 03 04 05 06 07  08 09 0A 0B 0C 0D 0E 0F
      -- -- -- -- -- -- -- --  -- -- -- -- -- -- -- --
0270:                                         39 00 80               9..
0280: 6F 70 32 29 80 1F 00 2A  80 2B 80 00 80 1F 01 6F  op2)...*.+.....o
0290: 00                                                .               
```

#### Opcodes

```
  0: 0x027D [0x39] SET_ENTITY_DIRECTION(direction=0.0°*)
  1: 0x0280 [0x6F] WAIT_FRAME_DELAY: Yield until WaitTime reaches zero
  2: 0x0281 [0x70] WAIT_ENTITY_RENDER_FLAG: Wait while EventEntity->Render.Flags3 bit 2 is set (cancel turn if not)
  3: 0x0282 [0x32] ExtData[1]->MainSpeed = 8* * 0.1
  4: 0x0285 [0x1F] MOVE_ENTITY: EventEntity moves to X=30.430*, Z=-0.983*, Y=0.000*
  5: 0x028D [0x1F] MOVE_ENTITY: Update entity position (mode=1)
  6: 0x028F [0x6F] WAIT_FRAME_DELAY: Yield until WaitTime reaches zero
  7: 0x0290 [0x00] END_REQSTACK()
```

### Event 65535.10

#### Metadata

| Field        | Value    |
|--------------|----------|
| Entrypoint   | 0x0291   |
| Data Size    | 27 bytes |
| Instructions | 9        |

```
      00 01 02 03 04 05 06 07  08 09 0A 0B 0C 0D 0E 0F
      -- -- -- -- -- -- -- --  -- -- -- -- -- -- -- --
0290:    32 29 80 1F 00 2C 80  2D 80 00 80 1F 01 6F 1E   2)...,.-.....o.
02A0: F0 FF FF 7F 6F 70 5E 69  64 6C 30 00              ....op^idl0.    
```

#### Opcodes

```
  0: 0x0291 [0x32] ExtData[1]->MainSpeed = 8* * 0.1
  1: 0x0294 [0x1F] MOVE_ENTITY: EventEntity moves to X=29.151*, Z=-0.908*, Y=0.000*
  2: 0x029C [0x1F] MOVE_ENTITY: Update entity position (mode=1)
  3: 0x029E [0x6F] WAIT_FRAME_DELAY: Yield until WaitTime reaches zero
  4: 0x029F [0x1E] EventEntity looks at LocalPlayer and starts talking
  5: 0x02A4 [0x6F] WAIT_FRAME_DELAY: Yield until WaitTime reaches zero
  6: 0x02A5 [0x70] WAIT_ENTITY_RENDER_FLAG: Wait while EventEntity->Render.Flags3 bit 2 is set (cancel turn if not)
  7: 0x02A6 [0x5E] EventEntity goes idle (kills current action) (animation: "idl0")
  8: 0x02AB [0x00] END_REQSTACK()
```

### Event 10

#### Metadata

| Field        | Value    |
|--------------|----------|
| Entrypoint   | 0x02AC   |
| Data Size    | 15 bytes |
| Instructions | 3        |

```
      00 01 02 03 04 05 06 07  08 09 0A 0B 0C 0D 0E 0F
      -- -- -- -- -- -- -- --  -- -- -- -- -- -- -- --
02A0:                                      37 2E 80 2F              7../
02B0: 80 00 80 30 80 5E 64 66  74 30 00                 ...0.^dft0.     
```

#### Opcodes

```
  0: 0x02AC [0x37] UPDATE_EVENT_POSITION_AND_DIR: x=1.312*, z=3.056*, y=0.000*, direction=268.7°*
  1: 0x02B5 [0x5E] EventEntity goes idle (kills current action) (animation: "dft0")
  2: 0x02BA [0x00] END_REQSTACK()
```

### Event 9

#### Metadata

| Field        | Value   |
|--------------|---------|
| Entrypoint   | 0x02BB  |
| Data Size    | 1 bytes |
| Instructions | 1       |

```
      00 01 02 03 04 05 06 07  08 09 0A 0B 0C 0D 0E 0F
      -- -- -- -- -- -- -- --  -- -- -- -- -- -- -- --
02B0:                                   00                         .    
```

#### Opcodes

```
  0: 0x02BB [0x00] END_REQSTACK()
```

### Event 65535.11

#### Metadata

| Field        | Value    |
|--------------|----------|
| Entrypoint   | 0x02BC   |
| Data Size    | 15 bytes |
| Instructions | 3        |

```
      00 01 02 03 04 05 06 07  08 09 0A 0B 0C 0D 0E 0F
      -- -- -- -- -- -- -- --  -- -- -- -- -- -- -- --
02B0:                                      37 31 80 32              71.2
02C0: 80 00 80 33 80 5E 64 66  74 30 00                 ...3.^dft0.     
```

#### Opcodes

```
  0: 0x02BC [0x37] UPDATE_EVENT_POSITION_AND_DIR: x=2.770*, z=-0.814*, y=0.000*, direction=184.8°*
  1: 0x02C5 [0x5E] EventEntity goes idle (kills current action) (animation: "dft0")
  2: 0x02CA [0x00] END_REQSTACK()
```

### Event 100

#### Metadata

| Field        | Value    |
|--------------|----------|
| Entrypoint   | 0x02CB   |
| Data Size    | 17 bytes |
| Instructions | 4        |

```
      00 01 02 03 04 05 06 07  08 09 0A 0B 0C 0D 0E 0F
      -- -- -- -- -- -- -- --  -- -- -- -- -- -- -- --
02C0:                                   22 01 37 34 80             ".74.
02D0: 35 80 01 80 36 80 5E 64  66 74 30 00              5...6.^dft0.    
```

#### Opcodes

```
  0: 0x02CB [0x22] ENTITY_HIDE_FLAG(enabled=0x01)
  1: 0x02CD [0x37] UPDATE_EVENT_POSITION_AND_DIR: x=2.182*, z=24.112*, y=-1.500*, direction=255.9°*
  2: 0x02D6 [0x5E] EventEntity goes idle (kills current action) (animation: "dft0")
  3: 0x02DB [0x00] END_REQSTACK()
```

### Event 530

#### Metadata

| Field        | Value    |
|--------------|----------|
| Entrypoint   | 0x02DC   |
| Data Size    | 96 bytes |
| Instructions | 20       |

```
      00 01 02 03 04 05 06 07  08 09 0A 0B 0C 0D 0E 0F
      -- -- -- -- -- -- -- --  -- -- -- -- -- -- -- --
02D0:                                      1E F0 FF FF              ....
02E0: 7F 6F 70 5B 19 80 F8 FF  FF 7F F8 FF FF 7F 74 6C  .op[..........tl
02F0: 6B 30 1D 37 80 23 1C 05  80 1D 38 80 23 5E 69 64  k0.7.#....8.#^id
0300: 6C 30 1C 05 80 5B 19 80  F8 FF FF 7F F8 FF FF 7F  l0...[..........
0310: 73 77 6F 30 1D 39 80 23  1C 3A 80 5B 19 80 F8 FF  swo0.9.#.:.[....
0320: FF 7F F8 FF FF 7F 73 77  6F 31 53 F8 FF FF 7F F8  ......swo1S.....
0330: FF FF 7F 73 77 6F 31 1C  05 80 21 00              ...swo1...!.    
```

#### Opcodes

```
  0: 0x02DC [0x1E] EventEntity looks at LocalPlayer and starts talking
  1: 0x02E1 [0x6F] WAIT_FRAME_DELAY: Yield until WaitTime reaches zero
  2: 0x02E2 [0x70] WAIT_ENTITY_RENDER_FLAG: Wait while EventEntity->Render.Flags3 bit 2 is set (cancel turn if not)
  3: 0x02E3 [0x5B] LOAD_EXT_SCHEDULER: Load scheduler "tlk0" with entities [EventEntity, EventEntity], work=140*
  4: 0x02F2 [0x1D] PRINT_EVENT_MESSAGE(message_id=7216*)
    → "I am Curilla V Mecru, and these are the Temple Knights' quarters. We are San d'Oria's shield, protecting the walls of the city from fiends."
  5: 0x02F5 [0x23] WAIT_FOR_DIALOG_INTERACTION
  6: 0x02F6 [0x1C] WAIT(30* ticks)
  7: 0x02F9 [0x1D] PRINT_EVENT_MESSAGE(message_id=7217*)
    → "Chateau and city guards also belong to the Temple Knights. Remember, we are here to serve and protect you."
  8: 0x02FC [0x23] WAIT_FOR_DIALOG_INTERACTION
  9: 0x02FD [0x5E] EventEntity goes idle (kills current action) (animation: "idl0")
 10: 0x0302 [0x1C] WAIT(30* ticks)
 11: 0x0305 [0x5B] LOAD_EXT_SCHEDULER: Load scheduler "swo0" with entities [EventEntity, EventEntity], work=140*
 12: 0x0314 [0x1D] PRINT_EVENT_MESSAGE(message_id=7218*)
    → "Of course, we have little patience with unsavory folk. Take care you're not mistaken for one."
 13: 0x0317 [0x23] WAIT_FOR_DIALOG_INTERACTION
 14: 0x0318 [0x1C] WAIT(60* ticks)
 15: 0x031B [0x5B] LOAD_EXT_SCHEDULER: Load scheduler "swo1" with entities [EventEntity, EventEntity], work=140*
 16: 0x032A [0x53] WAIT_SCHEDULER_TASK: Wait for scheduler "swo1" with entities [EventEntity, EventEntity]
 17: 0x0337 [0x1C] WAIT(30* ticks)
 18: 0x033A [0x21] END_EVENT
 19: 0x033B [0x00] END_REQSTACK()
```

### Event 545

#### Metadata

| Field        | Value    |
|--------------|----------|
| Entrypoint   | 0x033C   |
| Data Size    | 59 bytes |
| Instructions | 11       |

```
      00 01 02 03 04 05 06 07  08 09 0A 0B 0C 0D 0E 0F
      -- -- -- -- -- -- -- --  -- -- -- -- -- -- -- --
0330:                                      1E F0 FF FF              ....
0340: 7F 6F 70 5B 19 80 F8 FF  FF 7F F8 FF FF 7F 74 68  .op[..........th
0350: 6B 31 1D 3B 80 23 5B 19  80 F8 FF FF 7F F8 FF FF  k1.;.#[.........
0360: 7F 74 68 6B 32 53 F8 FF  FF 7F F8 FF FF 7F 74 68  .thk2S........th
0370: 6B 32 1C 05 80 21 00                              k2...!.         
```

#### Opcodes

```
  0: 0x033C [0x1E] EventEntity looks at LocalPlayer and starts talking
  1: 0x0341 [0x6F] WAIT_FRAME_DELAY: Yield until WaitTime reaches zero
  2: 0x0342 [0x70] WAIT_ENTITY_RENDER_FLAG: Wait while EventEntity->Render.Flags3 bit 2 is set (cancel turn if not)
  3: 0x0343 [0x5B] LOAD_EXT_SCHEDULER: Load scheduler "thk1" with entities [EventEntity, EventEntity], work=140*
  4: 0x0352 [0x1D] PRINT_EVENT_MESSAGE(message_id=7170*)
    → "Things cannot be allowed to proceed as they are. There must be a way to convince him..."
  5: 0x0355 [0x23] WAIT_FOR_DIALOG_INTERACTION
  6: 0x0356 [0x5B] LOAD_EXT_SCHEDULER: Load scheduler "thk2" with entities [EventEntity, EventEntity], work=140*
  7: 0x0365 [0x53] WAIT_SCHEDULER_TASK: Wait for scheduler "thk2" with entities [EventEntity, EventEntity]
  8: 0x0372 [0x1C] WAIT(30* ticks)
  9: 0x0375 [0x21] END_EVENT
 10: 0x0376 [0x00] END_REQSTACK()
```

### Event 56

#### Metadata

| Field        | Value    |
|--------------|----------|
| Entrypoint   | 0x0377   |
| Data Size    | 56 bytes |
| Instructions | 10       |

```
      00 01 02 03 04 05 06 07  08 09 0A 0B 0C 0D 0E 0F
      -- -- -- -- -- -- -- --  -- -- -- -- -- -- -- --
0370:                      1E  F0 FF FF 7F 6F 70 5B 19         .....op[.
0380: 80 F8 FF FF 7F F8 FF FF  7F 74 68 6B 31 1D 3C 80  .........thk1.<.
0390: 23 5B 19 80 F8 FF FF 7F  F8 FF FF 7F 74 68 6B 32  #[..........thk2
03A0: 53 F8 FF FF 7F F8 FF FF  7F 74 68 6B 32 21 00     S........thk2!. 
```

#### Opcodes

```
  0: 0x0377 [0x1E] EventEntity looks at LocalPlayer and starts talking
  1: 0x037C [0x6F] WAIT_FRAME_DELAY: Yield until WaitTime reaches zero
  2: 0x037D [0x70] WAIT_ENTITY_RENDER_FLAG: Wait while EventEntity->Render.Flags3 bit 2 is set (cancel turn if not)
  3: 0x037E [0x5B] LOAD_EXT_SCHEDULER: Load scheduler "thk1" with entities [EventEntity, EventEntity], work=140*
  4: 0x038D [0x1D] PRINT_EVENT_MESSAGE(message_id=7427*)
    → "It seems we avoided the worst, but my heart quickens. I hope it is naught but my imagination."
  5: 0x0390 [0x23] WAIT_FOR_DIALOG_INTERACTION
  6: 0x0391 [0x5B] LOAD_EXT_SCHEDULER: Load scheduler "thk2" with entities [EventEntity, EventEntity], work=140*
  7: 0x03A0 [0x53] WAIT_SCHEDULER_TASK: Wait for scheduler "thk2" with entities [EventEntity, EventEntity]
  8: 0x03AD [0x21] END_EVENT
  9: 0x03AE [0x00] END_REQSTACK()
```

### Event 57

#### Metadata

| Field        | Value    |
|--------------|----------|
| Entrypoint   | 0x03AF   |
| Data Size    | 36 bytes |
| Instructions | 10       |

```
      00 01 02 03 04 05 06 07  08 09 0A 0B 0C 0D 0E 0F
      -- -- -- -- -- -- -- --  -- -- -- -- -- -- -- --
03A0:                                               1E                 .
03B0: F0 FF FF 7F 6F 70 5B 19  80 F8 FF FF 7F F8 FF FF  ....op[.........
03C0: 7F 73 77 6F 30 1D 3D 80  23 5E 69 64 6C 30 1C 3A  .swo0.=.#^idl0.:
03D0: 80 21 00                                          .!.             
```

#### Opcodes

```
  0: 0x03AF [0x1E] EventEntity looks at LocalPlayer and starts talking
  1: 0x03B4 [0x6F] WAIT_FRAME_DELAY: Yield until WaitTime reaches zero
  2: 0x03B5 [0x70] WAIT_ENTITY_RENDER_FLAG: Wait while EventEntity->Render.Flags3 bit 2 is set (cancel turn if not)
  3: 0x03B6 [0x5B] LOAD_EXT_SCHEDULER: Load scheduler "swo0" with entities [EventEntity, EventEntity], work=140*
  4: 0x03C5 [0x1D] PRINT_EVENT_MESSAGE(message_id=6844*)
    → "I have been assigned to the investigation of a remote island off the west of the Vollbow coast. This will be the first time I have left San d'Oria since I was a knight in training."
  5: 0x03C8 [0x23] WAIT_FOR_DIALOG_INTERACTION
  6: 0x03C9 [0x5E] EventEntity goes idle (kills current action) (animation: "idl0")
  7: 0x03CE [0x1C] WAIT(60* ticks)
  8: 0x03D1 [0x21] END_EVENT
  9: 0x03D2 [0x00] END_REQSTACK()
```

### Event 103

#### Metadata

| Field        | Value    |
|--------------|----------|
| Entrypoint   | 0x03D3   |
| Data Size    | 64 bytes |
| Instructions | 14       |

```
      00 01 02 03 04 05 06 07  08 09 0A 0B 0C 0D 0E 0F
      -- -- -- -- -- -- -- --  -- -- -- -- -- -- -- --
03D0:          1E F0 FF FF 7F  6F 70 5B 19 80 F8 FF FF     .....op[.....
03E0: 7F F8 FF FF 7F 74 68 6B  31 1D 3E 80 23 1D 3F 80  .....thk1.>.#.?.
03F0: 23 1D 40 80 23 5B 19 80  F8 FF FF 7F F8 FF FF 7F  #.@.#[..........
0400: 74 68 6B 32 53 F8 FF FF  7F F8 FF FF 7F 74 68 6B  thk2S........thk
0410: 32 21 00                                          2!.             
```

#### Opcodes

```
  0: 0x03D3 [0x1E] EventEntity looks at LocalPlayer and starts talking
  1: 0x03D8 [0x6F] WAIT_FRAME_DELAY: Yield until WaitTime reaches zero
  2: 0x03D9 [0x70] WAIT_ENTITY_RENDER_FLAG: Wait while EventEntity->Render.Flags3 bit 2 is set (cancel turn if not)
  3: 0x03DA [0x5B] LOAD_EXT_SCHEDULER: Load scheduler "thk1" with entities [EventEntity, EventEntity], work=140*
  4: 0x03E9 [0x1D] PRINT_EVENT_MESSAGE(message_id=6851*)
    → "We located Lightbringer on a small, remote island off the coast of Vollbow."
  5: 0x03EC [0x23] WAIT_FOR_DIALOG_INTERACTION
  6: 0x03ED [0x1D] PRINT_EVENT_MESSAGE(message_id=6852*)
    → "Once a part of Vollbow, the island was ripped away from the mainland by the force of the beastmen's terrible weapons. Now the area is nothing but a wasteland."
  7: 0x03F0 [0x23] WAIT_FOR_DIALOG_INTERACTION
  8: 0x03F1 [0x1D] PRINT_EVENT_MESSAGE(message_id=6853*)
    → "When I took the sword up in my hands, I could feel something running through it. At that moment, I knew I was holding the true sword of King Ranperre."
  9: 0x03F4 [0x23] WAIT_FOR_DIALOG_INTERACTION
 10: 0x03F5 [0x5B] LOAD_EXT_SCHEDULER: Load scheduler "thk2" with entities [EventEntity, EventEntity], work=140*
 11: 0x0404 [0x53] WAIT_SCHEDULER_TASK: Wait for scheduler "thk2" with entities [EventEntity, EventEntity]
 12: 0x0411 [0x21] END_EVENT
 13: 0x0412 [0x00] END_REQSTACK()
```

### Event 16

#### Metadata

| Field        | Value    |
|--------------|----------|
| Entrypoint   | 0x0413   |
| Data Size    | 56 bytes |
| Instructions | 10       |

```
      00 01 02 03 04 05 06 07  08 09 0A 0B 0C 0D 0E 0F
      -- -- -- -- -- -- -- --  -- -- -- -- -- -- -- --
0410:          1E F0 FF FF 7F  6F 70 5B 19 80 F8 FF FF     .....op[.....
0420: 7F F8 FF FF 7F 74 6C 6B  30 1D 41 80 23 5B 19 80  .....tlk0.A.#[..
0430: F8 FF FF 7F F8 FF FF 7F  74 6C 6B 31 53 F8 FF FF  ........tlk1S...
0440: 7F F8 FF FF 7F 74 6C 6B  31 21 00                 .....tlk1!.     
```

#### Opcodes

```
  0: 0x0413 [0x1E] EventEntity looks at LocalPlayer and starts talking
  1: 0x0418 [0x6F] WAIT_FRAME_DELAY: Yield until WaitTime reaches zero
  2: 0x0419 [0x70] WAIT_ENTITY_RENDER_FLAG: Wait while EventEntity->Render.Flags3 bit 2 is set (cancel turn if not)
  3: 0x041A [0x5B] LOAD_EXT_SCHEDULER: Load scheduler "tlk0" with entities [EventEntity, EventEntity], work=140*
  4: 0x0429 [0x1D] PRINT_EVENT_MESSAGE(message_id=7763*)
    → "I have heard the rumors of the fate of Rochefogne. However, I will not believe he is dead until I have seen the body with my own eyes."
  5: 0x042C [0x23] WAIT_FOR_DIALOG_INTERACTION
  6: 0x042D [0x5B] LOAD_EXT_SCHEDULER: Load scheduler "tlk1" with entities [EventEntity, EventEntity], work=140*
  7: 0x043C [0x53] WAIT_SCHEDULER_TASK: Wait for scheduler "tlk1" with entities [EventEntity, EventEntity]
  8: 0x0449 [0x21] END_EVENT
  9: 0x044A [0x00] END_REQSTACK()
```

### Event 17

#### Metadata

| Field        | Value    |
|--------------|----------|
| Entrypoint   | 0x044B   |
| Data Size    | 69 bytes |
| Instructions | 11       |

```
      00 01 02 03 04 05 06 07  08 09 0A 0B 0C 0D 0E 0F
      -- -- -- -- -- -- -- --  -- -- -- -- -- -- -- --
0440:                                   1E F0 FF FF 7F             .....
0450: 6F 70 5B 19 80 F8 FF FF  7F F8 FF FF 7F 73 77 6F  op[..........swo
0460: 30 1D 42 80 23 53 F8 FF  FF 7F F8 FF FF 7F 73 77  0.B.#S........sw
0470: 6F 30 5B 19 80 F8 FF FF  7F F8 FF FF 7F 73 77 6F  o0[..........swo
0480: 31 53 F8 FF FF 7F F8 FF  FF 7F 73 77 6F 31 21 00  1S........swo1!.
```

#### Opcodes

```
  0: 0x044B [0x1E] EventEntity looks at LocalPlayer and starts talking
  1: 0x0450 [0x6F] WAIT_FRAME_DELAY: Yield until WaitTime reaches zero
  2: 0x0451 [0x70] WAIT_ENTITY_RENDER_FLAG: Wait while EventEntity->Render.Flags3 bit 2 is set (cancel turn if not)
  3: 0x0452 [0x5B] LOAD_EXT_SCHEDULER: Load scheduler "swo0" with entities [EventEntity, EventEntity], work=140*
  4: 0x0461 [0x1D] PRINT_EVENT_MESSAGE(message_id=7765*)
    → "We have increased the guard for the Rites of Succession twofold. We do not wish a repeat of the fiasco caused by Rochefogne at the coming-of-age ceremony."
  5: 0x0464 [0x23] WAIT_FOR_DIALOG_INTERACTION
  6: 0x0465 [0x53] WAIT_SCHEDULER_TASK: Wait for scheduler "swo0" with entities [EventEntity, EventEntity]
  7: 0x0472 [0x5B] LOAD_EXT_SCHEDULER: Load scheduler "swo1" with entities [EventEntity, EventEntity], work=140*
  8: 0x0481 [0x53] WAIT_SCHEDULER_TASK: Wait for scheduler "swo1" with entities [EventEntity, EventEntity]
  9: 0x048E [0x21] END_EVENT
 10: 0x048F [0x00] END_REQSTACK()
```

### Event 18

#### Metadata

| Field        | Value    |
|--------------|----------|
| Entrypoint   | 0x0490   |
| Data Size    | 73 bytes |
| Instructions | 13       |

```
      00 01 02 03 04 05 06 07  08 09 0A 0B 0C 0D 0E 0F
      -- -- -- -- -- -- -- --  -- -- -- -- -- -- -- --
0490: 1E F0 FF FF 7F 6F 70 1D  43 80 23 5B 19 80 F8 FF  .....op.C.#[....
04A0: FF 7F F8 FF FF 7F 73 77  6F 30 1D 44 80 23 53 F8  ......swo0.D.#S.
04B0: FF FF 7F F8 FF FF 7F 73  77 6F 30 5B 19 80 F8 FF  .......swo0[....
04C0: FF 7F F8 FF FF 7F 73 77  6F 31 53 F8 FF FF 7F F8  ......swo1S.....
04D0: FF FF 7F 73 77 6F 31 21  00                       ...swo1!.       
```

#### Opcodes

```
  0: 0x0490 [0x1E] EventEntity looks at LocalPlayer and starts talking
  1: 0x0495 [0x6F] WAIT_FRAME_DELAY: Yield until WaitTime reaches zero
  2: 0x0496 [0x70] WAIT_ENTITY_RENDER_FLAG: Wait while EventEntity->Render.Flags3 bit 2 is set (cancel turn if not)
  3: 0x0497 [0x1D] PRINT_EVENT_MESSAGE(message_id=7803*)
    → "It is time for the Temple Knights and the Royal Knights to put their differences aside for the good of the Kingdom. We must retrieve Lightbringer at all costs!"
  4: 0x049A [0x23] WAIT_FOR_DIALOG_INTERACTION
  5: 0x049B [0x5B] LOAD_EXT_SCHEDULER: Load scheduler "swo0" with entities [EventEntity, EventEntity], work=140*
  6: 0x04AA [0x1D] PRINT_EVENT_MESSAGE(message_id=7804*)
    → "Let this battle once again bring glory to the Temple Knights!"
  7: 0x04AD [0x23] WAIT_FOR_DIALOG_INTERACTION
  8: 0x04AE [0x53] WAIT_SCHEDULER_TASK: Wait for scheduler "swo0" with entities [EventEntity, EventEntity]
  9: 0x04BB [0x5B] LOAD_EXT_SCHEDULER: Load scheduler "swo1" with entities [EventEntity, EventEntity], work=140*
 10: 0x04CA [0x53] WAIT_SCHEDULER_TASK: Wait for scheduler "swo1" with entities [EventEntity, EventEntity]
 11: 0x04D7 [0x21] END_EVENT
 12: 0x04D8 [0x00] END_REQSTACK()
```

### Event 19

#### Metadata

| Field        | Value    |
|--------------|----------|
| Entrypoint   | 0x04D9   |
| Data Size    | 60 bytes |
| Instructions | 12       |

```
      00 01 02 03 04 05 06 07  08 09 0A 0B 0C 0D 0E 0F
      -- -- -- -- -- -- -- --  -- -- -- -- -- -- -- --
04D0:                             1E F0 FF FF 7F 6F 70           .....op
04E0: 5B 19 80 F8 FF FF 7F F8  FF FF 7F 74 6C 6B 30 1D  [..........tlk0.
04F0: 45 80 23 1D 46 80 23 5B  19 80 F8 FF FF 7F F8 FF  E.#.F.#[........
0500: FF 7F 74 6C 6B 31 53 F8  FF FF 7F F8 FF FF 7F 74  ..tlk1S........t
0510: 6C 6B 31 21 00                                    lk1!.           
```

#### Opcodes

```
  0: 0x04D9 [0x1E] EventEntity looks at LocalPlayer and starts talking
  1: 0x04DE [0x6F] WAIT_FRAME_DELAY: Yield until WaitTime reaches zero
  2: 0x04DF [0x70] WAIT_ENTITY_RENDER_FLAG: Wait while EventEntity->Render.Flags3 bit 2 is set (cancel turn if not)
  3: 0x04E0 [0x5B] LOAD_EXT_SCHEDULER: Load scheduler "tlk0" with entities [EventEntity, EventEntity], work=140*
  4: 0x04EF [0x1D] PRINT_EVENT_MESSAGE(message_id=7849*)
    → "Our mission is finally over... I feel that sometimes we soldiers forget the frailty of life until we see it lost before our eyes on the battlefield."
  5: 0x04F2 [0x23] WAIT_FOR_DIALOG_INTERACTION
  6: 0x04F3 [0x1D] PRINT_EVENT_MESSAGE(message_id=7850*)
    → "However, that gives us all the more reason to continue the fight. We cannot let those who have parted with us be forgotten. If you can spare a moment, journey to the cathedral and offer a prayer for the souls that gave their lives for the glory of the Kingdom."
  7: 0x04F6 [0x23] WAIT_FOR_DIALOG_INTERACTION
  8: 0x04F7 [0x5B] LOAD_EXT_SCHEDULER: Load scheduler "tlk1" with entities [EventEntity, EventEntity], work=140*
  9: 0x0506 [0x53] WAIT_SCHEDULER_TASK: Wait for scheduler "tlk1" with entities [EventEntity, EventEntity]
 10: 0x0513 [0x21] END_EVENT
 11: 0x0514 [0x00] END_REQSTACK()
```

### Event 20

#### Metadata

| Field        | Value     |
|--------------|-----------|
| Entrypoint   | 0x0515    |
| Data Size    | 102 bytes |
| Instructions | 24        |

```
      00 01 02 03 04 05 06 07  08 09 0A 0B 0C 0D 0E 0F
      -- -- -- -- -- -- -- --  -- -- -- -- -- -- -- --
0510:                1E F0 FF  FF 7F 6F 70 5B 19 80 F8       .....op[...
0520: FF FF 7F F8 FF FF 7F 74  6C 6B 30 1D 47 80 23 1D  .......tlk0.G.#.
0530: 48 80 23 24 49 80 18 80  00 80 25 02 00 10 00 80  H.#$I.....%.....
0540: 00 4A 05 1D 4A 80 23 01  59 05 02 00 10 18 80 00  .J..J.#.Y.......
0550: 59 05 1D 4B 80 23 01 59  05 1D 4C 80 23 5B 19 80  Y..K.#.Y..L.#[..
0560: F8 FF FF 7F F8 FF FF 7F  74 6C 6B 31 53 F8 FF FF  ........tlk1S...
0570: 7F F8 FF FF 7F 74 6C 6B  31 21 00                 .....tlk1!.     
```

#### Opcodes

```
  0: 0x0515 [0x1E] EventEntity looks at LocalPlayer and starts talking
  1: 0x051A [0x6F] WAIT_FRAME_DELAY: Yield until WaitTime reaches zero
  2: 0x051B [0x70] WAIT_ENTITY_RENDER_FLAG: Wait while EventEntity->Render.Flags3 bit 2 is set (cancel turn if not)
  3: 0x051C [0x5B] LOAD_EXT_SCHEDULER: Load scheduler "tlk0" with entities [EventEntity, EventEntity], work=140*
  4: 0x052B [0x1D] PRINT_EVENT_MESSAGE(message_id=7867*)
    → "The conflict with the Orcs may be finally coming to an end, but I doubt that instant peace will follow. We Temple Knights must remain alert at all times, lest danger rear its head within the boundaries of our noble kingdom."
  5: 0x052E [0x23] WAIT_FOR_DIALOG_INTERACTION
  6: 0x052F [0x1D] PRINT_EVENT_MESSAGE(message_id=7868*)
    → "<Player>, would you not consider joining our ranks? You have much untapped potential."
  7: 0x0532 [0x23] WAIT_FOR_DIALOG_INTERACTION
  8: 0x0533 [0x24] CREATE_DIALOG(message_id=7869*, default_option=1*, option_flags=0*)
    → "Join the Temple Knights? [Yes./No.]"
  9: 0x053A [0x25] WAIT_DIALOG_SELECT()
 10: 0x053B [0x02] IF !(Work_Zone[0] == 0*) GOTO 0x054A
 11: 0x0543 [0x1D] PRINT_EVENT_MESSAGE(message_id=7870*)
    → "While I am flattered by your enthusiasm, I know that you would not be satisfied if tied down by the duties of the knights. Your place is under the open skies of Vana'diel."
 12: 0x0546 [0x23] WAIT_FOR_DIALOG_INTERACTION
 13: 0x0547 [0x01] GOTO 0x0559
 14: 0x054A [0x02] IF !(Work_Zone[0] == 1*) GOTO 0x0559
 15: 0x0552 [0x1D] PRINT_EVENT_MESSAGE(message_id=7871*)
    → "As I expected. I know that you would not be satisfied if tied down by the duties of the knights. Your place is under the open skies of Vana'diel."
 16: 0x0555 [0x23] WAIT_FOR_DIALOG_INTERACTION
 17: 0x0556 [0x01] GOTO 0x0559

SUBROUTINE_0559:
 18: 0x0559 [0x1D] PRINT_EVENT_MESSAGE(message_id=7872*)
    → "Now go! Adventure awaits!"
 19: 0x055C [0x23] WAIT_FOR_DIALOG_INTERACTION
 20: 0x055D [0x5B] LOAD_EXT_SCHEDULER: Load scheduler "tlk1" with entities [EventEntity, EventEntity], work=140*
 21: 0x056C [0x53] WAIT_SCHEDULER_TASK: Wait for scheduler "tlk1" with entities [EventEntity, EventEntity]
 22: 0x0579 [0x21] END_EVENT
 23: 0x057A [0x00] END_REQSTACK()
```

### Event 55

#### Metadata

| Field        | Value     |
|--------------|-----------|
| Entrypoint   | 0x057B    |
| Data Size    | 538 bytes |
| Instructions | 87        |

```
      00 01 02 03 04 05 06 07  08 09 0A 0B 0C 0D 0E 0F
      -- -- -- -- -- -- -- --  -- -- -- -- -- -- -- --
0570:                                   06 01 10 03 08             .....
0580: 00 02 10 42 75 00 4D 80  75 01 5B 19 80 0C 90 0E  ...Bu.M.u.[.....
0590: 01 0C 90 0E 01 00 FE FE  FE 4A 0C 90 0E 01 F0 FF  .........J......
05A0: FF 7F 6F 76 0C 90 0E 01  02 08 00 18 80 00 09 06  ..ov............
05B0: 2B 0C 90 0E 01 4E 80 23  24 4F 80 18 80 00 80 25  +....N.#$O.....%
05C0: 02 00 10 00 80 00 F4 05  03 01 10 18 80 5B 19 80  .............[..
05D0: 0C 90 0E 01 0C 90 0E 01  70 61 73 30 2B 0C 90 0E  ........pas0+...
05E0: 01 50 80 23 53 0C 90 0E  01 0C 90 0E 01 70 61 73  .P.#S........pas
05F0: 30 01 07 06 02 00 10 18  80 00 07 06 2B 0C 90 0E  0...........+...
0600: 01 51 80 23 01 07 06 21  00 46 01 1A 67 09 1C 52  .Q.#...!.F..g..R
0610: 80 29 10 F0 FF FF 7F 4F  4A 0C 90 0E 01 F0 FF FF  .).....OJ.......
0620: 7F 6F 76 0C 90 0E 01 5B  19 80 0C 90 0E 01 0C 90  .ov....[........
0630: 0E 01 74 6C 6B 30 45 53  80 F0 FF FF 7F F0 FF FF  ..tlk0ES........
0640: 7F 73 67 30 31 00 80 38  54 80 1A 88 09 2B 0C 90  .sg01..8T....+..
0650: 0E 01 55 80 23 5B 19 80  0C 90 0E 01 0C 90 0E 01  ..U.#[..........
0660: 74 6C 6B 31 55 53 80 F0  FF FF 7F F0 FF FF 7F 73  tlk1US.........s
0670: 67 30 31 24 56 80 18 80  00 80 25 02 00 10 00 80  g01$V.....%.....
0680: 00 95 06 6E F0 FF FF 7F  57 80 99 F0 FF FF 7F 1C  ...n....W.......
0690: 58 80 01 A3 06 02 00 10  18 80 00 A3 06 01 0D 07  X...............
06A0: 01 A3 06 53 0C 90 0E 01  0C 90 0E 01 74 6C 6B 31  ...S........tlk1
06B0: 5B 19 80 0C 90 0E 01 0C  90 0E 01 74 6C 6B 30 2B  [..........tlk0+
06C0: 0C 90 0E 01 59 80 23 2B  0C 90 0E 01 5A 80 23 5B  ....Y.#+....Z.#[
06D0: 19 80 0C 90 0E 01 0C 90  0E 01 74 6C 6B 31 24 4F  ..........tlk1$O
06E0: 80 18 80 00 80 25 02 00  10 00 80 00 05 07 03 01  .....%..........
06F0: 10 18 80 6E F0 FF FF 7F  57 80 99 F0 FF FF 7F 1C  ...n....W.......
0700: 58 80 01 46 07 02 00 10  18 80 00 46 07 6E F0 FF  X..F.......F.n..
0710: FF 7F 5B 80 99 F0 FF FF  7F 1C 3A 80 53 0C 90 0E  ..[.......:.S...
0720: 01 0C 90 0E 01 74 6C 6B  31 5B 19 80 0C 90 0E 01  .....tlk1[......
0730: 0C 90 0E 01 74 68 6B 31  2B 0C 90 0E 01 51 80 23  ....thk1+....Q.#
0740: 01 7A 07 01 46 07 53 0C  90 0E 01 0C 90 0E 01 74  .z..F.S........t
0750: 6C 6B 31 1C 52 80 5B 19  80 0C 90 0E 01 0C 90 0E  lk1.R.[.........
0760: 01 70 61 73 30 2B 0C 90  0E 01 50 80 23 53 0C 90  .pas0+....P.#S..
0770: 0E 01 0C 90 0E 01 70 61  73 30 1A 67 09 1C 52 80  ......pas0.g..R.
0780: 45 0B 80 F0 FF FF 7F F0  FF FF 7F 66 64 69 32 00  E..........fdi2.
0790: 80 46 00 21 00                                    .F.!.           
```

#### Opcodes

```
  0: 0x057B [0x06] Work_Zone[1] = 0
  1: 0x057E [0x03] ExtData[1]->WorkLocal[8] = Work_Zone[2]
  2: 0x0583 [0x42] SET_CLI_EVENT_CANCEL_DATA()
  3: 0x0584 [0x75] LOAD_ROOM(Load indoor room, room=371*)
  4: 0x0588 [0x75] LOAD_ROOM(No action)
  5: 0x058A [0x5B] LOAD_EXT_SCHEDULER: Load scheduler 0xFEFEFE00 with entities [Curilla (ID: 17731596/0x010E900C), Curilla (ID: 17731596/0x010E900C)], work=140*
  6: 0x0599 [0x4A] Curilla (ID: 17731596/0x010E900C) looks at LocalPlayer
  7: 0x05A2 [0x6F] WAIT_FRAME_DELAY: Yield until WaitTime reaches zero
  8: 0x05A3 [0x76] CHECK_ENTITY_RENDER_FLAGS: Wait until Curilla (ID: 17731596/0x010E900C) Render.Flags0 and Render.Flags3 conditions are met
  9: 0x05A8 [0x02] IF !(ExtData[1]->WorkLocal[8] == 1*) GOTO 0x0609
 10: 0x05B0 [0x2B] Curilla (ID: 17731596/0x010E900C) [7394*]:
    → "Ah, it's you again! Have you decided to accept my request?"
 11: 0x05B7 [0x23] WAIT_FOR_DIALOG_INTERACTION
 12: 0x05B8 [0x24] CREATE_DIALOG(message_id=7391*, default_option=1*, option_flags=0*)
    → "Accept Curilla's request? [Accept./Decline.]"
 13: 0x05BF [0x25] WAIT_DIALOG_SELECT()
 14: 0x05C0 [0x02] IF !(Work_Zone[0] == 0*) GOTO 0x05F4
 15: 0x05C8 [0x03] Work_Zone[1] = 1*
 16: 0x05CD [0x5B] LOAD_EXT_SCHEDULER: Load scheduler "pas0" with entities [Curilla (ID: 17731596/0x010E900C), Curilla (ID: 17731596/0x010E900C)], work=140*
 17: 0x05DC [0x2B] Curilla (ID: 17731596/0x010E900C) [7392*]:
    → "Then, good luck! Use this to draw water from the spring atop Horlais Peak."
 18: 0x05E3 [0x23] WAIT_FOR_DIALOG_INTERACTION
 19: 0x05E4 [0x53] WAIT_SCHEDULER_TASK: Wait for scheduler "pas0" with entities [Curilla (ID: 17731596/0x010E900C), Curilla (ID: 17731596/0x010E900C)]
 20: 0x05F1 [0x01] GOTO 0x0607
 21: 0x05F4 [0x02] IF !(Work_Zone[0] == 1*) GOTO 0x0607
 22: 0x05FC [0x2B] Curilla (ID: 17731596/0x010E900C) [7393*]:
    → "That is unfortunate. I'll ask somebody else."
 23: 0x0603 [0x23] WAIT_FOR_DIALOG_INTERACTION
 24: 0x0604 [0x01] GOTO 0x0607

SUBROUTINE_0607:
 25: 0x0607 [0x21] END_EVENT
 26: 0x0608 [0x00] END_REQSTACK()
 27: 0x0609 [0x46] CAMERA_CONTROL: Disable user control
 28: 0x060B [0x1A] CALL_SUBROUTINE(address=0x0967)
 29: 0x060E [0x1C] WAIT(15* ticks)
 30: 0x0611 [0x29] REQ_SET_WAIT(priority=0x10, entity_id=LocalPlayer, tag_num=0x4F)
 31: 0x0618 [0x4A] Curilla (ID: 17731596/0x010E900C) looks at LocalPlayer
 32: 0x0621 [0x6F] WAIT_FRAME_DELAY: Yield until WaitTime reaches zero
 33: 0x0622 [0x76] CHECK_ENTITY_RENDER_FLAGS: Wait until Curilla (ID: 17731596/0x010E900C) Render.Flags0 and Render.Flags3 conditions are met
 34: 0x0627 [0x5B] LOAD_EXT_SCHEDULER: Load scheduler "tlk0" with entities [Curilla (ID: 17731596/0x010E900C), Curilla (ID: 17731596/0x010E900C)], work=140*
 35: 0x0636 [0x45] LOAD_SCHEDULED_TASK: Load scheduler "sg01" with entities [LocalPlayer, LocalPlayer], work=[133*, 0*]
 36: 0x0647 [0x38] SET_CLIENT_EVENT_MODE(mode=3*)
 37: 0x064A [0x1A] CALL_SUBROUTINE(address=0x0988)
 38: 0x064D [0x2B] Curilla (ID: 17731596/0x010E900C) [7387*]:
    → "You are an adventurer in good standing, are you not? I have a request for you, if you've the time."
 39: 0x0654 [0x23] WAIT_FOR_DIALOG_INTERACTION
 40: 0x0655 [0x5B] LOAD_EXT_SCHEDULER: Load scheduler "tlk1" with entities [Curilla (ID: 17731596/0x010E900C), Curilla (ID: 17731596/0x010E900C)], work=140*
 41: 0x0664 [0x55] WAIT_LOAD_SCHEDULER: Wait for scheduler "sg01" with entities [LocalPlayer, LocalPlayer], work=133*
 42: 0x0673 [0x24] CREATE_DIALOG(message_id=7388*, default_option=1*, option_flags=0*)
    → "Listen to Curilla's request? [Listen./Not now.]"
 43: 0x067A [0x25] WAIT_DIALOG_SELECT()
 44: 0x067B [0x02] IF !(Work_Zone[0] == 0*) GOTO 0x0695
 45: 0x0683 [0x6E] LocalPlayer uses emote 7*
 46: 0x068A [0x99] Wait for LocalPlayer animation to complete
 47: 0x068F [0x1C] WAIT(45* ticks)
 48: 0x0692 [0x01] GOTO 0x06A3
 49: 0x0695 [0x02] IF !(Work_Zone[0] == 1*) GOTO 0x06A3
 50: 0x069D [0x01] GOTO 0x070D

SUBROUTINE_06A3:
 51: 0x06A3 [0x53] WAIT_SCHEDULER_TASK: Wait for scheduler "tlk1" with entities [Curilla (ID: 17731596/0x010E900C), Curilla (ID: 17731596/0x010E900C)]
 52: 0x06B0 [0x5B] LOAD_EXT_SCHEDULER: Load scheduler "tlk0" with entities [Curilla (ID: 17731596/0x010E900C), Curilla (ID: 17731596/0x010E900C)], work=140*
 53: 0x06BF [0x2B] Curilla (ID: 17731596/0x010E900C) [7389*]:
    → "There is a spring atop Horlais Peak from which the sweetest water flows. I want you to bring me some. I could have one of my knights bring it, but...I would like to keep this an outside job."
 54: 0x06C6 [0x23] WAIT_FOR_DIALOG_INTERACTION
 55: 0x06C7 [0x2B] Curilla (ID: 17731596/0x010E900C) [7390*]:
    → "Why? I have my reasons. Tell me, will you do it?"
 56: 0x06CE [0x23] WAIT_FOR_DIALOG_INTERACTION
 57: 0x06CF [0x5B] LOAD_EXT_SCHEDULER: Load scheduler "tlk1" with entities [Curilla (ID: 17731596/0x010E900C), Curilla (ID: 17731596/0x010E900C)], work=140*
 58: 0x06DE [0x24] CREATE_DIALOG(message_id=7391*, default_option=1*, option_flags=0*)
    → "Accept Curilla's request? [Accept./Decline.]"
 59: 0x06E5 [0x25] WAIT_DIALOG_SELECT()
 60: 0x06E6 [0x02] IF !(Work_Zone[0] == 0*) GOTO 0x0705
 61: 0x06EE [0x03] Work_Zone[1] = 1*
 62: 0x06F3 [0x6E] LocalPlayer uses emote 7*
 63: 0x06FA [0x99] Wait for LocalPlayer animation to complete
 64: 0x06FF [0x1C] WAIT(45* ticks)
 65: 0x0702 [0x01] GOTO 0x0746
 66: 0x0705 [0x02] IF !(Work_Zone[0] == 1*) GOTO 0x0746

SUBROUTINE_070D:
 67: 0x070D [0x6E] LocalPlayer uses emote 6*
 68: 0x0714 [0x99] Wait for LocalPlayer animation to complete
 69: 0x0719 [0x1C] WAIT(60* ticks)
 70: 0x071C [0x53] WAIT_SCHEDULER_TASK: Wait for scheduler "tlk1" with entities [Curilla (ID: 17731596/0x010E900C), Curilla (ID: 17731596/0x010E900C)]
 71: 0x0729 [0x5B] LOAD_EXT_SCHEDULER: Load scheduler "thk1" with entities [Curilla (ID: 17731596/0x010E900C), Curilla (ID: 17731596/0x010E900C)], work=140*
 72: 0x0738 [0x2B] Curilla (ID: 17731596/0x010E900C) [7393*]:
    → "That is unfortunate. I'll ask somebody else."
 73: 0x073F [0x23] WAIT_FOR_DIALOG_INTERACTION
 74: 0x0740 [0x01] GOTO 0x077A

SUBROUTINE_0746:
 75: 0x0746 [0x53] WAIT_SCHEDULER_TASK: Wait for scheduler "tlk1" with entities [Curilla (ID: 17731596/0x010E900C), Curilla (ID: 17731596/0x010E900C)]
 76: 0x0753 [0x1C] WAIT(15* ticks)
 77: 0x0756 [0x5B] LOAD_EXT_SCHEDULER: Load scheduler "pas0" with entities [Curilla (ID: 17731596/0x010E900C), Curilla (ID: 17731596/0x010E900C)], work=140*
 78: 0x0765 [0x2B] Curilla (ID: 17731596/0x010E900C) [7392*]:
    → "Then, good luck! Use this to draw water from the spring atop Horlais Peak."
 79: 0x076C [0x23] WAIT_FOR_DIALOG_INTERACTION
 80: 0x076D [0x53] WAIT_SCHEDULER_TASK: Wait for scheduler "pas0" with entities [Curilla (ID: 17731596/0x010E900C), Curilla (ID: 17731596/0x010E900C)]

SUBROUTINE_077A:
 81: 0x077A [0x1A] CALL_SUBROUTINE(address=0x0967)
 82: 0x077D [0x1C] WAIT(15* ticks)
 83: 0x0780 [0x45] LOAD_SCHEDULED_TASK: Load scheduler "fdi2" with entities [LocalPlayer, LocalPlayer], work=[200*, 0*]
 84: 0x0791 [0x46] CAMERA_CONTROL: Restore default settings
 85: 0x0793 [0x21] END_EVENT
 86: 0x0794 [0x00] END_REQSTACK()
```

#### Data or dead code:

```
# Dead code (unreachable instructions):
     0x06A0 [0x01] GOTO 0x06A3
# Dead code (unreachable instructions):
     0x0743 [0x01] GOTO 0x0746
```

### Event 53

#### Metadata

| Field        | Value    |
|--------------|----------|
| Entrypoint   | 0x0795   |
| Data Size    | 18 bytes |
| Instructions | 8        |

```
      00 01 02 03 04 05 06 07  08 09 0A 0B 0C 0D 0E 0F
      -- -- -- -- -- -- -- --  -- -- -- -- -- -- -- --
0790:                1E F0 FF  FF 7F 6F 70 03 02 10 5C       .....op...\
07A0: 80 1D 5D 80 23 21 00                              ..].#!.         
```

#### Opcodes

```
  0: 0x0795 [0x1E] EventEntity looks at LocalPlayer and starts talking
  1: 0x079A [0x6F] WAIT_FRAME_DELAY: Yield until WaitTime reaches zero
  2: 0x079B [0x70] WAIT_ENTITY_RENDER_FLAG: Wait while EventEntity->Render.Flags3 bit 2 is set (cancel turn if not)
  3: 0x079C [0x03] Work_Zone[2] = 164*
  4: 0x07A1 [0x1D] PRINT_EVENT_MESSAGE(message_id=7381*)
    → "Listen, I want you to bring me water that flows from Horlais Peak. Use this bottle to draw it. I'll be waiting!"
  5: 0x07A4 [0x23] WAIT_FOR_DIALOG_INTERACTION
  6: 0x07A5 [0x21] END_EVENT
  7: 0x07A6 [0x00] END_REQSTACK()
```

### Event 54

#### Metadata

| Field        | Value     |
|--------------|-----------|
| Entrypoint   | 0x07A7    |
| Data Size    | 547 bytes |
| Instructions | 65        |

```
      00 01 02 03 04 05 06 07  08 09 0A 0B 0C 0D 0E 0F
      -- -- -- -- -- -- -- --  -- -- -- -- -- -- -- --
07A0:                      42  75 00 4D 80 75 01 4A 0C         Bu.M.u.J.
07B0: 90 0E 01 F0 FF FF 7F 6F  76 0C 90 0E 01 46 01 1A  .......ov....F..
07C0: 67 09 1C 52 80 38 54 80  5B 19 80 0C 90 0E 01 0C  g..R.8T.[.......
07D0: 90 0E 01 00 FE FE FE 29  10 F0 FF FF 7F 4F 4A 0C  .......).....OJ.
07E0: 90 0E 01 F0 FF FF 7F 6F  76 0C 90 0E 01 5B 19 80  .......ov....[..
07F0: 0C 90 0E 01 0C 90 0E 01  74 6C 6B 30 45 53 80 F0  ........tlk0ES..
0800: FF FF 7F F0 FF FF 7F 73  67 30 31 00 80 38 54 80  .......sg01..8T.
0810: 1A 88 09 2B 0C 90 0E 01  5E 80 23 2B 0C 90 0E 01  ...+....^.#+....
0820: 5F 80 23 5B 19 80 0C 90  0E 01 0C 90 0E 01 74 6C  _.#[..........tl
0830: 6B 31 53 0C 90 0E 01 0C  90 0E 01 74 6C 6B 31 4B  k1S........tlk1K
0840: 0C 90 0E 01 60 80 6F 76  0C 90 0E 01 55 53 80 F0  ....`.ov....US..
0850: FF FF 7F F0 FF FF 7F 73  67 30 31 45 53 80 F0 FF  .......sg01ES...
0860: FF 7F F0 FF FF 7F 73 67  30 32 00 80 5B 19 80 0C  ......sg02..[...
0870: 90 0E 01 0C 90 0E 01 74  68 6B 31 53 0C 90 0E 01  .......thk1S....
0880: 0C 90 0E 01 74 68 6B 31  2B 0C 90 0E 01 61 80 23  ....thk1+....a.#
0890: 2B 0C 90 0E 01 62 80 23  5B 19 80 0C 90 0E 01 0C  +....b.#[.......
08A0: 90 0E 01 74 68 6B 32 53  0C 90 0E 01 0C 90 0E 01  ...thk2S........
08B0: 74 68 6B 32 1C 52 80 55  53 80 F0 FF FF 7F F0 FF  thk2.R.US.......
08C0: FF 7F 73 67 30 32 45 53  80 F0 FF FF 7F F0 FF FF  ..sg02ES........
08D0: 7F 73 67 30 33 00 80 4A  0C 90 0E 01 F0 FF FF 7F  .sg03..J........
08E0: 6F 76 0C 90 0E 01 2B 0C  90 0E 01 63 80 23 2B 0C  ov....+....c.#+.
08F0: 90 0E 01 64 80 23 5B 19  80 0C 90 0E 01 0C 90 0E  ...d.#[.........
0900: 01 70 61 73 30 2B 0C 90  0E 01 65 80 23 53 0C 90  .pas0+....e.#S..
0910: 0E 01 0C 90 0E 01 70 61  73 30 45 66 80 F0 FF FF  ......pas0Ef....
0920: 7F F0 FF FF 7F 71 73 74  63 00 80 1A 67 09 1C 52  .....qstc...g..R
0930: 80 45 0B 80 F0 FF FF 7F  F0 FF FF 7F 66 64 69 32  .E..........fdi2
0940: 00 80 46 00 21 00 45 0B  80 F0 FF FF 7F F0 FF FF  ..F.!.E.........
0950: 7F 66 64 69 30 00 80 55  0B 80 F0 FF FF 7F F0 FF  .fdi0..U........
0960: FF 7F 66 64 69 30 1B 45  0B 80 F0 FF FF 7F F0 FF  ..fdi0.E........
0970: FF 7F 66 64 6F 30 00 80  55 0B 80 F0 FF FF 7F F0  ..fdo0..U.......
0980: FF FF 7F 66 64 6F 30 1B  45 0B 80 F0 FF FF 7F F0  ...fdo0.E.......
0990: FF FF 7F 66 64 69 31 00  80 55 0B 80 F0 FF FF 7F  ...fdi1..U......
09A0: F0 FF FF 7F 66 64 69 31  1B 45 0B 80 F0 FF FF 7F  ....fdi1.E......
09B0: F0 FF FF 7F 66 64 6F 31  00 80 55 0B 80 F0 FF FF  ....fdo1..U.....
09C0: 7F F0 FF FF 7F 66 64 6F  31 1B                    .....fdo1.      
```

#### Opcodes

```
  0: 0x07A7 [0x42] SET_CLI_EVENT_CANCEL_DATA()
  1: 0x07A8 [0x75] LOAD_ROOM(Load indoor room, room=371*)
  2: 0x07AC [0x75] LOAD_ROOM(No action)
  3: 0x07AE [0x4A] Curilla (ID: 17731596/0x010E900C) looks at LocalPlayer
  4: 0x07B7 [0x6F] WAIT_FRAME_DELAY: Yield until WaitTime reaches zero
  5: 0x07B8 [0x76] CHECK_ENTITY_RENDER_FLAGS: Wait until Curilla (ID: 17731596/0x010E900C) Render.Flags0 and Render.Flags3 conditions are met
  6: 0x07BD [0x46] CAMERA_CONTROL: Disable user control
  7: 0x07BF [0x1A] CALL_SUBROUTINE(address=0x0967)
  8: 0x07C2 [0x1C] WAIT(15* ticks)
  9: 0x07C5 [0x38] SET_CLIENT_EVENT_MODE(mode=3*)
 10: 0x07C8 [0x5B] LOAD_EXT_SCHEDULER: Load scheduler 0xFEFEFE00 with entities [Curilla (ID: 17731596/0x010E900C), Curilla (ID: 17731596/0x010E900C)], work=140*
 11: 0x07D7 [0x29] REQ_SET_WAIT(priority=0x10, entity_id=LocalPlayer, tag_num=0x4F)
 12: 0x07DE [0x4A] Curilla (ID: 17731596/0x010E900C) looks at LocalPlayer
 13: 0x07E7 [0x6F] WAIT_FRAME_DELAY: Yield until WaitTime reaches zero
 14: 0x07E8 [0x76] CHECK_ENTITY_RENDER_FLAGS: Wait until Curilla (ID: 17731596/0x010E900C) Render.Flags0 and Render.Flags3 conditions are met
 15: 0x07ED [0x5B] LOAD_EXT_SCHEDULER: Load scheduler "tlk0" with entities [Curilla (ID: 17731596/0x010E900C), Curilla (ID: 17731596/0x010E900C)], work=140*
 16: 0x07FC [0x45] LOAD_SCHEDULED_TASK: Load scheduler "sg01" with entities [LocalPlayer, LocalPlayer], work=[133*, 0*]
 17: 0x080D [0x38] SET_CLIENT_EVENT_MODE(mode=3*)
 18: 0x0810 [0x1A] CALL_SUBROUTINE(address=0x0988)
 19: 0x0813 [0x2B] Curilla (ID: 17731596/0x010E900C) [7395*]:
    → "I knew I had judged you well. Thank you for this."
 20: 0x081A [0x23] WAIT_FOR_DIALOG_INTERACTION
 21: 0x081B [0x2B] Curilla (ID: 17731596/0x010E900C) [7396*]:
    → "What will I use it for? The spring water is good for my eye, you see. I suppose I can tell you..."
 22: 0x0822 [0x23] WAIT_FOR_DIALOG_INTERACTION
 23: 0x0823 [0x5B] LOAD_EXT_SCHEDULER: Load scheduler "tlk1" with entities [Curilla (ID: 17731596/0x010E900C), Curilla (ID: 17731596/0x010E900C)], work=140*
 24: 0x0832 [0x53] WAIT_SCHEDULER_TASK: Wait for scheduler "tlk1" with entities [Curilla (ID: 17731596/0x010E900C), Curilla (ID: 17731596/0x010E900C)]
 25: 0x083F [0x4B] UPDATE_ENTITY_YAW(entity=Curilla (ID: 17731596/0x010E900C), yaw=20.0°*)
 26: 0x0846 [0x6F] WAIT_FRAME_DELAY: Yield until WaitTime reaches zero
 27: 0x0847 [0x76] CHECK_ENTITY_RENDER_FLAGS: Wait until Curilla (ID: 17731596/0x010E900C) Render.Flags0 and Render.Flags3 conditions are met
 28: 0x084C [0x55] WAIT_LOAD_SCHEDULER: Wait for scheduler "sg01" with entities [LocalPlayer, LocalPlayer], work=133*
 29: 0x085B [0x45] LOAD_SCHEDULED_TASK: Load scheduler "sg02" with entities [LocalPlayer, LocalPlayer], work=[133*, 0*]
 30: 0x086C [0x5B] LOAD_EXT_SCHEDULER: Load scheduler "thk1" with entities [Curilla (ID: 17731596/0x010E900C), Curilla (ID: 17731596/0x010E900C)], work=140*
 31: 0x087B [0x53] WAIT_SCHEDULER_TASK: Wait for scheduler "thk1" with entities [Curilla (ID: 17731596/0x010E900C), Curilla (ID: 17731596/0x010E900C)]
 32: 0x0888 [0x2B] Curilla (ID: 17731596/0x010E900C) [7397*]:
    → "Once, long ago, I faced Prince Trion in the tourneys. But I lost an eye in exchange for the championship."
 33: 0x088F [0x23] WAIT_FOR_DIALOG_INTERACTION
 34: 0x0890 [0x2B] Curilla (ID: 17731596/0x010E900C) [7398*]:
    → "The honor of best sword of San d'Oria was mine...but the eye that I lost still pains me. I consider it punishment for yearning to hear the crowd cheering my name..."
 35: 0x0897 [0x23] WAIT_FOR_DIALOG_INTERACTION
 36: 0x0898 [0x5B] LOAD_EXT_SCHEDULER: Load scheduler "thk2" with entities [Curilla (ID: 17731596/0x010E900C), Curilla (ID: 17731596/0x010E900C)], work=140*
 37: 0x08A7 [0x53] WAIT_SCHEDULER_TASK: Wait for scheduler "thk2" with entities [Curilla (ID: 17731596/0x010E900C), Curilla (ID: 17731596/0x010E900C)]
 38: 0x08B4 [0x1C] WAIT(15* ticks)
 39: 0x08B7 [0x55] WAIT_LOAD_SCHEDULER: Wait for scheduler "sg02" with entities [LocalPlayer, LocalPlayer], work=133*
 40: 0x08C6 [0x45] LOAD_SCHEDULED_TASK: Load scheduler "sg03" with entities [LocalPlayer, LocalPlayer], work=[133*, 0*]
 41: 0x08D7 [0x4A] Curilla (ID: 17731596/0x010E900C) looks at LocalPlayer
 42: 0x08E0 [0x6F] WAIT_FRAME_DELAY: Yield until WaitTime reaches zero
 43: 0x08E1 [0x76] CHECK_ENTITY_RENDER_FLAGS: Wait until Curilla (ID: 17731596/0x010E900C) Render.Flags0 and Render.Flags3 conditions are met
 44: 0x08E6 [0x2B] Curilla (ID: 17731596/0x010E900C) [7399*]:
    → "Please, tell no one. Many knights would seek to take my place if they heard me say such things."
 45: 0x08ED [0x23] WAIT_FOR_DIALOG_INTERACTION
 46: 0x08EE [0x2B] Curilla (ID: 17731596/0x010E900C) [7400*]:
    → "I tell you because I judge you an honest [man/woman]. Please do not tell me I have erred!"
 47: 0x08F5 [0x23] WAIT_FOR_DIALOG_INTERACTION
 48: 0x08F6 [0x5B] LOAD_EXT_SCHEDULER: Load scheduler "pas0" with entities [Curilla (ID: 17731596/0x010E900C), Curilla (ID: 17731596/0x010E900C)], work=140*
 49: 0x0905 [0x2B] Curilla (ID: 17731596/0x010E900C) [7401*]:
    → "Thank you, and I will think of you again, next I have need for something."
 50: 0x090C [0x23] WAIT_FOR_DIALOG_INTERACTION
 51: 0x090D [0x53] WAIT_SCHEDULER_TASK: Wait for scheduler "pas0" with entities [Curilla (ID: 17731596/0x010E900C), Curilla (ID: 17731596/0x010E900C)]
 52: 0x091A [0x45] LOAD_SCHEDULED_TASK: Load scheduler "qstc" with entities [LocalPlayer, LocalPlayer], work=[201*, 0*]
 53: 0x092B [0x1A] CALL_SUBROUTINE(address=0x0967)
 54: 0x092E [0x1C] WAIT(15* ticks)
 55: 0x0931 [0x45] LOAD_SCHEDULED_TASK: Load scheduler "fdi2" with entities [LocalPlayer, LocalPlayer], work=[200*, 0*]
 56: 0x0942 [0x46] CAMERA_CONTROL: Restore default settings
 57: 0x0944 [0x21] END_EVENT
 58: 0x0945 [0x00] END_REQSTACK()

SUBROUTINE_0967:
 59: 0x0967 [0x45] LOAD_SCHEDULED_TASK: Load scheduler "fdo0" with entities [LocalPlayer, LocalPlayer], work=[200*, 0*]
 60: 0x0978 [0x55] WAIT_LOAD_SCHEDULER: Wait for scheduler "fdo0" with entities [LocalPlayer, LocalPlayer], work=200*
 61: 0x0987 [0x1B] RETURN

SUBROUTINE_0988:
 62: 0x0988 [0x45] LOAD_SCHEDULED_TASK: Load scheduler "fdi1" with entities [LocalPlayer, LocalPlayer], work=[200*, 0*]
 63: 0x0999 [0x55] WAIT_LOAD_SCHEDULER: Wait for scheduler "fdi1" with entities [LocalPlayer, LocalPlayer], work=200*
 64: 0x09A8 [0x1B] RETURN
```

#### Data or dead code:

```
# Dead code (unreachable instructions):
     0x0946 [0x45] LOAD_SCHEDULED_TASK: Load scheduler "fdi0" with entities [LocalPlayer, LocalPlayer], work=[200*, 0*]
     0x0957 [0x55] WAIT_LOAD_SCHEDULER: Wait for scheduler "fdi0" with entities [LocalPlayer, LocalPlayer], work=200*
     0x0966 [0x1B] RETURN
# Dead code (unreachable instructions):
     0x09A9 [0x45] LOAD_SCHEDULED_TASK: Load scheduler "fdo1" with entities [LocalPlayer, LocalPlayer], work=[200*, 0*]
     0x09BA [0x55] WAIT_LOAD_SCHEDULER: Wait for scheduler "fdo1" with entities [LocalPlayer, LocalPlayer], work=200*
     0x09C9 [0x1B] RETURN
```

### Event 93

#### Metadata

| Field        | Value   |
|--------------|---------|
| Entrypoint   | 0x09CA  |
| Data Size    | 1 bytes |
| Instructions | 1       |

```
      00 01 02 03 04 05 06 07  08 09 0A 0B 0C 0D 0E 0F
      -- -- -- -- -- -- -- --  -- -- -- -- -- -- -- --
09C0:                                00                           .     
```

#### Opcodes

```
  0: 0x09CA [0x00] END_REQSTACK()
```

### Event 94

#### Metadata

| Field        | Value   |
|--------------|---------|
| Entrypoint   | 0x09CB  |
| Data Size    | 1 bytes |
| Instructions | 1       |

```
      00 01 02 03 04 05 06 07  08 09 0A 0B 0C 0D 0E 0F
      -- -- -- -- -- -- -- --  -- -- -- -- -- -- -- --
09C0:                                   00                         .    
```

#### Opcodes

```
  0: 0x09CB [0x00] END_REQSTACK()
```

### Event 95

#### Metadata

| Field        | Value   |
|--------------|---------|
| Entrypoint   | 0x09CC  |
| Data Size    | 1 bytes |
| Instructions | 1       |

```
      00 01 02 03 04 05 06 07  08 09 0A 0B 0C 0D 0E 0F
      -- -- -- -- -- -- -- --  -- -- -- -- -- -- -- --
09C0:                                      00                       .   
```

#### Opcodes

```
  0: 0x09CC [0x00] END_REQSTACK()
```

### Event 92

#### Metadata

| Field        | Value    |
|--------------|----------|
| Entrypoint   | 0x09CD   |
| Data Size    | 20 bytes |
| Instructions | 5        |

```
      00 01 02 03 04 05 06 07  08 09 0A 0B 0C 0D 0E 0F
      -- -- -- -- -- -- -- --  -- -- -- -- -- -- -- --
09C0:                                         79 00 F8               y..
09D0: FF FF 7F F0 FF FF 7F 2B  0C 90 0E 01 67 80 23 21  .......+....g.#!
09E0: 00                                                .               
```

#### Opcodes

```
  0: 0x09CD [0x79] EventEntity looks at LocalPlayer (Basic look)
  1: 0x09D7 [0x2B] Curilla (ID: 17731596/0x010E900C) [7442*]:
    → "Often would my father visit that place. Perhaps it could be him..."
  2: 0x09DE [0x23] WAIT_FOR_DIALOG_INTERACTION
  3: 0x09DF [0x21] END_EVENT
  4: 0x09E0 [0x00] END_REQSTACK()
```

### Event 101

#### Metadata

| Field        | Value   |
|--------------|---------|
| Entrypoint   | 0x09E1  |
| Data Size    | 1 bytes |
| Instructions | 1       |

```
      00 01 02 03 04 05 06 07  08 09 0A 0B 0C 0D 0E 0F
      -- -- -- -- -- -- -- --  -- -- -- -- -- -- -- --
09E0:    00                                              .              
```

#### Opcodes

```
  0: 0x09E1 [0x00] END_REQSTACK()
```

### Event 117

#### Metadata

| Field        | Value    |
|--------------|----------|
| Entrypoint   | 0x09E2   |
| Data Size    | 30 bytes |
| Instructions | 10       |

```
      00 01 02 03 04 05 06 07  08 09 0A 0B 0C 0D 0E 0F
      -- -- -- -- -- -- -- --  -- -- -- -- -- -- -- --
09E0:       1E F0 FF FF 7F 6F  70 03 02 10 66 80 2B 0C    .....op...f.+.
09F0: 90 0E 01 68 80 23 2B 0C  90 0E 01 69 80 23 21 00  ...h.#+....i.#!.
```

#### Opcodes

```
  0: 0x09E2 [0x1E] EventEntity looks at LocalPlayer and starts talking
  1: 0x09E7 [0x6F] WAIT_FRAME_DELAY: Yield until WaitTime reaches zero
  2: 0x09E8 [0x70] WAIT_ENTITY_RENDER_FLAG: Wait while EventEntity->Render.Flags3 bit 2 is set (cancel turn if not)
  3: 0x09E9 [0x03] Work_Zone[2] = 201*
  4: 0x09EE [0x2B] Curilla (ID: 17731596/0x010E900C) [7459*]:
    → "Please, take the greaves to the Crawlers' Nest. They must be buried together with $6 in the place where light shines."
  5: 0x09F5 [0x23] WAIT_FOR_DIALOG_INTERACTION
  6: 0x09F6 [0x2B] Curilla (ID: 17731596/0x010E900C) [7460*]:
    → "And then come back and tell me how you fared. Even a little information could help solve the puzzle of my father's death."
  7: 0x09FD [0x23] WAIT_FOR_DIALOG_INTERACTION
  8: 0x09FE [0x21] END_EVENT
  9: 0x09FF [0x00] END_REQSTACK()
```

### Event 114

#### Metadata

| Field        | Value    |
|--------------|----------|
| Entrypoint   | 0x0A00   |
| Data Size    | 25 bytes |
| Instructions | 9        |

```
      00 01 02 03 04 05 06 07  08 09 0A 0B 0C 0D 0E 0F
      -- -- -- -- -- -- -- --  -- -- -- -- -- -- -- --
0A00: 1E F0 FF FF 7F 6F 70 2B  0C 90 0E 01 6A 80 23 2B  .....op+....j.#+
0A10: 0C 90 0E 01 6B 80 23 21  00                       ....k.#!.       
```

#### Opcodes

```
  0: 0x0A00 [0x1E] EventEntity looks at LocalPlayer and starts talking
  1: 0x0A05 [0x6F] WAIT_FRAME_DELAY: Yield until WaitTime reaches zero
  2: 0x0A06 [0x70] WAIT_ENTITY_RENDER_FLAG: Wait while EventEntity->Render.Flags3 bit 2 is set (cancel turn if not)
  3: 0x0A07 [0x2B] Curilla (ID: 17731596/0x010E900C) [7461*]:
    → "So the greaves were made for red mages... Perhaps it was my father in the cathedral."
  4: 0x0A0E [0x23] WAIT_FOR_DIALOG_INTERACTION
  5: 0x0A0F [0x2B] Curilla (ID: 17731596/0x010E900C) [7462*]:
    → "But why that place? Could he be trying to convey something to me? If only I could hear his message."
  6: 0x0A16 [0x23] WAIT_FOR_DIALOG_INTERACTION
  7: 0x0A17 [0x21] END_EVENT
  8: 0x0A18 [0x00] END_REQSTACK()
```

### Event 109

#### Metadata

| Field        | Value     |
|--------------|-----------|
| Entrypoint   | 0x0A19    |
| Data Size    | 101 bytes |
| Instructions | 26        |

```
      00 01 02 03 04 05 06 07  08 09 0A 0B 0C 0D 0E 0F
      -- -- -- -- -- -- -- --  -- -- -- -- -- -- -- --
0A10:                             20 01 42 4A 0C 90 0E            .BJ...
0A20: 01 F0 FF FF 7F 4A F0 FF  FF 7F 0C 90 0E 01 6F 70  .....J........op
0A30: 2B 0C 90 0E 01 6A 80 23  2B 0C 90 0E 01 6B 80 23  +....j.#+....k.#
0A40: 2B 0C 90 0E 01 6C 80 23  06 01 10 24 6D 80 18 80  +....l.#...$m...
0A50: 00 80 25 02 00 10 00 80  00 69 0A 2B 0C 90 0E 01  ..%......i.+....
0A60: 6E 80 23 05 01 10 01 7C  0A 02 00 10 18 80 00 7C  n.#....|.......|
0A70: 0A 2B 0C 90 0E 01 6F 80  23 01 7C 0A 21 00        .+....o.#.|.!.  
```

#### Opcodes

```
  0: 0x0A19 [0x20] SET_CLI_EVENT_UC_FLAG: Lock player control
  1: 0x0A1B [0x42] SET_CLI_EVENT_CANCEL_DATA()
  2: 0x0A1C [0x4A] Curilla (ID: 17731596/0x010E900C) looks at LocalPlayer
  3: 0x0A25 [0x4A] LocalPlayer looks at Curilla (ID: 17731596/0x010E900C)
  4: 0x0A2E [0x6F] WAIT_FRAME_DELAY: Yield until WaitTime reaches zero
  5: 0x0A2F [0x70] WAIT_ENTITY_RENDER_FLAG: Wait while EventEntity->Render.Flags3 bit 2 is set (cancel turn if not)
  6: 0x0A30 [0x2B] Curilla (ID: 17731596/0x010E900C) [7461*]:
    → "So the greaves were made for red mages... Perhaps it was my father in the cathedral."
  7: 0x0A37 [0x23] WAIT_FOR_DIALOG_INTERACTION
  8: 0x0A38 [0x2B] Curilla (ID: 17731596/0x010E900C) [7462*]:
    → "But why that place? Could he be trying to convey something to me? If only I could hear his message."
  9: 0x0A3F [0x23] WAIT_FOR_DIALOG_INTERACTION
 10: 0x0A40 [0x2B] Curilla (ID: 17731596/0x010E900C) [7463*]:
    → "I realize I've asked many favors of you, but I yearn to put this matter to rest. Will you investigate in my stead?"
 11: 0x0A47 [0x23] WAIT_FOR_DIALOG_INTERACTION
 12: 0x0A48 [0x06] Work_Zone[1] = 0
 13: 0x0A4B [0x24] CREATE_DIALOG(message_id=7464*, default_option=1*, option_flags=0*)
    → "Will you investigate? [Of course I will./I'm afraid not.]"
 14: 0x0A52 [0x25] WAIT_DIALOG_SELECT()
 15: 0x0A53 [0x02] IF !(Work_Zone[0] == 0*) GOTO 0x0A69
 16: 0x0A5B [0x2B] Curilla (ID: 17731596/0x010E900C) [7465*]:
    → "Why, thank you! I have no guidance to give you, so you must stand on your own two feet."
 17: 0x0A62 [0x23] WAIT_FOR_DIALOG_INTERACTION
 18: 0x0A63 [0x05] Work_Zone[1] = 1
 19: 0x0A66 [0x01] GOTO 0x0A7C
 20: 0x0A69 [0x02] IF !(Work_Zone[0] == 1*) GOTO 0x0A7C
 21: 0x0A71 [0x2B] Curilla (ID: 17731596/0x010E900C) [7466*]:
    → "I was afraid not. Well, return should you ever reconsider."
 22: 0x0A78 [0x23] WAIT_FOR_DIALOG_INTERACTION
 23: 0x0A79 [0x01] GOTO 0x0A7C

SUBROUTINE_0A7C:
 24: 0x0A7C [0x21] END_EVENT
 25: 0x0A7D [0x00] END_REQSTACK()
```

### Event 108

#### Metadata

| Field        | Value    |
|--------------|----------|
| Entrypoint   | 0x0A7E   |
| Data Size    | 17 bytes |
| Instructions | 7        |

```
      00 01 02 03 04 05 06 07  08 09 0A 0B 0C 0D 0E 0F
      -- -- -- -- -- -- -- --  -- -- -- -- -- -- -- --
0A70:                                            1E F0                ..
0A80: FF FF 7F 6F 70 2B 0C 90  0E 01 70 80 23 21 00     ...op+....p.#!. 
```

#### Opcodes

```
  0: 0x0A7E [0x1E] EventEntity looks at LocalPlayer and starts talking
  1: 0x0A83 [0x6F] WAIT_FRAME_DELAY: Yield until WaitTime reaches zero
  2: 0x0A84 [0x70] WAIT_ENTITY_RENDER_FLAG: Wait while EventEntity->Render.Flags3 bit 2 is set (cancel turn if not)
  3: 0x0A85 [0x2B] Curilla (ID: 17731596/0x010E900C) [7467*]:
    → "I commend you for offering to help, but already you know as much as I do."
  4: 0x0A8C [0x23] WAIT_FOR_DIALOG_INTERACTION
  5: 0x0A8D [0x21] END_EVENT
  6: 0x0A8E [0x00] END_REQSTACK()
```

### Event 113

#### Metadata

| Field        | Value    |
|--------------|----------|
| Entrypoint   | 0x0A8F   |
| Data Size    | 17 bytes |
| Instructions | 7        |

```
      00 01 02 03 04 05 06 07  08 09 0A 0B 0C 0D 0E 0F
      -- -- -- -- -- -- -- --  -- -- -- -- -- -- -- --
0A80:                                               1E                 .
0A90: F0 FF FF 7F 6F 70 2B 0C  90 0E 01 71 80 23 21 00  ....op+....q.#!.
```

#### Opcodes

```
  0: 0x0A8F [0x1E] EventEntity looks at LocalPlayer and starts talking
  1: 0x0A94 [0x6F] WAIT_FRAME_DELAY: Yield until WaitTime reaches zero
  2: 0x0A95 [0x70] WAIT_ENTITY_RENDER_FLAG: Wait while EventEntity->Render.Flags3 bit 2 is set (cancel turn if not)
  3: 0x0A96 [0x2B] Curilla (ID: 17731596/0x010E900C) [7468*]:
    → "What? In Fei'Yin you met the ghost of my father, and saw him suffering? The mystery deepens."
  4: 0x0A9D [0x23] WAIT_FOR_DIALOG_INTERACTION
  5: 0x0A9E [0x21] END_EVENT
  6: 0x0A9F [0x00] END_REQSTACK()
```

### Event 51

#### Metadata

| Field        | Value    |
|--------------|----------|
| Entrypoint   | 0x0AA0   |
| Data Size    | 17 bytes |
| Instructions | 7        |

```
      00 01 02 03 04 05 06 07  08 09 0A 0B 0C 0D 0E 0F
      -- -- -- -- -- -- -- --  -- -- -- -- -- -- -- --
0AA0: 1E F0 FF FF 7F 6F 70 2B  0C 90 0E 01 72 80 23 21  .....op+....r.#!
0AB0: 00                                                .               
```

#### Opcodes

```
  0: 0x0AA0 [0x1E] EventEntity looks at LocalPlayer and starts talking
  1: 0x0AA5 [0x6F] WAIT_FRAME_DELAY: Yield until WaitTime reaches zero
  2: 0x0AA6 [0x70] WAIT_ENTITY_RENDER_FLAG: Wait while EventEntity->Render.Flags3 bit 2 is set (cancel turn if not)
  3: 0x0AA7 [0x2B] Curilla (ID: 17731596/0x010E900C) [7469*]:
    → "You've found my father's remains in Garlaige? My poor father's soul will never rest until his remains are properly interred."
  4: 0x0AAE [0x23] WAIT_FOR_DIALOG_INTERACTION
  5: 0x0AAF [0x21] END_EVENT
  6: 0x0AB0 [0x00] END_REQSTACK()
```

### Event 52

#### Metadata

| Field        | Value    |
|--------------|----------|
| Entrypoint   | 0x0AB1   |
| Data Size    | 33 bytes |
| Instructions | 12       |

```
      00 01 02 03 04 05 06 07  08 09 0A 0B 0C 0D 0E 0F
      -- -- -- -- -- -- -- --  -- -- -- -- -- -- -- --
0AB0:    20 01 42 2B 0C 90 0E  01 73 80 23 1E F0 FF FF    .B+....s.#....
0AC0: 7F 6F 70 5E 64 66 74 30  2B 0C 90 0E 01 74 80 23  .op^dft0+....t.#
0AD0: 21 00                                             !.              
```

#### Opcodes

```
  0: 0x0AB1 [0x20] SET_CLI_EVENT_UC_FLAG: Lock player control
  1: 0x0AB3 [0x42] SET_CLI_EVENT_CANCEL_DATA()
  2: 0x0AB4 [0x2B] Curilla (ID: 17731596/0x010E900C) [7470*]:
    → "It matters not how my father died... Now I know that ever will his memory live on inside me."
  3: 0x0ABB [0x23] WAIT_FOR_DIALOG_INTERACTION
  4: 0x0ABC [0x1E] EventEntity looks at LocalPlayer and starts talking
  5: 0x0AC1 [0x6F] WAIT_FRAME_DELAY: Yield until WaitTime reaches zero
  6: 0x0AC2 [0x70] WAIT_ENTITY_RENDER_FLAG: Wait while EventEntity->Render.Flags3 bit 2 is set (cancel turn if not)
  7: 0x0AC3 [0x5E] EventEntity goes idle (kills current action) (animation: "dft0")
  8: 0x0AC8 [0x2B] Curilla (ID: 17731596/0x010E900C) [7471*]:
    → "You went through great lengths to help me. I have never found it easy to express thanks, but know that I will always be grateful."
  9: 0x0ACF [0x23] WAIT_FOR_DIALOG_INTERACTION
 10: 0x0AD0 [0x21] END_EVENT
 11: 0x0AD1 [0x00] END_REQSTACK()
```

### Event 65535.12

#### Metadata

| Field        | Value    |
|--------------|----------|
| Entrypoint   | 0x0AD2   |
| Data Size    | 14 bytes |
| Instructions | 4        |

```
      00 01 02 03 04 05 06 07  08 09 0A 0B 0C 0D 0E 0F
      -- -- -- -- -- -- -- --  -- -- -- -- -- -- -- --
0AD0:       32 04 80 1F 00 75  80 76 80 00 80 1F 01 00    2....u.v......
```

#### Opcodes

```
  0: 0x0AD2 [0x32] ExtData[1]->MainSpeed = 13* * 0.1
  1: 0x0AD5 [0x1F] MOVE_ENTITY: EventEntity moves to X=30.494*, Z=-0.680*, Y=0.000*
  2: 0x0ADD [0x1F] MOVE_ENTITY: Update entity position (mode=1)
  3: 0x0ADF [0x00] END_REQSTACK()
```

### Event 509

#### Metadata

| Field        | Value   |
|--------------|---------|
| Entrypoint   | 0x0AE0  |
| Data Size    | 1 bytes |
| Instructions | 1       |

```
      00 01 02 03 04 05 06 07  08 09 0A 0B 0C 0D 0E 0F
      -- -- -- -- -- -- -- --  -- -- -- -- -- -- -- --
0AE0: 00                                                .               
```

#### Opcodes

```
  0: 0x0AE0 [0x00] END_REQSTACK()
```

### Event 65535.13

#### Metadata

| Field        | Value    |
|--------------|----------|
| Entrypoint   | 0x0AE1   |
| Data Size    | 15 bytes |
| Instructions | 3        |

```
      00 01 02 03 04 05 06 07  08 09 0A 0B 0C 0D 0E 0F
      -- -- -- -- -- -- -- --  -- -- -- -- -- -- -- --
0AE0:    5E 64 66 74 30 37 77  80 78 80 00 80 79 80 00   ^dft07w.x...y..
```

#### Opcodes

```
  0: 0x0AE1 [0x5E] EventEntity goes idle (kills current action) (animation: "dft0")
  1: 0x0AE6 [0x37] UPDATE_EVENT_POSITION_AND_DIR: x=-1.228*, z=-2.363*, y=0.000*, direction=224.9°*
  2: 0x0AEF [0x00] END_REQSTACK()
```

### Event 65535.14

#### Metadata

| Field        | Value    |
|--------------|----------|
| Entrypoint   | 0x0AF0   |
| Data Size    | 22 bytes |
| Instructions | 8        |

```
      00 01 02 03 04 05 06 07  08 09 0A 0B 0C 0D 0E 0F
      -- -- -- -- -- -- -- --  -- -- -- -- -- -- -- --
0AF0: 32 04 80 1F 00 00 80 7A  80 00 80 1F 01 6F 1E 02  2......z.....o..
0B00: 90 0E 01 6F 70 00                                 ...op.          
```

#### Opcodes

```
  0: 0x0AF0 [0x32] ExtData[1]->MainSpeed = 13* * 0.1
  1: 0x0AF3 [0x1F] MOVE_ENTITY: EventEntity moves to X=0.000*, Z=3.635*, Y=0.000*
  2: 0x0AFB [0x1F] MOVE_ENTITY: Update entity position (mode=1)
  3: 0x0AFD [0x6F] WAIT_FRAME_DELAY: Yield until WaitTime reaches zero
  4: 0x0AFE [0x1E] EventEntity looks at Destin (ID: 17731586/0x010E9002) and starts talking
  5: 0x0B03 [0x6F] WAIT_FRAME_DELAY: Yield until WaitTime reaches zero
  6: 0x0B04 [0x70] WAIT_ENTITY_RENDER_FLAG: Wait while EventEntity->Render.Flags3 bit 2 is set (cancel turn if not)
  7: 0x0B05 [0x00] END_REQSTACK()
```

### Event 65535.15

#### Metadata

| Field        | Value    |
|--------------|----------|
| Entrypoint   | 0x0B06   |
| Data Size    | 27 bytes |
| Instructions | 5        |

```
      00 01 02 03 04 05 06 07  08 09 0A 0B 0C 0D 0E 0F
      -- -- -- -- -- -- -- --  -- -- -- -- -- -- -- --
0B00:                   3B F0  FF FF 7F 09 00 0A 00 0B        ;.........
0B10: 00 32 04 80 31 00 09 00  0A 00 0B 00 05 80 31 01  .2..1.........1.
0B20: 00                                                .               
```

#### Opcodes

```
  0: 0x0B06 [0x3B] GET_ENTITY_POSITION(entity=LocalPlayer, x_destination=ExtData[1]->WorkLocal[9], y_destination=ExtData[1]->WorkLocal[10], z_destination=ExtData[1]->WorkLocal[11])
  1: 0x0B11 [0x32] ExtData[1]->MainSpeed = 13* * 0.1
  2: 0x0B14 [0x31] UPDATE_ENTITY_POSITION: Set EventEntity goal position to X=ExtData[1]->WorkLocal[9], Z=ExtData[1]->WorkLocal[10], Y=ExtData[1]->WorkLocal[11], Time=30*
  3: 0x0B1E [0x31] UPDATE_ENTITY_POSITION: Move EventEntity towards goal position
