# 17731586 - Destin

## Common Data

| Field            | Value                         |
|------------------|-------------------------------|
| Zone             | Chateau d'Oraguille (ID: 233) |
| Block Size       | 712 bytes                     |
| Total Events     | 28                            |
| References Count | 43                            |

## List of Events

| Event ID                   | Entrypoint   |   Size |   Instructions |
|----------------------------|--------------|--------|----------------|
| [65535](#event-65535)      | 0x0000       |      1 |              1 |
| [10](#event-10)            | 0x0001       |     12 |              3 |
| [8](#event-8)              | 0x000D       |     15 |              3 |
| [65535.1](#event-655351)   | 0x001C       |     17 |              4 |
| [9](#event-9)              | 0x002D       |     10 |              2 |
| [65535.2](#event-655352)   | 0x0037       |     14 |              4 |
| [65535.3](#event-655353)   | 0x0045       |     14 |              4 |
| [65535.4](#event-655354)   | 0x0053       |     14 |              4 |
| [65535.5](#event-655355)   | 0x0061       |     11 |              3 |
| [32](#event-32)            | 0x006C       |      3 |              2 |
| [21](#event-21)            | 0x006F       |     15 |              3 |
| [100](#event-100)          | 0x007E       |     15 |              3 |
| [65535.6](#event-655356)   | 0x008D       |     12 |              4 |
| [537](#event-537)          | 0x0099       |      1 |              1 |
| [509](#event-509)          | 0x009A       |     15 |              3 |
| [65535.7](#event-655357)   | 0x00A9       |     15 |              5 |
| [65535.8](#event-655358)   | 0x00B8       |     15 |              5 |
| [65535.9](#event-655359)   | 0x00C7       |      4 |              2 |
| [65535.10](#event-6553510) | 0x00CB       |     12 |              4 |
| [65535.11](#event-6553511) | 0x00D7       |     35 |              7 |
| [65535.12](#event-6553512) | 0x00FA       |     47 |             11 |
| [61](#event-61)            | 0x0129       |     12 |              3 |
| [65535.13](#event-6553513) | 0x0135       |     14 |              4 |
| [99](#event-99)            | 0x0143       |      6 |              2 |
| [65535.14](#event-6553514) | 0x0149       |     25 |              7 |
| [65535.15](#event-6553515) | 0x0162       |     19 |              3 |
| [65535.16](#event-6553516) | 0x0175       |     29 |              3 |
| [578](#event-578)          | 0x0192       |      7 |              2 |

## DAT References (imed_data)

|   Index | Hex Value   |   Dec Value |
|---------|-------------|-------------|
|       0 | 0x0000      |           0 |
|       1 | 0x4E02      |       19970 |
|       2 | 0xFFFFFA24  |  4294965796 |
|       3 | 0x03D1      |         977 |
|       4 | 0xA5C1      |       42433 |
|       5 | 0xFFFFF2BA  |  4294963898 |
|       6 | 0x0400      |        1024 |
|       7 | 0x31A6      |       12710 |
|       8 | 0xFFFFFA25  |  4294965797 |
|       9 | 0x0007      |           7 |
|      10 | 0xFFFFFFB1  |  4294967217 |
|      11 | 0x1EAC      |        7852 |
|      12 | 0x0035      |          53 |
|      13 | 0x0F92      |        3986 |
|      14 | 0x3E72      |       15986 |
|      15 | 0x27D6      |       10198 |
|      16 | 0x03FD      |        1021 |
|      17 | 0x9DA3      |       40355 |
|      18 | 0x0033      |          51 |
|      19 | 0x7D09      |       32009 |
|      20 | 0xFFFFF449  |  4294964297 |
|      21 | 0x001E      |          30 |
|      22 | 0x4891      |       18577 |
|      23 | 0x03F4      |        1012 |
|      24 | 0x0008      |           8 |
|      25 | 0x314C      |       12620 |
|      26 | 0x23DB      |        9179 |
|      27 | 0x0C00      |        3072 |
|      28 | 0x6647      |       26183 |
|      29 | 0xFFFFFFFF  |  4294967295 |
|      30 | 0xFFFFFFE8  |  4294967272 |
|      31 | 0x9BF7      |       39927 |
|      32 | 0x003C      |          60 |
|      33 | 0x97CD      |       38861 |
|      34 | 0xFFFFF381  |  4294964097 |
|      35 | 0xA597      |       42391 |
|      36 | 0x03AF      |         943 |
|      37 | 0xFFFFFFFA  |  4294967290 |
|      38 | 0x9D47      |       40263 |
|      39 | 0x000D      |          13 |
|      40 | 0x9187      |       37255 |
|      41 | 0xFFFFF448  |  4294964296 |
|      42 | 0x0082      |         130 |

## Events

### Event 65535

#### Metadata

| Field        | Value   |
|--------------|---------|
| Entrypoint   | 0x0000  |
| Data Size    | 1 bytes |
| Instructions | 1       |

```
      00 01 02 03 04 05 06 07  08 09 0A 0B 0C 0D 0E 0F
      -- -- -- -- -- -- -- --  -- -- -- -- -- -- -- --
0000: 00                                                .               
```

#### Opcodes

```
  0: 0x0000 [0x00] END_REQSTACK()
```

### Event 10

#### Metadata

| Field        | Value    |
|--------------|----------|
| Entrypoint   | 0x0001   |
| Data Size    | 12 bytes |
| Instructions | 3        |

```
      00 01 02 03 04 05 06 07  08 09 0A 0B 0C 0D 0E 0F
      -- -- -- -- -- -- -- --  -- -- -- -- -- -- -- --
0000:    22 00 37 00 80 01 80  02 80 03 80 00            ".7.........   
```

#### Opcodes

```
  0: 0x0001 [0x22] ENTITY_HIDE_FLAG(enabled=0x00)
  1: 0x0003 [0x37] UPDATE_EVENT_POSITION_AND_DIR: x=0.000*, z=19.970*, y=-1.500*, direction=85.9°*
  2: 0x000C [0x00] END_REQSTACK()
```

### Event 8

#### Metadata

| Field        | Value    |
|--------------|----------|
| Entrypoint   | 0x000D   |
| Data Size    | 15 bytes |
| Instructions | 3        |

```
      00 01 02 03 04 05 06 07  08 09 0A 0B 0C 0D 0E 0F
      -- -- -- -- -- -- -- --  -- -- -- -- -- -- -- --
0000:                                         37 00 80               7..
0010: 04 80 05 80 06 80 5E 69  64 6C 30 00              ......^idl0.    
```

#### Opcodes

```
  0: 0x000D [0x37] UPDATE_EVENT_POSITION_AND_DIR: x=0.000*, z=42.433*, y=-3.398*, direction=90.0°*
  1: 0x0016 [0x5E] EventEntity goes idle (kills current action) (animation: "idl0")
  2: 0x001B [0x00] END_REQSTACK()
```

### Event 65535.1

#### Metadata

| Field        | Value    |
|--------------|----------|
| Entrypoint   | 0x001C   |
| Data Size    | 17 bytes |
| Instructions | 4        |

```
      00 01 02 03 04 05 06 07  08 09 0A 0B 0C 0D 0E 0F
      -- -- -- -- -- -- -- --  -- -- -- -- -- -- -- --
0010:                                      33 01 37 00              3.7.
0020: 80 04 80 05 80 06 80 5E  69 64 6C 30 00           .......^idl0.   
```

#### Opcodes

```
  0: 0x001C [0x33] EventEntity->Render.Flags0 |= 0x200000 // Bit 21 (flag=0x01)
  1: 0x001E [0x37] UPDATE_EVENT_POSITION_AND_DIR: x=0.000*, z=42.433*, y=-3.398*, direction=90.0°*
  2: 0x0027 [0x5E] EventEntity goes idle (kills current action) (animation: "idl0")
  3: 0x002C [0x00] END_REQSTACK()
```

### Event 9

#### Metadata

| Field        | Value    |
|--------------|----------|
| Entrypoint   | 0x002D   |
| Data Size    | 10 bytes |
| Instructions | 2        |

```
      00 01 02 03 04 05 06 07  08 09 0A 0B 0C 0D 0E 0F
      -- -- -- -- -- -- -- --  -- -- -- -- -- -- -- --
0020:                                         37 00 80               7..
0030: 07 80 08 80 06 80 00                              .......         
```

#### Opcodes

```
  0: 0x002D [0x37] UPDATE_EVENT_POSITION_AND_DIR: x=0.000*, z=12.710*, y=-1.499*, direction=90.0°*
  1: 0x0036 [0x00] END_REQSTACK()
```

### Event 65535.2

#### Metadata

| Field        | Value    |
|--------------|----------|
| Entrypoint   | 0x0037   |
| Data Size    | 14 bytes |
| Instructions | 4        |

```
      00 01 02 03 04 05 06 07  08 09 0A 0B 0C 0D 0E 0F
      -- -- -- -- -- -- -- --  -- -- -- -- -- -- -- --
0030:                      32  09 80 1F 00 0A 80 0B 80         2........
0040: 08 80 1F 01 00                                    .....           
```

#### Opcodes

```
  0: 0x0037 [0x32] ExtData[1]->MainSpeed = 7* * 0.1
  1: 0x003A [0x1F] MOVE_ENTITY: EventEntity moves to X=-0.079*, Z=7.852*, Y=-1.499*
  2: 0x0042 [0x1F] MOVE_ENTITY: Update entity position (mode=1)
  3: 0x0044 [0x00] END_REQSTACK()
```

### Event 65535.3

#### Metadata

| Field        | Value    |
|--------------|----------|
| Entrypoint   | 0x0045   |
| Data Size    | 14 bytes |
| Instructions | 4        |

```
      00 01 02 03 04 05 06 07  08 09 0A 0B 0C 0D 0E 0F
      -- -- -- -- -- -- -- --  -- -- -- -- -- -- -- --
0040:                32 09 80  1F 00 0C 80 0D 80 00 80       2..........
0050: 1F 01 00                                          ...             
```

#### Opcodes

```
  0: 0x0045 [0x32] ExtData[1]->MainSpeed = 7* * 0.1
  1: 0x0048 [0x1F] MOVE_ENTITY: EventEntity moves to X=0.053*, Z=3.986*, Y=0.000*
  2: 0x0050 [0x1F] MOVE_ENTITY: Update entity position (mode=1)
  3: 0x0052 [0x00] END_REQSTACK()
```

### Event 65535.4

#### Metadata

| Field        | Value    |
|--------------|----------|
| Entrypoint   | 0x0053   |
| Data Size    | 14 bytes |
| Instructions | 4        |

```
      00 01 02 03 04 05 06 07  08 09 0A 0B 0C 0D 0E 0F
      -- -- -- -- -- -- -- --  -- -- -- -- -- -- -- --
0050:          32 09 80 1F 00  00 80 0E 80 08 80 1F 01     2............
0060: 00                                                .               
```

#### Opcodes

```
  0: 0x0053 [0x32] ExtData[1]->MainSpeed = 7* * 0.1
  1: 0x0056 [0x1F] MOVE_ENTITY: EventEntity moves to X=0.000*, Z=15.986*, Y=-1.499*
  2: 0x005E [0x1F] MOVE_ENTITY: Update entity position (mode=1)
  3: 0x0060 [0x00] END_REQSTACK()
```

### Event 65535.5

#### Metadata

| Field        | Value    |
|--------------|----------|
| Entrypoint   | 0x0061   |
| Data Size    | 11 bytes |
| Instructions | 3        |

```
      00 01 02 03 04 05 06 07  08 09 0A 0B 0C 0D 0E 0F
      -- -- -- -- -- -- -- --  -- -- -- -- -- -- -- --
0060:    84 37 00 80 0F 80 08  80 10 80 00               .7.........    
```

#### Opcodes

```
  0: 0x0061 [0x84] ADJUST_RENDER_FLAGS3_BIT0()
  1: 0x0062 [0x37] UPDATE_EVENT_POSITION_AND_DIR: x=0.000*, z=10.198*, y=-1.499*, direction=89.7°*
  2: 0x006B [0x00] END_REQSTACK()
```

### Event 32

#### Metadata

| Field        | Value   |
|--------------|---------|
| Entrypoint   | 0x006C  |
| Data Size    | 3 bytes |
| Instructions | 2       |

```
      00 01 02 03 04 05 06 07  08 09 0A 0B 0C 0D 0E 0F
      -- -- -- -- -- -- -- --  -- -- -- -- -- -- -- --
0060:                                      22 01 00                 ".. 
```

#### Opcodes

```
  0: 0x006C [0x22] ENTITY_HIDE_FLAG(enabled=0x01)
  1: 0x006E [0x00] END_REQSTACK()
```

### Event 21

#### Metadata

| Field        | Value    |
|--------------|----------|
| Entrypoint   | 0x006F   |
| Data Size    | 15 bytes |
| Instructions | 3        |

```
      00 01 02 03 04 05 06 07  08 09 0A 0B 0C 0D 0E 0F
      -- -- -- -- -- -- -- --  -- -- -- -- -- -- -- --
0060:                                               5E                 ^
0070: 69 64 6C 30 37 00 80 11  80 05 80 06 80 00        idl07.........  
```

#### Opcodes

```
  0: 0x006F [0x5E] EventEntity goes idle (kills current action) (animation: "idl0")
  1: 0x0074 [0x37] UPDATE_EVENT_POSITION_AND_DIR: x=0.000*, z=40.355*, y=-3.398*, direction=90.0°*
  2: 0x007D [0x00] END_REQSTACK()
```

### Event 100

#### Metadata

| Field        | Value    |
|--------------|----------|
| Entrypoint   | 0x007E   |
| Data Size    | 15 bytes |
| Instructions | 3        |

```
      00 01 02 03 04 05 06 07  08 09 0A 0B 0C 0D 0E 0F
      -- -- -- -- -- -- -- --  -- -- -- -- -- -- -- --
0070:                                            5E 69                ^i
0080: 64 6C 30 37 12 80 13 80  14 80 06 80 00           dl07.........   
```

#### Opcodes

```
  0: 0x007E [0x5E] EventEntity goes idle (kills current action) (animation: "idl0")
  1: 0x0083 [0x37] UPDATE_EVENT_POSITION_AND_DIR: x=0.051*, z=32.009*, y=-2.999*, direction=90.0°*
  2: 0x008C [0x00] END_REQSTACK()
```

### Event 65535.6

#### Metadata

| Field        | Value    |
|--------------|----------|
| Entrypoint   | 0x008D   |
| Data Size    | 12 bytes |
| Instructions | 4        |

```
      00 01 02 03 04 05 06 07  08 09 0A 0B 0C 0D 0E 0F
      -- -- -- -- -- -- -- --  -- -- -- -- -- -- -- --
0080:                                         7B F8 FF               {..
0090: FF 7F 1C 15 80 39 06 80  00                       .....9...       
```

#### Opcodes

```
  0: 0x008D [0x7B] EventEntity stops talking
  1: 0x0092 [0x1C] WAIT(30* ticks)
  2: 0x0095 [0x39] SET_ENTITY_DIRECTION(direction=5.6°*)
  3: 0x0098 [0x00] END_REQSTACK()
```

### Event 537

#### Metadata

| Field        | Value   |
|--------------|---------|
| Entrypoint   | 0x0099  |
| Data Size    | 1 bytes |
| Instructions | 1       |

```
      00 01 02 03 04 05 06 07  08 09 0A 0B 0C 0D 0E 0F
      -- -- -- -- -- -- -- --  -- -- -- -- -- -- -- --
0090:                             00                             .      
```

#### Opcodes

```
  0: 0x0099 [0x00] END_REQSTACK()
```

### Event 509

#### Metadata

| Field        | Value    |
|--------------|----------|
| Entrypoint   | 0x009A   |
| Data Size    | 15 bytes |
| Instructions | 3        |

```
      00 01 02 03 04 05 06 07  08 09 0A 0B 0C 0D 0E 0F
      -- -- -- -- -- -- -- --  -- -- -- -- -- -- -- --
0090:                                5E 69 64 6C 30 37            ^idl07
00A0: 00 80 16 80 08 80 17 80  00                       .........       
```

#### Opcodes

```
  0: 0x009A [0x5E] EventEntity goes idle (kills current action) (animation: "idl0")
  1: 0x009F [0x37] UPDATE_EVENT_POSITION_AND_DIR: x=0.000*, z=18.577*, y=-1.499*, direction=88.9°*
  2: 0x00A8 [0x00] END_REQSTACK()
```

### Event 65535.7

#### Metadata

| Field        | Value    |
|--------------|----------|
| Entrypoint   | 0x00A9   |
| Data Size    | 15 bytes |
| Instructions | 5        |

```
      00 01 02 03 04 05 06 07  08 09 0A 0B 0C 0D 0E 0F
      -- -- -- -- -- -- -- --  -- -- -- -- -- -- -- --
00A0:                             32 18 80 1F 00 00 80           2......
00B0: 19 80 08 80 1F 01 6F 00                           ......o.        
```

#### Opcodes

```
  0: 0x00A9 [0x32] ExtData[1]->MainSpeed = 8* * 0.1
  1: 0x00AC [0x1F] MOVE_ENTITY: EventEntity moves to X=0.000*, Z=12.620*, Y=-1.499*
  2: 0x00B4 [0x1F] MOVE_ENTITY: Update entity position (mode=1)
  3: 0x00B6 [0x6F] WAIT_FRAME_DELAY: Yield until WaitTime reaches zero
  4: 0x00B7 [0x00] END_REQSTACK()
```

### Event 65535.8

#### Metadata

| Field        | Value    |
|--------------|----------|
| Entrypoint   | 0x00B8   |
| Data Size    | 15 bytes |
| Instructions | 5        |

```
      00 01 02 03 04 05 06 07  08 09 0A 0B 0C 0D 0E 0F
      -- -- -- -- -- -- -- --  -- -- -- -- -- -- -- --
00B0:                          32 18 80 1F 00 00 80 1A          2.......
00C0: 80 08 80 1F 01 6F 00                              .....o.         
```

#### Opcodes

```
  0: 0x00B8 [0x32] ExtData[1]->MainSpeed = 8* * 0.1
  1: 0x00BB [0x1F] MOVE_ENTITY: EventEntity moves to X=0.000*, Z=9.179*, Y=-1.499*
  2: 0x00C3 [0x1F] MOVE_ENTITY: Update entity position (mode=1)
  3: 0x00C5 [0x6F] WAIT_FRAME_DELAY: Yield until WaitTime reaches zero
  4: 0x00C6 [0x00] END_REQSTACK()
```

### Event 65535.9

#### Metadata

| Field        | Value   |
|--------------|---------|
| Entrypoint   | 0x00C7  |
| Data Size    | 4 bytes |
| Instructions | 2       |

```
      00 01 02 03 04 05 06 07  08 09 0A 0B 0C 0D 0E 0F
      -- -- -- -- -- -- -- --  -- -- -- -- -- -- -- --
00C0:                      39  1B 80 00                        9...     
```

#### Opcodes

```
  0: 0x00C7 [0x39] SET_ENTITY_DIRECTION(direction=16.9°*)
  1: 0x00CA [0x00] END_REQSTACK()
```

### Event 65535.10

#### Metadata

| Field        | Value    |
|--------------|----------|
| Entrypoint   | 0x00CB   |
| Data Size    | 12 bytes |
| Instructions | 4        |

```
      00 01 02 03 04 05 06 07  08 09 0A 0B 0C 0D 0E 0F
      -- -- -- -- -- -- -- --  -- -- -- -- -- -- -- --
00C0:                                   1F 00 00 80 1C             .....
00D0: 80 08 80 1F 01 6F 00                              .....o.         
```

#### Opcodes

```
  0: 0x00CB [0x1F] MOVE_ENTITY: EventEntity moves to X=0.000*, Z=26.183*, Y=-1.499*
  1: 0x00D3 [0x1F] MOVE_ENTITY: Update entity position (mode=1)
  2: 0x00D5 [0x6F] WAIT_FRAME_DELAY: Yield until WaitTime reaches zero
  3: 0x00D6 [0x00] END_REQSTACK()
```

### Event 65535.11

#### Metadata

| Field        | Value    |
|--------------|----------|
| Entrypoint   | 0x00D7   |
| Data Size    | 35 bytes |
| Instructions | 7        |

```
      00 01 02 03 04 05 06 07  08 09 0A 0B 0C 0D 0E 0F
      -- -- -- -- -- -- -- --  -- -- -- -- -- -- -- --
00D0:                      2F  01 01 90 0E 01 4E 01 01         /.....N..
00E0: 90 0E 01 2F 00 02 90 0E  01 22 00 5E 69 64 6C 30  .../.....".^idl0
00F0: 37 1D 80 04 80 05 80 06  80 00                    7.........      
```

#### Opcodes

```
  0: 0x00D7 [0x2F] Destin (ID: 17731585/0x010E9001)->Render.Flags0 |= 0x80000 // Bit 19
  1: 0x00DD [0x4E] SET_ENTITY_HIDE_FLAG: Hide Destin (ID: 17731585/0x010E9001)
  2: 0x00E3 [0x2F] Destin (ID: 17731586/0x010E9002)->Render.Flags0 &= ~0x80000 // Bit 19
  3: 0x00E9 [0x22] ENTITY_HIDE_FLAG(enabled=0x00)
  4: 0x00EB [0x5E] EventEntity goes idle (kills current action) (animation: "idl0")
  5: 0x00F0 [0x37] UPDATE_EVENT_POSITION_AND_DIR: x=-0.001*, z=42.433*, y=-3.398*, direction=90.0°*
  6: 0x00F9 [0x00] END_REQSTACK()
```

### Event 65535.12

#### Metadata

| Field        | Value    |
|--------------|----------|
| Entrypoint   | 0x00FA   |
| Data Size    | 47 bytes |
| Instructions | 11       |

```
      00 01 02 03 04 05 06 07  08 09 0A 0B 0C 0D 0E 0F
      -- -- -- -- -- -- -- --  -- -- -- -- -- -- -- --
00F0:                                32 18 80 5E 61 72            2..^ar
0100: 6B 30 1F 00 1E 80 1F 80  05 80 1F 01 5E 69 64 6C  k0..........^idl
0110: 30 1C 20 80 5E 61 72 6B  30 1F 00 1D 80 21 80 22  0. .^ark0....!."
0120: 80 1F 01 5E 69 64 6C 30  00                       ...^idl0.       
```

#### Opcodes

```
  0: 0x00FA [0x32] ExtData[1]->MainSpeed = 8* * 0.1
  1: 0x00FD [0x5E] EventEntity goes idle (kills current action) (animation: "ark0")
  2: 0x0102 [0x1F] MOVE_ENTITY: EventEntity moves to X=-0.024*, Z=39.927*, Y=-3.398*
  3: 0x010A [0x1F] MOVE_ENTITY: Update entity position (mode=1)
  4: 0x010C [0x5E] EventEntity goes idle (kills current action) (animation: "idl0")
  5: 0x0111 [0x1C] WAIT(60* ticks)
  6: 0x0114 [0x5E] EventEntity goes idle (kills current action) (animation: "ark0")
  7: 0x0119 [0x1F] MOVE_ENTITY: EventEntity moves to X=-0.001*, Z=38.861*, Y=-3.199*
  8: 0x0121 [0x1F] MOVE_ENTITY: Update entity position (mode=1)
  9: 0x0123 [0x5E] EventEntity goes idle (kills current action) (animation: "idl0")
 10: 0x0128 [0x00] END_REQSTACK()
```

### Event 61

#### Metadata

| Field        | Value    |
|--------------|----------|
| Entrypoint   | 0x0129   |
| Data Size    | 12 bytes |
| Instructions | 3        |

```
      00 01 02 03 04 05 06 07  08 09 0A 0B 0C 0D 0E 0F
      -- -- -- -- -- -- -- --  -- -- -- -- -- -- -- --
0120:                             37 00 80 23 80 05 80           7..#...
0130: 24 80 22 01 00                                    $."..           
```

#### Opcodes

```
  0: 0x0129 [0x37] UPDATE_EVENT_POSITION_AND_DIR: x=0.000*, z=42.391*, y=-3.398*, direction=82.9°*
  1: 0x0132 [0x22] ENTITY_HIDE_FLAG(enabled=0x01)
  2: 0x0134 [0x00] END_REQSTACK()
```

### Event 65535.13

#### Metadata

| Field        | Value    |
|--------------|----------|
| Entrypoint   | 0x0135   |
| Data Size    | 14 bytes |
| Instructions | 4        |

```
      00 01 02 03 04 05 06 07  08 09 0A 0B 0C 0D 0E 0F
      -- -- -- -- -- -- -- --  -- -- -- -- -- -- -- --
0130:                32 09 80  1F 00 25 80 26 80 05 80       2....%.&...
0140: 1F 01 00                                          ...             
```

#### Opcodes

```
  0: 0x0135 [0x32] ExtData[1]->MainSpeed = 7* * 0.1
  1: 0x0138 [0x1F] MOVE_ENTITY: EventEntity moves to X=-0.006*, Z=40.263*, Y=-3.398*
  2: 0x0140 [0x1F] MOVE_ENTITY: Update entity position (mode=1)
  3: 0x0142 [0x00] END_REQSTACK()
```

### Event 99

#### Metadata

| Field        | Value   |
|--------------|---------|
| Entrypoint   | 0x0143  |
| Data Size    | 6 bytes |
| Instructions | 2       |

```
      00 01 02 03 04 05 06 07  08 09 0A 0B 0C 0D 0E 0F
      -- -- -- -- -- -- -- --  -- -- -- -- -- -- -- --
0140:          5E 69 64 6C 30  00                          ^idl0.       
```

#### Opcodes

```
  0: 0x0143 [0x5E] EventEntity goes idle (kills current action) (animation: "idl0")
  1: 0x0148 [0x00] END_REQSTACK()
```

### Event 65535.14

#### Metadata

| Field        | Value    |
|--------------|----------|
| Entrypoint   | 0x0149   |
| Data Size    | 25 bytes |
| Instructions | 7        |

```
      00 01 02 03 04 05 06 07  08 09 0A 0B 0C 0D 0E 0F
      -- -- -- -- -- -- -- --  -- -- -- -- -- -- -- --
0140:                             7B F8 FF FF 7F 39 06           {....9.
0150: 80 1C 20 80 32 27 80 1F  00 25 80 28 80 29 80 1F  .. .2'...%.(.)..
0160: 01 00                                             ..              
```

#### Opcodes

```
  0: 0x0149 [0x7B] EventEntity stops talking
  1: 0x014E [0x39] SET_ENTITY_DIRECTION(direction=5.6°*)
  2: 0x0151 [0x1C] WAIT(60* ticks)
  3: 0x0154 [0x32] ExtData[1]->MainSpeed = 13* * 0.1
  4: 0x0157 [0x1F] MOVE_ENTITY: EventEntity moves to X=-0.006*, Z=37.255*, Y=-3.000*
  5: 0x015F [0x1F] MOVE_ENTITY: Update entity position (mode=1)
  6: 0x0161 [0x00] END_REQSTACK()
```

### Event 65535.15

#### Metadata

| Field        | Value    |
|--------------|----------|
| Entrypoint   | 0x0162   |
| Data Size    | 19 bytes |
| Instructions | 3        |

```
      00 01 02 03 04 05 06 07  08 09 0A 0B 0C 0D 0E 0F
      -- -- -- -- -- -- -- --  -- -- -- -- -- -- -- --
0160:       5B 2A 80 02 90 0E  01 02 90 0E 01 74 6C 6B    [*.........tlk
0170: 30 1C 15 80 00                                    0....           
```

#### Opcodes

```
  0: 0x0162 [0x5B] LOAD_EXT_SCHEDULER: Load scheduler "tlk0" with entities [Destin (ID: 17731586/0x010E9002), Destin (ID: 17731586/0x010E9002)], work=130*
  1: 0x0171 [0x1C] WAIT(30* ticks)
  2: 0x0174 [0x00] END_REQSTACK()
```

### Event 65535.16

#### Metadata

| Field        | Value    |
|--------------|----------|
| Entrypoint   | 0x0175   |
| Data Size    | 29 bytes |
| Instructions | 3        |

```
      00 01 02 03 04 05 06 07  08 09 0A 0B 0C 0D 0E 0F
      -- -- -- -- -- -- -- --  -- -- -- -- -- -- -- --
0170:                5B 2A 80  02 90 0E 01 02 90 0E 01       [*.........
0180: 74 6C 6B 31 53 02 90 0E  01 02 90 0E 01 74 6C 6B  tlk1S........tlk
0190: 31 00                                             1.              
```

#### Opcodes

```
  0: 0x0175 [0x5B] LOAD_EXT_SCHEDULER: Load scheduler "tlk1" with entities [Destin (ID: 17731586/0x010E9002), Destin (ID: 17731586/0x010E9002)], work=130*
  1: 0x0184 [0x53] WAIT_SCHEDULER_TASK: Wait for scheduler "tlk1" with entities [Destin (ID: 17731586/0x010E9002), Destin (ID: 17731586/0x010E9002)]
  2: 0x0191 [0x00] END_REQSTACK()
```

### Event 578

#### Metadata

| Field        | Value   |
|--------------|---------|
| Entrypoint   | 0x0192  |
| Data Size    | 7 bytes |
| Instructions | 2       |

```
      00 01 02 03 04 05 06 07  08 09 0A 0B 0C 0D 0E 0F
      -- -- -- -- -- -- -- --  -- -- -- -- -- -- -- --
0190:       92 01 F8 FF FF 7F  00                         .......       
```

#### Opcodes

```
  0: 0x0192 [0x92] EventEntity->Render.Flags3 ^= 0x01
  1: 0x0198 [0x00] END_REQSTACK()
```
