# 17731679

## Common Data

| Field            | Value                         |
|------------------|-------------------------------|
| Zone             | Chateau d'Oraguille (ID: 233) |
| Block Size       | 4892 bytes                    |
| Total Events     | 3                             |
| References Count | 70                            |

## List of Events

| Event ID              | Entrypoint   |   Size |   Instructions |
|-----------------------|--------------|--------|----------------|
| [65535](#event-65535) | 0x0000       |    658 |             62 |
| [567](#event-567)     | 0x0292       |   2267 |            244 |
| [568](#event-568)     | 0x0B6D       |   1659 |            180 |

## DAT References (imed_data)

|   Index | Hex Value   |   Dec Value |
|---------|-------------|-------------|
|       0 | 0x00C8      |         200 |
|       1 | 0x0000      |           0 |
|       2 | 0x00C9      |         201 |
|       3 | 0x0001      |           1 |
|       4 | 0x002D      |          45 |
|       5 | 0x0002      |           2 |
|       6 | 0x001E      |          30 |
|       7 | 0x00D7      |         215 |
|       8 | 0x0013      |          19 |
|       9 | 0x08D7      |        2263 |
|      10 | 0xFFFFFA34  |  4294965812 |
|      11 | 0x0C1E      |        3102 |
|      12 | 0xA8F7      |       43255 |
|      13 | 0xFFFFF2B8  |  4294963896 |
|      14 | 0x043E      |        1086 |
|      15 | 0xFFFFFA4D  |  4294965837 |
|      16 | 0xA3EE      |       41966 |
|      17 | 0xFFFFF2BA  |  4294963898 |
|      18 | 0x0327      |         807 |
|      19 | 0x0873      |        2163 |
|      20 | 0xA55D      |       42333 |
|      21 | 0x0491      |        1169 |
|      22 | 0x000D      |          13 |
|      23 | 0x01EE      |         494 |
|      24 | 0x0078      |         120 |
|      25 | 0x0014      |          20 |
|      26 | 0x2136      |        8502 |
|      27 | 0x2137      |        8503 |
|      28 | 0x00B4      |         180 |
|      29 | 0x2138      |        8504 |
|      30 | 0x03A2      |         930 |
|      31 | 0x8E03      |       36355 |
|      32 | 0xFFFFF448  |  4294964296 |
|      33 | 0x0BB9      |        3001 |
|      34 | 0xFFFFFC8C  |  4294966412 |
|      35 | 0x8DB4      |       36276 |
|      36 | 0x0BB8      |        3000 |
|      37 | 0x0064      |         100 |
|      38 | 0x006E      |         110 |
|      39 | 0x213A      |        8506 |
|      40 | 0x213B      |        8507 |
|      41 | 0x0083      |         131 |
|      42 | 0x213C      |        8508 |
|      43 | 0x213D      |        8509 |
|      44 | 0x0073      |         115 |
|      45 | 0x213E      |        8510 |
|      46 | 0x213F      |        8511 |
|      47 | 0x2140      |        8512 |
|      48 | 0x2141      |        8513 |
|      49 | 0x0074      |         116 |
|      50 | 0x2142      |        8514 |
|      51 | 0x2143      |        8515 |
|      52 | 0x2144      |        8516 |
|      53 | 0x0079      |         121 |
|      54 | 0x2145      |        8517 |
|      55 | 0x2146      |        8518 |
|      56 | 0x2147      |        8519 |
|      57 | 0x2148      |        8520 |
|      58 | 0x001D      |          29 |
|      59 | 0x2149      |        8521 |
|      60 | 0x214A      |        8522 |
|      61 | 0x214B      |        8523 |
|      62 | 0x214C      |        8524 |
|      63 | 0x214D      |        8525 |
|      64 | 0x214E      |        8526 |
|      65 | 0x214F      |        8527 |
|      66 | 0x01ED      |         493 |
|      67 | 0x000F      |          15 |
|      68 | 0x2150      |        8528 |
|      69 | 0x2151      |        8529 |

## Events

### Event 65535

#### Metadata

| Field        | Value     |
|--------------|-----------|
| Entrypoint   | 0x0000    |
| Data Size    | 658 bytes |
| Instructions | 1         |

```
      00 01 02 03 04 05 06 07  08 09 0A 0B 0C 0D 0E 0F
      -- -- -- -- -- -- -- --  -- -- -- -- -- -- -- --
0000: 00 45 00 80 F0 FF FF 7F  F0 FF FF 7F 66 64 69 30  .E..........fdi0
0010: 01 80 55 00 80 F0 FF FF  7F F0 FF FF 7F 66 64 69  ..U..........fdi
0020: 30 1B 45 00 80 F0 FF FF  7F F0 FF FF 7F 66 64 6F  0.E..........fdo
0030: 30 01 80 55 00 80 F0 FF  FF 7F F0 FF FF 7F 66 64  0..U..........fd
0040: 6F 30 1B 45 00 80 F0 FF  FF 7F F0 FF FF 7F 66 64  o0.E..........fd
0050: 69 31 01 80 55 00 80 F0  FF FF 7F F0 FF FF 7F 66  i1..U..........f
0060: 64 69 31 1B 45 00 80 F0  FF FF 7F F0 FF FF 7F 66  di1.E..........f
0070: 64 6F 31 01 80 55 00 80  F0 FF FF 7F F0 FF FF 7F  do1..U..........
0080: 66 64 6F 31 1B 45 02 80  F0 FF FF 7F F0 FF FF 7F  fdo1.E..........
0090: 77 68 69 31 01 80 55 02  80 F0 FF FF 7F F0 FF FF  whi1..U.........
00A0: 7F 77 68 69 31 1B 45 02  80 F0 FF FF 7F F0 FF FF  .whi1.E.........
00B0: 7F 77 68 6F 31 01 80 55  02 80 F0 FF FF 7F F0 FF  .who1..U........
00C0: FF 7F 77 68 6F 31 1B 45  02 80 F0 FF FF 7F F0 FF  ..who1.E........
00D0: FF 7F 77 68 6F 32 01 80  55 02 80 F0 FF FF 7F F0  ..who2..U.......
00E0: FF FF 7F 77 68 6F 32 1B  45 02 80 F0 FF FF 7F F0  ...who2.E.......
00F0: FF FF 7F 77 68 6F 33 01  80 55 02 80 F0 FF FF 7F  ...who3..U......
0100: F0 FF FF 7F 77 68 6F 33  1B 62 03 80 F0 FF FF 7F  ....who3.b......
0110: F0 FF FF 7F 6D 61 69 6E  01 80 1C 04 80 45 00 80  ....main.....E..
0120: F0 FF FF 7F F0 FF FF 7F  66 64 6F 31 01 80 55 00  ........fdo1..U.
0130: 80 F0 FF FF 7F F0 FF FF  7F 66 64 6F 31 1B 45 00  .........fdo1.E.
0140: 80 F0 FF FF 7F F0 FF FF  7F 66 64 69 31 01 80 62  .........fdi1..b
0150: 05 80 F0 FF FF 7F F0 FF  FF 7F 6D 61 69 6E 01 80  ..........main..
0160: 1C 06 80 55 00 80 F0 FF  FF 7F F0 FF FF 7F 66 64  ...U..........fd
0170: 69 31 1B 45 00 80 F0 FF  FF 7F F0 FF FF 7F 62 6C  i1.E..........bl
0180: 6F 6E 01 80 45 02 80 F0  FF FF 7F F0 FF FF 7F 62  on..E..........b
0190: 6C 6F 6E 01 80 1B 45 02  80 F0 FF FF 7F F0 FF FF  lon...E.........
01A0: 7F 77 68 69 30 01 80 55  02 80 F0 FF FF 7F F0 FF  .whi0..U........
01B0: FF 7F 77 68 69 30 1B 45  02 80 F0 FF FF 7F F0 FF  ..whi0.E........
01C0: FF 7F 77 68 6F 30 01 80  55 02 80 F0 FF FF 7F F0  ..who0..U.......
01D0: FF FF 7F 77 68 6F 30 1B  45 07 80 F0 FF FF 7F F0  ...who0.E.......
01E0: FF FF 7F 65 66 6F 6E 01  80 55 07 80 F0 FF FF 7F  ...efon..U......
01F0: F0 FF FF 7F 65 66 6F 6E  1B 45 00 80 F0 FF FF 7F  ....efon.E......
0200: F0 FF FF 7F 66 64 69 73  01 80 1B 45 00 80 F0 FF  ....fdis...E....
0210: FF 7F F0 FF FF 7F 66 64  6F 73 01 80 55 00 80 F0  ......fdos..U...
0220: FF FF 7F F0 FF FF 7F 66  64 6F 73 1B 45 00 80 F0  .......fdos.E...
0230: FF FF 7F F0 FF FF 7F 66  64 69 66 01 80 1B 45 00  .......fdif...E.
0240: 80 F0 FF FF 7F F0 FF FF  7F 66 64 6F 66 01 80 55  .........fdof..U
0250: 00 80 F0 FF FF 7F F0 FF  FF 7F 66 64 6F 66 1B 45  ..........fdof.E
0260: 00 80 F0 FF FF 7F F0 FF  FF 7F 66 64 69 70 01 80  ..........fdip..
0270: 1B 45 00 80 F0 FF FF 7F  F0 FF FF 7F 66 64 6F 70  .E..........fdop
0280: 01 80 55 00 80 F0 FF FF  7F F0 FF FF 7F 66 64 6F  ..U..........fdo
0290: 70 1B                                             p.              
```

#### Opcodes

```
  0: 0x0000 [0x00] END_REQSTACK()
```

#### Data or dead code:

```
# Dead code (unreachable instructions):
     0x0001 [0x45] LOAD_SCHEDULED_TASK: Load scheduler "fdi0" with entities [LocalPlayer, LocalPlayer], work=[200*, 0*]
     0x0012 [0x55] WAIT_LOAD_SCHEDULER: Wait for scheduler "fdi0" with entities [LocalPlayer, LocalPlayer], work=200*
     0x0021 [0x1B] RETURN
     0x0022 [0x45] LOAD_SCHEDULED_TASK: Load scheduler "fdo0" with entities [LocalPlayer, LocalPlayer], work=[200*, 0*]
     0x0033 [0x55] WAIT_LOAD_SCHEDULER: Wait for scheduler "fdo0" with entities [LocalPlayer, LocalPlayer], work=200*
     0x0042 [0x1B] RETURN
     0x0043 [0x45] LOAD_SCHEDULED_TASK: Load scheduler "fdi1" with entities [LocalPlayer, LocalPlayer], work=[200*, 0*]
     0x0054 [0x55] WAIT_LOAD_SCHEDULER: Wait for scheduler "fdi1" with entities [LocalPlayer, LocalPlayer], work=200*
     0x0063 [0x1B] RETURN
     0x0064 [0x45] LOAD_SCHEDULED_TASK: Load scheduler "fdo1" with entities [LocalPlayer, LocalPlayer], work=[200*, 0*]
     0x0075 [0x55] WAIT_LOAD_SCHEDULER: Wait for scheduler "fdo1" with entities [LocalPlayer, LocalPlayer], work=200*
     0x0084 [0x1B] RETURN
     0x0085 [0x45] LOAD_SCHEDULED_TASK: Load scheduler "whi1" with entities [LocalPlayer, LocalPlayer], work=[201*, 0*]
     0x0096 [0x55] WAIT_LOAD_SCHEDULER: Wait for scheduler "whi1" with entities [LocalPlayer, LocalPlayer], work=201*
     0x00A5 [0x1B] RETURN
     0x00A6 [0x45] LOAD_SCHEDULED_TASK: Load scheduler "who1" with entities [LocalPlayer, LocalPlayer], work=[201*, 0*]
     0x00B7 [0x55] WAIT_LOAD_SCHEDULER: Wait for scheduler "who1" with entities [LocalPlayer, LocalPlayer], work=201*
     0x00C6 [0x1B] RETURN
     0x00C7 [0x45] LOAD_SCHEDULED_TASK: Load scheduler "who2" with entities [LocalPlayer, LocalPlayer], work=[201*, 0*]
     0x00D8 [0x55] WAIT_LOAD_SCHEDULER: Wait for scheduler "who2" with entities [LocalPlayer, LocalPlayer], work=201*
     0x00E7 [0x1B] RETURN
     0x00E8 [0x45] LOAD_SCHEDULED_TASK: Load scheduler "who3" with entities [LocalPlayer, LocalPlayer], work=[201*, 0*]
     0x00F9 [0x55] WAIT_LOAD_SCHEDULER: Wait for scheduler "who3" with entities [LocalPlayer, LocalPlayer], work=201*
     0x0108 [0x1B] RETURN
     0x0109 [0x62] LOAD_EVENT_SCHEDULER: Load scheduler "main" with entities [LocalPlayer, LocalPlayer], work=[1*, 0*]
     0x011A [0x1C] WAIT(45* ticks)
     0x011D [0x45] LOAD_SCHEDULED_TASK: Load scheduler "fdo1" with entities [LocalPlayer, LocalPlayer], work=[200*, 0*]
     0x012E [0x55] WAIT_LOAD_SCHEDULER: Wait for scheduler "fdo1" with entities [LocalPlayer, LocalPlayer], work=200*
     0x013D [0x1B] RETURN
     0x013E [0x45] LOAD_SCHEDULED_TASK: Load scheduler "fdi1" with entities [LocalPlayer, LocalPlayer], work=[200*, 0*]
     0x014F [0x62] LOAD_EVENT_SCHEDULER: Load scheduler "main" with entities [LocalPlayer, LocalPlayer], work=[2*, 0*]
     0x0160 [0x1C] WAIT(30* ticks)
     0x0163 [0x55] WAIT_LOAD_SCHEDULER: Wait for scheduler "fdi1" with entities [LocalPlayer, LocalPlayer], work=200*
     0x0172 [0x1B] RETURN
     0x0173 [0x45] LOAD_SCHEDULED_TASK: Load scheduler "blon" with entities [LocalPlayer, LocalPlayer], work=[200*, 0*]
     0x0184 [0x45] LOAD_SCHEDULED_TASK: Load scheduler "blon" with entities [LocalPlayer, LocalPlayer], work=[201*, 0*]
     0x0195 [0x1B] RETURN
     0x0196 [0x45] LOAD_SCHEDULED_TASK: Load scheduler "whi0" with entities [LocalPlayer, LocalPlayer], work=[201*, 0*]
     0x01A7 [0x55] WAIT_LOAD_SCHEDULER: Wait for scheduler "whi0" with entities [LocalPlayer, LocalPlayer], work=201*
     0x01B6 [0x1B] RETURN
     0x01B7 [0x45] LOAD_SCHEDULED_TASK: Load scheduler "who0" with entities [LocalPlayer, LocalPlayer], work=[201*, 0*]
     0x01C8 [0x55] WAIT_LOAD_SCHEDULER: Wait for scheduler "who0" with entities [LocalPlayer, LocalPlayer], work=201*
     0x01D7 [0x1B] RETURN
     0x01D8 [0x45] LOAD_SCHEDULED_TASK: Load scheduler "efon" with entities [LocalPlayer, LocalPlayer], work=[215*, 0*]
     0x01E9 [0x55] WAIT_LOAD_SCHEDULER: Wait for scheduler "efon" with entities [LocalPlayer, LocalPlayer], work=215*
     0x01F8 [0x1B] RETURN
     0x01F9 [0x45] LOAD_SCHEDULED_TASK: Load scheduler "fdis" with entities [LocalPlayer, LocalPlayer], work=[200*, 0*]
     0x020A [0x1B] RETURN
     0x020B [0x45] LOAD_SCHEDULED_TASK: Load scheduler "fdos" with entities [LocalPlayer, LocalPlayer], work=[200*, 0*]
     0x021C [0x55] WAIT_LOAD_SCHEDULER: Wait for scheduler "fdos" with entities [LocalPlayer, LocalPlayer], work=200*
     0x022B [0x1B] RETURN
     0x022C [0x45] LOAD_SCHEDULED_TASK: Load scheduler "fdif" with entities [LocalPlayer, LocalPlayer], work=[200*, 0*]
     0x023D [0x1B] RETURN
     0x023E [0x45] LOAD_SCHEDULED_TASK: Load scheduler "fdof" with entities [LocalPlayer, LocalPlayer], work=[200*, 0*]
     0x024F [0x55] WAIT_LOAD_SCHEDULER: Wait for scheduler "fdof" with entities [LocalPlayer, LocalPlayer], work=200*
     0x025E [0x1B] RETURN
     0x025F [0x45] LOAD_SCHEDULED_TASK: Load scheduler "fdip" with entities [LocalPlayer, LocalPlayer], work=[200*, 0*]
     0x0270 [0x1B] RETURN
     0x0271 [0x45] LOAD_SCHEDULED_TASK: Load scheduler "fdop" with entities [LocalPlayer, LocalPlayer], work=[200*, 0*]
     0x0282 [0x55] WAIT_LOAD_SCHEDULER: Wait for scheduler "fdop" with entities [LocalPlayer, LocalPlayer], work=200*
     0x0291 [0x1B] RETURN
```

### Event 567

#### Metadata

| Field        | Value      |
|--------------|------------|
| Entrypoint   | 0x0292     |
| Data Size    | 2267 bytes |
| Instructions | 244        |

```
      00 01 02 03 04 05 06 07  08 09 0A 0B 0C 0D 0E 0F
      -- -- -- -- -- -- -- --  -- -- -- -- -- -- -- --
0290:       42 45 00 80 F8 FF  FF 7F F8 FF FF 7F 66 64    BE..........fd
02A0: 6F 31 01 80 55 00 80 F8  FF FF 7F F8 FF FF 7F 66  o1..U..........f
02B0: 64 6F 31 46 01 38 08 80  4E 00 07 90 0E 01 4E 00  do1F.8..N.....N.
02C0: 07 90 0E 01 4E 00 01 90  0E 01 4E 00 03 90 0E 01  ....N.....N.....
02D0: 4E 00 05 90 0E 01 92 01  01 90 0E 01 92 01 03 90  N...............
02E0: 0E 01 92 01 05 90 0E 01  92 01 07 90 0E 01 94 01  ................
02F0: F0 FF FF 7F 94 01 07 90  0E 01 94 01 01 90 0E 01  ................
0300: 94 01 03 90 0E 01 94 01  05 90 0E 01 BA F0 FF FF  ................
0310: 7F 09 80 0A 80 01 80 0B  80 BA 01 90 0E 01 03 80  ................
0320: 0C 80 0D 80 0E 80 BA 03  90 0E 01 0F 80 10 80 11  ................
0330: 80 12 80 BA 05 90 0E 01  13 80 14 80 11 80 15 80  ................
0340: 7B F0 FF FF 7F 7B 07 90  0E 01 7B 01 90 0E 01 7B  {....{....{....{
0350: 03 90 0E 01 7B 05 90 0E  01 80 F0 FF FF 7F 80 07  ....{...........
0360: 90 0E 01 80 01 90 0E 01  80 03 90 0E 01 80 05 90  ................
0370: 0E 01 4A F0 FF FF 7F 07  90 0E 01 4A 07 90 0E 01  ..J........J....
0380: F0 FF FF 7F 59 04 F0 FF  FF 7F 16 80 1C 06 80 45  ....Y..........E
0390: 17 80 F0 FF FF 7F F0 FF  FF 7F 6F 31 35 30 01 80  ..........o150..
03A0: 45 00 80 F0 FF FF 7F F0  FF FF 7F 66 64 69 32 01  E..........fdi2.
03B0: 80 55 00 80 F0 FF FF 7F  F0 FF FF 7F 66 64 69 32  .U..........fdi2
03C0: 6E F0 FF FF 7F 03 80 99  F0 FF FF 7F 1C 18 80 52  n..............R
03D0: 17 80 F0 FF FF 7F F0 FF  FF 7F 6F 31 35 30 45 17  ..........o150E.
03E0: 80 F0 FF FF 7F F0 FF FF  7F 6F 31 35 31 01 80 66  .........o151..f
03F0: 19 80 07 90 0E 01 07 90  0E 01 74 6C 6B 30 2B 07  ..........tlk0+.
0400: 90 0E 01 1A 80 23 66 19  80 07 90 0E 01 07 90 0E  .....#f.........
0410: 01 74 6C 6B 31 27 10 F0  FF FF 7F 8B 52 17 80 F0  .tlk1'......R...
0420: FF FF 7F F0 FF FF 7F 6F  31 35 31 45 17 80 F0 FF  .......o151E....
0430: FF 7F F0 FF FF 7F 6F 31  35 32 01 80 1C 18 80 27  ......o152.....'
0440: 10 F0 FF FF 7F 8C 52 17  80 F0 FF FF 7F F0 FF FF  ......R.........
0450: 7F 6F 31 35 32 45 17 80  F0 FF FF 7F F0 FF FF 7F  .o152E..........
0460: 6F 31 35 33 01 80 2B 07  90 0E 01 1B 80 23 66 19  o153..+......#f.
0470: 80 07 90 0E 01 07 90 0E  01 74 68 6B 31 52 17 80  .........thk1R..
0480: F0 FF FF 7F F0 FF FF 7F  6F 31 35 33 45 17 80 F0  ........o153E...
0490: FF FF 7F F0 FF FF 7F 6F  31 35 35 01 80 1C 1C 80  .......o155.....
04A0: 52 17 80 F0 FF FF 7F F0  FF FF 7F 6F 31 35 35 45  R..........o155E
04B0: 17 80 F0 FF FF 7F F0 FF  FF 7F 6F 31 35 34 01 80  ..........o154..
04C0: 66 19 80 07 90 0E 01 07  90 0E 01 74 68 6B 32 2B  f..........thk2+
04D0: 07 90 0E 01 1D 80 23 59  04 F0 FF FF 7F 16 80 59  ......#Y.......Y
04E0: 04 07 90 0E 01 16 80 27  10 07 90 0E 01 66 1C 19  .......'.....f..
04F0: 80 52 17 80 F0 FF FF 7F  F0 FF FF 7F 6F 31 35 34  .R..........o154
0500: 45 17 80 F0 FF FF 7F F0  FF FF 7F 6F 31 33 30 01  E..........o130.
0510: 80 27 10 F0 FF FF 7F 93  7B F0 FF FF 7F 1C 18 80  .'......{.......
0520: 45 00 80 F0 FF FF 7F F0  FF FF 7F 66 64 6F 32 01  E..........fdo2.
0530: 80 55 00 80 F0 FF FF 7F  F0 FF FF 7F 66 64 6F 32  .U..........fdo2
0540: 52 17 80 F0 FF FF 7F F0  FF FF 7F 6F 31 33 30 7A  R..........o130z
0550: 00 F0 FF FF 7F 7A 00 07  90 0E 01 BA F0 FF FF 7F  .....z..........
0560: 1E 80 1F 80 20 80 21 80  BA 07 90 0E 01 22 80 23  .... .!......".#
0570: 80 20 80 24 80 7B 07 90  0E 01 29 10 F0 FF FF 7F  . .$.{....).....
0580: 53 79 00 F0 FF FF 7F F0  FF FF 7F 1C 25 80 45 17  Sy..........%.E.
0590: 80 F0 FF FF 7F F0 FF FF  7F 6F 31 30 39 01 80 45  .........o109..E
05A0: 00 80 F0 FF FF 7F F0 FF  FF 7F 66 64 69 32 01 80  ..........fdi2..
05B0: 55 00 80 F0 FF FF 7F F0  FF FF 7F 66 64 69 32 1C  U..........fdi2.
05C0: 26 80 52 17 80 F0 FF FF  7F F0 FF FF 7F 6F 31 30  &.R..........o10
05D0: 39 45 17 80 F0 FF FF 7F  F0 FF FF 7F 6F 31 31 30  9E..........o110
05E0: 01 80 2B 01 90 0E 01 27  80 23 52 17 80 F0 FF FF  ..+....'.#R.....
05F0: 7F F0 FF FF 7F 6F 31 31  30 45 17 80 F0 FF FF 7F  .....o110E......
0600: F0 FF FF 7F 6F 31 31 31  01 80 7C 00 05 90 0E 01  ....o111..|.....
0610: 2B 05 90 0E 01 28 80 23  7C 01 05 90 0E 01 52 17  +....(.#|.....R.
0620: 80 F0 FF FF 7F F0 FF FF  7F 6F 31 31 31 45 17 80  .........o111E..
0630: F0 FF FF 7F F0 FF FF 7F  6F 31 31 32 01 80 5B 29  ........o112..[)
0640: 80 01 90 0E 01 01 90 0E  01 73 74 6B 30 2B 01 90  .........stk0+..
0650: 0E 01 2A 80 23 5B 29 80  01 90 0E 01 01 90 0E 01  ..*.#[).........
0660: 73 74 6B 31 52 17 80 F0  FF FF 7F F0 FF FF 7F 6F  stk1R..........o
0670: 31 31 32 45 17 80 F0 FF  FF 7F F0 FF FF 7F 6F 31  112E..........o1
0680: 31 33 01 80 4A 07 90 0E  01 03 90 0E 01 4A 03 90  13..J........J..
0690: 0E 01 07 90 0E 01 66 19  80 07 90 0E 01 07 90 0E  ......f.........
06A0: 01 74 6C 6B 30 2B 07 90  0E 01 2B 80 23 52 17 80  .tlk0+....+.#R..
06B0: F0 FF FF 7F F0 FF FF 7F  6F 31 31 33 45 17 80 F0  ........o113E...
06C0: FF FF 7F F0 FF FF 7F 6F  31 31 34 01 80 66 19 80  .......o114..f..
06D0: 07 90 0E 01 07 90 0E 01  74 6C 6B 31 5B 2C 80 03  ........tlk1[,..
06E0: 90 0E 01 03 90 0E 01 61  72 61 30 2B 03 90 0E 01  .......ara0+....
06F0: 2D 80 23 52 17 80 F0 FF  FF 7F F0 FF FF 7F 6F 31  -.#R..........o1
0700: 31 34 45 17 80 F0 FF FF  7F F0 FF FF 7F 6F 31 31  14E..........o11
0710: 35 01 80 5B 2C 80 03 90  0E 01 03 90 0E 01 61 72  5..[,.........ar
0720: 61 31 66 19 80 07 90 0E  01 07 90 0E 01 74 6C 6B  a1f..........tlk
0730: 30 2B 07 90 0E 01 2E 80  23 2B 07 90 0E 01 2F 80  0+......#+..../.
0740: 23 66 19 80 07 90 0E 01  07 90 0E 01 74 6C 6B 31  #f..........tlk1
0750: 52 17 80 F0 FF FF 7F F0  FF FF 7F 6F 31 31 35 45  R..........o115E
0760: 17 80 F0 FF FF 7F F0 FF  FF 7F 6F 31 33 31 01 80  ..........o131..
0770: 1C 18 80 52 17 80 F0 FF  FF 7F F0 FF FF 7F 6F 31  ...R..........o1
0780: 33 31 45 17 80 F0 FF FF  7F F0 FF FF 7F 6F 31 31  31E..........o11
0790: 36 01 80 2B 05 90 0E 01  30 80 23 52 17 80 F0 FF  6..+....0.#R....
07A0: FF 7F F0 FF FF 7F 6F 31  31 36 45 17 80 F0 FF FF  ......o116E.....
07B0: 7F F0 FF FF 7F 6F 31 31  37 01 80 5B 31 80 03 90  .....o117..[1...
07C0: 0E 01 03 90 0E 01 70 75  69 30 4A 07 90 0E 01 05  ......pui0J.....
07D0: 90 0E 01 1C 18 80 5B 31  80 03 90 0E 01 03 90 0E  ......[1........
07E0: 01 70 75 69 31 52 17 80  F0 FF FF 7F F0 FF FF 7F  .pui1R..........
07F0: 6F 31 31 37 45 17 80 F0  FF FF 7F F0 FF FF 7F 6F  o117E..........o
0800: 31 31 38 01 80 66 19 80  07 90 0E 01 07 90 0E 01  118..f..........
0810: 74 6C 6B 30 2B 07 90 0E  01 32 80 23 52 17 80 F0  tlk0+....2.#R...
0820: FF FF 7F F0 FF FF 7F 6F  31 31 38 45 17 80 F0 FF  .......o118E....
0830: FF 7F F0 FF FF 7F 6F 31  31 39 01 80 66 19 80 07  ......o119..f...
0840: 90 0E 01 07 90 0E 01 74  6C 6B 31 66 18 80 05 90  .......tlk1f....
0850: 0E 01 05 90 0E 01 74 6C  6B 30 79 00 05 90 0E 01  ......tlk0y.....
0860: 07 90 0E 01 2B 05 90 0E  01 33 80 23 66 18 80 05  ....+....3.#f...
0870: 90 0E 01 05 90 0E 01 74  6C 6B 31 52 17 80 F0 FF  .......tlk1R....
0880: FF 7F F0 FF FF 7F 6F 31  31 39 45 17 80 F0 FF FF  ......o119E.....
0890: 7F F0 FF FF 7F 6F 31 32  30 01 80 2B 07 90 0E 01  .....o120..+....
08A0: 34 80 23 52 17 80 F0 FF  FF 7F F0 FF FF 7F 6F 31  4.#R..........o1
08B0: 32 30 45 17 80 F0 FF FF  7F F0 FF FF 7F 6F 31 32  20E..........o12
08C0: 31 01 80 4A 03 90 0E 01  05 90 0E 01 66 35 80 05  1..J........f5..
08D0: 90 0E 01 05 90 0E 01 74  68 6B 30 2B 05 90 0E 01  .......thk0+....
08E0: 36 80 23 2B 05 90 0E 01  37 80 23 66 35 80 05 90  6.#+....7.#f5...
08F0: 0E 01 05 90 0E 01 74 68  6B 31 6F 76 03 90 0E 01  ......thk1ov....
0900: 52 17 80 F0 FF FF 7F F0  FF FF 7F 6F 31 32 31 45  R..........o121E
0910: 17 80 F0 FF FF 7F F0 FF  FF 7F 6F 31 32 32 01 80  ..........o122..
0920: 7B 05 90 0E 01 5B 2C 80  03 90 0E 01 03 90 0E 01  {....[,.........
0930: 6C 61 75 30 2B 03 90 0E  01 38 80 23 5B 2C 80 03  lau0+....8.#[,..
0940: 90 0E 01 03 90 0E 01 6C  61 75 31 52 17 80 F0 FF  .......lau1R....
0950: FF 7F F0 FF FF 7F 6F 31  32 32 03 00 00 09 10 02  ......o122......
0960: 00 00 01 80 80 6D 09 1C  03 80 01 A3 0A 02 00 00  .....m..........
0970: 03 80 80 A3 0A 45 17 80  F0 FF FF 7F F0 FF FF 7F  .....E..........
0980: 6F 31 32 33 01 80 4A 03  90 0E 01 F0 FF FF 7F 4A  o123..J........J
0990: 07 90 0E 01 01 90 0E 01  6F 76 03 90 0E 01 2B 03  ........ov....+.
09A0: 90 0E 01 39 80 23 52 17  80 F0 FF FF 7F F0 FF FF  ...9.#R.........
09B0: 7F 6F 31 32 33 45 17 80  F0 FF FF 7F F0 FF FF 7F  .o123E..........
09C0: 6F 31 32 34 01 80 66 3A  80 07 90 0E 01 07 90 0E  o124..f:........
09D0: 01 74 6C 6B 30 2B 07 90  0E 01 3B 80 23 2B 07 90  .tlk0+....;.#+..
09E0: 0E 01 3C 80 23 66 3A 80  07 90 0E 01 07 90 0E 01  ..<.#f:.........
09F0: 74 6C 6B 31 52 17 80 F0  FF FF 7F F0 FF FF 7F 6F  tlk1R..........o
0A00: 31 32 34 45 17 80 F0 FF  FF 7F F0 FF FF 7F 6F 31  124E..........o1
0A10: 32 35 01 80 5B 2C 80 03  90 0E 01 03 90 0E 01 74  25..[,.........t
0A20: 6C 6B 30 2B 03 90 0E 01  3D 80 23 52 17 80 F0 FF  lk0+....=.#R....
0A30: FF 7F F0 FF FF 7F 6F 31  32 35 45 17 80 F0 FF FF  ......o125E.....
0A40: 7F F0 FF FF 7F 6F 31 33  32 01 80 29 10 F0 FF FF  .....o132..)....
0A50: 7F 7F 2B 03 90 0E 01 3E  80 23 5B 2C 80 03 90 0E  ..+....>.#[,....
0A60: 01 03 90 0E 01 74 6C 6B  31 52 17 80 F0 FF FF 7F  .....tlk1R......
0A70: F0 FF FF 7F 6F 31 33 32  45 17 80 F0 FF FF 7F F0  ....o132E.......
0A80: FF FF 7F 6F 31 32 36 01  80 2B 03 90 0E 01 3F 80  ...o126..+....?.
0A90: 23 52 17 80 F0 FF FF 7F  F0 FF FF 7F 6F 31 32 36  #R..........o126
0AA0: 01 A3 0A 45 17 80 F0 FF  FF 7F F0 FF FF 7F 6F 31  ...E..........o1
0AB0: 32 37 01 80 4A 03 90 0E  01 F0 FF FF 7F 4A 07 90  27..J........J..
0AC0: 0E 01 01 90 0E 01 6F 76  03 90 0E 01 5B 29 80 01  ......ov....[)..
0AD0: 90 0E 01 01 90 0E 01 73  74 6B 30 2B 01 90 0E 01  .......stk0+....
0AE0: 40 80 23 2B 01 90 0E 01  41 80 23 5B 29 80 01 90  @.#+....A.#[)...
0AF0: 0E 01 01 90 0E 01 73 74  6B 31 52 17 80 F0 FF FF  ......stk1R.....
0B00: 7F F0 FF FF 7F 6F 31 32  37 45 17 80 F0 FF FF 7F  .....o127E......
0B10: F0 FF FF 7F 6F 31 32 38  01 80 1C 18 80 52 17 80  ....o128.....R..
0B20: F0 FF FF 7F F0 FF FF 7F  6F 31 32 38 1A 64 00 1C  ........o128.d..
0B30: 06 80 59 05 F0 FF FF 7F  00 52 42 80 F0 FF FF 7F  ..Y......RB.....
0B40: F0 FF FF 7F 72 31 34 30  78 1C 43 80 AB 09 1C 43  ....r140x.C....C
0B50: 80 AB 11 01 80 1C 03 80  46 00 45 00 80 F0 FF FF  ........F.E.....
0B60: 7F F0 FF FF 7F 66 64 69  32 01 80 21 00           .....fdi2..!.   
```

#### Opcodes

```
  0: 0x0292 [0x42] SET_CLI_EVENT_CANCEL_DATA()
  1: 0x0293 [0x45] LOAD_SCHEDULED_TASK: Load scheduler "fdo1" with entities [EventEntity, EventEntity], work=[200*, 0*]
  2: 0x02A4 [0x55] WAIT_LOAD_SCHEDULER: Wait for scheduler "fdo1" with entities [EventEntity, EventEntity], work=200*
  3: 0x02B3 [0x46] CAMERA_CONTROL: Disable user control
  4: 0x02B5 [0x38] SET_CLIENT_EVENT_MODE(mode=19*)
  5: 0x02B8 [0x4E] SET_ENTITY_HIDE_FLAG: Show Halver (ID: 17731591/0x010E9007)
  6: 0x02BE [0x4E] SET_ENTITY_HIDE_FLAG: Show Halver (ID: 17731591/0x010E9007)
  7: 0x02C4 [0x4E] SET_ENTITY_HIDE_FLAG: Show Destin (ID: 17731585/0x010E9001)
  8: 0x02CA [0x4E] SET_ENTITY_HIDE_FLAG: Show Trion (ID: 17731587/0x010E9003)
  9: 0x02D0 [0x4E] SET_ENTITY_HIDE_FLAG: Show Pieuje (ID: 17731589/0x010E9005)
 10: 0x02D6 [0x92] Destin (ID: 17731585/0x010E9001)->Render.Flags3 ^= 0x01
 11: 0x02DC [0x92] Trion (ID: 17731587/0x010E9003)->Render.Flags3 ^= 0x01
 12: 0x02E2 [0x92] Pieuje (ID: 17731589/0x010E9005)->Render.Flags3 ^= 0x01
 13: 0x02E8 [0x92] Halver (ID: 17731591/0x010E9007)->Render.Flags3 ^= 0x01
 14: 0x02EE [0x94] LocalPlayer->Render.Flags3 ^= 0x01
 15: 0x02F4 [0x94] Halver (ID: 17731591/0x010E9007)->Render.Flags3 ^= 0x01
 16: 0x02FA [0x94] Destin (ID: 17731585/0x010E9001)->Render.Flags3 ^= 0x01
 17: 0x0300 [0x94] Trion (ID: 17731587/0x010E9003)->Render.Flags3 ^= 0x01
 18: 0x0306 [0x94] Pieuje (ID: 17731589/0x010E9005)->Render.Flags3 ^= 0x01
 19: 0x030C [0xBA] SET_ENTITY_POSITION(entity_id=LocalPlayer, pos_x=2.263*, pos_z=-1.484*, pos_y=0.000*, direction=272.6°*)
 20: 0x0319 [0xBA] SET_ENTITY_POSITION(entity_id=Destin (ID: 17731585/0x010E9001), pos_x=0.001*, pos_z=43.255*, pos_y=-3.400*, direction=95.4°*)
 21: 0x0326 [0xBA] SET_ENTITY_POSITION(entity_id=Trion (ID: 17731587/0x010E9003), pos_x=-1.459*, pos_z=41.966*, pos_y=-3.398*, direction=70.9°*)
 22: 0x0333 [0xBA] SET_ENTITY_POSITION(entity_id=Pieuje (ID: 17731589/0x010E9005), pos_x=2.163*, pos_z=42.333*, pos_y=-3.398*, direction=102.7°*)
 23: 0x0340 [0x7B] LocalPlayer stops talking
 24: 0x0345 [0x7B] Halver (ID: 17731591/0x010E9007) stops talking
 25: 0x034A [0x7B] Destin (ID: 17731585/0x010E9001) stops talking
 26: 0x034F [0x7B] Trion (ID: 17731587/0x010E9003) stops talking
 27: 0x0354 [0x7B] Pieuje (ID: 17731589/0x010E9005) stops talking
 28: 0x0359 [0x80] LOAD_WAIT(entity=LocalPlayer)
 29: 0x035E [0x80] LOAD_WAIT(entity=Halver (ID: 17731591/0x010E9007))
 30: 0x0363 [0x80] LOAD_WAIT(entity=Destin (ID: 17731585/0x010E9001))
 31: 0x0368 [0x80] LOAD_WAIT(entity=Trion (ID: 17731587/0x010E9003))
 32: 0x036D [0x80] LOAD_WAIT(entity=Pieuje (ID: 17731589/0x010E9005))
 33: 0x0372 [0x4A] LocalPlayer looks at Halver (ID: 17731591/0x010E9007)
 34: 0x037B [0x4A] Halver (ID: 17731591/0x010E9007) looks at LocalPlayer
 35: 0x0384 [0x59] UPDATE_ENTITY_DATA: Set LocalPlayer main speed = 13* * 0.1
 36: 0x038C [0x1C] WAIT(30* ticks)
 37: 0x038F [0x45] LOAD_SCHEDULED_TASK: Load scheduler "o150" with entities [LocalPlayer, LocalPlayer], work=[494*, 0*]
 38: 0x03A0 [0x45] LOAD_SCHEDULED_TASK: Load scheduler "fdi2" with entities [LocalPlayer, LocalPlayer], work=[200*, 0*]
 39: 0x03B1 [0x55] WAIT_LOAD_SCHEDULER: Wait for scheduler "fdi2" with entities [LocalPlayer, LocalPlayer], work=200*
 40: 0x03C0 [0x6E] LocalPlayer uses emote 1*
 41: 0x03C7 [0x99] Wait for LocalPlayer animation to complete
 42: 0x03CC [0x1C] WAIT(120* ticks)
 43: 0x03CF [0x52] END_LOAD_SCHEDULER: End scheduler "o150" with entities [LocalPlayer, LocalPlayer], work=494*
 44: 0x03DE [0x45] LOAD_SCHEDULED_TASK: Load scheduler "o151" with entities [LocalPlayer, LocalPlayer], work=[494*, 0*]
 45: 0x03EF [0x66] LOAD_EXT_SCHEDULER_MAIN: Load scheduler "tlk0" with entities [Halver (ID: 17731591/0x010E9007), Halver (ID: 17731591/0x010E9007)], work=20*
 46: 0x03FE [0x2B] Halver (ID: 17731591/0x010E9007) [8502*]:
    → "Well met, <Player>. How fare you these days?"
 47: 0x0405 [0x23] WAIT_FOR_DIALOG_INTERACTION
 48: 0x0406 [0x66] LOAD_EXT_SCHEDULER_MAIN: Load scheduler "tlk1" with entities [Halver (ID: 17731591/0x010E9007), Halver (ID: 17731591/0x010E9007)], work=20*
 49: 0x0415 [0x27] REQ_SET(priority=0x10, entity_id=LocalPlayer, tag_num=0x8B)
 50: 0x041C [0x52] END_LOAD_SCHEDULER: End scheduler "o151" with entities [LocalPlayer, LocalPlayer], work=494*
 51: 0x042B [0x45] LOAD_SCHEDULED_TASK: Load scheduler "o152" with entities [LocalPlayer, LocalPlayer], work=[494*, 0*]
 52: 0x043C [0x1C] WAIT(120* ticks)
 53: 0x043F [0x27] REQ_SET(priority=0x10, entity_id=LocalPlayer, tag_num=0x8C)
 54: 0x0446 [0x52] END_LOAD_SCHEDULER: End scheduler "o152" with entities [LocalPlayer, LocalPlayer], work=494*
 55: 0x0455 [0x45] LOAD_SCHEDULED_TASK: Load scheduler "o153" with entities [LocalPlayer, LocalPlayer], work=[494*, 0*]
 56: 0x0466 [0x2B] Halver (ID: 17731591/0x010E9007) [8503*]:
    → "A letter? And this seal..."
 57: 0x046D [0x23] WAIT_FOR_DIALOG_INTERACTION
 58: 0x046E [0x66] LOAD_EXT_SCHEDULER_MAIN: Load scheduler "thk1" with entities [Halver (ID: 17731591/0x010E9007), Halver (ID: 17731591/0x010E9007)], work=20*
 59: 0x047D [0x52] END_LOAD_SCHEDULER: End scheduler "o153" with entities [LocalPlayer, LocalPlayer], work=494*
 60: 0x048C [0x45] LOAD_SCHEDULED_TASK: Load scheduler "o155" with entities [LocalPlayer, LocalPlayer], work=[494*, 0*]
 61: 0x049D [0x1C] WAIT(180* ticks)
 62: 0x04A0 [0x52] END_LOAD_SCHEDULER: End scheduler "o155" with entities [LocalPlayer, LocalPlayer], work=494*
 63: 0x04AF [0x45] LOAD_SCHEDULED_TASK: Load scheduler "o154" with entities [LocalPlayer, LocalPlayer], work=[494*, 0*]
 64: 0x04C0 [0x66] LOAD_EXT_SCHEDULER_MAIN: Load scheduler "thk2" with entities [Halver (ID: 17731591/0x010E9007), Halver (ID: 17731591/0x010E9007)], work=20*
 65: 0x04CF [0x2B] Halver (ID: 17731591/0x010E9007) [8504*]:
    → "...So the serpent would seek the aid of the lion. A curious turn of events, indeed. I must deliver this to my king at once. Come along."
 66: 0x04D6 [0x23] WAIT_FOR_DIALOG_INTERACTION
 67: 0x04D7 [0x59] UPDATE_ENTITY_DATA: Set LocalPlayer main speed = 13* * 0.1
 68: 0x04DF [0x59] UPDATE_ENTITY_DATA: Set Halver (ID: 17731591/0x010E9007) main speed = 13* * 0.1
 69: 0x04E7 [0x27] REQ_SET(priority=0x10, entity_id=Halver (ID: 17731591/0x010E9007), tag_num=0x66)
 70: 0x04EE [0x1C] WAIT(20* ticks)
 71: 0x04F1 [0x52] END_LOAD_SCHEDULER: End scheduler "o154" with entities [LocalPlayer, LocalPlayer], work=494*
 72: 0x0500 [0x45] LOAD_SCHEDULED_TASK: Load scheduler "o130" with entities [LocalPlayer, LocalPlayer], work=[494*, 0*]
 73: 0x0511 [0x27] REQ_SET(priority=0x10, entity_id=LocalPlayer, tag_num=0x93)
 74: 0x0518 [0x7B] LocalPlayer stops talking
 75: 0x051D [0x1C] WAIT(120* ticks)
 76: 0x0520 [0x45] LOAD_SCHEDULED_TASK: Load scheduler "fdo2" with entities [LocalPlayer, LocalPlayer], work=[200*, 0*]
 77: 0x0531 [0x55] WAIT_LOAD_SCHEDULER: Wait for scheduler "fdo2" with entities [LocalPlayer, LocalPlayer], work=200*
 78: 0x0540 [0x52] END_LOAD_SCHEDULER: End scheduler "o130" with entities [LocalPlayer, LocalPlayer], work=494*
 79: 0x054F [0x7A] VM_CONTROL: Reset VM for LocalPlayer
 80: 0x0555 [0x7A] VM_CONTROL: Reset VM for Halver (ID: 17731591/0x010E9007)
 81: 0x055B [0xBA] SET_ENTITY_POSITION(entity_id=LocalPlayer, pos_x=0.930*, pos_z=36.355*, pos_y=-3.000*, direction=263.8°*)
 82: 0x0568 [0xBA] SET_ENTITY_POSITION(entity_id=Halver (ID: 17731591/0x010E9007), pos_x=-0.884*, pos_z=36.276*, pos_y=-3.000*, direction=263.7°*)
 83: 0x0575 [0x7B] Halver (ID: 17731591/0x010E9007) stops talking
 84: 0x057A [0x29] REQ_SET_WAIT(priority=0x10, entity_id=LocalPlayer, tag_num=0x53)
 85: 0x0581 [0x79] LocalPlayer looks at LocalPlayer (Basic look)
 86: 0x058B [0x1C] WAIT(100* ticks)
 87: 0x058E [0x45] LOAD_SCHEDULED_TASK: Load scheduler "o109" with entities [LocalPlayer, LocalPlayer], work=[494*, 0*]
 88: 0x059F [0x45] LOAD_SCHEDULED_TASK: Load scheduler "fdi2" with entities [LocalPlayer, LocalPlayer], work=[200*, 0*]
 89: 0x05B0 [0x55] WAIT_LOAD_SCHEDULER: Wait for scheduler "fdi2" with entities [LocalPlayer, LocalPlayer], work=200*
 90: 0x05BF [0x1C] WAIT(110* ticks)
 91: 0x05C2 [0x52] END_LOAD_SCHEDULER: End scheduler "o109" with entities [LocalPlayer, LocalPlayer], work=494*
 92: 0x05D1 [0x45] LOAD_SCHEDULED_TASK: Load scheduler "o110" with entities [LocalPlayer, LocalPlayer], work=[494*, 0*]
 93: 0x05E2 [0x2B] Destin (ID: 17731585/0x010E9001) [8506*]:
    → "An iron giant with the power to smite an airship from the sky, and a young Empress who would nonetheless seek to restore its power..."
 94: 0x05E9 [0x23] WAIT_FOR_DIALOG_INTERACTION
 95: 0x05EA [0x52] END_LOAD_SCHEDULER: End scheduler "o110" with entities [LocalPlayer, LocalPlayer], work=494*
 96: 0x05F9 [0x45] LOAD_SCHEDULED_TASK: Load scheduler "o111" with entities [LocalPlayer, LocalPlayer], work=[494*, 0*]
 97: 0x060A [0x7C] Pieuje (ID: 17731589/0x010E9005)->Render.Flags2 |= 0x00
 98: 0x0610 [0x2B] Pieuje (ID: 17731589/0x010E9005) [8507*]:
    → "..."
 99: 0x0617 [0x23] WAIT_FOR_DIALOG_INTERACTION
100: 0x0618 [0x7C] Pieuje (ID: 17731589/0x010E9005)->Render.Flags2 |= 0x01
101: 0x061E [0x52] END_LOAD_SCHEDULER: End scheduler "o111" with entities [LocalPlayer, LocalPlayer], work=494*
102: 0x062D [0x45] LOAD_SCHEDULED_TASK: Load scheduler "o112" with entities [LocalPlayer, LocalPlayer], work=[494*, 0*]
103: 0x063E [0x5B] LOAD_EXT_SCHEDULER: Load scheduler "stk0" with entities [Destin (ID: 17731585/0x010E9001), Destin (ID: 17731585/0x010E9001)], work=131*
104: 0x064D [0x2B] Destin (ID: 17731585/0x010E9001) [8508*]:
    → "I would hear your counsel, Halver."
105: 0x0654 [0x23] WAIT_FOR_DIALOG_INTERACTION
106: 0x0655 [0x5B] LOAD_EXT_SCHEDULER: Load scheduler "stk1" with entities [Destin (ID: 17731585/0x010E9001), Destin (ID: 17731585/0x010E9001)], work=131*
107: 0x0664 [0x52] END_LOAD_SCHEDULER: End scheduler "o112" with entities [LocalPlayer, LocalPlayer], work=494*
108: 0x0673 [0x45] LOAD_SCHEDULED_TASK: Load scheduler "o113" with entities [LocalPlayer, LocalPlayer], work=[494*, 0*]
109: 0x0684 [0x4A] Halver (ID: 17731591/0x010E9007) looks at Trion (ID: 17731587/0x010E9003)
110: 0x068D [0x4A] Trion (ID: 17731587/0x010E9003) looks at Halver (ID: 17731591/0x010E9007)
111: 0x0696 [0x66] LOAD_EXT_SCHEDULER_MAIN: Load scheduler "tlk0" with entities [Halver (ID: 17731591/0x010E9007), Halver (ID: 17731591/0x010E9007)], work=20*
112: 0x06A5 [0x2B] Halver (ID: 17731591/0x010E9007) [8509*]:
    → "Your Highness. I must confess, my heart misgives me as to the wisdom of this endeavor..."
113: 0x06AC [0x23] WAIT_FOR_DIALOG_INTERACTION
114: 0x06AD [0x52] END_LOAD_SCHEDULER: End scheduler "o113" with entities [LocalPlayer, LocalPlayer], work=494*
115: 0x06BC [0x45] LOAD_SCHEDULED_TASK: Load scheduler "o114" with entities [LocalPlayer, LocalPlayer], work=[494*, 0*]
116: 0x06CD [0x66] LOAD_EXT_SCHEDULER_MAIN: Load scheduler "tlk1" with entities [Halver (ID: 17731591/0x010E9007), Halver (ID: 17731591/0x010E9007)], work=20*
117: 0x06DC [0x5B] LOAD_EXT_SCHEDULER: Load scheduler "ara0" with entities [Trion (ID: 17731587/0x010E9003), Trion (ID: 17731587/0x010E9003)], work=115*
118: 0x06EB [0x2B] Trion (ID: 17731587/0x010E9003) [8510*]:
    → "Halver...!"
119: 0x06F2 [0x23] WAIT_FOR_DIALOG_INTERACTION
120: 0x06F3 [0x52] END_LOAD_SCHEDULER: End scheduler "o114" with entities [LocalPlayer, LocalPlayer], work=494*
121: 0x0702 [0x45] LOAD_SCHEDULED_TASK: Load scheduler "o115" with entities [LocalPlayer, LocalPlayer], work=[494*, 0*]
122: 0x0713 [0x5B] LOAD_EXT_SCHEDULER: Load scheduler "ara1" with entities [Trion (ID: 17731587/0x010E9003), Trion (ID: 17731587/0x010E9003)], work=115*
123: 0x0722 [0x66] LOAD_EXT_SCHEDULER_MAIN: Load scheduler "tlk0" with entities [Halver (ID: 17731591/0x010E9007), Halver (ID: 17731591/0x010E9007)], work=20*
124: 0x0731 [0x2B] Halver (ID: 17731591/0x010E9007) [8511*]:
    → "This is the selfsame Empire, after all, that not so long ago did wield the power of this colossus against this Kingdom and our allies."
125: 0x0738 [0x23] WAIT_FOR_DIALOG_INTERACTION
126: 0x0739 [0x2B] Halver (ID: 17731591/0x010E9007) [8512*]:
    → "That said, they have since made amends, and we have accepted their formal apology. To hold past misdeeds against them now would be most...unchivalrous...of us, would it not?"
127: 0x0740 [0x23] WAIT_FOR_DIALOG_INTERACTION
128: 0x0741 [0x66] LOAD_EXT_SCHEDULER_MAIN: Load scheduler "tlk1" with entities [Halver (ID: 17731591/0x010E9007), Halver (ID: 17731591/0x010E9007)], work=20*
129: 0x0750 [0x52] END_LOAD_SCHEDULER: End scheduler "o115" with entities [LocalPlayer, LocalPlayer], work=494*
130: 0x075F [0x45] LOAD_SCHEDULED_TASK: Load scheduler "o131" with entities [LocalPlayer, LocalPlayer], work=[494*, 0*]
131: 0x0770 [0x1C] WAIT(120* ticks)
132: 0x0773 [0x52] END_LOAD_SCHEDULER: End scheduler "o131" with entities [LocalPlayer, LocalPlayer], work=494*
133: 0x0782 [0x45] LOAD_SCHEDULED_TASK: Load scheduler "o116" with entities [LocalPlayer, LocalPlayer], work=[494*, 0*]
134: 0x0793 [0x2B] Pieuje (ID: 17731589/0x010E9005) [8513*]:
    → "...And yet the past cannot be so readily forgotten."
135: 0x079A [0x23] WAIT_FOR_DIALOG_INTERACTION
136: 0x079B [0x52] END_LOAD_SCHEDULER: End scheduler "o116" with entities [LocalPlayer, LocalPlayer], work=494*
137: 0x07AA [0x45] LOAD_SCHEDULED_TASK: Load scheduler "o117" with entities [LocalPlayer, LocalPlayer], work=[494*, 0*]
138: 0x07BB [0x5B] LOAD_EXT_SCHEDULER: Load scheduler "pui0" with entities [Trion (ID: 17731587/0x010E9003), Trion (ID: 17731587/0x010E9003)], work=116*
139: 0x07CA [0x4A] Halver (ID: 17731591/0x010E9007) looks at Pieuje (ID: 17731589/0x010E9005)
140: 0x07D3 [0x1C] WAIT(120* ticks)
141: 0x07D6 [0x5B] LOAD_EXT_SCHEDULER: Load scheduler "pui1" with entities [Trion (ID: 17731587/0x010E9003), Trion (ID: 17731587/0x010E9003)], work=116*
142: 0x07E5 [0x52] END_LOAD_SCHEDULER: End scheduler "o117" with entities [LocalPlayer, LocalPlayer], work=494*
143: 0x07F4 [0x45] LOAD_SCHEDULED_TASK: Load scheduler "o118" with entities [LocalPlayer, LocalPlayer], work=[494*, 0*]
144: 0x0805 [0x66] LOAD_EXT_SCHEDULER_MAIN: Load scheduler "tlk0" with entities [Halver (ID: 17731591/0x010E9007), Halver (ID: 17731591/0x010E9007)], work=20*
145: 0x0814 [0x2B] Halver (ID: 17731591/0x010E9007) [8514*]:
    → "Begging your pardon, my prince. I daresay that the mere fact that they seek our consent--rather than engaging in devious and furtive plots--shows that we deal no longer with the Silent Empire of old."
146: 0x081B [0x23] WAIT_FOR_DIALOG_INTERACTION
147: 0x081C [0x52] END_LOAD_SCHEDULER: End scheduler "o118" with entities [LocalPlayer, LocalPlayer], work=494*
148: 0x082B [0x45] LOAD_SCHEDULED_TASK: Load scheduler "o119" with entities [LocalPlayer, LocalPlayer], work=[494*, 0*]
149: 0x083C [0x66] LOAD_EXT_SCHEDULER_MAIN: Load scheduler "tlk1" with entities [Halver (ID: 17731591/0x010E9007), Halver (ID: 17731591/0x010E9007)], work=20*
150: 0x084B [0x66] LOAD_EXT_SCHEDULER_MAIN: Load scheduler "tlk0" with entities [Pieuje (ID: 17731589/0x010E9005), Pieuje (ID: 17731589/0x010E9005)], work=120*
151: 0x085A [0x79] Pieuje (ID: 17731589/0x010E9005) looks at Halver (ID: 17731591/0x010E9007) (Basic look)
152: 0x0864 [0x2B] Pieuje (ID: 17731589/0x010E9005) [8515*]:
    → "Settle yourself, Halver. I said nothing of denying their plea."
153: 0x086B [0x23] WAIT_FOR_DIALOG_INTERACTION
154: 0x086C [0x66] LOAD_EXT_SCHEDULER_MAIN: Load scheduler "tlk1" with entities [Pieuje (ID: 17731589/0x010E9005), Pieuje (ID: 17731589/0x010E9005)], work=120*
155: 0x087B [0x52] END_LOAD_SCHEDULER: End scheduler "o119" with entities [LocalPlayer, LocalPlayer], work=494*
156: 0x088A [0x45] LOAD_SCHEDULED_TASK: Load scheduler "o120" with entities [LocalPlayer, LocalPlayer], work=[494*, 0*]
157: 0x089B [0x2B] Halver (ID: 17731591/0x010E9007) [8516*]:
    → "Forgive me, my prince. I spoke in haste."
158: 0x08A2 [0x23] WAIT_FOR_DIALOG_INTERACTION
159: 0x08A3 [0x52] END_LOAD_SCHEDULER: End scheduler "o120" with entities [LocalPlayer, LocalPlayer], work=494*
160: 0x08B2 [0x45] LOAD_SCHEDULED_TASK: Load scheduler "o121" with entities [LocalPlayer, LocalPlayer], work=[494*, 0*]
161: 0x08C3 [0x4A] Trion (ID: 17731587/0x010E9003) looks at Pieuje (ID: 17731589/0x010E9005)
162: 0x08CC [0x66] LOAD_EXT_SCHEDULER_MAIN: Load scheduler "thk0" with entities [Pieuje (ID: 17731589/0x010E9005), Pieuje (ID: 17731589/0x010E9005)], work=121*
163: 0x08DB [0x2B] Pieuje (ID: 17731589/0x010E9005) [8517*]:
    → "It is precisely because I remember well the past that I believe the Empire's plea to be sincere."
164: 0x08E2 [0x23] WAIT_FOR_DIALOG_INTERACTION
165: 0x08E3 [0x2B] Pieuje (ID: 17731589/0x010E9005) [8518*]:
    → "It is clear that this Empress Nashmeira truly intends to lead her nation to a new age. I have no doubt that she will prove a staunch ally worthy of our trust."
166: 0x08EA [0x23] WAIT_FOR_DIALOG_INTERACTION
167: 0x08EB [0x66] LOAD_EXT_SCHEDULER_MAIN: Load scheduler "thk1" with entities [Pieuje (ID: 17731589/0x010E9005), Pieuje (ID: 17731589/0x010E9005)], work=121*
168: 0x08FA [0x6F] WAIT_FRAME_DELAY: Yield until WaitTime reaches zero
169: 0x08FB [0x76] CHECK_ENTITY_RENDER_FLAGS: Wait until Trion (ID: 17731587/0x010E9003) Render.Flags0 and Render.Flags3 conditions are met
170: 0x0900 [0x52] END_LOAD_SCHEDULER: End scheduler "o121" with entities [LocalPlayer, LocalPlayer], work=494*
171: 0x090F [0x45] LOAD_SCHEDULED_TASK: Load scheduler "o122" with entities [LocalPlayer, LocalPlayer], work=[494*, 0*]
172: 0x0920 [0x7B] Pieuje (ID: 17731589/0x010E9005) stops talking
173: 0x0925 [0x5B] LOAD_EXT_SCHEDULER: Load scheduler "lau0" with entities [Trion (ID: 17731587/0x010E9003), Trion (ID: 17731587/0x010E9003)], work=115*
174: 0x0934 [0x2B] Trion (ID: 17731587/0x010E9003) [8519*]:
    → "Oho! Never did I think this day would come, but I must say...my brother has the right of it."
175: 0x093B [0x23] WAIT_FOR_DIALOG_INTERACTION
176: 0x093C [0x5B] LOAD_EXT_SCHEDULER: Load scheduler "lau1" with entities [Trion (ID: 17731587/0x010E9003), Trion (ID: 17731587/0x010E9003)], work=115*
177: 0x094B [0x52] END_LOAD_SCHEDULER: End scheduler "o122" with entities [LocalPlayer, LocalPlayer], work=494*
178: 0x095A [0x03] ExtData[1]->WorkLocal[0] = Work_Zone[9]
179: 0x095F [0x02] IF !(ExtData[1]->WorkLocal[0] == 0*) GOTO 0x096D
180: 0x0967 [0x1C] WAIT(1* ticks)
181: 0x096A [0x01] GOTO 0x0AA3
182: 0x096D [0x02] IF !(ExtData[1]->WorkLocal[0] == 1*) GOTO 0x0AA3
183: 0x0975 [0x45] LOAD_SCHEDULED_TASK: Load scheduler "o123" with entities [LocalPlayer, LocalPlayer], work=[494*, 0*]
184: 0x0986 [0x4A] Trion (ID: 17731587/0x010E9003) looks at LocalPlayer
185: 0x098F [0x4A] Halver (ID: 17731591/0x010E9007) looks at Destin (ID: 17731585/0x010E9001)
186: 0x0998 [0x6F] WAIT_FRAME_DELAY: Yield until WaitTime reaches zero
187: 0x0999 [0x76] CHECK_ENTITY_RENDER_FLAGS: Wait until Trion (ID: 17731587/0x010E9003) Render.Flags0 and Render.Flags3 conditions are met
188: 0x099E [0x2B] Trion (ID: 17731587/0x010E9003) [8520*]:
    → "Besides, were something to go amiss, the presence of <Player> here should suffice to keep matters in hand."
189: 0x09A5 [0x23] WAIT_FOR_DIALOG_INTERACTION
190: 0x09A6 [0x52] END_LOAD_SCHEDULER: End scheduler "o123" with entities [LocalPlayer, LocalPlayer], work=494*
191: 0x09B5 [0x45] LOAD_SCHEDULED_TASK: Load scheduler "o124" with entities [LocalPlayer, LocalPlayer], work=[494*, 0*]
192: 0x09C6 [0x66] LOAD_EXT_SCHEDULER_MAIN: Load scheduler "tlk0" with entities [Halver (ID: 17731591/0x010E9007), Halver (ID: 17731591/0x010E9007)], work=29*
193: 0x09D5 [0x2B] Halver (ID: 17731591/0x010E9007) [8521*]:
    → "I could not agree more, my king."
194: 0x09DC [0x23] WAIT_FOR_DIALOG_INTERACTION
195: 0x09DD [0x2B] Halver (ID: 17731591/0x010E9007) [8522*]:
    → "<Player> has served the Kingdom with loyalty and valor time and again."
196: 0x09E4 [0x23] WAIT_FOR_DIALOG_INTERACTION
197: 0x09E5 [0x66] LOAD_EXT_SCHEDULER_MAIN: Load scheduler "tlk1" with entities [Halver (ID: 17731591/0x010E9007), Halver (ID: 17731591/0x010E9007)], work=29*
198: 0x09F4 [0x52] END_LOAD_SCHEDULER: End scheduler "o124" with entities [LocalPlayer, LocalPlayer], work=494*
199: 0x0A03 [0x45] LOAD_SCHEDULED_TASK: Load scheduler "o125" with entities [LocalPlayer, LocalPlayer], work=[494*, 0*]
200: 0x0A14 [0x5B] LOAD_EXT_SCHEDULER: Load scheduler "tlk0" with entities [Trion (ID: 17731587/0x010E9003), Trion (ID: 17731587/0x010E9003)], work=115*
201: 0x0A23 [0x2B] Trion (ID: 17731587/0x010E9003) [8523*]:
    → "I, too, can vouch for this, Father."
202: 0x0A2A [0x23] WAIT_FOR_DIALOG_INTERACTION
203: 0x0A2B [0x52] END_LOAD_SCHEDULER: End scheduler "o125" with entities [LocalPlayer, LocalPlayer], work=494*
204: 0x0A3A [0x45] LOAD_SCHEDULED_TASK: Load scheduler "o132" with entities [LocalPlayer, LocalPlayer], work=[494*, 0*]
205: 0x0A4B [0x29] REQ_SET_WAIT(priority=0x10, entity_id=LocalPlayer, tag_num=0x7F)
206: 0x0A52 [0x2B] Trion (ID: 17731587/0x010E9003) [8524*]:
    → "I have fought by <Player>'s side, and you will find no comrade more honorable."
207: 0x0A59 [0x23] WAIT_FOR_DIALOG_INTERACTION
208: 0x0A5A [0x5B] LOAD_EXT_SCHEDULER: Load scheduler "tlk1" with entities [Trion (ID: 17731587/0x010E9003), Trion (ID: 17731587/0x010E9003)], work=115*
209: 0x0A69 [0x52] END_LOAD_SCHEDULER: End scheduler "o132" with entities [LocalPlayer, LocalPlayer], work=494*
210: 0x0A78 [0x45] LOAD_SCHEDULED_TASK: Load scheduler "o126" with entities [LocalPlayer, LocalPlayer], work=[494*, 0*]
211: 0x0A89 [0x2B] Trion (ID: 17731587/0x010E9003) [8525*]:
    → "The Kingdom is safe in [his/her] hands, Father."
212: 0x0A90 [0x23] WAIT_FOR_DIALOG_INTERACTION
213: 0x0A91 [0x52] END_LOAD_SCHEDULER: End scheduler "o126" with entities [LocalPlayer, LocalPlayer], work=494*
214: 0x0AA0 [0x01] GOTO 0x0AA3

SUBROUTINE_0AA3:
215: 0x0AA3 [0x45] LOAD_SCHEDULED_TASK: Load scheduler "o127" with entities [LocalPlayer, LocalPlayer], work=[494*, 0*]
216: 0x0AB4 [0x4A] Trion (ID: 17731587/0x010E9003) looks at LocalPlayer
217: 0x0ABD [0x4A] Halver (ID: 17731591/0x010E9007) looks at Destin (ID: 17731585/0x010E9001)
218: 0x0AC6 [0x6F] WAIT_FRAME_DELAY: Yield until WaitTime reaches zero
219: 0x0AC7 [0x76] CHECK_ENTITY_RENDER_FLAGS: Wait until Trion (ID: 17731587/0x010E9003) Render.Flags0 and Render.Flags3 conditions are met
220: 0x0ACC [0x5B] LOAD_EXT_SCHEDULER: Load scheduler "stk0" with entities [Destin (ID: 17731585/0x010E9001), Destin (ID: 17731585/0x010E9001)], work=131*
221: 0x0ADB [0x2B] Destin (ID: 17731585/0x010E9001) [8526*]:
    → "Very well."
222: 0x0AE2 [0x23] WAIT_FOR_DIALOG_INTERACTION
223: 0x0AE3 [0x2B] Destin (ID: 17731585/0x010E9001) [8527*]:
    → "Halver and my sons present a compelling case. Return to this Empress, and tell her San d'Oria stands with her. Now farewell, and may the Goddess watch over your journey!"
224: 0x0AEA [0x23] WAIT_FOR_DIALOG_INTERACTION
225: 0x0AEB [0x5B] LOAD_EXT_SCHEDULER: Load scheduler "stk1" with entities [Destin (ID: 17731585/0x010E9001), Destin (ID: 17731585/0x010E9001)], work=131*
226: 0x0AFA [0x52] END_LOAD_SCHEDULER: End scheduler "o127" with entities [LocalPlayer, LocalPlayer], work=494*
227: 0x0B09 [0x45] LOAD_SCHEDULED_TASK: Load scheduler "o128" with entities [LocalPlayer, LocalPlayer], work=[494*, 0*]
228: 0x0B1A [0x1C] WAIT(120* ticks)
229: 0x0B1D [0x52] END_LOAD_SCHEDULER: End scheduler "o128" with entities [LocalPlayer, LocalPlayer], work=494*
230: 0x0B2C [0x1A] CALL_SUBROUTINE(address=0x0064)
231: 0x0B2F [0x1C] WAIT(30* ticks)
232: 0x0B32 [0x59] UPDATE_ENTITY_DATA: LocalPlayer->Render.Flags0 &= ~0x200000
233: 0x0B39 [0x52] END_LOAD_SCHEDULER: End scheduler "r140" with entities [LocalPlayer, LocalPlayer], work=493*
234: 0x0B48 [0x78] ENABLE_GAME_TIMER_RESET_WEATHER()
235: 0x0B49 [0x1C] WAIT(15* ticks)
236: 0x0B4C [0xAB] EventEntity->UnknownFlag = 1 // Enable unknown flag
237: 0x0B4E [0x1C] WAIT(15* ticks)
238: 0x0B51 [0xAB] EventEntity->DespawnValue = 0* // Set despawn value
239: 0x0B55 [0x1C] WAIT(1* ticks)
240: 0x0B58 [0x46] CAMERA_CONTROL: Restore default settings
241: 0x0B5A [0x45] LOAD_SCHEDULED_TASK: Load scheduler "fdi2" with entities [LocalPlayer, LocalPlayer], work=[200*, 0*]
242: 0x0B6B [0x21] END_EVENT
243: 0x0B6C [0x00] END_REQSTACK()
```

### Event 568

#### Metadata

| Field        | Value      |
|--------------|------------|
| Entrypoint   | 0x0B6D     |
| Data Size    | 1659 bytes |
| Instructions | 180        |

```
      00 01 02 03 04 05 06 07  08 09 0A 0B 0C 0D 0E 0F
      -- -- -- -- -- -- -- --  -- -- -- -- -- -- -- --
0B60:                                         42 45 00               BE.
0B70: 80 F8 FF FF 7F F8 FF FF  7F 66 64 6F 31 01 80 55  .........fdo1..U
0B80: 00 80 F8 FF FF 7F F8 FF  FF 7F 66 64 6F 31 46 01  ..........fdo1F.
0B90: 38 08 80 4E 00 07 90 0E  01 4E 00 07 90 0E 01 4E  8..N.....N.....N
0BA0: 00 01 90 0E 01 4E 00 05  90 0E 01 92 01 01 90 0E  .....N..........
0BB0: 01 92 01 05 90 0E 01 92  01 07 90 0E 01 94 01 F0  ................
0BC0: FF FF 7F 94 01 F0 FF FF  7F 94 01 07 90 0E 01 94  ................
0BD0: 01 01 90 0E 01 94 01 05  90 0E 01 BA F0 FF FF 7F  ................
0BE0: 09 80 0A 80 01 80 0B 80  BA 01 90 0E 01 03 80 0C  ................
0BF0: 80 0D 80 0E 80 BA 05 90  0E 01 13 80 14 80 11 80  ................
0C00: 15 80 7B F0 FF FF 7F 7B  07 90 0E 01 7B 01 90 0E  ..{....{....{...
0C10: 01 7B 05 90 0E 01 80 F0  FF FF 7F 80 07 90 0E 01  .{..............
0C20: 80 01 90 0E 01 80 05 90  0E 01 4A F0 FF FF 7F 07  ..........J.....
0C30: 90 0E 01 4A 07 90 0E 01  F0 FF FF 7F 59 04 F0 FF  ...J........Y...
0C40: FF 7F 16 80 1C 06 80 45  17 80 F0 FF FF 7F F0 FF  .......E........
0C50: FF 7F 6F 31 35 30 01 80  45 00 80 F0 FF FF 7F F0  ..o150..E.......
0C60: FF FF 7F 66 64 69 32 01  80 55 00 80 F0 FF FF 7F  ...fdi2..U......
0C70: F0 FF FF 7F 66 64 69 32  6E F0 FF FF 7F 03 80 99  ....fdi2n.......
0C80: F0 FF FF 7F 1C 18 80 52  17 80 F0 FF FF 7F F0 FF  .......R........
0C90: FF 7F 6F 31 35 30 45 17  80 F0 FF FF 7F F0 FF FF  ..o150E.........
0CA0: 7F 6F 31 35 31 01 80 66  19 80 07 90 0E 01 07 90  .o151..f........
0CB0: 0E 01 74 6C 6B 30 2B 07  90 0E 01 1A 80 23 66 19  ..tlk0+......#f.
0CC0: 80 07 90 0E 01 07 90 0E  01 74 6C 6B 31 27 10 F0  .........tlk1'..
0CD0: FF FF 7F 8B 52 17 80 F0  FF FF 7F F0 FF FF 7F 6F  ....R..........o
0CE0: 31 35 31 45 17 80 F0 FF  FF 7F F0 FF FF 7F 6F 31  151E..........o1
0CF0: 35 32 01 80 1C 18 80 27  10 F0 FF FF 7F 8C 52 17  52.....'......R.
0D00: 80 F0 FF FF 7F F0 FF FF  7F 6F 31 35 32 45 17 80  .........o152E..
0D10: F0 FF FF 7F F0 FF FF 7F  6F 31 35 33 01 80 2B 07  ........o153..+.
0D20: 90 0E 01 1B 80 23 66 19  80 07 90 0E 01 07 90 0E  .....#f.........
0D30: 01 74 68 6B 31 52 17 80  F0 FF FF 7F F0 FF FF 7F  .thk1R..........
0D40: 6F 31 35 33 45 17 80 F0  FF FF 7F F0 FF FF 7F 6F  o153E..........o
0D50: 31 35 35 01 80 1C 1C 80  52 17 80 F0 FF FF 7F F0  155.....R.......
0D60: FF FF 7F 6F 31 35 35 45  17 80 F0 FF FF 7F F0 FF  ...o155E........
0D70: FF 7F 6F 31 35 34 01 80  66 19 80 07 90 0E 01 07  ..o154..f.......
0D80: 90 0E 01 74 68 6B 32 2B  07 90 0E 01 1D 80 23 59  ...thk2+......#Y
0D90: 04 F0 FF FF 7F 16 80 59  04 07 90 0E 01 16 80 27  .......Y.......'
0DA0: 10 07 90 0E 01 66 1C 19  80 52 17 80 F0 FF FF 7F  .....f...R......
0DB0: F0 FF FF 7F 6F 31 35 34  45 17 80 F0 FF FF 7F F0  ....o154E.......
0DC0: FF FF 7F 6F 31 33 30 01  80 27 10 F0 FF FF 7F 93  ...o130..'......
0DD0: 1C 18 80 45 00 80 F0 FF  FF 7F F0 FF FF 7F 66 64  ...E..........fd
0DE0: 6F 32 01 80 55 00 80 F0  FF FF 7F F0 FF FF 7F 66  o2..U..........f
0DF0: 64 6F 32 52 17 80 F0 FF  FF 7F F0 FF FF 7F 6F 31  do2R..........o1
0E00: 33 30 7A 00 F0 FF FF 7F  7A 00 07 90 0E 01 BA F0  30z.....z.......
0E10: FF FF 7F 1E 80 1F 80 20  80 21 80 BA 07 90 0E 01  ....... .!......
0E20: 22 80 23 80 20 80 24 80  7B 07 90 0E 01 29 10 F0  ".#. .$.{....)..
0E30: FF FF 7F 53 79 00 F0 FF  FF 7F F0 FF FF 7F 1C 25  ...Sy..........%
0E40: 80 45 17 80 F0 FF FF 7F  F0 FF FF 7F 6F 31 30 39  .E..........o109
0E50: 01 80 45 00 80 F0 FF FF  7F F0 FF FF 7F 66 64 69  ..E..........fdi
0E60: 32 01 80 55 00 80 F0 FF  FF 7F F0 FF FF 7F 66 64  2..U..........fd
0E70: 69 32 1C 26 80 52 17 80  F0 FF FF 7F F0 FF FF 7F  i2.&.R..........
0E80: 6F 31 30 39 45 17 80 F0  FF FF 7F F0 FF FF 7F 6F  o109E..........o
0E90: 31 31 30 01 80 2B 01 90  0E 01 27 80 23 52 17 80  110..+....'.#R..
0EA0: F0 FF FF 7F F0 FF FF 7F  6F 31 31 30 45 17 80 F0  ........o110E...
0EB0: FF FF 7F F0 FF FF 7F 6F  31 31 31 01 80 7C 00 05  .......o111..|..
0EC0: 90 0E 01 2B 05 90 0E 01  28 80 23 7C 01 05 90 0E  ...+....(.#|....
0ED0: 01 52 17 80 F0 FF FF 7F  F0 FF FF 7F 6F 31 31 31  .R..........o111
0EE0: 45 17 80 F0 FF FF 7F F0  FF FF 7F 6F 31 31 32 01  E..........o112.
0EF0: 80 5B 29 80 01 90 0E 01  01 90 0E 01 73 74 6B 30  .[).........stk0
0F00: 2B 01 90 0E 01 2A 80 23  5B 29 80 01 90 0E 01 01  +....*.#[)......
0F10: 90 0E 01 73 74 6B 31 52  17 80 F0 FF FF 7F F0 FF  ...stk1R........
0F20: FF 7F 6F 31 31 32 45 17  80 F0 FF FF 7F F0 FF FF  ..o112E.........
0F30: 7F 6F 31 31 33 01 80 66  19 80 07 90 0E 01 07 90  .o113..f........
0F40: 0E 01 74 6C 6B 30 2B 07  90 0E 01 2B 80 23 66 19  ..tlk0+....+.#f.
0F50: 80 07 90 0E 01 07 90 0E  01 74 6C 6B 31 52 17 80  .........tlk1R..
0F60: F0 FF FF 7F F0 FF FF 7F  6F 31 31 33 45 17 80 F0  ........o113E...
0F70: FF FF 7F F0 FF FF 7F 6F  31 33 33 01 80 2B 07 90  .......o133..+..
0F80: 0E 01 2E 80 23 2B 07 90  0E 01 2F 80 23 52 17 80  ....#+..../.#R..
0F90: F0 FF FF 7F F0 FF FF 7F  6F 31 33 33 45 17 80 F0  ........o133E...
0FA0: FF FF 7F F0 FF FF 7F 6F  31 35 36 01 80 2B 05 90  .......o156..+..
0FB0: 0E 01 30 80 23 52 17 80  F0 FF FF 7F F0 FF FF 7F  ..0.#R..........
0FC0: 6F 31 35 36 45 17 80 F0  FF FF 7F F0 FF FF 7F 6F  o156E..........o
0FD0: 31 31 38 01 80 4A 07 90  0E 01 05 90 0E 01 6F 76  118..J........ov
0FE0: 07 90 0E 01 66 19 80 07  90 0E 01 07 90 0E 01 74  ....f..........t
0FF0: 6C 6B 30 2B 07 90 0E 01  32 80 23 52 17 80 F0 FF  lk0+....2.#R....
1000: FF 7F F0 FF FF 7F 6F 31  31 38 45 17 80 F0 FF FF  ......o118E.....
1010: 7F F0 FF FF 7F 6F 31 31  39 01 80 66 19 80 07 90  .....o119..f....
1020: 0E 01 07 90 0E 01 74 6C  6B 31 66 18 80 05 90 0E  ......tlk1f.....
1030: 01 05 90 0E 01 74 6C 6B  30 79 00 05 90 0E 01 07  .....tlk0y......
1040: 90 0E 01 2B 05 90 0E 01  33 80 23 66 18 80 05 90  ...+....3.#f....
1050: 0E 01 05 90 0E 01 74 6C  6B 31 52 17 80 F0 FF FF  ......tlk1R.....
1060: 7F F0 FF FF 7F 6F 31 31  39 45 17 80 F0 FF FF 7F  .....o119E......
1070: F0 FF FF 7F 6F 31 32 30  01 80 2B 07 90 0E 01 34  ....o120..+....4
1080: 80 23 52 17 80 F0 FF FF  7F F0 FF FF 7F 6F 31 32  .#R..........o12
1090: 30 45 17 80 F0 FF FF 7F  F0 FF FF 7F 6F 31 32 31  0E..........o121
10A0: 01 80 66 35 80 05 90 0E  01 05 90 0E 01 74 68 6B  ..f5.........thk
10B0: 30 2B 05 90 0E 01 36 80  23 2B 05 90 0E 01 37 80  0+....6.#+....7.
10C0: 23 66 35 80 05 90 0E 01  05 90 0E 01 74 68 6B 31  #f5.........thk1
10D0: 52 17 80 F0 FF FF 7F F0  FF FF 7F 6F 31 32 31 45  R..........o121E
10E0: 17 80 F0 FF FF 7F F0 FF  FF 7F 6F 31 32 34 01 80  ..........o124..
10F0: 66 19 80 07 90 0E 01 07  90 0E 01 74 6C 6B 30 2B  f..........tlk0+
1100: 07 90 0E 01 3B 80 23 2B  07 90 0E 01 44 80 23 66  ....;.#+....D.#f
1110: 19 80 07 90 0E 01 07 90  0E 01 74 6C 6B 31 52 17  ..........tlk1R.
1120: 80 F0 FF FF 7F F0 FF FF  7F 6F 31 32 34 45 17 80  .........o124E..
1130: F0 FF FF 7F F0 FF FF 7F  6F 31 32 37 01 80 4A 07  ........o127..J.
1140: 90 0E 01 01 90 0E 01 5B  29 80 01 90 0E 01 01 90  .......[).......
1150: 0E 01 73 74 6B 30 2B 01  90 0E 01 40 80 23 2B 01  ..stk0+....@.#+.
1160: 90 0E 01 45 80 23 5B 29  80 01 90 0E 01 01 90 0E  ...E.#[)........
1170: 01 73 74 6B 31 52 17 80  F0 FF FF 7F F0 FF FF 7F  .stk1R..........
1180: 6F 31 32 37 45 17 80 F0  FF FF 7F F0 FF FF 7F 6F  o127E..........o
1190: 31 33 34 01 80 1C 18 80  52 17 80 F0 FF FF 7F F0  134.....R.......
11A0: FF FF 7F 6F 31 33 34 1A  64 00 1C 06 80 59 05 F0  ...o134.d....Y..
11B0: FF FF 7F 00 52 42 80 F0  FF FF 7F F0 FF FF 7F 72  ....RB.........r
11C0: 31 34 30 78 1C 43 80 AB  09 1C 43 80 AB 11 01 80  140x.C....C.....
11D0: 1C 03 80 46 00 45 00 80  F0 FF FF 7F F0 FF FF 7F  ...F.E..........
11E0: 66 64 69 32 01 80 21 00                           fdi2..!.        
```

#### Opcodes

```
  0: 0x0B6D [0x42] SET_CLI_EVENT_CANCEL_DATA()
  1: 0x0B6E [0x45] LOAD_SCHEDULED_TASK: Load scheduler "fdo1" with entities [EventEntity, EventEntity], work=[200*, 0*]
  2: 0x0B7F [0x55] WAIT_LOAD_SCHEDULER: Wait for scheduler "fdo1" with entities [EventEntity, EventEntity], work=200*
  3: 0x0B8E [0x46] CAMERA_CONTROL: Disable user control
  4: 0x0B90 [0x38] SET_CLIENT_EVENT_MODE(mode=19*)
  5: 0x0B93 [0x4E] SET_ENTITY_HIDE_FLAG: Show Halver (ID: 17731591/0x010E9007)
  6: 0x0B99 [0x4E] SET_ENTITY_HIDE_FLAG: Show Halver (ID: 17731591/0x010E9007)
  7: 0x0B9F [0x4E] SET_ENTITY_HIDE_FLAG: Show Destin (ID: 17731585/0x010E9001)
  8: 0x0BA5 [0x4E] SET_ENTITY_HIDE_FLAG: Show Pieuje (ID: 17731589/0x010E9005)
  9: 0x0BAB [0x92] Destin (ID: 17731585/0x010E9001)->Render.Flags3 ^= 0x01
 10: 0x0BB1 [0x92] Pieuje (ID: 17731589/0x010E9005)->Render.Flags3 ^= 0x01
 11: 0x0BB7 [0x92] Halver (ID: 17731591/0x010E9007)->Render.Flags3 ^= 0x01
 12: 0x0BBD [0x94] LocalPlayer->Render.Flags3 ^= 0x01
 13: 0x0BC3 [0x94] LocalPlayer->Render.Flags3 ^= 0x01
 14: 0x0BC9 [0x94] Halver (ID: 17731591/0x010E9007)->Render.Flags3 ^= 0x01
 15: 0x0BCF [0x94] Destin (ID: 17731585/0x010E9001)->Render.Flags3 ^= 0x01
 16: 0x0BD5 [0x94] Pieuje (ID: 17731589/0x010E9005)->Render.Flags3 ^= 0x01
 17: 0x0BDB [0xBA] SET_ENTITY_POSITION(entity_id=LocalPlayer, pos_x=2.263*, pos_z=-1.484*, pos_y=0.000*, direction=272.6°*)
 18: 0x0BE8 [0xBA] SET_ENTITY_POSITION(entity_id=Destin (ID: 17731585/0x010E9001), pos_x=0.001*, pos_z=43.255*, pos_y=-3.400*, direction=95.4°*)
 19: 0x0BF5 [0xBA] SET_ENTITY_POSITION(entity_id=Pieuje (ID: 17731589/0x010E9005), pos_x=2.163*, pos_z=42.333*, pos_y=-3.398*, direction=102.7°*)
 20: 0x0C02 [0x7B] LocalPlayer stops talking
 21: 0x0C07 [0x7B] Halver (ID: 17731591/0x010E9007) stops talking
 22: 0x0C0C [0x7B] Destin (ID: 17731585/0x010E9001) stops talking
 23: 0x0C11 [0x7B] Pieuje (ID: 17731589/0x010E9005) stops talking
 24: 0x0C16 [0x80] LOAD_WAIT(entity=LocalPlayer)
 25: 0x0C1B [0x80] LOAD_WAIT(entity=Halver (ID: 17731591/0x010E9007))
 26: 0x0C20 [0x80] LOAD_WAIT(entity=Destin (ID: 17731585/0x010E9001))
 27: 0x0C25 [0x80] LOAD_WAIT(entity=Pieuje (ID: 17731589/0x010E9005))
 28: 0x0C2A [0x4A] LocalPlayer looks at Halver (ID: 17731591/0x010E9007)
 29: 0x0C33 [0x4A] Halver (ID: 17731591/0x010E9007) looks at LocalPlayer
 30: 0x0C3C [0x59] UPDATE_ENTITY_DATA: Set LocalPlayer main speed = 13* * 0.1
 31: 0x0C44 [0x1C] WAIT(30* ticks)
 32: 0x0C47 [0x45] LOAD_SCHEDULED_TASK: Load scheduler "o150" with entities [LocalPlayer, LocalPlayer], work=[494*, 0*]
 33: 0x0C58 [0x45] LOAD_SCHEDULED_TASK: Load scheduler "fdi2" with entities [LocalPlayer, LocalPlayer], work=[200*, 0*]
 34: 0x0C69 [0x55] WAIT_LOAD_SCHEDULER: Wait for scheduler "fdi2" with entities [LocalPlayer, LocalPlayer], work=200*
 35: 0x0C78 [0x6E] LocalPlayer uses emote 1*
 36: 0x0C7F [0x99] Wait for LocalPlayer animation to complete
 37: 0x0C84 [0x1C] WAIT(120* ticks)
 38: 0x0C87 [0x52] END_LOAD_SCHEDULER: End scheduler "o150" with entities [LocalPlayer, LocalPlayer], work=494*
 39: 0x0C96 [0x45] LOAD_SCHEDULED_TASK: Load scheduler "o151" with entities [LocalPlayer, LocalPlayer], work=[494*, 0*]
 40: 0x0CA7 [0x66] LOAD_EXT_SCHEDULER_MAIN: Load scheduler "tlk0" with entities [Halver (ID: 17731591/0x010E9007), Halver (ID: 17731591/0x010E9007)], work=20*
 41: 0x0CB6 [0x2B] Halver (ID: 17731591/0x010E9007) [8502*]:
    → "Well met, <Player>. How fare you these days?"
 42: 0x0CBD [0x23] WAIT_FOR_DIALOG_INTERACTION
 43: 0x0CBE [0x66] LOAD_EXT_SCHEDULER_MAIN: Load scheduler "tlk1" with entities [Halver (ID: 17731591/0x010E9007), Halver (ID: 17731591/0x010E9007)], work=20*
 44: 0x0CCD [0x27] REQ_SET(priority=0x10, entity_id=LocalPlayer, tag_num=0x8B)
 45: 0x0CD4 [0x52] END_LOAD_SCHEDULER: End scheduler "o151" with entities [LocalPlayer, LocalPlayer], work=494*
 46: 0x0CE3 [0x45] LOAD_SCHEDULED_TASK: Load scheduler "o152" with entities [LocalPlayer, LocalPlayer], work=[494*, 0*]
 47: 0x0CF4 [0x1C] WAIT(120* ticks)
 48: 0x0CF7 [0x27] REQ_SET(priority=0x10, entity_id=LocalPlayer, tag_num=0x8C)
 49: 0x0CFE [0x52] END_LOAD_SCHEDULER: End scheduler "o152" with entities [LocalPlayer, LocalPlayer], work=494*
 50: 0x0D0D [0x45] LOAD_SCHEDULED_TASK: Load scheduler "o153" with entities [LocalPlayer, LocalPlayer], work=[494*, 0*]
 51: 0x0D1E [0x2B] Halver (ID: 17731591/0x010E9007) [8503*]:
    → "A letter? And this seal..."
 52: 0x0D25 [0x23] WAIT_FOR_DIALOG_INTERACTION
 53: 0x0D26 [0x66] LOAD_EXT_SCHEDULER_MAIN: Load scheduler "thk1" with entities [Halver (ID: 17731591/0x010E9007), Halver (ID: 17731591/0x010E9007)], work=20*
 54: 0x0D35 [0x52] END_LOAD_SCHEDULER: End scheduler "o153" with entities [LocalPlayer, LocalPlayer], work=494*
 55: 0x0D44 [0x45] LOAD_SCHEDULED_TASK: Load scheduler "o155" with entities [LocalPlayer, LocalPlayer], work=[494*, 0*]
 56: 0x0D55 [0x1C] WAIT(180* ticks)
 57: 0x0D58 [0x52] END_LOAD_SCHEDULER: End scheduler "o155" with entities [LocalPlayer, LocalPlayer], work=494*
 58: 0x0D67 [0x45] LOAD_SCHEDULED_TASK: Load scheduler "o154" with entities [LocalPlayer, LocalPlayer], work=[494*, 0*]
 59: 0x0D78 [0x66] LOAD_EXT_SCHEDULER_MAIN: Load scheduler "thk2" with entities [Halver (ID: 17731591/0x010E9007), Halver (ID: 17731591/0x010E9007)], work=20*
 60: 0x0D87 [0x2B] Halver (ID: 17731591/0x010E9007) [8504*]:
    → "...So the serpent would seek the aid of the lion. A curious turn of events, indeed. I must deliver this to my king at once. Come along."
 61: 0x0D8E [0x23] WAIT_FOR_DIALOG_INTERACTION
 62: 0x0D8F [0x59] UPDATE_ENTITY_DATA: Set LocalPlayer main speed = 13* * 0.1
 63: 0x0D97 [0x59] UPDATE_ENTITY_DATA: Set Halver (ID: 17731591/0x010E9007) main speed = 13* * 0.1
 64: 0x0D9F [0x27] REQ_SET(priority=0x10, entity_id=Halver (ID: 17731591/0x010E9007), tag_num=0x66)
 65: 0x0DA6 [0x1C] WAIT(20* ticks)
 66: 0x0DA9 [0x52] END_LOAD_SCHEDULER: End scheduler "o154" with entities [LocalPlayer, LocalPlayer], work=494*
 67: 0x0DB8 [0x45] LOAD_SCHEDULED_TASK: Load scheduler "o130" with entities [LocalPlayer, LocalPlayer], work=[494*, 0*]
 68: 0x0DC9 [0x27] REQ_SET(priority=0x10, entity_id=LocalPlayer, tag_num=0x93)
 69: 0x0DD0 [0x1C] WAIT(120* ticks)
 70: 0x0DD3 [0x45] LOAD_SCHEDULED_TASK: Load scheduler "fdo2" with entities [LocalPlayer, LocalPlayer], work=[200*, 0*]
 71: 0x0DE4 [0x55] WAIT_LOAD_SCHEDULER: Wait for scheduler "fdo2" with entities [LocalPlayer, LocalPlayer], work=200*
 72: 0x0DF3 [0x52] END_LOAD_SCHEDULER: End scheduler "o130" with entities [LocalPlayer, LocalPlayer], work=494*
 73: 0x0E02 [0x7A] VM_CONTROL: Reset VM for LocalPlayer
 74: 0x0E08 [0x7A] VM_CONTROL: Reset VM for Halver (ID: 17731591/0x010E9007)
 75: 0x0E0E [0xBA] SET_ENTITY_POSITION(entity_id=LocalPlayer, pos_x=0.930*, pos_z=36.355*, pos_y=-3.000*, direction=263.8°*)
 76: 0x0E1B [0xBA] SET_ENTITY_POSITION(entity_id=Halver (ID: 17731591/0x010E9007), pos_x=-0.884*, pos_z=36.276*, pos_y=-3.000*, direction=263.7°*)
 77: 0x0E28 [0x7B] Halver (ID: 17731591/0x010E9007) stops talking
 78: 0x0E2D [0x29] REQ_SET_WAIT(priority=0x10, entity_id=LocalPlayer, tag_num=0x53)
 79: 0x0E34 [0x79] LocalPlayer looks at LocalPlayer (Basic look)
 80: 0x0E3E [0x1C] WAIT(100* ticks)
 81: 0x0E41 [0x45] LOAD_SCHEDULED_TASK: Load scheduler "o109" with entities [LocalPlayer, LocalPlayer], work=[494*, 0*]
 82: 0x0E52 [0x45] LOAD_SCHEDULED_TASK: Load scheduler "fdi2" with entities [LocalPlayer, LocalPlayer], work=[200*, 0*]
 83: 0x0E63 [0x55] WAIT_LOAD_SCHEDULER: Wait for scheduler "fdi2" with entities [LocalPlayer, LocalPlayer], work=200*
 84: 0x0E72 [0x1C] WAIT(110* ticks)
 85: 0x0E75 [0x52] END_LOAD_SCHEDULER: End scheduler "o109" with entities [LocalPlayer, LocalPlayer], work=494*
 86: 0x0E84 [0x45] LOAD_SCHEDULED_TASK: Load scheduler "o110" with entities [LocalPlayer, LocalPlayer], work=[494*, 0*]
 87: 0x0E95 [0x2B] Destin (ID: 17731585/0x010E9001) [8506*]:
    → "An iron giant with the power to smite an airship from the sky, and a young Empress who would nonetheless seek to restore its power..."
 88: 0x0E9C [0x23] WAIT_FOR_DIALOG_INTERACTION
 89: 0x0E9D [0x52] END_LOAD_SCHEDULER: End scheduler "o110" with entities [LocalPlayer, LocalPlayer], work=494*
 90: 0x0EAC [0x45] LOAD_SCHEDULED_TASK: Load scheduler "o111" with entities [LocalPlayer, LocalPlayer], work=[494*, 0*]
 91: 0x0EBD [0x7C] Pieuje (ID: 17731589/0x010E9005)->Render.Flags2 |= 0x00
 92: 0x0EC3 [0x2B] Pieuje (ID: 17731589/0x010E9005) [8507*]:
    → "..."
 93: 0x0ECA [0x23] WAIT_FOR_DIALOG_INTERACTION
 94: 0x0ECB [0x7C] Pieuje (ID: 17731589/0x010E9005)->Render.Flags2 |= 0x01
 95: 0x0ED1 [0x52] END_LOAD_SCHEDULER: End scheduler "o111" with entities [LocalPlayer, LocalPlayer], work=494*
 96: 0x0EE0 [0x45] LOAD_SCHEDULED_TASK: Load scheduler "o112" with entities [LocalPlayer, LocalPlayer], work=[494*, 0*]
 97: 0x0EF1 [0x5B] LOAD_EXT_SCHEDULER: Load scheduler "stk0" with entities [Destin (ID: 17731585/0x010E9001), Destin (ID: 17731585/0x010E9001)], work=131*
 98: 0x0F00 [0x2B] Destin (ID: 17731585/0x010E9001) [8508*]:
    → "I would hear your counsel, Halver."
 99: 0x0F07 [0x23] WAIT_FOR_DIALOG_INTERACTION
100: 0x0F08 [0x5B] LOAD_EXT_SCHEDULER: Load scheduler "stk1" with entities [Destin (ID: 17731585/0x010E9001), Destin (ID: 17731585/0x010E9001)], work=131*
101: 0x0F17 [0x52] END_LOAD_SCHEDULER: End scheduler "o112" with entities [LocalPlayer, LocalPlayer], work=494*
102: 0x0F26 [0x45] LOAD_SCHEDULED_TASK: Load scheduler "o113" with entities [LocalPlayer, LocalPlayer], work=[494*, 0*]
103: 0x0F37 [0x66] LOAD_EXT_SCHEDULER_MAIN: Load scheduler "tlk0" with entities [Halver (ID: 17731591/0x010E9007), Halver (ID: 17731591/0x010E9007)], work=20*
104: 0x0F46 [0x2B] Halver (ID: 17731591/0x010E9007) [8509*]:
    → "Your Highness. I must confess, my heart misgives me as to the wisdom of this endeavor..."
105: 0x0F4D [0x23] WAIT_FOR_DIALOG_INTERACTION
106: 0x0F4E [0x66] LOAD_EXT_SCHEDULER_MAIN: Load scheduler "tlk1" with entities [Halver (ID: 17731591/0x010E9007), Halver (ID: 17731591/0x010E9007)], work=20*
107: 0x0F5D [0x52] END_LOAD_SCHEDULER: End scheduler "o113" with entities [LocalPlayer, LocalPlayer], work=494*
108: 0x0F6C [0x45] LOAD_SCHEDULED_TASK: Load scheduler "o133" with entities [LocalPlayer, LocalPlayer], work=[494*, 0*]
109: 0x0F7D [0x2B] Halver (ID: 17731591/0x010E9007) [8511*]:
    → "This is the selfsame Empire, after all, that not so long ago did wield the power of this colossus against this Kingdom and our allies."
110: 0x0F84 [0x23] WAIT_FOR_DIALOG_INTERACTION
111: 0x0F85 [0x2B] Halver (ID: 17731591/0x010E9007) [8512*]:
    → "That said, they have since made amends, and we have accepted their formal apology. To hold past misdeeds against them now would be most...unchivalrous...of us, would it not?"
112: 0x0F8C [0x23] WAIT_FOR_DIALOG_INTERACTION
113: 0x0F8D [0x52] END_LOAD_SCHEDULER: End scheduler "o133" with entities [LocalPlayer, LocalPlayer], work=494*
114: 0x0F9C [0x45] LOAD_SCHEDULED_TASK: Load scheduler "o156" with entities [LocalPlayer, LocalPlayer], work=[494*, 0*]
115: 0x0FAD [0x2B] Pieuje (ID: 17731589/0x010E9005) [8513*]:
    → "...And yet the past cannot be so readily forgotten."
116: 0x0FB4 [0x23] WAIT_FOR_DIALOG_INTERACTION
117: 0x0FB5 [0x52] END_LOAD_SCHEDULER: End scheduler "o156" with entities [LocalPlayer, LocalPlayer], work=494*
118: 0x0FC4 [0x45] LOAD_SCHEDULED_TASK: Load scheduler "o118" with entities [LocalPlayer, LocalPlayer], work=[494*, 0*]
119: 0x0FD5 [0x4A] Halver (ID: 17731591/0x010E9007) looks at Pieuje (ID: 17731589/0x010E9005)
120: 0x0FDE [0x6F] WAIT_FRAME_DELAY: Yield until WaitTime reaches zero
121: 0x0FDF [0x76] CHECK_ENTITY_RENDER_FLAGS: Wait until Halver (ID: 17731591/0x010E9007) Render.Flags0 and Render.Flags3 conditions are met
122: 0x0FE4 [0x66] LOAD_EXT_SCHEDULER_MAIN: Load scheduler "tlk0" with entities [Halver (ID: 17731591/0x010E9007), Halver (ID: 17731591/0x010E9007)], work=20*
123: 0x0FF3 [0x2B] Halver (ID: 17731591/0x010E9007) [8514*]:
    → "Begging your pardon, my prince. I daresay that the mere fact that they seek our consent--rather than engaging in devious and furtive plots--shows that we deal no longer with the Silent Empire of old."
124: 0x0FFA [0x23] WAIT_FOR_DIALOG_INTERACTION
125: 0x0FFB [0x52] END_LOAD_SCHEDULER: End scheduler "o118" with entities [LocalPlayer, LocalPlayer], work=494*
126: 0x100A [0x45] LOAD_SCHEDULED_TASK: Load scheduler "o119" with entities [LocalPlayer, LocalPlayer], work=[494*, 0*]
127: 0x101B [0x66] LOAD_EXT_SCHEDULER_MAIN: Load scheduler "tlk1" with entities [Halver (ID: 17731591/0x010E9007), Halver (ID: 17731591/0x010E9007)], work=20*
128: 0x102A [0x66] LOAD_EXT_SCHEDULER_MAIN: Load scheduler "tlk0" with entities [Pieuje (ID: 17731589/0x010E9005), Pieuje (ID: 17731589/0x010E9005)], work=120*
129: 0x1039 [0x79] Pieuje (ID: 17731589/0x010E9005) looks at Halver (ID: 17731591/0x010E9007) (Basic look)
130: 0x1043 [0x2B] Pieuje (ID: 17731589/0x010E9005) [8515*]:
    → "Settle yourself, Halver. I said nothing of denying their plea."
131: 0x104A [0x23] WAIT_FOR_DIALOG_INTERACTION
132: 0x104B [0x66] LOAD_EXT_SCHEDULER_MAIN: Load scheduler "tlk1" with entities [Pieuje (ID: 17731589/0x010E9005), Pieuje (ID: 17731589/0x010E9005)], work=120*
133: 0x105A [0x52] END_LOAD_SCHEDULER: End scheduler "o119" with entities [LocalPlayer, LocalPlayer], work=494*
134: 0x1069 [0x45] LOAD_SCHEDULED_TASK: Load scheduler "o120" with entities [LocalPlayer, LocalPlayer], work=[494*, 0*]
135: 0x107A [0x2B] Halver (ID: 17731591/0x010E9007) [8516*]:
    → "Forgive me, my prince. I spoke in haste."
136: 0x1081 [0x23] WAIT_FOR_DIALOG_INTERACTION
137: 0x1082 [0x52] END_LOAD_SCHEDULER: End scheduler "o120" with entities [LocalPlayer, LocalPlayer], work=494*
138: 0x1091 [0x45] LOAD_SCHEDULED_TASK: Load scheduler "o121" with entities [LocalPlayer, LocalPlayer], work=[494*, 0*]
139: 0x10A2 [0x66] LOAD_EXT_SCHEDULER_MAIN: Load scheduler "thk0" with entities [Pieuje (ID: 17731589/0x010E9005), Pieuje (ID: 17731589/0x010E9005)], work=121*
140: 0x10B1 [0x2B] Pieuje (ID: 17731589/0x010E9005) [8517*]:
    → "It is precisely because I remember well the past that I believe the Empire's plea to be sincere."
141: 0x10B8 [0x23] WAIT_FOR_DIALOG_INTERACTION
142: 0x10B9 [0x2B] Pieuje (ID: 17731589/0x010E9005) [8518*]:
    → "It is clear that this Empress Nashmeira truly intends to lead her nation to a new age. I have no doubt that she will prove a staunch ally worthy of our trust."
143: 0x10C0 [0x23] WAIT_FOR_DIALOG_INTERACTION
144: 0x10C1 [0x66] LOAD_EXT_SCHEDULER_MAIN: Load scheduler "thk1" with entities [Pieuje (ID: 17731589/0x010E9005), Pieuje (ID: 17731589/0x010E9005)], work=121*
145: 0x10D0 [0x52] END_LOAD_SCHEDULER: End scheduler "o121" with entities [LocalPlayer, LocalPlayer], work=494*
146: 0x10DF [0x45] LOAD_SCHEDULED_TASK: Load scheduler "o124" with entities [LocalPlayer, LocalPlayer], work=[494*, 0*]
147: 0x10F0 [0x66] LOAD_EXT_SCHEDULER_MAIN: Load scheduler "tlk0" with entities [Halver (ID: 17731591/0x010E9007), Halver (ID: 17731591/0x010E9007)], work=20*
148: 0x10FF [0x2B] Halver (ID: 17731591/0x010E9007) [8521*]:
    → "I could not agree more, my king."
149: 0x1106 [0x23] WAIT_FOR_DIALOG_INTERACTION
150: 0x1107 [0x2B] Halver (ID: 17731591/0x010E9007) [8528*]:
    → "Besides, were something to go amiss, the presence of <Player> here should suffice to keep matters in hand."
151: 0x110E [0x23] WAIT_FOR_DIALOG_INTERACTION
152: 0x110F [0x66] LOAD_EXT_SCHEDULER_MAIN: Load scheduler "tlk1" with entities [Halver (ID: 17731591/0x010E9007), Halver (ID: 17731591/0x010E9007)], work=20*
153: 0x111E [0x52] END_LOAD_SCHEDULER: End scheduler "o124" with entities [LocalPlayer, LocalPlayer], work=494*
154: 0x112D [0x45] LOAD_SCHEDULED_TASK: Load scheduler "o127" with entities [LocalPlayer, LocalPlayer], work=[494*, 0*]
155: 0x113E [0x4A] Halver (ID: 17731591/0x010E9007) looks at Destin (ID: 17731585/0x010E9001)
156: 0x1147 [0x5B] LOAD_EXT_SCHEDULER: Load scheduler "stk0" with entities [Destin (ID: 17731585/0x010E9001), Destin (ID: 17731585/0x010E9001)], work=131*
157: 0x1156 [0x2B] Destin (ID: 17731585/0x010E9001) [8526*]:
    → "Very well."
158: 0x115D [0x23] WAIT_FOR_DIALOG_INTERACTION
159: 0x115E [0x2B] Destin (ID: 17731585/0x010E9001) [8529*]:
    → "Halver and my son present a compelling case. Return to this Empress, and tell her San d'Oria stands with her. Now farewell, and may the Goddess watch over your journey!"
160: 0x1165 [0x23] WAIT_FOR_DIALOG_INTERACTION
161: 0x1166 [0x5B] LOAD_EXT_SCHEDULER: Load scheduler "stk1" with entities [Destin (ID: 17731585/0x010E9001), Destin (ID: 17731585/0x010E9001)], work=131*
162: 0x1175 [0x52] END_LOAD_SCHEDULER: End scheduler "o127" with entities [LocalPlayer, LocalPlayer], work=494*
163: 0x1184 [0x45] LOAD_SCHEDULED_TASK: Load scheduler "o134" with entities [LocalPlayer, LocalPlayer], work=[494*, 0*]
164: 0x1195 [0x1C] WAIT(120* ticks)
165: 0x1198 [0x52] END_LOAD_SCHEDULER: End scheduler "o134" with entities [LocalPlayer, LocalPlayer], work=494*
166: 0x11A7 [0x1A] CALL_SUBROUTINE(address=0x0064)
167: 0x11AA [0x1C] WAIT(30* ticks)
168: 0x11AD [0x59] UPDATE_ENTITY_DATA: LocalPlayer->Render.Flags0 &= ~0x200000
169: 0x11B4 [0x52] END_LOAD_SCHEDULER: End scheduler "r140" with entities [LocalPlayer, LocalPlayer], work=493*
170: 0x11C3 [0x78] ENABLE_GAME_TIMER_RESET_WEATHER()
171: 0x11C4 [0x1C] WAIT(15* ticks)
172: 0x11C7 [0xAB] EventEntity->UnknownFlag = 1 // Enable unknown flag
173: 0x11C9 [0x1C] WAIT(15* ticks)
174: 0x11CC [0xAB] EventEntity->DespawnValue = 0* // Set despawn value
175: 0x11D0 [0x1C] WAIT(1* ticks)
176: 0x11D3 [0x46] CAMERA_CONTROL: Restore default settings
177: 0x11D5 [0x45] LOAD_SCHEDULED_TASK: Load scheduler "fdi2" with entities [LocalPlayer, LocalPlayer], work=[200*, 0*]
178: 0x11E6 [0x21] END_EVENT
179: 0x11E7 [0x00] END_REQSTACK()
```
