# 17731665 - Vijartal

## Common Data

| Field            | Value                         |
|------------------|-------------------------------|
| Zone             | Chateau d'Oraguille (ID: 233) |
| Block Size       | 272 bytes                     |
| Total Events     | 11                            |
| References Count | 12                            |

## List of Events

| Event ID                 | Entrypoint   |   Size |   Instructions |
|--------------------------|--------------|--------|----------------|
| [65535](#event-65535)    | 0x0000       |      1 |              1 |
| [112](#event-112)        | 0x0001       |     10 |              2 |
| [65535.1](#event-655351) | 0x000B       |     25 |              5 |
| [65535.2](#event-655352) | 0x0024       |     11 |              3 |
| [65535.3](#event-655353) | 0x002F       |      6 |              2 |
| [65535.4](#event-655354) | 0x0035       |      6 |              2 |
| [65535.5](#event-655355) | 0x003B       |      6 |              2 |
| [65535.6](#event-655356) | 0x0041       |     29 |              3 |
| [65535.7](#event-655357) | 0x005E       |      9 |              3 |
| [65535.8](#event-655358) | 0x0067       |     29 |              3 |
| [65535.9](#event-655359) | 0x0084       |     29 |              3 |

## DAT References (imed_data)

|   Index | Hex Value   |   Dec Value |
|---------|-------------|-------------|
|       0 | 0x075F      |        1887 |
|       1 | 0xFFFFFFD6  |  4294967254 |
|       2 | 0x0000      |           0 |
|       3 | 0x0CA8      |        3240 |
|       4 | 0x000D      |          13 |
|       5 | 0x0217      |         535 |
|       6 | 0xFFFFE8CB  |  4294961355 |
|       7 | 0x003C      |          60 |
|       8 | 0x0CDD      |        3293 |
|       9 | 0x001B      |          27 |
|      10 | 0xFFFFC84B  |  4294953035 |
|      11 | 0x001D      |          29 |

## Events

### Event 65535

#### Metadata

| Field        | Value   |
|--------------|---------|
| Entrypoint   | 0x0000  |
| Data Size    | 1 bytes |
| Instructions | 1       |

```
      00 01 02 03 04 05 06 07  08 09 0A 0B 0C 0D 0E 0F
      -- -- -- -- -- -- -- --  -- -- -- -- -- -- -- --
0000: 00                                                .               
```

#### Opcodes

```
  0: 0x0000 [0x00] END_REQSTACK()
```

### Event 112

#### Metadata

| Field        | Value    |
|--------------|----------|
| Entrypoint   | 0x0001   |
| Data Size    | 10 bytes |
| Instructions | 2        |

```
      00 01 02 03 04 05 06 07  08 09 0A 0B 0C 0D 0E 0F
      -- -- -- -- -- -- -- --  -- -- -- -- -- -- -- --
0000:    37 00 80 01 80 02 80  03 80 00                  7.........     
```

#### Opcodes

```
  0: 0x0001 [0x37] UPDATE_EVENT_POSITION_AND_DIR: x=1.887*, z=-0.042*, y=0.000*, direction=284.8°*
  1: 0x000A [0x00] END_REQSTACK()
```

### Event 65535.1

#### Metadata

| Field        | Value    |
|--------------|----------|
| Entrypoint   | 0x000B   |
| Data Size    | 25 bytes |
| Instructions | 5        |

```
      00 01 02 03 04 05 06 07  08 09 0A 0B 0C 0D 0E 0F
      -- -- -- -- -- -- -- --  -- -- -- -- -- -- -- --
0000:                                   32 04 80 31 00             2..1.
0010: 05 80 06 80 02 80 07 80  31 01 37 05 80 06 80 02  ........1.7.....
0020: 80 08 80 00                                       ....            
```

#### Opcodes

```
  0: 0x000B [0x32] ExtData[1]->MainSpeed = 13* * 0.1
  1: 0x000E [0x31] UPDATE_ENTITY_POSITION: Set EventEntity goal position to X=0.535*, Z=-5.941*, Y=0.000*, Time=60*
  2: 0x0018 [0x31] UPDATE_ENTITY_POSITION: Move EventEntity towards goal position
  3: 0x001A [0x37] UPDATE_EVENT_POSITION_AND_DIR: x=0.535*, z=-5.941*, y=0.000*, direction=289.4°*
  4: 0x0023 [0x00] END_REQSTACK()
```

### Event 65535.2

#### Metadata

| Field        | Value    |
|--------------|----------|
| Entrypoint   | 0x0024   |
| Data Size    | 11 bytes |
| Instructions | 3        |

```
      00 01 02 03 04 05 06 07  08 09 0A 0B 0C 0D 0E 0F
      -- -- -- -- -- -- -- --  -- -- -- -- -- -- -- --
0020:             1F 00 09 80  0A 80 02 80 1F 01 00         ........... 
```

#### Opcodes

```
  0: 0x0024 [0x1F] MOVE_ENTITY: EventEntity moves to X=0.027*, Z=-14.261*, Y=0.000*
  1: 0x002C [0x1F] MOVE_ENTITY: Update entity position (mode=1)
  2: 0x002E [0x00] END_REQSTACK()
```

### Event 65535.3

#### Metadata

| Field        | Value   |
|--------------|---------|
| Entrypoint   | 0x002F  |
| Data Size    | 6 bytes |
| Instructions | 2       |

```
      00 01 02 03 04 05 06 07  08 09 0A 0B 0C 0D 0E 0F
      -- -- -- -- -- -- -- --  -- -- -- -- -- -- -- --
0020:                                               1E                 .
0030: F0 FF FF 7F 00                                    .....           
```

#### Opcodes

```
  0: 0x002F [0x1E] EventEntity looks at LocalPlayer and starts talking
  1: 0x0034 [0x00] END_REQSTACK()
```

### Event 65535.4

#### Metadata

| Field        | Value   |
|--------------|---------|
| Entrypoint   | 0x0035  |
| Data Size    | 6 bytes |
| Instructions | 2       |

```
      00 01 02 03 04 05 06 07  08 09 0A 0B 0C 0D 0E 0F
      -- -- -- -- -- -- -- --  -- -- -- -- -- -- -- --
0030:                1E 50 90  0E 01 00                      .P....     
```

#### Opcodes

```
  0: 0x0035 [0x1E] EventEntity looks at Elmemague (ID: 17731664/0x010E9050) and starts talking
  1: 0x003A [0x00] END_REQSTACK()
```

### Event 65535.5

#### Metadata

| Field        | Value   |
|--------------|---------|
| Entrypoint   | 0x003B  |
| Data Size    | 6 bytes |
| Instructions | 2       |

```
      00 01 02 03 04 05 06 07  08 09 0A 0B 0C 0D 0E 0F
      -- -- -- -- -- -- -- --  -- -- -- -- -- -- -- --
0030:                                   1E 07 90 0E 01             .....
0040: 00                                                .               
```

#### Opcodes

```
  0: 0x003B [0x1E] EventEntity looks at Halver (ID: 17731591/0x010E9007) and starts talking
  1: 0x0040 [0x00] END_REQSTACK()
```

### Event 65535.6

#### Metadata

| Field        | Value    |
|--------------|----------|
| Entrypoint   | 0x0041   |
| Data Size    | 29 bytes |
| Instructions | 3        |

```
      00 01 02 03 04 05 06 07  08 09 0A 0B 0C 0D 0E 0F
      -- -- -- -- -- -- -- --  -- -- -- -- -- -- -- --
0040:    66 0B 80 F8 FF FF 7F  F8 FF FF 7F 74 6C 6B 30   f..........tlk0
0050: 53 F8 FF FF 7F F8 FF FF  7F 74 6C 6B 30 00        S........tlk0.  
```

#### Opcodes

```
  0: 0x0041 [0x66] LOAD_EXT_SCHEDULER_MAIN: Load scheduler "tlk0" with entities [EventEntity, EventEntity], work=29*
  1: 0x0050 [0x53] WAIT_SCHEDULER_TASK: Wait for scheduler "tlk0" with entities [EventEntity, EventEntity]
  2: 0x005D [0x00] END_REQSTACK()
```

### Event 65535.7

#### Metadata

| Field        | Value   |
|--------------|---------|
| Entrypoint   | 0x005E  |
| Data Size    | 9 bytes |
| Instructions | 3       |

```
      00 01 02 03 04 05 06 07  08 09 0A 0B 0C 0D 0E 0F
      -- -- -- -- -- -- -- --  -- -- -- -- -- -- -- --
0050:                                            5E 69                ^i
0060: 64 6C 30 1C 07 80 00                              dl0....         
```

#### Opcodes

```
  0: 0x005E [0x5E] EventEntity goes idle (kills current action) (animation: "idl0")
  1: 0x0063 [0x1C] WAIT(60* ticks)
  2: 0x0066 [0x00] END_REQSTACK()
```

### Event 65535.8

#### Metadata

| Field        | Value    |
|--------------|----------|
| Entrypoint   | 0x0067   |
| Data Size    | 29 bytes |
| Instructions | 3        |

```
      00 01 02 03 04 05 06 07  08 09 0A 0B 0C 0D 0E 0F
      -- -- -- -- -- -- -- --  -- -- -- -- -- -- -- --
0060:                      66  0B 80 F8 FF FF 7F F8 FF         f........
0070: FF 7F 74 68 6B 31 53 F8  FF FF 7F F8 FF FF 7F 74  ..thk1S........t
0080: 68 6B 31 00                                       hk1.            
```

#### Opcodes

```
  0: 0x0067 [0x66] LOAD_EXT_SCHEDULER_MAIN: Load scheduler "thk1" with entities [EventEntity, EventEntity], work=29*
  1: 0x0076 [0x53] WAIT_SCHEDULER_TASK: Wait for scheduler "thk1" with entities [EventEntity, EventEntity]
  2: 0x0083 [0x00] END_REQSTACK()
```

### Event 65535.9

#### Metadata

| Field        | Value    |
|--------------|----------|
| Entrypoint   | 0x0084   |
| Data Size    | 29 bytes |
| Instructions | 3        |

```
      00 01 02 03 04 05 06 07  08 09 0A 0B 0C 0D 0E 0F
      -- -- -- -- -- -- -- --  -- -- -- -- -- -- -- --
0080:             66 0B 80 F8  FF FF 7F F8 FF FF 7F 74      f..........t
0090: 68 6B 32 53 F8 FF FF 7F  F8 FF FF 7F 74 68 6B 32  hk2S........thk2
00A0: 00                                                .               
```

#### Opcodes

```
  0: 0x0084 [0x66] LOAD_EXT_SCHEDULER_MAIN: Load scheduler "thk2" with entities [EventEntity, EventEntity], work=29*
  1: 0x0093 [0x53] WAIT_SCHEDULER_TASK: Wait for scheduler "thk2" with entities [EventEntity, EventEntity]
  2: 0x00A0 [0x00] END_REQSTACK()
```
