# 17731628 - DoorGreat Hall

## Common Data

| Field            | Value                         |
|------------------|-------------------------------|
| Zone             | Chateau d'Oraguille (ID: 233) |
| Block Size       | 14560 bytes                   |
| Total Events     | 18                            |
| References Count | 237                           |

## List of Events

| Event ID                 | Entrypoint   |   Size |   Instructions |
|--------------------------|--------------|--------|----------------|
| [65535](#event-65535)    | 0x0000       |      1 |              1 |
| [70](#event-70)          | 0x0001       |    739 |             90 |
| [72](#event-72)          | 0x02E4       |    746 |             99 |
| [10](#event-10)          | 0x05CE       |      1 |              1 |
| [8](#event-8)            | 0x05CF       |   2592 |            319 |
| [9](#event-9)            | 0x0FEF       |   1529 |            213 |
| [76](#event-76)          | 0x15E8       |   1851 |            242 |
| [32](#event-32)          | 0x1D23       |   3167 |            429 |
| [87](#event-87)          | 0x2982       |    655 |             78 |
| [61](#event-61)          | 0x2C11       |      1 |              1 |
| [21](#event-21)          | 0x2C12       |      1 |              1 |
| [100](#event-100)        | 0x2C13       |      1 |              1 |
| [65535.1](#event-655351) | 0x2C14       |      2 |              2 |
| [65535.2](#event-655352) | 0x2C16       |      2 |              2 |
| [537](#event-537)        | 0x2C18       |    955 |            116 |
| [509](#event-509)        | 0x2FD3       |   1279 |            175 |
| [104](#event-104)        | 0x34D2       |      1 |              1 |

## DAT References (imed_data)

|   Index | Hex Value   |   Dec Value |
|---------|-------------|-------------|
|       0 | 0x00C8      |         200 |
|       1 | 0x0000      |           0 |
|       2 | 0x0003      |           3 |
|       3 | 0x0001      |           1 |
|       4 | 0x00BB      |         187 |
|       5 | 0x0096      |         150 |
|       6 | 0x0078      |         120 |
|       7 | 0x000D      |          13 |
|       8 | 0x000A      |          10 |
|       9 | 0x0036      |          54 |
|      10 | 0x1FF5      |        8181 |
|      11 | 0x1FF6      |        8182 |
|      12 | 0x1FF7      |        8183 |
|      13 | 0x1FF8      |        8184 |
|      14 | 0x001E      |          30 |
|      15 | 0x003C      |          60 |
|      16 | 0x1FF9      |        8185 |
|      17 | 0x1FFA      |        8186 |
|      18 | 0x1FFB      |        8187 |
|      19 | 0x1FFC      |        8188 |
|      20 | 0x1FFD      |        8189 |
|      21 | 0x1FFE      |        8190 |
|      22 | 0x1FFF      |        8191 |
|      23 | 0x009C      |         156 |
|      24 | 0x0085      |         133 |
|      25 | 0x012C      |         300 |
|      26 | 0x007F      |         127 |
|      27 | 0x0064      |         100 |
|      28 | 0x2000      |        8192 |
|      29 | 0x2001      |        8193 |
|      30 | 0x2002      |        8194 |
|      31 | 0x005A      |          90 |
|      32 | 0x2003      |        8195 |
|      33 | 0x2004      |        8196 |
|      34 | 0x0014      |          20 |
|      35 | 0x2005      |        8197 |
|      36 | 0x2006      |        8198 |
|      37 | 0x0002      |           2 |
|      38 | 0x2007      |        8199 |
|      39 | 0x2008      |        8200 |
|      40 | 0x2009      |        8201 |
|      41 | 0x200A      |        8202 |
|      42 | 0x200B      |        8203 |
|      43 | 0x200C      |        8204 |
|      44 | 0x200D      |        8205 |
|      45 | 0x008C      |         140 |
|      46 | 0x0032      |          50 |
|      47 | 0x00B4      |         180 |
|      48 | 0x0008      |           8 |
|      49 | 0x1E82      |        7810 |
|      50 | 0x1E83      |        7811 |
|      51 | 0x007C      |         124 |
|      52 | 0x1E84      |        7812 |
|      53 | 0x1E85      |        7813 |
|      54 | 0x1E86      |        7814 |
|      55 | 0x1E87      |        7815 |
|      56 | 0x1E88      |        7816 |
|      57 | 0x1E89      |        7817 |
|      58 | 0x1E8A      |        7818 |
|      59 | 0x1E8B      |        7819 |
|      60 | 0x1E8C      |        7820 |
|      61 | 0x1E8D      |        7821 |
|      62 | 0x1E8E      |        7822 |
|      63 | 0x1E8F      |        7823 |
|      64 | 0x1E90      |        7824 |
|      65 | 0x1E91      |        7825 |
|      66 | 0x00A0      |         160 |
|      67 | 0x0015      |          21 |
|      68 | 0x1E92      |        7826 |
|      69 | 0x1E93      |        7827 |
|      70 | 0x1E94      |        7828 |
|      71 | 0x01F4      |         500 |
|      72 | 0x00C9      |         201 |
|      73 | 0x1E95      |        7829 |
|      74 | 0x0067      |         103 |
|      75 | 0x0006      |           6 |
|      76 | 0x1E96      |        7830 |
|      77 | 0x1E97      |        7831 |
|      78 | 0x1E98      |        7832 |
|      79 | 0x00E9      |         233 |
|      80 | 0x1E99      |        7833 |
|      81 | 0x1E9A      |        7834 |
|      82 | 0x1E9B      |        7835 |
|      83 | 0x1E9C      |        7836 |
|      84 | 0x1E9D      |        7837 |
|      85 | 0x1E9E      |        7838 |
|      86 | 0x1E9F      |        7839 |
|      87 | 0x1EA0      |        7840 |
|      88 | 0x1EA1      |        7841 |
|      89 | 0x1EA2      |        7842 |
|      90 | 0x1EA3      |        7843 |
|      91 | 0x000F      |          15 |
|      92 | 0x1EA4      |        7844 |
|      93 | 0x1EA5      |        7845 |
|      94 | 0x1EAB      |        7851 |
|      95 | 0x0099      |         153 |
|      96 | 0x0012      |          18 |
|      97 | 0x1EAC      |        7852 |
|      98 | 0x1EAD      |        7853 |
|      99 | 0x1EAE      |        7854 |
|     100 | 0x1EAF      |        7855 |
|     101 | 0x1EB0      |        7856 |
|     102 | 0x0005      |           5 |
|     103 | 0x1EB1      |        7857 |
|     104 | 0x00B5      |         181 |
|     105 | 0x1EB2      |        7858 |
|     106 | 0x0028      |          40 |
|     107 | 0x0400      |        1024 |
|     108 | 0x1EB3      |        7859 |
|     109 | 0x1EB4      |        7860 |
|     110 | 0x015E      |         350 |
|     111 | 0x1E38      |        7736 |
|     112 | 0x0C00      |        3072 |
|     113 | 0x1E39      |        7737 |
|     114 | 0x1E3A      |        7738 |
|     115 | 0x1E3B      |        7739 |
|     116 | 0x1E3C      |        7740 |
|     117 | 0x1E3D      |        7741 |
|     118 | 0x1E3E      |        7742 |
|     119 | 0x1E3F      |        7743 |
|     120 | 0x1E40      |        7744 |
|     121 | 0x1E41      |        7745 |
|     122 | 0x1E42      |        7746 |
|     123 | 0x1E43      |        7747 |
|     124 | 0x1E44      |        7748 |
|     125 | 0x1E45      |        7749 |
|     126 | 0x1E46      |        7750 |
|     127 | 0x1E47      |        7751 |
|     128 | 0x1E48      |        7752 |
|     129 | 0x0175      |         373 |
|     130 | 0x1E49      |        7753 |
|     131 | 0x007D      |         125 |
|     132 | 0x0080      |         128 |
|     133 | 0x00F0      |         240 |
|     134 | 0x1E4A      |        7754 |
|     135 | 0x0168      |         360 |
|     136 | 0x1E4B      |        7755 |
|     137 | 0x1E4C      |        7756 |
|     138 | 0x1E4D      |        7757 |
|     139 | 0x1E4E      |        7758 |
|     140 | 0x1E4F      |        7759 |
|     141 | 0x1E50      |        7760 |
|     142 | 0x00A3      |         163 |
|     143 | 0x1DFF      |        7679 |
|     144 | 0x1E00      |        7680 |
|     145 | 0x1E01      |        7681 |
|     146 | 0x1E02      |        7682 |
|     147 | 0x1E03      |        7683 |
|     148 | 0x1E04      |        7684 |
|     149 | 0x1E05      |        7685 |
|     150 | 0x1E06      |        7686 |
|     151 | 0x1E07      |        7687 |
|     152 | 0x1E08      |        7688 |
|     153 | 0x1E09      |        7689 |
|     154 | 0x1E0A      |        7690 |
|     155 | 0x1E0B      |        7691 |
|     156 | 0x1E0C      |        7692 |
|     157 | 0x1E0D      |        7693 |
|     158 | 0x1E0E      |        7694 |
|     159 | 0x1E0F      |        7695 |
|     160 | 0x1E10      |        7696 |
|     161 | 0x1E11      |        7697 |
|     162 | 0x1E12      |        7698 |
|     163 | 0x1E13      |        7699 |
|     164 | 0x1E14      |        7700 |
|     165 | 0x1E15      |        7701 |
|     166 | 0x1E16      |        7702 |
|     167 | 0x1E17      |        7703 |
|     168 | 0x1E18      |        7704 |
|     169 | 0x1E19      |        7705 |
|     170 | 0x007B      |         123 |
|     171 | 0x1E1A      |        7706 |
|     172 | 0x1E1B      |        7707 |
|     173 | 0x1E1C      |        7708 |
|     174 | 0x1E1D      |        7709 |
|     175 | 0x1E1E      |        7710 |
|     176 | 0x1E1F      |        7711 |
|     177 | 0x1E20      |        7712 |
|     178 | 0x1E21      |        7713 |
|     179 | 0x1E22      |        7714 |
|     180 | 0x1E23      |        7715 |
|     181 | 0x1E24      |        7716 |
|     182 | 0x1E25      |        7717 |
|     183 | 0x1E26      |        7718 |
|     184 | 0x1E27      |        7719 |
|     185 | 0x1E28      |        7720 |
|     186 | 0x1E29      |        7721 |
|     187 | 0x1E2A      |        7722 |
|     188 | 0x1E2B      |        7723 |
|     189 | 0x1E2C      |        7724 |
|     190 | 0x1E2D      |        7725 |
|     191 | 0x0800      |        2048 |
|     192 | 0x1E2E      |        7726 |
|     193 | 0x1E2F      |        7727 |
|     194 | 0x1E30      |        7728 |
|     195 | 0x1E31      |        7729 |
|     196 | 0x1E32      |        7730 |
|     197 | 0x1E33      |        7731 |
|     198 | 0x006E      |         110 |
|     199 | 0x1E34      |        7732 |
|     200 | 0x1E35      |        7733 |
|     201 | 0x010C      |         268 |
|     202 | 0x1A50      |        6736 |
|     203 | 0x00F2      |         242 |
|     204 | 0x1A51      |        6737 |
|     205 | 0x1A52      |        6738 |
|     206 | 0x1A53      |        6739 |
|     207 | 0x1A54      |        6740 |
|     208 | 0x1A55      |        6741 |
|     209 | 0x1BC3      |        7107 |
|     210 | 0x1BC4      |        7108 |
|     211 | 0x1BC5      |        7109 |
|     212 | 0x1BC6      |        7110 |
|     213 | 0x1BC7      |        7111 |
|     214 | 0x1BC8      |        7112 |
|     215 | 0x1BC9      |        7113 |
|     216 | 0x1BCA      |        7114 |
|     217 | 0x1BCC      |        7116 |
|     218 | 0x1BCD      |        7117 |
|     219 | 0x1BCE      |        7118 |
|     220 | 0x1BCF      |        7119 |
|     221 | 0x1BD0      |        7120 |
|     222 | 0x1BD1      |        7121 |
|     223 | 0x1BD2      |        7122 |
|     224 | 0x1BD3      |        7123 |
|     225 | 0x1BD4      |        7124 |
|     226 | 0x1BD5      |        7125 |
|     227 | 0x1BD6      |        7126 |
|     228 | 0x1BD7      |        7127 |
|     229 | 0x1BD8      |        7128 |
|     230 | 0x1BD9      |        7129 |
|     231 | 0x1BDA      |        7130 |
|     232 | 0x1BDB      |        7131 |
|     233 | 0x1BDC      |        7132 |
|     234 | 0x1BDD      |        7133 |
|     235 | 0x1BDE      |        7134 |
|     236 | 0x1BDF      |        7135 |

## String References

- **7738**: How do you reply? [Understood, Your Highness./Remaining details?]

## Events

### Event 65535

#### Metadata

| Field        | Value   |
|--------------|---------|
| Entrypoint   | 0x0000  |
| Data Size    | 1 bytes |
| Instructions | 1       |

```
      00 01 02 03 04 05 06 07  08 09 0A 0B 0C 0D 0E 0F
      -- -- -- -- -- -- -- --  -- -- -- -- -- -- -- --
0000: 00                                                .               
```

#### Opcodes

```
  0: 0x0000 [0x00] END_REQSTACK()
```

### Event 70

#### Metadata

| Field        | Value     |
|--------------|-----------|
| Entrypoint   | 0x0001    |
| Data Size    | 739 bytes |
| Instructions | 90        |

```
      00 01 02 03 04 05 06 07  08 09 0A 0B 0C 0D 0E 0F
      -- -- -- -- -- -- -- --  -- -- -- -- -- -- -- --
0000:    20 01 46 01 42 4C 45  00 80 F0 FF FF 7F F0 FF    .F.BLE........
0010: FF 7F 66 64 6F 31 01 80  55 00 80 F0 FF FF 7F F0  ..fdo1..U.......
0020: FF FF 7F 66 64 6F 31 38  02 80 94 01 F0 FF FF 7F  ...fdo18........
0030: 97 01 80 03 80 29 03 F0  FF FF 7F 19 45 04 80 F0  .....)......E...
0040: FF FF 7F F0 FF FF 7F 63  6D 30 30 01 80 45 00 80  .......cm00..E..
0050: F0 FF FF 7F F0 FF FF 7F  66 64 69 31 01 80 45 04  ........fdi1..E.
0060: 80 F0 FF FF 7F F0 FF FF  7F 62 30 30 30 01 80 27  .........b000..'
0070: 03 F0 FF FF 7F 1A 1C 05  80 4D 2A 03 F0 FF FF 7F  .........M*.....
0080: 27 03 F0 FF FF 7F 1B 55  04 80 F0 FF FF 7F F0 FF  '......U........
0090: FF 7F 62 30 30 30 1C 03  80 45 04 80 F0 FF FF 7F  ..b000...E......
00A0: F0 FF FF 7F 62 30 30 31  01 80 55 04 80 F0 FF FF  ....b001..U.....
00B0: 7F F0 FF FF 7F 62 30 30  31 45 04 80 F0 FF FF 7F  .....b001E......
00C0: F0 FF FF 7F 63 6D 30 31  01 80 2A 03 F0 FF FF 7F  ....cm01..*.....
00D0: 5D 01 80 06 80 55 04 80  F0 FF FF 7F F0 FF FF 7F  ]....U..........
00E0: 63 6D 30 31 45 07 80 F0  FF FF 7F F0 FF FF 7F 79  cm01E..........y
00F0: 30 30 30 01 80 55 07 80  F0 FF FF 7F F0 FF FF 7F  000..U..........
0100: 79 30 30 30 27 03 F0 FF  FF 7F 53 1C 08 80 45 07  y000'.....S...E.
0110: 80 F0 FF FF 7F F0 FF FF  7F 79 30 30 31 01 80 55  .........y001..U
0120: 07 80 F0 FF FF 7F F0 FF  FF 7F 79 30 30 31 2A 03  ..........y001*.
0130: F0 FF FF 7F 1C 08 80 5C  00 06 80 5C 01 06 80 45  .......\...\...E
0140: 09 80 F0 FF FF 7F F0 FF  FF 7F 73 30 30 30 01 80  ..........s000..
0150: 55 09 80 F0 FF FF 7F F0  FF FF 7F 73 30 30 30 2B  U..........s000+
0160: 01 90 0E 01 0A 80 23 2B  01 90 0E 01 0B 80 23 45  ......#+......#E
0170: 09 80 F0 FF FF 7F F0 FF  FF 7F 73 30 30 31 01 80  ..........s001..
0180: 55 09 80 F0 FF FF 7F F0  FF FF 7F 73 30 30 31 2B  U..........s001+
0190: 01 90 0E 01 0C 80 23 2B  01 90 0E 01 0D 80 23 45  ......#+......#E
01A0: 09 80 F0 FF FF 7F F0 FF  FF 7F 73 30 30 32 01 80  ..........s002..
01B0: 55 09 80 F0 FF FF 7F F0  FF FF 7F 73 30 30 32 1C  U..........s002.
01C0: 0E 80 27 03 01 90 0E 01  12 1C 0F 80 2B 01 90 0E  ..'.........+...
01D0: 01 10 80 23 2B 01 90 0E  01 11 80 23 45 09 80 F0  ...#+......#E...
01E0: FF FF 7F F0 FF FF 7F 73  30 30 33 01 80 2B 01 90  .......s003..+..
01F0: 0E 01 12 80 23 2B 01 90  0E 01 13 80 23 55 09 80  ....#+......#U..
0200: F0 FF FF 7F F0 FF FF 7F  73 30 30 33 27 03 01 90  ........s003'...
0210: 0E 01 13 1C 08 80 45 09  80 F0 FF FF 7F F0 FF FF  ......E.........
0220: 7F 73 30 30 32 01 80 55  09 80 F0 FF FF 7F F0 FF  .s002..U........
0230: FF 7F 73 30 30 32 2A 03  01 90 0E 01 2B 01 90 0E  ..s002*.....+...
0240: 01 14 80 23 45 09 80 F0  FF FF 7F F0 FF FF 7F 73  ...#E..........s
0250: 30 30 31 01 80 55 09 80  F0 FF FF 7F F0 FF FF 7F  001..U..........
0260: 73 30 30 31 2B 01 90 0E  01 15 80 23 27 03 F0 FF  s001+......#'...
0270: FF 7F 54 1C 0E 80 45 09  80 F0 FF FF 7F F0 FF FF  ..T...E.........
0280: 7F 73 30 30 30 01 80 55  09 80 F0 FF FF 7F F0 FF  .s000..U........
0290: FF 7F 73 30 30 30 2A 03  F0 FF FF 7F 2B 01 90 0E  ..s000*.....+...
02A0: 01 16 80 23 1C 0E 80 45  00 80 F0 FF FF 7F F0 FF  ...#...E........
02B0: FF 7F 66 64 6F 32 01 80  55 00 80 F0 FF FF 7F F0  ..fdo2..U.......
02C0: FF FF 7F 66 64 6F 32 5C  00 17 80 5C 01 17 80 46  ...fdo2\...\...F
02D0: 00 45 00 80 F0 FF FF 7F  F0 FF FF 7F 66 64 69 32  .E..........fdi2
02E0: 01 80 21 00                                       ..!.            
```

#### Opcodes

```
  0: 0x0001 [0x20] SET_CLI_EVENT_UC_FLAG: Lock player control
  1: 0x0003 [0x46] CAMERA_CONTROL: Disable user control
  2: 0x0005 [0x42] SET_CLI_EVENT_CANCEL_DATA()
  3: 0x0006 [0x4C] EventEntity->StatusEvent = 8 // Open door
  4: 0x0007 [0x45] LOAD_SCHEDULED_TASK: Load scheduler "fdo1" with entities [LocalPlayer, LocalPlayer], work=[200*, 0*]
  5: 0x0018 [0x55] WAIT_LOAD_SCHEDULER: Wait for scheduler "fdo1" with entities [LocalPlayer, LocalPlayer], work=200*
  6: 0x0027 [0x38] SET_CLIENT_EVENT_MODE(mode=3*)
  7: 0x002A [0x94] LocalPlayer->Render.Flags3 ^= 0x01
  8: 0x0030 [0x97] SAVE_SET_WIND_VALUES(wind_base=0x8001, wind_width=0x8003)
  9: 0x0035 [0x29] REQ_SET_WAIT(priority=0x03, entity_id=LocalPlayer, tag_num=0x19)
 10: 0x003C [0x45] LOAD_SCHEDULED_TASK: Load scheduler "cm00" with entities [LocalPlayer, LocalPlayer], work=[187*, 0*]
 11: 0x004D [0x45] LOAD_SCHEDULED_TASK: Load scheduler "fdi1" with entities [LocalPlayer, LocalPlayer], work=[200*, 0*]
 12: 0x005E [0x45] LOAD_SCHEDULED_TASK: Load scheduler "b000" with entities [LocalPlayer, LocalPlayer], work=[187*, 0*]
 13: 0x006F [0x27] REQ_SET(priority=0x03, entity_id=LocalPlayer, tag_num=0x1A)
 14: 0x0076 [0x1C] WAIT(150* ticks)
 15: 0x0079 [0x4D] EventEntity->StatusEvent = 9 // Close door
 16: 0x007A [0x2A] GET_REQ_LEVEL(level=3, entity_id=LocalPlayer)
 17: 0x0080 [0x27] REQ_SET(priority=0x03, entity_id=LocalPlayer, tag_num=0x1B)
 18: 0x0087 [0x55] WAIT_LOAD_SCHEDULER: Wait for scheduler "b000" with entities [LocalPlayer, LocalPlayer], work=187*
 19: 0x0096 [0x1C] WAIT(1* ticks)
 20: 0x0099 [0x45] LOAD_SCHEDULED_TASK: Load scheduler "b001" with entities [LocalPlayer, LocalPlayer], work=[187*, 0*]
 21: 0x00AA [0x55] WAIT_LOAD_SCHEDULER: Wait for scheduler "b001" with entities [LocalPlayer, LocalPlayer], work=187*
 22: 0x00B9 [0x45] LOAD_SCHEDULED_TASK: Load scheduler "cm01" with entities [LocalPlayer, LocalPlayer], work=[187*, 0*]
 23: 0x00CA [0x2A] GET_REQ_LEVEL(level=3, entity_id=LocalPlayer)
 24: 0x00D0 [0x5D] SET_MUSIC_VOLUME(volume=0*, fade_time=120*)
 25: 0x00D5 [0x55] WAIT_LOAD_SCHEDULER: Wait for scheduler "cm01" with entities [LocalPlayer, LocalPlayer], work=187*
 26: 0x00E4 [0x45] LOAD_SCHEDULED_TASK: Load scheduler "y000" with entities [LocalPlayer, LocalPlayer], work=[13*, 0*]
 27: 0x00F5 [0x55] WAIT_LOAD_SCHEDULER: Wait for scheduler "y000" with entities [LocalPlayer, LocalPlayer], work=13*
 28: 0x0104 [0x27] REQ_SET(priority=0x03, entity_id=LocalPlayer, tag_num=0x53)
 29: 0x010B [0x1C] WAIT(10* ticks)
 30: 0x010E [0x45] LOAD_SCHEDULED_TASK: Load scheduler "y001" with entities [LocalPlayer, LocalPlayer], work=[13*, 0*]
 31: 0x011F [0x55] WAIT_LOAD_SCHEDULER: Wait for scheduler "y001" with entities [LocalPlayer, LocalPlayer], work=13*
 32: 0x012E [0x2A] GET_REQ_LEVEL(level=3, entity_id=LocalPlayer)
 33: 0x0134 [0x1C] WAIT(10* ticks)
 34: 0x0137 [0x5C] MUSIC_CONTROL: Set Idle (Day) music to song 120*
 35: 0x013B [0x5C] MUSIC_CONTROL: Set Idle (Night) music to song 120*
 36: 0x013F [0x45] LOAD_SCHEDULED_TASK: Load scheduler "s000" with entities [LocalPlayer, LocalPlayer], work=[54*, 0*]
 37: 0x0150 [0x55] WAIT_LOAD_SCHEDULER: Wait for scheduler "s000" with entities [LocalPlayer, LocalPlayer], work=54*
 38: 0x015F [0x2B] Destin (ID: 17731585/0x010E9001) [8181*]:
    → "Ah, <Player>! I am delighted to see you have shown interest in our fine exercise."
 39: 0x0166 [0x23] WAIT_FOR_DIALOG_INTERACTION
 40: 0x0167 [0x2B] Destin (ID: 17731585/0x010E9001) [8182*]:
    → "I can assume you have already been informed of the finer details of Conflict, can I not?"
 41: 0x016E [0x23] WAIT_FOR_DIALOG_INTERACTION
 42: 0x016F [0x45] LOAD_SCHEDULED_TASK: Load scheduler "s001" with entities [LocalPlayer, LocalPlayer], work=[54*, 0*]
 43: 0x0180 [0x55] WAIT_LOAD_SCHEDULER: Wait for scheduler "s001" with entities [LocalPlayer, LocalPlayer], work=54*
 44: 0x018F [0x2B] Destin (ID: 17731585/0x010E9001) [8183*]:
    → "The three nations are finally at peace. Tension between the people of Vana'diel is the last thing any of us wish. However, while only a simple exercise, a game such as Ballista could be misinterpreted by some as a direct attack on an ally."
 45: 0x0196 [0x23] WAIT_FOR_DIALOG_INTERACTION
 46: 0x0197 [0x2B] Destin (ID: 17731585/0x010E9001) [8184*]:
    → "That is where you adventurers come in. Your minds are still clear, your spirits fresh. You are not controlled by petty politics and hidden agendas. It is you who have the opportunity to become the true heroes of the Kingdom."
 47: 0x019E [0x23] WAIT_FOR_DIALOG_INTERACTION
 48: 0x019F [0x45] LOAD_SCHEDULED_TASK: Load scheduler "s002" with entities [LocalPlayer, LocalPlayer], work=[54*, 0*]
 49: 0x01B0 [0x55] WAIT_LOAD_SCHEDULER: Wait for scheduler "s002" with entities [LocalPlayer, LocalPlayer], work=54*
 50: 0x01BF [0x1C] WAIT(30* ticks)
 51: 0x01C2 [0x27] REQ_SET(priority=0x03, entity_id=Destin (ID: 17731585/0x010E9001), tag_num=0x12)
 52: 0x01C9 [0x1C] WAIT(60* ticks)
 53: 0x01CC [0x2B] Destin (ID: 17731585/0x010E9001) [8185*]:
    → "Ah, but to think I would live to see the day Conflict was reinstated. Just thinking of the heated battle makes my heart race with excitement."
 54: 0x01D3 [0x23] WAIT_FOR_DIALOG_INTERACTION
 55: 0x01D4 [0x2B] Destin (ID: 17731585/0x010E9001) [8186*]:
    → "When I was still young, I would spend my days training for Ballista with my fellow knights. Victory was the only thing on our minds."
 56: 0x01DB [0x23] WAIT_FOR_DIALOG_INTERACTION
 57: 0x01DC [0x45] LOAD_SCHEDULED_TASK: Load scheduler "s003" with entities [LocalPlayer, LocalPlayer], work=[54*, 0*]
 58: 0x01ED [0x2B] Destin (ID: 17731585/0x010E9001) [8187*]:
    → "Knowing thy enemy and using that knowledge to strike him down... Giving your all till you have no more to give... The power of the spirit is what drives us, young <Player>."
 59: 0x01F4 [0x23] WAIT_FOR_DIALOG_INTERACTION
 60: 0x01F5 [0x2B] Destin (ID: 17731585/0x010E9001) [8188*]:
    → "And when the battle is through, there remains no hate nor spite--only a bond between brothers that can be experienced through the silent, firm handshake exchanged before parting."
 61: 0x01FC [0x23] WAIT_FOR_DIALOG_INTERACTION
 62: 0x01FD [0x55] WAIT_LOAD_SCHEDULER: Wait for scheduler "s003" with entities [LocalPlayer, LocalPlayer], work=54*
 63: 0x020C [0x27] REQ_SET(priority=0x03, entity_id=Destin (ID: 17731585/0x010E9001), tag_num=0x13)
 64: 0x0213 [0x1C] WAIT(10* ticks)
 65: 0x0216 [0x45] LOAD_SCHEDULED_TASK: Load scheduler "s002" with entities [LocalPlayer, LocalPlayer], work=[54*, 0*]
 66: 0x0227 [0x55] WAIT_LOAD_SCHEDULER: Wait for scheduler "s002" with entities [LocalPlayer, LocalPlayer], work=54*
 67: 0x0236 [0x2A] GET_REQ_LEVEL(level=3, entity_id=Destin (ID: 17731585/0x010E9001))
 68: 0x023C [0x2B] Destin (ID: 17731585/0x010E9001) [8189*]:
    → "You have my permission to take part in the games. My only regret is that due to my age, I will be unable to fight by your side."
 69: 0x0243 [0x23] WAIT_FOR_DIALOG_INTERACTION
 70: 0x0244 [0x45] LOAD_SCHEDULED_TASK: Load scheduler "s001" with entities [LocalPlayer, LocalPlayer], work=[54*, 0*]
 71: 0x0255 [0x55] WAIT_LOAD_SCHEDULER: Wait for scheduler "s001" with entities [LocalPlayer, LocalPlayer], work=54*
 72: 0x0264 [0x2B] Destin (ID: 17731585/0x010E9001) [8190*]:
    → "However, forget not during these exercises you will be bearing the emblem of the Kingdom. The honor of San d'Oria is at stake, so act accordingly."
 73: 0x026B [0x23] WAIT_FOR_DIALOG_INTERACTION
 74: 0x026C [0x27] REQ_SET(priority=0x03, entity_id=LocalPlayer, tag_num=0x54)
 75: 0x0273 [0x1C] WAIT(30* ticks)
 76: 0x0276 [0x45] LOAD_SCHEDULED_TASK: Load scheduler "s000" with entities [LocalPlayer, LocalPlayer], work=[54*, 0*]
 77: 0x0287 [0x55] WAIT_LOAD_SCHEDULER: Wait for scheduler "s000" with entities [LocalPlayer, LocalPlayer], work=54*
 78: 0x0296 [0x2A] GET_REQ_LEVEL(level=3, entity_id=LocalPlayer)
 79: 0x029C [0x2B] Destin (ID: 17731585/0x010E9001) [8191*]:
    → "Defeat is not an option. I expect you to do your best, and I expect you to win."
 80: 0x02A3 [0x23] WAIT_FOR_DIALOG_INTERACTION
 81: 0x02A4 [0x1C] WAIT(30* ticks)
 82: 0x02A7 [0x45] LOAD_SCHEDULED_TASK: Load scheduler "fdo2" with entities [LocalPlayer, LocalPlayer], work=[200*, 0*]
 83: 0x02B8 [0x55] WAIT_LOAD_SCHEDULER: Wait for scheduler "fdo2" with entities [LocalPlayer, LocalPlayer], work=200*
 84: 0x02C7 [0x5C] MUSIC_CONTROL: Set Idle (Day) music to song 156*
 85: 0x02CB [0x5C] MUSIC_CONTROL: Set Idle (Night) music to song 156*
 86: 0x02CF [0x46] CAMERA_CONTROL: Restore default settings
 87: 0x02D1 [0x45] LOAD_SCHEDULED_TASK: Load scheduler "fdi2" with entities [LocalPlayer, LocalPlayer], work=[200*, 0*]
 88: 0x02E2 [0x21] END_EVENT
 89: 0x02E3 [0x00] END_REQSTACK()
```

### Event 72

#### Metadata

| Field        | Value     |
|--------------|-----------|
| Entrypoint   | 0x02E4    |
| Data Size    | 746 bytes |
| Instructions | 99        |

```
      00 01 02 03 04 05 06 07  08 09 0A 0B 0C 0D 0E 0F
      -- -- -- -- -- -- -- --  -- -- -- -- -- -- -- --
02E0:             03 00 00 02  10 20 01 46 01 42 45 00      ..... .F.BE.
02F0: 80 F0 FF FF 7F F0 FF FF  7F 66 64 6F 31 01 80 55  .........fdo1..U
0300: 00 80 F0 FF FF 7F F0 FF  FF 7F 66 64 6F 31 38 02  ..........fdo18.
0310: 80 94 01 F0 FF FF 7F 97  01 80 03 80 45 18 80 F0  ............E...
0320: FF FF 7F F0 FF FF 7F 71  30 30 30 01 80 55 18 80  .......q000..U..
0330: F0 FF FF 7F F0 FF FF 7F  71 30 30 30 38 02 80 29  ........q0008..)
0340: 03 F0 FF FF 7F 29 45 00  80 F0 FF FF 7F F0 FF FF  .....)E.........
0350: 7F 66 64 69 31 01 80 55  00 80 F0 FF FF 7F F0 FF  .fdi1..U........
0360: FF 7F 66 64 69 31 4C 1C  06 80 45 18 80 F0 FF FF  ..fdi1L...E.....
0370: 7F F0 FF FF 7F 71 30 30  31 01 80 5D 01 80 19 80  .....q001..]....
0380: 27 04 F0 FF FF 7F 2E 27  05 F0 FF FF 7F 53 1C 06  '......'.....S..
0390: 80 4D 1C 06 80 55 18 80  F0 FF FF 7F F0 FF FF 7F  .M...U..........
03A0: 71 30 30 31 45 18 80 F0  FF FF 7F F0 FF FF 7F 71  q001E..........q
03B0: 30 30 34 01 80 55 18 80  F0 FF FF 7F F0 FF FF 7F  004..U..........
03C0: 71 30 30 34 45 08 80 F0  FF FF 7F F0 FF FF 7F 7A  q004E..........z
03D0: 30 30 33 01 80 55 08 80  F0 FF FF 7F F0 FF FF 7F  003..U..........
03E0: 7A 30 30 33 1C 0F 80 45  08 80 F0 FF FF 7F F0 FF  z003...E........
03F0: FF 7F 7A 30 30 34 01 80  1C 05 80 55 08 80 F0 FF  ..z004.....U....
0400: FF 7F F0 FF FF 7F 7A 30  30 34 5C 00 1A 80 5C 01  ......z004\...\.
0410: 1A 80 1C 1B 80 2A 05 F0  FF FF 7F 2B 01 90 0E 01  .....*.....+....
0420: 1C 80 23 45 09 80 F0 FF  FF 7F F0 FF FF 7F 73 30  ..#E..........s0
0430: 30 30 01 80 55 09 80 F0  FF FF 7F F0 FF FF 7F 73  00..U..........s
0440: 30 30 30 2B 01 90 0E 01  1D 80 23 2B 01 90 0E 01  000+......#+....
0450: 1E 80 23 45 09 80 F0 FF  FF 7F F0 FF FF 7F 73 30  ..#E..........s0
0460: 30 31 01 80 55 09 80 F0  FF FF 7F F0 FF FF 7F 73  01..U..........s
0470: 30 30 31 1C 1F 80 2B 01  90 0E 01 20 80 23 2B 01  001...+.... .#+.
0480: 90 0E 01 21 80 1C 22 80  27 03 01 90 0E 01 12 23  ...!..".'......#
0490: 45 09 80 F0 FF FF 7F F0  FF FF 7F 73 30 30 33 01  E..........s003.
04A0: 80 02 00 00 03 80 80 BC  04 2B 01 90 0E 01 23 80  .........+....#.
04B0: 23 2B 01 90 0E 01 24 80  23 01 D7 04 02 00 00 25  #+....$.#......%
04C0: 80 80 D7 04 2B 01 90 0E  01 26 80 23 2B 01 90 0E  ....+....&.#+...
04D0: 01 27 80 23 01 D7 04 55  09 80 F0 FF FF 7F F0 FF  .'.#...U........
04E0: FF 7F 73 30 30 33 27 03  01 90 0E 01 13 1C 08 80  ..s003'.........
04F0: 45 09 80 F0 FF FF 7F F0  FF FF 7F 73 30 30 32 01  E..........s002.
0500: 80 55 09 80 F0 FF FF 7F  F0 FF FF 7F 73 30 30 32  .U..........s002
0510: 2A 03 01 90 0E 01 2B 01  90 0E 01 28 80 23 45 09  *.....+....(.#E.
0520: 80 F0 FF FF 7F F0 FF FF  7F 73 30 30 31 01 80 55  .........s001..U
0530: 09 80 F0 FF FF 7F F0 FF  FF 7F 73 30 30 31 1C 06  ..........s001..
0540: 80 2B 01 90 0E 01 29 80  23 2B 01 90 0E 01 2A 80  .+....).#+....*.
0550: 23 27 03 F0 FF FF 7F 54  1C 0E 80 45 09 80 F0 FF  #'.....T...E....
0560: FF 7F F0 FF FF 7F 73 30  30 30 01 80 55 09 80 F0  ......s000..U...
0570: FF FF 7F F0 FF FF 7F 73  30 30 30 2A 03 F0 FF FF  .......s000*....
0580: 7F 2B 01 90 0E 01 2B 80  23 2B 01 90 0E 01 2C 80  .+....+.#+....,.
0590: 23 45 00 80 F0 FF FF 7F  F0 FF FF 7F 66 64 6F 32  #E..........fdo2
05A0: 01 80 55 00 80 F0 FF FF  7F F0 FF FF 7F 66 64 6F  ..U..........fdo
05B0: 32 5C 00 17 80 5C 01 17  80 46 00 45 00 80 F0 FF  2\...\...F.E....
05C0: FF 7F F0 FF FF 7F 66 64  69 32 01 80 21 00        ......fdi2..!.  
```

#### Opcodes

```
  0: 0x02E4 [0x03] ExtData[1]->WorkLocal[0] = Work_Zone[2]
  1: 0x02E9 [0x20] SET_CLI_EVENT_UC_FLAG: Lock player control
  2: 0x02EB [0x46] CAMERA_CONTROL: Disable user control
  3: 0x02ED [0x42] SET_CLI_EVENT_CANCEL_DATA()
  4: 0x02EE [0x45] LOAD_SCHEDULED_TASK: Load scheduler "fdo1" with entities [LocalPlayer, LocalPlayer], work=[200*, 0*]
  5: 0x02FF [0x55] WAIT_LOAD_SCHEDULER: Wait for scheduler "fdo1" with entities [LocalPlayer, LocalPlayer], work=200*
  6: 0x030E [0x38] SET_CLIENT_EVENT_MODE(mode=3*)
  7: 0x0311 [0x94] LocalPlayer->Render.Flags3 ^= 0x01
  8: 0x0317 [0x97] SAVE_SET_WIND_VALUES(wind_base=0x8001, wind_width=0x8003)
  9: 0x031C [0x45] LOAD_SCHEDULED_TASK: Load scheduler "q000" with entities [LocalPlayer, LocalPlayer], work=[133*, 0*]
 10: 0x032D [0x55] WAIT_LOAD_SCHEDULER: Wait for scheduler "q000" with entities [LocalPlayer, LocalPlayer], work=133*
 11: 0x033C [0x38] SET_CLIENT_EVENT_MODE(mode=3*)
 12: 0x033F [0x29] REQ_SET_WAIT(priority=0x03, entity_id=LocalPlayer, tag_num=0x29)
 13: 0x0346 [0x45] LOAD_SCHEDULED_TASK: Load scheduler "fdi1" with entities [LocalPlayer, LocalPlayer], work=[200*, 0*]
 14: 0x0357 [0x55] WAIT_LOAD_SCHEDULER: Wait for scheduler "fdi1" with entities [LocalPlayer, LocalPlayer], work=200*
 15: 0x0366 [0x4C] EventEntity->StatusEvent = 8 // Open door
 16: 0x0367 [0x1C] WAIT(120* ticks)
 17: 0x036A [0x45] LOAD_SCHEDULED_TASK: Load scheduler "q001" with entities [LocalPlayer, LocalPlayer], work=[133*, 0*]
 18: 0x037B [0x5D] SET_MUSIC_VOLUME(volume=0*, fade_time=300*)
 19: 0x0380 [0x27] REQ_SET(priority=0x04, entity_id=LocalPlayer, tag_num=0x2E)
 20: 0x0387 [0x27] REQ_SET(priority=0x05, entity_id=LocalPlayer, tag_num=0x53)
 21: 0x038E [0x1C] WAIT(120* ticks)
 22: 0x0391 [0x4D] EventEntity->StatusEvent = 9 // Close door
 23: 0x0392 [0x1C] WAIT(120* ticks)
 24: 0x0395 [0x55] WAIT_LOAD_SCHEDULER: Wait for scheduler "q001" with entities [LocalPlayer, LocalPlayer], work=133*
 25: 0x03A4 [0x45] LOAD_SCHEDULED_TASK: Load scheduler "q004" with entities [LocalPlayer, LocalPlayer], work=[133*, 0*]
 26: 0x03B5 [0x55] WAIT_LOAD_SCHEDULER: Wait for scheduler "q004" with entities [LocalPlayer, LocalPlayer], work=133*
 27: 0x03C4 [0x45] LOAD_SCHEDULED_TASK: Load scheduler "z003" with entities [LocalPlayer, LocalPlayer], work=[10*, 0*]
 28: 0x03D5 [0x55] WAIT_LOAD_SCHEDULER: Wait for scheduler "z003" with entities [LocalPlayer, LocalPlayer], work=10*
 29: 0x03E4 [0x1C] WAIT(60* ticks)
 30: 0x03E7 [0x45] LOAD_SCHEDULED_TASK: Load scheduler "z004" with entities [LocalPlayer, LocalPlayer], work=[10*, 0*]
 31: 0x03F8 [0x1C] WAIT(150* ticks)
 32: 0x03FB [0x55] WAIT_LOAD_SCHEDULER: Wait for scheduler "z004" with entities [LocalPlayer, LocalPlayer], work=10*
 33: 0x040A [0x5C] MUSIC_CONTROL: Set Idle (Day) music to song 127*
 34: 0x040E [0x5C] MUSIC_CONTROL: Set Idle (Night) music to song 127*
 35: 0x0412 [0x1C] WAIT(100* ticks)
 36: 0x0415 [0x2A] GET_REQ_LEVEL(level=5, entity_id=LocalPlayer)
 37: 0x041B [0x2B] Destin (ID: 17731585/0x010E9001) [8192*]:
    → "Hmmm..."
 38: 0x0422 [0x23] WAIT_FOR_DIALOG_INTERACTION
 39: 0x0423 [0x45] LOAD_SCHEDULED_TASK: Load scheduler "s000" with entities [LocalPlayer, LocalPlayer], work=[54*, 0*]
 40: 0x0434 [0x55] WAIT_LOAD_SCHEDULER: Wait for scheduler "s000" with entities [LocalPlayer, LocalPlayer], work=54*
 41: 0x0443 [0x2B] Destin (ID: 17731585/0x010E9001) [8193*]:
    → "So you are the adventurer known as <Player>. It has come to my attention that you wish to participate in our battle exercises."
 42: 0x044A [0x23] WAIT_FOR_DIALOG_INTERACTION
 43: 0x044B [0x2B] Destin (ID: 17731585/0x010E9001) [8194*]:
    → "Step closer and show me your face."
 44: 0x0452 [0x23] WAIT_FOR_DIALOG_INTERACTION
 45: 0x0453 [0x45] LOAD_SCHEDULED_TASK: Load scheduler "s001" with entities [LocalPlayer, LocalPlayer], work=[54*, 0*]
 46: 0x0464 [0x55] WAIT_LOAD_SCHEDULER: Wait for scheduler "s001" with entities [LocalPlayer, LocalPlayer], work=54*
 47: 0x0473 [0x1C] WAIT(90* ticks)
 48: 0x0476 [0x2B] Destin (ID: 17731585/0x010E9001) [8195*]:
    → "..."
 49: 0x047D [0x23] WAIT_FOR_DIALOG_INTERACTION
 50: 0x047E [0x2B] Destin (ID: 17731585/0x010E9001) [8196*]:
    → "Hah hah hah! You truly do not think you can defeat my legions of seasoned fighters, do you?"
 51: 0x0485 [0x1C] WAIT(20* ticks)
 52: 0x0488 [0x27] REQ_SET(priority=0x03, entity_id=Destin (ID: 17731585/0x010E9001), tag_num=0x12)
 53: 0x048F [0x23] WAIT_FOR_DIALOG_INTERACTION
 54: 0x0490 [0x45] LOAD_SCHEDULED_TASK: Load scheduler "s003" with entities [LocalPlayer, LocalPlayer], work=[54*, 0*]
 55: 0x04A1 [0x02] IF !(ExtData[1]->WorkLocal[0] == 1*) GOTO 0x04BC
 56: 0x04A9 [0x2B] Destin (ID: 17731585/0x010E9001) [8197*]:
    → "When I learned that adventurers from Bastok would be taking part in Conflict, I was looking forward to seeing what kind of brute warrior the Republic would send. But if this is all my Hume companions have to offer, I can be only more positive that the forces of San d'Oria will be victorious."
 57: 0x04B0 [0x23] WAIT_FOR_DIALOG_INTERACTION
 58: 0x04B1 [0x2B] Destin (ID: 17731585/0x010E9001) [8198*]:
    → "In recent years our two nations have been on amicable terms. However, I do not feel that any of my loyal citizens have forgotten what transpired in the Konschtat Highlands."
 59: 0x04B8 [0x23] WAIT_FOR_DIALOG_INTERACTION
 60: 0x04B9 [0x01] GOTO 0x04D7
 61: 0x04BC [0x02] IF !(ExtData[1]->WorkLocal[0] == 2*) GOTO 0x04D7
 62: 0x04C4 [0x2B] Destin (ID: 17731585/0x010E9001) [8199*]:
    → "When I learned that adventurers from Windurst would be taking part in Conflict, I was looking forward to seeing what kind of mighty sorcerer the Federation would send. But if this is all my Tarutaru companions have to offer, I can be only more positive that the forces of San d'Oria will be victorious."
 63: 0x04CB [0x23] WAIT_FOR_DIALOG_INTERACTION
 64: 0x04CC [0x2B] Destin (ID: 17731585/0x010E9001) [8200*]:
    → "In recent years San d'Oria and Windurst have been on amicable terms. However, I do not feel that any of my loyal citizens have forgotten the bitter history that stains our nations' past."
 65: 0x04D3 [0x23] WAIT_FOR_DIALOG_INTERACTION
 66: 0x04D4 [0x01] GOTO 0x04D7

SUBROUTINE_04D7:
 67: 0x04D7 [0x55] WAIT_LOAD_SCHEDULER: Wait for scheduler "s003" with entities [LocalPlayer, LocalPlayer], work=54*
 68: 0x04E6 [0x27] REQ_SET(priority=0x03, entity_id=Destin (ID: 17731585/0x010E9001), tag_num=0x13)
 69: 0x04ED [0x1C] WAIT(10* ticks)
 70: 0x04F0 [0x45] LOAD_SCHEDULED_TASK: Load scheduler "s002" with entities [LocalPlayer, LocalPlayer], work=[54*, 0*]
 71: 0x0501 [0x55] WAIT_LOAD_SCHEDULER: Wait for scheduler "s002" with entities [LocalPlayer, LocalPlayer], work=54*
 72: 0x0510 [0x2A] GET_REQ_LEVEL(level=3, entity_id=Destin (ID: 17731585/0x010E9001))
 73: 0x0516 [0x2B] Destin (ID: 17731585/0x010E9001) [8201*]:
    → "Ballista is the perfect opportunity to help erase the unwanted feelings of spite between us. But this does not mean my Kingdom's forces will show pity to their opponents. I will grant you the opportunity to withdraw your participation, if you wish."
 74: 0x051D [0x23] WAIT_FOR_DIALOG_INTERACTION
 75: 0x051E [0x45] LOAD_SCHEDULED_TASK: Load scheduler "s001" with entities [LocalPlayer, LocalPlayer], work=[54*, 0*]
 76: 0x052F [0x55] WAIT_LOAD_SCHEDULER: Wait for scheduler "s001" with entities [LocalPlayer, LocalPlayer], work=54*
 77: 0x053E [0x1C] WAIT(120* ticks)
 78: 0x0541 [0x2B] Destin (ID: 17731585/0x010E9001) [8202*]:
    → "...I see that you have already made up your mind."
 79: 0x0548 [0x23] WAIT_FOR_DIALOG_INTERACTION
 80: 0x0549 [0x2B] Destin (ID: 17731585/0x010E9001) [8203*]:
    → "Understood. Speak with Excenmille in Northern San d'Oria. There you will receive your Conflict registration."
 81: 0x0550 [0x23] WAIT_FOR_DIALOG_INTERACTION
 82: 0x0551 [0x27] REQ_SET(priority=0x03, entity_id=LocalPlayer, tag_num=0x54)
 83: 0x0558 [0x1C] WAIT(30* ticks)
 84: 0x055B [0x45] LOAD_SCHEDULED_TASK: Load scheduler "s000" with entities [LocalPlayer, LocalPlayer], work=[54*, 0*]
 85: 0x056C [0x55] WAIT_LOAD_SCHEDULER: Wait for scheduler "s000" with entities [LocalPlayer, LocalPlayer], work=54*
 86: 0x057B [0x2A] GET_REQ_LEVEL(level=3, entity_id=LocalPlayer)
 87: 0x0581 [0x2B] Destin (ID: 17731585/0x010E9001) [8204*]:
    → "You may have had success in previous battles, but the road that lies ahead is like nothing you have traveled before. Clear your heart and cast off all inhibitions, and you will go far."
 88: 0x0588 [0x23] WAIT_FOR_DIALOG_INTERACTION
 89: 0x0589 [0x2B] Destin (ID: 17731585/0x010E9001) [8205*]:
    → "I wish you and your nation luck, <Player>."
 90: 0x0590 [0x23] WAIT_FOR_DIALOG_INTERACTION
 91: 0x0591 [0x45] LOAD_SCHEDULED_TASK: Load scheduler "fdo2" with entities [LocalPlayer, LocalPlayer], work=[200*, 0*]
 92: 0x05A2 [0x55] WAIT_LOAD_SCHEDULER: Wait for scheduler "fdo2" with entities [LocalPlayer, LocalPlayer], work=200*
 93: 0x05B1 [0x5C] MUSIC_CONTROL: Set Idle (Day) music to song 156*
 94: 0x05B5 [0x5C] MUSIC_CONTROL: Set Idle (Night) music to song 156*
 95: 0x05B9 [0x46] CAMERA_CONTROL: Restore default settings
 96: 0x05BB [0x45] LOAD_SCHEDULED_TASK: Load scheduler "fdi2" with entities [LocalPlayer, LocalPlayer], work=[200*, 0*]
 97: 0x05CC [0x21] END_EVENT
 98: 0x05CD [0x00] END_REQSTACK()
```

### Event 10

#### Metadata

| Field        | Value   |
|--------------|---------|
| Entrypoint   | 0x05CE  |
| Data Size    | 1 bytes |
| Instructions | 1       |

```
      00 01 02 03 04 05 06 07  08 09 0A 0B 0C 0D 0E 0F
      -- -- -- -- -- -- -- --  -- -- -- -- -- -- -- --
05C0:                                            00                   . 
```

#### Opcodes

```
  0: 0x05CE [0x00] END_REQSTACK()
```

### Event 8

#### Metadata

| Field        | Value      |
|--------------|------------|
| Entrypoint   | 0x05CF     |
| Data Size    | 2592 bytes |
| Instructions | 319        |

```
      00 01 02 03 04 05 06 07  08 09 0A 0B 0C 0D 0E 0F
      -- -- -- -- -- -- -- --  -- -- -- -- -- -- -- --
05C0:                                               20                  
05D0: 01 46 01 42 45 00 80 F0  FF FF 7F F0 FF FF 7F 66  .F.BE..........f
05E0: 64 6F 31 01 80 55 00 80  F0 FF FF 7F F0 FF FF 7F  do1..U..........
05F0: 66 64 6F 31 94 01 F8 FF  FF 7F 92 01 49 90 0E 01  fdo1........I...
0600: 92 01 4A 90 0E 01 92 01  4B 90 0E 01 92 01 4C 90  ..J.....K.....L.
0610: 0E 01 4E 00 03 90 0E 01  4E 00 05 90 0E 01 79 00  ..N.....N.....y.
0620: F0 FF FF 7F F0 FF FF 7F  7B F0 FF FF 7F 79 00 05  ........{....y..
0630: 90 0E 01 F0 FF FF 7F 45  18 80 F0 FF FF 7F F0 FF  .......E........
0640: FF 7F 71 30 30 30 01 80  55 18 80 F0 FF FF 7F F0  ..q000..U.......
0650: FF FF 7F 71 30 30 30 38  02 80 29 03 F0 FF FF 7F  ...q0008..).....
0660: 29 45 00 80 F0 FF FF 7F  F0 FF FF 7F 66 64 69 31  )E..........fdi1
0670: 01 80 55 00 80 F0 FF FF  7F F0 FF FF 7F 66 64 69  ..U..........fdi
0680: 31 4C 1C 06 80 45 18 80  03 90 0E 01 03 90 0E 01  1L...E..........
0690: 71 30 30 31 01 80 27 04  F0 FF FF 7F 2D 27 05 F0  q001..'.....-'..
06A0: FF FF 7F 53 1C 2D 80 4D  55 18 80 03 90 0E 01 03  ...S.-.MU.......
06B0: 90 0E 01 71 30 30 31 1C  2E 80 45 18 80 F0 FF FF  ...q001...E.....
06C0: 7F F0 FF FF 7F 71 30 30  34 01 80 55 18 80 F0 FF  .....q004..U....
06D0: FF 7F F0 FF FF 7F 71 30  30 34 45 08 80 F0 FF FF  ......q004E.....
06E0: 7F F0 FF FF 7F 7A 30 30  33 01 80 55 08 80 F0 FF  .....z003..U....
06F0: FF 7F F0 FF FF 7F 7A 30  30 33 1C 0F 80 5D 01 80  ......z003...]..
0700: 2F 80 45 08 80 F0 FF FF  7F F0 FF FF 7F 7A 30 30  /.E..........z00
0710: 34 01 80 1C 05 80 55 08  80 F0 FF FF 7F F0 FF FF  4.....U.........
0720: 7F 7A 30 30 34 1C 1B 80  2A 05 F0 FF FF 7F 45 00  .z004...*.....E.
0730: 80 F8 FF FF 7F F8 FF FF  7F 6F 76 6C 31 01 80 45  .........ovl1..E
0740: 30 80 F0 FF FF 7F F0 FF  FF 7F 78 30 30 30 01 80  0.........x000..
0750: 2B 01 90 0E 01 31 80 23  55 30 80 F0 FF FF 7F F0  +....1.#U0......
0760: FF FF 7F 78 30 30 30 45  30 80 F0 FF FF 7F F0 FF  ...x000E0.......
0770: FF 7F 78 30 30 61 01 80  55 30 80 F0 FF FF 7F F0  ..x00a..U0......
0780: FF FF 7F 78 30 30 61 27  03 01 90 0E 01 10 2B 01  ...x00a'......+.
0790: 90 0E 01 32 80 23 27 03  01 90 0E 01 11 4E 00 42  ...2.#'......N.B
07A0: 90 0E 01 4E 00 06 90 0E  01 80 42 90 0E 01 80 06  ...N......B.....
07B0: 90 0E 01 5D 01 80 05 80  45 30 80 F0 FF FF 7F F0  ...]....E0......
07C0: FF FF 7F 78 30 30 31 01  80 1C 0E 80 27 03 42 90  ...x001.....'.B.
07D0: 0E 01 03 27 03 06 90 0E  01 03 1C 0E 80 27 03 F0  ...'.........'..
07E0: FF FF 7F 54 5C 00 33 80  5C 01 33 80 2B 42 90 0E  ...T\.3.\.3.+B..
07F0: 01 34 80 55 30 80 F0 FF  FF 7F F0 FF FF 7F 78 30  .4.U0.........x0
0800: 30 31 1C 0E 80 79 00 03  90 0E 01 42 90 0E 01 79  01...y.....B...y
0810: 00 05 90 0E 01 42 90 0E  01 2A 03 F0 FF FF 7F 4A  .....B...*.....J
0820: F0 FF FF 7F 42 90 0E 01  6F 76 F0 FF FF 7F 27 03  ....B...ov....'.
0830: 42 90 0E 01 04 1C 0E 80  27 03 06 90 0E 01 04 1C  B.......'.......
0840: 0F 80 27 03 F0 FF FF 7F  30 1C 2D 80 45 30 80 F0  ..'.....0.-.E0..
0850: FF FF 7F F0 FF FF 7F 78  30 30 32 01 80 2A 03 42  .......x002..*.B
0860: 90 0E 01 55 30 80 F0 FF  FF 7F F0 FF FF 7F 78 30  ...U0.........x0
0870: 30 32 27 03 42 90 0E 01  11 1C 08 80 45 30 80 F0  02'.B.......E0..
0880: FF FF 7F F0 FF FF 7F 78  30 30 33 01 80 23 27 03  .......x003..#'.
0890: 01 90 0E 01 10 2B 01 90  0E 01 35 80 2A 03 42 90  .....+....5.*.B.
08A0: 0E 01 4A 06 90 0E 01 42  90 0E 01 55 30 80 F0 FF  ..J....B...U0...
08B0: FF 7F F0 FF FF 7F 78 30  30 33 23 27 03 01 90 0E  ......x003#'....
08C0: 01 11 2B 42 90 0E 01 36  80 23 1C 0E 80 45 30 80  ..+B...6.#...E0.
08D0: F0 FF FF 7F F0 FF FF 7F  78 30 30 62 01 80 55 30  ........x00b..U0
08E0: 80 F0 FF FF 7F F0 FF FF  7F 78 30 30 62 1C 0E 80  .........x00b...
08F0: 2B 42 90 0E 01 37 80 23  2B 01 90 0E 01 38 80 23  +B...7.#+....8.#
0900: 2B 42 90 0E 01 39 80 23  45 30 80 F0 FF FF 7F F0  +B...9.#E0......
0910: FF FF 7F 78 30 30 34 01  80 55 30 80 F0 FF FF 7F  ...x004..U0.....
0920: F0 FF FF 7F 78 30 30 34  29 03 01 90 0E 01 10 2B  ....x004)......+
0930: 01 90 0E 01 3A 80 23 27  03 01 90 0E 01 11 27 03  ....:.#'......'.
0940: 42 90 0E 01 12 1C 08 80  45 30 80 F0 FF FF 7F F0  B.......E0......
0950: FF FF 7F 78 30 30 35 01  80 2B 42 90 0E 01 3B 80  ...x005..+B...;.
0960: 23 2A 03 42 90 0E 01 55  30 80 F0 FF FF 7F F0 FF  #*.B...U0.......
0970: FF 7F 78 30 30 35 27 03  42 90 0E 01 0D 2B 42 90  ..x005'.B....+B.
0980: 0E 01 3C 80 23 29 04 42  90 0E 01 0E 45 30 80 F0  ..<.#).B....E0..
0990: FF FF 7F F0 FF FF 7F 78  30 30 63 01 80 55 30 80  .......x00c..U0.
09A0: F0 FF FF 7F F0 FF FF 7F  78 30 30 63 27 03 06 90  ........x00c'...
09B0: 0E 01 2C 2B 06 90 0E 01  3D 80 23 45 30 80 F0 FF  ..,+....=.#E0...
09C0: FF 7F F0 FF FF 7F 78 30  30 36 01 80 55 30 80 F0  ......x006..U0..
09D0: FF FF 7F F0 FF FF 7F 78  30 30 36 2B 42 90 0E 01  .......x006+B...
09E0: 3E 80 23 45 30 80 F0 FF  FF 7F F0 FF FF 7F 78 30  >.#E0.........x0
09F0: 30 37 01 80 55 30 80 F0  FF FF 7F F0 FF FF 7F 78  07..U0.........x
0A00: 30 30 37 27 03 06 90 0E  01 2D 2B 06 90 0E 01 3F  007'.....-+....?
0A10: 80 23 1C 0E 80 45 30 80  F0 FF FF 7F F0 FF FF 7F  .#...E0.........
0A20: 78 30 30 64 01 80 55 30  80 F0 FF FF 7F F0 FF FF  x00d..U0........
0A30: 7F 78 30 30 64 2B 42 90  0E 01 40 80 23 5D 01 80  .x00d+B...@.#]..
0A40: 05 80 45 30 80 F0 FF FF  7F F0 FF FF 7F 78 30 30  ..E0.........x00
0A50: 38 01 80 1C 1F 80 2B 42  90 0E 01 41 80 1C 0F 80  8.....+B...A....
0A60: 45 00 80 F0 FF FF 7F F0  FF FF 7F 66 64 6F 31 01  E..........fdo1.
0A70: 80 55 00 80 F0 FF FF 7F  F0 FF FF 7F 66 64 6F 31  .U..........fdo1
0A80: 23 52 30 80 F0 FF FF 7F  F0 FF FF 7F 78 30 30 38  #R0.........x008
0A90: 5C 00 42 80 5C 01 42 80  9A 34 1B 80 1C 1B 80 45  \.B.\.B..4.....E
0AA0: 30 80 F0 FF FF 7F F0 FF  FF 7F 77 30 30 30 01 80  0.........w000..
0AB0: 55 30 80 F0 FF FF 7F F0  FF FF 7F 77 30 30 30 77  U0.........w000w
0AC0: 43 80 01 80 4E 00 49 90  0E 01 4E 00 4A 90 0E 01  C...N.I...N.J...
0AD0: 4E 00 4B 90 0E 01 4E 00  4C 90 0E 01 45 30 80 F0  N.K...N.L...E0..
0AE0: FF FF 7F F0 FF FF 7F 77  30 30 31 01 80 45 00 80  .......w001..E..
0AF0: F0 FF FF 7F F0 FF FF 7F  66 64 69 31 01 80 55 00  ........fdi1..U.
0B00: 80 F0 FF FF 7F F0 FF FF  7F 66 64 69 31 2B 42 90  .........fdi1+B.
0B10: 0E 01 44 80 23 55 30 80  F0 FF FF 7F F0 FF FF 7F  ..D.#U0.........
0B20: 77 30 30 31 45 00 80 F8  FF FF 7F F8 FF FF 7F 6F  w001E..........o
0B30: 76 6C 31 01 80 45 30 80  F0 FF FF 7F F0 FF FF 7F  vl1..E0.........
0B40: 77 30 30 32 01 80 2B 42  90 0E 01 45 80 1C 19 80  w002..+B...E....
0B50: 45 00 80 F0 FF FF 7F F0  FF FF 7F 66 64 6F 31 01  E..........fdo1.
0B60: 80 55 00 80 F0 FF FF 7F  F0 FF FF 7F 66 64 6F 31  .U..........fdo1
0B70: 23 27 03 49 90 0E 01 02  27 03 4A 90 0E 01 02 27  #'.I....'.J....'
0B80: 03 4B 90 0E 01 02 27 03  4C 90 0E 01 02 1C 08 80  .K....'.L.......
0B90: 55 30 80 F0 FF FF 7F F0  FF FF 7F 77 30 30 32 45  U0.........w002E
0BA0: 00 80 F0 FF FF 7F F0 FF  FF 7F 66 64 69 31 01 80  ..........fdi1..
0BB0: 45 00 80 F8 FF FF 7F F8  FF FF 7F 6F 76 6C 31 01  E..........ovl1.
0BC0: 80 45 30 80 F0 FF FF 7F  F0 FF FF 7F 77 30 30 33  .E0.........w003
0BD0: 01 80 2B 42 90 0E 01 46  80 1C 47 80 45 48 80 F8  ..+B...F..G.EH..
0BE0: FF FF 7F F8 FF FF 7F 77  68 6F 31 01 80 55 48 80  .......who1..UH.
0BF0: F8 FF FF 7F F8 FF FF 7F  77 68 6F 31 55 30 80 F0  ........who1U0..
0C00: FF FF 7F F0 FF FF 7F 77  30 30 33 23 2B 42 90 0E  .......w003#+B..
0C10: 01 49 80 23 34 4A 80 1C  1B 80 77 4B 80 01 80 45  .I.#4J....wK...E
0C20: 30 80 F0 FF FF 7F F0 FF  FF 7F 77 30 30 35 01 80  0.........w005..
0C30: 55 30 80 F0 FF FF 7F F0  FF FF 7F 77 30 30 35 45  U0.........w005E
0C40: 48 80 F8 FF FF 7F F8 FF  FF 7F 77 68 69 31 01 80  H.........whi1..
0C50: 55 48 80 F8 FF FF 7F F8  FF FF 7F 77 68 69 31 45  UH.........whi1E
0C60: 30 80 F0 FF FF 7F F0 FF  FF 7F 77 30 30 36 01 80  0.........w006..
0C70: 1C 1B 80 2B 42 90 0E 01  4C 80 1C 0F 80 23 2B 42  ...+B...L....#+B
0C80: 90 0E 01 4D 80 1C 00 80  23 52 30 80 F0 FF FF 7F  ...M....#R0.....
0C90: F0 FF FF 7F 77 30 30 36  45 00 80 F8 FF FF 7F F8  ....w006E.......
0CA0: FF FF 7F 6F 76 6C 31 01  80 45 30 80 F0 FF FF 7F  ...ovl1..E0.....
0CB0: F0 FF FF 7F 77 30 30 37  01 80 1C 1B 80 2B 42 90  ....w007.....+B.
0CC0: 0E 01 4E 80 1C 1B 80 23  55 30 80 F0 FF FF 7F F0  ..N....#U0......
0CD0: FF FF 7F 77 30 30 37 45  48 80 F8 FF FF 7F F8 FF  ...w007EH.......
0CE0: FF 7F 77 68 6F 31 01 80  55 48 80 F8 FF FF 7F F8  ..who1..UH......
0CF0: FF FF 7F 77 68 6F 31 35  4F 80 1C 1B 80 78 45 30  ...who15O....xE0
0D00: 80 F0 FF FF 7F F0 FF FF  7F 78 30 30 39 01 80 55  .........x009..U
0D10: 30 80 F0 FF FF 7F F0 FF  FF 7F 78 30 30 39 80 03  0.........x009..
0D20: 90 0E 01 80 05 90 0E 01  80 06 90 0E 01 80 42 90  ..............B.
0D30: 0E 01 80 01 90 0E 01 80  F0 FF FF 7F 27 03 03 90  ............'...
0D40: 0E 01 0A 27 03 05 90 0E  01 19 27 03 06 90 0E 01  ...'......'.....
0D50: 07 27 03 42 90 0E 01 05  27 03 01 90 0E 01 0C 27  .'.B....'......'
0D60: 03 02 90 0E 01 03 27 03  F0 FF FF 7F 31 2A 03 03  ......'.....1*..
0D70: 90 0E 01 2A 03 05 90 0E  01 2A 03 06 90 0E 01 2A  ...*.....*.....*
0D80: 03 42 90 0E 01 2A 03 01  90 0E 01 2A 03 02 90 0E  .B...*.....*....
0D90: 01 2A 03 F0 FF FF 7F 45  48 80 F0 FF FF 7F F0 FF  .*.....EH.......
0DA0: FF 7F 77 68 69 31 01 80  55 48 80 F0 FF FF 7F F0  ..whi1..UH......
0DB0: FF FF 7F 77 68 69 31 2B  42 90 0E 01 50 80 23 45  ...whi1+B...P.#E
0DC0: 30 80 F0 FF FF 7F F0 FF  FF 7F 78 30 31 30 01 80  0.........x010..
0DD0: 1C 0F 80 2B 42 90 0E 01  51 80 1C 0F 80 23 2B 42  ...+B...Q....#+B
0DE0: 90 0E 01 52 80 23 55 30  80 F0 FF FF 7F F0 FF FF  ...R.#U0........
0DF0: 7F 78 30 31 30 45 30 80  F0 FF FF 7F F0 FF FF 7F  .x010E0.........
0E00: 78 30 31 31 01 80 2B 03  90 0E 01 53 80 1C 2F 80  x011..+....S../.
0E10: 23 2B 05 90 0E 01 54 80  23 55 30 80 F0 FF FF 7F  #+....T.#U0.....
0E20: F0 FF FF 7F 78 30 31 31  45 30 80 F0 FF FF 7F F0  ....x011E0......
0E30: FF FF 7F 78 30 31 32 01  80 55 30 80 F0 FF FF 7F  ...x012..U0.....
0E40: F0 FF FF 7F 78 30 31 32  1C 08 80 2B 05 90 0E 01  ....x012...+....
0E50: 55 80 23 79 00 42 90 0E  01 05 90 0E 01 45 30 80  U.#y.B.......E0.
0E60: F0 FF FF 7F F0 FF FF 7F  78 30 31 33 01 80 1C 1F  ........x013....
0E70: 80 4E 01 01 90 0E 01 4E  00 02 90 0E 01 2B 42 90  .N.....N.....+B.
0E80: 0E 01 56 80 23 55 30 80  F0 FF FF 7F F0 FF FF 7F  ..V.#U0.........
0E90: 78 30 31 33 45 30 80 F0  FF FF 7F F0 FF FF 7F 78  x013E0.........x
0EA0: 30 31 34 01 80 79 00 42  90 0E 01 02 90 0E 01 1C  014..y.B........
0EB0: 1F 80 27 03 02 90 0E 01  19 2B 01 90 0E 01 57 80  ..'......+....W.
0EC0: 23 29 04 02 90 0E 01 1A  55 30 80 F0 FF FF 7F F0  #)......U0......
0ED0: FF FF 7F 78 30 31 34 45  30 80 F0 FF FF 7F F0 FF  ...x014E0.......
0EE0: FF 7F 78 30 31 35 01 80  55 30 80 F0 FF FF 7F F0  ..x015..U0......
0EF0: FF FF 7F 78 30 31 35 27  03 42 90 0E 01 0D 2B 42  ...x015'.B....+B
0F00: 90 0E 01 58 80 23 27 03  42 90 0E 01 0E 2B 42 90  ...X.#'.B....+B.
0F10: 0E 01 59 80 23 2A 03 42  90 0E 01 2B 01 90 0E 01  ..Y.#*.B...+....
0F20: 5A 80 23 4A 02 90 0E 01  F0 FF FF 7F 1C 5B 80 45  Z.#J.........[.E
0F30: 30 80 F0 FF FF 7F F0 FF  FF 7F 78 30 31 36 01 80  0.........x016..
0F40: 4A F0 FF FF 7F 02 90 0E  01 4A 42 90 0E 01 F0 FF  J........JB.....
0F50: FF 7F 4A 03 90 0E 01 F0  FF FF 7F 4A 05 90 0E 01  ..J........J....
0F60: F0 FF FF 7F 55 30 80 F0  FF FF 7F F0 FF FF 7F 78  ....U0.........x
0F70: 30 31 36 6F 76 02 90 0E  01 4A 06 90 0E 01 F0 FF  016ov....J......
0F80: FF 7F 2B 01 90 0E 01 5C  80 23 45 30 80 F0 FF FF  ..+....\.#E0....
0F90: 7F F0 FF FF 7F 78 30 31  37 01 80 55 30 80 F0 FF  .....x017..U0...
0FA0: FF 7F F0 FF FF 7F 78 30  31 37 2B 01 90 0E 01 5D  ......x017+....]
0FB0: 80 23 45 00 80 F0 FF FF  7F F0 FF FF 7F 66 64 6F  .#E..........fdo
0FC0: 32 01 80 55 00 80 F0 FF  FF 7F F0 FF FF 7F 66 64  2..U..........fd
0FD0: 6F 32 5C 00 17 80 5C 01  17 80 46 00 45 00 80 F0  o2\...\...F.E...
0FE0: FF FF 7F F0 FF FF 7F 66  64 69 32 01 80 21 00     .......fdi2..!. 
```

#### Opcodes

```
  0: 0x05CF [0x20] SET_CLI_EVENT_UC_FLAG: Lock player control
  1: 0x05D1 [0x46] CAMERA_CONTROL: Disable user control
  2: 0x05D3 [0x42] SET_CLI_EVENT_CANCEL_DATA()
  3: 0x05D4 [0x45] LOAD_SCHEDULED_TASK: Load scheduler "fdo1" with entities [LocalPlayer, LocalPlayer], work=[200*, 0*]
  4: 0x05E5 [0x55] WAIT_LOAD_SCHEDULER: Wait for scheduler "fdo1" with entities [LocalPlayer, LocalPlayer], work=200*
  5: 0x05F4 [0x94] EventEntity->Render.Flags3 ^= 0x01
  6: 0x05FA [0x92] 1 (ID: 17731657/0x010E9049)->Render.Flags3 ^= 0x01
  7: 0x0600 [0x92] 2 (ID: 17731658/0x010E904A)->Render.Flags3 ^= 0x01
  8: 0x0606 [0x92] 3 (ID: 17731659/0x010E904B)->Render.Flags3 ^= 0x01
  9: 0x060C [0x92] 4 (ID: 17731660/0x010E904C)->Render.Flags3 ^= 0x01
 10: 0x0612 [0x4E] SET_ENTITY_HIDE_FLAG: Show Trion (ID: 17731587/0x010E9003)
 11: 0x0618 [0x4E] SET_ENTITY_HIDE_FLAG: Show Pieuje (ID: 17731589/0x010E9005)
 12: 0x061E [0x79] LocalPlayer looks at LocalPlayer (Basic look)
 13: 0x0628 [0x7B] LocalPlayer stops talking
 14: 0x062D [0x79] Pieuje (ID: 17731589/0x010E9005) looks at LocalPlayer (Basic look)
 15: 0x0637 [0x45] LOAD_SCHEDULED_TASK: Load scheduler "q000" with entities [LocalPlayer, LocalPlayer], work=[133*, 0*]
 16: 0x0648 [0x55] WAIT_LOAD_SCHEDULER: Wait for scheduler "q000" with entities [LocalPlayer, LocalPlayer], work=133*
 17: 0x0657 [0x38] SET_CLIENT_EVENT_MODE(mode=3*)
 18: 0x065A [0x29] REQ_SET_WAIT(priority=0x03, entity_id=LocalPlayer, tag_num=0x29)
 19: 0x0661 [0x45] LOAD_SCHEDULED_TASK: Load scheduler "fdi1" with entities [LocalPlayer, LocalPlayer], work=[200*, 0*]
 20: 0x0672 [0x55] WAIT_LOAD_SCHEDULER: Wait for scheduler "fdi1" with entities [LocalPlayer, LocalPlayer], work=200*
 21: 0x0681 [0x4C] EventEntity->StatusEvent = 8 // Open door
 22: 0x0682 [0x1C] WAIT(120* ticks)
 23: 0x0685 [0x45] LOAD_SCHEDULED_TASK: Load scheduler "q001" with entities [Trion (ID: 17731587/0x010E9003), Trion (ID: 17731587/0x010E9003)], work=[133*, 0*]
 24: 0x0696 [0x27] REQ_SET(priority=0x04, entity_id=LocalPlayer, tag_num=0x2D)
 25: 0x069D [0x27] REQ_SET(priority=0x05, entity_id=LocalPlayer, tag_num=0x53)
 26: 0x06A4 [0x1C] WAIT(140* ticks)
 27: 0x06A7 [0x4D] EventEntity->StatusEvent = 9 // Close door
 28: 0x06A8 [0x55] WAIT_LOAD_SCHEDULER: Wait for scheduler "q001" with entities [Trion (ID: 17731587/0x010E9003), Trion (ID: 17731587/0x010E9003)], work=133*
 29: 0x06B7 [0x1C] WAIT(50* ticks)
 30: 0x06BA [0x45] LOAD_SCHEDULED_TASK: Load scheduler "q004" with entities [LocalPlayer, LocalPlayer], work=[133*, 0*]
 31: 0x06CB [0x55] WAIT_LOAD_SCHEDULER: Wait for scheduler "q004" with entities [LocalPlayer, LocalPlayer], work=133*
 32: 0x06DA [0x45] LOAD_SCHEDULED_TASK: Load scheduler "z003" with entities [LocalPlayer, LocalPlayer], work=[10*, 0*]
 33: 0x06EB [0x55] WAIT_LOAD_SCHEDULER: Wait for scheduler "z003" with entities [LocalPlayer, LocalPlayer], work=10*
 34: 0x06FA [0x1C] WAIT(60* ticks)
 35: 0x06FD [0x5D] SET_MUSIC_VOLUME(volume=0*, fade_time=180*)
 36: 0x0702 [0x45] LOAD_SCHEDULED_TASK: Load scheduler "z004" with entities [LocalPlayer, LocalPlayer], work=[10*, 0*]
 37: 0x0713 [0x1C] WAIT(150* ticks)
 38: 0x0716 [0x55] WAIT_LOAD_SCHEDULER: Wait for scheduler "z004" with entities [LocalPlayer, LocalPlayer], work=10*
 39: 0x0725 [0x1C] WAIT(100* ticks)
 40: 0x0728 [0x2A] GET_REQ_LEVEL(level=5, entity_id=LocalPlayer)
 41: 0x072E [0x45] LOAD_SCHEDULED_TASK: Load scheduler "ovl1" with entities [EventEntity, EventEntity], work=[200*, 0*]
 42: 0x073F [0x45] LOAD_SCHEDULED_TASK: Load scheduler "x000" with entities [LocalPlayer, LocalPlayer], work=[8*, 0*]
 43: 0x0750 [0x2B] Destin (ID: 17731585/0x010E9001) [7810*]:
    → "I have heard of your valiant efforts from my son. It would not be an understatement to say that your repeated bravery has helped maintain peace throughout the Kingdom."
 44: 0x0757 [0x23] WAIT_FOR_DIALOG_INTERACTION
 45: 0x0758 [0x55] WAIT_LOAD_SCHEDULER: Wait for scheduler "x000" with entities [LocalPlayer, LocalPlayer], work=8*
 46: 0x0767 [0x45] LOAD_SCHEDULED_TASK: Load scheduler "x00a" with entities [LocalPlayer, LocalPlayer], work=[8*, 0*]
 47: 0x0778 [0x55] WAIT_LOAD_SCHEDULER: Wait for scheduler "x00a" with entities [LocalPlayer, LocalPlayer], work=8*
 48: 0x0787 [0x27] REQ_SET(priority=0x03, entity_id=Destin (ID: 17731585/0x010E9001), tag_num=0x10)
 49: 0x078E [0x2B] Destin (ID: 17731585/0x010E9001) [7811*]:
    → "As for Lightbringer, as long as Rochefogne remains unconscious..."
 50: 0x0795 [0x23] WAIT_FOR_DIALOG_INTERACTION
 51: 0x0796 [0x27] REQ_SET(priority=0x03, entity_id=Destin (ID: 17731585/0x010E9001), tag_num=0x11)
 52: 0x079D [0x4E] SET_ENTITY_HIDE_FLAG: Show Rochefogne (ID: 17731650/0x010E9042)
 53: 0x07A3 [0x4E] SET_ENTITY_HIDE_FLAG: Show Claidie (ID: 17731590/0x010E9006)
 54: 0x07A9 [0x80] LOAD_WAIT(entity=Rochefogne (ID: 17731650/0x010E9042))
 55: 0x07AE [0x80] LOAD_WAIT(entity=Claidie (ID: 17731590/0x010E9006))
 56: 0x07B3 [0x5D] SET_MUSIC_VOLUME(volume=0*, fade_time=150*)
 57: 0x07B8 [0x45] LOAD_SCHEDULED_TASK: Load scheduler "x001" with entities [LocalPlayer, LocalPlayer], work=[8*, 0*]
 58: 0x07C9 [0x1C] WAIT(30* ticks)
 59: 0x07CC [0x27] REQ_SET(priority=0x03, entity_id=Rochefogne (ID: 17731650/0x010E9042), tag_num=0x03)
 60: 0x07D3 [0x27] REQ_SET(priority=0x03, entity_id=Claidie (ID: 17731590/0x010E9006), tag_num=0x03)
 61: 0x07DA [0x1C] WAIT(30* ticks)
 62: 0x07DD [0x27] REQ_SET(priority=0x03, entity_id=LocalPlayer, tag_num=0x54)
 63: 0x07E4 [0x5C] MUSIC_CONTROL: Set Idle (Day) music to song 124*
 64: 0x07E8 [0x5C] MUSIC_CONTROL: Set Idle (Night) music to song 124*
 65: 0x07EC [0x2B] Rochefogne (ID: 17731650/0x010E9042) [7812*]:
    → "Your Highness!"
 66: 0x07F3 [0x55] WAIT_LOAD_SCHEDULER: Wait for scheduler "x001" with entities [LocalPlayer, LocalPlayer], work=8*
 67: 0x0802 [0x1C] WAIT(30* ticks)
 68: 0x0805 [0x79] Trion (ID: 17731587/0x010E9003) looks at Rochefogne (ID: 17731650/0x010E9042) (Basic look)
 69: 0x080F [0x79] Pieuje (ID: 17731589/0x010E9005) looks at Rochefogne (ID: 17731650/0x010E9042) (Basic look)
 70: 0x0819 [0x2A] GET_REQ_LEVEL(level=3, entity_id=LocalPlayer)
 71: 0x081F [0x4A] LocalPlayer looks at Rochefogne (ID: 17731650/0x010E9042)
 72: 0x0828 [0x6F] WAIT_FRAME_DELAY: Yield until WaitTime reaches zero
 73: 0x0829 [0x76] CHECK_ENTITY_RENDER_FLAGS: Wait until LocalPlayer Render.Flags0 and Render.Flags3 conditions are met
 74: 0x082E [0x27] REQ_SET(priority=0x03, entity_id=Rochefogne (ID: 17731650/0x010E9042), tag_num=0x04)
 75: 0x0835 [0x1C] WAIT(30* ticks)
 76: 0x0838 [0x27] REQ_SET(priority=0x03, entity_id=Claidie (ID: 17731590/0x010E9006), tag_num=0x04)
 77: 0x083F [0x1C] WAIT(60* ticks)
 78: 0x0842 [0x27] REQ_SET(priority=0x03, entity_id=LocalPlayer, tag_num=0x30)
 79: 0x0849 [0x1C] WAIT(140* ticks)
 80: 0x084C [0x45] LOAD_SCHEDULED_TASK: Load scheduler "x002" with entities [LocalPlayer, LocalPlayer], work=[8*, 0*]
 81: 0x085D [0x2A] GET_REQ_LEVEL(level=3, entity_id=Rochefogne (ID: 17731650/0x010E9042))
 82: 0x0863 [0x55] WAIT_LOAD_SCHEDULER: Wait for scheduler "x002" with entities [LocalPlayer, LocalPlayer], work=8*
 83: 0x0872 [0x27] REQ_SET(priority=0x03, entity_id=Rochefogne (ID: 17731650/0x010E9042), tag_num=0x11)
 84: 0x0879 [0x1C] WAIT(10* ticks)
 85: 0x087C [0x45] LOAD_SCHEDULED_TASK: Load scheduler "x003" with entities [LocalPlayer, LocalPlayer], work=[8*, 0*]
 86: 0x088D [0x23] WAIT_FOR_DIALOG_INTERACTION
 87: 0x088E [0x27] REQ_SET(priority=0x03, entity_id=Destin (ID: 17731585/0x010E9001), tag_num=0x10)
 88: 0x0895 [0x2B] Destin (ID: 17731585/0x010E9001) [7813*]:
    → "Ah, Rochefogne. Claidie has kept me informed on your condition. How are you feeling?"
 89: 0x089C [0x2A] GET_REQ_LEVEL(level=3, entity_id=Rochefogne (ID: 17731650/0x010E9042))
 90: 0x08A2 [0x4A] Claidie (ID: 17731590/0x010E9006) looks at Rochefogne (ID: 17731650/0x010E9042)
 91: 0x08AB [0x55] WAIT_LOAD_SCHEDULER: Wait for scheduler "x003" with entities [LocalPlayer, LocalPlayer], work=8*
 92: 0x08BA [0x23] WAIT_FOR_DIALOG_INTERACTION
 93: 0x08BB [0x27] REQ_SET(priority=0x03, entity_id=Destin (ID: 17731585/0x010E9001), tag_num=0x11)
 94: 0x08C2 [0x2B] Rochefogne (ID: 17731650/0x010E9042) [7814*]:
    → "I am in debt to your fine daughter for all she has done for me."
 95: 0x08C9 [0x23] WAIT_FOR_DIALOG_INTERACTION
 96: 0x08CA [0x1C] WAIT(30* ticks)
 97: 0x08CD [0x45] LOAD_SCHEDULED_TASK: Load scheduler "x00b" with entities [LocalPlayer, LocalPlayer], work=[8*, 0*]
 98: 0x08DE [0x55] WAIT_LOAD_SCHEDULER: Wait for scheduler "x00b" with entities [LocalPlayer, LocalPlayer], work=8*
 99: 0x08ED [0x1C] WAIT(30* ticks)
100: 0x08F0 [0x2B] Rochefogne (ID: 17731650/0x010E9042) [7815*]:
    → "Your Highness... Allow me to apologize for all the trouble I have caused you and your kingdom."
101: 0x08F7 [0x23] WAIT_FOR_DIALOG_INTERACTION
102: 0x08F8 [0x2B] Destin (ID: 17731585/0x010E9001) [7816*]:
    → "You do so much resemble your sister... Forgive me. We all thought you had perished during the Great War. If I had only known that you were the true Rochefogne, we might have been able to prevent the loss of so many lives."
103: 0x08FF [0x23] WAIT_FOR_DIALOG_INTERACTION
104: 0x0900 [0x2B] Rochefogne (ID: 17731650/0x010E9042) [7817*]:
    → "Your Highness..."
105: 0x0907 [0x23] WAIT_FOR_DIALOG_INTERACTION
106: 0x0908 [0x45] LOAD_SCHEDULED_TASK: Load scheduler "x004" with entities [LocalPlayer, LocalPlayer], work=[8*, 0*]
107: 0x0919 [0x55] WAIT_LOAD_SCHEDULER: Wait for scheduler "x004" with entities [LocalPlayer, LocalPlayer], work=8*
108: 0x0928 [0x29] REQ_SET_WAIT(priority=0x03, entity_id=Destin (ID: 17731585/0x010E9001), tag_num=0x10)
109: 0x092F [0x2B] Destin (ID: 17731585/0x010E9001) [7818*]:
    → "You may rise, Rochefogne. As much as I would like to reminisce of times past, I first wish to know of Lightbringer."
110: 0x0936 [0x23] WAIT_FOR_DIALOG_INTERACTION
111: 0x0937 [0x27] REQ_SET(priority=0x03, entity_id=Destin (ID: 17731585/0x010E9001), tag_num=0x11)
112: 0x093E [0x27] REQ_SET(priority=0x03, entity_id=Rochefogne (ID: 17731650/0x010E9042), tag_num=0x12)
113: 0x0945 [0x1C] WAIT(10* ticks)
114: 0x0948 [0x45] LOAD_SCHEDULED_TASK: Load scheduler "x005" with entities [LocalPlayer, LocalPlayer], work=[8*, 0*]
115: 0x0959 [0x2B] Rochefogne (ID: 17731650/0x010E9042) [7819*]:
    → "Certainly."
116: 0x0960 [0x23] WAIT_FOR_DIALOG_INTERACTION
117: 0x0961 [0x2A] GET_REQ_LEVEL(level=3, entity_id=Rochefogne (ID: 17731650/0x010E9042))
118: 0x0967 [0x55] WAIT_LOAD_SCHEDULER: Wait for scheduler "x005" with entities [LocalPlayer, LocalPlayer], work=8*
119: 0x0976 [0x27] REQ_SET(priority=0x03, entity_id=Rochefogne (ID: 17731650/0x010E9042), tag_num=0x0D)
120: 0x097D [0x2B] Rochefogne (ID: 17731650/0x010E9042) [7820*]:
    → "Long ago, the Dragon King, Ranperre, entrusted the Tavnazian Marquisate with the duty of protecting Lightbringer. All members of the royal family learn of this duty during their coming-of-age ceremony."
121: 0x0984 [0x23] WAIT_FOR_DIALOG_INTERACTION
122: 0x0985 [0x29] REQ_SET_WAIT(priority=0x04, entity_id=Rochefogne (ID: 17731650/0x010E9042), tag_num=0x0E)
123: 0x098C [0x45] LOAD_SCHEDULED_TASK: Load scheduler "x00c" with entities [LocalPlayer, LocalPlayer], work=[8*, 0*]
124: 0x099D [0x55] WAIT_LOAD_SCHEDULER: Wait for scheduler "x00c" with entities [LocalPlayer, LocalPlayer], work=8*
125: 0x09AC [0x27] REQ_SET(priority=0x03, entity_id=Claidie (ID: 17731590/0x010E9006), tag_num=0x2C)
126: 0x09B3 [0x2B] Claidie (ID: 17731590/0x010E9006) [7821*]:
    → "So our mother knew as well?"
127: 0x09BA [0x23] WAIT_FOR_DIALOG_INTERACTION
128: 0x09BB [0x45] LOAD_SCHEDULED_TASK: Load scheduler "x006" with entities [LocalPlayer, LocalPlayer], work=[8*, 0*]
129: 0x09CC [0x55] WAIT_LOAD_SCHEDULER: Wait for scheduler "x006" with entities [LocalPlayer, LocalPlayer], work=8*
130: 0x09DB [0x2B] Rochefogne (ID: 17731650/0x010E9042) [7822*]:
    → "Yes, my sister knew of Lightbringer. She also knew that the pollen of the dreamrose had the ability to temporarily neutralize the power of the blade."
131: 0x09E2 [0x23] WAIT_FOR_DIALOG_INTERACTION
132: 0x09E3 [0x45] LOAD_SCHEDULED_TASK: Load scheduler "x007" with entities [LocalPlayer, LocalPlayer], work=[8*, 0*]
133: 0x09F4 [0x55] WAIT_LOAD_SCHEDULER: Wait for scheduler "x007" with entities [LocalPlayer, LocalPlayer], work=8*
134: 0x0A03 [0x27] REQ_SET(priority=0x03, entity_id=Claidie (ID: 17731590/0x010E9006), tag_num=0x2D)
135: 0x0A0A [0x2B] Claidie (ID: 17731590/0x010E9006) [7823*]:
    → "So the pollen I threw... My mother left it in her will for such circumstances!"
136: 0x0A11 [0x23] WAIT_FOR_DIALOG_INTERACTION
137: 0x0A12 [0x1C] WAIT(30* ticks)
138: 0x0A15 [0x45] LOAD_SCHEDULED_TASK: Load scheduler "x00d" with entities [LocalPlayer, LocalPlayer], work=[8*, 0*]
139: 0x0A26 [0x55] WAIT_LOAD_SCHEDULER: Wait for scheduler "x00d" with entities [LocalPlayer, LocalPlayer], work=8*
140: 0x0A35 [0x2B] Rochefogne (ID: 17731650/0x010E9042) [7824*]:
    → "However, while we knew of our duty, none in Tavnazia knew the true power of an unsheathed Lightbringer. We were simply told to never draw the mighty blade."
141: 0x0A3C [0x23] WAIT_FOR_DIALOG_INTERACTION
142: 0x0A3D [0x5D] SET_MUSIC_VOLUME(volume=0*, fade_time=150*)
143: 0x0A42 [0x45] LOAD_SCHEDULED_TASK: Load scheduler "x008" with entities [LocalPlayer, LocalPlayer], work=[8*, 0*]
144: 0x0A53 [0x1C] WAIT(90* ticks)
145: 0x0A56 [0x2B] Rochefogne (ID: 17731650/0x010E9042) [7825*]:
    → "But when the beastman forces made their way to our castle gates..."
146: 0x0A5D [0x1C] WAIT(60* ticks)
147: 0x0A60 [0x45] LOAD_SCHEDULED_TASK: Load scheduler "fdo1" with entities [LocalPlayer, LocalPlayer], work=[200*, 0*]
148: 0x0A71 [0x55] WAIT_LOAD_SCHEDULER: Wait for scheduler "fdo1" with entities [LocalPlayer, LocalPlayer], work=200*
149: 0x0A80 [0x23] WAIT_FOR_DIALOG_INTERACTION
150: 0x0A81 [0x52] END_LOAD_SCHEDULER: End scheduler "x008" with entities [LocalPlayer, LocalPlayer], work=8*
151: 0x0A90 [0x5C] MUSIC_CONTROL: Set Idle (Day) music to song 160*
152: 0x0A94 [0x5C] MUSIC_CONTROL: Set Idle (Night) music to song 160*
153: 0x0A98 [0x9A] WAIT_MUSIC_SERVER()
154: 0x0A99 [0x34] LOAD_UNLOAD_ZONE(zone_id=100*)
155: 0x0A9C [0x1C] WAIT(100* ticks)
156: 0x0A9F [0x45] LOAD_SCHEDULED_TASK: Load scheduler "w000" with entities [LocalPlayer, LocalPlayer], work=[8*, 0*]
157: 0x0AB0 [0x55] WAIT_LOAD_SCHEDULER: Wait for scheduler "w000" with entities [LocalPlayer, LocalPlayer], work=8*
158: 0x0ABF [0x77] SET_EVENT_TIME_WEATHER(hour=21*, weather=0*)
159: 0x0AC4 [0x4E] SET_ENTITY_HIDE_FLAG: Show 1 (ID: 17731657/0x010E9049)
160: 0x0ACA [0x4E] SET_ENTITY_HIDE_FLAG: Show 2 (ID: 17731658/0x010E904A)
161: 0x0AD0 [0x4E] SET_ENTITY_HIDE_FLAG: Show 3 (ID: 17731659/0x010E904B)
162: 0x0AD6 [0x4E] SET_ENTITY_HIDE_FLAG: Show 4 (ID: 17731660/0x010E904C)
163: 0x0ADC [0x45] LOAD_SCHEDULED_TASK: Load scheduler "w001" with entities [LocalPlayer, LocalPlayer], work=[8*, 0*]
164: 0x0AED [0x45] LOAD_SCHEDULED_TASK: Load scheduler "fdi1" with entities [LocalPlayer, LocalPlayer], work=[200*, 0*]
165: 0x0AFE [0x55] WAIT_LOAD_SCHEDULER: Wait for scheduler "fdi1" with entities [LocalPlayer, LocalPlayer], work=200*
166: 0x0B0D [0x2B] Rochefogne (ID: 17731650/0x010E9042) [7826*]:
    → "On that fateful day when the beastmen had taken the city, my family made an attempt to escape to San d'Oria."
167: 0x0B14 [0x23] WAIT_FOR_DIALOG_INTERACTION
168: 0x0B15 [0x55] WAIT_LOAD_SCHEDULER: Wait for scheduler "w001" with entities [LocalPlayer, LocalPlayer], work=8*
169: 0x0B24 [0x45] LOAD_SCHEDULED_TASK: Load scheduler "ovl1" with entities [EventEntity, EventEntity], work=[200*, 0*]
170: 0x0B35 [0x45] LOAD_SCHEDULED_TASK: Load scheduler "w002" with entities [LocalPlayer, LocalPlayer], work=[8*, 0*]
171: 0x0B46 [0x2B] Rochefogne (ID: 17731650/0x010E9042) [7827*]:
    → "However, being young and proud, I could not stand and watch as my country was engulfed in the flames of war. I seized Lightbringer from my father and headed back to the castle."
172: 0x0B4D [0x1C] WAIT(300* ticks)
173: 0x0B50 [0x45] LOAD_SCHEDULED_TASK: Load scheduler "fdo1" with entities [LocalPlayer, LocalPlayer], work=[200*, 0*]
174: 0x0B61 [0x55] WAIT_LOAD_SCHEDULER: Wait for scheduler "fdo1" with entities [LocalPlayer, LocalPlayer], work=200*
175: 0x0B70 [0x23] WAIT_FOR_DIALOG_INTERACTION
176: 0x0B71 [0x27] REQ_SET(priority=0x03, entity_id=1 (ID: 17731657/0x010E9049), tag_num=0x02)
177: 0x0B78 [0x27] REQ_SET(priority=0x03, entity_id=2 (ID: 17731658/0x010E904A), tag_num=0x02)
178: 0x0B7F [0x27] REQ_SET(priority=0x03, entity_id=3 (ID: 17731659/0x010E904B), tag_num=0x02)
179: 0x0B86 [0x27] REQ_SET(priority=0x03, entity_id=4 (ID: 17731660/0x010E904C), tag_num=0x02)
180: 0x0B8D [0x1C] WAIT(10* ticks)
181: 0x0B90 [0x55] WAIT_LOAD_SCHEDULER: Wait for scheduler "w002" with entities [LocalPlayer, LocalPlayer], work=8*
182: 0x0B9F [0x45] LOAD_SCHEDULED_TASK: Load scheduler "fdi1" with entities [LocalPlayer, LocalPlayer], work=[200*, 0*]
183: 0x0BB0 [0x45] LOAD_SCHEDULED_TASK: Load scheduler "ovl1" with entities [EventEntity, EventEntity], work=[200*, 0*]
184: 0x0BC1 [0x45] LOAD_SCHEDULED_TASK: Load scheduler "w003" with entities [LocalPlayer, LocalPlayer], work=[8*, 0*]
185: 0x0BD2 [0x2B] Rochefogne (ID: 17731650/0x010E9042) [7828*]:
    → "I never even made it to the city gates... The Orcs surrounded me, and that is when I drew Lightbringer from its sheath..."
186: 0x0BD9 [0x1C] WAIT(500* ticks)
187: 0x0BDC [0x45] LOAD_SCHEDULED_TASK: Load scheduler "who1" with entities [EventEntity, EventEntity], work=[201*, 0*]
188: 0x0BED [0x55] WAIT_LOAD_SCHEDULER: Wait for scheduler "who1" with entities [EventEntity, EventEntity], work=201*
189: 0x0BFC [0x55] WAIT_LOAD_SCHEDULER: Wait for scheduler "w003" with entities [LocalPlayer, LocalPlayer], work=8*
190: 0x0C0B [0x23] WAIT_FOR_DIALOG_INTERACTION
191: 0x0C0C [0x2B] Rochefogne (ID: 17731650/0x010E9042) [7829*]:
    → "And the moment I did, I was engulfed in a brilliant light. I felt as if I were almighty...as if I were a god..."
192: 0x0C13 [0x23] WAIT_FOR_DIALOG_INTERACTION
193: 0x0C14 [0x34] LOAD_UNLOAD_ZONE(zone_id=103*)
194: 0x0C17 [0x1C] WAIT(100* ticks)
195: 0x0C1A [0x77] SET_EVENT_TIME_WEATHER(hour=6*, weather=0*)
196: 0x0C1F [0x45] LOAD_SCHEDULED_TASK: Load scheduler "w005" with entities [LocalPlayer, LocalPlayer], work=[8*, 0*]
197: 0x0C30 [0x55] WAIT_LOAD_SCHEDULER: Wait for scheduler "w005" with entities [LocalPlayer, LocalPlayer], work=8*
198: 0x0C3F [0x45] LOAD_SCHEDULED_TASK: Load scheduler "whi1" with entities [EventEntity, EventEntity], work=[201*, 0*]
199: 0x0C50 [0x55] WAIT_LOAD_SCHEDULER: Wait for scheduler "whi1" with entities [EventEntity, EventEntity], work=201*
200: 0x0C5F [0x45] LOAD_SCHEDULED_TASK: Load scheduler "w006" with entities [LocalPlayer, LocalPlayer], work=[8*, 0*]
201: 0x0C70 [0x1C] WAIT(100* ticks)
202: 0x0C73 [0x2B] Rochefogne (ID: 17731650/0x010E9042) [7830*]:
    → "How long I stood there I do not remember. But when I came to, I was lying on a beach...and Lightbringer was nowhere to be found."
203: 0x0C7A [0x1C] WAIT(60* ticks)
204: 0x0C7D [0x23] WAIT_FOR_DIALOG_INTERACTION
205: 0x0C7E [0x2B] Rochefogne (ID: 17731650/0x010E9042) [7831*]:
    → "The man who rescued me from the sea told me how a great explosion had devastated Tavnazia, sending it deep underwater."
206: 0x0C85 [0x1C] WAIT(200* ticks)
207: 0x0C88 [0x23] WAIT_FOR_DIALOG_INTERACTION
208: 0x0C89 [0x52] END_LOAD_SCHEDULER: End scheduler "w006" with entities [LocalPlayer, LocalPlayer], work=8*
209: 0x0C98 [0x45] LOAD_SCHEDULED_TASK: Load scheduler "ovl1" with entities [EventEntity, EventEntity], work=[200*, 0*]
210: 0x0CA9 [0x45] LOAD_SCHEDULED_TASK: Load scheduler "w007" with entities [LocalPlayer, LocalPlayer], work=[8*, 0*]
211: 0x0CBA [0x1C] WAIT(100* ticks)
212: 0x0CBD [0x2B] Rochefogne (ID: 17731650/0x010E9042) [7832*]:
    → "He said that people assumed the calamity was caused by an Orc weapon that had self-destructed, but due to the lack of evidence, no one would ever know."
213: 0x0CC4 [0x1C] WAIT(100* ticks)
214: 0x0CC7 [0x23] WAIT_FOR_DIALOG_INTERACTION
215: 0x0CC8 [0x55] WAIT_LOAD_SCHEDULER: Wait for scheduler "w007" with entities [LocalPlayer, LocalPlayer], work=8*
216: 0x0CD7 [0x45] LOAD_SCHEDULED_TASK: Load scheduler "who1" with entities [EventEntity, EventEntity], work=[201*, 0*]
217: 0x0CE8 [0x55] WAIT_LOAD_SCHEDULER: Wait for scheduler "who1" with entities [EventEntity, EventEntity], work=201*
218: 0x0CF7 [0x35] LOAD_ZONE_NO_CLOSE(zone_id=233*)
219: 0x0CFA [0x1C] WAIT(100* ticks)
220: 0x0CFD [0x78] ENABLE_GAME_TIMER_RESET_WEATHER()
221: 0x0CFE [0x45] LOAD_SCHEDULED_TASK: Load scheduler "x009" with entities [LocalPlayer, LocalPlayer], work=[8*, 0*]
222: 0x0D0F [0x55] WAIT_LOAD_SCHEDULER: Wait for scheduler "x009" with entities [LocalPlayer, LocalPlayer], work=8*
223: 0x0D1E [0x80] LOAD_WAIT(entity=Trion (ID: 17731587/0x010E9003))
224: 0x0D23 [0x80] LOAD_WAIT(entity=Pieuje (ID: 17731589/0x010E9005))
225: 0x0D28 [0x80] LOAD_WAIT(entity=Claidie (ID: 17731590/0x010E9006))
226: 0x0D2D [0x80] LOAD_WAIT(entity=Rochefogne (ID: 17731650/0x010E9042))
227: 0x0D32 [0x80] LOAD_WAIT(entity=Destin (ID: 17731585/0x010E9001))
228: 0x0D37 [0x80] LOAD_WAIT(entity=LocalPlayer)
229: 0x0D3C [0x27] REQ_SET(priority=0x03, entity_id=Trion (ID: 17731587/0x010E9003), tag_num=0x0A)
230: 0x0D43 [0x27] REQ_SET(priority=0x03, entity_id=Pieuje (ID: 17731589/0x010E9005), tag_num=0x19)
231: 0x0D4A [0x27] REQ_SET(priority=0x03, entity_id=Claidie (ID: 17731590/0x010E9006), tag_num=0x07)
232: 0x0D51 [0x27] REQ_SET(priority=0x03, entity_id=Rochefogne (ID: 17731650/0x010E9042), tag_num=0x05)
233: 0x0D58 [0x27] REQ_SET(priority=0x03, entity_id=Destin (ID: 17731585/0x010E9001), tag_num=0x0C)
234: 0x0D5F [0x27] REQ_SET(priority=0x03, entity_id=Destin (ID: 17731586/0x010E9002), tag_num=0x03)
235: 0x0D66 [0x27] REQ_SET(priority=0x03, entity_id=LocalPlayer, tag_num=0x31)
236: 0x0D6D [0x2A] GET_REQ_LEVEL(level=3, entity_id=Trion (ID: 17731587/0x010E9003))
237: 0x0D73 [0x2A] GET_REQ_LEVEL(level=3, entity_id=Pieuje (ID: 17731589/0x010E9005))
238: 0x0D79 [0x2A] GET_REQ_LEVEL(level=3, entity_id=Claidie (ID: 17731590/0x010E9006))
239: 0x0D7F [0x2A] GET_REQ_LEVEL(level=3, entity_id=Rochefogne (ID: 17731650/0x010E9042))
240: 0x0D85 [0x2A] GET_REQ_LEVEL(level=3, entity_id=Destin (ID: 17731585/0x010E9001))
241: 0x0D8B [0x2A] GET_REQ_LEVEL(level=3, entity_id=Destin (ID: 17731586/0x010E9002))
242: 0x0D91 [0x2A] GET_REQ_LEVEL(level=3, entity_id=LocalPlayer)
243: 0x0D97 [0x45] LOAD_SCHEDULED_TASK: Load scheduler "whi1" with entities [LocalPlayer, LocalPlayer], work=[201*, 0*]
244: 0x0DA8 [0x55] WAIT_LOAD_SCHEDULER: Wait for scheduler "whi1" with entities [LocalPlayer, LocalPlayer], work=201*
245: 0x0DB7 [0x2B] Rochefogne (ID: 17731650/0x010E9042) [7833*]:
    → "The shock of the explosion had caused me to lose my memory, and for years after that day, I believed the man's tale of the Orcs' secret weapon. But one day, like a flash of light, the memory of what I had done came back to me."
246: 0x0DBE [0x23] WAIT_FOR_DIALOG_INTERACTION
247: 0x0DBF [0x45] LOAD_SCHEDULED_TASK: Load scheduler "x010" with entities [LocalPlayer, LocalPlayer], work=[8*, 0*]
248: 0x0DD0 [0x1C] WAIT(60* ticks)
249: 0x0DD3 [0x2B] Rochefogne (ID: 17731650/0x010E9042) [7834*]:
    → "Because I had drawn that blade, not only my family, but thousands upon thousands of innocent lives, were lost."
250: 0x0DDA [0x1C] WAIT(60* ticks)
251: 0x0DDD [0x23] WAIT_FOR_DIALOG_INTERACTION
252: 0x0DDE [0x2B] Rochefogne (ID: 17731650/0x010E9042) [7835*]:
    → "From that day forth, I made a pledge to myself that I would not rest until I had found Lightbringer and returned her to her proper place. Only then would I be worthy to die and retreat to the hell that I deserve."
253: 0x0DE5 [0x23] WAIT_FOR_DIALOG_INTERACTION
254: 0x0DE6 [0x55] WAIT_LOAD_SCHEDULER: Wait for scheduler "x010" with entities [LocalPlayer, LocalPlayer], work=8*
255: 0x0DF5 [0x45] LOAD_SCHEDULED_TASK: Load scheduler "x011" with entities [LocalPlayer, LocalPlayer], work=[8*, 0*]
256: 0x0E06 [0x2B] Trion (ID: 17731587/0x010E9003) [7836*]:
    → "Truly unbelievable..."
257: 0x0E0D [0x1C] WAIT(180* ticks)
258: 0x0E10 [0x23] WAIT_FOR_DIALOG_INTERACTION
259: 0x0E11 [0x2B] Pieuje (ID: 17731589/0x010E9005) [7837*]:
    → "I see... So San d'Oria's plan to lure the beastman forces to Tavnazia worked because they were drawn to Lightbringer."
260: 0x0E18 [0x23] WAIT_FOR_DIALOG_INTERACTION
261: 0x0E19 [0x55] WAIT_LOAD_SCHEDULER: Wait for scheduler "x011" with entities [LocalPlayer, LocalPlayer], work=8*
262: 0x0E28 [0x45] LOAD_SCHEDULED_TASK: Load scheduler "x012" with entities [LocalPlayer, LocalPlayer], work=[8*, 0*]
263: 0x0E39 [0x55] WAIT_LOAD_SCHEDULER: Wait for scheduler "x012" with entities [LocalPlayer, LocalPlayer], work=8*
264: 0x0E48 [0x1C] WAIT(10* ticks)
265: 0x0E4B [0x2B] Pieuje (ID: 17731589/0x010E9005) [7838*]:
    → "But...why were you able to survive the explosion?"
266: 0x0E52 [0x23] WAIT_FOR_DIALOG_INTERACTION
267: 0x0E53 [0x79] Rochefogne (ID: 17731650/0x010E9042) looks at Pieuje (ID: 17731589/0x010E9005) (Basic look)
268: 0x0E5D [0x45] LOAD_SCHEDULED_TASK: Load scheduler "x013" with entities [LocalPlayer, LocalPlayer], work=[8*, 0*]
269: 0x0E6E [0x1C] WAIT(90* ticks)
270: 0x0E71 [0x4E] SET_ENTITY_HIDE_FLAG: Hide Destin (ID: 17731585/0x010E9001)
271: 0x0E77 [0x4E] SET_ENTITY_HIDE_FLAG: Show Destin (ID: 17731586/0x010E9002)
272: 0x0E7D [0x2B] Rochefogne (ID: 17731650/0x010E9042) [7839*]:
    → "While running back to the city, I came across a patch of beautiful dreamroses, and remembered my sister. I do not know why, but I picked one and put it in my breast pocket. I feel that is what might have saved me."
273: 0x0E84 [0x23] WAIT_FOR_DIALOG_INTERACTION
274: 0x0E85 [0x55] WAIT_LOAD_SCHEDULER: Wait for scheduler "x013" with entities [LocalPlayer, LocalPlayer], work=8*
275: 0x0E94 [0x45] LOAD_SCHEDULED_TASK: Load scheduler "x014" with entities [LocalPlayer, LocalPlayer], work=[8*, 0*]
276: 0x0EA5 [0x79] Rochefogne (ID: 17731650/0x010E9042) looks at Destin (ID: 17731586/0x010E9002) (Basic look)
277: 0x0EAF [0x1C] WAIT(90* ticks)
278: 0x0EB2 [0x27] REQ_SET(priority=0x03, entity_id=Destin (ID: 17731586/0x010E9002), tag_num=0x19)
279: 0x0EB9 [0x2B] Destin (ID: 17731585/0x010E9001) [7840*]:
    → "However, the legend of Ranperre tells of how the Dragon King used Lightbringer to bring peace to San d'Oria. How could such an instrument of good bring so much evil?"
280: 0x0EC0 [0x23] WAIT_FOR_DIALOG_INTERACTION
281: 0x0EC1 [0x29] REQ_SET_WAIT(priority=0x04, entity_id=Destin (ID: 17731586/0x010E9002), tag_num=0x1A)
282: 0x0EC8 [0x55] WAIT_LOAD_SCHEDULER: Wait for scheduler "x014" with entities [LocalPlayer, LocalPlayer], work=8*
283: 0x0ED7 [0x45] LOAD_SCHEDULED_TASK: Load scheduler "x015" with entities [LocalPlayer, LocalPlayer], work=[8*, 0*]
284: 0x0EE8 [0x55] WAIT_LOAD_SCHEDULER: Wait for scheduler "x015" with entities [LocalPlayer, LocalPlayer], work=8*
285: 0x0EF7 [0x27] REQ_SET(priority=0x03, entity_id=Rochefogne (ID: 17731650/0x010E9042), tag_num=0x0D)
286: 0x0EFE [0x2B] Rochefogne (ID: 17731650/0x010E9042) [7841*]:
    → "That, I do not know--though I feel that perhaps Lightbringer was not meant for us."
287: 0x0F05 [0x23] WAIT_FOR_DIALOG_INTERACTION
288: 0x0F06 [0x27] REQ_SET(priority=0x03, entity_id=Rochefogne (ID: 17731650/0x010E9042), tag_num=0x0E)
289: 0x0F0D [0x2B] Rochefogne (ID: 17731650/0x010E9042) [7842*]:
    → "We shall return it to the late king and let him decide its fate."
290: 0x0F14 [0x23] WAIT_FOR_DIALOG_INTERACTION
291: 0x0F15 [0x2A] GET_REQ_LEVEL(level=3, entity_id=Rochefogne (ID: 17731650/0x010E9042))
292: 0x0F1B [0x2B] Destin (ID: 17731585/0x010E9001) [7843*]:
    → "I agree. And I have the perfect citizen to help carry out the task."
293: 0x0F22 [0x23] WAIT_FOR_DIALOG_INTERACTION
294: 0x0F23 [0x4A] Destin (ID: 17731586/0x010E9002) looks at LocalPlayer
295: 0x0F2C [0x1C] WAIT(15* ticks)
296: 0x0F2F [0x45] LOAD_SCHEDULED_TASK: Load scheduler "x016" with entities [LocalPlayer, LocalPlayer], work=[8*, 0*]
297: 0x0F40 [0x4A] LocalPlayer looks at Destin (ID: 17731586/0x010E9002)
298: 0x0F49 [0x4A] Rochefogne (ID: 17731650/0x010E9042) looks at LocalPlayer
299: 0x0F52 [0x4A] Trion (ID: 17731587/0x010E9003) looks at LocalPlayer
300: 0x0F5B [0x4A] Pieuje (ID: 17731589/0x010E9005) looks at LocalPlayer
301: 0x0F64 [0x55] WAIT_LOAD_SCHEDULER: Wait for scheduler "x016" with entities [LocalPlayer, LocalPlayer], work=8*
302: 0x0F73 [0x6F] WAIT_FRAME_DELAY: Yield until WaitTime reaches zero
303: 0x0F74 [0x76] CHECK_ENTITY_RENDER_FLAGS: Wait until Destin (ID: 17731586/0x010E9002) Render.Flags0 and Render.Flags3 conditions are met
304: 0x0F79 [0x4A] Claidie (ID: 17731590/0x010E9006) looks at LocalPlayer
305: 0x0F82 [0x2B] Destin (ID: 17731585/0x010E9001) [7844*]:
    → "<Player>, you are well-versed in the layout of King Ranperre's Tomb. I ask you to travel there in advance and rid the area of any evil that could endanger the task at hand."
306: 0x0F89 [0x23] WAIT_FOR_DIALOG_INTERACTION
307: 0x0F8A [0x45] LOAD_SCHEDULED_TASK: Load scheduler "x017" with entities [LocalPlayer, LocalPlayer], work=[8*, 0*]
308: 0x0F9B [0x55] WAIT_LOAD_SCHEDULER: Wait for scheduler "x017" with entities [LocalPlayer, LocalPlayer], work=8*
309: 0x0FAA [0x2B] Destin (ID: 17731585/0x010E9001) [7845*]:
    → "I have a feeling that the Orcs may pay us another unexpected visit."
310: 0x0FB1 [0x23] WAIT_FOR_DIALOG_INTERACTION
311: 0x0FB2 [0x45] LOAD_SCHEDULED_TASK: Load scheduler "fdo2" with entities [LocalPlayer, LocalPlayer], work=[200*, 0*]
312: 0x0FC3 [0x55] WAIT_LOAD_SCHEDULER: Wait for scheduler "fdo2" with entities [LocalPlayer, LocalPlayer], work=200*
313: 0x0FD2 [0x5C] MUSIC_CONTROL: Set Idle (Day) music to song 156*
314: 0x0FD6 [0x5C] MUSIC_CONTROL: Set Idle (Night) music to song 156*
315: 0x0FDA [0x46] CAMERA_CONTROL: Restore default settings
316: 0x0FDC [0x45] LOAD_SCHEDULED_TASK: Load scheduler "fdi2" with entities [LocalPlayer, LocalPlayer], work=[200*, 0*]
317: 0x0FED [0x21] END_EVENT
318: 0x0FEE [0x00] END_REQSTACK()
```

### Event 9

#### Metadata

| Field        | Value      |
|--------------|------------|
| Entrypoint   | 0x0FEF     |
| Data Size    | 1529 bytes |
| Instructions | 213        |

```
      00 01 02 03 04 05 06 07  08 09 0A 0B 0C 0D 0E 0F
      -- -- -- -- -- -- -- --  -- -- -- -- -- -- -- --
0FE0:                                               20                  
0FF0: 01 46 01 42 4A 07 90 0E  01 F0 FF FF 7F 6F 76 07  .F.BJ........ov.
1000: 90 0E 01 2B 07 90 0E 01  5E 80 23 45 00 80 F0 FF  ...+....^.#E....
1010: FF 7F F0 FF FF 7F 66 64  6F 31 01 80 55 00 80 F0  ......fdo1..U...
1020: FF FF 7F F0 FF FF 7F 66  64 6F 31 38 02 80 97 01  .......fdo18....
1030: 80 03 80 94 01 F0 FF FF  7F 4E 00 F0 FF FF 7F 4E  .........N.....N
1040: 00 03 90 0E 01 4E 00 05  90 0E 01 4E 00 06 90 0E  .....N.....N....
1050: 01 4E 00 02 90 0E 01 5C  00 5F 80 5C 01 5F 80 27  .N.....\._.\._.'
1060: 03 03 90 0E 01 05 4E 00  07 90 0E 01 27 03 07 90  ......N.....'...
1070: 0E 01 21 4E 00 0C 90 0E  01 27 03 0C 90 0E 01 16  ..!N.....'......
1080: 4E 00 1B 90 0E 01 27 03  1B 90 0E 01 02 4E 00 11  N.....'......N..
1090: 90 0E 01 27 03 11 90 0E  01 02 4E 00 12 90 0E 01  ...'......N.....
10A0: 27 03 12 90 0E 01 02 4E  00 13 90 0E 01 27 03 13  '......N.....'..
10B0: 90 0E 01 02 4E 00 16 90  0E 01 27 03 16 90 0E 01  ....N.....'.....
10C0: 02 4E 00 0E 90 0E 01 27  03 0E 90 0E 01 03 27 03  .N.....'......'.
10D0: 05 90 0E 01 14 4E 00 F0  FF FF 7F 27 03 F0 FF FF  .....N.....'....
10E0: 7F 86 4E 00 08 90 0E 01  27 03 08 90 0E 01 0A 4E  ..N.....'......N
10F0: 00 0B 90 0E 01 27 03 0B  90 0E 01 07 4E 00 0A 90  .....'......N...
1100: 0E 01 27 03 0A 90 0E 01  09 4E 00 1A 90 0E 01 27  ..'......N.....'
1110: 03 1A 90 0E 01 02 4E 00  19 90 0E 01 27 03 19 90  ......N.....'...
1120: 0E 01 02 4E 00 18 90 0E  01 27 03 18 90 0E 01 02  ...N.....'......
1130: 4E 00 17 90 0E 01 27 03  17 90 0E 01 02 4E 00 34  N.....'......N.4
1140: 90 0E 01 27 03 34 90 0E  01 02 4E 00 10 90 0E 01  ...'.4....N.....
1150: 27 03 10 90 0E 01 02 1C  2F 80 4C 27 03 02 90 0E  '......./.L'....
1160: 01 05 45 60 80 F0 FF FF  7F F0 FF FF 7F 7A 30 30  ..E`.........z00
1170: 30 01 80 45 00 80 F0 FF  FF 7F F0 FF FF 7F 66 64  0..E..........fd
1180: 69 31 01 80 55 00 80 F0  FF FF 7F F0 FF FF 7F 66  i1..U..........f
1190: 64 69 31 2A 03 02 90 0E  01 4D 4A 07 90 0E 01 02  di1*.....MJ.....
11A0: 90 0E 01 4A 0C 90 0E 01  02 90 0E 01 4A 1B 90 0E  ...J........J...
11B0: 01 02 90 0E 01 4A 11 90  0E 01 02 90 0E 01 4A 12  .....J........J.
11C0: 90 0E 01 02 90 0E 01 4A  13 90 0E 01 02 90 0E 01  .......J........
11D0: 4A 16 90 0E 01 02 90 0E  01 4A 0E 90 0E 01 02 90  J........J......
11E0: 0E 01 4A F0 FF FF 7F 02  90 0E 01 4A 08 90 0E 01  ..J........J....
11F0: 02 90 0E 01 4A 0B 90 0E  01 02 90 0E 01 4A 0A 90  ....J........J..
1200: 0E 01 02 90 0E 01 4A 1A  90 0E 01 02 90 0E 01 4A  ......J........J
1210: 19 90 0E 01 02 90 0E 01  4A 18 90 0E 01 02 90 0E  ........J.......
1220: 01 4A 17 90 0E 01 02 90  0E 01 4A 34 90 0E 01 02  .J........J4....
1230: 90 0E 01 4A 10 90 0E 01  02 90 0E 01 55 60 80 F0  ...J........U`..
1240: FF FF 7F F0 FF FF 7F 7A  30 30 30 1C 0E 80 2B 02  .......z000...+.
1250: 90 0E 01 61 80 23 45 60  80 F0 FF FF 7F F0 FF FF  ...a.#E`........
1260: 7F 7A 30 30 31 01 80 55  60 80 F0 FF FF 7F F0 FF  .z001..U`.......
1270: FF 7F 7A 30 30 31 1C 0F  80 2B 02 90 0E 01 62 80  ..z001...+....b.
1280: 23 1C 0E 80 2B 02 90 0E  01 63 80 23 45 00 80 F8  #...+....c.#E...
1290: FF FF 7F F8 FF FF 7F 6F  76 6C 31 01 80 45 60 80  .......ovl1..E`.
12A0: F0 FF FF 7F F0 FF FF 7F  7A 30 30 32 01 80 1C 1F  ........z002....
12B0: 80 2B 02 90 0E 01 64 80  23 55 60 80 F0 FF FF 7F  .+....d.#U`.....
12C0: F0 FF FF 7F 7A 30 30 32  03 03 10 8B 7F 2B 02 90  ....z002.....+..
12D0: 0E 01 65 80 23 4A 02 90  0E 01 F0 FF FF 7F 1C 5B  ..e.#J.........[
12E0: 80 45 60 80 F0 FF FF 7F  F0 FF FF 7F 7A 30 30 33  .E`.........z003
12F0: 01 80 1C 0E 80 4A 03 90  0E 01 F0 FF FF 7F 1C 66  .....J.........f
1300: 80 4A 06 90 0E 01 F0 FF  FF 7F 1C 08 80 4A 05 90  .J...........J..
1310: 0E 01 F0 FF FF 7F 4A 0C  90 0E 01 F0 FF FF 7F 1C  ......J.........
1320: 08 80 4A 07 90 0E 01 F0  FF FF 7F 1C 08 80 55 60  ..J...........U`
1330: 80 F0 FF FF 7F F0 FF FF  7F 7A 30 30 33 1C 08 80  .........z003...
1340: 2B 02 90 0E 01 67 80 4A  1B 90 0E 01 F0 FF FF 7F  +....g.J........
1350: 4A 11 90 0E 01 F0 FF FF  7F 4A 12 90 0E 01 F0 FF  J........J......
1360: FF 7F 4A 13 90 0E 01 F0  FF FF 7F 4A 16 90 0E 01  ..J........J....
1370: F0 FF FF 7F 4A 0E 90 0E  01 F0 FF FF 7F 4A 08 90  ....J........J..
1380: 0E 01 F0 FF FF 7F 4A 0B  90 0E 01 F0 FF FF 7F 4A  ......J........J
1390: 0A 90 0E 01 F0 FF FF 7F  4A 1A 90 0E 01 F0 FF FF  ........J.......
13A0: 7F 4A 19 90 0E 01 F0 FF  FF 7F 4A 18 90 0E 01 F0  .J........J.....
13B0: FF FF 7F 4A 17 90 0E 01  F0 FF FF 7F 4A 34 90 0E  ...J........J4..
13C0: 01 F0 FF FF 7F 4A 10 90  0E 01 F0 FF FF 7F 23 03  .....J........#.
13D0: 02 10 68 80 27 03 02 90  0E 01 06 1C 0F 80 2B 02  ..h.'.........+.
13E0: 90 0E 01 69 80 1C 0F 80  27 03 F0 FF FF 7F 87 1C  ...i....'.......
13F0: 0E 80 27 03 06 90 0E 01  06 27 03 05 90 0E 01 15  ..'......'......
1400: 1C 5B 80 27 03 03 90 0E  01 06 45 60 80 F0 FF FF  .[.'......E`....
1410: 7F F0 FF FF 7F 7A 30 30  34 01 80 55 60 80 F0 FF  .....z004..U`...
1420: FF 7F F0 FF FF 7F 7A 30  30 34 2A 03 F0 FF FF 7F  ......z004*.....
1430: 2A 03 02 90 0E 01 1C 0F  80 23 45 60 80 F0 FF FF  *........#E`....
1440: 7F F0 FF FF 7F 7A 30 30  38 01 80 55 60 80 F0 FF  .....z008..U`...
1450: FF 7F F0 FF FF 7F 7A 30  30 38 1C 0F 80 7D 6A 80  ......z008...}j.
1460: 45 48 80 F0 FF FF 7F F0  FF FF 7F 71 73 74 63 01  EH.........qstc.
1470: 80 1C 19 80 4B F0 FF FF  7F 6B 80 6F 76 F0 FF FF  ....K....k.ov...
1480: 7F 1C 0E 80 45 60 80 F0  FF FF 7F F0 FF FF 7F 7A  ....E`.........z
1490: 30 30 37 01 80 6E 07 90  0E 01 07 80 99 07 90 0E  007..n..........
14A0: 01 6E 1B 90 0E 01 07 80  99 1B 90 0E 01 6E 11 90  .n...........n..
14B0: 0E 01 07 80 99 11 90 0E  01 6E 12 90 0E 01 07 80  .........n......
14C0: 99 12 90 0E 01 6E 13 90  0E 01 07 80 99 13 90 0E  .....n..........
14D0: 01 6E 16 90 0E 01 07 80  99 16 90 0E 01 6E 08 90  .n...........n..
14E0: 0E 01 07 80 99 08 90 0E  01 6E 0B 90 0E 01 07 80  .........n......
14F0: 99 0B 90 0E 01 6E 0A 90  0E 01 07 80 99 0A 90 0E  .....n..........
1500: 01 6E 1A 90 0E 01 07 80  99 1A 90 0E 01 6E 19 90  .n...........n..
1510: 0E 01 07 80 99 19 90 0E  01 6E 18 90 0E 01 07 80  .........n......
1520: 99 18 90 0E 01 6E 17 90  0E 01 07 80 99 17 90 0E  .....n..........
1530: 01 6E 34 90 0E 01 07 80  99 34 90 0E 01 6E 10 90  .n4......4...n..
1540: 0E 01 07 80 99 10 90 0E  01 55 60 80 F0 FF FF 7F  .........U`.....
1550: F0 FF FF 7F 7A 30 30 37  45 60 80 F0 FF FF 7F F0  ....z007E`......
1560: FF FF 7F 7A 30 30 35 01  80 2B 02 90 0E 01 6C 80  ...z005..+....l.
1570: 23 55 60 80 F0 FF FF 7F  F0 FF FF 7F 7A 30 30 35  #U`.........z005
1580: 45 60 80 F0 FF FF 7F F0  FF FF 7F 7A 30 30 36 01  E`.........z006.
1590: 80 2B 02 90 0E 01 6D 80  1C 6E 80 45 00 80 F0 FF  .+....m..n.E....
15A0: FF 7F F0 FF FF 7F 66 64  6F 32 01 80 55 00 80 F0  ......fdo2..U...
15B0: FF FF 7F F0 FF FF 7F 66  64 6F 32 23 52 60 80 F0  .......fdo2#R`..
15C0: FF FF 7F F0 FF FF 7F 7A  30 30 36 5C 00 17 80 5C  .......z006\...\
15D0: 01 17 80 46 00 45 00 80  F0 FF FF 7F F0 FF FF 7F  ...F.E..........
15E0: 66 64 69 32 01 80 21 00                           fdi2..!.        
```

#### Opcodes

```
  0: 0x0FEF [0x20] SET_CLI_EVENT_UC_FLAG: Lock player control
  1: 0x0FF1 [0x46] CAMERA_CONTROL: Disable user control
  2: 0x0FF3 [0x42] SET_CLI_EVENT_CANCEL_DATA()
  3: 0x0FF4 [0x4A] Halver (ID: 17731591/0x010E9007) looks at LocalPlayer
  4: 0x0FFD [0x6F] WAIT_FRAME_DELAY: Yield until WaitTime reaches zero
  5: 0x0FFE [0x76] CHECK_ENTITY_RENDER_FLAGS: Wait until Halver (ID: 17731591/0x010E9007) Render.Flags0 and Render.Flags3 conditions are met
  6: 0x1003 [0x2B] Halver (ID: 17731591/0x010E9007) [7851*]:
    → "Oh, <Player>, we have been waiting for your arrival. His Highness is about give an address. Please take your position."
  7: 0x100A [0x23] WAIT_FOR_DIALOG_INTERACTION
  8: 0x100B [0x45] LOAD_SCHEDULED_TASK: Load scheduler "fdo1" with entities [LocalPlayer, LocalPlayer], work=[200*, 0*]
  9: 0x101C [0x55] WAIT_LOAD_SCHEDULER: Wait for scheduler "fdo1" with entities [LocalPlayer, LocalPlayer], work=200*
 10: 0x102B [0x38] SET_CLIENT_EVENT_MODE(mode=3*)
 11: 0x102E [0x97] SAVE_SET_WIND_VALUES(wind_base=0x8001, wind_width=0x8003)
 12: 0x1033 [0x94] LocalPlayer->Render.Flags3 ^= 0x01
 13: 0x1039 [0x4E] SET_ENTITY_HIDE_FLAG: Show LocalPlayer
 14: 0x103F [0x4E] SET_ENTITY_HIDE_FLAG: Show Trion (ID: 17731587/0x010E9003)
 15: 0x1045 [0x4E] SET_ENTITY_HIDE_FLAG: Show Pieuje (ID: 17731589/0x010E9005)
 16: 0x104B [0x4E] SET_ENTITY_HIDE_FLAG: Show Claidie (ID: 17731590/0x010E9006)
 17: 0x1051 [0x4E] SET_ENTITY_HIDE_FLAG: Show Destin (ID: 17731586/0x010E9002)
 18: 0x1057 [0x5C] MUSIC_CONTROL: Set Idle (Day) music to song 153*
 19: 0x105B [0x5C] MUSIC_CONTROL: Set Idle (Night) music to song 153*
 20: 0x105F [0x27] REQ_SET(priority=0x03, entity_id=Trion (ID: 17731587/0x010E9003), tag_num=0x05)
 21: 0x1066 [0x4E] SET_ENTITY_HIDE_FLAG: Show Halver (ID: 17731591/0x010E9007)
 22: 0x106C [0x27] REQ_SET(priority=0x03, entity_id=Halver (ID: 17731591/0x010E9007), tag_num=0x21)
 23: 0x1073 [0x4E] SET_ENTITY_HIDE_FLAG: Show Curilla (ID: 17731596/0x010E900C)
 24: 0x1079 [0x27] REQ_SET(priority=0x03, entity_id=Curilla (ID: 17731596/0x010E900C), tag_num=0x16)
 25: 0x1080 [0x4E] SET_ENTITY_HIDE_FLAG: Show Perfaumand (ID: 17731611/0x010E901B)
 26: 0x1086 [0x27] REQ_SET(priority=0x03, entity_id=Perfaumand (ID: 17731611/0x010E901B), tag_num=0x02)
 27: 0x108D [0x4E] SET_ENTITY_HIDE_FLAG: Show Faurie (ID: 17731601/0x010E9011)
 28: 0x1093 [0x27] REQ_SET(priority=0x03, entity_id=Faurie (ID: 17731601/0x010E9011), tag_num=0x02)
 29: 0x109A [0x4E] SET_ENTITY_HIDE_FLAG: Show Ferdechiond (ID: 17731602/0x010E9012)
 30: 0x10A0 [0x27] REQ_SET(priority=0x03, entity_id=Ferdechiond (ID: 17731602/0x010E9012), tag_num=0x02)
 31: 0x10A7 [0x4E] SET_ENTITY_HIDE_FLAG: Show Chaphoire (ID: 17731603/0x010E9013)
 32: 0x10AD [0x27] REQ_SET(priority=0x03, entity_id=Chaphoire (ID: 17731603/0x010E9013), tag_num=0x02)
 33: 0x10B4 [0x4E] SET_ENTITY_HIDE_FLAG: Show Aladoverre (ID: 17731606/0x010E9016)
 34: 0x10BA [0x27] REQ_SET(priority=0x03, entity_id=Aladoverre (ID: 17731606/0x010E9016), tag_num=0x02)
 35: 0x10C1 [0x4E] SET_ENTITY_HIDE_FLAG: Show Chalvatot (ID: 17731598/0x010E900E)
 36: 0x10C7 [0x27] REQ_SET(priority=0x03, entity_id=Chalvatot (ID: 17731598/0x010E900E), tag_num=0x03)
 37: 0x10CE [0x27] REQ_SET(priority=0x03, entity_id=Pieuje (ID: 17731589/0x010E9005), tag_num=0x14)
 38: 0x10D5 [0x4E] SET_ENTITY_HIDE_FLAG: Show LocalPlayer
 39: 0x10DB [0x27] REQ_SET(priority=0x03, entity_id=LocalPlayer, tag_num=0x86)
 40: 0x10E2 [0x4E] SET_ENTITY_HIDE_FLAG: Show Rahal (ID: 17731592/0x010E9008)
 41: 0x10E8 [0x27] REQ_SET(priority=0x03, entity_id=Rahal (ID: 17731592/0x010E9008), tag_num=0x0A)
 42: 0x10EF [0x4E] SET_ENTITY_HIDE_FLAG: Show Aramaviont (ID: 17731595/0x010E900B)
 43: 0x10F5 [0x27] REQ_SET(priority=0x03, entity_id=Aramaviont (ID: 17731595/0x010E900B), tag_num=0x07)
 44: 0x10FC [0x4E] SET_ENTITY_HIDE_FLAG: Show Milchupain (ID: 17731594/0x010E900A)
 45: 0x1102 [0x27] REQ_SET(priority=0x03, entity_id=Milchupain (ID: 17731594/0x010E900A), tag_num=0x09)
 46: 0x1109 [0x4E] SET_ENTITY_HIDE_FLAG: Show Doumina (ID: 17731610/0x010E901A)
 47: 0x110F [0x27] REQ_SET(priority=0x03, entity_id=Doumina (ID: 17731610/0x010E901A), tag_num=0x02)
 48: 0x1116 [0x4E] SET_ENTITY_HIDE_FLAG: Show Cotelle (ID: 17731609/0x010E9019)
 49: 0x111C [0x27] REQ_SET(priority=0x03, entity_id=Cotelle (ID: 17731609/0x010E9019), tag_num=0x02)
 50: 0x1123 [0x4E] SET_ENTITY_HIDE_FLAG: Show Atoranne (ID: 17731608/0x010E9018)
 51: 0x1129 [0x27] REQ_SET(priority=0x03, entity_id=Atoranne (ID: 17731608/0x010E9018), tag_num=0x02)
 52: 0x1130 [0x4E] SET_ENTITY_HIDE_FLAG: Show Michilca (ID: 17731607/0x010E9017)
 53: 0x1136 [0x27] REQ_SET(priority=0x03, entity_id=Michilca (ID: 17731607/0x010E9017), tag_num=0x02)
 54: 0x113D [0x4E] SET_ENTITY_HIDE_FLAG: Show Exoroche (ID: 17731636/0x010E9034)
 55: 0x1143 [0x27] REQ_SET(priority=0x03, entity_id=Exoroche (ID: 17731636/0x010E9034), tag_num=0x02)
 56: 0x114A [0x4E] SET_ENTITY_HIDE_FLAG: Show Mistaravant (ID: 17731600/0x010E9010)
 57: 0x1150 [0x27] REQ_SET(priority=0x03, entity_id=Mistaravant (ID: 17731600/0x010E9010), tag_num=0x02)
 58: 0x1157 [0x1C] WAIT(180* ticks)
 59: 0x115A [0x4C] EventEntity->StatusEvent = 8 // Open door
 60: 0x115B [0x27] REQ_SET(priority=0x03, entity_id=Destin (ID: 17731586/0x010E9002), tag_num=0x05)
 61: 0x1162 [0x45] LOAD_SCHEDULED_TASK: Load scheduler "z000" with entities [LocalPlayer, LocalPlayer], work=[18*, 0*]
 62: 0x1173 [0x45] LOAD_SCHEDULED_TASK: Load scheduler "fdi1" with entities [LocalPlayer, LocalPlayer], work=[200*, 0*]
 63: 0x1184 [0x55] WAIT_LOAD_SCHEDULER: Wait for scheduler "fdi1" with entities [LocalPlayer, LocalPlayer], work=200*
 64: 0x1193 [0x2A] GET_REQ_LEVEL(level=3, entity_id=Destin (ID: 17731586/0x010E9002))
 65: 0x1199 [0x4D] EventEntity->StatusEvent = 9 // Close door
 66: 0x119A [0x4A] Halver (ID: 17731591/0x010E9007) looks at Destin (ID: 17731586/0x010E9002)
 67: 0x11A3 [0x4A] Curilla (ID: 17731596/0x010E900C) looks at Destin (ID: 17731586/0x010E9002)
 68: 0x11AC [0x4A] Perfaumand (ID: 17731611/0x010E901B) looks at Destin (ID: 17731586/0x010E9002)
 69: 0x11B5 [0x4A] Faurie (ID: 17731601/0x010E9011) looks at Destin (ID: 17731586/0x010E9002)
 70: 0x11BE [0x4A] Ferdechiond (ID: 17731602/0x010E9012) looks at Destin (ID: 17731586/0x010E9002)
 71: 0x11C7 [0x4A] Chaphoire (ID: 17731603/0x010E9013) looks at Destin (ID: 17731586/0x010E9002)
 72: 0x11D0 [0x4A] Aladoverre (ID: 17731606/0x010E9016) looks at Destin (ID: 17731586/0x010E9002)
 73: 0x11D9 [0x4A] Chalvatot (ID: 17731598/0x010E900E) looks at Destin (ID: 17731586/0x010E9002)
 74: 0x11E2 [0x4A] LocalPlayer looks at Destin (ID: 17731586/0x010E9002)
 75: 0x11EB [0x4A] Rahal (ID: 17731592/0x010E9008) looks at Destin (ID: 17731586/0x010E9002)
 76: 0x11F4 [0x4A] Aramaviont (ID: 17731595/0x010E900B) looks at Destin (ID: 17731586/0x010E9002)
 77: 0x11FD [0x4A] Milchupain (ID: 17731594/0x010E900A) looks at Destin (ID: 17731586/0x010E9002)
 78: 0x1206 [0x4A] Doumina (ID: 17731610/0x010E901A) looks at Destin (ID: 17731586/0x010E9002)
 79: 0x120F [0x4A] Cotelle (ID: 17731609/0x010E9019) looks at Destin (ID: 17731586/0x010E9002)
 80: 0x1218 [0x4A] Atoranne (ID: 17731608/0x010E9018) looks at Destin (ID: 17731586/0x010E9002)
 81: 0x1221 [0x4A] Michilca (ID: 17731607/0x010E9017) looks at Destin (ID: 17731586/0x010E9002)
 82: 0x122A [0x4A] Exoroche (ID: 17731636/0x010E9034) looks at Destin (ID: 17731586/0x010E9002)
 83: 0x1233 [0x4A] Mistaravant (ID: 17731600/0x010E9010) looks at Destin (ID: 17731586/0x010E9002)
 84: 0x123C [0x55] WAIT_LOAD_SCHEDULER: Wait for scheduler "z000" with entities [LocalPlayer, LocalPlayer], work=18*
 85: 0x124B [0x1C] WAIT(30* ticks)
 86: 0x124E [0x2B] Destin (ID: 17731586/0x010E9002) [7852*]:
    → "I know that your bodies still ache from our recent encounter with the Orcs."
 87: 0x1255 [0x23] WAIT_FOR_DIALOG_INTERACTION
 88: 0x1256 [0x45] LOAD_SCHEDULED_TASK: Load scheduler "z001" with entities [LocalPlayer, LocalPlayer], work=[18*, 0*]
 89: 0x1267 [0x55] WAIT_LOAD_SCHEDULER: Wait for scheduler "z001" with entities [LocalPlayer, LocalPlayer], work=18*
 90: 0x1276 [0x1C] WAIT(60* ticks)
 91: 0x1279 [0x2B] Destin (ID: 17731586/0x010E9002) [7853*]:
    → "However, I require your utmost attention, for I have an important announcement."
 92: 0x1280 [0x23] WAIT_FOR_DIALOG_INTERACTION
 93: 0x1281 [0x1C] WAIT(30* ticks)
 94: 0x1284 [0x2B] Destin (ID: 17731586/0x010E9002) [7854*]:
    → "I have decided that it is in the best interest of the Kingdom to prolong the Rites of Succession indefinitely. My sons still have much to learn of ruling a kingdom. Furthermore, when the time comes for me to step down, if I find my sons inadequate, I will not hesitate in selecting an heir from outside the d'Oraguille family."
 95: 0x128B [0x23] WAIT_FOR_DIALOG_INTERACTION
 96: 0x128C [0x45] LOAD_SCHEDULED_TASK: Load scheduler "ovl1" with entities [EventEntity, EventEntity], work=[200*, 0*]
 97: 0x129D [0x45] LOAD_SCHEDULED_TASK: Load scheduler "z002" with entities [LocalPlayer, LocalPlayer], work=[18*, 0*]
 98: 0x12AE [0x1C] WAIT(90* ticks)
 99: 0x12B1 [0x2B] Destin (ID: 17731586/0x010E9002) [7855*]:
    → "It is not only the royal family, but others like <Player>, that have silently supported San d'Oria for the past twenty years. Perhaps it is an adventurer such as [he/she] that would be best suited for the throne."
100: 0x12B8 [0x23] WAIT_FOR_DIALOG_INTERACTION
101: 0x12B9 [0x55] WAIT_LOAD_SCHEDULER: Wait for scheduler "z002" with entities [LocalPlayer, LocalPlayer], work=18*
102: 0x12C8 [0x03] Work_Zone[3] = (LocalPlayer->Render.Flags01 >> 25) & 1
103: 0x12CD [0x2B] Destin (ID: 17731586/0x010E9002) [7856*]:
    → "The arrogance of the Elvaan has held back this country for much too long. From today forth, we shall recognize our fellow races and join hands with them to form a stronger, better kingdom."
104: 0x12D4 [0x23] WAIT_FOR_DIALOG_INTERACTION
105: 0x12D5 [0x4A] Destin (ID: 17731586/0x010E9002) looks at LocalPlayer
106: 0x12DE [0x1C] WAIT(15* ticks)
107: 0x12E1 [0x45] LOAD_SCHEDULED_TASK: Load scheduler "z003" with entities [LocalPlayer, LocalPlayer], work=[18*, 0*]
108: 0x12F2 [0x1C] WAIT(30* ticks)
109: 0x12F5 [0x4A] Trion (ID: 17731587/0x010E9003) looks at LocalPlayer
110: 0x12FE [0x1C] WAIT(5* ticks)
111: 0x1301 [0x4A] Claidie (ID: 17731590/0x010E9006) looks at LocalPlayer
112: 0x130A [0x1C] WAIT(10* ticks)
113: 0x130D [0x4A] Pieuje (ID: 17731589/0x010E9005) looks at LocalPlayer
114: 0x1316 [0x4A] Curilla (ID: 17731596/0x010E900C) looks at LocalPlayer
115: 0x131F [0x1C] WAIT(10* ticks)
116: 0x1322 [0x4A] Halver (ID: 17731591/0x010E9007) looks at LocalPlayer
117: 0x132B [0x1C] WAIT(10* ticks)
118: 0x132E [0x55] WAIT_LOAD_SCHEDULER: Wait for scheduler "z003" with entities [LocalPlayer, LocalPlayer], work=18*
119: 0x133D [0x1C] WAIT(10* ticks)
120: 0x1340 [0x2B] Destin (ID: 17731586/0x010E9002) [7857*]:
    → "<Player>. I am aware of the hardships you have had to face at the request of your country. However, you must realize that without your undying loyalty to the Kingdom, we would never have been able to realize our erring ways."
121: 0x1347 [0x4A] Perfaumand (ID: 17731611/0x010E901B) looks at LocalPlayer
122: 0x1350 [0x4A] Faurie (ID: 17731601/0x010E9011) looks at LocalPlayer
123: 0x1359 [0x4A] Ferdechiond (ID: 17731602/0x010E9012) looks at LocalPlayer
124: 0x1362 [0x4A] Chaphoire (ID: 17731603/0x010E9013) looks at LocalPlayer
125: 0x136B [0x4A] Aladoverre (ID: 17731606/0x010E9016) looks at LocalPlayer
126: 0x1374 [0x4A] Chalvatot (ID: 17731598/0x010E900E) looks at LocalPlayer
127: 0x137D [0x4A] Rahal (ID: 17731592/0x010E9008) looks at LocalPlayer
128: 0x1386 [0x4A] Aramaviont (ID: 17731595/0x010E900B) looks at LocalPlayer
129: 0x138F [0x4A] Milchupain (ID: 17731594/0x010E900A) looks at LocalPlayer
130: 0x1398 [0x4A] Doumina (ID: 17731610/0x010E901A) looks at LocalPlayer
131: 0x13A1 [0x4A] Cotelle (ID: 17731609/0x010E9019) looks at LocalPlayer
132: 0x13AA [0x4A] Atoranne (ID: 17731608/0x010E9018) looks at LocalPlayer
133: 0x13B3 [0x4A] Michilca (ID: 17731607/0x010E9017) looks at LocalPlayer
134: 0x13BC [0x4A] Exoroche (ID: 17731636/0x010E9034) looks at LocalPlayer
135: 0x13C5 [0x4A] Mistaravant (ID: 17731600/0x010E9010) looks at LocalPlayer
136: 0x13CE [0x23] WAIT_FOR_DIALOG_INTERACTION
137: 0x13CF [0x03] Work_Zone[2] = 181*
138: 0x13D4 [0x27] REQ_SET(priority=0x03, entity_id=Destin (ID: 17731586/0x010E9002), tag_num=0x06)
139: 0x13DB [0x1C] WAIT(60* ticks)
