# 17731614

## Common Data

| Field            | Value                         |
|------------------|-------------------------------|
| Zone             | Chateau d'Oraguille (ID: 233) |
| Block Size       | 284 bytes                     |
| Total Events     | 7                             |
| References Count | 18                            |

## List of Events

| Event ID                 | Entrypoint   |   Size |   Instructions |
|--------------------------|--------------|--------|----------------|
| [65535](#event-65535)    | 0x0000       |     10 |              2 |
| [121](#event-121)        | 0x000A       |      1 |              1 |
| [120](#event-120)        | 0x000B       |      1 |              1 |
| [65535.1](#event-655351) | 0x000C       |     22 |              8 |
| [65535.2](#event-655352) | 0x0022       |     63 |              7 |
| [65535.3](#event-655353) | 0x0061       |     55 |              9 |
| [65535.4](#event-655354) | 0x0098       |     15 |              3 |

## DAT References (imed_data)

|   Index | Hex Value   |   Dec Value |
|---------|-------------|-------------|
|       0 | 0xFFFF7CA7  |  4294933671 |
|       1 | 0xFFFFD3AC  |  4294955948 |
|       2 | 0x0000      |           0 |
|       3 | 0x0FFF      |        4095 |
|       4 | 0x0006      |           6 |
|       5 | 0xFFFF8370  |  4294935408 |
|       6 | 0xFFFFDAB0  |  4294957744 |
|       7 | 0x0019      |          25 |
|       8 | 0x0046      |          70 |
|       9 | 0x0239      |         569 |
|      10 | 0x85E5      |       34277 |
|      11 | 0xFFFFF449  |  4294964297 |
|      12 | 0x0BD1      |        3025 |
|      13 | 0x003C      |          60 |
|      14 | 0x000D      |          13 |
|      15 | 0x96AF      |       38575 |
|      16 | 0xFFFFF381  |  4294964097 |
|      17 | 0x001D      |          29 |

## Events

### Event 65535

#### Metadata

| Field        | Value    |
|--------------|----------|
| Entrypoint   | 0x0000   |
| Data Size    | 10 bytes |
| Instructions | 2        |

```
      00 01 02 03 04 05 06 07  08 09 0A 0B 0C 0D 0E 0F
      -- -- -- -- -- -- -- --  -- -- -- -- -- -- -- --
0000: 37 00 80 01 80 02 80 03  80 00                    7.........      
```

#### Opcodes

```
  0: 0x0000 [0x37] UPDATE_EVENT_POSITION_AND_DIR: x=-33.625*, z=-11.348*, y=0.000*, direction=359.9°*
  1: 0x0009 [0x00] END_REQSTACK()
```

### Event 121

#### Metadata

| Field        | Value   |
|--------------|---------|
| Entrypoint   | 0x000A  |
| Data Size    | 1 bytes |
| Instructions | 1       |

```
      00 01 02 03 04 05 06 07  08 09 0A 0B 0C 0D 0E 0F
      -- -- -- -- -- -- -- --  -- -- -- -- -- -- -- --
0000:                                00                           .     
```

#### Opcodes

```
  0: 0x000A [0x00] END_REQSTACK()
```

### Event 120

#### Metadata

| Field        | Value   |
|--------------|---------|
| Entrypoint   | 0x000B  |
| Data Size    | 1 bytes |
| Instructions | 1       |

```
      00 01 02 03 04 05 06 07  08 09 0A 0B 0C 0D 0E 0F
      -- -- -- -- -- -- -- --  -- -- -- -- -- -- -- --
0000:                                   00                         .    
```

#### Opcodes

```
  0: 0x000B [0x00] END_REQSTACK()
```

### Event 65535.1

#### Metadata

| Field        | Value    |
|--------------|----------|
| Entrypoint   | 0x000C   |
| Data Size    | 22 bytes |
| Instructions | 8        |

```
      00 01 02 03 04 05 06 07  08 09 0A 0B 0C 0D 0E 0F
      -- -- -- -- -- -- -- --  -- -- -- -- -- -- -- --
0000:                                      32 04 80 1F              2...
0010: 00 05 80 06 80 02 80 1F  01 6F 1E 08 90 0E 01 6F  .........o.....o
0020: 70 00                                             p.              
```

#### Opcodes

```
  0: 0x000C [0x32] ExtData[1]->MainSpeed = 6* * 0.1
  1: 0x000F [0x1F] MOVE_ENTITY: EventEntity moves to X=-31.888*, Z=-9.552*, Y=0.000*
  2: 0x0017 [0x1F] MOVE_ENTITY: Update entity position (mode=1)
  3: 0x0019 [0x6F] WAIT_FRAME_DELAY: Yield until WaitTime reaches zero
  4: 0x001A [0x1E] EventEntity looks at Rahal (ID: 17731592/0x010E9008) and starts talking
  5: 0x001F [0x6F] WAIT_FRAME_DELAY: Yield until WaitTime reaches zero
  6: 0x0020 [0x70] WAIT_ENTITY_RENDER_FLAG: Wait while EventEntity->Render.Flags3 bit 2 is set (cancel turn if not)
  7: 0x0021 [0x00] END_REQSTACK()
```

### Event 65535.2

#### Metadata

| Field        | Value    |
|--------------|----------|
| Entrypoint   | 0x0022   |
| Data Size    | 63 bytes |
| Instructions | 7        |

```
      00 01 02 03 04 05 06 07  08 09 0A 0B 0C 0D 0E 0F
      -- -- -- -- -- -- -- --  -- -- -- -- -- -- -- --
0020:       66 07 80 F8 FF FF  7F F8 FF FF 7F 61 74 6B    f..........atk
0030: 30 1C 08 80 7B F8 FF FF  7F 2C F8 FF FF 7F F8 FF  0...{....,......
0040: FF 7F 63 68 69 74 2C F8  FF FF 7F F8 FF FF 7F 64  ..chit,........d
0050: 65 61 64 53 F8 FF FF 7F  F8 FF FF 7F 64 65 61 64  eadS........dead
0060: 00                                                .               
```

#### Opcodes

```
  0: 0x0022 [0x66] LOAD_EXT_SCHEDULER_MAIN: Load scheduler "atk0" with entities [EventEntity, EventEntity], work=25*
  1: 0x0031 [0x1C] WAIT(70* ticks)
  2: 0x0034 [0x7B] EventEntity stops talking
  3: 0x0039 [0x2C] CREATE_SCHEDULER_TASK: Create scheduler "chit" with entities [EventEntity, EventEntity]
  4: 0x0046 [0x2C] CREATE_SCHEDULER_TASK: Create scheduler "dead" with entities [EventEntity, EventEntity]
  5: 0x0053 [0x53] WAIT_SCHEDULER_TASK: Wait for scheduler "dead" with entities [EventEntity, EventEntity]
  6: 0x0060 [0x00] END_REQSTACK()
```

### Event 65535.3

#### Metadata

| Field        | Value    |
|--------------|----------|
| Entrypoint   | 0x0061   |
| Data Size    | 55 bytes |
| Instructions | 9        |

```
      00 01 02 03 04 05 06 07  08 09 0A 0B 0C 0D 0E 0F
      -- -- -- -- -- -- -- --  -- -- -- -- -- -- -- --
0060:    37 09 80 0A 80 0B 80  0C 80 1C 0D 80 32 0E 80   7...........2..
0070: 1F 00 09 80 0F 80 10 80  1F 01 6F 66 11 80 F8 FF  ..........of....
0080: FF 7F F8 FF FF 7F 73 68  61 30 53 F8 FF FF 7F F8  ......sha0S.....
0090: FF FF 7F 73 68 61 30 00                           ...sha0.        
```

#### Opcodes

```
  0: 0x0061 [0x37] UPDATE_EVENT_POSITION_AND_DIR: x=0.569*, z=34.277*, y=-2.999*, direction=265.9°*
  1: 0x006A [0x1C] WAIT(60* ticks)
  2: 0x006D [0x32] ExtData[1]->MainSpeed = 13* * 0.1
  3: 0x0070 [0x1F] MOVE_ENTITY: EventEntity moves to X=0.569*, Z=38.575*, Y=-3.199*
  4: 0x0078 [0x1F] MOVE_ENTITY: Update entity position (mode=1)
  5: 0x007A [0x6F] WAIT_FRAME_DELAY: Yield until WaitTime reaches zero
  6: 0x007B [0x66] LOAD_EXT_SCHEDULER_MAIN: Load scheduler "sha0" with entities [EventEntity, EventEntity], work=29*
  7: 0x008A [0x53] WAIT_SCHEDULER_TASK: Wait for scheduler "sha0" with entities [EventEntity, EventEntity]
  8: 0x0097 [0x00] END_REQSTACK()
```

### Event 65535.4

#### Metadata

| Field        | Value    |
|--------------|----------|
| Entrypoint   | 0x0098   |
| Data Size    | 15 bytes |
| Instructions | 3        |

```
      00 01 02 03 04 05 06 07  08 09 0A 0B 0C 0D 0E 0F
      -- -- -- -- -- -- -- --  -- -- -- -- -- -- -- --
0090:                          37 00 80 01 80 02 80 03          7.......
00A0: 80 5E 69 64 6C 30 00                              .^idl0.         
```

#### Opcodes

```
  0: 0x0098 [0x37] UPDATE_EVENT_POSITION_AND_DIR: x=-33.625*, z=-11.348*, y=0.000*, direction=359.9°*
  1: 0x00A1 [0x5E] EventEntity goes idle (kills current action) (animation: "idl0")
  2: 0x00A6 [0x00] END_REQSTACK()
```
