# 17731632

## Common Data

| Field            | Value                         |
|------------------|-------------------------------|
| Zone             | Chateau d'Oraguille (ID: 233) |
| Block Size       | 136 bytes                     |
| Total Events     | 6                             |
| References Count | 10                            |

## List of Events

| Event ID                 | Entrypoint   |   Size |   Instructions |
|--------------------------|--------------|--------|----------------|
| [65535](#event-65535)    | 0x0000       |      1 |              1 |
| [99](#event-99)          | 0x0001       |     20 |              3 |
| [65535.1](#event-655351) | 0x0015       |      7 |              3 |
| [65535.2](#event-655352) | 0x001C       |     14 |              4 |
| [96](#event-96)          | 0x002A       |      3 |              2 |
| [65535.3](#event-655353) | 0x002D       |     10 |              2 |

## DAT References (imed_data)

|   Index | Hex Value   |   Dec Value |
|---------|-------------|-------------|
|       0 | 0xFFFFFED2  |  4294966994 |
|       1 | 0xFFFFE889  |  4294961289 |
|       2 | 0x0000      |           0 |
|       3 | 0x0FCD      |        4045 |
|       4 | 0x0407      |        1031 |
|       5 | 0x003C      |          60 |
|       6 | 0x000D      |          13 |
|       7 | 0xFFFFFFE2  |  4294967266 |
|       8 | 0xFFFFC554  |  4294952276 |
|       9 | 0x0078      |         120 |

## Events

### Event 65535

#### Metadata

| Field        | Value   |
|--------------|---------|
| Entrypoint   | 0x0000  |
| Data Size    | 1 bytes |
| Instructions | 1       |

```
      00 01 02 03 04 05 06 07  08 09 0A 0B 0C 0D 0E 0F
      -- -- -- -- -- -- -- --  -- -- -- -- -- -- -- --
0000: 00                                                .               
```

#### Opcodes

```
  0: 0x0000 [0x00] END_REQSTACK()
```

### Event 99

#### Metadata

| Field        | Value    |
|--------------|----------|
| Entrypoint   | 0x0001   |
| Data Size    | 20 bytes |
| Instructions | 3        |

```
      00 01 02 03 04 05 06 07  08 09 0A 0B 0C 0D 0E 0F
      -- -- -- -- -- -- -- --  -- -- -- -- -- -- -- --
0000:    79 00 F8 FF FF 7F 02  90 0E 01 37 00 80 01 80   y.........7....
0010: 02 80 03 80 00                                    .....           
```

#### Opcodes

```
  0: 0x0001 [0x79] EventEntity looks at Destin (ID: 17731586/0x010E9002) (Basic look)
  1: 0x000B [0x37] UPDATE_EVENT_POSITION_AND_DIR: x=-0.302*, z=-6.007*, y=0.000*, direction=355.5°*
  2: 0x0014 [0x00] END_REQSTACK()
```

### Event 65535.1

#### Metadata

| Field        | Value   |
|--------------|---------|
| Entrypoint   | 0x0015  |
| Data Size    | 7 bytes |
| Instructions | 3       |

```
      00 01 02 03 04 05 06 07  08 09 0A 0B 0C 0D 0E 0F
      -- -- -- -- -- -- -- --  -- -- -- -- -- -- -- --
0010:                39 04 80  1C 05 80 00                   9......    
```

#### Opcodes

```
  0: 0x0015 [0x39] SET_ENTITY_DIRECTION(direction=5.7°*)
  1: 0x0018 [0x1C] WAIT(60* ticks)
  2: 0x001B [0x00] END_REQSTACK()
```

### Event 65535.2

#### Metadata

| Field        | Value    |
|--------------|----------|
| Entrypoint   | 0x001C   |
| Data Size    | 14 bytes |
| Instructions | 4        |

```
      00 01 02 03 04 05 06 07  08 09 0A 0B 0C 0D 0E 0F
      -- -- -- -- -- -- -- --  -- -- -- -- -- -- -- --
0010:                                      32 06 80 1F              2...
0020: 00 07 80 08 80 02 80 1F  01 00                    ..........      
```

#### Opcodes

```
  0: 0x001C [0x32] ExtData[1]->MainSpeed = 13* * 0.1
  1: 0x001F [0x1F] MOVE_ENTITY: EventEntity moves to X=-0.030*, Z=-15.020*, Y=0.000*
  2: 0x0027 [0x1F] MOVE_ENTITY: Update entity position (mode=1)
  3: 0x0029 [0x00] END_REQSTACK()
```

### Event 96

#### Metadata

| Field        | Value   |
|--------------|---------|
| Entrypoint   | 0x002A  |
| Data Size    | 3 bytes |
| Instructions | 2       |

```
      00 01 02 03 04 05 06 07  08 09 0A 0B 0C 0D 0E 0F
      -- -- -- -- -- -- -- --  -- -- -- -- -- -- -- --
0020:                                22 01 00                     "..   
```

#### Opcodes

```
  0: 0x002A [0x22] ENTITY_HIDE_FLAG(enabled=0x01)
  1: 0x002C [0x00] END_REQSTACK()
```

### Event 65535.3

#### Metadata

| Field        | Value    |
|--------------|----------|
| Entrypoint   | 0x002D   |
| Data Size    | 10 bytes |
| Instructions | 2        |

```
      00 01 02 03 04 05 06 07  08 09 0A 0B 0C 0D 0E 0F
      -- -- -- -- -- -- -- --  -- -- -- -- -- -- -- --
0020:                                         6C 2F 90               l/.
0030: 0E 01 02 80 09 80 00                              .......         
```

#### Opcodes

```
  0: 0x002D [0x6C] FADE_ENTITY_COLOR(entity_id=Unnamed NPC (ID: 17731631/0x010E902F), end_alpha=0*, fade_time=120*)
  1: 0x0036 [0x00] END_REQSTACK()
```
