# 17731630 - Shamonde

## Common Data

| Field            | Value                         |
|------------------|-------------------------------|
| Zone             | Chateau d'Oraguille (ID: 233) |
| Block Size       | 1280 bytes                    |
| Total Events     | 50                            |
| References Count | 57                            |

## List of Events

| Event ID                   | Entrypoint   |   Size |   Instructions |
|----------------------------|--------------|--------|----------------|
| [65535](#event-65535)      | 0x0000       |      1 |              1 |
| [32](#event-32)            | 0x0001       |     10 |              2 |
| [65535.1](#event-655351)   | 0x000B       |     31 |              7 |
| [65535.2](#event-655352)   | 0x002A       |     19 |              7 |
| [65535.3](#event-655353)   | 0x003D       |     20 |              7 |
| [100](#event-100)          | 0x0051       |     10 |              2 |
| [83](#event-83)            | 0x005B       |     18 |              4 |
| [65535.4](#event-655354)   | 0x006D       |     24 |              6 |
| [65535.5](#event-655355)   | 0x0085       |     15 |              5 |
| [65535.6](#event-655356)   | 0x0094       |     15 |              5 |
| [65535.7](#event-655357)   | 0x00A3       |     15 |              5 |
| [65535.8](#event-655358)   | 0x00B2       |     19 |              3 |
| [65535.9](#event-655359)   | 0x00C5       |     19 |              3 |
| [65535.10](#event-6553510) | 0x00D8       |     34 |              4 |
| [65535.11](#event-6553511) | 0x00FA       |     14 |              2 |
| [65535.12](#event-6553512) | 0x0108       |     19 |              3 |
| [65535.13](#event-6553513) | 0x011B       |     19 |              3 |
| [65535.14](#event-6553514) | 0x012E       |     29 |              3 |
| [65535.15](#event-6553515) | 0x014B       |     44 |              4 |
| [65535.16](#event-6553516) | 0x0177       |     14 |              2 |
| [65535.17](#event-6553517) | 0x0185       |     16 |              2 |
| [65535.18](#event-6553518) | 0x0195       |     14 |              2 |
| [65535.19](#event-6553519) | 0x01A3       |     16 |              2 |
| [65535.20](#event-6553520) | 0x01B3       |     14 |              2 |
| [65535.21](#event-6553521) | 0x01C1       |     16 |              2 |
| [65535.22](#event-6553522) | 0x01D1       |     14 |              2 |
| [65535.23](#event-6553523) | 0x01DF       |     16 |              2 |
| [65535.24](#event-6553524) | 0x01EF       |     14 |              2 |
| [65535.25](#event-6553525) | 0x01FD       |     44 |              4 |
| [65535.26](#event-6553526) | 0x0229       |     14 |              2 |
| [65535.27](#event-6553527) | 0x0237       |     16 |              2 |
| [65535.28](#event-6553528) | 0x0247       |     14 |              2 |
| [65535.29](#event-6553529) | 0x0255       |     16 |              2 |
| [65535.30](#event-6553530) | 0x0265       |     14 |              2 |
| [65535.31](#event-6553531) | 0x0273       |     16 |              2 |
| [65535.32](#event-6553532) | 0x0283       |     14 |              2 |
| [65535.33](#event-6553533) | 0x0291       |     16 |              2 |
| [65535.34](#event-6553534) | 0x02A1       |     14 |              2 |
| [65535.35](#event-6553535) | 0x02AF       |     16 |              2 |
| [65535.36](#event-6553536) | 0x02BF       |     14 |              2 |
| [555](#event-555)          | 0x02CD       |      1 |              1 |
| [65535.37](#event-6553537) | 0x02CE       |     10 |              2 |
| [65535.38](#event-6553538) | 0x02D8       |     10 |              2 |
| [65535.39](#event-6553539) | 0x02E2       |     14 |              4 |
| [65535.40](#event-6553540) | 0x02F0       |     16 |              5 |
| [65535.41](#event-6553541) | 0x0300       |     45 |              9 |
| [65535.42](#event-6553542) | 0x032D       |      5 |              3 |
| [65535.43](#event-6553543) | 0x0332       |      5 |              3 |
| [65535.44](#event-6553544) | 0x0337       |      5 |              3 |
| [65535.45](#event-6553545) | 0x033C       |      5 |              3 |

## DAT References (imed_data)

|   Index | Hex Value   |   Dec Value |
|---------|-------------|-------------|
|       0 | 0xFFFFFFFF  |  4294967295 |
|       1 | 0x3C00      |       15360 |
|       2 | 0xFFFFFA25  |  4294965797 |
|       3 | 0x0C00      |        3072 |
|       4 | 0x0007      |           7 |
|       5 | 0x002B      |          43 |
|       6 | 0x4F1F      |       20255 |
|       7 | 0x0172      |         370 |
|       8 | 0xFFFFFFD3  |  4294967251 |
|       9 | 0x75F4      |       30196 |
|      10 | 0xFFFFF543  |  4294964547 |
|      11 | 0x0C06      |        3078 |
|      12 | 0xFFFFFA04  |  4294965764 |
|      13 | 0x87EB      |       34795 |
|      14 | 0xFFFFF448  |  4294964296 |
|      15 | 0x03D6      |         982 |
|      16 | 0xFFFFFAAE  |  4294965934 |
|      17 | 0x80B6      |       32950 |
|      18 | 0xFFFFF449  |  4294964297 |
|      19 | 0x00B4      |         180 |
|      20 | 0xFFFFFBF0  |  4294966256 |
|      21 | 0x68CA      |       26826 |
|      22 | 0xFFFFFA24  |  4294965796 |
|      23 | 0x0C52      |        3154 |
|      24 | 0x0000      |           0 |
|      25 | 0x0001      |           1 |
|      26 | 0x0080      |         128 |
|      27 | 0x000D      |          13 |
|      28 | 0xFFFE8A18  |  4294871576 |
|      29 | 0x128A0     |       75936 |
|      30 | 0x018E      |         398 |
|      31 | 0xFFFE74F1  |  4294866161 |
|      32 | 0x11EF0     |       73456 |
|      33 | 0x0709      |        1801 |
|      34 | 0xFFFE7188  |  4294865288 |
|      35 | 0x11583     |       71043 |
|      36 | 0xFFFE69FB  |  4294863355 |
|      37 | 0xFA39      |       64057 |
|      38 | 0x05D4      |        1492 |
|      39 | 0x0087      |         135 |
|      40 | 0x003C      |          60 |
|      41 | 0x0078      |         120 |
|      42 | 0xFFFFFF66  |  4294967142 |
|      43 | 0xFFFFC83B  |  4294953019 |
|      44 | 0x0BC5      |        3013 |
|      45 | 0x07EE      |        2030 |
|      46 | 0xFFFFFEFD  |  4294967037 |
|      47 | 0x0BDC      |        3036 |
|      48 | 0x038C      |         908 |
|      49 | 0xFFFFD99D  |  4294957469 |
|      50 | 0x0751      |        1873 |
|      51 | 0xFFFFD9B3  |  4294957491 |
|      52 | 0x0400      |        1024 |
|      53 | 0x1DCF      |        7631 |
|      54 | 0x1DD1      |        7633 |
|      55 | 0x1DD3      |        7635 |
|      56 | 0x1DD5      |        7637 |

## String References

- **7631**: It has come to my attention that thieves have ransacked the queen's chambers. Inform me immediately of what was stolen!
- **7633**: Preposterous! If so, why did the thieves enter in the first place? Maybe the queen had something hidden...
- **7635**: If I knew, I wouldn't be asking you! But thieves would not enter without a purpose!
- **7637**: I shall be waiting for your report. Hmph! Not even the Goddess Altana will forgive such a crime!

## Events

### Event 65535

#### Metadata

| Field        | Value   |
|--------------|---------|
| Entrypoint   | 0x0000  |
| Data Size    | 1 bytes |
| Instructions | 1       |

```
      00 01 02 03 04 05 06 07  08 09 0A 0B 0C 0D 0E 0F
      -- -- -- -- -- -- -- --  -- -- -- -- -- -- -- --
0000: 00                                                .               
```

#### Opcodes

```
  0: 0x0000 [0x00] END_REQSTACK()
```

### Event 32

#### Metadata

| Field        | Value    |
|--------------|----------|
| Entrypoint   | 0x0001   |
| Data Size    | 10 bytes |
| Instructions | 2        |

```
      00 01 02 03 04 05 06 07  08 09 0A 0B 0C 0D 0E 0F
      -- -- -- -- -- -- -- --  -- -- -- -- -- -- -- --
0000:    37 00 80 01 80 02 80  03 80 00                  7.........     
```

#### Opcodes

```
  0: 0x0001 [0x37] UPDATE_EVENT_POSITION_AND_DIR: x=-0.001*, z=15.360*, y=-1.499*, direction=270.0°*
  1: 0x000A [0x00] END_REQSTACK()
```

### Event 65535.1

#### Metadata

| Field        | Value    |
|--------------|----------|
| Entrypoint   | 0x000B   |
| Data Size    | 31 bytes |
| Instructions | 7        |

```
      00 01 02 03 04 05 06 07  08 09 0A 0B 0C 0D 0E 0F
      -- -- -- -- -- -- -- --  -- -- -- -- -- -- -- --
0000:                                   32 04 80 31 00             2..1.
0010: 05 80 06 80 02 80 07 80  31 01 37 08 80 09 80 0A  ........1.7.....
0020: 80 0B 80 84 80 F8 FF FF  7F 00                    ..........      
```

#### Opcodes

```
  0: 0x000B [0x32] ExtData[1]->MainSpeed = 7* * 0.1
  1: 0x000E [0x31] UPDATE_ENTITY_POSITION: Set EventEntity goal position to X=0.043*, Z=20.255*, Y=-1.499*, Time=370*
  2: 0x0018 [0x31] UPDATE_ENTITY_POSITION: Move EventEntity towards goal position
  3: 0x001A [0x37] UPDATE_EVENT_POSITION_AND_DIR: x=-0.045*, z=30.196*, y=-2.749*, direction=270.5°*
  4: 0x0023 [0x84] ADJUST_RENDER_FLAGS3_BIT0()
  5: 0x0024 [0x80] LOAD_WAIT(entity=EventEntity)
  6: 0x0029 [0x00] END_REQSTACK()
```

### Event 65535.2

#### Metadata

| Field        | Value    |
|--------------|----------|
| Entrypoint   | 0x002A   |
| Data Size    | 19 bytes |
| Instructions | 7        |

```
      00 01 02 03 04 05 06 07  08 09 0A 0B 0C 0D 0E 0F
      -- -- -- -- -- -- -- --  -- -- -- -- -- -- -- --
0020:                                1F 00 0C 80 0D 80            ......
0030: 0E 80 1F 01 6F 1E 03 90  0E 01 6F 70 00           ....o.....op.   
```

#### Opcodes

```
  0: 0x002A [0x1F] MOVE_ENTITY: EventEntity moves to X=-1.532*, Z=34.795*, Y=-3.000*
  1: 0x0032 [0x1F] MOVE_ENTITY: Update entity position (mode=1)
  2: 0x0034 [0x6F] WAIT_FRAME_DELAY: Yield until WaitTime reaches zero
  3: 0x0035 [0x1E] EventEntity looks at Trion (ID: 17731587/0x010E9003) and starts talking
  4: 0x003A [0x6F] WAIT_FRAME_DELAY: Yield until WaitTime reaches zero
  5: 0x003B [0x70] WAIT_ENTITY_RENDER_FLAG: Wait while EventEntity->Render.Flags3 bit 2 is set (cancel turn if not)
  6: 0x003C [0x00] END_REQSTACK()
```

### Event 65535.3

#### Metadata

| Field        | Value    |
|--------------|----------|
| Entrypoint   | 0x003D   |
| Data Size    | 20 bytes |
| Instructions | 7        |

```
      00 01 02 03 04 05 06 07  08 09 0A 0B 0C 0D 0E 0F
      -- -- -- -- -- -- -- --  -- -- -- -- -- -- -- --
0030:                                         39 0F 80               9..
0040: 6F 70 31 00 10 80 11 80  12 80 13 80 31 01 22 01  op1.........1.".
0050: 00                                                .               
```

#### Opcodes

```
  0: 0x003D [0x39] SET_ENTITY_DIRECTION(direction=5.4°*)
  1: 0x0040 [0x6F] WAIT_FRAME_DELAY: Yield until WaitTime reaches zero
  2: 0x0041 [0x70] WAIT_ENTITY_RENDER_FLAG: Wait while EventEntity->Render.Flags3 bit 2 is set (cancel turn if not)
  3: 0x0042 [0x31] UPDATE_ENTITY_POSITION: Set EventEntity goal position to X=-1.362*, Z=32.950*, Y=-2.999*, Time=180*
  4: 0x004C [0x31] UPDATE_ENTITY_POSITION: Move EventEntity towards goal position
  5: 0x004E [0x22] ENTITY_HIDE_FLAG(enabled=0x01)
  6: 0x0050 [0x00] END_REQSTACK()
```

### Event 100

#### Metadata

| Field        | Value    |
|--------------|----------|
| Entrypoint   | 0x0051   |
| Data Size    | 10 bytes |
| Instructions | 2        |

```
      00 01 02 03 04 05 06 07  08 09 0A 0B 0C 0D 0E 0F
      -- -- -- -- -- -- -- --  -- -- -- -- -- -- -- --
0050:    37 14 80 15 80 16 80  17 80 00                  7.........     
```

#### Opcodes

```
  0: 0x0051 [0x37] UPDATE_EVENT_POSITION_AND_DIR: x=-1.040*, z=26.826*, y=-1.500*, direction=277.2°*
  1: 0x005A [0x00] END_REQSTACK()
```

### Event 83

#### Metadata

| Field        | Value    |
|--------------|----------|
| Entrypoint   | 0x005B   |
| Data Size    | 18 bytes |
| Instructions | 4        |

```
      00 01 02 03 04 05 06 07  08 09 0A 0B 0C 0D 0E 0F
      -- -- -- -- -- -- -- --  -- -- -- -- -- -- -- --
0050:                                   22 00 2F 00 F8             "./..
0060: FF FF 7F 6C F8 FF FF 7F  18 80 19 80 00           ...l.........   
```

#### Opcodes

```
  0: 0x005B [0x22] ENTITY_HIDE_FLAG(enabled=0x00)
  1: 0x005D [0x2F] EventEntity->Render.Flags0 &= ~0x80000 // Bit 19
  2: 0x0063 [0x6C] FADE_ENTITY_COLOR(entity_id=EventEntity, end_alpha=0*, fade_time=1*)
  3: 0x006C [0x00] END_REQSTACK()
```

### Event 65535.4

#### Metadata

| Field        | Value    |
|--------------|----------|
| Entrypoint   | 0x006D   |
| Data Size    | 24 bytes |
| Instructions | 6        |

```
      00 01 02 03 04 05 06 07  08 09 0A 0B 0C 0D 0E 0F
      -- -- -- -- -- -- -- --  -- -- -- -- -- -- -- --
0060:                                         6C F8 FF               l..
0070: FF 7F 1A 80 19 80 32 1B  80 1F 00 1C 80 1D 80 1E  ......2.........
0080: 80 1F 01 6F 00                                    ...o.           
```

#### Opcodes

```
  0: 0x006D [0x6C] FADE_ENTITY_COLOR(entity_id=EventEntity, end_alpha=128*, fade_time=1*)
  1: 0x0076 [0x32] ExtData[1]->MainSpeed = 13* * 0.1
  2: 0x0079 [0x1F] MOVE_ENTITY: EventEntity moves to X=-95.720*, Z=75.936*, Y=0.398*
  3: 0x0081 [0x1F] MOVE_ENTITY: Update entity position (mode=1)
  4: 0x0083 [0x6F] WAIT_FRAME_DELAY: Yield until WaitTime reaches zero
  5: 0x0084 [0x00] END_REQSTACK()
```

### Event 65535.5

#### Metadata

| Field        | Value    |
|--------------|----------|
| Entrypoint   | 0x0085   |
| Data Size    | 15 bytes |
| Instructions | 5        |

```
      00 01 02 03 04 05 06 07  08 09 0A 0B 0C 0D 0E 0F
      -- -- -- -- -- -- -- --  -- -- -- -- -- -- -- --
0080:                84 37 1F  80 20 80 1E 80 21 80 1C       .7.. ...!..
0090: 19 80 84 00                                       ....            
```

#### Opcodes

```
  0: 0x0085 [0x84] ADJUST_RENDER_FLAGS3_BIT0()
  1: 0x0086 [0x37] UPDATE_EVENT_POSITION_AND_DIR: x=-101.135*, z=73.456*, y=0.398*, direction=158.3°*
  2: 0x008F [0x1C] WAIT(1* ticks)
  3: 0x0092 [0x84] ADJUST_RENDER_FLAGS3_BIT0()
  4: 0x0093 [0x00] END_REQSTACK()
```

### Event 65535.6

#### Metadata

| Field        | Value    |
|--------------|----------|
| Entrypoint   | 0x0094   |
| Data Size    | 15 bytes |
| Instructions | 5        |

```
      00 01 02 03 04 05 06 07  08 09 0A 0B 0C 0D 0E 0F
      -- -- -- -- -- -- -- --  -- -- -- -- -- -- -- --
0090:             32 1B 80 1F  00 22 80 23 80 1E 80 1F      2....".#....
00A0: 01 6F 00                                          .o.             
```

#### Opcodes

```
  0: 0x0094 [0x32] ExtData[1]->MainSpeed = 13* * 0.1
  1: 0x0097 [0x1F] MOVE_ENTITY: EventEntity moves to X=-102.008*, Z=71.043*, Y=0.398*
  2: 0x009F [0x1F] MOVE_ENTITY: Update entity position (mode=1)
  3: 0x00A1 [0x6F] WAIT_FRAME_DELAY: Yield until WaitTime reaches zero
  4: 0x00A2 [0x00] END_REQSTACK()
```

### Event 65535.7

#### Metadata

| Field        | Value    |
|--------------|----------|
| Entrypoint   | 0x00A3   |
| Data Size    | 15 bytes |
| Instructions | 5        |

```
      00 01 02 03 04 05 06 07  08 09 0A 0B 0C 0D 0E 0F
      -- -- -- -- -- -- -- --  -- -- -- -- -- -- -- --
00A0:          84 37 24 80 25  80 1E 80 26 80 1C 19 80     .7$.%...&....
00B0: 84 00                                             ..              
```

#### Opcodes

```
  0: 0x00A3 [0x84] ADJUST_RENDER_FLAGS3_BIT0()
  1: 0x00A4 [0x37] UPDATE_EVENT_POSITION_AND_DIR: x=-103.941*, z=64.057*, y=0.398*, direction=131.1°*
  2: 0x00AD [0x1C] WAIT(1* ticks)
  3: 0x00B0 [0x84] ADJUST_RENDER_FLAGS3_BIT0()
  4: 0x00B1 [0x00] END_REQSTACK()
```

### Event 65535.8

#### Metadata

| Field        | Value    |
|--------------|----------|
| Entrypoint   | 0x00B2   |
| Data Size    | 19 bytes |
| Instructions | 3        |

```
      00 01 02 03 04 05 06 07  08 09 0A 0B 0C 0D 0E 0F
      -- -- -- -- -- -- -- --  -- -- -- -- -- -- -- --
00B0:       5B 27 80 F8 FF FF  7F F8 FF FF 7F 74 6C 6B    ['.........tlk
00C0: 30 1C 28 80 00                                    0.(..           
```

#### Opcodes

```
  0: 0x00B2 [0x5B] LOAD_EXT_SCHEDULER: Load scheduler "tlk0" with entities [EventEntity, EventEntity], work=135*
  1: 0x00C1 [0x1C] WAIT(60* ticks)
  2: 0x00C4 [0x00] END_REQSTACK()
```

### Event 65535.9

#### Metadata

| Field        | Value    |
|--------------|----------|
| Entrypoint   | 0x00C5   |
| Data Size    | 19 bytes |
| Instructions | 3        |

```
      00 01 02 03 04 05 06 07  08 09 0A 0B 0C 0D 0E 0F
      -- -- -- -- -- -- -- --  -- -- -- -- -- -- -- --
00C0:                5B 27 80  F8 FF FF 7F F8 FF FF 7F       ['.........
00D0: 74 6C 6B 31 1C 28 80 00                           tlk1.(..        
```

#### Opcodes

```
  0: 0x00C5 [0x5B] LOAD_EXT_SCHEDULER: Load scheduler "tlk1" with entities [EventEntity, EventEntity], work=135*
  1: 0x00D4 [0x1C] WAIT(60* ticks)
  2: 0x00D7 [0x00] END_REQSTACK()
```

### Event 65535.10

#### Metadata

| Field        | Value    |
|--------------|----------|
| Entrypoint   | 0x00D8   |
| Data Size    | 34 bytes |
| Instructions | 4        |

```
      00 01 02 03 04 05 06 07  08 09 0A 0B 0C 0D 0E 0F
      -- -- -- -- -- -- -- --  -- -- -- -- -- -- -- --
00D0:                          5B 27 80 F8 FF FF 7F F8          ['......
00E0: FF FF 7F 61 6E 67 30 1C  29 80 5B 27 80 F8 FF FF  ...ang0.).['....
00F0: 7F F8 FF FF 7F 61 6E 67  31 00                    .....ang1.      
```

#### Opcodes

```
  0: 0x00D8 [0x5B] LOAD_EXT_SCHEDULER: Load scheduler "ang0" with entities [EventEntity, EventEntity], work=135*
  1: 0x00E7 [0x1C] WAIT(120* ticks)
  2: 0x00EA [0x5B] LOAD_EXT_SCHEDULER: Load scheduler "ang1" with entities [EventEntity, EventEntity], work=135*
  3: 0x00F9 [0x00] END_REQSTACK()
```

### Event 65535.11

#### Metadata

| Field        | Value    |
|--------------|----------|
| Entrypoint   | 0x00FA   |
| Data Size    | 14 bytes |
| Instructions | 2        |

```
      00 01 02 03 04 05 06 07  08 09 0A 0B 0C 0D 0E 0F
      -- -- -- -- -- -- -- --  -- -- -- -- -- -- -- --
00F0:                                53 F8 FF FF 7F F8            S.....
0100: FF FF 7F 61 6E 67 31 00                           ...ang1.        
```

#### Opcodes

```
  0: 0x00FA [0x53] WAIT_SCHEDULER_TASK: Wait for scheduler "ang1" with entities [EventEntity, EventEntity]
  1: 0x0107 [0x00] END_REQSTACK()
```

### Event 65535.12

#### Metadata

| Field        | Value    |
|--------------|----------|
| Entrypoint   | 0x0108   |
| Data Size    | 19 bytes |
| Instructions | 3        |

```
      00 01 02 03 04 05 06 07  08 09 0A 0B 0C 0D 0E 0F
      -- -- -- -- -- -- -- --  -- -- -- -- -- -- -- --
0100:                          5B 27 80 F8 FF FF 7F F8          ['......
0110: FF FF 7F 74 68 6B 31 1C  28 80 00                 ...thk1.(..     
```

#### Opcodes

```
  0: 0x0108 [0x5B] LOAD_EXT_SCHEDULER: Load scheduler "thk1" with entities [EventEntity, EventEntity], work=135*
  1: 0x0117 [0x1C] WAIT(60* ticks)
  2: 0x011A [0x00] END_REQSTACK()
```

### Event 65535.13

#### Metadata

| Field        | Value    |
|--------------|----------|
| Entrypoint   | 0x011B   |
| Data Size    | 19 bytes |
| Instructions | 3        |

```
      00 01 02 03 04 05 06 07  08 09 0A 0B 0C 0D 0E 0F
      -- -- -- -- -- -- -- --  -- -- -- -- -- -- -- --
0110:                                   5B 27 80 F8 FF             ['...
0120: FF 7F F8 FF FF 7F 74 68  6B 32 1C 28 80 00        ......thk2.(..  
```

#### Opcodes

```
  0: 0x011B [0x5B] LOAD_EXT_SCHEDULER: Load scheduler "thk2" with entities [EventEntity, EventEntity], work=135*
  1: 0x012A [0x1C] WAIT(60* ticks)
  2: 0x012D [0x00] END_REQSTACK()
```

### Event 65535.14

#### Metadata

| Field        | Value    |
|--------------|----------|
| Entrypoint   | 0x012E   |
| Data Size    | 29 bytes |
| Instructions | 3        |

```
      00 01 02 03 04 05 06 07  08 09 0A 0B 0C 0D 0E 0F
      -- -- -- -- -- -- -- --  -- -- -- -- -- -- -- --
0120:                                            5B 27                ['
0130: 80 F8 FF FF 7F F8 FF FF  7F 69 6E 6F 30 53 F8 FF  .........ino0S..
0140: FF 7F F8 FF FF 7F 69 6E  6F 30 00                 ......ino0.     
```

#### Opcodes

```
  0: 0x012E [0x5B] LOAD_EXT_SCHEDULER: Load scheduler "ino0" with entities [EventEntity, EventEntity], work=135*
  1: 0x013D [0x53] WAIT_SCHEDULER_TASK: Wait for scheduler "ino0" with entities [EventEntity, EventEntity]
  2: 0x014A [0x00] END_REQSTACK()
```

### Event 65535.15

#### Metadata

| Field        | Value    |
|--------------|----------|
| Entrypoint   | 0x014B   |
| Data Size    | 44 bytes |
| Instructions | 4        |

```
      00 01 02 03 04 05 06 07  08 09 0A 0B 0C 0D 0E 0F
      -- -- -- -- -- -- -- --  -- -- -- -- -- -- -- --
0140:                                   5B 27 80 F8 FF             ['...
0150: FF 7F F8 FF FF 7F 65 6E  7A 30 53 F8 FF FF 7F F8  ......enz0S.....
0160: FF FF 7F 65 6E 7A 30 5B  27 80 F8 FF FF 7F F8 FF  ...enz0['.......
0170: FF 7F 65 6E 7A 31 00                              ..enz1.         
```

#### Opcodes

```
  0: 0x014B [0x5B] LOAD_EXT_SCHEDULER: Load scheduler "enz0" with entities [EventEntity, EventEntity], work=135*
  1: 0x015A [0x53] WAIT_SCHEDULER_TASK: Wait for scheduler "enz0" with entities [EventEntity, EventEntity]
  2: 0x0167 [0x5B] LOAD_EXT_SCHEDULER: Load scheduler "enz1" with entities [EventEntity, EventEntity], work=135*
  3: 0x0176 [0x00] END_REQSTACK()
```

### Event 65535.16

#### Metadata

| Field        | Value    |
|--------------|----------|
| Entrypoint   | 0x0177   |
| Data Size    | 14 bytes |
| Instructions | 2        |

```
      00 01 02 03 04 05 06 07  08 09 0A 0B 0C 0D 0E 0F
      -- -- -- -- -- -- -- --  -- -- -- -- -- -- -- --
0170:                      53  F8 FF FF 7F F8 FF FF 7F         S........
0180: 65 6E 7A 31 00                                    enz1.           
```

#### Opcodes

```
  0: 0x0177 [0x53] WAIT_SCHEDULER_TASK: Wait for scheduler "enz1" with entities [EventEntity, EventEntity]
  1: 0x0184 [0x00] END_REQSTACK()
```

### Event 65535.17

#### Metadata

| Field        | Value    |
|--------------|----------|
| Entrypoint   | 0x0185   |
| Data Size    | 16 bytes |
| Instructions | 2        |

```
      00 01 02 03 04 05 06 07  08 09 0A 0B 0C 0D 0E 0F
      -- -- -- -- -- -- -- --  -- -- -- -- -- -- -- --
0180:                5B 27 80  F8 FF FF 7F F8 FF FF 7F       ['.........
0190: 74 6C 6B 30 00                                    tlk0.           
```

#### Opcodes

```
  0: 0x0185 [0x5B] LOAD_EXT_SCHEDULER: Load scheduler "tlk0" with entities [EventEntity, EventEntity], work=135*
  1: 0x0194 [0x00] END_REQSTACK()
```

### Event 65535.18

#### Metadata

| Field        | Value    |
|--------------|----------|
| Entrypoint   | 0x0195   |
| Data Size    | 14 bytes |
| Instructions | 2        |

```
      00 01 02 03 04 05 06 07  08 09 0A 0B 0C 0D 0E 0F
      -- -- -- -- -- -- -- --  -- -- -- -- -- -- -- --
0190:                53 F8 FF  FF 7F F8 FF FF 7F 74 6C       S........tl
01A0: 6B 30 00                                          k0.             
```

#### Opcodes

```
  0: 0x0195 [0x53] WAIT_SCHEDULER_TASK: Wait for scheduler "tlk0" with entities [EventEntity, EventEntity]
  1: 0x01A2 [0x00] END_REQSTACK()
```

### Event 65535.19

#### Metadata

| Field        | Value    |
|--------------|----------|
| Entrypoint   | 0x01A3   |
| Data Size    | 16 bytes |
| Instructions | 2        |

```
      00 01 02 03 04 05 06 07  08 09 0A 0B 0C 0D 0E 0F
      -- -- -- -- -- -- -- --  -- -- -- -- -- -- -- --
01A0:          5B 27 80 F8 FF  FF 7F F8 FF FF 7F 74 6C     ['.........tl
01B0: 6B 31 00                                          k1.             
```

#### Opcodes

```
  0: 0x01A3 [0x5B] LOAD_EXT_SCHEDULER: Load scheduler "tlk1" with entities [EventEntity, EventEntity], work=135*
  1: 0x01B2 [0x00] END_REQSTACK()
```

### Event 65535.20

#### Metadata

| Field        | Value    |
|--------------|----------|
| Entrypoint   | 0x01B3   |
| Data Size    | 14 bytes |
| Instructions | 2        |

```
      00 01 02 03 04 05 06 07  08 09 0A 0B 0C 0D 0E 0F
      -- -- -- -- -- -- -- --  -- -- -- -- -- -- -- --
01B0:          53 F8 FF FF 7F  F8 FF FF 7F 74 6C 6B 31     S........tlk1
01C0: 00                                                .               
```

#### Opcodes

```
  0: 0x01B3 [0x53] WAIT_SCHEDULER_TASK: Wait for scheduler "tlk1" with entities [EventEntity, EventEntity]
  1: 0x01C0 [0x00] END_REQSTACK()
```

### Event 65535.21

#### Metadata

| Field        | Value    |
|--------------|----------|
| Entrypoint   | 0x01C1   |
| Data Size    | 16 bytes |
| Instructions | 2        |

```
      00 01 02 03 04 05 06 07  08 09 0A 0B 0C 0D 0E 0F
      -- -- -- -- -- -- -- --  -- -- -- -- -- -- -- --
01C0:    5B 27 80 F8 FF FF 7F  F8 FF FF 7F 61 6E 67 30   ['.........ang0
01D0: 00                                                .               
```

#### Opcodes

```
  0: 0x01C1 [0x5B] LOAD_EXT_SCHEDULER: Load scheduler "ang0" with entities [EventEntity, EventEntity], work=135*
  1: 0x01D0 [0x00] END_REQSTACK()
```

### Event 65535.22

#### Metadata

| Field        | Value    |
|--------------|----------|
| Entrypoint   | 0x01D1   |
| Data Size    | 14 bytes |
| Instructions | 2        |

```
      00 01 02 03 04 05 06 07  08 09 0A 0B 0C 0D 0E 0F
      -- -- -- -- -- -- -- --  -- -- -- -- -- -- -- --
01D0:    53 F8 FF FF 7F F8 FF  FF 7F 61 6E 67 30 00      S........ang0. 
```

#### Opcodes

```
  0: 0x01D1 [0x53] WAIT_SCHEDULER_TASK: Wait for scheduler "ang0" with entities [EventEntity, EventEntity]
  1: 0x01DE [0x00] END_REQSTACK()
```

### Event 65535.23

#### Metadata

| Field        | Value    |
|--------------|----------|
| Entrypoint   | 0x01DF   |
| Data Size    | 16 bytes |
| Instructions | 2        |

```
      00 01 02 03 04 05 06 07  08 09 0A 0B 0C 0D 0E 0F
      -- -- -- -- -- -- -- --  -- -- -- -- -- -- -- --
01D0:                                               5B                 [
01E0: 27 80 F8 FF FF 7F F8 FF  FF 7F 61 6E 67 31 00     '.........ang1. 
```

#### Opcodes

```
  0: 0x01DF [0x5B] LOAD_EXT_SCHEDULER: Load scheduler "ang1" with entities [EventEntity, EventEntity], work=135*
  1: 0x01EE [0x00] END_REQSTACK()
```

### Event 65535.24

#### Metadata

| Field        | Value    |
|--------------|----------|
| Entrypoint   | 0x01EF   |
| Data Size    | 14 bytes |
| Instructions | 2        |

```
      00 01 02 03 04 05 06 07  08 09 0A 0B 0C 0D 0E 0F
      -- -- -- -- -- -- -- --  -- -- -- -- -- -- -- --
01E0:                                               53                 S
01F0: F8 FF FF 7F F8 FF FF 7F  61 6E 67 31 00           ........ang1.   
```

#### Opcodes

```
  0: 0x01EF [0x53] WAIT_SCHEDULER_TASK: Wait for scheduler "ang1" with entities [EventEntity, EventEntity]
  1: 0x01FC [0x00] END_REQSTACK()
```

### Event 65535.25

#### Metadata

| Field        | Value    |
|--------------|----------|
| Entrypoint   | 0x01FD   |
| Data Size    | 44 bytes |
| Instructions | 4        |

```
      00 01 02 03 04 05 06 07  08 09 0A 0B 0C 0D 0E 0F
      -- -- -- -- -- -- -- --  -- -- -- -- -- -- -- --
01F0:                                         5B 27 80               ['.
0200: F8 FF FF 7F F8 FF FF 7F  65 6E 7A 30 53 F8 FF FF  ........enz0S...
0210: 7F F8 FF FF 7F 65 6E 7A  30 5B 27 80 F8 FF FF 7F  .....enz0['.....
0220: F8 FF FF 7F 65 6E 7A 31  00                       ....enz1.       
```

#### Opcodes

```
  0: 0x01FD [0x5B] LOAD_EXT_SCHEDULER: Load scheduler "enz0" with entities [EventEntity, EventEntity], work=135*
  1: 0x020C [0x53] WAIT_SCHEDULER_TASK: Wait for scheduler "enz0" with entities [EventEntity, EventEntity]
  2: 0x0219 [0x5B] LOAD_EXT_SCHEDULER: Load scheduler "enz1" with entities [EventEntity, EventEntity], work=135*
  3: 0x0228 [0x00] END_REQSTACK()
```

### Event 65535.26

#### Metadata

| Field        | Value    |
|--------------|----------|
| Entrypoint   | 0x0229   |
| Data Size    | 14 bytes |
| Instructions | 2        |

```
      00 01 02 03 04 05 06 07  08 09 0A 0B 0C 0D 0E 0F
      -- -- -- -- -- -- -- --  -- -- -- -- -- -- -- --
0220:                             53 F8 FF FF 7F F8 FF           S......
0230: FF 7F 65 6E 7A 31 00                              ..enz1.         
```

#### Opcodes

```
  0: 0x0229 [0x53] WAIT_SCHEDULER_TASK: Wait for scheduler "enz1" with entities [EventEntity, EventEntity]
  1: 0x0236 [0x00] END_REQSTACK()
```

### Event 65535.27

#### Metadata

| Field        | Value    |
|--------------|----------|
| Entrypoint   | 0x0237   |
| Data Size    | 16 bytes |
| Instructions | 2        |

```
      00 01 02 03 04 05 06 07  08 09 0A 0B 0C 0D 0E 0F
      -- -- -- -- -- -- -- --  -- -- -- -- -- -- -- --
0230:                      5B  27 80 F8 FF FF 7F F8 FF         ['.......
0240: FF 7F 69 6E 6F 30 00                              ..ino0.         
```

#### Opcodes

```
  0: 0x0237 [0x5B] LOAD_EXT_SCHEDULER: Load scheduler "ino0" with entities [EventEntity, EventEntity], work=135*
  1: 0x0246 [0x00] END_REQSTACK()
```

### Event 65535.28

#### Metadata

| Field        | Value    |
|--------------|----------|
| Entrypoint   | 0x0247   |
| Data Size    | 14 bytes |
| Instructions | 2        |

```
      00 01 02 03 04 05 06 07  08 09 0A 0B 0C 0D 0E 0F
      -- -- -- -- -- -- -- --  -- -- -- -- -- -- -- --
0240:                      53  F8 FF FF 7F F8 FF FF 7F         S........
0250: 69 6E 6F 30 00                                    ino0.           
```

#### Opcodes

```
  0: 0x0247 [0x53] WAIT_SCHEDULER_TASK: Wait for scheduler "ino0" with entities [EventEntity, EventEntity]
  1: 0x0254 [0x00] END_REQSTACK()
```

### Event 65535.29

#### Metadata

| Field        | Value    |
|--------------|----------|
| Entrypoint   | 0x0255   |
| Data Size    | 16 bytes |
| Instructions | 2        |

```
      00 01 02 03 04 05 06 07  08 09 0A 0B 0C 0D 0E 0F
      -- -- -- -- -- -- -- --  -- -- -- -- -- -- -- --
0250:                5B 27 80  F8 FF FF 7F F8 FF FF 7F       ['.........
0260: 74 68 6B 31 00                                    thk1.           
```

#### Opcodes

```
  0: 0x0255 [0x5B] LOAD_EXT_SCHEDULER: Load scheduler "thk1" with entities [EventEntity, EventEntity], work=135*
  1: 0x0264 [0x00] END_REQSTACK()
```

### Event 65535.30

#### Metadata

| Field        | Value    |
|--------------|----------|
| Entrypoint   | 0x0265   |
| Data Size    | 14 bytes |
| Instructions | 2        |

```
      00 01 02 03 04 05 06 07  08 09 0A 0B 0C 0D 0E 0F
      -- -- -- -- -- -- -- --  -- -- -- -- -- -- -- --
0260:                53 F8 FF  FF 7F F8 FF FF 7F 74 68       S........th
0270: 6B 31 00                                          k1.             
```

#### Opcodes

```
  0: 0x0265 [0x53] WAIT_SCHEDULER_TASK: Wait for scheduler "thk1" with entities [EventEntity, EventEntity]
  1: 0x0272 [0x00] END_REQSTACK()
```

### Event 65535.31

#### Metadata

| Field        | Value    |
|--------------|----------|
| Entrypoint   | 0x0273   |
| Data Size    | 16 bytes |
| Instructions | 2        |

```
      00 01 02 03 04 05 06 07  08 09 0A 0B 0C 0D 0E 0F
      -- -- -- -- -- -- -- --  -- -- -- -- -- -- -- --
0270:          5B 27 80 F8 FF  FF 7F F8 FF FF 7F 74 68     ['.........th
0280: 6B 32 00                                          k2.             
```

#### Opcodes

```
  0: 0x0273 [0x5B] LOAD_EXT_SCHEDULER: Load scheduler "thk2" with entities [EventEntity, EventEntity], work=135*
  1: 0x0282 [0x00] END_REQSTACK()
```

### Event 65535.32

#### Metadata

| Field        | Value    |
|--------------|----------|
| Entrypoint   | 0x0283   |
| Data Size    | 14 bytes |
| Instructions | 2        |

```
      00 01 02 03 04 05 06 07  08 09 0A 0B 0C 0D 0E 0F
      -- -- -- -- -- -- -- --  -- -- -- -- -- -- -- --
0280:          53 F8 FF FF 7F  F8 FF FF 7F 74 68 6B 32     S........thk2
0290: 00                                                .               
```

#### Opcodes

```
  0: 0x0283 [0x53] WAIT_SCHEDULER_TASK: Wait for scheduler "thk2" with entities [EventEntity, EventEntity]
  1: 0x0290 [0x00] END_REQSTACK()
```

### Event 65535.33

#### Metadata

| Field        | Value    |
|--------------|----------|
| Entrypoint   | 0x0291   |
| Data Size    | 16 bytes |
| Instructions | 2        |

```
      00 01 02 03 04 05 06 07  08 09 0A 0B 0C 0D 0E 0F
      -- -- -- -- -- -- -- --  -- -- -- -- -- -- -- --
0290:    5B 27 80 F8 FF FF 7F  F8 FF FF 7F 6C 61 75 30   ['.........lau0
02A0: 00                                                .               
```

#### Opcodes

```
  0: 0x0291 [0x5B] LOAD_EXT_SCHEDULER: Load scheduler "lau0" with entities [EventEntity, EventEntity], work=135*
  1: 0x02A0 [0x00] END_REQSTACK()
```

### Event 65535.34

#### Metadata

| Field        | Value    |
|--------------|----------|
| Entrypoint   | 0x02A1   |
| Data Size    | 14 bytes |
| Instructions | 2        |

```
      00 01 02 03 04 05 06 07  08 09 0A 0B 0C 0D 0E 0F
      -- -- -- -- -- -- -- --  -- -- -- -- -- -- -- --
02A0:    53 F8 FF FF 7F F8 FF  FF 7F 6C 61 75 30 00      S........lau0. 
```

#### Opcodes

```
  0: 0x02A1 [0x53] WAIT_SCHEDULER_TASK: Wait for scheduler "lau0" with entities [EventEntity, EventEntity]
  1: 0x02AE [0x00] END_REQSTACK()
```

### Event 65535.35

#### Metadata

| Field        | Value    |
|--------------|----------|
| Entrypoint   | 0x02AF   |
| Data Size    | 16 bytes |
| Instructions | 2        |

```
      00 01 02 03 04 05 06 07  08 09 0A 0B 0C 0D 0E 0F
      -- -- -- -- -- -- -- --  -- -- -- -- -- -- -- --
02A0:                                               5B                 [
02B0: 27 80 F8 FF FF 7F F8 FF  FF 7F 6C 61 75 31 00     '.........lau1. 
```

#### Opcodes

```
  0: 0x02AF [0x5B] LOAD_EXT_SCHEDULER: Load scheduler "lau1" with entities [EventEntity, EventEntity], work=135*
  1: 0x02BE [0x00] END_REQSTACK()
```

### Event 65535.36

#### Metadata

| Field        | Value    |
|--------------|----------|
| Entrypoint   | 0x02BF   |
| Data Size    | 14 bytes |
| Instructions | 2        |

```
      00 01 02 03 04 05 06 07  08 09 0A 0B 0C 0D 0E 0F
      -- -- -- -- -- -- -- --  -- -- -- -- -- -- -- --
02B0:                                               53                 S
02C0: F8 FF FF 7F F8 FF FF 7F  74 68 6B 32 00           ........thk2.   
```

#### Opcodes

```
  0: 0x02BF [0x53] WAIT_SCHEDULER_TASK: Wait for scheduler "thk2" with entities [EventEntity, EventEntity]
  1: 0x02CC [0x00] END_REQSTACK()
```

### Event 555

#### Metadata

| Field        | Value   |
|--------------|---------|
| Entrypoint   | 0x02CD  |
| Data Size    | 1 bytes |
| Instructions | 1       |

```
      00 01 02 03 04 05 06 07  08 09 0A 0B 0C 0D 0E 0F
      -- -- -- -- -- -- -- --  -- -- -- -- -- -- -- --
02C0:                                         00                     .  
```

#### Opcodes

```
  0: 0x02CD [0x00] END_REQSTACK()
```

### Event 65535.37

#### Metadata

| Field        | Value    |
|--------------|----------|
| Entrypoint   | 0x02CE   |
| Data Size    | 10 bytes |
| Instructions | 2        |

```
      00 01 02 03 04 05 06 07  08 09 0A 0B 0C 0D 0E 0F
      -- -- -- -- -- -- -- --  -- -- -- -- -- -- -- --
02C0:                                            37 2A                7*
02D0: 80 2B 80 18 80 2C 80 00                           .+...,..        
```

#### Opcodes

```
  0: 0x02CE [0x37] UPDATE_EVENT_POSITION_AND_DIR: x=-0.154*, z=-14.277*, y=0.000*, direction=264.8°*
  1: 0x02D7 [0x00] END_REQSTACK()
```

### Event 65535.38

#### Metadata

| Field        | Value    |
|--------------|----------|
| Entrypoint   | 0x02D8   |
| Data Size    | 10 bytes |
| Instructions | 2        |

```
      00 01 02 03 04 05 06 07  08 09 0A 0B 0C 0D 0E 0F
      -- -- -- -- -- -- -- --  -- -- -- -- -- -- -- --
02D0:                          37 2D 80 2E 80 18 80 2F          7-...../
02E0: 80 00                                             ..              
```

#### Opcodes

```
  0: 0x02D8 [0x37] UPDATE_EVENT_POSITION_AND_DIR: x=2.030*, z=-0.259*, y=0.000*, direction=266.8°*
  1: 0x02E1 [0x00] END_REQSTACK()
```

### Event 65535.39

#### Metadata

| Field        | Value    |
|--------------|----------|
| Entrypoint   | 0x02E2   |
| Data Size    | 14 bytes |
| Instructions | 4        |

```
      00 01 02 03 04 05 06 07  08 09 0A 0B 0C 0D 0E 0F
      -- -- -- -- -- -- -- --  -- -- -- -- -- -- -- --
02E0:       32 04 80 1F 00 30  80 31 80 18 80 1F 01 00    2....0.1......
```

#### Opcodes

```
  0: 0x02E2 [0x32] ExtData[1]->MainSpeed = 7* * 0.1
  1: 0x02E5 [0x1F] MOVE_ENTITY: EventEntity moves to X=0.908*, Z=-9.827*, Y=0.000*
  2: 0x02ED [0x1F] MOVE_ENTITY: Update entity position (mode=1)
  3: 0x02EF [0x00] END_REQSTACK()
```

### Event 65535.40

#### Metadata

| Field        | Value    |
|--------------|----------|
| Entrypoint   | 0x02F0   |
| Data Size    | 16 bytes |
| Instructions | 5        |

```
      00 01 02 03 04 05 06 07  08 09 0A 0B 0C 0D 0E 0F
      -- -- -- -- -- -- -- --  -- -- -- -- -- -- -- --
02F0: 32 04 80 1F 00 32 80 33  80 18 80 1F 01 22 01 00  2....2.3....."..
```

#### Opcodes

```
  0: 0x02F0 [0x32] ExtData[1]->MainSpeed = 7* * 0.1
  1: 0x02F3 [0x1F] MOVE_ENTITY: EventEntity moves to X=1.873*, Z=-9.805*, Y=0.000*
  2: 0x02FB [0x1F] MOVE_ENTITY: Update entity position (mode=1)
  3: 0x02FD [0x22] ENTITY_HIDE_FLAG(enabled=0x01)
  4: 0x02FF [0x00] END_REQSTACK()
```

### Event 65535.41

#### Metadata

| Field        | Value    |
|--------------|----------|
| Entrypoint   | 0x0300   |
| Data Size    | 45 bytes |
| Instructions | 9        |

```
      00 01 02 03 04 05 06 07  08 09 0A 0B 0C 0D 0E 0F
      -- -- -- -- -- -- -- --  -- -- -- -- -- -- -- --
0300: 03 01 00 34 80 79 00 F8  FF FF 7F F0 FF FF 7F 3A  ...4.y.........:
0310: F8 FF FF 7F 00 00 02 00  00 01 00 04 2C 03 39 00  ............,.9.
0320: 00 08 00 00 1A 80 1C 19  80 01 16 03 00           .............   
```

#### Opcodes

```
  0: 0x0300 [0x03] ExtData[1]->WorkLocal[1] = 1024*
  1: 0x0305 [0x79] EventEntity looks at LocalPlayer (Basic look)
  2: 0x030F [0x3A] CONVERT_YAW_TO_BYTE(entity=EventEntity, result_destination=ExtData[1]->WorkLocal[0])
  3: 0x0316 [0x02] IF !(ExtData[1]->WorkLocal[0] < ExtData[1]->WorkLocal[1]) GOTO 0x032C
  4: 0x031E [0x39] SET_ENTITY_DIRECTION(direction=ExtData[1]->WorkLocal[0])
  5: 0x0321 [0x08] ExtData[1]->WorkLocal[0] -= 128*
  6: 0x0326 [0x1C] WAIT(1* ticks)
  7: 0x0329 [0x01] GOTO 0x0316
  8: 0x032C [0x00] END_REQSTACK()
```

### Event 65535.42

#### Metadata

| Field        | Value   |
|--------------|---------|
| Entrypoint   | 0x032D  |
| Data Size    | 5 bytes |
| Instructions | 3       |

```
      00 01 02 03 04 05 06 07  08 09 0A 0B 0C 0D 0E 0F
      -- -- -- -- -- -- -- --  -- -- -- -- -- -- -- --
0320:                                         1D 35 80               .5.
0330: 23 00                                             #.              
```

#### Opcodes

```
  0: 0x032D [0x1D] PRINT_EVENT_MESSAGE(message_id=7631*)
    → "It has come to my attention that thieves have ransacked the queen's chambers. Inform me immediately of what was stolen!"
  1: 0x0330 [0x23] WAIT_FOR_DIALOG_INTERACTION
  2: 0x0331 [0x00] END_REQSTACK()
```

### Event 65535.43

#### Metadata

| Field        | Value   |
|--------------|---------|
| Entrypoint   | 0x0332  |
| Data Size    | 5 bytes |
| Instructions | 3       |

```
      00 01 02 03 04 05 06 07  08 09 0A 0B 0C 0D 0E 0F
      -- -- -- -- -- -- -- --  -- -- -- -- -- -- -- --
0330:       1D 36 80 23 00                                .6.#.         
```

#### Opcodes

```
  0: 0x0332 [0x1D] PRINT_EVENT_MESSAGE(message_id=7633*)
    → "Preposterous! If so, why did the thieves enter in the first place? Maybe the queen had something hidden..."
  1: 0x0335 [0x23] WAIT_FOR_DIALOG_INTERACTION
  2: 0x0336 [0x00] END_REQSTACK()
```

### Event 65535.44

#### Metadata

| Field        | Value   |
|--------------|---------|
| Entrypoint   | 0x0337  |
| Data Size    | 5 bytes |
| Instructions | 3       |

```
      00 01 02 03 04 05 06 07  08 09 0A 0B 0C 0D 0E 0F
      -- -- -- -- -- -- -- --  -- -- -- -- -- -- -- --
0330:                      1D  37 80 23 00                     .7.#.    
```

#### Opcodes

```
  0: 0x0337 [0x1D] PRINT_EVENT_MESSAGE(message_id=7635*)
    → "If I knew, I wouldn't be asking you! But thieves would not enter without a purpose!"
  1: 0x033A [0x23] WAIT_FOR_DIALOG_INTERACTION
  2: 0x033B [0x00] END_REQSTACK()
```

### Event 65535.45

#### Metadata

| Field        | Value   |
|--------------|---------|
| Entrypoint   | 0x033C  |
| Data Size    | 5 bytes |
| Instructions | 3       |

```
      00 01 02 03 04 05 06 07  08 09 0A 0B 0C 0D 0E 0F
      -- -- -- -- -- -- -- --  -- -- -- -- -- -- -- --
0330:                                      1D 38 80 23              .8.#
0340: 00                                                .               
```

#### Opcodes

```
  0: 0x033C [0x1D] PRINT_EVENT_MESSAGE(message_id=7637*)
    → "I shall be waiting for your report. Hmph! Not even the Goddess Altana will forgive such a crime!"
  1: 0x033F [0x23] WAIT_FOR_DIALOG_INTERACTION
  2: 0x0340 [0x00] END_REQSTACK()
```
