# 17731592 - Rahal

## Common Data

| Field            | Value                         |
|------------------|-------------------------------|
| Zone             | Chateau d'Oraguille (ID: 233) |
| Block Size       | 2796 bytes                    |
| Total Events     | 99                            |
| References Count | 101                           |

## List of Events

| Event ID                   | Entrypoint   |   Size |   Instructions |
|----------------------------|--------------|--------|----------------|
| [65535](#event-65535)      | 0x0000       |      1 |              1 |
| [563](#event-563)          | 0x0001       |      1 |              1 |
| [564](#event-564)          | 0x0002       |      1 |              1 |
| [65535.1](#event-655351)   | 0x0003       |     27 |              5 |
| [65535.2](#event-655352)   | 0x001E       |     14 |              4 |
| [65535.3](#event-655353)   | 0x002C       |     14 |              4 |
| [65535.4](#event-655354)   | 0x003A       |     15 |              3 |
| [65535.5](#event-655355)   | 0x0049       |     22 |              6 |
| [65535.6](#event-655356)   | 0x005F       |     86 |             17 |
| [9](#event-9)              | 0x00B5       |      1 |              1 |
| [65535.7](#event-655357)   | 0x00B6       |     10 |              2 |
| [10](#event-10)            | 0x00C0       |     10 |              2 |
| [100](#event-100)          | 0x00CA       |     12 |              3 |
| [60](#event-60)            | 0x00D6       |     82 |             16 |
| [122](#event-122)          | 0x0128       |     25 |              9 |
| [106](#event-106)          | 0x0141       |     39 |             13 |
| [107](#event-107)          | 0x0168       |     30 |             10 |
| [105](#event-105)          | 0x0186       |     17 |              7 |
| [42](#event-42)            | 0x0197       |     17 |              7 |
| [37](#event-37)            | 0x01A8       |     56 |             10 |
| [38](#event-38)            | 0x01E0       |     56 |             10 |
| [39](#event-39)            | 0x0218       |     45 |             11 |
| [40](#event-40)            | 0x0245       |     45 |             11 |
| [41](#event-41)            | 0x0272       |     64 |             14 |
| [529](#event-529)          | 0x02B2       |     50 |             16 |
| [544](#event-544)          | 0x02E4       |     36 |             10 |
| [77](#event-77)            | 0x0308       |     36 |             10 |
| [121](#event-121)          | 0x032C       |      1 |              1 |
| [120](#event-120)          | 0x032D       |      1 |              1 |
| [119](#event-119)          | 0x032E       |     40 |             10 |
| [78](#event-78)            | 0x0356       |     53 |             13 |
| [69](#event-69)            | 0x038B       |     40 |             10 |
| [110](#event-110)          | 0x03B3       |     48 |             12 |
| [118](#event-118)          | 0x03E3       |     40 |             10 |
| [534](#event-534)          | 0x040B       |     12 |              3 |
| [65535.8](#event-655358)   | 0x0417       |     26 |              7 |
| [65535.9](#event-655359)   | 0x0431       |      7 |              3 |
| [65535.10](#event-6553510) | 0x0438       |      1 |              1 |
| [65535.11](#event-6553511) | 0x0439       |     29 |              3 |
| [65535.12](#event-6553512) | 0x0456       |      9 |              3 |
| [65535.13](#event-6553513) | 0x045F       |     29 |              3 |
| [65535.14](#event-6553514) | 0x047C       |     29 |              3 |
| [65535.15](#event-6553515) | 0x0499       |     29 |              3 |
| [559](#event-559)          | 0x04B6       |     56 |             14 |
| [579](#event-579)          | 0x04EE       |      1 |              1 |
| [580](#event-580)          | 0x04EF       |      1 |              1 |
| [582](#event-582)          | 0x04F0       |      1 |              1 |
| [65535.16](#event-6553516) | 0x04F1       |     16 |              2 |
| [65535.17](#event-6553517) | 0x0501       |     14 |              2 |
| [65535.18](#event-6553518) | 0x050F       |     16 |              2 |
| [65535.19](#event-6553519) | 0x051F       |     14 |              2 |
| [65535.20](#event-6553520) | 0x052D       |     16 |              2 |
| [65535.21](#event-6553521) | 0x053D       |     14 |              2 |
| [65535.22](#event-6553522) | 0x054B       |     16 |              2 |
| [65535.23](#event-6553523) | 0x055B       |     14 |              2 |
| [65535.24](#event-6553524) | 0x0569       |     16 |              2 |
| [65535.25](#event-6553525) | 0x0579       |     14 |              2 |
| [65535.26](#event-6553526) | 0x0587       |     16 |              2 |
| [65535.27](#event-6553527) | 0x0597       |     14 |              2 |
| [65535.28](#event-6553528) | 0x05A5       |     16 |              2 |
| [65535.29](#event-6553529) | 0x05B5       |     14 |              2 |
| [65535.30](#event-6553530) | 0x05C3       |     16 |              2 |
| [65535.31](#event-6553531) | 0x05D3       |     14 |              2 |
| [65535.32](#event-6553532) | 0x05E1       |     16 |              2 |
| [65535.33](#event-6553533) | 0x05F1       |     14 |              2 |
| [65535.34](#event-6553534) | 0x05FF       |     16 |              2 |
| [65535.35](#event-6553535) | 0x060F       |     14 |              2 |
| [65535.36](#event-6553536) | 0x061D       |     16 |              2 |
| [65535.37](#event-6553537) | 0x062D       |     14 |              2 |
| [65535.38](#event-6553538) | 0x063B       |     16 |              2 |
| [65535.39](#event-6553539) | 0x064B       |     14 |              2 |
| [65535.40](#event-6553540) | 0x0659       |     16 |              2 |
| [65535.41](#event-6553541) | 0x0669       |     14 |              2 |
| [65535.42](#event-6553542) | 0x0677       |     16 |              2 |
| [65535.43](#event-6553543) | 0x0687       |     14 |              2 |
| [65535.44](#event-6553544) | 0x0695       |     16 |              2 |
| [65535.45](#event-6553545) | 0x06A5       |     14 |              2 |
| [598](#event-598)          | 0x06B3       |      1 |              1 |
| [65535.46](#event-6553546) | 0x06B4       |     16 |              2 |
| [65535.47](#event-6553547) | 0x06C4       |     14 |              2 |
| [65535.48](#event-6553548) | 0x06D2       |     16 |              2 |
| [65535.49](#event-6553549) | 0x06E2       |     14 |              2 |
| [65535.50](#event-6553550) | 0x06F0       |     22 |              8 |
| [65535.51](#event-6553551) | 0x0706       |     26 |              8 |
| [65535.52](#event-6553552) | 0x0720       |     15 |              5 |
| [65535.53](#event-6553553) | 0x072F       |     15 |              5 |
| [600](#event-600)          | 0x073E       |      1 |              1 |
| [601](#event-601)          | 0x073F       |      1 |              1 |
| [603](#event-603)          | 0x0740       |      1 |              1 |
| [65535.54](#event-6553554) | 0x0741       |     22 |              8 |
| [605](#event-605)          | 0x0757       |      1 |              1 |
| [606](#event-606)          | 0x0758       |      1 |              1 |
| [608](#event-608)          | 0x0759       |      1 |              1 |
| [65535.55](#event-6553555) | 0x075A       |     15 |              5 |
| [65535.56](#event-6553556) | 0x0769       |     15 |              5 |
| [65535.57](#event-6553557) | 0x0778       |     15 |              5 |
| [65535.58](#event-6553558) | 0x0787       |     15 |              5 |
| [65535.59](#event-6553559) | 0x0796       |     22 |              8 |
| [65535.60](#event-6553560) | 0x07AC       |     15 |              5 |

## DAT References (imed_data)

|   Index | Hex Value   |   Dec Value |
|---------|-------------|-------------|
|       0 | 0xFFFFF0EF  |  4294963439 |
|       1 | 0xFFFFF8D6  |  4294965462 |
|       2 | 0x0000      |           0 |
|       3 | 0x0F7B      |        3963 |
|       4 | 0xFFFFFC18  |  4294966296 |
|       5 | 0x000D      |          13 |
|       6 | 0xFFFFFE47  |  4294966855 |
|       7 | 0x0030      |          48 |
|       8 | 0xFFFFF8ED  |  4294965485 |
|       9 | 0x04A9      |        1193 |
|      10 | 0x0108      |         264 |
|      11 | 0x03E8      |        1000 |
|      12 | 0xFFFFE1A9  |  4294959529 |
|      13 | 0xFFFFF79F  |  4294965151 |
|      14 | 0x00B4      |         180 |
|      15 | 0xFFFFF52E  |  4294964526 |
|      16 | 0xFFFFFCD2  |  4294966482 |
|      17 | 0xFFFFFA2E  |  4294965806 |
|      18 | 0x0AA4      |        2724 |
|      19 | 0x0C5A      |        3162 |
|      20 | 0xFFFFF77A  |  4294965114 |
|      21 | 0x5E30      |       24112 |
|      22 | 0xFFFFFA24  |  4294965796 |
|      23 | 0x0D21      |        3361 |
|      24 | 0x0126      |         294 |
|      25 | 0x0014      |          20 |
|      26 | 0x1A45      |        6725 |
|      27 | 0x1A46      |        6726 |
|      28 | 0x1A47      |        6727 |
|      29 | 0x011C      |         284 |
|      30 | 0x1AB8      |        6840 |
|      31 | 0x1AB9      |        6841 |
|      32 | 0x1ABA      |        6842 |
|      33 | 0x1ABD      |        6845 |
|      34 | 0x1AC6      |        6854 |
|      35 | 0x1E52      |        7762 |
|      36 | 0x1E54      |        7764 |
|      37 | 0x1E79      |        7801 |
|      38 | 0x0015      |          21 |
|      39 | 0x1E7A      |        7802 |
|      40 | 0x1EA7      |        7847 |
|      41 | 0x1EA8      |        7848 |
|      42 | 0x1EB8      |        7864 |
|      43 | 0x1EB9      |        7865 |
|      44 | 0x1EBA      |        7866 |
|      45 | 0x1C29      |        7209 |
|      46 | 0x001E      |          30 |
|      47 | 0x1C2A      |        7210 |
|      48 | 0x1C2B      |        7211 |
|      49 | 0x1C03      |        7171 |
|      50 | 0x1D04      |        7428 |
|      51 | 0x1AEB      |        6891 |
|      52 | 0x012A      |         298 |
|      53 | 0x1AEC      |        6892 |
|      54 | 0x1AED      |        6893 |
|      55 | 0x1AEE      |        6894 |
|      56 | 0x1AEF      |        6895 |
|      57 | 0x1AF0      |        6896 |
|      58 | 0x1AF1      |        6897 |
|      59 | 0xFFFFFFC2  |  4294967234 |
|      60 | 0x07F7      |        2039 |
|      61 | 0x002A      |          42 |
|      62 | 0xFFFFDD43  |  4294958403 |
|      63 | 0xFFFFF063  |  4294963299 |
|      64 | 0xFFFFB822  |  4294948898 |
|      65 | 0xFFFFF04C  |  4294963276 |
|      66 | 0x0E42      |        3650 |
|      67 | 0x003C      |          60 |
|      68 | 0x2061      |        8289 |
|      69 | 0x2066      |        8294 |
|      70 | 0x2067      |        8295 |
|      71 | 0x2068      |        8296 |
|      72 | 0x001A      |          26 |
|      73 | 0x001B      |          27 |
|      74 | 0x001D      |          29 |
|      75 | 0x0016      |          22 |
|      76 | 0xFFFFA290  |  4294943376 |
|      77 | 0xFFFFFC40  |  4294966336 |
|      78 | 0xFFFFA386  |  4294943622 |
|      79 | 0xFFFFE750  |  4294960976 |
|      80 | 0xFFFF9811  |  4294940689 |
|      81 | 0xFFFFE9F4  |  4294961652 |
|      82 | 0xFFFF9E78  |  4294942328 |
|      83 | 0xFFFFEC39  |  4294962233 |
|      84 | 0xFFFF9E9E  |  4294942366 |
|      85 | 0xFFFFF290  |  4294963856 |
|      86 | 0xFFFF6FBA  |  4294930362 |
|      87 | 0x13F89     |       81801 |
|      88 | 0xFFFFF15B  |  4294963547 |
|      89 | 0xFFFF86B5  |  4294936245 |
|      90 | 0xFFFFE6D8  |  4294960856 |
|      91 | 0xFFFF80C8  |  4294934728 |
|      92 | 0xFFFFE694  |  4294960788 |
|      93 | 0xFFFF8621  |  4294936097 |
|      94 | 0xFFFFE677  |  4294960759 |
|      95 | 0xFFFF9EF4  |  4294942452 |
|      96 | 0x0E99      |        3737 |
|      97 | 0xFFFF86CA  |  4294936266 |
|      98 | 0xFFFFE74F  |  4294960975 |
|      99 | 0xFFFF85CB  |  4294936011 |
|     100 | 0x02DE      |         734 |

## String References

- **7171**: I understand his lordship's fervor, but the risk is too great for us. I believe this requires utmost caution.
- **7209**: I am Rahal S. Lebrart, general of the Royal Knights of San d'Oria.
- **7210**: The Royal Knights are the sword of San d'Oria. Swiftly we strike, and wipe nests of fiends off the face of Vana'diel!
- **7211**: We are a band of warriors, and some of us have been known to be...overzealous. But there's not a dark heart in the bunch of us. You have my word!
- **7428**: Commendable work. With our mortal enemy vanquished, we must now restore glory to San d'Oria. Your cooperation is expected!
- **7762**: Rochefogne was slain? If it was not one of the Royal Knights, then... No, it is not possible...
- **7764**: The Rites of Succession... At last our new leader will be chosen...
- **7801**: In the years I have served as a Royal Knight, I have been sent on many missions. However, this expedition to Fei'Yin means much more to me than most have.
- **7802**: I dedicate this battle to the knights I have lost. I will not let the blood they shed go in vain. We will defeat our enemies!
- **7847**: <Player>. I never thought I would live to see the day when the Royal Knights would fight alongside adventurers such as yourself. Your valiant efforts on the battlefield helped turn the tide in favor of San d'Oria.
- **7848**: To protect the prince while grappling with the enemy... I feel that even I may not have been able to accomplish such a feat. I applaud your skill.
- **7864**: Now that Lightbringer has been sealed in the Dragon King's tomb, the Orcs' activity has begun to dwindle. We will shortly be sending soldiers to rid the land of the remaining hordes.
- **7865**: As much as your presence on the front line would be welcomed, we cannot run to you to solve all our national crises.
- **7866**: However, I expect that one day the Kingdom may again require your services. But until that day, may the light of the Goddess shine down upon you!
- **8289**: <Player>'s badge flashes brightly.
- **8294**: A badge of that despicable mercenary outfit in here? You show a surprising lack of discretion, adventurer.
- **8295**: Or so I should like to say to even my own knights. There are those within our ranks that have felt the lure of mercenary wages.
- **8296**: I would hope their oaths as protectors of the Kingdom were taken more seriously. No matter--I am certain this temptation will strike but once, then leave our knights stronger for the experience.

## Events

### Event 65535

#### Metadata

| Field        | Value   |
|--------------|---------|
| Entrypoint   | 0x0000  |
| Data Size    | 1 bytes |
| Instructions | 1       |

```
      00 01 02 03 04 05 06 07  08 09 0A 0B 0C 0D 0E 0F
      -- -- -- -- -- -- -- --  -- -- -- -- -- -- -- --
0000: 00                                                .               
```

#### Opcodes

```
  0: 0x0000 [0x00] END_REQSTACK()
```

### Event 563

#### Metadata

| Field        | Value   |
|--------------|---------|
| Entrypoint   | 0x0001  |
| Data Size    | 1 bytes |
| Instructions | 1       |

```
      00 01 02 03 04 05 06 07  08 09 0A 0B 0C 0D 0E 0F
      -- -- -- -- -- -- -- --  -- -- -- -- -- -- -- --
0000:    00                                              .              
```

#### Opcodes

```
  0: 0x0001 [0x00] END_REQSTACK()
```

### Event 564

#### Metadata

| Field        | Value   |
|--------------|---------|
| Entrypoint   | 0x0002  |
| Data Size    | 1 bytes |
| Instructions | 1       |

```
      00 01 02 03 04 05 06 07  08 09 0A 0B 0C 0D 0E 0F
      -- -- -- -- -- -- -- --  -- -- -- -- -- -- -- --
0000:       00                                            .             
```

#### Opcodes

```
  0: 0x0002 [0x00] END_REQSTACK()
```

### Event 65535.1

#### Metadata

| Field        | Value    |
|--------------|----------|
| Entrypoint   | 0x0003   |
| Data Size    | 27 bytes |
| Instructions | 5        |

```
      00 01 02 03 04 05 06 07  08 09 0A 0B 0C 0D 0E 0F
      -- -- -- -- -- -- -- --  -- -- -- -- -- -- -- --
0000:          37 00 80 01 80  02 80 03 80 03 00 00 04     7............
0010: 80 1A 71 00 37 01 00 02  00 03 00 04 00 00        ..q.7.........  
```

#### Opcodes

```
  0: 0x0003 [0x37] UPDATE_EVENT_POSITION_AND_DIR: x=-3.857*, z=-1.834*, y=0.000*, direction=348.3°*
  1: 0x000C [0x03] ExtData[1]->WorkLocal[0] = 4294966296*
  2: 0x0011 [0x1A] CALL_SUBROUTINE(address=0x0071)
  3: 0x0014 [0x37] UPDATE_EVENT_POSITION_AND_DIR: x=ExtData[1]->WorkLocal[1], z=ExtData[1]->WorkLocal[2], y=ExtData[1]->WorkLocal[3], direction=ExtData[1]->WorkLocal[4]
  4: 0x001D [0x00] END_REQSTACK()
```

### Event 65535.2

#### Metadata

| Field        | Value    |
|--------------|----------|
| Entrypoint   | 0x001E   |
| Data Size    | 14 bytes |
| Instructions | 4        |

```
      00 01 02 03 04 05 06 07  08 09 0A 0B 0C 0D 0E 0F
      -- -- -- -- -- -- -- --  -- -- -- -- -- -- -- --
0010:                                            32 05                2.
0020: 80 1F 00 00 80 01 80 02  80 1F 01 00              ............    
```

#### Opcodes

```
  0: 0x001E [0x32] ExtData[1]->MainSpeed = 13* * 0.1
  1: 0x0021 [0x1F] MOVE_ENTITY: EventEntity moves to X=-3.857*, Z=-1.834*, Y=0.000*
  2: 0x0029 [0x1F] MOVE_ENTITY: Update entity position (mode=1)
  3: 0x002B [0x00] END_REQSTACK()
```

### Event 65535.3

#### Metadata

| Field        | Value    |
|--------------|----------|
| Entrypoint   | 0x002C   |
| Data Size    | 14 bytes |
| Instructions | 4        |

```
      00 01 02 03 04 05 06 07  08 09 0A 0B 0C 0D 0E 0F
      -- -- -- -- -- -- -- --  -- -- -- -- -- -- -- --
0020:                                      32 05 80 1F              2...
0030: 00 06 80 07 80 02 80 1F  01 00                    ..........      
```

#### Opcodes

```
  0: 0x002C [0x32] ExtData[1]->MainSpeed = 13* * 0.1
  1: 0x002F [0x1F] MOVE_ENTITY: EventEntity moves to X=-0.441*, Z=0.048*, Y=0.000*
  2: 0x0037 [0x1F] MOVE_ENTITY: Update entity position (mode=1)
  3: 0x0039 [0x00] END_REQSTACK()
```

### Event 65535.4

#### Metadata

| Field        | Value    |
|--------------|----------|
| Entrypoint   | 0x003A   |
| Data Size    | 15 bytes |
| Instructions | 3        |

```
      00 01 02 03 04 05 06 07  08 09 0A 0B 0C 0D 0E 0F
      -- -- -- -- -- -- -- --  -- -- -- -- -- -- -- --
0030:                                7B F8 FF FF 7F 37            {....7
0040: 08 80 09 80 02 80 0A 80  00                       .........       
```

#### Opcodes

```
  0: 0x003A [0x7B] EventEntity stops talking
  1: 0x003F [0x37] UPDATE_EVENT_POSITION_AND_DIR: x=-1.811*, z=1.193*, y=0.000*, direction=23.2°*
  2: 0x0048 [0x00] END_REQSTACK()
```

### Event 65535.5

#### Metadata

| Field        | Value    |
|--------------|----------|
| Entrypoint   | 0x0049   |
| Data Size    | 22 bytes |
| Instructions | 6        |

```
      00 01 02 03 04 05 06 07  08 09 0A 0B 0C 0D 0E 0F
      -- -- -- -- -- -- -- --  -- -- -- -- -- -- -- --
0040:                             03 00 00 0B 80 1A 71           ......q
0050: 00 32 05 80 1F 00 01 00  02 00 03 00 1F 01 00     .2............. 
```

#### Opcodes

```
  0: 0x0049 [0x03] ExtData[1]->WorkLocal[0] = 1000*
  1: 0x004E [0x1A] CALL_SUBROUTINE(address=0x0071)
  2: 0x0051 [0x32] ExtData[1]->MainSpeed = 13* * 0.1
  3: 0x0054 [0x1F] MOVE_ENTITY: EventEntity moves to X=ExtData[1]->WorkLocal[1], Z=ExtData[1]->WorkLocal[2], Y=ExtData[1]->WorkLocal[3]
  4: 0x005C [0x1F] MOVE_ENTITY: Update entity position (mode=1)
  5: 0x005E [0x00] END_REQSTACK()
```

### Event 65535.6

#### Metadata

| Field        | Value    |
|--------------|----------|
| Entrypoint   | 0x005F   |
| Data Size    | 86 bytes |
| Instructions | 5        |

```
      00 01 02 03 04 05 06 07  08 09 0A 0B 0C 0D 0E 0F
      -- -- -- -- -- -- -- --  -- -- -- -- -- -- -- --
0050:                                               32                 2
0060: 05 80 31 00 0C 80 0D 80  02 80 0E 80 31 01 22 01  ..1.........1.".
0070: 00 3B F8 FF FF 7F 01 00  02 00 03 00 3A F8 FF FF  .;..........:...
0080: 7F 04 00 17 05 00 04 00  00 00 16 06 00 04 00 00  ................
0090: 00 07 01 00 05 00 07 02  00 06 00 1B 17 05 00 04  ................
00A0: 00 00 00 16 06 00 04 00  00 00 07 01 00 05 00 07  ................
00B0: 02 00 06 00 1B                                    .....           
```

#### Opcodes

```
  0: 0x005F [0x32] ExtData[1]->MainSpeed = 13* * 0.1
  1: 0x0062 [0x31] UPDATE_ENTITY_POSITION: Set EventEntity goal position to X=-7.767*, Z=-2.145*, Y=0.000*, Time=180*
  2: 0x006C [0x31] UPDATE_ENTITY_POSITION: Move EventEntity towards goal position
  3: 0x006E [0x22] ENTITY_HIDE_FLAG(enabled=0x01)
  4: 0x0070 [0x00] END_REQSTACK()
```

#### Data or dead code:

```
# Dead code (unreachable instructions):
     0x0071 [0x3B] GET_ENTITY_POSITION(entity=EventEntity, x_destination=ExtData[1]->WorkLocal[1], y_destination=ExtData[1]->WorkLocal[2], z_destination=ExtData[1]->WorkLocal[3])
     0x007C [0x3A] CONVERT_YAW_TO_BYTE(entity=EventEntity, result_destination=ExtData[1]->WorkLocal[4])
     0x0083 [0x17] ExtData[1]->WorkLocal[5] = cos(ExtData[1]->WorkLocal[4]) * ExtData[1]->WorkLocal[0]
     0x008A [0x16] ExtData[1]->WorkLocal[6] = sin(ExtData[1]->WorkLocal[4]) * ExtData[1]->WorkLocal[0]
     0x0091 [0x07] ExtData[1]->WorkLocal[1] += ExtData[1]->WorkLocal[5]
     0x0096 [0x07] ExtData[1]->WorkLocal[2] += ExtData[1]->WorkLocal[6]
     0x009B [0x1B] RETURN
     0x009C [0x17] ExtData[1]->WorkLocal[5] = cos(ExtData[1]->WorkLocal[4]) * ExtData[1]->WorkLocal[0]
     0x00A3 [0x16] ExtData[1]->WorkLocal[6] = sin(ExtData[1]->WorkLocal[4]) * ExtData[1]->WorkLocal[0]
     0x00AA [0x07] ExtData[1]->WorkLocal[1] += ExtData[1]->WorkLocal[5]
     0x00AF [0x07] ExtData[1]->WorkLocal[2] += ExtData[1]->WorkLocal[6]
     0x00B4 [0x1B] RETURN
```

### Event 9

#### Metadata

| Field        | Value   |
|--------------|---------|
| Entrypoint   | 0x00B5  |
| Data Size    | 1 bytes |
| Instructions | 1       |

```
      00 01 02 03 04 05 06 07  08 09 0A 0B 0C 0D 0E 0F
      -- -- -- -- -- -- -- --  -- -- -- -- -- -- -- --
00B0:                00                                      .          
```

#### Opcodes

```
  0: 0x00B5 [0x00] END_REQSTACK()
```

### Event 65535.7

#### Metadata

| Field        | Value    |
|--------------|----------|
| Entrypoint   | 0x00B6   |
| Data Size    | 10 bytes |
| Instructions | 2        |

```
      00 01 02 03 04 05 06 07  08 09 0A 0B 0C 0D 0E 0F
      -- -- -- -- -- -- -- --  -- -- -- -- -- -- -- --
00B0:                   37 0F  80 10 80 02 80 02 80 00        7.........
```

#### Opcodes

```
  0: 0x00B6 [0x37] UPDATE_EVENT_POSITION_AND_DIR: x=-2.770*, z=-0.814*, y=0.000*, direction=0.0°*
  1: 0x00BF [0x00] END_REQSTACK()
```

### Event 10

#### Metadata

| Field        | Value    |
|--------------|----------|
| Entrypoint   | 0x00C0   |
| Data Size    | 10 bytes |
| Instructions | 2        |

```
      00 01 02 03 04 05 06 07  08 09 0A 0B 0C 0D 0E 0F
      -- -- -- -- -- -- -- --  -- -- -- -- -- -- -- --
00C0: 37 11 80 12 80 02 80 13  80 00                    7.........      
```

#### Opcodes

```
  0: 0x00C0 [0x37] UPDATE_EVENT_POSITION_AND_DIR: x=-1.490*, z=2.724*, y=0.000*, direction=277.9°*
  1: 0x00C9 [0x00] END_REQSTACK()
```

### Event 100

#### Metadata

| Field        | Value    |
|--------------|----------|
| Entrypoint   | 0x00CA   |
| Data Size    | 12 bytes |
| Instructions | 3        |

```
      00 01 02 03 04 05 06 07  08 09 0A 0B 0C 0D 0E 0F
      -- -- -- -- -- -- -- --  -- -- -- -- -- -- -- --
00C0:                                22 01 37 14 80 15            ".7...
00D0: 80 16 80 17 80 00                                 ......          
```

#### Opcodes

```
  0: 0x00CA [0x22] ENTITY_HIDE_FLAG(enabled=0x01)
  1: 0x00CC [0x37] UPDATE_EVENT_POSITION_AND_DIR: x=-2.182*, z=24.112*, y=-1.500*, direction=295.4°*
  2: 0x00D5 [0x00] END_REQSTACK()
```

### Event 60

#### Metadata

| Field        | Value    |
|--------------|----------|
| Entrypoint   | 0x00D6   |
| Data Size    | 82 bytes |
| Instructions | 16       |

```
      00 01 02 03 04 05 06 07  08 09 0A 0B 0C 0D 0E 0F
      -- -- -- -- -- -- -- --  -- -- -- -- -- -- -- --
00D0:                   42 1E  F0 FF FF 7F 6F 70 03 02        B.....op..
00E0: 10 18 80 66 19 80 F8 FF  FF 7F F8 FF FF 7F 74 6C  ...f..........tl
00F0: 6B 30 2B 08 90 0E 01 1A  80 23 2B 08 90 0E 01 1B  k0+......#+.....
0100: 80 23 66 19 80 F8 FF FF  7F F8 FF FF 7F 70 61 73  .#f..........pas
0110: 30 53 F8 FF FF 7F F8 FF  FF 7F 70 61 73 30 2B 08  0S........pas0+.
0120: 90 0E 01 1C 80 23 21 00                           .....#!.        
```

#### Opcodes

```
  0: 0x00D6 [0x42] SET_CLI_EVENT_CANCEL_DATA()
  1: 0x00D7 [0x1E] EventEntity looks at LocalPlayer and starts talking
  2: 0x00DC [0x6F] WAIT_FRAME_DELAY: Yield until WaitTime reaches zero
  3: 0x00DD [0x70] WAIT_ENTITY_RENDER_FLAG: Wait while EventEntity->Render.Flags3 bit 2 is set (cancel turn if not)
  4: 0x00DE [0x03] Work_Zone[2] = 294*
  5: 0x00E3 [0x66] LOAD_EXT_SCHEDULER_MAIN: Load scheduler "tlk0" with entities [EventEntity, EventEntity], work=20*
  6: 0x00F2 [0x2B] Rahal (ID: 17731592/0x010E9008) [6725*]:
    → "Oh, it's you. Fear not; the precious dragon is not in danger. However, we have learned that Cyranuce is somewhere in the Ghelsba Outpost."
  7: 0x00F9 [0x23] WAIT_FOR_DIALOG_INTERACTION
  8: 0x00FA [0x2B] Rahal (ID: 17731592/0x010E9008) [6726*]:
    → "If he is to be saved, $6 is necessary. Drinking this may help separate him from the dragon that is feeding on his soul. Here, you take one as well."
  9: 0x0101 [0x23] WAIT_FOR_DIALOG_INTERACTION
 10: 0x0102 [0x66] LOAD_EXT_SCHEDULER_MAIN: Load scheduler "pas0" with entities [EventEntity, EventEntity], work=20*
 11: 0x0111 [0x53] WAIT_SCHEDULER_TASK: Wait for scheduler "pas0" with entities [EventEntity, EventEntity]
 12: 0x011E [0x2B] Rahal (ID: 17731592/0x010E9008) [6727*]:
    → "I plan on traveling there as soon as I have made my preparations. There is no time to lose. With every passing moment, his soul is further devoured."
 13: 0x0125 [0x23] WAIT_FOR_DIALOG_INTERACTION
 14: 0x0126 [0x21] END_EVENT
 15: 0x0127 [0x00] END_REQSTACK()
```

### Event 122

#### Metadata

| Field        | Value    |
|--------------|----------|
| Entrypoint   | 0x0128   |
| Data Size    | 25 bytes |
| Instructions | 9        |

```
      00 01 02 03 04 05 06 07  08 09 0A 0B 0C 0D 0E 0F
      -- -- -- -- -- -- -- --  -- -- -- -- -- -- -- --
0120:                          1E F0 FF FF 7F 6F 70 2B          .....op+
0130: 08 90 0E 01 1A 80 23 2B  08 90 0E 01 1C 80 23 21  ......#+......#!
0140: 00                                                .               
```

#### Opcodes

```
  0: 0x0128 [0x1E] EventEntity looks at LocalPlayer and starts talking
  1: 0x012D [0x6F] WAIT_FRAME_DELAY: Yield until WaitTime reaches zero
  2: 0x012E [0x70] WAIT_ENTITY_RENDER_FLAG: Wait while EventEntity->Render.Flags3 bit 2 is set (cancel turn if not)
  3: 0x012F [0x2B] Rahal (ID: 17731592/0x010E9008) [6725*]:
    → "Oh, it's you. Fear not; the precious dragon is not in danger. However, we have learned that Cyranuce is somewhere in the Ghelsba Outpost."
  4: 0x0136 [0x23] WAIT_FOR_DIALOG_INTERACTION
  5: 0x0137 [0x2B] Rahal (ID: 17731592/0x010E9008) [6727*]:
    → "I plan on traveling there as soon as I have made my preparations. There is no time to lose. With every passing moment, his soul is further devoured."
  6: 0x013E [0x23] WAIT_FOR_DIALOG_INTERACTION
  7: 0x013F [0x21] END_EVENT
  8: 0x0140 [0x00] END_REQSTACK()
```

### Event 106

#### Metadata

| Field        | Value    |
|--------------|----------|
| Entrypoint   | 0x0141   |
| Data Size    | 39 bytes |
| Instructions | 13       |

```
      00 01 02 03 04 05 06 07  08 09 0A 0B 0C 0D 0E 0F
      -- -- -- -- -- -- -- --  -- -- -- -- -- -- -- --
0140:    42 1E F0 FF FF 7F 6F  70 03 02 10 1D 80 2B 08   B.....op.....+.
0150: 90 0E 01 1E 80 23 2B 08  90 0E 01 1F 80 23 2B 08  .....#+......#+.
0160: 90 0E 01 20 80 23 21 00                           ... .#!.        
```

#### Opcodes

```
  0: 0x0141 [0x42] SET_CLI_EVENT_CANCEL_DATA()
  1: 0x0142 [0x1E] EventEntity looks at LocalPlayer and starts talking
  2: 0x0147 [0x6F] WAIT_FRAME_DELAY: Yield until WaitTime reaches zero
  3: 0x0148 [0x70] WAIT_ENTITY_RENDER_FLAG: Wait while EventEntity->Render.Flags3 bit 2 is set (cancel turn if not)
  4: 0x0149 [0x03] Work_Zone[2] = 284*
  5: 0x014E [0x2B] Rahal (ID: 17731592/0x010E9008) [6840*]:
    → "<Player>, I want you to investigate the Temple of Uggalepih."
  6: 0x0155 [0x23] WAIT_FOR_DIALOG_INTERACTION
  7: 0x0156 [0x2B] Rahal (ID: 17731592/0x010E9008) [6841*]:
    → "Take this $3 with you on your journey."
  8: 0x015D [0x23] WAIT_FOR_DIALOG_INTERACTION
  9: 0x015E [0x2B] Rahal (ID: 17731592/0x010E9008) [6842*]:
    → "Use it when searching the area. Any response from the $3 may be a clue to the location of Lightbringer. The fate of the Kingdom is riding on your shoulders. Don't let us down!"
 10: 0x0165 [0x23] WAIT_FOR_DIALOG_INTERACTION
 11: 0x0166 [0x21] END_EVENT
 12: 0x0167 [0x00] END_REQSTACK()
```

### Event 107

#### Metadata

| Field        | Value    |
|--------------|----------|
| Entrypoint   | 0x0168   |
| Data Size    | 30 bytes |
| Instructions | 10       |

```
      00 01 02 03 04 05 06 07  08 09 0A 0B 0C 0D 0E 0F
      -- -- -- -- -- -- -- --  -- -- -- -- -- -- -- --
0160:                          1E F0 FF FF 7F 6F 70 03          .....op.
0170: 02 10 1D 80 2B 08 90 0E  01 1E 80 23 2B 08 90 0E  ....+......#+...
0180: 01 20 80 23 21 00                                 . .#!.          
```

#### Opcodes

```
  0: 0x0168 [0x1E] EventEntity looks at LocalPlayer and starts talking
  1: 0x016D [0x6F] WAIT_FRAME_DELAY: Yield until WaitTime reaches zero
  2: 0x016E [0x70] WAIT_ENTITY_RENDER_FLAG: Wait while EventEntity->Render.Flags3 bit 2 is set (cancel turn if not)
  3: 0x016F [0x03] Work_Zone[2] = 284*
  4: 0x0174 [0x2B] Rahal (ID: 17731592/0x010E9008) [6840*]:
    → "<Player>, I want you to investigate the Temple of Uggalepih."
  5: 0x017B [0x23] WAIT_FOR_DIALOG_INTERACTION
  6: 0x017C [0x2B] Rahal (ID: 17731592/0x010E9008) [6842*]:
    → "Use it when searching the area. Any response from the $3 may be a clue to the location of Lightbringer. The fate of the Kingdom is riding on your shoulders. Don't let us down!"
  7: 0x0183 [0x23] WAIT_FOR_DIALOG_INTERACTION
  8: 0x0184 [0x21] END_EVENT
  9: 0x0185 [0x00] END_REQSTACK()
```

### Event 105

#### Metadata

| Field        | Value    |
|--------------|----------|
| Entrypoint   | 0x0186   |
| Data Size    | 17 bytes |
| Instructions | 7        |

```
      00 01 02 03 04 05 06 07  08 09 0A 0B 0C 0D 0E 0F
      -- -- -- -- -- -- -- --  -- -- -- -- -- -- -- --
0180:                   1E F0  FF FF 7F 6F 70 2B 08 90        .....op+..
0190: 0E 01 21 80 23 21 00                              ..!.#!.         
```

#### Opcodes

```
  0: 0x0186 [0x1E] EventEntity looks at LocalPlayer and starts talking
  1: 0x018B [0x6F] WAIT_FRAME_DELAY: Yield until WaitTime reaches zero
  2: 0x018C [0x70] WAIT_ENTITY_RENDER_FLAG: Wait while EventEntity->Render.Flags3 bit 2 is set (cancel turn if not)
  3: 0x018D [0x2B] Rahal (ID: 17731592/0x010E9008) [6845*]:
    → "So you were unable to locate Lightbringer... Well, to our surprise, Curilla's expeditionary forces returned yesterday with the sword."
  4: 0x0194 [0x23] WAIT_FOR_DIALOG_INTERACTION
  5: 0x0195 [0x21] END_EVENT
  6: 0x0196 [0x00] END_REQSTACK()
```

### Event 42

#### Metadata

| Field        | Value    |
|--------------|----------|
| Entrypoint   | 0x0197   |
| Data Size    | 17 bytes |
| Instructions | 7        |

```
      00 01 02 03 04 05 06 07  08 09 0A 0B 0C 0D 0E 0F
      -- -- -- -- -- -- -- --  -- -- -- -- -- -- -- --
0190:                      1E  F0 FF FF 7F 6F 70 2B 08         .....op+.
01A0: 90 0E 01 22 80 23 21 00                           ...".#!.        
```

#### Opcodes

```
  0: 0x0197 [0x1E] EventEntity looks at LocalPlayer and starts talking
  1: 0x019C [0x6F] WAIT_FRAME_DELAY: Yield until WaitTime reaches zero
  2: 0x019D [0x70] WAIT_ENTITY_RENDER_FLAG: Wait while EventEntity->Render.Flags3 bit 2 is set (cancel turn if not)
  3: 0x019E [0x2B] Rahal (ID: 17731592/0x010E9008) [6854*]:
    → "To tell you the truth, I had my doubts about the Treasure of the Dragon King, but Curilla managed to find it. Still, I am vexed by this--why was the sword on that island?"
  4: 0x01A5 [0x23] WAIT_FOR_DIALOG_INTERACTION
  5: 0x01A6 [0x21] END_EVENT
  6: 0x01A7 [0x00] END_REQSTACK()
```

### Event 37

#### Metadata

| Field        | Value    |
|--------------|----------|
| Entrypoint   | 0x01A8   |
| Data Size    | 56 bytes |
| Instructions | 10       |

```
      00 01 02 03 04 05 06 07  08 09 0A 0B 0C 0D 0E 0F
      -- -- -- -- -- -- -- --  -- -- -- -- -- -- -- --
01A0:                          1E F0 FF FF 7F 6F 70 66          .....opf
01B0: 19 80 F8 FF FF 7F F8 FF  FF 7F 74 68 6B 31 1D 23  ..........thk1.#
01C0: 80 23 66 19 80 F8 FF FF  7F F8 FF FF 7F 74 68 6B  .#f..........thk
01D0: 32 53 F8 FF FF 7F F8 FF  FF 7F 74 68 6B 32 21 00  2S........thk2!.
```

#### Opcodes

```
  0: 0x01A8 [0x1E] EventEntity looks at LocalPlayer and starts talking
  1: 0x01AD [0x6F] WAIT_FRAME_DELAY: Yield until WaitTime reaches zero
  2: 0x01AE [0x70] WAIT_ENTITY_RENDER_FLAG: Wait while EventEntity->Render.Flags3 bit 2 is set (cancel turn if not)
  3: 0x01AF [0x66] LOAD_EXT_SCHEDULER_MAIN: Load scheduler "thk1" with entities [EventEntity, EventEntity], work=20*
  4: 0x01BE [0x1D] PRINT_EVENT_MESSAGE(message_id=7762*)
    → "Rochefogne was slain? If it was not one of the Royal Knights, then... No, it is not possible..."
  5: 0x01C1 [0x23] WAIT_FOR_DIALOG_INTERACTION
  6: 0x01C2 [0x66] LOAD_EXT_SCHEDULER_MAIN: Load scheduler "thk2" with entities [EventEntity, EventEntity], work=20*
  7: 0x01D1 [0x53] WAIT_SCHEDULER_TASK: Wait for scheduler "thk2" with entities [EventEntity, EventEntity]
  8: 0x01DE [0x21] END_EVENT
  9: 0x01DF [0x00] END_REQSTACK()
```

### Event 38

#### Metadata

| Field        | Value    |
|--------------|----------|
| Entrypoint   | 0x01E0   |
| Data Size    | 56 bytes |
| Instructions | 10       |

```
      00 01 02 03 04 05 06 07  08 09 0A 0B 0C 0D 0E 0F
      -- -- -- -- -- -- -- --  -- -- -- -- -- -- -- --
01E0: 1E F0 FF FF 7F 6F 70 66  19 80 F8 FF FF 7F F8 FF  .....opf........
01F0: FF 7F 74 68 6B 31 1D 24  80 23 66 19 80 F8 FF FF  ..thk1.$.#f.....
0200: 7F F8 FF FF 7F 74 68 6B  32 53 F8 FF FF 7F F8 FF  .....thk2S......
0210: FF 7F 74 68 6B 32 21 00                           ..thk2!.        
```

#### Opcodes

```
  0: 0x01E0 [0x1E] EventEntity looks at LocalPlayer and starts talking
  1: 0x01E5 [0x6F] WAIT_FRAME_DELAY: Yield until WaitTime reaches zero
  2: 0x01E6 [0x70] WAIT_ENTITY_RENDER_FLAG: Wait while EventEntity->Render.Flags3 bit 2 is set (cancel turn if not)
  3: 0x01E7 [0x66] LOAD_EXT_SCHEDULER_MAIN: Load scheduler "thk1" with entities [EventEntity, EventEntity], work=20*
  4: 0x01F6 [0x1D] PRINT_EVENT_MESSAGE(message_id=7764*)
    → "The Rites of Succession... At last our new leader will be chosen..."
  5: 0x01F9 [0x23] WAIT_FOR_DIALOG_INTERACTION
  6: 0x01FA [0x66] LOAD_EXT_SCHEDULER_MAIN: Load scheduler "thk2" with entities [EventEntity, EventEntity], work=20*
  7: 0x0209 [0x53] WAIT_SCHEDULER_TASK: Wait for scheduler "thk2" with entities [EventEntity, EventEntity]
  8: 0x0216 [0x21] END_EVENT
  9: 0x0217 [0x00] END_REQSTACK()
```

### Event 39

#### Metadata

| Field        | Value    |
|--------------|----------|
| Entrypoint   | 0x0218   |
| Data Size    | 45 bytes |
| Instructions | 11       |

```
      00 01 02 03 04 05 06 07  08 09 0A 0B 0C 0D 0E 0F
      -- -- -- -- -- -- -- --  -- -- -- -- -- -- -- --
0210:                          1E F0 FF FF 7F 6F 70 1D          .....op.
0220: 25 80 23 66 26 80 F8 FF  FF 7F F8 FF FF 7F 73 6C  %.#f&.........sl
0230: 30 30 1D 27 80 23 53 F8  FF FF 7F F8 FF FF 7F 73  00.'.#S........s
0240: 6C 30 30 21 00                                    l00!.           
```

#### Opcodes

```
  0: 0x0218 [0x1E] EventEntity looks at LocalPlayer and starts talking
  1: 0x021D [0x6F] WAIT_FRAME_DELAY: Yield until WaitTime reaches zero
  2: 0x021E [0x70] WAIT_ENTITY_RENDER_FLAG: Wait while EventEntity->Render.Flags3 bit 2 is set (cancel turn if not)
  3: 0x021F [0x1D] PRINT_EVENT_MESSAGE(message_id=7801*)
    → "In the years I have served as a Royal Knight, I have been sent on many missions. However, this expedition to Fei'Yin means much more to me than most have."
  4: 0x0222 [0x23] WAIT_FOR_DIALOG_INTERACTION
  5: 0x0223 [0x66] LOAD_EXT_SCHEDULER_MAIN: Load scheduler "sl00" with entities [EventEntity, EventEntity], work=21*
  6: 0x0232 [0x1D] PRINT_EVENT_MESSAGE(message_id=7802*)
    → "I dedicate this battle to the knights I have lost. I will not let the blood they shed go in vain. We will defeat our enemies!"
  7: 0x0235 [0x23] WAIT_FOR_DIALOG_INTERACTION
  8: 0x0236 [0x53] WAIT_SCHEDULER_TASK: Wait for scheduler "sl00" with entities [EventEntity, EventEntity]
  9: 0x0243 [0x21] END_EVENT
 10: 0x0244 [0x00] END_REQSTACK()
```

### Event 40

#### Metadata

| Field        | Value    |
|--------------|----------|
| Entrypoint   | 0x0245   |
| Data Size    | 45 bytes |
| Instructions | 11       |

```
      00 01 02 03 04 05 06 07  08 09 0A 0B 0C 0D 0E 0F
      -- -- -- -- -- -- -- --  -- -- -- -- -- -- -- --
0240:                1E F0 FF  FF 7F 6F 70 1D 28 80 23       .....op.(.#
0250: 1D 29 80 23 66 26 80 F8  FF FF 7F F8 FF FF 7F 73  .).#f&.........s
0260: 6C 30 30 53 F8 FF FF 7F  F8 FF FF 7F 73 6C 30 30  l00S........sl00
0270: 21 00                                             !.              
```

#### Opcodes

```
  0: 0x0245 [0x1E] EventEntity looks at LocalPlayer and starts talking
  1: 0x024A [0x6F] WAIT_FRAME_DELAY: Yield until WaitTime reaches zero
  2: 0x024B [0x70] WAIT_ENTITY_RENDER_FLAG: Wait while EventEntity->Render.Flags3 bit 2 is set (cancel turn if not)
  3: 0x024C [0x1D] PRINT_EVENT_MESSAGE(message_id=7847*)
    → "<Player>. I never thought I would live to see the day when the Royal Knights would fight alongside adventurers such as yourself. Your valiant efforts on the battlefield helped turn the tide in favor of San d'Oria."
  4: 0x024F [0x23] WAIT_FOR_DIALOG_INTERACTION
  5: 0x0250 [0x1D] PRINT_EVENT_MESSAGE(message_id=7848*)
    → "To protect the prince while grappling with the enemy... I feel that even I may not have been able to accomplish such a feat. I applaud your skill."
  6: 0x0253 [0x23] WAIT_FOR_DIALOG_INTERACTION
  7: 0x0254 [0x66] LOAD_EXT_SCHEDULER_MAIN: Load scheduler "sl00" with entities [EventEntity, EventEntity], work=21*
  8: 0x0263 [0x53] WAIT_SCHEDULER_TASK: Wait for scheduler "sl00" with entities [EventEntity, EventEntity]
  9: 0x0270 [0x21] END_EVENT
 10: 0x0271 [0x00] END_REQSTACK()
```

### Event 41

#### Metadata

| Field        | Value    |
|--------------|----------|
| Entrypoint   | 0x0272   |
| Data Size    | 64 bytes |
| Instructions | 14       |

```
      00 01 02 03 04 05 06 07  08 09 0A 0B 0C 0D 0E 0F
      -- -- -- -- -- -- -- --  -- -- -- -- -- -- -- --
0270:       1E F0 FF FF 7F 6F  70 66 19 80 F8 FF FF 7F    .....opf......
0280: F8 FF FF 7F 74 6C 6B 30  1D 2A 80 23 1D 2B 80 23  ....tlk0.*.#.+.#
0290: 1D 2C 80 23 66 26 80 F8  FF FF 7F F8 FF FF 7F 73  .,.#f&.........s
02A0: 6C 30 30 53 F8 FF FF 7F  F8 FF FF 7F 73 6C 30 30  l00S........sl00
02B0: 21 00                                             !.              
```

#### Opcodes

```
  0: 0x0272 [0x1E] EventEntity looks at LocalPlayer and starts talking
  1: 0x0277 [0x6F] WAIT_FRAME_DELAY: Yield until WaitTime reaches zero
  2: 0x0278 [0x70] WAIT_ENTITY_RENDER_FLAG: Wait while EventEntity->Render.Flags3 bit 2 is set (cancel turn if not)
  3: 0x0279 [0x66] LOAD_EXT_SCHEDULER_MAIN: Load scheduler "tlk0" with entities [EventEntity, EventEntity], work=20*
  4: 0x0288 [0x1D] PRINT_EVENT_MESSAGE(message_id=7864*)
    → "Now that Lightbringer has been sealed in the Dragon King's tomb, the Orcs' activity has begun to dwindle. We will shortly be sending soldiers to rid the land of the remaining hordes."
  5: 0x028B [0x23] WAIT_FOR_DIALOG_INTERACTION
  6: 0x028C [0x1D] PRINT_EVENT_MESSAGE(message_id=7865*)
    → "As much as your presence on the front line would be welcomed, we cannot run to you to solve all our national crises."
  7: 0x028F [0x23] WAIT_FOR_DIALOG_INTERACTION
  8: 0x0290 [0x1D] PRINT_EVENT_MESSAGE(message_id=7866*)
    → "However, I expect that one day the Kingdom may again require your services. But until that day, may the light of the Goddess shine down upon you!"
  9: 0x0293 [0x23] WAIT_FOR_DIALOG_INTERACTION
 10: 0x0294 [0x66] LOAD_EXT_SCHEDULER_MAIN: Load scheduler "sl00" with entities [EventEntity, EventEntity], work=21*
 11: 0x02A3 [0x53] WAIT_SCHEDULER_TASK: Wait for scheduler "sl00" with entities [EventEntity, EventEntity]
 12: 0x02B0 [0x21] END_EVENT
 13: 0x02B1 [0x00] END_REQSTACK()
```

### Event 529

#### Metadata

| Field        | Value    |
|--------------|----------|
| Entrypoint   | 0x02B2   |
| Data Size    | 50 bytes |
| Instructions | 16       |

```
      00 01 02 03 04 05 06 07  08 09 0A 0B 0C 0D 0E 0F
      -- -- -- -- -- -- -- --  -- -- -- -- -- -- -- --
02B0:       1E F0 FF FF 7F 6F  70 66 19 80 F8 FF FF 7F    .....opf......
02C0: F8 FF FF 7F 74 6C 6B 30  1D 2D 80 23 1C 2E 80 1D  ....tlk0.-.#....
02D0: 2F 80 23 1C 2E 80 1D 30  80 23 5E 69 64 6C 30 1C  /.#....0.#^idl0.
02E0: 2E 80 21 00                                       ..!.            
```

#### Opcodes

```
  0: 0x02B2 [0x1E] EventEntity looks at LocalPlayer and starts talking
  1: 0x02B7 [0x6F] WAIT_FRAME_DELAY: Yield until WaitTime reaches zero
  2: 0x02B8 [0x70] WAIT_ENTITY_RENDER_FLAG: Wait while EventEntity->Render.Flags3 bit 2 is set (cancel turn if not)
  3: 0x02B9 [0x66] LOAD_EXT_SCHEDULER_MAIN: Load scheduler "tlk0" with entities [EventEntity, EventEntity], work=20*
  4: 0x02C8 [0x1D] PRINT_EVENT_MESSAGE(message_id=7209*)
    → "I am Rahal S. Lebrart, general of the Royal Knights of San d'Oria."
  5: 0x02CB [0x23] WAIT_FOR_DIALOG_INTERACTION
  6: 0x02CC [0x1C] WAIT(30* ticks)
  7: 0x02CF [0x1D] PRINT_EVENT_MESSAGE(message_id=7210*)
    → "The Royal Knights are the sword of San d'Oria. Swiftly we strike, and wipe nests of fiends off the face of Vana'diel!"
  8: 0x02D2 [0x23] WAIT_FOR_DIALOG_INTERACTION
  9: 0x02D3 [0x1C] WAIT(30* ticks)
 10: 0x02D6 [0x1D] PRINT_EVENT_MESSAGE(message_id=7211*)
    → "We are a band of warriors, and some of us have been known to be...overzealous. But there's not a dark heart in the bunch of us. You have my word!"
 11: 0x02D9 [0x23] WAIT_FOR_DIALOG_INTERACTION
 12: 0x02DA [0x5E] EventEntity goes idle (kills current action) (animation: "idl0")
 13: 0x02DF [0x1C] WAIT(30* ticks)
 14: 0x02E2 [0x21] END_EVENT
 15: 0x02E3 [0x00] END_REQSTACK()
```

### Event 544

#### Metadata

| Field        | Value    |
|--------------|----------|
| Entrypoint   | 0x02E4   |
| Data Size    | 36 bytes |
| Instructions | 10       |

```
      00 01 02 03 04 05 06 07  08 09 0A 0B 0C 0D 0E 0F
      -- -- -- -- -- -- -- --  -- -- -- -- -- -- -- --
02E0:             1E F0 FF FF  7F 6F 70 66 19 80 F8 FF      .....opf....
02F0: FF 7F F8 FF FF 7F 74 6C  6B 30 1D 31 80 23 5E 69  ......tlk0.1.#^i
0300: 64 6C 30 1C 2E 80 21 00                           dl0...!.        
```

#### Opcodes

```
  0: 0x02E4 [0x1E] EventEntity looks at LocalPlayer and starts talking
  1: 0x02E9 [0x6F] WAIT_FRAME_DELAY: Yield until WaitTime reaches zero
  2: 0x02EA [0x70] WAIT_ENTITY_RENDER_FLAG: Wait while EventEntity->Render.Flags3 bit 2 is set (cancel turn if not)
  3: 0x02EB [0x66] LOAD_EXT_SCHEDULER_MAIN: Load scheduler "tlk0" with entities [EventEntity, EventEntity], work=20*
  4: 0x02FA [0x1D] PRINT_EVENT_MESSAGE(message_id=7171*)
    → "I understand his lordship's fervor, but the risk is too great for us. I believe this requires utmost caution."
  5: 0x02FD [0x23] WAIT_FOR_DIALOG_INTERACTION
  6: 0x02FE [0x5E] EventEntity goes idle (kills current action) (animation: "idl0")
  7: 0x0303 [0x1C] WAIT(30* ticks)
  8: 0x0306 [0x21] END_EVENT
  9: 0x0307 [0x00] END_REQSTACK()
```

### Event 77

#### Metadata

| Field        | Value    |
|--------------|----------|
| Entrypoint   | 0x0308   |
| Data Size    | 36 bytes |
| Instructions | 10       |

```
      00 01 02 03 04 05 06 07  08 09 0A 0B 0C 0D 0E 0F
      -- -- -- -- -- -- -- --  -- -- -- -- -- -- -- --
0300:                          1E F0 FF FF 7F 6F 70 66          .....opf
0310: 19 80 F8 FF FF 7F F8 FF  FF 7F 74 6C 6B 30 1D 32  ..........tlk0.2
0320: 80 23 5E 69 64 6C 30 1C  2E 80 21 00              .#^idl0...!.    
```

#### Opcodes

```
  0: 0x0308 [0x1E] EventEntity looks at LocalPlayer and starts talking
  1: 0x030D [0x6F] WAIT_FRAME_DELAY: Yield until WaitTime reaches zero
  2: 0x030E [0x70] WAIT_ENTITY_RENDER_FLAG: Wait while EventEntity->Render.Flags3 bit 2 is set (cancel turn if not)
  3: 0x030F [0x66] LOAD_EXT_SCHEDULER_MAIN: Load scheduler "tlk0" with entities [EventEntity, EventEntity], work=20*
  4: 0x031E [0x1D] PRINT_EVENT_MESSAGE(message_id=7428*)
    → "Commendable work. With our mortal enemy vanquished, we must now restore glory to San d'Oria. Your cooperation is expected!"
  5: 0x0321 [0x23] WAIT_FOR_DIALOG_INTERACTION
  6: 0x0322 [0x5E] EventEntity goes idle (kills current action) (animation: "idl0")
  7: 0x0327 [0x1C] WAIT(30* ticks)
  8: 0x032A [0x21] END_EVENT
  9: 0x032B [0x00] END_REQSTACK()
```

### Event 121

#### Metadata

| Field        | Value   |
|--------------|---------|
| Entrypoint   | 0x032C  |
| Data Size    | 1 bytes |
| Instructions | 1       |

```
      00 01 02 03 04 05 06 07  08 09 0A 0B 0C 0D 0E 0F
      -- -- -- -- -- -- -- --  -- -- -- -- -- -- -- --
0320:                                      00                       .   
```

#### Opcodes

```
  0: 0x032C [0x00] END_REQSTACK()
```

### Event 120

#### Metadata

| Field        | Value   |
|--------------|---------|
| Entrypoint   | 0x032D  |
| Data Size    | 1 bytes |
| Instructions | 1       |

```
      00 01 02 03 04 05 06 07  08 09 0A 0B 0C 0D 0E 0F
      -- -- -- -- -- -- -- --  -- -- -- -- -- -- -- --
0320:                                         00                     .  
```

#### Opcodes

```
  0: 0x032D [0x00] END_REQSTACK()
```

### Event 119

#### Metadata

| Field        | Value    |
|--------------|----------|
| Entrypoint   | 0x032E   |
| Data Size    | 40 bytes |
| Instructions | 10       |

```
      00 01 02 03 04 05 06 07  08 09 0A 0B 0C 0D 0E 0F
      -- -- -- -- -- -- -- --  -- -- -- -- -- -- -- --
0320:                                            1E F0                ..
0330: FF FF 7F 6F 70 66 19 80  F8 FF FF 7F F8 FF FF 7F  ...opf..........
0340: 74 6C 6B 30 2B 08 90 0E  01 33 80 23 5E 69 64 6C  tlk0+....3.#^idl
0350: 30 1C 2E 80 21 00                                 0...!.          
```

#### Opcodes

```
  0: 0x032E [0x1E] EventEntity looks at LocalPlayer and starts talking
  1: 0x0333 [0x6F] WAIT_FRAME_DELAY: Yield until WaitTime reaches zero
  2: 0x0334 [0x70] WAIT_ENTITY_RENDER_FLAG: Wait while EventEntity->Render.Flags3 bit 2 is set (cancel turn if not)
  3: 0x0335 [0x66] LOAD_EXT_SCHEDULER_MAIN: Load scheduler "tlk0" with entities [EventEntity, EventEntity], work=20*
  4: 0x0344 [0x2B] Rahal (ID: 17731592/0x010E9008) [6891*]:
    → "The people at the Brugaire Consortium may have information concerning the brais of the last dragoon. I doubt they would agree with me, but the merchants there owe me a favor."
  5: 0x034B [0x23] WAIT_FOR_DIALOG_INTERACTION
  6: 0x034C [0x5E] EventEntity goes idle (kills current action) (animation: "idl0")
  7: 0x0351 [0x1C] WAIT(30* ticks)
  8: 0x0354 [0x21] END_EVENT
  9: 0x0355 [0x00] END_REQSTACK()
```

### Event 78

#### Metadata

| Field        | Value    |
|--------------|----------|
| Entrypoint   | 0x0356   |
| Data Size    | 53 bytes |
| Instructions | 13       |

```
      00 01 02 03 04 05 06 07  08 09 0A 0B 0C 0D 0E 0F
      -- -- -- -- -- -- -- --  -- -- -- -- -- -- -- --
0350:                   1E F0  FF FF 7F 6F 70 66 19 80        .....opf..
0360: F8 FF FF 7F F8 FF FF 7F  74 6C 6B 30 03 09 10 34  ........tlk0...4
0370: 80 2B 08 90 0E 01 35 80  23 2B 08 90 0E 01 36 80  .+....5.#+....6.
0380: 23 5E 69 64 6C 30 1C 2E  80 21 00                 #^idl0...!.     
```

#### Opcodes

```
  0: 0x0356 [0x1E] EventEntity looks at LocalPlayer and starts talking
  1: 0x035B [0x6F] WAIT_FRAME_DELAY: Yield until WaitTime reaches zero
  2: 0x035C [0x70] WAIT_ENTITY_RENDER_FLAG: Wait while EventEntity->Render.Flags3 bit 2 is set (cancel turn if not)
  3: 0x035D [0x66] LOAD_EXT_SCHEDULER_MAIN: Load scheduler "tlk0" with entities [EventEntity, EventEntity], work=20*
  4: 0x036C [0x03] Work_Zone[9] = 298*
  5: 0x0371 [0x2B] Rahal (ID: 17731592/0x010E9008) [6892*]:
    → "$6! This handwriting... That's what this is all about! ...You must talk with Sir Balasiel on this matter."
  6: 0x0378 [0x23] WAIT_FOR_DIALOG_INTERACTION
  7: 0x0379 [0x2B] Rahal (ID: 17731592/0x010E9008) [6893*]:
    → "I cannot speak of it... Or rather, I do not wish to speak of it..."
  8: 0x0380 [0x23] WAIT_FOR_DIALOG_INTERACTION
  9: 0x0381 [0x5E] EventEntity goes idle (kills current action) (animation: "idl0")
 10: 0x0386 [0x1C] WAIT(30* ticks)
 11: 0x0389 [0x21] END_EVENT
 12: 0x038A [0x00] END_REQSTACK()
```

### Event 69

#### Metadata

| Field        | Value    |
|--------------|----------|
| Entrypoint   | 0x038B   |
| Data Size    | 40 bytes |
| Instructions | 10       |

```
      00 01 02 03 04 05 06 07  08 09 0A 0B 0C 0D 0E 0F
      -- -- -- -- -- -- -- --  -- -- -- -- -- -- -- --
0380:                                   1E F0 FF FF 7F             .....
0390: 6F 70 66 19 80 F8 FF FF  7F F8 FF FF 7F 74 6C 6B  opf..........tlk
03A0: 30 2B 08 90 0E 01 37 80  23 5E 69 64 6C 30 1C 2E  0+....7.#^idl0..
03B0: 80 21 00                                          .!.             
```

#### Opcodes

```
  0: 0x038B [0x1E] EventEntity looks at LocalPlayer and starts talking
  1: 0x0390 [0x6F] WAIT_FRAME_DELAY: Yield until WaitTime reaches zero
  2: 0x0391 [0x70] WAIT_ENTITY_RENDER_FLAG: Wait while EventEntity->Render.Flags3 bit 2 is set (cancel turn if not)
  3: 0x0392 [0x66] LOAD_EXT_SCHEDULER_MAIN: Load scheduler "tlk0" with entities [EventEntity, EventEntity], work=20*
  4: 0x03A1 [0x2B] Rahal (ID: 17731592/0x010E9008) [6894*]:
    → "You must take this matter to Sir Balasiel. I cannot speak of it... Or rather, I do not wish to speak of it..."
  5: 0x03A8 [0x23] WAIT_FOR_DIALOG_INTERACTION
  6: 0x03A9 [0x5E] EventEntity goes idle (kills current action) (animation: "idl0")
  7: 0x03AE [0x1C] WAIT(30* ticks)
  8: 0x03B1 [0x21] END_EVENT
  9: 0x03B2 [0x00] END_REQSTACK()
```

### Event 110

#### Metadata

| Field        | Value    |
|--------------|----------|
| Entrypoint   | 0x03B3   |
| Data Size    | 48 bytes |
| Instructions | 12       |

```
      00 01 02 03 04 05 06 07  08 09 0A 0B 0C 0D 0E 0F
      -- -- -- -- -- -- -- --  -- -- -- -- -- -- -- --
03B0:          1E F0 FF FF 7F  6F 70 66 19 80 F8 FF FF     .....opf.....
03C0: 7F F8 FF FF 7F 74 6C 6B  30 2B 08 90 0E 01 38 80  .....tlk0+....8.
03D0: 23 2B 08 90 0E 01 39 80  23 5E 69 64 6C 30 1C 2E  #+....9.#^idl0..
03E0: 80 21 00                                          .!.             
```

#### Opcodes

```
  0: 0x03B3 [0x1E] EventEntity looks at LocalPlayer and starts talking
  1: 0x03B8 [0x6F] WAIT_FRAME_DELAY: Yield until WaitTime reaches zero
  2: 0x03B9 [0x70] WAIT_ENTITY_RENDER_FLAG: Wait while EventEntity->Render.Flags3 bit 2 is set (cancel turn if not)
  3: 0x03BA [0x66] LOAD_EXT_SCHEDULER_MAIN: Load scheduler "tlk0" with entities [EventEntity, EventEntity], work=20*
  4: 0x03C9 [0x2B] Rahal (ID: 17731592/0x010E9008) [6895*]:
    → "Ancolain was a powerful warrior, but he lacked self-control. I bode my time until his return to the ranks... But never did I imagine things would come to this."
  5: 0x03D0 [0x23] WAIT_FOR_DIALOG_INTERACTION
  6: 0x03D1 [0x2B] Rahal (ID: 17731592/0x010E9008) [6896*]:
    → "So you learned from Sir Balasiel that your wyvern can sense Ancolain's location...based on the shadow of the thoughts that still cling to the letter. I only hope that he hasn't dabbled in any of the black arts that are practiced by those savages to the south."
  7: 0x03D8 [0x23] WAIT_FOR_DIALOG_INTERACTION
  8: 0x03D9 [0x5E] EventEntity goes idle (kills current action) (animation: "idl0")
  9: 0x03DE [0x1C] WAIT(30* ticks)
 10: 0x03E1 [0x21] END_EVENT
 11: 0x03E2 [0x00] END_REQSTACK()
```

### Event 118

#### Metadata

| Field        | Value    |
|--------------|----------|
| Entrypoint   | 0x03E3   |
| Data Size    | 40 bytes |
| Instructions | 10       |

```
      00 01 02 03 04 05 06 07  08 09 0A 0B 0C 0D 0E 0F
      -- -- -- -- -- -- -- --  -- -- -- -- -- -- -- --
03E0:          1E F0 FF FF 7F  6F 70 66 19 80 F8 FF FF     .....opf.....
03F0: 7F F8 FF FF 7F 74 6C 6B  30 2B 08 90 0E 01 3A 80  .....tlk0+....:.
0400: 23 5E 69 64 6C 30 1C 2E  80 21 00                 #^idl0...!.     
```

#### Opcodes

```
  0: 0x03E3 [0x1E] EventEntity looks at LocalPlayer and starts talking
  1: 0x03E8 [0x6F] WAIT_FRAME_DELAY: Yield until WaitTime reaches zero
  2: 0x03E9 [0x70] WAIT_ENTITY_RENDER_FLAG: Wait while EventEntity->Render.Flags3 bit 2 is set (cancel turn if not)
  3: 0x03EA [0x66] LOAD_EXT_SCHEDULER_MAIN: Load scheduler "tlk0" with entities [EventEntity, EventEntity], work=20*
  4: 0x03F9 [0x2B] Rahal (ID: 17731592/0x010E9008) [6897*]:
    → "The misunderstanding that long surrounded King Ranperre and the last dragoon has now been cleared--and with it, the chaos that threatened the stability of the knights. You have my thanks."
  5: 0x0400 [0x23] WAIT_FOR_DIALOG_INTERACTION
  6: 0x0401 [0x5E] EventEntity goes idle (kills current action) (animation: "idl0")
  7: 0x0406 [0x1C] WAIT(30* ticks)
  8: 0x0409 [0x21] END_EVENT
  9: 0x040A [0x00] END_REQSTACK()
```

### Event 534

#### Metadata

| Field        | Value    |
|--------------|----------|
| Entrypoint   | 0x040B   |
| Data Size    | 12 bytes |
| Instructions | 3        |

```
      00 01 02 03 04 05 06 07  08 09 0A 0B 0C 0D 0E 0F
      -- -- -- -- -- -- -- --  -- -- -- -- -- -- -- --
0400:                                   22 01 37 3B 80             ".7;.
0410: 3C 80 02 80 3D 80 00                              <...=..         
```

#### Opcodes

```
  0: 0x040B [0x22] ENTITY_HIDE_FLAG(enabled=0x01)
  1: 0x040D [0x37] UPDATE_EVENT_POSITION_AND_DIR: x=-0.062*, z=2.039*, y=0.000*, direction=3.7°*
  2: 0x0416 [0x00] END_REQSTACK()
```

### Event 65535.8

#### Metadata

| Field        | Value    |
|--------------|----------|
| Entrypoint   | 0x0417   |
| Data Size    | 26 bytes |
| Instructions | 7        |

```
      00 01 02 03 04 05 06 07  08 09 0A 0B 0C 0D 0E 0F
      -- -- -- -- -- -- -- --  -- -- -- -- -- -- -- --
0410:                      32  05 80 1F 00 3E 80 3F 80         2....>.?.
0420: 02 80 1F 01 1F 00 40 80  41 80 02 80 1F 01 22 01  ......@.A.....".
0430: 00                                                .               
```

#### Opcodes

```
  0: 0x0417 [0x32] ExtData[1]->MainSpeed = 13* * 0.1
  1: 0x041A [0x1F] MOVE_ENTITY: EventEntity moves to X=-8.893*, Z=-3.997*, Y=0.000*
  2: 0x0422 [0x1F] MOVE_ENTITY: Update entity position (mode=1)
  3: 0x0424 [0x1F] MOVE_ENTITY: EventEntity moves to X=-18.398*, Z=-4.020*, Y=0.000*
  4: 0x042C [0x1F] MOVE_ENTITY: Update entity position (mode=1)
  5: 0x042E [0x22] ENTITY_HIDE_FLAG(enabled=0x01)
  6: 0x0430 [0x00] END_REQSTACK()
```

### Event 65535.9

#### Metadata

| Field        | Value   |
|--------------|---------|
| Entrypoint   | 0x0431  |
| Data Size    | 7 bytes |
| Instructions | 3       |

```
      00 01 02 03 04 05 06 07  08 09 0A 0B 0C 0D 0E 0F
      -- -- -- -- -- -- -- --  -- -- -- -- -- -- -- --
0430:    39 42 80 1C 43 80 00                            9B..C..        
```

#### Opcodes

```
  0: 0x0431 [0x39] SET_ENTITY_DIRECTION(direction=20.1°*)
  1: 0x0434 [0x1C] WAIT(60* ticks)
  2: 0x0437 [0x00] END_REQSTACK()
```

### Event 65535.10

#### Metadata

| Field        | Value   |
|--------------|---------|
| Entrypoint   | 0x0438  |
| Data Size    | 1 bytes |
| Instructions | 1       |

```
      00 01 02 03 04 05 06 07  08 09 0A 0B 0C 0D 0E 0F
      -- -- -- -- -- -- -- --  -- -- -- -- -- -- -- --
0430:                          00                               .       
```

#### Opcodes

```
  0: 0x0438 [0x00] END_REQSTACK()
```

### Event 65535.11

#### Metadata

| Field        | Value    |
|--------------|----------|
| Entrypoint   | 0x0439   |
| Data Size    | 29 bytes |
| Instructions | 3        |

```
      00 01 02 03 04 05 06 07  08 09 0A 0B 0C 0D 0E 0F
      -- -- -- -- -- -- -- --  -- -- -- -- -- -- -- --
0430:                             66 19 80 F8 FF FF 7F           f......
0440: F8 FF FF 7F 74 6C 6B 30  53 F8 FF FF 7F F8 FF FF  ....tlk0S.......
0450: 7F 74 6C 6B 30 00                                 .tlk0.          
```

#### Opcodes

```
  0: 0x0439 [0x66] LOAD_EXT_SCHEDULER_MAIN: Load scheduler "tlk0" with entities [EventEntity, EventEntity], work=20*
  1: 0x0448 [0x53] WAIT_SCHEDULER_TASK: Wait for scheduler "tlk0" with entities [EventEntity, EventEntity]
  2: 0x0455 [0x00] END_REQSTACK()
```

### Event 65535.12

#### Metadata

| Field        | Value   |
|--------------|---------|
| Entrypoint   | 0x0456  |
| Data Size    | 9 bytes |
| Instructions | 3       |

```
      00 01 02 03 04 05 06 07  08 09 0A 0B 0C 0D 0E 0F
      -- -- -- -- -- -- -- --  -- -- -- -- -- -- -- --
0450:                   5E 69  64 6C 30 1C 43 80 00           ^idl0.C.. 
```

#### Opcodes

```
  0: 0x0456 [0x5E] EventEntity goes idle (kills current action) (animation: "idl0")
  1: 0x045B [0x1C] WAIT(60* ticks)
  2: 0x045E [0x00] END_REQSTACK()
```

### Event 65535.13

#### Metadata

| Field        | Value    |
|--------------|----------|
| Entrypoint   | 0x045F   |
| Data Size    | 29 bytes |
| Instructions | 3        |

```
      00 01 02 03 04 05 06 07  08 09 0A 0B 0C 0D 0E 0F
      -- -- -- -- -- -- -- --  -- -- -- -- -- -- -- --
0450:                                               66                 f
0460: 19 80 F8 FF FF 7F F8 FF  FF 7F 74 68 6B 31 53 F8  ..........thk1S.
0470: FF FF 7F F8 FF FF 7F 74  68 6B 31 00              .......thk1.    
```

#### Opcodes

```
  0: 0x045F [0x66] LOAD_EXT_SCHEDULER_MAIN: Load scheduler "thk1" with entities [EventEntity, EventEntity], work=20*
  1: 0x046E [0x53] WAIT_SCHEDULER_TASK: Wait for scheduler "thk1" with entities [EventEntity, EventEntity]
  2: 0x047B [0x00] END_REQSTACK()
```

### Event 65535.14

#### Metadata

| Field        | Value    |
|--------------|----------|
| Entrypoint   | 0x047C   |
| Data Size    | 29 bytes |
| Instructions | 3        |

```
      00 01 02 03 04 05 06 07  08 09 0A 0B 0C 0D 0E 0F
      -- -- -- -- -- -- -- --  -- -- -- -- -- -- -- --
0470:                                      66 19 80 F8              f...
0480: FF FF 7F F8 FF FF 7F 74  68 6B 32 53 F8 FF FF 7F  .......thk2S....
0490: F8 FF FF 7F 74 68 6B 32  00                       ....thk2.       
```

#### Opcodes

```
  0: 0x047C [0x66] LOAD_EXT_SCHEDULER_MAIN: Load scheduler "thk2" with entities [EventEntity, EventEntity], work=20*
  1: 0x048B [0x53] WAIT_SCHEDULER_TASK: Wait for scheduler "thk2" with entities [EventEntity, EventEntity]
  2: 0x0498 [0x00] END_REQSTACK()
```

### Event 65535.15

#### Metadata

| Field        | Value    |
|--------------|----------|
| Entrypoint   | 0x0499   |
| Data Size    | 29 bytes |
| Instructions | 3        |

```
      00 01 02 03 04 05 06 07  08 09 0A 0B 0C 0D 0E 0F
      -- -- -- -- -- -- -- --  -- -- -- -- -- -- -- --
0490:                             66 26 80 F8 FF FF 7F           f&.....
04A0: F8 FF FF 7F 73 6C 30 30  53 F8 FF FF 7F F8 FF FF  ....sl00S.......
04B0: 7F 73 6C 30 30 00                                 .sl00.          
```

#### Opcodes

```
  0: 0x0499 [0x66] LOAD_EXT_SCHEDULER_MAIN: Load scheduler "sl00" with entities [EventEntity, EventEntity], work=21*
  1: 0x04A8 [0x53] WAIT_SCHEDULER_TASK: Wait for scheduler "sl00" with entities [EventEntity, EventEntity]
  2: 0x04B5 [0x00] END_REQSTACK()
```

### Event 559

#### Metadata

| Field        | Value    |
|--------------|----------|
| Entrypoint   | 0x04B6   |
| Data Size    | 56 bytes |
| Instructions | 14       |

```
      00 01 02 03 04 05 06 07  08 09 0A 0B 0C 0D 0E 0F
      -- -- -- -- -- -- -- --  -- -- -- -- -- -- -- --
04B0:                   42 48  44 80 1E F0 FF FF 7F 1C        BHD.......
04C0: 2E 80 1D 45 80 23 66 19  80 F8 FF FF 7F F8 FF FF  ...E.#f.........
04D0: 7F 74 6C 6B 30 1D 46 80  23 1D 47 80 23 66 19 80  .tlk0.F.#.G.#f..
04E0: F8 FF FF 7F F8 FF FF 7F  74 6C 6B 31 21 00        ........tlk1!.  
```

#### Opcodes

```
  0: 0x04B6 [0x42] SET_CLI_EVENT_CANCEL_DATA()
  1: 0x04B7 [0x48] [System] [8289*]:
    → "<Player>'s badge flashes brightly."
  2: 0x04BA [0x1E] EventEntity looks at LocalPlayer and starts talking
  3: 0x04BF [0x1C] WAIT(30* ticks)
  4: 0x04C2 [0x1D] PRINT_EVENT_MESSAGE(message_id=8294*)
    → "A badge of that despicable mercenary outfit in here? You show a surprising lack of discretion, adventurer."
  5: 0x04C5 [0x23] WAIT_FOR_DIALOG_INTERACTION
  6: 0x04C6 [0x66] LOAD_EXT_SCHEDULER_MAIN: Load scheduler "tlk0" with entities [EventEntity, EventEntity], work=20*
  7: 0x04D5 [0x1D] PRINT_EVENT_MESSAGE(message_id=8295*)
    → "Or so I should like to say to even my own knights. There are those within our ranks that have felt the lure of mercenary wages."
  8: 0x04D8 [0x23] WAIT_FOR_DIALOG_INTERACTION
  9: 0x04D9 [0x1D] PRINT_EVENT_MESSAGE(message_id=8296*)
    → "I would hope their oaths as protectors of the Kingdom were taken more seriously. No matter--I am certain this temptation will strike but once, then leave our knights stronger for the experience."
 10: 0x04DC [0x23] WAIT_FOR_DIALOG_INTERACTION
 11: 0x04DD [0x66] LOAD_EXT_SCHEDULER_MAIN: Load scheduler "tlk1" with entities [EventEntity, EventEntity], work=20*
 12: 0x04EC [0x21] END_EVENT
 13: 0x04ED [0x00] END_REQSTACK()
```

### Event 579

#### Metadata

| Field        | Value   |
|--------------|---------|
| Entrypoint   | 0x04EE  |
| Data Size    | 1 bytes |
| Instructions | 1       |

```
      00 01 02 03 04 05 06 07  08 09 0A 0B 0C 0D 0E 0F
      -- -- -- -- -- -- -- --  -- -- -- -- -- -- -- --
04E0:                                            00                   . 
```

#### Opcodes

```
  0: 0x04EE [0x00] END_REQSTACK()
```

### Event 580

#### Metadata

| Field        | Value   |
|--------------|---------|
| Entrypoint   | 0x04EF  |
| Data Size    | 1 bytes |
| Instructions | 1       |

```
      00 01 02 03 04 05 06 07  08 09 0A 0B 0C 0D 0E 0F
      -- -- -- -- -- -- -- --  -- -- -- -- -- -- -- --
04E0:                                               00                 .
```

#### Opcodes

```
  0: 0x04EF [0x00] END_REQSTACK()
```

### Event 582

#### Metadata

| Field        | Value   |
|--------------|---------|
| Entrypoint   | 0x04F0  |
| Data Size    | 1 bytes |
| Instructions | 1       |

```
      00 01 02 03 04 05 06 07  08 09 0A 0B 0C 0D 0E 0F
      -- -- -- -- -- -- -- --  -- -- -- -- -- -- -- --
04F0: 00                                                .               
```

#### Opcodes

```
  0: 0x04F0 [0x00] END_REQSTACK()
```

### Event 65535.16

#### Metadata

| Field        | Value    |
|--------------|----------|
| Entrypoint   | 0x04F1   |
| Data Size    | 16 bytes |
| Instructions | 2        |

```
      00 01 02 03 04 05 06 07  08 09 0A 0B 0C 0D 0E 0F
      -- -- -- -- -- -- -- --  -- -- -- -- -- -- -- --
04F0:    66 19 80 F8 FF FF 7F  F8 FF FF 7F 74 6C 6B 30   f..........tlk0
0500: 00                                                .               
```

#### Opcodes

```
  0: 0x04F1 [0x66] LOAD_EXT_SCHEDULER_MAIN: Load scheduler "tlk0" with entities [EventEntity, EventEntity], work=20*
  1: 0x0500 [0x00] END_REQSTACK()
```

### Event 65535.17

#### Metadata

| Field        | Value    |
|--------------|----------|
| Entrypoint   | 0x0501   |
| Data Size    | 14 bytes |
| Instructions | 2        |

```
      00 01 02 03 04 05 06 07  08 09 0A 0B 0C 0D 0E 0F
      -- -- -- -- -- -- -- --  -- -- -- -- -- -- -- --
0500:    53 F8 FF FF 7F F8 FF  FF 7F 74 6C 6B 30 00      S........tlk0. 
```

#### Opcodes

```
  0: 0x0501 [0x53] WAIT_SCHEDULER_TASK: Wait for scheduler "tlk0" with entities [EventEntity, EventEntity]
  1: 0x050E [0x00] END_REQSTACK()
```

### Event 65535.18

#### Metadata

| Field        | Value    |
|--------------|----------|
| Entrypoint   | 0x050F   |
| Data Size    | 16 bytes |
| Instructions | 2        |

```
      00 01 02 03 04 05 06 07  08 09 0A 0B 0C 0D 0E 0F
      -- -- -- -- -- -- -- --  -- -- -- -- -- -- -- --
0500:                                               66                 f
0510: 19 80 F8 FF FF 7F F8 FF  FF 7F 74 6C 6B 31 00     ..........tlk1. 
```

#### Opcodes

```
  0: 0x050F [0x66] LOAD_EXT_SCHEDULER_MAIN: Load scheduler "tlk1" with entities [EventEntity, EventEntity], work=20*
  1: 0x051E [0x00] END_REQSTACK()
```

### Event 65535.19

#### Metadata

| Field        | Value    |
|--------------|----------|
| Entrypoint   | 0x051F   |
| Data Size    | 14 bytes |
| Instructions | 2        |

```
      00 01 02 03 04 05 06 07  08 09 0A 0B 0C 0D 0E 0F
      -- -- -- -- -- -- -- --  -- -- -- -- -- -- -- --
0510:                                               53                 S
0520: F8 FF FF 7F F8 FF FF 7F  74 6C 6B 31 00           ........tlk1.   
```

#### Opcodes

```
  0: 0x051F [0x53] WAIT_SCHEDULER_TASK: Wait for scheduler "tlk1" with entities [EventEntity, EventEntity]
  1: 0x052C [0x00] END_REQSTACK()
```

### Event 65535.20

#### Metadata

| Field        | Value    |
|--------------|----------|
| Entrypoint   | 0x052D   |
| Data Size    | 16 bytes |
| Instructions | 2        |

```
      00 01 02 03 04 05 06 07  08 09 0A 0B 0C 0D 0E 0F
      -- -- -- -- -- -- -- --  -- -- -- -- -- -- -- --
0520:                                         66 19 80               f..
0530: F8 FF FF 7F F8 FF FF 7F  74 68 6B 31 00           ........thk1.   
```

#### Opcodes

```
  0: 0x052D [0x66] LOAD_EXT_SCHEDULER_MAIN: Load scheduler "thk1" with entities [EventEntity, EventEntity], work=20*
  1: 0x053C [0x00] END_REQSTACK()
```

### Event 65535.21

#### Metadata

| Field        | Value    |
|--------------|----------|
| Entrypoint   | 0x053D   |
| Data Size    | 14 bytes |
| Instructions | 2        |

```
      00 01 02 03 04 05 06 07  08 09 0A 0B 0C 0D 0E 0F
      -- -- -- -- -- -- -- --  -- -- -- -- -- -- -- --
0530:                                         53 F8 FF               S..
0540: FF 7F F8 FF FF 7F 74 68  6B 31 00                 ......thk1.     
```

#### Opcodes

```
  0: 0x053D [0x53] WAIT_SCHEDULER_TASK: Wait for scheduler "thk1" with entities [EventEntity, EventEntity]
  1: 0x054A [0x00] END_REQSTACK()
```

### Event 65535.22

#### Metadata

| Field        | Value    |
|--------------|----------|
| Entrypoint   | 0x054B   |
| Data Size    | 16 bytes |
| Instructions | 2        |

```
      00 01 02 03 04 05 06 07  08 09 0A 0B 0C 0D 0E 0F
      -- -- -- -- -- -- -- --  -- -- -- -- -- -- -- --
0540:                                   66 19 80 F8 FF             f....
0550: FF 7F F8 FF FF 7F 74 68  6B 32 00                 ......thk2.     
```

#### Opcodes

```
  0: 0x054B [0x66] LOAD_EXT_SCHEDULER_MAIN: Load scheduler "thk2" with entities [EventEntity, EventEntity], work=20*
  1: 0x055A [0x00] END_REQSTACK()
```

### Event 65535.23

#### Metadata

| Field        | Value    |
|--------------|----------|
| Entrypoint   | 0x055B   |
| Data Size    | 14 bytes |
| Instructions | 2        |

```
      00 01 02 03 04 05 06 07  08 09 0A 0B 0C 0D 0E 0F
      -- -- -- -- -- -- -- --  -- -- -- -- -- -- -- --
0550:                                   53 F8 FF FF 7F             S....
0560: F8 FF FF 7F 74 68 6B 32  00                       ....thk2.       
```

#### Opcodes

```
  0: 0x055B [0x53] WAIT_SCHEDULER_TASK: Wait for scheduler "thk2" with entities [EventEntity, EventEntity]
  1: 0x0568 [0x00] END_REQSTACK()
```

### Event 65535.24

#### Metadata

| Field        | Value    |
|--------------|----------|
| Entrypoint   | 0x0569   |
| Data Size    | 16 bytes |
| Instructions | 2        |

```
      00 01 02 03 04 05 06 07  08 09 0A 0B 0C 0D 0E 0F
      -- -- -- -- -- -- -- --  -- -- -- -- -- -- -- --
0560:                             66 19 80 F8 FF FF 7F           f......
0570: F8 FF FF 7F 70 61 73 30  00                       ....pas0.       
```

#### Opcodes

```
  0: 0x0569 [0x66] LOAD_EXT_SCHEDULER_MAIN: Load scheduler "pas0" with entities [EventEntity, EventEntity], work=20*
  1: 0x0578 [0x00] END_REQSTACK()
```

### Event 65535.25

#### Metadata

| Field        | Value    |
|--------------|----------|
| Entrypoint   | 0x0579   |
| Data Size    | 14 bytes |
| Instructions | 2        |

```
      00 01 02 03 04 05 06 07  08 09 0A 0B 0C 0D 0E 0F
      -- -- -- -- -- -- -- --  -- -- -- -- -- -- -- --
0570:                             53 F8 FF FF 7F F8 FF           S......
0580: FF 7F 70 61 73 30 00                              ..pas0.         
```

#### Opcodes

```
  0: 0x0579 [0x53] WAIT_SCHEDULER_TASK: Wait for scheduler "pas0" with entities [EventEntity, EventEntity]
  1: 0x0586 [0x00] END_REQSTACK()
```

### Event 65535.26

#### Metadata

| Field        | Value    |
|--------------|----------|
| Entrypoint   | 0x0587   |
| Data Size    | 16 bytes |
| Instructions | 2        |

```
      00 01 02 03 04 05 06 07  08 09 0A 0B 0C 0D 0E 0F
      -- -- -- -- -- -- -- --  -- -- -- -- -- -- -- --
0580:                      66  26 80 F8 FF FF 7F F8 FF         f&.......
0590: FF 7F 70 6F 69 30 00                              ..poi0.         
```

#### Opcodes

```
  0: 0x0587 [0x66] LOAD_EXT_SCHEDULER_MAIN: Load scheduler "poi0" with entities [EventEntity, EventEntity], work=21*
  1: 0x0596 [0x00] END_REQSTACK()
```

### Event 65535.27

#### Metadata

| Field        | Value    |
|--------------|----------|
| Entrypoint   | 0x0597   |
| Data Size    | 14 bytes |
| Instructions | 2        |

```
      00 01 02 03 04 05 06 07  08 09 0A 0B 0C 0D 0E 0F
      -- -- -- -- -- -- -- --  -- -- -- -- -- -- -- --
0590:                      53  F8 FF FF 7F F8 FF FF 7F         S........
05A0: 70 6F 69 30 00                                    poi0.           
```

#### Opcodes

```
  0: 0x0597 [0x53] WAIT_SCHEDULER_TASK: Wait for scheduler "poi0" with entities [EventEntity, EventEntity]
  1: 0x05A4 [0x00] END_REQSTACK()
```

### Event 65535.28

#### Metadata

| Field        | Value    |
|--------------|----------|
| Entrypoint   | 0x05A5   |
| Data Size    | 16 bytes |
| Instructions | 2        |

```
      00 01 02 03 04 05 06 07  08 09 0A 0B 0C 0D 0E 0F
      -- -- -- -- -- -- -- --  -- -- -- -- -- -- -- --
05A0:                66 26 80  F8 FF FF 7F F8 FF FF 7F       f&.........
05B0: 70 6F 69 31 00                                    poi1.           
```

#### Opcodes

```
  0: 0x05A5 [0x66] LOAD_EXT_SCHEDULER_MAIN: Load scheduler "poi1" with entities [EventEntity, EventEntity], work=21*
  1: 0x05B4 [0x00] END_REQSTACK()
```

### Event 65535.29

#### Metadata

| Field        | Value    |
|--------------|----------|
| Entrypoint   | 0x05B5   |
| Data Size    | 14 bytes |
| Instructions | 2        |

```
      00 01 02 03 04 05 06 07  08 09 0A 0B 0C 0D 0E 0F
      -- -- -- -- -- -- -- --  -- -- -- -- -- -- -- --
05B0:                53 F8 FF  FF 7F F8 FF FF 7F 70 6F       S........po
05C0: 69 31 00                                          i1.             
```

#### Opcodes

```
  0: 0x05B5 [0x53] WAIT_SCHEDULER_TASK: Wait for scheduler "poi1" with entities [EventEntity, EventEntity]
  1: 0x05C2 [0x00] END_REQSTACK()
```

### Event 65535.30

#### Metadata

| Field        | Value    |
|--------------|----------|
| Entrypoint   | 0x05C3   |
| Data Size    | 16 bytes |
| Instructions | 2        |

```
      00 01 02 03 04 05 06 07  08 09 0A 0B 0C 0D 0E 0F
      -- -- -- -- -- -- -- --  -- -- -- -- -- -- -- --
05C0:          66 26 80 F8 FF  FF 7F F8 FF FF 7F 64 69     f&.........di
05D0: 73 30 00                                          s0.             
```

#### Opcodes

```
  0: 0x05C3 [0x66] LOAD_EXT_SCHEDULER_MAIN: Load scheduler "dis0" with entities [EventEntity, EventEntity], work=21*
  1: 0x05D2 [0x00] END_REQSTACK()
```

### Event 65535.31

#### Metadata

| Field        | Value    |
|--------------|----------|
| Entrypoint   | 0x05D3   |
| Data Size    | 14 bytes |
| Instructions | 2        |

```
      00 01 02 03 04 05 06 07  08 09 0A 0B 0C 0D 0E 0F
      -- -- -- -- -- -- -- --  -- -- -- -- -- -- -- --
05D0:          53 F8 FF FF 7F  F8 FF FF 7F 64 69 73 30     S........dis0
05E0: 00                                                .               
```

#### Opcodes

```
  0: 0x05D3 [0x53] WAIT_SCHEDULER_TASK: Wait for scheduler "dis0" with entities [EventEntity, EventEntity]
  1: 0x05E0 [0x00] END_REQSTACK()
```

### Event 65535.32

#### Metadata

| Field        | Value    |
|--------------|----------|
| Entrypoint   | 0x05E1   |
| Data Size    | 16 bytes |
| Instructions | 2        |

```
      00 01 02 03 04 05 06 07  08 09 0A 0B 0C 0D 0E 0F
      -- -- -- -- -- -- -- --  -- -- -- -- -- -- -- --
05E0:    66 48 80 F8 FF FF 7F  F8 FF FF 7F 6F 72 6F 30   fH.........oro0
05F0: 00                                                .               
```

#### Opcodes

```
  0: 0x05E1 [0x66] LOAD_EXT_SCHEDULER_MAIN: Load scheduler "oro0" with entities [EventEntity, EventEntity], work=26*
  1: 0x05F0 [0x00] END_REQSTACK()
```

### Event 65535.33

#### Metadata

| Field        | Value    |
|--------------|----------|
| Entrypoint   | 0x05F1   |
| Data Size    | 14 bytes |
| Instructions | 2        |

```
      00 01 02 03 04 05 06 07  08 09 0A 0B 0C 0D 0E 0F
      -- -- -- -- -- -- -- --  -- -- -- -- -- -- -- --
05F0:    53 F8 FF FF 7F F8 FF  FF 7F 6F 72 6F 30 00      S........oro0. 
```

#### Opcodes

```
  0: 0x05F1 [0x53] WAIT_SCHEDULER_TASK: Wait for scheduler "oro0" with entities [EventEntity, EventEntity]
  1: 0x05FE [0x00] END_REQSTACK()
```

### Event 65535.34

#### Metadata

| Field        | Value    |
|--------------|----------|
| Entrypoint   | 0x05FF   |
| Data Size    | 16 bytes |
| Instructions | 2        |

```
      00 01 02 03 04 05 06 07  08 09 0A 0B 0C 0D 0E 0F
      -- -- -- -- -- -- -- --  -- -- -- -- -- -- -- --
05F0:                                               66                 f
0600: 48 80 F8 FF FF 7F F8 FF  FF 7F 6F 72 6F 31 00     H.........oro1. 
```

#### Opcodes

```
  0: 0x05FF [0x66] LOAD_EXT_SCHEDULER_MAIN: Load scheduler "oro1" with entities [EventEntity, EventEntity], work=26*
  1: 0x060E [0x00] END_REQSTACK()
```

### Event 65535.35

#### Metadata

| Field        | Value    |
|--------------|----------|
| Entrypoint   | 0x060F   |
| Data Size    | 14 bytes |
| Instructions | 2        |

```
      00 01 02 03 04 05 06 07  08 09 0A 0B 0C 0D 0E 0F
      -- -- -- -- -- -- -- --  -- -- -- -- -- -- -- --
0600:                                               53                 S
0610: F8 FF FF 7F F8 FF FF 7F  6F 72 6F 31 00           ........oro1.   
```

#### Opcodes

```
  0: 0x060F [0x53] WAIT_SCHEDULER_TASK: Wait for scheduler "oro1" with entities [EventEntity, EventEntity]
  1: 0x061C [0x00] END_REQSTACK()
```

### Event 65535.36

#### Metadata

| Field        | Value    |
|--------------|----------|
| Entrypoint   | 0x061D   |
| Data Size    | 16 bytes |
| Instructions | 2        |

```
      00 01 02 03 04 05 06 07  08 09 0A 0B 0C 0D 0E 0F
      -- -- -- -- -- -- -- --  -- -- -- -- -- -- -- --
0610:                                         66 49 80               fI.
0620: F8 FF FF 7F F8 FF FF 7F  74 6C 62 30 00           ........tlb0.   
```

#### Opcodes

```
  0: 0x061D [0x66] LOAD_EXT_SCHEDULER_MAIN: Load scheduler "tlb0" with entities [EventEntity, EventEntity], work=27*
  1: 0x062C [0x00] END_REQSTACK()
```

### Event 65535.37

#### Metadata

| Field        | Value    |
|--------------|----------|
| Entrypoint   | 0x062D   |
| Data Size    | 14 bytes |
| Instructions | 2        |

```
      00 01 02 03 04 05 06 07  08 09 0A 0B 0C 0D 0E 0F
      -- -- -- -- -- -- -- --  -- -- -- -- -- -- -- --
0620:                                         53 F8 FF               S..
0630: FF 7F F8 FF FF 7F 74 6C  62 30 00                 ......tlb0.     
```

#### Opcodes

```
  0: 0x062D [0x53] WAIT_SCHEDULER_TASK: Wait for scheduler "tlb0" with entities [EventEntity, EventEntity]
  1: 0x063A [0x00] END_REQSTACK()
```

### Event 65535.38

#### Metadata

| Field        | Value    |
|--------------|----------|
| Entrypoint   | 0x063B   |
| Data Size    | 16 bytes |
| Instructions | 2        |

```
      00 01 02 03 04 05 06 07  08 09 0A 0B 0C 0D 0E 0F
      -- -- -- -- -- -- -- --  -- -- -- -- -- -- -- --
0630:                                   66 49 80 F8 FF             fI...
0640: FF 7F F8 FF FF 7F 74 6C  62 31 00                 ......tlb1.     
```

#### Opcodes

```
  0: 0x063B [0x66] LOAD_EXT_SCHEDULER_MAIN: Load scheduler "tlb1" with entities [EventEntity, EventEntity], work=27*
  1: 0x064A [0x00] END_REQSTACK()
```

### Event 65535.39

#### Metadata

| Field        | Value    |
|--------------|----------|
| Entrypoint   | 0x064B   |
| Data Size    | 14 bytes |
| Instructions | 2        |

```
      00 01 02 03 04 05 06 07  08 09 0A 0B 0C 0D 0E 0F
      -- -- -- -- -- -- -- --  -- -- -- -- -- -- -- --
0640:                                   53 F8 FF FF 7F             S....
0650: F8 FF FF 7F 74 6C 62 31  00                       ....tlb1.       
```

#### Opcodes

```
  0: 0x064B [0x53] WAIT_SCHEDULER_TASK: Wait for scheduler "tlb1" with entities [EventEntity, EventEntity]
  1: 0x0658 [0x00] END_REQSTACK()
```

### Event 65535.40

#### Metadata

| Field        | Value    |
|--------------|----------|
| Entrypoint   | 0x0659   |
| Data Size    | 16 bytes |
| Instructions | 2        |

```
      00 01 02 03 04 05 06 07  08 09 0A 0B 0C 0D 0E 0F
      -- -- -- -- -- -- -- --  -- -- -- -- -- -- -- --
0650:                             66 4A 80 F8 FF FF 7F           fJ.....
0660: F8 FF FF 7F 73 69 74 30  00                       ....sit0.       
```

#### Opcodes

```
  0: 0x0659 [0x66] LOAD_EXT_SCHEDULER_MAIN: Load scheduler "sit0" with entities [EventEntity, EventEntity], work=29*
  1: 0x0668 [0x00] END_REQSTACK()
```

### Event 65535.41

#### Metadata

| Field        | Value    |
|--------------|----------|
| Entrypoint   | 0x0669   |
| Data Size    | 14 bytes |
| Instructions | 2        |

```
      00 01 02 03 04 05 06 07  08 09 0A 0B 0C 0D 0E 0F
      -- -- -- -- -- -- -- --  -- -- -- -- -- -- -- --
0660:                             53 F8 FF FF 7F F8 FF           S......
0670: FF 7F 73 69 74 30 00                              ..sit0.         
```

#### Opcodes

```
  0: 0x0669 [0x53] WAIT_SCHEDULER_TASK: Wait for scheduler "sit0" with entities [EventEntity, EventEntity]
  1: 0x0676 [0x00] END_REQSTACK()
```

### Event 65535.42

#### Metadata

| Field        | Value    |
|--------------|----------|
| Entrypoint   | 0x0677   |
| Data Size    | 16 bytes |
| Instructions | 2        |

```
      00 01 02 03 04 05 06 07  08 09 0A 0B 0C 0D 0E 0F
      -- -- -- -- -- -- -- --  -- -- -- -- -- -- -- --
0670:                      66  4A 80 F8 FF FF 7F F8 FF         fJ.......
0680: FF 7F 73 69 74 31 00                              ..sit1.         
```

#### Opcodes

```
  0: 0x0677 [0x66] LOAD_EXT_SCHEDULER_MAIN: Load scheduler "sit1" with entities [EventEntity, EventEntity], work=29*
  1: 0x0686 [0x00] END_REQSTACK()
```

### Event 65535.43

#### Metadata

| Field        | Value    |
|--------------|----------|
| Entrypoint   | 0x0687   |
| Data Size    | 14 bytes |
| Instructions | 2        |

```
      00 01 02 03 04 05 06 07  08 09 0A 0B 0C 0D 0E 0F
      -- -- -- -- -- -- -- --  -- -- -- -- -- -- -- --
0680:                      53  F8 FF FF 7F F8 FF FF 7F         S........
0690: 73 69 74 31 00                                    sit1.           
```

#### Opcodes

```
  0: 0x0687 [0x53] WAIT_SCHEDULER_TASK: Wait for scheduler "sit1" with entities [EventEntity, EventEntity]
  1: 0x0694 [0x00] END_REQSTACK()
```

### Event 65535.44

#### Metadata

| Field        | Value    |
|--------------|----------|
| Entrypoint   | 0x0695   |
| Data Size    | 16 bytes |
| Instructions | 2        |

```
      00 01 02 03 04 05 06 07  08 09 0A 0B 0C 0D 0E 0F
      -- -- -- -- -- -- -- --  -- -- -- -- -- -- -- --
0690:                66 4A 80  F8 FF FF 7F F8 FF FF 7F       fJ.........
06A0: 73 69 74 6C 00                                    sitl.           
```

#### Opcodes

```
  0: 0x0695 [0x66] LOAD_EXT_SCHEDULER_MAIN: Load scheduler "sitl" with entities [EventEntity, EventEntity], work=29*
  1: 0x06A4 [0x00] END_REQSTACK()
```

### Event 65535.45

#### Metadata

| Field        | Value    |
|--------------|----------|
| Entrypoint   | 0x06A5   |
| Data Size    | 14 bytes |
| Instructions | 2        |

```
      00 01 02 03 04 05 06 07  08 09 0A 0B 0C 0D 0E 0F
      -- -- -- -- -- -- -- --  -- -- -- -- -- -- -- --
06A0:                53 F8 FF  FF 7F F8 FF FF 7F 73 69       S........si
06B0: 74 6C 00                                          tl.             
```

#### Opcodes

```
  0: 0x06A5 [0x53] WAIT_SCHEDULER_TASK: Wait for scheduler "sitl" with entities [EventEntity, EventEntity]
  1: 0x06B2 [0x00] END_REQSTACK()
```

### Event 598

#### Metadata

| Field        | Value   |
|--------------|---------|
| Entrypoint   | 0x06B3  |
| Data Size    | 1 bytes |
| Instructions | 1       |

```
      00 01 02 03 04 05 06 07  08 09 0A 0B 0C 0D 0E 0F
      -- -- -- -- -- -- -- --  -- -- -- -- -- -- -- --
06B0:          00                                          .            
```

#### Opcodes

```
  0: 0x06B3 [0x00] END_REQSTACK()
```

### Event 65535.46

#### Metadata

| Field        | Value    |
|--------------|----------|
| Entrypoint   | 0x06B4   |
| Data Size    | 16 bytes |
| Instructions | 2        |

```
      00 01 02 03 04 05 06 07  08 09 0A 0B 0C 0D 0E 0F
      -- -- -- -- -- -- -- --  -- -- -- -- -- -- -- --
06B0:             66 26 80 F8  FF FF 7F F8 FF FF 7F 73      f&.........s
06C0: 6C 30 30 00                                       l00.            
```

#### Opcodes

```
  0: 0x06B4 [0x66] LOAD_EXT_SCHEDULER_MAIN: Load scheduler "sl00" with entities [EventEntity, EventEntity], work=21*
  1: 0x06C3 [0x00] END_REQSTACK()
```

### Event 65535.47

#### Metadata

| Field        | Value    |
|--------------|----------|
| Entrypoint   | 0x06C4   |
| Data Size    | 14 bytes |
| Instructions | 2        |

```
      00 01 02 03 04 05 06 07  08 09 0A 0B 0C 0D 0E 0F
      -- -- -- -- -- -- -- --  -- -- -- -- -- -- -- --
06C0:             53 F8 FF FF  7F F8 FF FF 7F 73 6C 30      S........sl0
06D0: 30 00                                             0.              
```

#### Opcodes

```
  0: 0x06C4 [0x53] WAIT_SCHEDULER_TASK: Wait for scheduler "sl00" with entities [EventEntity, EventEntity]
  1: 0x06D1 [0x00] END_REQSTACK()
```

### Event 65535.48

#### Metadata

| Field        | Value    |
|--------------|----------|
| Entrypoint   | 0x06D2   |
| Data Size    | 16 bytes |
| Instructions | 2        |

```
      00 01 02 03 04 05 06 07  08 09 0A 0B 0C 0D 0E 0F
      -- -- -- -- -- -- -- --  -- -- -- -- -- -- -- --
06D0:       66 4B 80 F8 FF FF  7F F8 FF FF 7F 61 72 6D    fK.........arm
06E0: 30 00                                             0.              
```

#### Opcodes

```
  0: 0x06D2 [0x66] LOAD_EXT_SCHEDULER_MAIN: Load scheduler "arm0" with entities [EventEntity, EventEntity], work=22*
  1: 0x06E1 [0x00] END_REQSTACK()
```

### Event 65535.49

#### Metadata

| Field        | Value    |
|--------------|----------|
| Entrypoint   | 0x06E2   |
| Data Size    | 14 bytes |
| Instructions | 2        |

```
      00 01 02 03 04 05 06 07  08 09 0A 0B 0C 0D 0E 0F
      -- -- -- -- -- -- -- --  -- -- -- -- -- -- -- --
06E0:       53 F8 FF FF 7F F8  FF FF 7F 61 72 6D 30 00    S........arm0.
```

#### Opcodes

```
  0: 0x06E2 [0x53] WAIT_SCHEDULER_TASK: Wait for scheduler "arm0" with entities [EventEntity, EventEntity]
  1: 0x06EF [0x00] END_REQSTACK()
```

### Event 65535.50

#### Metadata

| Field        | Value    |
|--------------|----------|
| Entrypoint   | 0x06F0   |
| Data Size    | 22 bytes |
| Instructions | 8        |

```
      00 01 02 03 04 05 06 07  08 09 0A 0B 0C 0D 0E 0F
      -- -- -- -- -- -- -- --  -- -- -- -- -- -- -- --
06F0: 32 05 80 1F 00 4C 80 4D  80 02 80 1F 01 6F 1E 66  2....L.M.....o.f
0700: 90 0E 01 6F 70 00                                 ...op.          
```

#### Opcodes

```
  0: 0x06F0 [0x32] ExtData[1]->MainSpeed = 13* * 0.1
  1: 0x06F3 [0x1F] MOVE_ENTITY: EventEntity moves to X=-23.920*, Z=-0.960*, Y=0.000*
  2: 0x06FB [0x1F] MOVE_ENTITY: Update entity position (mode=1)
  3: 0x06FD [0x6F] WAIT_FRAME_DELAY: Yield until WaitTime reaches zero
  4: 0x06FE [0x1E] EventEntity looks at Trion (ID: 17731686/0x010E9066) and starts talking
  5: 0x0703 [0x6F] WAIT_FRAME_DELAY: Yield until WaitTime reaches zero
  6: 0x0704 [0x70] WAIT_ENTITY_RENDER_FLAG: Wait while EventEntity->Render.Flags3 bit 2 is set (cancel turn if not)
  7: 0x0705 [0x00] END_REQSTACK()
```

### Event 65535.51

#### Metadata

| Field        | Value    |
|--------------|----------|
| Entrypoint   | 0x0706   |
| Data Size    | 26 bytes |
| Instructions | 8        |

```
      00 01 02 03 04 05 06 07  08 09 0A 0B 0C 0D 0E 0F
      -- -- -- -- -- -- -- --  -- -- -- -- -- -- -- --
0700:                   32 05  80 1F 00 4E 80 4F 80 02        2....N.O..
0710: 80 1F 01 6F 1F 00 50 80  51 80 02 80 1F 01 6F 00  ...o..P.Q.....o.
```

#### Opcodes

```
  0: 0x0706 [0x32] ExtData[1]->MainSpeed = 13* * 0.1
  1: 0x0709 [0x1F] MOVE_ENTITY: EventEntity moves to X=-23.674*, Z=-6.320*, Y=0.000*
  2: 0x0711 [0x1F] MOVE_ENTITY: Update entity position (mode=1)
  3: 0x0713 [0x6F] WAIT_FRAME_DELAY: Yield until WaitTime reaches zero
  4: 0x0714 [0x1F] MOVE_ENTITY: EventEntity moves to X=-26.607*, Z=-5.644*, Y=0.000*
  5: 0x071C [0x1F] MOVE_ENTITY: Update entity position (mode=1)
  6: 0x071E [0x6F] WAIT_FRAME_DELAY: Yield until WaitTime reaches zero
  7: 0x071F [0x00] END_REQSTACK()
```

### Event 65535.52

#### Metadata

| Field        | Value    |
|--------------|----------|
| Entrypoint   | 0x0720   |
| Data Size    | 15 bytes |
| Instructions | 5        |

```
      00 01 02 03 04 05 06 07  08 09 0A 0B 0C 0D 0E 0F
      -- -- -- -- -- -- -- --  -- -- -- -- -- -- -- --
0720: 32 05 80 1F 00 52 80 53  80 02 80 1F 01 6F 00     2....R.S.....o. 
```

#### Opcodes

```
  0: 0x0720 [0x32] ExtData[1]->MainSpeed = 13* * 0.1
  1: 0x0723 [0x1F] MOVE_ENTITY: EventEntity moves to X=-24.968*, Z=-5.063*, Y=0.000*
  2: 0x072B [0x1F] MOVE_ENTITY: Update entity position (mode=1)
  3: 0x072D [0x6F] WAIT_FRAME_DELAY: Yield until WaitTime reaches zero
  4: 0x072E [0x00] END_REQSTACK()
```

### Event 65535.53

#### Metadata

| Field        | Value    |
|--------------|----------|
| Entrypoint   | 0x072F   |
| Data Size    | 15 bytes |
| Instructions | 5        |

```
      00 01 02 03 04 05 06 07  08 09 0A 0B 0C 0D 0E 0F
      -- -- -- -- -- -- -- --  -- -- -- -- -- -- -- --
0720:                                               32                 2
0730: 05 80 1F 00 54 80 55 80  02 80 1F 01 6F 00        ....T.U.....o.  
```

#### Opcodes

```
  0: 0x072F [0x32] ExtData[1]->MainSpeed = 13* * 0.1
  1: 0x0732 [0x1F] MOVE_ENTITY: EventEntity moves to X=-24.930*, Z=-3.440*, Y=0.000*
  2: 0x073A [0x1F] MOVE_ENTITY: Update entity position (mode=1)
  3: 0x073C [0x6F] WAIT_FRAME_DELAY: Yield until WaitTime reaches zero
  4: 0x073D [0x00] END_REQSTACK()
```

### Event 600

#### Metadata

| Field        | Value   |
|--------------|---------|
| Entrypoint   | 0x073E  |
| Data Size    | 1 bytes |
| Instructions | 1       |

```
      00 01 02 03 04 05 06 07  08 09 0A 0B 0C 0D 0E 0F
      -- -- -- -- -- -- -- --  -- -- -- -- -- -- -- --
0730:                                            00                   . 
```

#### Opcodes

```
  0: 0x073E [0x00] END_REQSTACK()
```

### Event 601

#### Metadata

| Field        | Value   |
|--------------|---------|
| Entrypoint   | 0x073F  |
| Data Size    | 1 bytes |
| Instructions | 1       |

```
      00 01 02 03 04 05 06 07  08 09 0A 0B 0C 0D 0E 0F
      -- -- -- -- -- -- -- --  -- -- -- -- -- -- -- --
0730:                                               00                 .
```

#### Opcodes

```
  0: 0x073F [0x00] END_REQSTACK()
```

### Event 603

#### Metadata

| Field        | Value   |
|--------------|---------|
| Entrypoint   | 0x0740  |
| Data Size    | 1 bytes |
| Instructions | 1       |

```
      00 01 02 03 04 05 06 07  08 09 0A 0B 0C 0D 0E 0F
      -- -- -- -- -- -- -- --  -- -- -- -- -- -- -- --
0740: 00                                                .               
```

#### Opcodes

```
  0: 0x0740 [0x00] END_REQSTACK()
```

### Event 65535.54

#### Metadata

| Field        | Value    |
|--------------|----------|
| Entrypoint   | 0x0741   |
| Data Size    | 22 bytes |
| Instructions | 8        |

```
      00 01 02 03 04 05 06 07  08 09 0A 0B 0C 0D 0E 0F
      -- -- -- -- -- -- -- --  -- -- -- -- -- -- -- --
0740:    32 05 80 1F 00 56 80  57 80 58 80 1F 01 6F 1E   2....V.W.X...o.
0750: 66 90 0E 01 6F 70 00                              f...op.         
```

#### Opcodes

```
  0: 0x0741 [0x32] ExtData[1]->MainSpeed = 13* * 0.1
  1: 0x0744 [0x1F] MOVE_ENTITY: EventEntity moves to X=-36.934*, Z=81.801*, Y=-3.749*
  2: 0x074C [0x1F] MOVE_ENTITY: Update entity position (mode=1)
  3: 0x074E [0x6F] WAIT_FRAME_DELAY: Yield until WaitTime reaches zero
  4: 0x074F [0x1E] EventEntity looks at Trion (ID: 17731686/0x010E9066) and starts talking
  5: 0x0754 [0x6F] WAIT_FRAME_DELAY: Yield until WaitTime reaches zero
  6: 0x0755 [0x70] WAIT_ENTITY_RENDER_FLAG: Wait while EventEntity->Render.Flags3 bit 2 is set (cancel turn if not)
  7: 0x0756 [0x00] END_REQSTACK()
```

### Event 605

#### Metadata

| Field        | Value   |
|--------------|---------|
| Entrypoint   | 0x0757  |
| Data Size    | 1 bytes |
| Instructions | 1       |

```
      00 01 02 03 04 05 06 07  08 09 0A 0B 0C 0D 0E 0F
      -- -- -- -- -- -- -- --  -- -- -- -- -- -- -- --
0750:                      00                                  .        
```

#### Opcodes

```
  0: 0x0757 [0x00] END_REQSTACK()
```

### Event 606

#### Metadata

| Field        | Value   |
|--------------|---------|
| Entrypoint   | 0x0758  |
| Data Size    | 1 bytes |
| Instructions | 1       |

```
      00 01 02 03 04 05 06 07  08 09 0A 0B 0C 0D 0E 0F
      -- -- -- -- -- -- -- --  -- -- -- -- -- -- -- --
0750:                          00                               .       
```

#### Opcodes

```
  0: 0x0758 [0x00] END_REQSTACK()
```

### Event 608

#### Metadata

| Field        | Value   |
|--------------|---------|
| Entrypoint   | 0x0759  |
| Data Size    | 1 bytes |
| Instructions | 1       |

```
      00 01 02 03 04 05 06 07  08 09 0A 0B 0C 0D 0E 0F
      -- -- -- -- -- -- -- --  -- -- -- -- -- -- -- --
0750:                             00                             .      
```

#### Opcodes

```
  0: 0x0759 [0x00] END_REQSTACK()
```

### Event 65535.55

#### Metadata

| Field        | Value    |
|--------------|----------|
| Entrypoint   | 0x075A   |
| Data Size    | 15 bytes |
| Instructions | 5        |

```
      00 01 02 03 04 05 06 07  08 09 0A 0B 0C 0D 0E 0F
      -- -- -- -- -- -- -- --  -- -- -- -- -- -- -- --
0750:                                32 05 80 1F 00 59            2....Y
0760: 80 5A 80 02 80 1F 01 6F  00                       .Z.....o.       
```

#### Opcodes

```
  0: 0x075A [0x32] ExtData[1]->MainSpeed = 13* * 0.1
  1: 0x075D [0x1F] MOVE_ENTITY: EventEntity moves to X=-31.051*, Z=-6.440*, Y=0.000*
  2: 0x0765 [0x1F] MOVE_ENTITY: Update entity position (mode=1)
  3: 0x0767 [0x6F] WAIT_FRAME_DELAY: Yield until WaitTime reaches zero
  4: 0x0768 [0x00] END_REQSTACK()
```

### Event 65535.56

#### Metadata

| Field        | Value    |
|--------------|----------|
| Entrypoint   | 0x0769   |
| Data Size    | 15 bytes |
| Instructions | 5        |

```
      00 01 02 03 04 05 06 07  08 09 0A 0B 0C 0D 0E 0F
      -- -- -- -- -- -- -- --  -- -- -- -- -- -- -- --
0760:                             32 05 80 1F 00 5B 80           2....[.
0770: 5C 80 02 80 1F 01 6F 00                           \.....o.        
```

#### Opcodes

```
  0: 0x0769 [0x32] ExtData[1]->MainSpeed = 13* * 0.1
  1: 0x076C [0x1F] MOVE_ENTITY: EventEntity moves to X=-32.568*, Z=-6.508*, Y=0.000*
  2: 0x0774 [0x1F] MOVE_ENTITY: Update entity position (mode=1)
  3: 0x0776 [0x6F] WAIT_FRAME_DELAY: Yield until WaitTime reaches zero
  4: 0x0777 [0x00] END_REQSTACK()
```

### Event 65535.57

#### Metadata

| Field        | Value    |
|--------------|----------|
| Entrypoint   | 0x0778   |
| Data Size    | 15 bytes |
| Instructions | 5        |

```
      00 01 02 03 04 05 06 07  08 09 0A 0B 0C 0D 0E 0F
      -- -- -- -- -- -- -- --  -- -- -- -- -- -- -- --
0770:                          32 05 80 1F 00 5D 80 5E          2....].^
0780: 80 02 80 1F 01 6F 00                              .....o.         
```

#### Opcodes

```
  0: 0x0778 [0x32] ExtData[1]->MainSpeed = 13* * 0.1
  1: 0x077B [0x1F] MOVE_ENTITY: EventEntity moves to X=-31.199*, Z=-6.537*, Y=0.000*
  2: 0x0783 [0x1F] MOVE_ENTITY: Update entity position (mode=1)
  3: 0x0785 [0x6F] WAIT_FRAME_DELAY: Yield until WaitTime reaches zero
  4: 0x0786 [0x00] END_REQSTACK()
```

### Event 65535.58

#### Metadata

| Field        | Value    |
|--------------|----------|
| Entrypoint   | 0x0787   |
| Data Size    | 15 bytes |
| Instructions | 5        |

```
      00 01 02 03 04 05 06 07  08 09 0A 0B 0C 0D 0E 0F
      -- -- -- -- -- -- -- --  -- -- -- -- -- -- -- --
0780:                      32  05 80 1F 00 5F 80 60 80         2...._.`.
0790: 02 80 1F 01 6F 00                                 ....o.          
```

#### Opcodes

```
  0: 0x0787 [0x32] ExtData[1]->MainSpeed = 13* * 0.1
  1: 0x078A [0x1F] MOVE_ENTITY: EventEntity moves to X=-24.844*, Z=3.737*, Y=0.000*
  2: 0x0792 [0x1F] MOVE_ENTITY: Update entity position (mode=1)
  3: 0x0794 [0x6F] WAIT_FRAME_DELAY: Yield until WaitTime reaches zero
  4: 0x0795 [0x00] END_REQSTACK()
```

### Event 65535.59

#### Metadata

| Field        | Value    |
|--------------|----------|
| Entrypoint   | 0x0796   |
| Data Size    | 22 bytes |
| Instructions | 8        |

```
      00 01 02 03 04 05 06 07  08 09 0A 0B 0C 0D 0E 0F
      -- -- -- -- -- -- -- --  -- -- -- -- -- -- -- --
0790:                   32 05  80 1F 00 61 80 62 80 02        2....a.b..
07A0: 80 1F 01 6F 1E F0 FF FF  7F 6F 70 00              ...o.....op.    
```

#### Opcodes

```
  0: 0x0796 [0x32] ExtData[1]->MainSpeed = 13* * 0.1
  1: 0x0799 [0x1F] MOVE_ENTITY: EventEntity moves to X=-31.030*, Z=-6.321*, Y=0.000*
  2: 0x07A1 [0x1F] MOVE_ENTITY: Update entity position (mode=1)
  3: 0x07A3 [0x6F] WAIT_FRAME_DELAY: Yield until WaitTime reaches zero
  4: 0x07A4 [0x1E] EventEntity looks at LocalPlayer and starts talking
  5: 0x07A9 [0x6F] WAIT_FRAME_DELAY: Yield until WaitTime reaches zero
  6: 0x07AA [0x70] WAIT_ENTITY_RENDER_FLAG: Wait while EventEntity->Render.Flags3 bit 2 is set (cancel turn if not)
  7: 0x07AB [0x00] END_REQSTACK()
```

### Event 65535.60

#### Metadata

| Field        | Value    |
|--------------|----------|
| Entrypoint   | 0x07AC   |
| Data Size    | 15 bytes |
| Instructions | 5        |

```
      00 01 02 03 04 05 06 07  08 09 0A 0B 0C 0D 0E 0F
      -- -- -- -- -- -- -- --  -- -- -- -- -- -- -- --
07A0:                                      32 05 80 1F              2...
07B0: 00 63 80 64 80 02 80 1F  01 6F 00                 .c.d.....o.     
```

#### Opcodes

```
  0: 0x07AC [0x32] ExtData[1]->MainSpeed = 13* * 0.1
  1: 0x07AF [0x1F] MOVE_ENTITY: EventEntity moves to X=-31.285*, Z=0.734*, Y=0.000*
  2: 0x07B7 [0x1F] MOVE_ENTITY: Update entity position (mode=1)
  3: 0x07B9 [0x6F] WAIT_FRAME_DELAY: Yield until WaitTime reaches zero
  4: 0x07BA [0x00] END_REQSTACK()
```
