# 17731616

## Common Data

| Field            | Value                         |
|------------------|-------------------------------|
| Zone             | Chateau d'Oraguille (ID: 233) |
| Block Size       | 196 bytes                     |
| Total Events     | 5                             |
| References Count | 11                            |

## List of Events

| Event ID                 | Entrypoint   |   Size |   Instructions |
|--------------------------|--------------|--------|----------------|
| [65535](#event-65535)    | 0x0000       |     10 |              2 |
| [121](#event-121)        | 0x000A       |      1 |              1 |
| [120](#event-120)        | 0x000B       |      1 |              1 |
| [65535.1](#event-655351) | 0x000C       |     32 |             10 |
| [65535.2](#event-655352) | 0x002C       |     69 |              8 |

## DAT References (imed_data)

|   Index | Hex Value   |   Dec Value |
|---------|-------------|-------------|
|       0 | 0xFFFFA0B0  |  4294942896 |
|       1 | 0xFFFFFCED  |  4294966509 |
|       2 | 0x0000      |           0 |
|       3 | 0x03F2      |        1010 |
|       4 | 0x0004      |           4 |
|       5 | 0xFFFF9E9A  |  4294942362 |
|       6 | 0xFFFFEF5D  |  4294963037 |
|       7 | 0xFFFF9BF2  |  4294941682 |
|       8 | 0xFFFFEB10  |  4294961936 |
|       9 | 0x0019      |          25 |
|      10 | 0x0046      |          70 |

## Events

### Event 65535

#### Metadata

| Field        | Value    |
|--------------|----------|
| Entrypoint   | 0x0000   |
| Data Size    | 10 bytes |
| Instructions | 2        |

```
      00 01 02 03 04 05 06 07  08 09 0A 0B 0C 0D 0E 0F
      -- -- -- -- -- -- -- --  -- -- -- -- -- -- -- --
0000: 37 00 80 01 80 02 80 03  80 00                    7.........      
```

#### Opcodes

```
  0: 0x0000 [0x37] UPDATE_EVENT_POSITION_AND_DIR: x=-24.400*, z=-0.787*, y=0.000*, direction=88.8°*
  1: 0x0009 [0x00] END_REQSTACK()
```

### Event 121

#### Metadata

| Field        | Value   |
|--------------|---------|
| Entrypoint   | 0x000A  |
| Data Size    | 1 bytes |
| Instructions | 1       |

```
      00 01 02 03 04 05 06 07  08 09 0A 0B 0C 0D 0E 0F
      -- -- -- -- -- -- -- --  -- -- -- -- -- -- -- --
0000:                                00                           .     
```

#### Opcodes

```
  0: 0x000A [0x00] END_REQSTACK()
```

### Event 120

#### Metadata

| Field        | Value   |
|--------------|---------|
| Entrypoint   | 0x000B  |
| Data Size    | 1 bytes |
| Instructions | 1       |

```
      00 01 02 03 04 05 06 07  08 09 0A 0B 0C 0D 0E 0F
      -- -- -- -- -- -- -- --  -- -- -- -- -- -- -- --
0000:                                   00                         .    
```

#### Opcodes

```
  0: 0x000B [0x00] END_REQSTACK()
```

### Event 65535.1

#### Metadata

| Field        | Value    |
|--------------|----------|
| Entrypoint   | 0x000C   |
| Data Size    | 32 bytes |
| Instructions | 10       |

```
      00 01 02 03 04 05 06 07  08 09 0A 0B 0C 0D 0E 0F
      -- -- -- -- -- -- -- --  -- -- -- -- -- -- -- --
0000:                                      32 04 80 1F              2...
0010: 00 05 80 06 80 02 80 1F  01 1F 00 07 80 08 80 02  ................
0020: 80 1F 01 6F 1E 09 90 0E  01 6F 70 00              ...o.....op.    
```

#### Opcodes

```
  0: 0x000C [0x32] ExtData[1]->MainSpeed = 4* * 0.1
  1: 0x000F [0x1F] MOVE_ENTITY: EventEntity moves to X=-24.934*, Z=-4.259*, Y=0.000*
  2: 0x0017 [0x1F] MOVE_ENTITY: Update entity position (mode=1)
  3: 0x0019 [0x1F] MOVE_ENTITY: EventEntity moves to X=-25.614*, Z=-5.360*, Y=0.000*
  4: 0x0021 [0x1F] MOVE_ENTITY: Update entity position (mode=1)
  5: 0x0023 [0x6F] WAIT_FRAME_DELAY: Yield until WaitTime reaches zero
  6: 0x0024 [0x1E] EventEntity looks at Rahal (ID: 17731593/0x010E9009) and starts talking
  7: 0x0029 [0x6F] WAIT_FRAME_DELAY: Yield until WaitTime reaches zero
  8: 0x002A [0x70] WAIT_ENTITY_RENDER_FLAG: Wait while EventEntity->Render.Flags3 bit 2 is set (cancel turn if not)
  9: 0x002B [0x00] END_REQSTACK()
```

### Event 65535.2

#### Metadata

| Field        | Value    |
|--------------|----------|
| Entrypoint   | 0x002C   |
| Data Size    | 69 bytes |
| Instructions | 8        |

```
      00 01 02 03 04 05 06 07  08 09 0A 0B 0C 0D 0E 0F
      -- -- -- -- -- -- -- --  -- -- -- -- -- -- -- --
0020:                                      66 09 80 F8              f...
0030: FF FF 7F F8 FF FF 7F 61  74 6B 30 1C 0A 80 7B F8  .......atk0...{.
0040: FF FF 7F 2C F8 FF FF 7F  F8 FF FF 7F 63 68 69 74  ...,........chit
0050: 2C F8 FF FF 7F F8 FF FF  7F 64 65 61 64 53 F8 FF  ,........deadS..
0060: FF 7F F8 FF FF 7F 64 65  61 64 2F 01 F8 FF FF 7F  ......dead/.....
0070: 00                                                .               
```

#### Opcodes

```
  0: 0x002C [0x66] LOAD_EXT_SCHEDULER_MAIN: Load scheduler "atk0" with entities [EventEntity, EventEntity], work=25*
  1: 0x003B [0x1C] WAIT(70* ticks)
  2: 0x003E [0x7B] EventEntity stops talking
  3: 0x0043 [0x2C] CREATE_SCHEDULER_TASK: Create scheduler "chit" with entities [EventEntity, EventEntity]
  4: 0x0050 [0x2C] CREATE_SCHEDULER_TASK: Create scheduler "dead" with entities [EventEntity, EventEntity]
  5: 0x005D [0x53] WAIT_SCHEDULER_TASK: Wait for scheduler "dead" with entities [EventEntity, EventEntity]
  6: 0x006A [0x2F] EventEntity->Render.Flags0 |= 0x80000 // Bit 19
  7: 0x0070 [0x00] END_REQSTACK()
```
