# 17731685

## Common Data

| Field            | Value                         |
|------------------|-------------------------------|
| Zone             | Chateau d'Oraguille (ID: 233) |
| Block Size       | 29872 bytes                   |
| Total Events     | 8                             |
| References Count | 424                           |

## List of Events

| Event ID              | Entrypoint   |   Size |   Instructions |
|-----------------------|--------------|--------|----------------|
| [65535](#event-65535) | 0x0000       |    658 |             62 |
| [604](#event-604)     | 0x0292       |  11892 |           1467 |
| [605](#event-605)     | 0x3106       |   9142 |           1116 |
| [606](#event-606)     | 0x54BC       |   3673 |            453 |
| [607](#event-607)     | 0x6315       |     48 |             11 |
| [608](#event-608)     | 0x6345       |    108 |             23 |
| [609](#event-609)     | 0x63B1       |   2497 |            331 |
| [610](#event-610)     | 0x6D72       |    107 |             22 |

## DAT References (imed_data)

|   Index | Hex Value   |   Dec Value |
|---------|-------------|-------------|
|       0 | 0x00C8      |         200 |
|       1 | 0x0000      |           0 |
|       2 | 0x00C9      |         201 |
|       3 | 0x0001      |           1 |
|       4 | 0x002D      |          45 |
|       5 | 0x0002      |           2 |
|       6 | 0x001E      |          30 |
|       7 | 0x00D7      |         215 |
|       8 | 0x0093      |         147 |
|       9 | 0x0974      |        2420 |
|      10 | 0x07AE      |        1966 |
|      11 | 0x0494      |        1172 |
|      12 | 0xFFFF6B90  |  4294929296 |
|      13 | 0x158F2     |       88306 |
|      14 | 0xFFFFF15B  |  4294963547 |
|      15 | 0x0400      |        1024 |
|      16 | 0xFFFF7163  |  4294930787 |
|      17 | 0x1557A     |       87418 |
|      18 | 0xFFFFF15A  |  4294963546 |
|      19 | 0x0897      |        2199 |
|      20 | 0xFFFF6B6A  |  4294929258 |
|      21 | 0x14AE7     |       84711 |
|      22 | 0x0C6F      |        3183 |
|      23 | 0x084C      |        2124 |
|      24 | 0xFFFFFEB9  |  4294966969 |
|      25 | 0x0C7B      |        3195 |
|      26 | 0x3B114     |      241940 |
|      27 | 0x39974     |      235892 |
|      28 | 0x0C06      |        3078 |
|      29 | 0x3AD47     |      240967 |
|      30 | 0x39227     |      234023 |
|      31 | 0x0061      |          97 |
|      32 | 0x0C1D      |        3101 |
|      33 | 0x3B483     |      242819 |
|      34 | 0x38E3D     |      233021 |
|      35 | 0x0C34      |        3124 |
|      36 | 0x39FC1     |      237505 |
|      37 | 0x3C266     |      246374 |
|      38 | 0x0C4E      |        3150 |
|      39 | 0x3C396     |      246678 |
|      40 | 0x3AE77     |      241271 |
|      41 | 0x0084      |         132 |
|      42 | 0x094F      |        2383 |
|      43 | 0x3A710     |      239376 |
|      44 | 0x3B8DB     |      243931 |
|      45 | 0x012A      |         298 |
|      46 | 0x39BA0     |      236448 |
|      47 | 0x3BD53     |      245075 |
|      48 | 0x0005      |           5 |
|      49 | 0x0006      |           6 |
|      50 | 0x0003      |           3 |
|      51 | 0x0365      |         869 |
|      52 | 0x0004      |           4 |
|      53 | 0x0008      |           8 |
|      54 | 0x2398      |        9112 |
|      55 | 0x2399      |        9113 |
|      56 | 0x003C      |          60 |
|      57 | 0x239A      |        9114 |
|      58 | 0x0078      |         120 |
|      59 | 0x007F      |         127 |
|      60 | 0x00D2      |         210 |
|      61 | 0x0176      |         374 |
|      62 | 0xFFFF7B92  |  4294933394 |
|      63 | 0x10931     |       67889 |
|      64 | 0xFFFFF448  |  4294964296 |
|      65 | 0x07FF      |        2047 |
|      66 | 0x2131      |        8497 |
|      67 | 0x012C      |         300 |
|      68 | 0x239B      |        9115 |
|      69 | 0x005A      |          90 |
|      70 | 0xFFFF6BA6  |  4294929318 |
|      71 | 0x13A70     |       80496 |
|      72 | 0x0C59      |        3161 |
|      73 | 0x004B      |          75 |
|      74 | 0x239C      |        9116 |
|      75 | 0x001C      |          28 |
|      76 | 0x239D      |        9117 |
|      77 | 0x0096      |         150 |
|      78 | 0x239E      |        9118 |
|      79 | 0x239F      |        9119 |
|      80 | 0x23A0      |        9120 |
|      81 | 0x23A1      |        9121 |
|      82 | 0x23A2      |        9122 |
|      83 | 0x23A3      |        9123 |
|      84 | 0x23A4      |        9124 |
|      85 | 0x23A5      |        9125 |
|      86 | 0x23A6      |        9126 |
|      87 | 0x23A7      |        9127 |
|      88 | 0x23A8      |        9128 |
|      89 | 0x0080      |         128 |
|      90 | 0x000E      |          14 |
|      91 | 0x23A9      |        9129 |
|      92 | 0x0015      |          21 |
|      93 | 0x00A0      |         160 |
|      94 | 0x00A9      |         169 |
|      95 | 0x23AA      |        9130 |
|      96 | 0x006F      |         111 |
|      97 | 0x0010      |          16 |
|      98 | 0x000C      |          12 |
|      99 | 0x3B401     |      242689 |
|     100 | 0x3B3A6     |      242598 |
|     101 | 0x0C0F      |        3087 |
|     102 | 0x3C011     |      245777 |
|     103 | 0x3B3D5     |      242645 |
|     104 | 0x0057      |          87 |
|     105 | 0x0978      |        2424 |
|     106 | 0x3C2D1     |      246481 |
|     107 | 0x3BD39     |      245049 |
|     108 | 0x007B      |         123 |
|     109 | 0x001F      |          31 |
|     110 | 0x32331     |      205617 |
|     111 | 0x442B1     |      279217 |
|     112 | 0xFFFF6410  |  4294927376 |
|     113 | 0x0351      |         849 |
|     114 | 0x23AB      |        9131 |
|     115 | 0x23AC      |        9132 |
|     116 | 0x0017      |          23 |
|     117 | 0x000F      |          15 |
|     118 | 0x002E      |          46 |
|     119 | 0x00F0      |         240 |
|     120 | 0x001D      |          29 |
|     121 | 0x23AD      |        9133 |
|     122 | 0x002A      |          42 |
|     123 | 0x0050      |          80 |
|     124 | 0x001B      |          27 |
|     125 | 0x23AE      |        9134 |
|     126 | 0x23AF      |        9135 |
|     127 | 0x23B0      |        9136 |
|     128 | 0x23B1      |        9137 |
|     129 | 0x23B2      |        9138 |
|     130 | 0x01E0      |         480 |
|     131 | 0xFFFFFF26  |  4294967078 |
|     132 | 0x07D0      |        2000 |
|     133 | 0x03E8      |        1000 |
|     134 | 0x23B3      |        9139 |
|     135 | 0x0168      |         360 |
|     136 | 0x23B4      |        9140 |
|     137 | 0x00B4      |         180 |
|     138 | 0x23B5      |        9141 |
|     139 | 0x23B6      |        9142 |
|     140 | 0x23B7      |        9143 |
|     141 | 0x000A      |          10 |
|     142 | 0x23B8      |        9144 |
|     143 | 0x23B9      |        9145 |
|     144 | 0x23BA      |        9146 |
|     145 | 0x23BB      |        9147 |
|     146 | 0x23BC      |        9148 |
|     147 | 0x23BD      |        9149 |
|     148 | 0x23BE      |        9150 |
|     149 | 0x0170      |         368 |
|     150 | 0x001A      |          26 |
|     151 | 0x23BF      |        9151 |
|     152 | 0x23C0      |        9152 |
|     153 | 0x00E9      |         233 |
|     154 | 0xFFFF6F3D  |  4294930237 |
|     155 | 0x1509A     |       86170 |
|     156 | 0x08D2      |        2258 |
|     157 | 0xFFFF6B7F  |  4294929279 |
|     158 | 0x146A0     |       83616 |
|     159 | 0x0BDF      |        3039 |
|     160 | 0x23C1      |        9153 |
|     161 | 0x23C2      |        9154 |
|     162 | 0x23C3      |        9155 |
|     163 | 0x23C4      |        9156 |
|     164 | 0x23C5      |        9157 |
|     165 | 0x23C6      |        9158 |
|     166 | 0x23C7      |        9159 |
|     167 | 0x23C8      |        9160 |
|     168 | 0x23C9      |        9161 |
|     169 | 0x23CA      |        9162 |
|     170 | 0x23CB      |        9163 |
|     171 | 0x23CC      |        9164 |
|     172 | 0x23CD      |        9165 |
|     173 | 0x23CE      |        9166 |
|     174 | 0x23CF      |        9167 |
|     175 | 0x23D0      |        9168 |
|     176 | 0x23D1      |        9169 |
|     177 | 0x23D2      |        9170 |
|     178 | 0x23D3      |        9171 |
|     179 | 0x23D4      |        9172 |
|     180 | 0x23D5      |        9173 |
|     181 | 0x0219      |         537 |
|     182 | 0x23D6      |        9174 |
|     183 | 0x23D7      |        9175 |
|     184 | 0x23D8      |        9176 |
|     185 | 0x23D9      |        9177 |
|     186 | 0x23DA      |        9178 |
|     187 | 0x23DB      |        9179 |
|     188 | 0x23DC      |        9180 |
|     189 | 0x23DD      |        9181 |
|     190 | 0x23DE      |        9182 |
|     191 | 0x23DF      |        9183 |
|     192 | 0x23E0      |        9184 |
|     193 | 0x23E1      |        9185 |
|     194 | 0x23E2      |        9186 |
|     195 | 0x23E3      |        9187 |
|     196 | 0x23E4      |        9188 |
|     197 | 0x23E5      |        9189 |
|     198 | 0x23E6      |        9190 |
|     199 | 0x23E7      |        9191 |
|     200 | 0x23E8      |        9192 |
|     201 | 0x23E9      |        9193 |
|     202 | 0x23EA      |        9194 |
|     203 | 0x0007      |           7 |
|     204 | 0x23EB      |        9195 |
|     205 | 0x23EC      |        9196 |
|     206 | 0x23ED      |        9197 |
|     207 | 0x23EE      |        9198 |
|     208 | 0x23EF      |        9199 |
|     209 | 0x009C      |         156 |
|     210 | 0x0174      |         372 |
|     211 | 0xFFFF8717  |  4294936343 |
|     212 | 0xFFFFDF3E  |  4294958910 |
|     213 | 0x0F36      |        3894 |
|     214 | 0xFFFF7711  |  4294932241 |
|     215 | 0xFFFFE72C  |  4294960940 |
|     216 | 0xFFFFF449  |  4294964297 |
|     217 | 0x00A7      |         167 |
|     218 | 0xFFFF8C18  |  4294937624 |
|     219 | 0xFFFFE9F3  |  4294961651 |
|     220 | 0x08A2      |        2210 |
|     221 | 0xFFFF74D2  |  4294931666 |
|     222 | 0x183F      |        6207 |
|     223 | 0x0ACC      |        2764 |
|     224 | 0xFFFF6E1D  |  4294929949 |
|     225 | 0x1641      |        5697 |
|     226 | 0x0F8F      |        3983 |
|     227 | 0xFFFFA3D7  |  4294943703 |
|     228 | 0xFFFFED27  |  4294962471 |
|     229 | 0x064F      |        1615 |
|     230 | 0x0366      |         870 |
|     231 | 0x23F2      |        9202 |
|     232 | 0x23F3      |        9203 |
|     233 | 0x00F8      |         248 |
|     234 | 0x0016      |          22 |
|     235 | 0x23F4      |        9204 |
|     236 | 0x23F5      |        9205 |
|     237 | 0x23F6      |        9206 |
|     238 | 0xFFFF858D  |  4294935949 |
|     239 | 0xFFFFFE99  |  4294966937 |
|     240 | 0x23F7      |        9207 |
|     241 | 0x23F8      |        9208 |
|     242 | 0x0068      |         104 |
|     243 | 0x23F9      |        9209 |
|     244 | 0x23FA      |        9210 |
|     245 | 0x23FB      |        9211 |
|     246 | 0x23FC      |        9212 |
|     247 | 0x23FD      |        9213 |
|     248 | 0x00CC      |         204 |
|     249 | 0x393B      |       14651 |
|     250 | 0x1F814     |      129044 |
|     251 | 0x0807      |        2055 |
|     252 | 0x084E      |        2126 |
|     253 | 0x2269B     |      140955 |
|     254 | 0x0FC5      |        4037 |
|     255 | 0x353C      |       13628 |
|     256 | 0x2279B     |      141211 |
|     257 | 0x0F7F      |        3967 |
|     258 | 0x40AE      |       16558 |
|     259 | 0x22B1B     |      142107 |
|     260 | 0x0E4F      |        3663 |
|     261 | 0x27D8      |       10200 |
|     262 | 0x21728     |      137000 |
|     263 | 0xFFFFFB9D  |  4294966173 |
|     264 | 0x2F17      |       12055 |
|     265 | 0x1EA9B     |      125595 |
|     266 | 0x057F      |        1407 |
|     267 | 0x2F0A      |       12042 |
|     268 | 0x1E1F1     |      123377 |
|     269 | 0x0AF7      |        2807 |
|     270 | 0x1DF6      |        7670 |
|     271 | 0x1EC64     |      126052 |
|     272 | 0xFFFFFFFA  |  4294967290 |
|     273 | 0x0190      |         400 |
|     274 | 0x20EA      |        8426 |
|     275 | 0x1EA00     |      125440 |
|     276 | 0x0416      |        1046 |
|     277 | 0x3AFF      |       15103 |
|     278 | 0x1F254     |      127572 |
|     279 | 0x09FE      |        2558 |
|     280 | 0x01C2      |         450 |
|     281 | 0x23FE      |        9214 |
|     282 | 0x23FF      |        9215 |
|     283 | 0x00AC      |         172 |
|     284 | 0x2400      |        9216 |
|     285 | 0x2401      |        9217 |
|     286 | 0x2402      |        9218 |
|     287 | 0x2403      |        9219 |
|     288 | 0x2404      |        9220 |
|     289 | 0x2405      |        9221 |
|     290 | 0x2406      |        9222 |
|     291 | 0x0161      |         353 |
|     292 | 0x2407      |        9223 |
|     293 | 0x006E      |         110 |
|     294 | 0x0014      |          20 |
|     295 | 0x2E18      |       11800 |
|     296 | 0x22842     |      141378 |
|     297 | 0x0F84      |        3972 |
|     298 | 0x2408      |        9224 |
|     299 | 0xFFFF86B5  |  4294936245 |
|     300 | 0xFFFFE6D8  |  4294960856 |
|     301 | 0xFFFF861A  |  4294936090 |
|     302 | 0xFFFFEE7F  |  4294962815 |
|     303 | 0x00FF      |         255 |
|     304 | 0xFFFF9004  |  4294938628 |
|     305 | 0xFFFFE57A  |  4294960506 |
|     306 | 0x09C1      |        2497 |
|     307 | 0x2409      |        9225 |
|     308 | 0x240A      |        9226 |
|     309 | 0x240B      |        9227 |
|     310 | 0x240C      |        9228 |
|     311 | 0x240D      |        9229 |
|     312 | 0x240E      |        9230 |
|     313 | 0x240F      |        9231 |
|     314 | 0x2410      |        9232 |
|     315 | 0x2411      |        9233 |
|     316 | 0x2412      |        9234 |
|     317 | 0x2413      |        9235 |
|     318 | 0x2414      |        9236 |
|     319 | 0x2415      |        9237 |
|     320 | 0x2416      |        9238 |
|     321 | 0x2417      |        9239 |
|     322 | 0x2418      |        9240 |
|     323 | 0x2419      |        9241 |
|     324 | 0x241A      |        9242 |
|     325 | 0x241B      |        9243 |
|     326 | 0x00CE      |         206 |
|     327 | 0x241C      |        9244 |
|     328 | 0x241D      |        9245 |
|     329 | 0x0CE0      |        3296 |
|     330 | 0x241E      |        9246 |
|     331 | 0x241F      |        9247 |
|     332 | 0x2420      |        9248 |
|     333 | 0x2421      |        9249 |
|     334 | 0x2422      |        9250 |
|     335 | 0x2423      |        9251 |
|     336 | 0x2424      |        9252 |
|     337 | 0x2425      |        9253 |
|     338 | 0x2426      |        9254 |
|     339 | 0x2428      |        9256 |
|     340 | 0x2429      |        9257 |
|     341 | 0x2427      |        9255 |
|     342 | 0xFFFF7113  |  4294930707 |
|     343 | 0x13B9      |        5049 |
|     344 | 0xFFFF9215  |  4294939157 |
|     345 | 0xFFFFE995  |  4294961557 |
|     346 | 0x082D      |        2093 |
|     347 | 0xFFFF8EDB  |  4294938331 |
|     348 | 0xFFFFE628  |  4294960680 |
|     349 | 0x05E6      |        1510 |
|     350 | 0x0367      |         871 |
|     351 | 0x242D      |        9261 |
|     352 | 0x242E      |        9262 |
|     353 | 0xFFFF76CB  |  4294932171 |
|     354 | 0x0EAC      |        3756 |
|     355 | 0xFFFF943F  |  4294939711 |
|     356 | 0xFFFFD361  |  4294955873 |
|     357 | 0x0D78      |        3448 |
|     358 | 0xFFFF9E14  |  4294942228 |
|     359 | 0xFFFFDC8C  |  4294958220 |
|     360 | 0x0685      |        1669 |
|     361 | 0x04B0      |        1200 |
|     362 | 0x00EA      |         234 |
|     363 | 0xFFFF8716  |  4294936342 |
|     364 | 0xFFFFF7DF  |  4294965215 |
|     365 | 0x242F      |        9263 |
|     366 | 0x2430      |        9264 |
|     367 | 0x2431      |        9265 |
|     368 | 0x2432      |        9266 |
|     369 | 0x2433      |        9267 |
|     370 | 0x2434      |        9268 |
|     371 | 0x2435      |        9269 |
|     372 | 0x2436      |        9270 |
|     373 | 0x2437      |        9271 |
|     374 | 0x0009      |           9 |
|     375 | 0x2438      |        9272 |
|     376 | 0x2439      |        9273 |
|     377 | 0x243A      |        9274 |
|     378 | 0x243B      |        9275 |
|     379 | 0x01CE      |         462 |
|     380 | 0x23F0      |        9200 |
|     381 | 0x23F1      |        9201 |
|     382 | 0x01D2      |         466 |
|     383 | 0x01D0      |         464 |
|     384 | 0x242A      |        9258 |
|     385 | 0x242B      |        9259 |
|     386 | 0x06E7      |        1767 |
|     387 | 0x242C      |        9260 |
|     388 | 0x243C      |        9276 |
|     389 | 0x0390      |         912 |
|     390 | 0x243D      |        9277 |
|     391 | 0x243E      |        9278 |
|     392 | 0x243F      |        9279 |
|     393 | 0x2440      |        9280 |
|     394 | 0x2441      |        9281 |
|     395 | 0x2442      |        9282 |
|     396 | 0x2443      |        9283 |
|     397 | 0x2444      |        9284 |
|     398 | 0x2445      |        9285 |
|     399 | 0x0019      |          25 |
|     400 | 0x2446      |        9286 |
|     401 | 0x2447      |        9287 |
|     402 | 0x2448      |        9288 |
|     403 | 0x2449      |        9289 |
|     404 | 0x244A      |        9290 |
|     405 | 0x244B      |        9291 |
|     406 | 0x244C      |        9292 |
|     407 | 0x244D      |        9293 |
|     408 | 0x244E      |        9294 |
|     409 | 0x244F      |        9295 |
|     410 | 0x2450      |        9296 |
|     411 | 0x2451      |        9297 |
|     412 | 0x2452      |        9298 |
|     413 | 0x2453      |        9299 |
|     414 | 0x2454      |        9300 |
|     415 | 0x2455      |        9301 |
|     416 | 0x2456      |        9302 |
|     417 | 0x2457      |        9303 |
|     418 | 0x2458      |        9304 |
|     419 | 0x2459      |        9305 |
|     420 | 0x245A      |        9306 |
|     421 | 0x245B      |        9307 |
|     422 | 0x245C      |        9308 |
|     423 | 0x245D      |        9309 |

## String References

- **8497**: @@
- **9156**: How do you respond? [It's Professor Koru-Moru's magic doll./It's a modified magic doll./Its name is Memorian.]
- **9236**: Lend him the magic doll? [Sure, no problem./Sorry, can't do that.]
- **9254**: Will you help Altennia? [Leave it to me./Sorry, I'm busy.]

## Events

### Event 65535

#### Metadata

| Field        | Value     |
|--------------|-----------|
| Entrypoint   | 0x0000    |
| Data Size    | 658 bytes |
| Instructions | 1         |

```
      00 01 02 03 04 05 06 07  08 09 0A 0B 0C 0D 0E 0F
      -- -- -- -- -- -- -- --  -- -- -- -- -- -- -- --
0000: 00 45 00 80 F0 FF FF 7F  F0 FF FF 7F 66 64 69 30  .E..........fdi0
0010: 01 80 55 00 80 F0 FF FF  7F F0 FF FF 7F 66 64 69  ..U..........fdi
0020: 30 1B 45 00 80 F0 FF FF  7F F0 FF FF 7F 66 64 6F  0.E..........fdo
0030: 30 01 80 55 00 80 F0 FF  FF 7F F0 FF FF 7F 66 64  0..U..........fd
0040: 6F 30 1B 45 00 80 F0 FF  FF 7F F0 FF FF 7F 66 64  o0.E..........fd
0050: 69 31 01 80 55 00 80 F0  FF FF 7F F0 FF FF 7F 66  i1..U..........f
0060: 64 69 31 1B 45 00 80 F0  FF FF 7F F0 FF FF 7F 66  di1.E..........f
0070: 64 6F 31 01 80 55 00 80  F0 FF FF 7F F0 FF FF 7F  do1..U..........
0080: 66 64 6F 31 1B 45 02 80  F0 FF FF 7F F0 FF FF 7F  fdo1.E..........
0090: 77 68 69 31 01 80 55 02  80 F0 FF FF 7F F0 FF FF  whi1..U.........
00A0: 7F 77 68 69 31 1B 45 02  80 F0 FF FF 7F F0 FF FF  .whi1.E.........
00B0: 7F 77 68 6F 31 01 80 55  02 80 F0 FF FF 7F F0 FF  .who1..U........
00C0: FF 7F 77 68 6F 31 1B 45  02 80 F0 FF FF 7F F0 FF  ..who1.E........
00D0: FF 7F 77 68 6F 32 01 80  55 02 80 F0 FF FF 7F F0  ..who2..U.......
00E0: FF FF 7F 77 68 6F 32 1B  45 02 80 F0 FF FF 7F F0  ...who2.E.......
00F0: FF FF 7F 77 68 6F 33 01  80 55 02 80 F0 FF FF 7F  ...who3..U......
0100: F0 FF FF 7F 77 68 6F 33  1B 62 03 80 F0 FF FF 7F  ....who3.b......
0110: F0 FF FF 7F 6D 61 69 6E  01 80 1C 04 80 45 00 80  ....main.....E..
0120: F0 FF FF 7F F0 FF FF 7F  66 64 6F 31 01 80 55 00  ........fdo1..U.
0130: 80 F0 FF FF 7F F0 FF FF  7F 66 64 6F 31 1B 45 00  .........fdo1.E.
0140: 80 F0 FF FF 7F F0 FF FF  7F 66 64 69 31 01 80 62  .........fdi1..b
0150: 05 80 F0 FF FF 7F F0 FF  FF 7F 6D 61 69 6E 01 80  ..........main..
0160: 1C 06 80 55 00 80 F0 FF  FF 7F F0 FF FF 7F 66 64  ...U..........fd
0170: 69 31 1B 45 00 80 F0 FF  FF 7F F0 FF FF 7F 62 6C  i1.E..........bl
0180: 6F 6E 01 80 45 02 80 F0  FF FF 7F F0 FF FF 7F 62  on..E..........b
0190: 6C 6F 6E 01 80 1B 45 02  80 F0 FF FF 7F F0 FF FF  lon...E.........
01A0: 7F 77 68 69 30 01 80 55  02 80 F0 FF FF 7F F0 FF  .whi0..U........
01B0: FF 7F 77 68 69 30 1B 45  02 80 F0 FF FF 7F F0 FF  ..whi0.E........
01C0: FF 7F 77 68 6F 30 01 80  55 02 80 F0 FF FF 7F F0  ..who0..U.......
01D0: FF FF 7F 77 68 6F 30 1B  45 07 80 F0 FF FF 7F F0  ...who0.E.......
01E0: FF FF 7F 65 66 6F 6E 01  80 55 07 80 F0 FF FF 7F  ...efon..U......
01F0: F0 FF FF 7F 65 66 6F 6E  1B 45 00 80 F0 FF FF 7F  ....efon.E......
0200: F0 FF FF 7F 66 64 69 73  01 80 1B 45 00 80 F0 FF  ....fdis...E....
0210: FF 7F F0 FF FF 7F 66 64  6F 73 01 80 55 00 80 F0  ......fdos..U...
0220: FF FF 7F F0 FF FF 7F 66  64 6F 73 1B 45 00 80 F0  .......fdos.E...
0230: FF FF 7F F0 FF FF 7F 66  64 69 66 01 80 1B 45 00  .......fdif...E.
0240: 80 F0 FF FF 7F F0 FF FF  7F 66 64 6F 66 01 80 55  .........fdof..U
0250: 00 80 F0 FF FF 7F F0 FF  FF 7F 66 64 6F 66 1B 45  ..........fdof.E
0260: 00 80 F0 FF FF 7F F0 FF  FF 7F 66 64 69 70 01 80  ..........fdip..
0270: 1B 45 00 80 F0 FF FF 7F  F0 FF FF 7F 66 64 6F 70  .E..........fdop
0280: 01 80 55 00 80 F0 FF FF  7F F0 FF FF 7F 66 64 6F  ..U..........fdo
0290: 70 1B                                             p.              
```

#### Opcodes

```
  0: 0x0000 [0x00] END_REQSTACK()
```

#### Data or dead code:

```
# Dead code (unreachable instructions):
     0x0001 [0x45] LOAD_SCHEDULED_TASK: Load scheduler "fdi0" with entities [LocalPlayer, LocalPlayer], work=[200*, 0*]
     0x0012 [0x55] WAIT_LOAD_SCHEDULER: Wait for scheduler "fdi0" with entities [LocalPlayer, LocalPlayer], work=200*
     0x0021 [0x1B] RETURN
     0x0022 [0x45] LOAD_SCHEDULED_TASK: Load scheduler "fdo0" with entities [LocalPlayer, LocalPlayer], work=[200*, 0*]
     0x0033 [0x55] WAIT_LOAD_SCHEDULER: Wait for scheduler "fdo0" with entities [LocalPlayer, LocalPlayer], work=200*
     0x0042 [0x1B] RETURN
     0x0043 [0x45] LOAD_SCHEDULED_TASK: Load scheduler "fdi1" with entities [LocalPlayer, LocalPlayer], work=[200*, 0*]
     0x0054 [0x55] WAIT_LOAD_SCHEDULER: Wait for scheduler "fdi1" with entities [LocalPlayer, LocalPlayer], work=200*
     0x0063 [0x1B] RETURN
     0x0064 [0x45] LOAD_SCHEDULED_TASK: Load scheduler "fdo1" with entities [LocalPlayer, LocalPlayer], work=[200*, 0*]
     0x0075 [0x55] WAIT_LOAD_SCHEDULER: Wait for scheduler "fdo1" with entities [LocalPlayer, LocalPlayer], work=200*
     0x0084 [0x1B] RETURN
     0x0085 [0x45] LOAD_SCHEDULED_TASK: Load scheduler "whi1" with entities [LocalPlayer, LocalPlayer], work=[201*, 0*]
     0x0096 [0x55] WAIT_LOAD_SCHEDULER: Wait for scheduler "whi1" with entities [LocalPlayer, LocalPlayer], work=201*
     0x00A5 [0x1B] RETURN
     0x00A6 [0x45] LOAD_SCHEDULED_TASK: Load scheduler "who1" with entities [LocalPlayer, LocalPlayer], work=[201*, 0*]
     0x00B7 [0x55] WAIT_LOAD_SCHEDULER: Wait for scheduler "who1" with entities [LocalPlayer, LocalPlayer], work=201*
     0x00C6 [0x1B] RETURN
     0x00C7 [0x45] LOAD_SCHEDULED_TASK: Load scheduler "who2" with entities [LocalPlayer, LocalPlayer], work=[201*, 0*]
     0x00D8 [0x55] WAIT_LOAD_SCHEDULER: Wait for scheduler "who2" with entities [LocalPlayer, LocalPlayer], work=201*
     0x00E7 [0x1B] RETURN
     0x00E8 [0x45] LOAD_SCHEDULED_TASK: Load scheduler "who3" with entities [LocalPlayer, LocalPlayer], work=[201*, 0*]
     0x00F9 [0x55] WAIT_LOAD_SCHEDULER: Wait for scheduler "who3" with entities [LocalPlayer, LocalPlayer], work=201*
     0x0108 [0x1B] RETURN
     0x0109 [0x62] LOAD_EVENT_SCHEDULER: Load scheduler "main" with entities [LocalPlayer, LocalPlayer], work=[1*, 0*]
     0x011A [0x1C] WAIT(45* ticks)
     0x011D [0x45] LOAD_SCHEDULED_TASK: Load scheduler "fdo1" with entities [LocalPlayer, LocalPlayer], work=[200*, 0*]
     0x012E [0x55] WAIT_LOAD_SCHEDULER: Wait for scheduler "fdo1" with entities [LocalPlayer, LocalPlayer], work=200*
     0x013D [0x1B] RETURN
     0x013E [0x45] LOAD_SCHEDULED_TASK: Load scheduler "fdi1" with entities [LocalPlayer, LocalPlayer], work=[200*, 0*]
     0x014F [0x62] LOAD_EVENT_SCHEDULER: Load scheduler "main" with entities [LocalPlayer, LocalPlayer], work=[2*, 0*]
     0x0160 [0x1C] WAIT(30* ticks)
     0x0163 [0x55] WAIT_LOAD_SCHEDULER: Wait for scheduler "fdi1" with entities [LocalPlayer, LocalPlayer], work=200*
     0x0172 [0x1B] RETURN
     0x0173 [0x45] LOAD_SCHEDULED_TASK: Load scheduler "blon" with entities [LocalPlayer, LocalPlayer], work=[200*, 0*]
     0x0184 [0x45] LOAD_SCHEDULED_TASK: Load scheduler "blon" with entities [LocalPlayer, LocalPlayer], work=[201*, 0*]
     0x0195 [0x1B] RETURN
     0x0196 [0x45] LOAD_SCHEDULED_TASK: Load scheduler "whi0" with entities [LocalPlayer, LocalPlayer], work=[201*, 0*]
     0x01A7 [0x55] WAIT_LOAD_SCHEDULER: Wait for scheduler "whi0" with entities [LocalPlayer, LocalPlayer], work=201*
     0x01B6 [0x1B] RETURN
     0x01B7 [0x45] LOAD_SCHEDULED_TASK: Load scheduler "who0" with entities [LocalPlayer, LocalPlayer], work=[201*, 0*]
     0x01C8 [0x55] WAIT_LOAD_SCHEDULER: Wait for scheduler "who0" with entities [LocalPlayer, LocalPlayer], work=201*
     0x01D7 [0x1B] RETURN
     0x01D8 [0x45] LOAD_SCHEDULED_TASK: Load scheduler "efon" with entities [LocalPlayer, LocalPlayer], work=[215*, 0*]
     0x01E9 [0x55] WAIT_LOAD_SCHEDULER: Wait for scheduler "efon" with entities [LocalPlayer, LocalPlayer], work=215*
     0x01F8 [0x1B] RETURN
     0x01F9 [0x45] LOAD_SCHEDULED_TASK: Load scheduler "fdis" with entities [LocalPlayer, LocalPlayer], work=[200*, 0*]
     0x020A [0x1B] RETURN
     0x020B [0x45] LOAD_SCHEDULED_TASK: Load scheduler "fdos" with entities [LocalPlayer, LocalPlayer], work=[200*, 0*]
     0x021C [0x55] WAIT_LOAD_SCHEDULER: Wait for scheduler "fdos" with entities [LocalPlayer, LocalPlayer], work=200*
     0x022B [0x1B] RETURN
     0x022C [0x45] LOAD_SCHEDULED_TASK: Load scheduler "fdif" with entities [LocalPlayer, LocalPlayer], work=[200*, 0*]
     0x023D [0x1B] RETURN
     0x023E [0x45] LOAD_SCHEDULED_TASK: Load scheduler "fdof" with entities [LocalPlayer, LocalPlayer], work=[200*, 0*]
     0x024F [0x55] WAIT_LOAD_SCHEDULER: Wait for scheduler "fdof" with entities [LocalPlayer, LocalPlayer], work=200*
     0x025E [0x1B] RETURN
     0x025F [0x45] LOAD_SCHEDULED_TASK: Load scheduler "fdip" with entities [LocalPlayer, LocalPlayer], work=[200*, 0*]
     0x0270 [0x1B] RETURN
     0x0271 [0x45] LOAD_SCHEDULED_TASK: Load scheduler "fdop" with entities [LocalPlayer, LocalPlayer], work=[200*, 0*]
     0x0282 [0x55] WAIT_LOAD_SCHEDULER: Wait for scheduler "fdop" with entities [LocalPlayer, LocalPlayer], work=200*
     0x0291 [0x1B] RETURN
```

### Event 604

#### Metadata

| Field        | Value       |
|--------------|-------------|
| Entrypoint   | 0x0292      |
| Data Size    | 11892 bytes |
| Instructions | 1467        |

```
      00 01 02 03 04 05 06 07  08 09 0A 0B 0C 0D 0E 0F
      -- -- -- -- -- -- -- --  -- -- -- -- -- -- -- --
0290:       42 1A 64 00 46 01  38 08 80 2F 00 66 90 0E    B.d.F.8../.f..
02A0: 01 2F 00 68 90 0E 01 2F  00 6A 90 0E 01 2F 00 6B  ./.h.../.j.../.k
02B0: 90 0E 01 2F 00 6C 90 0E  01 2F 00 6D 90 0E 01 2F  .../.l.../.m.../
02C0: 00 6E 90 0E 01 2F 00 70  90 0E 01 2F 00 71 90 0E  .n.../.p.../.q..
02D0: 01 2F 00 72 90 0E 01 4E  00 66 90 0E 01 4E 00 68  ./.r...N.f...N.h
02E0: 90 0E 01 4E 00 6A 90 0E  01 4E 00 6B 90 0E 01 4E  ...N.j...N.k...N
02F0: 00 6C 90 0E 01 4E 00 6D  90 0E 01 4E 00 6E 90 0E  .l...N.m...N.n..
0300: 01 4E 00 70 90 0E 01 4E  00 71 90 0E 01 4E 00 72  .N.p...N.q...N.r
0310: 90 0E 01 92 01 07 90 0E  01 92 01 11 90 0E 01 92  ................
0320: 01 12 90 0E 01 92 01 13  90 0E 01 92 01 14 90 0E  ................
0330: 01 92 01 15 90 0E 01 92  01 1B 90 0E 01 94 01 07  ................
0340: 90 0E 01 94 01 66 90 0E  01 94 01 68 90 0E 01 94  .....f.....h....
0350: 01 6A 90 0E 01 94 01 6B  90 0E 01 94 01 6C 90 0E  .j.....k.....l..
0360: 01 94 01 6D 90 0E 01 94  01 6E 90 0E 01 94 01 70  ...m.....n.....p
0370: 90 0E 01 94 01 71 90 0E  01 94 01 72 90 0E 01 94  .....q.....r....
0380: 01 11 90 0E 01 94 01 12  90 0E 01 94 01 13 90 0E  ................
0390: 01 94 01 14 90 0E 01 94  01 15 90 0E 01 94 01 1B  ................
03A0: 90 0E 01 94 01 F0 FF FF  7F 6C 6A 90 0E 01 01 80  .........lj.....
03B0: 03 80 6C 6B 90 0E 01 01  80 03 80 6C 6C 90 0E 01  ..lk.......ll...
03C0: 01 80 03 80 6C 6D 90 0E  01 01 80 03 80 6C 6E 90  ....lm.......ln.
03D0: 0E 01 01 80 03 80 6C 70  90 0E 01 01 80 03 80 6C  ......lp.......l
03E0: 71 90 0E 01 01 80 03 80  6C 72 90 0E 01 01 80 03  q.......lr......
03F0: 80 BA 07 90 0E 01 09 80  0A 80 01 80 0B 80 BA 66  ...............f
0400: 90 0E 01 0C 80 0D 80 0E  80 0F 80 BA 68 90 0E 01  ............h...
0410: 10 80 11 80 12 80 13 80  BA 70 90 0E 01 14 80 15  .........p......
0420: 80 12 80 16 80 BA F0 FF  FF 7F 17 80 18 80 01 80  ................
0430: 19 80 BA 6A 90 0E 01 1A  80 1B 80 01 80 1C 80 BA  ...j............
0440: 6B 90 0E 01 1D 80 1E 80  1F 80 20 80 BA 6C 90 0E  k......... ..l..
0450: 01 21 80 22 80 08 80 23  80 BA 6D 90 0E 01 24 80  .!."...#..m...$.
0460: 25 80 01 80 26 80 BA 6E  90 0E 01 27 80 28 80 29  %...&..n...'.(.)
0470: 80 2A 80 BA 71 90 0E 01  2B 80 2C 80 01 80 2D 80  .*..q...+.,...-.
0480: BA 72 90 0E 01 2E 80 2F  80 00 80 01 80 80 07 90  .r...../........
0490: 0E 01 80 66 90 0E 01 80  68 90 0E 01 80 6A 90 0E  ...f....h....j..
04A0: 01 80 6B 90 0E 01 80 6C  90 0E 01 80 6D 90 0E 01  ..k....l....m...
04B0: 80 6E 90 0E 01 80 70 90  0E 01 80 71 90 0E 01 80  .n....p....q....
04C0: 72 90 0E 01 80 11 90 0E  01 80 12 90 0E 01 80 13  r...............
04D0: 90 0E 01 80 14 90 0E 01  80 15 90 0E 01 80 1B 90  ................
04E0: 0E 01 80 F0 FF FF 7F 4A  66 90 0E 01 68 90 0E 01  .......Jf...h...
04F0: 4A 68 90 0E 01 66 90 0E  01 02 87 7F 30 80 01 12  Jh...f......0...
0500: 05 02 87 7F 31 80 01 12  05 4A F0 FF FF 7F 07 90  ....1....J......
0510: 0E 01 4A 07 90 0E 01 F0  FF FF 7F 6F 76 07 90 0E  ..J........ov...
0520: 01 02 87 7F 32 80 80 3D  05 45 33 80 F8 FF FF 7F  ....2..=.E3.....
0530: F8 FF FF 7F 73 67 30 30  01 80 01 BE 05 02 87 7F  ....sg00........
0540: 34 80 80 59 05 45 33 80  F8 FF FF 7F F8 FF FF 7F  4..Y.E3.........
0550: 73 67 30 30 01 80 01 BE  05 02 87 7F 30 80 80 75  sg00........0..u
0560: 05 45 33 80 F8 FF FF 7F  F8 FF FF 7F 73 74 30 30  .E3.........st00
0570: 01 80 01 BE 05 02 87 7F  31 80 80 91 05 45 33 80  ........1....E3.
0580: F8 FF FF 7F F8 FF FF 7F  73 74 30 30 01 80 01 BE  ........st00....
0590: 05 02 87 7F 35 80 80 AD  05 45 33 80 F8 FF FF 7F  ....5....E3.....
05A0: F8 FF FF 7F 73 67 30 30  01 80 01 BE 05 45 33 80  ....sg00.....E3.
05B0: F8 FF FF 7F F8 FF FF 7F  73 30 30 30 01 80 1A 43  ........s000...C
05C0: 00 27 10 07 90 0E 01 4E  2B 07 90 0E 01 36 80 29  .'.....N+....6.)
05D0: 10 07 90 0E 01 4F 23 27  08 07 90 0E 01 50 27 10  .....O#'.....P'.
05E0: F0 FF FF 7F A0 2A 10 F0  FF FF 7F 27 10 F0 FF FF  .....*.....'....
05F0: 7F A1 02 87 7F 32 80 80  1D 06 52 33 80 F8 FF FF  .....2....R3....
0600: 7F F8 FF FF 7F 73 67 30  30 45 33 80 F8 FF FF 7F  .....sg00E3.....
0610: F8 FF FF 7F 73 67 30 31  01 80 01 E9 06 02 87 7F  ....sg01........
0620: 34 80 80 48 06 52 33 80  F8 FF FF 7F F8 FF FF 7F  4..H.R3.........
0630: 73 67 30 30 45 33 80 F8  FF FF 7F F8 FF FF 7F 73  sg00E3.........s
0640: 67 30 31 01 80 01 E9 06  02 87 7F 30 80 80 73 06  g01........0..s.
0650: 52 33 80 F8 FF FF 7F F8  FF FF 7F 73 74 30 30 45  R3.........st00E
0660: 33 80 F8 FF FF 7F F8 FF  FF 7F 73 74 30 31 01 80  3.........st01..
0670: 01 E9 06 02 87 7F 31 80  80 9E 06 52 33 80 F8 FF  ......1....R3...
0680: FF 7F F8 FF FF 7F 73 74  30 30 45 33 80 F8 FF FF  ......st00E3....
0690: 7F F8 FF FF 7F 73 74 30  31 01 80 01 E9 06 02 87  .....st01.......
06A0: 7F 35 80 80 C9 06 52 33  80 F8 FF FF 7F F8 FF FF  .5....R3........
06B0: 7F 73 67 30 30 45 33 80  F8 FF FF 7F F8 FF FF 7F  .sg00E3.........
06C0: 73 67 30 31 01 80 01 E9  06 52 33 80 F8 FF FF 7F  sg01.....R3.....
06D0: F8 FF FF 7F 73 30 30 30  45 33 80 F8 FF FF 7F F8  ....s000E3......
06E0: FF FF 7F 73 30 30 31 01  80 7B 07 90 0E 01 27 10  ...s001..{....'.
06F0: 07 90 0E 01 42 2B 07 90  0E 01 37 80 29 10 07 90  ....B+....7.)...
0700: 0E 01 43 23 27 10 07 90  0E 01 44 5D 01 80 38 80  ..C#'.....D]..8.
0710: 02 87 7F 32 80 80 2A 07  52 33 80 F8 FF FF 7F F8  ...2..*.R3......
0720: FF FF 7F 73 67 30 31 01  A1 07 02 87 7F 34 80 80  ...sg01......4..
0730: 44 07 52 33 80 F8 FF FF  7F F8 FF FF 7F 73 67 30  D.R3.........sg0
0740: 31 01 A1 07 02 87 7F 30  80 80 5E 07 52 33 80 F8  1......0..^.R3..
0750: FF FF 7F F8 FF FF 7F 73  74 30 31 01 A1 07 02 87  .......st01.....
0760: 7F 31 80 80 78 07 52 33  80 F8 FF FF 7F F8 FF FF  .1..x.R3........
0770: 7F 73 74 30 31 01 A1 07  02 87 7F 35 80 80 92 07  .st01......5....
0780: 52 33 80 F8 FF FF 7F F8  FF FF 7F 73 67 30 31 01  R3.........sg01.
0790: A1 07 52 33 80 F8 FF FF  7F F8 FF FF 7F 73 30 30  ..R3.........s00
07A0: 31 45 33 80 F8 FF FF 7F  F8 FF FF 7F 62 6C 6F 6E  1E3.........blon
07B0: 01 80 45 00 80 F8 FF FF  7F F8 FF FF 7F 36 31 32  ..E..........612
07C0: 31 01 80 45 33 80 F8 FF  FF 7F F8 FF FF 7F 73 30  1..E3.........s0
07D0: 30 32 01 80 7B F0 FF FF  7F 2B 07 90 0E 01 39 80  02..{....+....9.
07E0: 1C 3A 80 23 5D 3B 80 3A  80 52 33 80 F8 FF FF 7F  .:.#];.:.R3.....
07F0: F8 FF FF 7F 73 30 30 32  45 33 80 F8 FF FF 7F F8  ....s002E3......
0800: FF FF 7F 62 6C 6F 66 01  80 45 33 80 F8 FF FF 7F  ...blof..E3.....
0810: F8 FF FF 7F 73 30 30 33  01 80 7B 07 90 0E 01 27  ....s003..{....'
0820: 10 07 90 0E 01 75 1C 38  80 7B F0 FF FF 7F 27 10  .....u.8.{....'.
0830: F0 FF FF 7F A5 1C 3C 80  1A 64 00 7A 00 07 90 0E  ......<..d.z....
0840: 01 7A 00 F0 FF FF 7F 75  00 3D 80 75 01 BA F0 FF  .z.....u.=.u....
0850: FF 7F 3E 80 3F 80 40 80  41 80 1C 38 80 48 42 80  ..>.?.@.A..8.HB.
0860: 1C 38 80 27 10 F0 FF FF  7F A6 52 33 80 F8 FF FF  .8.'......R3....
0870: 7F F8 FF FF 7F 73 30 30  33 45 33 80 F8 FF FF 7F  .....s003E3.....
0880: F8 FF FF 7F 73 30 30 34  01 80 1A 43 00 2A 10 F0  ....s004...C.*..
0890: FF FF 7F 5D 01 80 43 80  52 33 80 F8 FF FF 7F F8  ...]..C.R3......
08A0: FF FF 7F 73 30 30 34 45  33 80 F8 FF FF 7F F8 FF  ...s004E3.......
08B0: FF 7F 73 30 30 35 01 80  1C 06 80 45 33 80 F8 FF  ..s005.....E3...
08C0: FF 7F F8 FF FF 7F 6E 6F  6B 73 01 80 1C 38 80 4A  ......noks...8.J
08D0: 66 90 0E 01 28 90 0E 01  7B 66 90 0E 01 6F 76 66  f...(...{f...ovf
08E0: 90 0E 01 2B 66 90 0E 01  44 80 4A 68 90 0E 01 28  ...+f...D.Jh...(
08F0: 90 0E 01 7B 28 90 0E 01  1C 45 80 27 10 28 90 0E  ...{(....E.'.(..
0900: 01 02 1C 06 80 79 00 F0  FF FF 7F 66 90 0E 01 27  .....y.....f...'
0910: 10 F0 FF FF 7F A7 1C 3A  80 27 10 28 90 0E 01 03  .......:.'.(....
0920: 79 00 66 90 0E 01 F0 FF  FF 7F 52 33 80 F8 FF FF  y.f.......R3....
0930: 7F F8 FF FF 7F 73 30 30  35 02 87 7F 32 80 80 55  .....s005...2..U
0940: 09 45 33 80 F8 FF FF 7F  F8 FF FF 7F 73 67 30 36  .E3.........sg06
0950: 01 80 01 D6 09 02 87 7F  34 80 80 71 09 45 33 80  ........4..q.E3.
0960: F8 FF FF 7F F8 FF FF 7F  73 67 30 36 01 80 01 D6  ........sg06....
0970: 09 02 87 7F 30 80 80 8D  09 45 33 80 F8 FF FF 7F  ....0....E3.....
0980: F8 FF FF 7F 73 74 30 36  01 80 01 D6 09 02 87 7F  ....st06........
0990: 31 80 80 A9 09 45 33 80  F8 FF FF 7F F8 FF FF 7F  1....E3.........
09A0: 73 74 30 36 01 80 01 D6  09 02 87 7F 35 80 80 C5  st06........5...
09B0: 09 45 33 80 F8 FF FF 7F  F8 FF FF 7F 73 67 30 36  .E3.........sg06
09C0: 01 80 01 D6 09 45 33 80  F8 FF FF 7F F8 FF FF 7F  .....E3.........
09D0: 73 30 30 36 01 80 7A 00  F0 FF FF 7F BA F0 FF FF  s006..z.........
09E0: 7F 46 80 47 80 12 80 48  80 27 10 F0 FF FF 7F A7  .F.G...H.'......
09F0: 1C 49 80 27 10 66 90 0E  01 3C 2B 66 90 0E 01 4A  .I.'.f...<+f...J
0A00: 80 5C 00 4B 80 5C 01 4B  80 9A 2A 10 66 90 0E 01  .\.K.\.K..*.f...
0A10: 23 4A 68 90 0E 01 66 90  0E 01 6F 76 68 90 0E 01  #Jh...f...ovh...
0A20: 02 87 7F 32 80 80 3A 0A  52 33 80 F8 FF FF 7F F8  ...2..:.R3......
0A30: FF FF 7F 73 67 30 36 01  B1 0A 02 87 7F 34 80 80  ...sg06......4..
0A40: 54 0A 52 33 80 F8 FF FF  7F F8 FF FF 7F 73 67 30  T.R3.........sg0
0A50: 36 01 B1 0A 02 87 7F 30  80 80 6E 0A 52 33 80 F8  6......0..n.R3..
0A60: FF FF 7F F8 FF FF 7F 73  74 30 36 01 B1 0A 02 87  .......st06.....
0A70: 7F 31 80 80 88 0A 52 33  80 F8 FF FF 7F F8 FF FF  .1....R3........
0A80: 7F 73 74 30 36 01 B1 0A  02 87 7F 35 80 80 A2 0A  .st06......5....
0A90: 52 33 80 F8 FF FF 7F F8  FF FF 7F 73 67 30 36 01  R3.........sg06.
0AA0: B1 0A 52 33 80 F8 FF FF  7F F8 FF FF 7F 73 30 30  ..R3.........s00
0AB0: 36 45 33 80 F8 FF FF 7F  F8 FF FF 7F 73 30 30 37  6E3.........s007
0AC0: 01 80 6E 68 90 0E 01 05  80 99 68 90 0E 01 2B 68  ..nh......h...+h
0AD0: 90 0E 01 4C 80 1C 4D 80  7B 66 90 0E 01 27 10 66  ...L..M.{f...'.f
0AE0: 90 0E 01 3D 52 33 80 F8  FF FF 7F F8 FF FF 7F 73  ...=R3.........s
0AF0: 30 30 37 45 33 80 F8 FF  FF 7F F8 FF FF 7F 73 30  007E3.........s0
0B00: 30 38 01 80 2B 66 90 0E  01 4E 80 2A 10 66 90 0E  08..+f...N.*.f..
0B10: 01 23 52 33 80 F8 FF FF  7F F8 FF FF 7F 73 30 30  .#R3.........s00
0B20: 38 45 33 80 F8 FF FF 7F  F8 FF FF 7F 73 30 30 39  8E3.........s009
0B30: 01 80 27 10 66 90 0E 01  1D 2B 66 90 0E 01 4F 80  ..'.f....+f...O.
0B40: 23 2B 66 90 0E 01 50 80  29 10 66 90 0E 01 1E 23  #+f...P.).f....#
0B50: 27 10 66 90 0E 01 0B 29  10 66 90 0E 01 0C 1C 06  '.f....).f......
0B60: 80 4A 66 90 0E 01 F0 FF  FF 7F 7B 66 90 0E 01 52  .Jf.......{f...R
0B70: 33 80 F8 FF FF 7F F8 FF  FF 7F 73 30 30 39 02 87  3.........s009..
0B80: 7F 32 80 80 9A 0B 45 33  80 F8 FF FF 7F F8 FF FF  .2....E3........
0B90: 7F 73 67 31 30 01 80 01  1B 0C 02 87 7F 34 80 80  .sg10........4..
0BA0: B6 0B 45 33 80 F8 FF FF  7F F8 FF FF 7F 73 67 31  ..E3.........sg1
0BB0: 30 01 80 01 1B 0C 02 87  7F 30 80 80 D2 0B 45 33  0........0....E3
0BC0: 80 F8 FF FF 7F F8 FF FF  7F 73 74 31 30 01 80 01  .........st10...
0BD0: 1B 0C 02 87 7F 31 80 80  EE 0B 45 33 80 F8 FF FF  .....1....E3....
0BE0: 7F F8 FF FF 7F 73 74 31  30 01 80 01 1B 0C 02 87  .....st10.......
0BF0: 7F 35 80 80 0A 0C 45 33  80 F8 FF FF 7F F8 FF FF  .5....E3........
0C00: 7F 73 67 31 30 01 80 01  1B 0C 45 33 80 F8 FF FF  .sg10.....E3....
0C10: 7F F8 FF FF 7F 73 30 31  30 01 80 6F 76 66 90 0E  .....s010..ovf..
0C20: 01 2B 66 90 0E 01 51 80  1C 4D 80 23 02 87 7F 32  .+f...Q..M.#...2
0C30: 80 80 46 0C 52 33 80 F8  FF FF 7F F8 FF FF 7F 73  ..F.R3.........s
0C40: 67 31 30 01 BD 0C 02 87  7F 34 80 80 60 0C 52 33  g10......4..`.R3
0C50: 80 F8 FF FF 7F F8 FF FF  7F 73 67 31 30 01 BD 0C  .........sg10...
0C60: 02 87 7F 30 80 80 7A 0C  52 33 80 F8 FF FF 7F F8  ...0..z.R3......
0C70: FF FF 7F 73 74 31 30 01  BD 0C 02 87 7F 31 80 80  ...st10......1..
0C80: 94 0C 52 33 80 F8 FF FF  7F F8 FF FF 7F 73 74 31  ..R3.........st1
0C90: 30 01 BD 0C 02 87 7F 35  80 80 AE 0C 52 33 80 F8  0......5....R3..
0CA0: FF FF 7F F8 FF FF 7F 73  67 31 30 01 BD 0C 52 33  .......sg10...R3
0CB0: 80 F8 FF FF 7F F8 FF FF  7F 73 30 31 30 45 33 80  .........s010E3.
0CC0: F8 FF FF 7F F8 FF FF 7F  73 30 31 31 01 80 27 10  ........s011..'.
0CD0: 66 90 0E 01 11 2B 66 90  0E 01 52 80 23 2B 66 90  f....+f...R.#+f.
0CE0: 0E 01 53 80 29 10 66 90  0E 01 12 23 27 10 68 90  ..S.).f....#'.h.
0CF0: 0E 01 05 2B 68 90 0E 01  54 80 29 10 68 90 0E 01  ...+h...T.).h...
0D00: 06 23 27 10 68 90 0E 01  07 27 10 66 90 0E 01 13  .#'.h....'.f....
0D10: 29 10 66 90 0E 01 14 4A  66 90 0E 01 68 90 0E 01  ).f....Jf...h...
0D20: 52 33 80 F8 FF FF 7F F8  FF FF 7F 73 30 31 31 45  R3.........s011E
0D30: 33 80 F8 FF FF 7F F8 FF  FF 7F 73 30 31 32 01 80  3.........s012..
0D40: 6F 76 66 90 0E 01 2B 66  90 0E 01 55 80 1C 3A 80  ovf...+f...U..:.
0D50: 23 52 33 80 F8 FF FF 7F  F8 FF FF 7F 73 30 31 32  #R3.........s012
0D60: 45 33 80 F8 FF FF 7F F8  FF FF 7F 73 30 31 33 01  E3.........s013.
0D70: 80 27 10 68 90 0E 01 09  2B 68 90 0E 01 56 80 23  .'.h....+h...V.#
0D80: 2B 68 90 0E 01 57 80 29  10 68 90 0E 01 0A 23 27  +h...W.).h....#'
0D90: 10 68 90 0E 01 0B 29 10  68 90 0E 01 0C 4A 68 90  .h....).h....Jh.
0DA0: 0E 01 F0 FF FF 7F 27 10  68 90 0E 01 1C 52 33 80  ......'.h....R3.
0DB0: F8 FF FF 7F F8 FF FF 7F  73 30 31 33 02 87 7F 32  ........s013...2
0DC0: 80 80 D8 0D 45 33 80 F8  FF FF 7F F8 FF FF 7F 73  ....E3.........s
0DD0: 67 31 34 01 80 01 59 0E  02 87 7F 34 80 80 F4 0D  g14...Y....4....
0DE0: 45 33 80 F8 FF FF 7F F8  FF FF 7F 73 67 31 34 01  E3.........sg14.
0DF0: 80 01 59 0E 02 87 7F 30  80 80 10 0E 45 33 80 F8  ..Y....0....E3..
0E00: FF FF 7F F8 FF FF 7F 73  74 31 34 01 80 01 59 0E  .......st14...Y.
0E10: 02 87 7F 31 80 80 2C 0E  45 33 80 F8 FF FF 7F F8  ...1..,.E3......
0E20: FF FF 7F 73 74 31 34 01  80 01 59 0E 02 87 7F 35  ...st14...Y....5
0E30: 80 80 48 0E 45 33 80 F8  FF FF 7F F8 FF FF 7F 73  ..H.E3.........s
0E40: 67 31 34 01 80 01 59 0E  45 33 80 F8 FF FF 7F F8  g14...Y.E3......
0E50: FF FF 7F 73 30 31 34 01  80 2B 68 90 0E 01 58 80  ...s014..+h...X.
0E60: 1C 38 80 4A 66 90 0E 01  F0 FF FF 7F 7B 66 90 0E  .8.Jf.......{f..
0E70: 01 4A F0 FF FF 7F 68 90  0E 01 2A 10 68 90 0E 01  .J....h...*.h...
0E80: 27 10 68 90 0E 01 0D 29  10 68 90 0E 01 0E 23 27  '.h....).h....#'
0E90: 10 68 90 0E 01 0F 27 10  F0 FF FF 7F A2 1C 38 80  .h....'.......8.
0EA0: 2A 10 F0 FF FF 7F 1C 06  80 02 87 7F 32 80 80 C3  *...........2...
0EB0: 0E 52 33 80 F8 FF FF 7F  F8 FF FF 7F 73 67 31 34  .R3.........sg14
0EC0: 01 3A 0F 02 87 7F 34 80  80 DD 0E 52 33 80 F8 FF  .:....4....R3...
0ED0: FF 7F F8 FF FF 7F 73 67  31 34 01 3A 0F 02 87 7F  ......sg14.:....
0EE0: 30 80 80 F7 0E 52 33 80  F8 FF FF 7F F8 FF FF 7F  0....R3.........
0EF0: 73 74 31 34 01 3A 0F 02  87 7F 31 80 80 11 0F 52  st14.:....1....R
0F00: 33 80 F8 FF FF 7F F8 FF  FF 7F 73 74 31 34 01 3A  3.........st14.:
0F10: 0F 02 87 7F 35 80 80 2B  0F 52 33 80 F8 FF FF 7F  ....5..+.R3.....
0F20: F8 FF FF 7F 73 67 31 34  01 3A 0F 52 33 80 F8 FF  ....sg14.:.R3...
0F30: FF 7F F8 FF FF 7F 73 30  31 34 45 33 80 F8 FF FF  ......s014E3....
0F40: 7F F8 FF FF 7F 73 30 31  35 01 80 7B F0 FF FF 7F  .....s015..{....
0F50: 4A F0 FF FF 7F 70 90 0E  01 27 10 70 90 0E 01 04  J....p...'.p....
0F60: 45 33 80 F8 FF FF 7F F8  FF FF 7F 38 33 30 34 01  E3.........8304.
0F70: 80 6C 70 90 0E 01 59 80  38 80 5D 01 80 38 80 7B  .lp...Y.8.]..8.{
0F80: 66 90 0E 01 7B 68 90 0E  01 4A 66 90 0E 01 70 90  f...{h...Jf...p.
0F90: 0E 01 4A 68 90 0E 01 70  90 0E 01 1C 38 80 9F 5A  ..Jh...p....8..Z
0FA0: 80 70 90 0E 01 70 90 0E  01 6D 61 69 6E 01 80 2B  .p...p...main..+
0FB0: 70 90 0E 01 5B 80 1C 38  80 6E F0 FF FF 7F 5C 80  p...[..8.n....\.
0FC0: 99 F0 FF FF 7F 1C 38 80  27 10 66 90 0E 01 17 66  ......8.'.f....f
0FD0: 5D 80 68 90 0E 01 68 90  0E 01 6D 61 6C 30 1C 3A  ].h...h...mal0.:
0FE0: 80 1A B7 01 9F 5A 80 70  90 0E 01 70 90 0E 01 65  .....Z.p...p...e
0FF0: 66 6B 6C 01 80 CD 5E 80  70 90 0E 01 70 90 0E 01  fkl...^.p...p...
1000: 73 30 30 30 01 80 52 33  80 F8 FF FF 7F F8 FF FF  s000..R3........
1010: 7F 73 30 31 35 45 33 80  F8 FF FF 7F F8 FF FF 7F  .s015E3.........
1020: 62 6C 6F 6E 01 80 45 00  80 F8 FF FF 7F F8 FF FF  blon..E.........
1030: 7F 38 31 36 30 01 80 45  33 80 F8 FF FF 7F F8 FF  .8160..E3.......
1040: FF 7F 73 30 31 36 01 80  1A 96 01 2B 70 90 0E 01  ..s016.....+p...
1050: 5F 80 1C 45 80 1A A6 00  1C 3A 80 1A 64 00 45 33  _..E.....:..d.E3
1060: 80 F8 FF FF 7F F8 FF FF  7F 62 6C 6F 66 01 80 CD  .........blof...
1070: 5E 80 70 90 0E 01 70 90  0E 01 73 74 70 30 01 80  ^.p...p...stp0..
1080: 6B 69 64 6C 30 66 90 0E  01 6B 69 64 6C 30 68 90  kidl0f...kidl0h.
1090: 0E 01 6B 69 64 6C 30 70  90 0E 01 6C 70 90 0E 01  ..kidl0p...lp...
10A0: 01 80 03 80 7B 66 90 0E  01 7B 68 90 0E 01 7B F0  ....{f...{h...{.
10B0: FF FF 7F 34 60 80 77 61  80 62 80 AB 09 80 68 90  ...4`.wa.b....h.
10C0: 0E 01 80 6A 90 0E 01 80  6B 90 0E 01 80 6C 90 0E  ...j....k....l..
10D0: 01 80 6D 90 0E 01 80 6E  90 0E 01 80 72 90 0E 01  ..m....n....r...
10E0: 80 70 90 0E 01 80 F0 FF  FF 7F BA 68 90 0E 01 63  .p.........h...c
10F0: 80 64 80 01 80 65 80 BA  6A 90 0E 01 1A 80 1B 80  .d...e..j.......
1100: 01 80 1C 80 BA 6B 90 0E  01 1D 80 1E 80 1F 80 20  .....k......... 
1110: 80 BA 6C 90 0E 01 21 80  22 80 08 80 23 80 BA 6D  ..l...!."...#..m
1120: 90 0E 01 24 80 25 80 01  80 26 80 BA 6E 90 0E 01  ...$.%...&..n...
1130: 27 80 28 80 29 80 2A 80  BA 71 90 0E 01 2B 80 2C  '.(.).*..q...+.,
1140: 80 01 80 2D 80 BA 72 90  0E 01 2E 80 2F 80 00 80  ...-..r...../...
1150: 01 80 BA 70 90 0E 01 66  80 67 80 68 80 69 80 BA  ...p...f.g.h.i..
1160: F0 FF FF 7F 6A 80 6B 80  6C 80 65 80 6C 6A 90 0E  ....j.k.l.e.lj..
1170: 01 01 80 03 80 6C 6B 90  0E 01 01 80 03 80 6C 6C  .....lk.......ll
1180: 90 0E 01 01 80 03 80 6C  6D 90 0E 01 59 80 03 80  .......lm...Y...
1190: 6C 6E 90 0E 01 01 80 03  80 6C 70 90 0E 01 01 80  ln.......lp.....
11A0: 03 80 6C 71 90 0E 01 01  80 03 80 6C 72 90 0E 01  ..lq.......lr...
11B0: 59 80 03 80 2C 6A 90 0E  01 6A 90 0E 01 77 70 6F  Y...,j...j...wpo
11C0: 6E 2C 6D 90 0E 01 6D 90  0E 01 65 66 6F 6E 2C 6D  n,m...m...efon,m
11D0: 90 0E 01 6D 90 0E 01 77  70 6F 66 1C 38 80 48 42  ...m...wpof.8.HB
11E0: 80 1C 38 80 5C 00 6D 80  5C 01 6D 80 9A 37 6E 80  ..8.\.m.\.m..7n.
11F0: 6F 80 70 80 01 80 4A F0  FF FF 7F F8 FF FF 7F 27  o.p...J........'
1200: 10 68 90 0E 01 11 29 10  68 90 0E 01 12 29 10 6D  .h....).h....).m
1210: 90 0E 01 01 52 33 80 F8  FF FF 7F F8 FF FF 7F 73  ....R3.........s
1220: 30 31 36 02 87 7F 30 80  80 3F 12 45 71 80 F8 FF  016...0..?.Eq...
1230: FF 7F F8 FF FF 7F 73 30  32 33 01 80 01 88 12 02  ......s023......
1240: 87 7F 31 80 80 5B 12 45  71 80 F8 FF FF 7F F8 FF  ..1..[.Eq.......
1250: FF 7F 73 30 32 33 01 80  01 88 12 02 87 7F 35 80  ..s023........5.
1260: 80 77 12 45 71 80 F8 FF  FF 7F F8 FF FF 7F 73 30  .w.Eq.........s0
1270: 32 37 01 80 01 88 12 45  71 80 F8 FF FF 7F F8 FF  27.....Eq.......
1280: FF 7F 73 30 30 32 01 80  29 10 68 90 0E 01 13 1A  ..s002..).h.....
1290: 96 01 1A 43 00 29 10 68  90 0E 01 14 79 00 68 90  ...C.).h....y.h.
12A0: 0E 01 F0 FF FF 7F 4A F0  FF FF 7F 68 90 0E 01 29  ......J....h...)
12B0: 10 68 90 0E 01 1D 6F 76  F0 FF FF 7F 29 10 68 90  .h....ov....).h.
12C0: 0E 01 05 2B 68 90 0E 01  72 80 23 02 87 7F 30 80  ...+h...r.#...0.
12D0: 80 E5 12 52 71 80 F8 FF  FF 7F F8 FF FF 7F 73 30  ...Rq.........s0
12E0: 32 33 01 28 13 02 87 7F  31 80 80 FF 12 52 71 80  23.(....1....Rq.
12F0: F8 FF FF 7F F8 FF FF 7F  73 30 32 33 01 28 13 02  ........s023.(..
1300: 87 7F 35 80 80 19 13 52  71 80 F8 FF FF 7F F8 FF  ..5....Rq.......
1310: FF 7F 73 30 32 37 01 28  13 52 71 80 F8 FF FF 7F  ..s027.(.Rq.....
1320: F8 FF FF 7F 73 30 30 32  45 71 80 F8 FF FF 7F F8  ....s002Eq......
1330: FF FF 7F 73 30 30 37 01  80 6C 6E 90 0E 01 59 80  ...s007..ln...Y.
1340: 03 80 2B 68 90 0E 01 73  80 23 29 10 68 90 0E 01  ..+h...s.#).h...
1350: 06 D0 74 80 6D 90 0E 01  6D 90 0E 01 6F 30 30 32  ..t.m...m...o002
1360: 01 80 29 10 68 90 0E 01  07 29 10 68 90 0E 01 08  ..).h....).h....
1370: 9F 75 80 6E 90 0E 01 6E  90 0E 01 00 FE FE FE 01  .u.n...n........
1380: 80 66 76 80 6E 90 0E 01  6E 90 0E 01 00 FE FE FE  .fv.n...n.......
1390: 27 10 6E 90 0E 01 34 52  71 80 F8 FF FF 7F F8 FF  '.n...4Rq.......
13A0: FF 7F 73 30 30 37 45 33  80 F8 FF FF 7F F8 FF FF  ..s007E3........
13B0: 7F 73 30 32 30 01 80 2A  10 6E 90 0E 01 1C 06 80  .s020..*.n......
13C0: 4A F0 FF FF 7F 6E 90 0E  01 4A 68 90 0E 01 6E 90  J....n...Jh...n.
13D0: 0E 01 52 33 80 F8 FF FF  7F F8 FF FF 7F 73 30 32  ..R3.........s02
13E0: 30 45 33 80 F8 FF FF 7F  F8 FF FF 7F 73 30 32 31  0E3.........s021
13F0: 01 80 9F 75 80 6E 90 0E  01 6E 90 0E 01 6D 61 69  ...u.n...n...mai
1400: 6E 01 80 1C 03 80 5D 01  80 43 80 81 00 6E 90 0E  n.....]..C...n..
1410: 01 27 10 6E 90 0E 01 1B  1C 77 80 6E F0 FF FF 7F  .'.n.....w.n....
1420: 78 80 99 F0 FF FF 7F 1C  3A 80 D0 74 80 6D 90 0E  x.......:..t.m..
1430: 01 6D 90 0E 01 6F 30 30  33 01 80 2C 6D 90 0E 01  .m...o003..,m...
1440: 6D 90 0E 01 65 66 6F 66  1C 38 80 27 10 68 90 0E  m...efof.8.'.h..
1450: 01 15 52 33 80 F8 FF FF  7F F8 FF FF 7F 73 30 32  ..R3.........s02
1460: 31 45 33 80 F8 FF FF 7F  F8 FF FF 7F 73 30 32 32  1E3.........s022
1470: 01 80 2B 68 90 0E 01 79  80 2A 10 68 90 0E 01 23  ..+h...y.*.h...#
1480: 1C 45 80 2A 10 6E 90 0E  01 81 01 6E 90 0E 01 9F  .E.*.n.....n....
1490: 75 80 6E 90 0E 01 6E 90  0E 01 6B 69 6C 6C 01 80  u.n...n...kill..
14A0: 66 7A 80 6E 90 0E 01 6E  90 0E 01 77 6F 66 32 53  fz.n...n...wof2S
14B0: 6E 90 0E 01 6E 90 0E 01  77 6F 66 32 1C 7B 80 D0  n...n...wof2.{..
14C0: 74 80 6D 90 0E 01 6D 90  0E 01 6F 6B 6C 32 01 80  t.m...m...okl2..
14D0: 52 33 80 F8 FF FF 7F F8  FF FF 7F 73 30 32 32 45  R3.........s022E
14E0: 33 80 F8 FF FF 7F F8 FF  FF 7F 73 30 32 33 01 80  3.........s023..
14F0: 1C 3A 80 27 10 6E 90 0E  01 07 29 10 6E 90 0E 01  .:.'.n....).n...
1500: 08 5C 00 7C 80 5C 01 7C  80 9A 4A 6E 90 0E 01 68  .\.|.\.|..Jn...h
1510: 90 0E 01 6F 76 6E 90 0E  01 1C 06 80 27 10 6E 90  ...ovn......'.n.
1520: 0E 01 35 52 33 80 F8 FF  FF 7F F8 FF FF 7F 73 30  ..5R3.........s0
1530: 32 33 45 33 80 F8 FF FF  7F F8 FF FF 7F 73 30 32  23E3.........s02
1540: 34 01 80 2B 6E 90 0E 01  7D 80 2A 10 6E 90 0E 01  4..+n...}.*.n...
1550: 23 52 33 80 F8 FF FF 7F  F8 FF FF 7F 73 30 32 34  #R3.........s024
1560: 45 33 80 F8 FF FF 7F F8  FF FF 7F 73 30 32 35 01  E3.........s025.
1570: 80 2B 6E 90 0E 01 7E 80  1C 3A 80 23 27 10 68 90  .+n...~..:.#'.h.
1580: 0E 01 16 1C 3A 80 52 33  80 F8 FF FF 7F F8 FF FF  ....:.R3........
1590: 7F 73 30 32 35 45 33 80  F8 FF FF 7F F8 FF FF 7F  .s025E3.........
15A0: 73 30 32 36 01 80 27 10  6E 90 0E 01 05 2B 6E 90  s026..'.n....+n.
15B0: 0E 01 7F 80 23 2B 6E 90  0E 01 80 80 29 10 6E 90  ....#+n.....).n.
15C0: 0E 01 06 23 27 10 6E 90  0E 01 01 2B 6E 90 0E 01  ...#'.n....+n...
15D0: 81 80 29 10 6E 90 0E 01  02 23 27 10 6E 90 0E 01  ..).n....#'.n...
15E0: 03 29 10 6E 90 0E 01 04  1C 06 80 4A 6E 90 0E 01  .).n.......Jn...
15F0: F8 FF FF 7F 52 33 80 F8  FF FF 7F F8 FF FF 7F 73  ....R3.........s
1600: 30 32 36 45 33 80 F8 FF  FF 7F F8 FF FF 7F 73 30  026E3.........s0
1610: 32 37 01 80 6F 76 6E 90  0E 01 1C 82 80 1A 0B 02  27..ovn.........
1620: 1C 38 80 48 42 80 52 33  80 F8 FF FF 7F F8 FF FF  .8.HB.R3........
1630: 7F 73 30 32 37 29 10 6E  90 0E 01 31 69 01 34 80  .s027).n...1i.4.
1640: 89 83 80 1C 38 80 B4 14  01 80 01 80 84 80 01 80  ....8...........
1650: 03 80 B4 14 01 80 01 80  85 80 00 80 03 80 1A F9  ................
1660: 01 1C 3A 80 2B 6E 90 0E  01 86 80 1C 87 80 1A 0B  ..:.+n..........
1670: 02 8A B4 15 48 42 80 45  33 80 F8 FF FF 7F F8 FF  ....HB.E3.......
1680: FF 7F 73 30 32 38 01 80  1A F9 01 69 00 34 80 1C  ..s028.....i.4..
1690: 38 80 2B 6E 90 0E 01 88  80 1C 89 80 23 6C 6A 90  8.+n........#lj.
16A0: 0E 01 59 80 03 80 6C 6B  90 0E 01 59 80 03 80 6C  ..Y...lk...Y...l
16B0: 6C 90 0E 01 59 80 03 80  27 10 6A 90 0E 01 02 27  l...Y...'.j....'
16C0: 10 6B 90 0E 01 02 27 10  6C 90 0E 01 02 52 33 80  .k....'.l....R3.
16D0: F8 FF FF 7F F8 FF FF 7F  73 30 32 38 45 33 80 F8  ........s028E3..
16E0: FF FF 7F F8 FF FF 7F 73  30 32 39 01 80 1C 45 80  .......s029...E.
16F0: 45 33 80 F8 FF FF 7F F8  FF FF 7F 31 30 30 31 01  E3.........1001.
1700: 80 2B 6A 90 0E 01 8A 80  1C 38 80 4A 6E 90 0E 01  .+j......8.Jn...
1710: 6A 90 0E 01 4A 68 90 0E  01 6A 90 0E 01 4A F0 FF  j...Jh...j...J..
1720: FF 7F 6A 90 0E 01 2A 10  6A 90 0E 01 23 52 33 80  ..j...*.j...#R3.
1730: F8 FF FF 7F F8 FF FF 7F  73 30 32 39 45 33 80 F8  ........s029E3..
1740: FF FF 7F F8 FF FF 7F 73  30 33 30 01 80 27 10 6A  .......s030..'.j
1750: 90 0E 01 13 2B 6A 90 0E  01 8B 80 45 33 80 F8 FF  ....+j.....E3...
1760: FF 7F F8 FF FF 7F 31 30  30 34 01 80 29 10 6A 90  ......1004..).j.
1770: 0E 01 14 23 7B 6E 90 0E  01 66 7A 80 6E 90 0E 01  ...#{n...fz.n...
1780: 6E 90 0E 01 77 6F 6E 32  27 10 6E 90 0E 01 1E 29  n...won2'.n....)
1790: 10 6E 90 0E 01 1F 9F 61  80 6E 90 0E 01 6E 90 0E  .n.....a.n...n..
17A0: 01 6D 61 69 6E 01 80 52  33 80 F8 FF FF 7F F8 FF  .main..R3.......
17B0: FF 7F 73 30 33 30 45 33  80 F8 FF FF 7F F8 FF FF  ..s030E3........
17C0: 7F 73 30 33 31 01 80 27  10 6A 90 0E 01 15 2B 6E  .s031..'.j....+n
17D0: 90 0E 01 8C 80 1C 4D 80  23 27 10 6A 90 0E 01 21  ......M.#'.j...!
17E0: 1C 8D 80 52 33 80 F8 FF  FF 7F F8 FF FF 7F 73 30  ...R3.........s0
17F0: 33 31 45 33 80 F8 FF FF  7F F8 FF FF 7F 73 30 33  31E3.........s03
1800: 32 01 80 45 33 80 F8 FF  FF 7F F8 FF FF 7F 31 30  2..E3.........10
1810: 30 31 01 80 2B 6A 90 0E  01 8E 80 23 2B 6A 90 0E  01..+j.....#+j..
1820: 01 8F 80 23 2B 6A 90 0E  01 90 80 29 10 6A 90 0E  ...#+j.....).j..
1830: 01 22 23 52 33 80 F8 FF  FF 7F F8 FF FF 7F 73 30  ."#R3.........s0
1840: 33 32 45 33 80 F8 FF FF  7F F8 FF FF 7F 73 30 33  32E3.........s03
1850: 33 01 80 2B 6E 90 0E 01  91 80 1C 06 80 27 10 6A  3..+n........'.j
1860: 90 0E 01 23 1C 3A 80 23  2C 6A 90 0E 01 6A 90 0E  ...#.:.#,j...j..
1870: 01 77 70 6F 66 53 6A 90  0E 01 6A 90 0E 01 77 70  .wpofSj...j...wp
1880: 6F 66 1C 8D 80 52 33 80  F8 FF FF 7F F8 FF FF 7F  of...R3.........
1890: 73 30 33 33 45 33 80 F8  FF FF 7F F8 FF FF 7F 73  s033E3.........s
18A0: 30 33 34 01 80 45 33 80  F8 FF FF 7F F8 FF FF 7F  034..E3.........
18B0: 31 30 30 36 01 80 2B 6A  90 0E 01 92 80 1C 8D 80  1006..+j........
18C0: 27 10 6A 90 0E 01 17 9F  61 80 6E 90 0E 01 6E 90  '.j.....a.n...n.
18D0: 0E 01 6B 69 6C 6C 01 80  29 10 6E 90 0E 01 32 66  ..kill..).n...2f
18E0: 7A 80 6E 90 0E 01 6E 90  0E 01 77 6F 66 32 29 10  z.n...n...wof2).
18F0: 6A 90 0E 01 18 23 27 10  6A 90 0E 01 19 52 33 80  j....#'.j....R3.
1900: F8 FF FF 7F F8 FF FF 7F  73 30 33 34 45 33 80 F8  ........s034E3..
1910: FF FF 7F F8 FF FF 7F 73  30 33 35 01 80 1C 8D 80  .......s035.....
1920: 2C 6A 90 0E 01 6A 90 0E  01 77 70 6F 6E 53 6A 90  ,j...j...wponSj.
1930: 0E 01 6A 90 0E 01 77 70  6F 6E 7B 6E 90 0E 01 27  ..j...wpon{n...'
1940: 10 6E 90 0E 01 36 1C 38  80 4A 68 90 0E 01 6E 90  .n...6.8.Jh...n.
1950: 0E 01 4A F0 FF FF 7F 6E  90 0E 01 1C 8D 80 4A 6A  ..J....n......Jj
1960: 90 0E 01 6E 90 0E 01 4A  6B 90 0E 01 6E 90 0E 01  ...n...Jk...n...
1970: 4A 6C 90 0E 01 6E 90 0E  01 2A 10 6E 90 0E 01 4A  Jl...n...*.n...J
1980: 6A 90 0E 01 6E 90 0E 01  4A 6B 90 0E 01 6E 90 0E  j...n...Jk...n..
1990: 01 4A 6C 90 0E 01 6E 90  0E 01 4A 68 90 0E 01 6E  .Jl...n...Jh...n
19A0: 90 0E 01 4A F0 FF FF 7F  6E 90 0E 01 52 33 80 F8  ...J....n...R3..
19B0: FF FF 7F F8 FF FF 7F 73  30 33 35 45 33 80 F8 FF  .......s035E3...
19C0: FF 7F F8 FF FF 7F 73 30  33 36 01 80 27 10 6E 90  ......s036..'.n.
19D0: 0E 01 09 2B 6E 90 0E 01  93 80 29 10 6E 90 0E 01  ...+n.....).n...
19E0: 0A 23 27 10 6A 90 0E 01  13 52 33 80 F8 FF FF 7F  .#'.j....R3.....
19F0: F8 FF FF 7F 73 30 33 36  45 33 80 F8 FF FF 7F F8  ....s036E3......
1A00: FF FF 7F 73 30 33 37 01  80 45 33 80 F8 FF FF 7F  ...s037..E3.....
1A10: F8 FF FF 7F 64 64 30 30  01 80 2B 6A 90 0E 01 94  ....dd00..+j....
1A20: 80 2C 6B 90 0E 01 6B 90  0E 01 73 70 31 30 2C 6C  .,k...k...sp10,l
1A30: 90 0E 01 6C 90 0E 01 73  70 36 30 29 10 6A 90 0E  ...l...sp60).j..
1A40: 01 14 23 27 10 6E 90 0E  01 0B 29 10 6E 90 0E 01  ..#'.n....).n...
1A50: 0B 1C 06 80 4E 01 72 90  0E 01 4B 6E 90 0E 01 95  ....N.r...Kn....
1A60: 80 52 33 80 F8 FF FF 7F  F8 FF FF 7F 73 30 33 37  .R3.........s037
1A70: 45 33 80 F8 FF FF 7F F8  FF FF 7F 73 30 33 38 01  E3.........s038.
1A80: 80 27 10 6A 90 0E 01 15  6F 76 6E 90 0E 01 1C 06  .'.j....ovn.....
1A90: 80 D5 96 80 6E 90 0E 01  6E 90 0E 01 6D 61 69 30  ....n...n...mai0
1AA0: 01 80 29 10 71 90 0E 01  04 45 33 80 F8 FF FF 7F  ..).q....E3.....
1AB0: F8 FF FF 7F 38 33 30 34  01 80 27 10 71 90 0E 01  ....8304..'.q...
1AC0: 03 2A 10 71 90 0E 01 79  00 6A 90 0E 01 71 90 0E  .*.q...y.j...q..
1AD0: 01 79 00 6B 90 0E 01 71  90 0E 01 79 00 6C 90 0E  .y.k...q...y.l..
1AE0: 01 71 90 0E 01 79 00 68  90 0E 01 71 90 0E 01 79  .q...y.h...q...y
1AF0: 00 F0 FF FF 7F 71 90 0E  01 1C 38 80 6E F0 FF FF  .....q....8.n...
1B00: 7F 5C 80 99 F0 FF FF 7F  6E 68 90 0E 01 78 80 99  .\......nh...x..
1B10: 68 90 0E 01 27 10 6A 90  0E 01 13 2B 6E 90 0E 01  h...'.j....+n...
1B20: 97 80 9F 5A 80 71 90 0E  01 71 90 0E 01 6D 61 69  ...Z.q...q...mai
1B30: 6E 01 80 1C 3A 80 45 33  80 F8 FF FF 7F F8 FF FF  n...:.E3........
1B40: 7F 64 64 30 31 01 80 1C  38 80 2C 6B 90 0E 01 6B  .dd01...8.,k...k
1B50: 90 0E 01 73 70 31 30 2C  6C 90 0E 01 6C 90 0E 01  ...sp10,l...l...
1B60: 73 70 36 30 4A 68 90 0E  01 F0 FF FF 7F 1C 3A 80  sp60Jh........:.
1B70: 23 1A B7 01 6F 76 68 90  0E 01 52 33 80 F8 FF FF  #...ovh...R3....
1B80: 7F F8 FF FF 7F 73 30 33  38 9F 5A 80 71 90 0E 01  .....s038.Z.q...
1B90: 71 90 0E 01 65 66 6F 66  01 80 D5 96 80 6E 90 0E  q...efof.....n..
1BA0: 01 6E 90 0E 01 6B 69 6C  6C 01 80 66 7A 80 6E 90  .n...kill..fz.n.
1BB0: 0E 01 6E 90 0E 01 77 6F  66 32 27 10 6E 90 0E 01  ..n...wof2'.n...
1BC0: 33 6B 69 64 6C 30 6A 90  0E 01 4E 01 6A 90 0E 01  3kidl0j...N.j...
1BD0: 4E 01 6B 90 0E 01 4E 01  6C 90 0E 01 4E 01 6E 90  N.k...N.l...N.n.
1BE0: 0E 01 4E 01 71 90 0E 01  45 71 80 F8 FF FF 7F F8  ..N.q...Eq......
1BF0: FF FF 7F 73 30 30 37 01  80 CD 5E 80 68 90 0E 01  ...s007...^.h...
1C00: 68 90 0E 01 73 30 30 30  01 80 1A 96 01 45 33 80  h...s000.....E3.
1C10: F8 FF FF 7F F8 FF FF 7F  31 31 31 36 01 80 7C 00  ........1116..|.
1C20: 68 90 0E 01 2B 68 90 0E  01 98 80 1C 4D 80 23 7C  h...+h......M.#|
1C30: 01 68 90 0E 01 1A A6 00  1C 3A 80 1A 64 00 CD 5E  .h.......:..d..^
1C40: 80 68 90 0E 01 68 90 0E  01 73 74 70 30 01 80 35  .h...h...stp0..5
1C50: 99 80 75 00 3D 80 75 01  AB 0A 78 4E 01 6A 90 0E  ..u.=.u...xN.j..
1C60: 01 4E 01 6B 90 0E 01 4E  01 6C 90 0E 01 4E 01 6D  .N.k...N.l...N.m
1C70: 90 0E 01 4E 01 6E 90 0E  01 4E 01 71 90 0E 01 4E  ...N.n...N.q...N
1C80: 01 72 90 0E 01 BA 68 90  0E 01 9A 80 9B 80 12 80  .r....h.........
1C90: 9C 80 BA 70 90 0E 01 14  80 15 80 12 80 16 80 BA  ...p............
1CA0: F0 FF FF 7F 9D 80 9E 80  12 80 9F 80 29 10 66 90  ............).f.
1CB0: 0E 01 42 80 66 90 0E 01  4A 68 90 0E 01 70 90 0E  ..B.f...Jh...p..
1CC0: 01 7B 68 90 0E 01 4A 70  90 0E 01 66 90 0E 01 7B  .{h...Jp...f...{
1CD0: 70 90 0E 01 4A F0 FF FF  7F 70 90 0E 01 7B F0 FF  p...J....p...{..
1CE0: FF 7F 2C 66 90 0E 01 66  90 0E 01 77 6F 66 31 53  ..,f...f...wof1S
1CF0: 66 90 0E 01 66 90 0E 01  77 6F 66 31 27 10 66 90  f...f...wof1'.f.
1D00: 0E 01 19 29 10 66 90 0E  01 1A 27 10 F0 FF FF 7F  ...).f....'.....
1D10: A3 27 10 68 90 0E 01 11  29 10 68 90 0E 01 12 48  .'.h....).h....H
1D20: 42 80 1C 38 80 1A 96 01  52 33 80 F8 FF FF 7F F8  B..8....R3......
1D30: FF FF 7F 73 30 34 39 45  33 80 F8 FF FF 7F F8 FF  ...s049E3.......
1D40: FF 7F 73 30 35 30 01 80  45 00 80 F8 FF FF 7F F8  ..s050..E.......
1D50: FF FF 7F 36 31 32 31 01  80 1A 43 00 1C 45 80 52  ...6121...C..E.R
1D60: 33 80 F8 FF FF 7F F8 FF  FF 7F 73 30 35 30 45 33  3.........s050E3
1D70: 80 F8 FF FF 7F F8 FF FF  7F 62 6C 6F 66 01 80 02  .........blof...
1D80: 87 7F 30 80 80 9B 1D 45  33 80 F8 FF FF 7F F8 FF  ..0....E3.......
1D90: FF 7F 73 74 35 31 01 80  01 C8 1D 02 87 7F 31 80  ..st51........1.
1DA0: 80 B7 1D 45 33 80 F8 FF  FF 7F F8 FF FF 7F 73 74  ...E3.........st
1DB0: 35 31 01 80 01 C8 1D 45  33 80 F8 FF FF 7F F8 FF  51.....E3.......
1DC0: FF 7F 73 30 35 31 01 80  5C 00 3B 80 5C 01 3B 80  ..s051..\.;.\.;.
1DD0: 9A 27 10 68 90 0E 01 13  2B 68 90 0E 01 A0 80 1C  .'.h....+h......
1DE0: 06 80 27 10 F0 FF FF 7F  A4 29 10 68 90 0E 01 14  ..'......).h....
1DF0: 1C 89 80 02 87 7F 30 80  80 0D 1E 52 33 80 F8 FF  ......0....R3...
1E00: FF 7F F8 FF FF 7F 73 74  35 31 01 36 1E 02 87 7F  ......st51.6....
1E10: 31 80 80 27 1E 52 33 80  F8 FF FF 7F F8 FF FF 7F  1..'.R3.........
1E20: 73 74 35 31 01 36 1E 52  33 80 F8 FF FF 7F F8 FF  st51.6.R3.......
1E30: FF 7F 73 30 35 31 45 33  80 F8 FF FF 7F F8 FF FF  ..s051E3........
1E40: 7F 73 30 35 32 01 80 27  10 66 90 0E 01 43 80 66  .s052..'.f...C.f
1E50: 90 0E 01 2B 70 90 0E 01  A1 80 1C 89 80 23 52 33  ...+p........#R3
1E60: 80 F8 FF FF 7F F8 FF FF  7F 73 30 35 32 02 87 7F  .........s052...
1E70: 32 80 80 89 1E 45 33 80  F8 FF FF 7F F8 FF FF 7F  2....E3.........
1E80: 73 67 35 33 01 80 01 0A  1F 02 87 7F 34 80 80 A5  sg53........4...
1E90: 1E 45 33 80 F8 FF FF 7F  F8 FF FF 7F 73 67 35 33  .E3.........sg53
1EA0: 01 80 01 0A 1F 02 87 7F  30 80 80 C1 1E 45 33 80  ........0....E3.
1EB0: F8 FF FF 7F F8 FF FF 7F  73 74 35 33 01 80 01 0A  ........st53....
1EC0: 1F 02 87 7F 31 80 80 DD  1E 45 33 80 F8 FF FF 7F  ....1....E3.....
1ED0: F8 FF FF 7F 73 74 35 33  01 80 01 0A 1F 02 87 7F  ....st53........
1EE0: 35 80 80 F9 1E 45 33 80  F8 FF FF 7F F8 FF FF 7F  5....E3.........
1EF0: 73 67 35 33 01 80 01 0A  1F 45 33 80 F8 FF FF 7F  sg53.....E3.....
1F00: F8 FF FF 7F 73 30 35 33  01 80 79 00 66 90 0E 01  ....s053..y.f...
1F10: F0 FF FF 7F 2B 66 90 0E  01 A2 80 4A F0 FF FF 7F  ....+f.....J....
1F20: 66 90 0E 01 6F 76 F0 FF  FF 7F 23 24 A3 80 01 80  f...ov....#$....
1F30: 01 80 25 02 00 10 01 80  00 3E 1F 01 54 1F 02 00  ..%......>..T...
1F40: 10 03 80 00 49 1F 01 54  1F 02 00 10 05 80 00 54  ....I..T.......T
1F50: 1F 01 54 1F 27 10 F0 FF  FF 7F A0 2A 10 F0 FF FF  ..T.'......*....
1F60: 7F 27 10 F0 FF FF 7F A1  4A 68 90 0E 01 66 90 0E  .'......Jh...f..
1F70: 01 02 87 7F 32 80 80 8B  1F 52 33 80 F8 FF FF 7F  ....2....R3.....
1F80: F8 FF FF 7F 73 67 35 33  01 02 20 02 87 7F 34 80  ....sg53.. ...4.
1F90: 80 A5 1F 52 33 80 F8 FF  FF 7F F8 FF FF 7F 73 67  ...R3.........sg
1FA0: 35 33 01 02 20 02 87 7F  30 80 80 BF 1F 52 33 80  53.. ...0....R3.
1FB0: F8 FF FF 7F F8 FF FF 7F  73 74 35 33 01 02 20 02  ........st53.. .
1FC0: 87 7F 31 80 80 D9 1F 52  33 80 F8 FF FF 7F F8 FF  ..1....R3.......
1FD0: FF 7F 73 74 35 33 01 02  20 02 87 7F 35 80 80 F3  ..st53.. ...5...
1FE0: 1F 52 33 80 F8 FF FF 7F  F8 FF FF 7F 73 67 35 33  .R3.........sg53
1FF0: 01 02 20 52 33 80 F8 FF  FF 7F F8 FF FF 7F 73 30  .. R3.........s0
2000: 35 33 45 33 80 F8 FF FF  7F F8 FF FF 7F 73 30 35  53E3.........s05
2010: 34 01 80 6F 76 68 90 0E  01 27 10 68 90 0E 01 05  4..ovh...'.h....
2020: 2B 68 90 0E 01 A4 80 29  10 68 90 0E 01 06 23 27  +h.....).h....#'
2030: 10 68 90 0E 01 07 79 00  66 90 0E 01 68 90 0E 01  .h....y.f...h...
2040: 2B 66 90 0E 01 A5 80 1C  3A 80 23 52 33 80 F8 FF  +f......:.#R3...
2050: FF 7F F8 FF FF 7F 73 30  35 34 45 33 80 F8 FF FF  ......s054E3....
2060: 7F F8 FF FF 7F 73 30 35  35 01 80 27 10 68 90 0E  .....s055..'.h..
2070: 01 0D 2B 68 90 0E 01 A6  80 23 2B 68 90 0E 01 A7  ..+h.....#+h....
2080: 80 29 10 68 90 0E 01 0E  23 27 10 68 90 0E 01 0F  .).h....#'.h....
2090: 29 10 68 90 0E 01 10 4A  66 90 0E 01 68 90 0E 01  ).h....Jf...h...
20A0: 52 33 80 F8 FF FF 7F F8  FF FF 7F 73 30 35 35 45  R3.........s055E
20B0: 33 80 F8 FF FF 7F F8 FF  FF 7F 73 30 35 36 01 80  3.........s056..
20C0: 2B 68 90 0E 01 A8 80 23  2B 68 90 0E 01 A9 80 1C  +h.....#+h......
20D0: 3A 80 23 52 33 80 F8 FF  FF 7F F8 FF FF 7F 73 30  :.#R3.........s0
20E0: 35 36 45 33 80 F8 FF FF  7F F8 FF FF 7F 73 30 35  56E3.........s05
20F0: 37 01 80 7B 66 90 0E 01  27 10 66 90 0E 01 01 2B  7..{f...'.f....+
2100: 66 90 0E 01 AA 80 29 10  66 90 0E 01 02 23 52 33  f.....).f....#R3
2110: 80 F8 FF FF 7F F8 FF FF  7F 73 30 35 37 45 33 80  .........s057E3.
2120: F8 FF FF 7F F8 FF FF 7F  73 30 35 38 01 80 7C 00  ........s058..|.
2130: 68 90 0E 01 2B 68 90 0E  01 AB 80 1C 45 80 7C 01  h...+h......E.|.
2140: 68 90 0E 01 52 33 80 F8  FF FF 7F F8 FF FF 7F 73  h...R3.........s
2150: 30 35 38 45 33 80 F8 FF  FF 7F F8 FF FF 7F 73 30  058E3.........s0
2160: 35 39 01 80 2B 66 90 0E  01 AC 80 1C 3A 80 23 27  59..+f......:.#'
2170: 10 66 90 0E 01 03 29 10  66 90 0E 01 04 1C 06 80  .f....).f.......
2180: 4A 66 90 0E 01 F0 FF FF  7F 52 33 80 F8 FF FF 7F  Jf.......R3.....
2190: F8 FF FF 7F 73 30 35 39  02 87 7F 32 80 80 B4 21  ....s059...2...!
21A0: 45 33 80 F8 FF FF 7F F8  FF FF 7F 73 67 36 30 01  E3.........sg60.
21B0: 80 01 35 22 02 87 7F 34  80 80 D0 21 45 33 80 F8  ..5"...4...!E3..
21C0: FF FF 7F F8 FF FF 7F 73  65 36 30 01 80 01 35 22  .......se60...5"
21D0: 02 87 7F 30 80 80 EC 21  45 33 80 F8 FF FF 7F F8  ...0...!E3......
21E0: FF FF 7F 73 74 36 30 01  80 01 35 22 02 87 7F 31  ...st60...5"...1
21F0: 80 80 08 22 45 33 80 F8  FF FF 7F F8 FF FF 7F 73  ..."E3.........s
2200: 74 36 30 01 80 01 35 22  02 87 7F 35 80 80 24 22  t60...5"...5..$"
2210: 45 33 80 F8 FF FF 7F F8  FF FF 7F 73 67 36 30 01  E3.........sg60.
2220: 80 01 35 22 45 33 80 F8  FF FF 7F F8 FF FF 7F 73  ..5"E3.........s
2230: 30 36 30 01 80 6F 76 66  90 0E 01 27 10 66 90 0E  060..ovf...'.f..
2240: 01 3E 2B 66 90 0E 01 AD  80 2A 10 66 90 0E 01 4A  .>+f.....*.f...J
2250: 68 90 0E 01 F0 FF FF 7F  23 27 10 66 90 0E 01 1D  h.......#'.f....
2260: 2B 66 90 0E 01 AE 80 29  10 66 90 0E 01 1E 23 27  +f.....).f....#'
2270: 10 F0 FF FF 7F A0 2A 10  F0 FF FF 7F 5D 01 80 43  ......*.....]..C
2280: 80 1A 64 00 27 10 F0 FF  FF 7F A1 4A 68 90 0E 01  ..d.'......Jh...
2290: 66 90 0E 01 7B 68 90 0E  01 27 10 68 90 0E 01 01  f...{h...'.h....
22A0: 7B 66 90 0E 01 27 10 66  90 0E 01 11 29 10 66 90  {f...'.f....).f.
22B0: 0E 01 12 1C 38 80 48 42  80 1C 38 80 5C 00 7C 80  ....8.HB..8.\.|.
22C0: 5C 01 7C 80 9A 02 87 7F  32 80 80 DF 22 52 33 80  \.|.....2..."R3.
22D0: F8 FF FF 7F F8 FF FF 7F  73 67 36 30 01 56 23 02  ........sg60.V#.
22E0: 87 7F 34 80 80 F9 22 52  33 80 F8 FF FF 7F F8 FF  ..4..."R3.......
22F0: FF 7F 73 65 36 30 01 56  23 02 87 7F 30 80 80 13  ..se60.V#...0...
2300: 23 52 33 80 F8 FF FF 7F  F8 FF FF 7F 73 74 36 30  #R3.........st60
2310: 01 56 23 02 87 7F 31 80  80 2D 23 52 33 80 F8 FF  .V#...1..-#R3...
2320: FF 7F F8 FF FF 7F 73 74  36 30 01 56 23 02 87 7F  ......st60.V#...
2330: 35 80 80 47 23 52 33 80  F8 FF FF 7F F8 FF FF 7F  5..G#R3.........
2340: 73 67 36 30 01 56 23 52  33 80 F8 FF FF 7F F8 FF  sg60.V#R3.......
2350: FF 7F 73 30 36 30 45 33  80 F8 FF FF 7F F8 FF FF  ..s060E3........
2360: 7F 73 30 36 31 01 80 1A  43 00 1C 77 80 27 10 66  .s061...C..w.'.f
2370: 90 0E 01 13 79 00 66 90  0E 01 F0 FF FF 7F 52 33  ....y.f.......R3
2380: 80 F8 FF FF 7F F8 FF FF  7F 73 30 36 31 02 87 7F  .........s061...
2390: 32 80 80 A9 23 45 33 80  F8 FF FF 7F F8 FF FF 7F  2...#E3.........
23A0: 73 67 36 32 01 80 01 2A  24 02 87 7F 34 80 80 C5  sg62...*$...4...
23B0: 23 45 33 80 F8 FF FF 7F  F8 FF FF 7F 73 67 36 32  #E3.........sg62
23C0: 01 80 01 2A 24 02 87 7F  30 80 80 E1 23 45 33 80  ...*$...0...#E3.
23D0: F8 FF FF 7F F8 FF FF 7F  73 74 36 32 01 80 01 2A  ........st62...*
23E0: 24 02 87 7F 31 80 80 FD  23 45 33 80 F8 FF FF 7F  $...1...#E3.....
23F0: F8 FF FF 7F 73 74 36 32  01 80 01 2A 24 02 87 7F  ....st62...*$...
2400: 35 80 80 19 24 45 33 80  F8 FF FF 7F F8 FF FF 7F  5...$E3.........
2410: 73 67 36 32 01 80 01 2A  24 45 33 80 F8 FF FF 7F  sg62...*$E3.....
2420: F8 FF FF 7F 73 30 36 32  01 80 1C 06 80 27 10 68  ....s062.....'.h
2430: 90 0E 01 03 79 00 68 90  0E 01 F0 FF FF 7F 29 10  ....y.h.......).
2440: 66 90 0E 01 14 2B 66 90  0E 01 AF 80 1C 3A 80 23  f....+f......:.#
2450: 27 10 66 90 0E 01 3F 02  87 7F 32 80 80 71 24 52  '.f...?...2..q$R
2460: 33 80 F8 FF FF 7F F8 FF  FF 7F 73 67 36 32 01 E8  3.........sg62..
2470: 24 02 87 7F 34 80 80 8B  24 52 33 80 F8 FF FF 7F  $...4...$R3.....
2480: F8 FF FF 7F 73 67 36 32  01 E8 24 02 87 7F 30 80  ....sg62..$...0.
2490: 80 A5 24 52 33 80 F8 FF  FF 7F F8 FF FF 7F 73 74  ..$R3.........st
24A0: 36 32 01 E8 24 02 87 7F  31 80 80 BF 24 52 33 80  62..$...1...$R3.
24B0: F8 FF FF 7F F8 FF FF 7F  73 74 36 32 01 E8 24 02  ........st62..$.
24C0: 87 7F 35 80 80 D9 24 52  33 80 F8 FF FF 7F F8 FF  ..5...$R3.......
24D0: FF 7F 73 67 36 32 01 E8  24 52 33 80 F8 FF FF 7F  ..sg62..$R3.....
24E0: F8 FF FF 7F 73 30 36 32  45 33 80 F8 FF FF 7F F8  ....s062E3......
24F0: FF FF 7F 73 30 36 33 01  80 2B 66 90 0E 01 B0 80  ...s063..+f.....
2500: 2A 10 66 90 0E 01 4A 68  90 0E 01 66 90 0E 01 1C  *.f...Jh...f....
2510: 38 80 23 52 33 80 F8 FF  FF 7F F8 FF FF 7F 73 30  8.#R3.........s0
2520: 36 33 45 33 80 F8 FF FF  7F F8 FF FF 7F 73 30 36  63E3.........s06
2530: 34 01 80 2B 66 90 0E 01  B1 80 1C 3A 80 23 52 33  4..+f......:.#R3
2540: 80 F8 FF FF 7F F8 FF FF  7F 73 30 36 34 45 33 80  .........s064E3.
2550: F8 FF FF 7F F8 FF FF 7F  73 30 36 35 01 80 27 10  ........s065..'.
2560: 66 90 0E 01 11 2B 66 90  0E 01 B2 80 29 10 66 90  f....+f.....).f.
2570: 0E 01 12 23 52 33 80 F8  FF FF 7F F8 FF FF 7F 73  ...#R3.........s
2580: 30 36 35 45 33 80 F8 FF  FF 7F F8 FF FF 7F 73 30  065E3.........s0
2590: 36 36 01 80 27 10 66 90  0E 01 13 7B 68 90 0E 01  66..'.f....{h...
25A0: 2B 68 90 0E 01 B3 80 1C  89 80 23 52 33 80 F8 FF  +h........#R3...
25B0: FF 7F F8 FF FF 7F 73 30  36 36 45 33 80 F8 FF FF  ......s066E3....
25C0: 7F F8 FF FF 7F 73 30 36  37 01 80 27 10 68 90 0E  .....s067..'.h..
25D0: 01 01 2B 68 90 0E 01 B4  80 29 10 68 90 0E 01 02  ..+h.....).h....
25E0: 23 27 10 68 90 0E 01 03  4B 66 90 0E 01 B5 80 79  #'.h....Kf.....y
25F0: 00 68 90 0E 01 66 90 0E  01 52 33 80 F8 FF FF 7F  .h...f...R3.....
2600: F8 FF FF 7F 73 30 36 37  02 87 7F 32 80 80 24 26  ....s067...2..$&
2610: 45 33 80 F8 FF FF 7F F8  FF FF 7F 73 67 36 38 01  E3.........sg68.
2620: 80 01 A5 26 02 87 7F 34  80 80 40 26 45 33 80 F8  ...&...4..@&E3..
2630: FF FF 7F F8 FF FF 7F 73  67 36 38 01 80 01 A5 26  .......sg68....&
2640: 02 87 7F 30 80 80 5C 26  45 33 80 F8 FF FF 7F F8  ...0..\&E3......
2650: FF FF 7F 73 74 36 38 01  80 01 A5 26 02 87 7F 31  ...st68....&...1
2660: 80 80 78 26 45 33 80 F8  FF FF 7F F8 FF FF 7F 73  ..x&E3.........s
2670: 74 36 38 01 80 01 A5 26  02 87 7F 35 80 80 94 26  t68....&...5...&
2680: 45 33 80 F8 FF FF 7F F8  FF FF 7F 73 67 36 38 01  E3.........sg68.
2690: 80 01 A5 26 45 33 80 F8  FF FF 7F F8 FF FF 7F 73  ...&E3.........s
26A0: 30 36 38 01 80 2B 66 90  0E 01 B6 80 6F 76 66 90  068..+f.....ovf.
26B0: 0E 01 1C 89 80 23 7B 66  90 0E 01 27 10 66 90 0E  .....#{f...'.f..
26C0: 01 40 02 87 7F 32 80 80  DC 26 52 33 80 F8 FF FF  .@...2...&R3....
26D0: 7F F8 FF FF 7F 73 67 36  38 01 53 27 02 87 7F 34  .....sg68.S'...4
26E0: 80 80 F6 26 52 33 80 F8  FF FF 7F F8 FF FF 7F 73  ...&R3.........s
26F0: 67 36 38 01 53 27 02 87  7F 30 80 80 10 27 52 33  g68.S'...0...'R3
2700: 80 F8 FF FF 7F F8 FF FF  7F 73 74 36 38 01 53 27  .........st68.S'
2710: 02 87 7F 31 80 80 2A 27  52 33 80 F8 FF FF 7F F8  ...1..*'R3......
2720: FF FF 7F 73 74 36 38 01  53 27 02 87 7F 35 80 80  ...st68.S'...5..
2730: 44 27 52 33 80 F8 FF FF  7F F8 FF FF 7F 73 67 36  D'R3.........sg6
2740: 38 01 53 27 52 33 80 F8  FF FF 7F F8 FF FF 7F 73  8.S'R3.........s
2750: 30 36 38 45 33 80 F8 FF  FF 7F F8 FF FF 7F 73 30  068E3.........s0
2760: 36 39 01 80 2B 66 90 0E  01 B7 80 2A 10 66 90 0E  69..+f.....*.f..
2770: 01 23 52 33 80 F8 FF FF  7F F8 FF FF 7F 73 30 36  .#R3.........s06
2780: 39 02 87 7F 32 80 80 9D  27 45 33 80 F8 FF FF 7F  9...2...'E3.....
2790: F8 FF FF 7F 73 67 37 30  01 80 01 1E 28 02 87 7F  ....sg70....(...
27A0: 34 80 80 B9 27 45 33 80  F8 FF FF 7F F8 FF FF 7F  4...'E3.........
27B0: 73 67 37 30 01 80 01 1E  28 02 87 7F 30 80 80 D5  sg70....(...0...
27C0: 27 45 33 80 F8 FF FF 7F  F8 FF FF 7F 73 74 37 30  'E3.........st70
27D0: 01 80 01 1E 28 02 87 7F  31 80 80 F1 27 45 33 80  ....(...1...'E3.
27E0: F8 FF FF 7F F8 FF FF 7F  73 74 37 30 01 80 01 1E  ........st70....
27F0: 28 02 87 7F 35 80 80 0D  28 45 33 80 F8 FF FF 7F  (...5...(E3.....
2800: F8 FF FF 7F 73 67 37 30  01 80 01 1E 28 45 33 80  ....sg70....(E3.
2810: F8 FF FF 7F F8 FF FF 7F  73 30 37 30 01 80 27 10  ........s070..'.
2820: 66 90 0E 01 01 2B 66 90  0E 01 B8 80 23 2B 66 90  f....+f.....#+f.
2830: 0E 01 B9 80 29 10 66 90  0E 01 02 23 7B 66 90 0E  ....).f....#{f..
2840: 01 27 10 66 90 0E 01 11  02 87 7F 32 80 80 62 28  .'.f.......2..b(
2850: 52 33 80 F8 FF FF 7F F8  FF FF 7F 73 67 37 30 01  R3.........sg70.
2860: D9 28 02 87 7F 34 80 80  7C 28 52 33 80 F8 FF FF  .(...4..|(R3....
2870: 7F F8 FF FF 7F 73 67 37  30 01 D9 28 02 87 7F 30  .....sg70..(...0
2880: 80 80 96 28 52 33 80 F8  FF FF 7F F8 FF FF 7F 73  ...(R3.........s
2890: 74 37 30 01 D9 28 02 87  7F 31 80 80 B0 28 52 33  t70..(...1...(R3
28A0: 80 F8 FF FF 7F F8 FF FF  7F 73 74 37 30 01 D9 28  .........st70..(
28B0: 02 87 7F 35 80 80 CA 28  52 33 80 F8 FF FF 7F F8  ...5...(R3......
28C0: FF FF 7F 73 67 37 30 01  D9 28 52 33 80 F8 FF FF  ...sg70..(R3....
28D0: 7F F8 FF FF 7F 73 30 37  30 45 33 80 F8 FF FF 7F  .....s070E3.....
28E0: F8 FF FF 7F 73 30 37 31  01 80 2B 66 90 0E 01 BA  ....s071..+f....
28F0: 80 23 2B 66 90 0E 01 BB  80 29 10 66 90 0E 01 12  .#+f.....).f....
2900: 23 27 10 66 90 0E 01 13  2B 66 90 0E 01 BC 80 29  #'.f....+f.....)
2910: 10 66 90 0E 01 14 23 52  33 80 F8 FF FF 7F F8 FF  .f....#R3.......
2920: FF 7F 73 30 37 31 45 33  80 F8 FF FF 7F F8 FF FF  ..s071E3........
2930: 7F 73 30 37 32 01 80 27  10 68 90 0E 01 0D 2B 68  .s072..'.h....+h
2940: 90 0E 01 BD 80 29 10 68  90 0E 01 0E 23 27 10 68  .....).h....#'.h
2950: 90 0E 01 0F 4A 66 90 0E  01 68 90 0E 01 52 33 80  ....Jf...h...R3.
2960: F8 FF FF 7F F8 FF FF 7F  73 30 37 32 45 33 80 F8  ........s072E3..
2970: FF FF 7F F8 FF FF 7F 73  30 37 33 01 80 2B 66 90  .......s073..+f.
2980: 0E 01 BE 80 6F 76 66 90  0E 01 1C 3A 80 23 52 33  ....ovf....:.#R3
2990: 80 F8 FF FF 7F F8 FF FF  7F 73 30 37 33 45 33 80  .........s073E3.
29A0: F8 FF FF 7F F8 FF FF 7F  73 30 37 34 01 80 2B 66  ........s074..+f
29B0: 90 0E 01 BF 80 1C 3A 80  23 52 33 80 F8 FF FF 7F  ......:.#R3.....
29C0: F8 FF FF 7F 73 30 37 34  45 33 80 F8 FF FF 7F F8  ....s074E3......
29D0: FF FF 7F 73 30 37 35 01  80 27 10 66 90 0E 01 01  ...s075..'.f....
29E0: 2B 66 90 0E 01 C0 80 23  2B 66 90 0E 01 C1 80 29  +f.....#+f.....)
29F0: 10 66 90 0E 01 02 23 27  10 66 90 0E 01 03 52 33  .f....#'.f....R3
2A00: 80 F8 FF FF 7F F8 FF FF  7F 73 30 37 35 45 33 80  .........s075E3.
2A10: F8 FF FF 7F F8 FF FF 7F  73 30 37 36 01 80 27 10  ........s076..'.
2A20: 68 90 0E 01 01 2B 68 90  0E 01 C2 80 29 10 68 90  h....+h.....).h.
2A30: 0E 01 02 23 27 10 68 90  0E 01 03 2B 68 90 0E 01  ...#'.h....+h...
2A40: C3 80 29 10 68 90 0E 01  04 23 52 33 80 F8 FF FF  ..).h....#R3....
2A50: 7F F8 FF FF 7F 73 30 37  36 45 33 80 F8 FF FF 7F  .....s076E3.....
2A60: F8 FF FF 7F 73 30 37 37  01 80 2B 66 90 0E 01 C4  ....s077..+f....
2A70: 80 1C 89 80 23 52 33 80  F8 FF FF 7F F8 FF FF 7F  ....#R3.........
2A80: 73 30 37 37 45 33 80 F8  FF FF 7F F8 FF FF 7F 73  s077E3.........s
2A90: 30 37 38 01 80 27 10 68  90 0E 01 05 2B 68 90 0E  078..'.h....+h..
2AA0: 01 C5 80 29 10 68 90 0E  01 06 23 27 10 68 90 0E  ...).h....#'.h..
2AB0: 01 07 27 10 66 90 0E 01  01 2B 66 90 0E 01 C6 80  ..'.f....+f.....
2AC0: 29 10 66 90 0E 01 02 23  27 10 66 90 0E 01 03 52  ).f....#'.f....R
2AD0: 33 80 F8 FF FF 7F F8 FF  FF 7F 73 30 37 38 45 33  3.........s078E3
2AE0: 80 F8 FF FF 7F F8 FF FF  7F 73 30 37 39 01 80 6E  .........s079..n
2AF0: 68 90 0E 01 05 80 99 68  90 0E 01 2B 68 90 0E 01  h......h...+h...
2B00: C7 80 1C 4D 80 52 33 80  F8 FF FF 7F F8 FF FF 7F  ...M.R3.........
2B10: 73 30 37 39 02 87 7F 32  80 80 30 2B 45 33 80 F8  s079...2..0+E3..
2B20: FF FF 7F F8 FF FF 7F 73  67 38 30 01 80 01 79 2B  .......sg80...y+
2B30: 02 87 7F 34 80 80 4C 2B  45 33 80 F8 FF FF 7F F8  ...4..L+E3......
2B40: FF FF 7F 73 67 38 30 01  80 01 79 2B 02 87 7F 35  ...sg80...y+...5
2B50: 80 80 68 2B 45 33 80 F8  FF FF 7F F8 FF FF 7F 73  ..h+E3.........s
2B60: 67 38 30 01 80 01 79 2B  45 33 80 F8 FF FF 7F F8  g80...y+E3......
2B70: FF FF 7F 73 30 38 30 01  80 27 10 66 90 0E 01 09  ...s080..'.f....
2B80: 2B 66 90 0E 01 C8 80 23  2B 66 90 0E 01 C9 80 29  +f.....#+f.....)
2B90: 10 66 90 0E 01 0A 23 27  10 66 90 0E 01 0B 29 10  .f....#'.f....).
2BA0: 66 90 0E 01 0C 1C 06 80  4A 66 90 0E 01 F0 FF FF  f.......Jf......
2BB0: 7F 02 87 7F 32 80 80 DC  2B 52 33 80 F8 FF FF 7F  ....2...+R3.....
2BC0: F8 FF FF 7F 73 67 38 30  45 33 80 F8 FF FF 7F F8  ....sg80E3......
2BD0: FF FF 7F 73 67 38 31 01  80 01 A8 2C 02 87 7F 34  ...sg81....,...4
2BE0: 80 80 07 2C 52 33 80 F8  FF FF 7F F8 FF FF 7F 73  ...,R3.........s
2BF0: 67 38 30 45 33 80 F8 FF  FF 7F F8 FF FF 7F 73 67  g80E3.........sg
2C00: 38 31 01 80 01 A8 2C 02  87 7F 30 80 80 32 2C 52  81....,...0..2,R
2C10: 33 80 F8 FF FF 7F F8 FF  FF 7F 73 74 38 30 45 33  3.........st80E3
2C20: 80 F8 FF FF 7F F8 FF FF  7F 73 74 38 31 01 80 01  .........st81...
2C30: A8 2C 02 87 7F 31 80 80  5D 2C 52 33 80 F8 FF FF  .,...1..],R3....
2C40: 7F F8 FF FF 7F 73 74 38  30 45 33 80 F8 FF FF 7F  .....st80E3.....
2C50: F8 FF FF 7F 73 74 38 31  01 80 01 A8 2C 02 87 7F  ....st81....,...
2C60: 35 80 80 88 2C 52 33 80  F8 FF FF 7F F8 FF FF 7F  5...,R3.........
2C70: 73 67 38 30 45 33 80 F8  FF FF 7F F8 FF FF 7F 73  sg80E3.........s
2C80: 67 38 31 01 80 01 A8 2C  52 33 80 F8 FF FF 7F F8  g81....,R3......
2C90: FF FF 7F 73 30 38 30 45  33 80 F8 FF FF 7F F8 FF  ...s080E3.......
2CA0: FF 7F 73 30 38 31 01 80  6F 76 66 90 0E 01 1C 06  ..s081..ovf.....
2CB0: 80 2B 66 90 0E 01 CA 80  1C 3A 80 23 6E F0 FF FF  .+f......:.#n...
2CC0: 7F CB 80 99 F0 FF FF 7F  1C 3A 80 4A 66 90 0E 01  .........:.Jf...
2CD0: 68 90 0E 01 02 87 7F 32  80 80 EE 2C 52 33 80 F8  h......2...,R3..
2CE0: FF FF 7F F8 FF FF 7F 73  67 38 31 01 65 2D 02 87  .......sg81.e-..
2CF0: 7F 34 80 80 08 2D 52 33  80 F8 FF FF 7F F8 FF FF  .4...-R3........
2D00: 7F 73 67 38 31 01 65 2D  02 87 7F 30 80 80 22 2D  .sg81.e-...0.."-
2D10: 52 33 80 F8 FF FF 7F F8  FF FF 7F 73 74 38 31 01  R3.........st81.
2D20: 65 2D 02 87 7F 31 80 80  3C 2D 52 33 80 F8 FF FF  e-...1..<-R3....
2D30: 7F F8 FF FF 7F 73 74 38  31 01 65 2D 02 87 7F 35  .....st81.e-...5
2D40: 80 80 56 2D 52 33 80 F8  FF FF 7F F8 FF FF 7F 73  ..V-R3.........s
2D50: 67 38 31 01 65 2D 52 33  80 F8 FF FF 7F F8 FF FF  g81.e-R3........
2D60: 7F 73 30 38 31 45 33 80  F8 FF FF 7F F8 FF FF 7F  .s081E3.........
2D70: 73 30 38 32 01 80 6F 76  66 90 0E 01 2B 66 90 0E  s082..ovf...+f..
2D80: 01 CC 80 1C 06 80 27 10  66 90 0E 01 01 29 10 66  ......'.f....).f
2D90: 90 0E 01 02 23 27 10 66  90 0E 01 03 52 33 80 F8  ....#'.f....R3..
2DA0: FF FF 7F F8 FF FF 7F 73  30 38 32 45 33 80 F8 FF  .......s082E3...
2DB0: FF 7F F8 FF FF 7F 73 30  38 33 01 80 6E 68 90 0E  ......s083..nh..
2DC0: 01 05 80 99 68 90 0E 01  2B 68 90 0E 01 CD 80 1C  ....h...+h......
2DD0: 4D 80 23 4A 66 90 0E 01  F0 FF FF 7F 52 33 80 F8  M.#Jf.......R3..
2DE0: FF FF 7F F8 FF FF 7F 73  30 38 33 02 87 7F 32 80  .......s083...2.
2DF0: 80 07 2E 45 33 80 F8 FF  FF 7F F8 FF FF 7F 73 67  ...E3.........sg
2E00: 38 34 01 80 01 88 2E 02  87 7F 34 80 80 23 2E 45  84........4..#.E
2E10: 33 80 F8 FF FF 7F F8 FF  FF 7F 73 67 38 34 01 80  3.........sg84..
2E20: 01 88 2E 02 87 7F 30 80  80 3F 2E 45 33 80 F8 FF  ......0..?.E3...
2E30: FF 7F F8 FF FF 7F 73 74  38 34 01 80 01 88 2E 02  ......st84......
2E40: 87 7F 31 80 80 5B 2E 45  33 80 F8 FF FF 7F F8 FF  ..1..[.E3.......
2E50: FF 7F 73 74 38 34 01 80  01 88 2E 02 87 7F 35 80  ..st84........5.
2E60: 80 77 2E 45 33 80 F8 FF  FF 7F F8 FF FF 7F 73 67  .w.E3.........sg
2E70: 38 34 01 80 01 88 2E 45  33 80 F8 FF FF 7F F8 FF  84.....E3.......
2E80: FF 7F 73 30 38 34 01 80  6F 76 66 90 0E 01 27 10  ..s084..ovf...'.
2E90: 66 90 0E 01 41 27 10 70  90 0E 01 06 2B 66 90 0E  f...A'.p....+f..
2EA0: 01 CE 80 2A 10 66 90 0E  01 1C 38 80 23 4A 68 90  ...*.f....8.#Jh.
2EB0: 0E 01 F0 FF FF 7F 7B 68  90 0E 01 02 87 7F 32 80  ......{h......2.
2EC0: 80 E6 2E 52 33 80 F8 FF  FF 7F F8 FF FF 7F 73 67  ...R3.........sg
2ED0: 38 34 45 33 80 F8 FF FF  7F F8 FF FF 7F 73 67 38  84E3.........sg8
2EE0: 35 01 80 01 B2 2F 02 87  7F 34 80 80 11 2F 52 33  5..../...4.../R3
2EF0: 80 F8 FF FF 7F F8 FF FF  7F 73 67 38 34 45 33 80  .........sg84E3.
2F00: F8 FF FF 7F F8 FF FF 7F  73 67 38 35 01 80 01 B2  ........sg85....
2F10: 2F 02 87 7F 30 80 80 3C  2F 52 33 80 F8 FF FF 7F  /...0..</R3.....
2F20: F8 FF FF 7F 73 74 38 34  45 33 80 F8 FF FF 7F F8  ....st84E3......
2F30: FF FF 7F 73 74 38 35 01  80 01 B2 2F 02 87 7F 31  ...st85..../...1
2F40: 80 80 67 2F 52 33 80 F8  FF FF 7F F8 FF FF 7F 73  ..g/R3.........s
2F50: 74 38 34 45 33 80 F8 FF  FF 7F F8 FF FF 7F 73 74  t84E3.........st
2F60: 38 35 01 80 01 B2 2F 02  87 7F 35 80 80 92 2F 52  85..../...5.../R
2F70: 33 80 F8 FF FF 7F F8 FF  FF 7F 73 67 38 34 45 33  3.........sg84E3
2F80: 80 F8 FF FF 7F F8 FF FF  7F 73 67 38 35 01 80 01  .........sg85...
2F90: B2 2F 52 33 80 F8 FF FF  7F F8 FF FF 7F 73 30 38  ./R3.........s08
2FA0: 34 45 33 80 F8 FF FF 7F  F8 FF FF 7F 73 30 38 35  4E3.........s085
2FB0: 01 80 2B 66 90 0E 01 CF  80 23 27 10 66 90 0E 01  ..+f.....#'.f...
2FC0: 15 2B 66 90 0E 01 D0 80  29 10 66 90 0E 01 16 23  .+f.....).f....#
2FD0: 1C 06 80 6E F0 FF FF 7F  CB 80 99 F0 FF FF 7F 1C  ...n............
2FE0: 4D 80 7B F0 FF FF 7F 27  10 F0 FF FF 7F A8 27 10  M.{....'......'.
2FF0: 70 90 0E 01 07 4A 66 90  0E 01 F0 FF FF 7F 7B 66  p....Jf.......{f
3000: 90 0E 01 4A 68 90 0E 01  F0 FF FF 7F 7B 68 90 0E  ...Jh.......{h..
3010: 01 02 87 7F 32 80 80 2B  30 52 33 80 F8 FF FF 7F  ....2..+0R3.....
3020: F8 FF FF 7F 73 67 38 35  01 A2 30 02 87 7F 34 80  ....sg85..0...4.
3030: 80 45 30 52 33 80 F8 FF  FF 7F F8 FF FF 7F 73 67  .E0R3.........sg
3040: 38 35 01 A2 30 02 87 7F  30 80 80 5F 30 52 33 80  85..0...0.._0R3.
3050: F8 FF FF 7F F8 FF FF 7F  73 74 38 35 01 A2 30 02  ........st85..0.
3060: 87 7F 31 80 80 79 30 52  33 80 F8 FF FF 7F F8 FF  ..1..y0R3.......
3070: FF 7F 73 74 38 35 01 A2  30 02 87 7F 35 80 80 93  ..st85..0...5...
3080: 30 52 33 80 F8 FF FF 7F  F8 FF FF 7F 73 67 38 35  0R3.........sg85
3090: 01 A2 30 52 33 80 F8 FF  FF 7F F8 FF FF 7F 73 30  ..0R3.........s0
30A0: 38 35 45 33 80 F8 FF FF  7F F8 FF FF 7F 73 30 38  85E3.........s08
30B0: 36 01 80 1C 89 80 5D 01  80 43 80 1A 64 00 52 33  6.....]..C..d.R3
30C0: 80 F8 FF FF 7F F8 FF FF  7F 73 30 38 36 7A 00 F0  .........s086z..
30D0: FF FF 7F 7A 00 70 90 0E  01 5C 00 D1 80 5C 01 D1  ...z.p...\...\..
30E0: 80 9A 5D 3B 80 03 80 1C  75 80 AB 11 01 80 1C 03  ..];....u.......
30F0: 80 46 00 45 00 80 F8 FF  FF 7F F8 FF FF 7F 66 64  .F.E..........fd
3100: 69 32 01 80 21 00                                 i2..!.          
```

#### Opcodes

```
  0: 0x0292 [0x42] SET_CLI_EVENT_CANCEL_DATA()
  1: 0x0293 [0x1A] CALL_SUBROUTINE(address=0x0064)
  2: 0x0296 [0x46] CAMERA_CONTROL: Disable user control
  3: 0x0298 [0x38] SET_CLIENT_EVENT_MODE(mode=147*)
  4: 0x029B [0x2F] Trion (ID: 17731686/0x010E9066)->Render.Flags0 &= ~0x80000 // Bit 19
  5: 0x02A1 [0x2F] Excenmille (ID: 17731688/0x010E9068)->Render.Flags0 &= ~0x80000 // Bit 19
  6: 0x02A7 [0x2F] Gloom Phantom (ID: 17731690/0x010E906A)->Render.Flags0 &= ~0x80000 // Bit 19
  7: 0x02AD [0x2F] Magh Bihu (ID: 17731691/0x010E906B)->Render.Flags0 &= ~0x80000 // Bit 19
  8: 0x02B3 [0x2F] Dazbog (ID: 17731692/0x010E906C)->Render.Flags0 &= ~0x80000 // Bit 19
  9: 0x02B9 [0x2F] Slackjawed Mukdrom (ID: 17731693/0x010E906D)->Render.Flags0 &= ~0x80000 // Bit 19
 10: 0x02BF [0x2F] Uran-Mafran (ID: 17731694/0x010E906E)->Render.Flags0 &= ~0x80000 // Bit 19
 11: 0x02C5 [0x2F] Memorian (ID: 17731696/0x010E9070)->Render.Flags0 &= ~0x80000 // Bit 19
 12: 0x02CB [0x2F] Talking Doll (ID: 17731697/0x010E9071)->Render.Flags0 &= ~0x80000 // Bit 19
 13: 0x02D1 [0x2F] Unnamed NPC (ID: 17731698/0x010E9072)->Render.Flags0 &= ~0x80000 // Bit 19
 14: 0x02D7 [0x4E] SET_ENTITY_HIDE_FLAG: Show Trion (ID: 17731686/0x010E9066)
 15: 0x02DD [0x4E] SET_ENTITY_HIDE_FLAG: Show Excenmille (ID: 17731688/0x010E9068)
 16: 0x02E3 [0x4E] SET_ENTITY_HIDE_FLAG: Show Gloom Phantom (ID: 17731690/0x010E906A)
 17: 0x02E9 [0x4E] SET_ENTITY_HIDE_FLAG: Show Magh Bihu (ID: 17731691/0x010E906B)
 18: 0x02EF [0x4E] SET_ENTITY_HIDE_FLAG: Show Dazbog (ID: 17731692/0x010E906C)
 19: 0x02F5 [0x4E] SET_ENTITY_HIDE_FLAG: Show Slackjawed Mukdrom (ID: 17731693/0x010E906D)
 20: 0x02FB [0x4E] SET_ENTITY_HIDE_FLAG: Show Uran-Mafran (ID: 17731694/0x010E906E)
 21: 0x0301 [0x4E] SET_ENTITY_HIDE_FLAG: Show Memorian (ID: 17731696/0x010E9070)
 22: 0x0307 [0x4E] SET_ENTITY_HIDE_FLAG: Show Talking Doll (ID: 17731697/0x010E9071)
 23: 0x030D [0x4E] SET_ENTITY_HIDE_FLAG: Show Unnamed NPC (ID: 17731698/0x010E9072)
 24: 0x0313 [0x92] Halver (ID: 17731591/0x010E9007)->Render.Flags3 ^= 0x01
 25: 0x0319 [0x92] Faurie (ID: 17731601/0x010E9011)->Render.Flags3 ^= 0x01
 26: 0x031F [0x92] Ferdechiond (ID: 17731602/0x010E9012)->Render.Flags3 ^= 0x01
 27: 0x0325 [0x92] Chaphoire (ID: 17731603/0x010E9013)->Render.Flags3 ^= 0x01
 28: 0x032B [0x92] Arsha (ID: 17731604/0x010E9014)->Render.Flags3 ^= 0x01
 29: 0x0331 [0x92] Chupaile (ID: 17731605/0x010E9015)->Render.Flags3 ^= 0x01
 30: 0x0337 [0x92] Perfaumand (ID: 17731611/0x010E901B)->Render.Flags3 ^= 0x01
 31: 0x033D [0x94] Halver (ID: 17731591/0x010E9007)->Render.Flags3 ^= 0x01
 32: 0x0343 [0x94] Trion (ID: 17731686/0x010E9066)->Render.Flags3 ^= 0x01
 33: 0x0349 [0x94] Excenmille (ID: 17731688/0x010E9068)->Render.Flags3 ^= 0x01
 34: 0x034F [0x94] Gloom Phantom (ID: 17731690/0x010E906A)->Render.Flags3 ^= 0x01
 35: 0x0355 [0x94] Magh Bihu (ID: 17731691/0x010E906B)->Render.Flags3 ^= 0x01
 36: 0x035B [0x94] Dazbog (ID: 17731692/0x010E906C)->Render.Flags3 ^= 0x01
 37: 0x0361 [0x94] Slackjawed Mukdrom (ID: 17731693/0x010E906D)->Render.Flags3 ^= 0x01
 38: 0x0367 [0x94] Uran-Mafran (ID: 17731694/0x010E906E)->Render.Flags3 ^= 0x01
 39: 0x036D [0x94] Memorian (ID: 17731696/0x010E9070)->Render.Flags3 ^= 0x01
 40: 0x0373 [0x94] Talking Doll (ID: 17731697/0x010E9071)->Render.Flags3 ^= 0x01
 41: 0x0379 [0x94] Unnamed NPC (ID: 17731698/0x010E9072)->Render.Flags3 ^= 0x01
 42: 0x037F [0x94] Faurie (ID: 17731601/0x010E9011)->Render.Flags3 ^= 0x01
 43: 0x0385 [0x94] Ferdechiond (ID: 17731602/0x010E9012)->Render.Flags3 ^= 0x01
 44: 0x038B [0x94] Chaphoire (ID: 17731603/0x010E9013)->Render.Flags3 ^= 0x01
 45: 0x0391 [0x94] Arsha (ID: 17731604/0x010E9014)->Render.Flags3 ^= 0x01
 46: 0x0397 [0x94] Chupaile (ID: 17731605/0x010E9015)->Render.Flags3 ^= 0x01
 47: 0x039D [0x94] Perfaumand (ID: 17731611/0x010E901B)->Render.Flags3 ^= 0x01
 48: 0x03A3 [0x94] LocalPlayer->Render.Flags3 ^= 0x01
 49: 0x03A9 [0x6C] FADE_ENTITY_COLOR(entity_id=Gloom Phantom (ID: 17731690/0x010E906A), end_alpha=0*, fade_time=1*)
 50: 0x03B2 [0x6C] FADE_ENTITY_COLOR(entity_id=Magh Bihu (ID: 17731691/0x010E906B), end_alpha=0*, fade_time=1*)
 51: 0x03BB [0x6C] FADE_ENTITY_COLOR(entity_id=Dazbog (ID: 17731692/0x010E906C), end_alpha=0*, fade_time=1*)
 52: 0x03C4 [0x6C] FADE_ENTITY_COLOR(entity_id=Slackjawed Mukdrom (ID: 17731693/0x010E906D), end_alpha=0*, fade_time=1*)
 53: 0x03CD [0x6C] FADE_ENTITY_COLOR(entity_id=Uran-Mafran (ID: 17731694/0x010E906E), end_alpha=0*, fade_time=1*)
 54: 0x03D6 [0x6C] FADE_ENTITY_COLOR(entity_id=Memorian (ID: 17731696/0x010E9070), end_alpha=0*, fade_time=1*)
 55: 0x03DF [0x6C] FADE_ENTITY_COLOR(entity_id=Talking Doll (ID: 17731697/0x010E9071), end_alpha=0*, fade_time=1*)
 56: 0x03E8 [0x6C] FADE_ENTITY_COLOR(entity_id=Unnamed NPC (ID: 17731698/0x010E9072), end_alpha=0*, fade_time=1*)
 57: 0x03F1 [0xBA] SET_ENTITY_POSITION(entity_id=Halver (ID: 17731591/0x010E9007), pos_x=2.420*, pos_z=1.966*, pos_y=0.000*, direction=103.0*)
 58: 0x03FE [0xBA] SET_ENTITY_POSITION(entity_id=Trion (ID: 17731686/0x010E9066), pos_x=-38.000*, pos_z=88.306*, pos_y=-3.749*, direction=90.0*)
 59: 0x040B [0xBA] SET_ENTITY_POSITION(entity_id=Excenmille (ID: 17731688/0x010E9068), pos_x=-36.509*, pos_z=87.418*, pos_y=-3.750*, direction=193.3*)
 60: 0x0418 [0xBA] SET_ENTITY_POSITION(entity_id=Memorian (ID: 17731696/0x010E9070), pos_x=-38.038*, pos_z=84.711*, pos_y=-3.750*, direction=279.7*)
 61: 0x0425 [0xBA] SET_ENTITY_POSITION(entity_id=LocalPlayer, pos_x=2.124*, pos_z=-0.327*, pos_y=0.000*, direction=280.8*)
 62: 0x0432 [0xBA] SET_ENTITY_POSITION(entity_id=Gloom Phantom (ID: 17731690/0x010E906A), pos_x=241.940*, pos_z=235.892*, pos_y=0.000*, direction=270.5*)
 63: 0x043F [0xBA] SET_ENTITY_POSITION(entity_id=Magh Bihu (ID: 17731691/0x010E906B), pos_x=240.967*, pos_z=234.023*, pos_y=0.097*, direction=272.5*)
 64: 0x044C [0xBA] SET_ENTITY_POSITION(entity_id=Dazbog (ID: 17731692/0x010E906C), pos_x=242.819*, pos_z=233.021*, pos_y=0.147*, direction=274.6*)
 65: 0x0459 [0xBA] SET_ENTITY_POSITION(entity_id=Slackjawed Mukdrom (ID: 17731693/0x010E906D), pos_x=237.505*, pos_z=246.374*, pos_y=0.000*, direction=276.8*)
 66: 0x0466 [0xBA] SET_ENTITY_POSITION(entity_id=Uran-Mafran (ID: 17731694/0x010E906E), pos_x=246.678*, pos_z=241.271*, pos_y=0.132*, direction=209.4*)
 67: 0x0473 [0xBA] SET_ENTITY_POSITION(entity_id=Talking Doll (ID: 17731697/0x010E9071), pos_x=239.376*, pos_z=243.931*, pos_y=0.000*, direction=26.2*)
 68: 0x0480 [0xBA] SET_ENTITY_POSITION(entity_id=Unnamed NPC (ID: 17731698/0x010E9072), pos_x=236.448*, pos_z=245.075*, pos_y=0.200*, direction=0.0*)
 69: 0x048D [0x80] LOAD_WAIT(entity=Halver (ID: 17731591/0x010E9007))
 70: 0x0492 [0x80] LOAD_WAIT(entity=Trion (ID: 17731686/0x010E9066))
 71: 0x0497 [0x80] LOAD_WAIT(entity=Excenmille (ID: 17731688/0x010E9068))
 72: 0x049C [0x80] LOAD_WAIT(entity=Gloom Phantom (ID: 17731690/0x010E906A))
 73: 0x04A1 [0x80] LOAD_WAIT(entity=Magh Bihu (ID: 17731691/0x010E906B))
 74: 0x04A6 [0x80] LOAD_WAIT(entity=Dazbog (ID: 17731692/0x010E906C))
 75: 0x04AB [0x80] LOAD_WAIT(entity=Slackjawed Mukdrom (ID: 17731693/0x010E906D))
 76: 0x04B0 [0x80] LOAD_WAIT(entity=Uran-Mafran (ID: 17731694/0x010E906E))
 77: 0x04B5 [0x80] LOAD_WAIT(entity=Memorian (ID: 17731696/0x010E9070))
 78: 0x04BA [0x80] LOAD_WAIT(entity=Talking Doll (ID: 17731697/0x010E9071))
 79: 0x04BF [0x80] LOAD_WAIT(entity=Unnamed NPC (ID: 17731698/0x010E9072))
 80: 0x04C4 [0x80] LOAD_WAIT(entity=Faurie (ID: 17731601/0x010E9011))
 81: 0x04C9 [0x80] LOAD_WAIT(entity=Ferdechiond (ID: 17731602/0x010E9012))
 82: 0x04CE [0x80] LOAD_WAIT(entity=Chaphoire (ID: 17731603/0x010E9013))
 83: 0x04D3 [0x80] LOAD_WAIT(entity=Arsha (ID: 17731604/0x010E9014))
 84: 0x04D8 [0x80] LOAD_WAIT(entity=Chupaile (ID: 17731605/0x010E9015))
 85: 0x04DD [0x80] LOAD_WAIT(entity=Perfaumand (ID: 17731611/0x010E901B))
 86: 0x04E2 [0x80] LOAD_WAIT(entity=LocalPlayer)
 87: 0x04E7 [0x4A] Trion (ID: 17731686/0x010E9066) looks at Excenmille (ID: 17731688/0x010E9068)
 88: 0x04F0 [0x4A] Excenmille (ID: 17731688/0x010E9068) looks at Trion (ID: 17731686/0x010E9066)
 89: 0x04F9 [0x02] IF !(LocalPlayer->Race == 5*) GOTO 0x0512
 90: 0x0501 [0x02] IF !(LocalPlayer->Race == 6*) GOTO 0x0512
 91: 0x0509 [0x4A] LocalPlayer looks at Halver (ID: 17731591/0x010E9007)
 92: 0x0512 [0x4A] Halver (ID: 17731591/0x010E9007) looks at LocalPlayer
 93: 0x051B [0x6F] WAIT_FRAME_DELAY: Yield until WaitTime reaches zero
 94: 0x051C [0x76] CHECK_ENTITY_RENDER_FLAGS: Wait until Halver (ID: 17731591/0x010E9007) Render.Flags0 and Render.Flags3 conditions are met
 95: 0x0521 [0x02] IF !(LocalPlayer->Race == 3*) GOTO 0x053D
 96: 0x0529 [0x45] LOAD_SCHEDULED_TASK: Load scheduler "sg00" with entities [EventEntity, EventEntity], work=[869*, 0*]
 97: 0x053A [0x01] GOTO 0x05BE
 98: 0x053D [0x02] IF !(LocalPlayer->Race == 4*) GOTO 0x0559
 99: 0x0545 [0x45] LOAD_SCHEDULED_TASK: Load scheduler "sg00" with entities [EventEntity, EventEntity], work=[869*, 0*]
100: 0x0556 [0x01] GOTO 0x05BE
101: 0x0559 [0x02] IF !(LocalPlayer->Race == 5*) GOTO 0x0575
102: 0x0561 [0x45] LOAD_SCHEDULED_TASK: Load scheduler "st00" with entities [EventEntity, EventEntity], work=[869*, 0*]
103: 0x0572 [0x01] GOTO 0x05BE
104: 0x0575 [0x02] IF !(LocalPlayer->Race == 6*) GOTO 0x0591
105: 0x057D [0x45] LOAD_SCHEDULED_TASK: Load scheduler "st00" with entities [EventEntity, EventEntity], work=[869*, 0*]
106: 0x058E [0x01] GOTO 0x05BE
107: 0x0591 [0x02] IF !(LocalPlayer->Race == 8*) GOTO 0x05AD
108: 0x0599 [0x45] LOAD_SCHEDULED_TASK: Load scheduler "sg00" with entities [EventEntity, EventEntity], work=[869*, 0*]
109: 0x05AA [0x01] GOTO 0x05BE
110: 0x05AD [0x45] LOAD_SCHEDULED_TASK: Load scheduler "s000" with entities [EventEntity, EventEntity], work=[869*, 0*]

SUBROUTINE_05BE:
111: 0x05BE [0x1A] CALL_SUBROUTINE(address=0x0043)
112: 0x05C1 [0x27] REQ_SET(priority=0x10, entity_id=Halver (ID: 17731591/0x010E9007), tag_num=0x4E)
113: 0x05C8 [0x2B] Halver (ID: 17731591/0x010E9007) [9112*]:
     "Greetings, <Player>."
114: 0x05CF [0x29] REQ_SET_WAIT(priority=0x10, entity_id=Halver (ID: 17731591/0x010E9007), tag_num=0x4F)
115: 0x05D6 [0x23] WAIT_FOR_DIALOG_INTERACTION
116: 0x05D7 [0x27] REQ_SET(priority=0x08, entity_id=Halver (ID: 17731591/0x010E9007), tag_num=0x50)
117: 0x05DE [0x27] REQ_SET(priority=0x10, entity_id=LocalPlayer, tag_num=0xA0)
118: 0x05E5 [0x2A] GET_REQ_LEVEL(level=16, entity_id=LocalPlayer)
119: 0x05EB [0x27] REQ_SET(priority=0x10, entity_id=LocalPlayer, tag_num=0xA1)
120: 0x05F2 [0x02] IF !(LocalPlayer->Race == 3*) GOTO 0x061D
121: 0x05FA [0x52] END_LOAD_SCHEDULER: End scheduler "sg00" with entities [EventEntity, EventEntity], work=869*
122: 0x0609 [0x45] LOAD_SCHEDULED_TASK: Load scheduler "sg01" with entities [EventEntity, EventEntity], work=[869*, 0*]
123: 0x061A [0x01] GOTO 0x06E9
124: 0x061D [0x02] IF !(LocalPlayer->Race == 4*) GOTO 0x0648
125: 0x0625 [0x52] END_LOAD_SCHEDULER: End scheduler "sg00" with entities [EventEntity, EventEntity], work=869*
126: 0x0634 [0x45] LOAD_SCHEDULED_TASK: Load scheduler "sg01" with entities [EventEntity, EventEntity], work=[869*, 0*]
127: 0x0645 [0x01] GOTO 0x06E9
128: 0x0648 [0x02] IF !(LocalPlayer->Race == 5*) GOTO 0x0673
129: 0x0650 [0x52] END_LOAD_SCHEDULER: End scheduler "st00" with entities [EventEntity, EventEntity], work=869*
130: 0x065F [0x45] LOAD_SCHEDULED_TASK: Load scheduler "st01" with entities [EventEntity, EventEntity], work=[869*, 0*]
131: 0x0670 [0x01] GOTO 0x06E9
132: 0x0673 [0x02] IF !(LocalPlayer->Race == 6*) GOTO 0x069E
133: 0x067B [0x52] END_LOAD_SCHEDULER: End scheduler "st00" with entities [EventEntity, EventEntity], work=869*
134: 0x068A [0x45] LOAD_SCHEDULED_TASK: Load scheduler "st01" with entities [EventEntity, EventEntity], work=[869*, 0*]
135: 0x069B [0x01] GOTO 0x06E9
136: 0x069E [0x02] IF !(LocalPlayer->Race == 8*) GOTO 0x06C9
137: 0x06A6 [0x52] END_LOAD_SCHEDULER: End scheduler "sg00" with entities [EventEntity, EventEntity], work=869*
138: 0x06B5 [0x45] LOAD_SCHEDULED_TASK: Load scheduler "sg01" with entities [EventEntity, EventEntity], work=[869*, 0*]
139: 0x06C6 [0x01] GOTO 0x06E9
140: 0x06C9 [0x52] END_LOAD_SCHEDULER: End scheduler "s000" with entities [EventEntity, EventEntity], work=869*
141: 0x06D8 [0x45] LOAD_SCHEDULED_TASK: Load scheduler "s001" with entities [EventEntity, EventEntity], work=[869*, 0*]

SUBROUTINE_06E9:
142: 0x06E9 [0x7B] Halver (ID: 17731591/0x010E9007) stops talking
143: 0x06EE [0x27] REQ_SET(priority=0x10, entity_id=Halver (ID: 17731591/0x010E9007), tag_num=0x42)
144: 0x06F5 [0x2B] Halver (ID: 17731591/0x010E9007) [9113*]:
     "Hmm... So you have a report for Prince Trion? And you say it is in regards to the World Eater Egg?"
145: 0x06FC [0x29] REQ_SET_WAIT(priority=0x10, entity_id=Halver (ID: 17731591/0x010E9007), tag_num=0x43)
146: 0x0703 [0x23] WAIT_FOR_DIALOG_INTERACTION
147: 0x0704 [0x27] REQ_SET(priority=0x10, entity_id=Halver (ID: 17731591/0x010E9007), tag_num=0x44)
148: 0x070B [0x5D] SET_MUSIC_VOLUME(volume=0*, fade_time=60*)
149: 0x0710 [0x02] IF !(LocalPlayer->Race == 3*) GOTO 0x072A
150: 0x0718 [0x52] END_LOAD_SCHEDULER: End scheduler "sg01" with entities [EventEntity, EventEntity], work=869*
151: 0x0727 [0x01] GOTO 0x07A1
152: 0x072A [0x02] IF !(LocalPlayer->Race == 4*) GOTO 0x0744
153: 0x0732 [0x52] END_LOAD_SCHEDULER: End scheduler "sg01" with entities [EventEntity, EventEntity], work=869*
154: 0x0741 [0x01] GOTO 0x07A1
155: 0x0744 [0x02] IF !(LocalPlayer->Race == 5*) GOTO 0x075E
156: 0x074C [0x52] END_LOAD_SCHEDULER: End scheduler "st01" with entities [EventEntity, EventEntity], work=869*
157: 0x075B [0x01] GOTO 0x07A1
158: 0x075E [0x02] IF !(LocalPlayer->Race == 6*) GOTO 0x0778
159: 0x0766 [0x52] END_LOAD_SCHEDULER: End scheduler "st01" with entities [EventEntity, EventEntity], work=869*
160: 0x0775 [0x01] GOTO 0x07A1
161: 0x0778 [0x02] IF !(LocalPlayer->Race == 8*) GOTO 0x0792
162: 0x0780 [0x52] END_LOAD_SCHEDULER: End scheduler "sg01" with entities [EventEntity, EventEntity], work=869*
163: 0x078F [0x01] GOTO 0x07A1
164: 0x0792 [0x52] END_LOAD_SCHEDULER: End scheduler "s001" with entities [EventEntity, EventEntity], work=869*

SUBROUTINE_07A1:
165: 0x07A1 [0x45] LOAD_SCHEDULED_TASK: Load scheduler "blon" with entities [EventEntity, EventEntity], work=[869*, 0*]
166: 0x07B2 [0x45] LOAD_SCHEDULED_TASK: Load scheduler "6121" with entities [EventEntity, EventEntity], work=[200*, 0*]
167: 0x07C3 [0x45] LOAD_SCHEDULED_TASK: Load scheduler "s002" with entities [EventEntity, EventEntity], work=[869*, 0*]
168: 0x07D4 [0x7B] LocalPlayer stops talking
169: 0x07D9 [0x2B] Halver (ID: 17731591/0x010E9007) [9114*]:
     "Shh! Keep your voice down. I have been told to keep such matters secret. Very well, hurry along to Prince Trion."
170: 0x07E0 [0x1C] WAIT(120* ticks)
171: 0x07E3 [0x23] WAIT_FOR_DIALOG_INTERACTION
172: 0x07E4 [0x5D] SET_MUSIC_VOLUME(volume=127*, fade_time=120*)
173: 0x07E9 [0x52] END_LOAD_SCHEDULER: End scheduler "s002" with entities [EventEntity, EventEntity], work=869*
174: 0x07F8 [0x45] LOAD_SCHEDULED_TASK: Load scheduler "blof" with entities [EventEntity, EventEntity], work=[869*, 0*]
175: 0x0809 [0x45] LOAD_SCHEDULED_TASK: Load scheduler "s003" with entities [EventEntity, EventEntity], work=[869*, 0*]
176: 0x081A [0x7B] Halver (ID: 17731591/0x010E9007) stops talking
177: 0x081F [0x27] REQ_SET(priority=0x10, entity_id=Halver (ID: 17731591/0x010E9007), tag_num=0x75)
178: 0x0826 [0x1C] WAIT(60* ticks)
179: 0x0829 [0x7B] LocalPlayer stops talking
180: 0x082E [0x27] REQ_SET(priority=0x10, entity_id=LocalPlayer, tag_num=0xA5)
181: 0x0835 [0x1C] WAIT(210* ticks)
182: 0x0838 [0x1A] CALL_SUBROUTINE(address=0x0064)
183: 0x083B [0x7A] VM_CONTROL: Reset VM for Halver (ID: 17731591/0x010E9007)
184: 0x0841 [0x7A] VM_CONTROL: Reset VM for LocalPlayer
185: 0x0847 [0x75] LOAD_ROOM(Load indoor room, room=374*)
186: 0x084B [0x75] LOAD_ROOM(No action)
187: 0x084D [0xBA] SET_ENTITY_POSITION(entity_id=LocalPlayer, pos_x=-33.902*, pos_z=67.889*, pos_y=-3.000*, direction=179.9*)
188: 0x085A [0x1C] WAIT(60* ticks)
189: 0x085D [0x48] [System] [8497*]:
     "@@"
190: 0x0860 [0x1C] WAIT(60* ticks)
191: 0x0863 [0x27] REQ_SET(priority=0x10, entity_id=LocalPlayer, tag_num=0xA6)
192: 0x086A [0x52] END_LOAD_SCHEDULER: End scheduler "s003" with entities [EventEntity, EventEntity], work=869*
193: 0x0879 [0x45] LOAD_SCHEDULED_TASK: Load scheduler "s004" with entities [EventEntity, EventEntity], work=[869*, 0*]
194: 0x088A [0x1A] CALL_SUBROUTINE(address=0x0043)
195: 0x088D [0x2A] GET_REQ_LEVEL(level=16, entity_id=LocalPlayer)
196: 0x0893 [0x5D] SET_MUSIC_VOLUME(volume=0*, fade_time=300*)
197: 0x0898 [0x52] END_LOAD_SCHEDULER: End scheduler "s004" with entities [EventEntity, EventEntity], work=869*
198: 0x08A7 [0x45] LOAD_SCHEDULED_TASK: Load scheduler "s005" with entities [EventEntity, EventEntity], work=[869*, 0*]
199: 0x08B8 [0x1C] WAIT(30* ticks)
200: 0x08BB [0x45] LOAD_SCHEDULED_TASK: Load scheduler "noks" with entities [EventEntity, EventEntity], work=[869*, 0*]
201: 0x08CC [0x1C] WAIT(60* ticks)
202: 0x08CF [0x4A] Trion (ID: 17731686/0x010E9066) looks at Door:Prince Royal's Rm (ID: 17731624/0x010E9028)
203: 0x08D8 [0x7B] Trion (ID: 17731686/0x010E9066) stops talking
204: 0x08DD [0x6F] WAIT_FRAME_DELAY: Yield until WaitTime reaches zero
205: 0x08DE [0x76] CHECK_ENTITY_RENDER_FLAGS: Wait until Trion (ID: 17731686/0x010E9066) Render.Flags0 and Render.Flags3 conditions are met
206: 0x08E3 [0x2B] Trion (ID: 17731686/0x010E9066) [9115*]:
     "Enter."
207: 0x08EA [0x4A] Excenmille (ID: 17731688/0x010E9068) looks at Door:Prince Royal's Rm (ID: 17731624/0x010E9028)
208: 0x08F3 [0x7B] Door:Prince Royal's Rm (ID: 17731624/0x010E9028) stops talking
209: 0x08F8 [0x1C] WAIT(90* ticks)
210: 0x08FB [0x27] REQ_SET(priority=0x10, entity_id=Door:Prince Royal's Rm (ID: 17731624/0x010E9028), tag_num=0x02)
211: 0x0902 [0x1C] WAIT(30* ticks)
212: 0x0905 [0x79] LocalPlayer looks at Trion (ID: 17731686/0x010E9066) (Basic look)
213: 0x090F [0x27] REQ_SET(priority=0x10, entity_id=LocalPlayer, tag_num=0xA7)
214: 0x0916 [0x1C] WAIT(120* ticks)
215: 0x0919 [0x27] REQ_SET(priority=0x10, entity_id=Door:Prince Royal's Rm (ID: 17731624/0x010E9028), tag_num=0x03)
