# 17731680

## Common Data

| Field            | Value                         |
|------------------|-------------------------------|
| Zone             | Chateau d'Oraguille (ID: 233) |
| Block Size       | 1468 bytes                    |
| Total Events     | 3                             |
| References Count | 29                            |

## List of Events

| Event ID              | Entrypoint   |   Size |   Instructions |
|-----------------------|--------------|--------|----------------|
| [65535](#event-65535) | 0x0000       |      1 |              1 |
| [571](#event-571)     | 0x0001       |    635 |             80 |
| [572](#event-572)     | 0x027C       |    686 |             68 |

## DAT References (imed_data)

|   Index | Hex Value   |   Dec Value |
|---------|-------------|-------------|
|       0 | 0x0013      |          19 |
|       1 | 0x09FD      |        2557 |
|       2 | 0xFFFFFBFB  |  4294966267 |
|       3 | 0x0000      |           0 |
|       4 | 0x0BF1      |        3057 |
|       5 | 0x001E      |          30 |
|       6 | 0x0001      |           1 |
|       7 | 0x0225      |         549 |
|       8 | 0x0002      |           2 |
|       9 | 0x0003      |           3 |
|      10 | 0x0004      |           4 |
|      11 | 0x0005      |           5 |
|      12 | 0x0006      |           6 |
|      13 | 0x0007      |           7 |
|      14 | 0x0008      |           8 |
|      15 | 0x2158      |        8536 |
|      16 | 0x2159      |        8537 |
|      17 | 0x0014      |          20 |
|      18 | 0x005A      |          90 |
|      19 | 0x215A      |        8538 |
|      20 | 0x0096      |         150 |
|      21 | 0x215B      |        8539 |
|      22 | 0x215C      |        8540 |
|      23 | 0x215D      |        8541 |
|      24 | 0x00C8      |         200 |
|      25 | 0x215E      |        8542 |
|      26 | 0x00C9      |         201 |
|      27 | 0x002D      |          45 |
|      28 | 0x00D7      |         215 |

## Events

### Event 65535

#### Metadata

| Field        | Value   |
|--------------|---------|
| Entrypoint   | 0x0000  |
| Data Size    | 1 bytes |
| Instructions | 1       |

```
      00 01 02 03 04 05 06 07  08 09 0A 0B 0C 0D 0E 0F
      -- -- -- -- -- -- -- --  -- -- -- -- -- -- -- --
0000: 00                                                .               
```

#### Opcodes

```
  0: 0x0000 [0x00] END_REQSTACK()
```

### Event 571

#### Metadata

| Field        | Value     |
|--------------|-----------|
| Entrypoint   | 0x0001    |
| Data Size    | 635 bytes |
| Instructions | 80        |

```
      00 01 02 03 04 05 06 07  08 09 0A 0B 0C 0D 0E 0F
      -- -- -- -- -- -- -- --  -- -- -- -- -- -- -- --
0000:    42 1A FC 02 46 01 38  00 80 2F 00 07 90 0E 01   B...F.8../.....
0010: 4E 00 07 90 0E 01 92 01  07 90 0E 01 94 01 F0 FF  N...............
0020: FF 7F 94 01 07 90 0E 01  BA F0 FF FF 7F 01 80 02  ................
0030: 80 03 80 04 80 80 F0 FF  FF 7F 80 07 90 0E 01 4A  ...............J
0040: 07 90 0E 01 F0 FF FF 7F  4A F0 FF FF 7F 07 90 0E  ........J.......
0050: 01 1C 05 80 29 10 F0 FF  FF 7F 01 02 02 10 06 80  ....)...........
0060: 80 77 00 45 07 80 F0 FF  FF 7F F0 FF FF 7F 30 30  .w.E..........00
0070: 30 30 03 80 01 3B 01 02  02 10 08 80 80 93 00 45  00...;.........E
0080: 07 80 F0 FF FF 7F F0 FF  FF 7F 30 30 30 30 03 80  ..........0000..
0090: 01 3B 01 02 02 10 09 80  80 AF 00 45 07 80 F0 FF  .;.........E....
00A0: FF 7F F0 FF FF 7F 30 30  30 32 03 80 01 3B 01 02  ......0002...;..
00B0: 02 10 0A 80 80 CB 00 45  07 80 F0 FF FF 7F F0 FF  .......E........
00C0: FF 7F 30 30 30 32 03 80  01 3B 01 02 02 10 0B 80  ..0002...;......
00D0: 80 E7 00 45 07 80 F0 FF  FF 7F F0 FF FF 7F 30 30  ...E..........00
00E0: 30 31 03 80 01 3B 01 02  02 10 0C 80 80 03 01 45  01...;.........E
00F0: 07 80 F0 FF FF 7F F0 FF  FF 7F 30 30 30 31 03 80  ..........0001..
0100: 01 3B 01 02 02 10 0D 80  80 1F 01 45 07 80 F0 FF  .;.........E....
0110: FF 7F F0 FF FF 7F 30 30  30 30 03 80 01 3B 01 02  ......0000...;..
0120: 02 10 0E 80 80 3B 01 45  07 80 F0 FF FF 7F F0 FF  .....;.E........
0130: FF 7F 30 30 30 32 03 80  01 3B 01 1A DB 02 2B 07  ..0002...;....+.
0140: 90 0E 01 0F 80 23 52 07  80 F0 FF FF 7F F0 FF FF  .....#R.........
0150: 7F 30 30 30 30 52 07 80  F0 FF FF 7F F0 FF FF 7F  .0000R..........
0160: 30 30 30 31 52 07 80 F0  FF FF 7F F0 FF FF 7F 30  0001R..........0
0170: 30 30 32 45 07 80 F0 FF  FF 7F F0 FF FF 7F 30 30  002E..........00
0180: 30 33 03 80 2B 07 90 0E  01 10 80 66 11 80 07 90  03..+......f....
0190: 0E 01 07 90 0E 01 74 6C  6B 30 1C 12 80 23 52 07  ......tlk0...#R.
01A0: 80 F0 FF FF 7F F0 FF FF  7F 30 30 30 33 45 07 80  .........0003E..
01B0: F0 FF FF 7F F0 FF FF 7F  30 30 30 34 03 80 2B 07  ........0004..+.
01C0: 90 0E 01 13 80 23 66 11  80 07 90 0E 01 07 90 0E  .....#f.........
01D0: 01 74 6C 6B 31 6E F0 FF  FF 7F 0D 80 99 F0 FF FF  .tlk1n..........
01E0: 7F 1C 14 80 2B 07 90 0E  01 15 80 66 11 80 07 90  ....+......f....
01F0: 0E 01 07 90 0E 01 74 68  6B 31 1C 12 80 23 52 07  ......thk1...#R.
0200: 80 F0 FF FF 7F F0 FF FF  7F 30 30 30 34 45 07 80  .........0004E..
0210: F0 FF FF 7F F0 FF FF 7F  30 30 30 35 03 80 2B 07  ........0005..+.
0220: 90 0E 01 16 80 66 11 80  07 90 0E 01 07 90 0E 01  .....f..........
0230: 74 68 6B 32 1C 12 80 23  2B 07 90 0E 01 17 80 66  thk2...#+......f
0240: 11 80 07 90 0E 01 07 90  0E 01 74 6C 6B 30 1C 12  ..........tlk0..
0250: 80 23 66 11 80 07 90 0E  01 07 90 0E 01 74 6C 6B  .#f..........tlk
0260: 31 1A FC 02 1C 05 80 46  00 45 18 80 F0 FF FF 7F  1......F.E......
0270: F0 FF FF 7F 66 64 69 32  03 80 21 00              ....fdi2..!.    
```

#### Opcodes

```
  0: 0x0001 [0x42] SET_CLI_EVENT_CANCEL_DATA()
  1: 0x0002 [0x1A] CALL_SUBROUTINE(address=0x02FC)
  2: 0x0005 [0x46] CAMERA_CONTROL: Disable user control
  3: 0x0007 [0x38] SET_CLIENT_EVENT_MODE(mode=19*)
  4: 0x000A [0x2F] Halver (ID: 17731591/0x010E9007)->Render.Flags0 &= ~0x80000 // Bit 19
  5: 0x0010 [0x4E] SET_ENTITY_HIDE_FLAG: Show Halver (ID: 17731591/0x010E9007)
  6: 0x0016 [0x92] Halver (ID: 17731591/0x010E9007)->Render.Flags3 ^= 0x01
  7: 0x001C [0x94] LocalPlayer->Render.Flags3 ^= 0x01
  8: 0x0022 [0x94] Halver (ID: 17731591/0x010E9007)->Render.Flags3 ^= 0x01
  9: 0x0028 [0xBA] SET_ENTITY_POSITION(entity_id=LocalPlayer, pos_x=2.557*, pos_z=-1.029*, pos_y=0.000*, direction=268.7°*)
 10: 0x0035 [0x80] LOAD_WAIT(entity=LocalPlayer)
 11: 0x003A [0x80] LOAD_WAIT(entity=Halver (ID: 17731591/0x010E9007))
 12: 0x003F [0x4A] Halver (ID: 17731591/0x010E9007) looks at LocalPlayer
 13: 0x0048 [0x4A] LocalPlayer looks at Halver (ID: 17731591/0x010E9007)
 14: 0x0051 [0x1C] WAIT(30* ticks)
 15: 0x0054 [0x29] REQ_SET_WAIT(priority=0x10, entity_id=LocalPlayer, tag_num=0x01)
 16: 0x005B [0x02] IF !(Work_Zone[2] == 1*) GOTO 0x0077
 17: 0x0063 [0x45] LOAD_SCHEDULED_TASK: Load scheduler "0000" with entities [LocalPlayer, LocalPlayer], work=[549*, 0*]
 18: 0x0074 [0x01] GOTO 0x013B
 19: 0x0077 [0x02] IF !(Work_Zone[2] == 2*) GOTO 0x0093
 20: 0x007F [0x45] LOAD_SCHEDULED_TASK: Load scheduler "0000" with entities [LocalPlayer, LocalPlayer], work=[549*, 0*]
 21: 0x0090 [0x01] GOTO 0x013B
 22: 0x0093 [0x02] IF !(Work_Zone[2] == 3*) GOTO 0x00AF
 23: 0x009B [0x45] LOAD_SCHEDULED_TASK: Load scheduler "0002" with entities [LocalPlayer, LocalPlayer], work=[549*, 0*]
 24: 0x00AC [0x01] GOTO 0x013B
 25: 0x00AF [0x02] IF !(Work_Zone[2] == 4*) GOTO 0x00CB
 26: 0x00B7 [0x45] LOAD_SCHEDULED_TASK: Load scheduler "0002" with entities [LocalPlayer, LocalPlayer], work=[549*, 0*]
 27: 0x00C8 [0x01] GOTO 0x013B
 28: 0x00CB [0x02] IF !(Work_Zone[2] == 5*) GOTO 0x00E7
 29: 0x00D3 [0x45] LOAD_SCHEDULED_TASK: Load scheduler "0001" with entities [LocalPlayer, LocalPlayer], work=[549*, 0*]
 30: 0x00E4 [0x01] GOTO 0x013B
 31: 0x00E7 [0x02] IF !(Work_Zone[2] == 6*) GOTO 0x0103
 32: 0x00EF [0x45] LOAD_SCHEDULED_TASK: Load scheduler "0001" with entities [LocalPlayer, LocalPlayer], work=[549*, 0*]
 33: 0x0100 [0x01] GOTO 0x013B
 34: 0x0103 [0x02] IF !(Work_Zone[2] == 7*) GOTO 0x011F
 35: 0x010B [0x45] LOAD_SCHEDULED_TASK: Load scheduler "0000" with entities [LocalPlayer, LocalPlayer], work=[549*, 0*]
 36: 0x011C [0x01] GOTO 0x013B
 37: 0x011F [0x02] IF !(Work_Zone[2] == 8*) GOTO 0x013B
 38: 0x0127 [0x45] LOAD_SCHEDULED_TASK: Load scheduler "0002" with entities [LocalPlayer, LocalPlayer], work=[549*, 0*]
 39: 0x0138 [0x01] GOTO 0x013B

SUBROUTINE_013B:
 40: 0x013B [0x1A] CALL_SUBROUTINE(address=0x02DB)
 41: 0x013E [0x2B] Halver (ID: 17731591/0x010E9007) [8536*]:
    → "Yes? Have you business with me?"
 42: 0x0145 [0x23] WAIT_FOR_DIALOG_INTERACTION
 43: 0x0146 [0x52] END_LOAD_SCHEDULER: End scheduler "0000" with entities [LocalPlayer, LocalPlayer], work=549*
 44: 0x0155 [0x52] END_LOAD_SCHEDULER: End scheduler "0001" with entities [LocalPlayer, LocalPlayer], work=549*
 45: 0x0164 [0x52] END_LOAD_SCHEDULER: End scheduler "0002" with entities [LocalPlayer, LocalPlayer], work=549*
 46: 0x0173 [0x45] LOAD_SCHEDULED_TASK: Load scheduler "0003" with entities [LocalPlayer, LocalPlayer], work=[549*, 0*]
 47: 0x0184 [0x2B] Halver (ID: 17731591/0x010E9007) [8537*]:
    → "Ah, 'tis you. When last we conversed, you were searching for a certain Crystal War veteran. Were you able to find who you sought?"
 48: 0x018B [0x66] LOAD_EXT_SCHEDULER_MAIN: Load scheduler "tlk0" with entities [Halver (ID: 17731591/0x010E9007), Halver (ID: 17731591/0x010E9007)], work=20*
 49: 0x019A [0x1C] WAIT(90* ticks)
 50: 0x019D [0x23] WAIT_FOR_DIALOG_INTERACTION
 51: 0x019E [0x52] END_LOAD_SCHEDULER: End scheduler "0003" with entities [LocalPlayer, LocalPlayer], work=549*
 52: 0x01AD [0x45] LOAD_SCHEDULED_TASK: Load scheduler "0004" with entities [LocalPlayer, LocalPlayer], work=[549*, 0*]
 53: 0x01BE [0x2B] Halver (ID: 17731591/0x010E9007) [8538*]:
    → "You were? That is pleasing news indeed. More pleasing still to know that you can turn to him again should the need arise."
 54: 0x01C5 [0x23] WAIT_FOR_DIALOG_INTERACTION
 55: 0x01C6 [0x66] LOAD_EXT_SCHEDULER_MAIN: Load scheduler "tlk1" with entities [Halver (ID: 17731591/0x010E9007), Halver (ID: 17731591/0x010E9007)], work=20*
 56: 0x01D5 [0x6E] LocalPlayer uses emote 7*
 57: 0x01DC [0x99] Wait for LocalPlayer animation to complete
 58: 0x01E1 [0x1C] WAIT(150* ticks)
 59: 0x01E4 [0x2B] Halver (ID: 17731591/0x010E9007) [8539*]:
    → "Hm? Your companion appears not to be with you today."
 60: 0x01EB [0x66] LOAD_EXT_SCHEDULER_MAIN: Load scheduler "thk1" with entities [Halver (ID: 17731591/0x010E9007), Halver (ID: 17731591/0x010E9007)], work=20*
 61: 0x01FA [0x1C] WAIT(90* ticks)
 62: 0x01FD [0x23] WAIT_FOR_DIALOG_INTERACTION
 63: 0x01FE [0x52] END_LOAD_SCHEDULER: End scheduler "0004" with entities [LocalPlayer, LocalPlayer], work=549*
 64: 0x020D [0x45] LOAD_SCHEDULED_TASK: Load scheduler "0005" with entities [LocalPlayer, LocalPlayer], work=[549*, 0*]
 65: 0x021E [0x2B] Halver (ID: 17731591/0x010E9007) [8540*]:
    → "...Or have I confused you with another?"
 66: 0x0225 [0x66] LOAD_EXT_SCHEDULER_MAIN: Load scheduler "thk2" with entities [Halver (ID: 17731591/0x010E9007), Halver (ID: 17731591/0x010E9007)], work=20*
 67: 0x0234 [0x1C] WAIT(90* ticks)
 68: 0x0237 [0x23] WAIT_FOR_DIALOG_INTERACTION
 69: 0x0238 [0x2B] Halver (ID: 17731591/0x010E9007) [8541*]:
    → "Pray forgive me. Keeping vigil here day after day, my mind is wont to wander on occasion."
 70: 0x023F [0x66] LOAD_EXT_SCHEDULER_MAIN: Load scheduler "tlk0" with entities [Halver (ID: 17731591/0x010E9007), Halver (ID: 17731591/0x010E9007)], work=20*
 71: 0x024E [0x1C] WAIT(90* ticks)
 72: 0x0251 [0x23] WAIT_FOR_DIALOG_INTERACTION
 73: 0x0252 [0x66] LOAD_EXT_SCHEDULER_MAIN: Load scheduler "tlk1" with entities [Halver (ID: 17731591/0x010E9007), Halver (ID: 17731591/0x010E9007)], work=20*
 74: 0x0261 [0x1A] CALL_SUBROUTINE(address=0x02FC)
 75: 0x0264 [0x1C] WAIT(30* ticks)
 76: 0x0267 [0x46] CAMERA_CONTROL: Restore default settings
 77: 0x0269 [0x45] LOAD_SCHEDULED_TASK: Load scheduler "fdi2" with entities [LocalPlayer, LocalPlayer], work=[200*, 0*]
 78: 0x027A [0x21] END_EVENT
 79: 0x027B [0x00] END_REQSTACK()
```

### Event 572

#### Metadata

| Field        | Value     |
|--------------|-----------|
| Entrypoint   | 0x027C    |
| Data Size    | 686 bytes |
| Instructions | 7         |

```
      00 01 02 03 04 05 06 07  08 09 0A 0B 0C 0D 0E 0F
      -- -- -- -- -- -- -- --  -- -- -- -- -- -- -- --
0270:                                      42 4A 07 90              BJ..
0280: 0E 01 F0 FF FF 7F 4A F0  FF FF 7F 07 90 0E 01 2B  ......J........+
0290: 07 90 0E 01 19 80 23 21  00 45 18 80 F0 FF FF 7F  ......#!.E......
02A0: F0 FF FF 7F 66 64 69 30  03 80 55 18 80 F0 FF FF  ....fdi0..U.....
02B0: 7F F0 FF FF 7F 66 64 69  30 1B 45 18 80 F0 FF FF  .....fdi0.E.....
02C0: 7F F0 FF FF 7F 66 64 6F  30 03 80 55 18 80 F0 FF  .....fdo0..U....
02D0: FF 7F F0 FF FF 7F 66 64  6F 30 1B 45 18 80 F0 FF  ......fdo0.E....
02E0: FF 7F F0 FF FF 7F 66 64  69 31 03 80 55 18 80 F0  ......fdi1..U...
02F0: FF FF 7F F0 FF FF 7F 66  64 69 31 1B 45 18 80 F0  .......fdi1.E...
0300: FF FF 7F F0 FF FF 7F 66  64 6F 31 03 80 55 18 80  .......fdo1..U..
0310: F0 FF FF 7F F0 FF FF 7F  66 64 6F 31 1B 45 1A 80  ........fdo1.E..
0320: F0 FF FF 7F F0 FF FF 7F  77 68 69 31 03 80 55 1A  ........whi1..U.
0330: 80 F0 FF FF 7F F0 FF FF  7F 77 68 69 31 1B 45 1A  .........whi1.E.
0340: 80 F0 FF FF 7F F0 FF FF  7F 77 68 6F 31 03 80 55  .........who1..U
0350: 1A 80 F0 FF FF 7F F0 FF  FF 7F 77 68 6F 31 1B 45  ..........who1.E
0360: 1A 80 F0 FF FF 7F F0 FF  FF 7F 77 68 6F 32 03 80  ..........who2..
0370: 55 1A 80 F0 FF FF 7F F0  FF FF 7F 77 68 6F 32 1B  U..........who2.
0380: 45 1A 80 F0 FF FF 7F F0  FF FF 7F 77 68 6F 33 03  E..........who3.
0390: 80 55 1A 80 F0 FF FF 7F  F0 FF FF 7F 77 68 6F 33  .U..........who3
03A0: 1B 62 06 80 F0 FF FF 7F  F0 FF FF 7F 6D 61 69 6E  .b..........main
03B0: 03 80 1C 1B 80 45 18 80  F0 FF FF 7F F0 FF FF 7F  .....E..........
03C0: 66 64 6F 31 03 80 55 18  80 F0 FF FF 7F F0 FF FF  fdo1..U.........
03D0: 7F 66 64 6F 31 1B 45 18  80 F0 FF FF 7F F0 FF FF  .fdo1.E.........
03E0: 7F 66 64 69 31 03 80 62  08 80 F0 FF FF 7F F0 FF  .fdi1..b........
03F0: FF 7F 6D 61 69 6E 03 80  1C 05 80 55 18 80 F0 FF  ..main.....U....
0400: FF 7F F0 FF FF 7F 66 64  69 31 1B 45 18 80 F0 FF  ......fdi1.E....
0410: FF 7F F0 FF FF 7F 62 6C  6F 6E 03 80 45 1A 80 F0  ......blon..E...
0420: FF FF 7F F0 FF FF 7F 62  6C 6F 6E 03 80 1B 45 1A  .......blon...E.
0430: 80 F0 FF FF 7F F0 FF FF  7F 77 68 69 30 03 80 55  .........whi0..U
0440: 1A 80 F0 FF FF 7F F0 FF  FF 7F 77 68 69 30 1B 45  ..........whi0.E
0450: 1A 80 F0 FF FF 7F F0 FF  FF 7F 77 68 6F 30 03 80  ..........who0..
0460: 55 1A 80 F0 FF FF 7F F0  FF FF 7F 77 68 6F 30 1B  U..........who0.
0470: 45 1C 80 F0 FF FF 7F F0  FF FF 7F 65 66 6F 6E 03  E..........efon.
0480: 80 55 1C 80 F0 FF FF 7F  F0 FF FF 7F 65 66 6F 6E  .U..........efon
0490: 1B 45 18 80 F0 FF FF 7F  F0 FF FF 7F 66 64 69 73  .E..........fdis
04A0: 03 80 1B 45 18 80 F0 FF  FF 7F F0 FF FF 7F 66 64  ...E..........fd
04B0: 6F 73 03 80 55 18 80 F0  FF FF 7F F0 FF FF 7F 66  os..U..........f
04C0: 64 6F 73 1B 45 18 80 F0  FF FF 7F F0 FF FF 7F 66  dos.E..........f
04D0: 64 69 66 03 80 1B 45 18  80 F0 FF FF 7F F0 FF FF  dif...E.........
04E0: 7F 66 64 6F 66 03 80 55  18 80 F0 FF FF 7F F0 FF  .fdof..U........
04F0: FF 7F 66 64 6F 66 1B 45  18 80 F0 FF FF 7F F0 FF  ..fdof.E........
0500: FF 7F 66 64 69 70 03 80  1B 45 18 80 F0 FF FF 7F  ..fdip...E......
0510: F0 FF FF 7F 66 64 6F 70  03 80 55 18 80 F0 FF FF  ....fdop..U.....
0520: 7F F0 FF FF 7F 66 64 6F  70 1B                    .....fdop.      
```

#### Opcodes

```
  0: 0x027C [0x42] SET_CLI_EVENT_CANCEL_DATA()
  1: 0x027D [0x4A] Halver (ID: 17731591/0x010E9007) looks at LocalPlayer
  2: 0x0286 [0x4A] LocalPlayer looks at Halver (ID: 17731591/0x010E9007)
  3: 0x028F [0x2B] Halver (ID: 17731591/0x010E9007) [8542*]:
    → "Were you able to find who you sought?"
  4: 0x0296 [0x23] WAIT_FOR_DIALOG_INTERACTION
  5: 0x0297 [0x21] END_EVENT
  6: 0x0298 [0x00] END_REQSTACK()
```

#### Data or dead code:

```
# Dead code (unreachable instructions):
     0x0299 [0x45] LOAD_SCHEDULED_TASK: Load scheduler "fdi0" with entities [LocalPlayer, LocalPlayer], work=[200*, 0*]
     0x02AA [0x55] WAIT_LOAD_SCHEDULER: Wait for scheduler "fdi0" with entities [LocalPlayer, LocalPlayer], work=200*
     0x02B9 [0x1B] RETURN
     0x02BA [0x45] LOAD_SCHEDULED_TASK: Load scheduler "fdo0" with entities [LocalPlayer, LocalPlayer], work=[200*, 0*]
     0x02CB [0x55] WAIT_LOAD_SCHEDULER: Wait for scheduler "fdo0" with entities [LocalPlayer, LocalPlayer], work=200*
     0x02DA [0x1B] RETURN
     0x02DB [0x45] LOAD_SCHEDULED_TASK: Load scheduler "fdi1" with entities [LocalPlayer, LocalPlayer], work=[200*, 0*]
     0x02EC [0x55] WAIT_LOAD_SCHEDULER: Wait for scheduler "fdi1" with entities [LocalPlayer, LocalPlayer], work=200*
     0x02FB [0x1B] RETURN
     0x02FC [0x45] LOAD_SCHEDULED_TASK: Load scheduler "fdo1" with entities [LocalPlayer, LocalPlayer], work=[200*, 0*]
     0x030D [0x55] WAIT_LOAD_SCHEDULER: Wait for scheduler "fdo1" with entities [LocalPlayer, LocalPlayer], work=200*
     0x031C [0x1B] RETURN
     0x031D [0x45] LOAD_SCHEDULED_TASK: Load scheduler "whi1" with entities [LocalPlayer, LocalPlayer], work=[201*, 0*]
     0x032E [0x55] WAIT_LOAD_SCHEDULER: Wait for scheduler "whi1" with entities [LocalPlayer, LocalPlayer], work=201*
     0x033D [0x1B] RETURN
     0x033E [0x45] LOAD_SCHEDULED_TASK: Load scheduler "who1" with entities [LocalPlayer, LocalPlayer], work=[201*, 0*]
     0x034F [0x55] WAIT_LOAD_SCHEDULER: Wait for scheduler "who1" with entities [LocalPlayer, LocalPlayer], work=201*
     0x035E [0x1B] RETURN
     0x035F [0x45] LOAD_SCHEDULED_TASK: Load scheduler "who2" with entities [LocalPlayer, LocalPlayer], work=[201*, 0*]
     0x0370 [0x55] WAIT_LOAD_SCHEDULER: Wait for scheduler "who2" with entities [LocalPlayer, LocalPlayer], work=201*
     0x037F [0x1B] RETURN
     0x0380 [0x45] LOAD_SCHEDULED_TASK: Load scheduler "who3" with entities [LocalPlayer, LocalPlayer], work=[201*, 0*]
     0x0391 [0x55] WAIT_LOAD_SCHEDULER: Wait for scheduler "who3" with entities [LocalPlayer, LocalPlayer], work=201*
     0x03A0 [0x1B] RETURN
     0x03A1 [0x62] LOAD_EVENT_SCHEDULER: Load scheduler "main" with entities [LocalPlayer, LocalPlayer], work=[1*, 0*]
     0x03B2 [0x1C] WAIT(45* ticks)
     0x03B5 [0x45] LOAD_SCHEDULED_TASK: Load scheduler "fdo1" with entities [LocalPlayer, LocalPlayer], work=[200*, 0*]
     0x03C6 [0x55] WAIT_LOAD_SCHEDULER: Wait for scheduler "fdo1" with entities [LocalPlayer, LocalPlayer], work=200*
     0x03D5 [0x1B] RETURN
     0x03D6 [0x45] LOAD_SCHEDULED_TASK: Load scheduler "fdi1" with entities [LocalPlayer, LocalPlayer], work=[200*, 0*]
     0x03E7 [0x62] LOAD_EVENT_SCHEDULER: Load scheduler "main" with entities [LocalPlayer, LocalPlayer], work=[2*, 0*]
     0x03F8 [0x1C] WAIT(30* ticks)
     0x03FB [0x55] WAIT_LOAD_SCHEDULER: Wait for scheduler "fdi1" with entities [LocalPlayer, LocalPlayer], work=200*
     0x040A [0x1B] RETURN
     0x040B [0x45] LOAD_SCHEDULED_TASK: Load scheduler "blon" with entities [LocalPlayer, LocalPlayer], work=[200*, 0*]
     0x041C [0x45] LOAD_SCHEDULED_TASK: Load scheduler "blon" with entities [LocalPlayer, LocalPlayer], work=[201*, 0*]
     0x042D [0x1B] RETURN
     0x042E [0x45] LOAD_SCHEDULED_TASK: Load scheduler "whi0" with entities [LocalPlayer, LocalPlayer], work=[201*, 0*]
     0x043F [0x55] WAIT_LOAD_SCHEDULER: Wait for scheduler "whi0" with entities [LocalPlayer, LocalPlayer], work=201*
     0x044E [0x1B] RETURN
     0x044F [0x45] LOAD_SCHEDULED_TASK: Load scheduler "who0" with entities [LocalPlayer, LocalPlayer], work=[201*, 0*]
     0x0460 [0x55] WAIT_LOAD_SCHEDULER: Wait for scheduler "who0" with entities [LocalPlayer, LocalPlayer], work=201*
     0x046F [0x1B] RETURN
     0x0470 [0x45] LOAD_SCHEDULED_TASK: Load scheduler "efon" with entities [LocalPlayer, LocalPlayer], work=[215*, 0*]
     0x0481 [0x55] WAIT_LOAD_SCHEDULER: Wait for scheduler "efon" with entities [LocalPlayer, LocalPlayer], work=215*
     0x0490 [0x1B] RETURN
     0x0491 [0x45] LOAD_SCHEDULED_TASK: Load scheduler "fdis" with entities [LocalPlayer, LocalPlayer], work=[200*, 0*]
     0x04A2 [0x1B] RETURN
     0x04A3 [0x45] LOAD_SCHEDULED_TASK: Load scheduler "fdos" with entities [LocalPlayer, LocalPlayer], work=[200*, 0*]
     0x04B4 [0x55] WAIT_LOAD_SCHEDULER: Wait for scheduler "fdos" with entities [LocalPlayer, LocalPlayer], work=200*
     0x04C3 [0x1B] RETURN
     0x04C4 [0x45] LOAD_SCHEDULED_TASK: Load scheduler "fdif" with entities [LocalPlayer, LocalPlayer], work=[200*, 0*]
     0x04D5 [0x1B] RETURN
     0x04D6 [0x45] LOAD_SCHEDULED_TASK: Load scheduler "fdof" with entities [LocalPlayer, LocalPlayer], work=[200*, 0*]
     0x04E7 [0x55] WAIT_LOAD_SCHEDULER: Wait for scheduler "fdof" with entities [LocalPlayer, LocalPlayer], work=200*
     0x04F6 [0x1B] RETURN
     0x04F7 [0x45] LOAD_SCHEDULED_TASK: Load scheduler "fdip" with entities [LocalPlayer, LocalPlayer], work=[200*, 0*]
     0x0508 [0x1B] RETURN
     0x0509 [0x45] LOAD_SCHEDULED_TASK: Load scheduler "fdop" with entities [LocalPlayer, LocalPlayer], work=[200*, 0*]
     0x051A [0x55] WAIT_LOAD_SCHEDULER: Wait for scheduler "fdop" with entities [LocalPlayer, LocalPlayer], work=200*
     0x0529 [0x1B] RETURN
```
