# 17731696 - Memorian

## Common Data

| Field            | Value                         |
|------------------|-------------------------------|
| Zone             | Chateau d'Oraguille (ID: 233) |
| Block Size       | 304 bytes                     |
| Total Events     | 10                            |
| References Count | 17                            |

## List of Events

| Event ID                 | Entrypoint   |   Size |   Instructions |
|--------------------------|--------------|--------|----------------|
| [65535](#event-65535)    | 0x0000       |      1 |              1 |
| [604](#event-604)        | 0x0001       |      7 |              2 |
| [605](#event-605)        | 0x0008       |      7 |              2 |
| [606](#event-606)        | 0x000F       |      7 |              2 |
| [65535.1](#event-655351) | 0x0016       |     16 |              2 |
| [65535.2](#event-655352) | 0x0026       |     14 |              2 |
| [65535.3](#event-655353) | 0x0034       |     22 |              6 |
| [65535.4](#event-655354) | 0x004A       |     15 |              5 |
| [65535.5](#event-655355) | 0x0059       |     45 |             11 |
| [65535.6](#event-655356) | 0x0086       |     45 |             11 |

## DAT References (imed_data)

|   Index | Hex Value   |   Dec Value |
|---------|-------------|-------------|
|       0 | 0x00FC      |         252 |
|       1 | 0x000D      |          13 |
|       2 | 0xFFFF6E00  |  4294929920 |
|       3 | 0x14AEA     |       84714 |
|       4 | 0xFFFFF15A  |  4294963546 |
|       5 | 0x07FB      |        2043 |
|       6 | 0xFFFF6E38  |  4294929976 |
|       7 | 0x12B8A     |       76682 |
|       8 | 0xFFFF9067  |  4294938727 |
|       9 | 0xFFFFE8FD  |  4294961405 |
|      10 | 0x0000      |           0 |
|      11 | 0xFFFF91FF  |  4294939135 |
|      12 | 0xFFFFE853  |  4294961235 |
|      13 | 0xFFFF9274  |  4294939252 |
|      14 | 0xFFFFE4C7  |  4294960327 |
|      15 | 0xFFFF928C  |  4294939276 |
|      16 | 0xFFFFE90A  |  4294961418 |

## Events

### Event 65535

#### Metadata

| Field        | Value   |
|--------------|---------|
| Entrypoint   | 0x0000  |
| Data Size    | 1 bytes |
| Instructions | 1       |

```
      00 01 02 03 04 05 06 07  08 09 0A 0B 0C 0D 0E 0F
      -- -- -- -- -- -- -- --  -- -- -- -- -- -- -- --
0000: 00                                                .               
```

#### Opcodes

```
  0: 0x0000 [0x00] END_REQSTACK()
```

### Event 604

#### Metadata

| Field        | Value   |
|--------------|---------|
| Entrypoint   | 0x0001  |
| Data Size    | 7 bytes |
| Instructions | 2       |

```
      00 01 02 03 04 05 06 07  08 09 0A 0B 0C 0D 0E 0F
      -- -- -- -- -- -- -- --  -- -- -- -- -- -- -- --
0000:    92 01 F8 FF FF 7F 00                            .......        
```

#### Opcodes

```
  0: 0x0001 [0x92] EventEntity->Render.Flags3 ^= 0x01
  1: 0x0007 [0x00] END_REQSTACK()
```

### Event 605

#### Metadata

| Field        | Value   |
|--------------|---------|
| Entrypoint   | 0x0008  |
| Data Size    | 7 bytes |
| Instructions | 2       |

```
      00 01 02 03 04 05 06 07  08 09 0A 0B 0C 0D 0E 0F
      -- -- -- -- -- -- -- --  -- -- -- -- -- -- -- --
0000:                          92 01 F8 FF FF 7F 00             ....... 
```

#### Opcodes

```
  0: 0x0008 [0x92] EventEntity->Render.Flags3 ^= 0x01
  1: 0x000E [0x00] END_REQSTACK()
```

### Event 606

#### Metadata

| Field        | Value   |
|--------------|---------|
| Entrypoint   | 0x000F  |
| Data Size    | 7 bytes |
| Instructions | 2       |

```
      00 01 02 03 04 05 06 07  08 09 0A 0B 0C 0D 0E 0F
      -- -- -- -- -- -- -- --  -- -- -- -- -- -- -- --
0000:                                               92                 .
0010: 01 F8 FF FF 7F 00                                 ......          
```

#### Opcodes

```
  0: 0x000F [0x92] EventEntity->Render.Flags3 ^= 0x01
  1: 0x0015 [0x00] END_REQSTACK()
```

### Event 65535.1

#### Metadata

| Field        | Value    |
|--------------|----------|
| Entrypoint   | 0x0016   |
| Data Size    | 16 bytes |
| Instructions | 2        |

```
      00 01 02 03 04 05 06 07  08 09 0A 0B 0C 0D 0E 0F
      -- -- -- -- -- -- -- --  -- -- -- -- -- -- -- --
0010:                   5B 00  80 F8 FF FF 7F F8 FF FF        [.........
0020: 7F 62 72 75 30 00                                 .bru0.          
```

#### Opcodes

```
  0: 0x0016 [0x5B] LOAD_EXT_SCHEDULER: Load scheduler "bru0" with entities [EventEntity, EventEntity], work=252*
  1: 0x0025 [0x00] END_REQSTACK()
```

### Event 65535.2

#### Metadata

| Field        | Value    |
|--------------|----------|
| Entrypoint   | 0x0026   |
| Data Size    | 14 bytes |
| Instructions | 2        |

```
      00 01 02 03 04 05 06 07  08 09 0A 0B 0C 0D 0E 0F
      -- -- -- -- -- -- -- --  -- -- -- -- -- -- -- --
0020:                   53 F8  FF FF 7F F8 FF FF 7F 62        S........b
0030: 72 75 30 00                                       ru0.            
```

#### Opcodes

```
  0: 0x0026 [0x53] WAIT_SCHEDULER_TASK: Wait for scheduler "bru0" with entities [EventEntity, EventEntity]
  1: 0x0033 [0x00] END_REQSTACK()
```

### Event 65535.3

#### Metadata

| Field        | Value    |
|--------------|----------|
| Entrypoint   | 0x0034   |
| Data Size    | 22 bytes |
| Instructions | 6        |

```
      00 01 02 03 04 05 06 07  08 09 0A 0B 0C 0D 0E 0F
      -- -- -- -- -- -- -- --  -- -- -- -- -- -- -- --
0030:             32 01 80 1F  00 02 80 03 80 04 80 1F      2...........
0040: 01 6F 4B F8 FF FF 7F 05  80 00                    .oK.......      
```

#### Opcodes

```
  0: 0x0034 [0x32] ExtData[1]->MainSpeed = 13* * 0.1
  1: 0x0037 [0x1F] MOVE_ENTITY: EventEntity moves to X=-37.376*, Z=84.714*, Y=-3.750*
  2: 0x003F [0x1F] MOVE_ENTITY: Update entity position (mode=1)
  3: 0x0041 [0x6F] WAIT_FRAME_DELAY: Yield until WaitTime reaches zero
  4: 0x0042 [0x4B] UPDATE_ENTITY_YAW(entity=EventEntity, yaw=11.2°*)
  5: 0x0049 [0x00] END_REQSTACK()
```

### Event 65535.4

#### Metadata

| Field        | Value    |
|--------------|----------|
| Entrypoint   | 0x004A   |
| Data Size    | 15 bytes |
| Instructions | 5        |

```
      00 01 02 03 04 05 06 07  08 09 0A 0B 0C 0D 0E 0F
      -- -- -- -- -- -- -- --  -- -- -- -- -- -- -- --
0040:                                32 01 80 1F 00 06            2.....
0050: 80 07 80 04 80 1F 01 6F  00                       .......o.       
```

#### Opcodes

```
  0: 0x004A [0x32] ExtData[1]->MainSpeed = 13* * 0.1
  1: 0x004D [0x1F] MOVE_ENTITY: EventEntity moves to X=-37.320*, Z=76.682*, Y=-3.750*
  2: 0x0055 [0x1F] MOVE_ENTITY: Update entity position (mode=1)
  3: 0x0057 [0x6F] WAIT_FRAME_DELAY: Yield until WaitTime reaches zero
  4: 0x0058 [0x00] END_REQSTACK()
```

### Event 65535.5

#### Metadata

| Field        | Value    |
|--------------|----------|
| Entrypoint   | 0x0059   |
| Data Size    | 45 bytes |
| Instructions | 11       |

```
      00 01 02 03 04 05 06 07  08 09 0A 0B 0C 0D 0E 0F
      -- -- -- -- -- -- -- --  -- -- -- -- -- -- -- --
0050:                             32 01 80 1F 00 08 80           2......
0060: 09 80 0A 80 1F 01 1F 00  0B 80 0C 80 0A 80 1F 01  ................
0070: 1F 00 0D 80 0E 80 0A 80  1F 01 6F 1E 69 90 0E 01  ..........o.i...
0080: 7B F8 FF FF 7F 00                                 {.....          
```

#### Opcodes

```
  0: 0x0059 [0x32] ExtData[1]->MainSpeed = 13* * 0.1
  1: 0x005C [0x1F] MOVE_ENTITY: EventEntity moves to X=-28.569*, Z=-5.891*, Y=0.000*
  2: 0x0064 [0x1F] MOVE_ENTITY: Update entity position (mode=1)
  3: 0x0066 [0x1F] MOVE_ENTITY: EventEntity moves to X=-28.161*, Z=-6.061*, Y=0.000*
  4: 0x006E [0x1F] MOVE_ENTITY: Update entity position (mode=1)
  5: 0x0070 [0x1F] MOVE_ENTITY: EventEntity moves to X=-28.044*, Z=-6.969*, Y=0.000*
  6: 0x0078 [0x1F] MOVE_ENTITY: Update entity position (mode=1)
  7: 0x007A [0x6F] WAIT_FRAME_DELAY: Yield until WaitTime reaches zero
  8: 0x007B [0x1E] EventEntity looks at Altennia (ID: 17731689/0x010E9069) and starts talking
  9: 0x0080 [0x7B] EventEntity stops talking
 10: 0x0085 [0x00] END_REQSTACK()
```

### Event 65535.6

#### Metadata

| Field        | Value    |
|--------------|----------|
| Entrypoint   | 0x0086   |
| Data Size    | 45 bytes |
| Instructions | 11       |

```
      00 01 02 03 04 05 06 07  08 09 0A 0B 0C 0D 0E 0F
      -- -- -- -- -- -- -- --  -- -- -- -- -- -- -- --
0080:                   32 01  80 1F 00 08 80 09 80 0A        2.........
0090: 80 1F 01 1F 00 0F 80 10  80 0A 80 1F 01 1F 00 0D  ................
00A0: 80 0E 80 0A 80 1F 01 6F  1E 69 90 0E 01 7B F8 FF  .......o.i...{..
00B0: FF 7F 00                                          ...             
```

#### Opcodes

```
  0: 0x0086 [0x32] ExtData[1]->MainSpeed = 13* * 0.1
  1: 0x0089 [0x1F] MOVE_ENTITY: EventEntity moves to X=-28.569*, Z=-5.891*, Y=0.000*
  2: 0x0091 [0x1F] MOVE_ENTITY: Update entity position (mode=1)
  3: 0x0093 [0x1F] MOVE_ENTITY: EventEntity moves to X=-28.020*, Z=-5.878*, Y=0.000*
  4: 0x009B [0x1F] MOVE_ENTITY: Update entity position (mode=1)
  5: 0x009D [0x1F] MOVE_ENTITY: EventEntity moves to X=-28.044*, Z=-6.969*, Y=0.000*
  6: 0x00A5 [0x1F] MOVE_ENTITY: Update entity position (mode=1)
  7: 0x00A7 [0x6F] WAIT_FRAME_DELAY: Yield until WaitTime reaches zero
  8: 0x00A8 [0x1E] EventEntity looks at Altennia (ID: 17731689/0x010E9069) and starts talking
  9: 0x00AD [0x7B] EventEntity stops talking
 10: 0x00B2 [0x00] END_REQSTACK()
```
