# 17731656

## Common Data

| Field            | Value                         |
|------------------|-------------------------------|
| Zone             | Chateau d'Oraguille (ID: 233) |
| Block Size       | 164 bytes                     |
| Total Events     | 4                             |
| References Count | 12                            |

## List of Events

| Event ID                 | Entrypoint   |   Size |   Instructions |
|--------------------------|--------------|--------|----------------|
| [65535](#event-65535)    | 0x0000       |      1 |              1 |
| [76](#event-76)          | 0x0001       |     19 |              3 |
| [65535.1](#event-655351) | 0x0014       |     14 |              4 |
| [65535.2](#event-655352) | 0x0022       |     49 |              7 |

## DAT References (imed_data)

|   Index | Hex Value   |   Dec Value |
|---------|-------------|-------------|
|       0 | 0xFFFE7C5D  |  4294868061 |
|       1 | 0x10CE8     |       68840 |
|       2 | 0x018E      |         398 |
|       3 | 0x05E0      |        1504 |
|       4 | 0x0000      |           0 |
|       5 | 0x0001      |           1 |
|       6 | 0x000D      |          13 |
|       7 | 0xFFFE7121  |  4294865185 |
|       8 | 0x1007A     |       65658 |
|       9 | 0x0028      |          40 |
|      10 | 0x0014      |          20 |
|      11 | 0x003C      |          60 |

## Events

### Event 65535

#### Metadata

| Field        | Value   |
|--------------|---------|
| Entrypoint   | 0x0000  |
| Data Size    | 1 bytes |
| Instructions | 1       |

```
      00 01 02 03 04 05 06 07  08 09 0A 0B 0C 0D 0E 0F
      -- -- -- -- -- -- -- --  -- -- -- -- -- -- -- --
0000: 00                                                .               
```

#### Opcodes

```
  0: 0x0000 [0x00] END_REQSTACK()
```

### Event 76

#### Metadata

| Field        | Value    |
|--------------|----------|
| Entrypoint   | 0x0001   |
| Data Size    | 19 bytes |
| Instructions | 3        |

```
      00 01 02 03 04 05 06 07  08 09 0A 0B 0C 0D 0E 0F
      -- -- -- -- -- -- -- --  -- -- -- -- -- -- -- --
0000:    37 00 80 01 80 02 80  03 80 6C F8 FF FF 7F 04   7........l.....
0010: 80 05 80 00                                       ....            
```

#### Opcodes

```
  0: 0x0001 [0x37] UPDATE_EVENT_POSITION_AND_DIR: x=-99.235*, z=68.840*, y=0.398*, direction=132.2°*
  1: 0x000A [0x6C] FADE_ENTITY_COLOR(entity_id=EventEntity, end_alpha=0*, fade_time=1*)
  2: 0x0013 [0x00] END_REQSTACK()
```

### Event 65535.1

#### Metadata

| Field        | Value    |
|--------------|----------|
| Entrypoint   | 0x0014   |
| Data Size    | 14 bytes |
| Instructions | 4        |

```
      00 01 02 03 04 05 06 07  08 09 0A 0B 0C 0D 0E 0F
      -- -- -- -- -- -- -- --  -- -- -- -- -- -- -- --
0010:             32 06 80 1F  00 07 80 08 80 02 80 1F      2...........
0020: 01 00                                             ..              
```

#### Opcodes

```
  0: 0x0014 [0x32] ExtData[1]->MainSpeed = 13* * 0.1
  1: 0x0017 [0x1F] MOVE_ENTITY: EventEntity moves to X=-102.111*, Z=65.658*, Y=0.398*
  2: 0x001F [0x1F] MOVE_ENTITY: Update entity position (mode=1)
  3: 0x0021 [0x00] END_REQSTACK()
```

### Event 65535.2

#### Metadata

| Field        | Value    |
|--------------|----------|
| Entrypoint   | 0x0022   |
| Data Size    | 49 bytes |
| Instructions | 7        |

```
      00 01 02 03 04 05 06 07  08 09 0A 0B 0C 0D 0E 0F
      -- -- -- -- -- -- -- --  -- -- -- -- -- -- -- --
0020:       2C F8 FF FF 7F 06  90 0E 01 61 74 69 31 1C    ,........ati1.
0030: 09 80 2C F8 FF FF 7F F8  FF FF 7F 64 61 6D 67 1C  ..,........damg.
0040: 0A 80 2C F8 FF FF 7F F8  FF FF 7F 64 65 61 64 1C  ..,........dead.
0050: 0B 80 00                                          ...             
```

#### Opcodes

```
  0: 0x0022 [0x2C] CREATE_SCHEDULER_TASK: Create scheduler "ati1" with entities [EventEntity, Claidie (ID: 17731590/0x010E9006)]
  1: 0x002F [0x1C] WAIT(40* ticks)
  2: 0x0032 [0x2C] CREATE_SCHEDULER_TASK: Create scheduler "damg" with entities [EventEntity, EventEntity]
  3: 0x003F [0x1C] WAIT(20* ticks)
  4: 0x0042 [0x2C] CREATE_SCHEDULER_TASK: Create scheduler "dead" with entities [EventEntity, EventEntity]
  5: 0x004F [0x1C] WAIT(60* ticks)
  6: 0x0052 [0x00] END_REQSTACK()
```
