# 17731611 - Perfaumand

## Common Data

| Field            | Value                         |
|------------------|-------------------------------|
| Zone             | Chateau d'Oraguille (ID: 233) |
| Block Size       | 928 bytes                     |
| Total Events     | 30                            |
| References Count | 28                            |

## List of Events

| Event ID                   | Entrypoint   |   Size |   Instructions |
|----------------------------|--------------|--------|----------------|
| [65535](#event-65535)      | 0x0000       |      1 |              1 |
| [9](#event-9)              | 0x0001       |      1 |              1 |
| [65535.1](#event-655351)   | 0x0002       |     10 |              2 |
| [522](#event-522)          | 0x000C       |     36 |             10 |
| [88](#event-88)            | 0x0030       |      1 |              1 |
| [89](#event-89)            | 0x0031       |      1 |              1 |
| [79](#event-79)            | 0x0032       |      1 |              1 |
| [50](#event-50)            | 0x0033       |      1 |              1 |
| [49](#event-49)            | 0x0034       |      1 |              1 |
| [65535.2](#event-655352)   | 0x0035       |     10 |              2 |
| [65535.3](#event-655353)   | 0x003F       |     14 |              4 |
| [65535.4](#event-655354)   | 0x004D       |     15 |              5 |
| [65535.5](#event-655355)   | 0x005C       |     29 |              3 |
| [65535.6](#event-655356)   | 0x0079       |     16 |              2 |
| [65535.7](#event-655357)   | 0x0089       |     14 |              2 |
| [553](#event-553)          | 0x0097       |      1 |              1 |
| [65535.8](#event-655358)   | 0x0098       |     85 |              7 |
| [65535.9](#event-655359)   | 0x00ED       |     85 |              7 |
| [65535.10](#event-6553510) | 0x0142       |     85 |              7 |
| [65535.11](#event-6553511) | 0x0197       |     85 |              7 |
| [65535.12](#event-6553512) | 0x01EC       |     85 |              7 |
| [554](#event-554)          | 0x0241       |      1 |              1 |
| [65535.13](#event-6553513) | 0x0242       |     24 |              8 |
| [65535.14](#event-6553514) | 0x025A       |     19 |              5 |
| [2](#event-2)              | 0x026D       |      1 |              1 |
| [7](#event-7)              | 0x026E       |      1 |              1 |
| [560](#event-560)          | 0x026F       |     52 |             12 |
| [597](#event-597)          | 0x02A3       |      1 |              1 |
| [604](#event-604)          | 0x02A4       |      1 |              1 |
| [609](#event-609)          | 0x02A5       |      1 |              1 |

## DAT References (imed_data)

|   Index | Hex Value   |   Dec Value |
|---------|-------------|-------------|
|       0 | 0x0AD2      |        2770 |
|       1 | 0xFFFFEF26  |  4294962982 |
|       2 | 0x0000      |           0 |
|       3 | 0x0837      |        2103 |
|       4 | 0x0014      |          20 |
|       5 | 0x1C43      |        7235 |
|       6 | 0x001E      |          30 |
|       7 | 0xFFFF6177  |  4294926711 |
|       8 | 0x12E8F     |       77455 |
|       9 | 0xFFFFF02E  |  4294963246 |
|      10 | 0x0B83      |        2947 |
|      11 | 0x000D      |          13 |
|      12 | 0xFFFF6B32  |  4294929202 |
|      13 | 0x12D06     |       77062 |
|      14 | 0xFFFFF159  |  4294963545 |
|      15 | 0x0015      |          21 |
|      16 | 0x0031      |          49 |
|      17 | 0x0082      |         130 |
|      18 | 0x00C8      |         200 |
|      19 | 0x003C      |          60 |
|      20 | 0x0028      |          40 |
|      21 | 0xFFFF68B5  |  4294928565 |
|      22 | 0x11125     |       69925 |
|      23 | 0xFFFFF449  |  4294964297 |
|      24 | 0x1DC5      |        7621 |
|      25 | 0x2061      |        8289 |
|      26 | 0x2069      |        8297 |
|      27 | 0x206A      |        8298 |

## String References

- **7235**: Prince Trion's chambers. No entry.
- **7621**: Your Highness, Lady Curilla is in the quarters of the Temple Knights. As for Prince Pieuje...
- **8289**: <Player>'s badge flashes brightly.
- **8297**: Is that one of those Near Eastern badges!? Remove it at once! If Prince Trion were to see you wearing one of those...
- **8298**: Seeing all these people sporting mercenary badges has him in a volatile mood.

## Events

### Event 65535

#### Metadata

| Field        | Value   |
|--------------|---------|
| Entrypoint   | 0x0000  |
| Data Size    | 1 bytes |
| Instructions | 1       |

```
      00 01 02 03 04 05 06 07  08 09 0A 0B 0C 0D 0E 0F
      -- -- -- -- -- -- -- --  -- -- -- -- -- -- -- --
0000: 00                                                .               
```

#### Opcodes

```
  0: 0x0000 [0x00] END_REQSTACK()
```

### Event 9

#### Metadata

| Field        | Value   |
|--------------|---------|
| Entrypoint   | 0x0001  |
| Data Size    | 1 bytes |
| Instructions | 1       |

```
      00 01 02 03 04 05 06 07  08 09 0A 0B 0C 0D 0E 0F
      -- -- -- -- -- -- -- --  -- -- -- -- -- -- -- --
0000:    00                                              .              
```

#### Opcodes

```
  0: 0x0001 [0x00] END_REQSTACK()
```

### Event 65535.1

#### Metadata

| Field        | Value    |
|--------------|----------|
| Entrypoint   | 0x0002   |
| Data Size    | 10 bytes |
| Instructions | 2        |

```
      00 01 02 03 04 05 06 07  08 09 0A 0B 0C 0D 0E 0F
      -- -- -- -- -- -- -- --  -- -- -- -- -- -- -- --
0000:       37 00 80 01 80 02  80 03 80 00                7.........    
```

#### Opcodes

```
  0: 0x0002 [0x37] UPDATE_EVENT_POSITION_AND_DIR: x=2.770*, z=-4.314*, y=0.000*, direction=184.8°*
  1: 0x000B [0x00] END_REQSTACK()
```

### Event 522

#### Metadata

| Field        | Value    |
|--------------|----------|
| Entrypoint   | 0x000C   |
| Data Size    | 36 bytes |
| Instructions | 10       |

```
      00 01 02 03 04 05 06 07  08 09 0A 0B 0C 0D 0E 0F
      -- -- -- -- -- -- -- --  -- -- -- -- -- -- -- --
0000:                                      1E F0 FF FF              ....
0010: 7F 6F 70 66 04 80 F8 FF  FF 7F F8 FF FF 7F 74 6C  .opf..........tl
0020: 6B 30 1D 05 80 23 5E 69  64 6C 30 1C 06 80 21 00  k0...#^idl0...!.
```

#### Opcodes

```
  0: 0x000C [0x1E] EventEntity looks at LocalPlayer and starts talking
  1: 0x0011 [0x6F] WAIT_FRAME_DELAY: Yield until WaitTime reaches zero
  2: 0x0012 [0x70] WAIT_ENTITY_RENDER_FLAG: Wait while EventEntity->Render.Flags3 bit 2 is set (cancel turn if not)
  3: 0x0013 [0x66] LOAD_EXT_SCHEDULER_MAIN: Load scheduler "tlk0" with entities [EventEntity, EventEntity], work=20*
  4: 0x0022 [0x1D] PRINT_EVENT_MESSAGE(message_id=7235*)
    → "Prince Trion's chambers. No entry."
  5: 0x0025 [0x23] WAIT_FOR_DIALOG_INTERACTION
  6: 0x0026 [0x5E] EventEntity goes idle (kills current action) (animation: "idl0")
  7: 0x002B [0x1C] WAIT(30* ticks)
  8: 0x002E [0x21] END_EVENT
  9: 0x002F [0x00] END_REQSTACK()
```

### Event 88

#### Metadata

| Field        | Value   |
|--------------|---------|
| Entrypoint   | 0x0030  |
| Data Size    | 1 bytes |
| Instructions | 1       |

```
      00 01 02 03 04 05 06 07  08 09 0A 0B 0C 0D 0E 0F
      -- -- -- -- -- -- -- --  -- -- -- -- -- -- -- --
0030: 00                                                .               
```

#### Opcodes

```
  0: 0x0030 [0x00] END_REQSTACK()
```

### Event 89

#### Metadata

| Field        | Value   |
|--------------|---------|
| Entrypoint   | 0x0031  |
| Data Size    | 1 bytes |
| Instructions | 1       |

```
      00 01 02 03 04 05 06 07  08 09 0A 0B 0C 0D 0E 0F
      -- -- -- -- -- -- -- --  -- -- -- -- -- -- -- --
0030:    00                                              .              
```

#### Opcodes

```
  0: 0x0031 [0x00] END_REQSTACK()
```

### Event 79

#### Metadata

| Field        | Value   |
|--------------|---------|
| Entrypoint   | 0x0032  |
| Data Size    | 1 bytes |
| Instructions | 1       |

```
      00 01 02 03 04 05 06 07  08 09 0A 0B 0C 0D 0E 0F
      -- -- -- -- -- -- -- --  -- -- -- -- -- -- -- --
0030:       00                                            .             
```

#### Opcodes

```
  0: 0x0032 [0x00] END_REQSTACK()
```

### Event 50

#### Metadata

| Field        | Value   |
|--------------|---------|
| Entrypoint   | 0x0033  |
| Data Size    | 1 bytes |
| Instructions | 1       |

```
      00 01 02 03 04 05 06 07  08 09 0A 0B 0C 0D 0E 0F
      -- -- -- -- -- -- -- --  -- -- -- -- -- -- -- --
0030:          00                                          .            
```

#### Opcodes

```
  0: 0x0033 [0x00] END_REQSTACK()
```

### Event 49

#### Metadata

| Field        | Value   |
|--------------|---------|
| Entrypoint   | 0x0034  |
| Data Size    | 1 bytes |
| Instructions | 1       |

```
      00 01 02 03 04 05 06 07  08 09 0A 0B 0C 0D 0E 0F
      -- -- -- -- -- -- -- --  -- -- -- -- -- -- -- --
0030:             00                                        .           
```

#### Opcodes

```
  0: 0x0034 [0x00] END_REQSTACK()
```

### Event 65535.2

#### Metadata

| Field        | Value    |
|--------------|----------|
| Entrypoint   | 0x0035   |
| Data Size    | 10 bytes |
| Instructions | 2        |

```
      00 01 02 03 04 05 06 07  08 09 0A 0B 0C 0D 0E 0F
      -- -- -- -- -- -- -- --  -- -- -- -- -- -- -- --
0030:                37 07 80  08 80 09 80 0A 80 00          7......... 
```

#### Opcodes

```
  0: 0x0035 [0x37] UPDATE_EVENT_POSITION_AND_DIR: x=-40.585*, z=77.455*, y=-4.050*, direction=259.0°*
  1: 0x003E [0x00] END_REQSTACK()
```

### Event 65535.3

#### Metadata

| Field        | Value    |
|--------------|----------|
| Entrypoint   | 0x003F   |
| Data Size    | 14 bytes |
| Instructions | 4        |

```
      00 01 02 03 04 05 06 07  08 09 0A 0B 0C 0D 0E 0F
      -- -- -- -- -- -- -- --  -- -- -- -- -- -- -- --
0030:                                               32                 2
0040: 0B 80 1F 00 0C 80 0D 80  0E 80 1F 01 00           .............   
```

#### Opcodes

```
  0: 0x003F [0x32] ExtData[1]->MainSpeed = 13* * 0.1
  1: 0x0042 [0x1F] MOVE_ENTITY: EventEntity moves to X=-38.094*, Z=77.062*, Y=-3.751*
  2: 0x004A [0x1F] MOVE_ENTITY: Update entity position (mode=1)
  3: 0x004C [0x00] END_REQSTACK()
```

### Event 65535.4

#### Metadata

| Field        | Value    |
|--------------|----------|
| Entrypoint   | 0x004D   |
| Data Size    | 15 bytes |
| Instructions | 5        |

```
      00 01 02 03 04 05 06 07  08 09 0A 0B 0C 0D 0E 0F
      -- -- -- -- -- -- -- --  -- -- -- -- -- -- -- --
0040:                                         1F 00 07               ...
0050: 80 08 80 09 80 1F 01 6F  39 0A 80 00              .......o9...    
```

#### Opcodes

```
  0: 0x004D [0x1F] MOVE_ENTITY: EventEntity moves to X=-40.585*, Z=77.455*, Y=-4.050*
  1: 0x0055 [0x1F] MOVE_ENTITY: Update entity position (mode=1)
  2: 0x0057 [0x6F] WAIT_FRAME_DELAY: Yield until WaitTime reaches zero
  3: 0x0058 [0x39] SET_ENTITY_DIRECTION(direction=16.2°*)
  4: 0x005B [0x00] END_REQSTACK()
```

### Event 65535.5

#### Metadata

| Field        | Value    |
|--------------|----------|
| Entrypoint   | 0x005C   |
| Data Size    | 29 bytes |
| Instructions | 3        |

```
      00 01 02 03 04 05 06 07  08 09 0A 0B 0C 0D 0E 0F
      -- -- -- -- -- -- -- --  -- -- -- -- -- -- -- --
0050:                                      66 0F 80 F8              f...
0060: FF FF 7F F8 FF FF 7F 73  6C 30 30 53 F8 FF FF 7F  .......sl00S....
0070: F8 FF FF 7F 73 6C 30 30  00                       ....sl00.       
```

#### Opcodes

```
  0: 0x005C [0x66] LOAD_EXT_SCHEDULER_MAIN: Load scheduler "sl00" with entities [EventEntity, EventEntity], work=21*
  1: 0x006B [0x53] WAIT_SCHEDULER_TASK: Wait for scheduler "sl00" with entities [EventEntity, EventEntity]
  2: 0x0078 [0x00] END_REQSTACK()
```

### Event 65535.6

#### Metadata

| Field        | Value    |
|--------------|----------|
| Entrypoint   | 0x0079   |
| Data Size    | 16 bytes |
| Instructions | 2        |

```
      00 01 02 03 04 05 06 07  08 09 0A 0B 0C 0D 0E 0F
      -- -- -- -- -- -- -- --  -- -- -- -- -- -- -- --
0070:                             66 0F 80 F8 FF FF 7F           f......
0080: F8 FF FF 7F 73 6C 30 30  00                       ....sl00.       
```

#### Opcodes

```
  0: 0x0079 [0x66] LOAD_EXT_SCHEDULER_MAIN: Load scheduler "sl00" with entities [EventEntity, EventEntity], work=21*
  1: 0x0088 [0x00] END_REQSTACK()
```

### Event 65535.7

#### Metadata

| Field        | Value    |
|--------------|----------|
| Entrypoint   | 0x0089   |
| Data Size    | 14 bytes |
| Instructions | 2        |

```
      00 01 02 03 04 05 06 07  08 09 0A 0B 0C 0D 0E 0F
      -- -- -- -- -- -- -- --  -- -- -- -- -- -- -- --
0080:                             53 F8 FF FF 7F F8 FF           S......
0090: FF 7F 73 6C 30 30 00                              ..sl00.         
```

#### Opcodes

```
  0: 0x0089 [0x53] WAIT_SCHEDULER_TASK: Wait for scheduler "sl00" with entities [EventEntity, EventEntity]
  1: 0x0096 [0x00] END_REQSTACK()
```

### Event 553

#### Metadata

| Field        | Value   |
|--------------|---------|
| Entrypoint   | 0x0097  |
| Data Size    | 1 bytes |
| Instructions | 1       |

```
      00 01 02 03 04 05 06 07  08 09 0A 0B 0C 0D 0E 0F
      -- -- -- -- -- -- -- --  -- -- -- -- -- -- -- --
0090:                      00                                  .        
```

#### Opcodes

```
  0: 0x0097 [0x00] END_REQSTACK()
```

### Event 65535.8

#### Metadata

| Field        | Value    |
|--------------|----------|
| Entrypoint   | 0x0098   |
| Data Size    | 85 bytes |
| Instructions | 7        |

```
      00 01 02 03 04 05 06 07  08 09 0A 0B 0C 0D 0E 0F
      -- -- -- -- -- -- -- --  -- -- -- -- -- -- -- --
0090:                          45 10 80 F8 FF FF 7F F8          E.......
00A0: FF FF 7F 73 30 30 35 02  80 1C 11 80 52 10 80 F8  ...s005.....R...
00B0: FF FF 7F F8 FF FF 7F 73  30 30 35 45 12 80 F0 FF  .......s005E....
00C0: FF 7F F0 FF FF 7F 6F 76  6C 31 02 80 45 10 80 F8  ......ovl1..E...
00D0: FF FF 7F F8 FF FF 7F 73  30 30 36 02 80 55 10 80  .......s006..U..
00E0: F8 FF FF 7F F8 FF FF 7F  73 30 30 36 00           ........s006.   
```

#### Opcodes

```
  0: 0x0098 [0x45] LOAD_SCHEDULED_TASK: Load scheduler "s005" with entities [EventEntity, EventEntity], work=[49*, 0*]
  1: 0x00A9 [0x1C] WAIT(130* ticks)
  2: 0x00AC [0x52] END_LOAD_SCHEDULER: End scheduler "s005" with entities [EventEntity, EventEntity], work=49*
  3: 0x00BB [0x45] LOAD_SCHEDULED_TASK: Load scheduler "ovl1" with entities [LocalPlayer, LocalPlayer], work=[200*, 0*]
  4: 0x00CC [0x45] LOAD_SCHEDULED_TASK: Load scheduler "s006" with entities [EventEntity, EventEntity], work=[49*, 0*]
  5: 0x00DD [0x55] WAIT_LOAD_SCHEDULER: Wait for scheduler "s006" with entities [EventEntity, EventEntity], work=49*
  6: 0x00EC [0x00] END_REQSTACK()
```

### Event 65535.9

#### Metadata

| Field        | Value    |
|--------------|----------|
| Entrypoint   | 0x00ED   |
| Data Size    | 85 bytes |
| Instructions | 7        |

```
      00 01 02 03 04 05 06 07  08 09 0A 0B 0C 0D 0E 0F
      -- -- -- -- -- -- -- --  -- -- -- -- -- -- -- --
00E0:                                         45 10 80               E..
00F0: F8 FF FF 7F F8 FF FF 7F  73 30 30 35 02 80 1C 11  ........s005....
0100: 80 52 10 80 F8 FF FF 7F  F8 FF FF 7F 73 30 30 35  .R..........s005
0110: 45 12 80 F0 FF FF 7F F0  FF FF 7F 6F 76 6C 31 02  E..........ovl1.
0120: 80 45 10 80 F8 FF FF 7F  F8 FF FF 7F 73 30 31 34  .E..........s014
0130: 02 80 55 10 80 F8 FF FF  7F F8 FF FF 7F 73 30 31  ..U..........s01
0140: 34 00                                             4.              
```

#### Opcodes

```
  0: 0x00ED [0x45] LOAD_SCHEDULED_TASK: Load scheduler "s005" with entities [EventEntity, EventEntity], work=[49*, 0*]
  1: 0x00FE [0x1C] WAIT(130* ticks)
  2: 0x0101 [0x52] END_LOAD_SCHEDULER: End scheduler "s005" with entities [EventEntity, EventEntity], work=49*
  3: 0x0110 [0x45] LOAD_SCHEDULED_TASK: Load scheduler "ovl1" with entities [LocalPlayer, LocalPlayer], work=[200*, 0*]
  4: 0x0121 [0x45] LOAD_SCHEDULED_TASK: Load scheduler "s014" with entities [EventEntity, EventEntity], work=[49*, 0*]
  5: 0x0132 [0x55] WAIT_LOAD_SCHEDULER: Wait for scheduler "s014" with entities [EventEntity, EventEntity], work=49*
  6: 0x0141 [0x00] END_REQSTACK()
```

### Event 65535.10

#### Metadata

| Field        | Value    |
|--------------|----------|
| Entrypoint   | 0x0142   |
| Data Size    | 85 bytes |
| Instructions | 7        |

```
      00 01 02 03 04 05 06 07  08 09 0A 0B 0C 0D 0E 0F
      -- -- -- -- -- -- -- --  -- -- -- -- -- -- -- --
0140:       45 10 80 F8 FF FF  7F F8 FF FF 7F 73 30 30    E..........s00
0150: 35 02 80 1C 11 80 52 10  80 F8 FF FF 7F F8 FF FF  5.....R.........
0160: 7F 73 30 30 35 45 12 80  F0 FF FF 7F F0 FF FF 7F  .s005E..........
0170: 6F 76 6C 31 02 80 45 10  80 F8 FF FF 7F F8 FF FF  ovl1..E.........
0180: 7F 73 30 31 38 02 80 55  10 80 F8 FF FF 7F F8 FF  .s018..U........
0190: FF 7F 73 30 31 38 00                              ..s018.         
```

#### Opcodes

```
  0: 0x0142 [0x45] LOAD_SCHEDULED_TASK: Load scheduler "s005" with entities [EventEntity, EventEntity], work=[49*, 0*]
  1: 0x0153 [0x1C] WAIT(130* ticks)
  2: 0x0156 [0x52] END_LOAD_SCHEDULER: End scheduler "s005" with entities [EventEntity, EventEntity], work=49*
  3: 0x0165 [0x45] LOAD_SCHEDULED_TASK: Load scheduler "ovl1" with entities [LocalPlayer, LocalPlayer], work=[200*, 0*]
  4: 0x0176 [0x45] LOAD_SCHEDULED_TASK: Load scheduler "s018" with entities [EventEntity, EventEntity], work=[49*, 0*]
  5: 0x0187 [0x55] WAIT_LOAD_SCHEDULER: Wait for scheduler "s018" with entities [EventEntity, EventEntity], work=49*
  6: 0x0196 [0x00] END_REQSTACK()
```

### Event 65535.11

#### Metadata

| Field        | Value    |
|--------------|----------|
| Entrypoint   | 0x0197   |
| Data Size    | 85 bytes |
| Instructions | 7        |

```
      00 01 02 03 04 05 06 07  08 09 0A 0B 0C 0D 0E 0F
      -- -- -- -- -- -- -- --  -- -- -- -- -- -- -- --
0190:                      45  10 80 F8 FF FF 7F F8 FF         E........
01A0: FF 7F 73 30 30 35 02 80  1C 11 80 52 10 80 F8 FF  ..s005.....R....
01B0: FF 7F F8 FF FF 7F 73 30  30 35 45 12 80 F0 FF FF  ......s005E.....
01C0: 7F F0 FF FF 7F 6F 76 6C  31 02 80 45 10 80 F8 FF  .....ovl1..E....
01D0: FF 7F F8 FF FF 7F 73 30  31 36 02 80 55 10 80 F8  ......s016..U...
01E0: FF FF 7F F8 FF FF 7F 73  30 31 36 00              .......s016.    
```

#### Opcodes

```
  0: 0x0197 [0x45] LOAD_SCHEDULED_TASK: Load scheduler "s005" with entities [EventEntity, EventEntity], work=[49*, 0*]
  1: 0x01A8 [0x1C] WAIT(130* ticks)
  2: 0x01AB [0x52] END_LOAD_SCHEDULER: End scheduler "s005" with entities [EventEntity, EventEntity], work=49*
  3: 0x01BA [0x45] LOAD_SCHEDULED_TASK: Load scheduler "ovl1" with entities [LocalPlayer, LocalPlayer], work=[200*, 0*]
  4: 0x01CB [0x45] LOAD_SCHEDULED_TASK: Load scheduler "s016" with entities [EventEntity, EventEntity], work=[49*, 0*]
  5: 0x01DC [0x55] WAIT_LOAD_SCHEDULER: Wait for scheduler "s016" with entities [EventEntity, EventEntity], work=49*
  6: 0x01EB [0x00] END_REQSTACK()
```

### Event 65535.12

#### Metadata

| Field        | Value    |
|--------------|----------|
| Entrypoint   | 0x01EC   |
| Data Size    | 85 bytes |
| Instructions | 7        |

```
      00 01 02 03 04 05 06 07  08 09 0A 0B 0C 0D 0E 0F
      -- -- -- -- -- -- -- --  -- -- -- -- -- -- -- --
01E0:                                      45 10 80 F8              E...
01F0: FF FF 7F F8 FF FF 7F 73  30 30 35 02 80 1C 11 80  .......s005.....
0200: 52 10 80 F8 FF FF 7F F8  FF FF 7F 73 30 30 35 45  R..........s005E
0210: 12 80 F0 FF FF 7F F0 FF  FF 7F 6F 76 6C 31 02 80  ..........ovl1..
0220: 45 10 80 F8 FF FF 7F F8  FF FF 7F 73 30 31 39 02  E..........s019.
0230: 80 55 10 80 F8 FF FF 7F  F8 FF FF 7F 73 30 31 39  .U..........s019
0240: 00                                                .               
```

#### Opcodes

```
  0: 0x01EC [0x45] LOAD_SCHEDULED_TASK: Load scheduler "s005" with entities [EventEntity, EventEntity], work=[49*, 0*]
  1: 0x01FD [0x1C] WAIT(130* ticks)
  2: 0x0200 [0x52] END_LOAD_SCHEDULER: End scheduler "s005" with entities [EventEntity, EventEntity], work=49*
  3: 0x020F [0x45] LOAD_SCHEDULED_TASK: Load scheduler "ovl1" with entities [LocalPlayer, LocalPlayer], work=[200*, 0*]
  4: 0x0220 [0x45] LOAD_SCHEDULED_TASK: Load scheduler "s019" with entities [EventEntity, EventEntity], work=[49*, 0*]
  5: 0x0231 [0x55] WAIT_LOAD_SCHEDULER: Wait for scheduler "s019" with entities [EventEntity, EventEntity], work=49*
  6: 0x0240 [0x00] END_REQSTACK()
```

### Event 554

#### Metadata

| Field        | Value   |
|--------------|---------|
| Entrypoint   | 0x0241  |
| Data Size    | 1 bytes |
| Instructions | 1       |

```
      00 01 02 03 04 05 06 07  08 09 0A 0B 0C 0D 0E 0F
      -- -- -- -- -- -- -- --  -- -- -- -- -- -- -- --
0240:    00                                              .              
```

#### Opcodes

```
  0: 0x0241 [0x00] END_REQSTACK()
```

### Event 65535.13

#### Metadata

| Field        | Value    |
|--------------|----------|
| Entrypoint   | 0x0242   |
| Data Size    | 24 bytes |
| Instructions | 8        |

```
      00 01 02 03 04 05 06 07  08 09 0A 0B 0C 0D 0E 0F
      -- -- -- -- -- -- -- --  -- -- -- -- -- -- -- --
0240:       1C 13 80 32 14 80  1F 00 15 80 16 80 17 80    ...2..........
0250: 1F 01 1E 03 90 0E 01 6F  70 00                    .......op.      
```

#### Opcodes

```
  0: 0x0242 [0x1C] WAIT(60* ticks)
  1: 0x0245 [0x32] ExtData[1]->MainSpeed = 40* * 0.1
  2: 0x0248 [0x1F] MOVE_ENTITY: EventEntity moves to X=-38.731*, Z=69.925*, Y=-2.999*
  3: 0x0250 [0x1F] MOVE_ENTITY: Update entity position (mode=1)
  4: 0x0252 [0x1E] EventEntity looks at Trion (ID: 17731587/0x010E9003) and starts talking
  5: 0x0257 [0x6F] WAIT_FRAME_DELAY: Yield until WaitTime reaches zero
  6: 0x0258 [0x70] WAIT_ENTITY_RENDER_FLAG: Wait while EventEntity->Render.Flags3 bit 2 is set (cancel turn if not)
  7: 0x0259 [0x00] END_REQSTACK()
```

### Event 65535.14

#### Metadata

| Field        | Value    |
|--------------|----------|
| Entrypoint   | 0x025A   |
| Data Size    | 19 bytes |
| Instructions | 5        |

```
      00 01 02 03 04 05 06 07  08 09 0A 0B 0C 0D 0E 0F
      -- -- -- -- -- -- -- --  -- -- -- -- -- -- -- --
0250:                                29 08 1B 90 0E 01            ).....
0260: 0D 1D 18 80 23 29 08 1B  90 0E 01 0E 00           ....#).......   
```

#### Opcodes

```
  0: 0x025A [0x29] REQ_SET_WAIT(priority=0x08, entity_id=Perfaumand (ID: 17731611/0x010E901B), tag_num=0x0D)
  1: 0x0261 [0x1D] PRINT_EVENT_MESSAGE(message_id=7621*)
    → "Your Highness, Lady Curilla is in the quarters of the Temple Knights. As for Prince Pieuje..."
  2: 0x0264 [0x23] WAIT_FOR_DIALOG_INTERACTION
  3: 0x0265 [0x29] REQ_SET_WAIT(priority=0x08, entity_id=Perfaumand (ID: 17731611/0x010E901B), tag_num=0x0E)
  4: 0x026C [0x00] END_REQSTACK()
```

### Event 2

#### Metadata

| Field        | Value   |
|--------------|---------|
| Entrypoint   | 0x026D  |
| Data Size    | 1 bytes |
| Instructions | 1       |

```
      00 01 02 03 04 05 06 07  08 09 0A 0B 0C 0D 0E 0F
      -- -- -- -- -- -- -- --  -- -- -- -- -- -- -- --
0260:                                         00                     .  
```

#### Opcodes

```
  0: 0x026D [0x00] END_REQSTACK()
```

### Event 7

#### Metadata

| Field        | Value   |
|--------------|---------|
| Entrypoint   | 0x026E  |
| Data Size    | 1 bytes |
| Instructions | 1       |

```
      00 01 02 03 04 05 06 07  08 09 0A 0B 0C 0D 0E 0F
      -- -- -- -- -- -- -- --  -- -- -- -- -- -- -- --
0260:                                            00                   . 
```

#### Opcodes

```
  0: 0x026E [0x00] END_REQSTACK()
```

### Event 560

#### Metadata

| Field        | Value    |
|--------------|----------|
| Entrypoint   | 0x026F   |
| Data Size    | 52 bytes |
| Instructions | 12       |

```
      00 01 02 03 04 05 06 07  08 09 0A 0B 0C 0D 0E 0F
      -- -- -- -- -- -- -- --  -- -- -- -- -- -- -- --
0260:                                               42                 B
0270: 48 19 80 1E F0 FF FF 7F  1C 06 80 66 04 80 F8 FF  H..........f....
0280: FF 7F F8 FF FF 7F 74 6C  6B 30 1D 1A 80 23 1D 1B  ......tlk0...#..
0290: 80 23 66 04 80 F8 FF FF  7F F8 FF FF 7F 74 6C 6B  .#f..........tlk
02A0: 31 21 00                                          1!.             
```

#### Opcodes

```
  0: 0x026F [0x42] SET_CLI_EVENT_CANCEL_DATA()
  1: 0x0270 [0x48] [System] [8289*]:
    → "<Player>'s badge flashes brightly."
  2: 0x0273 [0x1E] EventEntity looks at LocalPlayer and starts talking
  3: 0x0278 [0x1C] WAIT(30* ticks)
  4: 0x027B [0x66] LOAD_EXT_SCHEDULER_MAIN: Load scheduler "tlk0" with entities [EventEntity, EventEntity], work=20*
  5: 0x028A [0x1D] PRINT_EVENT_MESSAGE(message_id=8297*)
    → "Is that one of those Near Eastern badges!? Remove it at once! If Prince Trion were to see you wearing one of those..."
  6: 0x028D [0x23] WAIT_FOR_DIALOG_INTERACTION
  7: 0x028E [0x1D] PRINT_EVENT_MESSAGE(message_id=8298*)
    → "Seeing all these people sporting mercenary badges has him in a volatile mood."
  8: 0x0291 [0x23] WAIT_FOR_DIALOG_INTERACTION
  9: 0x0292 [0x66] LOAD_EXT_SCHEDULER_MAIN: Load scheduler "tlk1" with entities [EventEntity, EventEntity], work=20*
 10: 0x02A1 [0x21] END_EVENT
 11: 0x02A2 [0x00] END_REQSTACK()
```

### Event 597

#### Metadata

| Field        | Value   |
|--------------|---------|
| Entrypoint   | 0x02A3  |
| Data Size    | 1 bytes |
| Instructions | 1       |

```
      00 01 02 03 04 05 06 07  08 09 0A 0B 0C 0D 0E 0F
      -- -- -- -- -- -- -- --  -- -- -- -- -- -- -- --
02A0:          00                                          .            
```

#### Opcodes

```
  0: 0x02A3 [0x00] END_REQSTACK()
```

### Event 604

#### Metadata

| Field        | Value   |
|--------------|---------|
| Entrypoint   | 0x02A4  |
| Data Size    | 1 bytes |
| Instructions | 1       |

```
      00 01 02 03 04 05 06 07  08 09 0A 0B 0C 0D 0E 0F
      -- -- -- -- -- -- -- --  -- -- -- -- -- -- -- --
02A0:             00                                        .           
```

#### Opcodes

```
  0: 0x02A4 [0x00] END_REQSTACK()
```

### Event 609

#### Metadata

| Field        | Value   |
|--------------|---------|
| Entrypoint   | 0x02A5  |
| Data Size    | 1 bytes |
| Instructions | 1       |

```
      00 01 02 03 04 05 06 07  08 09 0A 0B 0C 0D 0E 0F
      -- -- -- -- -- -- -- --  -- -- -- -- -- -- -- --
02A0:                00                                      .          
```

#### Opcodes

```
  0: 0x02A5 [0x00] END_REQSTACK()
```
