# 17731598 - Chalvatot

## Common Data

| Field            | Value                         |
|------------------|-------------------------------|
| Zone             | Chateau d'Oraguille (ID: 233) |
| Block Size       | 4620 bytes                    |
| Total Events     | 50                            |
| References Count | 110                           |

## List of Events

| Event ID                   | Entrypoint   |   Size |   Instructions |
|----------------------------|--------------|--------|----------------|
| [65535](#event-65535)      | 0x0000       |      1 |              1 |
| [76](#event-76)            | 0x0001       |      3 |              2 |
| [9](#event-9)              | 0x0004       |      1 |              1 |
| [65535.1](#event-655351)   | 0x0005       |     10 |              2 |
| [531](#event-531)          | 0x000F       |     29 |              7 |
| [111](#event-111)          | 0x002C       |     12 |              3 |
| [0](#event-0)              | 0x0038       |     10 |              2 |
| [65535.2](#event-655352)   | 0x0042       |     15 |              5 |
| [59](#event-59)            | 0x0051       |     13 |              7 |
| [539](#event-539)          | 0x005E       |     64 |             22 |
| [538](#event-538)          | 0x009E       |    759 |            119 |
| [84](#event-84)            | 0x0395       |    595 |            102 |
| [82](#event-82)            | 0x05E8       |     18 |              8 |
| [83](#event-83)            | 0x05FA       |    938 |            122 |
| [65535.3](#event-655353)   | 0x09A4       |     17 |              4 |
| [65535.4](#event-655354)   | 0x09B5       |     14 |              4 |
| [99](#event-99)            | 0x09C3       |     12 |              2 |
| [98](#event-98)            | 0x09CF       |      1 |              1 |
| [96](#event-96)            | 0x09D0       |      1 |              1 |
| [97](#event-97)            | 0x09D1       |     25 |              7 |
| [65535.5](#event-655355)   | 0x09EA       |      8 |              2 |
| [65535.6](#event-655356)   | 0x09F2       |     14 |              4 |
| [65535.7](#event-655357)   | 0x0A00       |     10 |              2 |
| [65535.8](#event-655358)   | 0x0A0A       |     19 |              3 |
| [65535.9](#event-655359)   | 0x0A1D       |      9 |              3 |
| [65535.10](#event-6553510) | 0x0A26       |    161 |             15 |
| [65535.11](#event-6553511) | 0x0AC7       |     16 |              2 |
| [65535.12](#event-6553512) | 0x0AD7       |     22 |              4 |
| [65535.13](#event-6553513) | 0x0AED       |     16 |              2 |
| [65535.14](#event-6553514) | 0x0AFD       |     14 |              2 |
| [65535.15](#event-6553515) | 0x0B0B       |     16 |              2 |
| [65535.16](#event-6553516) | 0x0B1B       |     14 |              2 |
| [65535.17](#event-6553517) | 0x0B29       |     16 |              2 |
| [65535.18](#event-6553518) | 0x0B39       |     14 |              2 |
| [65535.19](#event-6553519) | 0x0B47       |     16 |              2 |
| [65535.20](#event-6553520) | 0x0B57       |     14 |              2 |
| [65535.21](#event-6553521) | 0x0B65       |     12 |              4 |
| [556](#event-556)          | 0x0B71       |    902 |            113 |
| [65535.22](#event-6553522) | 0x0EF7       |     14 |              4 |
| [65535.23](#event-6553523) | 0x0F05       |      5 |              3 |
| [65535.24](#event-6553524) | 0x0F0A       |      5 |              3 |
| [65535.25](#event-6553525) | 0x0F0F       |      5 |              3 |
| [65535.26](#event-6553526) | 0x0F14       |      5 |              3 |
| [65535.27](#event-6553527) | 0x0F19       |      5 |              3 |
| [65535.28](#event-6553528) | 0x0F1E       |      5 |              3 |
| [561](#event-561)          | 0x0F23       |     56 |             14 |
| [584](#event-584)          | 0x0F5B       |      7 |              2 |
| [585](#event-585)          | 0x0F62       |      7 |              2 |
| [588](#event-588)          | 0x0F69       |      1 |              1 |
| [65535.29](#event-6553529) | 0x0F6A       |     15 |              5 |

## DAT References (imed_data)

|   Index | Hex Value   |   Dec Value |
|---------|-------------|-------------|
|       0 | 0x0AD2      |        2770 |
|       1 | 0xFFFFCCF8  |  4294954232 |
|       2 | 0x0000      |           0 |
|       3 | 0x0837      |        2103 |
|       4 | 0x001E      |          30 |
|       5 | 0x1C25      |        7205 |
|       6 | 0xFFFEA06C  |  4294877292 |
|       7 | 0x12DCA     |       77258 |
|       8 | 0x018E      |         398 |
|       9 | 0x0893      |        2195 |
|      10 | 0xFFFEA0D3  |  4294877395 |
|      11 | 0x12EDE     |       77534 |
|      12 | 0x0021      |          33 |
|      13 | 0x000D      |          13 |
|      14 | 0xFFFE8E7B  |  4294872699 |
|      15 | 0x129D2     |       76242 |
|      16 | 0x1DB4      |        7604 |
|      17 | 0x1C18      |        7192 |
|      18 | 0x003C      |          60 |
|      19 | 0x1C26      |        7206 |
|      20 | 0x1C27      |        7207 |
|      21 | 0x1C28      |        7208 |
|      22 | 0x0175      |         373 |
|      23 | 0x0085      |         133 |
|      24 | 0x0003      |           3 |
|      25 | 0x00C8      |         200 |
|      26 | 0x1C19      |        7193 |
|      27 | 0x1C1B      |        7195 |
|      28 | 0x1C1C      |        7196 |
|      29 | 0x007D      |         125 |
|      30 | 0x1C1D      |        7197 |
|      31 | 0x1C1E      |        7198 |
|      32 | 0x1C1F      |        7199 |
|      33 | 0x1C20      |        7200 |
|      34 | 0x1C21      |        7201 |
|      35 | 0x1C22      |        7202 |
|      36 | 0x1C23      |        7203 |
|      37 | 0x002D      |          45 |
|      38 | 0x00B4      |         180 |
|      39 | 0x1C24      |        7204 |
|      40 | 0x005A      |          90 |
|      41 | 0x0708      |        1800 |
|      42 | 0x0001      |           1 |
|      43 | 0x1CF5      |        7413 |
|      44 | 0x1CF2      |        7410 |
|      45 | 0x1CF4      |        7412 |
|      46 | 0x1CF3      |        7411 |
|      47 | 0x000F      |          15 |
|      48 | 0x0215      |         533 |
|      49 | 0x1CEA      |        7402 |
|      50 | 0x1CEB      |        7403 |
|      51 | 0x1CEC      |        7404 |
|      52 | 0x1CED      |        7405 |
|      53 | 0x1CEE      |        7406 |
|      54 | 0x1CEF      |        7407 |
|      55 | 0x1CF0      |        7408 |
|      56 | 0x1CF1      |        7409 |
|      57 | 0x0007      |           7 |
|      58 | 0x0006      |           6 |
|      59 | 0x1CD9      |        7385 |
|      60 | 0x0087      |         135 |
|      61 | 0x0078      |         120 |
|      62 | 0x0079      |         121 |
|      63 | 0x1CF6      |        7414 |
|      64 | 0x1CF7      |        7415 |
|      65 | 0x1CF8      |        7416 |
|      66 | 0x1CF9      |        7417 |
|      67 | 0x1CFA      |        7418 |
|      68 | 0x1CFB      |        7419 |
|      69 | 0x1CFC      |        7420 |
|      70 | 0x1CFD      |        7421 |
|      71 | 0x1CFE      |        7422 |
|      72 | 0x1CFF      |        7423 |
|      73 | 0x1D00      |        7424 |
|      74 | 0x1D01      |        7425 |
|      75 | 0x1D02      |        7426 |
|      76 | 0x00C9      |         201 |
|      77 | 0xFFFF6ED6  |  4294930134 |
|      78 | 0xA0EF      |       41199 |
|      79 | 0xFFFFF63C  |  4294964796 |
|      80 | 0x0BD0      |        3024 |
|      81 | 0xFFFF6F40  |  4294930240 |
|      82 | 0xB872      |       47218 |
|      83 | 0xFFFFFA8A  |  4294965898 |
|      84 | 0x1D4B      |        7499 |
|      85 | 0xFFFE6D6E  |  4294864238 |
|      86 | 0x118B1     |       71857 |
|      87 | 0x0064      |         100 |
|      88 | 0x0013      |          19 |
|      89 | 0x007F      |         127 |
|      90 | 0x0031      |          49 |
|      91 | 0x1DDF      |        7647 |
|      92 | 0x1DE0      |        7648 |
|      93 | 0x1DE1      |        7649 |
|      94 | 0x02DB      |         731 |
|      95 | 0x0050      |          80 |
|      96 | 0x009C      |         156 |
|      97 | 0xFFFE6CC6  |  4294864070 |
|      98 | 0x11D4D     |       73037 |
|      99 | 0x1DDC      |        7644 |
|     100 | 0x1DDD      |        7645 |
|     101 | 0x1DDE      |        7646 |
|     102 | 0x1DE2      |        7650 |
|     103 | 0x1DE5      |        7653 |
|     104 | 0x2061      |        8289 |
|     105 | 0x206B      |        8299 |
|     106 | 0x206C      |        8300 |
|     107 | 0x206D      |        8301 |
|     108 | 0xFFFE7C60  |  4294868064 |
|     109 | 0xF6CC      |       63180 |

## String References

- **7192**: Me name's Chalvatot. I be the gardener here, you see.
- **7193**: Don't reckon I've seen you before. A new recruit, are you?
- **7196**: Ah, Your Highness! This stranger just came bargin' in here, so I was about to tell--
- **7200**: Why, [he/she]'s but a vagrant! There's no need for Your Highness to address [him/her] so!
- **7204**: Hmph. Don't you get uppity, just because the princess saw fit to favor you with a few words. It don't mean a thing!
- **7205**: I'm busy. If you don't mind, I'd appreciate a little peace and quiet!
- **7206**: This garden be the memorial garden for our late Queen Leaute. She always loved flowers, and so she wanted to be buried here, you see.
- **7207**: You be an adventurer from abroad, no? If you've got a mission from the monarlais, you'd best be on it, quick.
- **7208**: That monarlais don't like dealing with you foreigners much. Come to think of it, neither do I!
- **7385**: Ah, almost forgot. You can find $0 in Derfland. If you are successful, I am sure Queen Leaute would be grateful.
- **7410**: Accept Chalvatot's request? [Accept./Decline.]
- **7604**: This place is not open to commoners, but since you're here, have a look. Queen Leaute would be pleased.
- **7644**: Ah, I know you. You're that adventurer <Player>. You want to know about the thieves that broke into the queen's chambers?
- **7645**: Well, I didn't see anything special. All I saw was two suspicious lookin' Elvaan. When I yelled at 'em, they ran off. That be all.
- **7646**: But I swear I seen me one before... The one with blue armor...
- **7649**: I am so sorry, Your Highness! Last night, some thieves broke into the late queen's chambers!
- **7650**: And to make matters worse, the scoundrels are still on the loose! Oh, what has become of the once mighty Chateau d'Oraguille?
- **7653**: Your Highness? You say you saw something out of the ordinary?
- **8289**: <Player>'s badge flashes brightly.
- **8299**: You wear a badge of the land of Aht Urhgan.
- **8300**: Queen Leaute brought many plants from her homeland of Tavnazia to fill this garden, including a few that originated in the Near East.
- **8301**: That one there with the large flowers is such a specimen. I hear they enhance the blooms with alchemical processes.

## Events

### Event 65535

#### Metadata

| Field        | Value   |
|--------------|---------|
| Entrypoint   | 0x0000  |
| Data Size    | 1 bytes |
| Instructions | 1       |

```
      00 01 02 03 04 05 06 07  08 09 0A 0B 0C 0D 0E 0F
      -- -- -- -- -- -- -- --  -- -- -- -- -- -- -- --
0000: 00                                                .               
```

#### Opcodes

```
  0: 0x0000 [0x00] END_REQSTACK()
```

### Event 76

#### Metadata

| Field        | Value   |
|--------------|---------|
| Entrypoint   | 0x0001  |
| Data Size    | 3 bytes |
| Instructions | 2       |

```
      00 01 02 03 04 05 06 07  08 09 0A 0B 0C 0D 0E 0F
      -- -- -- -- -- -- -- --  -- -- -- -- -- -- -- --
0000:    22 01 00                                        "..            
```

#### Opcodes

```
  0: 0x0001 [0x22] ENTITY_HIDE_FLAG(enabled=0x01)
  1: 0x0003 [0x00] END_REQSTACK()
```

### Event 9

#### Metadata

| Field        | Value   |
|--------------|---------|
| Entrypoint   | 0x0004  |
| Data Size    | 1 bytes |
| Instructions | 1       |

```
      00 01 02 03 04 05 06 07  08 09 0A 0B 0C 0D 0E 0F
      -- -- -- -- -- -- -- --  -- -- -- -- -- -- -- --
0000:             00                                        .           
```

#### Opcodes

```
  0: 0x0004 [0x00] END_REQSTACK()
```

### Event 65535.1

#### Metadata

| Field        | Value    |
|--------------|----------|
| Entrypoint   | 0x0005   |
| Data Size    | 10 bytes |
| Instructions | 2        |

```
      00 01 02 03 04 05 06 07  08 09 0A 0B 0C 0D 0E 0F
      -- -- -- -- -- -- -- --  -- -- -- -- -- -- -- --
0000:                37 00 80  01 80 02 80 03 80 00          7......... 
```

#### Opcodes

```
  0: 0x0005 [0x37] UPDATE_EVENT_POSITION_AND_DIR: x=2.770*, z=-13.064*, y=0.000*, direction=184.8°*
  1: 0x000E [0x00] END_REQSTACK()
```

### Event 531

#### Metadata

| Field        | Value    |
|--------------|----------|
| Entrypoint   | 0x000F   |
| Data Size    | 29 bytes |
| Instructions | 7        |

```
      00 01 02 03 04 05 06 07  08 09 0A 0B 0C 0D 0E 0F
      -- -- -- -- -- -- -- --  -- -- -- -- -- -- -- --
0000:                                               5B                 [
0010: 04 80 F8 FF FF 7F F8 FF  FF 7F 74 6C 6B 30 1D 05  ..........tlk0..
0020: 80 23 5E 69 64 6C 30 1C  04 80 21 00              .#^idl0...!.    
```

#### Opcodes

```
  0: 0x000F [0x5B] LOAD_EXT_SCHEDULER: Load scheduler "tlk0" with entities [EventEntity, EventEntity], work=30*
  1: 0x001E [0x1D] PRINT_EVENT_MESSAGE(message_id=7205*)
    → "I'm busy. If you don't mind, I'd appreciate a little peace and quiet!"
  2: 0x0021 [0x23] WAIT_FOR_DIALOG_INTERACTION
  3: 0x0022 [0x5E] EventEntity goes idle (kills current action) (animation: "idl0")
  4: 0x0027 [0x1C] WAIT(30* ticks)
  5: 0x002A [0x21] END_EVENT
  6: 0x002B [0x00] END_REQSTACK()
```

### Event 111

#### Metadata

| Field        | Value    |
|--------------|----------|
| Entrypoint   | 0x002C   |
| Data Size    | 12 bytes |
| Instructions | 3        |

```
      00 01 02 03 04 05 06 07  08 09 0A 0B 0C 0D 0E 0F
      -- -- -- -- -- -- -- --  -- -- -- -- -- -- -- --
0020:                                      22 01 37 06              ".7.
0030: 80 07 80 08 80 09 80 00                           ........        
```

#### Opcodes

```
  0: 0x002C [0x22] ENTITY_HIDE_FLAG(enabled=0x01)
  1: 0x002E [0x37] UPDATE_EVENT_POSITION_AND_DIR: x=-90.004*, z=77.258*, y=0.398*, direction=192.9°*
  2: 0x0037 [0x00] END_REQSTACK()
```

### Event 0

#### Metadata

| Field        | Value    |
|--------------|----------|
| Entrypoint   | 0x0038   |
| Data Size    | 10 bytes |
| Instructions | 2        |

```
      00 01 02 03 04 05 06 07  08 09 0A 0B 0C 0D 0E 0F
      -- -- -- -- -- -- -- --  -- -- -- -- -- -- -- --
0030:                          37 0A 80 0B 80 08 80 0C          7.......
0040: 80 00                                             ..              
```

#### Opcodes

```
  0: 0x0038 [0x37] UPDATE_EVENT_POSITION_AND_DIR: x=-89.901*, z=77.534*, y=0.398*, direction=2.9°*
  1: 0x0041 [0x00] END_REQSTACK()
```

### Event 65535.2

#### Metadata

| Field        | Value    |
|--------------|----------|
| Entrypoint   | 0x0042   |
| Data Size    | 15 bytes |
| Instructions | 5        |

```
      00 01 02 03 04 05 06 07  08 09 0A 0B 0C 0D 0E 0F
      -- -- -- -- -- -- -- --  -- -- -- -- -- -- -- --
0040:       32 0D 80 1F 00 0E  80 0F 80 08 80 1F 01 6F    2............o
0050: 00                                                .               
```

#### Opcodes

```
  0: 0x0042 [0x32] ExtData[1]->MainSpeed = 13* * 0.1
  1: 0x0045 [0x1F] MOVE_ENTITY: EventEntity moves to X=-94.597*, Z=76.242*, Y=0.398*
  2: 0x004D [0x1F] MOVE_ENTITY: Update entity position (mode=1)
  3: 0x004F [0x6F] WAIT_FRAME_DELAY: Yield until WaitTime reaches zero
  4: 0x0050 [0x00] END_REQSTACK()
```

### Event 59

#### Metadata

| Field        | Value    |
|--------------|----------|
| Entrypoint   | 0x0051   |
| Data Size    | 13 bytes |
| Instructions | 7        |

```
      00 01 02 03 04 05 06 07  08 09 0A 0B 0C 0D 0E 0F
      -- -- -- -- -- -- -- --  -- -- -- -- -- -- -- --
0050:    1E F0 FF FF 7F 6F 70  1D 10 80 23 21 00         .....op...#!.  
```

#### Opcodes

```
  0: 0x0051 [0x1E] EventEntity looks at LocalPlayer and starts talking
  1: 0x0056 [0x6F] WAIT_FRAME_DELAY: Yield until WaitTime reaches zero
  2: 0x0057 [0x70] WAIT_ENTITY_RENDER_FLAG: Wait while EventEntity->Render.Flags3 bit 2 is set (cancel turn if not)
  3: 0x0058 [0x1D] PRINT_EVENT_MESSAGE(message_id=7604*)
    → "This place is not open to commoners, but since you're here, have a look. Queen Leaute would be pleased."
  4: 0x005B [0x23] WAIT_FOR_DIALOG_INTERACTION
  5: 0x005C [0x21] END_EVENT
  6: 0x005D [0x00] END_REQSTACK()
```

### Event 539

#### Metadata

| Field        | Value    |
|--------------|----------|
| Entrypoint   | 0x005E   |
| Data Size    | 64 bytes |
| Instructions | 22       |

```
      00 01 02 03 04 05 06 07  08 09 0A 0B 0C 0D 0E 0F
      -- -- -- -- -- -- -- --  -- -- -- -- -- -- -- --
0050:                                            1E F0                ..
0060: FF FF 7F 6F 70 5B 04 80  F8 FF FF 7F F8 FF FF 7F  ...op[..........
0070: 74 6C 6B 30 1D 11 80 23  1C 12 80 1D 13 80 23 1C  tlk0...#......#.
0080: 12 80 1D 14 80 23 1C 12  80 1D 15 80 23 1C 12 80  .....#......#...
0090: 1D 05 80 23 5E 69 64 6C  30 1C 04 80 21 00        ...#^idl0...!.  
```

#### Opcodes

```
  0: 0x005E [0x1E] EventEntity looks at LocalPlayer and starts talking
  1: 0x0063 [0x6F] WAIT_FRAME_DELAY: Yield until WaitTime reaches zero
  2: 0x0064 [0x70] WAIT_ENTITY_RENDER_FLAG: Wait while EventEntity->Render.Flags3 bit 2 is set (cancel turn if not)
  3: 0x0065 [0x5B] LOAD_EXT_SCHEDULER: Load scheduler "tlk0" with entities [EventEntity, EventEntity], work=30*
  4: 0x0074 [0x1D] PRINT_EVENT_MESSAGE(message_id=7192*)
    → "Me name's Chalvatot. I be the gardener here, you see."
  5: 0x0077 [0x23] WAIT_FOR_DIALOG_INTERACTION
  6: 0x0078 [0x1C] WAIT(60* ticks)
  7: 0x007B [0x1D] PRINT_EVENT_MESSAGE(message_id=7206*)
    → "This garden be the memorial garden for our late Queen Leaute. She always loved flowers, and so she wanted to be buried here, you see."
  8: 0x007E [0x23] WAIT_FOR_DIALOG_INTERACTION
  9: 0x007F [0x1C] WAIT(60* ticks)
 10: 0x0082 [0x1D] PRINT_EVENT_MESSAGE(message_id=7207*)
    → "You be an adventurer from abroad, no? If you've got a mission from the monarlais, you'd best be on it, quick."
 11: 0x0085 [0x23] WAIT_FOR_DIALOG_INTERACTION
 12: 0x0086 [0x1C] WAIT(60* ticks)
 13: 0x0089 [0x1D] PRINT_EVENT_MESSAGE(message_id=7208*)
    → "That monarlais don't like dealing with you foreigners much. Come to think of it, neither do I!"
 14: 0x008C [0x23] WAIT_FOR_DIALOG_INTERACTION
 15: 0x008D [0x1C] WAIT(60* ticks)
 16: 0x0090 [0x1D] PRINT_EVENT_MESSAGE(message_id=7205*)
    → "I'm busy. If you don't mind, I'd appreciate a little peace and quiet!"
 17: 0x0093 [0x23] WAIT_FOR_DIALOG_INTERACTION
 18: 0x0094 [0x5E] EventEntity goes idle (kills current action) (animation: "idl0")
 19: 0x0099 [0x1C] WAIT(30* ticks)
 20: 0x009C [0x21] END_EVENT
 21: 0x009D [0x00] END_REQSTACK()
```

### Event 538

#### Metadata

| Field        | Value     |
|--------------|-----------|
| Entrypoint   | 0x009E    |
| Data Size    | 759 bytes |
| Instructions | 119       |

```
      00 01 02 03 04 05 06 07  08 09 0A 0B 0C 0D 0E 0F
      -- -- -- -- -- -- -- --  -- -- -- -- -- -- -- --
0090:                                            42 75                Bu
00A0: 00 16 80 75 01 46 01 45  17 80 F0 FF FF 7F F0 FF  ...u.F.E........
00B0: FF 7F 73 30 30 37 02 80  38 18 80 27 65 F0 FF FF  ..s007..8..'e...
00C0: 7F 44 2A 65 F0 FF FF 7F  45 19 80 F0 FF FF 7F F0  .D*e....E.......
00D0: FF FF 7F 66 64 69 31 02  80 55 17 80 F0 FF FF 7F  ...fdi1..U......
00E0: F0 FF FF 7F 73 30 30 37  1C 04 80 1E F0 FF FF 7F  ....s007........
00F0: 6F 70 5B 04 80 F8 FF FF  7F F8 FF FF 7F 74 6C 6B  op[..........tlk
0100: 30 1D 11 80 23 1C 12 80  45 17 80 F0 FF FF 7F F0  0...#...E.......
0110: FF FF 7F 73 30 31 30 02  80 1C 04 80 1D 1A 80 23  ...s010........#
0120: 5E 69 64 6C 30 1C 12 80  27 64 06 90 0E 01 13 2A  ^idl0...'d.....*
0130: 64 06 90 0E 01 27 64 06  90 0E 01 14 2A 64 06 90  d....'d.....*d..
0140: 0E 01 79 00 0E 90 0E 01  06 90 0E 01 2B 06 90 0E  ..y.........+...
0150: 01 1B 80 23 1C 12 80 27  64 06 90 0E 01 15 1C 12  ...#...'d.......
0160: 80 1E 06 90 0E 01 6F 70  45 17 80 F0 FF FF 7F F0  ......opE.......
0170: FF FF 7F 73 30 30 38 02  80 5B 04 80 F8 FF FF 7F  ...s008..[......
0180: F8 FF FF 7F 74 6C 6B 30  1D 1C 80 23 27 65 F0 FF  ....tlk0...#'e..
0190: FF 7F 46 2A 64 06 90 0E  01 1C 12 80 27 64 06 90  ..F*d.......'d..
01A0: 0E 01 16 2A 64 06 90 0E  01 45 17 80 F0 FF FF 7F  ...*d....E......
01B0: F0 FF FF 7F 73 30 30 39  02 80 1C 04 80 81 00 06  ....s009........
01C0: 90 0E 01 5B 1D 80 06 90  0E 01 06 90 0E 01 74 68  ...[..........th
01D0: 6B 31 2B 06 90 0E 01 1E  80 23 1C 12 80 81 01 06  k1+......#......
01E0: 90 0E 01 5B 1D 80 06 90  0E 01 06 90 0E 01 74 68  ...[..........th
01F0: 6B 32 1C 04 80 5B 1D 80  06 90 0E 01 06 90 0E 01  k2...[..........
0200: 6F 67 61 30 2B 06 90 0E  01 1F 80 23 1C 12 80 5B  oga0+......#...[
0210: 1D 80 06 90 0E 01 06 90  0E 01 6F 67 61 31 1C 04  ..........oga1..
0220: 80 5B 1D 80 06 90 0E 01  06 90 0E 01 74 6C 6B 30  .[..........tlk0
0230: 2B 06 90 0E 01 20 80 23  1C 04 80 45 17 80 F0 FF  +.... .#...E....
0240: FF 7F F0 FF FF 7F 73 30  31 31 02 80 5B 04 80 F8  ......s011..[...
0250: FF FF 7F F8 FF FF 7F 74  6C 6B 30 1D 21 80 23 1C  .......tlk0.!.#.
0260: 04 80 6B 69 64 6C 30 F8  FF FF 7F 4A 06 90 0E 01  ..kidl0....J....
0270: 0E 90 0E 01 6F 76 06 90  0E 01 45 17 80 F0 FF FF  ....ov....E.....
0280: 7F F0 FF FF 7F 73 30 30  39 02 80 2B 06 90 0E 01  .....s009..+....
0290: 22 80 23 1C 04 80 5B 1D  80 06 90 0E 01 06 90 0E  ".#...[.........
02A0: 01 74 6C 6B 31 4A 06 90  0E 01 F0 FF FF 7F 6F 76  .tlk1J........ov
02B0: 06 90 0E 01 5B 1D 80 06  90 0E 01 06 90 0E 01 6F  ....[..........o
02C0: 67 61 30 2B 06 90 0E 01  23 80 23 1C 04 80 5B 1D  ga0+....#.#...[.
02D0: 80 06 90 0E 01 06 90 0E  01 6F 67 61 31 1C 12 80  .........oga1...
02E0: 5B 1D 80 06 90 0E 01 06  90 0E 01 74 6C 6B 30 2B  [..........tlk0+
02F0: 06 90 0E 01 24 80 23 1C  12 80 79 00 0E 90 0E 01  ....$.#...y.....
0300: F0 FF FF 7F 5B 1D 80 06  90 0E 01 06 90 0E 01 74  ....[..........t
0310: 6C 6B 31 45 17 80 F0 FF  FF 7F F0 FF FF 7F 73 30  lk1E..........s0
0320: 30 38 02 80 1C 12 80 27  64 06 90 0E 01 17 1C 25  08.....'d......%
0330: 80 79 00 0E 90 0E 01 06  90 0E 01 1C 26 80 1E F0  .y..........&...
0340: FF FF 7F 45 17 80 F0 FF  FF 7F F0 FF FF 7F 73 30  ...E..........s0
0350: 31 30 02 80 27 65 F0 FF  FF 7F 43 6F 70 5B 04 80  10..'e....Cop[..
0360: F8 FF FF 7F F8 FF FF 7F  74 6C 6B 30 1D 27 80 23  ........tlk0.'.#
0370: 1C 28 80 39 29 80 5B 04  80 F8 FF FF 7F F8 FF FF  .(.9).[.........
0380: 7F 74 6C 6B 30 1D 05 80  23 5E 69 64 6C 30 1C 12  .tlk0...#^idl0..
0390: 80 46 00 21 00                                    .F.!.           
```

#### Opcodes

```
  0: 0x009E [0x42] SET_CLI_EVENT_CANCEL_DATA()
  1: 0x009F [0x75] LOAD_ROOM(Load indoor room, room=373*)
  2: 0x00A3 [0x75] LOAD_ROOM(No action)
  3: 0x00A5 [0x46] CAMERA_CONTROL: Disable user control
  4: 0x00A7 [0x45] LOAD_SCHEDULED_TASK: Load scheduler "s007" with entities [LocalPlayer, LocalPlayer], work=[133*, 0*]
  5: 0x00B8 [0x38] SET_CLIENT_EVENT_MODE(mode=3*)
  6: 0x00BB [0x27] REQ_SET(priority=0x65, entity_id=LocalPlayer, tag_num=0x44)
  7: 0x00C2 [0x2A] GET_REQ_LEVEL(level=101, entity_id=LocalPlayer)
  8: 0x00C8 [0x45] LOAD_SCHEDULED_TASK: Load scheduler "fdi1" with entities [LocalPlayer, LocalPlayer], work=[200*, 0*]
  9: 0x00D9 [0x55] WAIT_LOAD_SCHEDULER: Wait for scheduler "s007" with entities [LocalPlayer, LocalPlayer], work=133*
 10: 0x00E8 [0x1C] WAIT(30* ticks)
 11: 0x00EB [0x1E] EventEntity looks at LocalPlayer and starts talking
 12: 0x00F0 [0x6F] WAIT_FRAME_DELAY: Yield until WaitTime reaches zero
 13: 0x00F1 [0x70] WAIT_ENTITY_RENDER_FLAG: Wait while EventEntity->Render.Flags3 bit 2 is set (cancel turn if not)
 14: 0x00F2 [0x5B] LOAD_EXT_SCHEDULER: Load scheduler "tlk0" with entities [EventEntity, EventEntity], work=30*
 15: 0x0101 [0x1D] PRINT_EVENT_MESSAGE(message_id=7192*)
    → "Me name's Chalvatot. I be the gardener here, you see."
 16: 0x0104 [0x23] WAIT_FOR_DIALOG_INTERACTION
 17: 0x0105 [0x1C] WAIT(60* ticks)
 18: 0x0108 [0x45] LOAD_SCHEDULED_TASK: Load scheduler "s010" with entities [LocalPlayer, LocalPlayer], work=[133*, 0*]
 19: 0x0119 [0x1C] WAIT(30* ticks)
 20: 0x011C [0x1D] PRINT_EVENT_MESSAGE(message_id=7193*)
    → "Don't reckon I've seen you before. A new recruit, are you?"
 21: 0x011F [0x23] WAIT_FOR_DIALOG_INTERACTION
 22: 0x0120 [0x5E] EventEntity goes idle (kills current action) (animation: "idl0")
 23: 0x0125 [0x1C] WAIT(60* ticks)
 24: 0x0128 [0x27] REQ_SET(priority=0x64, entity_id=Claidie (ID: 17731590/0x010E9006), tag_num=0x13)
 25: 0x012F [0x2A] GET_REQ_LEVEL(level=100, entity_id=Claidie (ID: 17731590/0x010E9006))
 26: 0x0135 [0x27] REQ_SET(priority=0x64, entity_id=Claidie (ID: 17731590/0x010E9006), tag_num=0x14)
 27: 0x013C [0x2A] GET_REQ_LEVEL(level=100, entity_id=Claidie (ID: 17731590/0x010E9006))
 28: 0x0142 [0x79] Chalvatot (ID: 17731598/0x010E900E) looks at Claidie (ID: 17731590/0x010E9006) (Basic look)
 29: 0x014C [0x2B] Claidie (ID: 17731590/0x010E9006) [7195*]:
    → "What is the matter, Chalvatot?"
 30: 0x0153 [0x23] WAIT_FOR_DIALOG_INTERACTION
 31: 0x0154 [0x1C] WAIT(60* ticks)
 32: 0x0157 [0x27] REQ_SET(priority=0x64, entity_id=Claidie (ID: 17731590/0x010E9006), tag_num=0x15)
 33: 0x015E [0x1C] WAIT(60* ticks)
 34: 0x0161 [0x1E] EventEntity looks at Claidie (ID: 17731590/0x010E9006) and starts talking
 35: 0x0166 [0x6F] WAIT_FRAME_DELAY: Yield until WaitTime reaches zero
 36: 0x0167 [0x70] WAIT_ENTITY_RENDER_FLAG: Wait while EventEntity->Render.Flags3 bit 2 is set (cancel turn if not)
 37: 0x0168 [0x45] LOAD_SCHEDULED_TASK: Load scheduler "s008" with entities [LocalPlayer, LocalPlayer], work=[133*, 0*]
 38: 0x0179 [0x5B] LOAD_EXT_SCHEDULER: Load scheduler "tlk0" with entities [EventEntity, EventEntity], work=30*
 39: 0x0188 [0x1D] PRINT_EVENT_MESSAGE(message_id=7196*)
    → "Ah, Your Highness! This stranger just came bargin' in here, so I was about to tell--"
 40: 0x018B [0x23] WAIT_FOR_DIALOG_INTERACTION
 41: 0x018C [0x27] REQ_SET(priority=0x65, entity_id=LocalPlayer, tag_num=0x46)
 42: 0x0193 [0x2A] GET_REQ_LEVEL(level=100, entity_id=Claidie (ID: 17731590/0x010E9006))
 43: 0x0199 [0x1C] WAIT(60* ticks)
 44: 0x019C [0x27] REQ_SET(priority=0x64, entity_id=Claidie (ID: 17731590/0x010E9006), tag_num=0x16)
 45: 0x01A3 [0x2A] GET_REQ_LEVEL(level=100, entity_id=Claidie (ID: 17731590/0x010E9006))
 46: 0x01A9 [0x45] LOAD_SCHEDULED_TASK: Load scheduler "s009" with entities [LocalPlayer, LocalPlayer], work=[133*, 0*]
 47: 0x01BA [0x1C] WAIT(30* ticks)
 48: 0x01BD [0x81] SET_ENTITY_BLINKING(blink_flag=0x00, entity=Claidie (ID: 17731590/0x010E9006))
 49: 0x01C3 [0x5B] LOAD_EXT_SCHEDULER: Load scheduler "thk1" with entities [Claidie (ID: 17731590/0x010E9006), Claidie (ID: 17731590/0x010E9006)], work=125*
 50: 0x01D2 [0x2B] Claidie (ID: 17731590/0x010E9006) [7197*]:
    → "Wait... I've heard of someone like you."
 51: 0x01D9 [0x23] WAIT_FOR_DIALOG_INTERACTION
 52: 0x01DA [0x1C] WAIT(60* ticks)
 53: 0x01DD [0x81] SET_ENTITY_BLINKING(blink_flag=0x01, entity=Claidie (ID: 17731590/0x010E9006))
 54: 0x01E3 [0x5B] LOAD_EXT_SCHEDULER: Load scheduler "thk2" with entities [Claidie (ID: 17731590/0x010E9006), Claidie (ID: 17731590/0x010E9006)], work=125*
 55: 0x01F2 [0x1C] WAIT(30* ticks)
 56: 0x01F5 [0x5B] LOAD_EXT_SCHEDULER: Load scheduler "oga0" with entities [Claidie (ID: 17731590/0x010E9006), Claidie (ID: 17731590/0x010E9006)], work=125*
 57: 0x0204 [0x2B] Claidie (ID: 17731590/0x010E9006) [7198*]:
    → "Why, you're a new adventurer, are you not?"
 58: 0x020B [0x23] WAIT_FOR_DIALOG_INTERACTION
 59: 0x020C [0x1C] WAIT(60* ticks)
 60: 0x020F [0x5B] LOAD_EXT_SCHEDULER: Load scheduler "oga1" with entities [Claidie (ID: 17731590/0x010E9006), Claidie (ID: 17731590/0x010E9006)], work=125*
 61: 0x021E [0x1C] WAIT(30* ticks)
 62: 0x0221 [0x5B] LOAD_EXT_SCHEDULER: Load scheduler "tlk0" with entities [Claidie (ID: 17731590/0x010E9006), Claidie (ID: 17731590/0x010E9006)], work=125*
 63: 0x0230 [0x2B] Claidie (ID: 17731590/0x010E9006) [7199*]:
    → "My name is Claidie I d'Oraguille."
 64: 0x0237 [0x23] WAIT_FOR_DIALOG_INTERACTION
 65: 0x0238 [0x1C] WAIT(30* ticks)
 66: 0x023B [0x45] LOAD_SCHEDULED_TASK: Load scheduler "s011" with entities [LocalPlayer, LocalPlayer], work=[133*, 0*]
 67: 0x024C [0x5B] LOAD_EXT_SCHEDULER: Load scheduler "tlk0" with entities [EventEntity, EventEntity], work=30*
 68: 0x025B [0x1D] PRINT_EVENT_MESSAGE(message_id=7200*)
    → "Why, [he/she]'s but a vagrant! There's no need for Your Highness to address [him/her] so!"
 69: 0x025E [0x23] WAIT_FOR_DIALOG_INTERACTION
 70: 0x025F [0x1C] WAIT(30* ticks)
 71: 0x0262 [0x6B] STOP_AND_IDLE: EventEntity stops current action and resets to idle (animation="idl0")
 72: 0x026B [0x4A] Claidie (ID: 17731590/0x010E9006) looks at Chalvatot (ID: 17731598/0x010E900E)
 73: 0x0274 [0x6F] WAIT_FRAME_DELAY: Yield until WaitTime reaches zero
 74: 0x0275 [0x76] CHECK_ENTITY_RENDER_FLAGS: Wait until Claidie (ID: 17731590/0x010E9006) Render.Flags0 and Render.Flags3 conditions are met
 75: 0x027A [0x45] LOAD_SCHEDULED_TASK: Load scheduler "s009" with entities [LocalPlayer, LocalPlayer], work=[133*, 0*]
 76: 0x028B [0x2B] Claidie (ID: 17731590/0x010E9006) [7201*]:
    → "Now, now, Chalvatot. [He/She] has come to bolster the strength of our kingdom. Adventurers deserve our gratitude!"
 77: 0x0292 [0x23] WAIT_FOR_DIALOG_INTERACTION
 78: 0x0293 [0x1C] WAIT(30* ticks)
 79: 0x0296 [0x5B] LOAD_EXT_SCHEDULER: Load scheduler "tlk1" with entities [Claidie (ID: 17731590/0x010E9006), Claidie (ID: 17731590/0x010E9006)], work=125*
 80: 0x02A5 [0x4A] Claidie (ID: 17731590/0x010E9006) looks at LocalPlayer
 81: 0x02AE [0x6F] WAIT_FRAME_DELAY: Yield until WaitTime reaches zero
 82: 0x02AF [0x76] CHECK_ENTITY_RENDER_FLAGS: Wait until Claidie (ID: 17731590/0x010E9006) Render.Flags0 and Render.Flags3 conditions are met
 83: 0x02B4 [0x5B] LOAD_EXT_SCHEDULER: Load scheduler "oga0" with entities [Claidie (ID: 17731590/0x010E9006), Claidie (ID: 17731590/0x010E9006)], work=125*
 84: 0x02C3 [0x2B] Claidie (ID: 17731590/0x010E9006) [7202*]:
    → "You are <Player>, are you not? Forgive this rude reception."
 85: 0x02CA [0x23] WAIT_FOR_DIALOG_INTERACTION
 86: 0x02CB [0x1C] WAIT(30* ticks)
 87: 0x02CE [0x5B] LOAD_EXT_SCHEDULER: Load scheduler "oga1" with entities [Claidie (ID: 17731590/0x010E9006), Claidie (ID: 17731590/0x010E9006)], work=125*
 88: 0x02DD [0x1C] WAIT(60* ticks)
 89: 0x02E0 [0x5B] LOAD_EXT_SCHEDULER: Load scheduler "tlk0" with entities [Claidie (ID: 17731590/0x010E9006), Claidie (ID: 17731590/0x010E9006)], work=125*
 90: 0x02EF [0x2B] Claidie (ID: 17731590/0x010E9006) [7203*]:
    → "Strive always for the glory of our kingdom! May we meet again, <Player>."
 91: 0x02F6 [0x23] WAIT_FOR_DIALOG_INTERACTION
 92: 0x02F7 [0x1C] WAIT(60* ticks)
 93: 0x02FA [0x79] Chalvatot (ID: 17731598/0x010E900E) looks at LocalPlayer (Basic look)
 94: 0x0304 [0x5B] LOAD_EXT_SCHEDULER: Load scheduler "tlk1" with entities [Claidie (ID: 17731590/0x010E9006), Claidie (ID: 17731590/0x010E9006)], work=125*
 95: 0x0313 [0x45] LOAD_SCHEDULED_TASK: Load scheduler "s008" with entities [LocalPlayer, LocalPlayer], work=[133*, 0*]
 96: 0x0324 [0x1C] WAIT(60* ticks)
 97: 0x0327 [0x27] REQ_SET(priority=0x64, entity_id=Claidie (ID: 17731590/0x010E9006), tag_num=0x17)
 98: 0x032E [0x1C] WAIT(45* ticks)
 99: 0x0331 [0x79] Chalvatot (ID: 17731598/0x010E900E) looks at Claidie (ID: 17731590/0x010E9006) (Basic look)
100: 0x033B [0x1C] WAIT(180* ticks)
101: 0x033E [0x1E] EventEntity looks at LocalPlayer and starts talking
102: 0x0343 [0x45] LOAD_SCHEDULED_TASK: Load scheduler "s010" with entities [LocalPlayer, LocalPlayer], work=[133*, 0*]
103: 0x0354 [0x27] REQ_SET(priority=0x65, entity_id=LocalPlayer, tag_num=0x43)
104: 0x035B [0x6F] WAIT_FRAME_DELAY: Yield until WaitTime reaches zero
105: 0x035C [0x70] WAIT_ENTITY_RENDER_FLAG: Wait while EventEntity->Render.Flags3 bit 2 is set (cancel turn if not)
106: 0x035D [0x5B] LOAD_EXT_SCHEDULER: Load scheduler "tlk0" with entities [EventEntity, EventEntity], work=30*
107: 0x036C [0x1D] PRINT_EVENT_MESSAGE(message_id=7204*)
    → "Hmph. Don't you get uppity, just because the princess saw fit to favor you with a few words. It don't mean a thing!"
108: 0x036F [0x23] WAIT_FOR_DIALOG_INTERACTION
109: 0x0370 [0x1C] WAIT(90* ticks)
110: 0x0373 [0x39] SET_ENTITY_DIRECTION(direction=9.9°*)
111: 0x0376 [0x5B] LOAD_EXT_SCHEDULER: Load scheduler "tlk0" with entities [EventEntity, EventEntity], work=30*
112: 0x0385 [0x1D] PRINT_EVENT_MESSAGE(message_id=7205*)
    → "I'm busy. If you don't mind, I'd appreciate a little peace and quiet!"
113: 0x0388 [0x23] WAIT_FOR_DIALOG_INTERACTION
114: 0x0389 [0x5E] EventEntity goes idle (kills current action) (animation: "idl0")
115: 0x038E [0x1C] WAIT(60* ticks)
116: 0x0391 [0x46] CAMERA_CONTROL: Restore default settings
117: 0x0393 [0x21] END_EVENT
118: 0x0394 [0x00] END_REQSTACK()
```

### Event 84

#### Metadata

| Field        | Value     |
|--------------|-----------|
| Entrypoint   | 0x0395    |
| Data Size    | 595 bytes |
| Instructions | 101       |

```
      00 01 02 03 04 05 06 07  08 09 0A 0B 0C 0D 0E 0F
      -- -- -- -- -- -- -- --  -- -- -- -- -- -- -- --
0390:                06 01 10  03 00 00 02 10 42 75 00       ........Bu.
03A0: 16 80 75 01 4A 0E 90 0E  01 F0 FF FF 7F 6F 76 0E  ..u.J........ov.
03B0: 90 0E 01 02 00 00 2A 80  00 F8 03 2B 0E 90 0E 01  ......*....+....
03C0: 2B 80 23 24 2C 80 2A 80  02 80 25 02 00 10 02 80  +.#$,.*...%.....
03D0: 00 E3 03 03 01 10 2A 80  2B 0E 90 0E 01 2D 80 23  ......*.+....-.#
03E0: 01 F6 03 02 00 10 2A 80  00 F6 03 2B 0E 90 0E 01  ......*....+....
03F0: 2E 80 23 01 F6 03 21 00  46 01 1A 64 0A 1C 2F 80  ..#...!.F..d../.
0400: 38 18 80 5B 04 80 0E 90  0E 01 0E 90 0E 01 00 FE  8..[............
0410: FE FE 29 10 F0 FF FF 7F  50 4A 0E 90 0E 01 F0 FF  ..).....PJ......
0420: FF 7F 6F 76 0E 90 0E 01  5B 04 80 0E 90 0E 01 0E  ..ov....[.......
0430: 90 0E 01 74 6C 6B 30 45  17 80 F0 FF FF 7F F0 FF  ...tlk0E........
0440: FF 7F 73 67 30 34 02 80  1A 85 0A 03 02 10 30 80  ..sg04........0.
0450: 2B 0E 90 0E 01 31 80 23  2B 0E 90 0E 01 32 80 23  +....1.#+....2.#
0460: 4A 0E 90 0E 01 0F 90 0E  01 6F 76 0E 90 0E 01 79  J........ov....y
0470: 00 F0 FF FF 7F 0F 90 0E  01 5B 04 80 0E 90 0E 01  .........[......
0480: 0E 90 0E 01 74 68 6B 31  27 10 F0 FF FF 7F 51 2B  ....thk1'.....Q+
0490: 0E 90 0E 01 33 80 23 2A  10 F0 FF FF 7F 1A 64 0A  ....3.#*......d.
04A0: 45 17 80 F0 FF FF 7F F0  FF FF 7F 73 67 30 37 02  E..........sg07.
04B0: 80 1A 43 0A 5B 04 80 0E  90 0E 01 0E 90 0E 01 74  ..C.[..........t
04C0: 68 6B 32 53 0E 90 0E 01  0E 90 0E 01 74 68 6B 32  hk2S........thk2
04D0: 7B F0 FF FF 7F 4A 0E 90  0E 01 F0 FF FF 7F 6F 76  {....J........ov
04E0: 0E 90 0E 01 2B 0E 90 0E  01 34 80 23 5B 04 80 0E  ....+....4.#[...
04F0: 90 0E 01 0E 90 0E 01 74  6C 6B 30 2B 0E 90 0E 01  .......tlk0+....
0500: 35 80 23 45 17 80 F0 FF  FF 7F F0 FF FF 7F 73 67  5.#E..........sg
0510: 30 35 02 80 2B 0E 90 0E  01 36 80 23 2B 0E 90 0E  05..+....6.#+...
0520: 01 37 80 23 55 17 80 F0  FF FF 7F F0 FF FF 7F 73  .7.#U..........s
0530: 67 30 35 1A 64 0A 45 17  80 F0 FF FF 7F F0 FF FF  g05.d.E.........
0540: 7F 73 67 30 37 02 80 1A  43 0A 2B 0E 90 0E 01 38  .sg07...C.+....8
0550: 80 23 6B 69 64 6C 30 0E  90 0E 01 24 2C 80 2A 80  .#kidl0....$,.*.
0560: 02 80 25 02 00 10 02 80  00 82 05 03 01 10 2A 80  ..%...........*.
0570: 6E F0 FF FF 7F 39 80 99  F0 FF FF 7F 1C 25 80 01  n....9.......%..
0580: B6 05 02 00 10 2A 80 00  B6 05 6E F0 FF FF 7F 3A  .....*....n....:
0590: 80 99 F0 FF FF 7F 1C 12  80 5B 04 80 0E 90 0E 01  .........[......
05A0: 0E 90 0E 01 74 68 6B 31  2B 0E 90 0E 01 2E 80 23  ....thk1+......#
05B0: 01 CD 05 01 B6 05 5B 04  80 0E 90 0E 01 0E 90 0E  ......[.........
05C0: 01 74 6C 6B 30 2B 0E 90  0E 01 2D 80 23 1A 64 0A  .tlk0+....-.#.d.
05D0: 1C 2F 80 45 19 80 F0 FF  FF 7F F0 FF FF 7F 66 64  ./.E..........fd
05E0: 69 32 02 80 46 00 21 00                           i2..F.!.        
```

#### Opcodes

```
  0: 0x0395 [0x06] Work_Zone[1] = 0
  1: 0x0398 [0x03] ExtData[1]->WorkLocal[0] = Work_Zone[2]
  2: 0x039D [0x42] SET_CLI_EVENT_CANCEL_DATA()
  3: 0x039E [0x75] LOAD_ROOM(Load indoor room, room=373*)
  4: 0x03A2 [0x75] LOAD_ROOM(No action)
  5: 0x03A4 [0x4A] Chalvatot (ID: 17731598/0x010E900E) looks at LocalPlayer
  6: 0x03AD [0x6F] WAIT_FRAME_DELAY: Yield until WaitTime reaches zero
  7: 0x03AE [0x76] CHECK_ENTITY_RENDER_FLAGS: Wait until Chalvatot (ID: 17731598/0x010E900E) Render.Flags0 and Render.Flags3 conditions are met
  8: 0x03B3 [0x02] IF !(ExtData[1]->WorkLocal[0] == 1*) GOTO 0x03F8
  9: 0x03BB [0x2B] Chalvatot (ID: 17731598/0x010E900E) [7413*]:
    → "Eh? What's that? Changed your mind? It be for Queen Leaute, you know!"
 10: 0x03C2 [0x23] WAIT_FOR_DIALOG_INTERACTION
 11: 0x03C3 [0x24] CREATE_DIALOG(message_id=7410*, default_option=1*, option_flags=0*)
    → "Accept Chalvatot's request? [Accept./Decline.]"
 12: 0x03CA [0x25] WAIT_DIALOG_SELECT()
 13: 0x03CB [0x02] IF !(Work_Zone[0] == 0*) GOTO 0x03E3
 14: 0x03D3 [0x03] Work_Zone[1] = 1*
 15: 0x03D8 [0x2B] Chalvatot (ID: 17731598/0x010E900E) [7412*]:
    → "Ah, now that's the answer I was expectin'. Queen Leaute'd be pleased, she would. You get going, then."
 16: 0x03DF [0x23] WAIT_FOR_DIALOG_INTERACTION
 17: 0x03E0 [0x01] GOTO 0x03F6
 18: 0x03E3 [0x02] IF !(Work_Zone[0] == 1*) GOTO 0x03F6
 19: 0x03EB [0x2B] Chalvatot (ID: 17731598/0x010E900E) [7411*]:
    → "Hrm...that's a shame, that is. Guess I'll talk to those knights again."
 20: 0x03F2 [0x23] WAIT_FOR_DIALOG_INTERACTION
 21: 0x03F3 [0x01] GOTO 0x03F6

SUBROUTINE_03F6:
 22: 0x03F6 [0x21] END_EVENT
 23: 0x03F7 [0x00] END_REQSTACK()
 24: 0x03F8 [0x46] CAMERA_CONTROL: Disable user control
 25: 0x03FA [0x1A] CALL_SUBROUTINE(address=0x0A64)
 26: 0x03FD [0x1C] WAIT(15* ticks)
 27: 0x0400 [0x38] SET_CLIENT_EVENT_MODE(mode=3*)
 28: 0x0403 [0x5B] LOAD_EXT_SCHEDULER: Load scheduler 0xFEFEFE00 with entities [Chalvatot (ID: 17731598/0x010E900E), Chalvatot (ID: 17731598/0x010E900E)], work=30*
 29: 0x0412 [0x29] REQ_SET_WAIT(priority=0x10, entity_id=LocalPlayer, tag_num=0x50)
 30: 0x0419 [0x4A] Chalvatot (ID: 17731598/0x010E900E) looks at LocalPlayer
 31: 0x0422 [0x6F] WAIT_FRAME_DELAY: Yield until WaitTime reaches zero
 32: 0x0423 [0x76] CHECK_ENTITY_RENDER_FLAGS: Wait until Chalvatot (ID: 17731598/0x010E900E) Render.Flags0 and Render.Flags3 conditions are met
 33: 0x0428 [0x5B] LOAD_EXT_SCHEDULER: Load scheduler "tlk0" with entities [Chalvatot (ID: 17731598/0x010E900E), Chalvatot (ID: 17731598/0x010E900E)], work=30*
 34: 0x0437 [0x45] LOAD_SCHEDULED_TASK: Load scheduler "sg04" with entities [LocalPlayer, LocalPlayer], work=[133*, 0*]
 35: 0x0448 [0x1A] CALL_SUBROUTINE(address=0x0A85)
 36: 0x044B [0x03] Work_Zone[2] = 533*
 37: 0x0450 [0x2B] Chalvatot (ID: 17731598/0x010E900E) [7402*]:
    → "So, you like me garden, eh? Understandably! 'Tis filled with the kindness of Queen Leaute, this place is."
 38: 0x0457 [0x23] WAIT_FOR_DIALOG_INTERACTION
 39: 0x0458 [0x2B] Chalvatot (ID: 17731598/0x010E900E) [7403*]:
    → "Working here, it's like I can feel the warm, merciful smile o' the queen shining down on me."
 40: 0x045F [0x23] WAIT_FOR_DIALOG_INTERACTION
 41: 0x0460 [0x4A] Chalvatot (ID: 17731598/0x010E900E) looks at Tombstone (ID: 17731599/0x010E900F)
 42: 0x0469 [0x6F] WAIT_FRAME_DELAY: Yield until WaitTime reaches zero
 43: 0x046A [0x76] CHECK_ENTITY_RENDER_FLAGS: Wait until Chalvatot (ID: 17731598/0x010E900E) Render.Flags0 and Render.Flags3 conditions are met
 44: 0x046F [0x79] LocalPlayer looks at Tombstone (ID: 17731599/0x010E900F) (Basic look)
 45: 0x0479 [0x5B] LOAD_EXT_SCHEDULER: Load scheduler "thk1" with entities [Chalvatot (ID: 17731598/0x010E900E), Chalvatot (ID: 17731598/0x010E900E)], work=30*
 46: 0x0488 [0x27] REQ_SET(priority=0x10, entity_id=LocalPlayer, tag_num=0x51)
 47: 0x048F [0x2B] Chalvatot (ID: 17731598/0x010E900E) [7404*]:
    → "Were Queen Leaute still alive, those two would never be fighting like they do now. Guess it's fate."
 48: 0x0496 [0x23] WAIT_FOR_DIALOG_INTERACTION
 49: 0x0497 [0x2A] GET_REQ_LEVEL(level=16, entity_id=LocalPlayer)
 50: 0x049D [0x1A] CALL_SUBROUTINE(address=0x0A64)
 51: 0x04A0 [0x45] LOAD_SCHEDULED_TASK: Load scheduler "sg07" with entities [LocalPlayer, LocalPlayer], work=[133*, 0*]
 52: 0x04B1 [0x1A] CALL_SUBROUTINE(address=0x0A43)
 53: 0x04B4 [0x5B] LOAD_EXT_SCHEDULER: Load scheduler "thk2" with entities [Chalvatot (ID: 17731598/0x010E900E), Chalvatot (ID: 17731598/0x010E900E)], work=30*
 54: 0x04C3 [0x53] WAIT_SCHEDULER_TASK: Wait for scheduler "thk2" with entities [Chalvatot (ID: 17731598/0x010E900E), Chalvatot (ID: 17731598/0x010E900E)]
 55: 0x04D0 [0x7B] LocalPlayer stops talking
 56: 0x04D5 [0x4A] Chalvatot (ID: 17731598/0x010E900E) looks at LocalPlayer
 57: 0x04DE [0x6F] WAIT_FRAME_DELAY: Yield until WaitTime reaches zero
 58: 0x04DF [0x76] CHECK_ENTITY_RENDER_FLAGS: Wait until Chalvatot (ID: 17731598/0x010E900E) Render.Flags0 and Render.Flags3 conditions are met
 59: 0x04E4 [0x2B] Chalvatot (ID: 17731598/0x010E900E) [7405*]:
    → "Hmph. Why am I blabbering about this to the likes of you, eh?"
 60: 0x04EB [0x23] WAIT_FOR_DIALOG_INTERACTION
 61: 0x04EC [0x5B] LOAD_EXT_SCHEDULER: Load scheduler "tlk0" with entities [Chalvatot (ID: 17731598/0x010E900E), Chalvatot (ID: 17731598/0x010E900E)], work=30*
 62: 0x04FB [0x2B] Chalvatot (ID: 17731598/0x010E900E) [7406*]:
    → "Since you seem to have taken a fancy to the garden, here, how's about lending me a hand?"
 63: 0x0502 [0x23] WAIT_FOR_DIALOG_INTERACTION
 64: 0x0503 [0x45] LOAD_SCHEDULED_TASK: Load scheduler "sg05" with entities [LocalPlayer, LocalPlayer], work=[133*, 0*]
 65: 0x0514 [0x2B] Chalvatot (ID: 17731598/0x010E900E) [7407*]:
    → "I got me a problem, see. No regular compost is good enough to make these flowers bloom the way they do."
 66: 0x051B [0x23] WAIT_FOR_DIALOG_INTERACTION
 67: 0x051C [0x2B] Chalvatot (ID: 17731598/0x010E900E) [7408*]:
    → "So I've been using $0 as a special fertilizer, I have."
 68: 0x0523 [0x23] WAIT_FOR_DIALOG_INTERACTION
 69: 0x0524 [0x55] WAIT_LOAD_SCHEDULER: Wait for scheduler "sg05" with entities [LocalPlayer, LocalPlayer], work=133*
 70: 0x0533 [0x1A] CALL_SUBROUTINE(address=0x0A64)
 71: 0x0536 [0x45] LOAD_SCHEDULED_TASK: Load scheduler "sg07" with entities [LocalPlayer, LocalPlayer], work=[133*, 0*]
 72: 0x0547 [0x1A] CALL_SUBROUTINE(address=0x0A43)
 73: 0x054A [0x2B] Chalvatot (ID: 17731598/0x010E900E) [7409*]:
    → "Only, it be harder than skinning a wild sheep to get those knights off their shiny rumps to help, and now I'm running out."
 74: 0x0551 [0x23] WAIT_FOR_DIALOG_INTERACTION
 75: 0x0552 [0x6B] STOP_AND_IDLE: Chalvatot (ID: 17731598/0x010E900E) stops current action and resets to idle (animation="idl0")
 76: 0x055B [0x24] CREATE_DIALOG(message_id=7410*, default_option=1*, option_flags=0*)
    → "Accept Chalvatot's request? [Accept./Decline.]"
 77: 0x0562 [0x25] WAIT_DIALOG_SELECT()
 78: 0x0563 [0x02] IF !(Work_Zone[0] == 0*) GOTO 0x0582
 79: 0x056B [0x03] Work_Zone[1] = 1*
 80: 0x0570 [0x6E] LocalPlayer uses emote 7*
 81: 0x0577 [0x99] Wait for LocalPlayer animation to complete
 82: 0x057C [0x1C] WAIT(45* ticks)
 83: 0x057F [0x01] GOTO 0x05B6
 84: 0x0582 [0x02] IF !(Work_Zone[0] == 1*) GOTO 0x05B6
 85: 0x058A [0x6E] LocalPlayer uses emote 6*
 86: 0x0591 [0x99] Wait for LocalPlayer animation to complete
 87: 0x0596 [0x1C] WAIT(60* ticks)
 88: 0x0599 [0x5B] LOAD_EXT_SCHEDULER: Load scheduler "thk1" with entities [Chalvatot (ID: 17731598/0x010E900E), Chalvatot (ID: 17731598/0x010E900E)], work=30*
 89: 0x05A8 [0x2B] Chalvatot (ID: 17731598/0x010E900E) [7411*]:
    → "Hrm...that's a shame, that is. Guess I'll talk to those knights again."
 90: 0x05AF [0x23] WAIT_FOR_DIALOG_INTERACTION
 91: 0x05B0 [0x01] GOTO 0x05CD

SUBROUTINE_05B6:
 92: 0x05B6 [0x5B] LOAD_EXT_SCHEDULER: Load scheduler "tlk0" with entities [Chalvatot (ID: 17731598/0x010E900E), Chalvatot (ID: 17731598/0x010E900E)], work=30*
 93: 0x05C5 [0x2B] Chalvatot (ID: 17731598/0x010E900E) [7412*]:
    → "Ah, now that's the answer I was expectin'. Queen Leaute'd be pleased, she would. You get going, then."
 94: 0x05CC [0x23] WAIT_FOR_DIALOG_INTERACTION

SUBROUTINE_05CD:
 95: 0x05CD [0x1A] CALL_SUBROUTINE(address=0x0A64)
 96: 0x05D0 [0x1C] WAIT(15* ticks)
 97: 0x05D3 [0x45] LOAD_SCHEDULED_TASK: Load scheduler "fdi2" with entities [LocalPlayer, LocalPlayer], work=[200*, 0*]
 98: 0x05E4 [0x46] CAMERA_CONTROL: Restore default settings
 99: 0x05E6 [0x21] END_EVENT
100: 0x05E7 [0x00] END_REQSTACK()
```

#### Data or dead code:

```
# Dead code (unreachable instructions):
     0x05B3 [0x01] GOTO 0x05B6
```

### Event 82

#### Metadata

| Field        | Value    |
|--------------|----------|
| Entrypoint   | 0x05E8   |
| Data Size    | 18 bytes |
| Instructions | 8        |

```
      00 01 02 03 04 05 06 07  08 09 0A 0B 0C 0D 0E 0F
      -- -- -- -- -- -- -- --  -- -- -- -- -- -- -- --
05E0:                          1E F0 FF FF 7F 6F 70 03          .....op.
05F0: 02 10 30 80 1D 3B 80 23  21 00                    ..0..;.#!.      
```

#### Opcodes

```
  0: 0x05E8 [0x1E] EventEntity looks at LocalPlayer and starts talking
  1: 0x05ED [0x6F] WAIT_FRAME_DELAY: Yield until WaitTime reaches zero
  2: 0x05EE [0x70] WAIT_ENTITY_RENDER_FLAG: Wait while EventEntity->Render.Flags3 bit 2 is set (cancel turn if not)
  3: 0x05EF [0x03] Work_Zone[2] = 533*
  4: 0x05F4 [0x1D] PRINT_EVENT_MESSAGE(message_id=7385*)
    → "Ah, almost forgot. You can find $0 in Derfland. If you are successful, I am sure Queen Leaute would be grateful."
  5: 0x05F7 [0x23] WAIT_FOR_DIALOG_INTERACTION
  6: 0x05F8 [0x21] END_EVENT
  7: 0x05F9 [0x00] END_REQSTACK()
```

### Event 83

#### Metadata

| Field        | Value     |
|--------------|-----------|
| Entrypoint   | 0x05FA    |
| Data Size    | 938 bytes |
| Instructions | 122       |

```
      00 01 02 03 04 05 06 07  08 09 0A 0B 0C 0D 0E 0F
      -- -- -- -- -- -- -- --  -- -- -- -- -- -- -- --
05F0:                                97 02 80 2A 80 42            ...*.B
0600: 75 00 16 80 75 01 4A 0E  90 0E 01 F0 FF FF 7F 6F  u...u.J........o
0610: 76 0E 90 0E 01 46 01 1A  64 0A 1C 2F 80 38 18 80  v....F..d../.8..
0620: 5B 04 80 0E 90 0E 01 0E  90 0E 01 00 FE FE FE 5B  [..............[
0630: 3C 80 2E 90 0E 01 2E 90  0E 01 00 FE FE FE 5B 3D  <.............[=
0640: 80 05 90 0E 01 05 90 0E  01 00 FE FE FE 5B 3E 80  .............[>.
0650: 05 90 0E 01 05 90 0E 01  00 FE FE FE 29 10 F0 FF  ............)...
0660: FF 7F 50 4A 0E 90 0E 01  F0 FF FF 7F 6F 76 0E 90  ..PJ........ov..
0670: 0E 01 5B 04 80 0E 90 0E  01 0E 90 0E 01 74 6C 6B  ..[..........tlk
0680: 30 45 17 80 F0 FF FF 7F  F0 FF FF 7F 73 67 30 34  0E..........sg04
0690: 02 80 1A 85 0A 2B 0E 90  0E 01 3F 80 23 5B 04 80  .....+....?.#[..
06A0: 0E 90 0E 01 0E 90 0E 01  70 61 73 30 2B 0E 90 0E  ........pas0+...
06B0: 01 40 80 23 53 0E 90 0E  01 0E 90 0E 01 70 61 73  .@.#S........pas
06C0: 30 1C 25 80 4A 0E 90 0E  01 0F 90 0E 01 6F 76 0E  0.%.J........ov.
06D0: 90 0E 01 79 00 F0 FF FF  7F 0F 90 0E 01 55 17 80  ...y.........U..
06E0: F0 FF FF 7F F0 FF FF 7F  73 67 30 34 45 17 80 F0  ........sg04E...
06F0: FF FF 7F F0 FF FF 7F 73  67 30 39 02 80 5B 04 80  .......sg09..[..
0700: 0E 90 0E 01 0E 90 0E 01  74 68 6B 31 2B 0E 90 0E  ........thk1+...
0710: 01 41 80 23 2B 0E 90 0E  01 42 80 23 5B 04 80 0E  .A.#+....B.#[...
0720: 90 0E 01 0E 90 0E 01 74  68 6B 32 53 0E 90 0E 01  .......thk2S....
0730: 0E 90 0E 01 74 68 6B 32  1C 2F 80 7B F0 FF FF 7F  ....thk2./.{....
0740: 1C 2F 80 55 17 80 F0 FF  FF 7F F0 FF FF 7F 73 67  ./.U..........sg
0750: 30 39 2B 0E 90 0E 01 43  80 23 1E 05 90 0E 01 27  09+....C.#.....'
0760: 10 F0 FF FF 7F 52 27 10  05 90 0E 01 22 27 10 2E  .....R'....."'..
0770: 90 0E 01 07 27 10 0F 90  0E 01 02 2B 05 90 0E 01  ....'......+....
0780: 44 80 23 2A 10 F0 FF FF  7F 2B 0E 90 0E 01 45 80  D.#*.....+....E.
0790: 23 2A 10 05 90 0E 01 27  10 2E 90 0E 01 08 29 10  #*.....'......).
07A0: 05 90 0E 01 23 4A F0 FF  FF 7F 05 90 0E 01 1C 2A  ....#J.........*
07B0: 80 45 17 80 F0 FF FF 7F  F0 FF FF 7F 73 67 31 31  .E..........sg11
07C0: 02 80 29 10 05 90 0E 01  24 1C 04 80 5B 3E 80 05  ..).....$...[>..
07D0: 90 0E 01 05 90 0E 01 70  75 69 30 1C 2F 80 55 17  .......pui0./.U.
07E0: 80 F0 FF FF 7F F0 FF FF  7F 73 67 31 31 45 17 80  .........sg11E..
07F0: F0 FF FF 7F F0 FF FF 7F  73 67 31 32 02 80 2B 05  ........sg12..+.
0800: 90 0E 01 46 80 23 2B 05  90 0E 01 47 80 23 53 05  ...F.#+....G.#S.
0810: 90 0E 01 05 90 0E 01 70  75 69 30 5B 3E 80 05 90  .......pui0[>...
0820: 0E 01 05 90 0E 01 70 75  69 31 53 05 90 0E 01 05  ......pui1S.....
0830: 90 0E 01 70 75 69 31 5B  3D 80 05 90 0E 01 05 90  ...pui1[=.......
0840: 0E 01 74 6C 6B 30 2B 05  90 0E 01 48 80 23 5B 3D  ..tlk0+....H.#[=
0850: 80 05 90 0E 01 05 90 0E  01 74 6C 6B 31 53 05 90  .........tlk1S..
0860: 0E 01 05 90 0E 01 74 6C  6B 31 5B 04 80 0E 90 0E  ......tlk1[.....
0870: 01 0E 90 0E 01 74 6C 6B  30 2B 0E 90 0E 01 49 80  .....tlk0+....I.
0880: 23 6B 69 64 6C 30 0E 90  0E 01 2B 05 90 0E 01 4A  #kidl0....+....J
0890: 80 23 1C 2F 80 4A 05 90  0E 01 2E 90 0E 01 6F 76  .#./.J........ov
08A0: 05 90 0E 01 5B 3D 80 05  90 0E 01 05 90 0E 01 74  ....[=.........t
08B0: 6C 6B 30 2B 05 90 0E 01  4B 80 23 5B 3D 80 05 90  lk0+....K.#[=...
08C0: 0E 01 05 90 0E 01 74 6C  6B 31 53 05 90 0E 01 05  ......tlk1S.....
08D0: 90 0E 01 74 6C 6B 31 4A  2E 90 0E 01 0F 90 0E 01  ...tlk1J........
08E0: 6F 76 2E 90 0E 01 27 10  2E 90 0E 01 09 1C 25 80  ov....'.......%.
08F0: 1A A6 0A 2A 10 2E 90 0E  01 27 10 05 90 0E 01 25  ...*.....'.....%
0900: 29 10 2E 90 0E 01 0A 45  17 80 F0 FF FF 7F F0 FF  )......E........
0910: FF 7F 73 67 31 33 02 80  1A 85 0A 5B 3C 80 2E 90  ..sg13.....[<...
0920: 0E 01 2E 90 0E 01 69 6E  6F 30 53 2E 90 0E 01 2E  ......ino0S.....
0930: 90 0E 01 69 6E 6F 30 5B  3C 80 2E 90 0E 01 2E 90  ...ino0[<.......
0940: 0E 01 74 68 6B 31 1C 25  80 45 19 80 F0 FF FF 7F  ..thk1.%.E......
0950: F0 FF FF 7F 66 64 6F 32  02 80 55 19 80 F0 FF FF  ....fdo2..U.....
0960: 7F F0 FF FF 7F 66 64 6F  32 55 17 80 F0 FF FF 7F  .....fdo2U......
0970: F0 FF FF 7F 73 67 31 33  1C 25 80 45 4C 80 F0 FF  ....sg13.%.EL...
0980: FF 7F F0 FF FF 7F 71 73  74 63 02 80 1C 2F 80 45  ......qstc.../.E
0990: 19 80 F0 FF FF 7F F0 FF  FF 7F 66 64 69 32 02 80  ..........fdi2..
09A0: 46 00 21 00                                       F.!.            
```

#### Opcodes

```
  0: 0x05FA [0x97] SAVE_SET_WIND_VALUES(wind_base=0x8002, wind_width=0x802A)
  1: 0x05FF [0x42] SET_CLI_EVENT_CANCEL_DATA()
  2: 0x0600 [0x75] LOAD_ROOM(Load indoor room, room=373*)
  3: 0x0604 [0x75] LOAD_ROOM(No action)
  4: 0x0606 [0x4A] Chalvatot (ID: 17731598/0x010E900E) looks at LocalPlayer
  5: 0x060F [0x6F] WAIT_FRAME_DELAY: Yield until WaitTime reaches zero
  6: 0x0610 [0x76] CHECK_ENTITY_RENDER_FLAGS: Wait until Chalvatot (ID: 17731598/0x010E900E) Render.Flags0 and Render.Flags3 conditions are met
  7: 0x0615 [0x46] CAMERA_CONTROL: Disable user control
  8: 0x0617 [0x1A] CALL_SUBROUTINE(address=0x0A64)
  9: 0x061A [0x1C] WAIT(15* ticks)
 10: 0x061D [0x38] SET_CLIENT_EVENT_MODE(mode=3*)
 11: 0x0620 [0x5B] LOAD_EXT_SCHEDULER: Load scheduler 0xFEFEFE00 with entities [Chalvatot (ID: 17731598/0x010E900E), Chalvatot (ID: 17731598/0x010E900E)], work=30*
 12: 0x062F [0x5B] LOAD_EXT_SCHEDULER: Load scheduler 0xFEFEFE00 with entities [Shamonde (ID: 17731630/0x010E902E), Shamonde (ID: 17731630/0x010E902E)], work=135*
 13: 0x063E [0x5B] LOAD_EXT_SCHEDULER: Load scheduler 0xFEFEFE00 with entities [Pieuje (ID: 17731589/0x010E9005), Pieuje (ID: 17731589/0x010E9005)], work=120*
 14: 0x064D [0x5B] LOAD_EXT_SCHEDULER: Load scheduler 0xFEFEFE00 with entities [Pieuje (ID: 17731589/0x010E9005), Pieuje (ID: 17731589/0x010E9005)], work=121*
 15: 0x065C [0x29] REQ_SET_WAIT(priority=0x10, entity_id=LocalPlayer, tag_num=0x50)
 16: 0x0663 [0x4A] Chalvatot (ID: 17731598/0x010E900E) looks at LocalPlayer
 17: 0x066C [0x6F] WAIT_FRAME_DELAY: Yield until WaitTime reaches zero
 18: 0x066D [0x76] CHECK_ENTITY_RENDER_FLAGS: Wait until Chalvatot (ID: 17731598/0x010E900E) Render.Flags0 and Render.Flags3 conditions are met
 19: 0x0672 [0x5B] LOAD_EXT_SCHEDULER: Load scheduler "tlk0" with entities [Chalvatot (ID: 17731598/0x010E900E), Chalvatot (ID: 17731598/0x010E900E)], work=30*
 20: 0x0681 [0x45] LOAD_SCHEDULED_TASK: Load scheduler "sg04" with entities [LocalPlayer, LocalPlayer], work=[133*, 0*]
 21: 0x0692 [0x1A] CALL_SUBROUTINE(address=0x0A85)
 22: 0x0695 [0x2B] Chalvatot (ID: 17731598/0x010E900E) [7414*]:
    → "Ah, thanks be to you. This will keep me flowers perky for weeks, it will."
 23: 0x069C [0x23] WAIT_FOR_DIALOG_INTERACTION
 24: 0x069D [0x5B] LOAD_EXT_SCHEDULER: Load scheduler "pas0" with entities [Chalvatot (ID: 17731598/0x010E900E), Chalvatot (ID: 17731598/0x010E900E)], work=30*
 25: 0x06AC [0x2B] Chalvatot (ID: 17731598/0x010E900E) [7415*]:
    → "Here, it's no' much, but this is all I can spare. Take it, then."
 26: 0x06B3 [0x23] WAIT_FOR_DIALOG_INTERACTION
 27: 0x06B4 [0x53] WAIT_SCHEDULER_TASK: Wait for scheduler "pas0" with entities [Chalvatot (ID: 17731598/0x010E900E), Chalvatot (ID: 17731598/0x010E900E)]
 28: 0x06C1 [0x1C] WAIT(45* ticks)
 29: 0x06C4 [0x4A] Chalvatot (ID: 17731598/0x010E900E) looks at Tombstone (ID: 17731599/0x010E900F)
 30: 0x06CD [0x6F] WAIT_FRAME_DELAY: Yield until WaitTime reaches zero
 31: 0x06CE [0x76] CHECK_ENTITY_RENDER_FLAGS: Wait until Chalvatot (ID: 17731598/0x010E900E) Render.Flags0 and Render.Flags3 conditions are met
 32: 0x06D3 [0x79] LocalPlayer looks at Tombstone (ID: 17731599/0x010E900F) (Basic look)
 33: 0x06DD [0x55] WAIT_LOAD_SCHEDULER: Wait for scheduler "sg04" with entities [LocalPlayer, LocalPlayer], work=133*
 34: 0x06EC [0x45] LOAD_SCHEDULED_TASK: Load scheduler "sg09" with entities [LocalPlayer, LocalPlayer], work=[133*, 0*]
 35: 0x06FD [0x5B] LOAD_EXT_SCHEDULER: Load scheduler "thk1" with entities [Chalvatot (ID: 17731598/0x010E900E), Chalvatot (ID: 17731598/0x010E900E)], work=30*
 36: 0x070C [0x2B] Chalvatot (ID: 17731598/0x010E900E) [7416*]:
    → "'Tis hard for me to accept that the fair Queen Leaute's no longer in the world... Now there was a bonny flower, I tell you! The prettiest of them all!"
 37: 0x0713 [0x23] WAIT_FOR_DIALOG_INTERACTION
 38: 0x0714 [0x2B] Chalvatot (ID: 17731598/0x010E900E) [7417*]:
    → "She always had a kind word, even for a lowly gardener such as meself. If Queen Leaute were around, things would be different in this kingdom. Things'd be right, they would!"
 39: 0x071B [0x23] WAIT_FOR_DIALOG_INTERACTION
 40: 0x071C [0x5B] LOAD_EXT_SCHEDULER: Load scheduler "thk2" with entities [Chalvatot (ID: 17731598/0x010E900E), Chalvatot (ID: 17731598/0x010E900E)], work=30*
 41: 0x072B [0x53] WAIT_SCHEDULER_TASK: Wait for scheduler "thk2" with entities [Chalvatot (ID: 17731598/0x010E900E), Chalvatot (ID: 17731598/0x010E900E)]
 42: 0x0738 [0x1C] WAIT(15* ticks)
 43: 0x073B [0x7B] LocalPlayer stops talking
 44: 0x0740 [0x1C] WAIT(15* ticks)
 45: 0x0743 [0x55] WAIT_LOAD_SCHEDULER: Wait for scheduler "sg09" with entities [LocalPlayer, LocalPlayer], work=133*
 46: 0x0752 [0x2B] Chalvatot (ID: 17731598/0x010E900E) [7418*]:
    → "And...don't tell no one I telt you, but there's some mystery about the queen's death! They say..."
 47: 0x0759 [0x23] WAIT_FOR_DIALOG_INTERACTION
 48: 0x075A [0x1E] EventEntity looks at Pieuje (ID: 17731589/0x010E9005) and starts talking
 49: 0x075F [0x27] REQ_SET(priority=0x10, entity_id=LocalPlayer, tag_num=0x52)
 50: 0x0766 [0x27] REQ_SET(priority=0x10, entity_id=Pieuje (ID: 17731589/0x010E9005), tag_num=0x22)
 51: 0x076D [0x27] REQ_SET(priority=0x10, entity_id=Shamonde (ID: 17731630/0x010E902E), tag_num=0x07)
 52: 0x0774 [0x27] REQ_SET(priority=0x10, entity_id=Tombstone (ID: 17731599/0x010E900F), tag_num=0x02)
 53: 0x077B [0x2B] Pieuje (ID: 17731589/0x010E9005) [7419*]:
    → "Chalvatot, it won't do to speak of rumors, now."
 54: 0x0782 [0x23] WAIT_FOR_DIALOG_INTERACTION
 55: 0x0783 [0x2A] GET_REQ_LEVEL(level=16, entity_id=LocalPlayer)
 56: 0x0789 [0x2B] Chalvatot (ID: 17731598/0x010E900E) [7420*]:
    → "Ah! P-Prince Pieuje! A-and Your Holiness!"
 57: 0x0790 [0x23] WAIT_FOR_DIALOG_INTERACTION
 58: 0x0791 [0x2A] GET_REQ_LEVEL(level=16, entity_id=Pieuje (ID: 17731589/0x010E9005))
 59: 0x0797 [0x27] REQ_SET(priority=0x10, entity_id=Shamonde (ID: 17731630/0x010E902E), tag_num=0x08)
 60: 0x079E [0x29] REQ_SET_WAIT(priority=0x10, entity_id=Pieuje (ID: 17731589/0x010E9005), tag_num=0x23)
 61: 0x07A5 [0x4A] LocalPlayer looks at Pieuje (ID: 17731589/0x010E9005)
 62: 0x07AE [0x1C] WAIT(1* ticks)
 63: 0x07B1 [0x45] LOAD_SCHEDULED_TASK: Load scheduler "sg11" with entities [LocalPlayer, LocalPlayer], work=[133*, 0*]
 64: 0x07C2 [0x29] REQ_SET_WAIT(priority=0x10, entity_id=Pieuje (ID: 17731589/0x010E9005), tag_num=0x24)
 65: 0x07C9 [0x1C] WAIT(30* ticks)
 66: 0x07CC [0x5B] LOAD_EXT_SCHEDULER: Load scheduler "pui0" with entities [Pieuje (ID: 17731589/0x010E9005), Pieuje (ID: 17731589/0x010E9005)], work=121*
 67: 0x07DB [0x1C] WAIT(15* ticks)
 68: 0x07DE [0x55] WAIT_LOAD_SCHEDULER: Wait for scheduler "sg11" with entities [LocalPlayer, LocalPlayer], work=133*
 69: 0x07ED [0x45] LOAD_SCHEDULED_TASK: Load scheduler "sg12" with entities [LocalPlayer, LocalPlayer], work=[133*, 0*]
 70: 0x07FE [0x2B] Pieuje (ID: 17731589/0x010E9005) [7421*]:
    → "You've given your best effort so that this garden may prosper, I hear. We owe you our gratitude."
 71: 0x0805 [0x23] WAIT_FOR_DIALOG_INTERACTION
 72: 0x0806 [0x2B] Pieuje (ID: 17731589/0x010E9005) [7422*]:
    → "Yet...do not pry into the affairs of the royal house so. Necks that are stuck where they do not belong have a tendency to...fall off, shall we say."
 73: 0x080D [0x23] WAIT_FOR_DIALOG_INTERACTION
 74: 0x080E [0x53] WAIT_SCHEDULER_TASK: Wait for scheduler "pui0" with entities [Pieuje (ID: 17731589/0x010E9005), Pieuje (ID: 17731589/0x010E9005)]
 75: 0x081B [0x5B] LOAD_EXT_SCHEDULER: Load scheduler "pui1" with entities [Pieuje (ID: 17731589/0x010E9005), Pieuje (ID: 17731589/0x010E9005)], work=121*
 76: 0x082A [0x53] WAIT_SCHEDULER_TASK: Wait for scheduler "pui1" with entities [Pieuje (ID: 17731589/0x010E9005), Pieuje (ID: 17731589/0x010E9005)]
 77: 0x0837 [0x5B] LOAD_EXT_SCHEDULER: Load scheduler "tlk0" with entities [Pieuje (ID: 17731589/0x010E9005), Pieuje (ID: 17731589/0x010E9005)], work=120*
 78: 0x0846 [0x2B] Pieuje (ID: 17731589/0x010E9005) [7423*]:
    → "Chalvatot, I expect you will be vigilant in keeping outsiders where they belong: outside."
 79: 0x084D [0x23] WAIT_FOR_DIALOG_INTERACTION
 80: 0x084E [0x5B] LOAD_EXT_SCHEDULER: Load scheduler "tlk1" with entities [Pieuje (ID: 17731589/0x010E9005), Pieuje (ID: 17731589/0x010E9005)], work=120*
 81: 0x085D [0x53] WAIT_SCHEDULER_TASK: Wait for scheduler "tlk1" with entities [Pieuje (ID: 17731589/0x010E9005), Pieuje (ID: 17731589/0x010E9005)]
 82: 0x086A [0x5B] LOAD_EXT_SCHEDULER: Load scheduler "tlk0" with entities [Chalvatot (ID: 17731598/0x010E900E), Chalvatot (ID: 17731598/0x010E900E)], work=30*
 83: 0x0879 [0x2B] Chalvatot (ID: 17731598/0x010E900E) [7424*]:
    → "Y-yes, Milord. Never again. I'll no' let it happen again!"
 84: 0x0880 [0x23] WAIT_FOR_DIALOG_INTERACTION
 85: 0x0881 [0x6B] STOP_AND_IDLE: Chalvatot (ID: 17731598/0x010E900E) stops current action and resets to idle (animation="idl0")
 86: 0x088A [0x2B] Pieuje (ID: 17731589/0x010E9005) [7425*]:
    → "Very well. I've no intention of speaking harshly before my late mother."
 87: 0x0891 [0x23] WAIT_FOR_DIALOG_INTERACTION
 88: 0x0892 [0x1C] WAIT(15* ticks)
 89: 0x0895 [0x4A] Pieuje (ID: 17731589/0x010E9005) looks at Shamonde (ID: 17731630/0x010E902E)
 90: 0x089E [0x6F] WAIT_FRAME_DELAY: Yield until WaitTime reaches zero
 91: 0x089F [0x76] CHECK_ENTITY_RENDER_FLAGS: Wait until Pieuje (ID: 17731589/0x010E9005) Render.Flags0 and Render.Flags3 conditions are met
 92: 0x08A4 [0x5B] LOAD_EXT_SCHEDULER: Load scheduler "tlk0" with entities [Pieuje (ID: 17731589/0x010E9005), Pieuje (ID: 17731589/0x010E9005)], work=120*
 93: 0x08B3 [0x2B] Pieuje (ID: 17731589/0x010E9005) [7426*]:
    → "Now, Your Holiness, pray for my mother's peaceful rest."
 94: 0x08BA [0x23] WAIT_FOR_DIALOG_INTERACTION
 95: 0x08BB [0x5B] LOAD_EXT_SCHEDULER: Load scheduler "tlk1" with entities [Pieuje (ID: 17731589/0x010E9005), Pieuje (ID: 17731589/0x010E9005)], work=120*
 96: 0x08CA [0x53] WAIT_SCHEDULER_TASK: Wait for scheduler "tlk1" with entities [Pieuje (ID: 17731589/0x010E9005), Pieuje (ID: 17731589/0x010E9005)]
 97: 0x08D7 [0x4A] Shamonde (ID: 17731630/0x010E902E) looks at Tombstone (ID: 17731599/0x010E900F)
 98: 0x08E0 [0x6F] WAIT_FRAME_DELAY: Yield until WaitTime reaches zero
 99: 0x08E1 [0x76] CHECK_ENTITY_RENDER_FLAGS: Wait until Shamonde (ID: 17731630/0x010E902E) Render.Flags0 and Render.Flags3 conditions are met
100: 0x08E6 [0x27] REQ_SET(priority=0x10, entity_id=Shamonde (ID: 17731630/0x010E902E), tag_num=0x09)
101: 0x08ED [0x1C] WAIT(45* ticks)
102: 0x08F0 [0x1A] CALL_SUBROUTINE(address=0x0AA6)
103: 0x08F3 [0x2A] GET_REQ_LEVEL(level=16, entity_id=Shamonde (ID: 17731630/0x010E902E))
104: 0x08F9 [0x27] REQ_SET(priority=0x10, entity_id=Pieuje (ID: 17731589/0x010E9005), tag_num=0x25)
105: 0x0900 [0x29] REQ_SET_WAIT(priority=0x10, entity_id=Shamonde (ID: 17731630/0x010E902E), tag_num=0x0A)
106: 0x0907 [0x45] LOAD_SCHEDULED_TASK: Load scheduler "sg13" with entities [LocalPlayer, LocalPlayer], work=[133*, 0*]
107: 0x0918 [0x1A] CALL_SUBROUTINE(address=0x0A85)
108: 0x091B [0x5B] LOAD_EXT_SCHEDULER: Load scheduler "ino0" with entities [Shamonde (ID: 17731630/0x010E902E), Shamonde (ID: 17731630/0x010E902E)], work=135*
109: 0x092A [0x53] WAIT_SCHEDULER_TASK: Wait for scheduler "ino0" with entities [Shamonde (ID: 17731630/0x010E902E), Shamonde (ID: 17731630/0x010E902E)]
110: 0x0937 [0x5B] LOAD_EXT_SCHEDULER: Load scheduler "thk1" with entities [Shamonde (ID: 17731630/0x010E902E), Shamonde (ID: 17731630/0x010E902E)], work=135*
111: 0x0946 [0x1C] WAIT(45* ticks)
112: 0x0949 [0x45] LOAD_SCHEDULED_TASK: Load scheduler "fdo2" with entities [LocalPlayer, LocalPlayer], work=[200*, 0*]
113: 0x095A [0x55] WAIT_LOAD_SCHEDULER: Wait for scheduler "fdo2" with entities [LocalPlayer, LocalPlayer], work=200*
114: 0x0969 [0x55] WAIT_LOAD_SCHEDULER: Wait for scheduler "sg13" with entities [LocalPlayer, LocalPlayer], work=133*
115: 0x0978 [0x1C] WAIT(45* ticks)
116: 0x097B [0x45] LOAD_SCHEDULED_TASK: Load scheduler "qstc" with entities [LocalPlayer, LocalPlayer], work=[201*, 0*]
117: 0x098C [0x1C] WAIT(15* ticks)
118: 0x098F [0x45] LOAD_SCHEDULED_TASK: Load scheduler "fdi2" with entities [LocalPlayer, LocalPlayer], work=[200*, 0*]
119: 0x09A0 [0x46] CAMERA_CONTROL: Restore default settings
120: 0x09A2 [0x21] END_EVENT
121: 0x09A3 [0x00] END_REQSTACK()
```

### Event 65535.3

#### Metadata

| Field        | Value    |
|--------------|----------|
| Entrypoint   | 0x09A4   |
| Data Size    | 17 bytes |
| Instructions | 4        |

```
      00 01 02 03 04 05 06 07  08 09 0A 0B 0C 0D 0E 0F
      -- -- -- -- -- -- -- --  -- -- -- -- -- -- -- --
09A0:             92 01 F8 FF  FF 7F 84 37 4D 80 4E 80      .......7M.N.
09B0: 4F 80 50 80 00                                    O.P..           
```

#### Opcodes

```
  0: 0x09A4 [0x92] EventEntity->Render.Flags3 ^= 0x01
  1: 0x09AA [0x84] ADJUST_RENDER_FLAGS3_BIT0()
  2: 0x09AB [0x37] UPDATE_EVENT_POSITION_AND_DIR: x=-37.162*, z=41.199*, y=-2.500*, direction=265.8°*
  3: 0x09B4 [0x00] END_REQSTACK()
```

### Event 65535.4

#### Metadata

| Field        | Value    |
|--------------|----------|
| Entrypoint   | 0x09B5   |
| Data Size    | 14 bytes |
| Instructions | 4        |

```
      00 01 02 03 04 05 06 07  08 09 0A 0B 0C 0D 0E 0F
      -- -- -- -- -- -- -- --  -- -- -- -- -- -- -- --
09B0:                32 0D 80  1F 00 51 80 52 80 53 80       2....Q.R.S.
09C0: 1F 01 00                                          ...             
```

#### Opcodes

```
  0: 0x09B5 [0x32] ExtData[1]->MainSpeed = 13* * 0.1
  1: 0x09B8 [0x1F] MOVE_ENTITY: EventEntity moves to X=-37.056*, Z=47.218*, Y=-1.398*
  2: 0x09C0 [0x1F] MOVE_ENTITY: Update entity position (mode=1)
  3: 0x09C2 [0x00] END_REQSTACK()
```

### Event 99

#### Metadata

| Field        | Value    |
|--------------|----------|
| Entrypoint   | 0x09C3   |
| Data Size    | 12 bytes |
| Instructions | 2        |

```
      00 01 02 03 04 05 06 07  08 09 0A 0B 0C 0D 0E 0F
      -- -- -- -- -- -- -- --  -- -- -- -- -- -- -- --
09C0:          3B F8 FF FF 7F  01 00 02 00 03 00 00        ;........... 
```

#### Opcodes

```
  0: 0x09C3 [0x3B] GET_ENTITY_POSITION(entity=EventEntity, x_destination=ExtData[1]->WorkLocal[1], y_destination=ExtData[1]->WorkLocal[2], z_destination=ExtData[1]->WorkLocal[3])
  1: 0x09CE [0x00] END_REQSTACK()
```

### Event 98

#### Metadata

| Field        | Value   |
|--------------|---------|
| Entrypoint   | 0x09CF  |
| Data Size    | 1 bytes |
| Instructions | 1       |

```
      00 01 02 03 04 05 06 07  08 09 0A 0B 0C 0D 0E 0F
      -- -- -- -- -- -- -- --  -- -- -- -- -- -- -- --
09C0:                                               00                 .
```

#### Opcodes

```
  0: 0x09CF [0x00] END_REQSTACK()
```

### Event 96

#### Metadata

| Field        | Value   |
|--------------|---------|
| Entrypoint   | 0x09D0  |
| Data Size    | 1 bytes |
| Instructions | 1       |

```
      00 01 02 03 04 05 06 07  08 09 0A 0B 0C 0D 0E 0F
      -- -- -- -- -- -- -- --  -- -- -- -- -- -- -- --
09D0: 00                                                .               
```

#### Opcodes

```
  0: 0x09D0 [0x00] END_REQSTACK()
```

### Event 97

#### Metadata

| Field        | Value    |
|--------------|----------|
| Entrypoint   | 0x09D1   |
| Data Size    | 25 bytes |
| Instructions | 7        |

```
      00 01 02 03 04 05 06 07  08 09 0A 0B 0C 0D 0E 0F
      -- -- -- -- -- -- -- --  -- -- -- -- -- -- -- --
09D0:    4A 0E 90 0E 01 F0 FF  FF 7F 6F 76 0E 90 0E 01   J........ov....
09E0: 2B 0E 90 0E 01 54 80 23  21 00                    +....T.#!.      
```

#### Opcodes

```
  0: 0x09D1 [0x4A] Chalvatot (ID: 17731598/0x010E900E) looks at LocalPlayer
  1: 0x09DA [0x6F] WAIT_FRAME_DELAY: Yield until WaitTime reaches zero
  2: 0x09DB [0x76] CHECK_ENTITY_RENDER_FLAGS: Wait until Chalvatot (ID: 17731598/0x010E900E) Render.Flags0 and Render.Flags3 conditions are met
  3: 0x09E0 [0x2B] Chalvatot (ID: 17731598/0x010E900E) [7499*]:
    → "Take the two rings and place them upon the altar in the Monastic Cavern--the ruins of Her Majesty's convent. Then her wish will at last come true."
  4: 0x09E7 [0x23] WAIT_FOR_DIALOG_INTERACTION
  5: 0x09E8 [0x21] END_EVENT
  6: 0x09E9 [0x00] END_REQSTACK()
```

### Event 65535.5

#### Metadata

| Field        | Value   |
|--------------|---------|
| Entrypoint   | 0x09EA  |
| Data Size    | 8 bytes |
| Instructions | 2       |

```
      00 01 02 03 04 05 06 07  08 09 0A 0B 0C 0D 0E 0F
      -- -- -- -- -- -- -- --  -- -- -- -- -- -- -- --
09E0:                                36 01 00 02 00 03            6.....
09F0: 00 00                                             ..              
```

#### Opcodes

```
  0: 0x09EA [0x36] SET_ENTITY_EVENT_POSITION(pos_x=ExtData[1]->WorkLocal[1], pos_z=ExtData[1]->WorkLocal[2], pos_y=ExtData[1]->WorkLocal[3])
  1: 0x09F1 [0x00] END_REQSTACK()
```

### Event 65535.6

#### Metadata

| Field        | Value    |
|--------------|----------|
| Entrypoint   | 0x09F2   |
| Data Size    | 14 bytes |
| Instructions | 4        |

```
      00 01 02 03 04 05 06 07  08 09 0A 0B 0C 0D 0E 0F
      -- -- -- -- -- -- -- --  -- -- -- -- -- -- -- --
09F0:       32 0D 80 1F 00 55  80 56 80 08 80 1F 01 00    2....U.V......
```

#### Opcodes

```
  0: 0x09F2 [0x32] ExtData[1]->MainSpeed = 13* * 0.1
  1: 0x09F5 [0x1F] MOVE_ENTITY: EventEntity moves to X=-103.058*, Z=71.857*, Y=0.398*
  2: 0x09FD [0x1F] MOVE_ENTITY: Update entity position (mode=1)
  3: 0x09FF [0x00] END_REQSTACK()
```

### Event 65535.7

#### Metadata

| Field        | Value    |
|--------------|----------|
| Entrypoint   | 0x0A00   |
| Data Size    | 10 bytes |
| Instructions | 2        |

```
      00 01 02 03 04 05 06 07  08 09 0A 0B 0C 0D 0E 0F
      -- -- -- -- -- -- -- --  -- -- -- -- -- -- -- --
0A00: 6C 06 90 0E 01 02 80 3D  80 00                    l......=..      
```

#### Opcodes

```
  0: 0x0A00 [0x6C] FADE_ENTITY_COLOR(entity_id=Claidie (ID: 17731590/0x010E9006), end_alpha=0*, fade_time=120*)
  1: 0x0A09 [0x00] END_REQSTACK()
```

### Event 65535.8

#### Metadata

| Field        | Value    |
|--------------|----------|
| Entrypoint   | 0x0A0A   |
| Data Size    | 19 bytes |
| Instructions | 3        |

```
      00 01 02 03 04 05 06 07  08 09 0A 0B 0C 0D 0E 0F
      -- -- -- -- -- -- -- --  -- -- -- -- -- -- -- --
0A00:                                5B 04 80 0E 90 0E            [.....
0A10: 01 0E 90 0E 01 74 6C 6B  30 1C 04 80 00           .....tlk0....   
```

#### Opcodes

```
  0: 0x0A0A [0x5B] LOAD_EXT_SCHEDULER: Load scheduler "tlk0" with entities [Chalvatot (ID: 17731598/0x010E900E), Chalvatot (ID: 17731598/0x010E900E)], work=30*
  1: 0x0A19 [0x1C] WAIT(30* ticks)
  2: 0x0A1C [0x00] END_REQSTACK()
```

### Event 65535.9

#### Metadata

| Field        | Value   |
|--------------|---------|
| Entrypoint   | 0x0A1D  |
| Data Size    | 9 bytes |
| Instructions | 3       |

```
      00 01 02 03 04 05 06 07  08 09 0A 0B 0C 0D 0E 0F
      -- -- -- -- -- -- -- --  -- -- -- -- -- -- -- --
0A10:                                         5E 69 64               ^id
0A20: 6C 30 1C 12 80 00                                 l0....          
```

#### Opcodes

```
  0: 0x0A1D [0x5E] EventEntity goes idle (kills current action) (animation: "idl0")
  1: 0x0A22 [0x1C] WAIT(60* ticks)
  2: 0x0A25 [0x00] END_REQSTACK()
```

### Event 65535.10

#### Metadata

| Field        | Value     |
|--------------|-----------|
| Entrypoint   | 0x0A26    |
| Data Size    | 161 bytes |
| Instructions | 3         |

```
      00 01 02 03 04 05 06 07  08 09 0A 0B 0C 0D 0E 0F
      -- -- -- -- -- -- -- --  -- -- -- -- -- -- -- --
0A20:                   5B 04  80 0E 90 0E 01 0E 90 0E        [.........
0A30: 01 70 61 73 30 53 0E 90  0E 01 0E 90 0E 01 70 61  .pas0S........pa
0A40: 73 30 00 45 19 80 F0 FF  FF 7F F0 FF FF 7F 66 64  s0.E..........fd
0A50: 69 30 02 80 55 19 80 F0  FF FF 7F F0 FF FF 7F 66  i0..U..........f
0A60: 64 69 30 1B 45 19 80 F0  FF FF 7F F0 FF FF 7F 66  di0.E..........f
0A70: 64 6F 30 02 80 55 19 80  F0 FF FF 7F F0 FF FF 7F  do0..U..........
0A80: 66 64 6F 30 1B 45 19 80  F0 FF FF 7F F0 FF FF 7F  fdo0.E..........
0A90: 66 64 69 31 02 80 55 19  80 F0 FF FF 7F F0 FF FF  fdi1..U.........
0AA0: 7F 66 64 69 31 1B 45 19  80 F0 FF FF 7F F0 FF FF  .fdi1.E.........
0AB0: 7F 66 64 6F 31 02 80 55  19 80 F0 FF FF 7F F0 FF  .fdo1..U........
0AC0: FF 7F 66 64 6F 31 1B                              ..fdo1.         
```

#### Opcodes

```
  0: 0x0A26 [0x5B] LOAD_EXT_SCHEDULER: Load scheduler "pas0" with entities [Chalvatot (ID: 17731598/0x010E900E), Chalvatot (ID: 17731598/0x010E900E)], work=30*
  1: 0x0A35 [0x53] WAIT_SCHEDULER_TASK: Wait for scheduler "pas0" with entities [Chalvatot (ID: 17731598/0x010E900E), Chalvatot (ID: 17731598/0x010E900E)]
  2: 0x0A42 [0x00] END_REQSTACK()
```

#### Data or dead code:

```
# Dead code (unreachable instructions):
     0x0A43 [0x45] LOAD_SCHEDULED_TASK: Load scheduler "fdi0" with entities [LocalPlayer, LocalPlayer], work=[200*, 0*]
     0x0A54 [0x55] WAIT_LOAD_SCHEDULER: Wait for scheduler "fdi0" with entities [LocalPlayer, LocalPlayer], work=200*
     0x0A63 [0x1B] RETURN
     0x0A64 [0x45] LOAD_SCHEDULED_TASK: Load scheduler "fdo0" with entities [LocalPlayer, LocalPlayer], work=[200*, 0*]
     0x0A75 [0x55] WAIT_LOAD_SCHEDULER: Wait for scheduler "fdo0" with entities [LocalPlayer, LocalPlayer], work=200*
     0x0A84 [0x1B] RETURN
     0x0A85 [0x45] LOAD_SCHEDULED_TASK: Load scheduler "fdi1" with entities [LocalPlayer, LocalPlayer], work=[200*, 0*]
     0x0A96 [0x55] WAIT_LOAD_SCHEDULER: Wait for scheduler "fdi1" with entities [LocalPlayer, LocalPlayer], work=200*
     0x0AA5 [0x1B] RETURN
     0x0AA6 [0x45] LOAD_SCHEDULED_TASK: Load scheduler "fdo1" with entities [LocalPlayer, LocalPlayer], work=[200*, 0*]
     0x0AB7 [0x55] WAIT_LOAD_SCHEDULER: Wait for scheduler "fdo1" with entities [LocalPlayer, LocalPlayer], work=200*
     0x0AC6 [0x1B] RETURN
```

### Event 65535.11

#### Metadata

| Field        | Value    |
|--------------|----------|
| Entrypoint   | 0x0AC7   |
| Data Size    | 16 bytes |
| Instructions | 2        |

```
      00 01 02 03 04 05 06 07  08 09 0A 0B 0C 0D 0E 0F
      -- -- -- -- -- -- -- --  -- -- -- -- -- -- -- --
0AC0:                      5B  04 80 F8 FF FF 7F F8 FF         [........
0AD0: FF 7F 74 6C 6B 30 00                              ..tlk0.         
```

#### Opcodes

```
  0: 0x0AC7 [0x5B] LOAD_EXT_SCHEDULER: Load scheduler "tlk0" with entities [EventEntity, EventEntity], work=30*
  1: 0x0AD6 [0x00] END_REQSTACK()
```

### Event 65535.12

#### Metadata

| Field        | Value    |
|--------------|----------|
| Entrypoint   | 0x0AD7   |
| Data Size    | 22 bytes |
| Instructions | 4        |

```
      00 01 02 03 04 05 06 07  08 09 0A 0B 0C 0D 0E 0F
      -- -- -- -- -- -- -- --  -- -- -- -- -- -- -- --
0AD0:                      53  F8 FF FF 7F F8 FF FF 7F         S........
0AE0: 74 6C 6B 30 5E 69 64 6C  30 1C 04 80 00           tlk0^idl0....   
```

#### Opcodes

```
  0: 0x0AD7 [0x53] WAIT_SCHEDULER_TASK: Wait for scheduler "tlk0" with entities [EventEntity, EventEntity]
  1: 0x0AE4 [0x5E] EventEntity goes idle (kills current action) (animation: "idl0")
  2: 0x0AE9 [0x1C] WAIT(30* ticks)
  3: 0x0AEC [0x00] END_REQSTACK()
```

### Event 65535.13

#### Metadata

| Field        | Value    |
|--------------|----------|
| Entrypoint   | 0x0AED   |
| Data Size    | 16 bytes |
| Instructions | 2        |

```
      00 01 02 03 04 05 06 07  08 09 0A 0B 0C 0D 0E 0F
      -- -- -- -- -- -- -- --  -- -- -- -- -- -- -- --
0AE0:                                         5B 04 80               [..
0AF0: F8 FF FF 7F F8 FF FF 7F  74 68 6B 31 00           ........thk1.   
```

#### Opcodes

```
  0: 0x0AED [0x5B] LOAD_EXT_SCHEDULER: Load scheduler "thk1" with entities [EventEntity, EventEntity], work=30*
  1: 0x0AFC [0x00] END_REQSTACK()
```

### Event 65535.14

#### Metadata

| Field        | Value    |
|--------------|----------|
| Entrypoint   | 0x0AFD   |
| Data Size    | 14 bytes |
| Instructions | 2        |

```
      00 01 02 03 04 05 06 07  08 09 0A 0B 0C 0D 0E 0F
      -- -- -- -- -- -- -- --  -- -- -- -- -- -- -- --
0AF0:                                         53 F8 FF               S..
0B00: FF 7F F8 FF FF 7F 74 68  6B 31 00                 ......thk1.     
```

#### Opcodes

```
  0: 0x0AFD [0x53] WAIT_SCHEDULER_TASK: Wait for scheduler "thk1" with entities [EventEntity, EventEntity]
  1: 0x0B0A [0x00] END_REQSTACK()
```

### Event 65535.15

#### Metadata

| Field        | Value    |
|--------------|----------|
| Entrypoint   | 0x0B0B   |
| Data Size    | 16 bytes |
| Instructions | 2        |

```
      00 01 02 03 04 05 06 07  08 09 0A 0B 0C 0D 0E 0F
      -- -- -- -- -- -- -- --  -- -- -- -- -- -- -- --
0B00:                                   5B 04 80 F8 FF             [....
0B10: FF 7F F8 FF FF 7F 74 68  6B 32 00                 ......thk2.     
```

#### Opcodes

```
  0: 0x0B0B [0x5B] LOAD_EXT_SCHEDULER: Load scheduler "thk2" with entities [EventEntity, EventEntity], work=30*
  1: 0x0B1A [0x00] END_REQSTACK()
```

### Event 65535.16

#### Metadata

| Field        | Value    |
|--------------|----------|
| Entrypoint   | 0x0B1B   |
| Data Size    | 14 bytes |
| Instructions | 2        |

```
      00 01 02 03 04 05 06 07  08 09 0A 0B 0C 0D 0E 0F
      -- -- -- -- -- -- -- --  -- -- -- -- -- -- -- --
0B10:                                   53 F8 FF FF 7F             S....
0B20: F8 FF FF 7F 74 68 6B 32  00                       ....thk2.       
```

#### Opcodes

```
  0: 0x0B1B [0x53] WAIT_SCHEDULER_TASK: Wait for scheduler "thk2" with entities [EventEntity, EventEntity]
  1: 0x0B28 [0x00] END_REQSTACK()
```

### Event 65535.17

#### Metadata

| Field        | Value    |
|--------------|----------|
| Entrypoint   | 0x0B29   |
| Data Size    | 16 bytes |
| Instructions | 2        |

```
      00 01 02 03 04 05 06 07  08 09 0A 0B 0C 0D 0E 0F
      -- -- -- -- -- -- -- --  -- -- -- -- -- -- -- --
0B20:                             5B 04 80 F8 FF FF 7F           [......
0B30: F8 FF FF 7F 70 61 73 30  00                       ....pas0.       
```

#### Opcodes

```
  0: 0x0B29 [0x5B] LOAD_EXT_SCHEDULER: Load scheduler "pas0" with entities [EventEntity, EventEntity], work=30*
  1: 0x0B38 [0x00] END_REQSTACK()
```

### Event 65535.18

#### Metadata

| Field        | Value    |
|--------------|----------|
| Entrypoint   | 0x0B39   |
| Data Size    | 14 bytes |
| Instructions | 2        |

```
      00 01 02 03 04 05 06 07  08 09 0A 0B 0C 0D 0E 0F
      -- -- -- -- -- -- -- --  -- -- -- -- -- -- -- --
0B30:                             53 F8 FF FF 7F F8 FF           S......
0B40: FF 7F 70 61 73 30 00                              ..pas0.         
```

#### Opcodes

```
  0: 0x0B39 [0x53] WAIT_SCHEDULER_TASK: Wait for scheduler "pas0" with entities [EventEntity, EventEntity]
  1: 0x0B46 [0x00] END_REQSTACK()
```

### Event 65535.19

#### Metadata

| Field        | Value    |
|--------------|----------|
| Entrypoint   | 0x0B47   |
| Data Size    | 16 bytes |
| Instructions | 2        |

```
      00 01 02 03 04 05 06 07  08 09 0A 0B 0C 0D 0E 0F
      -- -- -- -- -- -- -- --  -- -- -- -- -- -- -- --
0B40:                      5B  04 80 F8 FF FF 7F F8 FF         [........
0B50: FF 7F 70 6E 74 30 00                              ..pnt0.         
```

#### Opcodes

```
  0: 0x0B47 [0x5B] LOAD_EXT_SCHEDULER: Load scheduler "pnt0" with entities [EventEntity, EventEntity], work=30*
  1: 0x0B56 [0x00] END_REQSTACK()
```

### Event 65535.20

#### Metadata

| Field        | Value    |
|--------------|----------|
| Entrypoint   | 0x0B57   |
| Data Size    | 14 bytes |
| Instructions | 2        |

```
      00 01 02 03 04 05 06 07  08 09 0A 0B 0C 0D 0E 0F
      -- -- -- -- -- -- -- --  -- -- -- -- -- -- -- --
0B50:                      53  F8 FF FF 7F F8 FF FF 7F         S........
0B60: 70 6E 74 30 00                                    pnt0.           
```

#### Opcodes

```
  0: 0x0B57 [0x53] WAIT_SCHEDULER_TASK: Wait for scheduler "pnt0" with entities [EventEntity, EventEntity]
  1: 0x0B64 [0x00] END_REQSTACK()
```

### Event 65535.21

#### Metadata

| Field        | Value    |
|--------------|----------|
| Entrypoint   | 0x0B65   |
| Data Size    | 12 bytes |
| Instructions | 4        |

```
      00 01 02 03 04 05 06 07  08 09 0A 0B 0C 0D 0E 0F
      -- -- -- -- -- -- -- --  -- -- -- -- -- -- -- --
0B60:                5E 69 64  6C 30 1C 04 80 1C 04 80       ^idl0......
0B70: 00                                                .               
```

#### Opcodes

```
  0: 0x0B65 [0x5E] EventEntity goes idle (kills current action) (animation: "idl0")
  1: 0x0B6A [0x1C] WAIT(30* ticks)
  2: 0x0B6D [0x1C] WAIT(30* ticks)
  3: 0x0B70 [0x00] END_REQSTACK()
```

### Event 556

#### Metadata

| Field        | Value     |
|--------------|-----------|
| Entrypoint   | 0x0B71    |
| Data Size    | 902 bytes |
| Instructions | 113       |

```
      00 01 02 03 04 05 06 07  08 09 0A 0B 0C 0D 0E 0F
      -- -- -- -- -- -- -- --  -- -- -- -- -- -- -- --
0B70:    42 46 01 4A 0E 90 0E  01 F0 FF FF 7F 5D 02 80   BF.J........]..
0B80: 19 80 45 19 80 F8 FF FF  7F F8 FF FF 7F 66 64 6F  ..E..........fdo
0B90: 31 02 80 1C 57 80 75 00  16 80 75 01 38 58 80 29  1...W.u...u.8X.)
0BA0: 08 F0 FF FF 7F 81 29 0B  06 90 0E 01 56 29 0B F0  ......).....V)..
0BB0: FF FF 7F 7D 4A 0E 90 0E  01 F0 FF FF 7F 6F 76 0E  ...}J........ov.
0BC0: 90 0E 01 5C 00 59 80 5C  01 59 80 5D 59 80 2A 80  ...\.Y.\.Y.]Y.*.
0BD0: 1C 19 80 45 5A 80 F8 FF  FF 7F F8 FF FF 7F 73 30  ...EZ.........s0
0BE0: 34 36 02 80 45 19 80 F8  FF FF 7F F8 FF FF 7F 66  46..E..........f
0BF0: 64 69 31 02 80 29 08 0E  90 0E 01 1A 29 0B 0E 90  di1..)......)...
0C00: 0E 01 27 52 5A 80 F8 FF  FF 7F F8 FF FF 7F 73 30  ..'RZ.........s0
0C10: 34 36 45 5A 80 F8 FF FF  7F F8 FF FF 7F 73 30 34  46EZ.........s04
0C20: 37 02 80 4E 00 06 90 0E  01 29 0B 0E 90 0E 01 28  7..N.....).....(
0C30: 29 08 0E 90 0E 01 1B 29  08 0E 90 0E 01 1C 29 0B  )......)......).
0C40: 0E 90 0E 01 29 29 08 0E  90 0E 01 1D 80 06 90 0E  ....))..........
0C50: 01 27 0B 06 90 0E 01 57  1C 04 80 52 5A 80 F8 FF  .'.....W...RZ...
0C60: FF 7F F8 FF FF 7F 73 30  34 37 45 19 80 F0 FF FF  ......s047E.....
0C70: 7F F0 FF FF 7F 6F 76 6C  31 02 80 27 0B 53 90 0E  .....ovl1..'.S..
0C80: 01 03 79 00 0E 90 0E 01  06 90 0E 01 79 00 F0 FF  ..y.........y...
0C90: FF 7F 06 90 0E 01 29 08  0E 90 0E 01 1E 2B 06 90  ......)......+..
0CA0: 0E 01 5B 80 23 29 0B F0  FF FF 7F 7E 29 08 0E 90  ..[.#).....~)...
0CB0: 0E 01 1F 2B 06 90 0E 01  5C 80 23 2A 0B 06 90 0E  ...+....\.#*....
0CC0: 01 2A 0B 53 90 0E 01 45  5A 80 F8 FF FF 7F F8 FF  .*.S...EZ.......
0CD0: FF 7F 73 30 35 30 02 80  27 0B 0E 90 0E 01 26 2B  ..s050..'.....&+
0CE0: 0E 90 0E 01 5D 80 23 2A  0B 0E 90 0E 01 29 08 06  ....].#*.....)..
0CF0: 90 0E 01 42 29 08 0E 90  0E 01 1A 29 0B 0E 90 0E  ...B)......)....
0D00: 01 2B 29 08 0E 90 0E 01  1B 52 5A 80 F8 FF FF 7F  .+)......RZ.....
0D10: F8 FF FF 7F 73 30 35 30  45 5A 80 F8 FF FF 7F F8  ....s050EZ......
0D20: FF FF 7F 73 30 35 32 02  80 29 0B 06 90 0E 01 5C  ...s052..).....\
0D30: 29 08 06 90 0E 01 43 52  5A 80 F8 FF FF 7F F8 FF  ).....CRZ.......
0D40: FF 7F 73 30 35 32 45 19  80 F0 FF FF 7F F0 FF FF  ..s052E.........
0D50: 7F 6F 76 6C 31 02 80 45  5A 80 F8 FF FF 7F F8 FF  .ovl1..EZ.......
0D60: FF 7F 73 30 35 33 02 80  29 08 06 90 0E 01 44 29  ..s053..).....D)
0D70: 0B 06 90 0E 01 5D 29 08  06 90 0E 01 45 52 5A 80  .....]).....ERZ.
0D80: F8 FF FF 7F F8 FF FF 7F  73 30 35 33 45 5A 80 F8  ........s053EZ..
0D90: FF FF 7F F8 FF FF 7F 73  30 35 31 02 80 29 08 0E  .......s051..)..
0DA0: 90 0E 01 1A 29 0B 0E 90  0E 01 2C 52 5A 80 F8 FF  ....).....,RZ...
0DB0: FF 7F F8 FF FF 7F 73 30  35 31 45 5A 80 F8 FF FF  ......s051EZ....
0DC0: 7F F8 FF FF 7F 73 30 35  34 02 80 27 08 0E 90 0E  .....s054..'....
0DD0: 01 1B 4B 06 90 0E 01 5E  80 6F 76 06 90 0E 01 2A  ..K....^.ov....*
0DE0: 08 0E 90 0E 01 1C 57 80  29 08 06 90 0E 01 3E 29  ......W.).....>)
0DF0: 0B 06 90 0E 01 5E 29 08  06 90 0E 01 3F 52 5A 80  .....^).....?RZ.
0E00: F8 FF FF 7F F8 FF FF 7F  73 30 35 34 45 5A 80 F8  ........s054EZ..
0E10: FF FF 7F F8 FF FF 7F 73  30 35 35 02 80 4A 06 90  .......s055..J..
0E20: 0E 01 F0 FF FF 7F 6F 76  06 90 0E 01 29 08 06 90  ......ov....)...
0E30: 0E 01 34 29 0B 06 90 0E  01 5F 29 08 06 90 0E 01  ..4)....._).....
0E40: 35 29 08 06 90 0E 01 36  29 08 06 90 0E 01 37 52  5).....6).....7R
0E50: 5A 80 F8 FF FF 7F F8 FF  FF 7F 73 30 35 35 45 19  Z.........s055E.
0E60: 80 F0 FF FF 7F F0 FF FF  7F 6F 76 6C 31 02 80 45  .........ovl1..E
0E70: 5A 80 F8 FF FF 7F F8 FF  FF 7F 73 30 35 36 02 80  Z.........s056..
0E80: 5D 02 80 19 80 29 0B 06  90 0E 01 59 27 0B 06 90  ]....).....Y'...
0E90: 0E 01 58 1C 5F 80 45 19  80 F8 FF FF 7F F8 FF FF  ..X._.E.........
0EA0: 7F 66 64 6F 31 02 80 1C  3D 80 2A 0B 06 90 0E 01  .fdo1...=.*.....
0EB0: 52 5A 80 F8 FF FF 7F F8  FF FF 7F 73 30 35 36 5C  RZ.........s056\
0EC0: 00 60 80 5C 01 60 80 5D  59 80 2A 80 46 00 1C 19  .`.\.`.]Y.*.F...
0ED0: 80 45 19 80 F8 FF FF 7F  F8 FF FF 7F 66 64 69 31  .E..........fdi1
0EE0: 02 80 45 4C 80 F0 FF FF  7F F0 FF FF 7F 71 73 74  ..EL.........qst
0EF0: 63 02 80 20 00 21 00                              c.. .!.         
```

#### Opcodes

```
  0: 0x0B71 [0x42] SET_CLI_EVENT_CANCEL_DATA()
  1: 0x0B72 [0x46] CAMERA_CONTROL: Disable user control
  2: 0x0B74 [0x4A] Chalvatot (ID: 17731598/0x010E900E) looks at LocalPlayer
  3: 0x0B7D [0x5D] SET_MUSIC_VOLUME(volume=0*, fade_time=200*)
  4: 0x0B82 [0x45] LOAD_SCHEDULED_TASK: Load scheduler "fdo1" with entities [EventEntity, EventEntity], work=[200*, 0*]
  5: 0x0B93 [0x1C] WAIT(100* ticks)
  6: 0x0B96 [0x75] LOAD_ROOM(Load indoor room, room=373*)
  7: 0x0B9A [0x75] LOAD_ROOM(No action)
  8: 0x0B9C [0x38] SET_CLIENT_EVENT_MODE(mode=19*)
  9: 0x0B9F [0x29] REQ_SET_WAIT(priority=0x08, entity_id=LocalPlayer, tag_num=0x81)
 10: 0x0BA6 [0x29] REQ_SET_WAIT(priority=0x0B, entity_id=Claidie (ID: 17731590/0x010E9006), tag_num=0x56)
 11: 0x0BAD [0x29] REQ_SET_WAIT(priority=0x0B, entity_id=LocalPlayer, tag_num=0x7D)
 12: 0x0BB4 [0x4A] Chalvatot (ID: 17731598/0x010E900E) looks at LocalPlayer
 13: 0x0BBD [0x6F] WAIT_FRAME_DELAY: Yield until WaitTime reaches zero
 14: 0x0BBE [0x76] CHECK_ENTITY_RENDER_FLAGS: Wait until Chalvatot (ID: 17731598/0x010E900E) Render.Flags0 and Render.Flags3 conditions are met
 15: 0x0BC3 [0x5C] MUSIC_CONTROL: Set Idle (Day) music to song 127*
 16: 0x0BC7 [0x5C] MUSIC_CONTROL: Set Idle (Night) music to song 127*
 17: 0x0BCB [0x5D] SET_MUSIC_VOLUME(volume=127*, fade_time=1*)
 18: 0x0BD0 [0x1C] WAIT(200* ticks)
 19: 0x0BD3 [0x45] LOAD_SCHEDULED_TASK: Load scheduler "s046" with entities [EventEntity, EventEntity], work=[49*, 0*]
 20: 0x0BE4 [0x45] LOAD_SCHEDULED_TASK: Load scheduler "fdi1" with entities [EventEntity, EventEntity], work=[200*, 0*]
 21: 0x0BF5 [0x29] REQ_SET_WAIT(priority=0x08, entity_id=Chalvatot (ID: 17731598/0x010E900E), tag_num=0x1A)
 22: 0x0BFC [0x29] REQ_SET_WAIT(priority=0x0B, entity_id=Chalvatot (ID: 17731598/0x010E900E), tag_num=0x27)
 23: 0x0C03 [0x52] END_LOAD_SCHEDULER: End scheduler "s046" with entities [EventEntity, EventEntity], work=49*
 24: 0x0C12 [0x45] LOAD_SCHEDULED_TASK: Load scheduler "s047" with entities [EventEntity, EventEntity], work=[49*, 0*]
 25: 0x0C23 [0x4E] SET_ENTITY_HIDE_FLAG: Show Claidie (ID: 17731590/0x010E9006)
 26: 0x0C29 [0x29] REQ_SET_WAIT(priority=0x0B, entity_id=Chalvatot (ID: 17731598/0x010E900E), tag_num=0x28)
 27: 0x0C30 [0x29] REQ_SET_WAIT(priority=0x08, entity_id=Chalvatot (ID: 17731598/0x010E900E), tag_num=0x1B)
 28: 0x0C37 [0x29] REQ_SET_WAIT(priority=0x08, entity_id=Chalvatot (ID: 17731598/0x010E900E), tag_num=0x1C)
 29: 0x0C3E [0x29] REQ_SET_WAIT(priority=0x0B, entity_id=Chalvatot (ID: 17731598/0x010E900E), tag_num=0x29)
 30: 0x0C45 [0x29] REQ_SET_WAIT(priority=0x08, entity_id=Chalvatot (ID: 17731598/0x010E900E), tag_num=0x1D)
 31: 0x0C4C [0x80] LOAD_WAIT(entity=Claidie (ID: 17731590/0x010E9006))
 32: 0x0C51 [0x27] REQ_SET(priority=0x0B, entity_id=Claidie (ID: 17731590/0x010E9006), tag_num=0x57)
 33: 0x0C58 [0x1C] WAIT(30* ticks)
 34: 0x0C5B [0x52] END_LOAD_SCHEDULER: End scheduler "s047" with entities [EventEntity, EventEntity], work=49*
 35: 0x0C6A [0x45] LOAD_SCHEDULED_TASK: Load scheduler "ovl1" with entities [LocalPlayer, LocalPlayer], work=[200*, 0*]
 36: 0x0C7B [0x27] REQ_SET(priority=0x0B, entity_id=EVENTER (ID: 17731667/0x010E9053), tag_num=0x03)
 37: 0x0C82 [0x79] Chalvatot (ID: 17731598/0x010E900E) looks at Claidie (ID: 17731590/0x010E9006) (Basic look)
 38: 0x0C8C [0x79] LocalPlayer looks at Claidie (ID: 17731590/0x010E9006) (Basic look)
 39: 0x0C96 [0x29] REQ_SET_WAIT(priority=0x08, entity_id=Chalvatot (ID: 17731598/0x010E900E), tag_num=0x1E)
 40: 0x0C9D [0x2B] Claidie (ID: 17731590/0x010E9006) [7647*]:
    → "Chalvatot, what has happened in my mother's chambers?"
 41: 0x0CA4 [0x23] WAIT_FOR_DIALOG_INTERACTION
 42: 0x0CA5 [0x29] REQ_SET_WAIT(priority=0x0B, entity_id=LocalPlayer, tag_num=0x7E)
 43: 0x0CAC [0x29] REQ_SET_WAIT(priority=0x08, entity_id=Chalvatot (ID: 17731598/0x010E900E), tag_num=0x1F)
 44: 0x0CB3 [0x2B] Claidie (ID: 17731590/0x010E9006) [7648*]:
    → "When I went to give some water to the flowers, I passed by some Temple Guards."
 45: 0x0CBA [0x23] WAIT_FOR_DIALOG_INTERACTION
 46: 0x0CBB [0x2A] GET_REQ_LEVEL(level=11, entity_id=Claidie (ID: 17731590/0x010E9006))
 47: 0x0CC1 [0x2A] GET_REQ_LEVEL(level=11, entity_id=EVENTER (ID: 17731667/0x010E9053))
 48: 0x0CC7 [0x45] LOAD_SCHEDULED_TASK: Load scheduler "s050" with entities [EventEntity, EventEntity], work=[49*, 0*]
 49: 0x0CD8 [0x27] REQ_SET(priority=0x0B, entity_id=Chalvatot (ID: 17731598/0x010E900E), tag_num=0x26)
 50: 0x0CDF [0x2B] Chalvatot (ID: 17731598/0x010E900E) [7649*]:
    → "I am so sorry, Your Highness! Last night, some thieves broke into the late queen's chambers!"
 51: 0x0CE6 [0x23] WAIT_FOR_DIALOG_INTERACTION
 52: 0x0CE7 [0x2A] GET_REQ_LEVEL(level=11, entity_id=Chalvatot (ID: 17731598/0x010E900E))
 53: 0x0CED [0x29] REQ_SET_WAIT(priority=0x08, entity_id=Claidie (ID: 17731590/0x010E9006), tag_num=0x42)
 54: 0x0CF4 [0x29] REQ_SET_WAIT(priority=0x08, entity_id=Chalvatot (ID: 17731598/0x010E900E), tag_num=0x1A)
 55: 0x0CFB [0x29] REQ_SET_WAIT(priority=0x0B, entity_id=Chalvatot (ID: 17731598/0x010E900E), tag_num=0x2B)
 56: 0x0D02 [0x29] REQ_SET_WAIT(priority=0x08, entity_id=Chalvatot (ID: 17731598/0x010E900E), tag_num=0x1B)
 57: 0x0D09 [0x52] END_LOAD_SCHEDULER: End scheduler "s050" with entities [EventEntity, EventEntity], work=49*
 58: 0x0D18 [0x45] LOAD_SCHEDULED_TASK: Load scheduler "s052" with entities [EventEntity, EventEntity], work=[49*, 0*]
 59: 0x0D29 [0x29] REQ_SET_WAIT(priority=0x0B, entity_id=Claidie (ID: 17731590/0x010E9006), tag_num=0x5C)
 60: 0x0D30 [0x29] REQ_SET_WAIT(priority=0x08, entity_id=Claidie (ID: 17731590/0x010E9006), tag_num=0x43)
 61: 0x0D37 [0x52] END_LOAD_SCHEDULER: End scheduler "s052" with entities [EventEntity, EventEntity], work=49*
 62: 0x0D46 [0x45] LOAD_SCHEDULED_TASK: Load scheduler "ovl1" with entities [LocalPlayer, LocalPlayer], work=[200*, 0*]
 63: 0x0D57 [0x45] LOAD_SCHEDULED_TASK: Load scheduler "s053" with entities [EventEntity, EventEntity], work=[49*, 0*]
 64: 0x0D68 [0x29] REQ_SET_WAIT(priority=0x08, entity_id=Claidie (ID: 17731590/0x010E9006), tag_num=0x44)
 65: 0x0D6F [0x29] REQ_SET_WAIT(priority=0x0B, entity_id=Claidie (ID: 17731590/0x010E9006), tag_num=0x5D)
 66: 0x0D76 [0x29] REQ_SET_WAIT(priority=0x08, entity_id=Claidie (ID: 17731590/0x010E9006), tag_num=0x45)
 67: 0x0D7D [0x52] END_LOAD_SCHEDULER: End scheduler "s053" with entities [EventEntity, EventEntity], work=49*
 68: 0x0D8C [0x45] LOAD_SCHEDULED_TASK: Load scheduler "s051" with entities [EventEntity, EventEntity], work=[49*, 0*]
 69: 0x0D9D [0x29] REQ_SET_WAIT(priority=0x08, entity_id=Chalvatot (ID: 17731598/0x010E900E), tag_num=0x1A)
 70: 0x0DA4 [0x29] REQ_SET_WAIT(priority=0x0B, entity_id=Chalvatot (ID: 17731598/0x010E900E), tag_num=0x2C)
 71: 0x0DAB [0x52] END_LOAD_SCHEDULER: End scheduler "s051" with entities [EventEntity, EventEntity], work=49*
 72: 0x0DBA [0x45] LOAD_SCHEDULED_TASK: Load scheduler "s054" with entities [EventEntity, EventEntity], work=[49*, 0*]
 73: 0x0DCB [0x27] REQ_SET(priority=0x08, entity_id=Chalvatot (ID: 17731598/0x010E900E), tag_num=0x1B)
 74: 0x0DD2 [0x4B] UPDATE_ENTITY_YAW(entity=Claidie (ID: 17731590/0x010E9006), yaw=4.0°*)
 75: 0x0DD9 [0x6F] WAIT_FRAME_DELAY: Yield until WaitTime reaches zero
 76: 0x0DDA [0x76] CHECK_ENTITY_RENDER_FLAGS: Wait until Claidie (ID: 17731590/0x010E9006) Render.Flags0 and Render.Flags3 conditions are met
 77: 0x0DDF [0x2A] GET_REQ_LEVEL(level=8, entity_id=Chalvatot (ID: 17731598/0x010E900E))
 78: 0x0DE5 [0x1C] WAIT(100* ticks)
 79: 0x0DE8 [0x29] REQ_SET_WAIT(priority=0x08, entity_id=Claidie (ID: 17731590/0x010E9006), tag_num=0x3E)
 80: 0x0DEF [0x29] REQ_SET_WAIT(priority=0x0B, entity_id=Claidie (ID: 17731590/0x010E9006), tag_num=0x5E)
 81: 0x0DF6 [0x29] REQ_SET_WAIT(priority=0x08, entity_id=Claidie (ID: 17731590/0x010E9006), tag_num=0x3F)
 82: 0x0DFD [0x52] END_LOAD_SCHEDULER: End scheduler "s054" with entities [EventEntity, EventEntity], work=49*
 83: 0x0E0C [0x45] LOAD_SCHEDULED_TASK: Load scheduler "s055" with entities [EventEntity, EventEntity], work=[49*, 0*]
 84: 0x0E1D [0x4A] Claidie (ID: 17731590/0x010E9006) looks at LocalPlayer
 85: 0x0E26 [0x6F] WAIT_FRAME_DELAY: Yield until WaitTime reaches zero
 86: 0x0E27 [0x76] CHECK_ENTITY_RENDER_FLAGS: Wait until Claidie (ID: 17731590/0x010E9006) Render.Flags0 and Render.Flags3 conditions are met
 87: 0x0E2C [0x29] REQ_SET_WAIT(priority=0x08, entity_id=Claidie (ID: 17731590/0x010E9006), tag_num=0x34)
 88: 0x0E33 [0x29] REQ_SET_WAIT(priority=0x0B, entity_id=Claidie (ID: 17731590/0x010E9006), tag_num=0x5F)
 89: 0x0E3A [0x29] REQ_SET_WAIT(priority=0x08, entity_id=Claidie (ID: 17731590/0x010E9006), tag_num=0x35)
 90: 0x0E41 [0x29] REQ_SET_WAIT(priority=0x08, entity_id=Claidie (ID: 17731590/0x010E9006), tag_num=0x36)
 91: 0x0E48 [0x29] REQ_SET_WAIT(priority=0x08, entity_id=Claidie (ID: 17731590/0x010E9006), tag_num=0x37)
 92: 0x0E4F [0x52] END_LOAD_SCHEDULER: End scheduler "s055" with entities [EventEntity, EventEntity], work=49*
 93: 0x0E5E [0x45] LOAD_SCHEDULED_TASK: Load scheduler "ovl1" with entities [LocalPlayer, LocalPlayer], work=[200*, 0*]
 94: 0x0E6F [0x45] LOAD_SCHEDULED_TASK: Load scheduler "s056" with entities [EventEntity, EventEntity], work=[49*, 0*]
 95: 0x0E80 [0x5D] SET_MUSIC_VOLUME(volume=0*, fade_time=200*)
 96: 0x0E85 [0x29] REQ_SET_WAIT(priority=0x0B, entity_id=Claidie (ID: 17731590/0x010E9006), tag_num=0x59)
 97: 0x0E8C [0x27] REQ_SET(priority=0x0B, entity_id=Claidie (ID: 17731590/0x010E9006), tag_num=0x58)
 98: 0x0E93 [0x1C] WAIT(80* ticks)
 99: 0x0E96 [0x45] LOAD_SCHEDULED_TASK: Load scheduler "fdo1" with entities [EventEntity, EventEntity], work=[200*, 0*]
100: 0x0EA7 [0x1C] WAIT(120* ticks)
101: 0x0EAA [0x2A] GET_REQ_LEVEL(level=11, entity_id=Claidie (ID: 17731590/0x010E9006))
102: 0x0EB0 [0x52] END_LOAD_SCHEDULER: End scheduler "s056" with entities [EventEntity, EventEntity], work=49*
103: 0x0EBF [0x5C] MUSIC_CONTROL: Set Idle (Day) music to song 156*
104: 0x0EC3 [0x5C] MUSIC_CONTROL: Set Idle (Night) music to song 156*
105: 0x0EC7 [0x5D] SET_MUSIC_VOLUME(volume=127*, fade_time=1*)
106: 0x0ECC [0x46] CAMERA_CONTROL: Restore default settings
107: 0x0ECE [0x1C] WAIT(200* ticks)
108: 0x0ED1 [0x45] LOAD_SCHEDULED_TASK: Load scheduler "fdi1" with entities [EventEntity, EventEntity], work=[200*, 0*]
109: 0x0EE2 [0x45] LOAD_SCHEDULED_TASK: Load scheduler "qstc" with entities [LocalPlayer, LocalPlayer], work=[201*, 0*]
110: 0x0EF3 [0x20] SET_CLI_EVENT_UC_FLAG: Unlock player control
111: 0x0EF5 [0x21] END_EVENT
112: 0x0EF6 [0x00] END_REQSTACK()
```

### Event 65535.22

#### Metadata

| Field        | Value    |
|--------------|----------|
| Entrypoint   | 0x0EF7   |
| Data Size    | 14 bytes |
| Instructions | 4        |

```
      00 01 02 03 04 05 06 07  08 09 0A 0B 0C 0D 0E 0F
      -- -- -- -- -- -- -- --  -- -- -- -- -- -- -- --
0EF0:                      32  0D 80 1F 00 61 80 62 80         2....a.b.
0F00: 08 80 1F 01 00                                    .....           
```

#### Opcodes

```
  0: 0x0EF7 [0x32] ExtData[1]->MainSpeed = 13* * 0.1
  1: 0x0EFA [0x1F] MOVE_ENTITY: EventEntity moves to X=-103.226*, Z=73.037*, Y=0.398*
  2: 0x0F02 [0x1F] MOVE_ENTITY: Update entity position (mode=1)
  3: 0x0F04 [0x00] END_REQSTACK()
```

### Event 65535.23

#### Metadata

| Field        | Value   |
|--------------|---------|
| Entrypoint   | 0x0F05  |
| Data Size    | 5 bytes |
| Instructions | 3       |

```
      00 01 02 03 04 05 06 07  08 09 0A 0B 0C 0D 0E 0F
      -- -- -- -- -- -- -- --  -- -- -- -- -- -- -- --
0F00:                1D 63 80  23 00                         .c.#.      
```

#### Opcodes

```
  0: 0x0F05 [0x1D] PRINT_EVENT_MESSAGE(message_id=7644*)
    → "Ah, I know you. You're that adventurer <Player>. You want to know about the thieves that broke into the queen's chambers?"
  1: 0x0F08 [0x23] WAIT_FOR_DIALOG_INTERACTION
  2: 0x0F09 [0x00] END_REQSTACK()
```

### Event 65535.24

#### Metadata

| Field        | Value   |
|--------------|---------|
| Entrypoint   | 0x0F0A  |
| Data Size    | 5 bytes |
| Instructions | 3       |

```
      00 01 02 03 04 05 06 07  08 09 0A 0B 0C 0D 0E 0F
      -- -- -- -- -- -- -- --  -- -- -- -- -- -- -- --
0F00:                                1D 64 80 23 00               .d.#. 
```

#### Opcodes

```
  0: 0x0F0A [0x1D] PRINT_EVENT_MESSAGE(message_id=7645*)
    → "Well, I didn't see anything special. All I saw was two suspicious lookin' Elvaan. When I yelled at 'em, they ran off. That be all."
  1: 0x0F0D [0x23] WAIT_FOR_DIALOG_INTERACTION
  2: 0x0F0E [0x00] END_REQSTACK()
```

### Event 65535.25

#### Metadata

| Field        | Value   |
|--------------|---------|
| Entrypoint   | 0x0F0F  |
| Data Size    | 5 bytes |
| Instructions | 3       |

```
      00 01 02 03 04 05 06 07  08 09 0A 0B 0C 0D 0E 0F
      -- -- -- -- -- -- -- --  -- -- -- -- -- -- -- --
0F00:                                               1D                 .
0F10: 65 80 23 00                                       e.#.            
```

#### Opcodes

```
  0: 0x0F0F [0x1D] PRINT_EVENT_MESSAGE(message_id=7646*)
    → "But I swear I seen me one before... The one with blue armor..."
  1: 0x0F12 [0x23] WAIT_FOR_DIALOG_INTERACTION
  2: 0x0F13 [0x00] END_REQSTACK()
```

### Event 65535.26

#### Metadata

| Field        | Value   |
|--------------|---------|
| Entrypoint   | 0x0F14  |
| Data Size    | 5 bytes |
| Instructions | 3       |

```
      00 01 02 03 04 05 06 07  08 09 0A 0B 0C 0D 0E 0F
      -- -- -- -- -- -- -- --  -- -- -- -- -- -- -- --
0F10:             1D 5D 80 23  00                           .].#.       
```

#### Opcodes

```
  0: 0x0F14 [0x1D] PRINT_EVENT_MESSAGE(message_id=7649*)
    → "I am so sorry, Your Highness! Last night, some thieves broke into the late queen's chambers!"
  1: 0x0F17 [0x23] WAIT_FOR_DIALOG_INTERACTION
  2: 0x0F18 [0x00] END_REQSTACK()
```

### Event 65535.27

#### Metadata

| Field        | Value   |
|--------------|---------|
| Entrypoint   | 0x0F19  |
| Data Size    | 5 bytes |
| Instructions | 3       |

```
      00 01 02 03 04 05 06 07  08 09 0A 0B 0C 0D 0E 0F
      -- -- -- -- -- -- -- --  -- -- -- -- -- -- -- --
0F10:                             1D 66 80 23 00                 .f.#.  
```

#### Opcodes

```
  0: 0x0F19 [0x1D] PRINT_EVENT_MESSAGE(message_id=7650*)
    → "And to make matters worse, the scoundrels are still on the loose! Oh, what has become of the once mighty Chateau d'Oraguille?"
  1: 0x0F1C [0x23] WAIT_FOR_DIALOG_INTERACTION
  2: 0x0F1D [0x00] END_REQSTACK()
```

### Event 65535.28

#### Metadata

| Field        | Value   |
|--------------|---------|
| Entrypoint   | 0x0F1E  |
| Data Size    | 5 bytes |
| Instructions | 3       |

```
      00 01 02 03 04 05 06 07  08 09 0A 0B 0C 0D 0E 0F
      -- -- -- -- -- -- -- --  -- -- -- -- -- -- -- --
0F10:                                            1D 67                .g
0F20: 80 23 00                                          .#.             
```

#### Opcodes

```
  0: 0x0F1E [0x1D] PRINT_EVENT_MESSAGE(message_id=7653*)
    → "Your Highness? You say you saw something out of the ordinary?"
  1: 0x0F21 [0x23] WAIT_FOR_DIALOG_INTERACTION
  2: 0x0F22 [0x00] END_REQSTACK()
```

### Event 561

#### Metadata

| Field        | Value    |
|--------------|----------|
| Entrypoint   | 0x0F23   |
| Data Size    | 56 bytes |
| Instructions | 14       |

```
      00 01 02 03 04 05 06 07  08 09 0A 0B 0C 0D 0E 0F
      -- -- -- -- -- -- -- --  -- -- -- -- -- -- -- --
0F20:          42 48 68 80 1E  F0 FF FF 7F 1C 04 80 1D     BHh..........
0F30: 69 80 23 5B 04 80 F8 FF  FF 7F F8 FF FF 7F 74 6C  i.#[..........tl
0F40: 6B 30 1D 6A 80 23 5B 04  80 F8 FF FF 7F F8 FF FF  k0.j.#[.........
0F50: 7F 74 6C 6B 31 1D 6B 80  23 21 00                 .tlk1.k.#!.     
```

#### Opcodes

```
  0: 0x0F23 [0x42] SET_CLI_EVENT_CANCEL_DATA()
  1: 0x0F24 [0x48] [System] [8289*]:
    → "<Player>'s badge flashes brightly."
