# 17731671

## Common Data

| Field            | Value                         |
|------------------|-------------------------------|
| Zone             | Chateau d'Oraguille (ID: 233) |
| Block Size       | 6604 bytes                    |
| Total Events     | 3                             |
| References Count | 166                           |

## List of Events

| Event ID              | Entrypoint   |   Size |   Instructions |
|-----------------------|--------------|--------|----------------|
| [65535](#event-65535) | 0x0000       |      1 |              1 |
| [563](#event-563)     | 0x0001       |    585 |             98 |
| [564](#event-564)     | 0x024A       |   5325 |            719 |

## DAT References (imed_data)

|   Index | Hex Value   |   Dec Value |
|---------|-------------|-------------|
|       0 | 0x0013      |          19 |
|       1 | 0x002D      |          45 |
|       2 | 0x009C      |         156 |
|       3 | 0x0058      |          88 |
|       4 | 0x0000      |           0 |
|       5 | 0x2070      |        8304 |
|       6 | 0x0057      |          87 |
|       7 | 0x2075      |        8309 |
|       8 | 0x00F0      |         240 |
|       9 | 0x2077      |        8311 |
|      10 | 0x00A3      |         163 |
|      11 | 0x2078      |        8312 |
|      12 | 0x207A      |        8314 |
|      13 | 0x207B      |        8315 |
|      14 | 0x207C      |        8316 |
|      15 | 0x207D      |        8317 |
|      16 | 0x207E      |        8318 |
|      17 | 0x001E      |          30 |
|      18 | 0x0001      |           1 |
|      19 | 0x0103      |         259 |
|      20 | 0x00C8      |         200 |
|      21 | 0x2071      |        8305 |
|      22 | 0x0311      |         785 |
|      23 | 0x2072      |        8306 |
|      24 | 0x2073      |        8307 |
|      25 | 0x2074      |        8308 |
|      26 | 0x000F      |          15 |
|      27 | 0x2076      |        8310 |
|      28 | 0x2079      |        8313 |
|      29 | 0x207F      |        8319 |
|      30 | 0x0006      |           6 |
|      31 | 0x2080      |        8320 |
|      32 | 0x2081      |        8321 |
|      33 | 0x2082      |        8322 |
|      34 | 0x2083      |        8323 |
|      35 | 0x2084      |        8324 |
|      36 | 0x2085      |        8325 |
|      37 | 0x2086      |        8326 |
|      38 | 0x2087      |        8327 |
|      39 | 0x2088      |        8328 |
|      40 | 0x2089      |        8329 |
|      41 | 0x208A      |        8330 |
|      42 | 0x208B      |        8331 |
|      43 | 0x003C      |          60 |
|      44 | 0x208C      |        8332 |
|      45 | 0x208D      |        8333 |
|      46 | 0x208E      |        8334 |
|      47 | 0x208F      |        8335 |
|      48 | 0x0245      |         581 |
|      49 | 0x005A      |          90 |
|      50 | 0x000A      |          10 |
|      51 | 0x2090      |        8336 |
|      52 | 0x2091      |        8337 |
|      53 | 0x2092      |        8338 |
|      54 | 0x2093      |        8339 |
|      55 | 0x2094      |        8340 |
|      56 | 0x2095      |        8341 |
|      57 | 0x2096      |        8342 |
|      58 | 0x2097      |        8343 |
|      59 | 0x2098      |        8344 |
|      60 | 0x2099      |        8345 |
|      61 | 0x209A      |        8346 |
|      62 | 0x209B      |        8347 |
|      63 | 0x209C      |        8348 |
|      64 | 0x209D      |        8349 |
|      65 | 0x209E      |        8350 |
|      66 | 0x209F      |        8351 |
|      67 | 0x20A0      |        8352 |
|      68 | 0x20A1      |        8353 |
|      69 | 0x20A2      |        8354 |
|      70 | 0x20A3      |        8355 |
|      71 | 0x20A4      |        8356 |
|      72 | 0x20A5      |        8357 |
|      73 | 0x20A6      |        8358 |
|      74 | 0x20A7      |        8359 |
|      75 | 0x20A8      |        8360 |
|      76 | 0x20A9      |        8361 |
|      77 | 0x20AA      |        8362 |
|      78 | 0x20AB      |        8363 |
|      79 | 0x007B      |         123 |
|      80 | 0x20AC      |        8364 |
|      81 | 0x20AD      |        8365 |
|      82 | 0x20AE      |        8366 |
|      83 | 0x20AF      |        8367 |
|      84 | 0x20B0      |        8368 |
|      85 | 0x20B1      |        8369 |
|      86 | 0x20B2      |        8370 |
|      87 | 0x20B3      |        8371 |
|      88 | 0x20B4      |        8372 |
|      89 | 0x20B5      |        8373 |
|      90 | 0x20B6      |        8374 |
|      91 | 0x20B7      |        8375 |
|      92 | 0x20B8      |        8376 |
|      93 | 0x20B9      |        8377 |
|      94 | 0x20BA      |        8378 |
|      95 | 0x00B4      |         180 |
|      96 | 0x0078      |         120 |
|      97 | 0x20BB      |        8379 |
|      98 | 0x20BC      |        8380 |
|      99 | 0x20BD      |        8381 |
|     100 | 0x20BE      |        8382 |
|     101 | 0x20BF      |        8383 |
|     102 | 0x20C0      |        8384 |
|     103 | 0x20C1      |        8385 |
|     104 | 0x20C2      |        8386 |
|     105 | 0x20C3      |        8387 |
|     106 | 0x20C4      |        8388 |
|     107 | 0x20C5      |        8389 |
|     108 | 0x20C6      |        8390 |
|     109 | 0x20C7      |        8391 |
|     110 | 0x20C8      |        8392 |
|     111 | 0x20C9      |        8393 |
|     112 | 0x20CA      |        8394 |
|     113 | 0x20CB      |        8395 |
|     114 | 0x20CC      |        8396 |
|     115 | 0x0014      |          20 |
|     116 | 0x20CD      |        8397 |
|     117 | 0x20CE      |        8398 |
|     118 | 0x20CF      |        8399 |
|     119 | 0x20D0      |        8400 |
|     120 | 0x20D1      |        8401 |
|     121 | 0x20D2      |        8402 |
|     122 | 0x20D3      |        8403 |
|     123 | 0x0400      |        1024 |
|     124 | 0x20D4      |        8404 |
|     125 | 0x20D5      |        8405 |
|     126 | 0x00B9      |         185 |
|     127 | 0x006C      |         108 |
|     128 | 0x20D6      |        8406 |
|     129 | 0x20D7      |        8407 |
|     130 | 0x20D8      |        8408 |
|     131 | 0x20D9      |        8409 |
|     132 | 0x20DA      |        8410 |
|     133 | 0x20DB      |        8411 |
|     134 | 0x20DC      |        8412 |
|     135 | 0x20DD      |        8413 |
|     136 | 0x20DE      |        8414 |
|     137 | 0x20DF      |        8415 |
|     138 | 0x20E0      |        8416 |
|     139 | 0x20E1      |        8417 |
|     140 | 0x20E2      |        8418 |
|     141 | 0x20E3      |        8419 |
|     142 | 0x20E4      |        8420 |
|     143 | 0x20E5      |        8421 |
|     144 | 0x20E6      |        8422 |
|     145 | 0x20E7      |        8423 |
|     146 | 0x20E8      |        8424 |
|     147 | 0x20E9      |        8425 |
|     148 | 0x20EA      |        8426 |
|     149 | 0x20EB      |        8427 |
|     150 | 0x20EC      |        8428 |
|     151 | 0x0B82      |        2946 |
|     152 | 0x20ED      |        8429 |
|     153 | 0x20EE      |        8430 |
|     154 | 0x20EF      |        8431 |
|     155 | 0x20F0      |        8432 |
|     156 | 0x20F1      |        8433 |
|     157 | 0x20F2      |        8434 |
|     158 | 0x20F3      |        8435 |
|     159 | 0x20F4      |        8436 |
|     160 | 0x20F5      |        8437 |
|     161 | 0x0007      |           7 |
|     162 | 0x20F6      |        8438 |
|     163 | 0x00C9      |         201 |
|     164 | 0x0002      |           2 |
|     165 | 0x00D7      |         215 |

## String References

- **8306**: Show him $3? [Of course./Not a chance.]

## Events

### Event 65535

#### Metadata

| Field        | Value   |
|--------------|---------|
| Entrypoint   | 0x0000  |
| Data Size    | 1 bytes |
| Instructions | 1       |

```
      00 01 02 03 04 05 06 07  08 09 0A 0B 0C 0D 0E 0F
      -- -- -- -- -- -- -- --  -- -- -- -- -- -- -- --
0000: 00                                                .               
```

#### Opcodes

```
  0: 0x0000 [0x00] END_REQSTACK()
```

### Event 563

#### Metadata

| Field        | Value     |
|--------------|-----------|
| Entrypoint   | 0x0001    |
| Data Size    | 585 bytes |
| Instructions | 98        |

```
      00 01 02 03 04 05 06 07  08 09 0A 0B 0C 0D 0E 0F
      -- -- -- -- -- -- -- --  -- -- -- -- -- -- -- --
0000:    05 01 00 42 03 00 00  08 10 1A E9 14 46 01 38   ...B........F.8
0010: 00 80 4E 00 F0 FF FF 7F  4E 00 4D 90 0E 01 4E 00  ..N.....N.M...N.
0020: 4E 90 0E 01 4E 01 08 90  0E 01 92 01 4D 90 0E 01  N...N.......M...
0030: 92 01 4E 90 0E 01 92 01  07 90 0E 01 92 01 08 90  ..N.............
0040: 0E 01 92 01 0C 90 0E 01  92 01 05 90 0E 01 92 01  ................
0050: 58 90 0E 01 92 01 11 90  0E 01 92 01 12 90 0E 01  X...............
0060: 92 01 13 90 0E 01 92 01  14 90 0E 01 92 01 15 90  ................
0070: 0E 01 94 01 F0 FF FF 7F  94 01 4D 90 0E 01 94 01  ..........M.....
0080: 4E 90 0E 01 94 01 07 90  0E 01 94 01 08 90 0E 01  N...............
0090: 94 01 0C 90 0E 01 94 01  05 90 0E 01 29 10 F0 FF  ............)...
00A0: FF 7F 88 29 10 4D 90 0E  01 02 29 10 4E 90 0E 01  ...).M....).N...
00B0: 02 80 F0 FF FF 7F 80 4D  90 0E 01 80 4E 90 0E 01  .......M....N...
00C0: 80 07 90 0E 01 80 08 90  0E 01 80 0C 90 0E 01 80  ................
00D0: 05 90 0E 01 4A F0 FF FF  7F 07 90 0E 01 4A 07 90  ....J........J..
00E0: 0E 01 F0 FF FF 7F 1C 01  80 5C 00 02 80 5C 01 02  .........\...\..
00F0: 80 9A 45 03 80 F0 FF FF  7F F0 FF FF 7F 7A 30 30  ..E..........z00
0100: 30 04 80 1A C8 14 55 03  80 F0 FF FF 7F F0 FF FF  0.....U.........
0110: 7F 7A 30 30 30 27 03 07  90 0E 01 06 2B 07 90 0E  .z000'......+...
0120: 01 05 80 23 45 06 80 F0  FF FF 7F F0 FF FF 7F 7A  ...#E..........z
0130: 30 30 30 04 80 2B 07 90  0E 01 07 80 23 52 06 80  000..+......#R..
0140: F0 FF FF 7F F0 FF FF 7F  7A 30 30 30 45 06 80 F0  ........z000E...
0150: FF FF 7F F0 FF FF 7F 7A  30 30 31 04 80 28 03 07  .......z001..(..
0160: 90 0E 01 07 5D 04 80 08  80 2B 07 90 0E 01 09 80  ....]....+......
0170: 23 55 06 80 F0 FF FF 7F  F0 FF FF 7F 7A 30 30 31  #U..........z001
0180: 5C 00 0A 80 5C 01 0A 80  2B 07 90 0E 01 0B 80 23  \...\...+......#
0190: 2B 07 90 0E 01 0C 80 23  45 06 80 F0 FF FF 7F F0  +......#E.......
01A0: FF FF 7F 7A 30 30 32 04  80 2B 07 90 0E 01 0D 80  ...z002..+......
01B0: 23 2B 07 90 0E 01 0E 80  23 55 06 80 F0 FF FF 7F  #+......#U......
01C0: F0 FF FF 7F 7A 30 30 32  45 03 80 F0 FF FF 7F F0  ....z002E.......
01D0: FF FF 7F 7A 30 30 31 04  80 4A 4E 90 0E 01 F0 FF  ...z001..JN.....
01E0: FF 7F 2B 4E 90 0E 01 0F  80 23 4A 4D 90 0E 01 F0  ..+N.....#JM....
01F0: FF FF 7F 2B 4D 90 0E 01  10 80 23 1C 11 80 1A 47  ...+M.....#....G
0200: 04 1A 54 0B 03 01 10 12  80 1A E9 14 1C 11 80 02  ..T.............
0210: 00 00 04 80 01 1D 02 30  46 00 01 48 02 52 13 80  .......0F..H.R..
0220: F0 FF FF 7F F0 FF FF 7F  00 FE FE FE 5C 00 02 80  ............\...
0230: 5C 01 02 80 9A 46 00 45  14 80 F0 FF FF 7F F0 FF  \....F.E........
0240: FF 7F 66 64 69 32 04 80  21 00                    ..fdi2..!.      
```

#### Opcodes

```
  0: 0x0001 [0x05] ExtData[1]->WorkLocal[1] = 1
  1: 0x0004 [0x42] SET_CLI_EVENT_CANCEL_DATA()
  2: 0x0005 [0x03] ExtData[1]->WorkLocal[0] = Work_Zone[8]
  3: 0x000A [0x1A] CALL_SUBROUTINE(address=0x14E9)
  4: 0x000D [0x46] CAMERA_CONTROL: Disable user control
  5: 0x000F [0x38] SET_CLIENT_EVENT_MODE(mode=19*)
  6: 0x0012 [0x4E] SET_ENTITY_HIDE_FLAG: Show LocalPlayer
  7: 0x0018 [0x4E] SET_ENTITY_HIDE_FLAG: Show Guilerme (ID: 17731661/0x010E904D)
  8: 0x001E [0x4E] SET_ENTITY_HIDE_FLAG: Show Bacherume (ID: 17731662/0x010E904E)
  9: 0x0024 [0x4E] SET_ENTITY_HIDE_FLAG: Hide Rahal (ID: 17731592/0x010E9008)
 10: 0x002A [0x92] Guilerme (ID: 17731661/0x010E904D)->Render.Flags3 ^= 0x01
 11: 0x0030 [0x92] Bacherume (ID: 17731662/0x010E904E)->Render.Flags3 ^= 0x01
 12: 0x0036 [0x92] Halver (ID: 17731591/0x010E9007)->Render.Flags3 ^= 0x01
 13: 0x003C [0x92] Rahal (ID: 17731592/0x010E9008)->Render.Flags3 ^= 0x01
 14: 0x0042 [0x92] Curilla (ID: 17731596/0x010E900C)->Render.Flags3 ^= 0x01
 15: 0x0048 [0x92] Pieuje (ID: 17731589/0x010E9005)->Render.Flags3 ^= 0x01
 16: 0x004E [0x92] Travialce (ID: 17731672/0x010E9058)->Render.Flags3 ^= 0x01
 17: 0x0054 [0x92] Faurie (ID: 17731601/0x010E9011)->Render.Flags3 ^= 0x01
 18: 0x005A [0x92] Ferdechiond (ID: 17731602/0x010E9012)->Render.Flags3 ^= 0x01
 19: 0x0060 [0x92] Chaphoire (ID: 17731603/0x010E9013)->Render.Flags3 ^= 0x01
 20: 0x0066 [0x92] Arsha (ID: 17731604/0x010E9014)->Render.Flags3 ^= 0x01
 21: 0x006C [0x92] Chupaile (ID: 17731605/0x010E9015)->Render.Flags3 ^= 0x01
 22: 0x0072 [0x94] LocalPlayer->Render.Flags3 ^= 0x01
 23: 0x0078 [0x94] Guilerme (ID: 17731661/0x010E904D)->Render.Flags3 ^= 0x01
 24: 0x007E [0x94] Bacherume (ID: 17731662/0x010E904E)->Render.Flags3 ^= 0x01
 25: 0x0084 [0x94] Halver (ID: 17731591/0x010E9007)->Render.Flags3 ^= 0x01
 26: 0x008A [0x94] Rahal (ID: 17731592/0x010E9008)->Render.Flags3 ^= 0x01
 27: 0x0090 [0x94] Curilla (ID: 17731596/0x010E900C)->Render.Flags3 ^= 0x01
 28: 0x0096 [0x94] Pieuje (ID: 17731589/0x010E9005)->Render.Flags3 ^= 0x01
 29: 0x009C [0x29] REQ_SET_WAIT(priority=0x10, entity_id=LocalPlayer, tag_num=0x88)
 30: 0x00A3 [0x29] REQ_SET_WAIT(priority=0x10, entity_id=Guilerme (ID: 17731661/0x010E904D), tag_num=0x02)
 31: 0x00AA [0x29] REQ_SET_WAIT(priority=0x10, entity_id=Bacherume (ID: 17731662/0x010E904E), tag_num=0x02)
 32: 0x00B1 [0x80] LOAD_WAIT(entity=LocalPlayer)
 33: 0x00B6 [0x80] LOAD_WAIT(entity=Guilerme (ID: 17731661/0x010E904D))
 34: 0x00BB [0x80] LOAD_WAIT(entity=Bacherume (ID: 17731662/0x010E904E))
 35: 0x00C0 [0x80] LOAD_WAIT(entity=Halver (ID: 17731591/0x010E9007))
 36: 0x00C5 [0x80] LOAD_WAIT(entity=Rahal (ID: 17731592/0x010E9008))
 37: 0x00CA [0x80] LOAD_WAIT(entity=Curilla (ID: 17731596/0x010E900C))
 38: 0x00CF [0x80] LOAD_WAIT(entity=Pieuje (ID: 17731589/0x010E9005))
 39: 0x00D4 [0x4A] LocalPlayer looks at Halver (ID: 17731591/0x010E9007)
 40: 0x00DD [0x4A] Halver (ID: 17731591/0x010E9007) looks at LocalPlayer
 41: 0x00E6 [0x1C] WAIT(45* ticks)
 42: 0x00E9 [0x5C] MUSIC_CONTROL: Set Idle (Day) music to song 156*
 43: 0x00ED [0x5C] MUSIC_CONTROL: Set Idle (Night) music to song 156*
 44: 0x00F1 [0x9A] WAIT_MUSIC_SERVER()
 45: 0x00F2 [0x45] LOAD_SCHEDULED_TASK: Load scheduler "z000" with entities [LocalPlayer, LocalPlayer], work=[88*, 0*]
 46: 0x0103 [0x1A] CALL_SUBROUTINE(address=0x14C8)
 47: 0x0106 [0x55] WAIT_LOAD_SCHEDULER: Wait for scheduler "z000" with entities [LocalPlayer, LocalPlayer], work=88*
 48: 0x0115 [0x27] REQ_SET(priority=0x03, entity_id=Halver (ID: 17731591/0x010E9007), tag_num=0x06)
 49: 0x011C [0x2B] Halver (ID: 17731591/0x010E9007) [8304*]:
    → "So, you are <Player>. The guards tell me you were the one to deliver this letter..."
 50: 0x0123 [0x23] WAIT_FOR_DIALOG_INTERACTION
 51: 0x0124 [0x45] LOAD_SCHEDULED_TASK: Load scheduler "z000" with entities [LocalPlayer, LocalPlayer], work=[87*, 0*]
 52: 0x0135 [0x2B] Halver (ID: 17731591/0x010E9007) [8309*]:
    → "What have we here?"
 53: 0x013C [0x23] WAIT_FOR_DIALOG_INTERACTION
 54: 0x013D [0x52] END_LOAD_SCHEDULER: End scheduler "z000" with entities [LocalPlayer, LocalPlayer], work=87*
 55: 0x014C [0x45] LOAD_SCHEDULED_TASK: Load scheduler "z001" with entities [LocalPlayer, LocalPlayer], work=[87*, 0*]
 56: 0x015D [0x28] REQ_SET_WITH_CONDITIONS(priority=0x03, target_entity=Halver (ID: 17731591/0x010E9007), tag_num=0x07)
 57: 0x0164 [0x5D] SET_MUSIC_VOLUME(volume=0*, fade_time=240*)
 58: 0x0169 [0x2B] Halver (ID: 17731591/0x010E9007) [8311*]:
    → "This carrion worm scrawl... I have seen its like before..."
 59: 0x0170 [0x23] WAIT_FOR_DIALOG_INTERACTION
 60: 0x0171 [0x55] WAIT_LOAD_SCHEDULER: Wait for scheduler "z001" with entities [LocalPlayer, LocalPlayer], work=87*
 61: 0x0180 [0x5C] MUSIC_CONTROL: Set Idle (Day) music to song 163*
 62: 0x0184 [0x5C] MUSIC_CONTROL: Set Idle (Night) music to song 163*
 63: 0x0188 [0x2B] Halver (ID: 17731591/0x010E9007) [8312*]:
    → "The person who entrusted you with this message..."
 64: 0x018F [0x23] WAIT_FOR_DIALOG_INTERACTION
 65: 0x0190 [0x2B] Halver (ID: 17731591/0x010E9007) [8314*]:
    → "Ahaha... I should not say such things of our dear prince..."
 66: 0x0197 [0x23] WAIT_FOR_DIALOG_INTERACTION
 67: 0x0198 [0x45] LOAD_SCHEDULED_TASK: Load scheduler "z002" with entities [LocalPlayer, LocalPlayer], work=[87*, 0*]
 68: 0x01A9 [0x2B] Halver (ID: 17731591/0x010E9007) [8315*]:
    → "Though I am correct, am I not...?"
 69: 0x01B0 [0x23] WAIT_FOR_DIALOG_INTERACTION
 70: 0x01B1 [0x2B] Halver (ID: 17731591/0x010E9007) [8316*]:
    → "This letter is from the heir to the throne of San d'Oria, the Prince Royal, Trion I d'Oraguille!"
 71: 0x01B8 [0x23] WAIT_FOR_DIALOG_INTERACTION
 72: 0x01B9 [0x55] WAIT_LOAD_SCHEDULER: Wait for scheduler "z002" with entities [LocalPlayer, LocalPlayer], work=87*
 73: 0x01C8 [0x45] LOAD_SCHEDULED_TASK: Load scheduler "z001" with entities [LocalPlayer, LocalPlayer], work=[88*, 0*]
 74: 0x01D9 [0x4A] Bacherume (ID: 17731662/0x010E904E) looks at LocalPlayer
 75: 0x01E2 [0x2B] Bacherume (ID: 17731662/0x010E904E) [8317*]:
    → "!?"
 76: 0x01E9 [0x23] WAIT_FOR_DIALOG_INTERACTION
 77: 0x01EA [0x4A] Guilerme (ID: 17731661/0x010E904D) looks at LocalPlayer
 78: 0x01F3 [0x2B] Guilerme (ID: 17731661/0x010E904D) [8318*]:
    → "It cannot be... That awful penmanship..."
 79: 0x01FA [0x23] WAIT_FOR_DIALOG_INTERACTION
 80: 0x01FB [0x1C] WAIT(30* ticks)
 81: 0x01FE [0x1A] CALL_SUBROUTINE(address=0x0447)
 82: 0x0201 [0x1A] CALL_SUBROUTINE(address=0x0B54)
 83: 0x0204 [0x03] Work_Zone[1] = 1*
 84: 0x0209 [0x1A] CALL_SUBROUTINE(address=0x14E9)
 85: 0x020C [0x1C] WAIT(30* ticks)
 86: 0x020F [0x02] IF !(ExtData[1]->WorkLocal[0] == 0*) GOTO 0x021D
 87: 0x0217 [0x30] SET_UCOFF_CONTINUE_ZERO()
 88: 0x0218 [0x46] CAMERA_CONTROL: Restore default settings
 89: 0x021A [0x01] GOTO 0x0248
 90: 0x021D [0x52] END_LOAD_SCHEDULER: End scheduler 0xFEFEFE00 with entities [LocalPlayer, LocalPlayer], work=259*
 91: 0x022C [0x5C] MUSIC_CONTROL: Set Idle (Day) music to song 156*
 92: 0x0230 [0x5C] MUSIC_CONTROL: Set Idle (Night) music to song 156*
 93: 0x0234 [0x9A] WAIT_MUSIC_SERVER()
 94: 0x0235 [0x46] CAMERA_CONTROL: Restore default settings
 95: 0x0237 [0x45] LOAD_SCHEDULED_TASK: Load scheduler "fdi2" with entities [LocalPlayer, LocalPlayer], work=[200*, 0*]

SUBROUTINE_0248:
 96: 0x0248 [0x21] END_EVENT
 97: 0x0249 [0x00] END_REQSTACK()
```

### Event 564

#### Metadata

| Field        | Value      |
|--------------|------------|
| Entrypoint   | 0x024A     |
| Data Size    | 5325 bytes |
| Instructions | 663        |

```
      00 01 02 03 04 05 06 07  08 09 0A 0B 0C 0D 0E 0F
      -- -- -- -- -- -- -- --  -- -- -- -- -- -- -- --
0240:                                2B 07 90 0E 01 15            +.....
0250: 80 23 03 02 10 16 80 24  17 80 04 80 04 80 25 02  .#.....$......%.
0260: 00 10 12 80 00 7D 02 2B  07 90 0E 01 18 80 23 2B  .....}.+......#+
0270: 07 90 0E 01 19 80 23 01  34 04 01 7D 02 42 1A E9  ......#.4..}.B..
0280: 14 46 01 38 00 80 4E 00  F0 FF FF 7F 5C 00 02 80  .F.8..N.....\...
0290: 5C 01 02 80 4E 01 08 90  0E 01 92 01 4D 90 0E 01  \...N.......M...
02A0: 92 01 4E 90 0E 01 92 01  4D 90 0E 01 92 01 4E 90  ..N.....M.....N.
02B0: 0E 01 92 01 07 90 0E 01  92 01 08 90 0E 01 92 01  ................
02C0: 0C 90 0E 01 92 01 05 90  0E 01 92 01 58 90 0E 01  ............X...
02D0: 92 01 11 90 0E 01 92 01  12 90 0E 01 92 01 13 90  ................
02E0: 0E 01 92 01 14 90 0E 01  92 01 15 90 0E 01 94 01  ................
02F0: F0 FF FF 7F 94 01 4D 90  0E 01 94 01 4E 90 0E 01  ......M.....N...
0300: 94 01 07 90 0E 01 94 01  08 90 0E 01 94 01 0C 90  ................
0310: 0E 01 94 01 05 90 0E 01  29 10 F0 FF FF 7F 88 29  ........)......)
0320: 10 4D 90 0E 01 02 29 10  4E 90 0E 01 02 80 F0 FF  .M....).N.......
0330: FF 7F 80 4D 90 0E 01 80  4E 90 0E 01 80 07 90 0E  ...M....N.......
0340: 01 4A F0 FF FF 7F 07 90  0E 01 4A 07 90 0E 01 F0  .J........J.....
0350: FF FF 7F 6F 76 07 90 0E  01 29 03 07 90 0E 01 06  ...ov....)......
0360: 9A 1C 1A 80 45 06 80 F0  FF FF 7F F0 FF FF 7F 7A  ....E..........z
0370: 30 30 30 04 80 1A C8 14  2B 07 90 0E 01 07 80 23  000.....+......#
0380: 2B 07 90 0E 01 1B 80 23  52 06 80 F0 FF FF 7F F0  +......#R.......
0390: FF FF 7F 7A 30 30 30 45  06 80 F0 FF FF 7F F0 FF  ...z000E........
03A0: FF 7F 7A 30 30 31 04 80  27 03 07 90 0E 01 07 5D  ..z001..'......]
03B0: 04 80 08 80 2B 07 90 0E  01 09 80 23 55 06 80 F0  ....+......#U...
03C0: FF FF 7F F0 FF FF 7F 7A  30 30 31 2B 07 90 0E 01  .......z001+....
03D0: 0B 80 23 79 00 07 90 0E  01 F0 FF FF 7F 2B 07 90  ..#y.........+..
03E0: 0E 01 1C 80 23 5C 00 0A  80 5C 01 0A 80 9A 45 06  ....#\...\....E.
03F0: 80 F0 FF FF 7F F0 FF FF  7F 7A 30 30 32 04 80 1C  .........z002...
0400: 11 80 2B 07 90 0E 01 1D  80 23 1A 47 04 1A 54 0B  ..+......#.G..T.
0410: 03 01 10 12 80 1A E9 14  1C 11 80 52 13 80 F0 FF  ...........R....
0420: FF 7F F0 FF FF 7F 00 FE  FE FE 5C 00 02 80 5C 01  ..........\...\.
0430: 02 80 46 00 45 14 80 F0  FF FF 7F F0 FF FF 7F 66  ..F.E..........f
0440: 64 69 32 04 80 21 00 6E  F0 FF FF 7F 1E 80 99 F0  di2..!.n........
0450: FF FF 7F 1C 11 80 2B 07  90 0E 01 1F 80 23 52 06  ......+......#R.
0460: 80 F0 FF FF 7F F0 FF FF  7F 7A 30 30 32 45 06 80  .........z002E..
0470: F0 FF FF 7F F0 FF FF 7F  7A 30 30 33 04 80 2B 07  ........z003..+.
0480: 90 0E 01 20 80 23 2B 07  90 0E 01 21 80 23 2B 07  ... .#+....!.#+.
0490: 90 0E 01 22 80 23 7B 07  90 0E 01 27 03 07 90 0E  ...".#{....'....
04A0: 01 06 1C 1A 80 52 06 80  F0 FF FF 7F F0 FF FF 7F  .....R..........
04B0: 7A 30 30 33 45 06 80 F0  FF FF 7F F0 FF FF 7F 7A  z003E..........z
04C0: 30 30 34 04 80 7C 00 07  90 0E 01 2B 07 90 0E 01  004..|.....+....
04D0: 23 80 23 2B 07 90 0E 01  24 80 23 7C 01 07 90 0E  #.#+....$.#|....
04E0: 01 2B 07 90 0E 01 25 80  23 27 03 07 90 0E 01 07  .+....%.#'......
04F0: 2B 07 90 0E 01 26 80 23  52 06 80 F0 FF FF 7F F0  +....&.#R.......
0500: FF FF 7F 7A 30 30 34 45  06 80 F0 FF FF 7F F0 FF  ...z004E........
0510: FF 7F 7A 30 30 35 04 80  27 03 07 90 0E 01 04 1C  ..z005..'.......
0520: 11 80 2B 07 90 0E 01 27  80 23 2B 07 90 0E 01 28  ..+....'.#+....(
0530: 80 23 27 03 07 90 0E 01  05 52 06 80 F0 FF FF 7F  .#'......R......
0540: F0 FF FF 7F 7A 30 30 35  29 03 08 90 0E 01 03 27  ....z005)......'
0550: 03 08 90 0E 01 04 79 00  08 90 0E 01 07 90 0E 01  ......y.........
0560: 1C 11 80 45 06 80 F0 FF  FF 7F F0 FF FF 7F 7A 30  ...E..........z0
0570: 30 36 04 80 4E 00 08 90  0E 01 2B 08 90 0E 01 29  06..N.....+....)
0580: 80 23 4A 07 90 0E 01 08  90 0E 01 2B 07 90 0E 01  .#J........+....
0590: 2A 80 1C 1A 80 4A F0 FF  FF 7F 08 90 0E 01 02 01  *....J..........
05A0: 00 12 80 00 B4 05 27 03  4D 90 0E 01 03 27 10 4E  ......'.M....'.N
05B0: 90 0E 01 03 23 27 03 08  90 0E 01 05 1C 2B 80 45  ....#'.......+.E
05C0: 06 80 F0 FF FF 7F F0 FF  FF 7F 7A 30 30 37 04 80  ..........z007..
05D0: 2B 07 90 0E 01 2C 80 23  2A 03 08 90 0E 01 55 06  +....,.#*.....U.
05E0: 80 F0 FF FF 7F F0 FF FF  7F 7A 30 30 37 45 06 80  .........z007E..
05F0: F0 FF FF 7F F0 FF FF 7F  7A 30 30 38 04 80 55 06  ........z008..U.
0600: 80 F0 FF FF 7F F0 FF FF  7F 7A 30 30 38 02 01 00  .........z008...
0610: 12 80 00 21 06 4E 01 4D  90 0E 01 4E 01 4E 90 0E  ...!.N.M...N.N..
0620: 01 2B 08 90 0E 01 2D 80  23 45 06 80 F0 FF FF 7F  .+....-.#E......
0630: F0 FF FF 7F 7A 30 30 39  04 80 55 06 80 F0 FF FF  ....z009..U.....
0640: 7F F0 FF FF 7F 7A 30 30  39 2B 07 90 0E 01 2E 80  .....z009+......
0650: 23 2B 08 90 0E 01 2F 80  1C 1A 80 4E 00 58 90 0E  #+..../....N.X..
0660: 01 79 00 58 90 0E 01 07  90 0E 01 79 00 08 90 0E  .y.X.......y....
0670: 01 58 90 0E 01 4B 08 90  0E 01 30 80 27 03 58 90  .X...K....0.'.X.
0680: 0E 01 03 1C 2B 80 79 00  07 90 0E 01 58 90 0E 01  ....+.y.....X...
0690: 45 06 80 F0 FF FF 7F F0  FF FF 7F 79 30 30 30 04  E..........y000.
06A0: 80 55 06 80 F0 FF FF 7F  F0 FF FF 7F 79 30 30 30  .U..........y000
06B0: 2A 03 58 90 0E 01 27 04  58 90 0E 01 04 1C 31 80  *.X...'.X.....1.
06C0: 23 4A 08 90 0E 01 07 90  0E 01 1C 32 80 45 06 80  #J.........2.E..
06D0: F0 FF FF 7F F0 FF FF 7F  79 30 30 32 04 80 6F 76  ........y002..ov
06E0: 08 90 0E 01 27 03 08 90  0E 01 26 2B 08 90 0E 01  ....'.....&+....
06F0: 33 80 23 2B 08 90 0E 01  34 80 23 27 03 08 90 0E  3.#+....4.#'....
0700: 01 27 79 00 07 90 0E 01  08 90 0E 01 27 03 07 90  .'y.........'...
0710: 0E 01 06 2B 07 90 0E 01  35 80 23 4A 08 90 0E 01  ...+....5.#J....
0720: 58 90 0E 01 1C 32 80 45  06 80 F0 FF FF 7F F0 FF  X....2.E........
0730: FF 7F 79 30 30 62 04 80  2B 08 90 0E 01 36 80 23  ..y00b..+....6.#
0740: 79 00 08 90 0E 01 58 90  0E 01 2B 08 90 0E 01 37  y.....X...+....7
0750: 80 23 79 00 07 90 0E 01  58 90 0E 01 52 06 80 F0  .#y.....X...R...
0760: FF FF 7F F0 FF FF 7F 79  30 30 62 45 06 80 F0 FF  .......y00bE....
0770: FF 7F F0 FF FF 7F 79 30  30 61 04 80 2B 58 90 0E  ......y00a..+X..
0780: 01 38 80 23 45 06 80 F0  FF FF 7F F0 FF FF 7F 79  .8.#E..........y
0790: 30 30 31 04 80 27 03 07  90 0E 01 07 2B 07 90 0E  001..'......+...
07A0: 01 39 80 23 2A 03 07 90  0E 01 2B 07 90 0E 01 3A  .9.#*.....+....:
07B0: 80 23 52 06 80 F0 FF FF  7F F0 FF FF 7F 79 30 30  .#R..........y00
07C0: 31 45 06 80 F0 FF FF 7F  F0 FF FF 7F 79 30 30 34  1E..........y004
07D0: 04 80 2B 58 90 0E 01 3B  80 23 27 03 07 90 0E 01  ..+X...;.#'.....
07E0: 04 2B 07 90 0E 01 3C 80  23 27 03 07 90 0E 01 05  .+....<.#'......
07F0: 52 06 80 F0 FF FF 7F F0  FF FF 7F 79 30 30 34 45  R..........y004E
0800: 06 80 F0 FF FF 7F F0 FF  FF 7F 79 30 30 33 04 80  ..........y003..
0810: 2B 58 90 0E 01 3D 80 23  2B 58 90 0E 01 3E 80 23  +X...=.#+X...>.#
0820: 2B 58 90 0E 01 3F 80 23  52 06 80 F0 FF FF 7F F0  +X...?.#R.......
0830: FF FF 7F 79 30 30 33 45  06 80 F0 FF FF 7F F0 FF  ...y003E........
0840: FF 7F 79 30 30 35 04 80  2A 03 07 90 0E 01 27 03  ..y005..*.....'.
0850: 07 90 0E 01 0B 2B 07 90  0E 01 40 80 23 2B 58 90  .....+....@.#+X.
0860: 0E 01 41 80 23 2B 07 90  0E 01 42 80 23 45 06 80  ..A.#+....B.#E..
0870: F0 FF FF 7F F0 FF FF 7F  79 30 30 61 04 80 2B 58  ........y00a..+X
0880: 90 0E 01 43 80 23 52 06  80 F0 FF FF 7F F0 FF FF  ...C.#R.........
0890: 7F 79 30 30 35 45 06 80  F0 FF FF 7F F0 FF FF 7F  .y005E..........
08A0: 79 30 30 36 04 80 6E 07  90 0E 01 00 80 99 07 90  y006..n.........
08B0: 0E 01 2B 07 90 0E 01 44  80 23 2B 58 90 0E 01 45  ..+....D.#+X...E
08C0: 80 23 4A 58 90 0E 01 F0  FF FF 7F 1C 32 80 52 06  .#JX........2.R.
08D0: 80 F0 FF FF 7F F0 FF FF  7F 79 30 30 36 45 06 80  .........y006E..
08E0: F0 FF FF 7F F0 FF FF 7F  79 30 30 37 04 80 79 00  ........y007..y.
08F0: F0 FF FF 7F 58 90 0E 01  4A 08 90 0E 01 F0 FF FF  ....X...J.......
0900: 7F 2B 58 90 0E 01 46 80  23 2B 58 90 0E 01 47 80  .+X...F.#+X...G.
0910: 23 52 06 80 F0 FF FF 7F  F0 FF FF 7F 79 30 30 37  #R..........y007
0920: 45 06 80 F0 FF FF 7F F0  FF FF 7F 79 30 30 38 04  E..........y008.
0930: 80 4A 08 90 0E 01 07 90  0E 01 2B 08 90 0E 01 48  .J........+....H
0940: 80 23 4A 58 90 0E 01 07  90 0E 01 79 00 07 90 0E  .#JX.......y....
0950: 01 08 90 0E 01 2B 08 90  0E 01 49 80 23 52 06 80  .....+....I.#R..
0960: F0 FF FF 7F F0 FF FF 7F  79 30 30 38 45 06 80 F0  ........y008E...
0970: FF FF 7F F0 FF FF 7F 79  30 30 39 04 80 2B 07 90  .......y009..+..
0980: 0E 01 4A 80 23 2B 07 90  0E 01 4B 80 23 2B 07 90  ..J.#+....K.#+..
0990: 0E 01 4C 80 23 52 06 80  F0 FF FF 7F F0 FF FF 7F  ..L.#R..........
09A0: 79 30 30 39 45 06 80 F0  FF FF 7F F0 FF FF 7F 78  y009E..........x
09B0: 30 30 30 04 80 2B 08 90  0E 01 4D 80 23 4A 08 90  000..+....M.#J..
09C0: 0E 01 58 90 0E 01 1C 32  80 45 06 80 F0 FF FF 7F  ..X....2.E......
09D0: F0 FF FF 7F 78 30 30 31  04 80 5D 04 80 08 80 2B  ....x001..]....+
09E0: 08 90 0E 01 4E 80 23 1C  1A 80 5C 00 4F 80 5C 01  ....N.#...\.O.\.
09F0: 4F 80 2B 58 90 0E 01 50  80 23 2B 58 90 0E 01 51  O.+X...P.#+X...Q
0A00: 80 23 52 06 80 F0 FF FF  7F F0 FF FF 7F 78 30 30  .#R..........x00
0A10: 31 45 06 80 F0 FF FF 7F  F0 FF FF 7F 78 30 30 32  1E..........x002
0A20: 04 80 4A 07 90 0E 01 58  90 0E 01 2B 07 90 0E 01  ..J....X...+....
0A30: 52 80 23 2B 58 90 0E 01  53 80 23 2B 07 90 0E 01  R.#+X...S.#+....
0A40: 54 80 23 52 06 80 F0 FF  FF 7F F0 FF FF 7F 78 30  T.#R..........x0
0A50: 30 32 45 06 80 F0 FF FF  7F F0 FF FF 7F 78 30 30  02E..........x00
0A60: 33 04 80 2B 58 90 0E 01  55 80 23 2B 58 90 0E 01  3..+X...U.#+X...
0A70: 56 80 23 52 06 80 F0 FF  FF 7F F0 FF FF 7F 78 30  V.#R..........x0
0A80: 30 33 45 14 80 07 90 0E  01 07 90 0E 01 6F 76 6C  03E..........ovl
0A90: 31 04 80 45 06 80 F0 FF  FF 7F F0 FF FF 7F 78 30  1..E..........x0
0AA0: 30 34 04 80 2B 58 90 0E  01 57 80 23 1C 2B 80 27  04..+X...W.#.+.'
0AB0: 03 08 90 0E 01 28 2B 08  90 0E 01 58 80 23 27 03  .....(+....X.#'.
0AC0: 08 90 0E 01 29 2B 08 90  0E 01 59 80 23 52 06 80  ....)+....Y.#R..
0AD0: F0 FF FF 7F F0 FF FF 7F  78 30 30 34 45 06 80 F0  ........x004E...
0AE0: FF FF 7F F0 FF FF 7F 78  30 30 35 04 80 2B 58 90  .......x005..+X.
0AF0: 0E 01 5A 80 23 2B 58 90  0E 01 5B 80 23 2A 03 08  ..Z.#+X...[.#*..
0B00: 90 0E 01 4A 08 90 0E 01  07 90 0E 01 1C 2B 80 55  ...J.........+.U
0B10: 06 80 F0 FF FF 7F F0 FF  FF 7F 78 30 30 35 45 06  ..........x005E.
0B20: 80 F0 FF FF 7F F0 FF FF  7F 78 30 30 36 04 80 2B  .........x006..+
0B30: 07 90 0E 01 5C 80 23 2B  07 90 0E 01 5D 80 23 4A  ....\.#+....].#J
0B40: 07 90 0E 01 12 90 0E 01  2B 07 90 0E 01 5E 80 23  ........+....^.#
0B50: 1A E9 14 1B 29 03 0C 90  0E 01 03 4E 00 07 90 0E  ....)......N....
0B60: 01 4E 00 0C 90 0E 01 4E  00 58 90 0E 01 27 03 F0  .N.....N.X...'..
0B70: FF FF 7F 88 27 03 F0 FF  FF 7F 89 27 03 07 90 0E  ....'......'....
0B80: 01 0C 27 03 08 90 0E 01  06 27 03 58 90 0E 01 05  ..'......'.X....
0B90: 27 03 F0 FF FF 7F 89 79  00 F0 FF FF 7F 0C 90 0E  '......y........
0BA0: 01 79 00 07 90 0E 01 0C  90 0E 01 79 00 08 90 0E  .y.........y....
0BB0: 01 0C 90 0E 01 79 00 58  90 0E 01 0C 90 0E 01 79  .....y.X.......y
0BC0: 00 0C 90 0E 01 07 90 0E  01 1C 5F 80 45 06 80 F0  .........._.E...
0BD0: FF FF 7F F0 FF FF 7F 77  30 30 62 04 80 1A C8 14  .......w00b.....
0BE0: 1C 60 80 52 06 80 F0 FF  FF 7F F0 FF FF 7F 77 30  .`.R..........w0
0BF0: 30 62 45 14 80 08 90 0E  01 08 90 0E 01 6F 76 6C  0bE..........ovl
0C00: 31 04 80 45 06 80 F0 FF  FF 7F F0 FF FF 7F 77 30  1..E..........w0
0C10: 30 31 04 80 2B 07 90 0E  01 61 80 23 2B 0C 90 0E  01..+....a.#+...
0C20: 01 62 80 23 2B 07 90 0E  01 63 80 23 52 06 80 F0  .b.#+....c.#R...
0C30: FF FF 7F F0 FF FF 7F 77  30 30 31 45 06 80 F0 FF  .......w001E....
0C40: FF 7F F0 FF FF 7F 77 30  30 30 04 80 2B 0C 90 0E  ......w000..+...
0C50: 01 64 80 23 4A 0C 90 0E  01 08 90 0E 01 1C 32 80  .d.#J.........2.
0C60: 52 06 80 F0 FF FF 7F F0  FF FF 7F 77 30 30 30 45  R..........w000E
0C70: 06 80 F0 FF FF 7F F0 FF  FF 7F 77 30 30 32 04 80  ..........w002..
0C80: 2B 0C 90 0E 01 65 80 23  2B 08 90 0E 01 66 80 23  +....e.#+....f.#
0C90: 2B 0C 90 0E 01 67 80 23  45 06 80 F0 FF FF 7F F0  +....g.#E.......
0CA0: FF FF 7F 77 30 30 33 04  80 79 00 0C 90 0E 01 07  ...w003..y......
0CB0: 90 0E 01 2B 07 90 0E 01  68 80 23 4A 0C 90 0E 01  ...+....h.#J....
0CC0: 07 90 0E 01 2B 0C 90 0E  01 69 80 23 2B 07 90 0E  ....+....i.#+...
0CD0: 01 6A 80 23 2B 0C 90 0E  01 6B 80 23 52 06 80 F0  .j.#+....k.#R...
0CE0: FF FF 7F F0 FF FF 7F 77  30 30 33 45 06 80 F0 FF  .......w003E....
0CF0: FF 7F F0 FF FF 7F 77 30  30 34 04 80 2B 0C 90 0E  ......w004..+...
0D00: 01 6C 80 23 2B 0C 90 0E  01 6D 80 23 52 06 80 F0  .l.#+....m.#R...
0D10: FF FF 7F F0 FF FF 7F 77  30 30 34 45 06 80 F0 FF  .......w004E....
0D20: FF 7F F0 FF FF 7F 77 30  30 35 04 80 27 03 07 90  ......w005..'...
0D30: 0E 01 06 2B 07 90 0E 01  6E 80 23 2B 07 90 0E 01  ...+....n.#+....
0D40: 6F 80 23 2B 0C 90 0E 01  70 80 23 52 06 80 F0 FF  o.#+....p.#R....
0D50: FF 7F F0 FF FF 7F 77 30  30 35 45 06 80 F0 FF FF  ......w005E.....
0D60: 7F F0 FF FF 7F 77 30 30  36 04 80 27 03 07 90 0E  .....w006..'....
0D70: 01 07 2B 07 90 0E 01 71  80 23 2B 07 90 0E 01 72  ..+....q.#+....r
0D80: 80 23 4E 00 05 90 0E 01  79 00 05 90 0E 01 0C 90  .#N.....y.......
0D90: 0E 01 29 03 05 90 0E 01  03 2A 03 07 90 0E 01 4A  ..)......*.....J
0DA0: 07 90 0E 01 05 90 0E 01  1C 73 80 4A F0 FF FF 7F  .........s.J....
0DB0: 05 90 0E 01 4A 58 90 0E  01 05 90 0E 01 1C 32 80  ....JX........2.
0DC0: 4A 0C 90 0E 01 05 90 0E  01 4A 08 90 0E 01 05 90  J........J......
0DD0: 0E 01 52 06 80 F0 FF FF  7F F0 FF FF 7F 77 30 30  ..R..........w00
0DE0: 36 45 06 80 F0 FF FF 7F  F0 FF FF 7F 77 30 30 37  6E..........w007
0DF0: 04 80 27 03 05 90 0E 01  04 1C 2B 80 2B 07 90 0E  ..'.......+.+...
0E00: 01 74 80 2A 03 05 90 0E  01 23 52 06 80 F0 FF FF  .t.*.....#R.....
0E10: 7F F0 FF FF 7F 77 30 30  37 45 06 80 F0 FF FF 7F  .....w007E......
0E20: F0 FF FF 7F 77 30 30 61  04 80 2B 05 90 0E 01 75  ....w00a..+....u
0E30: 80 79 00 05 90 0E 01 07  90 0E 01 23 1A E9 14 29  .y.........#...)
0E40: 03 05 90 0E 01 05 29 03  07 90 0E 01 0D 4A F0 FF  ......)......J..
0E50: FF 7F 05 90 0E 01 4A 58  90 0E 01 05 90 0E 01 4A  ......JX.......J
0E60: 0C 90 0E 01 05 90 0E 01  4A 08 90 0E 01 05 90 0E  ........J.......
0E70: 01 4A 0C 90 0E 01 05 90  0E 01 52 06 80 F0 FF FF  .J........R.....
0E80: 7F F0 FF FF 7F 77 30 30  61 45 06 80 F0 FF FF 7F  .....w00aE......
0E90: F0 FF FF 7F 77 30 30 38  04 80 1C 2B 80 1A C8 14  ....w008...+....
0EA0: 55 06 80 F0 FF FF 7F F0  FF FF 7F 77 30 30 38 2B  U..........w008+
0EB0: 05 90 0E 01 76 80 23 45  06 80 F0 FF FF 7F F0 FF  ....v.#E........
0EC0: FF 7F 77 30 30 39 04 80  4A 07 90 0E 01 05 90 0E  ..w009..J.......
0ED0: 01 2B 07 90 0E 01 77 80  1C 73 80 79 00 05 90 0E  .+....w..s.y....
0EE0: 01 07 90 0E 01 23 6F 76  07 90 0E 01 2B 07 90 0E  .....#ov....+...
0EF0: 01 78 80 23 27 03 07 90  0E 01 03 1C 31 80 52 06  .x.#'.......1.R.
0F00: 80 F0 FF FF 7F F0 FF FF  7F 77 30 30 39 45 06 80  .........w009E..
0F10: F8 FF FF 7F F8 FF FF 7F  76 30 30 30 04 80 2A 03  ........v000..*.
0F20: 07 90 0E 01 2B 07 90 0E  01 79 80 23 2B 05 90 0E  ....+....y.#+...
0F30: 01 7A 80 23 7B 05 90 0E  01 4B 05 90 0E 01 7B 80  .z.#{....K....{.
0F40: 1C 1A 80 45 06 80 F8 FF  FF 7F F8 FF FF 7F 76 30  ...E..........v0
0F50: 30 31 04 80 6F 76 05 90  0E 01 27 03 05 90 0E 01  01..ov....'.....
0F60: 2D 1C 11 80 55 06 80 F8  FF FF 7F F8 FF FF 7F 76  -...U..........v
0F70: 30 30 31 5D 04 80 08 80  2B 05 90 0E 01 7C 80 23  001]....+....|.#
0F80: 27 03 05 90 0E 01 2E 2B  05 90 0E 01 7D 80 23 5C  '......+....}.#\
0F90: 00 7E 80 5C 01 7E 80 9A  45 7F 80 F8 FF FF 7F F8  .~.\.~..E.......
0FA0: FF FF 7F 62 61 73 68 04  80 45 14 80 F8 FF FF 7F  ...bash..E......
0FB0: F8 FF FF 7F 62 6C 6F 6E  04 80 45 06 80 F8 FF FF  ....blon..E.....
0FC0: 7F F8 FF FF 7F 76 30 30  32 04 80 1C 11 80 45 14  .....v002.....E.
0FD0: 80 F8 FF FF 7F F8 FF FF  7F 62 6C 6F 66 04 80 2B  .........blof..+
0FE0: 05 90 0E 01 80 80 23 55  06 80 F8 FF FF 7F F8 FF  ......#U........
0FF0: FF 7F 76 30 30 32 45 06  80 F8 FF FF 7F F8 FF FF  ..v002E.........
1000: 7F 76 30 30 33 04 80 2B  08 90 0E 01 81 80 1C 1A  .v003..+........
1010: 80 27 03 08 90 0E 01 07  23 52 06 80 F8 FF FF 7F  .'......#R......
1020: F8 FF FF 7F 76 30 30 33  45 06 80 F8 FF FF 7F F8  ....v003E.......
1030: FF FF 7F 76 30 30 34 04  80 79 00 05 90 0E 01 08  ...v004..y......
1040: 90 0E 01 2B 05 90 0E 01  82 80 23 7B 05 90 0E 01  ...+......#{....
1050: 1C 2B 80 52 06 80 F8 FF  FF 7F F8 FF FF 7F 76 30  .+.R..........v0
1060: 30 34 45 06 80 F8 FF FF  7F F8 FF FF 7F 76 30 30  04E..........v00
1070: 35 04 80 45 14 80 F0 FF  FF 7F F0 FF FF 7F 6F 76  5..E..........ov
1080: 6C 31 04 80 2B 05 90 0E  01 83 80 23 52 06 80 F8  l1..+......#R...
1090: FF FF 7F F8 FF FF 7F 76  30 30 35 45 06 80 F8 FF  .......v005E....
10A0: FF 7F F8 FF FF 7F 76 30  30 36 04 80 45 14 80 F0  ......v006..E...
10B0: FF FF 7F F0 FF FF 7F 6F  76 6C 31 04 80 2B 05 90  .......ovl1..+..
10C0: 0E 01 84 80 23 52 06 80  F8 FF FF 7F F8 FF FF 7F  ....#R..........
10D0: 76 30 30 36 45 06 80 F8  FF FF 7F F8 FF FF 7F 76  v006E..........v
10E0: 30 30 37 04 80 45 14 80  F0 FF FF 7F F0 FF FF 7F  007..E..........
10F0: 6F 76 6C 31 04 80 2B 05  90 0E 01 85 80 23 52 06  ovl1..+......#R.
1100: 80 F8 FF FF 7F F8 FF FF  7F 76 30 30 37 45 06 80  .........v007E..
1110: F8 FF FF 7F F8 FF FF 7F  76 30 30 38 04 80 45 14  ........v008..E.
1120: 80 F0 FF FF 7F F0 FF FF  7F 6F 76 6C 31 04 80 2B  .........ovl1..+
1130: 05 90 0E 01 86 80 23 52  06 80 F8 FF FF 7F F8 FF  ......#R........
1140: FF 7F 76 30 30 38 45 06  80 F8 FF FF 7F F8 FF FF  ..v008E.........
1150: 7F 76 30 30 39 04 80 2B  07 90 0E 01 87 80 23 52  .v009..+......#R
1160: 06 80 F8 FF FF 7F F8 FF  FF 7F 76 30 30 39 45 06  ..........v009E.
1170: 80 F8 FF FF 7F F8 FF FF  7F 74 30 30 30 04 80 2B  .........t000..+
1180: 08 90 0E 01 88 80 1C 32  80 79 00 05 90 0E 01 08  .......2.y......
1190: 90 0E 01 23 2B 05 90 0E  01 89 80 23 4A 05 90 0E  ...#+......#J...
11A0: 01 07 90 0E 01 2B 05 90  0E 01 8A 80 23 2B 05 90  .....+......#+..
11B0: 0E 01 8B 80 23 52 06 80  F8 FF FF 7F F8 FF FF 7F  ....#R..........
11C0: 74 30 30 30 45 06 80 F8  FF FF 7F F8 FF FF 7F 74  t000E..........t
11D0: 30 30 31 04 80 2B 07 90  0E 01 8C 80 23 2B 05 90  001..+......#+..
11E0: 0E 01 8D 80 23 2B 07 90  0E 01 8E 80 23 27 03 0C  ....#+......#'..
11F0: 90 0E 01 04 1C 32 80 52  06 80 F8 FF FF 7F F8 FF  .....2.R........
1200: FF 7F 74 30 30 31 45 06  80 F8 FF FF 7F F8 FF FF  ..t001E.........
1210: 7F 74 30 30 32 04 80 2A  03 0C 90 0E 01 79 00 05  .t002..*.....y..
1220: 90 0E 01 0C 90 0E 01 2B  0C 90 0E 01 8F 80 23 2B  .......+......#+
1230: 0C 90 0E 01 90 80 23 4A  05 90 0E 01 0C 90 0E 01  ......#J........
1240: 1C 32 80 52 06 80 F8 FF  FF 7F F8 FF FF 7F 74 30  .2.R..........t0
1250: 30 32 45 06 80 F8 FF FF  7F F8 FF FF 7F 74 30 30  02E..........t00
1260: 34 04 80 6F 76 05 90 0E  01 2B 05 90 0E 01 91 80  4..ov....+......
1270: 23 2B 05 90 0E 01 92 80  1C 2B 80 23 2B 05 90 0E  #+.......+.#+...
1280: 01 93 80 23 52 06 80 F8  FF FF 7F F8 FF FF 7F 74  ...#R..........t
1290: 30 30 34 45 06 80 F8 FF  FF 7F F8 FF FF 7F 74 30  004E..........t0
12A0: 30 33 04 80 2B 0C 90 0E  01 94 80 23 2B 05 90 0E  03..+......#+...
12B0: 01 95 80 23 2B 05 90 0E  01 96 80 79 00 05 90 0E  ...#+......y....
12C0: 01 07 90 0E 01 1C 2B 80  79 00 05 90 0E 01 08 90  ......+.y.......
12D0: 0E 01 23 79 00 08 90 0E  01 58 90 0E 01 4B 08 90  ..#y.....X...K..
12E0: 0E 01 97 80 2B 08 90 0E  01 98 80 23 4A 05 90 0E  ....+......#J...
12F0: 01 58 90 0E 01 1C 32 80  52 06 80 F8 FF FF 7F F8  .X....2.R.......
1300: FF FF 7F 74 30 30 33 45  06 80 F8 FF FF 7F F8 FF  ...t003E........
1310: FF 7F 74 30 30 35 04 80  6F 76 05 90 0E 01 2B 05  ..t005..ov....+.
1320: 90 0E 01 99 80 23 27 03  58 90 0E 01 04 2B 58 90  .....#'.X....+X.
1330: 0E 01 9A 80 23 2A 03 58  90 0E 01 27 03 08 90 0E  ....#*.X...'....
1340: 01 08 1C 1A 80 52 06 80  F8 FF FF 7F F8 FF FF 7F  .....R..........
1350: 74 30 30 35 45 06 80 F8  FF FF 7F F8 FF FF 7F 74  t005E..........t
1360: 30 30 36 04 80 27 03 58  90 0E 01 06 1C 2B 80 27  006..'.X.....+.'
1370: 03 0C 90 0E 01 05 1C 2B  80 55 06 80 F8 FF FF 7F  .......+.U......
1380: F8 FF FF 7F 74 30 30 36  2B 07 90 0E 01 9B 80 23  ....t006+......#
1390: 4A 05 90 0E 01 07 90 0E  01 1C 32 80 4E 01 0C 90  J.........2.N...
13A0: 0E 01 1C 12 80 45 06 80  F8 FF FF 7F F8 FF FF 7F  .....E..........
13B0: 74 30 30 37 04 80 6F 76  05 90 0E 01 2B 05 90 0E  t007..ov....+...
13C0: 01 9C 80 23 2B 05 90 0E  01 9D 80 23 2B 05 90 0E  ...#+......#+...
13D0: 01 9E 80 23 55 06 80 F8  FF FF 7F F8 FF FF 7F 74  ...#U..........t
13E0: 30 30 37 27 03 05 90 0E  01 06 1C 60 80 4A 07 90  007'.......`.J..
13F0: 0E 01 F0 FF FF 7F 79 00  F0 FF FF 7F 07 90 0E 01  ......y.........
1400: 45 06 80 F8 FF FF 7F F8  FF FF 7F 74 30 30 38 04  E..........t008.
1410: 80 55 06 80 F8 FF FF 7F  F8 FF FF 7F 74 30 30 38  .U..........t008
1420: 1C 32 80 6F 76 07 90 0E  01 2B 07 90 0E 01 9F 80  .2.ov....+......
1430: 23 2B 07 90 0E 01 A0 80  23 6E F0 FF FF 7F A1 80  #+......#n......
1440: 99 F0 FF FF 7F 1C 2B 80  7B 07 90 0E 01 27 03 07  ......+.{....'..
1450: 90 0E 01 0E 1C 31 80 45  06 80 F8 FF FF 7F F8 FF  .....1.E........
1460: FF 7F 74 30 30 39 04 80  55 06 80 F8 FF FF 7F F8  ..t009..U.......
1470: FF FF 7F 74 30 30 39 2A  03 07 90 0E 01 2B 07 90  ...t009*.....+..
1480: 0E 01 A2 80 23 1B 45 14  80 F0 FF FF 7F F0 FF FF  ....#.E.........
1490: 7F 66 64 69 30 04 80 55  14 80 F0 FF FF 7F F0 FF  .fdi0..U........
14A0: FF 7F 66 64 69 30 1B 45  14 80 F0 FF FF 7F F0 FF  ..fdi0.E........
14B0: FF 7F 66 64 6F 30 04 80  55 14 80 F0 FF FF 7F F0  ..fdo0..U.......
14C0: FF FF 7F 66 64 6F 30 1B  45 14 80 F0 FF FF 7F F0  ...fdo0.E.......
14D0: FF FF 7F 66 64 69 31 04  80 55 14 80 F0 FF FF 7F  ...fdi1..U......
14E0: F0 FF FF 7F 66 64 69 31  1B 45 14 80 F0 FF FF 7F  ....fdi1.E......
14F0: F0 FF FF 7F 66 64 6F 31  04 80 55 14 80 F0 FF FF  ....fdo1..U.....
1500: 7F F0 FF FF 7F 66 64 6F  31 1B 45 A3 80 F0 FF FF  .....fdo1.E.....
1510: 7F F0 FF FF 7F 77 68 69  31 04 80 55 A3 80 F0 FF  .....whi1..U....
1520: FF 7F F0 FF FF 7F 77 68  69 31 1B 45 A3 80 F0 FF  ......whi1.E....
1530: FF 7F F0 FF FF 7F 77 68  6F 31 04 80 55 A3 80 F0  ......who1..U...
1540: FF FF 7F F0 FF FF 7F 77  68 6F 31 1B 45 A3 80 F0  .......who1.E...
1550: FF FF 7F F0 FF FF 7F 77  68 6F 32 04 80 55 A3 80  .......who2..U..
1560: F0 FF FF 7F F0 FF FF 7F  77 68 6F 32 1B 45 A3 80  ........who2.E..
1570: F0 FF FF 7F F0 FF FF 7F  77 68 6F 33 04 80 55 A3  ........who3..U.
1580: 80 F0 FF FF 7F F0 FF FF  7F 77 68 6F 33 1B 62 12  .........who3.b.
1590: 80 F0 FF FF 7F F0 FF FF  7F 6D 61 69 6E 04 80 1C  .........main...
15A0: 01 80 45 14 80 F0 FF FF  7F F0 FF FF 7F 66 64 6F  ..E..........fdo
15B0: 31 04 80 55 14 80 F0 FF  FF 7F F0 FF FF 7F 66 64  1..U..........fd
15C0: 6F 31 1B 45 14 80 F0 FF  FF 7F F0 FF FF 7F 66 64  o1.E..........fd
15D0: 69 31 04 80 62 A4 80 F0  FF FF 7F F0 FF FF 7F 6D  i1..b..........m
15E0: 61 69 6E 04 80 1C 11 80  55 14 80 F0 FF FF 7F F0  ain.....U.......
15F0: FF FF 7F 66 64 69 31 1B  45 14 80 F0 FF FF 7F F0  ...fdi1.E.......
1600: FF FF 7F 62 6C 6F 6E 04  80 45 A3 80 F0 FF FF 7F  ...blon..E......
1610: F0 FF FF 7F 62 6C 6F 6E  04 80 1B 45 A3 80 F0 FF  ....blon...E....
1620: FF 7F F0 FF FF 7F 77 68  69 30 04 80 55 A3 80 F0  ......whi0..U...
1630: FF FF 7F F0 FF FF 7F 77  68 69 30 1B 45 A3 80 F0  .......whi0.E...
1640: FF FF 7F F0 FF FF 7F 77  68 6F 30 04 80 55 A3 80  .......who0..U..
1650: F0 FF FF 7F F0 FF FF 7F  77 68 6F 30 1B 45 A5 80  ........who0.E..
1660: F0 FF FF 7F F0 FF FF 7F  65 66 6F 6E 04 80 55 A5  ........efon..U.
1670: 80 F0 FF FF 7F F0 FF FF  7F 65 66 6F 6E 1B 45 14  .........efon.E.
1680: 80 F0 FF FF 7F F0 FF FF  7F 66 64 69 73 04 80 1B  .........fdis...
1690: 45 14 80 F0 FF FF 7F F0  FF FF 7F 66 64 6F 73 04  E..........fdos.
16A0: 80 55 14 80 F0 FF FF 7F  F0 FF FF 7F 66 64 6F 73  .U..........fdos
16B0: 1B 45 14 80 F0 FF FF 7F  F0 FF FF 7F 66 64 69 66  .E..........fdif
16C0: 04 80 1B 45 14 80 F0 FF  FF 7F F0 FF FF 7F 66 64  ...E..........fd
16D0: 6F 66 04 80 55 14 80 F0  FF FF 7F F0 FF FF 7F 66  of..U..........f
16E0: 64 6F 66 1B 45 14 80 F0  FF FF 7F F0 FF FF 7F 66  dof.E..........f
16F0: 64 69 70 04 80 1B 45 14  80 F0 FF FF 7F F0 FF FF  dip...E.........
1700: 7F 66 64 6F 70 04 80 55  14 80 F0 FF FF 7F F0 FF  .fdop..U........
1710: FF 7F 66 64 6F 70 1B                              ..fdop.         
```

#### Opcodes

```
  0: 0x024A [0x2B] Halver (ID: 17731591/0x010E9007) [8305*]:
    → "<Player>. As you are likely aware, all matters concerning the royal family pass through me."
  1: 0x0251 [0x23] WAIT_FOR_DIALOG_INTERACTION
  2: 0x0252 [0x03] Work_Zone[2] = 785*
  3: 0x0257 [0x24] CREATE_DIALOG(message_id=8306*, default_option=0*, option_flags=0*)
    → "Show him $3? [Of course./Not a chance.]"
  4: 0x025E [0x25] WAIT_DIALOG_SELECT()
  5: 0x025F [0x02] IF !(Work_Zone[0] == 1*) GOTO 0x027D
  6: 0x0267 [0x2B] Halver (ID: 17731591/0x010E9007) [8307*]:
    → "Hmmm. I had heard that the Empire of Aht Urhgan was desperately recruiting mercenaries, but to see one of their insignias with my own eyes..."
  7: 0x026E [0x23] WAIT_FOR_DIALOG_INTERACTION
  8: 0x026F [0x2B] Halver (ID: 17731591/0x010E9007) [8308*]:
    → "<Player>, you have become a mercenary, have you not?"
  9: 0x0276 [0x23] WAIT_FOR_DIALOG_INTERACTION
 10: 0x0277 [0x01] GOTO 0x0434

SUBROUTINE_027D:
 11: 0x027D [0x42] SET_CLI_EVENT_CANCEL_DATA()
 12: 0x027E [0x1A] CALL_SUBROUTINE(address=0x14E9)
 13: 0x0281 [0x46] CAMERA_CONTROL: Disable user control
 14: 0x0283 [0x38] SET_CLIENT_EVENT_MODE(mode=19*)
 15: 0x0286 [0x4E] SET_ENTITY_HIDE_FLAG: Show LocalPlayer
 16: 0x028C [0x5C] MUSIC_CONTROL: Set Idle (Day) music to song 156*
 17: 0x0290 [0x5C] MUSIC_CONTROL: Set Idle (Night) music to song 156*
 18: 0x0294 [0x4E] SET_ENTITY_HIDE_FLAG: Hide Rahal (ID: 17731592/0x010E9008)
 19: 0x029A [0x92] Guilerme (ID: 17731661/0x010E904D)->Render.Flags3 ^= 0x01
 20: 0x02A0 [0x92] Bacherume (ID: 17731662/0x010E904E)->Render.Flags3 ^= 0x01
 21: 0x02A6 [0x92] Guilerme (ID: 17731661/0x010E904D)->Render.Flags3 ^= 0x01
 22: 0x02AC [0x92] Bacherume (ID: 17731662/0x010E904E)->Render.Flags3 ^= 0x01
 23: 0x02B2 [0x92] Halver (ID: 17731591/0x010E9007)->Render.Flags3 ^= 0x01
 24: 0x02B8 [0x92] Rahal (ID: 17731592/0x010E9008)->Render.Flags3 ^= 0x01
 25: 0x02BE [0x92] Curilla (ID: 17731596/0x010E900C)->Render.Flags3 ^= 0x01
 26: 0x02C4 [0x92] Pieuje (ID: 17731589/0x010E9005)->Render.Flags3 ^= 0x01
 27: 0x02CA [0x92] Travialce (ID: 17731672/0x010E9058)->Render.Flags3 ^= 0x01
 28: 0x02D0 [0x92] Faurie (ID: 17731601/0x010E9011)->Render.Flags3 ^= 0x01
 29: 0x02D6 [0x92] Ferdechiond (ID: 17731602/0x010E9012)->Render.Flags3 ^= 0x01
 30: 0x02DC [0x92] Chaphoire (ID: 17731603/0x010E9013)->Render.Flags3 ^= 0x01
 31: 0x02E2 [0x92] Arsha (ID: 17731604/0x010E9014)->Render.Flags3 ^= 0x01
 32: 0x02E8 [0x92] Chupaile (ID: 17731605/0x010E9015)->Render.Flags3 ^= 0x01
 33: 0x02EE [0x94] LocalPlayer->Render.Flags3 ^= 0x01
 34: 0x02F4 [0x94] Guilerme (ID: 17731661/0x010E904D)->Render.Flags3 ^= 0x01
 35: 0x02FA [0x94] Bacherume (ID: 17731662/0x010E904E)->Render.Flags3 ^= 0x01
 36: 0x0300 [0x94] Halver (ID: 17731591/0x010E9007)->Render.Flags3 ^= 0x01
 37: 0x0306 [0x94] Rahal (ID: 17731592/0x010E9008)->Render.Flags3 ^= 0x01
 38: 0x030C [0x94] Curilla (ID: 17731596/0x010E900C)->Render.Flags3 ^= 0x01
 39: 0x0312 [0x94] Pieuje (ID: 17731589/0x010E9005)->Render.Flags3 ^= 0x01
 40: 0x0318 [0x29] REQ_SET_WAIT(priority=0x10, entity_id=LocalPlayer, tag_num=0x88)
 41: 0x031F [0x29] REQ_SET_WAIT(priority=0x10, entity_id=Guilerme (ID: 17731661/0x010E904D), tag_num=0x02)
 42: 0x0326 [0x29] REQ_SET_WAIT(priority=0x10, entity_id=Bacherume (ID: 17731662/0x010E904E), tag_num=0x02)
 43: 0x032D [0x80] LOAD_WAIT(entity=LocalPlayer)
 44: 0x0332 [0x80] LOAD_WAIT(entity=Guilerme (ID: 17731661/0x010E904D))
 45: 0x0337 [0x80] LOAD_WAIT(entity=Bacherume (ID: 17731662/0x010E904E))
 46: 0x033C [0x80] LOAD_WAIT(entity=Halver (ID: 17731591/0x010E9007))
 47: 0x0341 [0x4A] LocalPlayer looks at Halver (ID: 17731591/0x010E9007)
 48: 0x034A [0x4A] Halver (ID: 17731591/0x010E9007) looks at LocalPlayer
 49: 0x0353 [0x6F] WAIT_FRAME_DELAY: Yield until WaitTime reaches zero
 50: 0x0354 [0x76] CHECK_ENTITY_RENDER_FLAGS: Wait until Halver (ID: 17731591/0x010E9007) Render.Flags0 and Render.Flags3 conditions are met
 51: 0x0359 [0x29] REQ_SET_WAIT(priority=0x03, entity_id=Halver (ID: 17731591/0x010E9007), tag_num=0x06)
 52: 0x0360 [0x9A] WAIT_MUSIC_SERVER()
 53: 0x0361 [0x1C] WAIT(15* ticks)
 54: 0x0364 [0x45] LOAD_SCHEDULED_TASK: Load scheduler "z000" with entities [LocalPlayer, LocalPlayer], work=[87*, 0*]
 55: 0x0375 [0x1A] CALL_SUBROUTINE(address=0x14C8)
 56: 0x0378 [0x2B] Halver (ID: 17731591/0x010E9007) [8309*]:
    → "What have we here?"
 57: 0x037F [0x23] WAIT_FOR_DIALOG_INTERACTION
 58: 0x0380 [0x2B] Halver (ID: 17731591/0x010E9007) [8310*]:
    → "A letter...with writing so terrible I cannot even read that I am the intended recipient."
 59: 0x0387 [0x23] WAIT_FOR_DIALOG_INTERACTION
 60: 0x0388 [0x52] END_LOAD_SCHEDULER: End scheduler "z000" with entities [LocalPlayer, LocalPlayer], work=87*
 61: 0x0397 [0x45] LOAD_SCHEDULED_TASK: Load scheduler "z001" with entities [LocalPlayer, LocalPlayer], work=[87*, 0*]
 62: 0x03A8 [0x27] REQ_SET(priority=0x03, entity_id=Halver (ID: 17731591/0x010E9007), tag_num=0x07)
 63: 0x03AF [0x5D] SET_MUSIC_VOLUME(volume=0*, fade_time=240*)
 64: 0x03B4 [0x2B] Halver (ID: 17731591/0x010E9007) [8311*]:
    → "This carrion worm scrawl... I have seen its like before..."
 65: 0x03BB [0x23] WAIT_FOR_DIALOG_INTERACTION
 66: 0x03BC [0x55] WAIT_LOAD_SCHEDULER: Wait for scheduler "z001" with entities [LocalPlayer, LocalPlayer], work=87*
 67: 0x03CB [0x2B] Halver (ID: 17731591/0x010E9007) [8312*]:
    → "The person who entrusted you with this message..."
 68: 0x03D2 [0x23] WAIT_FOR_DIALOG_INTERACTION
 69: 0x03D3 [0x79] Halver (ID: 17731591/0x010E9007) looks at LocalPlayer (Basic look)
 70: 0x03DD [0x2B] Halver (ID: 17731591/0x010E9007) [8313*]:
    → "The "Lord of Illegibility," as I would call him..."
 71: 0x03E4 [0x23] WAIT_FOR_DIALOG_INTERACTION
 72: 0x03E5 [0x5C] MUSIC_CONTROL: Set Idle (Day) music to song 163*
 73: 0x03E9 [0x5C] MUSIC_CONTROL: Set Idle (Night) music to song 163*
 74: 0x03ED [0x9A] WAIT_MUSIC_SERVER()
 75: 0x03EE [0x45] LOAD_SCHEDULED_TASK: Load scheduler "z002" with entities [LocalPlayer, LocalPlayer], work=[87*, 0*]
 76: 0x03FF [0x1C] WAIT(30* ticks)
 77: 0x0402 [0x2B] Halver (ID: 17731591/0x010E9007) [8319*]:
    → "I am certain... This letter is from the heir to the throne of San d'Oria, the Prince Royal, Trion I d'Oraguille!"
 78: 0x0409 [0x23] WAIT_FOR_DIALOG_INTERACTION
 79: 0x040A [0x1A] CALL_SUBROUTINE(address=0x0447)
 80: 0x040D [0x1A] CALL_SUBROUTINE(address=0x0B54)
 81: 0x0410 [0x03] Work_Zone[1] = 1*
 82: 0x0415 [0x1A] CALL_SUBROUTINE(address=0x14E9)
 83: 0x0418 [0x1C] WAIT(30* ticks)
 84: 0x041B [0x52] END_LOAD_SCHEDULER: End scheduler 0xFEFEFE00 with entities [LocalPlayer, LocalPlayer], work=259*
 85: 0x042A [0x5C] MUSIC_CONTROL: Set Idle (Day) music to song 156*
 86: 0x042E [0x5C] MUSIC_CONTROL: Set Idle (Night) music to song 156*
 87: 0x0432 [0x46] CAMERA_CONTROL: Restore default settings

SUBROUTINE_0434:
 88: 0x0434 [0x45] LOAD_SCHEDULED_TASK: Load scheduler "fdi2" with entities [LocalPlayer, LocalPlayer], work=[200*, 0*]
 89: 0x0445 [0x21] END_EVENT
 90: 0x0446 [0x00] END_REQSTACK()

SUBROUTINE_0447:
 91: 0x0447 [0x6E] LocalPlayer uses emote 6*
 92: 0x044E [0x99] Wait for LocalPlayer animation to complete
 93: 0x0453 [0x1C] WAIT(30* ticks)
 94: 0x0456 [0x2B] Halver (ID: 17731591/0x010E9007) [8320*]:
    → "I am mistaken, you say?"
 95: 0x045D [0x23] WAIT_FOR_DIALOG_INTERACTION
 96: 0x045E [0x52] END_LOAD_SCHEDULER: End scheduler "z002" with entities [LocalPlayer, LocalPlayer], work=87*
 97: 0x046D [0x45] LOAD_SCHEDULED_TASK: Load scheduler "z003" with entities [LocalPlayer, LocalPlayer], work=[87*, 0*]
 98: 0x047E [0x2B] Halver (ID: 17731591/0x010E9007) [8321*]:
    → "This letter was written by one Sage Raillefal? But this chocobo scratch could only be the work of Prince Trion..."
 99: 0x0485 [0x23] WAIT_FOR_DIALOG_INTERACTION
100: 0x0486 [0x2B] Halver (ID: 17731591/0x010E9007) [8322*]:
    → "I shall prove it to you. I have long attended to the prince and encountered many opportunities to decipher his...unique...style of writing..."
101: 0x048D [0x23] WAIT_FOR_DIALOG_INTERACTION
102: 0x048E [0x2B] Halver (ID: 17731591/0x010E9007) [8323*]:
    → "A moment, if you will..."
103: 0x0495 [0x23] WAIT_FOR_DIALOG_INTERACTION
104: 0x0496 [0x7B] Halver (ID: 17731591/0x010E9007) stops talking
105: 0x049B [0x27] REQ_SET(priority=0x03, entity_id=Halver (ID: 17731591/0x010E9007), tag_num=0x06)
106: 0x04A2 [0x1C] WAIT(15* ticks)
107: 0x04A5 [0x52] END_LOAD_SCHEDULER: End scheduler "z003" with entities [LocalPlayer, LocalPlayer], work=87*
108: 0x04B4 [0x45] LOAD_SCHEDULED_TASK: Load scheduler "z004" with entities [LocalPlayer, LocalPlayer], work=[87*, 0*]
109: 0x04C5 [0x7C] Halver (ID: 17731591/0x010E9007)->Render.Flags2 |= 0x00
110: 0x04CB [0x2B] Halver (ID: 17731591/0x010E9007) [8324*]:
    → "..."
111: 0x04D2 [0x23] WAIT_FOR_DIALOG_INTERACTION
112: 0x04D3 [0x2B] Halver (ID: 17731591/0x010E9007) [8325*]:
    → "???"
113: 0x04DA [0x23] WAIT_FOR_DIALOG_INTERACTION
114: 0x04DB [0x7C] Halver (ID: 17731591/0x010E9007)->Render.Flags2 |= 0x01
115: 0x04E1 [0x2B] Halver (ID: 17731591/0x010E9007) [8326*]:
    → "Astril Condes...? Astrul Wand...? Uar...?"
116: 0x04E8 [0x23] WAIT_FOR_DIALOG_INTERACTION
117: 0x04E9 [0x27] REQ_SET(priority=0x03, entity_id=Halver (ID: 17731591/0x010E9007), tag_num=0x07)
118: 0x04F0 [0x2B] Halver (ID: 17731591/0x010E9007) [8327*]:
    → "This truly is atrocious..."
119: 0x04F7 [0x23] WAIT_FOR_DIALOG_INTERACTION
120: 0x04F8 [0x52] END_LOAD_SCHEDULER: End scheduler "z004" with entities [LocalPlayer, LocalPlayer], work=87*
121: 0x0507 [0x45] LOAD_SCHEDULED_TASK: Load scheduler "z005" with entities [LocalPlayer, LocalPlayer], work=[87*, 0*]
122: 0x0518 [0x27] REQ_SET(priority=0x03, entity_id=Halver (ID: 17731591/0x010E9007), tag_num=0x04)
123: 0x051F [0x1C] WAIT(30* ticks)
124: 0x0522 [0x2B] Halver (ID: 17731591/0x010E9007) [8328*]:
    → "I have no doubt this letter is from Prince Trion!"
125: 0x0529 [0x23] WAIT_FOR_DIALOG_INTERACTION
126: 0x052A [0x2B] Halver (ID: 17731591/0x010E9007) [8329*]:
    → "But I am afraid I cannot make out the meaning..."
127: 0x0531 [0x23] WAIT_FOR_DIALOG_INTERACTION
128: 0x0532 [0x27] REQ_SET(priority=0x03, entity_id=Halver (ID: 17731591/0x010E9007), tag_num=0x05)
129: 0x0539 [0x52] END_LOAD_SCHEDULER: End scheduler "z005" with entities [LocalPlayer, LocalPlayer], work=87*
130: 0x0548 [0x29] REQ_SET_WAIT(priority=0x03, entity_id=Rahal (ID: 17731592/0x010E9008), tag_num=0x03)
131: 0x054F [0x27] REQ_SET(priority=0x03, entity_id=Rahal (ID: 17731592/0x010E9008), tag_num=0x04)
132: 0x0556 [0x79] Rahal (ID: 17731592/0x010E9008) looks at Halver (ID: 17731591/0x010E9007) (Basic look)
133: 0x0560 [0x1C] WAIT(30* ticks)
134: 0x0563 [0x45] LOAD_SCHEDULED_TASK: Load scheduler "z006" with entities [LocalPlayer, LocalPlayer], work=[87*, 0*]
135: 0x0574 [0x4E] SET_ENTITY_HIDE_FLAG: Show Rahal (ID: 17731592/0x010E9008)
136: 0x057A [0x2B] Rahal (ID: 17731592/0x010E9008) [8330*]:
    → "Monarlais Halver. You look troubled. Perhaps I may be of assistance?"
137: 0x0581 [0x23] WAIT_FOR_DIALOG_INTERACTION
138: 0x0582 [0x4A] Halver (ID: 17731591/0x010E9007) looks at Rahal (ID: 17731592/0x010E9008)
139: 0x058B [0x2B] Halver (ID: 17731591/0x010E9007) [8331*]:
    → "!"
140: 0x0592 [0x1C] WAIT(15* ticks)
141: 0x0595 [0x4A] LocalPlayer looks at Rahal (ID: 17731592/0x010E9008)
142: 0x059E [0x02] IF !(ExtData[1]->WorkLocal[1] == 1*) GOTO 0x05B4
143: 0x05A6 [0x27] REQ_SET(priority=0x03, entity_id=Guilerme (ID: 17731661/0x010E904D), tag_num=0x03)
144: 0x05AD [0x27] REQ_SET(priority=0x10, entity_id=Bacherume (ID: 17731662/0x010E904E), tag_num=0x03)
145: 0x05B4 [0x23] WAIT_FOR_DIALOG_INTERACTION
146: 0x05B5 [0x27] REQ_SET(priority=0x03, entity_id=Rahal (ID: 17731592/0x010E9008), tag_num=0x05)
147: 0x05BC [0x1C] WAIT(60* ticks)
148: 0x05BF [0x45] LOAD_SCHEDULED_TASK: Load scheduler "z007" with entities [LocalPlayer, LocalPlayer], work=[87*, 0*]
149: 0x05D0 [0x2B] Halver (ID: 17731591/0x010E9007) [8332*]:
    → "General Rahal. Your offer of aid is most generous, however..."
150: 0x05D7 [0x23] WAIT_FOR_DIALOG_INTERACTION
151: 0x05D8 [0x2A] GET_REQ_LEVEL(level=3, entity_id=Rahal (ID: 17731592/0x010E9008))
152: 0x05DE [0x55] WAIT_LOAD_SCHEDULER: Wait for scheduler "z007" with entities [LocalPlayer, LocalPlayer], work=87*
153: 0x05ED [0x45] LOAD_SCHEDULED_TASK: Load scheduler "z008" with entities [LocalPlayer, LocalPlayer], work=[87*, 0*]
154: 0x05FE [0x55] WAIT_LOAD_SCHEDULER: Wait for scheduler "z008" with entities [LocalPlayer, LocalPlayer], work=87*
155: 0x060D [0x02] IF !(ExtData[1]->WorkLocal[1] == 1*) GOTO 0x0621
156: 0x0615 [0x4E] SET_ENTITY_HIDE_FLAG: Hide Guilerme (ID: 17731661/0x010E904D)
157: 0x061B [0x4E] SET_ENTITY_HIDE_FLAG: Hide Bacherume (ID: 17731662/0x010E904E)
158: 0x0621 [0x2B] Rahal (ID: 17731592/0x010E9008) [8333*]:
    → "No need to be so humble. You have one of Trion's indecipherable letters, do you not?"
159: 0x0628 [0x23] WAIT_FOR_DIALOG_INTERACTION
160: 0x0629 [0x45] LOAD_SCHEDULED_TASK: Load scheduler "z009" with entities [LocalPlayer, LocalPlayer], work=[87*, 0*]
161: 0x063A [0x55] WAIT_LOAD_SCHEDULER: Wait for scheduler "z009" with entities [LocalPlayer, LocalPlayer], work=87*
162: 0x0649 [0x2B] Halver (ID: 17731591/0x010E9007) [8334*]:
    → "How could you know...?"
163: 0x0650 [0x23] WAIT_FOR_DIALOG_INTERACTION
164: 0x0651 [0x2B] Rahal (ID: 17731592/0x010E9008) [8335*]:
    → "I have my sources..."
165: 0x0658 [0x1C] WAIT(15* ticks)
166: 0x065B [0x4E] SET_ENTITY_HIDE_FLAG: Show Travialce (ID: 17731672/0x010E9058)
167: 0x0661 [0x79] Travialce (ID: 17731672/0x010E9058) looks at Halver (ID: 17731591/0x010E9007) (Basic look)
168: 0x066B [0x79] Rahal (ID: 17731592/0x010E9008) looks at Travialce (ID: 17731672/0x010E9058) (Basic look)
169: 0x0675 [0x4B] UPDATE_ENTITY_YAW(entity=Rahal (ID: 17731592/0x010E9008), yaw=3.2°*)
170: 0x067C [0x27] REQ_SET(priority=0x03, entity_id=Travialce (ID: 17731672/0x010E9058), tag_num=0x03)
171: 0x0683 [0x1C] WAIT(60* ticks)
172: 0x0686 [0x79] Halver (ID: 17731591/0x010E9007) looks at Travialce (ID: 17731672/0x010E9058) (Basic look)
173: 0x0690 [0x45] LOAD_SCHEDULED_TASK: Load scheduler "y000" with entities [LocalPlayer, LocalPlayer], work=[87*, 0*]
174: 0x06A1 [0x55] WAIT_LOAD_SCHEDULER: Wait for scheduler "y000" with entities [LocalPlayer, LocalPlayer], work=87*
175: 0x06B0 [0x2A] GET_REQ_LEVEL(level=3, entity_id=Travialce (ID: 17731672/0x010E9058))
176: 0x06B6 [0x27] REQ_SET(priority=0x04, entity_id=Travialce (ID: 17731672/0x010E9058), tag_num=0x04)
177: 0x06BD [0x1C] WAIT(90* ticks)
178: 0x06C0 [0x23] WAIT_FOR_DIALOG_INTERACTION
179: 0x06C1 [0x4A] Rahal (ID: 17731592/0x010E9008) looks at Halver (ID: 17731591/0x010E9007)
180: 0x06CA [0x1C] WAIT(10* ticks)
181: 0x06CD [0x45] LOAD_SCHEDULED_TASK: Load scheduler "y002" with entities [LocalPlayer, LocalPlayer], work=[87*, 0*]
182: 0x06DE [0x6F] WAIT_FRAME_DELAY: Yield until WaitTime reaches zero
183: 0x06DF [0x76] CHECK_ENTITY_RENDER_FLAGS: Wait until Rahal (ID: 17731592/0x010E9008) Render.Flags0 and Render.Flags3 conditions are met
184: 0x06E4 [0x27] REQ_SET(priority=0x03, entity_id=Rahal (ID: 17731592/0x010E9008), tag_num=0x26)
185: 0x06EB [0x2B] Rahal (ID: 17731592/0x010E9008) [8336*]:
    → "Some days ago, Prince Trion abandoned the signing of some official documents..."
186: 0x06F2 [0x23] WAIT_FOR_DIALOG_INTERACTION
187: 0x06F3 [0x2B] Rahal (ID: 17731592/0x010E9008) [8337*]:
    → "He placed a mannequin in his chair, and fled the chateau in the dead of night..."
188: 0x06FA [0x23] WAIT_FOR_DIALOG_INTERACTION
189: 0x06FB [0x27] REQ_SET(priority=0x03, entity_id=Rahal (ID: 17731592/0x010E9008), tag_num=0x27)
190: 0x0702 [0x79] Halver (ID: 17731591/0x010E9007) looks at Rahal (ID: 17731592/0x010E9008) (Basic look)
191: 0x070C [0x27] REQ_SET(priority=0x03, entity_id=Halver (ID: 17731591/0x010E9007), tag_num=0x06)
192: 0x0713 [0x2B] Halver (ID: 17731591/0x010E9007) [8338*]:
    → "At least it was not a forest hare this time..."
193: 0x071A [0x23] WAIT_FOR_DIALOG_INTERACTION
194: 0x071B [0x4A] Rahal (ID: 17731592/0x010E9008) looks at Travialce (ID: 17731672/0x010E9058)
195: 0x0724 [0x1C] WAIT(10* ticks)
196: 0x0727 [0x45] LOAD_SCHEDULED_TASK: Load scheduler "y00b" with entities [LocalPlayer, LocalPlayer], work=[87*, 0*]
197: 0x0738 [0x2B] Rahal (ID: 17731592/0x010E9008) [8339*]:
    → "That is when I had Travialce here shadow the prince's movements. He has had training in the arts of the ninja."
198: 0x073F [0x23] WAIT_FOR_DIALOG_INTERACTION
199: 0x0740 [0x79] Rahal (ID: 17731592/0x010E9008) looks at Travialce (ID: 17731672/0x010E9058) (Basic look)
200: 0x074A [0x2B] Rahal (ID: 17731592/0x010E9008) [8340*]:
    → "Please continue the tale, Travialce."
201: 0x0751 [0x23] WAIT_FOR_DIALOG_INTERACTION
202: 0x0752 [0x79] Halver (ID: 17731591/0x010E9007) looks at Travialce (ID: 17731672/0x010E9058) (Basic look)
203: 0x075C [0x52] END_LOAD_SCHEDULER: End scheduler "y00b" with entities [LocalPlayer, LocalPlayer], work=87*
204: 0x076B [0x45] LOAD_SCHEDULED_TASK: Load scheduler "y00a" with entities [LocalPlayer, LocalPlayer], work=[87*, 0*]
205: 0x077C [0x2B] Travialce (ID: 17731672/0x010E9058) [8341*]:
    → "Sir. Prince Trion first made his way to Mhaura and passed himself off as an adventurer."
206: 0x0783 [0x23] WAIT_FOR_DIALOG_INTERACTION
207: 0x0784 [0x45] LOAD_SCHEDULED_TASK: Load scheduler "y001" with entities [LocalPlayer, LocalPlayer], work=[87*, 0*]
208: 0x0795 [0x27] REQ_SET(priority=0x03, entity_id=Halver (ID: 17731591/0x010E9007), tag_num=0x07)
209: 0x079C [0x2B] Halver (ID: 17731591/0x010E9007) [8342*]:
    → "Dear Altana... A member of the royal family traipsing about as an "adventurer"..."
210: 0x07A3 [0x23] WAIT_FOR_DIALOG_INTERACTION
211: 0x07A4 [0x2A] GET_REQ_LEVEL(level=3, entity_id=Halver (ID: 17731591/0x010E9007))
212: 0x07AA [0x2B] Halver (ID: 17731591/0x010E9007) [8343*]:
    → "The court will be mortified."
213: 0x07B1 [0x23] WAIT_FOR_DIALOG_INTERACTION
214: 0x07B2 [0x52] END_LOAD_SCHEDULER: End scheduler "y001" with entities [LocalPlayer, LocalPlayer], work=87*
215: 0x07C1 [0x45] LOAD_SCHEDULED_TASK: Load scheduler "y004" with entities [LocalPlayer, LocalPlayer], work=[87*, 0*]
216: 0x07D2 [0x2B] Travialce (ID: 17731672/0x010E9058) [8344*]:
    → "From there, His Highness boarded a ferry bound for the shores of Aht Urhgan..."
217: 0x07D9 [0x23] WAIT_FOR_DIALOG_INTERACTION
218: 0x07DA [0x27] REQ_SET(priority=0x03, entity_id=Halver (ID: 17731591/0x010E9007), tag_num=0x04)
219: 0x07E1 [0x2B] Halver (ID: 17731591/0x010E9007) [8345*]:
    → "Aht Urhgan!? And then?"
220: 0x07E8 [0x23] WAIT_FOR_DIALOG_INTERACTION
221: 0x07E9 [0x27] REQ_SET(priority=0x03, entity_id=Halver (ID: 17731591/0x010E9007), tag_num=0x05)
222: 0x07F0 [0x52] END_LOAD_SCHEDULER: End scheduler "y004" with entities [LocalPlayer, LocalPlayer], work=87*
223: 0x07FF [0x45] LOAD_SCHEDULED_TASK: Load scheduler "y003" with entities [LocalPlayer, LocalPlayer], work=[87*, 0*]
224: 0x0810 [0x2B] Travialce (ID: 17731672/0x010E9058) [8346*]:
    → "I quickly slipped aboard as well, and guarded the royal person from the shadows."
225: 0x0817 [0x23] WAIT_FOR_DIALOG_INTERACTION
226: 0x0818 [0x2B] Travialce (ID: 17731672/0x010E9058) [8347*]:
    → "The ferry safely arrived in Al Zahbi with the prince none the wiser of my presence."
227: 0x081F [0x23] WAIT_FOR_DIALOG_INTERACTION
228: 0x0820 [0x2B] Travialce (ID: 17731672/0x010E9058) [8348*]:
    → "After entering the city, Prince Trion headed straight to a mercenary company and apparently signed some sort of contract."
229: 0x0827 [0x23] WAIT_FOR_DIALOG_INTERACTION
230: 0x0828 [0x52] END_LOAD_SCHEDULER: End scheduler "y003" with entities [LocalPlayer, LocalPlayer], work=87*
231: 0x0837 [0x45] LOAD_SCHEDULED_TASK: Load scheduler "y005" with entities [LocalPlayer, LocalPlayer], work=[87*, 0*]
232: 0x0848 [0x2A] GET_REQ_LEVEL(level=3, entity_id=Halver (ID: 17731591/0x010E9007))
233: 0x084E [0x27] REQ_SET(priority=0x03, entity_id=Halver (ID: 17731591/0x010E9007), tag_num=0x0B)
234: 0x0855 [0x2B] Halver (ID: 17731591/0x010E9007) [8349*]:
    → "A contract!? Surely not with his own name? This could escalate into an international crisis!"
235: 0x085C [0x23] WAIT_FOR_DIALOG_INTERACTION
236: 0x085D [0x2B] Travialce (ID: 17731672/0x010E9058) [8350*]:
    → "There is nothing to fear on that count. His Highness travels the Empire under the assumed name of "Raillefal.""
237: 0x0864 [0x23] WAIT_FOR_DIALOG_INTERACTION
238: 0x0865 [0x2B] Halver (ID: 17731591/0x010E9007) [8351*]:
    → "So no one in Al Zahbi is aware of his true identity?"
239: 0x086C [0x23] WAIT_FOR_DIALOG_INTERACTION
240: 0x086D [0x45] LOAD_SCHEDULED_TASK: Load scheduler "y00a" with entities [LocalPlayer, LocalPlayer], work=[87*, 0*]
241: 0x087E [0x2B] Travialce (ID: 17731672/0x010E9058) [8352*]:
    → "I wouldn't say that, milord... The prince is wearing a suit of gilded gold plate and is not subtle in his information gathering."
242: 0x0885 [0x23] WAIT_FOR_DIALOG_INTERACTION
243: 0x0886 [0x52] END_LOAD_SCHEDULER: End scheduler "y005" with entities [LocalPlayer, LocalPlayer], work=87*
244: 0x0895 [0x45] LOAD_SCHEDULED_TASK: Load scheduler "y006" with entities [LocalPlayer, LocalPlayer], work=[87*, 0*]
245: 0x08A6 [0x6E] Halver (ID: 17731591/0x010E9007) uses emote 19*
246: 0x08AD [0x99] Wait for Halver (ID: 17731591/0x010E9007) animation to complete
247: 0x08B2 [0x2B] Halver (ID: 17731591/0x010E9007) [8353*]:
    → "Great Goddess... Then he is not disguised at all?"
248: 0x08B9 [0x23] WAIT_FOR_DIALOG_INTERACTION
249: 0x08BA [0x2B] Travialce (ID: 17731672/0x010E9058) [8354*]:
    → "No, milord."
250: 0x08C1 [0x23] WAIT_FOR_DIALOG_INTERACTION
251: 0x08C2 [0x4A] Travialce (ID: 17731672/0x010E9058) looks at LocalPlayer
252: 0x08CB [0x1C] WAIT(10* ticks)
253: 0x08CE [0x52] END_LOAD_SCHEDULER: End scheduler "y006" with entities [LocalPlayer, LocalPlayer], work=87*
254: 0x08DD [0x45] LOAD_SCHEDULED_TASK: Load scheduler "y007" with entities [LocalPlayer, LocalPlayer], work=[87*, 0*]
255: 0x08EE [0x79] LocalPlayer looks at Travialce (ID: 17731672/0x010E9058) (Basic look)
256: 0x08F8 [0x4A] Rahal (ID: 17731592/0x010E9008) looks at LocalPlayer
257: 0x0901 [0x2B] Travialce (ID: 17731672/0x010E9058) [8355*]:
    → "Come to think of it, I have seen this adventurer's face in the very same mercenary company..."
258: 0x0908 [0x23] WAIT_FOR_DIALOG_INTERACTION
259: 0x0909 [0x2B] Travialce (ID: 17731672/0x010E9058) [8356*]:
    → "This letter must be the very same document I witnessed in the prince's hand at the Shararat Teahouse."
260: 0x0910 [0x23] WAIT_FOR_DIALOG_INTERACTION
261: 0x0911 [0x52] END_LOAD_SCHEDULER: End scheduler "y007" with entities [LocalPlayer, LocalPlayer], work=87*
262: 0x0920 [0x45] LOAD_SCHEDULED_TASK: Load scheduler "y008" with entities [LocalPlayer, LocalPlayer], work=[87*, 0*]
263: 0x0931 [0x4A] Rahal (ID: 17731592/0x010E9008) looks at Halver (ID: 17731591/0x010E9007)
264: 0x093A [0x2B] Rahal (ID: 17731592/0x010E9008) [8357*]:
    → "I am wounded that Prince Trion does not have more trust in us, his loyal subjects..."
265: 0x0941 [0x23] WAIT_FOR_DIALOG_INTERACTION
266: 0x0942 [0x4A] Travialce (ID: 17731672/0x010E9058) looks at Halver (ID: 17731591/0x010E9007)
267: 0x094B [0x79] Halver (ID: 17731591/0x010E9007) looks at Rahal (ID: 17731592/0x010E9008) (Basic look)
268: 0x0955 [0x2B] Rahal (ID: 17731592/0x010E9008) [8358*]:
    → "And I do wish he would act with a little more discretion."
269: 0x095C [0x23] WAIT_FOR_DIALOG_INTERACTION
270: 0x095D [0x52] END_LOAD_SCHEDULER: End scheduler "y008" with entities [LocalPlayer, LocalPlayer], work=87*
271: 0x096C [0x45] LOAD_SCHEDULED_TASK: Load scheduler "y009" with entities [LocalPlayer, LocalPlayer], work=[87*, 0*]
272: 0x097D [0x2B] Halver (ID: 17731591/0x010E9007) [8359*]:
    → "That is a matter we shall discuss anon..."
273: 0x0984 [0x23] WAIT_FOR_DIALOG_INTERACTION
274: 0x0985 [0x2B] Halver (ID: 17731591/0x010E9007) [8360*]:
    → "First, we must learn the reason for Prince Trion's seemingly frequent trips to the nation of Aht Urhgan."
275: 0x098C [0x23] WAIT_FOR_DIALOG_INTERACTION
276: 0x098D [0x2B] Halver (ID: 17731591/0x010E9007) [8361*]:
    → "What is the current state of the Near East? Is the prince in any danger?"
277: 0x0994 [0x23] WAIT_FOR_DIALOG_INTERACTION
278: 0x0995 [0x52] END_LOAD_SCHEDULER: End scheduler "y009" with entities [LocalPlayer, LocalPlayer], work=87*
279: 0x09A4 [0x45] LOAD_SCHEDULED_TASK: Load scheduler "x000" with entities [LocalPlayer, LocalPlayer], work=[87*, 0*]
280: 0x09B5 [0x2B] Rahal (ID: 17731592/0x010E9008) [8362*]:
    → "Do not be concerned."
281: 0x09BC [0x23] WAIT_FOR_DIALOG_INTERACTION
282: 0x09BD [0x4A] Rahal (ID: 17731592/0x010E9008) looks at Travialce (ID: 17731672/0x010E9058)
283: 0x09C6 [0x1C] WAIT(10* ticks)
284: 0x09C9 [0x45] LOAD_SCHEDULED_TASK: Load scheduler "x001" with entities [LocalPlayer, LocalPlayer], work=[87*, 0*]
285: 0x09DA [0x5D] SET_MUSIC_VOLUME(volume=0*, fade_time=240*)
286: 0x09DF [0x2B] Rahal (ID: 17731592/0x010E9008) [8363*]:
    → "I am sure that Travialce has learned much from following the prince. Please enlighten us."
287: 0x09E6 [0x23] WAIT_FOR_DIALOG_INTERACTION
288: 0x09E7 [0x1C] WAIT(15* ticks)
289: 0x09EA [0x5C] MUSIC_CONTROL: Set Idle (Day) music to song 123*
290: 0x09EE [0x5C] MUSIC_CONTROL: Set Idle (Night) music to song 123*
291: 0x09F2 [0x2B] Travialce (ID: 17731672/0x010E9058) [8364*]:
    → "Sir. Raillefal...ah, Prince Trion, investigated the following facts."
292: 0x09F9 [0x23] WAIT_FOR_DIALOG_INTERACTION
293: 0x09FA [0x2B] Travialce (ID: 17731672/0x010E9058) [8365*]:
    → "Four years ago, Jalzahn, the former Emperor of Aht Urhgan, and his wife both succumbed to the same illness..."
294: 0x0A01 [0x23] WAIT_FOR_DIALOG_INTERACTION
295: 0x0A02 [0x52] END_LOAD_SCHEDULER: End scheduler "x001" with entities [LocalPlayer, LocalPlayer], work=87*
296: 0x0A11 [0x45] LOAD_SCHEDULED_TASK: Load scheduler "x002" with entities [LocalPlayer, LocalPlayer], work=[87*, 0*]
297: 0x0A22 [0x4A] Halver (ID: 17731591/0x010E9007) looks at Travialce (ID: 17731672/0x010E9058)
298: 0x0A2B [0x2B] Halver (ID: 17731591/0x010E9007) [8366*]:
    → "Yes, I remember... The Kingdom of San d'Oria sent her condolences. The illness was quite virulent, as I recall..."
299: 0x0A32 [0x23] WAIT_FOR_DIALOG_INTERACTION
300: 0x0A33 [0x2B] Travialce (ID: 17731672/0x010E9058) [8367*]:
    → "The beastmen who dwell on the western borders of the nation used this as an opportunity to cease offering tributes."
301: 0x0A3A [0x23] WAIT_FOR_DIALOG_INTERACTION
302: 0x0A3B [0x2B] Halver (ID: 17731591/0x010E9007) [8368*]:
    → "Hmph. What more would you expect from those savages?"
303: 0x0A42 [0x23] WAIT_FOR_DIALOG_INTERACTION
304: 0x0A43 [0x52] END_LOAD_SCHEDULER: End scheduler "x002" with entities [LocalPlayer, LocalPlayer], work=87*
305: 0x0A52 [0x45] LOAD_SCHEDULED_TASK: Load scheduler "x003" with entities [LocalPlayer, LocalPlayer], work=[87*, 0*]
306: 0x0A63 [0x2B] Travialce (ID: 17731672/0x010E9058) [8369*]:
    → "Though the Empire's long war with the eastern nations was at a stalemate, they could not afford to grow complacent."
307: 0x0A6A [0x23] WAIT_FOR_DIALOG_INTERACTION
308: 0x0A6B [0x2B] Travialce (ID: 17731672/0x010E9058) [8370*]:
    → "The main body of the Imperial Army remained focused on the east..."
309: 0x0A72 [0x23] WAIT_FOR_DIALOG_INTERACTION
310: 0x0A73 [0x52] END_LOAD_SCHEDULER: End scheduler "x003" with entities [LocalPlayer, LocalPlayer], work=87*
311: 0x0A82 [0x45] LOAD_SCHEDULED_TASK: Load scheduler "ovl1" with entities [Halver (ID: 17731591/0x010E9007), Halver (ID: 17731591/0x010E9007)], work=[200*, 0*]
312: 0x0A93 [0x45] LOAD_SCHEDULED_TASK: Load scheduler "x004" with entities [LocalPlayer, LocalPlayer], work=[87*, 0*]
313: 0x0AA4 [0x2B] Travialce (ID: 17731672/0x010E9058) [8371*]:
    → "Meanwhile, the beastmen of the Mamool Ja Savagelands and Halvung Territory unfurled a banner of rebellion on the abandoned western front. It was not long before they were joined by an army known as the "Undead Swarm"..."
314: 0x0AAB [0x23] WAIT_FOR_DIALOG_INTERACTION
315: 0x0AAC [0x1C] WAIT(60* ticks)
316: 0x0AAF [0x27] REQ_SET(priority=0x03, entity_id=Rahal (ID: 17731592/0x010E9008), tag_num=0x28)
317: 0x0AB6 [0x2B] Rahal (ID: 17731592/0x010E9008) [8372*]:
    → "The military might of San d'Oria is fully occupied with the Orcish horde alone. If it were three separate armies..."
318: 0x0ABD [0x23] WAIT_FOR_DIALOG_INTERACTION
319: 0x0ABE [0x27] REQ_SET(priority=0x03, entity_id=Rahal (ID: 17731592/0x010E9008), tag_num=0x29)
320: 0x0AC5 [0x2B] Rahal (ID: 17731592/0x010E9008) [8373*]:
    → "Even a mighty nation like Aht Urhgan must flounder..."
321: 0x0ACC [0x23] WAIT_FOR_DIALOG_INTERACTION
322: 0x0ACD [0x52] END_LOAD_SCHEDULER: End scheduler "x004" with entities [LocalPlayer, LocalPlayer], work=87*
323: 0x0ADC [0x45] LOAD_SCHEDULED_TASK: Load scheduler "x005" with entities [LocalPlayer, LocalPlayer], work=[87*, 0*]
324: 0x0AED [0x2B] Travialce (ID: 17731672/0x010E9058) [8374*]:
    → "Of a certain, sir. The capital itself has recently been the target of beastman invasions."
325: 0x0AF4 [0x23] WAIT_FOR_DIALOG_INTERACTION
326: 0x0AF5 [0x2B] Travialce (ID: 17731672/0x010E9058) [8375*]:
    → "Aht Urhgan now finds herself without the resources to even repair the walls of Al Zahbi..."
327: 0x0AFC [0x23] WAIT_FOR_DIALOG_INTERACTION
328: 0x0AFD [0x2A] GET_REQ_LEVEL(level=3, entity_id=Rahal (ID: 17731592/0x010E9008))
329: 0x0B03 [0x4A] Rahal (ID: 17731592/0x010E9008) looks at Halver (ID: 17731591/0x010E9007)
330: 0x0B0C [0x1C] WAIT(60* ticks)
331: 0x0B0F [0x55] WAIT_LOAD_SCHEDULER: Wait for scheduler "x005" with entities [LocalPlayer, LocalPlayer], work=87*
332: 0x0B1E [0x45] LOAD_SCHEDULED_TASK: Load scheduler "x006" with entities [LocalPlayer, LocalPlayer], work=[87*, 0*]
333: 0x0B2F [0x2B] Halver (ID: 17731591/0x010E9007) [8376*]:
    → "No matter how impressive a swordsman Prince Trion is, we cannot allow him to remain in such a dangerous place."
334: 0x0B36 [0x23] WAIT_FOR_DIALOG_INTERACTION
335: 0x0B37 [0x2B] Halver (ID: 17731591/0x010E9007) [8377*]:
    → "I must take this matter up with those responsible for protecting the royal household."
336: 0x0B3E [0x23] WAIT_FOR_DIALOG_INTERACTION
337: 0x0B3F [0x4A] Halver (ID: 17731591/0x010E9007) looks at Ferdechiond (ID: 17731602/0x010E9012)
338: 0x0B48 [0x2B] Halver (ID: 17731591/0x010E9007) [8378*]:
    → "Bring me General Curilla!"
339: 0x0B4F [0x23] WAIT_FOR_DIALOG_INTERACTION
340: 0x0B50 [0x1A] CALL_SUBROUTINE(address=0x14E9)
341: 0x0B53 [0x1B] RETURN

SUBROUTINE_0B54:
342: 0x0B54 [0x29] REQ_SET_WAIT(priority=0x03, entity_id=Curilla (ID: 17731596/0x010E900C), tag_num=0x03)
343: 0x0B5B [0x4E] SET_ENTITY_HIDE_FLAG: Show Halver (ID: 17731591/0x010E9007)
344: 0x0B61 [0x4E] SET_ENTITY_HIDE_FLAG: Show Curilla (ID: 17731596/0x010E900C)
345: 0x0B67 [0x4E] SET_ENTITY_HIDE_FLAG: Show Travialce (ID: 17731672/0x010E9058)
346: 0x0B6D [0x27] REQ_SET(priority=0x03, entity_id=LocalPlayer, tag_num=0x88)
347: 0x0B74 [0x27] REQ_SET(priority=0x03, entity_id=LocalPlayer, tag_num=0x89)
348: 0x0B7B [0x27] REQ_SET(priority=0x03, entity_id=Halver (ID: 17731591/0x010E9007), tag_num=0x0C)
349: 0x0B82 [0x27] REQ_SET(priority=0x03, entity_id=Rahal (ID: 17731592/0x010E9008), tag_num=0x06)
350: 0x0B89 [0x27] REQ_SET(priority=0x03, entity_id=Travialce (ID: 17731672/0x010E9058), tag_num=0x05)
351: 0x0B90 [0x27] REQ_SET(priority=0x03, entity_id=LocalPlayer, tag_num=0x89)
352: 0x0B97 [0x79] LocalPlayer looks at Curilla (ID: 17731596/0x010E900C) (Basic look)
353: 0x0BA1 [0x79] Halver (ID: 17731591/0x010E9007) looks at Curilla (ID: 17731596/0x010E900C) (Basic look)
354: 0x0BAB [0x79] Rahal (ID: 17731592/0x010E9008) looks at Curilla (ID: 17731596/0x010E900C) (Basic look)
355: 0x0BB5 [0x79] Travialce (ID: 17731672/0x010E9058) looks at Curilla (ID: 17731596/0x010E900C) (Basic look)
356: 0x0BBF [0x79] Curilla (ID: 17731596/0x010E900C) looks at Halver (ID: 17731591/0x010E9007) (Basic look)
357: 0x0BC9 [0x1C] WAIT(180* ticks)
358: 0x0BCC [0x45] LOAD_SCHEDULED_TASK: Load scheduler "w00b" with entities [LocalPlayer, LocalPlayer], work=[87*, 0*]
359: 0x0BDD [0x1A] CALL_SUBROUTINE(address=0x14C8)
360: 0x0BE0 [0x1C] WAIT(120* ticks)
361: 0x0BE3 [0x52] END_LOAD_SCHEDULER: End scheduler "w00b" with entities [LocalPlayer, LocalPlayer], work=87*
362: 0x0BF2 [0x45] LOAD_SCHEDULED_TASK: Load scheduler "ovl1" with entities [Rahal (ID: 17731592/0x010E9008), Rahal (ID: 17731592/0x010E9008)], work=[200*, 0*]
363: 0x0C03 [0x45] LOAD_SCHEDULED_TASK: Load scheduler "w001" with entities [LocalPlayer, LocalPlayer], work=[87*, 0*]
364: 0x0C14 [0x2B] Halver (ID: 17731591/0x010E9007) [8379*]:
    → "General Curilla. It appears a member of the Royal Knights has managed to track down the location of our wayward prince."
365: 0x0C1B [0x23] WAIT_FOR_DIALOG_INTERACTION
366: 0x0C1C [0x2B] Curilla (ID: 17731596/0x010E900C) [8380*]:
    → "And where, pray tell, would that be?"
367: 0x0C23 [0x23] WAIT_FOR_DIALOG_INTERACTION
368: 0x0C24 [0x2B] Halver (ID: 17731591/0x010E9007) [8381*]:
    → "The Empire of Aht Urhgan."
369: 0x0C2B [0x23] WAIT_FOR_DIALOG_INTERACTION
370: 0x0C2C [0x52] END_LOAD_SCHEDULER: End scheduler "w001" with entities [LocalPlayer, LocalPlayer], work=87*
371: 0x0C3B [0x45] LOAD_SCHEDULED_TASK: Load scheduler "w000" with entities [LocalPlayer, LocalPlayer], work=[87*, 0*]
372: 0x0C4C [0x2B] Curilla (ID: 17731596/0x010E900C) [8382*]:
    → "Aht Urhgan..."
373: 0x0C53 [0x23] WAIT_FOR_DIALOG_INTERACTION
374: 0x0C54 [0x4A] Curilla (ID: 17731596/0x010E900C) looks at Rahal (ID: 17731592/0x010E9008)
375: 0x0C5D [0x1C] WAIT(10* ticks)
376: 0x0C60 [0x52] END_LOAD_SCHEDULER: End scheduler "w000" with entities [LocalPlayer, LocalPlayer], work=87*
377: 0x0C6F [0x45] LOAD_SCHEDULED_TASK: Load scheduler "w002" with entities [LocalPlayer, LocalPlayer], work=[87*, 0*]
378: 0x0C80 [0x2B] Curilla (ID: 17731596/0x010E900C) [8383*]:
    → "The nation recruiting mercenaries?"
379: 0x0C87 [0x23] WAIT_FOR_DIALOG_INTERACTION
380: 0x0C88 [0x2B] Rahal (ID: 17731592/0x010E9008) [8384*]:
    → "Yes."
381: 0x0C8F [0x23] WAIT_FOR_DIALOG_INTERACTION
382: 0x0C90 [0x2B] Curilla (ID: 17731596/0x010E900C) [8385*]:
    → "Then it stands to reason that the Temple Knights should stand little chance of finding the prince."
383: 0x0C97 [0x23] WAIT_FOR_DIALOG_INTERACTION
384: 0x0C98 [0x45] LOAD_SCHEDULED_TASK: Load scheduler "w003" with entities [LocalPlayer, LocalPlayer], work=[87*, 0*]
385: 0x0CA9 [0x79] Curilla (ID: 17731596/0x010E900C) looks at Halver (ID: 17731591/0x010E9007) (Basic look)
386: 0x0CB3 [0x2B] Halver (ID: 17731591/0x010E9007) [8386*]:
    → "I seem to recall ordering you to take measures that would prevent this sort of thing from happening again. Am I mistaken?"
387: 0x0CBA [0x23] WAIT_FOR_DIALOG_INTERACTION
388: 0x0CBB [0x4A] Curilla (ID: 17731596/0x010E900C) looks at Halver (ID: 17731591/0x010E9007)
389: 0x0CC4 [0x2B] Curilla (ID: 17731596/0x010E900C) [8387*]:
    → "No, Monarlais Halver. I have been derelict in my duty."
390: 0x0CCB [0x23] WAIT_FOR_DIALOG_INTERACTION
391: 0x0CCC [0x2B] Halver (ID: 17731591/0x010E9007) [8388*]:
    → "It is good that you recognize your failings, but you shall be made to take responsibility for this situation."
392: 0x0CD3 [0x23] WAIT_FOR_DIALOG_INTERACTION
393: 0x0CD4 [0x2B] Curilla (ID: 17731596/0x010E900C) [8389*]:
    → "Yes, milord."
394: 0x0CDB [0x23] WAIT_FOR_DIALOG_INTERACTION
395: 0x0CDC [0x52] END_LOAD_SCHEDULER: End scheduler "w003" with entities [LocalPlayer, LocalPlayer], work=87*
396: 0x0CEB [0x45] LOAD_SCHEDULED_TASK: Load scheduler "w004" with entities [LocalPlayer, LocalPlayer], work=[87*, 0*]
397: 0x0CFC [0x2B] Curilla (ID: 17731596/0x010E900C) [8390*]:
    → "Forgive my directness, Monarlais Halver, but I feel I must ask."
398: 0x0D03 [0x23] WAIT_FOR_DIALOG_INTERACTION
399: 0x0D04 [0x2B] Curilla (ID: 17731596/0x010E900C) [8391*]:
    → "Why would Prince Trion travel to such a distant land? Does he feel so strongly about the Empire?"
400: 0x0D0B [0x23] WAIT_FOR_DIALOG_INTERACTION
401: 0x0D0C [0x52] END_LOAD_SCHEDULER: End scheduler "w004" with entities [LocalPlayer, LocalPlayer], work=87*
402: 0x0D1B [0x45] LOAD_SCHEDULED_TASK: Load scheduler "w005" with entities [LocalPlayer, LocalPlayer], work=[87*, 0*]
403: 0x0D2C [0x27] REQ_SET(priority=0x03, entity_id=Halver (ID: 17731591/0x010E9007), tag_num=0x06)
404: 0x0D33 [0x2B] Halver (ID: 17731591/0x010E9007) [8392*]:
    → "Prince Trion visited Al Zahbi once before, when the Emperor was yet hale and healthy."
405: 0x0D3A [0x23] WAIT_FOR_DIALOG_INTERACTION
406: 0x0D3B [0x2B] Halver (ID: 17731591/0x010E9007) [8393*]:
    → "The incident that occurred is most likely connected to all this..."
407: 0x0D42 [0x23] WAIT_FOR_DIALOG_INTERACTION
408: 0x0D43 [0x2B] Curilla (ID: 17731596/0x010E900C) [8394*]:
    → "?"
409: 0x0D4A [0x23] WAIT_FOR_DIALOG_INTERACTION
410: 0x0D4B [0x52] END_LOAD_SCHEDULER: End scheduler "w005" with entities [LocalPlayer, LocalPlayer], work=87*
411: 0x0D5A [0x45] LOAD_SCHEDULED_TASK: Load scheduler "w006" with entities [LocalPlayer, LocalPlayer], work=[87*, 0*]
412: 0x0D6B [0x27] REQ_SET(priority=0x03, entity_id=Halver (ID: 17731591/0x010E9007), tag_num=0x07)
413: 0x0D72 [0x2B] Halver (ID: 17731591/0x010E9007) [8395*]:
    → "However, now is not the time to be telling tales of the past."
414: 0x0D79 [0x23] WAIT_FOR_DIALOG_INTERACTION
415: 0x0D7A [0x2B] Halver (ID: 17731591/0x010E9007) [8396*]:
    → "This matter has grown beyond the realm of our judgment. We must bring this letter to Prince Pieuje immediately."
416: 0x0D81 [0x23] WAIT_FOR_DIALOG_INTERACTION
417: 0x0D82 [0x4E] SET_ENTITY_HIDE_FLAG: Show Pieuje (ID: 17731589/0x010E9005)
418: 0x0D88 [0x79] Pieuje (ID: 17731589/0x010E9005) looks at Curilla (ID: 17731596/0x010E900C) (Basic look)
419: 0x0D92 [0x29] REQ_SET_WAIT(priority=0x03, entity_id=Pieuje (ID: 17731589/0x010E9005), tag_num=0x03)
420: 0x0D99 [0x2A] GET_REQ_LEVEL(level=3, entity_id=Halver (ID: 17731591/0x010E9007))
421: 0x0D9F [0x4A] Halver (ID: 17731591/0x010E9007) looks at Pieuje (ID: 17731589/0x010E9005)
422: 0x0DA8 [0x1C] WAIT(20* ticks)
423: 0x0DAB [0x4A] LocalPlayer looks at Pieuje (ID: 17731589/0x010E9005)
424: 0x0DB4 [0x4A] Travialce (ID: 17731672/0x010E9058) looks at Pieuje (ID: 17731589/0x010E9005)
425: 0x0DBD [0x1C] WAIT(10* ticks)
426: 0x0DC0 [0x4A] Curilla (ID: 17731596/0x010E900C) looks at Pieuje (ID: 17731589/0x010E9005)
427: 0x0DC9 [0x4A] Rahal (ID: 17731592/0x010E9008) looks at Pieuje (ID: 17731589/0x010E9005)
428: 0x0DD2 [0x52] END_LOAD_SCHEDULER: End scheduler "w006" with entities [LocalPlayer, LocalPlayer], work=87*
429: 0x0DE1 [0x45] LOAD_SCHEDULED_TASK: Load scheduler "w007" with entities [LocalPlayer, LocalPlayer], work=[87*, 0*]
430: 0x0DF2 [0x27] REQ_SET(priority=0x03, entity_id=Pieuje (ID: 17731589/0x010E9005), tag_num=0x04)
431: 0x0DF9 [0x1C] WAIT(60* ticks)
432: 0x0DFC [0x2B] Halver (ID: 17731591/0x010E9007) [8397*]:
    → "Prince Pieuje!"
433: 0x0E03 [0x2A] GET_REQ_LEVEL(level=3, entity_id=Pieuje (ID: 17731589/0x010E9005))
434: 0x0E09 [0x23] WAIT_FOR_DIALOG_INTERACTION
435: 0x0E0A [0x52] END_LOAD_SCHEDULER: End scheduler "w007" with entities [LocalPlayer, LocalPlayer], work=87*
436: 0x0E19 [0x45] LOAD_SCHEDULED_TASK: Load scheduler "w00a" with entities [LocalPlayer, LocalPlayer], work=[87*, 0*]
437: 0x0E2A [0x2B] Pieuje (ID: 17731589/0x010E9005) [8398*]:
    → "What is all this commotion?"
438: 0x0E31 [0x79] Pieuje (ID: 17731589/0x010E9005) looks at Halver (ID: 17731591/0x010E9007) (Basic look)
439: 0x0E3B [0x23] WAIT_FOR_DIALOG_INTERACTION
440: 0x0E3C [0x1A] CALL_SUBROUTINE(address=0x14E9)
441: 0x0E3F [0x29] REQ_SET_WAIT(priority=0x03, entity_id=Pieuje (ID: 17731589/0x010E9005), tag_num=0x05)
442: 0x0E46 [0x29] REQ_SET_WAIT(priority=0x03, entity_id=Halver (ID: 17731591/0x010E9007), tag_num=0x0D)
443: 0x0E4D [0x4A] LocalPlayer looks at Pieuje (ID: 17731589/0x010E9005)
444: 0x0E56 [0x4A] Travialce (ID: 17731672/0x010E9058) looks at Pieuje (ID: 17731589/0x010E9005)
445: 0x0E5F [0x4A] Curilla (ID: 17731596/0x010E900C) looks at Pieuje (ID: 17731589/0x010E9005)
446: 0x0E68 [0x4A] Rahal (ID: 17731592/0x010E9008) looks at Pieuje (ID: 17731589/0x010E9005)
447: 0x0E71 [0x4A] Curilla (ID: 17731596/0x010E900C) looks at Pieuje (ID: 17731589/0x010E9005)
448: 0x0E7A [0x52] END_LOAD_SCHEDULER: End scheduler "w00a" with entities [LocalPlayer, LocalPlayer], work=87*
449: 0x0E89 [0x45] LOAD_SCHEDULED_TASK: Load scheduler "w008" with entities [LocalPlayer, LocalPlayer], work=[87*, 0*]
450: 0x0E9A [0x1C] WAIT(60* ticks)
451: 0x0E9D [0x1A] CALL_SUBROUTINE(address=0x14C8)
452: 0x0EA0 [0x55] WAIT_LOAD_SCHEDULER: Wait for scheduler "w008" with entities [LocalPlayer, LocalPlayer], work=87*
453: 0x0EAF [0x2B] Pieuje (ID: 17731589/0x010E9005) [8399*]:
    → "How like Trion to rush off without so much as a word... He has earned a reputation for action before thought."
454: 0x0EB6 [0x23] WAIT_FOR_DIALOG_INTERACTION
455: 0x0EB7 [0x45] LOAD_SCHEDULED_TASK: Load scheduler "w009" with entities [LocalPlayer, LocalPlayer], work=[87*, 0*]
456: 0x0EC8 [0x4A] Halver (ID: 17731591/0x010E9007) looks at Pieuje (ID: 17731589/0x010E9005)
457: 0x0ED1 [0x2B] Halver (ID: 17731591/0x010E9007) [8400*]:
    → "Your Highness. This is the letter we believe to have been penned by your brother."
458: 0x0ED8 [0x1C] WAIT(20* ticks)
459: 0x0EDB [0x79] Pieuje (ID: 17731589/0x010E9005) looks at Halver (ID: 17731591/0x010E9007) (Basic look)
460: 0x0EE5 [0x23] WAIT_FOR_DIALOG_INTERACTION
461: 0x0EE6 [0x6F] WAIT_FRAME_DELAY: Yield until WaitTime reaches zero
462: 0x0EE7 [0x76] CHECK_ENTITY_RENDER_FLAGS: Wait until Halver (ID: 17731591/0x010E9007) Render.Flags0 and Render.Flags3 conditions are met
463: 0x0EEC [0x2B] Halver (ID: 17731591/0x010E9007) [8401*]:
    → "Travialce may have provided enough keys to unlock this rambling script..."
464: 0x0EF3 [0x23] WAIT_FOR_DIALOG_INTERACTION
465: 0x0EF4 [0x27] REQ_SET(priority=0x03, entity_id=Halver (ID: 17731591/0x010E9007), tag_num=0x03)
466: 0x0EFB [0x1C] WAIT(90* ticks)
467: 0x0EFE [0x52] END_LOAD_SCHEDULER: End scheduler "w009" with entities [LocalPlayer, LocalPlayer], work=87*
468: 0x0F0D [0x45] LOAD_SCHEDULED_TASK: Load scheduler "v000" with entities [EventEntity, EventEntity], work=[87*, 0*]
469: 0x0F1E [0x2A] GET_REQ_LEVEL(level=3, entity_id=Halver (ID: 17731591/0x010E9007))
470: 0x0F24 [0x2B] Halver (ID: 17731591/0x010E9007) [8402*]:
    → "This may require some time..."
471: 0x0F2B [0x23] WAIT_FOR_DIALOG_INTERACTION
472: 0x0F2C [0x2B] Pieuje (ID: 17731589/0x010E9005) [8403*]:
    → "Hmph. There is no need to convene a meeting of linguists, Halver. Let me see this letter."
473: 0x0F33 [0x23] WAIT_FOR_DIALOG_INTERACTION
474: 0x0F34 [0x7B] Pieuje (ID: 17731589/0x010E9005) stops talking
475: 0x0F39 [0x4B] UPDATE_ENTITY_YAW(entity=Pieuje (ID: 17731589/0x010E9005), yaw=5.6°*)
476: 0x0F40 [0x1C] WAIT(15* ticks)
477: 0x0F43 [0x45] LOAD_SCHEDULED_TASK: Load scheduler "v001" with entities [EventEntity, EventEntity], work=[87*, 0*]
478: 0x0F54 [0x6F] WAIT_FRAME_DELAY: Yield until WaitTime reaches zero
479: 0x0F55 [0x76] CHECK_ENTITY_RENDER_FLAGS: Wait until Pieuje (ID: 17731589/0x010E9005) Render.Flags0 and Render.Flags3 conditions are met
480: 0x0F5A [0x27] REQ_SET(priority=0x03, entity_id=Pieuje (ID: 17731589/0x010E9005), tag_num=0x2D)
481: 0x0F61 [0x1C] WAIT(30* ticks)
482: 0x0F64 [0x55] WAIT_LOAD_SCHEDULER: Wait for scheduler "v001" with entities [EventEntity, EventEntity], work=87*
483: 0x0F73 [0x5D] SET_MUSIC_VOLUME(volume=0*, fade_time=240*)
484: 0x0F78 [0x2B] Pieuje (ID: 17731589/0x010E9005) [8404*]:
    → "This time, my brother's actions may have a positive side..."
485: 0x0F7F [0x23] WAIT_FOR_DIALOG_INTERACTION
486: 0x0F80 [0x27] REQ_SET(priority=0x03, entity_id=Pieuje (ID: 17731589/0x010E9005), tag_num=0x2E)
487: 0x0F87 [0x2B] Pieuje (ID: 17731589/0x010E9005) [8405*]:
    → "He writes on the current state of the Empire."
488: 0x0F8E [0x23] WAIT_FOR_DIALOG_INTERACTION
489: 0x0F8F [0x5C] MUSIC_CONTROL: Set Idle (Day) music to song 185*
490: 0x0F93 [0x5C] MUSIC_CONTROL: Set Idle (Night) music to song 185*
491: 0x0F97 [0x9A] WAIT_MUSIC_SERVER()
492: 0x0F98 [0x45] LOAD_SCHEDULED_TASK: Load scheduler "bash" with entities [EventEntity, EventEntity], work=[108*, 0*]
493: 0x0FA9 [0x45] LOAD_SCHEDULED_TASK: Load scheduler "blon" with entities [EventEntity, EventEntity], work=[200*, 0*]
494: 0x0FBA [0x45] LOAD_SCHEDULED_TASK: Load scheduler "v002" with entities [EventEntity, EventEntity], work=[87*, 0*]
495: 0x0FCB [0x1C] WAIT(30* ticks)
496: 0x0FCE [0x45] LOAD_SCHEDULED_TASK: Load scheduler "blof" with entities [EventEntity, EventEntity], work=[200*, 0*]
497: 0x0FDF [0x2B] Pieuje (ID: 17731589/0x010E9005) [8406*]:
    → "We must turn our attention to the Near East, where a battle on the scale of the Crystal War is brewing..."
498: 0x0FE6 [0x23] WAIT_FOR_DIALOG_INTERACTION
499: 0x0FE7 [0x55] WAIT_LOAD_SCHEDULER: Wait for scheduler "v002" with entities [EventEntity, EventEntity], work=87*
500: 0x0FF6 [0x45] LOAD_SCHEDULED_TASK: Load scheduler "v003" with entities [EventEntity, EventEntity], work=[87*, 0*]
501: 0x1007 [0x2B] Rahal (ID: 17731592/0x010E9008) [8407*]:
    → "What on Vana'diel is happening over there...?"
502: 0x100E [0x1C] WAIT(15* ticks)
503: 0x1011 [0x27] REQ_SET(priority=0x03, entity_id=Rahal (ID: 17731592/0x010E9008), tag_num=0x07)
504: 0x1018 [0x23] WAIT_FOR_DIALOG_INTERACTION
505: 0x1019 [0x52] END_LOAD_SCHEDULER: End scheduler "v003" with entities [EventEntity, EventEntity], work=87*
506: 0x1028 [0x45] LOAD_SCHEDULED_TASK: Load scheduler "v004" with entities [EventEntity, EventEntity], work=[87*, 0*]
507: 0x1039 [0x79] Pieuje (ID: 17731589/0x010E9005) looks at Rahal (ID: 17731592/0x010E9008) (Basic look)
508: 0x1043 [0x2B] Pieuje (ID: 17731589/0x010E9005) [8408*]:
    → "There is an overwhelming reason for the beastman attacks on Al Zahbi. I will read to you what my brother has written, word for word."
509: 0x104A [0x23] WAIT_FOR_DIALOG_INTERACTION
510: 0x104B [0x7B] Pieuje (ID: 17731589/0x010E9005) stops talking
511: 0x1050 [0x1C] WAIT(60* ticks)
512: 0x1053 [0x52] END_LOAD_SCHEDULER: End scheduler "v004" with entities [EventEntity, EventEntity], work=87*
513: 0x1062 [0x45] LOAD_SCHEDULED_TASK: Load scheduler "v005" with entities [EventEntity, EventEntity], work=[87*, 0*]
514: 0x1073 [0x45] LOAD_SCHEDULED_TASK: Load scheduler "ovl1" with entities [LocalPlayer, LocalPlayer], work=[200*, 0*]
515: 0x1084 [0x2B] Pieuje (ID: 17731589/0x010E9005) [8409*]:
    → ""At the center of this conflict is a treasure known as the Astral Candescence."
516: 0x108B [0x23] WAIT_FOR_DIALOG_INTERACTION
517: 0x108C [0x52] END_LOAD_SCHEDULER: End scheduler "v005" with entities [EventEntity, EventEntity], work=87*
518: 0x109B [0x45] LOAD_SCHEDULED_TASK: Load scheduler "v006" with entities [EventEntity, EventEntity], work=[87*, 0*]
519: 0x10AC [0x45] LOAD_SCHEDULED_TASK: Load scheduler "ovl1" with entities [LocalPlayer, LocalPlayer], work=[200*, 0*]
520: 0x10BD [0x2B] Pieuje (ID: 17731589/0x010E9005) [8410*]:
    → ""This object emits an enchanting melody, unheard by mortal ears."
521: 0x10C4 [0x23] WAIT_FOR_DIALOG_INTERACTION
522: 0x10C5 [0x52] END_LOAD_SCHEDULER: End scheduler "v006" with entities [EventEntity, EventEntity], work=87*
523: 0x10D4 [0x45] LOAD_SCHEDULED_TASK: Load scheduler "v007" with entities [EventEntity, EventEntity], work=[87*, 0*]
524: 0x10E5 [0x45] LOAD_SCHEDULED_TASK: Load scheduler "ovl1" with entities [LocalPlayer, LocalPlayer], work=[200*, 0*]
525: 0x10F6 [0x2B] Pieuje (ID: 17731589/0x010E9005) [8411*]:
    → ""The melody envelops and fills those nearby with a boundless energy, be they person or beastman."
526: 0x10FD [0x23] WAIT_FOR_DIALOG_INTERACTION
527: 0x10FE [0x52] END_LOAD_SCHEDULER: End scheduler "v007" with entities [EventEntity, EventEntity], work=87*
528: 0x110D [0x45] LOAD_SCHEDULED_TASK: Load scheduler "v008" with entities [EventEntity, EventEntity], work=[87*, 0*]
529: 0x111E [0x45] LOAD_SCHEDULED_TASK: Load scheduler "ovl1" with entities [LocalPlayer, LocalPlayer], work=[200*, 0*]
530: 0x112F [0x2B] Pieuje (ID: 17731589/0x010E9005) [8412*]:
    → ""The citizens of Al Zahbi call this melody the Astral Wind.""
531: 0x1136 [0x23] WAIT_FOR_DIALOG_INTERACTION
532: 0x1137 [0x52] END_LOAD_SCHEDULER: End scheduler "v008" with entities [EventEntity, EventEntity], work=87*
533: 0x1146 [0x45] LOAD_SCHEDULED_TASK: Load scheduler "v009" with entities [EventEntity, EventEntity], work=[87*, 0*]
534: 0x1157 [0x2B] Halver (ID: 17731591/0x010E9007) [8413*]:
    → "I believe I have come to understand Prince Trion's apprehensions."
535: 0x115E [0x23] WAIT_FOR_DIALOG_INTERACTION
536: 0x115F [0x52] END_LOAD_SCHEDULER: End scheduler "v009" with entities [EventEntity, EventEntity], work=87*
537: 0x116E [0x45] LOAD_SCHEDULED_TASK: Load scheduler "t000" with entities [EventEntity, EventEntity], work=[87*, 0*]
538: 0x117F [0x2B] Rahal (ID: 17731592/0x010E9008) [8414*]:
    → "You are not alone in that feeling."
539: 0x1186 [0x1C] WAIT(10* ticks)
540: 0x1189 [0x79] Pieuje (ID: 17731589/0x010E9005) looks at Rahal (ID: 17731592/0x010E9008) (Basic look)
541: 0x1193 [0x23] WAIT_FOR_DIALOG_INTERACTION
542: 0x1194 [0x2B] Pieuje (ID: 17731589/0x010E9005) [8415*]:
    → "Then we are in agreement."
543: 0x119B [0x23] WAIT_FOR_DIALOG_INTERACTION
544: 0x119C [0x4A] Pieuje (ID: 17731589/0x010E9005) looks at Halver (ID: 17731591/0x010E9007)
545: 0x11A5 [0x2B] Pieuje (ID: 17731589/0x010E9005) [8416*]:
    → "Halver, have messengers sent to the other nations immediately."
546: 0x11AC [0x23] WAIT_FOR_DIALOG_INTERACTION
547: 0x11AD [0x2B] Pieuje (ID: 17731589/0x010E9005) [8417*]:
    → "We must convene an emergency meeting of the nations."
548: 0x11B4 [0x23] WAIT_FOR_DIALOG_INTERACTION
549: 0x11B5 [0x52] END_LOAD_SCHEDULER: End scheduler "t000" with entities [EventEntity, EventEntity], work=87*
550: 0x11C4 [0x45] LOAD_SCHEDULED_TASK: Load scheduler "t001" with entities [EventEntity, EventEntity], work=[87*, 0*]
551: 0x11D5 [0x2B] Halver (ID: 17731591/0x010E9007) [8418*]:
    → "Understood, Your Highness. And the location?"
552: 0x11DC [0x23] WAIT_FOR_DIALOG_INTERACTION
553: 0x11DD [0x2B] Pieuje (ID: 17731589/0x010E9005) [8419*]:
    → "The location... Send a request to Jeuno to secure a meeting room in the Grand Duke Palace."
554: 0x11E4 [0x23] WAIT_FOR_DIALOG_INTERACTION
555: 0x11E5 [0x2B] Halver (ID: 17731591/0x010E9007) [8420*]:
    → "At once."
556: 0x11EC [0x23] WAIT_FOR_DIALOG_INTERACTION
557: 0x11ED [0x27] REQ_SET(priority=0x03, entity_id=Curilla (ID: 17731596/0x010E900C), tag_num=0x04)
558: 0x11F4 [0x1C] WAIT(10* ticks)
559: 0x11F7 [0x52] END_LOAD_SCHEDULER: End scheduler "t001" with entities [EventEntity, EventEntity], work=87*
560: 0x1206 [0x45] LOAD_SCHEDULED_TASK: Load scheduler "t002" with entities [EventEntity, EventEntity], work=[87*, 0*]
561: 0x1217 [0x2A] GET_REQ_LEVEL(level=3, entity_id=Curilla (ID: 17731596/0x010E900C))
562: 0x121D [0x79] Pieuje (ID: 17731589/0x010E9005) looks at Curilla (ID: 17731596/0x010E900C) (Basic look)
563: 0x1227 [0x2B] Curilla (ID: 17731596/0x010E900C) [8421*]:
    → "Prince Pieuje. What shall be done about Prince Trion's frequent excursions outside of the Kingdom?"
564: 0x122E [0x23] WAIT_FOR_DIALOG_INTERACTION
565: 0x122F [0x2B] Curilla (ID: 17731596/0x010E900C) [8422*]:
    → "I do not wish to be rude, but we are well aware of how the prince reacts to attempts to dissuade him from his course..."
566: 0x1236 [0x23] WAIT_FOR_DIALOG_INTERACTION
567: 0x1237 [0x4A] Pieuje (ID: 17731589/0x010E9005) looks at Curilla (ID: 17731596/0x010E900C)
568: 0x1240 [0x1C] WAIT(10* ticks)
569: 0x1243 [0x52] END_LOAD_SCHEDULER: End scheduler "t002" with entities [EventEntity, EventEntity], work=87*
570: 0x1252 [0x45] LOAD_SCHEDULED_TASK: Load scheduler "t004" with entities [EventEntity, EventEntity], work=[87*, 0*]
571: 0x1263 [0x6F] WAIT_FRAME_DELAY: Yield until WaitTime reaches zero
572: 0x1264 [0x76] CHECK_ENTITY_RENDER_FLAGS: Wait until Pieuje (ID: 17731589/0x010E9005) Render.Flags0 and Render.Flags3 conditions are met
573: 0x1269 [0x2B] Pieuje (ID: 17731589/0x010E9005) [8423*]:
    → "That is true."
574: 0x1270 [0x23] WAIT_FOR_DIALOG_INTERACTION
575: 0x1271 [0x2B] Pieuje (ID: 17731589/0x010E9005) [8424*]:
    → "Having the heir to the throne playing at being a mercenary will not improve San d'Oria's image in the eyes of the world."
576: 0x1278 [0x1C] WAIT(60* ticks)
577: 0x127B [0x23] WAIT_FOR_DIALOG_INTERACTION
578: 0x127C [0x2B] Pieuje (ID: 17731589/0x010E9005) [8425*]:
    → "But the solution is simple. I shall write my brother a letter."
579: 0x1283 [0x23] WAIT_FOR_DIALOG_INTERACTION
580: 0x1284 [0x52] END_LOAD_SCHEDULER: End scheduler "t004" with entities [EventEntity, EventEntity], work=87*
581: 0x1293 [0x45] LOAD_SCHEDULED_TASK: Load scheduler "t003" with entities [EventEntity, EventEntity], work=[87*, 0*]
582: 0x12A4 [0x2B] Curilla (ID: 17731596/0x010E900C) [8426*]:
    → "A letter, Your Highness?"
583: 0x12AB [0x23] WAIT_FOR_DIALOG_INTERACTION
584: 0x12AC [0x2B] Pieuje (ID: 17731589/0x010E9005) [8427*]:
    → "Yes. I have an idea."
585: 0x12B3 [0x23] WAIT_FOR_DIALOG_INTERACTION
586: 0x12B4 [0x2B] Pieuje (ID: 17731589/0x010E9005) [8428*]:
    → "But I shall need a volunteer to deliver it safely to Al Zahbi..."
587: 0x12BB [0x79] Pieuje (ID: 17731589/0x010E9005) looks at Halver (ID: 17731591/0x010E9007) (Basic look)
588: 0x12C5 [0x1C] WAIT(60* ticks)
589: 0x12C8 [0x79] Pieuje (ID: 17731589/0x010E9005) looks at Rahal (ID: 17731592/0x010E9008) (Basic look)
590: 0x12D2 [0x23] WAIT_FOR_DIALOG_INTERACTION
591: 0x12D3 [0x79] Rahal (ID: 17731592/0x010E9008) looks at Travialce (ID: 17731672/0x010E9058) (Basic look)
592: 0x12DD [0x4B] UPDATE_ENTITY_YAW(entity=Rahal (ID: 17731592/0x010E9008), yaw=16.2°*)
593: 0x12E4 [0x2B] Rahal (ID: 17731592/0x010E9008) [8429*]:
    → "I suggest Travialce. He is well versed in the geography of the region."
594: 0x12EB [0x23] WAIT_FOR_DIALOG_INTERACTION
595: 0x12EC [0x4A] Pieuje (ID: 17731589/0x010E9005) looks at Travialce (ID: 17731672/0x010E9058)
596: 0x12F5 [0x1C] WAIT(10* ticks)
597: 0x12F8 [0x52] END_LOAD_SCHEDULER: End scheduler "t003" with entities [EventEntity, EventEntity], work=87*
598: 0x1307 [0x45] LOAD_SCHEDULED_TASK: Load scheduler "t005" with entities [EventEntity, EventEntity], work=[87*, 0*]
599: 0x1318 [0x6F] WAIT_FRAME_DELAY: Yield until WaitTime reaches zero
600: 0x1319 [0x76] CHECK_ENTITY_RENDER_FLAGS: Wait until Pieuje (ID: 17731589/0x010E9005) Render.Flags0 and Render.Flags3 conditions are met
601: 0x131E [0x2B] Pieuje (ID: 17731589/0x010E9005) [8430*]:
    → "Excellent. Let it be done."
602: 0x1325 [0x23] WAIT_FOR_DIALOG_INTERACTION
603: 0x1326 [0x27] REQ_SET(priority=0x03, entity_id=Travialce (ID: 17731672/0x010E9058), tag_num=0x04)
604: 0x132D [0x2B] Travialce (ID: 17731672/0x010E9058) [8431*]:
    → "I will not fail you, Your Highness."
605: 0x1334 [0x23] WAIT_FOR_DIALOG_INTERACTION
606: 0x1335 [0x2A] GET_REQ_LEVEL(level=3, entity_id=Travialce (ID: 17731672/0x010E9058))
607: 0x133B [0x27] REQ_SET(priority=0x03, entity_id=Rahal (ID: 17731592/0x010E9008), tag_num=0x08)
608: 0x1342 [0x1C] WAIT(15* ticks)
609: 0x1345 [0x52] END_LOAD_SCHEDULER: End scheduler "t005" with entities [EventEntity, EventEntity], work=87*
610: 0x1354 [0x45] LOAD_SCHEDULED_TASK: Load scheduler "t006" with entities [EventEntity, EventEntity], work=[87*, 0*]
611: 0x1365 [0x27] REQ_SET(priority=0x03, entity_id=Travialce (ID: 17731672/0x010E9058), tag_num=0x06)
612: 0x136C [0x1C] WAIT(60* ticks)
613: 0x136F [0x27] REQ_SET(priority=0x03, entity_id=Curilla (ID: 17731596/0x010E900C), tag_num=0x05)
614: 0x1376 [0x1C] WAIT(60* ticks)
615: 0x1379 [0x55] WAIT_LOAD_SCHEDULER: Wait for scheduler "t006" with entities [EventEntity, EventEntity], work=87*
616: 0x1388 [0x2B] Halver (ID: 17731591/0x010E9007) [8432*]:
    → "Your Highness, this is <Player>. [He/She] brought Prince Trion's letter back from the Near East."
617: 0x138F [0x23] WAIT_FOR_DIALOG_INTERACTION
618: 0x1390 [0x4A] Pieuje (ID: 17731589/0x010E9005) looks at Halver (ID: 17731591/0x010E9007)
619: 0x1399 [0x1C] WAIT(10* ticks)
620: 0x139C [0x4E] SET_ENTITY_HIDE_FLAG: Hide Curilla (ID: 17731596/0x010E900C)
621: 0x13A2 [0x1C] WAIT(1* ticks)
622: 0x13A5 [0x45] LOAD_SCHEDULED_TASK: Load scheduler "t007" with entities [EventEntity, EventEntity], work=[87*, 0*]
623: 0x13B6 [0x6F] WAIT_FRAME_DELAY: Yield until WaitTime reaches zero
624: 0x13B7 [0x76] CHECK_ENTITY_RENDER_FLAGS: Wait until Pieuje (ID: 17731589/0x010E9005) Render.Flags0 and Render.Flags3 conditions are met
625: 0x13BC [0x2B] Pieuje (ID: 17731589/0x010E9005) [8433*]:
    → "Is that so? I do not approve of my brother's rash actions, but he does have an eye for trustworthy messengers."
626: 0x13C3 [0x23] WAIT_FOR_DIALOG_INTERACTION
627: 0x13C4 [0x2B] Pieuje (ID: 17731589/0x010E9005) [8434*]:
