# 17731597 - Curilla

## Common Data

| Field            | Value                         |
|------------------|-------------------------------|
| Zone             | Chateau d'Oraguille (ID: 233) |
| Block Size       | 200 bytes                     |
| Total Events     | 6                             |
| References Count | 16                            |

## List of Events

| Event ID                 | Entrypoint   |   Size |   Instructions |
|--------------------------|--------------|--------|----------------|
| [65535](#event-65535)    | 0x0000       |      1 |              1 |
| [65535.1](#event-655351) | 0x0001       |     18 |              4 |
| [65535.2](#event-655352) | 0x0013       |     22 |              6 |
| [65535.3](#event-655353) | 0x0029       |     34 |              8 |
| [65535.4](#event-655354) | 0x004B       |     14 |              4 |
| [65535.5](#event-655355) | 0x0059       |      6 |              2 |

## DAT References (imed_data)

|   Index | Hex Value   |   Dec Value |
|---------|-------------|-------------|
|       0 | 0x1AC8      |        6856 |
|       1 | 0xFFFFF6D9  |  4294964953 |
|       2 | 0x0000      |           0 |
|       3 | 0x08C8      |        2248 |
|       4 | 0x000D      |          13 |
|       5 | 0x0A96      |        2710 |
|       6 | 0xFFFFFC3C  |  4294966332 |
|       7 | 0x003C      |          60 |
|       8 | 0x2A51      |       10833 |
|       9 | 0xFFFFF0A8  |  4294963368 |
|      10 | 0x2B0D      |       11021 |
|      11 | 0xFFFFF0D5  |  4294963413 |
|      12 | 0x494B      |       18763 |
|      13 | 0xFFFFF07A  |  4294963322 |
|      14 | 0x53A1      |       21409 |
|      15 | 0xFFFFF138  |  4294963512 |

## Events

### Event 65535

#### Metadata

| Field        | Value   |
|--------------|---------|
| Entrypoint   | 0x0000  |
| Data Size    | 1 bytes |
| Instructions | 1       |

```
      00 01 02 03 04 05 06 07  08 09 0A 0B 0C 0D 0E 0F
      -- -- -- -- -- -- -- --  -- -- -- -- -- -- -- --
0000: 00                                                .               
```

#### Opcodes

```
  0: 0x0000 [0x00] END_REQSTACK()
```

### Event 65535.1

#### Metadata

| Field        | Value    |
|--------------|----------|
| Entrypoint   | 0x0001   |
| Data Size    | 18 bytes |
| Instructions | 4        |

```
      00 01 02 03 04 05 06 07  08 09 0A 0B 0C 0D 0E 0F
      -- -- -- -- -- -- -- --  -- -- -- -- -- -- -- --
0000:    2F 00 0D 90 0E 01 37  00 80 01 80 02 80 03 80   /.....7........
0010: 22 00 00                                          "..             
```

#### Opcodes

```
  0: 0x0001 [0x2F] Curilla (ID: 17731597/0x010E900D)->Render.Flags0 &= ~0x80000 // Bit 19
  1: 0x0007 [0x37] UPDATE_EVENT_POSITION_AND_DIR: x=6.856*, z=-2.343*, y=0.000*, direction=197.6°*
  2: 0x0010 [0x22] ENTITY_HIDE_FLAG(enabled=0x00)
  3: 0x0012 [0x00] END_REQSTACK()
```

### Event 65535.2

#### Metadata

| Field        | Value    |
|--------------|----------|
| Entrypoint   | 0x0013   |
| Data Size    | 22 bytes |
| Instructions | 6        |

```
      00 01 02 03 04 05 06 07  08 09 0A 0B 0C 0D 0E 0F
      -- -- -- -- -- -- -- --  -- -- -- -- -- -- -- --
0010:          32 04 80 1F 00  05 80 06 80 02 80 1F 01     2............
0020: 1C 07 80 1E 04 90 0E 01  00                       .........       
```

#### Opcodes

```
  0: 0x0013 [0x32] ExtData[1]->MainSpeed = 13* * 0.1
  1: 0x0016 [0x1F] MOVE_ENTITY: EventEntity moves to X=2.710*, Z=-0.964*, Y=0.000*
  2: 0x001E [0x1F] MOVE_ENTITY: Update entity position (mode=1)
  3: 0x0020 [0x1C] WAIT(60* ticks)
  4: 0x0023 [0x1E] EventEntity looks at Trion (ID: 17731588/0x010E9004) and starts talking
  5: 0x0028 [0x00] END_REQSTACK()
```

### Event 65535.3

#### Metadata

| Field        | Value    |
|--------------|----------|
| Entrypoint   | 0x0029   |
| Data Size    | 34 bytes |
| Instructions | 8        |

```
      00 01 02 03 04 05 06 07  08 09 0A 0B 0C 0D 0E 0F
      -- -- -- -- -- -- -- --  -- -- -- -- -- -- -- --
0020:                             32 04 80 1F 00 08 80           2......
0030: 09 80 02 80 1F 01 1F 00  0A 80 0B 80 02 80 1F 01  ................
0040: 1F 00 0C 80 0D 80 02 80  1F 01 00                 ...........     
```

#### Opcodes

```
  0: 0x0029 [0x32] ExtData[1]->MainSpeed = 13* * 0.1
  1: 0x002C [0x1F] MOVE_ENTITY: EventEntity moves to X=10.833*, Z=-3.928*, Y=0.000*
  2: 0x0034 [0x1F] MOVE_ENTITY: Update entity position (mode=1)
  3: 0x0036 [0x1F] MOVE_ENTITY: EventEntity moves to X=11.021*, Z=-3.883*, Y=0.000*
  4: 0x003E [0x1F] MOVE_ENTITY: Update entity position (mode=1)
  5: 0x0040 [0x1F] MOVE_ENTITY: EventEntity moves to X=18.763*, Z=-3.974*, Y=0.000*
  6: 0x0048 [0x1F] MOVE_ENTITY: Update entity position (mode=1)
  7: 0x004A [0x00] END_REQSTACK()
```

### Event 65535.4

#### Metadata

| Field        | Value    |
|--------------|----------|
| Entrypoint   | 0x004B   |
| Data Size    | 14 bytes |
| Instructions | 4        |

```
      00 01 02 03 04 05 06 07  08 09 0A 0B 0C 0D 0E 0F
      -- -- -- -- -- -- -- --  -- -- -- -- -- -- -- --
0040:                                   32 04 80 1F 00             2....
0050: 0E 80 0F 80 02 80 1F 01  00                       .........       
```

#### Opcodes

```
  0: 0x004B [0x32] ExtData[1]->MainSpeed = 13* * 0.1
  1: 0x004E [0x1F] MOVE_ENTITY: EventEntity moves to X=21.409*, Z=-3.784*, Y=0.000*
  2: 0x0056 [0x1F] MOVE_ENTITY: Update entity position (mode=1)
  3: 0x0058 [0x00] END_REQSTACK()
```

### Event 65535.5

#### Metadata

| Field        | Value   |
|--------------|---------|
| Entrypoint   | 0x0059  |
| Data Size    | 6 bytes |
| Instructions | 2       |

```
      00 01 02 03 04 05 06 07  08 09 0A 0B 0C 0D 0E 0F
      -- -- -- -- -- -- -- --  -- -- -- -- -- -- -- --
0050:                             5E 69 64 6C 30 00              ^idl0. 
```

#### Opcodes

```
  0: 0x0059 [0x5E] EventEntity goes idle (kills current action) (animation: "idl0")
  1: 0x005E [0x00] END_REQSTACK()
```
