# 17731589 - Pieuje

## Common Data

| Field            | Value                         |
|------------------|-------------------------------|
| Zone             | Chateau d'Oraguille (ID: 233) |
| Block Size       | 3316 bytes                    |
| Total Events     | 73                            |
| References Count | 206                           |

## List of Events

| Event ID                   | Entrypoint   |   Size |   Instructions |
|----------------------------|--------------|--------|----------------|
| [65535](#event-65535)      | 0x0000       |      1 |              1 |
| [563](#event-563)          | 0x0001       |      1 |              1 |
| [564](#event-564)          | 0x0002       |      1 |              1 |
| [65535.1](#event-655351)   | 0x0003       |     10 |              2 |
| [65535.2](#event-655352)   | 0x000D       |     22 |              6 |
| [65535.3](#event-655353)   | 0x0023       |     15 |              3 |
| [65535.4](#event-655354)   | 0x0032       |     86 |             17 |
| [65](#event-65)            | 0x0088       |     16 |              3 |
| [65535.5](#event-655355)   | 0x0098       |     19 |              5 |
| [65535.6](#event-655356)   | 0x00AB       |   1052 |            276 |
| [66](#event-66)            | 0x04C7       |     38 |              6 |
| [65535.7](#event-655357)   | 0x04ED       |     15 |              5 |
| [65535.8](#event-655358)   | 0x04FC       |     23 |              5 |
| [65535.9](#event-655359)   | 0x0513       |     14 |              4 |
| [65535.10](#event-6553510) | 0x0521       |     24 |              6 |
| [48](#event-48)            | 0x0539       |     12 |              3 |
| [65535.11](#event-6553511) | 0x0545       |     15 |              5 |
| [65535.12](#event-6553512) | 0x0554       |     33 |              6 |
| [10](#event-10)            | 0x0575       |     12 |              3 |
| [9](#event-9)              | 0x0581       |      1 |              1 |
| [65535.13](#event-6553513) | 0x0582       |     10 |              2 |
| [65535.14](#event-6553514) | 0x058C       |     20 |              6 |
| [32](#event-32)            | 0x05A0       |     10 |              2 |
| [76](#event-76)            | 0x05AA       |     12 |              3 |
| [8](#event-8)              | 0x05B6       |     20 |              3 |
| [65535.15](#event-6553515) | 0x05CA       |     12 |              3 |
| [65535.16](#event-6553516) | 0x05D6       |     14 |              3 |
| [100](#event-100)          | 0x05E4       |     10 |              2 |
| [527](#event-527)          | 0x05EE       |      2 |              2 |
| [75](#event-75)            | 0x05F0       |     10 |              2 |
| [74](#event-74)            | 0x05FA       |     10 |              2 |
| [65535.17](#event-6553517) | 0x0604       |      9 |              3 |
| [65535.18](#event-6553518) | 0x060D       |      6 |              2 |
| [83](#event-83)            | 0x0613       |     27 |              5 |
| [65535.19](#event-6553519) | 0x062E       |     24 |              6 |
| [65535.20](#event-6553520) | 0x0646       |     10 |              2 |
| [65535.21](#event-6553521) | 0x0650       |     15 |              5 |
| [65535.22](#event-6553522) | 0x065F       |     10 |              2 |
| [61](#event-61)            | 0x0669       |     12 |              3 |
| [21](#event-21)            | 0x0675       |     12 |              3 |
| [5](#event-5)              | 0x0681       |     12 |              3 |
| [73](#event-73)            | 0x068D       |     12 |              3 |
| [65535.23](#event-6553523) | 0x0699       |      7 |              3 |
| [65535.24](#event-6553524) | 0x06A0       |     19 |              3 |
| [65535.25](#event-6553525) | 0x06B3       |     29 |              3 |
| [65535.26](#event-6553526) | 0x06D0       |     19 |              3 |
| [65535.27](#event-6553527) | 0x06E3       |     29 |              3 |
| [65535.28](#event-6553528) | 0x0700       |     19 |              3 |
| [65535.29](#event-6553529) | 0x0713       |     29 |              3 |
| [551](#event-551)          | 0x0730       |     10 |              2 |
| [552](#event-552)          | 0x073A       |     10 |              2 |
| [65535.30](#event-6553530) | 0x0744       |     23 |              5 |
| [567](#event-567)          | 0x075B       |      1 |              1 |
| [568](#event-568)          | 0x075C       |      1 |              1 |
| [597](#event-597)          | 0x075D       |      7 |              2 |
| [65535.31](#event-6553531) | 0x0764       |     15 |              5 |
| [65535.32](#event-6553532) | 0x0773       |     15 |              5 |
| [65535.33](#event-6553533) | 0x0782       |     44 |             10 |
| [65535.34](#event-6553534) | 0x07AE       |     16 |              2 |
| [65535.35](#event-6553535) | 0x07BE       |      4 |              2 |
| [65535.36](#event-6553536) | 0x07C2       |     16 |              2 |
| [65535.37](#event-6553537) | 0x07D2       |     14 |              2 |
| [65535.38](#event-6553538) | 0x07E0       |     16 |              2 |
| [65535.39](#event-6553539) | 0x07F0       |     14 |              2 |
| [65535.40](#event-6553540) | 0x07FE       |     16 |              2 |
| [65535.41](#event-6553541) | 0x080E       |     14 |              2 |
| [598](#event-598)          | 0x081C       |      7 |              2 |
| [65535.42](#event-6553542) | 0x0823       |     15 |              5 |
| [65535.43](#event-6553543) | 0x0832       |     15 |              5 |
| [65535.44](#event-6553544) | 0x0841       |     22 |              8 |
| [65535.45](#event-6553545) | 0x0857       |     27 |              8 |
| [603](#event-603)          | 0x0872       |      7 |              2 |
| [65535.46](#event-6553546) | 0x0879       |     15 |              5 |

## DAT References (imed_data)

|   Index | Hex Value   |   Dec Value |
|---------|-------------|-------------|
|       0 | 0xFFFFE932  |  4294961458 |
|       1 | 0xFFFFF5AE  |  4294964654 |
|       2 | 0x0000      |           0 |
|       3 | 0x0F19      |        3865 |
|       4 | 0x03E8      |        1000 |
|       5 | 0x000D      |          13 |
|       6 | 0x0E38      |        3640 |
|       7 | 0x0400      |        1024 |
|       8 | 0xFFFFE1A9  |  4294959529 |
|       9 | 0xFFFFF79F  |  4294965151 |
|      10 | 0x00B4      |         180 |
|      11 | 0x15EC      |        5612 |
|      12 | 0xABE2      |       44002 |
|      13 | 0xFFFFF449  |  4294964297 |
|      14 | 0x0653      |        1619 |
|      15 | 0x0001      |           1 |
|      16 | 0x0002      |           2 |
|      17 | 0x0007      |           7 |
|      18 | 0x000F      |          15 |
|      19 | 0x1F75      |        8053 |
|      20 | 0x1F76      |        8054 |
|      21 | 0x1F77      |        8055 |
|      22 | 0x0003      |           3 |
|      23 | 0x1F78      |        8056 |
|      24 | 0x0004      |           4 |
|      25 | 0x1F79      |        8057 |
|      26 | 0x0005      |           5 |
|      27 | 0x1F7A      |        8058 |
|      28 | 0x0006      |           6 |
|      29 | 0x1F7B      |        8059 |
|      30 | 0x1F7C      |        8060 |
|      31 | 0x0008      |           8 |
|      32 | 0x1F7D      |        8061 |
|      33 | 0x0009      |           9 |
|      34 | 0x1F7E      |        8062 |
|      35 | 0x000A      |          10 |
|      36 | 0x1F7F      |        8063 |
|      37 | 0x000B      |          11 |
|      38 | 0x1F80      |        8064 |
|      39 | 0x000C      |          12 |
|      40 | 0x1F81      |        8065 |
|      41 | 0x1F82      |        8066 |
|      42 | 0x000E      |          14 |
|      43 | 0x1F83      |        8067 |
|      44 | 0x1F84      |        8068 |
|      45 | 0x1F85      |        8069 |
|      46 | 0x1F86      |        8070 |
|      47 | 0x1F87      |        8071 |
|      48 | 0x1F88      |        8072 |
|      49 | 0x1F89      |        8073 |
|      50 | 0x1F8A      |        8074 |
|      51 | 0x1F8B      |        8075 |
|      52 | 0x1F8C      |        8076 |
|      53 | 0x1F8D      |        8077 |
|      54 | 0x1F8E      |        8078 |
|      55 | 0x1F8F      |        8079 |
|      56 | 0x1F90      |        8080 |
|      57 | 0x1F91      |        8081 |
|      58 | 0x1F92      |        8082 |
|      59 | 0x1F93      |        8083 |
|      60 | 0x1F94      |        8084 |
|      61 | 0x1F95      |        8085 |
|      62 | 0x1F96      |        8086 |
|      63 | 0x1F99      |        8089 |
|      64 | 0x1F9A      |        8090 |
|      65 | 0x1F9D      |        8093 |
|      66 | 0x1F9E      |        8094 |
|      67 | 0x1FA1      |        8097 |
|      68 | 0x1FA2      |        8098 |
|      69 | 0x1F97      |        8087 |
|      70 | 0x1F98      |        8088 |
|      71 | 0x1F9B      |        8091 |
|      72 | 0x1F9C      |        8092 |
|      73 | 0x1F9F      |        8095 |
|      74 | 0x1FA0      |        8096 |
|      75 | 0x1FA3      |        8099 |
|      76 | 0x1FA4      |        8100 |
|      77 | 0x1FA5      |        8101 |
|      78 | 0x1FA6      |        8102 |
|      79 | 0x1FA7      |        8103 |
|      80 | 0x1FA8      |        8104 |
|      81 | 0x1FA9      |        8105 |
|      82 | 0x1FAA      |        8106 |
|      83 | 0x1FAB      |        8107 |
|      84 | 0x1FAC      |        8108 |
|      85 | 0x1FAD      |        8109 |
|      86 | 0x1FAE      |        8110 |
|      87 | 0x1FAF      |        8111 |
|      88 | 0x1FB0      |        8112 |
|      89 | 0x1FB1      |        8113 |
|      90 | 0x1FB2      |        8114 |
|      91 | 0x1FB3      |        8115 |
|      92 | 0x1FB4      |        8116 |
|      93 | 0xFFFF6BE5  |  4294929381 |
|      94 | 0x6AFC      |       27388 |
|      95 | 0xFFFFF14C  |  4294963532 |
|      96 | 0x0C0E      |        3086 |
|      97 | 0x0079      |         121 |
|      98 | 0x11FE      |        4606 |
|      99 | 0xA9D7      |       43479 |
|     100 | 0xFFFFF448  |  4294964296 |
|     101 | 0x097F      |        2431 |
|     102 | 0x9E90      |       40592 |
|     103 | 0xFFFFF2BA  |  4294963898 |
|     104 | 0xFFFF73FF  |  4294931455 |
|     105 | 0x6174      |       24948 |
|     106 | 0xFFFFF15A  |  4294963546 |
|     107 | 0xFFFF79F5  |  4294932981 |
|     108 | 0x5A5A      |       23130 |
|     109 | 0xFFFFF131  |  4294963505 |
|     110 | 0x028C      |         652 |
|     111 | 0xFFFF800B  |  4294934539 |
|     112 | 0x53A8      |       21416 |
|     113 | 0x803A      |       32826 |
|     114 | 0x0C49      |        3145 |
|     115 | 0x05B6      |        1462 |
|     116 | 0x8846      |       34886 |
|     117 | 0x0E6A      |        3690 |
|     118 | 0x99E5      |       39397 |
|     119 | 0x0F7A      |        3962 |
|     120 | 0x0407      |        1031 |
|     121 | 0x2132      |        8498 |
|     122 | 0xFFFFFA25  |  4294965797 |
|     123 | 0x0C16      |        3094 |
|     124 | 0xFFFFFAC5  |  4294965957 |
|     125 | 0x0EB3      |        3763 |
|     126 | 0x0BDD      |        3037 |
|     127 | 0xFFFFEF5D  |  4294963037 |
|     128 | 0x0EEB      |        3819 |
|     129 | 0x03DF      |         991 |
|     130 | 0xA19A      |       41370 |
|     131 | 0x04EC      |        1260 |
|     132 | 0x0382      |         898 |
|     133 | 0x9CC6      |       40134 |
|     134 | 0x044F      |        1103 |
|     135 | 0x0873      |        2163 |
|     136 | 0xA55D      |       42333 |
|     137 | 0x0491      |        1169 |
|     138 | 0x0078      |         120 |
|     139 | 0x03FA      |        1018 |
|     140 | 0x7303      |       29443 |
|     141 | 0xFFFFF736  |  4294965046 |
|     142 | 0x0802      |        2050 |
|     143 | 0xFFFF7CA1  |  4294933665 |
|     144 | 0x4FCA      |       20426 |
|     145 | 0x0029      |          41 |
|     146 | 0xFFFE9AD5  |  4294875861 |
|     147 | 0x132E1     |       78561 |
|     148 | 0x018E      |         398 |
|     149 | 0x072F      |        1839 |
|     150 | 0x0080      |         128 |
|     151 | 0xFFFE8622  |  4294870562 |
|     152 | 0x12B2C     |       76588 |
|     153 | 0xFFFE71DC  |  4294865372 |
|     154 | 0x121FD     |       74237 |
|     155 | 0x06E0      |        1760 |
|     156 | 0xFFFE6A9C  |  4294863516 |
|     157 | 0x11D6A     |       73066 |
|     158 | 0xFFFE6928  |  4294863144 |
|     159 | 0xFF4D      |       65357 |
|     160 | 0x050F      |        1295 |
|     161 | 0x110C      |        4364 |
|     162 | 0x9EF0      |       40688 |
|     163 | 0x062B      |        1579 |
|     164 | 0x0472      |        1138 |
|     165 | 0x9124      |       37156 |
|     166 | 0x09CC      |        2508 |
|     167 | 0x003C      |          60 |
|     168 | 0x001E      |          30 |
|     169 | 0xFFFF6532  |  4294927666 |
|     170 | 0x43F2      |       17394 |
|     171 | 0xFFFFF029  |  4294963241 |
|     172 | 0x0E22      |        3618 |
|     173 | 0xFFFF6CE0  |  4294929632 |
|     174 | 0x6065      |       24677 |
|     175 | 0xFFFFF15B  |  4294963547 |
|     176 | 0x0B7E      |        2942 |
|     177 | 0xFFFF7AEE  |  4294933230 |
|     178 | 0x4601      |       17921 |
|     179 | 0x0277      |         631 |
|     180 | 0xFFFF7C60  |  4294933600 |
|     181 | 0x4162      |       16738 |
|     182 | 0xFFFF7E43  |  4294934083 |
|     183 | 0x1461F     |       83487 |
|     184 | 0xFFFF786E  |  4294932590 |
|     185 | 0x14546     |       83270 |
|     186 | 0xFFFF700D  |  4294930445 |
|     187 | 0x13E26     |       81446 |
|     188 | 0xFFFF6BA2  |  4294929314 |
|     189 | 0x12D9A     |       77210 |
|     190 | 0xFFFFF159  |  4294963545 |
|     191 | 0xFFFF6965  |  4294928741 |
|     192 | 0x11059     |       69721 |
|     193 | 0x005A      |          90 |
|     194 | 0xFFFFA365  |  4294943589 |
|     195 | 0x12DB      |        4827 |
|     196 | 0xFFFF799F  |  4294932895 |
|     197 | 0x1375      |        4981 |
|     198 | 0xFFFFA6B8  |  4294944440 |
|     199 | 0x07C1      |        1985 |
|     200 | 0xFFFFA74A  |  4294944586 |
|     201 | 0xFFFFF019  |  4294963225 |
|     202 | 0xFFFFB149  |  4294947145 |
|     203 | 0xFFFFF05E  |  4294963294 |
|     204 | 0xFFFF74F3  |  4294931699 |
|     205 | 0x14EBB     |       85691 |

## String References

- **8053**: Prince Trion prefers Hume girls with blonde hair that almost hides the eyebrows and is tied back in a short ponytail.
- **8054**: Prince Trion prefers Hume girls with brown hair that almost hides the eyebrows and is tied back in a short ponytail.
- **8055**: Prince Trion prefers Hume girls with long blonde hair parted on the left and tied back in a ponytail.
- **8056**: Prince Trion prefers Hume girls with long black hair parted on the left and tied back in a ponytail.
- **8057**: Prince Trion prefers Hume girls with flowing, shoulder-length black hair.
- **8058**: Prince Trion prefers Hume girls with flowing, shoulder-length chestnut-colored hair.
- **8059**: Prince Trion prefers Hume girls with short black hair brushed neatly over to the right.
- **8060**: Prince Trion prefers Hume girls with short blonde hair brushed neatly over to the right.
- **8061**: Prince Trion prefers Hume girls with short-cropped blonde hair that stands up in the front.
- **8062**: Prince Trion prefers Hume girls with short-cropped brown hair that stands up in the front.
- **8063**: Prince Trion prefers Hume girls with long black hair brushed over to the left.
- **8064**: Prince Trion prefers Hume girls with long brown hair brushed over to the left.
- **8065**: Prince Trion prefers Hume girls with very short, wavy brown hair.
- **8066**: Prince Trion prefers Hume girls with very short, wavy blonde hair.
- **8067**: Prince Trion prefers Hume girls with short brown hair brushed to the right in the front, and tied in a small ponytail in the back.
- **8068**: Prince Trion prefers Hume girls with short blonde hair brushed to the right in the front, and tied in a small ponytail in the back.
- **8069**: Prince Trion prefers Elvaan girls with shoulder-length blonde hair parted in the middle.
- **8070**: Prince Trion prefers Elvaan girls with shoulder-length red hair parted in the middle.
- **8071**: Prince Trion prefers Elvaan girls with pinned-up, braided silver hair.
- **8072**: Prince Trion prefers Elvaan girls with pinned-up, braided black hair.
- **8073**: Prince Trion prefers Elvaan girls with blonde hair brushed to the right, and braided on the left.
- **8074**: Prince Trion prefers Elvaan girls with red hair brushed to the right, and braided on the left.
- **8075**: Prince Trion prefers Elvaan girls with blonde hair tied into two braids in the back.
- **8076**: Prince Trion prefers Elvaan girls with red hair tied into two braids in the back.
- **8077**: Prince Trion prefers Elvaan girls with white hair bound backwards while leaving the sides to frame the face.
- **8078**: Prince Trion prefers Elvaan girls with red hair bound backwards while leaving the sides to frame the face.
- **8079**: Prince Trion prefers Elvaan girls with long, straight silver hair parted in the middle.
- **8080**: Prince Trion prefers Elvaan girls with long, straight black hair parted in the middle.
- **8081**: Prince Trion prefers Elvaan girls with shoulder-length silver hair brushed back from the face.
- **8082**: Prince Trion prefers Elvaan girls with shoulder-length black hair brushed back from the face.
- **8083**: Prince Trion prefers Elvaan girls with black hair braided behind the left ear.
- **8084**: Prince Trion prefers Elvaan girls with silver hair braided behind the left ear.
- **8085**: Prince Trion prefers Tarutaru girls with red hair parted in the front, and tied back in a ponytail.
- **8086**: Prince Trion prefers Tarutaru girls with reddish-blonde hair parted in the front, and tied back in a ponytail.
- **8087**: Prince Trion prefers Tarutaru girls with blue hair parted in the front, and tied back in a ponytail.
- **8088**: Prince Trion prefers Tarutaru girls with brown hair parted in the front, and tied back in a ponytail.
- **8089**: Prince Trion prefers Tarutaru girls with bluish-black hair tied in three braids and cut straight across the forehead.
- **8090**: Prince Trion prefers Tarutaru girls with green hair tied in three braids and cut straight across the forehead.
- **8091**: Prince Trion prefers Tarutaru girls with silver hair tied in three braids and cut straight across the forehead.
- **8092**: Prince Trion prefers Tarutaru girls with bluish-white hair tied in three braids and cut straight across the forehead.
- **8093**: Prince Trion prefers Tarutaru girls with brown hair tied up in two pigtails.
- **8094**: Prince Trion prefers Tarutaru girls with red hair tied up in two pigtails.
- **8095**: Prince Trion prefers Tarutaru girls with green hair tied up in two pigtails.
- **8096**: Prince Trion prefers Tarutaru girls with blonde hair tied up in two pigtails.
- **8097**: Prince Trion prefers Tarutaru girls with voluminous blonde hair parted in two and tied back behind the ears.
- **8098**: Prince Trion prefers Tarutaru girls with voluminous reddish-blonde hair parted in two and tied back behind the ears.
- **8099**: Prince Trion prefers Tarutaru girls with voluminous brown hair parted in two and tied back behind the ears.
- **8100**: Prince Trion prefers Tarutaru girls with voluminous green hair parted in two and tied back behind the ears.
- **8101**: Prince Trion prefers Mithra with longish red hair held back with a brown band.
- **8102**: Prince Trion prefers Mithra with longish chestnut-colored hair held back with a red band.
- **8103**: Prince Trion prefers Mithra with short white hair and white markings on the cheeks.
- **8104**: Prince Trion prefers Mithra with short silver hair and white markings on the cheeks.
- **8105**: Prince Trion prefers Mithra with silver hair cut straight across the forehead, and white markings around the eyes and on the cheeks.
- **8106**: Prince Trion prefers Mithra with red hair cut straight across the forehead, and purple markings around the eyes and on the cheeks.
- **8107**: Prince Trion prefers Mithra with blonde hair tied in two braids on either side of the face.
- **8108**: Prince Trion prefers Mithra with red hair tied in two braids on either side of the face.
- **8109**: Prince Trion prefers Mithra with voluminous red hair tied back with a lavender ribbon.
- **8110**: Prince Trion prefers Mithra with voluminous chestnut-colored hair tied back with a lavender ribbon.
- **8111**: Prince Trion prefers Mithra with wild white hair flowing over a headband.
- **8112**: Prince Trion prefers Mithra with wild red hair flowing over a headband.
- **8113**: Prince Trion prefers Mithra with blonde hair that almost hides the eyebrows, and is tied back in a short ponytail.
- **8114**: Prince Trion prefers Mithra with brown hair that almost hides the eyebrows, and is tied back in a short ponytail.
- **8115**: Prince Trion prefers Mithra with a colorful headband and brown hair tied in the back in two small pigtails.
- **8116**: Prince Trion prefers Mithra with a colorful headband and blonde hair tied in the back in two small pigtails.

## Events

### Event 65535

#### Metadata

| Field        | Value   |
|--------------|---------|
| Entrypoint   | 0x0000  |
| Data Size    | 1 bytes |
| Instructions | 1       |

```
      00 01 02 03 04 05 06 07  08 09 0A 0B 0C 0D 0E 0F
      -- -- -- -- -- -- -- --  -- -- -- -- -- -- -- --
0000: 00                                                .               
```

#### Opcodes

```
  0: 0x0000 [0x00] END_REQSTACK()
```

### Event 563

#### Metadata

| Field        | Value   |
|--------------|---------|
| Entrypoint   | 0x0001  |
| Data Size    | 1 bytes |
| Instructions | 1       |

```
      00 01 02 03 04 05 06 07  08 09 0A 0B 0C 0D 0E 0F
      -- -- -- -- -- -- -- --  -- -- -- -- -- -- -- --
0000:    00                                              .              
```

#### Opcodes

```
  0: 0x0001 [0x00] END_REQSTACK()
```

### Event 564

#### Metadata

| Field        | Value   |
|--------------|---------|
| Entrypoint   | 0x0002  |
| Data Size    | 1 bytes |
| Instructions | 1       |

```
      00 01 02 03 04 05 06 07  08 09 0A 0B 0C 0D 0E 0F
      -- -- -- -- -- -- -- --  -- -- -- -- -- -- -- --
0000:       00                                            .             
```

#### Opcodes

```
  0: 0x0002 [0x00] END_REQSTACK()
```

### Event 65535.1

#### Metadata

| Field        | Value    |
|--------------|----------|
| Entrypoint   | 0x0003   |
| Data Size    | 10 bytes |
| Instructions | 2        |

```
      00 01 02 03 04 05 06 07  08 09 0A 0B 0C 0D 0E 0F
      -- -- -- -- -- -- -- --  -- -- -- -- -- -- -- --
0000:          37 00 80 01 80  02 80 03 80 00              7.........   
```

#### Opcodes

```
  0: 0x0003 [0x37] UPDATE_EVENT_POSITION_AND_DIR: x=-5.838*, z=-2.642*, y=0.000*, direction=339.7°*
  1: 0x000C [0x00] END_REQSTACK()
```

### Event 65535.2

#### Metadata

| Field        | Value    |
|--------------|----------|
| Entrypoint   | 0x000D   |
| Data Size    | 22 bytes |
| Instructions | 6        |

```
      00 01 02 03 04 05 06 07  08 09 0A 0B 0C 0D 0E 0F
      -- -- -- -- -- -- -- --  -- -- -- -- -- -- -- --
0000:                                         03 00 00               ...
0010: 04 80 1A 44 00 32 05 80  1F 00 01 00 02 00 03 00  ...D.2..........
0020: 1F 01 00                                          ...             
```

#### Opcodes

```
  0: 0x000D [0x03] ExtData[1]->WorkLocal[0] = 1000*
  1: 0x0012 [0x1A] CALL_SUBROUTINE(address=0x0044)
  2: 0x0015 [0x32] ExtData[1]->MainSpeed = 13* * 0.1
  3: 0x0018 [0x1F] MOVE_ENTITY: EventEntity moves to X=ExtData[1]->WorkLocal[1], Z=ExtData[1]->WorkLocal[2], Y=ExtData[1]->WorkLocal[3]
  4: 0x0020 [0x1F] MOVE_ENTITY: Update entity position (mode=1)
  5: 0x0022 [0x00] END_REQSTACK()
```

### Event 65535.3

#### Metadata

| Field        | Value    |
|--------------|----------|
| Entrypoint   | 0x0023   |
| Data Size    | 15 bytes |
| Instructions | 3        |

```
      00 01 02 03 04 05 06 07  08 09 0A 0B 0C 0D 0E 0F
      -- -- -- -- -- -- -- --  -- -- -- -- -- -- -- --
0020:          7B F8 FF FF 7F  37 02 80 06 80 02 80 07     {....7.......
0030: 80 00                                             ..              
```

#### Opcodes

```
  0: 0x0023 [0x7B] EventEntity stops talking
  1: 0x0028 [0x37] UPDATE_EVENT_POSITION_AND_DIR: x=0.000*, z=3.640*, y=0.000*, direction=90.0°*
  2: 0x0031 [0x00] END_REQSTACK()
```

### Event 65535.4

#### Metadata

| Field        | Value    |
|--------------|----------|
| Entrypoint   | 0x0032   |
| Data Size    | 86 bytes |
| Instructions | 5        |

```
      00 01 02 03 04 05 06 07  08 09 0A 0B 0C 0D 0E 0F
      -- -- -- -- -- -- -- --  -- -- -- -- -- -- -- --
0030:       32 05 80 31 00 08  80 09 80 02 80 0A 80 31    2..1.........1
0040: 01 22 01 00 3B F8 FF FF  7F 01 00 02 00 03 00 3A  ."..;..........:
0050: F8 FF FF 7F 04 00 17 05  00 04 00 00 00 16 06 00  ................
0060: 04 00 00 00 07 01 00 05  00 07 02 00 06 00 1B 17  ................
0070: 05 00 04 00 00 00 16 06  00 04 00 00 00 07 01 00  ................
0080: 05 00 07 02 00 06 00 1B                           ........        
```

#### Opcodes

```
  0: 0x0032 [0x32] ExtData[1]->MainSpeed = 13* * 0.1
  1: 0x0035 [0x31] UPDATE_ENTITY_POSITION: Set EventEntity goal position to X=-7.767*, Z=-2.145*, Y=0.000*, Time=180*
  2: 0x003F [0x31] UPDATE_ENTITY_POSITION: Move EventEntity towards goal position
  3: 0x0041 [0x22] ENTITY_HIDE_FLAG(enabled=0x01)
  4: 0x0043 [0x00] END_REQSTACK()
```

#### Data or dead code:

```
# Dead code (unreachable instructions):
     0x0044 [0x3B] GET_ENTITY_POSITION(entity=EventEntity, x_destination=ExtData[1]->WorkLocal[1], y_destination=ExtData[1]->WorkLocal[2], z_destination=ExtData[1]->WorkLocal[3])
     0x004F [0x3A] CONVERT_YAW_TO_BYTE(entity=EventEntity, result_destination=ExtData[1]->WorkLocal[4])
     0x0056 [0x17] ExtData[1]->WorkLocal[5] = cos(ExtData[1]->WorkLocal[4]) * ExtData[1]->WorkLocal[0]
     0x005D [0x16] ExtData[1]->WorkLocal[6] = sin(ExtData[1]->WorkLocal[4]) * ExtData[1]->WorkLocal[0]
     0x0064 [0x07] ExtData[1]->WorkLocal[1] += ExtData[1]->WorkLocal[5]
     0x0069 [0x07] ExtData[1]->WorkLocal[2] += ExtData[1]->WorkLocal[6]
     0x006E [0x1B] RETURN
     0x006F [0x17] ExtData[1]->WorkLocal[5] = cos(ExtData[1]->WorkLocal[4]) * ExtData[1]->WorkLocal[0]
     0x0076 [0x16] ExtData[1]->WorkLocal[6] = sin(ExtData[1]->WorkLocal[4]) * ExtData[1]->WorkLocal[0]
     0x007D [0x07] ExtData[1]->WorkLocal[1] += ExtData[1]->WorkLocal[5]
     0x0082 [0x07] ExtData[1]->WorkLocal[2] += ExtData[1]->WorkLocal[6]
     0x0087 [0x1B] RETURN
```

### Event 65

#### Metadata

| Field        | Value    |
|--------------|----------|
| Entrypoint   | 0x0088   |
| Data Size    | 16 bytes |
| Instructions | 3        |

```
      00 01 02 03 04 05 06 07  08 09 0A 0B 0C 0D 0E 0F
      -- -- -- -- -- -- -- --  -- -- -- -- -- -- -- --
0080:                          94 01 F8 FF FF 7F 37 0B          ......7.
0090: 80 0C 80 0D 80 0E 80 00                           ........        
```

#### Opcodes

```
  0: 0x0088 [0x94] EventEntity->Render.Flags3 ^= 0x01
  1: 0x008E [0x37] UPDATE_EVENT_POSITION_AND_DIR: x=5.612*, z=44.002*, y=-2.999*, direction=142.3°*
  2: 0x0097 [0x00] END_REQSTACK()
```

### Event 65535.5

#### Metadata

| Field        | Value    |
|--------------|----------|
| Entrypoint   | 0x0098   |
| Data Size    | 19 bytes |
| Instructions | 5        |

```
      00 01 02 03 04 05 06 07  08 09 0A 0B 0C 0D 0E 0F
      -- -- -- -- -- -- -- --  -- -- -- -- -- -- -- --
0090:                          03 07 00 02 10 03 08 00          ........
00A0: 03 10 03 08 10 0F 80 1A  DA 00 00                 ...........     
```

#### Opcodes

```
  0: 0x0098 [0x03] ExtData[1]->WorkLocal[7] = Work_Zone[2]
  1: 0x009D [0x03] ExtData[1]->WorkLocal[8] = Work_Zone[3]
  2: 0x00A2 [0x03] Work_Zone[8] = 1*
  3: 0x00A7 [0x1A] CALL_SUBROUTINE(address=0x00DA)
  4: 0x00AA [0x00] END_REQSTACK()
```

### Event 65535.6

#### Metadata

| Field        | Value      |
|--------------|------------|
| Entrypoint   | 0x00AB     |
| Data Size    | 1052 bytes |
| Instructions | 276        |

```
      00 01 02 03 04 05 06 07  08 09 0A 0B 0C 0D 0E 0F
      -- -- -- -- -- -- -- --  -- -- -- -- -- -- -- --
00A0:                                   03 08 10 0F 80             .....
00B0: 03 07 00 10 80 02 07 00  11 80 05 D9 00 03 08 00  ................
00C0: 02 80 02 08 00 12 80 05  D3 00 1A DA 00 0B 08 00  ................
00D0: 01 C2 00 0B 07 00 01 B5  00 00 02 07 00 10 80 80  ................
00E0: D5 01 02 08 00 02 80 80  F1 00 1D 13 80 23 01 D2  .............#..
00F0: 01 02 08 00 0F 80 80 00  01 1D 14 80 23 01 D2 01  ............#...
0100: 02 08 00 10 80 80 0F 01  1D 15 80 23 01 D2 01 02  ...........#....
0110: 08 00 16 80 80 1E 01 1D  17 80 23 01 D2 01 02 08  ..........#.....
0120: 00 18 80 80 2D 01 1D 19  80 23 01 D2 01 02 08 00  ....-....#......
0130: 1A 80 80 3C 01 1D 1B 80  23 01 D2 01 02 08 00 1C  ...<....#.......
0140: 80 80 4B 01 1D 1D 80 23  01 D2 01 02 08 00 11 80  ..K....#........
0150: 80 5A 01 1D 1E 80 23 01  D2 01 02 08 00 1F 80 80  .Z....#.........
0160: 69 01 1D 20 80 23 01 D2  01 02 08 00 21 80 80 78  i.. .#......!..x
0170: 01 1D 22 80 23 01 D2 01  02 08 00 23 80 80 87 01  ..".#......#....
0180: 1D 24 80 23 01 D2 01 02  08 00 25 80 80 96 01 1D  .$.#......%.....
0190: 26 80 23 01 D2 01 02 08  00 27 80 80 A5 01 1D 28  &.#......'.....(
01A0: 80 23 01 D2 01 02 08 00  05 80 80 B4 01 1D 29 80  .#............).
01B0: 23 01 D2 01 02 08 00 2A  80 80 C3 01 1D 2B 80 23  #......*.....+.#
01C0: 01 D2 01 02 08 00 12 80  80 D2 01 1D 2C 80 23 01  ............,.#.
01D0: D2 01 01 C6 04 02 07 00  18 80 80 D0 02 02 08 00  ................
01E0: 02 80 80 EC 01 1D 2D 80  23 01 CD 02 02 08 00 0F  ......-.#.......
01F0: 80 80 FB 01 1D 2E 80 23  01 CD 02 02 08 00 10 80  .......#........
0200: 80 0A 02 1D 2F 80 23 01  CD 02 02 08 00 16 80 80  ..../.#.........
0210: 19 02 1D 30 80 23 01 CD  02 02 08 00 18 80 80 28  ...0.#.........(
0220: 02 1D 31 80 23 01 CD 02  02 08 00 1A 80 80 37 02  ..1.#.........7.
0230: 1D 32 80 23 01 CD 02 02  08 00 1C 80 80 46 02 1D  .2.#.........F..
0240: 33 80 23 01 CD 02 02 08  00 11 80 80 55 02 1D 34  3.#.........U..4
0250: 80 23 01 CD 02 02 08 00  1F 80 80 64 02 1D 35 80  .#.........d..5.
0260: 23 01 CD 02 02 08 00 21  80 80 73 02 1D 36 80 23  #......!..s..6.#
0270: 01 CD 02 02 08 00 23 80  80 82 02 1D 37 80 23 01  ......#.....7.#.
0280: CD 02 02 08 00 25 80 80  91 02 1D 38 80 23 01 CD  .....%.....8.#..
0290: 02 02 08 00 27 80 80 A0  02 1D 39 80 23 01 CD 02  ....'.....9.#...
02A0: 02 08 00 05 80 80 AF 02  1D 3A 80 23 01 CD 02 02  .........:.#....
02B0: 08 00 2A 80 80 BE 02 1D  3B 80 23 01 CD 02 02 08  ..*.....;.#.....
02C0: 00 12 80 80 CD 02 1D 3C  80 23 01 CD 02 01 C6 04  .......<.#......
02D0: 02 07 00 1C 80 80 CB 03  02 08 00 02 80 80 E7 02  ................
02E0: 1D 3D 80 23 01 C8 03 02  08 00 0F 80 80 F6 02 1D  .=.#............
02F0: 3E 80 23 01 C8 03 02 08  00 10 80 80 05 03 1D 3F  >.#............?
0300: 80 23 01 C8 03 02 08 00  16 80 80 14 03 1D 40 80  .#............@.
0310: 23 01 C8 03 02 08 00 18  80 80 23 03 1D 41 80 23  #.........#..A.#
0320: 01 C8 03 02 08 00 1A 80  80 32 03 1D 42 80 23 01  .........2..B.#.
0330: C8 03 02 08 00 1C 80 80  41 03 1D 43 80 23 01 C8  ........A..C.#..
0340: 03 02 08 00 11 80 80 50  03 1D 44 80 23 01 C8 03  .......P..D.#...
0350: 02 08 00 1F 80 80 5F 03  1D 45 80 23 01 C8 03 02  ......_..E.#....
0360: 08 00 21 80 80 6E 03 1D  46 80 23 01 C8 03 02 08  ..!..n..F.#.....
0370: 00 23 80 80 7D 03 1D 47  80 23 01 C8 03 02 08 00  .#..}..G.#......
0380: 25 80 80 8C 03 1D 48 80  23 01 C8 03 02 08 00 27  %.....H.#......'
0390: 80 80 9B 03 1D 49 80 23  01 C8 03 02 08 00 05 80  .....I.#........
03A0: 80 AA 03 1D 4A 80 23 01  C8 03 02 08 00 2A 80 80  ....J.#......*..
03B0: B9 03 1D 4B 80 23 01 C8  03 02 08 00 12 80 80 C8  ...K.#..........
03C0: 03 1D 4C 80 23 01 C8 03  01 C6 04 02 07 00 11 80  ..L.#...........
03D0: 80 C6 04 02 08 00 02 80  80 E2 03 1D 4D 80 23 01  ............M.#.
03E0: C3 04 02 08 00 0F 80 80  F1 03 1D 4E 80 23 01 C3  ...........N.#..
03F0: 04 02 08 00 10 80 80 00  04 1D 4F 80 23 01 C3 04  ..........O.#...
0400: 02 08 00 16 80 80 0F 04  1D 50 80 23 01 C3 04 02  .........P.#....
0410: 08 00 18 80 80 1E 04 1D  51 80 23 01 C3 04 02 08  ........Q.#.....
0420: 00 1A 80 80 2D 04 1D 52  80 23 01 C3 04 02 08 00  ....-..R.#......
0430: 1C 80 80 3C 04 1D 53 80  23 01 C3 04 02 08 00 11  ...<..S.#.......
0440: 80 80 4B 04 1D 54 80 23  01 C3 04 02 08 00 1F 80  ..K..T.#........
0450: 80 5A 04 1D 55 80 23 01  C3 04 02 08 00 21 80 80  .Z..U.#......!..
0460: 69 04 1D 56 80 23 01 C3  04 02 08 00 23 80 80 78  i..V.#......#..x
0470: 04 1D 57 80 23 01 C3 04  02 08 00 25 80 80 87 04  ..W.#......%....
0480: 1D 58 80 23 01 C3 04 02  08 00 27 80 80 96 04 1D  .X.#......'.....
0490: 59 80 23 01 C3 04 02 08  00 05 80 80 A5 04 1D 5A  Y.#............Z
04A0: 80 23 01 C3 04 02 08 00  2A 80 80 B4 04 1D 5B 80  .#......*.....[.
04B0: 23 01 C3 04 02 08 00 12  80 80 C3 04 1D 5C 80 23  #............\.#
04C0: 01 C3 04 01 C6 04 1B                              .......         
```

#### Opcodes

```
  0: 0x00AB [0x03] Work_Zone[8] = 1*
  1: 0x00B0 [0x03] ExtData[1]->WorkLocal[7] = 2*
  2: 0x00B5 [0x02] IF !(ExtData[1]->WorkLocal[7] > 7*) GOTO 0x00D9
  3: 0x00BD [0x03] ExtData[1]->WorkLocal[8] = 0*
  4: 0x00C2 [0x02] IF !(ExtData[1]->WorkLocal[8] > 15*) GOTO 0x00D3
  5: 0x00CA [0x1A] CALL_SUBROUTINE(address=0x00DA)
  6: 0x00CD [0x0B] ExtData[1]->WorkLocal[8]++
  7: 0x00D0 [0x01] GOTO 0x00C2
  8: 0x00D3 [0x0B] ExtData[1]->WorkLocal[7]++
  9: 0x00D6 [0x01] GOTO 0x00B5
 10: 0x00D9 [0x00] END_REQSTACK()

SUBROUTINE_00DA:
 11: 0x00DA [0x02] IF !(ExtData[1]->WorkLocal[7] == 2*) GOTO 0x01D5
 12: 0x00E2 [0x02] IF !(ExtData[1]->WorkLocal[8] == 0*) GOTO 0x00F1
 13: 0x00EA [0x1D] PRINT_EVENT_MESSAGE(message_id=8053*)
    → "Prince Trion prefers Hume girls with blonde hair that almost hides the eyebrows and is tied back in a short ponytail."
 14: 0x00ED [0x23] WAIT_FOR_DIALOG_INTERACTION
 15: 0x00EE [0x01] GOTO 0x01D2
 16: 0x00F1 [0x02] IF !(ExtData[1]->WorkLocal[8] == 1*) GOTO 0x0100
 17: 0x00F9 [0x1D] PRINT_EVENT_MESSAGE(message_id=8054*)
    → "Prince Trion prefers Hume girls with brown hair that almost hides the eyebrows and is tied back in a short ponytail."
 18: 0x00FC [0x23] WAIT_FOR_DIALOG_INTERACTION
 19: 0x00FD [0x01] GOTO 0x01D2
 20: 0x0100 [0x02] IF !(ExtData[1]->WorkLocal[8] == 2*) GOTO 0x010F
 21: 0x0108 [0x1D] PRINT_EVENT_MESSAGE(message_id=8055*)
    → "Prince Trion prefers Hume girls with long blonde hair parted on the left and tied back in a ponytail."
 22: 0x010B [0x23] WAIT_FOR_DIALOG_INTERACTION
 23: 0x010C [0x01] GOTO 0x01D2
 24: 0x010F [0x02] IF !(ExtData[1]->WorkLocal[8] == 3*) GOTO 0x011E
 25: 0x0117 [0x1D] PRINT_EVENT_MESSAGE(message_id=8056*)
    → "Prince Trion prefers Hume girls with long black hair parted on the left and tied back in a ponytail."
 26: 0x011A [0x23] WAIT_FOR_DIALOG_INTERACTION
 27: 0x011B [0x01] GOTO 0x01D2
 28: 0x011E [0x02] IF !(ExtData[1]->WorkLocal[8] == 4*) GOTO 0x012D
 29: 0x0126 [0x1D] PRINT_EVENT_MESSAGE(message_id=8057*)
    → "Prince Trion prefers Hume girls with flowing, shoulder-length black hair."
 30: 0x0129 [0x23] WAIT_FOR_DIALOG_INTERACTION
 31: 0x012A [0x01] GOTO 0x01D2
 32: 0x012D [0x02] IF !(ExtData[1]->WorkLocal[8] == 5*) GOTO 0x013C
 33: 0x0135 [0x1D] PRINT_EVENT_MESSAGE(message_id=8058*)
    → "Prince Trion prefers Hume girls with flowing, shoulder-length chestnut-colored hair."
 34: 0x0138 [0x23] WAIT_FOR_DIALOG_INTERACTION
 35: 0x0139 [0x01] GOTO 0x01D2
 36: 0x013C [0x02] IF !(ExtData[1]->WorkLocal[8] == 6*) GOTO 0x014B
 37: 0x0144 [0x1D] PRINT_EVENT_MESSAGE(message_id=8059*)
    → "Prince Trion prefers Hume girls with short black hair brushed neatly over to the right."
 38: 0x0147 [0x23] WAIT_FOR_DIALOG_INTERACTION
 39: 0x0148 [0x01] GOTO 0x01D2
 40: 0x014B [0x02] IF !(ExtData[1]->WorkLocal[8] == 7*) GOTO 0x015A
 41: 0x0153 [0x1D] PRINT_EVENT_MESSAGE(message_id=8060*)
    → "Prince Trion prefers Hume girls with short blonde hair brushed neatly over to the right."
 42: 0x0156 [0x23] WAIT_FOR_DIALOG_INTERACTION
 43: 0x0157 [0x01] GOTO 0x01D2
 44: 0x015A [0x02] IF !(ExtData[1]->WorkLocal[8] == 8*) GOTO 0x0169
 45: 0x0162 [0x1D] PRINT_EVENT_MESSAGE(message_id=8061*)
    → "Prince Trion prefers Hume girls with short-cropped blonde hair that stands up in the front."
 46: 0x0165 [0x23] WAIT_FOR_DIALOG_INTERACTION
 47: 0x0166 [0x01] GOTO 0x01D2
 48: 0x0169 [0x02] IF !(ExtData[1]->WorkLocal[8] == 9*) GOTO 0x0178
 49: 0x0171 [0x1D] PRINT_EVENT_MESSAGE(message_id=8062*)
    → "Prince Trion prefers Hume girls with short-cropped brown hair that stands up in the front."
 50: 0x0174 [0x23] WAIT_FOR_DIALOG_INTERACTION
 51: 0x0175 [0x01] GOTO 0x01D2
 52: 0x0178 [0x02] IF !(ExtData[1]->WorkLocal[8] == 10*) GOTO 0x0187
 53: 0x0180 [0x1D] PRINT_EVENT_MESSAGE(message_id=8063*)
    → "Prince Trion prefers Hume girls with long black hair brushed over to the left."
 54: 0x0183 [0x23] WAIT_FOR_DIALOG_INTERACTION
 55: 0x0184 [0x01] GOTO 0x01D2
 56: 0x0187 [0x02] IF !(ExtData[1]->WorkLocal[8] == 11*) GOTO 0x0196
 57: 0x018F [0x1D] PRINT_EVENT_MESSAGE(message_id=8064*)
    → "Prince Trion prefers Hume girls with long brown hair brushed over to the left."
 58: 0x0192 [0x23] WAIT_FOR_DIALOG_INTERACTION
 59: 0x0193 [0x01] GOTO 0x01D2
 60: 0x0196 [0x02] IF !(ExtData[1]->WorkLocal[8] == 12*) GOTO 0x01A5
 61: 0x019E [0x1D] PRINT_EVENT_MESSAGE(message_id=8065*)
    → "Prince Trion prefers Hume girls with very short, wavy brown hair."
 62: 0x01A1 [0x23] WAIT_FOR_DIALOG_INTERACTION
 63: 0x01A2 [0x01] GOTO 0x01D2
 64: 0x01A5 [0x02] IF !(ExtData[1]->WorkLocal[8] == 13*) GOTO 0x01B4
 65: 0x01AD [0x1D] PRINT_EVENT_MESSAGE(message_id=8066*)
    → "Prince Trion prefers Hume girls with very short, wavy blonde hair."
 66: 0x01B0 [0x23] WAIT_FOR_DIALOG_INTERACTION
 67: 0x01B1 [0x01] GOTO 0x01D2
 68: 0x01B4 [0x02] IF !(ExtData[1]->WorkLocal[8] == 14*) GOTO 0x01C3
 69: 0x01BC [0x1D] PRINT_EVENT_MESSAGE(message_id=8067*)
    → "Prince Trion prefers Hume girls with short brown hair brushed to the right in the front, and tied in a small ponytail in the back."
 70: 0x01BF [0x23] WAIT_FOR_DIALOG_INTERACTION
 71: 0x01C0 [0x01] GOTO 0x01D2
 72: 0x01C3 [0x02] IF !(ExtData[1]->WorkLocal[8] == 15*) GOTO 0x01D2
 73: 0x01CB [0x1D] PRINT_EVENT_MESSAGE(message_id=8068*)
    → "Prince Trion prefers Hume girls with short blonde hair brushed to the right in the front, and tied in a small ponytail in the back."
 74: 0x01CE [0x23] WAIT_FOR_DIALOG_INTERACTION
 75: 0x01CF [0x01] GOTO 0x01D2

SUBROUTINE_01D2:
 76: 0x01D2 [0x01] GOTO 0x04C6
 77: 0x01D5 [0x02] IF !(ExtData[1]->WorkLocal[7] == 4*) GOTO 0x02D0
 78: 0x01DD [0x02] IF !(ExtData[1]->WorkLocal[8] == 0*) GOTO 0x01EC
 79: 0x01E5 [0x1D] PRINT_EVENT_MESSAGE(message_id=8069*)
    → "Prince Trion prefers Elvaan girls with shoulder-length blonde hair parted in the middle."
 80: 0x01E8 [0x23] WAIT_FOR_DIALOG_INTERACTION
 81: 0x01E9 [0x01] GOTO 0x02CD
 82: 0x01EC [0x02] IF !(ExtData[1]->WorkLocal[8] == 1*) GOTO 0x01FB
 83: 0x01F4 [0x1D] PRINT_EVENT_MESSAGE(message_id=8070*)
    → "Prince Trion prefers Elvaan girls with shoulder-length red hair parted in the middle."
 84: 0x01F7 [0x23] WAIT_FOR_DIALOG_INTERACTION
 85: 0x01F8 [0x01] GOTO 0x02CD
 86: 0x01FB [0x02] IF !(ExtData[1]->WorkLocal[8] == 2*) GOTO 0x020A
 87: 0x0203 [0x1D] PRINT_EVENT_MESSAGE(message_id=8071*)
    → "Prince Trion prefers Elvaan girls with pinned-up, braided silver hair."
 88: 0x0206 [0x23] WAIT_FOR_DIALOG_INTERACTION
 89: 0x0207 [0x01] GOTO 0x02CD
 90: 0x020A [0x02] IF !(ExtData[1]->WorkLocal[8] == 3*) GOTO 0x0219
 91: 0x0212 [0x1D] PRINT_EVENT_MESSAGE(message_id=8072*)
    → "Prince Trion prefers Elvaan girls with pinned-up, braided black hair."
 92: 0x0215 [0x23] WAIT_FOR_DIALOG_INTERACTION
 93: 0x0216 [0x01] GOTO 0x02CD
 94: 0x0219 [0x02] IF !(ExtData[1]->WorkLocal[8] == 4*) GOTO 0x0228
 95: 0x0221 [0x1D] PRINT_EVENT_MESSAGE(message_id=8073*)
    → "Prince Trion prefers Elvaan girls with blonde hair brushed to the right, and braided on the left."
 96: 0x0224 [0x23] WAIT_FOR_DIALOG_INTERACTION
 97: 0x0225 [0x01] GOTO 0x02CD
 98: 0x0228 [0x02] IF !(ExtData[1]->WorkLocal[8] == 5*) GOTO 0x0237
 99: 0x0230 [0x1D] PRINT_EVENT_MESSAGE(message_id=8074*)
    → "Prince Trion prefers Elvaan girls with red hair brushed to the right, and braided on the left."
100: 0x0233 [0x23] WAIT_FOR_DIALOG_INTERACTION
101: 0x0234 [0x01] GOTO 0x02CD
102: 0x0237 [0x02] IF !(ExtData[1]->WorkLocal[8] == 6*) GOTO 0x0246
103: 0x023F [0x1D] PRINT_EVENT_MESSAGE(message_id=8075*)
    → "Prince Trion prefers Elvaan girls with blonde hair tied into two braids in the back."
104: 0x0242 [0x23] WAIT_FOR_DIALOG_INTERACTION
105: 0x0243 [0x01] GOTO 0x02CD
106: 0x0246 [0x02] IF !(ExtData[1]->WorkLocal[8] == 7*) GOTO 0x0255
107: 0x024E [0x1D] PRINT_EVENT_MESSAGE(message_id=8076*)
    → "Prince Trion prefers Elvaan girls with red hair tied into two braids in the back."
108: 0x0251 [0x23] WAIT_FOR_DIALOG_INTERACTION
109: 0x0252 [0x01] GOTO 0x02CD
110: 0x0255 [0x02] IF !(ExtData[1]->WorkLocal[8] == 8*) GOTO 0x0264
111: 0x025D [0x1D] PRINT_EVENT_MESSAGE(message_id=8077*)
    → "Prince Trion prefers Elvaan girls with white hair bound backwards while leaving the sides to frame the face."
112: 0x0260 [0x23] WAIT_FOR_DIALOG_INTERACTION
113: 0x0261 [0x01] GOTO 0x02CD
114: 0x0264 [0x02] IF !(ExtData[1]->WorkLocal[8] == 9*) GOTO 0x0273
115: 0x026C [0x1D] PRINT_EVENT_MESSAGE(message_id=8078*)
    → "Prince Trion prefers Elvaan girls with red hair bound backwards while leaving the sides to frame the face."
116: 0x026F [0x23] WAIT_FOR_DIALOG_INTERACTION
117: 0x0270 [0x01] GOTO 0x02CD
118: 0x0273 [0x02] IF !(ExtData[1]->WorkLocal[8] == 10*) GOTO 0x0282
119: 0x027B [0x1D] PRINT_EVENT_MESSAGE(message_id=8079*)
    → "Prince Trion prefers Elvaan girls with long, straight silver hair parted in the middle."
120: 0x027E [0x23] WAIT_FOR_DIALOG_INTERACTION
121: 0x027F [0x01] GOTO 0x02CD
122: 0x0282 [0x02] IF !(ExtData[1]->WorkLocal[8] == 11*) GOTO 0x0291
123: 0x028A [0x1D] PRINT_EVENT_MESSAGE(message_id=8080*)
    → "Prince Trion prefers Elvaan girls with long, straight black hair parted in the middle."
124: 0x028D [0x23] WAIT_FOR_DIALOG_INTERACTION
125: 0x028E [0x01] GOTO 0x02CD
126: 0x0291 [0x02] IF !(ExtData[1]->WorkLocal[8] == 12*) GOTO 0x02A0
127: 0x0299 [0x1D] PRINT_EVENT_MESSAGE(message_id=8081*)
    → "Prince Trion prefers Elvaan girls with shoulder-length silver hair brushed back from the face."
128: 0x029C [0x23] WAIT_FOR_DIALOG_INTERACTION
129: 0x029D [0x01] GOTO 0x02CD
130: 0x02A0 [0x02] IF !(ExtData[1]->WorkLocal[8] == 13*) GOTO 0x02AF
131: 0x02A8 [0x1D] PRINT_EVENT_MESSAGE(message_id=8082*)
    → "Prince Trion prefers Elvaan girls with shoulder-length black hair brushed back from the face."
132: 0x02AB [0x23] WAIT_FOR_DIALOG_INTERACTION
133: 0x02AC [0x01] GOTO 0x02CD
134: 0x02AF [0x02] IF !(ExtData[1]->WorkLocal[8] == 14*) GOTO 0x02BE
135: 0x02B7 [0x1D] PRINT_EVENT_MESSAGE(message_id=8083*)
    → "Prince Trion prefers Elvaan girls with black hair braided behind the left ear."
136: 0x02BA [0x23] WAIT_FOR_DIALOG_INTERACTION
137: 0x02BB [0x01] GOTO 0x02CD
138: 0x02BE [0x02] IF !(ExtData[1]->WorkLocal[8] == 15*) GOTO 0x02CD
139: 0x02C6 [0x1D] PRINT_EVENT_MESSAGE(message_id=8084*)
    → "Prince Trion prefers Elvaan girls with silver hair braided behind the left ear."
140: 0x02C9 [0x23] WAIT_FOR_DIALOG_INTERACTION
141: 0x02CA [0x01] GOTO 0x02CD

SUBROUTINE_02CD:
142: 0x02CD [0x01] GOTO 0x04C6
143: 0x02D0 [0x02] IF !(ExtData[1]->WorkLocal[7] == 6*) GOTO 0x03CB
144: 0x02D8 [0x02] IF !(ExtData[1]->WorkLocal[8] == 0*) GOTO 0x02E7
145: 0x02E0 [0x1D] PRINT_EVENT_MESSAGE(message_id=8085*)
    → "Prince Trion prefers Tarutaru girls with red hair parted in the front, and tied back in a ponytail."
146: 0x02E3 [0x23] WAIT_FOR_DIALOG_INTERACTION
147: 0x02E4 [0x01] GOTO 0x03C8
148: 0x02E7 [0x02] IF !(ExtData[1]->WorkLocal[8] == 1*) GOTO 0x02F6
149: 0x02EF [0x1D] PRINT_EVENT_MESSAGE(message_id=8086*)
    → "Prince Trion prefers Tarutaru girls with reddish-blonde hair parted in the front, and tied back in a ponytail."
150: 0x02F2 [0x23] WAIT_FOR_DIALOG_INTERACTION
151: 0x02F3 [0x01] GOTO 0x03C8
152: 0x02F6 [0x02] IF !(ExtData[1]->WorkLocal[8] == 2*) GOTO 0x0305
153: 0x02FE [0x1D] PRINT_EVENT_MESSAGE(message_id=8089*)
    → "Prince Trion prefers Tarutaru girls with bluish-black hair tied in three braids and cut straight across the forehead."
154: 0x0301 [0x23] WAIT_FOR_DIALOG_INTERACTION
155: 0x0302 [0x01] GOTO 0x03C8
156: 0x0305 [0x02] IF !(ExtData[1]->WorkLocal[8] == 3*) GOTO 0x0314
157: 0x030D [0x1D] PRINT_EVENT_MESSAGE(message_id=8090*)
    → "Prince Trion prefers Tarutaru girls with green hair tied in three braids and cut straight across the forehead."
158: 0x0310 [0x23] WAIT_FOR_DIALOG_INTERACTION
159: 0x0311 [0x01] GOTO 0x03C8
160: 0x0314 [0x02] IF !(ExtData[1]->WorkLocal[8] == 4*) GOTO 0x0323
161: 0x031C [0x1D] PRINT_EVENT_MESSAGE(message_id=8093*)
    → "Prince Trion prefers Tarutaru girls with brown hair tied up in two pigtails."
162: 0x031F [0x23] WAIT_FOR_DIALOG_INTERACTION
163: 0x0320 [0x01] GOTO 0x03C8
164: 0x0323 [0x02] IF !(ExtData[1]->WorkLocal[8] == 5*) GOTO 0x0332
165: 0x032B [0x1D] PRINT_EVENT_MESSAGE(message_id=8094*)
    → "Prince Trion prefers Tarutaru girls with red hair tied up in two pigtails."
166: 0x032E [0x23] WAIT_FOR_DIALOG_INTERACTION
167: 0x032F [0x01] GOTO 0x03C8
168: 0x0332 [0x02] IF !(ExtData[1]->WorkLocal[8] == 6*) GOTO 0x0341
169: 0x033A [0x1D] PRINT_EVENT_MESSAGE(message_id=8097*)
    → "Prince Trion prefers Tarutaru girls with voluminous blonde hair parted in two and tied back behind the ears."
170: 0x033D [0x23] WAIT_FOR_DIALOG_INTERACTION
171: 0x033E [0x01] GOTO 0x03C8
172: 0x0341 [0x02] IF !(ExtData[1]->WorkLocal[8] == 7*) GOTO 0x0350
173: 0x0349 [0x1D] PRINT_EVENT_MESSAGE(message_id=8098*)
    → "Prince Trion prefers Tarutaru girls with voluminous reddish-blonde hair parted in two and tied back behind the ears."
174: 0x034C [0x23] WAIT_FOR_DIALOG_INTERACTION
175: 0x034D [0x01] GOTO 0x03C8
176: 0x0350 [0x02] IF !(ExtData[1]->WorkLocal[8] == 8*) GOTO 0x035F
177: 0x0358 [0x1D] PRINT_EVENT_MESSAGE(message_id=8087*)
    → "Prince Trion prefers Tarutaru girls with blue hair parted in the front, and tied back in a ponytail."
178: 0x035B [0x23] WAIT_FOR_DIALOG_INTERACTION
179: 0x035C [0x01] GOTO 0x03C8
180: 0x035F [0x02] IF !(ExtData[1]->WorkLocal[8] == 9*) GOTO 0x036E
181: 0x0367 [0x1D] PRINT_EVENT_MESSAGE(message_id=8088*)
    → "Prince Trion prefers Tarutaru girls with brown hair parted in the front, and tied back in a ponytail."
182: 0x036A [0x23] WAIT_FOR_DIALOG_INTERACTION
183: 0x036B [0x01] GOTO 0x03C8
184: 0x036E [0x02] IF !(ExtData[1]->WorkLocal[8] == 10*) GOTO 0x037D
185: 0x0376 [0x1D] PRINT_EVENT_MESSAGE(message_id=8091*)
    → "Prince Trion prefers Tarutaru girls with silver hair tied in three braids and cut straight across the forehead."
186: 0x0379 [0x23] WAIT_FOR_DIALOG_INTERACTION
187: 0x037A [0x01] GOTO 0x03C8
188: 0x037D [0x02] IF !(ExtData[1]->WorkLocal[8] == 11*) GOTO 0x038C
189: 0x0385 [0x1D] PRINT_EVENT_MESSAGE(message_id=8092*)
    → "Prince Trion prefers Tarutaru girls with bluish-white hair tied in three braids and cut straight across the forehead."
190: 0x0388 [0x23] WAIT_FOR_DIALOG_INTERACTION
191: 0x0389 [0x01] GOTO 0x03C8
192: 0x038C [0x02] IF !(ExtData[1]->WorkLocal[8] == 12*) GOTO 0x039B
193: 0x0394 [0x1D] PRINT_EVENT_MESSAGE(message_id=8095*)
    → "Prince Trion prefers Tarutaru girls with green hair tied up in two pigtails."
194: 0x0397 [0x23] WAIT_FOR_DIALOG_INTERACTION
195: 0x0398 [0x01] GOTO 0x03C8
196: 0x039B [0x02] IF !(ExtData[1]->WorkLocal[8] == 13*) GOTO 0x03AA
197: 0x03A3 [0x1D] PRINT_EVENT_MESSAGE(message_id=8096*)
    → "Prince Trion prefers Tarutaru girls with blonde hair tied up in two pigtails."
198: 0x03A6 [0x23] WAIT_FOR_DIALOG_INTERACTION
199: 0x03A7 [0x01] GOTO 0x03C8
200: 0x03AA [0x02] IF !(ExtData[1]->WorkLocal[8] == 14*) GOTO 0x03B9
201: 0x03B2 [0x1D] PRINT_EVENT_MESSAGE(message_id=8099*)
    → "Prince Trion prefers Tarutaru girls with voluminous brown hair parted in two and tied back behind the ears."
202: 0x03B5 [0x23] WAIT_FOR_DIALOG_INTERACTION
203: 0x03B6 [0x01] GOTO 0x03C8
204: 0x03B9 [0x02] IF !(ExtData[1]->WorkLocal[8] == 15*) GOTO 0x03C8
205: 0x03C1 [0x1D] PRINT_EVENT_MESSAGE(message_id=8100*)
    → "Prince Trion prefers Tarutaru girls with voluminous green hair parted in two and tied back behind the ears."
206: 0x03C4 [0x23] WAIT_FOR_DIALOG_INTERACTION
207: 0x03C5 [0x01] GOTO 0x03C8

SUBROUTINE_03C8:
208: 0x03C8 [0x01] GOTO 0x04C6
209: 0x03CB [0x02] IF !(ExtData[1]->WorkLocal[7] == 7*) GOTO 0x04C6
210: 0x03D3 [0x02] IF !(ExtData[1]->WorkLocal[8] == 0*) GOTO 0x03E2
211: 0x03DB [0x1D] PRINT_EVENT_MESSAGE(message_id=8101*)
    → "Prince Trion prefers Mithra with longish red hair held back with a brown band."
212: 0x03DE [0x23] WAIT_FOR_DIALOG_INTERACTION
213: 0x03DF [0x01] GOTO 0x04C3
214: 0x03E2 [0x02] IF !(ExtData[1]->WorkLocal[8] == 1*) GOTO 0x03F1
215: 0x03EA [0x1D] PRINT_EVENT_MESSAGE(message_id=8102*)
    → "Prince Trion prefers Mithra with longish chestnut-colored hair held back with a red band."
216: 0x03ED [0x23] WAIT_FOR_DIALOG_INTERACTION
217: 0x03EE [0x01] GOTO 0x04C3
218: 0x03F1 [0x02] IF !(ExtData[1]->WorkLocal[8] == 2*) GOTO 0x0400
219: 0x03F9 [0x1D] PRINT_EVENT_MESSAGE(message_id=8103*)
    → "Prince Trion prefers Mithra with short white hair and white markings on the cheeks."
220: 0x03FC [0x23] WAIT_FOR_DIALOG_INTERACTION
221: 0x03FD [0x01] GOTO 0x04C3
222: 0x0400 [0x02] IF !(ExtData[1]->WorkLocal[8] == 3*) GOTO 0x040F
223: 0x0408 [0x1D] PRINT_EVENT_MESSAGE(message_id=8104*)
    → "Prince Trion prefers Mithra with short silver hair and white markings on the cheeks."
224: 0x040B [0x23] WAIT_FOR_DIALOG_INTERACTION
225: 0x040C [0x01] GOTO 0x04C3
226: 0x040F [0x02] IF !(ExtData[1]->WorkLocal[8] == 4*) GOTO 0x041E
227: 0x0417 [0x1D] PRINT_EVENT_MESSAGE(message_id=8105*)
    → "Prince Trion prefers Mithra with silver hair cut straight across the forehead, and white markings around the eyes and on the cheeks."
228: 0x041A [0x23] WAIT_FOR_DIALOG_INTERACTION
229: 0x041B [0x01] GOTO 0x04C3
230: 0x041E [0x02] IF !(ExtData[1]->WorkLocal[8] == 5*) GOTO 0x042D
231: 0x0426 [0x1D] PRINT_EVENT_MESSAGE(message_id=8106*)
    → "Prince Trion prefers Mithra with red hair cut straight across the forehead, and purple markings around the eyes and on the cheeks."
232: 0x0429 [0x23] WAIT_FOR_DIALOG_INTERACTION
233: 0x042A [0x01] GOTO 0x04C3
234: 0x042D [0x02] IF !(ExtData[1]->WorkLocal[8] == 6*) GOTO 0x043C
235: 0x0435 [0x1D] PRINT_EVENT_MESSAGE(message_id=8107*)
    → "Prince Trion prefers Mithra with blonde hair tied in two braids on either side of the face."
236: 0x0438 [0x23] WAIT_FOR_DIALOG_INTERACTION
237: 0x0439 [0x01] GOTO 0x04C3
238: 0x043C [0x02] IF !(ExtData[1]->WorkLocal[8] == 7*) GOTO 0x044B
239: 0x0444 [0x1D] PRINT_EVENT_MESSAGE(message_id=8108*)
    → "Prince Trion prefers Mithra with red hair tied in two braids on either side of the face."
240: 0x0447 [0x23] WAIT_FOR_DIALOG_INTERACTION
241: 0x0448 [0x01] GOTO 0x04C3
242: 0x044B [0x02] IF !(ExtData[1]->WorkLocal[8] == 8*) GOTO 0x045A
243: 0x0453 [0x1D] PRINT_EVENT_MESSAGE(message_id=8109*)
    → "Prince Trion prefers Mithra with voluminous red hair tied back with a lavender ribbon."
244: 0x0456 [0x23] WAIT_FOR_DIALOG_INTERACTION
245: 0x0457 [0x01] GOTO 0x04C3
246: 0x045A [0x02] IF !(ExtData[1]->WorkLocal[8] == 9*) GOTO 0x0469
247: 0x0462 [0x1D] PRINT_EVENT_MESSAGE(message_id=8110*)
    → "Prince Trion prefers Mithra with voluminous chestnut-colored hair tied back with a lavender ribbon."
248: 0x0465 [0x23] WAIT_FOR_DIALOG_INTERACTION
249: 0x0466 [0x01] GOTO 0x04C3
250: 0x0469 [0x02] IF !(ExtData[1]->WorkLocal[8] == 10*) GOTO 0x0478
251: 0x0471 [0x1D] PRINT_EVENT_MESSAGE(message_id=8111*)
    → "Prince Trion prefers Mithra with wild white hair flowing over a headband."
252: 0x0474 [0x23] WAIT_FOR_DIALOG_INTERACTION
253: 0x0475 [0x01] GOTO 0x04C3
254: 0x0478 [0x02] IF !(ExtData[1]->WorkLocal[8] == 11*) GOTO 0x0487
255: 0x0480 [0x1D] PRINT_EVENT_MESSAGE(message_id=8112*)
    → "Prince Trion prefers Mithra with wild red hair flowing over a headband."
256: 0x0483 [0x23] WAIT_FOR_DIALOG_INTERACTION
257: 0x0484 [0x01] GOTO 0x04C3
258: 0x0487 [0x02] IF !(ExtData[1]->WorkLocal[8] == 12*) GOTO 0x0496
259: 0x048F [0x1D] PRINT_EVENT_MESSAGE(message_id=8113*)
    → "Prince Trion prefers Mithra with blonde hair that almost hides the eyebrows, and is tied back in a short ponytail."
260: 0x0492 [0x23] WAIT_FOR_DIALOG_INTERACTION
261: 0x0493 [0x01] GOTO 0x04C3
262: 0x0496 [0x02] IF !(ExtData[1]->WorkLocal[8] == 13*) GOTO 0x04A5
263: 0x049E [0x1D] PRINT_EVENT_MESSAGE(message_id=8114*)
    → "Prince Trion prefers Mithra with brown hair that almost hides the eyebrows, and is tied back in a short ponytail."
264: 0x04A1 [0x23] WAIT_FOR_DIALOG_INTERACTION
265: 0x04A2 [0x01] GOTO 0x04C3
266: 0x04A5 [0x02] IF !(ExtData[1]->WorkLocal[8] == 14*) GOTO 0x04B4
267: 0x04AD [0x1D] PRINT_EVENT_MESSAGE(message_id=8115*)
    → "Prince Trion prefers Mithra with a colorful headband and brown hair tied in the back in two small pigtails."
268: 0x04B0 [0x23] WAIT_FOR_DIALOG_INTERACTION
269: 0x04B1 [0x01] GOTO 0x04C3
270: 0x04B4 [0x02] IF !(ExtData[1]->WorkLocal[8] == 15*) GOTO 0x04C3
271: 0x04BC [0x1D] PRINT_EVENT_MESSAGE(message_id=8116*)
    → "Prince Trion prefers Mithra with a colorful headband and blonde hair tied in the back in two small pigtails."
272: 0x04BF [0x23] WAIT_FOR_DIALOG_INTERACTION
273: 0x04C0 [0x01] GOTO 0x04C3

SUBROUTINE_04C3:
274: 0x04C3 [0x01] GOTO 0x04C6

SUBROUTINE_04C6:
275: 0x04C6 [0x1B] RETURN
```

### Event 66

#### Metadata

| Field        | Value    |
|--------------|----------|
| Entrypoint   | 0x04C7   |
| Data Size    | 38 bytes |
| Instructions | 6        |

```
      00 01 02 03 04 05 06 07  08 09 0A 0B 0C 0D 0E 0F
      -- -- -- -- -- -- -- --  -- -- -- -- -- -- -- --
04C0:                      94  01 F8 FF FF 7F 22 00 37         ......".7
04D0: 5D 80 5E 80 5F 80 60 80  80 F8 FF FF 7F 5B 61 80  ].^._.`......[a.
04E0: 05 90 0E 01 05 90 0E 01  74 68 6B 30 00           ........thk0.   
```

#### Opcodes

```
  0: 0x04C7 [0x94] EventEntity->Render.Flags3 ^= 0x01
  1: 0x04CD [0x22] ENTITY_HIDE_FLAG(enabled=0x00)
  2: 0x04CF [0x37] UPDATE_EVENT_POSITION_AND_DIR: x=-37.915*, z=27.388*, y=-3.764*, direction=271.2°*
  3: 0x04D8 [0x80] LOAD_WAIT(entity=EventEntity)
  4: 0x04DD [0x5B] LOAD_EXT_SCHEDULER: Load scheduler "thk0" with entities [Pieuje (ID: 17731589/0x010E9005), Pieuje (ID: 17731589/0x010E9005)], work=121*
  5: 0x04EC [0x00] END_REQSTACK()
```

### Event 65535.7

#### Metadata

| Field        | Value    |
|--------------|----------|
| Entrypoint   | 0x04ED   |
| Data Size    | 15 bytes |
| Instructions | 5        |

```
      00 01 02 03 04 05 06 07  08 09 0A 0B 0C 0D 0E 0F
      -- -- -- -- -- -- -- --  -- -- -- -- -- -- -- --
04E0:                                         32 05 80               2..
04F0: 1F 00 62 80 63 80 64 80  1F 01 6F 00              ..b.c.d...o.    
```

#### Opcodes

```
  0: 0x04ED [0x32] ExtData[1]->MainSpeed = 13* * 0.1
  1: 0x04F0 [0x1F] MOVE_ENTITY: EventEntity moves to X=4.606*, Z=43.479*, Y=-3.000*
  2: 0x04F8 [0x1F] MOVE_ENTITY: Update entity position (mode=1)
  3: 0x04FA [0x6F] WAIT_FRAME_DELAY: Yield until WaitTime reaches zero
  4: 0x04FB [0x00] END_REQSTACK()
```

### Event 65535.8

#### Metadata

| Field        | Value    |
|--------------|----------|
| Entrypoint   | 0x04FC   |
| Data Size    | 23 bytes |
| Instructions | 5        |

```
      00 01 02 03 04 05 06 07  08 09 0A 0B 0C 0D 0E 0F
      -- -- -- -- -- -- -- --  -- -- -- -- -- -- -- --
04F0:                                      32 05 80 1F              2...
0500: 00 65 80 66 80 67 80 1F  01 4A 05 90 0E 01 01 90  .e.f.g...J......
0510: 0E 01 00                                          ...             
```

#### Opcodes

```
  0: 0x04FC [0x32] ExtData[1]->MainSpeed = 13* * 0.1
  1: 0x04FF [0x1F] MOVE_ENTITY: EventEntity moves to X=2.431*, Z=40.592*, Y=-3.398*
  2: 0x0507 [0x1F] MOVE_ENTITY: Update entity position (mode=1)
  3: 0x0509 [0x4A] Pieuje (ID: 17731589/0x010E9005) looks at Destin (ID: 17731585/0x010E9001)
  4: 0x0512 [0x00] END_REQSTACK()
```

### Event 65535.9

#### Metadata

| Field        | Value    |
|--------------|----------|
| Entrypoint   | 0x0513   |
| Data Size    | 14 bytes |
| Instructions | 4        |

```
      00 01 02 03 04 05 06 07  08 09 0A 0B 0C 0D 0E 0F
      -- -- -- -- -- -- -- --  -- -- -- -- -- -- -- --
0510:          32 05 80 1F 00  68 80 69 80 6A 80 1F 01     2....h.i.j...
0520: 00                                                .               
```

#### Opcodes

```
  0: 0x0513 [0x32] ExtData[1]->MainSpeed = 13* * 0.1
  1: 0x0516 [0x1F] MOVE_ENTITY: EventEntity moves to X=-35.841*, Z=24.948*, Y=-3.750*
  2: 0x051E [0x1F] MOVE_ENTITY: Update entity position (mode=1)
  3: 0x0520 [0x00] END_REQSTACK()
```

### Event 65535.10

#### Metadata

| Field        | Value    |
|--------------|----------|
| Entrypoint   | 0x0521   |
| Data Size    | 24 bytes |
| Instructions | 6        |

```
      00 01 02 03 04 05 06 07  08 09 0A 0B 0C 0D 0E 0F
      -- -- -- -- -- -- -- --  -- -- -- -- -- -- -- --
0520:    32 05 80 37 6B 80 6C  80 6D 80 6E 80 1F 00 6F   2..7k.l.m.n...o
0530: 80 70 80 6D 80 1F 01 6F  00                       .p.m...o.       
```

#### Opcodes

```
  0: 0x0521 [0x32] ExtData[1]->MainSpeed = 13* * 0.1
  1: 0x0524 [0x37] UPDATE_EVENT_POSITION_AND_DIR: x=-34.315*, z=23.130*, y=-3.791*, direction=57.3°*
  2: 0x052D [0x1F] MOVE_ENTITY: EventEntity moves to X=-32.757*, Z=21.416*, Y=-3.791*
  3: 0x0535 [0x1F] MOVE_ENTITY: Update entity position (mode=1)
  4: 0x0537 [0x6F] WAIT_FRAME_DELAY: Yield until WaitTime reaches zero
  5: 0x0538 [0x00] END_REQSTACK()
```

### Event 48

#### Metadata

| Field        | Value    |
|--------------|----------|
| Entrypoint   | 0x0539   |
| Data Size    | 12 bytes |
| Instructions | 3        |

```
      00 01 02 03 04 05 06 07  08 09 0A 0B 0C 0D 0E 0F
      -- -- -- -- -- -- -- --  -- -- -- -- -- -- -- --
0530:                             22 01 37 71 80 72 80           ".7q.r.
0540: 0D 80 73 80 00                                    ..s..           
```

#### Opcodes

```
  0: 0x0539 [0x22] ENTITY_HIDE_FLAG(enabled=0x01)
  1: 0x053B [0x37] UPDATE_EVENT_POSITION_AND_DIR: x=32.826*, z=3.145*, y=-2.999*, direction=128.5°*
  2: 0x0544 [0x00] END_REQSTACK()
```

### Event 65535.11

#### Metadata

| Field        | Value    |
|--------------|----------|
| Entrypoint   | 0x0545   |
| Data Size    | 15 bytes |
| Instructions | 5        |

```
      00 01 02 03 04 05 06 07  08 09 0A 0B 0C 0D 0E 0F
      -- -- -- -- -- -- -- --  -- -- -- -- -- -- -- --
0540:                32 05 80  1F 00 74 80 75 80 0D 80       2....t.u...
0550: 1F 01 6F 00                                       ..o.            
```

#### Opcodes

```
  0: 0x0545 [0x32] ExtData[1]->MainSpeed = 13* * 0.1
  1: 0x0548 [0x1F] MOVE_ENTITY: EventEntity moves to X=34.886*, Z=3.690*, Y=-2.999*
  2: 0x0550 [0x1F] MOVE_ENTITY: Update entity position (mode=1)
  3: 0x0552 [0x6F] WAIT_FRAME_DELAY: Yield until WaitTime reaches zero
  4: 0x0553 [0x00] END_REQSTACK()
```

### Event 65535.12

#### Metadata

| Field        | Value    |
|--------------|----------|
| Entrypoint   | 0x0554   |
| Data Size    | 33 bytes |
| Instructions | 6        |

```
      00 01 02 03 04 05 06 07  08 09 0A 0B 0C 0D 0E 0F
      -- -- -- -- -- -- -- --  -- -- -- -- -- -- -- --
0550:             32 05 80 1F  00 76 80 77 80 0D 80 1F      2....v.w....
0560: 01 45 05 80 F8 FF FF 7F  F8 FF FF 7F 73 65 30 30  .E..........se00
0570: 02 80 22 01 00                                    .."..           
```

#### Opcodes

```
  0: 0x0554 [0x32] ExtData[1]->MainSpeed = 13* * 0.1
  1: 0x0557 [0x1F] MOVE_ENTITY: EventEntity moves to X=39.397*, Z=3.962*, Y=-2.999*
  2: 0x055F [0x1F] MOVE_ENTITY: Update entity position (mode=1)
  3: 0x0561 [0x45] LOAD_SCHEDULED_TASK: Load scheduler "se00" with entities [EventEntity, EventEntity], work=[13*, 0*]
  4: 0x0572 [0x22] ENTITY_HIDE_FLAG(enabled=0x01)
  5: 0x0574 [0x00] END_REQSTACK()
```

### Event 10

#### Metadata

| Field        | Value    |
|--------------|----------|
| Entrypoint   | 0x0575   |
| Data Size    | 12 bytes |
| Instructions | 3        |

```
      00 01 02 03 04 05 06 07  08 09 0A 0B 0C 0D 0E 0F
      -- -- -- -- -- -- -- --  -- -- -- -- -- -- -- --
0570:                22 00 37  78 80 79 80 7A 80 7B 80       ".7x.y.z.{.
0580: 00                                                .               
```

#### Opcodes

```
  0: 0x0575 [0x22] ENTITY_HIDE_FLAG(enabled=0x00)
  1: 0x0577 [0x37] UPDATE_EVENT_POSITION_AND_DIR: x=1.031*, z=8.498*, y=-1.499*, direction=271.9°*
  2: 0x0580 [0x00] END_REQSTACK()
```

### Event 9

#### Metadata

| Field        | Value   |
|--------------|---------|
| Entrypoint   | 0x0581  |
| Data Size    | 1 bytes |
| Instructions | 1       |

```
      00 01 02 03 04 05 06 07  08 09 0A 0B 0C 0D 0E 0F
      -- -- -- -- -- -- -- --  -- -- -- -- -- -- -- --
0580:    00                                              .              
```

#### Opcodes

```
  0: 0x0581 [0x00] END_REQSTACK()
```

### Event 65535.13

#### Metadata

| Field        | Value    |
|--------------|----------|
| Entrypoint   | 0x0582   |
| Data Size    | 10 bytes |
| Instructions | 2        |

```
      00 01 02 03 04 05 06 07  08 09 0A 0B 0C 0D 0E 0F
      -- -- -- -- -- -- -- --  -- -- -- -- -- -- -- --
0580:       37 7C 80 7D 80 02  80 7E 80 00                7|.}...~..    
```

#### Opcodes

```
  0: 0x0582 [0x37] UPDATE_EVENT_POSITION_AND_DIR: x=-1.339*, z=3.763*, y=0.000*, direction=266.9°*
  1: 0x058B [0x00] END_REQSTACK()
```

### Event 65535.14

#### Metadata

| Field        | Value    |
|--------------|----------|
| Entrypoint   | 0x058C   |
| Data Size    | 20 bytes |
| Instructions | 6        |

```
      00 01 02 03 04 05 06 07  08 09 0A 0B 0C 0D 0E 0F
      -- -- -- -- -- -- -- --  -- -- -- -- -- -- -- --
0580:                                      32 05 80 1F              2...
0590: 00 7F 80 80 80 02 80 1F  01 6F 1E F0 FF FF 7F 00  .........o......
```

#### Opcodes

```
  0: 0x058C [0x32] ExtData[1]->MainSpeed = 13* * 0.1
  1: 0x058F [0x1F] MOVE_ENTITY: EventEntity moves to X=-4.259*, Z=3.819*, Y=0.000*
  2: 0x0597 [0x1F] MOVE_ENTITY: Update entity position (mode=1)
  3: 0x0599 [0x6F] WAIT_FRAME_DELAY: Yield until WaitTime reaches zero
  4: 0x059A [0x1E] EventEntity looks at LocalPlayer and starts talking
  5: 0x059F [0x00] END_REQSTACK()
```

### Event 32

#### Metadata

| Field        | Value    |
|--------------|----------|
| Entrypoint   | 0x05A0   |
| Data Size    | 10 bytes |
| Instructions | 2        |

```
      00 01 02 03 04 05 06 07  08 09 0A 0B 0C 0D 0E 0F
      -- -- -- -- -- -- -- --  -- -- -- -- -- -- -- --
05A0: 37 81 80 82 80 67 80 83  80 00                    7....g....      
```

#### Opcodes

```
  0: 0x05A0 [0x37] UPDATE_EVENT_POSITION_AND_DIR: x=0.991*, z=41.370*, y=-3.398*, direction=110.7°*
  1: 0x05A9 [0x00] END_REQSTACK()
```

### Event 76

#### Metadata

| Field        | Value    |
|--------------|----------|
| Entrypoint   | 0x05AA   |
| Data Size    | 12 bytes |
| Instructions | 3        |

```
      00 01 02 03 04 05 06 07  08 09 0A 0B 0C 0D 0E 0F
      -- -- -- -- -- -- -- --  -- -- -- -- -- -- -- --
05A0:                                22 00 37 84 80 85            ".7...
05B0: 80 67 80 86 80 00                                 .g....          
```

#### Opcodes

```
  0: 0x05AA [0x22] ENTITY_HIDE_FLAG(enabled=0x00)
  1: 0x05AC [0x37] UPDATE_EVENT_POSITION_AND_DIR: x=0.898*, z=40.134*, y=-3.398*, direction=96.9°*
  2: 0x05B5 [0x00] END_REQSTACK()
```

### Event 8

#### Metadata

| Field        | Value    |
|--------------|----------|
| Entrypoint   | 0x05B6   |
| Data Size    | 20 bytes |
| Instructions | 3        |

```
      00 01 02 03 04 05 06 07  08 09 0A 0B 0C 0D 0E 0F
      -- -- -- -- -- -- -- --  -- -- -- -- -- -- -- --
05B0:                   37 87  80 88 80 67 80 89 80 79        7....g...y
05C0: 00 F8 FF FF 7F F0 FF FF  7F 00                    ..........      
```

#### Opcodes

```
  0: 0x05B6 [0x37] UPDATE_EVENT_POSITION_AND_DIR: x=2.163*, z=42.333*, y=-3.398*, direction=102.7°*
  1: 0x05BF [0x79] EventEntity looks at LocalPlayer (Basic look)
  2: 0x05C9 [0x00] END_REQSTACK()
```

### Event 65535.15

#### Metadata

| Field        | Value    |
|--------------|----------|
| Entrypoint   | 0x05CA   |
| Data Size    | 12 bytes |
| Instructions | 3        |

```
      00 01 02 03 04 05 06 07  08 09 0A 0B 0C 0D 0E 0F
      -- -- -- -- -- -- -- --  -- -- -- -- -- -- -- --
05C0:                                33 01 37 87 80 88            3.7...
05D0: 80 67 80 89 80 00                                 .g....          
```

#### Opcodes

```
  0: 0x05CA [0x33] EventEntity->Render.Flags0 |= 0x200000 // Bit 21 (flag=0x01)
  1: 0x05CC [0x37] UPDATE_EVENT_POSITION_AND_DIR: x=2.163*, z=42.333*, y=-3.398*, direction=102.7°*
  2: 0x05D5 [0x00] END_REQSTACK()
```

### Event 65535.16

#### Metadata

| Field        | Value    |
|--------------|----------|
| Entrypoint   | 0x05D6   |
| Data Size    | 14 bytes |
| Instructions | 3        |

```
      00 01 02 03 04 05 06 07  08 09 0A 0B 0C 0D 0E 0F
      -- -- -- -- -- -- -- --  -- -- -- -- -- -- -- --
05D0:                   1C 8A  80 79 00 05 90 0E 01 03        ...y......
05E0: 90 0E 01 00                                       ....            
```

#### Opcodes

```
  0: 0x05D6 [0x1C] WAIT(120* ticks)
  1: 0x05D9 [0x79] Pieuje (ID: 17731589/0x010E9005) looks at Trion (ID: 17731587/0x010E9003) (Basic look)
  2: 0x05E3 [0x00] END_REQSTACK()
```

### Event 100

#### Metadata

| Field        | Value    |
|--------------|----------|
| Entrypoint   | 0x05E4   |
| Data Size    | 10 bytes |
| Instructions | 2        |

```
      00 01 02 03 04 05 06 07  08 09 0A 0B 0C 0D 0E 0F
      -- -- -- -- -- -- -- --  -- -- -- -- -- -- -- --
05E0:             37 8B 80 8C  80 8D 80 8E 80 00            7.........  
```

#### Opcodes

```
  0: 0x05E4 [0x37] UPDATE_EVENT_POSITION_AND_DIR: x=1.018*, z=29.443*, y=-2.250*, direction=180.2°*
  1: 0x05ED [0x00] END_REQSTACK()
```

### Event 527

#### Metadata

| Field        | Value   |
|--------------|---------|
| Entrypoint   | 0x05EE  |
| Data Size    | 2 bytes |
| Instructions | 2       |

```
      00 01 02 03 04 05 06 07  08 09 0A 0B 0C 0D 0E 0F
      -- -- -- -- -- -- -- --  -- -- -- -- -- -- -- --
05E0:                                            21 00                !.
```

#### Opcodes

```
  0: 0x05EE [0x21] END_EVENT
  1: 0x05EF [0x00] END_REQSTACK()
```

### Event 75

#### Metadata

| Field        | Value    |
|--------------|----------|
| Entrypoint   | 0x05F0   |
| Data Size    | 10 bytes |
| Instructions | 2        |

```
      00 01 02 03 04 05 06 07  08 09 0A 0B 0C 0D 0E 0F
      -- -- -- -- -- -- -- --  -- -- -- -- -- -- -- --
05F0: 37 8F 80 90 80 6D 80 91  80 00                    7....m....      
```

#### Opcodes

```
  0: 0x05F0 [0x37] UPDATE_EVENT_POSITION_AND_DIR: x=-33.631*, z=20.426*, y=-3.791*, direction=3.6°*
  1: 0x05F9 [0x00] END_REQSTACK()
```

### Event 74

#### Metadata

| Field        | Value    |
|--------------|----------|
| Entrypoint   | 0x05FA   |
| Data Size    | 10 bytes |
| Instructions | 2        |

```
      00 01 02 03 04 05 06 07  08 09 0A 0B 0C 0D 0E 0F
      -- -- -- -- -- -- -- --  -- -- -- -- -- -- -- --
05F0:                                37 8F 80 90 80 6D            7....m
0600: 80 91 80 00                                       ....            
```

#### Opcodes

```
  0: 0x05FA [0x37] UPDATE_EVENT_POSITION_AND_DIR: x=-33.631*, z=20.426*, y=-3.791*, direction=3.6°*
  1: 0x0603 [0x00] END_REQSTACK()
```

### Event 65535.17

#### Metadata

| Field        | Value   |
|--------------|---------|
| Entrypoint   | 0x0604  |
| Data Size    | 9 bytes |
| Instructions | 3       |

```
      00 01 02 03 04 05 06 07  08 09 0A 0B 0C 0D 0E 0F
      -- -- -- -- -- -- -- --  -- -- -- -- -- -- -- --
0600:             2F 00 03 90  0E 01 22 00 00               /....."..   
```

#### Opcodes

```
  0: 0x0604 [0x2F] Trion (ID: 17731587/0x010E9003)->Render.Flags0 &= ~0x80000 // Bit 19
  1: 0x060A [0x22] ENTITY_HIDE_FLAG(enabled=0x00)
  2: 0x060C [0x00] END_REQSTACK()
```

### Event 65535.18

#### Metadata

| Field        | Value   |
|--------------|---------|
| Entrypoint   | 0x060D  |
| Data Size    | 6 bytes |
| Instructions | 2       |

```
      00 01 02 03 04 05 06 07  08 09 0A 0B 0C 0D 0E 0F
      -- -- -- -- -- -- -- --  -- -- -- -- -- -- -- --
0600:                                         1E F0 FF               ...
0610: FF 7F 00                                          ...             
```

#### Opcodes

```
  0: 0x060D [0x1E] EventEntity looks at LocalPlayer and starts talking
  1: 0x0612 [0x00] END_REQSTACK()
```

### Event 83

#### Metadata

| Field        | Value    |
|--------------|----------|
| Entrypoint   | 0x0613   |
| Data Size    | 27 bytes |
| Instructions | 5        |

```
      00 01 02 03 04 05 06 07  08 09 0A 0B 0C 0D 0E 0F
      -- -- -- -- -- -- -- --  -- -- -- -- -- -- -- --
0610:          22 00 2F 00 F8  FF FF 7F 6C F8 FF FF 7F     "./.....l....
0620: 02 80 0F 80 37 92 80 93  80 94 80 95 80 00        ....7.........  
```

#### Opcodes

```
  0: 0x0613 [0x22] ENTITY_HIDE_FLAG(enabled=0x00)
  1: 0x0615 [0x2F] EventEntity->Render.Flags0 &= ~0x80000 // Bit 19
  2: 0x061B [0x6C] FADE_ENTITY_COLOR(entity_id=EventEntity, end_alpha=0*, fade_time=1*)
  3: 0x0624 [0x37] UPDATE_EVENT_POSITION_AND_DIR: x=-91.435*, z=78.561*, y=0.398*, direction=161.6°*
  4: 0x062D [0x00] END_REQSTACK()
```

### Event 65535.19

#### Metadata

| Field        | Value    |
|--------------|----------|
| Entrypoint   | 0x062E   |
| Data Size    | 24 bytes |
| Instructions | 6        |

```
      00 01 02 03 04 05 06 07  08 09 0A 0B 0C 0D 0E 0F
      -- -- -- -- -- -- -- --  -- -- -- -- -- -- -- --
0620:                                            6C F8                l.
0630: FF FF 7F 96 80 0F 80 32  05 80 1F 00 97 80 98 80  .......2........
0640: 94 80 1F 01 6F 00                                 ....o.          
```

#### Opcodes

```
  0: 0x062E [0x6C] FADE_ENTITY_COLOR(entity_id=EventEntity, end_alpha=128*, fade_time=1*)
  1: 0x0637 [0x32] ExtData[1]->MainSpeed = 13* * 0.1
  2: 0x063A [0x1F] MOVE_ENTITY: EventEntity moves to X=-96.734*, Z=76.588*, Y=0.398*
  3: 0x0642 [0x1F] MOVE_ENTITY: Update entity position (mode=1)
  4: 0x0644 [0x6F] WAIT_FRAME_DELAY: Yield until WaitTime reaches zero
  5: 0x0645 [0x00] END_REQSTACK()
```

### Event 65535.20

#### Metadata

| Field        | Value    |
|--------------|----------|
| Entrypoint   | 0x0646   |
| Data Size    | 10 bytes |
| Instructions | 2        |

```
      00 01 02 03 04 05 06 07  08 09 0A 0B 0C 0D 0E 0F
      -- -- -- -- -- -- -- --  -- -- -- -- -- -- -- --
0640:                   37 99  80 9A 80 94 80 9B 80 00        7.........
```

#### Opcodes

```
  0: 0x0646 [0x37] UPDATE_EVENT_POSITION_AND_DIR: x=-101.924*, z=74.237*, y=0.398*, direction=154.7°*
  1: 0x064F [0x00] END_REQSTACK()
```

### Event 65535.21

#### Metadata

| Field        | Value    |
|--------------|----------|
| Entrypoint   | 0x0650   |
| Data Size    | 15 bytes |
| Instructions | 5        |

```
      00 01 02 03 04 05 06 07  08 09 0A 0B 0C 0D 0E 0F
      -- -- -- -- -- -- -- --  -- -- -- -- -- -- -- --
0650: 32 05 80 1F 00 9C 80 9D  80 94 80 1F 01 6F 00     2............o. 
```

#### Opcodes

```
  0: 0x0650 [0x32] ExtData[1]->MainSpeed = 13* * 0.1
  1: 0x0653 [0x1F] MOVE_ENTITY: EventEntity moves to X=-103.780*, Z=73.066*, Y=0.398*
  2: 0x065B [0x1F] MOVE_ENTITY: Update entity position (mode=1)
  3: 0x065D [0x6F] WAIT_FRAME_DELAY: Yield until WaitTime reaches zero
  4: 0x065E [0x00] END_REQSTACK()
```

### Event 65535.22

#### Metadata

| Field        | Value    |
|--------------|----------|
| Entrypoint   | 0x065F   |
| Data Size    | 10 bytes |
| Instructions | 2        |

```
      00 01 02 03 04 05 06 07  08 09 0A 0B 0C 0D 0E 0F
      -- -- -- -- -- -- -- --  -- -- -- -- -- -- -- --
0650:                                               37                 7
0660: 9E 80 9F 80 94 80 A0 80  00                       .........       
```

#### Opcodes

```
  0: 0x065F [0x37] UPDATE_EVENT_POSITION_AND_DIR: x=-104.152*, z=65.357*, y=0.398*, direction=113.8°*
  1: 0x0668 [0x00] END_REQSTACK()
```

### Event 61

#### Metadata

| Field        | Value    |
|--------------|----------|
| Entrypoint   | 0x0669   |
| Data Size    | 12 bytes |
| Instructions | 3        |

```
      00 01 02 03 04 05 06 07  08 09 0A 0B 0C 0D 0E 0F
      -- -- -- -- -- -- -- --  -- -- -- -- -- -- -- --
0660:                             22 00 37 A1 80 A2 80           ".7....
0670: 64 80 A3 80 00                                    d....           
```

#### Opcodes

```
  0: 0x0669 [0x22] ENTITY_HIDE_FLAG(enabled=0x00)
  1: 0x066B [0x37] UPDATE_EVENT_POSITION_AND_DIR: x=4.364*, z=40.688*, y=-3.000*, direction=138.8°*
  2: 0x0674 [0x00] END_REQSTACK()
```

### Event 21

#### Metadata

| Field        | Value    |
|--------------|----------|
| Entrypoint   | 0x0675   |
| Data Size    | 12 bytes |
| Instructions | 3        |

```
      00 01 02 03 04 05 06 07  08 09 0A 0B 0C 0D 0E 0F
      -- -- -- -- -- -- -- --  -- -- -- -- -- -- -- --
0670:                22 00 37  A4 80 A5 80 64 80 A6 80       ".7....d...
0680: 00                                                .               
```

#### Opcodes

```
  0: 0x0675 [0x22] ENTITY_HIDE_FLAG(enabled=0x00)
  1: 0x0677 [0x37] UPDATE_EVENT_POSITION_AND_DIR: x=1.138*, z=37.156*, y=-3.000*, direction=220.4°*
  2: 0x0680 [0x00] END_REQSTACK()
```

### Event 5

#### Metadata

| Field        | Value    |
|--------------|----------|
| Entrypoint   | 0x0681   |
| Data Size    | 12 bytes |
| Instructions | 3        |

```
      00 01 02 03 04 05 06 07  08 09 0A 0B 0C 0D 0E 0F
      -- -- -- -- -- -- -- --  -- -- -- -- -- -- -- --
0680:    22 00 37 8F 80 90 80  6D 80 91 80 00            ".7....m....   
```

#### Opcodes

```
  0: 0x0681 [0x22] ENTITY_HIDE_FLAG(enabled=0x00)
  1: 0x0683 [0x37] UPDATE_EVENT_POSITION_AND_DIR: x=-33.631*, z=20.426*, y=-3.791*, direction=3.6°*
  2: 0x068C [0x00] END_REQSTACK()
```

### Event 73

#### Metadata

| Field        | Value    |
|--------------|----------|
| Entrypoint   | 0x068D   |
| Data Size    | 12 bytes |
| Instructions | 3        |

```
      00 01 02 03 04 05 06 07  08 09 0A 0B 0C 0D 0E 0F
      -- -- -- -- -- -- -- --  -- -- -- -- -- -- -- --
0680:                                         22 00 37               ".7
0690: 8F 80 90 80 6D 80 91 80  00                       ....m....       
```

#### Opcodes

```
  0: 0x068D [0x22] ENTITY_HIDE_FLAG(enabled=0x00)
  1: 0x068F [0x37] UPDATE_EVENT_POSITION_AND_DIR: x=-33.631*, z=20.426*, y=-3.791*, direction=3.6°*
  2: 0x0698 [0x00] END_REQSTACK()
```

### Event 65535.23

#### Metadata

| Field        | Value   |
|--------------|---------|
| Entrypoint   | 0x0699  |
| Data Size    | 7 bytes |
| Instructions | 3       |

```
      00 01 02 03 04 05 06 07  08 09 0A 0B 0C 0D 0E 0F
      -- -- -- -- -- -- -- --  -- -- -- -- -- -- -- --
0690:                             39 91 80 1C A7 80 00           9......
```

#### Opcodes

```
  0: 0x0699 [0x39] SET_ENTITY_DIRECTION(direction=0.2°*)
  1: 0x069C [0x1C] WAIT(60* ticks)
  2: 0x069F [0x00] END_REQSTACK()
```

### Event 65535.24

#### Metadata

| Field        | Value    |
|--------------|----------|
| Entrypoint   | 0x06A0   |
| Data Size    | 19 bytes |
| Instructions | 3        |

```
      00 01 02 03 04 05 06 07  08 09 0A 0B 0C 0D 0E 0F
      -- -- -- -- -- -- -- --  -- -- -- -- -- -- -- --
06A0: 5B 8A 80 05 90 0E 01 05  90 0E 01 74 6C 6B 30 1C  [..........tlk0.
06B0: A8 80 00                                          ...             
```

#### Opcodes

```
  0: 0x06A0 [0x5B] LOAD_EXT_SCHEDULER: Load scheduler "tlk0" with entities [Pieuje (ID: 17731589/0x010E9005), Pieuje (ID: 17731589/0x010E9005)], work=120*
  1: 0x06AF [0x1C] WAIT(30* ticks)
  2: 0x06B2 [0x00] END_REQSTACK()
```

### Event 65535.25

#### Metadata

| Field        | Value    |
|--------------|----------|
| Entrypoint   | 0x06B3   |
| Data Size    | 29 bytes |
| Instructions | 3        |

```
      00 01 02 03 04 05 06 07  08 09 0A 0B 0C 0D 0E 0F
      -- -- -- -- -- -- -- --  -- -- -- -- -- -- -- --
06B0:          5B 8A 80 05 90  0E 01 05 90 0E 01 74 6C     [..........tl
06C0: 6B 31 53 05 90 0E 01 05  90 0E 01 74 6C 6B 31 00  k1S........tlk1.
```

#### Opcodes

```
  0: 0x06B3 [0x5B] LOAD_EXT_SCHEDULER: Load scheduler "tlk1" with entities [Pieuje (ID: 17731589/0x010E9005), Pieuje (ID: 17731589/0x010E9005)], work=120*
  1: 0x06C2 [0x53] WAIT_SCHEDULER_TASK: Wait for scheduler "tlk1" with entities [Pieuje (ID: 17731589/0x010E9005), Pieuje (ID: 17731589/0x010E9005)]
  2: 0x06CF [0x00] END_REQSTACK()
```

### Event 65535.26

#### Metadata

| Field        | Value    |
|--------------|----------|
| Entrypoint   | 0x06D0   |
| Data Size    | 19 bytes |
| Instructions | 3        |

```
      00 01 02 03 04 05 06 07  08 09 0A 0B 0C 0D 0E 0F
      -- -- -- -- -- -- -- --  -- -- -- -- -- -- -- --
06D0: 5B 61 80 05 90 0E 01 05  90 0E 01 74 68 6B 30 1C  [a.........thk0.
06E0: A8 80 00                                          ...             
```

#### Opcodes

```
  0: 0x06D0 [0x5B] LOAD_EXT_SCHEDULER: Load scheduler "thk0" with entities [Pieuje (ID: 17731589/0x010E9005), Pieuje (ID: 17731589/0x010E9005)], work=121*
  1: 0x06DF [0x1C] WAIT(30* ticks)
  2: 0x06E2 [0x00] END_REQSTACK()
```

### Event 65535.27

#### Metadata

| Field        | Value    |
|--------------|----------|
| Entrypoint   | 0x06E3   |
| Data Size    | 29 bytes |
| Instructions | 3        |

```
      00 01 02 03 04 05 06 07  08 09 0A 0B 0C 0D 0E 0F
      -- -- -- -- -- -- -- --  -- -- -- -- -- -- -- --
06E0:          5B 61 80 05 90  0E 01 05 90 0E 01 74 68     [a.........th
06F0: 6B 31 53 05 90 0E 01 05  90 0E 01 74 68 6B 31 00  k1S........thk1.
```

#### Opcodes

```
  0: 0x06E3 [0x5B] LOAD_EXT_SCHEDULER: Load scheduler "thk1" with entities [Pieuje (ID: 17731589/0x010E9005), Pieuje (ID: 17731589/0x010E9005)], work=121*
  1: 0x06F2 [0x53] WAIT_SCHEDULER_TASK: Wait for scheduler "thk1" with entities [Pieuje (ID: 17731589/0x010E9005), Pieuje (ID: 17731589/0x010E9005)]
  2: 0x06FF [0x00] END_REQSTACK()
```

### Event 65535.28

#### Metadata

| Field        | Value    |
|--------------|----------|
| Entrypoint   | 0x0700   |
| Data Size    | 19 bytes |
| Instructions | 3        |

```
      00 01 02 03 04 05 06 07  08 09 0A 0B 0C 0D 0E 0F
      -- -- -- -- -- -- -- --  -- -- -- -- -- -- -- --
0700: 5B 61 80 05 90 0E 01 05  90 0E 01 70 75 69 30 1C  [a.........pui0.
0710: A8 80 00                                          ...             
```

#### Opcodes

```
  0: 0x0700 [0x5B] LOAD_EXT_SCHEDULER: Load scheduler "pui0" with entities [Pieuje (ID: 17731589/0x010E9005), Pieuje (ID: 17731589/0x010E9005)], work=121*
  1: 0x070F [0x1C] WAIT(30* ticks)
  2: 0x0712 [0x00] END_REQSTACK()
```

### Event 65535.29

#### Metadata

| Field        | Value    |
|--------------|----------|
| Entrypoint   | 0x0713   |
| Data Size    | 29 bytes |
| Instructions | 3        |

```
      00 01 02 03 04 05 06 07  08 09 0A 0B 0C 0D 0E 0F
      -- -- -- -- -- -- -- --  -- -- -- -- -- -- -- --
0710:          5B 61 80 05 90  0E 01 05 90 0E 01 70 75     [a.........pu
0720: 69 31 53 05 90 0E 01 05  90 0E 01 70 75 69 31 00  i1S........pui1.
```

#### Opcodes

```
  0: 0x0713 [0x5B] LOAD_EXT_SCHEDULER: Load scheduler "pui1" with entities [Pieuje (ID: 17731589/0x010E9005), Pieuje (ID: 17731589/0x010E9005)], work=121*
  1: 0x0722 [0x53] WAIT_SCHEDULER_TASK: Wait for scheduler "pui1" with entities [Pieuje (ID: 17731589/0x010E9005), Pieuje (ID: 17731589/0x010E9005)]
  2: 0x072F [0x00] END_REQSTACK()
```

### Event 551

#### Metadata

| Field        | Value    |
|--------------|----------|
| Entrypoint   | 0x0730   |
| Data Size    | 10 bytes |
| Instructions | 2        |

```
      00 01 02 03 04 05 06 07  08 09 0A 0B 0C 0D 0E 0F
      -- -- -- -- -- -- -- --  -- -- -- -- -- -- -- --
0730: 37 A9 80 AA 80 AB 80 AC  80 00                    7.........      
```

#### Opcodes

```
  0: 0x0730 [0x37] UPDATE_EVENT_POSITION_AND_DIR: x=-39.630*, z=17.394*, y=-4.055*, direction=318.0°*
  1: 0x0739 [0x00] END_REQSTACK()
```

### Event 552

#### Metadata

| Field        | Value    |
|--------------|----------|
| Entrypoint   | 0x073A   |
| Data Size    | 10 bytes |
| Instructions | 2        |

```
      00 01 02 03 04 05 06 07  08 09 0A 0B 0C 0D 0E 0F
      -- -- -- -- -- -- -- --  -- -- -- -- -- -- -- --
0730:                                37 AD 80 AE 80 AF            7.....
0740: 80 B0 80 00                                       ....            
```

#### Opcodes

```
  0: 0x073A [0x37] UPDATE_EVENT_POSITION_AND_DIR: x=-37.664*, z=24.677*, y=-3.749*, direction=258.6°*
  1: 0x0743 [0x00] END_REQSTACK()
```

### Event 65535.30

#### Metadata

| Field        | Value    |
|--------------|----------|
| Entrypoint   | 0x0744   |
| Data Size    | 23 bytes |
| Instructions | 5        |

```
      00 01 02 03 04 05 06 07  08 09 0A 0B 0C 0D 0E 0F
      -- -- -- -- -- -- -- --  -- -- -- -- -- -- -- --
0740:             32 05 80 37  B1 80 B2 80 6D 80 B3 80      2..7....m...
0750: 1F 00 B4 80 B5 80 6D 80  1F 01 00                 ......m....     
```

#### Opcodes

```
  0: 0x0744 [0x32] ExtData[1]->MainSpeed = 13* * 0.1
  1: 0x0747 [0x37] UPDATE_EVENT_POSITION_AND_DIR: x=-34.066*, z=17.921*, y=-3.791*, direction=55.5°*
  2: 0x0750 [0x1F] MOVE_ENTITY: EventEntity moves to X=-33.696*, Z=16.738*, Y=-3.791*
  3: 0x0758 [0x1F] MOVE_ENTITY: Update entity position (mode=1)
  4: 0x075A [0x00] END_REQSTACK()
```

### Event 567

#### Metadata

| Field        | Value   |
|--------------|---------|
| Entrypoint   | 0x075B  |
| Data Size    | 1 bytes |
| Instructions | 1       |

```
      00 01 02 03 04 05 06 07  08 09 0A 0B 0C 0D 0E 0F
      -- -- -- -- -- -- -- --  -- -- -- -- -- -- -- --
0750:                                   00                         .    
```

#### Opcodes

```
  0: 0x075B [0x00] END_REQSTACK()
```

### Event 568

#### Metadata

| Field        | Value   |
|--------------|---------|
| Entrypoint   | 0x075C  |
| Data Size    | 1 bytes |
| Instructions | 1       |

```
      00 01 02 03 04 05 06 07  08 09 0A 0B 0C 0D 0E 0F
      -- -- -- -- -- -- -- --  -- -- -- -- -- -- -- --
0750:                                      00                       .   
```

#### Opcodes

```
  0: 0x075C [0x00] END_REQSTACK()
```

### Event 597

#### Metadata

| Field        | Value   |
|--------------|---------|
| Entrypoint   | 0x075D  |
| Data Size    | 7 bytes |
| Instructions | 2       |

```
      00 01 02 03 04 05 06 07  08 09 0A 0B 0C 0D 0E 0F
      -- -- -- -- -- -- -- --  -- -- -- -- -- -- -- --
0750:                                         92 01 F8               ...
0760: FF FF 7F 00                                       ....            
```

#### Opcodes

```
  0: 0x075D [0x92] EventEntity->Render.Flags3 ^= 0x01
  1: 0x0763 [0x00] END_REQSTACK()
```

### Event 65535.31

#### Metadata

| Field        | Value    |
|--------------|----------|
| Entrypoint   | 0x0764   |
| Data Size    | 15 bytes |
| Instructions | 5        |

```
      00 01 02 03 04 05 06 07  08 09 0A 0B 0C 0D 0E 0F
      -- -- -- -- -- -- -- --  -- -- -- -- -- -- -- --
0760:             32 05 80 1F  00 B6 80 B7 80 5F 80 1F      2........_..
0770: 01 6F 00                                          .o.             
```

#### Opcodes

```
  0: 0x0764 [0x32] ExtData[1]->MainSpeed = 13* * 0.1
  1: 0x0767 [0x1F] MOVE_ENTITY: EventEntity moves to X=-33.213*, Z=83.487*, Y=-3.764*
  2: 0x076F [0x1F] MOVE_ENTITY: Update entity position (mode=1)
  3: 0x0771 [0x6F] WAIT_FRAME_DELAY: Yield until WaitTime reaches zero
  4: 0x0772 [0x00] END_REQSTACK()
```

### Event 65535.32

#### Metadata

| Field        | Value    |
|--------------|----------|
| Entrypoint   | 0x0773   |
| Data Size    | 15 bytes |
| Instructions | 5        |

```
      00 01 02 03 04 05 06 07  08 09 0A 0B 0C 0D 0E 0F
      -- -- -- -- -- -- -- --  -- -- -- -- -- -- -- --
0770:          32 05 80 1F 00  B8 80 B9 80 5F 80 1F 01     2........_...
0780: 6F 00                                             o.              
```

#### Opcodes

```
  0: 0x0773 [0x32] ExtData[1]->MainSpeed = 13* * 0.1
  1: 0x0776 [0x1F] MOVE_ENTITY: EventEntity moves to X=-34.706*, Z=83.270*, Y=-3.764*
  2: 0x077E [0x1F] MOVE_ENTITY: Update entity position (mode=1)
  3: 0x0780 [0x6F] WAIT_FRAME_DELAY: Yield until WaitTime reaches zero
  4: 0x0781 [0x00] END_REQSTACK()
```

### Event 65535.33

#### Metadata

| Field        | Value    |
|--------------|----------|
| Entrypoint   | 0x0782   |
| Data Size    | 44 bytes |
| Instructions | 10       |

```
      00 01 02 03 04 05 06 07  08 09 0A 0B 0C 0D 0E 0F
      -- -- -- -- -- -- -- --  -- -- -- -- -- -- -- --
0780:       32 05 80 1F 00 BA  80 BB 80 AF 80 1F 01 1F    2.............
0790: 00 BC 80 BD 80 BE 80 1F  01 1F 00 BF 80 C0 80 64  ...............d
07A0: 80 1F 01 6F 6C F8 FF FF  7F 02 80 0F 80 00        ...ol.........  
```

#### Opcodes

```
  0: 0x0782 [0x32] ExtData[1]->MainSpeed = 13* * 0.1
  1: 0x0785 [0x1F] MOVE_ENTITY: EventEntity moves to X=-36.851*, Z=81.446*, Y=-3.749*
  2: 0x078D [0x1F] MOVE_ENTITY: Update entity position (mode=1)
  3: 0x078F [0x1F] MOVE_ENTITY: EventEntity moves to X=-37.982*, Z=77.210*, Y=-3.751*
  4: 0x0797 [0x1F] MOVE_ENTITY: Update entity position (mode=1)
  5: 0x0799 [0x1F] MOVE_ENTITY: EventEntity moves to X=-38.555*, Z=69.721*, Y=-3.000*
  6: 0x07A1 [0x1F] MOVE_ENTITY: Update entity position (mode=1)
  7: 0x07A3 [0x6F] WAIT_FRAME_DELAY: Yield until WaitTime reaches zero
  8: 0x07A4 [0x6C] FADE_ENTITY_COLOR(entity_id=EventEntity, end_alpha=0*, fade_time=1*)
  9: 0x07AD [0x00] END_REQSTACK()
```

### Event 65535.34

#### Metadata

| Field        | Value    |
|--------------|----------|
| Entrypoint   | 0x07AE   |
| Data Size    | 16 bytes |
| Instructions | 2        |

```
      00 01 02 03 04 05 06 07  08 09 0A 0B 0C 0D 0E 0F
      -- -- -- -- -- -- -- --  -- -- -- -- -- -- -- --
07A0:                                            5B 8A                [.
07B0: 80 05 90 0E 01 05 90 0E  01 74 6C 6B 30 00        .........tlk0.  
```

#### Opcodes

```
  0: 0x07AE [0x5B] LOAD_EXT_SCHEDULER: Load scheduler "tlk0" with entities [Pieuje (ID: 17731589/0x010E9005), Pieuje (ID: 17731589/0x010E9005)], work=120*
  1: 0x07BD [0x00] END_REQSTACK()
```

### Event 65535.35

#### Metadata

| Field        | Value   |
|--------------|---------|
| Entrypoint   | 0x07BE  |
| Data Size    | 4 bytes |
| Instructions | 2       |

```
      00 01 02 03 04 05 06 07  08 09 0A 0B 0C 0D 0E 0F
      -- -- -- -- -- -- -- --  -- -- -- -- -- -- -- --
07B0:                                            1C C1                ..
07C0: 80 00                                             ..              
```

#### Opcodes

```
  0: 0x07BE [0x1C] WAIT(90* ticks)
  1: 0x07C1 [0x00] END_REQSTACK()
```

### Event 65535.36

#### Metadata

| Field        | Value    |
|--------------|----------|
| Entrypoint   | 0x07C2   |
| Data Size    | 16 bytes |
| Instructions | 2        |

```
      00 01 02 03 04 05 06 07  08 09 0A 0B 0C 0D 0E 0F
      -- -- -- -- -- -- -- --  -- -- -- -- -- -- -- --
07C0:       5B 8A 80 05 90 0E  01 05 90 0E 01 74 6C 6B    [..........tlk
07D0: 31 00                                             1.              
```

#### Opcodes

```
  0: 0x07C2 [0x5B] LOAD_EXT_SCHEDULER: Load scheduler "tlk1" with entities [Pieuje (ID: 17731589/0x010E9005), Pieuje (ID: 17731589/0x010E9005)], work=120*
  1: 0x07D1 [0x00] END_REQSTACK()
```

### Event 65535.37

#### Metadata

| Field        | Value    |
|--------------|----------|
| Entrypoint   | 0x07D2   |
| Data Size    | 14 bytes |
| Instructions | 2        |

```
      00 01 02 03 04 05 06 07  08 09 0A 0B 0C 0D 0E 0F
      -- -- -- -- -- -- -- --  -- -- -- -- -- -- -- --
07D0:       53 05 90 0E 01 05  90 0E 01 74 6C 6B 31 00    S........tlk1.
```

#### Opcodes

```
  0: 0x07D2 [0x53] WAIT_SCHEDULER_TASK: Wait for scheduler "tlk1" with entities [Pieuje (ID: 17731589/0x010E9005), Pieuje (ID: 17731589/0x010E9005)]
  1: 0x07DF [0x00] END_REQSTACK()
```

### Event 65535.38

#### Metadata

| Field        | Value    |
|--------------|----------|
| Entrypoint   | 0x07E0   |
| Data Size    | 16 bytes |
| Instructions | 2        |

```
      00 01 02 03 04 05 06 07  08 09 0A 0B 0C 0D 0E 0F
      -- -- -- -- -- -- -- --  -- -- -- -- -- -- -- --
07E0: 5B 61 80 05 90 0E 01 05  90 0E 01 74 68 6B 30 00  [a.........thk0.
```

#### Opcodes

```
  0: 0x07E0 [0x5B] LOAD_EXT_SCHEDULER: Load scheduler "thk0" with entities [Pieuje (ID: 17731589/0x010E9005), Pieuje (ID: 17731589/0x010E9005)], work=121*
  1: 0x07EF [0x00] END_REQSTACK()
```

### Event 65535.39

#### Metadata

| Field        | Value    |
|--------------|----------|
| Entrypoint   | 0x07F0   |
| Data Size    | 14 bytes |
| Instructions | 2        |

```
      00 01 02 03 04 05 06 07  08 09 0A 0B 0C 0D 0E 0F
      -- -- -- -- -- -- -- --  -- -- -- -- -- -- -- --
07F0: 53 F8 FF FF 7F F8 FF FF  7F 74 68 6B 30 00        S........thk0.  
```

#### Opcodes

```
  0: 0x07F0 [0x53] WAIT_SCHEDULER_TASK: Wait for scheduler "thk0" with entities [EventEntity, EventEntity]
  1: 0x07FD [0x00] END_REQSTACK()
```

### Event 65535.40

#### Metadata

| Field        | Value    |
|--------------|----------|
| Entrypoint   | 0x07FE   |
| Data Size    | 16 bytes |
| Instructions | 2        |

```
      00 01 02 03 04 05 06 07  08 09 0A 0B 0C 0D 0E 0F
      -- -- -- -- -- -- -- --  -- -- -- -- -- -- -- --
07F0:                                            5B 61                [a
0800: 80 05 90 0E 01 05 90 0E  01 74 68 6B 31 00        .........thk1.  
```

#### Opcodes

```
  0: 0x07FE [0x5B] LOAD_EXT_SCHEDULER: Load scheduler "thk1" with entities [Pieuje (ID: 17731589/0x010E9005), Pieuje (ID: 17731589/0x010E9005)], work=121*
  1: 0x080D [0x00] END_REQSTACK()
```

### Event 65535.41

#### Metadata

| Field        | Value    |
|--------------|----------|
| Entrypoint   | 0x080E   |
| Data Size    | 14 bytes |
| Instructions | 2        |

```
      00 01 02 03 04 05 06 07  08 09 0A 0B 0C 0D 0E 0F
      -- -- -- -- -- -- -- --  -- -- -- -- -- -- -- --
0800:                                            53 05                S.
0810: 90 0E 01 05 90 0E 01 74  68 6B 31 00              .......thk1.    
```

#### Opcodes

```
  0: 0x080E [0x53] WAIT_SCHEDULER_TASK: Wait for scheduler "thk1" with entities [Pieuje (ID: 17731589/0x010E9005), Pieuje (ID: 17731589/0x010E9005)]
  1: 0x081B [0x00] END_REQSTACK()
```

### Event 598

#### Metadata

| Field        | Value   |
|--------------|---------|
| Entrypoint   | 0x081C  |
| Data Size    | 7 bytes |
| Instructions | 2       |

```
      00 01 02 03 04 05 06 07  08 09 0A 0B 0C 0D 0E 0F
      -- -- -- -- -- -- -- --  -- -- -- -- -- -- -- --
0810:                                      92 01 F8 FF              ....
0820: FF 7F 00                                          ...             
```

#### Opcodes

```
  0: 0x081C [0x92] EventEntity->Render.Flags3 ^= 0x01
  1: 0x0822 [0x00] END_REQSTACK()
```

### Event 65535.42

#### Metadata

| Field        | Value    |
|--------------|----------|
| Entrypoint   | 0x0823   |
| Data Size    | 15 bytes |
| Instructions | 5        |

```
      00 01 02 03 04 05 06 07  08 09 0A 0B 0C 0D 0E 0F
      -- -- -- -- -- -- -- --  -- -- -- -- -- -- -- --
0820:          32 05 80 1F 00  C2 80 C3 80 02 80 1F 01     2............
0830: 6F 00                                             o.              
```

#### Opcodes

```
  0: 0x0823 [0x32] ExtData[1]->MainSpeed = 13* * 0.1
  1: 0x0826 [0x1F] MOVE_ENTITY: EventEntity moves to X=-23.707*, Z=4.827*, Y=0.000*
  2: 0x082E [0x1F] MOVE_ENTITY: Update entity position (mode=1)
  3: 0x0830 [0x6F] WAIT_FRAME_DELAY: Yield until WaitTime reaches zero
  4: 0x0831 [0x00] END_REQSTACK()
```

### Event 65535.43

#### Metadata

| Field        | Value    |
|--------------|----------|
| Entrypoint   | 0x0832   |
| Data Size    | 15 bytes |
| Instructions | 5        |

```
      00 01 02 03 04 05 06 07  08 09 0A 0B 0C 0D 0E 0F
      -- -- -- -- -- -- -- --  -- -- -- -- -- -- -- --
0830:       32 05 80 1F 00 C4  80 C5 80 0D 80 1F 01 6F    2............o
0840: 00                                                .               
```

#### Opcodes

```
  0: 0x0832 [0x32] ExtData[1]->MainSpeed = 13* * 0.1
  1: 0x0835 [0x1F] MOVE_ENTITY: EventEntity moves to X=-34.401*, Z=4.981*, Y=-2.999*
  2: 0x083D [0x1F] MOVE_ENTITY: Update entity position (mode=1)
  3: 0x083F [0x6F] WAIT_FRAME_DELAY: Yield until WaitTime reaches zero
  4: 0x0840 [0x00] END_REQSTACK()
```

### Event 65535.44

#### Metadata

| Field        | Value    |
|--------------|----------|
| Entrypoint   | 0x0841   |
| Data Size    | 22 bytes |
| Instructions | 8        |

```
      00 01 02 03 04 05 06 07  08 09 0A 0B 0C 0D 0E 0F
      -- -- -- -- -- -- -- --  -- -- -- -- -- -- -- --
0840:    32 05 80 1F 00 C6 80  C7 80 02 80 1F 01 6F 1E   2............o.
0850: 08 90 0E 01 6F 70 00                              ....op.         
```

#### Opcodes

```
  0: 0x0841 [0x32] ExtData[1]->MainSpeed = 13* * 0.1
  1: 0x0844 [0x1F] MOVE_ENTITY: EventEntity moves to X=-22.856*, Z=1.985*, Y=0.000*
  2: 0x084C [0x1F] MOVE_ENTITY: Update entity position (mode=1)
  3: 0x084E [0x6F] WAIT_FRAME_DELAY: Yield until WaitTime reaches zero
  4: 0x084F [0x1E] EventEntity looks at Rahal (ID: 17731592/0x010E9008) and starts talking
  5: 0x0854 [0x6F] WAIT_FRAME_DELAY: Yield until WaitTime reaches zero
  6: 0x0855 [0x70] WAIT_ENTITY_RENDER_FLAG: Wait while EventEntity->Render.Flags3 bit 2 is set (cancel turn if not)
  7: 0x0856 [0x00] END_REQSTACK()
```

### Event 65535.45

#### Metadata

| Field        | Value    |
|--------------|----------|
| Entrypoint   | 0x0857   |
| Data Size    | 27 bytes |
| Instructions | 8        |

```
      00 01 02 03 04 05 06 07  08 09 0A 0B 0C 0D 0E 0F
      -- -- -- -- -- -- -- --  -- -- -- -- -- -- -- --
0850:                      32  05 80 1F 00 C8 80 C9 80         2........
0860: 02 80 1F 01 1F 00 CA 80  CB 80 02 80 1F 01 6F 22  ..............o"
0870: 01 00                                             ..              
```

#### Opcodes

```
  0: 0x0857 [0x32] ExtData[1]->MainSpeed = 13* * 0.1
  1: 0x085A [0x1F] MOVE_ENTITY: EventEntity moves to X=-22.710*, Z=-4.071*, Y=0.000*
  2: 0x0862 [0x1F] MOVE_ENTITY: Update entity position (mode=1)
  3: 0x0864 [0x1F] MOVE_ENTITY: EventEntity moves to X=-20.151*, Z=-4.002*, Y=0.000*
  4: 0x086C [0x1F] MOVE_ENTITY: Update entity position (mode=1)
  5: 0x086E [0x6F] WAIT_FRAME_DELAY: Yield until WaitTime reaches zero
  6: 0x086F [0x22] ENTITY_HIDE_FLAG(enabled=0x01)
  7: 0x0871 [0x00] END_REQSTACK()
```

### Event 603

#### Metadata

| Field        | Value   |
|--------------|---------|
| Entrypoint   | 0x0872  |
| Data Size    | 7 bytes |
| Instructions | 2       |

```
      00 01 02 03 04 05 06 07  08 09 0A 0B 0C 0D 0E 0F
      -- -- -- -- -- -- -- --  -- -- -- -- -- -- -- --
0870:       92 01 F8 FF FF 7F  00                         .......       
```

#### Opcodes

```
  0: 0x0872 [0x92] EventEntity->Render.Flags3 ^= 0x01
  1: 0x0878 [0x00] END_REQSTACK()
```

### Event 65535.46

#### Metadata

| Field        | Value    |
|--------------|----------|
| Entrypoint   | 0x0879   |
| Data Size    | 15 bytes |
| Instructions | 5        |

```
      00 01 02 03 04 05 06 07  08 09 0A 0B 0C 0D 0E 0F
      -- -- -- -- -- -- -- --  -- -- -- -- -- -- -- --
0870:                             32 05 80 1F 00 CC 80           2......
0880: CD 80 AF 80 1F 01 6F 00                           ......o.        
```

#### Opcodes

```
  0: 0x0879 [0x32] ExtData[1]->MainSpeed = 13* * 0.1
  1: 0x087C [0x1F] MOVE_ENTITY: EventEntity moves to X=-35.597*, Z=85.691*, Y=-3.749*
  2: 0x0884 [0x1F] MOVE_ENTITY: Update entity position (mode=1)
  3: 0x0886 [0x6F] WAIT_FRAME_DELAY: Yield until WaitTime reaches zero
  4: 0x0887 [0x00] END_REQSTACK()
```
