# 17731633

## Common Data

| Field            | Value                         |
|------------------|-------------------------------|
| Zone             | Chateau d'Oraguille (ID: 233) |
| Block Size       | 176 bytes                     |
| Total Events     | 6                             |
| References Count | 8                             |

## List of Events

| Event ID                 | Entrypoint   |   Size |   Instructions |
|--------------------------|--------------|--------|----------------|
| [65535](#event-65535)    | 0x0000       |      1 |              1 |
| [99](#event-99)          | 0x0001       |     10 |              2 |
| [65535.1](#event-655351) | 0x000B       |      6 |              2 |
| [65535.2](#event-655352) | 0x0011       |     37 |             13 |
| [65535.3](#event-655353) | 0x0036       |     19 |              3 |
| [65535.4](#event-655354) | 0x0049       |     29 |              3 |

## DAT References (imed_data)

|   Index | Hex Value   |   Dec Value |
|---------|-------------|-------------|
|       0 | 0x03D2      |         978 |
|       1 | 0xFFFFE23D  |  4294959677 |
|       2 | 0x0000      |           0 |
|       3 | 0x0AA6      |        2726 |
|       4 | 0x001E      |          30 |
|       5 | 0x000A      |          10 |
|       6 | 0x000D      |          13 |
|       7 | 0xFFFFC2F7  |  4294951671 |

## Events

### Event 65535

#### Metadata

| Field        | Value   |
|--------------|---------|
| Entrypoint   | 0x0000  |
| Data Size    | 1 bytes |
| Instructions | 1       |

```
      00 01 02 03 04 05 06 07  08 09 0A 0B 0C 0D 0E 0F
      -- -- -- -- -- -- -- --  -- -- -- -- -- -- -- --
0000: 00                                                .               
```

#### Opcodes

```
  0: 0x0000 [0x00] END_REQSTACK()
```

### Event 99

#### Metadata

| Field        | Value    |
|--------------|----------|
| Entrypoint   | 0x0001   |
| Data Size    | 10 bytes |
| Instructions | 2        |

```
      00 01 02 03 04 05 06 07  08 09 0A 0B 0C 0D 0E 0F
      -- -- -- -- -- -- -- --  -- -- -- -- -- -- -- --
0000:    37 00 80 01 80 02 80  03 80 00                  7.........     
```

#### Opcodes

```
  0: 0x0001 [0x37] UPDATE_EVENT_POSITION_AND_DIR: x=0.978*, z=-7.619*, y=0.000*, direction=239.6°*
  1: 0x000A [0x00] END_REQSTACK()
```

### Event 65535.1

#### Metadata

| Field        | Value   |
|--------------|---------|
| Entrypoint   | 0x000B  |
| Data Size    | 6 bytes |
| Instructions | 2       |

```
      00 01 02 03 04 05 06 07  08 09 0A 0B 0C 0D 0E 0F
      -- -- -- -- -- -- -- --  -- -- -- -- -- -- -- --
0000:                                   1E 30 90 0E 01             .0...
0010: 00                                                .               
```

#### Opcodes

```
  0: 0x000B [0x1E] EventEntity looks at Unnamed NPC (ID: 17731632/0x010E9030) and starts talking
  1: 0x0010 [0x00] END_REQSTACK()
```

### Event 65535.2

#### Metadata

| Field        | Value    |
|--------------|----------|
| Entrypoint   | 0x0011   |
| Data Size    | 37 bytes |
| Instructions | 13       |

```
      00 01 02 03 04 05 06 07  08 09 0A 0B 0C 0D 0E 0F
      -- -- -- -- -- -- -- --  -- -- -- -- -- -- -- --
0010:    1C 04 80 1E 30 90 0E  01 6F 70 1C 05 80 1E 30   ....0...op....0
0020: 90 0E 01 6F 70 1C 05 80  32 06 80 1F 00 00 80 07  ...op...2.......
0030: 80 02 80 1F 01 00                                 ......          
```

#### Opcodes

```
  0: 0x0011 [0x1C] WAIT(30* ticks)
  1: 0x0014 [0x1E] EventEntity looks at Unnamed NPC (ID: 17731632/0x010E9030) and starts talking
  2: 0x0019 [0x6F] WAIT_FRAME_DELAY: Yield until WaitTime reaches zero
  3: 0x001A [0x70] WAIT_ENTITY_RENDER_FLAG: Wait while EventEntity->Render.Flags3 bit 2 is set (cancel turn if not)
  4: 0x001B [0x1C] WAIT(10* ticks)
  5: 0x001E [0x1E] EventEntity looks at Unnamed NPC (ID: 17731632/0x010E9030) and starts talking
  6: 0x0023 [0x6F] WAIT_FRAME_DELAY: Yield until WaitTime reaches zero
  7: 0x0024 [0x70] WAIT_ENTITY_RENDER_FLAG: Wait while EventEntity->Render.Flags3 bit 2 is set (cancel turn if not)
  8: 0x0025 [0x1C] WAIT(10* ticks)
  9: 0x0028 [0x32] ExtData[1]->MainSpeed = 13* * 0.1
 10: 0x002B [0x1F] MOVE_ENTITY: EventEntity moves to X=0.978*, Z=-15.625*, Y=0.000*
 11: 0x0033 [0x1F] MOVE_ENTITY: Update entity position (mode=1)
 12: 0x0035 [0x00] END_REQSTACK()
```

### Event 65535.3

#### Metadata

| Field        | Value    |
|--------------|----------|
| Entrypoint   | 0x0036   |
| Data Size    | 19 bytes |
| Instructions | 3        |

```
      00 01 02 03 04 05 06 07  08 09 0A 0B 0C 0D 0E 0F
      -- -- -- -- -- -- -- --  -- -- -- -- -- -- -- --
0030:                   66 04  80 F8 FF FF 7F F8 FF FF        f.........
0040: 7F 74 6C 6B 30 1C 04 80  00                       .tlk0....       
```

#### Opcodes

```
  0: 0x0036 [0x66] LOAD_EXT_SCHEDULER_MAIN: Load scheduler "tlk0" with entities [EventEntity, EventEntity], work=30*
  1: 0x0045 [0x1C] WAIT(30* ticks)
  2: 0x0048 [0x00] END_REQSTACK()
```

### Event 65535.4

#### Metadata

| Field        | Value    |
|--------------|----------|
| Entrypoint   | 0x0049   |
| Data Size    | 29 bytes |
| Instructions | 3        |

```
      00 01 02 03 04 05 06 07  08 09 0A 0B 0C 0D 0E 0F
      -- -- -- -- -- -- -- --  -- -- -- -- -- -- -- --
0040:                             66 04 80 F8 FF FF 7F           f......
0050: F8 FF FF 7F 74 6C 6B 31  53 F8 FF FF 7F F8 FF FF  ....tlk1S.......
0060: 7F 74 6C 6B 31 00                                 .tlk1.          
```

#### Opcodes

```
  0: 0x0049 [0x66] LOAD_EXT_SCHEDULER_MAIN: Load scheduler "tlk1" with entities [EventEntity, EventEntity], work=30*
  1: 0x0058 [0x53] WAIT_SCHEDULER_TASK: Wait for scheduler "tlk1" with entities [EventEntity, EventEntity]
  2: 0x0065 [0x00] END_REQSTACK()
```
