# 17731684

## Common Data

| Field            | Value                         |
|------------------|-------------------------------|
| Zone             | Chateau d'Oraguille (ID: 233) |
| Block Size       | 53144 bytes                   |
| Total Events     | 27                            |
| References Count | 760                           |

## List of Events

| Event ID              | Entrypoint   |   Size |   Instructions |
|-----------------------|--------------|--------|----------------|
| [65535](#event-65535) | 0x0000       |    658 |             62 |
| [578](#event-578)     | 0x0292       |   2286 |            316 |
| [579](#event-579)     | 0x0B80       |   1898 |            241 |
| [580](#event-580)     | 0x12EA       |   1560 |            207 |
| [581](#event-581)     | 0x1902       |    132 |             26 |
| [582](#event-582)     | 0x1986       |     87 |             18 |
| [583](#event-583)     | 0x19DD       |   1869 |            242 |
| [584](#event-584)     | 0x212A       |   3371 |            445 |
| [585](#event-585)     | 0x2E55       |   4292 |            562 |
| [586](#event-586)     | 0x3F19       |   1580 |            213 |
| [587](#event-587)     | 0x4545       |     90 |             19 |
| [588](#event-588)     | 0x459F       |    141 |             28 |
| [589](#event-589)     | 0x462C       |     55 |             11 |
| [590](#event-590)     | 0x4663       |   2756 |            381 |
| [591](#event-591)     | 0x5127       |   1323 |            178 |
| [592](#event-592)     | 0x5652       |   7778 |            941 |
| [593](#event-593)     | 0x74B4       |   2566 |            330 |
| [594](#event-594)     | 0x7EBA       |    238 |             47 |
| [595](#event-595)     | 0x7FA8       |    236 |             47 |
| [596](#event-596)     | 0x8094       |     33 |              8 |
| [597](#event-597)     | 0x80B5       |   4942 |            684 |
| [598](#event-598)     | 0x9403       |   6274 |            816 |
| [599](#event-599)     | 0xAC85       |    143 |             29 |
| [600](#event-600)     | 0xAD14       |    151 |             30 |
| [601](#event-601)     | 0xADAB       |     90 |             19 |
| [602](#event-602)     | 0xAE05       |    327 |             51 |
| [603](#event-603)     | 0xAF4C       |   5101 |            675 |

## DAT References (imed_data)

|   Index | Hex Value   |   Dec Value |
|---------|-------------|-------------|
|       0 | 0x00C8      |         200 |
|       1 | 0x0000      |           0 |
|       2 | 0x00C9      |         201 |
|       3 | 0x0001      |           1 |
|       4 | 0x002D      |          45 |
|       5 | 0x0002      |           2 |
|       6 | 0x001E      |          30 |
|       7 | 0x00D7      |         215 |
|       8 | 0x0093      |         147 |
|       9 | 0xFFFFFFFF  |  4294967295 |
|      10 | 0xA5C1      |       42433 |
|      11 | 0xFFFFF2BA  |  4294963898 |
|      12 | 0x0400      |        1024 |
|      13 | 0x045E      |        1118 |
|      14 | 0x0254      |         596 |
|      15 | 0x0C3F      |        3135 |
|      16 | 0x0005      |           5 |
|      17 | 0x0348      |         840 |
|      18 | 0x0006      |           6 |
|      19 | 0x21B7      |        8631 |
|      20 | 0x21B8      |        8632 |
|      21 | 0x21B9      |        8633 |
|      22 | 0x0040      |          64 |
|      23 | 0x0078      |         120 |
|      24 | 0x21BA      |        8634 |
|      25 | 0x21BB      |        8635 |
|      26 | 0x21BC      |        8636 |
|      27 | 0x0019      |          25 |
|      28 | 0x007F      |         127 |
|      29 | 0x21BD      |        8637 |
|      30 | 0x21BE      |        8638 |
|      31 | 0x21BF      |        8639 |
|      32 | 0x21C0      |        8640 |
|      33 | 0x21C1      |        8641 |
|      34 | 0x21C2      |        8642 |
|      35 | 0x21C3      |        8643 |
|      36 | 0x21C4      |        8644 |
|      37 | 0x0014      |          20 |
|      38 | 0x21C5      |        8645 |
|      39 | 0x21C6      |        8646 |
|      40 | 0x21C7      |        8647 |
|      41 | 0x21C8      |        8648 |
|      42 | 0x21C9      |        8649 |
|      43 | 0x21CA      |        8650 |
|      44 | 0x21CB      |        8651 |
|      45 | 0x21CC      |        8652 |
|      46 | 0x21CD      |        8653 |
|      47 | 0x21CE      |        8654 |
|      48 | 0x21CF      |        8655 |
|      49 | 0x21D0      |        8656 |
|      50 | 0x21D1      |        8657 |
|      51 | 0x21D2      |        8658 |
|      52 | 0x21D3      |        8659 |
|      53 | 0x21D4      |        8660 |
|      54 | 0x21D5      |        8661 |
|      55 | 0x012C      |         300 |
|      56 | 0x08D1      |        2257 |
|      57 | 0x0068      |         104 |
|      58 | 0x0C3D      |        3133 |
|      59 | 0x0974      |        2420 |
|      60 | 0x07AE      |        1966 |
|      61 | 0x0494      |        1172 |
|      62 | 0x009C      |         156 |
|      63 | 0x21D6      |        8662 |
|      64 | 0x21D7      |        8663 |
|      65 | 0x21D8      |        8664 |
|      66 | 0x003C      |          60 |
|      67 | 0x21D9      |        8665 |
|      68 | 0x21DA      |        8666 |
|      69 | 0x21DB      |        8667 |
|      70 | 0x21DC      |        8668 |
|      71 | 0x21DD      |        8669 |
|      72 | 0x0007      |           7 |
|      73 | 0x21DE      |        8670 |
|      74 | 0x21DF      |        8671 |
|      75 | 0x000F      |          15 |
|      76 | 0x0174      |         372 |
|      77 | 0xFFFF8607  |  4294936071 |
|      78 | 0xFFFFE51F  |  4294960415 |
|      79 | 0x00A6      |         166 |
|      80 | 0xFFFF8D88  |  4294937992 |
|      81 | 0xFFFFE5A5  |  4294960549 |
|      82 | 0x04D2      |        1234 |
|      83 | 0x00A0      |         160 |
|      84 | 0x0349      |         841 |
|      85 | 0x21E3      |        8675 |
|      86 | 0x21E4      |        8676 |
|      87 | 0x21E5      |        8677 |
|      88 | 0x0008      |           8 |
|      89 | 0x21E6      |        8678 |
|      90 | 0x21E7      |        8679 |
|      91 | 0x21E8      |        8680 |
|      92 | 0x21E9      |        8681 |
|      93 | 0x0044      |          68 |
|      94 | 0x0028      |          40 |
|      95 | 0x000A      |          10 |
|      96 | 0x0015      |          21 |
|      97 | 0x21EA      |        8682 |
|      98 | 0x21EB      |        8683 |
|      99 | 0x21EC      |        8684 |
|     100 | 0x21ED      |        8685 |
|     101 | 0x0003      |           3 |
|     102 | 0x21EE      |        8686 |
|     103 | 0x21EF      |        8687 |
|     104 | 0x21F4      |        8692 |
|     105 | 0x21F5      |        8693 |
|     106 | 0x21F6      |        8694 |
|     107 | 0x0032      |          50 |
|     108 | 0x001B      |          27 |
|     109 | 0x21F7      |        8695 |
|     110 | 0x21F8      |        8696 |
|     111 | 0x21F9      |        8697 |
|     112 | 0x21FA      |        8698 |
|     113 | 0x21FB      |        8699 |
|     114 | 0x21FC      |        8700 |
|     115 | 0x21FD      |        8701 |
|     116 | 0x21FE      |        8702 |
|     117 | 0x21FF      |        8703 |
|     118 | 0x2200      |        8704 |
|     119 | 0x2201      |        8705 |
|     120 | 0x00C2      |         194 |
|     121 | 0x21E0      |        8672 |
|     122 | 0x21E1      |        8673 |
|     123 | 0x21E2      |        8674 |
|     124 | 0x00C4      |         196 |
|     125 | 0x00C6      |         198 |
|     126 | 0x21F2      |        8690 |
|     127 | 0x21F3      |        8691 |
|     128 | 0x21F0      |        8688 |
|     129 | 0x21F1      |        8689 |
|     130 | 0x00CA      |         202 |
|     131 | 0x2202      |        8706 |
|     132 | 0x0773      |        1907 |
|     133 | 0xFFFFFFD0  |  4294967248 |
|     134 | 0x0C65      |        3173 |
|     135 | 0x2203      |        8707 |
|     136 | 0x2204      |        8708 |
|     137 | 0x2205      |        8709 |
|     138 | 0x2206      |        8710 |
|     139 | 0x2207      |        8711 |
|     140 | 0x2208      |        8712 |
|     141 | 0x005A      |          90 |
|     142 | 0x2209      |        8713 |
|     143 | 0x220A      |        8714 |
|     144 | 0x220B      |        8715 |
|     145 | 0x220C      |        8716 |
|     146 | 0x220D      |        8717 |
|     147 | 0x220E      |        8718 |
|     148 | 0x220F      |        8719 |
|     149 | 0x0175      |         373 |
|     150 | 0xFFFE6113  |  4294861075 |
|     151 | 0x117DD     |       71645 |
|     152 | 0x018E      |         398 |
|     153 | 0x0C07      |        3079 |
|     154 | 0xFFFE6979  |  4294863225 |
|     155 | 0x11D1B     |       72987 |
|     156 | 0x06E9      |        1769 |
|     157 | 0xFFFEB7CA  |  4294883274 |
|     158 | 0xF8E9      |       63721 |
|     159 | 0xFFFFFBB3  |  4294966195 |
|     160 | 0x0BF8      |        3064 |
|     161 | 0x00EA      |         234 |
|     162 | 0x2212      |        8722 |
|     163 | 0x2213      |        8723 |
|     164 | 0x2214      |        8724 |
|     165 | 0x2215      |        8725 |
|     166 | 0x2216      |        8726 |
|     167 | 0x07E8      |        2024 |
|     168 | 0x2217      |        8727 |
|     169 | 0x2218      |        8728 |
|     170 | 0x2219      |        8729 |
|     171 | 0x221A      |        8730 |
|     172 | 0xFFFE871E  |  4294870814 |
|     173 | 0x12B1B     |       76571 |
|     174 | 0x06CC      |        1740 |
|     175 | 0x221B      |        8731 |
|     176 | 0x221C      |        8732 |
|     177 | 0x221D      |        8733 |
|     178 | 0x221E      |        8734 |
|     179 | 0x0004      |           4 |
|     180 | 0x221F      |        8735 |
|     181 | 0x2220      |        8736 |
|     182 | 0xFFFE69EA  |  4294863338 |
|     183 | 0x11C2F     |       72751 |
|     184 | 0x0711      |        1809 |
|     185 | 0xFFFE661B  |  4294862363 |
|     186 | 0x121AE     |       74158 |
|     187 | 0x009F      |         159 |
|     188 | 0x2221      |        8737 |
|     189 | 0x2222      |        8738 |
|     190 | 0x2223      |        8739 |
|     191 | 0x2224      |        8740 |
|     192 | 0x2225      |        8741 |
|     193 | 0x0AF0      |        2800 |
|     194 | 0x2226      |        8742 |
|     195 | 0x0CB8      |        3256 |
|     196 | 0x2227      |        8743 |
|     197 | 0x2228      |        8744 |
|     198 | 0x2229      |        8745 |
|     199 | 0x222A      |        8746 |
|     200 | 0x222B      |        8747 |
|     201 | 0x222C      |        8748 |
|     202 | 0x222D      |        8749 |
|     203 | 0x222E      |        8750 |
|     204 | 0xFFFE7936  |  4294867254 |
|     205 | 0x126F0     |       75504 |
|     206 | 0x06A9      |        1705 |
|     207 | 0xFFFE65FE  |  4294862334 |
|     208 | 0x124DB     |       74971 |
|     209 | 0x0530      |        1328 |
|     210 | 0x2234      |        8756 |
|     211 | 0x2235      |        8757 |
|     212 | 0xFFFFFC00  |  4294966272 |
|     213 | 0x019C      |         412 |
|     214 | 0x2236      |        8758 |
|     215 | 0x2237      |        8759 |
|     216 | 0x0064      |         100 |
|     217 | 0x2238      |        8760 |
|     218 | 0x2239      |        8761 |
|     219 | 0x223A      |        8762 |
|     220 | 0x223B      |        8763 |
|     221 | 0x223C      |        8764 |
|     222 | 0x223D      |        8765 |
|     223 | 0x223E      |        8766 |
|     224 | 0x223F      |        8767 |
|     225 | 0x2242      |        8770 |
|     226 | 0x0834      |        2100 |
|     227 | 0x2240      |        8768 |
|     228 | 0x2241      |        8769 |
|     229 | 0x2243      |        8771 |
|     230 | 0x2244      |        8772 |
|     231 | 0x2245      |        8773 |
|     232 | 0x2246      |        8774 |
|     233 | 0x2247      |        8775 |
|     234 | 0x2248      |        8776 |
|     235 | 0x2249      |        8777 |
|     236 | 0x224A      |        8778 |
|     237 | 0x224B      |        8779 |
|     238 | 0x224C      |        8780 |
|     239 | 0x224D      |        8781 |
|     240 | 0x224E      |        8782 |
|     241 | 0x224F      |        8783 |
|     242 | 0x2250      |        8784 |
|     243 | 0xFFFE6923  |  4294863139 |
|     244 | 0x11D5F     |       73055 |
|     245 | 0x07DC      |        2012 |
|     246 | 0x0050      |          80 |
|     247 | 0x2251      |        8785 |
|     248 | 0x2252      |        8786 |
|     249 | 0x2253      |        8787 |
|     250 | 0x2254      |        8788 |
|     251 | 0x2255      |        8789 |
|     252 | 0x2256      |        8790 |
|     253 | 0x2257      |        8791 |
|     254 | 0x2258      |        8792 |
|     255 | 0x2259      |        8793 |
|     256 | 0x225A      |        8794 |
|     257 | 0x225B      |        8795 |
|     258 | 0x225E      |        8798 |
|     259 | 0x225F      |        8799 |
|     260 | 0x2260      |        8800 |
|     261 | 0x2261      |        8801 |
|     262 | 0x2262      |        8802 |
|     263 | 0x2263      |        8803 |
|     264 | 0x2264      |        8804 |
|     265 | 0x2265      |        8805 |
|     266 | 0x2266      |        8806 |
|     267 | 0x2267      |        8807 |
|     268 | 0x2268      |        8808 |
|     269 | 0x2269      |        8809 |
|     270 | 0x226A      |        8810 |
|     271 | 0x226B      |        8811 |
|     272 | 0x226C      |        8812 |
|     273 | 0x226D      |        8813 |
|     274 | 0x00CC      |         204 |
|     275 | 0x00CE      |         206 |
|     276 | 0x2210      |        8720 |
|     277 | 0x2211      |        8721 |
|     278 | 0x00D2      |         210 |
|     279 | 0x226E      |        8814 |
|     280 | 0x226F      |        8815 |
|     281 | 0x222F      |        8751 |
|     282 | 0x2230      |        8752 |
|     283 | 0x2231      |        8753 |
|     284 | 0x00D0      |         208 |
|     285 | 0x225C      |        8796 |
|     286 | 0x225D      |        8797 |
|     287 | 0x2232      |        8754 |
|     288 | 0x2233      |        8755 |
|     289 | 0x0449      |        1097 |
|     290 | 0x1D59      |        7513 |
|     291 | 0xFFFFFA25  |  4294965797 |
|     292 | 0x03DB      |         987 |
|     293 | 0x2270      |        8816 |
|     294 | 0x2271      |        8817 |
|     295 | 0x2272      |        8818 |
|     296 | 0x2273      |        8819 |
|     297 | 0x2274      |        8820 |
|     298 | 0x0080      |         128 |
|     299 | 0x2275      |        8821 |
|     300 | 0x2276      |        8822 |
|     301 | 0x0C34      |        3124 |
|     302 | 0x2277      |        8823 |
|     303 | 0x2278      |        8824 |
|     304 | 0x2279      |        8825 |
|     305 | 0x227A      |        8826 |
|     306 | 0x227B      |        8827 |
|     307 | 0x227C      |        8828 |
|     308 | 0x227D      |        8829 |
|     309 | 0x227E      |        8830 |
|     310 | 0x227F      |        8831 |
|     311 | 0x2280      |        8832 |
|     312 | 0x2281      |        8833 |
|     313 | 0x2282      |        8834 |
|     314 | 0x2283      |        8835 |
|     315 | 0x2284      |        8836 |
|     316 | 0x2285      |        8837 |
|     317 | 0x2286      |        8838 |
|     318 | 0x2287      |        8839 |
|     319 | 0x2288      |        8840 |
|     320 | 0x2289      |        8841 |
|     321 | 0x228A      |        8842 |
|     322 | 0x228B      |        8843 |
|     323 | 0x228C      |        8844 |
|     324 | 0x228D      |        8845 |
|     325 | 0x228E      |        8846 |
|     326 | 0x228F      |        8847 |
|     327 | 0x2290      |        8848 |
|     328 | 0x2291      |        8849 |
|     329 | 0x2292      |        8850 |
|     330 | 0x2293      |        8851 |
|     331 | 0x2294      |        8852 |
|     332 | 0x2295      |        8853 |
|     333 | 0x229D      |        8861 |
|     334 | 0x229E      |        8862 |
|     335 | 0x229F      |        8863 |
|     336 | 0x22A0      |        8864 |
|     337 | 0x22A1      |        8865 |
|     338 | 0x22A2      |        8866 |
|     339 | 0x22A3      |        8867 |
|     340 | 0x22A4      |        8868 |
|     341 | 0x22A5      |        8869 |
|     342 | 0x22A6      |        8870 |
|     343 | 0x22A7      |        8871 |
|     344 | 0x22AB      |        8875 |
|     345 | 0x0176      |         374 |
|     346 | 0xFFFF6B90  |  4294929296 |
|     347 | 0x158F2     |       88306 |
|     348 | 0xFFFFF15B  |  4294963547 |
|     349 | 0xFFFF6B79  |  4294929273 |
|     350 | 0x1434C     |       82764 |
|     351 | 0x0C03      |        3075 |
|     352 | 0xFFFF53B9  |  4294923193 |
|     353 | 0x12F17     |       77591 |
|     354 | 0xFFFFF029  |  4294963241 |
|     355 | 0x0513      |        1299 |
|     356 | 0x034B      |         843 |
|     357 | 0x00E7      |         231 |
|     358 | 0x22AC      |        8876 |
|     359 | 0x22AD      |        8877 |
|     360 | 0x22AE      |        8878 |
|     361 | 0x22AF      |        8879 |
|     362 | 0x22B0      |        8880 |
|     363 | 0x22B1      |        8881 |
|     364 | 0x22B2      |        8882 |
|     365 | 0x22B3      |        8883 |
|     366 | 0x22B4      |        8884 |
|     367 | 0x22B5      |        8885 |
|     368 | 0x22B6      |        8886 |
|     369 | 0x22B7      |        8887 |
|     370 | 0x0020      |          32 |
|     371 | 0x22B8      |        8888 |
|     372 | 0x22B9      |        8889 |
|     373 | 0x22BA      |        8890 |
|     374 | 0x10EB      |        4331 |
|     375 | 0x22BB      |        8891 |
|     376 | 0x22BC      |        8892 |
|     377 | 0x22BD      |        8893 |
|     378 | 0x22BE      |        8894 |
|     379 | 0x22BF      |        8895 |
|     380 | 0x22C0      |        8896 |
|     381 | 0x22C1      |        8897 |
|     382 | 0x22C2      |        8898 |
|     383 | 0x22C3      |        8899 |
|     384 | 0x22C4      |        8900 |
|     385 | 0x22C5      |        8901 |
|     386 | 0x22C6      |        8902 |
|     387 | 0x22C7      |        8903 |
|     388 | 0x22C8      |        8904 |
|     389 | 0x22C9      |        8905 |
|     390 | 0x22CA      |        8906 |
|     391 | 0x028A      |         650 |
|     392 | 0x22CB      |        8907 |
|     393 | 0x22CC      |        8908 |
|     394 | 0x22CD      |        8909 |
|     395 | 0x22CE      |        8910 |
|     396 | 0x22CF      |        8911 |
|     397 | 0x22D0      |        8912 |
|     398 | 0x22D1      |        8913 |
|     399 | 0x22D2      |        8914 |
|     400 | 0x22D3      |        8915 |
|     401 | 0x22D4      |        8916 |
|     402 | 0x22D5      |        8917 |
|     403 | 0x22D6      |        8918 |
|     404 | 0x22D7      |        8919 |
|     405 | 0x22D8      |        8920 |
|     406 | 0x22D9      |        8921 |
|     407 | 0x22DA      |        8922 |
|     408 | 0x22DB      |        8923 |
|     409 | 0x22DC      |        8924 |
|     410 | 0x22DD      |        8925 |
|     411 | 0x22DE      |        8926 |
|     412 | 0x008C      |         140 |
|     413 | 0x22DF      |        8927 |
|     414 | 0x0046      |          70 |
|     415 | 0x22E0      |        8928 |
|     416 | 0x22E1      |        8929 |
|     417 | 0x22E2      |        8930 |
|     418 | 0x22E3      |        8931 |
|     419 | 0x22E4      |        8932 |
|     420 | 0xFFFF68BA  |  4294928570 |
|     421 | 0x142BE     |       82622 |
|     422 | 0x0469      |        1129 |
|     423 | 0x0173      |         371 |
|     424 | 0x89A9      |       35241 |
|     425 | 0x05F8      |        1528 |
|     426 | 0xFFFFF449  |  4294964297 |
|     427 | 0x0652      |        1618 |
|     428 | 0x67AF      |       26543 |
|     429 | 0xFFFFFF72  |  4294967154 |
|     430 | 0x0054      |          84 |
|     431 | 0x034C      |         844 |
|     432 | 0x22ED      |        8941 |
|     433 | 0x037B      |         891 |
|     434 | 0x22EE      |        8942 |
|     435 | 0x89F7      |       35319 |
|     436 | 0xFFFFFFD1  |  4294967249 |
|     437 | 0x0947      |        2375 |
|     438 | 0x0099      |         153 |
|     439 | 0x644A      |       25674 |
|     440 | 0xFFFFFFA9  |  4294967209 |
|     441 | 0x0034      |          52 |
|     442 | 0x6C3D      |       27709 |
|     443 | 0xFFFFFE9B  |  4294966939 |
|     444 | 0x22EF      |        8943 |
|     445 | 0x22F0      |        8944 |
|     446 | 0x22F1      |        8945 |
|     447 | 0x22F2      |        8946 |
|     448 | 0x22F3      |        8947 |
|     449 | 0x22F4      |        8948 |
|     450 | 0x22F5      |        8949 |
|     451 | 0x0214      |         532 |
|     452 | 0x22F6      |        8950 |
|     453 | 0x00D4      |         212 |
|     454 | 0x00D6      |         214 |
|     455 | 0x2296      |        8854 |
|     456 | 0x2297      |        8855 |
|     457 | 0x2298      |        8856 |
|     458 | 0x00DA      |         218 |
|     459 | 0x22A8      |        8872 |
|     460 | 0x22A9      |        8873 |
|     461 | 0x22AA      |        8874 |
|     462 | 0x00DC      |         220 |
|     463 | 0x22E6      |        8934 |
|     464 | 0x22E7      |        8935 |
|     465 | 0x00E0      |         224 |
|     466 | 0x22EA      |        8938 |
|     467 | 0x22EB      |        8939 |
|     468 | 0x22EC      |        8940 |
|     469 | 0x00E2      |         226 |
|     470 | 0x2299      |        8857 |
|     471 | 0x229A      |        8858 |
|     472 | 0x00D8      |         216 |
|     473 | 0x00DE      |         222 |
|     474 | 0x229B      |        8859 |
|     475 | 0x229C      |        8860 |
|     476 | 0x22F7      |        8951 |
|     477 | 0x00E4      |         228 |
|     478 | 0x22F8      |        8952 |
|     479 | 0x22F9      |        8953 |
|     480 | 0x22FA      |        8954 |
|     481 | 0x22E8      |        8936 |
|     482 | 0xFFFF7D69  |  4294933865 |
|     483 | 0x14EA7     |       85671 |
|     484 | 0xFFFFF14C  |  4294963532 |
|     485 | 0x036F      |         879 |
|     486 | 0xFFFF7FD3  |  4294934483 |
|     487 | 0x14A78     |       84600 |
|     488 | 0x0C7B      |        3195 |
|     489 | 0xFFFF7F2D  |  4294934317 |
|     490 | 0x13DC0     |       81344 |
|     491 | 0x0DBE      |        3518 |
|     492 | 0xFFFF6ADF  |  4294929119 |
|     493 | 0x13243     |       78403 |
|     494 | 0x0BE1      |        3041 |
|     495 | 0xFFFF6BBB  |  4294929339 |
|     496 | 0x12A13     |       76307 |
|     497 | 0x0B90      |        2960 |
|     498 | 0x22FB      |        8955 |
|     499 | 0x22FC      |        8956 |
|     500 | 0x22FD      |        8957 |
|     501 | 0x22FE      |        8958 |
|     502 | 0x22FF      |        8959 |
|     503 | 0x2300      |        8960 |
|     504 | 0xFFFF7B92  |  4294933394 |
|     505 | 0x10931     |       67889 |
|     506 | 0xFFFFF448  |  4294964296 |
|     507 | 0x07A7      |        1959 |
|     508 | 0xFFFF65C0  |  4294927808 |
|     509 | 0x109AB     |       68011 |
|     510 | 0x0F36      |        3894 |
|     511 | 0x2301      |        8961 |
|     512 | 0x2302      |        8962 |
|     513 | 0xFFFFFFEC  |  4294967276 |
|     514 | 0x2303      |        8963 |
|     515 | 0x2304      |        8964 |
|     516 | 0xFFFF72EA  |  4294931178 |
|     517 | 0x13BBD     |       80829 |
|     518 | 0x0DB1      |        3505 |
|     519 | 0x2131      |        8497 |
|     520 | 0xFFFFFF27  |  4294967079 |
|     521 | 0x13880     |       80000 |
|     522 | 0xFFFEC780  |  4294887296 |
|     523 | 0x05DC      |        1500 |
|     524 | 0x03E8      |        1000 |
|     525 | 0x2305      |        8965 |
|     526 | 0x2306      |        8966 |
|     527 | 0x2307      |        8967 |
|     528 | 0x2308      |        8968 |
|     529 | 0x2309      |        8969 |
|     530 | 0x230A      |        8970 |
|     531 | 0x230B      |        8971 |
|     532 | 0x230C      |        8972 |
|     533 | 0x230D      |        8973 |
|     534 | 0x230E      |        8974 |
|     535 | 0xFFFF74E1  |  4294931681 |
|     536 | 0x13887     |       80007 |
|     537 | 0x0F96      |        3990 |
|     538 | 0x230F      |        8975 |
|     539 | 0x2310      |        8976 |
|     540 | 0x2311      |        8977 |
|     541 | 0x2312      |        8978 |
|     542 | 0x2313      |        8979 |
|     543 | 0x2314      |        8980 |
|     544 | 0x2315      |        8981 |
|     545 | 0x01AE      |         430 |
|     546 | 0x2316      |        8982 |
|     547 | 0x2317      |        8983 |
|     548 | 0x2318      |        8984 |
|     549 | 0x0709      |        1801 |
|     550 | 0x097E      |        2430 |
|     551 | 0x2319      |        8985 |
|     552 | 0x231A      |        8986 |
|     553 | 0x231B      |        8987 |
|     554 | 0x231C      |        8988 |
|     555 | 0x231D      |        8989 |
|     556 | 0x231E      |        8990 |
|     557 | 0x0521      |        1313 |
|     558 | 0x231F      |        8991 |
|     559 | 0x2320      |        8992 |
|     560 | 0x2321      |        8993 |
|     561 | 0xFFFF656F  |  4294927727 |
|     562 | 0x0DAA      |        3498 |
|     563 | 0x0072      |         114 |
|     564 | 0xFFFF654F  |  4294927695 |
|     565 | 0x1183      |        4483 |
|     566 | 0x0ECB      |        3787 |
|     567 | 0xFFFFB6F5  |  4294948597 |
|     568 | 0xFFFFF016  |  4294963222 |
|     569 | 0x0FF9      |        4089 |
|     570 | 0xFFFFAAAB  |  4294945451 |
|     571 | 0x1753      |        5971 |
|     572 | 0x01F8      |         504 |
|     573 | 0xFFFFAAD1  |  4294945489 |
|     574 | 0xFFFFE7E1  |  4294961121 |
|     575 | 0x07F6      |        2038 |
|     576 | 0xFFFF6A33  |  4294928947 |
|     577 | 0x1699      |        5785 |
|     578 | 0xFFFF6985  |  4294928773 |
|     579 | 0x0721      |        1825 |
|     580 | 0x0F58      |        3928 |
|     581 | 0x00AA      |         170 |
|     582 | 0x034D      |         845 |
|     583 | 0x2326      |        8998 |
|     584 | 0x2327      |        8999 |
|     585 | 0x2328      |        9000 |
|     586 | 0x2329      |        9001 |
|     587 | 0x232A      |        9002 |
|     588 | 0x232B      |        9003 |
|     589 | 0x232C      |        9004 |
|     590 | 0x232D      |        9005 |
|     591 | 0x232E      |        9006 |
|     592 | 0x232F      |        9007 |
|     593 | 0x2330      |        9008 |
|     594 | 0xFFFF6957  |  4294928727 |
|     595 | 0x1716      |        5910 |
|     596 | 0xFFFF6955  |  4294928725 |
|     597 | 0x0825      |        2085 |
|     598 | 0xFFFF9193  |  4294939027 |
|     599 | 0xFFFFED5E  |  4294962526 |
|     600 | 0x0FE4      |        4068 |
|     601 | 0xFFFF90A4  |  4294938788 |
|     602 | 0xFFFFE560  |  4294960480 |
|     603 | 0xFFFFA30F  |  4294943503 |
|     604 | 0xFFFFF2E8  |  4294963944 |
|     605 | 0x0C5A      |        3162 |
|     606 | 0xFFFF9EB1  |  4294942385 |
|     607 | 0xFFFFE5BD  |  4294960573 |
|     608 | 0x0BC4      |        3012 |
|     609 | 0xFFFF9EDD  |  4294942429 |
|     610 | 0x100D      |        4109 |
|     611 | 0x0FD9      |        4057 |
|     612 | 0xFFFFA2DE  |  4294943454 |
|     613 | 0x15B6      |        5558 |
|     614 | 0x2331      |        9009 |
|     615 | 0x2332      |        9010 |
|     616 | 0x2333      |        9011 |
|     617 | 0x2334      |        9012 |
|     618 | 0x2335      |        9013 |
|     619 | 0x2336      |        9014 |
|     620 | 0x2337      |        9015 |
|     621 | 0x0F3C      |        3900 |
|     622 | 0x2338      |        9016 |
|     623 | 0x00F8      |         248 |
|     624 | 0x2339      |        9017 |
|     625 | 0x233A      |        9018 |
|     626 | 0x233B      |        9019 |
|     627 | 0x233C      |        9020 |
|     628 | 0x233D      |        9021 |
|     629 | 0x233E      |        9022 |
|     630 | 0x233F      |        9023 |
|     631 | 0x2340      |        9024 |
|     632 | 0x2341      |        9025 |
|     633 | 0x2342      |        9026 |
|     634 | 0x2343      |        9027 |
|     635 | 0x2344      |        9028 |
|     636 | 0x09C4      |        2500 |
|     637 | 0x2345      |        9029 |
|     638 | 0x2346      |        9030 |
|     639 | 0x2347      |        9031 |
|     640 | 0x2348      |        9032 |
|     641 | 0x2349      |        9033 |
|     642 | 0x0E1D      |        3613 |
|     643 | 0x234A      |        9034 |
|     644 | 0x234B      |        9035 |
|     645 | 0x234C      |        9036 |
|     646 | 0x234D      |        9037 |
|     647 | 0x234E      |        9038 |
|     648 | 0x234F      |        9039 |
|     649 | 0x2350      |        9040 |
|     650 | 0x2351      |        9041 |
|     651 | 0x2352      |        9042 |
|     652 | 0x2353      |        9043 |
|     653 | 0x2354      |        9044 |
|     654 | 0x2355      |        9045 |
|     655 | 0xFFFFAB56  |  4294945622 |
|     656 | 0xFFFFFBFF  |  4294966271 |
|     657 | 0x07FB      |        2043 |
|     658 | 0x2356      |        9046 |
|     659 | 0x2357      |        9047 |
|     660 | 0x2358      |        9048 |
|     661 | 0x00E6      |         230 |
|     662 | 0x2323      |        8995 |
|     663 | 0x2324      |        8996 |
|     664 | 0x2325      |        8997 |
|     665 | 0x00E8      |         232 |
|     666 | 0x235B      |        9051 |
|     667 | 0x235C      |        9052 |
|     668 | 0x00F0      |         240 |
|     669 | 0x235F      |        9055 |
|     670 | 0x2359      |        9049 |
|     671 | 0x235A      |        9050 |
|     672 | 0x00EC      |         236 |
|     673 | 0x235D      |        9053 |
|     674 | 0x235E      |        9054 |
|     675 | 0x00F4      |         244 |
|     676 | 0x2360      |        9056 |
|     677 | 0x2361      |        9057 |
|     678 | 0x00F6      |         246 |
|     679 | 0x00FA      |         250 |
|     680 | 0x2362      |        9058 |
|     681 | 0x2363      |        9059 |
|     682 | 0x00FC      |         252 |
|     683 | 0x2364      |        9060 |
|     684 | 0x2365      |        9061 |
|     685 | 0x0351      |         849 |
|     686 | 0x2366      |        9062 |
|     687 | 0xFFFF712C  |  4294930732 |
|     688 | 0x154CD     |       87245 |
|     689 | 0xFFFF7553  |  4294931795 |
|     690 | 0x155BA     |       87482 |
|     691 | 0x06F2      |        1778 |
|     692 | 0xFFFF6B69  |  4294929257 |
|     693 | 0x12199     |       74137 |
|     694 | 0x0C20      |        3104 |
|     695 | 0xFFFF6C00  |  4294929408 |
|     696 | 0x1145F     |       70751 |
|     697 | 0xFFFFF34F  |  4294964047 |
|     698 | 0x0BA9      |        2985 |
|     699 | 0x2367      |        9063 |
|     700 | 0x2368      |        9064 |
|     701 | 0x2369      |        9065 |
|     702 | 0xFFFF74F3  |  4294931699 |
|     703 | 0x14EBB     |       85691 |
|     704 | 0x0C64      |        3172 |
|     705 | 0x236A      |        9066 |
|     706 | 0x236B      |        9067 |
|     707 | 0x236C      |        9068 |
|     708 | 0x236D      |        9069 |
|     709 | 0x236E      |        9070 |
|     710 | 0x015E      |         350 |
|     711 | 0x236F      |        9071 |
|     712 | 0x2370      |        9072 |
|     713 | 0x2371      |        9073 |
|     714 | 0x0082      |         130 |
|     715 | 0x2372      |        9074 |
|     716 | 0x2373      |        9075 |
|     717 | 0x00C7      |         199 |
|     718 | 0x2374      |        9076 |
|     719 | 0x2375      |        9077 |
|     720 | 0x2376      |        9078 |
|     721 | 0x2377      |        9079 |
|     722 | 0x2378      |        9080 |
|     723 | 0x2379      |        9081 |
|     724 | 0x237A      |        9082 |
|     725 | 0x237B      |        9083 |
|     726 | 0x237C      |        9084 |
|     727 | 0x237D      |        9085 |
|     728 | 0x237E      |        9086 |
|     729 | 0x237F      |        9087 |
|     730 | 0x0190      |         400 |
|     731 | 0x2380      |        9088 |
|     732 | 0x2381      |        9089 |
|     733 | 0x2382      |        9090 |
|     734 | 0x2383      |        9091 |
|     735 | 0x2384      |        9092 |
|     736 | 0x2385      |        9093 |
|     737 | 0x0096      |         150 |
|     738 | 0x2386      |        9094 |
|     739 | 0x2387      |        9095 |
|     740 | 0x2388      |        9096 |
|     741 | 0x2389      |        9097 |
|     742 | 0x238A      |        9098 |
|     743 | 0x238B      |        9099 |
|     744 | 0x238C      |        9100 |
|     745 | 0x238D      |        9101 |
|     746 | 0x238E      |        9102 |
|     747 | 0x238F      |        9103 |
|     748 | 0x2390      |        9104 |
|     749 | 0x2391      |        9105 |
|     750 | 0x2392      |        9106 |
|     751 | 0x0CE0      |        3296 |
|     752 | 0x2393      |        9107 |
|     753 | 0x2394      |        9108 |
|     754 | 0x2395      |        9109 |
|     755 | 0x2396      |        9110 |
|     756 | 0xFFFF4DBA  |  4294921658 |
|     757 | 0x13145     |       78149 |
|     758 | 0x03B6      |         950 |
|     759 | 0x2397      |        9111 |

## String References

- **8497**: @@
- **8669**: Offer your assistance? [Sure./Forget it.]
- **8767**: Will you keep it a secret? [Of course./I can't.]
- **8880**: How will you convince Trion? [Talk about Claidie./Talk about dancing./Talk about Curilla.]
- **8888**: How will you convince him? [Talk about Altennia./Talk about the egg./Talk about Gaetan M. Teulomme.]
- **8900**: How will you convince him? [Do you want to see Halver cry?/What happened to Pieuje?/Don't you want to dance with Curilla?]
- **8925**: What will you ask him? [How do you feel about it?]
- **9002**: Did you speak with her? [Yes, I did./No, sorry./Who's Altennia?]
- **9039**: Accept Trion's request? [Yes./Not now.]

## Events

### Event 65535

#### Metadata

| Field        | Value     |
|--------------|-----------|
| Entrypoint   | 0x0000    |
| Data Size    | 658 bytes |
| Instructions | 1         |

```
      00 01 02 03 04 05 06 07  08 09 0A 0B 0C 0D 0E 0F
      -- -- -- -- -- -- -- --  -- -- -- -- -- -- -- --
0000: 00 45 00 80 F0 FF FF 7F  F0 FF FF 7F 66 64 69 30  .E..........fdi0
0010: 01 80 55 00 80 F0 FF FF  7F F0 FF FF 7F 66 64 69  ..U..........fdi
0020: 30 1B 45 00 80 F0 FF FF  7F F0 FF FF 7F 66 64 6F  0.E..........fdo
0030: 30 01 80 55 00 80 F0 FF  FF 7F F0 FF FF 7F 66 64  0..U..........fd
0040: 6F 30 1B 45 00 80 F0 FF  FF 7F F0 FF FF 7F 66 64  o0.E..........fd
0050: 69 31 01 80 55 00 80 F0  FF FF 7F F0 FF FF 7F 66  i1..U..........f
0060: 64 69 31 1B 45 00 80 F0  FF FF 7F F0 FF FF 7F 66  di1.E..........f
0070: 64 6F 31 01 80 55 00 80  F0 FF FF 7F F0 FF FF 7F  do1..U..........
0080: 66 64 6F 31 1B 45 02 80  F0 FF FF 7F F0 FF FF 7F  fdo1.E..........
0090: 77 68 69 31 01 80 55 02  80 F0 FF FF 7F F0 FF FF  whi1..U.........
00A0: 7F 77 68 69 31 1B 45 02  80 F0 FF FF 7F F0 FF FF  .whi1.E.........
00B0: 7F 77 68 6F 31 01 80 55  02 80 F0 FF FF 7F F0 FF  .who1..U........
00C0: FF 7F 77 68 6F 31 1B 45  02 80 F0 FF FF 7F F0 FF  ..who1.E........
00D0: FF 7F 77 68 6F 32 01 80  55 02 80 F0 FF FF 7F F0  ..who2..U.......
00E0: FF FF 7F 77 68 6F 32 1B  45 02 80 F0 FF FF 7F F0  ...who2.E.......
00F0: FF FF 7F 77 68 6F 33 01  80 55 02 80 F0 FF FF 7F  ...who3..U......
0100: F0 FF FF 7F 77 68 6F 33  1B 62 03 80 F0 FF FF 7F  ....who3.b......
0110: F0 FF FF 7F 6D 61 69 6E  01 80 1C 04 80 45 00 80  ....main.....E..
0120: F0 FF FF 7F F0 FF FF 7F  66 64 6F 31 01 80 55 00  ........fdo1..U.
0130: 80 F0 FF FF 7F F0 FF FF  7F 66 64 6F 31 1B 45 00  .........fdo1.E.
0140: 80 F0 FF FF 7F F0 FF FF  7F 66 64 69 31 01 80 62  .........fdi1..b
0150: 05 80 F0 FF FF 7F F0 FF  FF 7F 6D 61 69 6E 01 80  ..........main..
0160: 1C 06 80 55 00 80 F0 FF  FF 7F F0 FF FF 7F 66 64  ...U..........fd
0170: 69 31 1B 45 00 80 F0 FF  FF 7F F0 FF FF 7F 62 6C  i1.E..........bl
0180: 6F 6E 01 80 45 02 80 F0  FF FF 7F F0 FF FF 7F 62  on..E..........b
0190: 6C 6F 6E 01 80 1B 45 02  80 F0 FF FF 7F F0 FF FF  lon...E.........
01A0: 7F 77 68 69 30 01 80 55  02 80 F0 FF FF 7F F0 FF  .whi0..U........
01B0: FF 7F 77 68 69 30 1B 45  02 80 F0 FF FF 7F F0 FF  ..whi0.E........
01C0: FF 7F 77 68 6F 30 01 80  55 02 80 F0 FF FF 7F F0  ..who0..U.......
01D0: FF FF 7F 77 68 6F 30 1B  45 07 80 F0 FF FF 7F F0  ...who0.E.......
01E0: FF FF 7F 65 66 6F 6E 01  80 55 07 80 F0 FF FF 7F  ...efon..U......
01F0: F0 FF FF 7F 65 66 6F 6E  1B 45 00 80 F0 FF FF 7F  ....efon.E......
0200: F0 FF FF 7F 66 64 69 73  01 80 1B 45 00 80 F0 FF  ....fdis...E....
0210: FF 7F F0 FF FF 7F 66 64  6F 73 01 80 55 00 80 F0  ......fdos..U...
0220: FF FF 7F F0 FF FF 7F 66  64 6F 73 1B 45 00 80 F0  .......fdos.E...
0230: FF FF 7F F0 FF FF 7F 66  64 69 66 01 80 1B 45 00  .......fdif...E.
0240: 80 F0 FF FF 7F F0 FF FF  7F 66 64 6F 66 01 80 55  .........fdof..U
0250: 00 80 F0 FF FF 7F F0 FF  FF 7F 66 64 6F 66 1B 45  ..........fdof.E
0260: 00 80 F0 FF FF 7F F0 FF  FF 7F 66 64 69 70 01 80  ..........fdip..
0270: 1B 45 00 80 F0 FF FF 7F  F0 FF FF 7F 66 64 6F 70  .E..........fdop
0280: 01 80 55 00 80 F0 FF FF  7F F0 FF FF 7F 66 64 6F  ..U..........fdo
0290: 70 1B                                             p.              
```

#### Opcodes

```
  0: 0x0000 [0x00] END_REQSTACK()
```

#### Data or dead code:

```
# Dead code (unreachable instructions):
     0x0001 [0x45] LOAD_SCHEDULED_TASK: Load scheduler "fdi0" with entities [LocalPlayer, LocalPlayer], work=[200*, 0*]
     0x0012 [0x55] WAIT_LOAD_SCHEDULER: Wait for scheduler "fdi0" with entities [LocalPlayer, LocalPlayer], work=200*
     0x0021 [0x1B] RETURN
     0x0022 [0x45] LOAD_SCHEDULED_TASK: Load scheduler "fdo0" with entities [LocalPlayer, LocalPlayer], work=[200*, 0*]
     0x0033 [0x55] WAIT_LOAD_SCHEDULER: Wait for scheduler "fdo0" with entities [LocalPlayer, LocalPlayer], work=200*
     0x0042 [0x1B] RETURN
     0x0043 [0x45] LOAD_SCHEDULED_TASK: Load scheduler "fdi1" with entities [LocalPlayer, LocalPlayer], work=[200*, 0*]
     0x0054 [0x55] WAIT_LOAD_SCHEDULER: Wait for scheduler "fdi1" with entities [LocalPlayer, LocalPlayer], work=200*
     0x0063 [0x1B] RETURN
     0x0064 [0x45] LOAD_SCHEDULED_TASK: Load scheduler "fdo1" with entities [LocalPlayer, LocalPlayer], work=[200*, 0*]
     0x0075 [0x55] WAIT_LOAD_SCHEDULER: Wait for scheduler "fdo1" with entities [LocalPlayer, LocalPlayer], work=200*
     0x0084 [0x1B] RETURN
     0x0085 [0x45] LOAD_SCHEDULED_TASK: Load scheduler "whi1" with entities [LocalPlayer, LocalPlayer], work=[201*, 0*]
     0x0096 [0x55] WAIT_LOAD_SCHEDULER: Wait for scheduler "whi1" with entities [LocalPlayer, LocalPlayer], work=201*
     0x00A5 [0x1B] RETURN
     0x00A6 [0x45] LOAD_SCHEDULED_TASK: Load scheduler "who1" with entities [LocalPlayer, LocalPlayer], work=[201*, 0*]
     0x00B7 [0x55] WAIT_LOAD_SCHEDULER: Wait for scheduler "who1" with entities [LocalPlayer, LocalPlayer], work=201*
     0x00C6 [0x1B] RETURN
     0x00C7 [0x45] LOAD_SCHEDULED_TASK: Load scheduler "who2" with entities [LocalPlayer, LocalPlayer], work=[201*, 0*]
     0x00D8 [0x55] WAIT_LOAD_SCHEDULER: Wait for scheduler "who2" with entities [LocalPlayer, LocalPlayer], work=201*
     0x00E7 [0x1B] RETURN
     0x00E8 [0x45] LOAD_SCHEDULED_TASK: Load scheduler "who3" with entities [LocalPlayer, LocalPlayer], work=[201*, 0*]
     0x00F9 [0x55] WAIT_LOAD_SCHEDULER: Wait for scheduler "who3" with entities [LocalPlayer, LocalPlayer], work=201*
     0x0108 [0x1B] RETURN
     0x0109 [0x62] LOAD_EVENT_SCHEDULER: Load scheduler "main" with entities [LocalPlayer, LocalPlayer], work=[1*, 0*]
     0x011A [0x1C] WAIT(45* ticks)
     0x011D [0x45] LOAD_SCHEDULED_TASK: Load scheduler "fdo1" with entities [LocalPlayer, LocalPlayer], work=[200*, 0*]
     0x012E [0x55] WAIT_LOAD_SCHEDULER: Wait for scheduler "fdo1" with entities [LocalPlayer, LocalPlayer], work=200*
     0x013D [0x1B] RETURN
     0x013E [0x45] LOAD_SCHEDULED_TASK: Load scheduler "fdi1" with entities [LocalPlayer, LocalPlayer], work=[200*, 0*]
     0x014F [0x62] LOAD_EVENT_SCHEDULER: Load scheduler "main" with entities [LocalPlayer, LocalPlayer], work=[2*, 0*]
     0x0160 [0x1C] WAIT(30* ticks)
     0x0163 [0x55] WAIT_LOAD_SCHEDULER: Wait for scheduler "fdi1" with entities [LocalPlayer, LocalPlayer], work=200*
     0x0172 [0x1B] RETURN
     0x0173 [0x45] LOAD_SCHEDULED_TASK: Load scheduler "blon" with entities [LocalPlayer, LocalPlayer], work=[200*, 0*]
     0x0184 [0x45] LOAD_SCHEDULED_TASK: Load scheduler "blon" with entities [LocalPlayer, LocalPlayer], work=[201*, 0*]
     0x0195 [0x1B] RETURN
     0x0196 [0x45] LOAD_SCHEDULED_TASK: Load scheduler "whi0" with entities [LocalPlayer, LocalPlayer], work=[201*, 0*]
     0x01A7 [0x55] WAIT_LOAD_SCHEDULER: Wait for scheduler "whi0" with entities [LocalPlayer, LocalPlayer], work=201*
     0x01B6 [0x1B] RETURN
     0x01B7 [0x45] LOAD_SCHEDULED_TASK: Load scheduler "who0" with entities [LocalPlayer, LocalPlayer], work=[201*, 0*]
     0x01C8 [0x55] WAIT_LOAD_SCHEDULER: Wait for scheduler "who0" with entities [LocalPlayer, LocalPlayer], work=201*
     0x01D7 [0x1B] RETURN
     0x01D8 [0x45] LOAD_SCHEDULED_TASK: Load scheduler "efon" with entities [LocalPlayer, LocalPlayer], work=[215*, 0*]
     0x01E9 [0x55] WAIT_LOAD_SCHEDULER: Wait for scheduler "efon" with entities [LocalPlayer, LocalPlayer], work=215*
     0x01F8 [0x1B] RETURN
     0x01F9 [0x45] LOAD_SCHEDULED_TASK: Load scheduler "fdis" with entities [LocalPlayer, LocalPlayer], work=[200*, 0*]
     0x020A [0x1B] RETURN
     0x020B [0x45] LOAD_SCHEDULED_TASK: Load scheduler "fdos" with entities [LocalPlayer, LocalPlayer], work=[200*, 0*]
     0x021C [0x55] WAIT_LOAD_SCHEDULER: Wait for scheduler "fdos" with entities [LocalPlayer, LocalPlayer], work=200*
     0x022B [0x1B] RETURN
     0x022C [0x45] LOAD_SCHEDULED_TASK: Load scheduler "fdif" with entities [LocalPlayer, LocalPlayer], work=[200*, 0*]
     0x023D [0x1B] RETURN
     0x023E [0x45] LOAD_SCHEDULED_TASK: Load scheduler "fdof" with entities [LocalPlayer, LocalPlayer], work=[200*, 0*]
     0x024F [0x55] WAIT_LOAD_SCHEDULER: Wait for scheduler "fdof" with entities [LocalPlayer, LocalPlayer], work=200*
     0x025E [0x1B] RETURN
     0x025F [0x45] LOAD_SCHEDULED_TASK: Load scheduler "fdip" with entities [LocalPlayer, LocalPlayer], work=[200*, 0*]
     0x0270 [0x1B] RETURN
     0x0271 [0x45] LOAD_SCHEDULED_TASK: Load scheduler "fdop" with entities [LocalPlayer, LocalPlayer], work=[200*, 0*]
     0x0282 [0x55] WAIT_LOAD_SCHEDULER: Wait for scheduler "fdop" with entities [LocalPlayer, LocalPlayer], work=200*
     0x0291 [0x1B] RETURN
```

### Event 578

#### Metadata

| Field        | Value      |
|--------------|------------|
| Entrypoint   | 0x0292     |
| Data Size    | 2286 bytes |
| Instructions | 316        |

```
      00 01 02 03 04 05 06 07  08 09 0A 0B 0C 0D 0E 0F
      -- -- -- -- -- -- -- --  -- -- -- -- -- -- -- --
0290:       42 03 01 00 03 10  1A 64 00 46 01 38 08 80    B......d.F.8..
02A0: 2F 00 01 90 0E 01 92 01  07 90 0E 01 92 01 11 90  /...............
02B0: 0E 01 92 01 12 90 0E 01  92 01 13 90 0E 01 92 01  ................
02C0: 14 90 0E 01 92 01 15 90  0E 01 94 01 07 90 0E 01  ................
02D0: 94 01 01 90 0E 01 94 01  11 90 0E 01 94 01 12 90  ................
02E0: 0E 01 94 01 13 90 0E 01  94 01 14 90 0E 01 94 01  ................
02F0: 15 90 0E 01 94 01 F0 FF  FF 7F BA 02 90 0E 01 09  ................
0300: 80 0A 80 0B 80 0C 80 BA  F0 FF FF 7F 0D 80 0E 80  ................
0310: 01 80 0F 80 80 07 90 0E  01 80 11 90 0E 01 80 12  ................
0320: 90 0E 01 80 13 90 0E 01  80 14 90 0E 01 80 15 90  ................
0330: 0E 01 80 F0 FF FF 7F 29  08 F0 FF FF 7F 81 4A 07  .......)......J.
0340: 90 0E 01 F0 FF FF 7F 4A  F0 FF FF 7F 07 90 0E 01  .......J........
0350: 6F 76 07 90 0E 01 6F 76  F0 FF FF 7F 02 09 10 10  ov....ov........
0360: 80 00 78 03 45 11 80 F8  FF FF 7F F8 FF FF 7F 73  ..x.E..........s
0370: 30 32 32 01 80 01 A5 03  02 09 10 12 80 00 94 03  022.............
0380: 45 11 80 F8 FF FF 7F F8  FF FF 7F 73 30 32 32 01  E..........s022.
0390: 80 01 A5 03 45 11 80 F8  FF FF 7F F8 FF FF 7F 73  ....E..........s
03A0: 30 31 38 01 80 1A 43 00  29 08 07 90 0E 01 40 02  018...C.).....@.
03B0: 01 00 03 80 00 C2 03 2B  07 90 0E 01 13 80 23 01  .......+......#.
03C0: CA 03 2B 07 90 0E 01 14  80 23 2B 07 90 0E 01 15  ..+......#+.....
03D0: 80 23 5D 16 80 17 80 1A  64 00 29 08 07 90 0E 01  .#].....d.).....
03E0: 41 02 09 10 10 80 00 FB  03 52 11 80 F8 FF FF 7F  A........R......
03F0: F8 FF FF 7F 73 30 32 32  01 24 04 02 09 10 12 80  ....s022.$......
0400: 00 15 04 52 11 80 F8 FF  FF 7F F8 FF FF 7F 73 30  ...R..........s0
0410: 32 32 01 24 04 52 11 80  F8 FF FF 7F F8 FF FF 7F  22.$.R..........
0420: 73 30 31 38 4E 00 01 90  0E 01 80 01 90 0E 01 37  s018N..........7
0430: 01 80 01 80 01 80 01 80  97 01 80 03 80 29 03 07  .............)..
0440: 90 0E 01 5F 27 04 07 90  0E 01 60 45 11 80 F8 FF  ..._'.....`E....
0450: FF 7F F8 FF FF 7F 73 30  30 30 01 80 1A 43 00 2A  ......s000...C.*
0460: 04 07 90 0E 01 27 03 07  90 0E 01 02 2B 07 90 0E  .....'......+...
0470: 01 18 80 23 52 11 80 F8  FF FF 7F F8 FF FF 7F 73  ...#R..........s
0480: 30 30 30 45 11 80 F8 FF  FF 7F F8 FF FF 7F 73 30  000E..........s0
0490: 30 31 01 80 2A 03 07 90  0E 01 27 03 01 90 0E 01  01..*.....'.....
04A0: 10 2B 01 90 0E 01 19 80  23 27 03 01 90 0E 01 11  .+......#'......
04B0: 2B 07 90 0E 01 1A 80 23  5C 00 1B 80 5C 01 1B 80  +......#\...\...
04C0: 9A 5D 1C 80 03 80 52 11  80 F8 FF FF 7F F8 FF FF  .]....R.........
04D0: 7F 73 30 30 31 45 11 80  F8 FF FF 7F F8 FF FF 7F  .s001E..........
04E0: 73 30 30 32 01 80 2B 01  90 0E 01 1D 80 23 2B 01  s002..+......#+.
04F0: 90 0E 01 1E 80 23 27 03  07 90 0E 01 04 52 11 80  .....#'......R..
0500: F8 FF FF 7F F8 FF FF 7F  73 30 30 32 45 11 80 F8  ........s002E...
0510: FF FF 7F F8 FF FF 7F 73  30 30 33 01 80 2B 07 90  .......s003..+..
0520: 0E 01 1F 80 23 2B 07 90  0E 01 20 80 23 52 11 80  ....#+.... .#R..
0530: F8 FF FF 7F F8 FF FF 7F  73 30 30 33 45 11 80 F8  ........s003E...
0540: FF FF 7F F8 FF FF 7F 73  30 30 34 01 80 2B 07 90  .......s004..+..
0550: 0E 01 21 80 23 52 11 80  F8 FF FF 7F F8 FF FF 7F  ..!.#R..........
0560: 73 30 30 34 45 11 80 F8  FF FF 7F F8 FF FF 7F 73  s004E..........s
0570: 30 30 35 01 80 27 03 01  90 0E 01 12 2B 07 90 0E  005..'......+...
0580: 01 22 80 23 5D 01 80 01  80 2B 01 90 0E 01 23 80  .".#]....+....#.
0590: 27 03 07 90 0E 01 05 52  11 80 F8 FF FF 7F F8 FF  '......R........
05A0: FF 7F 73 30 30 35 45 11  80 F8 FF FF 7F F8 FF FF  ..s005E.........
05B0: 7F 73 30 30 36 01 80 1C  10 80 23 2B 07 90 0E 01  .s006.....#+....
05C0: 24 80 23 52 11 80 F8 FF  FF 7F F8 FF FF 7F 73 30  $.#R..........s0
05D0: 30 36 45 11 80 F8 FF FF  7F F8 FF FF 7F 73 30 30  06E..........s00
05E0: 37 01 80 27 03 01 90 0E  01 13 1C 25 80 5D 1C 80  7..'.......%.]..
05F0: 17 80 2B 01 90 0E 01 26  80 23 2A 03 01 90 0E 01  ..+....&.#*.....
0600: 52 11 80 F8 FF FF 7F F8  FF FF 7F 73 30 30 37 45  R..........s007E
0610: 11 80 F8 FF FF 7F F8 FF  FF 7F 73 30 30 38 01 80  ..........s008..
0620: 29 08 07 90 0E 01 40 2B  07 90 0E 01 27 80 23 27  ).....@+....'.#'
0630: 08 07 90 0E 01 41 2B 01  90 0E 01 28 80 23 2A 08  .....A+....(.#*.
0640: 07 90 0E 01 52 11 80 F8  FF FF 7F F8 FF FF 7F 73  ....R..........s
0650: 30 30 38 45 11 80 F8 FF  FF 7F F8 FF FF 7F 73 30  008E..........s0
0660: 30 39 01 80 2B 07 90 0E  01 29 80 23 27 03 01 90  09..+....).#'...
0670: 0E 01 10 2B 01 90 0E 01  2A 80 23 27 03 01 90 0E  ...+....*.#'....
0680: 01 11 52 11 80 F8 FF FF  7F F8 FF FF 7F 73 30 30  ..R..........s00
0690: 39 45 11 80 F8 FF FF 7F  F8 FF FF 7F 73 30 31 30  9E..........s010
06A0: 01 80 2B 07 90 0E 01 2B  80 23 2B 01 90 0E 01 2C  ..+....+.#+....,
06B0: 80 23 52 11 80 F8 FF FF  7F F8 FF FF 7F 73 30 31  .#R..........s01
06C0: 30 45 11 80 F8 FF FF 7F  F8 FF FF 7F 73 30 31 32  0E..........s012
06D0: 01 80 29 08 07 90 0E 01  40 2B 07 90 0E 01 2D 80  ..).....@+....-.
06E0: 23 52 11 80 F8 FF FF 7F  F8 FF FF 7F 73 30 31 32  #R..........s012
06F0: 45 11 80 F8 FF FF 7F F8  FF FF 7F 73 30 31 34 01  E..........s014.
0700: 80 27 08 07 90 0E 01 41  2B 01 90 0E 01 2E 80 23  .'.....A+......#
0710: 2A 08 07 90 0E 01 52 11  80 F8 FF FF 7F F8 FF FF  *.....R.........
0720: 7F 73 30 31 34 45 11 80  F8 FF FF 7F F8 FF FF 7F  .s014E..........
0730: 73 30 31 31 01 80 2B 01  90 0E 01 2F 80 23 2B 01  s011..+..../.#+.
0740: 90 0E 01 30 80 23 52 11  80 F8 FF FF 7F F8 FF FF  ...0.#R.........
0750: 7F 73 30 31 31 45 11 80  F8 FF FF 7F F8 FF FF 7F  .s011E..........
0760: 73 30 30 36 01 80 27 03  01 90 0E 01 10 2B 01 90  s006..'......+..
0770: 0E 01 31 80 23 29 03 01  90 0E 01 11 29 08 07 90  ..1.#)......)...
0780: 0E 01 40 2B 07 90 0E 01  32 80 23 52 11 80 F8 FF  ..@+....2.#R....
0790: FF 7F F8 FF FF 7F 73 30  30 36 45 11 80 F8 FF FF  ......s006E.....
07A0: 7F F8 FF FF 7F 73 30 30  33 01 80 2B 07 90 0E 01  .....s003..+....
07B0: 33 80 23 52 11 80 F8 FF  FF 7F F8 FF FF 7F 73 30  3.#R..........s0
07C0: 30 33 45 11 80 F8 FF FF  7F F8 FF FF 7F 73 30 31  03E..........s01
07D0: 33 01 80 5D 01 80 01 80  27 08 07 90 0E 01 41 27  3..]....'.....A'
07E0: 03 01 90 0E 01 10 2B 01  90 0E 01 34 80 23 2A 08  ......+....4.#*.
07F0: 07 90 0E 01 52 11 80 F8  FF FF 7F F8 FF FF 7F 73  ....R..........s
0800: 30 31 33 45 11 80 F8 FF  FF 7F F8 FF FF 7F 73 30  013E..........s0
0810: 31 35 01 80 5D 1C 80 17  80 27 03 01 90 0E 01 11  15..]....'......
0820: 27 03 07 90 0E 01 06 2B  07 90 0E 01 35 80 23 52  '......+....5.#R
0830: 11 80 F8 FF FF 7F F8 FF  FF 7F 73 30 31 35 45 11  ..........s015E.
0840: 80 F8 FF FF 7F F8 FF FF  7F 73 30 30 39 01 80 27  .........s009..'
0850: 03 07 90 0E 01 07 2A 03  07 90 0E 01 27 03 07 90  ......*.....'...
0860: 0E 01 02 2B 07 90 0E 01  36 80 23 5D 01 80 37 80  ...+....6.#]..7.
0870: 1A 64 00 2A 03 07 90 0E  01 52 11 80 F8 FF FF 7F  .d.*.....R......
0880: F8 FF FF 7F 73 30 30 39  37 38 80 39 80 01 80 3A  ....s00978.9...:
0890: 80 BA 07 90 0E 01 3B 80  3C 80 01 80 3D 80 29 03  ......;.<...=.).
08A0: 07 90 0E 01 16 4A 07 90  0E 01 F0 FF FF 7F 4A F0  .....J........J.
08B0: FF FF 7F 07 90 0E 01 6F  76 07 90 0E 01 6F 76 F0  .......ov....ov.
08C0: FF FF 7F 5C 00 3E 80 5C  01 3E 80 9A 5D 1C 80 03  ...\.>.\.>..]...
08D0: 80 29 08 07 90 0E 01 40  45 11 80 F8 FF FF 7F F8  .).....@E.......
08E0: FF FF 7F 73 30 31 36 01  80 1A 43 00 1C 06 80 2B  ...s016...C....+
08F0: 07 90 0E 01 3F 80 23 52  11 80 F8 FF FF 7F F8 FF  ....?.#R........
0900: FF 7F 73 30 31 36 02 09  10 10 80 00 22 09 45 11  ..s016......".E.
0910: 80 F8 FF FF 7F F8 FF FF  7F 73 30 35 37 01 80 01  .........s057...
0920: 4F 09 02 09 10 12 80 00  3E 09 45 11 80 F8 FF FF  O.......>.E.....
0930: 7F F8 FF FF 7F 73 30 35  37 01 80 01 4F 09 45 11  .....s057...O.E.
0940: 80 F8 FF FF 7F F8 FF FF  7F 73 30 31 37 01 80 2B  .........s017..+
0950: 07 90 0E 01 40 80 23 2B  07 90 0E 01 41 80 1C 42  ....@.#+....A..B
0960: 80 23 29 08 07 90 0E 01  41 02 09 10 10 80 00 83  .#).....A.......
0970: 09 52 11 80 F8 FF FF 7F  F8 FF FF 7F 73 30 35 37  .R..........s057
0980: 01 AC 09 02 09 10 12 80  00 9D 09 52 11 80 F8 FF  ...........R....
0990: FF 7F F8 FF FF 7F 73 30  35 37 01 AC 09 52 11 80  ......s057...R..
09A0: F8 FF FF 7F F8 FF FF 7F  73 30 31 37 45 11 80 F8  ........s017E...
09B0: FF FF 7F F8 FF FF 7F 73  30 31 39 01 80 29 08 07  .......s019..)..
09C0: 90 0E 01 40 2B 07 90 0E  01 43 80 23 2B 07 90 0E  ...@+....C.#+...
09D0: 01 44 80 23 29 08 07 90  0E 01 41 52 11 80 F8 FF  .D.#).....AR....
09E0: FF 7F F8 FF FF 7F 73 30  31 39 02 09 10 10 80 00  ......s019......
09F0: 06 0A 45 11 80 F8 FF FF  7F F8 FF FF 7F 73 30 32  ..E..........s02
0A00: 32 01 80 01 33 0A 02 09  10 12 80 00 22 0A 45 11  2...3.......".E.
0A10: 80 F8 FF FF 7F F8 FF FF  7F 73 30 32 32 01 80 01  .........s022...
0A20: 33 0A 45 11 80 F8 FF FF  7F F8 FF FF 7F 73 30 31  3.E..........s01
0A30: 38 01 80 27 08 07 90 0E  01 28 02 01 00 03 80 00  8..'.....(......
0A40: 4D 0A 2B 07 90 0E 01 45  80 23 01 55 0A 2B 07 90  M.+....E.#.U.+..
0A50: 0E 01 46 80 23 2A 08 07  90 0E 01 24 47 80 01 80  ..F.#*.....$G...
0A60: 01 80 25 02 00 10 01 80  00 D4 0A 6E F0 FF FF 7F  ..%........n....
0A70: 48 80 99 F0 FF FF 7F 1C  42 80 29 08 07 90 0E 01  H.......B.).....
0A80: 40 2B 07 90 0E 01 49 80  23 02 09 10 10 80 00 A3  @+....I.#.......
0A90: 0A 52 11 80 F8 FF FF 7F  F8 FF FF 7F 73 30 32 32  .R..........s022
0AA0: 01 CC 0A 02 09 10 12 80  00 BD 0A 52 11 80 F8 FF  ...........R....
0AB0: FF 7F F8 FF FF 7F 73 30  32 32 01 CC 0A 52 11 80  ......s022...R..
0AC0: F8 FF FF 7F F8 FF FF 7F  73 30 31 38 03 01 10 03  ........s018....
0AD0: 80 01 4C 0B 02 00 10 03  80 00 4C 0B 6E F0 FF FF  ..L.......L.n...
0AE0: 7F 12 80 99 F0 FF FF 7F  1C 42 80 29 08 07 90 0E  .........B.)....
0AF0: 01 42 2B 07 90 0E 01 4A  80 23 29 08 07 90 0E 01  .B+....J.#).....
0B00: 43 02 09 10 10 80 00 1B  0B 52 11 80 F8 FF FF 7F  C........R......
0B10: F8 FF FF 7F 73 30 32 32  01 44 0B 02 09 10 12 80  ....s022.D......
0B20: 00 35 0B 52 11 80 F8 FF  FF 7F F8 FF FF 7F 73 30  .5.R..........s0
0B30: 32 32 01 44 0B 52 11 80  F8 FF FF 7F F8 FF FF 7F  22.D.R..........
0B40: 73 30 31 38 03 01 10 01  80 01 4C 0B 1A 64 00 1C  s018......L..d..
0B50: 4B 80 4E 01 01 90 0E 01  1C 05 80 2F 01 01 90 0E  K.N......../....
0B60: 01 1C 05 80 AB 11 01 80  1C 03 80 46 00 45 00 80  ...........F.E..
0B70: F8 FF FF 7F F8 FF FF 7F  66 64 69 32 01 80 21 00  ........fdi2..!.
```

#### Opcodes

```
  0: 0x0292 [0x42] SET_CLI_EVENT_CANCEL_DATA()
  1: 0x0293 [0x03] ExtData[1]->WorkLocal[1] = Work_Zone[3]
  2: 0x0298 [0x1A] CALL_SUBROUTINE(address=0x0064)
  3: 0x029B [0x46] CAMERA_CONTROL: Disable user control
  4: 0x029D [0x38] SET_CLIENT_EVENT_MODE(mode=147*)
  5: 0x02A0 [0x2F] Destin (ID: 17731585/0x010E9001)->Render.Flags0 &= ~0x80000 // Bit 19
  6: 0x02A6 [0x92] Halver (ID: 17731591/0x010E9007)->Render.Flags3 ^= 0x01
  7: 0x02AC [0x92] Faurie (ID: 17731601/0x010E9011)->Render.Flags3 ^= 0x01
  8: 0x02B2 [0x92] Ferdechiond (ID: 17731602/0x010E9012)->Render.Flags3 ^= 0x01
  9: 0x02B8 [0x92] Chaphoire (ID: 17731603/0x010E9013)->Render.Flags3 ^= 0x01
 10: 0x02BE [0x92] Arsha (ID: 17731604/0x010E9014)->Render.Flags3 ^= 0x01
 11: 0x02C4 [0x92] Chupaile (ID: 17731605/0x010E9015)->Render.Flags3 ^= 0x01
 12: 0x02CA [0x94] Halver (ID: 17731591/0x010E9007)->Render.Flags3 ^= 0x01
 13: 0x02D0 [0x94] Destin (ID: 17731585/0x010E9001)->Render.Flags3 ^= 0x01
 14: 0x02D6 [0x94] Faurie (ID: 17731601/0x010E9011)->Render.Flags3 ^= 0x01
 15: 0x02DC [0x94] Ferdechiond (ID: 17731602/0x010E9012)->Render.Flags3 ^= 0x01
 16: 0x02E2 [0x94] Chaphoire (ID: 17731603/0x010E9013)->Render.Flags3 ^= 0x01
 17: 0x02E8 [0x94] Arsha (ID: 17731604/0x010E9014)->Render.Flags3 ^= 0x01
 18: 0x02EE [0x94] Chupaile (ID: 17731605/0x010E9015)->Render.Flags3 ^= 0x01
 19: 0x02F4 [0x94] LocalPlayer->Render.Flags3 ^= 0x01
 20: 0x02FA [0xBA] SET_ENTITY_POSITION(entity_id=Destin (ID: 17731586/0x010E9002), pos_x=-0.001*, pos_z=42.433*, pos_y=-3.398*, direction=90.0*)
 21: 0x0307 [0xBA] SET_ENTITY_POSITION(entity_id=LocalPlayer, pos_x=1.118*, pos_z=0.596*, pos_y=0.000*, direction=275.5*)
 22: 0x0314 [0x80] LOAD_WAIT(entity=Halver (ID: 17731591/0x010E9007))
 23: 0x0319 [0x80] LOAD_WAIT(entity=Faurie (ID: 17731601/0x010E9011))
 24: 0x031E [0x80] LOAD_WAIT(entity=Ferdechiond (ID: 17731602/0x010E9012))
 25: 0x0323 [0x80] LOAD_WAIT(entity=Chaphoire (ID: 17731603/0x010E9013))
 26: 0x0328 [0x80] LOAD_WAIT(entity=Arsha (ID: 17731604/0x010E9014))
 27: 0x032D [0x80] LOAD_WAIT(entity=Chupaile (ID: 17731605/0x010E9015))
 28: 0x0332 [0x80] LOAD_WAIT(entity=LocalPlayer)
 29: 0x0337 [0x29] REQ_SET_WAIT(priority=0x08, entity_id=LocalPlayer, tag_num=0x81)
 30: 0x033E [0x4A] Halver (ID: 17731591/0x010E9007) looks at LocalPlayer
 31: 0x0347 [0x4A] LocalPlayer looks at Halver (ID: 17731591/0x010E9007)
 32: 0x0350 [0x6F] WAIT_FRAME_DELAY: Yield until WaitTime reaches zero
 33: 0x0351 [0x76] CHECK_ENTITY_RENDER_FLAGS: Wait until Halver (ID: 17731591/0x010E9007) Render.Flags0 and Render.Flags3 conditions are met
 34: 0x0356 [0x6F] WAIT_FRAME_DELAY: Yield until WaitTime reaches zero
 35: 0x0357 [0x76] CHECK_ENTITY_RENDER_FLAGS: Wait until LocalPlayer Render.Flags0 and Render.Flags3 conditions are met
 36: 0x035C [0x02] IF !(Work_Zone[9] == 5*) GOTO 0x0378
 37: 0x0364 [0x45] LOAD_SCHEDULED_TASK: Load scheduler "s022" with entities [EventEntity, EventEntity], work=[840*, 0*]
 38: 0x0375 [0x01] GOTO 0x03A5
 39: 0x0378 [0x02] IF !(Work_Zone[9] == 6*) GOTO 0x0394
 40: 0x0380 [0x45] LOAD_SCHEDULED_TASK: Load scheduler "s022" with entities [EventEntity, EventEntity], work=[840*, 0*]
 41: 0x0391 [0x01] GOTO 0x03A5
 42: 0x0394 [0x45] LOAD_SCHEDULED_TASK: Load scheduler "s018" with entities [EventEntity, EventEntity], work=[840*, 0*]

SUBROUTINE_03A5:
 43: 0x03A5 [0x1A] CALL_SUBROUTINE(address=0x0043)
 44: 0x03A8 [0x29] REQ_SET_WAIT(priority=0x08, entity_id=Halver (ID: 17731591/0x010E9007), tag_num=0x40)
 45: 0x03AF [0x02] IF !(ExtData[1]->WorkLocal[1] == 1*) GOTO 0x03C2
 46: 0x03B7 [0x2B] Halver (ID: 17731591/0x010E9007) [8631*]:
     "Greetings, <Player>! I have an important task that could benefit from an adventurer's keen eye and swift feet!"
 47: 0x03BE [0x23] WAIT_FOR_DIALOG_INTERACTION
 48: 0x03BF [0x01] GOTO 0x03CA
 49: 0x03C2 [0x2B] Halver (ID: 17731591/0x010E9007) [8632*]:
     "Well met, <Player>! I have an important task that could benefit from your keen eye and swift feet!"
 50: 0x03C9 [0x23] WAIT_FOR_DIALOG_INTERACTION

SUBROUTINE_03CA:
 51: 0x03CA [0x2B] Halver (ID: 17731591/0x010E9007) [8633*]:
     "You see, something rather unfortunate happened the other day..."
 52: 0x03D1 [0x23] WAIT_FOR_DIALOG_INTERACTION
 53: 0x03D2 [0x5D] SET_MUSIC_VOLUME(volume=64*, fade_time=120*)
 54: 0x03D7 [0x1A] CALL_SUBROUTINE(address=0x0064)
 55: 0x03DA [0x29] REQ_SET_WAIT(priority=0x08, entity_id=Halver (ID: 17731591/0x010E9007), tag_num=0x41)
 56: 0x03E1 [0x02] IF !(Work_Zone[9] == 5*) GOTO 0x03FB
 57: 0x03E9 [0x52] END_LOAD_SCHEDULER: End scheduler "s022" with entities [EventEntity, EventEntity], work=840*
 58: 0x03F8 [0x01] GOTO 0x0424
 59: 0x03FB [0x02] IF !(Work_Zone[9] == 6*) GOTO 0x0415
 60: 0x0403 [0x52] END_LOAD_SCHEDULER: End scheduler "s022" with entities [EventEntity, EventEntity], work=840*
 61: 0x0412 [0x01] GOTO 0x0424
 62: 0x0415 [0x52] END_LOAD_SCHEDULER: End scheduler "s018" with entities [EventEntity, EventEntity], work=840*

SUBROUTINE_0424:
 63: 0x0424 [0x4E] SET_ENTITY_HIDE_FLAG: Show Destin (ID: 17731585/0x010E9001)
 64: 0x042A [0x80] LOAD_WAIT(entity=Destin (ID: 17731585/0x010E9001))
 65: 0x042F [0x37] UPDATE_EVENT_POSITION_AND_DIR: x=0.000*, z=0.000*, y=0.000*, direction=0.0*
 66: 0x0438 [0x97] SAVE_SET_WIND_VALUES(wind_base=0x8001, wind_width=0x8003)
 67: 0x043D [0x29] REQ_SET_WAIT(priority=0x03, entity_id=Halver (ID: 17731591/0x010E9007), tag_num=0x5F)
 68: 0x0444 [0x27] REQ_SET(priority=0x04, entity_id=Halver (ID: 17731591/0x010E9007), tag_num=0x60)
 69: 0x044B [0x45] LOAD_SCHEDULED_TASK: Load scheduler "s000" with entities [EventEntity, EventEntity], work=[840*, 0*]
 70: 0x045C [0x1A] CALL_SUBROUTINE(address=0x0043)
 71: 0x045F [0x2A] GET_REQ_LEVEL(level=4, entity_id=Halver (ID: 17731591/0x010E9007))
 72: 0x0465 [0x27] REQ_SET(priority=0x03, entity_id=Halver (ID: 17731591/0x010E9007), tag_num=0x02)
 73: 0x046C [0x2B] Halver (ID: 17731591/0x010E9007) [8634*]:
     "You summoned me, Your Majesty?"
 74: 0x0473 [0x23] WAIT_FOR_DIALOG_INTERACTION
 75: 0x0474 [0x52] END_LOAD_SCHEDULER: End scheduler "s000" with entities [EventEntity, EventEntity], work=840*
 76: 0x0483 [0x45] LOAD_SCHEDULED_TASK: Load scheduler "s001" with entities [EventEntity, EventEntity], work=[840*, 0*]
 77: 0x0494 [0x2A] GET_REQ_LEVEL(level=3, entity_id=Halver (ID: 17731591/0x010E9007))
 78: 0x049A [0x27] REQ_SET(priority=0x03, entity_id=Destin (ID: 17731585/0x010E9001), tag_num=0x10)
 79: 0x04A1 [0x2B] Destin (ID: 17731585/0x010E9001) [8635*]:
     "Thank you for coming, Halver. There is a pressing matter I must discuss with you. Or perhaps it would be more accurate to say I have a favor to ask of you."
 80: 0x04A8 [0x23] WAIT_FOR_DIALOG_INTERACTION
 81: 0x04A9 [0x27] REQ_SET(priority=0x03, entity_id=Destin (ID: 17731585/0x010E9001), tag_num=0x11)
 82: 0x04B0 [0x2B] Halver (ID: 17731591/0x010E9007) [8636*]:
     "What, may I ask, is troubling you so?"
 83: 0x04B7 [0x23] WAIT_FOR_DIALOG_INTERACTION
 84: 0x04B8 [0x5C] MUSIC_CONTROL: Set Idle (Day) music to song 25*
 85: 0x04BC [0x5C] MUSIC_CONTROL: Set Idle (Night) music to song 25*
 86: 0x04C0 [0x9A] WAIT_MUSIC_SERVER()
 87: 0x04C1 [0x5D] SET_MUSIC_VOLUME(volume=127*, fade_time=1*)
 88: 0x04C6 [0x52] END_LOAD_SCHEDULER: End scheduler "s001" with entities [EventEntity, EventEntity], work=840*
 89: 0x04D5 [0x45] LOAD_SCHEDULED_TASK: Load scheduler "s002" with entities [EventEntity, EventEntity], work=[840*, 0*]
 90: 0x04E6 [0x2B] Destin (ID: 17731585/0x010E9001) [8637*]:
     "You see, House Virgaut is having a party--a ball to be more precise--the first in a long while."
 91: 0x04ED [0x23] WAIT_FOR_DIALOG_INTERACTION
 92: 0x04EE [0x2B] Destin (ID: 17731585/0x010E9001) [8638*]:
     "Perhaps you have already heard the news..."
 93: 0x04F5 [0x23] WAIT_FOR_DIALOG_INTERACTION
 94: 0x04F6 [0x27] REQ_SET(priority=0x03, entity_id=Halver (ID: 17731591/0x010E9007), tag_num=0x04)
 95: 0x04FD [0x52] END_LOAD_SCHEDULER: End scheduler "s002" with entities [EventEntity, EventEntity], work=840*
 96: 0x050C [0x45] LOAD_SCHEDULED_TASK: Load scheduler "s003" with entities [EventEntity, EventEntity], work=[840*, 0*]
 97: 0x051D [0x2B] Halver (ID: 17731591/0x010E9007) [8639*]:
     "Why yes, of course! It is the talk of the town! Their family has quite the long and storied history."
 98: 0x0524 [0x23] WAIT_FOR_DIALOG_INTERACTION
 99: 0x0525 [0x2B] Halver (ID: 17731591/0x010E9007) [8640*]:
     "When I was but a lowly student, the balls held by House Virgaut were the stuff of legend."
100: 0x052C [0x23] WAIT_FOR_DIALOG_INTERACTION
101: 0x052D [0x52] END_LOAD_SCHEDULER: End scheduler "s003" with entities [EventEntity, EventEntity], work=840*
102: 0x053C [0x45] LOAD_SCHEDULED_TASK: Load scheduler "s004" with entities [EventEntity, EventEntity], work=[840*, 0*]
103: 0x054D [0x2B] Halver (ID: 17731591/0x010E9007) [8641*]:
     "The manor was filled with beautiful young ladies, adorned in various hues and fineries... I still dream of their parties to this day."
104: 0x0554 [0x23] WAIT_FOR_DIALOG_INTERACTION
105: 0x0555 [0x52] END_LOAD_SCHEDULER: End scheduler "s004" with entities [EventEntity, EventEntity], work=840*
106: 0x0564 [0x45] LOAD_SCHEDULED_TASK: Load scheduler "s005" with entities [EventEntity, EventEntity], work=[840*, 0*]
107: 0x0575 [0x27] REQ_SET(priority=0x03, entity_id=Destin (ID: 17731585/0x010E9001), tag_num=0x12)
108: 0x057C [0x2B] Halver (ID: 17731591/0x010E9007) [8642*]:
     "There, I met a beautiful woman, unaware at the time that our fates were bound by destiny. Yes, those were exciting times..."
109: 0x0583 [0x23] WAIT_FOR_DIALOG_INTERACTION
110: 0x0584 [0x5D] SET_MUSIC_VOLUME(volume=0*, fade_time=0*)
111: 0x0589 [0x2B] Destin (ID: 17731585/0x010E9001) [8643*]:
     "There you go again, Halver. I did not summon you here to share stories of your youth."
112: 0x0590 [0x27] REQ_SET(priority=0x03, entity_id=Halver (ID: 17731591/0x010E9007), tag_num=0x05)
113: 0x0597 [0x52] END_LOAD_SCHEDULER: End scheduler "s005" with entities [EventEntity, EventEntity], work=840*
114: 0x05A6 [0x45] LOAD_SCHEDULED_TASK: Load scheduler "s006" with entities [EventEntity, EventEntity], work=[840*, 0*]
115: 0x05B7 [0x1C] WAIT(5* ticks)
116: 0x05BA [0x23] WAIT_FOR_DIALOG_INTERACTION
117: 0x05BB [0x2B] Halver (ID: 17731591/0x010E9007) [8644*]:
     "Ah! Forgive me, Your Majesty! Yes, what did you wish to say about the upcoming ball?"
118: 0x05C2 [0x23] WAIT_FOR_DIALOG_INTERACTION
119: 0x05C3 [0x52] END_LOAD_SCHEDULER: End scheduler "s006" with entities [EventEntity, EventEntity], work=840*
120: 0x05D2 [0x45] LOAD_SCHEDULED_TASK: Load scheduler "s007" with entities [EventEntity, EventEntity], work=[840*, 0*]
121: 0x05E3 [0x27] REQ_SET(priority=0x03, entity_id=Destin (ID: 17731585/0x010E9001), tag_num=0x13)
122: 0x05EA [0x1C] WAIT(20* ticks)
123: 0x05ED [0x5D] SET_MUSIC_VOLUME(volume=127*, fade_time=120*)
124: 0x05F2 [0x2B] Destin (ID: 17731585/0x010E9001) [8645*]:
     "I wish to speak to you about Trion, who has also received an invitation."
125: 0x05F9 [0x23] WAIT_FOR_DIALOG_INTERACTION
126: 0x05FA [0x2A] GET_REQ_LEVEL(level=3, entity_id=Destin (ID: 17731585/0x010E9001))
127: 0x0600 [0x52] END_LOAD_SCHEDULER: End scheduler "s007" with entities [EventEntity, EventEntity], work=840*
128: 0x060F [0x45] LOAD_SCHEDULED_TASK: Load scheduler "s008" with entities [EventEntity, EventEntity], work=[840*, 0*]
129: 0x0620 [0x29] REQ_SET_WAIT(priority=0x08, entity_id=Halver (ID: 17731591/0x010E9007), tag_num=0x40)
130: 0x0627 [0x2B] Halver (ID: 17731591/0x010E9007) [8646*]:
     "The same Prince Trion who flees at the mere mention of the word ball!?"
131: 0x062E [0x23] WAIT_FOR_DIALOG_INTERACTION
132: 0x062F [0x27] REQ_SET(priority=0x08, entity_id=Halver (ID: 17731591/0x010E9007), tag_num=0x41)
133: 0x0636 [0x2B] Destin (ID: 17731585/0x010E9001) [8647*]:
     "Yes, the very same. He finds the arts of diplomacy and socializing while at a ball bore him to no end."
134: 0x063D [0x23] WAIT_FOR_DIALOG_INTERACTION
135: 0x063E [0x2A] GET_REQ_LEVEL(level=8, entity_id=Halver (ID: 17731591/0x010E9007))
136: 0x0644 [0x52] END_LOAD_SCHEDULER: End scheduler "s008" with entities [EventEntity, EventEntity], work=840*
137: 0x0653 [0x45] LOAD_SCHEDULED_TASK: Load scheduler "s009" with entities [EventEntity, EventEntity], work=[840*, 0*]
138: 0x0664 [0x2B] Halver (ID: 17731591/0x010E9007) [8648*]:
     "Now that you mention it, I remember him leaving the last ball the moment he received word that Orcs were planning to attack the Chateau d'Oraguille."
139: 0x066B [0x23] WAIT_FOR_DIALOG_INTERACTION
140: 0x066C [0x27] REQ_SET(priority=0x03, entity_id=Destin (ID: 17731585/0x010E9001), tag_num=0x10)
141: 0x0673 [0x2B] Destin (ID: 17731585/0x010E9001) [8649*]:
     "I learned afterwards that it was a hastily formed plan that could have easily been thwarted by the Royal Knights alone."
142: 0x067A [0x23] WAIT_FOR_DIALOG_INTERACTION
143: 0x067B [0x27] REQ_SET(priority=0x03, entity_id=Destin (ID: 17731585/0x010E9001), tag_num=0x11)
144: 0x0682 [0x52] END_LOAD_SCHEDULER: End scheduler "s009" with entities [EventEntity, EventEntity], work=840*
145: 0x0691 [0x45] LOAD_SCHEDULED_TASK: Load scheduler "s010" with entities [EventEntity, EventEntity], work=[840*, 0*]
146: 0x06A2 [0x2B] Halver (ID: 17731591/0x010E9007) [8650*]:
     "And the time before that, he mysteriously fell ill as soon as he arrived at House Virgaut's manor."
147: 0x06A9 [0x23] WAIT_FOR_DIALOG_INTERACTION
148: 0x06AA [0x2B] Destin (ID: 17731585/0x010E9001) [8651*]:
     "Indeed, I always wondered about the timing of that myself."
149: 0x06B1 [0x23] WAIT_FOR_DIALOG_INTERACTION
150: 0x06B2 [0x52] END_LOAD_SCHEDULER: End scheduler "s010" with entities [EventEntity, EventEntity], work=840*
151: 0x06C1 [0x45] LOAD_SCHEDULED_TASK: Load scheduler "s012" with entities [EventEntity, EventEntity], work=[840*, 0*]
152: 0x06D2 [0x29] REQ_SET_WAIT(priority=0x08, entity_id=Halver (ID: 17731591/0x010E9007), tag_num=0x40)
153: 0x06D9 [0x2B] Halver (ID: 17731591/0x010E9007) [8652*]:
     "Have you forgotten? Once he left the house, he seemed to be in perfect physical condition, mounted atop his chocobo."
154: 0x06E0 [0x23] WAIT_FOR_DIALOG_INTERACTION
155: 0x06E1 [0x52] END_LOAD_SCHEDULER: End scheduler "s012" with entities [EventEntity, EventEntity], work=840*
156: 0x06F0 [0x45] LOAD_SCHEDULED_TASK: Load scheduler "s014" with entities [EventEntity, EventEntity], work=[840*, 0*]
157: 0x0701 [0x27] REQ_SET(priority=0x08, entity_id=Halver (ID: 17731591/0x010E9007), tag_num=0x41)
158: 0x0708 [0x2B] Destin (ID: 17731585/0x010E9001) [8653*]:
     "Yes, I suppose he did... However, the purpose of this upcoming ball is somewhat different than before."
159: 0x070F [0x23] WAIT_FOR_DIALOG_INTERACTION
160: 0x0710 [0x2A] GET_REQ_LEVEL(level=8, entity_id=Halver (ID: 17731591/0x010E9007))
161: 0x0716 [0x52] END_LOAD_SCHEDULER: End scheduler "s014" with entities [EventEntity, EventEntity], work=840*
162: 0x0725 [0x45] LOAD_SCHEDULED_TASK: Load scheduler "s011" with entities [EventEntity, EventEntity], work=[840*, 0*]
163: 0x0736 [0x2B] Destin (ID: 17731585/0x010E9001) [8654*]:
     "A large number of foreign dignitaries have been invited. As prince of the Kingdom of San d'Oria, his presence is necessary to convey an air of dignity and authority."
164: 0x073D [0x23] WAIT_FOR_DIALOG_INTERACTION
165: 0x073E [0x2B] Destin (ID: 17731585/0x010E9001) [8655*]:
     "That is why I have summoned Trion and ordered that he dutifully represent our kingdom at this ball."
166: 0x0745 [0x23] WAIT_FOR_DIALOG_INTERACTION
167: 0x0746 [0x52] END_LOAD_SCHEDULER: End scheduler "s011" with entities [EventEntity, EventEntity], work=840*
168: 0x0755 [0x45] LOAD_SCHEDULED_TASK: Load scheduler "s006" with entities [EventEntity, EventEntity], work=[840*, 0*]
169: 0x0766 [0x27] REQ_SET(priority=0x03, entity_id=Destin (ID: 17731585/0x010E9001), tag_num=0x10)
170: 0x076D [0x2B] Destin (ID: 17731585/0x010E9001) [8656*]:
     "However, the fact remains that he loathes dancing with every fiber of his being. That is why I have called upon you, Halver."
171: 0x0774 [0x23] WAIT_FOR_DIALOG_INTERACTION
172: 0x0775 [0x29] REQ_SET_WAIT(priority=0x03, entity_id=Destin (ID: 17731585/0x010E9001), tag_num=0x11)
173: 0x077C [0x29] REQ_SET_WAIT(priority=0x08, entity_id=Halver (ID: 17731591/0x010E9007), tag_num=0x40)
174: 0x0783 [0x2B] Halver (ID: 17731591/0x010E9007) [8657*]:
     "<Sigh> You ask the impossible, Your Majesty."
175: 0x078A [0x23] WAIT_FOR_DIALOG_INTERACTION
176: 0x078B [0x52] END_LOAD_SCHEDULER: End scheduler "s006" with entities [EventEntity, EventEntity], work=840*
177: 0x079A [0x45] LOAD_SCHEDULED_TASK: Load scheduler "s003" with entities [EventEntity, EventEntity], work=[840*, 0*]
178: 0x07AB [0x2B] Halver (ID: 17731591/0x010E9007) [8658*]:
     "I am afraid that it will be hard enough to get Prince Trion to enjoy the ball, let alone fix everything that ails his "technique," to put it gently."
179: 0x07B2 [0x23] WAIT_FOR_DIALOG_INTERACTION
180: 0x07B3 [0x52] END_LOAD_SCHEDULER: End scheduler "s003" with entities [EventEntity, EventEntity], work=840*
181: 0x07C2 [0x45] LOAD_SCHEDULED_TASK: Load scheduler "s013" with entities [EventEntity, EventEntity], work=[840*, 0*]
182: 0x07D3 [0x5D] SET_MUSIC_VOLUME(volume=0*, fade_time=0*)
183: 0x07D8 [0x27] REQ_SET(priority=0x08, entity_id=Halver (ID: 17731591/0x010E9007), tag_num=0x41)
184: 0x07DF [0x27] REQ_SET(priority=0x03, entity_id=Destin (ID: 17731585/0x010E9001), tag_num=0x10)
185: 0x07E6 [0x2B] Destin (ID: 17731585/0x010E9001) [8659*]:
     "Whatever are you talking about? I merely want you to take the necessary precautions for any contingencies that might arise."
186: 0x07ED [0x23] WAIT_FOR_DIALOG_INTERACTION
187: 0x07EE [0x2A] GET_REQ_LEVEL(level=8, entity_id=Halver (ID: 17731591/0x010E9007))
188: 0x07F4 [0x52] END_LOAD_SCHEDULER: End scheduler "s013" with entities [EventEntity, EventEntity], work=840*
189: 0x0803 [0x45] LOAD_SCHEDULED_TASK: Load scheduler "s015" with entities [EventEntity, EventEntity], work=[840*, 0*]
190: 0x0814 [0x5D] SET_MUSIC_VOLUME(volume=127*, fade_time=120*)
191: 0x0819 [0x27] REQ_SET(priority=0x03, entity_id=Destin (ID: 17731585/0x010E9001), tag_num=0x11)
192: 0x0820 [0x27] REQ_SET(priority=0x03, entity_id=Halver (ID: 17731591/0x010E9007), tag_num=0x06)
193: 0x0827 [0x2B] Halver (ID: 17731591/0x010E9007) [8660*]:
     "Contingencies?"
194: 0x082E [0x23] WAIT_FOR_DIALOG_INTERACTION
195: 0x082F [0x52] END_LOAD_SCHEDULER: End scheduler "s015" with entities [EventEntity, EventEntity], work=840*
196: 0x083E [0x45] LOAD_SCHEDULED_TASK: Load scheduler "s009" with entities [EventEntity, EventEntity], work=[840*, 0*]
197: 0x084F [0x27] REQ_SET(priority=0x03, entity_id=Halver (ID: 17731591/0x010E9007), tag_num=0x07)
198: 0x0856 [0x2A] GET_REQ_LEVEL(level=3, entity_id=Halver (ID: 17731591/0x010E9007))
199: 0x085C [0x27] REQ_SET(priority=0x03, entity_id=Halver (ID: 17731591/0x010E9007), tag_num=0x02)
200: 0x0863 [0x2B] Halver (ID: 17731591/0x010E9007) [8661*]:
     "Ah! I know just what to do! In fact, I would be willing to bet my life on it!"
201: 0x086A [0x23] WAIT_FOR_DIALOG_INTERACTION
202: 0x086B [0x5D] SET_MUSIC_VOLUME(volume=0*, fade_time=300*)
203: 0x0870 [0x1A] CALL_SUBROUTINE(address=0x0064)
204: 0x0873 [0x2A] GET_REQ_LEVEL(level=3, entity_id=Halver (ID: 17731591/0x010E9007))
205: 0x0879 [0x52] END_LOAD_SCHEDULER: End scheduler "s009" with entities [EventEntity, EventEntity], work=840*
206: 0x0888 [0x37] UPDATE_EVENT_POSITION_AND_DIR: x=2.257*, z=0.104*, y=0.000*, direction=275.4*
207: 0x0891 [0xBA] SET_ENTITY_POSITION(entity_id=Halver (ID: 17731591/0x010E9007), pos_x=2.420*, pos_z=1.966*, pos_y=0.000*, direction=103.0*)
208: 0x089E [0x29] REQ_SET_WAIT(priority=0x03, entity_id=Halver (ID: 17731591/0x010E9007), tag_num=0x16)
209: 0x08A5 [0x4A] Halver (ID: 17731591/0x010E9007) looks at LocalPlayer
210: 0x08AE [0x4A] LocalPlayer looks at Halver (ID: 17731591/0x010E9007)
211: 0x08B7 [0x6F] WAIT_FRAME_DELAY: Yield until WaitTime reaches zero
212: 0x08B8 [0x76] CHECK_ENTITY_RENDER_FLAGS: Wait until Halver (ID: 17731591/0x010E9007) Render.Flags0 and Render.Flags3 conditions are met
213: 0x08BD [0x6F] WAIT_FRAME_DELAY: Yield until WaitTime reaches zero
214: 0x08BE [0x76] CHECK_ENTITY_RENDER_FLAGS: Wait until LocalPlayer Render.Flags0 and Render.Flags3 conditions are met
215: 0x08C3 [0x5C] MUSIC_CONTROL: Set Idle (Day) music to song 156*
216: 0x08C7 [0x5C] MUSIC_CONTROL: Set Idle (Night) music to song 156*
217: 0x08CB [0x9A] WAIT_MUSIC_SERVER()
218: 0x08CC [0x5D] SET_MUSIC_VOLUME(volume=127*, fade_time=1*)
219: 0x08D1 [0x29] REQ_SET_WAIT(priority=0x08, entity_id=Halver (ID: 17731591/0x010E9007), tag_num=0x40)
220: 0x08D8 [0x45] LOAD_SCHEDULED_TASK: Load scheduler "s016" with entities [EventEntity, EventEntity], work=[840*, 0*]
221: 0x08E9 [0x1A] CALL_SUBROUTINE(address=0x0043)
222: 0x08EC [0x1C] WAIT(30* ticks)
223: 0x08EF [0x2B] Halver (ID: 17731591/0x010E9007) [8662*]:
     "So this is what I have in mind..."
224: 0x08F6 [0x23] WAIT_FOR_DIALOG_INTERACTION
225: 0x08F7 [0x52] END_LOAD_SCHEDULER: End scheduler "s016" with entities [EventEntity, EventEntity], work=840*
226: 0x0906 [0x02] IF !(Work_Zone[9] == 5*) GOTO 0x0922
227: 0x090E [0x45] LOAD_SCHEDULED_TASK: Load scheduler "s057" with entities [EventEntity, EventEntity], work=[840*, 0*]
228: 0x091F [0x01] GOTO 0x094F
229: 0x0922 [0x02] IF !(Work_Zone[9] == 6*) GOTO 0x093E
230: 0x092A [0x45] LOAD_SCHEDULED_TASK: Load scheduler "s057" with entities [EventEntity, EventEntity], work=[840*, 0*]
231: 0x093B [0x01] GOTO 0x094F
232: 0x093E [0x45] LOAD_SCHEDULED_TASK: Load scheduler "s017" with entities [EventEntity, EventEntity], work=[840*, 0*]

SUBROUTINE_094F:
233: 0x094F [0x2B] Halver (ID: 17731591/0x010E9007) [8663*]:
     "In order to ensure that Prince Trion attends the ball, we must prevent any unexpected emergencies that might give him an excuse to leave."
234: 0x0956 [0x23] WAIT_FOR_DIALOG_INTERACTION
235: 0x0957 [0x2B] Halver (ID: 17731591/0x010E9007) [8664*]:
     "Therefore, we will need to put a stop to any incidents like what happened with the Orcs last time, before they happen."
236: 0x095E [0x1C] WAIT(60* ticks)
237: 0x0961 [0x23] WAIT_FOR_DIALOG_INTERACTION
238: 0x0962 [0x29] REQ_SET_WAIT(priority=0x08, entity_id=Halver (ID: 17731591/0x010E9007), tag_num=0x41)
239: 0x0969 [0x02] IF !(Work_Zone[9] == 5*) GOTO 0x0983
240: 0x0971 [0x52] END_LOAD_SCHEDULER: End scheduler "s057" with entities [EventEntity, EventEntity], work=840*
241: 0x0980 [0x01] GOTO 0x09AC
242: 0x0983 [0x02] IF !(Work_Zone[9] == 6*) GOTO 0x099D
243: 0x098B [0x52] END_LOAD_SCHEDULER: End scheduler "s057" with entities [EventEntity, EventEntity], work=840*
244: 0x099A [0x01] GOTO 0x09AC
245: 0x099D [0x52] END_LOAD_SCHEDULER: End scheduler "s017" with entities [EventEntity, EventEntity], work=840*

SUBROUTINE_09AC:
246: 0x09AC [0x45] LOAD_SCHEDULED_TASK: Load scheduler "s019" with entities [EventEntity, EventEntity], work=[840*, 0*]
247: 0x09BD [0x29] REQ_SET_WAIT(priority=0x08, entity_id=Halver (ID: 17731591/0x010E9007), tag_num=0x40)
248: 0x09C4 [0x2B] Halver (ID: 17731591/0x010E9007) [8665*]:
     "To that end, I asked Rahal, leader of the Royal Knights, about Orc activity in the area."
249: 0x09CB [0x23] WAIT_FOR_DIALOG_INTERACTION
250: 0x09CC [0x2B] Halver (ID: 17731591/0x010E9007) [8666*]:
     "He requested that I send him a skilled adventurer to aid in his efforts."
251: 0x09D3 [0x23] WAIT_FOR_DIALOG_INTERACTION
252: 0x09D4 [0x29] REQ_SET_WAIT(priority=0x08, entity_id=Halver (ID: 17731591/0x010E9007), tag_num=0x41)
253: 0x09DB [0x52] END_LOAD_SCHEDULER: End scheduler "s019" with entities [EventEntity, EventEntity], work=840*
254: 0x09EA [0x02] IF !(Work_Zone[9] == 5*) GOTO 0x0A06
255: 0x09F2 [0x45] LOAD_SCHEDULED_TASK: Load scheduler "s022" with entities [EventEntity, EventEntity], work=[840*, 0*]
256: 0x0A03 [0x01] GOTO 0x0A33
257: 0x0A06 [0x02] IF !(Work_Zone[9] == 6*) GOTO 0x0A22
258: 0x0A0E [0x45] LOAD_SCHEDULED_TASK: Load scheduler "s022" with entities [EventEntity, EventEntity], work=[840*, 0*]
259: 0x0A1F [0x01] GOTO 0x0A33
260: 0x0A22 [0x45] LOAD_SCHEDULED_TASK: Load scheduler "s018" with entities [EventEntity, EventEntity], work=[840*, 0*]

SUBROUTINE_0A33:
261: 0x0A33 [0x27] REQ_SET(priority=0x08, entity_id=Halver (ID: 17731591/0x010E9007), tag_num=0x28)
262: 0x0A3A [0x02] IF !(ExtData[1]->WorkLocal[1] == 1*) GOTO 0x0A4D
263: 0x0A42 [0x2B] Halver (ID: 17731591/0x010E9007) [8667*]:
     "Naturally, I thought of you first. So, would you be willing to help us?"
264: 0x0A49 [0x23] WAIT_FOR_DIALOG_INTERACTION
265: 0x0A4A [0x01] GOTO 0x0A55
266: 0x0A4D [0x2B] Halver (ID: 17731591/0x010E9007) [8668*]:
     "If you believe you have what it takes to help Rahal, would you assist us in this matter?"
267: 0x0A54 [0x23] WAIT_FOR_DIALOG_INTERACTION

SUBROUTINE_0A55:
268: 0x0A55 [0x2A] GET_REQ_LEVEL(level=8, entity_id=Halver (ID: 17731591/0x010E9007))
269: 0x0A5B [0x24] CREATE_DIALOG(message_id=8669*, default_option=0*, option_flags=0*)
     "Offer your assistance? [Sure./Forget it.]"
270: 0x0A62 [0x25] WAIT_DIALOG_SELECT()
271: 0x0A63 [0x02] IF !(Work_Zone[0] == 0*) GOTO 0x0AD4
272: 0x0A6B [0x6E] LocalPlayer uses emote 7*
273: 0x0A72 [0x99] Wait for LocalPlayer animation to complete
274: 0x0A77 [0x1C] WAIT(60* ticks)
275: 0x0A7A [0x29] REQ_SET_WAIT(priority=0x08, entity_id=Halver (ID: 17731591/0x010E9007), tag_num=0x40)
276: 0x0A81 [0x2B] Halver (ID: 17731591/0x010E9007) [8670*]:
     "You have our gratitude. Now then, please visit Rahal and he will fill you in on the details."
277: 0x0A88 [0x23] WAIT_FOR_DIALOG_INTERACTION
278: 0x0A89 [0x02] IF !(Work_Zone[9] == 5*) GOTO 0x0AA3
279: 0x0A91 [0x52] END_LOAD_SCHEDULER: End scheduler "s022" with entities [EventEntity, EventEntity], work=840*
280: 0x0AA0 [0x01] GOTO 0x0ACC
281: 0x0AA3 [0x02] IF !(Work_Zone[9] == 6*) GOTO 0x0ABD
282: 0x0AAB [0x52] END_LOAD_SCHEDULER: End scheduler "s022" with entities [EventEntity, EventEntity], work=840*
283: 0x0ABA [0x01] GOTO 0x0ACC
284: 0x0ABD [0x52] END_LOAD_SCHEDULER: End scheduler "s018" with entities [EventEntity, EventEntity], work=840*

SUBROUTINE_0ACC:
285: 0x0ACC [0x03] Work_Zone[1] = 1*
286: 0x0AD1 [0x01] GOTO 0x0B4C
287: 0x0AD4 [0x02] IF !(Work_Zone[0] == 1*) GOTO 0x0B4C
288: 0x0ADC [0x6E] LocalPlayer uses emote 6*
289: 0x0AE3 [0x99] Wait for LocalPlayer animation to complete
290: 0x0AE8 [0x1C] WAIT(60* ticks)
291: 0x0AEB [0x29] REQ_SET_WAIT(priority=0x08, entity_id=Halver (ID: 17731591/0x010E9007), tag_num=0x42)
292: 0x0AF2 [0x2B] Halver (ID: 17731591/0x010E9007) [8671*]:
     "I see... I cannot force you to accept this task, but please come back if you are able to assist us."
293: 0x0AF9 [0x23] WAIT_FOR_DIALOG_INTERACTION
294: 0x0AFA [0x29] REQ_SET_WAIT(priority=0x08, entity_id=Halver (ID: 17731591/0x010E9007), tag_num=0x43)
295: 0x0B01 [0x02] IF !(Work_Zone[9] == 5*) GOTO 0x0B1B
296: 0x0B09 [0x52] END_LOAD_SCHEDULER: End scheduler "s022" with entities [EventEntity, EventEntity], work=840*
297: 0x0B18 [0x01] GOTO 0x0B44
298: 0x0B1B [0x02] IF !(Work_Zone[9] == 6*) GOTO 0x0B35
299: 0x0B23 [0x52] END_LOAD_SCHEDULER: End scheduler "s022" with entities [EventEntity, EventEntity], work=840*
300: 0x0B32 [0x01] GOTO 0x0B44
301: 0x0B35 [0x52] END_LOAD_SCHEDULER: End scheduler "s018" with entities [EventEntity, EventEntity], work=840*

SUBROUTINE_0B44:
302: 0x0B44 [0x03] Work_Zone[1] = 0*
303: 0x0B49 [0x01] GOTO 0x0B4C

SUBROUTINE_0B4C:
304: 0x0B4C [0x1A] CALL_SUBROUTINE(address=0x0064)
305: 0x0B4F [0x1C] WAIT(15* ticks)
306: 0x0B52 [0x4E] SET_ENTITY_HIDE_FLAG: Hide Destin (ID: 17731585/0x010E9001)
307: 0x0B58 [0x1C] WAIT(2* ticks)
308: 0x0B5B [0x2F] Destin (ID: 17731585/0x010E9001)->Render.Flags0 |= 0x80000 // Bit 19
309: 0x0B61 [0x1C] WAIT(2* ticks)
310: 0x0B64 [0xAB] EventEntity->DespawnValue = 0* // Set despawn value
311: 0x0B68 [0x1C] WAIT(1* ticks)
312: 0x0B6B [0x46] CAMERA_CONTROL: Restore default settings
313: 0x0B6D [0x45] LOAD_SCHEDULED_TASK: Load scheduler "fdi2" with entities [EventEntity, EventEntity], work=[200*, 0*]
314: 0x0B7E [0x21] END_EVENT
315: 0x0B7F [0x00] END_REQSTACK()
```

### Event 579

#### Metadata

| Field        | Value      |
|--------------|------------|
| Entrypoint   | 0x0B80     |
| Data Size    | 1898 bytes |
| Instructions | 241        |

```
      00 01 02 03 04 05 06 07  08 09 0A 0B 0C 0D 0E 0F
      -- -- -- -- -- -- -- --  -- -- -- -- -- -- -- --
0B80: 42 5D 01 80 37 80 1A 64  00 46 01 38 08 80 02 09  B]..7..d.F.8....
0B90: 10 01 80 01 9C 0B 75 00  4C 80 75 01 92 01 08 90  ......u.L.u.....
0BA0: 0E 01 92 01 0A 90 0E 01  92 01 0B 90 0E 01 94 01  ................
0BB0: 08 90 0E 01 94 01 0A 90  0E 01 94 01 0B 90 0E 01  ................
0BC0: 94 01 F0 FF FF 7F BA 08  90 0E 01 4D 80 4E 80 01  ...........M.N..
0BD0: 80 4F 80 BA F0 FF FF 7F  50 80 51 80 01 80 52 80  .O......P.Q...R.
0BE0: 80 08 90 0E 01 80 0A 90  0E 01 80 0B 90 0E 01 80  ................
0BF0: F0 FF FF 7F 5C 00 1B 80  5C 01 1B 80 9A 5D 1C 80  ....\...\....]..
0C00: 03 80 4A 08 90 0E 01 F0  FF FF 7F 4A F0 FF FF 7F  ..J........J....
0C10: 08 90 0E 01 6F 76 08 90  0E 01 6F 76 F0 FF FF 7F  ....ov....ov....
0C20: 9F 53 80 08 90 0E 01 08  90 0E 01 00 FE FE FE 01  .S..............
0C30: 80 29 08 F0 FF FF 7F 81  29 08 08 90 0E 01 33 29  .)......).....3)
0C40: 08 08 90 0E 01 34 45 54  80 F8 FF FF 7F F8 FF FF  .....4ET........
0C50: 7F 73 30 30 30 01 80 1A  43 00 2B 08 90 0E 01 55  .s000...C.+....U
0C60: 80 23 29 08 08 90 0E 01  35 2B 08 90 0E 01 56 80  .#).....5+....V.
0C70: 23 29 08 08 90 0E 01 36  52 54 80 F8 FF FF 7F F8  #).....6RT......
0C80: FF FF 7F 73 30 30 30 45  54 80 F8 FF FF 7F F8 FF  ...s000ET.......
0C90: FF 7F 73 30 30 31 01 80  29 08 08 90 0E 01 2F 2B  ..s001..)...../+
0CA0: 08 90 0E 01 57 80 23 52  54 80 F8 FF FF 7F F8 FF  ....W.#RT.......
0CB0: FF 7F 73 30 30 31 02 09  10 10 80 00 D2 0C 45 54  ..s001........ET
0CC0: 80 F8 FF FF 7F F8 FF FF  7F 73 30 31 31 01 80 01  .........s011...
0CD0: 1B 0D 02 09 10 12 80 00  EE 0C 45 54 80 F8 FF FF  ..........ET....
0CE0: 7F F8 FF FF 7F 73 30 31  31 01 80 01 1B 0D 02 09  .....s011.......
0CF0: 10 58 80 00 0A 0D 45 54  80 F8 FF FF 7F F8 FF FF  .X....ET........
0D00: 7F 73 30 30 32 01 80 01  1B 0D 45 54 80 F8 FF FF  .s002.....ET....
0D10: 7F F8 FF FF 7F 73 30 31  36 01 80 2B 08 90 0E 01  .....s016..+....
0D20: 59 80 29 08 08 90 0E 01  30 29 08 08 90 0E 01 31  Y.).....0).....1
0D30: 29 08 08 90 0E 01 32 23  7B 08 90 0E 01 29 08 08  ).....2#{....)..
0D40: 90 0E 01 33 2B 08 90 0E  01 5A 80 23 29 08 08 90  ...3+....Z.#)...
0D50: 0E 01 34 02 09 10 10 80  00 6D 0D 52 54 80 F8 FF  ..4......m.RT...
0D60: FF 7F F8 FF FF 7F 73 30  31 31 01 B0 0D 02 09 10  ......s011......
0D70: 12 80 00 87 0D 52 54 80  F8 FF FF 7F F8 FF FF 7F  .....RT.........
0D80: 73 30 31 31 01 B0 0D 02  09 10 58 80 00 A1 0D 52  s011......X....R
0D90: 54 80 F8 FF FF 7F F8 FF  FF 7F 73 30 30 32 01 B0  T.........s002..
0DA0: 0D 52 54 80 F8 FF FF 7F  F8 FF FF 7F 73 30 31 36  .RT.........s016
0DB0: 02 09 10 10 80 00 CC 0D  45 54 80 F8 FF FF 7F F8  ........ET......
0DC0: FF FF 7F 73 30 31 32 01  80 01 F9 0D 02 09 10 12  ...s012.........
0DD0: 80 00 E8 0D 45 54 80 F8  FF FF 7F F8 FF FF 7F 73  ....ET.........s
0DE0: 30 31 32 01 80 01 F9 0D  45 54 80 F8 FF FF 7F F8  012.....ET......
0DF0: FF FF 7F 73 30 30 33 01  80 79 00 08 90 0E 01 F0  ...s003..y......
0E00: FF FF 7F 29 08 08 90 0E  01 35 2B 08 90 0E 01 5B  ...).....5+....[
0E10: 80 23 29 08 08 90 0E 01  36 29 08 08 90 0E 01 3D  .#).....6).....=
0E20: 2B 08 90 0E 01 5C 80 23  29 08 08 90 0E 01 3E 02  +....\.#).....>.
0E30: 09 10 10 80 00 49 0E 52  54 80 F8 FF FF 7F F8 FF  .....I.RT.......
0E40: FF 7F 73 30 31 32 01 72  0E 02 09 10 12 80 00 63  ..s012.r.......c
0E50: 0E 52 54 80 F8 FF FF 7F  F8 FF FF 7F 73 30 31 32  .RT.........s012
0E60: 01 72 0E 52 54 80 F8 FF  FF 7F F8 FF FF 7F 73 30  .r.RT.........s0
0E70: 30 33 5D 01 80 01 80 45  54 80 F8 FF FF 7F F8 FF  03]....ET.......
0E80: FF 7F 73 30 30 34 01 80  4A 0A 90 0E 01 08 90 0E  ..s004..J.......
0E90: 01 4A 0B 90 0E 01 08 90  0E 01 7B 08 90 0E 01 6E  .J........{....n
0EA0: 08 90 0E 01 5D 80 99 08  90 0E 01 9F 53 80 08 90  ....].......S...
0EB0: 0E 01 08 90 0E 01 73 74  72 31 01 80 45 54 80 F8  ......str1..ET..
0EC0: FF FF 7F F8 FF FF 7F 73  65 33 36 01 80 1C 5E 80  .......se36...^.
0ED0: 45 54 80 F8 FF FF 7F F8  FF FF 7F 73 65 32 37 01  ET.........se27.
0EE0: 80 1C 5F 80 6E F0 FF FF  7F 60 80 99 F0 FF FF 7F  .._.n....`......
0EF0: 52 54 80 F8 FF FF 7F F8  FF FF 7F 73 30 30 34 45  RT.........s004E
0F00: 54 80 F8 FF FF 7F F8 FF  FF 7F 73 30 30 35 01 80  T.........s005..
0F10: 1C 06 80 9F 53 80 08 90  0E 01 08 90 0E 01 73 74  ....S.........st
0F20: 72 31 01 80 1C 5E 80 52  54 80 F8 FF FF 7F F8 FF  r1...^.RT.......
0F30: FF 7F 73 30 30 35 45 54  80 F8 FF FF 7F F8 FF FF  ..s005ET........
0F40: 7F 73 30 30 36 01 80 1C  5E 80 52 54 80 F8 FF FF  .s006...^.RT....
0F50: 7F F8 FF FF 7F 73 30 30  36 45 54 80 F8 FF FF 7F  .....s006ET.....
0F60: F8 FF FF 7F 73 30 32 32  01 80 1C 25 80 6E F0 FF  ....s022...%.n..
0F70: FF 7F 60 80 99 F0 FF FF  7F 52 54 80 F8 FF FF 7F  ..`......RT.....
0F80: F8 FF FF 7F 73 30 32 32  02 09 10 10 80 00 A4 0F  ....s022........
0F90: 45 54 80 F8 FF FF 7F F8  FF FF 7F 73 30 31 33 01  ET.........s013.
0FA0: 80 01 D1 0F 02 09 10 12  80 00 C0 0F 45 54 80 F8  ............ET..
0FB0: FF FF 7F F8 FF FF 7F 73  30 31 33 01 80 01 D1 0F  .......s013.....
0FC0: 45 54 80 F8 FF FF 7F F8  FF FF 7F 73 30 30 37 01  ET.........s007.
0FD0: 80 1C 17 80 1C 5F 80 6F  76 0A 90 0E 01 6F 76 0B  ....._.ov....ov.
0FE0: 90 0E 01 4A 0A 90 0E 01  0B 90 0E 01 29 08 08 90  ...J........)...
0FF0: 0E 01 3D 2B 08 90 0E 01  61 80 6F 76 0A 90 0E 01  ..=+....a.ov....
1000: 66 25 80 0A 90 0E 01 0A  90 0E 01 74 6C 6B 30 1C  f%.........tlk0.
1010: 5F 80 02 09 10 10 80 00  2C 10 52 54 80 F8 FF FF  _.......,.RT....
1020: 7F F8 FF FF 7F 73 30 31  33 01 55 10 02 09 10 12  .....s013.U.....
1030: 80 00 46 10 52 54 80 F8  FF FF 7F F8 FF FF 7F 73  ..F.RT.........s
1040: 30 31 33 01 55 10 52 54  80 F8 FF FF 7F F8 FF FF  013.U.RT........
1050: 7F 73 30 30 37 45 54 80  F8 FF FF 7F F8 FF FF 7F  .s007ET.........
1060: 73 30 39 37 01 80 5D 1C  80 03 80 79 00 08 90 0E  s097..]....y....
1070: 01 F0 FF FF 7F 23 29 08  08 90 0E 01 3E 29 08 08  .....#).....>)..
1080: 90 0E 01 2F 2B 08 90 0E  01 62 80 23 52 54 80 F8  .../+....b.#RT..
1090: FF FF 7F F8 FF FF 7F 73  30 39 37 02 09 10 10 80  .......s097.....
10A0: 00 B7 10 45 54 80 F8 FF  FF 7F F8 FF FF 7F 73 30  ...ET.........s0
10B0: 31 34 01 80 01 E4 10 02  09 10 12 80 00 D3 10 45  14.............E
10C0: 54 80 F8 FF FF 7F F8 FF  FF 7F 73 30 31 34 01 80  T.........s014..
10D0: 01 E4 10 45 54 80 F8 FF  FF 7F F8 FF FF 7F 73 30  ...ET.........s0
10E0: 30 38 01 80 4A 0B 90 0E  01 0A 90 0E 01 29 08 08  08..J........)..
10F0: 90 0E 01 2F 2B 08 90 0E  01 63 80 23 2B 08 90 0E  .../+....c.#+...
1100: 01 64 80 23 29 08 08 90  0E 01 30 6F 76 0B 90 0E  .d.#).....0ov...
1110: 01 02 09 10 10 80 00 2B  11 52 54 80 F8 FF FF 7F  .......+.RT.....
1120: F8 FF FF 7F 73 30 31 34  01 54 11 02 09 10 12 80  ....s014.T......
1130: 00 45 11 52 54 80 F8 FF  FF 7F F8 FF FF 7F 73 30  .E.RT.........s0
1140: 31 34 01 54 11 52 54 80  F8 FF FF 7F F8 FF FF 7F  14.T.RT.........
1150: 73 30 30 38 02 09 10 65  80 00 70 11 45 54 80 F8  s008...e..p.ET..
1160: FF FF 7F F8 FF FF 7F 73  30 30 39 01 80 01 D5 11  .......s009.....
1170: 02 09 10 10 80 00 8C 11  45 54 80 F8 FF FF 7F F8  ........ET......
1180: FF FF 7F 73 30 31 35 01  80 01 D5 11 02 09 10 12  ...s015.........
1190: 80 00 A8 11 45 54 80 F8  FF FF 7F F8 FF FF 7F 73  ....ET.........s
11A0: 30 31 35 01 80 01 D5 11  02 09 10 58 80 00 C4 11  015........X....
11B0: 45 54 80 F8 FF FF 7F F8  FF FF 7F 73 30 30 39 01  ET.........s009.
11C0: 80 01 D5 11 45 54 80 F8  FF FF 7F F8 FF FF 7F 73  ....ET.........s
11D0: 30 31 37 01 80 2B 08 90  0E 01 66 80 29 08 08 90  017..+....f.)...
11E0: 0E 01 31 66 25 80 0B 90  0E 01 0B 90 0E 01 74 6C  ..1f%.........tl
11F0: 6B 30 29 08 08 90 0E 01  32 29 08 08 90 0E 01 43  k0).....2).....C
1200: 23 29 08 08 90 0E 01 44  02 09 10 65 80 00 22 12  #).....D...e..".
1210: 52 54 80 F8 FF FF 7F F8  FF FF 7F 73 30 30 39 01  RT.........s009.
1220: 7F 12 02 09 10 10 80 00  3C 12 52 54 80 F8 FF FF  ........<.RT....
1230: 7F F8 FF FF 7F 73 30 31  35 01 7F 12 02 09 10 12  .....s015.......
1240: 80 00 56 12 52 54 80 F8  FF FF 7F F8 FF FF 7F 73  ..V.RT.........s
1250: 30 31 35 01 7F 12 02 09  10 58 80 00 70 12 52 54  015......X..p.RT
1260: 80 F8 FF FF 7F F8 FF FF  7F 73 30 30 39 01 7F 12  .........s009...
1270: 52 54 80 F8 FF FF 7F F8  FF FF 7F 73 30 31 37 45  RT.........s017E
1280: 54 80 F8 FF FF 7F F8 FF  FF 7F 73 30 31 30 01 80  T.........s010..
1290: 29 08 08 90 0E 01 45 2B  08 90 0E 01 67 80 23 5D  ).....E+....g.#]
12A0: 01 80 37 80 1A 64 00 29  08 08 90 0E 01 46 52 54  ..7..d.).....FRT
12B0: 80 F8 FF FF 7F F8 FF FF  7F 73 30 31 30 5C 00 3E  .........s010\.>
12C0: 80 5C 01 3E 80 9A 5D 1C  80 03 80 1C 4B 80 AB 11  .\.>..].....K...
12D0: 01 80 1C 03 80 46 00 45  00 80 F8 FF FF 7F F8 FF  .....F.E........
12E0: FF 7F 66 64 69 32 01 80  21 00                    ..fdi2..!.      
```

#### Opcodes

```
  0: 0x0B80 [0x42] SET_CLI_EVENT_CANCEL_DATA()
  1: 0x0B81 [0x5D] SET_MUSIC_VOLUME(volume=0*, fade_time=300*)
  2: 0x0B86 [0x1A] CALL_SUBROUTINE(address=0x0064)
  3: 0x0B89 [0x46] CAMERA_CONTROL: Disable user control
  4: 0x0B8B [0x38] SET_CLIENT_EVENT_MODE(mode=147*)
  5: 0x0B8E [0x02] IF !(Work_Zone[9] == 0*) GOTO 0x0B9C
  6: 0x0B96 [0x75] LOAD_ROOM(Load indoor room, room=372*)
  7: 0x0B9A [0x75] LOAD_ROOM(No action)
  8: 0x0B9C [0x92] Rahal (ID: 17731592/0x010E9008)->Render.Flags3 ^= 0x01
  9: 0x0BA2 [0x92] Milchupain (ID: 17731594/0x010E900A)->Render.Flags3 ^= 0x01
 10: 0x0BA8 [0x92] Aramaviont (ID: 17731595/0x010E900B)->Render.Flags3 ^= 0x01
 11: 0x0BAE [0x94] Rahal (ID: 17731592/0x010E9008)->Render.Flags3 ^= 0x01
 12: 0x0BB4 [0x94] Milchupain (ID: 17731594/0x010E900A)->Render.Flags3 ^= 0x01
 13: 0x0BBA [0x94] Aramaviont (ID: 17731595/0x010E900B)->Render.Flags3 ^= 0x01
 14: 0x0BC0 [0x94] LocalPlayer->Render.Flags3 ^= 0x01
 15: 0x0BC6 [0xBA] SET_ENTITY_POSITION(entity_id=Rahal (ID: 17731592/0x010E9008), pos_x=-31.225*, pos_z=-6.881*, pos_y=0.000*, direction=14.6*)
 16: 0x0BD3 [0xBA] SET_ENTITY_POSITION(entity_id=LocalPlayer, pos_x=-29.304*, pos_z=-6.747*, pos_y=0.000*, direction=108.5*)
 17: 0x0BE0 [0x80] LOAD_WAIT(entity=Rahal (ID: 17731592/0x010E9008))
 18: 0x0BE5 [0x80] LOAD_WAIT(entity=Milchupain (ID: 17731594/0x010E900A))
 19: 0x0BEA [0x80] LOAD_WAIT(entity=Aramaviont (ID: 17731595/0x010E900B))
 20: 0x0BEF [0x80] LOAD_WAIT(entity=LocalPlayer)
 21: 0x0BF4 [0x5C] MUSIC_CONTROL: Set Idle (Day) music to song 25*
 22: 0x0BF8 [0x5C] MUSIC_CONTROL: Set Idle (Night) music to song 25*
 23: 0x0BFC [0x9A] WAIT_MUSIC_SERVER()
 24: 0x0BFD [0x5D] SET_MUSIC_VOLUME(volume=127*, fade_time=1*)
 25: 0x0C02 [0x4A] Rahal (ID: 17731592/0x010E9008) looks at LocalPlayer
 26: 0x0C0B [0x4A] LocalPlayer looks at Rahal (ID: 17731592/0x010E9008)
 27: 0x0C14 [0x6F] WAIT_FRAME_DELAY: Yield until WaitTime reaches zero
 28: 0x0C15 [0x76] CHECK_ENTITY_RENDER_FLAGS: Wait until Rahal (ID: 17731592/0x010E9008) Render.Flags0 and Render.Flags3 conditions are met
 29: 0x0C1A [0x6F] WAIT_FRAME_DELAY: Yield until WaitTime reaches zero
 30: 0x0C1B [0x76] CHECK_ENTITY_RENDER_FLAGS: Wait until LocalPlayer Render.Flags0 and Render.Flags3 conditions are met
 31: 0x0C20 [0x9F] LOAD_SCHEDULED_TASK_ALT: Load scheduler 0xFEFEFE00 with entities [Rahal (ID: 17731592/0x010E9008), Rahal (ID: 17731592/0x010E9008)], work=[160*, 0*]
 32: 0x0C31 [0x29] REQ_SET_WAIT(priority=0x08, entity_id=LocalPlayer, tag_num=0x81)
 33: 0x0C38 [0x29] REQ_SET_WAIT(priority=0x08, entity_id=Rahal (ID: 17731592/0x010E9008), tag_num=0x33)
 34: 0x0C3F [0x29] REQ_SET_WAIT(priority=0x08, entity_id=Rahal (ID: 17731592/0x010E9008), tag_num=0x34)
 35: 0x0C46 [0x45] LOAD_SCHEDULED_TASK: Load scheduler "s000" with entities [EventEntity, EventEntity], work=[841*, 0*]
 36: 0x0C57 [0x1A] CALL_SUBROUTINE(address=0x0043)
 37: 0x0C5A [0x2B] Rahal (ID: 17731592/0x010E9008) [8675*]:
     "Ah, you must be <Player>, the adventurer Monarlais Halver spoke of."
 38: 0x0C61 [0x23] WAIT_FOR_DIALOG_INTERACTION
 39: 0x0C62 [0x29] REQ_SET_WAIT(priority=0x08, entity_id=Rahal (ID: 17731592/0x010E9008), tag_num=0x35)
 40: 0x0C69 [0x2B] Rahal (ID: 17731592/0x010E9008) [8676*]:
     "Yes, I imagine you shall do quite nicely."
 41: 0x0C70 [0x23] WAIT_FOR_DIALOG_INTERACTION
 42: 0x0C71 [0x29] REQ_SET_WAIT(priority=0x08, entity_id=Rahal (ID: 17731592/0x010E9008), tag_num=0x36)
 43: 0x0C78 [0x52] END_LOAD_SCHEDULER: End scheduler "s000" with entities [EventEntity, EventEntity], work=841*
 44: 0x0C87 [0x45] LOAD_SCHEDULED_TASK: Load scheduler "s001" with entities [EventEntity, EventEntity], work=[841*, 0*]
 45: 0x0C98 [0x29] REQ_SET_WAIT(priority=0x08, entity_id=Rahal (ID: 17731592/0x010E9008), tag_num=0x2F)
 46: 0x0C9F [0x2B] Rahal (ID: 17731592/0x010E9008) [8677*]:
     "According to our mutual friend, you are worried about Orc activity in the area?"
 47: 0x0CA6 [0x23] WAIT_FOR_DIALOG_INTERACTION
 48: 0x0CA7 [0x52] END_LOAD_SCHEDULER: End scheduler "s001" with entities [EventEntity, EventEntity], work=841*
 49: 0x0CB6 [0x02] IF !(Work_Zone[9] == 5*) GOTO 0x0CD2
 50: 0x0CBE [0x45] LOAD_SCHEDULED_TASK: Load scheduler "s011" with entities [EventEntity, EventEntity], work=[841*, 0*]
 51: 0x0CCF [0x01] GOTO 0x0D1B
 52: 0x0CD2 [0x02] IF !(Work_Zone[9] == 6*) GOTO 0x0CEE
 53: 0x0CDA [0x45] LOAD_SCHEDULED_TASK: Load scheduler "s011" with entities [EventEntity, EventEntity], work=[841*, 0*]
 54: 0x0CEB [0x01] GOTO 0x0D1B
 55: 0x0CEE [0x02] IF !(Work_Zone[9] == 8*) GOTO 0x0D0A
 56: 0x0CF6 [0x45] LOAD_SCHEDULED_TASK: Load scheduler "s002" with entities [EventEntity, EventEntity], work=[841*, 0*]
 57: 0x0D07 [0x01] GOTO 0x0D1B
 58: 0x0D0A [0x45] LOAD_SCHEDULED_TASK: Load scheduler "s016" with entities [EventEntity, EventEntity], work=[841*, 0*]

SUBROUTINE_0D1B:
 59: 0x0D1B [0x2B] Rahal (ID: 17731592/0x010E9008) [8678*]:
     "Or perhaps more aptly put--you are worried about Prince Trion's response to any possible Orc movements in the area?"
 60: 0x0D22 [0x29] REQ_SET_WAIT(priority=0x08, entity_id=Rahal (ID: 17731592/0x010E9008), tag_num=0x30)
 61: 0x0D29 [0x29] REQ_SET_WAIT(priority=0x08, entity_id=Rahal (ID: 17731592/0x010E9008), tag_num=0x31)
 62: 0x0D30 [0x29] REQ_SET_WAIT(priority=0x08, entity_id=Rahal (ID: 17731592/0x010E9008), tag_num=0x32)
 63: 0x0D37 [0x23] WAIT_FOR_DIALOG_INTERACTION
 64: 0x0D38 [0x7B] Rahal (ID: 17731592/0x010E9008) stops talking
 65: 0x0D3D [0x29] REQ_SET_WAIT(priority=0x08, entity_id=Rahal (ID: 17731592/0x010E9008), tag_num=0x33)
 66: 0x0D44 [0x2B] Rahal (ID: 17731592/0x010E9008) [8679*]:
     "If you respect Prince Trion's feelings, you would do best to refrain from assisting Monarlais Halver."
 67: 0x0D4B [0x23] WAIT_FOR_DIALOG_INTERACTION
 68: 0x0D4C [0x29] REQ_SET_WAIT(priority=0x08, entity_id=Rahal (ID: 17731592/0x010E9008), tag_num=0x34)
 69: 0x0D53 [0x02] IF !(Work_Zone[9] == 5*) GOTO 0x0D6D
 70: 0x0D5B [0x52] END_LOAD_SCHEDULER: End scheduler "s011" with entities [EventEntity, EventEntity], work=841*
 71: 0x0D6A [0x01] GOTO 0x0DB0
 72: 0x0D6D [0x02] IF !(Work_Zone[9] == 6*) GOTO 0x0D87
 73: 0x0D75 [0x52] END_LOAD_SCHEDULER: End scheduler "s011" with entities [EventEntity, EventEntity], work=841*
 74: 0x0D84 [0x01] GOTO 0x0DB0
 75: 0x0D87 [0x02] IF !(Work_Zone[9] == 8*) GOTO 0x0DA1
 76: 0x0D8F [0x52] END_LOAD_SCHEDULER: End scheduler "s002" with entities [EventEntity, EventEntity], work=841*
 77: 0x0D9E [0x01] GOTO 0x0DB0
 78: 0x0DA1 [0x52] END_LOAD_SCHEDULER: End scheduler "s016" with entities [EventEntity, EventEntity], work=841*

SUBROUTINE_0DB0:
 79: 0x0DB0 [0x02] IF !(Work_Zone[9] == 5*) GOTO 0x0DCC
 80: 0x0DB8 [0x45] LOAD_SCHEDULED_TASK: Load scheduler "s012" with entities [EventEntity, EventEntity], work=[841*, 0*]
 81: 0x0DC9 [0x01] GOTO 0x0DF9
 82: 0x0DCC [0x02] IF !(Work_Zone[9] == 6*) GOTO 0x0DE8
 83: 0x0DD4 [0x45] LOAD_SCHEDULED_TASK: Load scheduler "s012" with entities [EventEntity, EventEntity], work=[841*, 0*]
 84: 0x0DE5 [0x01] GOTO 0x0DF9
 85: 0x0DE8 [0x45] LOAD_SCHEDULED_TASK: Load scheduler "s003" with entities [EventEntity, EventEntity], work=[841*, 0*]

SUBROUTINE_0DF9:
 86: 0x0DF9 [0x79] Rahal (ID: 17731592/0x010E9008) looks at LocalPlayer (Basic look)
 87: 0x0E03 [0x29] REQ_SET_WAIT(priority=0x08, entity_id=Rahal (ID: 17731592/0x010E9008), tag_num=0x35)
 88: 0x0E0A [0x2B] Rahal (ID: 17731592/0x010E9008) [8680*]:
     "Although, I cannot understand why the good prince loathes attending balls so much."
 89: 0x0E11 [0x23] WAIT_FOR_DIALOG_INTERACTION
 90: 0x0E12 [0x29] REQ_SET_WAIT(priority=0x08, entity_id=Rahal (ID: 17731592/0x010E9008), tag_num=0x36)
 91: 0x0E19 [0x29] REQ_SET_WAIT(priority=0x08, entity_id=Rahal (ID: 17731592/0x010E9008), tag_num=0x3D)
 92: 0x0E20 [0x2B] Rahal (ID: 17731592/0x010E9008) [8681*]:
     "I am actually quite an accomplished dancer myself."
 93: 0x0E27 [0x23] WAIT_FOR_DIALOG_INTERACTION
 94: 0x0E28 [0x29] REQ_SET_WAIT(priority=0x08, entity_id=Rahal (ID: 17731592/0x010E9008), tag_num=0x3E)
 95: 0x0E2F [0x02] IF !(Work_Zone[9] == 5*) GOTO 0x0E49
 96: 0x0E37 [0x52] END_LOAD_SCHEDULER: End scheduler "s012" with entities [EventEntity, EventEntity], work=841*
 97: 0x0E46 [0x01] GOTO 0x0E72
 98: 0x0E49 [0x02] IF !(Work_Zone[9] == 6*) GOTO 0x0E63
 99: 0x0E51 [0x52] END_LOAD_SCHEDULER: End scheduler "s012" with entities [EventEntity, EventEntity], work=841*
100: 0x0E60 [0x01] GOTO 0x0E72
101: 0x0E63 [0x52] END_LOAD_SCHEDULER: End scheduler "s003" with entities [EventEntity, EventEntity], work=841*

SUBROUTINE_0E72:
102: 0x0E72 [0x5D] SET_MUSIC_VOLUME(volume=0*, fade_time=0*)
103: 0x0E77 [0x45] LOAD_SCHEDULED_TASK: Load scheduler "s004" with entities [EventEntity, EventEntity], work=[841*, 0*]
104: 0x0E88 [0x4A] Milchupain (ID: 17731594/0x010E900A) looks at Rahal (ID: 17731592/0x010E9008)
105: 0x0E91 [0x4A] Aramaviont (ID: 17731595/0x010E900B) looks at Rahal (ID: 17731592/0x010E9008)
106: 0x0E9A [0x7B] Rahal (ID: 17731592/0x010E9008) stops talking
107: 0x0E9F [0x6E] Rahal (ID: 17731592/0x010E9008) uses emote 68*
108: 0x0EA6 [0x99] Wait for Rahal (ID: 17731592/0x010E9008) animation to complete
109: 0x0EAB [0x9F] LOAD_SCHEDULED_TASK_ALT: Load scheduler "str1" with entities [Rahal (ID: 17731592/0x010E9008), Rahal (ID: 17731592/0x010E9008)], work=[160*, 0*]
110: 0x0EBC [0x45] LOAD_SCHEDULED_TASK: Load scheduler "se36" with entities [EventEntity, EventEntity], work=[841*, 0*]
111: 0x0ECD [0x1C] WAIT(40* ticks)
112: 0x0ED0 [0x45] LOAD_SCHEDULED_TASK: Load scheduler "se27" with entities [EventEntity, EventEntity], work=[841*, 0*]
113: 0x0EE1 [0x1C] WAIT(10* ticks)
114: 0x0EE4 [0x6E] LocalPlayer uses emote 21*
115: 0x0EEB [0x99] Wait for LocalPlayer animation to complete
116: 0x0EF0 [0x52] END_LOAD_SCHEDULER: End scheduler "s004" with entities [EventEntity, EventEntity], work=841*
