# 17731625 - DoorPrince Regents Rm

## Common Data

| Field            | Value                         |
|------------------|-------------------------------|
| Zone             | Chateau d'Oraguille (ID: 233) |
| Block Size       | 3656 bytes                    |
| Total Events     | 13                            |
| References Count | 98                            |

## List of Events

| Event ID                 | Entrypoint   |   Size |   Instructions |
|--------------------------|--------------|--------|----------------|
| [65535](#event-65535)    | 0x0000       |      1 |              1 |
| [66](#event-66)          | 0x0001       |      7 |              2 |
| [4](#event-4)            | 0x0008       |    151 |             19 |
| [6](#event-6)            | 0x009F       |    151 |             19 |
| [5](#event-5)            | 0x0136       |      1 |              1 |
| [73](#event-73)          | 0x0137       |      1 |              1 |
| [65535.1](#event-655351) | 0x0138       |      2 |              2 |
| [65535.2](#event-655352) | 0x013A       |      2 |              2 |
| [536](#event-536)        | 0x013C       |    175 |             35 |
| [551](#event-551)        | 0x01EB       |   1378 |            167 |
| [552](#event-552)        | 0x074D       |   1324 |            166 |
| [75](#event-75)          | 0x0C79       |      1 |              1 |
| [74](#event-74)          | 0x0C7A       |      1 |              1 |

## DAT References (imed_data)

|   Index | Hex Value   |   Dec Value |
|---------|-------------|-------------|
|       0 | 0x000A      |          10 |
|       1 | 0x00F2      |         242 |
|       2 | 0x0000      |           0 |
|       3 | 0x001F      |          31 |
|       4 | 0x1E7E      |        7806 |
|       5 | 0x00C8      |         200 |
|       6 | 0x1E80      |        7808 |
|       7 | 0x0001      |           1 |
|       8 | 0x07FF      |        2047 |
|       9 | 0x0085      |         133 |
|      10 | 0x0003      |           3 |
|      11 | 0x003C      |          60 |
|      12 | 0xFFFF6B87  |  4294929287 |
|      13 | 0x68CC      |       26828 |
|      14 | 0xFFFFF15B  |  4294963547 |
|      15 | 0x0400      |        1024 |
|      16 | 0x005A      |          90 |
|      17 | 0xFFFF6B95  |  4294929301 |
|      18 | 0x76B5      |       30389 |
|      19 | 0x0C00      |        3072 |
|      20 | 0x0177      |         375 |
|      21 | 0x0448      |        1096 |
|      22 | 0x0449      |        1097 |
|      23 | 0x32C3      |       12995 |
|      24 | 0x001E      |          30 |
|      25 | 0x007B      |         123 |
|      26 | 0x00CE      |         206 |
|      27 | 0x1D76      |        7542 |
|      28 | 0x1D77      |        7543 |
|      29 | 0x0014      |          20 |
|      30 | 0x1D78      |        7544 |
|      31 | 0x1D79      |        7545 |
|      32 | 0x01E0      |         480 |
|      33 | 0x1D7A      |        7546 |
|      34 | 0x1D7B      |        7547 |
|      35 | 0x1D7C      |        7548 |
|      36 | 0x1D7D      |        7549 |
|      37 | 0x0078      |         120 |
|      38 | 0x1D7E      |        7550 |
|      39 | 0x1D7F      |        7551 |
|      40 | 0x1D80      |        7552 |
|      41 | 0x1D81      |        7553 |
|      42 | 0x1D82      |        7554 |
|      43 | 0x1D83      |        7555 |
|      44 | 0x1D84      |        7556 |
|      45 | 0x1D85      |        7557 |
|      46 | 0x1D86      |        7558 |
|      47 | 0x0079      |         121 |
|      48 | 0x1D87      |        7559 |
|      49 | 0x1D88      |        7560 |
|      50 | 0x1D89      |        7561 |
|      51 | 0x1D8A      |        7562 |
|      52 | 0x1D8B      |        7563 |
|      53 | 0x1D8C      |        7564 |
|      54 | 0x1D8D      |        7565 |
|      55 | 0x1D8E      |        7566 |
|      56 | 0x1D8F      |        7567 |
|      57 | 0x1D90      |        7568 |
|      58 | 0x1D91      |        7569 |
|      59 | 0x1D92      |        7570 |
|      60 | 0x009C      |         156 |
|      61 | 0x044A      |        1098 |
|      62 | 0x007F      |         127 |
|      63 | 0x1D93      |        7571 |
|      64 | 0x0064      |         100 |
|      65 | 0x1D94      |        7572 |
|      66 | 0x1D95      |        7573 |
|      67 | 0x1D96      |        7574 |
|      68 | 0x00F0      |         240 |
|      69 | 0x1D97      |        7575 |
|      70 | 0x1D98      |        7576 |
|      71 | 0x1D99      |        7577 |
|      72 | 0x1D9A      |        7578 |
|      73 | 0x1D9B      |        7579 |
|      74 | 0x1D9C      |        7580 |
|      75 | 0x1D9D      |        7581 |
|      76 | 0x1D9E      |        7582 |
|      77 | 0x1D9F      |        7583 |
|      78 | 0x1DA0      |        7584 |
|      79 | 0x1DA1      |        7585 |
|      80 | 0x1DA2      |        7586 |
|      81 | 0x1DA3      |        7587 |
|      82 | 0x1DA4      |        7588 |
|      83 | 0x1DA5      |        7589 |
|      84 | 0x1DA6      |        7590 |
|      85 | 0x1DA7      |        7591 |
|      86 | 0x1DA8      |        7592 |
|      87 | 0x1DA9      |        7593 |
|      88 | 0x1DAA      |        7594 |
|      89 | 0x1DAB      |        7595 |
|      90 | 0x1DAC      |        7596 |
|      91 | 0x1DAD      |        7597 |
|      92 | 0x1DAE      |        7598 |
|      93 | 0x1DAF      |        7599 |
|      94 | 0x1DB0      |        7600 |
|      95 | 0x1DB1      |        7601 |
|      96 | 0x1DB2      |        7602 |
|      97 | 0x1DB3      |        7603 |

## Events

### Event 65535

#### Metadata

| Field        | Value   |
|--------------|---------|
| Entrypoint   | 0x0000  |
| Data Size    | 1 bytes |
| Instructions | 1       |

```
      00 01 02 03 04 05 06 07  08 09 0A 0B 0C 0D 0E 0F
      -- -- -- -- -- -- -- --  -- -- -- -- -- -- -- --
0000: 00                                                .               
```

#### Opcodes

```
  0: 0x0000 [0x00] END_REQSTACK()
```

### Event 66

#### Metadata

| Field        | Value   |
|--------------|---------|
| Entrypoint   | 0x0001  |
| Data Size    | 7 bytes |
| Instructions | 2       |

```
      00 01 02 03 04 05 06 07  08 09 0A 0B 0C 0D 0E 0F
      -- -- -- -- -- -- -- --  -- -- -- -- -- -- -- --
0000:    94 01 F8 FF FF 7F 00                            .......        
```

#### Opcodes

```
  0: 0x0001 [0x94] EventEntity->Render.Flags3 ^= 0x01
  1: 0x0007 [0x00] END_REQSTACK()
```

### Event 4

#### Metadata

| Field        | Value     |
|--------------|-----------|
| Entrypoint   | 0x0008    |
| Data Size    | 151 bytes |
| Instructions | 19        |

```
      00 01 02 03 04 05 06 07  08 09 0A 0B 0C 0D 0E 0F
      -- -- -- -- -- -- -- --  -- -- -- -- -- -- -- --
0000:                          42 46 01 4A 1C 90 0E 01          BF.J....
0010: F0 FF FF 7F 1C 00 80 45  01 80 F0 FF FF 7F F0 FF  .......E........
0020: FF 7F 77 30 30 38 02 80  55 01 80 F0 FF FF 7F F0  ..w008..U.......
0030: FF FF 7F 77 30 30 38 6F  76 1C 90 0E 01 4A F0 FF  ...w008ov....J..
0040: FF 7F 1C 90 0E 01 66 03  80 1C 90 0E 01 1C 90 0E  ......f.........
0050: 01 73 61 6C 32 2B 1C 90  0E 01 04 80 23 53 1C 90  .sal2+......#S..
0060: 0E 01 1C 90 0E 01 73 61  6C 32 45 05 80 F0 FF FF  ......sal2E.....
0070: 7F F0 FF FF 7F 66 64 6F  32 02 80 55 05 80 F0 FF  .....fdo2..U....
0080: FF 7F F0 FF FF 7F 66 64  6F 32 46 00 45 05 80 F0  ......fdo2F.E...
0090: FF FF 7F F0 FF FF 7F 66  64 69 32 02 80 21 00     .......fdi2..!. 
```

#### Opcodes

```
  0: 0x0008 [0x42] SET_CLI_EVENT_CANCEL_DATA()
  1: 0x0009 [0x46] CAMERA_CONTROL: Disable user control
  2: 0x000B [0x4A] Nachou (ID: 17731612/0x010E901C) looks at LocalPlayer
  3: 0x0014 [0x1C] WAIT(10* ticks)
  4: 0x0017 [0x45] LOAD_SCHEDULED_TASK: Load scheduler "w008" with entities [LocalPlayer, LocalPlayer], work=[242*, 0*]
  5: 0x0028 [0x55] WAIT_LOAD_SCHEDULER: Wait for scheduler "w008" with entities [LocalPlayer, LocalPlayer], work=242*
  6: 0x0037 [0x6F] WAIT_FRAME_DELAY: Yield until WaitTime reaches zero
  7: 0x0038 [0x76] CHECK_ENTITY_RENDER_FLAGS: Wait until Nachou (ID: 17731612/0x010E901C) Render.Flags0 and Render.Flags3 conditions are met
  8: 0x003D [0x4A] LocalPlayer looks at Nachou (ID: 17731612/0x010E901C)
  9: 0x0046 [0x66] LOAD_EXT_SCHEDULER_MAIN: Load scheduler "sal2" with entities [Nachou (ID: 17731612/0x010E901C), Nachou (ID: 17731612/0x010E901C)], work=31*
 10: 0x0055 [0x2B] Nachou (ID: 17731612/0x010E901C) [7806*]:
    → "Prince Pieuje has left with the expedition to Fei'Yin. I can only pray for his safety."
 11: 0x005C [0x23] WAIT_FOR_DIALOG_INTERACTION
 12: 0x005D [0x53] WAIT_SCHEDULER_TASK: Wait for scheduler "sal2" with entities [Nachou (ID: 17731612/0x010E901C), Nachou (ID: 17731612/0x010E901C)]
 13: 0x006A [0x45] LOAD_SCHEDULED_TASK: Load scheduler "fdo2" with entities [LocalPlayer, LocalPlayer], work=[200*, 0*]
 14: 0x007B [0x55] WAIT_LOAD_SCHEDULER: Wait for scheduler "fdo2" with entities [LocalPlayer, LocalPlayer], work=200*
 15: 0x008A [0x46] CAMERA_CONTROL: Restore default settings
 16: 0x008C [0x45] LOAD_SCHEDULED_TASK: Load scheduler "fdi2" with entities [LocalPlayer, LocalPlayer], work=[200*, 0*]
 17: 0x009D [0x21] END_EVENT
 18: 0x009E [0x00] END_REQSTACK()
```

### Event 6

#### Metadata

| Field        | Value     |
|--------------|-----------|
| Entrypoint   | 0x009F    |
| Data Size    | 151 bytes |
| Instructions | 19        |

```
      00 01 02 03 04 05 06 07  08 09 0A 0B 0C 0D 0E 0F
      -- -- -- -- -- -- -- --  -- -- -- -- -- -- -- --
0090:                                               42                 B
00A0: 46 01 4A 1C 90 0E 01 F0  FF FF 7F 1C 00 80 45 01  F.J...........E.
00B0: 80 F0 FF FF 7F F0 FF FF  7F 77 30 30 38 02 80 55  .........w008..U
00C0: 01 80 F0 FF FF 7F F0 FF  FF 7F 77 30 30 38 6F 76  ..........w008ov
00D0: 1C 90 0E 01 4A F0 FF FF  7F 1C 90 0E 01 66 03 80  ....J........f..
00E0: 1C 90 0E 01 1C 90 0E 01  73 61 6C 32 2B 1C 90 0E  ........sal2+...
00F0: 01 06 80 23 53 1C 90 0E  01 1C 90 0E 01 73 61 6C  ...#S........sal
0100: 32 45 05 80 F0 FF FF 7F  F0 FF FF 7F 66 64 6F 32  2E..........fdo2
0110: 02 80 55 05 80 F0 FF FF  7F F0 FF FF 7F 66 64 6F  ..U..........fdo
0120: 32 46 00 45 05 80 F0 FF  FF 7F F0 FF FF 7F 66 64  2F.E..........fd
0130: 69 32 02 80 21 00                                 i2..!.          
```

#### Opcodes

```
  0: 0x009F [0x42] SET_CLI_EVENT_CANCEL_DATA()
  1: 0x00A0 [0x46] CAMERA_CONTROL: Disable user control
  2: 0x00A2 [0x4A] Nachou (ID: 17731612/0x010E901C) looks at LocalPlayer
  3: 0x00AB [0x1C] WAIT(10* ticks)
  4: 0x00AE [0x45] LOAD_SCHEDULED_TASK: Load scheduler "w008" with entities [LocalPlayer, LocalPlayer], work=[242*, 0*]
  5: 0x00BF [0x55] WAIT_LOAD_SCHEDULER: Wait for scheduler "w008" with entities [LocalPlayer, LocalPlayer], work=242*
  6: 0x00CE [0x6F] WAIT_FRAME_DELAY: Yield until WaitTime reaches zero
  7: 0x00CF [0x76] CHECK_ENTITY_RENDER_FLAGS: Wait until Nachou (ID: 17731612/0x010E901C) Render.Flags0 and Render.Flags3 conditions are met
  8: 0x00D4 [0x4A] LocalPlayer looks at Nachou (ID: 17731612/0x010E901C)
  9: 0x00DD [0x66] LOAD_EXT_SCHEDULER_MAIN: Load scheduler "sal2" with entities [Nachou (ID: 17731612/0x010E901C), Nachou (ID: 17731612/0x010E901C)], work=31*
 10: 0x00EC [0x2B] Nachou (ID: 17731612/0x010E901C) [7808*]:
    → "Prince Pieuje has returned without injury and is awaiting your arrival in the Audience Chamber."
 11: 0x00F3 [0x23] WAIT_FOR_DIALOG_INTERACTION
 12: 0x00F4 [0x53] WAIT_SCHEDULER_TASK: Wait for scheduler "sal2" with entities [Nachou (ID: 17731612/0x010E901C), Nachou (ID: 17731612/0x010E901C)]
 13: 0x0101 [0x45] LOAD_SCHEDULED_TASK: Load scheduler "fdo2" with entities [LocalPlayer, LocalPlayer], work=[200*, 0*]
 14: 0x0112 [0x55] WAIT_LOAD_SCHEDULER: Wait for scheduler "fdo2" with entities [LocalPlayer, LocalPlayer], work=200*
 15: 0x0121 [0x46] CAMERA_CONTROL: Restore default settings
 16: 0x0123 [0x45] LOAD_SCHEDULED_TASK: Load scheduler "fdi2" with entities [LocalPlayer, LocalPlayer], work=[200*, 0*]
 17: 0x0134 [0x21] END_EVENT
 18: 0x0135 [0x00] END_REQSTACK()
```

### Event 5

#### Metadata

| Field        | Value   |
|--------------|---------|
| Entrypoint   | 0x0136  |
| Data Size    | 1 bytes |
| Instructions | 1       |

```
      00 01 02 03 04 05 06 07  08 09 0A 0B 0C 0D 0E 0F
      -- -- -- -- -- -- -- --  -- -- -- -- -- -- -- --
0130:                   00                                    .         
```

#### Opcodes

```
  0: 0x0136 [0x00] END_REQSTACK()
```

### Event 73

#### Metadata

| Field        | Value   |
|--------------|---------|
| Entrypoint   | 0x0137  |
| Data Size    | 1 bytes |
| Instructions | 1       |

```
      00 01 02 03 04 05 06 07  08 09 0A 0B 0C 0D 0E 0F
      -- -- -- -- -- -- -- --  -- -- -- -- -- -- -- --
0130:                      00                                  .        
```

#### Opcodes

```
  0: 0x0137 [0x00] END_REQSTACK()
```

### Event 65535.1

#### Metadata

| Field        | Value   |
|--------------|---------|
| Entrypoint   | 0x0138  |
| Data Size    | 2 bytes |
| Instructions | 2       |

```
      00 01 02 03 04 05 06 07  08 09 0A 0B 0C 0D 0E 0F
      -- -- -- -- -- -- -- --  -- -- -- -- -- -- -- --
0130:                          4C 00                            L.      
```

#### Opcodes

```
  0: 0x0138 [0x4C] EventEntity->StatusEvent = 8 // Open door
  1: 0x0139 [0x00] END_REQSTACK()
```

### Event 65535.2

#### Metadata

| Field        | Value   |
|--------------|---------|
| Entrypoint   | 0x013A  |
| Data Size    | 2 bytes |
| Instructions | 2       |

```
      00 01 02 03 04 05 06 07  08 09 0A 0B 0C 0D 0E 0F
      -- -- -- -- -- -- -- --  -- -- -- -- -- -- -- --
0130:                                4D 00                        M.    
```

#### Opcodes

```
  0: 0x013A [0x4D] EventEntity->StatusEvent = 9 // Close door
  1: 0x013B [0x00] END_REQSTACK()
```

### Event 536

#### Metadata

| Field        | Value     |
|--------------|-----------|
| Entrypoint   | 0x013C    |
| Data Size    | 175 bytes |
| Instructions | 35        |

```
      00 01 02 03 04 05 06 07  08 09 0A 0B 0C 0D 0E 0F
      -- -- -- -- -- -- -- --  -- -- -- -- -- -- -- --
0130:                                      42 46 01 27              BF.'
0140: 64 F0 FF FF 7F 1E 2A 64  F0 FF FF 7F 3A F0 FF FF  d.....*d....:...
0150: 7F 00 00 02 00 00 07 80  02 A8 01 02 00 00 08 80  ................
0160: 03 A8 01 45 09 80 F0 FF  FF 7F F0 FF FF 7F 73 30  ...E..........s0
0170: 30 32 02 80 38 0A 80 27  64 F0 FF FF 7F 25 2A 64  02..8..'d....%*d
0180: F0 FF FF 7F 4C 1C 0B 80  27 64 F0 FF FF 7F 27 2A  ....L...'d....'*
0190: 64 F0 FF FF 7F 47 00 0C  80 0D 80 0E 80 0F 80 47  d....G.........G
01A0: 01 4D 1C 10 80 46 00 21  45 09 80 F0 FF FF 7F F0  .M...F.!E.......
01B0: FF FF 7F 73 30 30 33 02  80 27 64 F0 FF FF 7F 26  ...s003..'d....&
01C0: 2A 64 F0 FF FF 7F 4C 1C  0B 80 27 64 F0 FF FF 7F  *d....L...'d....
01D0: 28 2A 64 F0 FF FF 7F 47  00 11 80 12 80 0E 80 13  (*d....G........
01E0: 80 47 01 4D 1C 10 80 46  00 21 00                 .G.M...F.!.     
```

#### Opcodes

```
  0: 0x013C [0x42] SET_CLI_EVENT_CANCEL_DATA()
  1: 0x013D [0x46] CAMERA_CONTROL: Disable user control
  2: 0x013F [0x27] REQ_SET(priority=0x64, entity_id=LocalPlayer, tag_num=0x1E)
  3: 0x0146 [0x2A] GET_REQ_LEVEL(level=100, entity_id=LocalPlayer)
  4: 0x014C [0x3A] CONVERT_YAW_TO_BYTE(entity=LocalPlayer, result_destination=ExtData[1]->WorkLocal[0])
  5: 0x0153 [0x02] IF !(ExtData[1]->WorkLocal[0] <= 1*) GOTO 0x01A8
  6: 0x015B [0x02] IF !(ExtData[1]->WorkLocal[0] >= 2047*) GOTO 0x01A8
  7: 0x0163 [0x45] LOAD_SCHEDULED_TASK: Load scheduler "s002" with entities [LocalPlayer, LocalPlayer], work=[133*, 0*]
  8: 0x0174 [0x38] SET_CLIENT_EVENT_MODE(mode=3*)
  9: 0x0177 [0x27] REQ_SET(priority=0x64, entity_id=LocalPlayer, tag_num=0x25)
 10: 0x017E [0x2A] GET_REQ_LEVEL(level=100, entity_id=LocalPlayer)
 11: 0x0184 [0x4C] EventEntity->StatusEvent = 8 // Open door
 12: 0x0185 [0x1C] WAIT(60* ticks)
 13: 0x0188 [0x27] REQ_SET(priority=0x64, entity_id=LocalPlayer, tag_num=0x27)
 14: 0x018F [0x2A] GET_REQ_LEVEL(level=100, entity_id=LocalPlayer)
 15: 0x0195 [0x47] UPDATE_PLAYER_POS(-38.009*, 26.828*, -3.749*, yaw=90.0°*)
 16: 0x019F [0x47] WAIT_PLAYER_POS_UPDATE
 17: 0x01A1 [0x4D] EventEntity->StatusEvent = 9 // Close door
 18: 0x01A2 [0x1C] WAIT(90* ticks)
 19: 0x01A5 [0x46] CAMERA_CONTROL: Restore default settings
 20: 0x01A7 [0x21] END_EVENT
 21: 0x01A8 [0x45] LOAD_SCHEDULED_TASK: Load scheduler "s003" with entities [LocalPlayer, LocalPlayer], work=[133*, 0*]
 22: 0x01B9 [0x27] REQ_SET(priority=0x64, entity_id=LocalPlayer, tag_num=0x26)
 23: 0x01C0 [0x2A] GET_REQ_LEVEL(level=100, entity_id=LocalPlayer)
 24: 0x01C6 [0x4C] EventEntity->StatusEvent = 8 // Open door
 25: 0x01C7 [0x1C] WAIT(60* ticks)
 26: 0x01CA [0x27] REQ_SET(priority=0x64, entity_id=LocalPlayer, tag_num=0x28)
 27: 0x01D1 [0x2A] GET_REQ_LEVEL(level=100, entity_id=LocalPlayer)
 28: 0x01D7 [0x47] UPDATE_PLAYER_POS(-37.995*, 30.389*, -3.749*, yaw=270.0°*)
 29: 0x01E1 [0x47] WAIT_PLAYER_POS_UPDATE
 30: 0x01E3 [0x4D] EventEntity->StatusEvent = 9 // Close door
 31: 0x01E4 [0x1C] WAIT(90* ticks)
 32: 0x01E7 [0x46] CAMERA_CONTROL: Restore default settings
 33: 0x01E9 [0x21] END_EVENT
 34: 0x01EA [0x00] END_REQSTACK()
```

### Event 551

#### Metadata

| Field        | Value      |
|--------------|------------|
| Entrypoint   | 0x01EB     |
| Data Size    | 1378 bytes |
| Instructions | 167        |

```
      00 01 02 03 04 05 06 07  08 09 0A 0B 0C 0D 0E 0F
      -- -- -- -- -- -- -- --  -- -- -- -- -- -- -- --
01E0:                                   75 00 14 80 75             u...u
01F0: 01 03 09 10 15 80 03 08  10 16 80 03 07 10 17 80  ................
0200: 42 5D 02 80 18 80 45 05  80 F0 FF FF 7F F0 FF FF  B]....E.........
0210: 7F 66 64 6F 30 02 80 55  05 80 F0 FF FF 7F F0 FF  .fdo0..U........
0220: FF 7F 66 64 6F 30 46 01  5C 00 19 80 5C 01 19 80  ..fdo0F.\...\...
0230: 27 0A F0 FF FF 7F 71 38  0A 80 4E 00 05 90 0E 01  '.....q8..N.....
0240: 4E 00 3E 90 0E 01 79 00  05 90 0E 01 3E 90 0E 01  N.>...y.....>...
0250: 79 00 3E 90 0E 01 05 90  0E 01 45 05 80 F0 FF FF  y.>.......E.....
0260: 7F F0 FF FF 7F 66 64 69  31 02 80 45 1A 80 F0 FF  .....fdi1..E....
0270: FF 7F F0 FF FF 7F 73 30  32 34 02 80 1C 18 80 2B  ......s024.....+
0280: 05 90 0E 01 1B 80 23 2B  3E 90 0E 01 1C 80 23 45  ......#+>.....#E
0290: 05 80 F0 FF FF 7F F0 FF  FF 7F 66 64 6F 30 02 80  ..........fdo0..
02A0: 55 05 80 F0 FF FF 7F F0  FF FF 7F 66 64 6F 30 52  U..........fdo0R
02B0: 1A 80 F0 FF FF 7F F0 FF  FF 7F 73 30 32 34 45 1A  ..........s024E.
02C0: 80 F0 FF FF 7F F0 FF FF  7F 73 30 32 35 02 80 45  .........s025..E
02D0: 05 80 F0 FF FF 7F F0 FF  FF 7F 66 64 69 30 02 80  ..........fdi0..
02E0: 66 1D 80 3E 90 0E 01 3E  90 0E 01 74 6C 6B 30 2B  f..>...>...tlk0+
02F0: 3E 90 0E 01 1E 80 23 6B  69 64 6C 30 3E 90 0E 01  >.....#kidl0>...
0300: 4A 3E 90 0E 01 F0 FF FF  7F 79 00 05 90 0E 01 F0  J>.......y......
0310: FF FF 7F 2B 3E 90 0E 01  1F 80 23 4C 45 05 80 F0  ...+>.....#LE...
0320: FF FF 7F F0 FF FF 7F 66  64 6F 31 02 80 55 05 80  .......fdo1..U..
0330: F0 FF FF 7F F0 FF FF 7F  66 64 6F 31 52 1A 80 F0  ........fdo1R...
0340: FF FF 7F F0 FF FF 7F 73  30 32 35 45 1A 80 F0 FF  .......s025E....
0350: FF 7F F0 FF FF 7F 73 30  32 36 02 80 27 0A F0 FF  ......s026..'...
0360: FF 7F 74 45 05 80 F0 FF  FF 7F F0 FF FF 7F 66 64  ..tE..........fd
0370: 69 31 02 80 79 00 F0 FF  FF 7F 3E 90 0E 01 1C 20  i1..y.....>.... 
0380: 80 2B 3E 90 0E 01 21 80  23 4A 3E 90 0E 01 05 90  .+>...!.#J>.....
0390: 0E 01 2B 3E 90 0E 01 22  80 23 52 1A 80 F0 FF FF  ..+>...".#R.....
03A0: 7F F0 FF FF 7F 73 30 32  36 45 1A 80 F0 FF FF 7F  .....s026E......
03B0: F0 FF FF 7F 73 30 32 37  02 80 79 00 05 90 0E 01  ....s027..y.....
03C0: 3E 90 0E 01 2B 05 90 0E  01 23 80 23 66 1D 80 3E  >...+....#.#f..>
03D0: 90 0E 01 3E 90 0E 01 74  6C 6B 30 2B 3E 90 0E 01  ...>...tlk0+>...
03E0: 24 80 23 6B 69 64 6C 30  3E 90 0E 01 5B 25 80 05  $.#kidl0>...[%..
03F0: 90 0E 01 05 90 0E 01 74  6C 6B 30 2B 05 90 0E 01  .......tlk0+....
0400: 26 80 23 50 05 90 0E 01  05 90 0E 01 74 6C 6B 30  &.#P........tlk0
0410: 5B 25 80 05 90 0E 01 05  90 0E 01 74 6C 6B 31 52  [%.........tlk1R
0420: 1A 80 F0 FF FF 7F F0 FF  FF 7F 73 30 32 37 45 1A  ..........s027E.
0430: 80 F0 FF FF 7F F0 FF FF  7F 73 30 32 38 02 80 66  .........s028..f
0440: 1D 80 3E 90 0E 01 3E 90  0E 01 74 6C 6B 30 2B 3E  ..>...>...tlk0+>
0450: 90 0E 01 27 80 23 6B 69  64 6C 30 3E 90 0E 01 2B  ...'.#kidl0>...+
0460: 3E 90 0E 01 28 80 23 5B  25 80 05 90 0E 01 05 90  >...(.#[%.......
0470: 0E 01 61 72 61 30 2B 05  90 0E 01 29 80 23 50 05  ..ara0+....).#P.
0480: 90 0E 01 05 90 0E 01 61  72 61 30 5B 25 80 05 90  .......ara0[%...
0490: 0E 01 05 90 0E 01 61 72  61 31 4E 00 3F 90 0E 01  ......ara1N.?...
04A0: 27 0A 3F 90 0E 01 04 1C  07 80 4A 05 90 0E 01 3F  '.?.......J....?
04B0: 90 0E 01 52 1A 80 F0 FF  FF 7F F0 FF FF 7F 73 30  ...R..........s0
04C0: 32 38 45 1A 80 F0 FF FF  7F F0 FF FF 7F 73 30 32  28E..........s02
04D0: 39 02 80 4A F0 FF FF 7F  3F 90 0E 01 2B 3F 90 0E  9..J....?...+?..
04E0: 01 2A 80 23 2B 05 90 0E  01 2B 80 23 2A 0A 3F 90  .*.#+....+.#*.?.
04F0: 0E 01 66 18 80 3F 90 0E  01 3F 90 0E 01 74 6C 6B  ..f..?...?...tlk
0500: 30 2B 3F 90 0E 01 2C 80  23 2B 3F 90 0E 01 2D 80  0+?...,.#+?...-.
0510: 23 50 3F 90 0E 01 3F 90  0E 01 74 6C 6B 30 66 18  #P?...?...tlk0f.
0520: 80 3F 90 0E 01 3F 90 0E  01 74 6C 6B 31 2B 3F 90  .?...?...tlk1+?.
0530: 0E 01 2E 80 23 52 1A 80  F0 FF FF 7F F0 FF FF 7F  ....#R..........
0540: 73 30 32 39 45 1A 80 F0  FF FF 7F F0 FF FF 7F 73  s029E..........s
0550: 30 33 30 02 80 7B 05 90  0E 01 5B 2F 80 05 90 0E  030..{....[/....
0560: 01 05 90 0E 01 74 68 6B  30 2B 05 90 0E 01 30 80  .....thk0+....0.
0570: 23 66 1D 80 3E 90 0E 01  3E 90 0E 01 74 6C 6B 30  #f..>...>...tlk0
0580: 2B 3E 90 0E 01 31 80 23  50 05 90 0E 01 05 90 0E  +>...1.#P.......
0590: 01 74 68 6B 30 5B 2F 80  05 90 0E 01 05 90 0E 01  .thk0[/.........
05A0: 74 68 6B 31 6B 69 64 6C  30 3E 90 0E 01 79 00 05  thk1kidl0>...y..
05B0: 90 0E 01 3E 90 0E 01 2B  05 90 0E 01 32 80 23 66  ...>...+....2.#f
05C0: 1D 80 3E 90 0E 01 3E 90  0E 01 74 68 6B 31 2B 3E  ..>...>...thk1+>
05D0: 90 0E 01 33 80 23 50 3E  90 0E 01 3E 90 0E 01 74  ...3.#P>...>...t
05E0: 68 6B 31 66 1D 80 3E 90  0E 01 3E 90 0E 01 74 68  hk1f..>...>...th
05F0: 6B 32 7B 05 90 0E 01 27  0A 3E 90 0E 01 03 45 05  k2{....'.>....E.
0600: 80 F0 FF FF 7F F0 FF FF  7F 66 64 6F 32 02 80 55  .........fdo2..U
0610: 05 80 F0 FF FF 7F F0 FF  FF 7F 66 64 6F 32 4D 27  ..........fdo2M'
0620: 0A F0 FF FF 7F 73 27 0A  3E 90 0E 01 04 27 0A 3F  .....s'.>....'.?
0630: 90 0E 01 03 1C 07 80 4A  3E 90 0E 01 3F 90 0E 01  .......J>...?...
0640: 45 05 80 F0 FF FF 7F F0  FF FF 7F 66 64 69 32 02  E..........fdi2.
0650: 80 52 1A 80 F0 FF FF 7F  F0 FF FF 7F 73 30 33 30  .R..........s030
0660: 45 1A 80 F0 FF FF 7F F0  FF FF 7F 73 30 33 31 02  E..........s031.
0670: 80 1C 0B 80 79 00 F0 FF  FF 7F 3E 90 0E 01 2B 3E  ....y.....>...+>
0680: 90 0E 01 34 80 23 6E 3F  90 0E 01 07 80 99 3F 90  ...4.#n?......?.
0690: 0E 01 2B 3F 90 0E 01 35  80 23 4A 3E 90 0E 01 F0  ..+?...5.#J>....
06A0: FF FF 7F 2B 3E 90 0E 01  36 80 23 2B 3E 90 0E 01  ...+>...6.#+>...
06B0: 37 80 23 52 1A 80 F0 FF  FF 7F F0 FF FF 7F 73 30  7.#R..........s0
06C0: 33 31 45 1A 80 F0 FF FF  7F F0 FF FF 7F 73 30 33  31E..........s03
06D0: 32 02 80 2B 3E 90 0E 01  38 80 23 66 1D 80 3E 90  2..+>...8.#f..>.
06E0: 0E 01 3E 90 0E 01 74 6C  6B 30 2B 3E 90 0E 01 39  ..>...tlk0+>...9
06F0: 80 23 2B 3E 90 0E 01 3A  80 23 6B 69 64 6C 30 3E  .#+>...:.#kidl0>
0700: 90 0E 01 2B 3E 90 0E 01  3B 80 23 5D 02 80 0B 80  ...+>...;.#]....
0710: 45 05 80 F0 FF FF 7F F0  FF FF 7F 66 64 6F 31 02  E..........fdo1.
0720: 80 55 05 80 F0 FF FF 7F  F0 FF FF 7F 66 64 6F 31  .U..........fdo1
0730: 46 00 5C 00 3C 80 5C 01  3C 80 45 05 80 F0 FF FF  F.\.<.\.<.E.....
0740: 7F F0 FF FF 7F 66 64 69  31 02 80 21 00           .....fdi1..!.   
```

#### Opcodes

```
  0: 0x01EB [0x75] LOAD_ROOM(Load indoor room, room=375*)
  1: 0x01EF [0x75] LOAD_ROOM(No action)
  2: 0x01F1 [0x03] Work_Zone[9] = 1096*
  3: 0x01F6 [0x03] Work_Zone[8] = 1097*
  4: 0x01FB [0x03] Work_Zone[7] = 12995*
  5: 0x0200 [0x42] SET_CLI_EVENT_CANCEL_DATA()
  6: 0x0201 [0x5D] SET_MUSIC_VOLUME(volume=0*, fade_time=30*)
  7: 0x0206 [0x45] LOAD_SCHEDULED_TASK: Load scheduler "fdo0" with entities [LocalPlayer, LocalPlayer], work=[200*, 0*]
  8: 0x0217 [0x55] WAIT_LOAD_SCHEDULER: Wait for scheduler "fdo0" with entities [LocalPlayer, LocalPlayer], work=200*
  9: 0x0226 [0x46] CAMERA_CONTROL: Disable user control
 10: 0x0228 [0x5C] MUSIC_CONTROL: Set Idle (Day) music to song 123*
 11: 0x022C [0x5C] MUSIC_CONTROL: Set Idle (Night) music to song 123*
 12: 0x0230 [0x27] REQ_SET(priority=0x0A, entity_id=LocalPlayer, tag_num=0x71)
 13: 0x0237 [0x38] SET_CLIENT_EVENT_MODE(mode=3*)
 14: 0x023A [0x4E] SET_ENTITY_HIDE_FLAG: Show Pieuje (ID: 17731589/0x010E9005)
 15: 0x0240 [0x4E] SET_ENTITY_HIDE_FLAG: Show Narcheral (ID: 17731646/0x010E903E)
 16: 0x0246 [0x79] Pieuje (ID: 17731589/0x010E9005) looks at Narcheral (ID: 17731646/0x010E903E) (Basic look)
 17: 0x0250 [0x79] Narcheral (ID: 17731646/0x010E903E) looks at Pieuje (ID: 17731589/0x010E9005) (Basic look)
 18: 0x025A [0x45] LOAD_SCHEDULED_TASK: Load scheduler "fdi1" with entities [LocalPlayer, LocalPlayer], work=[200*, 0*]
 19: 0x026B [0x45] LOAD_SCHEDULED_TASK: Load scheduler "s024" with entities [LocalPlayer, LocalPlayer], work=[206*, 0*]
 20: 0x027C [0x1C] WAIT(30* ticks)
 21: 0x027F [0x2B] Pieuje (ID: 17731589/0x010E9005) [7542*]:
    → "What? My brother's wounds grow worse?"
 22: 0x0286 [0x23] WAIT_FOR_DIALOG_INTERACTION
 23: 0x0287 [0x2B] Narcheral (ID: 17731646/0x010E903E) [7543*]:
    → "He lets no one see them, my lord, but there is no doubt. This is our chance!"
 24: 0x028E [0x23] WAIT_FOR_DIALOG_INTERACTION
 25: 0x028F [0x45] LOAD_SCHEDULED_TASK: Load scheduler "fdo0" with entities [LocalPlayer, LocalPlayer], work=[200*, 0*]
 26: 0x02A0 [0x55] WAIT_LOAD_SCHEDULER: Wait for scheduler "fdo0" with entities [LocalPlayer, LocalPlayer], work=200*
 27: 0x02AF [0x52] END_LOAD_SCHEDULER: End scheduler "s024" with entities [LocalPlayer, LocalPlayer], work=206*
 28: 0x02BE [0x45] LOAD_SCHEDULED_TASK: Load scheduler "s025" with entities [LocalPlayer, LocalPlayer], work=[206*, 0*]
 29: 0x02CF [0x45] LOAD_SCHEDULED_TASK: Load scheduler "fdi0" with entities [LocalPlayer, LocalPlayer], work=[200*, 0*]
 30: 0x02E0 [0x66] LOAD_EXT_SCHEDULER_MAIN: Load scheduler "tlk0" with entities [Narcheral (ID: 17731646/0x010E903E), Narcheral (ID: 17731646/0x010E903E)], work=20*
 31: 0x02EF [0x2B] Narcheral (ID: 17731646/0x010E903E) [7544*]:
    → "Now that Prince Trion's wounds hinder him, you are free to achieve some great exploit, endearing yourself further to... Hmm?"
 32: 0x02F6 [0x23] WAIT_FOR_DIALOG_INTERACTION
 33: 0x02F7 [0x6B] STOP_AND_IDLE: Narcheral (ID: 17731646/0x010E903E) stops current action and resets to idle (animation="idl0")
 34: 0x0300 [0x4A] Narcheral (ID: 17731646/0x010E903E) looks at LocalPlayer
 35: 0x0309 [0x79] Pieuje (ID: 17731589/0x010E9005) looks at LocalPlayer (Basic look)
 36: 0x0313 [0x2B] Narcheral (ID: 17731646/0x010E903E) [7545*]:
    → "Who's there!?"
 37: 0x031A [0x23] WAIT_FOR_DIALOG_INTERACTION
 38: 0x031B [0x4C] EventEntity->StatusEvent = 8 // Open door
 39: 0x031C [0x45] LOAD_SCHEDULED_TASK: Load scheduler "fdo1" with entities [LocalPlayer, LocalPlayer], work=[200*, 0*]
 40: 0x032D [0x55] WAIT_LOAD_SCHEDULER: Wait for scheduler "fdo1" with entities [LocalPlayer, LocalPlayer], work=200*
 41: 0x033C [0x52] END_LOAD_SCHEDULER: End scheduler "s025" with entities [LocalPlayer, LocalPlayer], work=206*
 42: 0x034B [0x45] LOAD_SCHEDULED_TASK: Load scheduler "s026" with entities [LocalPlayer, LocalPlayer], work=[206*, 0*]
 43: 0x035C [0x27] REQ_SET(priority=0x0A, entity_id=LocalPlayer, tag_num=0x74)
 44: 0x0363 [0x45] LOAD_SCHEDULED_TASK: Load scheduler "fdi1" with entities [LocalPlayer, LocalPlayer], work=[200*, 0*]
 45: 0x0374 [0x79] LocalPlayer looks at Narcheral (ID: 17731646/0x010E903E) (Basic look)
 46: 0x037E [0x1C] WAIT(480* ticks)
 47: 0x0381 [0x2B] Narcheral (ID: 17731646/0x010E903E) [7546*]:
    → "Oh, it's our ally, the adventurer. Perfect timing, I must say."
 48: 0x0388 [0x23] WAIT_FOR_DIALOG_INTERACTION
 49: 0x0389 [0x4A] Narcheral (ID: 17731646/0x010E903E) looks at Pieuje (ID: 17731589/0x010E9005)
 50: 0x0392 [0x2B] Narcheral (ID: 17731646/0x010E903E) [7547*]:
    → "Prince Pieuje, <Player> ambushed the dark stalker on the west fringes of the Valkurm Dunes, and brought $7 to us."
 51: 0x0399 [0x23] WAIT_FOR_DIALOG_INTERACTION
 52: 0x039A [0x52] END_LOAD_SCHEDULER: End scheduler "s026" with entities [LocalPlayer, LocalPlayer], work=206*
 53: 0x03A9 [0x45] LOAD_SCHEDULED_TASK: Load scheduler "s027" with entities [LocalPlayer, LocalPlayer], work=[206*, 0*]
 54: 0x03BA [0x79] Pieuje (ID: 17731589/0x010E9005) looks at Narcheral (ID: 17731646/0x010E903E) (Basic look)
 55: 0x03C4 [0x2B] Pieuje (ID: 17731589/0x010E9005) [7548*]:
    → "$7? From the dark stalker? So, the legend is true!"
 56: 0x03CB [0x23] WAIT_FOR_DIALOG_INTERACTION
 57: 0x03CC [0x66] LOAD_EXT_SCHEDULER_MAIN: Load scheduler "tlk0" with entities [Narcheral (ID: 17731646/0x010E903E), Narcheral (ID: 17731646/0x010E903E)], work=20*
 58: 0x03DB [0x2B] Narcheral (ID: 17731646/0x010E903E) [7549*]:
    → "Your knowledge is great, indeed, Prince Pieuje."
 59: 0x03E2 [0x23] WAIT_FOR_DIALOG_INTERACTION
 60: 0x03E3 [0x6B] STOP_AND_IDLE: Narcheral (ID: 17731646/0x010E903E) stops current action and resets to idle (animation="idl0")
 61: 0x03EC [0x5B] LOAD_EXT_SCHEDULER: Load scheduler "tlk0" with entities [Pieuje (ID: 17731589/0x010E9005), Pieuje (ID: 17731589/0x010E9005)], work=120*
 62: 0x03FB [0x2B] Pieuje (ID: 17731589/0x010E9005) [7550*]:
    → "What plots are you spinning, Narcheral?"
 63: 0x0402 [0x23] WAIT_FOR_DIALOG_INTERACTION
 64: 0x0403 [0x50] END_SCHEDULER_TASK: End scheduler "tl" with entities [0x9005, 0x9005], work=[270, 270]
 65: 0x0410 [0x5B] LOAD_EXT_SCHEDULER: Load scheduler "tlk1" with entities [Pieuje (ID: 17731589/0x010E9005), Pieuje (ID: 17731589/0x010E9005)], work=120*
 66: 0x041F [0x52] END_LOAD_SCHEDULER: End scheduler "s027" with entities [LocalPlayer, LocalPlayer], work=206*
 67: 0x042E [0x45] LOAD_SCHEDULED_TASK: Load scheduler "s028" with entities [LocalPlayer, LocalPlayer], work=[206*, 0*]
 68: 0x043F [0x66] LOAD_EXT_SCHEDULER_MAIN: Load scheduler "tlk0" with entities [Narcheral (ID: 17731646/0x010E903E), Narcheral (ID: 17731646/0x010E903E)], work=20*
 69: 0x044E [0x2B] Narcheral (ID: 17731646/0x010E903E) [7551*]:
    → "It seems that the dark stalker spotted in Valkurm was a messenger in life."
 70: 0x0455 [0x23] WAIT_FOR_DIALOG_INTERACTION
 71: 0x0456 [0x6B] STOP_AND_IDLE: Narcheral (ID: 17731646/0x010E903E) stops current action and resets to idle (animation="idl0")
 72: 0x045F [0x2B] Narcheral (ID: 17731646/0x010E903E) [7552*]:
    → "The message it carried speaks of Tavnazians slain twenty years ago. They would rise from the grave to restore the Marquisate!"
 73: 0x0466 [0x23] WAIT_FOR_DIALOG_INTERACTION
 74: 0x0467 [0x5B] LOAD_EXT_SCHEDULER: Load scheduler "ara0" with entities [Pieuje (ID: 17731589/0x010E9005), Pieuje (ID: 17731589/0x010E9005)], work=120*
 75: 0x0476 [0x2B] Pieuje (ID: 17731589/0x010E9005) [7553*]:
    → "Impossible! How could the dead rally together?"
 76: 0x047D [0x23] WAIT_FOR_DIALOG_INTERACTION
 77: 0x047E [0x50] END_SCHEDULER_TASK: End scheduler "ar" with entities [0x9005, 0x9005], work=[270, 270]
 78: 0x048B [0x5B] LOAD_EXT_SCHEDULER: Load scheduler "ara1" with entities [Pieuje (ID: 17731589/0x010E9005), Pieuje (ID: 17731589/0x010E9005)], work=120*
 79: 0x049A [0x4E] SET_ENTITY_HIDE_FLAG: Show Jeronne (ID: 17731647/0x010E903F)
 80: 0x04A0 [0x27] REQ_SET(priority=0x0A, entity_id=Jeronne (ID: 17731647/0x010E903F), tag_num=0x04)
 81: 0x04A7 [0x1C] WAIT(1* ticks)
 82: 0x04AA [0x4A] Pieuje (ID: 17731589/0x010E9005) looks at Jeronne (ID: 17731647/0x010E903F)
 83: 0x04B3 [0x52] END_LOAD_SCHEDULER: End scheduler "s028" with entities [LocalPlayer, LocalPlayer], work=206*
 84: 0x04C2 [0x45] LOAD_SCHEDULED_TASK: Load scheduler "s029" with entities [LocalPlayer, LocalPlayer], work=[206*, 0*]
 85: 0x04D3 [0x4A] LocalPlayer looks at Jeronne (ID: 17731647/0x010E903F)
 86: 0x04DC [0x2B] Jeronne (ID: 17731647/0x010E903F) [7554*]:
    → "It is true, Prince Pieuje."
 87: 0x04E3 [0x23] WAIT_FOR_DIALOG_INTERACTION
 88: 0x04E4 [0x2B] Pieuje (ID: 17731589/0x010E9005) [7555*]:
    → "Who are you!?"
 89: 0x04EB [0x23] WAIT_FOR_DIALOG_INTERACTION
 90: 0x04EC [0x2A] GET_REQ_LEVEL(level=10, entity_id=Jeronne (ID: 17731647/0x010E903F))
 91: 0x04F2 [0x66] LOAD_EXT_SCHEDULER_MAIN: Load scheduler "tlk0" with entities [Jeronne (ID: 17731647/0x010E903F), Jeronne (ID: 17731647/0x010E903F)], work=30*
 92: 0x0501 [0x2B] Jeronne (ID: 17731647/0x010E903F) [7556*]:
    → "Narcheral sent me on a search through Eldieme. I discovered that the dark stalkers were rallying."
 93: 0x0508 [0x23] WAIT_FOR_DIALOG_INTERACTION
 94: 0x0509 [0x2B] Jeronne (ID: 17731647/0x010E903F) [7557*]:
    → "And I heard word that a great black shadow had crept beyond Ranguemont."
 95: 0x0510 [0x23] WAIT_FOR_DIALOG_INTERACTION
 96: 0x0511 [0x50] END_SCHEDULER_TASK: End scheduler "tl" with entities [0x903F, 0x903F], work=[270, 270]
 97: 0x051E [0x66] LOAD_EXT_SCHEDULER_MAIN: Load scheduler "tlk1" with entities [Jeronne (ID: 17731647/0x010E903F), Jeronne (ID: 17731647/0x010E903F)], work=30*
 98: 0x052D [0x2B] Jeronne (ID: 17731647/0x010E903F) [7558*]:
    → "The messenger who witnessed it swore it was the lord of Tavnazia, Marquis Altedour."
 99: 0x0534 [0x23] WAIT_FOR_DIALOG_INTERACTION
100: 0x0535 [0x52] END_LOAD_SCHEDULER: End scheduler "s029" with entities [LocalPlayer, LocalPlayer], work=206*
101: 0x0544 [0x45] LOAD_SCHEDULED_TASK: Load scheduler "s030" with entities [LocalPlayer, LocalPlayer], work=[206*, 0*]
102: 0x0555 [0x7B] Pieuje (ID: 17731589/0x010E9005) stops talking
103: 0x055A [0x5B] LOAD_EXT_SCHEDULER: Load scheduler "thk0" with entities [Pieuje (ID: 17731589/0x010E9005), Pieuje (ID: 17731589/0x010E9005)], work=121*
104: 0x0569 [0x2B] Pieuje (ID: 17731589/0x010E9005) [7559*]:
    → "No! Not Lord Altedour!"
105: 0x0570 [0x23] WAIT_FOR_DIALOG_INTERACTION
106: 0x0571 [0x66] LOAD_EXT_SCHEDULER_MAIN: Load scheduler "tlk0" with entities [Narcheral (ID: 17731646/0x010E903E), Narcheral (ID: 17731646/0x010E903E)], work=20*
107: 0x0580 [0x2B] Narcheral (ID: 17731646/0x010E903E) [7560*]:
    → "It was the Marquis, and at the same time, it was not! It was a presence that deceives the heart and brings fear upon our holy kingdom."
108: 0x0587 [0x23] WAIT_FOR_DIALOG_INTERACTION
109: 0x0588 [0x50] END_SCHEDULER_TASK: End scheduler "th" with entities [0x9005, 0x9005], work=[270, 270]
110: 0x0595 [0x5B] LOAD_EXT_SCHEDULER: Load scheduler "thk1" with entities [Pieuje (ID: 17731589/0x010E9005), Pieuje (ID: 17731589/0x010E9005)], work=121*
111: 0x05A4 [0x6B] STOP_AND_IDLE: Narcheral (ID: 17731646/0x010E903E) stops current action and resets to idle (animation="idl0")
112: 0x05AD [0x79] Pieuje (ID: 17731589/0x010E9005) looks at Narcheral (ID: 17731646/0x010E903E) (Basic look)
113: 0x05B7 [0x2B] Pieuje (ID: 17731589/0x010E9005) [7561*]:
    → "Silence, Narcheral! You dishonor the marquis!"
114: 0x05BE [0x23] WAIT_FOR_DIALOG_INTERACTION
115: 0x05BF [0x66] LOAD_EXT_SCHEDULER_MAIN: Load scheduler "thk1" with entities [Narcheral (ID: 17731646/0x010E903E), Narcheral (ID: 17731646/0x010E903E)], work=20*
116: 0x05CE [0x2B] Narcheral (ID: 17731646/0x010E903E) [7562*]:
    → "Forgive me, my lord. But, I fear we can avoid the threat no longer. I beg you gather troops!"
117: 0x05D5 [0x23] WAIT_FOR_DIALOG_INTERACTION
118: 0x05D6 [0x50] END_SCHEDULER_TASK: End scheduler "th" with entities [0x903E, 0x903E], work=[270, 270]
119: 0x05E3 [0x66] LOAD_EXT_SCHEDULER_MAIN: Load scheduler "thk2" with entities [Narcheral (ID: 17731646/0x010E903E), Narcheral (ID: 17731646/0x010E903E)], work=20*
120: 0x05F2 [0x7B] Pieuje (ID: 17731589/0x010E9005) stops talking
121: 0x05F7 [0x27] REQ_SET(priority=0x0A, entity_id=Narcheral (ID: 17731646/0x010E903E), tag_num=0x03)
122: 0x05FE [0x45] LOAD_SCHEDULED_TASK: Load scheduler "fdo2" with entities [LocalPlayer, LocalPlayer], work=[200*, 0*]
123: 0x060F [0x55] WAIT_LOAD_SCHEDULER: Wait for scheduler "fdo2" with entities [LocalPlayer, LocalPlayer], work=200*
124: 0x061E [0x4D] EventEntity->StatusEvent = 9 // Close door
125: 0x061F [0x27] REQ_SET(priority=0x0A, entity_id=LocalPlayer, tag_num=0x73)
126: 0x0626 [0x27] REQ_SET(priority=0x0A, entity_id=Narcheral (ID: 17731646/0x010E903E), tag_num=0x04)
127: 0x062D [0x27] REQ_SET(priority=0x0A, entity_id=Jeronne (ID: 17731647/0x010E903F), tag_num=0x03)
128: 0x0634 [0x1C] WAIT(1* ticks)
129: 0x0637 [0x4A] Narcheral (ID: 17731646/0x010E903E) looks at Jeronne (ID: 17731647/0x010E903F)
130: 0x0640 [0x45] LOAD_SCHEDULED_TASK: Load scheduler "fdi2" with entities [LocalPlayer, LocalPlayer], work=[200*, 0*]
131: 0x0651 [0x52] END_LOAD_SCHEDULER: End scheduler "s030" with entities [LocalPlayer, LocalPlayer], work=206*
132: 0x0660 [0x45] LOAD_SCHEDULED_TASK: Load scheduler "s031" with entities [LocalPlayer, LocalPlayer], work=[206*, 0*]
133: 0x0671 [0x1C] WAIT(60* ticks)
134: 0x0674 [0x79] LocalPlayer looks at Narcheral (ID: 17731646/0x010E903E) (Basic look)
135: 0x067E [0x2B] Narcheral (ID: 17731646/0x010E903E) [7563*]:
    → "Jeronne, continue with the investigation. If news comes out of the Northlands, Prince Trion will surely hear."
136: 0x0685 [0x23] WAIT_FOR_DIALOG_INTERACTION
137: 0x0686 [0x6E] Jeronne (ID: 17731647/0x010E903F) uses emote 1*
138: 0x068D [0x99] Wait for Jeronne (ID: 17731647/0x010E903F) animation to complete
139: 0x0692 [0x2B] Jeronne (ID: 17731647/0x010E903F) [7564*]:
    → "I understand."
140: 0x0699 [0x23] WAIT_FOR_DIALOG_INTERACTION
141: 0x069A [0x4A] Narcheral (ID: 17731646/0x010E903E) looks at LocalPlayer
142: 0x06A3 [0x2B] Narcheral (ID: 17731646/0x010E903E) [7565*]:
    → "And I have something I wish to discuss with you. Soon we will need the services of an experienced white mage. Seek out a candidate."
143: 0x06AA [0x23] WAIT_FOR_DIALOG_INTERACTION
144: 0x06AB [0x2B] Narcheral (ID: 17731646/0x010E903E) [7566*]:
    → "So that [he/she] may fight against the impure, we will accredit the wielder of holy powers by giving [him/her] an item blessed by Altana."
145: 0x06B2 [0x23] WAIT_FOR_DIALOG_INTERACTION
146: 0x06B3 [0x52] END_LOAD_SCHEDULER: End scheduler "s031" with entities [LocalPlayer, LocalPlayer], work=206*
147: 0x06C2 [0x45] LOAD_SCHEDULED_TASK: Load scheduler "s032" with entities [LocalPlayer, LocalPlayer], work=[206*, 0*]
148: 0x06D3 [0x2B] Narcheral (ID: 17731646/0x010E903E) [7567*]:
    → "[He/She] will have much to gain. Something unattainable elsewhere..."
149: 0x06DA [0x23] WAIT_FOR_DIALOG_INTERACTION
150: 0x06DB [0x66] LOAD_EXT_SCHEDULER_MAIN: Load scheduler "tlk0" with entities [Narcheral (ID: 17731646/0x010E903E), Narcheral (ID: 17731646/0x010E903E)], work=20*
151: 0x06EA [0x2B] Narcheral (ID: 17731646/0x010E903E) [7568*]:
    → "Find $6. It is said that the Yagudo of Zvahl and Oztroja use it to banish the fallen."
152: 0x06F1 [0x23] WAIT_FOR_DIALOG_INTERACTION
153: 0x06F2 [0x2B] Narcheral (ID: 17731646/0x010E903E) [7569*]:
    → "I also require $5, so that I may make again what I plan on giving you."
154: 0x06F9 [0x23] WAIT_FOR_DIALOG_INTERACTION
155: 0x06FA [0x6B] STOP_AND_IDLE: Narcheral (ID: 17731646/0x010E903E) stops current action and resets to idle (animation="idl0")
156: 0x0703 [0x2B] Narcheral (ID: 17731646/0x010E903E) [7570*]:
    → "I shall give you the blessed item once you bring those two articles."
157: 0x070A [0x23] WAIT_FOR_DIALOG_INTERACTION
158: 0x070B [0x5D] SET_MUSIC_VOLUME(volume=0*, fade_time=60*)
159: 0x0710 [0x45] LOAD_SCHEDULED_TASK: Load scheduler "fdo1" with entities [LocalPlayer, LocalPlayer], work=[200*, 0*]
160: 0x0721 [0x55] WAIT_LOAD_SCHEDULER: Wait for scheduler "fdo1" with entities [LocalPlayer, LocalPlayer], work=200*
161: 0x0730 [0x46] CAMERA_CONTROL: Restore default settings
162: 0x0732 [0x5C] MUSIC_CONTROL: Set Idle (Day) music to song 156*
163: 0x0736 [0x5C] MUSIC_CONTROL: Set Idle (Night) music to song 156*
164: 0x073A [0x45] LOAD_SCHEDULED_TASK: Load scheduler "fdi1" with entities [LocalPlayer, LocalPlayer], work=[200*, 0*]
165: 0x074B [0x21] END_EVENT
166: 0x074C [0x00] END_REQSTACK()
```

### Event 552

#### Metadata

| Field        | Value      |
|--------------|------------|
| Entrypoint   | 0x074D     |
| Data Size    | 1324 bytes |
| Instructions | 166        |

```
      00 01 02 03 04 05 06 07  08 09 0A 0B 0C 0D 0E 0F
      -- -- -- -- -- -- -- --  -- -- -- -- -- -- -- --
0740:                                         75 00 14               u..
0750: 80 75 01 03 09 10 3D 80  42 5D 02 80 18 80 45 05  .u....=.B]....E.
0760: 80 F0 FF FF 7F F0 FF FF  7F 66 64 6F 30 02 80 55  .........fdo0..U
0770: 05 80 F0 FF FF 7F F0 FF  FF 7F 66 64 6F 30 5C 00  ..........fdo0\.
0780: 3E 80 5C 01 3E 80 46 01  27 0A F0 FF FF 7F 72 4E  >.\.>.F.'.....rN
0790: 00 05 90 0E 01 79 00 05  90 0E 01 03 90 0E 01 45  .....y.........E
07A0: 1A 80 F0 FF FF 7F F0 FF  FF 7F 73 30 33 33 02 80  ..........s033..
07B0: 45 05 80 F0 FF FF 7F F0  FF FF 7F 66 64 69 31 02  E..........fdi1.
07C0: 80 38 0A 80 1C 18 80 2B  03 90 0E 01 3F 80 23 4C  .8.....+....?.#L
07D0: 79 00 F0 FF FF 7F 03 90  0E 01 27 0A 03 90 0E 01  y.........'.....
07E0: 36 1C 40 80 2B 03 90 0E  01 41 80 23 5B 25 80 05  6.@.+....A.#[%..
07F0: 90 0E 01 05 90 0E 01 61  72 61 30 2A 0A 03 90 0E  .......ara0*....
0800: 01 27 0A 03 90 0E 01 37  2B 05 90 0E 01 42 80 23  .'.....7+....B.#
0810: 79 00 F0 FF FF 7F 05 90  0E 01 50 05 90 0E 01 05  y.........P.....
0820: 90 0E 01 61 72 61 30 5B  25 80 05 90 0E 01 05 90  ...ara0[%.......
0830: 0E 01 61 72 61 31 1C 10  80 4A 05 90 0E 01 F0 FF  ..ara1...J......
0840: FF 7F 2B 05 90 0E 01 43  80 23 45 05 80 F0 FF FF  ..+....C.#E.....
0850: 7F F0 FF FF 7F 66 64 6F  31 02 80 55 05 80 F0 FF  .....fdo1..U....
0860: FF 7F F0 FF FF 7F 66 64  6F 31 27 0A 05 90 0E 01  ......fdo1'.....
0870: 33 27 0A F0 FF FF 7F 75  45 1A 80 F0 FF FF 7F F0  3'.....uE.......
0880: FF FF 7F 73 30 33 34 02  80 45 05 80 F0 FF FF 7F  ...s034..E......
0890: F0 FF FF 7F 66 64 69 31  02 80 1C 44 80 2B 05 90  ....fdi1...D.+..
08A0: 0E 01 45 80 23 2B 05 90  0E 01 46 80 23 45 05 80  ..E.#+....F.#E..
08B0: F0 FF FF 7F F0 FF FF 7F  66 64 6F 30 02 80 55 05  ........fdo0..U.
08C0: 80 F0 FF FF 7F F0 FF FF  7F 66 64 6F 30 52 1A 80  .........fdo0R..
08D0: F0 FF FF 7F F0 FF FF 7F  73 30 33 34 45 1A 80 F0  ........s034E...
08E0: FF FF 7F F0 FF FF 7F 73  30 33 35 02 80 45 05 80  .......s035..E..
08F0: F0 FF FF 7F F0 FF FF 7F  66 64 69 31 02 80 2B 05  ........fdi1..+.
0900: 90 0E 01 47 80 23 2B 05  90 0E 01 48 80 23 2B 05  ...G.#+....H.#+.
0910: 90 0E 01 49 80 23 45 05  80 F0 FF FF 7F F0 FF FF  ...I.#E.........
0920: 7F 66 64 6F 30 02 80 55  05 80 F0 FF FF 7F F0 FF  .fdo0..U........
0930: FF 7F 66 64 6F 30 52 1A  80 F0 FF FF 7F F0 FF FF  ..fdo0R.........
0940: 7F 73 30 33 35 45 1A 80  F0 FF FF 7F F0 FF FF 7F  .s035E..........
0950: 73 30 33 36 02 80 45 05  80 F0 FF FF 7F F0 FF FF  s036..E.........
0960: 7F 66 64 69 31 02 80 2B  05 90 0E 01 4A 80 23 2B  .fdi1..+....J.#+
0970: 05 90 0E 01 4B 80 23 2B  05 90 0E 01 4C 80 23 5B  ....K.#+....L.#[
0980: 25 80 05 90 0E 01 05 90  0E 01 74 6C 6B 30 2B 05  %.........tlk0+.
0990: 90 0E 01 4D 80 23 6B 69  64 6C 30 05 90 0E 01 2B  ...M.#kidl0....+
09A0: 3E 90 0E 01 4E 80 23 5B  2F 80 05 90 0E 01 05 90  >...N.#[/.......
09B0: 0E 01 74 68 6B 30 2B 05  90 0E 01 4F 80 23 4C 4E  ..thk0+....O.#LN
09C0: 00 3E 90 0E 01 45 05 80  F0 FF FF 7F F0 FF FF 7F  .>...E..........
09D0: 66 64 6F 30 02 80 55 05  80 F0 FF FF 7F F0 FF FF  fdo0..U.........
09E0: 7F 66 64 6F 30 27 0A 3E  90 0E 01 05 52 1A 80 F0  .fdo0'.>....R...
09F0: FF FF 7F F0 FF FF 7F 73  30 33 36 45 1A 80 F0 FF  .......s036E....
0A00: FF 7F F0 FF FF 7F 73 30  33 37 02 80 45 05 80 F0  ......s037..E...
0A10: FF FF 7F F0 FF FF 7F 66  64 69 31 02 80 1C 18 80  .......fdi1.....
0A20: 2B 3E 90 0E 01 50 80 23  2B 05 90 0E 01 51 80 23  +>...P.#+....Q.#
0A30: 2B 3E 90 0E 01 52 80 23  2B 05 90 0E 01 53 80 23  +>...R.#+....S.#
0A40: 52 1A 80 F0 FF FF 7F F0  FF FF 7F 73 30 33 37 45  R..........s037E
0A50: 1A 80 F0 FF FF 7F F0 FF  FF 7F 73 30 33 38 02 80  ..........s038..
0A60: 2A 0A 3E 90 0E 01 66 1D  80 3E 90 0E 01 3E 90 0E  *.>...f..>...>..
0A70: 01 74 6C 6B 30 2B 3E 90  0E 01 54 80 23 6B 69 64  .tlk0+>...T.#kid
0A80: 6C 30 3E 90 0E 01 5B 2F  80 05 90 0E 01 05 90 0E  l0>...[/........
0A90: 01 74 68 6B 31 2B 05 90  0E 01 55 80 23 45 05 80  .thk1+....U.#E..
0AA0: F0 FF FF 7F F0 FF FF 7F  66 64 6F 31 02 80 55 05  ........fdo1..U.
0AB0: 80 F0 FF FF 7F F0 FF FF  7F 66 64 6F 31 4D 27 0A  .........fdo1M'.
0AC0: F0 FF FF 7F 73 27 0A 3E  90 0E 01 04 1C 18 80 52  ....s'.>.......R
0AD0: 1A 80 F0 FF FF 7F F0 FF  FF 7F 73 30 33 38 45 1A  ..........s038E.
0AE0: 80 F0 FF FF 7F F0 FF FF  7F 73 30 33 39 02 80 45  .........s039..E
0AF0: 05 80 F0 FF FF 7F F0 FF  FF 7F 66 64 69 32 02 80  ..........fdi2..
0B00: 4E 00 3F 90 0E 01 27 0A  3F 90 0E 01 05 79 00 3F  N.?...'.?....y.?
0B10: 90 0E 01 3E 90 0E 01 2B  3E 90 0E 01 56 80 23 2B  ...>...+>...V.#+
0B20: 3F 90 0E 01 57 80 23 4A  3E 90 0E 01 3F 90 0E 01  ?...W.#J>...?...
0B30: 79 00 F0 FF FF 7F 3F 90  0E 01 52 1A 80 F0 FF FF  y.....?...R.....
0B40: 7F F0 FF FF 7F 73 30 33  39 45 1A 80 F0 FF FF 7F  .....s039E......
0B50: F0 FF FF 7F 73 30 34 31  02 80 2B 3F 90 0E 01 58  ....s041..+?...X
0B60: 80 23 2B 3F 90 0E 01 59  80 23 66 1D 80 3E 90 0E  .#+?...Y.#f..>..
0B70: 01 3E 90 0E 01 74 68 6B  31 2B 3E 90 0E 01 5A 80  .>...thk1+>...Z.
0B80: 23 66 18 80 3F 90 0E 01  3F 90 0E 01 74 6C 6B 30  #f..?...?...tlk0
0B90: 2B 3F 90 0E 01 5B 80 23  2B 3F 90 0E 01 5C 80 23  +?...[.#+?...\.#
0BA0: 6B 69 64 6C 30 3F 90 0E  01 50 3E 90 0E 01 3E 90  kidl0?...P>...>.
0BB0: 0E 01 74 68 6B 31 2B 3E  90 0E 01 5D 80 23 52 1A  ..thk1+>...].#R.
0BC0: 80 F0 FF FF 7F F0 FF FF  7F 73 30 34 31 45 1A 80  .........s041E..
0BD0: F0 FF FF 7F F0 FF FF 7F  73 30 34 30 02 80 2B 3F  ........s040..+?
0BE0: 90 0E 01 5E 80 23 66 1D  80 3E 90 0E 01 3E 90 0E  ...^.#f..>...>..
0BF0: 01 74 68 6B 32 2B 3E 90  0E 01 5F 80 23 4A 3E 90  .thk2+>..._.#J>.
0C00: 0E 01 F0 FF FF 7F 2B 3E  90 0E 01 60 80 23 4A F0  ......+>...`.#J.
0C10: FF FF 7F 3E 90 0E 01 66  1D 80 3E 90 0E 01 3E 90  ...>...f..>...>.
0C20: 0E 01 74 6C 6B 30 2B 3E  90 0E 01 61 80 23 6B 69  ..tlk0+>...a.#ki
0C30: 64 6C 30 3E 90 0E 01 5D  02 80 0B 80 45 05 80 F0  dl0>...]....E...
0C40: FF FF 7F F0 FF FF 7F 66  64 6F 31 02 80 55 05 80  .......fdo1..U..
0C50: F0 FF FF 7F F0 FF FF 7F  66 64 6F 31 46 00 5C 00  ........fdo1F.\.
0C60: 3C 80 5C 01 3C 80 45 05  80 F0 FF FF 7F F0 FF FF  <.\.<.E.........
0C70: 7F 66 64 69 31 02 80 21  00                       .fdi1..!.       
```

#### Opcodes

```
  0: 0x074D [0x75] LOAD_ROOM(Load indoor room, room=375*)
  1: 0x0751 [0x75] LOAD_ROOM(No action)
  2: 0x0753 [0x03] Work_Zone[9] = 1098*
  3: 0x0758 [0x42] SET_CLI_EVENT_CANCEL_DATA()
  4: 0x0759 [0x5D] SET_MUSIC_VOLUME(volume=0*, fade_time=30*)
  5: 0x075E [0x45] LOAD_SCHEDULED_TASK: Load scheduler "fdo0" with entities [LocalPlayer, LocalPlayer], work=[200*, 0*]
  6: 0x076F [0x55] WAIT_LOAD_SCHEDULER: Wait for scheduler "fdo0" with entities [LocalPlayer, LocalPlayer], work=200*
  7: 0x077E [0x5C] MUSIC_CONTROL: Set Idle (Day) music to song 127*
  8: 0x0782 [0x5C] MUSIC_CONTROL: Set Idle (Night) music to song 127*
  9: 0x0786 [0x46] CAMERA_CONTROL: Disable user control
 10: 0x0788 [0x27] REQ_SET(priority=0x0A, entity_id=LocalPlayer, tag_num=0x72)
 11: 0x078F [0x4E] SET_ENTITY_HIDE_FLAG: Show Pieuje (ID: 17731589/0x010E9005)
 12: 0x0795 [0x79] Pieuje (ID: 17731589/0x010E9005) looks at Trion (ID: 17731587/0x010E9003) (Basic look)
 13: 0x079F [0x45] LOAD_SCHEDULED_TASK: Load scheduler "s033" with entities [LocalPlayer, LocalPlayer], work=[206*, 0*]
 14: 0x07B0 [0x45] LOAD_SCHEDULED_TASK: Load scheduler "fdi1" with entities [LocalPlayer, LocalPlayer], work=[200*, 0*]
 15: 0x07C1 [0x38] SET_CLIENT_EVENT_MODE(mode=3*)
 16: 0x07C4 [0x1C] WAIT(30* ticks)
 17: 0x07C7 [0x2B] Trion (ID: 17731587/0x010E9003) [7571*]:
    → "What foolishness is this? I have done nothing wrong!"
 18: 0x07CE [0x23] WAIT_FOR_DIALOG_INTERACTION
 19: 0x07CF [0x4C] EventEntity->StatusEvent = 8 // Open door
 20: 0x07D0 [0x79] LocalPlayer looks at Trion (ID: 17731587/0x010E9003) (Basic look)
 21: 0x07DA [0x27] REQ_SET(priority=0x0A, entity_id=Trion (ID: 17731587/0x010E9003), tag_num=0x36)
 22: 0x07E1 [0x1C] WAIT(100* ticks)
 23: 0x07E4 [0x2B] Trion (ID: 17731587/0x010E9003) [7572*]:
    → "Think of some way to defeat the beastmen, if you've time to worry over me!"
 24: 0x07EB [0x23] WAIT_FOR_DIALOG_INTERACTION
 25: 0x07EC [0x5B] LOAD_EXT_SCHEDULER: Load scheduler "ara0" with entities [Pieuje (ID: 17731589/0x010E9005), Pieuje (ID: 17731589/0x010E9005)], work=120*
 26: 0x07FB [0x2A] GET_REQ_LEVEL(level=10, entity_id=Trion (ID: 17731587/0x010E9003))
 27: 0x0801 [0x27] REQ_SET(priority=0x0A, entity_id=Trion (ID: 17731587/0x010E9003), tag_num=0x37)
 28: 0x0808 [0x2B] Pieuje (ID: 17731589/0x010E9005) [7573*]:
    → "Brother!"
 29: 0x080F [0x23] WAIT_FOR_DIALOG_INTERACTION
 30: 0x0810 [0x79] LocalPlayer looks at Pieuje (ID: 17731589/0x010E9005) (Basic look)
 31: 0x081A [0x50] END_SCHEDULER_TASK: End scheduler "ar" with entities [0x9005, 0x9005], work=[270, 270]
 32: 0x0827 [0x5B] LOAD_EXT_SCHEDULER: Load scheduler "ara1" with entities [Pieuje (ID: 17731589/0x010E9005), Pieuje (ID: 17731589/0x010E9005)], work=120*
 33: 0x0836 [0x1C] WAIT(90* ticks)
 34: 0x0839 [0x4A] Pieuje (ID: 17731589/0x010E9005) looks at LocalPlayer
 35: 0x0842 [0x2B] Pieuje (ID: 17731589/0x010E9005) [7574*]:
    → "Let me guess. Narcheral sent you to convince me, no?"
 36: 0x0849 [0x23] WAIT_FOR_DIALOG_INTERACTION
 37: 0x084A [0x45] LOAD_SCHEDULED_TASK: Load scheduler "fdo1" with entities [LocalPlayer, LocalPlayer], work=[200*, 0*]
 38: 0x085B [0x55] WAIT_LOAD_SCHEDULER: Wait for scheduler "fdo1" with entities [LocalPlayer, LocalPlayer], work=200*
 39: 0x086A [0x27] REQ_SET(priority=0x0A, entity_id=Pieuje (ID: 17731589/0x010E9005), tag_num=0x33)
 40: 0x0871 [0x27] REQ_SET(priority=0x0A, entity_id=LocalPlayer, tag_num=0x75)
 41: 0x0878 [0x45] LOAD_SCHEDULED_TASK: Load scheduler "s034" with entities [LocalPlayer, LocalPlayer], work=[206*, 0*]
 42: 0x0889 [0x45] LOAD_SCHEDULED_TASK: Load scheduler "fdi1" with entities [LocalPlayer, LocalPlayer], work=[200*, 0*]
 43: 0x089A [0x1C] WAIT(240* ticks)
 44: 0x089D [0x2B] Pieuje (ID: 17731589/0x010E9005) [7575*]:
    → "Know you why Narcheral frets so?"
 45: 0x08A4 [0x23] WAIT_FOR_DIALOG_INTERACTION
 46: 0x08A5 [0x2B] Pieuje (ID: 17731589/0x010E9005) [7576*]:
    → "It was twenty years ago that armies of the alliance offered the Marquisate of Tavnazia as bait. The enemy was given false word on where the leaders of Tavnazia would gather."
 47: 0x08AC [0x23] WAIT_FOR_DIALOG_INTERACTION
 48: 0x08AD [0x45] LOAD_SCHEDULED_TASK: Load scheduler "fdo0" with entities [LocalPlayer, LocalPlayer], work=[200*, 0*]
 49: 0x08BE [0x55] WAIT_LOAD_SCHEDULER: Wait for scheduler "fdo0" with entities [LocalPlayer, LocalPlayer], work=200*
 50: 0x08CD [0x52] END_LOAD_SCHEDULER: End scheduler "s034" with entities [LocalPlayer, LocalPlayer], work=206*
 51: 0x08DC [0x45] LOAD_SCHEDULED_TASK: Load scheduler "s035" with entities [LocalPlayer, LocalPlayer], work=[206*, 0*]
 52: 0x08ED [0x45] LOAD_SCHEDULED_TASK: Load scheduler "fdi1" with entities [LocalPlayer, LocalPlayer], work=[200*, 0*]
 53: 0x08FE [0x2B] Pieuje (ID: 17731589/0x010E9005) [7577*]:
    → "As hordes of beastmen launched their assault, a daring company of volunteers struck the unguarded gates of the enemy."
 54: 0x0905 [0x23] WAIT_FOR_DIALOG_INTERACTION
 55: 0x0906 [0x2B] Pieuje (ID: 17731589/0x010E9005) [7578*]:
    → "There they found and slew the Shadow Lord. But his horde reduced Tavnazia to ash and smoke."
 56: 0x090D [0x23] WAIT_FOR_DIALOG_INTERACTION
 57: 0x090E [0x2B] Pieuje (ID: 17731589/0x010E9005) [7579*]:
    → "In all likelihood, their lord, Marquis Altedour, never suspected betrayal from his stalwart allies."
 58: 0x0915 [0x23] WAIT_FOR_DIALOG_INTERACTION
 59: 0x0916 [0x45] LOAD_SCHEDULED_TASK: Load scheduler "fdo0" with entities [LocalPlayer, LocalPlayer], work=[200*, 0*]
 60: 0x0927 [0x55] WAIT_LOAD_SCHEDULER: Wait for scheduler "fdo0" with entities [LocalPlayer, LocalPlayer], work=200*
 61: 0x0936 [0x52] END_LOAD_SCHEDULER: End scheduler "s035" with entities [LocalPlayer, LocalPlayer], work=206*
 62: 0x0945 [0x45] LOAD_SCHEDULED_TASK: Load scheduler "s036" with entities [LocalPlayer, LocalPlayer], work=[206*, 0*]
 63: 0x0956 [0x45] LOAD_SCHEDULED_TASK: Load scheduler "fdi1" with entities [LocalPlayer, LocalPlayer], work=[200*, 0*]
 64: 0x0967 [0x2B] Pieuje (ID: 17731589/0x010E9005) [7580*]:
    → "The horde had come upon them at night. Valiantly he fought to defend his keep. In the end it fell, and he fled the city. Near the necropolis, though, they caught him!"
 65: 0x096E [0x23] WAIT_FOR_DIALOG_INTERACTION
 66: 0x096F [0x2B] Pieuje (ID: 17731589/0x010E9005) [7581*]:
    → "Though he felled seven hundred of the enemy, there he met his end."
 67: 0x0976 [0x23] WAIT_FOR_DIALOG_INTERACTION
 68: 0x0977 [0x2B] Pieuje (ID: 17731589/0x010E9005) [7582*]:
    → "The alliance sent troops to aid in the defense of Tavnazia, but none can deny that it brought ruin upon her."
 69: 0x097E [0x23] WAIT_FOR_DIALOG_INTERACTION
 70: 0x097F [0x5B] LOAD_EXT_SCHEDULER: Load scheduler "tlk0" with entities [Pieuje (ID: 17731589/0x010E9005), Pieuje (ID: 17731589/0x010E9005)], work=120*
 71: 0x098E [0x2B] Pieuje (ID: 17731589/0x010E9005) [7583*]:
    → "Marquis Altedour is my... I... What am I to do?"
 72: 0x0995 [0x23] WAIT_FOR_DIALOG_INTERACTION
 73: 0x0996 [0x6B] STOP_AND_IDLE: Pieuje (ID: 17731589/0x010E9005) stops current action and resets to idle (animation="idl0")
 74: 0x099F [0x2B] Narcheral (ID: 17731646/0x010E903E) [7584*]:
    → "Prince Pieuje, are you there?"
 75: 0x09A6 [0x23] WAIT_FOR_DIALOG_INTERACTION
 76: 0x09A7 [0x5B] LOAD_EXT_SCHEDULER: Load scheduler "thk0" with entities [Pieuje (ID: 17731589/0x010E9005), Pieuje (ID: 17731589/0x010E9005)], work=121*
 77: 0x09B6 [0x2B] Pieuje (ID: 17731589/0x010E9005) [7585*]:
    → "Oh, Narcheral... Come in!"
 78: 0x09BD [0x23] WAIT_FOR_DIALOG_INTERACTION
 79: 0x09BE [0x4C] EventEntity->StatusEvent = 8 // Open door
 80: 0x09BF [0x4E] SET_ENTITY_HIDE_FLAG: Show Narcheral (ID: 17731646/0x010E903E)
 81: 0x09C5 [0x45] LOAD_SCHEDULED_TASK: Load scheduler "fdo0" with entities [LocalPlayer, LocalPlayer], work=[200*, 0*]
 82: 0x09D6 [0x55] WAIT_LOAD_SCHEDULER: Wait for scheduler "fdo0" with entities [LocalPlayer, LocalPlayer], work=200*
 83: 0x09E5 [0x27] REQ_SET(priority=0x0A, entity_id=Narcheral (ID: 17731646/0x010E903E), tag_num=0x05)
 84: 0x09EC [0x52] END_LOAD_SCHEDULER: End scheduler "s036" with entities [LocalPlayer, LocalPlayer], work=206*
 85: 0x09FB [0x45] LOAD_SCHEDULED_TASK: Load scheduler "s037" with entities [LocalPlayer, LocalPlayer], work=[206*, 0*]
 86: 0x0A0C [0x45] LOAD_SCHEDULED_TASK: Load scheduler "fdi1" with entities [LocalPlayer, LocalPlayer], work=[200*, 0*]
 87: 0x0A1D [0x1C] WAIT(30* ticks)
 88: 0x0A20 [0x2B] Narcheral (ID: 17731646/0x010E903E) [7586*]:
    → "Prince Pieuje! I just saw Prince Trion, and he seemed well!"
 89: 0x0A27 [0x23] WAIT_FOR_DIALOG_INTERACTION
 90: 0x0A28 [0x2B] Pieuje (ID: 17731589/0x010E9005) [7587*]:
    → "Yes... I'm sure he seems well to your eyes."
 91: 0x0A2F [0x23] WAIT_FOR_DIALOG_INTERACTION
 92: 0x0A30 [0x2B] Narcheral (ID: 17731646/0x010E903E) [7588*]:
    → "Surely Prince Trion will learn of all this, my lord! We will lose this chance to strengthen the influence of our faith!"
 93: 0x0A37 [0x23] WAIT_FOR_DIALOG_INTERACTION
 94: 0x0A38 [0x2B] Pieuje (ID: 17731589/0x010E9005) [7589*]:
    → "You mean the cleansing of the damned, and offer them atonement by my hand?"
 95: 0x0A3F [0x23] WAIT_FOR_DIALOG_INTERACTION
 96: 0x0A40 [0x52] END_LOAD_SCHEDULER: End scheduler "s037" with entities [LocalPlayer, LocalPlayer], work=206*
 97: 0x0A4F [0x45] LOAD_SCHEDULED_TASK: Load scheduler "s038" with entities [LocalPlayer, LocalPlayer], work=[206*, 0*]
 98: 0x0A60 [0x2A] GET_REQ_LEVEL(level=10, entity_id=Narcheral (ID: 17731646/0x010E903E))
 99: 0x0A66 [0x66] LOAD_EXT_SCHEDULER_MAIN: Load scheduler "tlk0" with entities [Narcheral (ID: 17731646/0x010E903E), Narcheral (ID: 17731646/0x010E903E)], work=20*
100: 0x0A75 [0x2B] Narcheral (ID: 17731646/0x010E903E) [7590*]:
    → "No, my lord! To rid ourselves of the threat of the dead! My lord, the heir to the throne of San d'Oria must not jest of atonement!"
101: 0x0A7C [0x23] WAIT_FOR_DIALOG_INTERACTION
102: 0x0A7D [0x6B] STOP_AND_IDLE: Narcheral (ID: 17731646/0x010E903E) stops current action and resets to idle (animation="idl0")
103: 0x0A86 [0x5B] LOAD_EXT_SCHEDULER: Load scheduler "thk1" with entities [Pieuje (ID: 17731589/0x010E9005), Pieuje (ID: 17731589/0x010E9005)], work=121*
104: 0x0A95 [0x2B] Pieuje (ID: 17731589/0x010E9005) [7591*]:
    → "I am sorry. I have a plan. I will not allow my brother to deploy troops."
105: 0x0A9C [0x23] WAIT_FOR_DIALOG_INTERACTION
106: 0x0A9D [0x45] LOAD_SCHEDULED_TASK: Load scheduler "fdo1" with entities [LocalPlayer, LocalPlayer], work=[200*, 0*]
107: 0x0AAE [0x55] WAIT_LOAD_SCHEDULER: Wait for scheduler "fdo1" with entities [LocalPlayer, LocalPlayer], work=200*
108: 0x0ABD [0x4D] EventEntity->StatusEvent = 9 // Close door
109: 0x0ABE [0x27] REQ_SET(priority=0x0A, entity_id=LocalPlayer, tag_num=0x73)
110: 0x0AC5 [0x27] REQ_SET(priority=0x0A, entity_id=Narcheral (ID: 17731646/0x010E903E), tag_num=0x04)
111: 0x0ACC [0x1C] WAIT(30* ticks)
112: 0x0ACF [0x52] END_LOAD_SCHEDULER: End scheduler "s038" with entities [LocalPlayer, LocalPlayer], work=206*
113: 0x0ADE [0x45] LOAD_SCHEDULED_TASK: Load scheduler "s039" with entities [LocalPlayer, LocalPlayer], work=[206*, 0*]
114: 0x0AEF [0x45] LOAD_SCHEDULED_TASK: Load scheduler "fdi2" with entities [LocalPlayer, LocalPlayer], work=[200*, 0*]
115: 0x0B00 [0x4E] SET_ENTITY_HIDE_FLAG: Show Jeronne (ID: 17731647/0x010E903F)
116: 0x0B06 [0x27] REQ_SET(priority=0x0A, entity_id=Jeronne (ID: 17731647/0x010E903F), tag_num=0x05)
117: 0x0B0D [0x79] Jeronne (ID: 17731647/0x010E903F) looks at Narcheral (ID: 17731646/0x010E903E) (Basic look)
118: 0x0B17 [0x2B] Narcheral (ID: 17731646/0x010E903E) [7592*]:
    → "Argh! If this goes on, all will be discovered! Chaos will consume San d'Oria--no, all of Vana'diel!"
119: 0x0B1E [0x23] WAIT_FOR_DIALOG_INTERACTION
120: 0x0B1F [0x2B] Jeronne (ID: 17731647/0x010E903F) [7593*]:
    → "Narcheral, I have news."
121: 0x0B26 [0x23] WAIT_FOR_DIALOG_INTERACTION
122: 0x0B27 [0x4A] Narcheral (ID: 17731646/0x010E903E) looks at Jeronne (ID: 17731647/0x010E903F)
123: 0x0B30 [0x79] LocalPlayer looks at Jeronne (ID: 17731647/0x010E903F) (Basic look)
124: 0x0B3A [0x52] END_LOAD_SCHEDULER: End scheduler "s039" with entities [LocalPlayer, LocalPlayer], work=206*
125: 0x0B49 [0x45] LOAD_SCHEDULED_TASK: Load scheduler "s041" with entities [LocalPlayer, LocalPlayer], work=[206*, 0*]
126: 0x0B5A [0x2B] Jeronne (ID: 17731647/0x010E903F) [7594*]:
    → "We received word that a dark stalker walks in the guise of Marquis Altedour towards Fei'Yin."
127: 0x0B61 [0x23] WAIT_FOR_DIALOG_INTERACTION
128: 0x0B62 [0x2B] Jeronne (ID: 17731647/0x010E903F) [7595*]:
    → "In that place festers also souls of nations beyond Tavnazia. Perhaps there he seeks an army..."
129: 0x0B69 [0x23] WAIT_FOR_DIALOG_INTERACTION
130: 0x0B6A [0x66] LOAD_EXT_SCHEDULER_MAIN: Load scheduler "thk1" with entities [Narcheral (ID: 17731646/0x010E903E), Narcheral (ID: 17731646/0x010E903E)], work=20*
131: 0x0B79 [0x2B] Narcheral (ID: 17731646/0x010E903E) [7596*]:
    → "An army of the dead!? It is hard to believe, but we'd be fools not to."
132: 0x0B80 [0x23] WAIT_FOR_DIALOG_INTERACTION
133: 0x0B81 [0x66] LOAD_EXT_SCHEDULER_MAIN: Load scheduler "tlk0" with entities [Jeronne (ID: 17731647/0x010E903F), Jeronne (ID: 17731647/0x010E903F)], work=30*
134: 0x0B90 [0x2B] Jeronne (ID: 17731647/0x010E903F) [7597*]:
    → "Great forces of the dead still rest in Eldieme. We have also discovered an item they all carry when they appear."
135: 0x0B97 [0x23] WAIT_FOR_DIALOG_INTERACTION
136: 0x0B98 [0x2B] Jeronne (ID: 17731647/0x010E903F) [7598*]:
    → "We failed to obtain one, but they say it is called a $7."
137: 0x0B9F [0x23] WAIT_FOR_DIALOG_INTERACTION
138: 0x0BA0 [0x6B] STOP_AND_IDLE: Jeronne (ID: 17731647/0x010E903F) stops current action and resets to idle (animation="idl0")
139: 0x0BA9 [0x50] END_SCHEDULER_TASK: End scheduler "th" with entities [0x903E, 0x903E], work=[270, 270]
140: 0x0BB6 [0x2B] Narcheral (ID: 17731646/0x010E903E) [7599*]:
    → "Hmm... Perhaps it is a signal of some sort. Let us make use of it in our strategy once we have it."
141: 0x0BBD [0x23] WAIT_FOR_DIALOG_INTERACTION
142: 0x0BBE [0x52] END_LOAD_SCHEDULER: End scheduler "s041" with entities [LocalPlayer, LocalPlayer], work=206*
143: 0x0BCD [0x45] LOAD_SCHEDULED_TASK: Load scheduler "s040" with entities [LocalPlayer, LocalPlayer], work=[206*, 0*]
144: 0x0BDE [0x2B] Jeronne (ID: 17731647/0x010E903F) [7600*]:
    → "Well, then..."
145: 0x0BE5 [0x23] WAIT_FOR_DIALOG_INTERACTION
146: 0x0BE6 [0x66] LOAD_EXT_SCHEDULER_MAIN: Load scheduler "thk2" with entities [Narcheral (ID: 17731646/0x010E903E), Narcheral (ID: 17731646/0x010E903E)], work=20*
147: 0x0BF5 [0x2B] Narcheral (ID: 17731646/0x010E903E) [7601*]:
    → "Yes, we cannot wait for orders from the expeditionary forces. We shall send a cadre of worthy adventurers."
148: 0x0BFC [0x23] WAIT_FOR_DIALOG_INTERACTION
149: 0x0BFD [0x4A] Narcheral (ID: 17731646/0x010E903E) looks at LocalPlayer
150: 0x0C06 [0x2B] Narcheral (ID: 17731646/0x010E903E) [7602*]:
    → "Make for Fei'Yin upon acquiring the $7 in Eldieme."
151: 0x0C0D [0x23] WAIT_FOR_DIALOG_INTERACTION
152: 0x0C0E [0x4A] LocalPlayer looks at Narcheral (ID: 17731646/0x010E903E)
153: 0x0C17 [0x66] LOAD_EXT_SCHEDULER_MAIN: Load scheduler "tlk0" with entities [Narcheral (ID: 17731646/0x010E903E), Narcheral (ID: 17731646/0x010E903E)], work=20*
154: 0x0C26 [0x2B] Narcheral (ID: 17731646/0x010E903E) [7603*]:
    → "Greater rewards await those who serve with distinction. May fortune favor you!"
155: 0x0C2D [0x23] WAIT_FOR_DIALOG_INTERACTION
156: 0x0C2E [0x6B] STOP_AND_IDLE: Narcheral (ID: 17731646/0x010E903E) stops current action and resets to idle (animation="idl0")
157: 0x0C37 [0x5D] SET_MUSIC_VOLUME(volume=0*, fade_time=60*)
158: 0x0C3C [0x45] LOAD_SCHEDULED_TASK: Load scheduler "fdo1" with entities [LocalPlayer, LocalPlayer], work=[200*, 0*]
159: 0x0C4D [0x55] WAIT_LOAD_SCHEDULER: Wait for scheduler "fdo1" with entities [LocalPlayer, LocalPlayer], work=200*
160: 0x0C5C [0x46] CAMERA_CONTROL: Restore default settings
161: 0x0C5E [0x5C] MUSIC_CONTROL: Set Idle (Day) music to song 156*
162: 0x0C62 [0x5C] MUSIC_CONTROL: Set Idle (Night) music to song 156*
163: 0x0C66 [0x45] LOAD_SCHEDULED_TASK: Load scheduler "fdi1" with entities [LocalPlayer, LocalPlayer], work=[200*, 0*]
164: 0x0C77 [0x21] END_EVENT
165: 0x0C78 [0x00] END_REQSTACK()
```

### Event 75

#### Metadata

| Field        | Value   |
|--------------|---------|
| Entrypoint   | 0x0C79  |
| Data Size    | 1 bytes |
| Instructions | 1       |

```
      00 01 02 03 04 05 06 07  08 09 0A 0B 0C 0D 0E 0F
      -- -- -- -- -- -- -- --  -- -- -- -- -- -- -- --
0C70:                             00                             .      
```

#### Opcodes

```
  0: 0x0C79 [0x00] END_REQSTACK()
```

### Event 74

#### Metadata

| Field        | Value   |
|--------------|---------|
| Entrypoint   | 0x0C7A  |
| Data Size    | 1 bytes |
| Instructions | 1       |

```
      00 01 02 03 04 05 06 07  08 09 0A 0B 0C 0D 0E 0F
      -- -- -- -- -- -- -- --  -- -- -- -- -- -- -- --
0C70:                                00                           .     
```

#### Opcodes

```
  0: 0x0C7A [0x00] END_REQSTACK()
```
