# 17731594 - Milchupain

## Common Data

| Field            | Value                         |
|------------------|-------------------------------|
| Zone             | Chateau d'Oraguille (ID: 233) |
| Block Size       | 784 bytes                     |
| Total Events     | 28                            |
| References Count | 34                            |

## List of Events

| Event ID                   | Entrypoint   |   Size |   Instructions |
|----------------------------|--------------|--------|----------------|
| [65535](#event-65535)      | 0x0000       |      1 |              1 |
| [35](#event-35)            | 0x0001       |     13 |              7 |
| [34](#event-34)            | 0x000E       |     13 |              7 |
| [36](#event-36)            | 0x001B       |     13 |              7 |
| [33](#event-33)            | 0x0028       |     13 |              7 |
| [10](#event-10)            | 0x0035       |      3 |              2 |
| [65535.1](#event-655351)   | 0x0038       |     10 |              2 |
| [65535.2](#event-655352)   | 0x0042       |     14 |              4 |
| [9](#event-9)              | 0x0050       |      1 |              1 |
| [65535.3](#event-655353)   | 0x0051       |     10 |              2 |
| [516](#event-516)          | 0x005B       |     43 |             13 |
| [89](#event-89)            | 0x0086       |     18 |              4 |
| [65535.4](#event-655354)   | 0x0098       |     90 |             17 |
| [65535.5](#event-655355)   | 0x00F2       |     87 |             16 |
| [121](#event-121)          | 0x0149       |      1 |              1 |
| [120](#event-120)          | 0x014A       |      1 |              1 |
| [65535.6](#event-655356)   | 0x014B       |     40 |              5 |
| [65535.7](#event-655357)   | 0x0173       |     16 |              2 |
| [65535.8](#event-655358)   | 0x0183       |     16 |              2 |
| [65535.9](#event-655359)   | 0x0193       |     34 |              8 |
| [579](#event-579)          | 0x01B5       |      1 |              1 |
| [580](#event-580)          | 0x01B6       |      1 |              1 |
| [597](#event-597)          | 0x01B7       |      1 |              1 |
| [65535.10](#event-6553510) | 0x01B8       |     22 |              8 |
| [65535.11](#event-6553511) | 0x01CE       |     52 |              8 |
| [598](#event-598)          | 0x0202       |      1 |              1 |
| [605](#event-605)          | 0x0203       |      1 |              1 |
| [606](#event-606)          | 0x0204       |      1 |              1 |

## DAT References (imed_data)

|   Index | Hex Value   |   Dec Value |
|---------|-------------|-------------|
|       0 | 0x1EC4      |        7876 |
|       1 | 0x1EC3      |        7875 |
|       2 | 0x1EC2      |        7874 |
|       3 | 0x1EC1      |        7873 |
|       4 | 0xFFFFFFDC  |  4294967260 |
|       5 | 0xFFFFC610  |  4294952464 |
|       6 | 0x0000      |           0 |
|       7 | 0x0C04      |        3076 |
|       8 | 0x0028      |          40 |
|       9 | 0xFFFFE57A  |  4294960506 |
|      10 | 0xFFFFF52E  |  4294964526 |
|      11 | 0xFFFFEF26  |  4294962982 |
|      12 | 0x0014      |          20 |
|      13 | 0x1C2C      |        7212 |
|      14 | 0x001E      |          30 |
|      15 | 0x1C2D      |        7213 |
|      16 | 0xFFFF7190  |  4294930832 |
|      17 | 0x147ED     |       83949 |
|      18 | 0xFFFFF15B  |  4294963547 |
|      19 | 0x07C4      |        1988 |
|      20 | 0x000D      |          13 |
|      21 | 0x0001      |           1 |
|      22 | 0xFFFF8046  |  4294934598 |
|      23 | 0xFFFFF3CE  |  4294964174 |
|      24 | 0x0C40      |        3136 |
|      25 | 0x001A      |          26 |
|      26 | 0xFFFF8338  |  4294935352 |
|      27 | 0xFFFFF820  |  4294965280 |
|      28 | 0x001D      |          29 |
|      29 | 0xFFFF6EBF  |  4294930111 |
|      30 | 0x13F0D     |       81677 |
|      31 | 0x0015      |          21 |
|      32 | 0xFFFF6BBB  |  4294929339 |
|      33 | 0x12A13     |       76307 |

## String References

- **7212**: I've just returned from Bastok, I have. There be these Quadav living in the mine-holes there!
- **7213**: Bastokers delve for stone and let the Quadav be. But I says we should slay every last one of those shell-backed freaks!
- **7873**: The battle took its toll on us knights. I am relieved there won't be any more expeditions in the near future...but don't tell Sir Rahal I said that.
- **7874**: Lady Curilla and the Temple Knights have found Lightbringer... Who would've thought that it would have been found in such a place?
- **7875**: We knights must keep our senses sharp and our blades sharper. If we let either dull, it could mean our lives!
- **7876**: The battle at Fei'Yin dealt a fierce blow to the Orcs. I think that now is the time to finish those fiends off once and for all. The day of peace is finally here!

## Events

### Event 65535

#### Metadata

| Field        | Value   |
|--------------|---------|
| Entrypoint   | 0x0000  |
| Data Size    | 1 bytes |
| Instructions | 1       |

```
      00 01 02 03 04 05 06 07  08 09 0A 0B 0C 0D 0E 0F
      -- -- -- -- -- -- -- --  -- -- -- -- -- -- -- --
0000: 00                                                .               
```

#### Opcodes

```
  0: 0x0000 [0x00] END_REQSTACK()
```

### Event 35

#### Metadata

| Field        | Value    |
|--------------|----------|
| Entrypoint   | 0x0001   |
| Data Size    | 13 bytes |
| Instructions | 7        |

```
      00 01 02 03 04 05 06 07  08 09 0A 0B 0C 0D 0E 0F
      -- -- -- -- -- -- -- --  -- -- -- -- -- -- -- --
0000:    1E F0 FF FF 7F 6F 70  1D 00 80 23 21 00         .....op...#!.  
```

#### Opcodes

```
  0: 0x0001 [0x1E] EventEntity looks at LocalPlayer and starts talking
  1: 0x0006 [0x6F] WAIT_FRAME_DELAY: Yield until WaitTime reaches zero
  2: 0x0007 [0x70] WAIT_ENTITY_RENDER_FLAG: Wait while EventEntity->Render.Flags3 bit 2 is set (cancel turn if not)
  3: 0x0008 [0x1D] PRINT_EVENT_MESSAGE(message_id=7876*)
    → "The battle at Fei'Yin dealt a fierce blow to the Orcs. I think that now is the time to finish those fiends off once and for all. The day of peace is finally here!"
  4: 0x000B [0x23] WAIT_FOR_DIALOG_INTERACTION
  5: 0x000C [0x21] END_EVENT
  6: 0x000D [0x00] END_REQSTACK()
```

### Event 34

#### Metadata

| Field        | Value    |
|--------------|----------|
| Entrypoint   | 0x000E   |
| Data Size    | 13 bytes |
| Instructions | 7        |

```
      00 01 02 03 04 05 06 07  08 09 0A 0B 0C 0D 0E 0F
      -- -- -- -- -- -- -- --  -- -- -- -- -- -- -- --
0000:                                            1E F0                ..
0010: FF FF 7F 6F 70 1D 01 80  23 21 00                 ...op...#!.     
```

#### Opcodes

```
  0: 0x000E [0x1E] EventEntity looks at LocalPlayer and starts talking
  1: 0x0013 [0x6F] WAIT_FRAME_DELAY: Yield until WaitTime reaches zero
  2: 0x0014 [0x70] WAIT_ENTITY_RENDER_FLAG: Wait while EventEntity->Render.Flags3 bit 2 is set (cancel turn if not)
  3: 0x0015 [0x1D] PRINT_EVENT_MESSAGE(message_id=7875*)
    → "We knights must keep our senses sharp and our blades sharper. If we let either dull, it could mean our lives!"
  4: 0x0018 [0x23] WAIT_FOR_DIALOG_INTERACTION
  5: 0x0019 [0x21] END_EVENT
  6: 0x001A [0x00] END_REQSTACK()
```

### Event 36

#### Metadata

| Field        | Value    |
|--------------|----------|
| Entrypoint   | 0x001B   |
| Data Size    | 13 bytes |
| Instructions | 7        |

```
      00 01 02 03 04 05 06 07  08 09 0A 0B 0C 0D 0E 0F
      -- -- -- -- -- -- -- --  -- -- -- -- -- -- -- --
0010:                                   1E F0 FF FF 7F             .....
0020: 6F 70 1D 02 80 23 21 00                           op...#!.        
```

#### Opcodes

```
  0: 0x001B [0x1E] EventEntity looks at LocalPlayer and starts talking
  1: 0x0020 [0x6F] WAIT_FRAME_DELAY: Yield until WaitTime reaches zero
  2: 0x0021 [0x70] WAIT_ENTITY_RENDER_FLAG: Wait while EventEntity->Render.Flags3 bit 2 is set (cancel turn if not)
  3: 0x0022 [0x1D] PRINT_EVENT_MESSAGE(message_id=7874*)
    → "Lady Curilla and the Temple Knights have found Lightbringer... Who would've thought that it would have been found in such a place?"
  4: 0x0025 [0x23] WAIT_FOR_DIALOG_INTERACTION
  5: 0x0026 [0x21] END_EVENT
  6: 0x0027 [0x00] END_REQSTACK()
```

### Event 33

#### Metadata

| Field        | Value    |
|--------------|----------|
| Entrypoint   | 0x0028   |
| Data Size    | 13 bytes |
| Instructions | 7        |

```
      00 01 02 03 04 05 06 07  08 09 0A 0B 0C 0D 0E 0F
      -- -- -- -- -- -- -- --  -- -- -- -- -- -- -- --
0020:                          1E F0 FF FF 7F 6F 70 1D          .....op.
0030: 03 80 23 21 00                                    ..#!.           
```

#### Opcodes

```
  0: 0x0028 [0x1E] EventEntity looks at LocalPlayer and starts talking
  1: 0x002D [0x6F] WAIT_FRAME_DELAY: Yield until WaitTime reaches zero
  2: 0x002E [0x70] WAIT_ENTITY_RENDER_FLAG: Wait while EventEntity->Render.Flags3 bit 2 is set (cancel turn if not)
  3: 0x002F [0x1D] PRINT_EVENT_MESSAGE(message_id=7873*)
    → "The battle took its toll on us knights. I am relieved there won't be any more expeditions in the near future...but don't tell Sir Rahal I said that."
  4: 0x0032 [0x23] WAIT_FOR_DIALOG_INTERACTION
  5: 0x0033 [0x21] END_EVENT
  6: 0x0034 [0x00] END_REQSTACK()
```

### Event 10

#### Metadata

| Field        | Value   |
|--------------|---------|
| Entrypoint   | 0x0035  |
| Data Size    | 3 bytes |
| Instructions | 2       |

```
      00 01 02 03 04 05 06 07  08 09 0A 0B 0C 0D 0E 0F
      -- -- -- -- -- -- -- --  -- -- -- -- -- -- -- --
0030:                22 01 00                                "..        
```

#### Opcodes

```
  0: 0x0035 [0x22] ENTITY_HIDE_FLAG(enabled=0x01)
  1: 0x0037 [0x00] END_REQSTACK()
```

### Event 65535.1

#### Metadata

| Field        | Value    |
|--------------|----------|
| Entrypoint   | 0x0038   |
| Data Size    | 10 bytes |
| Instructions | 2        |

```
      00 01 02 03 04 05 06 07  08 09 0A 0B 0C 0D 0E 0F
      -- -- -- -- -- -- -- --  -- -- -- -- -- -- -- --
0030:                          37 04 80 05 80 06 80 07          7.......
0040: 80 00                                             ..              
```

#### Opcodes

```
  0: 0x0038 [0x37] UPDATE_EVENT_POSITION_AND_DIR: x=-0.036*, z=-14.832*, y=0.000*, direction=270.3°*
  1: 0x0041 [0x00] END_REQSTACK()
```

### Event 65535.2

#### Metadata

| Field        | Value    |
|--------------|----------|
| Entrypoint   | 0x0042   |
| Data Size    | 14 bytes |
| Instructions | 4        |

```
      00 01 02 03 04 05 06 07  08 09 0A 0B 0C 0D 0E 0F
      -- -- -- -- -- -- -- --  -- -- -- -- -- -- -- --
0040:       32 08 80 1F 00 06  80 09 80 06 80 1F 01 00    2.............
```

#### Opcodes

```
  0: 0x0042 [0x32] ExtData[1]->MainSpeed = 40* * 0.1
  1: 0x0045 [0x1F] MOVE_ENTITY: EventEntity moves to X=0.000*, Z=-6.790*, Y=0.000*
  2: 0x004D [0x1F] MOVE_ENTITY: Update entity position (mode=1)
  3: 0x004F [0x00] END_REQSTACK()
```

### Event 9

#### Metadata

| Field        | Value   |
|--------------|---------|
| Entrypoint   | 0x0050  |
| Data Size    | 1 bytes |
| Instructions | 1       |

```
      00 01 02 03 04 05 06 07  08 09 0A 0B 0C 0D 0E 0F
      -- -- -- -- -- -- -- --  -- -- -- -- -- -- -- --
0050: 00                                                .               
```

#### Opcodes

```
  0: 0x0050 [0x00] END_REQSTACK()
```

### Event 65535.3

#### Metadata

| Field        | Value    |
|--------------|----------|
| Entrypoint   | 0x0051   |
| Data Size    | 10 bytes |
| Instructions | 2        |

```
      00 01 02 03 04 05 06 07  08 09 0A 0B 0C 0D 0E 0F
      -- -- -- -- -- -- -- --  -- -- -- -- -- -- -- --
0050:    37 0A 80 0B 80 06 80  06 80 00                  7.........     
```

#### Opcodes

```
  0: 0x0051 [0x37] UPDATE_EVENT_POSITION_AND_DIR: x=-2.770*, z=-4.314*, y=0.000*, direction=0.0°*
  1: 0x005A [0x00] END_REQSTACK()
```

### Event 516

#### Metadata

| Field        | Value    |
|--------------|----------|
| Entrypoint   | 0x005B   |
| Data Size    | 43 bytes |
| Instructions | 13       |

```
      00 01 02 03 04 05 06 07  08 09 0A 0B 0C 0D 0E 0F
      -- -- -- -- -- -- -- --  -- -- -- -- -- -- -- --
0050:                                   1E F0 FF FF 7F             .....
0060: 6F 70 66 0C 80 F8 FF FF  7F F8 FF FF 7F 74 6C 6B  opf..........tlk
0070: 30 1D 0D 80 23 1C 0E 80  1D 0F 80 23 5E 69 64 6C  0...#......#^idl
0080: 30 1C 0E 80 21 00                                 0...!.          
```

#### Opcodes

```
  0: 0x005B [0x1E] EventEntity looks at LocalPlayer and starts talking
  1: 0x0060 [0x6F] WAIT_FRAME_DELAY: Yield until WaitTime reaches zero
  2: 0x0061 [0x70] WAIT_ENTITY_RENDER_FLAG: Wait while EventEntity->Render.Flags3 bit 2 is set (cancel turn if not)
  3: 0x0062 [0x66] LOAD_EXT_SCHEDULER_MAIN: Load scheduler "tlk0" with entities [EventEntity, EventEntity], work=20*
  4: 0x0071 [0x1D] PRINT_EVENT_MESSAGE(message_id=7212*)
    → "I've just returned from Bastok, I have. There be these Quadav living in the mine-holes there!"
  5: 0x0074 [0x23] WAIT_FOR_DIALOG_INTERACTION
  6: 0x0075 [0x1C] WAIT(30* ticks)
  7: 0x0078 [0x1D] PRINT_EVENT_MESSAGE(message_id=7213*)
    → "Bastokers delve for stone and let the Quadav be. But I says we should slay every last one of those shell-backed freaks!"
  8: 0x007B [0x23] WAIT_FOR_DIALOG_INTERACTION
  9: 0x007C [0x5E] EventEntity goes idle (kills current action) (animation: "idl0")
 10: 0x0081 [0x1C] WAIT(30* ticks)
 11: 0x0084 [0x21] END_EVENT
 12: 0x0085 [0x00] END_REQSTACK()
```

### Event 89

#### Metadata

| Field        | Value    |
|--------------|----------|
| Entrypoint   | 0x0086   |
| Data Size    | 18 bytes |
| Instructions | 4        |

```
      00 01 02 03 04 05 06 07  08 09 0A 0B 0C 0D 0E 0F
      -- -- -- -- -- -- -- --  -- -- -- -- -- -- -- --
0080:                   22 01  92 01 F8 FF FF 7F 37 10        ".......7.
0090: 80 11 80 12 80 13 80 00                           ........        
```

#### Opcodes

```
  0: 0x0086 [0x22] ENTITY_HIDE_FLAG(enabled=0x01)
  1: 0x0088 [0x92] EventEntity->Render.Flags3 ^= 0x01
  2: 0x008E [0x37] UPDATE_EVENT_POSITION_AND_DIR: x=-36.464*, z=83.949*, y=-3.749*, direction=174.7°*
  3: 0x0097 [0x00] END_REQSTACK()
```

### Event 65535.4

#### Metadata

| Field        | Value    |
|--------------|----------|
| Entrypoint   | 0x0098   |
| Data Size    | 90 bytes |
| Instructions | 17       |

```
      00 01 02 03 04 05 06 07  08 09 0A 0B 0C 0D 0E 0F
      -- -- -- -- -- -- -- --  -- -- -- -- -- -- -- --
0090:                          6E F8 FF FF 7F 14 80 99          n.......
00A0: F8 FF FF 7F 06 04 00 3B  F8 FF FF 7F 00 00 02 00  .......;........
00B0: 03 00 3B 34 90 0E 01 00  00 01 00 03 00 02 01 00  ..;4............
00C0: 02 00 03 D6 00 3B 34 90  0E 01 00 00 01 00 03 00  .....;4.........
00D0: 1C 15 80 01 BD 00 5E 69  64 6C 30 1C 0E 80 1E 34  ......^idl0....4
00E0: 90 0E 01 6F 70 6E F8 FF  FF 7F 14 80 99 F8 FF FF  ...opn..........
00F0: 7F 00                                             ..              
```

#### Opcodes

```
  0: 0x0098 [0x6E] EventEntity uses emote 13*
  1: 0x009F [0x99] Wait for EventEntity animation to complete
  2: 0x00A4 [0x06] ExtData[1]->WorkLocal[4] = 0
  3: 0x00A7 [0x3B] GET_ENTITY_POSITION(entity=EventEntity, x_destination=ExtData[1]->WorkLocal[0], y_destination=ExtData[1]->WorkLocal[2], z_destination=ExtData[1]->WorkLocal[3])
  4: 0x00B2 [0x3B] GET_ENTITY_POSITION(entity=Exoroche (ID: 17731636/0x010E9034), x_destination=ExtData[1]->WorkLocal[0], y_destination=ExtData[1]->WorkLocal[1], z_destination=ExtData[1]->WorkLocal[3])
  5: 0x00BD [0x02] IF !(ExtData[1]->WorkLocal[1] >= ExtData[1]->WorkLocal[2]) GOTO 0x00D6
  6: 0x00C5 [0x3B] GET_ENTITY_POSITION(entity=Exoroche (ID: 17731636/0x010E9034), x_destination=ExtData[1]->WorkLocal[0], y_destination=ExtData[1]->WorkLocal[1], z_destination=ExtData[1]->WorkLocal[3])
  7: 0x00D0 [0x1C] WAIT(1* ticks)
  8: 0x00D3 [0x01] GOTO 0x00BD
  9: 0x00D6 [0x5E] EventEntity goes idle (kills current action) (animation: "idl0")
 10: 0x00DB [0x1C] WAIT(30* ticks)
 11: 0x00DE [0x1E] EventEntity looks at Exoroche (ID: 17731636/0x010E9034) and starts talking
 12: 0x00E3 [0x6F] WAIT_FRAME_DELAY: Yield until WaitTime reaches zero
 13: 0x00E4 [0x70] WAIT_ENTITY_RENDER_FLAG: Wait while EventEntity->Render.Flags3 bit 2 is set (cancel turn if not)
 14: 0x00E5 [0x6E] EventEntity uses emote 13*
 15: 0x00EC [0x99] Wait for EventEntity animation to complete
 16: 0x00F1 [0x00] END_REQSTACK()
```

### Event 65535.5

#### Metadata

| Field        | Value    |
|--------------|----------|
| Entrypoint   | 0x00F2   |
| Data Size    | 87 bytes |
| Instructions | 16       |

```
      00 01 02 03 04 05 06 07  08 09 0A 0B 0C 0D 0E 0F
      -- -- -- -- -- -- -- --  -- -- -- -- -- -- -- --
00F0:       6E F8 FF FF 7F 14  80 99 F8 FF FF 7F 3B F8    n...........;.
0100: FF FF 7F 00 00 02 00 03  00 3B 34 90 0E 01 00 00  .........;4.....
0110: 01 00 03 00 02 01 00 02  00 02 2D 01 3B 34 90 0E  ..........-.;4..
0120: 01 00 00 01 00 03 00 1C  15 80 01 14 01 5E 69 64  .............^id
0130: 6C 30 1C 0E 80 1E 34 90  0E 01 6F 70 6E F8 FF FF  l0....4...opn...
0140: 7F 14 80 99 F8 FF FF 7F  00                       .........       
```

#### Opcodes

```
  0: 0x00F2 [0x6E] EventEntity uses emote 13*
  1: 0x00F9 [0x99] Wait for EventEntity animation to complete
  2: 0x00FE [0x3B] GET_ENTITY_POSITION(entity=EventEntity, x_destination=ExtData[1]->WorkLocal[0], y_destination=ExtData[1]->WorkLocal[2], z_destination=ExtData[1]->WorkLocal[3])
  3: 0x0109 [0x3B] GET_ENTITY_POSITION(entity=Exoroche (ID: 17731636/0x010E9034), x_destination=ExtData[1]->WorkLocal[0], y_destination=ExtData[1]->WorkLocal[1], z_destination=ExtData[1]->WorkLocal[3])
  4: 0x0114 [0x02] IF !(ExtData[1]->WorkLocal[1] <= ExtData[1]->WorkLocal[2]) GOTO 0x012D
  5: 0x011C [0x3B] GET_ENTITY_POSITION(entity=Exoroche (ID: 17731636/0x010E9034), x_destination=ExtData[1]->WorkLocal[0], y_destination=ExtData[1]->WorkLocal[1], z_destination=ExtData[1]->WorkLocal[3])
  6: 0x0127 [0x1C] WAIT(1* ticks)
  7: 0x012A [0x01] GOTO 0x0114
  8: 0x012D [0x5E] EventEntity goes idle (kills current action) (animation: "idl0")
  9: 0x0132 [0x1C] WAIT(30* ticks)
 10: 0x0135 [0x1E] EventEntity looks at Exoroche (ID: 17731636/0x010E9034) and starts talking
 11: 0x013A [0x6F] WAIT_FRAME_DELAY: Yield until WaitTime reaches zero
 12: 0x013B [0x70] WAIT_ENTITY_RENDER_FLAG: Wait while EventEntity->Render.Flags3 bit 2 is set (cancel turn if not)
 13: 0x013C [0x6E] EventEntity uses emote 13*
 14: 0x0143 [0x99] Wait for EventEntity animation to complete
 15: 0x0148 [0x00] END_REQSTACK()
```

### Event 121

#### Metadata

| Field        | Value   |
|--------------|---------|
| Entrypoint   | 0x0149  |
| Data Size    | 1 bytes |
| Instructions | 1       |

```
      00 01 02 03 04 05 06 07  08 09 0A 0B 0C 0D 0E 0F
      -- -- -- -- -- -- -- --  -- -- -- -- -- -- -- --
0140:                             00                             .      
```

#### Opcodes

```
  0: 0x0149 [0x00] END_REQSTACK()
```

### Event 120

#### Metadata

| Field        | Value   |
|--------------|---------|
| Entrypoint   | 0x014A  |
| Data Size    | 1 bytes |
| Instructions | 1       |

```
      00 01 02 03 04 05 06 07  08 09 0A 0B 0C 0D 0E 0F
      -- -- -- -- -- -- -- --  -- -- -- -- -- -- -- --
0140:                                00                           .     
```

#### Opcodes

```
  0: 0x014A [0x00] END_REQSTACK()
```

### Event 65535.6

#### Metadata

| Field        | Value    |
|--------------|----------|
| Entrypoint   | 0x014B   |
| Data Size    | 40 bytes |
| Instructions | 5        |

```
      00 01 02 03 04 05 06 07  08 09 0A 0B 0C 0D 0E 0F
      -- -- -- -- -- -- -- --  -- -- -- -- -- -- -- --
0140:                                   37 16 80 17 80             7....
0150: 06 80 18 80 80 F8 FF FF  7F 66 19 80 F8 FF FF 7F  .........f......
0160: F8 FF FF 7F 6F 72 6F 30  79 00 F8 FF FF 7F 1F 90  ....oro0y.......
0170: 0E 01 00                                          ...             
```

#### Opcodes

```
  0: 0x014B [0x37] UPDATE_EVENT_POSITION_AND_DIR: x=-32.698*, z=-3.122*, y=0.000*, direction=275.6°*
  1: 0x0154 [0x80] LOAD_WAIT(entity=EventEntity)
  2: 0x0159 [0x66] LOAD_EXT_SCHEDULER_MAIN: Load scheduler "oro0" with entities [EventEntity, EventEntity], work=26*
  3: 0x0168 [0x79] EventEntity looks at Unnamed NPC (ID: 17731615/0x010E901F) (Basic look)
  4: 0x0172 [0x00] END_REQSTACK()
```

### Event 65535.7

#### Metadata

| Field        | Value    |
|--------------|----------|
| Entrypoint   | 0x0173   |
| Data Size    | 16 bytes |
| Instructions | 2        |

```
      00 01 02 03 04 05 06 07  08 09 0A 0B 0C 0D 0E 0F
      -- -- -- -- -- -- -- --  -- -- -- -- -- -- -- --
0170:          66 19 80 F8 FF  FF 7F F8 FF FF 7F 6F 72     f..........or
0180: 6F 30 00                                          o0.             
```

#### Opcodes

```
  0: 0x0173 [0x66] LOAD_EXT_SCHEDULER_MAIN: Load scheduler "oro0" with entities [EventEntity, EventEntity], work=26*
  1: 0x0182 [0x00] END_REQSTACK()
```

### Event 65535.8

#### Metadata

| Field        | Value    |
|--------------|----------|
| Entrypoint   | 0x0183   |
| Data Size    | 16 bytes |
| Instructions | 2        |

```
      00 01 02 03 04 05 06 07  08 09 0A 0B 0C 0D 0E 0F
      -- -- -- -- -- -- -- --  -- -- -- -- -- -- -- --
0180:          66 19 80 F8 FF  FF 7F F8 FF FF 7F 6F 72     f..........or
0190: 6F 31 00                                          o1.             
```

#### Opcodes

```
  0: 0x0183 [0x66] LOAD_EXT_SCHEDULER_MAIN: Load scheduler "oro1" with entities [EventEntity, EventEntity], work=26*
  1: 0x0192 [0x00] END_REQSTACK()
```

### Event 65535.9

#### Metadata

| Field        | Value    |
|--------------|----------|
| Entrypoint   | 0x0193   |
| Data Size    | 34 bytes |
| Instructions | 8        |

```
      00 01 02 03 04 05 06 07  08 09 0A 0B 0C 0D 0E 0F
      -- -- -- -- -- -- -- --  -- -- -- -- -- -- -- --
0190:          1F 00 1A 80 1B  80 06 80 1F 01 6F 1E 1F     ..........o..
01A0: 90 0E 01 6F 70 66 1C 80  F8 FF FF 7F F8 FF FF 7F  ...opf..........
01B0: 73 68 61 30 00                                    sha0.           
```

#### Opcodes

```
  0: 0x0193 [0x1F] MOVE_ENTITY: EventEntity moves to X=-31.944*, Z=-2.016*, Y=0.000*
  1: 0x019B [0x1F] MOVE_ENTITY: Update entity position (mode=1)
  2: 0x019D [0x6F] WAIT_FRAME_DELAY: Yield until WaitTime reaches zero
  3: 0x019E [0x1E] EventEntity looks at Unnamed NPC (ID: 17731615/0x010E901F) and starts talking
  4: 0x01A3 [0x6F] WAIT_FRAME_DELAY: Yield until WaitTime reaches zero
  5: 0x01A4 [0x70] WAIT_ENTITY_RENDER_FLAG: Wait while EventEntity->Render.Flags3 bit 2 is set (cancel turn if not)
  6: 0x01A5 [0x66] LOAD_EXT_SCHEDULER_MAIN: Load scheduler "sha0" with entities [EventEntity, EventEntity], work=29*
  7: 0x01B4 [0x00] END_REQSTACK()
```

### Event 579

#### Metadata

| Field        | Value   |
|--------------|---------|
| Entrypoint   | 0x01B5  |
| Data Size    | 1 bytes |
| Instructions | 1       |

```
      00 01 02 03 04 05 06 07  08 09 0A 0B 0C 0D 0E 0F
      -- -- -- -- -- -- -- --  -- -- -- -- -- -- -- --
01B0:                00                                      .          
```

#### Opcodes

```
  0: 0x01B5 [0x00] END_REQSTACK()
```

### Event 580

#### Metadata

| Field        | Value   |
|--------------|---------|
| Entrypoint   | 0x01B6  |
| Data Size    | 1 bytes |
| Instructions | 1       |

```
      00 01 02 03 04 05 06 07  08 09 0A 0B 0C 0D 0E 0F
      -- -- -- -- -- -- -- --  -- -- -- -- -- -- -- --
01B0:                   00                                    .         
```

#### Opcodes

```
  0: 0x01B6 [0x00] END_REQSTACK()
```

### Event 597

#### Metadata

| Field        | Value   |
|--------------|---------|
| Entrypoint   | 0x01B7  |
| Data Size    | 1 bytes |
| Instructions | 1       |

```
      00 01 02 03 04 05 06 07  08 09 0A 0B 0C 0D 0E 0F
      -- -- -- -- -- -- -- --  -- -- -- -- -- -- -- --
01B0:                      00                                  .        
```

#### Opcodes

```
  0: 0x01B7 [0x00] END_REQSTACK()
```

### Event 65535.10

#### Metadata

| Field        | Value    |
|--------------|----------|
| Entrypoint   | 0x01B8   |
| Data Size    | 22 bytes |
| Instructions | 8        |

```
      00 01 02 03 04 05 06 07  08 09 0A 0B 0C 0D 0E 0F
      -- -- -- -- -- -- -- --  -- -- -- -- -- -- -- --
01B0:                          32 14 80 1F 00 1D 80 1E          2.......
01C0: 80 12 80 1F 01 6F 1E 66  90 0E 01 6F 70 00        .....o.f...op.  
```

#### Opcodes

```
  0: 0x01B8 [0x32] ExtData[1]->MainSpeed = 13* * 0.1
  1: 0x01BB [0x1F] MOVE_ENTITY: EventEntity moves to X=-37.185*, Z=81.677*, Y=-3.749*
  2: 0x01C3 [0x1F] MOVE_ENTITY: Update entity position (mode=1)
  3: 0x01C5 [0x6F] WAIT_FRAME_DELAY: Yield until WaitTime reaches zero
  4: 0x01C6 [0x1E] EventEntity looks at Trion (ID: 17731686/0x010E9066) and starts talking
  5: 0x01CB [0x6F] WAIT_FRAME_DELAY: Yield until WaitTime reaches zero
  6: 0x01CC [0x70] WAIT_ENTITY_RENDER_FLAG: Wait while EventEntity->Render.Flags3 bit 2 is set (cancel turn if not)
  7: 0x01CD [0x00] END_REQSTACK()
```

### Event 65535.11

#### Metadata

| Field        | Value    |
|--------------|----------|
| Entrypoint   | 0x01CE   |
| Data Size    | 52 bytes |
| Instructions | 8        |

```
      00 01 02 03 04 05 06 07  08 09 0A 0B 0C 0D 0E 0F
      -- -- -- -- -- -- -- --  -- -- -- -- -- -- -- --
01C0:                                            66 1F                f.
01D0: 80 0A 90 0E 01 0A 90 0E  01 73 6C 30 30 53 0A 90  .........sl00S..
01E0: 0E 01 0A 90 0E 01 73 6C  30 30 32 08 80 1F 00 20  ......sl002.... 
01F0: 80 21 80 12 80 1F 01 6F  6C 0A 90 0E 01 06 80 15  .!.....ol.......
0200: 80 00                                             ..              
```

#### Opcodes

```
  0: 0x01CE [0x66] LOAD_EXT_SCHEDULER_MAIN: Load scheduler "sl00" with entities [Milchupain (ID: 17731594/0x010E900A), Milchupain (ID: 17731594/0x010E900A)], work=21*
  1: 0x01DD [0x53] WAIT_SCHEDULER_TASK: Wait for scheduler "sl00" with entities [Milchupain (ID: 17731594/0x010E900A), Milchupain (ID: 17731594/0x010E900A)]
  2: 0x01EA [0x32] ExtData[1]->MainSpeed = 40* * 0.1
  3: 0x01ED [0x1F] MOVE_ENTITY: EventEntity moves to X=-37.957*, Z=76.307*, Y=-3.749*
  4: 0x01F5 [0x1F] MOVE_ENTITY: Update entity position (mode=1)
  5: 0x01F7 [0x6F] WAIT_FRAME_DELAY: Yield until WaitTime reaches zero
  6: 0x01F8 [0x6C] FADE_ENTITY_COLOR(entity_id=Milchupain (ID: 17731594/0x010E900A), end_alpha=0*, fade_time=1*)
  7: 0x0201 [0x00] END_REQSTACK()
```

### Event 598

#### Metadata

| Field        | Value   |
|--------------|---------|
| Entrypoint   | 0x0202  |
| Data Size    | 1 bytes |
| Instructions | 1       |

```
      00 01 02 03 04 05 06 07  08 09 0A 0B 0C 0D 0E 0F
      -- -- -- -- -- -- -- --  -- -- -- -- -- -- -- --
0200:       00                                            .             
```

#### Opcodes

```
  0: 0x0202 [0x00] END_REQSTACK()
```

### Event 605

#### Metadata

| Field        | Value   |
|--------------|---------|
| Entrypoint   | 0x0203  |
| Data Size    | 1 bytes |
| Instructions | 1       |

```
      00 01 02 03 04 05 06 07  08 09 0A 0B 0C 0D 0E 0F
      -- -- -- -- -- -- -- --  -- -- -- -- -- -- -- --
0200:          00                                          .            
```

#### Opcodes

```
  0: 0x0203 [0x00] END_REQSTACK()
```

### Event 606

#### Metadata

| Field        | Value   |
|--------------|---------|
| Entrypoint   | 0x0204  |
| Data Size    | 1 bytes |
| Instructions | 1       |

```
      00 01 02 03 04 05 06 07  08 09 0A 0B 0C 0D 0E 0F
      -- -- -- -- -- -- -- --  -- -- -- -- -- -- -- --
0200:             00                                        .           
```

#### Opcodes

```
  0: 0x0204 [0x00] END_REQSTACK()
```
