# 17731624 - DoorPrince Royals Rm

## Common Data

| Field            | Value                         |
|------------------|-------------------------------|
| Zone             | Chateau d'Oraguille (ID: 233) |
| Block Size       | 3272 bytes                    |
| Total Events     | 32                            |
| References Count | 40                            |

## List of Events

| Event ID                 | Entrypoint   |   Size |   Instructions |
|--------------------------|--------------|--------|----------------|
| [65535](#event-65535)    | 0x0000       |      1 |              1 |
| [66](#event-66)          | 0x0001       |      7 |              2 |
| [65535.1](#event-655351) | 0x0008       |      2 |              2 |
| [65535.2](#event-655352) | 0x000A       |      2 |              2 |
| [115](#event-115)        | 0x000C       |      1 |              1 |
| [547](#event-547)        | 0x000D       |      1 |              1 |
| [81](#event-81)          | 0x000E       |      1 |              1 |
| [80](#event-80)          | 0x000F       |      1 |              1 |
| [21](#event-21)          | 0x0010       |      1 |              1 |
| [64](#event-64)          | 0x0011       |      1 |              1 |
| [63](#event-63)          | 0x0012       |      1 |              1 |
| [3](#event-3)            | 0x0013       |      1 |              1 |
| [62](#event-62)          | 0x0014       |      1 |              1 |
| [535](#event-535)        | 0x0015       |    175 |             35 |
| [88](#event-88)          | 0x00C4       |      1 |              1 |
| [90](#event-90)          | 0x00C5       |      1 |              1 |
| [91](#event-91)          | 0x00C6       |      1 |              1 |
| [89](#event-89)          | 0x00C7       |      1 |              1 |
| [79](#event-79)          | 0x00C8       |    151 |             19 |
| [50](#event-50)          | 0x015F       |    151 |             19 |
| [49](#event-49)          | 0x01F6       |    151 |             19 |
| [2](#event-2)            | 0x028D       |    151 |             19 |
| [7](#event-7)            | 0x0324       |    151 |             19 |
| [553](#event-553)        | 0x03BB       |   1389 |            181 |
| [554](#event-554)        | 0x0928       |    617 |             74 |
| [65535.3](#event-655353) | 0x0B91       |      1 |              1 |
| [592](#event-592)        | 0x0B92       |      1 |              1 |
| [597](#event-597)        | 0x0B93       |      1 |              1 |
| [602](#event-602)        | 0x0B94       |      1 |              1 |
| [603](#event-603)        | 0x0B95       |      1 |              1 |
| [604](#event-604)        | 0x0B96       |      1 |              1 |
| [609](#event-609)        | 0x0B97       |      1 |              1 |

## DAT References (imed_data)

|   Index | Hex Value   |   Dec Value |
|---------|-------------|-------------|
|       0 | 0x0800      |        2048 |
|       1 | 0x0FFF      |        4095 |
|       2 | 0x0085      |         133 |
|       3 | 0x0000      |           0 |
|       4 | 0x0003      |           3 |
|       5 | 0x003C      |          60 |
|       6 | 0xFFFF6BCA  |  4294929354 |
|       7 | 0x12EEE     |       77550 |
|       8 | 0xFFFFF15B  |  4294963547 |
|       9 | 0x0C00      |        3072 |
|      10 | 0x005A      |          90 |
|      11 | 0xFFFF6B60  |  4294929248 |
|      12 | 0x11F7E     |       73598 |
|      13 | 0x0400      |        1024 |
|      14 | 0x000A      |          10 |
|      15 | 0x00F2      |         242 |
|      16 | 0x0015      |          21 |
|      17 | 0x1A72      |        6770 |
|      18 | 0x00C8      |         200 |
|      19 | 0x1A7F      |        6783 |
|      20 | 0x1A81      |        6785 |
|      21 | 0x1E7D      |        7805 |
|      22 | 0x1E7F      |        7807 |
|      23 | 0x0013      |          19 |
|      24 | 0x0176      |         374 |
|      25 | 0x0031      |          49 |
|      26 | 0x0078      |         120 |
|      27 | 0x0008      |           8 |
|      28 | 0x0032      |          50 |
|      29 | 0x1DB5      |        7605 |
|      30 | 0x0002      |           2 |
|      31 | 0x0004      |           4 |
|      32 | 0x0005      |           5 |
|      33 | 0x0006      |           6 |
|      34 | 0x0007      |           7 |
|      35 | 0x1DB9      |        7609 |
|      36 | 0x0064      |         100 |
|      37 | 0x0096      |         150 |
|      38 | 0x1DC3      |        7619 |
|      39 | 0x00C9      |         201 |

## Events

### Event 65535

#### Metadata

| Field        | Value   |
|--------------|---------|
| Entrypoint   | 0x0000  |
| Data Size    | 1 bytes |
| Instructions | 1       |

```
      00 01 02 03 04 05 06 07  08 09 0A 0B 0C 0D 0E 0F
      -- -- -- -- -- -- -- --  -- -- -- -- -- -- -- --
0000: 00                                                .               
```

#### Opcodes

```
  0: 0x0000 [0x00] END_REQSTACK()
```

### Event 66

#### Metadata

| Field        | Value   |
|--------------|---------|
| Entrypoint   | 0x0001  |
| Data Size    | 7 bytes |
| Instructions | 2       |

```
      00 01 02 03 04 05 06 07  08 09 0A 0B 0C 0D 0E 0F
      -- -- -- -- -- -- -- --  -- -- -- -- -- -- -- --
0000:    94 01 F8 FF FF 7F 00                            .......        
```

#### Opcodes

```
  0: 0x0001 [0x94] EventEntity->Render.Flags3 ^= 0x01
  1: 0x0007 [0x00] END_REQSTACK()
```

### Event 65535.1

#### Metadata

| Field        | Value   |
|--------------|---------|
| Entrypoint   | 0x0008  |
| Data Size    | 2 bytes |
| Instructions | 2       |

```
      00 01 02 03 04 05 06 07  08 09 0A 0B 0C 0D 0E 0F
      -- -- -- -- -- -- -- --  -- -- -- -- -- -- -- --
0000:                          4C 00                            L.      
```

#### Opcodes

```
  0: 0x0008 [0x4C] EventEntity->StatusEvent = 8 // Open door
  1: 0x0009 [0x00] END_REQSTACK()
```

### Event 65535.2

#### Metadata

| Field        | Value   |
|--------------|---------|
| Entrypoint   | 0x000A  |
| Data Size    | 2 bytes |
| Instructions | 2       |

```
      00 01 02 03 04 05 06 07  08 09 0A 0B 0C 0D 0E 0F
      -- -- -- -- -- -- -- --  -- -- -- -- -- -- -- --
0000:                                4D 00                        M.    
```

#### Opcodes

```
  0: 0x000A [0x4D] EventEntity->StatusEvent = 9 // Close door
  1: 0x000B [0x00] END_REQSTACK()
```

### Event 115

#### Metadata

| Field        | Value   |
|--------------|---------|
| Entrypoint   | 0x000C  |
| Data Size    | 1 bytes |
| Instructions | 1       |

```
      00 01 02 03 04 05 06 07  08 09 0A 0B 0C 0D 0E 0F
      -- -- -- -- -- -- -- --  -- -- -- -- -- -- -- --
0000:                                      00                       .   
```

#### Opcodes

```
  0: 0x000C [0x00] END_REQSTACK()
```

### Event 547

#### Metadata

| Field        | Value   |
|--------------|---------|
| Entrypoint   | 0x000D  |
| Data Size    | 1 bytes |
| Instructions | 1       |

```
      00 01 02 03 04 05 06 07  08 09 0A 0B 0C 0D 0E 0F
      -- -- -- -- -- -- -- --  -- -- -- -- -- -- -- --
0000:                                         00                     .  
```

#### Opcodes

```
  0: 0x000D [0x00] END_REQSTACK()
```

### Event 81

#### Metadata

| Field        | Value   |
|--------------|---------|
| Entrypoint   | 0x000E  |
| Data Size    | 1 bytes |
| Instructions | 1       |

```
      00 01 02 03 04 05 06 07  08 09 0A 0B 0C 0D 0E 0F
      -- -- -- -- -- -- -- --  -- -- -- -- -- -- -- --
0000:                                            00                   . 
```

#### Opcodes

```
  0: 0x000E [0x00] END_REQSTACK()
```

### Event 80

#### Metadata

| Field        | Value   |
|--------------|---------|
| Entrypoint   | 0x000F  |
| Data Size    | 1 bytes |
| Instructions | 1       |

```
      00 01 02 03 04 05 06 07  08 09 0A 0B 0C 0D 0E 0F
      -- -- -- -- -- -- -- --  -- -- -- -- -- -- -- --
0000:                                               00                 .
```

#### Opcodes

```
  0: 0x000F [0x00] END_REQSTACK()
```

### Event 21

#### Metadata

| Field        | Value   |
|--------------|---------|
| Entrypoint   | 0x0010  |
| Data Size    | 1 bytes |
| Instructions | 1       |

```
      00 01 02 03 04 05 06 07  08 09 0A 0B 0C 0D 0E 0F
      -- -- -- -- -- -- -- --  -- -- -- -- -- -- -- --
0010: 00                                                .               
```

#### Opcodes

```
  0: 0x0010 [0x00] END_REQSTACK()
```

### Event 64

#### Metadata

| Field        | Value   |
|--------------|---------|
| Entrypoint   | 0x0011  |
| Data Size    | 1 bytes |
| Instructions | 1       |

```
      00 01 02 03 04 05 06 07  08 09 0A 0B 0C 0D 0E 0F
      -- -- -- -- -- -- -- --  -- -- -- -- -- -- -- --
0010:    00                                              .              
```

#### Opcodes

```
  0: 0x0011 [0x00] END_REQSTACK()
```

### Event 63

#### Metadata

| Field        | Value   |
|--------------|---------|
| Entrypoint   | 0x0012  |
| Data Size    | 1 bytes |
| Instructions | 1       |

```
      00 01 02 03 04 05 06 07  08 09 0A 0B 0C 0D 0E 0F
      -- -- -- -- -- -- -- --  -- -- -- -- -- -- -- --
0010:       00                                            .             
```

#### Opcodes

```
  0: 0x0012 [0x00] END_REQSTACK()
```

### Event 3

#### Metadata

| Field        | Value   |
|--------------|---------|
| Entrypoint   | 0x0013  |
| Data Size    | 1 bytes |
| Instructions | 1       |

```
      00 01 02 03 04 05 06 07  08 09 0A 0B 0C 0D 0E 0F
      -- -- -- -- -- -- -- --  -- -- -- -- -- -- -- --
0010:          00                                          .            
```

#### Opcodes

```
  0: 0x0013 [0x00] END_REQSTACK()
```

### Event 62

#### Metadata

| Field        | Value   |
|--------------|---------|
| Entrypoint   | 0x0014  |
| Data Size    | 1 bytes |
| Instructions | 1       |

```
      00 01 02 03 04 05 06 07  08 09 0A 0B 0C 0D 0E 0F
      -- -- -- -- -- -- -- --  -- -- -- -- -- -- -- --
0010:             00                                        .           
```

#### Opcodes

```
  0: 0x0014 [0x00] END_REQSTACK()
```

### Event 535

#### Metadata

| Field        | Value     |
|--------------|-----------|
| Entrypoint   | 0x0015    |
| Data Size    | 175 bytes |
| Instructions | 35        |

```
      00 01 02 03 04 05 06 07  08 09 0A 0B 0C 0D 0E 0F
      -- -- -- -- -- -- -- --  -- -- -- -- -- -- -- --
0010:                42 46 01  27 64 F0 FF FF 7F 1D 2A       BF.'d.....*
0020: 64 F0 FF FF 7F 3A F0 FF  FF 7F 00 00 02 00 00 00  d....:..........
0030: 80 02 81 00 02 00 00 01  80 03 81 00 45 02 80 F0  ............E...
0040: FF FF 7F F0 FF FF 7F 73  30 30 30 03 80 38 04 80  .......s000..8..
0050: 27 64 F0 FF FF 7F 20 2A  64 F0 FF FF 7F 4C 1C 05  'd.... *d....L..
0060: 80 27 64 F0 FF FF 7F 23  2A 64 F0 FF FF 7F 47 00  .'d....#*d....G.
0070: 06 80 07 80 08 80 09 80  47 01 4D 1C 0A 80 46 00  ........G.M...F.
0080: 21 45 02 80 F0 FF FF 7F  F0 FF FF 7F 73 30 30 31  !E..........s001
0090: 03 80 27 64 F0 FF FF 7F  21 2A 64 F0 FF FF 7F 4C  ..'d....!*d....L
00A0: 1C 05 80 27 64 F0 FF FF  7F 24 2A 64 F0 FF FF 7F  ...'d....$*d....
00B0: 47 00 0B 80 0C 80 08 80  0D 80 47 01 4D 1C 0A 80  G.........G.M...
00C0: 46 00 21 00                                       F.!.            
```

#### Opcodes

```
  0: 0x0015 [0x42] SET_CLI_EVENT_CANCEL_DATA()
  1: 0x0016 [0x46] CAMERA_CONTROL: Disable user control
  2: 0x0018 [0x27] REQ_SET(priority=0x64, entity_id=LocalPlayer, tag_num=0x1D)
  3: 0x001F [0x2A] GET_REQ_LEVEL(level=100, entity_id=LocalPlayer)
  4: 0x0025 [0x3A] CONVERT_YAW_TO_BYTE(entity=LocalPlayer, result_destination=ExtData[1]->WorkLocal[0])
  5: 0x002C [0x02] IF !(ExtData[1]->WorkLocal[0] <= 2048*) GOTO 0x0081
  6: 0x0034 [0x02] IF !(ExtData[1]->WorkLocal[0] >= 4095*) GOTO 0x0081
  7: 0x003C [0x45] LOAD_SCHEDULED_TASK: Load scheduler "s000" with entities [LocalPlayer, LocalPlayer], work=[133*, 0*]
  8: 0x004D [0x38] SET_CLIENT_EVENT_MODE(mode=3*)
  9: 0x0050 [0x27] REQ_SET(priority=0x64, entity_id=LocalPlayer, tag_num=0x20)
 10: 0x0057 [0x2A] GET_REQ_LEVEL(level=100, entity_id=LocalPlayer)
 11: 0x005D [0x4C] EventEntity->StatusEvent = 8 // Open door
 12: 0x005E [0x1C] WAIT(60* ticks)
 13: 0x0061 [0x27] REQ_SET(priority=0x64, entity_id=LocalPlayer, tag_num=0x23)
 14: 0x0068 [0x2A] GET_REQ_LEVEL(level=100, entity_id=LocalPlayer)
 15: 0x006E [0x47] UPDATE_PLAYER_POS(-37.942*, 77.550*, -3.749*, yaw=270.0°*)
 16: 0x0078 [0x47] WAIT_PLAYER_POS_UPDATE
 17: 0x007A [0x4D] EventEntity->StatusEvent = 9 // Close door
 18: 0x007B [0x1C] WAIT(90* ticks)
 19: 0x007E [0x46] CAMERA_CONTROL: Restore default settings
 20: 0x0080 [0x21] END_EVENT
 21: 0x0081 [0x45] LOAD_SCHEDULED_TASK: Load scheduler "s001" with entities [LocalPlayer, LocalPlayer], work=[133*, 0*]
 22: 0x0092 [0x27] REQ_SET(priority=0x64, entity_id=LocalPlayer, tag_num=0x21)
 23: 0x0099 [0x2A] GET_REQ_LEVEL(level=100, entity_id=LocalPlayer)
 24: 0x009F [0x4C] EventEntity->StatusEvent = 8 // Open door
 25: 0x00A0 [0x1C] WAIT(60* ticks)
 26: 0x00A3 [0x27] REQ_SET(priority=0x64, entity_id=LocalPlayer, tag_num=0x24)
 27: 0x00AA [0x2A] GET_REQ_LEVEL(level=100, entity_id=LocalPlayer)
 28: 0x00B0 [0x47] UPDATE_PLAYER_POS(-38.048*, 73.598*, -3.749*, yaw=90.0°*)
 29: 0x00BA [0x47] WAIT_PLAYER_POS_UPDATE
 30: 0x00BC [0x4D] EventEntity->StatusEvent = 9 // Close door
 31: 0x00BD [0x1C] WAIT(90* ticks)
 32: 0x00C0 [0x46] CAMERA_CONTROL: Restore default settings
 33: 0x00C2 [0x21] END_EVENT
 34: 0x00C3 [0x00] END_REQSTACK()
```

### Event 88

#### Metadata

| Field        | Value   |
|--------------|---------|
| Entrypoint   | 0x00C4  |
| Data Size    | 1 bytes |
| Instructions | 1       |

```
      00 01 02 03 04 05 06 07  08 09 0A 0B 0C 0D 0E 0F
      -- -- -- -- -- -- -- --  -- -- -- -- -- -- -- --
00C0:             00                                        .           
```

#### Opcodes

```
  0: 0x00C4 [0x00] END_REQSTACK()
```

### Event 90

#### Metadata

| Field        | Value   |
|--------------|---------|
| Entrypoint   | 0x00C5  |
| Data Size    | 1 bytes |
| Instructions | 1       |

```
      00 01 02 03 04 05 06 07  08 09 0A 0B 0C 0D 0E 0F
      -- -- -- -- -- -- -- --  -- -- -- -- -- -- -- --
00C0:                00                                      .          
```

#### Opcodes

```
  0: 0x00C5 [0x00] END_REQSTACK()
```

### Event 91

#### Metadata

| Field        | Value   |
|--------------|---------|
| Entrypoint   | 0x00C6  |
| Data Size    | 1 bytes |
| Instructions | 1       |

```
      00 01 02 03 04 05 06 07  08 09 0A 0B 0C 0D 0E 0F
      -- -- -- -- -- -- -- --  -- -- -- -- -- -- -- --
00C0:                   00                                    .         
```

#### Opcodes

```
  0: 0x00C6 [0x00] END_REQSTACK()
```

### Event 89

#### Metadata

| Field        | Value   |
|--------------|---------|
| Entrypoint   | 0x00C7  |
| Data Size    | 1 bytes |
| Instructions | 1       |

```
      00 01 02 03 04 05 06 07  08 09 0A 0B 0C 0D 0E 0F
      -- -- -- -- -- -- -- --  -- -- -- -- -- -- -- --
00C0:                      00                                  .        
```

#### Opcodes

```
  0: 0x00C7 [0x00] END_REQSTACK()
```

### Event 79

#### Metadata

| Field        | Value     |
|--------------|-----------|
| Entrypoint   | 0x00C8    |
| Data Size    | 151 bytes |
| Instructions | 19        |

```
      00 01 02 03 04 05 06 07  08 09 0A 0B 0C 0D 0E 0F
      -- -- -- -- -- -- -- --  -- -- -- -- -- -- -- --
00C0:                          42 46 01 4A 1B 90 0E 01          BF.J....
00D0: F0 FF FF 7F 1C 0E 80 45  0F 80 F0 FF FF 7F F0 FF  .......E........
00E0: FF 7F 77 30 30 30 03 80  55 0F 80 F0 FF FF 7F F0  ..w000..U.......
00F0: FF FF 7F 77 30 30 30 6F  76 1B 90 0E 01 4A F0 FF  ...w000ov....J..
0100: FF 7F 1B 90 0E 01 66 10  80 1B 90 0E 01 1B 90 0E  ......f.........
0110: 01 73 6C 30 30 2B 1B 90  0E 01 11 80 23 53 1B 90  .sl00+......#S..
0120: 0E 01 1B 90 0E 01 73 6C  30 30 45 12 80 F0 FF FF  ......sl00E.....
0130: 7F F0 FF FF 7F 66 64 6F  32 03 80 55 12 80 F0 FF  .....fdo2..U....
0140: FF 7F F0 FF FF 7F 66 64  6F 32 46 00 45 12 80 F0  ......fdo2F.E...
0150: FF FF 7F F0 FF FF 7F 66  64 69 32 03 80 21 00     .......fdi2..!. 
```

#### Opcodes

```
  0: 0x00C8 [0x42] SET_CLI_EVENT_CANCEL_DATA()
  1: 0x00C9 [0x46] CAMERA_CONTROL: Disable user control
  2: 0x00CB [0x4A] Perfaumand (ID: 17731611/0x010E901B) looks at LocalPlayer
  3: 0x00D4 [0x1C] WAIT(10* ticks)
  4: 0x00D7 [0x45] LOAD_SCHEDULED_TASK: Load scheduler "w000" with entities [LocalPlayer, LocalPlayer], work=[242*, 0*]
  5: 0x00E8 [0x55] WAIT_LOAD_SCHEDULER: Wait for scheduler "w000" with entities [LocalPlayer, LocalPlayer], work=242*
  6: 0x00F7 [0x6F] WAIT_FRAME_DELAY: Yield until WaitTime reaches zero
  7: 0x00F8 [0x76] CHECK_ENTITY_RENDER_FLAGS: Wait until Perfaumand (ID: 17731611/0x010E901B) Render.Flags0 and Render.Flags3 conditions are met
  8: 0x00FD [0x4A] LocalPlayer looks at Perfaumand (ID: 17731611/0x010E901B)
  9: 0x0106 [0x66] LOAD_EXT_SCHEDULER_MAIN: Load scheduler "sl00" with entities [Perfaumand (ID: 17731611/0x010E901B), Perfaumand (ID: 17731611/0x010E901B)], work=21*
 10: 0x0115 [0x2B] Perfaumand (ID: 17731611/0x010E901B) [6770*]:
    → "I have a message from Prince Trion asking you to make any reports of your findings to the guards at the gatehouses."
 11: 0x011C [0x23] WAIT_FOR_DIALOG_INTERACTION
 12: 0x011D [0x53] WAIT_SCHEDULER_TASK: Wait for scheduler "sl00" with entities [Perfaumand (ID: 17731611/0x010E901B), Perfaumand (ID: 17731611/0x010E901B)]
 13: 0x012A [0x45] LOAD_SCHEDULED_TASK: Load scheduler "fdo2" with entities [LocalPlayer, LocalPlayer], work=[200*, 0*]
 14: 0x013B [0x55] WAIT_LOAD_SCHEDULER: Wait for scheduler "fdo2" with entities [LocalPlayer, LocalPlayer], work=200*
 15: 0x014A [0x46] CAMERA_CONTROL: Restore default settings
 16: 0x014C [0x45] LOAD_SCHEDULED_TASK: Load scheduler "fdi2" with entities [LocalPlayer, LocalPlayer], work=[200*, 0*]
 17: 0x015D [0x21] END_EVENT
 18: 0x015E [0x00] END_REQSTACK()
```

### Event 50

#### Metadata

| Field        | Value     |
|--------------|-----------|
| Entrypoint   | 0x015F    |
| Data Size    | 151 bytes |
| Instructions | 19        |

```
      00 01 02 03 04 05 06 07  08 09 0A 0B 0C 0D 0E 0F
      -- -- -- -- -- -- -- --  -- -- -- -- -- -- -- --
0150:                                               42                 B
0160: 46 01 4A 1B 90 0E 01 F0  FF FF 7F 1C 0E 80 45 0F  F.J...........E.
0170: 80 F0 FF FF 7F F0 FF FF  7F 77 30 30 30 03 80 55  .........w000..U
0180: 0F 80 F0 FF FF 7F F0 FF  FF 7F 77 30 30 30 6F 76  ..........w000ov
0190: 1B 90 0E 01 4A F0 FF FF  7F 1B 90 0E 01 66 10 80  ....J........f..
01A0: 1B 90 0E 01 1B 90 0E 01  73 6C 30 30 2B 1B 90 0E  ........sl00+...
01B0: 01 13 80 23 53 1B 90 0E  01 1B 90 0E 01 73 6C 30  ...#S........sl0
01C0: 30 45 12 80 F0 FF FF 7F  F0 FF FF 7F 66 64 6F 32  0E..........fdo2
01D0: 03 80 55 12 80 F0 FF FF  7F F0 FF FF 7F 66 64 6F  ..U..........fdo
01E0: 32 46 00 45 12 80 F0 FF  FF 7F F0 FF FF 7F 66 64  2F.E..........fd
01F0: 69 32 03 80 21 00                                 i2..!.          
```

#### Opcodes

```
  0: 0x015F [0x42] SET_CLI_EVENT_CANCEL_DATA()
  1: 0x0160 [0x46] CAMERA_CONTROL: Disable user control
  2: 0x0162 [0x4A] Perfaumand (ID: 17731611/0x010E901B) looks at LocalPlayer
  3: 0x016B [0x1C] WAIT(10* ticks)
  4: 0x016E [0x45] LOAD_SCHEDULED_TASK: Load scheduler "w000" with entities [LocalPlayer, LocalPlayer], work=[242*, 0*]
  5: 0x017F [0x55] WAIT_LOAD_SCHEDULER: Wait for scheduler "w000" with entities [LocalPlayer, LocalPlayer], work=242*
  6: 0x018E [0x6F] WAIT_FRAME_DELAY: Yield until WaitTime reaches zero
  7: 0x018F [0x76] CHECK_ENTITY_RENDER_FLAGS: Wait until Perfaumand (ID: 17731611/0x010E901B) Render.Flags0 and Render.Flags3 conditions are met
  8: 0x0194 [0x4A] LocalPlayer looks at Perfaumand (ID: 17731611/0x010E901B)
  9: 0x019D [0x66] LOAD_EXT_SCHEDULER_MAIN: Load scheduler "sl00" with entities [Perfaumand (ID: 17731611/0x010E901B), Perfaumand (ID: 17731611/0x010E901B)], work=21*
 10: 0x01AC [0x2B] Perfaumand (ID: 17731611/0x010E901B) [6783*]:
    → "Prince Trion is preparing for the journey to King Ranperre's Tomb. He asked me to tell you to travel there and purge the area of any monsters before they arrive."
 11: 0x01B3 [0x23] WAIT_FOR_DIALOG_INTERACTION
 12: 0x01B4 [0x53] WAIT_SCHEDULER_TASK: Wait for scheduler "sl00" with entities [Perfaumand (ID: 17731611/0x010E901B), Perfaumand (ID: 17731611/0x010E901B)]
 13: 0x01C1 [0x45] LOAD_SCHEDULED_TASK: Load scheduler "fdo2" with entities [LocalPlayer, LocalPlayer], work=[200*, 0*]
 14: 0x01D2 [0x55] WAIT_LOAD_SCHEDULER: Wait for scheduler "fdo2" with entities [LocalPlayer, LocalPlayer], work=200*
 15: 0x01E1 [0x46] CAMERA_CONTROL: Restore default settings
 16: 0x01E3 [0x45] LOAD_SCHEDULED_TASK: Load scheduler "fdi2" with entities [LocalPlayer, LocalPlayer], work=[200*, 0*]
 17: 0x01F4 [0x21] END_EVENT
 18: 0x01F5 [0x00] END_REQSTACK()
```

### Event 49

#### Metadata

| Field        | Value     |
|--------------|-----------|
| Entrypoint   | 0x01F6    |
| Data Size    | 151 bytes |
| Instructions | 19        |

```
      00 01 02 03 04 05 06 07  08 09 0A 0B 0C 0D 0E 0F
      -- -- -- -- -- -- -- --  -- -- -- -- -- -- -- --
01F0:                   42 46  01 4A 1B 90 0E 01 F0 FF        BF.J......
0200: FF 7F 1C 0E 80 45 0F 80  F0 FF FF 7F F0 FF FF 7F  .....E..........
0210: 77 30 30 30 03 80 55 0F  80 F0 FF FF 7F F0 FF FF  w000..U.........
0220: 7F 77 30 30 30 6F 76 1B  90 0E 01 4A F0 FF FF 7F  .w000ov....J....
0230: 1B 90 0E 01 66 10 80 1B  90 0E 01 1B 90 0E 01 73  ....f..........s
0240: 6C 30 30 2B 1B 90 0E 01  14 80 23 53 1B 90 0E 01  l00+......#S....
0250: 1B 90 0E 01 73 6C 30 30  45 12 80 F0 FF FF 7F F0  ....sl00E.......
0260: FF FF 7F 66 64 6F 32 03  80 55 12 80 F0 FF FF 7F  ...fdo2..U......
0270: F0 FF FF 7F 66 64 6F 32  46 00 45 12 80 F0 FF FF  ....fdo2F.E.....
0280: 7F F0 FF FF 7F 66 64 69  32 03 80 21 00           .....fdi2..!.   
```

#### Opcodes

```
  0: 0x01F6 [0x42] SET_CLI_EVENT_CANCEL_DATA()
  1: 0x01F7 [0x46] CAMERA_CONTROL: Disable user control
  2: 0x01F9 [0x4A] Perfaumand (ID: 17731611/0x010E901B) looks at LocalPlayer
  3: 0x0202 [0x1C] WAIT(10* ticks)
  4: 0x0205 [0x45] LOAD_SCHEDULED_TASK: Load scheduler "w000" with entities [LocalPlayer, LocalPlayer], work=[242*, 0*]
  5: 0x0216 [0x55] WAIT_LOAD_SCHEDULER: Wait for scheduler "w000" with entities [LocalPlayer, LocalPlayer], work=242*
  6: 0x0225 [0x6F] WAIT_FRAME_DELAY: Yield until WaitTime reaches zero
  7: 0x0226 [0x76] CHECK_ENTITY_RENDER_FLAGS: Wait until Perfaumand (ID: 17731611/0x010E901B) Render.Flags0 and Render.Flags3 conditions are met
  8: 0x022B [0x4A] LocalPlayer looks at Perfaumand (ID: 17731611/0x010E901B)
  9: 0x0234 [0x66] LOAD_EXT_SCHEDULER_MAIN: Load scheduler "sl00" with entities [Perfaumand (ID: 17731611/0x010E901B), Perfaumand (ID: 17731611/0x010E901B)], work=21*
 10: 0x0243 [0x2B] Perfaumand (ID: 17731611/0x010E901B) [6785*]:
    → "Prince Trion has left a message with me: "Deliver your report to the guards at the gatehouse.""
 11: 0x024A [0x23] WAIT_FOR_DIALOG_INTERACTION
 12: 0x024B [0x53] WAIT_SCHEDULER_TASK: Wait for scheduler "sl00" with entities [Perfaumand (ID: 17731611/0x010E901B), Perfaumand (ID: 17731611/0x010E901B)]
 13: 0x0258 [0x45] LOAD_SCHEDULED_TASK: Load scheduler "fdo2" with entities [LocalPlayer, LocalPlayer], work=[200*, 0*]
 14: 0x0269 [0x55] WAIT_LOAD_SCHEDULER: Wait for scheduler "fdo2" with entities [LocalPlayer, LocalPlayer], work=200*
 15: 0x0278 [0x46] CAMERA_CONTROL: Restore default settings
 16: 0x027A [0x45] LOAD_SCHEDULED_TASK: Load scheduler "fdi2" with entities [LocalPlayer, LocalPlayer], work=[200*, 0*]
 17: 0x028B [0x21] END_EVENT
 18: 0x028C [0x00] END_REQSTACK()
```

### Event 2

#### Metadata

| Field        | Value     |
|--------------|-----------|
| Entrypoint   | 0x028D    |
| Data Size    | 151 bytes |
| Instructions | 19        |

```
      00 01 02 03 04 05 06 07  08 09 0A 0B 0C 0D 0E 0F
      -- -- -- -- -- -- -- --  -- -- -- -- -- -- -- --
0280:                                         42 46 01               BF.
0290: 4A 1B 90 0E 01 F0 FF FF  7F 1C 0E 80 45 0F 80 F0  J...........E...
02A0: FF FF 7F F0 FF FF 7F 77  30 30 30 03 80 55 0F 80  .......w000..U..
02B0: F0 FF FF 7F F0 FF FF 7F  77 30 30 30 6F 76 1B 90  ........w000ov..
02C0: 0E 01 4A F0 FF FF 7F 1B  90 0E 01 66 10 80 1B 90  ..J........f....
02D0: 0E 01 1B 90 0E 01 73 6C  30 30 2B 1B 90 0E 01 15  ......sl00+.....
02E0: 80 23 53 1B 90 0E 01 1B  90 0E 01 73 6C 30 30 45  .#S........sl00E
02F0: 12 80 F0 FF FF 7F F0 FF  FF 7F 66 64 6F 32 03 80  ..........fdo2..
0300: 55 12 80 F0 FF FF 7F F0  FF FF 7F 66 64 6F 32 46  U..........fdo2F
0310: 00 45 12 80 F0 FF FF 7F  F0 FF FF 7F 66 64 69 32  .E..........fdi2
0320: 03 80 21 00                                       ..!.            
```

#### Opcodes

```
  0: 0x028D [0x42] SET_CLI_EVENT_CANCEL_DATA()
  1: 0x028E [0x46] CAMERA_CONTROL: Disable user control
  2: 0x0290 [0x4A] Perfaumand (ID: 17731611/0x010E901B) looks at LocalPlayer
  3: 0x0299 [0x1C] WAIT(10* ticks)
  4: 0x029C [0x45] LOAD_SCHEDULED_TASK: Load scheduler "w000" with entities [LocalPlayer, LocalPlayer], work=[242*, 0*]
  5: 0x02AD [0x55] WAIT_LOAD_SCHEDULER: Wait for scheduler "w000" with entities [LocalPlayer, LocalPlayer], work=242*
  6: 0x02BC [0x6F] WAIT_FRAME_DELAY: Yield until WaitTime reaches zero
  7: 0x02BD [0x76] CHECK_ENTITY_RENDER_FLAGS: Wait until Perfaumand (ID: 17731611/0x010E901B) Render.Flags0 and Render.Flags3 conditions are met
  8: 0x02C2 [0x4A] LocalPlayer looks at Perfaumand (ID: 17731611/0x010E901B)
  9: 0x02CB [0x66] LOAD_EXT_SCHEDULER_MAIN: Load scheduler "sl00" with entities [Perfaumand (ID: 17731611/0x010E901B), Perfaumand (ID: 17731611/0x010E901B)], work=21*
 10: 0x02DA [0x2B] Perfaumand (ID: 17731611/0x010E901B) [7805*]:
    → "Prince Trion has departed for Fei'Yin. May the grace of the Goddess bring victory to the knights of the Kingdom!"
 11: 0x02E1 [0x23] WAIT_FOR_DIALOG_INTERACTION
 12: 0x02E2 [0x53] WAIT_SCHEDULER_TASK: Wait for scheduler "sl00" with entities [Perfaumand (ID: 17731611/0x010E901B), Perfaumand (ID: 17731611/0x010E901B)]
 13: 0x02EF [0x45] LOAD_SCHEDULED_TASK: Load scheduler "fdo2" with entities [LocalPlayer, LocalPlayer], work=[200*, 0*]
 14: 0x0300 [0x55] WAIT_LOAD_SCHEDULER: Wait for scheduler "fdo2" with entities [LocalPlayer, LocalPlayer], work=200*
 15: 0x030F [0x46] CAMERA_CONTROL: Restore default settings
 16: 0x0311 [0x45] LOAD_SCHEDULED_TASK: Load scheduler "fdi2" with entities [LocalPlayer, LocalPlayer], work=[200*, 0*]
 17: 0x0322 [0x21] END_EVENT
 18: 0x0323 [0x00] END_REQSTACK()
```

### Event 7

#### Metadata

| Field        | Value     |
|--------------|-----------|
| Entrypoint   | 0x0324    |
| Data Size    | 151 bytes |
| Instructions | 19        |

```
      00 01 02 03 04 05 06 07  08 09 0A 0B 0C 0D 0E 0F
      -- -- -- -- -- -- -- --  -- -- -- -- -- -- -- --
0320:             42 46 01 4A  1B 90 0E 01 F0 FF FF 7F      BF.J........
0330: 1C 0E 80 45 0F 80 F0 FF  FF 7F F0 FF FF 7F 77 30  ...E..........w0
0340: 30 30 03 80 55 0F 80 F0  FF FF 7F F0 FF FF 7F 77  00..U..........w
0350: 30 30 30 6F 76 1B 90 0E  01 4A F0 FF FF 7F 1B 90  000ov....J......
0360: 0E 01 66 10 80 1B 90 0E  01 1B 90 0E 01 73 6C 30  ..f..........sl0
0370: 30 2B 1B 90 0E 01 16 80  23 53 1B 90 0E 01 1B 90  0+......#S......
0380: 0E 01 73 6C 30 30 45 12  80 F0 FF FF 7F F0 FF FF  ..sl00E.........
0390: 7F 66 64 6F 32 03 80 55  12 80 F0 FF FF 7F F0 FF  .fdo2..U........
03A0: FF 7F 66 64 6F 32 46 00  45 12 80 F0 FF FF 7F F0  ..fdo2F.E.......
03B0: FF FF 7F 66 64 69 32 03  80 21 00                 ...fdi2..!.     
```

#### Opcodes

```
  0: 0x0324 [0x42] SET_CLI_EVENT_CANCEL_DATA()
  1: 0x0325 [0x46] CAMERA_CONTROL: Disable user control
  2: 0x0327 [0x4A] Perfaumand (ID: 17731611/0x010E901B) looks at LocalPlayer
  3: 0x0330 [0x1C] WAIT(10* ticks)
  4: 0x0333 [0x45] LOAD_SCHEDULED_TASK: Load scheduler "w000" with entities [LocalPlayer, LocalPlayer], work=[242*, 0*]
  5: 0x0344 [0x55] WAIT_LOAD_SCHEDULER: Wait for scheduler "w000" with entities [LocalPlayer, LocalPlayer], work=242*
  6: 0x0353 [0x6F] WAIT_FRAME_DELAY: Yield until WaitTime reaches zero
  7: 0x0354 [0x76] CHECK_ENTITY_RENDER_FLAGS: Wait until Perfaumand (ID: 17731611/0x010E901B) Render.Flags0 and Render.Flags3 conditions are met
  8: 0x0359 [0x4A] LocalPlayer looks at Perfaumand (ID: 17731611/0x010E901B)
  9: 0x0362 [0x66] LOAD_EXT_SCHEDULER_MAIN: Load scheduler "sl00" with entities [Perfaumand (ID: 17731611/0x010E901B), Perfaumand (ID: 17731611/0x010E901B)], work=21*
 10: 0x0371 [0x2B] Perfaumand (ID: 17731611/0x010E901B) [7807*]:
    → "Prince Trion has returned safely and is currently awaiting your arrival in the Audience Chamber."
 11: 0x0378 [0x23] WAIT_FOR_DIALOG_INTERACTION
 12: 0x0379 [0x53] WAIT_SCHEDULER_TASK: Wait for scheduler "sl00" with entities [Perfaumand (ID: 17731611/0x010E901B), Perfaumand (ID: 17731611/0x010E901B)]
 13: 0x0386 [0x45] LOAD_SCHEDULED_TASK: Load scheduler "fdo2" with entities [LocalPlayer, LocalPlayer], work=[200*, 0*]
 14: 0x0397 [0x55] WAIT_LOAD_SCHEDULER: Wait for scheduler "fdo2" with entities [LocalPlayer, LocalPlayer], work=200*
 15: 0x03A6 [0x46] CAMERA_CONTROL: Restore default settings
 16: 0x03A8 [0x45] LOAD_SCHEDULED_TASK: Load scheduler "fdi2" with entities [LocalPlayer, LocalPlayer], work=[200*, 0*]
 17: 0x03B9 [0x21] END_EVENT
 18: 0x03BA [0x00] END_REQSTACK()
```

### Event 553

#### Metadata

| Field        | Value      |
|--------------|------------|
| Entrypoint   | 0x03BB     |
| Data Size    | 1389 bytes |
| Instructions | 181        |

```
      00 01 02 03 04 05 06 07  08 09 0A 0B 0C 0D 0E 0F
      -- -- -- -- -- -- -- --  -- -- -- -- -- -- -- --
03B0:                                   42 46 01 45 12             BF.E.
03C0: 80 F8 FF FF 7F F8 FF FF  7F 66 64 6F 31 03 80 1C  .........fdo1...
03D0: 05 80 38 17 80 29 08 F0  FF FF 7F 81 75 00 18 80  ..8..)......u...
03E0: 75 01 4E 00 03 90 0E 01  80 03 90 0E 01 29 0B F0  u.N..........)..
03F0: FF FF 7F 76 29 0B 03 90  0E 01 57 29 08 03 90 0E  ...v).....W)....
0400: 01 49 29 08 03 90 0E 01  4A 79 00 03 90 0E 01 F0  .I).....Jy......
0410: FF FF 7F 4C 27 0B F0 FF  FF 7F 79 1C 05 80 45 19  ...L'.....y...E.
0420: 80 F8 FF FF 7F F8 FF FF  7F 73 30 30 32 03 80 45  .........s002..E
0430: 12 80 F8 FF FF 7F F8 FF  FF 7F 66 64 69 31 03 80  ..........fdi1..
0440: 1C 0A 80 29 08 03 90 0E  01 4B 29 08 03 90 0E 01  ...).....K).....
0450: 4C 4A 03 90 0E 01 F0 FF  FF 7F 6F 76 03 90 0E 01  LJ........ov....
0460: 52 19 80 F8 FF FF 7F F8  FF FF 7F 73 30 30 32 45  R..........s002E
0470: 12 80 F0 FF FF 7F F0 FF  FF 7F 6F 76 6C 31 03 80  ..........ovl1..
0480: 45 19 80 F8 FF FF 7F F8  FF FF 7F 73 30 30 31 03  E..........s001.
0490: 80 27 0B 03 90 0E 01 58  1C 1A 80 4D 52 19 80 F8  .'.....X...MR...
04A0: FF FF 7F F8 FF FF 7F 73  30 30 31 02 09 10 1B 80  .......s001.....
04B0: 00 C7 04 45 19 80 F8 FF  FF 7F F8 FF FF 7F 73 30  ...E..........s0
04C0: 31 32 03 80 01 D8 04 45  19 80 F8 FF FF 7F F8 FF  12.....E........
04D0: FF 7F 73 30 30 33 03 80  1C 1C 80 2B 03 90 0E 01  ..s003.....+....
04E0: 1D 80 23 2A 0B 03 90 0E  01 2A 0B F0 FF FF 7F 29  ..#*.....*.....)
04F0: 08 03 90 0E 01 39 29 0B  03 90 0E 01 5B 29 08 03  .....9).....[)..
0500: 90 0E 01 3A 02 09 10 1B  80 00 1E 05 52 19 80 F8  ...:........R...
0510: FF FF 7F F8 FF FF 7F 73  30 31 32 01 2D 05 52 19  .......s012.-.R.
0520: 80 F8 FF FF 7F F8 FF FF  7F 73 30 30 33 45 19 80  .........s003E..
0530: F8 FF FF 7F F8 FF FF 7F  73 30 30 34 03 80 7B 03  ........s004..{.
0540: 90 0E 01 29 08 03 90 0E  01 3B 29 0B 03 90 0E 01  ...).....;).....
0550: 5C 29 08 03 90 0E 01 3C  52 19 80 F8 FF FF 7F F8  \).....<R.......
0560: FF FF 7F 73 30 30 34 02  09 10 1E 80 00 79 05 27  ...s004......y.'
0570: 0B 1B 90 0E 01 14 01 EC  05 02 09 10 04 80 00 8B  ................
0580: 05 27 0B 1B 90 0E 01 12  01 EC 05 02 09 10 1F 80  .'..............
0590: 00 9D 05 27 0B 1B 90 0E  01 12 01 EC 05 02 09 10  ...'............
05A0: 20 80 00 AF 05 27 0B 1B  90 0E 01 13 01 EC 05 02   ....'..........
05B0: 09 10 21 80 00 C1 05 27  0B 1B 90 0E 01 13 01 EC  ..!....'........
05C0: 05 02 09 10 22 80 00 D3  05 27 0B 1B 90 0E 01 14  ...."....'......
05D0: 01 EC 05 02 09 10 1B 80  00 E5 05 27 0B 1B 90 0E  ...........'....
05E0: 01 11 01 EC 05 27 0B 1B  90 0E 01 10 7B F0 FF FF  .....'......{...
05F0: 7F 79 00 03 90 0E 01 F0  FF FF 7F 29 0B 03 90 0E  .y.........)....
0600: 01 5D 02 09 10 1E 80 00  13 06 2A 0B 1B 90 0E 01  .]........*.....
0610: 01 7F 06 02 09 10 04 80  00 24 06 2A 0B 1B 90 0E  .........$.*....
0620: 01 01 7F 06 02 09 10 1F  80 00 35 06 2A 0B 1B 90  ..........5.*...
0630: 0E 01 01 7F 06 02 09 10  20 80 00 46 06 2A 0B 1B  ........ ..F.*..
0640: 90 0E 01 01 7F 06 02 09  10 21 80 00 57 06 2A 0B  .........!..W.*.
0650: 1B 90 0E 01 01 7F 06 02  09 10 22 80 00 68 06 2A  .........."..h.*
0660: 0B 1B 90 0E 01 01 7F 06  02 09 10 1B 80 00 79 06  ..............y.
0670: 2A 0B 1B 90 0E 01 01 7F  06 2A 0B 1B 90 0E 01 45  *........*.....E
0680: 19 80 F8 FF FF 7F F8 FF  FF 7F 73 30 30 37 03 80  ..........s007..
0690: 27 0B 03 90 0E 01 59 2B  03 90 0E 01 23 80 23 2A  '.....Y+....#.#*
06A0: 0B 03 90 0E 01 52 19 80  F8 FF FF 7F F8 FF FF 7F  .....R..........
06B0: 73 30 30 37 02 09 10 20  80 00 D0 06 45 19 80 F8  s007... ....E...
06C0: FF FF 7F F8 FF FF 7F 73  30 31 37 03 80 01 19 07  .......s017.....
06D0: 02 09 10 21 80 00 EC 06  45 19 80 F8 FF FF 7F F8  ...!....E.......
06E0: FF FF 7F 73 30 31 37 03  80 01 19 07 02 09 10 1B  ...s017.........
06F0: 80 00 08 07 45 19 80 F8  FF FF 7F F8 FF FF 7F 73  ....E..........s
0700: 30 31 35 03 80 01 19 07  45 19 80 F8 FF FF 7F F8  015.....E.......
0710: FF FF 7F 73 30 30 38 03  80 4A F0 FF FF 7F 03 90  ...s008..J......
0720: 0E 01 4A 03 90 0E 01 F0  FF FF 7F 6F 76 03 90 0E  ..J........ov...
0730: 01 6F 76 F0 FF FF 7F 29  08 03 90 0E 01 41 29 0B  .ov....).....A).
0740: 03 90 0E 01 5F 29 0B 03  90 0E 01 60 29 08 03 90  ...._).....`)...
0750: 0E 01 42 29 08 03 90 0E  01 43 29 08 03 90 0E 01  ..B).....C).....
0760: 44 02 09 10 20 80 00 7B  07 52 19 80 F8 FF FF 7F  D... ..{.R......
0770: F8 FF FF 7F 73 30 31 37  01 BE 07 02 09 10 21 80  ....s017......!.
0780: 00 95 07 52 19 80 F8 FF  FF 7F F8 FF FF 7F 73 30  ...R..........s0
0790: 31 37 01 BE 07 02 09 10  1B 80 00 AF 07 52 19 80  17...........R..
07A0: F8 FF FF 7F F8 FF FF 7F  73 30 31 35 01 BE 07 52  ........s015...R
07B0: 19 80 F8 FF FF 7F F8 FF  FF 7F 73 30 30 38 45 19  ..........s008E.
07C0: 80 F8 FF FF 7F F8 FF FF  7F 73 30 30 39 03 80 7B  .........s009..{
07D0: 03 90 0E 01 29 08 03 90  0E 01 45 29 0B 03 90 0E  ....).....E)....
07E0: 01 61 29 08 03 90 0E 01  46 52 19 80 F8 FF FF 7F  .a).....FR......
07F0: F8 FF FF 7F 73 30 30 39  45 19 80 F8 FF FF 7F F8  ....s009E.......
0800: FF FF 7F 73 30 31 30 03  80 1C 05 80 79 00 03 90  ...s010.....y...
0810: 0E 01 F0 FF FF 7F 29 08  03 90 0E 01 47 29 0B 03  ......).....G)..
0820: 90 0E 01 62 29 08 03 90  0E 01 48 45 12 80 F8 FF  ...b).....HE....
0830: FF 7F F8 FF FF 7F 66 64  6F 31 03 80 1C 24 80 29  ......fdo1...$.)
0840: 0B 03 90 0E 01 67 4A F0  FF FF 7F 03 90 0E 01 6F  .....gJ........o
0850: 76 F0 FF FF 7F 52 19 80  F8 FF FF 7F F8 FF FF 7F  v....R..........
0860: 73 30 31 30 45 19 80 F8  FF FF 7F F8 FF FF 7F 73  s010E..........s
0870: 30 31 31 03 80 45 12 80  F8 FF FF 7F F8 FF FF 7F  011..E..........
0880: 66 64 69 31 03 80 1C 24  80 29 0B 03 90 0E 01 63  fdi1...$.).....c
0890: 52 19 80 F8 FF FF 7F F8  FF FF 7F 73 30 31 31 45  R..........s011E
08A0: 12 80 F0 FF FF 7F F0 FF  FF 7F 6F 76 6C 31 03 80  ..........ovl1..
08B0: 45 19 80 F8 FF FF 7F F8  FF FF 7F 73 30 30 34 03  E..........s004.
08C0: 80 29 08 03 90 0E 01 39  29 0B 03 90 0E 01 64 29  .).....9).....d)
08D0: 08 03 90 0E 01 3A 29 08  03 90 0E 01 3B 29 0B 03  .....:).....;)..
08E0: 90 0E 01 65 29 08 03 90  0E 01 3C 45 12 80 F8 FF  ...e).....<E....
08F0: FF 7F F8 FF FF 7F 66 64  6F 31 03 80 1C 1A 80 52  ......fdo1.....R
0900: 19 80 F8 FF FF 7F F8 FF  FF 7F 73 30 30 34 46 00  ..........s004F.
0910: 1C 12 80 45 12 80 F8 FF  FF 7F F8 FF FF 7F 66 64  ...E..........fd
0920: 69 31 03 80 20 00 21 00                           i1.. .!.        
```

#### Opcodes

```
  0: 0x03BB [0x42] SET_CLI_EVENT_CANCEL_DATA()
  1: 0x03BC [0x46] CAMERA_CONTROL: Disable user control
  2: 0x03BE [0x45] LOAD_SCHEDULED_TASK: Load scheduler "fdo1" with entities [EventEntity, EventEntity], work=[200*, 0*]
  3: 0x03CF [0x1C] WAIT(60* ticks)
  4: 0x03D2 [0x38] SET_CLIENT_EVENT_MODE(mode=19*)
  5: 0x03D5 [0x29] REQ_SET_WAIT(priority=0x08, entity_id=LocalPlayer, tag_num=0x81)
  6: 0x03DC [0x75] LOAD_ROOM(Load indoor room, room=374*)
  7: 0x03E0 [0x75] LOAD_ROOM(No action)
  8: 0x03E2 [0x4E] SET_ENTITY_HIDE_FLAG: Show Trion (ID: 17731587/0x010E9003)
  9: 0x03E8 [0x80] LOAD_WAIT(entity=Trion (ID: 17731587/0x010E9003))
 10: 0x03ED [0x29] REQ_SET_WAIT(priority=0x0B, entity_id=LocalPlayer, tag_num=0x76)
 11: 0x03F4 [0x29] REQ_SET_WAIT(priority=0x0B, entity_id=Trion (ID: 17731587/0x010E9003), tag_num=0x57)
 12: 0x03FB [0x29] REQ_SET_WAIT(priority=0x08, entity_id=Trion (ID: 17731587/0x010E9003), tag_num=0x49)
 13: 0x0402 [0x29] REQ_SET_WAIT(priority=0x08, entity_id=Trion (ID: 17731587/0x010E9003), tag_num=0x4A)
 14: 0x0409 [0x79] Trion (ID: 17731587/0x010E9003) looks at LocalPlayer (Basic look)
 15: 0x0413 [0x4C] EventEntity->StatusEvent = 8 // Open door
 16: 0x0414 [0x27] REQ_SET(priority=0x0B, entity_id=LocalPlayer, tag_num=0x79)
 17: 0x041B [0x1C] WAIT(60* ticks)
 18: 0x041E [0x45] LOAD_SCHEDULED_TASK: Load scheduler "s002" with entities [EventEntity, EventEntity], work=[49*, 0*]
 19: 0x042F [0x45] LOAD_SCHEDULED_TASK: Load scheduler "fdi1" with entities [EventEntity, EventEntity], work=[200*, 0*]
 20: 0x0440 [0x1C] WAIT(90* ticks)
 21: 0x0443 [0x29] REQ_SET_WAIT(priority=0x08, entity_id=Trion (ID: 17731587/0x010E9003), tag_num=0x4B)
 22: 0x044A [0x29] REQ_SET_WAIT(priority=0x08, entity_id=Trion (ID: 17731587/0x010E9003), tag_num=0x4C)
 23: 0x0451 [0x4A] Trion (ID: 17731587/0x010E9003) looks at LocalPlayer
 24: 0x045A [0x6F] WAIT_FRAME_DELAY: Yield until WaitTime reaches zero
 25: 0x045B [0x76] CHECK_ENTITY_RENDER_FLAGS: Wait until Trion (ID: 17731587/0x010E9003) Render.Flags0 and Render.Flags3 conditions are met
 26: 0x0460 [0x52] END_LOAD_SCHEDULER: End scheduler "s002" with entities [EventEntity, EventEntity], work=49*
 27: 0x046F [0x45] LOAD_SCHEDULED_TASK: Load scheduler "ovl1" with entities [LocalPlayer, LocalPlayer], work=[200*, 0*]
 28: 0x0480 [0x45] LOAD_SCHEDULED_TASK: Load scheduler "s001" with entities [EventEntity, EventEntity], work=[49*, 0*]
 29: 0x0491 [0x27] REQ_SET(priority=0x0B, entity_id=Trion (ID: 17731587/0x010E9003), tag_num=0x58)
 30: 0x0498 [0x1C] WAIT(120* ticks)
 31: 0x049B [0x4D] EventEntity->StatusEvent = 9 // Close door
 32: 0x049C [0x52] END_LOAD_SCHEDULER: End scheduler "s001" with entities [EventEntity, EventEntity], work=49*
 33: 0x04AB [0x02] IF !(Work_Zone[9] == 8*) GOTO 0x04C7
 34: 0x04B3 [0x45] LOAD_SCHEDULED_TASK: Load scheduler "s012" with entities [EventEntity, EventEntity], work=[49*, 0*]
 35: 0x04C4 [0x01] GOTO 0x04D8
 36: 0x04C7 [0x45] LOAD_SCHEDULED_TASK: Load scheduler "s003" with entities [EventEntity, EventEntity], work=[49*, 0*]

SUBROUTINE_04D8:
 37: 0x04D8 [0x1C] WAIT(50* ticks)
 38: 0x04DB [0x2B] Trion (ID: 17731587/0x010E9003) [7605*]:
    → "<Player>! Many are those who speak of your triumphs in the name of San d'Oria!"
 39: 0x04E2 [0x23] WAIT_FOR_DIALOG_INTERACTION
 40: 0x04E3 [0x2A] GET_REQ_LEVEL(level=11, entity_id=Trion (ID: 17731587/0x010E9003))
 41: 0x04E9 [0x2A] GET_REQ_LEVEL(level=11, entity_id=LocalPlayer)
 42: 0x04EF [0x29] REQ_SET_WAIT(priority=0x08, entity_id=Trion (ID: 17731587/0x010E9003), tag_num=0x39)
 43: 0x04F6 [0x29] REQ_SET_WAIT(priority=0x0B, entity_id=Trion (ID: 17731587/0x010E9003), tag_num=0x5B)
 44: 0x04FD [0x29] REQ_SET_WAIT(priority=0x08, entity_id=Trion (ID: 17731587/0x010E9003), tag_num=0x3A)
 45: 0x0504 [0x02] IF !(Work_Zone[9] == 8*) GOTO 0x051E
 46: 0x050C [0x52] END_LOAD_SCHEDULER: End scheduler "s012" with entities [EventEntity, EventEntity], work=49*
 47: 0x051B [0x01] GOTO 0x052D
 48: 0x051E [0x52] END_LOAD_SCHEDULER: End scheduler "s003" with entities [EventEntity, EventEntity], work=49*

SUBROUTINE_052D:
 49: 0x052D [0x45] LOAD_SCHEDULED_TASK: Load scheduler "s004" with entities [EventEntity, EventEntity], work=[49*, 0*]
 50: 0x053E [0x7B] Trion (ID: 17731587/0x010E9003) stops talking
 51: 0x0543 [0x29] REQ_SET_WAIT(priority=0x08, entity_id=Trion (ID: 17731587/0x010E9003), tag_num=0x3B)
 52: 0x054A [0x29] REQ_SET_WAIT(priority=0x0B, entity_id=Trion (ID: 17731587/0x010E9003), tag_num=0x5C)
 53: 0x0551 [0x29] REQ_SET_WAIT(priority=0x08, entity_id=Trion (ID: 17731587/0x010E9003), tag_num=0x3C)
 54: 0x0558 [0x52] END_LOAD_SCHEDULER: End scheduler "s004" with entities [EventEntity, EventEntity], work=49*
 55: 0x0567 [0x02] IF !(Work_Zone[9] == 2*) GOTO 0x0579
 56: 0x056F [0x27] REQ_SET(priority=0x0B, entity_id=Perfaumand (ID: 17731611/0x010E901B), tag_num=0x14)
 57: 0x0576 [0x01] GOTO 0x05EC
 58: 0x0579 [0x02] IF !(Work_Zone[9] == 3*) GOTO 0x058B
 59: 0x0581 [0x27] REQ_SET(priority=0x0B, entity_id=Perfaumand (ID: 17731611/0x010E901B), tag_num=0x12)
 60: 0x0588 [0x01] GOTO 0x05EC
 61: 0x058B [0x02] IF !(Work_Zone[9] == 4*) GOTO 0x059D
 62: 0x0593 [0x27] REQ_SET(priority=0x0B, entity_id=Perfaumand (ID: 17731611/0x010E901B), tag_num=0x12)
 63: 0x059A [0x01] GOTO 0x05EC
 64: 0x059D [0x02] IF !(Work_Zone[9] == 5*) GOTO 0x05AF
 65: 0x05A5 [0x27] REQ_SET(priority=0x0B, entity_id=Perfaumand (ID: 17731611/0x010E901B), tag_num=0x13)
 66: 0x05AC [0x01] GOTO 0x05EC
 67: 0x05AF [0x02] IF !(Work_Zone[9] == 6*) GOTO 0x05C1
 68: 0x05B7 [0x27] REQ_SET(priority=0x0B, entity_id=Perfaumand (ID: 17731611/0x010E901B), tag_num=0x13)
 69: 0x05BE [0x01] GOTO 0x05EC
 70: 0x05C1 [0x02] IF !(Work_Zone[9] == 7*) GOTO 0x05D3
 71: 0x05C9 [0x27] REQ_SET(priority=0x0B, entity_id=Perfaumand (ID: 17731611/0x010E901B), tag_num=0x14)
 72: 0x05D0 [0x01] GOTO 0x05EC
 73: 0x05D3 [0x02] IF !(Work_Zone[9] == 8*) GOTO 0x05E5
 74: 0x05DB [0x27] REQ_SET(priority=0x0B, entity_id=Perfaumand (ID: 17731611/0x010E901B), tag_num=0x11)
 75: 0x05E2 [0x01] GOTO 0x05EC
 76: 0x05E5 [0x27] REQ_SET(priority=0x0B, entity_id=Perfaumand (ID: 17731611/0x010E901B), tag_num=0x10)

SUBROUTINE_05EC:
 77: 0x05EC [0x7B] LocalPlayer stops talking
 78: 0x05F1 [0x79] Trion (ID: 17731587/0x010E9003) looks at LocalPlayer (Basic look)
 79: 0x05FB [0x29] REQ_SET_WAIT(priority=0x0B, entity_id=Trion (ID: 17731587/0x010E9003), tag_num=0x5D)
 80: 0x0602 [0x02] IF !(Work_Zone[9] == 2*) GOTO 0x0613
 81: 0x060A [0x2A] GET_REQ_LEVEL(level=11, entity_id=Perfaumand (ID: 17731611/0x010E901B))
 82: 0x0610 [0x01] GOTO 0x067F
 83: 0x0613 [0x02] IF !(Work_Zone[9] == 3*) GOTO 0x0624
 84: 0x061B [0x2A] GET_REQ_LEVEL(level=11, entity_id=Perfaumand (ID: 17731611/0x010E901B))
 85: 0x0621 [0x01] GOTO 0x067F
 86: 0x0624 [0x02] IF !(Work_Zone[9] == 4*) GOTO 0x0635
 87: 0x062C [0x2A] GET_REQ_LEVEL(level=11, entity_id=Perfaumand (ID: 17731611/0x010E901B))
 88: 0x0632 [0x01] GOTO 0x067F
 89: 0x0635 [0x02] IF !(Work_Zone[9] == 5*) GOTO 0x0646
 90: 0x063D [0x2A] GET_REQ_LEVEL(level=11, entity_id=Perfaumand (ID: 17731611/0x010E901B))
 91: 0x0643 [0x01] GOTO 0x067F
 92: 0x0646 [0x02] IF !(Work_Zone[9] == 6*) GOTO 0x0657
 93: 0x064E [0x2A] GET_REQ_LEVEL(level=11, entity_id=Perfaumand (ID: 17731611/0x010E901B))
 94: 0x0654 [0x01] GOTO 0x067F
 95: 0x0657 [0x02] IF !(Work_Zone[9] == 7*) GOTO 0x0668
 96: 0x065F [0x2A] GET_REQ_LEVEL(level=11, entity_id=Perfaumand (ID: 17731611/0x010E901B))
 97: 0x0665 [0x01] GOTO 0x067F
 98: 0x0668 [0x02] IF !(Work_Zone[9] == 8*) GOTO 0x0679
 99: 0x0670 [0x2A] GET_REQ_LEVEL(level=11, entity_id=Perfaumand (ID: 17731611/0x010E901B))
100: 0x0676 [0x01] GOTO 0x067F
101: 0x0679 [0x2A] GET_REQ_LEVEL(level=11, entity_id=Perfaumand (ID: 17731611/0x010E901B))

SUBROUTINE_067F:
102: 0x067F [0x45] LOAD_SCHEDULED_TASK: Load scheduler "s007" with entities [EventEntity, EventEntity], work=[49*, 0*]
103: 0x0690 [0x27] REQ_SET(priority=0x0B, entity_id=Trion (ID: 17731587/0x010E9003), tag_num=0x59)
104: 0x0697 [0x2B] Trion (ID: 17731587/0x010E9003) [7609*]:
    → "The Royal Knights have but a single purpose: to exterminate the Orcs who ravage our lands!"
105: 0x069E [0x23] WAIT_FOR_DIALOG_INTERACTION
106: 0x069F [0x2A] GET_REQ_LEVEL(level=11, entity_id=Trion (ID: 17731587/0x010E9003))
107: 0x06A5 [0x52] END_LOAD_SCHEDULER: End scheduler "s007" with entities [EventEntity, EventEntity], work=49*
108: 0x06B4 [0x02] IF !(Work_Zone[9] == 5*) GOTO 0x06D0
109: 0x06BC [0x45] LOAD_SCHEDULED_TASK: Load scheduler "s017" with entities [EventEntity, EventEntity], work=[49*, 0*]
110: 0x06CD [0x01] GOTO 0x0719
111: 0x06D0 [0x02] IF !(Work_Zone[9] == 6*) GOTO 0x06EC
112: 0x06D8 [0x45] LOAD_SCHEDULED_TASK: Load scheduler "s017" with entities [EventEntity, EventEntity], work=[49*, 0*]
113: 0x06E9 [0x01] GOTO 0x0719
114: 0x06EC [0x02] IF !(Work_Zone[9] == 8*) GOTO 0x0708
115: 0x06F4 [0x45] LOAD_SCHEDULED_TASK: Load scheduler "s015" with entities [EventEntity, EventEntity], work=[49*, 0*]
116: 0x0705 [0x01] GOTO 0x0719
117: 0x0708 [0x45] LOAD_SCHEDULED_TASK: Load scheduler "s008" with entities [EventEntity, EventEntity], work=[49*, 0*]

SUBROUTINE_0719:
118: 0x0719 [0x4A] LocalPlayer looks at Trion (ID: 17731587/0x010E9003)
119: 0x0722 [0x4A] Trion (ID: 17731587/0x010E9003) looks at LocalPlayer
120: 0x072B [0x6F] WAIT_FRAME_DELAY: Yield until WaitTime reaches zero
121: 0x072C [0x76] CHECK_ENTITY_RENDER_FLAGS: Wait until Trion (ID: 17731587/0x010E9003) Render.Flags0 and Render.Flags3 conditions are met
122: 0x0731 [0x6F] WAIT_FRAME_DELAY: Yield until WaitTime reaches zero
123: 0x0732 [0x76] CHECK_ENTITY_RENDER_FLAGS: Wait until LocalPlayer Render.Flags0 and Render.Flags3 conditions are met
124: 0x0737 [0x29] REQ_SET_WAIT(priority=0x08, entity_id=Trion (ID: 17731587/0x010E9003), tag_num=0x41)
125: 0x073E [0x29] REQ_SET_WAIT(priority=0x0B, entity_id=Trion (ID: 17731587/0x010E9003), tag_num=0x5F)
126: 0x0745 [0x29] REQ_SET_WAIT(priority=0x0B, entity_id=Trion (ID: 17731587/0x010E9003), tag_num=0x60)
127: 0x074C [0x29] REQ_SET_WAIT(priority=0x08, entity_id=Trion (ID: 17731587/0x010E9003), tag_num=0x42)
128: 0x0753 [0x29] REQ_SET_WAIT(priority=0x08, entity_id=Trion (ID: 17731587/0x010E9003), tag_num=0x43)
129: 0x075A [0x29] REQ_SET_WAIT(priority=0x08, entity_id=Trion (ID: 17731587/0x010E9003), tag_num=0x44)
130: 0x0761 [0x02] IF !(Work_Zone[9] == 5*) GOTO 0x077B
131: 0x0769 [0x52] END_LOAD_SCHEDULER: End scheduler "s017" with entities [EventEntity, EventEntity], work=49*
132: 0x0778 [0x01] GOTO 0x07BE
133: 0x077B [0x02] IF !(Work_Zone[9] == 6*) GOTO 0x0795
134: 0x0783 [0x52] END_LOAD_SCHEDULER: End scheduler "s017" with entities [EventEntity, EventEntity], work=49*
135: 0x0792 [0x01] GOTO 0x07BE
136: 0x0795 [0x02] IF !(Work_Zone[9] == 8*) GOTO 0x07AF
137: 0x079D [0x52] END_LOAD_SCHEDULER: End scheduler "s015" with entities [EventEntity, EventEntity], work=49*
138: 0x07AC [0x01] GOTO 0x07BE
139: 0x07AF [0x52] END_LOAD_SCHEDULER: End scheduler "s008" with entities [EventEntity, EventEntity], work=49*

SUBROUTINE_07BE:
140: 0x07BE [0x45] LOAD_SCHEDULED_TASK: Load scheduler "s009" with entities [EventEntity, EventEntity], work=[49*, 0*]
141: 0x07CF [0x7B] Trion (ID: 17731587/0x010E9003) stops talking
142: 0x07D4 [0x29] REQ_SET_WAIT(priority=0x08, entity_id=Trion (ID: 17731587/0x010E9003), tag_num=0x45)
143: 0x07DB [0x29] REQ_SET_WAIT(priority=0x0B, entity_id=Trion (ID: 17731587/0x010E9003), tag_num=0x61)
144: 0x07E2 [0x29] REQ_SET_WAIT(priority=0x08, entity_id=Trion (ID: 17731587/0x010E9003), tag_num=0x46)
145: 0x07E9 [0x52] END_LOAD_SCHEDULER: End scheduler "s009" with entities [EventEntity, EventEntity], work=49*
146: 0x07F8 [0x45] LOAD_SCHEDULED_TASK: Load scheduler "s010" with entities [EventEntity, EventEntity], work=[49*, 0*]
147: 0x0809 [0x1C] WAIT(60* ticks)
148: 0x080C [0x79] Trion (ID: 17731587/0x010E9003) looks at LocalPlayer (Basic look)
149: 0x0816 [0x29] REQ_SET_WAIT(priority=0x08, entity_id=Trion (ID: 17731587/0x010E9003), tag_num=0x47)
150: 0x081D [0x29] REQ_SET_WAIT(priority=0x0B, entity_id=Trion (ID: 17731587/0x010E9003), tag_num=0x62)
151: 0x0824 [0x29] REQ_SET_WAIT(priority=0x08, entity_id=Trion (ID: 17731587/0x010E9003), tag_num=0x48)
152: 0x082B [0x45] LOAD_SCHEDULED_TASK: Load scheduler "fdo1" with entities [EventEntity, EventEntity], work=[200*, 0*]
153: 0x083C [0x1C] WAIT(100* ticks)
154: 0x083F [0x29] REQ_SET_WAIT(priority=0x0B, entity_id=Trion (ID: 17731587/0x010E9003), tag_num=0x67)
155: 0x0846 [0x4A] LocalPlayer looks at Trion (ID: 17731587/0x010E9003)
156: 0x084F [0x6F] WAIT_FRAME_DELAY: Yield until WaitTime reaches zero
157: 0x0850 [0x76] CHECK_ENTITY_RENDER_FLAGS: Wait until LocalPlayer Render.Flags0 and Render.Flags3 conditions are met
158: 0x0855 [0x52] END_LOAD_SCHEDULER: End scheduler "s010" with entities [EventEntity, EventEntity], work=49*
159: 0x0864 [0x45] LOAD_SCHEDULED_TASK: Load scheduler "s011" with entities [EventEntity, EventEntity], work=[49*, 0*]
160: 0x0875 [0x45] LOAD_SCHEDULED_TASK: Load scheduler "fdi1" with entities [EventEntity, EventEntity], work=[200*, 0*]
161: 0x0886 [0x1C] WAIT(100* ticks)
162: 0x0889 [0x29] REQ_SET_WAIT(priority=0x0B, entity_id=Trion (ID: 17731587/0x010E9003), tag_num=0x63)
163: 0x0890 [0x52] END_LOAD_SCHEDULER: End scheduler "s011" with entities [EventEntity, EventEntity], work=49*
164: 0x089F [0x45] LOAD_SCHEDULED_TASK: Load scheduler "ovl1" with entities [LocalPlayer, LocalPlayer], work=[200*, 0*]
165: 0x08B0 [0x45] LOAD_SCHEDULED_TASK: Load scheduler "s004" with entities [EventEntity, EventEntity], work=[49*, 0*]
166: 0x08C1 [0x29] REQ_SET_WAIT(priority=0x08, entity_id=Trion (ID: 17731587/0x010E9003), tag_num=0x39)
167: 0x08C8 [0x29] REQ_SET_WAIT(priority=0x0B, entity_id=Trion (ID: 17731587/0x010E9003), tag_num=0x64)
168: 0x08CF [0x29] REQ_SET_WAIT(priority=0x08, entity_id=Trion (ID: 17731587/0x010E9003), tag_num=0x3A)
169: 0x08D6 [0x29] REQ_SET_WAIT(priority=0x08, entity_id=Trion (ID: 17731587/0x010E9003), tag_num=0x3B)
170: 0x08DD [0x29] REQ_SET_WAIT(priority=0x0B, entity_id=Trion (ID: 17731587/0x010E9003), tag_num=0x65)
171: 0x08E4 [0x29] REQ_SET_WAIT(priority=0x08, entity_id=Trion (ID: 17731587/0x010E9003), tag_num=0x3C)
172: 0x08EB [0x45] LOAD_SCHEDULED_TASK: Load scheduler "fdo1" with entities [EventEntity, EventEntity], work=[200*, 0*]
173: 0x08FC [0x1C] WAIT(120* ticks)
174: 0x08FF [0x52] END_LOAD_SCHEDULER: End scheduler "s004" with entities [EventEntity, EventEntity], work=49*
175: 0x090E [0x46] CAMERA_CONTROL: Restore default settings
176: 0x0910 [0x1C] WAIT(200* ticks)
177: 0x0913 [0x45] LOAD_SCHEDULED_TASK: Load scheduler "fdi1" with entities [EventEntity, EventEntity], work=[200*, 0*]
178: 0x0924 [0x20] SET_CLI_EVENT_UC_FLAG: Unlock player control
179: 0x0926 [0x21] END_EVENT
180: 0x0927 [0x00] END_REQSTACK()
```

### Event 554

#### Metadata

| Field        | Value     |
|--------------|-----------|
| Entrypoint   | 0x0928    |
| Data Size    | 617 bytes |
| Instructions | 74        |

```
      00 01 02 03 04 05 06 07  08 09 0A 0B 0C 0D 0E 0F
      -- -- -- -- -- -- -- --  -- -- -- -- -- -- -- --
0920:                          42 46 01 45 12 80 F8 FF          BF.E....
0930: FF 7F F8 FF FF 7F 66 64  6F 31 03 80 1C 05 80 38  ......fdo1.....8
0940: 17 80 29 08 F0 FF FF 7F  81 75 00 18 80 75 01 4E  ..)......u...u.N
0950: 00 03 90 0E 01 80 03 90  0E 01 29 0B F0 FF FF 7F  ..........).....
0960: 77 29 0B 03 90 0E 01 67  27 0B 03 90 0E 01 58 45  w).....g'.....XE
0970: 19 80 F8 FF FF 7F F8 FF  FF 7F 73 30 32 30 03 80  ..........s020..
0980: 45 12 80 F8 FF FF 7F F8  FF FF 7F 66 64 69 31 03  E..........fdi1.
0990: 80 2A 0B 03 90 0E 01 29  0B 03 90 0E 01 6B 45 12  .*.....).....kE.
09A0: 80 F8 FF FF 7F F8 FF FF  7F 66 64 6F 31 03 80 1C  .........fdo1...
09B0: 1A 80 29 08 03 90 0E 01  49 29 08 03 90 0E 01 4A  ..).....I).....J
09C0: 45 19 80 F8 FF FF 7F F8  FF FF 7F 73 30 31 31 03  E..........s011.
09D0: 80 45 12 80 F8 FF FF 7F  F8 FF FF 7F 66 64 69 31  .E..........fdi1
09E0: 03 80 1C 25 80 52 19 80  F8 FF FF 7F F8 FF FF 7F  ...%.R..........
09F0: 73 30 31 31 45 12 80 F0  FF FF 7F F0 FF FF 7F 6F  s011E..........o
0A00: 76 6C 31 03 80 45 19 80  F8 FF FF 7F F8 FF FF 7F  vl1..E..........
0A10: 73 30 32 31 03 80 29 08  03 90 0E 01 4B 29 0B 03  s021..).....K)..
0A20: 90 0E 01 6C 29 08 03 90  0E 01 4C 27 0B 03 90 0E  ...l).....L'....
0A30: 01 6A 2B 03 90 0E 01 26  80 23 2A 0B 03 90 0E 01  .j+....&.#*.....
0A40: 52 19 80 F8 FF FF 7F F8  FF FF 7F 73 30 32 31 45  R..........s021E
0A50: 19 80 F8 FF FF 7F F8 FF  FF 7F 73 30 32 32 03 80  ..........s022..
0A60: 29 0B 03 90 0E 01 68 4C  52 19 80 F8 FF FF 7F F8  ).....hLR.......
0A70: FF FF 7F 73 30 32 32 45  12 80 F0 FF FF 7F F0 FF  ...s022E........
0A80: FF 7F 6F 76 6C 31 03 80  45 19 80 F8 FF FF 7F F8  ..ovl1..E.......
0A90: FF FF 7F 73 30 32 33 03  80 29 0B F0 FF FF 7F 78  ...s023..).....x
0AA0: 27 0B 1B 90 0E 01 16 29  0B 03 90 0E 01 6E 2A 0B  '......).....n*.
0AB0: 1B 90 0E 01 4A F0 FF FF  7F 03 90 0E 01 4B 03 90  ....J........K..
0AC0: 0E 01 03 80 29 0B 1B 90  0E 01 17 6F 76 03 90 0E  ....)......ov...
0AD0: 01 6F 76 F0 FF FF 7F 45  12 80 F8 FF FF 7F F8 FF  .ov....E........
0AE0: FF 7F 66 64 6F 31 03 80  1C 05 80 52 19 80 F8 FF  ..fdo1.....R....
0AF0: FF 7F F8 FF FF 7F 73 30  32 33 45 19 80 F8 FF FF  ......s023E.....
0B00: 7F F8 FF FF 7F 73 30 32  34 03 80 45 12 80 F8 FF  .....s024..E....
0B10: FF 7F F8 FF FF 7F 66 64  69 31 03 80 79 00 03 90  ......fdi1..y...
0B20: 0E 01 F0 FF FF 7F 29 0B  03 90 0E 01 6F 7B 03 90  ......).....o{..
0B30: 0E 01 27 0B 03 90 0E 01  69 1C 05 80 45 12 80 F8  ..'.....i...E...
0B40: FF FF 7F F8 FF FF 7F 66  64 6F 31 03 80 1C 1A 80  .......fdo1.....
0B50: 4D 1C 1A 80 2A 0B 03 90  0E 01 52 19 80 F8 FF FF  M...*.....R.....
0B60: 7F F8 FF FF 7F 73 30 32  34 46 00 45 12 80 F8 FF  .....s024F.E....
0B70: FF 7F F8 FF FF 7F 66 64  69 31 03 80 45 27 80 F0  ......fdi1..E'..
0B80: FF FF 7F F0 FF FF 7F 71  73 74 63 03 80 20 00 21  .......qstc.. .!
0B90: 00                                                .               
```

#### Opcodes

```
  0: 0x0928 [0x42] SET_CLI_EVENT_CANCEL_DATA()
  1: 0x0929 [0x46] CAMERA_CONTROL: Disable user control
  2: 0x092B [0x45] LOAD_SCHEDULED_TASK: Load scheduler "fdo1" with entities [EventEntity, EventEntity], work=[200*, 0*]
  3: 0x093C [0x1C] WAIT(60* ticks)
  4: 0x093F [0x38] SET_CLIENT_EVENT_MODE(mode=19*)
  5: 0x0942 [0x29] REQ_SET_WAIT(priority=0x08, entity_id=LocalPlayer, tag_num=0x81)
  6: 0x0949 [0x75] LOAD_ROOM(Load indoor room, room=374*)
  7: 0x094D [0x75] LOAD_ROOM(No action)
  8: 0x094F [0x4E] SET_ENTITY_HIDE_FLAG: Show Trion (ID: 17731587/0x010E9003)
  9: 0x0955 [0x80] LOAD_WAIT(entity=Trion (ID: 17731587/0x010E9003))
 10: 0x095A [0x29] REQ_SET_WAIT(priority=0x0B, entity_id=LocalPlayer, tag_num=0x77)
 11: 0x0961 [0x29] REQ_SET_WAIT(priority=0x0B, entity_id=Trion (ID: 17731587/0x010E9003), tag_num=0x67)
 12: 0x0968 [0x27] REQ_SET(priority=0x0B, entity_id=Trion (ID: 17731587/0x010E9003), tag_num=0x58)
 13: 0x096F [0x45] LOAD_SCHEDULED_TASK: Load scheduler "s020" with entities [EventEntity, EventEntity], work=[49*, 0*]
 14: 0x0980 [0x45] LOAD_SCHEDULED_TASK: Load scheduler "fdi1" with entities [EventEntity, EventEntity], work=[200*, 0*]
 15: 0x0991 [0x2A] GET_REQ_LEVEL(level=11, entity_id=Trion (ID: 17731587/0x010E9003))
 16: 0x0997 [0x29] REQ_SET_WAIT(priority=0x0B, entity_id=Trion (ID: 17731587/0x010E9003), tag_num=0x6B)
 17: 0x099E [0x45] LOAD_SCHEDULED_TASK: Load scheduler "fdo1" with entities [EventEntity, EventEntity], work=[200*, 0*]
 18: 0x09AF [0x1C] WAIT(120* ticks)
 19: 0x09B2 [0x29] REQ_SET_WAIT(priority=0x08, entity_id=Trion (ID: 17731587/0x010E9003), tag_num=0x49)
 20: 0x09B9 [0x29] REQ_SET_WAIT(priority=0x08, entity_id=Trion (ID: 17731587/0x010E9003), tag_num=0x4A)
 21: 0x09C0 [0x45] LOAD_SCHEDULED_TASK: Load scheduler "s011" with entities [EventEntity, EventEntity], work=[49*, 0*]
 22: 0x09D1 [0x45] LOAD_SCHEDULED_TASK: Load scheduler "fdi1" with entities [EventEntity, EventEntity], work=[200*, 0*]
 23: 0x09E2 [0x1C] WAIT(150* ticks)
 24: 0x09E5 [0x52] END_LOAD_SCHEDULER: End scheduler "s011" with entities [EventEntity, EventEntity], work=49*
 25: 0x09F4 [0x45] LOAD_SCHEDULED_TASK: Load scheduler "ovl1" with entities [LocalPlayer, LocalPlayer], work=[200*, 0*]
 26: 0x0A05 [0x45] LOAD_SCHEDULED_TASK: Load scheduler "s021" with entities [EventEntity, EventEntity], work=[49*, 0*]
 27: 0x0A16 [0x29] REQ_SET_WAIT(priority=0x08, entity_id=Trion (ID: 17731587/0x010E9003), tag_num=0x4B)
 28: 0x0A1D [0x29] REQ_SET_WAIT(priority=0x0B, entity_id=Trion (ID: 17731587/0x010E9003), tag_num=0x6C)
 29: 0x0A24 [0x29] REQ_SET_WAIT(priority=0x08, entity_id=Trion (ID: 17731587/0x010E9003), tag_num=0x4C)
 30: 0x0A2B [0x27] REQ_SET(priority=0x0B, entity_id=Trion (ID: 17731587/0x010E9003), tag_num=0x6A)
 31: 0x0A32 [0x2B] Trion (ID: 17731587/0x010E9003) [7619*]:
    → "No, but wait... This matter requires more than Royal Knights... Confound it! We need Temple Knights as well!"
 32: 0x0A39 [0x23] WAIT_FOR_DIALOG_INTERACTION
 33: 0x0A3A [0x2A] GET_REQ_LEVEL(level=11, entity_id=Trion (ID: 17731587/0x010E9003))
 34: 0x0A40 [0x52] END_LOAD_SCHEDULER: End scheduler "s021" with entities [EventEntity, EventEntity], work=49*
 35: 0x0A4F [0x45] LOAD_SCHEDULED_TASK: Load scheduler "s022" with entities [EventEntity, EventEntity], work=[49*, 0*]
 36: 0x0A60 [0x29] REQ_SET_WAIT(priority=0x0B, entity_id=Trion (ID: 17731587/0x010E9003), tag_num=0x68)
 37: 0x0A67 [0x4C] EventEntity->StatusEvent = 8 // Open door
 38: 0x0A68 [0x52] END_LOAD_SCHEDULER: End scheduler "s022" with entities [EventEntity, EventEntity], work=49*
 39: 0x0A77 [0x45] LOAD_SCHEDULED_TASK: Load scheduler "ovl1" with entities [LocalPlayer, LocalPlayer], work=[200*, 0*]
 40: 0x0A88 [0x45] LOAD_SCHEDULED_TASK: Load scheduler "s023" with entities [EventEntity, EventEntity], work=[49*, 0*]
 41: 0x0A99 [0x29] REQ_SET_WAIT(priority=0x0B, entity_id=LocalPlayer, tag_num=0x78)
 42: 0x0AA0 [0x27] REQ_SET(priority=0x0B, entity_id=Perfaumand (ID: 17731611/0x010E901B), tag_num=0x16)
 43: 0x0AA7 [0x29] REQ_SET_WAIT(priority=0x0B, entity_id=Trion (ID: 17731587/0x010E9003), tag_num=0x6E)
 44: 0x0AAE [0x2A] GET_REQ_LEVEL(level=11, entity_id=Perfaumand (ID: 17731611/0x010E901B))
 45: 0x0AB4 [0x4A] LocalPlayer looks at Trion (ID: 17731587/0x010E9003)
 46: 0x0ABD [0x4B] UPDATE_ENTITY_YAW(entity=Trion (ID: 17731587/0x010E9003), yaw=0.0°*)
 47: 0x0AC4 [0x29] REQ_SET_WAIT(priority=0x0B, entity_id=Perfaumand (ID: 17731611/0x010E901B), tag_num=0x17)
 48: 0x0ACB [0x6F] WAIT_FRAME_DELAY: Yield until WaitTime reaches zero
 49: 0x0ACC [0x76] CHECK_ENTITY_RENDER_FLAGS: Wait until Trion (ID: 17731587/0x010E9003) Render.Flags0 and Render.Flags3 conditions are met
 50: 0x0AD1 [0x6F] WAIT_FRAME_DELAY: Yield until WaitTime reaches zero
 51: 0x0AD2 [0x76] CHECK_ENTITY_RENDER_FLAGS: Wait until LocalPlayer Render.Flags0 and Render.Flags3 conditions are met
 52: 0x0AD7 [0x45] LOAD_SCHEDULED_TASK: Load scheduler "fdo1" with entities [EventEntity, EventEntity], work=[200*, 0*]
 53: 0x0AE8 [0x1C] WAIT(60* ticks)
 54: 0x0AEB [0x52] END_LOAD_SCHEDULER: End scheduler "s023" with entities [EventEntity, EventEntity], work=49*
 55: 0x0AFA [0x45] LOAD_SCHEDULED_TASK: Load scheduler "s024" with entities [EventEntity, EventEntity], work=[49*, 0*]
 56: 0x0B0B [0x45] LOAD_SCHEDULED_TASK: Load scheduler "fdi1" with entities [EventEntity, EventEntity], work=[200*, 0*]
 57: 0x0B1C [0x79] Trion (ID: 17731587/0x010E9003) looks at LocalPlayer (Basic look)
 58: 0x0B26 [0x29] REQ_SET_WAIT(priority=0x0B, entity_id=Trion (ID: 17731587/0x010E9003), tag_num=0x6F)
 59: 0x0B2D [0x7B] Trion (ID: 17731587/0x010E9003) stops talking
 60: 0x0B32 [0x27] REQ_SET(priority=0x0B, entity_id=Trion (ID: 17731587/0x010E9003), tag_num=0x69)
 61: 0x0B39 [0x1C] WAIT(60* ticks)
 62: 0x0B3C [0x45] LOAD_SCHEDULED_TASK: Load scheduler "fdo1" with entities [EventEntity, EventEntity], work=[200*, 0*]
 63: 0x0B4D [0x1C] WAIT(120* ticks)
 64: 0x0B50 [0x4D] EventEntity->StatusEvent = 9 // Close door
 65: 0x0B51 [0x1C] WAIT(120* ticks)
 66: 0x0B54 [0x2A] GET_REQ_LEVEL(level=11, entity_id=Trion (ID: 17731587/0x010E9003))
 67: 0x0B5A [0x52] END_LOAD_SCHEDULER: End scheduler "s024" with entities [EventEntity, EventEntity], work=49*
 68: 0x0B69 [0x46] CAMERA_CONTROL: Restore default settings
 69: 0x0B6B [0x45] LOAD_SCHEDULED_TASK: Load scheduler "fdi1" with entities [EventEntity, EventEntity], work=[200*, 0*]
 70: 0x0B7C [0x45] LOAD_SCHEDULED_TASK: Load scheduler "qstc" with entities [LocalPlayer, LocalPlayer], work=[201*, 0*]
 71: 0x0B8D [0x20] SET_CLI_EVENT_UC_FLAG: Unlock player control
 72: 0x0B8F [0x21] END_EVENT
 73: 0x0B90 [0x00] END_REQSTACK()
```

### Event 65535.3

#### Metadata

| Field        | Value   |
|--------------|---------|
| Entrypoint   | 0x0B91  |
| Data Size    | 1 bytes |
| Instructions | 1       |

```
      00 01 02 03 04 05 06 07  08 09 0A 0B 0C 0D 0E 0F
      -- -- -- -- -- -- -- --  -- -- -- -- -- -- -- --
0B90:    00                                              .              
```

#### Opcodes

```
  0: 0x0B91 [0x00] END_REQSTACK()
```

### Event 592

#### Metadata

| Field        | Value   |
|--------------|---------|
| Entrypoint   | 0x0B92  |
| Data Size    | 1 bytes |
| Instructions | 1       |

```
      00 01 02 03 04 05 06 07  08 09 0A 0B 0C 0D 0E 0F
      -- -- -- -- -- -- -- --  -- -- -- -- -- -- -- --
0B90:       00                                            .             
```

#### Opcodes

```
  0: 0x0B92 [0x00] END_REQSTACK()
```

### Event 597

#### Metadata

| Field        | Value   |
|--------------|---------|
| Entrypoint   | 0x0B93  |
| Data Size    | 1 bytes |
| Instructions | 1       |

```
      00 01 02 03 04 05 06 07  08 09 0A 0B 0C 0D 0E 0F
      -- -- -- -- -- -- -- --  -- -- -- -- -- -- -- --
0B90:          00                                          .            
```

#### Opcodes

```
  0: 0x0B93 [0x00] END_REQSTACK()
```

### Event 602

#### Metadata

| Field        | Value   |
|--------------|---------|
| Entrypoint   | 0x0B94  |
| Data Size    | 1 bytes |
| Instructions | 1       |

```
      00 01 02 03 04 05 06 07  08 09 0A 0B 0C 0D 0E 0F
      -- -- -- -- -- -- -- --  -- -- -- -- -- -- -- --
0B90:             00                                        .           
```

#### Opcodes

```
  0: 0x0B94 [0x00] END_REQSTACK()
```

### Event 603

#### Metadata

| Field        | Value   |
|--------------|---------|
| Entrypoint   | 0x0B95  |
| Data Size    | 1 bytes |
| Instructions | 1       |

```
      00 01 02 03 04 05 06 07  08 09 0A 0B 0C 0D 0E 0F
      -- -- -- -- -- -- -- --  -- -- -- -- -- -- -- --
0B90:                00                                      .          
```

#### Opcodes

```
  0: 0x0B95 [0x00] END_REQSTACK()
```

### Event 604

#### Metadata

| Field        | Value   |
|--------------|---------|
| Entrypoint   | 0x0B96  |
| Data Size    | 1 bytes |
| Instructions | 1       |

```
      00 01 02 03 04 05 06 07  08 09 0A 0B 0C 0D 0E 0F
      -- -- -- -- -- -- -- --  -- -- -- -- -- -- -- --
0B90:                   00                                    .         
```

#### Opcodes

```
  0: 0x0B96 [0x00] END_REQSTACK()
```

### Event 609

#### Metadata

| Field        | Value   |
|--------------|---------|
| Entrypoint   | 0x0B97  |
| Data Size    | 1 bytes |
| Instructions | 1       |

```
      00 01 02 03 04 05 06 07  08 09 0A 0B 0C 0D 0E 0F
      -- -- -- -- -- -- -- --  -- -- -- -- -- -- -- --
0B90:                      00                                  .        
```

#### Opcodes

```
  0: 0x0B97 [0x00] END_REQSTACK()
```
