# 17731663 - Phaviane

## Common Data

| Field            | Value                         |
|------------------|-------------------------------|
| Zone             | Chateau d'Oraguille (ID: 233) |
| Block Size       | 432 bytes                     |
| Total Events     | 13                            |
| References Count | 26                            |

## List of Events

| Event ID                   | Entrypoint   |   Size |   Instructions |
|----------------------------|--------------|--------|----------------|
| [65535](#event-65535)      | 0x0000       |      1 |              1 |
| [112](#event-112)          | 0x0001       |     16 |              3 |
| [65535.1](#event-655351)   | 0x0011       |     14 |              4 |
| [65535.2](#event-655352)   | 0x001F       |     25 |              5 |
| [65535.3](#event-655353)   | 0x0038       |     13 |              3 |
| [65535.4](#event-655354)   | 0x0045       |      6 |              2 |
| [43](#event-43)            | 0x004B       |     12 |              3 |
| [65535.5](#event-655355)   | 0x0057       |     20 |              6 |
| [65535.6](#event-655356)   | 0x006B       |     36 |              9 |
| [65535.7](#event-655357)   | 0x008F       |     29 |              3 |
| [65535.8](#event-655358)   | 0x00AC       |     29 |              3 |
| [65535.9](#event-655359)   | 0x00C9       |     29 |              3 |
| [65535.10](#event-6553510) | 0x00E6       |     29 |              3 |

## DAT References (imed_data)

|   Index | Hex Value   |   Dec Value |
|---------|-------------|-------------|
|       0 | 0x0103      |         259 |
|       1 | 0x017B      |         379 |
|       2 | 0x0000      |           0 |
|       3 | 0x007A      |         122 |
|       4 | 0x0028      |          40 |
|       5 | 0x04F7      |        1271 |
|       6 | 0x002A      |          42 |
|       7 | 0x000D      |          13 |
|       8 | 0x0132      |         306 |
|       9 | 0xFFFFEADC  |  4294961884 |
|      10 | 0x003C      |          60 |
|      11 | 0x04D7      |        1239 |
|      12 | 0x001B      |          27 |
|      13 | 0xFFFFC84B  |  4294953035 |
|      14 | 0x575F      |       22367 |
|      15 | 0xFFFFF6EB  |  4294964971 |
|      16 | 0x0E41      |        3649 |
|      17 | 0x5A1E      |       23070 |
|      18 | 0xFFFFF90C  |  4294965516 |
|      19 | 0x5669      |       22121 |
|      20 | 0xFFFFF7CF  |  4294965199 |
|      21 | 0x536C      |       21356 |
|      22 | 0xFFFFF2D1  |  4294963921 |
|      23 | 0x4023      |       16419 |
|      24 | 0xFFFFF34C  |  4294964044 |
|      25 | 0x0027      |          39 |

## Events

### Event 65535

#### Metadata

| Field        | Value   |
|--------------|---------|
| Entrypoint   | 0x0000  |
| Data Size    | 1 bytes |
| Instructions | 1       |

```
      00 01 02 03 04 05 06 07  08 09 0A 0B 0C 0D 0E 0F
      -- -- -- -- -- -- -- --  -- -- -- -- -- -- -- --
0000: 00                                                .               
```

#### Opcodes

```
  0: 0x0000 [0x00] END_REQSTACK()
```

### Event 112

#### Metadata

| Field        | Value    |
|--------------|----------|
| Entrypoint   | 0x0001   |
| Data Size    | 16 bytes |
| Instructions | 3        |

```
      00 01 02 03 04 05 06 07  08 09 0A 0B 0C 0D 0E 0F
      -- -- -- -- -- -- -- --  -- -- -- -- -- -- -- --
0000:    94 01 F8 FF FF 7F 37  00 80 01 80 02 80 03 80   ......7........
0010: 00                                                .               
```

#### Opcodes

```
  0: 0x0001 [0x94] EventEntity->Render.Flags3 ^= 0x01
  1: 0x0007 [0x37] UPDATE_EVENT_POSITION_AND_DIR: x=0.259*, z=0.379*, y=0.000*, direction=10.7°*
  2: 0x0010 [0x00] END_REQSTACK()
```

### Event 65535.1

#### Metadata

| Field        | Value    |
|--------------|----------|
| Entrypoint   | 0x0011   |
| Data Size    | 14 bytes |
| Instructions | 4        |

```
      00 01 02 03 04 05 06 07  08 09 0A 0B 0C 0D 0E 0F
      -- -- -- -- -- -- -- --  -- -- -- -- -- -- -- --
0010:    32 04 80 1F 00 05 80  06 80 02 80 1F 01 00      2............. 
```

#### Opcodes

```
  0: 0x0011 [0x32] ExtData[1]->MainSpeed = 40* * 0.1
  1: 0x0014 [0x1F] MOVE_ENTITY: EventEntity moves to X=1.271*, Z=0.042*, Y=0.000*
  2: 0x001C [0x1F] MOVE_ENTITY: Update entity position (mode=1)
  3: 0x001E [0x00] END_REQSTACK()
```

### Event 65535.2

#### Metadata

| Field        | Value    |
|--------------|----------|
| Entrypoint   | 0x001F   |
| Data Size    | 25 bytes |
| Instructions | 5        |

```
      00 01 02 03 04 05 06 07  08 09 0A 0B 0C 0D 0E 0F
      -- -- -- -- -- -- -- --  -- -- -- -- -- -- -- --
0010:                                               32                 2
0020: 07 80 31 00 08 80 09 80  02 80 0A 80 31 01 37 08  ..1.........1.7.
0030: 80 09 80 02 80 0B 80 00                           ........        
```

#### Opcodes

```
  0: 0x001F [0x32] ExtData[1]->MainSpeed = 13* * 0.1
  1: 0x0022 [0x31] UPDATE_ENTITY_POSITION: Set EventEntity goal position to X=0.306*, Z=-5.412*, Y=0.000*, Time=60*
  2: 0x002C [0x31] UPDATE_ENTITY_POSITION: Move EventEntity towards goal position
  3: 0x002E [0x37] UPDATE_EVENT_POSITION_AND_DIR: x=0.306*, z=-5.412*, y=0.000*, direction=108.9°*
  4: 0x0037 [0x00] END_REQSTACK()
```

### Event 65535.3

#### Metadata

| Field        | Value    |
|--------------|----------|
| Entrypoint   | 0x0038   |
| Data Size    | 13 bytes |
| Instructions | 3        |

```
      00 01 02 03 04 05 06 07  08 09 0A 0B 0C 0D 0E 0F
      -- -- -- -- -- -- -- --  -- -- -- -- -- -- -- --
0030:                          31 00 0C 80 0D 80 02 80          1.......
0040: 0A 80 31 01 00                                    ..1..           
```

#### Opcodes

```
  0: 0x0038 [0x31] UPDATE_ENTITY_POSITION: Set EventEntity goal position to X=0.027*, Z=-14.261*, Y=0.000*, Time=60*
  1: 0x0042 [0x31] UPDATE_ENTITY_POSITION: Move EventEntity towards goal position
  2: 0x0044 [0x00] END_REQSTACK()
```

### Event 65535.4

#### Metadata

| Field        | Value   |
|--------------|---------|
| Entrypoint   | 0x0045  |
| Data Size    | 6 bytes |
| Instructions | 2       |

```
      00 01 02 03 04 05 06 07  08 09 0A 0B 0C 0D 0E 0F
      -- -- -- -- -- -- -- --  -- -- -- -- -- -- -- --
0040:                1E 51 90  0E 01 00                      .Q....     
```

#### Opcodes

```
  0: 0x0045 [0x1E] EventEntity looks at Vijartal (ID: 17731665/0x010E9051) and starts talking
  1: 0x004A [0x00] END_REQSTACK()
```

### Event 43

#### Metadata

| Field        | Value    |
|--------------|----------|
| Entrypoint   | 0x004B   |
| Data Size    | 12 bytes |
| Instructions | 3        |

```
      00 01 02 03 04 05 06 07  08 09 0A 0B 0C 0D 0E 0F
      -- -- -- -- -- -- -- --  -- -- -- -- -- -- -- --
0040:                                   22 01 37 0E 80             ".7..
0050: 0F 80 02 80 10 80 00                              .......         
```

#### Opcodes

```
  0: 0x004B [0x22] ENTITY_HIDE_FLAG(enabled=0x01)
  1: 0x004D [0x37] UPDATE_EVENT_POSITION_AND_DIR: x=22.367*, z=-2.325*, y=0.000*, direction=320.7°*
  2: 0x0056 [0x00] END_REQSTACK()
```

### Event 65535.5

#### Metadata

| Field        | Value    |
|--------------|----------|
| Entrypoint   | 0x0057   |
| Data Size    | 20 bytes |
| Instructions | 6        |

```
      00 01 02 03 04 05 06 07  08 09 0A 0B 0C 0D 0E 0F
      -- -- -- -- -- -- -- --  -- -- -- -- -- -- -- --
0050:                      32  07 80 1F 00 11 80 12 80         2........
0060: 02 80 1F 01 6F 1E 0C 90  0E 01 00                 ....o......     
```

#### Opcodes

```
  0: 0x0057 [0x32] ExtData[1]->MainSpeed = 13* * 0.1
  1: 0x005A [0x1F] MOVE_ENTITY: EventEntity moves to X=23.070*, Z=-1.780*, Y=0.000*
  2: 0x0062 [0x1F] MOVE_ENTITY: Update entity position (mode=1)
  3: 0x0064 [0x6F] WAIT_FRAME_DELAY: Yield until WaitTime reaches zero
  4: 0x0065 [0x1E] EventEntity looks at Curilla (ID: 17731596/0x010E900C) and starts talking
  5: 0x006A [0x00] END_REQSTACK()
```

### Event 65535.6

#### Metadata

| Field        | Value    |
|--------------|----------|
| Entrypoint   | 0x006B   |
| Data Size    | 36 bytes |
| Instructions | 9        |

```
      00 01 02 03 04 05 06 07  08 09 0A 0B 0C 0D 0E 0F
      -- -- -- -- -- -- -- --  -- -- -- -- -- -- -- --
0060:                                   1C 0A 80 1F 00             .....
0070: 13 80 14 80 02 80 1F 01  1F 00 15 80 16 80 02 80  ................
0080: 1F 01 1F 00 17 80 18 80  02 80 1F 01 22 01 00     ............".. 
```

#### Opcodes

```
  0: 0x006B [0x1C] WAIT(60* ticks)
  1: 0x006E [0x1F] MOVE_ENTITY: EventEntity moves to X=22.121*, Z=-2.097*, Y=0.000*
  2: 0x0076 [0x1F] MOVE_ENTITY: Update entity position (mode=1)
  3: 0x0078 [0x1F] MOVE_ENTITY: EventEntity moves to X=21.356*, Z=-3.375*, Y=0.000*
  4: 0x0080 [0x1F] MOVE_ENTITY: Update entity position (mode=1)
  5: 0x0082 [0x1F] MOVE_ENTITY: EventEntity moves to X=16.419*, Z=-3.252*, Y=0.000*
  6: 0x008A [0x1F] MOVE_ENTITY: Update entity position (mode=1)
  7: 0x008C [0x22] ENTITY_HIDE_FLAG(enabled=0x01)
  8: 0x008E [0x00] END_REQSTACK()
```

### Event 65535.7

#### Metadata

| Field        | Value    |
|--------------|----------|
| Entrypoint   | 0x008F   |
| Data Size    | 29 bytes |
| Instructions | 3        |

```
      00 01 02 03 04 05 06 07  08 09 0A 0B 0C 0D 0E 0F
      -- -- -- -- -- -- -- --  -- -- -- -- -- -- -- --
0080:                                               66                 f
0090: 19 80 F8 FF FF 7F F8 FF  FF 7F 74 6C 6B 30 53 F8  ..........tlk0S.
00A0: FF FF 7F F8 FF FF 7F 74  6C 6B 30 00              .......tlk0.    
```

#### Opcodes

```
  0: 0x008F [0x66] LOAD_EXT_SCHEDULER_MAIN: Load scheduler "tlk0" with entities [EventEntity, EventEntity], work=39*
  1: 0x009E [0x53] WAIT_SCHEDULER_TASK: Wait for scheduler "tlk0" with entities [EventEntity, EventEntity]
  2: 0x00AB [0x00] END_REQSTACK()
```

### Event 65535.8

#### Metadata

| Field        | Value    |
|--------------|----------|
| Entrypoint   | 0x00AC   |
| Data Size    | 29 bytes |
| Instructions | 3        |

```
      00 01 02 03 04 05 06 07  08 09 0A 0B 0C 0D 0E 0F
      -- -- -- -- -- -- -- --  -- -- -- -- -- -- -- --
00A0:                                      66 19 80 F8              f...
00B0: FF FF 7F F8 FF FF 7F 74  6C 6B 31 53 F8 FF FF 7F  .......tlk1S....
00C0: F8 FF FF 7F 74 6C 6B 31  00                       ....tlk1.       
```

#### Opcodes

```
  0: 0x00AC [0x66] LOAD_EXT_SCHEDULER_MAIN: Load scheduler "tlk1" with entities [EventEntity, EventEntity], work=39*
  1: 0x00BB [0x53] WAIT_SCHEDULER_TASK: Wait for scheduler "tlk1" with entities [EventEntity, EventEntity]
  2: 0x00C8 [0x00] END_REQSTACK()
```

### Event 65535.9

#### Metadata

| Field        | Value    |
|--------------|----------|
| Entrypoint   | 0x00C9   |
| Data Size    | 29 bytes |
| Instructions | 3        |

```
      00 01 02 03 04 05 06 07  08 09 0A 0B 0C 0D 0E 0F
      -- -- -- -- -- -- -- --  -- -- -- -- -- -- -- --
00C0:                             66 19 80 F8 FF FF 7F           f......
00D0: F8 FF FF 7F 74 68 6B 31  53 F8 FF FF 7F F8 FF FF  ....thk1S.......
00E0: 7F 74 68 6B 31 00                                 .thk1.          
```

#### Opcodes

```
  0: 0x00C9 [0x66] LOAD_EXT_SCHEDULER_MAIN: Load scheduler "thk1" with entities [EventEntity, EventEntity], work=39*
  1: 0x00D8 [0x53] WAIT_SCHEDULER_TASK: Wait for scheduler "thk1" with entities [EventEntity, EventEntity]
  2: 0x00E5 [0x00] END_REQSTACK()
```

### Event 65535.10

#### Metadata

| Field        | Value    |
|--------------|----------|
| Entrypoint   | 0x00E6   |
| Data Size    | 29 bytes |
| Instructions | 3        |

```
      00 01 02 03 04 05 06 07  08 09 0A 0B 0C 0D 0E 0F
      -- -- -- -- -- -- -- --  -- -- -- -- -- -- -- --
00E0:                   66 19  80 F8 FF FF 7F F8 FF FF        f.........
00F0: 7F 74 68 6B 32 53 F8 FF  FF 7F F8 FF FF 7F 74 68  .thk2S........th
0100: 6B 32 00                                          k2.             
```

#### Opcodes

```
  0: 0x00E6 [0x66] LOAD_EXT_SCHEDULER_MAIN: Load scheduler "thk2" with entities [EventEntity, EventEntity], work=39*
  1: 0x00F5 [0x53] WAIT_SCHEDULER_TASK: Wait for scheduler "thk2" with entities [EventEntity, EventEntity]
  2: 0x0102 [0x00] END_REQSTACK()
```
