# 17731652 - Lourima

## Common Data

| Field            | Value                         |
|------------------|-------------------------------|
| Zone             | Chateau d'Oraguille (ID: 233) |
| Block Size       | 132 bytes                     |
| Total Events     | 3                             |
| References Count | 13                            |

## List of Events

| Event ID                 | Entrypoint   |   Size |   Instructions |
|--------------------------|--------------|--------|----------------|
| [65535](#event-65535)    | 0x0000       |      1 |              1 |
| [0](#event-0)            | 0x0001       |     10 |              2 |
| [65535.1](#event-655351) | 0x000B       |     39 |             10 |

## DAT References (imed_data)

|   Index | Hex Value   |   Dec Value |
|---------|-------------|-------------|
|       0 | 0xFFFEAF40  |  4294881088 |
|       1 | 0x12FBF     |       77759 |
|       2 | 0x018E      |         398 |
|       3 | 0x0842      |        2114 |
|       4 | 0x02FE      |         766 |
|       5 | 0x001E      |          30 |
|       6 | 0xFFFEB217  |  4294881815 |
|       7 | 0x129EC     |       76268 |
|       8 | 0xFFFEB457  |  4294882391 |
|       9 | 0x10DD7     |       69079 |
|      10 | 0xFFFFFBB3  |  4294966195 |
|      11 | 0xFFFEBA78  |  4294883960 |
|      12 | 0xE3B0      |       58288 |

## Events

### Event 65535

#### Metadata

| Field        | Value   |
|--------------|---------|
| Entrypoint   | 0x0000  |
| Data Size    | 1 bytes |
| Instructions | 1       |

```
      00 01 02 03 04 05 06 07  08 09 0A 0B 0C 0D 0E 0F
      -- -- -- -- -- -- -- --  -- -- -- -- -- -- -- --
0000: 00                                                .               
```

#### Opcodes

```
  0: 0x0000 [0x00] END_REQSTACK()
```

### Event 0

#### Metadata

| Field        | Value    |
|--------------|----------|
| Entrypoint   | 0x0001   |
| Data Size    | 10 bytes |
| Instructions | 2        |

```
      00 01 02 03 04 05 06 07  08 09 0A 0B 0C 0D 0E 0F
      -- -- -- -- -- -- -- --  -- -- -- -- -- -- -- --
0000:    37 00 80 01 80 02 80  03 80 00                  7.........     
```

#### Opcodes

```
  0: 0x0001 [0x37] UPDATE_EVENT_POSITION_AND_DIR: x=-86.208*, z=77.759*, y=0.398*, direction=185.8°*
  1: 0x000A [0x00] END_REQSTACK()
```

### Event 65535.1

#### Metadata

| Field        | Value    |
|--------------|----------|
| Entrypoint   | 0x000B   |
| Data Size    | 39 bytes |
| Instructions | 10       |

```
      00 01 02 03 04 05 06 07  08 09 0A 0B 0C 0D 0E 0F
      -- -- -- -- -- -- -- --  -- -- -- -- -- -- -- --
0000:                                   39 04 80 1C 05             9....
0010: 80 1F 00 06 80 07 80 02  80 1F 01 1F 00 08 80 09  ................
0020: 80 0A 80 1F 01 1F 00 0B  80 0C 80 0A 80 1F 01 22  ..............."
0030: 01 00                                             ..              
```

#### Opcodes

```
  0: 0x000B [0x39] SET_ENTITY_DIRECTION(direction=4.2°*)
  1: 0x000E [0x1C] WAIT(30* ticks)
  2: 0x0011 [0x1F] MOVE_ENTITY: EventEntity moves to X=-85.481*, Z=76.268*, Y=0.398*
  3: 0x0019 [0x1F] MOVE_ENTITY: Update entity position (mode=1)
  4: 0x001B [0x1F] MOVE_ENTITY: EventEntity moves to X=-84.905*, Z=69.079*, Y=-1.101*
  5: 0x0023 [0x1F] MOVE_ENTITY: Update entity position (mode=1)
  6: 0x0025 [0x1F] MOVE_ENTITY: EventEntity moves to X=-83.336*, Z=58.288*, Y=-1.101*
  7: 0x002D [0x1F] MOVE_ENTITY: Update entity position (mode=1)
  8: 0x002F [0x22] ENTITY_HIDE_FLAG(enabled=0x01)
  9: 0x0031 [0x00] END_REQSTACK()
```
