# 17731605 - Chupaile

## Common Data

| Field            | Value                         |
|------------------|-------------------------------|
| Zone             | Chateau d'Oraguille (ID: 233) |
| Block Size       | 432 bytes                     |
| Total Events     | 19                            |
| References Count | 12                            |

## List of Events

| Event ID                 | Entrypoint   |   Size |   Instructions |
|--------------------------|--------------|--------|----------------|
| [65535](#event-65535)    | 0x0000       |      1 |              1 |
| [9](#event-9)            | 0x0001       |      1 |              1 |
| [32](#event-32)          | 0x0002       |      1 |              1 |
| [514](#event-514)        | 0x0003       |     36 |             10 |
| [86](#event-86)          | 0x0027       |     36 |             10 |
| [89](#event-89)          | 0x004B       |     18 |              4 |
| [509](#event-509)        | 0x005D       |     10 |              2 |
| [563](#event-563)        | 0x0067       |      1 |              1 |
| [564](#event-564)        | 0x0068       |      1 |              1 |
| [578](#event-578)        | 0x0069       |      1 |              1 |
| [583](#event-583)        | 0x006A       |      1 |              1 |
| [586](#event-586)        | 0x006B       |      1 |              1 |
| [590](#event-590)        | 0x006C       |      1 |              1 |
| [591](#event-591)        | 0x006D       |      1 |              1 |
| [597](#event-597)        | 0x006E       |      1 |              1 |
| [604](#event-604)        | 0x006F       |      1 |              1 |
| [609](#event-609)        | 0x0070       |      1 |              1 |
| [65535.1](#event-655351) | 0x0071       |     90 |             17 |
| [65535.2](#event-655352) | 0x00CB       |     87 |             16 |

## DAT References (imed_data)

|   Index | Hex Value   |   Dec Value |
|---------|-------------|-------------|
|       0 | 0x001E      |          30 |
|       1 | 0x1C3A      |        7226 |
|       2 | 0x1C3B      |        7227 |
|       3 | 0xFFFF6559  |  4294927705 |
|       4 | 0x1383A     |       79930 |
|       5 | 0xFFFFF15B  |  4294963547 |
|       6 | 0x0177      |         375 |
|       7 | 0xFFFFF275  |  4294963829 |
|       8 | 0x0E8E      |        3726 |
|       9 | 0x0000      |           0 |
|      10 | 0x000D      |          13 |
|      11 | 0x0001      |           1 |

## String References

- **7226**: The audience chamber is beyond. Entrance by appointment only.
- **7227**: Please proceed into the audience chamber.

## Events

### Event 65535

#### Metadata

| Field        | Value   |
|--------------|---------|
| Entrypoint   | 0x0000  |
| Data Size    | 1 bytes |
| Instructions | 1       |

```
      00 01 02 03 04 05 06 07  08 09 0A 0B 0C 0D 0E 0F
      -- -- -- -- -- -- -- --  -- -- -- -- -- -- -- --
0000: 00                                                .               
```

#### Opcodes

```
  0: 0x0000 [0x00] END_REQSTACK()
```

### Event 9

#### Metadata

| Field        | Value   |
|--------------|---------|
| Entrypoint   | 0x0001  |
| Data Size    | 1 bytes |
| Instructions | 1       |

```
      00 01 02 03 04 05 06 07  08 09 0A 0B 0C 0D 0E 0F
      -- -- -- -- -- -- -- --  -- -- -- -- -- -- -- --
0000:    00                                              .              
```

#### Opcodes

```
  0: 0x0001 [0x00] END_REQSTACK()
```

### Event 32

#### Metadata

| Field        | Value   |
|--------------|---------|
| Entrypoint   | 0x0002  |
| Data Size    | 1 bytes |
| Instructions | 1       |

```
      00 01 02 03 04 05 06 07  08 09 0A 0B 0C 0D 0E 0F
      -- -- -- -- -- -- -- --  -- -- -- -- -- -- -- --
0000:       00                                            .             
```

#### Opcodes

```
  0: 0x0002 [0x00] END_REQSTACK()
```

### Event 514

#### Metadata

| Field        | Value    |
|--------------|----------|
| Entrypoint   | 0x0003   |
| Data Size    | 36 bytes |
| Instructions | 10       |

```
      00 01 02 03 04 05 06 07  08 09 0A 0B 0C 0D 0E 0F
      -- -- -- -- -- -- -- --  -- -- -- -- -- -- -- --
0000:          1E F0 FF FF 7F  6F 70 66 00 80 F8 FF FF     .....opf.....
0010: 7F F8 FF FF 7F 74 6C 6B  30 1D 01 80 23 5E 69 64  .....tlk0...#^id
0020: 6C 30 1C 00 80 21 00                              l0...!.         
```

#### Opcodes

```
  0: 0x0003 [0x1E] EventEntity looks at LocalPlayer and starts talking
  1: 0x0008 [0x6F] WAIT_FRAME_DELAY: Yield until WaitTime reaches zero
  2: 0x0009 [0x70] WAIT_ENTITY_RENDER_FLAG: Wait while EventEntity->Render.Flags3 bit 2 is set (cancel turn if not)
  3: 0x000A [0x66] LOAD_EXT_SCHEDULER_MAIN: Load scheduler "tlk0" with entities [EventEntity, EventEntity], work=30*
  4: 0x0019 [0x1D] PRINT_EVENT_MESSAGE(message_id=7226*)
    → "The audience chamber is beyond. Entrance by appointment only."
  5: 0x001C [0x23] WAIT_FOR_DIALOG_INTERACTION
  6: 0x001D [0x5E] EventEntity goes idle (kills current action) (animation: "idl0")
  7: 0x0022 [0x1C] WAIT(30* ticks)
  8: 0x0025 [0x21] END_EVENT
  9: 0x0026 [0x00] END_REQSTACK()
```

### Event 86

#### Metadata

| Field        | Value    |
|--------------|----------|
| Entrypoint   | 0x0027   |
| Data Size    | 36 bytes |
| Instructions | 10       |

```
      00 01 02 03 04 05 06 07  08 09 0A 0B 0C 0D 0E 0F
      -- -- -- -- -- -- -- --  -- -- -- -- -- -- -- --
0020:                      1E  F0 FF FF 7F 6F 70 66 00         .....opf.
0030: 80 F8 FF FF 7F F8 FF FF  7F 74 6C 6B 30 1D 02 80  .........tlk0...
0040: 23 5E 69 64 6C 30 1C 00  80 21 00                 #^idl0...!.     
```

#### Opcodes

```
  0: 0x0027 [0x1E] EventEntity looks at LocalPlayer and starts talking
  1: 0x002C [0x6F] WAIT_FRAME_DELAY: Yield until WaitTime reaches zero
  2: 0x002D [0x70] WAIT_ENTITY_RENDER_FLAG: Wait while EventEntity->Render.Flags3 bit 2 is set (cancel turn if not)
  3: 0x002E [0x66] LOAD_EXT_SCHEDULER_MAIN: Load scheduler "tlk0" with entities [EventEntity, EventEntity], work=30*
  4: 0x003D [0x1D] PRINT_EVENT_MESSAGE(message_id=7227*)
    → "Please proceed into the audience chamber."
  5: 0x0040 [0x23] WAIT_FOR_DIALOG_INTERACTION
  6: 0x0041 [0x5E] EventEntity goes idle (kills current action) (animation: "idl0")
  7: 0x0046 [0x1C] WAIT(30* ticks)
  8: 0x0049 [0x21] END_EVENT
  9: 0x004A [0x00] END_REQSTACK()
```

### Event 89

#### Metadata

| Field        | Value    |
|--------------|----------|
| Entrypoint   | 0x004B   |
| Data Size    | 18 bytes |
| Instructions | 4        |

```
      00 01 02 03 04 05 06 07  08 09 0A 0B 0C 0D 0E 0F
      -- -- -- -- -- -- -- --  -- -- -- -- -- -- -- --
0040:                                   22 01 92 01 F8             "....
0050: FF FF 7F 37 03 80 04 80  05 80 06 80 00           ...7.........   
```

#### Opcodes

```
  0: 0x004B [0x22] ENTITY_HIDE_FLAG(enabled=0x01)
  1: 0x004D [0x92] EventEntity->Render.Flags3 ^= 0x01
  2: 0x0053 [0x37] UPDATE_EVENT_POSITION_AND_DIR: x=-39.591*, z=79.930*, y=-3.749*, direction=33.0°*
  3: 0x005C [0x00] END_REQSTACK()
```

### Event 509

#### Metadata

| Field        | Value    |
|--------------|----------|
| Entrypoint   | 0x005D   |
| Data Size    | 10 bytes |
| Instructions | 2        |

```
      00 01 02 03 04 05 06 07  08 09 0A 0B 0C 0D 0E 0F
      -- -- -- -- -- -- -- --  -- -- -- -- -- -- -- --
0050:                                         37 07 80               7..
0060: 08 80 09 80 09 80 00                              .......         
```

#### Opcodes

```
  0: 0x005D [0x37] UPDATE_EVENT_POSITION_AND_DIR: x=-3.467*, z=3.726*, y=0.000*, direction=0.0°*
  1: 0x0066 [0x00] END_REQSTACK()
```

### Event 563

#### Metadata

| Field        | Value   |
|--------------|---------|
| Entrypoint   | 0x0067  |
| Data Size    | 1 bytes |
| Instructions | 1       |

```
      00 01 02 03 04 05 06 07  08 09 0A 0B 0C 0D 0E 0F
      -- -- -- -- -- -- -- --  -- -- -- -- -- -- -- --
0060:                      00                                  .        
```

#### Opcodes

```
  0: 0x0067 [0x00] END_REQSTACK()
```

### Event 564

#### Metadata

| Field        | Value   |
|--------------|---------|
| Entrypoint   | 0x0068  |
| Data Size    | 1 bytes |
| Instructions | 1       |

```
      00 01 02 03 04 05 06 07  08 09 0A 0B 0C 0D 0E 0F
      -- -- -- -- -- -- -- --  -- -- -- -- -- -- -- --
0060:                          00                               .       
```

#### Opcodes

```
  0: 0x0068 [0x00] END_REQSTACK()
```

### Event 578

#### Metadata

| Field        | Value   |
|--------------|---------|
| Entrypoint   | 0x0069  |
| Data Size    | 1 bytes |
| Instructions | 1       |

```
      00 01 02 03 04 05 06 07  08 09 0A 0B 0C 0D 0E 0F
      -- -- -- -- -- -- -- --  -- -- -- -- -- -- -- --
0060:                             00                             .      
```

#### Opcodes

```
  0: 0x0069 [0x00] END_REQSTACK()
```

### Event 583

#### Metadata

| Field        | Value   |
|--------------|---------|
| Entrypoint   | 0x006A  |
| Data Size    | 1 bytes |
| Instructions | 1       |

```
      00 01 02 03 04 05 06 07  08 09 0A 0B 0C 0D 0E 0F
      -- -- -- -- -- -- -- --  -- -- -- -- -- -- -- --
0060:                                00                           .     
```

#### Opcodes

```
  0: 0x006A [0x00] END_REQSTACK()
```

### Event 586

#### Metadata

| Field        | Value   |
|--------------|---------|
| Entrypoint   | 0x006B  |
| Data Size    | 1 bytes |
| Instructions | 1       |

```
      00 01 02 03 04 05 06 07  08 09 0A 0B 0C 0D 0E 0F
      -- -- -- -- -- -- -- --  -- -- -- -- -- -- -- --
0060:                                   00                         .    
```

#### Opcodes

```
  0: 0x006B [0x00] END_REQSTACK()
```

### Event 590

#### Metadata

| Field        | Value   |
|--------------|---------|
| Entrypoint   | 0x006C  |
| Data Size    | 1 bytes |
| Instructions | 1       |

```
      00 01 02 03 04 05 06 07  08 09 0A 0B 0C 0D 0E 0F
      -- -- -- -- -- -- -- --  -- -- -- -- -- -- -- --
0060:                                      00                       .   
```

#### Opcodes

```
  0: 0x006C [0x00] END_REQSTACK()
```

### Event 591

#### Metadata

| Field        | Value   |
|--------------|---------|
| Entrypoint   | 0x006D  |
| Data Size    | 1 bytes |
| Instructions | 1       |

```
      00 01 02 03 04 05 06 07  08 09 0A 0B 0C 0D 0E 0F
      -- -- -- -- -- -- -- --  -- -- -- -- -- -- -- --
0060:                                         00                     .  
```

#### Opcodes

```
  0: 0x006D [0x00] END_REQSTACK()
```

### Event 597

#### Metadata

| Field        | Value   |
|--------------|---------|
| Entrypoint   | 0x006E  |
| Data Size    | 1 bytes |
| Instructions | 1       |

```
      00 01 02 03 04 05 06 07  08 09 0A 0B 0C 0D 0E 0F
      -- -- -- -- -- -- -- --  -- -- -- -- -- -- -- --
0060:                                            00                   . 
```

#### Opcodes

```
  0: 0x006E [0x00] END_REQSTACK()
```

### Event 604

#### Metadata

| Field        | Value   |
|--------------|---------|
| Entrypoint   | 0x006F  |
| Data Size    | 1 bytes |
| Instructions | 1       |

```
      00 01 02 03 04 05 06 07  08 09 0A 0B 0C 0D 0E 0F
      -- -- -- -- -- -- -- --  -- -- -- -- -- -- -- --
0060:                                               00                 .
```

#### Opcodes

```
  0: 0x006F [0x00] END_REQSTACK()
```

### Event 609

#### Metadata

| Field        | Value   |
|--------------|---------|
| Entrypoint   | 0x0070  |
| Data Size    | 1 bytes |
| Instructions | 1       |

```
      00 01 02 03 04 05 06 07  08 09 0A 0B 0C 0D 0E 0F
      -- -- -- -- -- -- -- --  -- -- -- -- -- -- -- --
0070: 00                                                .               
```

#### Opcodes

```
  0: 0x0070 [0x00] END_REQSTACK()
```

### Event 65535.1

#### Metadata

| Field        | Value    |
|--------------|----------|
| Entrypoint   | 0x0071   |
| Data Size    | 90 bytes |
| Instructions | 17       |

```
      00 01 02 03 04 05 06 07  08 09 0A 0B 0C 0D 0E 0F
      -- -- -- -- -- -- -- --  -- -- -- -- -- -- -- --
0070:    6E F8 FF FF 7F 0A 80  99 F8 FF FF 7F 06 04 00   n..............
0080: 3B F8 FF FF 7F 00 00 02  00 03 00 3B 34 90 0E 01  ;..........;4...
0090: 00 00 01 00 03 00 02 01  00 02 00 03 AF 00 3B 34  ..............;4
00A0: 90 0E 01 00 00 01 00 03  00 1C 0B 80 01 96 00 5E  ...............^
00B0: 69 64 6C 30 1C 00 80 1E  34 90 0E 01 6F 70 6E F8  idl0....4...opn.
00C0: FF FF 7F 0A 80 99 F8 FF  FF 7F 00                 ...........     
```

#### Opcodes

```
  0: 0x0071 [0x6E] EventEntity uses emote 13*
  1: 0x0078 [0x99] Wait for EventEntity animation to complete
  2: 0x007D [0x06] ExtData[1]->WorkLocal[4] = 0
  3: 0x0080 [0x3B] GET_ENTITY_POSITION(entity=EventEntity, x_destination=ExtData[1]->WorkLocal[0], y_destination=ExtData[1]->WorkLocal[2], z_destination=ExtData[1]->WorkLocal[3])
  4: 0x008B [0x3B] GET_ENTITY_POSITION(entity=Exoroche (ID: 17731636/0x010E9034), x_destination=ExtData[1]->WorkLocal[0], y_destination=ExtData[1]->WorkLocal[1], z_destination=ExtData[1]->WorkLocal[3])
  5: 0x0096 [0x02] IF !(ExtData[1]->WorkLocal[1] >= ExtData[1]->WorkLocal[2]) GOTO 0x00AF
  6: 0x009E [0x3B] GET_ENTITY_POSITION(entity=Exoroche (ID: 17731636/0x010E9034), x_destination=ExtData[1]->WorkLocal[0], y_destination=ExtData[1]->WorkLocal[1], z_destination=ExtData[1]->WorkLocal[3])
  7: 0x00A9 [0x1C] WAIT(1* ticks)
  8: 0x00AC [0x01] GOTO 0x0096
  9: 0x00AF [0x5E] EventEntity goes idle (kills current action) (animation: "idl0")
 10: 0x00B4 [0x1C] WAIT(30* ticks)
 11: 0x00B7 [0x1E] EventEntity looks at Exoroche (ID: 17731636/0x010E9034) and starts talking
 12: 0x00BC [0x6F] WAIT_FRAME_DELAY: Yield until WaitTime reaches zero
 13: 0x00BD [0x70] WAIT_ENTITY_RENDER_FLAG: Wait while EventEntity->Render.Flags3 bit 2 is set (cancel turn if not)
 14: 0x00BE [0x6E] EventEntity uses emote 13*
 15: 0x00C5 [0x99] Wait for EventEntity animation to complete
 16: 0x00CA [0x00] END_REQSTACK()
```

### Event 65535.2

#### Metadata

| Field        | Value    |
|--------------|----------|
| Entrypoint   | 0x00CB   |
| Data Size    | 87 bytes |
| Instructions | 16       |

```
      00 01 02 03 04 05 06 07  08 09 0A 0B 0C 0D 0E 0F
      -- -- -- -- -- -- -- --  -- -- -- -- -- -- -- --
00C0:                                   6E F8 FF FF 7F             n....
00D0: 0A 80 99 F8 FF FF 7F 3B  F8 FF FF 7F 00 00 02 00  .......;........
00E0: 03 00 3B 34 90 0E 01 00  00 01 00 03 00 02 01 00  ..;4............
00F0: 02 00 02 06 01 3B 34 90  0E 01 00 00 01 00 03 00  .....;4.........
0100: 1C 0B 80 01 ED 00 5E 69  64 6C 30 1C 00 80 1E 34  ......^idl0....4
0110: 90 0E 01 6F 70 6E F8 FF  FF 7F 0A 80 99 F8 FF FF  ...opn..........
0120: 7F 00                                             ..              
```

#### Opcodes

```
  0: 0x00CB [0x6E] EventEntity uses emote 13*
  1: 0x00D2 [0x99] Wait for EventEntity animation to complete
  2: 0x00D7 [0x3B] GET_ENTITY_POSITION(entity=EventEntity, x_destination=ExtData[1]->WorkLocal[0], y_destination=ExtData[1]->WorkLocal[2], z_destination=ExtData[1]->WorkLocal[3])
  3: 0x00E2 [0x3B] GET_ENTITY_POSITION(entity=Exoroche (ID: 17731636/0x010E9034), x_destination=ExtData[1]->WorkLocal[0], y_destination=ExtData[1]->WorkLocal[1], z_destination=ExtData[1]->WorkLocal[3])
  4: 0x00ED [0x02] IF !(ExtData[1]->WorkLocal[1] <= ExtData[1]->WorkLocal[2]) GOTO 0x0106
  5: 0x00F5 [0x3B] GET_ENTITY_POSITION(entity=Exoroche (ID: 17731636/0x010E9034), x_destination=ExtData[1]->WorkLocal[0], y_destination=ExtData[1]->WorkLocal[1], z_destination=ExtData[1]->WorkLocal[3])
  6: 0x0100 [0x1C] WAIT(1* ticks)
  7: 0x0103 [0x01] GOTO 0x00ED
  8: 0x0106 [0x5E] EventEntity goes idle (kills current action) (animation: "idl0")
  9: 0x010B [0x1C] WAIT(30* ticks)
 10: 0x010E [0x1E] EventEntity looks at Exoroche (ID: 17731636/0x010E9034) and starts talking
 11: 0x0113 [0x6F] WAIT_FRAME_DELAY: Yield until WaitTime reaches zero
 12: 0x0114 [0x70] WAIT_ENTITY_RENDER_FLAG: Wait while EventEntity->Render.Flags3 bit 2 is set (cancel turn if not)
 13: 0x0115 [0x6E] EventEntity uses emote 13*
 14: 0x011C [0x99] Wait for EventEntity animation to complete
 15: 0x0121 [0x00] END_REQSTACK()
```
