# 17731588 - Trion

## Common Data

| Field            | Value                         |
|------------------|-------------------------------|
| Zone             | Chateau d'Oraguille (ID: 233) |
| Block Size       | 164 bytes                     |
| Total Events     | 5                             |
| References Count | 13                            |

## List of Events

| Event ID                 | Entrypoint   |   Size |   Instructions |
|--------------------------|--------------|--------|----------------|
| [65535](#event-65535)    | 0x0000       |      1 |              1 |
| [65535.1](#event-655351) | 0x0001       |     18 |              4 |
| [65535.2](#event-655352) | 0x0013       |     14 |              4 |
| [65535.3](#event-655353) | 0x0021       |     34 |              8 |
| [65535.4](#event-655354) | 0x0043       |      6 |              2 |

## DAT References (imed_data)

|   Index | Hex Value   |   Dec Value |
|---------|-------------|-------------|
|       0 | 0xFFFFE8A4  |  4294961316 |
|       1 | 0xFFFFF9D2  |  4294965714 |
|       2 | 0x0000      |           0 |
|       3 | 0x0F73      |        3955 |
|       4 | 0x000D      |          13 |
|       5 | 0xFFFFFD0D  |  4294966541 |
|       6 | 0x003B      |          59 |
|       7 | 0xFFFFD072  |  4294955122 |
|       8 | 0xFFFFEF64  |  4294963044 |
|       9 | 0xFFFFC70F  |  4294952719 |
|      10 | 0xFFFFF2C9  |  4294963913 |
|      11 | 0xFFFFC0BB  |  4294951099 |
|      12 | 0xFFFFFDEE  |  4294966766 |

## Events

### Event 65535

#### Metadata

| Field        | Value   |
|--------------|---------|
| Entrypoint   | 0x0000  |
| Data Size    | 1 bytes |
| Instructions | 1       |

```
      00 01 02 03 04 05 06 07  08 09 0A 0B 0C 0D 0E 0F
      -- -- -- -- -- -- -- --  -- -- -- -- -- -- -- --
0000: 00                                                .               
```

#### Opcodes

```
  0: 0x0000 [0x00] END_REQSTACK()
```

### Event 65535.1

#### Metadata

| Field        | Value    |
|--------------|----------|
| Entrypoint   | 0x0001   |
| Data Size    | 18 bytes |
| Instructions | 4        |

```
      00 01 02 03 04 05 06 07  08 09 0A 0B 0C 0D 0E 0F
      -- -- -- -- -- -- -- --  -- -- -- -- -- -- -- --
0000:    2F 00 04 90 0E 01 37  00 80 01 80 02 80 03 80   /.....7........
0010: 22 00 00                                          "..             
```

#### Opcodes

```
  0: 0x0001 [0x2F] Trion (ID: 17731588/0x010E9004)->Render.Flags0 &= ~0x80000 // Bit 19
  1: 0x0007 [0x37] UPDATE_EVENT_POSITION_AND_DIR: x=-5.980*, z=-1.582*, y=0.000*, direction=347.6°*
  2: 0x0010 [0x22] ENTITY_HIDE_FLAG(enabled=0x00)
  3: 0x0012 [0x00] END_REQSTACK()
```

### Event 65535.2

#### Metadata

| Field        | Value    |
|--------------|----------|
| Entrypoint   | 0x0013   |
| Data Size    | 14 bytes |
| Instructions | 4        |

```
      00 01 02 03 04 05 06 07  08 09 0A 0B 0C 0D 0E 0F
      -- -- -- -- -- -- -- --  -- -- -- -- -- -- -- --
0010:          32 04 80 1F 00  05 80 06 80 02 80 1F 01     2............
0020: 00                                                .               
```

#### Opcodes

```
  0: 0x0013 [0x32] ExtData[1]->MainSpeed = 13* * 0.1
  1: 0x0016 [0x1F] MOVE_ENTITY: EventEntity moves to X=-0.755*, Z=0.059*, Y=0.000*
  2: 0x001E [0x1F] MOVE_ENTITY: Update entity position (mode=1)
  3: 0x0020 [0x00] END_REQSTACK()
```

### Event 65535.3

#### Metadata

| Field        | Value    |
|--------------|----------|
| Entrypoint   | 0x0021   |
| Data Size    | 34 bytes |
| Instructions | 8        |

```
      00 01 02 03 04 05 06 07  08 09 0A 0B 0C 0D 0E 0F
      -- -- -- -- -- -- -- --  -- -- -- -- -- -- -- --
0020:    32 04 80 1F 00 07 80  08 80 02 80 1F 01 1F 00   2..............
0030: 09 80 0A 80 02 80 1F 01  1F 00 0B 80 0C 80 02 80  ................
0040: 1F 01 00                                          ...             
```

#### Opcodes

```
  0: 0x0021 [0x32] ExtData[1]->MainSpeed = 13* * 0.1
  1: 0x0024 [0x1F] MOVE_ENTITY: EventEntity moves to X=-12.174*, Z=-4.252*, Y=0.000*
  2: 0x002C [0x1F] MOVE_ENTITY: Update entity position (mode=1)
  3: 0x002E [0x1F] MOVE_ENTITY: EventEntity moves to X=-14.577*, Z=-3.383*, Y=0.000*
  4: 0x0036 [0x1F] MOVE_ENTITY: Update entity position (mode=1)
  5: 0x0038 [0x1F] MOVE_ENTITY: EventEntity moves to X=-16.197*, Z=-0.530*, Y=0.000*
  6: 0x0040 [0x1F] MOVE_ENTITY: Update entity position (mode=1)
  7: 0x0042 [0x00] END_REQSTACK()
```

### Event 65535.4

#### Metadata

| Field        | Value   |
|--------------|---------|
| Entrypoint   | 0x0043  |
| Data Size    | 6 bytes |
| Instructions | 2       |

```
      00 01 02 03 04 05 06 07  08 09 0A 0B 0C 0D 0E 0F
      -- -- -- -- -- -- -- --  -- -- -- -- -- -- -- --
0040:          5E 69 64 6C 30  00                          ^idl0.       
```

#### Opcodes

```
  0: 0x0043 [0x5E] EventEntity goes idle (kills current action) (animation: "idl0")
  1: 0x0048 [0x00] END_REQSTACK()
```
