# 2147483586

## Common Data

| Field            | Value                         |
|------------------|-------------------------------|
| Zone             | Chateau d'Oraguille (ID: 233) |
| Block Size       | 540 bytes                     |
| Total Events     | 17                            |
| References Count | 48                            |

## List of Events

| Event ID                   | Entrypoint   |   Size |   Instructions |
|----------------------------|--------------|--------|----------------|
| [65535](#event-65535)      | 0x0000       |      1 |              1 |
| [66](#event-66)            | 0x0001       |      1 |              1 |
| [65535.1](#event-655351)   | 0x0002       |     10 |              2 |
| [65535.2](#event-655352)   | 0x000C       |     22 |              4 |
| [65535.3](#event-655353)   | 0x0022       |     10 |              2 |
| [65535.4](#event-655354)   | 0x002C       |     14 |              4 |
| [65535.5](#event-655355)   | 0x003A       |     24 |              5 |
| [65535.6](#event-655356)   | 0x0052       |     10 |              2 |
| [65535.7](#event-655357)   | 0x005C       |     15 |              3 |
| [65535.8](#event-655358)   | 0x006B       |     23 |              5 |
| [65535.9](#event-655359)   | 0x0082       |     22 |              4 |
| [65535.10](#event-6553510) | 0x0098       |     10 |              2 |
| [65535.11](#event-6553511) | 0x00A2       |     14 |              4 |
| [65535.12](#event-6553512) | 0x00B0       |     18 |              4 |
| [65535.13](#event-6553513) | 0x00C2       |     14 |              4 |
| [65535.14](#event-6553514) | 0x00D0       |     24 |              6 |
| [65535.15](#event-6553515) | 0x00E8       |     31 |              7 |

## DAT References (imed_data)

|   Index | Hex Value   |   Dec Value |
|---------|-------------|-------------|
|       0 | 0x0000      |           0 |
|       1 | 0x068E      |        1678 |
|       2 | 0x01EB      |         491 |
|       3 | 0x0D0D      |        3341 |
|       4 | 0xFFFFC180  |  4294951296 |
|       5 | 0x10D3A     |       68922 |
|       6 | 0xFFFFF448  |  4294964296 |
|       7 | 0x080E      |        2062 |
|       8 | 0x000D      |          13 |
|       9 | 0xFFFF9092  |  4294938770 |
|      10 | 0xFFFF6E64  |  4294930020 |
|      11 | 0x11A92     |       72338 |
|      12 | 0xFFFFF255  |  4294963797 |
|      13 | 0xFFFF6E3D  |  4294929981 |
|      14 | 0x10E18     |       69144 |
|      15 | 0x0C0F      |        3087 |
|      16 | 0xFFFF70AE  |  4294930606 |
|      17 | 0x14704     |       83716 |
|      18 | 0xFFFFF15B  |  4294963547 |
|      19 | 0x0400      |        1024 |
|      20 | 0xFFFF6EF0  |  4294930160 |
|      21 | 0x11F3E     |       73534 |
|      22 | 0x03EB      |        1003 |
|      23 | 0x0028      |          40 |
|      24 | 0xFFFF6E96  |  4294930070 |
|      25 | 0x11259     |       70233 |
|      26 | 0x0C84      |        3204 |
|      27 | 0x01C5      |         453 |
|      28 | 0x0A77      |        2679 |
|      29 | 0xFFFFBD98  |  4294950296 |
|      30 | 0x10859     |       67673 |
|      31 | 0x0808      |        2056 |
|      32 | 0xFFFF688A  |  4294928522 |
|      33 | 0x10B94     |       68500 |
|      34 | 0xFFFFF34F  |  4294964047 |
|      35 | 0x0C0C      |        3084 |
|      36 | 0xFFFF6881  |  4294928513 |
|      37 | 0x11558     |       71000 |
|      38 | 0xFFFF66E2  |  4294928098 |
|      39 | 0x13FD1     |       81873 |
|      40 | 0x0C00      |        3072 |
|      41 | 0x14E2D     |       85549 |
|      42 | 0xFFFF6879  |  4294928505 |
|      43 | 0x11FAE     |       73646 |
|      44 | 0x0402      |        1026 |
|      45 | 0x001E      |          30 |
|      46 | 0xFFFF6888  |  4294928520 |
|      47 | 0x111DF     |       70111 |

## Events

### Event 65535

#### Metadata

| Field        | Value   |
|--------------|---------|
| Entrypoint   | 0x0000  |
| Data Size    | 1 bytes |
| Instructions | 1       |

```
      00 01 02 03 04 05 06 07  08 09 0A 0B 0C 0D 0E 0F
      -- -- -- -- -- -- -- --  -- -- -- -- -- -- -- --
0000: 00                                                .               
```

#### Opcodes

```
  0: 0x0000 [0x00] END_REQSTACK()
```

### Event 66

#### Metadata

| Field        | Value   |
|--------------|---------|
| Entrypoint   | 0x0001  |
| Data Size    | 1 bytes |
| Instructions | 1       |

```
      00 01 02 03 04 05 06 07  08 09 0A 0B 0C 0D 0E 0F
      -- -- -- -- -- -- -- --  -- -- -- -- -- -- -- --
0000:    00                                              .              
```

#### Opcodes

```
  0: 0x0001 [0x00] END_REQSTACK()
```

### Event 65535.1

#### Metadata

| Field        | Value    |
|--------------|----------|
| Entrypoint   | 0x0002   |
| Data Size    | 10 bytes |
| Instructions | 2        |

```
      00 01 02 03 04 05 06 07  08 09 0A 0B 0C 0D 0E 0F
      -- -- -- -- -- -- -- --  -- -- -- -- -- -- -- --
0000:       37 00 80 00 80 00  80 00 80 00                7.........    
```

#### Opcodes

```
  0: 0x0002 [0x37] UPDATE_EVENT_POSITION_AND_DIR: x=0.000*, z=0.000*, y=0.000*, direction=0.0°*
  1: 0x000B [0x00] END_REQSTACK()
```

### Event 65535.2

#### Metadata

| Field        | Value    |
|--------------|----------|
| Entrypoint   | 0x000C   |
| Data Size    | 22 bytes |
| Instructions | 4        |

```
      00 01 02 03 04 05 06 07  08 09 0A 0B 0C 0D 0E 0F
      -- -- -- -- -- -- -- --  -- -- -- -- -- -- -- --
0000:                                      22 00 79 00              ".y.
0010: F8 FF FF 7F 07 90 0E 01  37 01 80 02 80 00 80 03  ........7.......
0020: 80 00                                             ..              
```

#### Opcodes

```
  0: 0x000C [0x22] ENTITY_HIDE_FLAG(enabled=0x00)
  1: 0x000E [0x79] EventEntity looks at Halver (ID: 17731591/0x010E9007) (Basic look)
  2: 0x0018 [0x37] UPDATE_EVENT_POSITION_AND_DIR: x=1.678*, z=0.491*, y=0.000*, direction=293.6°*
  3: 0x0021 [0x00] END_REQSTACK()
```

### Event 65535.3

#### Metadata

| Field        | Value    |
|--------------|----------|
| Entrypoint   | 0x0022   |
| Data Size    | 10 bytes |
| Instructions | 2        |

```
      00 01 02 03 04 05 06 07  08 09 0A 0B 0C 0D 0E 0F
      -- -- -- -- -- -- -- --  -- -- -- -- -- -- -- --
0020:       37 04 80 05 80 06  80 07 80 00                7.........    
```

#### Opcodes

```
  0: 0x0022 [0x37] UPDATE_EVENT_POSITION_AND_DIR: x=-16.000*, z=68.922*, y=-3.000*, direction=181.2°*
  1: 0x002B [0x00] END_REQSTACK()
```

### Event 65535.4

#### Metadata

| Field        | Value    |
|--------------|----------|
| Entrypoint   | 0x002C   |
| Data Size    | 14 bytes |
| Instructions | 4        |

```
      00 01 02 03 04 05 06 07  08 09 0A 0B 0C 0D 0E 0F
      -- -- -- -- -- -- -- --  -- -- -- -- -- -- -- --
0020:                                      32 08 80 1F              2...
0030: 00 09 80 05 80 06 80 1F  01 00                    ..........      
```

#### Opcodes

```
  0: 0x002C [0x32] ExtData[1]->MainSpeed = 13* * 0.1
  1: 0x002F [0x1F] MOVE_ENTITY: EventEntity moves to X=-28.526*, Z=68.922*, Y=-3.000*
  2: 0x0037 [0x1F] MOVE_ENTITY: Update entity position (mode=1)
  3: 0x0039 [0x00] END_REQSTACK()
```

### Event 65535.5

#### Metadata

| Field        | Value    |
|--------------|----------|
| Entrypoint   | 0x003A   |
| Data Size    | 24 bytes |
| Instructions | 5        |

```
      00 01 02 03 04 05 06 07  08 09 0A 0B 0C 0D 0E 0F
      -- -- -- -- -- -- -- --  -- -- -- -- -- -- -- --
0030:                                79 00 F8 FF FF 7F            y.....
0040: 03 90 0E 01 32 08 80 1F  00 0A 80 0B 80 0C 80 1F  ....2...........
0050: 01 00                                             ..              
```

#### Opcodes

```
  0: 0x003A [0x79] EventEntity looks at Trion (ID: 17731587/0x010E9003) (Basic look)
  1: 0x0044 [0x32] ExtData[1]->MainSpeed = 13* * 0.1
  2: 0x0047 [0x1F] MOVE_ENTITY: EventEntity moves to X=-37.276*, Z=72.338*, Y=-3.499*
  3: 0x004F [0x1F] MOVE_ENTITY: Update entity position (mode=1)
  4: 0x0051 [0x00] END_REQSTACK()
```

### Event 65535.6

#### Metadata

| Field        | Value    |
|--------------|----------|
| Entrypoint   | 0x0052   |
| Data Size    | 10 bytes |
| Instructions | 2        |

```
      00 01 02 03 04 05 06 07  08 09 0A 0B 0C 0D 0E 0F
      -- -- -- -- -- -- -- --  -- -- -- -- -- -- -- --
0050:       37 0D 80 0E 80 06  80 0F 80 00                7.........    
```

#### Opcodes

```
  0: 0x0052 [0x37] UPDATE_EVENT_POSITION_AND_DIR: x=-37.315*, z=69.144*, y=-3.000*, direction=271.3°*
  1: 0x005B [0x00] END_REQSTACK()
```

### Event 65535.7

#### Metadata

| Field        | Value    |
|--------------|----------|
| Entrypoint   | 0x005C   |
| Data Size    | 15 bytes |
| Instructions | 3        |

```
      00 01 02 03 04 05 06 07  08 09 0A 0B 0C 0D 0E 0F
      -- -- -- -- -- -- -- --  -- -- -- -- -- -- -- --
0050:                                      37 10 80 11              7...
0060: 80 12 80 13 80 1E 03 90  0E 01 00                 ...........     
```

#### Opcodes

```
  0: 0x005C [0x37] UPDATE_EVENT_POSITION_AND_DIR: x=-36.690*, z=83.716*, y=-3.749*, direction=90.0°*
  1: 0x0065 [0x1E] EventEntity looks at Trion (ID: 17731587/0x010E9003) and starts talking
  2: 0x006A [0x00] END_REQSTACK()
```

### Event 65535.8

#### Metadata

| Field        | Value    |
|--------------|----------|
| Entrypoint   | 0x006B   |
| Data Size    | 23 bytes |
| Instructions | 5        |

```
      00 01 02 03 04 05 06 07  08 09 0A 0B 0C 0D 0E 0F
      -- -- -- -- -- -- -- --  -- -- -- -- -- -- -- --
0060:                                   37 14 80 15 80             7....
0070: 12 80 16 80 32 17 80 1F  00 18 80 19 80 06 80 1F  ....2...........
0080: 01 00                                             ..              
```

#### Opcodes

```
  0: 0x006B [0x37] UPDATE_EVENT_POSITION_AND_DIR: x=-37.136*, z=73.534*, y=-3.749*, direction=88.2°*
  1: 0x0074 [0x32] ExtData[1]->MainSpeed = 40* * 0.1
  2: 0x0077 [0x1F] MOVE_ENTITY: EventEntity moves to X=-37.226*, Z=70.233*, Y=-3.000*
  3: 0x007F [0x1F] MOVE_ENTITY: Update entity position (mode=1)
  4: 0x0081 [0x00] END_REQSTACK()
```

### Event 65535.9

#### Metadata

| Field        | Value    |
|--------------|----------|
| Entrypoint   | 0x0082   |
| Data Size    | 22 bytes |
| Instructions | 4        |

```
      00 01 02 03 04 05 06 07  08 09 0A 0B 0C 0D 0E 0F
      -- -- -- -- -- -- -- --  -- -- -- -- -- -- -- --
0080:       22 00 79 00 F8 FF  FF 7F 07 90 0E 01 37 1A    ".y.........7.
0090: 80 1B 80 00 80 1C 80 00                           ........        
```

#### Opcodes

```
  0: 0x0082 [0x22] ENTITY_HIDE_FLAG(enabled=0x00)
  1: 0x0084 [0x79] EventEntity looks at Halver (ID: 17731591/0x010E9007) (Basic look)
  2: 0x008E [0x37] UPDATE_EVENT_POSITION_AND_DIR: x=3.204*, z=0.453*, y=0.000*, direction=235.5°*
  3: 0x0097 [0x00] END_REQSTACK()
```

### Event 65535.10

#### Metadata

| Field        | Value    |
|--------------|----------|
| Entrypoint   | 0x0098   |
| Data Size    | 10 bytes |
| Instructions | 2        |

```
      00 01 02 03 04 05 06 07  08 09 0A 0B 0C 0D 0E 0F
      -- -- -- -- -- -- -- --  -- -- -- -- -- -- -- --
0090:                          37 1D 80 1E 80 06 80 1F          7.......
00A0: 80 00                                             ..              
```

#### Opcodes

```
  0: 0x0098 [0x37] UPDATE_EVENT_POSITION_AND_DIR: x=-17.000*, z=67.673*, y=-3.000*, direction=180.7°*
  1: 0x00A1 [0x00] END_REQSTACK()
```

### Event 65535.11

#### Metadata

| Field        | Value    |
|--------------|----------|
| Entrypoint   | 0x00A2   |
| Data Size    | 14 bytes |
| Instructions | 4        |

```
      00 01 02 03 04 05 06 07  08 09 0A 0B 0C 0D 0E 0F
      -- -- -- -- -- -- -- --  -- -- -- -- -- -- -- --
00A0:       32 08 80 1F 00 09  80 1E 80 06 80 1F 01 00    2.............
```

#### Opcodes

```
  0: 0x00A2 [0x32] ExtData[1]->MainSpeed = 13* * 0.1
  1: 0x00A5 [0x1F] MOVE_ENTITY: EventEntity moves to X=-28.526*, Z=67.673*, Y=-3.000*
  2: 0x00AD [0x1F] MOVE_ENTITY: Update entity position (mode=1)
  3: 0x00AF [0x00] END_REQSTACK()
```

### Event 65535.12

#### Metadata

| Field        | Value    |
|--------------|----------|
| Entrypoint   | 0x00B0   |
| Data Size    | 18 bytes |
| Instructions | 4        |

```
      00 01 02 03 04 05 06 07  08 09 0A 0B 0C 0D 0E 0F
      -- -- -- -- -- -- -- --  -- -- -- -- -- -- -- --
00B0: 7B F8 FF FF 7F 32 08 80  37 20 80 21 80 22 80 23  {....2..7 .!.".#
00C0: 80 00                                             ..              
```

#### Opcodes

```
  0: 0x00B0 [0x7B] EventEntity stops talking
  1: 0x00B5 [0x32] ExtData[1]->MainSpeed = 13* * 0.1
  2: 0x00B8 [0x37] UPDATE_EVENT_POSITION_AND_DIR: x=-38.774*, z=68.500*, y=-3.249*, direction=271.0°*
  3: 0x00C1 [0x00] END_REQSTACK()
```

### Event 65535.13

#### Metadata

| Field        | Value    |
|--------------|----------|
| Entrypoint   | 0x00C2   |
| Data Size    | 14 bytes |
| Instructions | 4        |

```
      00 01 02 03 04 05 06 07  08 09 0A 0B 0C 0D 0E 0F
      -- -- -- -- -- -- -- --  -- -- -- -- -- -- -- --
00C0:       32 08 80 1F 00 24  80 25 80 12 80 1F 01 00    2....$.%......
```

#### Opcodes

```
  0: 0x00C2 [0x32] ExtData[1]->MainSpeed = 13* * 0.1
  1: 0x00C5 [0x1F] MOVE_ENTITY: EventEntity moves to X=-38.783*, Z=71.000*, Y=-3.749*
  2: 0x00CD [0x1F] MOVE_ENTITY: Update entity position (mode=1)
  3: 0x00CF [0x00] END_REQSTACK()
```

### Event 65535.14

#### Metadata

| Field        | Value    |
|--------------|----------|
| Entrypoint   | 0x00D0   |
| Data Size    | 24 bytes |
| Instructions | 6        |

```
      00 01 02 03 04 05 06 07  08 09 0A 0B 0C 0D 0E 0F
      -- -- -- -- -- -- -- --  -- -- -- -- -- -- -- --
00D0: 37 26 80 27 80 12 80 28  80 32 08 80 1F 00 26 80  7&.'...(.2....&.
00E0: 29 80 12 80 1F 01 6F 00                           ).....o.        
```

#### Opcodes

```
  0: 0x00D0 [0x37] UPDATE_EVENT_POSITION_AND_DIR: x=-39.198*, z=81.873*, y=-3.749*, direction=270.0°*
  1: 0x00D9 [0x32] ExtData[1]->MainSpeed = 13* * 0.1
  2: 0x00DC [0x1F] MOVE_ENTITY: EventEntity moves to X=-39.198*, Z=85.549*, Y=-3.749*
  3: 0x00E4 [0x1F] MOVE_ENTITY: Update entity position (mode=1)
  4: 0x00E6 [0x6F] WAIT_FRAME_DELAY: Yield until WaitTime reaches zero
  5: 0x00E7 [0x00] END_REQSTACK()
```

### Event 65535.15

#### Metadata

| Field        | Value    |
|--------------|----------|
| Entrypoint   | 0x00E8   |
| Data Size    | 31 bytes |
| Instructions | 7        |

```
      00 01 02 03 04 05 06 07  08 09 0A 0B 0C 0D 0E 0F
      -- -- -- -- -- -- -- --  -- -- -- -- -- -- -- --
00E0:                          37 2A 80 2B 80 12 80 2C          7*.+...,
00F0: 80 1C 2D 80 32 17 80 1F  00 2E 80 2F 80 06 80 1F  ..-.2....../....
0100: 01 1E 07 90 0E 01 00                              .......         
```

#### Opcodes

```
  0: 0x00E8 [0x37] UPDATE_EVENT_POSITION_AND_DIR: x=-38.791*, z=73.646*, y=-3.749*, direction=90.2°*
  1: 0x00F1 [0x1C] WAIT(30* ticks)
  2: 0x00F4 [0x32] ExtData[1]->MainSpeed = 40* * 0.1
  3: 0x00F7 [0x1F] MOVE_ENTITY: EventEntity moves to X=-38.776*, Z=70.111*, Y=-3.000*
  4: 0x00FF [0x1F] MOVE_ENTITY: Update entity position (mode=1)
  5: 0x0101 [0x1E] EventEntity looks at Halver (ID: 17731591/0x010E9007) and starts talking
  6: 0x0106 [0x00] END_REQSTACK()
```
