# 0x7FFFFFF0 - Zone Events

## Common Data

| Field            | Value                         |
|------------------|-------------------------------|
| Zone             | Chateau d'Oraguille (ID: 233) |
| Block Size       | 35880 bytes                   |
| Total Events     | 170                           |
| References Count | 827                           |

## List of Events

| Event ID                     | Entrypoint   |   Size |   Instructions |
|------------------------------|--------------|--------|----------------|
| [65535](#event-65535)        | 0x0000       |      7 |              2 |
| [65535.1](#event-655351)     | 0x0007       |      6 |              2 |
| [65535.2](#event-655352)     | 0x000D       |      6 |              2 |
| [112](#event-112)            | 0x0013       |   1645 |            222 |
| [66](#event-66)              | 0x0680       |      1 |              1 |
| [65535.3](#event-655353)     | 0x0681       |     10 |              2 |
| [65535.4](#event-655354)     | 0x068B       |     22 |              4 |
| [65535.5](#event-655355)     | 0x06A1       |     10 |              2 |
| [65535.6](#event-655356)     | 0x06AB       |     14 |              4 |
| [65535.7](#event-655357)     | 0x06B9       |     24 |              5 |
| [65535.8](#event-655358)     | 0x06D1       |     10 |              2 |
| [65535.9](#event-655359)     | 0x06DB       |     15 |              3 |
| [65535.10](#event-6553510)   | 0x06EA       |     23 |              5 |
| [65535.11](#event-6553511)   | 0x0701       |     22 |              4 |
| [65535.12](#event-6553512)   | 0x0717       |     10 |              2 |
| [65535.13](#event-6553513)   | 0x0721       |     14 |              4 |
| [65535.14](#event-6553514)   | 0x072F       |     18 |              4 |
| [65535.15](#event-6553515)   | 0x0741       |     14 |              4 |
| [65535.16](#event-6553516)   | 0x074F       |     24 |              6 |
| [65535.17](#event-6553517)   | 0x0767       |     31 |              7 |
| [65](#event-65)              | 0x0786       |   2259 |            304 |
| [48](#event-48)              | 0x1059       |   1147 |            155 |
| [44](#event-44)              | 0x14D4       |    270 |             37 |
| [43](#event-43)              | 0x15E2       |   1105 |            154 |
| [10](#event-10)              | 0x1A33       |   1556 |            200 |
| [65535.18](#event-6553518)   | 0x2047       |     10 |              2 |
| [65535.19](#event-6553519)   | 0x2051       |     14 |              4 |
| [65535.20](#event-6553520)   | 0x205F       |     24 |              6 |
| [65535.21](#event-6553521)   | 0x2077       |     13 |              4 |
| [65535.22](#event-6553522)   | 0x2084       |      6 |              2 |
| [65535.23](#event-6553523)   | 0x208A       |      6 |              2 |
| [65535.24](#event-6553524)   | 0x2090       |      6 |              2 |
| [65535.25](#event-6553525)   | 0x2096       |     10 |              2 |
| [65535.26](#event-6553526)   | 0x20A0       |     10 |              2 |
| [65535.27](#event-6553527)   | 0x20AA       |     14 |              4 |
| [65535.28](#event-6553528)   | 0x20B8       |     14 |              4 |
| [65535.29](#event-6553529)   | 0x20C6       |     14 |              4 |
| [65535.30](#event-6553530)   | 0x20D4       |     10 |              2 |
| [65535.31](#event-6553531)   | 0x20DE       |     10 |              2 |
| [65535.32](#event-6553532)   | 0x20E8       |     14 |              4 |
| [65535.33](#event-6553533)   | 0x20F6       |     14 |              4 |
| [65535.34](#event-6553534)   | 0x2104       |     10 |              2 |
| [65535.35](#event-6553535)   | 0x210E       |     10 |              2 |
| [65535.36](#event-6553536)   | 0x2118       |     14 |              4 |
| [65535.37](#event-6553537)   | 0x2126       |     14 |              4 |
| [65535.38](#event-6553538)   | 0x2134       |     39 |             11 |
| [65535.39](#event-6553539)   | 0x215B       |     39 |             11 |
| [65535.40](#event-6553540)   | 0x2182       |     13 |              3 |
| [65535.41](#event-6553541)   | 0x218F       |     30 |              9 |
| [65535.42](#event-6553542)   | 0x21AD       |     10 |              2 |
| [65535.43](#event-6553543)   | 0x21B7       |     13 |              3 |
| [65535.44](#event-6553544)   | 0x21C4       |     12 |              4 |
| [65535.45](#event-6553545)   | 0x21D0       |     14 |              4 |
| [64](#event-64)              | 0x21DE       |    373 |             49 |
| [63](#event-63)              | 0x2353       |    352 |             45 |
| [3](#event-3)                | 0x24B3       |    346 |             44 |
| [62](#event-62)              | 0x260D       |    371 |             49 |
| [75](#event-75)              | 0x2780       |    370 |             47 |
| [74](#event-74)              | 0x28F2       |    413 |             52 |
| [5](#event-5)                | 0x2A8F       |    330 |             43 |
| [73](#event-73)              | 0x2BD9       |    403 |             54 |
| [65535.46](#event-6553546)   | 0x2D6C       |     56 |             13 |
| [65535.47](#event-6553547)   | 0x2DA4       |     10 |              2 |
| [65535.48](#event-6553548)   | 0x2DAE       |     10 |              2 |
| [65535.49](#event-6553549)   | 0x2DB8       |     11 |              3 |
| [65535.50](#event-6553550)   | 0x2DC3       |      6 |              2 |
| [65535.51](#event-6553551)   | 0x2DC9       |      9 |              3 |
| [65535.52](#event-6553552)   | 0x2DD2       |      9 |              3 |
| [65535.53](#event-6553553)   | 0x2DDB       |     10 |              2 |
| [65535.54](#event-6553554)   | 0x2DE5       |      6 |              2 |
| [65535.55](#event-6553555)   | 0x2DEB       |      9 |              3 |
| [65535.56](#event-6553556)   | 0x2DF4       |     10 |              2 |
| [65535.57](#event-6553557)   | 0x2DFE       |     14 |              3 |
| [65535.58](#event-6553558)   | 0x2E0C       |     14 |              3 |
| [65535.59](#event-6553559)   | 0x2E1A       |     20 |              6 |
| [65535.60](#event-6553560)   | 0x2E2E       |     14 |              3 |
| [65535.61](#event-6553561)   | 0x2E3C       |      7 |              3 |
| [65535.62](#event-6553562)   | 0x2E43       |     14 |              4 |
| [65534](#event-65534)        | 0x2E51       |      1 |              1 |
| [65535.63](#event-6553563)   | 0x2E52       |     10 |              2 |
| [65535.64](#event-6553564)   | 0x2E5C       |     10 |              2 |
| [65535.65](#event-6553565)   | 0x2E66       |     36 |              4 |
| [65535.66](#event-6553566)   | 0x2E8A       |      9 |              3 |
| [65535.67](#event-6553567)   | 0x2E93       |     37 |              5 |
| [65535.68](#event-6553568)   | 0x2EB8       |    185 |             37 |
| [65535.69](#event-6553569)   | 0x2F71       |     24 |              4 |
| [65535.70](#event-6553570)   | 0x2F89       |     19 |              7 |
| [65535.71](#event-6553571)   | 0x2F9C       |     38 |             10 |
| [65535.72](#event-6553572)   | 0x2FC2       |     10 |              2 |
| [65535.73](#event-6553573)   | 0x2FCC       |     15 |              5 |
| [65535.74](#event-6553574)   | 0x2FDB       |     18 |              6 |
| [61](#event-61)              | 0x2FED       |   2030 |            270 |
| [93](#event-93)              | 0x37DB       |     63 |             16 |
| [94](#event-94)              | 0x381A       |    447 |             70 |
| [95](#event-95)              | 0x39D9       |    166 |             35 |
| [101](#event-101)            | 0x3A7F       |    746 |            102 |
| [99](#event-99)              | 0x3D69       |   1772 |            210 |
| [98](#event-98)              | 0x4455       |    187 |             41 |
| [96](#event-96)              | 0x4510       |    948 |            122 |
| [88](#event-88)              | 0x48C4       |    654 |             96 |
| [90](#event-90)              | 0x4B52       |    191 |             36 |
| [91](#event-91)              | 0x4C11       |    259 |             38 |
| [89](#event-89)              | 0x4D14       |   1547 |            209 |
| [115](#event-115)            | 0x531F       |     99 |             16 |
| [547](#event-547)            | 0x5382       |    285 |             40 |
| [534](#event-534)            | 0x549F       |   1551 |            206 |
| [81](#event-81)              | 0x5AAE       |    292 |             42 |
| [80](#event-80)              | 0x5BD2       |    106 |             16 |
| [21](#event-21)              | 0x5C3C       |    639 |             92 |
| [0](#event-0)                | 0x5EBB       |   1137 |            152 |
| [116](#event-116)            | 0x632C       |    345 |             41 |
| [100](#event-100)            | 0x6485       |   1231 |            171 |
| [104](#event-104)            | 0x6954       |    595 |             76 |
| [65535.75](#event-6553575)   | 0x6BA7       |     10 |              2 |
| [65535.76](#event-6553576)   | 0x6BB1       |     10 |              2 |
| [65535.77](#event-6553577)   | 0x6BBB       |     10 |              2 |
| [65535.78](#event-6553578)   | 0x6BC5       |     23 |              5 |
| [65535.79](#event-6553579)   | 0x6BDC       |     33 |              6 |
| [65535.80](#event-6553580)   | 0x6BFD       |     10 |              2 |
| [65535.81](#event-6553581)   | 0x6C07       |     10 |              2 |
| [65535.82](#event-6553582)   | 0x6C11       |     10 |              2 |
| [65535.83](#event-6553583)   | 0x6C1B       |     14 |              4 |
| [65535.84](#event-6553584)   | 0x6C29       |     10 |              2 |
| [65535.85](#event-6553585)   | 0x6C33       |     10 |              2 |
| [65535.86](#event-6553586)   | 0x6C3D       |     14 |              4 |
| [65535.87](#event-6553587)   | 0x6C4B       |     10 |              2 |
| [65535.88](#event-6553588)   | 0x6C55       |     10 |              2 |
| [65535.89](#event-6553589)   | 0x6C5F       |      6 |              2 |
| [65535.90](#event-6553590)   | 0x6C65       |      6 |              2 |
| [65535.91](#event-6553591)   | 0x6C6B       |      6 |              2 |
| [65535.92](#event-6553592)   | 0x6C71       |      6 |              2 |
| [65535.93](#event-6553593)   | 0x6C77       |      6 |              2 |
| [121](#event-121)            | 0x6C7D       |    900 |            122 |
| [120](#event-120)            | 0x7001       |   1388 |            189 |
| [65535.94](#event-6553594)   | 0x756D       |     25 |              4 |
| [65535.95](#event-6553595)   | 0x7586       |     41 |             11 |
| [65535.96](#event-6553596)   | 0x75AF       |     10 |              2 |
| [65535.97](#event-6553597)   | 0x75B9       |     15 |              3 |
| [65535.98](#event-6553598)   | 0x75C8       |     15 |              5 |
| [65535.99](#event-6553599)   | 0x75D7       |     24 |              4 |
| [65535.100](#event-65535100) | 0x75EF       |     24 |              4 |
| [65535.101](#event-65535101) | 0x7607       |     38 |              5 |
| [65535.102](#event-65535102) | 0x762D       |     38 |              5 |
| [65535.103](#event-65535103) | 0x7653       |     38 |              5 |
| [65535.104](#event-65535104) | 0x7679       |     37 |              5 |
| [65535.105](#event-65535105) | 0x769E       |     37 |              5 |
| [65535.106](#event-65535106) | 0x76C3       |     42 |              6 |
| [65535.107](#event-65535107) | 0x76ED       |     11 |              3 |
| [65535.108](#event-65535108) | 0x76F8       |     27 |              5 |
| [65535.109](#event-65535109) | 0x7713       |     28 |              8 |
| [65535.110](#event-65535110) | 0x772F       |     22 |              8 |
| [65535.111](#event-65535111) | 0x7745       |     15 |              5 |
| [65535.112](#event-65535112) | 0x7754       |     15 |              5 |
| [65535.113](#event-65535113) | 0x7763       |     15 |              5 |
| [65535.114](#event-65535114) | 0x7772       |     15 |              5 |
| [65535.115](#event-65535115) | 0x7781       |     15 |              5 |
| [65535.116](#event-65535116) | 0x7790       |     15 |              5 |
| [65535.117](#event-65535117) | 0x779F       |     15 |              5 |
| [65535.118](#event-65535118) | 0x77AE       |     15 |              5 |
| [65535.119](#event-65535119) | 0x77BD       |     28 |              8 |
| [65535.120](#event-65535120) | 0x77D9       |    222 |             26 |
| [65535.121](#event-65535121) | 0x78B7       |    222 |             26 |
| [65535.122](#event-65535122) | 0x7995       |    222 |             26 |
| [65535.123](#event-65535123) | 0x7A73       |    222 |             26 |
| [65535.124](#event-65535124) | 0x7B51       |    222 |             26 |
| [65535.125](#event-65535125) | 0x7C2F       |     15 |              5 |
| [65535.126](#event-65535126) | 0x7C3E       |     25 |              7 |
| [65535.127](#event-65535127) | 0x7C57       |     15 |              5 |
| [65535.128](#event-65535128) | 0x7C66       |     15 |              5 |
| [65535.129](#event-65535129) | 0x7C75       |     15 |              5 |

## DAT References (imed_data)

|   Index | Hex Value   |   Dec Value |
|---------|-------------|-------------|
|       0 | 0x1F18      |        7960 |
|       1 | 0x1F19      |        7961 |
|       2 | 0x00C8      |         200 |
|       3 | 0x0000      |           0 |
|       4 | 0x007B      |         123 |
|       5 | 0x0003      |           3 |
|       6 | 0x000A      |          10 |
|       7 | 0x0E61      |        3681 |
|       8 | 0x03BF      |         959 |
|       9 | 0x0983      |        2435 |
|      10 | 0x0032      |          50 |
|      11 | 0x0001      |           1 |
|      12 | 0x0037      |          55 |
|      13 | 0x1F1B      |        7963 |
|      14 | 0x1F1C      |        7964 |
|      15 | 0x1F1D      |        7965 |
|      16 | 0x1F1E      |        7966 |
|      17 | 0x1F1F      |        7967 |
|      18 | 0x1F20      |        7968 |
|      19 | 0x003C      |          60 |
|      20 | 0x1F21      |        7969 |
|      21 | 0x1F22      |        7970 |
|      22 | 0x1F23      |        7971 |
|      23 | 0x001E      |          30 |
|      24 | 0x1F24      |        7972 |
|      25 | 0x1F25      |        7973 |
|      26 | 0x000F      |          15 |
|      27 | 0x1F26      |        7974 |
|      28 | 0x1F27      |        7975 |
|      29 | 0x1F28      |        7976 |
|      30 | 0x1F29      |        7977 |
|      31 | 0x1F2A      |        7978 |
|      32 | 0x1F2B      |        7979 |
|      33 | 0x1F2C      |        7980 |
|      34 | 0x0014      |          20 |
|      35 | 0x1F2D      |        7981 |
|      36 | 0x1F2E      |        7982 |
|      37 | 0x1F2F      |        7983 |
|      38 | 0x1F30      |        7984 |
|      39 | 0x1F31      |        7985 |
|      40 | 0x1F32      |        7986 |
|      41 | 0x1F33      |        7987 |
|      42 | 0x1F35      |        7989 |
|      43 | 0x1F36      |        7990 |
|      44 | 0x1F37      |        7991 |
|      45 | 0x1F38      |        7992 |
|      46 | 0x1F39      |        7993 |
|      47 | 0x1F3A      |        7994 |
|      48 | 0x1F3B      |        7995 |
|      49 | 0x1F3C      |        7996 |
|      50 | 0x1F3D      |        7997 |
|      51 | 0x1F3E      |        7998 |
|      52 | 0x000D      |          13 |
|      53 | 0x1F3F      |        7999 |
|      54 | 0x1F41      |        8001 |
|      55 | 0x1F40      |        8000 |
|      56 | 0x009C      |         156 |
|      57 | 0x068E      |        1678 |
|      58 | 0x01EB      |         491 |
|      59 | 0x0D0D      |        3341 |
|      60 | 0xFFFFC180  |  4294951296 |
|      61 | 0x10D3A     |       68922 |
|      62 | 0xFFFFF448  |  4294964296 |
|      63 | 0x080E      |        2062 |
|      64 | 0xFFFF9092  |  4294938770 |
|      65 | 0xFFFF6E64  |  4294930020 |
|      66 | 0x11A92     |       72338 |
|      67 | 0xFFFFF255  |  4294963797 |
|      68 | 0xFFFF6E3D  |  4294929981 |
|      69 | 0x10E18     |       69144 |
|      70 | 0x0C0F      |        3087 |
|      71 | 0xFFFF70AE  |  4294930606 |
|      72 | 0x14704     |       83716 |
|      73 | 0xFFFFF15B  |  4294963547 |
|      74 | 0x0400      |        1024 |
|      75 | 0xFFFF6EF0  |  4294930160 |
|      76 | 0x11F3E     |       73534 |
|      77 | 0x03EB      |        1003 |
|      78 | 0x0028      |          40 |
|      79 | 0xFFFF6E96  |  4294930070 |
|      80 | 0x11259     |       70233 |
|      81 | 0x0C84      |        3204 |
|      82 | 0x01C5      |         453 |
|      83 | 0x0A77      |        2679 |
|      84 | 0xFFFFBD98  |  4294950296 |
|      85 | 0x10859     |       67673 |
|      86 | 0x0808      |        2056 |
|      87 | 0xFFFF688A  |  4294928522 |
|      88 | 0x10B94     |       68500 |
|      89 | 0xFFFFF34F  |  4294964047 |
|      90 | 0x0C0C      |        3084 |
|      91 | 0xFFFF6881  |  4294928513 |
|      92 | 0x11558     |       71000 |
|      93 | 0xFFFF66E2  |  4294928098 |
|      94 | 0x13FD1     |       81873 |
|      95 | 0x0C00      |        3072 |
|      96 | 0x14E2D     |       85549 |
|      97 | 0xFFFF6879  |  4294928505 |
|      98 | 0x11FAE     |       73646 |
|      99 | 0x0402      |        1026 |
|     100 | 0xFFFF6888  |  4294928520 |
|     101 | 0x111DF     |       70111 |
|     102 | 0x1F42      |        8002 |
|     103 | 0x1F43      |        8003 |
|     104 | 0x0040      |          64 |
|     105 | 0x0078      |         120 |
|     106 | 0x0036      |          54 |
|     107 | 0x1F44      |        8004 |
|     108 | 0x1F45      |        8005 |
|     109 | 0x1F46      |        8006 |
|     110 | 0x007C      |         124 |
|     111 | 0x1F47      |        8007 |
|     112 | 0x1F48      |        8008 |
|     113 | 0x1F49      |        8009 |
|     114 | 0x1F4A      |        8010 |
|     115 | 0x1F4B      |        8011 |
|     116 | 0x1F4C      |        8012 |
|     117 | 0x0005      |           5 |
|     118 | 0x1F4D      |        8013 |
|     119 | 0x007F      |         127 |
|     120 | 0x1F4E      |        8014 |
|     121 | 0x1F4F      |        8015 |
|     122 | 0x1F50      |        8016 |
|     123 | 0x1F51      |        8017 |
|     124 | 0x1F52      |        8018 |
|     125 | 0x1F53      |        8019 |
|     126 | 0x1F54      |        8020 |
|     127 | 0x1F55      |        8021 |
|     128 | 0x1F56      |        8022 |
|     129 | 0x1F57      |        8023 |
|     130 | 0x1F58      |        8024 |
|     131 | 0x1F59      |        8025 |
|     132 | 0x1F5A      |        8026 |
|     133 | 0x1F5B      |        8027 |
|     134 | 0x1F5C      |        8028 |
|     135 | 0x1F5D      |        8029 |
|     136 | 0x1F5E      |        8030 |
|     137 | 0x1F5F      |        8031 |
|     138 | 0x1F60      |        8032 |
|     139 | 0x1F61      |        8033 |
|     140 | 0x1F62      |        8034 |
|     141 | 0x1F63      |        8035 |
|     142 | 0x1F64      |        8036 |
|     143 | 0x1F65      |        8037 |
|     144 | 0x1F66      |        8038 |
|     145 | 0x1F67      |        8039 |
|     146 | 0x1F68      |        8040 |
|     147 | 0x1F69      |        8041 |
|     148 | 0x1F6A      |        8042 |
|     149 | 0x1F6B      |        8043 |
|     150 | 0x1F6C      |        8044 |
|     151 | 0x1F6D      |        8045 |
|     152 | 0x1F6E      |        8046 |
|     153 | 0x1F6F      |        8047 |
|     154 | 0x1F70      |        8048 |
|     155 | 0x1F71      |        8049 |
|     156 | 0x08D1      |        2257 |
|     157 | 0x0068      |         104 |
|     158 | 0x0C3D      |        3133 |
|     159 | 0x1F72      |        8050 |
|     160 | 0x1F73      |        8051 |
|     161 | 0x1F74      |        8052 |
|     162 | 0x1FB5      |        8117 |
|     163 | 0x1FB6      |        8118 |
|     164 | 0x1FB7      |        8119 |
|     165 | 0x1FB8      |        8120 |
|     166 | 0x1FB9      |        8121 |
|     167 | 0x1FBA      |        8122 |
|     168 | 0x0173      |         371 |
|     169 | 0x6C9F      |       27807 |
|     170 | 0x01DA      |         474 |
|     171 | 0x01FF      |         511 |
|     172 | 0x1F00      |        7936 |
|     173 | 0x1F01      |        7937 |
|     174 | 0x012C      |         300 |
|     175 | 0x1F02      |        7938 |
|     176 | 0x1F03      |        7939 |
|     177 | 0x1F04      |        7940 |
|     178 | 0x1F05      |        7941 |
|     179 | 0x1F06      |        7942 |
|     180 | 0x1F07      |        7943 |
|     181 | 0x1F08      |        7944 |
|     182 | 0x1F09      |        7945 |
|     183 | 0x1F0A      |        7946 |
|     184 | 0x1F0B      |        7947 |
|     185 | 0x1F0C      |        7948 |
|     186 | 0x1F0D      |        7949 |
|     187 | 0x1F0E      |        7950 |
|     188 | 0x1F0F      |        7951 |
|     189 | 0x0096      |         150 |
|     190 | 0x1F10      |        7952 |
|     191 | 0x1F11      |        7953 |
|     192 | 0x1F12      |        7954 |
|     193 | 0x005A      |          90 |
|     194 | 0x1F13      |        7955 |
|     195 | 0x1F14      |        7956 |
|     196 | 0x1F15      |        7957 |
|     197 | 0x1F16      |        7958 |
|     198 | 0x00C9      |         201 |
|     199 | 0x44F6      |       17654 |
|     200 | 0x0158      |         344 |
|     201 | 0x0159      |         345 |
|     202 | 0x1EFB      |        7931 |
|     203 | 0x1EFC      |        7932 |
|     204 | 0x008C      |         140 |
|     205 | 0x1EFD      |        7933 |
|     206 | 0x1EFE      |        7934 |
|     207 | 0x1ED8      |        7896 |
|     208 | 0x1ED9      |        7897 |
|     209 | 0x1EDA      |        7898 |
|     210 | 0x1EDB      |        7899 |
|     211 | 0x1EDC      |        7900 |
|     212 | 0x1EDD      |        7901 |
|     213 | 0x1EDE      |        7902 |
|     214 | 0x1EDF      |        7903 |
|     215 | 0x1EE0      |        7904 |
|     216 | 0x1EE1      |        7905 |
|     217 | 0x1EE2      |        7906 |
|     218 | 0x1EE3      |        7907 |
|     219 | 0x1EE4      |        7908 |
|     220 | 0x1EE5      |        7909 |
|     221 | 0x1EE6      |        7910 |
|     222 | 0x1EE7      |        7911 |
|     223 | 0x00F0      |         240 |
|     224 | 0x1EE8      |        7912 |
|     225 | 0x1EE9      |        7913 |
|     226 | 0x1EEA      |        7914 |
|     227 | 0x1EEB      |        7915 |
|     228 | 0x1EEC      |        7916 |
|     229 | 0x1EED      |        7917 |
|     230 | 0x1EEE      |        7918 |
|     231 | 0x1EEF      |        7919 |
|     232 | 0x1EF0      |        7920 |
|     233 | 0xFFFFE0D5  |  4294959317 |
|     234 | 0x0BFE      |        3070 |
|     235 | 0x00A1      |         161 |
|     236 | 0xFFFFF3A2  |  4294964130 |
|     237 | 0x1E58      |        7768 |
|     238 | 0x1E59      |        7769 |
|     239 | 0x1E5A      |        7770 |
|     240 | 0x1E5B      |        7771 |
|     241 | 0x1E5C      |        7772 |
|     242 | 0x1E5D      |        7773 |
|     243 | 0x1E5E      |        7774 |
|     244 | 0x1E5F      |        7775 |
|     245 | 0x1E60      |        7776 |
|     246 | 0x1E61      |        7777 |
|     247 | 0x1E62      |        7778 |
|     248 | 0x1E63      |        7779 |
|     249 | 0x1E64      |        7780 |
|     250 | 0x1E65      |        7781 |
|     251 | 0x1E66      |        7782 |
|     252 | 0x1E67      |        7783 |
|     253 | 0x1E68      |        7784 |
|     254 | 0x1E69      |        7785 |
|     255 | 0x1E6A      |        7786 |
|     256 | 0x1E6B      |        7787 |
|     257 | 0x1E6C      |        7788 |
|     258 | 0x1E6D      |        7789 |
|     259 | 0x1E6E      |        7790 |
|     260 | 0x1E6F      |        7791 |
|     261 | 0x1E70      |        7792 |
|     262 | 0x1E71      |        7793 |
|     263 | 0x1E72      |        7794 |
|     264 | 0x1E73      |        7795 |
|     265 | 0x1E74      |        7796 |
|     266 | 0x0064      |         100 |
|     267 | 0x1E75      |        7797 |
|     268 | 0x1E76      |        7798 |
|     269 | 0x1E77      |        7799 |
|     270 | 0x00FA      |         250 |
|     271 | 0xFFFFFF9B  |  4294967195 |
|     272 | 0x48A7      |       18599 |
|     273 | 0xFFFFFA24  |  4294965796 |
|     274 | 0x5F4C      |       24396 |
|     275 | 0xFFFFFA25  |  4294965797 |
|     276 | 0x6B89      |       27529 |
|     277 | 0x0BD1      |        3025 |
|     278 | 0x9249      |       37449 |
|     279 | 0xFFFFF449  |  4294964297 |
|     280 | 0xFFFF6B60  |  4294929248 |
|     281 | 0x11E05     |       73221 |
|     282 | 0xFFFF6BCA  |  4294929354 |
|     283 | 0x130AB     |       77995 |
|     284 | 0xFFFF6B90  |  4294929296 |
|     285 | 0xFFFF6BCB  |  4294929355 |
|     286 | 0x12EED     |       77549 |
|     287 | 0x11F7D     |       73597 |
|     288 | 0xFFFF6B95  |  4294929301 |
|     289 | 0x77ED      |       30701 |
|     290 | 0xFFFF6B87  |  4294929287 |
|     291 | 0x67C2      |       26562 |
|     292 | 0xFFFF6B88  |  4294929288 |
|     293 | 0x68CC      |       26828 |
|     294 | 0xFFFF6B96  |  4294929302 |
|     295 | 0x76B4      |       30388 |
|     296 | 0xFFFFFFFF  |  4294967295 |
|     297 | 0x3C00      |       15360 |
|     298 | 0x4D1D      |       19741 |
|     299 | 0x6BE3      |       27619 |
|     300 | 0x78CE      |       30926 |
|     301 | 0x887D      |       34941 |
|     302 | 0x8FE6      |       36838 |
|     303 | 0x0C03      |        3075 |
|     304 | 0xFFFFF2D0  |  4294963920 |
|     305 | 0x90F5      |       37109 |
|     306 | 0x002C      |          44 |
|     307 | 0x4AC6      |       19142 |
|     308 | 0x040A      |        1034 |
|     309 | 0xFFFFFFD3  |  4294967251 |
|     310 | 0x39E2      |       14818 |
|     311 | 0x91D3      |       37331 |
|     312 | 0x0176      |         374 |
|     313 | 0xFFFF6BBF  |  4294929343 |
|     314 | 0x144B3     |       83123 |
|     315 | 0x00F3      |         243 |
|     316 | 0xFFFF6B83  |  4294929283 |
|     317 | 0x14F78     |       85880 |
|     318 | 0x1A9E      |        6814 |
|     319 | 0x1A9F      |        6815 |
|     320 | 0x1AA0      |        6816 |
|     321 | 0x1AA1      |        6817 |
|     322 | 0x1AA2      |        6818 |
|     323 | 0x1AC8      |        6856 |
|     324 | 0x1AC9      |        6857 |
|     325 | 0x1ACA      |        6858 |
|     326 | 0x1ECA      |        7882 |
|     327 | 0x1ECB      |        7883 |
|     328 | 0x1ECC      |        7884 |
|     329 | 0x1ECD      |        7885 |
|     330 | 0x1ECE      |        7886 |
|     331 | 0x1ECF      |        7887 |
|     332 | 0x1ED0      |        7888 |
|     333 | 0x0177      |         375 |
|     334 | 0xFFFF6F5C  |  4294930268 |
|     335 | 0x615B      |       24923 |
|     336 | 0xFFFFF15A  |  4294963546 |
|     337 | 0x01D0      |         464 |
|     338 | 0xFFFF7692  |  4294932114 |
|     339 | 0x54D6      |       21718 |
|     340 | 0xFFFFF131  |  4294963505 |
|     341 | 0x1AA3      |        6819 |
|     342 | 0x1AA4      |        6820 |
|     343 | 0x1AA5      |        6821 |
|     344 | 0x1ACB      |        6859 |
|     345 | 0x1ACC      |        6860 |
|     346 | 0x1ACD      |        6861 |
|     347 | 0x1ACE      |        6862 |
|     348 | 0x1ED1      |        7889 |
|     349 | 0x1ED2      |        7890 |
|     350 | 0x1ED3      |        7891 |
|     351 | 0x1ED4      |        7892 |
|     352 | 0x1ED5      |        7893 |
|     353 | 0x1ED6      |        7894 |
|     354 | 0x1ED7      |        7895 |
|     355 | 0xFFFEB3BA  |  4294882234 |
|     356 | 0x124F8     |       75000 |
|     357 | 0x018E      |         398 |
|     358 | 0x09B3      |        2483 |
|     359 | 0xFFFEA55D  |  4294878557 |
|     360 | 0x12FCD     |       77773 |
|     361 | 0xFFFE8280  |  4294869632 |
|     362 | 0x12838     |       75832 |
|     363 | 0x0ACA      |        2762 |
|     364 | 0x0388      |         904 |
|     365 | 0xFFFEAC47  |  4294880327 |
|     366 | 0xF164      |       61796 |
|     367 | 0xFFFFFBB3  |  4294966195 |
|     368 | 0x0B2D      |        2861 |
|     369 | 0x0736      |        1846 |
|     370 | 0xFFFE87C9  |  4294870985 |
|     371 | 0x1283A     |       75834 |
|     372 | 0xFFFE601F  |  4294860831 |
|     373 | 0x121E8     |       74216 |
|     374 | 0x0355      |         853 |
|     375 | 0x03EF      |        1007 |
|     376 | 0x0570      |        1392 |
|     377 | 0x0EDB      |        3803 |
|     378 | 0x046D      |        1133 |
|     379 | 0x08DD      |        2269 |
|     380 | 0x002D      |          45 |
|     381 | 0x0438      |        1080 |
|     382 | 0x14201     |       82433 |
|     383 | 0x6C8F      |       27791 |
|     384 | 0xFFFFFEAC  |  4294966956 |
|     385 | 0x010F      |         271 |
|     386 | 0xFFFE6840  |  4294862912 |
|     387 | 0x11812     |       71698 |
|     388 | 0x0887      |        2183 |
|     389 | 0x0085      |         133 |
|     390 | 0x0002      |           2 |
|     391 | 0x0009      |           9 |
|     392 | 0x0046      |          70 |
|     393 | 0x00D2      |         210 |
|     394 | 0x799B      |       31131 |
|     395 | 0x6C91      |       27793 |
|     396 | 0x4A17      |       18967 |
|     397 | 0xFFFFC932  |  4294953266 |
|     398 | 0x0BF1      |        3057 |
|     399 | 0xFFFFF060  |  4294963296 |
|     400 | 0xFFFFFB07  |  4294966023 |
|     401 | 0x03F6      |        1014 |
|     402 | 0x0099      |         153 |
|     403 | 0x00BB      |         187 |
|     404 | 0x1C74      |        7284 |
|     405 | 0x1C75      |        7285 |
|     406 | 0x1C76      |        7286 |
|     407 | 0x004A      |          74 |
|     408 | 0x1C77      |        7287 |
|     409 | 0x1C7A      |        7290 |
|     410 | 0x1C7B      |        7291 |
|     411 | 0x1C7C      |        7292 |
|     412 | 0x1C7D      |        7293 |
|     413 | 0x1C7E      |        7294 |
|     414 | 0x1C7F      |        7295 |
|     415 | 0x1C80      |        7296 |
|     416 | 0x1C81      |        7297 |
|     417 | 0x1C82      |        7298 |
|     418 | 0x1C83      |        7299 |
|     419 | 0x1C84      |        7300 |
|     420 | 0x1C85      |        7301 |
|     421 | 0x1C86      |        7302 |
|     422 | 0x1C87      |        7303 |
|     423 | 0x1C88      |        7304 |
|     424 | 0x1C89      |        7305 |
|     425 | 0x1C8A      |        7306 |
|     426 | 0x1C8B      |        7307 |
|     427 | 0x1C8C      |        7308 |
|     428 | 0x1C8D      |        7309 |
|     429 | 0x1C8E      |        7310 |
|     430 | 0x1C8F      |        7311 |
|     431 | 0x1C90      |        7312 |
|     432 | 0x7E10      |       32272 |
|     433 | 0x1D06      |        7430 |
|     434 | 0x1D07      |        7431 |
|     435 | 0x1D08      |        7432 |
|     436 | 0x1D05      |        7429 |
|     437 | 0x6B1B      |       27419 |
|     438 | 0xFFFFFC31  |  4294966321 |
|     439 | 0x0FA8      |        4008 |
|     440 | 0x1D09      |        7433 |
|     441 | 0x1D0A      |        7434 |
|     442 | 0x1D0B      |        7435 |
|     443 | 0x1D0C      |        7436 |
|     444 | 0x1D0D      |        7437 |
|     445 | 0x1D0E      |        7438 |
|     446 | 0x1D0F      |        7439 |
|     447 | 0x1D10      |        7440 |
|     448 | 0x1D11      |        7441 |
|     449 | 0x1D13      |        7443 |
|     450 | 0x1D14      |        7444 |
|     451 | 0x1D15      |        7445 |
|     452 | 0x1D16      |        7446 |
|     453 | 0x1D17      |        7447 |
|     454 | 0x1D18      |        7448 |
|     455 | 0x1D19      |        7449 |
|     456 | 0x1D1A      |        7450 |
|     457 | 0x1D1B      |        7451 |
|     458 | 0x1D1C      |        7452 |
|     459 | 0x1D1D      |        7453 |
|     460 | 0x1D1E      |        7454 |
|     461 | 0x1D1F      |        7455 |
|     462 | 0x1D20      |        7456 |
|     463 | 0x1D21      |        7457 |
|     464 | 0x1D22      |        7458 |
|     465 | 0x0175      |         373 |
|     466 | 0x1D30      |        7472 |
|     467 | 0x00CF      |         207 |
|     468 | 0xFFFE6955  |  4294863189 |
|     469 | 0x11A2D     |       72237 |
|     470 | 0x07CC      |        1996 |
|     471 | 0x1D31      |        7473 |
|     472 | 0x1D32      |        7474 |
|     473 | 0x009F      |         159 |
|     474 | 0x0083      |         131 |
|     475 | 0x1D33      |        7475 |
|     476 | 0x1D34      |        7476 |
|     477 | 0x1D35      |        7477 |
|     478 | 0x1D36      |        7478 |
|     479 | 0x1D37      |        7479 |
|     480 | 0x1D38      |        7480 |
|     481 | 0x1D39      |        7481 |
|     482 | 0x1D3A      |        7482 |
|     483 | 0x1D3B      |        7483 |
|     484 | 0x1D3C      |        7484 |
|     485 | 0x1D3D      |        7485 |
|     486 | 0x1D3E      |        7486 |
|     487 | 0x1D3F      |        7487 |
|     488 | 0x1D40      |        7488 |
|     489 | 0x1D41      |        7489 |
|     490 | 0x1D42      |        7490 |
|     491 | 0x1D43      |        7491 |
|     492 | 0x1D44      |        7492 |
|     493 | 0x1D45      |        7493 |
|     494 | 0x1D46      |        7494 |
|     495 | 0x1D47      |        7495 |
|     496 | 0x1D49      |        7497 |
|     497 | 0x1D48      |        7496 |
|     498 | 0x1D4A      |        7498 |
|     499 | 0xFFFE65DB  |  4294862299 |
|     500 | 0x11FCF     |       73679 |
|     501 | 0x0FA1      |        4001 |
|     502 | 0x1D4C      |        7500 |
|     503 | 0x1D4D      |        7501 |
|     504 | 0x1D4E      |        7502 |
|     505 | 0x1D4F      |        7503 |
|     506 | 0x1D50      |        7504 |
|     507 | 0x1D52      |        7506 |
|     508 | 0x1D53      |        7507 |
|     509 | 0x00D0      |         208 |
|     510 | 0x1D54      |        7508 |
|     511 | 0x1D55      |        7509 |
|     512 | 0xFFFF6629  |  4294927913 |
|     513 | 0x15428     |       87080 |
|     514 | 0x022C      |         556 |
|     515 | 0x1D56      |        7510 |
|     516 | 0x1D57      |        7511 |
|     517 | 0x1D58      |        7512 |
|     518 | 0x1D59      |        7513 |
|     519 | 0x1D5A      |        7514 |
|     520 | 0x1D5B      |        7515 |
|     521 | 0x1D5C      |        7516 |
|     522 | 0x1D5D      |        7517 |
|     523 | 0x1D5E      |        7518 |
|     524 | 0x370F      |       14095 |
|     525 | 0x1D64      |        7524 |
|     526 | 0x1D5F      |        7519 |
|     527 | 0x1D60      |        7520 |
|     528 | 0x1D61      |        7521 |
|     529 | 0x1D62      |        7522 |
|     530 | 0x1D63      |        7523 |
|     531 | 0x1D65      |        7525 |
|     532 | 0xFFFF6B82  |  4294929282 |
|     533 | 0x122D8     |       74456 |
|     534 | 0x0BCB      |        3019 |
|     535 | 0xFFFF6BDC  |  4294929372 |
|     536 | 0x150D2     |       86226 |
|     537 | 0xFFFF6B9F  |  4294929311 |
|     538 | 0x1440C     |       82956 |
|     539 | 0x0C01      |        3073 |
|     540 | 0xFFFF6BD5  |  4294929365 |
|     541 | 0x14E64     |       85604 |
|     542 | 0x1D66      |        7526 |
|     543 | 0x3164      |       12644 |
|     544 | 0x1D67      |        7527 |
|     545 | 0x1D68      |        7528 |
|     546 | 0xFFFF71DC  |  4294930908 |
|     547 | 0x155E1     |       87521 |
|     548 | 0x058D      |        1421 |
|     549 | 0x1D69      |        7529 |
|     550 | 0x1D6A      |        7530 |
|     551 | 0x1D6B      |        7531 |
|     552 | 0x1D6C      |        7532 |
|     553 | 0x1D6D      |        7533 |
|     554 | 0x1D6E      |        7534 |
|     555 | 0x1D6F      |        7535 |
|     556 | 0x1D70      |        7536 |
|     557 | 0x1D71      |        7537 |
|     558 | 0x1D72      |        7538 |
|     559 | 0x1D73      |        7539 |
|     560 | 0x1D74      |        7540 |
|     561 | 0x1D75      |        7541 |
|     562 | 0x1C00      |        7168 |
|     563 | 0x1C01      |        7169 |
|     564 | 0x1C05      |        7173 |
|     565 | 0x1C06      |        7174 |
|     566 | 0x1C07      |        7175 |
|     567 | 0x1C08      |        7176 |
|     568 | 0x0007      |           7 |
|     569 | 0x1DE8      |        7656 |
|     570 | 0x0EFD      |        3837 |
|     571 | 0xFFFFFED8  |  4294967000 |
|     572 | 0x0A8C      |        2700 |
|     573 | 0x1DE9      |        7657 |
|     574 | 0x1DEA      |        7658 |
|     575 | 0x1DEB      |        7659 |
|     576 | 0x1DEC      |        7660 |
|     577 | 0x1DED      |        7661 |
|     578 | 0x1DEE      |        7662 |
|     579 | 0x1DEF      |        7663 |
|     580 | 0x1DF0      |        7664 |
|     581 | 0x1DF1      |        7665 |
|     582 | 0x1DF2      |        7666 |
|     583 | 0x1DF3      |        7667 |
|     584 | 0x1DF4      |        7668 |
|     585 | 0x1DF5      |        7669 |
|     586 | 0x1DF6      |        7670 |
|     587 | 0x1DF7      |        7671 |
|     588 | 0x1DF8      |        7672 |
|     589 | 0x1DF9      |        7673 |
|     590 | 0x1DFA      |        7674 |
|     591 | 0x1DFB      |        7675 |
|     592 | 0x1DFC      |        7676 |
|     593 | 0x1DFD      |        7677 |
|     594 | 0x1A6B      |        6763 |
|     595 | 0x1A6C      |        6764 |
|     596 | 0x1A6D      |        6765 |
|     597 | 0x00F2      |         242 |
|     598 | 0x1A6E      |        6766 |
|     599 | 0x1A6F      |        6767 |
|     600 | 0x1A70      |        6768 |
|     601 | 0x1A71      |        6769 |
|     602 | 0x1A73      |        6771 |
|     603 | 0x00B4      |         180 |
|     604 | 0xFFFFFD0C  |  4294966540 |
|     605 | 0x85F6      |       34294 |
|     606 | 0x0C17      |        3095 |
|     607 | 0xFFFFFCF4  |  4294966516 |
|     608 | 0x8AA6      |       35494 |
|     609 | 0x1A74      |        6772 |
|     610 | 0x1A75      |        6773 |
|     611 | 0x1A76      |        6774 |
|     612 | 0x1A77      |        6775 |
|     613 | 0x1A78      |        6776 |
|     614 | 0x1A79      |        6777 |
|     615 | 0x1A7A      |        6778 |
|     616 | 0x1A7B      |        6779 |
|     617 | 0x1A7C      |        6780 |
|     618 | 0x1A7D      |        6781 |
|     619 | 0x1A7E      |        6782 |
|     620 | 0x1A83      |        6787 |
|     621 | 0x1A84      |        6788 |
|     622 | 0x1A85      |        6789 |
|     623 | 0x1A86      |        6790 |
|     624 | 0x1A87      |        6791 |
|     625 | 0x1A88      |        6792 |
|     626 | 0x1A89      |        6793 |
|     627 | 0x1A8A      |        6794 |
|     628 | 0xFFFEB481  |  4294882433 |
|     629 | 0x12906     |       76038 |
|     630 | 0x0932      |        2354 |
|     631 | 0xFFFEA9EB  |  4294879723 |
|     632 | 0x130F9     |       78073 |
|     633 | 0x010C      |         268 |
|     634 | 0x1A8B      |        6795 |
|     635 | 0x1A8C      |        6796 |
|     636 | 0x1A8D      |        6797 |
|     637 | 0x1A8E      |        6798 |
|     638 | 0x1A8F      |        6799 |
|     639 | 0x1A90      |        6800 |
|     640 | 0x1A91      |        6801 |
|     641 | 0x1A92      |        6802 |
|     642 | 0x1A93      |        6803 |
|     643 | 0x1A94      |        6804 |
|     644 | 0x1A95      |        6805 |
|     645 | 0x0013      |          19 |
|     646 | 0x1A96      |        6806 |
|     647 | 0x1A97      |        6807 |
|     648 | 0x1A98      |        6808 |
|     649 | 0x0136      |         310 |
|     650 | 0xFFFFFD7B  |  4294966651 |
|     651 | 0x5057      |       20567 |
|     652 | 0x0B8B      |        2955 |
|     653 | 0x1AA8      |        6824 |
|     654 | 0x009D      |         157 |
|     655 | 0xFFFFFC69  |  4294966377 |
|     656 | 0x5B1F      |       23327 |
|     657 | 0x1AA9      |        6825 |
|     658 | 0x1AAA      |        6826 |
|     659 | 0x1AAB      |        6827 |
|     660 | 0x1AAC      |        6828 |
|     661 | 0x1AAD      |        6829 |
|     662 | 0x1AAE      |        6830 |
|     663 | 0x1AAF      |        6831 |
|     664 | 0x1AB0      |        6832 |
|     665 | 0x1AB1      |        6833 |
|     666 | 0x1AB2      |        6834 |
|     667 | 0x1AB3      |        6835 |
|     668 | 0x1AB4      |        6836 |
|     669 | 0x1AB5      |        6837 |
|     670 | 0x1AB6      |        6838 |
|     671 | 0x1AB7      |        6839 |
|     672 | 0x1ABE      |        6846 |
|     673 | 0x1ABF      |        6847 |
|     674 | 0x1AC0      |        6848 |
|     675 | 0x1AC1      |        6849 |
|     676 | 0x1AC2      |        6850 |
|     677 | 0x0027      |          39 |
|     678 | 0x00E6      |         230 |
|     679 | 0xFFFF68F7  |  4294928631 |
|     680 | 0x7226      |       29222 |
|     681 | 0x0122      |         290 |
|     682 | 0xFFFF68C5  |  4294928581 |
|     683 | 0x7215      |       29205 |
|     684 | 0x0094      |         148 |
|     685 | 0xFFFF6964  |  4294928740 |
|     686 | 0x74B3      |       29875 |
|     687 | 0x0D4F      |        3407 |
|     688 | 0xFFFF6B7C  |  4294929276 |
|     689 | 0x6851      |       26705 |
|     690 | 0xFFFFF14C  |  4294963532 |
|     691 | 0x0398      |         920 |
|     692 | 0xFFFF6BAC  |  4294929324 |
|     693 | 0x4CFC      |       19708 |
|     694 | 0xFFFFF02E  |  4294963246 |
|     695 | 0xFFFF7C8A  |  4294933642 |
|     696 | 0x4E68      |       20072 |
|     697 | 0x02E0      |         736 |
|     698 | 0xFFFF7E28  |  4294934056 |
|     699 | 0x485B      |       18523 |
|     700 | 0x12074     |       73844 |
|     701 | 0xFFFFF159  |  4294963545 |
|     702 | 0x0BBE      |        3006 |
|     703 | 0x1417C     |       82300 |
|     704 | 0x0C94      |        3220 |
|     705 | 0xFFFF6F78  |  4294930296 |
|     706 | 0x13C68     |       81000 |
|     707 | 0xFFFFFF88  |  4294967176 |
|     708 | 0xFFFFC54C  |  4294952268 |
|     709 | 0x0BA4      |        2980 |
|     710 | 0xFFFFEC49  |  4294962249 |
|     711 | 0x0C10      |        3088 |
|     712 | 0xFFFFFFE0  |  4294967264 |
|     713 | 0xFFFFE3F1  |  4294960113 |
|     714 | 0xFFFE6C49  |  4294863945 |
|     715 | 0x11E90     |       73360 |
|     716 | 0x06F2      |        1778 |
|     717 | 0xFFFE6AE1  |  4294863585 |
|     718 | 0x11753     |       71507 |
|     719 | 0x0DB3      |        3507 |
|     720 | 0x0174      |         372 |
|     721 | 0xFFFF82B1  |  4294935217 |
|     722 | 0xFFFFD8FB  |  4294957307 |
|     723 | 0x0D46      |        3398 |
|     724 | 0x00F5      |         245 |
|     725 | 0x1ACF      |        6863 |
|     726 | 0x1AD0      |        6864 |
|     727 | 0x1AD1      |        6865 |
|     728 | 0x1AD2      |        6866 |
|     729 | 0x1AD3      |        6867 |
|     730 | 0x1AD4      |        6868 |
|     731 | 0x1AD5      |        6869 |
|     732 | 0x1AD7      |        6871 |
|     733 | 0x001D      |          29 |
|     734 | 0x1AD8      |        6872 |
|     735 | 0x1AD9      |        6873 |
|     736 | 0x1ADA      |        6874 |
|     737 | 0x1ADB      |        6875 |
|     738 | 0x1ADD      |        6877 |
|     739 | 0x1ADC      |        6876 |
|     740 | 0x0018      |          24 |
|     741 | 0x0019      |          25 |
|     742 | 0x1ADE      |        6878 |
|     743 | 0x007D      |         125 |
|     744 | 0x004F      |          79 |
|     745 | 0xFFFF89DD  |  4294937053 |
|     746 | 0xFFFFD67E  |  4294956670 |
|     747 | 0x0883      |        2179 |
|     748 | 0x1ADF      |        6879 |
|     749 | 0x1AE0      |        6880 |
|     750 | 0x1AE1      |        6881 |
|     751 | 0x1AE2      |        6882 |
|     752 | 0x1AE3      |        6883 |
|     753 | 0x1AE4      |        6884 |
|     754 | 0x1AE5      |        6885 |
|     755 | 0x1AE6      |        6886 |
|     756 | 0x1AE7      |        6887 |
|     757 | 0x1AE8      |        6888 |
|     758 | 0x1AE9      |        6889 |
|     759 | 0x1AEA      |        6890 |
|     760 | 0xFFFFF52E  |  4294964526 |
|     761 | 0x03A8      |         936 |
|     762 | 0x0707      |        1799 |
|     763 | 0x07B8      |        1976 |
|     764 | 0xFFFFFDDE  |  4294966750 |
|     765 | 0x0C52      |        3154 |
|     766 | 0x07DB      |        2011 |
|     767 | 0x0227      |         551 |
|     768 | 0x07FC      |        2044 |
|     769 | 0xFFFF6B85  |  4294929285 |
|     770 | 0x14E25     |       85541 |
|     771 | 0x0008      |           8 |
|     772 | 0x0091      |         145 |
|     773 | 0x004C      |          76 |
|     774 | 0x0020      |          32 |
|     775 | 0x0030      |          48 |
|     776 | 0x01F8      |         504 |
|     777 | 0x26A4      |        9892 |
|     778 | 0xFFFEB7A1  |  4294883233 |
|     779 | 0x10736     |       67382 |
|     780 | 0x0A33      |        2611 |
|     781 | 0xFFFE6E0A  |  4294864394 |
|     782 | 0x12165     |       74085 |
|     783 | 0x60F2      |       24818 |
|     784 | 0xFFFFFD57  |  4294966615 |
|     785 | 0x5CF9      |       23801 |
|     786 | 0xFFFFFAD9  |  4294965977 |
|     787 | 0xFFFFEAC6  |  4294961862 |
|     788 | 0xFFFFF702  |  4294964994 |
|     789 | 0xFFFF6E2C  |  4294929964 |
|     790 | 0x10B1E     |       68382 |
|     791 | 0xFFFF6C16  |  4294929430 |
|     792 | 0x11CD3     |       72915 |
|     793 | 0xFFFF6F30  |  4294930224 |
|     794 | 0x13C1D     |       80925 |
|     795 | 0xFFFF9F10  |  4294942480 |
|     796 | 0xFFFFF824  |  4294965284 |
|     797 | 0xFFFF6F5F  |  4294930271 |
|     798 | 0x1418E     |       82318 |
|     799 | 0xFFFF69BB  |  4294928827 |
|     800 | 0x140DE     |       82142 |
|     801 | 0x0190      |         400 |
|     802 | 0x0095      |         149 |
|     803 | 0x00A9      |         169 |
|     804 | 0x0004      |           4 |
|     805 | 0x00B3      |         179 |
|     806 | 0x00BD      |         189 |
|     807 | 0x0006      |           6 |
|     808 | 0x00C7      |         199 |
|     809 | 0x00D1      |         209 |
|     810 | 0x0047      |          71 |
|     811 | 0x0051      |          81 |
|     812 | 0x005B      |          91 |
|     813 | 0x0065      |         101 |
|     814 | 0x006F      |         111 |
|     815 | 0x0079      |         121 |
|     816 | 0x0031      |          49 |
|     817 | 0x003B      |          59 |
|     818 | 0x0045      |          69 |
|     819 | 0xFFFFE3A8  |  4294960040 |
|     820 | 0xFFFFF566  |  4294964582 |
|     821 | 0xFFFF6B7F  |  4294929279 |
|     822 | 0x146A0     |       83616 |
|     823 | 0xFFFF6BB7  |  4294929335 |
|     824 | 0x12993     |       76179 |
|     825 | 0xFFFF9004  |  4294938628 |
|     826 | 0xFFFFE57A  |  4294960506 |

## String References

- **6864**: How goes it? [We are steadfast companions./Not as well as I would like.]
- **6878**: What say you? [Leave it to me./Other duties call me.]
- **7436**: Will you go? [Of course./Not right now.]
- **7494**: Take the rings? [It's the least I can do./I cannot.]
- **7520**: Do you accept? [With pleasure./I humbly refuse.]
- **7915**: Will you partake in this trial? [I would be honored./Not just yet...]
- **8119**: What say you? [I'll see what I can do./I don't have time to play matchmaker.]

## Events

### Event 65535

#### Metadata

| Field        | Value   |
|--------------|---------|
| Entrypoint   | 0x0000  |
| Data Size    | 7 bytes |
| Instructions | 2       |

```
      00 01 02 03 04 05 06 07  08 09 0A 0B 0C 0D 0E 0F
      -- -- -- -- -- -- -- --  -- -- -- -- -- -- -- --
0000: 94 01 F8 FF FF 7F 00                              .......         
```

#### Opcodes

```
  0: 0x0000 [0x94] EventEntity->Render.Flags3 ^= 0x01
  1: 0x0006 [0x00] END_REQSTACK()
```

### Event 65535.1

#### Metadata

| Field        | Value   |
|--------------|---------|
| Entrypoint   | 0x0007  |
| Data Size    | 6 bytes |
| Instructions | 2       |

```
      00 01 02 03 04 05 06 07  08 09 0A 0B 0C 0D 0E 0F
      -- -- -- -- -- -- -- --  -- -- -- -- -- -- -- --
0000:                      03  02 10 07 7F 00                  ......   
```

#### Opcodes

```
  0: 0x0007 [0x03] Work_Zone[2] = Entity->Race
  1: 0x000C [0x00] END_REQSTACK()
```

### Event 65535.2

#### Metadata

| Field        | Value   |
|--------------|---------|
| Entrypoint   | 0x000D  |
| Data Size    | 6 bytes |
| Instructions | 2       |

```
      00 01 02 03 04 05 06 07  08 09 0A 0B 0C 0D 0E 0F
      -- -- -- -- -- -- -- --  -- -- -- -- -- -- -- --
0000:                                         03 02 10               ...
0010: 0B 7F 00                                          ...             
```

#### Opcodes

```
  0: 0x000D [0x03] Work_Zone[2] = (Entity->Render.Flags01 >> 25) & 1
  1: 0x0012 [0x00] END_REQSTACK()
```

### Event 112

#### Metadata

| Field        | Value      |
|--------------|------------|
| Entrypoint   | 0x0013     |
| Data Size    | 1645 bytes |
| Instructions | 222        |

```
      00 01 02 03 04 05 06 07  08 09 0A 0B 0C 0D 0E 0F
      -- -- -- -- -- -- -- --  -- -- -- -- -- -- -- --
0010:          20 01 46 01 42  4A 07 90 0E 01 F0 FF FF      .F.BJ.......
0020: 7F 6F 76 07 90 0E 01 2B  07 90 0E 01 00 80 23 2B  .ov....+......#+
0030: 07 90 0E 01 01 80 23 45  02 80 F0 FF FF 7F F0 FF  ......#E........
0040: FF 7F 66 64 6F 31 03 80  55 02 80 F0 FF FF 7F F0  ..fdo1..U.......
0050: FF FF 7F 66 64 6F 31 5C  00 04 80 5C 01 04 80 38  ...fdo1\...\...8
0060: 05 80 4E 00 51 90 0E 01  4E 00 50 90 0E 01 1C 06  ..N.Q...N.P.....
0070: 80 37 07 80 08 80 03 80  09 80 1E 51 90 0E 01 27  .7.........Q...'
0080: 01 07 90 0E 01 19 1C 0A  80 79 00 50 90 0E 01 51  .........y.P...Q
0090: 90 0E 01 79 00 51 90 0E  01 07 90 0E 01 97 03 80  ...y.Q..........
00A0: 0B 80 45 0C 80 F0 FF FF  7F F0 FF FF 7F 6C 30 30  ..E..........l00
00B0: 31 03 80 45 02 80 F0 FF  FF 7F F0 FF FF 7F 66 64  1..E..........fd
00C0: 69 31 03 80 55 02 80 F0  FF FF 7F F0 FF FF 7F 66  i1..U..........f
00D0: 64 69 31 55 0C 80 F0 FF  FF 7F F0 FF FF 7F 6C 30  di1U..........l0
00E0: 30 31 2B 07 90 0E 01 0D  80 23 45 0C 80 F0 FF FF  01+......#E.....
00F0: 7F F0 FF FF 7F 6C 30 30  32 03 80 55 0C 80 F0 FF  .....l002..U....
0100: FF 7F F0 FF FF 7F 6C 30  30 32 2B 51 90 0E 01 0E  ......l002+Q....
0110: 80 23 45 0C 80 F0 FF FF  7F F0 FF FF 7F 6C 30 30  .#E..........l00
0120: 33 03 80 55 0C 80 F0 FF  FF 7F F0 FF FF 7F 6C 30  3..U..........l0
0130: 30 33 2B 07 90 0E 01 0F  80 23 45 0C 80 F0 FF FF  03+......#E.....
0140: 7F F0 FF FF 7F 6C 30 30  34 03 80 55 0C 80 F0 FF  .....l004..U....
0150: FF 7F F0 FF FF 7F 6C 30  30 34 2B 51 90 0E 01 10  ......l004+Q....
0160: 80 23 45 0C 80 F0 FF FF  7F F0 FF FF 7F 6C 30 30  .#E..........l00
0170: 35 03 80 2B 07 90 0E 01  11 80 23 2B 51 90 0E 01  5..+......#+Q...
0180: 12 80 23 1C 06 80 27 03  07 90 0E 01 06 1C 13 80  ..#...'.........
0190: 2B 07 90 0E 01 14 80 23  55 0C 80 F0 FF FF 7F F0  +......#U.......
01A0: FF FF 7F 6C 30 30 35 45  0C 80 F0 FF FF 7F F0 FF  ...l005E........
01B0: FF 7F 6C 30 32 32 03 80  55 0C 80 F0 FF FF 7F F0  ..l022..U.......
01C0: FF FF 7F 6C 30 32 32 2B  50 90 0E 01 15 80 23 27  ...l022+P.....#'
01D0: 03 51 90 0E 01 05 2B 51  90 0E 01 16 80 23 45 0C  .Q....+Q.....#E.
01E0: 80 F0 FF FF 7F F0 FF FF  7F 6C 30 30 37 03 80 55  .........l007..U
01F0: 0C 80 F0 FF FF 7F F0 FF  FF 7F 6C 30 30 37 1C 17  ..........l007..
0200: 80 2B 07 90 0E 01 18 80  23 27 03 51 90 0E 01 06  .+......#'.Q....
0210: 2B 51 90 0E 01 19 80 23  27 03 07 90 0E 01 07 1C  +Q.....#'.......
0220: 1A 80 45 0C 80 F0 FF FF  7F F0 FF FF 7F 6C 30 30  ..E..........l00
0230: 38 03 80 55 0C 80 F0 FF  FF 7F F0 FF FF 7F 6C 30  8..U..........l0
0240: 30 38 2B 07 90 0E 01 1B  80 23 45 0C 80 F0 FF FF  08+......#E.....
0250: 7F F0 FF FF 7F 6C 30 30  39 03 80 55 0C 80 F0 FF  .....l009..U....
0260: FF 7F F0 FF FF 7F 6C 30  30 39 2B 51 90 0E 01 1C  ......l009+Q....
0270: 80 23 2A 03 07 90 0E 01  27 03 07 90 0E 01 04 2B  .#*.....'......+
0280: 07 90 0E 01 1D 80 23 27  04 07 90 0E 01 05 27 03  ......#'......'.
0290: 51 90 0E 01 07 2B 51 90  0E 01 1E 80 23 27 04 51  Q....+Q.....#'.Q
02A0: 90 0E 01 08 45 0C 80 F0  FF FF 7F F0 FF FF 7F 6C  ....E..........l
02B0: 30 31 30 03 80 55 0C 80  F0 FF FF 7F F0 FF FF 7F  010..U..........
02C0: 6C 30 31 30 4A 51 90 0E  01 50 90 0E 01 2B 50 90  l010JQ...P...+P.
02D0: 0E 01 1F 80 23 6F 76 51  90 0E 01 45 0C 80 F0 FF  ....#ovQ...E....
02E0: FF 7F F0 FF FF 7F 6C 30  31 31 03 80 55 0C 80 F0  ......l011..U...
02F0: FF FF 7F F0 FF FF 7F 6C  30 31 31 27 03 51 90 0E  .......l011'.Q..
0300: 01 07 2B 51 90 0E 01 20  80 23 2B 51 90 0E 01 21  ..+Q... .#+Q...!
0310: 80 23 27 03 51 90 0E 01  08 45 0C 80 F0 FF FF 7F  .#'.Q....E......
0320: F0 FF FF 7F 6C 30 30 36  03 80 55 0C 80 F0 FF FF  ....l006..U.....
0330: 7F F0 FF FF 7F 6C 30 30  36 1C 22 80 4A 50 90 0E  .....l006.".JP..
0340: 01 07 90 0E 01 6F 76 50  90 0E 01 2B 50 90 0E 01  .....ovP...+P...
0350: 23 80 1C 17 80 4A 07 90  0E 01 50 90 0E 01 6F 76  #....J....P...ov
0360: 07 90 0E 01 27 03 07 90  0E 01 06 23 2B 07 90 0E  ....'......#+...
0370: 01 24 80 23 2B 50 90 0E  01 25 80 23 2B 07 90 0E  .$.#+P...%.#+...
0380: 01 26 80 23 2B 50 90 0E  01 27 80 23 4A 51 90 0E  .&.#+P...'.#JQ..
0390: 01 07 90 0E 01 6F 76 51  90 0E 01 2B 51 90 0E 01  .....ovQ...+Q...
03A0: 28 80 23 27 03 50 90 0E  01 04 29 03 07 90 0E 01  (.#'.P....).....
03B0: 07 4A 07 90 0E 01 51 90  0E 01 1C 06 80 45 0C 80  .J....Q......E..
03C0: F0 FF FF 7F F0 FF FF 7F  6C 30 31 32 03 80 55 0C  ........l012..U.
03D0: 80 F0 FF FF 7F F0 FF FF  7F 6C 30 31 32 4E 00 4E  .........l012N.N
03E0: 90 0E 01 4E 00 4F 90 0E  01 79 00 4E 90 0E 01 51  ...N.O...y.N...Q
03F0: 90 0E 01 79 00 4F 90 0E  01 51 90 0E 01 1C 13 80  ...y.O...Q......
0400: 2B 07 90 0E 01 29 80 23  45 0C 80 F0 FF FF 7F F0  +....).#E.......
0410: FF FF 7F 6C 30 31 33 03  80 27 01 4E 90 0E 01 05  ...l013..'.N....
0420: 27 02 4F 90 0E 01 02 55  0C 80 F0 FF FF 7F F0 FF  '.O....U........
0430: FF 7F 6C 30 31 33 2B 51  90 0E 01 2A 80 23 45 0C  ..l013+Q...*.#E.
0440: 80 F0 FF FF 7F F0 FF FF  7F 6C 30 31 34 03 80 55  .........l014..U
0450: 0C 80 F0 FF FF 7F F0 FF  FF 7F 6C 30 31 34 2B 51  ..........l014+Q
0460: 90 0E 01 2B 80 23 45 0C  80 F0 FF FF 7F F0 FF FF  ...+.#E.........
0470: 7F 6C 30 31 35 03 80 27  01 07 90 0E 01 19 27 02  .l015..'......'.
0480: 51 90 0E 01 02 27 03 4E  90 0E 01 06 27 04 4F 90  Q....'.N....'.O.
0490: 0E 01 03 1C 13 80 4A 4E  90 0E 01 51 90 0E 01 4A  ......JN...Q...J
04A0: 4F 90 0E 01 51 90 0E 01  2B 07 90 0E 01 2C 80 1C  O...Q...+....,..
04B0: 06 80 23 55 0C 80 F0 FF  FF 7F F0 FF FF 7F 6C 30  ..#U..........l0
04C0: 31 35 45 0C 80 F0 FF FF  7F F0 FF FF 7F 6C 30 31  15E..........l01
04D0: 36 03 80 55 0C 80 F0 FF  FF 7F F0 FF FF 7F 6C 30  6..U..........l0
04E0: 31 36 2B 51 90 0E 01 2D  80 23 45 0C 80 F0 FF FF  16+Q...-.#E.....
04F0: 7F F0 FF FF 7F 6C 30 31  37 03 80 2B 07 90 0E 01  .....l017..+....
0500: 2E 80 23 55 0C 80 F0 FF  FF 7F F0 FF FF 7F 6C 30  ..#U..........l0
0510: 31 37 2B 07 90 0E 01 2F  80 23 45 0C 80 F0 FF FF  17+..../.#E.....
0520: 7F F0 FF FF 7F 6C 30 31  38 03 80 55 0C 80 F0 FF  .....l018..U....
0530: FF 7F F0 FF FF 7F 6C 30  31 38 2B 51 90 0E 01 30  ......l018+Q...0
0540: 80 23 45 0C 80 F0 FF FF  7F F0 FF FF 7F 6C 30 32  .#E..........l02
0550: 34 03 80 55 0C 80 F0 FF  FF 7F F0 FF FF 7F 6C 30  4..U..........l0
0560: 32 34 2B 07 90 0E 01 31  80 23 2B 07 90 0E 01 32  24+....1.#+....2
0570: 80 23 45 0C 80 F0 FF FF  7F F0 FF FF 7F 6C 30 32  .#E..........l02
0580: 33 03 80 2B 51 90 0E 01  33 80 1C 17 80 27 03 51  3..+Q...3....'.Q
0590: 90 0E 01 03 27 03 4E 90  0E 01 07 29 03 4F 90 0E  ....'.N....).O..
05A0: 01 04 4E 01 51 90 0E 01  4E 01 4E 90 0E 01 4E 01  ..N.Q...N.N...N.
05B0: 4F 90 0E 01 45 34 80 07  90 0E 01 07 90 0E 01 73  O...E4.........s
05C0: 65 30 30 03 80 55 0C 80  F0 FF FF 7F F0 FF FF 7F  e00..U..........
05D0: 6C 30 32 33 1C 17 80 1C  17 80 4A 07 90 0E 01 F8  l023......J.....
05E0: FF FF 7F 6F 76 07 90 0E  01 4A 50 90 0E 01 F8 FF  ...ov....JP.....
05F0: FF 7F 2B 07 90 0E 01 35  80 1C 17 80 1E 50 90 0E  ..+....5.....P..
0600: 01 1C 06 80 23 45 0C 80  F0 FF FF 7F F0 FF FF 7F  ....#E..........
0610: 6C 30 32 31 03 80 55 0C  80 F0 FF FF 7F F0 FF FF  l021..U.........
0620: 7F 6C 30 32 31 27 03 50  90 0E 01 05 2B 50 90 0E  .l021'.P....+P..
0630: 01 36 80 23 27 04 50 90  0E 01 06 2B 50 90 0E 01  .6.#'.P....+P...
0640: 37 80 23 45 02 80 F0 FF  FF 7F F0 FF FF 7F 66 64  7.#E..........fd
0650: 6F 32 03 80 55 02 80 F0  FF FF 7F F0 FF FF 7F 66  o2..U..........f
0660: 64 6F 32 5C 00 38 80 5C  01 38 80 46 00 45 02 80  do2\.8.\.8.F.E..
0670: F0 FF FF 7F F0 FF FF 7F  66 64 69 32 03 80 21 00  ........fdi2..!.
```

#### Opcodes

```
  0: 0x0013 [0x20] SET_CLI_EVENT_UC_FLAG: Lock player control
  1: 0x0015 [0x46] CAMERA_CONTROL: Disable user control
  2: 0x0017 [0x42] SET_CLI_EVENT_CANCEL_DATA()
  3: 0x0018 [0x4A] Halver (ID: 17731591/0x010E9007) looks at LocalPlayer
  4: 0x0021 [0x6F] WAIT_FRAME_DELAY: Yield until WaitTime reaches zero
  5: 0x0022 [0x76] CHECK_ENTITY_RENDER_FLAGS: Wait until Halver (ID: 17731591/0x010E9007) Render.Flags0 and Render.Flags3 conditions are met
  6: 0x0027 [0x2B] Halver (ID: 17731591/0x010E9007) [7960*]:
     "Ah, adventurer. I was told of your cooperation in apprehending the thief."
  7: 0x002E [0x23] WAIT_FOR_DIALOG_INTERACTION
  8: 0x002F [0x2B] Halver (ID: 17731591/0x010E9007) [7961*]:
     "The interrogation is just about to begin. If he is indeed guilty of the crime, you shall receive a reward."
  9: 0x0036 [0x23] WAIT_FOR_DIALOG_INTERACTION
 10: 0x0037 [0x45] LOAD_SCHEDULED_TASK: Load scheduler "fdo1" with entities [LocalPlayer, LocalPlayer], work=[200*, 0*]
 11: 0x0048 [0x55] WAIT_LOAD_SCHEDULER: Wait for scheduler "fdo1" with entities [LocalPlayer, LocalPlayer], work=200*
 12: 0x0057 [0x5C] MUSIC_CONTROL: Set Idle (Day) music to song 123*
 13: 0x005B [0x5C] MUSIC_CONTROL: Set Idle (Night) music to song 123*
 14: 0x005F [0x38] SET_CLIENT_EVENT_MODE(mode=3*)
 15: 0x0062 [0x4E] SET_ENTITY_HIDE_FLAG: Show Vijartal (ID: 17731665/0x010E9051)
 16: 0x0068 [0x4E] SET_ENTITY_HIDE_FLAG: Show Elmemague (ID: 17731664/0x010E9050)
 17: 0x006E [0x1C] WAIT(10* ticks)
 18: 0x0071 [0x37] UPDATE_EVENT_POSITION_AND_DIR: x=3.681*, z=0.959*, y=0.000*, direction=214.0*
 19: 0x007A [0x1E] EventEntity looks at Vijartal (ID: 17731665/0x010E9051) and starts talking
 20: 0x007F [0x27] REQ_SET(priority=0x01, entity_id=Halver (ID: 17731591/0x010E9007), tag_num=0x19)
 21: 0x0086 [0x1C] WAIT(50* ticks)
 22: 0x0089 [0x79] Elmemague (ID: 17731664/0x010E9050) looks at Vijartal (ID: 17731665/0x010E9051) (Basic look)
 23: 0x0093 [0x79] Vijartal (ID: 17731665/0x010E9051) looks at Halver (ID: 17731591/0x010E9007) (Basic look)
 24: 0x009D [0x97] SAVE_SET_WIND_VALUES(wind_base=0x8003, wind_width=0x800B)
 25: 0x00A2 [0x45] LOAD_SCHEDULED_TASK: Load scheduler "l001" with entities [LocalPlayer, LocalPlayer], work=[55*, 0*]
 26: 0x00B3 [0x45] LOAD_SCHEDULED_TASK: Load scheduler "fdi1" with entities [LocalPlayer, LocalPlayer], work=[200*, 0*]
 27: 0x00C4 [0x55] WAIT_LOAD_SCHEDULER: Wait for scheduler "fdi1" with entities [LocalPlayer, LocalPlayer], work=200*
 28: 0x00D3 [0x55] WAIT_LOAD_SCHEDULER: Wait for scheduler "l001" with entities [LocalPlayer, LocalPlayer], work=55*
 29: 0x00E2 [0x2B] Halver (ID: 17731591/0x010E9007) [7963*]:
     "Two years after his defeat at the Second Battle of Konschtat, King Raigegue massed his remaining knights in La Theine and awaited an opportunity to retaliate against Bastok."
 30: 0x00E9 [0x23] WAIT_FOR_DIALOG_INTERACTION
 31: 0x00EA [0x45] LOAD_SCHEDULED_TASK: Load scheduler "l002" with entities [LocalPlayer, LocalPlayer], work=[55*, 0*]
 32: 0x00FB [0x55] WAIT_LOAD_SCHEDULER: Wait for scheduler "l002" with entities [LocalPlayer, LocalPlayer], work=55*
 33: 0x010A [0x2B] Vijartal (ID: 17731665/0x010E9051) [7964*]:
     "It was as you say."
 34: 0x0111 [0x23] WAIT_FOR_DIALOG_INTERACTION
 35: 0x0112 [0x45] LOAD_SCHEDULED_TASK: Load scheduler "l003" with entities [LocalPlayer, LocalPlayer], work=[55*, 0*]
 36: 0x0123 [0x55] WAIT_LOAD_SCHEDULER: Wait for scheduler "l003" with entities [LocalPlayer, LocalPlayer], work=55*
 37: 0x0132 [0x2B] Halver (ID: 17731591/0x010E9007) [7965*]:
     "However, seizing upon his brother's absence, Prince Fellenant mobilized the Temple Knights and took control of the city of San d'Oria. He demanded a peace treaty be drawn up with Bastok, correct?"
 38: 0x0139 [0x23] WAIT_FOR_DIALOG_INTERACTION
 39: 0x013A [0x45] LOAD_SCHEDULED_TASK: Load scheduler "l004" with entities [LocalPlayer, LocalPlayer], work=[55*, 0*]
 40: 0x014B [0x55] WAIT_LOAD_SCHEDULER: Wait for scheduler "l004" with entities [LocalPlayer, LocalPlayer], work=55*
 41: 0x015A [0x2B] Vijartal (ID: 17731665/0x010E9051) [7966*]:
     "That is correct."
 42: 0x0161 [0x23] WAIT_FOR_DIALOG_INTERACTION
 43: 0x0162 [0x45] LOAD_SCHEDULED_TASK: Load scheduler "l005" with entities [LocalPlayer, LocalPlayer], work=[55*, 0*]
 44: 0x0173 [0x2B] Halver (ID: 17731591/0x010E9007) [7967*]:
     "Fearing an internecine war, the king decided to send the Scepter Royaulais to Prince Fellenant and abdicate in his favor. His only condition was that the city be released from military control."
 45: 0x017A [0x23] WAIT_FOR_DIALOG_INTERACTION
 46: 0x017B [0x2B] Vijartal (ID: 17731665/0x010E9051) [7968*]:
     "Yes, we were on our way to bring the scepter to Prince Fellenant."
 47: 0x0182 [0x23] WAIT_FOR_DIALOG_INTERACTION
 48: 0x0183 [0x1C] WAIT(10* ticks)
 49: 0x0186 [0x27] REQ_SET(priority=0x03, entity_id=Halver (ID: 17731591/0x010E9007), tag_num=0x06)
 50: 0x018D [0x1C] WAIT(60* ticks)
 51: 0x0190 [0x2B] Halver (ID: 17731591/0x010E9007) [7969*]:
     "...When you were beset by a wild storm and took shelter within Ordelle's Caves...I believe this is how your story goes."
 52: 0x0197 [0x23] WAIT_FOR_DIALOG_INTERACTION
 53: 0x0198 [0x55] WAIT_LOAD_SCHEDULER: Wait for scheduler "l005" with entities [LocalPlayer, LocalPlayer], work=55*
 54: 0x01A7 [0x45] LOAD_SCHEDULED_TASK: Load scheduler "l022" with entities [LocalPlayer, LocalPlayer], work=[55*, 0*]
 55: 0x01B8 [0x55] WAIT_LOAD_SCHEDULER: Wait for scheduler "l022" with entities [LocalPlayer, LocalPlayer], work=55*
 56: 0x01C7 [0x2B] Elmemague (ID: 17731664/0x010E9050) [7970*]:
     "And what manner of artifact is this Scepter Royaulais you speak of?"
 57: 0x01CE [0x23] WAIT_FOR_DIALOG_INTERACTION
 58: 0x01CF [0x27] REQ_SET(priority=0x03, entity_id=Vijartal (ID: 17731665/0x010E9051), tag_num=0x05)
 59: 0x01D6 [0x2B] Vijartal (ID: 17731665/0x010E9051) [7971*]:
     "Do you not know even this? It is a beautiful scepter with a rare jewel known as the Pierre Errante set at its end. It requires the most careful handling so as not to mar the stone."
 60: 0x01DD [0x23] WAIT_FOR_DIALOG_INTERACTION
 61: 0x01DE [0x45] LOAD_SCHEDULED_TASK: Load scheduler "l007" with entities [LocalPlayer, LocalPlayer], work=[55*, 0*]
 62: 0x01EF [0x55] WAIT_LOAD_SCHEDULER: Wait for scheduler "l007" with entities [LocalPlayer, LocalPlayer], work=55*
 63: 0x01FE [0x1C] WAIT(30* ticks)
 64: 0x0201 [0x2B] Halver (ID: 17731591/0x010E9007) [7972*]:
     "..."
 65: 0x0208 [0x23] WAIT_FOR_DIALOG_INTERACTION
 66: 0x0209 [0x27] REQ_SET(priority=0x03, entity_id=Vijartal (ID: 17731665/0x010E9051), tag_num=0x06)
 67: 0x0210 [0x2B] Vijartal (ID: 17731665/0x010E9051) [7973*]:
     "Will you accept my words as truth now? You must allow me audience with Prince Fellenant."
 68: 0x0217 [0x23] WAIT_FOR_DIALOG_INTERACTION
 69: 0x0218 [0x27] REQ_SET(priority=0x03, entity_id=Halver (ID: 17731591/0x010E9007), tag_num=0x07)
 70: 0x021F [0x1C] WAIT(15* ticks)
 71: 0x0222 [0x45] LOAD_SCHEDULED_TASK: Load scheduler "l008" with entities [LocalPlayer, LocalPlayer], work=[55*, 0*]
 72: 0x0233 [0x55] WAIT_LOAD_SCHEDULER: Wait for scheduler "l008" with entities [LocalPlayer, LocalPlayer], work=55*
 73: 0x0242 [0x2B] Halver (ID: 17731591/0x010E9007) [7974*]:
     "Deluded fantasies... Do you honestly expect to fool us with this fabrication?"
 74: 0x0249 [0x23] WAIT_FOR_DIALOG_INTERACTION
 75: 0x024A [0x45] LOAD_SCHEDULED_TASK: Load scheduler "l009" with entities [LocalPlayer, LocalPlayer], work=[55*, 0*]
 76: 0x025B [0x55] WAIT_LOAD_SCHEDULER: Wait for scheduler "l009" with entities [LocalPlayer, LocalPlayer], work=55*
 77: 0x026A [0x2B] Vijartal (ID: 17731665/0x010E9051) [7975*]:
     "How dare you! You accuse me of lying!?"
 78: 0x0271 [0x23] WAIT_FOR_DIALOG_INTERACTION
 79: 0x0272 [0x2A] GET_REQ_LEVEL(level=3, entity_id=Halver (ID: 17731591/0x010E9007))
 80: 0x0278 [0x27] REQ_SET(priority=0x03, entity_id=Halver (ID: 17731591/0x010E9007), tag_num=0x04)
 81: 0x027F [0x2B] Halver (ID: 17731591/0x010E9007) [7976*]:
     "The Second Battle of Konschtat? King Raigegue and Prince Fellenant? This goes beyond all patience!"
 82: 0x0286 [0x23] WAIT_FOR_DIALOG_INTERACTION
 83: 0x0287 [0x27] REQ_SET(priority=0x04, entity_id=Halver (ID: 17731591/0x010E9007), tag_num=0x05)
 84: 0x028E [0x27] REQ_SET(priority=0x03, entity_id=Vijartal (ID: 17731665/0x010E9051), tag_num=0x07)
 85: 0x0295 [0x2B] Vijartal (ID: 17731665/0x010E9051) [7977*]:
     "Then simply wait for the arrival of the Royal Knights who traveled with me--the Cardinal Stags! We were separated in Ordelle's Caves, but they should be arriving in the city at any moment."
 86: 0x029C [0x23] WAIT_FOR_DIALOG_INTERACTION
 87: 0x029D [0x27] REQ_SET(priority=0x04, entity_id=Vijartal (ID: 17731665/0x010E9051), tag_num=0x08)
 88: 0x02A4 [0x45] LOAD_SCHEDULED_TASK: Load scheduler "l010" with entities [LocalPlayer, LocalPlayer], work=[55*, 0*]
 89: 0x02B5 [0x55] WAIT_LOAD_SCHEDULER: Wait for scheduler "l010" with entities [LocalPlayer, LocalPlayer], work=55*
 90: 0x02C4 [0x4A] Vijartal (ID: 17731665/0x010E9051) looks at Elmemague (ID: 17731664/0x010E9050)
 91: 0x02CD [0x2B] Elmemague (ID: 17731664/0x010E9050) [7978*]:
     "Well, isn't that interesting? Captain Guichantmarge of the Cardinal Stags is a good friend of mine, and I have no recollection of seeing your face among his troops when I performed an inspection. Neither do I recall hearing of any new recruits."
 92: 0x02D4 [0x23] WAIT_FOR_DIALOG_INTERACTION
 93: 0x02D5 [0x6F] WAIT_FRAME_DELAY: Yield until WaitTime reaches zero
 94: 0x02D6 [0x76] CHECK_ENTITY_RENDER_FLAGS: Wait until Vijartal (ID: 17731665/0x010E9051) Render.Flags0 and Render.Flags3 conditions are met
 95: 0x02DB [0x45] LOAD_SCHEDULED_TASK: Load scheduler "l011" with entities [LocalPlayer, LocalPlayer], work=[55*, 0*]
 96: 0x02EC [0x55] WAIT_LOAD_SCHEDULER: Wait for scheduler "l011" with entities [LocalPlayer, LocalPlayer], work=55*
 97: 0x02FB [0x27] REQ_SET(priority=0x03, entity_id=Vijartal (ID: 17731665/0x010E9051), tag_num=0x07)
 98: 0x0302 [0x2B] Vijartal (ID: 17731665/0x010E9051) [7979*]:
     "Surely you jest, sir!"
 99: 0x0309 [0x23] WAIT_FOR_DIALOG_INTERACTION
100: 0x030A [0x2B] Vijartal (ID: 17731665/0x010E9051) [7980*]:
     "The Captain of the Cardinal Stags, as all should know, is Sir Plieucherot. Enough of these games!"
101: 0x0311 [0x23] WAIT_FOR_DIALOG_INTERACTION
102: 0x0312 [0x27] REQ_SET(priority=0x03, entity_id=Vijartal (ID: 17731665/0x010E9051), tag_num=0x08)
103: 0x0319 [0x45] LOAD_SCHEDULED_TASK: Load scheduler "l006" with entities [LocalPlayer, LocalPlayer], work=[55*, 0*]
104: 0x032A [0x55] WAIT_LOAD_SCHEDULER: Wait for scheduler "l006" with entities [LocalPlayer, LocalPlayer], work=55*
105: 0x0339 [0x1C] WAIT(20* ticks)
106: 0x033C [0x4A] Elmemague (ID: 17731664/0x010E9050) looks at Halver (ID: 17731591/0x010E9007)
107: 0x0345 [0x6F] WAIT_FRAME_DELAY: Yield until WaitTime reaches zero
108: 0x0346 [0x76] CHECK_ENTITY_RENDER_FLAGS: Wait until Elmemague (ID: 17731664/0x010E9050) Render.Flags0 and Render.Flags3 conditions are met
109: 0x034B [0x2B] Elmemague (ID: 17731664/0x010E9050) [7981*]:
     "Monarlais Halver, what are we to do with this individual?"
110: 0x0352 [0x1C] WAIT(30* ticks)
111: 0x0355 [0x4A] Halver (ID: 17731591/0x010E9007) looks at Elmemague (ID: 17731664/0x010E9050)
112: 0x035E [0x6F] WAIT_FRAME_DELAY: Yield until WaitTime reaches zero
113: 0x035F [0x76] CHECK_ENTITY_RENDER_FLAGS: Wait until Halver (ID: 17731591/0x010E9007) Render.Flags0 and Render.Flags3 conditions are met
114: 0x0364 [0x27] REQ_SET(priority=0x03, entity_id=Halver (ID: 17731591/0x010E9007), tag_num=0x06)
115: 0x036B [0x23] WAIT_FOR_DIALOG_INTERACTION
116: 0x036C [0x2B] Halver (ID: 17731591/0x010E9007) [7982*]:
     "He is obviously not the person shown in the sketch we have of the thief, nor do the guards of the royal treasury recognize him as the criminal. We cannot throw him into a cell merely because he has knowledge of the Scepter Royaulais."
117: 0x0373 [0x23] WAIT_FOR_DIALOG_INTERACTION
118: 0x0374 [0x2B] Elmemague (ID: 17731664/0x010E9050) [7983*]:
     "Yet word of that other matter has not leaked beyond our walls. Are we to just let this man go...?"
119: 0x037B [0x23] WAIT_FOR_DIALOG_INTERACTION
120: 0x037C [0x2B] Halver (ID: 17731591/0x010E9007) [7984*]:
     "Hmmm... However, I do not believe this fool would have had the finesse required to slip into the treasury. It was open for but a few moments when we removed that other object..."
121: 0x0383 [0x23] WAIT_FOR_DIALOG_INTERACTION
122: 0x0384 [0x2B] Elmemague (ID: 17731664/0x010E9050) [7985*]:
     "My sincerest apologies, sir. We were taken completely unawares. Only one who had extensive knowledge of the castle could have evaded us in such a way... It was no ordinary burglar."
123: 0x038B [0x23] WAIT_FOR_DIALOG_INTERACTION
124: 0x038C [0x4A] Vijartal (ID: 17731665/0x010E9051) looks at Halver (ID: 17731591/0x010E9007)
125: 0x0395 [0x6F] WAIT_FRAME_DELAY: Yield until WaitTime reaches zero
126: 0x0396 [0x76] CHECK_ENTITY_RENDER_FLAGS: Wait until Vijartal (ID: 17731665/0x010E9051) Render.Flags0 and Render.Flags3 conditions are met
127: 0x039B [0x2B] Vijartal (ID: 17731665/0x010E9051) [7986*]:
     "Do you still doubt me? I am here on orders from the king. Or is this how the prince treats envoys that appear on his doorstep?"
128: 0x03A2 [0x23] WAIT_FOR_DIALOG_INTERACTION
129: 0x03A3 [0x27] REQ_SET(priority=0x03, entity_id=Elmemague (ID: 17731664/0x010E9050), tag_num=0x04)
130: 0x03AA [0x29] REQ_SET_WAIT(priority=0x03, entity_id=Halver (ID: 17731591/0x010E9007), tag_num=0x07)
131: 0x03B1 [0x4A] Halver (ID: 17731591/0x010E9007) looks at Vijartal (ID: 17731665/0x010E9051)
132: 0x03BA [0x1C] WAIT(10* ticks)
133: 0x03BD [0x45] LOAD_SCHEDULED_TASK: Load scheduler "l012" with entities [LocalPlayer, LocalPlayer], work=[55*, 0*]
134: 0x03CE [0x55] WAIT_LOAD_SCHEDULER: Wait for scheduler "l012" with entities [LocalPlayer, LocalPlayer], work=55*
135: 0x03DD [0x4E] SET_ENTITY_HIDE_FLAG: Show Bacherume (ID: 17731662/0x010E904E)
136: 0x03E3 [0x4E] SET_ENTITY_HIDE_FLAG: Show Phaviane (ID: 17731663/0x010E904F)
137: 0x03E9 [0x79] Bacherume (ID: 17731662/0x010E904E) looks at Vijartal (ID: 17731665/0x010E9051) (Basic look)
138: 0x03F3 [0x79] Phaviane (ID: 17731663/0x010E904F) looks at Vijartal (ID: 17731665/0x010E9051) (Basic look)
139: 0x03FD [0x1C] WAIT(60* ticks)
140: 0x0400 [0x2B] Halver (ID: 17731591/0x010E9007) [7987*]:
     "Remove him from the chateau. I have not the time nor the patience to deal with his delusions."
141: 0x0407 [0x23] WAIT_FOR_DIALOG_INTERACTION
142: 0x0408 [0x45] LOAD_SCHEDULED_TASK: Load scheduler "l013" with entities [LocalPlayer, LocalPlayer], work=[55*, 0*]
143: 0x0419 [0x27] REQ_SET(priority=0x01, entity_id=Bacherume (ID: 17731662/0x010E904E), tag_num=0x05)
144: 0x0420 [0x27] REQ_SET(priority=0x02, entity_id=Phaviane (ID: 17731663/0x010E904F), tag_num=0x02)
145: 0x0427 [0x55] WAIT_LOAD_SCHEDULER: Wait for scheduler "l013" with entities [LocalPlayer, LocalPlayer], work=55*
146: 0x0436 [0x2B] Vijartal (ID: 17731665/0x010E9051) [7989*]:
     "I am under orders from the king... What are you...? Release me at once!"
147: 0x043D [0x23] WAIT_FOR_DIALOG_INTERACTION
148: 0x043E [0x45] LOAD_SCHEDULED_TASK: Load scheduler "l014" with entities [LocalPlayer, LocalPlayer], work=[55*, 0*]
149: 0x044F [0x55] WAIT_LOAD_SCHEDULER: Wait for scheduler "l014" with entities [LocalPlayer, LocalPlayer], work=55*
150: 0x045E [0x2B] Vijartal (ID: 17731665/0x010E9051) [7990*]:
     "Mark my words! I, Vijartal Caphieux, have been insulted too many times this day! Your apologies will fall on deaf ears when next we meet!"
151: 0x0465 [0x23] WAIT_FOR_DIALOG_INTERACTION
152: 0x0466 [0x45] LOAD_SCHEDULED_TASK: Load scheduler "l015" with entities [LocalPlayer, LocalPlayer], work=[55*, 0*]
153: 0x0477 [0x27] REQ_SET(priority=0x01, entity_id=Halver (ID: 17731591/0x010E9007), tag_num=0x19)
154: 0x047E [0x27] REQ_SET(priority=0x02, entity_id=Vijartal (ID: 17731665/0x010E9051), tag_num=0x02)
155: 0x0485 [0x27] REQ_SET(priority=0x03, entity_id=Bacherume (ID: 17731662/0x010E904E), tag_num=0x06)
156: 0x048C [0x27] REQ_SET(priority=0x04, entity_id=Phaviane (ID: 17731663/0x010E904F), tag_num=0x03)
157: 0x0493 [0x1C] WAIT(60* ticks)
158: 0x0496 [0x4A] Bacherume (ID: 17731662/0x010E904E) looks at Vijartal (ID: 17731665/0x010E9051)
159: 0x049F [0x4A] Phaviane (ID: 17731663/0x010E904F) looks at Vijartal (ID: 17731665/0x010E9051)
160: 0x04A8 [0x2B] Halver (ID: 17731591/0x010E9007) [7991*]:
     "Wait one moment... What did you just say?"
161: 0x04AF [0x1C] WAIT(10* ticks)
162: 0x04B2 [0x23] WAIT_FOR_DIALOG_INTERACTION
163: 0x04B3 [0x55] WAIT_LOAD_SCHEDULER: Wait for scheduler "l015" with entities [LocalPlayer, LocalPlayer], work=55*
164: 0x04C2 [0x45] LOAD_SCHEDULED_TASK: Load scheduler "l016" with entities [LocalPlayer, LocalPlayer], work=[55*, 0*]
165: 0x04D3 [0x55] WAIT_LOAD_SCHEDULER: Wait for scheduler "l016" with entities [LocalPlayer, LocalPlayer], work=55*
166: 0x04E2 [0x2B] Vijartal (ID: 17731665/0x010E9051) [7992*]:
     "I said to remember the name of Vijartal Caphieux! I will never forget the disgraces I was forced to endure at your hands!"
167: 0x04E9 [0x23] WAIT_FOR_DIALOG_INTERACTION
168: 0x04EA [0x45] LOAD_SCHEDULED_TASK: Load scheduler "l017" with entities [LocalPlayer, LocalPlayer], work=[55*, 0*]
169: 0x04FB [0x2B] Halver (ID: 17731591/0x010E9007) [7993*]:
     "This is an outrage!"
170: 0x0502 [0x23] WAIT_FOR_DIALOG_INTERACTION
171: 0x0503 [0x55] WAIT_LOAD_SCHEDULER: Wait for scheduler "l017" with entities [LocalPlayer, LocalPlayer], work=55*
172: 0x0512 [0x2B] Halver (ID: 17731591/0x010E9007) [7994*]:
     "The name of the revered hero of San d'Oria used in vain by this common bandit! Have you no honor!?"
173: 0x0519 [0x23] WAIT_FOR_DIALOG_INTERACTION
174: 0x051A [0x45] LOAD_SCHEDULED_TASK: Load scheduler "l018" with entities [LocalPlayer, LocalPlayer], work=[55*, 0*]
175: 0x052B [0x55] WAIT_LOAD_SCHEDULER: Wait for scheduler "l018" with entities [LocalPlayer, LocalPlayer], work=55*
176: 0x053A [0x2B] Vijartal (ID: 17731665/0x010E9051) [7995*]:
     "What is this you speak of?"
177: 0x0541 [0x23] WAIT_FOR_DIALOG_INTERACTION
178: 0x0542 [0x45] LOAD_SCHEDULED_TASK: Load scheduler "l024" with entities [LocalPlayer, LocalPlayer], work=[55*, 0*]
179: 0x0553 [0x55] WAIT_LOAD_SCHEDULER: Wait for scheduler "l024" with entities [LocalPlayer, LocalPlayer], work=55*
180: 0x0562 [0x2B] Halver (ID: 17731591/0x010E9007) [7996*]:
     "Simpleton! That is the name of the great man who ended the war between the Royal and Temple Knights two hundred years ago! Even a child would not tell such a scandalous lie!"
181: 0x0569 [0x23] WAIT_FOR_DIALOG_INTERACTION
182: 0x056A [0x2B] Halver (ID: 17731591/0x010E9007) [7997*]:
     "Get out of my sight! The next time you show your face in my presence, I will not be held responsible for my actions!"
183: 0x0571 [0x23] WAIT_FOR_DIALOG_INTERACTION
184: 0x0572 [0x45] LOAD_SCHEDULED_TASK: Load scheduler "l023" with entities [LocalPlayer, LocalPlayer], work=[55*, 0*]
185: 0x0583 [0x2B] Vijartal (ID: 17731665/0x010E9051) [7998*]:
     "What do you mean, "two hundred years ago"? Explain yourself. Why am I considered a hero...?"
186: 0x058A [0x1C] WAIT(30* ticks)
187: 0x058D [0x27] REQ_SET(priority=0x03, entity_id=Vijartal (ID: 17731665/0x010E9051), tag_num=0x03)
188: 0x0594 [0x27] REQ_SET(priority=0x03, entity_id=Bacherume (ID: 17731662/0x010E904E), tag_num=0x07)
189: 0x059B [0x29] REQ_SET_WAIT(priority=0x03, entity_id=Phaviane (ID: 17731663/0x010E904F), tag_num=0x04)
190: 0x05A2 [0x4E] SET_ENTITY_HIDE_FLAG: Hide Vijartal (ID: 17731665/0x010E9051)
191: 0x05A8 [0x4E] SET_ENTITY_HIDE_FLAG: Hide Bacherume (ID: 17731662/0x010E904E)
192: 0x05AE [0x4E] SET_ENTITY_HIDE_FLAG: Hide Phaviane (ID: 17731663/0x010E904F)
193: 0x05B4 [0x45] LOAD_SCHEDULED_TASK: Load scheduler "se00" with entities [Halver (ID: 17731591/0x010E9007), Halver (ID: 17731591/0x010E9007)], work=[13*, 0*]
194: 0x05C5 [0x55] WAIT_LOAD_SCHEDULER: Wait for scheduler "l023" with entities [LocalPlayer, LocalPlayer], work=55*
195: 0x05D4 [0x1C] WAIT(30* ticks)
196: 0x05D7 [0x1C] WAIT(30* ticks)
197: 0x05DA [0x4A] Halver (ID: 17731591/0x010E9007) looks at EventEntity
198: 0x05E3 [0x6F] WAIT_FRAME_DELAY: Yield until WaitTime reaches zero
199: 0x05E4 [0x76] CHECK_ENTITY_RENDER_FLAGS: Wait until Halver (ID: 17731591/0x010E9007) Render.Flags0 and Render.Flags3 conditions are met
200: 0x05E9 [0x4A] Elmemague (ID: 17731664/0x010E9050) looks at EventEntity
201: 0x05F2 [0x2B] Halver (ID: 17731591/0x010E9007) [7999*]:
     "I am sorry, but I cannot pay you a reward. He is not the man we are looking for."
202: 0x05F9 [0x1C] WAIT(30* ticks)
203: 0x05FC [0x1E] EventEntity looks at Elmemague (ID: 17731664/0x010E9050) and starts talking
204: 0x0601 [0x1C] WAIT(10* ticks)
205: 0x0604 [0x23] WAIT_FOR_DIALOG_INTERACTION
206: 0x0605 [0x45] LOAD_SCHEDULED_TASK: Load scheduler "l021" with entities [LocalPlayer, LocalPlayer], work=[55*, 0*]
207: 0x0616 [0x55] WAIT_LOAD_SCHEDULER: Wait for scheduler "l021" with entities [LocalPlayer, LocalPlayer], work=55*
208: 0x0625 [0x27] REQ_SET(priority=0x03, entity_id=Elmemague (ID: 17731664/0x010E9050), tag_num=0x05)
209: 0x062C [0x2B] Elmemague (ID: 17731664/0x010E9050) [8001*]:
     "Give that gate guard a message for me: he still has a chance to prove himself."
210: 0x0633 [0x23] WAIT_FOR_DIALOG_INTERACTION
211: 0x0634 [0x27] REQ_SET(priority=0x04, entity_id=Elmemague (ID: 17731664/0x010E9050), tag_num=0x06)
212: 0x063B [0x2B] Elmemague (ID: 17731664/0x010E9050) [8000*]:
     "However, we must retrieve the scepter at any cost. It is an invaluable treasure. The symbol of San d'Oria."
213: 0x0642 [0x23] WAIT_FOR_DIALOG_INTERACTION
214: 0x0643 [0x45] LOAD_SCHEDULED_TASK: Load scheduler "fdo2" with entities [LocalPlayer, LocalPlayer], work=[200*, 0*]
215: 0x0654 [0x55] WAIT_LOAD_SCHEDULER: Wait for scheduler "fdo2" with entities [LocalPlayer, LocalPlayer], work=200*
216: 0x0663 [0x5C] MUSIC_CONTROL: Set Idle (Day) music to song 156*
217: 0x0667 [0x5C] MUSIC_CONTROL: Set Idle (Night) music to song 156*
218: 0x066B [0x46] CAMERA_CONTROL: Restore default settings
219: 0x066D [0x45] LOAD_SCHEDULED_TASK: Load scheduler "fdi2" with entities [LocalPlayer, LocalPlayer], work=[200*, 0*]
220: 0x067E [0x21] END_EVENT
221: 0x067F [0x00] END_REQSTACK()
```

### Event 66

#### Metadata

| Field        | Value   |
|--------------|---------|
| Entrypoint   | 0x0680  |
| Data Size    | 1 bytes |
| Instructions | 1       |

```
      00 01 02 03 04 05 06 07  08 09 0A 0B 0C 0D 0E 0F
      -- -- -- -- -- -- -- --  -- -- -- -- -- -- -- --
0680: 00                                                .               
```

#### Opcodes

```
  0: 0x0680 [0x00] END_REQSTACK()
```

### Event 65535.3

#### Metadata

| Field        | Value    |
|--------------|----------|
| Entrypoint   | 0x0681   |
| Data Size    | 10 bytes |
| Instructions | 2        |

```
      00 01 02 03 04 05 06 07  08 09 0A 0B 0C 0D 0E 0F
      -- -- -- -- -- -- -- --  -- -- -- -- -- -- -- --
0680:    37 03 80 03 80 03 80  03 80 00                  7.........     
```

#### Opcodes

```
  0: 0x0681 [0x37] UPDATE_EVENT_POSITION_AND_DIR: x=0.000*, z=0.000*, y=0.000*, direction=0.0*
  1: 0x068A [0x00] END_REQSTACK()
```

### Event 65535.4

#### Metadata

| Field        | Value    |
|--------------|----------|
| Entrypoint   | 0x068B   |
| Data Size    | 22 bytes |
| Instructions | 4        |

```
      00 01 02 03 04 05 06 07  08 09 0A 0B 0C 0D 0E 0F
      -- -- -- -- -- -- -- --  -- -- -- -- -- -- -- --
0680:                                   22 00 79 00 F8             ".y..
0690: FF FF 7F 07 90 0E 01 37  39 80 3A 80 03 80 3B 80  .......79.:...;.
06A0: 00                                                .               
```

#### Opcodes

```
  0: 0x068B [0x22] ENTITY_HIDE_FLAG(enabled=0x00)
  1: 0x068D [0x79] EventEntity looks at Halver (ID: 17731591/0x010E9007) (Basic look)
  2: 0x0697 [0x37] UPDATE_EVENT_POSITION_AND_DIR: x=1.678*, z=0.491*, y=0.000*, direction=293.6*
  3: 0x06A0 [0x00] END_REQSTACK()
```

### Event 65535.5

#### Metadata

| Field        | Value    |
|--------------|----------|
| Entrypoint   | 0x06A1   |
| Data Size    | 10 bytes |
| Instructions | 2        |

```
      00 01 02 03 04 05 06 07  08 09 0A 0B 0C 0D 0E 0F
      -- -- -- -- -- -- -- --  -- -- -- -- -- -- -- --
06A0:    37 3C 80 3D 80 3E 80  3F 80 00                  7<.=.>.?..     
```

#### Opcodes

```
  0: 0x06A1 [0x37] UPDATE_EVENT_POSITION_AND_DIR: x=-16.000*, z=68.922*, y=-3.000*, direction=181.2*
  1: 0x06AA [0x00] END_REQSTACK()
```

### Event 65535.6

#### Metadata

| Field        | Value    |
|--------------|----------|
| Entrypoint   | 0x06AB   |
| Data Size    | 14 bytes |
| Instructions | 4        |

```
      00 01 02 03 04 05 06 07  08 09 0A 0B 0C 0D 0E 0F
      -- -- -- -- -- -- -- --  -- -- -- -- -- -- -- --
06A0:                                   32 34 80 1F 00             24...
06B0: 40 80 3D 80 3E 80 1F 01  00                       @.=.>....       
```

#### Opcodes

```
  0: 0x06AB [0x32] ExtData[1]->MainSpeed = 13* * 0.1
  1: 0x06AE [0x1F] MOVE_ENTITY: EventEntity moves to X=-28.526*, Z=68.922*, Y=-3.000*
  2: 0x06B6 [0x1F] MOVE_ENTITY: Update entity position (mode=1)
  3: 0x06B8 [0x00] END_REQSTACK()
```

### Event 65535.7

#### Metadata

| Field        | Value    |
|--------------|----------|
| Entrypoint   | 0x06B9   |
| Data Size    | 24 bytes |
| Instructions | 5        |

```
      00 01 02 03 04 05 06 07  08 09 0A 0B 0C 0D 0E 0F
      -- -- -- -- -- -- -- --  -- -- -- -- -- -- -- --
06B0:                             79 00 F8 FF FF 7F 03           y......
06C0: 90 0E 01 32 34 80 1F 00  41 80 42 80 43 80 1F 01  ...24...A.B.C...
06D0: 00                                                .               
```

#### Opcodes

```
  0: 0x06B9 [0x79] EventEntity looks at Trion (ID: 17731587/0x010E9003) (Basic look)
  1: 0x06C3 [0x32] ExtData[1]->MainSpeed = 13* * 0.1
  2: 0x06C6 [0x1F] MOVE_ENTITY: EventEntity moves to X=-37.276*, Z=72.338*, Y=-3.499*
  3: 0x06CE [0x1F] MOVE_ENTITY: Update entity position (mode=1)
  4: 0x06D0 [0x00] END_REQSTACK()
```

### Event 65535.8

#### Metadata

| Field        | Value    |
|--------------|----------|
| Entrypoint   | 0x06D1   |
| Data Size    | 10 bytes |
| Instructions | 2        |

```
      00 01 02 03 04 05 06 07  08 09 0A 0B 0C 0D 0E 0F
      -- -- -- -- -- -- -- --  -- -- -- -- -- -- -- --
06D0:    37 44 80 45 80 3E 80  46 80 00                  7D.E.>.F..     
```

#### Opcodes

```
  0: 0x06D1 [0x37] UPDATE_EVENT_POSITION_AND_DIR: x=-37.315*, z=69.144*, y=-3.000*, direction=271.3*
  1: 0x06DA [0x00] END_REQSTACK()
```

### Event 65535.9

#### Metadata

| Field        | Value    |
|--------------|----------|
| Entrypoint   | 0x06DB   |
| Data Size    | 15 bytes |
| Instructions | 3        |

```
      00 01 02 03 04 05 06 07  08 09 0A 0B 0C 0D 0E 0F
      -- -- -- -- -- -- -- --  -- -- -- -- -- -- -- --
06D0:                                   37 47 80 48 80             7G.H.
06E0: 49 80 4A 80 1E 03 90 0E  01 00                    I.J.......      
```

#### Opcodes

```
  0: 0x06DB [0x37] UPDATE_EVENT_POSITION_AND_DIR: x=-36.690*, z=83.716*, y=-3.749*, direction=90.0*
  1: 0x06E4 [0x1E] EventEntity looks at Trion (ID: 17731587/0x010E9003) and starts talking
  2: 0x06E9 [0x00] END_REQSTACK()
```

### Event 65535.10

#### Metadata

| Field        | Value    |
|--------------|----------|
| Entrypoint   | 0x06EA   |
| Data Size    | 23 bytes |
| Instructions | 5        |

```
      00 01 02 03 04 05 06 07  08 09 0A 0B 0C 0D 0E 0F
      -- -- -- -- -- -- -- --  -- -- -- -- -- -- -- --
06E0:                                37 4B 80 4C 80 49            7K.L.I
06F0: 80 4D 80 32 4E 80 1F 00  4F 80 50 80 3E 80 1F 01  .M.2N...O.P.>...
0700: 00                                                .               
```

#### Opcodes

```
  0: 0x06EA [0x37] UPDATE_EVENT_POSITION_AND_DIR: x=-37.136*, z=73.534*, y=-3.749*, direction=88.2*
  1: 0x06F3 [0x32] ExtData[1]->MainSpeed = 40* * 0.1
  2: 0x06F6 [0x1F] MOVE_ENTITY: EventEntity moves to X=-37.226*, Z=70.233*, Y=-3.000*
  3: 0x06FE [0x1F] MOVE_ENTITY: Update entity position (mode=1)
  4: 0x0700 [0x00] END_REQSTACK()
```

### Event 65535.11

#### Metadata

| Field        | Value    |
|--------------|----------|
| Entrypoint   | 0x0701   |
| Data Size    | 22 bytes |
| Instructions | 4        |

```
      00 01 02 03 04 05 06 07  08 09 0A 0B 0C 0D 0E 0F
      -- -- -- -- -- -- -- --  -- -- -- -- -- -- -- --
0700:    22 00 79 00 F8 FF FF  7F 07 90 0E 01 37 51 80   ".y.........7Q.
0710: 52 80 03 80 53 80 00                              R...S..         
```

#### Opcodes

```
  0: 0x0701 [0x22] ENTITY_HIDE_FLAG(enabled=0x00)
  1: 0x0703 [0x79] EventEntity looks at Halver (ID: 17731591/0x010E9007) (Basic look)
  2: 0x070D [0x37] UPDATE_EVENT_POSITION_AND_DIR: x=3.204*, z=0.453*, y=0.000*, direction=235.5*
  3: 0x0716 [0x00] END_REQSTACK()
```

### Event 65535.12

#### Metadata

| Field        | Value    |
|--------------|----------|
| Entrypoint   | 0x0717   |
| Data Size    | 10 bytes |
| Instructions | 2        |

```
      00 01 02 03 04 05 06 07  08 09 0A 0B 0C 0D 0E 0F
      -- -- -- -- -- -- -- --  -- -- -- -- -- -- -- --
0710:                      37  54 80 55 80 3E 80 56 80         7T.U.>.V.
0720: 00                                                .               
```

#### Opcodes

```
  0: 0x0717 [0x37] UPDATE_EVENT_POSITION_AND_DIR: x=-17.000*, z=67.673*, y=-3.000*, direction=180.7*
  1: 0x0720 [0x00] END_REQSTACK()
```

### Event 65535.13

#### Metadata

| Field        | Value    |
|--------------|----------|
| Entrypoint   | 0x0721   |
| Data Size    | 14 bytes |
| Instructions | 4        |

```
      00 01 02 03 04 05 06 07  08 09 0A 0B 0C 0D 0E 0F
      -- -- -- -- -- -- -- --  -- -- -- -- -- -- -- --
0720:    32 34 80 1F 00 40 80  55 80 3E 80 1F 01 00      24...@.U.>.... 
```

#### Opcodes

```
  0: 0x0721 [0x32] ExtData[1]->MainSpeed = 13* * 0.1
  1: 0x0724 [0x1F] MOVE_ENTITY: EventEntity moves to X=-28.526*, Z=67.673*, Y=-3.000*
  2: 0x072C [0x1F] MOVE_ENTITY: Update entity position (mode=1)
  3: 0x072E [0x00] END_REQSTACK()
```

### Event 65535.14

#### Metadata

| Field        | Value    |
|--------------|----------|
| Entrypoint   | 0x072F   |
| Data Size    | 18 bytes |
| Instructions | 4        |

```
      00 01 02 03 04 05 06 07  08 09 0A 0B 0C 0D 0E 0F
      -- -- -- -- -- -- -- --  -- -- -- -- -- -- -- --
0720:                                               7B                 {
0730: F8 FF FF 7F 32 34 80 37  57 80 58 80 59 80 5A 80  ....24.7W.X.Y.Z.
0740: 00                                                .               
```

#### Opcodes

```
  0: 0x072F [0x7B] EventEntity stops talking
  1: 0x0734 [0x32] ExtData[1]->MainSpeed = 13* * 0.1
  2: 0x0737 [0x37] UPDATE_EVENT_POSITION_AND_DIR: x=-38.774*, z=68.500*, y=-3.249*, direction=271.0*
  3: 0x0740 [0x00] END_REQSTACK()
```

### Event 65535.15

#### Metadata

| Field        | Value    |
|--------------|----------|
| Entrypoint   | 0x0741   |
| Data Size    | 14 bytes |
| Instructions | 4        |

```
      00 01 02 03 04 05 06 07  08 09 0A 0B 0C 0D 0E 0F
      -- -- -- -- -- -- -- --  -- -- -- -- -- -- -- --
0740:    32 34 80 1F 00 5B 80  5C 80 49 80 1F 01 00      24...[.\.I.... 
```

#### Opcodes

```
  0: 0x0741 [0x32] ExtData[1]->MainSpeed = 13* * 0.1
  1: 0x0744 [0x1F] MOVE_ENTITY: EventEntity moves to X=-38.783*, Z=71.000*, Y=-3.749*
  2: 0x074C [0x1F] MOVE_ENTITY: Update entity position (mode=1)
  3: 0x074E [0x00] END_REQSTACK()
```

### Event 65535.16

#### Metadata

| Field        | Value    |
|--------------|----------|
| Entrypoint   | 0x074F   |
| Data Size    | 24 bytes |
| Instructions | 6        |

```
      00 01 02 03 04 05 06 07  08 09 0A 0B 0C 0D 0E 0F
      -- -- -- -- -- -- -- --  -- -- -- -- -- -- -- --
0740:                                               37                 7
0750: 5D 80 5E 80 49 80 5F 80  32 34 80 1F 00 5D 80 60  ].^.I._.24...].`
0760: 80 49 80 1F 01 6F 00                              .I...o.         
```

#### Opcodes

```
  0: 0x074F [0x37] UPDATE_EVENT_POSITION_AND_DIR: x=-39.198*, z=81.873*, y=-3.749*, direction=270.0*
  1: 0x0758 [0x32] ExtData[1]->MainSpeed = 13* * 0.1
  2: 0x075B [0x1F] MOVE_ENTITY: EventEntity moves to X=-39.198*, Z=85.549*, Y=-3.749*
  3: 0x0763 [0x1F] MOVE_ENTITY: Update entity position (mode=1)
  4: 0x0765 [0x6F] WAIT_FRAME_DELAY: Yield until WaitTime reaches zero
  5: 0x0766 [0x00] END_REQSTACK()
```

### Event 65535.17

#### Metadata

| Field        | Value    |
|--------------|----------|
| Entrypoint   | 0x0767   |
| Data Size    | 31 bytes |
| Instructions | 7        |

```
      00 01 02 03 04 05 06 07  08 09 0A 0B 0C 0D 0E 0F
      -- -- -- -- -- -- -- --  -- -- -- -- -- -- -- --
0760:                      37  61 80 62 80 49 80 63 80         7a.b.I.c.
0770: 1C 17 80 32 4E 80 1F 00  64 80 65 80 3E 80 1F 01  ...2N...d.e.>...
0780: 1E 07 90 0E 01 00                                 ......          
```

#### Opcodes

```
  0: 0x0767 [0x37] UPDATE_EVENT_POSITION_AND_DIR: x=-38.791*, z=73.646*, y=-3.749*, direction=90.2*
  1: 0x0770 [0x1C] WAIT(30* ticks)
  2: 0x0773 [0x32] ExtData[1]->MainSpeed = 40* * 0.1
  3: 0x0776 [0x1F] MOVE_ENTITY: EventEntity moves to X=-38.776*, Z=70.111*, Y=-3.000*
  4: 0x077E [0x1F] MOVE_ENTITY: Update entity position (mode=1)
  5: 0x0780 [0x1E] EventEntity looks at Halver (ID: 17731591/0x010E9007) and starts talking
  6: 0x0785 [0x00] END_REQSTACK()
```

### Event 65

#### Metadata

| Field        | Value      |
|--------------|------------|
| Entrypoint   | 0x0786     |
| Data Size    | 2259 bytes |
| Instructions | 304        |

```
      00 01 02 03 04 05 06 07  08 09 0A 0B 0C 0D 0E 0F
      -- -- -- -- -- -- -- --  -- -- -- -- -- -- -- --
0780:                   03 00  00 02 10 03 01 00 03 10        ..........
0790: 03 02 00 09 10 20 01 46  01 42 02 02 00 0B 80 00  ..... .F.B......
07A0: A5 07 01 05 0F 4A 07 90  0E 01 F0 FF FF 7F 6F 76  .....J........ov
07B0: 07 90 0E 01 2B 07 90 0E  01 66 80 23 2B 07 90 0E  ....+....f.#+...
07C0: 01 67 80 23 45 02 80 F0  FF FF 7F F0 FF FF 7F 66  .g.#E..........f
07D0: 64 6F 31 03 80 55 02 80  F0 FF FF 7F F0 FF FF 7F  do1..U..........
07E0: 66 64 6F 31 5D 68 80 69  80 38 05 80 37 03 80 03  fdo1]h.i.8..7...
07F0: 80 03 80 03 80 97 03 80  0B 80 29 03 07 90 0E 01  ..........).....
0800: 5F 27 04 07 90 0E 01 60  45 6A 80 F0 FF FF 7F F0  _'.....`Ej......
0810: FF FF 7F 7A 30 30 30 03  80 55 6A 80 F0 FF FF 7F  ...z000..Uj.....
0820: F0 FF FF 7F 7A 30 30 30  45 02 80 F0 FF FF 7F F0  ....z000E.......
0830: FF FF 7F 66 64 69 31 03  80 55 02 80 F0 FF FF 7F  ...fdi1..U......
0840: F0 FF FF 7F 66 64 69 31  2A 04 07 90 0E 01 27 03  ....fdi1*.....'.
0850: 07 90 0E 01 02 2B 07 90  0E 01 6B 80 23 45 6A 80  .....+....k.#Ej.
0860: F0 FF FF 7F F0 FF FF 7F  7A 30 30 31 03 80 55 6A  ........z001..Uj
0870: 80 F0 FF FF 7F F0 FF FF  7F 7A 30 30 31 2A 03 07  .........z001*..
0880: 90 0E 01 27 03 01 90 0E  01 10 2B 01 90 0E 01 6C  ...'......+....l
0890: 80 23 27 03 01 90 0E 01  11 2B 07 90 0E 01 6D 80  .#'......+....m.
08A0: 23 5C 00 6E 80 5C 01 6E  80 45 6A 80 F0 FF FF 7F  #\.n.\.n.Ej.....
08B0: F0 FF FF 7F 7A 30 30 32  03 80 55 6A 80 F0 FF FF  ....z002..Uj....
08C0: 7F F0 FF FF 7F 7A 30 30  32 2B 01 90 0E 01 6F 80  .....z002+....o.
08D0: 23 27 03 07 90 0E 01 04  45 6A 80 F0 FF FF 7F F0  #'......Ej......
08E0: FF FF 7F 7A 30 30 33 03  80 2B 07 90 0E 01 70 80  ...z003..+....p.
08F0: 1C 13 80 23 52 6A 80 F0  FF FF 7F F0 FF FF 7F 7A  ...#Rj.........z
0900: 30 30 33 45 02 80 07 90  0E 01 07 90 0E 01 6F 76  003E..........ov
0910: 6C 31 03 80 45 6A 80 F0  FF FF 7F F0 FF FF 7F 7A  l1..Ej.........z
0920: 30 30 34 03 80 2B 07 90  0E 01 71 80 1C 13 80 23  004..+....q....#
0930: 52 6A 80 F0 FF FF 7F F0  FF FF 7F 7A 30 30 34 45  Rj.........z004E
0940: 02 80 07 90 0E 01 07 90  0E 01 6F 76 6C 31 03 80  ..........ovl1..
0950: 45 6A 80 F0 FF FF 7F F0  FF FF 7F 7A 30 30 35 03  Ej.........z005.
0960: 80 2B 07 90 0E 01 72 80  1C 13 80 23 52 6A 80 F0  .+....r....#Rj..
0970: FF FF 7F F0 FF FF 7F 7A  30 30 35 27 03 01 90 0E  .......z005'....
0980: 01 12 45 02 80 07 90 0E  01 07 90 0E 01 6F 76 6C  ..E..........ovl
0990: 31 03 80 45 6A 80 F0 FF  FF 7F F0 FF FF 7F 7A 30  1..Ej.........z0
09A0: 30 36 03 80 2B 07 90 0E  01 73 80 1C 13 80 23 52  06..+....s....#R
09B0: 6A 80 F0 FF FF 7F F0 FF  FF 7F 7A 30 30 36 5D 03  j.........z006].
09C0: 80 03 80 2B 01 90 0E 01  74 80 27 03 07 90 0E 01  ...+....t.'.....
09D0: 05 1C 75 80 45 6A 80 F0  FF FF 7F F0 FF FF 7F 7A  ..u.Ej.........z
09E0: 30 30 31 03 80 55 6A 80  F0 FF FF 7F F0 FF FF 7F  001..Uj.........
09F0: 7A 30 30 31 23 2B 07 90  0E 01 76 80 23 45 6A 80  z001#+....v.#Ej.
0A00: F0 FF FF 7F F0 FF FF 7F  7A 30 30 37 03 80 55 6A  ........z007..Uj
0A10: 80 F0 FF FF 7F F0 FF FF  7F 7A 30 30 37 27 03 01  .........z007'..
0A20: 90 0E 01 13 1C 22 80 5D  77 80 69 80 2B 01 90 0E  .....".]w.i.+...
0A30: 01 78 80 23 2A 03 01 90  0E 01 45 6A 80 F0 FF FF  .x.#*.....Ej....
0A40: 7F F0 FF FF 7F 7A 30 30  38 03 80 55 6A 80 F0 FF  .....z008..Uj...
0A50: FF 7F F0 FF FF 7F 7A 30  30 38 2B 07 90 0E 01 79  ......z008+....y
0A60: 80 23 2B 01 90 0E 01 7A  80 23 45 6A 80 F0 FF FF  .#+....z.#Ej....
0A70: 7F F0 FF FF 7F 7A 30 30  39 03 80 55 6A 80 F0 FF  .....z009..Uj...
0A80: FF 7F F0 FF FF 7F 7A 30  30 39 27 03 07 90 0E 01  ......z009'.....
0A90: 04 2B 07 90 0E 01 7B 80  23 27 03 07 90 0E 01 05  .+....{.#'......
0AA0: 27 03 01 90 0E 01 10 2B  01 90 0E 01 7C 80 23 27  '......+....|.#'
0AB0: 03 01 90 0E 01 11 45 6A  80 F0 FF FF 7F F0 FF FF  ......Ej........
0AC0: 7F 7A 30 31 30 03 80 2B  07 90 0E 01 7D 80 23 55  .z010..+....}.#U
0AD0: 6A 80 F0 FF FF 7F F0 FF  FF 7F 7A 30 31 30 2B 07  j.........z010+.
0AE0: 90 0E 01 7E 80 23 45 6A  80 F0 FF FF 7F F0 FF FF  ...~.#Ej........
0AF0: 7F 7A 30 31 31 03 80 55  6A 80 F0 FF FF 7F F0 FF  .z011..Uj.......
0B00: FF 7F 7A 30 31 31 2B 01  90 0E 01 7F 80 23 45 6A  ..z011+......#Ej
0B10: 80 F0 FF FF 7F F0 FF FF  7F 7A 30 31 32 03 80 1C  .........z012...
0B20: 69 80 2B 07 90 0E 01 80  80 55 6A 80 F0 FF FF 7F  i.+......Uj.....
0B30: F0 FF FF 7F 7A 30 31 32  1C 13 80 23 45 6A 80 F0  ....z012...#Ej..
0B40: FF FF 7F F0 FF FF 7F 7A  30 31 33 03 80 55 6A 80  .......z013..Uj.
0B50: F0 FF FF 7F F0 FF FF 7F  7A 30 31 33 2B 07 90 0E  ........z013+...
0B60: 01 81 80 23 45 6A 80 F0  FF FF 7F F0 FF FF 7F 7A  ...#Ej.........z
0B70: 30 30 32 03 80 55 6A 80  F0 FF FF 7F F0 FF FF 7F  002..Uj.........
0B80: 7A 30 30 32 2B 01 90 0E  01 82 80 23 27 03 07 90  z002+......#'...
0B90: 0E 01 06 45 6A 80 F0 FF  FF 7F F0 FF FF 7F 7A 30  ...Ej.........z0
0BA0: 31 34 03 80 2B 07 90 0E  01 83 80 23 55 6A 80 F0  14..+......#Uj..
0BB0: FF FF 7F F0 FF FF 7F 7A  30 31 34 27 03 07 90 0E  .......z014'....
0BC0: 01 07 1C 17 80 5D 03 80  03 80 2B 07 90 0E 01 84  .....]....+.....
0BD0: 80 23 45 6A 80 F0 FF FF  7F F0 FF FF 7F 7A 30 31  .#Ej.........z01
0BE0: 35 03 80 55 6A 80 F0 FF  FF 7F F0 FF FF 7F 7A 30  5..Uj.........z0
0BF0: 31 35 27 03 01 90 0E 01  10 2B 01 90 0E 01 85 80  15'......+......
0C00: 23 2B 01 90 0E 01 86 80  23 29 03 01 90 0E 01 11  #+......#)......
0C10: 5D 77 80 69 80 45 6A 80  F0 FF FF 7F F0 FF FF 7F  ]w.i.Ej.........
0C20: 7A 30 30 38 03 80 55 6A  80 F0 FF FF 7F F0 FF FF  z008..Uj........
0C30: 7F 7A 30 30 38 2B 07 90  0E 01 87 80 23 27 03 01  .z008+......#'..
0C40: 90 0E 01 10 2B 01 90 0E  01 88 80 23 2B 01 90 0E  ....+......#+...
0C50: 01 89 80 23 27 03 01 90  0E 01 11 27 03 07 90 0E  ...#'......'....
0C60: 01 06 45 6A 80 F0 FF FF  7F F0 FF FF 7F 7A 30 31  ..Ej.........z01
0C70: 36 03 80 1C 17 80 2B 07  90 0E 01 8A 80 23 55 6A  6.....+......#Uj
0C80: 80 F0 FF FF 7F F0 FF FF  7F 7A 30 31 36 1C 13 80  .........z016...
0C90: 27 03 07 90 0E 01 07 1C  17 80 2B 07 90 0E 01 8B  '.........+.....
0CA0: 80 23 2B 07 90 0E 01 8C  80 23 5D 03 80 03 80 45  .#+......#]....E
0CB0: 6A 80 F0 FF FF 7F F0 FF  FF 7F 7A 30 31 37 03 80  j.........z017..
0CC0: 2B 01 90 0E 01 8D 80 23  55 6A 80 F0 FF FF 7F F0  +......#Uj......
0CD0: FF FF 7F 7A 30 31 37 27  03 07 90 0E 01 04 2B 07  ...z017'......+.
0CE0: 90 0E 01 8E 80 23 27 03  07 90 0E 01 05 45 6A 80  .....#'......Ej.
0CF0: F0 FF FF 7F F0 FF FF 7F  7A 30 31 38 03 80 55 6A  ........z018..Uj
0D00: 80 F0 FF FF 7F F0 FF FF  7F 7A 30 31 38 2B 01 90  .........z018+..
0D10: 0E 01 8F 80 23 5D 77 80  69 80 27 03 01 90 0E 01  ....#]w.i.'.....
0D20: 12 1C 13 80 2B 01 90 0E  01 90 80 23 1C 13 80 2B  ....+......#...+
0D30: 07 90 0E 01 91 80 23 1C  13 80 4E 00 05 90 0E 01  ......#...N.....
0D40: 2B 05 90 0E 01 92 80 1C  17 80 27 03 01 90 0E 01  +.........'.....
0D50: 13 27 03 05 90 0E 01 0B  79 00 01 90 0E 01 05 90  .'......y.......
0D60: 0E 01 4A 07 90 0E 01 05  90 0E 01 1C 17 80 45 6A  ..J...........Ej
0D70: 80 F0 FF FF 7F F0 FF FF  7F 79 30 30 30 03 80 55  .........y000..U
0D80: 6A 80 F0 FF FF 7F F0 FF  FF 7F 79 30 30 30 2A 03  j.........y000*.
0D90: 05 90 0E 01 1C 13 80 23  27 04 05 90 0E 01 0C 1C  .......#'.......
0DA0: 17 80 2B 07 90 0E 01 93  80 45 6A 80 F0 FF FF 7F  ..+......Ej.....
0DB0: F0 FF FF 7F 79 30 30 31  03 80 55 6A 80 F0 FF FF  ....y001..Uj....
0DC0: 7F F0 FF FF 7F 79 30 30  31 2A 04 05 90 0E 01 23  .....y001*.....#
0DD0: 2B 05 90 0E 01 94 80 23  6F 76 05 90 0E 01 2B 01  +......#ov....+.
0DE0: 90 0E 01 95 80 23 2B 05  90 0E 01 96 80 23 27 03  .....#+......#'.
0DF0: 05 90 0E 01 2B 45 6A 80  F0 FF FF 7F F0 FF FF 7F  ....+Ej.........
0E00: 79 30 30 32 03 80 27 02  05 90 0E 01 08 1C 69 80  y002..'.......i.
0E10: 4A 05 90 0E 01 07 90 0E  01 1C 13 80 2A 02 05 90  J...........*...
0E20: 0E 01 2B 05 90 0E 01 97  80 23 27 03 05 90 0E 01  ..+......#'.....
0E30: 2C 55 6A 80 F0 FF FF 7F  F0 FF FF 7F 79 30 30 32  ,Uj.........y002
0E40: 45 6A 80 F0 FF FF 7F F0  FF FF 7F 79 30 30 33 03  Ej.........y003.
0E50: 80 55 6A 80 F0 FF FF 7F  F0 FF FF 7F 79 30 30 33  .Uj.........y003
0E60: 4A 05 90 0E 01 01 90 0E  01 79 00 01 90 0E 01 07  J........y......
0E70: 90 0E 01 27 03 07 90 0E  01 06 2B 07 90 0E 01 98  ...'......+.....
0E80: 80 23 45 6A 80 F0 FF FF  7F F0 FF FF 7F 79 30 30  .#Ej.........y00
0E90: 34 03 80 55 6A 80 F0 FF  FF 7F F0 FF FF 7F 79 30  4..Uj.........y0
0EA0: 30 34 27 03 07 90 0E 01  07 27 03 01 90 0E 01 10  04'......'......
0EB0: 2B 01 90 0E 01 99 80 23  79 00 01 90 0E 01 05 90  +......#y.......
0EC0: 0E 01 1C 1A 80 2B 01 90  0E 01 9A 80 23 27 03 01  .....+......#'..
0ED0: 90 0E 01 11 6F 76 05 90  0E 01 45 6A 80 F0 FF FF  ....ov....Ej....
0EE0: 7F F0 FF FF 7F 79 30 30  35 03 80 55 6A 80 F0 FF  .....y005..Uj...
0EF0: FF 7F F0 FF FF 7F 79 30  30 35 2B 05 90 0E 01 9B  ......y005+.....
0F00: 80 23 1C 17 80 45 02 80  F0 FF FF 7F F0 FF FF 7F  .#...E..........
0F10: 66 64 6F 31 03 80 55 02  80 F0 FF FF 7F F0 FF FF  fdo1..U.........
0F20: 7F 66 64 6F 31 38 05 80  97 03 80 0B 80 45 6A 80  .fdo18.......Ej.
0F30: F0 FF FF 7F F0 FF FF 7F  79 30 30 36 03 80 55 6A  ........y006..Uj
0F40: 80 F0 FF FF 7F F0 FF FF  7F 79 30 30 36 37 9C 80  .........y0067..
0F50: 9D 80 03 80 9E 80 29 03  07 90 0E 01 16 4A 07 90  ......)......J..
0F60: 0E 01 F0 FF FF 7F 5C 00  38 80 5C 01 38 80 45 02  ......\.8.\.8.E.
0F70: 80 F0 FF FF 7F F0 FF FF  7F 66 64 69 31 03 80 55  .........fdi1..U
0F80: 02 80 F0 FF FF 7F F0 FF  FF 7F 66 64 69 31 02 02  ..........fdi1..
0F90: 00 03 80 00 A1 0F 2B 07  90 0E 01 9F 80 23 01 A9  ......+......#..
0FA0: 0F 2B 07 90 0E 01 A0 80  23 2B 07 90 0E 01 A1 80  .+......#+......
0FB0: 23 29 03 07 90 0E 01 14  2B 07 90 0E 01 A2 80 23  #)......+......#
0FC0: 2B 07 90 0E 01 A3 80 23  06 01 10 24 A4 80 0B 80  +......#...$....
0FD0: 03 80 25 02 00 10 03 80  00 11 10 45 6A 80 F0 FF  ..%........Ej...
0FE0: FF 7F F0 FF FF 7F 79 30  30 37 03 80 55 6A 80 F0  ......y007..Uj..
