# Event 333

## Metadata

| Field           | Value    |
|-----------------|----------|
| Event Index     | 6/6      |
| Offset          | 0x00B7   |
| Data Size       | 23 bytes |
| Calculated Size | 23 bytes |
| Instructions    | 9        |

```
      00 01 02 03 04 05 06 07  08 09 0A 0B 0C 0D 0E 0F
      -- -- -- -- -- -- -- --  -- -- -- -- -- -- -- --
00B0:                      1E  F0 FF FF 7F 6F 70 03 02         .....op..
00C0: 10 04 80 03 03 10 05 80  1D 12 80 23 21 00        ...........#!.  
```

## Opcodes

```
  0: 0x00B7 [0x1E] EventEntity looks at LocalPlayer and starts talking
  1: 0x00BC [0x6F] WAIT_FRAME_DELAY: Yield until WaitTime reaches zero
  2: 0x00BD [0x70] WAIT_ENTITY_RENDER_FLAG: Wait while EventEntity->Render.Flags3 bit 2 is set (cancel turn if not)
  3: 0x00BE [0x03] Work_Zone[2] = 3930*
  4: 0x00C3 [0x03] Work_Zone[3] = 2*
  5: 0x00C8 [0x1D] PRINT_EVENT_MESSAGE(message_id=7568*)
    → "Have you forgotten what I need? 
\u0001 \u0001\u0005%\u0002\u0000\u0000\u0000.\u007F1\u0000\u0007"
  6: 0x00CB [0x23] WAIT_FOR_DIALOG_INTERACTION
  7: 0x00CC [0x21] END_EVENT
  8: 0x00CD [0x00] END_REQSTACK()
```
