# Event 65535

## Metadata

| Field           | Value    |
|-----------------|----------|
| Event Index     | 22/38    |
| Offset          | 0x012E   |
| Data Size       | 50 bytes |
| Calculated Size | 50 bytes |
| Instructions    | 12       |

```
      00 01 02 03 04 05 06 07  08 09 0A 0B 0C 0D 0E 0F
      -- -- -- -- -- -- -- --  -- -- -- -- -- -- -- --
0120:                                            32 1C                2.
0130: 80 39 1D 80 1C 1E 80 1F  00 1F 80 20 80 0D 80 1F  .9......... ....
0140: 01 1F 00 21 80 22 80 0D  80 1F 01 1F 00 23 80 24  ...!.".......#.$
0150: 80 00 80 1F 01 1F 00 25  80 26 80 00 80 1F 01 00  .......%.&......
```

## Opcodes

```
  0: 0x012E [0x32] ExtData[1]->MainSpeed = 13* * 0.1
  1: 0x0131 [0x39] SET_ENTITY_DIRECTION(direction=4.4°*)
  2: 0x0134 [0x1C] WAIT(15* ticks)
  3: 0x0137 [0x1F] MOVE_ENTITY: EventEntity moves to X=-62.580*, Z=-5.700*, Y=-0.150*
  4: 0x013F [0x1F] MOVE_ENTITY: Update entity position (mode=1)
  5: 0x0141 [0x1F] MOVE_ENTITY: EventEntity moves to X=-61.020*, Z=-7.530*, Y=-0.150*
  6: 0x0149 [0x1F] MOVE_ENTITY: Update entity position (mode=1)
  7: 0x014B [0x1F] MOVE_ENTITY: EventEntity moves to X=-58.080*, Z=-9.000*, Y=0.000*
  8: 0x0153 [0x1F] MOVE_ENTITY: Update entity position (mode=1)
  9: 0x0155 [0x1F] MOVE_ENTITY: EventEntity moves to X=-53.220*, Z=-9.980*, Y=0.000*
 10: 0x015D [0x1F] MOVE_ENTITY: Update entity position (mode=1)
 11: 0x015F [0x00] END_REQSTACK()
```
