# Event 702

## Metadata

| Field           | Value    |
|-----------------|----------|
| Event Index     | 45/84    |
| Offset          | 0x1B41   |
| Data Size       | 83 bytes |
| Calculated Size | 83 bytes |
| Instructions    | 12       |

```
      00 01 02 03 04 05 06 07  08 09 0A 0B 0C 0D 0E 0F
      -- -- -- -- -- -- -- --  -- -- -- -- -- -- -- --
1B40:    20 01 42 46 01 45 04  80 F0 FF FF 7F F0 FF FF    .BF.E.........
1B50: 7F 66 64 69 32 02 80 45  5B 80 F0 FF FF 7F F0 FF  .fdi2..E[.......
1B60: FF 7F 73 73 68 70 CA 80  1C CB 80 45 04 80 F0 FF  ..sshp.....E....
1B70: FF 7F F0 FF FF 7F 66 64  6F 31 02 80 1C 12 80 46  ......fdo1.....F
1B80: 00 45 04 80 F0 FF FF 7F  F0 FF FF 7F 66 64 69 31  .E..........fdi1
1B90: 02 80 21 00                                       ..!.            
```

## Opcodes

```
  0: 0x1B41 [0x20] SET_CLI_EVENT_UC_FLAG: Lock player control
  1: 0x1B43 [0x42] SET_CLI_EVENT_CANCEL_DATA()
  2: 0x1B44 [0x46] CAMERA_CONTROL: Disable user control
  3: 0x1B46 [0x45] LOAD_SCHEDULED_TASK(work_offset1=200*, entity1=LocalPlayer, entity2=LocalPlayer, scheduler_id="fdi2", work_offset2=0*)
  4: 0x1B57 [0x45] LOAD_SCHEDULED_TASK(work_offset1=132*, entity1=LocalPlayer, entity2=LocalPlayer, scheduler_id="sshp", work_offset2=600*)
  5: 0x1B68 [0x1C] WAIT(540* ticks)
  6: 0x1B6B [0x45] LOAD_SCHEDULED_TASK(work_offset1=200*, entity1=LocalPlayer, entity2=LocalPlayer, scheduler_id="fdo1", work_offset2=0*)
  7: 0x1B7C [0x1C] WAIT(60* ticks)
  8: 0x1B7F [0x46] CAMERA_CONTROL: Restore default settings
  9: 0x1B81 [0x45] LOAD_SCHEDULED_TASK(work_offset1=200*, entity1=LocalPlayer, entity2=LocalPlayer, scheduler_id="fdi1", work_offset2=0*)
 10: 0x1B92 [0x21] END_EVENT
 11: 0x1B93 [0x00] END_REQSTACK()
```
