# Event 670

## Metadata

| Field           | Value    |
|-----------------|----------|
| Event Index     | 34/58    |
| Offset          | 0x0267   |
| Data Size       | 59 bytes |
| Calculated Size | 59 bytes |
| Instructions    | 13       |

```
      00 01 02 03 04 05 06 07  08 09 0A 0B 0C 0D 0E 0F
      -- -- -- -- -- -- -- --  -- -- -- -- -- -- -- --
0260:                      20  01 42 1E F0 FF FF 7F 6F          .B.....o
0270: 70 29 0B 54 E0 0E 01 22  29 0B 54 E0 0E 01 23 29  p).T...").T...#)
0280: 0B 54 E0 0E 01 24 29 0B  54 E0 0E 01 26 45 0D 80  .T...$).T...&E..
0290: F0 FF FF 7F F0 FF FF 7F  71 73 74 63 0E 80 20 00  ........qstc.. .
02A0: 21 00                                             !.              
```

## Opcodes

```
  0: 0x0267 [0x20] SET_CLI_EVENT_UC_FLAG: Lock player control
  1: 0x0269 [0x42] SET_CLI_EVENT_CANCEL_DATA()
  2: 0x026A [0x1E] EventEntity looks at LocalPlayer and starts talking
  3: 0x026F [0x6F] WAIT_FRAME_DELAY: Yield until WaitTime reaches zero
  4: 0x0270 [0x70] WAIT_ENTITY_RENDER_FLAG: Wait while EventEntity->Render.Flags3 bit 2 is set (cancel turn if not)
  5: 0x0271 [0x29] REQ_SET_WAIT(priority=0x0B, entity_id=Naiko-Paneiko (ID: 17752148/0x010EE054), tag_num=0x22)
  6: 0x0278 [0x29] REQ_SET_WAIT(priority=0x0B, entity_id=Naiko-Paneiko (ID: 17752148/0x010EE054), tag_num=0x23)
  7: 0x027F [0x29] REQ_SET_WAIT(priority=0x0B, entity_id=Naiko-Paneiko (ID: 17752148/0x010EE054), tag_num=0x24)
  8: 0x0286 [0x29] REQ_SET_WAIT(priority=0x0B, entity_id=Naiko-Paneiko (ID: 17752148/0x010EE054), tag_num=0x26)
  9: 0x028D [0x45] LOAD_SCHEDULED_TASK: Load scheduler "qstc" with entities [LocalPlayer, LocalPlayer], work=[201*, 0*]
 10: 0x029E [0x20] SET_CLI_EVENT_UC_FLAG: Unlock player control
 11: 0x02A0 [0x21] END_EVENT
 12: 0x02A1 [0x00] END_REQSTACK()
```
