# Event 674

## Metadata

| Field           | Value    |
|-----------------|----------|
| Event Index     | 42/58    |
| Offset          | 0x03A4   |
| Data Size       | 45 bytes |
| Calculated Size | 45 bytes |
| Instructions    | 11       |

```
      00 01 02 03 04 05 06 07  08 09 0A 0B 0C 0D 0E 0F
      -- -- -- -- -- -- -- --  -- -- -- -- -- -- -- --
03A0:             20 01 42 1E  F0 FF FF 7F 6F 70 29 0B       .B.....op).
03B0: 54 E0 0E 01 24 29 0B 54  E0 0E 01 26 45 0D 80 F0  T...$).T...&E...
03C0: FF FF 7F F0 FF FF 7F 71  73 74 63 0E 80 20 00 21  .......qstc.. .!
03D0: 00                                                .               
```

## Opcodes

```
  0: 0x03A4 [0x20] SET_CLI_EVENT_UC_FLAG: Lock player control
  1: 0x03A6 [0x42] SET_CLI_EVENT_CANCEL_DATA()
  2: 0x03A7 [0x1E] EventEntity looks at LocalPlayer and starts talking
  3: 0x03AC [0x6F] WAIT_FRAME_DELAY: Yield until WaitTime reaches zero
  4: 0x03AD [0x70] WAIT_ENTITY_RENDER_FLAG: Wait while EventEntity->Render.Flags3 bit 2 is set (cancel turn if not)
  5: 0x03AE [0x29] REQ_SET_WAIT(priority=0x0B, entity_id=Naiko-Paneiko (ID: 17752148/0x010EE054), tag_num=0x24)
  6: 0x03B5 [0x29] REQ_SET_WAIT(priority=0x0B, entity_id=Naiko-Paneiko (ID: 17752148/0x010EE054), tag_num=0x26)
  7: 0x03BC [0x45] LOAD_SCHEDULED_TASK: Load scheduler "qstc" with entities [LocalPlayer, LocalPlayer], work=[201*, 0*]
  8: 0x03CD [0x20] SET_CLI_EVENT_UC_FLAG: Unlock player control
  9: 0x03CF [0x21] END_EVENT
 10: 0x03D0 [0x00] END_REQSTACK()
```
