# 0x7FFFFFF0 - Zone Events

## Common Data

| Field            | Value                             |
|------------------|-----------------------------------|
| Zone             | Middle Delkfutt's Tower (ID: 157) |
| Block Size       | 1672 bytes                        |
| Total Events     | 18                                |
| References Count | 57                                |

## List of Events

| Event ID              | Entrypoint   |   Size |   Instructions |
|-----------------------|--------------|--------|----------------|
| [65535](#event-65535) | 0x0000       |      1 |              1 |
| [65534](#event-65534) | 0x0001       |      1 |              1 |
| [14](#event-14)       | 0x0002       |    455 |             67 |
| [0](#event-0)         | 0x01C9       |     53 |             15 |
| [1](#event-1)         | 0x01FE       |     53 |             15 |
| [2](#event-2)         | 0x0233       |     53 |             15 |
| [10](#event-10)       | 0x0268       |     53 |             15 |
| [3](#event-3)         | 0x029D       |     67 |             17 |
| [5](#event-5)         | 0x02E0       |     67 |             17 |
| [7](#event-7)         | 0x0323       |     67 |             17 |
| [9](#event-9)         | 0x0366       |     67 |             17 |
| [4](#event-4)         | 0x03A9       |     67 |             17 |
| [6](#event-6)         | 0x03EC       |     67 |             17 |
| [8](#event-8)         | 0x042F       |     67 |             17 |
| [11](#event-11)       | 0x0472       |     41 |              5 |
| [12](#event-12)       | 0x049B       |     38 |              4 |
| [13](#event-13)       | 0x04C1       |     50 |              8 |
| [16](#event-16)       | 0x04F3       |     88 |             22 |

## DAT References (imed_data)

|   Index | Hex Value   |   Dec Value |
|---------|-------------|-------------|
|       0 | 0x0000      |           0 |
|       1 | 0xFFFAADC8  |  4294618568 |
|       2 | 0x14048     |       81992 |
|       3 | 0xFFFE8906  |  4294871302 |
|       4 | 0x0278      |         632 |
|       5 | 0x0003      |           3 |
|       6 | 0x0001      |           1 |
|       7 | 0x0013      |          19 |
|       8 | 0x00CC      |         204 |
|       9 | 0x003C      |          60 |
|      10 | 0x000D      |          13 |
|      11 | 0xFFFAB2E3  |  4294619875 |
|      12 | 0x13CAC     |       81068 |
|      13 | 0xFFFE88EB  |  4294871275 |
|      14 | 0x0027      |          39 |
|      15 | 0x001E      |          30 |
|      16 | 0x1CB5      |        7349 |
|      17 | 0x1CB6      |        7350 |
|      18 | 0x00C8      |         200 |
|      19 | 0x1CB7      |        7351 |
|      20 | 0x1CB8      |        7352 |
|      21 | 0x1CB9      |        7353 |
|      22 | 0x0B78      |        2936 |
|      23 | 0x1CBA      |        7354 |
|      24 | 0x1CBB      |        7355 |
|      25 | 0x00C9      |         201 |
|      26 | 0x40000000  |  1073741824 |
|      27 | 0xFFF8806D  |  4294475885 |
|      28 | 0xFFFF5BB6  |  4294925238 |
|      29 | 0xFFFE88E3  |  4294871267 |
|      30 | 0x0A00      |        2560 |
|      31 | 0xFFFA899F  |  4294609311 |
|      32 | 0xFFFF3848  |  4294916168 |
|      33 | 0xFFFE8913  |  4294871315 |
|      34 | 0x068B      |        1675 |
|      35 | 0x4DA2      |       19874 |
|      36 | 0x18629     |       99881 |
|      37 | 0xFFFEC90F  |  4294887695 |
|      38 | 0x03E6      |         998 |
|      39 | 0xFFFF5F0F  |  4294926095 |
|      40 | 0xFFFF3747  |  4294915911 |
|      41 | 0xFFFEC787  |  4294887303 |
|      42 | 0x025A      |         602 |
|      43 | 0x163ED     |       91117 |
|      44 | 0xFFFF5CA9  |  4294925481 |
|      45 | 0xFFFEC796  |  4294887318 |
|      46 | 0x0D6B      |        3435 |
|      47 | 0x14069     |       82025 |
|      48 | 0x163BE     |       91070 |
|      49 | 0xFFFEC797  |  4294887319 |
|      50 | 0x097C      |        2428 |
|      51 | 0x008C      |         140 |
|      52 | 0x0002      |           2 |
|      53 | 0x00AA      |         170 |
|      54 | 0x0064      |         100 |
|      55 | 0x1CD3      |        7379 |
|      56 | 0x1CD0      |        7376 |

## String References

- **3**: Use the device? [Yes./No.]
- **7349**: The chest contains some armor and a letter.
- **7376**: Touch the crystal? [Yes./No.]
- **7379**: Touch the crystal? [Yes./No.]

## Events

### Event 65535

#### Metadata

| Field        | Value   |
|--------------|---------|
| Entrypoint   | 0x0000  |
| Data Size    | 1 bytes |
| Instructions | 1       |

```
      00 01 02 03 04 05 06 07  08 09 0A 0B 0C 0D 0E 0F
      -- -- -- -- -- -- -- --  -- -- -- -- -- -- -- --
0000: 00                                                .               
```

#### Opcodes

```
  0: 0x0000 [0x00] END_REQSTACK()
```

### Event 65534

#### Metadata

| Field        | Value   |
|--------------|---------|
| Entrypoint   | 0x0001  |
| Data Size    | 1 bytes |
| Instructions | 1       |

```
      00 01 02 03 04 05 06 07  08 09 0A 0B 0C 0D 0E 0F
      -- -- -- -- -- -- -- --  -- -- -- -- -- -- -- --
0000:    00                                              .              
```

#### Opcodes

```
  0: 0x0001 [0x00] END_REQSTACK()
```

### Event 14

#### Metadata

| Field        | Value     |
|--------------|-----------|
| Entrypoint   | 0x0002    |
| Data Size    | 455 bytes |
| Instructions | 67        |

```
      00 01 02 03 04 05 06 07  08 09 0A 0B 0C 0D 0E 0F
      -- -- -- -- -- -- -- --  -- -- -- -- -- -- -- --
0000:       20 01 42 02 02 10  00 80 01 19 00 37 01 80     .B........7..
0010: 02 80 03 80 04 80 01 41  00 24 05 80 06 80 00 80  .......A.$......
0020: 25 02 00 10 00 80 00 B7  01 42 43 00 43 01 29 01  %........BC.C.).
0030: F0 FF FF 7F 0E 47 00 01  80 02 80 03 80 04 80 47  .....G.........G
0040: 01 38 07 80 45 08 80 F8  FF FF 7F F8 FF FF 7F 73  .8..E..........s
0050: 30 32 33 00 80 29 01 F0  FF FF 7F 0F 46 01 55 08  023..)......F.U.
0060: 80 F8 FF FF 7F F8 FF FF  7F 73 30 32 33 1E 7A D1  .........s023.z.
0070: 09 01 1C 09 80 45 08 80  F8 FF FF 7F F8 FF FF 7F  .....E..........
0080: 73 30 32 34 00 80 32 0A  80 1F 00 0B 80 0C 80 0D  s024..2.........
0090: 80 1F 01 6E F0 FF FF 7F  0E 80 99 F0 FF FF 7F 1C  ...n............
00A0: 0F 80 2C 7A D1 09 01 7A  D1 09 01 6F 70 65 6E 48  ..,z...z...openH
00B0: 10 80 23 1C 0F 80 2B 79  D1 09 01 11 80 23 45 12  ..#...+y.....#E.
00C0: 80 F8 FF FF 7F F8 FF FF  7F 66 64 6F 32 00 80 2B  .........fdo2..+
00D0: 79 D1 09 01 13 80 23 55  12 80 F8 FF FF 7F F8 FF  y.....#U........
00E0: FF 7F 66 64 6F 32 27 0A  79 D1 09 01 02 52 08 80  ..fdo2'.y....R..
00F0: F8 FF FF 7F F8 FF FF 7F  73 30 32 34 45 08 80 F8  ........s024E...
0100: FF FF 7F F8 FF FF 7F 73  30 32 35 00 80 45 12 80  .......s025..E..
0110: F8 FF FF 7F F8 FF FF 7F  66 64 69 32 00 80 2B 79  ........fdi2..+y
0120: D1 09 01 14 80 23 2B 79  D1 09 01 15 80 23 4B 79  .....#+y.....#Ky
0130: D1 09 01 16 80 2B 79 D1  09 01 17 80 23 6F 76 79  .....+y.....#ovy
0140: D1 09 01 27 0A 79 D1 09  01 03 55 12 80 F8 FF FF  ...'.y....U.....
0150: 7F F8 FF FF 7F 66 64 69  32 45 12 80 F8 FF FF 7F  .....fdi2E......
0160: F8 FF FF 7F 66 64 6F 32  00 80 2B 79 D1 09 01 18  ....fdo2..+y....
0170: 80 23 55 12 80 F8 FF FF  7F F8 FF FF 7F 66 64 6F  .#U..........fdo
0180: 32 52 08 80 F8 FF FF 7F  F8 FF FF 7F 73 30 32 35  2R..........s025
0190: 45 19 80 F8 FF FF 7F F8  FF FF 7F 71 73 74 63 00  E..........qstc.
01A0: 80 46 00 45 12 80 F8 FF  FF 7F F8 FF FF 7F 66 64  .F.E..........fd
01B0: 69 32 00 80 01 C7 01 02  00 10 06 80 00 C7 01 03  i2..............
01C0: 01 10 1A 80 01 C7 01 21  00                       .......!.       
```

#### Opcodes

```
  0: 0x0002 [0x20] SET_CLI_EVENT_UC_FLAG: Lock player control
  1: 0x0004 [0x42] SET_CLI_EVENT_CANCEL_DATA()
  2: 0x0005 [0x02] IF !(Work_Zone[2] == 0*) GOTO 0x0019
  3: 0x000D [0x37] UPDATE_EVENT_POSITION_AND_DIR: x=-348.728*, z=81.992*, y=-95.994*, direction=55.5°*
  4: 0x0016 [0x01] GOTO 0x0041
  5: 0x0019 [0x24] CREATE_DIALOG(message_id=3*, default_option=1*, option_flags=0*)
    → "Use the device? [Yes./No.]"
  6: 0x0020 [0x25] WAIT_DIALOG_SELECT()
  7: 0x0021 [0x02] IF !(Work_Zone[0] == 0*) GOTO 0x01B7
  8: 0x0029 [0x42] SET_CLI_EVENT_CANCEL_DATA()
  9: 0x002A [0x43] SEND_EVENT_UPDATE: Send pending tag to server (packet 0x005B)
 10: 0x002C [0x43] SEND_EVENT_UPDATE: Check pending flag (skip if not pending)
 11: 0x002E [0x29] REQ_SET_WAIT(priority=0x01, entity_id=LocalPlayer, tag_num=0x0E)
 12: 0x0035 [0x47] UPDATE_PLAYER_POS(-348.728*, 81.992*, -95.994*, yaw=55.5°*)
 13: 0x003F [0x47] WAIT_PLAYER_POS_UPDATE

SUBROUTINE_0041:
 14: 0x0041 [0x38] SET_CLIENT_EVENT_MODE(mode=19*)
 15: 0x0044 [0x45] LOAD_SCHEDULED_TASK: Load scheduler "s023" with entities [EventEntity, EventEntity], work=[204*, 0*]
 16: 0x0055 [0x29] REQ_SET_WAIT(priority=0x01, entity_id=LocalPlayer, tag_num=0x0F)
 17: 0x005C [0x46] CAMERA_CONTROL: Disable user control
 18: 0x005E [0x55] WAIT_LOAD_SCHEDULER: Wait for scheduler "s023" with entities [EventEntity, EventEntity], work=204*
 19: 0x006D [0x1E] EventEntity looks at Unnamed NPC (ID: 17420666/0x0109D17A) and starts talking
 20: 0x0072 [0x1C] WAIT(60* ticks)
 21: 0x0075 [0x45] LOAD_SCHEDULED_TASK: Load scheduler "s024" with entities [EventEntity, EventEntity], work=[204*, 0*]
 22: 0x0086 [0x32] ExtData[1]->MainSpeed = 13* * 0.1
 23: 0x0089 [0x1F] MOVE_ENTITY: EventEntity moves to X=-347.421*, Z=81.068*, Y=-96.021*
 24: 0x0091 [0x1F] MOVE_ENTITY: Update entity position (mode=1)
 25: 0x0093 [0x6E] LocalPlayer uses emote 39*
 26: 0x009A [0x99] Wait for LocalPlayer animation to complete
 27: 0x009F [0x1C] WAIT(30* ticks)
 28: 0x00A2 [0x2C] CREATE_SCHEDULER_TASK: Create scheduler "open" with entities [Unnamed NPC (ID: 17420666/0x0109D17A), Unnamed NPC (ID: 17420666/0x0109D17A)]
 29: 0x00AF [0x48] [System] [7349*]:
    → "The chest contains some armor and a letter."
 30: 0x00B2 [0x23] WAIT_FOR_DIALOG_INTERACTION
 31: 0x00B3 [0x1C] WAIT(30* ticks)
 32: 0x00B6 [0x2B] Zeid (ID: 17420665/0x0109D179) [7350*]:
    → "Fellow bearer of the dark burden, this helm was crafted by Gerwitz. His spirit instructed me to give it to you."
 33: 0x00BD [0x23] WAIT_FOR_DIALOG_INTERACTION
 34: 0x00BE [0x45] LOAD_SCHEDULED_TASK: Load scheduler "fdo2" with entities [EventEntity, EventEntity], work=[200*, 0*]
 35: 0x00CF [0x2B] Zeid (ID: 17420665/0x0109D179) [7351*]:
    → "His resolve to the cause rivals that of our own. However, for your soul's sake, I must warn you against doing anything you might regret later."
 36: 0x00D6 [0x23] WAIT_FOR_DIALOG_INTERACTION
 37: 0x00D7 [0x55] WAIT_LOAD_SCHEDULER: Wait for scheduler "fdo2" with entities [EventEntity, EventEntity], work=200*
 38: 0x00E6 [0x27] REQ_SET(priority=0x0A, entity_id=Zeid (ID: 17420665/0x0109D179), tag_num=0x02)
 39: 0x00ED [0x52] END_LOAD_SCHEDULER: End scheduler "s024" with entities [EventEntity, EventEntity], work=204*
 40: 0x00FC [0x45] LOAD_SCHEDULED_TASK: Load scheduler "s025" with entities [EventEntity, EventEntity], work=[204*, 0*]
 41: 0x010D [0x45] LOAD_SCHEDULED_TASK: Load scheduler "fdi2" with entities [EventEntity, EventEntity], work=[200*, 0*]
 42: 0x011E [0x2B] Zeid (ID: 17420665/0x0109D179) [7352*]:
    → "It is precisely because we understand the fragility of life that we are made aware of the ephemeralness of our own souls."
 43: 0x0125 [0x23] WAIT_FOR_DIALOG_INTERACTION
 44: 0x0126 [0x2B] Zeid (ID: 17420665/0x0109D179) [7353*]:
    → "But do not let any attachment to life cause you fear. Do not let fear of the end lessen your pace. Do not repent for anything!"
 45: 0x012D [0x23] WAIT_FOR_DIALOG_INTERACTION
 46: 0x012E [0x4B] UPDATE_ENTITY_YAW(entity=Zeid (ID: 17420665/0x0109D179), yaw=16.1°*)
 47: 0x0135 [0x2B] Zeid (ID: 17420665/0x0109D179) [7354*]:
    → "I chose my own path, and so should you. You will find something worth more than mere righteousness."
 48: 0x013C [0x23] WAIT_FOR_DIALOG_INTERACTION
 49: 0x013D [0x6F] WAIT_FRAME_DELAY: Yield until WaitTime reaches zero
 50: 0x013E [0x76] CHECK_ENTITY_RENDER_FLAGS: Wait until Zeid (ID: 17420665/0x0109D179) Render.Flags0 and Render.Flags3 conditions are met
 51: 0x0143 [0x27] REQ_SET(priority=0x0A, entity_id=Zeid (ID: 17420665/0x0109D179), tag_num=0x03)
 52: 0x014A [0x55] WAIT_LOAD_SCHEDULER: Wait for scheduler "fdi2" with entities [EventEntity, EventEntity], work=200*
 53: 0x0159 [0x45] LOAD_SCHEDULED_TASK: Load scheduler "fdo2" with entities [EventEntity, EventEntity], work=[200*, 0*]
 54: 0x016A [0x2B] Zeid (ID: 17420665/0x0109D179) [7355*]:
    → "Should you ever doubt the path you have chosen, look at your blade and ask yourself this: does it glow with true darkness?"
 55: 0x0171 [0x23] WAIT_FOR_DIALOG_INTERACTION
 56: 0x0172 [0x55] WAIT_LOAD_SCHEDULER: Wait for scheduler "fdo2" with entities [EventEntity, EventEntity], work=200*
 57: 0x0181 [0x52] END_LOAD_SCHEDULER: End scheduler "s025" with entities [EventEntity, EventEntity], work=204*
 58: 0x0190 [0x45] LOAD_SCHEDULED_TASK: Load scheduler "qstc" with entities [EventEntity, EventEntity], work=[201*, 0*]
 59: 0x01A1 [0x46] CAMERA_CONTROL: Restore default settings
 60: 0x01A3 [0x45] LOAD_SCHEDULED_TASK: Load scheduler "fdi2" with entities [EventEntity, EventEntity], work=[200*, 0*]
 61: 0x01B4 [0x01] GOTO 0x01C7
 62: 0x01B7 [0x02] IF !(Work_Zone[0] == 1*) GOTO 0x01C7
 63: 0x01BF [0x03] Work_Zone[1] = 1073741824*
 64: 0x01C4 [0x01] GOTO 0x01C7

SUBROUTINE_01C7:
 65: 0x01C7 [0x21] END_EVENT
 66: 0x01C8 [0x00] END_REQSTACK()
```

### Event 0

#### Metadata

| Field        | Value    |
|--------------|----------|
| Entrypoint   | 0x01C9   |
| Data Size    | 53 bytes |
| Instructions | 15       |

```
      00 01 02 03 04 05 06 07  08 09 0A 0B 0C 0D 0E 0F
      -- -- -- -- -- -- -- --  -- -- -- -- -- -- -- --
01C0:                             20 01 24 05 80 06 80            .$....
01D0: 00 80 25 02 00 10 00 80  00 EF 01 42 43 00 43 01  ..%........BC.C.
01E0: 03 01 10 06 80 29 01 F0  FF FF 7F 0E 01 FA 01 02  .....)..........
01F0: 00 10 06 80 00 FA 01 01  FA 01 20 00 21 00        .......... .!.  
```

#### Opcodes

```
  0: 0x01C9 [0x20] SET_CLI_EVENT_UC_FLAG: Lock player control
  1: 0x01CB [0x24] CREATE_DIALOG(message_id=3*, default_option=1*, option_flags=0*)
    → "Use the device? [Yes./No.]"
  2: 0x01D2 [0x25] WAIT_DIALOG_SELECT()
  3: 0x01D3 [0x02] IF !(Work_Zone[0] == 0*) GOTO 0x01EF
  4: 0x01DB [0x42] SET_CLI_EVENT_CANCEL_DATA()
  5: 0x01DC [0x43] SEND_EVENT_UPDATE: Send pending tag to server (packet 0x005B)
  6: 0x01DE [0x43] SEND_EVENT_UPDATE: Check pending flag (skip if not pending)
  7: 0x01E0 [0x03] Work_Zone[1] = 1*
  8: 0x01E5 [0x29] REQ_SET_WAIT(priority=0x01, entity_id=LocalPlayer, tag_num=0x0E)
  9: 0x01EC [0x01] GOTO 0x01FA
 10: 0x01EF [0x02] IF !(Work_Zone[0] == 1*) GOTO 0x01FA
 11: 0x01F7 [0x01] GOTO 0x01FA

SUBROUTINE_01FA:
 12: 0x01FA [0x20] SET_CLI_EVENT_UC_FLAG: Unlock player control
 13: 0x01FC [0x21] END_EVENT
 14: 0x01FD [0x00] END_REQSTACK()
```

### Event 1

#### Metadata

| Field        | Value    |
|--------------|----------|
| Entrypoint   | 0x01FE   |
| Data Size    | 53 bytes |
| Instructions | 15       |

```
      00 01 02 03 04 05 06 07  08 09 0A 0B 0C 0D 0E 0F
      -- -- -- -- -- -- -- --  -- -- -- -- -- -- -- --
01F0:                                            20 01                 .
0200: 24 05 80 06 80 00 80 25  02 00 10 00 80 00 24 02  $......%......$.
0210: 42 43 00 43 01 03 01 10  06 80 29 01 F0 FF FF 7F  BC.C......).....
0220: 0E 01 2F 02 02 00 10 06  80 00 2F 02 01 2F 02 20  ../......./../. 
0230: 00 21 00                                          .!.             
```

#### Opcodes

```
  0: 0x01FE [0x20] SET_CLI_EVENT_UC_FLAG: Lock player control
  1: 0x0200 [0x24] CREATE_DIALOG(message_id=3*, default_option=1*, option_flags=0*)
    → "Use the device? [Yes./No.]"
  2: 0x0207 [0x25] WAIT_DIALOG_SELECT()
  3: 0x0208 [0x02] IF !(Work_Zone[0] == 0*) GOTO 0x0224
  4: 0x0210 [0x42] SET_CLI_EVENT_CANCEL_DATA()
  5: 0x0211 [0x43] SEND_EVENT_UPDATE: Send pending tag to server (packet 0x005B)
  6: 0x0213 [0x43] SEND_EVENT_UPDATE: Check pending flag (skip if not pending)
  7: 0x0215 [0x03] Work_Zone[1] = 1*
  8: 0x021A [0x29] REQ_SET_WAIT(priority=0x01, entity_id=LocalPlayer, tag_num=0x0E)
  9: 0x0221 [0x01] GOTO 0x022F
 10: 0x0224 [0x02] IF !(Work_Zone[0] == 1*) GOTO 0x022F
 11: 0x022C [0x01] GOTO 0x022F

SUBROUTINE_022F:
 12: 0x022F [0x20] SET_CLI_EVENT_UC_FLAG: Unlock player control
 13: 0x0231 [0x21] END_EVENT
 14: 0x0232 [0x00] END_REQSTACK()
```

### Event 2

#### Metadata

| Field        | Value    |
|--------------|----------|
| Entrypoint   | 0x0233   |
| Data Size    | 53 bytes |
| Instructions | 15       |

```
      00 01 02 03 04 05 06 07  08 09 0A 0B 0C 0D 0E 0F
      -- -- -- -- -- -- -- --  -- -- -- -- -- -- -- --
0230:          20 01 24 05 80  06 80 00 80 25 02 00 10      .$......%...
0240: 00 80 00 59 02 42 43 00  43 01 03 01 10 06 80 29  ...Y.BC.C......)
0250: 01 F0 FF FF 7F 0E 01 64  02 02 00 10 06 80 00 64  .......d.......d
0260: 02 01 64 02 20 00 21 00                           ..d. .!.        
```

#### Opcodes

```
  0: 0x0233 [0x20] SET_CLI_EVENT_UC_FLAG: Lock player control
  1: 0x0235 [0x24] CREATE_DIALOG(message_id=3*, default_option=1*, option_flags=0*)
    → "Use the device? [Yes./No.]"
  2: 0x023C [0x25] WAIT_DIALOG_SELECT()
  3: 0x023D [0x02] IF !(Work_Zone[0] == 0*) GOTO 0x0259
  4: 0x0245 [0x42] SET_CLI_EVENT_CANCEL_DATA()
  5: 0x0246 [0x43] SEND_EVENT_UPDATE: Send pending tag to server (packet 0x005B)
  6: 0x0248 [0x43] SEND_EVENT_UPDATE: Check pending flag (skip if not pending)
  7: 0x024A [0x03] Work_Zone[1] = 1*
  8: 0x024F [0x29] REQ_SET_WAIT(priority=0x01, entity_id=LocalPlayer, tag_num=0x0E)
  9: 0x0256 [0x01] GOTO 0x0264
 10: 0x0259 [0x02] IF !(Work_Zone[0] == 1*) GOTO 0x0264
 11: 0x0261 [0x01] GOTO 0x0264

SUBROUTINE_0264:
 12: 0x0264 [0x20] SET_CLI_EVENT_UC_FLAG: Unlock player control
 13: 0x0266 [0x21] END_EVENT
 14: 0x0267 [0x00] END_REQSTACK()
```

### Event 10

#### Metadata

| Field        | Value    |
|--------------|----------|
| Entrypoint   | 0x0268   |
| Data Size    | 53 bytes |
| Instructions | 15       |

```
      00 01 02 03 04 05 06 07  08 09 0A 0B 0C 0D 0E 0F
      -- -- -- -- -- -- -- --  -- -- -- -- -- -- -- --
0260:                          20 01 24 05 80 06 80 00           .$.....
0270: 80 25 02 00 10 00 80 00  8E 02 42 43 00 43 01 03  .%........BC.C..
0280: 01 10 06 80 29 01 F0 FF  FF 7F 0E 01 99 02 02 00  ....)...........
0290: 10 06 80 00 99 02 01 99  02 20 00 21 00           ......... .!.   
```

#### Opcodes

```
  0: 0x0268 [0x20] SET_CLI_EVENT_UC_FLAG: Lock player control
  1: 0x026A [0x24] CREATE_DIALOG(message_id=3*, default_option=1*, option_flags=0*)
    → "Use the device? [Yes./No.]"
  2: 0x0271 [0x25] WAIT_DIALOG_SELECT()
  3: 0x0272 [0x02] IF !(Work_Zone[0] == 0*) GOTO 0x028E
  4: 0x027A [0x42] SET_CLI_EVENT_CANCEL_DATA()
  5: 0x027B [0x43] SEND_EVENT_UPDATE: Send pending tag to server (packet 0x005B)
  6: 0x027D [0x43] SEND_EVENT_UPDATE: Check pending flag (skip if not pending)
  7: 0x027F [0x03] Work_Zone[1] = 1*
  8: 0x0284 [0x29] REQ_SET_WAIT(priority=0x01, entity_id=LocalPlayer, tag_num=0x0E)
  9: 0x028B [0x01] GOTO 0x0299
 10: 0x028E [0x02] IF !(Work_Zone[0] == 1*) GOTO 0x0299
 11: 0x0296 [0x01] GOTO 0x0299

SUBROUTINE_0299:
 12: 0x0299 [0x20] SET_CLI_EVENT_UC_FLAG: Unlock player control
 13: 0x029B [0x21] END_EVENT
 14: 0x029C [0x00] END_REQSTACK()
```

### Event 3

#### Metadata

| Field        | Value    |
|--------------|----------|
| Entrypoint   | 0x029D   |
| Data Size    | 67 bytes |
| Instructions | 17       |

```
      00 01 02 03 04 05 06 07  08 09 0A 0B 0C 0D 0E 0F
      -- -- -- -- -- -- -- --  -- -- -- -- -- -- -- --
0290:                                         20 01 24                .$
02A0: 05 80 06 80 00 80 25 02  00 10 00 80 00 D1 02 42  ......%........B
02B0: 43 00 43 01 29 01 F0 FF  FF 7F 0E 47 00 1B 80 1C  C.C.)......G....
02C0: 80 1D 80 1E 80 47 01 29  01 F0 FF FF 7F 0F 01 DC  .....G.)........
02D0: 02 02 00 10 06 80 00 DC  02 01 DC 02 20 00 21 00  ............ .!.
```

#### Opcodes

```
  0: 0x029D [0x20] SET_CLI_EVENT_UC_FLAG: Lock player control
  1: 0x029F [0x24] CREATE_DIALOG(message_id=3*, default_option=1*, option_flags=0*)
    → "Use the device? [Yes./No.]"
  2: 0x02A6 [0x25] WAIT_DIALOG_SELECT()
  3: 0x02A7 [0x02] IF !(Work_Zone[0] == 0*) GOTO 0x02D1
  4: 0x02AF [0x42] SET_CLI_EVENT_CANCEL_DATA()
  5: 0x02B0 [0x43] SEND_EVENT_UPDATE: Send pending tag to server (packet 0x005B)
  6: 0x02B2 [0x43] SEND_EVENT_UPDATE: Check pending flag (skip if not pending)
  7: 0x02B4 [0x29] REQ_SET_WAIT(priority=0x01, entity_id=LocalPlayer, tag_num=0x0E)
  8: 0x02BB [0x47] UPDATE_PLAYER_POS(-491.411*, -42.058*, -96.029*, yaw=225.0°*)
  9: 0x02C5 [0x47] WAIT_PLAYER_POS_UPDATE
 10: 0x02C7 [0x29] REQ_SET_WAIT(priority=0x01, entity_id=LocalPlayer, tag_num=0x0F)
 11: 0x02CE [0x01] GOTO 0x02DC
 12: 0x02D1 [0x02] IF !(Work_Zone[0] == 1*) GOTO 0x02DC
 13: 0x02D9 [0x01] GOTO 0x02DC

SUBROUTINE_02DC:
 14: 0x02DC [0x20] SET_CLI_EVENT_UC_FLAG: Unlock player control
 15: 0x02DE [0x21] END_EVENT
 16: 0x02DF [0x00] END_REQSTACK()
```

### Event 5

#### Metadata

| Field        | Value    |
|--------------|----------|
| Entrypoint   | 0x02E0   |
| Data Size    | 67 bytes |
| Instructions | 17       |

```
      00 01 02 03 04 05 06 07  08 09 0A 0B 0C 0D 0E 0F
      -- -- -- -- -- -- -- --  -- -- -- -- -- -- -- --
02E0: 20 01 24 05 80 06 80 00  80 25 02 00 10 00 80 00   .$......%......
02F0: 14 03 42 43 00 43 01 29  01 F0 FF FF 7F 0E 47 00  ..BC.C.)......G.
0300: 1F 80 20 80 21 80 22 80  47 01 29 01 F0 FF FF 7F  .. .!.".G.).....
0310: 0F 01 1F 03 02 00 10 06  80 00 1F 03 01 1F 03 20  ............... 
0320: 00 21 00                                          .!.             
```

#### Opcodes

```
  0: 0x02E0 [0x20] SET_CLI_EVENT_UC_FLAG: Lock player control
  1: 0x02E2 [0x24] CREATE_DIALOG(message_id=3*, default_option=1*, option_flags=0*)
    → "Use the device? [Yes./No.]"
  2: 0x02E9 [0x25] WAIT_DIALOG_SELECT()
  3: 0x02EA [0x02] IF !(Work_Zone[0] == 0*) GOTO 0x0314
  4: 0x02F2 [0x42] SET_CLI_EVENT_CANCEL_DATA()
  5: 0x02F3 [0x43] SEND_EVENT_UPDATE: Send pending tag to server (packet 0x005B)
  6: 0x02F5 [0x43] SEND_EVENT_UPDATE: Check pending flag (skip if not pending)
  7: 0x02F7 [0x29] REQ_SET_WAIT(priority=0x01, entity_id=LocalPlayer, tag_num=0x0E)
  8: 0x02FE [0x47] UPDATE_PLAYER_POS(-357.985*, -51.128*, -95.981*, yaw=147.2°*)
  9: 0x0308 [0x47] WAIT_PLAYER_POS_UPDATE
 10: 0x030A [0x29] REQ_SET_WAIT(priority=0x01, entity_id=LocalPlayer, tag_num=0x0F)
 11: 0x0311 [0x01] GOTO 0x031F
 12: 0x0314 [0x02] IF !(Work_Zone[0] == 1*) GOTO 0x031F
 13: 0x031C [0x01] GOTO 0x031F

SUBROUTINE_031F:
 14: 0x031F [0x20] SET_CLI_EVENT_UC_FLAG: Unlock player control
 15: 0x0321 [0x21] END_EVENT
 16: 0x0322 [0x00] END_REQSTACK()
```

### Event 7

#### Metadata

| Field        | Value    |
|--------------|----------|
| Entrypoint   | 0x0323   |
| Data Size    | 67 bytes |
| Instructions | 17       |

```
      00 01 02 03 04 05 06 07  08 09 0A 0B 0C 0D 0E 0F
      -- -- -- -- -- -- -- --  -- -- -- -- -- -- -- --
0320:          20 01 24 05 80  06 80 00 80 25 02 00 10      .$......%...
0330: 00 80 00 57 03 42 43 00  43 01 29 01 F0 FF FF 7F  ...W.BC.C.).....
0340: 0E 47 00 01 80 02 80 03  80 04 80 47 01 29 01 F0  .G.........G.)..
0350: FF FF 7F 0F 01 62 03 02  00 10 06 80 00 62 03 01  .....b.......b..
0360: 62 03 20 00 21 00                                 b. .!.          
```

#### Opcodes

```
  0: 0x0323 [0x20] SET_CLI_EVENT_UC_FLAG: Lock player control
  1: 0x0325 [0x24] CREATE_DIALOG(message_id=3*, default_option=1*, option_flags=0*)
    → "Use the device? [Yes./No.]"
  2: 0x032C [0x25] WAIT_DIALOG_SELECT()
  3: 0x032D [0x02] IF !(Work_Zone[0] == 0*) GOTO 0x0357
  4: 0x0335 [0x42] SET_CLI_EVENT_CANCEL_DATA()
  5: 0x0336 [0x43] SEND_EVENT_UPDATE: Send pending tag to server (packet 0x005B)
  6: 0x0338 [0x43] SEND_EVENT_UPDATE: Check pending flag (skip if not pending)
  7: 0x033A [0x29] REQ_SET_WAIT(priority=0x01, entity_id=LocalPlayer, tag_num=0x0E)
  8: 0x0341 [0x47] UPDATE_PLAYER_POS(-348.728*, 81.992*, -95.994*, yaw=55.5°*)
  9: 0x034B [0x47] WAIT_PLAYER_POS_UPDATE
 10: 0x034D [0x29] REQ_SET_WAIT(priority=0x01, entity_id=LocalPlayer, tag_num=0x0F)
 11: 0x0354 [0x01] GOTO 0x0362
 12: 0x0357 [0x02] IF !(Work_Zone[0] == 1*) GOTO 0x0362
 13: 0x035F [0x01] GOTO 0x0362

SUBROUTINE_0362:
 14: 0x0362 [0x20] SET_CLI_EVENT_UC_FLAG: Unlock player control
 15: 0x0364 [0x21] END_EVENT
 16: 0x0365 [0x00] END_REQSTACK()
```

### Event 9

#### Metadata

| Field        | Value    |
|--------------|----------|
| Entrypoint   | 0x0366   |
| Data Size    | 67 bytes |
| Instructions | 17       |

```
      00 01 02 03 04 05 06 07  08 09 0A 0B 0C 0D 0E 0F
      -- -- -- -- -- -- -- --  -- -- -- -- -- -- -- --
0360:                   20 01  24 05 80 06 80 00 80 25         .$......%
0370: 02 00 10 00 80 00 9A 03  42 43 00 43 01 29 01 F0  ........BC.C.)..
0380: FF FF 7F 0E 47 00 23 80  24 80 25 80 26 80 47 01  ....G.#.$.%.&.G.
0390: 29 01 F0 FF FF 7F 0F 01  A5 03 02 00 10 06 80 00  )...............
03A0: A5 03 01 A5 03 20 00 21  00                       ..... .!.       
```

#### Opcodes

```
  0: 0x0366 [0x20] SET_CLI_EVENT_UC_FLAG: Lock player control
  1: 0x0368 [0x24] CREATE_DIALOG(message_id=3*, default_option=1*, option_flags=0*)
    → "Use the device? [Yes./No.]"
  2: 0x036F [0x25] WAIT_DIALOG_SELECT()
  3: 0x0370 [0x02] IF !(Work_Zone[0] == 0*) GOTO 0x039A
  4: 0x0378 [0x42] SET_CLI_EVENT_CANCEL_DATA()
  5: 0x0379 [0x43] SEND_EVENT_UPDATE: Send pending tag to server (packet 0x005B)
  6: 0x037B [0x43] SEND_EVENT_UPDATE: Check pending flag (skip if not pending)
  7: 0x037D [0x29] REQ_SET_WAIT(priority=0x01, entity_id=LocalPlayer, tag_num=0x0E)
  8: 0x0384 [0x47] UPDATE_PLAYER_POS(19.874*, 99.881*, -79.601*, yaw=87.7°*)
  9: 0x038E [0x47] WAIT_PLAYER_POS_UPDATE
 10: 0x0390 [0x29] REQ_SET_WAIT(priority=0x01, entity_id=LocalPlayer, tag_num=0x0F)
 11: 0x0397 [0x01] GOTO 0x03A5
 12: 0x039A [0x02] IF !(Work_Zone[0] == 1*) GOTO 0x03A5
 13: 0x03A2 [0x01] GOTO 0x03A5

SUBROUTINE_03A5:
 14: 0x03A5 [0x20] SET_CLI_EVENT_UC_FLAG: Unlock player control
 15: 0x03A7 [0x21] END_EVENT
 16: 0x03A8 [0x00] END_REQSTACK()
```

### Event 4

#### Metadata

| Field        | Value    |
|--------------|----------|
| Entrypoint   | 0x03A9   |
| Data Size    | 67 bytes |
| Instructions | 17       |

```
      00 01 02 03 04 05 06 07  08 09 0A 0B 0C 0D 0E 0F
      -- -- -- -- -- -- -- --  -- -- -- -- -- -- -- --
03A0:                             20 01 24 05 80 06 80            .$....
03B0: 00 80 25 02 00 10 00 80  00 DD 03 42 43 00 43 01  ..%........BC.C.
03C0: 29 01 F0 FF FF 7F 0E 47  00 27 80 28 80 29 80 2A  )......G.'.(.).*
03D0: 80 47 01 29 01 F0 FF FF  7F 0F 01 E8 03 02 00 10  .G.)............
03E0: 06 80 00 E8 03 01 E8 03  20 00 21 00              ........ .!.    
```

#### Opcodes

```
  0: 0x03A9 [0x20] SET_CLI_EVENT_UC_FLAG: Lock player control
  1: 0x03AB [0x24] CREATE_DIALOG(message_id=3*, default_option=1*, option_flags=0*)
    → "Use the device? [Yes./No.]"
  2: 0x03B2 [0x25] WAIT_DIALOG_SELECT()
  3: 0x03B3 [0x02] IF !(Work_Zone[0] == 0*) GOTO 0x03DD
  4: 0x03BB [0x42] SET_CLI_EVENT_CANCEL_DATA()
  5: 0x03BC [0x43] SEND_EVENT_UPDATE: Send pending tag to server (packet 0x005B)
  6: 0x03BE [0x43] SEND_EVENT_UPDATE: Check pending flag (skip if not pending)
  7: 0x03C0 [0x29] REQ_SET_WAIT(priority=0x01, entity_id=LocalPlayer, tag_num=0x0E)
  8: 0x03C7 [0x47] UPDATE_PLAYER_POS(-41.201*, -51.385*, -79.993*, yaw=52.9°*)
  9: 0x03D1 [0x47] WAIT_PLAYER_POS_UPDATE
 10: 0x03D3 [0x29] REQ_SET_WAIT(priority=0x01, entity_id=LocalPlayer, tag_num=0x0F)
 11: 0x03DA [0x01] GOTO 0x03E8
 12: 0x03DD [0x02] IF !(Work_Zone[0] == 1*) GOTO 0x03E8
 13: 0x03E5 [0x01] GOTO 0x03E8

SUBROUTINE_03E8:
 14: 0x03E8 [0x20] SET_CLI_EVENT_UC_FLAG: Unlock player control
 15: 0x03EA [0x21] END_EVENT
 16: 0x03EB [0x00] END_REQSTACK()
```

### Event 6

#### Metadata

| Field        | Value    |
|--------------|----------|
| Entrypoint   | 0x03EC   |
| Data Size    | 67 bytes |
| Instructions | 17       |

```
      00 01 02 03 04 05 06 07  08 09 0A 0B 0C 0D 0E 0F
      -- -- -- -- -- -- -- --  -- -- -- -- -- -- -- --
03E0:                                      20 01 24 05               .$.
03F0: 80 06 80 00 80 25 02 00  10 00 80 00 20 04 42 43  .....%...... .BC
0400: 00 43 01 29 01 F0 FF FF  7F 0E 47 00 2B 80 2C 80  .C.)......G.+.,.
0410: 2D 80 2E 80 47 01 29 01  F0 FF FF 7F 0F 01 2B 04  -...G.).......+.
0420: 02 00 10 06 80 00 2B 04  01 2B 04 20 00 21 00     ......+..+. .!. 
```

#### Opcodes

```
  0: 0x03EC [0x20] SET_CLI_EVENT_UC_FLAG: Lock player control
  1: 0x03EE [0x24] CREATE_DIALOG(message_id=3*, default_option=1*, option_flags=0*)
    → "Use the device? [Yes./No.]"
  2: 0x03F5 [0x25] WAIT_DIALOG_SELECT()
  3: 0x03F6 [0x02] IF !(Work_Zone[0] == 0*) GOTO 0x0420
  4: 0x03FE [0x42] SET_CLI_EVENT_CANCEL_DATA()
  5: 0x03FF [0x43] SEND_EVENT_UPDATE: Send pending tag to server (packet 0x005B)
  6: 0x0401 [0x43] SEND_EVENT_UPDATE: Check pending flag (skip if not pending)
  7: 0x0403 [0x29] REQ_SET_WAIT(priority=0x01, entity_id=LocalPlayer, tag_num=0x0E)
  8: 0x040A [0x47] UPDATE_PLAYER_POS(91.117*, -41.815*, -79.978*, yaw=301.9°*)
  9: 0x0414 [0x47] WAIT_PLAYER_POS_UPDATE
 10: 0x0416 [0x29] REQ_SET_WAIT(priority=0x01, entity_id=LocalPlayer, tag_num=0x0F)
 11: 0x041D [0x01] GOTO 0x042B
 12: 0x0420 [0x02] IF !(Work_Zone[0] == 1*) GOTO 0x042B
 13: 0x0428 [0x01] GOTO 0x042B

SUBROUTINE_042B:
 14: 0x042B [0x20] SET_CLI_EVENT_UC_FLAG: Unlock player control
 15: 0x042D [0x21] END_EVENT
 16: 0x042E [0x00] END_REQSTACK()
```

### Event 8

#### Metadata

| Field        | Value    |
|--------------|----------|
| Entrypoint   | 0x042F   |
| Data Size    | 67 bytes |
| Instructions | 17       |

```
      00 01 02 03 04 05 06 07  08 09 0A 0B 0C 0D 0E 0F
      -- -- -- -- -- -- -- --  -- -- -- -- -- -- -- --
0420:                                               20                  
0430: 01 24 05 80 06 80 00 80  25 02 00 10 00 80 00 63  .$......%......c
0440: 04 42 43 00 43 01 29 01  F0 FF FF 7F 0E 47 00 2F  .BC.C.)......G./
0450: 80 30 80 31 80 32 80 47  01 29 01 F0 FF FF 7F 0F  .0.1.2.G.)......
0460: 01 6E 04 02 00 10 06 80  00 6E 04 01 6E 04 20 00  .n.......n..n. .
0470: 21 00                                             !.              
```

#### Opcodes

```
  0: 0x042F [0x20] SET_CLI_EVENT_UC_FLAG: Lock player control
  1: 0x0431 [0x24] CREATE_DIALOG(message_id=3*, default_option=1*, option_flags=0*)
    → "Use the device? [Yes./No.]"
  2: 0x0438 [0x25] WAIT_DIALOG_SELECT()
  3: 0x0439 [0x02] IF !(Work_Zone[0] == 0*) GOTO 0x0463
  4: 0x0441 [0x42] SET_CLI_EVENT_CANCEL_DATA()
  5: 0x0442 [0x43] SEND_EVENT_UPDATE: Send pending tag to server (packet 0x005B)
  6: 0x0444 [0x43] SEND_EVENT_UPDATE: Check pending flag (skip if not pending)
  7: 0x0446 [0x29] REQ_SET_WAIT(priority=0x01, entity_id=LocalPlayer, tag_num=0x0E)
  8: 0x044D [0x47] UPDATE_PLAYER_POS(82.025*, 91.070*, -79.977*, yaw=213.4°*)
  9: 0x0457 [0x47] WAIT_PLAYER_POS_UPDATE
 10: 0x0459 [0x29] REQ_SET_WAIT(priority=0x01, entity_id=LocalPlayer, tag_num=0x0F)
 11: 0x0460 [0x01] GOTO 0x046E
 12: 0x0463 [0x02] IF !(Work_Zone[0] == 1*) GOTO 0x046E
 13: 0x046B [0x01] GOTO 0x046E

SUBROUTINE_046E:
 14: 0x046E [0x20] SET_CLI_EVENT_UC_FLAG: Unlock player control
 15: 0x0470 [0x21] END_EVENT
 16: 0x0471 [0x00] END_REQSTACK()
```

### Event 11

#### Metadata

| Field        | Value    |
|--------------|----------|
| Entrypoint   | 0x0472   |
| Data Size    | 41 bytes |
| Instructions | 5        |

```
      00 01 02 03 04 05 06 07  08 09 0A 0B 0C 0D 0E 0F
      -- -- -- -- -- -- -- --  -- -- -- -- -- -- -- --
0470:       62 06 80 F0 FF FF  7F F0 FF FF 7F 6D 61 69    b..........mai
0480: 6E 00 80 1C 33 80 45 12  80 F0 FF FF 7F F0 FF FF  n...3.E.........
0490: 7F 66 64 6F 31 00 80 1C  09 80 00                 .fdo1......     
```

#### Opcodes

```
  0: 0x0472 [0x62] LOAD_EVENT_SCHEDULER: Load scheduler "main" with entities [LocalPlayer, LocalPlayer], work=[1*, 0*]
  1: 0x0483 [0x1C] WAIT(140* ticks)
  2: 0x0486 [0x45] LOAD_SCHEDULED_TASK: Load scheduler "fdo1" with entities [LocalPlayer, LocalPlayer], work=[200*, 0*]
  3: 0x0497 [0x1C] WAIT(60* ticks)
  4: 0x049A [0x00] END_REQSTACK()
```

### Event 12

#### Metadata

| Field        | Value    |
|--------------|----------|
| Entrypoint   | 0x049B   |
| Data Size    | 38 bytes |
| Instructions | 4        |

```
      00 01 02 03 04 05 06 07  08 09 0A 0B 0C 0D 0E 0F
      -- -- -- -- -- -- -- --  -- -- -- -- -- -- -- --
0490:                                   45 12 80 F0 FF             E....
04A0: FF 7F F0 FF FF 7F 66 64  69 31 00 80 62 34 80 F0  ......fdi1..b4..
04B0: FF FF 7F F0 FF FF 7F 6D  61 69 6E 00 80 1C 35 80  .......main...5.
04C0: 00                                                .               
```

#### Opcodes

```
  0: 0x049B [0x45] LOAD_SCHEDULED_TASK: Load scheduler "fdi1" with entities [LocalPlayer, LocalPlayer], work=[200*, 0*]
  1: 0x04AC [0x62] LOAD_EVENT_SCHEDULER: Load scheduler "main" with entities [LocalPlayer, LocalPlayer], work=[2*, 0*]
  2: 0x04BD [0x1C] WAIT(170* ticks)
  3: 0x04C0 [0x00] END_REQSTACK()
```

### Event 13

#### Metadata

| Field        | Value    |
|--------------|----------|
| Entrypoint   | 0x04C1   |
| Data Size    | 50 bytes |
| Instructions | 8        |

```
      00 01 02 03 04 05 06 07  08 09 0A 0B 0C 0D 0E 0F
      -- -- -- -- -- -- -- --  -- -- -- -- -- -- -- --
04C0:    4E 00 F0 FF FF 7F 20  01 42 80 F0 FF FF 7F 45   N..... .B.....E
04D0: 12 80 F0 FF FF 7F F0 FF  FF 7F 66 64 69 31 00 80  ..........fdi1..
04E0: 62 34 80 F0 FF FF 7F F0  FF FF 7F 6D 61 69 6E 00  b4.........main.
04F0: 80 21 00                                          .!.             
```

#### Opcodes

```
  0: 0x04C1 [0x4E] SET_ENTITY_HIDE_FLAG: Show LocalPlayer
  1: 0x04C7 [0x20] SET_CLI_EVENT_UC_FLAG: Lock player control
  2: 0x04C9 [0x42] SET_CLI_EVENT_CANCEL_DATA()
  3: 0x04CA [0x80] LOAD_WAIT(entity=LocalPlayer)
  4: 0x04CF [0x45] LOAD_SCHEDULED_TASK: Load scheduler "fdi1" with entities [LocalPlayer, LocalPlayer], work=[200*, 0*]
  5: 0x04E0 [0x62] LOAD_EVENT_SCHEDULER: Load scheduler "main" with entities [LocalPlayer, LocalPlayer], work=[2*, 0*]
  6: 0x04F1 [0x21] END_EVENT
  7: 0x04F2 [0x00] END_REQSTACK()
```

### Event 16

#### Metadata

| Field        | Value    |
|--------------|----------|
| Entrypoint   | 0x04F3   |
| Data Size    | 88 bytes |
| Instructions | 22       |

```
      00 01 02 03 04 05 06 07  08 09 0A 0B 0C 0D 0E 0F
      -- -- -- -- -- -- -- --  -- -- -- -- -- -- -- --
04F0:          20 01 42 02 02  10 36 80 80 1E 05 24 37      .B...6....$7
0500: 80 06 80 00 80 25 02 00  10 00 80 00 16 05 03 01  .....%..........
0510: 10 36 80 01 1B 05 03 01  10 00 80 01 46 05 02 02  .6..........F...
0520: 10 12 80 80 46 05 24 38  80 06 80 00 80 25 02 00  ....F.$8.....%..
0530: 10 00 80 00 3E 05 03 01  10 12 80 01 43 05 03 01  ....>.......C...
0540: 10 00 80 01 46 05 2E 20  00 21 00                 ....F.. .!.     
```

#### Opcodes

```
  0: 0x04F3 [0x20] SET_CLI_EVENT_UC_FLAG: Lock player control
  1: 0x04F5 [0x42] SET_CLI_EVENT_CANCEL_DATA()
  2: 0x04F6 [0x02] IF !(Work_Zone[2] == 100*) GOTO 0x051E
  3: 0x04FE [0x24] CREATE_DIALOG(message_id=7379*, default_option=1*, option_flags=0*)
    → "Touch the crystal? [Yes./No.]"
  4: 0x0505 [0x25] WAIT_DIALOG_SELECT()
  5: 0x0506 [0x02] IF !(Work_Zone[0] == 0*) GOTO 0x0516
  6: 0x050E [0x03] Work_Zone[1] = 100*
  7: 0x0513 [0x01] GOTO 0x051B
  8: 0x0516 [0x03] Work_Zone[1] = 0*

SUBROUTINE_051B:
  9: 0x051B [0x01] GOTO 0x0546
 10: 0x051E [0x02] IF !(Work_Zone[2] == 200*) GOTO 0x0546
 11: 0x0526 [0x24] CREATE_DIALOG(message_id=7376*, default_option=1*, option_flags=0*)
    → "Touch the crystal? [Yes./No.]"
 12: 0x052D [0x25] WAIT_DIALOG_SELECT()
 13: 0x052E [0x02] IF !(Work_Zone[0] == 0*) GOTO 0x053E
 14: 0x0536 [0x03] Work_Zone[1] = 200*
 15: 0x053B [0x01] GOTO 0x0543
 16: 0x053E [0x03] Work_Zone[1] = 0*

SUBROUTINE_0543:
 17: 0x0543 [0x01] GOTO 0x0546

SUBROUTINE_0546:
 18: 0x0546 [0x2E] SET_CLI_EVENT_CANCEL_FLAGS()
 19: 0x0547 [0x20] SET_CLI_EVENT_UC_FLAG: Unlock player control
 20: 0x0549 [0x21] END_EVENT
 21: 0x054A [0x00] END_REQSTACK()
```
