# Event 65535

## Metadata

| Field           | Value    |
|-----------------|----------|
| Event Index     | 98/102   |
| Offset          | 0x0662   |
| Data Size       | 96 bytes |
| Calculated Size | 96 bytes |
| Instructions    | 10       |

```
      00 01 02 03 04 05 06 07  08 09 0A 0B 0C 0D 0E 0F
      -- -- -- -- -- -- -- --  -- -- -- -- -- -- -- --
0660:       5B 0A 80 F8 FF FF  7F F8 FF FF 7F 6F 6B 69    [..........oki
0670: 72 1C 46 80 45 47 80 F0  FF FF 7F F0 FF FF 7F 73  r.F.EG.........s
0680: 65 31 33 41 80 1C 48 80  45 47 80 F0 FF FF 7F F0  e13A..H.EG......
0690: FF FF 7F 73 65 31 34 41  80 1C 3D 80 45 47 80 F0  ...se14A..=.EG..
06A0: FF FF 7F F0 FF FF 7F 73  65 31 35 41 80 1C 46 80  .......se15A..F.
06B0: 45 47 80 F0 FF FF 7F F0  FF FF 7F 73 65 31 36 41  EG.........se16A
06C0: 80 00                                             ..              
```

## Opcodes

```
  0: 0x0662 [0x5B] LOAD_EXT_SCHEDULER(work_offset=430*, entity1=EventEntity, entity2=EventEntity, action="okir")
  1: 0x0671 [0x1C] WAIT(20* ticks)
  2: 0x0674 [0x45] LOAD_SCHEDULED_TASK(work_offset1=86*, entity1=LocalPlayer, entity2=LocalPlayer, scheduler_id="se13", work_offset2=0*)
  3: 0x0685 [0x1C] WAIT(10* ticks)
  4: 0x0688 [0x45] LOAD_SCHEDULED_TASK(work_offset1=86*, entity1=LocalPlayer, entity2=LocalPlayer, scheduler_id="se14", work_offset2=0*)
  5: 0x0699 [0x1C] WAIT(30* ticks)
  6: 0x069C [0x45] LOAD_SCHEDULED_TASK(work_offset1=86*, entity1=LocalPlayer, entity2=LocalPlayer, scheduler_id="se15", work_offset2=0*)
  7: 0x06AD [0x1C] WAIT(20* ticks)
  8: 0x06B0 [0x45] LOAD_SCHEDULED_TASK(work_offset1=86*, entity1=LocalPlayer, entity2=LocalPlayer, scheduler_id="se16", work_offset2=0*)
  9: 0x06C1 [0x00] END_REQSTACK()
```
