# Event 65535

## Metadata

| Field           | Value    |
|-----------------|----------|
| Event Index     | 48/55    |
| Offset          | 0x0278   |
| Data Size       | 39 bytes |
| Calculated Size | 39 bytes |
| Instructions    | 9        |

```
      00 01 02 03 04 05 06 07  08 09 0A 0B 0C 0D 0E 0F
      -- -- -- -- -- -- -- --  -- -- -- -- -- -- -- --
0270:                          1C 01 80 1E 5F 80 11 01          ...._...
0280: 6F 70 29 08 5D 80 11 01  10 29 08 5D 80 11 01 11  op).]....).]....
0290: 29 08 5D 80 11 01 12 29  08 5D 80 11 01 13 00     ).]....).]..... 
```

## Opcodes

```
  0: 0x0278 [0x1C] WAIT(60* ticks)
  1: 0x027B [0x1E] EventEntity looks at The Great Kupellion (ID: 17924191/0x0111805F) and starts talking
  2: 0x0280 [0x6F] WAIT_FRAME_DELAY: Yield until WaitTime reaches zero
  3: 0x0281 [0x70] WAIT_ENTITY_RENDER_FLAG: Wait while EventEntity->Render.Flags3 bit 2 is set (cancel turn if not)
  4: 0x0282 [0x29] REQ_SET_WAIT(priority=0x08, entity_id=Monsieur Kupont (ID: 17924189/0x0111805D), tag_num=0x10)
  5: 0x0289 [0x29] REQ_SET_WAIT(priority=0x08, entity_id=Monsieur Kupont (ID: 17924189/0x0111805D), tag_num=0x11)
  6: 0x0290 [0x29] REQ_SET_WAIT(priority=0x08, entity_id=Monsieur Kupont (ID: 17924189/0x0111805D), tag_num=0x12)
  7: 0x0297 [0x29] REQ_SET_WAIT(priority=0x08, entity_id=Monsieur Kupont (ID: 17924189/0x0111805D), tag_num=0x13)
  8: 0x029E [0x00] END_REQSTACK()
```
