# 17559922 - Grasswix

## Common Data

| Field            | Value                  |
|------------------|------------------------|
| Zone             | Dangruf Wadi (ID: 191) |
| Block Size       | 152 bytes              |
| Total Events     | 4                      |
| References Count | 11                     |

## List of Events

| Event ID              | Entrypoint   |   Size |   Instructions |
|-----------------------|--------------|--------|----------------|
| [65535](#event-65535) | 0x0000       |      1 |              1 |
| [137](#event-137)     | 0x0001       |      1 |              1 |
| [140](#event-140)     | 0x0002       |      1 |              1 |
| [131](#event-131)     | 0x0003       |     71 |             14 |

## DAT References (imed_data)

|   Index | Hex Value   |   Dec Value |
|---------|-------------|-------------|
|       0 | 0xFFFA459D  |  4294591901 |
|       1 | 0x6C9ED     |      444909 |
|       2 | 0xFFFFF75B  |  4294965083 |
|       3 | 0x005E      |          94 |
|       4 | 0x0000      |           0 |
|       5 | 0x00C8      |         200 |
|       6 | 0x1CD7      |        7383 |
|       7 | 0x00B4      |         180 |
|       8 | 0x1CD8      |        7384 |
|       9 | 0x1CD9      |        7385 |
|      10 | 0x1CDA      |        7386 |

## String References

- **7383**: Grasswix no like you.
- **7384**: But Grasswix love this tasty food.
- **7385**: You beat Saltvix...
- **7386**: ...but Grasswix no lose! Ready?

## Events

### Event 65535

#### Metadata

| Field        | Value   |
|--------------|---------|
| Entrypoint   | 0x0000  |
| Data Size    | 1 bytes |
| Instructions | 1       |

```
      00 01 02 03 04 05 06 07  08 09 0A 0B 0C 0D 0E 0F
      -- -- -- -- -- -- -- --  -- -- -- -- -- -- -- --
0000: 00                                                .               
```

#### Opcodes

```
  0: 0x0000 [0x00] END_REQSTACK()
```

### Event 137

#### Metadata

| Field        | Value   |
|--------------|---------|
| Entrypoint   | 0x0001  |
| Data Size    | 1 bytes |
| Instructions | 1       |

```
      00 01 02 03 04 05 06 07  08 09 0A 0B 0C 0D 0E 0F
      -- -- -- -- -- -- -- --  -- -- -- -- -- -- -- --
0000:    00                                              .              
```

#### Opcodes

```
  0: 0x0001 [0x00] END_REQSTACK()
```

### Event 140

#### Metadata

| Field        | Value   |
|--------------|---------|
| Entrypoint   | 0x0002  |
| Data Size    | 1 bytes |
| Instructions | 1       |

```
      00 01 02 03 04 05 06 07  08 09 0A 0B 0C 0D 0E 0F
      -- -- -- -- -- -- -- --  -- -- -- -- -- -- -- --
0000:       00                                            .             
```

#### Opcodes

```
  0: 0x0002 [0x00] END_REQSTACK()
```

### Event 131

#### Metadata

| Field        | Value    |
|--------------|----------|
| Entrypoint   | 0x0003   |
| Data Size    | 71 bytes |
| Instructions | 14       |

```
      00 01 02 03 04 05 06 07  08 09 0A 0B 0C 0D 0E 0F
      -- -- -- -- -- -- -- --  -- -- -- -- -- -- -- --
0000:          4E 00 72 F1 0B  01 1E F0 FF FF 7F 36 00     N.r........6.
0010: 80 01 80 02 80 45 03 80  F0 FF FF 7F F0 FF FF 7F  .....E..........
0020: 67 62 64 62 04 80 45 05  80 F0 FF FF 7F F0 FF FF  gbdb..E.........
0030: 7F 66 64 69 31 04 80 1D  06 80 1C 07 80 1D 08 80  .fdi1...........
0040: 23 1D 09 80 23 1D 0A 80  23 00                    #...#...#.      
```

#### Opcodes

```
  0: 0x0003 [0x4E] SET_ENTITY_HIDE_FLAG: Show Grasswix (ID: 17559922/0x010BF172)
  1: 0x0009 [0x1E] EventEntity looks at LocalPlayer and starts talking
  2: 0x000E [0x36] SET_ENTITY_EVENT_POSITION(pos_x=-375.395*, pos_z=444.909*, pos_y=-2.213*)
  3: 0x0015 [0x45] LOAD_SCHEDULED_TASK: Load scheduler "gbdb" with entities [LocalPlayer, LocalPlayer], work=[94*, 0*]
  4: 0x0026 [0x45] LOAD_SCHEDULED_TASK: Load scheduler "fdi1" with entities [LocalPlayer, LocalPlayer], work=[200*, 0*]
  5: 0x0037 [0x1D] PRINT_EVENT_MESSAGE(message_id=7383*)
    → "Grasswix no like you."
  6: 0x003A [0x1C] WAIT(180* ticks)
  7: 0x003D [0x1D] PRINT_EVENT_MESSAGE(message_id=7384*)
    → "But Grasswix love this tasty food."
  8: 0x0040 [0x23] WAIT_FOR_DIALOG_INTERACTION
  9: 0x0041 [0x1D] PRINT_EVENT_MESSAGE(message_id=7385*)
    → "You beat Saltvix..."
 10: 0x0044 [0x23] WAIT_FOR_DIALOG_INTERACTION
 11: 0x0045 [0x1D] PRINT_EVENT_MESSAGE(message_id=7386*)
    → "...but Grasswix no lose! Ready?"
 12: 0x0048 [0x23] WAIT_FOR_DIALOG_INTERACTION
 13: 0x0049 [0x00] END_REQSTACK()
```
