# 17559921 - Saltvix

## Common Data

| Field            | Value                  |
|------------------|------------------------|
| Zone             | Dangruf Wadi (ID: 191) |
| Block Size       | 228 bytes              |
| Total Events     | 7                      |
| References Count | 12                     |

## List of Events

| Event ID              | Entrypoint   |   Size |   Instructions |
|-----------------------|--------------|--------|----------------|
| [65535](#event-65535) | 0x0000       |      1 |              1 |
| [136](#event-136)     | 0x0001       |      1 |              1 |
| [139](#event-139)     | 0x0002       |      1 |              1 |
| [142](#event-142)     | 0x0003       |      1 |              1 |
| [145](#event-145)     | 0x0004       |      1 |              1 |
| [130](#event-130)     | 0x0005       |     71 |             14 |
| [133](#event-133)     | 0x004C       |     60 |              9 |

## DAT References (imed_data)

|   Index | Hex Value   |   Dec Value |
|---------|-------------|-------------|
|       0 | 0xFFFA6462  |  4294599778 |
|       1 | 0x37F14     |      229140 |
|       2 | 0x0BE3      |        3043 |
|       3 | 0x005E      |          94 |
|       4 | 0x0000      |           0 |
|       5 | 0x00C8      |         200 |
|       6 | 0x1CCC      |        7372 |
|       7 | 0x00B4      |         180 |
|       8 | 0x1CCD      |        7373 |
|       9 | 0x1CCE      |        7374 |
|      10 | 0x1CCF      |        7375 |
|      11 | 0x1CD3      |        7379 |

## String References

- **7372**: Hmph...
- **7373**: You think you smart 'cause you know what Saltvix likes?
- **7374**: Wait! Saltvix know you! You beat Sniggnix of Jeuno!
- **7375**: But you no match for Dangruf brothers! Let's roll!
- **7379**: You back? I told you, you no match for Dangruf brothers.

## Events

### Event 65535

#### Metadata

| Field        | Value   |
|--------------|---------|
| Entrypoint   | 0x0000  |
| Data Size    | 1 bytes |
| Instructions | 1       |

```
      00 01 02 03 04 05 06 07  08 09 0A 0B 0C 0D 0E 0F
      -- -- -- -- -- -- -- --  -- -- -- -- -- -- -- --
0000: 00                                                .               
```

#### Opcodes

```
  0: 0x0000 [0x00] END_REQSTACK()
```

### Event 136

#### Metadata

| Field        | Value   |
|--------------|---------|
| Entrypoint   | 0x0001  |
| Data Size    | 1 bytes |
| Instructions | 1       |

```
      00 01 02 03 04 05 06 07  08 09 0A 0B 0C 0D 0E 0F
      -- -- -- -- -- -- -- --  -- -- -- -- -- -- -- --
0000:    00                                              .              
```

#### Opcodes

```
  0: 0x0001 [0x00] END_REQSTACK()
```

### Event 139

#### Metadata

| Field        | Value   |
|--------------|---------|
| Entrypoint   | 0x0002  |
| Data Size    | 1 bytes |
| Instructions | 1       |

```
      00 01 02 03 04 05 06 07  08 09 0A 0B 0C 0D 0E 0F
      -- -- -- -- -- -- -- --  -- -- -- -- -- -- -- --
0000:       00                                            .             
```

#### Opcodes

```
  0: 0x0002 [0x00] END_REQSTACK()
```

### Event 142

#### Metadata

| Field        | Value   |
|--------------|---------|
| Entrypoint   | 0x0003  |
| Data Size    | 1 bytes |
| Instructions | 1       |

```
      00 01 02 03 04 05 06 07  08 09 0A 0B 0C 0D 0E 0F
      -- -- -- -- -- -- -- --  -- -- -- -- -- -- -- --
0000:          00                                          .            
```

#### Opcodes

```
  0: 0x0003 [0x00] END_REQSTACK()
```

### Event 145

#### Metadata

| Field        | Value   |
|--------------|---------|
| Entrypoint   | 0x0004  |
| Data Size    | 1 bytes |
| Instructions | 1       |

```
      00 01 02 03 04 05 06 07  08 09 0A 0B 0C 0D 0E 0F
      -- -- -- -- -- -- -- --  -- -- -- -- -- -- -- --
0000:             00                                        .           
```

#### Opcodes

```
  0: 0x0004 [0x00] END_REQSTACK()
```

### Event 130

#### Metadata

| Field        | Value    |
|--------------|----------|
| Entrypoint   | 0x0005   |
| Data Size    | 71 bytes |
| Instructions | 14       |

```
      00 01 02 03 04 05 06 07  08 09 0A 0B 0C 0D 0E 0F
      -- -- -- -- -- -- -- --  -- -- -- -- -- -- -- --
0000:                4E 00 71  F1 0B 01 1E F0 FF FF 7F       N.q........
0010: 36 00 80 01 80 02 80 45  03 80 F0 FF FF 7F F0 FF  6......E........
0020: FF 7F 67 62 64 61 04 80  45 05 80 F0 FF FF 7F F0  ..gbda..E.......
0030: FF FF 7F 66 64 69 31 04  80 1D 06 80 1C 07 80 1D  ...fdi1.........
0040: 08 80 23 1D 09 80 23 1D  0A 80 23 00              ..#...#...#.    
```

#### Opcodes

```
  0: 0x0005 [0x4E] SET_ENTITY_HIDE_FLAG: Show Saltvix (ID: 17559921/0x010BF171)
  1: 0x000B [0x1E] EventEntity looks at LocalPlayer and starts talking
  2: 0x0010 [0x36] SET_ENTITY_EVENT_POSITION(pos_x=-367.518*, pos_z=229.140*, pos_y=3.043*)
  3: 0x0017 [0x45] LOAD_SCHEDULED_TASK: Load scheduler "gbda" with entities [LocalPlayer, LocalPlayer], work=[94*, 0*]
  4: 0x0028 [0x45] LOAD_SCHEDULED_TASK: Load scheduler "fdi1" with entities [LocalPlayer, LocalPlayer], work=[200*, 0*]
  5: 0x0039 [0x1D] PRINT_EVENT_MESSAGE(message_id=7372*)
    → "Hmph..."
  6: 0x003C [0x1C] WAIT(180* ticks)
  7: 0x003F [0x1D] PRINT_EVENT_MESSAGE(message_id=7373*)
    → "You think you smart 'cause you know what Saltvix likes?"
  8: 0x0042 [0x23] WAIT_FOR_DIALOG_INTERACTION
  9: 0x0043 [0x1D] PRINT_EVENT_MESSAGE(message_id=7374*)
    → "Wait! Saltvix know you! You beat Sniggnix of Jeuno!"
 10: 0x0046 [0x23] WAIT_FOR_DIALOG_INTERACTION
 11: 0x0047 [0x1D] PRINT_EVENT_MESSAGE(message_id=7375*)
    → "But you no match for Dangruf brothers! Let's roll!"
 12: 0x004A [0x23] WAIT_FOR_DIALOG_INTERACTION
 13: 0x004B [0x00] END_REQSTACK()
```

### Event 133

#### Metadata

| Field        | Value    |
|--------------|----------|
| Entrypoint   | 0x004C   |
| Data Size    | 60 bytes |
| Instructions | 9        |

```
      00 01 02 03 04 05 06 07  08 09 0A 0B 0C 0D 0E 0F
      -- -- -- -- -- -- -- --  -- -- -- -- -- -- -- --
0040:                                      4E 00 71 F1              N.q.
0050: 0B 01 1E F0 FF FF 7F 36  00 80 01 80 02 80 45 03  .......6......E.
0060: 80 F0 FF FF 7F F0 FF FF  7F 67 62 64 61 04 80 45  .........gbda..E
0070: 05 80 F0 FF FF 7F F0 FF  FF 7F 66 64 69 31 04 80  ..........fdi1..
0080: 1C 07 80 1D 0B 80 23 00                           ......#.        
```

#### Opcodes

```
  0: 0x004C [0x4E] SET_ENTITY_HIDE_FLAG: Show Saltvix (ID: 17559921/0x010BF171)
  1: 0x0052 [0x1E] EventEntity looks at LocalPlayer and starts talking
  2: 0x0057 [0x36] SET_ENTITY_EVENT_POSITION(pos_x=-367.518*, pos_z=229.140*, pos_y=3.043*)
  3: 0x005E [0x45] LOAD_SCHEDULED_TASK: Load scheduler "gbda" with entities [LocalPlayer, LocalPlayer], work=[94*, 0*]
  4: 0x006F [0x45] LOAD_SCHEDULED_TASK: Load scheduler "fdi1" with entities [LocalPlayer, LocalPlayer], work=[200*, 0*]
  5: 0x0080 [0x1C] WAIT(180* ticks)
  6: 0x0083 [0x1D] PRINT_EVENT_MESSAGE(message_id=7379*)
    → "You back? I told you, you no match for Dangruf brothers."
  7: 0x0086 [0x23] WAIT_FOR_DIALOG_INTERACTION
  8: 0x0087 [0x00] END_REQSTACK()
```
