# 17559918

## Common Data

| Field            | Value                  |
|------------------|------------------------|
| Zone             | Dangruf Wadi (ID: 191) |
| Block Size       | 704 bytes              |
| Total Events     | 5                      |
| References Count | 13                     |

## List of Events

| Event ID              | Entrypoint   |   Size |   Instructions |
|-----------------------|--------------|--------|----------------|
| [65535](#event-65535) | 0x0000       |      1 |              1 |
| [136](#event-136)     | 0x0001       |    153 |             30 |
| [139](#event-139)     | 0x009A       |    153 |             30 |
| [142](#event-142)     | 0x0133       |    153 |             30 |
| [145](#event-145)     | 0x01CC       |    153 |             30 |

## DAT References (imed_data)

|   Index | Hex Value   |   Dec Value |
|---------|-------------|-------------|
|       0 | 0x0013      |          19 |
|       1 | 0x00C8      |         200 |
|       2 | 0x0000      |           0 |
|       3 | 0x003C      |          60 |
|       4 | 0x1CC3      |        7363 |
|       5 | 0x1CC8      |        7368 |
|       6 | 0x1CD4      |        7380 |
|       7 | 0x1CC7      |        7367 |
|       8 | 0x1CD1      |        7377 |
|       9 | 0x0001      |           1 |
|      10 | 0x1CD0      |        7376 |
|      11 | 0x0002      |           2 |
|      12 | 0x1CD2      |        7378 |

## String References

- **7363**: Will you play dice? [Yes./Not now.]
- **7367**: You roll the dice and get a $2!
- **7368**: Saltvix rolls the dice and gets a $3!

## Events

### Event 65535

#### Metadata

| Field        | Value   |
|--------------|---------|
| Entrypoint   | 0x0000  |
| Data Size    | 1 bytes |
| Instructions | 1       |

```
      00 01 02 03 04 05 06 07  08 09 0A 0B 0C 0D 0E 0F
      -- -- -- -- -- -- -- --  -- -- -- -- -- -- -- --
0000: 00                                                .               
```

#### Opcodes

```
  0: 0x0000 [0x00] END_REQSTACK()
```

### Event 136

#### Metadata

| Field        | Value     |
|--------------|-----------|
| Entrypoint   | 0x0001    |
| Data Size    | 153 bytes |
| Instructions | 30        |

```
      00 01 02 03 04 05 06 07  08 09 0A 0B 0C 0D 0E 0F
      -- -- -- -- -- -- -- --  -- -- -- -- -- -- -- --
0000:    20 01 42 46 01 38 00  80 45 01 80 F0 FF FF 7F    .BF.8..E......
0010: F0 FF FF 7F 66 64 6F 31  02 80 1C 03 80 29 01 F0  ....fdo1.....)..
0020: FF FF 7F 0A 29 01 71 F1  0B 01 05 24 04 80 02 80  ....).q....$....
0030: 02 80 25 02 00 10 02 80  00 59 00 48 05 80 2B 71  ..%......Y.H..+q
0040: F1 0B 01 06 80 23 48 07  80 2B 71 F1 0B 01 08 80  .....#H..+q.....
0050: 23 03 01 10 02 80 01 71  00 02 00 10 09 80 00 71  #......q.......q
0060: 00 2B 71 F1 0B 01 0A 80  23 03 01 10 0B 80 01 71  .+q.....#......q
0070: 00 45 01 80 F0 FF FF 7F  F0 FF FF 7F 66 64 6F 31  .E..........fdo1
0080: 02 80 1C 03 80 46 00 45  01 80 F0 FF FF 7F F0 FF  .....F.E........
0090: FF 7F 66 64 69 31 02 80  21 00                    ..fdi1..!.      
```

#### Opcodes

```
  0: 0x0001 [0x20] SET_CLI_EVENT_UC_FLAG: Lock player control
  1: 0x0003 [0x42] SET_CLI_EVENT_CANCEL_DATA()
  2: 0x0004 [0x46] CAMERA_CONTROL: Disable user control
  3: 0x0006 [0x38] SET_CLIENT_EVENT_MODE(mode=19*)
  4: 0x0009 [0x45] LOAD_SCHEDULED_TASK: Load scheduler "fdo1" with entities [LocalPlayer, LocalPlayer], work=[200*, 0*]
  5: 0x001A [0x1C] WAIT(60* ticks)
  6: 0x001D [0x29] REQ_SET_WAIT(priority=0x01, entity_id=LocalPlayer, tag_num=0x0A)
  7: 0x0024 [0x29] REQ_SET_WAIT(priority=0x01, entity_id=Saltvix (ID: 17559921/0x010BF171), tag_num=0x05)
  8: 0x002B [0x24] CREATE_DIALOG(message_id=7363*, default_option=0*, option_flags=0*)
    → "Will you play dice? [Yes./Not now.]"
  9: 0x0032 [0x25] WAIT_DIALOG_SELECT()
 10: 0x0033 [0x02] IF !(Work_Zone[0] == 0*) GOTO 0x0059
 11: 0x003B [0x48] [System] [7368*]:
    → "Saltvix rolls the dice and gets a $3!"
 12: 0x003E [0x2B] Saltvix (ID: 17559921/0x010BF171) [7380*]:
    → "Your roll..."
 13: 0x0045 [0x23] WAIT_FOR_DIALOG_INTERACTION
 14: 0x0046 [0x48] [System] [7367*]:
    → "You roll the dice and get a $2!"
 15: 0x0049 [0x2B] Saltvix (ID: 17559921/0x010BF171) [7377*]:
    → "You good...but not good enough to get hands on our $0! You never beat Grasswix of North."
 16: 0x0050 [0x23] WAIT_FOR_DIALOG_INTERACTION
 17: 0x0051 [0x03] Work_Zone[1] = 0*
 18: 0x0056 [0x01] GOTO 0x0071
 19: 0x0059 [0x02] IF !(Work_Zone[0] == 1*) GOTO 0x0071
 20: 0x0061 [0x2B] Saltvix (ID: 17559921/0x010BF171) [7376*]:
    → "You give up? Why you do something like that?"
 21: 0x0068 [0x23] WAIT_FOR_DIALOG_INTERACTION
 22: 0x0069 [0x03] Work_Zone[1] = 2*
 23: 0x006E [0x01] GOTO 0x0071

SUBROUTINE_0071:
 24: 0x0071 [0x45] LOAD_SCHEDULED_TASK: Load scheduler "fdo1" with entities [LocalPlayer, LocalPlayer], work=[200*, 0*]
 25: 0x0082 [0x1C] WAIT(60* ticks)
 26: 0x0085 [0x46] CAMERA_CONTROL: Restore default settings
 27: 0x0087 [0x45] LOAD_SCHEDULED_TASK: Load scheduler "fdi1" with entities [LocalPlayer, LocalPlayer], work=[200*, 0*]
 28: 0x0098 [0x21] END_EVENT
 29: 0x0099 [0x00] END_REQSTACK()
```

### Event 139

#### Metadata

| Field        | Value     |
|--------------|-----------|
| Entrypoint   | 0x009A    |
| Data Size    | 153 bytes |
| Instructions | 30        |

```
      00 01 02 03 04 05 06 07  08 09 0A 0B 0C 0D 0E 0F
      -- -- -- -- -- -- -- --  -- -- -- -- -- -- -- --
0090:                                20 01 42 46 01 38             .BF.8
00A0: 00 80 45 01 80 F0 FF FF  7F F0 FF FF 7F 66 64 6F  ..E..........fdo
00B0: 31 02 80 1C 03 80 29 01  F0 FF FF 7F 0A 29 01 71  1.....)......).q
00C0: F1 0B 01 05 24 04 80 02  80 02 80 25 02 00 10 02  ....$......%....
00D0: 80 00 F2 00 48 05 80 2B  71 F1 0B 01 06 80 23 48  ....H..+q.....#H
00E0: 07 80 2B 71 F1 0B 01 0C  80 23 03 01 10 09 80 01  ..+q.....#......
00F0: 0A 01 02 00 10 09 80 00  0A 01 2B 71 F1 0B 01 0A  ..........+q....
0100: 80 23 03 01 10 0B 80 01  0A 01 45 01 80 F0 FF FF  .#........E.....
0110: 7F F0 FF FF 7F 66 64 6F  31 02 80 1C 03 80 46 00  .....fdo1.....F.
0120: 45 01 80 F0 FF FF 7F F0  FF FF 7F 66 64 69 31 02  E..........fdi1.
0130: 80 21 00                                          .!.             
```

#### Opcodes

```
  0: 0x009A [0x20] SET_CLI_EVENT_UC_FLAG: Lock player control
  1: 0x009C [0x42] SET_CLI_EVENT_CANCEL_DATA()
  2: 0x009D [0x46] CAMERA_CONTROL: Disable user control
  3: 0x009F [0x38] SET_CLIENT_EVENT_MODE(mode=19*)
  4: 0x00A2 [0x45] LOAD_SCHEDULED_TASK: Load scheduler "fdo1" with entities [LocalPlayer, LocalPlayer], work=[200*, 0*]
  5: 0x00B3 [0x1C] WAIT(60* ticks)
  6: 0x00B6 [0x29] REQ_SET_WAIT(priority=0x01, entity_id=LocalPlayer, tag_num=0x0A)
  7: 0x00BD [0x29] REQ_SET_WAIT(priority=0x01, entity_id=Saltvix (ID: 17559921/0x010BF171), tag_num=0x05)
  8: 0x00C4 [0x24] CREATE_DIALOG(message_id=7363*, default_option=0*, option_flags=0*)
    → "Will you play dice? [Yes./Not now.]"
  9: 0x00CB [0x25] WAIT_DIALOG_SELECT()
 10: 0x00CC [0x02] IF !(Work_Zone[0] == 0*) GOTO 0x00F2
 11: 0x00D4 [0x48] [System] [7368*]:
    → "Saltvix rolls the dice and gets a $3!"
 12: 0x00D7 [0x2B] Saltvix (ID: 17559921/0x010BF171) [7380*]:
    → "Your roll..."
 13: 0x00DE [0x23] WAIT_FOR_DIALOG_INTERACTION
 14: 0x00DF [0x48] [System] [7367*]:
    → "You roll the dice and get a $2!"
 15: 0x00E2 [0x2B] Saltvix (ID: 17559921/0x010BF171) [7378*]:
    → "Hmph! You practice. Try again later."
 16: 0x00E9 [0x23] WAIT_FOR_DIALOG_INTERACTION
 17: 0x00EA [0x03] Work_Zone[1] = 1*
 18: 0x00EF [0x01] GOTO 0x010A
 19: 0x00F2 [0x02] IF !(Work_Zone[0] == 1*) GOTO 0x010A
 20: 0x00FA [0x2B] Saltvix (ID: 17559921/0x010BF171) [7376*]:
    → "You give up? Why you do something like that?"
 21: 0x0101 [0x23] WAIT_FOR_DIALOG_INTERACTION
 22: 0x0102 [0x03] Work_Zone[1] = 2*
 23: 0x0107 [0x01] GOTO 0x010A

SUBROUTINE_010A:
 24: 0x010A [0x45] LOAD_SCHEDULED_TASK: Load scheduler "fdo1" with entities [LocalPlayer, LocalPlayer], work=[200*, 0*]
 25: 0x011B [0x1C] WAIT(60* ticks)
 26: 0x011E [0x46] CAMERA_CONTROL: Restore default settings
 27: 0x0120 [0x45] LOAD_SCHEDULED_TASK: Load scheduler "fdi1" with entities [LocalPlayer, LocalPlayer], work=[200*, 0*]
 28: 0x0131 [0x21] END_EVENT
 29: 0x0132 [0x00] END_REQSTACK()
```

### Event 142

#### Metadata

| Field        | Value     |
|--------------|-----------|
| Entrypoint   | 0x0133    |
| Data Size    | 153 bytes |
| Instructions | 30        |

```
      00 01 02 03 04 05 06 07  08 09 0A 0B 0C 0D 0E 0F
      -- -- -- -- -- -- -- --  -- -- -- -- -- -- -- --
0130:          20 01 42 46 01  38 00 80 45 01 80 F0 FF      .BF.8..E....
0140: FF 7F F0 FF FF 7F 66 64  6F 31 02 80 1C 03 80 29  ......fdo1.....)
0150: 01 F0 FF FF 7F 0A 29 01  71 F1 0B 01 06 24 04 80  ......).q....$..
0160: 02 80 02 80 25 02 00 10  02 80 00 8B 01 48 05 80  ....%........H..
0170: 2B 71 F1 0B 01 06 80 23  48 07 80 2B 71 F1 0B 01  +q.....#H..+q...
0180: 08 80 23 03 01 10 02 80  01 A3 01 02 00 10 09 80  ..#.............
0190: 00 A3 01 2B 71 F1 0B 01  0A 80 23 03 01 10 0B 80  ...+q.....#.....
01A0: 01 A3 01 45 01 80 F0 FF  FF 7F F0 FF FF 7F 66 64  ...E..........fd
01B0: 6F 31 02 80 1C 03 80 46  00 45 01 80 F0 FF FF 7F  o1.....F.E......
01C0: F0 FF FF 7F 66 64 69 31  02 80 21 00              ....fdi1..!.    
```

#### Opcodes

```
  0: 0x0133 [0x20] SET_CLI_EVENT_UC_FLAG: Lock player control
  1: 0x0135 [0x42] SET_CLI_EVENT_CANCEL_DATA()
  2: 0x0136 [0x46] CAMERA_CONTROL: Disable user control
  3: 0x0138 [0x38] SET_CLIENT_EVENT_MODE(mode=19*)
  4: 0x013B [0x45] LOAD_SCHEDULED_TASK: Load scheduler "fdo1" with entities [LocalPlayer, LocalPlayer], work=[200*, 0*]
  5: 0x014C [0x1C] WAIT(60* ticks)
  6: 0x014F [0x29] REQ_SET_WAIT(priority=0x01, entity_id=LocalPlayer, tag_num=0x0A)
  7: 0x0156 [0x29] REQ_SET_WAIT(priority=0x01, entity_id=Saltvix (ID: 17559921/0x010BF171), tag_num=0x06)
  8: 0x015D [0x24] CREATE_DIALOG(message_id=7363*, default_option=0*, option_flags=0*)
    → "Will you play dice? [Yes./Not now.]"
  9: 0x0164 [0x25] WAIT_DIALOG_SELECT()
 10: 0x0165 [0x02] IF !(Work_Zone[0] == 0*) GOTO 0x018B
 11: 0x016D [0x48] [System] [7368*]:
    → "Saltvix rolls the dice and gets a $3!"
 12: 0x0170 [0x2B] Saltvix (ID: 17559921/0x010BF171) [7380*]:
    → "Your roll..."
 13: 0x0177 [0x23] WAIT_FOR_DIALOG_INTERACTION
 14: 0x0178 [0x48] [System] [7367*]:
    → "You roll the dice and get a $2!"
 15: 0x017B [0x2B] Saltvix (ID: 17559921/0x010BF171) [7377*]:
    → "You good...but not good enough to get hands on our $0! You never beat Grasswix of North."
 16: 0x0182 [0x23] WAIT_FOR_DIALOG_INTERACTION
 17: 0x0183 [0x03] Work_Zone[1] = 0*
 18: 0x0188 [0x01] GOTO 0x01A3
 19: 0x018B [0x02] IF !(Work_Zone[0] == 1*) GOTO 0x01A3
 20: 0x0193 [0x2B] Saltvix (ID: 17559921/0x010BF171) [7376*]:
    → "You give up? Why you do something like that?"
 21: 0x019A [0x23] WAIT_FOR_DIALOG_INTERACTION
 22: 0x019B [0x03] Work_Zone[1] = 2*
 23: 0x01A0 [0x01] GOTO 0x01A3

SUBROUTINE_01A3:
 24: 0x01A3 [0x45] LOAD_SCHEDULED_TASK: Load scheduler "fdo1" with entities [LocalPlayer, LocalPlayer], work=[200*, 0*]
 25: 0x01B4 [0x1C] WAIT(60* ticks)
 26: 0x01B7 [0x46] CAMERA_CONTROL: Restore default settings
 27: 0x01B9 [0x45] LOAD_SCHEDULED_TASK: Load scheduler "fdi1" with entities [LocalPlayer, LocalPlayer], work=[200*, 0*]
 28: 0x01CA [0x21] END_EVENT
 29: 0x01CB [0x00] END_REQSTACK()
```

### Event 145

#### Metadata

| Field        | Value     |
|--------------|-----------|
| Entrypoint   | 0x01CC    |
| Data Size    | 153 bytes |
| Instructions | 30        |

```
      00 01 02 03 04 05 06 07  08 09 0A 0B 0C 0D 0E 0F
      -- -- -- -- -- -- -- --  -- -- -- -- -- -- -- --
01C0:                                      20 01 42 46               .BF
01D0: 01 38 00 80 45 01 80 F0  FF FF 7F F0 FF FF 7F 66  .8..E..........f
01E0: 64 6F 31 02 80 1C 03 80  29 01 F0 FF FF 7F 0A 29  do1.....)......)
01F0: 01 71 F1 0B 01 06 24 04  80 02 80 02 80 25 02 00  .q....$......%..
0200: 10 02 80 00 24 02 48 05  80 2B 71 F1 0B 01 06 80  ....$.H..+q.....
0210: 23 48 07 80 2B 71 F1 0B  01 0C 80 23 03 01 10 09  #H..+q.....#....
0220: 80 01 3C 02 02 00 10 09  80 00 3C 02 2B 71 F1 0B  ..<.......<.+q..
0230: 01 0A 80 23 03 01 10 0B  80 01 3C 02 45 01 80 F0  ...#......<.E...
0240: FF FF 7F F0 FF FF 7F 66  64 6F 31 02 80 1C 03 80  .......fdo1.....
0250: 46 00 45 01 80 F0 FF FF  7F F0 FF FF 7F 66 64 69  F.E..........fdi
0260: 31 02 80 21 00                                    1..!.           
```

#### Opcodes

```
  0: 0x01CC [0x20] SET_CLI_EVENT_UC_FLAG: Lock player control
  1: 0x01CE [0x42] SET_CLI_EVENT_CANCEL_DATA()
  2: 0x01CF [0x46] CAMERA_CONTROL: Disable user control
  3: 0x01D1 [0x38] SET_CLIENT_EVENT_MODE(mode=19*)
  4: 0x01D4 [0x45] LOAD_SCHEDULED_TASK: Load scheduler "fdo1" with entities [LocalPlayer, LocalPlayer], work=[200*, 0*]
  5: 0x01E5 [0x1C] WAIT(60* ticks)
  6: 0x01E8 [0x29] REQ_SET_WAIT(priority=0x01, entity_id=LocalPlayer, tag_num=0x0A)
  7: 0x01EF [0x29] REQ_SET_WAIT(priority=0x01, entity_id=Saltvix (ID: 17559921/0x010BF171), tag_num=0x06)
  8: 0x01F6 [0x24] CREATE_DIALOG(message_id=7363*, default_option=0*, option_flags=0*)
    → "Will you play dice? [Yes./Not now.]"
  9: 0x01FD [0x25] WAIT_DIALOG_SELECT()
 10: 0x01FE [0x02] IF !(Work_Zone[0] == 0*) GOTO 0x0224
 11: 0x0206 [0x48] [System] [7368*]:
    → "Saltvix rolls the dice and gets a $3!"
 12: 0x0209 [0x2B] Saltvix (ID: 17559921/0x010BF171) [7380*]:
    → "Your roll..."
 13: 0x0210 [0x23] WAIT_FOR_DIALOG_INTERACTION
 14: 0x0211 [0x48] [System] [7367*]:
    → "You roll the dice and get a $2!"
 15: 0x0214 [0x2B] Saltvix (ID: 17559921/0x010BF171) [7378*]:
    → "Hmph! You practice. Try again later."
 16: 0x021B [0x23] WAIT_FOR_DIALOG_INTERACTION
 17: 0x021C [0x03] Work_Zone[1] = 1*
 18: 0x0221 [0x01] GOTO 0x023C
 19: 0x0224 [0x02] IF !(Work_Zone[0] == 1*) GOTO 0x023C
 20: 0x022C [0x2B] Saltvix (ID: 17559921/0x010BF171) [7376*]:
    → "You give up? Why you do something like that?"
 21: 0x0233 [0x23] WAIT_FOR_DIALOG_INTERACTION
 22: 0x0234 [0x03] Work_Zone[1] = 2*
 23: 0x0239 [0x01] GOTO 0x023C

SUBROUTINE_023C:
 24: 0x023C [0x45] LOAD_SCHEDULED_TASK: Load scheduler "fdo1" with entities [LocalPlayer, LocalPlayer], work=[200*, 0*]
 25: 0x024D [0x1C] WAIT(60* ticks)
 26: 0x0250 [0x46] CAMERA_CONTROL: Restore default settings
 27: 0x0252 [0x45] LOAD_SCHEDULED_TASK: Load scheduler "fdi1" with entities [LocalPlayer, LocalPlayer], work=[200*, 0*]
 28: 0x0263 [0x21] END_EVENT
 29: 0x0264 [0x00] END_REQSTACK()
```
