# 17559920

## Common Data

| Field            | Value                  |
|------------------|------------------------|
| Zone             | Dangruf Wadi (ID: 191) |
| Block Size       | 424 bytes              |
| Total Events     | 3                      |
| References Count | 16                     |

## List of Events

| Event ID              | Entrypoint   |   Size |   Instructions |
|-----------------------|--------------|--------|----------------|
| [65535](#event-65535) | 0x0000       |      1 |              1 |
| [138](#event-138)     | 0x0001       |    169 |             34 |
| [141](#event-141)     | 0x00AA       |    161 |             32 |

## DAT References (imed_data)

|   Index | Hex Value   |   Dec Value |
|---------|-------------|-------------|
|       0 | 0x0013      |          19 |
|       1 | 0x00C8      |         200 |
|       2 | 0x0000      |           0 |
|       3 | 0x003C      |          60 |
|       4 | 0x1CC3      |        7363 |
|       5 | 0x1CCA      |        7370 |
|       6 | 0x1CED      |        7405 |
|       7 | 0x1CC7      |        7367 |
|       8 | 0x1CE7      |        7399 |
|       9 | 0x1CE8      |        7400 |
|      10 | 0x1CE9      |        7401 |
|      11 | 0x0001      |           1 |
|      12 | 0x1CE6      |        7398 |
|      13 | 0x0002      |           2 |
|      14 | 0x1CEA      |        7402 |
|      15 | 0x1CEB      |        7403 |

## String References

- **7363**: Will you play dice? [Yes./Not now.]
- **7367**: You roll the dice and get a $2!
- **7370**: Eggblix rolls the dice and gets a $3!

## Events

### Event 65535

#### Metadata

| Field        | Value   |
|--------------|---------|
| Entrypoint   | 0x0000  |
| Data Size    | 1 bytes |
| Instructions | 1       |

```
      00 01 02 03 04 05 06 07  08 09 0A 0B 0C 0D 0E 0F
      -- -- -- -- -- -- -- --  -- -- -- -- -- -- -- --
0000: 00                                                .               
```

#### Opcodes

```
  0: 0x0000 [0x00] END_REQSTACK()
```

### Event 138

#### Metadata

| Field        | Value     |
|--------------|-----------|
| Entrypoint   | 0x0001    |
| Data Size    | 169 bytes |
| Instructions | 34        |

```
      00 01 02 03 04 05 06 07  08 09 0A 0B 0C 0D 0E 0F
      -- -- -- -- -- -- -- --  -- -- -- -- -- -- -- --
0000:    20 01 42 46 01 38 00  80 45 01 80 F0 FF FF 7F    .BF.8..E......
0010: F0 FF FF 7F 66 64 6F 31  02 80 1C 03 80 29 01 F0  ....fdo1.....)..
0020: FF FF 7F 0C 29 01 73 F1  0B 01 03 24 04 80 02 80  ....).s....$....
0030: 02 80 25 02 00 10 02 80  00 69 00 48 05 80 2B 73  ..%......i.H..+s
0040: F1 0B 01 06 80 23 48 07  80 2B 73 F1 0B 01 08 80  .....#H..+s.....
0050: 23 2B 73 F1 0B 01 09 80  23 2B 73 F1 0B 01 0A 80  #+s.....#+s.....
0060: 23 03 01 10 02 80 01 81  00 02 00 10 0B 80 00 81  #...............
0070: 00 2B 73 F1 0B 01 0C 80  23 03 01 10 0D 80 01 81  .+s.....#.......
0080: 00 45 01 80 F0 FF FF 7F  F0 FF FF 7F 66 64 6F 31  .E..........fdo1
0090: 02 80 1C 03 80 46 00 45  01 80 F0 FF FF 7F F0 FF  .....F.E........
00A0: FF 7F 66 64 69 31 02 80  21 00                    ..fdi1..!.      
```

#### Opcodes

```
  0: 0x0001 [0x20] SET_CLI_EVENT_UC_FLAG: Lock player control
  1: 0x0003 [0x42] SET_CLI_EVENT_CANCEL_DATA()
  2: 0x0004 [0x46] CAMERA_CONTROL: Disable user control
  3: 0x0006 [0x38] SET_CLIENT_EVENT_MODE(mode=19*)
  4: 0x0009 [0x45] LOAD_SCHEDULED_TASK: Load scheduler "fdo1" with entities [LocalPlayer, LocalPlayer], work=[200*, 0*]
  5: 0x001A [0x1C] WAIT(60* ticks)
  6: 0x001D [0x29] REQ_SET_WAIT(priority=0x01, entity_id=LocalPlayer, tag_num=0x0C)
  7: 0x0024 [0x29] REQ_SET_WAIT(priority=0x01, entity_id=Eggblix (ID: 17559923/0x010BF173), tag_num=0x03)
  8: 0x002B [0x24] CREATE_DIALOG(message_id=7363*, default_option=0*, option_flags=0*)
    → "Will you play dice? [Yes./Not now.]"
  9: 0x0032 [0x25] WAIT_DIALOG_SELECT()
 10: 0x0033 [0x02] IF !(Work_Zone[0] == 0*) GOTO 0x0069
 11: 0x003B [0x48] [System] [7370*]:
    → "Eggblix rolls the dice and gets a $3!"
 12: 0x003E [0x2B] Eggblix (ID: 17559923/0x010BF173) [7405*]:
    → "Whenever you're ready."
 13: 0x0045 [0x23] WAIT_FOR_DIALOG_INTERACTION
 14: 0x0046 [0x48] [System] [7367*]:
    → "You roll the dice and get a $2!"
 15: 0x0049 [0x2B] Eggblix (ID: 17559923/0x010BF173) [7399*]:
    → "Unbelievable! Lady Luck shines on you, she does! Maybe you have what it takes to get ours $0."
 16: 0x0050 [0x23] WAIT_FOR_DIALOG_INTERACTION
 17: 0x0051 [0x2B] Eggblix (ID: 17559923/0x010BF173) [7400*]:
    → "To tell you the truth, I don't have ours $0, me sister does. You can meet her at Drachenfall."
 18: 0x0058 [0x23] WAIT_FOR_DIALOG_INTERACTION
 19: 0x0059 [0x2B] Eggblix (ID: 17559923/0x010BF173) [7401*]:
    → "But beware! Me sister, she don't like nobody in her territory. Don't go snoopin' around in her private stuff."
 20: 0x0060 [0x23] WAIT_FOR_DIALOG_INTERACTION
 21: 0x0061 [0x03] Work_Zone[1] = 0*
 22: 0x0066 [0x01] GOTO 0x0081
 23: 0x0069 [0x02] IF !(Work_Zone[0] == 1*) GOTO 0x0081
 24: 0x0071 [0x2B] Eggblix (ID: 17559923/0x010BF173) [7398*]:
    → "I didn't think ya were that type of gambler... And to think I was gonna tell ya where our sister..."
 25: 0x0078 [0x23] WAIT_FOR_DIALOG_INTERACTION
 26: 0x0079 [0x03] Work_Zone[1] = 2*
 27: 0x007E [0x01] GOTO 0x0081

SUBROUTINE_0081:
 28: 0x0081 [0x45] LOAD_SCHEDULED_TASK: Load scheduler "fdo1" with entities [LocalPlayer, LocalPlayer], work=[200*, 0*]
 29: 0x0092 [0x1C] WAIT(60* ticks)
 30: 0x0095 [0x46] CAMERA_CONTROL: Restore default settings
 31: 0x0097 [0x45] LOAD_SCHEDULED_TASK: Load scheduler "fdi1" with entities [LocalPlayer, LocalPlayer], work=[200*, 0*]
 32: 0x00A8 [0x21] END_EVENT
 33: 0x00A9 [0x00] END_REQSTACK()
```

### Event 141

#### Metadata

| Field        | Value     |
|--------------|-----------|
| Entrypoint   | 0x00AA    |
| Data Size    | 161 bytes |
| Instructions | 32        |

```
      00 01 02 03 04 05 06 07  08 09 0A 0B 0C 0D 0E 0F
      -- -- -- -- -- -- -- --  -- -- -- -- -- -- -- --
00A0:                                20 01 42 46 01 38             .BF.8
00B0: 00 80 45 01 80 F0 FF FF  7F F0 FF FF 7F 66 64 6F  ..E..........fdo
00C0: 31 02 80 1C 03 80 29 01  F0 FF FF 7F 0C 29 01 73  1.....)......).s
00D0: F1 0B 01 03 24 04 80 02  80 02 80 25 02 00 10 02  ....$......%....
00E0: 80 00 0A 01 48 05 80 2B  73 F1 0B 01 06 80 23 48  ....H..+s.....#H
00F0: 07 80 2B 73 F1 0B 01 0E  80 23 2B 73 F1 0B 01 0F  ..+s.....#+s....
0100: 80 23 03 01 10 0B 80 01  22 01 02 00 10 0B 80 00  .#......".......
0110: 22 01 2B 73 F1 0B 01 0C  80 23 03 01 10 0D 80 01  ".+s.....#......
0120: 22 01 45 01 80 F0 FF FF  7F F0 FF FF 7F 66 64 6F  ".E..........fdo
0130: 31 02 80 1C 03 80 46 00  45 01 80 F0 FF FF 7F F0  1.....F.E.......
0140: FF FF 7F 66 64 69 31 02  80 21 00                 ...fdi1..!.     
```

#### Opcodes

```
  0: 0x00AA [0x20] SET_CLI_EVENT_UC_FLAG: Lock player control
  1: 0x00AC [0x42] SET_CLI_EVENT_CANCEL_DATA()
  2: 0x00AD [0x46] CAMERA_CONTROL: Disable user control
  3: 0x00AF [0x38] SET_CLIENT_EVENT_MODE(mode=19*)
  4: 0x00B2 [0x45] LOAD_SCHEDULED_TASK: Load scheduler "fdo1" with entities [LocalPlayer, LocalPlayer], work=[200*, 0*]
  5: 0x00C3 [0x1C] WAIT(60* ticks)
  6: 0x00C6 [0x29] REQ_SET_WAIT(priority=0x01, entity_id=LocalPlayer, tag_num=0x0C)
  7: 0x00CD [0x29] REQ_SET_WAIT(priority=0x01, entity_id=Eggblix (ID: 17559923/0x010BF173), tag_num=0x03)
  8: 0x00D4 [0x24] CREATE_DIALOG(message_id=7363*, default_option=0*, option_flags=0*)
    → "Will you play dice? [Yes./Not now.]"
  9: 0x00DB [0x25] WAIT_DIALOG_SELECT()
 10: 0x00DC [0x02] IF !(Work_Zone[0] == 0*) GOTO 0x010A
 11: 0x00E4 [0x48] [System] [7370*]:
    → "Eggblix rolls the dice and gets a $3!"
 12: 0x00E7 [0x2B] Eggblix (ID: 17559923/0x010BF173) [7405*]:
    → "Whenever you're ready."
 13: 0x00EE [0x23] WAIT_FOR_DIALOG_INTERACTION
 14: 0x00EF [0x48] [System] [7367*]:
    → "You roll the dice and get a $2!"
 15: 0x00F2 [0x2B] Eggblix (ID: 17559923/0x010BF173) [7402*]:
    → "You're lucky you made it this far, but it was only luck. Ya need skills to beat Eggblix!"
 16: 0x00F9 [0x23] WAIT_FOR_DIALOG_INTERACTION
 17: 0x00FA [0x2B] Eggblix (ID: 17559923/0x010BF173) [7403*]:
    → "Ya get the skills, ya come back and try again, hear?"
 18: 0x0101 [0x23] WAIT_FOR_DIALOG_INTERACTION
 19: 0x0102 [0x03] Work_Zone[1] = 1*
 20: 0x0107 [0x01] GOTO 0x0122
 21: 0x010A [0x02] IF !(Work_Zone[0] == 1*) GOTO 0x0122
 22: 0x0112 [0x2B] Eggblix (ID: 17559923/0x010BF173) [7398*]:
    → "I didn't think ya were that type of gambler... And to think I was gonna tell ya where our sister..."
 23: 0x0119 [0x23] WAIT_FOR_DIALOG_INTERACTION
 24: 0x011A [0x03] Work_Zone[1] = 2*
 25: 0x011F [0x01] GOTO 0x0122

SUBROUTINE_0122:
 26: 0x0122 [0x45] LOAD_SCHEDULED_TASK: Load scheduler "fdo1" with entities [LocalPlayer, LocalPlayer], work=[200*, 0*]
 27: 0x0133 [0x1C] WAIT(60* ticks)
 28: 0x0136 [0x46] CAMERA_CONTROL: Restore default settings
 29: 0x0138 [0x45] LOAD_SCHEDULED_TASK: Load scheduler "fdi1" with entities [LocalPlayer, LocalPlayer], work=[200*, 0*]
 30: 0x0149 [0x21] END_EVENT
 31: 0x014A [0x00] END_REQSTACK()
```
