# 17559923 - Eggblix

## Common Data

| Field            | Value                  |
|------------------|------------------------|
| Zone             | Dangruf Wadi (ID: 191) |
| Block Size       | 152 bytes              |
| Total Events     | 4                      |
| References Count | 11                     |

## List of Events

| Event ID              | Entrypoint   |   Size |   Instructions |
|-----------------------|--------------|--------|----------------|
| [65535](#event-65535) | 0x0000       |      1 |              1 |
| [138](#event-138)     | 0x0001       |      1 |              1 |
| [141](#event-141)     | 0x0002       |      1 |              1 |
| [132](#event-132)     | 0x0003       |     71 |             14 |

## DAT References (imed_data)

|   Index | Hex Value   |   Dec Value |
|---------|-------------|-------------|
|       0 | 0xFFF8F0FC  |  4294504700 |
|       1 | 0xFFFDD8BD  |  4294826173 |
|       2 | 0x0997      |        2455 |
|       3 | 0x005E      |          94 |
|       4 | 0x0000      |           0 |
|       5 | 0x00C8      |         200 |
|       6 | 0x1CE2      |        7394 |
|       7 | 0x00B4      |         180 |
|       8 | 0x1CE3      |        7395 |
|       9 | 0x1CE4      |        7396 |
|      10 | 0x1CE5      |        7397 |

## String References

- **7394**: Crunch...crunch...slurp...slurrrp!
- **7395**: Gotta love those eggs! Best when they're raw, ya know!
- **7396**: Nothin' to say, huh? It was you who beat me little brothers, wasn't it?
- **7397**: If ya beat me, I'll tell ya all I know about our $0. I promise!

## Events

### Event 65535

#### Metadata

| Field        | Value   |
|--------------|---------|
| Entrypoint   | 0x0000  |
| Data Size    | 1 bytes |
| Instructions | 1       |

```
      00 01 02 03 04 05 06 07  08 09 0A 0B 0C 0D 0E 0F
      -- -- -- -- -- -- -- --  -- -- -- -- -- -- -- --
0000: 00                                                .               
```

#### Opcodes

```
  0: 0x0000 [0x00] END_REQSTACK()
```

### Event 138

#### Metadata

| Field        | Value   |
|--------------|---------|
| Entrypoint   | 0x0001  |
| Data Size    | 1 bytes |
| Instructions | 1       |

```
      00 01 02 03 04 05 06 07  08 09 0A 0B 0C 0D 0E 0F
      -- -- -- -- -- -- -- --  -- -- -- -- -- -- -- --
0000:    00                                              .              
```

#### Opcodes

```
  0: 0x0001 [0x00] END_REQSTACK()
```

### Event 141

#### Metadata

| Field        | Value   |
|--------------|---------|
| Entrypoint   | 0x0002  |
| Data Size    | 1 bytes |
| Instructions | 1       |

```
      00 01 02 03 04 05 06 07  08 09 0A 0B 0C 0D 0E 0F
      -- -- -- -- -- -- -- --  -- -- -- -- -- -- -- --
0000:       00                                            .             
```

#### Opcodes

```
  0: 0x0002 [0x00] END_REQSTACK()
```

### Event 132

#### Metadata

| Field        | Value    |
|--------------|----------|
| Entrypoint   | 0x0003   |
| Data Size    | 71 bytes |
| Instructions | 14       |

```
      00 01 02 03 04 05 06 07  08 09 0A 0B 0C 0D 0E 0F
      -- -- -- -- -- -- -- --  -- -- -- -- -- -- -- --
0000:          4E 00 73 F1 0B  01 1E F0 FF FF 7F 36 00     N.s........6.
0010: 80 01 80 02 80 45 03 80  F0 FF FF 7F F0 FF FF 7F  .....E..........
0020: 67 62 64 63 04 80 45 05  80 F0 FF FF 7F F0 FF FF  gbdc..E.........
0030: 7F 66 64 69 31 04 80 1D  06 80 1C 07 80 1D 08 80  .fdi1...........
0040: 23 1D 09 80 23 1D 0A 80  23 00                    #...#...#.      
```

#### Opcodes

```
  0: 0x0003 [0x4E] SET_ENTITY_HIDE_FLAG: Show Eggblix (ID: 17559923/0x010BF173)
  1: 0x0009 [0x1E] EventEntity looks at LocalPlayer and starts talking
  2: 0x000E [0x36] SET_ENTITY_EVENT_POSITION(pos_x=-462.596*, pos_z=-141.123*, pos_y=2.455*)
  3: 0x0015 [0x45] LOAD_SCHEDULED_TASK: Load scheduler "gbdc" with entities [LocalPlayer, LocalPlayer], work=[94*, 0*]
  4: 0x0026 [0x45] LOAD_SCHEDULED_TASK: Load scheduler "fdi1" with entities [LocalPlayer, LocalPlayer], work=[200*, 0*]
  5: 0x0037 [0x1D] PRINT_EVENT_MESSAGE(message_id=7394*)
    → "Crunch...crunch...slurp...slurrrp!"
  6: 0x003A [0x1C] WAIT(180* ticks)
  7: 0x003D [0x1D] PRINT_EVENT_MESSAGE(message_id=7395*)
    → "Gotta love those eggs! Best when they're raw, ya know!"
  8: 0x0040 [0x23] WAIT_FOR_DIALOG_INTERACTION
  9: 0x0041 [0x1D] PRINT_EVENT_MESSAGE(message_id=7396*)
    → "Nothin' to say, huh? It was you who beat me little brothers, wasn't it?"
 10: 0x0044 [0x23] WAIT_FOR_DIALOG_INTERACTION
 11: 0x0045 [0x1D] PRINT_EVENT_MESSAGE(message_id=7397*)
    → "If ya beat me, I'll tell ya all I know about our $0. I promise!"
 12: 0x0048 [0x23] WAIT_FOR_DIALOG_INTERACTION
 13: 0x0049 [0x00] END_REQSTACK()
```
