# 17559919

## Common Data

| Field            | Value                  |
|------------------|------------------------|
| Zone             | Dangruf Wadi (ID: 191) |
| Block Size       | 388 bytes              |
| Total Events     | 3                      |
| References Count | 13                     |

## List of Events

| Event ID              | Entrypoint   |   Size |   Instructions |
|-----------------------|--------------|--------|----------------|
| [65535](#event-65535) | 0x0000       |      1 |              1 |
| [137](#event-137)     | 0x0001       |    153 |             30 |
| [140](#event-140)     | 0x009A       |    153 |             30 |

## DAT References (imed_data)

|   Index | Hex Value   |   Dec Value |
|---------|-------------|-------------|
|       0 | 0x0013      |          19 |
|       1 | 0x00C8      |         200 |
|       2 | 0x0000      |           0 |
|       3 | 0x003C      |          60 |
|       4 | 0x1CC3      |        7363 |
|       5 | 0x1CC9      |        7369 |
|       6 | 0x1CDF      |        7391 |
|       7 | 0x1CC7      |        7367 |
|       8 | 0x1CDC      |        7388 |
|       9 | 0x0001      |           1 |
|      10 | 0x1CDB      |        7387 |
|      11 | 0x0002      |           2 |
|      12 | 0x1CDD      |        7389 |

## String References

- **7363**: Will you play dice? [Yes./Not now.]
- **7367**: You roll the dice and get a $2!
- **7369**: Grasswix rolls the dice and gets a $3!

## Events

### Event 65535

#### Metadata

| Field        | Value   |
|--------------|---------|
| Entrypoint   | 0x0000  |
| Data Size    | 1 bytes |
| Instructions | 1       |

```
      00 01 02 03 04 05 06 07  08 09 0A 0B 0C 0D 0E 0F
      -- -- -- -- -- -- -- --  -- -- -- -- -- -- -- --
0000: 00                                                .               
```

#### Opcodes

```
  0: 0x0000 [0x00] END_REQSTACK()
```

### Event 137

#### Metadata

| Field        | Value     |
|--------------|-----------|
| Entrypoint   | 0x0001    |
| Data Size    | 153 bytes |
| Instructions | 30        |

```
      00 01 02 03 04 05 06 07  08 09 0A 0B 0C 0D 0E 0F
      -- -- -- -- -- -- -- --  -- -- -- -- -- -- -- --
0000:    20 01 42 46 01 38 00  80 45 01 80 F0 FF FF 7F    .BF.8..E......
0010: F0 FF FF 7F 66 64 6F 31  02 80 1C 03 80 29 01 F0  ....fdo1.....)..
0020: FF FF 7F 0B 29 01 72 F1  0B 01 03 24 04 80 02 80  ....).r....$....
0030: 02 80 25 02 00 10 02 80  00 59 00 48 05 80 2B 72  ..%......Y.H..+r
0040: F1 0B 01 06 80 23 48 07  80 2B 72 F1 0B 01 08 80  .....#H..+r.....
0050: 23 03 01 10 02 80 01 71  00 02 00 10 09 80 00 71  #......q.......q
0060: 00 2B 72 F1 0B 01 0A 80  23 03 01 10 0B 80 01 71  .+r.....#......q
0070: 00 45 01 80 F0 FF FF 7F  F0 FF FF 7F 66 64 6F 31  .E..........fdo1
0080: 02 80 1C 03 80 46 00 45  01 80 F0 FF FF 7F F0 FF  .....F.E........
0090: FF 7F 66 64 69 31 02 80  21 00                    ..fdi1..!.      
```

#### Opcodes

```
  0: 0x0001 [0x20] SET_CLI_EVENT_UC_FLAG: Lock player control
  1: 0x0003 [0x42] SET_CLI_EVENT_CANCEL_DATA()
  2: 0x0004 [0x46] CAMERA_CONTROL: Disable user control
  3: 0x0006 [0x38] SET_CLIENT_EVENT_MODE(mode=19*)
  4: 0x0009 [0x45] LOAD_SCHEDULED_TASK: Load scheduler "fdo1" with entities [LocalPlayer, LocalPlayer], work=[200*, 0*]
  5: 0x001A [0x1C] WAIT(60* ticks)
  6: 0x001D [0x29] REQ_SET_WAIT(priority=0x01, entity_id=LocalPlayer, tag_num=0x0B)
  7: 0x0024 [0x29] REQ_SET_WAIT(priority=0x01, entity_id=Grasswix (ID: 17559922/0x010BF172), tag_num=0x03)
  8: 0x002B [0x24] CREATE_DIALOG(message_id=7363*, default_option=0*, option_flags=0*)
    → "Will you play dice? [Yes./Not now.]"
  9: 0x0032 [0x25] WAIT_DIALOG_SELECT()
 10: 0x0033 [0x02] IF !(Work_Zone[0] == 0*) GOTO 0x0059
 11: 0x003B [0x48] [System] [7369*]:
    → "Grasswix rolls the dice and gets a $3!"
 12: 0x003E [0x2B] Grasswix (ID: 17559922/0x010BF172) [7391*]:
    → "Grasswix roll. Now you!"
 13: 0x0045 [0x23] WAIT_FOR_DIALOG_INTERACTION
 14: 0x0046 [0x48] [System] [7367*]:
    → "You roll the dice and get a $2!"
 15: 0x0049 [0x2B] Grasswix (ID: 17559922/0x010BF172) [7388*]:
    → "Dice choose winner. Dice choose you. You win now, but you never beat Eggblix of Cavern."
 16: 0x0050 [0x23] WAIT_FOR_DIALOG_INTERACTION
 17: 0x0051 [0x03] Work_Zone[1] = 0*
 18: 0x0056 [0x01] GOTO 0x0071
 19: 0x0059 [0x02] IF !(Work_Zone[0] == 1*) GOTO 0x0071
 20: 0x0061 [0x2B] Grasswix (ID: 17559922/0x010BF172) [7387*]:
    → "You give up without throwing dice. Grasswix cannot forgive!"
 21: 0x0068 [0x23] WAIT_FOR_DIALOG_INTERACTION
 22: 0x0069 [0x03] Work_Zone[1] = 2*
 23: 0x006E [0x01] GOTO 0x0071

SUBROUTINE_0071:
 24: 0x0071 [0x45] LOAD_SCHEDULED_TASK: Load scheduler "fdo1" with entities [LocalPlayer, LocalPlayer], work=[200*, 0*]
 25: 0x0082 [0x1C] WAIT(60* ticks)
 26: 0x0085 [0x46] CAMERA_CONTROL: Restore default settings
 27: 0x0087 [0x45] LOAD_SCHEDULED_TASK: Load scheduler "fdi1" with entities [LocalPlayer, LocalPlayer], work=[200*, 0*]
 28: 0x0098 [0x21] END_EVENT
 29: 0x0099 [0x00] END_REQSTACK()
```

### Event 140

#### Metadata

| Field        | Value     |
|--------------|-----------|
| Entrypoint   | 0x009A    |
| Data Size    | 153 bytes |
| Instructions | 30        |

```
      00 01 02 03 04 05 06 07  08 09 0A 0B 0C 0D 0E 0F
      -- -- -- -- -- -- -- --  -- -- -- -- -- -- -- --
0090:                                20 01 42 46 01 38             .BF.8
00A0: 00 80 45 01 80 F0 FF FF  7F F0 FF FF 7F 66 64 6F  ..E..........fdo
00B0: 31 02 80 1C 03 80 29 01  F0 FF FF 7F 0B 29 01 72  1.....)......).r
00C0: F1 0B 01 03 24 04 80 02  80 02 80 25 02 00 10 02  ....$......%....
00D0: 80 00 F2 00 48 05 80 2B  72 F1 0B 01 06 80 23 48  ....H..+r.....#H
00E0: 07 80 2B 72 F1 0B 01 0C  80 23 03 01 10 09 80 01  ..+r.....#......
00F0: 0A 01 02 00 10 09 80 00  0A 01 2B 72 F1 0B 01 0A  ..........+r....
0100: 80 23 03 01 10 0B 80 01  0A 01 45 01 80 F0 FF FF  .#........E.....
0110: 7F F0 FF FF 7F 66 64 6F  31 02 80 1C 03 80 46 00  .....fdo1.....F.
0120: 45 01 80 F0 FF FF 7F F0  FF FF 7F 66 64 69 31 02  E..........fdi1.
0130: 80 21 00                                          .!.             
```

#### Opcodes

```
  0: 0x009A [0x20] SET_CLI_EVENT_UC_FLAG: Lock player control
  1: 0x009C [0x42] SET_CLI_EVENT_CANCEL_DATA()
  2: 0x009D [0x46] CAMERA_CONTROL: Disable user control
  3: 0x009F [0x38] SET_CLIENT_EVENT_MODE(mode=19*)
  4: 0x00A2 [0x45] LOAD_SCHEDULED_TASK: Load scheduler "fdo1" with entities [LocalPlayer, LocalPlayer], work=[200*, 0*]
  5: 0x00B3 [0x1C] WAIT(60* ticks)
  6: 0x00B6 [0x29] REQ_SET_WAIT(priority=0x01, entity_id=LocalPlayer, tag_num=0x0B)
  7: 0x00BD [0x29] REQ_SET_WAIT(priority=0x01, entity_id=Grasswix (ID: 17559922/0x010BF172), tag_num=0x03)
  8: 0x00C4 [0x24] CREATE_DIALOG(message_id=7363*, default_option=0*, option_flags=0*)
    → "Will you play dice? [Yes./Not now.]"
  9: 0x00CB [0x25] WAIT_DIALOG_SELECT()
 10: 0x00CC [0x02] IF !(Work_Zone[0] == 0*) GOTO 0x00F2
 11: 0x00D4 [0x48] [System] [7369*]:
    → "Grasswix rolls the dice and gets a $3!"
 12: 0x00D7 [0x2B] Grasswix (ID: 17559922/0x010BF172) [7391*]:
    → "Grasswix roll. Now you!"
 13: 0x00DE [0x23] WAIT_FOR_DIALOG_INTERACTION
 14: 0x00DF [0x48] [System] [7367*]:
    → "You roll the dice and get a $2!"
 15: 0x00E2 [0x2B] Grasswix (ID: 17559922/0x010BF172) [7389*]:
    → "Dice choose winner. Dice choose me. You lose. Grasswix no play with loser."
 16: 0x00E9 [0x23] WAIT_FOR_DIALOG_INTERACTION
 17: 0x00EA [0x03] Work_Zone[1] = 1*
 18: 0x00EF [0x01] GOTO 0x010A
 19: 0x00F2 [0x02] IF !(Work_Zone[0] == 1*) GOTO 0x010A
 20: 0x00FA [0x2B] Grasswix (ID: 17559922/0x010BF172) [7387*]:
    → "You give up without throwing dice. Grasswix cannot forgive!"
 21: 0x0101 [0x23] WAIT_FOR_DIALOG_INTERACTION
 22: 0x0102 [0x03] Work_Zone[1] = 2*
 23: 0x0107 [0x01] GOTO 0x010A

SUBROUTINE_010A:
 24: 0x010A [0x45] LOAD_SCHEDULED_TASK: Load scheduler "fdo1" with entities [LocalPlayer, LocalPlayer], work=[200*, 0*]
 25: 0x011B [0x1C] WAIT(60* ticks)
 26: 0x011E [0x46] CAMERA_CONTROL: Restore default settings
 27: 0x0120 [0x45] LOAD_SCHEDULED_TASK: Load scheduler "fdi1" with entities [LocalPlayer, LocalPlayer], work=[200*, 0*]
 28: 0x0131 [0x21] END_EVENT
 29: 0x0132 [0x00] END_REQSTACK()
```
