# 17957431

## Common Data

| Field            | Value                    |
|------------------|--------------------------|
| Zone             | Escha - Zi'Tah (ID: 288) |
| Block Size       | 9572 bytes               |
| Total Events     | 4                        |
| References Count | 136                      |

## List of Events

| Event ID              | Entrypoint   |   Size |   Instructions |
|-----------------------|--------------|--------|----------------|
| [65535](#event-65535) | 0x0000       |      1 |              1 |
| [1](#event-1)         | 0x0001       |   2258 |            259 |
| [2](#event-2)         | 0x08D3       |   2158 |            240 |
| [3](#event-3)         | 0x1141       |   4576 |            512 |

## DAT References (imed_data)

|   Index | Hex Value   |   Dec Value |
|---------|-------------|-------------|
|       0 | 0x0001      |           1 |
|       1 | 0x00C8      |         200 |
|       2 | 0x0000      |           0 |
|       3 | 0x001B      |          27 |
|       4 | 0xFFFA6E67  |  4294602343 |
|       5 | 0xFFFD8F50  |  4294807376 |
|       6 | 0x002E      |          46 |
|       7 | 0x0A50      |        2640 |
|       8 | 0xFFFAB611  |  4294620689 |
|       9 | 0xFFFD41B1  |  4294787505 |
|      10 | 0x048E      |        1166 |
|      11 | 0x0AFF      |        2815 |
|      12 | 0xFFFABDD0  |  4294622672 |
|      13 | 0xFFFD46A5  |  4294788773 |
|      14 | 0x043D      |        1085 |
|      15 | 0x0ACD      |        2765 |
|      16 | 0x0002      |           2 |
|      17 | 0x02F9      |         761 |
|      18 | 0x00F7      |         247 |
|      19 | 0x1CEC      |        7404 |
|      20 | 0x010E      |         270 |
|      21 | 0x0F17      |        3863 |
|      22 | 0x1CED      |        7405 |
|      23 | 0x00F4      |         244 |
|      24 | 0x1CEE      |        7406 |
|      25 | 0x0F15      |        3861 |
|      26 | 0x1CEF      |        7407 |
|      27 | 0x1CF0      |        7408 |
|      28 | 0x1CF1      |        7409 |
|      29 | 0xFFFA6399  |  4294599577 |
|      30 | 0xFFFD8E20  |  4294807072 |
|      31 | 0x00B8      |         184 |
|      32 | 0x00E4      |         228 |
|      33 | 0x1CF2      |        7410 |
|      34 | 0x1CF3      |        7411 |
|      35 | 0x1CF4      |        7412 |
|      36 | 0x1CF5      |        7413 |
|      37 | 0x0F16      |        3862 |
|      38 | 0x008C      |         140 |
|      39 | 0x1CF6      |        7414 |
|      40 | 0x1CF7      |        7415 |
|      41 | 0x00B4      |         180 |
|      42 | 0x1CF8      |        7416 |
|      43 | 0x0078      |         120 |
|      44 | 0x1CF9      |        7417 |
|      45 | 0x0063      |          99 |
|      46 | 0x1CFA      |        7418 |
|      47 | 0x005A      |          90 |
|      48 | 0x003C      |          60 |
|      49 | 0x1CFB      |        7419 |
|      50 | 0x001E      |          30 |
|      51 | 0x1CFC      |        7420 |
|      52 | 0x1CFD      |        7421 |
|      53 | 0x1CFE      |        7422 |
|      54 | 0x1CFF      |        7423 |
|      55 | 0x1D00      |        7424 |
|      56 | 0x1D01      |        7425 |
|      57 | 0x1D02      |        7426 |
|      58 | 0x1D03      |        7427 |
|      59 | 0x1D04      |        7428 |
|      60 | 0x1D05      |        7429 |
|      61 | 0x1D06      |        7430 |
|      62 | 0x1D07      |        7431 |
|      63 | 0x0020      |          32 |
|      64 | 0x1D08      |        7432 |
|      65 | 0x1D09      |        7433 |
|      66 | 0x1D0A      |        7434 |
|      67 | 0x1D0B      |        7435 |
|      68 | 0x1D0C      |        7436 |
|      69 | 0x1D0D      |        7437 |
|      70 | 0x1D0E      |        7438 |
|      71 | 0x1D0F      |        7439 |
|      72 | 0x1D10      |        7440 |
|      73 | 0x1D11      |        7441 |
|      74 | 0xFFFA6A6B  |  4294601323 |
|      75 | 0xFFFD8884  |  4294805636 |
|      76 | 0x0061      |          97 |
|      77 | 0x0F53      |        3923 |
|      78 | 0xFFFA653A  |  4294599994 |
|      79 | 0xFFFD8A54  |  4294806100 |
|      80 | 0x00A3      |         163 |
|      81 | 0x0C5B      |        3163 |
|      82 | 0x000F      |          15 |
|      83 | 0x007C      |         124 |
|      84 | 0x000A      |          10 |
|      85 | 0x021A      |         538 |
|      86 | 0xFFFAA2AC  |  4294615724 |
|      87 | 0xFFFD7634  |  4294800948 |
|      88 | 0x0136      |         310 |
|      89 | 0x0971      |        2417 |
|      90 | 0xFFFA97E5  |  4294612965 |
|      91 | 0xFFFD78CE  |  4294801614 |
|      92 | 0x09EB      |        2539 |
|      93 | 0x0032      |          50 |
|      94 | 0x1CDF      |        7391 |
|      95 | 0x1CE0      |        7392 |
|      96 | 0x1CE1      |        7393 |
|      97 | 0xFFFA704F  |  4294602831 |
|      98 | 0xFFFD8521  |  4294804769 |
|      99 | 0x0016      |          22 |
|     100 | 0x08BE      |        2238 |
|     101 | 0xFFFA68CC  |  4294600908 |
|     102 | 0xFFFD81F6  |  4294803958 |
|     103 | 0x0075      |         117 |
|     104 | 0x0DFE      |        3582 |
|     105 | 0x1CCD      |        7373 |
|     106 | 0x1CE2      |        7394 |
|     107 | 0x005F      |          95 |
|     108 | 0x1CE3      |        7395 |
|     109 | 0x1CE4      |        7396 |
|     110 | 0x1CE5      |        7397 |
|     111 | 0x1CE6      |        7398 |
|     112 | 0x1CE9      |        7401 |
|     113 | 0x1CEA      |        7402 |
|     114 | 0x1CEB      |        7403 |
|     115 | 0x1D12      |        7442 |
|     116 | 0xFFFA7AF8  |  4294605560 |
|     117 | 0xFFFD8BC4  |  4294806468 |
|     118 | 0x07F2      |        2034 |
|     119 | 0x1D13      |        7443 |
|     120 | 0x1D14      |        7444 |
|     121 | 0x1D15      |        7445 |
|     122 | 0x1D16      |        7446 |
|     123 | 0x1D17      |        7447 |
|     124 | 0x0082      |         130 |
|     125 | 0x0096      |         150 |
|     126 | 0x1CE7      |        7399 |
|     127 | 0x1CE8      |        7400 |
|     128 | 0x1D18      |        7448 |
|     129 | 0x1D19      |        7449 |
|     130 | 0x1D1A      |        7450 |
|     131 | 0x1D1B      |        7451 |
|     132 | 0x1D1C      |        7452 |
|     133 | 0x0007      |           7 |
|     134 | 0x1D1D      |        7453 |
|     135 | 0x1D1E      |        7454 |

## String References

- **7373**: @@

## Events

### Event 65535

#### Metadata

| Field        | Value   |
|--------------|---------|
| Entrypoint   | 0x0000  |
| Data Size    | 1 bytes |
| Instructions | 1       |

```
      00 01 02 03 04 05 06 07  08 09 0A 0B 0C 0D 0E 0F
      -- -- -- -- -- -- -- --  -- -- -- -- -- -- -- --
0000: 00                                                .               
```

#### Opcodes

```
  0: 0x0000 [0x00] END_REQSTACK()
```

### Event 1

#### Metadata

| Field        | Value      |
|--------------|------------|
| Entrypoint   | 0x0001     |
| Data Size    | 2258 bytes |
| Instructions | 259        |

```
      00 01 02 03 04 05 06 07  08 09 0A 0B 0C 0D 0E 0F
      -- -- -- -- -- -- -- --  -- -- -- -- -- -- -- --
0000:    42 03 01 10 00 80 43  00 43 01 03 00 00 09 10   B.....C.C......
0010: 45 01 80 F8 FF FF 7F F8  FF FF 7F 66 64 6F 31 02  E..........fdo1.
0020: 80 55 01 80 F8 FF FF 7F  F8 FF FF 7F 66 64 6F 31  .U..........fdo1
0030: 46 01 38 03 80 2F 00 3A  02 12 01 2F 00 38 02 12  F.8../.:.../.8..
0040: 01 4E 00 3A 02 12 01 4E  00 38 02 12 01 4E 00 F0  .N.:...N.8...N..
0050: FF FF 7F 92 01 3A 02 12  01 92 01 38 02 12 01 94  .....:.....8....
0060: 01 3A 02 12 01 94 01 38  02 12 01 94 01 F0 FF FF  .:.....8........
0070: 7F BA 3A 02 12 01 04 80  05 80 06 80 07 80 BA F0  ..:.............
0080: FF FF 7F 08 80 09 80 0A  80 0B 80 BA 38 02 12 01  ............8...
0090: 0C 80 0D 80 0E 80 0F 80  80 3A 02 12 01 80 38 02  .........:....8.
00A0: 12 01 80 F0 FF FF 7F 02  00 00 02 80 80 B5 00 1A  ................
00B0: 32 19 01 D1 00 02 00 00  00 80 80 C3 00 1A 32 19  2.............2.
00C0: 01 D1 00 02 00 00 10 80  80 D1 00 1A 0D 1F 01 D1  ................
00D0: 00 45 11 80 F8 FF FF 7F  F8 FF FF 7F 73 31 36 33  .E..........s163
00E0: 02 80 5B 12 80 3A 02 12  01 3A 02 12 01 6B 79 72  ..[..:...:...kyr
00F0: 30 2B 3A 02 12 01 13 80  1C 14 80 23 52 11 80 F8  0+:........#R...
0100: FF FF 7F F8 FF FF 7F 73  31 36 33 45 11 80 F8 FF  .......s163E....
0110: FF 7F F8 FF FF 7F 73 31  36 34 02 80 79 00 39 02  ......s164..y.9.
0120: 12 01 38 02 12 01 5B 15  80 38 02 12 01 38 02 12  ..8...[..8...8..
0130: 01 74 6C 63 30 2B 38 02  12 01 16 80 23 5B 15 80  .tlc0+8.....#[..
0140: 38 02 12 01 38 02 12 01  74 6C 63 31 52 11 80 F8  8...8...tlc1R...
0150: FF FF 7F F8 FF FF 7F 73  31 36 34 45 11 80 F8 FF  .......s164E....
0160: FF 7F F8 FF FF 7F 73 31  36 35 02 80 5B 17 80 3A  ......s165..[..:
0170: 02 12 01 3A 02 12 01 74  6B 62 30 2B 3A 02 12 01  ...:...tkb0+:...
0180: 18 80 23 5B 17 80 3A 02  12 01 3A 02 12 01 74 6B  ..#[..:...:...tk
0190: 62 31 52 11 80 F8 FF FF  7F F8 FF FF 7F 73 31 36  b1R..........s16
01A0: 35 45 11 80 F8 FF FF 7F  F8 FF FF 7F 73 31 36 36  5E..........s166
01B0: 02 80 5B 19 80 38 02 12  01 38 02 12 01 74 6C 6B  ..[..8...8...tlk
01C0: 30 2B 38 02 12 01 1A 80  23 52 11 80 F8 FF FF 7F  0+8.....#R......
01D0: F8 FF FF 7F 73 31 36 36  45 11 80 F8 FF FF 7F F8  ....s166E.......
01E0: FF FF 7F 73 31 36 37 02  80 2B 38 02 12 01 1B 80  ...s167..+8.....
01F0: 23 2B 38 02 12 01 1C 80  23 BA 39 02 12 01 1D 80  #+8.....#.9.....
0200: 1E 80 1F 80 20 80 80 39  02 12 01 02 00 00 00 80  .... ..9........
0210: 04 1E 02 2B 38 02 12 01  21 80 23 01 26 02 2B 38  ...+8...!.#.&.+8
0220: 02 12 01 22 80 23 5B 19  80 38 02 12 01 38 02 12  ...".#[..8...8..
0230: 01 74 6C 6B 31 52 11 80  F8 FF FF 7F F8 FF FF 7F  .tlk1R..........
0240: 73 31 36 37 45 11 80 F8  FF FF 7F F8 FF FF 7F 73  s167E..........s
0250: 31 36 38 02 80 5B 17 80  3A 02 12 01 3A 02 12 01  168..[..:...:...
0260: 74 6B 62 30 2B 3A 02 12  01 23 80 23 2B 3A 02 12  tkb0+:...#.#+:..
0270: 01 24 80 23 5B 17 80 3A  02 12 01 3A 02 12 01 74  .$.#[..:...:...t
0280: 6B 62 31 81 00 38 02 12  01 5F 05 25 80 38 02 12  kb1..8..._.%.8..
0290: 01 38 02 12 01 6E 6F 6E  30 26 80 2B 38 02 12 01  .8...non0&.+8...
02A0: 27 80 23 52 11 80 F8 FF  FF 7F F8 FF FF 7F 73 31  '.#R..........s1
02B0: 36 38 45 11 80 F8 FF FF  7F F8 FF FF 7F 73 31 36  68E..........s16
02C0: 39 02 80 2B 38 02 12 01  28 80 23 5F 07 38 02 12  9..+8...(.#_.8..
02D0: 01 38 02 12 01 6E 6F 6E  30 81 01 38 02 12 01 52  .8...non0..8...R
02E0: 11 80 F8 FF FF 7F F8 FF  FF 7F 73 31 36 39 45 11  ..........s169E.
02F0: 80 F8 FF FF 7F F8 FF FF  7F 73 31 37 30 02 80 45  .........s170..E
0300: 11 80 F8 FF FF 7F F8 FF  FF 7F 31 31 37 61 02 80  ..........117a..
0310: 1C 29 80 52 11 80 F8 FF  FF 7F F8 FF FF 7F 73 31  .).R..........s1
0320: 37 30 45 11 80 F8 FF FF  7F F8 FF FF 7F 73 31 37  70E..........s17
0330: 31 02 80 5B 12 80 3A 02  12 01 3A 02 12 01 6B 79  1..[..:...:...ky
0340: 72 30 2B 3A 02 12 01 2A  80 1C 2B 80 81 00 38 02  r0+:...*..+...8.
0350: 12 01 7C 00 38 02 12 01  5B 25 80 38 02 12 01 38  ..|.8...[%.8...8
0360: 02 12 01 74 68 6B 30 2B  38 02 12 01 2C 80 23 81  ...thk0+8...,.#.
0370: 01 38 02 12 01 7C 01 38  02 12 01 5B 25 80 38 02  .8...|.8...[%.8.
0380: 12 01 38 02 12 01 74 68  6B 31 03 03 10 02 80 52  ..8...thk1.....R
0390: 11 80 F8 FF FF 7F F8 FF  FF 7F 73 31 37 31 02 00  ..........s171..
03A0: 00 10 80 01 1B 04 45 11  80 F8 FF FF 7F F8 FF FF  ......E.........
03B0: 7F 73 31 37 32 02 80 81  00 39 02 12 01 5B 2D 80  .s172....9...[-.
03C0: 39 02 12 01 39 02 12 01  68 69 7A 30 7B 39 02 12  9...9...hiz0{9..
03D0: 01 2B 39 02 12 01 2E 80  1C 2B 80 52 11 80 F8 FF  .+9......+.R....
03E0: FF 7F F8 FF FF 7F 73 31  37 32 45 11 80 F8 FF FF  ......s172E.....
03F0: 7F F8 FF FF 7F 73 31 37  33 02 80 4A 38 02 12 01  .....s173..J8...
0400: 39 02 12 01 1C 2F 80 03  03 10 00 80 52 11 80 F8  9..../......R...
0410: FF FF 7F F8 FF FF 7F 73  31 37 33 45 11 80 F8 FF  .......s173E....
0420: FF 7F F8 FF FF 7F 73 31  37 34 02 80 27 05 3A 02  ......s174..'.:.
0430: 12 01 04 7B 3A 02 12 01  1C 30 80 2B 3A 02 12 01  ...{:....0.+:...
0440: 31 80 1C 32 80 52 11 80  F8 FF FF 7F F8 FF FF 7F  1..2.R..........
0450: 73 31 37 34 45 11 80 F8  FF FF 7F F8 FF FF 7F 73  s174E..........s
0460: 31 37 35 02 80 27 05 38  02 12 01 07 2B 38 02 12  175..'.8....+8..
0470: 01 33 80 23 2A 05 38 02  12 01 2A 05 3A 02 12 01  .3.#*.8...*.:...
0480: 45 11 80 F8 FF FF 7F F8  FF FF 7F 31 31 37 6B 02  E..........117k.
0490: 80 52 11 80 F8 FF FF 7F  F8 FF FF 7F 73 31 37 35  .R..........s175
04A0: 45 11 80 F8 FF FF 7F F8  FF FF 7F 73 31 37 36 02  E..........s176.
04B0: 80 4A 3A 02 12 01 38 02  12 01 1C 32 80 5B 12 80  .J:...8....2.[..
04C0: 3A 02 12 01 3A 02 12 01  6B 79 72 30 2B 3A 02 12  :...:...kyr0+:..
04D0: 01 34 80 1C 30 80 81 00  39 02 12 01 5B 2D 80 39  .4..0...9...[-.9
04E0: 02 12 01 39 02 12 01 6B  61 6B 6C 1C 30 80 23 52  ...9...kakl.0.#R
04F0: 11 80 F8 FF FF 7F F8 FF  FF 7F 73 31 37 36 45 11  ..........s176E.
0500: 80 F8 FF FF 7F F8 FF FF  7F 73 31 37 37 02 80 5B  .........s177..[
0510: 19 80 38 02 12 01 38 02  12 01 74 6C 61 30 2B 38  ..8...8...tla0+8
0520: 02 12 01 35 80 23 5B 19  80 38 02 12 01 38 02 12  ...5.#[..8...8..
0530: 01 74 6C 61 31 02 00 00  10 80 01 45 05 2B 39 02  .tla1......E.+9.
0540: 12 01 36 80 23 52 11 80  F8 FF FF 7F F8 FF FF 7F  ..6.#R..........
0550: 73 31 37 37 45 11 80 F8  FF FF 7F F8 FF FF 7F 73  s177E..........s
0560: 31 37 38 02 80 27 05 38  02 12 01 08 2B 38 02 12  178..'.8....+8..
0570: 01 37 80 23 2A 05 38 02  12 01 52 11 80 F8 FF FF  .7.#*.8...R.....
0580: 7F F8 FF FF 7F 73 31 37  38 45 11 80 F8 FF FF 7F  .....s178E......
0590: F8 FF FF 7F 73 31 37 39  02 80 4A 38 02 12 01 F0  ....s179..J8....
05A0: FF FF 7F 1C 32 80 6B 69  64 6C 30 39 02 12 01 4A  ....2.kidl09...J
05B0: F0 FF FF 7F 38 02 12 01  5B 19 80 38 02 12 01 38  ....8...[..8...8
05C0: 02 12 01 74 6C 6B 30 2B  38 02 12 01 38 80 23 2B  ...tlk0+8...8.#+
05D0: 38 02 12 01 39 80 23 52  11 80 F8 FF FF 7F F8 FF  8...9.#R........
05E0: FF 7F 73 31 37 39 45 11  80 F8 FF FF 7F F8 FF FF  ..s179E.........
05F0: 7F 73 31 38 30 02 80 2B  38 02 12 01 3A 80 23 2B  .s180..+8...:.#+
0600: 38 02 12 01 3B 80 23 2B  38 02 12 01 3C 80 23 52  8...;.#+8...<.#R
0610: 11 80 F8 FF FF 7F F8 FF  FF 7F 73 31 38 30 45 11  ..........s180E.
0620: 80 F8 FF FF 7F F8 FF FF  7F 73 31 38 31 02 80 2B  .........s181..+
0630: 38 02 12 01 3D 80 23 2B  38 02 12 01 3E 80 23 5B  8...=.#+8...>.#[
0640: 19 80 38 02 12 01 38 02  12 01 74 6C 6B 31 6E F0  ..8...8...tlk1n.
0650: FF FF 7F 3F 80 99 F0 FF  FF 7F 1C 2F 80 52 11 80  ...?......./.R..
0660: F8 FF FF 7F F8 FF FF 7F  73 31 38 31 45 11 80 F8  ........s181E...
0670: FF FF 7F F8 FF FF 7F 73  31 38 32 02 80 5B 17 80  .......s182..[..
0680: 3A 02 12 01 3A 02 12 01  74 6B 62 30 2B 3A 02 12  :...:...tkb0+:..
0690: 01 40 80 23 5B 17 80 3A  02 12 01 3A 02 12 01 74  .@.#[..:...:...t
06A0: 6B 62 31 4A 38 02 12 01  3A 02 12 01 1C 32 80 52  kb1J8...:....2.R
06B0: 11 80 F8 FF FF 7F F8 FF  FF 7F 73 31 38 32 45 11  ..........s182E.
06C0: 80 F8 FF FF 7F F8 FF FF  7F 73 31 38 33 02 80 5F  .........s183.._
06D0: 05 25 80 38 02 12 01 38  02 12 01 79 65 73 30 26  .%.8...8...yes0&
06E0: 80 2B 38 02 12 01 41 80  23 2B 38 02 12 01 42 80  .+8...A.#+8...B.
06F0: 23 5F 07 38 02 12 01 38  02 12 01 79 65 73 30 52  #_.8...8...yes0R
0700: 11 80 F8 FF FF 7F F8 FF  FF 7F 73 31 38 33 45 11  ..........s183E.
0710: 80 F8 FF FF 7F F8 FF FF  7F 73 31 38 34 02 80 5B  .........s184..[
0720: 19 80 38 02 12 01 38 02  12 01 74 6C 62 30 2B 38  ..8...8...tlb0+8
0730: 02 12 01 43 80 23 5B 19  80 38 02 12 01 38 02 12  ...C.#[..8...8..
0740: 01 74 6C 62 31 52 11 80  F8 FF FF 7F F8 FF FF 7F  .tlb1R..........
0750: 73 31 38 34 45 11 80 F8  FF FF 7F F8 FF FF 7F 73  s184E..........s
0760: 31 38 36 02 80 2B 3A 02  12 01 44 80 23 52 11 80  186..+:...D.#R..
0770: F8 FF FF 7F F8 FF FF 7F  73 31 38 36 45 11 80 F8  ........s186E...
0780: FF FF 7F F8 FF FF 7F 73  31 38 35 02 80 5B 17 80  .......s185..[..
0790: 3A 02 12 01 3A 02 12 01  74 6B 62 30 2B 3A 02 12  :...:...tkb0+:..
07A0: 01 45 80 23 5B 17 80 3A  02 12 01 3A 02 12 01 74  .E.#[..:...:...t
07B0: 6B 62 31 5B 25 80 38 02  12 01 38 02 12 01 6E 6F  kb1[%.8...8...no
07C0: 6E 30 2B 38 02 12 01 46  80 1C 26 80 23 52 11 80  n0+8...F..&.#R..
07D0: F8 FF FF 7F F8 FF FF 7F  73 31 38 35 45 11 80 F8  ........s185E...
07E0: FF FF 7F F8 FF FF 7F 73  31 38 37 02 80 5B 17 80  .......s187..[..
07F0: 3A 02 12 01 3A 02 12 01  75 64 65 30 2B 3A 02 12  :...:...ude0+:..
0800: 01 47 80 23 2B 3A 02 12  01 48 80 23 52 11 80 F8  .G.#+:...H.#R...
0810: FF FF 7F F8 FF FF 7F 73  31 38 37 45 11 80 F8 FF  .......s187E....
0820: FF 7F F8 FF FF 7F 73 31  38 38 02 80 5B 25 80 38  ......s188..[%.8
0830: 02 12 01 38 02 12 01 79  65 73 30 2B 38 02 12 01  ...8...yes0+8...
0840: 49 80 1C 30 80 BA 39 02  12 01 4A 80 4B 80 4C 80  I..0..9...J.K.L.
0850: 4D 80 1C 30 80 23 52 11  80 F8 FF FF 7F F8 FF FF  M..0.#R.........
0860: 7F 73 31 38 38 02 00 00  02 80 80 73 08 1A 3F 1D  .s188......s..?.
0870: 01 8F 08 02 00 00 00 80  80 81 08 1A 3F 1D 01 8F  ............?...
0880: 08 02 00 00 10 80 80 8F  08 1A 69 21 01 8F 08 45  ..........i!...E
0890: 01 80 F8 FF FF 7F F8 FF  FF 7F 66 64 6F 31 02 80  ..........fdo1..
08A0: 55 01 80 F8 FF FF 7F F8  FF FF 7F 66 64 6F 31 52  U..........fdo1R
08B0: 11 80 F8 FF FF 7F F8 FF  FF 7F 73 31 39 35 46 00  ..........s195F.
08C0: 45 01 80 F8 FF FF 7F F8  FF FF 7F 66 64 69 32 02  E..........fdi2.
08D0: 80 21 00                                          .!.             
```

#### Opcodes

```
  0: 0x0001 [0x42] SET_CLI_EVENT_CANCEL_DATA()
  1: 0x0002 [0x03] Work_Zone[1] = 1*
  2: 0x0007 [0x43] SEND_EVENT_UPDATE: Send pending tag to server (packet 0x005B)
  3: 0x0009 [0x43] SEND_EVENT_UPDATE: Check pending flag (skip if not pending)
  4: 0x000B [0x03] ExtData[1]->WorkLocal[0] = Work_Zone[9]
  5: 0x0010 [0x45] LOAD_SCHEDULED_TASK: Load scheduler "fdo1" with entities [EventEntity, EventEntity], work=[200*, 0*]
  6: 0x0021 [0x55] WAIT_LOAD_SCHEDULER: Wait for scheduler "fdo1" with entities [EventEntity, EventEntity], work=200*
  7: 0x0030 [0x46] CAMERA_CONTROL: Disable user control
  8: 0x0032 [0x38] SET_CLIENT_EVENT_MODE(mode=27*)
  9: 0x0035 [0x2F] Zeid (ID: 17957434/0x0112023A)->Render.Flags0 &= ~0x80000 // Bit 19
 10: 0x003B [0x2F] Iroha (ID: 17957432/0x01120238)->Render.Flags0 &= ~0x80000 // Bit 19
 11: 0x0041 [0x4E] SET_ENTITY_HIDE_FLAG: Show Zeid (ID: 17957434/0x0112023A)
 12: 0x0047 [0x4E] SET_ENTITY_HIDE_FLAG: Show Iroha (ID: 17957432/0x01120238)
 13: 0x004D [0x4E] SET_ENTITY_HIDE_FLAG: Show LocalPlayer
 14: 0x0053 [0x92] Zeid (ID: 17957434/0x0112023A)->Render.Flags3 ^= 0x01
 15: 0x0059 [0x92] Iroha (ID: 17957432/0x01120238)->Render.Flags3 ^= 0x01
 16: 0x005F [0x94] Zeid (ID: 17957434/0x0112023A)->Render.Flags3 ^= 0x01
 17: 0x0065 [0x94] Iroha (ID: 17957432/0x01120238)->Render.Flags3 ^= 0x01
 18: 0x006B [0x94] LocalPlayer->Render.Flags3 ^= 0x01
 19: 0x0071 [0xBA] SET_ENTITY_POSITION(entity_id=Zeid (ID: 17957434/0x0112023A), pos_x=-364.953*, pos_z=-159.920*, pos_y=0.046*, direction=232.0°*)
 20: 0x007E [0xBA] SET_ENTITY_POSITION(entity_id=LocalPlayer, pos_x=-346.607*, pos_z=-179.791*, pos_y=1.166*, direction=247.4°*)
 21: 0x008B [0xBA] SET_ENTITY_POSITION(entity_id=Iroha (ID: 17957432/0x01120238), pos_x=-344.624*, pos_z=-178.523*, pos_y=1.085*, direction=243.0°*)
 22: 0x0098 [0x80] LOAD_WAIT(entity=Zeid (ID: 17957434/0x0112023A))
 23: 0x009D [0x80] LOAD_WAIT(entity=Iroha (ID: 17957432/0x01120238))
 24: 0x00A2 [0x80] LOAD_WAIT(entity=LocalPlayer)
 25: 0x00A7 [0x02] IF !(ExtData[1]->WorkLocal[0] == 0*) GOTO 0x00B5
 26: 0x00AF [0x1A] CALL_SUBROUTINE(address=0x1932)
 27: 0x00B2 [0x01] GOTO 0x00D1
 28: 0x00B5 [0x02] IF !(ExtData[1]->WorkLocal[0] == 1*) GOTO 0x00C3
 29: 0x00BD [0x1A] CALL_SUBROUTINE(address=0x1932)
 30: 0x00C0 [0x01] GOTO 0x00D1
 31: 0x00C3 [0x02] IF !(ExtData[1]->WorkLocal[0] == 2*) GOTO 0x00D1
 32: 0x00CB [0x1A] CALL_SUBROUTINE(address=0x1F0D)
 33: 0x00CE [0x01] GOTO 0x00D1

SUBROUTINE_00D1:
 34: 0x00D1 [0x45] LOAD_SCHEDULED_TASK: Load scheduler "s163" with entities [EventEntity, EventEntity], work=[761*, 0*]
 35: 0x00E2 [0x5B] LOAD_EXT_SCHEDULER: Load scheduler "kyr0" with entities [Zeid (ID: 17957434/0x0112023A), Zeid (ID: 17957434/0x0112023A)], work=247*
 36: 0x00F1 [0x2B] Zeid (ID: 17957434/0x0112023A) [7404*]:
    → "The only color here is the color of death."
 37: 0x00F8 [0x1C] WAIT(270* ticks)
 38: 0x00FB [0x23] WAIT_FOR_DIALOG_INTERACTION
 39: 0x00FC [0x52] END_LOAD_SCHEDULER: End scheduler "s163" with entities [EventEntity, EventEntity], work=761*
 40: 0x010B [0x45] LOAD_SCHEDULED_TASK: Load scheduler "s164" with entities [EventEntity, EventEntity], work=[761*, 0*]
 41: 0x011C [0x79] Lion (ID: 17957433/0x01120239) looks at Iroha (ID: 17957432/0x01120238) (Basic look)
 42: 0x0126 [0x5B] LOAD_EXT_SCHEDULER: Load scheduler "tlc0" with entities [Iroha (ID: 17957432/0x01120238), Iroha (ID: 17957432/0x01120238)], work=3863*
 43: 0x0135 [0x2B] Iroha (ID: 17957432/0x01120238) [7405*]:
    → "This empty husk is void of anything that we could call nature."
 44: 0x013C [0x23] WAIT_FOR_DIALOG_INTERACTION
 45: 0x013D [0x5B] LOAD_EXT_SCHEDULER: Load scheduler "tlc1" with entities [Iroha (ID: 17957432/0x01120238), Iroha (ID: 17957432/0x01120238)], work=3863*
 46: 0x014C [0x52] END_LOAD_SCHEDULER: End scheduler "s164" with entities [EventEntity, EventEntity], work=761*
 47: 0x015B [0x45] LOAD_SCHEDULED_TASK: Load scheduler "s165" with entities [EventEntity, EventEntity], work=[761*, 0*]
 48: 0x016C [0x5B] LOAD_EXT_SCHEDULER: Load scheduler "tkb0" with entities [Zeid (ID: 17957434/0x0112023A), Zeid (ID: 17957434/0x0112023A)], work=244*
 49: 0x017B [0x2B] Zeid (ID: 17957434/0x0112023A) [7406*]:
    → "The first thing I noticed about this place is its striking resemblance to the Sanctuary of Zi'Tah, located in northeastern Mindartia."
 50: 0x0182 [0x23] WAIT_FOR_DIALOG_INTERACTION
 51: 0x0183 [0x5B] LOAD_EXT_SCHEDULER: Load scheduler "tkb1" with entities [Zeid (ID: 17957434/0x0112023A), Zeid (ID: 17957434/0x0112023A)], work=244*
 52: 0x0192 [0x52] END_LOAD_SCHEDULER: End scheduler "s165" with entities [EventEntity, EventEntity], work=761*
 53: 0x01A1 [0x45] LOAD_SCHEDULED_TASK: Load scheduler "s166" with entities [EventEntity, EventEntity], work=[761*, 0*]
 54: 0x01B2 [0x5B] LOAD_EXT_SCHEDULER: Load scheduler "tlk0" with entities [Iroha (ID: 17957432/0x01120238), Iroha (ID: 17957432/0x01120238)], work=3861*
 55: 0x01C1 [0x2B] Iroha (ID: 17957432/0x01120238) [7407*]:
    → "Zi'Tah...yes, I have run across that name several times before."
 56: 0x01C8 [0x23] WAIT_FOR_DIALOG_INTERACTION
 57: 0x01C9 [0x52] END_LOAD_SCHEDULER: End scheduler "s166" with entities [EventEntity, EventEntity], work=761*
 58: 0x01D8 [0x45] LOAD_SCHEDULED_TASK: Load scheduler "s167" with entities [EventEntity, EventEntity], work=[761*, 0*]
 59: 0x01E9 [0x2B] Iroha (ID: 17957432/0x01120238) [7408*]:
    → "Yes, it was when the master first visited Reisenjima."
 60: 0x01F0 [0x23] WAIT_FOR_DIALOG_INTERACTION
 61: 0x01F1 [0x2B] Iroha (ID: 17957432/0x01120238) [7409*]:
    → "[He/She] said there was a sanctuary there, much like one in my homeland."
 62: 0x01F8 [0x23] WAIT_FOR_DIALOG_INTERACTION
 63: 0x01F9 [0xBA] SET_ENTITY_POSITION(entity_id=Lion (ID: 17957433/0x01120239), pos_x=-367.719*, pos_z=-160.224*, pos_y=0.184*, direction=20.0°*)
 64: 0x0206 [0x80] LOAD_WAIT(entity=Lion (ID: 17957433/0x01120239))
 65: 0x020B [0x02] IF !(ExtData[1]->WorkLocal[0] < 1*) GOTO 0x021E
 66: 0x0213 [0x2B] Iroha (ID: 17957432/0x01120238) [7410*]:
    → "Those chosen by the mothercrystal may enter a holy shrine deep within the Sanctuary to receive the protection of the Dawnmaidens."
 67: 0x021A [0x23] WAIT_FOR_DIALOG_INTERACTION
 68: 0x021B [0x01] GOTO 0x0226
 69: 0x021E [0x2B] Iroha (ID: 17957432/0x01120238) [7411*]:
    → "I had envisioned it to be more bursting with splendor..."
 70: 0x0225 [0x23] WAIT_FOR_DIALOG_INTERACTION

SUBROUTINE_0226:
 71: 0x0226 [0x5B] LOAD_EXT_SCHEDULER: Load scheduler "tlk1" with entities [Iroha (ID: 17957432/0x01120238), Iroha (ID: 17957432/0x01120238)], work=3861*
 72: 0x0235 [0x52] END_LOAD_SCHEDULER: End scheduler "s167" with entities [EventEntity, EventEntity], work=761*
 73: 0x0244 [0x45] LOAD_SCHEDULED_TASK: Load scheduler "s168" with entities [EventEntity, EventEntity], work=[761*, 0*]
 74: 0x0255 [0x5B] LOAD_EXT_SCHEDULER: Load scheduler "tkb0" with entities [Zeid (ID: 17957434/0x0112023A), Zeid (ID: 17957434/0x0112023A)], work=244*
 75: 0x0264 [0x2B] Zeid (ID: 17957434/0x0112023A) [7412*]:
    → "Its layout and features resemble Zi'Tah, of that there can be no doubt. Yet the magic and warmth are gone, like we are in a different world entirely."
 76: 0x026B [0x23] WAIT_FOR_DIALOG_INTERACTION
 77: 0x026C [0x2B] Zeid (ID: 17957434/0x0112023A) [7413*]:
    → "...Or is this the future?"
 78: 0x0273 [0x23] WAIT_FOR_DIALOG_INTERACTION
 79: 0x0274 [0x5B] LOAD_EXT_SCHEDULER: Load scheduler "tkb1" with entities [Zeid (ID: 17957434/0x0112023A), Zeid (ID: 17957434/0x0112023A)], work=244*
 80: 0x0283 [0x81] SET_ENTITY_BLINKING(blink_flag=0x00, entity=Iroha (ID: 17957432/0x01120238))
 81: 0x0289 [0x5F] MULTI_HANDLER_COMPLEX(mode=0x05 - Load ext scheduler with flag (OpCode 0x5B mode 0, flag 1), ref=3862*, entity1=Iroha (ID: 17957432/0x01120238), entity2=Iroha (ID: 17957432/0x01120238), string="non0", extra=140*)
 82: 0x029B [0x2B] Iroha (ID: 17957432/0x01120238) [7414*]:
    → "I do not believe so."
 83: 0x02A2 [0x23] WAIT_FOR_DIALOG_INTERACTION
 84: 0x02A3 [0x52] END_LOAD_SCHEDULER: End scheduler "s168" with entities [EventEntity, EventEntity], work=761*
 85: 0x02B2 [0x45] LOAD_SCHEDULED_TASK: Load scheduler "s169" with entities [EventEntity, EventEntity], work=[761*, 0*]
 86: 0x02C3 [0x2B] Iroha (ID: 17957432/0x01120238) [7415*]:
    → "If the coming Emptiness is to swallow the world, then I would be more inclined to believe that we are catching a glimpse of what that swallowed world would be like."
 87: 0x02CA [0x23] WAIT_FOR_DIALOG_INTERACTION
 88: 0x02CB [0x5F] MULTI_HANDLER_COMPLEX(mode=0x07 - Wait scheduler task (OpCode 0x53))
 89: 0x02D9 [0x81] SET_ENTITY_BLINKING(blink_flag=0x01, entity=Iroha (ID: 17957432/0x01120238))
 90: 0x02DF [0x52] END_LOAD_SCHEDULER: End scheduler "s169" with entities [EventEntity, EventEntity], work=761*
 91: 0x02EE [0x45] LOAD_SCHEDULED_TASK: Load scheduler "s170" with entities [EventEntity, EventEntity], work=[761*, 0*]
 92: 0x02FF [0x45] LOAD_SCHEDULED_TASK: Load scheduler "117a" with entities [EventEntity, EventEntity], work=[761*, 0*]
 93: 0x0310 [0x1C] WAIT(180* ticks)
 94: 0x0313 [0x52] END_LOAD_SCHEDULER: End scheduler "s170" with entities [EventEntity, EventEntity], work=761*
 95: 0x0322 [0x45] LOAD_SCHEDULED_TASK: Load scheduler "s171" with entities [EventEntity, EventEntity], work=[761*, 0*]
 96: 0x0333 [0x5B] LOAD_EXT_SCHEDULER: Load scheduler "kyr0" with entities [Zeid (ID: 17957434/0x0112023A), Zeid (ID: 17957434/0x0112023A)], work=247*
 97: 0x0342 [0x2B] Zeid (ID: 17957434/0x0112023A) [7416*]:
    → "Did you hear that?"
 98: 0x0349 [0x1C] WAIT(120* ticks)
 99: 0x034C [0x81] SET_ENTITY_BLINKING(blink_flag=0x00, entity=Iroha (ID: 17957432/0x01120238))
100: 0x0352 [0x7C] Iroha (ID: 17957432/0x01120238)->Render.Flags2 |= 0x00
101: 0x0358 [0x5B] LOAD_EXT_SCHEDULER: Load scheduler "thk0" with entities [Iroha (ID: 17957432/0x01120238), Iroha (ID: 17957432/0x01120238)], work=3862*
102: 0x0367 [0x2B] Iroha (ID: 17957432/0x01120238) [7417*]:
    → "A...bell? But where...?"
103: 0x036E [0x23] WAIT_FOR_DIALOG_INTERACTION
104: 0x036F [0x81] SET_ENTITY_BLINKING(blink_flag=0x01, entity=Iroha (ID: 17957432/0x01120238))
105: 0x0375 [0x7C] Iroha (ID: 17957432/0x01120238)->Render.Flags2 |= 0x01
106: 0x037B [0x5B] LOAD_EXT_SCHEDULER: Load scheduler "thk1" with entities [Iroha (ID: 17957432/0x01120238), Iroha (ID: 17957432/0x01120238)], work=3862*
107: 0x038A [0x03] Work_Zone[3] = 0*
108: 0x038F [0x52] END_LOAD_SCHEDULER: End scheduler "s171" with entities [EventEntity, EventEntity], work=761*
109: 0x039E [0x02] IF !(ExtData[1]->WorkLocal[0] == 2*) GOTO 0x041B
110: 0x03A6 [0x45] LOAD_SCHEDULED_TASK: Load scheduler "s172" with entities [EventEntity, EventEntity], work=[761*, 0*]
111: 0x03B7 [0x81] SET_ENTITY_BLINKING(blink_flag=0x00, entity=Lion (ID: 17957433/0x01120239))
112: 0x03BD [0x5B] LOAD_EXT_SCHEDULER: Load scheduler "hiz0" with entities [Lion (ID: 17957433/0x01120239), Lion (ID: 17957433/0x01120239)], work=99*
113: 0x03CC [0x7B] Lion (ID: 17957433/0x01120239) stops talking
114: 0x03D1 [0x2B] Lion (ID: 17957433/0x01120239) [7418*]:
    → "Urk..."
115: 0x03D8 [0x1C] WAIT(120* ticks)
116: 0x03DB [0x52] END_LOAD_SCHEDULER: End scheduler "s172" with entities [EventEntity, EventEntity], work=761*
117: 0x03EA [0x45] LOAD_SCHEDULED_TASK: Load scheduler "s173" with entities [EventEntity, EventEntity], work=[761*, 0*]
118: 0x03FB [0x4A] Iroha (ID: 17957432/0x01120238) looks at Lion (ID: 17957433/0x01120239)
119: 0x0404 [0x1C] WAIT(90* ticks)
120: 0x0407 [0x03] Work_Zone[3] = 1*
121: 0x040C [0x52] END_LOAD_SCHEDULER: End scheduler "s173" with entities [EventEntity, EventEntity], work=761*
122: 0x041B [0x45] LOAD_SCHEDULED_TASK: Load scheduler "s174" with entities [EventEntity, EventEntity], work=[761*, 0*]
123: 0x042C [0x27] REQ_SET(priority=0x05, entity_id=Zeid (ID: 17957434/0x0112023A), tag_num=0x04)
124: 0x0433 [0x7B] Zeid (ID: 17957434/0x0112023A) stops talking
125: 0x0438 [0x1C] WAIT(60* ticks)
126: 0x043B [0x2B] Zeid (ID: 17957434/0x0112023A) [7419*]:
    → "Who goes there?"
127: 0x0442 [0x1C] WAIT(30* ticks)
128: 0x0445 [0x52] END_LOAD_SCHEDULER: End scheduler "s174" with entities [EventEntity, EventEntity], work=761*
129: 0x0454 [0x45] LOAD_SCHEDULED_TASK: Load scheduler "s175" with entities [EventEntity, EventEntity], work=[761*, 0*]
130: 0x0465 [0x27] REQ_SET(priority=0x05, entity_id=Iroha (ID: 17957432/0x01120238), tag_num=0x07)
131: 0x046C [0x2B] Iroha (ID: 17957432/0x01120238) [7420*]:
    → "Zeid[/, Lion]! Please, stay with us!"
132: 0x0473 [0x23] WAIT_FOR_DIALOG_INTERACTION
133: 0x0474 [0x2A] GET_REQ_LEVEL(level=5, entity_id=Iroha (ID: 17957432/0x01120238))
134: 0x047A [0x2A] GET_REQ_LEVEL(level=5, entity_id=Zeid (ID: 17957434/0x0112023A))
135: 0x0480 [0x45] LOAD_SCHEDULED_TASK: Load scheduler "117k" with entities [EventEntity, EventEntity], work=[761*, 0*]
136: 0x0491 [0x52] END_LOAD_SCHEDULER: End scheduler "s175" with entities [EventEntity, EventEntity], work=761*
137: 0x04A0 [0x45] LOAD_SCHEDULED_TASK: Load scheduler "s176" with entities [EventEntity, EventEntity], work=[761*, 0*]
138: 0x04B1 [0x4A] Zeid (ID: 17957434/0x0112023A) looks at Iroha (ID: 17957432/0x01120238)
139: 0x04BA [0x1C] WAIT(30* ticks)
140: 0x04BD [0x5B] LOAD_EXT_SCHEDULER: Load scheduler "kyr0" with entities [Zeid (ID: 17957434/0x0112023A), Zeid (ID: 17957434/0x0112023A)], work=247*
141: 0x04CC [0x2B] Zeid (ID: 17957434/0x0112023A) [7421*]:
    → "Something foul is afoot. The world blurred and I took leave of myself."
142: 0x04D3 [0x1C] WAIT(60* ticks)
143: 0x04D6 [0x81] SET_ENTITY_BLINKING(blink_flag=0x00, entity=Lion (ID: 17957433/0x01120239))
144: 0x04DC [0x5B] LOAD_EXT_SCHEDULER: Load scheduler "kakl" with entities [Lion (ID: 17957433/0x01120239), Lion (ID: 17957433/0x01120239)], work=99*
145: 0x04EB [0x1C] WAIT(60* ticks)
146: 0x04EE [0x23] WAIT_FOR_DIALOG_INTERACTION
147: 0x04EF [0x52] END_LOAD_SCHEDULER: End scheduler "s176" with entities [EventEntity, EventEntity], work=761*
148: 0x04FE [0x45] LOAD_SCHEDULED_TASK: Load scheduler "s177" with entities [EventEntity, EventEntity], work=[761*, 0*]
149: 0x050F [0x5B] LOAD_EXT_SCHEDULER: Load scheduler "tla0" with entities [Iroha (ID: 17957432/0x01120238), Iroha (ID: 17957432/0x01120238)], work=3861*
150: 0x051E [0x2B] Iroha (ID: 17957432/0x01120238) [7422*]:
    → "You were under its thrall."
151: 0x0525 [0x23] WAIT_FOR_DIALOG_INTERACTION
152: 0x0526 [0x5B] LOAD_EXT_SCHEDULER: Load scheduler "tla1" with entities [Iroha (ID: 17957432/0x01120238), Iroha (ID: 17957432/0x01120238)], work=3861*
153: 0x0535 [0x02] IF !(ExtData[1]->WorkLocal[0] == 2*) GOTO 0x0545
154: 0x053D [0x2B] Lion (ID: 17957433/0x01120239) [7423*]:
    → "It gives me chills just thinking about it."
155: 0x0544 [0x23] WAIT_FOR_DIALOG_INTERACTION
156: 0x0545 [0x52] END_LOAD_SCHEDULER: End scheduler "s177" with entities [EventEntity, EventEntity], work=761*
157: 0x0554 [0x45] LOAD_SCHEDULED_TASK: Load scheduler "s178" with entities [EventEntity, EventEntity], work=[761*, 0*]
158: 0x0565 [0x27] REQ_SET(priority=0x05, entity_id=Iroha (ID: 17957432/0x01120238), tag_num=0x08)
159: 0x056C [0x2B] Iroha (ID: 17957432/0x01120238) [7424*]:
    → "If the clamoring has ceased, then we may yet find respite."
160: 0x0573 [0x23] WAIT_FOR_DIALOG_INTERACTION
161: 0x0574 [0x2A] GET_REQ_LEVEL(level=5, entity_id=Iroha (ID: 17957432/0x01120238))
162: 0x057A [0x52] END_LOAD_SCHEDULER: End scheduler "s178" with entities [EventEntity, EventEntity], work=761*
163: 0x0589 [0x45] LOAD_SCHEDULED_TASK: Load scheduler "s179" with entities [EventEntity, EventEntity], work=[761*, 0*]
164: 0x059A [0x4A] Iroha (ID: 17957432/0x01120238) looks at LocalPlayer
165: 0x05A3 [0x1C] WAIT(30* ticks)
166: 0x05A6 [0x6B] STOP_AND_IDLE: Lion (ID: 17957433/0x01120239) stops current action and resets to idle (animation="idl0")
167: 0x05AF [0x4A] LocalPlayer looks at Iroha (ID: 17957432/0x01120238)
168: 0x05B8 [0x5B] LOAD_EXT_SCHEDULER: Load scheduler "tlk0" with entities [Iroha (ID: 17957432/0x01120238), Iroha (ID: 17957432/0x01120238)], work=3861*
169: 0x05C7 [0x2B] Iroha (ID: 17957432/0x01120238) [7425*]:
    → "Master, this may be the world we refer to as "Escha.""
170: 0x05CE [0x23] WAIT_FOR_DIALOG_INTERACTION
171: 0x05CF [0x2B] Iroha (ID: 17957432/0x01120238) [7426*]:
    → "I still have much to learn, but your words that day will always stay with me:"
172: 0x05D6 [0x23] WAIT_FOR_DIALOG_INTERACTION
173: 0x05D7 [0x52] END_LOAD_SCHEDULER: End scheduler "s179" with entities [EventEntity, EventEntity], work=761*
174: 0x05E6 [0x45] LOAD_SCHEDULED_TASK: Load scheduler "s180" with entities [EventEntity, EventEntity], work=[761*, 0*]
175: 0x05F7 [0x2B] Iroha (ID: 17957432/0x01120238) [7427*]:
    → ""When the darkness first came, the Middle Lands were the first to be assaulted. Swaths of land were consumed, leaving a colorless landscape where life once thrived."
176: 0x05FE [0x23] WAIT_FOR_DIALOG_INTERACTION
177: 0x05FF [0x2B] Iroha (ID: 17957432/0x01120238) [7428*]:
    → ""It marked the beginning of the end.""
178: 0x0606 [0x23] WAIT_FOR_DIALOG_INTERACTION
179: 0x0607 [0x2B] Iroha (ID: 17957432/0x01120238) [7429*]:
    → "And that world, you said, was known as Escha."
180: 0x060E [0x23] WAIT_FOR_DIALOG_INTERACTION
181: 0x060F [0x52] END_LOAD_SCHEDULER: End scheduler "s180" with entities [EventEntity, EventEntity], work=761*
182: 0x061E [0x45] LOAD_SCHEDULED_TASK: Load scheduler "s181" with entities [EventEntity, EventEntity], work=[761*, 0*]
183: 0x062F [0x2B] Iroha (ID: 17957432/0x01120238) [7430*]:
    → "Yet the annals say that the Emptiness first started to appear many years hence."
184: 0x0636 [0x23] WAIT_FOR_DIALOG_INTERACTION
185: 0x0637 [0x2B] Iroha (ID: 17957432/0x01120238) [7431*]:
    → "So why now? Why here?"
186: 0x063E [0x23] WAIT_FOR_DIALOG_INTERACTION
187: 0x063F [0x5B] LOAD_EXT_SCHEDULER: Load scheduler "tlk1" with entities [Iroha (ID: 17957432/0x01120238), Iroha (ID: 17957432/0x01120238)], work=3861*
188: 0x064E [0x6E] LocalPlayer uses emote 32*
189: 0x0655 [0x99] Wait for LocalPlayer animation to complete
190: 0x065A [0x1C] WAIT(90* ticks)
191: 0x065D [0x52] END_LOAD_SCHEDULER: End scheduler "s181" with entities [EventEntity, EventEntity], work=761*
192: 0x066C [0x45] LOAD_SCHEDULED_TASK: Load scheduler "s182" with entities [EventEntity, EventEntity], work=[761*, 0*]
193: 0x067D [0x5B] LOAD_EXT_SCHEDULER: Load scheduler "tkb0" with entities [Zeid (ID: 17957434/0x0112023A), Zeid (ID: 17957434/0x0112023A)], work=244*
194: 0x068C [0x2B] Zeid (ID: 17957434/0x0112023A) [7432*]:
    → "What if...history were being rewritten?"
195: 0x0693 [0x23] WAIT_FOR_DIALOG_INTERACTION
196: 0x0694 [0x5B] LOAD_EXT_SCHEDULER: Load scheduler "tkb1" with entities [Zeid (ID: 17957434/0x0112023A), Zeid (ID: 17957434/0x0112023A)], work=244*
197: 0x06A3 [0x4A] Iroha (ID: 17957432/0x01120238) looks at Zeid (ID: 17957434/0x0112023A)
198: 0x06AC [0x1C] WAIT(30* ticks)
199: 0x06AF [0x52] END_LOAD_SCHEDULER: End scheduler "s182" with entities [EventEntity, EventEntity], work=761*
200: 0x06BE [0x45] LOAD_SCHEDULED_TASK: Load scheduler "s183" with entities [EventEntity, EventEntity], work=[761*, 0*]
201: 0x06CF [0x5F] MULTI_HANDLER_COMPLEX(mode=0x05 - Load ext scheduler with flag (OpCode 0x5B mode 0, flag 1), ref=3862*, entity1=Iroha (ID: 17957432/0x01120238), entity2=Iroha (ID: 17957432/0x01120238), string="yes0", extra=140*)
202: 0x06E1 [0x2B] Iroha (ID: 17957432/0x01120238) [7433*]:
    → "It could be that my returning to your time has placed a stick in the wheel of fate."
203: 0x06E8 [0x23] WAIT_FOR_DIALOG_INTERACTION
204: 0x06E9 [0x2B] Iroha (ID: 17957432/0x01120238) [7434*]:
    → "Has the darkness come with me?"
205: 0x06F0 [0x23] WAIT_FOR_DIALOG_INTERACTION
206: 0x06F1 [0x5F] MULTI_HANDLER_COMPLEX(mode=0x07 - Wait scheduler task (OpCode 0x53))
207: 0x06FF [0x52] END_LOAD_SCHEDULER: End scheduler "s183" with entities [EventEntity, EventEntity], work=761*
208: 0x070E [0x45] LOAD_SCHEDULED_TASK: Load scheduler "s184" with entities [EventEntity, EventEntity], work=[761*, 0*]
209: 0x071F [0x5B] LOAD_EXT_SCHEDULER: Load scheduler "tlb0" with entities [Iroha (ID: 17957432/0x01120238), Iroha (ID: 17957432/0x01120238)], work=3861*
210: 0x072E [0x2B] Iroha (ID: 17957432/0x01120238) [7435*]:
    → "Though this may sound counterintuitive, I fear we must change the future if we are to save the past."
211: 0x0735 [0x23] WAIT_FOR_DIALOG_INTERACTION
212: 0x0736 [0x5B] LOAD_EXT_SCHEDULER: Load scheduler "tlb1" with entities [Iroha (ID: 17957432/0x01120238), Iroha (ID: 17957432/0x01120238)], work=3861*
213: 0x0745 [0x52] END_LOAD_SCHEDULER: End scheduler "s184" with entities [EventEntity, EventEntity], work=761*
214: 0x0754 [0x45] LOAD_SCHEDULED_TASK: Load scheduler "s186" with entities [EventEntity, EventEntity], work=[761*, 0*]
215: 0x0765 [0x2B] Zeid (ID: 17957434/0x0112023A) [7436*]:
    → "You are right. That is rather difficult to wrap my head around."
216: 0x076C [0x23] WAIT_FOR_DIALOG_INTERACTION
217: 0x076D [0x52] END_LOAD_SCHEDULER: End scheduler "s186" with entities [EventEntity, EventEntity], work=761*
218: 0x077C [0x45] LOAD_SCHEDULED_TASK: Load scheduler "s185" with entities [EventEntity, EventEntity], work=[761*, 0*]
219: 0x078D [0x5B] LOAD_EXT_SCHEDULER: Load scheduler "tkb0" with entities [Zeid (ID: 17957434/0x0112023A), Zeid (ID: 17957434/0x0112023A)], work=244*
220: 0x079C [0x2B] Zeid (ID: 17957434/0x0112023A) [7437*]:
    → "Iroha, is there no way to purge this "Escha" from our land?"
221: 0x07A3 [0x23] WAIT_FOR_DIALOG_INTERACTION
222: 0x07A4 [0x5B] LOAD_EXT_SCHEDULER: Load scheduler "tkb1" with entities [Zeid (ID: 17957434/0x0112023A), Zeid (ID: 17957434/0x0112023A)], work=244*
223: 0x07B3 [0x5B] LOAD_EXT_SCHEDULER: Load scheduler "non0" with entities [Iroha (ID: 17957432/0x01120238), Iroha (ID: 17957432/0x01120238)], work=3862*
224: 0x07C2 [0x2B] Iroha (ID: 17957432/0x01120238) [7438*]:
    → "Would that I had the answers you seek."
225: 0x07C9 [0x1C] WAIT(140* ticks)
226: 0x07CC [0x23] WAIT_FOR_DIALOG_INTERACTION
227: 0x07CD [0x52] END_LOAD_SCHEDULER: End scheduler "s185" with entities [EventEntity, EventEntity], work=761*
228: 0x07DC [0x45] LOAD_SCHEDULED_TASK: Load scheduler "s187" with entities [EventEntity, EventEntity], work=[761*, 0*]
229: 0x07ED [0x5B] LOAD_EXT_SCHEDULER: Load scheduler "ude0" with entities [Zeid (ID: 17957434/0x0112023A), Zeid (ID: 17957434/0x0112023A)], work=244*
230: 0x07FC [0x2B] Zeid (ID: 17957434/0x0112023A) [7439*]:
    → "Then only one path lies open to us: figure out what we can for ourselves."
231: 0x0803 [0x23] WAIT_FOR_DIALOG_INTERACTION
232: 0x0804 [0x2B] Zeid (ID: 17957434/0x0112023A) [7440*]:
    → "As if this land were not dangerous enough, now we have that unholy bell to contend with."
233: 0x080B [0x23] WAIT_FOR_DIALOG_INTERACTION
234: 0x080C [0x52] END_LOAD_SCHEDULER: End scheduler "s187" with entities [EventEntity, EventEntity], work=761*
235: 0x081B [0x45] LOAD_SCHEDULED_TASK: Load scheduler "s188" with entities [EventEntity, EventEntity], work=[761*, 0*]
236: 0x082C [0x5B] LOAD_EXT_SCHEDULER: Load scheduler "yes0" with entities [Iroha (ID: 17957432/0x01120238), Iroha (ID: 17957432/0x01120238)], work=3862*
237: 0x083B [0x2B] Iroha (ID: 17957432/0x01120238) [7441*]:
    → "A perilous reality at best."
238: 0x0842 [0x1C] WAIT(60* ticks)
239: 0x0845 [0xBA] SET_ENTITY_POSITION(entity_id=Lion (ID: 17957433/0x01120239), pos_x=-365.973*, pos_z=-161.660*, pos_y=0.097*, direction=344.8°*)
240: 0x0852 [0x1C] WAIT(60* ticks)
241: 0x0855 [0x23] WAIT_FOR_DIALOG_INTERACTION
242: 0x0856 [0x52] END_LOAD_SCHEDULER: End scheduler "s188" with entities [EventEntity, EventEntity], work=761*
243: 0x0865 [0x02] IF !(ExtData[1]->WorkLocal[0] == 0*) GOTO 0x0873
244: 0x086D [0x1A] CALL_SUBROUTINE(address=0x1D3F)
245: 0x0870 [0x01] GOTO 0x088F
246: 0x0873 [0x02] IF !(ExtData[1]->WorkLocal[0] == 1*) GOTO 0x0881
247: 0x087B [0x1A] CALL_SUBROUTINE(address=0x1D3F)
248: 0x087E [0x01] GOTO 0x088F
249: 0x0881 [0x02] IF !(ExtData[1]->WorkLocal[0] == 2*) GOTO 0x088F
250: 0x0889 [0x1A] CALL_SUBROUTINE(address=0x2169)
251: 0x088C [0x01] GOTO 0x088F

SUBROUTINE_088F:
252: 0x088F [0x45] LOAD_SCHEDULED_TASK: Load scheduler "fdo1" with entities [EventEntity, EventEntity], work=[200*, 0*]
253: 0x08A0 [0x55] WAIT_LOAD_SCHEDULER: Wait for scheduler "fdo1" with entities [EventEntity, EventEntity], work=200*
254: 0x08AF [0x52] END_LOAD_SCHEDULER: End scheduler "s195" with entities [EventEntity, EventEntity], work=761*
255: 0x08BE [0x46] CAMERA_CONTROL: Restore default settings
256: 0x08C0 [0x45] LOAD_SCHEDULED_TASK: Load scheduler "fdi2" with entities [EventEntity, EventEntity], work=[200*, 0*]
257: 0x08D1 [0x21] END_EVENT
258: 0x08D2 [0x00] END_REQSTACK()
```

### Event 2

#### Metadata

| Field        | Value      |
|--------------|------------|
| Entrypoint   | 0x08D3     |
| Data Size    | 2158 bytes |
| Instructions | 240        |

```
      00 01 02 03 04 05 06 07  08 09 0A 0B 0C 0D 0E 0F
      -- -- -- -- -- -- -- --  -- -- -- -- -- -- -- --
08D0:          42 03 01 10 00  80 43 00 43 01 03 00 00     B.....C.C....
08E0: 09 10 45 01 80 F8 FF FF  7F F8 FF FF 7F 66 64 6F  ..E..........fdo
08F0: 31 02 80 55 01 80 F8 FF  FF 7F F8 FF FF 7F 66 64  1..U..........fd
0900: 6F 31 46 01 38 03 80 2F  00 3A 02 12 01 2F 00 38  o1F.8../.:.../.8
0910: 02 12 01 4E 00 3A 02 12  01 4E 00 38 02 12 01 92  ...N.:...N.8....
0920: 01 3A 02 12 01 92 01 38  02 12 01 94 01 3A 02 12  .:.....8.....:..
0930: 01 94 01 38 02 12 01 94  01 F0 FF FF 7F BA 3A 02  ...8..........:.
0940: 12 01 04 80 05 80 06 80  07 80 BA F0 FF FF 7F 08  ................
0950: 80 09 80 0A 80 0B 80 BA  38 02 12 01 0C 80 0D 80  ........8.......
0960: 0E 80 0F 80 80 F0 FF FF  7F 80 3A 02 12 01 80 38  ..........:....8
0970: 02 12 01 1A 32 19 45 11  80 F8 FF FF 7F F8 FF FF  ....2.E.........
0980: 7F 73 31 36 33 02 80 5B  12 80 3A 02 12 01 3A 02  .s163..[..:...:.
0990: 12 01 6B 79 72 30 2B 3A  02 12 01 13 80 1C 14 80  ..kyr0+:........
09A0: 23 52 11 80 F8 FF FF 7F  F8 FF FF 7F 73 31 36 33  #R..........s163
09B0: 45 11 80 F8 FF FF 7F F8  FF FF 7F 73 31 36 34 02  E..........s164.
09C0: 80 79 00 39 02 12 01 38  02 12 01 5B 15 80 38 02  .y.9...8...[..8.
09D0: 12 01 38 02 12 01 74 6C  63 30 2B 38 02 12 01 16  ..8...tlc0+8....
09E0: 80 23 5B 15 80 38 02 12  01 38 02 12 01 74 6C 63  .#[..8...8...tlc
09F0: 31 52 11 80 F8 FF FF 7F  F8 FF FF 7F 73 31 36 34  1R..........s164
0A00: 45 11 80 F8 FF FF 7F F8  FF FF 7F 73 31 36 35 02  E..........s165.
0A10: 80 5B 17 80 3A 02 12 01  3A 02 12 01 74 6B 62 30  .[..:...:...tkb0
0A20: 2B 3A 02 12 01 18 80 23  5B 17 80 3A 02 12 01 3A  +:.....#[..:...:
0A30: 02 12 01 74 6B 62 31 52  11 80 F8 FF FF 7F F8 FF  ...tkb1R........
0A40: FF 7F 73 31 36 35 45 11  80 F8 FF FF 7F F8 FF FF  ..s165E.........
0A50: 7F 73 31 36 36 02 80 5B  19 80 38 02 12 01 38 02  .s166..[..8...8.
0A60: 12 01 74 6C 6B 30 2B 38  02 12 01 1A 80 23 52 11  ..tlk0+8.....#R.
0A70: 80 F8 FF FF 7F F8 FF FF  7F 73 31 36 36 45 11 80  .........s166E..
0A80: F8 FF FF 7F F8 FF FF 7F  73 31 36 37 02 80 2B 38  ........s167..+8
0A90: 02 12 01 1B 80 23 2B 38  02 12 01 1C 80 23 BA 39  .....#+8.....#.9
0AA0: 02 12 01 1D 80 1E 80 1F  80 20 80 80 39 02 12 01  ......... ..9...
0AB0: 02 00 00 00 80 04 C3 0A  2B 38 02 12 01 21 80 23  ........+8...!.#
0AC0: 01 CB 0A 2B 38 02 12 01  22 80 23 5B 19 80 38 02  ...+8...".#[..8.
0AD0: 12 01 38 02 12 01 74 6C  6B 31 52 11 80 F8 FF FF  ..8...tlk1R.....
0AE0: 7F F8 FF FF 7F 73 31 36  37 45 11 80 F8 FF FF 7F  .....s167E......
0AF0: F8 FF FF 7F 73 31 36 38  02 80 5B 17 80 3A 02 12  ....s168..[..:..
0B00: 01 3A 02 12 01 74 6B 62  30 2B 3A 02 12 01 23 80  .:...tkb0+:...#.
0B10: 23 2B 3A 02 12 01 24 80  23 5B 17 80 3A 02 12 01  #+:...$.#[..:...
0B20: 3A 02 12 01 74 6B 62 31  81 00 38 02 12 01 5F 05  :...tkb1..8..._.
0B30: 25 80 38 02 12 01 38 02  12 01 6E 6F 6E 30 26 80  %.8...8...non0&.
0B40: 2B 38 02 12 01 27 80 23  52 11 80 F8 FF FF 7F F8  +8...'.#R.......
0B50: FF FF 7F 73 31 36 38 45  11 80 F8 FF FF 7F F8 FF  ...s168E........
0B60: FF 7F 73 31 36 39 02 80  2B 38 02 12 01 28 80 23  ..s169..+8...(.#
0B70: 5F 07 38 02 12 01 38 02  12 01 6E 6F 6E 30 81 01  _.8...8...non0..
0B80: 38 02 12 01 52 11 80 F8  FF FF 7F F8 FF FF 7F 73  8...R..........s
0B90: 31 36 39 45 11 80 F8 FF  FF 7F F8 FF FF 7F 73 31  169E..........s1
0BA0: 37 30 02 80 45 11 80 F8  FF FF 7F F8 FF FF 7F 31  70..E..........1
0BB0: 31 37 61 02 80 1C 29 80  52 11 80 F8 FF FF 7F F8  17a...).R.......
0BC0: FF FF 7F 73 31 37 30 45  11 80 F8 FF FF 7F F8 FF  ...s170E........
0BD0: FF 7F 73 31 37 31 02 80  5B 12 80 3A 02 12 01 3A  ..s171..[..:...:
0BE0: 02 12 01 6B 79 72 30 2B  3A 02 12 01 2A 80 1C 2B  ...kyr0+:...*..+
0BF0: 80 81 00 38 02 12 01 7C  00 38 02 12 01 5B 25 80  ...8...|.8...[%.
0C00: 38 02 12 01 38 02 12 01  74 68 6B 30 2B 38 02 12  8...8...thk0+8..
0C10: 01 2C 80 23 81 01 38 02  12 01 7C 01 38 02 12 01  .,.#..8...|.8...
0C20: 5B 25 80 38 02 12 01 38  02 12 01 74 68 6B 31 03  [%.8...8...thk1.
0C30: 03 10 02 80 52 11 80 F8  FF FF 7F F8 FF FF 7F 73  ....R..........s
0C40: 31 37 31 45 11 80 F8 FF  FF 7F F8 FF FF 7F 73 31  171E..........s1
0C50: 37 32 02 80 81 00 39 02  12 01 5B 2D 80 39 02 12  72....9...[-.9..
0C60: 01 39 02 12 01 68 69 7A  30 7B 39 02 12 01 2B 39  .9...hiz0{9...+9
0C70: 02 12 01 2E 80 1C 2B 80  52 11 80 F8 FF FF 7F F8  ......+.R.......
0C80: FF FF 7F 73 31 37 32 45  11 80 F8 FF FF 7F F8 FF  ...s172E........
0C90: FF 7F 73 31 37 33 02 80  4A 38 02 12 01 39 02 12  ..s173..J8...9..
0CA0: 01 1C 2F 80 03 03 10 00  80 52 11 80 F8 FF FF 7F  ../......R......
0CB0: F8 FF FF 7F 73 31 37 33  45 11 80 F8 FF FF 7F F8  ....s173E.......
0CC0: FF FF 7F 73 31 37 34 02  80 27 05 3A 02 12 01 04  ...s174..'.:....
0CD0: 7B 3A 02 12 01 1C 30 80  2B 3A 02 12 01 31 80 1C  {:....0.+:...1..
0CE0: 32 80 52 11 80 F8 FF FF  7F F8 FF FF 7F 73 31 37  2.R..........s17
0CF0: 34 45 11 80 F8 FF FF 7F  F8 FF FF 7F 73 31 37 35  4E..........s175
0D00: 02 80 27 05 38 02 12 01  07 2B 38 02 12 01 33 80  ..'.8....+8...3.
0D10: 23 2A 05 38 02 12 01 2A  05 3A 02 12 01 45 11 80  #*.8...*.:...E..
0D20: F8 FF FF 7F F8 FF FF 7F  31 31 37 6B 02 80 52 11  ........117k..R.
0D30: 80 F8 FF FF 7F F8 FF FF  7F 73 31 37 35 45 11 80  .........s175E..
0D40: F8 FF FF 7F F8 FF FF 7F  73 31 37 36 02 80 4A 3A  ........s176..J:
0D50: 02 12 01 38 02 12 01 1C  32 80 5B 12 80 3A 02 12  ...8....2.[..:..
0D60: 01 3A 02 12 01 6B 79 72  30 2B 3A 02 12 01 34 80  .:...kyr0+:...4.
0D70: 1C 30 80 81 00 39 02 12  01 5B 2D 80 39 02 12 01  .0...9...[-.9...
0D80: 39 02 12 01 6B 61 6B 6C  1C 30 80 23 52 11 80 F8  9...kakl.0.#R...
0D90: FF FF 7F F8 FF FF 7F 73  31 37 36 45 11 80 F8 FF  .......s176E....
0DA0: FF 7F F8 FF FF 7F 73 31  37 37 02 80 5B 19 80 38  ......s177..[..8
0DB0: 02 12 01 38 02 12 01 74  6C 61 30 2B 38 02 12 01  ...8...tla0+8...
0DC0: 35 80 23 5B 19 80 38 02  12 01 38 02 12 01 74 6C  5.#[..8...8...tl
0DD0: 61 31 2B 39 02 12 01 36  80 23 52 11 80 F8 FF FF  a1+9...6.#R.....
0DE0: 7F F8 FF FF 7F 73 31 37  37 45 11 80 F8 FF FF 7F  .....s177E......
0DF0: F8 FF FF 7F 73 31 37 38  02 80 27 05 38 02 12 01  ....s178..'.8...
0E00: 08 2B 38 02 12 01 37 80  23 2A 05 38 02 12 01 52  .+8...7.#*.8...R
0E10: 11 80 F8 FF FF 7F F8 FF  FF 7F 73 31 37 38 45 11  ..........s178E.
0E20: 80 F8 FF FF 7F F8 FF FF  7F 73 31 37 39 02 80 4A  .........s179..J
0E30: 38 02 12 01 F0 FF FF 7F  1C 32 80 6B 69 64 6C 30  8........2.kidl0
0E40: 39 02 12 01 4A F0 FF FF  7F 38 02 12 01 5B 19 80  9...J....8...[..
0E50: 38 02 12 01 38 02 12 01  74 6C 6B 30 2B 38 02 12  8...8...tlk0+8..
0E60: 01 38 80 23 2B 38 02 12  01 39 80 23 52 11 80 F8  .8.#+8...9.#R...
0E70: FF FF 7F F8 FF FF 7F 73  31 37 39 45 11 80 F8 FF  .......s179E....
0E80: FF 7F F8 FF FF 7F 73 31  38 30 02 80 2B 38 02 12  ......s180..+8..
0E90: 01 3A 80 23 2B 38 02 12  01 3B 80 23 2B 38 02 12  .:.#+8...;.#+8..
0EA0: 01 3C 80 23 52 11 80 F8  FF FF 7F F8 FF FF 7F 73  .<.#R..........s
0EB0: 31 38 30 45 11 80 F8 FF  FF 7F F8 FF FF 7F 73 31  180E..........s1
0EC0: 38 31 02 80 2B 38 02 12  01 3D 80 23 2B 38 02 12  81..+8...=.#+8..
0ED0: 01 3E 80 23 5B 19 80 38  02 12 01 38 02 12 01 74  .>.#[..8...8...t
0EE0: 6C 6B 31 6E F0 FF FF 7F  3F 80 99 F0 FF FF 7F 1C  lk1n....?.......
0EF0: 2F 80 52 11 80 F8 FF FF  7F F8 FF FF 7F 73 31 38  /.R..........s18
0F00: 31 45 11 80 F8 FF FF 7F  F8 FF FF 7F 73 31 38 32  1E..........s182
0F10: 02 80 5B 17 80 3A 02 12  01 3A 02 12 01 74 6B 62  ..[..:...:...tkb
0F20: 30 2B 3A 02 12 01 40 80  23 5B 17 80 3A 02 12 01  0+:...@.#[..:...
0F30: 3A 02 12 01 74 6B 62 31  4A 38 02 12 01 3A 02 12  :...tkb1J8...:..
0F40: 01 1C 32 80 52 11 80 F8  FF FF 7F F8 FF FF 7F 73  ..2.R..........s
0F50: 31 38 32 45 11 80 F8 FF  FF 7F F8 FF FF 7F 73 31  182E..........s1
0F60: 38 33 02 80 5F 05 25 80  38 02 12 01 38 02 12 01  83.._.%.8...8...
0F70: 79 65 73 30 26 80 2B 38  02 12 01 41 80 23 2B 38  yes0&.+8...A.#+8
0F80: 02 12 01 42 80 23 5F 07  38 02 12 01 38 02 12 01  ...B.#_.8...8...
0F90: 79 65 73 30 52 11 80 F8  FF FF 7F F8 FF FF 7F 73  yes0R..........s
0FA0: 31 38 33 45 11 80 F8 FF  FF 7F F8 FF FF 7F 73 31  183E..........s1
0FB0: 38 34 02 80 5B 19 80 38  02 12 01 38 02 12 01 74  84..[..8...8...t
0FC0: 6C 62 30 2B 38 02 12 01  43 80 23 5B 19 80 38 02  lb0+8...C.#[..8.
0FD0: 12 01 38 02 12 01 74 6C  62 31 52 11 80 F8 FF FF  ..8...tlb1R.....
0FE0: 7F F8 FF FF 7F 73 31 38  34 45 11 80 F8 FF FF 7F  .....s184E......
0FF0: F8 FF FF 7F 73 31 38 36  02 80 2B 3A 02 12 01 44  ....s186..+:...D
1000: 80 23 52 11 80 F8 FF FF  7F F8 FF FF 7F 73 31 38  .#R..........s18
1010: 36 45 11 80 F8 FF FF 7F  F8 FF FF 7F 73 31 38 35  6E..........s185
1020: 02 80 5B 17 80 3A 02 12  01 3A 02 12 01 74 6B 62  ..[..:...:...tkb
1030: 30 2B 3A 02 12 01 45 80  23 5B 17 80 3A 02 12 01  0+:...E.#[..:...
1040: 3A 02 12 01 74 6B 62 31  5B 25 80 38 02 12 01 38  :...tkb1[%.8...8
1050: 02 12 01 6E 6F 6E 30 2B  38 02 12 01 46 80 1C 26  ...non0+8...F..&
1060: 80 23 52 11 80 F8 FF FF  7F F8 FF FF 7F 73 31 38  .#R..........s18
1070: 35 45 11 80 F8 FF FF 7F  F8 FF FF 7F 73 31 38 37  5E..........s187
1080: 02 80 5B 17 80 3A 02 12  01 3A 02 12 01 75 64 65  ..[..:...:...ude
1090: 30 2B 3A 02 12 01 47 80  23 2B 3A 02 12 01 48 80  0+:...G.#+:...H.
10A0: 23 52 11 80 F8 FF FF 7F  F8 FF FF 7F 73 31 38 37  #R..........s187
10B0: 45 11 80 F8 FF FF 7F F8  FF FF 7F 73 31 38 38 02  E..........s188.
10C0: 80 5B 25 80 38 02 12 01  38 02 12 01 79 65 73 30  .[%.8...8...yes0
10D0: 2B 38 02 12 01 49 80 1C  30 80 BA 39 02 12 01 4A  +8...I..0..9...J
10E0: 80 4B 80 4C 80 4D 80 1C  30 80 23 52 11 80 F8 FF  .K.L.M..0.#R....
10F0: FF 7F F8 FF FF 7F 73 31  38 38 1A 3F 1D 45 01 80  ......s188.?.E..
1100: F8 FF FF 7F F8 FF FF 7F  66 64 6F 31 02 80 55 01  ........fdo1..U.
1110: 80 F8 FF FF 7F F8 FF FF  7F 66 64 6F 31 52 11 80  .........fdo1R..
1120: F8 FF FF 7F F8 FF FF 7F  73 31 39 35 46 00 45 01  ........s195F.E.
1130: 80 F8 FF FF 7F F8 FF FF  7F 66 64 69 32 02 80 21  .........fdi2..!
1140: 00                                                .               
```

#### Opcodes

```
  0: 0x08D3 [0x42] SET_CLI_EVENT_CANCEL_DATA()
  1: 0x08D4 [0x03] Work_Zone[1] = 1*
  2: 0x08D9 [0x43] SEND_EVENT_UPDATE: Send pending tag to server (packet 0x005B)
  3: 0x08DB [0x43] SEND_EVENT_UPDATE: Check pending flag (skip if not pending)
  4: 0x08DD [0x03] ExtData[1]->WorkLocal[0] = Work_Zone[9]
  5: 0x08E2 [0x45] LOAD_SCHEDULED_TASK: Load scheduler "fdo1" with entities [EventEntity, EventEntity], work=[200*, 0*]
  6: 0x08F3 [0x55] WAIT_LOAD_SCHEDULER: Wait for scheduler "fdo1" with entities [EventEntity, EventEntity], work=200*
  7: 0x0902 [0x46] CAMERA_CONTROL: Disable user control
  8: 0x0904 [0x38] SET_CLIENT_EVENT_MODE(mode=27*)
  9: 0x0907 [0x2F] Zeid (ID: 17957434/0x0112023A)->Render.Flags0 &= ~0x80000 // Bit 19
 10: 0x090D [0x2F] Iroha (ID: 17957432/0x01120238)->Render.Flags0 &= ~0x80000 // Bit 19
 11: 0x0913 [0x4E] SET_ENTITY_HIDE_FLAG: Show Zeid (ID: 17957434/0x0112023A)
 12: 0x0919 [0x4E] SET_ENTITY_HIDE_FLAG: Show Iroha (ID: 17957432/0x01120238)
 13: 0x091F [0x92] Zeid (ID: 17957434/0x0112023A)->Render.Flags3 ^= 0x01
 14: 0x0925 [0x92] Iroha (ID: 17957432/0x01120238)->Render.Flags3 ^= 0x01
 15: 0x092B [0x94] Zeid (ID: 17957434/0x0112023A)->Render.Flags3 ^= 0x01
 16: 0x0931 [0x94] Iroha (ID: 17957432/0x01120238)->Render.Flags3 ^= 0x01
 17: 0x0937 [0x94] LocalPlayer->Render.Flags3 ^= 0x01
 18: 0x093D [0xBA] SET_ENTITY_POSITION(entity_id=Zeid (ID: 17957434/0x0112023A), pos_x=-364.953*, pos_z=-159.920*, pos_y=0.046*, direction=232.0°*)
 19: 0x094A [0xBA] SET_ENTITY_POSITION(entity_id=LocalPlayer, pos_x=-346.607*, pos_z=-179.791*, pos_y=1.166*, direction=247.4°*)
 20: 0x0957 [0xBA] SET_ENTITY_POSITION(entity_id=Iroha (ID: 17957432/0x01120238), pos_x=-344.624*, pos_z=-178.523*, pos_y=1.085*, direction=243.0°*)
 21: 0x0964 [0x80] LOAD_WAIT(entity=LocalPlayer)
 22: 0x0969 [0x80] LOAD_WAIT(entity=Zeid (ID: 17957434/0x0112023A))
 23: 0x096E [0x80] LOAD_WAIT(entity=Iroha (ID: 17957432/0x01120238))
 24: 0x0973 [0x1A] CALL_SUBROUTINE(address=0x1932)
 25: 0x0976 [0x45] LOAD_SCHEDULED_TASK: Load scheduler "s163" with entities [EventEntity, EventEntity], work=[761*, 0*]
 26: 0x0987 [0x5B] LOAD_EXT_SCHEDULER: Load scheduler "kyr0" with entities [Zeid (ID: 17957434/0x0112023A), Zeid (ID: 17957434/0x0112023A)], work=247*
 27: 0x0996 [0x2B] Zeid (ID: 17957434/0x0112023A) [7404*]:
    → "The only color here is the color of death."
 28: 0x099D [0x1C] WAIT(270* ticks)
 29: 0x09A0 [0x23] WAIT_FOR_DIALOG_INTERACTION
 30: 0x09A1 [0x52] END_LOAD_SCHEDULER: End scheduler "s163" with entities [EventEntity, EventEntity], work=761*
 31: 0x09B0 [0x45] LOAD_SCHEDULED_TASK: Load scheduler "s164" with entities [EventEntity, EventEntity], work=[761*, 0*]
 32: 0x09C1 [0x79] Lion (ID: 17957433/0x01120239) looks at Iroha (ID: 17957432/0x01120238) (Basic look)
 33: 0x09CB [0x5B] LOAD_EXT_SCHEDULER: Load scheduler "tlc0" with entities [Iroha (ID: 17957432/0x01120238), Iroha (ID: 17957432/0x01120238)], work=3863*
 34: 0x09DA [0x2B] Iroha (ID: 17957432/0x01120238) [7405*]:
    → "This empty husk is void of anything that we could call nature."
 35: 0x09E1 [0x23] WAIT_FOR_DIALOG_INTERACTION
 36: 0x09E2 [0x5B] LOAD_EXT_SCHEDULER: Load scheduler "tlc1" with entities [Iroha (ID: 17957432/0x01120238), Iroha (ID: 17957432/0x01120238)], work=3863*
 37: 0x09F1 [0x52] END_LOAD_SCHEDULER: End scheduler "s164" with entities [EventEntity, EventEntity], work=761*
 38: 0x0A00 [0x45] LOAD_SCHEDULED_TASK: Load scheduler "s165" with entities [EventEntity, EventEntity], work=[761*, 0*]
 39: 0x0A11 [0x5B] LOAD_EXT_SCHEDULER: Load scheduler "tkb0" with entities [Zeid (ID: 17957434/0x0112023A), Zeid (ID: 17957434/0x0112023A)], work=244*
 40: 0x0A20 [0x2B] Zeid (ID: 17957434/0x0112023A) [7406*]:
    → "The first thing I noticed about this place is its striking resemblance to the Sanctuary of Zi'Tah, located in northeastern Mindartia."
 41: 0x0A27 [0x23] WAIT_FOR_DIALOG_INTERACTION
 42: 0x0A28 [0x5B] LOAD_EXT_SCHEDULER: Load scheduler "tkb1" with entities [Zeid (ID: 17957434/0x0112023A), Zeid (ID: 17957434/0x0112023A)], work=244*
 43: 0x0A37 [0x52] END_LOAD_SCHEDULER: End scheduler "s165" with entities [EventEntity, EventEntity], work=761*
 44: 0x0A46 [0x45] LOAD_SCHEDULED_TASK: Load scheduler "s166" with entities [EventEntity, EventEntity], work=[761*, 0*]
 45: 0x0A57 [0x5B] LOAD_EXT_SCHEDULER: Load scheduler "tlk0" with entities [Iroha (ID: 17957432/0x01120238), Iroha (ID: 17957432/0x01120238)], work=3861*
 46: 0x0A66 [0x2B] Iroha (ID: 17957432/0x01120238) [7407*]:
    → "Zi'Tah...yes, I have run across that name several times before."
 47: 0x0A6D [0x23] WAIT_FOR_DIALOG_INTERACTION
 48: 0x0A6E [0x52] END_LOAD_SCHEDULER: End scheduler "s166" with entities [EventEntity, EventEntity], work=761*
 49: 0x0A7D [0x45] LOAD_SCHEDULED_TASK: Load scheduler "s167" with entities [EventEntity, EventEntity], work=[761*, 0*]
 50: 0x0A8E [0x2B] Iroha (ID: 17957432/0x01120238) [7408*]:
    → "Yes, it was when the master first visited Reisenjima."
 51: 0x0A95 [0x23] WAIT_FOR_DIALOG_INTERACTION
 52: 0x0A96 [0x2B] Iroha (ID: 17957432/0x01120238) [7409*]:
    → "[He/She] said there was a sanctuary there, much like one in my homeland."
 53: 0x0A9D [0x23] WAIT_FOR_DIALOG_INTERACTION
 54: 0x0A9E [0xBA] SET_ENTITY_POSITION(entity_id=Lion (ID: 17957433/0x01120239), pos_x=-367.719*, pos_z=-160.224*, pos_y=0.184*, direction=20.0°*)
 55: 0x0AAB [0x80] LOAD_WAIT(entity=Lion (ID: 17957433/0x01120239))
 56: 0x0AB0 [0x02] IF !(ExtData[1]->WorkLocal[0] < 1*) GOTO 0x0AC3
 57: 0x0AB8 [0x2B] Iroha (ID: 17957432/0x01120238) [7410*]:
    → "Those chosen by the mothercrystal may enter a holy shrine deep within the Sanctuary to receive the protection of the Dawnmaidens."
 58: 0x0ABF [0x23] WAIT_FOR_DIALOG_INTERACTION
 59: 0x0AC0 [0x01] GOTO 0x0ACB
 60: 0x0AC3 [0x2B] Iroha (ID: 17957432/0x01120238) [7411*]:
    → "I had envisioned it to be more bursting with splendor..."
 61: 0x0ACA [0x23] WAIT_FOR_DIALOG_INTERACTION

SUBROUTINE_0ACB:
 62: 0x0ACB [0x5B] LOAD_EXT_SCHEDULER: Load scheduler "tlk1" with entities [Iroha (ID: 17957432/0x01120238), Iroha (ID: 17957432/0x01120238)], work=3861*
 63: 0x0ADA [0x52] END_LOAD_SCHEDULER: End scheduler "s167" with entities [EventEntity, EventEntity], work=761*
 64: 0x0AE9 [0x45] LOAD_SCHEDULED_TASK: Load scheduler "s168" with entities [EventEntity, EventEntity], work=[761*, 0*]
 65: 0x0AFA [0x5B] LOAD_EXT_SCHEDULER: Load scheduler "tkb0" with entities [Zeid (ID: 17957434/0x0112023A), Zeid (ID: 17957434/0x0112023A)], work=244*
 66: 0x0B09 [0x2B] Zeid (ID: 17957434/0x0112023A) [7412*]:
    → "Its layout and features resemble Zi'Tah, of that there can be no doubt. Yet the magic and warmth are gone, like we are in a different world entirely."
 67: 0x0B10 [0x23] WAIT_FOR_DIALOG_INTERACTION
 68: 0x0B11 [0x2B] Zeid (ID: 17957434/0x0112023A) [7413*]:
    → "...Or is this the future?"
 69: 0x0B18 [0x23] WAIT_FOR_DIALOG_INTERACTION
 70: 0x0B19 [0x5B] LOAD_EXT_SCHEDULER: Load scheduler "tkb1" with entities [Zeid (ID: 17957434/0x0112023A), Zeid (ID: 17957434/0x0112023A)], work=244*
 71: 0x0B28 [0x81] SET_ENTITY_BLINKING(blink_flag=0x00, entity=Iroha (ID: 17957432/0x01120238))
 72: 0x0B2E [0x5F] MULTI_HANDLER_COMPLEX(mode=0x05 - Load ext scheduler with flag (OpCode 0x5B mode 0, flag 1), ref=3862*, entity1=Iroha (ID: 17957432/0x01120238), entity2=Iroha (ID: 17957432/0x01120238), string="non0", extra=140*)
 73: 0x0B40 [0x2B] Iroha (ID: 17957432/0x01120238) [7414*]:
    → "I do not believe so."
 74: 0x0B47 [0x23] WAIT_FOR_DIALOG_INTERACTION
 75: 0x0B48 [0x52] END_LOAD_SCHEDULER: End scheduler "s168" with entities [EventEntity, EventEntity], work=761*
 76: 0x0B57 [0x45] LOAD_SCHEDULED_TASK: Load scheduler "s169" with entities [EventEntity, EventEntity], work=[761*, 0*]
 77: 0x0B68 [0x2B] Iroha (ID: 17957432/0x01120238) [7415*]:
    → "If the coming Emptiness is to swallow the world, then I would be more inclined to believe that we are catching a glimpse of what that swallowed world would be like."
 78: 0x0B6F [0x23] WAIT_FOR_DIALOG_INTERACTION
 79: 0x0B70 [0x5F] MULTI_HANDLER_COMPLEX(mode=0x07 - Wait scheduler task (OpCode 0x53))
 80: 0x0B7E [0x81] SET_ENTITY_BLINKING(blink_flag=0x01, entity=Iroha (ID: 17957432/0x01120238))
 81: 0x0B84 [0x52] END_LOAD_SCHEDULER: End scheduler "s169" with entities [EventEntity, EventEntity], work=761*
 82: 0x0B93 [0x45] LOAD_SCHEDULED_TASK: Load scheduler "s170" with entities [EventEntity, EventEntity], work=[761*, 0*]
 83: 0x0BA4 [0x45] LOAD_SCHEDULED_TASK: Load scheduler "117a" with entities [EventEntity, EventEntity], work=[761*, 0*]
 84: 0x0BB5 [0x1C] WAIT(180* ticks)
 85: 0x0BB8 [0x52] END_LOAD_SCHEDULER: End scheduler "s170" with entities [EventEntity, EventEntity], work=761*
 86: 0x0BC7 [0x45] LOAD_SCHEDULED_TASK: Load scheduler "s171" with entities [EventEntity, EventEntity], work=[761*, 0*]
 87: 0x0BD8 [0x5B] LOAD_EXT_SCHEDULER: Load scheduler "kyr0" with entities [Zeid (ID: 17957434/0x0112023A), Zeid (ID: 17957434/0x0112023A)], work=247*
 88: 0x0BE7 [0x2B] Zeid (ID: 17957434/0x0112023A) [7416*]:
    → "Did you hear that?"
 89: 0x0BEE [0x1C] WAIT(120* ticks)
 90: 0x0BF1 [0x81] SET_ENTITY_BLINKING(blink_flag=0x00, entity=Iroha (ID: 17957432/0x01120238))
 91: 0x0BF7 [0x7C] Iroha (ID: 17957432/0x01120238)->Render.Flags2 |= 0x00
 92: 0x0BFD [0x5B] LOAD_EXT_SCHEDULER: Load scheduler "thk0" with entities [Iroha (ID: 17957432/0x01120238), Iroha (ID: 17957432/0x01120238)], work=3862*
 93: 0x0C0C [0x2B] Iroha (ID: 17957432/0x01120238) [7417*]:
    → "A...bell? But where...?"
 94: 0x0C13 [0x23] WAIT_FOR_DIALOG_INTERACTION
 95: 0x0C14 [0x81] SET_ENTITY_BLINKING(blink_flag=0x01, entity=Iroha (ID: 17957432/0x01120238))
 96: 0x0C1A [0x7C] Iroha (ID: 17957432/0x01120238)->Render.Flags2 |= 0x01
 97: 0x0C20 [0x5B] LOAD_EXT_SCHEDULER: Load scheduler "thk1" with entities [Iroha (ID: 17957432/0x01120238), Iroha (ID: 17957432/0x01120238)], work=3862*
 98: 0x0C2F [0x03] Work_Zone[3] = 0*
 99: 0x0C34 [0x52] END_LOAD_SCHEDULER: End scheduler "s171" with entities [EventEntity, EventEntity], work=761*
100: 0x0C43 [0x45] LOAD_SCHEDULED_TASK: Load scheduler "s172" with entities [EventEntity, EventEntity], work=[761*, 0*]
101: 0x0C54 [0x81] SET_ENTITY_BLINKING(blink_flag=0x00, entity=Lion (ID: 17957433/0x01120239))
102: 0x0C5A [0x5B] LOAD_EXT_SCHEDULER: Load scheduler "hiz0" with entities [Lion (ID: 17957433/0x01120239), Lion (ID: 17957433/0x01120239)], work=99*
103: 0x0C69 [0x7B] Lion (ID: 17957433/0x01120239) stops talking
104: 0x0C6E [0x2B] Lion (ID: 17957433/0x01120239) [7418*]:
    → "Urk..."
105: 0x0C75 [0x1C] WAIT(120* ticks)
106: 0x0C78 [0x52] END_LOAD_SCHEDULER: End scheduler "s172" with entities [EventEntity, EventEntity], work=761*
107: 0x0C87 [0x45] LOAD_SCHEDULED_TASK: Load scheduler "s173" with entities [EventEntity, EventEntity], work=[761*, 0*]
108: 0x0C98 [0x4A] Iroha (ID: 17957432/0x01120238) looks at Lion (ID: 17957433/0x01120239)
109: 0x0CA1 [0x1C] WAIT(90* ticks)
110: 0x0CA4 [0x03] Work_Zone[3] = 1*
111: 0x0CA9 [0x52] END_LOAD_SCHEDULER: End scheduler "s173" with entities [EventEntity, EventEntity], work=761*
112: 0x0CB8 [0x45] LOAD_SCHEDULED_TASK: Load scheduler "s174" with entities [EventEntity, EventEntity], work=[761*, 0*]
113: 0x0CC9 [0x27] REQ_SET(priority=0x05, entity_id=Zeid (ID: 17957434/0x0112023A), tag_num=0x04)
114: 0x0CD0 [0x7B] Zeid (ID: 17957434/0x0112023A) stops talking
115: 0x0CD5 [0x1C] WAIT(60* ticks)
116: 0x0CD8 [0x2B] Zeid (ID: 17957434/0x0112023A) [7419*]:
    → "Who goes there?"
117: 0x0CDF [0x1C] WAIT(30* ticks)
118: 0x0CE2 [0x52] END_LOAD_SCHEDULER: End scheduler "s174" with entities [EventEntity, EventEntity], work=761*
119: 0x0CF1 [0x45] LOAD_SCHEDULED_TASK: Load scheduler "s175" with entities [EventEntity, EventEntity], work=[761*, 0*]
120: 0x0D02 [0x27] REQ_SET(priority=0x05, entity_id=Iroha (ID: 17957432/0x01120238), tag_num=0x07)
121: 0x0D09 [0x2B] Iroha (ID: 17957432/0x01120238) [7420*]:
    → "Zeid[/, Lion]! Please, stay with us!"
122: 0x0D10 [0x23] WAIT_FOR_DIALOG_INTERACTION
123: 0x0D11 [0x2A] GET_REQ_LEVEL(level=5, entity_id=Iroha (ID: 17957432/0x01120238))
124: 0x0D17 [0x2A] GET_REQ_LEVEL(level=5, entity_id=Zeid (ID: 17957434/0x0112023A))
125: 0x0D1D [0x45] LOAD_SCHEDULED_TASK: Load scheduler "117k" with entities [EventEntity, EventEntity], work=[761*, 0*]
126: 0x0D2E [0x52] END_LOAD_SCHEDULER: End scheduler "s175" with entities [EventEntity, EventEntity], work=761*
127: 0x0D3D [0x45] LOAD_SCHEDULED_TASK: Load scheduler "s176" with entities [EventEntity, EventEntity], work=[761*, 0*]
128: 0x0D4E [0x4A] Zeid (ID: 17957434/0x0112023A) looks at Iroha (ID: 17957432/0x01120238)
129: 0x0D57 [0x1C] WAIT(30* ticks)
130: 0x0D5A [0x5B] LOAD_EXT_SCHEDULER: Load scheduler "kyr0" with entities [Zeid (ID: 17957434/0x0112023A), Zeid (ID: 17957434/0x0112023A)], work=247*
131: 0x0D69 [0x2B] Zeid (ID: 17957434/0x0112023A) [7421*]:
    → "Something foul is afoot. The world blurred and I took leave of myself."
132: 0x0D70 [0x1C] WAIT(60* ticks)
133: 0x0D73 [0x81] SET_ENTITY_BLINKING(blink_flag=0x00, entity=Lion (ID: 17957433/0x01120239))
134: 0x0D79 [0x5B] LOAD_EXT_SCHEDULER: Load scheduler "kakl" with entities [Lion (ID: 17957433/0x01120239), Lion (ID: 17957433/0x01120239)], work=99*
135: 0x0D88 [0x1C] WAIT(60* ticks)
136: 0x0D8B [0x23] WAIT_FOR_DIALOG_INTERACTION
137: 0x0D8C [0x52] END_LOAD_SCHEDULER: End scheduler "s176" with entities [EventEntity, EventEntity], work=761*
138: 0x0D9B [0x45] LOAD_SCHEDULED_TASK: Load scheduler "s177" with entities [EventEntity, EventEntity], work=[761*, 0*]
139: 0x0DAC [0x5B] LOAD_EXT_SCHEDULER: Load scheduler "tla0" with entities [Iroha (ID: 17957432/0x01120238), Iroha (ID: 17957432/0x01120238)], work=3861*
140: 0x0DBB [0x2B] Iroha (ID: 17957432/0x01120238) [7422*]:
    → "You were under its thrall."
141: 0x0DC2 [0x23] WAIT_FOR_DIALOG_INTERACTION
142: 0x0DC3 [0x5B] LOAD_EXT_SCHEDULER: Load scheduler "tla1" with entities [Iroha (ID: 17957432/0x01120238), Iroha (ID: 17957432/0x01120238)], work=3861*
143: 0x0DD2 [0x2B] Lion (ID: 17957433/0x01120239) [7423*]:
    → "It gives me chills just thinking about it."
144: 0x0DD9 [0x23] WAIT_FOR_DIALOG_INTERACTION
145: 0x0DDA [0x52] END_LOAD_SCHEDULER: End scheduler "s177" with entities [EventEntity, EventEntity], work=761*
146: 0x0DE9 [0x45] LOAD_SCHEDULED_TASK: Load scheduler "s178" with entities [EventEntity, EventEntity], work=[761*, 0*]
147: 0x0DFA [0x27] REQ_SET(priority=0x05, entity_id=Iroha (ID: 17957432/0x01120238), tag_num=0x08)
148: 0x0E01 [0x2B] Iroha (ID: 17957432/0x01120238) [7424*]:
    → "If the clamoring has ceased, then we may yet find respite."
149: 0x0E08 [0x23] WAIT_FOR_DIALOG_INTERACTION
150: 0x0E09 [0x2A] GET_REQ_LEVEL(level=5, entity_id=Iroha (ID: 17957432/0x01120238))
151: 0x0E0F [0x52] END_LOAD_SCHEDULER: End scheduler "s178" with entities [EventEntity, EventEntity], work=761*
152: 0x0E1E [0x45] LOAD_SCHEDULED_TASK: Load scheduler "s179" with entities [EventEntity, EventEntity], work=[761*, 0*]
153: 0x0E2F [0x4A] Iroha (ID: 17957432/0x01120238) looks at LocalPlayer
154: 0x0E38 [0x1C] WAIT(30* ticks)
155: 0x0E3B [0x6B] STOP_AND_IDLE: Lion (ID: 17957433/0x01120239) stops current action and resets to idle (animation="idl0")
156: 0x0E44 [0x4A] LocalPlayer looks at Iroha (ID: 17957432/0x01120238)
157: 0x0E4D [0x5B] LOAD_EXT_SCHEDULER: Load scheduler "tlk0" with entities [Iroha (ID: 17957432/0x01120238), Iroha (ID: 17957432/0x01120238)], work=3861*
158: 0x0E5C [0x2B] Iroha (ID: 17957432/0x01120238) [7425*]:
    → "Master, this may be the world we refer to as "Escha.""
159: 0x0E63 [0x23] WAIT_FOR_DIALOG_INTERACTION
160: 0x0E64 [0x2B] Iroha (ID: 17957432/0x01120238) [7426*]:
    → "I still have much to learn, but your words that day will always stay with me:"
161: 0x0E6B [0x23] WAIT_FOR_DIALOG_INTERACTION
162: 0x0E6C [0x52] END_LOAD_SCHEDULER: End scheduler "s179" with entities [EventEntity, EventEntity], work=761*
163: 0x0E7B [0x45] LOAD_SCHEDULED_TASK: Load scheduler "s180" with entities [EventEntity, EventEntity], work=[761*, 0*]
164: 0x0E8C [0x2B] Iroha (ID: 17957432/0x01120238) [7427*]:
    → ""When the darkness first came, the Middle Lands were the first to be assaulted. Swaths of land were consumed, leaving a colorless landscape where life once thrived."
165: 0x0E93 [0x23] WAIT_FOR_DIALOG_INTERACTION
166: 0x0E94 [0x2B] Iroha (ID: 17957432/0x01120238) [7428*]:
    → ""It marked the beginning of the end.""
167: 0x0E9B [0x23] WAIT_FOR_DIALOG_INTERACTION
168: 0x0E9C [0x2B] Iroha (ID: 17957432/0x01120238) [7429*]:
    → "And that world, you said, was known as Escha."
169: 0x0EA3 [0x23] WAIT_FOR_DIALOG_INTERACTION
170: 0x0EA4 [0x52] END_LOAD_SCHEDULER: End scheduler "s180" with entities [EventEntity, EventEntity], work=761*
171: 0x0EB3 [0x45] LOAD_SCHEDULED_TASK: Load scheduler "s181" with entities [EventEntity, EventEntity], work=[761*, 0*]
172: 0x0EC4 [0x2B] Iroha (ID: 17957432/0x01120238) [7430*]:
    → "Yet the annals say that the Emptiness first started to appear many years hence."
173: 0x0ECB [0x23] WAIT_FOR_DIALOG_INTERACTION
174: 0x0ECC [0x2B] Iroha (ID: 17957432/0x01120238) [7431*]:
    → "So why now? Why here?"
175: 0x0ED3 [0x23] WAIT_FOR_DIALOG_INTERACTION
176: 0x0ED4 [0x5B] LOAD_EXT_SCHEDULER: Load scheduler "tlk1" with entities [Iroha (ID: 17957432/0x01120238), Iroha (ID: 17957432/0x01120238)], work=3861*
177: 0x0EE3 [0x6E] LocalPlayer uses emote 32*
178: 0x0EEA [0x99] Wait for LocalPlayer animation to complete
179: 0x0EEF [0x1C] WAIT(90* ticks)
180: 0x0EF2 [0x52] END_LOAD_SCHEDULER: End scheduler "s181" with entities [EventEntity, EventEntity], work=761*
181: 0x0F01 [0x45] LOAD_SCHEDULED_TASK: Load scheduler "s182" with entities [EventEntity, EventEntity], work=[761*, 0*]
182: 0x0F12 [0x5B] LOAD_EXT_SCHEDULER: Load scheduler "tkb0" with entities [Zeid (ID: 17957434/0x0112023A), Zeid (ID: 17957434/0x0112023A)], work=244*
183: 0x0F21 [0x2B] Zeid (ID: 17957434/0x0112023A) [7432*]:
    → "What if...history were being rewritten?"
184: 0x0F28 [0x23] WAIT_FOR_DIALOG_INTERACTION
185: 0x0F29 [0x5B] LOAD_EXT_SCHEDULER: Load scheduler "tkb1" with entities [Zeid (ID: 17957434/0x0112023A), Zeid (ID: 17957434/0x0112023A)], work=244*
186: 0x0F38 [0x4A] Iroha (ID: 17957432/0x01120238) looks at Zeid (ID: 17957434/0x0112023A)
187: 0x0F41 [0x1C] WAIT(30* ticks)
188: 0x0F44 [0x52] END_LOAD_SCHEDULER: End scheduler "s182" with entities [EventEntity, EventEntity], work=761*
189: 0x0F53 [0x45] LOAD_SCHEDULED_TASK: Load scheduler "s183" with entities [EventEntity, EventEntity], work=[761*, 0*]
190: 0x0F64 [0x5F] MULTI_HANDLER_COMPLEX(mode=0x05 - Load ext scheduler with flag (OpCode 0x5B mode 0, flag 1), ref=3862*, entity1=Iroha (ID: 17957432/0x01120238), entity2=Iroha (ID: 17957432/0x01120238), string="yes0", extra=140*)
191: 0x0F76 [0x2B] Iroha (ID: 17957432/0x01120238) [7433*]:
    → "It could be that my returning to your time has placed a stick in the wheel of fate."
192: 0x0F7D [0x23] WAIT_FOR_DIALOG_INTERACTION
193: 0x0F7E [0x2B] Iroha (ID: 17957432/0x01120238) [7434*]:
    → "Has the darkness come with me?"
194: 0x0F85 [0x23] WAIT_FOR_DIALOG_INTERACTION
195: 0x0F86 [0x5F] MULTI_HANDLER_COMPLEX(mode=0x07 - Wait scheduler task (OpCode 0x53))
196: 0x0F94 [0x52] END_LOAD_SCHEDULER: End scheduler "s183" with entities [EventEntity, EventEntity], work=761*
197: 0x0FA3 [0x45] LOAD_SCHEDULED_TASK: Load scheduler "s184" with entities [EventEntity, EventEntity], work=[761*, 0*]
198: 0x0FB4 [0x5B] LOAD_EXT_SCHEDULER: Load scheduler "tlb0" with entities [Iroha (ID: 17957432/0x01120238), Iroha (ID: 17957432/0x01120238)], work=3861*
199: 0x0FC3 [0x2B] Iroha (ID: 17957432/0x01120238) [7435*]:
    → "Though this may sound counterintuitive, I fear we must change the future if we are to save the past."
200: 0x0FCA [0x23] WAIT_FOR_DIALOG_INTERACTION
201: 0x0FCB [0x5B] LOAD_EXT_SCHEDULER: Load scheduler "tlb1" with entities [Iroha (ID: 17957432/0x01120238), Iroha (ID: 17957432/0x01120238)], work=3861*
202: 0x0FDA [0x52] END_LOAD_SCHEDULER: End scheduler "s184" with entities [EventEntity, EventEntity], work=761*
203: 0x0FE9 [0x45] LOAD_SCHEDULED_TASK: Load scheduler "s186" with entities [EventEntity, EventEntity], work=[761*, 0*]
204: 0x0FFA [0x2B] Zeid (ID: 17957434/0x0112023A) [7436*]:
    → "You are right. That is rather difficult to wrap my head around."
205: 0x1001 [0x23] WAIT_FOR_DIALOG_INTERACTION
206: 0x1002 [0x52] END_LOAD_SCHEDULER: End scheduler "s186" with entities [EventEntity, EventEntity], work=761*
207: 0x1011 [0x45] LOAD_SCHEDULED_TASK: Load scheduler "s185" with entities [EventEntity, EventEntity], work=[761*, 0*]
208: 0x1022 [0x5B] LOAD_EXT_SCHEDULER: Load scheduler "tkb0" with entities [Zeid (ID: 17957434/0x0112023A), Zeid (ID: 17957434/0x0112023A)], work=244*
209: 0x1031 [0x2B] Zeid (ID: 17957434/0x0112023A) [7437*]:
    → "Iroha, is there no way to purge this "Escha" from our land?"
210: 0x1038 [0x23] WAIT_FOR_DIALOG_INTERACTION
211: 0x1039 [0x5B] LOAD_EXT_SCHEDULER: Load scheduler "tkb1" with entities [Zeid (ID: 17957434/0x0112023A), Zeid (ID: 17957434/0x0112023A)], work=244*
212: 0x1048 [0x5B] LOAD_EXT_SCHEDULER: Load scheduler "non0" with entities [Iroha (ID: 17957432/0x01120238), Iroha (ID: 17957432/0x01120238)], work=3862*
213: 0x1057 [0x2B] Iroha (ID: 17957432/0x01120238) [7438*]:
    → "Would that I had the answers you seek."
214: 0x105E [0x1C] WAIT(140* ticks)
215: 0x1061 [0x23] WAIT_FOR_DIALOG_INTERACTION
216: 0x1062 [0x52] END_LOAD_SCHEDULER: End scheduler "s185" with entities [EventEntity, EventEntity], work=761*
217: 0x1071 [0x45] LOAD_SCHEDULED_TASK: Load scheduler "s187" with entities [EventEntity, EventEntity], work=[761*, 0*]
218: 0x1082 [0x5B] LOAD_EXT_SCHEDULER: Load scheduler "ude0" with entities [Zeid (ID: 17957434/0x0112023A), Zeid (ID: 17957434/0x0112023A)], work=244*
219: 0x1091 [0x2B] Zeid (ID: 17957434/0x0112023A) [7439*]:
    → "Then only one path lies open to us: figure out what we can for ourselves."
220: 0x1098 [0x23] WAIT_FOR_DIALOG_INTERACTION
221: 0x1099 [0x2B] Zeid (ID: 17957434/0x0112023A) [7440*]:
    → "As if this land were not dangerous enough, now we have that unholy bell to contend with."
222: 0x10A0 [0x23] WAIT_FOR_DIALOG_INTERACTION
223: 0x10A1 [0x52] END_LOAD_SCHEDULER: End scheduler "s187" with entities [EventEntity, EventEntity], work=761*
224: 0x10B0 [0x45] LOAD_SCHEDULED_TASK: Load scheduler "s188" with entities [EventEntity, EventEntity], work=[761*, 0*]
225: 0x10C1 [0x5B] LOAD_EXT_SCHEDULER: Load scheduler "yes0" with entities [Iroha (ID: 17957432/0x01120238), Iroha (ID: 17957432/0x01120238)], work=3862*
226: 0x10D0 [0x2B] Iroha (ID: 17957432/0x01120238) [7441*]:
    → "A perilous reality at best."
227: 0x10D7 [0x1C] WAIT(60* ticks)
228: 0x10DA [0xBA] SET_ENTITY_POSITION(entity_id=Lion (ID: 17957433/0x01120239), pos_x=-365.973*, pos_z=-161.660*, pos_y=0.097*, direction=344.8°*)
229: 0x10E7 [0x1C] WAIT(60* ticks)
230: 0x10EA [0x23] WAIT_FOR_DIALOG_INTERACTION
231: 0x10EB [0x52] END_LOAD_SCHEDULER: End scheduler "s188" with entities [EventEntity, EventEntity], work=761*
232: 0x10FA [0x1A] CALL_SUBROUTINE(address=0x1D3F)
233: 0x10FD [0x45] LOAD_SCHEDULED_TASK: Load scheduler "fdo1" with entities [EventEntity, EventEntity], work=[200*, 0*]
234: 0x110E [0x55] WAIT_LOAD_SCHEDULER: Wait for scheduler "fdo1" with entities [EventEntity, EventEntity], work=200*
235: 0x111D [0x52] END_LOAD_SCHEDULER: End scheduler "s195" with entities [EventEntity, EventEntity], work=761*
236: 0x112C [0x46] CAMERA_CONTROL: Restore default settings
237: 0x112E [0x45] LOAD_SCHEDULED_TASK: Load scheduler "fdi2" with entities [EventEntity, EventEntity], work=[200*, 0*]
238: 0x113F [0x21] END_EVENT
239: 0x1140 [0x00] END_REQSTACK()
```

### Event 3

#### Metadata

| Field        | Value      |
|--------------|------------|
| Entrypoint   | 0x1141     |
| Data Size    | 4576 bytes |
| Instructions | 345        |

```
      00 01 02 03 04 05 06 07  08 09 0A 0B 0C 0D 0E 0F
      -- -- -- -- -- -- -- --  -- -- -- -- -- -- -- --
1140:    42 03 01 10 00 80 43  00 43 01 03 00 00 09 10   B.....C.C......
1150: 45 01 80 F8 FF FF 7F F8  FF FF 7F 66 64 6F 31 02  E..........fdo1.
1160: 80 55 01 80 F8 FF FF 7F  F8 FF FF 7F 66 64 6F 31  .U..........fdo1
1170: 46 01 38 03 80 2F 00 3A  02 12 01 2F 00 38 02 12  F.8../.:.../.8..
1180: 01 4E 00 3A 02 12 01 4E  00 38 02 12 01 92 01 3A  .N.:...N.8.....:
1190: 02 12 01 92 01 38 02 12  01 94 01 3A 02 12 01 94  .....8.....:....
11A0: 01 38 02 12 01 94 01 F0  FF FF 7F BA 3A 02 12 01  .8..........:...
11B0: 04 80 05 80 06 80 07 80  BA F0 FF FF 7F 08 80 09  ................
11C0: 80 0A 80 0B 80 BA 38 02  12 01 0C 80 0D 80 0E 80  ......8.........
11D0: 0F 80 80 F0 FF FF 7F 80  3A 02 12 01 80 38 02 12  ........:....8..
11E0: 01 1A 0D 1F 45 11 80 F8  FF FF 7F F8 FF FF 7F 73  ....E..........s
11F0: 31 36 33 02 80 5B 12 80  3A 02 12 01 3A 02 12 01  163..[..:...:...
1200: 6B 79 72 30 2B 3A 02 12  01 13 80 1C 14 80 23 52  kyr0+:........#R
1210: 11 80 F8 FF FF 7F F8 FF  FF 7F 73 31 36 33 45 11  ..........s163E.
1220: 80 F8 FF FF 7F F8 FF FF  7F 73 31 36 34 02 80 79  .........s164..y
1230: 00 39 02 12 01 38 02 12  01 5B 15 80 38 02 12 01  .9...8...[..8...
1240: 38 02 12 01 74 6C 63 30  2B 38 02 12 01 16 80 23  8...tlc0+8.....#
1250: 5B 15 80 38 02 12 01 38  02 12 01 74 6C 63 31 52  [..8...8...tlc1R
1260: 11 80 F8 FF FF 7F F8 FF  FF 7F 73 31 36 34 45 11  ..........s164E.
1270: 80 F8 FF FF 7F F8 FF FF  7F 73 31 36 35 02 80 5B  .........s165..[
1280: 17 80 3A 02 12 01 3A 02  12 01 74 6B 62 30 2B 3A  ..:...:...tkb0+:
1290: 02 12 01 18 80 23 5B 17  80 3A 02 12 01 3A 02 12  .....#[..:...:..
12A0: 01 74 6B 62 31 52 11 80  F8 FF FF 7F F8 FF FF 7F  .tkb1R..........
12B0: 73 31 36 35 45 11 80 F8  FF FF 7F F8 FF FF 7F 73  s165E..........s
12C0: 31 36 36 02 80 5B 19 80  38 02 12 01 38 02 12 01  166..[..8...8...
12D0: 74 6C 6B 30 2B 38 02 12  01 1A 80 23 52 11 80 F8  tlk0+8.....#R...
12E0: FF FF 7F F8 FF FF 7F 73  31 36 36 45 11 80 F8 FF  .......s166E....
12F0: FF 7F F8 FF FF 7F 73 31  36 37 02 80 2B 38 02 12  ......s167..+8..
1300: 01 1B 80 23 2B 38 02 12  01 1C 80 23 BA 39 02 12  ...#+8.....#.9..
1310: 01 1D 80 1E 80 1F 80 20  80 80 39 02 12 01 02 00  ....... ..9.....
1320: 00 00 80 04 31 13 2B 38  02 12 01 21 80 23 01 39  ....1.+8...!.#.9
1330: 13 2B 38 02 12 01 22 80  23 5B 19 80 38 02 12 01  .+8...".#[..8...
1340: 38 02 12 01 74 6C 6B 31  52 11 80 F8 FF FF 7F F8  8...tlk1R.......
1350: FF FF 7F 73 31 36 37 45  11 80 F8 FF FF 7F F8 FF  ...s167E........
1360: FF 7F 73 31 36 38 02 80  5B 17 80 3A 02 12 01 3A  ..s168..[..:...:
1370: 02 12 01 74 6B 62 30 2B  3A 02 12 01 23 80 23 2B  ...tkb0+:...#.#+
1380: 3A 02 12 01 24 80 23 5B  17 80 3A 02 12 01 3A 02  :...$.#[..:...:.
1390: 12 01 74 6B 62 31 81 00  38 02 12 01 5F 05 25 80  ..tkb1..8..._.%.
13A0: 38 02 12 01 38 02 12 01  6E 6F 6E 30 26 80 2B 38  8...8...non0&.+8
13B0: 02 12 01 27 80 23 52 11  80 F8 FF FF 7F F8 FF FF  ...'.#R.........
13C0: 7F 73 31 36 38 45 11 80  F8 FF FF 7F F8 FF FF 7F  .s168E..........
13D0: 73 31 36 39 02 80 2B 38  02 12 01 28 80 23 5F 07  s169..+8...(.#_.
13E0: 38 02 12 01 38 02 12 01  6E 6F 6E 30 81 01 38 02  8...8...non0..8.
13F0: 12 01 52 11 80 F8 FF FF  7F F8 FF FF 7F 73 31 36  ..R..........s16
1400: 39 45 11 80 F8 FF FF 7F  F8 FF FF 7F 73 31 37 30  9E..........s170
1410: 02 80 45 11 80 F8 FF FF  7F F8 FF FF 7F 31 31 37  ..E..........117
1420: 61 02 80 1C 29 80 52 11  80 F8 FF FF 7F F8 FF FF  a...).R.........
1430: 7F 73 31 37 30 45 11 80  F8 FF FF 7F F8 FF FF 7F  .s170E..........
1440: 73 31 37 31 02 80 5B 12  80 3A 02 12 01 3A 02 12  s171..[..:...:..
1450: 01 6B 79 72 30 2B 3A 02  12 01 2A 80 1C 2B 80 81  .kyr0+:...*..+..
1460: 00 38 02 12 01 7C 00 38  02 12 01 5B 25 80 38 02  .8...|.8...[%.8.
1470: 12 01 38 02 12 01 74 68  6B 30 2B 38 02 12 01 2C  ..8...thk0+8...,
1480: 80 23 81 01 38 02 12 01  7C 01 38 02 12 01 5B 25  .#..8...|.8...[%
1490: 80 38 02 12 01 38 02 12  01 74 68 6B 31 03 03 10  .8...8...thk1...
14A0: 02 80 52 11 80 F8 FF FF  7F F8 FF FF 7F 73 31 37  ..R..........s17
14B0: 31 45 11 80 F8 FF FF 7F  F8 FF FF 7F 73 31 37 34  1E..........s174
14C0: 02 80 27 05 3A 02 12 01  04 7B 3A 02 12 01 1C 30  ..'.:....{:....0
14D0: 80 2B 3A 02 12 01 31 80  1C 32 80 52 11 80 F8 FF  .+:...1..2.R....
14E0: FF 7F F8 FF FF 7F 73 31  37 34 45 11 80 F8 FF FF  ......s174E.....
14F0: 7F F8 FF FF 7F 73 31 37  35 02 80 27 05 38 02 12  .....s175..'.8..
1500: 01 07 2B 38 02 12 01 33  80 23 2A 05 38 02 12 01  ..+8...3.#*.8...
1510: 2A 05 3A 02 12 01 45 11  80 F8 FF FF 7F F8 FF FF  *.:...E.........
1520: 7F 31 31 37 6B 02 80 52  11 80 F8 FF FF 7F F8 FF  .117k..R........
1530: FF 7F 73 31 37 35 45 11  80 F8 FF FF 7F F8 FF FF  ..s175E.........
1540: 7F 73 31 37 36 02 80 4A  3A 02 12 01 38 02 12 01  .s176..J:...8...
1550: 1C 32 80 5B 12 80 3A 02  12 01 3A 02 12 01 6B 79  .2.[..:...:...ky
1560: 72 30 2B 3A 02 12 01 34  80 1C 30 80 81 00 39 02  r0+:...4..0...9.
1570: 12 01 5B 2D 80 39 02 12  01 39 02 12 01 6B 61 6B  ..[-.9...9...kak
1580: 6C 1C 30 80 23 52 11 80  F8 FF FF 7F F8 FF FF 7F  l.0.#R..........
1590: 73 31 37 36 45 11 80 F8  FF FF 7F F8 FF FF 7F 73  s176E..........s
15A0: 31 37 37 02 80 5B 19 80  38 02 12 01 38 02 12 01  177..[..8...8...
15B0: 74 6C 61 30 2B 38 02 12  01 35 80 23 5B 19 80 38  tla0+8...5.#[..8
15C0: 02 12 01 38 02 12 01 74  6C 61 31 52 11 80 F8 FF  ...8...tla1R....
15D0: FF 7F F8 FF FF 7F 73 31  37 37 45 11 80 F8 FF FF  ......s177E.....
15E0: 7F F8 FF FF 7F 73 31 37  38 02 80 27 05 38 02 12  .....s178..'.8..
15F0: 01 08 2B 38 02 12 01 37  80 23 2A 05 38 02 12 01  ..+8...7.#*.8...
1600: 52 11 80 F8 FF FF 7F F8  FF FF 7F 73 31 37 38 45  R..........s178E
1610: 11 80 F8 FF FF 7F F8 FF  FF 7F 73 31 37 39 02 80  ..........s179..
1620: 4A 38 02 12 01 F0 FF FF  7F 1C 32 80 6B 69 64 6C  J8........2.kidl
1630: 30 39 02 12 01 4A F0 FF  FF 7F 38 02 12 01 5B 19  09...J....8...[.
1640: 80 38 02 12 01 38 02 12  01 74 6C 6B 30 2B 38 02  .8...8...tlk0+8.
1650: 12 01 38 80 23 2B 38 02  12 01 39 80 23 52 11 80  ..8.#+8...9.#R..
1660: F8 FF FF 7F F8 FF FF 7F  73 31 37 39 45 11 80 F8  ........s179E...
1670: FF FF 7F F8 FF FF 7F 73  31 38 30 02 80 2B 38 02  .......s180..+8.
1680: 12 01 3A 80 23 2B 38 02  12 01 3B 80 23 2B 38 02  ..:.#+8...;.#+8.
1690: 12 01 3C 80 23 52 11 80  F8 FF FF 7F F8 FF FF 7F  ..<.#R..........
16A0: 73 31 38 30 45 11 80 F8  FF FF 7F F8 FF FF 7F 73  s180E..........s
16B0: 31 38 31 02 80 2B 38 02  12 01 3D 80 23 2B 38 02  181..+8...=.#+8.
16C0: 12 01 3E 80 23 5B 19 80  38 02 12 01 38 02 12 01  ..>.#[..8...8...
16D0: 74 6C 6B 31 6E F0 FF FF  7F 3F 80 99 F0 FF FF 7F  tlk1n....?......
16E0: 1C 2F 80 52 11 80 F8 FF  FF 7F F8 FF FF 7F 73 31  ./.R..........s1
16F0: 38 31 45 11 80 F8 FF FF  7F F8 FF FF 7F 73 31 38  81E..........s18
1700: 32 02 80 5B 17 80 3A 02  12 01 3A 02 12 01 74 6B  2..[..:...:...tk
1710: 62 30 2B 3A 02 12 01 40  80 23 5B 17 80 3A 02 12  b0+:...@.#[..:..
1720: 01 3A 02 12 01 74 6B 62  31 4A 38 02 12 01 3A 02  .:...tkb1J8...:.
1730: 12 01 1C 32 80 52 11 80  F8 FF FF 7F F8 FF FF 7F  ...2.R..........
1740: 73 31 38 32 45 11 80 F8  FF FF 7F F8 FF FF 7F 73  s182E..........s
1750: 31 38 33 02 80 5F 05 25  80 38 02 12 01 38 02 12  183.._.%.8...8..
1760: 01 79 65 73 30 26 80 2B  38 02 12 01 41 80 23 2B  .yes0&.+8...A.#+
1770: 38 02 12 01 42 80 23 5F  07 38 02 12 01 38 02 12  8...B.#_.8...8..
1780: 01 79 65 73 30 52 11 80  F8 FF FF 7F F8 FF FF 7F  .yes0R..........
1790: 73 31 38 33 45 11 80 F8  FF FF 7F F8 FF FF 7F 73  s183E..........s
17A0: 31 38 34 02 80 5B 19 80  38 02 12 01 38 02 12 01  184..[..8...8...
17B0: 74 6C 62 30 2B 38 02 12  01 43 80 23 5B 19 80 38  tlb0+8...C.#[..8
17C0: 02 12 01 38 02 12 01 74  6C 62 31 52 11 80 F8 FF  ...8...tlb1R....
17D0: FF 7F F8 FF FF 7F 73 31  38 34 45 11 80 F8 FF FF  ......s184E.....
17E0: 7F F8 FF FF 7F 73 31 38  36 02 80 2B 3A 02 12 01  .....s186..+:...
17F0: 44 80 23 52 11 80 F8 FF  FF 7F F8 FF FF 7F 73 31  D.#R..........s1
1800: 38 36 45 11 80 F8 FF FF  7F F8 FF FF 7F 73 31 38  86E..........s18
1810: 35 02 80 5B 17 80 3A 02  12 01 3A 02 12 01 74 6B  5..[..:...:...tk
1820: 62 30 2B 3A 02 12 01 45  80 23 5B 17 80 3A 02 12  b0+:...E.#[..:..
1830: 01 3A 02 12 01 74 6B 62  31 5B 25 80 38 02 12 01  .:...tkb1[%.8...
1840: 38 02 12 01 6E 6F 6E 30  2B 38 02 12 01 46 80 1C  8...non0+8...F..
1850: 26 80 23 52 11 80 F8 FF  FF 7F F8 FF FF 7F 73 31  &.#R..........s1
1860: 38 35 45 11 80 F8 FF FF  7F F8 FF FF 7F 73 31 38  85E..........s18
1870: 37 02 80 5B 17 80 3A 02  12 01 3A 02 12 01 75 64  7..[..:...:...ud
1880: 65 30 2B 3A 02 12 01 47  80 23 2B 3A 02 12 01 48  e0+:...G.#+:...H
1890: 80 23 52 11 80 F8 FF FF  7F F8 FF FF 7F 73 31 38  .#R..........s18
18A0: 37 45 11 80 F8 FF FF 7F  F8 FF FF 7F 73 31 38 38  7E..........s188
18B0: 02 80 5B 25 80 38 02 12  01 38 02 12 01 79 65 73  ..[%.8...8...yes
18C0: 30 2B 38 02 12 01 49 80  1C 30 80 BA 39 02 12 01  0+8...I..0..9...
18D0: 4A 80 4B 80 4C 80 4D 80  1C 30 80 23 52 11 80 F8  J.K.L.M..0.#R...
18E0: FF FF 7F F8 FF FF 7F 73  31 38 38 1A 69 21 45 01  .......s188.i!E.
18F0: 80 F8 FF FF 7F F8 FF FF  7F 66 64 6F 31 02 80 55  .........fdo1..U
1900: 01 80 F8 FF FF 7F F8 FF  FF 7F 66 64 6F 31 52 11  ..........fdo1R.
1910: 80 F8 FF FF 7F F8 FF FF  7F 73 31 39 35 46 00 45  .........s195F.E
1920: 01 80 F8 FF FF 7F F8 FF  FF 7F 66 64 69 32 02 80  ..........fdi2..
1930: 21 00 2F 00 39 02 12 01  4E 00 39 02 12 01 92 01  !./.9...N.9.....
1940: F0 FF FF 7F 92 01 39 02  12 01 94 01 39 02 12 01  ......9.....9...
1950: BA 39 02 12 01 4E 80 4F  80 50 80 51 80 80 39 02  .9...N.O.P.Q..9.
1960: 12 01 29 05 38 02 12 01  0B 29 05 F0 FF FF 7F 0E  ..).8....)......
1970: 4A 3A 02 12 01 39 02 12  01 4A 39 02 12 01 3A 02  J:...9...J9...:.
1980: 12 01 1C 32 80 5B 17 80  3A 02 12 01 3A 02 12 01  ...2.[..:...:...
1990: 75 64 65 30 1C 30 80 45  11 80 F8 FF FF 7F F8 FF  ude0.0.E........
19A0: FF 7F 73 32 30 35 02 80  1C 52 80 45 01 80 F8 FF  ..s205...R.E....
19B0: FF 7F F8 FF FF 7F 66 64  69 31 02 80 1C 30 80 D0  ......fdi1...0..
19C0: 53 80 38 02 12 01 38 02  12 01 6D 61 69 6E 02 80  S.8...8...main..
19D0: 1C 30 80 D0 53 80 F0 FF  FF 7F F0 FF FF 7F 6D 61  .0..S.........ma
19E0: 69 6E 02 80 1C 30 80 92  00 F0 FF FF 7F 1C 30 80  in...0........0.
19F0: 52 11 80 F8 FF FF 7F F8  FF FF 7F 73 32 30 35 45  R..........s205E
1A00: 11 80 F8 FF FF 7F F8 FF  FF 7F 73 31 35 30 02 80  ..........s150..
1A10: 27 05 38 02 12 01 04 1C  54 80 27 05 F0 FF FF 7F  '.8.....T.'.....
1A20: 07 1C 26 80 52 11 80 F8  FF FF 7F F8 FF FF 7F 73  ..&.R..........s
1A30: 31 35 30 45 11 80 F8 FF  FF 7F F8 FF FF 7F 73 31  150E..........s1
1A40: 35 31 02 80 1C 2B 80 52  11 80 F8 FF FF 7F F8 FF  51...+.R........
1A50: FF 7F 73 31 35 31 45 11  80 F8 FF FF 7F F8 FF FF  ..s151E.........
1A60: 7F 73 31 35 32 02 80 5B  55 80 39 02 12 01 39 02  .s152..[U.9...9.
1A70: 12 01 74 6C 34 30 1C 32  80 7A 00 F0 FF FF 7F BA  ..tl40.2.z......
1A80: F0 FF FF 7F 56 80 57 80  58 80 59 80 BA 38 02 12  ....V.W.X.Y..8..
1A90: 01 5A 80 5B 80 50 80 5C  80 1C 32 80 27 05 38 02  .Z.[.P.\..2.'.8.
1AA0: 12 01 05 1C 54 80 27 05  F0 FF FF 7F 08 1C 5D 80  ....T.'.......].
1AB0: 52 11 80 F8 FF FF 7F F8  FF FF 7F 73 31 35 32 45  R..........s152E
1AC0: 11 80 F8 FF FF 7F F8 FF  FF 7F 73 31 35 33 02 80  ..........s153..
1AD0: 5B 55 80 39 02 12 01 39  02 12 01 74 6C 34 31 2B  [U.9...9...tl41+
1AE0: 38 02 12 01 5E 80 23 2A  05 38 02 12 01 2A 05 F0  8...^.#*.8...*..
1AF0: FF FF 7F 52 11 80 F8 FF  FF 7F F8 FF FF 7F 73 31  ...R..........s1
1B00: 35 33 45 11 80 F8 FF FF  7F F8 FF FF 7F 73 31 35  53E..........s15
1B10: 34 02 80 4A 39 02 12 01  F0 FF FF 7F 4A 3A 02 12  4..J9.......J:..
1B20: 01 38 02 12 01 1C 32 80  2B 39 02 12 01 5F 80 23  .8....2.+9..._.#
1B30: 52 11 80 F8 FF FF 7F F8  FF FF 7F 73 31 35 34 45  R..........s154E
1B40: 11 80 F8 FF FF 7F F8 FF  FF 7F 73 31 35 35 02 80  ..........s155..
1B50: 79 00 39 02 12 01 38 02  12 01 2B 39 02 12 01 60  y.9...8...+9...`
1B60: 80 23 45 01 80 F8 FF FF  7F F8 FF FF 7F 66 64 6F  .#E..........fdo
1B70: 31 02 80 55 01 80 F8 FF  FF 7F F8 FF FF 7F 66 64  1..U..........fd
1B80: 6F 31 52 11 80 F8 FF FF  7F F8 FF FF 7F 73 31 35  o1R..........s15
1B90: 35 BA 38 02 12 01 61 80  62 80 63 80 64 80 BA F0  5.8...a.b.c.d...
1BA0: FF FF 7F 65 80 66 80 67  80 68 80 80 38 02 12 01  ...e.f.g.h..8...
1BB0: 80 F0 FF FF 7F 4A 3A 02  12 01 38 02 12 01 4A 39  .....J:...8...J9
1BC0: 02 12 01 38 02 12 01 4A  F0 FF FF 7F 38 02 12 01  ...8...J....8...
1BD0: 4A 38 02 12 01 39 02 12  01 1C 32 80 5B 17 80 3A  J8...9....2.[..:
1BE0: 02 12 01 3A 02 12 01 75  64 65 30 1C 32 80 48 69  ...:...ude0.2.Hi
1BF0: 80 1C 2B 80 45 11 80 F8  FF FF 7F F8 FF FF 7F 73  ..+.E..........s
1C00: 31 35 36 02 80 1C 52 80  45 01 80 F8 FF FF 7F F8  156...R.E.......
1C10: FF FF 7F 66 64 69 31 02  80 2B 39 02 12 01 6A 80  ...fdi1..+9...j.
1C20: 23 52 11 80 F8 FF FF 7F  F8 FF FF 7F 73 31 35 36  #R..........s156
1C30: 45 11 80 F8 FF FF 7F F8  FF FF 7F 73 31 35 37 02  E..........s157.
1C40: 80 81 00 39 02 12 01 5B  6B 80 39 02 12 01 39 02  ...9...[k.9...9.
1C50: 12 01 74 68 6B 31 2B 39  02 12 01 6C 80 23 2B 39  ..thk1+9...l.#+9
1C60: 02 12 01 6D 80 23 5B 6B  80 39 02 12 01 39 02 12  ...m.#[k.9...9..
1C70: 01 74 68 6B 32 81 01 39  02 12 01 52 11 80 F8 FF  .thk2..9...R....
1C80: FF 7F F8 FF FF 7F 73 31  35 37 45 11 80 F8 FF FF  ......s157E.....
1C90: 7F F8 FF FF 7F 73 31 35  38 02 80 79 00 39 02 12  .....s158..y.9..
1CA0: 01 3A 02 12 01 2B 39 02  12 01 6E 80 23 2B 3A 02  .:...+9...n.#+:.
1CB0: 12 01 6F 80 23 4A 38 02  12 01 3A 02 12 01 4A F0  ..o.#J8...:...J.
1CC0: FF FF 7F 3A 02 12 01 1C  32 80 52 11 80 F8 FF FF  ...:....2.R.....
1CD0: 7F F8 FF FF 7F 73 31 35  38 45 11 80 F8 FF FF 7F  .....s158E......
1CE0: F8 FF FF 7F 73 31 36 32  02 80 5B 19 80 38 02 12  ....s162..[..8..
1CF0: 01 38 02 12 01 74 6C 6B  30 2B 38 02 12 01 70 80  .8...tlk0+8...p.
1D00: 23 5B 19 80 38 02 12 01  38 02 12 01 74 6C 6B 31  #[..8...8...tlk1
1D10: 5B 17 80 3A 02 12 01 3A  02 12 01 75 64 65 31 2B  [..:...:...ude1+
1D20: 3A 02 12 01 71 80 23 2B  3A 02 12 01 72 80 23 52  :...q.#+:...r.#R
1D30: 11 80 F8 FF FF 7F F8 FF  FF 7F 73 31 36 32 1B 45  ..........s162.E
1D40: 11 80 F8 FF FF 7F F8 FF  FF 7F 73 31 38 39 02 80  ..........s189..
1D50: 79 00 F0 FF FF 7F 39 02  12 01 5B 55 80 39 02 12  y.....9...[U.9..
1D60: 01 39 02 12 01 74 6C 35  30 2B 39 02 12 01 73 80  .9...tl50+9...s.
1D70: 23 BA 3A 02 12 01 74 80  75 80 02 80 76 80 80 3A  #.:...t.u...v..:
1D80: 02 12 01 79 00 3A 02 12  01 39 02 12 01 52 11 80  ...y.:...9...R..
1D90: F8 FF FF 7F F8 FF FF 7F  73 31 38 39 45 11 80 F8  ........s189E...
1DA0: FF FF 7F F8 FF FF 7F 73  31 39 30 02 80 4A 38 02  .......s190..J8.
1DB0: 12 01 39 02 12 01 1C 32  80 5B 19 80 38 02 12 01  ..9....2.[..8...
1DC0: 38 02 12 01 74 6C 6B 30  2B 38 02 12 01 77 80 23  8...tlk0+8...w.#
1DD0: 5B 19 80 38 02 12 01 38  02 12 01 74 6C 6B 31 52  [..8...8...tlk1R
1DE0: 11 80 F8 FF FF 7F F8 FF  FF 7F 73 31 39 30 45 11  ..........s190E.
1DF0: 80 F8 FF FF 7F F8 FF FF  7F 73 31 39 31 02 80 2B  .........s191..+
1E00: 39 02 12 01 78 80 23 52  11 80 F8 FF FF 7F F8 FF  9...x.#R........
1E10: FF 7F 73 31 39 31 45 11  80 F8 FF FF 7F F8 FF FF  ..s191E.........
1E20: 7F 73 31 39 32 02 80 27  05 39 02 12 01 03 1C 30  .s192..'.9.....0
1E30: 80 5B 17 80 3A 02 12 01  3A 02 12 01 75 64 65 31  .[..:...:...ude1
1E40: 2B 3A 02 12 01 79 80 1C  2B 80 52 11 80 F8 FF FF  +:...y..+.R.....
1E50: 7F F8 FF FF 7F 73 31 39  32 45 11 80 F8 FF FF 7F  .....s192E......
1E60: F8 FF FF 7F 73 31 39 33  02 80 27 05 3A 02 12 01  ....s193..'.:...
1E70: 05 4A 38 02 12 01 F0 FF  FF 7F 79 00 F0 FF FF 7F  .J8.......y.....
1E80: 38 02 12 01 1C 32 80 5B  19 80 38 02 12 01 38 02  8....2.[..8...8.
1E90: 12 01 74 6C 6B 30 2B 38  02 12 01 7A 80 23 5B 19  ..tlk0+8...z.#[.
1EA0: 80 38 02 12 01 38 02 12  01 74 6C 6B 31 52 11 80  .8...8...tlk1R..
1EB0: F8 FF FF 7F F8 FF FF 7F  73 31 39 33 45 11 80 F8  ........s193E...
1EC0: FF FF 7F F8 FF FF 7F 73  31 39 34 02 80 2B 38 02  .......s194..+8.
1ED0: 12 01 7B 80 1C 7C 80 23  52 11 80 F8 FF FF 7F F8  ..{..|.#R.......
1EE0: FF FF 7F 73 31 39 34 45  11 80 F8 FF FF 7F F8 FF  ...s194E........
1EF0: FF 7F 73 31 39 35 02 80  27 05 38 02 12 01 09 1C  ..s195..'.8.....
1F00: 52 80 27 05 F0 FF FF 7F  0A 1C 7D 80 1B 92 01 F0  R.'.......}.....
1F10: FF FF 7F 29 05 38 02 12  01 0B 29 05 F0 FF FF 7F  ...).8....).....
1F20: 0E 1C 32 80 5B 17 80 3A  02 12 01 3A 02 12 01 75  ..2.[..:...:...u
1F30: 64 65 30 1C 32 80 45 11  80 F8 FF FF 7F F8 FF FF  de0.2.E.........
1F40: 7F 73 32 30 35 02 80 1C  52 80 45 01 80 F8 FF FF  .s205...R.E.....
1F50: 7F F8 FF FF 7F 66 64 69  31 02 80 1C 30 80 D0 53  .....fdi1...0..S
1F60: 80 38 02 12 01 38 02 12  01 6D 61 69 6E 02 80 1C  .8...8...main...
1F70: 30 80 D0 53 80 F0 FF FF  7F F0 FF FF 7F 6D 61 69  0..S.........mai
1F80: 6E 02 80 1C 30 80 92 00  F0 FF FF 7F 1C 30 80 52  n...0........0.R
1F90: 11 80 F8 FF FF 7F F8 FF  FF 7F 73 32 30 35 45 11  ..........s205E.
1FA0: 80 F8 FF FF 7F F8 FF FF  7F 73 31 35 30 02 80 27  .........s150..'
1FB0: 05 38 02 12 01 04 1C 54  80 27 05 F0 FF FF 7F 07  .8.....T.'......
1FC0: 1C 26 80 52 11 80 F8 FF  FF 7F F8 FF FF 7F 73 31  .&.R..........s1
1FD0: 35 30 45 11 80 F8 FF FF  7F F8 FF FF 7F 73 31 35  50E..........s15
1FE0: 31 02 80 1C 2B 80 52 11  80 F8 FF FF 7F F8 FF FF  1...+.R.........
1FF0: 7F 73 31 35 31 45 11 80  F8 FF FF 7F F8 FF FF 7F  .s151E..........
2000: 73 31 35 32 02 80 1C 32  80 7A 00 F0 FF FF 7F BA  s152...2.z......
2010: F0 FF FF 7F 56 80 57 80  58 80 59 80 BA 38 02 12  ....V.W.X.Y..8..
2020: 01 5A 80 5B 80 50 80 5C  80 1C 32 80 27 05 38 02  .Z.[.P.\..2.'.8.
2030: 12 01 06 1C 32 80 27 05  F0 FF FF 7F 09 1C 32 80  ....2.'.......2.
2040: 52 11 80 F8 FF FF 7F F8  FF FF 7F 73 31 35 32 45  R..........s152E
2050: 11 80 F8 FF FF 7F F8 FF  FF 7F 73 31 35 39 02 80  ..........s159..
2060: 2A 05 38 02 12 01 2A 05  F0 FF FF 7F 1C 32 80 52  *.8...*......2.R
2070: 11 80 F8 FF FF 7F F8 FF  FF 7F 73 31 35 39 45 11  ..........s159E.
2080: 80 F8 FF FF 7F F8 FF FF  7F 73 31 36 30 02 80 2B  .........s160..+
2090: 38 02 12 01 7E 80 23 6B  69 64 6C 30 3A 02 12 01  8...~.#kidl0:...
20A0: BA 38 02 12 01 61 80 62  80 63 80 64 80 BA F0 FF  .8...a.b.c.d....
20B0: FF 7F 65 80 66 80 67 80  68 80 4A 38 02 12 01 3A  ..e.f.g.h.J8...:
20C0: 02 12 01 4A F0 FF FF 7F  3A 02 12 01 1C 32 80 52  ...J....:....2.R
20D0: 11 80 F8 FF FF 7F F8 FF  FF 7F 73 31 36 30 45 11  ..........s160E.
20E0: 80 F8 FF FF 7F F8 FF FF  7F 73 31 36 31 02 80 2B  .........s161..+
20F0: 3A 02 12 01 7F 80 23 52  11 80 F8 FF FF 7F F8 FF  :.....#R........
2100: FF 7F 73 31 36 31 45 11  80 F8 FF FF 7F F8 FF FF  ..s161E.........
2110: 7F 73 31 36 32 02 80 5B  19 80 38 02 12 01 38 02  .s162..[..8...8.
2120: 12 01 74 6C 6B 30 2B 38  02 12 01 70 80 23 5B 19  ..tlk0+8...p.#[.
2130: 80 38 02 12 01 38 02 12  01 74 6C 6B 31 4A 3A 02  .8...8...tlk1J:.
2140: 12 01 38 02 12 01 1C 32  80 2B 3A 02 12 01 71 80  ..8....2.+:...q.
2150: 23 2B 3A 02 12 01 72 80  23 52 11 80 F8 FF FF 7F  #+:...r.#R......
2160: F8 FF FF 7F 73 31 36 32  1B 45 11 80 F8 FF FF 7F  ....s162.E......
2170: F8 FF FF 7F 73 31 37 39  02 80 4A 38 02 12 01 F0  ....s179..J8....
2180: FF FF 7F 1C 32 80 5B 19  80 38 02 12 01 38 02 12  ....2.[..8...8..
2190: 01 74 6C 6B 30 2B 38 02  12 01 80 80 23 5B 19 80  .tlk0+8.....#[..
21A0: 38 02 12 01 38 02 12 01  74 6C 6B 31 5B 17 80 3A  8...8...tlk1[..:
21B0: 02 12 01 3A 02 12 01 75  64 65 31 2B 3A 02 12 01  ...:...ude1+:...
21C0: 81 80 23 52 11 80 F8 FF  FF 7F F8 FF FF 7F 73 31  ..#R..........s1
21D0: 37 39 45 11 80 F8 FF FF  7F F8 FF FF 7F 73 31 39  79E..........s19
21E0: 36 02 80 5F 05 25 80 38  02 12 01 38 02 12 01 79  6.._.%.8...8...y
21F0: 65 73 30 26 80 2B 38 02  12 01 82 80 23 2B 38 02  es0&.+8.....#+8.
2200: 12 01 83 80 23 5F 07 38  02 12 01 38 02 12 01 79  ....#_.8...8...y
2210: 65 73 30 52 11 80 F8 FF  FF 7F F8 FF FF 7F 73 31  es0R..........s1
2220: 39 36 45 11 80 F8 FF FF  7F F8 FF FF 7F 73 31 38  96E..........s18
2230: 31 02 80 5B 19 80 38 02  12 01 38 02 12 01 74 6C  1..[..8...8...tl
2240: 6B 30 2B 38 02 12 01 84  80 23 5B 19 80 38 02 12  k0+8.....#[..8..
2250: 01 38 02 12 01 74 6C 6B  31 6E F0 FF FF 7F 85 80  .8...tlk1n......
2260: 99 F0 FF FF 7F 1C 2F 80  52 11 80 F8 FF FF 7F F8  ....../.R.......
2270: FF FF 7F 73 31 38 31 45  11 80 F8 FF FF 7F F8 FF  ...s181E........
2280: FF 7F 73 31 39 37 02 80  5B 25 80 38 02 12 01 38  ..s197..[%.8...8
2290: 02 12 01 79 65 73 30 2B  38 02 12 01 86 80 1C 26  ...yes0+8......&
22A0: 80 23 52 11 80 F8 FF FF  7F F8 FF FF 7F 73 31 39  .#R..........s19
22B0: 37 45 11 80 F8 FF FF 7F  F8 FF FF 7F 73 31 39 38  7E..........s198
22C0: 02 80 27 05 38 02 12 01  0A 1C 30 80 4A 3A 02 12  ..'.8.....0.J:..
22D0: 01 38 02 12 01 1C 32 80  2B 3A 02 12 01 87 80 23  .8....2.+:.....#
22E0: 2A 05 38 02 12 01 4E 01  38 02 12 01 52 11 80 F8  *.8...N.8...R...
22F0: FF FF 7F F8 FF FF 7F 73  31 39 38 45 11 80 F8 FF  .......s198E....
2300: FF 7F F8 FF FF 7F 73 31  39 35 02 80 27 05 3A 02  ......s195..'.:.
2310: 12 01 06 1C 52 80 27 05  F0 FF FF 7F 0B 1C 7D 80  ....R.'.......}.
2320: 1B                                                .               
```

#### Opcodes

```
  0: 0x1141 [0x42] SET_CLI_EVENT_CANCEL_DATA()
  1: 0x1142 [0x03] Work_Zone[1] = 1*
  2: 0x1147 [0x43] SEND_EVENT_UPDATE: Send pending tag to server (packet 0x005B)
  3: 0x1149 [0x43] SEND_EVENT_UPDATE: Check pending flag (skip if not pending)
  4: 0x114B [0x03] ExtData[1]->WorkLocal[0] = Work_Zone[9]
  5: 0x1150 [0x45] LOAD_SCHEDULED_TASK: Load scheduler "fdo1" with entities [EventEntity, EventEntity], work=[200*, 0*]
  6: 0x1161 [0x55] WAIT_LOAD_SCHEDULER: Wait for scheduler "fdo1" with entities [EventEntity, EventEntity], work=200*
  7: 0x1170 [0x46] CAMERA_CONTROL: Disable user control
  8: 0x1172 [0x38] SET_CLIENT_EVENT_MODE(mode=27*)
  9: 0x1175 [0x2F] Zeid (ID: 17957434/0x0112023A)->Render.Flags0 &= ~0x80000 // Bit 19
 10: 0x117B [0x2F] Iroha (ID: 17957432/0x01120238)->Render.Flags0 &= ~0x80000 // Bit 19
 11: 0x1181 [0x4E] SET_ENTITY_HIDE_FLAG: Show Zeid (ID: 17957434/0x0112023A)
 12: 0x1187 [0x4E] SET_ENTITY_HIDE_FLAG: Show Iroha (ID: 17957432/0x01120238)
 13: 0x118D [0x92] Zeid (ID: 17957434/0x0112023A)->Render.Flags3 ^= 0x01
 14: 0x1193 [0x92] Iroha (ID: 17957432/0x01120238)->Render.Flags3 ^= 0x01
 15: 0x1199 [0x94] Zeid (ID: 17957434/0x0112023A)->Render.Flags3 ^= 0x01
 16: 0x119F [0x94] Iroha (ID: 17957432/0x01120238)->Render.Flags3 ^= 0x01
 17: 0x11A5 [0x94] LocalPlayer->Render.Flags3 ^= 0x01
 18: 0x11AB [0xBA] SET_ENTITY_POSITION(entity_id=Zeid (ID: 17957434/0x0112023A), pos_x=-364.953*, pos_z=-159.920*, pos_y=0.046*, direction=232.0°*)
 19: 0x11B8 [0xBA] SET_ENTITY_POSITION(entity_id=LocalPlayer, pos_x=-346.607*, pos_z=-179.791*, pos_y=1.166*, direction=247.4°*)
 20: 0x11C5 [0xBA] SET_ENTITY_POSITION(entity_id=Iroha (ID: 17957432/0x01120238), pos_x=-344.624*, pos_z=-178.523*, pos_y=1.085*, direction=243.0°*)
 21: 0x11D2 [0x80] LOAD_WAIT(entity=LocalPlayer)
 22: 0x11D7 [0x80] LOAD_WAIT(entity=Zeid (ID: 17957434/0x0112023A))
 23: 0x11DC [0x80] LOAD_WAIT(entity=Iroha (ID: 17957432/0x01120238))
 24: 0x11E1 [0x1A] CALL_SUBROUTINE(address=0x1F0D)
 25: 0x11E4 [0x45] LOAD_SCHEDULED_TASK: Load scheduler "s163" with entities [EventEntity, EventEntity], work=[761*, 0*]
 26: 0x11F5 [0x5B] LOAD_EXT_SCHEDULER: Load scheduler "kyr0" with entities [Zeid (ID: 17957434/0x0112023A), Zeid (ID: 17957434/0x0112023A)], work=247*
 27: 0x1204 [0x2B] Zeid (ID: 17957434/0x0112023A) [7404*]:
    → "The only color here is the color of death."
 28: 0x120B [0x1C] WAIT(270* ticks)
 29: 0x120E [0x23] WAIT_FOR_DIALOG_INTERACTION
 30: 0x120F [0x52] END_LOAD_SCHEDULER: End scheduler "s163" with entities [EventEntity, EventEntity], work=761*
