# 0x7FFFFFF0 - Zone Events

## Common Data

| Field            | Value                    |
|------------------|--------------------------|
| Zone             | Escha - Zi'Tah (ID: 288) |
| Block Size       | 6972 bytes               |
| Total Events     | 15                       |
| References Count | 290                      |

## List of Events

| Event ID                 | Entrypoint   |   Size |   Instructions |
|--------------------------|--------------|--------|----------------|
| [65535](#event-65535)    | 0x0000       |      1 |              1 |
| [65534](#event-65534)    | 0x0001       |      1 |              1 |
| [9100](#event-9100)      | 0x0002       |   4222 |            653 |
| [9101](#event-9101)      | 0x1080       |     83 |             19 |
| [9251](#event-9251)      | 0x10D3       |     36 |             12 |
| [9250](#event-9250)      | 0x10F7       |     36 |             12 |
| [9252](#event-9252)      | 0x111B       |   1168 |            207 |
| [65535.1](#event-655351) | 0x15AB       |     14 |              4 |
| [65535.2](#event-655352) | 0x15B9       |     22 |              6 |
| [65535.3](#event-655353) | 0x15CF       |     14 |              4 |
| [65535.4](#event-655354) | 0x15DD       |     24 |              6 |
| [65535.5](#event-655355) | 0x15F5       |     24 |              6 |
| [65535.6](#event-655356) | 0x160D       |     16 |              3 |
| [65535.7](#event-655357) | 0x161D       |     65 |              8 |
| [65535.8](#event-655358) | 0x165E       |     10 |              2 |

## DAT References (imed_data)

|   Index | Hex Value   |   Dec Value |
|---------|-------------|-------------|
|       0 | 0x0000      |           0 |
|       1 | 0x0001      |           1 |
|       2 | 0x0002      |           2 |
|       3 | 0x1D1F      |        7455 |
|       4 | 0x0120      |         288 |
|       5 | 0x0007      |           7 |
|       6 | 0x0121      |         289 |
|       7 | 0x0008      |           8 |
|       8 | 0x0016      |          22 |
|       9 | 0x0123      |         291 |
|      10 | 0x0017      |          23 |
|      11 | 0x001F      |          31 |
|      12 | 0x1D20      |        7456 |
|      13 | 0x1D21      |        7457 |
|      14 | 0x1D22      |        7458 |
|      15 | 0x1D25      |        7461 |
|      16 | 0x0003      |           3 |
|      17 | 0x1D23      |        7459 |
|      18 | 0x1D24      |        7460 |
|      19 | 0x40000000  |  1073741824 |
|      20 | 0x000F      |          15 |
|      21 | 0x0010      |          16 |
|      22 | 0x1D26      |        7462 |
|      23 | 0x0004      |           4 |
|      24 | 0x0028      |          40 |
|      25 | 0x23BC      |        9148 |
|      26 | 0x0B4D      |        2893 |
|      27 | 0xFFFFFFFF  |  4294967295 |
|      28 | 0x0020      |          32 |
|      29 | 0x0260      |         608 |
|      30 | 0x000B      |          11 |
|      31 | 0x000A      |          10 |
|      32 | 0x001E      |          30 |
|      33 | 0x007D      |         125 |
|      34 | 0x00C8      |         200 |
|      35 | 0x003C      |          60 |
|      36 | 0x007E      |         126 |
|      37 | 0x00B4      |         180 |
|      38 | 0x00A8      |         168 |
|      39 | 0x00A0      |         160 |
|      40 | 0x00A9      |         169 |
|      41 | 0xFFFFFC18  |  4294966296 |
|      42 | 0x0200      |         512 |
|      43 | 0x03E8      |        1000 |
|      44 | 0x0400      |        1024 |
|      45 | 0x0600      |        1536 |
|      46 | 0x0800      |        2048 |
|      47 | 0x0005      |           5 |
|      48 | 0x0A00      |        2560 |
|      49 | 0x0006      |           6 |
|      50 | 0x0C00      |        3072 |
|      51 | 0x0E00      |        3584 |
|      52 | 0x0009      |           9 |
|      53 | 0x000C      |          12 |
|      54 | 0x000D      |          13 |
|      55 | 0x000E      |          14 |
|      56 | 0xFFFAC810  |  4294625296 |
|      57 | 0xFFFB6068  |  4294664296 |
|      58 | 0xFFFC0478  |  4294706296 |
|      59 | 0xFFFE5250  |  4294857296 |
|      60 | 0x3C0F0     |      246000 |
|      61 | 0x6E5A0     |      452000 |
|      62 | 0x2EE00     |      192000 |
|      63 | 0xFFFDF0A8  |  4294832296 |
|      64 | 0x2710      |       10000 |
|      65 | 0xFFFBCFBC  |  4294692796 |
|      66 | 0xFFF90EA8  |  4294512296 |
|      67 | 0xFFF91C54  |  4294515796 |
|      68 | 0xFFF93B94  |  4294523796 |
|      69 | 0xFFFBB464  |  4294685796 |
|      70 | 0xFFF96E5C  |  4294536796 |
|      71 | 0x443CC     |      279500 |
|      72 | 0x2D2A8     |      185000 |
|      73 | 0x6C46C     |      443500 |
|      74 | 0x6F34C     |      455500 |
|      75 | 0x852DC     |      545500 |
|      76 | 0x42E50     |      274000 |
|      77 | 0xFFFFFB50  |  4294966096 |
|      78 | 0xFFF87498  |  4294472856 |
|      79 | 0xFFF9D5E0  |  4294563296 |
|      80 | 0xFFF7E438  |  4294435896 |
|      81 | 0xFFF78A60  |  4294412896 |
|      82 | 0x1A1F8     |      107000 |
|      83 | 0x3B344     |      242500 |
|      84 | 0x9C658     |      640600 |
|      85 | 0xFFFA5FB0  |  4294598576 |
|      86 | 0xFFF72660  |  4294387296 |
|      87 | 0xFFFA0F9C  |  4294578076 |
|      88 | 0xFFFD6020  |  4294795296 |
|      89 | 0x4B708     |      309000 |
|      90 | 0xFFFFC568  |  4294952296 |
|      91 | 0xFFFC4EB0  |  4294725296 |
|      92 | 0xFFFDBDE0  |  4294819296 |
|      93 | 0xFFFAC428  |  4294624296 |
|      94 | 0xFFFB25D0  |  4294649296 |
|      95 | 0xFFF91678  |  4294514296 |
|      96 | 0xFFF8EF68  |  4294504296 |
|      97 | 0xFFFA3D64  |  4294589796 |
|      98 | 0xFFFDBFD4  |  4294819796 |
|      99 | 0xFFFB52BC  |  4294660796 |
|     100 | 0x23280     |      144000 |
|     101 | 0x5E9AC     |      387500 |
|     102 | 0x51AA4     |      334500 |
|     103 | 0x71A5C     |      465500 |
|     104 | 0x5DFE8     |      385000 |
|     105 | 0x7D5DC     |      513500 |
|     106 | 0xFFFFBD98  |  4294950296 |
|     107 | 0xFFFA414C  |  4294590796 |
|     108 | 0xFFF7246C  |  4294386796 |
|     109 | 0xFFF8BAC0  |  4294490816 |
|     110 | 0x14C08     |       85000 |
|     111 | 0x6159E     |      398750 |
|     112 | 0x93378     |      603000 |
|     113 | 0x91FF0     |      598000 |
|     114 | 0x19E10     |      106000 |
|     115 | 0xFFF218A0  |  4294056096 |
|     116 | 0x339FA     |      211450 |
|     117 | 0xFFEFBFD8  |  4293902296 |
|     118 | 0xFFF341C6  |  4294132166 |
|     119 | 0xFFFFFFBA  |  4294967226 |
|     120 | 0xFFFFFFE2  |  4294967266 |
|     121 | 0x029E      |         670 |
|     122 | 0x0078      |         120 |
|     123 | 0x010E      |         270 |
|     124 | 0x056E      |        1390 |
|     125 | 0x0708      |        1800 |
|     126 | 0xFFFF7B30  |  4294933296 |
|     127 | 0xFFFF61CC  |  4294926796 |
|     128 | 0xFFFFF254  |  4294963796 |
|     129 | 0xFFFEE904  |  4294895876 |
|     130 | 0xFFFEE756  |  4294895446 |
|     131 | 0xFFFFF1D2  |  4294963666 |
|     132 | 0xFFFF63C0  |  4294927296 |
|     133 | 0xFFFFF1F0  |  4294963696 |
|     134 | 0xFFFEE8B4  |  4294895796 |
|     135 | 0xFFFF34E0  |  4294915296 |
|     136 | 0xFFFFB5C8  |  4294948296 |
|     137 | 0xFFFF2928  |  4294912296 |
|     138 | 0xFFFF3CB0  |  4294917296 |
|     139 | 0xFFFF4192  |  4294918546 |
|     140 | 0xFFFED978  |  4294891896 |
|     141 | 0xFFFEAA98  |  4294879896 |
|     142 | 0xFFFA4B10  |  4294593296 |
|     143 | 0xFFFE456C  |  4294853996 |
|     144 | 0xFFF9A188  |  4294549896 |
|     145 | 0xFFF94A62  |  4294527586 |
|     146 | 0xFFFB0E60  |  4294643296 |
|     147 | 0xFFF9C640  |  4294559296 |
|     148 | 0xFFF7FFF4  |  4294442996 |
|     149 | 0xFFF80120  |  4294443296 |
|     150 | 0xFFFCD380  |  4294759296 |
|     151 | 0xFFFA2BD0  |  4294585296 |
|     152 | 0x50140     |      328000 |
|     153 | 0x52C38     |      339000 |
|     154 | 0x7FAF8     |      523000 |
|     155 | 0x591C8     |      365000 |
|     156 | 0x90498     |      591000 |
|     157 | 0x4F1A0     |      324000 |
|     158 | 0xFFFFDCD8  |  4294958296 |
|     159 | 0x9E5E8     |      648680 |
|     160 | 0xFFF6F67C  |  4294375036 |
|     161 | 0xFFFA10BE  |  4294578366 |
|     162 | 0xFFF8E3B0  |  4294501296 |
|     163 | 0xFFF931D0  |  4294521296 |
|     164 | 0xFFFDAA58  |  4294814296 |
|     165 | 0xFFFBD886  |  4294695046 |
|     166 | 0x29810     |      170000 |
|     167 | 0x46118     |      287000 |
|     168 | 0x6F540     |      456000 |
|     169 | 0x86C40     |      552000 |
|     170 | 0x3E418     |      255000 |
|     171 | 0x72BF0     |      470000 |
|     172 | 0xE290      |       58000 |
|     173 | 0xFFFEF660  |  4294899296 |
|     174 | 0xFFF71E90  |  4294385296 |
|     175 | 0xFFF213D2  |  4294054866 |
|     176 | 0x33A2C     |      211500 |
|     177 | 0xFFEFCDC0  |  4293905856 |
|     178 | 0xFFF32286  |  4294124166 |
|     179 | 0xFFFF56FA  |  4294924026 |
|     180 | 0xFFFFE0C0  |  4294959296 |
|     181 | 0xFFFEEDB4  |  4294897076 |
|     182 | 0xFFFFA240  |  4294943296 |
|     183 | 0xFFFEF32C  |  4294898476 |
|     184 | 0xFFFA4804  |  4294592516 |
|     185 | 0xFFF94990  |  4294527376 |
|     186 | 0x55555555  |  1431655765 |
|     187 | 0x33333333  |   858993459 |
|     188 | 0xF0F0F0F   |   252645135 |
|     189 | 0x001C      |          28 |
|     190 | 0xFF00FF    |    16711935 |
|     191 | 0x0018      |          24 |
|     192 | 0xFFFF      |       65535 |
|     193 | 0xFFF72278  |  4294386296 |
|     194 | 0xFFEFA516  |  4293895446 |
|     195 | 0x0B0E      |        2830 |
|     196 | 0x1E29      |        7721 |
|     197 | 0x1DC2      |        7618 |
|     198 | 0x1DC9      |        7625 |
|     199 | 0x1DC3      |        7619 |
|     200 | 0x1DC7      |        7623 |
|     201 | 0x1DC0      |        7616 |
|     202 | 0x1E3B      |        7739 |
|     203 | 0x1E23      |        7715 |
|     204 | 0x1DC1      |        7617 |
|     205 | 0x16C0      |        5824 |
|     206 | 0x16C3      |        5827 |
|     207 | 0x16CB      |        5835 |
|     208 | 0x16CD      |        5837 |
|     209 | 0x1056      |        4182 |
|     210 | 0x150C      |        5388 |
|     211 | 0x150A      |        5386 |
|     212 | 0x1512      |        5394 |
|     213 | 0x150D      |        5389 |
|     214 | 0x1510      |        5392 |
|     215 | 0x16C1      |        5825 |
|     216 | 0x16C4      |        5828 |
|     217 | 0x109E      |        4254 |
|     218 | 0x16CA      |        5834 |
|     219 | 0x106E      |        4206 |
|     220 | 0x150E      |        5390 |
|     221 | 0x1515      |        5397 |
|     222 | 0x150F      |        5391 |
|     223 | 0x16CC      |        5836 |
|     224 | 0x16CE      |        5838 |
|     225 | 0x1511      |        5393 |
|     226 | 0x1509      |        5385 |
|     227 | 0x150B      |        5387 |
|     228 | 0x16C2      |        5826 |
|     229 | 0x16C5      |        5829 |
|     230 | 0x16C6      |        5830 |
|     231 | 0x106A      |        4202 |
|     232 | 0x18FF      |        6399 |
|     233 | 0x1900      |        6400 |
|     234 | 0x1901      |        6401 |
|     235 | 0x1513      |        5395 |
|     236 | 0x1902      |        6402 |
|     237 | 0x14CA      |        5322 |
|     238 | 0x109F      |        4255 |
|     239 | 0x1070      |        4208 |
|     240 | 0x194A      |        6474 |
|     241 | 0x16C8      |        5832 |
|     242 | 0x16C9      |        5833 |
|     243 | 0x153F      |        5439 |
|     244 | 0x16C7      |        5831 |
|     245 | 0x153C      |        5436 |
|     246 | 0x194B      |        6475 |
|     247 | 0x1949      |        6473 |
|     248 | 0x194C      |        6476 |
|     249 | 0x194D      |        6477 |
|     250 | 0x194E      |        6478 |
|     251 | 0x0011      |          17 |
|     252 | 0x0012      |          18 |
|     253 | 0x0013      |          19 |
|     254 | 0x0014      |          20 |
|     255 | 0x0015      |          21 |
|     256 | 0x0019      |          25 |
|     257 | 0x001A      |          26 |
|     258 | 0x001B      |          27 |
|     259 | 0x001D      |          29 |
|     260 | 0x0021      |          33 |
|     261 | 0x0022      |          34 |
|     262 | 0x0023      |          35 |
|     263 | 0x0024      |          36 |
|     264 | 0x0025      |          37 |
|     265 | 0x0026      |          38 |
|     266 | 0x0027      |          39 |
|     267 | 0x002A      |          42 |
|     268 | 0x002B      |          43 |
|     269 | 0x002C      |          44 |
|     270 | 0x002D      |          45 |
|     271 | 0x002E      |          46 |
|     272 | 0xFFFAB06E  |  4294619246 |
|     273 | 0xFFFD4D1B  |  4294790427 |
|     274 | 0x02DF      |         735 |
|     275 | 0xFFFA7C30  |  4294605872 |
|     276 | 0xFFFD8379  |  4294804345 |
|     277 | 0xFFFA7B37  |  4294605623 |
|     278 | 0xFFFD87CD  |  4294805453 |
|     279 | 0xFFFA7971  |  4294605169 |
|     280 | 0xFFFD8678  |  4294805112 |
|     281 | 0xFFFAA3DB  |  4294616027 |
|     282 | 0xFFFD711B  |  4294799643 |
|     283 | 0x016E      |         366 |
|     284 | 0xFFFAC78E  |  4294625166 |
|     285 | 0xFFFD3A23  |  4294785571 |
|     286 | 0x05DD      |        1501 |
|     287 | 0x0741      |        1857 |
|     288 | 0x007B      |         123 |
|     289 | 0x00C9      |         201 |

## String References

- **7455**: Light begins to shimmer and twist as you pass your hand over it.
- **7456**: The blinding light obscures your vision of the world beyond.
- **7457**: Your pinches of escha silt trigger a faint reaction in the light, granting a small glimpse of what lies beyond.
- **7459**: Traverse the light? ($0 silt) [Let's do it. ($1 silt)/Do not go into the light!]
- **7460**: You do not have enough escha silt.
- **7461**: What do you do? [Nothing for now./Use escha silt./Teleport using $0./Teleport using $6.]
- **7462**: Traverse the light? [Let's do this./No, wait!]
- **7616**: Which temporary item will you obtain? [None of them./$0/$1/$2/$3/$4/$5/$6@/$7/Destroy treasure chest.]
- **7617**: Which item will you obtain? [None of them./$0/$1/$2/$3/$4/$5/$6/$7/Destroy treasure chest.]
- **7618**: This treasure chest has been fitted with a unique combination lock that randomly generates numbers from 1\`99. Opening it requires you to guess whether the next number is greater or less than the previous.
- **7619**: Previous: $0 ($1 tr[y/ies] left) [Do nothing./Twist number dial up./Twist number dial down.]
- **7623**: The chest will be lost. Proceed? [Yes, destroy./No, cancel.]
- **7625**: What will you do? [Do nothing./Attempt to unlock it./Destroy the chest.]
- **7715**: Obtain this item? [Yes./No.]
- **7721**: The chest is locked.
- **7739**: Obtain this item?

## Events

### Event 65535

#### Metadata

| Field        | Value   |
|--------------|---------|
| Entrypoint   | 0x0000  |
| Data Size    | 1 bytes |
| Instructions | 1       |

```
      00 01 02 03 04 05 06 07  08 09 0A 0B 0C 0D 0E 0F
      -- -- -- -- -- -- -- --  -- -- -- -- -- -- -- --
0000: 00                                                .               
```

#### Opcodes

```
  0: 0x0000 [0x00] END_REQSTACK()
```

### Event 65534

#### Metadata

| Field        | Value   |
|--------------|---------|
| Entrypoint   | 0x0001  |
| Data Size    | 1 bytes |
| Instructions | 1       |

```
      00 01 02 03 04 05 06 07  08 09 0A 0B 0C 0D 0E 0F
      -- -- -- -- -- -- -- --  -- -- -- -- -- -- -- --
0000:    00                                              .              
```

#### Opcodes

```
  0: 0x0001 [0x00] END_REQSTACK()
```

### Event 9100

#### Metadata

| Field        | Value      |
|--------------|------------|
| Entrypoint   | 0x0002     |
| Data Size    | 4222 bytes |
| Instructions | 544        |

```
      00 01 02 03 04 05 06 07  08 09 0A 0B 0C 0D 0E 0F
      -- -- -- -- -- -- -- --  -- -- -- -- -- -- -- --
0000:       03 00 00 03 10 03  06 00 04 10 03 01 00 05    ..............
0010: 10 03 08 00 06 10 03 03  00 07 10 03 09 00 08 10  ................
0020: 03 21 00 09 10 41 00 80  00 80 08 00 02 00 41 01  .!...A........A.
0030: 80 02 80 08 00 0A 00 02  02 00 00 80 02 43 00 48  .............C.H
0040: 03 80 23 06 0C 00 06 0D  00 06 05 00 02 06 00 04  ..#.............
0050: 80 80 60 00 41 00 80 05  80 00 00 24 00 01 88 00  ..`.A......$....
0060: 02 06 00 06 80 80 74 00  41 07 80 08 80 00 00 24  ......t.A......$
0070: 00 01 88 00 02 06 00 09  80 80 88 00 41 0A 80 0B  ............A...
0080: 80 00 00 24 00 01 88 00  1A CB 0F 02 06 00 04 80  ...$............
0090: 80 AC 00 02 24 00 01 80  00 A2 00 48 0C 80 23 01  ....$......H..#.
00A0: A9 00 48 0D 80 23 1A 38  01 01 36 01 02 06 00 06  ..H..#.8..6.....
00B0: 80 80 F1 00 02 24 00 01  80 00 D5 00 02 0A 00 00  .....$..........
00C0: 80 00 CB 00 48 0C 80 23  01 D2 00 48 0D 80 23 1A  ....H..#...H..#.
00D0: A7 01 01 EE 00 02 0A 00  00 80 00 E7 00 48 0D 80  .............H..
00E0: 23 1A 38 01 01 EE 00 48  0D 80 23 1A A7 01 01 36  #.8....H..#....6
00F0: 01 02 06 00 09 80 80 36  01 02 24 00 01 80 00 1A  .......6..$.....
0100: 01 02 0A 00 00 80 00 10  01 48 0C 80 23 01 17 01  .........H..#...
0110: 48 0D 80 23 1A A7 01 01  33 01 02 0A 00 00 80 00  H..#....3.......
0120: 2C 01 48 0D 80 23 1A 38  01 01 33 01 48 0D 80 23  ,.H..#.8..3.H..#
0130: 1A A7 01 01 36 01 21 00  06 10 00 06 0F 00 06 0E  ....6.!.........
0140: 00 02 10 00 00 80 00 A6  01 1A 20 07 02 06 00 04  .......... .....
0150: 80 80 5C 01 03 02 10 00  80 01 7C 01 02 06 00 06  ..\.......|.....
0160: 80 80 6C 01 03 02 10 00  80 01 7C 01 02 06 00 09  ..l.......|.....
0170: 80 80 7C 01 03 02 10 01  80 01 7C 01 D4 00 0E 80  ..|.......|.....
0180: 0F 00 0E 00 25 02 00 10  00 80 00 93 01 05 10 00  ....%...........
0190: 01 93 01 03 0F 00 00 10  02 10 00 00 80 00 A3 01  ................
01A0: 1A 44 03 01 41 01 1B 02  0D 00 00 80 00 43 03 1A  .D..A........C..
01B0: 1D 06 24 0F 80 0C 00 0B  00 25 02 00 10 00 80 00  ..$......%......
01C0: C8 01 05 0D 00 01 C8 01  03 0C 00 00 10 02 0D 00  ................
01D0: 00 80 00 40 03 02 0C 00  01 80 80 4E 02 06 10 00  ...@.......N....
01E0: 06 0F 00 06 0E 00 02 10  00 00 80 00 4B 02 1A 20  ............K.. 
01F0: 07 02 06 00 04 80 80 01  02 03 02 10 00 80 01 21  ...............!
0200: 02 02 06 00 06 80 80 11  02 03 02 10 00 80 01 21  ...............!
0210: 02 02 06 00 09 80 80 21  02 03 02 10 01 80 01 21  .......!.......!
0220: 02 D4 00 0E 80 0F 00 0E  00 25 02 00 10 00 80 00  .........%......
0230: 38 02 05 10 00 01 38 02  03 0F 00 00 10 02 10 00  8.....8.........
0240: 00 80 00 48 02 1A 44 03  01 E6 01 01 40 03 02 0C  ...H..D.....@...
0250: 00 02 80 80 C7 02 06 10  00 06 0F 00 06 0E 00 02  ................
0260: 10 00 00 80 00 C4 02 1A  A7 07 02 06 00 04 80 80  ................
0270: 7A 02 03 02 10 00 80 01  9A 02 02 06 00 06 80 80  z...............
0280: 8A 02 03 02 10 00 80 01  9A 02 02 06 00 09 80 80  ................
0290: 9A 02 03 02 10 01 80 01  9A 02 D4 00 0E 80 0F 00  ................
02A0: 0E 00 25 02 00 10 00 80  00 B1 02 05 10 00 01 B1  ..%.............
02B0: 02 03 0F 00 00 10 02 10  00 00 80 00 C1 02 1A 3D  ...............=
02C0: 04 01 5F 02 01 40 03 02  0C 00 10 80 80 40 03 06  .._..@.......@..
02D0: 10 00 06 0F 00 06 0E 00  02 10 00 00 80 00 3D 03  ..............=.
02E0: 1A 54 08 02 06 00 04 80  80 F3 02 03 02 10 00 80  .T..............
02F0: 01 13 03 02 06 00 06 80  80 03 03 03 02 10 00 80  ................
0300: 01 13 03 02 06 00 09 80  80 13 03 03 02 10 01 80  ................
0310: 01 13 03 D4 00 0E 80 0F  00 0E 00 25 02 00 10 00  ...........%....
0320: 80 00 2A 03 05 10 00 01  2A 03 03 0F 00 00 10 02  ..*.....*.......
0330: 10 00 00 80 00 3A 03 1A  36 05 01 D8 02 01 40 03  .....:..6.....@.
0340: 01 A7 01 1B 03 1B 00 09  00 03 02 10 03 00 03 03  ................
0350: 10 1B 00 24 11 80 01 80  00 80 25 02 00 10 00 80  ...$......%.....
0360: 00 31 04 02 03 00 1B 00  03 7A 03 48 12 80 23 05  .1.......z.H..#.
0370: 0D 00 03 01 10 13 80 01  2E 04 42 1A E1 05 40 00  ..........B...@.
0380: 80 14 80 01 10 01 80 40  15 80 0B 80 01 10 04 00  .......@........
0390: 43 00 43 01 02 06 00 04  80 80 A2 03 1A 2F 09 01  C.C........../..
03A0: BE 03 02 06 00 06 80 80  B0 03 1A 2F 09 01 BE 03  .........../....
03B0: 02 06 00 09 80 80 BE 03  1A 8D 09 01 BE 03 1A EB  ................
03C0: 09 BA F0 FF FF 7F 1D 00  1F 00 1E 00 20 00 40 00  ............ .@.
03D0: 80 14 80 01 10 02 80 40  15 80 0B 80 01 10 04 00  .......@........
03E0: 47 00 1D 00 1F 00 1E 00  20 00 47 01 02 06 00 04  G....... .G.....
03F0: 80 80 FA 03 1A 58 09 01  16 04 02 06 00 06 80 80  .....X..........
0400: 08 04 1A 58 09 01 16 04  02 06 00 09 80 80 16 04  ...X............
0410: 1A B6 09 01 16 04 40 00  80 14 80 01 10 02 80 40  ......@........@
0420: 15 80 0B 80 01 10 00 80  05 0D 00 05 10 00 01 3C  ...............<
0430: 04 02 00 10 01 80 00 3C  04 01 3C 04 1B 03 1B 00  .......<..<.....
0440: 00 80 03 02 10 03 00 03  03 10 1B 00 24 16 80 01  ............$...
0450: 80 00 80 25 02 00 10 00  80 00 2A 05 02 03 00 1B  ...%......*.....
0460: 00 03 73 04 48 12 80 23  05 0D 00 03 01 10 13 80  ..s.H..#........
0470: 01 27 05 42 1A E1 05 40  00 80 14 80 01 10 01 80  .'.B...@........
0480: 40 15 80 0B 80 01 10 04  00 43 00 43 01 02 06 00  @........C.C....
0490: 04 80 80 9B 04 1A 2F 09  01 B7 04 02 06 00 06 80  ....../.........
04A0: 80 A9 04 1A 2F 09 01 B7  04 02 06 00 09 80 80 B7  ..../...........
04B0: 04 1A 8D 09 01 B7 04 1A  EB 09 BA F0 FF FF 7F 1D  ................
04C0: 00 1F 00 1E 00 20 00 40  00 80 14 80 01 10 10 80  ..... .@........
04D0: 40 15 80 0B 80 01 10 04  00 47 00 1D 00 1F 00 1E  @........G......
04E0: 00 20 00 47 01 02 06 00  04 80 80 F3 04 1A 58 09  . .G..........X.
04F0: 01 0F 05 02 06 00 06 80  80 01 05 1A 58 09 01 0F  ............X...
0500: 05 02 06 00 09 80 80 0F  05 1A B6 09 01 0F 05 40  ...............@
0510: 00 80 14 80 01 10 10 80  40 15 80 0B 80 01 10 00  ........@.......
0520: 80 05 0D 00 05 10 00 01  35 05 02 00 10 01 80 00  ........5.......
0530: 35 05 01 35 05 1B 03 1B  00 00 80 03 02 10 03 00  5..5............
0540: 03 03 10 1B 00 24 16 80  01 80 00 80 25 02 00 10  .....$......%...
0550: 00 80 00 D5 05 02 03 00  1B 00 03 6C 05 48 12 80  ...........l.H..
0560: 23 05 0D 00 03 01 10 13  80 01 D2 05 42 1A E1 05  #...........B...
0570: 40 00 80 14 80 01 10 01  80 40 15 80 0B 80 01 10  @........@......
0580: 04 00 43 00 43 01 1A 8D  09 1A EB 09 BA F0 FF FF  ..C.C...........
0590: 7F 1D 00 1F 00 1E 00 20  00 40 00 80 14 80 01 10  ....... .@......
05A0: 17 80 40 15 80 0B 80 01  10 04 00 47 00 1D 00 1F  ..@........G....
05B0: 00 1E 00 20 00 47 01 1A  B6 09 40 00 80 14 80 01  ... .G....@.....
05C0: 10 17 80 40 15 80 0B 80  01 10 00 80 05 0D 00 05  ...@............
05D0: 10 00 01 E0 05 02 00 10  01 80 00 E0 05 01 E0 05  ................
05E0: 1B 06 15 00 02 15 00 18  80 03 1C 06 9D 00 1B 0B  ................
05F0: 17 00 15 00 02 17 00 06  00 00 16 06 9D 00 6B 0B  ..............k.
0600: 13 00 15 00 02 13 00 0F  00 00 16 06 03 04 00 15  ................
0610: 00 03 15 00 18 80 0B 15  00 01 E4 05 1B 06 0B 00  ................
0620: 02 06 00 04 80 80 34 06  41 00 80 05 80 00 00 24  ......4.A......$
0630: 00 01 5C 06 02 06 00 06  80 80 48 06 41 07 80 08  ..\.......H.A...
0640: 80 00 00 24 00 01 5C 06  02 06 00 09 80 80 5C 06  ...$..\.......\.
0650: 41 0A 80 0B 80 00 00 24  00 01 5C 06 1A CB 0F 02  A......$..\.....
0660: 24 00 01 80 05 6E 06 3C  0B 00 01 80 01 80 02 06  $....n.<........
0670: 00 04 80 80 87 06 3C 0B  00 02 80 01 80 3C 0B 00  ......<......<..
0680: 10 80 01 80 01 15 07 02  06 00 06 80 80 A8 06 02  ................
0690: 0A 00 00 80 00 9E 06 3C  0B 00 02 80 01 80 3C 0B  .......<......<.
06A0: 00 10 80 01 80 01 15 07  02 06 00 09 80 80 15 07  ................
06B0: 9D 00 6B 0B 13 00 01 00  02 13 00 01 80 80 CA 06  ..k.............
06C0: 3C 0B 00 02 80 01 80 01  CA 06 02 0A 00 00 80 80  <...............
06D0: E3 06 3C 0B 00 02 80 01  80 3C 0B 00 10 80 01 80  ..<......<......
06E0: 01 12 07 02 0A 00 01 80  80 F5 06 3C 0B 00 10 80  ...........<....
06F0: 01 80 01 12 07 02 0A 00  02 80 80 07 07 3C 0B 00  .............<..
0700: 02 80 01 80 01 12 07 02  0A 00 10 80 80 12 07 01  ................
0710: 12 07 01 15 07 03 02 10  19 80 03 03 10 1A 80 1B  ................
0720: 1A 15 09 06 15 00 06 0E  00 06 19 00 03 19 00 06  ................
0730: 00 03 0E 00 1B 80 3D 0E  00 00 80 01 80 02 15 00  ......=.........
0740: 18 80 03 A6 07 3E 00 00  15 00 A0 07 02 15 00 01  .....>..........
0750: 00 01 A0 07 9D 00 1B 0B  17 00 15 00 02 17 00 06  ................
0760: 00 00 A0 07 02 15 00 1C  80 03 A0 07 9D 00 6B 0B  ..............k.
0770: 13 00 15 00 3D 0E 00 13  00 01 80 03 22 00 15 00  ....=......."...
0780: 07 22 00 1D 80 02 06 00  09 80 80 98 07 D4 01 13  ."..............
0790: 00 1E 80 22 00 01 A0 07  D4 01 13 00 1F 80 22 00  ..."..........".
07A0: 0B 15 00 01 3D 07 1B 1A  15 09 06 15 00 06 0E 00  ....=...........
07B0: 06 19 00 03 19 00 06 00  03 0E 00 1B 80 3D 0E 00  .............=..
07C0: 00 80 01 80 06 1C 00 02  06 00 04 80 80 EB 07 03  ................
07D0: 19 00 01 00 08 19 00 00  80 0B 19 00 3F 19 00 19  ............?...
07E0: 00 07 80 07 19 00 00 80  01 1F 08 02 06 00 06 80  ................
07F0: 80 0F 08 03 19 00 01 00  08 19 00 07 80 0B 19 00  ................
0800: 3F 19 00 19 00 14 80 07  19 00 07 80 01 1F 08 02  ?...............
0810: 06 00 09 80 80 1F 08 03  19 00 0A 80 01 1F 08 9D  ................
0820: 00 6B 0B 13 00 19 00 3D  0E 00 13 00 01 80 03 22  .k.....=......."
0830: 00 19 00 07 22 00 1D 80  02 06 00 09 80 80 4B 08  ....".........K.
0840: D4 01 13 00 1E 80 22 00  01 53 08 D4 01 13 00 1F  ......"..S......
0850: 80 22 00 1B 1A 15 09 06  15 00 06 0E 00 06 19 00  ."..............
0860: 03 19 00 06 00 03 0E 00  1B 80 3D 0E 00 00 80 01  ..........=.....
0870: 80 06 1C 00 02 06 00 09  80 80 F3 08 9D 00 6B 0B  ..............k.
0880: 13 00 01 00 02 13 00 07  80 01 B2 08 03 19 00 20  ............... 
0890: 80 9D 00 6B 0B 13 00 19  00 3D 0E 00 13 00 01 80  ...k.....=......
08A0: 03 22 00 19 00 07 22 00  1D 80 D4 01 13 00 1E 80  ."....".........
08B0: 22 00 9D 00 6B 0B 13 00  01 00 02 13 00 1F 80 01  "...k...........
08C0: F0 08 03 19 00 20 80 07  19 00 02 80 9D 00 6B 0B  ..... ........k.
08D0: 13 00 19 00 3D 0E 00 13  00 01 80 03 22 00 20 80  ....=.......". .
08E0: 0B 22 00 07 22 00 1D 80  D4 01 13 00 1E 80 22 00  ."..".........".
08F0: 01 14 09 9D 00 6B 0B 13  00 19 00 3D 0E 00 13 00  .....k.....=....
0900: 01 80 03 22 00 19 00 07  22 00 1D 80 D4 01 13 00  ..."....".......
0910: 1F 80 22 00 1B 06 15 00  02 15 00 18 80 03 2E 09  ..".............
0920: 9D 05 CB 0A 00 80 15 00  0B 15 00 01 18 09 1B D0  ................
0930: 21 80 F8 FF FF 7F F8 FF  FF 7F 6D 61 69 6E 00 80  !.........main..
0940: 1C 22 80 45 22 80 F0 FF  FF 7F F0 FF FF 7F 66 64  .".E".........fd
0950: 6F 31 00 80 1C 23 80 1B  45 22 80 F0 FF FF 7F F0  o1...#..E"......
0960: FF FF 7F 66 64 69 31 00  80 D0 24 80 F8 FF FF 7F  ...fdi1...$.....
0970: F8 FF FF 7F 6D 61 69 6E  00 80 1C 25 80 55 22 80  ....main...%.U".
0980: F0 FF FF 7F F0 FF FF 7F  66 64 69 31 1B D0 26 80  ........fdi1..&.
0990: F8 FF FF 7F F8 FF FF 7F  6D 61 69 6E 00 80 1C 27  ........main...'
09A0: 80 45 22 80 F0 FF FF 7F  F0 FF FF 7F 66 64 6F 31  .E".........fdo1
09B0: 00 80 1C 23 80 1B 45 22  80 F0 FF FF 7F F0 FF FF  ...#..E"........
09C0: 7F 66 64 69 31 00 80 D0  28 80 F8 FF FF 7F F8 FF  .fdi1...(.......
09D0: FF 7F 6D 61 69 6E 00 80  1C 27 80 55 22 80 F0 FF  ..main...'.U"...
09E0: FF 7F F0 FF FF 7F 66 64  69 31 1B 06 15 00 9D 00  ......fdi1......
09F0: 0B 0C 1D 00 04 00 9D 00  AB 0C 1E 00 04 00 9D 00  ................
0A00: 5B 0C 1F 00 04 00 9D 00  4B 0D 23 00 04 00 02 23  [.......K.#....#
0A10: 00 00 80 80 23 0A 03 20  00 00 80 07 1D 00 29 80  ....#.. ......).
0A20: 01 CA 0A 02 23 00 01 80  80 3D 0A 03 20 00 2A 80  ....#....=.. .*.
0A30: 07 1D 00 29 80 07 1F 00  2B 80 01 CA 0A 02 23 00  ...)....+.....#.
0A40: 02 80 80 52 0A 03 20 00  2C 80 07 1F 00 2B 80 01  ...R.. .,....+..
0A50: CA 0A 02 23 00 10 80 80  6C 0A 03 20 00 2D 80 07  ...#....l.. .-..
0A60: 1D 00 2B 80 07 1F 00 2B  80 01 CA 0A 02 23 00 17  ..+....+.....#..
0A70: 80 80 81 0A 03 20 00 2E  80 07 1D 00 2B 80 01 CA  ..... ......+...
0A80: 0A 02 23 00 2F 80 80 9B  0A 03 20 00 30 80 07 1D  ..#./..... .0...
0A90: 00 2B 80 07 1F 00 29 80  01 CA 0A 02 23 00 31 80  .+....).....#.1.
0AA0: 80 B0 0A 03 20 00 32 80  07 1F 00 29 80 01 CA 0A  .... .2....)....
0AB0: 02 23 00 05 80 80 CA 0A  03 20 00 33 80 07 1D 00  .#....... .3....
0AC0: 29 80 07 1F 00 29 80 01  CA 0A 1B 03 10 04 10 05  )....)..........
0AD0: 10 06 10 07 10 08 10 09  10 00 17 01 17 02 17 03  ................
0AE0: 17 04 17 05 17 06 17 07  17 08 17 09 17 0A 17 0B  ................
0AF0: 17 0C 17 0D 17 0E 17 0F  17 10 17 11 17 12 17 13  ................
0B00: 17 14 17 15 17 16 17 17  17 18 17 19 17 1A 17 1B  ................
0B10: 17 1C 17 1D 17 1E 17 1F  17 02 10 04 80 04 80 04  ................
0B20: 80 04 80 04 80 04 80 04  80 04 80 06 80 06 80 06  ................
0B30: 80 06 80 06 80 06 80 06  80 06 80 06 80 06 80 06  ................
0B40: 80 06 80 06 80 06 80 06  80 09 80 09 80 09 80 09  ................
0B50: 80 09 80 09 80 09 80 09  80 09 80 09 80 00 80 00  ................
0B60: 80 00 80 00 80 00 80 00  80 00 80 01 80 02 80 10  ................
0B70: 80 17 80 2F 80 31 80 05  80 07 80 01 80 02 80 10  .../.1..........
0B80: 80 17 80 2F 80 31 80 05  80 07 80 34 80 1F 80 1E  .../.1.....4....
0B90: 80 35 80 36 80 37 80 14  80 01 80 02 80 10 80 17  .5.6.7..........
0BA0: 80 2F 80 31 80 05 80 07  80 34 80 1F 80 00 80 00  ./.1.....4......
0BB0: 80 00 80 00 80 00 80 00  80 00 80 00 80 00 80 00  ................
0BC0: 80 00 80 00 80 00 80 00  80 00 80 00 80 00 80 00  ................
0BD0: 80 00 80 00 80 00 80 00  80 00 80 00 80 00 80 00  ................
0BE0: 80 00 80 00 80 00 80 00  80 00 80 00 80 00 80 00  ................
0BF0: 80 00 80 00 80 00 80 00  80 00 80 00 80 00 80 00  ................
0C00: 80 00 80 00 80 00 80 00  80 00 80 38 80 39 80 3A  ...........8.9.:
0C10: 80 3B 80 3C 80 3D 80 3E  80 3F 80 40 80 41 80 42  .;.<.=.>.?.@.A.B
0C20: 80 43 80 44 80 45 80 46  80 00 80 47 80 48 80 49  .C.D.E.F...G.H.I
0C30: 80 4A 80 4B 80 4C 80 4D  80 4E 80 4F 80 50 80 51  .J.K.L.M.N.O.P.Q
0C40: 80 52 80 53 80 54 80 55  80 56 80 57 80 00 80 00  .R.S.T.U.V.W....
0C50: 80 00 80 00 80 00 80 00  80 00 80 58 80 59 80 5A  ...........X.Y.Z
0C60: 80 5B 80 5C 80 5D 80 5E  80 5F 80 60 80 61 80 62  .[.\.].^._.`.a.b
0C70: 80 63 80 64 80 65 80 66  80 67 80 68 80 69 80 64  .c.d.e.f.g.h.i.d
0C80: 80 62 80 6A 80 6B 80 6C  80 6D 80 6E 80 6F 80 70  .b.j.k.l.m.n.o.p
0C90: 80 71 80 72 80 73 80 74  80 75 80 76 80 00 80 00  .q.r.s.t.u.v....
0CA0: 80 00 80 00 80 00 80 00  80 00 80 77 80 78 80 79  ...........w.x.y
0CB0: 80 7A 80 7B 80 7C 80 22  80 7D 80 7E 80 7F 80 80  .z.{.|.".}.~....
0CC0: 80 81 80 7F 80 80 80 82  80 7F 80 83 80 82 80 84  ................
0CD0: 80 85 80 86 80 7F 80 87  80 88 80 89 80 8A 80 8B  ................
0CE0: 80 8C 80 8D 80 8E 80 8F  80 90 80 91 80 00 80 00  ................
0CF0: 80 00 80 00 80 00 80 00  80 00 80 00 80 00 80 00  ................
0D00: 80 00 80 00 80 00 80 00  80 00 80 00 80 00 80 00  ................
0D10: 80 00 80 00 80 00 80 00  80 00 80 00 80 00 80 00  ................
0D20: 80 00 80 00 80 00 80 00  80 00 80 00 80 00 80 00  ................
0D30: 80 00 80 00 80 00 80 00  80 00 80 00 80 00 80 00  ................
0D40: 80 00 80 00 80 00 80 00  80 00 80 00 80 31 80 31  .............1.1
0D50: 80 02 80 00 80 31 80 00  80 2F 80 31 80 05 80 17  .....1.../.1....
0D60: 80 05 80 00 80 2F 80 01  80 02 80 05 80 10 80 17  ...../..........
0D70: 80 00 80 17 80 2F 80 31  80 00 80 02 80 10 80 31  ...../.1.......1
0D80: 80 02 80 17 80 2F 80 02  80 00 80 00 80 00 80 00  ...../..........
0D90: 80 00 80 00 80 00 80 00  80 00 80 06 80 06 80 06  ................
0DA0: 80 06 80 06 80 06 80 06  80 06 80 06 80 06 80 06  ................
0DB0: 80 06 80 06 80 06 80 06  80 09 80 09 80 09 80 09  ................
0DC0: 80 00 80 00 80 00 80 00  80 00 80 00 80 00 80 00  ................
0DD0: 80 00 80 00 80 00 80 00  80 00 80 00 80 00 80 00  ................
0DE0: 80 00 80 00 80 00 80 00  80 00 80 01 80 02 80 10  ................
0DF0: 80 17 80 2F 80 31 80 05  80 07 80 34 80 1F 80 1E  .../.1.....4....
0E00: 80 35 80 36 80 37 80 14  80 01 80 02 80 10 80 17  .5.6.7..........
0E10: 80 00 80 00 80 00 80 00  80 00 80 00 80 00 80 00  ................
0E20: 80 00 80 00 80 00 80 00  80 00 80 00 80 00 80 00  ................
0E30: 80 00 80 00 80 00 80 00  80 00 80 00 80 00 80 00  ................
0E40: 80 00 80 00 80 00 80 00  80 00 80 00 80 00 80 00  ................
0E50: 80 00 80 00 80 00 80 00  80 00 80 00 80 00 80 00  ................
0E60: 80 00 80 00 80 00 80 00  80 00 80 00 80 00 80 00  ................
0E70: 80 00 80 00 80 00 80 00  80 00 80 00 80 00 80 00  ................
0E80: 80 00 80 00 80 00 80 00  80 00 80 5A 80 92 80 93  ...........Z....
0E90: 80 94 80 95 80 96 80 97  80 00 80 98 80 99 80 9A  ................
0EA0: 80 9B 80 9C 80 9D 80 9E  80 9F 80 61 80 A0 80 A1  ...........a....
0EB0: 80 00 80 00 80 00 80 00  80 00 80 00 80 00 80 00  ................
0EC0: 80 00 80 00 80 00 80 00  80 00 80 00 80 00 80 00  ................
0ED0: 80 00 80 00 80 00 80 00  80 00 80 A2 80 A3 80 A4  ................
0EE0: 80 A5 80 A6 80 A7 80 A8  80 A9 80 AA 80 AB 80 A6  ................
0EF0: 80 AC 80 AD 80 A3 80 AE  80 AF 80 B0 80 B1 80 B2  ................
0F00: 80 00 80 00 80 00 80 00  80 00 80 00 80 00 80 00  ................
0F10: 80 00 80 00 80 00 80 00  80 00 80 00 80 00 80 00  ................
0F20: 80 00 80 00 80 00 80 00  80 00 80 7E 80 B3 80 B4  ...........~....
0F30: 80 B5 80 B3 80 B4 80 AD  80 B3 80 B6 80 B7 80 B3  ................
0F40: 80 B6 80 B5 80 B3 80 87  80 B8 80 8F 80 90 80 B9  ................
0F50: 80 00 80 00 80 00 80 00  80 00 80 00 80 00 80 00  ................
0F60: 80 00 80 00 80 00 80 00  80 00 80 00 80 00 80 00  ................
0F70: 80 00 80 00 80 00 80 00  80 00 80 00 80 00 80 00  ................
0F80: 80 00 80 00 80 00 80 00  80 00 80 00 80 00 80 00  ................
0F90: 80 00 80 00 80 00 80 00  80 00 80 00 80 00 80 00  ................
0FA0: 80 00 80 00 80 00 80 00  80 00 80 00 80 00 80 00  ................
0FB0: 80 00 80 00 80 00 80 00  80 00 80 00 80 00 80 00  ................
0FC0: 80 00 80 00 80 00 80 00  80 00 80 03 25 00 24 00  ............%.$.
0FD0: 03 26 00 24 00 0D 25 00  BA 80 11 26 00 01 80 40  .&.$..%....&...@
0FE0: 0B 80 0B 80 26 00 00 80  0D 26 00 BA 80 07 25 00  ....&....&....%.
0FF0: 26 00 03 26 00 25 00 0D  25 00 BB 80 11 26 00 02  &..&.%..%....&..
1000: 80 40 20 80 0B 80 26 00  00 80 0D 26 00 BB 80 07  .@ ...&....&....
1010: 25 00 26 00 03 26 00 25  00 0D 25 00 BC 80 11 26  %.&..&.%..%....&
1020: 00 17 80 40 BD 80 0B 80  26 00 00 80 0D 26 00 BC  ...@....&....&..
1030: 80 07 25 00 26 00 03 26  00 25 00 0D 25 00 BE 80  ..%.&..&.%..%...
1040: 11 26 00 07 80 40 BF 80  0B 80 26 00 00 80 0D 26  .&...@....&....&
1050: 00 BE 80 07 25 00 26 00  03 26 00 25 00 0D 25 00  ....%.&..&.%..%.
1060: C0 80 11 26 00 15 80 40  15 80 0B 80 26 00 00 80  ...&...@....&...
1070: 0D 26 00 C0 80 07 25 00  26 00 03 24 00 25 00 1B  .&....%.&..$.%..
```

#### Opcodes

```
  0: 0x0002 [0x03] ExtData[1]->WorkLocal[0] = Work_Zone[3]
  1: 0x0007 [0x03] ExtData[1]->WorkLocal[6] = Work_Zone[4]
  2: 0x000C [0x03] ExtData[1]->WorkLocal[1] = Work_Zone[5]
  3: 0x0011 [0x03] ExtData[1]->WorkLocal[8] = Work_Zone[6]
  4: 0x0016 [0x03] ExtData[1]->WorkLocal[3] = Work_Zone[7]
  5: 0x001B [0x03] ExtData[1]->WorkLocal[9] = Work_Zone[8]
  6: 0x0020 [0x03] ExtData[1]->WorkLocal[33] = Work_Zone[9]
  7: 0x0025 [0x41] ExtData[1]->WorkLocal[2] = ExtData[1]->WorkLocal[8] (bits 0*-0*)
  8: 0x002E [0x41] ExtData[1]->WorkLocal[10] = ExtData[1]->WorkLocal[8] (bits 1*-2*)
  9: 0x0037 [0x02] IF !(ExtData[1]->WorkLocal[2] <= 0*) GOTO 0x0043
 10: 0x003F [0x48] [System] [7455*]:
    → "Light begins to shimmer and twist as you pass your hand over it."
 11: 0x0042 [0x23] WAIT_FOR_DIALOG_INTERACTION
 12: 0x0043 [0x06] ExtData[1]->WorkLocal[12] = 0
 13: 0x0046 [0x06] ExtData[1]->WorkLocal[13] = 0
 14: 0x0049 [0x06] ExtData[1]->WorkLocal[5] = 0
 15: 0x004C [0x02] IF !(ExtData[1]->WorkLocal[6] == 288*) GOTO 0x0060
 16: 0x0054 [0x41] ExtData[1]->WorkLocal[36] = ExtData[1]->WorkLocal[0] (bits 0*-7*)
 17: 0x005D [0x01] GOTO 0x0088
 18: 0x0060 [0x02] IF !(ExtData[1]->WorkLocal[6] == 289*) GOTO 0x0074
 19: 0x0068 [0x41] ExtData[1]->WorkLocal[36] = ExtData[1]->WorkLocal[0] (bits 8*-22*)
 20: 0x0071 [0x01] GOTO 0x0088
 21: 0x0074 [0x02] IF !(ExtData[1]->WorkLocal[6] == 291*) GOTO 0x0088
 22: 0x007C [0x41] ExtData[1]->WorkLocal[36] = ExtData[1]->WorkLocal[0] (bits 23*-31*)
 23: 0x0085 [0x01] GOTO 0x0088

SUBROUTINE_0088:
 24: 0x0088 [0x1A] CALL_SUBROUTINE(address=0x0FCB)
 25: 0x008B [0x02] IF !(ExtData[1]->WorkLocal[6] == 288*) GOTO 0x00AC
 26: 0x0093 [0x02] IF !(ExtData[1]->WorkLocal[36] == 1*) GOTO 0x00A2
 27: 0x009B [0x48] [System] [7456*]:
    → "The blinding light obscures your vision of the world beyond."
 28: 0x009E [0x23] WAIT_FOR_DIALOG_INTERACTION
 29: 0x009F [0x01] GOTO 0x00A9
 30: 0x00A2 [0x48] [System] [7457*]:
    → "Your pinches of escha silt trigger a faint reaction in the light, granting a small glimpse of what lies beyond."
 31: 0x00A5 [0x23] WAIT_FOR_DIALOG_INTERACTION
 32: 0x00A6 [0x1A] CALL_SUBROUTINE(address=0x0138)

SUBROUTINE_00A9:
 33: 0x00A9 [0x01] GOTO 0x0136
 34: 0x00AC [0x02] IF !(ExtData[1]->WorkLocal[6] == 289*) GOTO 0x00F1
 35: 0x00B4 [0x02] IF !(ExtData[1]->WorkLocal[36] == 1*) GOTO 0x00D5
 36: 0x00BC [0x02] IF !(ExtData[1]->WorkLocal[10] == 0*) GOTO 0x00CB
 37: 0x00C4 [0x48] [System] [7456*]:
    → "The blinding light obscures your vision of the world beyond."
 38: 0x00C7 [0x23] WAIT_FOR_DIALOG_INTERACTION
 39: 0x00C8 [0x01] GOTO 0x00D2
 40: 0x00CB [0x48] [System] [7457*]:
    → "Your pinches of escha silt trigger a faint reaction in the light, granting a small glimpse of what lies beyond."
 41: 0x00CE [0x23] WAIT_FOR_DIALOG_INTERACTION
 42: 0x00CF [0x1A] CALL_SUBROUTINE(address=0x01A7)

SUBROUTINE_00D2:
 43: 0x00D2 [0x01] GOTO 0x00EE
 44: 0x00D5 [0x02] IF !(ExtData[1]->WorkLocal[10] == 0*) GOTO 0x00E7
 45: 0x00DD [0x48] [System] [7457*]:
    → "Your pinches of escha silt trigger a faint reaction in the light, granting a small glimpse of what lies beyond."
 46: 0x00E0 [0x23] WAIT_FOR_DIALOG_INTERACTION
 47: 0x00E1 [0x1A] CALL_SUBROUTINE(address=0x0138)
 48: 0x00E4 [0x01] GOTO 0x00EE
 49: 0x00E7 [0x48] [System] [7457*]:
    → "Your pinches of escha silt trigger a faint reaction in the light, granting a small glimpse of what lies beyond."
 50: 0x00EA [0x23] WAIT_FOR_DIALOG_INTERACTION
 51: 0x00EB [0x1A] CALL_SUBROUTINE(address=0x01A7)

SUBROUTINE_00EE:
 52: 0x00EE [0x01] GOTO 0x0136
 53: 0x00F1 [0x02] IF !(ExtData[1]->WorkLocal[6] == 291*) GOTO 0x0136
 54: 0x00F9 [0x02] IF !(ExtData[1]->WorkLocal[36] == 1*) GOTO 0x011A
 55: 0x0101 [0x02] IF !(ExtData[1]->WorkLocal[10] == 0*) GOTO 0x0110
 56: 0x0109 [0x48] [System] [7456*]:
    → "The blinding light obscures your vision of the world beyond."
 57: 0x010C [0x23] WAIT_FOR_DIALOG_INTERACTION
 58: 0x010D [0x01] GOTO 0x0117
 59: 0x0110 [0x48] [System] [7457*]:
    → "Your pinches of escha silt trigger a faint reaction in the light, granting a small glimpse of what lies beyond."
 60: 0x0113 [0x23] WAIT_FOR_DIALOG_INTERACTION
 61: 0x0114 [0x1A] CALL_SUBROUTINE(address=0x01A7)

SUBROUTINE_0117:
 62: 0x0117 [0x01] GOTO 0x0133
 63: 0x011A [0x02] IF !(ExtData[1]->WorkLocal[10] == 0*) GOTO 0x012C
 64: 0x0122 [0x48] [System] [7457*]:
    → "Your pinches of escha silt trigger a faint reaction in the light, granting a small glimpse of what lies beyond."
 65: 0x0125 [0x23] WAIT_FOR_DIALOG_INTERACTION
 66: 0x0126 [0x1A] CALL_SUBROUTINE(address=0x0138)
 67: 0x0129 [0x01] GOTO 0x0133
 68: 0x012C [0x48] [System] [7457*]:
    → "Your pinches of escha silt trigger a faint reaction in the light, granting a small glimpse of what lies beyond."
 69: 0x012F [0x23] WAIT_FOR_DIALOG_INTERACTION
 70: 0x0130 [0x1A] CALL_SUBROUTINE(address=0x01A7)

SUBROUTINE_0133:
 71: 0x0133 [0x01] GOTO 0x0136

SUBROUTINE_0136:
 72: 0x0136 [0x21] END_EVENT
 73: 0x0137 [0x00] END_REQSTACK()

SUBROUTINE_0138:
 74: 0x0138 [0x06] ExtData[1]->WorkLocal[16] = 0
 75: 0x013B [0x06] ExtData[1]->WorkLocal[15] = 0
 76: 0x013E [0x06] ExtData[1]->WorkLocal[14] = 0

SUBROUTINE_0141:
 77: 0x0141 [0x02] IF !(ExtData[1]->WorkLocal[16] == 0*) GOTO 0x01A6
 78: 0x0149 [0x1A] CALL_SUBROUTINE(address=0x0720)
 79: 0x014C [0x02] IF !(ExtData[1]->WorkLocal[6] == 288*) GOTO 0x015C
 80: 0x0154 [0x03] Work_Zone[2] = 0*
 81: 0x0159 [0x01] GOTO 0x017C
 82: 0x015C [0x02] IF !(ExtData[1]->WorkLocal[6] == 289*) GOTO 0x016C
 83: 0x0164 [0x03] Work_Zone[2] = 0*
 84: 0x0169 [0x01] GOTO 0x017C
 85: 0x016C [0x02] IF !(ExtData[1]->WorkLocal[6] == 291*) GOTO 0x017C
 86: 0x0174 [0x03] Work_Zone[2] = 1*
 87: 0x0179 [0x01] GOTO 0x017C

SUBROUTINE_017C:
 88: 0x017C [0xD4] MAP_QUERY_WINDOW: Test and open map window (flag=0x0E, work=[0x0F80, 0x0E00, 0x2500])
 89: 0x0185 [0x02] IF !(Work_Zone[0] == 0*) GOTO 0x0193
 90: 0x018D [0x05] ExtData[1]->WorkLocal[16] = 1
 91: 0x0190 [0x01] GOTO 0x0193

SUBROUTINE_0193:
 92: 0x0193 [0x03] ExtData[1]->WorkLocal[15] = Work_Zone[0]
 93: 0x0198 [0x02] IF !(ExtData[1]->WorkLocal[16] == 0*) GOTO 0x01A3
 94: 0x01A0 [0x1A] CALL_SUBROUTINE(address=0x0344)
 95: 0x01A3 [0x01] GOTO 0x0141
 96: 0x01A6 [0x1B] RETURN

SUBROUTINE_01A7:
 97: 0x01A7 [0x02] IF !(ExtData[1]->WorkLocal[13] == 0*) GOTO 0x0343
 98: 0x01AF [0x1A] CALL_SUBROUTINE(address=0x061D)
 99: 0x01B2 [0x24] CREATE_DIALOG(message_id=7461*, default_option=ExtData[1]->WorkLocal[12], option_flags=ExtData[1]->WorkLocal[11])
    → "What do you do? [Nothing for now./Use escha silt./Teleport using $0./Teleport using $6.]"
100: 0x01B9 [0x25] WAIT_DIALOG_SELECT()
101: 0x01BA [0x02] IF !(Work_Zone[0] == 0*) GOTO 0x01C8
102: 0x01C2 [0x05] ExtData[1]->WorkLocal[13] = 1
103: 0x01C5 [0x01] GOTO 0x01C8

SUBROUTINE_01C8:
104: 0x01C8 [0x03] ExtData[1]->WorkLocal[12] = Work_Zone[0]
105: 0x01CD [0x02] IF !(ExtData[1]->WorkLocal[13] == 0*) GOTO 0x0340
106: 0x01D5 [0x02] IF !(ExtData[1]->WorkLocal[12] == 1*) GOTO 0x024E
107: 0x01DD [0x06] ExtData[1]->WorkLocal[16] = 0
108: 0x01E0 [0x06] ExtData[1]->WorkLocal[15] = 0
109: 0x01E3 [0x06] ExtData[1]->WorkLocal[14] = 0

SUBROUTINE_01E6:
110: 0x01E6 [0x02] IF !(ExtData[1]->WorkLocal[16] == 0*) GOTO 0x024B
111: 0x01EE [0x1A] CALL_SUBROUTINE(address=0x0720)
112: 0x01F1 [0x02] IF !(ExtData[1]->WorkLocal[6] == 288*) GOTO 0x0201
113: 0x01F9 [0x03] Work_Zone[2] = 0*
114: 0x01FE [0x01] GOTO 0x0221
115: 0x0201 [0x02] IF !(ExtData[1]->WorkLocal[6] == 289*) GOTO 0x0211
116: 0x0209 [0x03] Work_Zone[2] = 0*
117: 0x020E [0x01] GOTO 0x0221
118: 0x0211 [0x02] IF !(ExtData[1]->WorkLocal[6] == 291*) GOTO 0x0221
119: 0x0219 [0x03] Work_Zone[2] = 1*
120: 0x021E [0x01] GOTO 0x0221

SUBROUTINE_0221:
121: 0x0221 [0xD4] MAP_QUERY_WINDOW: Test and open map window (flag=0x0E, work=[0x0F80, 0x0E00, 0x2500])
122: 0x022A [0x02] IF !(Work_Zone[0] == 0*) GOTO 0x0238
123: 0x0232 [0x05] ExtData[1]->WorkLocal[16] = 1
124: 0x0235 [0x01] GOTO 0x0238

SUBROUTINE_0238:
125: 0x0238 [0x03] ExtData[1]->WorkLocal[15] = Work_Zone[0]
126: 0x023D [0x02] IF !(ExtData[1]->WorkLocal[16] == 0*) GOTO 0x0248
127: 0x0245 [0x1A] CALL_SUBROUTINE(address=0x0344)
128: 0x0248 [0x01] GOTO 0x01E6
129: 0x024B [0x01] GOTO 0x0340
130: 0x024E [0x02] IF !(ExtData[1]->WorkLocal[12] == 2*) GOTO 0x02C7
131: 0x0256 [0x06] ExtData[1]->WorkLocal[16] = 0
132: 0x0259 [0x06] ExtData[1]->WorkLocal[15] = 0
133: 0x025C [0x06] ExtData[1]->WorkLocal[14] = 0

SUBROUTINE_025F:
134: 0x025F [0x02] IF !(ExtData[1]->WorkLocal[16] == 0*) GOTO 0x02C4
135: 0x0267 [0x1A] CALL_SUBROUTINE(address=0x07A7)
136: 0x026A [0x02] IF !(ExtData[1]->WorkLocal[6] == 288*) GOTO 0x027A
137: 0x0272 [0x03] Work_Zone[2] = 0*
138: 0x0277 [0x01] GOTO 0x029A
139: 0x027A [0x02] IF !(ExtData[1]->WorkLocal[6] == 289*) GOTO 0x028A
140: 0x0282 [0x03] Work_Zone[2] = 0*
141: 0x0287 [0x01] GOTO 0x029A
142: 0x028A [0x02] IF !(ExtData[1]->WorkLocal[6] == 291*) GOTO 0x029A
143: 0x0292 [0x03] Work_Zone[2] = 1*
144: 0x0297 [0x01] GOTO 0x029A

SUBROUTINE_029A:
145: 0x029A [0xD4] MAP_QUERY_WINDOW: Test and open map window (flag=0x0E, work=[0x0F80, 0x0E00, 0x2500])
146: 0x02A3 [0x02] IF !(Work_Zone[0] == 0*) GOTO 0x02B1
147: 0x02AB [0x05] ExtData[1]->WorkLocal[16] = 1
148: 0x02AE [0x01] GOTO 0x02B1

SUBROUTINE_02B1:
149: 0x02B1 [0x03] ExtData[1]->WorkLocal[15] = Work_Zone[0]
150: 0x02B6 [0x02] IF !(ExtData[1]->WorkLocal[16] == 0*) GOTO 0x02C1
151: 0x02BE [0x1A] CALL_SUBROUTINE(address=0x043D)
152: 0x02C1 [0x01] GOTO 0x025F
153: 0x02C4 [0x01] GOTO 0x0340
154: 0x02C7 [0x02] IF !(ExtData[1]->WorkLocal[12] == 3*) GOTO 0x0340
155: 0x02CF [0x06] ExtData[1]->WorkLocal[16] = 0
156: 0x02D2 [0x06] ExtData[1]->WorkLocal[15] = 0
157: 0x02D5 [0x06] ExtData[1]->WorkLocal[14] = 0

SUBROUTINE_02D8:
158: 0x02D8 [0x02] IF !(ExtData[1]->WorkLocal[16] == 0*) GOTO 0x033D
159: 0x02E0 [0x1A] CALL_SUBROUTINE(address=0x0854)
160: 0x02E3 [0x02] IF !(ExtData[1]->WorkLocal[6] == 288*) GOTO 0x02F3
161: 0x02EB [0x03] Work_Zone[2] = 0*
162: 0x02F0 [0x01] GOTO 0x0313
163: 0x02F3 [0x02] IF !(ExtData[1]->WorkLocal[6] == 289*) GOTO 0x0303
164: 0x02FB [0x03] Work_Zone[2] = 0*
165: 0x0300 [0x01] GOTO 0x0313
166: 0x0303 [0x02] IF !(ExtData[1]->WorkLocal[6] == 291*) GOTO 0x0313
167: 0x030B [0x03] Work_Zone[2] = 1*
168: 0x0310 [0x01] GOTO 0x0313

SUBROUTINE_0313:
169: 0x0313 [0xD4] MAP_QUERY_WINDOW: Test and open map window (flag=0x0E, work=[0x0F80, 0x0E00, 0x2500])
170: 0x031C [0x02] IF !(Work_Zone[0] == 0*) GOTO 0x032A
171: 0x0324 [0x05] ExtData[1]->WorkLocal[16] = 1
172: 0x0327 [0x01] GOTO 0x032A

SUBROUTINE_032A:
173: 0x032A [0x03] ExtData[1]->WorkLocal[15] = Work_Zone[0]
174: 0x032F [0x02] IF !(ExtData[1]->WorkLocal[16] == 0*) GOTO 0x033A
175: 0x0337 [0x1A] CALL_SUBROUTINE(address=0x0536)
176: 0x033A [0x01] GOTO 0x02D8
177: 0x033D [0x01] GOTO 0x0340

SUBROUTINE_0340:
178: 0x0340 [0x01] GOTO 0x01A7
179: 0x0343 [0x1B] RETURN

SUBROUTINE_0344:
180: 0x0344 [0x03] ExtData[1]->WorkLocal[27] = ExtData[1]->WorkLocal[9]
181: 0x0349 [0x03] Work_Zone[2] = ExtData[1]->WorkLocal[3]
182: 0x034E [0x03] Work_Zone[3] = ExtData[1]->WorkLocal[27]
183: 0x0353 [0x24] CREATE_DIALOG(message_id=7459*, default_option=1*, option_flags=0*)
    → "Traverse the light? ($0 silt) [Let's do it. ($1 silt)/Do not go into the light!]"
184: 0x035A [0x25] WAIT_DIALOG_SELECT()
185: 0x035B [0x02] IF !(Work_Zone[0] == 0*) GOTO 0x0431
186: 0x0363 [0x02] IF !(ExtData[1]->WorkLocal[3] >= ExtData[1]->WorkLocal[27]) GOTO 0x037A
187: 0x036B [0x48] [System] [7460*]:
    → "You do not have enough escha silt."
188: 0x036E [0x23] WAIT_FOR_DIALOG_INTERACTION
189: 0x036F [0x05] ExtData[1]->WorkLocal[13] = 1
190: 0x0372 [0x03] Work_Zone[1] = 1073741824*
191: 0x0377 [0x01] GOTO 0x042E
192: 0x037A [0x42] SET_CLI_EVENT_CANCEL_DATA()
193: 0x037B [0x1A] CALL_SUBROUTINE(address=0x05E1)
194: 0x037E [0x40] SET_BIT_WORK_RANGE(start_bit=0*, end_bit=15*, target=Work_Zone[1], source=1*)
195: 0x0387 [0x40] SET_BIT_WORK_RANGE(start_bit=16*, end_bit=31*, target=Work_Zone[1], source=ExtData[1]->WorkLocal[4])
196: 0x0390 [0x43] SEND_EVENT_UPDATE: Send pending tag to server (packet 0x005B)
197: 0x0392 [0x43] SEND_EVENT_UPDATE: Check pending flag (skip if not pending)
198: 0x0394 [0x02] IF !(ExtData[1]->WorkLocal[6] == 288*) GOTO 0x03A2
199: 0x039C [0x1A] CALL_SUBROUTINE(address=0x092F)
200: 0x039F [0x01] GOTO 0x03BE
201: 0x03A2 [0x02] IF !(ExtData[1]->WorkLocal[6] == 289*) GOTO 0x03B0
202: 0x03AA [0x1A] CALL_SUBROUTINE(address=0x092F)
203: 0x03AD [0x01] GOTO 0x03BE
204: 0x03B0 [0x02] IF !(ExtData[1]->WorkLocal[6] == 291*) GOTO 0x03BE
205: 0x03B8 [0x1A] CALL_SUBROUTINE(address=0x098D)
206: 0x03BB [0x01] GOTO 0x03BE

SUBROUTINE_03BE:
207: 0x03BE [0x1A] CALL_SUBROUTINE(address=0x09EB)
208: 0x03C1 [0xBA] SET_ENTITY_POSITION(entity_id=LocalPlayer, pos_x=ExtData[1]->WorkLocal[29], pos_z=ExtData[1]->WorkLocal[31], pos_y=ExtData[1]->WorkLocal[30], direction=ExtData[1]->WorkLocal[32])
209: 0x03CE [0x40] SET_BIT_WORK_RANGE(start_bit=0*, end_bit=15*, target=Work_Zone[1], source=2*)
210: 0x03D7 [0x40] SET_BIT_WORK_RANGE(start_bit=16*, end_bit=31*, target=Work_Zone[1], source=ExtData[1]->WorkLocal[4])
211: 0x03E0 [0x47] UPDATE_PLAYER_POS(ExtData[1]->WorkLocal[29], ExtData[1]->WorkLocal[31], ExtData[1]->WorkLocal[30], yaw=ExtData[1]->WorkLocal[32])
212: 0x03EA [0x47] WAIT_PLAYER_POS_UPDATE
213: 0x03EC [0x02] IF !(ExtData[1]->WorkLocal[6] == 288*) GOTO 0x03FA
214: 0x03F4 [0x1A] CALL_SUBROUTINE(address=0x0958)
215: 0x03F7 [0x01] GOTO 0x0416
216: 0x03FA [0x02] IF !(ExtData[1]->WorkLocal[6] == 289*) GOTO 0x0408
217: 0x0402 [0x1A] CALL_SUBROUTINE(address=0x0958)
218: 0x0405 [0x01] GOTO 0x0416
219: 0x0408 [0x02] IF !(ExtData[1]->WorkLocal[6] == 291*) GOTO 0x0416
220: 0x0410 [0x1A] CALL_SUBROUTINE(address=0x09B6)
221: 0x0413 [0x01] GOTO 0x0416

SUBROUTINE_0416:
222: 0x0416 [0x40] SET_BIT_WORK_RANGE(start_bit=0*, end_bit=15*, target=Work_Zone[1], source=2*)
223: 0x041F [0x40] SET_BIT_WORK_RANGE(start_bit=16*, end_bit=31*, target=Work_Zone[1], source=0*)
224: 0x0428 [0x05] ExtData[1]->WorkLocal[13] = 1
225: 0x042B [0x05] ExtData[1]->WorkLocal[16] = 1

SUBROUTINE_042E:
226: 0x042E [0x01] GOTO 0x043C
227: 0x0431 [0x02] IF !(Work_Zone[0] == 1*) GOTO 0x043C
228: 0x0439 [0x01] GOTO 0x043C

SUBROUTINE_043C:
229: 0x043C [0x1B] RETURN

SUBROUTINE_043D:
230: 0x043D [0x03] ExtData[1]->WorkLocal[27] = 0*
231: 0x0442 [0x03] Work_Zone[2] = ExtData[1]->WorkLocal[3]
232: 0x0447 [0x03] Work_Zone[3] = ExtData[1]->WorkLocal[27]
233: 0x044C [0x24] CREATE_DIALOG(message_id=7462*, default_option=1*, option_flags=0*)
    → "Traverse the light? [Let's do this./No, wait!]"
234: 0x0453 [0x25] WAIT_DIALOG_SELECT()
235: 0x0454 [0x02] IF !(Work_Zone[0] == 0*) GOTO 0x052A
236: 0x045C [0x02] IF !(ExtData[1]->WorkLocal[3] >= ExtData[1]->WorkLocal[27]) GOTO 0x0473
237: 0x0464 [0x48] [System] [7460*]:
    → "You do not have enough escha silt."
238: 0x0467 [0x23] WAIT_FOR_DIALOG_INTERACTION
239: 0x0468 [0x05] ExtData[1]->WorkLocal[13] = 1
240: 0x046B [0x03] Work_Zone[1] = 1073741824*
241: 0x0470 [0x01] GOTO 0x0527
242: 0x0473 [0x42] SET_CLI_EVENT_CANCEL_DATA()
243: 0x0474 [0x1A] CALL_SUBROUTINE(address=0x05E1)
244: 0x0477 [0x40] SET_BIT_WORK_RANGE(start_bit=0*, end_bit=15*, target=Work_Zone[1], source=1*)
245: 0x0480 [0x40] SET_BIT_WORK_RANGE(start_bit=16*, end_bit=31*, target=Work_Zone[1], source=ExtData[1]->WorkLocal[4])
246: 0x0489 [0x43] SEND_EVENT_UPDATE: Send pending tag to server (packet 0x005B)
247: 0x048B [0x43] SEND_EVENT_UPDATE: Check pending flag (skip if not pending)
248: 0x048D [0x02] IF !(ExtData[1]->WorkLocal[6] == 288*) GOTO 0x049B
249: 0x0495 [0x1A] CALL_SUBROUTINE(address=0x092F)
250: 0x0498 [0x01] GOTO 0x04B7
251: 0x049B [0x02] IF !(ExtData[1]->WorkLocal[6] == 289*) GOTO 0x04A9
252: 0x04A3 [0x1A] CALL_SUBROUTINE(address=0x092F)
253: 0x04A6 [0x01] GOTO 0x04B7
254: 0x04A9 [0x02] IF !(ExtData[1]->WorkLocal[6] == 291*) GOTO 0x04B7
255: 0x04B1 [0x1A] CALL_SUBROUTINE(address=0x098D)
256: 0x04B4 [0x01] GOTO 0x04B7

SUBROUTINE_04B7:
257: 0x04B7 [0x1A] CALL_SUBROUTINE(address=0x09EB)
258: 0x04BA [0xBA] SET_ENTITY_POSITION(entity_id=LocalPlayer, pos_x=ExtData[1]->WorkLocal[29], pos_z=ExtData[1]->WorkLocal[31], pos_y=ExtData[1]->WorkLocal[30], direction=ExtData[1]->WorkLocal[32])
259: 0x04C7 [0x40] SET_BIT_WORK_RANGE(start_bit=0*, end_bit=15*, target=Work_Zone[1], source=3*)
260: 0x04D0 [0x40] SET_BIT_WORK_RANGE(start_bit=16*, end_bit=31*, target=Work_Zone[1], source=ExtData[1]->WorkLocal[4])
261: 0x04D9 [0x47] UPDATE_PLAYER_POS(ExtData[1]->WorkLocal[29], ExtData[1]->WorkLocal[31], ExtData[1]->WorkLocal[30], yaw=ExtData[1]->WorkLocal[32])
262: 0x04E3 [0x47] WAIT_PLAYER_POS_UPDATE
263: 0x04E5 [0x02] IF !(ExtData[1]->WorkLocal[6] == 288*) GOTO 0x04F3
264: 0x04ED [0x1A] CALL_SUBROUTINE(address=0x0958)
265: 0x04F0 [0x01] GOTO 0x050F
266: 0x04F3 [0x02] IF !(ExtData[1]->WorkLocal[6] == 289*) GOTO 0x0501
267: 0x04FB [0x1A] CALL_SUBROUTINE(address=0x0958)
268: 0x04FE [0x01] GOTO 0x050F
269: 0x0501 [0x02] IF !(ExtData[1]->WorkLocal[6] == 291*) GOTO 0x050F
270: 0x0509 [0x1A] CALL_SUBROUTINE(address=0x09B6)
271: 0x050C [0x01] GOTO 0x050F

SUBROUTINE_050F:
272: 0x050F [0x40] SET_BIT_WORK_RANGE(start_bit=0*, end_bit=15*, target=Work_Zone[1], source=3*)
273: 0x0518 [0x40] SET_BIT_WORK_RANGE(start_bit=16*, end_bit=31*, target=Work_Zone[1], source=0*)
274: 0x0521 [0x05] ExtData[1]->WorkLocal[13] = 1
275: 0x0524 [0x05] ExtData[1]->WorkLocal[16] = 1

SUBROUTINE_0527:
276: 0x0527 [0x01] GOTO 0x0535
277: 0x052A [0x02] IF !(Work_Zone[0] == 1*) GOTO 0x0535
278: 0x0532 [0x01] GOTO 0x0535

SUBROUTINE_0535:
279: 0x0535 [0x1B] RETURN

SUBROUTINE_0536:
280: 0x0536 [0x03] ExtData[1]->WorkLocal[27] = 0*
281: 0x053B [0x03] Work_Zone[2] = ExtData[1]->WorkLocal[3]
282: 0x0540 [0x03] Work_Zone[3] = ExtData[1]->WorkLocal[27]
283: 0x0545 [0x24] CREATE_DIALOG(message_id=7462*, default_option=1*, option_flags=0*)
    → "Traverse the light? [Let's do this./No, wait!]"
284: 0x054C [0x25] WAIT_DIALOG_SELECT()
285: 0x054D [0x02] IF !(Work_Zone[0] == 0*) GOTO 0x05D5
286: 0x0555 [0x02] IF !(ExtData[1]->WorkLocal[3] >= ExtData[1]->WorkLocal[27]) GOTO 0x056C
287: 0x055D [0x48] [System] [7460*]:
    → "You do not have enough escha silt."
288: 0x0560 [0x23] WAIT_FOR_DIALOG_INTERACTION
289: 0x0561 [0x05] ExtData[1]->WorkLocal[13] = 1
290: 0x0564 [0x03] Work_Zone[1] = 1073741824*
291: 0x0569 [0x01] GOTO 0x05D2
292: 0x056C [0x42] SET_CLI_EVENT_CANCEL_DATA()
293: 0x056D [0x1A] CALL_SUBROUTINE(address=0x05E1)
294: 0x0570 [0x40] SET_BIT_WORK_RANGE(start_bit=0*, end_bit=15*, target=Work_Zone[1], source=1*)
295: 0x0579 [0x40] SET_BIT_WORK_RANGE(start_bit=16*, end_bit=31*, target=Work_Zone[1], source=ExtData[1]->WorkLocal[4])
296: 0x0582 [0x43] SEND_EVENT_UPDATE: Send pending tag to server (packet 0x005B)
297: 0x0584 [0x43] SEND_EVENT_UPDATE: Check pending flag (skip if not pending)
298: 0x0586 [0x1A] CALL_SUBROUTINE(address=0x098D)
299: 0x0589 [0x1A] CALL_SUBROUTINE(address=0x09EB)
300: 0x058C [0xBA] SET_ENTITY_POSITION(entity_id=LocalPlayer, pos_x=ExtData[1]->WorkLocal[29], pos_z=ExtData[1]->WorkLocal[31], pos_y=ExtData[1]->WorkLocal[30], direction=ExtData[1]->WorkLocal[32])
301: 0x0599 [0x40] SET_BIT_WORK_RANGE(start_bit=0*, end_bit=15*, target=Work_Zone[1], source=4*)
302: 0x05A2 [0x40] SET_BIT_WORK_RANGE(start_bit=16*, end_bit=31*, target=Work_Zone[1], source=ExtData[1]->WorkLocal[4])
303: 0x05AB [0x47] UPDATE_PLAYER_POS(ExtData[1]->WorkLocal[29], ExtData[1]->WorkLocal[31], ExtData[1]->WorkLocal[30], yaw=ExtData[1]->WorkLocal[32])
304: 0x05B5 [0x47] WAIT_PLAYER_POS_UPDATE
305: 0x05B7 [0x1A] CALL_SUBROUTINE(address=0x09B6)
306: 0x05BA [0x40] SET_BIT_WORK_RANGE(start_bit=0*, end_bit=15*, target=Work_Zone[1], source=4*)
307: 0x05C3 [0x40] SET_BIT_WORK_RANGE(start_bit=16*, end_bit=31*, target=Work_Zone[1], source=0*)
308: 0x05CC [0x05] ExtData[1]->WorkLocal[13] = 1
309: 0x05CF [0x05] ExtData[1]->WorkLocal[16] = 1

SUBROUTINE_05D2:
310: 0x05D2 [0x01] GOTO 0x05E0
311: 0x05D5 [0x02] IF !(Work_Zone[0] == 1*) GOTO 0x05E0
312: 0x05DD [0x01] GOTO 0x05E0

SUBROUTINE_05E0:
313: 0x05E0 [0x1B] RETURN

SUBROUTINE_05E1:
314: 0x05E1 [0x06] ExtData[1]->WorkLocal[21] = 0

SUBROUTINE_05E4:
315: 0x05E4 [0x02] IF !(ExtData[1]->WorkLocal[21] >= 40*) GOTO 0x061C
316: 0x05EC [0x9D] ExtData[1]->WorkLocal[23] = 0x0B1B[ExtData[1]->WorkLocal[21]] // Read WORD
317: 0x05F4 [0x02] IF !(ExtData[1]->WorkLocal[23] == ExtData[1]->WorkLocal[6]) GOTO 0x0616
318: 0x05FC [0x9D] ExtData[1]->WorkLocal[19] = 0x0B6B[ExtData[1]->WorkLocal[21]] // Read WORD
319: 0x0604 [0x02] IF !(ExtData[1]->WorkLocal[19] == ExtData[1]->WorkLocal[15]) GOTO 0x0616
320: 0x060C [0x03] ExtData[1]->WorkLocal[4] = ExtData[1]->WorkLocal[21]
321: 0x0611 [0x03] ExtData[1]->WorkLocal[21] = 40*
322: 0x0616 [0x0B] ExtData[1]->WorkLocal[21]++
323: 0x0619 [0x01] GOTO 0x05E4
324: 0x061C [0x1B] RETURN

SUBROUTINE_061D:
325: 0x061D [0x06] ExtData[1]->WorkLocal[11] = 0
326: 0x0620 [0x02] IF !(ExtData[1]->WorkLocal[6] == 288*) GOTO 0x0634
327: 0x0628 [0x41] ExtData[1]->WorkLocal[36] = ExtData[1]->WorkLocal[0] (bits 0*-7*)
328: 0x0631 [0x01] GOTO 0x065C
329: 0x0634 [0x02] IF !(ExtData[1]->WorkLocal[6] == 289*) GOTO 0x0648
330: 0x063C [0x41] ExtData[1]->WorkLocal[36] = ExtData[1]->WorkLocal[0] (bits 8*-22*)
331: 0x0645 [0x01] GOTO 0x065C
332: 0x0648 [0x02] IF !(ExtData[1]->WorkLocal[6] == 291*) GOTO 0x065C
333: 0x0650 [0x41] ExtData[1]->WorkLocal[36] = ExtData[1]->WorkLocal[0] (bits 23*-31*)
334: 0x0659 [0x01] GOTO 0x065C

SUBROUTINE_065C:
335: 0x065C [0x1A] CALL_SUBROUTINE(address=0x0FCB)
336: 0x065F [0x02] IF !(ExtData[1]->WorkLocal[36] > 1*) GOTO 0x066E
337: 0x0667 [0x3C] SET_BIT_FLAG_CONDITIONAL(target_work_offset=ExtData[1]->WorkLocal[11], bit_index_work_offset=1*, condition_work_offset=1*)
338: 0x066E [0x02] IF !(ExtData[1]->WorkLocal[6] == 288*) GOTO 0x0687
339: 0x0676 [0x3C] SET_BIT_FLAG_CONDITIONAL(target_work_offset=ExtData[1]->WorkLocal[11], bit_index_work_offset=2*, condition_work_offset=1*)
340: 0x067D [0x3C] SET_BIT_FLAG_CONDITIONAL(target_work_offset=ExtData[1]->WorkLocal[11], bit_index_work_offset=3*, condition_work_offset=1*)
341: 0x0684 [0x01] GOTO 0x0715
342: 0x0687 [0x02] IF !(ExtData[1]->WorkLocal[6] == 289*) GOTO 0x06A8
343: 0x068F [0x02] IF !(ExtData[1]->WorkLocal[10] == 0*) GOTO 0x069E
344: 0x0697 [0x3C] SET_BIT_FLAG_CONDITIONAL(target_work_offset=ExtData[1]->WorkLocal[11], bit_index_work_offset=2*, condition_work_offset=1*)
345: 0x069E [0x3C] SET_BIT_FLAG_CONDITIONAL(target_work_offset=ExtData[1]->WorkLocal[11], bit_index_work_offset=3*, condition_work_offset=1*)
346: 0x06A5 [0x01] GOTO 0x0715
347: 0x06A8 [0x02] IF !(ExtData[1]->WorkLocal[6] == 291*) GOTO 0x0715
348: 0x06B0 [0x9D] ExtData[1]->WorkLocal[19] = 0x0B6B[ExtData[1]->WorkLocal[1]] // Read WORD
349: 0x06B8 [0x02] IF !(ExtData[1]->WorkLocal[19] == 1*) GOTO 0x06CA
350: 0x06C0 [0x3C] SET_BIT_FLAG_CONDITIONAL(target_work_offset=ExtData[1]->WorkLocal[11], bit_index_work_offset=2*, condition_work_offset=1*)
351: 0x06C7 [0x01] GOTO 0x06CA

SUBROUTINE_06CA:
352: 0x06CA [0x02] IF !(ExtData[1]->WorkLocal[10] == 0*) GOTO 0x06E3
353: 0x06D2 [0x3C] SET_BIT_FLAG_CONDITIONAL(target_work_offset=ExtData[1]->WorkLocal[11], bit_index_work_offset=2*, condition_work_offset=1*)
354: 0x06D9 [0x3C] SET_BIT_FLAG_CONDITIONAL(target_work_offset=ExtData[1]->WorkLocal[11], bit_index_work_offset=3*, condition_work_offset=1*)
355: 0x06E0 [0x01] GOTO 0x0712
356: 0x06E3 [0x02] IF !(ExtData[1]->WorkLocal[10] == 1*) GOTO 0x06F5
357: 0x06EB [0x3C] SET_BIT_FLAG_CONDITIONAL(target_work_offset=ExtData[1]->WorkLocal[11], bit_index_work_offset=3*, condition_work_offset=1*)
358: 0x06F2 [0x01] GOTO 0x0712
359: 0x06F5 [0x02] IF !(ExtData[1]->WorkLocal[10] == 2*) GOTO 0x0707
360: 0x06FD [0x3C] SET_BIT_FLAG_CONDITIONAL(target_work_offset=ExtData[1]->WorkLocal[11], bit_index_work_offset=2*, condition_work_offset=1*)
361: 0x0704 [0x01] GOTO 0x0712
362: 0x0707 [0x02] IF !(ExtData[1]->WorkLocal[10] == 3*) GOTO 0x0712
363: 0x070F [0x01] GOTO 0x0712

SUBROUTINE_0712:
364: 0x0712 [0x01] GOTO 0x0715

SUBROUTINE_0715:
365: 0x0715 [0x03] Work_Zone[2] = 9148*
366: 0x071A [0x03] Work_Zone[3] = 2893*
367: 0x071F [0x1B] RETURN

SUBROUTINE_0720:
368: 0x0720 [0x1A] CALL_SUBROUTINE(address=0x0915)
369: 0x0723 [0x06] ExtData[1]->WorkLocal[21] = 0
370: 0x0726 [0x06] ExtData[1]->WorkLocal[14] = 0
371: 0x0729 [0x06] ExtData[1]->WorkLocal[25] = 0
372: 0x072C [0x03] ExtData[1]->WorkLocal[25] = ExtData[1]->WorkLocal[6]
373: 0x0731 [0x03] ExtData[1]->WorkLocal[14] = 4294967295*
374: 0x0736 [0x3D] CLEAR_BIT_FLAG_CONDITIONAL(target_work_offset=ExtData[1]->WorkLocal[14], bit_index_work_offset=0*, condition_work_offset=1*)
375: 0x073D [0x02] IF !(ExtData[1]->WorkLocal[21] >= 40*) GOTO 0x07A6
376: 0x0745 [0x3E] IF !(ExtData[1]->WorkLocal[0] bit ExtData[1]->WorkLocal[21]) GOTO 0x07A0
377: 0x074C [0x02] IF !(ExtData[1]->WorkLocal[21] == ExtData[1]->WorkLocal[1]) GOTO 0x07A0
378: 0x0754 [0x9D] ExtData[1]->WorkLocal[23] = 0x0B1B[ExtData[1]->WorkLocal[21]] // Read WORD
379: 0x075C [0x02] IF !(ExtData[1]->WorkLocal[23] == ExtData[1]->WorkLocal[6]) GOTO 0x07A0
380: 0x0764 [0x02] IF !(ExtData[1]->WorkLocal[21] >= 32*) GOTO 0x07A0
381: 0x076C [0x9D] ExtData[1]->WorkLocal[19] = 0x0B6B[ExtData[1]->WorkLocal[21]] // Read WORD
382: 0x0774 [0x3D] CLEAR_BIT_FLAG_CONDITIONAL(target_work_offset=ExtData[1]->WorkLocal[14], bit_index_work_offset=ExtData[1]->WorkLocal[19], condition_work_offset=1*)
383: 0x077B [0x03] ExtData[1]->WorkLocal[34] = ExtData[1]->WorkLocal[21]
384: 0x0780 [0x07] ExtData[1]->WorkLocal[34] += 608*
385: 0x0785 [0x02] IF !(ExtData[1]->WorkLocal[6] == 291*) GOTO 0x0798
386: 0x078D [0xD4] MAP_QUERY_WINDOW: Prepare buffer and copy to TalkpQW object (buffer=[13 00 1E 80 22 00 01 A0...])
387: 0x07AD [0x06] ExtData[1]->WorkLocal[14] = 0
388: 0x07B0 [0x06] ExtData[1]->WorkLocal[25] = 0
389: 0x07B3 [0x03] ExtData[1]->WorkLocal[25] = ExtData[1]->WorkLocal[6]
390: 0x07B8 [0x03] ExtData[1]->WorkLocal[14] = 4294967295*
391: 0x07BD [0x3D] CLEAR_BIT_FLAG_CONDITIONAL(target_work_offset=ExtData[1]->WorkLocal[14], bit_index_work_offset=0*, condition_work_offset=1*)
392: 0x07C4 [0x06] ExtData[1]->WorkLocal[28] = 0
393: 0x07C7 [0x02] IF !(ExtData[1]->WorkLocal[6] == 288*) GOTO 0x07EB
394: 0x07CF [0x03] ExtData[1]->WorkLocal[25] = ExtData[1]->WorkLocal[1]
395: 0x07D4 [0x08] ExtData[1]->WorkLocal[25] -= 0*
396: 0x07D9 [0x0B] ExtData[1]->WorkLocal[25]++
397: 0x07DC [0x3F] ExtData[1]->WorkLocal[25] = ExtData[1]->WorkLocal[25] % 8*
398: 0x07E3 [0x07] ExtData[1]->WorkLocal[25] += 0*
399: 0x07E8 [0x01] GOTO 0x081F
400: 0x07EB [0x02] IF !(ExtData[1]->WorkLocal[6] == 289*) GOTO 0x080F
401: 0x07F3 [0x03] ExtData[1]->WorkLocal[25] = ExtData[1]->WorkLocal[1]
402: 0x07F8 [0x08] ExtData[1]->WorkLocal[25] -= 8*
403: 0x07FD [0x0B] ExtData[1]->WorkLocal[25]++
404: 0x0800 [0x3F] ExtData[1]->WorkLocal[25] = ExtData[1]->WorkLocal[25] % 15*
405: 0x0807 [0x07] ExtData[1]->WorkLocal[25] += 8*
406: 0x080C [0x01] GOTO 0x081F
407: 0x080F [0x02] IF !(ExtData[1]->WorkLocal[6] == 291*) GOTO 0x081F
408: 0x0817 [0x03] ExtData[1]->WorkLocal[25] = 23*
409: 0x081C [0x01] GOTO 0x081F

SUBROUTINE_081F:
410: 0x081F [0x9D] ExtData[1]->WorkLocal[19] = 0x0B6B[ExtData[1]->WorkLocal[25]] // Read WORD
411: 0x0827 [0x3D] CLEAR_BIT_FLAG_CONDITIONAL(target_work_offset=ExtData[1]->WorkLocal[14], bit_index_work_offset=ExtData[1]->WorkLocal[19], condition_work_offset=1*)
412: 0x082E [0x03] ExtData[1]->WorkLocal[34] = ExtData[1]->WorkLocal[25]
413: 0x0833 [0x07] ExtData[1]->WorkLocal[34] += 608*
414: 0x0838 [0x02] IF !(ExtData[1]->WorkLocal[6] == 291*) GOTO 0x084B
415: 0x0840 [0xD4] MAP_QUERY_WINDOW: Prepare buffer and copy to TalkpQW object (buffer=[13 00 1E 80 22 00 01 53...])
416: 0x0860 [0x03] ExtData[1]->WorkLocal[25] = ExtData[1]->WorkLocal[6]
417: 0x0865 [0x03] ExtData[1]->WorkLocal[14] = 4294967295*
418: 0x086A [0x3D] CLEAR_BIT_FLAG_CONDITIONAL(target_work_offset=ExtData[1]->WorkLocal[14], bit_index_work_offset=0*, condition_work_offset=1*)
419: 0x0871 [0x06] ExtData[1]->WorkLocal[28] = 0
420: 0x0874 [0x02] IF !(ExtData[1]->WorkLocal[6] == 291*) GOTO 0x08F3
421: 0x087C [0x9D] ExtData[1]->WorkLocal[19] = 0x0B6B[ExtData[1]->WorkLocal[1]] // Read WORD
422: 0x0884 [0x02] IF !(ExtData[1]->WorkLocal[19] == 8*) GOTO 0x08B2
423: 0x088C [0x03] ExtData[1]->WorkLocal[25] = 30*
424: 0x0891 [0x9D] ExtData[1]->WorkLocal[19] = 0x0B6B[ExtData[1]->WorkLocal[25]] // Read WORD
425: 0x0899 [0x3D] CLEAR_BIT_FLAG_CONDITIONAL(target_work_offset=ExtData[1]->WorkLocal[14], bit_index_work_offset=ExtData[1]->WorkLocal[19], condition_work_offset=1*)
426: 0x08A0 [0x03] ExtData[1]->WorkLocal[34] = ExtData[1]->WorkLocal[25]
427: 0x08A5 [0x07] ExtData[1]->WorkLocal[34] += 608*
428: 0x08AA [0xD4] MAP_QUERY_WINDOW: Prepare buffer and copy to TalkpQW object (buffer=[13 00 1E 80 22 00 9D 00...])
429: 0x08CA [0x02] IF !(0x9D80 UNKNOWN_COND_11 0x6B00) GOTO 0x0013
430: 0x08D2 [0x19] SWAP(0x3D00, ExtData[1]->WorkLocal[14])
431: 0x08D7 [0x13] 0x0100 = rand() % 0x0380
432: 0x08DC [0x22] ENTITY_HIDE_FLAG(enabled=0x00)
433: 0x08DE [0x20] SET_CLI_EVENT_UC_FLAG: Unknown flag value 0x80
434: 0x08E0 [0x0B] ExtData[1]->WorkLocal[34]++
435: 0x08E3 [0x07] ExtData[1]->WorkLocal[34] += 608*
436: 0x08E8 [0xD4] MAP_QUERY_WINDOW: Prepare buffer and copy to TalkpQW object (buffer=[13 00 1E 80 22 00 01 14...])
437: 0x0908 [0x22] ENTITY_HIDE_FLAG(enabled=0x00)
438: 0x090A [0x1D] PRINT_EVENT_MESSAGE(message_id=0xD480)
439: 0x090D [0x01] GOTO 0x0013
440: 0x0910 [0x1F] MOVE_ENTITY: Update entity position (mode=128)
441: 0x0912 [0x22] ENTITY_HIDE_FLAG(enabled=0x00)
442: 0x0914 [0x1B] RETURN

SUBROUTINE_0915:
443: 0x0915 [0x06] ExtData[1]->WorkLocal[21] = 0

SUBROUTINE_0918:
444: 0x0918 [0x02] IF !(ExtData[1]->WorkLocal[21] >= 40*) GOTO 0x092E
445: 0x0920 [0x9D] 0x0ACB[ExtData[1]->WorkLocal[21] * 2] = 0* // Write WORD
446: 0x0928 [0x0B] ExtData[1]->WorkLocal[21]++
447: 0x092B [0x01] GOTO 0x0918
448: 0x092E [0x1B] RETURN

SUBROUTINE_092F:
449: 0x092F [0xD0] LOAD_SCHEDULED_TASK_ALT5: Load scheduler "main" with entities [EventEntity, EventEntity], work=[125*, 0*]
450: 0x0940 [0x1C] WAIT(200* ticks)
451: 0x0943 [0x45] LOAD_SCHEDULED_TASK: Load scheduler "fdo1" with entities [LocalPlayer, LocalPlayer], work=[200*, 0*]
452: 0x0954 [0x1C] WAIT(60* ticks)
453: 0x0957 [0x1B] RETURN

SUBROUTINE_0958:
454: 0x0958 [0x45] LOAD_SCHEDULED_TASK: Load scheduler "fdi1" with entities [LocalPlayer, LocalPlayer], work=[200*, 0*]
455: 0x0969 [0xD0] LOAD_SCHEDULED_TASK_ALT5: Load scheduler "main" with entities [EventEntity, EventEntity], work=[126*, 0*]
456: 0x097A [0x1C] WAIT(180* ticks)
457: 0x097D [0x55] WAIT_LOAD_SCHEDULER: Wait for scheduler "fdi1" with entities [LocalPlayer, LocalPlayer], work=200*
458: 0x098C [0x1B] RETURN

SUBROUTINE_098D:
459: 0x098D [0xD0] LOAD_SCHEDULED_TASK_ALT5: Load scheduler "main" with entities [EventEntity, EventEntity], work=[168*, 0*]
460: 0x099E [0x1C] WAIT(160* ticks)
461: 0x09A1 [0x45] LOAD_SCHEDULED_TASK: Load scheduler "fdo1" with entities [LocalPlayer, LocalPlayer], work=[200*, 0*]
462: 0x09B2 [0x1C] WAIT(60* ticks)
463: 0x09B5 [0x1B] RETURN

SUBROUTINE_09B6:
464: 0x09B6 [0x45] LOAD_SCHEDULED_TASK: Load scheduler "fdi1" with entities [LocalPlayer, LocalPlayer], work=[200*, 0*]
465: 0x09C7 [0xD0] LOAD_SCHEDULED_TASK_ALT5: Load scheduler "main" with entities [EventEntity, EventEntity], work=[169*, 0*]
466: 0x09D8 [0x1C] WAIT(160* ticks)
467: 0x09DB [0x55] WAIT_LOAD_SCHEDULER: Wait for scheduler "fdi1" with entities [LocalPlayer, LocalPlayer], work=200*
468: 0x09EA [0x1B] RETURN

SUBROUTINE_09EB:
469: 0x09EB [0x06] ExtData[1]->WorkLocal[21] = 0
470: 0x09EE [0x9D] ExtData[1]->WorkLocal[29] = 0x0C0B[ExtData[1]->WorkLocal[4]] // Read WORD
471: 0x09F6 [0x9D] ExtData[1]->WorkLocal[30] = 0x0CAB[ExtData[1]->WorkLocal[4]] // Read WORD
472: 0x09FE [0x9D] ExtData[1]->WorkLocal[31] = 0x0C5B[ExtData[1]->WorkLocal[4]] // Read WORD
473: 0x0A06 [0x9D] ExtData[1]->WorkLocal[35] = 0x0D4B[ExtData[1]->WorkLocal[4]] // Read WORD
474: 0x0A0E [0x02] IF !(ExtData[1]->WorkLocal[35] == 0*) GOTO 0x0A23
475: 0x0A16 [0x03] ExtData[1]->WorkLocal[32] = 0*
476: 0x0A1B [0x07] ExtData[1]->WorkLocal[29] += 4294966296*
477: 0x0A20 [0x01] GOTO 0x0ACA
478: 0x0A23 [0x02] IF !(ExtData[1]->WorkLocal[35] == 1*) GOTO 0x0A3D
479: 0x0A2B [0x03] ExtData[1]->WorkLocal[32] = 512*
480: 0x0A30 [0x07] ExtData[1]->WorkLocal[29] += 4294966296*
481: 0x0A35 [0x07] ExtData[1]->WorkLocal[31] += 1000*
482: 0x0A3A [0x01] GOTO 0x0ACA
483: 0x0A3D [0x02] IF !(ExtData[1]->WorkLocal[35] == 2*) GOTO 0x0A52
484: 0x0A45 [0x03] ExtData[1]->WorkLocal[32] = 1024*
485: 0x0A4A [0x07] ExtData[1]->WorkLocal[31] += 1000*
486: 0x0A4F [0x01] GOTO 0x0ACA
487: 0x0A52 [0x02] IF !(ExtData[1]->WorkLocal[35] == 3*) GOTO 0x0A6C
488: 0x0A5A [0x03] ExtData[1]->WorkLocal[32] = 1536*
489: 0x0A5F [0x07] ExtData[1]->WorkLocal[29] += 1000*
490: 0x0A64 [0x07] ExtData[1]->WorkLocal[31] += 1000*
491: 0x0A69 [0x01] GOTO 0x0ACA
492: 0x0A6C [0x02] IF !(ExtData[1]->WorkLocal[35] == 4*) GOTO 0x0A81
493: 0x0A74 [0x03] ExtData[1]->WorkLocal[32] = 2048*
494: 0x0A79 [0x07] ExtData[1]->WorkLocal[29] += 1000*
495: 0x0A7E [0x01] GOTO 0x0ACA
496: 0x0A81 [0x02] IF !(ExtData[1]->WorkLocal[35] == 5*) GOTO 0x0A9B
497: 0x0A89 [0x03] ExtData[1]->WorkLocal[32] = 2560*
498: 0x0A8E [0x07] ExtData[1]->WorkLocal[29] += 1000*
499: 0x0A93 [0x07] ExtData[1]->WorkLocal[31] += 4294966296*
500: 0x0A98 [0x01] GOTO 0x0ACA
501: 0x0A9B [0x02] IF !(ExtData[1]->WorkLocal[35] == 6*) GOTO 0x0AB0
502: 0x0AA3 [0x03] ExtData[1]->WorkLocal[32] = 3072*
503: 0x0AA8 [0x07] ExtData[1]->WorkLocal[31] += 4294966296*
504: 0x0AAD [0x01] GOTO 0x0ACA
505: 0x0AB0 [0x02] IF !(ExtData[1]->WorkLocal[35] == 7*) GOTO 0x0ACA
506: 0x0AB8 [0x03] ExtData[1]->WorkLocal[32] = 3584*
507: 0x0ABD [0x07] ExtData[1]->WorkLocal[29] += 4294966296*
508: 0x0AC2 [0x07] ExtData[1]->WorkLocal[31] += 4294966296*
509: 0x0AC7 [0x01] GOTO 0x0ACA

SUBROUTINE_0ACA:
510: 0x0ACA [0x1B] RETURN

SUBROUTINE_0FCB:
511: 0x0FCB [0x03] ExtData[1]->WorkLocal[37] = ExtData[1]->WorkLocal[36]
512: 0x0FD0 [0x03] ExtData[1]->WorkLocal[38] = ExtData[1]->WorkLocal[36]
513: 0x0FD5 [0x0D] ExtData[1]->WorkLocal[37] &= 1431655765*
514: 0x0FDA [0x11] ExtData[1]->WorkLocal[38] >>= 1*
515: 0x0FDF [0x40] SET_BIT_WORK_RANGE(start_bit=31*, end_bit=31*, target=ExtData[1]->WorkLocal[38], source=0*)
516: 0x0FE8 [0x0D] ExtData[1]->WorkLocal[38] &= 1431655765*
517: 0x0FED [0x07] ExtData[1]->WorkLocal[37] += ExtData[1]->WorkLocal[38]
518: 0x0FF2 [0x03] ExtData[1]->WorkLocal[38] = ExtData[1]->WorkLocal[37]
519: 0x0FF7 [0x0D] ExtData[1]->WorkLocal[37] &= 858993459*
520: 0x0FFC [0x11] ExtData[1]->WorkLocal[38] >>= 2*
521: 0x1001 [0x40] SET_BIT_WORK_RANGE(start_bit=30*, end_bit=31*, target=ExtData[1]->WorkLocal[38], source=0*)
522: 0x100A [0x0D] ExtData[1]->WorkLocal[38] &= 858993459*
523: 0x100F [0x07] ExtData[1]->WorkLocal[37] += ExtData[1]->WorkLocal[38]
524: 0x1014 [0x03] ExtData[1]->WorkLocal[38] = ExtData[1]->WorkLocal[37]
525: 0x1019 [0x0D] ExtData[1]->WorkLocal[37] &= 252645135*
526: 0x101E [0x11] ExtData[1]->WorkLocal[38] >>= 4*
527: 0x1023 [0x40] SET_BIT_WORK_RANGE(start_bit=28*, end_bit=31*, target=ExtData[1]->WorkLocal[38], source=0*)
528: 0x102C [0x0D] ExtData[1]->WorkLocal[38] &= 252645135*
529: 0x1031 [0x07] ExtData[1]->WorkLocal[37] += ExtData[1]->WorkLocal[38]
530: 0x1036 [0x03] ExtData[1]->WorkLocal[38] = ExtData[1]->WorkLocal[37]
531: 0x103B [0x0D] ExtData[1]->WorkLocal[37] &= 16711935*
532: 0x1040 [0x11] ExtData[1]->WorkLocal[38] >>= 8*
533: 0x1045 [0x40] SET_BIT_WORK_RANGE(start_bit=24*, end_bit=31*, target=ExtData[1]->WorkLocal[38], source=0*)
534: 0x104E [0x0D] ExtData[1]->WorkLocal[38] &= 16711935*
535: 0x1053 [0x07] ExtData[1]->WorkLocal[37] += ExtData[1]->WorkLocal[38]
536: 0x1058 [0x03] ExtData[1]->WorkLocal[38] = ExtData[1]->WorkLocal[37]
537: 0x105D [0x0D] ExtData[1]->WorkLocal[37] &= 65535*
538: 0x1062 [0x11] ExtData[1]->WorkLocal[38] >>= 16*
539: 0x1067 [0x40] SET_BIT_WORK_RANGE(start_bit=16*, end_bit=31*, target=ExtData[1]->WorkLocal[38], source=0*)
540: 0x1070 [0x0D] ExtData[1]->WorkLocal[38] &= 65535*
541: 0x1075 [0x07] ExtData[1]->WorkLocal[37] += ExtData[1]->WorkLocal[38]
542: 0x107A [0x03] ExtData[1]->WorkLocal[36] = ExtData[1]->WorkLocal[37]
543: 0x107F [0x1B] RETURN
```

#### Data or dead code:

```
# Data Section: 0x0ACB (898 bytes)
     0x0ACB: 03 10 04 10 05 10 06 10 07 10 08 10 09 10 00 17
     0x0ADB: 01 17 02 17 03 17 04 17 05 17 06 17 07 17 08 17
     0x0AEB: 09 17 0A 17 0B 17 0C 17 0D 17 0E 17 0F 17 10 17
     0x0AFB: 11 17 12 17 13 17 14 17 15 17 16 17 17 17 18 17
     0x0B0B: 19 17 1A 17 1B 17 1C 17 1D 17 1E 17 1F 17 02 10
     0x0B1B: 04 80 04 80 04 80 04 80 04 80 04 80 04 80 04 80
     0x0B2B: 06 80 06 80 06 80 06 80 06 80 06 80 06 80 06 80
     0x0B3B: 06 80 06 80 06 80 06 80 06 80 06 80 06 80 09 80
     0x0B4B: 09 80 09 80 09 80 09 80 09 80 09 80 09 80 09 80
     0x0B5B: 09 80 00 80 00 80 00 80 00 80 00 80 00 80 00 80
     0x0B6B: 01 80 02 80 10 80 17 80 2F 80 31 80 05 80 07 80
     0x0B7B: 01 80 02 80 10 80 17 80 2F 80 31 80 05 80 07 80
     0x0B8B: 34 80 1F 80 1E 80 35 80 36 80 37 80 14 80 01 80
     0x0B9B: 02 80 10 80 17 80 2F 80 31 80 05 80 07 80 34 80
     0x0BAB: 1F 80 00 80 00 80 00 80 00 80 00 80 00 80 00 80
     0x0BBB: 00 80 00 80 00 80 00 80 00 80 00 80 00 80 00 80
     0x0BCB: 00 80 00 80 00 80 00 80 00 80 00 80 00 80 00 80
     0x0BDB: 00 80 00 80 00 80 00 80 00 80 00 80 00 80 00 80
     0x0BEB: 00 80 00 80 00 80 00 80 00 80 00 80 00 80 00 80
     0x0BFB: 00 80 00 80 00 80 00 80 00 80 00 80 00 80 00 80
     0x0C0B: 38 80 39 80 3A 80 3B 80 3C 80 3D 80 3E 80 3F 80
     0x0C1B: 40 80 41 80 42 80 43 80 44 80 45 80 46 80 00 80
     0x0C2B: 47 80 48 80 49 80 4A 80 4B 80 4C 80 4D 80 4E 80
     0x0C3B: 4F 80 50 80 51 80 52 80 53 80 54 80 55 80 56 80
     0x0C4B: 57 80 00 80 00 80 00 80 00 80 00 80 00 80 00 80
     0x0C5B: 58 80 59 80 5A 80 5B 80 5C 80 5D 80 5E 80 5F 80
     0x0C6B: 60 80 61 80 62 80 63 80 64 80 65 80 66 80 67 80
     0x0C7B: 68 80 69 80 64 80 62 80 6A 80 6B 80 6C 80 6D 80
     0x0C8B: 6E 80 6F 80 70 80 71 80 72 80 73 80 74 80 75 80
     0x0C9B: 76 80 00 80 00 80 00 80 00 80 00 80 00 80 00 80
     0x0CAB: 77 80 78 80 79 80 7A 80 7B 80 7C 80 22 80 7D 80
     0x0CBB: 7E 80 7F 80 80 80 81 80 7F 80 80 80 82 80 7F 80
     0x0CCB: 83 80 82 80 84 80 85 80 86 80 7F 80 87 80 88 80
     0x0CDB: 89 80 8A 80 8B 80 8C 80 8D 80 8E 80 8F 80 90 80
     0x0CEB: 91 80 00 80 00 80 00 80 00 80 00 80 00 80 00 80
     0x0CFB: 00 80 00 80 00 80 00 80 00 80 00 80 00 80 00 80
     0x0D0B: 00 80 00 80 00 80 00 80 00 80 00 80 00 80 00 80
     0x0D1B: 00 80 00 80 00 80 00 80 00 80 00 80 00 80 00 80
     0x0D2B: 00 80 00 80 00 80 00 80 00 80 00 80 00 80 00 80
     0x0D3B: 00 80 00 80 00 80 00 80 00 80 00 80 00 80 00 80
     0x0D4B: 00 80 31 80 31 80 02 80 00 80 31 80 00 80 2F 80
     0x0D5B: 31 80 05 80 17 80 05 80 00 80 2F 80 01 80 02 80
     0x0D6B: 05 80 10 80 17 80 00 80 17 80 2F 80 31 80 00 80
     0x0D7B: 02 80 10 80 31 80 02 80 17 80 2F 80 02 80 00 80
     0x0D8B: 00 80 00 80 00 80 00 80 00 80 00 80 00 80 00 80
     0x0D9B: 06 80 06 80 06 80 06 80 06 80 06 80 06 80 06 80
     0x0DAB: 06 80 06 80 06 80 06 80 06 80 06 80 06 80 09 80
     0x0DBB: 09 80 09 80 09 80 00 80 00 80 00 80 00 80 00 80
     0x0DCB: 00 80 00 80 00 80 00 80 00 80 00 80 00 80 00 80
     0x0DDB: 00 80 00 80 00 80 00 80 00 80 00 80 00 80 00 80
     0x0DEB: 01 80 02 80 10 80 17 80 2F 80 31 80 05 80 07 80
     0x0DFB: 34 80 1F 80 1E 80 35 80 36 80 37 80 14 80 01 80
     0x0E0B: 02 80 10 80 17 80 00 80 00 80 00 80 00 80 00 80
     0x0E1B: 00 80 00 80 00 80 00 80 00 80 00 80 00 80 00 80
     0x0E2B: 00 80 00 80 00 80 00 80 00 80 00 80 00 80 00 80
     0x0E3B: 00 80 00 80 00 80 00 80 00 80 00 80 00 80 00 80
     0x0E4B: 00 80
# Dead code (unreachable instructions):
     0x0E4D [0x00] END_REQSTACK()
     0x0E4E [0x80] LOAD_WAIT(entity=Unknown NPC (ID: 2147516416/0x80008000))
     0x0E53 [0x00] END_REQSTACK()
     0x0E54 [0x80] LOAD_WAIT(entity=Unknown NPC (ID: 2147516416/0x80008000))
     0x0E59 [0x00] END_REQSTACK()
     0x0E5A [0x80] LOAD_WAIT(entity=Unknown NPC (ID: 2147516416/0x80008000))
     0x0E5F [0x00] END_REQSTACK()
     0x0E60 [0x80] LOAD_WAIT(entity=Unknown NPC (ID: 2147516416/0x80008000))
     0x0E65 [0x00] END_REQSTACK()
     0x0E66 [0x80] LOAD_WAIT(entity=Unknown NPC (ID: 2147516416/0x80008000))
     0x0E6B [0x00] END_REQSTACK()
     0x0E6C [0x80] LOAD_WAIT(entity=Unknown NPC (ID: 2147516416/0x80008000))
     0x0E71 [0x00] END_REQSTACK()
     0x0E72 [0x80] LOAD_WAIT(entity=Unknown NPC (ID: 2147516416/0x80008000))
     0x0E77 [0x00] END_REQSTACK()
     0x0E78 [0x80] LOAD_WAIT(entity=Unknown NPC (ID: 2147516416/0x80008000))
     0x0E7D [0x00] END_REQSTACK()
     0x0E7E [0x80] LOAD_WAIT(entity=Unknown NPC (ID: 2147516416/0x80008000))
     0x0E83 [0x00] END_REQSTACK()
     0x0E84 [0x80] LOAD_WAIT(entity=Unknown NPC (ID: 2147516416/0x80008000))
     0x0E89 [0x00] END_REQSTACK()
     0x0E8A [0x80] LOAD_WAIT(entity=Unknown NPC (ID: 2157084762/0x8092805A))
     0x0E8F [0x93] DISPLAY_ITEM_INFO(item_id=0x9480)
     0x0E92 [0x80] LOAD_WAIT(entity=Unknown NPC (ID: 2157346965/0x80968095))
     0x0E97 [0x97] SAVE_SET_WIND_VALUES(wind_base=0x80, wind_width=0x9880)
     0x0E9C [0x80] LOAD_WAIT(entity=Unknown NPC (ID: 2157609113/0x809A8099))
     0x0EA1 [0x9B] Wait for EventEntity animation to complete
     0x0EA2 [0x80] LOAD_WAIT(entity=Unknown NPC (ID: 2157805724/0x809D809C))
     0x0EA7 [0x9E] SET_RECT_EVENT_SEND_FLAG: Notify client of area movement
     0x0EA9 [0x9F] LOAD_SCHEDULED_TASK_ALT: Load scheduler 0x00800080 with entities [Unknown NPC (ID: 2709561472/0xA180A080), Unknown NPC (ID: 8388736/0x00800080)], work=[0x6180, 0x80]
     0x0EBA [0x80] LOAD_WAIT(entity=Unknown NPC (ID: 2147516416/0x80008000))
     0x0EBF [0x00] END_REQSTACK()
     0x0EC0 [0x80] LOAD_WAIT(entity=Unknown NPC (ID: 2147516416/0x80008000))
     0x0EC5 [0x00] END_REQSTACK()
     0x0EC6 [0x80] LOAD_WAIT(entity=Unknown NPC (ID: 2147516416/0x80008000))
     0x0ECB [0x00] END_REQSTACK()
     0x0ECC [0x80] LOAD_WAIT(entity=Unknown NPC (ID: 2147516416/0x80008000))
     0x0ED1 [0x00] END_REQSTACK()
     0x0ED2 [0x80] LOAD_WAIT(entity=Unknown NPC (ID: 2147516416/0x80008000))
     0x0ED7 [0x00] END_REQSTACK()
     0x0ED8 [0x80] LOAD_WAIT(entity=Unknown NPC (ID: 2158133248/0x80A28000))
     0x0EDD [0xA3] END_LOAD_SCHEDULER_MAIN_ALT: End scheduler 0xAA80A980 with entities [Unknown NPC (ID: 2793448832/0xA680A580), Unknown NPC (ID: 2827003776/0xA880A780)], work=0xA480
     0x0EEC [0x80] LOAD_WAIT(entity=Unknown NPC (ID: 2158395563/0x80A680AB))
     0x0EF1 [0xAC] ENTITY_STATUS_HANDLER: Invalid case 0x80 (bad parse?)
     0x0EF5 [0xA3] END_LOAD_SCHEDULER_MAIN_ALT: End scheduler 0x00800080 with entities [Unknown NPC (ID: 2961223552/0xB080AF80), Unknown NPC (ID: 2994778496/0xB280B180)], work=0xAE80
     0x0F04 [0x80] LOAD_WAIT(entity=Unknown NPC (ID: 2147516416/0x80008000))
     0x0F09 [0x00] END_REQSTACK()
     0x0F0A [0x80] LOAD_WAIT(entity=Unknown NPC (ID: 2147516416/0x80008000))
     0x0F0F [0x00] END_REQSTACK()
     0x0F10 [0x80] LOAD_WAIT(entity=Unknown NPC (ID: 2147516416/0x80008000))
     0x0F15 [0x00] END_REQSTACK()
     0x0F16 [0x80] LOAD_WAIT(entity=Unknown NPC (ID: 2147516416/0x80008000))
     0x0F1B [0x00] END_REQSTACK()
     0x0F1C [0x80] LOAD_WAIT(entity=Unknown NPC (ID: 2147516416/0x80008000))
     0x0F21 [0x00] END_REQSTACK()
     0x0F22 [0x80] LOAD_WAIT(entity=Unknown NPC (ID: 2147516416/0x80008000))
     0x0F27 [0x00] END_REQSTACK()
     0x0F28 [0x80] LOAD_WAIT(entity=Unknown NPC (ID: 2155773952/0x807E8000))
     0x0F2D [0xB3] RANKINGS_BOARD_HANDLER(case_type=0x80)
     0x0F2F [0xB4] UI_WINDOW_STRING_HANDLER(case=0x80 - Unknown case 0x80)
     0x0F31 [0xB5] SET_EVENT_ENTITY_NAME: Change EventEntity name to "V"*
     0x0F35 [0xB4] UI_WINDOW_STRING_HANDLER(case=0x80 - Unknown case 0x80)
     0x0F37 [0xAD] DUAL_ENTITY_SCHEDULER_HANDLER: Execute sub-case 0 with entities [Unknown NPC (ID: 2159509686/0x80B780B6), Unknown NPC (ID: 2159444147/0x80B680B3)], work=4294924026*
     0x0F43 [0xB5] SET_EVENT_ENTITY_NAME: Change EventEntity name to "V"*
     0x0F47 [0x87] WORLD_PASS_HANDLER_A: Send world pass packet 0x1B (Para=0)
     0x0F48 [0x80] LOAD_WAIT(entity=Unknown NPC (ID: 2156888248/0x808F80B8))
     0x0F4D [0x90] EventEntity->Render.Flags0 |= 0x04; EventEntity->Render.Flags1 |= 0x08
     0x0F4E [0x80] LOAD_WAIT(entity=Unknown NPC (ID: 2147516601/0x800080B9))
     0x0F53 [0x00] END_REQSTACK()
     0x0F54 [0x80] LOAD_WAIT(entity=Unknown NPC (ID: 2147516416/0x80008000))
     0x0F59 [0x00] END_REQSTACK()
     0x0F5A [0x80] LOAD_WAIT(entity=Unknown NPC (ID: 2147516416/0x80008000))
     0x0F5F [0x00] END_REQSTACK()
     0x0F60 [0x80] LOAD_WAIT(entity=Unknown NPC (ID: 2147516416/0x80008000))
     0x0F65 [0x00] END_REQSTACK()
     0x0F66 [0x80] LOAD_WAIT(entity=Unknown NPC (ID: 2147516416/0x80008000))
     0x0F6B [0x00] END_REQSTACK()
     0x0F6C [0x80] LOAD_WAIT(entity=Unknown NPC (ID: 2147516416/0x80008000))
     0x0F71 [0x00] END_REQSTACK()
     0x0F72 [0x80] LOAD_WAIT(entity=Unknown NPC (ID: 2147516416/0x80008000))
     0x0F77 [0x00] END_REQSTACK()
     0x0F78 [0x80] LOAD_WAIT(entity=Unknown NPC (ID: 2147516416/0x80008000))
     0x0F7D [0x00] END_REQSTACK()
     0x0F7E [0x80] LOAD_WAIT(entity=Unknown NPC (ID: 2147516416/0x80008000))
     0x0F83 [0x00] END_REQSTACK()
     0x0F84 [0x80] LOAD_WAIT(entity=Unknown NPC (ID: 2147516416/0x80008000))
     0x0F89 [0x00] END_REQSTACK()
     0x0F8A [0x80] LOAD_WAIT(entity=Unknown NPC (ID: 2147516416/0x80008000))
     0x0F8F [0x00] END_REQSTACK()
     0x0F90 [0x80] LOAD_WAIT(entity=Unknown NPC (ID: 2147516416/0x80008000))
     0x0F95 [0x00] END_REQSTACK()
     0x0F96 [0x80] LOAD_WAIT(entity=Unknown NPC (ID: 2147516416/0x80008000))
     0x0F9B [0x00] END_REQSTACK()
     0x0F9C [0x80] LOAD_WAIT(entity=Unknown NPC (ID: 2147516416/0x80008000))
     0x0FA1 [0x00] END_REQSTACK()
     0x0FA2 [0x80] LOAD_WAIT(entity=Unknown NPC (ID: 2147516416/0x80008000))
     0x0FA7 [0x00] END_REQSTACK()
     0x0FA8 [0x80] LOAD_WAIT(entity=Unknown NPC (ID: 2147516416/0x80008000))
     0x0FAD [0x00] END_REQSTACK()
     0x0FAE [0x80] LOAD_WAIT(entity=Unknown NPC (ID: 2147516416/0x80008000))
     0x0FB3 [0x00] END_REQSTACK()
     0x0FB4 [0x80] LOAD_WAIT(entity=Unknown NPC (ID: 2147516416/0x80008000))
     0x0FB9 [0x00] END_REQSTACK()
     0x0FBA [0x80] LOAD_WAIT(entity=Unknown NPC (ID: 2147516416/0x80008000))
     0x0FBF [0x00] END_REQSTACK()
     0x0FC0 [0x80] LOAD_WAIT(entity=Unknown NPC (ID: 2147516416/0x80008000))
     0x0FC5 [0x00] END_REQSTACK()
     0x0FC6 [0x80] LOAD_WAIT(entity=Unknown NPC (ID: 2147516416/0x80008000))
```

### Event 9101

#### Metadata

| Field        | Value    |
|--------------|----------|
| Entrypoint   | 0x1080   |
| Data Size    | 83 bytes |
| Instructions | 19       |

```
      00 01 02 03 04 05 06 07  08 09 0A 0B 0C 0D 0E 0F
      -- -- -- -- -- -- -- --  -- -- -- -- -- -- -- --
1080: 24 16 80 01 80 00 80 25  02 00 10 00 80 00 C1 10  $......%........
1090: 42 03 01 10 00 80 43 00  43 01 1A 8D 09 BA F0 FF  B.....C.C.......
10A0: FF 7F C1 80 C2 80 90 80  C3 80 47 00 C1 80 C2 80  ..........G.....
10B0: 90 80 C3 80 47 01 1A B6  09 03 01 10 00 80 01 D1  ....G...........
10C0: 10 02 00 10 01 80 00 D1  10 03 01 10 01 80 01 D1  ................
10D0: 10 21 00                                          .!.             
```

#### Opcodes

```
  0: 0x1080 [0x24] CREATE_DIALOG(message_id=7462*, default_option=1*, option_flags=0*)
    → "Traverse the light? [Let's do this./No, wait!]"
  1: 0x1087 [0x25] WAIT_DIALOG_SELECT()
  2: 0x1088 [0x02] IF !(Work_Zone[0] == 0*) GOTO 0x10C1
  3: 0x1090 [0x42] SET_CLI_EVENT_CANCEL_DATA()
  4: 0x1091 [0x03] Work_Zone[1] = 0*
  5: 0x1096 [0x43] SEND_EVENT_UPDATE: Send pending tag to server (packet 0x005B)
  6: 0x1098 [0x43] SEND_EVENT_UPDATE: Check pending flag (skip if not pending)
  7: 0x109A [0x1A] CALL_SUBROUTINE(address=0x098D)
  8: 0x109D [0xBA] SET_ENTITY_POSITION(entity_id=LocalPlayer, pos_x=-581.000*, pos_z=-1071.850*, pos_y=-417.400*, direction=248.7°*)
  9: 0x10AA [0x47] UPDATE_PLAYER_POS(-581.000*, -1071.850*, -417.400*, yaw=248.7°*)
 10: 0x10B4 [0x47] WAIT_PLAYER_POS_UPDATE
 11: 0x10B6 [0x1A] CALL_SUBROUTINE(address=0x09B6)
 12: 0x10B9 [0x03] Work_Zone[1] = 0*
 13: 0x10BE [0x01] GOTO 0x10D1
 14: 0x10C1 [0x02] IF !(Work_Zone[0] == 1*) GOTO 0x10D1
 15: 0x10C9 [0x03] Work_Zone[1] = 1*
 16: 0x10CE [0x01] GOTO 0x10D1

SUBROUTINE_10D1:
 17: 0x10D1 [0x21] END_EVENT
 18: 0x10D2 [0x00] END_REQSTACK()
```

### Event 9251

#### Metadata

| Field        | Value    |
|--------------|----------|
| Entrypoint   | 0x10D3   |
| Data Size    | 36 bytes |
| Instructions | 12       |

```
      00 01 02 03 04 05 06 07  08 09 0A 0B 0C 0D 0E 0F
      -- -- -- -- -- -- -- --  -- -- -- -- -- -- -- --
10D0:          1A 7E 12 1A 98  12 20 01 1C 23 80 06 0D     .~.... ..#...
10E0: 00 06 0C 00 06 0B 00 02  0D 00 00 80 00 F5 10 1A  ................
10F0: 5E 13 01 E7 10 21 00                              ^....!.         
```

#### Opcodes

```
  0: 0x10D3 [0x1A] CALL_SUBROUTINE(address=0x127E)
  1: 0x10D6 [0x1A] CALL_SUBROUTINE(address=0x1298)
  2: 0x10D9 [0x20] SET_CLI_EVENT_UC_FLAG: Lock player control
  3: 0x10DB [0x1C] WAIT(60* ticks)
  4: 0x10DE [0x06] ExtData[1]->WorkLocal[13] = 0
  5: 0x10E1 [0x06] ExtData[1]->WorkLocal[12] = 0
  6: 0x10E4 [0x06] ExtData[1]->WorkLocal[11] = 0
  7: 0x10E7 [0x02] IF !(ExtData[1]->WorkLocal[13] == 0*) GOTO 0x10F5
  8: 0x10EF [0x1A] CALL_SUBROUTINE(address=0x135E)
  9: 0x10F2 [0x01] GOTO 0x10E7
 10: 0x10F5 [0x21] END_EVENT
 11: 0x10F6 [0x00] END_REQSTACK()
```

### Event 9250

#### Metadata

| Field        | Value    |
|--------------|----------|
| Entrypoint   | 0x10F7   |
| Data Size    | 36 bytes |
| Instructions | 12       |

```
      00 01 02 03 04 05 06 07  08 09 0A 0B 0C 0D 0E 0F
      -- -- -- -- -- -- -- --  -- -- -- -- -- -- -- --
10F0:                      1A  7E 12 1A 98 12 20 01 1C         .~.... ..
1100: 23 80 06 0D 00 06 0C 00  06 0B 00 02 0D 00 00 80  #...............
1110: 00 19 11 1A BD 12 01 0B  11 21 00                 .........!.     
```

#### Opcodes

```
  0: 0x10F7 [0x1A] CALL_SUBROUTINE(address=0x127E)
  1: 0x10FA [0x1A] CALL_SUBROUTINE(address=0x1298)
  2: 0x10FD [0x20] SET_CLI_EVENT_UC_FLAG: Lock player control
  3: 0x10FF [0x1C] WAIT(60* ticks)
  4: 0x1102 [0x06] ExtData[1]->WorkLocal[13] = 0
  5: 0x1105 [0x06] ExtData[1]->WorkLocal[12] = 0
  6: 0x1108 [0x06] ExtData[1]->WorkLocal[11] = 0
  7: 0x110B [0x02] IF !(ExtData[1]->WorkLocal[13] == 0*) GOTO 0x1119
  8: 0x1113 [0x1A] CALL_SUBROUTINE(address=0x12BD)
  9: 0x1116 [0x01] GOTO 0x110B
 10: 0x1119 [0x21] END_EVENT
 11: 0x111A [0x00] END_REQSTACK()
```

### Event 9252

#### Metadata

| Field        | Value      |
|--------------|------------|
| Entrypoint   | 0x111B     |
| Data Size    | 1168 bytes |
| Instructions | 157        |

```
      00 01 02 03 04 05 06 07  08 09 0A 0B 0C 0D 0E 0F
      -- -- -- -- -- -- -- --  -- -- -- -- -- -- -- --
1110:                                   1A 7E 12 1A 98             .~...
1120: 12 20 01 1C 23 80 06 0D  00 02 2A 00 00 80 02 39  . ..#.....*....9
1130: 11 48 C4 80 23 48 C5 80  23 06 0C 00 06 0B 00 02  .H..#H..#.......
1140: 0D 00 00 80 00 AC 11 02  2A 00 00 80 80 55 11 1A  ........*....U..
1150: 5E 13 01 A9 11 02 2A 00  01 80 80 A9 11 03 02 10  ^.....*.........
1160: 30 00 24 C6 80 0C 00 0B  00 25 02 00 10 00 80 00  0.$......%......
1170: 7D 11 05 0D 00 03 01 10  13 80 01 7D 11 03 0C 00  }..........}....
1180: 00 10 02 0D 00 00 80 00  A6 11 02 0C 00 01 80 80  ................
1190: 98 11 1A AE 11 01 A6 11  02 0C 00 02 80 80 A6 11  ................
11A0: 1A 46 12 01 A6 11 01 A9  11 01 3F 11 21 00 06 29  .F........?.!..)
11B0: 00 06 27 00 06 28 00 02  28 00 00 80 00 45 12 03  ..'..(..(....E..
11C0: 02 10 2F 00 03 03 10 30  00 24 C7 80 27 00 29 00  ../....0.$..'.).
11D0: 25 02 00 10 00 80 00 DF  11 05 28 00 01 DF 11 03  %.........(.....
11E0: 27 00 00 10 02 28 00 00  80 00 42 12 40 00 80 14  '....(....B.@...
11F0: 80 01 10 02 80 40 15 80  0B 80 01 10 27 00 43 00  .....@......'.C.
1200: 43 01 1A 7E 12 1A 98 12  02 05 10 00 80 02 1E 12  C..~............
1210: 05 28 00 05 0D 00 03 01  10 13 80 01 42 12 02 2A  .(..........B..*
1220: 00 00 80 00 2F 12 05 28  00 06 0C 00 01 42 12 02  ..../..(.....B..
1230: 30 00 00 80 00 42 12 05  0D 00 05 28 00 03 01 10  0....B.....(....
1240: 13 80 01 B7 11 1B 24 C8  80 01 80 00 80 25 02 00  ......$......%..
1250: 10 00 80 00 72 12 05 0D  00 40 00 80 14 80 01 10  ....r....@......
1260: 10 80 40 15 80 0B 80 01  10 00 80 43 00 43 01 01  ..@........C.C..
1270: 7D 12 02 00 10 01 80 00  7D 12 01 7D 12 1B 03 2B  }.......}..}...+
1280: 00 03 10 03 2C 00 04 10  03 2A 00 07 10 03 30 00  ....,....*....0.
1290: 08 10 03 2F 00 09 10 1B  41 00 80 14 80 2B 00 31  .../....A....+.1
12A0: 00 41 15 80 0B 80 2B 00  32 00 41 00 80 14 80 2C  .A....+.2.A....,
12B0: 00 33 00 41 15 80 0B 80  2C 00 34 00 1B 1A 6C 14  .3.A....,.4...l.
12C0: 24 C9 80 0C 00 0B 00 25  02 00 10 00 80 00 DB 12  $......%........
12D0: 05 0D 00 03 01 10 13 80  01 DB 12 03 0C 00 00 10  ................
12E0: 02 0D 00 00 80 00 5D 13  02 0C 00 34 80 01 5A 13  ......]....4..Z.
12F0: 03 19 00 0C 00 0C 19 00  9D 00 CB 14 35 00 19 00  ............5...
1300: 93 35 00 48 CA 80 23 93  00 80 24 CB 80 01 80 00  .5.H..#...$.....
1310: 80 25 02 00 10 00 80 00  4C 13 40 00 80 14 80 01  .%......L.@.....
1320: 10 01 80 40 15 80 0B 80  01 10 19 00 43 00 43 01  ...@........C.C.
1330: 1A 7E 12 1A 98 12 1A 44  14 02 13 00 00 80 00 49  .~.....D.......I
1340: 13 05 0D 00 03 01 10 13  80 01 57 13 02 00 10 01  ..........W.....
1350: 80 00 57 13 01 57 13 01  5D 13 1A 46 12 1B 1A FF  ..W..W..]..F....
1360: 13 24 CC 80 0C 00 0B 00  25 02 00 10 00 80 00 7C  .$......%......|
1370: 13 05 0D 00 03 01 10 13  80 01 7C 13 03 0C 00 00  ..........|.....
1380: 10 02 0D 00 00 80 00 FE  13 02 0C 00 34 80 01 FB  ............4...
1390: 13 03 19 00 0C 00 0C 19  00 9D 00 CB 14 35 00 19  .............5..
13A0: 00 93 35 00 48 CA 80 23  93 00 80 24 CB 80 01 80  ..5.H..#...$....
13B0: 00 80 25 02 00 10 00 80  00 ED 13 40 00 80 14 80  ..%........@....
13C0: 01 10 01 80 40 15 80 0B  80 01 10 19 00 43 00 43  ....@........C.C
13D0: 01 1A 7E 12 1A 98 12 1A  44 14 02 13 00 00 80 00  ..~.....D.......
13E0: EA 13 05 0D 00 03 01 10  13 80 01 F8 13 02 00 10  ................
13F0: 01 80 00 F8 13 01 F8 13  01 FE 13 1A 46 12 1B 1A  ............F...
1400: B1 14 06 15 00 03 0B 00  1B 80 02 15 00 17 80 03  ................
1410: 37 14 9D 00 CB 14 11 00  15 00 9D 05 DB 14 11 00  7...............
1420: 15 00 02 11 00 00 80 02  31 14 3D 0B 00 15 00 01  ........1.=.....
1430: 80 0B 15 00 01 0A 14 10  0B 00 01 80 3D 0B 00 34  ............=..4
1440: 80 01 80 1B 06 15 00 06  13 00 02 15 00 17 80 03  ................
1450: 6B 14 9D 00 CB 14 11 00  15 00 02 11 00 00 80 02  k...............
1460: 65 14 0B 13 00 0B 15 00  01 4A 14 1B 1A B1 14 06  e........J......
1470: 15 00 03 0B 00 1B 80 02  15 00 17 80 03 A4 14 9D  ................
1480: 00 CB 14 11 00 15 00 9D  05 DB 14 11 00 15 00 02  ................
1490: 11 00 00 80 02 9E 14 3D  0B 00 15 00 01 80 0B 15  .......=........
14A0: 00 01 77 14 10 0B 00 01  80 3D 0B 00 34 80 01 80  ..w......=..4...
14B0: 1B 06 15 00 02 15 00 07  80 03 CA 14 9D 05 DB 14  ................
14C0: 00 80 15 00 0B 15 00 01  B4 14 1B 31 00 32 00 33  ...........1.2.3
14D0: 00 34 00 00 80 00 80 00  80 00 80 02 10 03 10 04  .4..............
14E0: 10 05 10 06 10 07 10 08  10 09 10 CD 80 CE 80 CF  ................
14F0: 80 D0 80 D1 80 D2 80 D3  80 D4 80 D5 80 D6 80 D7  ................
1500: 80 D8 80 D9 80 DA 80 DB  80 DC 80 DD 80 DE 80 DF  ................
1510: 80 E0 80 E1 80 E2 80 E3  80 E4 80 E5 80 E6 80 E7  ................
1520: 80 E8 80 E9 80 EA 80 EB  80 EC 80 ED 80 EE 80 EF  ................
1530: 80 F0 80 F1 80 F2 80 F3  80 F4 80 F5 80 F6 80 F7  ................
1540: 80 F8 80 F9 80 FA 80 00  80 00 80 00 80 01 80 02  ................
1550: 80 10 80 17 80 2F 80 31  80 05 80 07 80 34 80 1F  ...../.1.....4..
1560: 80 1E 80 35 80 36 80 37  80 14 80 15 80 FB 80 FC  ...5.6.7........
1570: 80 FD 80 FE 80 FF 80 08  80 0A 80 BF 80 00 81 01  ................
1580: 81 02 81 BD 80 03 81 20  80 0B 80 1C 80 04 81 05  ....... ........
1590: 81 06 81 07 81 08 81 09  81 0A 81 18 80 0B 81 0C  ................
15A0: 81 0D 81 0E 81 0F 81 00  80 00 80                 ...........     
```

#### Opcodes

```
  0: 0x111B [0x1A] CALL_SUBROUTINE(address=0x127E)
  1: 0x111E [0x1A] CALL_SUBROUTINE(address=0x1298)
  2: 0x1121 [0x20] SET_CLI_EVENT_UC_FLAG: Lock player control
  3: 0x1123 [0x1C] WAIT(60* ticks)
  4: 0x1126 [0x06] ExtData[1]->WorkLocal[13] = 0
  5: 0x1129 [0x02] IF !(ExtData[1]->WorkLocal[42] <= 0*) GOTO 0x1139
  6: 0x1131 [0x48] [System] [7721*]:
    → "The chest is locked."
  7: 0x1134 [0x23] WAIT_FOR_DIALOG_INTERACTION
  8: 0x1135 [0x48] [System] [7618*]:
    → "This treasure chest has been fitted with a unique combination lock that randomly generates numbers from 1`99. Opening it requires you to guess whether the next number is greater or less than the previous."
  9: 0x1138 [0x23] WAIT_FOR_DIALOG_INTERACTION
 10: 0x1139 [0x06] ExtData[1]->WorkLocal[12] = 0
 11: 0x113C [0x06] ExtData[1]->WorkLocal[11] = 0
 12: 0x113F [0x02] IF !(ExtData[1]->WorkLocal[13] == 0*) GOTO 0x11AC
 13: 0x1147 [0x02] IF !(ExtData[1]->WorkLocal[42] == 0*) GOTO 0x1155
 14: 0x114F [0x1A] CALL_SUBROUTINE(address=0x135E)
 15: 0x1152 [0x01] GOTO 0x11A9
 16: 0x1155 [0x02] IF !(ExtData[1]->WorkLocal[42] == 1*) GOTO 0x11A9
 17: 0x115D [0x03] Work_Zone[2] = ExtData[1]->WorkLocal[48]
 18: 0x1162 [0x24] CREATE_DIALOG(message_id=7625*, default_option=ExtData[1]->WorkLocal[12], option_flags=ExtData[1]->WorkLocal[11])
    → "What will you do? [Do nothing./Attempt to unlock it./Destroy the chest.]"
 19: 0x1169 [0x25] WAIT_DIALOG_SELECT()
 20: 0x116A [0x02] IF !(Work_Zone[0] == 0*) GOTO 0x117D
 21: 0x1172 [0x05] ExtData[1]->WorkLocal[13] = 1
 22: 0x1175 [0x03] Work_Zone[1] = 1073741824*
 23: 0x117A [0x01] GOTO 0x117D

SUBROUTINE_117D:
 24: 0x117D [0x03] ExtData[1]->WorkLocal[12] = Work_Zone[0]
 25: 0x1182 [0x02] IF !(ExtData[1]->WorkLocal[13] == 0*) GOTO 0x11A6
 26: 0x118A [0x02] IF !(ExtData[1]->WorkLocal[12] == 1*) GOTO 0x1198
 27: 0x1192 [0x1A] CALL_SUBROUTINE(address=0x11AE)
 28: 0x1195 [0x01] GOTO 0x11A6
 29: 0x1198 [0x02] IF !(ExtData[1]->WorkLocal[12] == 2*) GOTO 0x11A6
 30: 0x11A0 [0x1A] CALL_SUBROUTINE(address=0x1246)
 31: 0x11A3 [0x01] GOTO 0x11A6

SUBROUTINE_11A6:
 32: 0x11A6 [0x01] GOTO 0x11A9

SUBROUTINE_11A9:
 33: 0x11A9 [0x01] GOTO 0x113F
 34: 0x11AC [0x21] END_EVENT
 35: 0x11AD [0x00] END_REQSTACK()

SUBROUTINE_11AE:
 36: 0x11AE [0x06] ExtData[1]->WorkLocal[41] = 0
 37: 0x11B1 [0x06] ExtData[1]->WorkLocal[39] = 0
 38: 0x11B4 [0x06] ExtData[1]->WorkLocal[40] = 0

SUBROUTINE_11B7:
 39: 0x11B7 [0x02] IF !(ExtData[1]->WorkLocal[40] == 0*) GOTO 0x1245
 40: 0x11BF [0x03] Work_Zone[2] = ExtData[1]->WorkLocal[47]
 41: 0x11C4 [0x03] Work_Zone[3] = ExtData[1]->WorkLocal[48]
 42: 0x11C9 [0x24] CREATE_DIALOG(message_id=7619*, default_option=ExtData[1]->WorkLocal[39], option_flags=ExtData[1]->WorkLocal[41])
    → "Previous: $0 ($1 tr[y/ies] left) [Do nothing./Twist number dial up./Twist number dial down.]"
 43: 0x11D0 [0x25] WAIT_DIALOG_SELECT()
 44: 0x11D1 [0x02] IF !(Work_Zone[0] == 0*) GOTO 0x11DF
 45: 0x11D9 [0x05] ExtData[1]->WorkLocal[40] = 1
 46: 0x11DC [0x01] GOTO 0x11DF

SUBROUTINE_11DF:
 47: 0x11DF [0x03] ExtData[1]->WorkLocal[39] = Work_Zone[0]
 48: 0x11E4 [0x02] IF !(ExtData[1]->WorkLocal[40] == 0*) GOTO 0x1242
 49: 0x11EC [0x40] SET_BIT_WORK_RANGE(start_bit=0*, end_bit=15*, target=Work_Zone[1], source=2*)
 50: 0x11F5 [0x40] SET_BIT_WORK_RANGE(start_bit=16*, end_bit=31*, target=Work_Zone[1], source=ExtData[1]->WorkLocal[39])
 51: 0x11FE [0x43] SEND_EVENT_UPDATE: Send pending tag to server (packet 0x005B)
 52: 0x1200 [0x43] SEND_EVENT_UPDATE: Check pending flag (skip if not pending)
 53: 0x1202 [0x1A] CALL_SUBROUTINE(address=0x127E)
 54: 0x1205 [0x1A] CALL_SUBROUTINE(address=0x1298)
 55: 0x1208 [0x02] IF !(Work_Zone[5] <= 0*) GOTO 0x121E
 56: 0x1210 [0x05] ExtData[1]->WorkLocal[40] = 1
 57: 0x1213 [0x05] ExtData[1]->WorkLocal[13] = 1
 58: 0x1216 [0x03] Work_Zone[1] = 1073741824*
 59: 0x121B [0x01] GOTO 0x1242
 60: 0x121E [0x02] IF !(ExtData[1]->WorkLocal[42] == 0*) GOTO 0x122F
 61: 0x1226 [0x05] ExtData[1]->WorkLocal[40] = 1
 62: 0x1229 [0x06] ExtData[1]->WorkLocal[12] = 0
 63: 0x122C [0x01] GOTO 0x1242
 64: 0x122F [0x02] IF !(ExtData[1]->WorkLocal[48] == 0*) GOTO 0x1242
 65: 0x1237 [0x05] ExtData[1]->WorkLocal[13] = 1
 66: 0x123A [0x05] ExtData[1]->WorkLocal[40] = 1
 67: 0x123D [0x03] Work_Zone[1] = 1073741824*

SUBROUTINE_1242:
 68: 0x1242 [0x01] GOTO 0x11B7
 69: 0x1245 [0x1B] RETURN

SUBROUTINE_1246:
 70: 0x1246 [0x24] CREATE_DIALOG(message_id=7623*, default_option=1*, option_flags=0*)
    → "The chest will be lost. Proceed? [Yes, destroy./No, cancel.]"
 71: 0x124D [0x25] WAIT_DIALOG_SELECT()
 72: 0x124E [0x02] IF !(Work_Zone[0] == 0*) GOTO 0x1272
 73: 0x1256 [0x05] ExtData[1]->WorkLocal[13] = 1
 74: 0x1259 [0x40] SET_BIT_WORK_RANGE(start_bit=0*, end_bit=15*, target=Work_Zone[1], source=3*)
 75: 0x1262 [0x40] SET_BIT_WORK_RANGE(start_bit=16*, end_bit=31*, target=Work_Zone[1], source=0*)
 76: 0x126B [0x43] SEND_EVENT_UPDATE: Send pending tag to server (packet 0x005B)
 77: 0x126D [0x43] SEND_EVENT_UPDATE: Check pending flag (skip if not pending)
 78: 0x126F [0x01] GOTO 0x127D
 79: 0x1272 [0x02] IF !(Work_Zone[0] == 1*) GOTO 0x127D
 80: 0x127A [0x01] GOTO 0x127D

SUBROUTINE_127D:
 81: 0x127D [0x1B] RETURN

SUBROUTINE_127E:
 82: 0x127E [0x03] ExtData[1]->WorkLocal[43] = Work_Zone[3]
 83: 0x1283 [0x03] ExtData[1]->WorkLocal[44] = Work_Zone[4]
 84: 0x1288 [0x03] ExtData[1]->WorkLocal[42] = Work_Zone[7]
 85: 0x128D [0x03] ExtData[1]->WorkLocal[48] = Work_Zone[8]
 86: 0x1292 [0x03] ExtData[1]->WorkLocal[47] = Work_Zone[9]
 87: 0x1297 [0x1B] RETURN

SUBROUTINE_1298:
 88: 0x1298 [0x41] ExtData[1]->WorkLocal[49] = ExtData[1]->WorkLocal[43] (bits 0*-15*)
 89: 0x12A1 [0x41] ExtData[1]->WorkLocal[50] = ExtData[1]->WorkLocal[43] (bits 16*-31*)
 90: 0x12AA [0x41] ExtData[1]->WorkLocal[51] = ExtData[1]->WorkLocal[44] (bits 0*-15*)
 91: 0x12B3 [0x41] ExtData[1]->WorkLocal[52] = ExtData[1]->WorkLocal[44] (bits 16*-31*)
 92: 0x12BC [0x1B] RETURN

SUBROUTINE_135E:
 93: 0x135E [0x1A] CALL_SUBROUTINE(address=0x13FF)
 94: 0x1361 [0x24] CREATE_DIALOG(message_id=7617*, default_option=ExtData[1]->WorkLocal[12], option_flags=ExtData[1]->WorkLocal[11])
    → "Which item will you obtain? [None of them./$0/$1/$2/$3/$4/$5/$6/$7/Destroy treasure chest.]"
 95: 0x1368 [0x25] WAIT_DIALOG_SELECT()
 96: 0x1369 [0x02] IF !(Work_Zone[0] == 0*) GOTO 0x137C
 97: 0x1371 [0x05] ExtData[1]->WorkLocal[13] = 1
 98: 0x1374 [0x03] Work_Zone[1] = 1073741824*
 99: 0x1379 [0x01] GOTO 0x137C

SUBROUTINE_137C:
100: 0x137C [0x03] ExtData[1]->WorkLocal[12] = Work_Zone[0]
101: 0x1381 [0x02] IF !(ExtData[1]->WorkLocal[13] == 0*) GOTO 0x13FE
102: 0x1389 [0x02] IF !(ExtData[1]->WorkLocal[12] == 9*) GOTO 0x13FB
103: 0x1391 [0x03] ExtData[1]->WorkLocal[25] = ExtData[1]->WorkLocal[12]
104: 0x1396 [0x0C] ExtData[1]->WorkLocal[25]--
105: 0x1399 [0x9D] ExtData[1]->WorkLocal[53] = 0x14CB[ExtData[1]->WorkLocal[25]] // Read WORD
106: 0x13A1 [0x93] DISPLAY_ITEM_INFO(item_id=ExtData[1]->WorkLocal[53])
107: 0x13A4 [0x48] [System] [7739*]:
    → "Obtain this item?"
108: 0x13A7 [0x23] WAIT_FOR_DIALOG_INTERACTION
109: 0x13A8 [0x93] DISPLAY_ITEM_INFO(item_id=0*)
110: 0x13AB [0x24] CREATE_DIALOG(message_id=7715*, default_option=1*, option_flags=0*)
    → "Obtain this item? [Yes./No.]"
111: 0x13B2 [0x25] WAIT_DIALOG_SELECT()
112: 0x13B3 [0x02] IF !(Work_Zone[0] == 0*) GOTO 0x13ED
113: 0x13BB [0x40] SET_BIT_WORK_RANGE(start_bit=0*, end_bit=15*, target=Work_Zone[1], source=1*)
114: 0x13C4 [0x40] SET_BIT_WORK_RANGE(start_bit=16*, end_bit=31*, target=Work_Zone[1], source=ExtData[1]->WorkLocal[25])
115: 0x13CD [0x43] SEND_EVENT_UPDATE: Send pending tag to server (packet 0x005B)
116: 0x13CF [0x43] SEND_EVENT_UPDATE: Check pending flag (skip if not pending)
117: 0x13D1 [0x1A] CALL_SUBROUTINE(address=0x127E)
118: 0x13D4 [0x1A] CALL_SUBROUTINE(address=0x1298)
119: 0x13D7 [0x1A] CALL_SUBROUTINE(address=0x1444)
120: 0x13DA [0x02] IF !(ExtData[1]->WorkLocal[19] == 0*) GOTO 0x13EA
121: 0x13E2 [0x05] ExtData[1]->WorkLocal[13] = 1
122: 0x13E5 [0x03] Work_Zone[1] = 1073741824*
123: 0x13EA [0x01] GOTO 0x13F8
124: 0x13ED [0x02] IF !(Work_Zone[0] == 1*) GOTO 0x13F8
125: 0x13F5 [0x01] GOTO 0x13F8

SUBROUTINE_13F8:
126: 0x13F8 [0x01] GOTO 0x13FE
127: 0x13FB [0x1A] CALL_SUBROUTINE(address=0x1246)

SUBROUTINE_13FE:
128: 0x13FE [0x1B] RETURN

SUBROUTINE_13FF:
129: 0x13FF [0x1A] CALL_SUBROUTINE(address=0x14B1)
130: 0x1402 [0x06] ExtData[1]->WorkLocal[21] = 0
131: 0x1405 [0x03] ExtData[1]->WorkLocal[11] = 4294967295*

SUBROUTINE_140A:
