# 17039461 - King of Hearts

## Common Data

| Field            | Value                              |
|------------------|------------------------------------|
| Zone             | Navukgo Execution Chamber (ID: 64) |
| Block Size       | 536 bytes                          |
| Total Events     | 17                                 |
| References Count | 48                                 |

## List of Events

| Event ID                   | Entrypoint   |   Size |   Instructions |
|----------------------------|--------------|--------|----------------|
| [65535](#event-65535)      | 0x0000       |      1 |              1 |
| [1](#event-1)              | 0x0001       |      1 |              1 |
| [2](#event-2)              | 0x0002       |      1 |              1 |
| [32000](#event-32000)      | 0x0003       |      1 |              1 |
| [32001](#event-32001)      | 0x0004       |      1 |              1 |
| [65535.1](#event-655351)   | 0x0005       |      9 |              3 |
| [65535.2](#event-655352)   | 0x000E       |     10 |              2 |
| [65535.3](#event-655353)   | 0x0018       |     14 |              4 |
| [65535.4](#event-655354)   | 0x0026       |     10 |              2 |
| [65535.5](#event-655355)   | 0x0030       |     14 |              4 |
| [65535.6](#event-655356)   | 0x003E       |     22 |              6 |
| [65535.7](#event-655357)   | 0x0054       |     27 |              7 |
| [65535.8](#event-655358)   | 0x006F       |     10 |              2 |
| [65535.9](#event-655359)   | 0x0079       |     10 |              2 |
| [65535.10](#event-6553510) | 0x0083       |     22 |              6 |
| [65535.11](#event-6553511) | 0x0099       |     98 |             21 |
| [65535.12](#event-6553512) | 0x00FB       |      6 |              2 |

## DAT References (imed_data)

|   Index | Hex Value   |   Dec Value |
|---------|-------------|-------------|
|       0 | 0x4C616     |      312854 |
|       1 | 0x5C3C4     |      377796 |
|       2 | 0xFFFE1DAD  |  4294843821 |
|       3 | 0x0F50      |        3920 |
|       4 | 0x000D      |          13 |
|       5 | 0x4F886     |      325766 |
|       6 | 0x5C8D9     |      379097 |
|       7 | 0xFFFE28F5  |  4294846709 |
|       8 | 0x5CE46     |      380486 |
|       9 | 0x5C8E6     |      379110 |
|      10 | 0xFFFE3AE0  |  4294851296 |
|      11 | 0x0F06      |        3846 |
|      12 | 0x5DEA4     |      384676 |
|      13 | 0x5C910     |      379152 |
|      14 | 0x5E62E     |      386606 |
|      15 | 0x5C6AA     |      378538 |
|      16 | 0x001E      |          30 |
|      17 | 0x5F2FB     |      389883 |
|      18 | 0x5CB79     |      379769 |
|      19 | 0xFFFE39B4  |  4294850996 |
|      20 | 0x0078      |         120 |
|      21 | 0x5A42C     |      369708 |
|      22 | 0x5CB07     |      379655 |
|      23 | 0x0046      |          70 |
|      24 | 0x58F1D     |      364317 |
|      25 | 0x5D9CA     |      383434 |
|      26 | 0x00A4      |         164 |
|      27 | 0x5BBB9     |      375737 |
|      28 | 0x5D3C5     |      381893 |
|      29 | 0xFFFE3AE1  |  4294851297 |
|      30 | 0x003C      |          60 |
|      31 | 0x0000      |           0 |
|      32 | 0x0028      |          40 |
|      33 | 0x5C5A6     |      378278 |
|      34 | 0x5D7CB     |      382923 |
|      35 | 0x5CC49     |      379977 |
|      36 | 0x5D1DD     |      381405 |
|      37 | 0x5CFEE     |      380910 |
|      38 | 0x5CA4E     |      379470 |
|      39 | 0x5CB9E     |      379806 |
|      40 | 0x5C4BF     |      378047 |
|      41 | 0x5C361     |      377697 |
|      42 | 0x5C19F     |      377247 |
|      43 | 0x5BE56     |      376406 |
|      44 | 0x5C5DD     |      378333 |
|      45 | 0x5BA77     |      375415 |
|      46 | 0x5CD33     |      380211 |
|      47 | 0x0001      |           1 |

## Events

### Event 65535

#### Metadata

| Field        | Value   |
|--------------|---------|
| Entrypoint   | 0x0000  |
| Data Size    | 1 bytes |
| Instructions | 1       |

```
      00 01 02 03 04 05 06 07  08 09 0A 0B 0C 0D 0E 0F
      -- -- -- -- -- -- -- --  -- -- -- -- -- -- -- --
0000: 00                                                .               
```

#### Opcodes

```
  0: 0x0000 [0x00] END_REQSTACK()
```

### Event 1

#### Metadata

| Field        | Value   |
|--------------|---------|
| Entrypoint   | 0x0001  |
| Data Size    | 1 bytes |
| Instructions | 1       |

```
      00 01 02 03 04 05 06 07  08 09 0A 0B 0C 0D 0E 0F
      -- -- -- -- -- -- -- --  -- -- -- -- -- -- -- --
0000:    00                                              .              
```

#### Opcodes

```
  0: 0x0001 [0x00] END_REQSTACK()
```

### Event 2

#### Metadata

| Field        | Value   |
|--------------|---------|
| Entrypoint   | 0x0002  |
| Data Size    | 1 bytes |
| Instructions | 1       |

```
      00 01 02 03 04 05 06 07  08 09 0A 0B 0C 0D 0E 0F
      -- -- -- -- -- -- -- --  -- -- -- -- -- -- -- --
0000:       00                                            .             
```

#### Opcodes

```
  0: 0x0002 [0x00] END_REQSTACK()
```

### Event 32000

#### Metadata

| Field        | Value   |
|--------------|---------|
| Entrypoint   | 0x0003  |
| Data Size    | 1 bytes |
| Instructions | 1       |

```
      00 01 02 03 04 05 06 07  08 09 0A 0B 0C 0D 0E 0F
      -- -- -- -- -- -- -- --  -- -- -- -- -- -- -- --
0000:          00                                          .            
```

#### Opcodes

```
  0: 0x0003 [0x00] END_REQSTACK()
```

### Event 32001

#### Metadata

| Field        | Value   |
|--------------|---------|
| Entrypoint   | 0x0004  |
| Data Size    | 1 bytes |
| Instructions | 1       |

```
      00 01 02 03 04 05 06 07  08 09 0A 0B 0C 0D 0E 0F
      -- -- -- -- -- -- -- --  -- -- -- -- -- -- -- --
0000:             00                                        .           
```

#### Opcodes

```
  0: 0x0004 [0x00] END_REQSTACK()
```

### Event 65535.1

#### Metadata

| Field        | Value   |
|--------------|---------|
| Entrypoint   | 0x0005  |
| Data Size    | 9 bytes |
| Instructions | 3       |

```
      00 01 02 03 04 05 06 07  08 09 0A 0B 0C 0D 0E 0F
      -- -- -- -- -- -- -- --  -- -- -- -- -- -- -- --
0000:                22 00 2F  00 F8 FF FF 7F 00             "./......  
```

#### Opcodes

```
  0: 0x0005 [0x22] ENTITY_HIDE_FLAG(enabled=0x00)
  1: 0x0007 [0x2F] EventEntity->Render.Flags0 &= ~0x80000 // Bit 19
  2: 0x000D [0x00] END_REQSTACK()
```

### Event 65535.2

#### Metadata

| Field        | Value    |
|--------------|----------|
| Entrypoint   | 0x000E   |
| Data Size    | 10 bytes |
| Instructions | 2        |

```
      00 01 02 03 04 05 06 07  08 09 0A 0B 0C 0D 0E 0F
      -- -- -- -- -- -- -- --  -- -- -- -- -- -- -- --
0000:                                            37 00                7.
0010: 80 01 80 02 80 03 80 00                           ........        
```

#### Opcodes

```
  0: 0x000E [0x37] UPDATE_EVENT_POSITION_AND_DIR: x=312.854*, z=377.796*, y=-123.475*, direction=344.5째*
  1: 0x0017 [0x00] END_REQSTACK()
```

### Event 65535.3

#### Metadata

| Field        | Value    |
|--------------|----------|
| Entrypoint   | 0x0018   |
| Data Size    | 14 bytes |
| Instructions | 4        |

```
      00 01 02 03 04 05 06 07  08 09 0A 0B 0C 0D 0E 0F
      -- -- -- -- -- -- -- --  -- -- -- -- -- -- -- --
0010:                          32 04 80 5A 00 05 80 06          2..Z....
0020: 80 07 80 5A 01 00                                 ...Z..          
```

#### Opcodes

```
  0: 0x0018 [0x32] ExtData[1]->MainSpeed = 13* * 0.1
  1: 0x001B [0x5A] UPDATE_EVENT_POSITION: Set EventEntity MovePosition to X=325.766*, Z=379.097*, Y=-120.587*
  2: 0x0023 [0x5A] UPDATE_EVENT_POSITION: Move EventEntity incrementally towards MovePosition
  3: 0x0025 [0x00] END_REQSTACK()
```

### Event 65535.4

#### Metadata

| Field        | Value    |
|--------------|----------|
| Entrypoint   | 0x0026   |
| Data Size    | 10 bytes |
| Instructions | 2        |

```
      00 01 02 03 04 05 06 07  08 09 0A 0B 0C 0D 0E 0F
      -- -- -- -- -- -- -- --  -- -- -- -- -- -- -- --
0020:                   37 08  80 09 80 0A 80 0B 80 00        7.........
```

#### Opcodes

```
  0: 0x0026 [0x37] UPDATE_EVENT_POSITION_AND_DIR: x=380.486*, z=379.110*, y=-116.000*, direction=338.0째*
  1: 0x002F [0x00] END_REQSTACK()
```

### Event 65535.5

#### Metadata

| Field        | Value    |
|--------------|----------|
| Entrypoint   | 0x0030   |
| Data Size    | 14 bytes |
| Instructions | 4        |

```
      00 01 02 03 04 05 06 07  08 09 0A 0B 0C 0D 0E 0F
      -- -- -- -- -- -- -- --  -- -- -- -- -- -- -- --
0030: 32 04 80 1F 00 0C 80 0D  80 0A 80 1F 01 00        2.............  
```

#### Opcodes

```
  0: 0x0030 [0x32] ExtData[1]->MainSpeed = 13* * 0.1
  1: 0x0033 [0x1F] MOVE_ENTITY: EventEntity moves to X=384.676*, Z=379.152*, Y=-116.000*
  2: 0x003B [0x1F] MOVE_ENTITY: Update entity position (mode=1)
  3: 0x003D [0x00] END_REQSTACK()
```

### Event 65535.6

#### Metadata

| Field        | Value    |
|--------------|----------|
| Entrypoint   | 0x003E   |
| Data Size    | 22 bytes |
| Instructions | 6        |

```
      00 01 02 03 04 05 06 07  08 09 0A 0B 0C 0D 0E 0F
      -- -- -- -- -- -- -- --  -- -- -- -- -- -- -- --
0030:                                            32 04                2.
0040: 80 1F 00 0E 80 0F 80 0A  80 1F 01 1E 62 00 04 01  ............b...
0050: 1C 10 80 00                                       ....            
```

#### Opcodes

```
  0: 0x003E [0x32] ExtData[1]->MainSpeed = 13* * 0.1
  1: 0x0041 [0x1F] MOVE_ENTITY: EventEntity moves to X=386.606*, Z=378.538*, Y=-116.000*
  2: 0x0049 [0x1F] MOVE_ENTITY: Update entity position (mode=1)
  3: 0x004B [0x1E] EventEntity looks at Megomak (ID: 17039458/0x01040062) and starts talking
  4: 0x0050 [0x1C] WAIT(30* ticks)
  5: 0x0053 [0x00] END_REQSTACK()
```

### Event 65535.7

#### Metadata

| Field        | Value    |
|--------------|----------|
| Entrypoint   | 0x0054   |
| Data Size    | 27 bytes |
| Instructions | 7        |

```
      00 01 02 03 04 05 06 07  08 09 0A 0B 0C 0D 0E 0F
      -- -- -- -- -- -- -- --  -- -- -- -- -- -- -- --
0050:             32 04 80 1F  00 11 80 12 80 13 80 1F      2...........
0060: 01 1C 14 80 1F 00 0E 80  0F 80 0A 80 1F 01 00     ............... 
```

#### Opcodes

```
  0: 0x0054 [0x32] ExtData[1]->MainSpeed = 13* * 0.1
  1: 0x0057 [0x1F] MOVE_ENTITY: EventEntity moves to X=389.883*, Z=379.769*, Y=-116.300*
  2: 0x005F [0x1F] MOVE_ENTITY: Update entity position (mode=1)
  3: 0x0061 [0x1C] WAIT(120* ticks)
  4: 0x0064 [0x1F] MOVE_ENTITY: EventEntity moves to X=386.606*, Z=378.538*, Y=-116.000*
  5: 0x006C [0x1F] MOVE_ENTITY: Update entity position (mode=1)
  6: 0x006E [0x00] END_REQSTACK()
```

### Event 65535.8

#### Metadata

| Field        | Value    |
|--------------|----------|
| Entrypoint   | 0x006F   |
| Data Size    | 10 bytes |
| Instructions | 2        |

```
      00 01 02 03 04 05 06 07  08 09 0A 0B 0C 0D 0E 0F
      -- -- -- -- -- -- -- --  -- -- -- -- -- -- -- --
0060:                                               37                 7
0070: 15 80 16 80 0A 80 17 80  00                       .........       
```

#### Opcodes

```
  0: 0x006F [0x37] UPDATE_EVENT_POSITION_AND_DIR: x=369.708*, z=379.655*, y=-116.000*, direction=6.2째*
  1: 0x0078 [0x00] END_REQSTACK()
```

### Event 65535.9

#### Metadata

| Field        | Value    |
|--------------|----------|
| Entrypoint   | 0x0079   |
| Data Size    | 10 bytes |
| Instructions | 2        |

```
      00 01 02 03 04 05 06 07  08 09 0A 0B 0C 0D 0E 0F
      -- -- -- -- -- -- -- --  -- -- -- -- -- -- -- --
0070:                             37 18 80 19 80 0A 80           7......
0080: 1A 80 00                                          ...             
```

#### Opcodes

```
  0: 0x0079 [0x37] UPDATE_EVENT_POSITION_AND_DIR: x=364.317*, z=383.434*, y=-116.000*, direction=14.4째*
  1: 0x0082 [0x00] END_REQSTACK()
```

### Event 65535.10

#### Metadata

| Field        | Value    |
|--------------|----------|
| Entrypoint   | 0x0083   |
| Data Size    | 22 bytes |
| Instructions | 6        |

```
      00 01 02 03 04 05 06 07  08 09 0A 0B 0C 0D 0E 0F
      -- -- -- -- -- -- -- --  -- -- -- -- -- -- -- --
0080:          32 04 80 1F 00  1B 80 1C 80 1D 80 1F 01     2............
0090: 1E 64 00 04 01 1C 1E 80  00                       .d.......       
```

#### Opcodes

```
  0: 0x0083 [0x32] ExtData[1]->MainSpeed = 13* * 0.1
  1: 0x0086 [0x1F] MOVE_ENTITY: EventEntity moves to X=375.737*, Z=381.893*, Y=-115.999*
  2: 0x008E [0x1F] MOVE_ENTITY: Update entity position (mode=1)
  3: 0x0090 [0x1E] EventEntity looks at Karababa (ID: 17039460/0x01040064) and starts talking
  4: 0x0095 [0x1C] WAIT(60* ticks)
  5: 0x0098 [0x00] END_REQSTACK()
```

### Event 65535.11

#### Metadata

| Field        | Value    |
|--------------|----------|
| Entrypoint   | 0x0099   |
| Data Size    | 98 bytes |
| Instructions | 21       |

```
      00 01 02 03 04 05 06 07  08 09 0A 0B 0C 0D 0E 0F
      -- -- -- -- -- -- -- --  -- -- -- -- -- -- -- --
0090:                             03 00 00 1F 80 02 00           .......
00A0: 00 1F 80 00 F2 00 32 20  80 1F 00 21 80 22 80 1D  ......2 ...!."..
00B0: 80 1F 01 1F 00 23 80 24  80 0A 80 1F 01 1F 00 25  .....#.$.......%
00C0: 80 26 80 0A 80 1F 01 1F  00 27 80 28 80 0A 80 1F  .&.......'.(....
00D0: 01 1F 00 29 80 2A 80 0A  80 1F 01 1F 00 2B 80 2C  ...).*.......+.,
00E0: 80 0A 80 1F 01 1F 00 2D  80 2E 80 0A 80 1F 01 01  .......-........
00F0: 9E 00 1E 64 00 04 01 1C  1E 80 00                 ...d.......     
```

#### Opcodes

```
  0: 0x0099 [0x03] ExtData[1]->WorkLocal[0] = 0*
  1: 0x009E [0x02] IF !(ExtData[1]->WorkLocal[0] == 0*) GOTO 0x00F2
  2: 0x00A6 [0x32] ExtData[1]->MainSpeed = 40* * 0.1
  3: 0x00A9 [0x1F] MOVE_ENTITY: EventEntity moves to X=378.278*, Z=382.923*, Y=-115.999*
  4: 0x00B1 [0x1F] MOVE_ENTITY: Update entity position (mode=1)
  5: 0x00B3 [0x1F] MOVE_ENTITY: EventEntity moves to X=379.977*, Z=381.405*, Y=-116.000*
  6: 0x00BB [0x1F] MOVE_ENTITY: Update entity position (mode=1)
  7: 0x00BD [0x1F] MOVE_ENTITY: EventEntity moves to X=380.910*, Z=379.470*, Y=-116.000*
  8: 0x00C5 [0x1F] MOVE_ENTITY: Update entity position (mode=1)
  9: 0x00C7 [0x1F] MOVE_ENTITY: EventEntity moves to X=379.806*, Z=378.047*, Y=-116.000*
 10: 0x00CF [0x1F] MOVE_ENTITY: Update entity position (mode=1)
 11: 0x00D1 [0x1F] MOVE_ENTITY: EventEntity moves to X=377.697*, Z=377.247*, Y=-116.000*
 12: 0x00D9 [0x1F] MOVE_ENTITY: Update entity position (mode=1)
 13: 0x00DB [0x1F] MOVE_ENTITY: EventEntity moves to X=376.406*, Z=378.333*, Y=-116.000*
 14: 0x00E3 [0x1F] MOVE_ENTITY: Update entity position (mode=1)
 15: 0x00E5 [0x1F] MOVE_ENTITY: EventEntity moves to X=375.415*, Z=380.211*, Y=-116.000*
 16: 0x00ED [0x1F] MOVE_ENTITY: Update entity position (mode=1)
 17: 0x00EF [0x01] GOTO 0x009E
 18: 0x00F2 [0x1E] EventEntity looks at Karababa (ID: 17039460/0x01040064) and starts talking
 19: 0x00F7 [0x1C] WAIT(60* ticks)
 20: 0x00FA [0x00] END_REQSTACK()
```

### Event 65535.12

#### Metadata

| Field        | Value   |
|--------------|---------|
| Entrypoint   | 0x00FB  |
| Data Size    | 6 bytes |
| Instructions | 2       |

```
      00 01 02 03 04 05 06 07  08 09 0A 0B 0C 0D 0E 0F
      -- -- -- -- -- -- -- --  -- -- -- -- -- -- -- --
00F0:                                   03 00 00 2F 80             .../.
0100: 00                                                .               
```

#### Opcodes

```
  0: 0x00FB [0x03] ExtData[1]->WorkLocal[0] = 1*
  1: 0x0100 [0x00] END_REQSTACK()
```
