# 0x7FFFFFF0 - Zone Events

## Common Data

| Field            | Value                              |
|------------------|------------------------------------|
| Zone             | Navukgo Execution Chamber (ID: 64) |
| Block Size       | 10304 bytes                        |
| Total Events     | 15                                 |
| References Count | 256                                |

## List of Events

| Event ID                 | Entrypoint   |   Size |   Instructions |
|--------------------------|--------------|--------|----------------|
| [65535](#event-65535)    | 0x0000       |      1 |              1 |
| [65534](#event-65534)    | 0x0001       |      1 |              1 |
| [32000](#event-32000)    | 0x0002       |   2116 |            412 |
| [32002](#event-32002)    | 0x0846       |    494 |             83 |
| [32001](#event-32001)    | 0x0A34       |   1049 |            182 |
| [32003](#event-32003)    | 0x0E4D       |    435 |             77 |
| [32004](#event-32004)    | 0x1000       |   5018 |            610 |
| [65535.1](#event-655351) | 0x239A       |     10 |              2 |
| [65535.2](#event-655352) | 0x23A4       |     10 |              2 |
| [65535.3](#event-655353) | 0x23AE       |     10 |              2 |
| [65535.4](#event-655354) | 0x23B8       |     14 |              4 |
| [65535.5](#event-655355) | 0x23C6       |     10 |              2 |
| [65535.6](#event-655356) | 0x23D0       |     14 |              4 |
| [65535.7](#event-655357) | 0x23DE       |     10 |              2 |
| [65535.8](#event-655358) | 0x23E8       |     10 |              2 |

## DAT References (imed_data)

|   Index | Hex Value   |   Dec Value |
|---------|-------------|-------------|
|       0 | 0x0000      |           0 |
|       1 | 0x000F      |          15 |
|       2 | 0x0010      |          16 |
|       3 | 0x001F      |          31 |
|       4 | 0xFFFFFFFF  |  4294967295 |
|       5 | 0x0001      |           1 |
|       6 | 0x1DB6      |        7606 |
|       7 | 0x1DA9      |        7593 |
|       8 | 0x0005      |           5 |
|       9 | 0x0002      |           2 |
|      10 | 0x0003      |           3 |
|      11 | 0x0004      |           4 |
|      12 | 0x1C3B      |        7227 |
|      13 | 0x00FF      |         255 |
|      14 | 0x00C8      |         200 |
|      15 | 0x0013      |          19 |
|      16 | 0x0008      |           8 |
|      17 | 0x0009      |           9 |
|      18 | 0x000B      |          11 |
|      19 | 0x1C46      |        7238 |
|      20 | 0x1C47      |        7239 |
|      21 | 0x1C48      |        7240 |
|      22 | 0x1C49      |        7241 |
|      23 | 0x1C6D      |        7277 |
|      24 | 0x0006      |           6 |
|      25 | 0x0012      |          18 |
|      26 | 0x0007      |           7 |
|      27 | 0x000A      |          10 |
|      28 | 0x000C      |          12 |
|      29 | 0x000D      |          13 |
|      30 | 0x000E      |          14 |
|      31 | 0x0011      |          17 |
|      32 | 0x0014      |          20 |
|      33 | 0x0015      |          21 |
|      34 | 0x0016      |          22 |
|      35 | 0x0017      |          23 |
|      36 | 0x0018      |          24 |
|      37 | 0x0019      |          25 |
|      38 | 0x001A      |          26 |
|      39 | 0x001B      |          27 |
|      40 | 0x001C      |          28 |
|      41 | 0x001D      |          29 |
|      42 | 0x001E      |          30 |
|      43 | 0x1DA2      |        7586 |
|      44 | 0x1DA7      |        7591 |
|      45 | 0x1DA6      |        7590 |
|      46 | 0x003C      |          60 |
|      47 | 0x1DB4      |        7604 |
|      48 | 0x1DB3      |        7603 |
|      49 | 0x0064      |         100 |
|      50 | 0x1D8E      |        7566 |
|      51 | 0x008F      |         143 |
|      52 | 0x1C3E      |        7230 |
|      53 | 0x00C9      |         201 |
|      54 | 0x00B4      |         180 |
|      55 | 0xFFF6C42B  |  4294362155 |
|      56 | 0x752B9     |      479929 |
|      57 | 0xFFFFA767  |  4294944615 |
|      58 | 0x03E0      |         992 |
|      59 | 0xFFFBFE43  |  4294704707 |
|      60 | 0x5C401     |      377857 |
|      61 | 0xFFFDE79F  |  4294829983 |
|      62 | 0x0D92      |        3474 |
|      63 | 0x47AC      |       18348 |
|      64 | 0x76E1C     |      486940 |
|      65 | 0xFFFC93B2  |  4294742962 |
|      66 | 0x00C2      |         194 |
|      67 | 0x388A9     |      231593 |
|      68 | 0x57E9E     |      360094 |
|      69 | 0xFFFD59FC  |  4294793724 |
|      70 | 0x0726      |        1830 |
|      71 | 0x872C0     |      553664 |
|      72 | 0x7FEA3     |      523939 |
|      73 | 0xFFFF6AC3  |  4294929091 |
|      74 | 0x0A65      |        2661 |
|      75 | 0xFFF6C7A3  |  4294363043 |
|      76 | 0xFFFE79A4  |  4294867364 |
|      77 | 0x26DC      |        9948 |
|      78 | 0x0800      |        2048 |
|      79 | 0xFFF2A593  |  4294092179 |
|      80 | 0xFFFF548C  |  4294923404 |
|      81 | 0xFFFF442C  |  4294919212 |
|      82 | 0x0201      |         513 |
|      83 | 0xFFF478D5  |  4294211797 |
|      84 | 0x89AEB     |      563947 |
|      85 | 0xFFFE4A5D  |  4294855261 |
|      86 | 0x0DEF      |        3567 |
|      87 | 0x1E173     |      123251 |
|      88 | 0xB8221     |      754209 |
|      89 | 0xFFFD5FA4  |  4294795172 |
|      90 | 0x01B8      |         440 |
|      91 | 0xFFF81ECC  |  4294450892 |
|      92 | 0xFFF3BE05  |  4294163973 |
|      93 | 0x5E8E      |       24206 |
|      94 | 0x01B5      |         437 |
|      95 | 0x012C      |         300 |
|      96 | 0x0080      |         128 |
|      97 | 0xFFF690A7  |  4294348967 |
|      98 | 0xFFF62CE4  |  4294323428 |
|      99 | 0xFFFF9B33  |  4294941491 |
|     100 | 0x0EB1      |        3761 |
|     101 | 0xFFFAEE7D  |  4294635133 |
|     102 | 0xFFF941C6  |  4294525382 |
|     103 | 0xFFFE8CB1  |  4294872241 |
|     104 | 0x0EB0      |        3760 |
|     105 | 0xFFFFCF50  |  4294954832 |
|     106 | 0xFFF61B47  |  4294318919 |
|     107 | 0xFFFD07BB  |  4294772667 |
|     108 | 0x0EBA      |        3770 |
|     109 | 0x4EF35     |      323381 |
|     110 | 0xFFF93A6F  |  4294523503 |
|     111 | 0xFFFE5868  |  4294858856 |
|     112 | 0x0EA0      |        3744 |
|     113 | 0x92763     |      599907 |
|     114 | 0xFFF5AB97  |  4294290327 |
|     115 | 0xFFFFA837  |  4294944823 |
|     116 | 0x0EB3      |        3763 |
|     117 | 0xFFF7C30F  |  4294427407 |
|     118 | 0x6173      |       24947 |
|     119 | 0xFFFFF4B2  |  4294964402 |
|     120 | 0x00A8      |         168 |
|     121 | 0x30D7B     |      200059 |
|     122 | 0xFFFFAA3A  |  4294945338 |
|     123 | 0xFFFFFF06  |  4294967046 |
|     124 | 0x0411      |        1041 |
|     125 | 0x00CA      |         202 |
|     126 | 0x837EC     |      538604 |
|     127 | 0x7A88C     |      501900 |
|     128 | 0xFFFFC98A  |  4294953354 |
|     129 | 0x0CBC      |        3260 |
|     130 | 0x00CB      |         203 |
|     131 | 0x870F5     |      553205 |
|     132 | 0x8FF41     |      589633 |
|     133 | 0xFFFFFFEB  |  4294967275 |
|     134 | 0x0587      |        1415 |
|     135 | 0x00D3      |         211 |
|     136 | 0x8AF88     |      569224 |
|     137 | 0x85E6E     |      548462 |
|     138 | 0x8FE5      |       36837 |
|     139 | 0x02A1      |         673 |
|     140 | 0x0024      |          36 |
|     141 | 0x1D90      |        7568 |
|     142 | 0x1D8F      |        7567 |
|     143 | 0x1DB2      |        7602 |
|     144 | 0x1D92      |        7570 |
|     145 | 0x1D91      |        7569 |
|     146 | 0xFFF6D01A  |  4294365210 |
|     147 | 0xFFFE796C  |  4294867308 |
|     148 | 0x270F      |        9999 |
|     149 | 0x00D9      |         217 |
|     150 | 0xFFF6E86D  |  4294371437 |
|     151 | 0xFFFE7975  |  4294867317 |
|     152 | 0x2668      |        9832 |
|     153 | 0x0023      |          35 |
|     154 | 0x1DC8      |        7624 |
|     155 | 0x1DC9      |        7625 |
|     156 | 0x1DCA      |        7626 |
|     157 | 0x1DCB      |        7627 |
|     158 | 0x45F39     |      286521 |
|     159 | 0x5CBE7     |      379879 |
|     160 | 0xFFFE1A37  |  4294842935 |
|     161 | 0x0FE3      |        4067 |
|     162 | 0xFFFE41F1  |  4294853105 |
|     163 | 0xFFFFB132  |  4294947122 |
|     164 | 0xFFFFA113  |  4294942995 |
|     165 | 0x46046     |      286790 |
|     166 | 0xFFF995BA  |  4294546874 |
|     167 | 0x127D1     |       75729 |
|     168 | 0x0FF7      |        4087 |
|     169 | 0x02E8      |         744 |
|     170 | 0x00C4      |         196 |
|     171 | 0x00F0      |         240 |
|     172 | 0x0078      |         120 |
|     173 | 0x007F      |         127 |
|     174 | 0x0028      |          40 |
|     175 | 0x1E52      |        7762 |
|     176 | 0x1E53      |        7763 |
|     177 | 0x01E0      |         480 |
|     178 | 0x1DCC      |        7628 |
|     179 | 0x1DCD      |        7629 |
|     180 | 0x1DCE      |        7630 |
|     181 | 0x1DCF      |        7631 |
|     182 | 0x1DD0      |        7632 |
|     183 | 0x1DD1      |        7633 |
|     184 | 0x1DD2      |        7634 |
|     185 | 0x033E      |         830 |
|     186 | 0x00A3      |         163 |
|     187 | 0x0029      |          41 |
|     188 | 0x1E54      |        7764 |
|     189 | 0x00B5      |         181 |
|     190 | 0x1E55      |        7765 |
|     191 | 0x1E56      |        7766 |
|     192 | 0x1E57      |        7767 |
|     193 | 0x00D8      |         216 |
|     194 | 0x1E58      |        7768 |
|     195 | 0x1E59      |        7769 |
|     196 | 0x1E5A      |        7770 |
|     197 | 0x1E5B      |        7771 |
|     198 | 0x1E5C      |        7772 |
|     199 | 0x1E5D      |        7773 |
|     200 | 0x1E5E      |        7774 |
|     201 | 0x1E5F      |        7775 |
|     202 | 0x1E60      |        7776 |
|     203 | 0x1E61      |        7777 |
|     204 | 0x1E62      |        7778 |
|     205 | 0x1E63      |        7779 |
|     206 | 0x1E64      |        7780 |
|     207 | 0x005A      |          90 |
|     208 | 0x1E65      |        7781 |
|     209 | 0x1E66      |        7782 |
|     210 | 0x00B0      |         176 |
|     211 | 0x1E67      |        7783 |
|     212 | 0x1E68      |        7784 |
|     213 | 0x1E69      |        7785 |
|     214 | 0x00D7      |         215 |
|     215 | 0x1E6A      |        7786 |
|     216 | 0x1E6B      |        7787 |
|     217 | 0x1E6C      |        7788 |
|     218 | 0x0105      |         261 |
|     219 | 0x1E6D      |        7789 |
|     220 | 0x1E6E      |        7790 |
|     221 | 0x1E6F      |        7791 |
|     222 | 0x1C3C      |        7228 |
|     223 | 0x44ED3     |      282323 |
|     224 | 0x5CCBE     |      380094 |
|     225 | 0xFFFE1BA0  |  4294843296 |
|     226 | 0x43441     |      275521 |
|     227 | 0x5CBE1     |      379873 |
|     228 | 0xFFFE1D8D  |  4294843789 |
|     229 | 0x006C      |         108 |
|     230 | 0x5B662     |      374370 |
|     231 | 0x5CA02     |      379394 |
|     232 | 0xFFFE3AE1  |  4294851297 |
|     233 | 0x0FF2      |        4082 |
|     234 | 0x5B08E     |      372878 |
|     235 | 0x5DA14     |      383508 |
|     236 | 0xFFFE3AE0  |  4294851296 |
|     237 | 0x0FE2      |        4066 |
|     238 | 0x4C70E     |      313102 |
|     239 | 0x5CB07     |      379655 |
|     240 | 0xFFFE1DB6  |  4294843830 |
|     241 | 0x0031      |          49 |
|     242 | 0x4F7E9     |      325609 |
|     243 | 0x5CD71     |      380273 |
|     244 | 0xFFFE28C9  |  4294846665 |
|     245 | 0x5CEC1     |      380609 |
|     246 | 0x5CF6B     |      380779 |
|     247 | 0x0FDF      |        4063 |
|     248 | 0x5DE67     |      384615 |
|     249 | 0x5CFDA     |      380890 |
|     250 | 0x5AF45     |      372549 |
|     251 | 0x5E854     |      387156 |
|     252 | 0x0346      |         838 |
|     253 | 0x5D063     |      381027 |
|     254 | 0x5C2B5     |      377525 |
|     255 | 0x00A4      |         164 |

## String References

- **7227**: Enter the battlefield? [Enter./Decline.]
- **7228**: Leave the battlefield? [Run away./Stay.]
- **7230**: You cannot enter the battlefield at present. Please wait a little longer.
- **7238**: You are cleared to enter the battlefield, but you cannot while party members are engaged in combat.
- **7239**: You are cleared to enter the battlefield, but you cannot while party members are engaged in combat.
- **7240**: You are cleared to enter the battlefield, but you cannot while party members are engaged in combat.
- **7241**: You are cleared to enter the battlefield, but you cannot while party members are engaged in combat.
- **7277**: You do not meet the requirements to enter the battlefield. Access is denied.
- **7566**: Skip the event? [Yes./No.]
- **7567**: Battlefield clear time: $3 second[/s]!
- **7568**: Battlefield clear time: $3 minute[/s], $2 second[/s]!
- **7569**: The current battlefield clear time record is $3 second[/s].
- **7570**: The current battlefield clear time record is $3 minute[/s] $2 second[/s].
- **7586**: Only $3 [member/members] have clearance to enter the battlefield. This room has reached its maximum capacity.
- **7590**: That record is held by $5 adventurers, including %0!
- **7591**: That record is held by %0!
- **7593**: Select difficulty. [Very difficult. (Level: ???)/Difficult. (Level: ???)/Normal. (Level: $18)/Easy. (Level: $17)/Very Easy. (Level: $16)/Leave.]
- **7602**: You have broken the clear time record for "[Tough Nut to Crack/Happy Caster/Omens/Achieving True Power/Shield of Diplomacy/An Imperial Heist]"!
- **7603**: The current battlefield clear time record for "[Tough Nut to Crack/Happy Caster/Omens/Achieving True Power/Shield of Diplomacy/An Imperial Heist]" is $3 second[/s].
- **7604**: The current battlefield clear time record for "[Tough Nut to Crack/Happy Caster/Omens/Achieving True Power/Shield of Diplomacy/An Imperial Heist]" is $3 minute[/s] $2 second[/s].
- **7606**: Which battlefield will you enter? [None./Tough Nut to Crack./Happy Caster./Omens./Achieving True Power./Shield of Diplomacy./An Imperial Heist./@/@/@/@/@/@/@/@/@/@/@/@/@/@/@/@/@/@/@/@/@/@/@/@/@]

## Events

### Event 65535

#### Metadata

| Field        | Value   |
|--------------|---------|
| Entrypoint   | 0x0000  |
| Data Size    | 1 bytes |
| Instructions | 1       |

```
      00 01 02 03 04 05 06 07  08 09 0A 0B 0C 0D 0E 0F
      -- -- -- -- -- -- -- --  -- -- -- -- -- -- -- --
0000: 00                                                .               
```

#### Opcodes

```
  0: 0x0000 [0x00] END_REQSTACK()
```

### Event 65534

#### Metadata

| Field        | Value   |
|--------------|---------|
| Entrypoint   | 0x0001  |
| Data Size    | 1 bytes |
| Instructions | 1       |

```
      00 01 02 03 04 05 06 07  08 09 0A 0B 0C 0D 0E 0F
      -- -- -- -- -- -- -- --  -- -- -- -- -- -- -- --
0000:    00                                              .              
```

#### Opcodes

```
  0: 0x0001 [0x00] END_REQSTACK()
```

### Event 32000

#### Metadata

| Field        | Value      |
|--------------|------------|
| Entrypoint   | 0x0002     |
| Data Size    | 2116 bytes |
| Instructions | 279        |

```
      00 01 02 03 04 05 06 07  08 09 0A 0B 0C 0D 0E 0F
      -- -- -- -- -- -- -- --  -- -- -- -- -- -- -- --
0000:       20 01 79 00 F0 FF  FF 7F F0 FF FF 7F 03 02     .y...........
0010: 00 02 10 03 03 00 03 10  03 05 00 04 10 03 06 00  ................
0020: 05 10 03 0F 00 06 10 03  10 00 07 10 03 11 00 08  ................
0030: 10 41 00 80 01 80 09 10  07 00 41 02 80 03 80 09  .A........A.....
0040: 10 06 10 06 01 00 02 07  00 00 80 00 45 01 03 08  ............E...
0050: 00 04 80 0F 08 00 06 00  10 08 00 05 80 24 06 80  .............$..
0060: 00 80 08 00 25 02 00 10  00 80 00 73 00 01 2B 08  ....%......s..+.
0070: 01 45 01 03 03 00 00 10  0C 03 00 06 16 00 06 13  .E..............
0080: 00 3E 0F 00 03 00 21 01  06 0F 00 06 08 00 3E 11  .>....!.......>.
0090: 00 03 00 98 00 01 9F 00  3C 08 00 00 80 05 80 3E  ........<......>
00A0: 10 00 03 00 A9 00 01 B0  00 3C 08 00 05 80 05 80  .........<......
00B0: 1A D2 22 24 07 80 08 80  08 00 25 02 00 10 00 80  .."$......%.....
00C0: 00 CB 00 03 0F 00 05 80  01 1E 01 02 00 10 05 80  ................
00D0: 00 DB 00 03 0F 00 09 80  01 1E 01 02 00 10 09 80  ................
00E0: 00 EB 00 03 0F 00 0A 80  01 1E 01 02 00 10 0A 80  ................
00F0: 00 FB 00 03 0F 00 0B 80  01 1E 01 02 00 10 0B 80  ................
0100: 00 0B 01 03 0F 00 08 80  01 1E 01 02 00 10 08 80  ................
0110: 00 19 01 01 2B 08 01 1E  01 03 0F 00 0A 80 01 45  ....+..........E
0120: 01 06 0F 00 1A 45 08 02  16 00 05 80 00 45 01 24  .....E.......E.$
0130: 0C 80 05 80 00 80 25 02  00 10 05 80 00 45 01 01  ......%......E..
0140: 2B 08 01 45 01 42 03 01  10 0D 80 43 00 43 01 06  +..E.B.....C.C..
0150: 01 10 45 0E 80 F0 FF FF  7F F0 FF FF 7F 66 64 6F  ..E..........fdo
0160: 31 00 80 55 0E 80 F0 FF  FF 7F F0 FF FF 7F 66 64  1..U..........fd
0170: 6F 31 3B F0 FF FF 7F 20  10 21 10 22 10 38 0F 80  o1;.... .!.".8..
0180: 02 07 00 05 80 00 9F 01  03 00 00 05 80 03 04 00  ................
0190: 03 00 03 02 00 00 80 03  1C 00 00 80 01 5F 05 03  ............._..
01A0: 00 00 05 80 02 00 00 0A  80 05 F4 07 02 00 80 05  ................
01B0: 80 00 B9 01 03 00 00 05  00 40 00 80 0A 80 01 10  .........@......
01C0: 00 00 40 0B 80 10 80 01  10 03 00 40 11 80 12 80  ..@........@....
01D0: 01 10 0F 00 06 02 10 06  03 10 06 04 10 1A 1D 23  ...............#
01E0: 47 00 09 00 0A 00 0B 00  0C 00 47 01 03 04 00 03  G.........G.....
01F0: 10 03 02 00 04 10 03 1A  00 05 10 03 0D 00 06 10  ................
0200: 03 0E 00 07 10 03 1C 00  09 10 02 02 10 05 80 80  ................
0210: 15 02 01 E1 07 02 02 10  0B 80 80 5F 02 02 00 00  ..........._....
0220: 05 80 80 2C 02 48 13 80  23 01 59 02 02 00 00 09  ...,.H..#.Y.....
0230: 80 80 3B 02 48 14 80 23  01 59 02 02 00 00 0A 80  ..;.H..#.Y......
0240: 80 4A 02 48 15 80 23 01  59 02 02 00 00 0B 80 80  .J.H..#.Y.......
0250: 59 02 48 16 80 23 01 59  02 01 F8 07 01 E1 07 02  Y.H..#.Y........
0260: 02 10 08 80 80 71 02 48  17 80 23 01 F8 07 01 E1  .....q.H..#.....
0270: 07 02 02 10 18 80 80 73  04 02 04 00 00 80 80 89  .......s........
0280: 02 03 05 10 18 80 01 69  04 02 04 00 05 80 80 99  .......i........
0290: 02 03 05 10 18 80 01 69  04 02 04 00 09 80 80 A9  .......i........
02A0: 02 03 05 10 19 80 01 69  04 02 04 00 0A 80 80 B9  .......i........
02B0: 02 03 05 10 05 80 01 69  04 02 04 00 0B 80 80 C9  .......i........
02C0: 02 03 05 10 18 80 01 69  04 02 04 00 08 80 80 D9  .......i........
02D0: 02 03 05 10 19 80 01 69  04 02 04 00 18 80 80 E9  .......i........
02E0: 02 03 05 10 00 80 01 69  04 02 04 00 1A 80 80 F9  .......i........
02F0: 02 03 05 10 00 80 01 69  04 02 04 00 10 80 80 09  .......i........
0300: 03 03 05 10 00 80 01 69  04 02 04 00 11 80 80 19  .......i........
0310: 03 03 05 10 00 80 01 69  04 02 04 00 1B 80 80 29  .......i.......)
0320: 03 03 05 10 00 80 01 69  04 02 04 00 12 80 80 39  .......i.......9
0330: 03 03 05 10 00 80 01 69  04 02 04 00 1C 80 80 49  .......i.......I
0340: 03 03 05 10 00 80 01 69  04 02 04 00 1D 80 80 59  .......i.......Y
0350: 03 03 05 10 00 80 01 69  04 02 04 00 1E 80 80 69  .......i.......i
0360: 03 03 05 10 00 80 01 69  04 02 04 00 01 80 80 79  .......i.......y
0370: 03 03 05 10 00 80 01 69  04 02 04 00 02 80 80 89  .......i........
0380: 03 03 05 10 00 80 01 69  04 02 04 00 1F 80 80 99  .......i........
0390: 03 03 05 10 00 80 01 69  04 02 04 00 19 80 80 A9  .......i........
03A0: 03 03 05 10 00 80 01 69  04 02 04 00 0F 80 80 B9  .......i........
03B0: 03 03 05 10 00 80 01 69  04 02 04 00 20 80 80 C9  .......i.... ...
03C0: 03 03 05 10 00 80 01 69  04 02 04 00 21 80 80 D9  .......i....!...
03D0: 03 03 05 10 00 80 01 69  04 02 04 00 22 80 80 E9  .......i...."...
03E0: 03 03 05 10 00 80 01 69  04 02 04 00 23 80 80 F9  .......i....#...
03F0: 03 03 05 10 00 80 01 69  04 02 04 00 24 80 80 09  .......i....$...
0400: 04 03 05 10 00 80 01 69  04 02 04 00 25 80 80 19  .......i....%...
0410: 04 03 05 10 00 80 01 69  04 02 04 00 26 80 80 29  .......i....&..)
0420: 04 03 05 10 00 80 01 69  04 02 04 00 27 80 80 39  .......i....'..9
0430: 04 03 05 10 00 80 01 69  04 02 04 00 28 80 80 49  .......i....(..I
0440: 04 03 05 10 00 80 01 69  04 02 04 00 29 80 80 59  .......i....)..Y
0450: 04 03 05 10 00 80 01 69  04 02 04 00 2A 80 80 69  .......i....*..i
0460: 04 03 05 10 00 80 01 69  04 48 2B 80 23 01 F8 07  .......i.H+.#...
0470: 01 E1 07 02 02 10 0A 80  80 81 04 01 9F 01 01 E1  ................
0480: 07 02 02 10 09 80 80 E1  07 02 0D 00 00 80 01 15  ................
0490: 05 02 13 00 00 80 01 C9  04 03 05 10 1A 00 02 1A  ................
04A0: 00 00 80 02 A6 04 02 0D  00 05 80 05 B5 04 48 2C  ..............H,
04B0: 80 23 01 C6 04 03 06 10  0D 00 0C 06 10 03 07 10  .#..............
04C0: 0D 00 48 2D 80 23 01 15  05 03 05 10 1A 00 02 1A  ..H-.#..........
04D0: 00 00 80 02 F5 04 02 1A  00 2E 80 04 F1 04 3F 04  ..............?.
04E0: 10 05 10 2E 80 15 05 10  2E 80 48 2F 80 23 01 F5  ..........H/.#..
04F0: 04 48 30 80 23 02 0D 00  05 80 05 04 05 48 2C 80  .H0.#........H,.
0500: 23 01 15 05 03 06 10 0D  00 0C 06 10 03 07 10 0D  #...............
0510: 00 48 2D 80 23 03 03 00  04 00 03 14 00 31 80 07  .H-.#........1..
0520: 14 00 03 00 02 02 00 14  00 00 34 05 03 02 00 05  ..........4.....
0530: 80 01 39 05 03 02 00 00  80 02 02 00 00 80 00 5F  ..9............_
0540: 05 02 0E 00 05 80 00 5F  05 24 32 80 05 80 00 80  ......._.$2.....
0550: 25 02 00 10 00 80 00 5F  05 05 02 00 01 5F 05 06  %......_....._..
0560: 15 00 02 04 00 00 80 80  72 05 03 15 00 00 80 01  ........r.......
0570: 57 07 02 04 00 05 80 80  82 05 03 15 00 00 80 01  W...............
0580: 57 07 02 04 00 09 80 80  92 05 03 15 00 00 80 01  W...............
0590: 57 07 02 04 00 0A 80 80  A2 05 03 15 00 00 80 01  W...............
05A0: 57 07 02 04 00 0B 80 80  B2 05 03 15 00 00 80 01  W...............
05B0: 57 07 02 04 00 08 80 80  C2 05 03 15 00 00 80 01  W...............
05C0: 57 07 02 04 00 18 80 80  D2 05 03 15 00 00 80 01  W...............
05D0: 57 07 02 04 00 1A 80 80  E2 05 03 15 00 00 80 01  W...............
05E0: 57 07 02 04 00 10 80 80  F2 05 03 15 00 00 80 01  W...............
05F0: 57 07 02 04 00 11 80 80  02 06 03 15 00 00 80 01  W...............
0600: 57 07 02 04 00 1B 80 80  12 06 03 15 00 00 80 01  W...............
0610: 57 07 02 04 00 12 80 80  22 06 03 15 00 00 80 01  W.......".......
0620: 57 07 02 04 00 1C 80 80  32 06 03 15 00 00 80 01  W.......2.......
0630: 57 07 02 04 00 1D 80 80  42 06 03 15 00 00 80 01  W.......B.......
0640: 57 07 02 04 00 1E 80 80  52 06 03 15 00 00 80 01  W.......R.......
0650: 57 07 02 04 00 01 80 80  62 06 03 15 00 00 80 01  W.......b.......
0660: 57 07 02 04 00 02 80 80  72 06 03 15 00 00 80 01  W.......r.......
0670: 57 07 02 04 00 1F 80 80  82 06 03 15 00 00 80 01  W...............
0680: 57 07 02 04 00 19 80 80  92 06 03 15 00 00 80 01  W...............
0690: 57 07 02 04 00 0F 80 80  A2 06 03 15 00 00 80 01  W...............
06A0: 57 07 02 04 00 20 80 80  B2 06 03 15 00 00 80 01  W.... ..........
06B0: 57 07 02 04 00 21 80 80  C2 06 03 15 00 00 80 01  W....!..........
06C0: 57 07 02 04 00 22 80 80  D2 06 03 15 00 00 80 01  W...."..........
06D0: 57 07 02 04 00 23 80 80  E2 06 03 15 00 00 80 01  W....#..........
06E0: 57 07 02 04 00 24 80 80  F2 06 03 15 00 00 80 01  W....$..........
06F0: 57 07 02 04 00 25 80 80  02 07 03 15 00 00 80 01  W....%..........
0700: 57 07 02 04 00 26 80 80  12 07 03 15 00 00 80 01  W....&..........
0710: 57 07 02 04 00 27 80 80  22 07 03 15 00 00 80 01  W....'..".......
0720: 57 07 02 04 00 28 80 80  32 07 03 15 00 00 80 01  W....(..2.......
0730: 57 07 02 04 00 29 80 80  42 07 03 15 00 00 80 01  W....)..B.......
0740: 57 07 02 04 00 2A 80 80  52 07 03 15 00 00 80 01  W....*..R.......
0750: 57 07 03 15 00 00 80 02  02 00 05 80 00 72 07 5C  W............r.\
0760: 00 33 80 5C 01 33 80 5C  02 33 80 5C 03 33 80 01  .3.\.3.\.3.\.3..
0770: 8A 07 02 15 00 00 80 00  8A 07 5C 00 33 80 5C 01  ..........\.3.\.
0780: 33 80 5C 02 33 80 5C 03  33 80 02 02 00 00 80 00  3.\.3.\.3.......
0790: 98 07 1A 19 10 01 D1 07  6C F0 FF FF 7F 00 80 05  ........l.......
07A0: 80 62 09 80 F0 FF FF 7F  F0 FF FF 7F 6D 61 69 6E  .b..........main
07B0: 00 80 45 0E 80 F0 FF FF  7F F0 FF FF 7F 6F 76 6C  ..E..........ovl
07C0: 31 00 80 46 02 12 00 02  12 00 00 80 00 D1 07 46  1..F...........F
07D0: 00 03 01 10 31 80 07 01  10 03 00 01 F8 07 01 E1  ....1...........
07E0: 07 0B 00 00 02 00 80 05  80 00 F1 07 03 00 00 0B  ................
07F0: 80 01 A4 01 48 34 80 23  45 35 80 F0 FF FF 7F F0  ....H4.#E5......
0800: FF FF 7F 77 68 69 31 00  80 45 0E 80 F0 FF FF 7F  ...whi1..E......
0810: F0 FF FF 7F 62 6C 6F 66  00 80 45 0E 80 F0 FF FF  ....blof..E.....
0820: 7F F0 FF FF 7F 66 64 69  30 00 80 02 07 00 05 80  .....fdi0.......
0830: 00 43 08 5C 00 00 80 5C  01 00 80 5C 02 33 80 5C  .C.\...\...\.3.\
0840: 03 33 80 21 00 1B                                 .3.!..          
```

#### Opcodes

```
  0: 0x0002 [0x20] SET_CLI_EVENT_UC_FLAG: Lock player control
  1: 0x0004 [0x79] LocalPlayer looks at LocalPlayer (Basic look)
  2: 0x000E [0x03] ExtData[1]->WorkLocal[2] = Work_Zone[2]
  3: 0x0013 [0x03] ExtData[1]->WorkLocal[3] = Work_Zone[3]
  4: 0x0018 [0x03] ExtData[1]->WorkLocal[5] = Work_Zone[4]
  5: 0x001D [0x03] ExtData[1]->WorkLocal[6] = Work_Zone[5]
  6: 0x0022 [0x03] ExtData[1]->WorkLocal[15] = Work_Zone[6]
  7: 0x0027 [0x03] ExtData[1]->WorkLocal[16] = Work_Zone[7]
  8: 0x002C [0x03] ExtData[1]->WorkLocal[17] = Work_Zone[8]
  9: 0x0031 [0x41] ExtData[1]->WorkLocal[7] = Work_Zone[9] (bits 0*-15*)
 10: 0x003A [0x41] Work_Zone[6] = Work_Zone[9] (bits 16*-31*)
 11: 0x0043 [0x06] ExtData[1]->WorkLocal[1] = 0
 12: 0x0046 [0x02] IF !(ExtData[1]->WorkLocal[7] == 0*) GOTO 0x0145
 13: 0x004E [0x03] ExtData[1]->WorkLocal[8] = 4294967295*
 14: 0x0053 [0x0F] ExtData[1]->WorkLocal[8] ^= ExtData[1]->WorkLocal[6]
 15: 0x0058 [0x10] ExtData[1]->WorkLocal[8] <<= 1*
 16: 0x005D [0x24] CREATE_DIALOG(message_id=7606*, default_option=0*, option_flags=ExtData[1]->WorkLocal[8])
    → "Which battlefield will you enter? [None./Tough Nut to Crack./Happy Caster./Omens./Achieving True Power./Shield of Diplomacy./An Imperial Heist./@/@/@/@/@/@/@/@/@/@/@/@/@/@/@/@/@/@/@/@/@/@/@/@/@]"
 17: 0x0064 [0x25] WAIT_DIALOG_SELECT()
 18: 0x0065 [0x02] IF !(Work_Zone[0] == 0*) GOTO 0x0073
 19: 0x006D [0x01] GOTO 0x082B

SUBROUTINE_009F:
 20: 0x009F [0x3E] IF !(ExtData[1]->WorkLocal[16] bit ExtData[1]->WorkLocal[3]) GOTO 0x00A9
 21: 0x00A6 [0x01] GOTO 0x00B0
 22: 0x00A9 [0x3C] SET_BIT_FLAG_CONDITIONAL(target_work_offset=ExtData[1]->WorkLocal[8], bit_index_work_offset=1*, condition_work_offset=1*)

SUBROUTINE_00B0:
 23: 0x00B0 [0x1A] CALL_SUBROUTINE(address=0x22D2)
 24: 0x00B3 [0x24] CREATE_DIALOG(message_id=7593*, default_option=5*, option_flags=ExtData[1]->WorkLocal[8])
    → "Select difficulty. [Very difficult. (Level: ???)/Difficult. (Level: ???)/Normal. (Level: $18)/Easy. (Level: $17)/Very Easy. (Level: $16)/Leave.]"
 25: 0x00BA [0x25] WAIT_DIALOG_SELECT()
 26: 0x00BB [0x02] IF !(Work_Zone[0] == 0*) GOTO 0x00CB
 27: 0x00C3 [0x03] ExtData[1]->WorkLocal[15] = 1*
 28: 0x00C8 [0x01] GOTO 0x011E
 29: 0x00CB [0x02] IF !(Work_Zone[0] == 1*) GOTO 0x00DB
 30: 0x00D3 [0x03] ExtData[1]->WorkLocal[15] = 2*
 31: 0x00D8 [0x01] GOTO 0x011E
 32: 0x00DB [0x02] IF !(Work_Zone[0] == 2*) GOTO 0x00EB
 33: 0x00E3 [0x03] ExtData[1]->WorkLocal[15] = 3*
 34: 0x00E8 [0x01] GOTO 0x011E
 35: 0x00EB [0x02] IF !(Work_Zone[0] == 3*) GOTO 0x00FB
 36: 0x00F3 [0x03] ExtData[1]->WorkLocal[15] = 4*
 37: 0x00F8 [0x01] GOTO 0x011E
 38: 0x00FB [0x02] IF !(Work_Zone[0] == 4*) GOTO 0x010B
 39: 0x0103 [0x03] ExtData[1]->WorkLocal[15] = 5*
 40: 0x0108 [0x01] GOTO 0x011E
 41: 0x010B [0x02] IF !(Work_Zone[0] == 5*) GOTO 0x0119
 42: 0x0113 [0x01] GOTO 0x082B

SUBROUTINE_011E:
 43: 0x011E [0x01] GOTO 0x0145
 44: 0x0121 [0x06] ExtData[1]->WorkLocal[15] = 0
 45: 0x0124 [0x1A] CALL_SUBROUTINE(address=0x0845)
 46: 0x0127 [0x02] IF !(ExtData[1]->WorkLocal[22] == 1*) GOTO 0x0145
 47: 0x012F [0x24] CREATE_DIALOG(message_id=7227*, default_option=1*, option_flags=0*)
    → "Enter the battlefield? [Enter./Decline.]"
 48: 0x0136 [0x25] WAIT_DIALOG_SELECT()
 49: 0x0137 [0x02] IF !(Work_Zone[0] == 1*) GOTO 0x0145
 50: 0x013F [0x01] GOTO 0x082B

SUBROUTINE_0145:
 51: 0x0145 [0x42] SET_CLI_EVENT_CANCEL_DATA()
 52: 0x0146 [0x03] Work_Zone[1] = 255*
 53: 0x014B [0x43] SEND_EVENT_UPDATE: Send pending tag to server (packet 0x005B)
 54: 0x014D [0x43] SEND_EVENT_UPDATE: Check pending flag (skip if not pending)
 55: 0x014F [0x06] Work_Zone[1] = 0
 56: 0x0152 [0x45] LOAD_SCHEDULED_TASK: Load scheduler "fdo1" with entities [LocalPlayer, LocalPlayer], work=[200*, 0*]
 57: 0x0163 [0x55] WAIT_LOAD_SCHEDULER: Wait for scheduler "fdo1" with entities [LocalPlayer, LocalPlayer], work=200*
 58: 0x0172 [0x3B] GET_ENTITY_POSITION(entity=LocalPlayer, x_destination=Work_Zone[32], y_destination=Work_Zone[33], z_destination=Work_Zone[34])
 59: 0x017D [0x38] SET_CLIENT_EVENT_MODE(mode=19*)
 60: 0x0180 [0x02] IF !(ExtData[1]->WorkLocal[7] == 1*) GOTO 0x019F
 61: 0x0188 [0x03] ExtData[1]->WorkLocal[0] = 1*
 62: 0x018D [0x03] ExtData[1]->WorkLocal[4] = ExtData[1]->WorkLocal[3]
 63: 0x0192 [0x03] ExtData[1]->WorkLocal[2] = 0*
 64: 0x0197 [0x03] ExtData[1]->WorkLocal[28] = 0*
 65: 0x019C [0x01] GOTO 0x055F

SUBROUTINE_019F:
 66: 0x019F [0x03] ExtData[1]->WorkLocal[0] = 1*

SUBROUTINE_01A4:
 67: 0x01A4 [0x02] IF !(ExtData[1]->WorkLocal[0] > 3*) GOTO 0x07F4
 68: 0x01AC [0x02] IF !(0* == 1*) GOTO 0x01B9
 69: 0x01B4 [0x03] ExtData[1]->WorkLocal[0] = ExtData[1]->WorkLocal[5]
 70: 0x01B9 [0x40] SET_BIT_WORK_RANGE(start_bit=0*, end_bit=3*, target=Work_Zone[1], source=ExtData[1]->WorkLocal[0])
 71: 0x01C2 [0x40] SET_BIT_WORK_RANGE(start_bit=4*, end_bit=8*, target=Work_Zone[1], source=ExtData[1]->WorkLocal[3])
 72: 0x01CB [0x40] SET_BIT_WORK_RANGE(start_bit=9*, end_bit=11*, target=Work_Zone[1], source=ExtData[1]->WorkLocal[15])
 73: 0x01D4 [0x06] Work_Zone[2] = 0
 74: 0x01D7 [0x06] Work_Zone[3] = 0
 75: 0x01DA [0x06] Work_Zone[4] = 0
 76: 0x01DD [0x1A] CALL_SUBROUTINE(address=0x231D)
 77: 0x01E0 [0x47] UPDATE_PLAYER_POS(ExtData[1]->WorkLocal[9], ExtData[1]->WorkLocal[10], ExtData[1]->WorkLocal[11], yaw=ExtData[1]->WorkLocal[12])
 78: 0x01EA [0x47] WAIT_PLAYER_POS_UPDATE
 79: 0x01EC [0x03] ExtData[1]->WorkLocal[4] = Work_Zone[3]
 80: 0x01F1 [0x03] ExtData[1]->WorkLocal[2] = Work_Zone[4]
 81: 0x01F6 [0x03] ExtData[1]->WorkLocal[26] = Work_Zone[5]
 82: 0x01FB [0x03] ExtData[1]->WorkLocal[13] = Work_Zone[6]
 83: 0x0200 [0x03] ExtData[1]->WorkLocal[14] = Work_Zone[7]
 84: 0x0205 [0x03] ExtData[1]->WorkLocal[28] = Work_Zone[9]
 85: 0x020A [0x02] IF !(Work_Zone[2] == 1*) GOTO 0x0215
 86: 0x0212 [0x01] GOTO 0x07E1
 87: 0x0215 [0x02] IF !(Work_Zone[2] == 4*) GOTO 0x025F
 88: 0x021D [0x02] IF !(ExtData[1]->WorkLocal[0] == 1*) GOTO 0x022C
 89: 0x0225 [0x48] [System] [7238*]:
    → "You are cleared to enter the battlefield, but you cannot while party members are engaged in combat."
 90: 0x0228 [0x23] WAIT_FOR_DIALOG_INTERACTION
 91: 0x0229 [0x01] GOTO 0x0259
 92: 0x022C [0x02] IF !(ExtData[1]->WorkLocal[0] == 2*) GOTO 0x023B
 93: 0x0234 [0x48] [System] [7239*]:
    → "You are cleared to enter the battlefield, but you cannot while party members are engaged in combat."
 94: 0x0237 [0x23] WAIT_FOR_DIALOG_INTERACTION
 95: 0x0238 [0x01] GOTO 0x0259
 96: 0x023B [0x02] IF !(ExtData[1]->WorkLocal[0] == 3*) GOTO 0x024A
 97: 0x0243 [0x48] [System] [7240*]:
    → "You are cleared to enter the battlefield, but you cannot while party members are engaged in combat."
 98: 0x0246 [0x23] WAIT_FOR_DIALOG_INTERACTION
 99: 0x0247 [0x01] GOTO 0x0259
100: 0x024A [0x02] IF !(ExtData[1]->WorkLocal[0] == 4*) GOTO 0x0259
101: 0x0252 [0x48] [System] [7241*]:
    → "You are cleared to enter the battlefield, but you cannot while party members are engaged in combat."
102: 0x0255 [0x23] WAIT_FOR_DIALOG_INTERACTION
103: 0x0256 [0x01] GOTO 0x0259

SUBROUTINE_0259:
104: 0x0259 [0x01] GOTO 0x07F8

SUBROUTINE_0469:
105: 0x0469 [0x48] [System] [7586*]:
    → "Only $3 [member/members] have clearance to enter the battlefield. This room has reached its maximum capacity."
106: 0x046C [0x23] WAIT_FOR_DIALOG_INTERACTION
107: 0x046D [0x01] GOTO 0x07F8

SUBROUTINE_04C6:
108: 0x04C6 [0x01] GOTO 0x0515
109: 0x04C9 [0x03] Work_Zone[5] = ExtData[1]->WorkLocal[26]
110: 0x04CE [0x02] IF !(ExtData[1]->WorkLocal[26] <= 0*) GOTO 0x04F5
111: 0x04D6 [0x02] IF !(ExtData[1]->WorkLocal[26] < 60*) GOTO 0x04F1
112: 0x04DE [0x3F] Work_Zone[4] = Work_Zone[5] % 60*
113: 0x04E5 [0x15] Work_Zone[5] /= 60*
114: 0x04EA [0x48] [System] [7604*]:
    → "The current battlefield clear time record for "[Tough Nut to Crack/Happy Caster/Omens/Achieving True Power/Shield of Diplomacy/An Imperial Heist]" is $3 minute[/s] $2 second[/s]."
115: 0x04ED [0x23] WAIT_FOR_DIALOG_INTERACTION
116: 0x04EE [0x01] GOTO 0x04F5
117: 0x04F1 [0x48] [System] [7603*]:
    → "The current battlefield clear time record for "[Tough Nut to Crack/Happy Caster/Omens/Achieving True Power/Shield of Diplomacy/An Imperial Heist]" is $3 second[/s]."
118: 0x04F4 [0x23] WAIT_FOR_DIALOG_INTERACTION

SUBROUTINE_04F5:
119: 0x04F5 [0x02] IF !(ExtData[1]->WorkLocal[13] > 1*) GOTO 0x0504
120: 0x04FD [0x48] [System] [7591*]:
    → "That record is held by %0!"
121: 0x0500 [0x23] WAIT_FOR_DIALOG_INTERACTION
122: 0x0501 [0x01] GOTO 0x0515
123: 0x0504 [0x03] Work_Zone[6] = ExtData[1]->WorkLocal[13]
124: 0x0509 [0x0C] Work_Zone[6]--
125: 0x050C [0x03] Work_Zone[7] = ExtData[1]->WorkLocal[13]
126: 0x0511 [0x48] [System] [7590*]:
    → "That record is held by $5 adventurers, including %0!"
127: 0x0514 [0x23] WAIT_FOR_DIALOG_INTERACTION

SUBROUTINE_0515:
128: 0x0515 [0x03] ExtData[1]->WorkLocal[3] = ExtData[1]->WorkLocal[4]
129: 0x051A [0x03] ExtData[1]->WorkLocal[20] = 100*
130: 0x051F [0x07] ExtData[1]->WorkLocal[20] += ExtData[1]->WorkLocal[3]
131: 0x0524 [0x02] IF !(ExtData[1]->WorkLocal[2] == ExtData[1]->WorkLocal[20]) GOTO 0x0534
132: 0x052C [0x03] ExtData[1]->WorkLocal[2] = 1*
133: 0x0531 [0x01] GOTO 0x0539
134: 0x0534 [0x03] ExtData[1]->WorkLocal[2] = 0*

SUBROUTINE_0539:
135: 0x0539 [0x02] IF !(ExtData[1]->WorkLocal[2] == 0*) GOTO 0x055F
136: 0x0541 [0x02] IF !(ExtData[1]->WorkLocal[14] == 1*) GOTO 0x055F
137: 0x0549 [0x24] CREATE_DIALOG(message_id=7566*, default_option=1*, option_flags=0*)
    → "Skip the event? [Yes./No.]"
138: 0x0550 [0x25] WAIT_DIALOG_SELECT()
139: 0x0551 [0x02] IF !(Work_Zone[0] == 0*) GOTO 0x055F
140: 0x0559 [0x05] ExtData[1]->WorkLocal[2] = 1
141: 0x055C [0x01] GOTO 0x055F

SUBROUTINE_055F:
142: 0x055F [0x06] ExtData[1]->WorkLocal[21] = 0
143: 0x0562 [0x02] IF !(ExtData[1]->WorkLocal[4] == 0*) GOTO 0x0572
144: 0x056A [0x03] ExtData[1]->WorkLocal[21] = 0*
145: 0x056F [0x01] GOTO 0x0757
146: 0x0572 [0x02] IF !(ExtData[1]->WorkLocal[4] == 1*) GOTO 0x0582
147: 0x057A [0x03] ExtData[1]->WorkLocal[21] = 0*
148: 0x057F [0x01] GOTO 0x0757
149: 0x0582 [0x02] IF !(ExtData[1]->WorkLocal[4] == 2*) GOTO 0x0592
150: 0x058A [0x03] ExtData[1]->WorkLocal[21] = 0*
151: 0x058F [0x01] GOTO 0x0757
152: 0x0592 [0x02] IF !(ExtData[1]->WorkLocal[4] == 3*) GOTO 0x05A2
153: 0x059A [0x03] ExtData[1]->WorkLocal[21] = 0*
154: 0x059F [0x01] GOTO 0x0757
155: 0x05A2 [0x02] IF !(ExtData[1]->WorkLocal[4] == 4*) GOTO 0x05B2
156: 0x05AA [0x03] ExtData[1]->WorkLocal[21] = 0*
157: 0x05AF [0x01] GOTO 0x0757
158: 0x05B2 [0x02] IF !(ExtData[1]->WorkLocal[4] == 5*) GOTO 0x05C2
159: 0x05BA [0x03] ExtData[1]->WorkLocal[21] = 0*
160: 0x05BF [0x01] GOTO 0x0757
161: 0x05C2 [0x02] IF !(ExtData[1]->WorkLocal[4] == 6*) GOTO 0x05D2
162: 0x05CA [0x03] ExtData[1]->WorkLocal[21] = 0*
163: 0x05CF [0x01] GOTO 0x0757
164: 0x05D2 [0x02] IF !(ExtData[1]->WorkLocal[4] == 7*) GOTO 0x05E2
165: 0x05DA [0x03] ExtData[1]->WorkLocal[21] = 0*
166: 0x05DF [0x01] GOTO 0x0757
167: 0x05E2 [0x02] IF !(ExtData[1]->WorkLocal[4] == 8*) GOTO 0x05F2
168: 0x05EA [0x03] ExtData[1]->WorkLocal[21] = 0*
169: 0x05EF [0x01] GOTO 0x0757
170: 0x05F2 [0x02] IF !(ExtData[1]->WorkLocal[4] == 9*) GOTO 0x0602
171: 0x05FA [0x03] ExtData[1]->WorkLocal[21] = 0*
172: 0x05FF [0x01] GOTO 0x0757
173: 0x0602 [0x02] IF !(ExtData[1]->WorkLocal[4] == 10*) GOTO 0x0612
174: 0x060A [0x03] ExtData[1]->WorkLocal[21] = 0*
175: 0x060F [0x01] GOTO 0x0757
176: 0x0612 [0x02] IF !(ExtData[1]->WorkLocal[4] == 11*) GOTO 0x0622
177: 0x061A [0x03] ExtData[1]->WorkLocal[21] = 0*
178: 0x061F [0x01] GOTO 0x0757
179: 0x0622 [0x02] IF !(ExtData[1]->WorkLocal[4] == 12*) GOTO 0x0632
180: 0x062A [0x03] ExtData[1]->WorkLocal[21] = 0*
181: 0x062F [0x01] GOTO 0x0757
182: 0x0632 [0x02] IF !(ExtData[1]->WorkLocal[4] == 13*) GOTO 0x0642
183: 0x063A [0x03] ExtData[1]->WorkLocal[21] = 0*
184: 0x063F [0x01] GOTO 0x0757
185: 0x0642 [0x02] IF !(ExtData[1]->WorkLocal[4] == 14*) GOTO 0x0652
186: 0x064A [0x03] ExtData[1]->WorkLocal[21] = 0*
187: 0x064F [0x01] GOTO 0x0757
188: 0x0652 [0x02] IF !(ExtData[1]->WorkLocal[4] == 15*) GOTO 0x0662
189: 0x065A [0x03] ExtData[1]->WorkLocal[21] = 0*
190: 0x065F [0x01] GOTO 0x0757
191: 0x0662 [0x02] IF !(ExtData[1]->WorkLocal[4] == 16*) GOTO 0x0672
192: 0x066A [0x03] ExtData[1]->WorkLocal[21] = 0*
193: 0x066F [0x01] GOTO 0x0757
194: 0x0672 [0x02] IF !(ExtData[1]->WorkLocal[4] == 17*) GOTO 0x0682
195: 0x067A [0x03] ExtData[1]->WorkLocal[21] = 0*
196: 0x067F [0x01] GOTO 0x0757
197: 0x0682 [0x02] IF !(ExtData[1]->WorkLocal[4] == 18*) GOTO 0x0692
198: 0x068A [0x03] ExtData[1]->WorkLocal[21] = 0*
199: 0x068F [0x01] GOTO 0x0757
200: 0x0692 [0x02] IF !(ExtData[1]->WorkLocal[4] == 19*) GOTO 0x06A2
201: 0x069A [0x03] ExtData[1]->WorkLocal[21] = 0*
202: 0x069F [0x01] GOTO 0x0757
203: 0x06A2 [0x02] IF !(ExtData[1]->WorkLocal[4] == 20*) GOTO 0x06B2
204: 0x06AA [0x03] ExtData[1]->WorkLocal[21] = 0*
205: 0x06AF [0x01] GOTO 0x0757
206: 0x06B2 [0x02] IF !(ExtData[1]->WorkLocal[4] == 21*) GOTO 0x06C2
207: 0x06BA [0x03] ExtData[1]->WorkLocal[21] = 0*
208: 0x06BF [0x01] GOTO 0x0757
209: 0x06C2 [0x02] IF !(ExtData[1]->WorkLocal[4] == 22*) GOTO 0x06D2
210: 0x06CA [0x03] ExtData[1]->WorkLocal[21] = 0*
211: 0x06CF [0x01] GOTO 0x0757
212: 0x06D2 [0x02] IF !(ExtData[1]->WorkLocal[4] == 23*) GOTO 0x06E2
213: 0x06DA [0x03] ExtData[1]->WorkLocal[21] = 0*
214: 0x06DF [0x01] GOTO 0x0757
215: 0x06E2 [0x02] IF !(ExtData[1]->WorkLocal[4] == 24*) GOTO 0x06F2
216: 0x06EA [0x03] ExtData[1]->WorkLocal[21] = 0*
217: 0x06EF [0x01] GOTO 0x0757
218: 0x06F2 [0x02] IF !(ExtData[1]->WorkLocal[4] == 25*) GOTO 0x0702
219: 0x06FA [0x03] ExtData[1]->WorkLocal[21] = 0*
220: 0x06FF [0x01] GOTO 0x0757
221: 0x0702 [0x02] IF !(ExtData[1]->WorkLocal[4] == 26*) GOTO 0x0712
222: 0x070A [0x03] ExtData[1]->WorkLocal[21] = 0*
223: 0x070F [0x01] GOTO 0x0757
224: 0x0712 [0x02] IF !(ExtData[1]->WorkLocal[4] == 27*) GOTO 0x0722
225: 0x071A [0x03] ExtData[1]->WorkLocal[21] = 0*
226: 0x071F [0x01] GOTO 0x0757
227: 0x0722 [0x02] IF !(ExtData[1]->WorkLocal[4] == 28*) GOTO 0x0732
228: 0x072A [0x03] ExtData[1]->WorkLocal[21] = 0*
229: 0x072F [0x01] GOTO 0x0757
230: 0x0732 [0x02] IF !(ExtData[1]->WorkLocal[4] == 29*) GOTO 0x0742
231: 0x073A [0x03] ExtData[1]->WorkLocal[21] = 0*
232: 0x073F [0x01] GOTO 0x0757
233: 0x0742 [0x02] IF !(ExtData[1]->WorkLocal[4] == 30*) GOTO 0x0752
234: 0x074A [0x03] ExtData[1]->WorkLocal[21] = 0*
235: 0x074F [0x01] GOTO 0x0757
236: 0x0752 [0x03] ExtData[1]->WorkLocal[21] = 0*

SUBROUTINE_0757:
237: 0x0757 [0x02] IF !(ExtData[1]->WorkLocal[2] == 1*) GOTO 0x0772
238: 0x075F [0x5C] MUSIC_CONTROL: Set Idle (Day) music to song 143*
239: 0x0763 [0x5C] MUSIC_CONTROL: Set Idle (Night) music to song 143*
240: 0x0767 [0x5C] MUSIC_CONTROL: Set Combat (Solo) music to song 143*
241: 0x076B [0x5C] MUSIC_CONTROL: Set Combat (Party) music to song 143*
242: 0x076F [0x01] GOTO 0x078A
243: 0x0772 [0x02] IF !(ExtData[1]->WorkLocal[21] == 0*) GOTO 0x078A
244: 0x077A [0x5C] MUSIC_CONTROL: Set Idle (Day) music to song 143*
245: 0x077E [0x5C] MUSIC_CONTROL: Set Idle (Night) music to song 143*
246: 0x0782 [0x5C] MUSIC_CONTROL: Set Combat (Solo) music to song 143*
247: 0x0786 [0x5C] MUSIC_CONTROL: Set Combat (Party) music to song 143*

SUBROUTINE_078A:
248: 0x078A [0x02] IF !(ExtData[1]->WorkLocal[2] == 0*) GOTO 0x0798
249: 0x0792 [0x1A] CALL_SUBROUTINE(address=0x1019)
250: 0x0795 [0x01] GOTO 0x07D1
251: 0x0798 [0x6C] FADE_ENTITY_COLOR(entity_id=LocalPlayer, end_alpha=0*, fade_time=1*)
252: 0x07A1 [0x62] LOAD_EVENT_SCHEDULER: Load scheduler "main" with entities [LocalPlayer, LocalPlayer], work=[2*, 0*]
253: 0x07B2 [0x45] LOAD_SCHEDULED_TASK: Load scheduler "ovl1" with entities [LocalPlayer, LocalPlayer], work=[200*, 0*]
254: 0x07C3 [0x46] CAMERA_CONTROL: Query status
255: 0x07C5 [0x12] 0x0200 = rand()
256: 0x07C8 [0x12] ExtData[1]->WorkLocal[0] = rand()
257: 0x07CB [0x80] LOAD_WAIT(entity=Unknown NPC (ID: 1174917376/0x4607D100))
258: 0x07D0 [0x00] END_REQSTACK()

SUBROUTINE_07D1:
259: 0x07D1 [0x03] Work_Zone[1] = 100*
260: 0x07D6 [0x07] Work_Zone[1] += ExtData[1]->WorkLocal[3]
261: 0x07DB [0x01] GOTO 0x07F8

SUBROUTINE_07E1:
262: 0x07E1 [0x0B] ExtData[1]->WorkLocal[0]++
263: 0x07E4 [0x02] IF !(0* == 1*) GOTO 0x07F1
264: 0x07EC [0x03] ExtData[1]->WorkLocal[0] = 4*
265: 0x07F1 [0x01] GOTO 0x01A4
266: 0x07F4 [0x48] [System] [7230*]:
    → "You cannot enter the battlefield at present. Please wait a little longer."
267: 0x07F7 [0x23] WAIT_FOR_DIALOG_INTERACTION

SUBROUTINE_07F8:
268: 0x07F8 [0x45] LOAD_SCHEDULED_TASK: Load scheduler "whi1" with entities [LocalPlayer, LocalPlayer], work=[201*, 0*]
269: 0x0809 [0x45] LOAD_SCHEDULED_TASK: Load scheduler "blof" with entities [LocalPlayer, LocalPlayer], work=[200*, 0*]
270: 0x081A [0x45] LOAD_SCHEDULED_TASK: Load scheduler "fdi0" with entities [LocalPlayer, LocalPlayer], work=[200*, 0*]

SUBROUTINE_082B:
271: 0x082B [0x02] IF !(ExtData[1]->WorkLocal[7] == 1*) GOTO 0x0843
272: 0x0833 [0x5C] MUSIC_CONTROL: Set Idle (Day) music to song 0*
273: 0x0837 [0x5C] MUSIC_CONTROL: Set Idle (Night) music to song 0*
274: 0x083B [0x5C] MUSIC_CONTROL: Set Combat (Solo) music to song 143*
275: 0x083F [0x5C] MUSIC_CONTROL: Set Combat (Party) music to song 143*
276: 0x0843 [0x21] END_EVENT
277: 0x0844 [0x00] END_REQSTACK()

SUBROUTINE_0845:
278: 0x0845 [0x1B] RETURN
```

#### Data or dead code:

```
# Dead code (unreachable instructions):
     0x0070 [0x01] GOTO 0x0145
# Dead code (unreachable instructions):
     0x0116 [0x01] GOTO 0x011E
# Dead code (unreachable instructions):
     0x0142 [0x01] GOTO 0x0145
# Dead code (unreachable instructions):
     0x025C [0x01] GOTO 0x07E1
     0x026E [0x01] GOTO 0x07E1
# Dead code (unreachable instructions):
     0x0470 [0x01] GOTO 0x07E1
     0x047E [0x01] GOTO 0x07E1
# Dead code (unreachable instructions):
     0x07DE [0x01] GOTO 0x07E1
```

### Event 32002

#### Metadata

| Field        | Value     |
|--------------|-----------|
| Entrypoint   | 0x0846    |
| Data Size    | 494 bytes |
| Instructions | 83        |

```
      00 01 02 03 04 05 06 07  08 09 0A 0B 0C 0D 0E 0F
      -- -- -- -- -- -- -- --  -- -- -- -- -- -- -- --
0840:                   03 05  00 06 10 03 21 00 07 10        ......!...
0850: 03 20 00 08 10 20 01 42  3B F0 FF FF 7F 20 10 21  . ... .B;.... .!
0860: 10 22 10 3A F0 FF FF 7F  23 10 45 0E 80 F0 FF FF  .".:....#.E.....
0870: 7F F0 FF FF 7F 66 64 6F  31 00 80 55 0E 80 F0 FF  .....fdo1..U....
0880: FF 7F F0 FF FF 7F 66 64  6F 31 02 00 80 05 80 00  ......fdo1......
0890: F1 08 02 05 00 05 80 80  A9 08 47 00 00 80 00 80  ..........G.....
08A0: 00 80 00 80 47 01 01 EE  08 02 05 00 09 80 80 C0  ....G...........
08B0: 08 47 00 00 80 00 80 00  80 00 80 47 01 01 EE 08  .G.........G....
08C0: 02 05 00 0A 80 80 D7 08  47 00 00 80 00 80 00 80  ........G.......
08D0: 00 80 47 01 01 EE 08 02  05 00 0B 80 80 EE 08 47  ..G............G
08E0: 00 00 80 00 80 00 80 00  80 47 01 01 EE 08 01 FA  .........G......
08F0: 09 02 20 00 36 80 80 7B  09 02 21 00 00 80 80 10  .. .6..{..!.....
0900: 09 47 00 37 80 38 80 39  80 3A 80 47 01 01 78 09  .G.7.8.9.:.G..x.
0910: 02 21 00 05 80 80 27 09  47 00 3B 80 3C 80 3D 80  .!....'.G.;.<.=.
0920: 3E 80 47 01 01 78 09 02  21 00 09 80 80 3E 09 47  >.G..x..!....>.G
0930: 00 3F 80 40 80 41 80 42  80 47 01 01 78 09 02 21  .?.@.A.B.G..x..!
0940: 00 0A 80 80 55 09 47 00  43 80 44 80 45 80 46 80  ....U.G.C.D.E.F.
0950: 47 01 01 78 09 02 21 00  0B 80 80 6C 09 47 00 47  G..x..!....l.G.G
0960: 80 48 80 49 80 4A 80 47  01 01 78 09 47 00 4B 80  .H.I.J.G..x.G.K.
0970: 4C 80 4D 80 4E 80 47 01  01 FA 09 02 20 00 18 80  L.M.N.G..... ...
0980: 80 EE 09 02 21 00 05 80  80 9A 09 47 00 4F 80 50  ....!......G.O.P
0990: 80 51 80 52 80 47 01 01  EB 09 02 21 00 09 80 80  .Q.R.G.....!....
09A0: B1 09 47 00 53 80 54 80  55 80 56 80 47 01 01 EB  ..G.S.T.U.V.G...
09B0: 09 02 21 00 0A 80 80 C8  09 47 00 57 80 58 80 59  ..!......G.W.X.Y
09C0: 80 5A 80 47 01 01 EB 09  02 21 00 0B 80 80 DF 09  .Z.G.....!......
09D0: 47 00 5B 80 5C 80 5D 80  5E 80 47 01 01 EB 09 47  G.[.\.].^.G....G
09E0: 00 4B 80 4C 80 4D 80 4E  80 47 01 01 FA 09 47 00  .K.L.M.N.G....G.
09F0: 4B 80 4C 80 4D 80 4E 80  47 01 38 0F 80 1A 7E 22  K.L.M.N.G.8...~"
0A00: 45 35 80 F0 FF FF 7F F0  FF FF 7F 77 68 69 31 00  E5.........whi1.
0A10: 80 45 0E 80 F0 FF FF 7F  F0 FF FF 7F 62 6C 6F 66  .E..........blof
0A20: 00 80 5C 00 00 80 5C 01  00 80 5C 02 33 80 5C 03  ..\...\...\.3.\.
0A30: 33 80 21 00                                       3.!.            
```

#### Opcodes

```
  0: 0x0846 [0x03] ExtData[1]->WorkLocal[5] = Work_Zone[6]
  1: 0x084B [0x03] ExtData[1]->WorkLocal[33] = Work_Zone[7]
  2: 0x0850 [0x03] ExtData[1]->WorkLocal[32] = Work_Zone[8]
  3: 0x0855 [0x20] SET_CLI_EVENT_UC_FLAG: Lock player control
  4: 0x0857 [0x42] SET_CLI_EVENT_CANCEL_DATA()
  5: 0x0858 [0x3B] GET_ENTITY_POSITION(entity=LocalPlayer, x_destination=Work_Zone[32], y_destination=Work_Zone[33], z_destination=Work_Zone[34])
  6: 0x0863 [0x3A] CONVERT_YAW_TO_BYTE(entity=LocalPlayer, result_destination=Work_Zone[35])
  7: 0x086A [0x45] LOAD_SCHEDULED_TASK: Load scheduler "fdo1" with entities [LocalPlayer, LocalPlayer], work=[200*, 0*]
  8: 0x087B [0x55] WAIT_LOAD_SCHEDULER: Wait for scheduler "fdo1" with entities [LocalPlayer, LocalPlayer], work=200*
  9: 0x088A [0x02] IF !(0* == 1*) GOTO 0x08F1
 10: 0x0892 [0x02] IF !(ExtData[1]->WorkLocal[5] == 1*) GOTO 0x08A9
 11: 0x089A [0x47] UPDATE_PLAYER_POS(0.000*, 0.000*, 0.000*, yaw=0.0°*)
 12: 0x08A4 [0x47] WAIT_PLAYER_POS_UPDATE
 13: 0x08A6 [0x01] GOTO 0x08EE
 14: 0x08A9 [0x02] IF !(ExtData[1]->WorkLocal[5] == 2*) GOTO 0x08C0
 15: 0x08B1 [0x47] UPDATE_PLAYER_POS(0.000*, 0.000*, 0.000*, yaw=0.0°*)
 16: 0x08BB [0x47] WAIT_PLAYER_POS_UPDATE
 17: 0x08BD [0x01] GOTO 0x08EE
 18: 0x08C0 [0x02] IF !(ExtData[1]->WorkLocal[5] == 3*) GOTO 0x08D7
 19: 0x08C8 [0x47] UPDATE_PLAYER_POS(0.000*, 0.000*, 0.000*, yaw=0.0°*)
 20: 0x08D2 [0x47] WAIT_PLAYER_POS_UPDATE
 21: 0x08D4 [0x01] GOTO 0x08EE
 22: 0x08D7 [0x02] IF !(ExtData[1]->WorkLocal[5] == 4*) GOTO 0x08EE
 23: 0x08DF [0x47] UPDATE_PLAYER_POS(0.000*, 0.000*, 0.000*, yaw=0.0°*)
 24: 0x08E9 [0x47] WAIT_PLAYER_POS_UPDATE
 25: 0x08EB [0x01] GOTO 0x08EE

SUBROUTINE_08EE:
 26: 0x08EE [0x01] GOTO 0x09FA
 27: 0x08F1 [0x02] IF !(ExtData[1]->WorkLocal[32] == 180*) GOTO 0x097B
 28: 0x08F9 [0x02] IF !(ExtData[1]->WorkLocal[33] == 0*) GOTO 0x0910
 29: 0x0901 [0x47] UPDATE_PLAYER_POS(-605.141*, 479.929*, -22.681*, yaw=87.2°*)
 30: 0x090B [0x47] WAIT_PLAYER_POS_UPDATE
 31: 0x090D [0x01] GOTO 0x0978
 32: 0x0910 [0x02] IF !(ExtData[1]->WorkLocal[33] == 1*) GOTO 0x0927
 33: 0x0918 [0x47] UPDATE_PLAYER_POS(-262.589*, 377.857*, -137.313*, yaw=305.3°*)
 34: 0x0922 [0x47] WAIT_PLAYER_POS_UPDATE
 35: 0x0924 [0x01] GOTO 0x0978
 36: 0x0927 [0x02] IF !(ExtData[1]->WorkLocal[33] == 2*) GOTO 0x093E
 37: 0x092F [0x47] UPDATE_PLAYER_POS(18.348*, 486.940*, -224.334*, yaw=17.1°*)
 38: 0x0939 [0x47] WAIT_PLAYER_POS_UPDATE
 39: 0x093B [0x01] GOTO 0x0978
 40: 0x093E [0x02] IF !(ExtData[1]->WorkLocal[33] == 3*) GOTO 0x0955
 41: 0x0946 [0x47] UPDATE_PLAYER_POS(231.593*, 360.094*, -173.572*, yaw=160.8°*)
 42: 0x0950 [0x47] WAIT_PLAYER_POS_UPDATE
 43: 0x0952 [0x01] GOTO 0x0978
 44: 0x0955 [0x02] IF !(ExtData[1]->WorkLocal[33] == 4*) GOTO 0x096C
 45: 0x095D [0x47] UPDATE_PLAYER_POS(553.664*, 523.939*, -38.205*, yaw=233.9°*)
 46: 0x0967 [0x47] WAIT_PLAYER_POS_UPDATE
 47: 0x0969 [0x01] GOTO 0x0978
 48: 0x096C [0x47] UPDATE_PLAYER_POS(-604.253*, -99.932*, 9.948*, yaw=180.0°*)
 49: 0x0976 [0x47] WAIT_PLAYER_POS_UPDATE

SUBROUTINE_0978:
 50: 0x0978 [0x01] GOTO 0x09FA
 51: 0x097B [0x02] IF !(ExtData[1]->WorkLocal[32] == 6*) GOTO 0x09EE
 52: 0x0983 [0x02] IF !(ExtData[1]->WorkLocal[33] == 1*) GOTO 0x099A
 53: 0x098B [0x47] UPDATE_PLAYER_POS(-875.117*, -43.892*, -48.084*, yaw=45.1°*)
 54: 0x0995 [0x47] WAIT_PLAYER_POS_UPDATE
 55: 0x0997 [0x01] GOTO 0x09EB
 56: 0x099A [0x02] IF !(ExtData[1]->WorkLocal[33] == 2*) GOTO 0x09B1
 57: 0x09A2 [0x47] UPDATE_PLAYER_POS(-755.499*, 563.947*, -112.035*, yaw=313.5°*)
 58: 0x09AC [0x47] WAIT_PLAYER_POS_UPDATE
 59: 0x09AE [0x01] GOTO 0x09EB
 60: 0x09B1 [0x02] IF !(ExtData[1]->WorkLocal[33] == 3*) GOTO 0x09C8
 61: 0x09B9 [0x47] UPDATE_PLAYER_POS(123.251*, 754.209*, -172.124*, yaw=38.7°*)
 62: 0x09C3 [0x47] WAIT_PLAYER_POS_UPDATE
 63: 0x09C5 [0x01] GOTO 0x09EB
 64: 0x09C8 [0x02] IF !(ExtData[1]->WorkLocal[33] == 4*) GOTO 0x09DF
 65: 0x09D0 [0x47] UPDATE_PLAYER_POS(-516.404*, -803.323*, 24.206*, yaw=38.4°*)
 66: 0x09DA [0x47] WAIT_PLAYER_POS_UPDATE
 67: 0x09DC [0x01] GOTO 0x09EB
 68: 0x09DF [0x47] UPDATE_PLAYER_POS(-604.253*, -99.932*, 9.948*, yaw=180.0°*)
 69: 0x09E9 [0x47] WAIT_PLAYER_POS_UPDATE

SUBROUTINE_09EB:
 70: 0x09EB [0x01] GOTO 0x09FA
 71: 0x09EE [0x47] UPDATE_PLAYER_POS(-604.253*, -99.932*, 9.948*, yaw=180.0°*)
 72: 0x09F8 [0x47] WAIT_PLAYER_POS_UPDATE

SUBROUTINE_09FA:
 73: 0x09FA [0x38] SET_CLIENT_EVENT_MODE(mode=19*)
 74: 0x09FD [0x1A] CALL_SUBROUTINE(address=0x227E)
 75: 0x0A00 [0x45] LOAD_SCHEDULED_TASK: Load scheduler "whi1" with entities [LocalPlayer, LocalPlayer], work=[201*, 0*]
 76: 0x0A11 [0x45] LOAD_SCHEDULED_TASK: Load scheduler "blof" with entities [LocalPlayer, LocalPlayer], work=[200*, 0*]
 77: 0x0A22 [0x5C] MUSIC_CONTROL: Set Idle (Day) music to song 0*
 78: 0x0A26 [0x5C] MUSIC_CONTROL: Set Idle (Night) music to song 0*
 79: 0x0A2A [0x5C] MUSIC_CONTROL: Set Combat (Solo) music to song 143*
 80: 0x0A2E [0x5C] MUSIC_CONTROL: Set Combat (Party) music to song 143*
 81: 0x0A32 [0x21] END_EVENT
 82: 0x0A33 [0x00] END_REQSTACK()
```

### Event 32001

#### Metadata

| Field        | Value      |
|--------------|------------|
| Entrypoint   | 0x0A34     |
| Data Size    | 1049 bytes |
| Instructions | 180        |

```
      00 01 02 03 04 05 06 07  08 09 0A 0B 0C 0D 0E 0F
      -- -- -- -- -- -- -- --  -- -- -- -- -- -- -- --
0A30:             79 00 F0 FF  FF 7F F0 FF FF 7F 03 21      y..........!
0A40: 00 02 10 03 1A 00 03 10  03 1B 00 05 10 03 20 00  .............. .
0A50: 06 10 03 19 00 07 10 03  17 00 08 10 02 17 00 0A  ................
0A60: 80 04 69 0A 03 17 00 00  80 02 19 00 08 80 80 79  ..i............y
0A70: 0A 03 17 00 09 80 01 79  0A 03 1C 00 09 10 20 01  .......y...... .
0A80: 42 3B F0 FF FF 7F 20 10  21 10 22 10 3A F0 FF FF  B;.... .!.".:...
0A90: 7F 23 10 02 20 00 36 80  01 9E 0A 1C 5F 80 45 35  .#.. .6....._.E5
0AA0: 80 F0 FF FF 7F F0 FF FF  7F 77 68 69 31 00 80 45  .........whi1..E
0AB0: 0E 80 F0 FF FF 7F F0 FF  FF 7F 62 6C 6F 66 00 80  ..........blof..
0AC0: 45 0E 80 F0 FF FF 7F F0  FF FF 7F 66 64 6F 31 00  E..........fdo1.
0AD0: 80 55 0E 80 F0 FF FF 7F  F0 FF FF 7F 66 64 6F 31  .U..........fdo1
0AE0: 6C F0 FF FF 7F 60 80 05  80 06 01 10 02 17 00 00  l....`..........
0AF0: 80 03 F7 0A 01 45 0C 02  20 00 36 80 80 81 0B 02  .....E.. .6.....
0B00: 21 00 00 80 80 16 0B 47  00 61 80 62 80 63 80 64  !......G.a.b.c.d
0B10: 80 47 01 01 7E 0B 02 21  00 05 80 80 2D 0B 47 00  .G..~..!....-.G.
0B20: 65 80 66 80 67 80 68 80  47 01 01 7E 0B 02 21 00  e.f.g.h.G..~..!.
0B30: 09 80 80 44 0B 47 00 69  80 6A 80 6B 80 6C 80 47  ...D.G.i.j.k.l.G
0B40: 01 01 7E 0B 02 21 00 0A  80 80 5B 0B 47 00 6D 80  ..~..!....[.G.m.
0B50: 6E 80 6F 80 70 80 47 01  01 7E 0B 02 21 00 0B 80  n.o.p.G..~..!...
0B60: 80 72 0B 47 00 71 80 72  80 73 80 74 80 47 01 01  .r.G.q.r.s.t.G..
0B70: 7E 0B 47 00 75 80 76 80  77 80 4E 80 47 01 01 45  ~.G.u.v.w.N.G..E
0B80: 0C 02 20 00 78 80 80 AF  0B 02 19 00 00 80 80 A0  .. .x...........
0B90: 0B 47 00 75 80 76 80 77  80 4E 80 47 01 01 AC 0B  .G.u.v.w.N.G....
0BA0: 47 00 79 80 7A 80 7B 80  7C 80 47 01 01 45 0C 02  G.y.z.{.|.G..E..
0BB0: 20 00 7D 80 80 DD 0B 02  19 00 0B 80 80 CE 0B 47   .}............G
0BC0: 00 7E 80 7F 80 80 80 81  80 47 01 01 DA 0B 47 00  .~.......G....G.
0BD0: 75 80 76 80 77 80 4E 80  47 01 01 45 0C 02 20 00  u.v.w.N.G..E.. .
0BE0: 82 80 80 0B 0C 02 19 00  0B 80 80 FC 0B 47 00 83  .............G..
0BF0: 80 84 80 85 80 86 80 47  01 01 08 0C 47 00 75 80  .......G....G.u.
0C00: 76 80 77 80 4E 80 47 01  01 45 0C 02 20 00 87 80  v.w.N.G..E.. ...
0C10: 80 39 0C 02 19 00 0A 80  80 2A 0C 47 00 88 80 89  .9.......*.G....
0C20: 80 8A 80 8B 80 47 01 01  36 0C 47 00 75 80 76 80  .....G..6.G.u.v.
0C30: 77 80 4E 80 47 01 01 45  0C 47 00 75 80 76 80 77  w.N.G..E.G.u.v.w
0C40: 80 4E 80 47 01 38 0F 80  02 17 00 09 80 00 53 0C  .N.G.8........S.
0C50: 01 6E 0C 02 17 00 05 80  00 1E 0D 1C 01 80 24 32  .n............$2
0C60: 80 05 80 00 80 25 02 00  10 00 80 00 1E 0D 02 20  .....%......... 
0C70: 00 36 80 00 DA 0C 02 21  00 00 80 80 88 0C 36 61  .6.....!......6a
0C80: 80 62 80 63 80 01 D7 0C  02 21 00 05 80 80 9A 0C  .b.c.....!......
0C90: 36 65 80 66 80 67 80 01  D7 0C 02 21 00 09 80 80  6e.f.g.....!....
0CA0: AC 0C 36 69 80 6A 80 6B  80 01 D7 0C 02 21 00 0A  ..6i.j.k.....!..
0CB0: 80 80 BE 0C 36 6D 80 6E  80 6F 80 01 D7 0C 02 21  ....6m.n.o.....!
0CC0: 00 0B 80 80 D0 0C 36 71  80 72 80 73 80 01 D7 0C  ......6q.r.s....
0CD0: 36 75 80 76 80 77 80 01  E3 0C 37 75 80 76 80 77  6u.v.w....7u.v.w
0CE0: 80 4E 80 80 F0 FF FF 7F  62 09 80 F0 FF FF 7F F0  .N......b.......
0CF0: FF FF 7F 6D 61 69 6E 00  80 45 0E 80 F0 FF FF 7F  ...main..E......
0D00: F0 FF FF 7F 66 64 69 32  00 80 46 02 12 00 02 12  ....fdi2..F.....
0D10: 00 00 80 00 18 0D 46 00  01 45 0D 01 1E 0D 02 17  ......F..E......
0D20: 00 04 80 04 37 0D 5C 00  33 80 5C 01 33 80 5C 02  ....7.\.3.\.3.\.
0D30: 33 80 5C 03 33 80 9A 1A  F7 16 02 17 00 00 80 03  3.\.3...........
0D40: 45 0D 01 E5 0D 02 20 00  8C 80 80 50 0D 01 50 0D  E..... ....P..P.
0D50: 02 20 00 1F 80 80 5B 0D  01 E5 0D 02 20 00 0F 80  . ....[..... ...
0D60: 80 66 0D 01 E5 0D 02 20  00 21 80 80 71 0D 01 E5  .f..... .!..q...
0D70: 0D 02 20 00 23 80 80 7C  0D 01 E5 0D 03 05 10 1B  .. .#..|........
0D80: 00 02 05 10 00 80 02 E5  0D 02 05 10 2E 80 04 A4  ................
0D90: 0D 3F 04 10 05 10 2E 80  15 05 10 2E 80 48 8D 80  .?...........H..
0DA0: 23 01 A8 0D 48 8E 80 23  02 1B 00 1A 00 05 BC 0D  #...H..#........
0DB0: 03 07 10 19 00 48 8F 80  23 01 E5 0D 02 1A 00 2E  .....H..#.......
0DC0: 80 04 DC 0D 03 05 10 1A  00 3F 04 10 05 10 2E 80  .........?......
0DD0: 15 05 10 2E 80 48 90 80  23 01 E5 0D 03 05 10 1A  .....H..#.......
0DE0: 00 48 91 80 23 02 18 00  00 80 00 FD 0D 5C 00 00  .H..#........\..
0DF0: 80 5C 01 00 80 5C 02 33  80 5C 03 33 80 02 17 00  .\...\.3.\.3....
0E00: 00 80 03 26 0E 45 0E 80  F0 FF FF 7F F0 FF FF 7F  ...&.E..........
0E10: 66 64 69 32 00 80 5C 00  00 80 5C 01 00 80 5C 02  fdi2..\...\...\.
0E20: 33 80 5C 03 33 80 06 18  00 45 35 80 F0 FF FF 7F  3.\.3....E5.....
0E30: F0 FF FF 7F 77 68 69 31  00 80 45 0E 80 F0 FF FF  ....whi1..E.....
0E40: 7F F0 FF FF 7F 62 6C 6F  66 00 80 21 00           .....blof..!.   
```

#### Opcodes

```
  0: 0x0A34 [0x79] LocalPlayer looks at LocalPlayer (Basic look)
  1: 0x0A3E [0x03] ExtData[1]->WorkLocal[33] = Work_Zone[2]
  2: 0x0A43 [0x03] ExtData[1]->WorkLocal[26] = Work_Zone[3]
  3: 0x0A48 [0x03] ExtData[1]->WorkLocal[27] = Work_Zone[5]
  4: 0x0A4D [0x03] ExtData[1]->WorkLocal[32] = Work_Zone[6]
  5: 0x0A52 [0x03] ExtData[1]->WorkLocal[25] = Work_Zone[7]
  6: 0x0A57 [0x03] ExtData[1]->WorkLocal[23] = Work_Zone[8]
  7: 0x0A5C [0x02] IF !(ExtData[1]->WorkLocal[23] < 3*) GOTO 0x0A69
  8: 0x0A64 [0x03] ExtData[1]->WorkLocal[23] = 0*
  9: 0x0A69 [0x02] IF !(ExtData[1]->WorkLocal[25] == 5*) GOTO 0x0A79
 10: 0x0A71 [0x03] ExtData[1]->WorkLocal[23] = 2*
 11: 0x0A76 [0x01] GOTO 0x0A79

SUBROUTINE_0A79:
 12: 0x0A79 [0x03] ExtData[1]->WorkLocal[28] = Work_Zone[9]
 13: 0x0A7E [0x20] SET_CLI_EVENT_UC_FLAG: Lock player control
 14: 0x0A80 [0x42] SET_CLI_EVENT_CANCEL_DATA()
 15: 0x0A81 [0x3B] GET_ENTITY_POSITION(entity=LocalPlayer, x_destination=Work_Zone[32], y_destination=Work_Zone[33], z_destination=Work_Zone[34])
 16: 0x0A8C [0x3A] CONVERT_YAW_TO_BYTE(entity=LocalPlayer, result_destination=Work_Zone[35])
 17: 0x0A93 [0x02] IF !(ExtData[1]->WorkLocal[32] == 180*) GOTO 0x0A9E
 18: 0x0A9B [0x1C] WAIT(300* ticks)
 19: 0x0A9E [0x45] LOAD_SCHEDULED_TASK: Load scheduler "whi1" with entities [LocalPlayer, LocalPlayer], work=[201*, 0*]
 20: 0x0AAF [0x45] LOAD_SCHEDULED_TASK: Load scheduler "blof" with entities [LocalPlayer, LocalPlayer], work=[200*, 0*]
 21: 0x0AC0 [0x45] LOAD_SCHEDULED_TASK: Load scheduler "fdo1" with entities [LocalPlayer, LocalPlayer], work=[200*, 0*]
 22: 0x0AD1 [0x55] WAIT_LOAD_SCHEDULER: Wait for scheduler "fdo1" with entities [LocalPlayer, LocalPlayer], work=200*
 23: 0x0AE0 [0x6C] FADE_ENTITY_COLOR(entity_id=LocalPlayer, end_alpha=128*, fade_time=1*)
 24: 0x0AE9 [0x06] Work_Zone[1] = 0
 25: 0x0AEC [0x02] IF !(ExtData[1]->WorkLocal[23] >= 0*) GOTO 0x0AF7
 26: 0x0AF4 [0x01] GOTO 0x0C45
 27: 0x0AF7 [0x02] IF !(ExtData[1]->WorkLocal[32] == 180*) GOTO 0x0B81
 28: 0x0AFF [0x02] IF !(ExtData[1]->WorkLocal[33] == 0*) GOTO 0x0B16
 29: 0x0B07 [0x47] UPDATE_PLAYER_POS(-618.329*, -643.868*, -25.805*, yaw=330.5°*)
 30: 0x0B11 [0x47] WAIT_PLAYER_POS_UPDATE
 31: 0x0B13 [0x01] GOTO 0x0B7E
 32: 0x0B16 [0x02] IF !(ExtData[1]->WorkLocal[33] == 1*) GOTO 0x0B2D
 33: 0x0B1E [0x47] UPDATE_PLAYER_POS(-332.163*, -441.914*, -95.055*, yaw=330.5°*)
 34: 0x0B28 [0x47] WAIT_PLAYER_POS_UPDATE
 35: 0x0B2A [0x01] GOTO 0x0B7E
 36: 0x0B2D [0x02] IF !(ExtData[1]->WorkLocal[33] == 2*) GOTO 0x0B44
 37: 0x0B35 [0x47] UPDATE_PLAYER_POS(-12.464*, -648.377*, -194.629*, yaw=331.3°*)
 38: 0x0B3F [0x47] WAIT_PLAYER_POS_UPDATE
 39: 0x0B41 [0x01] GOTO 0x0B7E
 40: 0x0B44 [0x02] IF !(ExtData[1]->WorkLocal[33] == 3*) GOTO 0x0B5B
 41: 0x0B4C [0x47] UPDATE_PLAYER_POS(323.381*, -443.793*, -108.440*, yaw=329.1°*)
 42: 0x0B56 [0x47] WAIT_PLAYER_POS_UPDATE
 43: 0x0B58 [0x01] GOTO 0x0B7E
 44: 0x0B5B [0x02] IF !(ExtData[1]->WorkLocal[33] == 4*) GOTO 0x0B72
 45: 0x0B63 [0x47] UPDATE_PLAYER_POS(599.907*, -676.969*, -22.473*, yaw=330.7°*)
 46: 0x0B6D [0x47] WAIT_PLAYER_POS_UPDATE
 47: 0x0B6F [0x01] GOTO 0x0B7E
 48: 0x0B72 [0x47] UPDATE_PLAYER_POS(-539.889*, 24.947*, -2.894*, yaw=180.0°*)
 49: 0x0B7C [0x47] WAIT_PLAYER_POS_UPDATE

SUBROUTINE_0B7E:
 50: 0x0B7E [0x01] GOTO 0x0C45
 51: 0x0B81 [0x02] IF !(ExtData[1]->WorkLocal[32] == 168*) GOTO 0x0BAF
 52: 0x0B89 [0x02] IF !(ExtData[1]->WorkLocal[25] == 0*) GOTO 0x0BA0
 53: 0x0B91 [0x47] UPDATE_PLAYER_POS(-539.889*, 24.947*, -2.894*, yaw=180.0°*)
 54: 0x0B9B [0x47] WAIT_PLAYER_POS_UPDATE
 55: 0x0B9D [0x01] GOTO 0x0BAC
 56: 0x0BA0 [0x47] UPDATE_PLAYER_POS(200.059*, -21.958*, -0.250*, yaw=91.5°*)
 57: 0x0BAA [0x47] WAIT_PLAYER_POS_UPDATE

SUBROUTINE_0BAC:
 58: 0x0BAC [0x01] GOTO 0x0C45
 59: 0x0BAF [0x02] IF !(ExtData[1]->WorkLocal[32] == 202*) GOTO 0x0BDD
 60: 0x0BB7 [0x02] IF !(ExtData[1]->WorkLocal[25] == 4*) GOTO 0x0BCE
 61: 0x0BBF [0x47] UPDATE_PLAYER_POS(538.604*, 501.900*, -13.942*, yaw=286.5°*)
 62: 0x0BC9 [0x47] WAIT_PLAYER_POS_UPDATE
 63: 0x0BCB [0x01] GOTO 0x0BDA
 64: 0x0BCE [0x47] UPDATE_PLAYER_POS(-539.889*, 24.947*, -2.894*, yaw=180.0°*)
 65: 0x0BD8 [0x47] WAIT_PLAYER_POS_UPDATE

SUBROUTINE_0BDA:
 66: 0x0BDA [0x01] GOTO 0x0C45
 67: 0x0BDD [0x02] IF !(ExtData[1]->WorkLocal[32] == 203*) GOTO 0x0C0B
 68: 0x0BE5 [0x02] IF !(ExtData[1]->WorkLocal[25] == 4*) GOTO 0x0BFC
 69: 0x0BED [0x47] UPDATE_PLAYER_POS(553.205*, 589.633*, -0.021*, yaw=124.4°*)
 70: 0x0BF7 [0x47] WAIT_PLAYER_POS_UPDATE
 71: 0x0BF9 [0x01] GOTO 0x0C08
 72: 0x0BFC [0x47] UPDATE_PLAYER_POS(-539.889*, 24.947*, -2.894*, yaw=180.0°*)
 73: 0x0C06 [0x47] WAIT_PLAYER_POS_UPDATE

SUBROUTINE_0C08:
 74: 0x0C08 [0x01] GOTO 0x0C45
 75: 0x0C0B [0x02] IF !(ExtData[1]->WorkLocal[32] == 211*) GOTO 0x0C39
 76: 0x0C13 [0x02] IF !(ExtData[1]->WorkLocal[25] == 3*) GOTO 0x0C2A
 77: 0x0C1B [0x47] UPDATE_PLAYER_POS(569.224*, 548.462*, 36.837*, yaw=59.1°*)
 78: 0x0C25 [0x47] WAIT_PLAYER_POS_UPDATE
 79: 0x0C27 [0x01] GOTO 0x0C36
 80: 0x0C2A [0x47] UPDATE_PLAYER_POS(-539.889*, 24.947*, -2.894*, yaw=180.0°*)
 81: 0x0C34 [0x47] WAIT_PLAYER_POS_UPDATE

SUBROUTINE_0C36:
 82: 0x0C36 [0x01] GOTO 0x0C45
 83: 0x0C39 [0x47] UPDATE_PLAYER_POS(-539.889*, 24.947*, -2.894*, yaw=180.0°*)
 84: 0x0C43 [0x47] WAIT_PLAYER_POS_UPDATE

SUBROUTINE_0C45:
 85: 0x0C45 [0x38] SET_CLIENT_EVENT_MODE(mode=19*)
 86: 0x0C48 [0x02] IF !(ExtData[1]->WorkLocal[23] == 2*) GOTO 0x0C53
 87: 0x0C50 [0x01] GOTO 0x0C6E
 88: 0x0C53 [0x02] IF !(ExtData[1]->WorkLocal[23] == 1*) GOTO 0x0D1E
 89: 0x0C5B [0x1C] WAIT(15* ticks)
 90: 0x0C5E [0x24] CREATE_DIALOG(message_id=7566*, default_option=1*, option_flags=0*)
    → "Skip the event? [Yes./No.]"
 91: 0x0C65 [0x25] WAIT_DIALOG_SELECT()
 92: 0x0C66 [0x02] IF !(Work_Zone[0] == 0*) GOTO 0x0D1E

SUBROUTINE_0C6E:
 93: 0x0C6E [0x02] IF !(ExtData[1]->WorkLocal[32] == 180*) GOTO 0x0CDA
 94: 0x0C76 [0x02] IF !(ExtData[1]->WorkLocal[33] == 0*) GOTO 0x0C88
 95: 0x0C7E [0x36] SET_ENTITY_EVENT_POSITION(pos_x=-618.329*, pos_z=-643.868*, pos_y=-25.805*)
 96: 0x0C85 [0x01] GOTO 0x0CD7
 97: 0x0C88 [0x02] IF !(ExtData[1]->WorkLocal[33] == 1*) GOTO 0x0C9A
 98: 0x0C90 [0x36] SET_ENTITY_EVENT_POSITION(pos_x=-332.163*, pos_z=-441.914*, pos_y=-95.055*)
 99: 0x0C97 [0x01] GOTO 0x0CD7
100: 0x0C9A [0x02] IF !(ExtData[1]->WorkLocal[33] == 2*) GOTO 0x0CAC
101: 0x0CA2 [0x36] SET_ENTITY_EVENT_POSITION(pos_x=-12.464*, pos_z=-648.377*, pos_y=-194.629*)
102: 0x0CA9 [0x01] GOTO 0x0CD7
103: 0x0CAC [0x02] IF !(ExtData[1]->WorkLocal[33] == 3*) GOTO 0x0CBE
104: 0x0CB4 [0x36] SET_ENTITY_EVENT_POSITION(pos_x=323.381*, pos_z=-443.793*, pos_y=-108.440*)
105: 0x0CBB [0x01] GOTO 0x0CD7
106: 0x0CBE [0x02] IF !(ExtData[1]->WorkLocal[33] == 4*) GOTO 0x0CD0
107: 0x0CC6 [0x36] SET_ENTITY_EVENT_POSITION(pos_x=599.907*, pos_z=-676.969*, pos_y=-22.473*)
108: 0x0CCD [0x01] GOTO 0x0CD7
109: 0x0CD0 [0x36] SET_ENTITY_EVENT_POSITION(pos_x=-539.889*, pos_z=24.947*, pos_y=-2.894*)

SUBROUTINE_0CD7:
110: 0x0CD7 [0x01] GOTO 0x0CE3
111: 0x0CDA [0x37] UPDATE_EVENT_POSITION_AND_DIR: x=-539.889*, z=24.947*, y=-2.894*, direction=180.0°*

SUBROUTINE_0CE3:
112: 0x0CE3 [0x80] LOAD_WAIT(entity=LocalPlayer)
113: 0x0CE8 [0x62] LOAD_EVENT_SCHEDULER: Load scheduler "main" with entities [LocalPlayer, LocalPlayer], work=[2*, 0*]
114: 0x0CF9 [0x45] LOAD_SCHEDULED_TASK: Load scheduler "fdi2" with entities [LocalPlayer, LocalPlayer], work=[200*, 0*]
115: 0x0D0A [0x46] CAMERA_CONTROL: Query status
116: 0x0D0C [0x12] 0x0200 = rand()
117: 0x0D0F [0x12] ExtData[1]->WorkLocal[0] = rand()
118: 0x0D12 [0x80] LOAD_WAIT(entity=Unknown NPC (ID: 1175263232/0x460D1800))
119: 0x0D17 [0x00] END_REQSTACK()

SUBROUTINE_0D1E:
120: 0x0D1E [0x02] IF !(ExtData[1]->WorkLocal[23] < 4294967295*) GOTO 0x0D37
121: 0x0D26 [0x5C] MUSIC_CONTROL: Set Idle (Day) music to song 143*
122: 0x0D2A [0x5C] MUSIC_CONTROL: Set Idle (Night) music to song 143*
123: 0x0D2E [0x5C] MUSIC_CONTROL: Set Combat (Solo) music to song 143*
124: 0x0D32 [0x5C] MUSIC_CONTROL: Set Combat (Party) music to song 143*
125: 0x0D36 [0x9A] WAIT_MUSIC_SERVER()
126: 0x0D37 [0x1A] CALL_SUBROUTINE(address=0x16F7)
127: 0x0D3A [0x02] IF !(ExtData[1]->WorkLocal[23] >= 0*) GOTO 0x0D45
128: 0x0D42 [0x01] GOTO 0x0DE5

SUBROUTINE_0D45:
129: 0x0D45 [0x02] IF !(ExtData[1]->WorkLocal[32] == 36*) GOTO 0x0D50
130: 0x0D4D [0x01] GOTO 0x0D50

SUBROUTINE_0D50:
131: 0x0D50 [0x02] IF !(ExtData[1]->WorkLocal[32] == 17*) GOTO 0x0D5B
132: 0x0D58 [0x01] GOTO 0x0DE5
133: 0x0D5B [0x02] IF !(ExtData[1]->WorkLocal[32] == 19*) GOTO 0x0D66
134: 0x0D63 [0x01] GOTO 0x0DE5
135: 0x0D66 [0x02] IF !(ExtData[1]->WorkLocal[32] == 21*) GOTO 0x0D71
136: 0x0D6E [0x01] GOTO 0x0DE5
137: 0x0D71 [0x02] IF !(ExtData[1]->WorkLocal[32] == 23*) GOTO 0x0D7C
138: 0x0D79 [0x01] GOTO 0x0DE5
139: 0x0D7C [0x03] Work_Zone[5] = ExtData[1]->WorkLocal[27]
140: 0x0D81 [0x02] IF !(Work_Zone[5] <= 0*) GOTO 0x0DE5
141: 0x0D89 [0x02] IF !(Work_Zone[5] < 60*) GOTO 0x0DA4
142: 0x0D91 [0x3F] Work_Zone[4] = Work_Zone[5] % 60*
143: 0x0D98 [0x15] Work_Zone[5] /= 60*
144: 0x0D9D [0x48] [System] [7568*]:
    → "Battlefield clear time: $3 minute[/s], $2 second[/s]!"
145: 0x0DA0 [0x23] WAIT_FOR_DIALOG_INTERACTION
146: 0x0DA1 [0x01] GOTO 0x0DA8
147: 0x0DA4 [0x48] [System] [7567*]:
    → "Battlefield clear time: $3 second[/s]!"
148: 0x0DA7 [0x23] WAIT_FOR_DIALOG_INTERACTION

SUBROUTINE_0DA8:
149: 0x0DA8 [0x02] IF !(ExtData[1]->WorkLocal[27] > ExtData[1]->WorkLocal[26]) GOTO 0x0DBC
150: 0x0DB0 [0x03] Work_Zone[7] = ExtData[1]->WorkLocal[25]
151: 0x0DB5 [0x48] [System] [7602*]:
    → "You have broken the clear time record for "[Tough Nut to Crack/Happy Caster/Omens/Achieving True Power/Shield of Diplomacy/An Imperial Heist]"!"
152: 0x0DB8 [0x23] WAIT_FOR_DIALOG_INTERACTION
153: 0x0DB9 [0x01] GOTO 0x0DE5
154: 0x0DBC [0x02] IF !(ExtData[1]->WorkLocal[26] < 60*) GOTO 0x0DDC
155: 0x0DC4 [0x03] Work_Zone[5] = ExtData[1]->WorkLocal[26]
156: 0x0DC9 [0x3F] Work_Zone[4] = Work_Zone[5] % 60*
157: 0x0DD0 [0x15] Work_Zone[5] /= 60*
158: 0x0DD5 [0x48] [System] [7570*]:
    → "The current battlefield clear time record is $3 minute[/s] $2 second[/s]."
159: 0x0DD8 [0x23] WAIT_FOR_DIALOG_INTERACTION
160: 0x0DD9 [0x01] GOTO 0x0DE5
161: 0x0DDC [0x03] Work_Zone[5] = ExtData[1]->WorkLocal[26]
162: 0x0DE1 [0x48] [System] [7569*]:
    → "The current battlefield clear time record is $3 second[/s]."
163: 0x0DE4 [0x23] WAIT_FOR_DIALOG_INTERACTION

SUBROUTINE_0DE5:
164: 0x0DE5 [0x02] IF !(ExtData[1]->WorkLocal[24] == 0*) GOTO 0x0DFD
165: 0x0DED [0x5C] MUSIC_CONTROL: Set Idle (Day) music to song 0*
166: 0x0DF1 [0x5C] MUSIC_CONTROL: Set Idle (Night) music to song 0*
167: 0x0DF5 [0x5C] MUSIC_CONTROL: Set Combat (Solo) music to song 143*
168: 0x0DF9 [0x5C] MUSIC_CONTROL: Set Combat (Party) music to song 143*
169: 0x0DFD [0x02] IF !(ExtData[1]->WorkLocal[23] >= 0*) GOTO 0x0E26
170: 0x0E05 [0x45] LOAD_SCHEDULED_TASK: Load scheduler "fdi2" with entities [LocalPlayer, LocalPlayer], work=[200*, 0*]
171: 0x0E16 [0x5C] MUSIC_CONTROL: Set Idle (Day) music to song 0*
172: 0x0E1A [0x5C] MUSIC_CONTROL: Set Idle (Night) music to song 0*
173: 0x0E1E [0x5C] MUSIC_CONTROL: Set Combat (Solo) music to song 143*
174: 0x0E22 [0x5C] MUSIC_CONTROL: Set Combat (Party) music to song 143*
175: 0x0E26 [0x06] ExtData[1]->WorkLocal[24] = 0
176: 0x0E29 [0x45] LOAD_SCHEDULED_TASK: Load scheduler "whi1" with entities [LocalPlayer, LocalPlayer], work=[201*, 0*]
177: 0x0E3A [0x45] LOAD_SCHEDULED_TASK: Load scheduler "blof" with entities [LocalPlayer, LocalPlayer], work=[200*, 0*]
178: 0x0E4B [0x21] END_EVENT
179: 0x0E4C [0x00] END_REQSTACK()
```

#### Data or dead code:

```
# Dead code (unreachable instructions):
     0x0D18 [0x01] GOTO 0x0D45
     0x0D1B [0x01] GOTO 0x0D1E
```

### Event 32003

#### Metadata

| Field        | Value     |
|--------------|-----------|
| Entrypoint   | 0x0E4D    |
| Data Size    | 435 bytes |
| Instructions | 77        |

```
      00 01 02 03 04 05 06 07  08 09 0A 0B 0C 0D 0E 0F
      -- -- -- -- -- -- -- --  -- -- -- -- -- -- -- --
0E40:                                         06 1D 00               ...
0E50: 06 1E 00 03 21 00 06 10  03 20 00 07 10 03 1F 00  ....!.... ......
0E60: 08 10 06 01 10 1A CB 21  02 1D 00 05 80 00 FE 0F  .......!........
0E70: 42 03 01 10 09 80 43 00  43 01 03 01 10 0A 80 43  B.....C.C......C
0E80: 00 43 01 1A E2 21 02 1E  00 05 80 00 FE 0F 45 0E  .C...!........E.
0E90: 80 F0 FF FF 7F F0 FF FF  7F 66 64 6F 31 00 80 55  .........fdo1..U
0EA0: 0E 80 F0 FF FF 7F F0 FF  FF 7F 66 64 6F 31 03 01  ..........fdo1..
0EB0: 10 0B 80 02 20 00 36 80  80 3D 0F 02 21 00 00 80  .... .6..=..!...
0EC0: 80 D2 0E 47 00 37 80 38  80 39 80 3A 80 47 01 01  ...G.7.8.9.:.G..
0ED0: 3A 0F 02 21 00 05 80 80  E9 0E 47 00 3B 80 3C 80  :..!......G.;.<.
0EE0: 3D 80 3E 80 47 01 01 3A  0F 02 21 00 09 80 80 00  =.>.G..:..!.....
0EF0: 0F 47 00 3F 80 40 80 41  80 42 80 47 01 01 3A 0F  .G.?.@.A.B.G..:.
0F00: 02 21 00 0A 80 80 17 0F  47 00 43 80 44 80 45 80  .!......G.C.D.E.
0F10: 46 80 47 01 01 3A 0F 02  21 00 0B 80 80 2E 0F 47  F.G..:..!......G
0F20: 00 47 80 48 80 49 80 4A  80 47 01 01 3A 0F 47 00  .G.H.I.J.G..:.G.
0F30: 4B 80 4C 80 4D 80 4E 80  47 01 01 BC 0F 02 20 00  K.L.M.N.G..... .
0F40: 18 80 80 B0 0F 02 1F 00  05 80 80 5C 0F 47 00 4F  ...........\.G.O
0F50: 80 50 80 51 80 52 80 47  01 01 AD 0F 02 1F 00 09  .P.Q.R.G........
0F60: 80 80 73 0F 47 00 53 80  54 80 55 80 56 80 47 01  ..s.G.S.T.U.V.G.
0F70: 01 AD 0F 02 1F 00 0A 80  80 8A 0F 47 00 57 80 58  ...........G.W.X
0F80: 80 59 80 5A 80 47 01 01  AD 0F 02 1F 00 0B 80 80  .Y.Z.G..........
0F90: A1 0F 47 00 5B 80 5C 80  5D 80 5E 80 47 01 01 AD  ..G.[.\.].^.G...
0FA0: 0F 47 00 4B 80 4C 80 4D  80 4E 80 47 01 01 BC 0F  .G.K.L.M.N.G....
0FB0: 47 00 4B 80 4C 80 4D 80  4E 80 47 01 38 0F 80 79  G.K.L.M.N.G.8..y
0FC0: 00 F0 FF FF 7F F0 FF FF  7F 1A E6 21 45 35 80 F0  ...........!E5..
0FD0: FF FF 7F F0 FF FF 7F 77  68 69 31 00 80 45 0E 80  .......whi1..E..
0FE0: F0 FF FF 7F F0 FF FF 7F  62 6C 6F 66 00 80 5C 00  ........blof..\.
0FF0: 00 80 5C 01 00 80 5C 02  33 80 5C 03 33 80 21 00  ..\...\.3.\.3.!.
```

#### Opcodes

```
  0: 0x0E4D [0x06] ExtData[1]->WorkLocal[29] = 0
  1: 0x0E50 [0x06] ExtData[1]->WorkLocal[30] = 0
  2: 0x0E53 [0x03] ExtData[1]->WorkLocal[33] = Work_Zone[6]
  3: 0x0E58 [0x03] ExtData[1]->WorkLocal[32] = Work_Zone[7]
  4: 0x0E5D [0x03] ExtData[1]->WorkLocal[31] = Work_Zone[8]
  5: 0x0E62 [0x06] Work_Zone[1] = 0
  6: 0x0E65 [0x1A] CALL_SUBROUTINE(address=0x21CB)
  7: 0x0E68 [0x02] IF !(ExtData[1]->WorkLocal[29] == 1*) GOTO 0x0FFE
  8: 0x0E70 [0x42] SET_CLI_EVENT_CANCEL_DATA()
  9: 0x0E71 [0x03] Work_Zone[1] = 2*
 10: 0x0E76 [0x43] SEND_EVENT_UPDATE: Send pending tag to server (packet 0x005B)
 11: 0x0E78 [0x43] SEND_EVENT_UPDATE: Check pending flag (skip if not pending)
 12: 0x0E7A [0x03] Work_Zone[1] = 3*
 13: 0x0E7F [0x43] SEND_EVENT_UPDATE: Send pending tag to server (packet 0x005B)
 14: 0x0E81 [0x43] SEND_EVENT_UPDATE: Check pending flag (skip if not pending)
 15: 0x0E83 [0x1A] CALL_SUBROUTINE(address=0x21E2)
 16: 0x0E86 [0x02] IF !(ExtData[1]->WorkLocal[30] == 1*) GOTO 0x0FFE
 17: 0x0E8E [0x45] LOAD_SCHEDULED_TASK: Load scheduler "fdo1" with entities [LocalPlayer, LocalPlayer], work=[200*, 0*]
 18: 0x0E9F [0x55] WAIT_LOAD_SCHEDULER: Wait for scheduler "fdo1" with entities [LocalPlayer, LocalPlayer], work=200*
 19: 0x0EAE [0x03] Work_Zone[1] = 4*
 20: 0x0EB3 [0x02] IF !(ExtData[1]->WorkLocal[32] == 180*) GOTO 0x0F3D
 21: 0x0EBB [0x02] IF !(ExtData[1]->WorkLocal[33] == 0*) GOTO 0x0ED2
 22: 0x0EC3 [0x47] UPDATE_PLAYER_POS(-605.141*, 479.929*, -22.681*, yaw=87.2°*)
 23: 0x0ECD [0x47] WAIT_PLAYER_POS_UPDATE
 24: 0x0ECF [0x01] GOTO 0x0F3A
 25: 0x0ED2 [0x02] IF !(ExtData[1]->WorkLocal[33] == 1*) GOTO 0x0EE9
 26: 0x0EDA [0x47] UPDATE_PLAYER_POS(-262.589*, 377.857*, -137.313*, yaw=305.3°*)
 27: 0x0EE4 [0x47] WAIT_PLAYER_POS_UPDATE
 28: 0x0EE6 [0x01] GOTO 0x0F3A
 29: 0x0EE9 [0x02] IF !(ExtData[1]->WorkLocal[33] == 2*) GOTO 0x0F00
 30: 0x0EF1 [0x47] UPDATE_PLAYER_POS(18.348*, 486.940*, -224.334*, yaw=17.1°*)
 31: 0x0EFB [0x47] WAIT_PLAYER_POS_UPDATE
 32: 0x0EFD [0x01] GOTO 0x0F3A
 33: 0x0F00 [0x02] IF !(ExtData[1]->WorkLocal[33] == 3*) GOTO 0x0F17
 34: 0x0F08 [0x47] UPDATE_PLAYER_POS(231.593*, 360.094*, -173.572*, yaw=160.8°*)
 35: 0x0F12 [0x47] WAIT_PLAYER_POS_UPDATE
 36: 0x0F14 [0x01] GOTO 0x0F3A
 37: 0x0F17 [0x02] IF !(ExtData[1]->WorkLocal[33] == 4*) GOTO 0x0F2E
 38: 0x0F1F [0x47] UPDATE_PLAYER_POS(553.664*, 523.939*, -38.205*, yaw=233.9°*)
 39: 0x0F29 [0x47] WAIT_PLAYER_POS_UPDATE
 40: 0x0F2B [0x01] GOTO 0x0F3A
 41: 0x0F2E [0x47] UPDATE_PLAYER_POS(-604.253*, -99.932*, 9.948*, yaw=180.0°*)
 42: 0x0F38 [0x47] WAIT_PLAYER_POS_UPDATE

SUBROUTINE_0F3A:
 43: 0x0F3A [0x01] GOTO 0x0FBC
 44: 0x0F3D [0x02] IF !(ExtData[1]->WorkLocal[32] == 6*) GOTO 0x0FB0
 45: 0x0F45 [0x02] IF !(ExtData[1]->WorkLocal[31] == 1*) GOTO 0x0F5C
 46: 0x0F4D [0x47] UPDATE_PLAYER_POS(-875.117*, -43.892*, -48.084*, yaw=45.1°*)
 47: 0x0F57 [0x47] WAIT_PLAYER_POS_UPDATE
 48: 0x0F59 [0x01] GOTO 0x0FAD
 49: 0x0F5C [0x02] IF !(ExtData[1]->WorkLocal[31] == 2*) GOTO 0x0F73
 50: 0x0F64 [0x47] UPDATE_PLAYER_POS(-755.499*, 563.947*, -112.035*, yaw=313.5°*)
 51: 0x0F6E [0x47] WAIT_PLAYER_POS_UPDATE
 52: 0x0F70 [0x01] GOTO 0x0FAD
 53: 0x0F73 [0x02] IF !(ExtData[1]->WorkLocal[31] == 3*) GOTO 0x0F8A
 54: 0x0F7B [0x47] UPDATE_PLAYER_POS(123.251*, 754.209*, -172.124*, yaw=38.7°*)
 55: 0x0F85 [0x47] WAIT_PLAYER_POS_UPDATE
 56: 0x0F87 [0x01] GOTO 0x0FAD
 57: 0x0F8A [0x02] IF !(ExtData[1]->WorkLocal[31] == 4*) GOTO 0x0FA1
 58: 0x0F92 [0x47] UPDATE_PLAYER_POS(-516.404*, -803.323*, 24.206*, yaw=38.4°*)
 59: 0x0F9C [0x47] WAIT_PLAYER_POS_UPDATE
 60: 0x0F9E [0x01] GOTO 0x0FAD
 61: 0x0FA1 [0x47] UPDATE_PLAYER_POS(-604.253*, -99.932*, 9.948*, yaw=180.0°*)
 62: 0x0FAB [0x47] WAIT_PLAYER_POS_UPDATE

SUBROUTINE_0FAD:
 63: 0x0FAD [0x01] GOTO 0x0FBC
 64: 0x0FB0 [0x47] UPDATE_PLAYER_POS(-604.253*, -99.932*, 9.948*, yaw=180.0°*)
 65: 0x0FBA [0x47] WAIT_PLAYER_POS_UPDATE

SUBROUTINE_0FBC:
 66: 0x0FBC [0x38] SET_CLIENT_EVENT_MODE(mode=19*)
 67: 0x0FBF [0x79] LocalPlayer looks at LocalPlayer (Basic look)
 68: 0x0FC9 [0x1A] CALL_SUBROUTINE(address=0x21E6)
 69: 0x0FCC [0x45] LOAD_SCHEDULED_TASK: Load scheduler "whi1" with entities [LocalPlayer, LocalPlayer], work=[201*, 0*]
 70: 0x0FDD [0x45] LOAD_SCHEDULED_TASK: Load scheduler "blof" with entities [LocalPlayer, LocalPlayer], work=[200*, 0*]
 71: 0x0FEE [0x5C] MUSIC_CONTROL: Set Idle (Day) music to song 0*
 72: 0x0FF2 [0x5C] MUSIC_CONTROL: Set Idle (Night) music to song 0*
 73: 0x0FF6 [0x5C] MUSIC_CONTROL: Set Combat (Solo) music to song 143*
 74: 0x0FFA [0x5C] MUSIC_CONTROL: Set Combat (Party) music to song 143*
 75: 0x0FFE [0x21] END_EVENT
 76: 0x0FFF [0x00] END_REQSTACK()
```

### Event 32004

#### Metadata

| Field        | Value      |
|--------------|------------|
| Entrypoint   | 0x1000     |
| Data Size    | 5018 bytes |
| Instructions | 2          |

```
      00 01 02 03 04 05 06 07  08 09 0A 0B 0C 0D 0E 0F
      -- -- -- -- -- -- -- --  -- -- -- -- -- -- -- --
1000: 21 00 24 0C 80 05 80 00  80 25 02 00 10 00 80 00  !.$......%......
1010: 18 10 05 01 00 01 18 10  1B 02 03 00 03 80 80 24  ...............$
1020: 10 01 F6 16 02 03 00 0A  80 80 46 12 79 00 F0 FF  ..........F.y...
1030: FF 7F F0 FF FF 7F 42 46  01 38 0F 80 92 01 5E 00  ......BF.8....^.
1040: 04 01 92 01 5F 00 04 01  4E 00 5E 00 04 01 4E 00  ...._...N.^...N.
1050: 5F 00 04 01 80 5E 00 04  01 80 5F 00 04 01 37 92  _....^...._...7.
1060: 80 93 80 94 80 00 80 1C  05 80 45 95 80 F0 FF FF  ..........E.....
1070: 7F F0 FF FF 7F 7A 36 34  61 00 80 45 0E 80 F0 FF  .....z64a..E....
1080: FF 7F F0 FF FF 7F 66 64  69 31 00 80 27 03 52 00  ......fdi1..'.R.
1090: 04 01 02 1C 2E 80 32 1D  80 27 04 52 00 04 01 04  ......2..'.R....
10A0: 1F 00 96 80 97 80 98 80  1F 01 27 05 52 00 04 01  ..........'.R...
10B0: 03 45 0E 80 F0 FF FF 7F  F0 FF FF 7F 66 64 6F 31  .E..........fdo1
10C0: 00 80 55 0E 80 F0 FF FF  7F F0 FF FF 7F 66 64 6F  ..U..........fdo
10D0: 31 52 95 80 F0 FF FF 7F  F0 FF FF 7F 7A 36 34 61  1R..........z64a
10E0: 45 99 80 F8 FF FF 7F F8  FF FF 7F 73 38 35 30 00  E..........s850.
10F0: 80 45 0E 80 F0 FF FF 7F  F0 FF FF 7F 66 64 69 31  .E..........fdi1
1100: 00 80 55 0E 80 F0 FF FF  7F F0 FF FF 7F 66 64 69  ..U..........fdi
1110: 31 2B 5E 00 04 01 9A 80  23 2B 5E 00 04 01 9B 80  1+^.....#+^.....
1120: 23 2B 5E 00 04 01 9C 80  23 52 99 80 F8 FF FF 7F  #+^.....#R......
1130: F8 FF FF 7F 73 38 35 30  45 0E 80 F8 FF FF 7F F8  ....s850E.......
1140: FF FF 7F 62 6C 6F 6E 2E  80 45 99 80 F8 FF FF 7F  ...blon..E......
1150: F8 FF FF 7F 73 38 35 31  00 80 2B 5E 00 04 01 9D  ....s851..+^....
1160: 80 23 55 99 80 F8 FF FF  7F F8 FF FF 7F 73 38 35  .#U..........s85
1170: 31 1C 2A 80 45 0E 80 F8  FF FF 7F F8 FF FF 7F 62  1.*.E..........b
1180: 6C 6F 66 00 80 45 0E 80  F0 FF FF 7F F0 FF FF 7F  lof..E..........
1190: 66 64 6F 31 00 80 55 0E  80 F0 FF FF 7F F0 FF FF  fdo1..U.........
11A0: 7F 66 64 6F 31 78 02 00  00 05 80 80 BA 11 37 9E  .fdo1x........7.
11B0: 80 9F 80 A0 80 A1 80 01  F6 11 02 00 00 09 80 80  ................
11C0: CE 11 37 A2 80 A3 80 A4  80 23 80 01 F6 11 02 00  ..7......#......
11D0: 00 0A 80 80 E2 11 37 A5  80 A6 80 A7 80 A8 80 01  ......7.........
11E0: F6 11 02 00 00 0B 80 80  F6 11 37 00 80 00 80 00  ..........7.....
11F0: 80 00 80 01 F6 11 6C F0  FF FF 7F 60 80 05 80 1C  ......l....`....
1200: 05 80 45 95 80 F0 FF FF  7F F0 FF FF 7F 7A 36 34  ..E..........z64
1210: 61 00 80 1C 05 80 6C F0  FF FF 7F 00 80 05 80 62  a.....l........b
1220: 09 80 F0 FF FF 7F F0 FF  FF 7F 6D 61 69 6E 00 80  ..........main..
1230: 46 00 45 0E 80 F0 FF FF  7F F0 FF FF 7F 66 64 69  F.E..........fdi
1240: 31 00 80 01 F6 16 02 03  00 0B 80 80 D8 15 42 45  1.............BE
1250: 0E 80 F0 FF FF 7F F0 FF  FF 7F 66 64 6F 31 00 80  ..........fdo1..
1260: 55 0E 80 F0 FF FF 7F F0  FF FF 7F 66 64 6F 31 46  U..........fdo1F
1270: 01 38 0F 80 27 10 62 00  04 01 05 27 10 67 00 04  .8..'.b....'.g..
1280: 01 05 2F 00 64 00 04 01  4E 00 64 00 04 01 2F 00  ../.d...N.d.../.
1290: 65 00 04 01 4E 00 65 00  04 01 92 01 62 00 04 01  e...N.e.....b...
12A0: 92 01 64 00 04 01 92 01  65 00 04 01 92 01 67 00  ..d.....e.....g.
12B0: 04 01 94 01 64 00 04 01  94 01 65 00 04 01 94 01  ....d.....e.....
12C0: 62 00 04 01 94 01 67 00  04 01 27 05 67 00 04 01  b.....g...'.g...
12D0: 07 27 05 64 00 04 01 0A  27 05 65 00 04 01 0C 27  .'.d....'.e....'
12E0: 05 F0 FF FF 7F 0D 27 05  62 00 04 01 09 80 64 00  ......'.b.....d.
12F0: 04 01 80 65 00 04 01 80  62 00 04 01 80 67 00 04  ...e....b....g..
1300: 01 80 F0 FF FF 7F 5B A9  80 67 00 04 01 67 00 04  ......[..g...g..
1310: 01 6D 35 30 30 4A 64 00  04 01 67 00 04 01 4A 65  .m500Jd...g...Je
1320: 00 04 01 67 00 04 01 4A  F0 FF FF 7F 67 00 04 01  ...g...J....g...
1330: 4A 62 00 04 01 64 00 04  01 45 AA 80 F0 FF FF 7F  Jb...d...E......
1340: F0 FF FF 7F 73 31 30 32  00 80 1C 01 80 45 0E 80  ....s102.....E..
1350: F0 FF FF 7F F0 FF FF 7F  66 64 69 31 00 80 55 0E  ........fdi1..U.
1360: 80 F0 FF FF 7F F0 FF FF  7F 66 64 69 31 5B A9 80  .........fdi1[..
1370: 67 00 04 01 67 00 04 01  6D 35 30 31 1C AB 80 52  g...g...m501...R
1380: AA 80 F0 FF FF 7F F0 FF  FF 7F 73 31 30 32 45 AA  ..........s102E.
1390: 80 F0 FF FF 7F F0 FF FF  7F 73 31 30 33 00 80 BB  .........s103...
13A0: 12 80 67 00 04 01 67 00  04 01 6D 61 69 6E 00 80  ..g...g...main..
13B0: 5B A9 80 67 00 04 01 67  00 04 01 6D 35 30 32 1C  [..g...g...m502.
13C0: AC 80 9F AD 80 F8 FF FF  7F F8 FF FF 7F 73 74 72  .............str
13D0: 30 00 80 1C AC 80 9F AD  80 F8 FF FF 7F F8 FF FF  0...............
13E0: 7F 6B 69 6C 6C 00 80 52  AA 80 F0 FF FF 7F F0 FF  .kill..R........
13F0: FF 7F 73 31 30 33 45 AA  80 F0 FF FF 7F F0 FF FF  ..s103E.........
1400: 7F 73 31 32 39 00 80 1C  2A 80 66 AE 80 64 00 04  .s129...*.f..d..
1410: 01 64 00 04 01 64 69 73  30 2B 64 00 04 01 AF 80  .d...dis0+d.....
1420: 23 2B 64 00 04 01 B0 80  23 52 AA 80 F0 FF FF 7F  #+d.....#R......
1430: F0 FF FF 7F 73 31 32 39  45 AA 80 F0 FF FF 7F F0  ....s129E.......
1440: FF FF 7F 73 31 33 31 00  80 29 05 67 00 04 01 08  ...s131..).g....
1450: 55 AA 80 F0 FF FF 7F F0  FF FF 7F 73 31 33 31 45  U..........s131E
1460: AA 80 F0 FF FF 7F F0 FF  FF 7F 73 31 33 32 00 80  ..........s132..
1470: BB 12 80 67 00 04 01 67  00 04 01 6D 61 69 6E 00  ...g...g...main.
1480: 80 5B A9 80 67 00 04 01  67 00 04 01 6D 35 30 32  .[..g...g...m502
1490: 1C AC 80 9F AD 80 F8 FF  FF 7F F8 FF FF 7F 73 74  ..............st
14A0: 72 30 00 80 1C AC 80 45  0E 80 F0 FF FF 7F F0 FF  r0.....E........
14B0: FF 7F 66 64 6F 31 00 80  55 0E 80 F0 FF FF 7F F0  ..fdo1..U.......
14C0: FF FF 7F 66 64 6F 31 9F  AD 80 F8 FF FF 7F F8 FF  ...fdo1.........
14D0: FF 7F 6B 69 6C 6C 00 80  52 AA 80 F0 FF FF 7F F0  ..kill..R.......
14E0: FF FF 7F 73 31 33 32 4E  01 64 00 04 01 2F 01 64  ...s132N.d.../.d
14F0: 00 04 01 4E 01 65 00 04  01 2F 01 65 00 04 01 4E  ...N.e.../.e...N
1500: 01 62 00 04 01 2F 01 62  00 04 01 4E 01 67 00 04  .b.../.b...N.g..
1510: 01 2F 01 67 00 04 01 45  0E 80 F0 FF FF 7F F0 FF  ./.g...E........
1520: FF 7F 66 64 6F 31 00 80  55 0E 80 F0 FF FF 7F F0  ..fdo1..U.......
1530: FF FF 7F 66 64 6F 31 78  02 00 00 05 80 80 4C 15  ...fdo1x......L.
1540: 37 9E 80 9F 80 A0 80 A1  80 01 88 15 02 00 00 09  7...............
1550: 80 80 60 15 37 A2 80 A3  80 A4 80 23 80 01 88 15  ..`.7......#....
1560: 02 00 00 0A 80 80 74 15  37 A5 80 A6 80 A7 80 A8  ......t.7.......
1570: 80 01 88 15 02 00 00 0B  80 80 88 15 37 00 80 00  ............7...
1580: 80 00 80 00 80 01 88 15  6C F0 FF FF 7F 60 80 05  ........l....`..
1590: 80 1C 05 80 45 95 80 F0  FF FF 7F F0 FF FF 7F 7A  ....E..........z
15A0: 36 34 61 00 80 1C 05 80  6C F0 FF FF 7F 00 80 05  64a.....l.......
15B0: 80 62 09 80 F0 FF FF 7F  F0 FF FF 7F 6D 61 69 6E  .b..........main
15C0: 00 80 46 00 45 0E 80 F0  FF FF 7F F0 FF FF 7F 66  ..F.E..........f
15D0: 64 69 31 00 80 01 F6 16  79 00 F0 FF FF 7F F0 FF  di1.....y.......
15E0: FF 7F 42 46 01 37 92 80  93 80 94 80 00 80 1C 05  ..BF.7..........
15F0: 80 45 95 80 F0 FF FF 7F  F0 FF FF 7F 7A 36 34 61  .E..........z64a
1600: 00 80 45 0E 80 F0 FF FF  7F F0 FF FF 7F 66 64 69  ..E..........fdi
1610: 31 00 80 27 03 52 00 04  01 02 1C 2E 80 32 1D 80  1..'.R.......2..
1620: 27 04 52 00 04 01 04 1F  00 96 80 97 80 98 80 1F  '.R.............
1630: 01 27 05 52 00 04 01 03  45 0E 80 F0 FF FF 7F F0  .'.R....E.......
1640: FF FF 7F 66 64 6F 31 00  80 55 0E 80 F0 FF FF 7F  ...fdo1..U......
1650: F0 FF FF 7F 66 64 6F 31  78 02 00 00 05 80 80 6D  ....fdo1x......m
1660: 16 37 9E 80 9F 80 A0 80  A1 80 01 A9 16 02 00 00  .7..............
1670: 09 80 80 81 16 37 A2 80  A3 80 A4 80 23 80 01 A9  .....7......#...
1680: 16 02 00 00 0A 80 80 95  16 37 A5 80 A6 80 A7 80  .........7......
1690: A8 80 01 A9 16 02 00 00  0B 80 80 A9 16 37 00 80  .............7..
16A0: 00 80 00 80 00 80 01 A9  16 6C F0 FF FF 7F 60 80  .........l....`.
16B0: 05 80 1C 05 80 45 95 80  F0 FF FF 7F F0 FF FF 7F  .....E..........
16C0: 7A 36 34 61 00 80 1C 05  80 6C F0 FF FF 7F 00 80  z64a.....l......
16D0: 05 80 62 09 80 F0 FF FF  7F F0 FF FF 7F 6D 61 69  ..b..........mai
16E0: 6E 00 80 46 00 45 0E 80  F0 FF FF 7F F0 FF FF 7F  n..F.E..........
16F0: 66 64 69 31 00 80 1B 02  19 00 03 80 80 02 17 01  fdi1............
1700: CA 21 02 19 00 0A 80 80  E7 18 42 46 01 45 0E 80  .!........BF.E..
1710: F0 FF FF 7F F0 FF FF 7F  66 64 6F 32 00 80 55 0E  ........fdo2..U.
1720: 80 F0 FF FF 7F F0 FF FF  7F 66 64 6F 32 27 0A F0  .........fdo2'..
1730: FF FF 7F 07 92 01 5E 00  04 01 92 01 5F 00 04 01  ......^....._...
1740: 4E 00 5E 00 04 01 4E 00  5F 00 04 01 80 5E 00 04  N.^...N._....^..
1750: 01 80 5F 00 04 01 5C 00  00 80 5C 01 00 80 45 99  .._...\...\...E.
1760: 80 F8 FF FF 7F F8 FF FF  7F 73 38 35 32 00 80 45  .........s852..E
1770: 0E 80 F0 FF FF 7F F0 FF  FF 7F 66 64 69 31 00 80  ..........fdi1..
1780: 55 0E 80 F0 FF FF 7F F0  FF FF 7F 66 64 69 31 1C  U..........fdi1.
1790: B1 80 2B 5E 00 04 01 B2  80 23 2B 5E 00 04 01 B3  ..+^.....#+^....
17A0: 80 23 52 99 80 F8 FF FF  7F F8 FF FF 7F 73 38 35  .#R..........s85
17B0: 32 45 99 80 F8 FF FF 7F  F8 FF FF 7F 73 38 35 33  2E..........s853
17C0: 00 80 2B 5E 00 04 01 B4  80 23 52 99 80 F8 FF FF  ..+^.....#R.....
17D0: 7F F8 FF FF 7F 73 38 35  33 66 29 80 5E 00 04 01  .....s853f).^...
17E0: 5E 00 04 01 74 68 6B 31  45 99 80 F8 FF FF 7F F8  ^...thk1E.......
17F0: FF FF 7F 73 38 35 35 00  80 2B 5E 00 04 01 B5 80  ...s855..+^.....
1800: 23 55 99 80 F8 FF FF 7F  F8 FF FF 7F 73 38 35 35  #U..........s855
1810: 45 99 80 F8 FF FF 7F F8  FF FF 7F 73 38 35 36 00  E..........s856.
1820: 80 66 29 80 5E 00 04 01  5E 00 04 01 74 68 6B 32  .f).^...^...thk2
1830: 2B 5E 00 04 01 B6 80 23  45 99 80 F8 FF FF 7F F8  +^.....#E.......
1840: FF FF 7F 73 38 35 34 00  80 2B 5E 00 04 01 B7 80  ...s854..+^.....
1850: 23 2B 5E 00 04 01 B8 80  23 45 0E 80 F0 FF FF 7F  #+^.....#E......
1860: F0 FF FF 7F 66 64 6F 32  00 80 55 0E 80 F0 FF FF  ....fdo2..U.....
1870: 7F F0 FF FF 7F 66 64 6F  32 52 99 80 F8 FF FF 7F  .....fdo2R......
1880: F8 FF FF 7F 73 38 35 34  92 01 F0 FF FF 7F 37 75  ....s854......7u
1890: 80 76 80 77 80 4E 80 1A  DE 22 1C 1B 80 45 0E 80  .v.w.N..."...E..
18A0: F0 FF FF 7F F0 FF FF 7F  66 64 69 31 00 80 55 0E  ........fdi1..U.
18B0: 80 F0 FF FF 7F F0 FF FF  7F 66 64 69 31 62 09 80  .........fdi1b..
18C0: F0 FF FF 7F F0 FF FF 7F  6D 61 69 6E 00 80 1C AC  ........main....
18D0: 80 46 00 45 35 80 F8 FF  FF 7F F8 FF FF 7F 71 73  .F.E5.........qs
18E0: 74 63 00 80 01 CA 21 02  19 00 0B 80 80 5D 21 42  tc....!......]!B
18F0: 9F AD 80 F8 FF FF 7F F8  FF FF 7F 6B 69 6C 6C 00  ...........kill.
1900: 80 5D 00 80 AC 80 45 0E  80 F0 FF FF 7F F0 FF FF  .]....E.........
1910: 7F 66 64 6F 31 00 80 55  0E 80 F0 FF FF 7F F0 FF  .fdo1..U........
1920: FF 7F 66 64 6F 31 46 01  38 0F 80 27 10 62 00 04  ..fdo1F.8..'.b..
1930: 01 05 27 10 66 00 04 01  05 2F 00 64 00 04 01 4E  ..'.f..../.d...N
1940: 00 64 00 04 01 2F 00 65  00 04 01 4E 00 65 00 04  .d.../.e...N.e..
1950: 01 2F 00 6A 00 04 01 4E  00 6A 00 04 01 92 01 62  ./.j...N.j.....b
1960: 00 04 01 92 01 64 00 04  01 92 01 65 00 04 01 92  .....d.....e....
1970: 01 66 00 04 01 94 01 64  00 04 01 94 01 65 00 04  .f.....d.....e..
1980: 01 94 01 62 00 04 01 94  01 66 00 04 01 27 05 64  ...b.....f...'.d
1990: 00 04 01 0B 27 05 65 00  04 01 0D 27 05 F0 FF FF  ....'.e....'....
19A0: 7F 0E 27 05 66 00 04 01  0A 27 05 62 00 04 01 0A  ..'.f....'.b....
19B0: 27 05 6A 00 04 01 04 80  66 00 04 01 80 64 00 04  '.j.....f....d..
19C0: 01 80 65 00 04 01 80 62  00 04 01 80 F0 FF FF 7F  ..e....b........
19D0: 80 6A 00 04 01 4A 66 00  04 01 64 00 04 01 4A 65  .j...Jf...d...Je
19E0: 00 04 01 64 00 04 01 4A  F0 FF FF 7F 64 00 04 01  ...d...J....d...
19F0: 1C 2A 80 5B B9 80 66 00  04 01 66 00 04 01 73 74  .*.[..f...f...st
1A00: 64 30 45 AA 80 F0 FF FF  7F F0 FF FF 7F 73 31 33  d0E..........s13
1A10: 30 00 80 1C 01 80 45 0E  80 F0 FF FF 7F F0 FF FF  0.....E.........
1A20: 7F 66 64 69 31 00 80 55  0E 80 F0 FF FF 7F F0 FF  .fdi1..U........
1A30: FF 7F 66 64 69 31 1C AB  80 5C 00 BA 80 5C 01 BA  ..fdi1...\...\..
1A40: 80 9A 52 AA 80 F0 FF FF  7F F0 FF FF 7F 73 31 33  ..R..........s13
1A50: 30 45 AA 80 F0 FF FF 7F  F0 FF FF 7F 73 31 37 38  0E..........s178
1A60: 00 80 66 BB 80 64 00 04  01 64 00 04 01 6F 68 68  ..f..d...d...ohh
1A70: 30 27 05 65 00 04 01 0E  1C AB 80 52 AA 80 F0 FF  0'.e.......R....
1A80: FF 7F F0 FF FF 7F 73 31  37 38 45 AA 80 F0 FF FF  ......s178E.....
1A90: 7F F0 FF FF 7F 73 31 37  39 00 80 1C 2E 80 2B 65  .....s179.....+e
1AA0: 00 04 01 BC 80 23 66 BB  80 64 00 04 01 64 00 04  .....#f..d...d..
1AB0: 01 6F 68 68 31 1C 2E 80  4A F0 FF FF 7F 64 00 04  .ohh1...J....d..
1AC0: 01 4A 64 00 04 01 65 00  04 01 1C 2E 80 2A 05 65  .Jd...e......*.e
1AD0: 00 04 01 52 AA 80 F0 FF  FF 7F F0 FF FF 7F 73 31  ...R..........s1
1AE0: 37 39 45 AA 80 F0 FF FF  7F F0 FF FF 7F 73 31 38  79E..........s18
1AF0: 30 00 80 5B BD 80 65 00  04 01 65 00 04 01 74 6C  0..[..e...e...tl
1B00: 61 30 2B 65 00 04 01 BE  80 23 2B 65 00 04 01 BF  a0+e.....#+e....
1B10: 80 23 5B BD 80 65 00 04  01 65 00 04 01 74 6C 61  .#[..e...e...tla
1B20: 31 52 AA 80 F0 FF FF 7F  F0 FF FF 7F 73 31 38 30  1R..........s180
1B30: 45 AA 80 F0 FF FF 7F F0  FF FF 7F 73 31 38 31 00  E..........s181.
1B40: 80 1C 2E 80 27 0A 65 00  04 01 0F 2B 65 00 04 01  ....'.e....+e...
1B50: C0 80 23 52 AA 80 F0 FF  FF 7F F0 FF FF 7F 73 31  ..#R..........s1
1B60: 38 31 45 AA 80 F0 FF FF  7F F0 FF FF 7F 73 31 38  81E..........s18
1B70: 33 00 80 5B C1 80 62 00  04 01 62 00 04 01 62 69  3..[..b...b...bi
1B80: 6B 30 2B 62 00 04 01 C2  80 23 52 AA 80 F0 FF FF  k0+b.....#R.....
1B90: 7F F0 FF FF 7F 73 31 38  33 45 AA 80 F0 FF FF 7F  .....s183E......
1BA0: F0 FF FF 7F 73 31 38 32  00 80 5B C1 80 62 00 04  ....s182..[..b..
1BB0: 01 62 00 04 01 62 69 6B  31 2B 64 00 04 01 C3 80  .b...bik1+d.....
1BC0: 23 27 05 65 00 04 01 10  2A 0A 65 00 04 01 4A 64  #'.e....*.e...Jd
1BD0: 00 04 01 65 00 04 01 1C  2A 80 66 AE 80 64 00 04  ...e....*.f..d..
1BE0: 01 64 00 04 01 64 69 73  30 2B 64 00 04 01 C4 80  .d...dis0+d.....
1BF0: 23 52 AA 80 F0 FF FF 7F  F0 FF FF 7F 73 31 38 32  #R..........s182
1C00: 45 AA 80 F0 FF FF 7F F0  FF FF 7F 73 31 38 34 00  E..........s184.
1C10: 80 5B BD 80 65 00 04 01  65 00 04 01 74 6C 61 30  .[..e...e...tla0
1C20: 2B 65 00 04 01 C5 80 23  5B BD 80 65 00 04 01 65  +e.....#[..e...e
1C30: 00 04 01 74 6C 61 31 66  AE 80 64 00 04 01 64 00  ...tla1f..d...d.
1C40: 04 01 64 69 73 30 2B 64  00 04 01 C6 80 23 52 AA  ..dis0+d.....#R.
1C50: 80 F0 FF FF 7F F0 FF FF  7F 73 31 38 34 45 AA 80  .........s184E..
1C60: F0 FF FF 7F F0 FF FF 7F  73 31 38 35 00 80 66 BB  ........s185..f.
1C70: 80 64 00 04 01 64 00 04  01 6F 68 68 30 2B 64 00  .d...d...ohh0+d.
1C80: 04 01 C7 80 23 2B 64 00  04 01 C8 80 23 52 AA 80  ....#+d.....#R..
1C90: F0 FF FF 7F F0 FF FF 7F  73 31 38 35 45 AA 80 F0  ........s185E...
1CA0: FF FF 7F F0 FF FF 7F 73  31 38 36 00 80 2B 64 00  .......s186..+d.
1CB0: 04 01 C9 80 23 52 AA 80  F0 FF FF 7F F0 FF FF 7F  ....#R..........
1CC0: 73 31 38 36 45 AA 80 F0  FF FF 7F F0 FF FF 7F 73  s186E..........s
1CD0: 31 38 37 00 80 6B 69 64  6C 30 64 00 04 01 2B 65  187..kidl0d...+e
1CE0: 00 04 01 CA 80 23 52 AA  80 F0 FF FF 7F F0 FF FF  .....#R.........
1CF0: 7F 73 31 38 37 45 AA 80  F0 FF FF 7F F0 FF FF 7F  .s187E..........
1D00: 73 31 38 38 00 80 66 AE  80 64 00 04 01 64 00 04  s188..f..d...d..
1D10: 01 64 69 73 30 2B 64 00  04 01 CB 80 23 2B 65 00  .dis0+d.....#+e.
1D20: 04 01 CC 80 23 52 AA 80  F0 FF FF 7F F0 FF FF 7F  ....#R..........
1D30: 73 31 38 38 45 AA 80 F0  FF FF 7F F0 FF FF 7F 73  s188E..........s
1D40: 31 38 39 00 80 2B 64 00  04 01 CD 80 23 4A 62 00  189..+d.....#Jb.
1D50: 04 01 6A 00 04 01 52 AA  80 F0 FF FF 7F F0 FF FF  ..j...R.........
1D60: 7F 73 31 38 39 45 AA 80  F0 FF FF 7F F0 FF FF 7F  .s189E..........
1D70: 73 31 39 30 00 80 2B 64  00 04 01 CE 80 23 1C CF  s190..+d.....#..
1D80: 80 52 AA 80 F0 FF FF 7F  F0 FF FF 7F 73 31 39 30  .R..........s190
1D90: 45 AA 80 F0 FF FF 7F F0  FF FF 7F 73 31 39 31 00  E..........s191.
1DA0: 80 2B 64 00 04 01 D0 80  23 1C CF 80 52 AA 80 F0  .+d.....#...R...
1DB0: FF FF 7F F0 FF FF 7F 73  31 39 31 45 AA 80 F0 FF  .......s191E....
1DC0: FF 7F F0 FF FF 7F 73 31  39 32 00 80 2B 64 00 04  ......s192..+d..
1DD0: 01 D1 80 23 1C 2A 80 73  D2 80 66 00 04 01 6A 00  ...#.*.s..f...j.
1DE0: 04 01 1C 2E 80 52 AA 80  F0 FF FF 7F F0 FF FF 7F  .....R..........
1DF0: 73 31 39 32 45 AA 80 F0  FF FF 7F F0 FF FF 7F 73  s192E..........s
1E00: 31 39 33 00 80 4A 65 00  04 01 6A 00 04 01 4A F0  193..Je...j...J.
1E10: FF FF 7F 6A 00 04 01 27  05 6A 00 04 01 05 2B 65  ...j...'.j....+e
1E20: 00 04 01 D3 80 23 4A 64  00 04 01 62 00 04 01 2A  .....#Jd...b...*
1E30: 05 6A 00 04 01 52 AA 80  F0 FF FF 7F F0 FF FF 7F  .j...R..........
1E40: 73 31 39 33 45 AA 80 F0  FF FF 7F F0 FF FF 7F 73  s193E..........s
1E50: 31 39 34 00 80 2B 64 00  04 01 D4 80 23 66 BB 80  194..+d.....#f..
1E60: 64 00 04 01 64 00 04 01  6F 68 68 30 52 AA 80 F0  d...d...ohh0R...
1E70: FF FF 7F F0 FF FF 7F 73  31 39 34 45 AA 80 F0 FF  .......s194E....
1E80: FF 7F F0 FF FF 7F 73 31  39 35 00 80 2B 64 00 04  ......s195..+d..
1E90: 01 D5 80 23 55 AA 80 F0  FF FF 7F F0 FF FF 7F 73  ...#U..........s
1EA0: 31 39 35 45 AA 80 F0 FF  FF 7F F0 FF FF 7F 73 31  195E..........s1
1EB0: 39 36 00 80 6B 69 64 6C  30 64 00 04 01 1C CF 80  96..kidl0d......
1EC0: 5B D6 80 62 00 04 01 62  00 04 01 6F 6B 69 30 1C  [..b...b...oki0.
1ED0: AB 80 52 AA 80 F0 FF FF  7F F0 FF FF 7F 73 31 39  ..R..........s19
1EE0: 36 45 AA 80 F0 FF FF 7F  F0 FF FF 7F 73 31 39 37  6E..........s197
1EF0: 00 80 4A 64 00 04 01 F0  FF FF 7F 1C 2A 80 4A 65  ..Jd........*.Je
1F00: 00 04 01 F0 FF FF 7F 2B  64 00 04 01 D7 80 23 4A  .......+d.....#J
1F10: F0 FF FF 7F 64 00 04 01  66 BB 80 64 00 04 01 64  ....d...f..d...d
1F20: 00 04 01 67 6D 6E 30 2B  64 00 04 01 D8 80 23 66  ...gmn0+d.....#f
1F30: BB 80 64 00 04 01 64 00  04 01 67 6D 6E 31 1C 2E  ..d...d...gmn1..
1F40: 80 52 AA 80 F0 FF FF 7F  F0 FF FF 7F 73 31 39 37  .R..........s197
1F50: 45 AA 80 F0 FF FF 7F F0  FF FF 7F 73 31 39 38 00  E..........s198.
1F60: 80 BB 19 80 64 00 04 01  64 00 04 01 65 69 30 30  ....d...d...ei00
1F70: 00 80 66 BB 80 64 00 04  01 64 00 04 01 6F 68 68  ..f..d...d...ohh
1F80: 30 2B 64 00 04 01 D9 80  23 5D 00 80 AC 80 1C 2E  0+d.....#]......
1F90: 80 52 AA 80 F0 FF FF 7F  F0 FF FF 7F 73 31 39 38  .R..........s198
1FA0: 45 AA 80 F0 FF FF 7F F0  FF FF 7F 73 31 39 39 00  E..........s199.
1FB0: 80 BB 19 80 64 00 04 01  64 00 04 01 68 61 74 75  ....d...d...hatu
1FC0: 00 80 1C 2A 80 73 DA 80  66 00 04 01 64 00 04 01  ...*.s..f...d...
1FD0: 73 DA 80 6C 00 04 01 65  00 04 01 1C 36 80 2B 64  s..l...e....6.+d
1FE0: 00 04 01 DB 80 23 5B B9  80 66 00 04 01 66 00 04  .....#[..f...f..
1FF0: 01 73 74 64 30 1C 2E 80  52 AA 80 F0 FF FF 7F F0  .std0...R.......
2000: FF FF 7F 73 31 39 39 45  AA 80 F0 FF FF 7F F0 FF  ...s199E........
2010: FF 7F 73 32 30 30 00 80  1C AB 80 52 AA 80 F0 FF  ..s200.....R....
2020: FF 7F F0 FF FF 7F 73 32  30 30 45 AA 80 F0 FF FF  ......s200E.....
2030: 7F F0 FF FF 7F 73 32 30  31 00 80 2B 66 00 04 01  .....s201..+f...
2040: DC 80 23 2B 66 00 04 01  DD 80 23 52 AA 80 F0 FF  ..#+f.....#R....
2050: FF 7F F0 FF FF 7F 73 32  30 31 45 AA 80 F0 FF FF  ......s201E.....
2060: 7F F0 FF FF 7F 73 32 30  32 00 80 BB 18 80 66 00  .....s202.....f.
2070: 04 01 66 00 04 01 6D 61  69 6E 00 80 1C 36 80 45  ..f...main...6.E
2080: 0E 80 F0 FF FF 7F F0 FF  FF 7F 66 64 6F 31 00 80  ..........fdo1..
2090: 55 0E 80 F0 FF FF 7F F0  FF FF 7F 66 64 6F 31 52  U..........fdo1R
20A0: AA 80 F0 FF FF 7F F0 FF  FF 7F 73 32 30 32 4E 01  ..........s202N.
20B0: 64 00 04 01 2F 01 64 00  04 01 4E 01 65 00 04 01  d.../.d...N.e...
20C0: 2F 01 65 00 04 01 4E 01  62 00 04 01 2F 01 62 00  /.e...N.b.../.b.
20D0: 04 01 4E 01 66 00 04 01  2F 01 66 00 04 01 2F 01  ..N.f.../.f.../.
20E0: 6A 00 04 01 5C 00 00 80  5C 01 00 80 9A 46 01 45  j...\...\....F.E
20F0: 0E 80 F0 FF FF 7F F0 FF  FF 7F 66 64 6F 32 00 80  ..........fdo2..
2100: 55 0E 80 F0 FF FF 7F F0  FF FF 7F 66 64 6F 32 92  U..........fdo2.
2110: 01 F0 FF FF 7F 37 75 80  76 80 77 80 4E 80 1A DE  .....7u.v.w.N...
2120: 22 1C 1B 80 45 0E 80 F0  FF FF 7F F0 FF FF 7F 66  "...E..........f
2130: 64 69 31 00 80 55 0E 80  F0 FF FF 7F F0 FF FF 7F  di1..U..........
2140: 66 64 69 31 62 09 80 F0  FF FF 7F F0 FF FF 7F 6D  fdi1b..........m
2150: 61 69 6E 00 80 1C AC 80  46 00 01 CA 21 46 01 45  ain.....F...!F.E
2160: 0E 80 F0 FF FF 7F F0 FF  FF 7F 66 64 6F 32 00 80  ..........fdo2..
2170: 55 0E 80 F0 FF FF 7F F0  FF FF 7F 66 64 6F 32 92  U..........fdo2.
2180: 01 F0 FF FF 7F 37 75 80  76 80 77 80 4E 80 1A DE  .....7u.v.w.N...
2190: 22 1C 1B 80 45 0E 80 F0  FF FF 7F F0 FF FF 7F 66  "...E..........f
21A0: 64 69 31 00 80 55 0E 80  F0 FF FF 7F F0 FF FF 7F  di1..U..........
21B0: 66 64 69 31 62 09 80 F0  FF FF 7F F0 FF FF 7F 6D  fdi1b..........m
21C0: 61 69 6E 00 80 1C AC 80  46 00 1B 24 DE 80 05 80  ain.....F..$....
21D0: 00 80 25 02 00 10 00 80  00 E1 21 05 1D 00 01 E1  ..%.......!.....
21E0: 21 1B 05 1E 00 1B 46 01  37 DF 80 E0 80 E1 80 4E  !.....F.7......N
21F0: 80 1A 08 23 1C 05 80 45  0E 80 F0 FF FF 7F F0 FF  ...#...E........
2200: FF 7F 66 64 69 31 00 80  27 03 53 00 04 01 02 1C  ..fdi1..'.S.....
2210: 2E 80 32 AE 80 27 04 53  00 04 01 04 1F 00 E2 80  ..2..'.S........
2220: E3 80 E4 80 1F 01 27 05  53 00 04 01 03 45 0E 80  ......'.S....E..
2230: F0 FF FF 7F F0 FF FF 7F  66 64 6F 31 00 80 55 0E  ........fdo1..U.
2240: 80 F0 FF FF 7F F0 FF FF  7F 66 64 6F 31 37 4B 80  .........fdo17K.
2250: 4C 80 4D 80 4E 80 1A DE  22 62 09 80 F0 FF FF 7F  L.M.N..."b......
2260: F0 FF FF 7F 6D 61 69 6E  00 80 46 00 45 0E 80 F0  ....main..F.E...
2270: FF FF 7F F0 FF FF 7F 66  64 69 31 00 80 1B 6C F0  .......fdi1...l.
2280: FF FF 7F 00 80 05 80 46  01 92 01 F0 FF FF 7F 37  .......F.......7
2290: 4B 80 4C 80 4D 80 4E 80  1A DE 22 45 0E 80 F0 FF  K.L.M.N..."E....
22A0: FF 7F F0 FF FF 7F 66 64  69 31 00 80 55 0E 80 F0  ......fdi1..U...
22B0: FF FF 7F F0 FF FF 7F 66  64 69 31 62 09 80 F0 FF  .......fdi1b....
22C0: FF 7F F0 FF FF 7F 6D 61  69 6E 00 80 1C AC 80 46  ......main.....F
22D0: 00 1B 02 03 00 00 80 80  DD 22 01 DD 22 1B 6C F0  ........."..".l.
22E0: FF FF 7F 60 80 05 80 1C  05 80 45 E5 80 F0 FF FF  ...`......E.....
22F0: 7F F0 FF FF 7F 62 61 63  6B 00 80 1C 05 80 6C F0  .....back.....l.
2300: FF FF 7F 00 80 05 80 1B  1C 05 80 45 E5 80 F0 FF  ...........E....
2310: FF 7F F0 FF FF 7F 62 61  63 6B 00 80 1B 02 00 00  ......back......
2320: 05 80 80 3C 23 03 09 00  9E 80 03 0A 00 9F 80 03  ...<#...........
2330: 0B 00 A0 80 03 0C 00 A1  80 01 99 23 02 00 00 09  ...........#....
2340: 80 80 5B 23 03 09 00 A2  80 03 0A 00 A3 80 03 0B  ..[#............
2350: 00 A4 80 03 0C 00 23 80  01 99 23 02 00 00 0A 80  ......#...#.....
2360: 80 7A 23 03 09 00 A5 80  03 0A 00 A6 80 03 0B 00  .z#.............
2370: A7 80 03 0C 00 A8 80 01  99 23 02 00 00 0B 80 80  .........#......
2380: 99 23 03 09 00 00 80 03  0A 00 00 80 03 0B 00 00  .#..............
2390: 80 03 0C 00 00 80 01 99  23 1B                    ........#.      
```

#### Opcodes

```
  0: 0x1000 [0x21] END_EVENT
  1: 0x1001 [0x00] END_REQSTACK()
```

#### Data or dead code:

```
# Dead code (unreachable instructions):
     0x1002 [0x24] CREATE_DIALOG(message_id=7227*, default_option=1*, option_flags=0*)
    → "Enter the battlefield? [Enter./Decline.]"
     0x1009 [0x25] WAIT_DIALOG_SELECT()
     0x100A [0x02] IF !(Work_Zone[0] == 0*) GOTO 0x1018
     0x1012 [0x05] ExtData[1]->WorkLocal[1] = 1
     0x1015 [0x01] GOTO 0x1018
     0x1018 [0x1B] RETURN
     0x1019 [0x02] IF !(ExtData[1]->WorkLocal[3] == 31*) GOTO 0x1024
     0x1021 [0x01] GOTO 0x16F6
     0x1024 [0x02] IF !(ExtData[1]->WorkLocal[3] == 3*) GOTO 0x1246
     0x102C [0x79] LocalPlayer looks at LocalPlayer (Basic look)
     0x1036 [0x42] SET_CLI_EVENT_CANCEL_DATA()
     0x1037 [0x46] CAMERA_CONTROL: Disable user control
     0x1039 [0x38] SET_CLIENT_EVENT_MODE(mode=19*)
     0x103C [0x92] Shamarhaan (ID: 17039454/0x0104005E)->Render.Flags3 ^= 0x01
     0x1042 [0x92] Valkeng (ID: 17039455/0x0104005F)->Render.Flags3 ^= 0x01
     0x1048 [0x4E] SET_ENTITY_HIDE_FLAG: Show Shamarhaan (ID: 17039454/0x0104005E)
     0x104E [0x4E] SET_ENTITY_HIDE_FLAG: Show Valkeng (ID: 17039455/0x0104005F)
     0x1054 [0x80] LOAD_WAIT(entity=Shamarhaan (ID: 17039454/0x0104005E))
     0x1059 [0x80] LOAD_WAIT(entity=Valkeng (ID: 17039455/0x0104005F))
     0x105E [0x37] UPDATE_EVENT_POSITION_AND_DIR: x=-602.086*, z=-99.988*, y=9.999*, direction=0.0°*
     0x1067 [0x1C] WAIT(1* ticks)
     0x106A [0x45] LOAD_SCHEDULED_TASK: Load scheduler "z64a" with entities [LocalPlayer, LocalPlayer], work=[217*, 0*]
     0x107B [0x45] LOAD_SCHEDULED_TASK: Load scheduler "fdi1" with entities [LocalPlayer, LocalPlayer], work=[200*, 0*]
     0x108C [0x27] REQ_SET(priority=0x03, entity_id=Decorative Bronze Gate (ID: 17039442/0x01040052), tag_num=0x02)
     0x1093 [0x1C] WAIT(60* ticks)
     0x1096 [0x32] ExtData[1]->MainSpeed = 13* * 0.1
     0x1099 [0x27] REQ_SET(priority=0x04, entity_id=Decorative Bronze Gate (ID: 17039442/0x01040052), tag_num=0x04)
     0x10A0 [0x1F] MOVE_ENTITY: EventEntity moves to X=-595.859*, Z=-99.979*, Y=9.832*
     0x10A8 [0x1F] MOVE_ENTITY: Update entity position (mode=1)
     0x10AA [0x27] REQ_SET(priority=0x05, entity_id=Decorative Bronze Gate (ID: 17039442/0x01040052), tag_num=0x03)
     0x10B1 [0x45] LOAD_SCHEDULED_TASK: Load scheduler "fdo1" with entities [LocalPlayer, LocalPlayer], work=[200*, 0*]
