# Event 65535

## Metadata

| Field           | Value    |
|-----------------|----------|
| Event Index     | 9/10     |
| Offset          | 0x0133   |
| Data Size       | 73 bytes |
| Calculated Size | 73 bytes |
| Instructions    | 11       |

```
      00 01 02 03 04 05 06 07  08 09 0A 0B 0C 0D 0E 0F
      -- -- -- -- -- -- -- --  -- -- -- -- -- -- -- --
0130:          6C 82 32 07 01  08 80 09 80 6C 83 32 07     l.2......l.2.
0140: 01 08 80 09 80 6C 84 32  07 01 08 80 09 80 6C 86  .....l.2......l.
0150: 32 07 01 08 80 09 80 6C  87 32 07 01 08 80 09 80  2......l.2......
0160: 4A F0 FF FF 7F 81 32 07  01 4A 81 32 07 01 F0 FF  J.....2..J.2....
0170: FF 7F 6F 76 81 32 07 01  1C 0A 80 00              ..ov.2......    
```

## Opcodes

```
  0: 0x0133 [0x6C] FADE_ENTITY_COLOR(entity_id=Tihk Rhumyie (ID: 17248898/0x01073282), end_alpha=0*, fade_time=1*)
  1: 0x013C [0x6C] FADE_ENTITY_COLOR(entity_id=Kuppo-Pippo (ID: 17248899/0x01073283), end_alpha=0*, fade_time=1*)
  2: 0x0145 [0x6C] FADE_ENTITY_COLOR(entity_id=Karanka-Tonka (ID: 17248900/0x01073284), end_alpha=0*, fade_time=1*)
  3: 0x014E [0x6C] FADE_ENTITY_COLOR(entity_id=Cotta-Lotta (ID: 17248902/0x01073286), end_alpha=0*, fade_time=1*)
  4: 0x0157 [0x6C] FADE_ENTITY_COLOR(entity_id=Tacca-Picca (ID: 17248903/0x01073287), end_alpha=0*, fade_time=1*)
  5: 0x0160 [0x4A] LocalPlayer looks at Khoto Rokkorah (ID: 17248897/0x01073281)
  6: 0x0169 [0x4A] Khoto Rokkorah (ID: 17248897/0x01073281) looks at LocalPlayer
  7: 0x0172 [0x6F] WAIT_FRAME_DELAY: Yield until WaitTime reaches zero
  8: 0x0173 [0x76] CHECK_ENTITY_RENDER_FLAGS: Wait until Khoto Rokkorah (ID: 17248897/0x01073281) Render.Flags0 and Render.Flags3 conditions are met
  9: 0x0178 [0x1C] WAIT(120* ticks)
 10: 0x017B [0x00] END_REQSTACK()
```
