# 16904359

## Common Data

| Field            | Value                 |
|------------------|-----------------------|
| Zone             | Monarch Linn (ID: 31) |
| Block Size       | 376 bytes             |
| Total Events     | 8                     |
| References Count | 16                    |

## List of Events

| Event ID                 | Entrypoint   |   Size |   Instructions |
|--------------------------|--------------|--------|----------------|
| [65535](#event-65535)    | 0x0000       |     20 |              5 |
| [32000](#event-32000)    | 0x0014       |      9 |              1 |
| [32001](#event-32001)    | 0x001D       |     10 |              2 |
| [65535.1](#event-655351) | 0x0027       |     26 |              4 |
| [65535.2](#event-655352) | 0x0041       |     67 |             12 |
| [65535.3](#event-655353) | 0x0084       |     67 |             12 |
| [65535.4](#event-655354) | 0x00C7       |     49 |              9 |
| [65535.5](#event-655355) | 0x00F8       |     16 |              2 |

## DAT References (imed_data)

|   Index | Hex Value   |   Dec Value |
|---------|-------------|-------------|
|       0 | 0x0000      |           0 |
|       1 | 0x956A0     |      612000 |
|       2 | 0x96258     |      615000 |
|       3 | 0x88B8      |       35000 |
|       4 | 0xFDE8      |       65000 |
|       5 | 0x0400      |        1024 |
|       6 | 0x0C00      |        3072 |
|       7 | 0x3A98      |       15000 |
|       8 | 0x0010      |          16 |
|       9 | 0x0001      |           1 |
|      10 | 0x1400      |        5120 |
|      11 | 0x0800      |        2048 |
|      12 | 0x927C0     |      600000 |
|      13 | 0x61A80     |      400000 |
|      14 | 0x012C      |         300 |
|      15 | 0x028D      |         653 |

## Events

### Event 65535

#### Metadata

| Field        | Value    |
|--------------|----------|
| Entrypoint   | 0x0000   |
| Data Size    | 20 bytes |
| Instructions | 5        |

```
      00 01 02 03 04 05 06 07  08 09 0A 0B 0C 0D 0E 0F
      -- -- -- -- -- -- -- --  -- -- -- -- -- -- -- --
0000: 94 01 F8 FF FF 7F 33 01  92 01 F8 FF FF 7F 5E 31  ......3.......^1
0010: 74 6C 30 00                                       tl0.            
```

#### Opcodes

```
  0: 0x0000 [0x94] EventEntity->Render.Flags3 ^= 0x01
  1: 0x0006 [0x33] EventEntity->Render.Flags0 |= 0x200000 // Bit 21 (flag=0x01)
  2: 0x0008 [0x92] EventEntity->Render.Flags3 ^= 0x01
  3: 0x000E [0x5E] EventEntity goes idle (kills current action) (animation: "1tl0")
  4: 0x0013 [0x00] END_REQSTACK()
```

### Event 32000

#### Metadata

| Field        | Value   |
|--------------|---------|
| Entrypoint   | 0x0014  |
| Data Size    | 9 bytes |
| Instructions | 1       |

```
      00 01 02 03 04 05 06 07  08 09 0A 0B 0C 0D 0E 0F
      -- -- -- -- -- -- -- --  -- -- -- -- -- -- -- --
0010:             6C F8 FF FF  7F 00 80 00 80               l........   
```

#### Opcodes

```
  0: 0x0014 [0x6C] FADE_ENTITY_COLOR(entity_id=EventEntity, end_alpha=0*, fade_time=0*)
```

### Event 32001

#### Metadata

| Field        | Value    |
|--------------|----------|
| Entrypoint   | 0x001D   |
| Data Size    | 10 bytes |
| Instructions | 2        |

```
      00 01 02 03 04 05 06 07  08 09 0A 0B 0C 0D 0E 0F
      -- -- -- -- -- -- -- --  -- -- -- -- -- -- -- --
0010:                                         37 01 80               7..
0020: 02 80 03 80 00 80 00                              .......         
```

#### Opcodes

```
  0: 0x001D [0x37] UPDATE_EVENT_POSITION_AND_DIR: x=612.000*, z=615.000*, y=35.000*, direction=0.0°*
  1: 0x0026 [0x00] END_REQSTACK()
```

### Event 65535.1

#### Metadata

| Field        | Value    |
|--------------|----------|
| Entrypoint   | 0x0027   |
| Data Size    | 26 bytes |
| Instructions | 4        |

```
      00 01 02 03 04 05 06 07  08 09 0A 0B 0C 0D 0E 0F
      -- -- -- -- -- -- -- --  -- -- -- -- -- -- -- --
0020:                      3B  F8 FF FF 7F 02 00 03 00         ;........
0030: 04 00 03 04 00 04 80 37  02 00 03 00 04 00 00 80  .......7........
0040: 00                                                .               
```

#### Opcodes

```
  0: 0x0027 [0x3B] GET_ENTITY_POSITION(entity=EventEntity, x_destination=ExtData[1]->WorkLocal[2], y_destination=ExtData[1]->WorkLocal[3], z_destination=ExtData[1]->WorkLocal[4])
  1: 0x0032 [0x03] ExtData[1]->WorkLocal[4] = 65000*
  2: 0x0037 [0x37] UPDATE_EVENT_POSITION_AND_DIR: x=ExtData[1]->WorkLocal[2], z=ExtData[1]->WorkLocal[3], y=ExtData[1]->WorkLocal[4], direction=0.0°*
  3: 0x0040 [0x00] END_REQSTACK()
```

### Event 65535.2

#### Metadata

| Field        | Value    |
|--------------|----------|
| Entrypoint   | 0x0041   |
| Data Size    | 67 bytes |
| Instructions | 12       |

```
      00 01 02 03 04 05 06 07  08 09 0A 0B 0C 0D 0E 0F
      -- -- -- -- -- -- -- --  -- -- -- -- -- -- -- --
0040:    3B F8 FF FF 7F 02 00  03 00 04 00 03 01 00 05   ;..............
0050: 80 02 01 00 06 80 05 83  00 16 00 00 01 00 07 80  ................
0060: 07 00 00 07 80 03 04 00  03 80 07 04 00 00 00 37  ...............7
0070: 02 00 03 00 04 00 00 80  07 01 00 08 80 1C 09 80  ................
0080: 01 51 00 00                                       .Q..            
```

#### Opcodes

```
  0: 0x0041 [0x3B] GET_ENTITY_POSITION(entity=EventEntity, x_destination=ExtData[1]->WorkLocal[2], y_destination=ExtData[1]->WorkLocal[3], z_destination=ExtData[1]->WorkLocal[4])
  1: 0x004C [0x03] ExtData[1]->WorkLocal[1] = 1024*
  2: 0x0051 [0x02] IF !(ExtData[1]->WorkLocal[1] > 3072*) GOTO 0x0083
  3: 0x0059 [0x16] ExtData[1]->WorkLocal[0] = sin(ExtData[1]->WorkLocal[1]) * 15000*
  4: 0x0060 [0x07] ExtData[1]->WorkLocal[0] += 15000*
  5: 0x0065 [0x03] ExtData[1]->WorkLocal[4] = 35000*
  6: 0x006A [0x07] ExtData[1]->WorkLocal[4] += ExtData[1]->WorkLocal[0]
  7: 0x006F [0x37] UPDATE_EVENT_POSITION_AND_DIR: x=ExtData[1]->WorkLocal[2], z=ExtData[1]->WorkLocal[3], y=ExtData[1]->WorkLocal[4], direction=0.0°*
  8: 0x0078 [0x07] ExtData[1]->WorkLocal[1] += 16*
  9: 0x007D [0x1C] WAIT(1* ticks)
 10: 0x0080 [0x01] GOTO 0x0051
 11: 0x0083 [0x00] END_REQSTACK()
```

### Event 65535.3

#### Metadata

| Field        | Value    |
|--------------|----------|
| Entrypoint   | 0x0084   |
| Data Size    | 67 bytes |
| Instructions | 12       |

```
      00 01 02 03 04 05 06 07  08 09 0A 0B 0C 0D 0E 0F
      -- -- -- -- -- -- -- --  -- -- -- -- -- -- -- --
0080:             3B F8 FF FF  7F 02 00 03 00 04 00 03      ;...........
0090: 01 00 06 80 02 01 00 0A  80 05 C6 00 16 00 00 01  ................
00A0: 00 07 80 08 00 00 07 80  03 04 00 04 80 07 04 00  ................
00B0: 00 00 37 02 00 03 00 04  00 00 80 07 01 00 08 80  ..7.............
00C0: 1C 09 80 01 94 00 00                              .......         
```

#### Opcodes

```
  0: 0x0084 [0x3B] GET_ENTITY_POSITION(entity=EventEntity, x_destination=ExtData[1]->WorkLocal[2], y_destination=ExtData[1]->WorkLocal[3], z_destination=ExtData[1]->WorkLocal[4])
  1: 0x008F [0x03] ExtData[1]->WorkLocal[1] = 3072*
  2: 0x0094 [0x02] IF !(ExtData[1]->WorkLocal[1] > 5120*) GOTO 0x00C6
  3: 0x009C [0x16] ExtData[1]->WorkLocal[0] = sin(ExtData[1]->WorkLocal[1]) * 15000*
  4: 0x00A3 [0x08] ExtData[1]->WorkLocal[0] -= 15000*
  5: 0x00A8 [0x03] ExtData[1]->WorkLocal[4] = 65000*
  6: 0x00AD [0x07] ExtData[1]->WorkLocal[4] += ExtData[1]->WorkLocal[0]
  7: 0x00B2 [0x37] UPDATE_EVENT_POSITION_AND_DIR: x=ExtData[1]->WorkLocal[2], z=ExtData[1]->WorkLocal[3], y=ExtData[1]->WorkLocal[4], direction=0.0°*
  8: 0x00BB [0x07] ExtData[1]->WorkLocal[1] += 16*
  9: 0x00C0 [0x1C] WAIT(1* ticks)
 10: 0x00C3 [0x01] GOTO 0x0094
 11: 0x00C6 [0x00] END_REQSTACK()
```

### Event 65535.4

#### Metadata

| Field        | Value    |
|--------------|----------|
| Entrypoint   | 0x00C7   |
| Data Size    | 49 bytes |
| Instructions | 9        |

```
      00 01 02 03 04 05 06 07  08 09 0A 0B 0C 0D 0E 0F
      -- -- -- -- -- -- -- --  -- -- -- -- -- -- -- --
00C0:                      5E  31 74 6C 30 3B F8 FF FF         ^1tl0;...
00D0: 7F 02 00 03 00 04 00 37  02 00 03 00 04 00 0B 80  .......7........
00E0: 08 02 00 0C 80 08 04 00  0D 80 32 0E 80 5A 00 02  ..........2..Z..
00F0: 00 03 00 04 00 5A 01 00                           .....Z..        
```

#### Opcodes

```
  0: 0x00C7 [0x5E] EventEntity goes idle (kills current action) (animation: "1tl0")
  1: 0x00CC [0x3B] GET_ENTITY_POSITION(entity=EventEntity, x_destination=ExtData[1]->WorkLocal[2], y_destination=ExtData[1]->WorkLocal[3], z_destination=ExtData[1]->WorkLocal[4])
  2: 0x00D7 [0x37] UPDATE_EVENT_POSITION_AND_DIR: x=ExtData[1]->WorkLocal[2], z=ExtData[1]->WorkLocal[3], y=ExtData[1]->WorkLocal[4], direction=180.0°*
  3: 0x00E0 [0x08] ExtData[1]->WorkLocal[2] -= 600000*
  4: 0x00E5 [0x08] ExtData[1]->WorkLocal[4] -= 400000*
  5: 0x00EA [0x32] ExtData[1]->MainSpeed = 300* * 0.1
  6: 0x00ED [0x5A] UPDATE_EVENT_POSITION: Set EventEntity MovePosition to X=ExtData[1]->WorkLocal[2], Z=ExtData[1]->WorkLocal[3], Y=ExtData[1]->WorkLocal[4]
  7: 0x00F5 [0x5A] UPDATE_EVENT_POSITION: Move EventEntity incrementally towards MovePosition
  8: 0x00F7 [0x00] END_REQSTACK()
```

### Event 65535.5

#### Metadata

| Field        | Value    |
|--------------|----------|
| Entrypoint   | 0x00F8   |
| Data Size    | 16 bytes |
| Instructions | 2        |

```
      00 01 02 03 04 05 06 07  08 09 0A 0B 0C 0D 0E 0F
      -- -- -- -- -- -- -- --  -- -- -- -- -- -- -- --
00F0:                          5B 0F 80 F8 FF FF 7F F8          [.......
0100: FF FF 7F 68 6F 75 31 00                           ...hou1.        
```

#### Opcodes

```
  0: 0x00F8 [0x5B] LOAD_EXT_SCHEDULER: Load scheduler "hou1" with entities [EventEntity, EventEntity], work=653*
  1: 0x0107 [0x00] END_REQSTACK()
```
