# 16904345 - Tenzen

## Common Data

| Field            | Value                 |
|------------------|-----------------------|
| Zone             | Monarch Linn (ID: 31) |
| Block Size       | 788 bytes             |
| Total Events     | 23                    |
| References Count | 41                    |

## List of Events

| Event ID                   | Entrypoint   |   Size |   Instructions |
|----------------------------|--------------|--------|----------------|
| [65535](#event-65535)      | 0x0000       |     13 |              3 |
| [32000](#event-32000)      | 0x000D       |     27 |              5 |
| [65535.1](#event-655351)   | 0x0028       |     90 |             18 |
| [32001](#event-32001)      | 0x0082       |      1 |              1 |
| [65535.2](#event-655352)   | 0x0083       |     16 |              4 |
| [65535.3](#event-655353)   | 0x0093       |     15 |              3 |
| [65535.4](#event-655354)   | 0x00A2       |     38 |              9 |
| [65535.5](#event-655355)   | 0x00C8       |     10 |              2 |
| [65535.6](#event-655356)   | 0x00D2       |     10 |              2 |
| [65535.7](#event-655357)   | 0x00DC       |     29 |              3 |
| [65535.8](#event-655358)   | 0x00F9       |     29 |              3 |
| [65535.9](#event-655359)   | 0x0116       |     16 |              2 |
| [65535.10](#event-6553510) | 0x0126       |     29 |              3 |
| [65535.11](#event-6553511) | 0x0143       |     16 |              2 |
| [65535.12](#event-6553512) | 0x0153       |     16 |              2 |
| [65535.13](#event-6553513) | 0x0163       |     16 |              2 |
| [65535.14](#event-6553514) | 0x0173       |     16 |              2 |
| [65535.15](#event-6553515) | 0x0183       |     36 |              4 |
| [65535.16](#event-6553516) | 0x01A7       |     16 |              2 |
| [65535.17](#event-6553517) | 0x01B7       |     16 |              2 |
| [65535.18](#event-6553518) | 0x01C7       |     29 |              3 |
| [65535.19](#event-6553519) | 0x01E4       |     10 |              2 |
| [65535.20](#event-6553520) | 0x01EE       |     19 |              3 |

## DAT References (imed_data)

|   Index | Hex Value   |   Dec Value |
|---------|-------------|-------------|
|       0 | 0x9C8F7     |      641271 |
|       1 | 0x922E3     |      598755 |
|       2 | 0xF924      |       63780 |
|       3 | 0x0805      |        2053 |
|       4 | 0xFFFFF448  |  4294964296 |
|       5 | 0x0BB8      |        3000 |
|       6 | 0x000D      |          13 |
|       7 | 0x0028      |          40 |
|       8 | 0x9BDDD     |      638429 |
|       9 | 0x9226E     |      598638 |
|      10 | 0xF96F      |       63855 |
|      11 | 0x0078      |         120 |
|      12 | 0x9D0C4     |      643268 |
|      13 | 0x928E9     |      600297 |
|      14 | 0xFA24      |       64036 |
|      15 | 0x0816      |        2070 |
|      16 | 0x97E8D     |      622221 |
|      17 | 0x92594     |      599444 |
|      18 | 0xFA7E      |       64126 |
|      19 | 0x0046      |          70 |
|      20 | 0x996E4     |      628452 |
|      21 | 0x92F02     |      601858 |
|      22 | 0xF843      |       63555 |
|      23 | 0x072C      |        1836 |
|      24 | 0x0740      |        1856 |
|      25 | 0x97ED8     |      622296 |
|      26 | 0x9260C     |      599564 |
|      27 | 0xFA7B      |       64123 |
|      28 | 0x07E7      |        2023 |
|      29 | 0x01A9      |         425 |
|      30 | 0x01AB      |         427 |
|      31 | 0x01AD      |         429 |
|      32 | 0x004B      |          75 |
|      33 | 0x0000      |           0 |
|      34 | 0x0280      |         640 |
|      35 | 0x9809C     |      622748 |
|      36 | 0x9270C     |      599820 |
|      37 | 0xFA6C      |       64108 |
|      38 | 0x071B      |        1819 |
|      39 | 0x01AA      |         426 |
|      40 | 0x005A      |          90 |

## Events

### Event 65535

#### Metadata

| Field        | Value    |
|--------------|----------|
| Entrypoint   | 0x0000   |
| Data Size    | 13 bytes |
| Instructions | 3        |

```
      00 01 02 03 04 05 06 07  08 09 0A 0B 0C 0D 0E 0F
      -- -- -- -- -- -- -- --  -- -- -- -- -- -- -- --
0000: 94 01 F8 FF FF 7F 92 01  F8 FF FF 7F 00           .............   
```

#### Opcodes

```
  0: 0x0000 [0x94] EventEntity->Render.Flags3 ^= 0x01
  1: 0x0006 [0x92] EventEntity->Render.Flags3 ^= 0x01
  2: 0x000C [0x00] END_REQSTACK()
```

### Event 32000

#### Metadata

| Field        | Value    |
|--------------|----------|
| Entrypoint   | 0x000D   |
| Data Size    | 27 bytes |
| Instructions | 5        |

```
      00 01 02 03 04 05 06 07  08 09 0A 0B 0C 0D 0E 0F
      -- -- -- -- -- -- -- --  -- -- -- -- -- -- -- --
0000:                                         37 00 80               7..
0010: 01 80 02 80 03 80 03 00  00 04 80 1A 3E 00 37 01  ............>.7.
0020: 00 02 00 03 00 04 00 00                           ........        
```

#### Opcodes

```
  0: 0x000D [0x37] UPDATE_EVENT_POSITION_AND_DIR: x=641.271*, z=598.755*, y=63.780*, direction=180.4°*
  1: 0x0016 [0x03] ExtData[1]->WorkLocal[0] = 4294964296*
  2: 0x001B [0x1A] CALL_SUBROUTINE(address=0x003E)
  3: 0x001E [0x37] UPDATE_EVENT_POSITION_AND_DIR: x=ExtData[1]->WorkLocal[1], z=ExtData[1]->WorkLocal[2], y=ExtData[1]->WorkLocal[3], direction=ExtData[1]->WorkLocal[4]
  4: 0x0027 [0x00] END_REQSTACK()
```

### Event 65535.1

#### Metadata

| Field        | Value    |
|--------------|----------|
| Entrypoint   | 0x0028   |
| Data Size    | 90 bytes |
| Instructions | 13       |

```
      00 01 02 03 04 05 06 07  08 09 0A 0B 0C 0D 0E 0F
      -- -- -- -- -- -- -- --  -- -- -- -- -- -- -- --
0020:                          03 00 00 05 80 1A 3E 00          ......>.
0030: 32 06 80 1F 00 01 00 02  00 03 00 1F 01 00 3B F8  2.............;.
0040: FF FF 7F 01 00 02 00 03  00 3A F8 FF FF 7F 04 00  .........:......
0050: 17 05 00 04 00 00 00 16  06 00 04 00 00 00 07 01  ................
0060: 00 05 00 07 02 00 06 00  1B 17 05 00 04 00 00 00  ................
0070: 16 06 00 04 00 00 00 07  01 00 05 00 07 02 00 06  ................
0080: 00 1B                                             ..              
```

#### Opcodes

```
  0: 0x0028 [0x03] ExtData[1]->WorkLocal[0] = 3000*
  1: 0x002D [0x1A] CALL_SUBROUTINE(address=0x003E)
  2: 0x0030 [0x32] ExtData[1]->MainSpeed = 13* * 0.1
  3: 0x0033 [0x1F] MOVE_ENTITY: EventEntity moves to X=ExtData[1]->WorkLocal[1], Z=ExtData[1]->WorkLocal[2], Y=ExtData[1]->WorkLocal[3]
  4: 0x003B [0x1F] MOVE_ENTITY: Update entity position (mode=1)
  5: 0x003D [0x00] END_REQSTACK()

SUBROUTINE_003E:
  6: 0x003E [0x3B] GET_ENTITY_POSITION(entity=EventEntity, x_destination=ExtData[1]->WorkLocal[1], y_destination=ExtData[1]->WorkLocal[2], z_destination=ExtData[1]->WorkLocal[3])
  7: 0x0049 [0x3A] CONVERT_YAW_TO_BYTE(entity=EventEntity, result_destination=ExtData[1]->WorkLocal[4])
  8: 0x0050 [0x17] ExtData[1]->WorkLocal[5] = cos(ExtData[1]->WorkLocal[4]) * ExtData[1]->WorkLocal[0]
  9: 0x0057 [0x16] ExtData[1]->WorkLocal[6] = sin(ExtData[1]->WorkLocal[4]) * ExtData[1]->WorkLocal[0]
 10: 0x005E [0x07] ExtData[1]->WorkLocal[1] += ExtData[1]->WorkLocal[5]
 11: 0x0063 [0x07] ExtData[1]->WorkLocal[2] += ExtData[1]->WorkLocal[6]
 12: 0x0068 [0x1B] RETURN
```

#### Data or dead code:

```
# Dead code (unreachable instructions):
     0x0069 [0x17] ExtData[1]->WorkLocal[5] = cos(ExtData[1]->WorkLocal[4]) * ExtData[1]->WorkLocal[0]
     0x0070 [0x16] ExtData[1]->WorkLocal[6] = sin(ExtData[1]->WorkLocal[4]) * ExtData[1]->WorkLocal[0]
     0x0077 [0x07] ExtData[1]->WorkLocal[1] += ExtData[1]->WorkLocal[5]
     0x007C [0x07] ExtData[1]->WorkLocal[2] += ExtData[1]->WorkLocal[6]
     0x0081 [0x1B] RETURN
```

### Event 32001

#### Metadata

| Field        | Value   |
|--------------|---------|
| Entrypoint   | 0x0082  |
| Data Size    | 1 bytes |
| Instructions | 1       |

```
      00 01 02 03 04 05 06 07  08 09 0A 0B 0C 0D 0E 0F
      -- -- -- -- -- -- -- --  -- -- -- -- -- -- -- --
0080:       00                                            .             
```

#### Opcodes

```
  0: 0x0082 [0x00] END_REQSTACK()
```

### Event 65535.2

#### Metadata

| Field        | Value    |
|--------------|----------|
| Entrypoint   | 0x0083   |
| Data Size    | 16 bytes |
| Instructions | 4        |

```
      00 01 02 03 04 05 06 07  08 09 0A 0B 0C 0D 0E 0F
      -- -- -- -- -- -- -- --  -- -- -- -- -- -- -- --
0080:          32 07 80 31 00  08 80 09 80 0A 80 0B 80     2..1.........
0090: 31 01 00                                          1..             
```

#### Opcodes

```
  0: 0x0083 [0x32] ExtData[1]->MainSpeed = 40* * 0.1
  1: 0x0086 [0x31] UPDATE_ENTITY_POSITION: Set EventEntity goal position to X=638.429*, Z=598.638*, Y=63.855*, Time=120*
  2: 0x0090 [0x31] UPDATE_ENTITY_POSITION: Move EventEntity towards goal position
  3: 0x0092 [0x00] END_REQSTACK()
```

### Event 65535.3

#### Metadata

| Field        | Value    |
|--------------|----------|
| Entrypoint   | 0x0093   |
| Data Size    | 15 bytes |
| Instructions | 3        |

```
      00 01 02 03 04 05 06 07  08 09 0A 0B 0C 0D 0E 0F
      -- -- -- -- -- -- -- --  -- -- -- -- -- -- -- --
0090:          7B F8 FF FF 7F  37 0C 80 0D 80 0E 80 0F     {....7.......
00A0: 80 00                                             ..              
```

#### Opcodes

```
  0: 0x0093 [0x7B] EventEntity stops talking
  1: 0x0098 [0x37] UPDATE_EVENT_POSITION_AND_DIR: x=643.268*, z=600.297*, y=64.036*, direction=181.9°*
  2: 0x00A1 [0x00] END_REQSTACK()
```

### Event 65535.4

#### Metadata

| Field        | Value    |
|--------------|----------|
| Entrypoint   | 0x00A2   |
| Data Size    | 38 bytes |
| Instructions | 9        |

```
      00 01 02 03 04 05 06 07  08 09 0A 0B 0C 0D 0E 0F
      -- -- -- -- -- -- -- --  -- -- -- -- -- -- -- --
00A0:       32 07 80 31 00 10  80 11 80 12 80 13 80 31    2..1.........1
00B0: 01 33 01 37 14 80 15 80  16 80 17 80 1F 00 10 80  .3.7............
00C0: 11 80 12 80 1F 01 6F 00                           ......o.        
```

#### Opcodes

```
  0: 0x00A2 [0x32] ExtData[1]->MainSpeed = 40* * 0.1
  1: 0x00A5 [0x31] UPDATE_ENTITY_POSITION: Set EventEntity goal position to X=622.221*, Z=599.444*, Y=64.126*, Time=70*
  2: 0x00AF [0x31] UPDATE_ENTITY_POSITION: Move EventEntity towards goal position
  3: 0x00B1 [0x33] EventEntity->Render.Flags0 |= 0x200000 // Bit 21 (flag=0x01)
  4: 0x00B3 [0x37] UPDATE_EVENT_POSITION_AND_DIR: x=628.452*, z=601.858*, y=63.555*, direction=161.4°*
  5: 0x00BC [0x1F] MOVE_ENTITY: EventEntity moves to X=622.221*, Z=599.444*, Y=64.126*
  6: 0x00C4 [0x1F] MOVE_ENTITY: Update entity position (mode=1)
  7: 0x00C6 [0x6F] WAIT_FRAME_DELAY: Yield until WaitTime reaches zero
  8: 0x00C7 [0x00] END_REQSTACK()
```

### Event 65535.5

#### Metadata

| Field        | Value    |
|--------------|----------|
| Entrypoint   | 0x00C8   |
| Data Size    | 10 bytes |
| Instructions | 2        |

```
      00 01 02 03 04 05 06 07  08 09 0A 0B 0C 0D 0E 0F
      -- -- -- -- -- -- -- --  -- -- -- -- -- -- -- --
00C0:                          37 10 80 11 80 12 80 18          7.......
00D0: 80 00                                             ..              
```

#### Opcodes

```
  0: 0x00C8 [0x37] UPDATE_EVENT_POSITION_AND_DIR: x=622.221*, z=599.444*, y=64.126*, direction=163.1°*
  1: 0x00D1 [0x00] END_REQSTACK()
```

### Event 65535.6

#### Metadata

| Field        | Value    |
|--------------|----------|
| Entrypoint   | 0x00D2   |
| Data Size    | 10 bytes |
| Instructions | 2        |

```
      00 01 02 03 04 05 06 07  08 09 0A 0B 0C 0D 0E 0F
      -- -- -- -- -- -- -- --  -- -- -- -- -- -- -- --
00D0:       37 19 80 1A 80 1B  80 1C 80 00                7.........    
```

#### Opcodes

```
  0: 0x00D2 [0x37] UPDATE_EVENT_POSITION_AND_DIR: x=622.296*, z=599.564*, y=64.123*, direction=177.8°*
  1: 0x00DB [0x00] END_REQSTACK()
```

### Event 65535.7

#### Metadata

| Field        | Value    |
|--------------|----------|
| Entrypoint   | 0x00DC   |
| Data Size    | 29 bytes |
| Instructions | 3        |

```
      00 01 02 03 04 05 06 07  08 09 0A 0B 0C 0D 0E 0F
      -- -- -- -- -- -- -- --  -- -- -- -- -- -- -- --
00D0:                                      5B 1D 80 F8              [...
00E0: FF FF 7F F8 FF FF 7F 74  6C 61 30 53 F8 FF FF 7F  .......tla0S....
00F0: F8 FF FF 7F 74 6C 61 30  00                       ....tla0.       
```

#### Opcodes

```
  0: 0x00DC [0x5B] LOAD_EXT_SCHEDULER: Load scheduler "tla0" with entities [EventEntity, EventEntity], work=425*
  1: 0x00EB [0x53] WAIT_SCHEDULER_TASK: Wait for scheduler "tla0" with entities [EventEntity, EventEntity]
  2: 0x00F8 [0x00] END_REQSTACK()
```

### Event 65535.8

#### Metadata

| Field        | Value    |
|--------------|----------|
| Entrypoint   | 0x00F9   |
| Data Size    | 29 bytes |
| Instructions | 3        |

```
      00 01 02 03 04 05 06 07  08 09 0A 0B 0C 0D 0E 0F
      -- -- -- -- -- -- -- --  -- -- -- -- -- -- -- --
00F0:                             5B 1D 80 F8 FF FF 7F           [......
0100: F8 FF FF 7F 74 6C 61 31  53 F8 FF FF 7F F8 FF FF  ....tla1S.......
0110: 7F 74 6C 61 31 00                                 .tla1.          
```

#### Opcodes

```
  0: 0x00F9 [0x5B] LOAD_EXT_SCHEDULER: Load scheduler "tla1" with entities [EventEntity, EventEntity], work=425*
  1: 0x0108 [0x53] WAIT_SCHEDULER_TASK: Wait for scheduler "tla1" with entities [EventEntity, EventEntity]
  2: 0x0115 [0x00] END_REQSTACK()
```

### Event 65535.9

#### Metadata

| Field        | Value    |
|--------------|----------|
| Entrypoint   | 0x0116   |
| Data Size    | 16 bytes |
| Instructions | 2        |

```
      00 01 02 03 04 05 06 07  08 09 0A 0B 0C 0D 0E 0F
      -- -- -- -- -- -- -- --  -- -- -- -- -- -- -- --
0110:                   5B 1D  80 F8 FF FF 7F F8 FF FF        [.........
0120: 7F 74 6C 62 30 00                                 .tlb0.          
```

#### Opcodes

```
  0: 0x0116 [0x5B] LOAD_EXT_SCHEDULER: Load scheduler "tlb0" with entities [EventEntity, EventEntity], work=425*
  1: 0x0125 [0x00] END_REQSTACK()
```

### Event 65535.10

#### Metadata

| Field        | Value    |
|--------------|----------|
| Entrypoint   | 0x0126   |
| Data Size    | 29 bytes |
| Instructions | 3        |

```
      00 01 02 03 04 05 06 07  08 09 0A 0B 0C 0D 0E 0F
      -- -- -- -- -- -- -- --  -- -- -- -- -- -- -- --
0120:                   5B 1D  80 F8 FF FF 7F F8 FF FF        [.........
0130: 7F 74 6C 62 31 53 F8 FF  FF 7F F8 FF FF 7F 74 6C  .tlb1S........tl
0140: 62 31 00                                          b1.             
```

#### Opcodes

```
  0: 0x0126 [0x5B] LOAD_EXT_SCHEDULER: Load scheduler "tlb1" with entities [EventEntity, EventEntity], work=425*
  1: 0x0135 [0x53] WAIT_SCHEDULER_TASK: Wait for scheduler "tlb1" with entities [EventEntity, EventEntity]
  2: 0x0142 [0x00] END_REQSTACK()
```

### Event 65535.11

#### Metadata

| Field        | Value    |
|--------------|----------|
| Entrypoint   | 0x0143   |
| Data Size    | 16 bytes |
| Instructions | 2        |

```
      00 01 02 03 04 05 06 07  08 09 0A 0B 0C 0D 0E 0F
      -- -- -- -- -- -- -- --  -- -- -- -- -- -- -- --
0140:          5B 1E 80 F8 FF  FF 7F F8 FF FF 7F 74 6C     [..........tl
0150: 63 30 00                                          c0.             
```

#### Opcodes

```
  0: 0x0143 [0x5B] LOAD_EXT_SCHEDULER: Load scheduler "tlc0" with entities [EventEntity, EventEntity], work=427*
  1: 0x0152 [0x00] END_REQSTACK()
```

### Event 65535.12

#### Metadata

| Field        | Value    |
|--------------|----------|
| Entrypoint   | 0x0153   |
| Data Size    | 16 bytes |
| Instructions | 2        |

```
      00 01 02 03 04 05 06 07  08 09 0A 0B 0C 0D 0E 0F
      -- -- -- -- -- -- -- --  -- -- -- -- -- -- -- --
0150:          5B 1E 80 F8 FF  FF 7F F8 FF FF 7F 74 6C     [..........tl
0160: 63 31 00                                          c1.             
```

#### Opcodes

```
  0: 0x0153 [0x5B] LOAD_EXT_SCHEDULER: Load scheduler "tlc1" with entities [EventEntity, EventEntity], work=427*
  1: 0x0162 [0x00] END_REQSTACK()
```

### Event 65535.13

#### Metadata

| Field        | Value    |
|--------------|----------|
| Entrypoint   | 0x0163   |
| Data Size    | 16 bytes |
| Instructions | 2        |

```
      00 01 02 03 04 05 06 07  08 09 0A 0B 0C 0D 0E 0F
      -- -- -- -- -- -- -- --  -- -- -- -- -- -- -- --
0160:          5B 1F 80 F8 FF  FF 7F F8 FF FF 7F 74 61     [..........ta
0170: 65 30 00                                          e0.             
```

#### Opcodes

```
  0: 0x0163 [0x5B] LOAD_EXT_SCHEDULER: Load scheduler "tae0" with entities [EventEntity, EventEntity], work=429*
  1: 0x0172 [0x00] END_REQSTACK()
```

### Event 65535.14

#### Metadata

| Field        | Value    |
|--------------|----------|
| Entrypoint   | 0x0173   |
| Data Size    | 16 bytes |
| Instructions | 2        |

```
      00 01 02 03 04 05 06 07  08 09 0A 0B 0C 0D 0E 0F
      -- -- -- -- -- -- -- --  -- -- -- -- -- -- -- --
0170:          5B 1F 80 F8 FF  FF 7F F8 FF FF 7F 74 61     [..........ta
0180: 65 31 00                                          e1.             
```

#### Opcodes

```
  0: 0x0173 [0x5B] LOAD_EXT_SCHEDULER: Load scheduler "tae1" with entities [EventEntity, EventEntity], work=429*
  1: 0x0182 [0x00] END_REQSTACK()
```

### Event 65535.15

#### Metadata

| Field        | Value    |
|--------------|----------|
| Entrypoint   | 0x0183   |
| Data Size    | 36 bytes |
| Instructions | 4        |

```
      00 01 02 03 04 05 06 07  08 09 0A 0B 0C 0D 0E 0F
      -- -- -- -- -- -- -- --  -- -- -- -- -- -- -- --
0180:          5B 1E 80 F8 FF  FF 7F F8 FF FF 7F 68 6F     [..........ho
0190: 75 30 1C 13 80 45 20 80  F8 FF FF 7F F8 FF FF 7F  u0...E .........
01A0: 73 30 30 31 21 80 00                              s001!..         
```

#### Opcodes

```
  0: 0x0183 [0x5B] LOAD_EXT_SCHEDULER: Load scheduler "hou0" with entities [EventEntity, EventEntity], work=427*
  1: 0x0192 [0x1C] WAIT(70* ticks)
  2: 0x0195 [0x45] LOAD_SCHEDULED_TASK: Load scheduler "s001" with entities [EventEntity, EventEntity], work=[75*, 0*]
  3: 0x01A6 [0x00] END_REQSTACK()
```

### Event 65535.16

#### Metadata

| Field        | Value    |
|--------------|----------|
| Entrypoint   | 0x01A7   |
| Data Size    | 16 bytes |
| Instructions | 2        |

```
      00 01 02 03 04 05 06 07  08 09 0A 0B 0C 0D 0E 0F
      -- -- -- -- -- -- -- --  -- -- -- -- -- -- -- --
01A0:                      5B  1E 80 F8 FF FF 7F F8 FF         [........
01B0: FF 7F 68 6F 75 31 00                              ..hou1.         
```

#### Opcodes

```
  0: 0x01A7 [0x5B] LOAD_EXT_SCHEDULER: Load scheduler "hou1" with entities [EventEntity, EventEntity], work=427*
  1: 0x01B6 [0x00] END_REQSTACK()
```

### Event 65535.17

#### Metadata

| Field        | Value    |
|--------------|----------|
| Entrypoint   | 0x01B7   |
| Data Size    | 16 bytes |
| Instructions | 2        |

```
      00 01 02 03 04 05 06 07  08 09 0A 0B 0C 0D 0E 0F
      -- -- -- -- -- -- -- --  -- -- -- -- -- -- -- --
01B0:                      5B  22 80 F8 FF FF 7F F8 FF         [".......
01C0: FF 7F 74 6C 68 32 00                              ..tlh2.         
```

#### Opcodes

```
  0: 0x01B7 [0x5B] LOAD_EXT_SCHEDULER: Load scheduler "tlh2" with entities [EventEntity, EventEntity], work=640*
  1: 0x01C6 [0x00] END_REQSTACK()
```

### Event 65535.18

#### Metadata

| Field        | Value    |
|--------------|----------|
| Entrypoint   | 0x01C7   |
| Data Size    | 29 bytes |
| Instructions | 3        |

```
      00 01 02 03 04 05 06 07  08 09 0A 0B 0C 0D 0E 0F
      -- -- -- -- -- -- -- --  -- -- -- -- -- -- -- --
01C0:                      5B  22 80 F8 FF FF 7F F8 FF         [".......
01D0: FF 7F 74 6C 68 33 53 F8  FF FF 7F F8 FF FF 7F 74  ..tlh3S........t
01E0: 6C 68 33 00                                       lh3.            
```

#### Opcodes

```
  0: 0x01C7 [0x5B] LOAD_EXT_SCHEDULER: Load scheduler "tlh3" with entities [EventEntity, EventEntity], work=640*
  1: 0x01D6 [0x53] WAIT_SCHEDULER_TASK: Wait for scheduler "tlh3" with entities [EventEntity, EventEntity]
  2: 0x01E3 [0x00] END_REQSTACK()
```

### Event 65535.19

#### Metadata

| Field        | Value    |
|--------------|----------|
| Entrypoint   | 0x01E4   |
| Data Size    | 10 bytes |
| Instructions | 2        |

```
      00 01 02 03 04 05 06 07  08 09 0A 0B 0C 0D 0E 0F
      -- -- -- -- -- -- -- --  -- -- -- -- -- -- -- --
01E0:             37 23 80 24  80 25 80 26 80 00            7#.$.%.&..  
```

#### Opcodes

```
  0: 0x01E4 [0x37] UPDATE_EVENT_POSITION_AND_DIR: x=622.748*, z=599.820*, y=64.108*, direction=159.9°*
  1: 0x01ED [0x00] END_REQSTACK()
```

### Event 65535.20

#### Metadata

| Field        | Value    |
|--------------|----------|
| Entrypoint   | 0x01EE   |
| Data Size    | 19 bytes |
| Instructions | 3        |

```
      00 01 02 03 04 05 06 07  08 09 0A 0B 0C 0D 0E 0F
      -- -- -- -- -- -- -- --  -- -- -- -- -- -- -- --
01E0:                                            5B 27                ['
01F0: 80 F8 FF FF 7F F8 FF FF  7F 6B 72 75 30 1C 28 80  .........kru0.(.
0200: 00                                                .               
```

#### Opcodes

```
  0: 0x01EE [0x5B] LOAD_EXT_SCHEDULER: Load scheduler "kru0" with entities [EventEntity, EventEntity], work=426*
  1: 0x01FD [0x1C] WAIT(90* ticks)
  2: 0x0200 [0x00] END_REQSTACK()
```
