# 16904355

## Common Data

| Field            | Value                 |
|------------------|-----------------------|
| Zone             | Monarch Linn (ID: 31) |
| Block Size       | 292 bytes             |
| Total Events     | 4                     |
| References Count | 14                    |

## List of Events

| Event ID                 | Entrypoint   |   Size |   Instructions |
|--------------------------|--------------|--------|----------------|
| [65535](#event-65535)    | 0x0000       |     13 |              3 |
| [32000](#event-32000)    | 0x000D       |      1 |              1 |
| [65535.1](#event-655351) | 0x000E       |     50 |              9 |
| [65535.2](#event-655352) | 0x0040       |    139 |             23 |

## DAT References (imed_data)

|   Index | Hex Value   |   Dec Value |
|---------|-------------|-------------|
|       0 | 0x0400      |        1024 |
|       1 | 0x1B58      |        7000 |
|       2 | 0x0BB8      |        3000 |
|       3 | 0xFFFFF448  |  4294964296 |
|       4 | 0x0000      |           0 |
|       5 | 0x0001      |           1 |
|       6 | 0x0078      |         120 |
|       7 | 0x79A4F     |      498255 |
|       8 | 0x93882     |      604290 |
|       9 | 0x109CD     |       68045 |
|      10 | 0x0002      |           2 |
|      11 | 0x003C      |          60 |
|      12 | 0x0028      |          40 |
|      13 | 0x61A8      |       25000 |

## Events

### Event 65535

#### Metadata

| Field        | Value    |
|--------------|----------|
| Entrypoint   | 0x0000   |
| Data Size    | 13 bytes |
| Instructions | 3        |

```
      00 01 02 03 04 05 06 07  08 09 0A 0B 0C 0D 0E 0F
      -- -- -- -- -- -- -- --  -- -- -- -- -- -- -- --
0000: 94 01 F8 FF FF 7F 92 01  F8 FF FF 7F 00           .............   
```

#### Opcodes

```
  0: 0x0000 [0x94] EventEntity->Render.Flags3 ^= 0x01
  1: 0x0006 [0x92] EventEntity->Render.Flags3 ^= 0x01
  2: 0x000C [0x00] END_REQSTACK()
```

### Event 32000

#### Metadata

| Field        | Value   |
|--------------|---------|
| Entrypoint   | 0x000D  |
| Data Size    | 1 bytes |
| Instructions | 1       |

```
      00 01 02 03 04 05 06 07  08 09 0A 0B 0C 0D 0E 0F
      -- -- -- -- -- -- -- --  -- -- -- -- -- -- -- --
0000:                                         00                     .  
```

#### Opcodes

```
  0: 0x000D [0x00] END_REQSTACK()
```

### Event 65535.1

#### Metadata

| Field        | Value    |
|--------------|----------|
| Entrypoint   | 0x000E   |
| Data Size    | 50 bytes |
| Instructions | 9        |

```
      00 01 02 03 04 05 06 07  08 09 0A 0B 0C 0D 0E 0F
      -- -- -- -- -- -- -- --  -- -- -- -- -- -- -- --
0000:                                            02 20                . 
0010: 10 00 80 05 3F 00 3B AF  F0 01 01 00 00 01 00 02  ....?.;.........
0020: 00 07 00 00 01 80 07 01  00 02 80 07 02 00 03 80  ................
0030: 37 00 00 01 00 02 00 04  80 1C 05 80 01 0E 00 00  7...............
```

#### Opcodes

```
  0: 0x000E [0x02] IF !(Work_Zone[32] > 1024*) GOTO 0x003F
  1: 0x0016 [0x3B] GET_ENTITY_POSITION(entity=ship (ID: 16904367/0x0101F0AF), x_destination=ExtData[1]->WorkLocal[0], y_destination=ExtData[1]->WorkLocal[1], z_destination=ExtData[1]->WorkLocal[2])
  2: 0x0021 [0x07] ExtData[1]->WorkLocal[0] += 7000*
  3: 0x0026 [0x07] ExtData[1]->WorkLocal[1] += 3000*
  4: 0x002B [0x07] ExtData[1]->WorkLocal[2] += 4294964296*
  5: 0x0030 [0x37] UPDATE_EVENT_POSITION_AND_DIR: x=ExtData[1]->WorkLocal[0], z=ExtData[1]->WorkLocal[1], y=ExtData[1]->WorkLocal[2], direction=0.0°*
  6: 0x0039 [0x1C] WAIT(1* ticks)
  7: 0x003C [0x01] GOTO 0x000E
  8: 0x003F [0x00] END_REQSTACK()
```

### Event 65535.2

#### Metadata

| Field        | Value     |
|--------------|-----------|
| Entrypoint   | 0x0040    |
| Data Size    | 139 bytes |
| Instructions | 18        |

```
      00 01 02 03 04 05 06 07  08 09 0A 0B 0C 0D 0E 0F
      -- -- -- -- -- -- -- --  -- -- -- -- -- -- -- --
0040: 62 05 80 F8 FF FF 7F F8  FF FF 7F 6D 61 69 6E 04  b..........main.
0050: 80 1C 06 80 37 07 80 08  80 09 80 04 80 62 0A 80  ....7........b..
0060: F8 FF FF 7F F8 FF FF 7F  6D 61 69 6E 04 80 1C 0B  ........main....
0070: 80 32 0C 80 03 03 00 0D  80 1A 87 00 1F 00 04 00  .2..............
0080: 05 00 06 00 1F 01 00 3B  F8 FF FF 7F 04 00 05 00  .......;........
0090: 06 00 3A F8 FF FF 7F 07  00 17 08 00 07 00 03 00  ..:.............
00A0: 16 09 00 07 00 03 00 07  04 00 08 00 07 05 00 09  ................
00B0: 00 1B 17 08 00 07 00 03  00 16 09 00 07 00 03 00  ................
00C0: 07 04 00 08 00 07 05 00  09 00 1B                 ...........     
```

#### Opcodes

```
  0: 0x0040 [0x62] LOAD_EVENT_SCHEDULER: Load scheduler "main" with entities [EventEntity, EventEntity], work=[1*, 0*]
  1: 0x0051 [0x1C] WAIT(120* ticks)
  2: 0x0054 [0x37] UPDATE_EVENT_POSITION_AND_DIR: x=498.255*, z=604.290*, y=68.045*, direction=0.0°*
  3: 0x005D [0x62] LOAD_EVENT_SCHEDULER: Load scheduler "main" with entities [EventEntity, EventEntity], work=[2*, 0*]
  4: 0x006E [0x1C] WAIT(60* ticks)
  5: 0x0071 [0x32] ExtData[1]->MainSpeed = 40* * 0.1
  6: 0x0074 [0x03] ExtData[1]->WorkLocal[3] = 25000*
  7: 0x0079 [0x1A] CALL_SUBROUTINE(address=0x0087)
  8: 0x007C [0x1F] MOVE_ENTITY: EventEntity moves to X=ExtData[1]->WorkLocal[4], Z=ExtData[1]->WorkLocal[5], Y=ExtData[1]->WorkLocal[6]
  9: 0x0084 [0x1F] MOVE_ENTITY: Update entity position (mode=1)
 10: 0x0086 [0x00] END_REQSTACK()

SUBROUTINE_0087:
 11: 0x0087 [0x3B] GET_ENTITY_POSITION(entity=EventEntity, x_destination=ExtData[1]->WorkLocal[4], y_destination=ExtData[1]->WorkLocal[5], z_destination=ExtData[1]->WorkLocal[6])
 12: 0x0092 [0x3A] CONVERT_YAW_TO_BYTE(entity=EventEntity, result_destination=ExtData[1]->WorkLocal[7])
 13: 0x0099 [0x17] ExtData[1]->WorkLocal[8] = cos(ExtData[1]->WorkLocal[7]) * ExtData[1]->WorkLocal[3]
 14: 0x00A0 [0x16] ExtData[1]->WorkLocal[9] = sin(ExtData[1]->WorkLocal[7]) * ExtData[1]->WorkLocal[3]
 15: 0x00A7 [0x07] ExtData[1]->WorkLocal[4] += ExtData[1]->WorkLocal[8]
 16: 0x00AC [0x07] ExtData[1]->WorkLocal[5] += ExtData[1]->WorkLocal[9]
 17: 0x00B1 [0x1B] RETURN
```

#### Data or dead code:

```
# Dead code (unreachable instructions):
     0x00B2 [0x17] ExtData[1]->WorkLocal[8] = cos(ExtData[1]->WorkLocal[7]) * ExtData[1]->WorkLocal[3]
     0x00B9 [0x16] ExtData[1]->WorkLocal[9] = sin(ExtData[1]->WorkLocal[7]) * ExtData[1]->WorkLocal[3]
     0x00C0 [0x07] ExtData[1]->WorkLocal[4] += ExtData[1]->WorkLocal[8]
     0x00C5 [0x07] ExtData[1]->WorkLocal[5] += ExtData[1]->WorkLocal[9]
     0x00CA [0x1B] RETURN
```
