# 16904360

## Common Data

| Field            | Value                 |
|------------------|-----------------------|
| Zone             | Monarch Linn (ID: 31) |
| Block Size       | 228 bytes             |
| Total Events     | 6                     |
| References Count | 13                    |

## List of Events

| Event ID                 | Entrypoint   |   Size |   Instructions |
|--------------------------|--------------|--------|----------------|
| [65535](#event-65535)    | 0x0000       |     14 |              4 |
| [32000](#event-32000)    | 0x000E       |      9 |              1 |
| [32001](#event-32001)    | 0x0017       |     10 |              2 |
| [65535.1](#event-655351) | 0x0021       |     49 |              9 |
| [65535.2](#event-655352) | 0x0052       |     16 |              2 |
| [65535.3](#event-655353) | 0x0062       |     36 |              4 |

## DAT References (imed_data)

|   Index | Hex Value   |   Dec Value |
|---------|-------------|-------------|
|       0 | 0x0000      |           0 |
|       1 | 0x90880     |      592000 |
|       2 | 0x8CA00     |      576000 |
|       3 | 0x88B8      |       35000 |
|       4 | 0x0800      |        2048 |
|       5 | 0x927C0     |      600000 |
|       6 | 0x61A80     |      400000 |
|       7 | 0x012C      |         300 |
|       8 | 0x028D      |         653 |
|       9 | 0x006A      |         106 |
|      10 | 0x956A0     |      612000 |
|      11 | 0x96258     |      615000 |
|      12 | 0x11170     |       70000 |

## Events

### Event 65535

#### Metadata

| Field        | Value    |
|--------------|----------|
| Entrypoint   | 0x0000   |
| Data Size    | 14 bytes |
| Instructions | 4        |

```
      00 01 02 03 04 05 06 07  08 09 0A 0B 0C 0D 0E 0F
      -- -- -- -- -- -- -- --  -- -- -- -- -- -- -- --
0000: 33 01 92 01 F8 FF FF 7F  5E 31 74 6C 30 00        3.......^1tl0.  
```

#### Opcodes

```
  0: 0x0000 [0x33] EventEntity->Render.Flags0 |= 0x200000 // Bit 21 (flag=0x01)
  1: 0x0002 [0x92] EventEntity->Render.Flags3 ^= 0x01
  2: 0x0008 [0x5E] EventEntity goes idle (kills current action) (animation: "1tl0")
  3: 0x000D [0x00] END_REQSTACK()
```

### Event 32000

#### Metadata

| Field        | Value   |
|--------------|---------|
| Entrypoint   | 0x000E  |
| Data Size    | 9 bytes |
| Instructions | 1       |

```
      00 01 02 03 04 05 06 07  08 09 0A 0B 0C 0D 0E 0F
      -- -- -- -- -- -- -- --  -- -- -- -- -- -- -- --
0000:                                            6C F8                l.
0010: FF FF 7F 00 80 00 80                              .......         
```

#### Opcodes

```
  0: 0x000E [0x6C] FADE_ENTITY_COLOR(entity_id=EventEntity, end_alpha=0*, fade_time=0*)
```

### Event 32001

#### Metadata

| Field        | Value    |
|--------------|----------|
| Entrypoint   | 0x0017   |
| Data Size    | 10 bytes |
| Instructions | 2        |

```
      00 01 02 03 04 05 06 07  08 09 0A 0B 0C 0D 0E 0F
      -- -- -- -- -- -- -- --  -- -- -- -- -- -- -- --
0010:                      37  01 80 02 80 03 80 00 80         7........
0020: 00                                                .               
```

#### Opcodes

```
  0: 0x0017 [0x37] UPDATE_EVENT_POSITION_AND_DIR: x=592.000*, z=576.000*, y=35.000*, direction=0.0°*
  1: 0x0020 [0x00] END_REQSTACK()
```

### Event 65535.1

#### Metadata

| Field        | Value    |
|--------------|----------|
| Entrypoint   | 0x0021   |
| Data Size    | 49 bytes |
| Instructions | 9        |

```
      00 01 02 03 04 05 06 07  08 09 0A 0B 0C 0D 0E 0F
      -- -- -- -- -- -- -- --  -- -- -- -- -- -- -- --
0020:    5E 31 74 6C 30 3B F8  FF FF 7F 00 00 01 00 02   ^1tl0;.........
0030: 00 37 00 00 01 00 02 00  04 80 08 00 00 05 80 08  .7..............
0040: 02 00 06 80 32 07 80 5A  00 00 00 01 00 02 00 5A  ....2..Z.......Z
0050: 01 00                                             ..              
```

#### Opcodes

```
  0: 0x0021 [0x5E] EventEntity goes idle (kills current action) (animation: "1tl0")
  1: 0x0026 [0x3B] GET_ENTITY_POSITION(entity=EventEntity, x_destination=ExtData[1]->WorkLocal[0], y_destination=ExtData[1]->WorkLocal[1], z_destination=ExtData[1]->WorkLocal[2])
  2: 0x0031 [0x37] UPDATE_EVENT_POSITION_AND_DIR: x=ExtData[1]->WorkLocal[0], z=ExtData[1]->WorkLocal[1], y=ExtData[1]->WorkLocal[2], direction=180.0°*
  3: 0x003A [0x08] ExtData[1]->WorkLocal[0] -= 600000*
  4: 0x003F [0x08] ExtData[1]->WorkLocal[2] -= 400000*
  5: 0x0044 [0x32] ExtData[1]->MainSpeed = 300* * 0.1
  6: 0x0047 [0x5A] UPDATE_EVENT_POSITION: Set EventEntity MovePosition to X=ExtData[1]->WorkLocal[0], Z=ExtData[1]->WorkLocal[1], Y=ExtData[1]->WorkLocal[2]
  7: 0x004F [0x5A] UPDATE_EVENT_POSITION: Move EventEntity incrementally towards MovePosition
  8: 0x0051 [0x00] END_REQSTACK()
```

### Event 65535.2

#### Metadata

| Field        | Value    |
|--------------|----------|
| Entrypoint   | 0x0052   |
| Data Size    | 16 bytes |
| Instructions | 2        |

```
      00 01 02 03 04 05 06 07  08 09 0A 0B 0C 0D 0E 0F
      -- -- -- -- -- -- -- --  -- -- -- -- -- -- -- --
0050:       5B 08 80 F8 FF FF  7F F8 FF FF 7F 68 6F 75    [..........hou
0060: 32 00                                             2.              
```

#### Opcodes

```
  0: 0x0052 [0x5B] LOAD_EXT_SCHEDULER: Load scheduler "hou2" with entities [EventEntity, EventEntity], work=653*
  1: 0x0061 [0x00] END_REQSTACK()
```

### Event 65535.3

#### Metadata

| Field        | Value    |
|--------------|----------|
| Entrypoint   | 0x0062   |
| Data Size    | 36 bytes |
| Instructions | 4        |

```
      00 01 02 03 04 05 06 07  08 09 0A 0B 0C 0D 0E 0F
      -- -- -- -- -- -- -- --  -- -- -- -- -- -- -- --
0060:       9F 09 80 F8 FF FF  7F F8 FF FF 7F 72 79 73    ...........rys
0070: 65 00 80 6C F8 FF FF 7F  00 80 00 80 37 0A 80 0B  e..l........7...
0080: 80 0C 80 00 80 00                                 ......          
```

#### Opcodes

```
  0: 0x0062 [0x9F] LOAD_SCHEDULED_TASK_ALT: Load scheduler "ryse" with entities [EventEntity, EventEntity], work=[106*, 0*]
  1: 0x0073 [0x6C] FADE_ENTITY_COLOR(entity_id=EventEntity, end_alpha=0*, fade_time=0*)
  2: 0x007C [0x37] UPDATE_EVENT_POSITION_AND_DIR: x=612.000*, z=615.000*, y=70.000*, direction=0.0°*
  3: 0x0085 [0x00] END_REQSTACK()
```
