# 16904344 - Ulmia

## Common Data

| Field            | Value                 |
|------------------|-----------------------|
| Zone             | Monarch Linn (ID: 31) |
| Block Size       | 1084 bytes            |
| Total Events     | 32                    |
| References Count | 53                    |

## List of Events

| Event ID                   | Entrypoint   |   Size |   Instructions |
|----------------------------|--------------|--------|----------------|
| [65535](#event-65535)      | 0x0000       |     13 |              3 |
| [32000](#event-32000)      | 0x000D       |      1 |              1 |
| [65535.1](#event-655351)   | 0x000E       |     27 |              5 |
| [65535.2](#event-655352)   | 0x0029       |     90 |             18 |
| [65535.3](#event-655353)   | 0x0083       |     15 |              5 |
| [65535.4](#event-655354)   | 0x0092       |     10 |              2 |
| [65535.5](#event-655355)   | 0x009C       |     92 |             13 |
| [65535.6](#event-655356)   | 0x00F8       |     16 |              2 |
| [65535.7](#event-655357)   | 0x0108       |     36 |              4 |
| [65535.8](#event-655358)   | 0x012C       |     10 |              2 |
| [65535.9](#event-655359)   | 0x0136       |     14 |              4 |
| [65535.10](#event-6553510) | 0x0144       |     10 |              2 |
| [65535.11](#event-6553511) | 0x014E       |     19 |              3 |
| [65535.12](#event-6553512) | 0x0161       |     11 |              3 |
| [65535.13](#event-6553513) | 0x016C       |     14 |              4 |
| [32001](#event-32001)      | 0x017A       |      1 |              1 |
| [65535.14](#event-6553514) | 0x017B       |     30 |              4 |
| [65535.15](#event-6553515) | 0x0199       |     16 |              2 |
| [65535.16](#event-6553516) | 0x01A9       |     16 |              2 |
| [65535.17](#event-6553517) | 0x01B9       |     16 |              2 |
| [65535.18](#event-6553518) | 0x01C9       |     16 |              2 |
| [65535.19](#event-6553519) | 0x01D9       |     16 |              2 |
| [65535.20](#event-6553520) | 0x01E9       |     16 |              2 |
| [65535.21](#event-6553521) | 0x01F9       |     16 |              2 |
| [65535.22](#event-6553522) | 0x0209       |     29 |              3 |
| [65535.23](#event-6553523) | 0x0226       |     29 |              3 |
| [65535.24](#event-6553524) | 0x0243       |     16 |              2 |
| [65535.25](#event-6553525) | 0x0253       |     41 |              5 |
| [65535.26](#event-6553526) | 0x027C       |     16 |              2 |
| [65535.27](#event-6553527) | 0x028C       |     29 |              3 |
| [65535.28](#event-6553528) | 0x02A9       |     16 |              2 |
| [65535.29](#event-6553529) | 0x02B9       |     29 |              3 |

## DAT References (imed_data)

|   Index | Hex Value   |   Dec Value |
|---------|-------------|-------------|
|       0 | 0x9CD37     |      642359 |
|       1 | 0x92636     |      599606 |
|       2 | 0xF8DC      |       63708 |
|       3 | 0x076C      |        1900 |
|       4 | 0xFFFFF448  |  4294964296 |
|       5 | 0x09C4      |        2500 |
|       6 | 0x000D      |          13 |
|       7 | 0x9C446     |      640070 |
|       8 | 0x925A9     |      599465 |
|       9 | 0xF925      |       63781 |
|      10 | 0x9A751     |      632657 |
|      11 | 0x9246A     |      599146 |
|      12 | 0xFAB6      |       64182 |
|      13 | 0x07E3      |        2019 |
|      14 | 0x01A6      |         422 |
|      15 | 0x98CC9     |      625865 |
|      16 | 0x92F15     |      601877 |
|      17 | 0xF880      |       63616 |
|      18 | 0x06EA      |        1770 |
|      19 | 0x0028      |          40 |
|      20 | 0x97ECA     |      622282 |
|      21 | 0x928C3     |      600259 |
|      22 | 0xFA65      |       64101 |
|      23 | 0x066A      |        1642 |
|      24 | 0x05EE      |        1518 |
|      25 | 0x000A      |          10 |
|      26 | 0x004E      |          78 |
|      27 | 0x0000      |           0 |
|      28 | 0x0800      |        2048 |
|      29 | 0xA5AF6     |      678646 |
|      30 | 0x92BA6     |      600998 |
|      31 | 0x138A0     |       80032 |
|      32 | 0x07D2      |        2002 |
|      33 | 0xA4100     |      672000 |
|      34 | 0x92B52     |      600914 |
|      35 | 0x1390F     |       80143 |
|      36 | 0x9E007     |      647175 |
|      37 | 0x92B0A     |      600842 |
|      38 | 0x13885     |       80005 |
|      39 | 0x081F      |        2079 |
|      40 | 0x0080      |         128 |
|      41 | 0x9C880     |      641152 |
|      42 | 0x92A0F     |      600591 |
|      43 | 0x1395E     |       80222 |
|      44 | 0x9D064     |      643172 |
|      45 | 0x923D3     |      598995 |
|      46 | 0x138AF     |       80047 |
|      47 | 0x07F8      |        2040 |
|      48 | 0x0279      |         633 |
|      49 | 0x01A8      |         424 |
|      50 | 0x01A4      |         420 |
|      51 | 0x027A      |         634 |
|      52 | 0x01A7      |         423 |

## Events

### Event 65535

#### Metadata

| Field        | Value    |
|--------------|----------|
| Entrypoint   | 0x0000   |
| Data Size    | 13 bytes |
| Instructions | 3        |

```
      00 01 02 03 04 05 06 07  08 09 0A 0B 0C 0D 0E 0F
      -- -- -- -- -- -- -- --  -- -- -- -- -- -- -- --
0000: 94 01 F8 FF FF 7F 92 01  F8 FF FF 7F 00           .............   
```

#### Opcodes

```
  0: 0x0000 [0x94] EventEntity->Render.Flags3 ^= 0x01
  1: 0x0006 [0x92] EventEntity->Render.Flags3 ^= 0x01
  2: 0x000C [0x00] END_REQSTACK()
```

### Event 32000

#### Metadata

| Field        | Value   |
|--------------|---------|
| Entrypoint   | 0x000D  |
| Data Size    | 1 bytes |
| Instructions | 1       |

```
      00 01 02 03 04 05 06 07  08 09 0A 0B 0C 0D 0E 0F
      -- -- -- -- -- -- -- --  -- -- -- -- -- -- -- --
0000:                                         00                     .  
```

#### Opcodes

```
  0: 0x000D [0x00] END_REQSTACK()
```

### Event 65535.1

#### Metadata

| Field        | Value    |
|--------------|----------|
| Entrypoint   | 0x000E   |
| Data Size    | 27 bytes |
| Instructions | 5        |

```
      00 01 02 03 04 05 06 07  08 09 0A 0B 0C 0D 0E 0F
      -- -- -- -- -- -- -- --  -- -- -- -- -- -- -- --
0000:                                            37 00                7.
0010: 80 01 80 02 80 03 80 03  00 00 04 80 1A 3F 00 37  .............?.7
0020: 01 00 02 00 03 00 04 00  00                       .........       
```

#### Opcodes

```
  0: 0x000E [0x37] UPDATE_EVENT_POSITION_AND_DIR: x=642.359*, z=599.606*, y=63.708*, direction=167.0°*
  1: 0x0017 [0x03] ExtData[1]->WorkLocal[0] = 4294964296*
  2: 0x001C [0x1A] CALL_SUBROUTINE(address=0x003F)
  3: 0x001F [0x37] UPDATE_EVENT_POSITION_AND_DIR: x=ExtData[1]->WorkLocal[1], z=ExtData[1]->WorkLocal[2], y=ExtData[1]->WorkLocal[3], direction=ExtData[1]->WorkLocal[4]
  4: 0x0028 [0x00] END_REQSTACK()
```

### Event 65535.2

#### Metadata

| Field        | Value    |
|--------------|----------|
| Entrypoint   | 0x0029   |
| Data Size    | 90 bytes |
| Instructions | 13       |

```
      00 01 02 03 04 05 06 07  08 09 0A 0B 0C 0D 0E 0F
      -- -- -- -- -- -- -- --  -- -- -- -- -- -- -- --
0020:                             03 00 00 05 80 1A 3F           ......?
0030: 00 32 06 80 1F 00 01 00  02 00 03 00 1F 01 00 3B  .2.............;
0040: F8 FF FF 7F 01 00 02 00  03 00 3A F8 FF FF 7F 04  ..........:.....
0050: 00 17 05 00 04 00 00 00  16 06 00 04 00 00 00 07  ................
0060: 01 00 05 00 07 02 00 06  00 1B 17 05 00 04 00 00  ................
0070: 00 16 06 00 04 00 00 00  07 01 00 05 00 07 02 00  ................
0080: 06 00 1B                                          ...             
```

#### Opcodes

```
  0: 0x0029 [0x03] ExtData[1]->WorkLocal[0] = 2500*
  1: 0x002E [0x1A] CALL_SUBROUTINE(address=0x003F)
  2: 0x0031 [0x32] ExtData[1]->MainSpeed = 13* * 0.1
  3: 0x0034 [0x1F] MOVE_ENTITY: EventEntity moves to X=ExtData[1]->WorkLocal[1], Z=ExtData[1]->WorkLocal[2], Y=ExtData[1]->WorkLocal[3]
  4: 0x003C [0x1F] MOVE_ENTITY: Update entity position (mode=1)
  5: 0x003E [0x00] END_REQSTACK()

SUBROUTINE_003F:
  6: 0x003F [0x3B] GET_ENTITY_POSITION(entity=EventEntity, x_destination=ExtData[1]->WorkLocal[1], y_destination=ExtData[1]->WorkLocal[2], z_destination=ExtData[1]->WorkLocal[3])
  7: 0x004A [0x3A] CONVERT_YAW_TO_BYTE(entity=EventEntity, result_destination=ExtData[1]->WorkLocal[4])
  8: 0x0051 [0x17] ExtData[1]->WorkLocal[5] = cos(ExtData[1]->WorkLocal[4]) * ExtData[1]->WorkLocal[0]
  9: 0x0058 [0x16] ExtData[1]->WorkLocal[6] = sin(ExtData[1]->WorkLocal[4]) * ExtData[1]->WorkLocal[0]
 10: 0x005F [0x07] ExtData[1]->WorkLocal[1] += ExtData[1]->WorkLocal[5]
 11: 0x0064 [0x07] ExtData[1]->WorkLocal[2] += ExtData[1]->WorkLocal[6]
 12: 0x0069 [0x1B] RETURN
```

#### Data or dead code:

```
# Dead code (unreachable instructions):
     0x006A [0x17] ExtData[1]->WorkLocal[5] = cos(ExtData[1]->WorkLocal[4]) * ExtData[1]->WorkLocal[0]
     0x0071 [0x16] ExtData[1]->WorkLocal[6] = sin(ExtData[1]->WorkLocal[4]) * ExtData[1]->WorkLocal[0]
     0x0078 [0x07] ExtData[1]->WorkLocal[1] += ExtData[1]->WorkLocal[5]
     0x007D [0x07] ExtData[1]->WorkLocal[2] += ExtData[1]->WorkLocal[6]
     0x0082 [0x1B] RETURN
```

### Event 65535.3

#### Metadata

| Field        | Value    |
|--------------|----------|
| Entrypoint   | 0x0083   |
| Data Size    | 15 bytes |
| Instructions | 5        |

```
      00 01 02 03 04 05 06 07  08 09 0A 0B 0C 0D 0E 0F
      -- -- -- -- -- -- -- --  -- -- -- -- -- -- -- --
0080:          32 06 80 1F 00  07 80 08 80 09 80 1F 01     2............
0090: 6F 00                                             o.              
```

#### Opcodes

```
  0: 0x0083 [0x32] ExtData[1]->MainSpeed = 13* * 0.1
  1: 0x0086 [0x1F] MOVE_ENTITY: EventEntity moves to X=640.070*, Z=599.465*, Y=63.781*
  2: 0x008E [0x1F] MOVE_ENTITY: Update entity position (mode=1)
  3: 0x0090 [0x6F] WAIT_FRAME_DELAY: Yield until WaitTime reaches zero
  4: 0x0091 [0x00] END_REQSTACK()
```

### Event 65535.4

#### Metadata

| Field        | Value    |
|--------------|----------|
| Entrypoint   | 0x0092   |
| Data Size    | 10 bytes |
| Instructions | 2        |

```
      00 01 02 03 04 05 06 07  08 09 0A 0B 0C 0D 0E 0F
      -- -- -- -- -- -- -- --  -- -- -- -- -- -- -- --
0090:       37 0A 80 0B 80 0C  80 0D 80 00                7.........    
```

#### Opcodes

```
  0: 0x0092 [0x37] UPDATE_EVENT_POSITION_AND_DIR: x=632.657*, z=599.146*, y=64.182*, direction=177.4°*
  1: 0x009B [0x00] END_REQSTACK()
```

### Event 65535.5

#### Metadata

| Field        | Value    |
|--------------|----------|
| Entrypoint   | 0x009C   |
| Data Size    | 92 bytes |
| Instructions | 13       |

```
      00 01 02 03 04 05 06 07  08 09 0A 0B 0C 0D 0E 0F
      -- -- -- -- -- -- -- --  -- -- -- -- -- -- -- --
0090:                                      5E 69 64 6C              ^idl
00A0: 30 5B 0E 80 F8 FF FF 7F  F8 FF FF 7F 00 FE FE FE  0[..............
00B0: 33 01 37 0F 80 10 80 11  80 12 80 32 13 80 5A 00  3.7........2..Z.
00C0: 14 80 15 80 16 80 5A 01  37 14 80 15 80 16 80 17  ......Z.7.......
00D0: 80 39 18 80 1C 19 80 45  1A 80 F0 FF FF 7F F0 FF  .9.....E........
00E0: FF 7F 7A 30 30 39 1B 80  5B 0E 80 F8 FF FF 7F F8  ..z009..[.......
00F0: FF FF 7F 6B 61 69 30 00                           ...kai0.        
```

#### Opcodes

```
  0: 0x009C [0x5E] EventEntity goes idle (kills current action) (animation: "idl0")
  1: 0x00A1 [0x5B] LOAD_EXT_SCHEDULER: Load scheduler 0xFEFEFE00 with entities [EventEntity, EventEntity], work=422*
  2: 0x00B0 [0x33] EventEntity->Render.Flags0 |= 0x200000 // Bit 21 (flag=0x01)
  3: 0x00B2 [0x37] UPDATE_EVENT_POSITION_AND_DIR: x=625.865*, z=601.877*, y=63.616*, direction=155.6°*
  4: 0x00BB [0x32] ExtData[1]->MainSpeed = 40* * 0.1
  5: 0x00BE [0x5A] UPDATE_EVENT_POSITION: Set EventEntity MovePosition to X=622.282*, Z=600.259*, Y=64.101*
  6: 0x00C6 [0x5A] UPDATE_EVENT_POSITION: Move EventEntity incrementally towards MovePosition
  7: 0x00C8 [0x37] UPDATE_EVENT_POSITION_AND_DIR: x=622.282*, z=600.259*, y=64.101*, direction=144.3°*
  8: 0x00D1 [0x39] SET_ENTITY_DIRECTION(direction=8.3°*)
  9: 0x00D4 [0x1C] WAIT(10* ticks)
 10: 0x00D7 [0x45] LOAD_SCHEDULED_TASK: Load scheduler "z009" with entities [LocalPlayer, LocalPlayer], work=[78*, 0*]
 11: 0x00E8 [0x5B] LOAD_EXT_SCHEDULER: Load scheduler "kai0" with entities [EventEntity, EventEntity], work=422*
 12: 0x00F7 [0x00] END_REQSTACK()
```

### Event 65535.6

#### Metadata

| Field        | Value    |
|--------------|----------|
| Entrypoint   | 0x00F8   |
| Data Size    | 16 bytes |
| Instructions | 2        |

```
      00 01 02 03 04 05 06 07  08 09 0A 0B 0C 0D 0E 0F
      -- -- -- -- -- -- -- --  -- -- -- -- -- -- -- --
00F0:                          5B 0E 80 F8 FF FF 7F F8          [.......
0100: FF FF 7F 6B 61 69 31 00                           ...kai1.        
```

#### Opcodes

```
  0: 0x00F8 [0x5B] LOAD_EXT_SCHEDULER: Load scheduler "kai1" with entities [EventEntity, EventEntity], work=422*
  1: 0x0107 [0x00] END_REQSTACK()
```

### Event 65535.7

#### Metadata

| Field        | Value    |
|--------------|----------|
| Entrypoint   | 0x0108   |
| Data Size    | 36 bytes |
| Instructions | 4        |

```
      00 01 02 03 04 05 06 07  08 09 0A 0B 0C 0D 0E 0F
      -- -- -- -- -- -- -- --  -- -- -- -- -- -- -- --
0100:                          3B F8 FF FF 7F 07 00 08          ;.......
0110: 00 09 00 37 07 00 08 00  09 00 1C 80 5B 0E 80 F8  ...7........[...
0120: FF FF 7F F8 FF FF 7F 6B  61 69 32 00              .......kai2.    
```

#### Opcodes

```
  0: 0x0108 [0x3B] GET_ENTITY_POSITION(entity=EventEntity, x_destination=ExtData[1]->WorkLocal[7], y_destination=ExtData[1]->WorkLocal[8], z_destination=ExtData[1]->WorkLocal[9])
  1: 0x0113 [0x37] UPDATE_EVENT_POSITION_AND_DIR: x=ExtData[1]->WorkLocal[7], z=ExtData[1]->WorkLocal[8], y=ExtData[1]->WorkLocal[9], direction=180.0°*
  2: 0x011C [0x5B] LOAD_EXT_SCHEDULER: Load scheduler "kai2" with entities [EventEntity, EventEntity], work=422*
  3: 0x012B [0x00] END_REQSTACK()
```

### Event 65535.8

#### Metadata

| Field        | Value    |
|--------------|----------|
| Entrypoint   | 0x012C   |
| Data Size    | 10 bytes |
| Instructions | 2        |

```
      00 01 02 03 04 05 06 07  08 09 0A 0B 0C 0D 0E 0F
      -- -- -- -- -- -- -- --  -- -- -- -- -- -- -- --
0120:                                      37 1D 80 1E              7...
0130: 80 1F 80 20 80 00                                 ... ..          
```

#### Opcodes

```
  0: 0x012C [0x37] UPDATE_EVENT_POSITION_AND_DIR: x=678.646*, z=600.998*, y=80.032*, direction=176.0°*
  1: 0x0135 [0x00] END_REQSTACK()
```

### Event 65535.9

#### Metadata

| Field        | Value    |
|--------------|----------|
| Entrypoint   | 0x0136   |
| Data Size    | 14 bytes |
| Instructions | 4        |

```
      00 01 02 03 04 05 06 07  08 09 0A 0B 0C 0D 0E 0F
      -- -- -- -- -- -- -- --  -- -- -- -- -- -- -- --
0130:                   32 06  80 1F 00 21 80 22 80 23        2....!.".#
0140: 80 1F 01 00                                       ....            
```

#### Opcodes

```
  0: 0x0136 [0x32] ExtData[1]->MainSpeed = 13* * 0.1
  1: 0x0139 [0x1F] MOVE_ENTITY: EventEntity moves to X=672.000*, Z=600.914*, Y=80.143*
  2: 0x0141 [0x1F] MOVE_ENTITY: Update entity position (mode=1)
  3: 0x0143 [0x00] END_REQSTACK()
```

### Event 65535.10

#### Metadata

| Field        | Value    |
|--------------|----------|
| Entrypoint   | 0x0144   |
| Data Size    | 10 bytes |
| Instructions | 2        |

```
      00 01 02 03 04 05 06 07  08 09 0A 0B 0C 0D 0E 0F
      -- -- -- -- -- -- -- --  -- -- -- -- -- -- -- --
0140:             37 24 80 25  80 26 80 27 80 00            7$.%.&.'..  
```

#### Opcodes

```
  0: 0x0144 [0x37] UPDATE_EVENT_POSITION_AND_DIR: x=647.175*, z=600.842*, y=80.005*, direction=182.7°*
  1: 0x014D [0x00] END_REQSTACK()
```

### Event 65535.11

#### Metadata

| Field        | Value    |
|--------------|----------|
| Entrypoint   | 0x014E   |
| Data Size    | 19 bytes |
| Instructions | 3        |

```
      00 01 02 03 04 05 06 07  08 09 0A 0B 0C 0D 0E 0F
      -- -- -- -- -- -- -- --  -- -- -- -- -- -- -- --
0140:                                            6C F8                l.
0150: FF FF 7F 28 80 1B 80 37  24 80 25 80 26 80 27 80  ...(...7$.%.&.'.
0160: 00                                                .               
```

#### Opcodes

```
  0: 0x014E [0x6C] FADE_ENTITY_COLOR(entity_id=EventEntity, end_alpha=128*, fade_time=0*)
  1: 0x0157 [0x37] UPDATE_EVENT_POSITION_AND_DIR: x=647.175*, z=600.842*, y=80.005*, direction=182.7°*
  2: 0x0160 [0x00] END_REQSTACK()
```

### Event 65535.12

#### Metadata

| Field        | Value    |
|--------------|----------|
| Entrypoint   | 0x0161   |
| Data Size    | 11 bytes |
| Instructions | 3        |

```
      00 01 02 03 04 05 06 07  08 09 0A 0B 0C 0D 0E 0F
      -- -- -- -- -- -- -- --  -- -- -- -- -- -- -- --
0160:    32 13 80 27 03 98 F0  01 01 1A 00               2..'.......    
```

#### Opcodes

```
  0: 0x0161 [0x32] ExtData[1]->MainSpeed = 40* * 0.1
  1: 0x0164 [0x27] REQ_SET(priority=0x03, entity_id=Ulmia (ID: 16904344/0x0101F098), tag_num=0x1A)
  2: 0x016B [0x00] END_REQSTACK()
```

### Event 65535.13

#### Metadata

| Field        | Value    |
|--------------|----------|
| Entrypoint   | 0x016C   |
| Data Size    | 14 bytes |
| Instructions | 4        |

```
      00 01 02 03 04 05 06 07  08 09 0A 0B 0C 0D 0E 0F
      -- -- -- -- -- -- -- --  -- -- -- -- -- -- -- --
0160:                                      32 13 80 1F              2...
0170: 00 29 80 2A 80 2B 80 1F  01 00                    .).*.+....      
```

#### Opcodes

```
  0: 0x016C [0x32] ExtData[1]->MainSpeed = 40* * 0.1
  1: 0x016F [0x1F] MOVE_ENTITY: EventEntity moves to X=641.152*, Z=600.591*, Y=80.222*
  2: 0x0177 [0x1F] MOVE_ENTITY: Update entity position (mode=1)
  3: 0x0179 [0x00] END_REQSTACK()
```

### Event 32001

#### Metadata

| Field        | Value   |
|--------------|---------|
| Entrypoint   | 0x017A  |
| Data Size    | 1 bytes |
| Instructions | 1       |

```
      00 01 02 03 04 05 06 07  08 09 0A 0B 0C 0D 0E 0F
      -- -- -- -- -- -- -- --  -- -- -- -- -- -- -- --
0170:                                00                           .     
```

#### Opcodes

```
  0: 0x017A [0x00] END_REQSTACK()
```

### Event 65535.14

#### Metadata

| Field        | Value    |
|--------------|----------|
| Entrypoint   | 0x017B   |
| Data Size    | 30 bytes |
| Instructions | 4        |

```
      00 01 02 03 04 05 06 07  08 09 0A 0B 0C 0D 0E 0F
      -- -- -- -- -- -- -- --  -- -- -- -- -- -- -- --
0170:                                   37 2C 80 2D 80             7,.-.
0180: 2E 80 2F 80 80 F8 FF FF  7F 5B 30 80 F8 FF FF 7F  ../......[0.....
0190: F8 FF FF 7F 6D 74 65 30  00                       ....mte0.       
```

#### Opcodes

```
  0: 0x017B [0x37] UPDATE_EVENT_POSITION_AND_DIR: x=643.172*, z=598.995*, y=80.047*, direction=179.3°*
  1: 0x0184 [0x80] LOAD_WAIT(entity=EventEntity)
  2: 0x0189 [0x5B] LOAD_EXT_SCHEDULER: Load scheduler "mte0" with entities [EventEntity, EventEntity], work=633*
  3: 0x0198 [0x00] END_REQSTACK()
```

### Event 65535.15

#### Metadata

| Field        | Value    |
|--------------|----------|
| Entrypoint   | 0x0199   |
| Data Size    | 16 bytes |
| Instructions | 2        |

```
      00 01 02 03 04 05 06 07  08 09 0A 0B 0C 0D 0E 0F
      -- -- -- -- -- -- -- --  -- -- -- -- -- -- -- --
0190:                             5B 31 80 F8 FF FF 7F           [1.....
01A0: F8 FF FF 7F 63 34 30 30  00                       ....c400.       
```

#### Opcodes

```
  0: 0x0199 [0x5B] LOAD_EXT_SCHEDULER: Load scheduler "c400" with entities [EventEntity, EventEntity], work=424*
  1: 0x01A8 [0x00] END_REQSTACK()
```

### Event 65535.16

#### Metadata

| Field        | Value    |
|--------------|----------|
| Entrypoint   | 0x01A9   |
| Data Size    | 16 bytes |
| Instructions | 2        |

```
      00 01 02 03 04 05 06 07  08 09 0A 0B 0C 0D 0E 0F
      -- -- -- -- -- -- -- --  -- -- -- -- -- -- -- --
01A0:                             5B 31 80 F8 FF FF 7F           [1.....
01B0: F8 FF FF 7F 63 34 30 32  00                       ....c402.       
```

#### Opcodes

```
  0: 0x01A9 [0x5B] LOAD_EXT_SCHEDULER: Load scheduler "c402" with entities [EventEntity, EventEntity], work=424*
  1: 0x01B8 [0x00] END_REQSTACK()
```

### Event 65535.17

#### Metadata

| Field        | Value    |
|--------------|----------|
| Entrypoint   | 0x01B9   |
| Data Size    | 16 bytes |
| Instructions | 2        |

```
      00 01 02 03 04 05 06 07  08 09 0A 0B 0C 0D 0E 0F
      -- -- -- -- -- -- -- --  -- -- -- -- -- -- -- --
01B0:                             5B 32 80 F8 FF FF 7F           [2.....
01C0: F8 FF FF 7F 74 6C 63 30  00                       ....tlc0.       
```

#### Opcodes

```
  0: 0x01B9 [0x5B] LOAD_EXT_SCHEDULER: Load scheduler "tlc0" with entities [EventEntity, EventEntity], work=420*
  1: 0x01C8 [0x00] END_REQSTACK()
```

### Event 65535.18

#### Metadata

| Field        | Value    |
|--------------|----------|
| Entrypoint   | 0x01C9   |
| Data Size    | 16 bytes |
| Instructions | 2        |

```
      00 01 02 03 04 05 06 07  08 09 0A 0B 0C 0D 0E 0F
      -- -- -- -- -- -- -- --  -- -- -- -- -- -- -- --
01C0:                             5B 32 80 F8 FF FF 7F           [2.....
01D0: F8 FF FF 7F 74 6C 63 31  00                       ....tlc1.       
```

#### Opcodes

```
  0: 0x01C9 [0x5B] LOAD_EXT_SCHEDULER: Load scheduler "tlc1" with entities [EventEntity, EventEntity], work=420*
  1: 0x01D8 [0x00] END_REQSTACK()
```

### Event 65535.19

#### Metadata

| Field        | Value    |
|--------------|----------|
| Entrypoint   | 0x01D9   |
| Data Size    | 16 bytes |
| Instructions | 2        |

```
      00 01 02 03 04 05 06 07  08 09 0A 0B 0C 0D 0E 0F
      -- -- -- -- -- -- -- --  -- -- -- -- -- -- -- --
01D0:                             5B 30 80 F8 FF FF 7F           [0.....
01E0: F8 FF FF 7F 6B 7A 65 30  00                       ....kze0.       
```

#### Opcodes

```
  0: 0x01D9 [0x5B] LOAD_EXT_SCHEDULER: Load scheduler "kze0" with entities [EventEntity, EventEntity], work=633*
  1: 0x01E8 [0x00] END_REQSTACK()
```

### Event 65535.20

#### Metadata

| Field        | Value    |
|--------------|----------|
| Entrypoint   | 0x01E9   |
| Data Size    | 16 bytes |
| Instructions | 2        |

```
      00 01 02 03 04 05 06 07  08 09 0A 0B 0C 0D 0E 0F
      -- -- -- -- -- -- -- --  -- -- -- -- -- -- -- --
01E0:                             5B 30 80 F8 FF FF 7F           [0.....
01F0: F8 FF FF 7F 6B 7A 65 31  00                       ....kze1.       
```

#### Opcodes

```
  0: 0x01E9 [0x5B] LOAD_EXT_SCHEDULER: Load scheduler "kze1" with entities [EventEntity, EventEntity], work=633*
  1: 0x01F8 [0x00] END_REQSTACK()
```

### Event 65535.21

#### Metadata

| Field        | Value    |
|--------------|----------|
| Entrypoint   | 0x01F9   |
| Data Size    | 16 bytes |
| Instructions | 2        |

```
      00 01 02 03 04 05 06 07  08 09 0A 0B 0C 0D 0E 0F
      -- -- -- -- -- -- -- --  -- -- -- -- -- -- -- --
01F0:                             5B 32 80 F8 FF FF 7F           [2.....
0200: F8 FF FF 7F 74 6C 61 30  00                       ....tla0.       
```

#### Opcodes

```
  0: 0x01F9 [0x5B] LOAD_EXT_SCHEDULER: Load scheduler "tla0" with entities [EventEntity, EventEntity], work=420*
  1: 0x0208 [0x00] END_REQSTACK()
```

### Event 65535.22

#### Metadata

| Field        | Value    |
|--------------|----------|
| Entrypoint   | 0x0209   |
| Data Size    | 29 bytes |
| Instructions | 3        |

```
      00 01 02 03 04 05 06 07  08 09 0A 0B 0C 0D 0E 0F
      -- -- -- -- -- -- -- --  -- -- -- -- -- -- -- --
0200:                             5B 32 80 F8 FF FF 7F           [2.....
0210: F8 FF FF 7F 74 6C 61 31  53 F8 FF FF 7F F8 FF FF  ....tla1S.......
0220: 7F 74 6C 61 31 00                                 .tla1.          
```

#### Opcodes

```
  0: 0x0209 [0x5B] LOAD_EXT_SCHEDULER: Load scheduler "tla1" with entities [EventEntity, EventEntity], work=420*
  1: 0x0218 [0x53] WAIT_SCHEDULER_TASK: Wait for scheduler "tla1" with entities [EventEntity, EventEntity]
  2: 0x0225 [0x00] END_REQSTACK()
```

### Event 65535.23

#### Metadata

| Field        | Value    |
|--------------|----------|
| Entrypoint   | 0x0226   |
| Data Size    | 29 bytes |
| Instructions | 3        |

```
      00 01 02 03 04 05 06 07  08 09 0A 0B 0C 0D 0E 0F
      -- -- -- -- -- -- -- --  -- -- -- -- -- -- -- --
0220:                   5B 33  80 F8 FF FF 7F F8 FF FF        [3........
0230: 7F 6C 75 70 30 53 F8 FF  FF 7F F8 FF FF 7F 6C 75  .lup0S........lu
0240: 70 30 00                                          p0.             
```

#### Opcodes

```
  0: 0x0226 [0x5B] LOAD_EXT_SCHEDULER: Load scheduler "lup0" with entities [EventEntity, EventEntity], work=634*
  1: 0x0235 [0x53] WAIT_SCHEDULER_TASK: Wait for scheduler "lup0" with entities [EventEntity, EventEntity]
  2: 0x0242 [0x00] END_REQSTACK()
```

### Event 65535.24

#### Metadata

| Field        | Value    |
|--------------|----------|
| Entrypoint   | 0x0243   |
| Data Size    | 16 bytes |
| Instructions | 2        |

```
      00 01 02 03 04 05 06 07  08 09 0A 0B 0C 0D 0E 0F
      -- -- -- -- -- -- -- --  -- -- -- -- -- -- -- --
0240:          5B 30 80 F8 FF  FF 7F F8 FF FF 7F 6D 74     [0.........mt
0250: 65 30 00                                          e0.             
```

#### Opcodes

```
  0: 0x0243 [0x5B] LOAD_EXT_SCHEDULER: Load scheduler "mte0" with entities [EventEntity, EventEntity], work=633*
  1: 0x0252 [0x00] END_REQSTACK()
```

### Event 65535.25

#### Metadata

| Field        | Value    |
|--------------|----------|
| Entrypoint   | 0x0253   |
| Data Size    | 41 bytes |
| Instructions | 5        |

```
      00 01 02 03 04 05 06 07  08 09 0A 0B 0C 0D 0E 0F
      -- -- -- -- -- -- -- --  -- -- -- -- -- -- -- --
0250:          81 00 F8 FF FF  7F 7C 00 F8 FF FF 7F 5B     ......|.....[
0260: 33 80 F8 FF FF 7F F8 FF  FF 7F 6B 64 75 30 53 F8  3.........kdu0S.
0270: FF FF 7F F8 FF FF 7F 6B  64 75 30 00              .......kdu0.    
```

#### Opcodes

```
  0: 0x0253 [0x81] SET_ENTITY_BLINKING(blink_flag=0x00, entity=EventEntity)
  1: 0x0259 [0x7C] EventEntity->Render.Flags2 |= 0x00
  2: 0x025F [0x5B] LOAD_EXT_SCHEDULER: Load scheduler "kdu0" with entities [EventEntity, EventEntity], work=634*
  3: 0x026E [0x53] WAIT_SCHEDULER_TASK: Wait for scheduler "kdu0" with entities [EventEntity, EventEntity]
  4: 0x027B [0x00] END_REQSTACK()
```

### Event 65535.26

#### Metadata

| Field        | Value    |
|--------------|----------|
| Entrypoint   | 0x027C   |
| Data Size    | 16 bytes |
| Instructions | 2        |

```
      00 01 02 03 04 05 06 07  08 09 0A 0B 0C 0D 0E 0F
      -- -- -- -- -- -- -- --  -- -- -- -- -- -- -- --
0270:                                      5B 32 80 F8              [2..
0280: FF FF 7F F8 FF FF 7F 74  6C 62 30 00              .......tlb0.    
```

#### Opcodes

```
  0: 0x027C [0x5B] LOAD_EXT_SCHEDULER: Load scheduler "tlb0" with entities [EventEntity, EventEntity], work=420*
  1: 0x028B [0x00] END_REQSTACK()
```

### Event 65535.27

#### Metadata

| Field        | Value    |
|--------------|----------|
| Entrypoint   | 0x028C   |
| Data Size    | 29 bytes |
| Instructions | 3        |

```
      00 01 02 03 04 05 06 07  08 09 0A 0B 0C 0D 0E 0F
      -- -- -- -- -- -- -- --  -- -- -- -- -- -- -- --
0280:                                      5B 32 80 F8              [2..
0290: FF FF 7F F8 FF FF 7F 74  6C 62 31 53 F8 FF FF 7F  .......tlb1S....
02A0: F8 FF FF 7F 74 6C 62 31  00                       ....tlb1.       
```

#### Opcodes

```
  0: 0x028C [0x5B] LOAD_EXT_SCHEDULER: Load scheduler "tlb1" with entities [EventEntity, EventEntity], work=420*
  1: 0x029B [0x53] WAIT_SCHEDULER_TASK: Wait for scheduler "tlb1" with entities [EventEntity, EventEntity]
  2: 0x02A8 [0x00] END_REQSTACK()
```

### Event 65535.28

#### Metadata

| Field        | Value    |
|--------------|----------|
| Entrypoint   | 0x02A9   |
| Data Size    | 16 bytes |
| Instructions | 2        |

```
      00 01 02 03 04 05 06 07  08 09 0A 0B 0C 0D 0E 0F
      -- -- -- -- -- -- -- --  -- -- -- -- -- -- -- --
02A0:                             5B 34 80 F8 FF FF 7F           [4.....
02B0: F8 FF FF 7F 68 74 61 30  00                       ....hta0.       
```

#### Opcodes

```
  0: 0x02A9 [0x5B] LOAD_EXT_SCHEDULER: Load scheduler "hta0" with entities [EventEntity, EventEntity], work=423*
  1: 0x02B8 [0x00] END_REQSTACK()
```

### Event 65535.29

#### Metadata

| Field        | Value    |
|--------------|----------|
| Entrypoint   | 0x02B9   |
| Data Size    | 29 bytes |
| Instructions | 3        |

```
      00 01 02 03 04 05 06 07  08 09 0A 0B 0C 0D 0E 0F
      -- -- -- -- -- -- -- --  -- -- -- -- -- -- -- --
02B0:                             5B 34 80 F8 FF FF 7F           [4.....
02C0: F8 FF FF 7F 68 74 61 31  53 F8 FF FF 7F F8 FF FF  ....hta1S.......
02D0: 7F 68 74 61 31 00                                 .hta1.          
```

#### Opcodes

```
  0: 0x02B9 [0x5B] LOAD_EXT_SCHEDULER: Load scheduler "hta1" with entities [EventEntity, EventEntity], work=423*
  1: 0x02C8 [0x53] WAIT_SCHEDULER_TASK: Wait for scheduler "hta1" with entities [EventEntity, EventEntity]
  2: 0x02D5 [0x00] END_REQSTACK()
```
