# 16904357 - Bahamut

## Common Data

| Field            | Value                 |
|------------------|-----------------------|
| Zone             | Monarch Linn (ID: 31) |
| Block Size       | 872 bytes             |
| Total Events     | 16                    |
| References Count | 28                    |

## List of Events

| Event ID                   | Entrypoint   |   Size |   Instructions |
|----------------------------|--------------|--------|----------------|
| [65535](#event-65535)      | 0x0000       |     15 |              4 |
| [32000](#event-32000)      | 0x000F       |      1 |              1 |
| [65535.1](#event-655351)   | 0x0010       |     10 |              2 |
| [65535.2](#event-655352)   | 0x001A       |     10 |              2 |
| [65535.3](#event-655353)   | 0x0024       |     67 |             12 |
| [65535.4](#event-655354)   | 0x0067       |     67 |             12 |
| [65535.5](#event-655355)   | 0x00AA       |     37 |              7 |
| [65535.6](#event-655356)   | 0x00CF       |     44 |              8 |
| [65535.7](#event-655357)   | 0x00FB       |     10 |              2 |
| [65535.8](#event-655358)   | 0x0105       |     16 |              2 |
| [32001](#event-32001)      | 0x0115       |      1 |              1 |
| [65535.9](#event-655359)   | 0x0116       |     80 |              6 |
| [65535.10](#event-6553510) | 0x0166       |     50 |              4 |
| [65535.11](#event-6553511) | 0x0198       |     92 |              8 |
| [65535.12](#event-6553512) | 0x01F4       |     93 |              7 |
| [65535.13](#event-6553513) | 0x0251       |     87 |              8 |

## DAT References (imed_data)

|   Index | Hex Value   |   Dec Value |
|---------|-------------|-------------|
|       0 | 0x96258     |      615000 |
|       1 | 0x927C0     |      600000 |
|       2 | 0x103C4     |       66500 |
|       3 | 0x0000      |           0 |
|       4 | 0xA604      |       42500 |
|       5 | 0x0400      |        1024 |
|       6 | 0x0C00      |        3072 |
|       7 | 0x0EA6      |        3750 |
|       8 | 0x0010      |          16 |
|       9 | 0x0001      |           1 |
|      10 | 0x35B6      |       13750 |
|      11 | 0x012C      |         300 |
|      12 | 0xAFC8      |       45000 |
|      13 | 0x0800      |        2048 |
|      14 | 0x61A80     |      400000 |
|      15 | 0x11364     |       70500 |
|      16 | 0xFFFFFE00  |  4294966784 |
|      17 | 0x01F5      |         501 |
|      18 | 0x006A      |         106 |
|      19 | 0x004D      |          77 |
|      20 | 0x01F4      |         500 |
|      21 | 0x93B48     |      605000 |
|      22 | 0x11D28     |       73000 |
|      23 | 0x006D      |         109 |
|      24 | 0x01F6      |         502 |
|      25 | 0x02A5      |         677 |
|      26 | 0x02A6      |         678 |
|      27 | 0x00B4      |         180 |

## Events

### Event 65535

#### Metadata

| Field        | Value    |
|--------------|----------|
| Entrypoint   | 0x0000   |
| Data Size    | 15 bytes |
| Instructions | 4        |

```
      00 01 02 03 04 05 06 07  08 09 0A 0B 0C 0D 0E 0F
      -- -- -- -- -- -- -- --  -- -- -- -- -- -- -- --
0000: 94 01 F8 FF FF 7F 33 01  92 01 F8 FF FF 7F 00     ......3........ 
```

#### Opcodes

```
  0: 0x0000 [0x94] EventEntity->Render.Flags3 ^= 0x01
  1: 0x0006 [0x33] EventEntity->Render.Flags0 |= 0x200000 // Bit 21 (flag=0x01)
  2: 0x0008 [0x92] EventEntity->Render.Flags3 ^= 0x01
  3: 0x000E [0x00] END_REQSTACK()
```

### Event 32000

#### Metadata

| Field        | Value   |
|--------------|---------|
| Entrypoint   | 0x000F  |
| Data Size    | 1 bytes |
| Instructions | 1       |

```
      00 01 02 03 04 05 06 07  08 09 0A 0B 0C 0D 0E 0F
      -- -- -- -- -- -- -- --  -- -- -- -- -- -- -- --
0000:                                               00                 .
```

#### Opcodes

```
  0: 0x000F [0x00] END_REQSTACK()
```

### Event 65535.1

#### Metadata

| Field        | Value    |
|--------------|----------|
| Entrypoint   | 0x0010   |
| Data Size    | 10 bytes |
| Instructions | 2        |

```
      00 01 02 03 04 05 06 07  08 09 0A 0B 0C 0D 0E 0F
      -- -- -- -- -- -- -- --  -- -- -- -- -- -- -- --
0010: 37 00 80 01 80 02 80 03  80 00                    7.........      
```

#### Opcodes

```
  0: 0x0010 [0x37] UPDATE_EVENT_POSITION_AND_DIR: x=615.000*, z=600.000*, y=66.500*, direction=0.0°*
  1: 0x0019 [0x00] END_REQSTACK()
```

### Event 65535.2

#### Metadata

| Field        | Value    |
|--------------|----------|
| Entrypoint   | 0x001A   |
| Data Size    | 10 bytes |
| Instructions | 2        |

```
      00 01 02 03 04 05 06 07  08 09 0A 0B 0C 0D 0E 0F
      -- -- -- -- -- -- -- --  -- -- -- -- -- -- -- --
0010:                                37 01 80 01 80 04            7.....
0020: 80 03 80 00                                       ....            
```

#### Opcodes

```
  0: 0x001A [0x37] UPDATE_EVENT_POSITION_AND_DIR: x=600.000*, z=600.000*, y=42.500*, direction=0.0°*
  1: 0x0023 [0x00] END_REQSTACK()
```

### Event 65535.3

#### Metadata

| Field        | Value    |
|--------------|----------|
| Entrypoint   | 0x0024   |
| Data Size    | 67 bytes |
| Instructions | 12       |

```
      00 01 02 03 04 05 06 07  08 09 0A 0B 0C 0D 0E 0F
      -- -- -- -- -- -- -- --  -- -- -- -- -- -- -- --
0020:             3B F8 FF FF  7F 03 00 04 00 05 00 03      ;...........
0030: 02 00 05 80 02 02 00 06  80 05 66 00 16 01 00 02  ..........f.....
0040: 00 07 80 07 01 00 07 80  03 05 00 02 80 07 05 00  ................
0050: 01 00 37 03 00 04 00 05  00 03 80 07 02 00 08 80  ..7.............
0060: 1C 09 80 01 34 00 00                              ....4..         
```

#### Opcodes

```
  0: 0x0024 [0x3B] GET_ENTITY_POSITION(entity=EventEntity, x_destination=ExtData[1]->WorkLocal[3], y_destination=ExtData[1]->WorkLocal[4], z_destination=ExtData[1]->WorkLocal[5])
  1: 0x002F [0x03] ExtData[1]->WorkLocal[2] = 1024*
  2: 0x0034 [0x02] IF !(ExtData[1]->WorkLocal[2] > 3072*) GOTO 0x0066
  3: 0x003C [0x16] ExtData[1]->WorkLocal[1] = sin(ExtData[1]->WorkLocal[2]) * 3750*
  4: 0x0043 [0x07] ExtData[1]->WorkLocal[1] += 3750*
  5: 0x0048 [0x03] ExtData[1]->WorkLocal[5] = 66500*
  6: 0x004D [0x07] ExtData[1]->WorkLocal[5] += ExtData[1]->WorkLocal[1]
  7: 0x0052 [0x37] UPDATE_EVENT_POSITION_AND_DIR: x=ExtData[1]->WorkLocal[3], z=ExtData[1]->WorkLocal[4], y=ExtData[1]->WorkLocal[5], direction=0.0°*
  8: 0x005B [0x07] ExtData[1]->WorkLocal[2] += 16*
  9: 0x0060 [0x1C] WAIT(1* ticks)
 10: 0x0063 [0x01] GOTO 0x0034
 11: 0x0066 [0x00] END_REQSTACK()
```

### Event 65535.4

#### Metadata

| Field        | Value    |
|--------------|----------|
| Entrypoint   | 0x0067   |
| Data Size    | 67 bytes |
| Instructions | 12       |

```
      00 01 02 03 04 05 06 07  08 09 0A 0B 0C 0D 0E 0F
      -- -- -- -- -- -- -- --  -- -- -- -- -- -- -- --
0060:                      3B  F8 FF FF 7F 03 00 04 00         ;........
0070: 05 00 03 02 00 05 80 02  02 00 06 80 05 A9 00 16  ................
0080: 01 00 02 00 0A 80 07 01  00 0A 80 03 05 00 04 80  ................
0090: 07 05 00 01 00 37 03 00  04 00 05 00 03 80 07 02  .....7..........
00A0: 00 08 80 1C 09 80 01 77  00 00                    .......w..      
```

#### Opcodes

```
  0: 0x0067 [0x3B] GET_ENTITY_POSITION(entity=EventEntity, x_destination=ExtData[1]->WorkLocal[3], y_destination=ExtData[1]->WorkLocal[4], z_destination=ExtData[1]->WorkLocal[5])
  1: 0x0072 [0x03] ExtData[1]->WorkLocal[2] = 1024*
  2: 0x0077 [0x02] IF !(ExtData[1]->WorkLocal[2] > 3072*) GOTO 0x00A9
  3: 0x007F [0x16] ExtData[1]->WorkLocal[1] = sin(ExtData[1]->WorkLocal[2]) * 13750*
  4: 0x0086 [0x07] ExtData[1]->WorkLocal[1] += 13750*
  5: 0x008B [0x03] ExtData[1]->WorkLocal[5] = 42500*
  6: 0x0090 [0x07] ExtData[1]->WorkLocal[5] += ExtData[1]->WorkLocal[1]
  7: 0x0095 [0x37] UPDATE_EVENT_POSITION_AND_DIR: x=ExtData[1]->WorkLocal[3], z=ExtData[1]->WorkLocal[4], y=ExtData[1]->WorkLocal[5], direction=0.0°*
  8: 0x009E [0x07] ExtData[1]->WorkLocal[2] += 16*
  9: 0x00A3 [0x1C] WAIT(1* ticks)
 10: 0x00A6 [0x01] GOTO 0x0077
 11: 0x00A9 [0x00] END_REQSTACK()
```

### Event 65535.5

#### Metadata

| Field        | Value    |
|--------------|----------|
| Entrypoint   | 0x00AA   |
| Data Size    | 37 bytes |
| Instructions | 7        |

```
      00 01 02 03 04 05 06 07  08 09 0A 0B 0C 0D 0E 0F
      -- -- -- -- -- -- -- --  -- -- -- -- -- -- -- --
00A0:                                3B F8 FF FF 7F 03            ;.....
00B0: 00 04 00 05 00 3A F8 FF  FF 7F 00 00 32 0B 80 08  .....:......2...
00C0: 05 00 0C 80 5A 00 03 00  04 00 05 00 5A 01 00     ....Z.......Z.. 
```

#### Opcodes

```
  0: 0x00AA [0x3B] GET_ENTITY_POSITION(entity=EventEntity, x_destination=ExtData[1]->WorkLocal[3], y_destination=ExtData[1]->WorkLocal[4], z_destination=ExtData[1]->WorkLocal[5])
  1: 0x00B5 [0x3A] CONVERT_YAW_TO_BYTE(entity=EventEntity, result_destination=ExtData[1]->WorkLocal[0])
  2: 0x00BC [0x32] ExtData[1]->MainSpeed = 300* * 0.1
  3: 0x00BF [0x08] ExtData[1]->WorkLocal[5] -= 45000*
  4: 0x00C4 [0x5A] UPDATE_EVENT_POSITION: Set EventEntity MovePosition to X=ExtData[1]->WorkLocal[3], Z=ExtData[1]->WorkLocal[4], Y=ExtData[1]->WorkLocal[5]
  5: 0x00CC [0x5A] UPDATE_EVENT_POSITION: Move EventEntity incrementally towards MovePosition
  6: 0x00CE [0x00] END_REQSTACK()
```

### Event 65535.6

#### Metadata

| Field        | Value    |
|--------------|----------|
| Entrypoint   | 0x00CF   |
| Data Size    | 44 bytes |
| Instructions | 8        |

```
      00 01 02 03 04 05 06 07  08 09 0A 0B 0C 0D 0E 0F
      -- -- -- -- -- -- -- --  -- -- -- -- -- -- -- --
00C0:                                               3B                 ;
00D0: F8 FF FF 7F 03 00 04 00  05 00 37 03 00 04 00 05  ..........7.....
00E0: 00 0D 80 08 03 00 01 80  08 05 00 0E 80 32 0B 80  .............2..
00F0: 5A 00 03 00 04 00 05 00  5A 01 00                 Z.......Z..     
```

#### Opcodes

```
  0: 0x00CF [0x3B] GET_ENTITY_POSITION(entity=EventEntity, x_destination=ExtData[1]->WorkLocal[3], y_destination=ExtData[1]->WorkLocal[4], z_destination=ExtData[1]->WorkLocal[5])
  1: 0x00DA [0x37] UPDATE_EVENT_POSITION_AND_DIR: x=ExtData[1]->WorkLocal[3], z=ExtData[1]->WorkLocal[4], y=ExtData[1]->WorkLocal[5], direction=180.0°*
  2: 0x00E3 [0x08] ExtData[1]->WorkLocal[3] -= 600000*
  3: 0x00E8 [0x08] ExtData[1]->WorkLocal[5] -= 400000*
  4: 0x00ED [0x32] ExtData[1]->MainSpeed = 300* * 0.1
  5: 0x00F0 [0x5A] UPDATE_EVENT_POSITION: Set EventEntity MovePosition to X=ExtData[1]->WorkLocal[3], Z=ExtData[1]->WorkLocal[4], Y=ExtData[1]->WorkLocal[5]
  6: 0x00F8 [0x5A] UPDATE_EVENT_POSITION: Move EventEntity incrementally towards MovePosition
  7: 0x00FA [0x00] END_REQSTACK()
```

### Event 65535.7

#### Metadata

| Field        | Value    |
|--------------|----------|
| Entrypoint   | 0x00FB   |
| Data Size    | 10 bytes |
| Instructions | 2        |

```
      00 01 02 03 04 05 06 07  08 09 0A 0B 0C 0D 0E 0F
      -- -- -- -- -- -- -- --  -- -- -- -- -- -- -- --
00F0:                                   37 00 80 01 80             7....
0100: 0F 80 10 80 00                                    .....           
```

#### Opcodes

```
  0: 0x00FB [0x37] UPDATE_EVENT_POSITION_AND_DIR: x=615.000*, z=600.000*, y=70.500*, direction=377476174.2°*
  1: 0x0104 [0x00] END_REQSTACK()
```

### Event 65535.8

#### Metadata

| Field        | Value    |
|--------------|----------|
| Entrypoint   | 0x0105   |
| Data Size    | 16 bytes |
| Instructions | 2        |

```
      00 01 02 03 04 05 06 07  08 09 0A 0B 0C 0D 0E 0F
      -- -- -- -- -- -- -- --  -- -- -- -- -- -- -- --
0100:                5B 11 80  F8 FF FF 7F F8 FF FF 7F       [..........
0110: 6D 6B 75 30 00                                    mku0.           
```

#### Opcodes

```
  0: 0x0105 [0x5B] LOAD_EXT_SCHEDULER: Load scheduler "mku0" with entities [EventEntity, EventEntity], work=501*
  1: 0x0114 [0x00] END_REQSTACK()
```

### Event 32001

#### Metadata

| Field        | Value   |
|--------------|---------|
| Entrypoint   | 0x0115  |
| Data Size    | 1 bytes |
| Instructions | 1       |

```
      00 01 02 03 04 05 06 07  08 09 0A 0B 0C 0D 0E 0F
      -- -- -- -- -- -- -- --  -- -- -- -- -- -- -- --
0110:                00                                      .          
```

#### Opcodes

```
  0: 0x0115 [0x00] END_REQSTACK()
```

### Event 65535.9

#### Metadata

| Field        | Value    |
|--------------|----------|
| Entrypoint   | 0x0116   |
| Data Size    | 80 bytes |
| Instructions | 6        |

```
      00 01 02 03 04 05 06 07  08 09 0A 0B 0C 0D 0E 0F
      -- -- -- -- -- -- -- --  -- -- -- -- -- -- -- --
0110:                   9F 12  80 A5 F0 01 01 A5 F0 01        ..........
0120: 01 73 65 73 70 03 80 45  13 80 F0 FF FF 7F F0 FF  .sesp..E........
0130: FF 7F 73 31 33 31 03 80  5B 11 80 F8 FF FF 7F F8  ..s131..[.......
0140: FF FF 7F 68 6F 75 31 53  F8 FF FF 7F F8 FF FF 7F  ...hou1S........
0150: 68 6F 75 31 9F 12 80 A5  F0 01 01 A5 F0 01 01 62  hou1...........b
0160: 68 73 65 03 80 00                                 hse...          
```

#### Opcodes

```
  0: 0x0116 [0x9F] LOAD_SCHEDULED_TASK_ALT: Load scheduler "sesp" with entities [Bahamut (ID: 16904357/0x0101F0A5), Bahamut (ID: 16904357/0x0101F0A5)], work=[106*, 0*]
  1: 0x0127 [0x45] LOAD_SCHEDULED_TASK: Load scheduler "s131" with entities [LocalPlayer, LocalPlayer], work=[77*, 0*]
  2: 0x0138 [0x5B] LOAD_EXT_SCHEDULER: Load scheduler "hou1" with entities [EventEntity, EventEntity], work=501*
  3: 0x0147 [0x53] WAIT_SCHEDULER_TASK: Wait for scheduler "hou1" with entities [EventEntity, EventEntity]
  4: 0x0154 [0x9F] LOAD_SCHEDULED_TASK_ALT: Load scheduler "bhse" with entities [Bahamut (ID: 16904357/0x0101F0A5), Bahamut (ID: 16904357/0x0101F0A5)], work=[106*, 0*]
  5: 0x0165 [0x00] END_REQSTACK()
```

### Event 65535.10

#### Metadata

| Field        | Value    |
|--------------|----------|
| Entrypoint   | 0x0166   |
| Data Size    | 50 bytes |
| Instructions | 4        |

```
      00 01 02 03 04 05 06 07  08 09 0A 0B 0C 0D 0E 0F
      -- -- -- -- -- -- -- --  -- -- -- -- -- -- -- --
0160:                   9F 12  80 A5 F0 01 01 A5 F0 01        ..........
0170: 01 73 65 73 70 03 80 45  13 80 F0 FF FF 7F F0 FF  .sesp..E........
0180: FF 7F 73 31 33 31 03 80  5B 14 80 F8 FF FF 7F F8  ..s131..[.......
0190: FF FF 7F 6D 67 61 30 00                           ...mga0.        
```

#### Opcodes

```
  0: 0x0166 [0x9F] LOAD_SCHEDULED_TASK_ALT: Load scheduler "sesp" with entities [Bahamut (ID: 16904357/0x0101F0A5), Bahamut (ID: 16904357/0x0101F0A5)], work=[106*, 0*]
  1: 0x0177 [0x45] LOAD_SCHEDULED_TASK: Load scheduler "s131" with entities [LocalPlayer, LocalPlayer], work=[77*, 0*]
  2: 0x0188 [0x5B] LOAD_EXT_SCHEDULER: Load scheduler "mga0" with entities [EventEntity, EventEntity], work=500*
  3: 0x0197 [0x00] END_REQSTACK()
```

### Event 65535.11

#### Metadata

| Field        | Value    |
|--------------|----------|
| Entrypoint   | 0x0198   |
| Data Size    | 92 bytes |
| Instructions | 8        |

```
      00 01 02 03 04 05 06 07  08 09 0A 0B 0C 0D 0E 0F
      -- -- -- -- -- -- -- --  -- -- -- -- -- -- -- --
0190:                          9F 12 80 A5 F0 01 01 A5          ........
01A0: F0 01 01 73 65 73 70 03  80 80 F8 FF FF 7F 37 15  ...sesp.......7.
01B0: 80 01 80 16 80 03 80 9F  17 80 AE F0 01 01 AE F0  ................
01C0: 01 01 73 74 72 30 03 80  5B 18 80 F8 FF FF 7F F8  ..str0..[.......
01D0: FF FF 7F 68 62 61 30 5B  19 80 AE F0 01 01 AE F0  ...hba0[........
01E0: 01 01 00 FE FE FE 53 F8  FF FF 7F F8 FF FF 7F 68  ......S........h
01F0: 62 61 30 00                                       ba0.            
```

#### Opcodes

```
  0: 0x0198 [0x9F] LOAD_SCHEDULED_TASK_ALT: Load scheduler "sesp" with entities [Bahamut (ID: 16904357/0x0101F0A5), Bahamut (ID: 16904357/0x0101F0A5)], work=[106*, 0*]
  1: 0x01A9 [0x80] LOAD_WAIT(entity=EventEntity)
  2: 0x01AE [0x37] UPDATE_EVENT_POSITION_AND_DIR: x=605.000*, z=600.000*, y=73.000*, direction=0.0°*
  3: 0x01B7 [0x9F] LOAD_SCHEDULED_TASK_ALT: Load scheduler "str0" with entities [Bahamut (ID: 16904366/0x0101F0AE), Bahamut (ID: 16904366/0x0101F0AE)], work=[109*, 0*]
  4: 0x01C8 [0x5B] LOAD_EXT_SCHEDULER: Load scheduler "hba0" with entities [EventEntity, EventEntity], work=502*
  5: 0x01D7 [0x5B] LOAD_EXT_SCHEDULER: Load scheduler 0xFEFEFE00 with entities [Bahamut (ID: 16904366/0x0101F0AE), Bahamut (ID: 16904366/0x0101F0AE)], work=677*
  6: 0x01E6 [0x53] WAIT_SCHEDULER_TASK: Wait for scheduler "hba0" with entities [EventEntity, EventEntity]
  7: 0x01F3 [0x00] END_REQSTACK()
```

### Event 65535.12

#### Metadata

| Field        | Value    |
|--------------|----------|
| Entrypoint   | 0x01F4   |
| Data Size    | 93 bytes |
| Instructions | 7        |

```
      00 01 02 03 04 05 06 07  08 09 0A 0B 0C 0D 0E 0F
      -- -- -- -- -- -- -- --  -- -- -- -- -- -- -- --
01F0:             9F 12 80 A5  F0 01 01 A5 F0 01 01 73      ...........s
0200: 65 73 70 03 80 5B 18 80  F8 FF FF 7F F8 FF FF 7F  esp..[..........
0210: 6D 67 61 30 5B 19 80 AE  F0 01 01 AE F0 01 01 6D  mga0[..........m
0220: 67 61 30 9F 17 80 AE F0  01 01 AE F0 01 01 73 74  ga0...........st
0230: 72 30 03 80 53 F8 FF FF  7F F8 FF FF 7F 6D 67 61  r0..S........mga
0240: 30 5B 11 80 F8 FF FF 7F  F8 FF FF 7F 68 62 61 30  0[..........hba0
0250: 00                                                .               
```

#### Opcodes

```
  0: 0x01F4 [0x9F] LOAD_SCHEDULED_TASK_ALT: Load scheduler "sesp" with entities [Bahamut (ID: 16904357/0x0101F0A5), Bahamut (ID: 16904357/0x0101F0A5)], work=[106*, 0*]
  1: 0x0205 [0x5B] LOAD_EXT_SCHEDULER: Load scheduler "mga0" with entities [EventEntity, EventEntity], work=502*
  2: 0x0214 [0x5B] LOAD_EXT_SCHEDULER: Load scheduler "mga0" with entities [Bahamut (ID: 16904366/0x0101F0AE), Bahamut (ID: 16904366/0x0101F0AE)], work=677*
  3: 0x0223 [0x9F] LOAD_SCHEDULED_TASK_ALT: Load scheduler "str0" with entities [Bahamut (ID: 16904366/0x0101F0AE), Bahamut (ID: 16904366/0x0101F0AE)], work=[109*, 0*]
  4: 0x0234 [0x53] WAIT_SCHEDULER_TASK: Wait for scheduler "mga0" with entities [EventEntity, EventEntity]
  5: 0x0241 [0x5B] LOAD_EXT_SCHEDULER: Load scheduler "hba0" with entities [EventEntity, EventEntity], work=501*
  6: 0x0250 [0x00] END_REQSTACK()
```

### Event 65535.13

#### Metadata

| Field        | Value    |
|--------------|----------|
| Entrypoint   | 0x0251   |
| Data Size    | 87 bytes |
| Instructions | 8        |

```
      00 01 02 03 04 05 06 07  08 09 0A 0B 0C 0D 0E 0F
      -- -- -- -- -- -- -- --  -- -- -- -- -- -- -- --
0250:    5B 18 80 F8 FF FF 7F  F8 FF FF 7F 68 6B 69 30   [..........hki0
0260: 5B 1A 80 AE F0 01 01 AE  F0 01 01 68 6B 69 30 9F  [..........hki0.
0270: 17 80 AE F0 01 01 AE F0  01 01 73 74 72 31 03 80  ..........str1..
0280: 1C 1B 80 4E 01 AE F0 01  01 53 F8 FF FF 7F F8 FF  ...N.....S......
0290: FF 7F 68 6B 69 30 9F 12  80 A5 F0 01 01 A5 F0 01  ..hki0..........
02A0: 01 62 68 73 65 03 80 00                           .bhse...        
```

#### Opcodes

```
  0: 0x0251 [0x5B] LOAD_EXT_SCHEDULER: Load scheduler "hki0" with entities [EventEntity, EventEntity], work=502*
  1: 0x0260 [0x5B] LOAD_EXT_SCHEDULER: Load scheduler "hki0" with entities [Bahamut (ID: 16904366/0x0101F0AE), Bahamut (ID: 16904366/0x0101F0AE)], work=678*
  2: 0x026F [0x9F] LOAD_SCHEDULED_TASK_ALT: Load scheduler "str1" with entities [Bahamut (ID: 16904366/0x0101F0AE), Bahamut (ID: 16904366/0x0101F0AE)], work=[109*, 0*]
  3: 0x0280 [0x1C] WAIT(180* ticks)
  4: 0x0283 [0x4E] SET_ENTITY_HIDE_FLAG: Hide Bahamut (ID: 16904366/0x0101F0AE)
  5: 0x0289 [0x53] WAIT_SCHEDULER_TASK: Wait for scheduler "hki0" with entities [EventEntity, EventEntity]
  6: 0x0296 [0x9F] LOAD_SCHEDULED_TASK_ALT: Load scheduler "bhse" with entities [Bahamut (ID: 16904357/0x0101F0A5), Bahamut (ID: 16904357/0x0101F0A5)], work=[106*, 0*]
  7: 0x02A7 [0x00] END_REQSTACK()
```
