# 0x7FFFFFF0 - Zone Events

## Common Data

| Field            | Value                 |
|------------------|-----------------------|
| Zone             | Monarch Linn (ID: 31) |
| Block Size       | 16700 bytes           |
| Total Events     | 20                    |
| References Count | 293                   |

## List of Events

| Event ID                 | Entrypoint   |   Size |   Instructions |
|--------------------------|--------------|--------|----------------|
| [65535](#event-65535)    | 0x0000       |      1 |              1 |
| [65534](#event-65534)    | 0x0001       |      1 |              1 |
| [32000](#event-32000)    | 0x0002       |   2188 |            432 |
| [32002](#event-32002)    | 0x088E       |    494 |             83 |
| [32001](#event-32001)    | 0x0A7C       |   1033 |            179 |
| [32003](#event-32003)    | 0x0E85       |    435 |             77 |
| [32004](#event-32004)    | 0x1038       |   1282 |            170 |
| [65535.1](#event-655351) | 0x153A       |      6 |              2 |
| [65535.2](#event-655352) | 0x1540       |      6 |              2 |
| [65535.3](#event-655353) | 0x1546       |      6 |              2 |
| [65535.4](#event-655354) | 0x154C       |      6 |              2 |
| [65535.5](#event-655355) | 0x1552       |      6 |              2 |
| [11](#event-11)          | 0x1558       |     91 |             19 |
| [10](#event-10)          | 0x15B3       |     91 |             19 |
| [2](#event-2)            | 0x160E       |    102 |             18 |
| [3](#event-3)            | 0x1674       |    102 |             18 |
| [4](#event-4)            | 0x16DA       |    102 |             18 |
| [5](#event-5)            | 0x1740       |    102 |             18 |
| [6](#event-6)            | 0x17A6       |    102 |             18 |
| [7](#event-7)            | 0x180C       |   9276 |           1053 |

## DAT References (imed_data)

|   Index | Hex Value   |   Dec Value |
|---------|-------------|-------------|
|       0 | 0x0000      |           0 |
|       1 | 0x000F      |          15 |
|       2 | 0x0010      |          16 |
|       3 | 0x001F      |          31 |
|       4 | 0xFFFFFFFF  |  4294967295 |
|       5 | 0x0001      |           1 |
|       6 | 0x1DE3      |        7651 |
|       7 | 0x1D33      |        7475 |
|       8 | 0x0005      |           5 |
|       9 | 0x0002      |           2 |
|      10 | 0x0003      |           3 |
|      11 | 0x0004      |           4 |
|      12 | 0x1BC5      |        7109 |
|      13 | 0x00FF      |         255 |
|      14 | 0x00C8      |         200 |
|      15 | 0x0013      |          19 |
|      16 | 0x0008      |           8 |
|      17 | 0x0009      |           9 |
|      18 | 0x000B      |          11 |
|      19 | 0x1BD0      |        7120 |
|      20 | 0x1BD1      |        7121 |
|      21 | 0x1BD2      |        7122 |
|      22 | 0x1BD3      |        7123 |
|      23 | 0x1BF7      |        7159 |
|      24 | 0x0006      |           6 |
|      25 | 0x0012      |          18 |
|      26 | 0x0007      |           7 |
|      27 | 0x000A      |          10 |
|      28 | 0x000C      |          12 |
|      29 | 0x000D      |          13 |
|      30 | 0x000E      |          14 |
|      31 | 0x0011      |          17 |
|      32 | 0x0014      |          20 |
|      33 | 0x0015      |          21 |
|      34 | 0x0016      |          22 |
|      35 | 0x0017      |          23 |
|      36 | 0x0018      |          24 |
|      37 | 0x0019      |          25 |
|      38 | 0x001A      |          26 |
|      39 | 0x001B      |          27 |
|      40 | 0x001C      |          28 |
|      41 | 0x001D      |          29 |
|      42 | 0x001E      |          30 |
|      43 | 0x1D2C      |        7468 |
|      44 | 0x1D31      |        7473 |
|      45 | 0x1D30      |        7472 |
|      46 | 0x003C      |          60 |
|      47 | 0x1DDD      |        7645 |
|      48 | 0x1DDC      |        7644 |
|      49 | 0x0064      |         100 |
|      50 | 0x1D18      |        7448 |
|      51 | 0x00DC      |         220 |
|      52 | 0x1BC8      |        7112 |
|      53 | 0x00C9      |         201 |
|      54 | 0x1DDF      |        7647 |
|      55 | 0x1DE0      |        7648 |
|      56 | 0x1DE1      |        7649 |
|      57 | 0x1DE2      |        7650 |
|      58 | 0x00B4      |         180 |
|      59 | 0xFFF6C42B  |  4294362155 |
|      60 | 0x752B9     |      479929 |
|      61 | 0xFFFFA767  |  4294944615 |
|      62 | 0x03E0      |         992 |
|      63 | 0xFFFBFE43  |  4294704707 |
|      64 | 0x5C401     |      377857 |
|      65 | 0xFFFDE79F  |  4294829983 |
|      66 | 0x0D92      |        3474 |
|      67 | 0x47AC      |       18348 |
|      68 | 0x76E1C     |      486940 |
|      69 | 0xFFFC93B2  |  4294742962 |
|      70 | 0x00C2      |         194 |
|      71 | 0x388A9     |      231593 |
|      72 | 0x57E9E     |      360094 |
|      73 | 0xFFFD59FC  |  4294793724 |
|      74 | 0x0726      |        1830 |
|      75 | 0x872C0     |      553664 |
|      76 | 0x7FEA3     |      523939 |
|      77 | 0xFFFF6AC3  |  4294929091 |
|      78 | 0x0A65      |        2661 |
|      79 | 0xFFFF9A63  |  4294941283 |
|      80 | 0xFFF7C2A0  |  4294427296 |
|      81 | 0xFFFFFB36  |  4294966070 |
|      82 | 0xFFF2A593  |  4294092179 |
|      83 | 0xFFFF548C  |  4294923404 |
|      84 | 0xFFFF442C  |  4294919212 |
|      85 | 0x0201      |         513 |
|      86 | 0xFFF478D5  |  4294211797 |
|      87 | 0x89AEB     |      563947 |
|      88 | 0xFFFE4A5D  |  4294855261 |
|      89 | 0x0DEF      |        3567 |
|      90 | 0x1E173     |      123251 |
|      91 | 0xB8221     |      754209 |
|      92 | 0xFFFD5FA4  |  4294795172 |
|      93 | 0x01B8      |         440 |
|      94 | 0xFFF81ECC  |  4294450892 |
|      95 | 0xFFF3BE05  |  4294163973 |
|      96 | 0x5E8E      |       24206 |
|      97 | 0x01B5      |         437 |
|      98 | 0x012C      |         300 |
|      99 | 0x0080      |         128 |
|     100 | 0xFFF690A7  |  4294348967 |
|     101 | 0xFFF62CE4  |  4294323428 |
|     102 | 0xFFFF9B33  |  4294941491 |
|     103 | 0x0EB1      |        3761 |
|     104 | 0xFFFAEE7D  |  4294635133 |
|     105 | 0xFFF941C6  |  4294525382 |
|     106 | 0xFFFE8CB1  |  4294872241 |
|     107 | 0x0EB0      |        3760 |
|     108 | 0xFFFFCF50  |  4294954832 |
|     109 | 0xFFF61B47  |  4294318919 |
|     110 | 0xFFFD07BB  |  4294772667 |
|     111 | 0x0EBA      |        3770 |
|     112 | 0x4EF35     |      323381 |
|     113 | 0xFFF93A6F  |  4294523503 |
|     114 | 0xFFFE5868  |  4294858856 |
|     115 | 0x0EA0      |        3744 |
|     116 | 0x92763     |      599907 |
|     117 | 0xFFF5AB97  |  4294290327 |
|     118 | 0xFFFFA837  |  4294944823 |
|     119 | 0x0EB3      |        3763 |
|     120 | 0xFFFFB29E  |  4294947486 |
|     121 | 0x8B9DD     |      571869 |
|     122 | 0x0141      |         321 |
|     123 | 0x0C00      |        3072 |
|     124 | 0x00A8      |         168 |
|     125 | 0x30D7B     |      200059 |
|     126 | 0xFFFFAA3A  |  4294945338 |
|     127 | 0xFFFFFF06  |  4294967046 |
|     128 | 0x0411      |        1041 |
|     129 | 0x00CA      |         202 |
|     130 | 0x837EC     |      538604 |
|     131 | 0x7A88C     |      501900 |
|     132 | 0xFFFFC98A  |  4294953354 |
|     133 | 0x0CBC      |        3260 |
|     134 | 0x00CB      |         203 |
|     135 | 0x870F5     |      553205 |
|     136 | 0x8FF41     |      589633 |
|     137 | 0xFFFFFFEB  |  4294967275 |
|     138 | 0x0587      |        1415 |
|     139 | 0x00D3      |         211 |
|     140 | 0x8AF88     |      569224 |
|     141 | 0x85E6E     |      548462 |
|     142 | 0x8FE5      |       36837 |
|     143 | 0x02A1      |         673 |
|     144 | 0x0024      |          36 |
|     145 | 0x1D1A      |        7450 |
|     146 | 0x1D19      |        7449 |
|     147 | 0x1DDB      |        7643 |
|     148 | 0x1D1C      |        7452 |
|     149 | 0x1D1B      |        7451 |
|     150 | 0xFFFF7977  |  4294932855 |
|     151 | 0xFFF7C468  |  4294427752 |
|     152 | 0xFFFFF967  |  4294965607 |
|     153 | 0x07C2      |        1986 |
|     154 | 0x006C      |         108 |
|     155 | 0x0047      |          71 |
|     156 | 0x006A      |         106 |
|     157 | 0xFFF7EC8D  |  4294438029 |
|     158 | 0xFFFFFCEE  |  4294966510 |
|     159 | 0x1398F     |       80271 |
|     160 | 0x082E      |        2094 |
|     161 | 0x12252     |       74322 |
|     162 | 0xFFFFFB44  |  4294966084 |
|     163 | 0x0833      |        2099 |
|     164 | 0xA3EFB     |      671483 |
|     165 | 0xFFFFFE9C  |  4294966940 |
|     166 | 0xFFFEC8BE  |  4294887614 |
|     167 | 0x0805      |        2053 |
|     168 | 0x0048      |          72 |
|     169 | 0x0078      |         120 |
|     170 | 0x007F      |         127 |
|     171 | 0x1BC6      |        7110 |
|     172 | 0xA54A5     |      677029 |
|     173 | 0x92264     |      598628 |
|     174 | 0x13879     |       79993 |
|     175 | 0x004F      |          79 |
|     176 | 0x0071      |         113 |
|     177 | 0x0074      |         116 |
|     178 | 0x0077      |         119 |
|     179 | 0x007B      |         123 |
|     180 | 0x0087      |         135 |
|     181 | 0x1BA6      |        7078 |
|     182 | 0x008C      |         140 |
|     183 | 0x1BA7      |        7079 |
|     184 | 0x1E44      |        7748 |
|     185 | 0x1BBE      |        7102 |
|     186 | 0x1BBF      |        7103 |
|     187 | 0x1BC0      |        7104 |
|     188 | 0x30EF      |       12527 |
|     189 | 0xFFF7C42E  |  4294427694 |
|     190 | 0x015A      |         346 |
|     191 | 0x07FB      |        2043 |
|     192 | 0x004D      |          77 |
|     193 | 0x0028      |          40 |
|     194 | 0x00F0      |         240 |
|     195 | 0x1DFF      |        7679 |
|     196 | 0x1E00      |        7680 |
|     197 | 0x005A      |          90 |
|     198 | 0x1E01      |        7681 |
|     199 | 0x0059      |          89 |
|     200 | 0x00E8      |         232 |
|     201 | 0x1E02      |        7682 |
|     202 | 0x1E03      |        7683 |
|     203 | 0x1E04      |        7684 |
|     204 | 0x1E05      |        7685 |
|     205 | 0x1E06      |        7686 |
|     206 | 0x1E07      |        7687 |
|     207 | 0x1E08      |        7688 |
|     208 | 0x1E09      |        7689 |
|     209 | 0x1E0A      |        7690 |
|     210 | 0x1E0B      |        7691 |
|     211 | 0x1E0C      |        7692 |
|     212 | 0x1E0D      |        7693 |
|     213 | 0x1E0E      |        7694 |
|     214 | 0x1E0F      |        7695 |
|     215 | 0x0050      |          80 |
|     216 | 0x00D2      |         210 |
|     217 | 0x1E10      |        7696 |
|     218 | 0x1E11      |        7697 |
|     219 | 0x07F7      |        2039 |
|     220 | 0x006F      |         111 |
|     221 | 0x0032      |          50 |
|     222 | 0x0057      |          87 |
|     223 | 0x01F6      |         502 |
|     224 | 0x02A5      |         677 |
|     225 | 0x1E12      |        7698 |
|     226 | 0x1E13      |        7699 |
|     227 | 0x1E14      |        7700 |
|     228 | 0x1E15      |        7701 |
|     229 | 0x1E16      |        7702 |
|     230 | 0x1E17      |        7703 |
|     231 | 0x1E18      |        7704 |
|     232 | 0x1E19      |        7705 |
|     233 | 0x1E1D      |        7709 |
|     234 | 0x9AA4F     |      633423 |
|     235 | 0x928BB     |      600251 |
|     236 | 0x13D6E     |       81262 |
|     237 | 0x07D7      |        2007 |
|     238 | 0x1E1E      |        7710 |
|     239 | 0x1E1F      |        7711 |
|     240 | 0x1E20      |        7712 |
|     241 | 0x1E21      |        7713 |
|     242 | 0x1E22      |        7714 |
|     243 | 0x0045      |          69 |
|     244 | 0x1E23      |        7715 |
|     245 | 0x1E24      |        7716 |
|     246 | 0x1E25      |        7717 |
|     247 | 0x1E26      |        7718 |
|     248 | 0x1E27      |        7719 |
|     249 | 0x1E28      |        7720 |
|     250 | 0x004E      |          78 |
|     251 | 0x1E29      |        7721 |
|     252 | 0x1E2A      |        7722 |
|     253 | 0x1E2B      |        7723 |
|     254 | 0x1E2C      |        7724 |
|     255 | 0x95D10     |      613648 |
|     256 | 0x923C9     |      598985 |
|     257 | 0x14085     |       82053 |
|     258 | 0x081E      |        2078 |
|     259 | 0x02A6      |         678 |
|     260 | 0x1E1A      |        7706 |
|     261 | 0x0082      |         130 |
|     262 | 0x1E1B      |        7707 |
|     263 | 0x004B      |          75 |
|     264 | 0x97BD4     |      621524 |
|     265 | 0x92404     |      599044 |
|     266 | 0x0730      |        1840 |
|     267 | 0x1E2D      |        7725 |
|     268 | 0x1E2E      |        7726 |
|     269 | 0x1E2F      |        7727 |
|     270 | 0x1E30      |        7728 |
|     271 | 0x1E31      |        7729 |
|     272 | 0x1E32      |        7730 |
|     273 | 0x1E33      |        7731 |
|     274 | 0x1E34      |        7732 |
|     275 | 0x00ED      |         237 |
|     276 | 0x1E35      |        7733 |
|     277 | 0x1E36      |        7734 |
|     278 | 0x01F4      |         500 |
|     279 | 0x1E37      |        7735 |
|     280 | 0x1E38      |        7736 |
|     281 | 0x1E39      |        7737 |
|     282 | 0x00E7      |         231 |
|     283 | 0x1E3A      |        7738 |
|     284 | 0x1E3B      |        7739 |
|     285 | 0x1E3C      |        7740 |
|     286 | 0x1E3D      |        7741 |
|     287 | 0x1E3E      |        7742 |
|     288 | 0x1E3F      |        7743 |
|     289 | 0x1E40      |        7744 |
|     290 | 0x1E41      |        7745 |
|     291 | 0x0096      |         150 |
|     292 | 0x1E42      |        7746 |

## String References

- **7078**: Return to the following area? [Riverne - Site #A01./Do not return.]
- **7079**: Return to the following area? [Riverne - Site #B01./Do not return.]
- **7102**: Choose your path... [Leave Riverne./Return to the Linn entrance./Nothing.]
- **7103**: Return to the Misareaux Coast? [Yes./No.]
- **7104**: Return to the spatial displacement? [Yes./No.]
- **7109**: Enter the battlefield? [Enter./Decline.]
- **7110**: Leave the battlefield? [Run away./Stay.]
- **7112**: You cannot enter the battlefield at present. Please wait a little longer.
- **7120**: You are cleared to enter the battlefield, but you cannot while party members are engaged in combat.
- **7121**: You are cleared to enter the battlefield, but you cannot while party members are engaged in combat.
- **7122**: You are cleared to enter the battlefield, but you cannot while party members are engaged in combat.
- **7123**: You are cleared to enter the battlefield, but you cannot while party members are engaged in combat.
- **7159**: You do not meet the requirements to enter the battlefield. Access is denied.
- **7448**: Skip the event? [Yes./No.]
- **7449**: Battlefield clear time: $3 second[/s]!
- **7450**: Battlefield clear time: $3 minute[/s], $2 second[/s]!
- **7451**: The current battlefield clear time record is $3 second[/s].
- **7452**: The current battlefield clear time record is $3 minute[/s] $2 second[/s].
- **7468**: Only $3 [member/members] have clearance to enter the battlefield. This room has reached its maximum capacity.
- **7472**: That record is held by $5 adventurers, including %0!
- **7473**: That record is held by %0!
- **7475**: Select difficulty. [Very difficult. (Level: ???)/Difficult. (Level: ???)/Normal. (Level: $18)/Easy. (Level: $17)/Very Easy. (Level: $16)/Leave.]
- **7643**: You have broken the clear time record for "[Ancient Vows/The Savage/Fire in the Sky/Bad Seed/Bugard in the Clouds/Beloved of the Atlantes/Uninvited Guests/Nest of Nightmares/$26The Savage]"!
- **7644**: The current battlefield clear time record for "[Ancient Vows/The Savage/Fire in the Sky/Bad Seed/Bugard in the Clouds/Beloved of the Atlantes/Uninvited Guests/Nest of Nightmares/$26The Savage]" is $3 second[/s].
- **7645**: The current battlefield clear time record for "[Ancient Vows/The Savage/Fire in the Sky/Bad Seed/Bugard in the Clouds/Beloved of the Atlantes/Uninvited Guests/Nest of Nightmares/$26The Savage]" is $3 minute[/s] $2 second[/s].
- **7647**: Level limit of 40. The experience point reward for this battlefield will be reduced for parties of four or more members.
- **7648**: Level limit of 40. The experience point reward for this battlefield will be reduced for parties of seven or more members.
- **7649**: Level limit of 50. The experience point reward for this battlefield will be reduced for parties of four or more members.
- **7650**: Level limit of 50. The experience point reward for this battlefield will be reduced for parties of seven or more members.
- **7651**: Which battlefield will you enter? [None./Ancient Vows./The Savage./Fire in the Sky./Bad Seed./Bugard in the Clouds./Beloved of the Atlantes./Uninvited Guests./Nest of Nightmares./$26The Savage././././././././././././././././././././././.]
- **7733**: @@ Innocent blood spills forth onto the plains of Vana'diel. The world shudders as she is thrust into chaos and despair.
- **7734**: @@ Neither power nor destiny can bring an end to what has already begun.
- **7735**: @@ However, through the storm of the night, a star of glory shines bright. Through the howling of the beasts, the song rings clear.
- **7736**: @@ Shining star, echoing song, You are our dreams and prayers. @@
- **7748**: You can see the Misareaux Coast on the other side of the spatial displacement...

## Events

### Event 65535

#### Metadata

| Field        | Value   |
|--------------|---------|
| Entrypoint   | 0x0000  |
| Data Size    | 1 bytes |
| Instructions | 1       |

```
      00 01 02 03 04 05 06 07  08 09 0A 0B 0C 0D 0E 0F
      -- -- -- -- -- -- -- --  -- -- -- -- -- -- -- --
0000: 00                                                .               
```

#### Opcodes

```
  0: 0x0000 [0x00] END_REQSTACK()
```

### Event 65534

#### Metadata

| Field        | Value   |
|--------------|---------|
| Entrypoint   | 0x0001  |
| Data Size    | 1 bytes |
| Instructions | 1       |

```
      00 01 02 03 04 05 06 07  08 09 0A 0B 0C 0D 0E 0F
      -- -- -- -- -- -- -- --  -- -- -- -- -- -- -- --
0000:    00                                              .              
```

#### Opcodes

```
  0: 0x0001 [0x00] END_REQSTACK()
```

### Event 32000

#### Metadata

| Field        | Value      |
|--------------|------------|
| Entrypoint   | 0x0002     |
| Data Size    | 2188 bytes |
| Instructions | 299        |

```
      00 01 02 03 04 05 06 07  08 09 0A 0B 0C 0D 0E 0F
      -- -- -- -- -- -- -- --  -- -- -- -- -- -- -- --
0000:       20 01 79 00 F0 FF  FF 7F F0 FF FF 7F 03 02     .y...........
0010: 00 02 10 03 03 00 03 10  03 05 00 04 10 03 06 00  ................
0020: 05 10 03 0F 00 06 10 03  10 00 07 10 03 11 00 08  ................
0030: 10 41 00 80 01 80 09 10  07 00 41 02 80 03 80 09  .A........A.....
0040: 10 06 10 06 01 00 02 07  00 00 80 00 45 01 03 08  ............E...
0050: 00 04 80 0F 08 00 06 00  10 08 00 05 80 24 06 80  .............$..
0060: 00 80 08 00 25 02 00 10  00 80 00 73 00 01 2B 08  ....%......s..+.
0070: 01 45 01 03 03 00 00 10  0C 03 00 06 16 00 06 13  .E..............
0080: 00 3E 0F 00 03 00 21 01  06 0F 00 06 08 00 3E 11  .>....!.......>.
0090: 00 03 00 98 00 01 9F 00  3C 08 00 00 80 05 80 3E  ........<......>
00A0: 10 00 03 00 A9 00 01 B0  00 3C 08 00 05 80 05 80  .........<......
00B0: 1A 8D 14 24 07 80 08 80  08 00 25 02 00 10 00 80  ...$......%.....
00C0: 00 CB 00 03 0F 00 05 80  01 1E 01 02 00 10 05 80  ................
00D0: 00 DB 00 03 0F 00 09 80  01 1E 01 02 00 10 09 80  ................
00E0: 00 EB 00 03 0F 00 0A 80  01 1E 01 02 00 10 0A 80  ................
00F0: 00 FB 00 03 0F 00 0B 80  01 1E 01 02 00 10 0B 80  ................
0100: 00 0B 01 03 0F 00 08 80  01 1E 01 02 00 10 08 80  ................
0110: 00 19 01 01 2B 08 01 1E  01 03 0F 00 0A 80 01 45  ....+..........E
0120: 01 06 0F 00 1A 45 08 02  16 00 05 80 00 45 01 24  .....E.......E.$
0130: 0C 80 05 80 00 80 25 02  00 10 05 80 00 45 01 01  ......%......E..
0140: 2B 08 01 45 01 42 03 01  10 0D 80 43 00 43 01 06  +..E.B.....C.C..
0150: 01 10 45 0E 80 F0 FF FF  7F F0 FF FF 7F 66 64 6F  ..E..........fdo
0160: 31 00 80 55 0E 80 F0 FF  FF 7F F0 FF FF 7F 66 64  1..U..........fd
0170: 6F 31 3B F0 FF FF 7F 21  10 22 10 23 10 38 0F 80  o1;....!.".#.8..
0180: 02 07 00 05 80 00 9F 01  03 00 00 05 80 03 04 00  ................
0190: 03 00 03 02 00 00 80 03  1C 00 00 80 01 5F 05 03  ............._..
01A0: 00 00 05 80 02 00 00 0A  80 05 F4 07 02 00 80 05  ................
01B0: 80 00 B9 01 03 00 00 05  00 40 00 80 0A 80 01 10  .........@......
01C0: 00 00 40 0B 80 10 80 01  10 03 00 40 11 80 12 80  ..@........@....
01D0: 01 10 0F 00 06 02 10 06  03 10 06 04 10 1A BD 14  ................
01E0: 47 00 09 00 0A 00 0B 00  0C 00 47 01 03 04 00 03  G.........G.....
01F0: 10 03 02 00 04 10 03 1A  00 05 10 03 0D 00 06 10  ................
0200: 03 0E 00 07 10 03 1C 00  09 10 02 02 10 05 80 80  ................
0210: 15 02 01 E1 07 02 02 10  0B 80 80 5F 02 02 00 00  ..........._....
0220: 05 80 80 2C 02 48 13 80  23 01 59 02 02 00 00 09  ...,.H..#.Y.....
0230: 80 80 3B 02 48 14 80 23  01 59 02 02 00 00 0A 80  ..;.H..#.Y......
0240: 80 4A 02 48 15 80 23 01  59 02 02 00 00 0B 80 80  .J.H..#.Y.......
0250: 59 02 48 16 80 23 01 59  02 01 F8 07 01 E1 07 02  Y.H..#.Y........
0260: 02 10 08 80 80 71 02 48  17 80 23 01 F8 07 01 E1  .....q.H..#.....
0270: 07 02 02 10 18 80 80 73  04 02 04 00 00 80 80 89  .......s........
0280: 02 03 05 10 18 80 01 69  04 02 04 00 05 80 80 99  .......i........
0290: 02 03 05 10 18 80 01 69  04 02 04 00 09 80 80 A9  .......i........
02A0: 02 03 05 10 19 80 01 69  04 02 04 00 0A 80 80 B9  .......i........
02B0: 02 03 05 10 19 80 01 69  04 02 04 00 0B 80 80 C9  .......i........
02C0: 02 03 05 10 19 80 01 69  04 02 04 00 08 80 80 D9  .......i........
02D0: 02 03 05 10 19 80 01 69  04 02 04 00 18 80 80 E9  .......i........
02E0: 02 03 05 10 19 80 01 69  04 02 04 00 1A 80 80 F9  .......i........
02F0: 02 03 05 10 18 80 01 69  04 02 04 00 10 80 80 09  .......i........
0300: 03 03 05 10 18 80 01 69  04 02 04 00 11 80 80 19  .......i........
0310: 03 03 05 10 00 80 01 69  04 02 04 00 1B 80 80 29  .......i.......)
0320: 03 03 05 10 00 80 01 69  04 02 04 00 12 80 80 39  .......i.......9
0330: 03 03 05 10 00 80 01 69  04 02 04 00 1C 80 80 49  .......i.......I
0340: 03 03 05 10 00 80 01 69  04 02 04 00 1D 80 80 59  .......i.......Y
0350: 03 03 05 10 00 80 01 69  04 02 04 00 1E 80 80 69  .......i.......i
0360: 03 03 05 10 00 80 01 69  04 02 04 00 01 80 80 79  .......i.......y
0370: 03 03 05 10 00 80 01 69  04 02 04 00 02 80 80 89  .......i........
0380: 03 03 05 10 00 80 01 69  04 02 04 00 1F 80 80 99  .......i........
0390: 03 03 05 10 00 80 01 69  04 02 04 00 19 80 80 A9  .......i........
03A0: 03 03 05 10 00 80 01 69  04 02 04 00 0F 80 80 B9  .......i........
03B0: 03 03 05 10 00 80 01 69  04 02 04 00 20 80 80 C9  .......i.... ...
03C0: 03 03 05 10 00 80 01 69  04 02 04 00 21 80 80 D9  .......i....!...
03D0: 03 03 05 10 00 80 01 69  04 02 04 00 22 80 80 E9  .......i...."...
03E0: 03 03 05 10 00 80 01 69  04 02 04 00 23 80 80 F9  .......i....#...
03F0: 03 03 05 10 00 80 01 69  04 02 04 00 24 80 80 09  .......i....$...
0400: 04 03 05 10 00 80 01 69  04 02 04 00 25 80 80 19  .......i....%...
0410: 04 03 05 10 00 80 01 69  04 02 04 00 26 80 80 29  .......i....&..)
0420: 04 03 05 10 00 80 01 69  04 02 04 00 27 80 80 39  .......i....'..9
0430: 04 03 05 10 00 80 01 69  04 02 04 00 28 80 80 49  .......i....(..I
0440: 04 03 05 10 00 80 01 69  04 02 04 00 29 80 80 59  .......i....)..Y
0450: 04 03 05 10 00 80 01 69  04 02 04 00 2A 80 80 69  .......i....*..i
0460: 04 03 05 10 00 80 01 69  04 48 2B 80 23 01 F8 07  .......i.H+.#...
0470: 01 E1 07 02 02 10 0A 80  80 81 04 01 9F 01 01 E1  ................
0480: 07 02 02 10 09 80 80 E1  07 02 0D 00 00 80 01 15  ................
0490: 05 02 13 00 00 80 01 C9  04 03 05 10 1A 00 02 1A  ................
04A0: 00 00 80 02 A6 04 02 0D  00 05 80 05 B5 04 48 2C  ..............H,
04B0: 80 23 01 C6 04 03 06 10  0D 00 0C 06 10 03 07 10  .#..............
04C0: 0D 00 48 2D 80 23 01 15  05 03 05 10 1A 00 02 1A  ..H-.#..........
04D0: 00 00 80 02 F5 04 02 1A  00 2E 80 04 F1 04 3F 04  ..............?.
04E0: 10 05 10 2E 80 15 05 10  2E 80 48 2F 80 23 01 F5  ..........H/.#..
04F0: 04 48 30 80 23 02 0D 00  05 80 05 04 05 48 2C 80  .H0.#........H,.
0500: 23 01 15 05 03 06 10 0D  00 0C 06 10 03 07 10 0D  #...............
0510: 00 48 2D 80 23 03 03 00  04 00 03 14 00 31 80 07  .H-.#........1..
0520: 14 00 03 00 02 02 00 14  00 00 34 05 03 02 00 05  ..........4.....
0530: 80 01 39 05 03 02 00 00  80 02 02 00 00 80 00 5F  ..9............_
0540: 05 02 0E 00 05 80 00 5F  05 24 32 80 05 80 00 80  ......._.$2.....
0550: 25 02 00 10 00 80 00 5F  05 05 02 00 01 5F 05 06  %......_....._..
0560: 15 00 02 04 00 00 80 80  72 05 03 15 00 05 80 01  ........r.......
0570: 57 07 02 04 00 05 80 80  82 05 03 15 00 05 80 01  W...............
0580: 57 07 02 04 00 09 80 80  92 05 03 15 00 00 80 01  W...............
0590: 57 07 02 04 00 0A 80 80  A2 05 03 15 00 00 80 01  W...............
05A0: 57 07 02 04 00 0B 80 80  B2 05 03 15 00 00 80 01  W...............
05B0: 57 07 02 04 00 08 80 80  C2 05 03 15 00 00 80 01  W...............
05C0: 57 07 02 04 00 18 80 80  D2 05 03 15 00 00 80 01  W...............
05D0: 57 07 02 04 00 1A 80 80  E2 05 03 15 00 00 80 01  W...............
05E0: 57 07 02 04 00 10 80 80  F2 05 03 15 00 00 80 01  W...............
05F0: 57 07 02 04 00 11 80 80  02 06 03 15 00 00 80 01  W...............
0600: 57 07 02 04 00 1B 80 80  12 06 03 15 00 00 80 01  W...............
0610: 57 07 02 04 00 12 80 80  22 06 03 15 00 00 80 01  W.......".......
0620: 57 07 02 04 00 1C 80 80  32 06 03 15 00 00 80 01  W.......2.......
0630: 57 07 02 04 00 1D 80 80  42 06 03 15 00 00 80 01  W.......B.......
0640: 57 07 02 04 00 1E 80 80  52 06 03 15 00 00 80 01  W.......R.......
0650: 57 07 02 04 00 01 80 80  62 06 03 15 00 00 80 01  W.......b.......
0660: 57 07 02 04 00 02 80 80  72 06 03 15 00 00 80 01  W.......r.......
0670: 57 07 02 04 00 1F 80 80  82 06 03 15 00 00 80 01  W...............
0680: 57 07 02 04 00 19 80 80  92 06 03 15 00 00 80 01  W...............
0690: 57 07 02 04 00 0F 80 80  A2 06 03 15 00 00 80 01  W...............
06A0: 57 07 02 04 00 20 80 80  B2 06 03 15 00 00 80 01  W.... ..........
06B0: 57 07 02 04 00 21 80 80  C2 06 03 15 00 00 80 01  W....!..........
06C0: 57 07 02 04 00 22 80 80  D2 06 03 15 00 00 80 01  W...."..........
06D0: 57 07 02 04 00 23 80 80  E2 06 03 15 00 00 80 01  W....#..........
06E0: 57 07 02 04 00 24 80 80  F2 06 03 15 00 00 80 01  W....$..........
06F0: 57 07 02 04 00 25 80 80  02 07 03 15 00 00 80 01  W....%..........
0700: 57 07 02 04 00 26 80 80  12 07 03 15 00 00 80 01  W....&..........
0710: 57 07 02 04 00 27 80 80  22 07 03 15 00 00 80 01  W....'..".......
0720: 57 07 02 04 00 28 80 80  32 07 03 15 00 00 80 01  W....(..2.......
0730: 57 07 02 04 00 29 80 80  42 07 03 15 00 00 80 01  W....)..B.......
0740: 57 07 02 04 00 2A 80 80  52 07 03 15 00 00 80 01  W....*..R.......
0750: 57 07 03 15 00 00 80 02  02 00 05 80 00 72 07 5C  W............r.\
0760: 00 33 80 5C 01 33 80 5C  02 33 80 5C 03 33 80 01  .3.\.3.\.3.\.3..
0770: 8A 07 02 15 00 00 80 00  8A 07 5C 00 33 80 5C 01  ..........\.3.\.
0780: 33 80 5C 02 33 80 5C 03  33 80 02 02 00 00 80 00  3.\.3.\.3.......
0790: 98 07 1A 51 10 01 D1 07  6C F0 FF FF 7F 00 80 05  ...Q....l.......
07A0: 80 62 09 80 F0 FF FF 7F  F0 FF FF 7F 6D 61 69 6E  .b..........main
07B0: 00 80 45 0E 80 F0 FF FF  7F F0 FF FF 7F 6F 76 6C  ..E..........ovl
07C0: 31 00 80 46 02 12 00 02  12 00 00 80 00 D1 07 46  1..F...........F
07D0: 00 03 01 10 31 80 07 01  10 03 00 01 F8 07 01 E1  ....1...........
07E0: 07 0B 00 00 02 00 80 05  80 00 F1 07 03 00 00 0B  ................
07F0: 80 01 A4 01 48 34 80 23  45 35 80 F0 FF FF 7F F0  ....H4.#E5......
0800: FF FF 7F 77 68 69 31 00  80 45 0E 80 F0 FF FF 7F  ...whi1..E......
0810: F0 FF FF 7F 62 6C 6F 66  00 80 45 0E 80 F0 FF FF  ....blof..E.....
0820: 7F F0 FF FF 7F 66 64 69  30 00 80 02 07 00 05 80  .....fdi0.......
0830: 00 43 08 5C 00 00 80 5C  01 00 80 5C 02 33 80 5C  .C.\...\...\.3.\
0840: 03 33 80 21 00 02 03 00  09 80 80 57 08 48 36 80  .3.!.......W.H6.
0850: 23 05 16 00 01 8D 08 02  03 00 0A 80 80 69 08 48  #............i.H
0860: 37 80 23 05 16 00 01 8D  08 02 03 00 0B 80 80 7B  7.#............{
0870: 08 48 38 80 23 05 16 00  01 8D 08 02 03 00 08 80  .H8.#...........
0880: 80 8D 08 48 39 80 23 05  16 00 01 8D 08 1B        ...H9.#.......  
```

#### Opcodes

```
  0: 0x0002 [0x20] SET_CLI_EVENT_UC_FLAG: Lock player control
  1: 0x0004 [0x79] LocalPlayer looks at LocalPlayer (Basic look)
  2: 0x000E [0x03] ExtData[1]->WorkLocal[2] = Work_Zone[2]
  3: 0x0013 [0x03] ExtData[1]->WorkLocal[3] = Work_Zone[3]
  4: 0x0018 [0x03] ExtData[1]->WorkLocal[5] = Work_Zone[4]
  5: 0x001D [0x03] ExtData[1]->WorkLocal[6] = Work_Zone[5]
  6: 0x0022 [0x03] ExtData[1]->WorkLocal[15] = Work_Zone[6]
  7: 0x0027 [0x03] ExtData[1]->WorkLocal[16] = Work_Zone[7]
  8: 0x002C [0x03] ExtData[1]->WorkLocal[17] = Work_Zone[8]
  9: 0x0031 [0x41] ExtData[1]->WorkLocal[7] = Work_Zone[9] (bits 0*-15*)
 10: 0x003A [0x41] Work_Zone[6] = Work_Zone[9] (bits 16*-31*)
 11: 0x0043 [0x06] ExtData[1]->WorkLocal[1] = 0
 12: 0x0046 [0x02] IF !(ExtData[1]->WorkLocal[7] == 0*) GOTO 0x0145
 13: 0x004E [0x03] ExtData[1]->WorkLocal[8] = 4294967295*
 14: 0x0053 [0x0F] ExtData[1]->WorkLocal[8] ^= ExtData[1]->WorkLocal[6]
 15: 0x0058 [0x10] ExtData[1]->WorkLocal[8] <<= 1*
 16: 0x005D [0x24] CREATE_DIALOG(message_id=7651*, default_option=0*, option_flags=ExtData[1]->WorkLocal[8])
    → "Which battlefield will you enter? [None./Ancient Vows./The Savage./Fire in the Sky./Bad Seed./Bugard in the Clouds./Beloved of the Atlantes./Uninvited Guests./Nest of Nightmares./$26The Savage././././././././././././././././././././././.]"
 17: 0x0064 [0x25] WAIT_DIALOG_SELECT()
 18: 0x0065 [0x02] IF !(Work_Zone[0] == 0*) GOTO 0x0073
 19: 0x006D [0x01] GOTO 0x082B

SUBROUTINE_009F:
 20: 0x009F [0x3E] IF !(ExtData[1]->WorkLocal[16] bit ExtData[1]->WorkLocal[3]) GOTO 0x00A9
 21: 0x00A6 [0x01] GOTO 0x00B0
 22: 0x00A9 [0x3C] SET_BIT_FLAG_CONDITIONAL(target_work_offset=ExtData[1]->WorkLocal[8], bit_index_work_offset=1*, condition_work_offset=1*)

SUBROUTINE_00B0:
 23: 0x00B0 [0x1A] CALL_SUBROUTINE(address=0x148D)
 24: 0x00B3 [0x24] CREATE_DIALOG(message_id=7475*, default_option=5*, option_flags=ExtData[1]->WorkLocal[8])
    → "Select difficulty. [Very difficult. (Level: ???)/Difficult. (Level: ???)/Normal. (Level: $18)/Easy. (Level: $17)/Very Easy. (Level: $16)/Leave.]"
 25: 0x00BA [0x25] WAIT_DIALOG_SELECT()
 26: 0x00BB [0x02] IF !(Work_Zone[0] == 0*) GOTO 0x00CB
 27: 0x00C3 [0x03] ExtData[1]->WorkLocal[15] = 1*
 28: 0x00C8 [0x01] GOTO 0x011E
 29: 0x00CB [0x02] IF !(Work_Zone[0] == 1*) GOTO 0x00DB
 30: 0x00D3 [0x03] ExtData[1]->WorkLocal[15] = 2*
 31: 0x00D8 [0x01] GOTO 0x011E
 32: 0x00DB [0x02] IF !(Work_Zone[0] == 2*) GOTO 0x00EB
 33: 0x00E3 [0x03] ExtData[1]->WorkLocal[15] = 3*
 34: 0x00E8 [0x01] GOTO 0x011E
 35: 0x00EB [0x02] IF !(Work_Zone[0] == 3*) GOTO 0x00FB
 36: 0x00F3 [0x03] ExtData[1]->WorkLocal[15] = 4*
 37: 0x00F8 [0x01] GOTO 0x011E
 38: 0x00FB [0x02] IF !(Work_Zone[0] == 4*) GOTO 0x010B
 39: 0x0103 [0x03] ExtData[1]->WorkLocal[15] = 5*
 40: 0x0108 [0x01] GOTO 0x011E
 41: 0x010B [0x02] IF !(Work_Zone[0] == 5*) GOTO 0x0119
 42: 0x0113 [0x01] GOTO 0x082B

SUBROUTINE_011E:
 43: 0x011E [0x01] GOTO 0x0145
 44: 0x0121 [0x06] ExtData[1]->WorkLocal[15] = 0
 45: 0x0124 [0x1A] CALL_SUBROUTINE(address=0x0845)
 46: 0x0127 [0x02] IF !(ExtData[1]->WorkLocal[22] == 1*) GOTO 0x0145
 47: 0x012F [0x24] CREATE_DIALOG(message_id=7109*, default_option=1*, option_flags=0*)
    → "Enter the battlefield? [Enter./Decline.]"
 48: 0x0136 [0x25] WAIT_DIALOG_SELECT()
 49: 0x0137 [0x02] IF !(Work_Zone[0] == 1*) GOTO 0x0145
 50: 0x013F [0x01] GOTO 0x082B

SUBROUTINE_0145:
 51: 0x0145 [0x42] SET_CLI_EVENT_CANCEL_DATA()
 52: 0x0146 [0x03] Work_Zone[1] = 255*
 53: 0x014B [0x43] SEND_EVENT_UPDATE: Send pending tag to server (packet 0x005B)
 54: 0x014D [0x43] SEND_EVENT_UPDATE: Check pending flag (skip if not pending)
 55: 0x014F [0x06] Work_Zone[1] = 0
 56: 0x0152 [0x45] LOAD_SCHEDULED_TASK: Load scheduler "fdo1" with entities [LocalPlayer, LocalPlayer], work=[200*, 0*]
 57: 0x0163 [0x55] WAIT_LOAD_SCHEDULER: Wait for scheduler "fdo1" with entities [LocalPlayer, LocalPlayer], work=200*
 58: 0x0172 [0x3B] GET_ENTITY_POSITION(entity=LocalPlayer, x_destination=Work_Zone[33], y_destination=Work_Zone[34], z_destination=Work_Zone[35])
 59: 0x017D [0x38] SET_CLIENT_EVENT_MODE(mode=19*)
 60: 0x0180 [0x02] IF !(ExtData[1]->WorkLocal[7] == 1*) GOTO 0x019F
 61: 0x0188 [0x03] ExtData[1]->WorkLocal[0] = 1*
 62: 0x018D [0x03] ExtData[1]->WorkLocal[4] = ExtData[1]->WorkLocal[3]
 63: 0x0192 [0x03] ExtData[1]->WorkLocal[2] = 0*
 64: 0x0197 [0x03] ExtData[1]->WorkLocal[28] = 0*
 65: 0x019C [0x01] GOTO 0x055F

SUBROUTINE_019F:
 66: 0x019F [0x03] ExtData[1]->WorkLocal[0] = 1*

SUBROUTINE_01A4:
 67: 0x01A4 [0x02] IF !(ExtData[1]->WorkLocal[0] > 3*) GOTO 0x07F4
 68: 0x01AC [0x02] IF !(0* == 1*) GOTO 0x01B9
 69: 0x01B4 [0x03] ExtData[1]->WorkLocal[0] = ExtData[1]->WorkLocal[5]
 70: 0x01B9 [0x40] SET_BIT_WORK_RANGE(start_bit=0*, end_bit=3*, target=Work_Zone[1], source=ExtData[1]->WorkLocal[0])
 71: 0x01C2 [0x40] SET_BIT_WORK_RANGE(start_bit=4*, end_bit=8*, target=Work_Zone[1], source=ExtData[1]->WorkLocal[3])
 72: 0x01CB [0x40] SET_BIT_WORK_RANGE(start_bit=9*, end_bit=11*, target=Work_Zone[1], source=ExtData[1]->WorkLocal[15])
 73: 0x01D4 [0x06] Work_Zone[2] = 0
 74: 0x01D7 [0x06] Work_Zone[3] = 0
 75: 0x01DA [0x06] Work_Zone[4] = 0
 76: 0x01DD [0x1A] CALL_SUBROUTINE(address=0x14BD)
 77: 0x01E0 [0x47] UPDATE_PLAYER_POS(ExtData[1]->WorkLocal[9], ExtData[1]->WorkLocal[10], ExtData[1]->WorkLocal[11], yaw=ExtData[1]->WorkLocal[12])
 78: 0x01EA [0x47] WAIT_PLAYER_POS_UPDATE
 79: 0x01EC [0x03] ExtData[1]->WorkLocal[4] = Work_Zone[3]
 80: 0x01F1 [0x03] ExtData[1]->WorkLocal[2] = Work_Zone[4]
 81: 0x01F6 [0x03] ExtData[1]->WorkLocal[26] = Work_Zone[5]
 82: 0x01FB [0x03] ExtData[1]->WorkLocal[13] = Work_Zone[6]
 83: 0x0200 [0x03] ExtData[1]->WorkLocal[14] = Work_Zone[7]
 84: 0x0205 [0x03] ExtData[1]->WorkLocal[28] = Work_Zone[9]
 85: 0x020A [0x02] IF !(Work_Zone[2] == 1*) GOTO 0x0215
 86: 0x0212 [0x01] GOTO 0x07E1
 87: 0x0215 [0x02] IF !(Work_Zone[2] == 4*) GOTO 0x025F
 88: 0x021D [0x02] IF !(ExtData[1]->WorkLocal[0] == 1*) GOTO 0x022C
 89: 0x0225 [0x48] [System] [7120*]:
    → "You are cleared to enter the battlefield, but you cannot while party members are engaged in combat."
 90: 0x0228 [0x23] WAIT_FOR_DIALOG_INTERACTION
 91: 0x0229 [0x01] GOTO 0x0259
 92: 0x022C [0x02] IF !(ExtData[1]->WorkLocal[0] == 2*) GOTO 0x023B
 93: 0x0234 [0x48] [System] [7121*]:
    → "You are cleared to enter the battlefield, but you cannot while party members are engaged in combat."
 94: 0x0237 [0x23] WAIT_FOR_DIALOG_INTERACTION
 95: 0x0238 [0x01] GOTO 0x0259
 96: 0x023B [0x02] IF !(ExtData[1]->WorkLocal[0] == 3*) GOTO 0x024A
 97: 0x0243 [0x48] [System] [7122*]:
    → "You are cleared to enter the battlefield, but you cannot while party members are engaged in combat."
 98: 0x0246 [0x23] WAIT_FOR_DIALOG_INTERACTION
 99: 0x0247 [0x01] GOTO 0x0259
100: 0x024A [0x02] IF !(ExtData[1]->WorkLocal[0] == 4*) GOTO 0x0259
101: 0x0252 [0x48] [System] [7123*]:
    → "You are cleared to enter the battlefield, but you cannot while party members are engaged in combat."
102: 0x0255 [0x23] WAIT_FOR_DIALOG_INTERACTION
103: 0x0256 [0x01] GOTO 0x0259

SUBROUTINE_0259:
104: 0x0259 [0x01] GOTO 0x07F8

SUBROUTINE_0469:
105: 0x0469 [0x48] [System] [7468*]:
    → "Only $3 [member/members] have clearance to enter the battlefield. This room has reached its maximum capacity."
106: 0x046C [0x23] WAIT_FOR_DIALOG_INTERACTION
107: 0x046D [0x01] GOTO 0x07F8

SUBROUTINE_04C6:
108: 0x04C6 [0x01] GOTO 0x0515
109: 0x04C9 [0x03] Work_Zone[5] = ExtData[1]->WorkLocal[26]
110: 0x04CE [0x02] IF !(ExtData[1]->WorkLocal[26] <= 0*) GOTO 0x04F5
111: 0x04D6 [0x02] IF !(ExtData[1]->WorkLocal[26] < 60*) GOTO 0x04F1
112: 0x04DE [0x3F] Work_Zone[4] = Work_Zone[5] % 60*
113: 0x04E5 [0x15] Work_Zone[5] /= 60*
114: 0x04EA [0x48] [System] [7645*]:
    → "The current battlefield clear time record for "[Ancient Vows/The Savage/Fire in the Sky/Bad Seed/Bugard in the Clouds/Beloved of the Atlantes/Uninvited Guests/Nest of Nightmares/$26The Savage]" is $3 minute[/s] $2 second[/s]."
115: 0x04ED [0x23] WAIT_FOR_DIALOG_INTERACTION
116: 0x04EE [0x01] GOTO 0x04F5
117: 0x04F1 [0x48] [System] [7644*]:
    → "The current battlefield clear time record for "[Ancient Vows/The Savage/Fire in the Sky/Bad Seed/Bugard in the Clouds/Beloved of the Atlantes/Uninvited Guests/Nest of Nightmares/$26The Savage]" is $3 second[/s]."
118: 0x04F4 [0x23] WAIT_FOR_DIALOG_INTERACTION

SUBROUTINE_04F5:
119: 0x04F5 [0x02] IF !(ExtData[1]->WorkLocal[13] > 1*) GOTO 0x0504
120: 0x04FD [0x48] [System] [7473*]:
    → "That record is held by %0!"
121: 0x0500 [0x23] WAIT_FOR_DIALOG_INTERACTION
122: 0x0501 [0x01] GOTO 0x0515
123: 0x0504 [0x03] Work_Zone[6] = ExtData[1]->WorkLocal[13]
124: 0x0509 [0x0C] Work_Zone[6]--
125: 0x050C [0x03] Work_Zone[7] = ExtData[1]->WorkLocal[13]
126: 0x0511 [0x48] [System] [7472*]:
    → "That record is held by $5 adventurers, including %0!"
127: 0x0514 [0x23] WAIT_FOR_DIALOG_INTERACTION

SUBROUTINE_0515:
128: 0x0515 [0x03] ExtData[1]->WorkLocal[3] = ExtData[1]->WorkLocal[4]
129: 0x051A [0x03] ExtData[1]->WorkLocal[20] = 100*
130: 0x051F [0x07] ExtData[1]->WorkLocal[20] += ExtData[1]->WorkLocal[3]
131: 0x0524 [0x02] IF !(ExtData[1]->WorkLocal[2] == ExtData[1]->WorkLocal[20]) GOTO 0x0534
132: 0x052C [0x03] ExtData[1]->WorkLocal[2] = 1*
133: 0x0531 [0x01] GOTO 0x0539
134: 0x0534 [0x03] ExtData[1]->WorkLocal[2] = 0*

SUBROUTINE_0539:
135: 0x0539 [0x02] IF !(ExtData[1]->WorkLocal[2] == 0*) GOTO 0x055F
136: 0x0541 [0x02] IF !(ExtData[1]->WorkLocal[14] == 1*) GOTO 0x055F
137: 0x0549 [0x24] CREATE_DIALOG(message_id=7448*, default_option=1*, option_flags=0*)
    → "Skip the event? [Yes./No.]"
138: 0x0550 [0x25] WAIT_DIALOG_SELECT()
139: 0x0551 [0x02] IF !(Work_Zone[0] == 0*) GOTO 0x055F
140: 0x0559 [0x05] ExtData[1]->WorkLocal[2] = 1
141: 0x055C [0x01] GOTO 0x055F

SUBROUTINE_055F:
142: 0x055F [0x06] ExtData[1]->WorkLocal[21] = 0
143: 0x0562 [0x02] IF !(ExtData[1]->WorkLocal[4] == 0*) GOTO 0x0572
144: 0x056A [0x03] ExtData[1]->WorkLocal[21] = 1*
145: 0x056F [0x01] GOTO 0x0757
146: 0x0572 [0x02] IF !(ExtData[1]->WorkLocal[4] == 1*) GOTO 0x0582
147: 0x057A [0x03] ExtData[1]->WorkLocal[21] = 1*
148: 0x057F [0x01] GOTO 0x0757
149: 0x0582 [0x02] IF !(ExtData[1]->WorkLocal[4] == 2*) GOTO 0x0592
150: 0x058A [0x03] ExtData[1]->WorkLocal[21] = 0*
151: 0x058F [0x01] GOTO 0x0757
152: 0x0592 [0x02] IF !(ExtData[1]->WorkLocal[4] == 3*) GOTO 0x05A2
153: 0x059A [0x03] ExtData[1]->WorkLocal[21] = 0*
154: 0x059F [0x01] GOTO 0x0757
155: 0x05A2 [0x02] IF !(ExtData[1]->WorkLocal[4] == 4*) GOTO 0x05B2
156: 0x05AA [0x03] ExtData[1]->WorkLocal[21] = 0*
157: 0x05AF [0x01] GOTO 0x0757
158: 0x05B2 [0x02] IF !(ExtData[1]->WorkLocal[4] == 5*) GOTO 0x05C2
159: 0x05BA [0x03] ExtData[1]->WorkLocal[21] = 0*
160: 0x05BF [0x01] GOTO 0x0757
161: 0x05C2 [0x02] IF !(ExtData[1]->WorkLocal[4] == 6*) GOTO 0x05D2
162: 0x05CA [0x03] ExtData[1]->WorkLocal[21] = 0*
163: 0x05CF [0x01] GOTO 0x0757
164: 0x05D2 [0x02] IF !(ExtData[1]->WorkLocal[4] == 7*) GOTO 0x05E2
165: 0x05DA [0x03] ExtData[1]->WorkLocal[21] = 0*
166: 0x05DF [0x01] GOTO 0x0757
167: 0x05E2 [0x02] IF !(ExtData[1]->WorkLocal[4] == 8*) GOTO 0x05F2
168: 0x05EA [0x03] ExtData[1]->WorkLocal[21] = 0*
169: 0x05EF [0x01] GOTO 0x0757
170: 0x05F2 [0x02] IF !(ExtData[1]->WorkLocal[4] == 9*) GOTO 0x0602
171: 0x05FA [0x03] ExtData[1]->WorkLocal[21] = 0*
172: 0x05FF [0x01] GOTO 0x0757
173: 0x0602 [0x02] IF !(ExtData[1]->WorkLocal[4] == 10*) GOTO 0x0612
174: 0x060A [0x03] ExtData[1]->WorkLocal[21] = 0*
175: 0x060F [0x01] GOTO 0x0757
176: 0x0612 [0x02] IF !(ExtData[1]->WorkLocal[4] == 11*) GOTO 0x0622
177: 0x061A [0x03] ExtData[1]->WorkLocal[21] = 0*
178: 0x061F [0x01] GOTO 0x0757
179: 0x0622 [0x02] IF !(ExtData[1]->WorkLocal[4] == 12*) GOTO 0x0632
180: 0x062A [0x03] ExtData[1]->WorkLocal[21] = 0*
181: 0x062F [0x01] GOTO 0x0757
182: 0x0632 [0x02] IF !(ExtData[1]->WorkLocal[4] == 13*) GOTO 0x0642
183: 0x063A [0x03] ExtData[1]->WorkLocal[21] = 0*
184: 0x063F [0x01] GOTO 0x0757
185: 0x0642 [0x02] IF !(ExtData[1]->WorkLocal[4] == 14*) GOTO 0x0652
186: 0x064A [0x03] ExtData[1]->WorkLocal[21] = 0*
187: 0x064F [0x01] GOTO 0x0757
188: 0x0652 [0x02] IF !(ExtData[1]->WorkLocal[4] == 15*) GOTO 0x0662
189: 0x065A [0x03] ExtData[1]->WorkLocal[21] = 0*
190: 0x065F [0x01] GOTO 0x0757
191: 0x0662 [0x02] IF !(ExtData[1]->WorkLocal[4] == 16*) GOTO 0x0672
192: 0x066A [0x03] ExtData[1]->WorkLocal[21] = 0*
193: 0x066F [0x01] GOTO 0x0757
194: 0x0672 [0x02] IF !(ExtData[1]->WorkLocal[4] == 17*) GOTO 0x0682
195: 0x067A [0x03] ExtData[1]->WorkLocal[21] = 0*
196: 0x067F [0x01] GOTO 0x0757
197: 0x0682 [0x02] IF !(ExtData[1]->WorkLocal[4] == 18*) GOTO 0x0692
198: 0x068A [0x03] ExtData[1]->WorkLocal[21] = 0*
199: 0x068F [0x01] GOTO 0x0757
200: 0x0692 [0x02] IF !(ExtData[1]->WorkLocal[4] == 19*) GOTO 0x06A2
201: 0x069A [0x03] ExtData[1]->WorkLocal[21] = 0*
202: 0x069F [0x01] GOTO 0x0757
203: 0x06A2 [0x02] IF !(ExtData[1]->WorkLocal[4] == 20*) GOTO 0x06B2
204: 0x06AA [0x03] ExtData[1]->WorkLocal[21] = 0*
205: 0x06AF [0x01] GOTO 0x0757
206: 0x06B2 [0x02] IF !(ExtData[1]->WorkLocal[4] == 21*) GOTO 0x06C2
207: 0x06BA [0x03] ExtData[1]->WorkLocal[21] = 0*
208: 0x06BF [0x01] GOTO 0x0757
209: 0x06C2 [0x02] IF !(ExtData[1]->WorkLocal[4] == 22*) GOTO 0x06D2
210: 0x06CA [0x03] ExtData[1]->WorkLocal[21] = 0*
211: 0x06CF [0x01] GOTO 0x0757
212: 0x06D2 [0x02] IF !(ExtData[1]->WorkLocal[4] == 23*) GOTO 0x06E2
213: 0x06DA [0x03] ExtData[1]->WorkLocal[21] = 0*
214: 0x06DF [0x01] GOTO 0x0757
215: 0x06E2 [0x02] IF !(ExtData[1]->WorkLocal[4] == 24*) GOTO 0x06F2
216: 0x06EA [0x03] ExtData[1]->WorkLocal[21] = 0*
217: 0x06EF [0x01] GOTO 0x0757
218: 0x06F2 [0x02] IF !(ExtData[1]->WorkLocal[4] == 25*) GOTO 0x0702
219: 0x06FA [0x03] ExtData[1]->WorkLocal[21] = 0*
220: 0x06FF [0x01] GOTO 0x0757
221: 0x0702 [0x02] IF !(ExtData[1]->WorkLocal[4] == 26*) GOTO 0x0712
222: 0x070A [0x03] ExtData[1]->WorkLocal[21] = 0*
223: 0x070F [0x01] GOTO 0x0757
224: 0x0712 [0x02] IF !(ExtData[1]->WorkLocal[4] == 27*) GOTO 0x0722
225: 0x071A [0x03] ExtData[1]->WorkLocal[21] = 0*
226: 0x071F [0x01] GOTO 0x0757
227: 0x0722 [0x02] IF !(ExtData[1]->WorkLocal[4] == 28*) GOTO 0x0732
228: 0x072A [0x03] ExtData[1]->WorkLocal[21] = 0*
229: 0x072F [0x01] GOTO 0x0757
230: 0x0732 [0x02] IF !(ExtData[1]->WorkLocal[4] == 29*) GOTO 0x0742
231: 0x073A [0x03] ExtData[1]->WorkLocal[21] = 0*
232: 0x073F [0x01] GOTO 0x0757
233: 0x0742 [0x02] IF !(ExtData[1]->WorkLocal[4] == 30*) GOTO 0x0752
234: 0x074A [0x03] ExtData[1]->WorkLocal[21] = 0*
235: 0x074F [0x01] GOTO 0x0757
236: 0x0752 [0x03] ExtData[1]->WorkLocal[21] = 0*

SUBROUTINE_0757:
237: 0x0757 [0x02] IF !(ExtData[1]->WorkLocal[2] == 1*) GOTO 0x0772
238: 0x075F [0x5C] MUSIC_CONTROL: Set Idle (Day) music to song 220*
239: 0x0763 [0x5C] MUSIC_CONTROL: Set Idle (Night) music to song 220*
240: 0x0767 [0x5C] MUSIC_CONTROL: Set Combat (Solo) music to song 220*
241: 0x076B [0x5C] MUSIC_CONTROL: Set Combat (Party) music to song 220*
242: 0x076F [0x01] GOTO 0x078A
243: 0x0772 [0x02] IF !(ExtData[1]->WorkLocal[21] == 0*) GOTO 0x078A
244: 0x077A [0x5C] MUSIC_CONTROL: Set Idle (Day) music to song 220*
245: 0x077E [0x5C] MUSIC_CONTROL: Set Idle (Night) music to song 220*
246: 0x0782 [0x5C] MUSIC_CONTROL: Set Combat (Solo) music to song 220*
247: 0x0786 [0x5C] MUSIC_CONTROL: Set Combat (Party) music to song 220*

SUBROUTINE_078A:
248: 0x078A [0x02] IF !(ExtData[1]->WorkLocal[2] == 0*) GOTO 0x0798
249: 0x0792 [0x1A] CALL_SUBROUTINE(address=0x1051)
250: 0x0795 [0x01] GOTO 0x07D1
251: 0x0798 [0x6C] FADE_ENTITY_COLOR(entity_id=LocalPlayer, end_alpha=0*, fade_time=1*)
252: 0x07A1 [0x62] LOAD_EVENT_SCHEDULER: Load scheduler "main" with entities [LocalPlayer, LocalPlayer], work=[2*, 0*]
253: 0x07B2 [0x45] LOAD_SCHEDULED_TASK: Load scheduler "ovl1" with entities [LocalPlayer, LocalPlayer], work=[200*, 0*]
254: 0x07C3 [0x46] CAMERA_CONTROL: Query status
255: 0x07C5 [0x12] 0x0200 = rand()
256: 0x07C8 [0x12] ExtData[1]->WorkLocal[0] = rand()
257: 0x07CB [0x80] LOAD_WAIT(entity=Unknown NPC (ID: 1174917376/0x4607D100))
258: 0x07D0 [0x00] END_REQSTACK()

SUBROUTINE_07D1:
259: 0x07D1 [0x03] Work_Zone[1] = 100*
260: 0x07D6 [0x07] Work_Zone[1] += ExtData[1]->WorkLocal[3]
261: 0x07DB [0x01] GOTO 0x07F8

SUBROUTINE_07E1:
262: 0x07E1 [0x0B] ExtData[1]->WorkLocal[0]++
263: 0x07E4 [0x02] IF !(0* == 1*) GOTO 0x07F1
264: 0x07EC [0x03] ExtData[1]->WorkLocal[0] = 4*
265: 0x07F1 [0x01] GOTO 0x01A4
266: 0x07F4 [0x48] [System] [7112*]:
    → "You cannot enter the battlefield at present. Please wait a little longer."
267: 0x07F7 [0x23] WAIT_FOR_DIALOG_INTERACTION

SUBROUTINE_07F8:
268: 0x07F8 [0x45] LOAD_SCHEDULED_TASK: Load scheduler "whi1" with entities [LocalPlayer, LocalPlayer], work=[201*, 0*]
269: 0x0809 [0x45] LOAD_SCHEDULED_TASK: Load scheduler "blof" with entities [LocalPlayer, LocalPlayer], work=[200*, 0*]
270: 0x081A [0x45] LOAD_SCHEDULED_TASK: Load scheduler "fdi0" with entities [LocalPlayer, LocalPlayer], work=[200*, 0*]

SUBROUTINE_082B:
271: 0x082B [0x02] IF !(ExtData[1]->WorkLocal[7] == 1*) GOTO 0x0843
272: 0x0833 [0x5C] MUSIC_CONTROL: Set Idle (Day) music to song 0*
273: 0x0837 [0x5C] MUSIC_CONTROL: Set Idle (Night) music to song 0*
274: 0x083B [0x5C] MUSIC_CONTROL: Set Combat (Solo) music to song 220*
275: 0x083F [0x5C] MUSIC_CONTROL: Set Combat (Party) music to song 220*
276: 0x0843 [0x21] END_EVENT
277: 0x0844 [0x00] END_REQSTACK()

SUBROUTINE_0845:
278: 0x0845 [0x02] IF !(ExtData[1]->WorkLocal[3] == 2*) GOTO 0x0857
279: 0x084D [0x48] [System] [7647*]:
    → "Level limit of 40. The experience point reward for this battlefield will be reduced for parties of four or more members."
280: 0x0850 [0x23] WAIT_FOR_DIALOG_INTERACTION
281: 0x0851 [0x05] ExtData[1]->WorkLocal[22] = 1
282: 0x0854 [0x01] GOTO 0x088D
283: 0x0857 [0x02] IF !(ExtData[1]->WorkLocal[3] == 3*) GOTO 0x0869
284: 0x085F [0x48] [System] [7648*]:
    → "Level limit of 40. The experience point reward for this battlefield will be reduced for parties of seven or more members."
285: 0x0862 [0x23] WAIT_FOR_DIALOG_INTERACTION
286: 0x0863 [0x05] ExtData[1]->WorkLocal[22] = 1
287: 0x0866 [0x01] GOTO 0x088D
288: 0x0869 [0x02] IF !(ExtData[1]->WorkLocal[3] == 4*) GOTO 0x087B
289: 0x0871 [0x48] [System] [7649*]:
    → "Level limit of 50. The experience point reward for this battlefield will be reduced for parties of four or more members."
290: 0x0874 [0x23] WAIT_FOR_DIALOG_INTERACTION
291: 0x0875 [0x05] ExtData[1]->WorkLocal[22] = 1
292: 0x0878 [0x01] GOTO 0x088D
293: 0x087B [0x02] IF !(ExtData[1]->WorkLocal[3] == 5*) GOTO 0x088D
294: 0x0883 [0x48] [System] [7650*]:
    → "Level limit of 50. The experience point reward for this battlefield will be reduced for parties of seven or more members."
295: 0x0886 [0x23] WAIT_FOR_DIALOG_INTERACTION
296: 0x0887 [0x05] ExtData[1]->WorkLocal[22] = 1
297: 0x088A [0x01] GOTO 0x088D

SUBROUTINE_088D:
298: 0x088D [0x1B] RETURN
```

#### Data or dead code:

```
# Dead code (unreachable instructions):
     0x0070 [0x01] GOTO 0x0145
# Dead code (unreachable instructions):
     0x0116 [0x01] GOTO 0x011E
# Dead code (unreachable instructions):
     0x0142 [0x01] GOTO 0x0145
# Dead code (unreachable instructions):
     0x025C [0x01] GOTO 0x07E1
     0x026E [0x01] GOTO 0x07E1
# Dead code (unreachable instructions):
     0x0470 [0x01] GOTO 0x07E1
     0x047E [0x01] GOTO 0x07E1
# Dead code (unreachable instructions):
     0x07DE [0x01] GOTO 0x07E1
```

### Event 32002

#### Metadata

| Field        | Value     |
|--------------|-----------|
| Entrypoint   | 0x088E    |
| Data Size    | 494 bytes |
| Instructions | 83        |

```
      00 01 02 03 04 05 06 07  08 09 0A 0B 0C 0D 0E 0F
      -- -- -- -- -- -- -- --  -- -- -- -- -- -- -- --
0880:                                            03 05                ..
0890: 00 06 10 03 21 00 07 10  03 20 00 08 10 20 01 42  ....!.... ... .B
08A0: 3B F0 FF FF 7F 21 10 22  10 23 10 3A F0 FF FF 7F  ;....!.".#.:....
08B0: 24 10 45 0E 80 F0 FF FF  7F F0 FF FF 7F 66 64 6F  $.E..........fdo
08C0: 31 00 80 55 0E 80 F0 FF  FF 7F F0 FF FF 7F 66 64  1..U..........fd
08D0: 6F 31 02 00 80 05 80 00  39 09 02 05 00 05 80 80  o1......9.......
08E0: F1 08 47 00 00 80 00 80  00 80 00 80 47 01 01 36  ..G.........G..6
08F0: 09 02 05 00 09 80 80 08  09 47 00 00 80 00 80 00  .........G......
0900: 80 00 80 47 01 01 36 09  02 05 00 0A 80 80 1F 09  ...G..6.........
0910: 47 00 00 80 00 80 00 80  00 80 47 01 01 36 09 02  G.........G..6..
0920: 05 00 0B 80 80 36 09 47  00 00 80 00 80 00 80 00  .....6.G........
0930: 80 47 01 01 36 09 01 42  0A 02 20 00 3A 80 80 C3  .G..6..B.. .:...
0940: 09 02 21 00 00 80 80 58  09 47 00 3B 80 3C 80 3D  ..!....X.G.;.<.=
0950: 80 3E 80 47 01 01 C0 09  02 21 00 05 80 80 6F 09  .>.G.....!....o.
0960: 47 00 3F 80 40 80 41 80  42 80 47 01 01 C0 09 02  G.?.@.A.B.G.....
0970: 21 00 09 80 80 86 09 47  00 43 80 44 80 45 80 46  !......G.C.D.E.F
0980: 80 47 01 01 C0 09 02 21  00 0A 80 80 9D 09 47 00  .G.....!......G.
0990: 47 80 48 80 49 80 4A 80  47 01 01 C0 09 02 21 00  G.H.I.J.G.....!.
09A0: 0B 80 80 B4 09 47 00 4B  80 4C 80 4D 80 4E 80 47  .....G.K.L.M.N.G
09B0: 01 01 C0 09 47 00 4F 80  50 80 51 80 00 80 47 01  ....G.O.P.Q...G.
09C0: 01 42 0A 02 20 00 18 80  80 36 0A 02 21 00 05 80  .B.. ....6..!...
09D0: 80 E2 09 47 00 52 80 53  80 54 80 55 80 47 01 01  ...G.R.S.T.U.G..
09E0: 33 0A 02 21 00 09 80 80  F9 09 47 00 56 80 57 80  3..!......G.V.W.
09F0: 58 80 59 80 47 01 01 33  0A 02 21 00 0A 80 80 10  X.Y.G..3..!.....
0A00: 0A 47 00 5A 80 5B 80 5C  80 5D 80 47 01 01 33 0A  .G.Z.[.\.].G..3.
0A10: 02 21 00 0B 80 80 27 0A  47 00 5E 80 5F 80 60 80  .!....'.G.^._.`.
0A20: 61 80 47 01 01 33 0A 47  00 4F 80 50 80 51 80 00  a.G..3.G.O.P.Q..
0A30: 80 47 01 01 42 0A 47 00  4F 80 50 80 51 80 00 80  .G..B.G.O.P.Q...
0A40: 47 01 38 0F 80 1A 2B 14  45 35 80 F0 FF FF 7F F0  G.8...+.E5......
0A50: FF FF 7F 77 68 69 31 00  80 45 0E 80 F0 FF FF 7F  ...whi1..E......
0A60: F0 FF FF 7F 62 6C 6F 66  00 80 5C 00 00 80 5C 01  ....blof..\...\.
0A70: 00 80 5C 02 33 80 5C 03  33 80 21 00              ..\.3.\.3.!.    
```

#### Opcodes

```
  0: 0x088E [0x03] ExtData[1]->WorkLocal[5] = Work_Zone[6]
  1: 0x0893 [0x03] ExtData[1]->WorkLocal[33] = Work_Zone[7]
  2: 0x0898 [0x03] ExtData[1]->WorkLocal[32] = Work_Zone[8]
  3: 0x089D [0x20] SET_CLI_EVENT_UC_FLAG: Lock player control
  4: 0x089F [0x42] SET_CLI_EVENT_CANCEL_DATA()
  5: 0x08A0 [0x3B] GET_ENTITY_POSITION(entity=LocalPlayer, x_destination=Work_Zone[33], y_destination=Work_Zone[34], z_destination=Work_Zone[35])
  6: 0x08AB [0x3A] CONVERT_YAW_TO_BYTE(entity=LocalPlayer, result_destination=Work_Zone[36])
  7: 0x08B2 [0x45] LOAD_SCHEDULED_TASK: Load scheduler "fdo1" with entities [LocalPlayer, LocalPlayer], work=[200*, 0*]
  8: 0x08C3 [0x55] WAIT_LOAD_SCHEDULER: Wait for scheduler "fdo1" with entities [LocalPlayer, LocalPlayer], work=200*
  9: 0x08D2 [0x02] IF !(0* == 1*) GOTO 0x0939
 10: 0x08DA [0x02] IF !(ExtData[1]->WorkLocal[5] == 1*) GOTO 0x08F1
 11: 0x08E2 [0x47] UPDATE_PLAYER_POS(0.000*, 0.000*, 0.000*, yaw=0.0°*)
 12: 0x08EC [0x47] WAIT_PLAYER_POS_UPDATE
 13: 0x08EE [0x01] GOTO 0x0936
 14: 0x08F1 [0x02] IF !(ExtData[1]->WorkLocal[5] == 2*) GOTO 0x0908
 15: 0x08F9 [0x47] UPDATE_PLAYER_POS(0.000*, 0.000*, 0.000*, yaw=0.0°*)
 16: 0x0903 [0x47] WAIT_PLAYER_POS_UPDATE
 17: 0x0905 [0x01] GOTO 0x0936
 18: 0x0908 [0x02] IF !(ExtData[1]->WorkLocal[5] == 3*) GOTO 0x091F
 19: 0x0910 [0x47] UPDATE_PLAYER_POS(0.000*, 0.000*, 0.000*, yaw=0.0°*)
 20: 0x091A [0x47] WAIT_PLAYER_POS_UPDATE
 21: 0x091C [0x01] GOTO 0x0936
 22: 0x091F [0x02] IF !(ExtData[1]->WorkLocal[5] == 4*) GOTO 0x0936
 23: 0x0927 [0x47] UPDATE_PLAYER_POS(0.000*, 0.000*, 0.000*, yaw=0.0°*)
 24: 0x0931 [0x47] WAIT_PLAYER_POS_UPDATE
 25: 0x0933 [0x01] GOTO 0x0936

SUBROUTINE_0936:
 26: 0x0936 [0x01] GOTO 0x0A42
 27: 0x0939 [0x02] IF !(ExtData[1]->WorkLocal[32] == 180*) GOTO 0x09C3
 28: 0x0941 [0x02] IF !(ExtData[1]->WorkLocal[33] == 0*) GOTO 0x0958
 29: 0x0949 [0x47] UPDATE_PLAYER_POS(-605.141*, 479.929*, -22.681*, yaw=87.2°*)
 30: 0x0953 [0x47] WAIT_PLAYER_POS_UPDATE
 31: 0x0955 [0x01] GOTO 0x09C0
 32: 0x0958 [0x02] IF !(ExtData[1]->WorkLocal[33] == 1*) GOTO 0x096F
 33: 0x0960 [0x47] UPDATE_PLAYER_POS(-262.589*, 377.857*, -137.313*, yaw=305.3°*)
 34: 0x096A [0x47] WAIT_PLAYER_POS_UPDATE
 35: 0x096C [0x01] GOTO 0x09C0
 36: 0x096F [0x02] IF !(ExtData[1]->WorkLocal[33] == 2*) GOTO 0x0986
 37: 0x0977 [0x47] UPDATE_PLAYER_POS(18.348*, 486.940*, -224.334*, yaw=17.1°*)
 38: 0x0981 [0x47] WAIT_PLAYER_POS_UPDATE
 39: 0x0983 [0x01] GOTO 0x09C0
 40: 0x0986 [0x02] IF !(ExtData[1]->WorkLocal[33] == 3*) GOTO 0x099D
 41: 0x098E [0x47] UPDATE_PLAYER_POS(231.593*, 360.094*, -173.572*, yaw=160.8°*)
 42: 0x0998 [0x47] WAIT_PLAYER_POS_UPDATE
 43: 0x099A [0x01] GOTO 0x09C0
 44: 0x099D [0x02] IF !(ExtData[1]->WorkLocal[33] == 4*) GOTO 0x09B4
 45: 0x09A5 [0x47] UPDATE_PLAYER_POS(553.664*, 523.939*, -38.205*, yaw=233.9°*)
 46: 0x09AF [0x47] WAIT_PLAYER_POS_UPDATE
 47: 0x09B1 [0x01] GOTO 0x09C0
 48: 0x09B4 [0x47] UPDATE_PLAYER_POS(-26.013*, -540.000*, -1.226*, yaw=0.0°*)
 49: 0x09BE [0x47] WAIT_PLAYER_POS_UPDATE

SUBROUTINE_09C0:
 50: 0x09C0 [0x01] GOTO 0x0A42
 51: 0x09C3 [0x02] IF !(ExtData[1]->WorkLocal[32] == 6*) GOTO 0x0A36
 52: 0x09CB [0x02] IF !(ExtData[1]->WorkLocal[33] == 1*) GOTO 0x09E2
 53: 0x09D3 [0x47] UPDATE_PLAYER_POS(-875.117*, -43.892*, -48.084*, yaw=45.1°*)
 54: 0x09DD [0x47] WAIT_PLAYER_POS_UPDATE
 55: 0x09DF [0x01] GOTO 0x0A33
 56: 0x09E2 [0x02] IF !(ExtData[1]->WorkLocal[33] == 2*) GOTO 0x09F9
 57: 0x09EA [0x47] UPDATE_PLAYER_POS(-755.499*, 563.947*, -112.035*, yaw=313.5°*)
 58: 0x09F4 [0x47] WAIT_PLAYER_POS_UPDATE
 59: 0x09F6 [0x01] GOTO 0x0A33
 60: 0x09F9 [0x02] IF !(ExtData[1]->WorkLocal[33] == 3*) GOTO 0x0A10
 61: 0x0A01 [0x47] UPDATE_PLAYER_POS(123.251*, 754.209*, -172.124*, yaw=38.7°*)
 62: 0x0A0B [0x47] WAIT_PLAYER_POS_UPDATE
 63: 0x0A0D [0x01] GOTO 0x0A33
 64: 0x0A10 [0x02] IF !(ExtData[1]->WorkLocal[33] == 4*) GOTO 0x0A27
 65: 0x0A18 [0x47] UPDATE_PLAYER_POS(-516.404*, -803.323*, 24.206*, yaw=38.4°*)
 66: 0x0A22 [0x47] WAIT_PLAYER_POS_UPDATE
 67: 0x0A24 [0x01] GOTO 0x0A33
 68: 0x0A27 [0x47] UPDATE_PLAYER_POS(-26.013*, -540.000*, -1.226*, yaw=0.0°*)
 69: 0x0A31 [0x47] WAIT_PLAYER_POS_UPDATE

SUBROUTINE_0A33:
 70: 0x0A33 [0x01] GOTO 0x0A42
 71: 0x0A36 [0x47] UPDATE_PLAYER_POS(-26.013*, -540.000*, -1.226*, yaw=0.0°*)
 72: 0x0A40 [0x47] WAIT_PLAYER_POS_UPDATE

SUBROUTINE_0A42:
 73: 0x0A42 [0x38] SET_CLIENT_EVENT_MODE(mode=19*)
 74: 0x0A45 [0x1A] CALL_SUBROUTINE(address=0x142B)
 75: 0x0A48 [0x45] LOAD_SCHEDULED_TASK: Load scheduler "whi1" with entities [LocalPlayer, LocalPlayer], work=[201*, 0*]
 76: 0x0A59 [0x45] LOAD_SCHEDULED_TASK: Load scheduler "blof" with entities [LocalPlayer, LocalPlayer], work=[200*, 0*]
 77: 0x0A6A [0x5C] MUSIC_CONTROL: Set Idle (Day) music to song 0*
 78: 0x0A6E [0x5C] MUSIC_CONTROL: Set Idle (Night) music to song 0*
 79: 0x0A72 [0x5C] MUSIC_CONTROL: Set Combat (Solo) music to song 220*
 80: 0x0A76 [0x5C] MUSIC_CONTROL: Set Combat (Party) music to song 220*
 81: 0x0A7A [0x21] END_EVENT
 82: 0x0A7B [0x00] END_REQSTACK()
```

### Event 32001

#### Metadata

| Field        | Value      |
|--------------|------------|
| Entrypoint   | 0x0A7C     |
| Data Size    | 1033 bytes |
| Instructions | 177        |

```
      00 01 02 03 04 05 06 07  08 09 0A 0B 0C 0D 0E 0F
      -- -- -- -- -- -- -- --  -- -- -- -- -- -- -- --
0A70:                                      79 00 F0 FF              y...
0A80: FF 7F F0 FF FF 7F 03 21  00 02 10 03 1A 00 03 10  .......!........
0A90: 03 1B 00 05 10 03 20 00  06 10 03 19 00 07 10 03  ...... .........
0AA0: 17 00 08 10 02 17 00 0A  80 04 B1 0A 03 17 00 00  ................
0AB0: 80 03 1C 00 09 10 20 01  42 3B F0 FF FF 7F 21 10  ...... .B;....!.
0AC0: 22 10 23 10 3A F0 FF FF  7F 24 10 02 20 00 3A 80  ".#.:....$.. .:.
0AD0: 01 D6 0A 1C 62 80 45 35  80 F0 FF FF 7F F0 FF FF  ....b.E5........
0AE0: 7F 77 68 69 31 00 80 45  0E 80 F0 FF FF 7F F0 FF  .whi1..E........
0AF0: FF 7F 62 6C 6F 66 00 80  45 0E 80 F0 FF FF 7F F0  ..blof..E.......
0B00: FF FF 7F 66 64 6F 31 00  80 55 0E 80 F0 FF FF 7F  ...fdo1..U......
0B10: F0 FF FF 7F 66 64 6F 31  6C F0 FF FF 7F 63 80 05  ....fdo1l....c..
0B20: 80 06 01 10 02 17 00 00  80 03 2F 0B 01 7D 0C 02  ........../..}..
0B30: 20 00 3A 80 80 B9 0B 02  21 00 00 80 80 4E 0B 47   .:.....!....N.G
0B40: 00 64 80 65 80 66 80 67  80 47 01 01 B6 0B 02 21  .d.e.f.g.G.....!
0B50: 00 05 80 80 65 0B 47 00  68 80 69 80 6A 80 6B 80  ....e.G.h.i.j.k.
0B60: 47 01 01 B6 0B 02 21 00  09 80 80 7C 0B 47 00 6C  G.....!....|.G.l
0B70: 80 6D 80 6E 80 6F 80 47  01 01 B6 0B 02 21 00 0A  .m.n.o.G.....!..
0B80: 80 80 93 0B 47 00 70 80  71 80 72 80 73 80 47 01  ....G.p.q.r.s.G.
0B90: 01 B6 0B 02 21 00 0B 80  80 AA 0B 47 00 74 80 75  ....!......G.t.u
0BA0: 80 76 80 77 80 47 01 01  B6 0B 47 00 78 80 79 80  .v.w.G....G.x.y.
0BB0: 7A 80 7B 80 47 01 01 7D  0C 02 20 00 7C 80 80 E7  z.{.G..}.. .|...
0BC0: 0B 02 19 00 00 80 80 D8  0B 47 00 78 80 79 80 7A  .........G.x.y.z
0BD0: 80 7B 80 47 01 01 E4 0B  47 00 7D 80 7E 80 7F 80  .{.G....G.}.~...
0BE0: 80 80 47 01 01 7D 0C 02  20 00 81 80 80 15 0C 02  ..G..}.. .......
0BF0: 19 00 0B 80 80 06 0C 47  00 82 80 83 80 84 80 85  .......G........
0C00: 80 47 01 01 12 0C 47 00  78 80 79 80 7A 80 7B 80  .G....G.x.y.z.{.
0C10: 47 01 01 7D 0C 02 20 00  86 80 80 43 0C 02 19 00  G..}.. ....C....
0C20: 0B 80 80 34 0C 47 00 87  80 88 80 89 80 8A 80 47  ...4.G.........G
0C30: 01 01 40 0C 47 00 78 80  79 80 7A 80 7B 80 47 01  ..@.G.x.y.z.{.G.
0C40: 01 7D 0C 02 20 00 8B 80  80 71 0C 02 19 00 0A 80  .}.. ....q......
0C50: 80 62 0C 47 00 8C 80 8D  80 8E 80 8F 80 47 01 01  .b.G.........G..
0C60: 6E 0C 47 00 78 80 79 80  7A 80 7B 80 47 01 01 7D  n.G.x.y.z.{.G..}
0C70: 0C 47 00 78 80 79 80 7A  80 7B 80 47 01 38 0F 80  .G.x.y.z.{.G.8..
0C80: 02 17 00 09 80 00 8B 0C  01 A6 0C 02 17 00 05 80  ................
0C90: 00 56 0D 1C 01 80 24 32  80 05 80 00 80 25 02 00  .V....$2.....%..
0CA0: 10 00 80 00 56 0D 02 20  00 3A 80 00 12 0D 02 21  ....V.. .:.....!
0CB0: 00 00 80 80 C0 0C 36 64  80 65 80 66 80 01 0F 0D  ......6d.e.f....
0CC0: 02 21 00 05 80 80 D2 0C  36 68 80 69 80 6A 80 01  .!......6h.i.j..
0CD0: 0F 0D 02 21 00 09 80 80  E4 0C 36 6C 80 6D 80 6E  ...!......6l.m.n
0CE0: 80 01 0F 0D 02 21 00 0A  80 80 F6 0C 36 70 80 71  .....!......6p.q
0CF0: 80 72 80 01 0F 0D 02 21  00 0B 80 80 08 0D 36 74  .r.....!......6t
0D00: 80 75 80 76 80 01 0F 0D  36 78 80 79 80 7A 80 01  .u.v....6x.y.z..
0D10: 1B 0D 37 78 80 79 80 7A  80 7B 80 80 F0 FF FF 7F  ..7x.y.z.{......
0D20: 62 09 80 F0 FF FF 7F F0  FF FF 7F 6D 61 69 6E 00  b..........main.
0D30: 80 45 0E 80 F0 FF FF 7F  F0 FF FF 7F 66 64 69 32  .E..........fdi2
0D40: 00 80 46 02 12 00 02 12  00 00 80 00 50 0D 46 00  ..F.........P.F.
0D50: 01 7D 0D 01 56 0D 02 17  00 04 80 04 6F 0D 5C 00  .}..V.......o.\.
0D60: 33 80 5C 01 33 80 5C 02  33 80 5C 03 33 80 9A 1A  3.\.3.\.3.\.3...
0D70: 14 12 02 17 00 00 80 03  7D 0D 01 1D 0E 02 20 00  ........}..... .
0D80: 90 80 80 88 0D 01 88 0D  02 20 00 1F 80 80 93 0D  ......... ......
0D90: 01 1D 0E 02 20 00 0F 80  80 9E 0D 01 1D 0E 02 20  .... .......... 
0DA0: 00 21 80 80 A9 0D 01 1D  0E 02 20 00 23 80 80 B4  .!........ .#...
0DB0: 0D 01 1D 0E 03 05 10 1B  00 02 05 10 00 80 02 1D  ................
0DC0: 0E 02 05 10 2E 80 04 DC  0D 3F 04 10 05 10 2E 80  .........?......
0DD0: 15 05 10 2E 80 48 91 80  23 01 E0 0D 48 92 80 23  .....H..#...H..#
0DE0: 02 1B 00 1A 00 05 F4 0D  03 07 10 19 00 48 93 80  .............H..
0DF0: 23 01 1D 0E 02 1A 00 2E  80 04 14 0E 03 05 10 1A  #...............
0E00: 00 3F 04 10 05 10 2E 80  15 05 10 2E 80 48 94 80  .?...........H..
0E10: 23 01 1D 0E 03 05 10 1A  00 48 95 80 23 02 18 00  #........H..#...
0E20: 00 80 00 35 0E 5C 00 00  80 5C 01 00 80 5C 02 33  ...5.\...\...\.3
0E30: 80 5C 03 33 80 02 17 00  00 80 03 5E 0E 45 0E 80  .\.3.......^.E..
0E40: F0 FF FF 7F F0 FF FF 7F  66 64 69 32 00 80 5C 00  ........fdi2..\.
0E50: 00 80 5C 01 00 80 5C 02  33 80 5C 03 33 80 06 18  ..\...\.3.\.3...
0E60: 00 45 35 80 F0 FF FF 7F  F0 FF FF 7F 77 68 69 31  .E5.........whi1
0E70: 00 80 45 0E 80 F0 FF FF  7F F0 FF FF 7F 62 6C 6F  ..E..........blo
0E80: 66 00 80 21 00                                    f..!.           
```

#### Opcodes

```
  0: 0x0A7C [0x79] LocalPlayer looks at LocalPlayer (Basic look)
  1: 0x0A86 [0x03] ExtData[1]->WorkLocal[33] = Work_Zone[2]
  2: 0x0A8B [0x03] ExtData[1]->WorkLocal[26] = Work_Zone[3]
  3: 0x0A90 [0x03] ExtData[1]->WorkLocal[27] = Work_Zone[5]
  4: 0x0A95 [0x03] ExtData[1]->WorkLocal[32] = Work_Zone[6]
  5: 0x0A9A [0x03] ExtData[1]->WorkLocal[25] = Work_Zone[7]
  6: 0x0A9F [0x03] ExtData[1]->WorkLocal[23] = Work_Zone[8]
  7: 0x0AA4 [0x02] IF !(ExtData[1]->WorkLocal[23] < 3*) GOTO 0x0AB1
  8: 0x0AAC [0x03] ExtData[1]->WorkLocal[23] = 0*
  9: 0x0AB1 [0x03] ExtData[1]->WorkLocal[28] = Work_Zone[9]
 10: 0x0AB6 [0x20] SET_CLI_EVENT_UC_FLAG: Lock player control
 11: 0x0AB8 [0x42] SET_CLI_EVENT_CANCEL_DATA()
 12: 0x0AB9 [0x3B] GET_ENTITY_POSITION(entity=LocalPlayer, x_destination=Work_Zone[33], y_destination=Work_Zone[34], z_destination=Work_Zone[35])
 13: 0x0AC4 [0x3A] CONVERT_YAW_TO_BYTE(entity=LocalPlayer, result_destination=Work_Zone[36])
 14: 0x0ACB [0x02] IF !(ExtData[1]->WorkLocal[32] == 180*) GOTO 0x0AD6
 15: 0x0AD3 [0x1C] WAIT(300* ticks)
 16: 0x0AD6 [0x45] LOAD_SCHEDULED_TASK: Load scheduler "whi1" with entities [LocalPlayer, LocalPlayer], work=[201*, 0*]
 17: 0x0AE7 [0x45] LOAD_SCHEDULED_TASK: Load scheduler "blof" with entities [LocalPlayer, LocalPlayer], work=[200*, 0*]
 18: 0x0AF8 [0x45] LOAD_SCHEDULED_TASK: Load scheduler "fdo1" with entities [LocalPlayer, LocalPlayer], work=[200*, 0*]
 19: 0x0B09 [0x55] WAIT_LOAD_SCHEDULER: Wait for scheduler "fdo1" with entities [LocalPlayer, LocalPlayer], work=200*
 20: 0x0B18 [0x6C] FADE_ENTITY_COLOR(entity_id=LocalPlayer, end_alpha=128*, fade_time=1*)
 21: 0x0B21 [0x06] Work_Zone[1] = 0
 22: 0x0B24 [0x02] IF !(ExtData[1]->WorkLocal[23] >= 0*) GOTO 0x0B2F
 23: 0x0B2C [0x01] GOTO 0x0C7D
 24: 0x0B2F [0x02] IF !(ExtData[1]->WorkLocal[32] == 180*) GOTO 0x0BB9
 25: 0x0B37 [0x02] IF !(ExtData[1]->WorkLocal[33] == 0*) GOTO 0x0B4E
 26: 0x0B3F [0x47] UPDATE_PLAYER_POS(-618.329*, -643.868*, -25.805*, yaw=330.5°*)
 27: 0x0B49 [0x47] WAIT_PLAYER_POS_UPDATE
 28: 0x0B4B [0x01] GOTO 0x0BB6
 29: 0x0B4E [0x02] IF !(ExtData[1]->WorkLocal[33] == 1*) GOTO 0x0B65
 30: 0x0B56 [0x47] UPDATE_PLAYER_POS(-332.163*, -441.914*, -95.055*, yaw=330.5°*)
 31: 0x0B60 [0x47] WAIT_PLAYER_POS_UPDATE
 32: 0x0B62 [0x01] GOTO 0x0BB6
 33: 0x0B65 [0x02] IF !(ExtData[1]->WorkLocal[33] == 2*) GOTO 0x0B7C
 34: 0x0B6D [0x47] UPDATE_PLAYER_POS(-12.464*, -648.377*, -194.629*, yaw=331.3°*)
 35: 0x0B77 [0x47] WAIT_PLAYER_POS_UPDATE
 36: 0x0B79 [0x01] GOTO 0x0BB6
 37: 0x0B7C [0x02] IF !(ExtData[1]->WorkLocal[33] == 3*) GOTO 0x0B93
 38: 0x0B84 [0x47] UPDATE_PLAYER_POS(323.381*, -443.793*, -108.440*, yaw=329.1°*)
 39: 0x0B8E [0x47] WAIT_PLAYER_POS_UPDATE
 40: 0x0B90 [0x01] GOTO 0x0BB6
 41: 0x0B93 [0x02] IF !(ExtData[1]->WorkLocal[33] == 4*) GOTO 0x0BAA
 42: 0x0B9B [0x47] UPDATE_PLAYER_POS(599.907*, -676.969*, -22.473*, yaw=330.7°*)
 43: 0x0BA5 [0x47] WAIT_PLAYER_POS_UPDATE
 44: 0x0BA7 [0x01] GOTO 0x0BB6
 45: 0x0BAA [0x47] UPDATE_PLAYER_POS(-19.810*, 571.869*, 0.321*, yaw=270.0°*)
 46: 0x0BB4 [0x47] WAIT_PLAYER_POS_UPDATE

SUBROUTINE_0BB6:
 47: 0x0BB6 [0x01] GOTO 0x0C7D
 48: 0x0BB9 [0x02] IF !(ExtData[1]->WorkLocal[32] == 168*) GOTO 0x0BE7
 49: 0x0BC1 [0x02] IF !(ExtData[1]->WorkLocal[25] == 0*) GOTO 0x0BD8
 50: 0x0BC9 [0x47] UPDATE_PLAYER_POS(-19.810*, 571.869*, 0.321*, yaw=270.0°*)
 51: 0x0BD3 [0x47] WAIT_PLAYER_POS_UPDATE
 52: 0x0BD5 [0x01] GOTO 0x0BE4
 53: 0x0BD8 [0x47] UPDATE_PLAYER_POS(200.059*, -21.958*, -0.250*, yaw=91.5°*)
 54: 0x0BE2 [0x47] WAIT_PLAYER_POS_UPDATE

SUBROUTINE_0BE4:
 55: 0x0BE4 [0x01] GOTO 0x0C7D
 56: 0x0BE7 [0x02] IF !(ExtData[1]->WorkLocal[32] == 202*) GOTO 0x0C15
 57: 0x0BEF [0x02] IF !(ExtData[1]->WorkLocal[25] == 4*) GOTO 0x0C06
 58: 0x0BF7 [0x47] UPDATE_PLAYER_POS(538.604*, 501.900*, -13.942*, yaw=286.5°*)
 59: 0x0C01 [0x47] WAIT_PLAYER_POS_UPDATE
 60: 0x0C03 [0x01] GOTO 0x0C12
 61: 0x0C06 [0x47] UPDATE_PLAYER_POS(-19.810*, 571.869*, 0.321*, yaw=270.0°*)
 62: 0x0C10 [0x47] WAIT_PLAYER_POS_UPDATE

SUBROUTINE_0C12:
 63: 0x0C12 [0x01] GOTO 0x0C7D
 64: 0x0C15 [0x02] IF !(ExtData[1]->WorkLocal[32] == 203*) GOTO 0x0C43
 65: 0x0C1D [0x02] IF !(ExtData[1]->WorkLocal[25] == 4*) GOTO 0x0C34
 66: 0x0C25 [0x47] UPDATE_PLAYER_POS(553.205*, 589.633*, -0.021*, yaw=124.4°*)
 67: 0x0C2F [0x47] WAIT_PLAYER_POS_UPDATE
 68: 0x0C31 [0x01] GOTO 0x0C40
 69: 0x0C34 [0x47] UPDATE_PLAYER_POS(-19.810*, 571.869*, 0.321*, yaw=270.0°*)
 70: 0x0C3E [0x47] WAIT_PLAYER_POS_UPDATE

SUBROUTINE_0C40:
 71: 0x0C40 [0x01] GOTO 0x0C7D
 72: 0x0C43 [0x02] IF !(ExtData[1]->WorkLocal[32] == 211*) GOTO 0x0C71
 73: 0x0C4B [0x02] IF !(ExtData[1]->WorkLocal[25] == 3*) GOTO 0x0C62
 74: 0x0C53 [0x47] UPDATE_PLAYER_POS(569.224*, 548.462*, 36.837*, yaw=59.1°*)
 75: 0x0C5D [0x47] WAIT_PLAYER_POS_UPDATE
 76: 0x0C5F [0x01] GOTO 0x0C6E
 77: 0x0C62 [0x47] UPDATE_PLAYER_POS(-19.810*, 571.869*, 0.321*, yaw=270.0°*)
 78: 0x0C6C [0x47] WAIT_PLAYER_POS_UPDATE

SUBROUTINE_0C6E:
 79: 0x0C6E [0x01] GOTO 0x0C7D
 80: 0x0C71 [0x47] UPDATE_PLAYER_POS(-19.810*, 571.869*, 0.321*, yaw=270.0°*)
 81: 0x0C7B [0x47] WAIT_PLAYER_POS_UPDATE

SUBROUTINE_0C7D:
 82: 0x0C7D [0x38] SET_CLIENT_EVENT_MODE(mode=19*)
 83: 0x0C80 [0x02] IF !(ExtData[1]->WorkLocal[23] == 2*) GOTO 0x0C8B
 84: 0x0C88 [0x01] GOTO 0x0CA6
 85: 0x0C8B [0x02] IF !(ExtData[1]->WorkLocal[23] == 1*) GOTO 0x0D56
 86: 0x0C93 [0x1C] WAIT(15* ticks)
 87: 0x0C96 [0x24] CREATE_DIALOG(message_id=7448*, default_option=1*, option_flags=0*)
    → "Skip the event? [Yes./No.]"
 88: 0x0C9D [0x25] WAIT_DIALOG_SELECT()
 89: 0x0C9E [0x02] IF !(Work_Zone[0] == 0*) GOTO 0x0D56

SUBROUTINE_0CA6:
 90: 0x0CA6 [0x02] IF !(ExtData[1]->WorkLocal[32] == 180*) GOTO 0x0D12
 91: 0x0CAE [0x02] IF !(ExtData[1]->WorkLocal[33] == 0*) GOTO 0x0CC0
 92: 0x0CB6 [0x36] SET_ENTITY_EVENT_POSITION(pos_x=-618.329*, pos_z=-643.868*, pos_y=-25.805*)
 93: 0x0CBD [0x01] GOTO 0x0D0F
 94: 0x0CC0 [0x02] IF !(ExtData[1]->WorkLocal[33] == 1*) GOTO 0x0CD2
 95: 0x0CC8 [0x36] SET_ENTITY_EVENT_POSITION(pos_x=-332.163*, pos_z=-441.914*, pos_y=-95.055*)
 96: 0x0CCF [0x01] GOTO 0x0D0F
 97: 0x0CD2 [0x02] IF !(ExtData[1]->WorkLocal[33] == 2*) GOTO 0x0CE4
 98: 0x0CDA [0x36] SET_ENTITY_EVENT_POSITION(pos_x=-12.464*, pos_z=-648.377*, pos_y=-194.629*)
 99: 0x0CE1 [0x01] GOTO 0x0D0F
100: 0x0CE4 [0x02] IF !(ExtData[1]->WorkLocal[33] == 3*) GOTO 0x0CF6
101: 0x0CEC [0x36] SET_ENTITY_EVENT_POSITION(pos_x=323.381*, pos_z=-443.793*, pos_y=-108.440*)
102: 0x0CF3 [0x01] GOTO 0x0D0F
103: 0x0CF6 [0x02] IF !(ExtData[1]->WorkLocal[33] == 4*) GOTO 0x0D08
104: 0x0CFE [0x36] SET_ENTITY_EVENT_POSITION(pos_x=599.907*, pos_z=-676.969*, pos_y=-22.473*)
105: 0x0D05 [0x01] GOTO 0x0D0F
106: 0x0D08 [0x36] SET_ENTITY_EVENT_POSITION(pos_x=-19.810*, pos_z=571.869*, pos_y=0.321*)

SUBROUTINE_0D0F:
107: 0x0D0F [0x01] GOTO 0x0D1B
108: 0x0D12 [0x37] UPDATE_EVENT_POSITION_AND_DIR: x=-19.810*, z=571.869*, y=0.321*, direction=270.0°*

SUBROUTINE_0D1B:
109: 0x0D1B [0x80] LOAD_WAIT(entity=LocalPlayer)
110: 0x0D20 [0x62] LOAD_EVENT_SCHEDULER: Load scheduler "main" with entities [LocalPlayer, LocalPlayer], work=[2*, 0*]
111: 0x0D31 [0x45] LOAD_SCHEDULED_TASK: Load scheduler "fdi2" with entities [LocalPlayer, LocalPlayer], work=[200*, 0*]
112: 0x0D42 [0x46] CAMERA_CONTROL: Query status
113: 0x0D44 [0x12] 0x0200 = rand()
114: 0x0D47 [0x12] ExtData[1]->WorkLocal[0] = rand()
115: 0x0D4A [0x80] LOAD_WAIT(entity=Unknown NPC (ID: 1175277568/0x460D5000))
116: 0x0D4F [0x00] END_REQSTACK()

SUBROUTINE_0D56:
117: 0x0D56 [0x02] IF !(ExtData[1]->WorkLocal[23] < 4294967295*) GOTO 0x0D6F
118: 0x0D5E [0x5C] MUSIC_CONTROL: Set Idle (Day) music to song 220*
119: 0x0D62 [0x5C] MUSIC_CONTROL: Set Idle (Night) music to song 220*
120: 0x0D66 [0x5C] MUSIC_CONTROL: Set Combat (Solo) music to song 220*
121: 0x0D6A [0x5C] MUSIC_CONTROL: Set Combat (Party) music to song 220*
122: 0x0D6E [0x9A] WAIT_MUSIC_SERVER()
123: 0x0D6F [0x1A] CALL_SUBROUTINE(address=0x1214)
124: 0x0D72 [0x02] IF !(ExtData[1]->WorkLocal[23] >= 0*) GOTO 0x0D7D
125: 0x0D7A [0x01] GOTO 0x0E1D

SUBROUTINE_0D7D:
126: 0x0D7D [0x02] IF !(ExtData[1]->WorkLocal[32] == 36*) GOTO 0x0D88
127: 0x0D85 [0x01] GOTO 0x0D88

SUBROUTINE_0D88:
128: 0x0D88 [0x02] IF !(ExtData[1]->WorkLocal[32] == 17*) GOTO 0x0D93
129: 0x0D90 [0x01] GOTO 0x0E1D
130: 0x0D93 [0x02] IF !(ExtData[1]->WorkLocal[32] == 19*) GOTO 0x0D9E
131: 0x0D9B [0x01] GOTO 0x0E1D
132: 0x0D9E [0x02] IF !(ExtData[1]->WorkLocal[32] == 21*) GOTO 0x0DA9
133: 0x0DA6 [0x01] GOTO 0x0E1D
134: 0x0DA9 [0x02] IF !(ExtData[1]->WorkLocal[32] == 23*) GOTO 0x0DB4
135: 0x0DB1 [0x01] GOTO 0x0E1D
136: 0x0DB4 [0x03] Work_Zone[5] = ExtData[1]->WorkLocal[27]
137: 0x0DB9 [0x02] IF !(Work_Zone[5] <= 0*) GOTO 0x0E1D
138: 0x0DC1 [0x02] IF !(Work_Zone[5] < 60*) GOTO 0x0DDC
139: 0x0DC9 [0x3F] Work_Zone[4] = Work_Zone[5] % 60*
140: 0x0DD0 [0x15] Work_Zone[5] /= 60*
141: 0x0DD5 [0x48] [System] [7450*]:
    → "Battlefield clear time: $3 minute[/s], $2 second[/s]!"
142: 0x0DD8 [0x23] WAIT_FOR_DIALOG_INTERACTION
143: 0x0DD9 [0x01] GOTO 0x0DE0
144: 0x0DDC [0x48] [System] [7449*]:
    → "Battlefield clear time: $3 second[/s]!"
145: 0x0DDF [0x23] WAIT_FOR_DIALOG_INTERACTION

SUBROUTINE_0DE0:
146: 0x0DE0 [0x02] IF !(ExtData[1]->WorkLocal[27] > ExtData[1]->WorkLocal[26]) GOTO 0x0DF4
147: 0x0DE8 [0x03] Work_Zone[7] = ExtData[1]->WorkLocal[25]
148: 0x0DED [0x48] [System] [7643*]:
    → "You have broken the clear time record for "[Ancient Vows/The Savage/Fire in the Sky/Bad Seed/Bugard in the Clouds/Beloved of the Atlantes/Uninvited Guests/Nest of Nightmares/$26The Savage]"!"
149: 0x0DF0 [0x23] WAIT_FOR_DIALOG_INTERACTION
150: 0x0DF1 [0x01] GOTO 0x0E1D
151: 0x0DF4 [0x02] IF !(ExtData[1]->WorkLocal[26] < 60*) GOTO 0x0E14
152: 0x0DFC [0x03] Work_Zone[5] = ExtData[1]->WorkLocal[26]
153: 0x0E01 [0x3F] Work_Zone[4] = Work_Zone[5] % 60*
154: 0x0E08 [0x15] Work_Zone[5] /= 60*
155: 0x0E0D [0x48] [System] [7452*]:
    → "The current battlefield clear time record is $3 minute[/s] $2 second[/s]."
156: 0x0E10 [0x23] WAIT_FOR_DIALOG_INTERACTION
157: 0x0E11 [0x01] GOTO 0x0E1D
158: 0x0E14 [0x03] Work_Zone[5] = ExtData[1]->WorkLocal[26]
159: 0x0E19 [0x48] [System] [7451*]:
    → "The current battlefield clear time record is $3 second[/s]."
160: 0x0E1C [0x23] WAIT_FOR_DIALOG_INTERACTION

SUBROUTINE_0E1D:
161: 0x0E1D [0x02] IF !(ExtData[1]->WorkLocal[24] == 0*) GOTO 0x0E35
162: 0x0E25 [0x5C] MUSIC_CONTROL: Set Idle (Day) music to song 0*
163: 0x0E29 [0x5C] MUSIC_CONTROL: Set Idle (Night) music to song 0*
164: 0x0E2D [0x5C] MUSIC_CONTROL: Set Combat (Solo) music to song 220*
165: 0x0E31 [0x5C] MUSIC_CONTROL: Set Combat (Party) music to song 220*
166: 0x0E35 [0x02] IF !(ExtData[1]->WorkLocal[23] >= 0*) GOTO 0x0E5E
167: 0x0E3D [0x45] LOAD_SCHEDULED_TASK: Load scheduler "fdi2" with entities [LocalPlayer, LocalPlayer], work=[200*, 0*]
168: 0x0E4E [0x5C] MUSIC_CONTROL: Set Idle (Day) music to song 0*
169: 0x0E52 [0x5C] MUSIC_CONTROL: Set Idle (Night) music to song 0*
170: 0x0E56 [0x5C] MUSIC_CONTROL: Set Combat (Solo) music to song 220*
171: 0x0E5A [0x5C] MUSIC_CONTROL: Set Combat (Party) music to song 220*
172: 0x0E5E [0x06] ExtData[1]->WorkLocal[24] = 0
173: 0x0E61 [0x45] LOAD_SCHEDULED_TASK: Load scheduler "whi1" with entities [LocalPlayer, LocalPlayer], work=[201*, 0*]
174: 0x0E72 [0x45] LOAD_SCHEDULED_TASK: Load scheduler "blof" with entities [LocalPlayer, LocalPlayer], work=[200*, 0*]
175: 0x0E83 [0x21] END_EVENT
176: 0x0E84 [0x00] END_REQSTACK()
```

#### Data or dead code:

```
# Dead code (unreachable instructions):
     0x0D50 [0x01] GOTO 0x0D7D
     0x0D53 [0x01] GOTO 0x0D56
```

### Event 32003

#### Metadata

| Field        | Value     |
|--------------|-----------|
| Entrypoint   | 0x0E85    |
| Data Size    | 435 bytes |
| Instructions | 77        |

```
      00 01 02 03 04 05 06 07  08 09 0A 0B 0C 0D 0E 0F
      -- -- -- -- -- -- -- --  -- -- -- -- -- -- -- --
0E80:                06 1D 00  06 1E 00 03 21 00 06 10       .......!...
0E90: 03 20 00 07 10 03 1F 00  08 10 06 01 10 1A 46 13  . ............F.
0EA0: 02 1D 00 05 80 00 36 10  42 03 01 10 09 80 43 00  ......6.B.....C.
0EB0: 43 01 03 01 10 0A 80 43  00 43 01 1A 5D 13 02 1E  C......C.C..]...
0EC0: 00 05 80 00 36 10 45 0E  80 F0 FF FF 7F F0 FF FF  ....6.E.........
0ED0: 7F 66 64 6F 31 00 80 55  0E 80 F0 FF FF 7F F0 FF  .fdo1..U........
0EE0: FF 7F 66 64 6F 31 03 01  10 0B 80 02 20 00 3A 80  ..fdo1...... .:.
0EF0: 80 75 0F 02 21 00 00 80  80 0A 0F 47 00 3B 80 3C  .u..!......G.;.<
0F00: 80 3D 80 3E 80 47 01 01  72 0F 02 21 00 05 80 80  .=.>.G..r..!....
0F10: 21 0F 47 00 3F 80 40 80  41 80 42 80 47 01 01 72  !.G.?.@.A.B.G..r
0F20: 0F 02 21 00 09 80 80 38  0F 47 00 43 80 44 80 45  ..!....8.G.C.D.E
0F30: 80 46 80 47 01 01 72 0F  02 21 00 0A 80 80 4F 0F  .F.G..r..!....O.
0F40: 47 00 47 80 48 80 49 80  4A 80 47 01 01 72 0F 02  G.G.H.I.J.G..r..
0F50: 21 00 0B 80 80 66 0F 47  00 4B 80 4C 80 4D 80 4E  !....f.G.K.L.M.N
0F60: 80 47 01 01 72 0F 47 00  4F 80 50 80 51 80 00 80  .G..r.G.O.P.Q...
0F70: 47 01 01 F4 0F 02 20 00  18 80 80 E8 0F 02 1F 00  G..... .........
0F80: 05 80 80 94 0F 47 00 52  80 53 80 54 80 55 80 47  .....G.R.S.T.U.G
0F90: 01 01 E5 0F 02 1F 00 09  80 80 AB 0F 47 00 56 80  ............G.V.
0FA0: 57 80 58 80 59 80 47 01  01 E5 0F 02 1F 00 0A 80  W.X.Y.G.........
0FB0: 80 C2 0F 47 00 5A 80 5B  80 5C 80 5D 80 47 01 01  ...G.Z.[.\.].G..
0FC0: E5 0F 02 1F 00 0B 80 80  D9 0F 47 00 5E 80 5F 80  ..........G.^._.
0FD0: 60 80 61 80 47 01 01 E5  0F 47 00 4F 80 50 80 51  `.a.G....G.O.P.Q
0FE0: 80 00 80 47 01 01 F4 0F  47 00 4F 80 50 80 51 80  ...G....G.O.P.Q.
0FF0: 00 80 47 01 38 0F 80 79  00 F0 FF FF 7F F0 FF FF  ..G.8..y........
1000: 7F 1A 61 13 45 35 80 F0  FF FF 7F F0 FF FF 7F 77  ..a.E5.........w
1010: 68 69 31 00 80 45 0E 80  F0 FF FF 7F F0 FF FF 7F  hi1..E..........
1020: 62 6C 6F 66 00 80 5C 00  00 80 5C 01 00 80 5C 02  blof..\...\...\.
1030: 33 80 5C 03 33 80 21 00                           3.\.3.!.        
```

#### Opcodes

```
  0: 0x0E85 [0x06] ExtData[1]->WorkLocal[29] = 0
  1: 0x0E88 [0x06] ExtData[1]->WorkLocal[30] = 0
  2: 0x0E8B [0x03] ExtData[1]->WorkLocal[33] = Work_Zone[6]
  3: 0x0E90 [0x03] ExtData[1]->WorkLocal[32] = Work_Zone[7]
  4: 0x0E95 [0x03] ExtData[1]->WorkLocal[31] = Work_Zone[8]
  5: 0x0E9A [0x06] Work_Zone[1] = 0
  6: 0x0E9D [0x1A] CALL_SUBROUTINE(address=0x1346)
  7: 0x0EA0 [0x02] IF !(ExtData[1]->WorkLocal[29] == 1*) GOTO 0x1036
  8: 0x0EA8 [0x42] SET_CLI_EVENT_CANCEL_DATA()
  9: 0x0EA9 [0x03] Work_Zone[1] = 2*
 10: 0x0EAE [0x43] SEND_EVENT_UPDATE: Send pending tag to server (packet 0x005B)
 11: 0x0EB0 [0x43] SEND_EVENT_UPDATE: Check pending flag (skip if not pending)
 12: 0x0EB2 [0x03] Work_Zone[1] = 3*
 13: 0x0EB7 [0x43] SEND_EVENT_UPDATE: Send pending tag to server (packet 0x005B)
 14: 0x0EB9 [0x43] SEND_EVENT_UPDATE: Check pending flag (skip if not pending)
 15: 0x0EBB [0x1A] CALL_SUBROUTINE(address=0x135D)
 16: 0x0EBE [0x02] IF !(ExtData[1]->WorkLocal[30] == 1*) GOTO 0x1036
 17: 0x0EC6 [0x45] LOAD_SCHEDULED_TASK: Load scheduler "fdo1" with entities [LocalPlayer, LocalPlayer], work=[200*, 0*]
 18: 0x0ED7 [0x55] WAIT_LOAD_SCHEDULER: Wait for scheduler "fdo1" with entities [LocalPlayer, LocalPlayer], work=200*
 19: 0x0EE6 [0x03] Work_Zone[1] = 4*
 20: 0x0EEB [0x02] IF !(ExtData[1]->WorkLocal[32] == 180*) GOTO 0x0F75
 21: 0x0EF3 [0x02] IF !(ExtData[1]->WorkLocal[33] == 0*) GOTO 0x0F0A
 22: 0x0EFB [0x47] UPDATE_PLAYER_POS(-605.141*, 479.929*, -22.681*, yaw=87.2°*)
 23: 0x0F05 [0x47] WAIT_PLAYER_POS_UPDATE
 24: 0x0F07 [0x01] GOTO 0x0F72
 25: 0x0F0A [0x02] IF !(ExtData[1]->WorkLocal[33] == 1*) GOTO 0x0F21
 26: 0x0F12 [0x47] UPDATE_PLAYER_POS(-262.589*, 377.857*, -137.313*, yaw=305.3°*)
 27: 0x0F1C [0x47] WAIT_PLAYER_POS_UPDATE
 28: 0x0F1E [0x01] GOTO 0x0F72
 29: 0x0F21 [0x02] IF !(ExtData[1]->WorkLocal[33] == 2*) GOTO 0x0F38
 30: 0x0F29 [0x47] UPDATE_PLAYER_POS(18.348*, 486.940*, -224.334*, yaw=17.1°*)
 31: 0x0F33 [0x47] WAIT_PLAYER_POS_UPDATE
 32: 0x0F35 [0x01] GOTO 0x0F72
 33: 0x0F38 [0x02] IF !(ExtData[1]->WorkLocal[33] == 3*) GOTO 0x0F4F
 34: 0x0F40 [0x47] UPDATE_PLAYER_POS(231.593*, 360.094*, -173.572*, yaw=160.8°*)
 35: 0x0F4A [0x47] WAIT_PLAYER_POS_UPDATE
 36: 0x0F4C [0x01] GOTO 0x0F72
 37: 0x0F4F [0x02] IF !(ExtData[1]->WorkLocal[33] == 4*) GOTO 0x0F66
 38: 0x0F57 [0x47] UPDATE_PLAYER_POS(553.664*, 523.939*, -38.205*, yaw=233.9°*)
 39: 0x0F61 [0x47] WAIT_PLAYER_POS_UPDATE
 40: 0x0F63 [0x01] GOTO 0x0F72
 41: 0x0F66 [0x47] UPDATE_PLAYER_POS(-26.013*, -540.000*, -1.226*, yaw=0.0°*)
 42: 0x0F70 [0x47] WAIT_PLAYER_POS_UPDATE

SUBROUTINE_0F72:
 43: 0x0F72 [0x01] GOTO 0x0FF4
 44: 0x0F75 [0x02] IF !(ExtData[1]->WorkLocal[32] == 6*) GOTO 0x0FE8
 45: 0x0F7D [0x02] IF !(ExtData[1]->WorkLocal[31] == 1*) GOTO 0x0F94
 46: 0x0F85 [0x47] UPDATE_PLAYER_POS(-875.117*, -43.892*, -48.084*, yaw=45.1°*)
 47: 0x0F8F [0x47] WAIT_PLAYER_POS_UPDATE
 48: 0x0F91 [0x01] GOTO 0x0FE5
 49: 0x0F94 [0x02] IF !(ExtData[1]->WorkLocal[31] == 2*) GOTO 0x0FAB
 50: 0x0F9C [0x47] UPDATE_PLAYER_POS(-755.499*, 563.947*, -112.035*, yaw=313.5°*)
 51: 0x0FA6 [0x47] WAIT_PLAYER_POS_UPDATE
 52: 0x0FA8 [0x01] GOTO 0x0FE5
 53: 0x0FAB [0x02] IF !(ExtData[1]->WorkLocal[31] == 3*) GOTO 0x0FC2
 54: 0x0FB3 [0x47] UPDATE_PLAYER_POS(123.251*, 754.209*, -172.124*, yaw=38.7°*)
 55: 0x0FBD [0x47] WAIT_PLAYER_POS_UPDATE
 56: 0x0FBF [0x01] GOTO 0x0FE5
 57: 0x0FC2 [0x02] IF !(ExtData[1]->WorkLocal[31] == 4*) GOTO 0x0FD9
 58: 0x0FCA [0x47] UPDATE_PLAYER_POS(-516.404*, -803.323*, 24.206*, yaw=38.4°*)
 59: 0x0FD4 [0x47] WAIT_PLAYER_POS_UPDATE
 60: 0x0FD6 [0x01] GOTO 0x0FE5
 61: 0x0FD9 [0x47] UPDATE_PLAYER_POS(-26.013*, -540.000*, -1.226*, yaw=0.0°*)
 62: 0x0FE3 [0x47] WAIT_PLAYER_POS_UPDATE

SUBROUTINE_0FE5:
 63: 0x0FE5 [0x01] GOTO 0x0FF4
 64: 0x0FE8 [0x47] UPDATE_PLAYER_POS(-26.013*, -540.000*, -1.226*, yaw=0.0°*)
 65: 0x0FF2 [0x47] WAIT_PLAYER_POS_UPDATE

SUBROUTINE_0FF4:
 66: 0x0FF4 [0x38] SET_CLIENT_EVENT_MODE(mode=19*)
 67: 0x0FF7 [0x79] LocalPlayer looks at LocalPlayer (Basic look)
 68: 0x1001 [0x1A] CALL_SUBROUTINE(address=0x1361)
 69: 0x1004 [0x45] LOAD_SCHEDULED_TASK: Load scheduler "whi1" with entities [LocalPlayer, LocalPlayer], work=[201*, 0*]
 70: 0x1015 [0x45] LOAD_SCHEDULED_TASK: Load scheduler "blof" with entities [LocalPlayer, LocalPlayer], work=[200*, 0*]
 71: 0x1026 [0x5C] MUSIC_CONTROL: Set Idle (Day) music to song 0*
 72: 0x102A [0x5C] MUSIC_CONTROL: Set Idle (Night) music to song 0*
 73: 0x102E [0x5C] MUSIC_CONTROL: Set Combat (Solo) music to song 220*
 74: 0x1032 [0x5C] MUSIC_CONTROL: Set Combat (Party) music to song 220*
 75: 0x1036 [0x21] END_EVENT
 76: 0x1037 [0x00] END_REQSTACK()
```

### Event 32004

#### Metadata

| Field        | Value      |
|--------------|------------|
| Entrypoint   | 0x1038     |
| Data Size    | 1282 bytes |
| Instructions | 2          |

```
      00 01 02 03 04 05 06 07  08 09 0A 0B 0C 0D 0E 0F
      -- -- -- -- -- -- -- --  -- -- -- -- -- -- -- --
1030:                          21 00 24 0C 80 05 80 00          !.$.....
1040: 80 25 02 00 10 00 80 00  50 10 05 01 00 01 50 10  .%......P.....P.
1050: 1B 79 00 F0 FF FF 7F F0  FF FF 7F 42 46 01 37 96  .y.........BF.7.
1060: 80 97 80 98 80 99 80 45  9A 80 F0 FF FF 7F F0 FF  .......E........
1070: FF 7F 62 61 63 6B 00 80  1C 1B 80 45 0E 80 F0 FF  ..back.....E....
1080: FF 7F F0 FF FF 7F 66 64  69 31 00 80 9F 9B 80 F8  ......fdi1......
1090: FF FF 7F F8 FF FF 7F 6D  61 69 6E 00 80 1C 2E 80  .......main.....
10A0: 92 01 F0 FF FF 7F 45 0E  80 F0 FF FF 7F F0 FF FF  ......E.........
10B0: 7F 66 64 6F 32 00 80 55  0E 80 F0 FF FF 7F F0 FF  .fdo2..U........
10C0: FF 7F 66 64 6F 32 92 00  F0 FF FF 7F 02 03 00 00  ..fdo2..........
10D0: 80 80 DA 10 1A 3A 19 01  E8 10 02 03 00 05 80 80  .....:..........
10E0: E8 10 1A A4 27 01 E8 10  45 0E 80 F0 FF FF 7F F0  ....'...E.......
10F0: FF FF 7F 66 64 6F 32 00  80 55 0E 80 F0 FF FF 7F  ...fdo2..U......
1100: F0 FF FF 7F 66 64 6F 32  9F 9C 80 A5 F0 01 01 A5  ....fdo2........
1110: F0 01 01 73 65 73 70 00  80 9F 9C 80 A6 F0 01 01  ...sesp.........
1120: A6 F0 01 01 73 65 73 70  00 80 9F 9C 80 A7 F0 01  ....sesp........
1130: 01 A7 F0 01 01 73 65 73  70 00 80 9F 9C 80 A8 F0  .....sesp.......
1140: 01 01 A8 F0 01 01 73 65  73 70 00 80 9F 9C 80 A9  ......sesp......
1150: F0 01 01 A9 F0 01 01 73  65 73 70 00 80 78 92 01  .......sesp..x..
1160: F0 FF FF 7F 6C F0 FF FF  7F 00 80 00 80 4E 00 F0  ....l........N..
1170: FF FF 7F 02 00 00 05 80  80 87 11 37 9D 80 9E 80  ...........7....
1180: 9F 80 A0 80 01 C3 11 02  00 00 09 80 80 9B 11 37  ...............7
1190: A1 80 A2 80 9C 80 A3 80  01 C3 11 02 00 00 0A 80  ................
11A0: 80 AF 11 37 A4 80 A5 80  A6 80 A7 80 01 C3 11 02  ...7............
11B0: 00 00 0B 80 80 C3 11 37  00 80 00 80 00 80 00 80  .......7........
11C0: 01 C3 11 45 9A 80 F0 FF  FF 7F F0 FF FF 7F 62 61  ...E..........ba
11D0: 63 6B 00 80 1C 1B 80 45  0E 80 F0 FF FF 7F F0 FF  ck.....E........
11E0: FF 7F 66 64 69 31 00 80  55 0E 80 F0 FF FF 7F F0  ..fdi1..U.......
11F0: FF FF 7F 66 64 69 31 9F  A8 80 F8 FF FF 7F F8 FF  ...fdi1.........
1200: FF 7F 6D 61 69 6E 00 80  1C A9 80 92 00 F0 FF FF  ..main..........
1210: 7F 46 00 1B 46 01 02 19  00 00 80 80 AE 12 1A 61  .F..F..........a
1220: 2F 6C F0 FF FF 7F AA 80  00 80 02 17 00 00 80 01  /l..............
1230: 76 12 7B F0 FF FF 7F 5D  00 80 31 80 1C 31 80 45  v.{....]..1..1.E
1240: 0E 80 F0 FF FF 7F F0 FF  FF 7F 66 64 6F 31 00 80  ..........fdo1..
1250: 55 0E 80 F0 FF FF 7F F0  FF FF 7F 66 64 6F 31 45  U..........fdo1E
1260: 35 80 F0 FF FF 7F F0 FF  FF 7F 77 68 69 31 00 80  5.........whi1..
1270: 1A C3 12 01 AB 12 05 18  00 45 0E 80 F0 FF FF 7F  .........E......
1280: F0 FF FF 7F 66 64 6F 31  00 80 55 0E 80 F0 FF FF  ....fdo1..U.....
1290: 7F F0 FF FF 7F 66 64 6F  31 45 35 80 F0 FF FF 7F  .....fdo1E5.....
12A0: F0 FF FF 7F 77 68 69 31  00 80 30 01 C2 12 02 19  ....whi1..0.....
12B0: 00 05 80 80 BF 12 1A E7  34 1A C3 12 01 C2 12 1A  ........4.......
12C0: C3 12 1B 45 0E 80 F0 FF  FF 7F F0 FF FF 7F 66 64  ...E..........fd
12D0: 6F 32 00 80 55 0E 80 F0  FF FF 7F F0 FF FF 7F 66  o2..U..........f
12E0: 64 6F 32 92 01 F0 FF FF  7F 37 78 80 79 80 7A 80  do2......7x.y.z.
12F0: 7B 80 45 9A 80 F0 FF FF  7F F0 FF FF 7F 62 61 63  {.E..........bac
1300: 6B 00 80 6C F0 FF FF 7F  00 80 00 80 1C 1B 80 45  k..l...........E
1310: 0E 80 F0 FF FF 7F F0 FF  FF 7F 66 64 69 31 00 80  ..........fdi1..
1320: 55 0E 80 F0 FF FF 7F F0  FF FF 7F 66 64 69 31 9F  U..........fdi1.
1330: A8 80 F8 FF FF 7F F8 FF  FF 7F 6D 61 69 6E 00 80  ..........main..
1340: 1C A9 80 46 00 1B 24 AB  80 05 80 00 80 25 02 00  ...F..$......%..
1350: 10 00 80 00 5C 13 05 1D  00 01 5C 13 1B 05 1E 00  ....\.....\.....
1360: 1B 46 01 37 AC 80 AD 80  AE 80 AF 80 45 9A 80 F0  .F.7........E...
1370: FF FF 7F F0 FF FF 7F 62  61 63 6B 00 80 45 0E 80  .......back..E..
1380: F0 FF FF 7F F0 FF FF 7F  66 64 69 31 00 80 55 0E  ........fdi1..U.
1390: 80 F0 FF FF 7F F0 FF FF  7F 66 64 69 31 9F 9B 80  .........fdi1...
13A0: F8 FF FF 7F F8 FF FF 7F  6D 61 69 6E 00 80 1C 2E  ........main....
13B0: 80 45 0E 80 F0 FF FF 7F  F0 FF FF 7F 66 64 6F 32  .E..........fdo2
13C0: 00 80 55 0E 80 F0 FF FF  7F F0 FF FF 7F 66 64 6F  ..U..........fdo
13D0: 32 92 01 F0 FF FF 7F 37  4F 80 50 80 51 80 00 80  2......7O.P.Q...
13E0: 45 9A 80 F0 FF FF 7F F0  FF FF 7F 62 61 63 6B 00  E..........back.
13F0: 80 1C 1B 80 45 0E 80 F0  FF FF 7F F0 FF FF 7F 66  ....E..........f
1400: 64 69 31 00 80 55 0E 80  F0 FF FF 7F F0 FF FF 7F  di1..U..........
1410: 66 64 69 31 9F A8 80 F8  FF FF 7F F8 FF FF 7F 6D  fdi1...........m
1420: 61 69 6E 00 80 1C A9 80  46 00 1B 6C F0 FF FF 7F  ain.....F..l....
1430: 00 80 00 80 46 01 92 01  F0 FF FF 7F 37 4F 80 50  ....F.......7O.P
1440: 80 51 80 00 80 45 9A 80  F0 FF FF 7F F0 FF FF 7F  .Q...E..........
1450: 62 61 63 6B 00 80 45 0E  80 F0 FF FF 7F F0 FF FF  back..E.........
1460: 7F 66 64 69 31 00 80 55  0E 80 F0 FF FF 7F F0 FF  .fdi1..U........
1470: FF 7F 66 64 69 31 9F A8  80 F8 FF FF 7F F8 FF FF  ..fdi1..........
1480: 7F 6D 61 69 6E 00 80 1C  A9 80 46 00 1B 02 03 00  .main.....F.....
1490: 00 80 80 98 14 01 BC 14  02 03 00 10 80 80 BC 14  ................
14A0: 03 08 17 B0 80 03 09 17  B1 80 03 0A 17 B2 80 03  ................
14B0: 0B 17 B3 80 03 0C 17 B4  80 01 BC 14 1B 02 00 00  ................
14C0: 05 80 80 DC 14 03 09 00  9D 80 03 0A 00 9E 80 03  ................
14D0: 0B 00 9F 80 03 0C 00 A0  80 01 39 15 02 00 00 09  ..........9.....
14E0: 80 80 FB 14 03 09 00 A1  80 03 0A 00 A2 80 03 0B  ................
14F0: 00 9C 80 03 0C 00 A3 80  01 39 15 02 00 00 0A 80  .........9......
1500: 80 1A 15 03 09 00 A4 80  03 0A 00 A5 80 03 0B 00  ................
1510: A6 80 03 0C 00 A7 80 01  39 15 02 00 00 0B 80 80  ........9.......
1520: 39 15 03 09 00 00 80 03  0A 00 00 80 03 0B 00 00  9...............
1530: 80 03 0C 00 00 80 01 39  15 1B                    .......9..      
```

#### Opcodes

```
  0: 0x1038 [0x21] END_EVENT
  1: 0x1039 [0x00] END_REQSTACK()
```

#### Data or dead code:

```
# Dead code (unreachable instructions):
     0x103A [0x24] CREATE_DIALOG(message_id=7109*, default_option=1*, option_flags=0*)
    → "Enter the battlefield? [Enter./Decline.]"
     0x1041 [0x25] WAIT_DIALOG_SELECT()
     0x1042 [0x02] IF !(Work_Zone[0] == 0*) GOTO 0x1050
     0x104A [0x05] ExtData[1]->WorkLocal[1] = 1
     0x104D [0x01] GOTO 0x1050
     0x1050 [0x1B] RETURN
     0x1051 [0x79] LocalPlayer looks at LocalPlayer (Basic look)
     0x105B [0x42] SET_CLI_EVENT_CANCEL_DATA()
     0x105C [0x46] CAMERA_CONTROL: Disable user control
     0x105E [0x37] UPDATE_EVENT_POSITION_AND_DIR: x=-34.441*, z=-539.544*, y=-1.689*, direction=174.5°*
     0x1067 [0x45] LOAD_SCHEDULED_TASK: Load scheduler "back" with entities [LocalPlayer, LocalPlayer], work=[108*, 0*]
     0x1078 [0x1C] WAIT(10* ticks)
     0x107B [0x45] LOAD_SCHEDULED_TASK: Load scheduler "fdi1" with entities [LocalPlayer, LocalPlayer], work=[200*, 0*]
     0x108C [0x9F] LOAD_SCHEDULED_TASK_ALT: Load scheduler "main" with entities [EventEntity, EventEntity], work=[71*, 0*]
     0x109D [0x1C] WAIT(60* ticks)
     0x10A0 [0x92] LocalPlayer->Render.Flags3 ^= 0x01
     0x10A6 [0x45] LOAD_SCHEDULED_TASK: Load scheduler "fdo2" with entities [LocalPlayer, LocalPlayer], work=[200*, 0*]
     0x10B7 [0x55] WAIT_LOAD_SCHEDULER: Wait for scheduler "fdo2" with entities [LocalPlayer, LocalPlayer], work=200*
     0x10C6 [0x92] LocalPlayer->Render.Flags3 = Flags3  // No change (flag=0)
     0x10CC [0x02] IF !(ExtData[1]->WorkLocal[3] == 0*) GOTO 0x10DA
     0x10D4 [0x1A] CALL_SUBROUTINE(address=0x193A)
     0x10D7 [0x01] GOTO 0x10E8
     0x10DA [0x02] IF !(ExtData[1]->WorkLocal[3] == 1*) GOTO 0x10E8
     0x10E2 [0x1A] CALL_SUBROUTINE(address=0x27A4)
     0x10E5 [0x01] GOTO 0x10E8
     0x10E8 [0x45] LOAD_SCHEDULED_TASK: Load scheduler "fdo2" with entities [LocalPlayer, LocalPlayer], work=[200*, 0*]
     0x10F9 [0x55] WAIT_LOAD_SCHEDULER: Wait for scheduler "fdo2" with entities [LocalPlayer, LocalPlayer], work=200*
     0x1108 [0x9F] LOAD_SCHEDULED_TASK_ALT: Load scheduler "sesp" with entities [Bahamut (ID: 16904357/0x0101F0A5), Bahamut (ID: 16904357/0x0101F0A5)], work=[106*, 0*]
     0x1119 [0x9F] LOAD_SCHEDULED_TASK_ALT: Load scheduler "sesp" with entities [Unnamed NPC (ID: 16904358/0x0101F0A6), Unnamed NPC (ID: 16904358/0x0101F0A6)], work=[106*, 0*]
     0x112A [0x9F] LOAD_SCHEDULED_TASK_ALT: Load scheduler "sesp" with entities [Unnamed NPC (ID: 16904359/0x0101F0A7), Unnamed NPC (ID: 16904359/0x0101F0A7)], work=[106*, 0*]
     0x113B [0x9F] LOAD_SCHEDULED_TASK_ALT: Load scheduler "sesp" with entities [Unnamed NPC (ID: 16904360/0x0101F0A8), Unnamed NPC (ID: 16904360/0x0101F0A8)], work=[106*, 0*]
     0x114C [0x9F] LOAD_SCHEDULED_TASK_ALT: Load scheduler "sesp" with entities [Unnamed NPC (ID: 16904361/0x0101F0A9), Unnamed NPC (ID: 16904361/0x0101F0A9)], work=[106*, 0*]
     0x115D [0x78] ENABLE_GAME_TIMER_RESET_WEATHER()
     0x115E [0x92] LocalPlayer->Render.Flags3 ^= 0x01
     0x1164 [0x6C] FADE_ENTITY_COLOR(entity_id=LocalPlayer, end_alpha=0*, fade_time=0*)
     0x116D [0x4E] SET_ENTITY_HIDE_FLAG: Show LocalPlayer
     0x1173 [0x02] IF !(ExtData[1]->WorkLocal[0] == 1*) GOTO 0x1187
     0x117B [0x37] UPDATE_EVENT_POSITION_AND_DIR: x=-529.267*, z=-0.786*, y=80.271*, direction=184.0°*
     0x1184 [0x01] GOTO 0x11C3
     0x1187 [0x02] IF !(ExtData[1]->WorkLocal[0] == 2*) GOTO 0x119B
     0x118F [0x37] UPDATE_EVENT_POSITION_AND_DIR: x=74.322*, z=-1.212*, y=0.106*, direction=184.5°*
     0x1198 [0x01] GOTO 0x11C3
     0x119B [0x02] IF !(ExtData[1]->WorkLocal[0] == 3*) GOTO 0x11AF
     0x11A3 [0x37] UPDATE_EVENT_POSITION_AND_DIR: x=671.483*, z=-0.356*, y=-79.682*, direction=180.4°*
     0x11AC [0x01] GOTO 0x11C3
     0x11AF [0x02] IF !(ExtData[1]->WorkLocal[0] == 4*) GOTO 0x11C3
     0x11B7 [0x37] UPDATE_EVENT_POSITION_AND_DIR: x=0.000*, z=0.000*, y=0.000*, direction=0.0°*
     0x11C0 [0x01] GOTO 0x11C3
     0x11C3 [0x45] LOAD_SCHEDULED_TASK: Load scheduler "back" with entities [LocalPlayer, LocalPlayer], work=[108*, 0*]
     0x11D4 [0x1C] WAIT(10* ticks)
     0x11D7 [0x45] LOAD_SCHEDULED_TASK: Load scheduler "fdi1" with entities [LocalPlayer, LocalPlayer], work=[200*, 0*]
     0x11E8 [0x55] WAIT_LOAD_SCHEDULER: Wait for scheduler "fdi1" with entities [LocalPlayer, LocalPlayer], work=200*
     0x11F7 [0x9F] LOAD_SCHEDULED_TASK_ALT: Load scheduler "main" with entities [EventEntity, EventEntity], work=[72*, 0*]
     0x1208 [0x1C] WAIT(120* ticks)
     0x120B [0x92] LocalPlayer->Render.Flags3 = Flags3  // No change (flag=0)
     0x1211 [0x46] CAMERA_CONTROL: Restore default settings
     0x1213 [0x1B] RETURN
     0x1214 [0x46] CAMERA_CONTROL: Disable user control
     0x1216 [0x02] IF !(ExtData[1]->WorkLocal[25] == 0*) GOTO 0x12AE
     0x121E [0x1A] CALL_SUBROUTINE(address=0x2F61)
     0x1221 [0x6C] FADE_ENTITY_COLOR(entity_id=LocalPlayer, end_alpha=127*, fade_time=0*)
     0x122A [0x02] IF !(ExtData[1]->WorkLocal[23] == 0*) GOTO 0x1276
     0x1232 [0x7B] LocalPlayer stops talking
     0x1237 [0x5D] SET_MUSIC_VOLUME(volume=0*, fade_time=100*)
     0x123C [0x1C] WAIT(100* ticks)
     0x123F [0x45] LOAD_SCHEDULED_TASK: Load scheduler "fdo1" with entities [LocalPlayer, LocalPlayer], work=[200*, 0*]
     0x1250 [0x55] WAIT_LOAD_SCHEDULER: Wait for scheduler "fdo1" with entities [LocalPlayer, LocalPlayer], work=200*
     0x125F [0x45] LOAD_SCHEDULED_TASK: Load scheduler "whi1" with entities [LocalPlayer, LocalPlayer], work=[201*, 0*]
     0x1270 [0x1A] CALL_SUBROUTINE(address=0x12C3)
     0x1273 [0x01] GOTO 0x12AB
     0x1276 [0x05] ExtData[1]->WorkLocal[24] = 1
     0x1279 [0x45] LOAD_SCHEDULED_TASK: Load scheduler "fdo1" with entities [LocalPlayer, LocalPlayer], work=[200*, 0*]
     0x128A [0x55] WAIT_LOAD_SCHEDULER: Wait for scheduler "fdo1" with entities [LocalPlayer, LocalPlayer], work=200*
     0x1299 [0x45] LOAD_SCHEDULED_TASK: Load scheduler "whi1" with entities [LocalPlayer, LocalPlayer], work=[201*, 0*]
     0x12AA [0x30] SET_UCOFF_CONTINUE_ZERO()
     0x12AB [0x01] GOTO 0x12C2
     0x12AE [0x02] IF !(ExtData[1]->WorkLocal[25] == 1*) GOTO 0x12BF
     0x12B6 [0x1A] CALL_SUBROUTINE(address=0x34E7)
     0x12B9 [0x1A] CALL_SUBROUTINE(address=0x12C3)
     0x12BC [0x01] GOTO 0x12C2
     0x12BF [0x1A] CALL_SUBROUTINE(address=0x12C3)
     0x12C2 [0x1B] RETURN
     0x12C3 [0x45] LOAD_SCHEDULED_TASK: Load scheduler "fdo2" with entities [LocalPlayer, LocalPlayer], work=[200*, 0*]
     0x12D4 [0x55] WAIT_LOAD_SCHEDULER: Wait for scheduler "fdo2" with entities [LocalPlayer, LocalPlayer], work=200*
     0x12E3 [0x92] LocalPlayer->Render.Flags3 ^= 0x01
     0x12E9 [0x37] UPDATE_EVENT_POSITION_AND_DIR: x=-19.810*, z=571.869*, y=0.321*, direction=270.0°*
     0x12F2 [0x45] LOAD_SCHEDULED_TASK: Load scheduler "back" with entities [LocalPlayer, LocalPlayer], work=[108*, 0*]
     0x1303 [0x6C] FADE_ENTITY_COLOR(entity_id=LocalPlayer, end_alpha=0*, fade_time=0*)
     0x130C [0x1C] WAIT(10* ticks)
     0x130F [0x45] LOAD_SCHEDULED_TASK: Load scheduler "fdi1" with entities [LocalPlayer, LocalPlayer], work=[200*, 0*]
     0x1320 [0x55] WAIT_LOAD_SCHEDULER: Wait for scheduler "fdi1" with entities [LocalPlayer, LocalPlayer], work=200*
     0x132F [0x9F] LOAD_SCHEDULED_TASK_ALT: Load scheduler "main" with entities [EventEntity, EventEntity], work=[72*, 0*]
     0x1340 [0x1C] WAIT(120* ticks)
     0x1343 [0x46] CAMERA_CONTROL: Restore default settings
     0x1345 [0x1B] RETURN
     0x1346 [0x24] CREATE_DIALOG(message_id=7110*, default_option=1*, option_flags=0*)
    → "Leave the battlefield? [Run away./Stay.]"
     0x134D [0x25] WAIT_DIALOG_SELECT()
     0x134E [0x02] IF !(Work_Zone[0] == 0*) GOTO 0x135C
     0x1356 [0x05] ExtData[1]->WorkLocal[29] = 1
     0x1359 [0x01] GOTO 0x135C
     0x135C [0x1B] RETURN
     0x135D [0x05] ExtData[1]->WorkLocal[30] = 1
     0x1360 [0x1B] RETURN
     0x1361 [0x46] CAMERA_CONTROL: Disable user control
     0x1363 [0x37] UPDATE_EVENT_POSITION_AND_DIR: x=677.029*, z=598.628*, y=79.993*, direction=6.9°*
     0x136C [0x45] LOAD_SCHEDULED_TASK: Load scheduler "back" with entities [LocalPlayer, LocalPlayer], work=[108*, 0*]
     0x137D [0x45] LOAD_SCHEDULED_TASK: Load scheduler "fdi1" with entities [LocalPlayer, LocalPlayer], work=[200*, 0*]
     0x138E [0x55] WAIT_LOAD_SCHEDULER: Wait for scheduler "fdi1" with entities [LocalPlayer, LocalPlayer], work=200*
     0x139D [0x9F] LOAD_SCHEDULED_TASK_ALT: Load scheduler "main" with entities [EventEntity, EventEntity], work=[71*, 0*]
     0x13AE [0x1C] WAIT(60* ticks)
     0x13B1 [0x45] LOAD_SCHEDULED_TASK: Load scheduler "fdo2" with entities [LocalPlayer, LocalPlayer], work=[200*, 0*]
     0x13C2 [0x55] WAIT_LOAD_SCHEDULER: Wait for scheduler "fdo2" with entities [LocalPlayer, LocalPlayer], work=200*
     0x13D1 [0x92] LocalPlayer->Render.Flags3 ^= 0x01
     0x13D7 [0x37] UPDATE_EVENT_POSITION_AND_DIR: x=-26.013*, z=-540.000*, y=-1.226*, direction=0.0°*
     0x13E0 [0x45] LOAD_SCHEDULED_TASK: Load scheduler "back" with entities [LocalPlayer, LocalPlayer], work=[108*, 0*]
     0x13F1 [0x1C] WAIT(10* ticks)
     0x13F4 [0x45] LOAD_SCHEDULED_TASK: Load scheduler "fdi1" with entities [LocalPlayer, LocalPlayer], work=[200*, 0*]
     0x1405 [0x55] WAIT_LOAD_SCHEDULER: Wait for scheduler "fdi1" with entities [LocalPlayer, LocalPlayer], work=200*
     0x1414 [0x9F] LOAD_SCHEDULED_TASK_ALT: Load scheduler "main" with entities [EventEntity, EventEntity], work=[72*, 0*]
     0x1425 [0x1C] WAIT(120* ticks)
     0x1428 [0x46] CAMERA_CONTROL: Restore default settings
     0x142A [0x1B] RETURN
     0x142B [0x6C] FADE_ENTITY_COLOR(entity_id=LocalPlayer, end_alpha=0*, fade_time=0*)
     0x1434 [0x46] CAMERA_CONTROL: Disable user control
     0x1436 [0x92] LocalPlayer->Render.Flags3 ^= 0x01
     0x143C [0x37] UPDATE_EVENT_POSITION_AND_DIR: x=-26.013*, z=-540.000*, y=-1.226*, direction=0.0°*
     0x1445 [0x45] LOAD_SCHEDULED_TASK: Load scheduler "back" with entities [LocalPlayer, LocalPlayer], work=[108*, 0*]
     0x1456 [0x45] LOAD_SCHEDULED_TASK: Load scheduler "fdi1" with entities [LocalPlayer, LocalPlayer], work=[200*, 0*]
     0x1467 [0x55] WAIT_LOAD_SCHEDULER: Wait for scheduler "fdi1" with entities [LocalPlayer, LocalPlayer], work=200*
     0x1476 [0x9F] LOAD_SCHEDULED_TASK_ALT: Load scheduler "main" with entities [EventEntity, EventEntity], work=[72*, 0*]
     0x1487 [0x1C] WAIT(120* ticks)
     0x148A [0x46] CAMERA_CONTROL: Restore default settings
     0x148C [0x1B] RETURN
     0x148D [0x02] IF !(ExtData[1]->WorkLocal[3] == 0*) GOTO 0x1498
     0x1495 [0x01] GOTO 0x14BC
     0x1498 [0x02] IF !(ExtData[1]->WorkLocal[3] == 8*) GOTO 0x14BC
     0x14A0 [0x03] Work_Zone_1700[8] = 113*
     0x14A5 [0x03] Work_Zone_1700[9] = 116*
     0x14AA [0x03] Work_Zone_1700[10] = 119*
     0x14AF [0x03] Work_Zone_1700[11] = 123*
     0x14B4 [0x03] Work_Zone_1700[12] = 135*
     0x14B9 [0x01] GOTO 0x14BC
     0x14BC [0x1B] RETURN
     0x14BD [0x02] IF !(ExtData[1]->WorkLocal[0] == 1*) GOTO 0x14DC
     0x14C5 [0x03] ExtData[1]->WorkLocal[9] = 4294438029*
     0x14CA [0x03] ExtData[1]->WorkLocal[10] = 4294966510*
     0x14CF [0x03] ExtData[1]->WorkLocal[11] = 80271*
     0x14D4 [0x03] ExtData[1]->WorkLocal[12] = 2094*
     0x14D9 [0x01] GOTO 0x1539
     0x14DC [0x02] IF !(ExtData[1]->WorkLocal[0] == 2*) GOTO 0x14FB
     0x14E4 [0x03] ExtData[1]->WorkLocal[9] = 74322*
     0x14E9 [0x03] ExtData[1]->WorkLocal[10] = 4294966084*
     0x14EE [0x03] ExtData[1]->WorkLocal[11] = 106*
     0x14F3 [0x03] ExtData[1]->WorkLocal[12] = 2099*
     0x14F8 [0x01] GOTO 0x1539
     0x14FB [0x02] IF !(ExtData[1]->WorkLocal[0] == 3*) GOTO 0x151A
     0x1503 [0x03] ExtData[1]->WorkLocal[9] = 671483*
     0x1508 [0x03] ExtData[1]->WorkLocal[10] = 4294966940*
     0x150D [0x03] ExtData[1]->WorkLocal[11] = 4294887614*
     0x1512 [0x03] ExtData[1]->WorkLocal[12] = 2053*
     0x1517 [0x01] GOTO 0x1539
     0x151A [0x02] IF !(ExtData[1]->WorkLocal[0] == 4*) GOTO 0x1539
     0x1522 [0x03] ExtData[1]->WorkLocal[9] = 0*
     0x1527 [0x03] ExtData[1]->WorkLocal[10] = 0*
     0x152C [0x03] ExtData[1]->WorkLocal[11] = 0*
     0x1531 [0x03] ExtData[1]->WorkLocal[12] = 0*
     0x1536 [0x01] GOTO 0x1539
     0x1539 [0x1B] RETURN
```

### Event 65535.1

#### Metadata

| Field        | Value   |
|--------------|---------|
| Entrypoint   | 0x153A  |
| Data Size    | 6 bytes |
| Instructions | 2       |

```
      00 01 02 03 04 05 06 07  08 09 0A 0B 0C 0D 0E 0F
      -- -- -- -- -- -- -- --  -- -- -- -- -- -- -- --
1530:                                03 02 10 0B 7F 00            ......
```

#### Opcodes

```
  0: 0x153A [0x03] Work_Zone[2] = (Entity->Render.Flags01 >> 25) & 1
  1: 0x153F [0x00] END_REQSTACK()
```

### Event 65535.2

#### Metadata

| Field        | Value   |
|--------------|---------|
| Entrypoint   | 0x1540  |
| Data Size    | 6 bytes |
| Instructions | 2       |

```
      00 01 02 03 04 05 06 07  08 09 0A 0B 0C 0D 0E 0F
      -- -- -- -- -- -- -- --  -- -- -- -- -- -- -- --
1540: 03 02 10 07 7F 00                                 ......          
```

#### Opcodes

```
  0: 0x1540 [0x03] Work_Zone[2] = Entity->Race
  1: 0x1545 [0x00] END_REQSTACK()
```

### Event 65535.3

#### Metadata

| Field        | Value   |
|--------------|---------|
| Entrypoint   | 0x1546  |
| Data Size    | 6 bytes |
| Instructions | 2       |

```
      00 01 02 03 04 05 06 07  08 09 0A 0B 0C 0D 0E 0F
      -- -- -- -- -- -- -- --  -- -- -- -- -- -- -- --
1540:                   03 09  10 07 7F 00                    ......    
```

#### Opcodes

```
  0: 0x1546 [0x03] Work_Zone[9] = Entity->Race
  1: 0x154B [0x00] END_REQSTACK()
```

### Event 65535.4

#### Metadata

| Field        | Value   |
|--------------|---------|
| Entrypoint   | 0x154C  |
| Data Size    | 6 bytes |
| Instructions | 2       |

```
      00 01 02 03 04 05 06 07  08 09 0A 0B 0C 0D 0E 0F
      -- -- -- -- -- -- -- --  -- -- -- -- -- -- -- --
1540:                                      03 02 10 06              ....
1550: 7F 00                                             ..              
```

#### Opcodes

```
  0: 0x154C [0x03] Work_Zone[2] = Entity->JobId (if LocalPlayer)
  1: 0x1551 [0x00] END_REQSTACK()
```

### Event 65535.5

#### Metadata

| Field        | Value   |
|--------------|---------|
| Entrypoint   | 0x1552  |
