# Event 65535

## Metadata

| Field           | Value    |
|-----------------|----------|
| Event Index     | 19/24    |
| Offset          | 0x00D1   |
| Data Size       | 92 bytes |
| Calculated Size | 92 bytes |
| Instructions    | 15       |

```
      00 01 02 03 04 05 06 07  08 09 0A 0B 0C 0D 0E 0F
      -- -- -- -- -- -- -- --  -- -- -- -- -- -- -- --
00D0:    79 00 F0 FF FF 7F 6D  50 03 01 1C 22 80 79 00   y.....mP...".y.
00E0: F0 FF FF 7F 6F 50 03 01  1C 23 80 79 00 F0 FF FF  ....oP...#.y....
00F0: 7F 6D 50 03 01 1C 22 80  79 00 F0 FF FF 7F 6F 50  .mP...".y.....oP
0100: 03 01 1C 24 80 79 00 F0  FF FF 7F 6D 50 03 01 1C  ...$.y.....mP...
0110: 22 80 79 00 F0 FF FF 7F  6F 50 03 01 1C 25 80 79  ".y.....oP...%.y
0120: 00 F0 FF FF 7F 6D 50 03  01 1C 16 80 00           .....mP......   
```

## Opcodes

```
  0: 0x00D1 [0x79] LocalPlayer looks at Yafahb (ID: 16994413/0x0103506D) (Basic look)
  1: 0x00DB [0x1C] WAIT(120* ticks)
  2: 0x00DE [0x79] LocalPlayer looks at Elisabeth (ID: 16994415/0x0103506F) (Basic look)
  3: 0x00E8 [0x1C] WAIT(70* ticks)
  4: 0x00EB [0x79] LocalPlayer looks at Yafahb (ID: 16994413/0x0103506D) (Basic look)
  5: 0x00F5 [0x1C] WAIT(120* ticks)
  6: 0x00F8 [0x79] LocalPlayer looks at Elisabeth (ID: 16994415/0x0103506F) (Basic look)
  7: 0x0102 [0x1C] WAIT(65* ticks)
  8: 0x0105 [0x79] LocalPlayer looks at Yafahb (ID: 16994413/0x0103506D) (Basic look)
  9: 0x010F [0x1C] WAIT(120* ticks)
 10: 0x0112 [0x79] LocalPlayer looks at Elisabeth (ID: 16994415/0x0103506F) (Basic look)
 11: 0x011C [0x1C] WAIT(60* ticks)
 12: 0x011F [0x79] LocalPlayer looks at Yafahb (ID: 16994413/0x0103506D) (Basic look)
 13: 0x0129 [0x1C] WAIT(90* ticks)
 14: 0x012C [0x00] END_REQSTACK()
```
