# Event 65535

## Metadata

| Field           | Value    |
|-----------------|----------|
| Event Index     | 7/10     |
| Offset          | 0x007F   |
| Data Size       | 52 bytes |
| Calculated Size | 52 bytes |
| Instructions    | 12       |

```
      00 01 02 03 04 05 06 07  08 09 0A 0B 0C 0D 0E 0F
      -- -- -- -- -- -- -- --  -- -- -- -- -- -- -- --
0070:                                               4A                 J
0080: FE 50 0F 01 FF 50 0F 01  1C 08 80 4A F6 50 0F 01  .P...P.....J.P..
0090: FF 50 0F 01 1C 0E 80 4A  FF 50 0F 01 F6 50 0F 01  .P.....J.P...P..
00A0: 6F 76 FE 50 0F 01 6F 76  F6 50 0F 01 6F 76 FF 50  ov.P..ov.P..ov.P
00B0: 0F 01 00                                          ...             
```

## Opcodes

```
  0: 0x007F [0x4A] Rolandienne (ID: 17780990/0x010F50FE) looks at Fhelm Jobeizat (ID: 17780991/0x010F50FF)
  1: 0x0088 [0x1C] WAIT(10* ticks)
  2: 0x008B [0x4A] Nantoto (ID: 17780982/0x010F50F6) looks at Fhelm Jobeizat (ID: 17780991/0x010F50FF)
  3: 0x0094 [0x1C] WAIT(15* ticks)
  4: 0x0097 [0x4A] Fhelm Jobeizat (ID: 17780991/0x010F50FF) looks at Nantoto (ID: 17780982/0x010F50F6)
  5: 0x00A0 [0x6F] WAIT_FRAME_DELAY: Yield until WaitTime reaches zero
  6: 0x00A1 [0x76] CHECK_ENTITY_RENDER_FLAGS: Wait until Rolandienne (ID: 17780990/0x010F50FE) Render.Flags0 and Render.Flags3 conditions are met
  7: 0x00A6 [0x6F] WAIT_FRAME_DELAY: Yield until WaitTime reaches zero
  8: 0x00A7 [0x76] CHECK_ENTITY_RENDER_FLAGS: Wait until Nantoto (ID: 17780982/0x010F50F6) Render.Flags0 and Render.Flags3 conditions are met
  9: 0x00AC [0x6F] WAIT_FRAME_DELAY: Yield until WaitTime reaches zero
 10: 0x00AD [0x76] CHECK_ENTITY_RENDER_FLAGS: Wait until Fhelm Jobeizat (ID: 17780991/0x010F50FF) Render.Flags0 and Render.Flags3 conditions are met
 11: 0x00B2 [0x00] END_REQSTACK()
```
