# Event 65535

## Metadata

| Field           | Value    |
|-----------------|----------|
| Event Index     | 6/10     |
| Offset          | 0x0042   |
| Data Size       | 61 bytes |
| Calculated Size | 61 bytes |
| Instructions    | 11       |

```
      00 01 02 03 04 05 06 07  08 09 0A 0B 0C 0D 0E 0F
      -- -- -- -- -- -- -- --  -- -- -- -- -- -- -- --
0040:       6E FF 50 0F 01 0B  80 99 FF 50 0F 01 6E 00    n.P......P..n.
0050: 51 0F 01 0C 80 99 00 51  0F 01 6E FD 50 0F 01 0B  Q......Q..n.P...
0060: 80 99 FD 50 0F 01 6E FE  50 0F 01 0D 80 99 FE 50  ...P..n.P......P
0070: 0F 01 6E F0 FF FF 7F 0C  80 99 F0 FF FF 7F 00     ..n............ 
```

## Opcodes

```
  0: 0x0042 [0x6E] Fhelm Jobeizat (ID: 17780991/0x010F50FF) uses emote 11*
  1: 0x0049 [0x99] Wait for Fhelm Jobeizat (ID: 17780991/0x010F50FF) animation to complete
  2: 0x004E [0x6E] Isakoth (ID: 17780992/0x010F5100) uses emote 36*
  3: 0x0055 [0x99] Wait for Isakoth (ID: 17780992/0x010F5100) animation to complete
  4: 0x005A [0x6E] Eternal Flame (ID: 17780989/0x010F50FD) uses emote 11*
  5: 0x0061 [0x99] Wait for Eternal Flame (ID: 17780989/0x010F50FD) animation to complete
  6: 0x0066 [0x6E] Rolandienne (ID: 17780990/0x010F50FE) uses emote 7*
  7: 0x006D [0x99] Wait for Rolandienne (ID: 17780990/0x010F50FE) animation to complete
  8: 0x0072 [0x6E] LocalPlayer uses emote 36*
  9: 0x0079 [0x99] Wait for LocalPlayer animation to complete
 10: 0x007E [0x00] END_REQSTACK()
```
