# Event 65535

## Metadata

| Field           | Value    |
|-----------------|----------|
| Event Index     | 27/87    |
| Offset          | 0x010B   |
| Data Size       | 50 bytes |
| Calculated Size | 50 bytes |
| Instructions    | 8        |

```
      00 01 02 03 04 05 06 07  08 09 0A 0B 0C 0D 0E 0F
      -- -- -- -- -- -- -- --  -- -- -- -- -- -- -- --
0100:                                   32 2A 80 1F 00             2*...
0110: 2E 80 2F 80 12 80 1F 01  6F 1C 30 80 45 31 80 F0  ../.....o.0.E1..
0120: FF FF 7F F0 FF FF 7F 36  30 37 39 00 80 5B 32 80  .......6079..[2.
0130: 97 D0 00 01 97 D0 00 01  61 74 73 30 00           ........ats0.   
```

## Opcodes

```
  0: 0x010B [0x32] ExtData[1]->MainSpeed = 40* * 0.1
  1: 0x010E [0x1F] MOVE_ENTITY: EventEntity moves to X=-448.458*, Z=5.065*, Y=121.999*
  2: 0x0116 [0x1F] MOVE_ENTITY: Update entity position (mode=1)
  3: 0x0118 [0x6F] WAIT_FRAME_DELAY: Yield until WaitTime reaches zero
  4: 0x0119 [0x1C] WAIT(3* ticks)
  5: 0x011C [0x45] LOAD_SCHEDULED_TASK(work_offset1=157*, entity1=LocalPlayer, entity2=LocalPlayer, scheduler_id="6079", work_offset2=0*)
  6: 0x012D [0x5B] LOAD_EXT_SCHEDULER(work_offset=493*, entity1=Jabbos (ID: 16830615/0x0100D097), entity2=Jabbos (ID: 16830615/0x0100D097), action="ats0")
  7: 0x013C [0x00] END_REQSTACK()
```
