# Event 65535

## Metadata

| Field           | Value    |
|-----------------|----------|
| Event Index     | 26/87    |
| Offset          | 0x00DB   |
| Data Size       | 48 bytes |
| Calculated Size | 48 bytes |
| Instructions    | 8        |

```
      00 01 02 03 04 05 06 07  08 09 0A 0B 0C 0D 0E 0F
      -- -- -- -- -- -- -- --  -- -- -- -- -- -- -- --
00D0:                                   5B 28 80 97 D0             [(...
00E0: 00 01 97 D0 00 01 67 62  63 31 1C 29 80 32 2A 80  ......gbc1.).2*.
00F0: 1F 00 2B 80 2C 80 2D 80  1F 01 6F 5B 28 80 97 D0  ..+.,.-...o[(...
0100: 00 01 97 D0 00 01 67 62  63 30 00                 ......gbc0.     
```

## Opcodes

```
  0: 0x00DB [0x5B] LOAD_EXT_SCHEDULER: Load scheduler "gbc1" with entities [Jabbos (ID: 16830615/0x0100D097), Jabbos (ID: 16830615/0x0100D097)], work=492*
  1: 0x00EA [0x1C] WAIT(60* ticks)
  2: 0x00ED [0x32] ExtData[1]->MainSpeed = 40* * 0.1
  3: 0x00F0 [0x1F] MOVE_ENTITY: EventEntity moves to X=-454.082*, Z=10.135*, Y=121.984*
  4: 0x00F8 [0x1F] MOVE_ENTITY: Update entity position (mode=1)
  5: 0x00FA [0x6F] WAIT_FRAME_DELAY: Yield until WaitTime reaches zero
  6: 0x00FB [0x5B] LOAD_EXT_SCHEDULER: Load scheduler "gbc0" with entities [Jabbos (ID: 16830615/0x0100D097), Jabbos (ID: 16830615/0x0100D097)], work=492*
  7: 0x010A [0x00] END_REQSTACK()
```
