# Event 65535

## Metadata

| Field           | Value    |
|-----------------|----------|
| Event Index     | 13/19    |
| Offset          | 0x0051   |
| Data Size       | 82 bytes |
| Calculated Size | 82 bytes |
| Instructions    | 10       |

```
      00 01 02 03 04 05 06 07  08 09 0A 0B 0C 0D 0E 0F
      -- -- -- -- -- -- -- --  -- -- -- -- -- -- -- --
0050:    27 10 6D A0 00 01 02  32 07 80 1F 00 03 80 08   '.m....2.......
0060: 80 05 80 1F 01 45 09 80  F0 FF FF 7F F0 FF FF 7F  .....E..........
0070: 6B 30 30 34 00 80 9F 0A  80 F8 FF FF 7F F8 FF FF  k004............
0080: 7F 6B 69 6C 6C 00 80 45  09 80 F0 FF FF 7F F0 FF  .kill..E........
0090: FF 7F 73 30 30 35 00 80  1F 00 03 80 0B 80 05 80  ..s005..........
00A0: 1F 01 00                                          ...             
```

## Opcodes

```
  0: 0x0051 [0x27] REQ_SET(priority=0x10, entity_id=Unnamed NPC (ID: 16818285/0x0100A06D), tag_num=0x02)
  1: 0x0058 [0x32] ExtData[1]->MainSpeed = 13* * 0.1
  2: 0x005B [0x1F] MOVE_ENTITY: EventEntity moves to X=280.000*, Z=359.958*, Y=2.999*
  3: 0x0063 [0x1F] MOVE_ENTITY: Update entity position (mode=1)
  4: 0x0065 [0x45] LOAD_SCHEDULED_TASK: Load scheduler "k004" with entities [LocalPlayer, LocalPlayer], work=[152*, 0*]
  5: 0x0076 [0x9F] LOAD_SCHEDULED_TASK_ALT: Load scheduler "kill" with entities [EventEntity, EventEntity], work=[62*, 0*]
  6: 0x0087 [0x45] LOAD_SCHEDULED_TASK: Load scheduler "s005" with entities [LocalPlayer, LocalPlayer], work=[152*, 0*]
  7: 0x0098 [0x1F] MOVE_ENTITY: EventEntity moves to X=280.000*, Z=355.436*, Y=2.999*
  8: 0x00A0 [0x1F] MOVE_ENTITY: Update entity position (mode=1)
  9: 0x00A2 [0x00] END_REQSTACK()
```
