# 17126136

## Common Data

| Field            | Value                 |
|------------------|-----------------------|
| Zone             | La Vaule [S] (ID: 85) |
| Block Size       | 24040 bytes           |
| Total Events     | 3                     |
| References Count | 716                   |

## List of Events

| Event ID              | Entrypoint   |   Size |   Instructions |
|-----------------------|--------------|--------|----------------|
| [65535](#event-65535) | 0x0000       |      1 |              1 |
| [1](#event-1)         | 0x0001       |  12932 |           1401 |
| [2](#event-2)         | 0x3285       |   8213 |            790 |

## DAT References (imed_data)

|   Index | Hex Value   |   Dec Value |
|---------|-------------|-------------|
|       0 | 0x0013      |          19 |
|       1 | 0x3730C     |      226060 |
|       2 | 0x35CE      |       13774 |
|       3 | 0x0000      |           0 |
|       4 | 0x0586      |        1414 |
|       5 | 0x36EF4     |      225012 |
|       6 | 0x3286      |       12934 |
|       7 | 0x004C      |          76 |
|       8 | 0x051D      |        1309 |
|       9 | 0x35D8A     |      220554 |
|      10 | 0x0DC9      |        3529 |
|      11 | 0x04A7      |        1191 |
|      12 | 0x3559F     |      218527 |
|      13 | 0xFFFFF5C2  |  4294964674 |
|      14 | 0xFFFFFFFF  |  4294967295 |
|      15 | 0x05DB      |        1499 |
|      16 | 0x35789     |      219017 |
|      17 | 0x0E0D      |        3597 |
|      18 | 0x0389      |         905 |
|      19 | 0x354DE     |      218334 |
|      20 | 0x07BC      |        1980 |
|      21 | 0x0189      |         393 |
|      22 | 0x351B8     |      217528 |
|      23 | 0xFFFFFF28  |  4294967080 |
|      24 | 0x0F43      |        3907 |
|      25 | 0x0857      |        2135 |
|      26 | 0x0180      |         384 |
|      27 | 0x0096      |         150 |
|      28 | 0x002D      |          45 |
|      29 | 0x000F      |          15 |
|      30 | 0x1FC5      |        8133 |
|      31 | 0x1FC6      |        8134 |
|      32 | 0x087D      |        2173 |
|      33 | 0x1FC7      |        8135 |
|      34 | 0x0850      |        2128 |
|      35 | 0x1FC8      |        8136 |
|      36 | 0x1FC9      |        8137 |
|      37 | 0x1FCA      |        8138 |
|      38 | 0x1FCB      |        8139 |
|      39 | 0x0007      |           7 |
|      40 | 0x1FCC      |        8140 |
|      41 | 0x08C2      |        2242 |
|      42 | 0x1FCD      |        8141 |
|      43 | 0x001E      |          30 |
|      44 | 0x1FCE      |        8142 |
|      45 | 0x1FCF      |        8143 |
|      46 | 0x0859      |        2137 |
|      47 | 0x1FD0      |        8144 |
|      48 | 0x0015      |          21 |
|      49 | 0x1FD1      |        8145 |
|      50 | 0x1FD2      |        8146 |
|      51 | 0x087E      |        2174 |
|      52 | 0x1FD3      |        8147 |
|      53 | 0x0004      |           4 |
|      54 | 0x1FD4      |        8148 |
|      55 | 0x0F69      |        3945 |
|      56 | 0x1FD5      |        8149 |
|      57 | 0x012C      |         300 |
|      58 | 0x0896      |        2198 |
|      59 | 0x1FD6      |        8150 |
|      60 | 0x0854      |        2132 |
|      61 | 0x1FD7      |        8151 |
|      62 | 0x1FD8      |        8152 |
|      63 | 0x0024      |          36 |
|      64 | 0x1FD9      |        8153 |
|      65 | 0x0078      |         120 |
|      66 | 0x41CE4     |      269540 |
|      67 | 0xFFFD1F61  |  4294778721 |
|      68 | 0x0EA5      |        3749 |
|      69 | 0x01BB      |         443 |
|      70 | 0x4231A     |      271130 |
|      71 | 0xFFFD1EFE  |  4294778622 |
|      72 | 0x0EA0      |        3744 |
|      73 | 0x03A3      |         931 |
|      74 | 0x429B8     |      272824 |
|      75 | 0xFFFD214E  |  4294779214 |
|      76 | 0x0E1A      |        3610 |
|      77 | 0x01AB      |         427 |
|      78 | 0x428B1     |      272561 |
|      79 | 0xFFFD11F0  |  4294775280 |
|      80 | 0x0F9F      |        3999 |
|      81 | 0x427C7     |      272327 |
|      82 | 0xFFFD1CE3  |  4294778083 |
|      83 | 0x0EC0      |        3776 |
|      84 | 0x021E      |         542 |
|      85 | 0x42B3A     |      273210 |
|      86 | 0xFFFD162C  |  4294776364 |
|      87 | 0x42347     |      271175 |
|      88 | 0xFFFD117C  |  4294775164 |
|      89 | 0x0EA1      |        3745 |
|      90 | 0x037B      |         891 |
|      91 | 0x43C15     |      277525 |
|      92 | 0xFFFCEEC0  |  4294766272 |
|      93 | 0x040C      |        1036 |
|      94 | 0x4219E     |      270750 |
|      95 | 0xFFFC994C  |  4294744396 |
|      96 | 0x1066      |        4198 |
|      97 | 0x07D1      |        2001 |
|      98 | 0x42A79     |      273017 |
|      99 | 0xFFFCC551  |  4294755665 |
|     100 | 0x0FCC      |        4044 |
|     101 | 0x0270      |         624 |
|     102 | 0x46493     |      287891 |
|     103 | 0xFFFD01E3  |  4294771171 |
|     104 | 0x1083      |        4227 |
|     105 | 0x0F97      |        3991 |
|     106 | 0x4710B     |      291083 |
|     107 | 0xFFFCD0E4  |  4294758628 |
|     108 | 0x0FC2      |        4034 |
|     109 | 0x4377C     |      276348 |
|     110 | 0xFFFC5CDA  |  4294728922 |
|     111 | 0x0278      |         632 |
|     112 | 0x43913     |      276755 |
|     113 | 0xFFFCEA3B  |  4294765115 |
|     114 | 0x0E7E      |        3710 |
|     115 | 0x41A60     |      268896 |
|     116 | 0xFFFC5DA0  |  4294729120 |
|     117 | 0x0A4B      |        2635 |
|     118 | 0x05D7      |        1495 |
|     119 | 0x0584      |        1412 |
|     120 | 0x0091      |         145 |
|     121 | 0x1FC4      |        8132 |
|     122 | 0x005A      |          90 |
|     123 | 0x001D      |          29 |
|     124 | 0x003C      |          60 |
|     125 | 0x1FDA      |        8154 |
|     126 | 0x1FDB      |        8155 |
|     127 | 0x1FDC      |        8156 |
|     128 | 0x1FDD      |        8157 |
|     129 | 0x001A      |          26 |
|     130 | 0x1FDE      |        8158 |
|     131 | 0x08CD      |        2253 |
|     132 | 0x1FDF      |        8159 |
|     133 | 0x43397     |      275351 |
|     134 | 0xFFFC9242  |  4294742594 |
|     135 | 0x10A7      |        4263 |
|     136 | 0x406BD     |      263869 |
|     137 | 0xFFFC9CE8  |  4294745320 |
|     138 | 0x0D1E      |        3358 |
|     139 | 0x016F      |         367 |
|     140 | 0x426EA     |      272106 |
|     141 | 0xFFFC94ED  |  4294743277 |
|     142 | 0x1099      |        4249 |
|     143 | 0x0F02      |        3842 |
|     144 | 0x42E69     |      274025 |
|     145 | 0xFFFC9D40  |  4294745408 |
|     146 | 0x0498      |        1176 |
|     147 | 0x42400     |      271360 |
|     148 | 0xFFFC9BFA  |  4294745082 |
|     149 | 0x107F      |        4223 |
|     150 | 0x00A8      |         168 |
|     151 | 0x48960     |      297312 |
|     152 | 0xFFFD03D5  |  4294771669 |
|     153 | 0x0F6C      |        3948 |
|     154 | 0x08EF      |        2287 |
|     155 | 0x48666     |      296550 |
|     156 | 0xFFFCDA15  |  4294760981 |
|     157 | 0x0122      |         290 |
|     158 | 0x3F73E     |      259902 |
|     159 | 0xFFFC7EF3  |  4294737651 |
|     160 | 0x1089      |        4233 |
|     161 | 0x0304      |         772 |
|     162 | 0x482DE     |      295646 |
|     163 | 0xFFFD0218  |  4294771224 |
|     164 | 0x0D97      |        3479 |
|     165 | 0x43D64     |      277860 |
|     166 | 0xFFFC76D5  |  4294735573 |
|     167 | 0x0F95      |        3989 |
|     168 | 0x00DA      |         218 |
|     169 | 0x44671     |      280177 |
|     170 | 0xFFFC729D  |  4294734493 |
|     171 | 0x08D3      |        2259 |
|     172 | 0x45D28     |      285992 |
|     173 | 0xFFFC0FDF  |  4294709215 |
|     174 | 0x0022      |          34 |
|     175 | 0x445EA     |      280042 |
|     176 | 0xFFFC1F4B  |  4294713163 |
|     177 | 0x0FA0      |        4000 |
|     178 | 0x0C08      |        3080 |
|     179 | 0x48B7F     |      297855 |
|     180 | 0xFFFCD320  |  4294759200 |
|     181 | 0x0D2A      |        3370 |
|     182 | 0x44EF0     |      282352 |
|     183 | 0xFFFCCBEF  |  4294757359 |
|     184 | 0x0AE1      |        2785 |
|     185 | 0x44B26     |      281382 |
|     186 | 0xFFFCD09E  |  4294758558 |
|     187 | 0x00E7      |         231 |
|     188 | 0x00D3      |         211 |
|     189 | 0x00CA      |         202 |
|     190 | 0x1FE0      |        8160 |
|     191 | 0x08C1      |        2241 |
|     192 | 0x0064      |         100 |
|     193 | 0x1FE1      |        8161 |
|     194 | 0x1FE2      |        8162 |
|     195 | 0x1FE3      |        8163 |
|     196 | 0x00B4      |         180 |
|     197 | 0x0135      |         309 |
|     198 | 0x1FE4      |        8164 |
|     199 | 0x08CA      |        2250 |
|     200 | 0x1FE5      |        8165 |
|     201 | 0x00C7      |         199 |
|     202 | 0x0014      |          20 |
|     203 | 0x1FE6      |        8166 |
|     204 | 0x45BA3     |      285603 |
|     205 | 0xFFFC2BAF  |  4294716335 |
|     206 | 0x043B      |        1083 |
|     207 | 0x43EAB     |      278187 |
|     208 | 0xFFFC3661  |  4294719073 |
|     209 | 0x0342      |         834 |
|     210 | 0x429C7     |      272839 |
|     211 | 0xFFFC49D7  |  4294724055 |
|     212 | 0x0FEC      |        4076 |
|     213 | 0x0326      |         806 |
|     214 | 0x42842     |      272450 |
|     215 | 0xFFFC8761  |  4294739809 |
|     216 | 0x0FC1      |        4033 |
|     217 | 0x031B      |         795 |
|     218 | 0x421C0     |      270784 |
|     219 | 0xFFFC9E23  |  4294745635 |
|     220 | 0x0FE9      |        4073 |
|     221 | 0x42062     |      270434 |
|     222 | 0xFFFCA7E3  |  4294748131 |
|     223 | 0x0DC8      |        3528 |
|     224 | 0x05A8      |        1448 |
|     225 | 0x05C1      |        1473 |
|     226 | 0x08AE      |        2222 |
|     227 | 0x0862      |        2146 |
|     228 | 0x00F7      |         247 |
|     229 | 0x008C      |         140 |
|     230 | 0x1FE7      |        8167 |
|     231 | 0x00F0      |         240 |
|     232 | 0x0021      |          33 |
|     233 | 0x1FE9      |        8169 |
|     234 | 0x1FE8      |        8168 |
|     235 | 0x1FEA      |        8170 |
|     236 | 0x08A8      |        2216 |
|     237 | 0x1FEB      |        8171 |
|     238 | 0x1FEC      |        8172 |
|     239 | 0x48443     |      296003 |
|     240 | 0xFFFCEAAC  |  4294765228 |
|     241 | 0x06C9      |        1737 |
|     242 | 0x47A55     |      293461 |
|     243 | 0xFFFCD69D  |  4294760093 |
|     244 | 0x0F7B      |        3963 |
|     245 | 0x0EFE      |        3838 |
|     246 | 0x47DD3     |      294355 |
|     247 | 0xFFFCFAE4  |  4294769380 |
|     248 | 0x0F25      |        3877 |
|     249 | 0x46F64     |      290660 |
|     250 | 0xFFFCDF5E  |  4294762334 |
|     251 | 0x0EC2      |        3778 |
|     252 | 0x08AA      |        2218 |
|     253 | 0x04E7      |        1255 |
|     254 | 0x1FED      |        8173 |
|     255 | 0x41FE7     |      270311 |
|     256 | 0xFFFD1EC7  |  4294778567 |
|     257 | 0x0201      |         513 |
|     258 | 0x44754     |      280404 |
|     259 | 0xFFFCC35F  |  4294755167 |
|     260 | 0x0E2D      |        3629 |
|     261 | 0x447B2     |      280498 |
|     262 | 0xFFFCC838  |  4294756408 |
|     263 | 0x0E2C      |        3628 |
|     264 | 0x44C59     |      281689 |
|     265 | 0xFFFCCEDD  |  4294758109 |
|     266 | 0x0E30      |        3632 |
|     267 | 0x4466C     |      280172 |
|     268 | 0xFFFCCFD0  |  4294758352 |
|     269 | 0x0F68      |        3944 |
|     270 | 0x08A6      |        2214 |
|     271 | 0x00D2      |         210 |
|     272 | 0x1FEE      |        8174 |
|     273 | 0x1FEF      |        8175 |
|     274 | 0x1FF0      |        8176 |
|     275 | 0x08B0      |        2224 |
|     276 | 0x0005      |           5 |
|     277 | 0x000A      |          10 |
|     278 | 0x08B3      |        2227 |
|     279 | 0x0012      |          18 |
|     280 | 0x004B      |          75 |
|     281 | 0x00C3      |         195 |
|     282 | 0x1FF1      |        8177 |
|     283 | 0x43EEB     |      278251 |
|     284 | 0xFFFC259E  |  4294714782 |
|     285 | 0x0C00      |        3072 |
|     286 | 0x44455     |      279637 |
|     287 | 0xFFFC16FB  |  4294711035 |
|     288 | 0x44324     |      279332 |
|     289 | 0xFFFC1D60  |  4294712672 |
|     290 | 0x0C67      |        3175 |
|     291 | 0x44A95     |      281237 |
|     292 | 0xFFFC1FEE  |  4294713326 |
|     293 | 0x0CBC      |        3260 |
|     294 | 0x445C1     |      280001 |
|     295 | 0xFFFC270C  |  4294715148 |
|     296 | 0x0C3F      |        3135 |
|     297 | 0x44CB2     |      281778 |
|     298 | 0xFFFCD1E5  |  4294758885 |
|     299 | 0x0F96      |        3990 |
|     300 | 0x0550      |        1360 |
|     301 | 0x43F88     |      278408 |
|     302 | 0xFFFCABE4  |  4294749156 |
|     303 | 0x0F9C      |        3996 |
|     304 | 0x040A      |        1034 |
|     305 | 0x42EE5     |      274149 |
|     306 | 0xFFFC4A4A  |  4294724170 |
|     307 | 0x0FE5      |        4069 |
|     308 | 0x0BF7      |        3063 |
|     309 | 0x44E6B     |      282219 |
|     310 | 0xFFFC3E9A  |  4294721178 |
|     311 | 0x0B37      |        2871 |
|     312 | 0x4438C     |      279436 |
|     313 | 0xFFFC62A6  |  4294730406 |
|     314 | 0x444CB     |      279755 |
|     315 | 0xFFFC8758  |  4294739800 |
|     316 | 0x452F7     |      283383 |
|     317 | 0xFFFC372C  |  4294719276 |
|     318 | 0x1049      |        4169 |
|     319 | 0x43DB5     |      277941 |
|     320 | 0xFFFC5E02  |  4294729218 |
|     321 | 0x0400      |        1024 |
|     322 | 0x4465E     |      280158 |
|     323 | 0xFFFCD92A  |  4294760746 |
|     324 | 0x03EB      |        1003 |
|     325 | 0x44492     |      279698 |
|     326 | 0xFFFCE293  |  4294763155 |
|     327 | 0x03E5      |         997 |
|     328 | 0x43D5D     |      277853 |
|     329 | 0xFFFCD507  |  4294759687 |
|     330 | 0x03E6      |         998 |
|     331 | 0x43895     |      276629 |
|     332 | 0xFFFCCE12  |  4294757906 |
|     333 | 0x03E9      |        1001 |
|     334 | 0x426BE     |      272062 |
|     335 | 0xFFFCD719  |  4294760217 |
|     336 | 0x0DAF      |        3503 |
|     337 | 0x03AD      |         941 |
|     338 | 0x085E      |        2142 |
|     339 | 0x00C6      |         198 |
|     340 | 0x007F      |         127 |
|     341 | 0x00FF      |         255 |
|     342 | 0x0006      |           6 |
|     343 | 0x00FA      |         250 |
|     344 | 0x1FF2      |        8178 |
|     345 | 0x1FF3      |        8179 |
|     346 | 0x05D6      |        1494 |
|     347 | 0x085F      |        2143 |
|     348 | 0x08B8      |        2232 |
|     349 | 0x0041      |          65 |
|     350 | 0x0001      |           1 |
|     351 | 0x43767     |      276327 |
|     352 | 0xFFFC7A50  |  4294736464 |
|     353 | 0x0FA9      |        4009 |
|     354 | 0x0C7F      |        3199 |
|     355 | 0x42AC3     |      273091 |
|     356 | 0xFFFC596B  |  4294728043 |
|     357 | 0x0C07      |        3079 |
|     358 | 0x44D6D     |      281965 |
|     359 | 0xFFFC6A3A  |  4294732346 |
|     360 | 0x08F4      |        2292 |
|     361 | 0x44495     |      279701 |
|     362 | 0xFFFC9A52  |  4294744658 |
|     363 | 0x03F9      |        1017 |
|     364 | 0x4451B     |      279835 |
|     365 | 0xFFFC7010  |  4294733840 |
|     366 | 0x03CA      |         970 |
|     367 | 0x437E8     |      276456 |
|     368 | 0xFFFC901E  |  4294742046 |
|     369 | 0x0FB1      |        4017 |
|     370 | 0x0416      |        1046 |
|     371 | 0x429DD     |      272861 |
|     372 | 0xFFFC67FB  |  4294731771 |
|     373 | 0x0EDE      |        3806 |
|     374 | 0x03F1      |        1009 |
|     375 | 0x1FF4      |        8180 |
|     376 | 0x1FF5      |        8181 |
|     377 | 0x0032      |          50 |
|     378 | 0x43BAA     |      277418 |
|     379 | 0xFFFC22EC  |  4294714092 |
|     380 | 0x475FF     |      292351 |
|     381 | 0xFFFC1C82  |  4294712450 |
|     382 | 0x0C7A      |        3194 |
|     383 | 0x0C01      |        3073 |
|     384 | 0x4847A     |      296058 |
|     385 | 0xFFFC1818  |  4294711320 |
|     386 | 0x0C17      |        3095 |
|     387 | 0x0903      |        2307 |
|     388 | 0x1FF6      |        8182 |
|     389 | 0x0E06      |        3590 |
|     390 | 0x00B5      |         181 |
|     391 | 0x1FF7      |        8183 |
|     392 | 0x1FF8      |        8184 |
|     393 | 0x1FF9      |        8185 |
|     394 | 0x0002      |           2 |
|     395 | 0x1FFA      |        8186 |
|     396 | 0x0DE4      |        3556 |
|     397 | 0x1FFB      |        8187 |
|     398 | 0x1FFC      |        8188 |
|     399 | 0x0280      |         640 |
|     400 | 0x1FFD      |        8189 |
|     401 | 0x08AD      |        2221 |
|     402 | 0x1FFE      |        8190 |
|     403 | 0x1FFF      |        8191 |
|     404 | 0x4440D     |      279565 |
|     405 | 0xFFFC0612  |  4294706706 |
|     406 | 0x0A75      |        2677 |
|     407 | 0x43DB1     |      277937 |
|     408 | 0xFFFC027B  |  4294705787 |
|     409 | 0x0C46      |        3142 |
|     410 | 0x2000      |        8192 |
|     411 | 0x05CD      |        1485 |
|     412 | 0x2001      |        8193 |
|     413 | 0x497FF     |      301055 |
|     414 | 0xFFFCE4D1  |  4294763729 |
|     415 | 0x0F9B      |        3995 |
|     416 | 0x07F8      |        2040 |
|     417 | 0x41A51     |      268881 |
|     418 | 0xFFFC79D8  |  4294736344 |
|     419 | 0x07EF      |        2031 |
|     420 | 0x441F5     |      279029 |
|     421 | 0xFFFC7475  |  4294734965 |
|     422 | 0x093A      |        2362 |
|     423 | 0x4361C     |      275996 |
|     424 | 0xFFFC7094  |  4294733972 |
|     425 | 0x101C      |        4124 |
|     426 | 0x0D4A      |        3402 |
|     427 | 0x43E4E     |      278094 |
|     428 | 0xFFFCAB3A  |  4294748986 |
|     429 | 0x0BC1      |        3009 |
|     430 | 0x4308A     |      274570 |
|     431 | 0xFFFC9B59  |  4294744921 |
|     432 | 0x0A46      |        2630 |
|     433 | 0x43E2C     |      278060 |
|     434 | 0xFFFCB97A  |  4294752634 |
|     435 | 0x042F      |        1071 |
|     436 | 0x436E5     |      276197 |
|     437 | 0xFFFC7F84  |  4294737796 |
|     438 | 0x0EFD      |        3837 |
|     439 | 0x02FB      |         763 |
|     440 | 0x42631     |      271921 |
|     441 | 0xFFFCA65E  |  4294747742 |
|     442 | 0x0299      |         665 |
|     443 | 0x40B62     |      265058 |
|     444 | 0xFFFC75AD  |  4294735277 |
|     445 | 0x1011      |        4113 |
|     446 | 0x0FE7      |        4071 |
|     447 | 0x49117     |      299287 |
|     448 | 0xFFFCF002  |  4294766594 |
|     449 | 0x08B1      |        2225 |
|     450 | 0x0019      |          25 |
|     451 | 0x6D7F      |       28031 |
|     452 | 0xFFFD6CA6  |  4294798502 |
|     453 | 0x0C6F      |        3183 |
|     454 | 0x0AC3      |        2755 |
|     455 | 0x629C      |       25244 |
|     456 | 0xFFFD7A5E  |  4294802014 |
|     457 | 0x0EFA      |        3834 |
|     458 | 0x0B19      |        2841 |
|     459 | 0x66CF      |       26319 |
|     460 | 0xFFFD7472  |  4294800498 |
|     461 | 0x0E36      |        3638 |
|     462 | 0x0B18      |        2840 |
|     463 | 0x6608      |       26120 |
|     464 | 0xFFFD6E53  |  4294798931 |
|     465 | 0x0DD3      |        3539 |
|     466 | 0x0B1F      |        2847 |
|     467 | 0x048E      |        1166 |
|     468 | 0x43DB9     |      277945 |
|     469 | 0xFFFC7E69  |  4294737513 |
|     470 | 0x4383D     |      276541 |
|     471 | 0xFFFC53D9  |  4294726617 |
|     472 | 0x0633      |        1587 |
|     473 | 0x453E0     |      283616 |
|     474 | 0xFFFC2DD0  |  4294716880 |
|     475 | 0x1064      |        4196 |
|     476 | 0x0A70      |        2672 |
|     477 | 0x444BA     |      279738 |
|     478 | 0xFFFCDFF1  |  4294762481 |
|     479 | 0x0870      |        2160 |
|     480 | 0x44A49     |      281161 |
|     481 | 0xFFFC9637  |  4294743607 |
|     482 | 0x0553      |        1363 |
|     483 | 0x43958     |      276824 |
|     484 | 0xFFFC3E94  |  4294721172 |
|     485 | 0x430F0     |      274672 |
|     486 | 0xFFFC4EA7  |  4294725287 |
|     487 | 0x00D4      |         212 |
|     488 | 0x00D8      |         216 |
|     489 | 0x05FD      |        1533 |
|     490 | 0x0127      |         295 |
|     491 | 0x2002      |        8194 |
|     492 | 0x2003      |        8195 |
|     493 | 0x2004      |        8196 |
|     494 | 0x4377B     |      276347 |
|     495 | 0xFFFC5D53  |  4294729043 |
|     496 | 0x02C5      |         709 |
|     497 | 0x43CB6     |      277686 |
|     498 | 0xFFFCA353  |  4294746963 |
|     499 | 0x429F5     |      272885 |
|     500 | 0xFFFC8E8C  |  4294741644 |
|     501 | 0x030A      |         778 |
|     502 | 0x43A67     |      277095 |
|     503 | 0xFFFCB3C4  |  4294751172 |
|     504 | 0x0FD7      |        4055 |
|     505 | 0x01C8      |         456 |
|     506 | 0x0355      |         853 |
|     507 | 0x2005      |        8197 |
|     508 | 0x0009      |           9 |
|     509 | 0x2006      |        8198 |
|     510 | 0x2007      |        8199 |
|     511 | 0x2008      |        8200 |
|     512 | 0x2009      |        8201 |
|     513 | 0x032B      |         811 |
|     514 | 0x00C8      |         200 |
|     515 | 0xFFFAB6A6  |  4294620838 |
|     516 | 0x5C133     |      377139 |
|     517 | 0xFFFE28DB  |  4294846683 |
|     518 | 0x0677      |        1655 |
|     519 | 0xFFFAA4B7  |  4294616247 |
|     520 | 0x5CA26     |      379430 |
|     521 | 0xFFFE297B  |  4294846843 |
|     522 | 0x08BF      |        2239 |
|     523 | 0xFFFAA79E  |  4294616990 |
|     524 | 0x5C364     |      377700 |
|     525 | 0xFFFE296F  |  4294846831 |
|     526 | 0xFFFA9946  |  4294613318 |
|     527 | 0x5CBAB     |      379819 |
|     528 | 0xFFFE2A7B  |  4294847099 |
|     529 | 0xFFF95FA4  |  4294533028 |
|     530 | 0x5A50F     |      369935 |
|     531 | 0xFFFE3ADB  |  4294851291 |
|     532 | 0x06D3      |        1747 |
|     533 | 0xFFF96250  |  4294533712 |
|     534 | 0x5AA01     |      371201 |
|     535 | 0xFFFE3A16  |  4294851094 |
|     536 | 0x06B5      |        1717 |
|     537 | 0xFFF9395E  |  4294523230 |
|     538 | 0x5A280     |      369280 |
|     539 | 0xFFFE3AD3  |  4294851283 |
|     540 | 0x0075      |         117 |
|     541 | 0x12DB5     |       77237 |
|     542 | 0xFFFFAD03  |  4294946051 |
|     543 | 0x07CF      |        1999 |
|     544 | 0x09F8      |        2552 |
|     545 | 0xFFF99F0B  |  4294549259 |
|     546 | 0x5CF8E     |      380814 |
|     547 | 0xFFFE38E1  |  4294850785 |
|     548 | 0x07BB      |        1979 |
|     549 | 0xFFF92932  |  4294519090 |
|     550 | 0x5861D     |      362013 |
|     551 | 0xFFFE3AE1  |  4294851297 |
|     552 | 0x0F27      |        3879 |
|     553 | 0x00D5      |         213 |
|     554 | 0x00D6      |         214 |
|     555 | 0x00CC      |         204 |
|     556 | 0x00CD      |         205 |
|     557 | 0x00D7      |         215 |
|     558 | 0x00DF      |         223 |
|     559 | 0x00D9      |         217 |
|     560 | 0x0887      |        2183 |
|     561 | 0x05B0      |        1456 |
|     562 | 0x0181      |         385 |
|     563 | 0xFFF95B60  |  4294531936 |
|     564 | 0x5A914     |      370964 |
|     565 | 0xFFFE3A72  |  4294851186 |
|     566 | 0x070D      |        1805 |
|     567 | 0xFFF9491F  |  4294527263 |
|     568 | 0x59E07     |      368135 |
|     569 | 0xFFFE3AE0  |  4294851296 |
|     570 | 0x070A      |        1802 |
|     571 | 0xFFF94F01  |  4294528769 |
|     572 | 0x59B9F     |      367519 |
|     573 | 0x0776      |        1910 |
|     574 | 0xFFF941B9  |  4294525369 |
|     575 | 0x59906     |      366854 |
|     576 | 0x06E1      |        1761 |
|     577 | 0x0861      |        2145 |
|     578 | 0x0168      |         360 |
|     579 | 0x200A      |        8202 |
|     580 | 0x200B      |        8203 |
|     581 | 0x200C      |        8204 |
|     582 | 0xFFF944D6  |  4294526166 |
|     583 | 0x5A3B7     |      369591 |
|     584 | 0x032C      |         812 |
|     585 | 0xFFF93A20  |  4294523424 |
|     586 | 0x59681     |      366209 |
|     587 | 0x0E99      |        3737 |
|     588 | 0x085C      |        2140 |
|     589 | 0x08B6      |        2230 |
|     590 | 0x200D      |        8205 |
|     591 | 0x0090      |         144 |
|     592 | 0x200E      |        8206 |
|     593 | 0xFFF950F1  |  4294529265 |
|     594 | 0x59D7D     |      367997 |
|     595 | 0x0F03      |        3843 |
|     596 | 0xFFF93CD6  |  4294524118 |
|     597 | 0x5905D     |      364637 |
|     598 | 0x0EE7      |        3815 |
|     599 | 0x0028      |          40 |
|     600 | 0x2010      |        8208 |
|     601 | 0xFFF93972  |  4294523250 |
|     602 | 0x58983     |      362883 |
|     603 | 0x0DA9      |        3497 |
|     604 | 0x05D8      |        1496 |
|     605 | 0x0037      |          55 |
|     606 | 0xFFF94C24  |  4294528036 |
|     607 | 0x5A447     |      369735 |
|     608 | 0x017E      |         382 |
|     609 | 0xFFF94976  |  4294527350 |
|     610 | 0x59FAA     |      368554 |
|     611 | 0x05B2      |        1458 |
|     612 | 0xFFF9500D  |  4294529037 |
|     613 | 0x5929F     |      365215 |
|     614 | 0x0AEA      |        2794 |
|     615 | 0xFFF95FB4  |  4294533044 |
|     616 | 0x5A0BF     |      368831 |
|     617 | 0x08FC      |        2300 |
|     618 | 0x08B2      |        2226 |
|     619 | 0x08AB      |        2219 |
|     620 | 0x2011      |        8209 |
|     621 | 0x2012      |        8210 |
|     622 | 0x2013      |        8211 |
|     623 | 0x2014      |        8212 |
|     624 | 0x0046      |          70 |
|     625 | 0x2015      |        8213 |
|     626 | 0x2016      |        8214 |
|     627 | 0x009B      |         155 |
|     628 | 0x00AF      |         175 |
|     629 | 0xFFF931BD  |  4294521277 |
|     630 | 0x58663     |      362083 |
|     631 | 0x0E8E      |        3726 |
|     632 | 0x08AC      |        2220 |
|     633 | 0x0082      |         130 |
|     634 | 0xFFF94B64  |  4294527844 |
|     635 | 0x5A510     |      369936 |
|     636 | 0x0578      |        1400 |
|     637 | 0xFFF94D5D  |  4294528349 |
|     638 | 0x5A139     |      368953 |
|     639 | 0x08B9      |        2233 |
|     640 | 0x2017      |        8215 |
|     641 | 0xFFF94025  |  4294524965 |
|     642 | 0x59058     |      364632 |
|     643 | 0x07A6      |        1958 |
|     644 | 0x2018      |        8216 |
|     645 | 0x05DC      |        1500 |
|     646 | 0x2019      |        8217 |
|     647 | 0x201B      |        8219 |
|     648 | 0x201A      |        8218 |
|     649 | 0x08A9      |        2217 |
|     650 | 0x201D      |        8221 |
|     651 | 0xFFF948F9  |  4294527225 |
|     652 | 0x5AD32     |      372018 |
|     653 | 0x0800      |        2048 |
|     654 | 0xFFF948BB  |  4294527163 |
|     655 | 0x59E8A     |      368266 |
|     656 | 0x0629      |        1577 |
|     657 | 0xFFF954F8  |  4294530296 |
|     658 | 0x59FE2     |      368610 |
|     659 | 0x0AF0      |        2800 |
|     660 | 0xFFF94AB3  |  4294527667 |
|     661 | 0x5AC29     |      371753 |
|     662 | 0x0AC1      |        2753 |
|     663 | 0x201C      |        8220 |
|     664 | 0xFFF9398F  |  4294523279 |
|     665 | 0x58DD8     |      363992 |
|     666 | 0x0E2B      |        3627 |
|     667 | 0x201E      |        8222 |
|     668 | 0x201F      |        8223 |
|     669 | 0xFFF9340B  |  4294521867 |
|     670 | 0x58F95     |      364437 |
|     671 | 0x0FF0      |        4080 |
|     672 | 0x2020      |        8224 |
|     673 | 0xFFF946F8  |  4294526712 |
|     674 | 0x5A613     |      370195 |
|     675 | 0x2021      |        8225 |
|     676 | 0x2022      |        8226 |
|     677 | 0x2023      |        8227 |
|     678 | 0x0891      |        2193 |
|     679 | 0x2025      |        8229 |
|     680 | 0x2026      |        8230 |
|     681 | 0xFFF94F48  |  4294528840 |
|     682 | 0x59D94     |      368020 |
|     683 | 0x0680      |        1664 |
|     684 | 0xFFF9441F  |  4294525983 |
|     685 | 0x5ADEB     |      372203 |
|     686 | 0x0514      |        1300 |
|     687 | 0xFFF94647  |  4294526535 |
|     688 | 0x5A9FE     |      371198 |
|     689 | 0x0555      |        1365 |
|     690 | 0x05D5      |        1493 |
|     691 | 0x2024      |        8228 |
|     692 | 0x0886      |        2182 |
|     693 | 0x2027      |        8231 |
|     694 | 0x2028      |        8232 |
|     695 | 0x0003      |           3 |
|     696 | 0x0008      |           8 |
|     697 | 0x2029      |        8233 |
|     698 | 0x202A      |        8234 |
|     699 | 0x202B      |        8235 |
|     700 | 0x0892      |        2194 |
|     701 | 0xFFF948EA  |  4294527210 |
|     702 | 0x59938     |      366904 |
|     703 | 0x202C      |        8236 |
|     704 | 0x202D      |        8237 |
|     705 | 0xFFF9393A  |  4294523194 |
|     706 | 0x58E0B     |      364043 |
|     707 | 0x0E90      |        3728 |
|     708 | 0x202E      |        8238 |
|     709 | 0x202F      |        8239 |
|     710 | 0x0690      |        1680 |
|     711 | 0x088A      |        2186 |
|     712 | 0x00A0      |         160 |
|     713 | 0x00EA      |         234 |
|     714 | 0x0186      |         390 |
|     715 | 0x00C9      |         201 |

## String References

- **8132**: @@

## Events

### Event 65535

#### Metadata

| Field        | Value   |
|--------------|---------|
| Entrypoint   | 0x0000  |
| Data Size    | 1 bytes |
| Instructions | 1       |

```
      00 01 02 03 04 05 06 07  08 09 0A 0B 0C 0D 0E 0F
      -- -- -- -- -- -- -- --  -- -- -- -- -- -- -- --
0000: 00                                                .               
```

#### Opcodes

```
  0: 0x0000 [0x00] END_REQSTACK()
```

### Event 1

#### Metadata

| Field        | Value       |
|--------------|-------------|
| Entrypoint   | 0x0001      |
| Data Size    | 12932 bytes |
| Instructions | 1401        |

```
      00 01 02 03 04 05 06 07  08 09 0A 0B 0C 0D 0E 0F
      -- -- -- -- -- -- -- --  -- -- -- -- -- -- -- --
0000:    42 1A 6C 50 46 01 38  00 80 4E 00 F0 FF FF 7F   B.lPF.8..N.....
0010: AB 09 27 10 F9 52 05 01  04 27 10 FA 52 05 01 04  ..'..R...'..R...
0020: 27 10 FB 52 05 01 02 27  10 FD 52 05 01 04 27 10  '..R...'..R...'.
0030: 1F 53 05 01 02 27 10 07  53 05 01 04 27 10 08 53  .S...'..S...'..S
0040: 05 01 04 92 01 F9 52 05  01 92 01 FA 52 05 01 92  ......R.....R...
0050: 01 FB 52 05 01 92 01 FD  52 05 01 92 01 07 53 05  ..R.....R.....S.
0060: 01 92 01 08 53 05 01 94  01 F0 FF FF 7F 94 01 F9  ....S...........
0070: 52 05 01 94 01 FA 52 05  01 94 01 FB 52 05 01 94  R.....R.....R...
0080: 01 FD 52 05 01 94 01 07  53 05 01 94 01 08 53 05  ..R.....S.....S.
0090: 01 BA F0 FF FF 7F 01 80  02 80 03 80 04 80 BA F9  ................
00A0: 52 05 01 05 80 06 80 07  80 08 80 BA FA 52 05 01  R............R..
00B0: 09 80 0A 80 03 80 0B 80  BA FB 52 05 01 0C 80 0D  ..........R.....
00C0: 80 0E 80 0F 80 BA FD 52  05 01 10 80 11 80 03 80  .......R........
00D0: 12 80 BA 07 53 05 01 13  80 14 80 03 80 15 80 BA  ....S...........
00E0: 08 53 05 01 16 80 17 80  03 80 18 80 80 F0 FF FF  .S..............
00F0: 7F 80 F9 52 05 01 80 FA  52 05 01 80 FB 52 05 01  ...R....R....R..
0100: 80 FD 52 05 01 80 07 53  05 01 80 08 53 05 01 5B  ..R....S....S..[
0110: 19 80 F9 52 05 01 F9 52  05 01 66 63 30 30 7C 00  ...R...R..fc00|.
0120: F9 52 05 01 45 1A 80 F0  FF FF 7F F0 FF FF 7F 32  .R..E..........2
0130: 36 30 30 03 80 1A 4B 50  1C 1B 80 27 10 F9 52 05  600...KP...'..R.
0140: 01 0C 27 10 F0 FF FF 7F  02 52 1A 80 F0 FF FF 7F  ..'......R......
0150: F0 FF FF 7F 32 36 30 30  45 1A 80 F0 FF FF 7F F0  ....2600E.......
0160: FF FF 7F 32 36 30 31 03  80 4A FD 52 05 01 F9 52  ...2601..J.R...R
0170: 05 01 1C 1C 80 79 00 07  53 05 01 F9 52 05 01 1C  .....y..S...R...
0180: 1D 80 4A 08 53 05 01 F9  52 05 01 52 1A 80 F0 FF  ..J.S...R..R....
0190: FF 7F F0 FF FF 7F 32 36  30 31 45 1A 80 F0 FF FF  ......2601E.....
01A0: 7F F0 FF FF 7F 32 36 30  34 03 80 5B 19 80 F9 52  .....2604..[...R
01B0: 05 01 F9 52 05 01 66 63  30 31 2B F9 52 05 01 1E  ...R..fc01+.R...
01C0: 80 23 5B 19 80 F9 52 05  01 F9 52 05 01 66 63 30  .#[...R...R..fc0
01D0: 30 4A FA 52 05 01 F9 52  05 01 52 1A 80 F0 FF FF  0J.R...R..R.....
01E0: 7F F0 FF FF 7F 32 36 30  34 45 1A 80 F0 FF FF 7F  .....2604E......
01F0: F0 FF FF 7F 32 36 30 32  03 80 4A F9 52 05 01 FA  ....2602..J.R...
0200: 52 05 01 2B FA 52 05 01  1F 80 23 4A F9 52 05 01  R..+.R....#J.R..
0210: FD 52 05 01 5B 20 80 FD  52 05 01 FD 52 05 01 6D  .R..[ ..R...R..m
0220: 73 64 30 52 1A 80 F0 FF  FF 7F F0 FF FF 7F 32 36  sd0R..........26
0230: 30 32 45 1A 80 F0 FF FF  7F F0 FF FF 7F 32 36 30  02E..........260
0240: 33 03 80 2B FD 52 05 01  21 80 23 6F 76 F9 52 05  3..+.R..!.#ov.R.
0250: 01 52 1A 80 F0 FF FF 7F  F0 FF FF 7F 32 36 30 33  .R..........2603
0260: 45 1A 80 F0 FF FF 7F F0  FF FF 7F 32 36 30 35 03  E..........2605.
0270: 80 5B 19 80 F9 52 05 01  F9 52 05 01 66 63 30 31  .[...R...R..fc01
0280: 5B 22 80 F9 52 05 01 F9  52 05 01 68 64 62 30 2B  ["..R...R..hdb0+
0290: F9 52 05 01 23 80 23 52  1A 80 F0 FF FF 7F F0 FF  .R..#.#R........
02A0: FF 7F 32 36 30 35 45 1A  80 F0 FF FF 7F F0 FF FF  ..2605E.........
02B0: 7F 32 36 30 36 03 80 2B  F9 52 05 01 24 80 23 5B  .2606..+.R..$.#[
02C0: 22 80 F9 52 05 01 F9 52  05 01 68 64 62 31 2B F9  "..R...R..hdb1+.
02D0: 52 05 01 25 80 23 5B 19  80 F9 52 05 01 F9 52 05  R..%.#[...R...R.
02E0: 01 66 63 30 30 4A F9 52  05 01 F0 FF FF 7F 52 1A  .fc00J.R......R.
02F0: 80 F0 FF FF 7F F0 FF FF  7F 32 36 30 36 45 1A 80  .........2606E..
0300: F0 FF FF 7F F0 FF FF 7F  32 36 30 37 03 80 79 00  ........2607..y.
0310: F0 FF FF 7F F9 52 05 01  5B 19 80 F9 52 05 01 F9  .....R..[...R...
0320: 52 05 01 66 63 30 31 2B  F9 52 05 01 26 80 23 5B  R..fc01+.R..&.#[
0330: 19 80 F9 52 05 01 F9 52  05 01 66 63 30 30 6E F0  ...R...R..fc00n.
0340: FF FF 7F 27 80 99 F0 FF  FF 7F 99 F0 FF FF 7F 1C  ...'............
0350: 1C 80 52 1A 80 F0 FF FF  7F F0 FF FF 7F 32 36 30  ..R..........260
0360: 37 45 1A 80 F0 FF FF 7F  F0 FF FF 7F 32 36 30 38  7E..........2608
0370: 03 80 7B F0 FF FF 7F 4A  F9 52 05 01 FD 52 05 01  ..{....J.R...R..
0380: 1C 1D 80 5B 20 80 FD 52  05 01 FD 52 05 01 6D 74  ...[ ..R...R..mt
0390: 62 30 2B FD 52 05 01 28  80 23 6F 76 F9 52 05 01  b0+.R..(.#ov.R..
03A0: 52 1A 80 F0 FF FF 7F F0  FF FF 7F 32 36 30 38 45  R..........2608E
03B0: 1A 80 F0 FF FF 7F F0 FF  FF 7F 32 36 30 39 03 80  ..........2609..
03C0: 5B 19 80 F9 52 05 01 F9  52 05 01 66 63 30 31 5B  [...R...R..fc01[
03D0: 29 80 F9 52 05 01 F9 52  05 01 68 64 63 30 2B F9  )..R...R..hdc0+.
03E0: 52 05 01 2A 80 23 7C 01  F9 52 05 01 7B FD 52 05  R..*.#|..R..{.R.
03F0: 01 52 1A 80 F0 FF FF 7F  F0 FF FF 7F 32 36 30 39  .R..........2609
0400: 45 1A 80 F0 FF FF 7F F0  FF FF 7F 32 36 31 30 03  E..........2610.
0410: 80 5B 20 80 FD 52 05 01  FD 52 05 01 6D 74 62 31  .[ ..R...R..mtb1
0420: 1C 2B 80 2B FD 52 05 01  2C 80 23 52 1A 80 F0 FF  .+.+.R..,.#R....
0430: FF 7F F0 FF FF 7F 32 36  31 30 45 1A 80 F0 FF FF  ......2610E.....
0440: 7F F0 FF FF 7F 32 36 31  31 03 80 6B 69 64 6C 30  .....2611..kidl0
0450: F9 52 05 01 5B 19 80 F9  52 05 01 F9 52 05 01 66  .R..[...R...R..f
0460: 30 30 30 29 10 F0 FF FF  7F 10 2B FD 52 05 01 2D  000)......+.R..-
0470: 80 23 7B F9 52 05 01 52  1A 80 F0 FF FF 7F F0 FF  .#{.R..R........
0480: FF 7F 32 36 31 31 45 1A  80 F0 FF FF 7F F0 FF FF  ..2611E.........
0490: 7F 32 36 31 32 03 80 79  00 FD 52 05 01 F9 52 05  .2612..y..R...R.
04A0: 01 81 00 F9 52 05 01 5B  2E 80 F9 52 05 01 F9 52  ....R..[...R...R
04B0: 05 01 75 74 75 30 1C 1C  80 2B F9 52 05 01 2F 80  ..utu0...+.R../.
04C0: 23 52 1A 80 F0 FF FF 7F  F0 FF FF 7F 32 36 31 32  #R..........2612
04D0: 45 1A 80 F0 FF FF 7F F0  FF FF 7F 32 36 31 33 03  E..........2613.
04E0: 80 6E FA 52 05 01 30 80  99 FA 52 05 01 1C 1D 80  .n.R..0...R.....
04F0: 2B FA 52 05 01 31 80 1C  1C 80 7B FD 52 05 01 52  +.R..1....{.R..R
0500: 1A 80 F0 FF FF 7F F0 FF  FF 7F 32 36 31 33 45 1A  ..........2613E.
0510: 80 F0 FF FF 7F F0 FF FF  7F 32 36 31 34 03 80 2B  .........2614..+
0520: FD 52 05 01 32 80 6B 69  64 6C 30 F9 52 05 01 5B  .R..2.kidl0.R..[
0530: 33 80 FD 52 05 01 FD 52  05 01 6F 68 6F 30 1C 1C  3..R...R..oho0..
0540: 80 2B FD 52 05 01 34 80  23 52 1A 80 F0 FF FF 7F  .+.R..4.#R......
0550: F0 FF FF 7F 32 36 31 34  45 1A 80 F0 FF FF 7F F0  ....2614E.......
0560: FF FF 7F 32 36 31 35 03  80 6E FA 52 05 01 35 80  ...2615..n.R..5.
0570: 99 FA 52 05 01 2B FA 52  05 01 36 80 23 5B 2E 80  ..R..+.R..6.#[..
0580: F9 52 05 01 F9 52 05 01  68 64 61 30 52 1A 80 F0  .R...R..hda0R...
0590: FF FF 7F F0 FF FF 7F 32  36 31 35 45 1A 80 F0 FF  .......2615E....
05A0: FF 7F F0 FF FF 7F 32 36  31 36 03 80 4B FD 52 05  ......2616..K.R.
05B0: 01 37 80 2B F9 52 05 01  38 80 23 5D 03 80 39 80  .7.+.R..8.#]..9.
05C0: 27 10 FB 52 05 01 0B 79  00 07 53 05 01 FB 52 05  '..R...y..S...R.
05D0: 01 1C 2B 80 52 1A 80 F0  FF FF 7F F0 FF FF 7F 32  ..+.R..........2
05E0: 36 31 36 45 1A 80 F0 FF  FF 7F F0 FF FF 7F 32 36  616E..........26
05F0: 31 37 03 80 5B 33 80 FD  52 05 01 FD 52 05 01 6F  17..[3..R...R..o
0600: 68 6F 31 79 00 FA 52 05  01 FB 52 05 01 4B FA 52  ho1y..R...R..K.R
0610: 05 01 3A 80 79 00 F0 FF  FF 7F FB 52 05 01 5B 2E  ..:.y......R..[.
0620: 80 F9 52 05 01 F9 52 05  01 68 64 61 31 2B FB 52  ..R...R..hda1+.R
0630: 05 01 3B 80 23 2A 10 FB  52 05 01 52 1A 80 F0 FF  ..;.#*..R..R....
0640: FF 7F F0 FF FF 7F 32 36  31 37 45 1A 80 F0 FF FF  ......2617E.....
0650: 7F F0 FF FF 7F 32 36 31  38 03 80 5B 3C 80 F9 52  .....2618..[<..R
0660: 05 01 F9 52 05 01 74 6C  64 30 79 00 FB 52 05 01  ...R..tld0y..R..
0670: F0 FF FF 7F 1C 2B 80 2B  FB 52 05 01 3D 80 23 52  .....+.+.R..=.#R
0680: 1A 80 F0 FF FF 7F F0 FF  FF 7F 32 36 31 38 45 1A  ..........2618E.
0690: 80 F0 FF FF 7F F0 FF FF  7F 32 36 31 39 03 80 6B  .........2619..k
06A0: 69 64 6C 30 F9 52 05 01  2B FB 52 05 01 3E 80 23  idl0.R..+.R..>.#
06B0: 6E F0 FF FF 7F 3F 80 99  F0 FF FF 7F 5B 22 80 F9  n....?......["..
06C0: 52 05 01 F9 52 05 01 68  64 62 30 52 1A 80 F0 FF  R...R..hdb0R....
06D0: FF 7F F0 FF FF 7F 32 36  31 39 45 1A 80 F0 FF FF  ......2619E.....
06E0: 7F F0 FF FF 7F 32 36 32  30 03 80 2B F9 52 05 01  .....2620..+.R..
06F0: 40 80 23 27 10 FB 52 05  01 0C 1C 2B 80 52 1A 80  @.#'..R....+.R..
0700: F0 FF FF 7F F0 FF FF 7F  32 36 32 30 45 1A 80 F0  ........2620E...
0710: FF FF 7F F0 FF FF 7F 32  36 32 31 03 80 1C 41 80  .......2621...A.
0720: 27 10 07 53 05 01 09 27  10 08 53 05 01 0A 27 10  '..S...'..S...'.
0730: FD 52 05 01 0C 27 10 FA  52 05 01 0B 5B 22 80 F9  .R...'..R...["..
0740: 52 05 01 F9 52 05 01 68  64 62 31 1C 41 80 1A 6C  R...R..hdb1.A..l
0750: 50 1C 2B 80 7B F0 FF FF  7F 7B FA 52 05 01 7B FB  P.+.{....{.R..{.
0760: 52 05 01 7B 07 53 05 01  7A 00 FB 52 05 01 7A 00  R..{.S..z..R..z.
0770: 07 53 05 01 7A 00 08 53  05 01 7A 00 FD 52 05 01  .S..z..S..z..R..
0780: 7A 00 FA 52 05 01 1C 1D  80 27 10 01 53 05 01 04  z..R.....'..S...
0790: 27 10 02 53 05 01 04 27  10 03 53 05 01 04 27 10  '..S...'..S...'.
07A0: 04 53 05 01 04 27 10 05  53 05 01 04 27 10 06 53  .S...'..S...'..S
07B0: 05 01 04 27 10 09 53 05  01 04 27 10 0A 53 05 01  ...'..S...'..S..
07C0: 04 27 10 0B 53 05 01 02  27 10 14 53 05 01 04 27  .'..S...'..S...'
07D0: 10 15 53 05 01 04 92 01  1F 53 05 01 92 01 01 53  ..S......S.....S
07E0: 05 01 92 01 02 53 05 01  92 01 03 53 05 01 92 01  .....S.....S....
07F0: 04 53 05 01 92 01 05 53  05 01 92 01 06 53 05 01  .S.....S.....S..
0800: 92 01 09 53 05 01 92 01  0A 53 05 01 92 01 0B 53  ...S.....S.....S
0810: 05 01 92 01 14 53 05 01  92 01 15 53 05 01 94 01  .....S.....S....
0820: 01 53 05 01 94 01 1F 53  05 01 94 01 02 53 05 01  .S.....S.....S..
0830: 94 01 03 53 05 01 94 01  04 53 05 01 94 01 05 53  ...S.....S.....S
0840: 05 01 94 01 06 53 05 01  94 01 09 53 05 01 94 01  .....S.....S....
0850: 0A 53 05 01 94 01 0B 53  05 01 94 01 14 53 05 01  .S.....S.....S..
0860: 94 01 15 53 05 01 BA F0  FF FF 7F 42 80 43 80 44  ...S.......B.C.D
0870: 80 45 80 BA F9 52 05 01  46 80 47 80 48 80 49 80  .E...R..F.G.H.I.
0880: BA FA 52 05 01 4A 80 4B  80 4C 80 4D 80 BA FB 52  ..R..J.K.L.M...R
0890: 05 01 4E 80 4F 80 50 80  45 80 BA FD 52 05 01 51  ..N.O.P.E...R..Q
08A0: 80 52 80 53 80 54 80 BA  07 53 05 01 55 80 56 80  .R.S.T...S..U.V.
08B0: 50 80 45 80 BA 08 53 05  01 57 80 58 80 59 80 5A  P.E...S..W.X.Y.Z
08C0: 80 BA 01 53 05 01 5B 80  5C 80 50 80 5D 80 BA 02  ...S..[.\.P.]...
08D0: 53 05 01 5E 80 5F 80 60  80 61 80 27 10 03 53 05  S..^._.`.a.'..S.
08E0: 01 09 27 10 04 53 05 01  09 BA 05 53 05 01 62 80  ..'..S.....S..b.
08F0: 63 80 64 80 65 80 BA 06  53 05 01 66 80 67 80 68  c.d.e...S..f.g.h
0900: 80 69 80 BA 09 53 05 01  6A 80 6B 80 50 80 6C 80  .i...S..j.k.P.l.
0910: BA 0A 53 05 01 6D 80 6E  80 50 80 6F 80 BA 14 53  ..S..m.n.P.o...S
0920: 05 01 70 80 71 80 50 80  72 80 BA 15 53 05 01 73  ..p.q.P.r...S..s
0930: 80 74 80 50 80 75 80 80  01 53 05 01 80 02 53 05  .t.P.u...S....S.
0940: 01 80 03 53 05 01 80 04  53 05 01 80 05 53 05 01  ...S....S....S..
0950: 80 06 53 05 01 80 09 53  05 01 80 0A 53 05 01 80  ..S....S....S...
0960: 0B 53 05 01 80 14 53 05  01 80 15 53 05 01 1C 1D  .S....S....S....
0970: 80 27 10 09 53 05 01 0A  27 10 05 53 05 01 09 2C  .'..S...'..S...,
0980: 15 53 05 01 15 53 05 01  64 69 67 31 5B 76 80 02  .S...S..dig1[v..
0990: 53 05 01 02 53 05 01 74  6F 6E 61 5B 76 80 04 53  S...S..tona[v..S
09A0: 05 01 04 53 05 01 74 6F  6E 62 5B 77 80 1F 53 05  ...S..tonb[w..S.
09B0: 01 1F 53 05 01 75 64 65  30 5C 00 78 80 5C 01 78  ..S..ude0\.x.\.x
09C0: 80 9A 48 79 80 23 66 03  80 14 53 05 01 14 53 05  ..Hy.#f...S...S.
09D0: 01 74 6C 6B 30 52 1A 80  F0 FF FF 7F F0 FF FF 7F  .tlk0R..........
09E0: 32 36 32 31 45 1A 80 F0  FF FF 7F F0 FF FF 7F 32  2621E..........2
09F0: 36 32 32 03 80 1A 4B 50  1C 7A 80 27 10 05 53 05  622...KP.z.'..S.
0A00: 01 0A 1C 2B 80 52 1A 80  F0 FF FF 7F F0 FF FF 7F  ...+.R..........
0A10: 32 36 32 32 45 1A 80 F0  FF FF 7F F0 FF FF 7F 32  2622E..........2
0A20: 36 32 33 03 80 1C 1B 80  52 1A 80 F0 FF FF 7F F0  623.....R.......
0A30: FF FF 7F 32 36 32 33 45  1A 80 F0 FF FF 7F F0 FF  ...2623E........
0A40: FF 7F 32 36 32 34 03 80  1C 1B 80 66 03 80 14 53  ..2624.....f...S
0A50: 05 01 14 53 05 01 74 6C  6B 31 66 7B 80 01 53 05  ...S..tlk1f{..S.
0A60: 01 01 53 05 01 74 77 62  30 1C 2B 80 52 1A 80 F0  ..S..twb0.+.R...
0A70: FF FF 7F F0 FF FF 7F 32  36 32 34 45 1A 80 F0 FF  .......2624E....
0A80: FF 7F F0 FF FF 7F 32 36  32 35 03 80 1C 7C 80 79  ......2625...|.y
0A90: 00 14 53 05 01 FB 52 05  01 66 7B 80 01 53 05 01  ..S...R..f{..S..
0AA0: 01 53 05 01 74 77 62 31  27 10 F0 FF FF 7F 03 27  .S..twb1'......'
0AB0: 10 F9 52 05 01 0D 27 10  FA 52 05 01 0C 27 10 FB  ..R...'..R...'..
0AC0: 52 05 01 0D 27 10 FD 52  05 01 0D 27 10 07 53 05  R...'..R...'..S.
0AD0: 01 0A 27 10 08 53 05 01  0B 1C 7A 80 52 1A 80 F0  ..'..S....z.R...
0AE0: FF FF 7F F0 FF FF 7F 32  36 32 35 45 1A 80 F0 FF  .......2625E....
0AF0: FF 7F F0 FF FF 7F 32 36  32 36 03 80 2B FB 52 05  ......2626..+.R.
0B00: 01 7D 80 23 4A 01 53 05  01 FB 52 05 01 52 1A 80  .}.#J.S...R..R..
0B10: F0 FF FF 7F F0 FF FF 7F  32 36 32 36 45 1A 80 F0  ........2626E...
0B20: FF FF 7F F0 FF FF 7F 32  36 32 37 03 80 2B 01 53  .......2627..+.S
0B30: 05 01 7E 80 23 2A 10 FB  52 05 01 27 10 FB 52 05  ..~.#*..R..'..R.
0B40: 01 0E 27 10 01 53 05 01  0A 52 1A 80 F0 FF FF 7F  ..'..S...R......
0B50: F0 FF FF 7F 32 36 32 37  45 1A 80 F0 FF FF 7F F0  ....2627E.......
0B60: FF FF 7F 32 36 32 38 03  80 2B FB 52 05 01 7F 80  ...2628..+.R....
0B70: 23 2B 01 53 05 01 80 80  23 2A 10 01 53 05 01 6E  #+.S....#*..S..n
0B80: 01 53 05 01 81 80 99 01  53 05 01 99 01 53 05 01  .S......S....S..
0B90: 2B 01 53 05 01 82 80 23  52 1A 80 F0 FF FF 7F F0  +.S....#R.......
0BA0: FF FF 7F 32 36 32 38 45  1A 80 F0 FF FF 7F F0 FF  ...2628E........
0BB0: FF 7F 32 36 33 30 03 80  5B 83 80 FB 52 05 01 FB  ..2630..[...R...
0BC0: 52 05 01 6B 69 61 30 2B  FB 52 05 01 84 80 23 1A  R..kia0+.R....#.
0BD0: 6C 50 27 10 09 53 05 01  09 1C 41 80 7A 00 09 53  lP'..S....A.z..S
0BE0: 05 01 5B 76 80 02 53 05  01 02 53 05 01 74 6F 6B  ..[v..S...S..tok
0BF0: 61 5B 76 80 04 53 05 01  04 53 05 01 74 6F 6B 62  a[v..S...S..tokb
0C00: 6B 69 64 6C 30 15 53 05  01 6B 69 64 6C 30 02 53  kidl0.S..kidl0.S
0C10: 05 01 6B 69 64 6C 30 04  53 05 01 27 10 0C 53 05  ..kidl0.S..'..S.
0C20: 01 02 27 10 0D 53 05 01  02 27 10 0E 53 05 01 02  ..'..S...'..S...
0C30: 27 10 0F 53 05 01 02 27  10 10 53 05 01 02 27 10  '..S...'..S...'.
0C40: 11 53 05 01 02 27 10 12  53 05 01 02 27 10 13 53  .S...'..S...'..S
0C50: 05 01 02 92 01 0C 53 05  01 92 01 0D 53 05 01 92  ......S.....S...
0C60: 01 0E 53 05 01 92 01 0F  53 05 01 92 01 10 53 05  ..S.....S.....S.
0C70: 01 92 01 11 53 05 01 92  01 12 53 05 01 92 01 13  ....S.....S.....
0C80: 53 05 01 94 01 0C 53 05  01 94 01 0D 53 05 01 94  S.....S.....S...
0C90: 01 0E 53 05 01 94 01 0F  53 05 01 94 01 10 53 05  ..S.....S.....S.
0CA0: 01 94 01 11 53 05 01 94  01 12 53 05 01 94 01 13  ....S.....S.....
0CB0: 53 05 01 BA F0 FF FF 7F  85 80 86 80 87 80 03 80  S...............
0CC0: BA F9 52 05 01 88 80 89  80 8A 80 8B 80 BA FA 52  ..R............R
0CD0: 05 01 8C 80 8D 80 8E 80  8F 80 BA FB 52 05 01 90  ............R...
0CE0: 80 91 80 8E 80 92 80 BA  FD 52 05 01 93 80 94 80  .........R......
0CF0: 95 80 96 80 29 10 1F 53  05 01 0A BA 02 53 05 01  ....)..S.....S..
0D00: 97 80 98 80 99 80 9A 80  27 10 03 53 05 01 09 BA  ........'..S....
0D10: 04 53 05 01 9B 80 9C 80  8E 80 9D 80 BA 05 53 05  .S............S.
0D20: 01 9E 80 9F 80 A0 80 A1  80 BA 06 53 05 01 A2 80  ...........S....
0D30: A3 80 50 80 A4 80 BA 07  53 05 01 A5 80 A6 80 A7  ..P.....S.......
0D40: 80 A8 80 BA 08 53 05 01  A9 80 AA 80 50 80 AB 80  .....S......P...
0D50: BA 09 53 05 01 AC 80 AD  80 59 80 AE 80 BA 0A 53  ..S......Y.....S
0D60: 05 01 AF 80 B0 80 B1 80  B2 80 27 10 0C 53 05 01  ..........'..S..
0D70: 0A 27 10 0D 53 05 01 0A  27 10 0E 53 05 01 0A 27  .'..S...'..S...'
0D80: 10 0F 53 05 01 09 27 10  10 53 05 01 09 27 10 11  ..S...'..S...'..
0D90: 53 05 01 09 27 10 12 53  05 01 09 27 10 13 53 05  S...'..S...'..S.
0DA0: 01 09 BA 01 53 05 01 B3  80 B4 80 8E 80 B5 80 BA  ....S...........
0DB0: 14 53 05 01 B6 80 B7 80  50 80 B8 80 BA 15 53 05  .S......P.....S.
0DC0: 01 B9 80 BA 80 50 80 BB  80 29 10 14 53 05 01 0B  .....P...)..S...
0DD0: 29 10 15 53 05 01 09 29  10 FD 52 05 01 0A 80 FD  )..S...)..R.....
0DE0: 52 05 01 80 0C 53 05 01  80 0D 53 05 01 80 0E 53  R....S....S....S
0DF0: 05 01 80 0F 53 05 01 80  10 53 05 01 80 11 53 05  ....S....S....S.
0E00: 01 80 12 53 05 01 80 13  53 05 01 80 14 53 05 01  ...S....S....S..
0E10: 80 15 53 05 01 27 10 16  53 05 01 04 27 10 17 53  ..S..'..S...'..S
0E20: 05 01 04 27 10 1A 53 05  01 04 27 10 1B 53 05 01  ...'..S...'..S..
0E30: 04 27 10 1C 53 05 01 04  92 01 16 53 05 01 92 01  .'..S......S....
0E40: 17 53 05 01 92 01 1A 53  05 01 92 01 1B 53 05 01  .S.....S.....S..
0E50: 92 01 1C 53 05 01 94 01  16 53 05 01 94 01 17 53  ...S.....S.....S
0E60: 05 01 94 01 1A 53 05 01  94 01 1B 53 05 01 94 01  .....S.....S....
0E70: 1C 53 05 01 80 16 53 05  01 80 17 53 05 01 80 1A  .S....S....S....
0E80: 53 05 01 80 1B 53 05 01  80 1C 53 05 01 1C 1D 80  S....S....S.....
0E90: BB BC 80 11 53 05 01 11  53 05 01 00 FE FE FE 03  ....S...S.......
0EA0: 80 BB BD 80 03 53 05 01  03 53 05 01 00 FE FE FE  .....S...S......
0EB0: 03 80 4A F0 FF FF 7F FB  52 05 01 4A FA 52 05 01  ..J.....R..J.R..
0EC0: FB 52 05 01 4A FD 52 05  01 FB 52 05 01 48 79 80  .R..J.R...R..Hy.
0ED0: 23 52 1A 80 F0 FF FF 7F  F0 FF FF 7F 32 36 33 30  #R..........2630
0EE0: 45 1A 80 F0 FF FF 7F F0  FF FF 7F 32 36 33 31 03  E..........2631.
0EF0: 80 1A 4B 50 1C 41 80 52  1A 80 F0 FF FF 7F F0 FF  ..KP.A.R........
0F00: FF 7F 32 36 33 31 45 1A  80 F0 FF FF 7F F0 FF FF  ..2631E.........
0F10: 7F 32 36 33 32 03 80 1C  2B 80 4A 05 53 05 01 F9  .2632...+.J.S...
0F20: 52 05 01 1C 7A 80 6E 05  53 05 01 30 80 99 05 53  R...z.n.S..0...S
0F30: 05 01 1C 2B 80 52 1A 80  F0 FF FF 7F F0 FF FF 7F  ...+.R..........
0F40: 32 36 33 32 45 1A 80 F0  FF FF 7F F0 FF FF 7F 32  2632E..........2
0F50: 36 33 33 03 80 1C 41 80  27 10 05 53 05 01 0B 52  633...A.'..S...R
0F60: 1A 80 F0 FF FF 7F F0 FF  FF 7F 32 36 33 33 45 1A  ..........2633E.
0F70: 80 F0 FF FF 7F F0 FF FF  7F 32 36 35 35 03 80 2A  .........2655..*
0F80: 10 05 53 05 01 2B 05 53  05 01 BE 80 23 52 1A 80  ..S..+.S....#R..
0F90: F0 FF FF 7F F0 FF FF 7F  32 36 35 35 45 1A 80 F0  ........2655E...
0FA0: FF FF 7F F0 FF FF 7F 32  36 33 34 03 80 5B BF 80  .......2634..[..
0FB0: F9 52 05 01 F9 52 05 01  68 75 6E 30 03 02 10 C0  .R...R..hun0....
0FC0: 80 27 10 F6 52 05 01 06  7C 00 F9 52 05 01 2B F9  .'..R...|..R..+.
0FD0: 52 05 01 C1 80 23 7C 01  F9 52 05 01 2A 10 F6 52  R....#|..R..*..R
0FE0: 05 01 52 1A 80 F0 FF FF  7F F0 FF FF 7F 32 36 33  ..R..........263
0FF0: 34 45 1A 80 F0 FF FF 7F  F0 FF FF 7F 32 36 33 35  4E..........2635
1000: 03 80 6E 05 53 05 01 81  80 99 05 53 05 01 1C 2B  ..n.S......S...+
1010: 80 2B FB 52 05 01 C2 80  23 52 1A 80 F0 FF FF 7F  .+.R....#R......
1020: F0 FF FF 7F 32 36 33 35  45 1A 80 F0 FF FF 7F F0  ....2635E.......
1030: FF FF 7F 32 36 33 36 03  80 5B 83 80 FB 52 05 01  ...2636..[...R..
1040: FB 52 05 01 6B 69 61 30  2B FB 52 05 01 C3 80 23  .R..kia0+.R....#
1050: 6E F0 FF FF 7F 3F 80 99  F0 FF FF 7F 1C 7C 80 5D  n....?.......|.]
1060: 03 80 C4 80 52 1A 80 F0  FF FF 7F F0 FF FF 7F 32  ....R..........2
1070: 36 33 36 45 1A 80 F0 FF  FF 7F F0 FF FF 7F 32 36  636E..........26
1080: 33 37 03 80 5B C5 80 03  53 05 01 03 53 05 01 6F  37..[...S...S..o
1090: 72 6F 30 1C 1D 80 2B 03  53 05 01 C6 80 23 4A 04  ro0...+.S....#J.
10A0: 53 05 01 03 53 05 01 52  1A 80 F0 FF FF 7F F0 FF  S...S..R........
10B0: FF 7F 32 36 33 37 45 1A  80 F0 FF FF 7F F0 FF FF  ..2637E.........
10C0: 7F 32 36 33 38 03 80 5B  C7 80 03 53 05 01 03 53  .2638..[...S...S
10D0: 05 01 6B 6A 69 6C 79 00  01 53 05 01 03 53 05 01  ..kjily..S...S..
10E0: 1C 1D 80 2B 01 53 05 01  C8 80 23 52 1A 80 F0 FF  ...+.S....#R....
10F0: FF 7F F0 FF FF 7F 32 36  33 38 45 1A 80 F0 FF FF  ......2638E.....
1100: 7F F0 FF FF 7F 32 36 33  39 03 80 27 10 16 53 05  .....2639..'..S.
1110: 01 0C 27 10 1A 53 05 01  15 45 1A 80 F0 FF FF 7F  ..'..S...E......
1120: F0 FF FF 7F 32 61 39 38  03 80 BB C9 80 16 53 05  ....2a98......S.
1130: 01 16 53 05 01 73 30 30  30 03 80 BB C9 80 1A 53  ..S..s000......S
1140: 05 01 1A 53 05 01 73 30  30 31 03 80 5B C7 80 03  ...S..s001..[...
1150: 53 05 01 03 53 05 01 6B  6A 69 30 1C CA 80 2B 03  S...S..kji0...+.
1160: 53 05 01 CB 80 23 BA 09  53 05 01 CC 80 CD 80 8E  S....#..S.......
1170: 80 CE 80 BA 0A 53 05 01  CF 80 D0 80 50 80 D1 80  .....S......P...
1180: BA 05 53 05 01 D2 80 D3  80 D4 80 D5 80 BA FA 52  ..S............R
1190: 05 01 D6 80 D7 80 D8 80  D9 80 BA FD 52 05 01 DA  ............R...
11A0: 80 DB 80 8E 80 DC 80 BA  F9 52 05 01 DD 80 DE 80  .........R......
11B0: 8E 80 DF 80 5B C7 80 09  53 05 01 09 53 05 01 6B  ....[...S...S..k
11C0: 6A 69 6C 5B E0 80 FA 52  05 01 FA 52 05 01 75 65  jil[...R...R..ue
11D0: 30 30 5B E1 80 FD 52 05  01 FD 52 05 01 75 65 30  00[...R...R..ue0
11E0: 30 5B E2 80 05 53 05 01  05 53 05 01 75 65 30 30  0[...S...S..ue00
11F0: 5B 19 80 F9 52 05 01 F9  52 05 01 66 6A 30 30 5B  [...R...R..fj00[
1200: E3 80 F9 52 05 01 F9 52  05 01 62 61 30 30 2C F9  ...R...R..ba00,.
1210: 52 05 01 F9 52 05 01 77  70 6F 66 7B FA 52 05 01  R...R..wpof{.R..
1220: 7B FD 52 05 01 4A 01 53  05 01 16 53 05 01 4A 04  {.R..J.S...S..J.
1230: 53 05 01 16 53 05 01 5C  00 E4 80 5C 01 E4 80 5C  S...S..\...\...\
1240: 02 E4 80 5C 03 E4 80 9A  52 1A 80 F0 FF FF 7F F0  ...\....R.......
1250: FF FF 7F 32 36 33 39 45  1A 80 F0 FF FF 7F F0 FF  ...2639E........
1260: FF 7F 32 36 34 30 03 80  27 10 14 53 05 01 0B 27  ..2640..'..S...'
1270: 10 15 53 05 01 09 1C E5  80 27 10 03 53 05 01 0A  ..S......'..S...
1280: 7C 00 03 53 05 01 5B 76  80 03 53 05 01 03 53 05  |..S..[v..S...S.
1290: 01 74 6F 6E 63 4A 07 53  05 01 16 53 05 01 2B 01  .toncJ.S...S..+.
12A0: 53 05 01 E6 80 23 52 1A  80 F0 FF FF 7F F0 FF FF  S....#R.........
12B0: 7F 32 36 34 30 45 1A 80  F0 FF FF 7F F0 FF FF 7F  .2640E..........
12C0: 32 36 35 36 03 80 1C E7  80 27 10 FB 52 05 01 11  2656.....'..R...
12D0: 52 1A 80 F0 FF FF 7F F0  FF FF 7F 32 36 35 36 45  R..........2656E
12E0: 1A 80 F0 FF FF 7F F0 FF  FF 7F 32 36 34 32 03 80  ..........2642..
12F0: 1C 1C 80 6E 0A 53 05 01  E8 80 99 0A 53 05 01 2B  ...n.S......S..+
1300: FB 52 05 01 E9 80 23 27  10 17 53 05 01 09 27 10  .R....#'..S...'.
1310: 1B 53 05 01 11 45 1A 80  F0 FF FF 7F F0 FF FF 7F  .S...E..........
1320: 32 62 39 38 03 80 BB C9  80 17 53 05 01 17 53 05  2b98......S...S.
1330: 01 73 30 30 30 03 80 BB  C9 80 1B 53 05 01 1B 53  .s000......S...S
1340: 05 01 73 30 30 31 03 80  27 10 14 53 05 01 0D 52  ..s001..'..S...R
1350: 1A 80 F0 FF FF 7F F0 FF  FF 7F 32 36 34 32 45 1A  ..........2642E.
1360: 80 F0 FF FF 7F F0 FF FF  7F 32 36 34 33 03 80 1C  .........2643...
1370: 1C 80 27 10 15 53 05 01  0B 2B 14 53 05 01 EA 80  ..'..S...+.S....
1380: 4A 07 53 05 01 17 53 05  01 1C 7C 80 2B 07 53 05  J.S...S...|.+.S.
1390: 01 EB 80 23 5B C7 80 07  53 05 01 07 53 05 01 6B  ...#[...S...S..k
13A0: 6A 69 6C 5B EC 80 08 53  05 01 08 53 05 01 70 61  jil[...S...S..pa
13B0: 70 32 7B 08 53 05 01 1C  2B 80 52 1A 80 F0 FF FF  p2{.S...+.R.....
13C0: 7F F0 FF FF 7F 32 36 34  33 45 1A 80 F0 FF FF 7F  .....2643E......
13D0: F0 FF FF 7F 32 36 34 34  03 80 1C 2B 80 2B 08 53  ....2644...+.+.S
13E0: 05 01 ED 80 23 52 1A 80  F0 FF FF 7F F0 FF FF 7F  ....#R..........
13F0: 32 36 34 34 45 1A 80 F0  FF FF 7F F0 FF FF 7F 32  2644E..........2
1400: 36 34 35 03 80 5B EC 80  FB 52 05 01 FB 52 05 01  645..[...R...R..
1410: 70 61 70 30 1C 1C 80 4A  07 53 05 01 FB 52 05 01  pap0...J.S...R..
1420: 2C F9 52 05 01 F9 52 05  01 77 70 6F 6E 2B FB 52  ,.R...R..wpon+.R
1430: 05 01 EE 80 23 27 10 11  53 05 01 03 27 10 12 53  ....#'..S...'..S
1440: 05 01 03 27 10 13 53 05  01 03 81 00 F9 52 05 01  ...'..S......R..
1450: 7C 00 F9 52 05 01 5B E3  80 F9 52 05 01 F9 52 05  |..R..[...R...R.
1460: 01 75 6F 64 30 52 1A 80  F0 FF FF 7F F0 FF FF 7F  .uod0R..........
1470: 32 36 34 35 45 1A 80 F0  FF FF 7F F0 FF FF 7F 32  2645E..........2
1480: 36 34 36 03 80 BA 02 53  05 01 EF 80 F0 80 B1 80  646....S........
1490: F1 80 BA 04 53 05 01 F2  80 F3 80 F4 80 F5 80 BA  ....S...........
14A0: 06 53 05 01 F6 80 F7 80  50 80 F8 80 BA 01 53 05  .S......P.....S.
14B0: 01 F9 80 FA 80 44 80 FB  80 2C 02 53 05 01 02 53  .....D...,.S...S
14C0: 05 01 77 70 6F 66 5B FC  80 02 53 05 01 02 53 05  ..wpof[...S...S.
14D0: 01 79 61 72 30 5B C7 80  04 53 05 01 04 53 05 01  .yar0[...S...S..
14E0: 6B 6A 69 6C 5B FD 80 06  53 05 01 06 53 05 01 67  kjil[...S...S..g
14F0: 61 6B 75 5B EC 80 01 53  05 01 01 53 05 01 70 61  aku[...S...S..pa
1500: 70 32 2B F9 52 05 01 FE  80 23 52 1A 80 F0 FF FF  p2+.R....#R.....
1510: 7F F0 FF FF 7F 32 36 34  36 45 1A 80 F0 FF FF 7F  .....2646E......
1520: F0 FF FF 7F 32 36 34 37  03 80 BA 14 53 05 01 FF  ....2647....S...
1530: 80 00 81 44 80 01 81 4E  01 15 53 05 01 45 1A 80  ...D...N..S..E..
1540: F0 FF FF 7F F0 FF FF 7F  32 63 39 38 03 80 27 10  ........2c98..'.
1550: 16 53 05 01 10 27 10 1A  53 05 01 12 BB BC 80 11  .S...'..S.......
1560: 53 05 01 11 53 05 01 73  74 30 31 03 80 1C 41 80  S...S..st01...A.
1570: 52 1A 80 F0 FF FF 7F F0  FF FF 7F 32 36 34 37 45  R..........2647E
1580: 1A 80 F0 FF FF 7F F0 FF  FF 7F 32 36 34 38 03 80  ..........2648..
1590: BA FA 52 05 01 02 81 03  81 B1 80 04 81 BA FD 52  ..R............R
15A0: 05 01 05 81 06 81 50 80  07 81 BA FB 52 05 01 08  ......P.....R...
15B0: 81 09 81 B1 80 0A 81 BA  07 53 05 01 0B 81 0C 81  .........S......
15C0: 50 80 0D 81 5B E3 80 F9  52 05 01 F9 52 05 01 62  P...[...R...R..b
15D0: 61 30 30 5B E2 80 07 53  05 01 07 53 05 01 75 65  a00[...S...S..ue
15E0: 30 30 7B 07 53 05 01 2C  F9 52 05 01 F9 52 05 01  00{.S..,.R...R..
15F0: 77 70 6F 66 BB BC 80 11  53 05 01 11 53 05 01 73  wpof....S...S..s
1600: 74 30 32 03 80 5B 76 80  03 53 05 01 03 53 05 01  t02..[v..S...S..
1610: 74 6F 6B 63 1C 7C 80 BB  BD 80 03 53 05 01 03 53  tokc.|.....S...S
1620: 05 01 6D 61 69 6E 03 80  5B 0E 81 03 53 05 01 03  ..main..[...S...
1630: 53 05 01 6D 6F 65 30 1C  2B 80 52 1A 80 F0 FF FF  S..moe0.+.R.....
1640: 7F F0 FF FF 7F 32 36 34  38 45 1A 80 F0 FF FF 7F  .....2648E......
1650: F0 FF FF 7F 32 36 34 39  03 80 45 1A 80 F0 FF FF  ....2649..E.....
1660: 7F F0 FF FF 7F 61 72 69  30 03 80 1C 7A 80 52 1A  .....ari0...z.R.
1670: 80 F0 FF FF 7F F0 FF FF  7F 32 36 34 39 45 1A 80  .........2649E..
1680: F0 FF FF 7F F0 FF FF 7F  32 36 35 31 03 80 1C 0F  ........2651....
1690: 81 52 1A 80 F0 FF FF 7F  F0 FF FF 7F 32 36 34 39  .R..........2649
16A0: 45 1A 80 F0 FF FF 7F F0  FF FF 7F 32 36 35 32 03  E..........2652.
16B0: 80 6B 69 64 6C 30 11 53  05 01 1C C4 80 52 1A 80  .kidl0.S.....R..
16C0: F0 FF FF 7F F0 FF FF 7F  32 36 35 32 45 1A 80 F0  ........2652E...
16D0: FF FF 7F F0 FF FF 7F 32  36 35 33 03 80 27 10 03  .......2653..'..
16E0: 53 05 01 0B 5B FC 80 03  53 05 01 03 53 05 01 79  S...[...S...S..y
16F0: 61 72 30 6B 69 64 6C 30  12 53 05 01 7C 00 FB 52  ar0kidl0.S..|..R
1700: 05 01 2B FB 52 05 01 10  81 23 7C 01 FB 52 05 01  ..+.R....#|..R..
1710: 52 1A 80 F0 FF FF 7F F0  FF FF 7F 32 36 35 33 45  R..........2653E
1720: 1A 80 F0 FF FF 7F F0 FF  FF 7F 32 36 35 39 03 80  ..........2659..
1730: BB BC 80 13 53 05 01 13  53 05 01 73 74 30 31 03  ....S...S..st01.
1740: 80 1C 41 80 BB BC 80 13  53 05 01 13 53 05 01 73  ..A.....S...S..s
1750: 74 30 32 03 80 1C 7C 80  2B FB 52 05 01 11 81 23  t02...|.+.R....#
1760: 52 1A 80 F0 FF FF 7F F0  FF FF 7F 32 36 35 39 45  R..........2659E
1770: 1A 80 F0 FF FF 7F F0 FF  FF 7F 32 36 36 30 03 80  ..........2660..
1780: 2B 07 53 05 01 12 81 23  5B 13 81 0E 53 05 01 0E  +.S....#[...S...
1790: 53 05 01 72 61 76 30 BB  0F 81 0E 53 05 01 0E 53  S..rav0....S...S
17A0: 05 01 73 74 30 31 03 80  27 10 F6 52 05 01 09 1C  ..st01..'..R....
17B0: 14 81 52 1A 80 F0 FF FF  7F F0 FF FF 7F 32 36 36  ..R..........266
17C0: 30 45 1A 80 F0 FF FF 7F  F0 FF FF 7F 32 36 36 31  0E..........2661
17D0: 03 80 1C 2B 80 5B 13 81  0D 53 05 01 0D 53 05 01  ...+.[...S...S..
17E0: 72 61 76 30 BB 0F 81 0D  53 05 01 0D 53 05 01 73  rav0....S...S..s
17F0: 74 30 31 03 80 27 10 F7  52 05 01 06 1C 1D 80 5B  t01..'..R......[
1800: 13 81 0C 53 05 01 0C 53  05 01 72 61 76 31 BB 0F  ...S...S..rav1..
1810: 81 0C 53 05 01 0C 53 05  01 73 74 30 32 03 80 27  ..S...S..st02..'
1820: 10 F6 52 05 01 08 1C 7C  80 52 1A 80 F0 FF FF 7F  ..R....|.R......
1830: F0 FF FF 7F 32 36 36 31  45 1A 80 F0 FF FF 7F F0  ....2661E.......
1840: FF FF 7F 32 36 36 33 03  80 5B 13 81 10 53 05 01  ...2663..[...S..
1850: 10 53 05 01 72 61 76 30  BB 0F 81 10 53 05 01 10  .S..rav0....S...
1860: 53 05 01 73 74 30 31 03  80 27 10 F7 52 05 01 07  S..st01..'..R...
1870: 1C 15 81 5B 13 81 0F 53  05 01 0F 53 05 01 72 61  ...[...S...S..ra
1880: 76 30 BB 0F 81 0F 53 05  01 0F 53 05 01 73 74 30  v0....S...S..st0
1890: 31 03 80 27 10 F6 52 05  01 14 1C 7C 80 52 1A 80  1..'..R....|.R..
18A0: F0 FF FF 7F F0 FF FF 7F  32 36 36 33 45 1A 80 F0  ........2663E...
18B0: FF FF 7F F0 FF FF 7F 32  36 36 32 03 80 5B 13 81  .......2662..[..
18C0: 0C 53 05 01 0C 53 05 01  72 61 76 33 BB 0F 81 0C  .S...S..rav3....
18D0: 53 05 01 0C 53 05 01 73  74 30 33 03 80 1C C4 80  S...S..st03.....
18E0: 52 1A 80 F0 FF FF 7F F0  FF FF 7F 32 36 36 32 45  R..........2662E
18F0: 1A 80 F0 FF FF 7F F0 FF  FF 7F 32 36 36 34 03 80  ..........2664..
1900: BB C9 80 17 53 05 01 17  53 05 01 6B 6C 30 30 03  ....S...S..kl00.
1910: 80 5B 16 81 0E 53 05 01  0E 53 05 01 65 69 30 30  .[...S...S..ei00
1920: BB 17 81 0E 53 05 01 0E  53 05 01 65 69 30 30 03  ....S...S..ei00.
1930: 80 1C 1C 80 27 10 14 53  05 01 0E 1C 1C 80 52 1A  ....'..S......R.
1940: 80 F0 FF FF 7F F0 FF FF  7F 32 36 36 34 45 1A 80  .........2664E..
1950: F0 FF FF 7F F0 FF FF 7F  32 36 36 35 03 80 1C 18  ........2665....
1960: 81 5B 16 81 0E 53 05 01  0E 53 05 01 73 68 30 30  .[...S...S..sh00
1970: BB 17 81 0E 53 05 01 0E  53 05 01 68 61 74 75 03  ....S...S..hatu.
1980: 80 27 10 17 53 05 01 18  1C 41 80 45 1A 80 F0 FF  .'..S....A.E....
1990: FF 7F F0 FF FF 7F 61 72  69 30 03 80 BB C9 80 17  ......ari0......
19A0: 53 05 01 17 53 05 01 73  30 30 30 03 80 1C 7C 80  S...S..s000...|.
19B0: 27 10 1F 53 05 01 03 BB  19 81 1F 53 05 01 1F 53  '..S.......S...S
19C0: 05 01 00 FE FE FE 03 80  52 1A 80 F0 FF FF 7F F0  ........R.......
19D0: FF FF 7F 32 36 36 35 45  1A 80 F0 FF FF 7F F0 FF  ...2665E........
19E0: FF 7F 32 36 36 36 03 80  27 10 17 53 05 01 09 1C  ..2666..'..S....
19F0: 41 80 5B E3 80 F9 52 05  01 F9 52 05 01 62 61 30  A.[...R...R..ba0
1A00: 31 1C 2B 80 52 1A 80 F0  FF FF 7F F0 FF FF 7F 32  1.+.R..........2
1A10: 36 36 36 45 1A 80 F0 FF  FF 7F F0 FF FF 7F 32 36  666E..........26
1A20: 36 37 03 80 1C C4 80 2B  F9 52 05 01 1A 81 23 BB  67.....+.R....#.
1A30: 19 81 1F 53 05 01 1F 53  05 01 73 74 30 33 03 80  ...S...S..st03..
1A40: 1C C4 80 52 1A 80 F0 FF  FF 7F F0 FF FF 7F 32 36  ...R..........26
1A50: 36 37 45 1A 80 F0 FF FF  7F F0 FF FF 7F 32 36 36  67E..........266
1A60: 39 03 80 1C 7C 80 BB 19  81 1F 53 05 01 1F 53 05  9...|.....S...S.
1A70: 01 73 74 30 32 03 80 1C  C4 80 1A 6C 50 1C 2B 80  .st02......lP.+.
1A80: BA F0 FF FF 7F 1B 81 1C  81 50 80 1D 81 BA F9 52  .........P.....R
1A90: 05 01 1E 81 1F 81 50 80  1D 81 BA FA 52 05 01 20  ......P.....R.. 
1AA0: 81 21 81 50 80 22 81 BA  FD 52 05 01 23 81 24 81  .!.P."...R..#.$.
1AB0: 50 80 25 81 BA FB 52 05  01 26 81 27 81 B1 80 28  P.%...R..&.'...(
1AC0: 81 BA 02 53 05 01 29 81  2A 81 2B 81 2C 81 BA 04  ...S..).*.+.,...
1AD0: 53 05 01 2D 81 2E 81 2F  81 30 81 BA 05 53 05 01  S..-.../.0...S..
1AE0: 31 81 32 81 33 81 34 81  BA 06 53 05 01 35 81 36  1.2.3.4...S..5.6
1AF0: 81 B1 80 37 81 BA 07 53  05 01 38 81 39 81 50 80  ...7...S..8.9.P.
1B00: 1D 81 BA 08 53 05 01 3A  81 3B 81 50 80 B2 80 BA  ....S..:.;.P....
1B10: 09 53 05 01 3C 81 3D 81  3E 81 37 81 BA 0A 53 05  .S..<.=.>.7...S.
1B20: 01 3F 81 40 81 50 80 41  81 29 10 11 53 05 01 0A  .?.@.P.A.)..S...
1B30: 29 10 12 53 05 01 0A 29  10 13 53 05 01 0A BA 0C  )..S...)..S.....
1B40: 53 05 01 42 81 43 81 B1  80 44 81 BA 0D 53 05 01  S..B.C...D...S..
1B50: 45 81 46 81 B1 80 47 81  BA 0E 53 05 01 48 81 49  E.F...G...S..H.I
1B60: 81 B1 80 4A 81 BA 0F 53  05 01 4B 81 4C 81 50 80  ...J...S..K.L.P.
1B70: 4D 81 BA 10 53 05 01 4E  81 4F 81 50 81 51 81 1C  M...S..N.O.P.Q..
1B80: 1D 80 7B F0 FF FF 7F 6B  69 64 6C 30 F9 52 05 01  ..{....kidl0.R..
1B90: 6B 69 64 6C 30 FA 52 05  01 6B 69 64 6C 30 FD 52  kidl0.R..kidl0.R
1BA0: 05 01 6B 69 64 6C 30 0C  53 05 01 6B 69 64 6C 30  ..kidl0.S..kidl0
1BB0: 0E 53 05 01 6B 69 64 6C  30 0D 53 05 01 6B 69 64  .S..kidl0.S..kid
1BC0: 6C 30 0F 53 05 01 6B 69  64 6C 30 10 53 05 01 6B  l0.S..kidl0.S..k
1BD0: 69 64 6C 30 13 53 05 01  6B 69 64 6C 30 04 53 05  idl0.S..kidl0.S.
1BE0: 01 6B 69 64 6C 30 07 53  05 01 81 00 0A 53 05 01  .kidl0.S.....S..
1BF0: 5B C7 80 05 53 05 01 05  53 05 01 6B 6A 69 6C 5B  [...S...S..kjil[
1C00: E2 80 06 53 05 01 06 53  05 01 75 65 30 30 5B FD  ...S...S..ue00[.
1C10: 80 07 53 05 01 07 53 05  01 67 61 6B 75 5B C7 80  ..S...S..gaku[..
1C20: 08 53 05 01 08 53 05 01  6B 6A 69 6C 5B FC 80 0A  .S...S..kjil[...
1C30: 53 05 01 0A 53 05 01 79  61 72 30 5B E0 80 FA 52  S...S..yar0[...R
1C40: 05 01 FA 52 05 01 75 65  30 30 5B E1 80 FD 52 05  ...R..ue00[...R.
1C50: 01 FD 52 05 01 75 65 30  30 5B 52 81 F9 52 05 01  ..R..ue00[R..R..
1C60: F9 52 05 01 73 74 70 6C  27 10 1A 53 05 01 0A 27  .R..stpl'..S...'
1C70: 10 1B 53 05 01 0B 27 10  1C 53 05 01 0E 2C F9 52  ..S...'..S...,.R
1C80: 05 01 F9 52 05 01 77 70  6F 6E BB C9 80 1C 53 05  ...R..wpon....S.
1C90: 01 1C 53 05 01 73 30 30  31 03 80 BB 53 81 04 53  ..S..s001...S..S
1CA0: 05 01 04 53 05 01 00 FE  FE FE 03 80 9F 54 81 F8  ...S.........T..
1CB0: FF FF 7F F8 FF FF 7F 00  FE FE FE 03 80 77 55 81  .............wU.
1CC0: 56 81 48 79 80 23 52 1A  80 F0 FF FF 7F F0 FF FF  V.Hy.#R.........
1CD0: 7F 32 36 36 39 45 1A 80  F0 FF FF 7F F0 FF FF 7F  .2669E..........
1CE0: 32 36 37 30 03 80 1A 4B  50 1C C4 80 52 1A 80 F0  2670...KP...R...
1CF0: FF FF 7F F0 FF FF 7F 32  36 37 30 45 1A 80 F0 FF  .......2670E....
1D00: FF 7F F0 FF FF 7F 32 36  37 31 03 80 27 10 16 53  ......2671..'..S
1D10: 05 01 0D 5B EC 80 FB 52  05 01 FB 52 05 01 70 61  ...[...R...R..pa
1D20: 70 31 03 02 10 57 81 27  10 F6 52 05 01 06 1C 7C  p1...W.'..R....|
1D30: 80 2B FB 52 05 01 58 81  23 2A 10 F6 52 05 01 52  .+.R..X.#*..R..R
1D40: 1A 80 F0 FF FF 7F F0 FF  FF 7F 32 36 37 31 45 1A  ..........2671E.
1D50: 80 F0 FF FF 7F F0 FF FF  7F 32 36 37 33 03 80 2B  .........2673..+
1D60: FB 52 05 01 59 81 23 5B  16 81 0E 53 05 01 0E 53  .R..Y.#[...S...S
1D70: 05 01 73 68 30 30 2C 04  53 05 01 04 53 05 01 77  ..sh00,.S...S..w
1D80: 70 6F 66 5B 5A 81 04 53  05 01 04 53 05 01 6D 6F  pof[Z..S...S..mo
1D90: 65 30 BB 53 81 04 53 05  01 04 53 05 01 6D 61 69  e0.S..S...S..mai
1DA0: 6E 03 80 1C 14 81 52 1A  80 F0 FF FF 7F F0 FF FF  n.....R.........
1DB0: 7F 32 36 37 33 45 1A 80  F0 FF FF 7F F0 FF FF 7F  .2673E..........
1DC0: 32 36 37 34 03 80 1C 2B  80 45 1A 80 F0 FF FF 7F  2674...+.E......
1DD0: F0 FF FF 7F 61 72 69 31  03 80 1C C4 80 27 10 0C  ....ari1.....'..
1DE0: 53 05 01 0B 27 10 0D 53  05 01 0B 27 10 0F 53 05  S...'..S...'..S.
1DF0: 01 0A 27 10 10 53 05 01  0A 52 1A 80 F0 FF FF 7F  ..'..S...R......
1E00: F0 FF FF 7F 32 36 37 34  45 1A 80 F0 FF FF 7F F0  ....2674E.......
1E10: FF FF 7F 32 36 37 36 03  80 27 10 16 53 05 01 10  ...2676..'..S...
1E20: 9F 54 81 F8 FF FF 7F F8  FF FF 7F 73 74 72 30 03  .T.........str0.
1E30: 80 5B 5B 81 F9 52 05 01  F9 52 05 01 6B 6E 66 6C  .[[..R...R..knfl
1E40: 5B 5C 81 FA 52 05 01 FA  52 05 01 61 74 70 6C 1C  [\..R...R..atpl.
1E50: 5D 81 5B EC 80 FB 52 05  01 FB 52 05 01 70 61 70  ].[...R...R..pap
1E60: 32 03 02 10 39 80 27 10  F6 52 05 01 06 1C 1D 80  2...9.'..R......
1E70: 5B 5B 81 F9 52 05 01 F9  52 05 01 6B 6E 66 33 52  [[..R...R..knf3R
1E80: 1A 80 F0 FF FF 7F F0 FF  FF 7F 32 36 37 36 45 1A  ..........2676E.
1E90: 80 F0 FF FF 7F F0 FF FF  7F 32 36 37 37 03 80 27  .........2677..'
1EA0: 10 16 53 05 01 0C 9F 54  81 F8 FF FF 7F F8 FF FF  ..S....T........
1EB0: 7F 6B 69 6C 6C 03 80 BA  04 53 05 01 2D 81 2E 81  .kill....S..-...
1EC0: 2F 81 30 81 5B FC 80 04  53 05 01 04 53 05 01 79  /.0.[...S...S..y
1ED0: 61 72 30 7A 00 0C 53 05  01 7A 00 0D 53 05 01 7A  ar0z..S..z..S..z
1EE0: 00 0F 53 05 01 7A 00 10  53 05 01 6B 69 64 6C 30  ..S..z..S..kidl0
1EF0: 0E 53 05 01 1C 2B 80 66  5E 81 FD 52 05 01 FD 52  .S...+.f^..R...R
1F00: 05 01 69 6E 30 30 BA 08  53 05 01 3A 81 3B 81 50  ..in00..S..:.;.P
1F10: 80 B2 80 BA 09 53 05 01  5F 81 60 81 61 81 62 81  .....S.._.`.a.b.
1F20: BA 05 53 05 01 63 81 64  81 50 80 65 81 BA 06 53  ..S..c.d.P.e...S
1F30: 05 01 66 81 67 81 B1 80  68 81 BA 0C 53 05 01 69  ..f.g...h...S..i
1F40: 81 6A 81 B1 80 6B 81 BA  0D 53 05 01 6C 81 6D 81  .j...k...S..l.m.
1F50: 50 80 6E 81 BA 0F 53 05  01 6F 81 70 81 71 81 72  P.n...S..o.p.q.r
1F60: 81 BA 10 53 05 01 73 81  74 81 75 81 76 81 27 10  ...S..s.t.u.v.'.
1F70: 05 53 05 01 0C 27 10 06  53 05 01 09 27 10 07 53  .S...'..S...'..S
1F80: 05 01 0B 27 10 08 53 05  01 0E 27 10 09 53 05 01  ...'..S...'..S..
1F90: 0B 27 10 0C 53 05 01 0C  27 10 0D 53 05 01 0C 27  .'..S...'..S...'
1FA0: 10 0F 53 05 01 0B 27 10  10 53 05 01 0B 5B 5C 81  ..S...'..S...[\.
1FB0: FA 52 05 01 FA 52 05 01  61 74 70 30 1C 1D 80 2B  .R...R..atp0...+
1FC0: FB 52 05 01 77 81 23 2A  10 F6 52 05 01 55 1A 80  .R..w.#*..R..U..
1FD0: F0 FF FF 7F F0 FF FF 7F  32 36 37 37 29 10 F0 FF  ........2677)...
1FE0: FF 7F 0F 27 10 F0 FF FF  7F 13 02 02 10 14 81 80  ...'............
1FF0: 06 20 45 1A 80 F0 FF FF  7F F0 FF FF 7F 32 36 38  . E..........268
2000: 35 03 80 01 33 20 02 02  10 56 81 80 22 20 45 1A  5...3 ...V.." E.
2010: 80 F0 FF FF 7F F0 FF FF  7F 32 36 38 35 03 80 01  .........2685...
2020: 33 20 45 1A 80 F0 FF FF  7F F0 FF FF 7F 32 36 38  3 E..........268
2030: 34 03 80 1C 1C 80 2B FB  52 05 01 78 81 23 52 1A  4.....+.R..x.#R.
2040: 80 F0 FF FF 7F F0 FF FF  7F 32 36 38 34 52 1A 80  .........2684R..
2050: F0 FF FF 7F F0 FF FF 7F  32 36 38 34 45 1A 80 F0  ........2684E...
2060: FF FF 7F F0 FF FF 7F 32  36 37 39 03 80 1C 79 81  .......2679...y.
2070: 1A BF 51 1C 1D 80 52 1A  80 F0 FF FF 7F F0 FF FF  ..Q...R.........
2080: 7F 32 36 37 39 45 1A 80  F0 FF FF 7F F0 FF FF 7F  .2679E..........
2090: 32 36 38 30 03 80 1A 8D  50 5B 5A 81 04 53 05 01  2680....P[Z..S..
20A0: 04 53 05 01 76 73 64 6D  1C 1B 80 52 1A 80 F0 FF  .S..vsdm...R....
20B0: FF 7F F0 FF FF 7F 32 36  38 30 45 1A 80 F0 FF FF  ......2680E.....
20C0: 7F F0 FF FF 7F 32 36 38  31 03 80 1C 1B 80 52 1A  .....2681.....R.
20D0: 80 F0 FF FF 7F F0 FF FF  7F 32 36 38 31 45 1A 80  .........2681E..
20E0: F0 FF FF 7F F0 FF FF 7F  32 36 38 32 03 80 27 10  ........2682..'.
20F0: 0E 53 05 01 0B 1C 1B 80  52 1A 80 F0 FF FF 7F F0  .S......R.......
2100: FF FF 7F 32 36 38 32 45  1A 80 F0 FF FF 7F F0 FF  ...2682E........
2110: FF 7F 32 36 38 33 03 80  BA F0 FF FF 7F 7A 81 7B  ..2683.......z.{
2120: 81 50 80 1D 81 27 10 0B  53 05 01 03 6B 69 64 6C  .P...'..S...kidl
2130: 30 02 53 05 01 BA 02 53  05 01 7C 81 7D 81 7E 81  0.S....S..|.}.~.
2140: 7F 81 BA 0B 53 05 01 80  81 81 81 82 81 83 81 27  ....S..........'
2150: 10 1A 53 05 01 16 27 10  1B 53 05 01 15 27 10 1C  ..S...'..S...'..
2160: 53 05 01 17 27 10 17 53  05 01 0F 1C 41 80 27 10  S...'..S....A.'.
2170: 02 53 05 01 0B 27 10 0B  53 05 01 0C 1C 1D 80 52  .S...'..S......R
2180: 1A 80 F0 FF FF 7F F0 FF  FF 7F 32 36 38 33 45 1A  ..........2683E.
2190: 80 F0 FF FF 7F F0 FF FF  7F 32 36 38 36 03 80 5B  .........2686..[
21A0: 5A 81 04 53 05 01 04 53  05 01 6B 6B 64 6D 1C 1C  Z..S...S..kkdm..
21B0: 80 2B 02 53 05 01 84 81  23 2A 10 02 53 05 01 52  .+.S....#*..S..R
21C0: 1A 80 F0 FF FF 7F F0 FF  FF 7F 32 36 38 36 45 1A  ..........2686E.
21D0: 80 F0 FF FF 7F F0 FF FF  7F 32 36 38 38 03 80 5B  .........2688..[
21E0: E3 80 F9 52 05 01 F9 52  05 01 62 61 30 30 5B C7  ...R...R..ba00[.
21F0: 80 FB 52 05 01 FB 52 05  01 6B 6A 69 6C BA F9 52  ..R...R..kjil..R
2200: 05 01 1E 81 1F 81 50 80  85 81 BA FA 52 05 01 20  ......P.....R.. 
2210: 81 21 81 50 80 39 80 BA  FB 52 05 01 26 81 27 81  .!.P.9...R..&.'.
2220: B1 80 86 81 2A 10 0B 53  05 01 2B 0B 53 05 01 87  ....*..S..+.S...
2230: 81 23 52 1A 80 F0 FF FF  7F F0 FF FF 7F 32 36 38  .#R..........268
2240: 38 45 1A 80 F0 FF FF 7F  F0 FF FF 7F 32 36 38 39  8E..........2689
2250: 03 80 2B FB 52 05 01 88  81 23 52 1A 80 F0 FF FF  ..+.R....#R.....
2260: 7F F0 FF FF 7F 32 36 38  39 45 1A 80 F0 FF FF 7F  .....2689E......
2270: F0 FF FF 7F 32 36 39 30  03 80 5B C7 80 FB 52 05  ....2690..[...R.
2280: 01 FB 52 05 01 6B 6A 69  30 2B FB 52 05 01 89 81  ..R..kji0+.R....
2290: 23 4A 02 53 05 01 0B 53  05 01 52 1A 80 F0 FF FF  #J.S...S..R.....
22A0: 7F F0 FF FF 7F 32 36 39  30 45 1A 80 F0 FF FF 7F  .....2690E......
22B0: F0 FF FF 7F 32 36 39 31  03 80 6E 0B 53 05 01 8A  ....2691..n.S...
22C0: 81 99 0B 53 05 01 99 0B  53 05 01 1C 1C 80 5B C7  ...S....S.....[.
22D0: 80 FB 52 05 01 FB 52 05  01 6B 6A 69 31 2B 0B 53  ..R...R..kji1+.S
22E0: 05 01 8B 81 23 52 1A 80  F0 FF FF 7F F0 FF FF 7F  ....#R..........
22F0: 32 36 39 31 45 1A 80 F0  FF FF 7F F0 FF FF 7F 32  2691E..........2
2300: 36 39 32 03 80 BA FB 52  05 01 26 81 27 81 B1 80  692....R..&.'...
2310: 8C 81 79 00 0B 53 05 01  FA 52 05 01 2B 0B 53 05  ..y..S...R..+.S.
2320: 01 8D 81 23 52 1A 80 F0  FF FF 7F F0 FF FF 7F 32  ...#R..........2
2330: 36 39 32 45 1A 80 F0 FF  FF 7F F0 FF FF 7F 32 36  692E..........26
2340: 39 33 03 80 27 10 1A 53  05 01 0A 27 10 1B 53 05  93..'..S...'..S.
2350: 01 0B 27 10 1C 53 05 01  0E 27 10 17 53 05 01 09  ..'..S...'..S...
2360: 4E 01 02 53 05 01 2B FD  52 05 01 8E 81 23 52 1A  N..S..+.R....#R.
2370: 80 F0 FF FF 7F F0 FF FF  7F 32 36 39 33 45 1A 80  .........2693E..
2380: F0 FF FF 7F F0 FF FF 7F  32 36 39 34 03 80 BA FA  ........2694....
2390: 52 05 01 20 81 21 81 50  80 8F 81 5B 5C 81 FA 52  R.. .!.P...[\..R
23A0: 05 01 FA 52 05 01 61 74  70 31 4A F9 52 05 01 FA  ...R..atp1J.R...
23B0: 52 05 01 6B 69 64 6C 30  F9 52 05 01 1C 2B 80 2B  R..kidl0.R...+.+
23C0: FA 52 05 01 90 81 23 5B  91 81 FB 52 05 01 FB 52  .R....#[...R...R
23D0: 05 01 61 72 69 31 03 02  10 C4 80 27 10 F6 52 05  ..ari1.....'..R.
23E0: 01 06 1C CA 80 52 1A 80  F0 FF FF 7F F0 FF FF 7F  .....R..........
23F0: 32 36 39 34 45 1A 80 F0  FF FF 7F F0 FF FF 7F 32  2694E..........2
2400: 36 39 35 03 80 2B FB 52  05 01 92 81 23 5B 19 80  695..+.R....#[..
2410: F9 52 05 01 F9 52 05 01  66 62 30 30 5B 3C 80 F9  .R...R..fb00[<..
2420: 52 05 01 F9 52 05 01 74  6C 63 30 2A 10 F6 52 05  R...R..tlc0*..R.
2430: 01 1C 1D 80 52 1A 80 F0  FF FF 7F F0 FF FF 7F 32  ....R..........2
2440: 36 39 35 45 1A 80 F0 FF  FF 7F F0 FF FF 7F 32 36  695E..........26
2450: 39 37 03 80 27 10 1A 53  05 01 16 27 10 1B 53 05  97..'..S...'..S.
2460: 01 15 27 10 1C 53 05 01  17 27 10 17 53 05 01 0F  ..'..S...'..S...
2470: 1C 2B 80 2B FA 52 05 01  93 81 23 5B EC 80 FB 52  .+.+.R....#[...R
2480: 05 01 FB 52 05 01 70 61  70 32 1C 1D 80 27 10 F0  ...R..pap2...'..
2490: FF FF 7F 14 1C 1D 80 52  1A 80 F0 FF FF 7F F0 FF  .......R........
24A0: FF 7F 32 36 39 37 29 10  F0 FF FF 7F 0F 02 02 10  ..2697).........
24B0: 14 81 80 C9 24 45 1A 80  F0 FF FF 7F F0 FF FF 7F  ....$E..........
24C0: 32 36 39 39 03 80 01 F6  24 02 02 10 56 81 80 E5  2699....$...V...
24D0: 24 45 1A 80 F0 FF FF 7F  F0 FF FF 7F 32 36 39 39  $E..........2699
24E0: 03 80 01 F6 24 45 1A 80  F0 FF FF 7F F0 FF FF 7F  ....$E..........
24F0: 32 36 39 38 03 80 1C 7C  80 4A F0 FF FF 7F FB 52  2698...|.J.....R
2500: 05 01 BA 0B 53 05 01 94  81 95 81 50 80 96 81 BA  ....S......P....
2510: F9 52 05 01 97 81 98 81  50 80 99 81 BA FA 52 05  .R......P.....R.
2520: 01 20 81 21 81 50 80 22  81 BA FB 52 05 01 26 81  . .!.P."...R..&.
2530: 27 81 B1 80 28 81 6B 69  64 6C 30 F9 52 05 01 6B  '...(.kidl0.R..k
2540: 69 64 6C 30 FA 52 05 01  1C 1C 80 4A 02 53 05 01  idl0.R.....J.S..
2550: 0B 53 05 01 2B FB 52 05  01 9A 81 23 6E F0 FF FF  .S..+.R....#n...
2560: 7F 27 80 99 F0 FF FF 7F  99 F0 FF FF 7F 1C 7C 80  .'............|.
2570: 53 FB 52 05 01 FB 52 05  01 70 61 70 32 52 1A 80  S.R...R..pap2R..
2580: F0 FF FF 7F F0 FF FF 7F  32 36 39 38 52 1A 80 F0  ........2698R...
2590: FF FF 7F F0 FF FF 7F 32  36 39 39 45 1A 80 F0 FF  .......2699E....
25A0: FF 7F F0 FF FF 7F 62 79  65 30 03 80 27 10 17 53  ......bye0..'..S
25B0: 05 01 09 27 10 F0 FF FF  7F 07 27 10 0B 53 05 01  ...'......'..S..
25C0: 0D 27 10 F9 52 05 01 12  1C C4 80 52 1A 80 F0 FF  .'..R......R....
25D0: FF 7F F0 FF FF 7F 62 79  65 30 45 1A 80 F0 FF FF  ......bye0E.....
25E0: 7F F0 FF FF 7F 30 70 30  30 03 80 27 10 16 53 05  .....0p00..'..S.
25F0: 01 10 27 10 1B 53 05 01  0B 1C 1B 80 81 00 FA 52  ..'..S.........R
2600: 05 01 7C 00 FA 52 05 01  5B 9B 81 FA 52 05 01 FA  ..|..R..[...R...
2610: 52 05 01 6E 61 67 30 52  1A 80 F0 FF FF 7F F0 FF  R..nag0R........
2620: FF 7F 30 70 30 30 45 1A  80 F0 FF FF 7F F0 FF FF  ..0p00E.........
2630: 7F 62 79 65 31 03 80 27  10 16 53 05 01 0C 27 10  .bye1..'..S...'.
2640: 1A 53 05 01 0A 27 10 1C  53 05 01 0E 1C 1B 80 2B  .S...'..S......+
2650: FA 52 05 01 9C 81 1C 41  80 1A 6C 50 1C 2B 80 BB  .R.....A..lP.+..
2660: 53 81 04 53 05 01 04 53  05 01 6B 69 6C 61 03 80  S..S...S..kila..
2670: 4E 01 F0 FF FF 7F 4E 01  FA 52 05 01 4E 01 F9 52  N.....N..R..N..R
2680: 05 01 4E 01 FE 52 05 01  4E 01 01 53 05 01 4E 00  ..N..R..N..S..N.
2690: 02 53 05 01 BA 02 53 05  01 9D 81 9E 81 9F 81 A0  .S....S.........
26A0: 81 29 10 04 53 05 01 0A  BA 05 53 05 01 A1 81 A2  .)..S.....S.....
26B0: 81 50 80 A3 81 BA 06 53  05 01 A4 81 A5 81 50 80  .P.....S......P.
26C0: A6 81 BA 07 53 05 01 A7  81 A8 81 A9 81 AA 81 BA  ....S...........
26D0: 08 53 05 01 AB 81 AC 81  50 80 AD 81 BA 09 53 05  .S......P.....S.
26E0: 01 AE 81 AF 81 8E 80 B0  81 BA 0C 53 05 01 B1 81  ...........S....
26F0: B2 81 9F 81 B3 81 BA 0D  53 05 01 B4 81 B5 81 B6  ........S.......
2700: 81 B7 81 BA 0F 53 05 01  B8 81 B9 81 8E 80 BA 81  .....S..........
2710: BA 10 53 05 01 BB 81 BC  81 BD 81 BE 81 BA 0E 53  ..S............S
2720: 05 01 BF 81 C0 81 50 80  39 80 BA 03 53 05 01 BF  ......P.9...S...
2730: 81 C0 81 50 80 39 80 27  10 11 53 05 01 0B 27 10  ...P.9.'..S...'.
2740: 12 53 05 01 0B 27 10 13  53 05 01 0B 2C 02 53 05  .S...'..S...,.S.
2750: 01 02 53 05 01 77 70 6F  66 2C 03 53 05 01 03 53  ..S..wpof,.S...S
2760: 05 01 77 70 6F 66 2C 04  53 05 01 04 53 05 01 77  ..wpof,.S...S..w
2770: 70 6F 66 1C 1D 80 6B 69  64 6C 30 02 53 05 01 6B  pof...kidl0.S..k
2780: 69 64 6C 30 03 53 05 01  6B 69 64 6C 30 04 53 05  idl0.S..kidl0.S.
2790: 01 7B 02 53 05 01 7B 04  53 05 01 27 10 1B 53 05  .{.S..{.S..'..S.
27A0: 01 12 27 10 1C 53 05 01  11 5B C1 81 0E 53 05 01  ..'..S...[...S..
27B0: 0E 53 05 01 6B 62 69 30  5B EC 80 03 53 05 01 03  .S..kbi0[...S...
27C0: 53 05 01 6B 62 69 30 1C  1D 80 48 79 80 23 52 1A  S..kbi0...Hy.#R.
27D0: 80 F0 FF FF 7F F0 FF FF  7F 62 79 65 31 45 1A 80  .........bye1E..
27E0: F0 FF FF 7F F0 FF FF 7F  30 64 30 30 03 80 1C 15  ........0d00....
27F0: 81 27 10 02 53 05 01 0A  27 10 04 53 05 01 0B 1A  .'..S...'..S....
2800: 4B 50 1C 1B 80 52 1A 80  F0 FF FF 7F F0 FF FF 7F  KP...R..........
2810: 30 64 30 30 45 1A 80 F0  FF FF 7F F0 FF FF 7F 30  0d00E..........0
2820: 64 30 31 03 80 27 10 16  53 05 01 10 1C C4 80 2A  d01..'..S......*
2830: 10 02 53 05 01 27 10 04  53 05 01 0C 5B FC 80 04  ..S..'..S...[...
2840: 53 05 01 04 53 05 01 79  61 72 30 5B 5A 81 02 53  S...S..yar0[Z..S
2850: 05 01 02 53 05 01 6D 6F  65 30 BB 53 81 02 53 05  ...S..moe0.S..S.
2860: 01 02 53 05 01 6D 61 69  6E 03 80 1C 15 81 52 1A  ..S..main.....R.
2870: 80 F0 FF FF 7F F0 FF FF  7F 30 64 30 31 45 1A 80  .........0d01E..
2880: F0 FF FF 7F F0 FF FF 7F  30 64 30 33 03 80 1C C2  ........0d03....
2890: 81 45 1A 80 F0 FF FF 7F  F0 FF FF 7F 61 72 69 31  .E..........ari1
28A0: 03 80 1C 79 81 52 1A 80  F0 FF FF 7F F0 FF FF 7F  ...y.R..........
28B0: 30 64 30 33 45 1A 80 F0  FF FF 7F F0 FF FF 7F 30  0d03E..........0
28C0: 64 30 34 03 80 1C E5 80  52 1A 80 F0 FF FF 7F F0  d04.....R.......
28D0: FF FF 7F 30 64 30 34 45  1A 80 F0 FF FF 7F F0 FF  ...0d04E........
28E0: FF 7F 30 64 30 32 03 80  27 10 1A 53 05 01 1A 1C  ..0d02..'..S....
28F0: 2B 80 5B C1 81 0E 53 05  01 0E 53 05 01 6B 62 69  +.[...S...S..kbi
2900: 31 5B EC 80 03 53 05 01  03 53 05 01 6B 62 69 31  1[...S...S..kbi1
2910: 1C C4 80 52 1A 80 F0 FF  FF 7F F0 FF FF 7F 30 64  ...R..........0d
2920: 30 32 45 1A 80 F0 FF FF  7F F0 FF FF 7F 30 64 30  02E..........0d0
2930: 35 03 80 27 10 1A 53 05  01 0A 27 10 1B 53 05 01  5..'..S...'..S..
2940: 0E 27 10 16 53 05 01 19  5B 5A 81 04 53 05 01 04  .'..S...[Z..S...
2950: 53 05 01 76 73 64 6D 1C  2B 80 BB BC 80 11 53 05  S..vsdm.+.....S.
2960: 01 11 53 05 01 73 74 30  31 03 80 1C 7A 80 BB BC  ..S..st01...z...
2970: 80 11 53 05 01 11 53 05  01 73 74 30 32 03 80 52  ..S...S..st02..R
2980: 1A 80 F0 FF FF 7F F0 FF  FF 7F 30 64 30 35 45 1A  ..........0d05E.
2990: 80 F0 FF FF 7F F0 FF FF  7F 30 64 30 36 03 80 1C  .........0d06...
29A0: 7C 80 2C 05 53 05 01 05  53 05 01 64 65 61 64 1C  |.,.S...S..dead.
29B0: 2B 80 BB BC 80 12 53 05  01 12 53 05 01 73 74 30  +.....S...S..st0
29C0: 31 03 80 2C 07 53 05 01  07 53 05 01 64 65 61 64  1..,.S...S..dead
29D0: 1C 79 81 2C 0D 53 05 01  0D 53 05 01 64 65 61 64  .y.,.S...S..dead
29E0: 1C 2B 80 BB BC 80 12 53  05 01 12 53 05 01 73 74  .+.....S...S..st
29F0: 30 32 03 80 1C 2B 80 1A  6C 50 1C 2B 80 5B 5A 81  02...+..lP.+.[Z.
2A00: 04 53 05 01 04 53 05 01  6B 6B 64 6D 1C 7A 80 4E  .S...S..kkdm.z.N
2A10: 00 F0 FF FF 7F 4E 00 0B  53 05 01 4E 00 F9 52 05  .....N..S..N..R.
2A20: 01 4E 00 FA 52 05 01 BA  F0 FF FF 7F C3 81 C4 81  .N..R...........
2A30: C5 81 C6 81 BA 0B 53 05  01 C7 81 C8 81 C9 81 CA  ......S.........
2A40: 81 BA F9 52 05 01 CB 81  CC 81 CD 81 CE 81 BA FA  ...R............
2A50: 52 05 01 CF 81 D0 81 D1  81 D2 81 1C 1D 80 6B 69  R.............ki
2A60: 64 6C 30 FA 52 05 01 27  10 F0 FF FF 7F 08 27 10  dl0.R..'......'.
2A70: 0B 53 05 01 0E 27 10 F9  52 05 01 13 27 10 FA 52  .S...'..R...'..R
2A80: 05 01 11 52 1A 80 F0 FF  FF 7F F0 FF FF 7F 30 64  ...R..........0d
2A90: 30 36 45 1A 80 F0 FF FF  7F F0 FF FF 7F 30 64 30  06E..........0d0
2AA0: 37 03 80 1C 15 81 1A 4B  50 1C E5 80 52 1A 80 F0  7......KP...R...
2AB0: FF FF 7F F0 FF FF 7F 30  64 30 37 45 1A 80 F0 FF  .......0d07E....
2AC0: FF 7F F0 FF FF 7F 30 64  30 38 03 80 5D 03 80 39  ......0d08..]..9
2AD0: 80 1C 1B 80 1A 6C 50 1C  7C 80 BB 53 81 02 53 05  .....lP.|..S..S.
2AE0: 01 02 53 05 01 6B 69 6C  61 03 80 4E 01 F0 FF FF  ..S..kila..N....
2AF0: 7F 4E 01 F9 52 05 01 4E  01 FA 52 05 01 4E 01 0B  .N..R..N..R..N..
2B00: 53 05 01 4E 01 0C 53 05  01 4E 01 0E 53 05 01 4E  S..N..S..N..S..N
2B10: 01 11 53 05 01 4E 01 06  53 05 01 4E 01 09 53 05  ..S..N..S..N..S.
2B20: 01 2C 08 53 05 01 08 53  05 01 63 6F 72 70 2C 0F  .,.S...S..corp,.
2B30: 53 05 01 0F 53 05 01 63  6F 72 70 2C 12 53 05 01  S...S..corp,.S..
2B40: 12 53 05 01 63 6F 72 70  5B D3 81 02 53 05 01 02  .S..corp[...S...
2B50: 53 05 01 79 61 72 30 4E  00 01 53 05 01 6C 01 53  S..yar0N..S..l.S
2B60: 05 01 03 80 5E 81 27 10  FC 52 05 01 02 92 01 FC  ....^.'..R......
2B70: 52 05 01 94 01 FC 52 05  01 BA FB 52 05 01 3F 81  R.....R....R..?.
2B80: 40 81 50 80 1D 81 BA FC  52 05 01 D4 81 D5 81 50  @.P.....R......P
2B90: 80 8A 80 BA FD 52 05 01  D6 81 D7 81 50 80 D8 81  .....R......P...
2BA0: BA 01 53 05 01 D9 81 DA  81 DB 81 DC 81 BA 02 53  ..S............S
2BB0: 05 01 DD 81 DE 81 50 80  DF 81 BA 03 53 05 01 E0  ......P.....S...
2BC0: 81 E1 81 50 80 E2 81 BA  0A 53 05 01 E3 81 E4 81  ...P.....S......
2BD0: B1 80 1D 81 29 10 12 53  05 01 0C BA 13 53 05 01  ....)..S.....S..
2BE0: D4 81 D5 81 50 80 8A 80  BA 10 53 05 01 E5 81 E6  ....P.....S.....
2BF0: 81 50 80 03 80 80 FC 52  05 01 1C 1D 80 4A 10 53  .P.....R.....J.S
2C00: 05 01 FD 52 05 01 6B 69  64 6C 30 FB 52 05 01 7C  ...R..kidl0.R..|
2C10: 00 03 53 05 01 BB E7 81  13 53 05 01 13 53 05 01  ..S......S...S..
2C20: 00 FE FE FE 03 80 2C 03  53 05 01 03 53 05 01 77  ......,.S...S..w
2C30: 70 6F 6E 81 00 0A 53 05  01 5B E2 80 03 53 05 01  pon...S..[...S..
2C40: 03 53 05 01 69 79 61 30  5B FC 80 0A 53 05 01 0A  .S..iya0[...S...
2C50: 53 05 01 79 61 72 30 48  79 80 23 52 1A 80 F0 FF  S..yar0Hy.#R....
2C60: FF 7F F0 FF FF 7F 30 64  30 38 45 1A 80 F0 FF FF  ......0d08E.....
2C70: 7F F0 FF FF 7F 30 73 30  30 03 80 1A 4B 50 1C 1B  .....0s00...KP..
2C80: 80 52 1A 80 F0 FF FF 7F  F0 FF FF 7F 30 73 30 30  .R..........0s00
2C90: 45 1A 80 F0 FF FF 7F F0  FF FF 7F 30 73 30 31 03  E..........0s01.
2CA0: 80 1C 1B 80 5C 00 E8 81  5C 01 E8 81 5C 02 E8 81  ....\...\...\...
2CB0: 5C 03 E8 81 9A 2B F6 52  05 01 EA 80 1C 7C 80 52  \....+.R.....|.R
2CC0: 1A 80 F0 FF FF 7F F0 FF  FF 7F 30 73 30 31 45 1A  ..........0s01E.
2CD0: 80 F0 FF FF 7F F0 FF FF  7F 6C 73 30 30 03 80 1C  .........ls00...
2CE0: 7C 80 52 1A 80 F0 FF FF  7F F0 FF FF 7F 6C 73 30  |.R..........ls0
2CF0: 30 45 1A 80 F0 FF FF 7F  F0 FF FF 7F 6C 73 30 31  0E..........ls01
2D00: 03 80 1C 2B 80 5B E9 81  13 53 05 01 13 53 05 01  ...+.[...S...S..
2D10: 6D 67 69 30 BB E7 81 13  53 05 01 13 53 05 01 73  mgi0....S...S..s
2D20: 74 30 31 03 80 1C 7C 80  52 1A 80 F0 FF FF 7F F0  t01...|.R.......
2D30: FF FF 7F 6C 73 30 31 45  1A 80 F0 FF FF 7F F0 FF  ...ls01E........
2D40: FF 7F 6C 73 30 32 03 80  1C 41 80 5B 91 81 FB 52  ..ls02...A.[...R
2D50: 05 01 FB 52 05 01 61 72  69 30 1C 15 81 52 1A 80  ...R..ari0...R..
2D60: F0 FF FF 7F F0 FF FF 7F  6C 73 30 32 45 1A 80 F0  ........ls02E...
2D70: FF FF 7F F0 FF FF 7F 6C  73 30 33 03 80 1C 7A 80  .......ls03...z.
2D80: 52 1A 80 F0 FF FF 7F F0  FF FF 7F 6C 73 30 33 45  R..........ls03E
2D90: 1A 80 F0 FF FF 7F F0 FF  FF 7F 6C 73 30 34 03 80  ..........ls04..
2DA0: 27 10 F6 52 05 01 10 5B  91 81 FC 52 05 01 FC 52  '..R...[...R...R
2DB0: 05 01 61 72 69 32 5B E9  81 13 53 05 01 13 53 05  ..ari2[...S...S.
2DC0: 01 61 72 69 30 BB E7 81  13 53 05 01 13 53 05 01  .ari0....S...S..
2DD0: 73 74 30 32 03 80 1C C2  81 45 1A 80 13 53 05 01  st02.....E...S..
2DE0: 13 53 05 01 61 72 69 32  03 80 1C EA 81 52 1A 80  .S..ari2.....R..
2DF0: F0 FF FF 7F F0 FF FF 7F  6C 73 30 34 45 1A 80 F0  ........ls04E...
2E00: FF FF 7F F0 FF FF 7F 6C  73 30 36 03 80 5B E2 80  .......ls06..[..
2E10: 03 53 05 01 03 53 05 01  69 79 61 31 1C 1B 80 2C  .S...S..iya1...,
2E20: 10 53 05 01 10 53 05 01  64 65 61 64 52 1A 80 F0  .S...S..deadR...
2E30: FF FF 7F F0 FF FF 7F 6C  73 30 36 45 1A 80 F0 FF  .......ls06E....
2E40: FF 7F F0 FF FF 7F 6C 73  30 37 03 80 1C CA 80 5B  ......ls07.....[
2E50: 91 81 FB 52 05 01 FB 52  05 01 61 72 69 33 1C 2B  ...R...R..ari3.+
2E60: 80 7B FD 52 05 01 66 5E  81 FD 52 05 01 FD 52 05  .{.R..f^..R...R.
2E70: 01 6F 75 74 30 27 10 01  53 05 01 0B 1C CA 80 52  .out0'..S......R
2E80: 1A 80 F0 FF FF 7F F0 FF  FF 7F 6C 73 30 37 45 1A  ..........ls07E.
2E90: 80 F0 FF FF 7F F0 FF FF  7F 6C 73 30 38 03 80 27  .........ls08..'
2EA0: 10 F6 52 05 01 13 1C 2B  80 2B 01 53 05 01 EB 81  ..R....+.+.S....
2EB0: 5B 91 81 FB 52 05 01 FB  52 05 01 61 72 69 31 1C  [...R...R..ari1.
2EC0: 2B 80 4A FD 52 05 01 01  53 05 01 1C 1D 80 52 1A  +.J.R...S.....R.
2ED0: 80 F0 FF FF 7F F0 FF FF  7F 6C 73 30 38 45 1A 80  .........ls08E..
2EE0: F0 FF FF 7F F0 FF FF 7F  6C 73 30 39 03 80 27 10  ........ls09..'.
2EF0: 17 53 05 01 0C 1C 1C 80  2B FB 52 05 01 EC 81 23  .S......+.R....#
2F00: 2A 10 01 53 05 01 52 1A  80 F0 FF FF 7F F0 FF FF  *..S..R.........
2F10: 7F 6C 73 30 39 45 1A 80  F0 FF FF 7F F0 FF FF 7F  .ls09E..........
2F20: 6C 73 31 30 03 80 5B 83  80 01 53 05 01 01 53 05  ls10..[...S...S.
2F30: 01 6B 69 61 30 2B 01 53  05 01 ED 81 23 5D 03 80  .kia0+.S....#]..
2F40: C4 80 1A 6C 50 1C 41 80  4E 00 06 53 05 01 4E 00  ...lP.A.N..S..N.
2F50: 09 53 05 01 BA FB 52 05  01 3F 81 40 81 50 80 41  .S....R..?.@.P.A
2F60: 81 BA 01 53 05 01 3F 81  40 81 50 80 41 81 BA FD  ...S..?.@.P.A...
2F70: 52 05 01 EE 81 EF 81 B1  80 F0 81 BA 03 53 05 01  R............S..
2F80: F1 81 F2 81 B1 80 8A 80  BA 06 53 05 01 F3 81 F4  ..........S.....
2F90: 81 8E 80 F5 81 BA 09 53  05 01 F6 81 F7 81 F8 81  .......S........
2FA0: F9 81 29 10 FB 52 05 01  12 80 FB 52 05 01 1C 1D  ..)..R.....R....
2FB0: 80 5B FA 81 03 53 05 01  03 53 05 01 64 67 65 30  .[...S...S..dge0
2FC0: 5B C7 80 06 53 05 01 06  53 05 01 66 73 68 6F 5B  [...S...S..fsho[
2FD0: E2 80 09 53 05 01 09 53  05 01 75 65 30 30 5B FC  ...S...S..ue00[.
2FE0: 80 0A 53 05 01 0A 53 05  01 79 61 72 32 5B FC 80  ..S...S..yar2[..
2FF0: 01 53 05 01 01 53 05 01  74 61 69 30 5B FC 80 FB  .S...S..tai0[...
3000: 52 05 01 FB 52 05 01 70  61 70 30 27 10 16 53 05  R...R..pap0'..S.
3010: 01 09 48 79 80 23 52 1A  80 F0 FF FF 7F F0 FF FF  ..Hy.#R.........
3020: 7F 6C 73 31 30 45 1A 80  F0 FF FF 7F F0 FF FF 7F  .ls10E..........
3030: 6C 73 31 31 03 80 1C 15  81 1A 4B 50 1C 1B 80 52  ls11......KP...R
3040: 1A 80 F0 FF FF 7F F0 FF  FF 7F 6C 73 31 31 45 1A  ..........ls11E.
3050: 80 F0 FF FF 7F F0 FF FF  7F 6C 73 31 32 03 80 1C  .........ls12...
3060: 1B 80 52 1A 80 F0 FF FF  7F F0 FF FF 7F 6C 73 31  ..R..........ls1
3070: 32 45 1A 80 F0 FF FF 7F  F0 FF FF 7F 6C 73 31 33  2E..........ls13
3080: 03 80 27 10 16 53 05 01  19 2B 01 53 05 01 FB 81  ..'..S...+.S....
3090: 23 66 FC 81 FD 52 05 01  FD 52 05 01 74 77 61 30  #f...R...R..twa0
30A0: 2B FD 52 05 01 FD 81 23  52 1A 80 F0 FF FF 7F F0  +.R....#R.......
30B0: FF FF 7F 6C 73 31 33 45  1A 80 F0 FF FF 7F F0 FF  ...ls13E........
30C0: FF 7F 6C 73 31 34 03 80  66 FC 81 FD 52 05 01 FD  ..ls14..f...R...
30D0: 52 05 01 74 77 61 31 1C  2B 80 2B FB 52 05 01 FE  R..twa1.+.+.R...
30E0: 81 23 52 1A 80 F0 FF FF  7F F0 FF FF 7F 6C 73 31  .#R..........ls1
30F0: 34 45 1A 80 F0 FF FF 7F  F0 FF FF 7F 6C 73 31 35  4E..........ls15
3100: 03 80 27 10 16 53 05 01  09 5D 03 80 39 80 1C 7C  ..'..S...]..9..|
3110: 80 2B 01 53 05 01 FF 81  23 5C 00 E4 80 5C 01 E4  .+.S....#\...\..
3120: 80 5C 02 E4 80 5C 03 E4  80 9A 52 1A 80 F0 FF FF  .\...\....R.....
3130: 7F F0 FF FF 7F 6C 73 31  35 45 1A 80 F0 FF FF 7F  .....ls15E......
3140: F0 FF FF 7F 6C 73 39 39  03 80 5B FC 80 01 53 05  ....ls99..[...S.
3150: 01 01 53 05 01 74 61 69  31 5B FC 80 FB 52 05 01  ..S..tai1[...R..
3160: FB 52 05 01 70 61 70 31  1C 1C 80 2B FB 52 05 01  .R..pap1...+.R..
3170: 00 82 1C 7C 80 79 00 FD  52 05 01 FB 52 05 01 4B  ...|.y..R...R..K
3180: FD 52 05 01 01 82 1C 41  80 1A 6C 50 5D 03 80 41  .R.....A..lP]..A
3190: 80 1C 1C 80 45 1A 80 F0  FF FF 7F F0 FF FF 7F 6B  ....E..........k
31A0: 61 39 38 03 80 45 1A 80  F0 FF FF 7F F0 FF FF 7F  a98..E..........
31B0: 6B 62 39 38 03 80 45 1A  80 F0 FF FF 7F F0 FF FF  kb98..E.........
31C0: 7F 6B 63 39 38 03 80 BB  C9 80 16 53 05 01 16 53  .kc98......S...S
31D0: 05 01 6B 6C 30 30 03 80  BB C9 80 17 53 05 01 17  ..kl00......S...
31E0: 53 05 01 6B 6C 30 30 03  80 BB C9 80 1A 53 05 01  S..kl00......S..
31F0: 1A 53 05 01 6B 6C 30 31  03 80 BB C9 80 1B 53 05  .S..kl01......S.
3200: 01 1B 53 05 01 6B 6C 30  31 03 80 BB C9 80 1C 53  ..S..kl01......S
3210: 05 01 1C 53 05 01 6B 6C  30 31 03 80 29 10 FB 52  ...S..kl01..)..R
3220: 05 01 13 29 10 F9 52 05  01 0B 29 10 FD 52 05 01  ...)..R...)..R..
3230: 0B 80 FB 52 05 01 80 F9  52 05 01 80 FD 52 05 01  ...R....R....R..
3240: 1C 2B 80 AB 11 03 80 1C  7C 80 52 1A 80 F0 FF FF  .+......|.R.....
3250: 7F F0 FF FF 7F 6C 73 39  39 45 1A 80 F0 FF FF 7F  .....ls99E......
3260: F0 FF FF 7F 30 62 6C 66  03 80 78 1C 5E 81 AB 0A  ....0blf..x.^...
3270: 46 00 45 02 82 F0 FF FF  7F F0 FF FF 7F 66 64 69  F.E..........fdi
3280: 32 03 80 21 00                                    2..!.           
```

#### Opcodes

```
  0: 0x0001 [0x42] SET_CLI_EVENT_CANCEL_DATA()
  1: 0x0002 [0x1A] CALL_SUBROUTINE(address=0x506C)
  2: 0x0005 [0x46] CAMERA_CONTROL: Disable user control
  3: 0x0007 [0x38] SET_CLIENT_EVENT_MODE(mode=19*)
  4: 0x000A [0x4E] SET_ENTITY_HIDE_FLAG: Show LocalPlayer
  5: 0x0010 [0xAB] EventEntity->UnknownFlag = 1 // Enable unknown flag
  6: 0x0012 [0x27] REQ_SET(priority=0x10, entity_id=Lilisette (ID: 17126137/0x010552F9), tag_num=0x04)
  7: 0x0019 [0x27] REQ_SET(priority=0x10, entity_id=Portia (ID: 17126138/0x010552FA), tag_num=0x04)
  8: 0x0020 [0x27] REQ_SET(priority=0x10, entity_id=Ragelise (ID: 17126139/0x010552FB), tag_num=0x02)
  9: 0x0027 [0x27] REQ_SET(priority=0x10, entity_id=Mayakov (ID: 17126141/0x010552FD), tag_num=0x04)
 10: 0x002E [0x27] REQ_SET(priority=0x10, entity_id=Cait Sith (ID: 17126175/0x0105531F), tag_num=0x02)
 11: 0x0035 [0x27] REQ_SET(priority=0x10, entity_id=Gallauciond (ID: 17126151/0x01055307), tag_num=0x04)
 12: 0x003C [0x27] REQ_SET(priority=0x10, entity_id=Merfanont (ID: 17126152/0x01055308), tag_num=0x04)
 13: 0x0043 [0x92] Lilisette (ID: 17126137/0x010552F9)->Render.Flags3 ^= 0x01
 14: 0x0049 [0x92] Portia (ID: 17126138/0x010552FA)->Render.Flags3 ^= 0x01
 15: 0x004F [0x92] Ragelise (ID: 17126139/0x010552FB)->Render.Flags3 ^= 0x01
 16: 0x0055 [0x92] Mayakov (ID: 17126141/0x010552FD)->Render.Flags3 ^= 0x01
 17: 0x005B [0x92] Gallauciond (ID: 17126151/0x01055307)->Render.Flags3 ^= 0x01
 18: 0x0061 [0x92] Merfanont (ID: 17126152/0x01055308)->Render.Flags3 ^= 0x01
 19: 0x0067 [0x94] LocalPlayer->Render.Flags3 ^= 0x01
 20: 0x006D [0x94] Lilisette (ID: 17126137/0x010552F9)->Render.Flags3 ^= 0x01
 21: 0x0073 [0x94] Portia (ID: 17126138/0x010552FA)->Render.Flags3 ^= 0x01
 22: 0x0079 [0x94] Ragelise (ID: 17126139/0x010552FB)->Render.Flags3 ^= 0x01
 23: 0x007F [0x94] Mayakov (ID: 17126141/0x010552FD)->Render.Flags3 ^= 0x01
 24: 0x0085 [0x94] Gallauciond (ID: 17126151/0x01055307)->Render.Flags3 ^= 0x01
 25: 0x008B [0x94] Merfanont (ID: 17126152/0x01055308)->Render.Flags3 ^= 0x01
 26: 0x0091 [0xBA] SET_ENTITY_POSITION(entity_id=LocalPlayer, pos_x=226.060*, pos_z=13.774*, pos_y=0.000*, direction=124.3*)
 27: 0x009E [0xBA] SET_ENTITY_POSITION(entity_id=Lilisette (ID: 17126137/0x010552F9), pos_x=225.012*, pos_z=12.934*, pos_y=0.076*, direction=115.0*)
 28: 0x00AB [0xBA] SET_ENTITY_POSITION(entity_id=Portia (ID: 17126138/0x010552FA), pos_x=220.554*, pos_z=3.529*, pos_y=0.000*, direction=104.7*)
 29: 0x00B8 [0xBA] SET_ENTITY_POSITION(entity_id=Ragelise (ID: 17126139/0x010552FB), pos_x=218.527*, pos_z=-2.622*, pos_y=-0.001*, direction=131.7*)
 30: 0x00C5 [0xBA] SET_ENTITY_POSITION(entity_id=Mayakov (ID: 17126141/0x010552FD), pos_x=219.017*, pos_z=3.597*, pos_y=0.000*, direction=79.5*)
 31: 0x00D2 [0xBA] SET_ENTITY_POSITION(entity_id=Gallauciond (ID: 17126151/0x01055307), pos_x=218.334*, pos_z=1.980*, pos_y=0.000*, direction=34.5*)
 32: 0x00DF [0xBA] SET_ENTITY_POSITION(entity_id=Merfanont (ID: 17126152/0x01055308), pos_x=217.528*, pos_z=-0.216*, pos_y=0.000*, direction=343.4*)
 33: 0x00EC [0x80] LOAD_WAIT(entity=LocalPlayer)
 34: 0x00F1 [0x80] LOAD_WAIT(entity=Lilisette (ID: 17126137/0x010552F9))
 35: 0x00F6 [0x80] LOAD_WAIT(entity=Portia (ID: 17126138/0x010552FA))
 36: 0x00FB [0x80] LOAD_WAIT(entity=Ragelise (ID: 17126139/0x010552FB))
 37: 0x0100 [0x80] LOAD_WAIT(entity=Mayakov (ID: 17126141/0x010552FD))
 38: 0x0105 [0x80] LOAD_WAIT(entity=Gallauciond (ID: 17126151/0x01055307))
 39: 0x010A [0x80] LOAD_WAIT(entity=Merfanont (ID: 17126152/0x01055308))
 40: 0x010F [0x5B] LOAD_EXT_SCHEDULER: Load scheduler "fc00" with entities [Lilisette (ID: 17126137/0x010552F9), Lilisette (ID: 17126137/0x010552F9)], work=2135*
 41: 0x011E [0x7C] Lilisette (ID: 17126137/0x010552F9)->Render.Flags2 |= 0x00
 42: 0x0124 [0x45] LOAD_SCHEDULED_TASK: Load scheduler "2600" with entities [LocalPlayer, LocalPlayer], work=[384*, 0*]
 43: 0x0135 [0x1A] CALL_SUBROUTINE(address=0x504B)
 44: 0x0138 [0x1C] WAIT(150* ticks)
 45: 0x013B [0x27] REQ_SET(priority=0x10, entity_id=Lilisette (ID: 17126137/0x010552F9), tag_num=0x0C)
 46: 0x0142 [0x27] REQ_SET(priority=0x10, entity_id=LocalPlayer, tag_num=0x02)
 47: 0x0149 [0x52] END_LOAD_SCHEDULER: End scheduler "2600" with entities [LocalPlayer, LocalPlayer], work=384*
 48: 0x0158 [0x45] LOAD_SCHEDULED_TASK: Load scheduler "2601" with entities [LocalPlayer, LocalPlayer], work=[384*, 0*]
 49: 0x0169 [0x4A] Mayakov (ID: 17126141/0x010552FD) looks at Lilisette (ID: 17126137/0x010552F9)
 50: 0x0172 [0x1C] WAIT(45* ticks)
 51: 0x0175 [0x79] Gallauciond (ID: 17126151/0x01055307) looks at Lilisette (ID: 17126137/0x010552F9) (Basic look)
 52: 0x017F [0x1C] WAIT(15* ticks)
 53: 0x0182 [0x4A] Merfanont (ID: 17126152/0x01055308) looks at Lilisette (ID: 17126137/0x010552F9)
 54: 0x018B [0x52] END_LOAD_SCHEDULER: End scheduler "2601" with entities [LocalPlayer, LocalPlayer], work=384*
 55: 0x019A [0x45] LOAD_SCHEDULED_TASK: Load scheduler "2604" with entities [LocalPlayer, LocalPlayer], work=[384*, 0*]
 56: 0x01AB [0x5B] LOAD_EXT_SCHEDULER: Load scheduler "fc01" with entities [Lilisette (ID: 17126137/0x010552F9), Lilisette (ID: 17126137/0x010552F9)], work=2135*
 57: 0x01BA [0x2B] Lilisette (ID: 17126137/0x010552F9) [8133*]:
     "Portia!"
 58: 0x01C1 [0x23] WAIT_FOR_DIALOG_INTERACTION
 59: 0x01C2 [0x5B] LOAD_EXT_SCHEDULER: Load scheduler "fc00" with entities [Lilisette (ID: 17126137/0x010552F9), Lilisette (ID: 17126137/0x010552F9)], work=2135*
 60: 0x01D1 [0x4A] Portia (ID: 17126138/0x010552FA) looks at Lilisette (ID: 17126137/0x010552F9)
 61: 0x01DA [0x52] END_LOAD_SCHEDULER: End scheduler "2604" with entities [LocalPlayer, LocalPlayer], work=384*
 62: 0x01E9 [0x45] LOAD_SCHEDULED_TASK: Load scheduler "2602" with entities [LocalPlayer, LocalPlayer], work=[384*, 0*]
 63: 0x01FA [0x4A] Lilisette (ID: 17126137/0x010552F9) looks at Portia (ID: 17126138/0x010552FA)
 64: 0x0203 [0x2B] Portia (ID: 17126138/0x010552FA) [8134*]:
     "Lilisette? Is that you? What are you doing here?"
 65: 0x020A [0x23] WAIT_FOR_DIALOG_INTERACTION
 66: 0x020B [0x4A] Lilisette (ID: 17126137/0x010552F9) looks at Mayakov (ID: 17126141/0x010552FD)
 67: 0x0214 [0x5B] LOAD_EXT_SCHEDULER: Load scheduler "msd0" with entities [Mayakov (ID: 17126141/0x010552FD), Mayakov (ID: 17126141/0x010552FD)], work=2173*
 68: 0x0223 [0x52] END_LOAD_SCHEDULER: End scheduler "2602" with entities [LocalPlayer, LocalPlayer], work=384*
 69: 0x0232 [0x45] LOAD_SCHEDULED_TASK: Load scheduler "2603" with entities [LocalPlayer, LocalPlayer], work=[384*, 0*]
 70: 0x0243 [0x2B] Mayakov (ID: 17126141/0x010552FD) [8135*]:
     "Lilithette! Have you neglected your lethonth to come here? Return at onthe! Your behavior ith unactheptable!"
 71: 0x024A [0x23] WAIT_FOR_DIALOG_INTERACTION
 72: 0x024B [0x6F] WAIT_FRAME_DELAY: Yield until WaitTime reaches zero
 73: 0x024C [0x76] CHECK_ENTITY_RENDER_FLAGS: Wait until Lilisette (ID: 17126137/0x010552F9) Render.Flags0 and Render.Flags3 conditions are met
 74: 0x0251 [0x52] END_LOAD_SCHEDULER: End scheduler "2603" with entities [LocalPlayer, LocalPlayer], work=384*
 75: 0x0260 [0x45] LOAD_SCHEDULED_TASK: Load scheduler "2605" with entities [LocalPlayer, LocalPlayer], work=[384*, 0*]
 76: 0x0271 [0x5B] LOAD_EXT_SCHEDULER: Load scheduler "fc01" with entities [Lilisette (ID: 17126137/0x010552F9), Lilisette (ID: 17126137/0x010552F9)], work=2135*
 77: 0x0280 [0x5B] LOAD_EXT_SCHEDULER: Load scheduler "hdb0" with entities [Lilisette (ID: 17126137/0x010552F9), Lilisette (ID: 17126137/0x010552F9)], work=2128*
 78: 0x028F [0x2B] Lilisette (ID: 17126137/0x010552F9) [8136*]:
     "But Master Mayakov!"
 79: 0x0296 [0x23] WAIT_FOR_DIALOG_INTERACTION
 80: 0x0297 [0x52] END_LOAD_SCHEDULER: End scheduler "2605" with entities [LocalPlayer, LocalPlayer], work=384*
 81: 0x02A6 [0x45] LOAD_SCHEDULED_TASK: Load scheduler "2606" with entities [LocalPlayer, LocalPlayer], work=[384*, 0*]
 82: 0x02B7 [0x2B] Lilisette (ID: 17126137/0x010552F9) [8137*]:
     "I was worried for your well-being. This place is dangerous!"
 83: 0x02BE [0x23] WAIT_FOR_DIALOG_INTERACTION
 84: 0x02BF [0x5B] LOAD_EXT_SCHEDULER: Load scheduler "hdb1" with entities [Lilisette (ID: 17126137/0x010552F9), Lilisette (ID: 17126137/0x010552F9)], work=2128*
 85: 0x02CE [0x2B] Lilisette (ID: 17126137/0x010552F9) [8138*]:
     "They say the Orcs have already occupied a substantial portion of the area. I have a feeling that something awful is going to happen here!"
 86: 0x02D5 [0x23] WAIT_FOR_DIALOG_INTERACTION
 87: 0x02D6 [0x5B] LOAD_EXT_SCHEDULER: Load scheduler "fc00" with entities [Lilisette (ID: 17126137/0x010552F9), Lilisette (ID: 17126137/0x010552F9)], work=2135*
 88: 0x02E5 [0x4A] Lilisette (ID: 17126137/0x010552F9) looks at LocalPlayer
 89: 0x02EE [0x52] END_LOAD_SCHEDULER: End scheduler "2606" with entities [LocalPlayer, LocalPlayer], work=384*
 90: 0x02FD [0x45] LOAD_SCHEDULED_TASK: Load scheduler "2607" with entities [LocalPlayer, LocalPlayer], work=[384*, 0*]
 91: 0x030E [0x79] LocalPlayer looks at Lilisette (ID: 17126137/0x010552F9) (Basic look)
 92: 0x0318 [0x5B] LOAD_EXT_SCHEDULER: Load scheduler "fc01" with entities [Lilisette (ID: 17126137/0x010552F9), Lilisette (ID: 17126137/0x010552F9)], work=2135*
 93: 0x0327 [0x2B] Lilisette (ID: 17126137/0x010552F9) [8139*]:
     "Don't you feel the same, <Player>?"
 94: 0x032E [0x23] WAIT_FOR_DIALOG_INTERACTION
 95: 0x032F [0x5B] LOAD_EXT_SCHEDULER: Load scheduler "fc00" with entities [Lilisette (ID: 17126137/0x010552F9), Lilisette (ID: 17126137/0x010552F9)], work=2135*
 96: 0x033E [0x6E] LocalPlayer uses emote 7*
 97: 0x0345 [0x99] Wait for LocalPlayer animation to complete
 98: 0x034A [0x99] Wait for LocalPlayer animation to complete
 99: 0x034F [0x1C] WAIT(45* ticks)
100: 0x0352 [0x52] END_LOAD_SCHEDULER: End scheduler "2607" with entities [LocalPlayer, LocalPlayer], work=384*
101: 0x0361 [0x45] LOAD_SCHEDULED_TASK: Load scheduler "2608" with entities [LocalPlayer, LocalPlayer], work=[384*, 0*]
102: 0x0372 [0x7B] LocalPlayer stops talking
103: 0x0377 [0x4A] Lilisette (ID: 17126137/0x010552F9) looks at Mayakov (ID: 17126141/0x010552FD)
104: 0x0380 [0x1C] WAIT(15* ticks)
105: 0x0383 [0x5B] LOAD_EXT_SCHEDULER: Load scheduler "mtb0" with entities [Mayakov (ID: 17126141/0x010552FD), Mayakov (ID: 17126141/0x010552FD)], work=2173*
106: 0x0392 [0x2B] Mayakov (ID: 17126141/0x010552FD) [8140*]:
     "Lilithette, we have all come here prethithely becauthe it ith fraught with danger. We are bound to defend our home at any cotht!"
107: 0x0399 [0x23] WAIT_FOR_DIALOG_INTERACTION
108: 0x039A [0x6F] WAIT_FRAME_DELAY: Yield until WaitTime reaches zero
