# 17126134

## Common Data

| Field            | Value                 |
|------------------|-----------------------|
| Zone             | La Vaule [S] (ID: 85) |
| Block Size       | 284 bytes             |
| Total Events     | 21                    |
| References Count | 7                     |

## List of Events

| Event ID                   | Entrypoint   |   Size |   Instructions |
|----------------------------|--------------|--------|----------------|
| [65535](#event-65535)      | 0x0000       |      1 |              1 |
| [1](#event-1)              | 0x0001       |      4 |              2 |
| [2](#event-2)              | 0x0005       |      1 |              1 |
| [32000](#event-32000)      | 0x0006       |      1 |              1 |
| [6](#event-6)              | 0x0007       |      1 |              1 |
| [5](#event-5)              | 0x0008       |      1 |              1 |
| [65535.1](#event-655351)   | 0x0009       |      4 |              2 |
| [65535.2](#event-655352)   | 0x000D       |     10 |              2 |
| [65535.3](#event-655353)   | 0x0017       |     10 |              2 |
| [65535.4](#event-655354)   | 0x0021       |     10 |              2 |
| [65535.5](#event-655355)   | 0x002B       |     10 |              2 |
| [65535.6](#event-655356)   | 0x0035       |     10 |              2 |
| [65535.7](#event-655357)   | 0x003F       |     10 |              2 |
| [65535.8](#event-655358)   | 0x0049       |     10 |              2 |
| [65535.9](#event-655359)   | 0x0053       |     10 |              2 |
| [65535.10](#event-6553510) | 0x005D       |     10 |              2 |
| [65535.11](#event-6553511) | 0x0067       |     10 |              2 |
| [65535.12](#event-6553512) | 0x0071       |     10 |              2 |
| [65535.13](#event-6553513) | 0x007B       |     10 |              2 |
| [65535.14](#event-6553514) | 0x0085       |     10 |              2 |
| [65535.15](#event-6553515) | 0x008F       |     10 |              2 |

## DAT References (imed_data)

|   Index | Hex Value   |   Dec Value |
|---------|-------------|-------------|
|       0 | 0x0001      |           1 |
|       1 | 0x0080      |         128 |
|       2 | 0x000A      |          10 |
|       3 | 0x0000      |           0 |
|       4 | 0x001E      |          30 |
|       5 | 0x0078      |         120 |
|       6 | 0x003C      |          60 |

## Events

### Event 65535

#### Metadata

| Field        | Value   |
|--------------|---------|
| Entrypoint   | 0x0000  |
| Data Size    | 1 bytes |
| Instructions | 1       |

```
      00 01 02 03 04 05 06 07  08 09 0A 0B 0C 0D 0E 0F
      -- -- -- -- -- -- -- --  -- -- -- -- -- -- -- --
0000: 00                                                .               
```

#### Opcodes

```
  0: 0x0000 [0x00] END_REQSTACK()
```

### Event 1

#### Metadata

| Field        | Value   |
|--------------|---------|
| Entrypoint   | 0x0001  |
| Data Size    | 4 bytes |
| Instructions | 2       |

```
      00 01 02 03 04 05 06 07  08 09 0A 0B 0C 0D 0E 0F
      -- -- -- -- -- -- -- --  -- -- -- -- -- -- -- --
0000:    95 00 80 00                                     ....           
```

#### Opcodes

```
  0: 0x0001 [0x95] SETUP_EVENT_NPC: Prepare NPC for event (Render.Flags3 = 1*)
  1: 0x0004 [0x00] END_REQSTACK()
```

### Event 2

#### Metadata

| Field        | Value   |
|--------------|---------|
| Entrypoint   | 0x0005  |
| Data Size    | 1 bytes |
| Instructions | 1       |

```
      00 01 02 03 04 05 06 07  08 09 0A 0B 0C 0D 0E 0F
      -- -- -- -- -- -- -- --  -- -- -- -- -- -- -- --
0000:                00                                      .          
```

#### Opcodes

```
  0: 0x0005 [0x00] END_REQSTACK()
```

### Event 32000

#### Metadata

| Field        | Value   |
|--------------|---------|
| Entrypoint   | 0x0006  |
| Data Size    | 1 bytes |
| Instructions | 1       |

```
      00 01 02 03 04 05 06 07  08 09 0A 0B 0C 0D 0E 0F
      -- -- -- -- -- -- -- --  -- -- -- -- -- -- -- --
0000:                   00                                    .         
```

#### Opcodes

```
  0: 0x0006 [0x00] END_REQSTACK()
```

### Event 6

#### Metadata

| Field        | Value   |
|--------------|---------|
| Entrypoint   | 0x0007  |
| Data Size    | 1 bytes |
| Instructions | 1       |

```
      00 01 02 03 04 05 06 07  08 09 0A 0B 0C 0D 0E 0F
      -- -- -- -- -- -- -- --  -- -- -- -- -- -- -- --
0000:                      00                                  .        
```

#### Opcodes

```
  0: 0x0007 [0x00] END_REQSTACK()
```

### Event 5

#### Metadata

| Field        | Value   |
|--------------|---------|
| Entrypoint   | 0x0008  |
| Data Size    | 1 bytes |
| Instructions | 1       |

```
      00 01 02 03 04 05 06 07  08 09 0A 0B 0C 0D 0E 0F
      -- -- -- -- -- -- -- --  -- -- -- -- -- -- -- --
0000:                          00                               .       
```

#### Opcodes

```
  0: 0x0008 [0x00] END_REQSTACK()
```

### Event 65535.1

#### Metadata

| Field        | Value   |
|--------------|---------|
| Entrypoint   | 0x0009  |
| Data Size    | 4 bytes |
| Instructions | 2       |

```
      00 01 02 03 04 05 06 07  08 09 0A 0B 0C 0D 0E 0F
      -- -- -- -- -- -- -- --  -- -- -- -- -- -- -- --
0000:                             1C 02 10 00                    ....   
```

#### Opcodes

```
  0: 0x0009 [0x1C] WAIT(Work_Zone[2] ticks)
  1: 0x000C [0x00] END_REQSTACK()
```

### Event 65535.2

#### Metadata

| Field        | Value    |
|--------------|----------|
| Entrypoint   | 0x000D   |
| Data Size    | 10 bytes |
| Instructions | 2        |

```
      00 01 02 03 04 05 06 07  08 09 0A 0B 0C 0D 0E 0F
      -- -- -- -- -- -- -- --  -- -- -- -- -- -- -- --
0000:                                         6C 00 53               l.S
0010: 05 01 01 80 02 80 00                              .......         
```

#### Opcodes

```
  0: 0x000D [0x6C] FADE_ENTITY_COLOR(entity_id=Galarhigg (ID: 17126144/0x01055300), end_alpha=128*, fade_time=10*)
  1: 0x0016 [0x00] END_REQSTACK()
```

### Event 65535.3

#### Metadata

| Field        | Value    |
|--------------|----------|
| Entrypoint   | 0x0017   |
| Data Size    | 10 bytes |
| Instructions | 2        |

```
      00 01 02 03 04 05 06 07  08 09 0A 0B 0C 0D 0E 0F
      -- -- -- -- -- -- -- --  -- -- -- -- -- -- -- --
0010:                      6C  0C 53 05 01 01 80 02 80         l.S......
0020: 00                                                .               
```

#### Opcodes

```
  0: 0x0017 [0x6C] FADE_ENTITY_COLOR(entity_id=Demon Ken (ID: 17126156/0x0105530C), end_alpha=128*, fade_time=10*)
  1: 0x0020 [0x00] END_REQSTACK()
```

### Event 65535.4

#### Metadata

| Field        | Value    |
|--------------|----------|
| Entrypoint   | 0x0021   |
| Data Size    | 10 bytes |
| Instructions | 2        |

```
      00 01 02 03 04 05 06 07  08 09 0A 0B 0C 0D 0E 0F
      -- -- -- -- -- -- -- --  -- -- -- -- -- -- -- --
0020:    6C 0E 53 05 01 01 80  02 80 00                  l.S.......     
```

#### Opcodes

```
  0: 0x0021 [0x6C] FADE_ENTITY_COLOR(entity_id=Demon Tue (ID: 17126158/0x0105530E), end_alpha=128*, fade_time=10*)
  1: 0x002A [0x00] END_REQSTACK()
```

### Event 65535.5

#### Metadata

| Field        | Value    |
|--------------|----------|
| Entrypoint   | 0x002B   |
| Data Size    | 10 bytes |
| Instructions | 2        |

```
      00 01 02 03 04 05 06 07  08 09 0A 0B 0C 0D 0E 0F
      -- -- -- -- -- -- -- --  -- -- -- -- -- -- -- --
0020:                                   6C FB 52 05 01             l.R..
0030: 03 80 04 80 00                                    .....           
```

#### Opcodes

```
  0: 0x002B [0x6C] FADE_ENTITY_COLOR(entity_id=Ragelise (ID: 17126139/0x010552FB), end_alpha=0*, fade_time=30*)
  1: 0x0034 [0x00] END_REQSTACK()
```

### Event 65535.6

#### Metadata

| Field        | Value    |
|--------------|----------|
| Entrypoint   | 0x0035   |
| Data Size    | 10 bytes |
| Instructions | 2        |

```
      00 01 02 03 04 05 06 07  08 09 0A 0B 0C 0D 0E 0F
      -- -- -- -- -- -- -- --  -- -- -- -- -- -- -- --
0030:                6C FB 52  05 01 03 80 02 80 00          l.R....... 
```

#### Opcodes

```
  0: 0x0035 [0x6C] FADE_ENTITY_COLOR(entity_id=Ragelise (ID: 17126139/0x010552FB), end_alpha=0*, fade_time=10*)
  1: 0x003E [0x00] END_REQSTACK()
```

### Event 65535.7

#### Metadata

| Field        | Value    |
|--------------|----------|
| Entrypoint   | 0x003F   |
| Data Size    | 10 bytes |
| Instructions | 2        |

```
      00 01 02 03 04 05 06 07  08 09 0A 0B 0C 0D 0E 0F
      -- -- -- -- -- -- -- --  -- -- -- -- -- -- -- --
0030:                                               6C                 l
0040: FB 52 05 01 03 80 00 80  00                       .R.......       
```

#### Opcodes

```
  0: 0x003F [0x6C] FADE_ENTITY_COLOR(entity_id=Ragelise (ID: 17126139/0x010552FB), end_alpha=0*, fade_time=1*)
  1: 0x0048 [0x00] END_REQSTACK()
```

### Event 65535.8

#### Metadata

| Field        | Value    |
|--------------|----------|
| Entrypoint   | 0x0049   |
| Data Size    | 10 bytes |
| Instructions | 2        |

```
      00 01 02 03 04 05 06 07  08 09 0A 0B 0C 0D 0E 0F
      -- -- -- -- -- -- -- --  -- -- -- -- -- -- -- --
0040:                             6C FB 52 05 01 01 80           l.R....
0050: 00 80 00                                          ...             
```

#### Opcodes

```
  0: 0x0049 [0x6C] FADE_ENTITY_COLOR(entity_id=Ragelise (ID: 17126139/0x010552FB), end_alpha=128*, fade_time=1*)
  1: 0x0052 [0x00] END_REQSTACK()
```

### Event 65535.9

#### Metadata

| Field        | Value    |
|--------------|----------|
| Entrypoint   | 0x0053   |
| Data Size    | 10 bytes |
| Instructions | 2        |

```
      00 01 02 03 04 05 06 07  08 09 0A 0B 0C 0D 0E 0F
      -- -- -- -- -- -- -- --  -- -- -- -- -- -- -- --
0050:          6C FF 52 05 01  01 80 00 80 00              l.R.......   
```

#### Opcodes

```
  0: 0x0053 [0x6C] FADE_ENTITY_COLOR(entity_id=Aquila (ID: 17126143/0x010552FF), end_alpha=128*, fade_time=1*)
  1: 0x005C [0x00] END_REQSTACK()
```

### Event 65535.10

#### Metadata

| Field        | Value    |
|--------------|----------|
| Entrypoint   | 0x005D   |
| Data Size    | 10 bytes |
| Instructions | 2        |

```
      00 01 02 03 04 05 06 07  08 09 0A 0B 0C 0D 0E 0F
      -- -- -- -- -- -- -- --  -- -- -- -- -- -- -- --
0050:                                         6C FC 52               l.R
0060: 05 01 03 80 00 80 00                              .......         
```

#### Opcodes

```
  0: 0x005D [0x6C] FADE_ENTITY_COLOR(entity_id=Ragelise (ID: 17126140/0x010552FC), end_alpha=0*, fade_time=1*)
  1: 0x0066 [0x00] END_REQSTACK()
```

### Event 65535.11

#### Metadata

| Field        | Value    |
|--------------|----------|
| Entrypoint   | 0x0067   |
| Data Size    | 10 bytes |
| Instructions | 2        |

```
      00 01 02 03 04 05 06 07  08 09 0A 0B 0C 0D 0E 0F
      -- -- -- -- -- -- -- --  -- -- -- -- -- -- -- --
0060:                      6C  FC 52 05 01 01 80 02 80         l.R......
0070: 00                                                .               
```

#### Opcodes

```
  0: 0x0067 [0x6C] FADE_ENTITY_COLOR(entity_id=Ragelise (ID: 17126140/0x010552FC), end_alpha=128*, fade_time=10*)
  1: 0x0070 [0x00] END_REQSTACK()
```

### Event 65535.12

#### Metadata

| Field        | Value    |
|--------------|----------|
| Entrypoint   | 0x0071   |
| Data Size    | 10 bytes |
| Instructions | 2        |

```
      00 01 02 03 04 05 06 07  08 09 0A 0B 0C 0D 0E 0F
      -- -- -- -- -- -- -- --  -- -- -- -- -- -- -- --
0070:    6C FE 52 05 01 03 80  05 80 00                  l.R.......     
```

#### Opcodes

```
  0: 0x0071 [0x6C] FADE_ENTITY_COLOR(entity_id=Haudrale (ID: 17126142/0x010552FE), end_alpha=0*, fade_time=120*)
  1: 0x007A [0x00] END_REQSTACK()
```

### Event 65535.13

#### Metadata

| Field        | Value    |
|--------------|----------|
| Entrypoint   | 0x007B   |
| Data Size    | 10 bytes |
| Instructions | 2        |

```
      00 01 02 03 04 05 06 07  08 09 0A 0B 0C 0D 0E 0F
      -- -- -- -- -- -- -- --  -- -- -- -- -- -- -- --
0070:                                   6C FE 52 05 01             l.R..
0080: 01 80 06 80 00                                    .....           
```

#### Opcodes

```
  0: 0x007B [0x6C] FADE_ENTITY_COLOR(entity_id=Haudrale (ID: 17126142/0x010552FE), end_alpha=128*, fade_time=60*)
  1: 0x0084 [0x00] END_REQSTACK()
```

### Event 65535.14

#### Metadata

| Field        | Value    |
|--------------|----------|
| Entrypoint   | 0x0085   |
| Data Size    | 10 bytes |
| Instructions | 2        |

```
      00 01 02 03 04 05 06 07  08 09 0A 0B 0C 0D 0E 0F
      -- -- -- -- -- -- -- --  -- -- -- -- -- -- -- --
0080:                6C 01 53  05 01 01 80 02 80 00          l.S....... 
```

#### Opcodes

```
  0: 0x0085 [0x6C] FADE_ENTITY_COLOR(entity_id=Vestillet (ID: 17126145/0x01055301), end_alpha=128*, fade_time=10*)
  1: 0x008E [0x00] END_REQSTACK()
```

### Event 65535.15

#### Metadata

| Field        | Value    |
|--------------|----------|
| Entrypoint   | 0x008F   |
| Data Size    | 10 bytes |
| Instructions | 2        |

```
      00 01 02 03 04 05 06 07  08 09 0A 0B 0C 0D 0E 0F
      -- -- -- -- -- -- -- --  -- -- -- -- -- -- -- --
0080:                                               6C                 l
0090: 0F 53 05 01 01 80 02 80  00                       .S.......       
```

#### Opcodes

```
  0: 0x008F [0x6C] FADE_ENTITY_COLOR(entity_id=Demon Ken 2 (ID: 17126159/0x0105530F), end_alpha=128*, fade_time=10*)
  1: 0x0098 [0x00] END_REQSTACK()
```
