# 17126135

## Common Data

| Field            | Value                 |
|------------------|-----------------------|
| Zone             | La Vaule [S] (ID: 85) |
| Block Size       | 332 bytes             |
| Total Events     | 16                    |
| References Count | 17                    |

## List of Events

| Event ID                   | Entrypoint   |   Size |   Instructions |
|----------------------------|--------------|--------|----------------|
| [65535](#event-65535)      | 0x0000       |      1 |              1 |
| [1](#event-1)              | 0x0001       |      4 |              2 |
| [2](#event-2)              | 0x0005       |      1 |              1 |
| [32000](#event-32000)      | 0x0006       |      1 |              1 |
| [6](#event-6)              | 0x0007       |      1 |              1 |
| [5](#event-5)              | 0x0008       |      1 |              1 |
| [65535.1](#event-655351)   | 0x0009       |     10 |              2 |
| [65535.2](#event-655352)   | 0x0013       |     10 |              2 |
| [65535.3](#event-655353)   | 0x001D       |      7 |              2 |
| [65535.4](#event-655354)   | 0x0024       |     25 |              5 |
| [65535.5](#event-655355)   | 0x003D       |     25 |              5 |
| [65535.6](#event-655356)   | 0x0056       |     36 |              4 |
| [65535.7](#event-655357)   | 0x007A       |     21 |              3 |
| [65535.8](#event-655358)   | 0x008F       |     12 |              3 |
| [65535.9](#event-655359)   | 0x009B       |      7 |              2 |
| [65535.10](#event-6553510) | 0x00A2       |     19 |              3 |

## DAT References (imed_data)

|   Index | Hex Value   |   Dec Value |
|---------|-------------|-------------|
|       0 | 0x0001      |           1 |
|       1 | 0x0080      |         128 |
|       2 | 0x000A      |          10 |
|       3 | 0x000E      |          14 |
|       4 | 0x0168      |         360 |
|       5 | 0x00B2      |         178 |
|       6 | 0x00D8      |         216 |
|       7 | 0x0000      |           0 |
|       8 | 0x05D8      |        1496 |
|       9 | 0x004A      |          74 |
|      10 | 0x00DA      |         218 |
|      11 | 0x455D7     |      284119 |
|      12 | 0x39A20     |      236064 |
|      13 | 0x733C      |       29500 |
|      14 | 0x0606      |        1542 |
|      15 | 0x0006      |           6 |
|      16 | 0x00B4      |         180 |

## Events

### Event 65535

#### Metadata

| Field        | Value   |
|--------------|---------|
| Entrypoint   | 0x0000  |
| Data Size    | 1 bytes |
| Instructions | 1       |

```
      00 01 02 03 04 05 06 07  08 09 0A 0B 0C 0D 0E 0F
      -- -- -- -- -- -- -- --  -- -- -- -- -- -- -- --
0000: 00                                                .               
```

#### Opcodes

```
  0: 0x0000 [0x00] END_REQSTACK()
```

### Event 1

#### Metadata

| Field        | Value   |
|--------------|---------|
| Entrypoint   | 0x0001  |
| Data Size    | 4 bytes |
| Instructions | 2       |

```
      00 01 02 03 04 05 06 07  08 09 0A 0B 0C 0D 0E 0F
      -- -- -- -- -- -- -- --  -- -- -- -- -- -- -- --
0000:    95 00 80 00                                     ....           
```

#### Opcodes

```
  0: 0x0001 [0x95] SETUP_EVENT_NPC: Prepare NPC for event (Render.Flags3 = 1*)
  1: 0x0004 [0x00] END_REQSTACK()
```

### Event 2

#### Metadata

| Field        | Value   |
|--------------|---------|
| Entrypoint   | 0x0005  |
| Data Size    | 1 bytes |
| Instructions | 1       |

```
      00 01 02 03 04 05 06 07  08 09 0A 0B 0C 0D 0E 0F
      -- -- -- -- -- -- -- --  -- -- -- -- -- -- -- --
0000:                00                                      .          
```

#### Opcodes

```
  0: 0x0005 [0x00] END_REQSTACK()
```

### Event 32000

#### Metadata

| Field        | Value   |
|--------------|---------|
| Entrypoint   | 0x0006  |
| Data Size    | 1 bytes |
| Instructions | 1       |

```
      00 01 02 03 04 05 06 07  08 09 0A 0B 0C 0D 0E 0F
      -- -- -- -- -- -- -- --  -- -- -- -- -- -- -- --
0000:                   00                                    .         
```

#### Opcodes

```
  0: 0x0006 [0x00] END_REQSTACK()
```

### Event 6

#### Metadata

| Field        | Value   |
|--------------|---------|
| Entrypoint   | 0x0007  |
| Data Size    | 1 bytes |
| Instructions | 1       |

```
      00 01 02 03 04 05 06 07  08 09 0A 0B 0C 0D 0E 0F
      -- -- -- -- -- -- -- --  -- -- -- -- -- -- -- --
0000:                      00                                  .        
```

#### Opcodes

```
  0: 0x0007 [0x00] END_REQSTACK()
```

### Event 5

#### Metadata

| Field        | Value   |
|--------------|---------|
| Entrypoint   | 0x0008  |
| Data Size    | 1 bytes |
| Instructions | 1       |

```
      00 01 02 03 04 05 06 07  08 09 0A 0B 0C 0D 0E 0F
      -- -- -- -- -- -- -- --  -- -- -- -- -- -- -- --
0000:                          00                               .       
```

#### Opcodes

```
  0: 0x0008 [0x00] END_REQSTACK()
```

### Event 65535.1

#### Metadata

| Field        | Value    |
|--------------|----------|
| Entrypoint   | 0x0009   |
| Data Size    | 10 bytes |
| Instructions | 2        |

```
      00 01 02 03 04 05 06 07  08 09 0A 0B 0C 0D 0E 0F
      -- -- -- -- -- -- -- --  -- -- -- -- -- -- -- --
0000:                             6C 0D 53 05 01 01 80           l.S....
0010: 02 80 00                                          ...             
```

#### Opcodes

```
  0: 0x0009 [0x6C] FADE_ENTITY_COLOR(entity_id=Demon Kama (ID: 17126157/0x0105530D), end_alpha=128*, fade_time=10*)
  1: 0x0012 [0x00] END_REQSTACK()
```

### Event 65535.2

#### Metadata

| Field        | Value    |
|--------------|----------|
| Entrypoint   | 0x0013   |
| Data Size    | 10 bytes |
| Instructions | 2        |

```
      00 01 02 03 04 05 06 07  08 09 0A 0B 0C 0D 0E 0F
      -- -- -- -- -- -- -- --  -- -- -- -- -- -- -- --
0010:          6C 10 53 05 01  01 80 02 80 00              l.S.......   
```

#### Opcodes

```
  0: 0x0013 [0x6C] FADE_ENTITY_COLOR(entity_id=Demon Kama 2 (ID: 17126160/0x01055310), end_alpha=128*, fade_time=10*)
  1: 0x001C [0x00] END_REQSTACK()
```

### Event 65535.3

#### Metadata

| Field        | Value   |
|--------------|---------|
| Entrypoint   | 0x001D  |
| Data Size    | 7 bytes |
| Instructions | 2       |

```
      00 01 02 03 04 05 06 07  08 09 0A 0B 0C 0D 0E 0F
      -- -- -- -- -- -- -- --  -- -- -- -- -- -- -- --
0010:                                         AE 00 03               ...
0020: 80 04 80 00                                       ....            
```

#### Opcodes

```
  0: 0x001D [0xAE] MULTI_PURPOSE_ENTITY_HANDLER(case_type=0x00 - Weather, param1=14*, param2=360*)
  1: 0x0023 [0x00] END_REQSTACK()
```

### Event 65535.4

#### Metadata

| Field        | Value    |
|--------------|----------|
| Entrypoint   | 0x0024   |
| Data Size    | 25 bytes |
| Instructions | 5        |

```
      00 01 02 03 04 05 06 07  08 09 0A 0B 0C 0D 0E 0F
      -- -- -- -- -- -- -- --  -- -- -- -- -- -- -- --
0020:             92 01 F0 FF  FF 7F 4E 01 F0 FF FF 7F      ......N.....
0030: 4E 01 F9 52 05 01 4E 01  FA 52 05 01 00           N..R..N..R...   
```

#### Opcodes

```
  0: 0x0024 [0x92] LocalPlayer->Render.Flags3 ^= 0x01
  1: 0x002A [0x4E] SET_ENTITY_HIDE_FLAG: Hide LocalPlayer
  2: 0x0030 [0x4E] SET_ENTITY_HIDE_FLAG: Hide Lilisette (ID: 17126137/0x010552F9)
  3: 0x0036 [0x4E] SET_ENTITY_HIDE_FLAG: Hide Portia (ID: 17126138/0x010552FA)
  4: 0x003C [0x00] END_REQSTACK()
```

### Event 65535.5

#### Metadata

| Field        | Value    |
|--------------|----------|
| Entrypoint   | 0x003D   |
| Data Size    | 25 bytes |
| Instructions | 5        |

```
      00 01 02 03 04 05 06 07  08 09 0A 0B 0C 0D 0E 0F
      -- -- -- -- -- -- -- --  -- -- -- -- -- -- -- --
0030:                                         92 00 F0               ...
0040: FF FF 7F 4E 00 F0 FF FF  7F 4E 00 F9 52 05 01 4E  ...N.....N..R..N
0050: 00 FA 52 05 01 00                                 ..R...          
```

#### Opcodes

```
  0: 0x003D [0x92] LocalPlayer->Render.Flags3 = Flags3  // No change (flag=0)
  1: 0x0043 [0x4E] SET_ENTITY_HIDE_FLAG: Show LocalPlayer
  2: 0x0049 [0x4E] SET_ENTITY_HIDE_FLAG: Show Lilisette (ID: 17126137/0x010552F9)
  3: 0x004F [0x4E] SET_ENTITY_HIDE_FLAG: Show Portia (ID: 17126138/0x010552FA)
  4: 0x0055 [0x00] END_REQSTACK()
```

### Event 65535.6

#### Metadata

| Field        | Value    |
|--------------|----------|
| Entrypoint   | 0x0056   |
| Data Size    | 36 bytes |
| Instructions | 4        |

```
      00 01 02 03 04 05 06 07  08 09 0A 0B 0C 0D 0E 0F
      -- -- -- -- -- -- -- --  -- -- -- -- -- -- -- --
0050:                   1C 05  80 BB 06 80 0B 53 05 01        .......S..
0060: 0B 53 05 01 73 30 30 30  07 80 5B 08 80 0B 53 05  .S..s000..[...S.
0070: 01 0B 53 05 01 73 65 30  31 00                    ..S..se01.      
```

#### Opcodes

```
  0: 0x0056 [0x1C] WAIT(178* ticks)
  1: 0x0059 [0xBB] LOAD_EVENT_SCHEDULER_ALT: Load scheduler "s000" with entities [Haudrale (ID: 17126155/0x0105530B), Haudrale (ID: 17126155/0x0105530B)], work=[216*, 0*]
  2: 0x006A [0x5B] LOAD_EXT_SCHEDULER: Load scheduler "se01" with entities [Haudrale (ID: 17126155/0x0105530B), Haudrale (ID: 17126155/0x0105530B)], work=1496*
  3: 0x0079 [0x00] END_REQSTACK()
```

### Event 65535.7

#### Metadata

| Field        | Value    |
|--------------|----------|
| Entrypoint   | 0x007A   |
| Data Size    | 21 bytes |
| Instructions | 3        |

```
      00 01 02 03 04 05 06 07  08 09 0A 0B 0C 0D 0E 0F
      -- -- -- -- -- -- -- --  -- -- -- -- -- -- -- --
0070:                                1C 09 80 BB 0A 80            ......
0080: FE 52 05 01 FE 52 05 01  73 30 30 30 07 80 00     .R...R..s000... 
```

#### Opcodes

```
  0: 0x007A [0x1C] WAIT(74* ticks)
  1: 0x007D [0xBB] LOAD_EVENT_SCHEDULER_ALT: Load scheduler "s000" with entities [Haudrale (ID: 17126142/0x010552FE), Haudrale (ID: 17126142/0x010552FE)], work=[218*, 0*]
  2: 0x008E [0x00] END_REQSTACK()
```

### Event 65535.8

#### Metadata

| Field        | Value    |
|--------------|----------|
| Entrypoint   | 0x008F   |
| Data Size    | 12 bytes |
| Instructions | 3        |

```
      00 01 02 03 04 05 06 07  08 09 0A 0B 0C 0D 0E 0F
      -- -- -- -- -- -- -- --  -- -- -- -- -- -- -- --
0080:                                               33                 3
0090: 01 37 0B 80 0C 80 0D 80  0E 80 00                 .7.........     
```

#### Opcodes

```
  0: 0x008F [0x33] EventEntity->Render.Flags0 |= 0x200000 // Bit 21 (flag=0x01)
  1: 0x0091 [0x37] UPDATE_EVENT_POSITION_AND_DIR: x=284.119*, z=236.064*, y=29.500*, direction=135.5°*
  2: 0x009A [0x00] END_REQSTACK()
```

### Event 65535.9

#### Metadata

| Field        | Value   |
|--------------|---------|
| Entrypoint   | 0x009B  |
| Data Size    | 7 bytes |
| Instructions | 2       |

```
      00 01 02 03 04 05 06 07  08 09 0A 0B 0C 0D 0E 0F
      -- -- -- -- -- -- -- --  -- -- -- -- -- -- -- --
0090:                                   AE 00 0F 80 10             .....
00A0: 80 00                                             ..              
```

#### Opcodes

```
  0: 0x009B [0xAE] MULTI_PURPOSE_ENTITY_HANDLER(case_type=0x00 - Weather, param1=6*, param2=180*)
  1: 0x00A1 [0x00] END_REQSTACK()
```

### Event 65535.10

#### Metadata

| Field        | Value    |
|--------------|----------|
| Entrypoint   | 0x00A2   |
| Data Size    | 19 bytes |
| Instructions | 3        |

```
      00 01 02 03 04 05 06 07  08 09 0A 0B 0C 0D 0E 0F
      -- -- -- -- -- -- -- --  -- -- -- -- -- -- -- --
00A0:       6C 0F 53 05 01 01  80 00 80 6C 10 53 05 01    l.S......l.S..
00B0: 01 80 00 80 00                                    .....           
```

#### Opcodes

```
  0: 0x00A2 [0x6C] FADE_ENTITY_COLOR(entity_id=Demon Ken 2 (ID: 17126159/0x0105530F), end_alpha=128*, fade_time=1*)
  1: 0x00AB [0x6C] FADE_ENTITY_COLOR(entity_id=Demon Kama 2 (ID: 17126160/0x01055310), end_alpha=128*, fade_time=1*)
  2: 0x00B4 [0x00] END_REQSTACK()
```
