# 17126193

## Common Data

| Field            | Value                 |
|------------------|-----------------------|
| Zone             | La Vaule [S] (ID: 85) |
| Block Size       | 6476 bytes            |
| Total Events     | 3                     |
| References Count | 200                   |

## List of Events

| Event ID              | Entrypoint   |   Size |   Instructions |
|-----------------------|--------------|--------|----------------|
| [65535](#event-65535) | 0x0000       |      1 |              1 |
| [3](#event-3)         | 0x0001       |   1015 |            128 |
| [5](#event-5)         | 0x03F8       |   4632 |            469 |

## DAT References (imed_data)

|   Index | Hex Value   |   Dec Value |
|---------|-------------|-------------|
|       0 | 0x0013      |          19 |
|       1 | 0x47811     |      292881 |
|       2 | 0xFFFC7112  |  4294734098 |
|       3 | 0x08E1      |        2273 |
|       4 | 0x0284      |         644 |
|       5 | 0x44BEA     |      281578 |
|       6 | 0xFFFC6F03  |  4294733571 |
|       7 | 0x0F9F      |        3999 |
|       8 | 0x0FE0      |        4064 |
|       9 | 0x47A15     |      293397 |
|      10 | 0xFFFC6D66  |  4294733158 |
|      11 | 0x0907      |        2311 |
|      12 | 0x0A38      |        2616 |
|      13 | 0x000F      |          15 |
|      14 | 0x01F6      |         502 |
|      15 | 0x0000      |           0 |
|      16 | 0x002D      |          45 |
|      17 | 0x00B4      |         180 |
|      18 | 0x003C      |          60 |
|      19 | 0x2097      |        8343 |
|      20 | 0x05A3      |        1443 |
|      21 | 0x2098      |        8344 |
|      22 | 0x005A      |          90 |
|      23 | 0x0001      |           1 |
|      24 | 0x0002      |           2 |
|      25 | 0x0003      |           3 |
|      26 | 0x0004      |           4 |
|      27 | 0x0005      |           5 |
|      28 | 0x0006      |           6 |
|      29 | 0x0007      |           7 |
|      30 | 0x0008      |           8 |
|      31 | 0x0438      |        1080 |
|      32 | 0x2099      |        8345 |
|      33 | 0x209A      |        8346 |
|      34 | 0x209B      |        8347 |
|      35 | 0x209C      |        8348 |
|      36 | 0x05A2      |        1442 |
|      37 | 0x05A6      |        1446 |
|      38 | 0x209D      |        8349 |
|      39 | 0x001E      |          30 |
|      40 | 0x209E      |        8350 |
|      41 | 0x209F      |        8351 |
|      42 | 0x20A0      |        8352 |
|      43 | 0x20A1      |        8353 |
|      44 | 0x00C8      |         200 |
|      45 | 0x47F2A     |      294698 |
|      46 | 0xFFFCB581  |  4294751617 |
|      47 | 0x0D5E      |        3422 |
|      48 | 0x03C3      |         963 |
|      49 | 0x0078      |         120 |
|      50 | 0x0228      |         552 |
|      51 | 0x0014      |          20 |
|      52 | 0x43397     |      275351 |
|      53 | 0xFFFC9242  |  4294742594 |
|      54 | 0x10A7      |        4263 |
|      55 | 0x42062     |      270434 |
|      56 | 0xFFFCA7E3  |  4294748131 |
|      57 | 0x1099      |        4249 |
|      58 | 0x0DC8      |        3528 |
|      59 | 0x42E69     |      274025 |
|      60 | 0xFFFC9D40  |  4294745408 |
|      61 | 0x0498      |        1176 |
|      62 | 0x429C7     |      272839 |
|      63 | 0xFFFC49D7  |  4294724055 |
|      64 | 0x0FEC      |        4076 |
|      65 | 0x0326      |         806 |
|      66 | 0x43D64     |      277860 |
|      67 | 0xFFFC76D5  |  4294735573 |
|      68 | 0x0F95      |        3989 |
|      69 | 0x00DA      |         218 |
|      70 | 0x44671     |      280177 |
|      71 | 0xFFFC729D  |  4294734493 |
|      72 | 0x08D3      |        2259 |
|      73 | 0xFFF94E3D  |  4294528573 |
|      74 | 0x58E05     |      364037 |
|      75 | 0xFFFE3AE1  |  4294851297 |
|      76 | 0x0800      |        2048 |
|      77 | 0x44EF0     |      282352 |
|      78 | 0xFFFCCBEF  |  4294757359 |
|      79 | 0x0AE1      |        2785 |
|      80 | 0x44B26     |      281382 |
|      81 | 0xFFFCD09E  |  4294758558 |
|      82 | 0x00E7      |         231 |
|      83 | 0x018B      |         395 |
|      84 | 0x05D7      |        1495 |
|      85 | 0x0584      |        1412 |
|      86 | 0x0886      |        2182 |
|      87 | 0x00F7      |         247 |
|      88 | 0x00C7      |         199 |
|      89 | 0x0894      |        2196 |
|      90 | 0x48443     |      296003 |
|      91 | 0xFFFCEAAC  |  4294765228 |
|      92 | 0x0FA0      |        4000 |
|      93 | 0x06C9      |        1737 |
|      94 | 0x47A55     |      293461 |
|      95 | 0xFFFCD69D  |  4294760093 |
|      96 | 0x0F7B      |        3963 |
|      97 | 0x0EFE      |        3838 |
|      98 | 0x0073      |         115 |
|      99 | 0x08A8      |        2216 |
|     100 | 0x08AA      |        2218 |
|     101 | 0x08CA      |        2250 |
|     102 | 0x0857      |        2135 |
|     103 | 0x0862      |        2146 |
|     104 | 0x0069      |         105 |
|     105 | 0x08B0      |        2224 |
|     106 | 0x00D2      |         210 |
|     107 | 0x4466C     |      280172 |
|     108 | 0xFFFCCFD0  |  4294758352 |
|     109 | 0x0F68      |        3944 |
|     110 | 0x44C59     |      281689 |
|     111 | 0xFFFCCEDD  |  4294758109 |
|     112 | 0x0E30      |        3632 |
|     113 | 0x43C86     |      277638 |
|     114 | 0xFFFD00F9  |  4294770937 |
|     115 | 0x03E1      |         993 |
|     116 | 0x4356E     |      275822 |
|     117 | 0xFFFCFA47  |  4294769223 |
|     118 | 0x031C      |         796 |
|     119 | 0x4953C     |      300348 |
|     120 | 0xFFFCFB67  |  4294769511 |
|     121 | 0x0F81      |        3969 |
|     122 | 0x0720      |        1824 |
|     123 | 0x000A      |          10 |
|     124 | 0x49461     |      300129 |
|     125 | 0xFFFCF27E  |  4294767230 |
|     126 | 0x071D      |        1821 |
|     127 | 0x0891      |        2193 |
|     128 | 0xFFF948EA  |  4294527210 |
|     129 | 0x59938     |      366904 |
|     130 | 0x0629      |        1577 |
|     131 | 0xFFF95FB4  |  4294533044 |
|     132 | 0x5A0BF     |      368831 |
|     133 | 0x08FC      |        2300 |
|     134 | 0xFFF9393A  |  4294523194 |
|     135 | 0x58E0B     |      364043 |
|     136 | 0x0E90      |        3728 |
|     137 | 0xFFF9500D  |  4294529037 |
|     138 | 0x5929F     |      365215 |
|     139 | 0x0AEA      |        2794 |
|     140 | 0xFFF9395E  |  4294523230 |
|     141 | 0x5A280     |      369280 |
|     142 | 0xFFFE3AD3  |  4294851283 |
|     143 | 0x0075      |         117 |
|     144 | 0x085D      |        2141 |
|     145 | 0x08B7      |        2231 |
|     146 | 0x08B3      |        2227 |
|     147 | 0x08B2      |        2226 |
|     148 | 0x0887      |        2183 |
|     149 | 0x05B0      |        1456 |
|     150 | 0x00D9      |         217 |
|     151 | 0xFFF92932  |  4294519090 |
|     152 | 0x5861D     |      362013 |
|     153 | 0x0F27      |        3879 |
|     154 | 0x34DD0     |      216528 |
|     155 | 0xFFFFF088  |  4294963336 |
|     156 | 0xFFFFFFF1  |  4294967281 |
|     157 | 0x0042      |          66 |
|     158 | 0x0690      |        1680 |
|     159 | 0x088A      |        2186 |
|     160 | 0x0082      |         130 |
|     161 | 0x00A0      |         160 |
|     162 | 0x00EA      |         234 |
|     163 | 0x08C3      |        2243 |
|     164 | 0xFFF8CDDE  |  4294495710 |
|     165 | 0x583AF     |      361391 |
|     166 | 0xFFFE166E  |  4294841966 |
|     167 | 0x0FC7      |        4039 |
|     168 | 0xFFF931BD  |  4294521277 |
|     169 | 0x58663     |      362083 |
|     170 | 0x0E8E      |        3726 |
|     171 | 0x0096      |         150 |
|     172 | 0x05D8      |        1496 |
|     173 | 0x00CC      |         204 |
|     174 | 0xFFF944D6  |  4294526166 |
|     175 | 0x5A3B7     |      369591 |
|     176 | 0x032C      |         812 |
|     177 | 0xFFF94C24  |  4294528036 |
|     178 | 0x5A447     |      369735 |
|     179 | 0x05DC      |        1500 |
|     180 | 0xFFF94976  |  4294527350 |
|     181 | 0x59FAA     |      368554 |
|     182 | 0xFFFE3AE0  |  4294851296 |
|     183 | 0x05B2      |        1458 |
|     184 | 0x08B9      |        2233 |
|     185 | 0x00CD      |         205 |
|     186 | 0x14CCC     |       85196 |
|     187 | 0xFFFDEE2E  |  4294831662 |
|     188 | 0xFFFFF345  |  4294964037 |
|     189 | 0x0BA3      |        2979 |
|     190 | 0x1525A     |       86618 |
|     191 | 0xFFFDEA34  |  4294830644 |
|     192 | 0xFFFFF457  |  4294964311 |
|     193 | 0x08A9      |        2217 |
|     194 | 0x00D7      |         215 |
|     195 | 0x0854      |        2132 |
|     196 | 0x0028      |          40 |
|     197 | 0x0855      |        2133 |
|     198 | 0x012C      |         300 |
|     199 | 0x00C9      |         201 |

## Events

### Event 65535

#### Metadata

| Field        | Value   |
|--------------|---------|
| Entrypoint   | 0x0000  |
| Data Size    | 1 bytes |
| Instructions | 1       |

```
      00 01 02 03 04 05 06 07  08 09 0A 0B 0C 0D 0E 0F
      -- -- -- -- -- -- -- --  -- -- -- -- -- -- -- --
0000: 00                                                .               
```

#### Opcodes

```
  0: 0x0000 [0x00] END_REQSTACK()
```

### Event 3

#### Metadata

| Field        | Value      |
|--------------|------------|
| Entrypoint   | 0x0001     |
| Data Size    | 1015 bytes |
| Instructions | 128        |

```
      00 01 02 03 04 05 06 07  08 09 0A 0B 0C 0D 0E 0F
      -- -- -- -- -- -- -- --  -- -- -- -- -- -- -- --
0000:    42 1A E2 13 46 01 38  00 80 4E 00 F0 FF FF 7F   B...F.8..N.....
0010: 27 10 32 53 05 01 04 27  10 33 53 05 01 04 92 01  '.2S...'.3S.....
0020: 32 53 05 01 92 01 33 53  05 01 94 01 F0 FF FF 7F  2S....3S........
0030: 94 01 32 53 05 01 94 01  33 53 05 01 BA F0 FF FF  ..2S....3S......
0040: 7F 01 80 02 80 03 80 04  80 BA 32 53 05 01 05 80  ..........2S....
0050: 06 80 07 80 08 80 BA 33  53 05 01 09 80 0A 80 0B  .......3S.......
0060: 80 0C 80 80 F0 FF FF 7F  80 32 53 05 01 80 33 53  .........2S...3S
0070: 05 01 81 00 32 53 05 01  1C 0D 80 27 10 F0 FF FF  ....2S.....'....
0080: 7F 11 2A 10 F0 FF FF 7F  45 0E 80 F0 FF FF 7F F0  ..*.....E.......
0090: FF FF 7F 73 30 32 61 0F  80 27 10 32 53 05 01 09  ...s02a..'.2S...
00A0: 1A C1 13 1C 10 80 2C 33  53 05 01 33 53 05 01 6F  ......,3S..3S..o
00B0: 70 65 32 1C 11 80 27 10  F0 FF FF 7F 12 2A 10 32  pe2...'......*.2
00C0: 53 05 01 1C 12 80 4A F0  FF FF 7F 32 53 05 01 52  S.....J....2S..R
00D0: 0E 80 F0 FF FF 7F F0 FF  FF 7F 73 30 32 61 45 0E  ..........s02aE.
00E0: 80 F0 FF FF 7F F0 FF FF  7F 73 30 32 65 0F 80 2B  .........s02e..+
00F0: 32 53 05 01 13 80 23 52  0E 80 F0 FF FF 7F F0 FF  2S....#R........
0100: FF 7F 73 30 32 65 45 0E  80 F0 FF FF 7F F0 FF FF  ..s02eE.........
0110: 7F 73 30 32 66 0F 80 5B  14 80 32 53 05 01 32 53  .s02f..[..2S..2S
0120: 05 01 74 6C 61 30 2B 32  53 05 01 15 80 1C 16 80  ..tla0+2S.......
0130: 23 52 0E 80 F0 FF FF 7F  F0 FF FF 7F 73 30 32 66  #R..........s02f
0140: 29 10 F0 FF FF 7F 0F 02  02 10 17 80 80 63 01 45  )............c.E
0150: 0E 80 F0 FF FF 7F F0 FF  FF 7F 32 68 6D 31 0F 80  ..........2hm1..
0160: 01 27 02 02 02 10 18 80  80 7F 01 45 0E 80 F0 FF  .'.........E....
0170: FF 7F F0 FF FF 7F 32 68  66 31 0F 80 01 27 02 02  ......2hf1...'..
0180: 02 10 19 80 80 9B 01 45  0E 80 F0 FF FF 7F F0 FF  .......E........
0190: FF 7F 32 65 6D 31 0F 80  01 27 02 02 02 10 1A 80  ..2em1...'......
01A0: 80 B7 01 45 0E 80 F0 FF  FF 7F F0 FF FF 7F 32 65  ...E..........2e
01B0: 66 31 0F 80 01 27 02 02  02 10 1B 80 80 D3 01 45  f1...'.........E
01C0: 0E 80 F0 FF FF 7F F0 FF  FF 7F 32 74 72 31 0F 80  ..........2tr1..
01D0: 01 27 02 02 02 10 1C 80  80 EF 01 45 0E 80 F0 FF  .'.........E....
01E0: FF 7F F0 FF FF 7F 32 74  72 31 0F 80 01 27 02 02  ......2tr1...'..
01F0: 02 10 1D 80 80 0B 02 45  0E 80 F0 FF FF 7F F0 FF  .......E........
0200: FF 7F 32 6D 74 31 0F 80  01 27 02 02 02 10 1E 80  ..2mt1...'......
0210: 80 27 02 45 0E 80 F0 FF  FF 7F F0 FF FF 7F 32 67  .'.E..........2g
0220: 6C 31 0F 80 01 27 02 03  02 10 1F 80 2B 32 53 05  l1...'......+2S.
0230: 01 20 80 23 2B 32 53 05  01 21 80 23 5B 14 80 32  . .#+2S..!.#[..2
0240: 53 05 01 32 53 05 01 74  6C 61 31 6E F0 FF FF 7F  S..2S..tla1n....
0250: 1D 80 99 F0 FF FF 7F 1C  16 80 52 0E 80 F0 FF FF  ..........R.....
0260: 7F F0 FF FF 7F 32 68 6D  31 52 0E 80 F0 FF FF 7F  .....2hm1R......
0270: F0 FF FF 7F 32 68 66 31  52 0E 80 F0 FF FF 7F F0  ....2hf1R.......
0280: FF FF 7F 32 65 6D 31 52  0E 80 F0 FF FF 7F F0 FF  ...2em1R........
0290: FF 7F 32 65 66 31 52 0E  80 F0 FF FF 7F F0 FF FF  ..2ef1R.........
02A0: 7F 32 74 72 31 52 0E 80  F0 FF FF 7F F0 FF FF 7F  .2tr1R..........
02B0: 32 6D 74 31 52 0E 80 F0  FF FF 7F F0 FF FF 7F 32  2mt1R..........2
02C0: 67 6C 31 45 0E 80 F0 FF  FF 7F F0 FF FF 7F 73 30  gl1E..........s0
02D0: 32 62 0F 80 27 10 32 53  05 01 0A 1C 12 80 7B F0  2b..'.2S......{.
02E0: FF FF 7F 27 10 F0 FF FF  7F 0A 2A 10 32 53 05 01  ...'......*.2S..
02F0: 03 02 10 1F 80 2B 32 53  05 01 22 80 1C 16 80 23  .....+2S.."....#
0300: 2B 32 53 05 01 23 80 23  52 0E 80 F0 FF FF 7F F0  +2S..#.#R.......
0310: FF FF 7F 73 30 32 62 5B  24 80 32 53 05 01 32 53  ...s02b[$.2S..2S
0320: 05 01 66 64 30 30 4A 32  53 05 01 F0 FF FF 7F 45  ..fd00J2S......E
0330: 0E 80 F0 FF FF 7F F0 FF  FF 7F 73 30 32 63 0F 80  ..........s02c..
0340: 5B 25 80 32 53 05 01 32  53 05 01 74 68 62 31 2B  [%.2S..2S..thb1+
0350: 32 53 05 01 26 80 1C 12  80 23 45 0E 80 F0 FF FF  2S..&....#E.....
0360: 7F F0 FF FF 7F 73 30 32  64 0F 80 5B 24 80 32 53  .....s02d..[$.2S
0370: 05 01 32 53 05 01 66 30  30 30 1C 27 80 7C 00 32  ..2S..f000.'.|.2
0380: 53 05 01 29 10 32 53 05  01 0B 2B 32 53 05 01 28  S..).2S...+2S..(
0390: 80 23 5B 14 80 32 53 05  01 32 53 05 01 74 6C 62  .#[..2S..2S..tlb
03A0: 30 2B 32 53 05 01 29 80  1C 16 80 23 5B 14 80 32  0+2S..)....#[..2
03B0: 53 05 01 32 53 05 01 74  6C 62 31 2B 32 53 05 01  S..2S..tlb1+2S..
03C0: 2A 80 1C 16 80 23 2B 32  53 05 01 2B 80 23 1A E2  *....#+2S..+.#..
03D0: 13 1C 27 80 52 0E 80 F0  FF FF 7F F0 FF FF 7F 73  ..'.R..........s
03E0: 30 32 64 46 00 45 2C 80  F0 FF FF 7F F0 FF FF 7F  02dF.E,.........
03F0: 66 64 69 32 0F 80 21 00                           fdi2..!.        
```

#### Opcodes

```
  0: 0x0001 [0x42] SET_CLI_EVENT_CANCEL_DATA()
  1: 0x0002 [0x1A] CALL_SUBROUTINE(address=0x13E2)
  2: 0x0005 [0x46] CAMERA_CONTROL: Disable user control
  3: 0x0007 [0x38] SET_CLIENT_EVENT_MODE(mode=19*)
  4: 0x000A [0x4E] SET_ENTITY_HIDE_FLAG: Show LocalPlayer
  5: 0x0010 [0x27] REQ_SET(priority=0x10, entity_id=Lehko Habhoka (ID: 17126194/0x01055332), tag_num=0x04)
  6: 0x0017 [0x27] REQ_SET(priority=0x10, entity_id=Unnamed NPC (ID: 17126195/0x01055333), tag_num=0x04)
  7: 0x001E [0x92] Lehko Habhoka (ID: 17126194/0x01055332)->Render.Flags3 ^= 0x01
  8: 0x0024 [0x92] Unnamed NPC (ID: 17126195/0x01055333)->Render.Flags3 ^= 0x01
  9: 0x002A [0x94] LocalPlayer->Render.Flags3 ^= 0x01
 10: 0x0030 [0x94] Lehko Habhoka (ID: 17126194/0x01055332)->Render.Flags3 ^= 0x01
 11: 0x0036 [0x94] Unnamed NPC (ID: 17126195/0x01055333)->Render.Flags3 ^= 0x01
 12: 0x003C [0xBA] SET_ENTITY_POSITION(entity_id=LocalPlayer, pos_x=292.881*, pos_z=-233.198*, pos_y=2.273*, direction=56.6°*)
 13: 0x0049 [0xBA] SET_ENTITY_POSITION(entity_id=Lehko Habhoka (ID: 17126194/0x01055332), pos_x=281.578*, pos_z=-233.725*, pos_y=3.999*, direction=357.2°*)
 14: 0x0056 [0xBA] SET_ENTITY_POSITION(entity_id=Unnamed NPC (ID: 17126195/0x01055333), pos_x=293.397*, pos_z=-234.138*, pos_y=2.311*, direction=229.9°*)
 15: 0x0063 [0x80] LOAD_WAIT(entity=LocalPlayer)
 16: 0x0068 [0x80] LOAD_WAIT(entity=Lehko Habhoka (ID: 17126194/0x01055332))
 17: 0x006D [0x80] LOAD_WAIT(entity=Unnamed NPC (ID: 17126195/0x01055333))
 18: 0x0072 [0x81] SET_ENTITY_BLINKING(blink_flag=0x00, entity=Lehko Habhoka (ID: 17126194/0x01055332))
 19: 0x0078 [0x1C] WAIT(15* ticks)
 20: 0x007B [0x27] REQ_SET(priority=0x10, entity_id=LocalPlayer, tag_num=0x11)
 21: 0x0082 [0x2A] GET_REQ_LEVEL(level=16, entity_id=LocalPlayer)
 22: 0x0088 [0x45] LOAD_SCHEDULED_TASK: Load scheduler "s02a" with entities [LocalPlayer, LocalPlayer], work=[502*, 0*]
 23: 0x0099 [0x27] REQ_SET(priority=0x10, entity_id=Lehko Habhoka (ID: 17126194/0x01055332), tag_num=0x09)
 24: 0x00A0 [0x1A] CALL_SUBROUTINE(address=0x13C1)
 25: 0x00A3 [0x1C] WAIT(45* ticks)
 26: 0x00A6 [0x2C] CREATE_SCHEDULER_TASK: Create scheduler "ope2" with entities [Unnamed NPC (ID: 17126195/0x01055333), Unnamed NPC (ID: 17126195/0x01055333)]
 27: 0x00B3 [0x1C] WAIT(180* ticks)
 28: 0x00B6 [0x27] REQ_SET(priority=0x10, entity_id=LocalPlayer, tag_num=0x12)
 29: 0x00BD [0x2A] GET_REQ_LEVEL(level=16, entity_id=Lehko Habhoka (ID: 17126194/0x01055332))
 30: 0x00C3 [0x1C] WAIT(60* ticks)
 31: 0x00C6 [0x4A] LocalPlayer looks at Lehko Habhoka (ID: 17126194/0x01055332)
 32: 0x00CF [0x52] END_LOAD_SCHEDULER: End scheduler "s02a" with entities [LocalPlayer, LocalPlayer], work=502*
 33: 0x00DE [0x45] LOAD_SCHEDULED_TASK: Load scheduler "s02e" with entities [LocalPlayer, LocalPlayer], work=[502*, 0*]
 34: 0x00EF [0x2B] Lehko Habhoka (ID: 17126194/0x01055332) [8343*]:
    → "Looks like we've got the ingredients we came for, <Player>. Now, all we need to do is spice them up a bit...and we'll have a dish that'll be the hit of the party!"
 35: 0x00F6 [0x23] WAIT_FOR_DIALOG_INTERACTION
 36: 0x00F7 [0x52] END_LOAD_SCHEDULER: End scheduler "s02e" with entities [LocalPlayer, LocalPlayer], work=502*
 37: 0x0106 [0x45] LOAD_SCHEDULED_TASK: Load scheduler "s02f" with entities [LocalPlayer, LocalPlayer], work=[502*, 0*]
 38: 0x0117 [0x5B] LOAD_EXT_SCHEDULER: Load scheduler "tla0" with entities [Lehko Habhoka (ID: 17126194/0x01055332), Lehko Habhoka (ID: 17126194/0x01055332)], work=1443*
 39: 0x0126 [0x2B] Lehko Habhoka (ID: 17126194/0x01055332) [8344*]:
    → "I've heard of these stones being used in the making of particularly potent enchanted arrowheads. Let me take care of them. I've got a friend in the Windurst Boneworkers' Guild who owes me a favorrr or two."
 40: 0x012D [0x1C] WAIT(90* ticks)
 41: 0x0130 [0x23] WAIT_FOR_DIALOG_INTERACTION
 42: 0x0131 [0x52] END_LOAD_SCHEDULER: End scheduler "s02f" with entities [LocalPlayer, LocalPlayer], work=502*
 43: 0x0140 [0x29] REQ_SET_WAIT(priority=0x10, entity_id=LocalPlayer, tag_num=0x0F)
 44: 0x0147 [0x02] IF !(Work_Zone[2] == 1*) GOTO 0x0163
 45: 0x014F [0x45] LOAD_SCHEDULED_TASK: Load scheduler "2hm1" with entities [LocalPlayer, LocalPlayer], work=[502*, 0*]
 46: 0x0160 [0x01] GOTO 0x0227
 47: 0x0163 [0x02] IF !(Work_Zone[2] == 2*) GOTO 0x017F
 48: 0x016B [0x45] LOAD_SCHEDULED_TASK: Load scheduler "2hf1" with entities [LocalPlayer, LocalPlayer], work=[502*, 0*]
 49: 0x017C [0x01] GOTO 0x0227
 50: 0x017F [0x02] IF !(Work_Zone[2] == 3*) GOTO 0x019B
 51: 0x0187 [0x45] LOAD_SCHEDULED_TASK: Load scheduler "2em1" with entities [LocalPlayer, LocalPlayer], work=[502*, 0*]
 52: 0x0198 [0x01] GOTO 0x0227
 53: 0x019B [0x02] IF !(Work_Zone[2] == 4*) GOTO 0x01B7
 54: 0x01A3 [0x45] LOAD_SCHEDULED_TASK: Load scheduler "2ef1" with entities [LocalPlayer, LocalPlayer], work=[502*, 0*]
 55: 0x01B4 [0x01] GOTO 0x0227
 56: 0x01B7 [0x02] IF !(Work_Zone[2] == 5*) GOTO 0x01D3
 57: 0x01BF [0x45] LOAD_SCHEDULED_TASK: Load scheduler "2tr1" with entities [LocalPlayer, LocalPlayer], work=[502*, 0*]
 58: 0x01D0 [0x01] GOTO 0x0227
 59: 0x01D3 [0x02] IF !(Work_Zone[2] == 6*) GOTO 0x01EF
 60: 0x01DB [0x45] LOAD_SCHEDULED_TASK: Load scheduler "2tr1" with entities [LocalPlayer, LocalPlayer], work=[502*, 0*]
 61: 0x01EC [0x01] GOTO 0x0227
 62: 0x01EF [0x02] IF !(Work_Zone[2] == 7*) GOTO 0x020B
 63: 0x01F7 [0x45] LOAD_SCHEDULED_TASK: Load scheduler "2mt1" with entities [LocalPlayer, LocalPlayer], work=[502*, 0*]
 64: 0x0208 [0x01] GOTO 0x0227
 65: 0x020B [0x02] IF !(Work_Zone[2] == 8*) GOTO 0x0227
 66: 0x0213 [0x45] LOAD_SCHEDULED_TASK: Load scheduler "2gl1" with entities [LocalPlayer, LocalPlayer], work=[502*, 0*]
 67: 0x0224 [0x01] GOTO 0x0227

SUBROUTINE_0227:
 68: 0x0227 [0x03] Work_Zone[2] = 1080*
 69: 0x022C [0x2B] Lehko Habhoka (ID: 17126194/0x01055332) [8345*]:
    → "As for the cinders... If my memorrry serves, these are used in the casting of what we call $5."
 70: 0x0233 [0x23] WAIT_FOR_DIALOG_INTERACTION
 71: 0x0234 [0x2B] Lehko Habhoka (ID: 17126194/0x01055332) [8346*]:
    → "I'll leave them to you. We'll give those beastmen a welcome they won't soon forget."
 72: 0x023B [0x23] WAIT_FOR_DIALOG_INTERACTION
 73: 0x023C [0x5B] LOAD_EXT_SCHEDULER: Load scheduler "tla1" with entities [Lehko Habhoka (ID: 17126194/0x01055332), Lehko Habhoka (ID: 17126194/0x01055332)], work=1443*
 74: 0x024B [0x6E] LocalPlayer uses emote 7*
 75: 0x0252 [0x99] Wait for LocalPlayer animation to complete
 76: 0x0257 [0x1C] WAIT(90* ticks)
 77: 0x025A [0x52] END_LOAD_SCHEDULER: End scheduler "2hm1" with entities [LocalPlayer, LocalPlayer], work=502*
 78: 0x0269 [0x52] END_LOAD_SCHEDULER: End scheduler "2hf1" with entities [LocalPlayer, LocalPlayer], work=502*
 79: 0x0278 [0x52] END_LOAD_SCHEDULER: End scheduler "2em1" with entities [LocalPlayer, LocalPlayer], work=502*
 80: 0x0287 [0x52] END_LOAD_SCHEDULER: End scheduler "2ef1" with entities [LocalPlayer, LocalPlayer], work=502*
 81: 0x0296 [0x52] END_LOAD_SCHEDULER: End scheduler "2tr1" with entities [LocalPlayer, LocalPlayer], work=502*
 82: 0x02A5 [0x52] END_LOAD_SCHEDULER: End scheduler "2mt1" with entities [LocalPlayer, LocalPlayer], work=502*
 83: 0x02B4 [0x52] END_LOAD_SCHEDULER: End scheduler "2gl1" with entities [LocalPlayer, LocalPlayer], work=502*
 84: 0x02C3 [0x45] LOAD_SCHEDULED_TASK: Load scheduler "s02b" with entities [LocalPlayer, LocalPlayer], work=[502*, 0*]
 85: 0x02D4 [0x27] REQ_SET(priority=0x10, entity_id=Lehko Habhoka (ID: 17126194/0x01055332), tag_num=0x0A)
 86: 0x02DB [0x1C] WAIT(60* ticks)
 87: 0x02DE [0x7B] LocalPlayer stops talking
 88: 0x02E3 [0x27] REQ_SET(priority=0x10, entity_id=LocalPlayer, tag_num=0x0A)
 89: 0x02EA [0x2A] GET_REQ_LEVEL(level=16, entity_id=Lehko Habhoka (ID: 17126194/0x01055332))
 90: 0x02F0 [0x03] Work_Zone[2] = 1080*
 91: 0x02F5 [0x2B] Lehko Habhoka (ID: 17126194/0x01055332) [8347*]:
    → "Now, the only place I rrrecall that could handle an order for $5 is the Gunpowder Room in Bastok."
 92: 0x02FC [0x1C] WAIT(90* ticks)
 93: 0x02FF [0x23] WAIT_FOR_DIALOG_INTERACTION
 94: 0x0300 [0x2B] Lehko Habhoka (ID: 17126194/0x01055332) [8348*]:
    → "But they've sealed their gates tight to outsiders ever since the war began..."
 95: 0x0307 [0x23] WAIT_FOR_DIALOG_INTERACTION
 96: 0x0308 [0x52] END_LOAD_SCHEDULER: End scheduler "s02b" with entities [LocalPlayer, LocalPlayer], work=502*
 97: 0x0317 [0x5B] LOAD_EXT_SCHEDULER: Load scheduler "fd00" with entities [Lehko Habhoka (ID: 17126194/0x01055332), Lehko Habhoka (ID: 17126194/0x01055332)], work=1442*
 98: 0x0326 [0x4A] Lehko Habhoka (ID: 17126194/0x01055332) looks at LocalPlayer
 99: 0x032F [0x45] LOAD_SCHEDULED_TASK: Load scheduler "s02c" with entities [LocalPlayer, LocalPlayer], work=[502*, 0*]
100: 0x0340 [0x5B] LOAD_EXT_SCHEDULER: Load scheduler "thb1" with entities [Lehko Habhoka (ID: 17126194/0x01055332), Lehko Habhoka (ID: 17126194/0x01055332)], work=1446*
101: 0x034F [0x2B] Lehko Habhoka (ID: 17126194/0x01055332) [8349*]:
    → "If we were to go there now, we'd be turrrned away without a second thought."
102: 0x0356 [0x1C] WAIT(60* ticks)
103: 0x0359 [0x23] WAIT_FOR_DIALOG_INTERACTION
104: 0x035A [0x45] LOAD_SCHEDULED_TASK: Load scheduler "s02d" with entities [LocalPlayer, LocalPlayer], work=[502*, 0*]
105: 0x036B [0x5B] LOAD_EXT_SCHEDULER: Load scheduler "f000" with entities [Lehko Habhoka (ID: 17126194/0x01055332), Lehko Habhoka (ID: 17126194/0x01055332)], work=1442*
106: 0x037A [0x1C] WAIT(30* ticks)
107: 0x037D [0x7C] Lehko Habhoka (ID: 17126194/0x01055332)->Render.Flags2 |= 0x00
108: 0x0383 [0x29] REQ_SET_WAIT(priority=0x10, entity_id=Lehko Habhoka (ID: 17126194/0x01055332), tag_num=0x0B)
109: 0x038A [0x2B] Lehko Habhoka (ID: 17126194/0x01055332) [8350*]:
    → "But you already know what I'm thinking...don't you, <Player>?"
110: 0x0391 [0x23] WAIT_FOR_DIALOG_INTERACTION
111: 0x0392 [0x5B] LOAD_EXT_SCHEDULER: Load scheduler "tlb0" with entities [Lehko Habhoka (ID: 17126194/0x01055332), Lehko Habhoka (ID: 17126194/0x01055332)], work=1443*
112: 0x03A1 [0x2B] Lehko Habhoka (ID: 17126194/0x01055332) [8351*]:
    → "It's time for you to help us, in the way that only you can..."
113: 0x03A8 [0x1C] WAIT(90* ticks)
114: 0x03AB [0x23] WAIT_FOR_DIALOG_INTERACTION
115: 0x03AC [0x5B] LOAD_EXT_SCHEDULER: Load scheduler "tlb1" with entities [Lehko Habhoka (ID: 17126194/0x01055332), Lehko Habhoka (ID: 17126194/0x01055332)], work=1443*
116: 0x03BB [0x2B] Lehko Habhoka (ID: 17126194/0x01055332) [8352*]:
    → "We'll be waiting for you at Fort Karugo-Narugo. And do hurry...our guests are unlikely to have qualms about arriving early."
117: 0x03C2 [0x1C] WAIT(90* ticks)
118: 0x03C5 [0x23] WAIT_FOR_DIALOG_INTERACTION
119: 0x03C6 [0x2B] Lehko Habhoka (ID: 17126194/0x01055332) [8353*]:
    → "May the Goddess protect you!"
120: 0x03CD [0x23] WAIT_FOR_DIALOG_INTERACTION
121: 0x03CE [0x1A] CALL_SUBROUTINE(address=0x13E2)
122: 0x03D1 [0x1C] WAIT(30* ticks)
123: 0x03D4 [0x52] END_LOAD_SCHEDULER: End scheduler "s02d" with entities [LocalPlayer, LocalPlayer], work=502*
124: 0x03E3 [0x46] CAMERA_CONTROL: Restore default settings
125: 0x03E5 [0x45] LOAD_SCHEDULED_TASK: Load scheduler "fdi2" with entities [LocalPlayer, LocalPlayer], work=[200*, 0*]
126: 0x03F6 [0x21] END_EVENT
127: 0x03F7 [0x00] END_REQSTACK()
```

### Event 5

#### Metadata

| Field        | Value      |
|--------------|------------|
| Entrypoint   | 0x03F8     |
| Data Size    | 4632 bytes |
| Instructions | 420        |

```
      00 01 02 03 04 05 06 07  08 09 0A 0B 0C 0D 0E 0F
      -- -- -- -- -- -- -- --  -- -- -- -- -- -- -- --
03F0:                          42 1A E2 13 46 01 38 00          B...F.8.
0400: 80 27 10 F9 52 05 01 04  27 10 1F 53 05 01 02 27  .'..R...'..S...'
0410: 10 02 53 05 01 04 27 10  04 53 05 01 04 27 10 07  ..S...'..S...'..
0420: 53 05 01 04 27 10 08 53  05 01 04 27 10 0E 53 05  S...'..S...'..S.
0430: 01 02 27 10 0F 53 05 01  04 27 10 10 53 05 01 04  ..'..S...'..S...
0440: 27 10 FE 52 05 01 04 27  10 FF 52 05 01 04 2F 00  '..R...'..R.../.
0450: FB 52 05 01 4E 00 FB 52  05 01 92 01 F9 52 05 01  .R..N..R.....R..
0460: 92 01 FB 52 05 01 92 01  1F 53 05 01 92 01 02 53  ...R.....S.....S
0470: 05 01 92 01 04 53 05 01  92 01 07 53 05 01 92 01  .....S.....S....
0480: 08 53 05 01 92 01 0E 53  05 01 92 01 0F 53 05 01  .S.....S.....S..
0490: 92 01 10 53 05 01 92 01  FE 52 05 01 92 01 FF 52  ...S.....R.....R
04A0: 05 01 94 01 F0 FF FF 7F  94 01 F9 52 05 01 94 01  ...........R....
04B0: FB 52 05 01 94 01 1F 53  05 01 94 01 02 53 05 01  .R.....S.....S..
04C0: 94 01 04 53 05 01 94 01  07 53 05 01 94 01 08 53  ...S.....S.....S
04D0: 05 01 94 01 0E 53 05 01  94 01 0F 53 05 01 94 01  .....S.....S....
04E0: 10 53 05 01 94 01 FE 52  05 01 94 01 FF 52 05 01  .S.....R.....R..
04F0: BA F0 FF FF 7F 2D 80 2E  80 2F 80 30 80 80 F0 FF  .....-.../.0....
0500: FF 7F 80 F9 52 05 01 80  FB 52 05 01 80 1F 53 05  ....R....R....S.
0510: 01 80 02 53 05 01 80 04  53 05 01 80 07 53 05 01  ...S....S....S..
0520: 80 08 53 05 01 80 34 53  05 01 4A F0 FF FF 7F 34  ..S...4S..J....4
0530: 53 05 01 27 10 1F 53 05  01 0E 27 10 07 53 05 01  S..'..S...'..S..
0540: 0E 27 10 08 53 05 01 12  27 10 0F 53 05 01 0F 27  .'..S...'..S...'
0550: 10 10 53 05 01 10 1C 31  80 45 32 80 F0 FF FF 7F  ..S....1.E2.....
0560: F0 FF FF 7F 30 30 30 31  0F 80 1A C1 13 1C 11 80  ....0001........
0570: 5D 0F 80 16 80 1A 24 14  52 32 80 F0 FF FF 7F F0  ].....$.R2......
0580: FF FF 7F 30 30 30 31 77  33 80 18 80 4E 01 34 53  ...0001w3...N.4S
0590: 05 01 1C 12 80 5C 00 0F  80 5C 01 0F 80 5C 02 0F  .....\...\...\..
05A0: 80 5C 03 0F 80 9A BA F0  FF FF 7F 34 80 35 80 36  .\.........4.5.6
05B0: 80 0F 80 BA F9 52 05 01  37 80 38 80 39 80 3A 80  .....R..7.8.9.:.
05C0: BA FB 52 05 01 3B 80 3C  80 39 80 3D 80 27 10 04  ..R..;.<.9.=.'..
05D0: 53 05 01 0F BA 02 53 05  01 3E 80 3F 80 40 80 41  S.....S..>.?.@.A
05E0: 80 BA 07 53 05 01 42 80  43 80 44 80 45 80 BA 08  ...S..B.C.D.E...
05F0: 53 05 01 46 80 47 80 07  80 48 80 BA FE 52 05 01  S..F.G...H...R..
0600: 49 80 4A 80 4B 80 4C 80  27 10 0E 53 05 01 0A 27  I.J.K.L.'..S...'
0610: 10 0F 53 05 01 0E 27 10  10 53 05 01 0F BA 0F 53  ..S...'..S.....S
0620: 05 01 4D 80 4E 80 07 80  4F 80 BA 10 53 05 01 50  ..M.N...O...S..P
0630: 80 51 80 07 80 52 80 1C  11 80 27 10 FB 52 05 01  .Q...R....'..R..
0640: 11 27 10 0F 53 05 01 10  27 10 10 53 05 01 0E 1C  .'..S...'..S....
0650: 12 80 45 53 80 F0 FF FF  7F F0 FF FF 7F 32 36 33  ..ES.........263
0660: 39 0F 80 5B 54 80 04 53  05 01 04 53 05 01 74 6F  9..[T..S...S..to
0670: 6E 63 5B 55 80 1F 53 05  01 1F 53 05 01 75 64 65  nc[U..S...S..ude
0680: 30 5B 56 80 FF 52 05 01  FF 52 05 01 74 6C 6B 31  0[V..R...R..tlk1
0690: 1C 11 80 5C 00 57 80 5C  01 57 80 5C 02 57 80 5C  ...\.W.\.W.\.W.\
06A0: 03 57 80 9A 6A 0F 80 16  80 1E 80 1C 12 80 27 10  .W..j.........'.
06B0: 16 53 05 01 04 27 10 17  53 05 01 04 92 01 16 53  .S...'..S......S
06C0: 05 01 92 01 17 53 05 01  94 01 16 53 05 01 94 01  .....S.....S....
06D0: 17 53 05 01 80 16 53 05  01 80 17 53 05 01 27 10  .S....S....S..'.
06E0: 17 53 05 01 09 27 10 16  53 05 01 0C 1C 12 80 52  .S...'..S......R
06F0: 53 80 F0 FF FF 7F F0 FF  FF 7F 32 36 33 39 45 53  S.........2639ES
0700: 80 F0 FF FF 7F F0 FF FF  7F 32 36 35 36 0F 80 45  .........2656..E
0710: 53 80 F0 FF FF 7F F0 FF  FF 7F 6B 61 69 6E 0F 80  S.........kain..
0720: BB 58 80 16 53 05 01 16  53 05 01 73 30 30 30 0F  .X..S...S..s000.
0730: 80 BB 58 80 17 53 05 01  17 53 05 01 73 30 30 30  ..X..S...S..s000
0740: 0F 80 5B 59 80 FE 52 05  01 FE 52 05 01 6B 69 63  ..[Y..R...R..kic
0750: 32 1A 03 14 1C 31 80 52  53 80 F0 FF FF 7F F0 FF  2....1.RS.......
0760: FF 7F 32 36 34 37 1C 27  80 27 10 0F 53 05 01 0D  ..2647.'.'..S...
0770: 45 53 80 F0 FF FF 7F F0  FF FF 7F 6F 76 72 61 0F  ES.........ovra.
0780: 80 45 53 80 F0 FF FF 7F  F0 FF FF 7F 32 36 34 33  .ES.........2643
0790: 0F 80 27 10 F7 52 05 01  0F 1C 10 80 27 10 10 53  ..'..R......'..S
07A0: 05 01 0D 4A 07 53 05 01  17 53 05 01 1C 12 80 6B  ...J.S...S.....k
07B0: 69 64 6C 30 04 53 05 01  BA 02 53 05 01 5A 80 5B  idl0.S....S..Z.[
07C0: 80 5C 80 5D 80 BA 04 53  05 01 5E 80 5F 80 60 80  .\.]...S..^._.`.
07D0: 61 80 BA F9 52 05 01 37  80 38 80 39 80 3A 80 1C  a...R..7.8.9.:..
07E0: 62 80 4A 07 53 05 01 FB  52 05 01 7B 07 53 05 01  b.J.S...R..{.S..
07F0: 7B 08 53 05 01 5B 63 80  08 53 05 01 08 53 05 01  {.S..[c..S...S..
0800: 70 61 70 32 1C 27 80 52  53 80 F0 FF FF 7F F0 FF  pap2.'.RS.......
0810: FF 7F 32 36 34 33 45 53  80 F0 FF FF 7F F0 FF FF  ..2643ES........
0820: 7F 6F 76 72 61 0F 80 45  53 80 F0 FF FF 7F F0 FF  .ovra..ES.......
0830: FF 7F 32 36 34 35 0F 80  5B 63 80 FB 52 05 01 FB  ..2645..[c..R...
0840: 52 05 01 70 61 70 30 5B  64 80 02 53 05 01 02 53  R..pap0[d..S...S
0850: 05 01 79 61 72 30 5B 65  80 04 53 05 01 04 53 05  ..yar0[e..S...S.
0860: 01 6B 6A 69 6C 5B 65 80  07 53 05 01 07 53 05 01  .kjil[e..S...S..
0870: 6B 6A 69 6C 7A 00 0F 53  05 01 7A 00 10 53 05 01  kjilz..S..z..S..
0880: 27 10 0F 53 05 01 0F 27  10 10 53 05 01 10 1C 12  '..S...'..S.....
0890: 80 5B 66 80 F9 52 05 01  F9 52 05 01 66 6A 30 30  .[f..R...R..fj00
08A0: 5B 67 80 F9 52 05 01 F9  52 05 01 62 61 30 30 1C  [g..R...R..ba00.
08B0: 68 80 5B 69 80 0E 53 05  01 0E 53 05 01 72 61 76  h.[i..S...S..rav
08C0: 30 BB 6A 80 0E 53 05 01  0E 53 05 01 73 74 30 31  0.j..S...S..st01
08D0: 0F 80 27 10 F6 52 05 01  09 1C 1B 80 52 53 80 F0  ..'..R......RS..
08E0: FF FF 7F F0 FF FF 7F 32  36 34 35 45 53 80 F0 FF  .......2645ES...
08F0: FF 7F F0 FF FF 7F 32 36  36 31 0F 80 BA 07 53 05  ......2661....S.
0900: 01 6B 80 6C 80 07 80 6D  80 BA FB 52 05 01 6E 80  .k.l...m...R..n.
0910: 6F 80 5C 80 70 80 1C 27  80 5B 69 80 10 53 05 01  o.\.p..'.[i..S..
0920: 10 53 05 01 72 61 76 30  BB 6A 80 10 53 05 01 10  .S..rav0.j..S...
0930: 53 05 01 73 74 30 31 0F  80 BA 10 53 05 01 71 80  S..st01....S..q.
0940: 72 80 07 80 73 80 1C 0D  80 5B 69 80 0F 53 05 01  r...s....[i..S..
0950: 0F 53 05 01 72 61 76 31  BB 6A 80 0F 53 05 01 0F  .S..rav1.j..S...
0960: 53 05 01 73 74 30 32 0F  80 BA 0F 53 05 01 74 80  S..st02....S..t.
0970: 75 80 07 80 76 80 1C 12  80 52 53 80 F0 FF FF 7F  u...v....RS.....
0980: F0 FF FF 7F 32 36 36 31  45 53 80 F0 FF FF 7F F0  ....2661ES......
0990: FF FF 7F 32 36 36 33 0F  80 5B 69 80 10 53 05 01  ...2663..[i..S..
09A0: 10 53 05 01 72 61 76 30  BB 6A 80 10 53 05 01 10  .S..rav0.j..S...
09B0: 53 05 01 73 74 30 31 0F  80 BA 10 53 05 01 77 80  S..st01....S..w.
09C0: 78 80 79 80 7A 80 1C 7B  80 5B 69 80 0F 53 05 01  x.y.z..{.[i..S..
09D0: 0F 53 05 01 72 61 76 30  BB 6A 80 0F 53 05 01 0F  .S..rav0.j..S...
09E0: 53 05 01 73 74 30 31 0F  80 BA 0F 53 05 01 7C 80  S..st01....S..|.
09F0: 7D 80 07 80 7E 80 BB 45  80 FE 52 05 01 FE 52 05  }...~..E..R...R.
0A00: 01 00 FE FE FE 0F 80 1C  12 80 BB 58 80 17 53 05  ...........X..S.
0A10: 01 17 53 05 01 6B 6C 30  30 0F 80 BB 58 80 16 53  ..S..kl00...X..S
0A20: 05 01 16 53 05 01 6B 6C  30 30 0F 80 1C 16 80 27  ...S..kl00.....'
0A30: 10 F7 52 05 01 0C 1C 27  80 52 53 80 F0 FF FF 7F  ..R....'.RS.....
0A40: F0 FF FF 7F 32 36 36 33  45 53 80 F0 FF FF 7F F0  ....2663ES......
0A50: FF FF 7F 6F 76 72 61 0F  80 45 53 80 F0 FF FF 7F  ...ovra..ES.....
0A60: F0 FF FF 7F 32 38 31 38  0F 80 1C 27 80 5B 59 80  ....2818...'.[Y.
0A70: FE 52 05 01 FE 52 05 01  6B 69 63 33 1C 31 80 27  .R...R..kic3.1.'
0A80: 10 1F 53 05 01 0A 1C 31  80 27 10 1F 53 05 01 03  ..S....1.'..S...
0A90: 52 53 80 F0 FF FF 7F F0  FF FF 7F 32 38 31 38 45  RS.........2818E
0AA0: 53 80 F0 FF FF 7F F0 FF  FF 7F 6F 76 72 61 0F 80  S.........ovra..
0AB0: 45 53 80 F0 FF FF 7F F0  FF FF 7F 32 36 36 36 0F  ES.........2666.
0AC0: 80 1C 27 80 BB 58 80 16  53 05 01 16 53 05 01 73  ..'..X..S...S..s
0AD0: 30 30 30 0F 80 BB 58 80  17 53 05 01 17 53 05 01  000...X..S...S..
0AE0: 73 30 30 30 0F 80 27 10  16 53 05 01 10 27 10 17  s000..'..S...'..
0AF0: 53 05 01 09 BB 45 80 FE  52 05 01 FE 52 05 01 6B  S....E..R...R..k
0B00: 69 6C 61 0F 80 5B 7F 80  FE 52 05 01 FE 52 05 01  ila..[...R...R..
0B10: 74 6C 6B 30 1C 27 80 4E  01 FE 52 05 01 1C 12 80  tlk0.'.N..R.....
0B20: 5B 67 80 F9 52 05 01 F9  52 05 01 62 61 30 31 1C  [g..R...R..ba01.
0B30: 27 80 52 53 80 F0 FF FF  7F F0 FF FF 7F 32 36 36  '.RS.........266
0B40: 36 45 53 80 F0 FF FF 7F  F0 FF FF 7F 32 36 36 37  6ES.........2667
0B50: 0F 80 BA F0 FF FF 7F 80  80 81 80 4B 80 82 80 BA  ...........K....
0B60: 10 53 05 01 83 80 84 80  4B 80 85 80 BA FF 52 05  .S......K.....R.
0B70: 01 86 80 87 80 4B 80 88  80 BA 0F 53 05 01 89 80  .....K.....S....
0B80: 8A 80 4B 80 8B 80 BA 10  53 05 01 83 80 84 80 4B  ..K.....S......K
0B90: 80 85 80 BA 0E 53 05 01  8C 80 8D 80 8E 80 8F 80  .....S..........
0BA0: 27 10 F0 FF FF 7F 13 1C  31 80 81 00 F9 52 05 01  '.......1....R..
0BB0: 5B 66 80 F9 52 05 01 F9  52 05 01 66 30 30 30 5B  [f..R...R..f000[
0BC0: 90 80 F9 52 05 01 F9 52  05 01 6B 69 7A 33 5B 91  ...R...R..kiz3[.
0BD0: 80 07 53 05 01 07 53 05  01 6B 61 6E 32 5B 92 80  ..S...S..kan2[..
0BE0: 0F 53 05 01 0F 53 05 01  73 70 70 34 5B 93 80 10  .S...S..spp4[...
0BF0: 53 05 01 10 53 05 01 73  70 70 31 2C 0E 53 05 01  S...S..spp1,.S..
0C00: 0E 53 05 01 64 65 61 64  1C 12 80 1C 27 80 5B 94  .S..dead....'.[.
0C10: 80 FF 52 05 01 FF 52 05  01 64 72 61 30 52 53 80  ..R...R..dra0RS.
0C20: F0 FF FF 7F F0 FF FF 7F  32 36 36 37 52 53 80 F0  ........2667RS..
0C30: FF FF 7F F0 FF FF 7F 32  36 37 36 45 53 80 F0 FF  .......2676ES...
0C40: FF 7F F0 FF FF 7F 6F 76  72 61 0F 80 45 53 80 F0  ......ovra..ES..
0C50: FF FF 7F F0 FF FF 7F 32  37 35 30 0F 80 27 10 1F  .......2750..'..
0C60: 53 05 01 0D 1C 31 80 BB  58 80 16 53 05 01 16 53  S....1..X..S...S
0C70: 05 01 6B 6C 30 30 0F 80  BB 58 80 17 53 05 01 17  ..kl00...X..S...
0C80: 53 05 01 6B 6C 30 30 0F  80 5B 95 80 1F 53 05 01  S..kl00..[...S..
0C90: 1F 53 05 01 73 68 64 30  1C 16 80 52 53 80 F0 FF  .S..shd0...RS...
0CA0: FF 7F F0 FF FF 7F 32 37  35 30 45 53 80 F0 FF FF  ......2750ES....
0CB0: 7F F0 FF FF 7F 32 37 35  32 0F 80 BB 96 80 1F 53  .....2752......S
0CC0: 05 01 1F 53 05 01 73 30  30 31 0F 80 BA 1F 53 05  ...S..s001....S.
0CD0: 01 97 80 98 80 4B 80 99  80 1C 27 80 BA F9 52 05  .....K....'...R.
0CE0: 01 9A 80 9B 80 9C 80 0F  80 27 10 07 53 05 01 0D  .........'..S...
0CF0: 2C 0E 53 05 01 0E 53 05  01 64 65 61 64 1C 12 80  ,.S...S..dead...
0D00: BA 07 53 05 01 9A 80 9B  80 9C 80 0F 80 1C 9D 80  ..S.............
0D10: 81 00 F9 52 05 01 5B 66  80 F9 52 05 01 F9 52 05  ...R..[f..R...R.
0D20: 01 66 30 30 30 5B 90 80  F9 52 05 01 F9 52 05 01  .f000[...R...R..
0D30: 6B 69 7A 33 5B 91 80 07  53 05 01 07 53 05 01 6B  kiz3[...S...S..k
0D40: 61 6E 32 1C 9D 80 52 53  80 F0 FF FF 7F F0 FF FF  an2...RS........
0D50: 7F 32 37 35 32 45 53 80  F0 FF FF 7F F0 FF FF 7F  .2752ES.........
0D60: 32 37 35 33 0F 80 BB 96  80 1F 53 05 01 1F 53 05  2753......S...S.
0D70: 01 73 30 30 32 0F 80 BA  FF 52 05 01 86 80 87 80  .s002....R......
0D80: 4B 80 9E 80 5B 9F 80 FF  52 05 01 FF 52 05 01 6B  K...[...R...R..k
0D90: 6F 69 30 1C A0 80 52 53  80 F0 FF FF 7F F0 FF FF  oi0...RS........
0DA0: 7F 32 37 35 33 45 53 80  F0 FF FF 7F F0 FF FF 7F  .2753ES.........
0DB0: 32 37 35 34 0F 80 BB 96  80 1F 53 05 01 1F 53 05  2754......S...S.
0DC0: 01 73 30 30 33 0F 80 1C  A1 80 1C A2 80 52 53 80  .s003........RS.
0DD0: F0 FF FF 7F F0 FF FF 7F  32 36 36 37 45 53 80 F0  ........2667ES..
0DE0: FF FF 7F F0 FF FF 7F 6F  76 72 61 0F 80 45 53 80  .......ovra..ES.
0DF0: F0 FF FF 7F F0 FF FF 7F  6C 73 31 34 0F 80 5B A3  ........ls14..[.
0E00: 80 F9 52 05 01 F9 52 05  01 6B 69 7A 34 1C 12 80  ..R...R..kiz4...
0E10: 27 10 1F 53 05 01 0E 27  10 08 53 05 01 11 BB 96  '..S...'..S.....
0E20: 80 1F 53 05 01 1F 53 05  01 73 30 30 35 0F 80 59  ..S...S..s005..Y
0E30: 05 FF 52 05 01 01 BA FF  52 05 01 A4 80 A5 80 A6  ..R.....R.......
0E40: 80 A7 80 BA 08 53 05 01  A8 80 A9 80 4B 80 AA 80  .....S......K...
0E50: 1C AB 80 4E 01 1F 53 05  01 7B FB 52 05 01 5B 94  ...N..S..{.R..[.
0E60: 80 FF 52 05 01 FF 52 05  01 62 61 6E 30 27 10 FB  ..R...R..ban0'..
0E70: 52 05 01 0F 1C AB 80 52  53 80 F0 FF FF 7F F0 FF  R......RS.......
0E80: FF 7F 6C 73 31 34 45 53  80 F0 FF FF 7F F0 FF FF  ..ls14ES........
0E90: 7F 73 70 31 32 0F 80 5B  AC 80 08 53 05 01 08 53  .sp12..[...S...S
0EA0: 05 01 76 73 62 30 5B AC  80 FB 52 05 01 FB 52 05  ..vsb0[...R...R.
0EB0: 01 76 73 61 30 BA FB 52  05 01 A8 80 A9 80 4B 80  .vsa0..R......K.
0EC0: AA 80 BB AD 80 08 53 05  01 08 53 05 01 73 30 30  ......S...S..s00
0ED0: 32 0F 80 1C 12 80 52 53  80 F0 FF FF 7F F0 FF FF  2.....RS........
0EE0: 7F 73 70 31 32 45 53 80  F0 FF FF 7F F0 FF FF 7F  .sp12ES.........
0EF0: 73 70 31 31 0F 80 5B AC  80 08 53 05 01 08 53 05  sp11..[...S...S.
0F00: 01 76 73 62 30 5B AC 80  FB 52 05 01 FB 52 05 01  .vsb0[...R...R..
0F10: 76 73 61 30 BB AD 80 08  53 05 01 08 53 05 01 73  vsa0....S...S..s
0F20: 30 30 32 0F 80 1C 16 80  52 53 80 F0 FF FF 7F F0  002.....RS......
0F30: FF FF 7F 73 70 31 31 45  53 80 F0 FF FF 7F F0 FF  ...sp11ES.......
0F40: FF 7F 73 70 31 33 0F 80  1C 31 80 52 53 80 F0 FF  ..sp13...1.RS...
0F50: FF 7F F0 FF FF 7F 73 70  31 33 45 53 80 F0 FF FF  ......sp13ES....
0F60: 7F F0 FF FF 7F 73 70 31  34 0F 80 BA F0 FF FF 7F  .....sp14.......
0F70: AE 80 AF 80 4B 80 B0 80  BA F9 52 05 01 B1 80 B2  ....K.....R.....
0F80: 80 4B 80 B3 80 BA 07 53  05 01 B4 80 B5 80 B6 80  .K.....S........
0F90: B7 80 4A F0 FF FF 7F 0E  53 05 01 79 00 F0 FF FF  ..J.....S..y....
0FA0: 7F FB 52 05 01 5B B8 80  07 53 05 01 07 53 05 01  ..R..[...S...S..
0FB0: 6C 6F 76 31 5B 66 80 F9  52 05 01 F9 52 05 01 66  lov1[f..R...R..f
0FC0: 69 30 30 5B 67 80 F9 52  05 01 F9 52 05 01 62 61  i00[g..R...R..ba
0FD0: 30 30 1C 31 80 52 53 80  F0 FF FF 7F F0 FF FF 7F  00.1.RS.........
0FE0: 73 70 31 34 45 53 80 F0  FF FF 7F F0 FF FF 7F 32  sp14ES.........2
0FF0: 37 31 39 0F 80 1C 27 80  BB B9 80 FF 52 05 01 FF  719...'.....R...
1000: 52 05 01 73 74 30 31 0F  80 1C AB 80 52 53 80 F0  R..st01.....RS..
1010: FF FF 7F F0 FF FF 7F 32  37 31 39 45 53 80 F0 FF  .......2719ES...
1020: FF 7F F0 FF FF 7F 32 37  31 38 0F 80 1C 12 80 52  ......2718.....R
1030: 53 80 F0 FF FF 7F F0 FF  FF 7F 32 37 31 38 45 53  S.........2718ES
1040: 80 F0 FF FF 7F F0 FF FF  7F 73 70 31 38 0F 80 5B  .........sp18..[
1050: 66 80 F9 52 05 01 F9 52  05 01 66 69 30 31 5B 67  f..R...R..fi01[g
1060: 80 F9 52 05 01 F9 52 05  01 62 61 30 31 1C 0D 80  ..R...R..ba01...
1070: 1C 27 80 52 53 80 F0 FF  FF 7F F0 FF FF 7F 73 70  .'.RS.........sp
1080: 31 38 45 53 80 F0 FF FF  7F F0 FF FF 7F 32 37 32  18ES.........272
1090: 30 0F 80 1C 27 80 BB B9  80 FF 52 05 01 FF 52 05  0...'.....R...R.
10A0: 01 73 74 30 32 0F 80 45  53 80 FF 52 05 01 FF 52  .st02..ES..R...R
10B0: 05 01 6E 73 65 31 0F 80  1C 16 80 52 53 80 F0 FF  ..nse1.....RS...
10C0: FF 7F F0 FF FF 7F 32 37  32 30 45 53 80 F0 FF FF  ......2720ES....
10D0: 7F F0 FF FF 7F 32 37 32  33 0F 80 55 53 80 F0 FF  .....2723..US...
10E0: FF 7F F0 FF FF 7F 32 37  32 33 45 53 80 F0 FF FF  ......2723ES....
10F0: 7F F0 FF FF 7F 32 37 32  31 0F 80 27 10 F0 FF FF  .....2721..'....
1100: 7F 14 BA F9 52 05 01 BA  80 BB 80 BC 80 BD 80 BA  ....R...........
1110: F0 FF FF 7F BE 80 BF 80  C0 80 BD 80 BA 07 53 05  ..............S.
1120: 01 0F 80 0F 80 0F 80 0F  80 5B C1 80 FB 52 05 01  .........[...R..
1130: FB 52 05 01 66 6B 69 30  BB C2 80 FB 52 05 01 FB  .R..fki0....R...
1140: 52 05 01 73 74 30 31 0F  80 5B AC 80 08 53 05 01  R..st01..[...S..
1150: 08 53 05 01 76 73 62 6C  1C 12 80 5B 66 80 F9 52  .S..vsbl...[f..R
1160: 05 01 F9 52 05 01 66 64  30 31 5B C3 80 F9 52 05  ...R..fd01[...R.
1170: 01 F9 52 05 01 74 6C 64  30 1C 12 80 52 53 80 F0  ..R..tld0...RS..
1180: FF FF 7F F0 FF FF 7F 32  37 32 31 45 53 80 F0 FF  .......2721ES...
1190: FF 7F F0 FF FF 7F 32 37  32 35 0F 80 4A F9 52 05  ......2725..J.R.
11A0: 01 F0 FF FF 7F 4A F0 FF  FF 7F F9 52 05 01 27 10  .....J.....R..'.
11B0: F7 52 05 01 0A 1C C4 80  52 53 80 F0 FF FF 7F F0  .R......RS......
11C0: FF FF 7F 32 37 32 35 45  53 80 F0 FF FF 7F F0 FF  ...2725ES.......
11D0: FF 7F 6F 76 72 61 0F 80  45 53 80 F0 FF FF 7F F0  ..ovra..ES......
11E0: FF FF 7F 31 30 31 39 0F  80 53 F9 52 05 01 F9 52  ...1019..S.R...R
11F0: 05 01 74 6C 64 31 5B C5  80 F9 52 05 01 F9 52 05  ..tld1[...R...R.
1200: 01 74 68 62 30 BB B9 80  FF 52 05 01 FF 52 05 01  .thb0....R...R..
1210: 6B 69 6C 61 0F 80 1C 16  80 52 53 80 F0 FF FF 7F  kila.....RS.....
1220: F0 FF FF 7F 31 30 31 39  45 53 80 F0 FF FF 7F F0  ....1019ES......
1230: FF FF 7F 31 30 32 30 0F  80 1C 16 80 53 F9 52 05  ...1020.....S.R.
1240: 01 F9 52 05 01 74 68 62  30 5B 66 80 F9 52 05 01  ..R..thb0[f..R..
1250: F9 52 05 01 66 62 30 31  52 53 80 F0 FF FF 7F F0  .R..fb01RS......
1260: FF FF 7F 31 30 32 30 45  53 80 F0 FF FF 7F F0 FF  ...1020ES.......
1270: FF 7F 31 30 32 32 0F 80  1C AB 80 52 53 80 F0 FF  ..1022.....RS...
1280: FF 7F F0 FF FF 7F 31 30  32 32 45 53 80 F0 FF FF  ......1022ES....
1290: 7F F0 FF FF 7F 31 30 32  31 0F 80 1C C6 80 5D 0F  .....1021.....].
12A0: 80 C6 80 5D 0F 80 16 80  1A 24 14 27 10 1F 53 05  ...].....$.'..S.
12B0: 01 0E 27 10 07 53 05 01  0E 27 10 08 53 05 01 12  ..'..S...'..S...
12C0: 27 10 0F 53 05 01 0F 27  10 10 53 05 01 10 27 10  '..S...'..S...'.
12D0: FB 52 05 01 13 BA F0 FF  FF 7F 2D 80 2E 80 2F 80  .R........-.../.
12E0: 30 80 1C 12 80 5C 00 0F  80 5C 01 0F 80 5C 02 0F  0....\...\...\..
12F0: 80 5C 03 0F 80 9A 69 00  1E 80 78 45 53 80 F0 FF  .\....i...xES...
1300: FF 7F F0 FF FF 7F 6B 61  69 66 0F 80 4E 00 34 53  ......kaif..N.4S
1310: 05 01 4A F0 FF FF 7F 34  53 05 01 1C 11 80 45 2C  ..J....4S.....E,
1320: 80 F0 FF FF 7F F0 FF FF  7F 62 6C 6F 66 0F 80 52  .........blof..R
1330: 53 80 F0 FF FF 7F F0 FF  FF 7F 31 30 32 31 45 32  S.........1021E2
1340: 80 F0 FF FF 7F F0 FF FF  7F 30 30 30 31 0F 80 1A  .........0001...
1350: 03 14 1C 11 80 1A E2 13  1C 27 80 52 32 80 F0 FF  .........'.R2...
1360: FF 7F F0 FF FF 7F 30 30  30 31 46 00 45 2C 80 F0  ......0001F.E,..
1370: FF FF 7F F0 FF FF 7F 66  64 69 32 0F 80 21 00 45  .......fdi2..!.E
1380: 2C 80 F0 FF FF 7F F0 FF  FF 7F 66 64 69 30 0F 80  ,.........fdi0..
1390: 55 2C 80 F0 FF FF 7F F0  FF FF 7F 66 64 69 30 1B  U,.........fdi0.
13A0: 45 2C 80 F0 FF FF 7F F0  FF FF 7F 66 64 6F 30 0F  E,.........fdo0.
13B0: 80 55 2C 80 F0 FF FF 7F  F0 FF FF 7F 66 64 6F 30  .U,.........fdo0
13C0: 1B 45 2C 80 F0 FF FF 7F  F0 FF FF 7F 66 64 69 31  .E,.........fdi1
13D0: 0F 80 55 2C 80 F0 FF FF  7F F0 FF FF 7F 66 64 69  ..U,.........fdi
13E0: 31 1B 45 2C 80 F0 FF FF  7F F0 FF FF 7F 66 64 6F  1.E,.........fdo
13F0: 31 0F 80 55 2C 80 F0 FF  FF 7F F0 FF FF 7F 66 64  1..U,.........fd
1400: 6F 31 1B 45 C7 80 F0 FF  FF 7F F0 FF FF 7F 77 68  o1.E..........wh
1410: 69 31 0F 80 55 C7 80 F0  FF FF 7F F0 FF FF 7F 77  i1..U..........w
1420: 68 69 31 1B 45 C7 80 F0  FF FF 7F F0 FF FF 7F 77  hi1.E..........w
1430: 68 6F 31 0F 80 55 C7 80  F0 FF FF 7F F0 FF FF 7F  ho1..U..........
1440: 77 68 6F 31 1B 45 C7 80  F0 FF FF 7F F0 FF FF 7F  who1.E..........
1450: 77 68 6F 32 0F 80 55 C7  80 F0 FF FF 7F F0 FF FF  who2..U.........
1460: 7F 77 68 6F 32 1B 45 C7  80 F0 FF FF 7F F0 FF FF  .who2.E.........
1470: 7F 77 68 6F 33 0F 80 55  C7 80 F0 FF FF 7F F0 FF  .who3..U........
1480: FF 7F 77 68 6F 33 1B 62  17 80 F0 FF FF 7F F0 FF  ..who3.b........
1490: FF 7F 6D 61 69 6E 0F 80  1C 10 80 45 2C 80 F0 FF  ..main.....E,...
14A0: FF 7F F0 FF FF 7F 66 64  6F 31 0F 80 55 2C 80 F0  ......fdo1..U,..
14B0: FF FF 7F F0 FF FF 7F 66  64 6F 31 1B 45 2C 80 F0  .......fdo1.E,..
14C0: FF FF 7F F0 FF FF 7F 66  64 69 31 0F 80 62 18 80  .......fdi1..b..
14D0: F0 FF FF 7F F0 FF FF 7F  6D 61 69 6E 0F 80 1C 27  ........main...'
14E0: 80 55 2C 80 F0 FF FF 7F  F0 FF FF 7F 66 64 69 31  .U,.........fdi1
14F0: 1B 45 2C 80 F0 FF FF 7F  F0 FF FF 7F 62 6C 6F 6E  .E,.........blon
1500: 0F 80 45 C7 80 F0 FF FF  7F F0 FF FF 7F 62 6C 6F  ..E..........blo
1510: 6E 0F 80 1B 45 C7 80 F0  FF FF 7F F0 FF FF 7F 77  n...E..........w
1520: 68 69 30 0F 80 55 C7 80  F0 FF FF 7F F0 FF FF 7F  hi0..U..........
1530: 77 68 69 30 1B 45 C7 80  F0 FF FF 7F F0 FF FF 7F  whi0.E..........
1540: 77 68 6F 30 0F 80 55 C7  80 F0 FF FF 7F F0 FF FF  who0..U.........
1550: 7F 77 68 6F 30 1B 45 C2  80 F0 FF FF 7F F0 FF FF  .who0.E.........
1560: 7F 65 66 6F 6E 0F 80 55  C2 80 F0 FF FF 7F F0 FF  .efon..U........
1570: FF 7F 65 66 6F 6E 1B 45  2C 80 F0 FF FF 7F F0 FF  ..efon.E,.......
1580: FF 7F 66 64 69 73 0F 80  1B 45 2C 80 F0 FF FF 7F  ..fdis...E,.....
1590: F0 FF FF 7F 66 64 6F 73  0F 80 55 2C 80 F0 FF FF  ....fdos..U,....
15A0: 7F F0 FF FF 7F 66 64 6F  73 1B 45 2C 80 F0 FF FF  .....fdos.E,....
15B0: 7F F0 FF FF 7F 66 64 69  66 0F 80 1B 45 2C 80 F0  .....fdif...E,..
15C0: FF FF 7F F0 FF FF 7F 66  64 6F 66 0F 80 55 2C 80  .......fdof..U,.
15D0: F0 FF FF 7F F0 FF FF 7F  66 64 6F 66 1B 45 2C 80  ........fdof.E,.
15E0: F0 FF FF 7F F0 FF FF 7F  66 64 69 70 0F 80 1B 45  ........fdip...E
15F0: 2C 80 F0 FF FF 7F F0 FF  FF 7F 66 64 6F 70 0F 80  ,.........fdop..
1600: 55 2C 80 F0 FF FF 7F F0  FF FF 7F 66 64 6F 70 1B  U,.........fdop.
```

#### Opcodes

```
  0: 0x03F8 [0x42] SET_CLI_EVENT_CANCEL_DATA()
  1: 0x03F9 [0x1A] CALL_SUBROUTINE(address=0x13E2)
  2: 0x03FC [0x46] CAMERA_CONTROL: Disable user control
  3: 0x03FE [0x38] SET_CLIENT_EVENT_MODE(mode=19*)
  4: 0x0401 [0x27] REQ_SET(priority=0x10, entity_id=Lilisette (ID: 17126137/0x010552F9), tag_num=0x04)
  5: 0x0408 [0x27] REQ_SET(priority=0x10, entity_id=Cait Sith (ID: 17126175/0x0105531F), tag_num=0x02)
  6: 0x040F [0x27] REQ_SET(priority=0x10, entity_id=Hauramus (ID: 17126146/0x01055302), tag_num=0x04)
  7: 0x0416 [0x27] REQ_SET(priority=0x10, entity_id=03 (ID: 17126148/0x01055304), tag_num=0x04)
  8: 0x041D [0x27] REQ_SET(priority=0x10, entity_id=Gallauciond (ID: 17126151/0x01055307), tag_num=0x04)
  9: 0x0424 [0x27] REQ_SET(priority=0x10, entity_id=Merfanont (ID: 17126152/0x01055308), tag_num=0x04)
 10: 0x042B [0x27] REQ_SET(priority=0x10, entity_id=Demon Tue (ID: 17126158/0x0105530E), tag_num=0x02)
 11: 0x0432 [0x27] REQ_SET(priority=0x10, entity_id=Demon Ken 2 (ID: 17126159/0x0105530F), tag_num=0x04)
 12: 0x0439 [0x27] REQ_SET(priority=0x10, entity_id=Demon Kama 2 (ID: 17126160/0x01055310), tag_num=0x04)
 13: 0x0440 [0x27] REQ_SET(priority=0x10, entity_id=Haudrale (ID: 17126142/0x010552FE), tag_num=0x04)
 14: 0x0447 [0x27] REQ_SET(priority=0x10, entity_id=Aquila (ID: 17126143/0x010552FF), tag_num=0x04)
 15: 0x044E [0x2F] Ragelise (ID: 17126139/0x010552FB)->Render.Flags0 &= ~0x80000 // Bit 19
 16: 0x0454 [0x4E] SET_ENTITY_HIDE_FLAG: Show Ragelise (ID: 17126139/0x010552FB)
 17: 0x045A [0x92] Lilisette (ID: 17126137/0x010552F9)->Render.Flags3 ^= 0x01
 18: 0x0460 [0x92] Ragelise (ID: 17126139/0x010552FB)->Render.Flags3 ^= 0x01
 19: 0x0466 [0x92] Cait Sith (ID: 17126175/0x0105531F)->Render.Flags3 ^= 0x01
 20: 0x046C [0x92] Hauramus (ID: 17126146/0x01055302)->Render.Flags3 ^= 0x01
 21: 0x0472 [0x92] 03 (ID: 17126148/0x01055304)->Render.Flags3 ^= 0x01
 22: 0x0478 [0x92] Gallauciond (ID: 17126151/0x01055307)->Render.Flags3 ^= 0x01
 23: 0x047E [0x92] Merfanont (ID: 17126152/0x01055308)->Render.Flags3 ^= 0x01
 24: 0x0484 [0x92] Demon Tue (ID: 17126158/0x0105530E)->Render.Flags3 ^= 0x01
 25: 0x048A [0x92] Demon Ken 2 (ID: 17126159/0x0105530F)->Render.Flags3 ^= 0x01
 26: 0x0490 [0x92] Demon Kama 2 (ID: 17126160/0x01055310)->Render.Flags3 ^= 0x01
 27: 0x0496 [0x92] Haudrale (ID: 17126142/0x010552FE)->Render.Flags3 ^= 0x01
 28: 0x049C [0x92] Aquila (ID: 17126143/0x010552FF)->Render.Flags3 ^= 0x01
 29: 0x04A2 [0x94] LocalPlayer->Render.Flags3 ^= 0x01
 30: 0x04A8 [0x94] Lilisette (ID: 17126137/0x010552F9)->Render.Flags3 ^= 0x01
 31: 0x04AE [0x94] Ragelise (ID: 17126139/0x010552FB)->Render.Flags3 ^= 0x01
 32: 0x04B4 [0x94] Cait Sith (ID: 17126175/0x0105531F)->Render.Flags3 ^= 0x01
 33: 0x04BA [0x94] Hauramus (ID: 17126146/0x01055302)->Render.Flags3 ^= 0x01
 34: 0x04C0 [0x94] 03 (ID: 17126148/0x01055304)->Render.Flags3 ^= 0x01
 35: 0x04C6 [0x94] Gallauciond (ID: 17126151/0x01055307)->Render.Flags3 ^= 0x01
 36: 0x04CC [0x94] Merfanont (ID: 17126152/0x01055308)->Render.Flags3 ^= 0x01
 37: 0x04D2 [0x94] Demon Tue (ID: 17126158/0x0105530E)->Render.Flags3 ^= 0x01
 38: 0x04D8 [0x94] Demon Ken 2 (ID: 17126159/0x0105530F)->Render.Flags3 ^= 0x01
 39: 0x04DE [0x94] Demon Kama 2 (ID: 17126160/0x01055310)->Render.Flags3 ^= 0x01
 40: 0x04E4 [0x94] Haudrale (ID: 17126142/0x010552FE)->Render.Flags3 ^= 0x01
 41: 0x04EA [0x94] Aquila (ID: 17126143/0x010552FF)->Render.Flags3 ^= 0x01
 42: 0x04F0 [0xBA] SET_ENTITY_POSITION(entity_id=LocalPlayer, pos_x=294.698*, pos_z=-215.679*, pos_y=3.422*, direction=84.6°*)
 43: 0x04FD [0x80] LOAD_WAIT(entity=LocalPlayer)
 44: 0x0502 [0x80] LOAD_WAIT(entity=Lilisette (ID: 17126137/0x010552F9))
 45: 0x0507 [0x80] LOAD_WAIT(entity=Ragelise (ID: 17126139/0x010552FB))
 46: 0x050C [0x80] LOAD_WAIT(entity=Cait Sith (ID: 17126175/0x0105531F))
 47: 0x0511 [0x80] LOAD_WAIT(entity=Hauramus (ID: 17126146/0x01055302))
 48: 0x0516 [0x80] LOAD_WAIT(entity=03 (ID: 17126148/0x01055304))
 49: 0x051B [0x80] LOAD_WAIT(entity=Gallauciond (ID: 17126151/0x01055307))
 50: 0x0520 [0x80] LOAD_WAIT(entity=Merfanont (ID: 17126152/0x01055308))
 51: 0x0525 [0x80] LOAD_WAIT(entity=Unnamed NPC (ID: 17126196/0x01055334))
 52: 0x052A [0x4A] LocalPlayer looks at Unnamed NPC (ID: 17126196/0x01055334)
 53: 0x0533 [0x27] REQ_SET(priority=0x10, entity_id=Cait Sith (ID: 17126175/0x0105531F), tag_num=0x0E)
 54: 0x053A [0x27] REQ_SET(priority=0x10, entity_id=Gallauciond (ID: 17126151/0x01055307), tag_num=0x0E)
 55: 0x0541 [0x27] REQ_SET(priority=0x10, entity_id=Merfanont (ID: 17126152/0x01055308), tag_num=0x12)
 56: 0x0548 [0x27] REQ_SET(priority=0x10, entity_id=Demon Ken 2 (ID: 17126159/0x0105530F), tag_num=0x0F)
 57: 0x054F [0x27] REQ_SET(priority=0x10, entity_id=Demon Kama 2 (ID: 17126160/0x01055310), tag_num=0x10)
 58: 0x0556 [0x1C] WAIT(120* ticks)
 59: 0x0559 [0x45] LOAD_SCHEDULED_TASK: Load scheduler "0001" with entities [LocalPlayer, LocalPlayer], work=[552*, 0*]
 60: 0x056A [0x1A] CALL_SUBROUTINE(address=0x13C1)
 61: 0x056D [0x1C] WAIT(180* ticks)
 62: 0x0570 [0x5D] SET_MUSIC_VOLUME(volume=0*, fade_time=90*)
 63: 0x0575 [0x1A] CALL_SUBROUTINE(address=0x1424)
 64: 0x0578 [0x52] END_LOAD_SCHEDULER: End scheduler "0001" with entities [LocalPlayer, LocalPlayer], work=552*
 65: 0x0587 [0x77] SET_EVENT_TIME_WEATHER(hour=20*, weather=2*)
 66: 0x058C [0x4E] SET_ENTITY_HIDE_FLAG: Hide Unnamed NPC (ID: 17126196/0x01055334)
 67: 0x0592 [0x1C] WAIT(60* ticks)
 68: 0x0595 [0x5C] MUSIC_CONTROL: Set Idle (Day) music to song 0*
 69: 0x0599 [0x5C] MUSIC_CONTROL: Set Idle (Night) music to song 0*
 70: 0x059D [0x5C] MUSIC_CONTROL: Set Combat (Solo) music to song 0*
 71: 0x05A1 [0x5C] MUSIC_CONTROL: Set Combat (Party) music to song 0*
 72: 0x05A5 [0x9A] WAIT_MUSIC_SERVER()
 73: 0x05A6 [0xBA] SET_ENTITY_POSITION(entity_id=LocalPlayer, pos_x=275.351*, pos_z=-224.702*, pos_y=4.263*, direction=0.0°*)
 74: 0x05B3 [0xBA] SET_ENTITY_POSITION(entity_id=Lilisette (ID: 17126137/0x010552F9), pos_x=270.434*, pos_z=-219.165*, pos_y=4.249*, direction=310.1°*)
 75: 0x05C0 [0xBA] SET_ENTITY_POSITION(entity_id=Ragelise (ID: 17126139/0x010552FB), pos_x=274.025*, pos_z=-221.888*, pos_y=4.249*, direction=103.4°*)
 76: 0x05CD [0x27] REQ_SET(priority=0x10, entity_id=03 (ID: 17126148/0x01055304), tag_num=0x0F)
 77: 0x05D4 [0xBA] SET_ENTITY_POSITION(entity_id=Hauramus (ID: 17126146/0x01055302), pos_x=272.839*, pos_z=-243.241*, pos_y=4.076*, direction=70.8°*)
 78: 0x05E1 [0xBA] SET_ENTITY_POSITION(entity_id=Gallauciond (ID: 17126151/0x01055307), pos_x=277.860*, pos_z=-231.723*, pos_y=3.989*, direction=19.2°*)
 79: 0x05EE [0xBA] SET_ENTITY_POSITION(entity_id=Merfanont (ID: 17126152/0x01055308), pos_x=280.177*, pos_z=-232.803*, pos_y=3.999*, direction=198.5°*)
 80: 0x05FB [0xBA] SET_ENTITY_POSITION(entity_id=Haudrale (ID: 17126142/0x010552FE), pos_x=-438.723*, pos_z=364.037*, pos_y=-115.999*, direction=180.0°*)
 81: 0x0608 [0x27] REQ_SET(priority=0x10, entity_id=Demon Tue (ID: 17126158/0x0105530E), tag_num=0x0A)
 82: 0x060F [0x27] REQ_SET(priority=0x10, entity_id=Demon Ken 2 (ID: 17126159/0x0105530F), tag_num=0x0E)
 83: 0x0616 [0x27] REQ_SET(priority=0x10, entity_id=Demon Kama 2 (ID: 17126160/0x01055310), tag_num=0x0F)
 84: 0x061D [0xBA] SET_ENTITY_POSITION(entity_id=Demon Ken 2 (ID: 17126159/0x0105530F), pos_x=282.352*, pos_z=-209.937*, pos_y=3.999*, direction=244.8°*)
 85: 0x062A [0xBA] SET_ENTITY_POSITION(entity_id=Demon Kama 2 (ID: 17126160/0x01055310), pos_x=281.382*, pos_z=-208.738*, pos_y=3.999*, direction=20.3°*)
 86: 0x0637 [0x1C] WAIT(180* ticks)
 87: 0x063A [0x27] REQ_SET(priority=0x10, entity_id=Ragelise (ID: 17126139/0x010552FB), tag_num=0x11)
 88: 0x0641 [0x27] REQ_SET(priority=0x10, entity_id=Demon Ken 2 (ID: 17126159/0x0105530F), tag_num=0x10)
 89: 0x0648 [0x27] REQ_SET(priority=0x10, entity_id=Demon Kama 2 (ID: 17126160/0x01055310), tag_num=0x0E)
 90: 0x064F [0x1C] WAIT(60* ticks)
 91: 0x0652 [0x45] LOAD_SCHEDULED_TASK: Load scheduler "2639" with entities [LocalPlayer, LocalPlayer], work=[395*, 0*]
 92: 0x0663 [0x5B] LOAD_EXT_SCHEDULER: Load scheduler "tonc" with entities [03 (ID: 17126148/0x01055304), 03 (ID: 17126148/0x01055304)], work=1495*
 93: 0x0672 [0x5B] LOAD_EXT_SCHEDULER: Load scheduler "ude0" with entities [Cait Sith (ID: 17126175/0x0105531F), Cait Sith (ID: 17126175/0x0105531F)], work=1412*
 94: 0x0681 [0x5B] LOAD_EXT_SCHEDULER: Load scheduler "tlk1" with entities [Aquila (ID: 17126143/0x010552FF), Aquila (ID: 17126143/0x010552FF)], work=2182*
 95: 0x0690 [0x1C] WAIT(180* ticks)
 96: 0x0693 [0x5C] MUSIC_CONTROL: Set Idle (Day) music to song 247*
 97: 0x0697 [0x5C] MUSIC_CONTROL: Set Idle (Night) music to song 247*
 98: 0x069B [0x5C] MUSIC_CONTROL: Set Combat (Solo) music to song 247*
 99: 0x069F [0x5C] MUSIC_CONTROL: Set Combat (Party) music to song 247*
100: 0x06A3 [0x9A] WAIT_MUSIC_SERVER()
101: 0x06A4 [0x6A] CHANGE_SOUND_VOLUME: Set (Master)* volume to 0*, fade_time=90*
102: 0x06AB [0x1C] WAIT(60* ticks)
103: 0x06AE [0x27] REQ_SET(priority=0x10, entity_id=Big 1 (ID: 17126166/0x01055316), tag_num=0x04)
104: 0x06B5 [0x27] REQ_SET(priority=0x10, entity_id=Big 2 (ID: 17126167/0x01055317), tag_num=0x04)
105: 0x06BC [0x92] Big 1 (ID: 17126166/0x01055316)->Render.Flags3 ^= 0x01
106: 0x06C2 [0x92] Big 2 (ID: 17126167/0x01055317)->Render.Flags3 ^= 0x01
107: 0x06C8 [0x94] Big 1 (ID: 17126166/0x01055316)->Render.Flags3 ^= 0x01
108: 0x06CE [0x94] Big 2 (ID: 17126167/0x01055317)->Render.Flags3 ^= 0x01
109: 0x06D4 [0x80] LOAD_WAIT(entity=Big 1 (ID: 17126166/0x01055316))
110: 0x06D9 [0x80] LOAD_WAIT(entity=Big 2 (ID: 17126167/0x01055317))
111: 0x06DE [0x27] REQ_SET(priority=0x10, entity_id=Big 2 (ID: 17126167/0x01055317), tag_num=0x09)
112: 0x06E5 [0x27] REQ_SET(priority=0x10, entity_id=Big 1 (ID: 17126166/0x01055316), tag_num=0x0C)
113: 0x06EC [0x1C] WAIT(60* ticks)
114: 0x06EF [0x52] END_LOAD_SCHEDULER: End scheduler "2639" with entities [LocalPlayer, LocalPlayer], work=395*
115: 0x06FE [0x45] LOAD_SCHEDULED_TASK: Load scheduler "2656" with entities [LocalPlayer, LocalPlayer], work=[395*, 0*]
116: 0x070F [0x45] LOAD_SCHEDULED_TASK: Load scheduler "kain" with entities [LocalPlayer, LocalPlayer], work=[395*, 0*]
117: 0x0720 [0xBB] LOAD_EVENT_SCHEDULER_ALT: Load scheduler "s000" with entities [Big 1 (ID: 17126166/0x01055316), Big 1 (ID: 17126166/0x01055316)], work=[199*, 0*]
118: 0x0731 [0xBB] LOAD_EVENT_SCHEDULER_ALT: Load scheduler "s000" with entities [Big 2 (ID: 17126167/0x01055317), Big 2 (ID: 17126167/0x01055317)], work=[199*, 0*]
119: 0x0742 [0x5B] LOAD_EXT_SCHEDULER: Load scheduler "kic2" with entities [Haudrale (ID: 17126142/0x010552FE), Haudrale (ID: 17126142/0x010552FE)], work=2196*
120: 0x0751 [0x1A] CALL_SUBROUTINE(address=0x1403)
121: 0x0754 [0x1C] WAIT(120* ticks)
122: 0x0757 [0x52] END_LOAD_SCHEDULER: End scheduler "2647" with entities [LocalPlayer, LocalPlayer], work=395*
123: 0x0766 [0x1C] WAIT(30* ticks)
124: 0x0769 [0x27] REQ_SET(priority=0x10, entity_id=Demon Ken 2 (ID: 17126159/0x0105530F), tag_num=0x0D)
125: 0x0770 [0x45] LOAD_SCHEDULED_TASK: Load scheduler "ovra" with entities [LocalPlayer, LocalPlayer], work=[395*, 0*]
126: 0x0781 [0x45] LOAD_SCHEDULED_TASK: Load scheduler "2643" with entities [LocalPlayer, LocalPlayer], work=[395*, 0*]
127: 0x0792 [0x27] REQ_SET(priority=0x10, entity_id=Unnamed NPC (ID: 17126135/0x010552F7), tag_num=0x0F)
128: 0x0799 [0x1C] WAIT(45* ticks)
129: 0x079C [0x27] REQ_SET(priority=0x10, entity_id=Demon Kama 2 (ID: 17126160/0x01055310), tag_num=0x0D)
130: 0x07A3 [0x4A] Gallauciond (ID: 17126151/0x01055307) looks at Big 2 (ID: 17126167/0x01055317)
131: 0x07AC [0x1C] WAIT(60* ticks)
132: 0x07AF [0x6B] STOP_AND_IDLE: 03 (ID: 17126148/0x01055304) stops current action and resets to idle (animation="idl0")
133: 0x07B8 [0xBA] SET_ENTITY_POSITION(entity_id=Hauramus (ID: 17126146/0x01055302), pos_x=296.003*, pos_z=-202.068*, pos_y=4.000*, direction=152.7°*)
134: 0x07C5 [0xBA] SET_ENTITY_POSITION(entity_id=03 (ID: 17126148/0x01055304), pos_x=293.461*, pos_z=-207.203*, pos_y=3.963*, direction=337.3°*)
135: 0x07D2 [0xBA] SET_ENTITY_POSITION(entity_id=Lilisette (ID: 17126137/0x010552F9), pos_x=270.434*, pos_z=-219.165*, pos_y=4.249*, direction=310.1°*)
136: 0x07DF [0x1C] WAIT(115* ticks)
137: 0x07E2 [0x4A] Gallauciond (ID: 17126151/0x01055307) looks at Ragelise (ID: 17126139/0x010552FB)
138: 0x07EB [0x7B] Gallauciond (ID: 17126151/0x01055307) stops talking
139: 0x07F0 [0x7B] Merfanont (ID: 17126152/0x01055308) stops talking
140: 0x07F5 [0x5B] LOAD_EXT_SCHEDULER: Load scheduler "pap2" with entities [Merfanont (ID: 17126152/0x01055308), Merfanont (ID: 17126152/0x01055308)], work=2216*
141: 0x0804 [0x1C] WAIT(30* ticks)
142: 0x0807 [0x52] END_LOAD_SCHEDULER: End scheduler "2643" with entities [LocalPlayer, LocalPlayer], work=395*
143: 0x0816 [0x45] LOAD_SCHEDULED_TASK: Load scheduler "ovra" with entities [LocalPlayer, LocalPlayer], work=[395*, 0*]
144: 0x0827 [0x45] LOAD_SCHEDULED_TASK: Load scheduler "2645" with entities [LocalPlayer, LocalPlayer], work=[395*, 0*]
145: 0x0838 [0x5B] LOAD_EXT_SCHEDULER: Load scheduler "pap0" with entities [Ragelise (ID: 17126139/0x010552FB), Ragelise (ID: 17126139/0x010552FB)], work=2216*
146: 0x0847 [0x5B] LOAD_EXT_SCHEDULER: Load scheduler "yar0" with entities [Hauramus (ID: 17126146/0x01055302), Hauramus (ID: 17126146/0x01055302)], work=2218*
147: 0x0856 [0x5B] LOAD_EXT_SCHEDULER: Load scheduler "kjil" with entities [03 (ID: 17126148/0x01055304), 03 (ID: 17126148/0x01055304)], work=2250*
148: 0x0865 [0x5B] LOAD_EXT_SCHEDULER: Load scheduler "kjil" with entities [Gallauciond (ID: 17126151/0x01055307), Gallauciond (ID: 17126151/0x01055307)], work=2250*
149: 0x0874 [0x7A] VM_CONTROL: Reset VM for Demon Ken 2 (ID: 17126159/0x0105530F)
150: 0x087A [0x7A] VM_CONTROL: Reset VM for Demon Kama 2 (ID: 17126160/0x01055310)
151: 0x0880 [0x27] REQ_SET(priority=0x10, entity_id=Demon Ken 2 (ID: 17126159/0x0105530F), tag_num=0x0F)
152: 0x0887 [0x27] REQ_SET(priority=0x10, entity_id=Demon Kama 2 (ID: 17126160/0x01055310), tag_num=0x10)
153: 0x088E [0x1C] WAIT(60* ticks)
154: 0x0891 [0x5B] LOAD_EXT_SCHEDULER: Load scheduler "fj00" with entities [Lilisette (ID: 17126137/0x010552F9), Lilisette (ID: 17126137/0x010552F9)], work=2135*
155: 0x08A0 [0x5B] LOAD_EXT_SCHEDULER: Load scheduler "ba00" with entities [Lilisette (ID: 17126137/0x010552F9), Lilisette (ID: 17126137/0x010552F9)], work=2146*
156: 0x08AF [0x1C] WAIT(105* ticks)
157: 0x08B2 [0x5B] LOAD_EXT_SCHEDULER: Load scheduler "rav0" with entities [Demon Tue (ID: 17126158/0x0105530E), Demon Tue (ID: 17126158/0x0105530E)], work=2224*
158: 0x08C1 [0xBB] LOAD_EVENT_SCHEDULER_ALT: Load scheduler "st01" with entities [Demon Tue (ID: 17126158/0x0105530E), Demon Tue (ID: 17126158/0x0105530E)], work=[210*, 0*]
159: 0x08D2 [0x27] REQ_SET(priority=0x10, entity_id=??? (ID: 17126134/0x010552F6), tag_num=0x09)
160: 0x08D9 [0x1C] WAIT(5* ticks)
161: 0x08DC [0x52] END_LOAD_SCHEDULER: End scheduler "2645" with entities [LocalPlayer, LocalPlayer], work=395*
162: 0x08EB [0x45] LOAD_SCHEDULED_TASK: Load scheduler "2661" with entities [LocalPlayer, LocalPlayer], work=[395*, 0*]
163: 0x08FC [0xBA] SET_ENTITY_POSITION(entity_id=Gallauciond (ID: 17126151/0x01055307), pos_x=280.172*, pos_z=-208.944*, pos_y=3.999*, direction=346.6°*)
164: 0x0909 [0xBA] SET_ENTITY_POSITION(entity_id=Ragelise (ID: 17126139/0x010552FB), pos_x=281.689*, pos_z=-209.187*, pos_y=4.000*, direction=319.2°*)
165: 0x0916 [0x1C] WAIT(30* ticks)
166: 0x0919 [0x5B] LOAD_EXT_SCHEDULER: Load scheduler "rav0" with entities [Demon Kama 2 (ID: 17126160/0x01055310), Demon Kama 2 (ID: 17126160/0x01055310)], work=2224*
167: 0x0928 [0xBB] LOAD_EVENT_SCHEDULER_ALT: Load scheduler "st01" with entities [Demon Kama 2 (ID: 17126160/0x01055310), Demon Kama 2 (ID: 17126160/0x01055310)], work=[210*, 0*]
168: 0x0939 [0xBA] SET_ENTITY_POSITION(entity_id=Demon Kama 2 (ID: 17126160/0x01055310), pos_x=277.638*, pos_z=-196.359*, pos_y=3.999*, direction=87.3°*)
169: 0x0946 [0x1C] WAIT(15* ticks)
170: 0x0949 [0x5B] LOAD_EXT_SCHEDULER: Load scheduler "rav1" with entities [Demon Ken 2 (ID: 17126159/0x0105530F), Demon Ken 2 (ID: 17126159/0x0105530F)], work=2224*
171: 0x0958 [0xBB] LOAD_EVENT_SCHEDULER_ALT: Load scheduler "st02" with entities [Demon Ken 2 (ID: 17126159/0x0105530F), Demon Ken 2 (ID: 17126159/0x0105530F)], work=[210*, 0*]
172: 0x0969 [0xBA] SET_ENTITY_POSITION(entity_id=Demon Ken 2 (ID: 17126159/0x0105530F), pos_x=275.822*, pos_z=-198.073*, pos_y=3.999*, direction=70.0°*)
173: 0x0976 [0x1C] WAIT(60* ticks)
174: 0x0979 [0x52] END_LOAD_SCHEDULER: End scheduler "2661" with entities [LocalPlayer, LocalPlayer], work=395*
175: 0x0988 [0x45] LOAD_SCHEDULED_TASK: Load scheduler "2663" with entities [LocalPlayer, LocalPlayer], work=[395*, 0*]
176: 0x0999 [0x5B] LOAD_EXT_SCHEDULER: Load scheduler "rav0" with entities [Demon Kama 2 (ID: 17126160/0x01055310), Demon Kama 2 (ID: 17126160/0x01055310)], work=2224*
177: 0x09A8 [0xBB] LOAD_EVENT_SCHEDULER_ALT: Load scheduler "st01" with entities [Demon Kama 2 (ID: 17126160/0x01055310), Demon Kama 2 (ID: 17126160/0x01055310)], work=[210*, 0*]
178: 0x09B9 [0xBA] SET_ENTITY_POSITION(entity_id=Demon Kama 2 (ID: 17126160/0x01055310), pos_x=300.348*, pos_z=-197.785*, pos_y=3.969*, direction=160.3°*)
179: 0x09C6 [0x1C] WAIT(10* ticks)
180: 0x09C9 [0x5B] LOAD_EXT_SCHEDULER: Load scheduler "rav0" with entities [Demon Ken 2 (ID: 17126159/0x0105530F), Demon Ken 2 (ID: 17126159/0x0105530F)], work=2224*
181: 0x09D8 [0xBB] LOAD_EVENT_SCHEDULER_ALT: Load scheduler "st01" with entities [Demon Ken 2 (ID: 17126159/0x0105530F), Demon Ken 2 (ID: 17126159/0x0105530F)], work=[210*, 0*]
182: 0x09E9 [0xBA] SET_ENTITY_POSITION(entity_id=Demon Ken 2 (ID: 17126159/0x0105530F), pos_x=300.129*, pos_z=-200.066*, pos_y=3.999*, direction=160.0°*)
183: 0x09F6 [0xBB] LOAD_EVENT_SCHEDULER_ALT: Load scheduler 0xFEFEFE00 with entities [Haudrale (ID: 17126142/0x010552FE), Haudrale (ID: 17126142/0x010552FE)], work=[218*, 0*]
184: 0x0A07 [0x1C] WAIT(60* ticks)
185: 0x0A0A [0xBB] LOAD_EVENT_SCHEDULER_ALT: Load scheduler "kl00" with entities [Big 2 (ID: 17126167/0x01055317), Big 2 (ID: 17126167/0x01055317)], work=[199*, 0*]
186: 0x0A1B [0xBB] LOAD_EVENT_SCHEDULER_ALT: Load scheduler "kl00" with entities [Big 1 (ID: 17126166/0x01055316), Big 1 (ID: 17126166/0x01055316)], work=[199*, 0*]
187: 0x0A2C [0x1C] WAIT(90* ticks)
188: 0x0A2F [0x27] REQ_SET(priority=0x10, entity_id=Unnamed NPC (ID: 17126135/0x010552F7), tag_num=0x0C)
189: 0x0A36 [0x1C] WAIT(30* ticks)
190: 0x0A39 [0x52] END_LOAD_SCHEDULER: End scheduler "2663" with entities [LocalPlayer, LocalPlayer], work=395*
191: 0x0A48 [0x45] LOAD_SCHEDULED_TASK: Load scheduler "ovra" with entities [LocalPlayer, LocalPlayer], work=[395*, 0*]
192: 0x0A59 [0x45] LOAD_SCHEDULED_TASK: Load scheduler "2818" with entities [LocalPlayer, LocalPlayer], work=[395*, 0*]
193: 0x0A6A [0x1C] WAIT(30* ticks)
194: 0x0A6D [0x5B] LOAD_EXT_SCHEDULER: Load scheduler "kic3" with entities [Haudrale (ID: 17126142/0x010552FE), Haudrale (ID: 17126142/0x010552FE)], work=2196*
195: 0x0A7C [0x1C] WAIT(120* ticks)
196: 0x0A7F [0x27] REQ_SET(priority=0x10, entity_id=Cait Sith (ID: 17126175/0x0105531F), tag_num=0x0A)
197: 0x0A86 [0x1C] WAIT(120* ticks)
198: 0x0A89 [0x27] REQ_SET(priority=0x10, entity_id=Cait Sith (ID: 17126175/0x0105531F), tag_num=0x03)
199: 0x0A90 [0x52] END_LOAD_SCHEDULER: End scheduler "2818" with entities [LocalPlayer, LocalPlayer], work=395*
200: 0x0A9F [0x45] LOAD_SCHEDULED_TASK: Load scheduler "ovra" with entities [LocalPlayer, LocalPlayer], work=[395*, 0*]
201: 0x0AB0 [0x45] LOAD_SCHEDULED_TASK: Load scheduler "2666" with entities [LocalPlayer, LocalPlayer], work=[395*, 0*]
202: 0x0AC1 [0x1C] WAIT(30* ticks)
203: 0x0AC4 [0xBB] LOAD_EVENT_SCHEDULER_ALT: Load scheduler "s000" with entities [Big 1 (ID: 17126166/0x01055316), Big 1 (ID: 17126166/0x01055316)], work=[199*, 0*]
204: 0x0AD5 [0xBB] LOAD_EVENT_SCHEDULER_ALT: Load scheduler "s000" with entities [Big 2 (ID: 17126167/0x01055317), Big 2 (ID: 17126167/0x01055317)], work=[199*, 0*]
205: 0x0AE6 [0x27] REQ_SET(priority=0x10, entity_id=Big 1 (ID: 17126166/0x01055316), tag_num=0x10)
206: 0x0AED [0x27] REQ_SET(priority=0x10, entity_id=Big 2 (ID: 17126167/0x01055317), tag_num=0x09)
207: 0x0AF4 [0xBB] LOAD_EVENT_SCHEDULER_ALT: Load scheduler "kila" with entities [Haudrale (ID: 17126142/0x010552FE), Haudrale (ID: 17126142/0x010552FE)], work=[218*, 0*]
208: 0x0B05 [0x5B] LOAD_EXT_SCHEDULER: Load scheduler "tlk0" with entities [Haudrale (ID: 17126142/0x010552FE), Haudrale (ID: 17126142/0x010552FE)], work=2193*
209: 0x0B14 [0x1C] WAIT(30* ticks)
210: 0x0B17 [0x4E] SET_ENTITY_HIDE_FLAG: Hide Haudrale (ID: 17126142/0x010552FE)
211: 0x0B1D [0x1C] WAIT(60* ticks)
212: 0x0B20 [0x5B] LOAD_EXT_SCHEDULER: Load scheduler "ba01" with entities [Lilisette (ID: 17126137/0x010552F9), Lilisette (ID: 17126137/0x010552F9)], work=2146*
213: 0x0B2F [0x1C] WAIT(30* ticks)
214: 0x0B32 [0x52] END_LOAD_SCHEDULER: End scheduler "2666" with entities [LocalPlayer, LocalPlayer], work=395*
215: 0x0B41 [0x45] LOAD_SCHEDULED_TASK: Load scheduler "2667" with entities [LocalPlayer, LocalPlayer], work=[395*, 0*]
216: 0x0B52 [0xBA] SET_ENTITY_POSITION(entity_id=LocalPlayer, pos_x=-440.086*, pos_z=366.904*, pos_y=-115.999*, direction=138.6°*)
217: 0x0B5F [0xBA] SET_ENTITY_POSITION(entity_id=Demon Kama 2 (ID: 17126160/0x01055310), pos_x=-434.252*, pos_z=368.831*, pos_y=-115.999*, direction=202.1°*)
218: 0x0B6C [0xBA] SET_ENTITY_POSITION(entity_id=Aquila (ID: 17126143/0x010552FF), pos_x=-444.102*, pos_z=364.043*, pos_y=-115.999*, direction=327.6°*)
219: 0x0B79 [0xBA] SET_ENTITY_POSITION(entity_id=Demon Ken 2 (ID: 17126159/0x0105530F), pos_x=-438.259*, pos_z=365.215*, pos_y=-115.999*, direction=245.6°*)
220: 0x0B86 [0xBA] SET_ENTITY_POSITION(entity_id=Demon Kama 2 (ID: 17126160/0x01055310), pos_x=-434.252*, pos_z=368.831*, pos_y=-115.999*, direction=202.1°*)
221: 0x0B93 [0xBA] SET_ENTITY_POSITION(entity_id=Demon Tue (ID: 17126158/0x0105530E), pos_x=-444.066*, pos_z=369.280*, pos_y=-116.013*, direction=10.3°*)
222: 0x0BA0 [0x27] REQ_SET(priority=0x10, entity_id=LocalPlayer, tag_num=0x13)
223: 0x0BA7 [0x1C] WAIT(120* ticks)
224: 0x0BAA [0x81] SET_ENTITY_BLINKING(blink_flag=0x00, entity=Lilisette (ID: 17126137/0x010552F9))
225: 0x0BB0 [0x5B] LOAD_EXT_SCHEDULER: Load scheduler "f000" with entities [Lilisette (ID: 17126137/0x010552F9), Lilisette (ID: 17126137/0x010552F9)], work=2135*
226: 0x0BBF [0x5B] LOAD_EXT_SCHEDULER: Load scheduler "kiz3" with entities [Lilisette (ID: 17126137/0x010552F9), Lilisette (ID: 17126137/0x010552F9)], work=2141*
227: 0x0BCE [0x5B] LOAD_EXT_SCHEDULER: Load scheduler "kan2" with entities [Gallauciond (ID: 17126151/0x01055307), Gallauciond (ID: 17126151/0x01055307)], work=2231*
228: 0x0BDD [0x5B] LOAD_EXT_SCHEDULER: Load scheduler "spp4" with entities [Demon Ken 2 (ID: 17126159/0x0105530F), Demon Ken 2 (ID: 17126159/0x0105530F)], work=2227*
229: 0x0BEC [0x5B] LOAD_EXT_SCHEDULER: Load scheduler "spp1" with entities [Demon Kama 2 (ID: 17126160/0x01055310), Demon Kama 2 (ID: 17126160/0x01055310)], work=2226*
230: 0x0BFB [0x2C] CREATE_SCHEDULER_TASK: Create scheduler "dead" with entities [Demon Tue (ID: 17126158/0x0105530E), Demon Tue (ID: 17126158/0x0105530E)]
231: 0x0C08 [0x1C] WAIT(60* ticks)
232: 0x0C0B [0x1C] WAIT(30* ticks)
233: 0x0C0E [0x5B] LOAD_EXT_SCHEDULER: Load scheduler "dra0" with entities [Aquila (ID: 17126143/0x010552FF), Aquila (ID: 17126143/0x010552FF)], work=2183*
234: 0x0C1D [0x52] END_LOAD_SCHEDULER: End scheduler "2667" with entities [LocalPlayer, LocalPlayer], work=395*
235: 0x0C2C [0x52] END_LOAD_SCHEDULER: End scheduler "2676" with entities [LocalPlayer, LocalPlayer], work=395*
236: 0x0C3B [0x45] LOAD_SCHEDULED_TASK: Load scheduler "ovra" with entities [LocalPlayer, LocalPlayer], work=[395*, 0*]
237: 0x0C4C [0x45] LOAD_SCHEDULED_TASK: Load scheduler "2750" with entities [LocalPlayer, LocalPlayer], work=[395*, 0*]
238: 0x0C5D [0x27] REQ_SET(priority=0x10, entity_id=Cait Sith (ID: 17126175/0x0105531F), tag_num=0x0D)
239: 0x0C64 [0x1C] WAIT(120* ticks)
240: 0x0C67 [0xBB] LOAD_EVENT_SCHEDULER_ALT: Load scheduler "kl00" with entities [Big 1 (ID: 17126166/0x01055316), Big 1 (ID: 17126166/0x01055316)], work=[199*, 0*]
241: 0x0C78 [0xBB] LOAD_EVENT_SCHEDULER_ALT: Load scheduler "kl00" with entities [Big 2 (ID: 17126167/0x01055317), Big 2 (ID: 17126167/0x01055317)], work=[199*, 0*]
242: 0x0C89 [0x5B] LOAD_EXT_SCHEDULER: Load scheduler "shd0" with entities [Cait Sith (ID: 17126175/0x0105531F), Cait Sith (ID: 17126175/0x0105531F)], work=1456*
243: 0x0C98 [0x1C] WAIT(90* ticks)
244: 0x0C9B [0x52] END_LOAD_SCHEDULER: End scheduler "2750" with entities [LocalPlayer, LocalPlayer], work=395*
245: 0x0CAA [0x45] LOAD_SCHEDULED_TASK: Load scheduler "2752" with entities [LocalPlayer, LocalPlayer], work=[395*, 0*]
246: 0x0CBB [0xBB] LOAD_EVENT_SCHEDULER_ALT: Load scheduler "s001" with entities [Cait Sith (ID: 17126175/0x0105531F), Cait Sith (ID: 17126175/0x0105531F)], work=[217*, 0*]
247: 0x0CCC [0xBA] SET_ENTITY_POSITION(entity_id=Cait Sith (ID: 17126175/0x0105531F), pos_x=-448.206*, pos_z=362.013*, pos_y=-115.999*, direction=340.9°*)
248: 0x0CD9 [0x1C] WAIT(30* ticks)
249: 0x0CDC [0xBA] SET_ENTITY_POSITION(entity_id=Lilisette (ID: 17126137/0x010552F9), pos_x=216.528*, pos_z=-3.960*, pos_y=-0.015*, direction=0.0°*)
250: 0x0CE9 [0x27] REQ_SET(priority=0x10, entity_id=Gallauciond (ID: 17126151/0x01055307), tag_num=0x0D)
251: 0x0CF0 [0x2C] CREATE_SCHEDULER_TASK: Create scheduler "dead" with entities [Demon Tue (ID: 17126158/0x0105530E), Demon Tue (ID: 17126158/0x0105530E)]
252: 0x0CFD [0x1C] WAIT(60* ticks)
253: 0x0D00 [0xBA] SET_ENTITY_POSITION(entity_id=Gallauciond (ID: 17126151/0x01055307), pos_x=216.528*, pos_z=-3.960*, pos_y=-0.015*, direction=0.0°*)
254: 0x0D0D [0x1C] WAIT(66* ticks)
255: 0x0D10 [0x81] SET_ENTITY_BLINKING(blink_flag=0x00, entity=Lilisette (ID: 17126137/0x010552F9))
256: 0x0D16 [0x5B] LOAD_EXT_SCHEDULER: Load scheduler "f000" with entities [Lilisette (ID: 17126137/0x010552F9), Lilisette (ID: 17126137/0x010552F9)], work=2135*
257: 0x0D25 [0x5B] LOAD_EXT_SCHEDULER: Load scheduler "kiz3" with entities [Lilisette (ID: 17126137/0x010552F9), Lilisette (ID: 17126137/0x010552F9)], work=2141*
258: 0x0D34 [0x5B] LOAD_EXT_SCHEDULER: Load scheduler "kan2" with entities [Gallauciond (ID: 17126151/0x01055307), Gallauciond (ID: 17126151/0x01055307)], work=2231*
259: 0x0D43 [0x1C] WAIT(66* ticks)
260: 0x0D46 [0x52] END_LOAD_SCHEDULER: End scheduler "2752" with entities [LocalPlayer, LocalPlayer], work=395*
261: 0x0D55 [0x45] LOAD_SCHEDULED_TASK: Load scheduler "2753" with entities [LocalPlayer, LocalPlayer], work=[395*, 0*]
262: 0x0D66 [0xBB] LOAD_EVENT_SCHEDULER_ALT: Load scheduler "s002" with entities [Cait Sith (ID: 17126175/0x0105531F), Cait Sith (ID: 17126175/0x0105531F)], work=[217*, 0*]
263: 0x0D77 [0xBA] SET_ENTITY_POSITION(entity_id=Aquila (ID: 17126143/0x010552FF), pos_x=-444.102*, pos_z=364.043*, pos_y=-115.999*, direction=147.7°*)
264: 0x0D84 [0x5B] LOAD_EXT_SCHEDULER: Load scheduler "koi0" with entities [Aquila (ID: 17126143/0x010552FF), Aquila (ID: 17126143/0x010552FF)], work=2186*
265: 0x0D93 [0x1C] WAIT(130* ticks)
266: 0x0D96 [0x52] END_LOAD_SCHEDULER: End scheduler "2753" with entities [LocalPlayer, LocalPlayer], work=395*
267: 0x0DA5 [0x45] LOAD_SCHEDULED_TASK: Load scheduler "2754" with entities [LocalPlayer, LocalPlayer], work=[395*, 0*]
268: 0x0DB6 [0xBB] LOAD_EVENT_SCHEDULER_ALT: Load scheduler "s003" with entities [Cait Sith (ID: 17126175/0x0105531F), Cait Sith (ID: 17126175/0x0105531F)], work=[217*, 0*]
269: 0x0DC7 [0x1C] WAIT(160* ticks)
270: 0x0DCA [0x1C] WAIT(234* ticks)
271: 0x0DCD [0x52] END_LOAD_SCHEDULER: End scheduler "2667" with entities [LocalPlayer, LocalPlayer], work=395*
272: 0x0DDC [0x45] LOAD_SCHEDULED_TASK: Load scheduler "ovra" with entities [LocalPlayer, LocalPlayer], work=[395*, 0*]
273: 0x0DED [0x45] LOAD_SCHEDULED_TASK: Load scheduler "ls14" with entities [LocalPlayer, LocalPlayer], work=[395*, 0*]
274: 0x0DFE [0x5B] LOAD_EXT_SCHEDULER: Load scheduler "kiz4" with entities [Lilisette (ID: 17126137/0x010552F9), Lilisette (ID: 17126137/0x010552F9)], work=2243*
275: 0x0E0D [0x1C] WAIT(60* ticks)
276: 0x0E10 [0x27] REQ_SET(priority=0x10, entity_id=Cait Sith (ID: 17126175/0x0105531F), tag_num=0x0E)
277: 0x0E17 [0x27] REQ_SET(priority=0x10, entity_id=Merfanont (ID: 17126152/0x01055308), tag_num=0x11)
278: 0x0E1E [0xBB] LOAD_EVENT_SCHEDULER_ALT: Load scheduler "s005" with entities [Cait Sith (ID: 17126175/0x0105531F), Cait Sith (ID: 17126175/0x0105531F)], work=[217*, 0*]
279: 0x0E2F [0x59] UPDATE_ENTITY_DATA: Aquila (ID: 17126143/0x010552FF)->Render.Flags0 |= 0x200000
280: 0x0E36 [0xBA] SET_ENTITY_POSITION(entity_id=Aquila (ID: 17126143/0x010552FF), pos_x=-471.586*, pos_z=361.391*, pos_y=-125.330*, direction=355.0°*)
281: 0x0E43 [0xBA] SET_ENTITY_POSITION(entity_id=Merfanont (ID: 17126152/0x01055308), pos_x=-446.019*, pos_z=362.083*, pos_y=-115.999*, direction=327.5°*)
282: 0x0E50 [0x1C] WAIT(150* ticks)
283: 0x0E53 [0x4E] SET_ENTITY_HIDE_FLAG: Hide Cait Sith (ID: 17126175/0x0105531F)
284: 0x0E59 [0x7B] Ragelise (ID: 17126139/0x010552FB) stops talking
285: 0x0E5E [0x5B] LOAD_EXT_SCHEDULER: Load scheduler "ban0" with entities [Aquila (ID: 17126143/0x010552FF), Aquila (ID: 17126143/0x010552FF)], work=2183*
286: 0x0E6D [0x27] REQ_SET(priority=0x10, entity_id=Ragelise (ID: 17126139/0x010552FB), tag_num=0x0F)
287: 0x0E74 [0x1C] WAIT(150* ticks)
288: 0x0E77 [0x52] END_LOAD_SCHEDULER: End scheduler "ls14" with entities [LocalPlayer, LocalPlayer], work=395*
289: 0x0E86 [0x45] LOAD_SCHEDULED_TASK: Load scheduler "sp12" with entities [LocalPlayer, LocalPlayer], work=[395*, 0*]
290: 0x0E97 [0x5B] LOAD_EXT_SCHEDULER: Load scheduler "vsb0" with entities [Merfanont (ID: 17126152/0x01055308), Merfanont (ID: 17126152/0x01055308)], work=1496*
291: 0x0EA6 [0x5B] LOAD_EXT_SCHEDULER: Load scheduler "vsa0" with entities [Ragelise (ID: 17126139/0x010552FB), Ragelise (ID: 17126139/0x010552FB)], work=1496*
292: 0x0EB5 [0xBA] SET_ENTITY_POSITION(entity_id=Ragelise (ID: 17126139/0x010552FB), pos_x=-446.019*, pos_z=362.083*, pos_y=-115.999*, direction=327.5°*)
293: 0x0EC2 [0xBB] LOAD_EVENT_SCHEDULER_ALT: Load scheduler "s002" with entities [Merfanont (ID: 17126152/0x01055308), Merfanont (ID: 17126152/0x01055308)], work=[204*, 0*]
294: 0x0ED3 [0x1C] WAIT(60* ticks)
295: 0x0ED6 [0x52] END_LOAD_SCHEDULER: End scheduler "sp12" with entities [LocalPlayer, LocalPlayer], work=395*
296: 0x0EE5 [0x45] LOAD_SCHEDULED_TASK: Load scheduler "sp11" with entities [LocalPlayer, LocalPlayer], work=[395*, 0*]
297: 0x0EF6 [0x5B] LOAD_EXT_SCHEDULER: Load scheduler "vsb0" with entities [Merfanont (ID: 17126152/0x01055308), Merfanont (ID: 17126152/0x01055308)], work=1496*
298: 0x0F05 [0x5B] LOAD_EXT_SCHEDULER: Load scheduler "vsa0" with entities [Ragelise (ID: 17126139/0x010552FB), Ragelise (ID: 17126139/0x010552FB)], work=1496*
299: 0x0F14 [0xBB] LOAD_EVENT_SCHEDULER_ALT: Load scheduler "s002" with entities [Merfanont (ID: 17126152/0x01055308), Merfanont (ID: 17126152/0x01055308)], work=[204*, 0*]
300: 0x0F25 [0x1C] WAIT(90* ticks)
301: 0x0F28 [0x52] END_LOAD_SCHEDULER: End scheduler "sp11" with entities [LocalPlayer, LocalPlayer], work=395*
302: 0x0F37 [0x45] LOAD_SCHEDULED_TASK: Load scheduler "sp13" with entities [LocalPlayer, LocalPlayer], work=[395*, 0*]
303: 0x0F48 [0x1C] WAIT(120* ticks)
304: 0x0F4B [0x52] END_LOAD_SCHEDULER: End scheduler "sp13" with entities [LocalPlayer, LocalPlayer], work=395*
305: 0x0F5A [0x45] LOAD_SCHEDULED_TASK: Load scheduler "sp14" with entities [LocalPlayer, LocalPlayer], work=[395*, 0*]
306: 0x0F6B [0xBA] SET_ENTITY_POSITION(entity_id=LocalPlayer, pos_x=-441.130*, pos_z=369.591*, pos_y=-115.999*, direction=71.4°*)
307: 0x0F78 [0xBA] SET_ENTITY_POSITION(entity_id=Lilisette (ID: 17126137/0x010552F9), pos_x=-439.260*, pos_z=369.735*, pos_y=-115.999*, direction=131.8°*)
308: 0x0F85 [0xBA] SET_ENTITY_POSITION(entity_id=Gallauciond (ID: 17126151/0x01055307), pos_x=-439.946*, pos_z=368.554*, pos_y=-116.000*, direction=128.1°*)
309: 0x0F92 [0x4A] LocalPlayer looks at Demon Tue (ID: 17126158/0x0105530E)
310: 0x0F9B [0x79] LocalPlayer looks at Ragelise (ID: 17126139/0x010552FB) (Basic look)
311: 0x0FA5 [0x5B] LOAD_EXT_SCHEDULER: Load scheduler "lov1" with entities [Gallauciond (ID: 17126151/0x01055307), Gallauciond (ID: 17126151/0x01055307)], work=2233*
312: 0x0FB4 [0x5B] LOAD_EXT_SCHEDULER: Load scheduler "fi00" with entities [Lilisette (ID: 17126137/0x010552F9), Lilisette (ID: 17126137/0x010552F9)], work=2135*
313: 0x0FC3 [0x5B] LOAD_EXT_SCHEDULER: Load scheduler "ba00" with entities [Lilisette (ID: 17126137/0x010552F9), Lilisette (ID: 17126137/0x010552F9)], work=2146*
314: 0x0FD2 [0x1C] WAIT(120* ticks)
315: 0x0FD5 [0x52] END_LOAD_SCHEDULER: End scheduler "sp14" with entities [LocalPlayer, LocalPlayer], work=395*
316: 0x0FE4 [0x45] LOAD_SCHEDULED_TASK: Load scheduler "2719" with entities [LocalPlayer, LocalPlayer], work=[395*, 0*]
317: 0x0FF5 [0x1C] WAIT(30* ticks)
318: 0x0FF8 [0xBB] LOAD_EVENT_SCHEDULER_ALT: Load scheduler "st01" with entities [Aquila (ID: 17126143/0x010552FF), Aquila (ID: 17126143/0x010552FF)], work=[205*, 0*]
319: 0x1009 [0x1C] WAIT(150* ticks)
320: 0x100C [0x52] END_LOAD_SCHEDULER: End scheduler "2719" with entities [LocalPlayer, LocalPlayer], work=395*
321: 0x101B [0x45] LOAD_SCHEDULED_TASK: Load scheduler "2718" with entities [LocalPlayer, LocalPlayer], work=[395*, 0*]
322: 0x102C [0x1C] WAIT(60* ticks)
323: 0x102F [0x52] END_LOAD_SCHEDULER: End scheduler "2718" with entities [LocalPlayer, LocalPlayer], work=395*
324: 0x103E [0x45] LOAD_SCHEDULED_TASK: Load scheduler "sp18" with entities [LocalPlayer, LocalPlayer], work=[395*, 0*]
325: 0x104F [0x5B] LOAD_EXT_SCHEDULER: Load scheduler "fi01" with entities [Lilisette (ID: 17126137/0x010552F9), Lilisette (ID: 17126137/0x010552F9)], work=2135*
326: 0x105E [0x5B] LOAD_EXT_SCHEDULER: Load scheduler "ba01" with entities [Lilisette (ID: 17126137/0x010552F9), Lilisette (ID: 17126137/0x010552F9)], work=2146*
327: 0x106D [0x1C] WAIT(15* ticks)
328: 0x1070 [0x1C] WAIT(30* ticks)
329: 0x1073 [0x52] END_LOAD_SCHEDULER: End scheduler "sp18" with entities [LocalPlayer, LocalPlayer], work=395*
330: 0x1082 [0x45] LOAD_SCHEDULED_TASK: Load scheduler "2720" with entities [LocalPlayer, LocalPlayer], work=[395*, 0*]
331: 0x1093 [0x1C] WAIT(30* ticks)
332: 0x1096 [0xBB] LOAD_EVENT_SCHEDULER_ALT: Load scheduler "st02" with entities [Aquila (ID: 17126143/0x010552FF), Aquila (ID: 17126143/0x010552FF)], work=[205*, 0*]
333: 0x10A7 [0x45] LOAD_SCHEDULED_TASK: Load scheduler "nse1" with entities [Aquila (ID: 17126143/0x010552FF), Aquila (ID: 17126143/0x010552FF)], work=[395*, 0*]
334: 0x10B8 [0x1C] WAIT(90* ticks)
335: 0x10BB [0x52] END_LOAD_SCHEDULER: End scheduler "2720" with entities [LocalPlayer, LocalPlayer], work=395*
336: 0x10CA [0x45] LOAD_SCHEDULED_TASK: Load scheduler "2723" with entities [LocalPlayer, LocalPlayer], work=[395*, 0*]
337: 0x10DB [0x55] WAIT_LOAD_SCHEDULER: Wait for scheduler "2723" with entities [LocalPlayer, LocalPlayer], work=395*
338: 0x10EA [0x45] LOAD_SCHEDULED_TASK: Load scheduler "2721" with entities [LocalPlayer, LocalPlayer], work=[395*, 0*]
339: 0x10FB [0x27] REQ_SET(priority=0x10, entity_id=LocalPlayer, tag_num=0x14)
340: 0x1102 [0xBA] SET_ENTITY_POSITION(entity_id=Lilisette (ID: 17126137/0x010552F9), pos_x=85.196*, pos_z=-135.634*, pos_y=-3.259*, direction=261.8°*)
341: 0x110F [0xBA] SET_ENTITY_POSITION(entity_id=LocalPlayer, pos_x=86.618*, pos_z=-136.652*, pos_y=-2.985*, direction=261.8°*)
342: 0x111C [0xBA] SET_ENTITY_POSITION(entity_id=Gallauciond (ID: 17126151/0x01055307), pos_x=0.000*, pos_z=0.000*, pos_y=0.000*, direction=0.0°*)
343: 0x1129 [0x5B] LOAD_EXT_SCHEDULER: Load scheduler "fki0" with entities [Ragelise (ID: 17126139/0x010552FB), Ragelise (ID: 17126139/0x010552FB)], work=2217*
344: 0x1138 [0xBB] LOAD_EVENT_SCHEDULER_ALT: Load scheduler "st01" with entities [Ragelise (ID: 17126139/0x010552FB), Ragelise (ID: 17126139/0x010552FB)], work=[215*, 0*]
345: 0x1149 [0x5B] LOAD_EXT_SCHEDULER: Load scheduler "vsbl" with entities [Merfanont (ID: 17126152/0x01055308), Merfanont (ID: 17126152/0x01055308)], work=1496*
346: 0x1158 [0x1C] WAIT(60* ticks)
347: 0x115B [0x5B] LOAD_EXT_SCHEDULER: Load scheduler "fd01" with entities [Lilisette (ID: 17126137/0x010552F9), Lilisette (ID: 17126137/0x010552F9)], work=2135*
348: 0x116A [0x5B] LOAD_EXT_SCHEDULER: Load scheduler "tld0" with entities [Lilisette (ID: 17126137/0x010552F9), Lilisette (ID: 17126137/0x010552F9)], work=2132*
349: 0x1179 [0x1C] WAIT(60* ticks)
350: 0x117C [0x52] END_LOAD_SCHEDULER: End scheduler "2721" with entities [LocalPlayer, LocalPlayer], work=395*
351: 0x118B [0x45] LOAD_SCHEDULED_TASK: Load scheduler "2725" with entities [LocalPlayer, LocalPlayer], work=[395*, 0*]
352: 0x119C [0x4A] Lilisette (ID: 17126137/0x010552F9) looks at LocalPlayer
353: 0x11A5 [0x4A] LocalPlayer looks at Lilisette (ID: 17126137/0x010552F9)
354: 0x11AE [0x27] REQ_SET(priority=0x10, entity_id=Unnamed NPC (ID: 17126135/0x010552F7), tag_num=0x0A)
355: 0x11B5 [0x1C] WAIT(40* ticks)
356: 0x11B8 [0x52] END_LOAD_SCHEDULER: End scheduler "2725" with entities [LocalPlayer, LocalPlayer], work=395*
357: 0x11C7 [0x45] LOAD_SCHEDULED_TASK: Load scheduler "ovra" with entities [LocalPlayer, LocalPlayer], work=[395*, 0*]
358: 0x11D8 [0x45] LOAD_SCHEDULED_TASK: Load scheduler "1019" with entities [LocalPlayer, LocalPlayer], work=[395*, 0*]
359: 0x11E9 [0x53] WAIT_SCHEDULER_TASK: Wait for scheduler "tld1" with entities [Lilisette (ID: 17126137/0x010552F9), Lilisette (ID: 17126137/0x010552F9)]
360: 0x11F6 [0x5B] LOAD_EXT_SCHEDULER: Load scheduler "thb0" with entities [Lilisette (ID: 17126137/0x010552F9), Lilisette (ID: 17126137/0x010552F9)], work=2133*
361: 0x1205 [0xBB] LOAD_EVENT_SCHEDULER_ALT: Load scheduler "kila" with entities [Aquila (ID: 17126143/0x010552FF), Aquila (ID: 17126143/0x010552FF)], work=[205*, 0*]
362: 0x1216 [0x1C] WAIT(90* ticks)
363: 0x1219 [0x52] END_LOAD_SCHEDULER: End scheduler "1019" with entities [LocalPlayer, LocalPlayer], work=395*
364: 0x1228 [0x45] LOAD_SCHEDULED_TASK: Load scheduler "1020" with entities [LocalPlayer, LocalPlayer], work=[395*, 0*]
365: 0x1239 [0x1C] WAIT(90* ticks)
366: 0x123C [0x53] WAIT_SCHEDULER_TASK: Wait for scheduler "thb0" with entities [Lilisette (ID: 17126137/0x010552F9), Lilisette (ID: 17126137/0x010552F9)]
367: 0x1249 [0x5B] LOAD_EXT_SCHEDULER: Load scheduler "fb01" with entities [Lilisette (ID: 17126137/0x010552F9), Lilisette (ID: 17126137/0x010552F9)], work=2135*
368: 0x1258 [0x52] END_LOAD_SCHEDULER: End scheduler "1020" with entities [LocalPlayer, LocalPlayer], work=395*
369: 0x1267 [0x45] LOAD_SCHEDULED_TASK: Load scheduler "1022" with entities [LocalPlayer, LocalPlayer], work=[395*, 0*]
370: 0x1278 [0x1C] WAIT(150* ticks)
371: 0x127B [0x52] END_LOAD_SCHEDULER: End scheduler "1022" with entities [LocalPlayer, LocalPlayer], work=395*
372: 0x128A [0x45] LOAD_SCHEDULED_TASK: Load scheduler "1021" with entities [LocalPlayer, LocalPlayer], work=[395*, 0*]
373: 0x129B [0x1C] WAIT(300* ticks)
374: 0x129E [0x5D] SET_MUSIC_VOLUME(volume=0*, fade_time=300*)
375: 0x12A3 [0x5D] SET_MUSIC_VOLUME(volume=0*, fade_time=90*)
376: 0x12A8 [0x1A] CALL_SUBROUTINE(address=0x1424)
377: 0x12AB [0x27] REQ_SET(priority=0x10, entity_id=Cait Sith (ID: 17126175/0x0105531F), tag_num=0x0E)
378: 0x12B2 [0x27] REQ_SET(priority=0x10, entity_id=Gallauciond (ID: 17126151/0x01055307), tag_num=0x0E)
379: 0x12B9 [0x27] REQ_SET(priority=0x10, entity_id=Merfanont (ID: 17126152/0x01055308), tag_num=0x12)
380: 0x12C0 [0x27] REQ_SET(priority=0x10, entity_id=Demon Ken 2 (ID: 17126159/0x0105530F), tag_num=0x0F)
381: 0x12C7 [0x27] REQ_SET(priority=0x10, entity_id=Demon Kama 2 (ID: 17126160/0x01055310), tag_num=0x10)
382: 0x12CE [0x27] REQ_SET(priority=0x10, entity_id=Ragelise (ID: 17126139/0x010552FB), tag_num=0x13)
383: 0x12D5 [0xBA] SET_ENTITY_POSITION(entity_id=LocalPlayer, pos_x=294.698*, pos_z=-215.679*, pos_y=3.422*, direction=84.6°*)
384: 0x12E2 [0x1C] WAIT(60* ticks)
385: 0x12E5 [0x5C] MUSIC_CONTROL: Set Idle (Day) music to song 0*
386: 0x12E9 [0x5C] MUSIC_CONTROL: Set Idle (Night) music to song 0*
387: 0x12ED [0x5C] MUSIC_CONTROL: Set Combat (Solo) music to song 0*
388: 0x12F1 [0x5C] MUSIC_CONTROL: Set Combat (Party) music to song 0*
389: 0x12F5 [0x9A] WAIT_MUSIC_SERVER()
390: 0x12F6 [0x69] SET_SOUND_VOLUME: Unmute System/Zone/Master/SpecialChat
391: 0x12FA [0x78] ENABLE_GAME_TIMER_RESET_WEATHER()
392: 0x12FB [0x45] LOAD_SCHEDULED_TASK: Load scheduler "kaif" with entities [LocalPlayer, LocalPlayer], work=[395*, 0*]
393: 0x130C [0x4E] SET_ENTITY_HIDE_FLAG: Show Unnamed NPC (ID: 17126196/0x01055334)
394: 0x1312 [0x4A] LocalPlayer looks at Unnamed NPC (ID: 17126196/0x01055334)
395: 0x131B [0x1C] WAIT(180* ticks)
396: 0x131E [0x45] LOAD_SCHEDULED_TASK: Load scheduler "blof" with entities [LocalPlayer, LocalPlayer], work=[200*, 0*]
397: 0x132F [0x52] END_LOAD_SCHEDULER: End scheduler "1021" with entities [LocalPlayer, LocalPlayer], work=395*
398: 0x133E [0x45] LOAD_SCHEDULED_TASK: Load scheduler "0001" with entities [LocalPlayer, LocalPlayer], work=[552*, 0*]
399: 0x134F [0x1A] CALL_SUBROUTINE(address=0x1403)
400: 0x1352 [0x1C] WAIT(180* ticks)
401: 0x1355 [0x1A] CALL_SUBROUTINE(address=0x13E2)
402: 0x1358 [0x1C] WAIT(30* ticks)
403: 0x135B [0x52] END_LOAD_SCHEDULER: End scheduler "0001" with entities [LocalPlayer, LocalPlayer], work=552*
404: 0x136A [0x46] CAMERA_CONTROL: Restore default settings
405: 0x136C [0x45] LOAD_SCHEDULED_TASK: Load scheduler "fdi2" with entities [LocalPlayer, LocalPlayer], work=[200*, 0*]
406: 0x137D [0x21] END_EVENT
407: 0x137E [0x00] END_REQSTACK()

SUBROUTINE_13C1:
408: 0x13C1 [0x45] LOAD_SCHEDULED_TASK: Load scheduler "fdi1" with entities [LocalPlayer, LocalPlayer], work=[200*, 0*]
409: 0x13D2 [0x55] WAIT_LOAD_SCHEDULER: Wait for scheduler "fdi1" with entities [LocalPlayer, LocalPlayer], work=200*
410: 0x13E1 [0x1B] RETURN

SUBROUTINE_13E2:
411: 0x13E2 [0x45] LOAD_SCHEDULED_TASK: Load scheduler "fdo1" with entities [LocalPlayer, LocalPlayer], work=[200*, 0*]
412: 0x13F3 [0x55] WAIT_LOAD_SCHEDULER: Wait for scheduler "fdo1" with entities [LocalPlayer, LocalPlayer], work=200*
413: 0x1402 [0x1B] RETURN

SUBROUTINE_1403:
414: 0x1403 [0x45] LOAD_SCHEDULED_TASK: Load scheduler "whi1" with entities [LocalPlayer, LocalPlayer], work=[201*, 0*]
415: 0x1414 [0x55] WAIT_LOAD_SCHEDULER: Wait for scheduler "whi1" with entities [LocalPlayer, LocalPlayer], work=201*
416: 0x1423 [0x1B] RETURN

SUBROUTINE_1424:
417: 0x1424 [0x45] LOAD_SCHEDULED_TASK: Load scheduler "who1" with entities [LocalPlayer, LocalPlayer], work=[201*, 0*]
418: 0x1435 [0x55] WAIT_LOAD_SCHEDULER: Wait for scheduler "who1" with entities [LocalPlayer, LocalPlayer], work=201*
419: 0x1444 [0x1B] RETURN
```

#### Data or dead code:

```
# Dead code (unreachable instructions):
     0x137F [0x45] LOAD_SCHEDULED_TASK: Load scheduler "fdi0" with entities [LocalPlayer, LocalPlayer], work=[200*, 0*]
     0x1390 [0x55] WAIT_LOAD_SCHEDULER: Wait for scheduler "fdi0" with entities [LocalPlayer, LocalPlayer], work=200*
     0x139F [0x1B] RETURN
     0x13A0 [0x45] LOAD_SCHEDULED_TASK: Load scheduler "fdo0" with entities [LocalPlayer, LocalPlayer], work=[200*, 0*]
     0x13B1 [0x55] WAIT_LOAD_SCHEDULER: Wait for scheduler "fdo0" with entities [LocalPlayer, LocalPlayer], work=200*
     0x13C0 [0x1B] RETURN
# Dead code (unreachable instructions):
     0x1445 [0x45] LOAD_SCHEDULED_TASK: Load scheduler "who2" with entities [LocalPlayer, LocalPlayer], work=[201*, 0*]
     0x1456 [0x55] WAIT_LOAD_SCHEDULER: Wait for scheduler "who2" with entities [LocalPlayer, LocalPlayer], work=201*
     0x1465 [0x1B] RETURN
     0x1466 [0x45] LOAD_SCHEDULED_TASK: Load scheduler "who3" with entities [LocalPlayer, LocalPlayer], work=[201*, 0*]
     0x1477 [0x55] WAIT_LOAD_SCHEDULER: Wait for scheduler "who3" with entities [LocalPlayer, LocalPlayer], work=201*
     0x1486 [0x1B] RETURN
     0x1487 [0x62] LOAD_EVENT_SCHEDULER: Load scheduler "main" with entities [LocalPlayer, LocalPlayer], work=[1*, 0*]
     0x1498 [0x1C] WAIT(45* ticks)
     0x149B [0x45] LOAD_SCHEDULED_TASK: Load scheduler "fdo1" with entities [LocalPlayer, LocalPlayer], work=[200*, 0*]
     0x14AC [0x55] WAIT_LOAD_SCHEDULER: Wait for scheduler "fdo1" with entities [LocalPlayer, LocalPlayer], work=200*
     0x14BB [0x1B] RETURN
     0x14BC [0x45] LOAD_SCHEDULED_TASK: Load scheduler "fdi1" with entities [LocalPlayer, LocalPlayer], work=[200*, 0*]
     0x14CD [0x62] LOAD_EVENT_SCHEDULER: Load scheduler "main" with entities [LocalPlayer, LocalPlayer], work=[2*, 0*]
     0x14DE [0x1C] WAIT(30* ticks)
     0x14E1 [0x55] WAIT_LOAD_SCHEDULER: Wait for scheduler "fdi1" with entities [LocalPlayer, LocalPlayer], work=200*
     0x14F0 [0x1B] RETURN
     0x14F1 [0x45] LOAD_SCHEDULED_TASK: Load scheduler "blon" with entities [LocalPlayer, LocalPlayer], work=[200*, 0*]
     0x1502 [0x45] LOAD_SCHEDULED_TASK: Load scheduler "blon" with entities [LocalPlayer, LocalPlayer], work=[201*, 0*]
     0x1513 [0x1B] RETURN
     0x1514 [0x45] LOAD_SCHEDULED_TASK: Load scheduler "whi0" with entities [LocalPlayer, LocalPlayer], work=[201*, 0*]
     0x1525 [0x55] WAIT_LOAD_SCHEDULER: Wait for scheduler "whi0" with entities [LocalPlayer, LocalPlayer], work=201*
     0x1534 [0x1B] RETURN
     0x1535 [0x45] LOAD_SCHEDULED_TASK: Load scheduler "who0" with entities [LocalPlayer, LocalPlayer], work=[201*, 0*]
     0x1546 [0x55] WAIT_LOAD_SCHEDULER: Wait for scheduler "who0" with entities [LocalPlayer, LocalPlayer], work=201*
     0x1555 [0x1B] RETURN
     0x1556 [0x45] LOAD_SCHEDULED_TASK: Load scheduler "efon" with entities [LocalPlayer, LocalPlayer], work=[215*, 0*]
     0x1567 [0x55] WAIT_LOAD_SCHEDULER: Wait for scheduler "efon" with entities [LocalPlayer, LocalPlayer], work=215*
     0x1576 [0x1B] RETURN
     0x1577 [0x45] LOAD_SCHEDULED_TASK: Load scheduler "fdis" with entities [LocalPlayer, LocalPlayer], work=[200*, 0*]
     0x1588 [0x1B] RETURN
     0x1589 [0x45] LOAD_SCHEDULED_TASK: Load scheduler "fdos" with entities [LocalPlayer, LocalPlayer], work=[200*, 0*]
     0x159A [0x55] WAIT_LOAD_SCHEDULER: Wait for scheduler "fdos" with entities [LocalPlayer, LocalPlayer], work=200*
     0x15A9 [0x1B] RETURN
     0x15AA [0x45] LOAD_SCHEDULED_TASK: Load scheduler "fdif" with entities [LocalPlayer, LocalPlayer], work=[200*, 0*]
     0x15BB [0x1B] RETURN
     0x15BC [0x45] LOAD_SCHEDULED_TASK: Load scheduler "fdof" with entities [LocalPlayer, LocalPlayer], work=[200*, 0*]
     0x15CD [0x55] WAIT_LOAD_SCHEDULER: Wait for scheduler "fdof" with entities [LocalPlayer, LocalPlayer], work=200*
     0x15DC [0x1B] RETURN
     0x15DD [0x45] LOAD_SCHEDULED_TASK: Load scheduler "fdip" with entities [LocalPlayer, LocalPlayer], work=[200*, 0*]
     0x15EE [0x1B] RETURN
     0x15EF [0x45] LOAD_SCHEDULED_TASK: Load scheduler "fdop" with entities [LocalPlayer, LocalPlayer], work=[200*, 0*]
     0x1600 [0x55] WAIT_LOAD_SCHEDULER: Wait for scheduler "fdop" with entities [LocalPlayer, LocalPlayer], work=200*
     0x160F [0x1B] RETURN
```
