# 17126139 - Ragelise

## Common Data

| Field            | Value                 |
|------------------|-----------------------|
| Zone             | La Vaule [S] (ID: 85) |
| Block Size       | 520 bytes             |
| Total Events     | 21                    |
| References Count | 26                    |

## List of Events

| Event ID                   | Entrypoint   |   Size |   Instructions |
|----------------------------|--------------|--------|----------------|
| [65535](#event-65535)      | 0x0000       |      1 |              1 |
| [65535.1](#event-655351)   | 0x0001       |      1 |              1 |
| [65535.2](#event-655352)   | 0x0002       |     18 |              4 |
| [65535.3](#event-655353)   | 0x0014       |     10 |              2 |
| [65535.4](#event-655354)   | 0x001E       |      9 |              3 |
| [65535.5](#event-655355)   | 0x0027       |      9 |              3 |
| [65535.6](#event-655356)   | 0x0030       |     10 |              2 |
| [65535.7](#event-655357)   | 0x003A       |     10 |              2 |
| [1](#event-1)              | 0x0044       |     21 |              2 |
| [2](#event-2)              | 0x0059       |     24 |              3 |
| [6](#event-6)              | 0x0071       |     21 |              2 |
| [65535.8](#event-655358)   | 0x0086       |     34 |              7 |
| [65535.9](#event-655359)   | 0x00A8       |     15 |              5 |
| [65535.10](#event-6553510) | 0x00B7       |     15 |              5 |
| [65535.11](#event-6553511) | 0x00C6       |     15 |              5 |
| [65535.12](#event-6553512) | 0x00D5       |     21 |              2 |
| [65535.13](#event-6553513) | 0x00EA       |     21 |              2 |
| [65535.14](#event-6553514) | 0x00FF       |     15 |              5 |
| [65535.15](#event-6553515) | 0x010E       |     21 |              2 |
| [65535.16](#event-6553516) | 0x0123       |     21 |              2 |
| [5](#event-5)              | 0x0138       |      1 |              1 |

## DAT References (imed_data)

|   Index | Hex Value   |   Dec Value |
|---------|-------------|-------------|
|       0 | 0x0000      |           0 |
|       1 | 0x0001      |           1 |
|       2 | 0x0080      |         128 |
|       3 | 0x0003      |           3 |
|       4 | 0x000B      |          11 |
|       5 | 0x001B      |          27 |
|       6 | 0x00D9      |         217 |
|       7 | 0x00FA      |         250 |
|       8 | 0x00D3      |         211 |
|       9 | 0x0106      |         262 |
|      10 | 0x35A02     |      219650 |
|      11 | 0x09AB      |        2475 |
|      12 | 0x000D      |          13 |
|      13 | 0x34FCF     |      217039 |
|      14 | 0xFFFFE491  |  4294960273 |
|      15 | 0xFFFFFF8B  |  4294967179 |
|      16 | 0x42DDA     |      273882 |
|      17 | 0xFFFD0723  |  4294772515 |
|      18 | 0x0F8C      |        3980 |
|      19 | 0x000A      |          10 |
|      20 | 0x43406     |      275462 |
|      21 | 0xFFFCFCC9  |  4294769865 |
|      22 | 0x0F9F      |        3999 |
|      23 | 0x0028      |          40 |
|      24 | 0x430AC     |      274604 |
|      25 | 0xFFFC7F27  |  4294737703 |

## Events

### Event 65535

#### Metadata

| Field        | Value   |
|--------------|---------|
| Entrypoint   | 0x0000  |
| Data Size    | 1 bytes |
| Instructions | 1       |

```
      00 01 02 03 04 05 06 07  08 09 0A 0B 0C 0D 0E 0F
      -- -- -- -- -- -- -- --  -- -- -- -- -- -- -- --
0000: 00                                                .               
```

#### Opcodes

```
  0: 0x0000 [0x00] END_REQSTACK()
```

### Event 65535.1

#### Metadata

| Field        | Value   |
|--------------|---------|
| Entrypoint   | 0x0001  |
| Data Size    | 1 bytes |
| Instructions | 1       |

```
      00 01 02 03 04 05 06 07  08 09 0A 0B 0C 0D 0E 0F
      -- -- -- -- -- -- -- --  -- -- -- -- -- -- -- --
0000:    00                                              .              
```

#### Opcodes

```
  0: 0x0001 [0x00] END_REQSTACK()
```

### Event 65535.2

#### Metadata

| Field        | Value    |
|--------------|----------|
| Entrypoint   | 0x0002   |
| Data Size    | 18 bytes |
| Instructions | 4        |

```
      00 01 02 03 04 05 06 07  08 09 0A 0B 0C 0D 0E 0F
      -- -- -- -- -- -- -- --  -- -- -- -- -- -- -- --
0000:       22 00 2F 00 F8 FF  FF 7F 6C F8 FF FF 7F 00    "./.....l.....
0010: 80 01 80 00                                       ....            
```

#### Opcodes

```
  0: 0x0002 [0x22] ENTITY_HIDE_FLAG(enabled=0x00)
  1: 0x0004 [0x2F] EventEntity->Render.Flags0 &= ~0x80000 // Bit 19
  2: 0x000A [0x6C] FADE_ENTITY_COLOR(entity_id=EventEntity, end_alpha=0*, fade_time=1*)
  3: 0x0013 [0x00] END_REQSTACK()
```

### Event 65535.3

#### Metadata

| Field        | Value    |
|--------------|----------|
| Entrypoint   | 0x0014   |
| Data Size    | 10 bytes |
| Instructions | 2        |

```
      00 01 02 03 04 05 06 07  08 09 0A 0B 0C 0D 0E 0F
      -- -- -- -- -- -- -- --  -- -- -- -- -- -- -- --
0010:             6C F8 FF FF  7F 02 80 01 80 00            l.........  
```

#### Opcodes

```
  0: 0x0014 [0x6C] FADE_ENTITY_COLOR(entity_id=EventEntity, end_alpha=128*, fade_time=1*)
  1: 0x001D [0x00] END_REQSTACK()
```

### Event 65535.4

#### Metadata

| Field        | Value   |
|--------------|---------|
| Entrypoint   | 0x001E  |
| Data Size    | 9 bytes |
| Instructions | 3       |

```
      00 01 02 03 04 05 06 07  08 09 0A 0B 0C 0D 0E 0F
      -- -- -- -- -- -- -- --  -- -- -- -- -- -- -- --
0010:                                            22 00                ".
0020: 2F 00 F8 FF FF 7F 00                              /......         
```

#### Opcodes

```
  0: 0x001E [0x22] ENTITY_HIDE_FLAG(enabled=0x00)
  1: 0x0020 [0x2F] EventEntity->Render.Flags0 &= ~0x80000 // Bit 19
  2: 0x0026 [0x00] END_REQSTACK()
```

### Event 65535.5

#### Metadata

| Field        | Value   |
|--------------|---------|
| Entrypoint   | 0x0027  |
| Data Size    | 9 bytes |
| Instructions | 3       |

```
      00 01 02 03 04 05 06 07  08 09 0A 0B 0C 0D 0E 0F
      -- -- -- -- -- -- -- --  -- -- -- -- -- -- -- --
0020:                      22  01 2F 01 F8 FF FF 7F 00         "./......
```

#### Opcodes

```
  0: 0x0027 [0x22] ENTITY_HIDE_FLAG(enabled=0x01)
  1: 0x0029 [0x2F] EventEntity->Render.Flags0 |= 0x80000 // Bit 19
  2: 0x002F [0x00] END_REQSTACK()
```

### Event 65535.6

#### Metadata

| Field        | Value    |
|--------------|----------|
| Entrypoint   | 0x0030   |
| Data Size    | 10 bytes |
| Instructions | 2        |

```
      00 01 02 03 04 05 06 07  08 09 0A 0B 0C 0D 0E 0F
      -- -- -- -- -- -- -- --  -- -- -- -- -- -- -- --
0030: 6C F8 FF FF 7F 00 80 01  80 00                    l.........      
```

#### Opcodes

```
  0: 0x0030 [0x6C] FADE_ENTITY_COLOR(entity_id=EventEntity, end_alpha=0*, fade_time=1*)
  1: 0x0039 [0x00] END_REQSTACK()
```

### Event 65535.7

#### Metadata

| Field        | Value    |
|--------------|----------|
| Entrypoint   | 0x003A   |
| Data Size    | 10 bytes |
| Instructions | 2        |

```
      00 01 02 03 04 05 06 07  08 09 0A 0B 0C 0D 0E 0F
      -- -- -- -- -- -- -- --  -- -- -- -- -- -- -- --
0030:                                6C F8 FF FF 7F 02            l.....
0040: 80 01 80 00                                       ....            
```

#### Opcodes

```
  0: 0x003A [0x6C] FADE_ENTITY_COLOR(entity_id=EventEntity, end_alpha=128*, fade_time=1*)
  1: 0x0043 [0x00] END_REQSTACK()
```

### Event 1

#### Metadata

| Field        | Value    |
|--------------|----------|
| Entrypoint   | 0x0044   |
| Data Size    | 21 bytes |
| Instructions | 2        |

```
      00 01 02 03 04 05 06 07  08 09 0A 0B 0C 0D 0E 0F
      -- -- -- -- -- -- -- --  -- -- -- -- -- -- -- --
0040:             B6 0B 03 80  04 80 05 80 06 80 06 80      ............
0050: 06 80 06 80 07 80 05 80  00                       .........       
```

#### Opcodes

```
  0: 0x0044 [0xB6] ENTITY_APPEARANCE_HANDLER(case=Full entity look, race=3*, hair=11*, head=27*, body=217*, hands=217*, legs=217*, feet=217*, main=250*, sub=27*)
  1: 0x0058 [0x00] END_REQSTACK()
```

### Event 2

#### Metadata

| Field        | Value    |
|--------------|----------|
| Entrypoint   | 0x0059   |
| Data Size    | 24 bytes |
| Instructions | 3        |

```
      00 01 02 03 04 05 06 07  08 09 0A 0B 0C 0D 0E 0F
      -- -- -- -- -- -- -- --  -- -- -- -- -- -- -- --
0050:                             B6 0B 03 80 04 80 05           .......
0060: 80 06 80 06 80 06 80 06  80 08 80 05 80 C0 01 80  ................
0070: 00                                                .               
```

#### Opcodes

```
  0: 0x0059 [0xB6] ENTITY_APPEARANCE_HANDLER(case=Full entity look, race=3*, hair=11*, head=27*, body=217*, hands=217*, legs=217*, feet=217*, main=211*, sub=27*)
  1: 0x006D [0xC0] EventEntity->Render.Flags3 |= 0x1000 // Set bit 12 (from 1*)
  2: 0x0070 [0x00] END_REQSTACK()
```

### Event 6

#### Metadata

| Field        | Value    |
|--------------|----------|
| Entrypoint   | 0x0071   |
| Data Size    | 21 bytes |
| Instructions | 2        |

```
      00 01 02 03 04 05 06 07  08 09 0A 0B 0C 0D 0E 0F
      -- -- -- -- -- -- -- --  -- -- -- -- -- -- -- --
0070:    B6 0B 03 80 04 80 05  80 06 80 06 80 06 80 06   ...............
0080: 80 09 80 00 80 00                                 ......          
```

#### Opcodes

```
  0: 0x0071 [0xB6] ENTITY_APPEARANCE_HANDLER(case=Full entity look, race=3*, hair=11*, head=27*, body=217*, hands=217*, legs=217*, feet=217*, main=262*, sub=0*)
  1: 0x0085 [0x00] END_REQSTACK()
```

### Event 65535.8

#### Metadata

| Field        | Value    |
|--------------|----------|
| Entrypoint   | 0x0086   |
| Data Size    | 34 bytes |
| Instructions | 7        |

```
      00 01 02 03 04 05 06 07  08 09 0A 0B 0C 0D 0E 0F
      -- -- -- -- -- -- -- --  -- -- -- -- -- -- -- --
0080:                   6C F8  FF FF 7F 02 80 01 80 79        l........y
0090: 00 F8 FF FF 7F F9 52 05  01 32 04 80 1F 00 0A 80  ......R..2......
00A0: 0B 80 00 80 1F 01 6F 00                           ......o.        
```

#### Opcodes

```
  0: 0x0086 [0x6C] FADE_ENTITY_COLOR(entity_id=EventEntity, end_alpha=128*, fade_time=1*)
  1: 0x008F [0x79] EventEntity looks at Lilisette (ID: 17126137/0x010552F9) (Basic look)
  2: 0x0099 [0x32] ExtData[1]->MainSpeed = 11* * 0.1
  3: 0x009C [0x1F] MOVE_ENTITY: EventEntity moves to X=219.650*, Z=2.475*, Y=0.000*
  4: 0x00A4 [0x1F] MOVE_ENTITY: Update entity position (mode=1)
  5: 0x00A6 [0x6F] WAIT_FRAME_DELAY: Yield until WaitTime reaches zero
  6: 0x00A7 [0x00] END_REQSTACK()
```

### Event 65535.9

#### Metadata

| Field        | Value    |
|--------------|----------|
| Entrypoint   | 0x00A8   |
| Data Size    | 15 bytes |
| Instructions | 5        |

```
      00 01 02 03 04 05 06 07  08 09 0A 0B 0C 0D 0E 0F
      -- -- -- -- -- -- -- --  -- -- -- -- -- -- -- --
00A0:                          32 0C 80 1F 00 0D 80 0E          2.......
00B0: 80 0F 80 1F 01 6F 00                              .....o.         
```

#### Opcodes

```
  0: 0x00A8 [0x32] ExtData[1]->MainSpeed = 13* * 0.1
  1: 0x00AB [0x1F] MOVE_ENTITY: EventEntity moves to X=217.039*, Z=-7.023*, Y=-0.117*
  2: 0x00B3 [0x1F] MOVE_ENTITY: Update entity position (mode=1)
  3: 0x00B5 [0x6F] WAIT_FRAME_DELAY: Yield until WaitTime reaches zero
  4: 0x00B6 [0x00] END_REQSTACK()
```

### Event 65535.10

#### Metadata

| Field        | Value    |
|--------------|----------|
| Entrypoint   | 0x00B7   |
| Data Size    | 15 bytes |
| Instructions | 5        |

```
      00 01 02 03 04 05 06 07  08 09 0A 0B 0C 0D 0E 0F
      -- -- -- -- -- -- -- --  -- -- -- -- -- -- -- --
00B0:                      32  04 80 1F 00 10 80 11 80         2........
00C0: 12 80 1F 01 6F 00                                 ....o.          
```

#### Opcodes

```
  0: 0x00B7 [0x32] ExtData[1]->MainSpeed = 11* * 0.1
  1: 0x00BA [0x1F] MOVE_ENTITY: EventEntity moves to X=273.882*, Z=-194.781*, Y=3.980*
  2: 0x00C2 [0x1F] MOVE_ENTITY: Update entity position (mode=1)
  3: 0x00C4 [0x6F] WAIT_FRAME_DELAY: Yield until WaitTime reaches zero
  4: 0x00C5 [0x00] END_REQSTACK()
```

### Event 65535.11

#### Metadata

| Field        | Value    |
|--------------|----------|
| Entrypoint   | 0x00C6   |
| Data Size    | 15 bytes |
| Instructions | 5        |

```
      00 01 02 03 04 05 06 07  08 09 0A 0B 0C 0D 0E 0F
      -- -- -- -- -- -- -- --  -- -- -- -- -- -- -- --
00C0:                   32 13  80 1F 00 14 80 15 80 16        2.........
00D0: 80 1F 01 6F 00                                    ...o.           
```

#### Opcodes

```
  0: 0x00C6 [0x32] ExtData[1]->MainSpeed = 10* * 0.1
  1: 0x00C9 [0x1F] MOVE_ENTITY: EventEntity moves to X=275.462*, Z=-197.431*, Y=3.999*
  2: 0x00D1 [0x1F] MOVE_ENTITY: Update entity position (mode=1)
  3: 0x00D3 [0x6F] WAIT_FRAME_DELAY: Yield until WaitTime reaches zero
  4: 0x00D4 [0x00] END_REQSTACK()
```

### Event 65535.12

#### Metadata

| Field        | Value    |
|--------------|----------|
| Entrypoint   | 0x00D5   |
| Data Size    | 21 bytes |
| Instructions | 2        |

```
      00 01 02 03 04 05 06 07  08 09 0A 0B 0C 0D 0E 0F
      -- -- -- -- -- -- -- --  -- -- -- -- -- -- -- --
00D0:                B6 0B 03  80 04 80 05 80 06 80 06       ...........
00E0: 80 06 80 06 80 09 80 00  80 00                    ..........      
```

#### Opcodes

```
  0: 0x00D5 [0xB6] ENTITY_APPEARANCE_HANDLER(case=Full entity look, race=3*, hair=11*, head=27*, body=217*, hands=217*, legs=217*, feet=217*, main=262*, sub=0*)
  1: 0x00E9 [0x00] END_REQSTACK()
```

### Event 65535.13

#### Metadata

| Field        | Value    |
|--------------|----------|
| Entrypoint   | 0x00EA   |
| Data Size    | 21 bytes |
| Instructions | 2        |

```
      00 01 02 03 04 05 06 07  08 09 0A 0B 0C 0D 0E 0F
      -- -- -- -- -- -- -- --  -- -- -- -- -- -- -- --
00E0:                                B6 0B 03 80 04 80            ......
00F0: 05 80 00 80 06 80 06 80  06 80 00 80 00 80 00     ............... 
```

#### Opcodes

```
  0: 0x00EA [0xB6] ENTITY_APPEARANCE_HANDLER(case=Full entity look, race=3*, hair=11*, head=27*, body=0*, hands=217*, legs=217*, feet=217*, main=0*, sub=0*)
  1: 0x00FE [0x00] END_REQSTACK()
```

### Event 65535.14

#### Metadata

| Field        | Value    |
|--------------|----------|
| Entrypoint   | 0x00FF   |
| Data Size    | 15 bytes |
| Instructions | 5        |

```
      00 01 02 03 04 05 06 07  08 09 0A 0B 0C 0D 0E 0F
      -- -- -- -- -- -- -- --  -- -- -- -- -- -- -- --
00F0:                                               32                 2
0100: 17 80 1F 00 18 80 19 80  16 80 1F 01 6F 00        ............o.  
```

#### Opcodes

```
  0: 0x00FF [0x32] ExtData[1]->MainSpeed = 40* * 0.1
  1: 0x0102 [0x1F] MOVE_ENTITY: EventEntity moves to X=274.604*, Z=-229.593*, Y=3.999*
  2: 0x010A [0x1F] MOVE_ENTITY: Update entity position (mode=1)
  3: 0x010C [0x6F] WAIT_FRAME_DELAY: Yield until WaitTime reaches zero
  4: 0x010D [0x00] END_REQSTACK()
```

### Event 65535.15

#### Metadata

| Field        | Value    |
|--------------|----------|
| Entrypoint   | 0x010E   |
| Data Size    | 21 bytes |
| Instructions | 2        |

```
      00 01 02 03 04 05 06 07  08 09 0A 0B 0C 0D 0E 0F
      -- -- -- -- -- -- -- --  -- -- -- -- -- -- -- --
0100:                                            B6 0B                ..
0110: 03 80 04 80 05 80 06 80  06 80 06 80 06 80 08 80  ................
0120: 05 80 00                                          ...             
```

#### Opcodes

```
  0: 0x010E [0xB6] ENTITY_APPEARANCE_HANDLER(case=Full entity look, race=3*, hair=11*, head=27*, body=217*, hands=217*, legs=217*, feet=217*, main=211*, sub=27*)
  1: 0x0122 [0x00] END_REQSTACK()
```

### Event 65535.16

#### Metadata

| Field        | Value    |
|--------------|----------|
| Entrypoint   | 0x0123   |
| Data Size    | 21 bytes |
| Instructions | 2        |

```
      00 01 02 03 04 05 06 07  08 09 0A 0B 0C 0D 0E 0F
      -- -- -- -- -- -- -- --  -- -- -- -- -- -- -- --
0120:          B6 0B 03 80 04  80 05 80 06 80 06 80 06     .............
0130: 80 06 80 07 80 05 80 00                           ........        
```

#### Opcodes

```
  0: 0x0123 [0xB6] ENTITY_APPEARANCE_HANDLER(case=Full entity look, race=3*, hair=11*, head=27*, body=217*, hands=217*, legs=217*, feet=217*, main=250*, sub=27*)
  1: 0x0137 [0x00] END_REQSTACK()
```

### Event 5

#### Metadata

| Field        | Value   |
|--------------|---------|
| Entrypoint   | 0x0138  |
| Data Size    | 1 bytes |
| Instructions | 1       |

```
      00 01 02 03 04 05 06 07  08 09 0A 0B 0C 0D 0E 0F
      -- -- -- -- -- -- -- --  -- -- -- -- -- -- -- --
0130:                          00                               .       
```

#### Opcodes

```
  0: 0x0138 [0x00] END_REQSTACK()
```
