# 0x7FFFFFF0 - Zone Events

## Common Data

| Field            | Value                 |
|------------------|-----------------------|
| Zone             | La Vaule [S] (ID: 85) |
| Block Size       | 21112 bytes           |
| Total Events     | 28                    |
| References Count | 507                   |

## List of Events

| Event ID                   | Entrypoint   |   Size |   Instructions |
|----------------------------|--------------|--------|----------------|
| [65535](#event-65535)      | 0x0000       |      1 |              1 |
| [65534](#event-65534)      | 0x0001       |      1 |              1 |
| [65535.1](#event-655351)   | 0x0002       |     25 |              7 |
| [65535.2](#event-655352)   | 0x001B       |     15 |              5 |
| [65535.3](#event-655353)   | 0x002A       |     23 |              7 |
| [65535.4](#event-655354)   | 0x0041       |     18 |              6 |
| [65535.5](#event-655355)   | 0x0053       |     15 |              5 |
| [65535.6](#event-655356)   | 0x0062       |     15 |              5 |
| [65535.7](#event-655357)   | 0x0071       |     18 |              6 |
| [65535.8](#event-655358)   | 0x0083       |     20 |              6 |
| [65535.9](#event-655359)   | 0x0097       |     33 |              7 |
| [65535.10](#event-6553510) | 0x00B8       |     24 |              6 |
| [65535.11](#event-6553511) | 0x00D0       |     38 |              5 |
| [65535.12](#event-6553512) | 0x00F6       |     38 |              5 |
| [65535.13](#event-6553513) | 0x011C       |     38 |              5 |
| [65535.14](#event-6553514) | 0x0142       |      6 |              2 |
| [65535.15](#event-6553515) | 0x0148       |      6 |              2 |
| [65535.16](#event-6553516) | 0x014E       |     37 |              5 |
| [65535.17](#event-6553517) | 0x0173       |    185 |             37 |
| [65535.18](#event-6553518) | 0x022C       |      7 |              3 |
| [65535.19](#event-6553519) | 0x0233       |      7 |              3 |
| [32000](#event-32000)      | 0x023A       |   2162 |            411 |
| [32002](#event-32002)      | 0x0AAC       |    494 |             83 |
| [32001](#event-32001)      | 0x0C9A       |    819 |            136 |
| [32003](#event-32003)      | 0x0FCD       |    435 |             77 |
| [32004](#event-32004)      | 0x1180       |      2 |              2 |
| [65535.20](#event-6553520) | 0x1182       |    937 |            112 |
| [6](#event-6)              | 0x152B       |  13536 |           1532 |

## DAT References (imed_data)

|   Index | Hex Value   |   Dec Value |
|---------|-------------|-------------|
|       0 | 0x000F      |          15 |
|       1 | 0x0026      |          38 |
|       2 | 0x36686     |      222854 |
|       3 | 0x1BF0      |        7152 |
|       4 | 0x0000      |           0 |
|       5 | 0x05DC      |        1500 |
|       6 | 0x0025      |          37 |
|       7 | 0x42283     |      270979 |
|       8 | 0xFFFD1720  |  4294776608 |
|       9 | 0x0F1B      |        3867 |
|      10 | 0x001E      |          30 |
|      11 | 0xFFF944D5  |  4294526165 |
|      12 | 0x5A03D     |      368701 |
|      13 | 0xFFFE3AE1  |  4294851297 |
|      14 | 0xFFFA63FB  |  4294599675 |
|      15 | 0x5DBDD     |      383965 |
|      16 | 0xFFFE2A91  |  4294847121 |
|      17 | 0xFFF94CD7  |  4294528215 |
|      18 | 0x59192     |      364946 |
|      19 | 0x43A3A     |      277050 |
|      20 | 0xFFFBB1D1  |  4294685137 |
|      21 | 0x0F9F      |        3999 |
|      22 | 0x0014      |          20 |
|      23 | 0x0028      |          40 |
|      24 | 0x4D4E      |       19790 |
|      25 | 0xFFFDBFC4  |  4294819780 |
|      26 | 0x0EEE      |        3822 |
|      27 | 0x000D      |          13 |
|      28 | 0x155B1     |       87473 |
|      29 | 0xFFFDEB1E  |  4294830878 |
|      30 | 0xFFFFF4D3  |  4294964435 |
|      31 | 0x469CA     |      289226 |
|      32 | 0xFFFC701F  |  4294733855 |
|      33 | 0x0D04      |        3332 |
|      34 | 0x4682A     |      288810 |
|      35 | 0xFFFC6780  |  4294731648 |
|      36 | 0x0F30      |        3888 |
|      37 | 0xFFFF7D8D  |  4294933901 |
|      38 | 0xFFFE6AC6  |  4294863558 |
|      39 | 0xFFFFFF92  |  4294967186 |
|      40 | 0x0001      |           1 |
|      41 | 0x0007      |           7 |
|      42 | 0x0091      |         145 |
|      43 | 0x004F      |          79 |
|      44 | 0x004C      |          76 |
|      45 | 0x00C9      |         201 |
|      46 | 0x0018      |          24 |
|      47 | 0x0020      |          32 |
|      48 | 0x0005      |           5 |
|      49 | 0x0030      |          48 |
|      50 | 0x0040      |          64 |
|      51 | 0x0002      |           2 |
|      52 | 0x000A      |          10 |
|      53 | 0x0009      |           9 |
|      54 | 0x0046      |          70 |
|      55 | 0x008C      |         140 |
|      56 | 0x00D2      |         210 |
|      57 | 0x0010      |          16 |
|      58 | 0x001F      |          31 |
|      59 | 0xFFFFFFFF  |  4294967295 |
|      60 | 0x1F86      |        8070 |
|      61 | 0x1F79      |        8057 |
|      62 | 0x0003      |           3 |
|      63 | 0x0004      |           4 |
|      64 | 0x1E0A      |        7690 |
|      65 | 0x00FF      |         255 |
|      66 | 0x00C8      |         200 |
|      67 | 0x0013      |          19 |
|      68 | 0x0008      |           8 |
|      69 | 0x000B      |          11 |
|      70 | 0xFFFADB43  |  4294630211 |
|      71 | 0x5B6DF     |      374495 |
|      72 | 0xFFFE2BAF  |  4294847407 |
|      73 | 0x0866      |        2150 |
|      74 | 0xF709      |       63241 |
|      75 | 0x5B5AF     |      374191 |
|      76 | 0xFFFF1603  |  4294907395 |
|      77 | 0x71112     |      463122 |
|      78 | 0x5B5CE     |      374222 |
|      79 | 0xFFFE2BA3  |  4294847395 |
|      80 | 0x1E15      |        7701 |
|      81 | 0x1E16      |        7702 |
|      82 | 0x1E17      |        7703 |
|      83 | 0x1E18      |        7704 |
|      84 | 0x1E3C      |        7740 |
|      85 | 0x0006      |           6 |
|      86 | 0x0012      |          18 |
|      87 | 0x000C      |          12 |
|      88 | 0x000E      |          14 |
|      89 | 0x0011      |          17 |
|      90 | 0x0015      |          21 |
|      91 | 0x0016      |          22 |
|      92 | 0x0017      |          23 |
|      93 | 0x0019      |          25 |
|      94 | 0x001A      |          26 |
|      95 | 0x001B      |          27 |
|      96 | 0x001C      |          28 |
|      97 | 0x001D      |          29 |
|      98 | 0x1F71      |        8049 |
|      99 | 0x003C      |          60 |
|     100 | 0x0064      |         100 |
|     101 | 0x1F5D      |        8029 |
|     102 | 0x00D9      |         217 |
|     103 | 0x1E0D      |        7693 |
|     104 | 0x00B4      |         180 |
|     105 | 0xFFF6C42B  |  4294362155 |
|     106 | 0x752B9     |      479929 |
|     107 | 0xFFFFA767  |  4294944615 |
|     108 | 0x03E0      |         992 |
|     109 | 0xFFFBFE43  |  4294704707 |
|     110 | 0x5C401     |      377857 |
|     111 | 0xFFFDE79F  |  4294829983 |
|     112 | 0x0D92      |        3474 |
|     113 | 0x47AC      |       18348 |
|     114 | 0x76E1C     |      486940 |
|     115 | 0xFFFC93B2  |  4294742962 |
|     116 | 0x00C2      |         194 |
|     117 | 0x388A9     |      231593 |
|     118 | 0x57E9E     |      360094 |
|     119 | 0xFFFD59FC  |  4294793724 |
|     120 | 0x0726      |        1830 |
|     121 | 0x872C0     |      553664 |
|     122 | 0x7FEA3     |      523939 |
|     123 | 0xFFFF6AC3  |  4294929091 |
|     124 | 0x0A65      |        2661 |
|     125 | 0xFFFE5EAE  |  4294860462 |
|     126 | 0xFFFD3B8A  |  4294785930 |
|     127 | 0xFFFFFFD9  |  4294967257 |
|     128 | 0x1000      |        4096 |
|     129 | 0xFFF2A593  |  4294092179 |
|     130 | 0xFFFF548C  |  4294923404 |
|     131 | 0xFFFF442C  |  4294919212 |
|     132 | 0x0201      |         513 |
|     133 | 0xFFF478D5  |  4294211797 |
|     134 | 0x89AEB     |      563947 |
|     135 | 0xFFFE4A5D  |  4294855261 |
|     136 | 0x0DEF      |        3567 |
|     137 | 0x1E173     |      123251 |
|     138 | 0xB8221     |      754209 |
|     139 | 0xFFFD5FA4  |  4294795172 |
|     140 | 0x01B8      |         440 |
|     141 | 0xFFF81ECC  |  4294450892 |
|     142 | 0xFFF3BE05  |  4294163973 |
|     143 | 0x5E8E      |       24206 |
|     144 | 0x01B5      |         437 |
|     145 | 0x012C      |         300 |
|     146 | 0x0080      |         128 |
|     147 | 0xFFF690A7  |  4294348967 |
|     148 | 0xFFF62CE4  |  4294323428 |
|     149 | 0xFFFF9B33  |  4294941491 |
|     150 | 0x0EB1      |        3761 |
|     151 | 0xFFFAEE7D  |  4294635133 |
|     152 | 0xFFF941C6  |  4294525382 |
|     153 | 0xFFFE8CB1  |  4294872241 |
|     154 | 0x0EB0      |        3760 |
|     155 | 0xFFFFCF50  |  4294954832 |
|     156 | 0xFFF61B47  |  4294318919 |
|     157 | 0xFFFD07BB  |  4294772667 |
|     158 | 0x0EBA      |        3770 |
|     159 | 0x4EF35     |      323381 |
|     160 | 0xFFF93A6F  |  4294523503 |
|     161 | 0xFFFE5868  |  4294858856 |
|     162 | 0x0EA0      |        3744 |
|     163 | 0x92763     |      599907 |
|     164 | 0xFFF5AB97  |  4294290327 |
|     165 | 0xFFFFA837  |  4294944823 |
|     166 | 0x0EB3      |        3763 |
|     167 | 0xFFFC06A8  |  4294706856 |
|     168 | 0xFFFD9C14  |  4294810644 |
|     169 | 0x0086      |         134 |
|     170 | 0x0C00      |        3072 |
|     171 | 0x00A8      |         168 |
|     172 | 0x30D7B     |      200059 |
|     173 | 0xFFFFAA3A  |  4294945338 |
|     174 | 0xFFFFFF06  |  4294967046 |
|     175 | 0x0411      |        1041 |
|     176 | 0x1F5F      |        8031 |
|     177 | 0x1F5E      |        8030 |
|     178 | 0x1F82      |        8066 |
|     179 | 0x407A8     |      264104 |
|     180 | 0xFFFE77CB  |  4294866891 |
|     181 | 0x1C867     |      116839 |
|     182 | 0x0AFB      |        2811 |
|     183 | 0xFFFE47EE  |  4294854638 |
|     184 | 0xFFFD417C  |  4294787452 |
|     185 | 0xFFFFFCC2  |  4294966466 |
|     186 | 0x0816      |        2070 |
|     187 | 0x0145      |         325 |
|     188 | 0xFFFE35B7  |  4294849975 |
|     189 | 0xFFFD4213  |  4294787603 |
|     190 | 0xFFFFFECD  |  4294966989 |
|     191 | 0xFFF948EA  |  4294527210 |
|     192 | 0x59938     |      366904 |
|     193 | 0x0629      |        1577 |
|     194 | 0xFFF9393A  |  4294523194 |
|     195 | 0x58E0B     |      364043 |
|     196 | 0x0E90      |        3728 |
|     197 | 0xFFF92932  |  4294519090 |
|     198 | 0x5861D     |      362013 |
|     199 | 0x0F27      |        3879 |
|     200 | 0x05B0      |        1456 |
|     201 | 0x0887      |        2183 |
|     202 | 0x0181      |         385 |
|     203 | 0x0078      |         120 |
|     204 | 0x202F      |        8239 |
|     205 | 0x005A      |          90 |
|     206 | 0x00D8      |         216 |
|     207 | 0x0690      |        1680 |
|     208 | 0x088A      |        2186 |
|     209 | 0x0082      |         130 |
|     210 | 0x00A0      |         160 |
|     211 | 0x00EA      |         234 |
|     212 | 0x0186      |         390 |
|     213 | 0x0182      |         386 |
|     214 | 0xFFF959F7  |  4294531575 |
|     215 | 0x58A9A     |      363162 |
|     216 | 0x06C6      |        1734 |
|     217 | 0xFFF94E3D  |  4294528573 |
|     218 | 0x58E05     |      364037 |
|     219 | 0x0800      |        2048 |
|     220 | 0xFFF939A0  |  4294523296 |
|     221 | 0x57E78     |      360056 |
|     222 | 0x0FE6      |        4070 |
|     223 | 0xFFF967BB  |  4294535099 |
|     224 | 0x5A193     |      369043 |
|     225 | 0xFFFE3AE0  |  4294851296 |
|     226 | 0x0752      |        1874 |
|     227 | 0xFFF9620E  |  4294533646 |
|     228 | 0x5AAC4     |      371396 |
|     229 | 0xFFFE3A0B  |  4294851083 |
|     230 | 0xFFF96139  |  4294533433 |
|     231 | 0x5A574     |      370036 |
|     232 | 0xFFFE3AC0  |  4294851264 |
|     233 | 0x0652      |        1618 |
|     234 | 0xFFF95748  |  4294530888 |
|     235 | 0x59CC5     |      367813 |
|     236 | 0x0EC7      |        3783 |
|     237 | 0x0892      |        2194 |
|     238 | 0x0888      |        2184 |
|     239 | 0x08B8      |        2232 |
|     240 | 0x085F      |        2143 |
|     241 | 0x05D5      |        1493 |
|     242 | 0x00DF      |         223 |
|     243 | 0x00DB      |         219 |
|     244 | 0x00DA      |         218 |
|     245 | 0x2030      |        8240 |
|     246 | 0x002D      |          45 |
|     247 | 0x2031      |        8241 |
|     248 | 0x004B      |          75 |
|     249 | 0x2033      |        8243 |
|     250 | 0x2032      |        8242 |
|     251 | 0x201B      |        8219 |
|     252 | 0x0893      |        2195 |
|     253 | 0x0096      |         150 |
|     254 | 0x01F4      |         500 |
|     255 | 0x2034      |        8244 |
|     256 | 0x010E      |         270 |
|     257 | 0x2035      |        8245 |
|     258 | 0x0894      |        2196 |
|     259 | 0x0889      |        2185 |
|     260 | 0x0168      |         360 |
|     261 | 0x2036      |        8246 |
|     262 | 0x0856      |        2134 |
|     263 | 0x2037      |        8247 |
|     264 | 0x2038      |        8248 |
|     265 | 0x2039      |        8249 |
|     266 | 0x0032      |          50 |
|     267 | 0xFFF95255  |  4294529621 |
|     268 | 0x59566     |      365926 |
|     269 | 0x06CC      |        1740 |
|     270 | 0x203A      |        8250 |
|     271 | 0x085A      |        2138 |
|     272 | 0x203B      |        8251 |
|     273 | 0x203C      |        8252 |
|     274 | 0x203D      |        8253 |
|     275 | 0x00B6      |         182 |
|     276 | 0x445C5     |      280005 |
|     277 | 0x389CC     |      231884 |
|     278 | 0x752F      |       29999 |
|     279 | 0x0E0A      |        3594 |
|     280 | 0x0050      |          80 |
|     281 | 0x00C4      |         196 |
|     282 | 0x0079      |         121 |
|     283 | 0x1FC4      |        8132 |
|     284 | 0x0154      |         340 |
|     285 | 0x00DC      |         220 |
|     286 | 0x00E9      |         233 |
|     287 | 0x0631      |        1585 |
|     288 | 0x89FB      |       35323 |
|     289 | 0xFFFFF448  |  4294964296 |
|     290 | 0x046A      |        1130 |
|     291 | 0x6D39      |       27961 |
|     292 | 0xFFFFFA24  |  4294965796 |
|     293 | 0x0400      |        1024 |
|     294 | 0x002E      |          46 |
|     295 | 0xA4A6      |       42150 |
|     296 | 0xFFFFF2BA  |  4294963898 |
|     297 | 0x08AA      |        2218 |
|     298 | 0x050D      |        1293 |
|     299 | 0x05B6      |        1462 |
|     300 | 0x00C5      |         197 |
|     301 | 0x00F2      |         242 |
|     302 | 0x01AC      |         428 |
|     303 | 0xB24B      |       45643 |
|     304 | 0xFFFF0FAF  |  4294905775 |
|     305 | 0xFFFFE73F  |  4294960959 |
|     306 | 0xC2FC      |       49916 |
|     307 | 0xFFFF11B8  |  4294906296 |
|     308 | 0x00AA      |         170 |
|     309 | 0x0571      |        1393 |
|     310 | 0x0562      |        1378 |
|     311 | 0x009C      |         156 |
|     312 | 0xFFF89A19  |  4294482457 |
|     313 | 0xFFFC55B0  |  4294727088 |
|     314 | 0xFFFD5E92  |  4294794898 |
|     315 | 0x0CE2      |        3298 |
|     316 | 0xFFF8A21A  |  4294484506 |
|     317 | 0xFFFC571D  |  4294727453 |
|     318 | 0xFFFD6020  |  4294795296 |
|     319 | 0x0947      |        2375 |
|     320 | 0x04F4      |        1268 |
|     321 | 0x0576      |        1398 |
|     322 | 0x0592      |        1426 |
|     323 | 0x0258      |         600 |
|     324 | 0x00F0      |         240 |
|     325 | 0x0055      |          85 |
|     326 | 0x08B9      |        2233 |
|     327 | 0x203E      |        8254 |
|     328 | 0x35358     |      217944 |
|     329 | 0x06DC      |        1756 |
|     330 | 0x34DD0     |      216528 |
|     331 | 0xFFFFF088  |  4294963336 |
|     332 | 0xFFFFFFF1  |  4294967281 |
|     333 | 0x362AB     |      221867 |
|     334 | 0x07C8      |        1992 |
|     335 | 0x0200      |         512 |
|     336 | 0x34DD1     |      216529 |
|     337 | 0xFFFFFE1B  |  4294966811 |
|     338 | 0x03AF      |         943 |
|     339 | 0x36347     |      222023 |
|     340 | 0xFFFFFFC5  |  4294967237 |
|     341 | 0x0C80      |        3200 |
|     342 | 0x35119     |      217369 |
|     343 | 0x0D91      |        3473 |
|     344 | 0x03BF      |         959 |
|     345 | 0x360D9     |      221401 |
|     346 | 0x0ED7      |        3799 |
|     347 | 0xFFFFFFF7  |  4294967287 |
|     348 | 0x085D      |        2141 |
|     349 | 0x08B7      |        2231 |
|     350 | 0x087D      |        2173 |
|     351 | 0x203F      |        8255 |
|     352 | 0x2040      |        8256 |
|     353 | 0x2041      |        8257 |
|     354 | 0x0068      |         104 |
|     355 | 0x2042      |        8258 |
|     356 | 0x2043      |        8259 |
|     357 | 0x014A      |         330 |
|     358 | 0x2044      |        8260 |
|     359 | 0x2045      |        8261 |
|     360 | 0x2046      |        8262 |
|     361 | 0x2047      |        8263 |
|     362 | 0x2048      |        8264 |
|     363 | 0x0857      |        2135 |
|     364 | 0x2049      |        8265 |
|     365 | 0x204A      |        8266 |
|     366 | 0x204B      |        8267 |
|     367 | 0x204C      |        8268 |
|     368 | 0x08C3      |        2243 |
|     369 | 0x204D      |        8269 |
|     370 | 0x204E      |        8270 |
|     371 | 0x0880      |        2176 |
|     372 | 0x204F      |        8271 |
|     373 | 0x0860      |        2144 |
|     374 | 0x08AF      |        2223 |
|     375 | 0x01E0      |         480 |
|     376 | 0x2050      |        8272 |
|     377 | 0x2051      |        8273 |
|     378 | 0x356F8     |      218872 |
|     379 | 0x0430      |        1072 |
|     380 | 0x0F07      |        3847 |
|     381 | 0x362C0     |      221888 |
|     382 | 0x05A3      |        1443 |
|     383 | 0x0100      |         256 |
|     384 | 0x35802     |      219138 |
|     385 | 0x082A      |        2090 |
|     386 | 0x35B4D     |      219981 |
|     387 | 0xFFFFF146  |  4294963526 |
|     388 | 0x35860     |      219232 |
|     389 | 0xFFFFF881  |  4294965377 |
|     390 | 0x04B0      |        1200 |
|     391 | 0x355C8     |      218568 |
|     392 | 0xFFFFE7BC  |  4294961084 |
|     393 | 0xFFFFFF7A  |  4294967162 |
|     394 | 0x0C01      |        3073 |
|     395 | 0x007F      |         127 |
|     396 | 0x2052      |        8274 |
|     397 | 0x2053      |        8275 |
|     398 | 0x2054      |        8276 |
|     399 | 0x2055      |        8277 |
|     400 | 0x2056      |        8278 |
|     401 | 0x2057      |        8279 |
|     402 | 0x2058      |        8280 |
|     403 | 0x2059      |        8281 |
|     404 | 0x205A      |        8282 |
|     405 | 0x0E00      |        3584 |
|     406 | 0x35FAB     |      221099 |
|     407 | 0x08A9      |        2217 |
|     408 | 0x205B      |        8283 |
|     409 | 0x0859      |        2137 |
|     410 | 0x006E      |         110 |
|     411 | 0x205C      |        8284 |
|     412 | 0x205D      |        8285 |
|     413 | 0x205E      |        8286 |
|     414 | 0x205F      |        8287 |
|     415 | 0x085B      |        2139 |
|     416 | 0x15B00     |       88832 |
|     417 | 0xFFFDE799  |  4294829977 |
|     418 | 0xFFFFF4CC  |  4294964428 |
|     419 | 0x0BD5      |        3029 |
|     420 | 0x15E92     |       89746 |
|     421 | 0xFFFDEDC4  |  4294831556 |
|     422 | 0xFFFFF507  |  4294964487 |
|     423 | 0x07ED      |        2029 |
|     424 | 0x2060      |        8288 |
|     425 | 0x0851      |        2129 |
|     426 | 0x2061      |        8289 |
|     427 | 0x2062      |        8290 |
|     428 | 0x2063      |        8291 |
|     429 | 0x2064      |        8292 |
|     430 | 0x2065      |        8293 |
|     431 | 0x2066      |        8294 |
|     432 | 0x2067      |        8295 |
|     433 | 0x2068      |        8296 |
|     434 | 0x2069      |        8297 |
|     435 | 0x0863      |        2147 |
|     436 | 0x206A      |        8298 |
|     437 | 0x206B      |        8299 |
|     438 | 0x206C      |        8300 |
|     439 | 0x1525A     |       86618 |
|     440 | 0xFFFDEA34  |  4294830644 |
|     441 | 0xFFFFF457  |  4294964311 |
|     442 | 0x0BA3      |        2979 |
|     443 | 0x0864      |        2148 |
|     444 | 0x206D      |        8301 |
|     445 | 0x206E      |        8302 |
|     446 | 0x206F      |        8303 |
|     447 | 0x2070      |        8304 |
|     448 | 0x2071      |        8305 |
|     449 | 0x2072      |        8306 |
|     450 | 0x0854      |        2132 |
|     451 | 0x2073      |        8307 |
|     452 | 0x2074      |        8308 |
|     453 | 0x0855      |        2133 |
|     454 | 0x2075      |        8309 |
|     455 | 0x2076      |        8310 |
|     456 | 0x2077      |        8311 |
|     457 | 0x0585      |        1413 |
|     458 | 0x0174      |         372 |
|     459 | 0x0029      |          41 |
|     460 | 0x2078      |        8312 |
|     461 | 0x2079      |        8313 |
|     462 | 0x207A      |        8314 |
|     463 | 0x207B      |        8315 |
|     464 | 0x207C      |        8316 |
|     465 | 0x207D      |        8317 |
|     466 | 0x207E      |        8318 |
|     467 | 0x207F      |        8319 |
|     468 | 0x2080      |        8320 |
|     469 | 0x2081      |        8321 |
|     470 | 0x0834      |        2100 |
|     471 | 0x2082      |        8322 |
|     472 | 0x2083      |        8323 |
|     473 | 0x0832      |        2098 |
|     474 | 0x2084      |        8324 |
|     475 | 0x2085      |        8325 |
|     476 | 0x2086      |        8326 |
|     477 | 0x2087      |        8327 |
|     478 | 0x2088      |        8328 |
|     479 | 0x2089      |        8329 |
|     480 | 0x208A      |        8330 |
|     481 | 0x208B      |        8331 |
|     482 | 0x208C      |        8332 |
|     483 | 0x00E6      |         230 |
|     484 | 0x208D      |        8333 |
|     485 | 0x208E      |        8334 |
|     486 | 0x208F      |        8335 |
|     487 | 0x2090      |        8336 |
|     488 | 0x2091      |        8337 |
|     489 | 0x2092      |        8338 |
|     490 | 0x00C3      |         195 |
|     491 | 0x0126      |         294 |
|     492 | 0x2093      |        8339 |
|     493 | 0x1E0B      |        7691 |
|     494 | 0xFFFB298E  |  4294650254 |
|     495 | 0x5CD7D     |      380285 |
|     496 | 0xFFFE2958  |  4294846808 |
|     497 | 0xFFFB2CB0  |  4294651056 |
|     498 | 0x5CD5B     |      380251 |
|     499 | 0xFFFE27C8  |  4294846408 |
|     500 | 0xFFFB3B6E  |  4294654830 |
|     501 | 0x5CCCF     |      380111 |
|     502 | 0xFFFB433F  |  4294656831 |
|     503 | 0x5CC75     |      380021 |
|     504 | 0xFFFE2B3B  |  4294847291 |
|     505 | 0x006C      |         108 |
|     506 | 0x00D7      |         215 |

## String References

- **7690**: Enter the battlefield? [Enter./Decline.]
- **7691**: Leave the battlefield? [Run away./Stay.]
- **7693**: You cannot enter the battlefield at present. Please wait a little longer.
- **7701**: You are cleared to enter the battlefield, but you cannot while party members are engaged in combat.
- **7702**: You are cleared to enter the battlefield, but you cannot while party members are engaged in combat.
- **7703**: You are cleared to enter the battlefield, but you cannot while party members are engaged in combat.
- **7704**: You are cleared to enter the battlefield, but you cannot while party members are engaged in combat.
- **7740**: You do not meet the requirements to enter the battlefield. Access is denied.
- **8029**: Skip the event? [Yes./No.]
- **8030**: Battlefield clear time: $3 second[/s]!
- **8031**: Battlefield clear time: $3 minute[/s], $2 second[/s]!
- **8049**: Only $3 [member/members] have clearance to enter the battlefield. This room has reached its maximum capacity.
- **8057**: Select difficulty. [Very difficult. (Level: ???)/Difficult. (Level: ???)/Normal. (Level: $18)/Easy. (Level: $17)/Very Easy. (Level: $16)/Leave.]
- **8066**: You have broken the clear time record for "[Splitting Heirs (S)/Purple, The New Black/The Blood-bathed Crown]"!
- **8070**: Which battlefield will you enter? [None./Splitting Heirs (S)./Purple, The New Black./The Blood-bathed Crown././././././././././././././././././././././././././././]
- **8132**: @@
- **8303**: What will you do? [Reduce suffering in the world./Alleviate the pains of wars.]

## Events

### Event 65535

#### Metadata

| Field        | Value   |
|--------------|---------|
| Entrypoint   | 0x0000  |
| Data Size    | 1 bytes |
| Instructions | 1       |

```
      00 01 02 03 04 05 06 07  08 09 0A 0B 0C 0D 0E 0F
      -- -- -- -- -- -- -- --  -- -- -- -- -- -- -- --
0000: 00                                                .               
```

#### Opcodes

```
  0: 0x0000 [0x00] END_REQSTACK()
```

### Event 65534

#### Metadata

| Field        | Value   |
|--------------|---------|
| Entrypoint   | 0x0001  |
| Data Size    | 1 bytes |
| Instructions | 1       |

```
      00 01 02 03 04 05 06 07  08 09 0A 0B 0C 0D 0E 0F
      -- -- -- -- -- -- -- --  -- -- -- -- -- -- -- --
0000:    00                                              .              
```

#### Opcodes

```
  0: 0x0001 [0x00] END_REQSTACK()
```

### Event 65535.1

#### Metadata

| Field        | Value    |
|--------------|----------|
| Entrypoint   | 0x0002   |
| Data Size    | 25 bytes |
| Instructions | 7        |

```
      00 01 02 03 04 05 06 07  08 09 0A 0B 0C 0D 0E 0F
      -- -- -- -- -- -- -- --  -- -- -- -- -- -- -- --
0000:       1C 00 80 32 01 80  1F 00 02 80 03 80 04 80    ...2..........
0010: 1F 01 6F 4B F8 FF FF 7F  05 80 00                 ..oK.......     
```

#### Opcodes

```
  0: 0x0002 [0x1C] WAIT(15* ticks)
  1: 0x0005 [0x32] ExtData[1]->MainSpeed = 38* * 0.1
  2: 0x0008 [0x1F] MOVE_ENTITY: EventEntity moves to X=222.854*, Z=7.152*, Y=0.000*
  3: 0x0010 [0x1F] MOVE_ENTITY: Update entity position (mode=1)
  4: 0x0012 [0x6F] WAIT_FRAME_DELAY: Yield until WaitTime reaches zero
  5: 0x0013 [0x4B] UPDATE_ENTITY_YAW(entity=EventEntity, yaw=8.2°*)
  6: 0x001A [0x00] END_REQSTACK()
```

### Event 65535.2

#### Metadata

| Field        | Value    |
|--------------|----------|
| Entrypoint   | 0x001B   |
| Data Size    | 15 bytes |
| Instructions | 5        |

```
      00 01 02 03 04 05 06 07  08 09 0A 0B 0C 0D 0E 0F
      -- -- -- -- -- -- -- --  -- -- -- -- -- -- -- --
0010:                                   32 06 80 1F 00             2....
0020: 07 80 08 80 09 80 1F 01  6F 00                    ........o.      
```

#### Opcodes

```
  0: 0x001B [0x32] ExtData[1]->MainSpeed = 37* * 0.1
  1: 0x001E [0x1F] MOVE_ENTITY: EventEntity moves to X=270.979*, Z=-190.688*, Y=3.867*
  2: 0x0026 [0x1F] MOVE_ENTITY: Update entity position (mode=1)
  3: 0x0028 [0x6F] WAIT_FRAME_DELAY: Yield until WaitTime reaches zero
  4: 0x0029 [0x00] END_REQSTACK()
```

### Event 65535.3

#### Metadata

| Field        | Value    |
|--------------|----------|
| Entrypoint   | 0x002A   |
| Data Size    | 23 bytes |
| Instructions | 7        |

```
      00 01 02 03 04 05 06 07  08 09 0A 0B 0C 0D 0E 0F
      -- -- -- -- -- -- -- --  -- -- -- -- -- -- -- --
0020:                                1C 0A 80 32 01 80            ...2..
0030: 1F 00 0B 80 0C 80 0D 80  1F 01 6F 1E 0B 53 05 01  ..........o..S..
0040: 00                                                .               
```

#### Opcodes

```
  0: 0x002A [0x1C] WAIT(30* ticks)
  1: 0x002D [0x32] ExtData[1]->MainSpeed = 38* * 0.1
  2: 0x0030 [0x1F] MOVE_ENTITY: EventEntity moves to X=-441.131*, Z=368.701*, Y=-115.999*
  3: 0x0038 [0x1F] MOVE_ENTITY: Update entity position (mode=1)
  4: 0x003A [0x6F] WAIT_FRAME_DELAY: Yield until WaitTime reaches zero
  5: 0x003B [0x1E] EventEntity looks at Haudrale (ID: 17126155/0x0105530B) and starts talking
  6: 0x0040 [0x00] END_REQSTACK()
```

### Event 65535.4

#### Metadata

| Field        | Value    |
|--------------|----------|
| Entrypoint   | 0x0041   |
| Data Size    | 18 bytes |
| Instructions | 6        |

```
      00 01 02 03 04 05 06 07  08 09 0A 0B 0C 0D 0E 0F
      -- -- -- -- -- -- -- --  -- -- -- -- -- -- -- --
0040:    1C 0A 80 32 01 80 1F  00 0E 80 0F 80 10 80 1F   ...2...........
0050: 01 6F 00                                          .o.             
```

#### Opcodes

```
  0: 0x0041 [0x1C] WAIT(30* ticks)
  1: 0x0044 [0x32] ExtData[1]->MainSpeed = 38* * 0.1
  2: 0x0047 [0x1F] MOVE_ENTITY: EventEntity moves to X=-367.621*, Z=383.965*, Y=-120.175*
  3: 0x004F [0x1F] MOVE_ENTITY: Update entity position (mode=1)
  4: 0x0051 [0x6F] WAIT_FRAME_DELAY: Yield until WaitTime reaches zero
  5: 0x0052 [0x00] END_REQSTACK()
```

### Event 65535.5

#### Metadata

| Field        | Value    |
|--------------|----------|
| Entrypoint   | 0x0053   |
| Data Size    | 15 bytes |
| Instructions | 5        |

```
      00 01 02 03 04 05 06 07  08 09 0A 0B 0C 0D 0E 0F
      -- -- -- -- -- -- -- --  -- -- -- -- -- -- -- --
0050:          32 01 80 1F 00  11 80 12 80 0D 80 1F 01     2............
0060: 6F 00                                             o.              
```

#### Opcodes

```
  0: 0x0053 [0x32] ExtData[1]->MainSpeed = 38* * 0.1
  1: 0x0056 [0x1F] MOVE_ENTITY: EventEntity moves to X=-439.081*, Z=364.946*, Y=-115.999*
  2: 0x005E [0x1F] MOVE_ENTITY: Update entity position (mode=1)
  3: 0x0060 [0x6F] WAIT_FRAME_DELAY: Yield until WaitTime reaches zero
  4: 0x0061 [0x00] END_REQSTACK()
```

### Event 65535.6

#### Metadata

| Field        | Value    |
|--------------|----------|
| Entrypoint   | 0x0062   |
| Data Size    | 15 bytes |
| Instructions | 5        |

```
      00 01 02 03 04 05 06 07  08 09 0A 0B 0C 0D 0E 0F
      -- -- -- -- -- -- -- --  -- -- -- -- -- -- -- --
0060:       32 01 80 1F 00 13  80 14 80 15 80 1F 01 6F    2............o
0070: 00                                                .               
```

#### Opcodes

```
  0: 0x0062 [0x32] ExtData[1]->MainSpeed = 38* * 0.1
  1: 0x0065 [0x1F] MOVE_ENTITY: EventEntity moves to X=277.050*, Z=-282.159*, Y=3.999*
  2: 0x006D [0x1F] MOVE_ENTITY: Update entity position (mode=1)
  3: 0x006F [0x6F] WAIT_FRAME_DELAY: Yield until WaitTime reaches zero
  4: 0x0070 [0x00] END_REQSTACK()
```

### Event 65535.7

#### Metadata

| Field        | Value    |
|--------------|----------|
| Entrypoint   | 0x0071   |
| Data Size    | 18 bytes |
| Instructions | 6        |

```
      00 01 02 03 04 05 06 07  08 09 0A 0B 0C 0D 0E 0F
      -- -- -- -- -- -- -- --  -- -- -- -- -- -- -- --
0070:    1C 16 80 32 17 80 1F  00 18 80 19 80 1A 80 1F   ...2...........
0080: 01 6F 00                                          .o.             
```

#### Opcodes

```
  0: 0x0071 [0x1C] WAIT(20* ticks)
  1: 0x0074 [0x32] ExtData[1]->MainSpeed = 40* * 0.1
  2: 0x0077 [0x1F] MOVE_ENTITY: EventEntity moves to X=19.790*, Z=-147.516*, Y=3.822*
  3: 0x007F [0x1F] MOVE_ENTITY: Update entity position (mode=1)
  4: 0x0081 [0x6F] WAIT_FRAME_DELAY: Yield until WaitTime reaches zero
  5: 0x0082 [0x00] END_REQSTACK()
```

### Event 65535.8

#### Metadata

| Field        | Value    |
|--------------|----------|
| Entrypoint   | 0x0083   |
| Data Size    | 20 bytes |
| Instructions | 6        |

```
      00 01 02 03 04 05 06 07  08 09 0A 0B 0C 0D 0E 0F
      -- -- -- -- -- -- -- --  -- -- -- -- -- -- -- --
0080:          32 1B 80 1F 00  1C 80 1D 80 1E 80 1F 01     2............
0090: 6F 1E F9 52 05 01 00                              o..R...         
```

#### Opcodes

```
  0: 0x0083 [0x32] ExtData[1]->MainSpeed = 13* * 0.1
  1: 0x0086 [0x1F] MOVE_ENTITY: EventEntity moves to X=87.473*, Z=-136.418*, Y=-2.861*
  2: 0x008E [0x1F] MOVE_ENTITY: Update entity position (mode=1)
  3: 0x0090 [0x6F] WAIT_FRAME_DELAY: Yield until WaitTime reaches zero
  4: 0x0091 [0x1E] EventEntity looks at Lilisette (ID: 17126137/0x010552F9) and starts talking
  5: 0x0096 [0x00] END_REQSTACK()
```

### Event 65535.9

#### Metadata

| Field        | Value    |
|--------------|----------|
| Entrypoint   | 0x0097   |
| Data Size    | 33 bytes |
| Instructions | 7        |

```
      00 01 02 03 04 05 06 07  08 09 0A 0B 0C 0D 0E 0F
      -- -- -- -- -- -- -- --  -- -- -- -- -- -- -- --
0090:                      32  1B 80 1F 00 1F 80 20 80         2...... .
00A0: 21 80 1F 01 1F 00 22 80  23 80 24 80 1F 01 4A F0  !.....".#.$...J.
00B0: FF FF 7F 32 53 05 01 00                           ...2S...        
```

#### Opcodes

```
  0: 0x0097 [0x32] ExtData[1]->MainSpeed = 13* * 0.1
  1: 0x009A [0x1F] MOVE_ENTITY: EventEntity moves to X=289.226*, Z=-233.441*, Y=3.332*
  2: 0x00A2 [0x1F] MOVE_ENTITY: Update entity position (mode=1)
  3: 0x00A4 [0x1F] MOVE_ENTITY: EventEntity moves to X=288.810*, Z=-235.648*, Y=3.888*
  4: 0x00AC [0x1F] MOVE_ENTITY: Update entity position (mode=1)
  5: 0x00AE [0x4A] LocalPlayer looks at Lehko Habhoka (ID: 17126194/0x01055332)
  6: 0x00B7 [0x00] END_REQSTACK()
```

### Event 65535.10

#### Metadata

| Field        | Value    |
|--------------|----------|
| Entrypoint   | 0x00B8   |
| Data Size    | 24 bytes |
| Instructions | 6        |

```
      00 01 02 03 04 05 06 07  08 09 0A 0B 0C 0D 0E 0F
      -- -- -- -- -- -- -- --  -- -- -- -- -- -- -- --
00B0:                          32 1B 80 1F 00 25 80 26          2....%.&
00C0: 80 27 80 1F 01 6F 4A F0  FF FF 7F 32 53 05 01 00  .'...oJ....2S...
```

#### Opcodes

```
  0: 0x00B8 [0x32] ExtData[1]->MainSpeed = 13* * 0.1
  1: 0x00BB [0x1F] MOVE_ENTITY: EventEntity moves to X=-33.395*, Z=-103.738*, Y=-0.110*
  2: 0x00C3 [0x1F] MOVE_ENTITY: Update entity position (mode=1)
  3: 0x00C5 [0x6F] WAIT_FRAME_DELAY: Yield until WaitTime reaches zero
  4: 0x00C6 [0x4A] LocalPlayer looks at Lehko Habhoka (ID: 17126194/0x01055332)
  5: 0x00CF [0x00] END_REQSTACK()
```

### Event 65535.11

#### Metadata

| Field        | Value    |
|--------------|----------|
| Entrypoint   | 0x00D0   |
| Data Size    | 38 bytes |
| Instructions | 5        |

```
      00 01 02 03 04 05 06 07  08 09 0A 0B 0C 0D 0E 0F
      -- -- -- -- -- -- -- --  -- -- -- -- -- -- -- --
00D0: 22 00 2F 00 F8 FF FF 7F  B6 0B 28 80 29 80 2A 80  "./.......(.).*.
00E0: 2B 80 2C 80 2C 80 2C 80  2D 80 2E 80 6C F8 FF FF  +.,.,.,.-...l...
00F0: 7F 2F 80 28 80 00                                 ./.(..          
```

#### Opcodes

```
  0: 0x00D0 [0x22] ENTITY_HIDE_FLAG(enabled=0x00)
  1: 0x00D2 [0x2F] EventEntity->Render.Flags0 &= ~0x80000 // Bit 19
  2: 0x00D8 [0xB6] ENTITY_APPEARANCE_HANDLER(case=Full entity look, race=1*, hair=7*, head=145*, body=79*, hands=76*, legs=76*, feet=76*, main=201*, sub=24*)
  3: 0x00EC [0x6C] FADE_ENTITY_COLOR(entity_id=EventEntity, end_alpha=32*, fade_time=1*)
  4: 0x00F5 [0x00] END_REQSTACK()
```

### Event 65535.12

#### Metadata

| Field        | Value    |
|--------------|----------|
| Entrypoint   | 0x00F6   |
| Data Size    | 38 bytes |
| Instructions | 5        |

```
      00 01 02 03 04 05 06 07  08 09 0A 0B 0C 0D 0E 0F
      -- -- -- -- -- -- -- --  -- -- -- -- -- -- -- --
00F0:                   22 00  2F 00 F8 FF FF 7F B6 0B        "./.......
0100: 30 80 29 80 2A 80 2B 80  2C 80 2C 80 2C 80 2D 80  0.).*.+.,.,.,.-.
0110: 2E 80 6C F8 FF FF 7F 31  80 28 80 00              ..l....1.(..    
```

#### Opcodes

```
  0: 0x00F6 [0x22] ENTITY_HIDE_FLAG(enabled=0x00)
  1: 0x00F8 [0x2F] EventEntity->Render.Flags0 &= ~0x80000 // Bit 19
  2: 0x00FE [0xB6] ENTITY_APPEARANCE_HANDLER(case=Full entity look, race=5*, hair=7*, head=145*, body=79*, hands=76*, legs=76*, feet=76*, main=201*, sub=24*)
  3: 0x0112 [0x6C] FADE_ENTITY_COLOR(entity_id=EventEntity, end_alpha=48*, fade_time=1*)
  4: 0x011B [0x00] END_REQSTACK()
```

### Event 65535.13

#### Metadata

| Field        | Value    |
|--------------|----------|
| Entrypoint   | 0x011C   |
| Data Size    | 38 bytes |
| Instructions | 5        |

```
      00 01 02 03 04 05 06 07  08 09 0A 0B 0C 0D 0E 0F
      -- -- -- -- -- -- -- --  -- -- -- -- -- -- -- --
0110:                                      22 00 2F 00              "./.
0120: F8 FF FF 7F B6 0B 30 80  29 80 2A 80 2B 80 2C 80  ......0.).*.+.,.
0130: 2C 80 2C 80 2D 80 2E 80  6C F8 FF FF 7F 32 80 28  ,.,.-...l....2.(
0140: 80 00                                             ..              
```

#### Opcodes

```
  0: 0x011C [0x22] ENTITY_HIDE_FLAG(enabled=0x00)
  1: 0x011E [0x2F] EventEntity->Render.Flags0 &= ~0x80000 // Bit 19
  2: 0x0124 [0xB6] ENTITY_APPEARANCE_HANDLER(case=Full entity look, race=5*, hair=7*, head=145*, body=79*, hands=76*, legs=76*, feet=76*, main=201*, sub=24*)
  3: 0x0138 [0x6C] FADE_ENTITY_COLOR(entity_id=EventEntity, end_alpha=64*, fade_time=1*)
  4: 0x0141 [0x00] END_REQSTACK()
```

### Event 65535.14

#### Metadata

| Field        | Value   |
|--------------|---------|
| Entrypoint   | 0x0142  |
| Data Size    | 6 bytes |
| Instructions | 2       |

```
      00 01 02 03 04 05 06 07  08 09 0A 0B 0C 0D 0E 0F
      -- -- -- -- -- -- -- --  -- -- -- -- -- -- -- --
0140:       03 02 10 07 7F 00                             ......        
```

#### Opcodes

```
  0: 0x0142 [0x03] Work_Zone[2] = Entity->Race
  1: 0x0147 [0x00] END_REQSTACK()
```

### Event 65535.15

#### Metadata

| Field        | Value   |
|--------------|---------|
| Entrypoint   | 0x0148  |
| Data Size    | 6 bytes |
| Instructions | 2       |

```
      00 01 02 03 04 05 06 07  08 09 0A 0B 0C 0D 0E 0F
      -- -- -- -- -- -- -- --  -- -- -- -- -- -- -- --
0140:                          03 02 10 0B 7F 00                ......  
```

#### Opcodes

```
  0: 0x0148 [0x03] Work_Zone[2] = (Entity->Render.Flags01 >> 25) & 1
  1: 0x014D [0x00] END_REQSTACK()
```

### Event 65535.16

#### Metadata

| Field        | Value    |
|--------------|----------|
| Entrypoint   | 0x014E   |
| Data Size    | 37 bytes |
| Instructions | 5        |

```
      00 01 02 03 04 05 06 07  08 09 0A 0B 0C 0D 0E 0F
      -- -- -- -- -- -- -- --  -- -- -- -- -- -- -- --
0140:                                            03 00                ..
0150: 00 07 7F 1A 98 01 66 01  00 F8 FF FF 7F F8 FF FF  ......f.........
0160: 7F 73 68 61 30 53 F8 FF  FF 7F F8 FF FF 7F 73 68  .sha0S........sh
0170: 61 30 00                                          a0.             
```

#### Opcodes

```
  0: 0x014E [0x03] ExtData[1]->WorkLocal[0] = Entity->Race
  1: 0x0153 [0x1A] CALL_SUBROUTINE(address=0x0198)
  2: 0x0156 [0x66] LOAD_EXT_SCHEDULER_MAIN: Load scheduler "sha0" with entities [EventEntity, EventEntity], work=ExtData[1]->WorkLocal[1]
  3: 0x0165 [0x53] WAIT_SCHEDULER_TASK: Wait for scheduler "sha0" with entities [EventEntity, EventEntity]
  4: 0x0172 [0x00] END_REQSTACK()
```

### Event 65535.17

#### Metadata

| Field        | Value     |
|--------------|-----------|
| Entrypoint   | 0x0173    |
| Data Size    | 185 bytes |
| Instructions | 13        |

```
      00 01 02 03 04 05 06 07  08 09 0A 0B 0C 0D 0E 0F
      -- -- -- -- -- -- -- --  -- -- -- -- -- -- -- --
0170:          03 00 00 07 7F  1A 98 01 66 01 00 F8 FF     ........f....
0180: FF 7F F8 FF FF 7F 73 68  61 31 53 F8 FF FF 7F F8  ......sha1S.....
0190: FF FF 7F 73 68 61 31 00  03 01 00 00 00 02 01 00  ...sha1.........
01A0: 30 80 05 AD 01 08 01 00  28 80 01 B2 01 08 01 00  0.......(.......
01B0: 33 80 14 01 00 34 80 07  01 00 35 80 1B 03 01 00  3....4....5.....
01C0: 00 00 02 01 00 30 80 05  D2 01 08 01 00 28 80 01  .....0.......(..
01D0: D7 01 08 01 00 33 80 14  01 00 34 80 07 01 00 36  .....3....4....6
01E0: 80 1B 03 01 00 00 00 02  01 00 30 80 05 F7 01 08  ..........0.....
01F0: 01 00 28 80 01 FC 01 08  01 00 33 80 14 01 00 34  ..(.......3....4
0200: 80 07 01 00 37 80 1B 03  01 00 00 00 02 01 00 30  ....7..........0
0210: 80 05 1C 02 08 01 00 28  80 01 21 02 08 01 00 33  .......(..!....3
0220: 80 14 01 00 34 80 07 01  00 38 80 1B              ....4....8..    
```

#### Opcodes

```
  0: 0x0173 [0x03] ExtData[1]->WorkLocal[0] = Entity->Race
  1: 0x0178 [0x1A] CALL_SUBROUTINE(address=0x0198)
  2: 0x017B [0x66] LOAD_EXT_SCHEDULER_MAIN: Load scheduler "sha1" with entities [EventEntity, EventEntity], work=ExtData[1]->WorkLocal[1]
  3: 0x018A [0x53] WAIT_SCHEDULER_TASK: Wait for scheduler "sha1" with entities [EventEntity, EventEntity]
  4: 0x0197 [0x00] END_REQSTACK()

SUBROUTINE_0198:
  5: 0x0198 [0x03] ExtData[1]->WorkLocal[1] = ExtData[1]->WorkLocal[0]
  6: 0x019D [0x02] IF !(ExtData[1]->WorkLocal[1] > 5*) GOTO 0x01AD
  7: 0x01A5 [0x08] ExtData[1]->WorkLocal[1] -= 1*
  8: 0x01AA [0x01] GOTO 0x01B2
  9: 0x01AD [0x08] ExtData[1]->WorkLocal[1] -= 2*

SUBROUTINE_01B2:
 10: 0x01B2 [0x14] ExtData[1]->WorkLocal[1] *= 10*
 11: 0x01B7 [0x07] ExtData[1]->WorkLocal[1] += 9*
 12: 0x01BC [0x1B] RETURN
```

#### Data or dead code:

```
# Dead code (unreachable instructions):
     0x01BD [0x03] ExtData[1]->WorkLocal[1] = ExtData[1]->WorkLocal[0]
     0x01C2 [0x02] IF !(ExtData[1]->WorkLocal[1] > 5*) GOTO 0x01D2
     0x01CA [0x08] ExtData[1]->WorkLocal[1] -= 1*
     0x01CF [0x01] GOTO 0x01D7
     0x01D2 [0x08] ExtData[1]->WorkLocal[1] -= 2*
     0x01D7 [0x14] ExtData[1]->WorkLocal[1] *= 10*
     0x01DC [0x07] ExtData[1]->WorkLocal[1] += 70*
     0x01E1 [0x1B] RETURN
     0x01E2 [0x03] ExtData[1]->WorkLocal[1] = ExtData[1]->WorkLocal[0]
     0x01E7 [0x02] IF !(ExtData[1]->WorkLocal[1] > 5*) GOTO 0x01F7
     0x01EF [0x08] ExtData[1]->WorkLocal[1] -= 1*
     0x01F4 [0x01] GOTO 0x01FC
     0x01F7 [0x08] ExtData[1]->WorkLocal[1] -= 2*
     0x01FC [0x14] ExtData[1]->WorkLocal[1] *= 10*
     0x0201 [0x07] ExtData[1]->WorkLocal[1] += 140*
     0x0206 [0x1B] RETURN
     0x0207 [0x03] ExtData[1]->WorkLocal[1] = ExtData[1]->WorkLocal[0]
     0x020C [0x02] IF !(ExtData[1]->WorkLocal[1] > 5*) GOTO 0x021C
     0x0214 [0x08] ExtData[1]->WorkLocal[1] -= 1*
     0x0219 [0x01] GOTO 0x0221
     0x021C [0x08] ExtData[1]->WorkLocal[1] -= 2*
     0x0221 [0x14] ExtData[1]->WorkLocal[1] *= 10*
     0x0226 [0x07] ExtData[1]->WorkLocal[1] += 210*
     0x022B [0x1B] RETURN
```

### Event 65535.18

#### Metadata

| Field        | Value   |
|--------------|---------|
| Entrypoint   | 0x022C  |
| Data Size    | 7 bytes |
| Instructions | 3       |

```
      00 01 02 03 04 05 06 07  08 09 0A 0B 0C 0D 0E 0F
      -- -- -- -- -- -- -- --  -- -- -- -- -- -- -- --
0220:                                      AB 03 AC 01              ....
0230: 28 80 00                                          (..             
```

#### Opcodes

```
  0: 0x022C [0xAB] EventEntity->Render.Flags0 ^= 0x20000 // Toggle bit 17
  1: 0x022E [0xAC] EventEntity->StatusEvent = 1*
  2: 0x0232 [0x00] END_REQSTACK()
```

### Event 65535.19

#### Metadata

| Field        | Value   |
|--------------|---------|
| Entrypoint   | 0x0233  |
| Data Size    | 7 bytes |
| Instructions | 3       |

```
      00 01 02 03 04 05 06 07  08 09 0A 0B 0C 0D 0E 0F
      -- -- -- -- -- -- -- --  -- -- -- -- -- -- -- --
0230:          AC 01 04 80 AB  04 00                       .......      
```

#### Opcodes

```
  0: 0x0233 [0xAC] EventEntity->StatusEvent = 0*
  1: 0x0237 [0xAB] EventEntity->Render.Flags0 |= 0x40000 // Set bit 18
  2: 0x0239 [0x00] END_REQSTACK()
```

### Event 32000

#### Metadata

| Field        | Value      |
|--------------|------------|
| Entrypoint   | 0x023A     |
| Data Size    | 2162 bytes |
| Instructions | 285        |

```
      00 01 02 03 04 05 06 07  08 09 0A 0B 0C 0D 0E 0F
      -- -- -- -- -- -- -- --  -- -- -- -- -- -- -- --
0230:                                20 01 79 00 F0 FF             .y...
0240: FF 7F F0 FF FF 7F 03 04  00 02 10 03 05 00 03 10  ................
0250: 03 07 00 04 10 03 08 00  05 10 03 11 00 06 10 03  ................
0260: 12 00 07 10 03 13 00 08  10 41 04 80 00 80 09 10  .........A......
0270: 09 00 41 39 80 3A 80 09  10 06 10 06 03 00 02 09  ..A9.:..........
0280: 00 04 80 00 7A 03 03 0A  00 3B 80 0F 0A 00 08 00  ....z....;......
0290: 10 0A 00 28 80 24 3C 80  04 80 0A 00 25 02 00 10  ...(.$<.....%...
02A0: 04 80 00 AB 02 01 91 0A  01 7A 03 03 05 00 00 10  .........z......
02B0: 0C 05 00 06 17 00 3E 11  00 05 00 56 03 06 11 00  ......>....V....
02C0: 06 0A 00 3E 13 00 05 00  CD 02 01 D4 02 3C 0A 00  ...>.........<..
02D0: 04 80 28 80 3E 12 00 05  00 DE 02 01 E5 02 3C 0A  ..(.>.........<.
02E0: 00 28 80 28 80 1A DF 46  24 3D 80 30 80 0A 00 25  .(.(...F$=.0...%
02F0: 02 00 10 04 80 00 00 03  03 11 00 28 80 01 53 03  ...........(..S.
0300: 02 00 10 28 80 00 10 03  03 11 00 33 80 01 53 03  ...(.......3..S.
0310: 02 00 10 33 80 00 20 03  03 11 00 3E 80 01 53 03  ...3.. ....>..S.
0320: 02 00 10 3E 80 00 30 03  03 11 00 3F 80 01 53 03  ...>..0....?..S.
0330: 02 00 10 3F 80 00 40 03  03 11 00 30 80 01 53 03  ...?..@....0..S.
0340: 02 00 10 30 80 00 4E 03  01 91 0A 01 53 03 03 11  ...0..N.....S...
0350: 00 3E 80 01 7A 03 06 11  00 1A AB 0A 02 17 00 28  .>..z..........(
0360: 80 00 7A 03 24 40 80 28  80 04 80 25 02 00 10 28  ..z.$@.(...%...(
0370: 80 00 7A 03 01 91 0A 01  7A 03 42 03 01 10 41 80  ..z.....z.B...A.
0380: 43 00 43 01 06 01 10 45  42 80 F0 FF FF 7F F0 FF  C.C....EB.......
0390: FF 7F 66 64 6F 31 04 80  55 42 80 F0 FF FF 7F F0  ..fdo1..UB......
03A0: FF FF 7F 66 64 6F 31 3B  F0 FF FF 7F 25 10 26 10  ...fdo1;....%.&.
03B0: 27 10 38 43 80 02 09 00  28 80 00 D4 03 03 02 00  '.8C....(.......
03C0: 28 80 03 06 00 05 00 03  04 00 04 80 03 1D 00 04  (...............
03D0: 80 01 C5 07 03 02 00 28  80 02 02 00 3E 80 05 5A  .......(....>..Z
03E0: 0A 02 04 80 28 80 00 EE  03 03 02 00 07 00 40 04  ....(.........@.
03F0: 80 3E 80 01 10 02 00 40  3F 80 44 80 01 10 05 00  .>.....@?.D.....
0400: 40 35 80 45 80 01 10 11  00 06 02 10 06 03 10 06  @5.E............
0410: 04 10 02 02 00 28 80 80  31 04 03 0B 00 46 80 03  .....(..1....F..
0420: 0C 00 47 80 03 0D 00 48  80 03 0E 00 49 80 01 8E  ..G....H....I...
0430: 04 02 02 00 33 80 80 50  04 03 0B 00 4A 80 03 0C  ....3..P....J...
0440: 00 4B 80 03 0D 00 4C 80  03 0E 00 49 80 01 8E 04  .K....L....I....
0450: 02 02 00 3E 80 80 6F 04  03 0B 00 4D 80 03 0C 00  ...>..o....M....
0460: 4E 80 03 0D 00 4F 80 03  0E 00 49 80 01 8E 04 02  N....O....I.....
0470: 02 00 3F 80 80 8E 04 03  0B 00 04 80 03 0C 00 04  ..?.............
0480: 80 03 0D 00 04 80 03 0E  00 04 80 01 8E 04 47 00  ..............G.
0490: 0B 00 0C 00 0D 00 0E 00  47 01 03 06 00 03 10 03  ........G.......
04A0: 04 00 04 10 03 1B 00 05  10 03 0F 00 06 10 03 10  ................
04B0: 00 07 10 03 1D 00 09 10  02 02 10 28 80 80 C3 04  ...........(....
04C0: 01 47 0A 02 02 10 3F 80  80 0D 05 02 02 00 28 80  .G....?.......(.
04D0: 80 DA 04 48 50 80 23 01  07 05 02 02 00 33 80 80  ...HP.#......3..
04E0: E9 04 48 51 80 23 01 07  05 02 02 00 3E 80 80 F8  ..HQ.#......>...
04F0: 04 48 52 80 23 01 07 05  02 02 00 3F 80 80 07 05  .HR.#......?....
0500: 48 53 80 23 01 07 05 01  5E 0A 01 47 0A 02 02 10  HS.#....^..G....
0510: 30 80 80 1F 05 48 54 80  23 01 5E 0A 01 47 0A 02  0....HT.#.^..G..
0520: 02 10 55 80 80 21 07 02  06 00 04 80 80 37 05 03  ..U..!.......7..
0530: 05 10 55 80 01 17 07 02  06 00 28 80 80 47 05 03  ..U.......(..G..
0540: 05 10 55 80 01 17 07 02  06 00 33 80 80 57 05 03  ..U.......3..W..
0550: 05 10 56 80 01 17 07 02  06 00 3E 80 80 67 05 03  ..V.......>..g..
0560: 05 10 04 80 01 17 07 02  06 00 3F 80 80 77 05 03  ..........?..w..
0570: 05 10 04 80 01 17 07 02  06 00 30 80 80 87 05 03  ..........0.....
0580: 05 10 04 80 01 17 07 02  06 00 55 80 80 97 05 03  ..........U.....
0590: 05 10 04 80 01 17 07 02  06 00 29 80 80 A7 05 03  ..........).....
05A0: 05 10 04 80 01 17 07 02  06 00 44 80 80 B7 05 03  ..........D.....
05B0: 05 10 04 80 01 17 07 02  06 00 35 80 80 C7 05 03  ..........5.....
05C0: 05 10 04 80 01 17 07 02  06 00 34 80 80 D7 05 03  ..........4.....
05D0: 05 10 04 80 01 17 07 02  06 00 45 80 80 E7 05 03  ..........E.....
05E0: 05 10 04 80 01 17 07 02  06 00 57 80 80 F7 05 03  ..........W.....
05F0: 05 10 04 80 01 17 07 02  06 00 1B 80 80 07 06 03  ................
0600: 05 10 04 80 01 17 07 02  06 00 58 80 80 17 06 03  ..........X.....
0610: 05 10 04 80 01 17 07 02  06 00 00 80 80 27 06 03  .............'..
0620: 05 10 04 80 01 17 07 02  06 00 39 80 80 37 06 03  ..........9..7..
0630: 05 10 04 80 01 17 07 02  06 00 59 80 80 47 06 03  ..........Y..G..
0640: 05 10 04 80 01 17 07 02  06 00 56 80 80 57 06 03  ..........V..W..
0650: 05 10 04 80 01 17 07 02  06 00 43 80 80 67 06 03  ..........C..g..
0660: 05 10 04 80 01 17 07 02  06 00 16 80 80 77 06 03  .............w..
0670: 05 10 04 80 01 17 07 02  06 00 5A 80 80 87 06 03  ..........Z.....
0680: 05 10 04 80 01 17 07 02  06 00 5B 80 80 97 06 03  ..........[.....
0690: 05 10 04 80 01 17 07 02  06 00 5C 80 80 A7 06 03  ..........\.....
06A0: 05 10 04 80 01 17 07 02  06 00 2E 80 80 B7 06 03  ................
06B0: 05 10 04 80 01 17 07 02  06 00 5D 80 80 C7 06 03  ..........].....
06C0: 05 10 04 80 01 17 07 02  06 00 5E 80 80 D7 06 03  ..........^.....
06D0: 05 10 04 80 01 17 07 02  06 00 5F 80 80 E7 06 03  .........._.....
06E0: 05 10 04 80 01 17 07 02  06 00 60 80 80 F7 06 03  ..........`.....
06F0: 05 10 04 80 01 17 07 02  06 00 61 80 80 07 07 03  ..........a.....
0700: 05 10 04 80 01 17 07 02  06 00 0A 80 80 17 07 03  ................
0710: 05 10 04 80 01 17 07 48  62 80 23 01 5E 0A 01 47  .......Hb.#.^..G
0720: 0A 02 02 10 3E 80 80 2F  07 01 D4 03 01 47 0A 02  ....>../.....G..
0730: 02 10 33 80 80 47 0A 02  0F 00 04 80 01 7B 07 03  ..3..G.......{..
0740: 05 10 1B 00 02 1B 00 04  80 02 63 07 02 1B 00 63  ..........c....c
0750: 80 04 63 07 3F 04 10 05  10 63 80 15 05 10 63 80  ..c.?....c....c.
0760: 01 63 07 02 0F 00 28 80  05 6E 07 01 7B 07 03 06  .c....(..n..{...
0770: 10 0F 00 0C 06 10 03 07  10 0F 00 03 05 00 06 00  ................
0780: 03 15 00 64 80 07 15 00  05 00 02 04 00 15 00 00  ...d............
0790: 9A 07 03 04 00 28 80 01  9F 07 03 04 00 04 80 02  .....(..........
07A0: 04 00 04 80 00 C5 07 02  10 00 28 80 00 C5 07 24  ..........(....$
07B0: 65 80 28 80 04 80 25 02  00 10 04 80 00 C5 07 05  e.(...%.........
07C0: 04 00 01 C5 07 06 16 00  02 06 00 04 80 80 D8 07  ................
07D0: 03 16 00 04 80 01 BD 09  02 06 00 28 80 80 E8 07  ...........(....
07E0: 03 16 00 04 80 01 BD 09  02 06 00 33 80 80 F8 07  ...........3....
07F0: 03 16 00 04 80 01 BD 09  02 06 00 3E 80 80 08 08  ...........>....
0800: 03 16 00 04 80 01 BD 09  02 06 00 3F 80 80 18 08  ...........?....
0810: 03 16 00 04 80 01 BD 09  02 06 00 30 80 80 28 08  ...........0..(.
0820: 03 16 00 04 80 01 BD 09  02 06 00 55 80 80 38 08  ...........U..8.
0830: 03 16 00 04 80 01 BD 09  02 06 00 29 80 80 48 08  ...........)..H.
0840: 03 16 00 04 80 01 BD 09  02 06 00 44 80 80 58 08  ...........D..X.
0850: 03 16 00 04 80 01 BD 09  02 06 00 35 80 80 68 08  ...........5..h.
0860: 03 16 00 04 80 01 BD 09  02 06 00 34 80 80 78 08  ...........4..x.
0870: 03 16 00 04 80 01 BD 09  02 06 00 45 80 80 88 08  ...........E....
0880: 03 16 00 04 80 01 BD 09  02 06 00 57 80 80 98 08  ...........W....
0890: 03 16 00 04 80 01 BD 09  02 06 00 1B 80 80 A8 08  ................
08A0: 03 16 00 04 80 01 BD 09  02 06 00 58 80 80 B8 08  ...........X....
08B0: 03 16 00 04 80 01 BD 09  02 06 00 00 80 80 C8 08  ................
08C0: 03 16 00 04 80 01 BD 09  02 06 00 39 80 80 D8 08  ...........9....
08D0: 03 16 00 04 80 01 BD 09  02 06 00 59 80 80 E8 08  ...........Y....
08E0: 03 16 00 04 80 01 BD 09  02 06 00 56 80 80 F8 08  ...........V....
08F0: 03 16 00 04 80 01 BD 09  02 06 00 43 80 80 08 09  ...........C....
0900: 03 16 00 04 80 01 BD 09  02 06 00 16 80 80 18 09  ................
0910: 03 16 00 04 80 01 BD 09  02 06 00 5A 80 80 28 09  ...........Z..(.
0920: 03 16 00 04 80 01 BD 09  02 06 00 5B 80 80 38 09  ...........[..8.
0930: 03 16 00 04 80 01 BD 09  02 06 00 5C 80 80 48 09  ...........\..H.
0940: 03 16 00 04 80 01 BD 09  02 06 00 2E 80 80 58 09  ..............X.
0950: 03 16 00 04 80 01 BD 09  02 06 00 5D 80 80 68 09  ...........]..h.
0960: 03 16 00 04 80 01 BD 09  02 06 00 5E 80 80 78 09  ...........^..x.
0970: 03 16 00 04 80 01 BD 09  02 06 00 5F 80 80 88 09  ..........._....
0980: 03 16 00 04 80 01 BD 09  02 06 00 60 80 80 98 09  ...........`....
0990: 03 16 00 04 80 01 BD 09  02 06 00 61 80 80 A8 09  ...........a....
09A0: 03 16 00 04 80 01 BD 09  02 06 00 0A 80 80 B8 09  ................
09B0: 03 16 00 04 80 01 BD 09  03 16 00 04 80 02 04 00  ................
09C0: 28 80 00 D8 09 5C 00 66  80 5C 01 66 80 5C 02 66  (....\.f.\.f.\.f
09D0: 80 5C 03 66 80 01 F0 09  02 16 00 04 80 00 F0 09  .\.f............
09E0: 5C 00 66 80 5C 01 66 80  5C 02 66 80 5C 03 66 80  \.f.\.f.\.f.\.f.
09F0: 02 04 00 04 80 00 FE 09  1A A5 11 01 37 0A 6C F0  ............7.l.
0A00: FF FF 7F 04 80 28 80 62  33 80 F0 FF FF 7F F0 FF  .....(.b3.......
0A10: FF 7F 6D 61 69 6E 04 80  45 42 80 F0 FF FF 7F F0  ..main..EB......
0A20: FF FF 7F 6F 76 6C 31 04  80 46 02 14 00 02 14 00  ...ovl1..F......
0A30: 04 80 00 37 0A 46 00 03  01 10 64 80 07 01 10 05  ...7.F....d.....
0A40: 00 01 5E 0A 01 47 0A 0B  02 00 02 04 80 28 80 00  ..^..G.......(..
0A50: 57 0A 03 02 00 3F 80 01  D9 03 48 67 80 23 45 2D  W....?....Hg.#E-
0A60: 80 F0 FF FF 7F F0 FF FF  7F 77 68 69 31 04 80 45  .........whi1..E
0A70: 42 80 F0 FF FF 7F F0 FF  FF 7F 62 6C 6F 66 04 80  B.........blof..
0A80: 45 42 80 F0 FF FF 7F F0  FF FF 7F 66 64 69 30 04  EB.........fdi0.
0A90: 80 02 09 00 28 80 00 A9  0A 5C 00 04 80 5C 01 04  ....(....\...\..
0AA0: 80 5C 02 66 80 5C 03 66  80 21 00 1B              .\.f.\.f.!..    
```

#### Opcodes

```
  0: 0x023A [0x20] SET_CLI_EVENT_UC_FLAG: Lock player control
  1: 0x023C [0x79] LocalPlayer looks at LocalPlayer (Basic look)
  2: 0x0246 [0x03] ExtData[1]->WorkLocal[4] = Work_Zone[2]
  3: 0x024B [0x03] ExtData[1]->WorkLocal[5] = Work_Zone[3]
  4: 0x0250 [0x03] ExtData[1]->WorkLocal[7] = Work_Zone[4]
  5: 0x0255 [0x03] ExtData[1]->WorkLocal[8] = Work_Zone[5]
  6: 0x025A [0x03] ExtData[1]->WorkLocal[17] = Work_Zone[6]
  7: 0x025F [0x03] ExtData[1]->WorkLocal[18] = Work_Zone[7]
  8: 0x0264 [0x03] ExtData[1]->WorkLocal[19] = Work_Zone[8]
  9: 0x0269 [0x41] ExtData[1]->WorkLocal[9] = Work_Zone[9] (bits 0*-15*)
 10: 0x0272 [0x41] Work_Zone[6] = Work_Zone[9] (bits 16*-31*)
 11: 0x027B [0x06] ExtData[1]->WorkLocal[3] = 0
 12: 0x027E [0x02] IF !(ExtData[1]->WorkLocal[9] == 0*) GOTO 0x037A
 13: 0x0286 [0x03] ExtData[1]->WorkLocal[10] = 4294967295*
 14: 0x028B [0x0F] ExtData[1]->WorkLocal[10] ^= ExtData[1]->WorkLocal[8]
 15: 0x0290 [0x10] ExtData[1]->WorkLocal[10] <<= 1*
 16: 0x0295 [0x24] CREATE_DIALOG(message_id=8070*, default_option=0*, option_flags=ExtData[1]->WorkLocal[10])
    → "Which battlefield will you enter? [None./Splitting Heirs (S)./Purple, The New Black./The Blood-bathed Crown././././././././././././././././././././././././././././]"
 17: 0x029C [0x25] WAIT_DIALOG_SELECT()
 18: 0x029D [0x02] IF !(Work_Zone[0] == 0*) GOTO 0x02AB
 19: 0x02A5 [0x01] GOTO 0x0A91

SUBROUTINE_02D4:
 20: 0x02D4 [0x3E] IF !(ExtData[1]->WorkLocal[18] bit ExtData[1]->WorkLocal[5]) GOTO 0x02DE
 21: 0x02DB [0x01] GOTO 0x02E5
 22: 0x02DE [0x3C] SET_BIT_FLAG_CONDITIONAL(target_work_offset=ExtData[1]->WorkLocal[10], bit_index_work_offset=1*, condition_work_offset=1*)

SUBROUTINE_02E5:
 23: 0x02E5 [0x1A] CALL_SUBROUTINE(address=0x46DF)
 24: 0x02E8 [0x24] CREATE_DIALOG(message_id=8057*, default_option=5*, option_flags=ExtData[1]->WorkLocal[10])
    → "Select difficulty. [Very difficult. (Level: ???)/Difficult. (Level: ???)/Normal. (Level: $18)/Easy. (Level: $17)/Very Easy. (Level: $16)/Leave.]"
 25: 0x02EF [0x25] WAIT_DIALOG_SELECT()
 26: 0x02F0 [0x02] IF !(Work_Zone[0] == 0*) GOTO 0x0300
 27: 0x02F8 [0x03] ExtData[1]->WorkLocal[17] = 1*
 28: 0x02FD [0x01] GOTO 0x0353
 29: 0x0300 [0x02] IF !(Work_Zone[0] == 1*) GOTO 0x0310
 30: 0x0308 [0x03] ExtData[1]->WorkLocal[17] = 2*
 31: 0x030D [0x01] GOTO 0x0353
 32: 0x0310 [0x02] IF !(Work_Zone[0] == 2*) GOTO 0x0320
 33: 0x0318 [0x03] ExtData[1]->WorkLocal[17] = 3*
 34: 0x031D [0x01] GOTO 0x0353
 35: 0x0320 [0x02] IF !(Work_Zone[0] == 3*) GOTO 0x0330
 36: 0x0328 [0x03] ExtData[1]->WorkLocal[17] = 4*
 37: 0x032D [0x01] GOTO 0x0353
 38: 0x0330 [0x02] IF !(Work_Zone[0] == 4*) GOTO 0x0340
 39: 0x0338 [0x03] ExtData[1]->WorkLocal[17] = 5*
 40: 0x033D [0x01] GOTO 0x0353
 41: 0x0340 [0x02] IF !(Work_Zone[0] == 5*) GOTO 0x034E
 42: 0x0348 [0x01] GOTO 0x0A91

SUBROUTINE_0353:
 43: 0x0353 [0x01] GOTO 0x037A
 44: 0x0356 [0x06] ExtData[1]->WorkLocal[17] = 0
 45: 0x0359 [0x1A] CALL_SUBROUTINE(address=0x0AAB)
 46: 0x035C [0x02] IF !(ExtData[1]->WorkLocal[23] == 1*) GOTO 0x037A
 47: 0x0364 [0x24] CREATE_DIALOG(message_id=7690*, default_option=1*, option_flags=0*)
    → "Enter the battlefield? [Enter./Decline.]"
 48: 0x036B [0x25] WAIT_DIALOG_SELECT()
 49: 0x036C [0x02] IF !(Work_Zone[0] == 1*) GOTO 0x037A
 50: 0x0374 [0x01] GOTO 0x0A91

SUBROUTINE_037A:
 51: 0x037A [0x42] SET_CLI_EVENT_CANCEL_DATA()
 52: 0x037B [0x03] Work_Zone[1] = 255*
 53: 0x0380 [0x43] SEND_EVENT_UPDATE: Send pending tag to server (packet 0x005B)
 54: 0x0382 [0x43] SEND_EVENT_UPDATE: Check pending flag (skip if not pending)
 55: 0x0384 [0x06] Work_Zone[1] = 0
 56: 0x0387 [0x45] LOAD_SCHEDULED_TASK: Load scheduler "fdo1" with entities [LocalPlayer, LocalPlayer], work=[200*, 0*]
 57: 0x0398 [0x55] WAIT_LOAD_SCHEDULER: Wait for scheduler "fdo1" with entities [LocalPlayer, LocalPlayer], work=200*
 58: 0x03A7 [0x3B] GET_ENTITY_POSITION(entity=LocalPlayer, x_destination=Work_Zone[37], y_destination=Work_Zone[38], z_destination=Work_Zone[39])
 59: 0x03B2 [0x38] SET_CLIENT_EVENT_MODE(mode=19*)
 60: 0x03B5 [0x02] IF !(ExtData[1]->WorkLocal[9] == 1*) GOTO 0x03D4
 61: 0x03BD [0x03] ExtData[1]->WorkLocal[2] = 1*
 62: 0x03C2 [0x03] ExtData[1]->WorkLocal[6] = ExtData[1]->WorkLocal[5]
 63: 0x03C7 [0x03] ExtData[1]->WorkLocal[4] = 0*
 64: 0x03CC [0x03] ExtData[1]->WorkLocal[29] = 0*
 65: 0x03D1 [0x01] GOTO 0x07C5

SUBROUTINE_03D4:
 66: 0x03D4 [0x03] ExtData[1]->WorkLocal[2] = 1*

SUBROUTINE_03D9:
 67: 0x03D9 [0x02] IF !(ExtData[1]->WorkLocal[2] > 3*) GOTO 0x0A5A
 68: 0x03E1 [0x02] IF !(0* == 1*) GOTO 0x03EE
 69: 0x03E9 [0x03] ExtData[1]->WorkLocal[2] = ExtData[1]->WorkLocal[7]
 70: 0x03EE [0x40] SET_BIT_WORK_RANGE(start_bit=0*, end_bit=3*, target=Work_Zone[1], source=ExtData[1]->WorkLocal[2])
 71: 0x03F7 [0x40] SET_BIT_WORK_RANGE(start_bit=4*, end_bit=8*, target=Work_Zone[1], source=ExtData[1]->WorkLocal[5])
 72: 0x0400 [0x40] SET_BIT_WORK_RANGE(start_bit=9*, end_bit=11*, target=Work_Zone[1], source=ExtData[1]->WorkLocal[17])
 73: 0x0409 [0x06] Work_Zone[2] = 0
 74: 0x040C [0x06] Work_Zone[3] = 0
 75: 0x040F [0x06] Work_Zone[4] = 0
 76: 0x0412 [0x02] IF !(ExtData[1]->WorkLocal[2] == 1*) GOTO 0x0431
 77: 0x041A [0x03] ExtData[1]->WorkLocal[11] = 4294630211*
 78: 0x041F [0x03] ExtData[1]->WorkLocal[12] = 374495*
 79: 0x0424 [0x03] ExtData[1]->WorkLocal[13] = 4294847407*
 80: 0x0429 [0x03] ExtData[1]->WorkLocal[14] = 2150*
 81: 0x042E [0x01] GOTO 0x048E
 82: 0x0431 [0x02] IF !(ExtData[1]->WorkLocal[2] == 2*) GOTO 0x0450
 83: 0x0439 [0x03] ExtData[1]->WorkLocal[11] = 63241*
 84: 0x043E [0x03] ExtData[1]->WorkLocal[12] = 374191*
 85: 0x0443 [0x03] ExtData[1]->WorkLocal[13] = 4294907395*
 86: 0x0448 [0x03] ExtData[1]->WorkLocal[14] = 2150*
 87: 0x044D [0x01] GOTO 0x048E
 88: 0x0450 [0x02] IF !(ExtData[1]->WorkLocal[2] == 3*) GOTO 0x046F
 89: 0x0458 [0x03] ExtData[1]->WorkLocal[11] = 463122*
 90: 0x045D [0x03] ExtData[1]->WorkLocal[12] = 374222*
 91: 0x0462 [0x03] ExtData[1]->WorkLocal[13] = 4294847395*
 92: 0x0467 [0x03] ExtData[1]->WorkLocal[14] = 2150*
 93: 0x046C [0x01] GOTO 0x048E
 94: 0x046F [0x02] IF !(ExtData[1]->WorkLocal[2] == 4*) GOTO 0x048E
 95: 0x0477 [0x03] ExtData[1]->WorkLocal[11] = 0*
 96: 0x047C [0x03] ExtData[1]->WorkLocal[12] = 0*
 97: 0x0481 [0x03] ExtData[1]->WorkLocal[13] = 0*
 98: 0x0486 [0x03] ExtData[1]->WorkLocal[14] = 0*
 99: 0x048B [0x01] GOTO 0x048E

SUBROUTINE_048E:
100: 0x048E [0x47] UPDATE_PLAYER_POS(ExtData[1]->WorkLocal[11], ExtData[1]->WorkLocal[12], ExtData[1]->WorkLocal[13], yaw=ExtData[1]->WorkLocal[14])
101: 0x0498 [0x47] WAIT_PLAYER_POS_UPDATE
102: 0x049A [0x03] ExtData[1]->WorkLocal[6] = Work_Zone[3]
103: 0x049F [0x03] ExtData[1]->WorkLocal[4] = Work_Zone[4]
104: 0x04A4 [0x03] ExtData[1]->WorkLocal[27] = Work_Zone[5]
105: 0x04A9 [0x03] ExtData[1]->WorkLocal[15] = Work_Zone[6]
106: 0x04AE [0x03] ExtData[1]->WorkLocal[16] = Work_Zone[7]
107: 0x04B3 [0x03] ExtData[1]->WorkLocal[29] = Work_Zone[9]
108: 0x04B8 [0x02] IF !(Work_Zone[2] == 1*) GOTO 0x04C3
109: 0x04C0 [0x01] GOTO 0x0A47
110: 0x04C3 [0x02] IF !(Work_Zone[2] == 4*) GOTO 0x050D
111: 0x04CB [0x02] IF !(ExtData[1]->WorkLocal[2] == 1*) GOTO 0x04DA
112: 0x04D3 [0x48] [System] [7701*]:
    → "You are cleared to enter the battlefield, but you cannot while party members are engaged in combat."
113: 0x04D6 [0x23] WAIT_FOR_DIALOG_INTERACTION
114: 0x04D7 [0x01] GOTO 0x0507
115: 0x04DA [0x02] IF !(ExtData[1]->WorkLocal[2] == 2*) GOTO 0x04E9
116: 0x04E2 [0x48] [System] [7702*]:
    → "You are cleared to enter the battlefield, but you cannot while party members are engaged in combat."
117: 0x04E5 [0x23] WAIT_FOR_DIALOG_INTERACTION
118: 0x04E6 [0x01] GOTO 0x0507
119: 0x04E9 [0x02] IF !(ExtData[1]->WorkLocal[2] == 3*) GOTO 0x04F8
120: 0x04F1 [0x48] [System] [7703*]:
    → "You are cleared to enter the battlefield, but you cannot while party members are engaged in combat."
121: 0x04F4 [0x23] WAIT_FOR_DIALOG_INTERACTION
122: 0x04F5 [0x01] GOTO 0x0507
123: 0x04F8 [0x02] IF !(ExtData[1]->WorkLocal[2] == 4*) GOTO 0x0507
124: 0x0500 [0x48] [System] [7704*]:
    → "You are cleared to enter the battlefield, but you cannot while party members are engaged in combat."
125: 0x0503 [0x23] WAIT_FOR_DIALOG_INTERACTION
126: 0x0504 [0x01] GOTO 0x0507

SUBROUTINE_0507:
127: 0x0507 [0x01] GOTO 0x0A5E

SUBROUTINE_0717:
128: 0x0717 [0x48] [System] [8049*]:
    → "Only $3 [member/members] have clearance to enter the battlefield. This room has reached its maximum capacity."
129: 0x071A [0x23] WAIT_FOR_DIALOG_INTERACTION
130: 0x071B [0x01] GOTO 0x0A5E

SUBROUTINE_0763:
131: 0x0763 [0x02] IF !(ExtData[1]->WorkLocal[15] > 1*) GOTO 0x076E
132: 0x076B [0x01] GOTO 0x077B
133: 0x076E [0x03] Work_Zone[6] = ExtData[1]->WorkLocal[15]
134: 0x0773 [0x0C] Work_Zone[6]--
135: 0x0776 [0x03] Work_Zone[7] = ExtData[1]->WorkLocal[15]

SUBROUTINE_077B:
136: 0x077B [0x03] ExtData[1]->WorkLocal[5] = ExtData[1]->WorkLocal[6]
137: 0x0780 [0x03] ExtData[1]->WorkLocal[21] = 100*
138: 0x0785 [0x07] ExtData[1]->WorkLocal[21] += ExtData[1]->WorkLocal[5]
139: 0x078A [0x02] IF !(ExtData[1]->WorkLocal[4] == ExtData[1]->WorkLocal[21]) GOTO 0x079A
140: 0x0792 [0x03] ExtData[1]->WorkLocal[4] = 1*
141: 0x0797 [0x01] GOTO 0x079F
142: 0x079A [0x03] ExtData[1]->WorkLocal[4] = 0*

SUBROUTINE_079F:
143: 0x079F [0x02] IF !(ExtData[1]->WorkLocal[4] == 0*) GOTO 0x07C5
144: 0x07A7 [0x02] IF !(ExtData[1]->WorkLocal[16] == 1*) GOTO 0x07C5
145: 0x07AF [0x24] CREATE_DIALOG(message_id=8029*, default_option=1*, option_flags=0*)
    → "Skip the event? [Yes./No.]"
146: 0x07B6 [0x25] WAIT_DIALOG_SELECT()
147: 0x07B7 [0x02] IF !(Work_Zone[0] == 0*) GOTO 0x07C5
148: 0x07BF [0x05] ExtData[1]->WorkLocal[4] = 1
149: 0x07C2 [0x01] GOTO 0x07C5

SUBROUTINE_07C5:
150: 0x07C5 [0x06] ExtData[1]->WorkLocal[22] = 0
151: 0x07C8 [0x02] IF !(ExtData[1]->WorkLocal[6] == 0*) GOTO 0x07D8
152: 0x07D0 [0x03] ExtData[1]->WorkLocal[22] = 0*
153: 0x07D5 [0x01] GOTO 0x09BD
154: 0x07D8 [0x02] IF !(ExtData[1]->WorkLocal[6] == 1*) GOTO 0x07E8
155: 0x07E0 [0x03] ExtData[1]->WorkLocal[22] = 0*
156: 0x07E5 [0x01] GOTO 0x09BD
157: 0x07E8 [0x02] IF !(ExtData[1]->WorkLocal[6] == 2*) GOTO 0x07F8
158: 0x07F0 [0x03] ExtData[1]->WorkLocal[22] = 0*
159: 0x07F5 [0x01] GOTO 0x09BD
160: 0x07F8 [0x02] IF !(ExtData[1]->WorkLocal[6] == 3*) GOTO 0x0808
161: 0x0800 [0x03] ExtData[1]->WorkLocal[22] = 0*
162: 0x0805 [0x01] GOTO 0x09BD
163: 0x0808 [0x02] IF !(ExtData[1]->WorkLocal[6] == 4*) GOTO 0x0818
164: 0x0810 [0x03] ExtData[1]->WorkLocal[22] = 0*
165: 0x0815 [0x01] GOTO 0x09BD
166: 0x0818 [0x02] IF !(ExtData[1]->WorkLocal[6] == 5*) GOTO 0x0828
167: 0x0820 [0x03] ExtData[1]->WorkLocal[22] = 0*
168: 0x0825 [0x01] GOTO 0x09BD
169: 0x0828 [0x02] IF !(ExtData[1]->WorkLocal[6] == 6*) GOTO 0x0838
170: 0x0830 [0x03] ExtData[1]->WorkLocal[22] = 0*
171: 0x0835 [0x01] GOTO 0x09BD
172: 0x0838 [0x02] IF !(ExtData[1]->WorkLocal[6] == 7*) GOTO 0x0848
173: 0x0840 [0x03] ExtData[1]->WorkLocal[22] = 0*
174: 0x0845 [0x01] GOTO 0x09BD
175: 0x0848 [0x02] IF !(ExtData[1]->WorkLocal[6] == 8*) GOTO 0x0858
176: 0x0850 [0x03] ExtData[1]->WorkLocal[22] = 0*
177: 0x0855 [0x01] GOTO 0x09BD
178: 0x0858 [0x02] IF !(ExtData[1]->WorkLocal[6] == 9*) GOTO 0x0868
179: 0x0860 [0x03] ExtData[1]->WorkLocal[22] = 0*
180: 0x0865 [0x01] GOTO 0x09BD
181: 0x0868 [0x02] IF !(ExtData[1]->WorkLocal[6] == 10*) GOTO 0x0878
182: 0x0870 [0x03] ExtData[1]->WorkLocal[22] = 0*
183: 0x0875 [0x01] GOTO 0x09BD
184: 0x0878 [0x02] IF !(ExtData[1]->WorkLocal[6] == 11*) GOTO 0x0888
185: 0x0880 [0x03] ExtData[1]->WorkLocal[22] = 0*
186: 0x0885 [0x01] GOTO 0x09BD
187: 0x0888 [0x02] IF !(ExtData[1]->WorkLocal[6] == 12*) GOTO 0x0898
188: 0x0890 [0x03] ExtData[1]->WorkLocal[22] = 0*
189: 0x0895 [0x01] GOTO 0x09BD
190: 0x0898 [0x02] IF !(ExtData[1]->WorkLocal[6] == 13*) GOTO 0x08A8
191: 0x08A0 [0x03] ExtData[1]->WorkLocal[22] = 0*
192: 0x08A5 [0x01] GOTO 0x09BD
193: 0x08A8 [0x02] IF !(ExtData[1]->WorkLocal[6] == 14*) GOTO 0x08B8
194: 0x08B0 [0x03] ExtData[1]->WorkLocal[22] = 0*
195: 0x08B5 [0x01] GOTO 0x09BD
196: 0x08B8 [0x02] IF !(ExtData[1]->WorkLocal[6] == 15*) GOTO 0x08C8
197: 0x08C0 [0x03] ExtData[1]->WorkLocal[22] = 0*
198: 0x08C5 [0x01] GOTO 0x09BD
199: 0x08C8 [0x02] IF !(ExtData[1]->WorkLocal[6] == 16*) GOTO 0x08D8
200: 0x08D0 [0x03] ExtData[1]->WorkLocal[22] = 0*
201: 0x08D5 [0x01] GOTO 0x09BD
202: 0x08D8 [0x02] IF !(ExtData[1]->WorkLocal[6] == 17*) GOTO 0x08E8
203: 0x08E0 [0x03] ExtData[1]->WorkLocal[22] = 0*
204: 0x08E5 [0x01] GOTO 0x09BD
205: 0x08E8 [0x02] IF !(ExtData[1]->WorkLocal[6] == 18*) GOTO 0x08F8
206: 0x08F0 [0x03] ExtData[1]->WorkLocal[22] = 0*
207: 0x08F5 [0x01] GOTO 0x09BD
208: 0x08F8 [0x02] IF !(ExtData[1]->WorkLocal[6] == 19*) GOTO 0x0908
209: 0x0900 [0x03] ExtData[1]->WorkLocal[22] = 0*
210: 0x0905 [0x01] GOTO 0x09BD
211: 0x0908 [0x02] IF !(ExtData[1]->WorkLocal[6] == 20*) GOTO 0x0918
212: 0x0910 [0x03] ExtData[1]->WorkLocal[22] = 0*
213: 0x0915 [0x01] GOTO 0x09BD
214: 0x0918 [0x02] IF !(ExtData[1]->WorkLocal[6] == 21*) GOTO 0x0928
215: 0x0920 [0x03] ExtData[1]->WorkLocal[22] = 0*
216: 0x0925 [0x01] GOTO 0x09BD
217: 0x0928 [0x02] IF !(ExtData[1]->WorkLocal[6] == 22*) GOTO 0x0938
218: 0x0930 [0x03] ExtData[1]->WorkLocal[22] = 0*
219: 0x0935 [0x01] GOTO 0x09BD
220: 0x0938 [0x02] IF !(ExtData[1]->WorkLocal[6] == 23*) GOTO 0x0948
221: 0x0940 [0x03] ExtData[1]->WorkLocal[22] = 0*
222: 0x0945 [0x01] GOTO 0x09BD
223: 0x0948 [0x02] IF !(ExtData[1]->WorkLocal[6] == 24*) GOTO 0x0958
224: 0x0950 [0x03] ExtData[1]->WorkLocal[22] = 0*
225: 0x0955 [0x01] GOTO 0x09BD
226: 0x0958 [0x02] IF !(ExtData[1]->WorkLocal[6] == 25*) GOTO 0x0968
227: 0x0960 [0x03] ExtData[1]->WorkLocal[22] = 0*
228: 0x0965 [0x01] GOTO 0x09BD
229: 0x0968 [0x02] IF !(ExtData[1]->WorkLocal[6] == 26*) GOTO 0x0978
230: 0x0970 [0x03] ExtData[1]->WorkLocal[22] = 0*
231: 0x0975 [0x01] GOTO 0x09BD
232: 0x0978 [0x02] IF !(ExtData[1]->WorkLocal[6] == 27*) GOTO 0x0988
233: 0x0980 [0x03] ExtData[1]->WorkLocal[22] = 0*
234: 0x0985 [0x01] GOTO 0x09BD
235: 0x0988 [0x02] IF !(ExtData[1]->WorkLocal[6] == 28*) GOTO 0x0998
236: 0x0990 [0x03] ExtData[1]->WorkLocal[22] = 0*
237: 0x0995 [0x01] GOTO 0x09BD
238: 0x0998 [0x02] IF !(ExtData[1]->WorkLocal[6] == 29*) GOTO 0x09A8
239: 0x09A0 [0x03] ExtData[1]->WorkLocal[22] = 0*
240: 0x09A5 [0x01] GOTO 0x09BD
241: 0x09A8 [0x02] IF !(ExtData[1]->WorkLocal[6] == 30*) GOTO 0x09B8
242: 0x09B0 [0x03] ExtData[1]->WorkLocal[22] = 0*
243: 0x09B5 [0x01] GOTO 0x09BD
244: 0x09B8 [0x03] ExtData[1]->WorkLocal[22] = 0*

SUBROUTINE_09BD:
245: 0x09BD [0x02] IF !(ExtData[1]->WorkLocal[4] == 1*) GOTO 0x09D8
246: 0x09C5 [0x5C] MUSIC_CONTROL: Set Idle (Day) music to song 217*
247: 0x09C9 [0x5C] MUSIC_CONTROL: Set Idle (Night) music to song 217*
248: 0x09CD [0x5C] MUSIC_CONTROL: Set Combat (Solo) music to song 217*
249: 0x09D1 [0x5C] MUSIC_CONTROL: Set Combat (Party) music to song 217*
250: 0x09D5 [0x01] GOTO 0x09F0
251: 0x09D8 [0x02] IF !(ExtData[1]->WorkLocal[22] == 0*) GOTO 0x09F0
252: 0x09E0 [0x5C] MUSIC_CONTROL: Set Idle (Day) music to song 217*
253: 0x09E4 [0x5C] MUSIC_CONTROL: Set Idle (Night) music to song 217*
254: 0x09E8 [0x5C] MUSIC_CONTROL: Set Combat (Solo) music to song 217*
255: 0x09EC [0x5C] MUSIC_CONTROL: Set Combat (Party) music to song 217*

SUBROUTINE_09F0:
256: 0x09F0 [0x02] IF !(ExtData[1]->WorkLocal[4] == 0*) GOTO 0x09FE
257: 0x09F8 [0x1A] CALL_SUBROUTINE(address=0x11A5)
258: 0x09FB [0x01] GOTO 0x0A37
259: 0x09FE [0x6C] FADE_ENTITY_COLOR(entity_id=LocalPlayer, end_alpha=0*, fade_time=1*)
260: 0x0A07 [0x62] LOAD_EVENT_SCHEDULER: Load scheduler "main" with entities [LocalPlayer, LocalPlayer], work=[2*, 0*]
261: 0x0A18 [0x45] LOAD_SCHEDULED_TASK: Load scheduler "ovl1" with entities [LocalPlayer, LocalPlayer], work=[200*, 0*]
262: 0x0A29 [0x46] CAMERA_CONTROL: Query status
263: 0x0A2B [0x14] 0x0200 *= ExtData[1]->WorkLocal[20]
264: 0x0A30 [0x04] DEPRECATED_NOP(unused=0x80)
265: 0x0A33 [0x37] UPDATE_EVENT_POSITION_AND_DIR: x=0x460A, z=0x0300, y=Work_Zone[1], direction=8.8°*
266: 0x0A3C [0x07] Work_Zone[1] += ExtData[1]->WorkLocal[5]
267: 0x0A41 [0x01] GOTO 0x0A5E

SUBROUTINE_0A47:
268: 0x0A47 [0x0B] ExtData[1]->WorkLocal[2]++
269: 0x0A4A [0x02] IF !(0* == 1*) GOTO 0x0A57
270: 0x0A52 [0x03] ExtData[1]->WorkLocal[2] = 4*
271: 0x0A57 [0x01] GOTO 0x03D9
272: 0x0A5A [0x48] [System] [7693*]:
    → "You cannot enter the battlefield at present. Please wait a little longer."
273: 0x0A5D [0x23] WAIT_FOR_DIALOG_INTERACTION

SUBROUTINE_0A5E:
274: 0x0A5E [0x45] LOAD_SCHEDULED_TASK: Load scheduler "whi1" with entities [LocalPlayer, LocalPlayer], work=[201*, 0*]
275: 0x0A6F [0x45] LOAD_SCHEDULED_TASK: Load scheduler "blof" with entities [LocalPlayer, LocalPlayer], work=[200*, 0*]
276: 0x0A80 [0x45] LOAD_SCHEDULED_TASK: Load scheduler "fdi0" with entities [LocalPlayer, LocalPlayer], work=[200*, 0*]

SUBROUTINE_0A91:
277: 0x0A91 [0x02] IF !(ExtData[1]->WorkLocal[9] == 1*) GOTO 0x0AA9
278: 0x0A99 [0x5C] MUSIC_CONTROL: Set Idle (Day) music to song 0*
279: 0x0A9D [0x5C] MUSIC_CONTROL: Set Idle (Night) music to song 0*
280: 0x0AA1 [0x5C] MUSIC_CONTROL: Set Combat (Solo) music to song 217*
281: 0x0AA5 [0x5C] MUSIC_CONTROL: Set Combat (Party) music to song 217*
282: 0x0AA9 [0x21] END_EVENT
283: 0x0AAA [0x00] END_REQSTACK()

SUBROUTINE_0AAB:
284: 0x0AAB [0x1B] RETURN
```

#### Data or dead code:

```
# Dead code (unreachable instructions):
     0x02A8 [0x01] GOTO 0x037A
# Dead code (unreachable instructions):
     0x034B [0x01] GOTO 0x0353
# Dead code (unreachable instructions):
     0x0377 [0x01] GOTO 0x037A
# Dead code (unreachable instructions):
     0x050A [0x01] GOTO 0x0A47
     0x051C [0x01] GOTO 0x0A47
# Dead code (unreachable instructions):
     0x071E [0x01] GOTO 0x0A47
     0x072C [0x01] GOTO 0x0A47
# Dead code (unreachable instructions):
     0x0A44 [0x01] GOTO 0x0A47
```

### Event 32002

#### Metadata

| Field        | Value     |
|--------------|-----------|
| Entrypoint   | 0x0AAC    |
| Data Size    | 494 bytes |
| Instructions | 83        |

```
      00 01 02 03 04 05 06 07  08 09 0A 0B 0C 0D 0E 0F
      -- -- -- -- -- -- -- --  -- -- -- -- -- -- -- --
0AA0:                                      03 07 00 06              ....
0AB0: 10 03 22 00 07 10 03 21  00 08 10 20 01 42 3B F0  .."....!... .B;.
0AC0: FF FF 7F 25 10 26 10 27  10 3A F0 FF FF 7F 28 10  ...%.&.'.:....(.
0AD0: 45 42 80 F0 FF FF 7F F0  FF FF 7F 66 64 6F 31 04  EB.........fdo1.
0AE0: 80 55 42 80 F0 FF FF 7F  F0 FF FF 7F 66 64 6F 31  .UB.........fdo1
0AF0: 02 04 80 28 80 00 57 0B  02 07 00 28 80 80 0F 0B  ...(..W....(....
0B00: 47 00 04 80 04 80 04 80  04 80 47 01 01 54 0B 02  G.........G..T..
0B10: 07 00 33 80 80 26 0B 47  00 04 80 04 80 04 80 04  ..3..&.G........
0B20: 80 47 01 01 54 0B 02 07  00 3E 80 80 3D 0B 47 00  .G..T....>..=.G.
0B30: 04 80 04 80 04 80 04 80  47 01 01 54 0B 02 07 00  ........G..T....
0B40: 3F 80 80 54 0B 47 00 04  80 04 80 04 80 04 80 47  ?..T.G.........G
0B50: 01 01 54 0B 01 60 0C 02  21 00 68 80 80 E1 0B 02  ..T..`..!.h.....
0B60: 22 00 04 80 80 76 0B 47  00 69 80 6A 80 6B 80 6C  "....v.G.i.j.k.l
0B70: 80 47 01 01 DE 0B 02 22  00 28 80 80 8D 0B 47 00  .G.....".(....G.
0B80: 6D 80 6E 80 6F 80 70 80  47 01 01 DE 0B 02 22 00  m.n.o.p.G.....".
0B90: 33 80 80 A4 0B 47 00 71  80 72 80 73 80 74 80 47  3....G.q.r.s.t.G
0BA0: 01 01 DE 0B 02 22 00 3E  80 80 BB 0B 47 00 75 80  .....".>....G.u.
0BB0: 76 80 77 80 78 80 47 01  01 DE 0B 02 22 00 3F 80  v.w.x.G.....".?.
0BC0: 80 D2 0B 47 00 79 80 7A  80 7B 80 7C 80 47 01 01  ...G.y.z.{.|.G..
0BD0: DE 0B 47 00 7D 80 7E 80  7F 80 80 80 47 01 01 60  ..G.}.~.....G..`
0BE0: 0C 02 21 00 55 80 80 54  0C 02 22 00 28 80 80 00  ..!.U..T..".(...
0BF0: 0C 47 00 81 80 82 80 83  80 84 80 47 01 01 51 0C  .G.........G..Q.
0C00: 02 22 00 33 80 80 17 0C  47 00 85 80 86 80 87 80  .".3....G.......
0C10: 88 80 47 01 01 51 0C 02  22 00 3E 80 80 2E 0C 47  ..G..Q..".>....G
0C20: 00 89 80 8A 80 8B 80 8C  80 47 01 01 51 0C 02 22  .........G..Q.."
0C30: 00 3F 80 80 45 0C 47 00  8D 80 8E 80 8F 80 90 80  .?..E.G.........
0C40: 47 01 01 51 0C 47 00 7D  80 7E 80 7F 80 80 80 47  G..Q.G.}.~.....G
0C50: 01 01 60 0C 47 00 7D 80  7E 80 7F 80 80 80 47 01  ..`.G.}.~.....G.
0C60: 38 43 80 1A 97 46 45 2D  80 F0 FF FF 7F F0 FF FF  8C...FE-........
0C70: 7F 77 68 69 31 04 80 45  42 80 F0 FF FF 7F F0 FF  .whi1..EB.......
0C80: FF 7F 62 6C 6F 66 04 80  5C 00 04 80 5C 01 04 80  ..blof..\...\...
0C90: 5C 02 66 80 5C 03 66 80  21 00                    \.f.\.f.!.      
```

#### Opcodes

```
  0: 0x0AAC [0x03] ExtData[1]->WorkLocal[7] = Work_Zone[6]
  1: 0x0AB1 [0x03] ExtData[1]->WorkLocal[34] = Work_Zone[7]
  2: 0x0AB6 [0x03] ExtData[1]->WorkLocal[33] = Work_Zone[8]
  3: 0x0ABB [0x20] SET_CLI_EVENT_UC_FLAG: Lock player control
  4: 0x0ABD [0x42] SET_CLI_EVENT_CANCEL_DATA()
  5: 0x0ABE [0x3B] GET_ENTITY_POSITION(entity=LocalPlayer, x_destination=Work_Zone[37], y_destination=Work_Zone[38], z_destination=Work_Zone[39])
  6: 0x0AC9 [0x3A] CONVERT_YAW_TO_BYTE(entity=LocalPlayer, result_destination=Work_Zone[40])
  7: 0x0AD0 [0x45] LOAD_SCHEDULED_TASK: Load scheduler "fdo1" with entities [LocalPlayer, LocalPlayer], work=[200*, 0*]
  8: 0x0AE1 [0x55] WAIT_LOAD_SCHEDULER: Wait for scheduler "fdo1" with entities [LocalPlayer, LocalPlayer], work=200*
  9: 0x0AF0 [0x02] IF !(0* == 1*) GOTO 0x0B57
 10: 0x0AF8 [0x02] IF !(ExtData[1]->WorkLocal[7] == 1*) GOTO 0x0B0F
 11: 0x0B00 [0x47] UPDATE_PLAYER_POS(0.000*, 0.000*, 0.000*, yaw=0.0°*)
 12: 0x0B0A [0x47] WAIT_PLAYER_POS_UPDATE
 13: 0x0B0C [0x01] GOTO 0x0B54
 14: 0x0B0F [0x02] IF !(ExtData[1]->WorkLocal[7] == 2*) GOTO 0x0B26
 15: 0x0B17 [0x47] UPDATE_PLAYER_POS(0.000*, 0.000*, 0.000*, yaw=0.0°*)
 16: 0x0B21 [0x47] WAIT_PLAYER_POS_UPDATE
 17: 0x0B23 [0x01] GOTO 0x0B54
 18: 0x0B26 [0x02] IF !(ExtData[1]->WorkLocal[7] == 3*) GOTO 0x0B3D
 19: 0x0B2E [0x47] UPDATE_PLAYER_POS(0.000*, 0.000*, 0.000*, yaw=0.0°*)
 20: 0x0B38 [0x47] WAIT_PLAYER_POS_UPDATE
 21: 0x0B3A [0x01] GOTO 0x0B54
 22: 0x0B3D [0x02] IF !(ExtData[1]->WorkLocal[7] == 4*) GOTO 0x0B54
 23: 0x0B45 [0x47] UPDATE_PLAYER_POS(0.000*, 0.000*, 0.000*, yaw=0.0°*)
 24: 0x0B4F [0x47] WAIT_PLAYER_POS_UPDATE
 25: 0x0B51 [0x01] GOTO 0x0B54

SUBROUTINE_0B54:
 26: 0x0B54 [0x01] GOTO 0x0C60
 27: 0x0B57 [0x02] IF !(ExtData[1]->WorkLocal[33] == 180*) GOTO 0x0BE1
 28: 0x0B5F [0x02] IF !(ExtData[1]->WorkLocal[34] == 0*) GOTO 0x0B76
 29: 0x0B67 [0x47] UPDATE_PLAYER_POS(-605.141*, 479.929*, -22.681*, yaw=87.2°*)
 30: 0x0B71 [0x47] WAIT_PLAYER_POS_UPDATE
 31: 0x0B73 [0x01] GOTO 0x0BDE
 32: 0x0B76 [0x02] IF !(ExtData[1]->WorkLocal[34] == 1*) GOTO 0x0B8D
 33: 0x0B7E [0x47] UPDATE_PLAYER_POS(-262.589*, 377.857*, -137.313*, yaw=305.3°*)
 34: 0x0B88 [0x47] WAIT_PLAYER_POS_UPDATE
 35: 0x0B8A [0x01] GOTO 0x0BDE
 36: 0x0B8D [0x02] IF !(ExtData[1]->WorkLocal[34] == 2*) GOTO 0x0BA4
 37: 0x0B95 [0x47] UPDATE_PLAYER_POS(18.348*, 486.940*, -224.334*, yaw=17.1°*)
 38: 0x0B9F [0x47] WAIT_PLAYER_POS_UPDATE
 39: 0x0BA1 [0x01] GOTO 0x0BDE
 40: 0x0BA4 [0x02] IF !(ExtData[1]->WorkLocal[34] == 3*) GOTO 0x0BBB
 41: 0x0BAC [0x47] UPDATE_PLAYER_POS(231.593*, 360.094*, -173.572*, yaw=160.8°*)
 42: 0x0BB6 [0x47] WAIT_PLAYER_POS_UPDATE
 43: 0x0BB8 [0x01] GOTO 0x0BDE
 44: 0x0BBB [0x02] IF !(ExtData[1]->WorkLocal[34] == 4*) GOTO 0x0BD2
 45: 0x0BC3 [0x47] UPDATE_PLAYER_POS(553.664*, 523.939*, -38.205*, yaw=233.9°*)
 46: 0x0BCD [0x47] WAIT_PLAYER_POS_UPDATE
 47: 0x0BCF [0x01] GOTO 0x0BDE
 48: 0x0BD2 [0x47] UPDATE_PLAYER_POS(-106.834*, -181.366*, -0.039*, yaw=360.0°*)
 49: 0x0BDC [0x47] WAIT_PLAYER_POS_UPDATE

SUBROUTINE_0BDE:
 50: 0x0BDE [0x01] GOTO 0x0C60
 51: 0x0BE1 [0x02] IF !(ExtData[1]->WorkLocal[33] == 6*) GOTO 0x0C54
 52: 0x0BE9 [0x02] IF !(ExtData[1]->WorkLocal[34] == 1*) GOTO 0x0C00
 53: 0x0BF1 [0x47] UPDATE_PLAYER_POS(-875.117*, -43.892*, -48.084*, yaw=45.1°*)
 54: 0x0BFB [0x47] WAIT_PLAYER_POS_UPDATE
 55: 0x0BFD [0x01] GOTO 0x0C51
 56: 0x0C00 [0x02] IF !(ExtData[1]->WorkLocal[34] == 2*) GOTO 0x0C17
 57: 0x0C08 [0x47] UPDATE_PLAYER_POS(-755.499*, 563.947*, -112.035*, yaw=313.5°*)
 58: 0x0C12 [0x47] WAIT_PLAYER_POS_UPDATE
 59: 0x0C14 [0x01] GOTO 0x0C51
 60: 0x0C17 [0x02] IF !(ExtData[1]->WorkLocal[34] == 3*) GOTO 0x0C2E
 61: 0x0C1F [0x47] UPDATE_PLAYER_POS(123.251*, 754.209*, -172.124*, yaw=38.7°*)
 62: 0x0C29 [0x47] WAIT_PLAYER_POS_UPDATE
 63: 0x0C2B [0x01] GOTO 0x0C51
 64: 0x0C2E [0x02] IF !(ExtData[1]->WorkLocal[34] == 4*) GOTO 0x0C45
 65: 0x0C36 [0x47] UPDATE_PLAYER_POS(-516.404*, -803.323*, 24.206*, yaw=38.4°*)
 66: 0x0C40 [0x47] WAIT_PLAYER_POS_UPDATE
 67: 0x0C42 [0x01] GOTO 0x0C51
 68: 0x0C45 [0x47] UPDATE_PLAYER_POS(-106.834*, -181.366*, -0.039*, yaw=360.0°*)
 69: 0x0C4F [0x47] WAIT_PLAYER_POS_UPDATE

SUBROUTINE_0C51:
 70: 0x0C51 [0x01] GOTO 0x0C60
 71: 0x0C54 [0x47] UPDATE_PLAYER_POS(-106.834*, -181.366*, -0.039*, yaw=360.0°*)
 72: 0x0C5E [0x47] WAIT_PLAYER_POS_UPDATE

SUBROUTINE_0C60:
 73: 0x0C60 [0x38] SET_CLIENT_EVENT_MODE(mode=19*)
 74: 0x0C63 [0x1A] CALL_SUBROUTINE(address=0x4697)
 75: 0x0C66 [0x45] LOAD_SCHEDULED_TASK: Load scheduler "whi1" with entities [LocalPlayer, LocalPlayer], work=[201*, 0*]
 76: 0x0C77 [0x45] LOAD_SCHEDULED_TASK: Load scheduler "blof" with entities [LocalPlayer, LocalPlayer], work=[200*, 0*]
 77: 0x0C88 [0x5C] MUSIC_CONTROL: Set Idle (Day) music to song 0*
 78: 0x0C8C [0x5C] MUSIC_CONTROL: Set Idle (Night) music to song 0*
 79: 0x0C90 [0x5C] MUSIC_CONTROL: Set Combat (Solo) music to song 217*
 80: 0x0C94 [0x5C] MUSIC_CONTROL: Set Combat (Party) music to song 217*
 81: 0x0C98 [0x21] END_EVENT
 82: 0x0C99 [0x00] END_REQSTACK()
```

### Event 32001

#### Metadata

| Field        | Value     |
|--------------|-----------|
| Entrypoint   | 0x0C9A    |
| Data Size    | 819 bytes |
| Instructions | 136       |

```
      00 01 02 03 04 05 06 07  08 09 0A 0B 0C 0D 0E 0F
      -- -- -- -- -- -- -- --  -- -- -- -- -- -- -- --
0C90:                                79 00 F0 FF FF 7F            y.....
0CA0: F0 FF FF 7F 03 22 00 02  10 03 1B 00 03 10 03 1C  ....."..........
0CB0: 00 05 10 03 21 00 06 10  03 1A 00 07 10 03 18 00  ....!...........
0CC0: 08 10 03 1D 00 09 10 20  01 42 3B F0 FF FF 7F 25  ....... .B;....%
0CD0: 10 26 10 27 10 3A F0 FF  FF 7F 28 10 02 21 00 68  .&.'.:....(..!.h
0CE0: 80 01 E7 0C 1C 91 80 45  2D 80 F0 FF FF 7F F0 FF  .......E-.......
0CF0: FF 7F 77 68 69 31 04 80  45 42 80 F0 FF FF 7F F0  ..whi1..EB......
0D00: FF FF 7F 62 6C 6F 66 04  80 45 42 80 F0 FF FF 7F  ...blof..EB.....
0D10: F0 FF FF 7F 66 64 6F 31  04 80 55 42 80 F0 FF FF  ....fdo1..UB....
0D20: 7F F0 FF FF 7F 66 64 6F  31 6C F0 FF FF 7F 92 80  .....fdo1l......
0D30: 28 80 06 01 10 02 18 00  04 80 03 40 0D 01 04 0E  (..........@....
0D40: 02 21 00 68 80 80 CA 0D  02 22 00 04 80 80 5F 0D  .!.h....."...._.
0D50: 47 00 93 80 94 80 95 80  96 80 47 01 01 C7 0D 02  G.........G.....
0D60: 22 00 28 80 80 76 0D 47  00 97 80 98 80 99 80 9A  ".(..v.G........
0D70: 80 47 01 01 C7 0D 02 22  00 33 80 80 8D 0D 47 00  .G.....".3....G.
0D80: 9B 80 9C 80 9D 80 9E 80  47 01 01 C7 0D 02 22 00  ........G.....".
0D90: 3E 80 80 A4 0D 47 00 9F  80 A0 80 A1 80 A2 80 47  >....G.........G
0DA0: 01 01 C7 0D 02 22 00 3F  80 80 BB 0D 47 00 A3 80  .....".?....G...
0DB0: A4 80 A5 80 A6 80 47 01  01 C7 0D 47 00 A7 80 A8  ......G....G....
0DC0: 80 A9 80 AA 80 47 01 01  04 0E 02 21 00 AB 80 80  .....G.....!....
0DD0: F8 0D 02 1A 00 04 80 80  E9 0D 47 00 A7 80 A8 80  ..........G.....
0DE0: A9 80 AA 80 47 01 01 F5  0D 47 00 AC 80 AD 80 AE  ....G....G......
0DF0: 80 AF 80 47 01 01 04 0E  47 00 A7 80 A8 80 A9 80  ...G....G.......
0E00: AA 80 47 01 38 43 80 02  18 00 33 80 00 12 0E 01  ..G.8C....3.....
0E10: 2D 0E 02 18 00 28 80 00  DD 0E 1C 00 80 24 65 80  -....(.......$e.
0E20: 28 80 04 80 25 02 00 10  04 80 00 DD 0E 02 21 00  (...%.........!.
0E30: 68 80 00 99 0E 02 22 00  04 80 80 47 0E 36 93 80  h....."....G.6..
0E40: 94 80 95 80 01 96 0E 02  22 00 28 80 80 59 0E 36  ........".(..Y.6
0E50: 97 80 98 80 99 80 01 96  0E 02 22 00 33 80 80 6B  ..........".3..k
0E60: 0E 36 9B 80 9C 80 9D 80  01 96 0E 02 22 00 3E 80  .6..........".>.
0E70: 80 7D 0E 36 9F 80 A0 80  A1 80 01 96 0E 02 22 00  .}.6..........".
0E80: 3F 80 80 8F 0E 36 A3 80  A4 80 A5 80 01 96 0E 36  ?....6.........6
0E90: A7 80 A8 80 A9 80 01 A2  0E 37 A7 80 A8 80 A9 80  .........7......
0EA0: AA 80 80 F0 FF FF 7F 62  33 80 F0 FF FF 7F F0 FF  .......b3.......
0EB0: FF 7F 6D 61 69 6E 04 80  45 42 80 F0 FF FF 7F F0  ..main..EB......
0EC0: FF FF 7F 66 64 69 32 04  80 46 02 14 00 02 14 00  ...fdi2..F......
0ED0: 04 80 00 D7 0E 46 00 01  04 0F 01 DD 0E 02 18 00  .....F..........
0EE0: 3B 80 04 F6 0E 5C 00 66  80 5C 01 66 80 5C 02 66  ;....\.f.\.f.\.f
0EF0: 80 5C 03 66 80 9A 1A 9B  14 02 18 00 04 80 03 04  .\.f............
0F00: 0F 01 65 0F 03 05 10 1C  00 02 05 10 04 80 02 65  ..e............e
0F10: 0F 02 05 10 63 80 04 2C  0F 3F 04 10 05 10 63 80  ....c..,.?....c.
0F20: 15 05 10 63 80 48 B0 80  23 01 30 0F 48 B1 80 23  ...c.H..#.0.H..#
0F30: 02 1C 00 1B 00 05 44 0F  03 07 10 1A 00 48 B2 80  ......D......H..
0F40: 23 01 65 0F 02 1B 00 63  80 04 60 0F 03 05 10 1B  #.e....c..`.....
0F50: 00 3F 04 10 05 10 63 80  15 05 10 63 80 01 65 0F  .?....c....c..e.
0F60: 03 05 10 1B 00 02 19 00  04 80 00 7D 0F 5C 00 04  ...........}.\..
0F70: 80 5C 01 04 80 5C 02 66  80 5C 03 66 80 02 18 00  .\...\.f.\.f....
0F80: 04 80 03 A6 0F 45 42 80  F0 FF FF 7F F0 FF FF 7F  .....EB.........
0F90: 66 64 69 32 04 80 5C 00  04 80 5C 01 04 80 5C 02  fdi2..\...\...\.
0FA0: 66 80 5C 03 66 80 06 19  00 45 2D 80 F0 FF FF 7F  f.\.f....E-.....
0FB0: F0 FF FF 7F 77 68 69 31  04 80 45 42 80 F0 FF FF  ....whi1..EB....
0FC0: 7F F0 FF FF 7F 62 6C 6F  66 04 80 21 00           .....blof..!.   
```

#### Opcodes

```
  0: 0x0C9A [0x79] LocalPlayer looks at LocalPlayer (Basic look)
  1: 0x0CA4 [0x03] ExtData[1]->WorkLocal[34] = Work_Zone[2]
  2: 0x0CA9 [0x03] ExtData[1]->WorkLocal[27] = Work_Zone[3]
  3: 0x0CAE [0x03] ExtData[1]->WorkLocal[28] = Work_Zone[5]
  4: 0x0CB3 [0x03] ExtData[1]->WorkLocal[33] = Work_Zone[6]
  5: 0x0CB8 [0x03] ExtData[1]->WorkLocal[26] = Work_Zone[7]
  6: 0x0CBD [0x03] ExtData[1]->WorkLocal[24] = Work_Zone[8]
  7: 0x0CC2 [0x03] ExtData[1]->WorkLocal[29] = Work_Zone[9]
  8: 0x0CC7 [0x20] SET_CLI_EVENT_UC_FLAG: Lock player control
  9: 0x0CC9 [0x42] SET_CLI_EVENT_CANCEL_DATA()
 10: 0x0CCA [0x3B] GET_ENTITY_POSITION(entity=LocalPlayer, x_destination=Work_Zone[37], y_destination=Work_Zone[38], z_destination=Work_Zone[39])
 11: 0x0CD5 [0x3A] CONVERT_YAW_TO_BYTE(entity=LocalPlayer, result_destination=Work_Zone[40])
 12: 0x0CDC [0x02] IF !(ExtData[1]->WorkLocal[33] == 180*) GOTO 0x0CE7
 13: 0x0CE4 [0x1C] WAIT(300* ticks)
 14: 0x0CE7 [0x45] LOAD_SCHEDULED_TASK: Load scheduler "whi1" with entities [LocalPlayer, LocalPlayer], work=[201*, 0*]
 15: 0x0CF8 [0x45] LOAD_SCHEDULED_TASK: Load scheduler "blof" with entities [LocalPlayer, LocalPlayer], work=[200*, 0*]
 16: 0x0D09 [0x45] LOAD_SCHEDULED_TASK: Load scheduler "fdo1" with entities [LocalPlayer, LocalPlayer], work=[200*, 0*]
 17: 0x0D1A [0x55] WAIT_LOAD_SCHEDULER: Wait for scheduler "fdo1" with entities [LocalPlayer, LocalPlayer], work=200*
 18: 0x0D29 [0x6C] FADE_ENTITY_COLOR(entity_id=LocalPlayer, end_alpha=128*, fade_time=1*)
 19: 0x0D32 [0x06] Work_Zone[1] = 0
 20: 0x0D35 [0x02] IF !(ExtData[1]->WorkLocal[24] >= 0*) GOTO 0x0D40
 21: 0x0D3D [0x01] GOTO 0x0E04
 22: 0x0D40 [0x02] IF !(ExtData[1]->WorkLocal[33] == 180*) GOTO 0x0DCA
 23: 0x0D48 [0x02] IF !(ExtData[1]->WorkLocal[34] == 0*) GOTO 0x0D5F
 24: 0x0D50 [0x47] UPDATE_PLAYER_POS(-618.329*, -643.868*, -25.805*, yaw=330.5°*)
 25: 0x0D5A [0x47] WAIT_PLAYER_POS_UPDATE
 26: 0x0D5C [0x01] GOTO 0x0DC7
 27: 0x0D5F [0x02] IF !(ExtData[1]->WorkLocal[34] == 1*) GOTO 0x0D76
 28: 0x0D67 [0x47] UPDATE_PLAYER_POS(-332.163*, -441.914*, -95.055*, yaw=330.5°*)
 29: 0x0D71 [0x47] WAIT_PLAYER_POS_UPDATE
 30: 0x0D73 [0x01] GOTO 0x0DC7
 31: 0x0D76 [0x02] IF !(ExtData[1]->WorkLocal[34] == 2*) GOTO 0x0D8D
 32: 0x0D7E [0x47] UPDATE_PLAYER_POS(-12.464*, -648.377*, -194.629*, yaw=331.3°*)
 33: 0x0D88 [0x47] WAIT_PLAYER_POS_UPDATE
 34: 0x0D8A [0x01] GOTO 0x0DC7
 35: 0x0D8D [0x02] IF !(ExtData[1]->WorkLocal[34] == 3*) GOTO 0x0DA4
 36: 0x0D95 [0x47] UPDATE_PLAYER_POS(323.381*, -443.793*, -108.440*, yaw=329.1°*)
 37: 0x0D9F [0x47] WAIT_PLAYER_POS_UPDATE
 38: 0x0DA1 [0x01] GOTO 0x0DC7
 39: 0x0DA4 [0x02] IF !(ExtData[1]->WorkLocal[34] == 4*) GOTO 0x0DBB
 40: 0x0DAC [0x47] UPDATE_PLAYER_POS(599.907*, -676.969*, -22.473*, yaw=330.7°*)
 41: 0x0DB6 [0x47] WAIT_PLAYER_POS_UPDATE
 42: 0x0DB8 [0x01] GOTO 0x0DC7
 43: 0x0DBB [0x47] UPDATE_PLAYER_POS(-260.440*, -156.652*, 0.134*, yaw=270.0°*)
 44: 0x0DC5 [0x47] WAIT_PLAYER_POS_UPDATE

SUBROUTINE_0DC7:
 45: 0x0DC7 [0x01] GOTO 0x0E04
 46: 0x0DCA [0x02] IF !(ExtData[1]->WorkLocal[33] == 168*) GOTO 0x0DF8
 47: 0x0DD2 [0x02] IF !(ExtData[1]->WorkLocal[26] == 0*) GOTO 0x0DE9
 48: 0x0DDA [0x47] UPDATE_PLAYER_POS(-260.440*, -156.652*, 0.134*, yaw=270.0°*)
 49: 0x0DE4 [0x47] WAIT_PLAYER_POS_UPDATE
 50: 0x0DE6 [0x01] GOTO 0x0DF5
 51: 0x0DE9 [0x47] UPDATE_PLAYER_POS(200.059*, -21.958*, -0.250*, yaw=91.5°*)
 52: 0x0DF3 [0x47] WAIT_PLAYER_POS_UPDATE

SUBROUTINE_0DF5:
 53: 0x0DF5 [0x01] GOTO 0x0E04
 54: 0x0DF8 [0x47] UPDATE_PLAYER_POS(-260.440*, -156.652*, 0.134*, yaw=270.0°*)
 55: 0x0E02 [0x47] WAIT_PLAYER_POS_UPDATE

SUBROUTINE_0E04:
 56: 0x0E04 [0x38] SET_CLIENT_EVENT_MODE(mode=19*)
 57: 0x0E07 [0x02] IF !(ExtData[1]->WorkLocal[24] == 2*) GOTO 0x0E12
 58: 0x0E0F [0x01] GOTO 0x0E2D
 59: 0x0E12 [0x02] IF !(ExtData[1]->WorkLocal[24] == 1*) GOTO 0x0EDD
 60: 0x0E1A [0x1C] WAIT(15* ticks)
 61: 0x0E1D [0x24] CREATE_DIALOG(message_id=8029*, default_option=1*, option_flags=0*)
    → "Skip the event? [Yes./No.]"
 62: 0x0E24 [0x25] WAIT_DIALOG_SELECT()
 63: 0x0E25 [0x02] IF !(Work_Zone[0] == 0*) GOTO 0x0EDD

SUBROUTINE_0E2D:
 64: 0x0E2D [0x02] IF !(ExtData[1]->WorkLocal[33] == 180*) GOTO 0x0E99
 65: 0x0E35 [0x02] IF !(ExtData[1]->WorkLocal[34] == 0*) GOTO 0x0E47
 66: 0x0E3D [0x36] SET_ENTITY_EVENT_POSITION(pos_x=-618.329*, pos_z=-643.868*, pos_y=-25.805*)
 67: 0x0E44 [0x01] GOTO 0x0E96
 68: 0x0E47 [0x02] IF !(ExtData[1]->WorkLocal[34] == 1*) GOTO 0x0E59
 69: 0x0E4F [0x36] SET_ENTITY_EVENT_POSITION(pos_x=-332.163*, pos_z=-441.914*, pos_y=-95.055*)
 70: 0x0E56 [0x01] GOTO 0x0E96
 71: 0x0E59 [0x02] IF !(ExtData[1]->WorkLocal[34] == 2*) GOTO 0x0E6B
 72: 0x0E61 [0x36] SET_ENTITY_EVENT_POSITION(pos_x=-12.464*, pos_z=-648.377*, pos_y=-194.629*)
 73: 0x0E68 [0x01] GOTO 0x0E96
 74: 0x0E6B [0x02] IF !(ExtData[1]->WorkLocal[34] == 3*) GOTO 0x0E7D
 75: 0x0E73 [0x36] SET_ENTITY_EVENT_POSITION(pos_x=323.381*, pos_z=-443.793*, pos_y=-108.440*)
 76: 0x0E7A [0x01] GOTO 0x0E96
 77: 0x0E7D [0x02] IF !(ExtData[1]->WorkLocal[34] == 4*) GOTO 0x0E8F
 78: 0x0E85 [0x36] SET_ENTITY_EVENT_POSITION(pos_x=599.907*, pos_z=-676.969*, pos_y=-22.473*)
 79: 0x0E8C [0x01] GOTO 0x0E96
 80: 0x0E8F [0x36] SET_ENTITY_EVENT_POSITION(pos_x=-260.440*, pos_z=-156.652*, pos_y=0.134*)

SUBROUTINE_0E96:
 81: 0x0E96 [0x01] GOTO 0x0EA2
 82: 0x0E99 [0x37] UPDATE_EVENT_POSITION_AND_DIR: x=-260.440*, z=-156.652*, y=0.134*, direction=270.0°*

SUBROUTINE_0EA2:
 83: 0x0EA2 [0x80] LOAD_WAIT(entity=LocalPlayer)
 84: 0x0EA7 [0x62] LOAD_EVENT_SCHEDULER: Load scheduler "main" with entities [LocalPlayer, LocalPlayer], work=[2*, 0*]
 85: 0x0EB8 [0x45] LOAD_SCHEDULED_TASK: Load scheduler "fdi2" with entities [LocalPlayer, LocalPlayer], work=[200*, 0*]
 86: 0x0EC9 [0x46] CAMERA_CONTROL: Query status
 87: 0x0ECB [0x14] 0x0200 *= ExtData[1]->WorkLocal[20]
 88: 0x0ED0 [0x04] DEPRECATED_NOP(unused=0x80)
 89: 0x0ED3 [0xD7] END_LOAD_SCHEDULER_ALT6: End scheduler 0x803B0018 with entities [Unknown NPC (ID: 251920640/0x0F040100), Unknown NPC (ID: 34528513/0x020EDD01)], work=0x460E
 90: 0x0EE2 [0x04] DEPRECATED_NOP(unused=0x0EF6)
 91: 0x0EE5 [0x5C] MUSIC_CONTROL: Set Idle (Day) music to song 217*
 92: 0x0EE9 [0x5C] MUSIC_CONTROL: Set Idle (Night) music to song 217*
 93: 0x0EED [0x5C] MUSIC_CONTROL: Set Combat (Solo) music to song 217*
 94: 0x0EF1 [0x5C] MUSIC_CONTROL: Set Combat (Party) music to song 217*
 95: 0x0EF5 [0x9A] WAIT_MUSIC_SERVER()
 96: 0x0EF6 [0x1A] CALL_SUBROUTINE(address=0x149B)
 97: 0x0EF9 [0x02] IF !(ExtData[1]->WorkLocal[24] >= 0*) GOTO 0x0F04
 98: 0x0F01 [0x01] GOTO 0x0F65
 99: 0x0F04 [0x03] Work_Zone[5] = ExtData[1]->WorkLocal[28]
100: 0x0F09 [0x02] IF !(Work_Zone[5] <= 0*) GOTO 0x0F65
101: 0x0F11 [0x02] IF !(Work_Zone[5] < 60*) GOTO 0x0F2C
102: 0x0F19 [0x3F] Work_Zone[4] = Work_Zone[5] % 60*
103: 0x0F20 [0x15] Work_Zone[5] /= 60*
104: 0x0F25 [0x48] [System] [8031*]:
    → "Battlefield clear time: $3 minute[/s], $2 second[/s]!"
105: 0x0F28 [0x23] WAIT_FOR_DIALOG_INTERACTION
106: 0x0F29 [0x01] GOTO 0x0F30
107: 0x0F2C [0x48] [System] [8030*]:
    → "Battlefield clear time: $3 second[/s]!"
108: 0x0F2F [0x23] WAIT_FOR_DIALOG_INTERACTION

SUBROUTINE_0F30:
109: 0x0F30 [0x02] IF !(ExtData[1]->WorkLocal[28] > ExtData[1]->WorkLocal[27]) GOTO 0x0F44
110: 0x0F38 [0x03] Work_Zone[7] = ExtData[1]->WorkLocal[26]
111: 0x0F3D [0x48] [System] [8066*]:
    → "You have broken the clear time record for "[Splitting Heirs (S)/Purple, The New Black/The Blood-bathed Crown]"!"
112: 0x0F40 [0x23] WAIT_FOR_DIALOG_INTERACTION
113: 0x0F41 [0x01] GOTO 0x0F65
114: 0x0F44 [0x02] IF !(ExtData[1]->WorkLocal[27] < 60*) GOTO 0x0F60
115: 0x0F4C [0x03] Work_Zone[5] = ExtData[1]->WorkLocal[27]
116: 0x0F51 [0x3F] Work_Zone[4] = Work_Zone[5] % 60*
117: 0x0F58 [0x15] Work_Zone[5] /= 60*
118: 0x0F5D [0x01] GOTO 0x0F65
119: 0x0F60 [0x03] Work_Zone[5] = ExtData[1]->WorkLocal[27]

SUBROUTINE_0F65:
120: 0x0F65 [0x02] IF !(ExtData[1]->WorkLocal[25] == 0*) GOTO 0x0F7D
121: 0x0F6D [0x5C] MUSIC_CONTROL: Set Idle (Day) music to song 0*
122: 0x0F71 [0x5C] MUSIC_CONTROL: Set Idle (Night) music to song 0*
123: 0x0F75 [0x5C] MUSIC_CONTROL: Set Combat (Solo) music to song 217*
124: 0x0F79 [0x5C] MUSIC_CONTROL: Set Combat (Party) music to song 217*
125: 0x0F7D [0x02] IF !(ExtData[1]->WorkLocal[24] >= 0*) GOTO 0x0FA6
126: 0x0F85 [0x45] LOAD_SCHEDULED_TASK: Load scheduler "fdi2" with entities [LocalPlayer, LocalPlayer], work=[200*, 0*]
127: 0x0F96 [0x5C] MUSIC_CONTROL: Set Idle (Day) music to song 0*
128: 0x0F9A [0x5C] MUSIC_CONTROL: Set Idle (Night) music to song 0*
129: 0x0F9E [0x5C] MUSIC_CONTROL: Set Combat (Solo) music to song 217*
130: 0x0FA2 [0x5C] MUSIC_CONTROL: Set Combat (Party) music to song 217*
131: 0x0FA6 [0x06] ExtData[1]->WorkLocal[25] = 0
132: 0x0FA9 [0x45] LOAD_SCHEDULED_TASK: Load scheduler "whi1" with entities [LocalPlayer, LocalPlayer], work=[201*, 0*]
133: 0x0FBA [0x45] LOAD_SCHEDULED_TASK: Load scheduler "blof" with entities [LocalPlayer, LocalPlayer], work=[200*, 0*]
134: 0x0FCB [0x21] END_EVENT
135: 0x0FCC [0x00] END_REQSTACK()
```

### Event 32003

#### Metadata

| Field        | Value     |
|--------------|-----------|
| Entrypoint   | 0x0FCD    |
| Data Size    | 435 bytes |
| Instructions | 77        |

```
      00 01 02 03 04 05 06 07  08 09 0A 0B 0C 0D 0E 0F
      -- -- -- -- -- -- -- --  -- -- -- -- -- -- -- --
0FC0:                                         06 1E 00               ...
0FD0: 06 1F 00 03 22 00 06 10  03 21 00 07 10 03 20 00  ...."....!.... .
0FE0: 08 10 06 01 10 1A E5 45  02 1E 00 28 80 00 7E 11  .......E...(..~.
0FF0: 42 03 01 10 33 80 43 00  43 01 03 01 10 3E 80 43  B...3.C.C....>.C
1000: 00 43 01 1A FC 45 02 1F  00 28 80 00 7E 11 45 42  .C...E...(..~.EB
1010: 80 F0 FF FF 7F F0 FF FF  7F 66 64 6F 31 04 80 55  .........fdo1..U
1020: 42 80 F0 FF FF 7F F0 FF  FF 7F 66 64 6F 31 03 01  B.........fdo1..
1030: 10 3F 80 02 21 00 68 80  80 BD 10 02 22 00 04 80  .?..!.h....."...
1040: 80 52 10 47 00 69 80 6A  80 6B 80 6C 80 47 01 01  .R.G.i.j.k.l.G..
1050: BA 10 02 22 00 28 80 80  69 10 47 00 6D 80 6E 80  ...".(..i.G.m.n.
1060: 6F 80 70 80 47 01 01 BA  10 02 22 00 33 80 80 80  o.p.G.....".3...
1070: 10 47 00 71 80 72 80 73  80 74 80 47 01 01 BA 10  .G.q.r.s.t.G....
1080: 02 22 00 3E 80 80 97 10  47 00 75 80 76 80 77 80  .".>....G.u.v.w.
1090: 78 80 47 01 01 BA 10 02  22 00 3F 80 80 AE 10 47  x.G.....".?....G
10A0: 00 79 80 7A 80 7B 80 7C  80 47 01 01 BA 10 47 00  .y.z.{.|.G....G.
10B0: 7D 80 7E 80 7F 80 80 80  47 01 01 3C 11 02 21 00  }.~.....G..<..!.
10C0: 55 80 80 30 11 02 20 00  28 80 80 DC 10 47 00 81  U..0.. .(....G..
10D0: 80 82 80 83 80 84 80 47  01 01 2D 11 02 20 00 33  .......G..-.. .3
10E0: 80 80 F3 10 47 00 85 80  86 80 87 80 88 80 47 01  ....G.........G.
10F0: 01 2D 11 02 20 00 3E 80  80 0A 11 47 00 89 80 8A  .-.. .>....G....
1100: 80 8B 80 8C 80 47 01 01  2D 11 02 20 00 3F 80 80  .....G..-.. .?..
1110: 21 11 47 00 8D 80 8E 80  8F 80 90 80 47 01 01 2D  !.G.........G..-
1120: 11 47 00 7D 80 7E 80 7F  80 80 80 47 01 01 3C 11  .G.}.~.....G..<.
1130: 47 00 7D 80 7E 80 7F 80  80 80 47 01 38 43 80 79  G.}.~.....G.8C.y
1140: 00 F0 FF FF 7F F0 FF FF  7F 1A 00 46 45 2D 80 F0  ...........FE-..
1150: FF FF 7F F0 FF FF 7F 77  68 69 31 04 80 45 42 80  .......whi1..EB.
1160: F0 FF FF 7F F0 FF FF 7F  62 6C 6F 66 04 80 5C 00  ........blof..\.
1170: 04 80 5C 01 04 80 5C 02  66 80 5C 03 66 80 21 00  ..\...\.f.\.f.!.
```

#### Opcodes

```
  0: 0x0FCD [0x06] ExtData[1]->WorkLocal[30] = 0
  1: 0x0FD0 [0x06] ExtData[1]->WorkLocal[31] = 0
  2: 0x0FD3 [0x03] ExtData[1]->WorkLocal[34] = Work_Zone[6]
  3: 0x0FD8 [0x03] ExtData[1]->WorkLocal[33] = Work_Zone[7]
  4: 0x0FDD [0x03] ExtData[1]->WorkLocal[32] = Work_Zone[8]
  5: 0x0FE2 [0x06] Work_Zone[1] = 0
  6: 0x0FE5 [0x1A] CALL_SUBROUTINE(address=0x45E5)
  7: 0x0FE8 [0x02] IF !(ExtData[1]->WorkLocal[30] == 1*) GOTO 0x117E
  8: 0x0FF0 [0x42] SET_CLI_EVENT_CANCEL_DATA()
  9: 0x0FF1 [0x03] Work_Zone[1] = 2*
 10: 0x0FF6 [0x43] SEND_EVENT_UPDATE: Send pending tag to server (packet 0x005B)
 11: 0x0FF8 [0x43] SEND_EVENT_UPDATE: Check pending flag (skip if not pending)
 12: 0x0FFA [0x03] Work_Zone[1] = 3*
 13: 0x0FFF [0x43] SEND_EVENT_UPDATE: Send pending tag to server (packet 0x005B)
 14: 0x1001 [0x43] SEND_EVENT_UPDATE: Check pending flag (skip if not pending)
 15: 0x1003 [0x1A] CALL_SUBROUTINE(address=0x45FC)
 16: 0x1006 [0x02] IF !(ExtData[1]->WorkLocal[31] == 1*) GOTO 0x117E
 17: 0x100E [0x45] LOAD_SCHEDULED_TASK: Load scheduler "fdo1" with entities [LocalPlayer, LocalPlayer], work=[200*, 0*]
 18: 0x101F [0x55] WAIT_LOAD_SCHEDULER: Wait for scheduler "fdo1" with entities [LocalPlayer, LocalPlayer], work=200*
 19: 0x102E [0x03] Work_Zone[1] = 4*
 20: 0x1033 [0x02] IF !(ExtData[1]->WorkLocal[33] == 180*) GOTO 0x10BD
 21: 0x103B [0x02] IF !(ExtData[1]->WorkLocal[34] == 0*) GOTO 0x1052
 22: 0x1043 [0x47] UPDATE_PLAYER_POS(-605.141*, 479.929*, -22.681*, yaw=87.2°*)
 23: 0x104D [0x47] WAIT_PLAYER_POS_UPDATE
 24: 0x104F [0x01] GOTO 0x10BA
 25: 0x1052 [0x02] IF !(ExtData[1]->WorkLocal[34] == 1*) GOTO 0x1069
 26: 0x105A [0x47] UPDATE_PLAYER_POS(-262.589*, 377.857*, -137.313*, yaw=305.3°*)
 27: 0x1064 [0x47] WAIT_PLAYER_POS_UPDATE
 28: 0x1066 [0x01] GOTO 0x10BA
 29: 0x1069 [0x02] IF !(ExtData[1]->WorkLocal[34] == 2*) GOTO 0x1080
 30: 0x1071 [0x47] UPDATE_PLAYER_POS(18.348*, 486.940*, -224.334*, yaw=17.1°*)
 31: 0x107B [0x47] WAIT_PLAYER_POS_UPDATE
 32: 0x107D [0x01] GOTO 0x10BA
 33: 0x1080 [0x02] IF !(ExtData[1]->WorkLocal[34] == 3*) GOTO 0x1097
 34: 0x1088 [0x47] UPDATE_PLAYER_POS(231.593*, 360.094*, -173.572*, yaw=160.8°*)
 35: 0x1092 [0x47] WAIT_PLAYER_POS_UPDATE
 36: 0x1094 [0x01] GOTO 0x10BA
 37: 0x1097 [0x02] IF !(ExtData[1]->WorkLocal[34] == 4*) GOTO 0x10AE
 38: 0x109F [0x47] UPDATE_PLAYER_POS(553.664*, 523.939*, -38.205*, yaw=233.9°*)
 39: 0x10A9 [0x47] WAIT_PLAYER_POS_UPDATE
 40: 0x10AB [0x01] GOTO 0x10BA
 41: 0x10AE [0x47] UPDATE_PLAYER_POS(-106.834*, -181.366*, -0.039*, yaw=360.0°*)
 42: 0x10B8 [0x47] WAIT_PLAYER_POS_UPDATE

SUBROUTINE_10BA:
 43: 0x10BA [0x01] GOTO 0x113C
 44: 0x10BD [0x02] IF !(ExtData[1]->WorkLocal[33] == 6*) GOTO 0x1130
 45: 0x10C5 [0x02] IF !(ExtData[1]->WorkLocal[32] == 1*) GOTO 0x10DC
 46: 0x10CD [0x47] UPDATE_PLAYER_POS(-875.117*, -43.892*, -48.084*, yaw=45.1°*)
 47: 0x10D7 [0x47] WAIT_PLAYER_POS_UPDATE
 48: 0x10D9 [0x01] GOTO 0x112D
 49: 0x10DC [0x02] IF !(ExtData[1]->WorkLocal[32] == 2*) GOTO 0x10F3
 50: 0x10E4 [0x47] UPDATE_PLAYER_POS(-755.499*, 563.947*, -112.035*, yaw=313.5°*)
 51: 0x10EE [0x47] WAIT_PLAYER_POS_UPDATE
 52: 0x10F0 [0x01] GOTO 0x112D
 53: 0x10F3 [0x02] IF !(ExtData[1]->WorkLocal[32] == 3*) GOTO 0x110A
 54: 0x10FB [0x47] UPDATE_PLAYER_POS(123.251*, 754.209*, -172.124*, yaw=38.7°*)
 55: 0x1105 [0x47] WAIT_PLAYER_POS_UPDATE
 56: 0x1107 [0x01] GOTO 0x112D
 57: 0x110A [0x02] IF !(ExtData[1]->WorkLocal[32] == 4*) GOTO 0x1121
 58: 0x1112 [0x47] UPDATE_PLAYER_POS(-516.404*, -803.323*, 24.206*, yaw=38.4°*)
 59: 0x111C [0x47] WAIT_PLAYER_POS_UPDATE
 60: 0x111E [0x01] GOTO 0x112D
 61: 0x1121 [0x47] UPDATE_PLAYER_POS(-106.834*, -181.366*, -0.039*, yaw=360.0°*)
 62: 0x112B [0x47] WAIT_PLAYER_POS_UPDATE

SUBROUTINE_112D:
 63: 0x112D [0x01] GOTO 0x113C
 64: 0x1130 [0x47] UPDATE_PLAYER_POS(-106.834*, -181.366*, -0.039*, yaw=360.0°*)
 65: 0x113A [0x47] WAIT_PLAYER_POS_UPDATE

SUBROUTINE_113C:
 66: 0x113C [0x38] SET_CLIENT_EVENT_MODE(mode=19*)
 67: 0x113F [0x79] LocalPlayer looks at LocalPlayer (Basic look)
 68: 0x1149 [0x1A] CALL_SUBROUTINE(address=0x4600)
 69: 0x114C [0x45] LOAD_SCHEDULED_TASK: Load scheduler "whi1" with entities [LocalPlayer, LocalPlayer], work=[201*, 0*]
 70: 0x115D [0x45] LOAD_SCHEDULED_TASK: Load scheduler "blof" with entities [LocalPlayer, LocalPlayer], work=[200*, 0*]
 71: 0x116E [0x5C] MUSIC_CONTROL: Set Idle (Day) music to song 0*
 72: 0x1172 [0x5C] MUSIC_CONTROL: Set Idle (Night) music to song 0*
 73: 0x1176 [0x5C] MUSIC_CONTROL: Set Combat (Solo) music to song 217*
 74: 0x117A [0x5C] MUSIC_CONTROL: Set Combat (Party) music to song 217*
 75: 0x117E [0x21] END_EVENT
 76: 0x117F [0x00] END_REQSTACK()
```

### Event 32004

#### Metadata

| Field        | Value   |
|--------------|---------|
| Entrypoint   | 0x1180  |
| Data Size    | 2 bytes |
| Instructions | 2       |

```
      00 01 02 03 04 05 06 07  08 09 0A 0B 0C 0D 0E 0F
      -- -- -- -- -- -- -- --  -- -- -- -- -- -- -- --
1180: 21 00                                             !.              
```

#### Opcodes

```
  0: 0x1180 [0x21] END_EVENT
  1: 0x1181 [0x00] END_REQSTACK()
```

### Event 65535.20

#### Metadata

| Field        | Value     |
|--------------|-----------|
| Entrypoint   | 0x1182    |
| Data Size    | 937 bytes |
| Instructions | 3         |

```
      00 01 02 03 04 05 06 07  08 09 0A 0B 0C 0D 0E 0F
      -- -- -- -- -- -- -- --  -- -- -- -- -- -- -- --
1180:       33 01 37 B3 80 B4  80 B5 80 B6 80 00 24 40    3.7.........$@
1190: 80 28 80 04 80 25 02 00  10 04 80 00 A4 11 05 03  .(...%..........
11A0: 00 01 A4 11 1B 79 00 F0  FF FF 7F F0 FF FF 7F 42  .....y.........B
11B0: 46 01 02 05 00 28 80 80  C0 11 1A 41 12 01 0C 12  F....(.....A....
