# 17834373

## Common Data

| Field            | Value                    |
|------------------|--------------------------|
| Zone             | Rala Waterways (ID: 258) |
| Block Size       | 8340 bytes               |
| Total Events     | 3                        |
| References Count | 186                      |

## List of Events

| Event ID              | Entrypoint   |   Size |   Instructions |
|-----------------------|--------------|--------|----------------|
| [65535](#event-65535) | 0x0000       |      1 |              1 |
| [381](#event-381)     | 0x0001       |   3857 |            418 |
| [382](#event-382)     | 0x0F12       |   3710 |            442 |

## DAT References (imed_data)

|   Index | Hex Value   |   Dec Value |
|---------|-------------|-------------|
|       0 | 0x00C8      |         200 |
|       1 | 0x0000      |           0 |
|       2 | 0x001B      |          27 |
|       3 | 0x0005      |           5 |
|       4 | 0x0006      |           6 |
|       5 | 0x0007      |           7 |
|       6 | 0x0008      |           8 |
|       7 | 0xFFF73B71  |  4294392689 |
|       8 | 0x5212      |       21010 |
|       9 | 0xFFFFE2B4  |  4294959796 |
|      10 | 0x081A      |        2074 |
|      11 | 0xFFF7121C  |  4294382108 |
|      12 | 0x4E23      |       20003 |
|      13 | 0xFFFFDECC  |  4294958796 |
|      14 | 0x0FEE      |        4078 |
|      15 | 0xFFF738EA  |  4294392042 |
|      16 | 0x49EE      |       18926 |
|      17 | 0x0843      |        2115 |
|      18 | 0xFFF48E50  |  4294217296 |
|      19 | 0x0003      |           3 |
|      20 | 0xFFF722CC  |  4294386380 |
|      21 | 0x4940      |       18752 |
|      22 | 0xFFFFDE05  |  4294958597 |
|      23 | 0x0C39      |        3129 |
|      24 | 0x0004      |           4 |
|      25 | 0xFFFFE189  |  4294959497 |
|      26 | 0xFFFFDF31  |  4294958897 |
|      27 | 0xFFFFDECD  |  4294958797 |
|      28 | 0x001E      |          30 |
|      29 | 0x000A      |          10 |
|      30 | 0x0300      |         768 |
|      31 | 0x000F      |          15 |
|      32 | 0x0096      |         150 |
|      33 | 0x0E01      |        3585 |
|      34 | 0x22E3      |        8931 |
|      35 | 0x0032      |          50 |
|      36 | 0xFFF72329  |  4294386473 |
|      37 | 0x529D      |       21149 |
|      38 | 0x079E      |        1950 |
|      39 | 0xFFF72243  |  4294386243 |
|      40 | 0x4989      |       18825 |
|      41 | 0xFFFFE2B5  |  4294959797 |
|      42 | 0x08B6      |        2230 |
|      43 | 0x0C90      |        3216 |
|      44 | 0x0D82      |        3458 |
|      45 | 0x0064      |         100 |
|      46 | 0x0001      |           1 |
|      47 | 0x22E4      |        8932 |
|      48 | 0x22E5      |        8933 |
|      49 | 0x0D83      |        3459 |
|      50 | 0x22E6      |        8934 |
|      51 | 0x22E7      |        8935 |
|      52 | 0x0DFC      |        3580 |
|      53 | 0x00B4      |         180 |
|      54 | 0x22E8      |        8936 |
|      55 | 0x22E9      |        8937 |
|      56 | 0x22EA      |        8938 |
|      57 | 0x22EB      |        8939 |
|      58 | 0x22EC      |        8940 |
|      59 | 0x22ED      |        8941 |
|      60 | 0x22EE      |        8942 |
|      61 | 0x0DFB      |        3579 |
|      62 | 0x22EF      |        8943 |
|      63 | 0x005A      |          90 |
|      64 | 0x22F0      |        8944 |
|      65 | 0x22F1      |        8945 |
|      66 | 0x0E19      |        3609 |
|      67 | 0x0104      |         260 |
|      68 | 0x22F2      |        8946 |
|      69 | 0x22F3      |        8947 |
|      70 | 0x22F4      |        8948 |
|      71 | 0x0DFF      |        3583 |
|      72 | 0x00AA      |         170 |
|      73 | 0x22F5      |        8949 |
|      74 | 0x22F6      |        8950 |
|      75 | 0x0DCA      |        3530 |
|      76 | 0x22F7      |        8951 |
|      77 | 0x22F8      |        8952 |
|      78 | 0x22F9      |        8953 |
|      79 | 0x003C      |          60 |
|      80 | 0x0DFD      |        3581 |
|      81 | 0x22FA      |        8954 |
|      82 | 0x22FB      |        8955 |
|      83 | 0x22FC      |        8956 |
|      84 | 0x22FD      |        8957 |
|      85 | 0x0066      |         102 |
|      86 | 0x0F26      |        3878 |
|      87 | 0x0067      |         103 |
|      88 | 0x22FE      |        8958 |
|      89 | 0x22FF      |        8959 |
|      90 | 0x2300      |        8960 |
|      91 | 0xFFF72268  |  4294386280 |
|      92 | 0x4986      |       18822 |
|      93 | 0x0002      |           2 |
|      94 | 0x2301      |        8961 |
|      95 | 0x2302      |        8962 |
|      96 | 0x2303      |        8963 |
|      97 | 0x2304      |        8964 |
|      98 | 0x2305      |        8965 |
|      99 | 0x0E1B      |        3611 |
|     100 | 0x0009      |           9 |
|     101 | 0x0168      |         360 |
|     102 | 0x0CA3      |        3235 |
|     103 | 0x0078      |         120 |
|     104 | 0x2306      |        8966 |
|     105 | 0x2307      |        8967 |
|     106 | 0x0050      |          80 |
|     107 | 0x0EF9      |        3833 |
|     108 | 0x0075      |         117 |
|     109 | 0x00C9      |         201 |
|     110 | 0x0028      |          40 |
|     111 | 0x2308      |        8968 |
|     112 | 0x2309      |        8969 |
|     113 | 0x230A      |        8970 |
|     114 | 0x230B      |        8971 |
|     115 | 0x230C      |        8972 |
|     116 | 0x230D      |        8973 |
|     117 | 0x0014      |          20 |
|     118 | 0xFFF723D8  |  4294386648 |
|     119 | 0x4E52      |       20050 |
|     120 | 0x081F      |        2079 |
|     121 | 0x0044      |          68 |
|     122 | 0x031B      |         795 |
|     123 | 0x230E      |        8974 |
|     124 | 0x230F      |        8975 |
|     125 | 0x2310      |        8976 |
|     126 | 0x2311      |        8977 |
|     127 | 0x0E1C      |        3612 |
|     128 | 0x2312      |        8978 |
|     129 | 0x2313      |        8979 |
|     130 | 0x2314      |        8980 |
|     131 | 0x2315      |        8981 |
|     132 | 0x0016      |          22 |
|     133 | 0x0020      |          32 |
|     134 | 0x2316      |        8982 |
|     135 | 0x2317      |        8983 |
|     136 | 0x1ED9      |        7897 |
|     137 | 0x0091      |         145 |
|     138 | 0x0D1D      |        3357 |
|     139 | 0x0031      |          49 |
|     140 | 0x2318      |        8984 |
|     141 | 0x01A4      |         420 |
|     142 | 0x0E1D      |        3613 |
|     143 | 0x0F08      |        3848 |
|     144 | 0x2319      |        8985 |
|     145 | 0x231A      |        8986 |
|     146 | 0x231B      |        8987 |
|     147 | 0x004A      |          74 |
|     148 | 0x0F0D      |        3853 |
|     149 | 0x012C      |         300 |
|     150 | 0x00AC      |         172 |
|     151 | 0x0010      |          16 |
|     152 | 0x231C      |        8988 |
|     153 | 0x231D      |        8989 |
|     154 | 0x231E      |        8990 |
|     155 | 0x231F      |        8991 |
|     156 | 0x2320      |        8992 |
|     157 | 0x00F0      |         240 |
|     158 | 0x00A0      |         160 |
|     159 | 0xFFFFFF56  |  4294967126 |
|     160 | 0x03E8      |        1000 |
|     161 | 0x0514      |        1300 |
|     162 | 0x2321      |        8993 |
|     163 | 0x2322      |        8994 |
|     164 | 0xFFFFFF54  |  4294967124 |
|     165 | 0x2323      |        8995 |
|     166 | 0x2324      |        8996 |
|     167 | 0xA1220     |      660000 |
|     168 | 0x55730     |      350000 |
|     169 | 0x2325      |        8997 |
|     170 | 0x2326      |        8998 |
|     171 | 0x0046      |          70 |
|     172 | 0x2327      |        8999 |
|     173 | 0x2328      |        9000 |
|     174 | 0x2329      |        9001 |
|     175 | 0x232A      |        9002 |
|     176 | 0x232B      |        9003 |
|     177 | 0x232C      |        9004 |
|     178 | 0x0E20      |        3616 |
|     179 | 0x0E1A      |        3610 |
|     180 | 0x232D      |        9005 |
|     181 | 0x232E      |        9006 |
|     182 | 0x01E0      |         480 |
|     183 | 0x003D      |          61 |
|     184 | 0x002D      |          45 |
|     185 | 0x00D7      |         215 |

## String References

- **7897**: 
- **8981**: How do you respond? ["Void"?/With a capital "V"?/Meaning that there's nothing?]

## Events

### Event 65535

#### Metadata

| Field        | Value   |
|--------------|---------|
| Entrypoint   | 0x0000  |
| Data Size    | 1 bytes |
| Instructions | 1       |

```
      00 01 02 03 04 05 06 07  08 09 0A 0B 0C 0D 0E 0F
      -- -- -- -- -- -- -- --  -- -- -- -- -- -- -- --
0000: 00                                                .               
```

#### Opcodes

```
  0: 0x0000 [0x00] END_REQSTACK()
```

### Event 381

#### Metadata

| Field        | Value      |
|--------------|------------|
| Entrypoint   | 0x0001     |
| Data Size    | 3857 bytes |
| Instructions | 418        |

```
      00 01 02 03 04 05 06 07  08 09 0A 0B 0C 0D 0E 0F
      -- -- -- -- -- -- -- --  -- -- -- -- -- -- -- --
0000:    42 03 00 00 02 10 45  00 80 F8 FF FF 7F F8 FF   B.....E........
0010: FF 7F 66 64 6F 31 01 80  55 00 80 F8 FF FF 7F F8  ..fdo1..U.......
0020: FF FF 7F 66 64 6F 31 46  01 38 02 80 2F 00 6D 21  ...fdo1F.8../.m!
0030: 10 01 2F 00 73 21 10 01  2F 00 86 21 10 01 2F 00  ../.s!../..!../.
0040: 87 21 10 01 4E 00 6D 21  10 01 4E 00 86 21 10 01  .!..N.m!..N..!..
0050: 4E 00 87 21 10 01 92 01  73 21 10 01 92 01 6D 21  N..!....s!....m!
0060: 10 01 94 01 73 21 10 01  94 01 6D 21 10 01 94 01  ....s!....m!....
0070: F0 FF FF 7F 94 01 86 21  10 01 94 01 87 21 10 01  .......!.....!..
0080: 59 05 87 21 10 01 01 59  05 73 21 10 01 01 59 05  Y..!...Y.s!...Y.
0090: 86 21 10 01 01 02 87 7F  03 80 80 A7 00 27 05 F0  .!...........'..
00A0: FF FF 7F 31 01 E4 00 02  87 7F 04 80 80 B9 00 27  ...1...........'
00B0: 05 F0 FF FF 7F 31 01 E4  00 02 87 7F 05 80 80 CB  .....1..........
00C0: 00 27 05 F0 FF FF 7F 32  01 E4 00 02 87 7F 06 80  .'.....2........
00D0: 80 DD 00 27 05 F0 FF FF  7F 33 01 E4 00 27 05 F0  ...'.....3...'..
00E0: FF FF 7F 34 BA 6D 21 10  01 07 80 08 80 09 80 0A  ...4.m!.........
00F0: 80 BA 73 21 10 01 0B 80  0C 80 0D 80 0E 80 BA F0  ..s!............
0100: FF FF 7F 0F 80 10 80 09  80 11 80 BA 86 21 10 01  .............!..
0110: 0F 80 10 80 12 80 11 80  02 87 7F 13 80 80 30 01  ..............0.
0120: BA 87 21 10 01 14 80 15  80 16 80 17 80 01 B5 01  ..!.............
0130: 02 87 7F 18 80 80 48 01  BA 87 21 10 01 14 80 15  ......H...!.....
0140: 80 16 80 17 80 01 B5 01  02 87 7F 03 80 80 60 01  ..............`.
0150: BA 87 21 10 01 14 80 15  80 19 80 17 80 01 B5 01  ..!.............
0160: 02 87 7F 04 80 80 78 01  BA 87 21 10 01 14 80 15  ......x...!.....
0170: 80 19 80 17 80 01 B5 01  02 87 7F 05 80 80 90 01  ................
0180: BA 87 21 10 01 14 80 15  80 1A 80 17 80 01 B5 01  ..!.............
0190: 02 87 7F 06 80 80 A8 01  BA 87 21 10 01 14 80 15  ..........!.....
01A0: 80 16 80 17 80 01 B5 01  BA 87 21 10 01 14 80 15  ..........!.....
01B0: 80 1B 80 17 80 80 6D 21  10 01 80 F0 FF FF 7F 1C  ......m!........
01C0: 1C 80 27 05 F0 FF FF 7F  37 1C 1D 80 27 05 6D 21  ..'.....7...'.m!
01D0: 10 01 10 45 1E 80 F8 FF  FF 7F F8 FF FF 7F 73 30  ...E..........s0
01E0: 30 31 01 80 1C 1F 80 45  00 80 F8 FF FF 7F F8 FF  01.....E........
01F0: FF 7F 66 64 69 31 01 80  1C 20 80 52 1E 80 F8 FF  ..fdi1... .R....
0200: FF 7F F8 FF FF 7F 73 30  30 31 45 1E 80 F8 FF FF  ......s001E.....
0210: 7F F8 FF FF 7F 73 30 30  32 01 80 5B 21 80 73 21  .....s002..[!.s!
0220: 10 01 73 21 10 01 6E 65  73 30 4E 00 73 21 10 01  ..s!..nes0N.s!..
0230: 2B 73 21 10 01 22 80 1C  23 80 7A 00 6D 21 10 01  +s!.."..#.z.m!..
0240: 7A 00 F0 FF FF 7F BA 6D  21 10 01 24 80 25 80 09  z......m!..$.%..
0250: 80 26 80 BA F0 FF FF 7F  27 80 28 80 29 80 2A 80  .&......'.(.).*.
0260: 4A F0 FF FF 7F 73 21 10  01 81 00 6D 21 10 01 7C  J....s!....m!..|
0270: 00 6D 21 10 01 5B 2B 80  6D 21 10 01 6D 21 10 01  .m!..[+.m!..m!..
0280: 66 6A 30 30 5B 2C 80 6D  21 10 01 6D 21 10 01 6B  fj00[,.m!..m!..k
0290: 6F 75 6C 1C 2D 80 23 52  1E 80 F8 FF FF 7F F8 FF  oul.-.#R........
02A0: FF 7F 73 30 30 32 45 1E  80 F8 FF FF 7F F8 FF FF  ..s002E.........
02B0: 7F 73 30 30 33 01 80 5F  05 21 80 73 21 10 01 73  .s003.._.!.s!..s
02C0: 21 10 01 73 68 6B 33 2D  80 02 00 00 01 80 00 D9  !..shk3-........
02D0: 02 03 03 10 2E 80 01 DE  02 03 03 10 01 80 2B 73  ..............+s
02E0: 21 10 01 2F 80 23 2B 73  21 10 01 30 80 23 5F 07  !../.#+s!..0.#_.
02F0: 73 21 10 01 73 21 10 01  73 68 6B 33 52 1E 80 F8  s!..s!..shk3R...
0300: FF FF 7F F8 FF FF 7F 73  30 30 33 45 1E 80 F8 FF  .......s003E....
0310: FF 7F F8 FF FF 7F 73 30  30 34 01 80 5B 2B 80 6D  ......s004..[+.m
0320: 21 10 01 6D 21 10 01 66  6A 30 31 5B 31 80 6D 21  !..m!..fj01[1.m!
0330: 10 01 6D 21 10 01 6B 6F  75 36 02 00 00 01 80 00  ..m!..kou6......
0340: B9 03 2B 6D 21 10 01 32  80 23 2B 6D 21 10 01 33  ..+m!..2.#+m!..3
0350: 80 4A 73 21 10 01 6D 21  10 01 1C 1C 80 23 5B 2B  .Js!..m!.....#[+
0360: 80 6D 21 10 01 6D 21 10  01 66 6A 30 30 5B 31 80  .m!..m!..fj00[1.
0370: 6D 21 10 01 6D 21 10 01  6B 6F 75 37 52 1E 80 F8  m!..m!..kou7R...
0380: FF FF 7F F8 FF FF 7F 73  30 30 34 45 1E 80 F8 FF  .......s004E....
0390: FF 7F F8 FF FF 7F 73 30  30 35 01 80 5F 05 34 80  ......s005.._.4.
03A0: 73 21 10 01 73 21 10 01  79 61 72 30 35 80 2B 73  s!..s!..yar05.+s
03B0: 21 10 01 36 80 23 01 2D  04 2B 6D 21 10 01 37 80  !..6.#.-.+m!..7.
03C0: 23 2B 6D 21 10 01 38 80  4A 73 21 10 01 6D 21 10  #+m!..8.Js!..m!.
03D0: 01 1C 1C 80 23 5B 2B 80  6D 21 10 01 6D 21 10 01  ....#[+.m!..m!..
03E0: 66 6A 30 30 5B 31 80 6D  21 10 01 6D 21 10 01 6B  fj00[1.m!..m!..k
03F0: 6F 75 37 52 1E 80 F8 FF  FF 7F F8 FF FF 7F 73 30  ou7R..........s0
0400: 30 34 45 1E 80 F8 FF FF  7F F8 FF FF 7F 73 30 30  04E..........s00
0410: 35 01 80 5F 05 34 80 73  21 10 01 73 21 10 01 79  5.._.4.s!..s!..y
0420: 61 72 30 35 80 2B 73 21  10 01 39 80 23 2B 73 21  ar05.+s!..9.#+s!
0430: 10 01 3A 80 23 2B 73 21  10 01 3B 80 23 2B 73 21  ..:.#+s!..;.#+s!
0440: 10 01 3C 80 23 5F 07 73  21 10 01 73 21 10 01 79  ..<.#_.s!..s!..y
0450: 61 72 30 52 1E 80 F8 FF  FF 7F F8 FF FF 7F 73 30  ar0R..........s0
0460: 30 35 45 1E 80 F8 FF FF  7F F8 FF FF 7F 73 30 33  05E..........s03
0470: 31 01 80 5B 3D 80 73 21  10 01 73 21 10 01 74 6C  1..[=.s!..s!..tl
0480: 6B 30 2B 73 21 10 01 3E  80 23 5B 3D 80 73 21 10  k0+s!..>.#[=.s!.
0490: 01 73 21 10 01 74 6C 6B  31 6E F0 FF FF 7F 04 80  .s!..tlk1n......
04A0: 99 F0 FF FF 7F 1C 3F 80  52 1E 80 F8 FF FF 7F F8  ......?.R.......
04B0: FF FF 7F 73 30 33 31 45  1E 80 F8 FF FF 7F F8 FF  ...s031E........
04C0: FF 7F 73 30 33 32 01 80  5F 05 34 80 73 21 10 01  ..s032.._.4.s!..
04D0: 73 21 10 01 79 61 72 30  35 80 2B 73 21 10 01 40  s!..yar05.+s!..@
04E0: 80 23 5F 07 73 21 10 01  73 21 10 01 79 61 72 30  .#_.s!..s!..yar0
04F0: 52 1E 80 F8 FF FF 7F F8  FF FF 7F 73 30 33 32 45  R..........s032E
0500: 1E 80 F8 FF FF 7F F8 FF  FF 7F 73 30 30 36 01 80  ..........s006..
0510: 5B 2B 80 6D 21 10 01 6D  21 10 01 66 6A 30 31 2B  [+.m!..m!..fj01+
0520: 6D 21 10 01 41 80 23 5B  2B 80 6D 21 10 01 6D 21  m!..A.#[+.m!..m!
0530: 10 01 66 6A 30 30 52 1E  80 F8 FF FF 7F F8 FF FF  ..fj00R.........
0540: 7F 73 30 30 36 45 1E 80  F8 FF FF 7F F8 FF FF 7F  .s006E..........
0550: 73 30 30 37 01 80 5F 05  42 80 73 21 10 01 73 21  s007.._.B.s!..s!
0560: 10 01 63 68 69 30 43 80  2B 73 21 10 01 44 80 1C  ..chi0C.+s!..D..
0570: 00 80 52 1E 80 F8 FF FF  7F F8 FF FF 7F 73 30 30  ..R..........s00
0580: 37 45 1E 80 F8 FF FF 7F  F8 FF FF 7F 73 30 33 33  7E..........s033
0590: 01 80 2B 73 21 10 01 45  80 23 2B 73 21 10 01 46  ..+s!..E.#+s!..F
05A0: 80 23 5F 07 73 21 10 01  73 21 10 01 63 68 69 30  .#_.s!..s!..chi0
05B0: 52 1E 80 F8 FF FF 7F F8  FF FF 7F 73 30 33 33 45  R..........s033E
05C0: 1E 80 F8 FF FF 7F F8 FF  FF 7F 73 30 30 38 01 80  ..........s008..
05D0: 5F 05 47 80 73 21 10 01  73 21 10 01 6D 68 69 30  _.G.s!..s!..mhi0
05E0: 48 80 2B 73 21 10 01 49  80 23 2B 73 21 10 01 4A  H.+s!..I.#+s!..J
05F0: 80 23 5F 07 73 21 10 01  73 21 10 01 6D 68 69 30  .#_.s!..s!..mhi0
0600: 5B 2B 80 6D 21 10 01 6D  21 10 01 66 6A 30 31 5B  [+.m!..m!..fj01[
0610: 4B 80 6D 21 10 01 6D 21  10 01 6B 6F 70 30 1C 1D  K.m!..m!..kop0..
0620: 80 52 1E 80 F8 FF FF 7F  F8 FF FF 7F 73 30 30 38  .R..........s008
0630: 45 1E 80 F8 FF FF 7F F8  FF FF 7F 73 30 30 39 01  E..........s009.
0640: 80 2B 6D 21 10 01 4C 80  1C 23 80 6B 69 64 6C 30  .+m!..L..#.kidl0
0650: 73 21 10 01 1C 23 80 23  52 1E 80 F8 FF FF 7F F8  s!...#.#R.......
0660: FF FF 7F 73 30 30 39 45  1E 80 F8 FF FF 7F F8 FF  ...s009E........
0670: FF 7F 73 30 31 30 01 80  5B 34 80 73 21 10 01 73  ..s010..[4.s!..s
0680: 21 10 01 61 6B 69 30 2B  73 21 10 01 4D 80 1C 23  !..aki0+s!..M..#
0690: 80 D3 00 6D 21 10 01 5B  2C 80 6D 21 10 01 6D 21  ...m!..[,.m!..m!
06A0: 10 01 6B 6F 75 6C 1C 23  80 23 5B 4B 80 6D 21 10  ..koul.#.#[K.m!.
06B0: 01 6D 21 10 01 6B 6F 62  30 1C 1D 80 52 1E 80 F8  .m!..kob0...R...
06C0: FF FF 7F F8 FF FF 7F 73  30 31 30 45 1E 80 F8 FF  .......s010E....
06D0: FF 7F F8 FF FF 7F 73 30  31 31 01 80 2B 6D 21 10  ......s011..+m!.
06E0: 01 4E 80 1C 1C 80 6B 69  64 6C 30 73 21 10 01 7B  .N....kidl0s!..{
06F0: 73 21 10 01 1C 4F 80 52  1E 80 F8 FF FF 7F F8 FF  s!...O.R........
0700: FF 7F 73 30 31 31 45 1E  80 F8 FF FF 7F F8 FF FF  ..s011E.........
0710: 7F 73 30 31 32 01 80 5B  50 80 73 21 10 01 73 21  .s012..[P.s!..s!
0720: 10 01 6C 61 68 30 2B 73  21 10 01 51 80 23 5B 4B  ..lah0+s!..Q.#[K
0730: 80 6D 21 10 01 6D 21 10  01 6B 6F 62 31 2B 73 21  .m!..m!..kob1+s!
0740: 10 01 52 80 23 2B 73 21  10 01 53 80 23 52 1E 80  ..R.#+s!..S.#R..
0750: F8 FF FF 7F F8 FF FF 7F  73 30 31 32 45 1E 80 F8  ........s012E...
0760: FF FF 7F F8 FF FF 7F 73  30 31 33 01 80 5F 05 3D  .......s013.._.=
0770: 80 73 21 10 01 73 21 10  01 74 68 6B 30 2D 80 2B  .s!..s!..thk0-.+
0780: 73 21 10 01 54 80 23 5F  07 73 21 10 01 73 21 10  s!..T.#_.s!..s!.
0790: 01 74 68 6B 30 45 00 80  F8 FF FF 7F F8 FF FF 7F  .thk0E..........
07A0: 66 64 6F 31 01 80 55 00  80 F8 FF FF 7F F8 FF FF  fdo1..U.........
07B0: 7F 66 64 6F 31 52 1E 80  F8 FF FF 7F F8 FF FF 7F  .fdo1R..........
07C0: 73 30 31 33 D0 55 80 86  21 10 01 86 21 10 01 6B  s013.U..!...!..k
07D0: 79 75 30 01 80 5B 56 80  86 21 10 01 86 21 10 01  yu0..[V..!...!..
07E0: 75 6B 75 30 D0 57 80 86  21 10 01 86 21 10 01 73  uku0.W..!...!..s
07F0: 74 61 72 01 80 1C 1C 80  45 1E 80 F8 FF FF 7F F8  tar.....E.......
0800: FF FF 7F 73 30 33 34 01  80 1C 1F 80 45 00 80 F8  ...s034.....E...
0810: FF FF 7F F8 FF FF 7F 66  64 69 31 01 80 2B 73 21  .......fdi1..+s!
0820: 10 01 58 80 23 2B 73 21  10 01 59 80 23 2B 73 21  ..X.#+s!..Y.#+s!
0830: 10 01 5A 80 23 45 00 80  F8 FF FF 7F F8 FF FF 7F  ..Z.#E..........
0840: 66 64 6F 31 01 80 55 00  80 F8 FF FF 7F F8 FF FF  fdo1..U.........
0850: 7F 66 64 6F 31 52 1E 80  F8 FF FF 7F F8 FF FF 7F  .fdo1R..........
0860: 73 30 33 34 D0 55 80 86  21 10 01 86 21 10 01 6B  s034.U..!...!..k
0870: 6C 6B 79 01 80 D0 57 80  86 21 10 01 86 21 10 01  lky...W..!...!..
0880: 6B 69 6C 6C 01 80 BA 86  21 10 01 5B 80 5C 80 29  kill....!..[.\.)
0890: 80 17 80 80 86 21 10 01  1C 1C 80 02 87 7F 2E 80  .....!..........
08A0: 80 B6 08 5F 03 56 80 86  21 10 01 86 21 10 01 68  ..._.V..!...!..h
08B0: 6D 6D 6C 01 73 09 02 87  7F 5D 80 80 D1 08 5F 03  mml.s....]...._.
08C0: 56 80 86 21 10 01 86 21  10 01 68 66 6D 6C 01 73  V..!...!..hfml.s
08D0: 09 02 87 7F 13 80 80 EC  08 5F 03 56 80 86 21 10  ........._.V..!.
08E0: 01 86 21 10 01 65 6D 6D  6C 01 73 09 02 87 7F 18  ..!..emml.s.....
08F0: 80 80 07 09 5F 03 56 80  86 21 10 01 86 21 10 01  ...._.V..!...!..
0900: 65 66 6D 6C 01 73 09 02  87 7F 03 80 80 22 09 5F  efml.s......."._
0910: 03 56 80 86 21 10 01 86  21 10 01 74 6D 61 6C 01  .V..!...!..tmal.
0920: 73 09 02 87 7F 04 80 80  3D 09 5F 03 56 80 86 21  s.......=._.V..!
0930: 10 01 86 21 10 01 74 6D  61 6C 01 73 09 02 87 7F  ...!..tmal.s....
0940: 05 80 80 58 09 5F 03 56  80 86 21 10 01 86 21 10  ...X._.V..!...!.
0950: 01 6D 6D 61 6C 01 73 09  02 87 7F 06 80 80 73 09  .mmal.s.......s.
0960: 5F 03 56 80 86 21 10 01  86 21 10 01 67 6D 61 6C  _.V..!...!..gmal
0970: 01 73 09 1C 1C 80 45 1E  80 F8 FF FF 7F F8 FF FF  .s....E.........
0980: 7F 73 30 31 34 01 80 1C  1F 80 45 00 80 F8 FF FF  .s014.....E.....
0990: 7F F8 FF FF 7F 66 64 69  31 01 80 5F 05 3D 80 73  .....fdi1.._.=.s
09A0: 21 10 01 73 21 10 01 74  68 6B 31 2D 80 2B 73 21  !..s!..thk1-.+s!
09B0: 10 01 5E 80 23 2B 73 21  10 01 5F 80 23 5F 07 73  ..^.#+s!.._.#_.s
09C0: 21 10 01 73 21 10 01 74  68 6B 31 52 1E 80 F8 FF  !..s!..thk1R....
09D0: FF 7F F8 FF FF 7F 73 30  31 34 45 1E 80 F8 FF FF  ......s014E.....
09E0: 7F F8 FF FF 7F 73 30 31  35 01 80 2B 73 21 10 01  .....s015..+s!..
09F0: 60 80 23 BA 73 21 10 01  0B 80 0C 80 0D 80 0E 80  `.#.s!..........
0A00: 5B 21 80 73 21 10 01 73  21 10 01 6E 65 73 6C 1C  [!.s!..s!..nesl.
0A10: 1D 80 52 1E 80 F8 FF FF  7F F8 FF FF 7F 73 30 31  ..R..........s01
0A20: 35 45 1E 80 F8 FF FF 7F  F8 FF FF 7F 73 30 31 36  5E..........s016
0A30: 01 80 2B 73 21 10 01 61  80 23 52 1E 80 F8 FF FF  ..+s!..a.#R.....
0A40: 7F F8 FF FF 7F 73 30 31  36 45 1E 80 F8 FF FF 7F  .....s016E......
0A50: F8 FF FF 7F 73 30 31 37  01 80 5B 21 80 73 21 10  ....s017..[!.s!.
0A60: 01 73 21 10 01 73 68 6B  33 2B 73 21 10 01 62 80  .s!..shk3+s!..b.
0A70: 1C 2D 80 23 52 1E 80 F8  FF FF 7F F8 FF FF 7F 73  .-.#R..........s
0A80: 30 31 37 45 1E 80 F8 FF  FF 7F F8 FF FF 7F 73 30  017E..........s0
0A90: 31 38 01 80 5B 63 80 73  21 10 01 73 21 10 01 74  18..[c.s!..s!..t
0AA0: 61 69 30 D0 64 80 73 21  10 01 73 21 10 01 77 70  ai0.d.s!..s!..wp
0AB0: 69 65 01 80 1C 65 80 6B  69 64 6C 30 6D 21 10 01  ie...e.kidl0m!..
0AC0: 52 1E 80 F8 FF FF 7F F8  FF FF 7F 73 30 31 38 45  R..........s018E
0AD0: 1E 80 F8 FF FF 7F F8 FF  FF 7F 73 30 31 39 01 80  ..........s019..
0AE0: 4A 6D 21 10 01 F0 FF FF  7F 7B 6D 21 10 01 1C 1C  Jm!......{m!....
0AF0: 80 4A F0 FF FF 7F 6D 21  10 01 7B F0 FF FF 7F 5B  .J....m!..{....[
0B00: 2B 80 6D 21 10 01 6D 21  10 01 66 6A 30 31 5F 05  +.m!..m!..fj01_.
0B10: 66 80 6D 21 10 01 6D 21  10 01 74 6C 63 30 67 80  f.m!..m!..tlc0g.
0B20: 2B 6D 21 10 01 68 80 23  2B 6D 21 10 01 69 80 23  +m!..h.#+m!..i.#
0B30: 5F 07 6D 21 10 01 6D 21  10 01 74 6C 63 30 5B 2B  _.m!..m!..tlc0[+
0B40: 80 6D 21 10 01 6D 21 10  01 66 6A 30 30 52 1E 80  .m!..m!..fj00R..
0B50: F8 FF FF 7F F8 FF FF 7F  73 30 31 39 02 87 7F 13  ........s019....
0B60: 80 80 78 0B 45 1E 80 F8  FF FF 7F F8 FF FF 7F 73  ..x.E..........s
0B70: 30 32 32 01 80 01 F9 0B  02 87 7F 18 80 80 94 0B  022.............
0B80: 45 1E 80 F8 FF FF 7F F8  FF FF 7F 73 30 32 32 01  E..........s022.
0B90: 80 01 F9 0B 02 87 7F 03  80 80 B0 0B 45 1E 80 F8  ............E...
0BA0: FF FF 7F F8 FF FF 7F 73  30 32 33 01 80 01 F9 0B  .......s023.....
0BB0: 02 87 7F 04 80 80 CC 0B  45 1E 80 F8 FF FF 7F F8  ........E.......
0BC0: FF FF 7F 73 30 32 33 01  80 01 F9 0B 02 87 7F 06  ...s023.........
0BD0: 80 80 E8 0B 45 1E 80 F8  FF FF 7F F8 FF FF 7F 73  ....E..........s
0BE0: 30 32 32 01 80 01 F9 0B  45 1E 80 F8 FF FF 7F F8  022.....E.......
0BF0: FF FF 7F 73 30 32 30 01  80 D0 57 80 87 21 10 01  ...s020...W..!..
0C00: 87 21 10 01 73 74 61 31  01 80 1C 67 80 52 1E 80  .!..sta1...g.R..
0C10: F8 FF FF 7F F8 FF FF 7F  73 30 32 30 52 1E 80 F8  ........s020R...
0C20: FF FF 7F F8 FF FF 7F 73  30 32 32 52 1E 80 F8 FF  .......s022R....
0C30: FF 7F F8 FF FF 7F 73 30  32 33 02 87 7F 03 80 80  ......s023......
0C40: 56 0C 45 1E 80 F8 FF FF  7F F8 FF FF 7F 73 30 32  V.E..........s02
0C50: 34 01 80 01 83 0C 02 87  7F 04 80 80 72 0C 45 1E  4...........r.E.
0C60: 80 F8 FF FF 7F F8 FF FF  7F 73 30 32 34 01 80 01  .........s024...
0C70: 83 0C 45 1E 80 F8 FF FF  7F F8 FF FF 7F 73 30 32  ..E..........s02
0C80: 31 01 80 27 05 F0 FF FF  7F 35 D0 57 80 87 21 10  1..'.....5.W..!.
0C90: 01 87 21 10 01 6B 69 6C  32 01 80 1C 35 80 6B 69  ..!..kil2...5.ki
0CA0: 64 6C 30 6D 21 10 01 D0  20 80 86 21 10 01 86 21  dl0m!... ..!...!
0CB0: 10 01 6D 61 78 30 01 80  1C 6A 80 D3 00 6D 21 10  ..max0...j...m!.
0CC0: 01 5B 6B 80 6D 21 10 01  6D 21 10 01 68 61 6E 30  .[k.m!..m!..han0
0CD0: 52 1E 80 F8 FF FF 7F F8  FF FF 7F 73 30 32 31 52  R..........s021R
0CE0: 1E 80 F8 FF FF 7F F8 FF  FF 7F 73 30 32 34 45 1E  ..........s024E.
0CF0: 80 F8 FF FF 7F F8 FF FF  7F 73 30 32 35 01 80 1C  .........s025...
0D00: 3F 80 52 1E 80 F8 FF FF  7F F8 FF FF 7F 73 30 32  ?.R..........s02
0D10: 35 45 1E 80 F8 FF FF 7F  F8 FF FF 7F 73 30 32 36  5E..........s026
0D20: 01 80 D0 6C 80 F0 FF FF  7F F0 FF FF 7F 74 67 74  ...l.........tgt
0D30: 30 01 80 1C 00 80 45 6D  80 F0 FF FF 7F F0 FF FF  0.....Em........
0D40: 7F 77 68 6F 31 01 80 55  6D 80 F0 FF FF 7F F0 FF  .who1..Um.......
0D50: FF 7F 77 68 6F 31 52 1E  80 F8 FF FF 7F F8 FF FF  ..who1R.........
0D60: 7F 73 30 32 36 D0 57 80  86 21 10 01 86 21 10 01  .s026.W..!...!..
0D70: 73 74 61 72 01 80 27 05  F0 FF FF 7F 36 45 1E 80  star..'.....6E..
0D80: F8 FF FF 7F F8 FF FF 7F  73 30 32 37 01 80 1C 1F  ........s027....
0D90: 80 45 6D 80 F0 FF FF 7F  F0 FF FF 7F 77 68 69 31  .Em.........whi1
0DA0: 01 80 5B 6B 80 6D 21 10  01 6D 21 10 01 68 61 6E  ..[k.m!..m!..han
0DB0: 31 1C 6E 80 81 01 6D 21  10 01 7C 01 6D 21 10 01  1.n...m!..|.m!..
0DC0: 02 00 00 5D 80 03 DB 0D  2B 6D 21 10 01 6F 80 1C  ...]....+m!..o..
0DD0: 2D 80 23 03 03 10 01 80  01 EB 0D 2B 6D 21 10 01  -.#........+m!..
0DE0: 70 80 1C 2D 80 23 03 03  10 2E 80 52 1E 80 F8 FF  p..-.#.....R....
0DF0: FF 7F F8 FF FF 7F 73 30  32 37 45 1E 80 F8 FF FF  ......s027E.....
0E00: 7F F8 FF FF 7F 73 30 32  38 01 80 5B 66 80 6D 21  .....s028..[f.m!
0E10: 10 01 6D 21 10 01 74 6C  63 30 2B 6D 21 10 01 71  ..m!..tlc0+m!..q
0E20: 80 23 2B 6D 21 10 01 72  80 23 2B 6D 21 10 01 73  .#+m!..r.#+m!..s
0E30: 80 23 52 1E 80 F8 FF FF  7F F8 FF FF 7F 73 30 32  .#R..........s02
0E40: 38 45 1E 80 F8 FF FF 7F  F8 FF FF 7F 73 30 32 39  8E..........s029
0E50: 01 80 5B 66 80 6D 21 10  01 6D 21 10 01 74 6C 63  ..[f.m!..m!..tlc
0E60: 31 2B 6D 21 10 01 74 80  1C 75 80 6B 69 64 6C 30  1+m!..t..u.kidl0
0E70: F0 FF FF 7F 79 00 F0 FF  FF 7F 6D 21 10 01 D0 57  ....y.....m!...W
0E80: 80 86 21 10 01 86 21 10  01 6B 69 6C 6C 01 80 1C  ..!...!..kill...
0E90: 23 80 23 52 1E 80 F8 FF  FF 7F F8 FF FF 7F 73 30  #.#R..........s0
0EA0: 32 39 45 1E 80 F8 FF FF  7F F8 FF FF 7F 73 30 33  29E..........s03
0EB0: 30 01 80 27 05 6D 21 10  01 11 1C 67 80 45 00 80  0..'.m!....g.E..
0EC0: F8 FF FF 7F F8 FF FF 7F  66 64 6F 31 01 80 55 00  ........fdo1..U.
0ED0: 80 F8 FF FF 7F F8 FF FF  7F 66 64 6F 31 52 1E 80  .........fdo1R..
0EE0: F8 FF FF 7F F8 FF FF 7F  73 30 33 30 29 05 73 21  ........s030).s!
0EF0: 10 01 12 29 05 73 21 10  01 0A 1C 4F 80 46 00 45  ...).s!....O.F.E
0F00: 00 80 F8 FF FF 7F F8 FF  FF 7F 66 64 69 32 01 80  ..........fdi2..
0F10: 21 00                                             !.              
```

#### Opcodes

```
  0: 0x0001 [0x42] SET_CLI_EVENT_CANCEL_DATA()
  1: 0x0002 [0x03] ExtData[1]->WorkLocal[0] = Work_Zone[2]
  2: 0x0007 [0x45] LOAD_SCHEDULED_TASK: Load scheduler "fdo1" with entities [EventEntity, EventEntity], work=[200*, 0*]
  3: 0x0018 [0x55] WAIT_LOAD_SCHEDULER: Wait for scheduler "fdo1" with entities [EventEntity, EventEntity], work=200*
  4: 0x0027 [0x46] CAMERA_CONTROL: Disable user control
  5: 0x0029 [0x38] SET_CLIENT_EVENT_MODE(mode=27*)
  6: 0x002C [0x2F] Arciela (ID: 17834349/0x0110216D)->Render.Flags0 &= ~0x80000 // Bit 19
  7: 0x0032 [0x2F] Unnamed NPC (ID: 17834355/0x01102173)->Render.Flags0 &= ~0x80000 // Bit 19
  8: 0x0038 [0x2F] Unnamed NPC (ID: 17834374/0x01102186)->Render.Flags0 &= ~0x80000 // Bit 19
  9: 0x003E [0x2F] Unnamed NPC (ID: 17834375/0x01102187)->Render.Flags0 &= ~0x80000 // Bit 19
 10: 0x0044 [0x4E] SET_ENTITY_HIDE_FLAG: Show Arciela (ID: 17834349/0x0110216D)
 11: 0x004A [0x4E] SET_ENTITY_HIDE_FLAG: Show Unnamed NPC (ID: 17834374/0x01102186)
 12: 0x0050 [0x4E] SET_ENTITY_HIDE_FLAG: Show Unnamed NPC (ID: 17834375/0x01102187)
 13: 0x0056 [0x92] Unnamed NPC (ID: 17834355/0x01102173)->Render.Flags3 ^= 0x01
 14: 0x005C [0x92] Arciela (ID: 17834349/0x0110216D)->Render.Flags3 ^= 0x01
 15: 0x0062 [0x94] Unnamed NPC (ID: 17834355/0x01102173)->Render.Flags3 ^= 0x01
 16: 0x0068 [0x94] Arciela (ID: 17834349/0x0110216D)->Render.Flags3 ^= 0x01
 17: 0x006E [0x94] LocalPlayer->Render.Flags3 ^= 0x01
 18: 0x0074 [0x94] Unnamed NPC (ID: 17834374/0x01102186)->Render.Flags3 ^= 0x01
 19: 0x007A [0x94] Unnamed NPC (ID: 17834375/0x01102187)->Render.Flags3 ^= 0x01
 20: 0x0080 [0x59] UPDATE_ENTITY_DATA: Unnamed NPC (ID: 17834375/0x01102187)->Render.Flags0 |= 0x200000
 21: 0x0087 [0x59] UPDATE_ENTITY_DATA: Unnamed NPC (ID: 17834355/0x01102173)->Render.Flags0 |= 0x200000
 22: 0x008E [0x59] UPDATE_ENTITY_DATA: Unnamed NPC (ID: 17834374/0x01102186)->Render.Flags0 |= 0x200000
 23: 0x0095 [0x02] IF !(LocalPlayer->Race == 5*) GOTO 0x00A7
 24: 0x009D [0x27] REQ_SET(priority=0x05, entity_id=LocalPlayer, tag_num=0x31)
 25: 0x00A4 [0x01] GOTO 0x00E4
 26: 0x00A7 [0x02] IF !(LocalPlayer->Race == 6*) GOTO 0x00B9
 27: 0x00AF [0x27] REQ_SET(priority=0x05, entity_id=LocalPlayer, tag_num=0x31)
 28: 0x00B6 [0x01] GOTO 0x00E4
 29: 0x00B9 [0x02] IF !(LocalPlayer->Race == 7*) GOTO 0x00CB
 30: 0x00C1 [0x27] REQ_SET(priority=0x05, entity_id=LocalPlayer, tag_num=0x32)
 31: 0x00C8 [0x01] GOTO 0x00E4
 32: 0x00CB [0x02] IF !(LocalPlayer->Race == 8*) GOTO 0x00DD
 33: 0x00D3 [0x27] REQ_SET(priority=0x05, entity_id=LocalPlayer, tag_num=0x33)
 34: 0x00DA [0x01] GOTO 0x00E4
 35: 0x00DD [0x27] REQ_SET(priority=0x05, entity_id=LocalPlayer, tag_num=0x34)

SUBROUTINE_00E4:
 36: 0x00E4 [0xBA] SET_ENTITY_POSITION(entity_id=Arciela (ID: 17834349/0x0110216D), pos_x=-574.607*, pos_z=21.010*, pos_y=-7.500*, direction=182.3°*)
 37: 0x00F1 [0xBA] SET_ENTITY_POSITION(entity_id=Unnamed NPC (ID: 17834355/0x01102173), pos_x=-585.188*, pos_z=20.003*, pos_y=-8.500*, direction=358.4°*)
 38: 0x00FE [0xBA] SET_ENTITY_POSITION(entity_id=LocalPlayer, pos_x=-575.254*, pos_z=18.926*, pos_y=-7.500*, direction=185.9°*)
 39: 0x010B [0xBA] SET_ENTITY_POSITION(entity_id=Unnamed NPC (ID: 17834374/0x01102186), pos_x=-575.254*, pos_z=18.926*, pos_y=-750.000*, direction=185.9°*)
 40: 0x0118 [0x02] IF !(LocalPlayer->Race == 3*) GOTO 0x0130
 41: 0x0120 [0xBA] SET_ENTITY_POSITION(entity_id=Unnamed NPC (ID: 17834375/0x01102187), pos_x=-580.916*, pos_z=18.752*, pos_y=-8.699*, direction=275.0°*)
 42: 0x012D [0x01] GOTO 0x01B5
 43: 0x0130 [0x02] IF !(LocalPlayer->Race == 4*) GOTO 0x0148
 44: 0x0138 [0xBA] SET_ENTITY_POSITION(entity_id=Unnamed NPC (ID: 17834375/0x01102187), pos_x=-580.916*, pos_z=18.752*, pos_y=-8.699*, direction=275.0°*)
 45: 0x0145 [0x01] GOTO 0x01B5
 46: 0x0148 [0x02] IF !(LocalPlayer->Race == 5*) GOTO 0x0160
 47: 0x0150 [0xBA] SET_ENTITY_POSITION(entity_id=Unnamed NPC (ID: 17834375/0x01102187), pos_x=-580.916*, pos_z=18.752*, pos_y=-7.799*, direction=275.0°*)
 48: 0x015D [0x01] GOTO 0x01B5
 49: 0x0160 [0x02] IF !(LocalPlayer->Race == 6*) GOTO 0x0178
 50: 0x0168 [0xBA] SET_ENTITY_POSITION(entity_id=Unnamed NPC (ID: 17834375/0x01102187), pos_x=-580.916*, pos_z=18.752*, pos_y=-7.799*, direction=275.0°*)
 51: 0x0175 [0x01] GOTO 0x01B5
 52: 0x0178 [0x02] IF !(LocalPlayer->Race == 7*) GOTO 0x0190
 53: 0x0180 [0xBA] SET_ENTITY_POSITION(entity_id=Unnamed NPC (ID: 17834375/0x01102187), pos_x=-580.916*, pos_z=18.752*, pos_y=-8.399*, direction=275.0°*)
 54: 0x018D [0x01] GOTO 0x01B5
 55: 0x0190 [0x02] IF !(LocalPlayer->Race == 8*) GOTO 0x01A8
 56: 0x0198 [0xBA] SET_ENTITY_POSITION(entity_id=Unnamed NPC (ID: 17834375/0x01102187), pos_x=-580.916*, pos_z=18.752*, pos_y=-8.699*, direction=275.0°*)
 57: 0x01A5 [0x01] GOTO 0x01B5
 58: 0x01A8 [0xBA] SET_ENTITY_POSITION(entity_id=Unnamed NPC (ID: 17834375/0x01102187), pos_x=-580.916*, pos_z=18.752*, pos_y=-8.499*, direction=275.0°*)

SUBROUTINE_01B5:
 59: 0x01B5 [0x80] LOAD_WAIT(entity=Arciela (ID: 17834349/0x0110216D))
 60: 0x01BA [0x80] LOAD_WAIT(entity=LocalPlayer)
 61: 0x01BF [0x1C] WAIT(30* ticks)
 62: 0x01C2 [0x27] REQ_SET(priority=0x05, entity_id=LocalPlayer, tag_num=0x37)
 63: 0x01C9 [0x1C] WAIT(10* ticks)
 64: 0x01CC [0x27] REQ_SET(priority=0x05, entity_id=Arciela (ID: 17834349/0x0110216D), tag_num=0x10)
 65: 0x01D3 [0x45] LOAD_SCHEDULED_TASK: Load scheduler "s001" with entities [EventEntity, EventEntity], work=[768*, 0*]
 66: 0x01E4 [0x1C] WAIT(15* ticks)
 67: 0x01E7 [0x45] LOAD_SCHEDULED_TASK: Load scheduler "fdi1" with entities [EventEntity, EventEntity], work=[200*, 0*]
 68: 0x01F8 [0x1C] WAIT(150* ticks)
 69: 0x01FB [0x52] END_LOAD_SCHEDULER: End scheduler "s001" with entities [EventEntity, EventEntity], work=768*
 70: 0x020A [0x45] LOAD_SCHEDULED_TASK: Load scheduler "s002" with entities [EventEntity, EventEntity], work=[768*, 0*]
 71: 0x021B [0x5B] LOAD_EXT_SCHEDULER: Load scheduler "nes0" with entities [Unnamed NPC (ID: 17834355/0x01102173), Unnamed NPC (ID: 17834355/0x01102173)], work=3585*
 72: 0x022A [0x4E] SET_ENTITY_HIDE_FLAG: Show Unnamed NPC (ID: 17834355/0x01102173)
 73: 0x0230 [0x2B] Unnamed NPC (ID: 17834355/0x01102173) [8931*]:
    → "Ah, yes, my most adoring fan! If I weren't so tickled to see you I might call you a stalker."
 74: 0x0237 [0x1C] WAIT(50* ticks)
 75: 0x023A [0x7A] VM_CONTROL: Reset VM for Arciela (ID: 17834349/0x0110216D)
 76: 0x0240 [0x7A] VM_CONTROL: Reset VM for LocalPlayer
 77: 0x0246 [0xBA] SET_ENTITY_POSITION(entity_id=Arciela (ID: 17834349/0x0110216D), pos_x=-580.823*, pos_z=21.149*, pos_y=-7.500*, direction=171.4°*)
 78: 0x0253 [0xBA] SET_ENTITY_POSITION(entity_id=LocalPlayer, pos_x=-581.053*, pos_z=18.825*, pos_y=-7.499*, direction=196.0°*)
 79: 0x0260 [0x4A] LocalPlayer looks at Unnamed NPC (ID: 17834355/0x01102173)
 80: 0x0269 [0x81] SET_ENTITY_BLINKING(blink_flag=0x00, entity=Arciela (ID: 17834349/0x0110216D))
 81: 0x026F [0x7C] Arciela (ID: 17834349/0x0110216D)->Render.Flags2 |= 0x00
 82: 0x0275 [0x5B] LOAD_EXT_SCHEDULER: Load scheduler "fj00" with entities [Arciela (ID: 17834349/0x0110216D), Arciela (ID: 17834349/0x0110216D)], work=3216*
 83: 0x0284 [0x5B] LOAD_EXT_SCHEDULER: Load scheduler "koul" with entities [Arciela (ID: 17834349/0x0110216D), Arciela (ID: 17834349/0x0110216D)], work=3458*
 84: 0x0293 [0x1C] WAIT(100* ticks)
 85: 0x0296 [0x23] WAIT_FOR_DIALOG_INTERACTION
 86: 0x0297 [0x52] END_LOAD_SCHEDULER: End scheduler "s002" with entities [EventEntity, EventEntity], work=768*
 87: 0x02A6 [0x45] LOAD_SCHEDULED_TASK: Load scheduler "s003" with entities [EventEntity, EventEntity], work=[768*, 0*]
 88: 0x02B7 [0x5F] MULTI_HANDLER_COMPLEX(mode=0x05 - Load ext scheduler with flag (OpCode 0x5B mode 0, flag 1), ref=3585*, entity1=Unnamed NPC (ID: 17834355/0x01102173), entity2=Unnamed NPC (ID: 17834355/0x01102173), string="shk3", extra=100*)
 89: 0x02C9 [0x02] IF !(ExtData[1]->WorkLocal[0] == 0*) GOTO 0x02D9
 90: 0x02D1 [0x03] Work_Zone[3] = 1*
 91: 0x02D6 [0x01] GOTO 0x02DE
 92: 0x02D9 [0x03] Work_Zone[3] = 0*

SUBROUTINE_02DE:
 93: 0x02DE [0x2B] Unnamed NPC (ID: 17834355/0x01102173) [8932*]:
    → "And to think that you've brought [your lovely princess/a fair maiden] along for front row seats!"
 94: 0x02E5 [0x23] WAIT_FOR_DIALOG_INTERACTION
 95: 0x02E6 [0x2B] Unnamed NPC (ID: 17834355/0x01102173) [8933*]:
    → "The same tired old soliloquy would seem so contrived now, wouldn't it?"
 96: 0x02ED [0x23] WAIT_FOR_DIALOG_INTERACTION
 97: 0x02EE [0x5F] MULTI_HANDLER_COMPLEX(mode=0x07 - Wait scheduler task (OpCode 0x53))
 98: 0x02FC [0x52] END_LOAD_SCHEDULER: End scheduler "s003" with entities [EventEntity, EventEntity], work=768*
 99: 0x030B [0x45] LOAD_SCHEDULED_TASK: Load scheduler "s004" with entities [EventEntity, EventEntity], work=[768*, 0*]
100: 0x031C [0x5B] LOAD_EXT_SCHEDULER: Load scheduler "fj01" with entities [Arciela (ID: 17834349/0x0110216D), Arciela (ID: 17834349/0x0110216D)], work=3216*
101: 0x032B [0x5B] LOAD_EXT_SCHEDULER: Load scheduler "kou6" with entities [Arciela (ID: 17834349/0x0110216D), Arciela (ID: 17834349/0x0110216D)], work=3459*
102: 0x033A [0x02] IF !(ExtData[1]->WorkLocal[0] == 0*) GOTO 0x03B9
103: 0x0342 [0x2B] Arciela (ID: 17834349/0x0110216D) [8934*]:
    → "You must be that "Balamor" fiend lurking in Ceizak Battlegrounds! First the continent, now the city...what do you want with us!?"
104: 0x0349 [0x23] WAIT_FOR_DIALOG_INTERACTION
105: 0x034A [0x2B] Arciela (ID: 17834349/0x0110216D) [8935*]:
    → "Leave Adoulin and flee to whatever hole you crawled out of!"
106: 0x0351 [0x4A] Unnamed NPC (ID: 17834355/0x01102173) looks at Arciela (ID: 17834349/0x0110216D)
107: 0x035A [0x1C] WAIT(30* ticks)
108: 0x035D [0x23] WAIT_FOR_DIALOG_INTERACTION
109: 0x035E [0x5B] LOAD_EXT_SCHEDULER: Load scheduler "fj00" with entities [Arciela (ID: 17834349/0x0110216D), Arciela (ID: 17834349/0x0110216D)], work=3216*
110: 0x036D [0x5B] LOAD_EXT_SCHEDULER: Load scheduler "kou7" with entities [Arciela (ID: 17834349/0x0110216D), Arciela (ID: 17834349/0x0110216D)], work=3459*
111: 0x037C [0x52] END_LOAD_SCHEDULER: End scheduler "s004" with entities [EventEntity, EventEntity], work=768*
112: 0x038B [0x45] LOAD_SCHEDULED_TASK: Load scheduler "s005" with entities [EventEntity, EventEntity], work=[768*, 0*]
113: 0x039C [0x5F] MULTI_HANDLER_COMPLEX(mode=0x05 - Load ext scheduler with flag (OpCode 0x5B mode 0, flag 1), ref=3580*, entity1=Unnamed NPC (ID: 17834355/0x01102173), entity2=Unnamed NPC (ID: 17834355/0x01102173), string="yar0", extra=180*)
114: 0x03AE [0x2B] Unnamed NPC (ID: 17834355/0x01102173) [8936*]:
    → "My dear, you must have me mistaken for some two-bit hack."
115: 0x03B5 [0x23] WAIT_FOR_DIALOG_INTERACTION
116: 0x03B6 [0x01] GOTO 0x042D
117: 0x03B9 [0x2B] Arciela (ID: 17834349/0x0110216D) [8937*]:
    → "First the castle, now the waterways--what nefarious scheme have you hatched this time!?"
118: 0x03C0 [0x23] WAIT_FOR_DIALOG_INTERACTION
119: 0x03C1 [0x2B] Arciela (ID: 17834349/0x0110216D) [8938*]:
    → "Leave Adoulin and return to the vile domain you came from!"
120: 0x03C8 [0x4A] Unnamed NPC (ID: 17834355/0x01102173) looks at Arciela (ID: 17834349/0x0110216D)
121: 0x03D1 [0x1C] WAIT(30* ticks)
122: 0x03D4 [0x23] WAIT_FOR_DIALOG_INTERACTION
123: 0x03D5 [0x5B] LOAD_EXT_SCHEDULER: Load scheduler "fj00" with entities [Arciela (ID: 17834349/0x0110216D), Arciela (ID: 17834349/0x0110216D)], work=3216*
124: 0x03E4 [0x5B] LOAD_EXT_SCHEDULER: Load scheduler "kou7" with entities [Arciela (ID: 17834349/0x0110216D), Arciela (ID: 17834349/0x0110216D)], work=3459*
125: 0x03F3 [0x52] END_LOAD_SCHEDULER: End scheduler "s004" with entities [EventEntity, EventEntity], work=768*
126: 0x0402 [0x45] LOAD_SCHEDULED_TASK: Load scheduler "s005" with entities [EventEntity, EventEntity], work=[768*, 0*]
127: 0x0413 [0x5F] MULTI_HANDLER_COMPLEX(mode=0x05 - Load ext scheduler with flag (OpCode 0x5B mode 0, flag 1), ref=3580*, entity1=Unnamed NPC (ID: 17834355/0x01102173), entity2=Unnamed NPC (ID: 17834355/0x01102173), string="yar0", extra=180*)
128: 0x0425 [0x2B] Unnamed NPC (ID: 17834355/0x01102173) [8939*]:
    → ""Nefarious scheme"? Oh, my dearest Arciela, you are sorely mistaken. I'm having a grand old time just watching the scene play out."
129: 0x042C [0x23] WAIT_FOR_DIALOG_INTERACTION

SUBROUTINE_042D:
130: 0x042D [0x2B] Unnamed NPC (ID: 17834355/0x01102173) [8940*]:
    → "And besides, there's no wisdom in messing with your betters."
131: 0x0434 [0x23] WAIT_FOR_DIALOG_INTERACTION
132: 0x0435 [0x2B] Unnamed NPC (ID: 17834355/0x01102173) [8941*]:
    → "And you should be thanking me! I've decided to stop trying to create a new world and save this one instead."
133: 0x043C [0x23] WAIT_FOR_DIALOG_INTERACTION
134: 0x043D [0x2B] Unnamed NPC (ID: 17834355/0x01102173) [8942*]:
    → "Of course, I still plan to make myself the protagonist."
135: 0x0444 [0x23] WAIT_FOR_DIALOG_INTERACTION
136: 0x0445 [0x5F] MULTI_HANDLER_COMPLEX(mode=0x07 - Wait scheduler task (OpCode 0x53))
137: 0x0453 [0x52] END_LOAD_SCHEDULER: End scheduler "s005" with entities [EventEntity, EventEntity], work=768*
138: 0x0462 [0x45] LOAD_SCHEDULED_TASK: Load scheduler "s031" with entities [EventEntity, EventEntity], work=[768*, 0*]
139: 0x0473 [0x5B] LOAD_EXT_SCHEDULER: Load scheduler "tlk0" with entities [Unnamed NPC (ID: 17834355/0x01102173), Unnamed NPC (ID: 17834355/0x01102173)], work=3579*
140: 0x0482 [0x2B] Unnamed NPC (ID: 17834355/0x01102173) [8943*]:
    → "And <Player>, there's much to be gained from joining hands and becoming part of my union."
141: 0x0489 [0x23] WAIT_FOR_DIALOG_INTERACTION
142: 0x048A [0x5B] LOAD_EXT_SCHEDULER: Load scheduler "tlk1" with entities [Unnamed NPC (ID: 17834355/0x01102173), Unnamed NPC (ID: 17834355/0x01102173)], work=3579*
143: 0x0499 [0x6E] LocalPlayer uses emote 6*
144: 0x04A0 [0x99] Wait for LocalPlayer animation to complete
145: 0x04A5 [0x1C] WAIT(90* ticks)
146: 0x04A8 [0x52] END_LOAD_SCHEDULER: End scheduler "s031" with entities [EventEntity, EventEntity], work=768*
147: 0x04B7 [0x45] LOAD_SCHEDULED_TASK: Load scheduler "s032" with entities [EventEntity, EventEntity], work=[768*, 0*]
148: 0x04C8 [0x5F] MULTI_HANDLER_COMPLEX(mode=0x05 - Load ext scheduler with flag (OpCode 0x5B mode 0, flag 1), ref=3580*, entity1=Unnamed NPC (ID: 17834355/0x01102173), entity2=Unnamed NPC (ID: 17834355/0x01102173), string="yar0", extra=180*)
149: 0x04DA [0x2B] Unnamed NPC (ID: 17834355/0x01102173) [8944*]:
    → "You would refuse my generous offer? After how much effort it took for me to come back from who-knows-what world?"
150: 0x04E1 [0x23] WAIT_FOR_DIALOG_INTERACTION
151: 0x04E2 [0x5F] MULTI_HANDLER_COMPLEX(mode=0x07 - Wait scheduler task (OpCode 0x53))
152: 0x04F0 [0x52] END_LOAD_SCHEDULER: End scheduler "s032" with entities [EventEntity, EventEntity], work=768*
153: 0x04FF [0x45] LOAD_SCHEDULED_TASK: Load scheduler "s006" with entities [EventEntity, EventEntity], work=[768*, 0*]
154: 0x0510 [0x5B] LOAD_EXT_SCHEDULER: Load scheduler "fj01" with entities [Arciela (ID: 17834349/0x0110216D), Arciela (ID: 17834349/0x0110216D)], work=3216*
155: 0x051F [0x2B] Arciela (ID: 17834349/0x0110216D) [8945*]:
    → "You came back from...another world? What are you on about?"
156: 0x0526 [0x23] WAIT_FOR_DIALOG_INTERACTION
157: 0x0527 [0x5B] LOAD_EXT_SCHEDULER: Load scheduler "fj00" with entities [Arciela (ID: 17834349/0x0110216D), Arciela (ID: 17834349/0x0110216D)], work=3216*
158: 0x0536 [0x52] END_LOAD_SCHEDULER: End scheduler "s006" with entities [EventEntity, EventEntity], work=768*
159: 0x0545 [0x45] LOAD_SCHEDULED_TASK: Load scheduler "s007" with entities [EventEntity, EventEntity], work=[768*, 0*]
160: 0x0556 [0x5F] MULTI_HANDLER_COMPLEX(mode=0x05 - Load ext scheduler with flag (OpCode 0x5B mode 0, flag 1), ref=3609*, entity1=Unnamed NPC (ID: 17834355/0x01102173), entity2=Unnamed NPC (ID: 17834355/0x01102173), string="chi0", extra=260*)
161: 0x0568 [0x2B] Unnamed NPC (ID: 17834355/0x01102173) [8946*]:
    → "Hut-tut! You're not going to get me to show my hand that easily."
162: 0x056F [0x1C] WAIT(200* ticks)
163: 0x0572 [0x52] END_LOAD_SCHEDULER: End scheduler "s007" with entities [EventEntity, EventEntity], work=768*
164: 0x0581 [0x45] LOAD_SCHEDULED_TASK: Load scheduler "s033" with entities [EventEntity, EventEntity], work=[768*, 0*]
165: 0x0592 [0x2B] Unnamed NPC (ID: 17834355/0x01102173) [8947*]:
    → "Can't I bring just a little bit of humor and uncertainty into your lives?"
166: 0x0599 [0x23] WAIT_FOR_DIALOG_INTERACTION
167: 0x059A [0x2B] Unnamed NPC (ID: 17834355/0x01102173) [8948*]:
    → "What's more, young one, it would take far too much energy to explain to you the tedious story of how <Player> and [his/her] pale-faced friend...what was his name? Celennia? Selbina? Selh'teus? Yes, Selh'teus. How [he/she] and Selh'teus ruined my week."
168: 0x05A1 [0x23] WAIT_FOR_DIALOG_INTERACTION
169: 0x05A2 [0x5F] MULTI_HANDLER_COMPLEX(mode=0x07 - Wait scheduler task (OpCode 0x53))
170: 0x05B0 [0x52] END_LOAD_SCHEDULER: End scheduler "s033" with entities [EventEntity, EventEntity], work=768*
171: 0x05BF [0x45] LOAD_SCHEDULED_TASK: Load scheduler "s008" with entities [EventEntity, EventEntity], work=[768*, 0*]
172: 0x05D0 [0x5F] MULTI_HANDLER_COMPLEX(mode=0x05 - Load ext scheduler with flag (OpCode 0x5B mode 0, flag 1), ref=3583*, entity1=Unnamed NPC (ID: 17834355/0x01102173), entity2=Unnamed NPC (ID: 17834355/0x01102173), string="mhi0", extra=170*)
173: 0x05E2 [0x2B] Unnamed NPC (ID: 17834355/0x01102173) [8949*]:
    → "And on the way back I had to hop from world to world, making discovery upon discovery, and I did my own little research as I went."
174: 0x05E9 [0x23] WAIT_FOR_DIALOG_INTERACTION
175: 0x05EA [0x2B] Unnamed NPC (ID: 17834355/0x01102173) [8950*]:
    → "Before each world fell in turn, that is."
176: 0x05F1 [0x23] WAIT_FOR_DIALOG_INTERACTION
177: 0x05F2 [0x5F] MULTI_HANDLER_COMPLEX(mode=0x07 - Wait scheduler task (OpCode 0x53))
178: 0x0600 [0x5B] LOAD_EXT_SCHEDULER: Load scheduler "fj01" with entities [Arciela (ID: 17834349/0x0110216D), Arciela (ID: 17834349/0x0110216D)], work=3216*
179: 0x060F [0x5B] LOAD_EXT_SCHEDULER: Load scheduler "kop0" with entities [Arciela (ID: 17834349/0x0110216D), Arciela (ID: 17834349/0x0110216D)], work=3530*
180: 0x061E [0x1C] WAIT(10* ticks)
181: 0x0621 [0x52] END_LOAD_SCHEDULER: End scheduler "s008" with entities [EventEntity, EventEntity], work=768*
182: 0x0630 [0x45] LOAD_SCHEDULED_TASK: Load scheduler "s009" with entities [EventEntity, EventEntity], work=[768*, 0*]
183: 0x0641 [0x2B] Arciela (ID: 17834349/0x0110216D) [8951*]:
    → "Whole worlds...falling? <Player>, what is he...?"
184: 0x0648 [0x1C] WAIT(50* ticks)
185: 0x064B [0x6B] STOP_AND_IDLE: Unnamed NPC (ID: 17834355/0x01102173) stops current action and resets to idle (animation="idl0")
186: 0x0654 [0x1C] WAIT(50* ticks)
187: 0x0657 [0x23] WAIT_FOR_DIALOG_INTERACTION
188: 0x0658 [0x52] END_LOAD_SCHEDULER: End scheduler "s009" with entities [EventEntity, EventEntity], work=768*
189: 0x0667 [0x45] LOAD_SCHEDULED_TASK: Load scheduler "s010" with entities [EventEntity, EventEntity], work=[768*, 0*]
190: 0x0678 [0x5B] LOAD_EXT_SCHEDULER: Load scheduler "aki0" with entities [Unnamed NPC (ID: 17834355/0x01102173), Unnamed NPC (ID: 17834355/0x01102173)], work=3580*
191: 0x0687 [0x2B] Unnamed NPC (ID: 17834355/0x01102173) [8952*]:
    → "Not too far in the future, all the worlds I visited--and presumably those I didn't--will fall to a force known as the "Emptiness.""
192: 0x068E [0x1C] WAIT(50* ticks)
193: 0x0691 [0xD3] CLEAR_ENTITY_MOTION_QUEUE(condition_flag=0x00, entity_server_id=0x0110216D)
194: 0x0697 [0x5B] LOAD_EXT_SCHEDULER: Load scheduler "koul" with entities [Arciela (ID: 17834349/0x0110216D), Arciela (ID: 17834349/0x0110216D)], work=3458*
195: 0x06A6 [0x1C] WAIT(50* ticks)
196: 0x06A9 [0x23] WAIT_FOR_DIALOG_INTERACTION
197: 0x06AA [0x5B] LOAD_EXT_SCHEDULER: Load scheduler "kob0" with entities [Arciela (ID: 17834349/0x0110216D), Arciela (ID: 17834349/0x0110216D)], work=3530*
198: 0x06B9 [0x1C] WAIT(10* ticks)
199: 0x06BC [0x52] END_LOAD_SCHEDULER: End scheduler "s010" with entities [EventEntity, EventEntity], work=768*
200: 0x06CB [0x45] LOAD_SCHEDULED_TASK: Load scheduler "s011" with entities [EventEntity, EventEntity], work=[768*, 0*]
201: 0x06DC [0x2B] Arciela (ID: 17834349/0x0110216D) [8953*]:
    → "Even...even Vana'diel!?"
202: 0x06E3 [0x1C] WAIT(30* ticks)
203: 0x06E6 [0x6B] STOP_AND_IDLE: Unnamed NPC (ID: 17834355/0x01102173) stops current action and resets to idle (animation="idl0")
204: 0x06EF [0x7B] Unnamed NPC (ID: 17834355/0x01102173) stops talking
205: 0x06F4 [0x1C] WAIT(60* ticks)
206: 0x06F7 [0x52] END_LOAD_SCHEDULER: End scheduler "s011" with entities [EventEntity, EventEntity], work=768*
207: 0x0706 [0x45] LOAD_SCHEDULED_TASK: Load scheduler "s012" with entities [EventEntity, EventEntity], work=[768*, 0*]
208: 0x0717 [0x5B] LOAD_EXT_SCHEDULER: Load scheduler "lah0" with entities [Unnamed NPC (ID: 17834355/0x01102173), Unnamed NPC (ID: 17834355/0x01102173)], work=3581*
209: 0x0726 [0x2B] Unnamed NPC (ID: 17834355/0x01102173) [8954*]:
    → "You mean you haven't heard? Bwehehe! Oh, that's a rich twist of events!"
210: 0x072D [0x23] WAIT_FOR_DIALOG_INTERACTION
211: 0x072E [0x5B] LOAD_EXT_SCHEDULER: Load scheduler "kob1" with entities [Arciela (ID: 17834349/0x0110216D), Arciela (ID: 17834349/0x0110216D)], work=3530*
212: 0x073D [0x2B] Unnamed NPC (ID: 17834355/0x01102173) [8955*]:
    → "And so, <Player>, I took a look at some of that essence I borrowed from your little orb."
213: 0x0744 [0x23] WAIT_FOR_DIALOG_INTERACTION
214: 0x0745 [0x2B] Unnamed NPC (ID: 17834355/0x01102173) [8956*]:
    → "You see, I figured it could throw a wrench in the whole "Emptiness" business."
215: 0x074C [0x23] WAIT_FOR_DIALOG_INTERACTION
216: 0x074D [0x52] END_LOAD_SCHEDULER: End scheduler "s012" with entities [EventEntity, EventEntity], work=768*
217: 0x075C [0x45] LOAD_SCHEDULED_TASK: Load scheduler "s013" with entities [EventEntity, EventEntity], work=[768*, 0*]
218: 0x076D [0x5F] MULTI_HANDLER_COMPLEX(mode=0x05 - Load ext scheduler with flag (OpCode 0x5B mode 0, flag 1), ref=3579*, entity1=Unnamed NPC (ID: 17834355/0x01102173), entity2=Unnamed NPC (ID: 17834355/0x01102173), string="thk0", extra=100*)
219: 0x077F [0x2B] Unnamed NPC (ID: 17834355/0x01102173) [8957*]:
    → "But like any good drama, the conclusion I came to wasn't so simple."
220: 0x0786 [0x23] WAIT_FOR_DIALOG_INTERACTION
221: 0x0787 [0x5F] MULTI_HANDLER_COMPLEX(mode=0x07 - Wait scheduler task (OpCode 0x53))
222: 0x0795 [0x45] LOAD_SCHEDULED_TASK: Load scheduler "fdo1" with entities [EventEntity, EventEntity], work=[200*, 0*]
223: 0x07A6 [0x55] WAIT_LOAD_SCHEDULER: Wait for scheduler "fdo1" with entities [EventEntity, EventEntity], work=200*
224: 0x07B5 [0x52] END_LOAD_SCHEDULER: End scheduler "s013" with entities [EventEntity, EventEntity], work=768*
225: 0x07C4 [0xD0] LOAD_SCHEDULED_TASK_ALT5: Load scheduler "kyu0" with entities [Unnamed NPC (ID: 17834374/0x01102186), Unnamed NPC (ID: 17834374/0x01102186)], work=[102*, 0*]
226: 0x07D5 [0x5B] LOAD_EXT_SCHEDULER: Load scheduler "uku0" with entities [Unnamed NPC (ID: 17834374/0x01102186), Unnamed NPC (ID: 17834374/0x01102186)], work=3878*
227: 0x07E4 [0xD0] LOAD_SCHEDULED_TASK_ALT5: Load scheduler "star" with entities [Unnamed NPC (ID: 17834374/0x01102186), Unnamed NPC (ID: 17834374/0x01102186)], work=[103*, 0*]
228: 0x07F5 [0x1C] WAIT(30* ticks)
229: 0x07F8 [0x45] LOAD_SCHEDULED_TASK: Load scheduler "s034" with entities [EventEntity, EventEntity], work=[768*, 0*]
230: 0x0809 [0x1C] WAIT(15* ticks)
231: 0x080C [0x45] LOAD_SCHEDULED_TASK: Load scheduler "fdi1" with entities [EventEntity, EventEntity], work=[200*, 0*]
232: 0x081D [0x2B] Unnamed NPC (ID: 17834355/0x01102173) [8958*]:
    → "Your orb has, in fact, been filled with the power of light..."
233: 0x0824 [0x23] WAIT_FOR_DIALOG_INTERACTION
234: 0x0825 [0x2B] Unnamed NPC (ID: 17834355/0x01102173) [8959*]:
    → "Or would it be more accurate to say "the power of life"? Either way, it transcends the boundaries of time and space."
235: 0x082C [0x23] WAIT_FOR_DIALOG_INTERACTION
236: 0x082D [0x2B] Unnamed NPC (ID: 17834355/0x01102173) [8960*]:
    → "And I must confess that although this may seem a bit of a tired trope, the gods themselves would be jealous of what you stumbled upon."
237: 0x0834 [0x23] WAIT_FOR_DIALOG_INTERACTION
238: 0x0835 [0x45] LOAD_SCHEDULED_TASK: Load scheduler "fdo1" with entities [EventEntity, EventEntity], work=[200*, 0*]
239: 0x0846 [0x55] WAIT_LOAD_SCHEDULER: Wait for scheduler "fdo1" with entities [EventEntity, EventEntity], work=200*
240: 0x0855 [0x52] END_LOAD_SCHEDULER: End scheduler "s034" with entities [EventEntity, EventEntity], work=768*
241: 0x0864 [0xD0] LOAD_SCHEDULED_TASK_ALT5: Load scheduler "klky" with entities [Unnamed NPC (ID: 17834374/0x01102186), Unnamed NPC (ID: 17834374/0x01102186)], work=[102*, 0*]
242: 0x0875 [0xD0] LOAD_SCHEDULED_TASK_ALT5: Load scheduler "kill" with entities [Unnamed NPC (ID: 17834374/0x01102186), Unnamed NPC (ID: 17834374/0x01102186)], work=[103*, 0*]
243: 0x0886 [0xBA] SET_ENTITY_POSITION(entity_id=Unnamed NPC (ID: 17834374/0x01102186), pos_x=-581.016*, pos_z=18.822*, pos_y=-7.499*, direction=275.0°*)
244: 0x0893 [0x80] LOAD_WAIT(entity=Unnamed NPC (ID: 17834374/0x01102186))
245: 0x0898 [0x1C] WAIT(30* ticks)
246: 0x089B [0x02] IF !(LocalPlayer->Race == 1*) GOTO 0x08B6
247: 0x08A3 [0x5F] MULTI_HANDLER_COMPLEX(mode=0x03 - Load ext scheduler (OpCode 0x5B mode 0), ref=3878*, entity1=Unnamed NPC (ID: 17834374/0x01102186), entity2=Unnamed NPC (ID: 17834374/0x01102186), string="hmml")
248: 0x08B3 [0x01] GOTO 0x0973
249: 0x08B6 [0x02] IF !(LocalPlayer->Race == 2*) GOTO 0x08D1
250: 0x08BE [0x5F] MULTI_HANDLER_COMPLEX(mode=0x03 - Load ext scheduler (OpCode 0x5B mode 0), ref=3878*, entity1=Unnamed NPC (ID: 17834374/0x01102186), entity2=Unnamed NPC (ID: 17834374/0x01102186), string="hfml")
251: 0x08CE [0x01] GOTO 0x0973
252: 0x08D1 [0x02] IF !(LocalPlayer->Race == 3*) GOTO 0x08EC
253: 0x08D9 [0x5F] MULTI_HANDLER_COMPLEX(mode=0x03 - Load ext scheduler (OpCode 0x5B mode 0), ref=3878*, entity1=Unnamed NPC (ID: 17834374/0x01102186), entity2=Unnamed NPC (ID: 17834374/0x01102186), string="emml")
254: 0x08E9 [0x01] GOTO 0x0973
255: 0x08EC [0x02] IF !(LocalPlayer->Race == 4*) GOTO 0x0907
256: 0x08F4 [0x5F] MULTI_HANDLER_COMPLEX(mode=0x03 - Load ext scheduler (OpCode 0x5B mode 0), ref=3878*, entity1=Unnamed NPC (ID: 17834374/0x01102186), entity2=Unnamed NPC (ID: 17834374/0x01102186), string="efml")
257: 0x0904 [0x01] GOTO 0x0973
258: 0x0907 [0x02] IF !(LocalPlayer->Race == 5*) GOTO 0x0922
259: 0x090F [0x5F] MULTI_HANDLER_COMPLEX(mode=0x03 - Load ext scheduler (OpCode 0x5B mode 0), ref=3878*, entity1=Unnamed NPC (ID: 17834374/0x01102186), entity2=Unnamed NPC (ID: 17834374/0x01102186), string="tmal")
260: 0x091F [0x01] GOTO 0x0973
261: 0x0922 [0x02] IF !(LocalPlayer->Race == 6*) GOTO 0x093D
262: 0x092A [0x5F] MULTI_HANDLER_COMPLEX(mode=0x03 - Load ext scheduler (OpCode 0x5B mode 0), ref=3878*, entity1=Unnamed NPC (ID: 17834374/0x01102186), entity2=Unnamed NPC (ID: 17834374/0x01102186), string="tmal")
263: 0x093A [0x01] GOTO 0x0973
264: 0x093D [0x02] IF !(LocalPlayer->Race == 7*) GOTO 0x0958
265: 0x0945 [0x5F] MULTI_HANDLER_COMPLEX(mode=0x03 - Load ext scheduler (OpCode 0x5B mode 0), ref=3878*, entity1=Unnamed NPC (ID: 17834374/0x01102186), entity2=Unnamed NPC (ID: 17834374/0x01102186), string="mmal")
266: 0x0955 [0x01] GOTO 0x0973
267: 0x0958 [0x02] IF !(LocalPlayer->Race == 8*) GOTO 0x0973
268: 0x0960 [0x5F] MULTI_HANDLER_COMPLEX(mode=0x03 - Load ext scheduler (OpCode 0x5B mode 0), ref=3878*, entity1=Unnamed NPC (ID: 17834374/0x01102186), entity2=Unnamed NPC (ID: 17834374/0x01102186), string="gmal")
269: 0x0970 [0x01] GOTO 0x0973

SUBROUTINE_0973:
270: 0x0973 [0x1C] WAIT(30* ticks)
271: 0x0976 [0x45] LOAD_SCHEDULED_TASK: Load scheduler "s014" with entities [EventEntity, EventEntity], work=[768*, 0*]
272: 0x0987 [0x1C] WAIT(15* ticks)
273: 0x098A [0x45] LOAD_SCHEDULED_TASK: Load scheduler "fdi1" with entities [EventEntity, EventEntity], work=[200*, 0*]
274: 0x099B [0x5F] MULTI_HANDLER_COMPLEX(mode=0x05 - Load ext scheduler with flag (OpCode 0x5B mode 0, flag 1), ref=3579*, entity1=Unnamed NPC (ID: 17834355/0x01102173), entity2=Unnamed NPC (ID: 17834355/0x01102173), string="thk1", extra=100*)
275: 0x09AD [0x2B] Unnamed NPC (ID: 17834355/0x01102173) [8961*]:
    → "As am I."
276: 0x09B4 [0x23] WAIT_FOR_DIALOG_INTERACTION
277: 0x09B5 [0x2B] Unnamed NPC (ID: 17834355/0x01102173) [8962*]:
    → "And so I'd like to lend your orb a little bit of my power, if for no other reason than to see how far down this rabbit hole goes."
278: 0x09BC [0x23] WAIT_FOR_DIALOG_INTERACTION
279: 0x09BD [0x5F] MULTI_HANDLER_COMPLEX(mode=0x07 - Wait scheduler task (OpCode 0x53))
280: 0x09CB [0x52] END_LOAD_SCHEDULER: End scheduler "s014" with entities [EventEntity, EventEntity], work=768*
281: 0x09DA [0x45] LOAD_SCHEDULED_TASK: Load scheduler "s015" with entities [EventEntity, EventEntity], work=[768*, 0*]
282: 0x09EB [0x2B] Unnamed NPC (ID: 17834355/0x01102173) [8963*]:
    → "But everything has a price. And my little surcharge would be for you to bring me an orb once wielded by your pretty princess's long-dead relative--the founder king."
283: 0x09F2 [0x23] WAIT_FOR_DIALOG_INTERACTION
284: 0x09F3 [0xBA] SET_ENTITY_POSITION(entity_id=Unnamed NPC (ID: 17834355/0x01102173), pos_x=-585.188*, pos_z=20.003*, pos_y=-8.500*, direction=358.4°*)
285: 0x0A00 [0x5B] LOAD_EXT_SCHEDULER: Load scheduler "nesl" with entities [Unnamed NPC (ID: 17834355/0x01102173), Unnamed NPC (ID: 17834355/0x01102173)], work=3585*
286: 0x0A0F [0x1C] WAIT(10* ticks)
287: 0x0A12 [0x52] END_LOAD_SCHEDULER: End scheduler "s015" with entities [EventEntity, EventEntity], work=768*
288: 0x0A21 [0x45] LOAD_SCHEDULED_TASK: Load scheduler "s016" with entities [EventEntity, EventEntity], work=[768*, 0*]
289: 0x0A32 [0x2B] Unnamed NPC (ID: 17834355/0x01102173) [8964*]:
    → "And don't mind me--I'll be over there taking a nap in the meantime."
290: 0x0A39 [0x23] WAIT_FOR_DIALOG_INTERACTION
291: 0x0A3A [0x52] END_LOAD_SCHEDULER: End scheduler "s016" with entities [EventEntity, EventEntity], work=768*
292: 0x0A49 [0x45] LOAD_SCHEDULED_TASK: Load scheduler "s017" with entities [EventEntity, EventEntity], work=[768*, 0*]
293: 0x0A5A [0x5B] LOAD_EXT_SCHEDULER: Load scheduler "shk3" with entities [Unnamed NPC (ID: 17834355/0x01102173), Unnamed NPC (ID: 17834355/0x01102173)], work=3585*
294: 0x0A69 [0x2B] Unnamed NPC (ID: 17834355/0x01102173) [8965*]:
    → "So come back when you've found it, and then we'll be on with the show!"
295: 0x0A70 [0x1C] WAIT(100* ticks)
296: 0x0A73 [0x23] WAIT_FOR_DIALOG_INTERACTION
297: 0x0A74 [0x52] END_LOAD_SCHEDULER: End scheduler "s017" with entities [EventEntity, EventEntity], work=768*
298: 0x0A83 [0x45] LOAD_SCHEDULED_TASK: Load scheduler "s018" with entities [EventEntity, EventEntity], work=[768*, 0*]
299: 0x0A94 [0x5B] LOAD_EXT_SCHEDULER: Load scheduler "tai0" with entities [Unnamed NPC (ID: 17834355/0x01102173), Unnamed NPC (ID: 17834355/0x01102173)], work=3611*
300: 0x0AA3 [0xD0] LOAD_SCHEDULED_TASK_ALT5: Load scheduler "wpie" with entities [Unnamed NPC (ID: 17834355/0x01102173), Unnamed NPC (ID: 17834355/0x01102173)], work=[9*, 0*]
301: 0x0AB4 [0x1C] WAIT(360* ticks)
302: 0x0AB7 [0x6B] STOP_AND_IDLE: Arciela (ID: 17834349/0x0110216D) stops current action and resets to idle (animation="idl0")
303: 0x0AC0 [0x52] END_LOAD_SCHEDULER: End scheduler "s018" with entities [EventEntity, EventEntity], work=768*
304: 0x0ACF [0x45] LOAD_SCHEDULED_TASK: Load scheduler "s019" with entities [EventEntity, EventEntity], work=[768*, 0*]
305: 0x0AE0 [0x4A] Arciela (ID: 17834349/0x0110216D) looks at LocalPlayer
306: 0x0AE9 [0x7B] Arciela (ID: 17834349/0x0110216D) stops talking
307: 0x0AEE [0x1C] WAIT(30* ticks)
308: 0x0AF1 [0x4A] LocalPlayer looks at Arciela (ID: 17834349/0x0110216D)
309: 0x0AFA [0x7B] LocalPlayer stops talking
310: 0x0AFF [0x5B] LOAD_EXT_SCHEDULER: Load scheduler "fj01" with entities [Arciela (ID: 17834349/0x0110216D), Arciela (ID: 17834349/0x0110216D)], work=3216*
311: 0x0B0E [0x5F] MULTI_HANDLER_COMPLEX(mode=0x05 - Load ext scheduler with flag (OpCode 0x5B mode 0, flag 1), ref=3235*, entity1=Arciela (ID: 17834349/0x0110216D), entity2=Arciela (ID: 17834349/0x0110216D), string="tlc0", extra=120*)
312: 0x0B20 [0x2B] Arciela (ID: 17834349/0x0110216D) [8966*]:
    → "One of the founder king's relics? Here? Why would even I be unaware of this?"
313: 0x0B27 [0x23] WAIT_FOR_DIALOG_INTERACTION
314: 0x0B28 [0x2B] Arciela (ID: 17834349/0x0110216D) [8967*]:
    → "And there's no way I'd entrust such an artifact to that two-faced jester."
315: 0x0B2F [0x23] WAIT_FOR_DIALOG_INTERACTION
316: 0x0B30 [0x5F] MULTI_HANDLER_COMPLEX(mode=0x07 - Wait scheduler task (OpCode 0x53))
317: 0x0B3E [0x5B] LOAD_EXT_SCHEDULER: Load scheduler "fj00" with entities [Arciela (ID: 17834349/0x0110216D), Arciela (ID: 17834349/0x0110216D)], work=3216*
318: 0x0B4D [0x52] END_LOAD_SCHEDULER: End scheduler "s019" with entities [EventEntity, EventEntity], work=768*
319: 0x0B5C [0x02] IF !(LocalPlayer->Race == 3*) GOTO 0x0B78
320: 0x0B64 [0x45] LOAD_SCHEDULED_TASK: Load scheduler "s022" with entities [EventEntity, EventEntity], work=[768*, 0*]
321: 0x0B75 [0x01] GOTO 0x0BF9
322: 0x0B78 [0x02] IF !(LocalPlayer->Race == 4*) GOTO 0x0B94
323: 0x0B80 [0x45] LOAD_SCHEDULED_TASK: Load scheduler "s022" with entities [EventEntity, EventEntity], work=[768*, 0*]
324: 0x0B91 [0x01] GOTO 0x0BF9
325: 0x0B94 [0x02] IF !(LocalPlayer->Race == 5*) GOTO 0x0BB0
326: 0x0B9C [0x45] LOAD_SCHEDULED_TASK: Load scheduler "s023" with entities [EventEntity, EventEntity], work=[768*, 0*]
327: 0x0BAD [0x01] GOTO 0x0BF9
328: 0x0BB0 [0x02] IF !(LocalPlayer->Race == 6*) GOTO 0x0BCC
329: 0x0BB8 [0x45] LOAD_SCHEDULED_TASK: Load scheduler "s023" with entities [EventEntity, EventEntity], work=[768*, 0*]
330: 0x0BC9 [0x01] GOTO 0x0BF9
331: 0x0BCC [0x02] IF !(LocalPlayer->Race == 8*) GOTO 0x0BE8
332: 0x0BD4 [0x45] LOAD_SCHEDULED_TASK: Load scheduler "s022" with entities [EventEntity, EventEntity], work=[768*, 0*]
333: 0x0BE5 [0x01] GOTO 0x0BF9
334: 0x0BE8 [0x45] LOAD_SCHEDULED_TASK: Load scheduler "s020" with entities [EventEntity, EventEntity], work=[768*, 0*]

SUBROUTINE_0BF9:
335: 0x0BF9 [0xD0] LOAD_SCHEDULED_TASK_ALT5: Load scheduler "sta1" with entities [Unnamed NPC (ID: 17834375/0x01102187), Unnamed NPC (ID: 17834375/0x01102187)], work=[103*, 0*]
336: 0x0C0A [0x1C] WAIT(120* ticks)
337: 0x0C0D [0x52] END_LOAD_SCHEDULER: End scheduler "s020" with entities [EventEntity, EventEntity], work=768*
338: 0x0C1C [0x52] END_LOAD_SCHEDULER: End scheduler "s022" with entities [EventEntity, EventEntity], work=768*
339: 0x0C2B [0x52] END_LOAD_SCHEDULER: End scheduler "s023" with entities [EventEntity, EventEntity], work=768*
340: 0x0C3A [0x02] IF !(LocalPlayer->Race == 5*) GOTO 0x0C56
341: 0x0C42 [0x45] LOAD_SCHEDULED_TASK: Load scheduler "s024" with entities [EventEntity, EventEntity], work=[768*, 0*]
342: 0x0C53 [0x01] GOTO 0x0C83
343: 0x0C56 [0x02] IF !(LocalPlayer->Race == 6*) GOTO 0x0C72
344: 0x0C5E [0x45] LOAD_SCHEDULED_TASK: Load scheduler "s024" with entities [EventEntity, EventEntity], work=[768*, 0*]
345: 0x0C6F [0x01] GOTO 0x0C83
346: 0x0C72 [0x45] LOAD_SCHEDULED_TASK: Load scheduler "s021" with entities [EventEntity, EventEntity], work=[768*, 0*]

SUBROUTINE_0C83:
347: 0x0C83 [0x27] REQ_SET(priority=0x05, entity_id=LocalPlayer, tag_num=0x35)
348: 0x0C8A [0xD0] LOAD_SCHEDULED_TASK_ALT5: Load scheduler "kil2" with entities [Unnamed NPC (ID: 17834375/0x01102187), Unnamed NPC (ID: 17834375/0x01102187)], work=[103*, 0*]
349: 0x0C9B [0x1C] WAIT(180* ticks)
350: 0x0C9E [0x6B] STOP_AND_IDLE: Arciela (ID: 17834349/0x0110216D) stops current action and resets to idle (animation="idl0")
351: 0x0CA7 [0xD0] LOAD_SCHEDULED_TASK_ALT5: Load scheduler "max0" with entities [Unnamed NPC (ID: 17834374/0x01102186), Unnamed NPC (ID: 17834374/0x01102186)], work=[150*, 0*]
352: 0x0CB8 [0x1C] WAIT(80* ticks)
353: 0x0CBB [0xD3] CLEAR_ENTITY_MOTION_QUEUE(condition_flag=0x00, entity_server_id=0x0110216D)
354: 0x0CC1 [0x5B] LOAD_EXT_SCHEDULER: Load scheduler "han0" with entities [Arciela (ID: 17834349/0x0110216D), Arciela (ID: 17834349/0x0110216D)], work=3833*
355: 0x0CD0 [0x52] END_LOAD_SCHEDULER: End scheduler "s021" with entities [EventEntity, EventEntity], work=768*
356: 0x0CDF [0x52] END_LOAD_SCHEDULER: End scheduler "s024" with entities [EventEntity, EventEntity], work=768*
357: 0x0CEE [0x45] LOAD_SCHEDULED_TASK: Load scheduler "s025" with entities [EventEntity, EventEntity], work=[768*, 0*]
358: 0x0CFF [0x1C] WAIT(90* ticks)
359: 0x0D02 [0x52] END_LOAD_SCHEDULER: End scheduler "s025" with entities [EventEntity, EventEntity], work=768*
360: 0x0D11 [0x45] LOAD_SCHEDULED_TASK: Load scheduler "s026" with entities [EventEntity, EventEntity], work=[768*, 0*]
361: 0x0D22 [0xD0] LOAD_SCHEDULED_TASK_ALT5: Load scheduler "tgt0" with entities [LocalPlayer, LocalPlayer], work=[117*, 0*]
362: 0x0D33 [0x1C] WAIT(200* ticks)
363: 0x0D36 [0x45] LOAD_SCHEDULED_TASK: Load scheduler "who1" with entities [LocalPlayer, LocalPlayer], work=[201*, 0*]
364: 0x0D47 [0x55] WAIT_LOAD_SCHEDULER: Wait for scheduler "who1" with entities [LocalPlayer, LocalPlayer], work=201*
365: 0x0D56 [0x52] END_LOAD_SCHEDULER: End scheduler "s026" with entities [EventEntity, EventEntity], work=768*
366: 0x0D65 [0xD0] LOAD_SCHEDULED_TASK_ALT5: Load scheduler "star" with entities [Unnamed NPC (ID: 17834374/0x01102186), Unnamed NPC (ID: 17834374/0x01102186)], work=[103*, 0*]
367: 0x0D76 [0x27] REQ_SET(priority=0x05, entity_id=LocalPlayer, tag_num=0x36)
368: 0x0D7D [0x45] LOAD_SCHEDULED_TASK: Load scheduler "s027" with entities [EventEntity, EventEntity], work=[768*, 0*]
369: 0x0D8E [0x1C] WAIT(15* ticks)
370: 0x0D91 [0x45] LOAD_SCHEDULED_TASK: Load scheduler "whi1" with entities [LocalPlayer, LocalPlayer], work=[201*, 0*]
371: 0x0DA2 [0x5B] LOAD_EXT_SCHEDULER: Load scheduler "han1" with entities [Arciela (ID: 17834349/0x0110216D), Arciela (ID: 17834349/0x0110216D)], work=3833*
372: 0x0DB1 [0x1C] WAIT(40* ticks)
373: 0x0DB4 [0x81] SET_ENTITY_BLINKING(blink_flag=0x01, entity=Arciela (ID: 17834349/0x0110216D))
374: 0x0DBA [0x7C] Arciela (ID: 17834349/0x0110216D)->Render.Flags2 |= 0x01
375: 0x0DC0 [0x02] IF !(ExtData[1]->WorkLocal[0] >= 2*) GOTO 0x0DDB
376: 0x0DC8 [0x2B] Arciela (ID: 17834349/0x0110216D) [8968*]:
    → "Is this...is this what fate has in store for us?"
377: 0x0DCF [0x1C] WAIT(100* ticks)
378: 0x0DD2 [0x23] WAIT_FOR_DIALOG_INTERACTION
379: 0x0DD3 [0x03] Work_Zone[3] = 0*
380: 0x0DD8 [0x01] GOTO 0x0DEB
381: 0x0DDB [0x2B] Arciela (ID: 17834349/0x0110216D) [8969*]:
    → "Ah, I can see them...the memories of the times we shared together."
382: 0x0DE2 [0x1C] WAIT(100* ticks)
383: 0x0DE5 [0x23] WAIT_FOR_DIALOG_INTERACTION
384: 0x0DE6 [0x03] Work_Zone[3] = 1*

SUBROUTINE_0DEB:
385: 0x0DEB [0x52] END_LOAD_SCHEDULER: End scheduler "s027" with entities [EventEntity, EventEntity], work=768*
386: 0x0DFA [0x45] LOAD_SCHEDULED_TASK: Load scheduler "s028" with entities [EventEntity, EventEntity], work=[768*, 0*]
387: 0x0E0B [0x5B] LOAD_EXT_SCHEDULER: Load scheduler "tlc0" with entities [Arciela (ID: 17834349/0x0110216D), Arciela (ID: 17834349/0x0110216D)], work=3235*
388: 0x0E1A [0x2B] Arciela (ID: 17834349/0x0110216D) [8970*]:
    → "I don't know why, but thinking about the journeys we [will have/had] brings me a sense of peace."
389: 0x0E21 [0x23] WAIT_FOR_DIALOG_INTERACTION
390: 0x0E22 [0x2B] Arciela (ID: 17834349/0x0110216D) [8971*]:
    → "<Player>, I know now that the right thing to do is to entrust the founder king's artifact to you."
391: 0x0E29 [0x23] WAIT_FOR_DIALOG_INTERACTION
392: 0x0E2A [0x2B] Arciela (ID: 17834349/0x0110216D) [8972*]:
    → "But my position in the city is a delicate one, and I will pretend that I never heard of such an object. So, please--do with it what you will."
393: 0x0E31 [0x23] WAIT_FOR_DIALOG_INTERACTION
394: 0x0E32 [0x52] END_LOAD_SCHEDULER: End scheduler "s028" with entities [EventEntity, EventEntity], work=768*
395: 0x0E41 [0x45] LOAD_SCHEDULED_TASK: Load scheduler "s029" with entities [EventEntity, EventEntity], work=[768*, 0*]
396: 0x0E52 [0x5B] LOAD_EXT_SCHEDULER: Load scheduler "tlc1" with entities [Arciela (ID: 17834349/0x0110216D), Arciela (ID: 17834349/0x0110216D)], work=3235*
397: 0x0E61 [0x2B] Arciela (ID: 17834349/0x0110216D) [8973*]:
    → "Just please promise me that you will share any new information you glean from Balamor."
398: 0x0E68 [0x1C] WAIT(20* ticks)
399: 0x0E6B [0x6B] STOP_AND_IDLE: LocalPlayer stops current action and resets to idle (animation="idl0")
400: 0x0E74 [0x79] LocalPlayer looks at Arciela (ID: 17834349/0x0110216D) (Basic look)
401: 0x0E7E [0xD0] LOAD_SCHEDULED_TASK_ALT5: Load scheduler "kill" with entities [Unnamed NPC (ID: 17834374/0x01102186), Unnamed NPC (ID: 17834374/0x01102186)], work=[103*, 0*]
402: 0x0E8F [0x1C] WAIT(50* ticks)
403: 0x0E92 [0x23] WAIT_FOR_DIALOG_INTERACTION
404: 0x0E93 [0x52] END_LOAD_SCHEDULER: End scheduler "s029" with entities [EventEntity, EventEntity], work=768*
405: 0x0EA2 [0x45] LOAD_SCHEDULED_TASK: Load scheduler "s030" with entities [EventEntity, EventEntity], work=[768*, 0*]
406: 0x0EB3 [0x27] REQ_SET(priority=0x05, entity_id=Arciela (ID: 17834349/0x0110216D), tag_num=0x11)
407: 0x0EBA [0x1C] WAIT(120* ticks)
408: 0x0EBD [0x45] LOAD_SCHEDULED_TASK: Load scheduler "fdo1" with entities [EventEntity, EventEntity], work=[200*, 0*]
409: 0x0ECE [0x55] WAIT_LOAD_SCHEDULER: Wait for scheduler "fdo1" with entities [EventEntity, EventEntity], work=200*
410: 0x0EDD [0x52] END_LOAD_SCHEDULER: End scheduler "s030" with entities [EventEntity, EventEntity], work=768*
411: 0x0EEC [0x29] REQ_SET_WAIT(priority=0x05, entity_id=Unnamed NPC (ID: 17834355/0x01102173), tag_num=0x12)
412: 0x0EF3 [0x29] REQ_SET_WAIT(priority=0x05, entity_id=Unnamed NPC (ID: 17834355/0x01102173), tag_num=0x0A)
413: 0x0EFA [0x1C] WAIT(60* ticks)
414: 0x0EFD [0x46] CAMERA_CONTROL: Restore default settings
415: 0x0EFF [0x45] LOAD_SCHEDULED_TASK: Load scheduler "fdi2" with entities [EventEntity, EventEntity], work=[200*, 0*]
416: 0x0F10 [0x21] END_EVENT
417: 0x0F11 [0x00] END_REQSTACK()
```

### Event 382

#### Metadata

| Field        | Value      |
|--------------|------------|
| Entrypoint   | 0x0F12     |
| Data Size    | 3710 bytes |
| Instructions | 392        |

```
      00 01 02 03 04 05 06 07  08 09 0A 0B 0C 0D 0E 0F
      -- -- -- -- -- -- -- --  -- -- -- -- -- -- -- --
0F10:       42 03 00 00 02 10  5D 01 80 67 80 1A 62 1B    B.....]..g..b.
0F20: 46 01 38 02 80 2F 00 73  21 10 01 2F 00 86 21 10  F.8../.s!../..!.
0F30: 01 4E 00 86 21 10 01 4E  00 73 21 10 01 92 01 73  .N..!..N.s!....s
0F40: 21 10 01 94 01 73 21 10  01 94 01 F0 FF FF 7F 94  !....s!.........
0F50: 01 86 21 10 01 59 05 73  21 10 01 01 59 05 86 21  ..!..Y.s!...Y..!
0F60: 10 01 01 02 87 7F 03 80  80 75 0F 27 05 F0 FF FF  .........u.'....
0F70: 7F 31 01 B2 0F 02 87 7F  04 80 80 87 0F 27 05 F0  .1...........'..
0F80: FF FF 7F 31 01 B2 0F 02  87 7F 05 80 80 99 0F 27  ...1...........'
0F90: 05 F0 FF FF 7F 32 01 B2  0F 02 87 7F 06 80 80 AB  .....2..........
0FA0: 0F 27 05 F0 FF FF 7F 33  01 B2 0F 27 05 F0 FF FF  .'.....3...'....
0FB0: 7F 34 BA 73 21 10 01 0B  80 0C 80 0D 80 0E 80 BA  .4.s!...........
0FC0: F0 FF FF 7F 76 80 77 80  09 80 78 80 BA 86 21 10  ....v.w...x...!.
0FD0: 01 0F 80 10 80 12 80 11  80 80 86 21 10 01 80 F0  ...........!....
0FE0: FF FF 7F 80 73 21 10 01  1C 1C 80 5B 21 80 73 21  ....s!.....[!.s!
0FF0: 10 01 73 21 10 01 6E 65  73 6C 79 00 F0 FF FF 7F  ..s!..nesly.....
1000: 73 21 10 01 5C 00 79 80  5C 01 79 80 9A 45 7A 80  s!..\.y.\.y..Ez.
1010: F8 FF FF 7F F8 FF FF 7F  73 30 30 30 01 80 1A 41  ........s000...A
1020: 1B 2B 73 21 10 01 7B 80  1C 3F 80 23 2B 73 21 10  .+s!..{..?.#+s!.
1030: 01 7C 80 1C 3F 80 23 52  7A 80 F8 FF FF 7F F8 FF  .|..?.#Rz.......
1040: FF 7F 73 30 30 30 45 7A  80 F8 FF FF 7F F8 FF FF  ..s000Ez........
1050: 7F 73 30 30 31 01 80 5F  05 21 80 73 21 10 01 73  .s001.._.!.s!..s
1060: 21 10 01 73 68 6B 33 2D  80 1C 3F 80 2B 73 21 10  !..shk3-..?.+s!.
1070: 01 7D 80 1C 3F 80 23 2B  73 21 10 01 7E 80 1C 3F  .}..?.#+s!..~..?
1080: 80 23 5F 07 73 21 10 01  73 21 10 01 73 68 6B 33  .#_.s!..s!..shk3
1090: 52 7A 80 F8 FF FF 7F F8  FF FF 7F 73 30 30 31 45  Rz.........s001E
10A0: 7A 80 F8 FF FF 7F F8 FF  FF 7F 73 30 30 32 01 80  z.........s002..
10B0: 5B 7F 80 73 21 10 01 73  21 10 01 6E 69 73 30 2B  [..s!..s!..nis0+
10C0: 73 21 10 01 80 80 1C 67  80 23 52 7A 80 F8 FF FF  s!.....g.#Rz....
10D0: 7F F8 FF FF 7F 73 30 30  32 45 7A 80 F8 FF FF 7F  .....s002Ez.....
10E0: F8 FF FF 7F 73 30 30 33  01 80 5B 7F 80 73 21 10  ....s003..[..s!.
10F0: 01 73 21 10 01 6E 69 73  31 2B 73 21 10 01 81 80  .s!..nis1+s!....
1100: 1C 4F 80 23 2B 73 21 10  01 82 80 1C 67 80 23 24  .O.#+s!.....g.#$
1110: 83 80 01 80 01 80 25 02  00 10 01 80 00 2E 11 6E  ......%........n
1120: F0 FF FF 7F 84 80 99 F0  FF FF 7F 01 57 11 02 00  ............W...
1130: 10 2E 80 00 45 11 6E F0  FF FF 7F 85 80 99 F0 FF  ....E.n.........
1140: FF 7F 01 57 11 02 00 10  5D 80 00 57 11 29 10 F0  ...W....]..W.)..
1150: FF FF 7F 24 01 57 11 1C  67 80 52 7A 80 F8 FF FF  ...$.W..g.Rz....
1160: 7F F8 FF FF 7F 73 30 30  33 45 7A 80 F8 FF FF 7F  .....s003Ez.....
1170: F8 FF FF 7F 73 30 30 34  01 80 5B 34 80 73 21 10  ....s004..[4.s!.
1180: 01 73 21 10 01 79 61 72  30 2B 73 21 10 01 86 80  .s!..yar0+s!....
1190: 23 53 73 21 10 01 73 21  10 01 79 61 72 30 2B 73  #Ss!..s!..yar0+s
11A0: 21 10 01 87 80 1C 3F 80  23 52 7A 80 F8 FF FF 7F  !.....?.#Rz.....
11B0: F8 FF FF 7F 73 30 30 34  02 87 7F 03 80 80 D4 11  ....s004........
11C0: 45 7A 80 F8 FF FF 7F F8  FF FF 7F 73 30 30 36 01  Ez.........s006.
11D0: 80 01 01 12 02 87 7F 04  80 80 F0 11 45 7A 80 F8  ............Ez..
11E0: FF FF 7F F8 FF FF 7F 73  30 30 36 01 80 01 01 12  .......s006.....
11F0: 45 7A 80 F8 FF FF 7F F8  FF FF 7F 73 30 30 35 01  Ez.........s005.
1200: 80 27 05 F0 FF FF 7F 26  1C 67 80 1A 62 1B 1C 1C  .'.....&.g..b...
1210: 80 52 7A 80 F8 FF FF 7F  F8 FF FF 7F 73 30 30 35  .Rz.........s005
1220: 52 7A 80 F8 FF FF 7F F8  FF FF 7F 73 30 30 36 48  Rz.........s006H
1230: 88 80 23 D0 89 80 86 21  10 01 86 21 10 01 73 30  ..#....!...!..s0
1240: 30 31 01 80 5B 8A 80 86  21 10 01 86 21 10 01 73  01..[...!...!..s
1250: 70 72 30 D0 8B 80 86 21  10 01 86 21 10 01 73 68  pr0....!...!..sh
1260: 6F 31 01 80 1C 20 80 45  7A 80 F8 FF FF 7F F8 FF  o1... .Ez.......
1270: FF 7F 73 30 30 37 01 80  1A 41 1B 02 00 00 01 80  ..s007...A......
1280: 00 8B 12 03 02 10 01 80  01 90 12 03 02 10 2E 80  ................
1290: 2B 73 21 10 01 8C 80 1C  8D 80 52 7A 80 F8 FF FF  +s!.......Rz....
12A0: 7F F8 FF FF 7F 73 30 30  37 45 7A 80 F8 FF FF 7F  .....s007Ez.....
12B0: F8 FF FF 7F 73 30 30 38  01 80 5B 8A 80 86 21 10  ....s008..[...!.
12C0: 01 86 21 10 01 73 70 72  31 D0 8B 80 86 21 10 01  ..!..spr1....!..
12D0: 86 21 10 01 73 68 6F 32  01 80 1C 67 80 1A 62 1B  .!..sho2...g..b.
12E0: 1C 1C 80 52 7A 80 F8 FF  FF 7F F8 FF FF 7F 73 30  ...Rz.........s0
12F0: 30 38 D0 89 80 86 21 10  01 86 21 10 01 6B 6C 30  08....!...!..kl0
1300: 31 01 80 27 05 86 21 10  01 03 BA 86 21 10 01 0B  1..'..!.....!...
1310: 80 0C 80 0D 80 0E 80 80  86 21 10 01 1C 1C 80 5F  .........!....._
1320: 03 8E 80 73 21 10 01 73  21 10 01 7A 62 6F 31 5F  ...s!..s!..zbo1_
1330: 03 8F 80 86 21 10 01 86  21 10 01 6F 72 62 30 1C  ....!...!..orb0.
1340: 1C 80 45 7A 80 F8 FF FF  7F F8 FF FF 7F 73 30 30  ..Ez.........s00
1350: 39 01 80 1A 41 1B 2B 73  21 10 01 90 80 23 2B 73  9...A.+s!....#+s
1360: 21 10 01 91 80 23 5D 01  80 67 80 52 7A 80 F8 FF  !....#]..g.Rz...
1370: FF 7F F8 FF FF 7F 73 30  30 39 45 7A 80 F8 FF FF  ......s009Ez....
1380: 7F F8 FF FF 7F 73 30 31  30 01 80 2B 73 21 10 01  .....s010..+s!..
1390: 92 80 23 27 05 67 21 10  01 14 1C 1D 80 5C 00 93  ..#'.g!......\..
13A0: 80 5C 01 93 80 9A 52 7A  80 F8 FF FF 7F F8 FF FF  .\....Rz........
13B0: 7F 73 30 31 30 45 7A 80  F8 FF FF 7F F8 FF FF 7F  .s010Ez.........
13C0: 73 30 31 31 01 80 5F 03  94 80 73 21 10 01 73 21  s011.._...s!..s!
13D0: 10 01 6F 72 62 31 5F 03  8F 80 86 21 10 01 86 21  ..orb1_....!...!
13E0: 10 01 6F 72 62 31 1C 95  80 5B 94 80 73 21 10 01  ..orb1...[..s!..
13F0: 73 21 10 01 6F 72 62 32  D0 96 80 73 21 10 01 73  s!..orb2...s!..s
1400: 21 10 01 73 30 30 31 01  80 D5 97 80 73 21 10 01  !..s001.....s!..
1410: 73 21 10 01 70 6F 6E 30  01 80 1C 1D 80 52 7A 80  s!..pon0.....Rz.
1420: F8 FF FF 7F F8 FF FF 7F  73 30 31 31 45 7A 80 F8  ........s011Ez..
1430: FF FF 7F F8 FF FF 7F 73  30 31 32 01 80 55 7A 80  .......s012..Uz.
1440: F8 FF FF 7F F8 FF FF 7F  73 30 31 32 52 7A 80 F8  ........s012Rz..
1450: FF FF 7F F8 FF FF 7F 73  30 34 30 45 7A 80 F8 FF  .......s040Ez...
1460: FF 7F F8 FF FF 7F 73 30  31 33 01 80 1C 67 80 2B  ......s013...g.+
1470: 73 21 10 01 98 80 1C 3F  80 23 2B 73 21 10 01 99  s!.....?.#+s!...
1480: 80 1C 3F 80 23 52 7A 80  F8 FF FF 7F F8 FF FF 7F  ..?.#Rz.........
1490: 73 30 31 33 02 87 7F 03  80 80 B0 14 45 7A 80 F8  s013........Ez..
14A0: FF FF 7F F8 FF FF 7F 73  30 30 36 01 80 01 DD 14  .......s006.....
14B0: 02 87 7F 04 80 80 CC 14  45 7A 80 F8 FF FF 7F F8  ........Ez......
14C0: FF FF 7F 73 30 30 36 01  80 01 DD 14 45 7A 80 F8  ...s006.....Ez..
14D0: FF FF 7F F8 FF FF 7F 73  30 30 35 01 80 45 7A 80  .......s005..Ez.
14E0: F8 FF FF 7F F8 FF FF 7F  30 62 6C 66 01 80 6E F0  ........0blf..n.
14F0: FF FF 7F 85 80 99 F0 FF  FF 7F 1C 1C 80 6B 69 64  .............kid
1500: 6C 30 73 21 10 01 1C 4F  80 52 7A 80 F8 FF FF 7F  l0s!...O.Rz.....
1510: F8 FF FF 7F 73 30 30 35  52 7A 80 F8 FF FF 7F F8  ....s005Rz......
1520: FF FF 7F 73 30 30 36 45  7A 80 F8 FF FF 7F F8 FF  ...s006Ez.......
1530: FF 7F 73 30 31 34 01 80  5B 3D 80 73 21 10 01 73  ..s014..[=.s!..s
1540: 21 10 01 74 68 6B 30 2B  73 21 10 01 9A 80 23 52  !..thk0+s!....#R
1550: 7A 80 F8 FF FF 7F F8 FF  FF 7F 73 30 31 34 45 7A  z.........s014Ez
1560: 80 F8 FF FF 7F F8 FF FF  7F 73 30 31 35 01 80 2B  .........s015..+
1570: 73 21 10 01 9B 80 23 2B  73 21 10 01 9C 80 23 5C  s!....#+s!....#\
1580: A0 01 80 67 80 5C A1 01  80 9D 80 1A 62 1B 1C 1C  ...g.\......b...
1590: 80 52 7A 80 F8 FF FF 7F  F8 FF FF 7F 73 30 31 35  .Rz.........s015
15A0: 27 05 86 21 10 01 04 BA  86 21 10 01 76 80 77 80  '..!.....!..v.w.
15B0: 09 80 78 80 BA 73 21 10  01 0F 80 10 80 12 80 11  ..x..s!.........
15C0: 80 80 73 21 10 01 80 86  21 10 01 1C 1C 80 D0 89  ..s!....!.......
15D0: 80 73 21 10 01 73 21 10  01 73 30 30 31 01 80 02  .s!..s!..s001...
15E0: 87 7F 2E 80 80 FA 15 5F  03 56 80 86 21 10 01 86  ......._.V..!...
15F0: 21 10 01 68 6D 6D 6C 01  B7 16 02 87 7F 5D 80 80  !..hmml......]..
1600: 15 16 5F 03 56 80 86 21  10 01 86 21 10 01 68 66  .._.V..!...!..hf
1610: 6D 6C 01 B7 16 02 87 7F  13 80 80 30 16 5F 03 56  ml.........0._.V
1620: 80 86 21 10 01 86 21 10  01 65 6D 6D 6C 01 B7 16  ..!...!..emml...
1630: 02 87 7F 18 80 80 4B 16  5F 03 56 80 86 21 10 01  ......K._.V..!..
1640: 86 21 10 01 65 66 6D 6C  01 B7 16 02 87 7F 03 80  .!..efml........
1650: 80 66 16 5F 03 56 80 86  21 10 01 86 21 10 01 74  .f._.V..!...!..t
1660: 6D 61 6C 01 B7 16 02 87  7F 04 80 80 81 16 5F 03  mal..........._.
1670: 56 80 86 21 10 01 86 21  10 01 74 6D 61 6C 01 B7  V..!...!..tmal..
1680: 16 02 87 7F 05 80 80 9C  16 5F 03 56 80 86 21 10  ........._.V..!.
1690: 01 86 21 10 01 6D 6D 61  6C 01 B7 16 02 87 7F 06  ..!..mmal.......
16A0: 80 80 B7 16 5F 03 56 80  86 21 10 01 86 21 10 01  ...._.V..!...!..
16B0: 67 6D 61 6C 01 B7 16 5B  47 80 73 21 10 01 73 21  gmal...[G.s!..s!
16C0: 10 01 6B 69 6D 31 5C 00  9E 80 5C 01 9E 80 9A 48  ..kim1\...\....H
16D0: 88 80 23 45 7A 80 F8 FF  FF 7F F8 FF FF 7F 73 30  ..#Ez.........s0
16E0: 31 36 01 80 1A 09 1D 89  9F 80 1C 4F 80 B4 14 A0  16.........O....
16F0: 80 A0 80 A1 80 01 80 2E  80 1C 1C 80 B4 14 A0 80  ................
1700: A0 80 A0 80 95 80 2E 80  03 02 10 35 80 27 10 67  ...........5.'.g
1710: 21 10 01 01 1A F7 1C 2B  73 21 10 01 A2 80 23 2B  !......+s!....#+
1720: 73 21 10 01 A3 80 23 2A  10 67 21 10 01 1A 09 1D  s!....#*.g!.....
1730: 89 A4 80 1C 4F 80 B4 14  A0 80 A0 80 A1 80 01 80  ....O...........
1740: 2E 80 1C 1C 80 B4 14 A0  80 A0 80 A0 80 95 80 2E  ................
1750: 80 03 02 10 35 80 27 10  67 21 10 01 01 1A F7 1C  ....5.'.g!......
1760: 2B 73 21 10 01 A5 80 23  2B 73 21 10 01 A6 80 23  +s!....#+s!....#
1770: 2A 10 67 21 10 01 B4 14  A7 80 A8 80 00 80 A0 80  *.g!............
1780: 2E 80 45 00 80 F8 FF FF  7F F8 FF FF 7F 66 64 69  ..E..........fdi
1790: 31 01 80 03 02 10 9D 80  27 10 67 21 10 01 01 2B  1.......'.g!...+
17A0: 73 21 10 01 A9 80 23 2A  10 67 21 10 01 1A 62 1B  s!....#*.g!...b.
17B0: 1C 1C 80 52 7A 80 F8 FF  FF 7F F8 FF FF 7F 73 30  ...Rz.........s0
17C0: 31 36 D0 89 80 73 21 10  01 73 21 10 01 6B 6C 30  16...s!..s!..kl0
17D0: 31 01 80 6B 69 64 6C 30  73 21 10 01 BA 73 21 10  1..kidl0s!...s!.
17E0: 01 0B 80 0C 80 0D 80 0E  80 80 73 21 10 01 1A 09  ..........s!....
17F0: 1D 8A B4 15 1A F7 1C 45  7A 80 F8 FF FF 7F F8 FF  .......Ez.......
1800: FF 7F 73 30 31 37 01 80  1A 41 1B 5B 7F 80 73 21  ..s017...A.[..s!
1810: 10 01 73 21 10 01 6E 69  73 30 2B 73 21 10 01 AA  ..s!..nis0+s!...
1820: 80 1C 67 80 23 52 7A 80  F8 FF FF 7F F8 FF FF 7F  ..g.#Rz.........
1830: 73 30 31 37 45 7A 80 F8  FF FF 7F F8 FF FF 7F 73  s017Ez.........s
1840: 30 31 38 01 80 5F 05 7F  80 73 21 10 01 73 21 10  018.._...s!..s!.
1850: 01 6E 69 73 31 AB 80 2B  73 21 10 01 AC 80 23 2B  .nis1..+s!....#+
1860: 73 21 10 01 AD 80 23 5F  07 73 21 10 01 73 21 10  s!....#_.s!..s!.
1870: 01 6E 69 73 31 52 7A 80  F8 FF FF 7F F8 FF FF 7F  .nis1Rz.........
1880: 73 30 31 38 45 7A 80 F8  FF FF 7F F8 FF FF 7F 73  s018Ez.........s
1890: 30 31 39 01 80 5F 05 7F  80 73 21 10 01 73 21 10  019.._...s!..s!.
18A0: 01 74 6C 6B 30 6A 80 2B  73 21 10 01 AE 80 23 2B  .tlk0j.+s!....#+
18B0: 73 21 10 01 AF 80 23 5F  07 73 21 10 01 73 21 10  s!....#_.s!..s!.
18C0: 01 74 6C 6B 30 5F 05 7F  80 73 21 10 01 73 21 10  .tlk0_...s!..s!.
18D0: 01 74 6C 6B 31 2D 80 2B  73 21 10 01 B0 80 23 5F  .tlk1-.+s!....#_
18E0: 07 73 21 10 01 73 21 10  01 74 6C 6B 31 52 7A 80  .s!..s!..tlk1Rz.
18F0: F8 FF FF 7F F8 FF FF 7F  73 30 31 39 45 7A 80 F8  ........s019Ez..
1900: FF FF 7F F8 FF FF 7F 73  30 32 30 01 80 5B 3D 80  .......s020..[=.
1910: 73 21 10 01 73 21 10 01  74 68 6B 30 2B 73 21 10  s!..s!..thk0+s!.
1920: 01 B1 80 1C 1C 80 7B F0  FF FF 7F 1C 4F 80 23 52  ......{.....O.#R
1930: 7A 80 F8 FF FF 7F F8 FF  FF 7F 73 30 32 30 02 87  z.........s020..
1940: 7F 03 80 80 5A 19 45 7A  80 F8 FF FF 7F F8 FF FF  ....Z.Ez........
1950: 7F 73 30 32 32 01 80 01  87 19 02 87 7F 04 80 80  .s022...........
1960: 76 19 45 7A 80 F8 FF FF  7F F8 FF FF 7F 73 30 32  v.Ez.........s02
1970: 32 01 80 01 87 19 45 7A  80 F8 FF FF 7F F8 FF FF  2.....Ez........
1980: 7F 73 30 32 31 01 80 27  05 F0 FF FF 7F 35 1C 00  .s021..'.....5..
1990: 80 52 7A 80 F8 FF FF 7F  F8 FF FF 7F 73 30 32 31  .Rz.........s021
19A0: 52 7A 80 F8 FF FF 7F F8  FF FF 7F 73 30 32 32 45  Rz.........s022E
19B0: 7A 80 F8 FF FF 7F F8 FF  FF 7F 73 30 32 33 01 80  z.........s023..
19C0: 5B B2 80 73 21 10 01 73  21 10 01 6B 61 65 30 1C  [..s!..s!..kae0.
19D0: 4F 80 D0 20 80 86 21 10  01 86 21 10 01 6D 61 78  O.. ..!...!..max
19E0: 30 01 80 1C 35 80 52 7A  80 F8 FF FF 7F F8 FF FF  0...5.Rz........
19F0: 7F 73 30 32 33 45 7A 80  F8 FF FF 7F F8 FF FF 7F  .s023Ez.........
1A00: 73 30 32 34 01 80 5B B3  80 73 21 10 01 73 21 10  s024..[..s!..s!.
1A10: 01 74 6C 62 30 2B 73 21  10 01 B4 80 1C 75 80 4E  .tlb0+s!.....u.N
1A20: 01 86 21 10 01 6B 69 64  6C 30 F0 FF FF 7F 79 00  ..!..kidl0....y.
1A30: F0 FF FF 7F 73 21 10 01  1C 4F 80 23 5B B3 80 73  ....s!...O.#[..s
1A40: 21 10 01 73 21 10 01 74  6C 62 31 2B 73 21 10 01  !..s!..tlb1+s!..
1A50: B5 80 1C 6A 80 23 52 7A  80 F8 FF FF 7F F8 FF FF  ...j.#Rz........
1A60: 7F 73 30 32 34 45 7A 80  F8 FF FF 7F F8 FF FF 7F  .s024Ez.........
1A70: 73 30 32 35 01 80 5B 63  80 73 21 10 01 73 21 10  s025..[c.s!..s!.
1A80: 01 74 61 69 30 D0 64 80  73 21 10 01 73 21 10 01  .tai0.d.s!..s!..
1A90: 77 70 69 65 01 80 5C A0  01 80 9D 80 5C A1 01 80  wpie..\.....\...
1AA0: B6 80 1C 65 80 1A 62 1B  1C 1C 80 52 7A 80 F8 FF  ...e..b....Rz...
1AB0: FF 7F F8 FF FF 7F 73 30  32 35 45 7A 80 F8 FF FF  ......s025Ez....
1AC0: 7F F8 FF FF 7F 30 62 6C  66 01 80 29 05 73 21 10  .....0blf..).s!.
1AD0: 01 12 29 05 73 21 10 01  0A 80 73 21 10 01 1C 1C  ..).s!....s!....
1AE0: 80 5C 00 B7 80 5C 01 B7  80 9A 46 00 45 00 80 F8  .\...\....F.E...
1AF0: FF FF 7F F8 FF FF 7F 66  64 69 32 01 80 21 00 45  .......fdi2..!.E
1B00: 00 80 F0 FF FF 7F F0 FF  FF 7F 66 64 69 30 01 80  ..........fdi0..
1B10: 55 00 80 F0 FF FF 7F F0  FF FF 7F 66 64 69 30 1B  U..........fdi0.
1B20: 45 00 80 F0 FF FF 7F F0  FF FF 7F 66 64 6F 30 01  E..........fdo0.
1B30: 80 55 00 80 F0 FF FF 7F  F0 FF FF 7F 66 64 6F 30  .U..........fdo0
1B40: 1B 45 00 80 F0 FF FF 7F  F0 FF FF 7F 66 64 69 31  .E..........fdi1
1B50: 01 80 55 00 80 F0 FF FF  7F F0 FF FF 7F 66 64 69  ..U..........fdi
1B60: 31 1B 45 00 80 F0 FF FF  7F F0 FF FF 7F 66 64 6F  1.E..........fdo
1B70: 31 01 80 55 00 80 F0 FF  FF 7F F0 FF FF 7F 66 64  1..U..........fd
1B80: 6F 31 1B 45 6D 80 F0 FF  FF 7F F0 FF FF 7F 77 68  o1.Em.........wh
1B90: 69 31 01 80 55 6D 80 F0  FF FF 7F F0 FF FF 7F 77  i1..Um.........w
1BA0: 68 69 31 1B 45 6D 80 F0  FF FF 7F F0 FF FF 7F 77  hi1.Em.........w
1BB0: 68 6F 31 01 80 55 6D 80  F0 FF FF 7F F0 FF FF 7F  ho1..Um.........
1BC0: 77 68 6F 31 1B 45 6D 80  F0 FF FF 7F F0 FF FF 7F  who1.Em.........
1BD0: 77 68 6F 32 01 80 55 6D  80 F0 FF FF 7F F0 FF FF  who2..Um........
1BE0: 7F 77 68 6F 32 1B 45 6D  80 F0 FF FF 7F F0 FF FF  .who2.Em........
1BF0: 7F 77 68 6F 33 01 80 55  6D 80 F0 FF FF 7F F0 FF  .who3..Um.......
1C00: FF 7F 77 68 6F 33 1B 62  2E 80 F0 FF FF 7F F0 FF  ..who3.b........
1C10: FF 7F 6D 61 69 6E 01 80  1C B8 80 45 00 80 F0 FF  ..main.....E....
1C20: FF 7F F0 FF FF 7F 66 64  6F 31 01 80 55 00 80 F0  ......fdo1..U...
1C30: FF FF 7F F0 FF FF 7F 66  64 6F 31 1B 45 00 80 F0  .......fdo1.E...
1C40: FF FF 7F F0 FF FF 7F 66  64 69 31 01 80 62 5D 80  .......fdi1..b].
1C50: F0 FF FF 7F F0 FF FF 7F  6D 61 69 6E 01 80 1C 1C  ........main....
1C60: 80 55 00 80 F0 FF FF 7F  F0 FF FF 7F 66 64 69 31  .U..........fdi1
1C70: 1B 45 00 80 F0 FF FF 7F  F0 FF FF 7F 62 6C 6F 6E  .E..........blon
1C80: 01 80 45 6D 80 F0 FF FF  7F F0 FF FF 7F 62 6C 6F  ..Em.........blo
1C90: 6E 01 80 1B 45 6D 80 F0  FF FF 7F F0 FF FF 7F 77  n...Em.........w
1CA0: 68 69 30 01 80 55 6D 80  F0 FF FF 7F F0 FF FF 7F  hi0..Um.........
1CB0: 77 68 69 30 1B 45 6D 80  F0 FF FF 7F F0 FF FF 7F  whi0.Em.........
1CC0: 77 68 6F 30 01 80 55 6D  80 F0 FF FF 7F F0 FF FF  who0..Um........
1CD0: 7F 77 68 6F 30 1B 45 B9  80 F0 FF FF 7F F0 FF FF  .who0.E.........
1CE0: 7F 65 66 6F 6E 01 80 55  B9 80 F0 FF FF 7F F0 FF  .efon..U........
1CF0: FF 7F 65 66 6F 6E 1B 45  00 80 F0 FF FF 7F F0 FF  ..efon.E........
1D00: FF 7F 66 64 69 73 01 80  1B 45 00 80 F0 FF FF 7F  ..fdis...E......
1D10: F0 FF FF 7F 66 64 6F 73  01 80 55 00 80 F0 FF FF  ....fdos..U.....
1D20: 7F F0 FF FF 7F 66 64 6F  73 1B 45 00 80 F0 FF FF  .....fdos.E.....
1D30: 7F F0 FF FF 7F 66 64 69  66 01 80 1B 45 00 80 F0  .....fdif...E...
1D40: FF FF 7F F0 FF FF 7F 66  64 6F 66 01 80 55 00 80  .......fdof..U..
1D50: F0 FF FF 7F F0 FF FF 7F  66 64 6F 66 1B 45 00 80  ........fdof.E..
1D60: F0 FF FF 7F F0 FF FF 7F  66 64 69 70 01 80 1B 45  ........fdip...E
1D70: 00 80 F0 FF FF 7F F0 FF  FF 7F 66 64 6F 70 01 80  ..........fdop..
1D80: 55 00 80 F0 FF FF 7F F0  FF FF 7F 66 64 6F 70 1B  U..........fdop.
```

#### Opcodes

```
  0: 0x0F12 [0x42] SET_CLI_EVENT_CANCEL_DATA()
  1: 0x0F13 [0x03] ExtData[1]->WorkLocal[0] = Work_Zone[2]
  2: 0x0F18 [0x5D] SET_MUSIC_VOLUME(volume=0*, fade_time=120*)
  3: 0x0F1D [0x1A] CALL_SUBROUTINE(address=0x1B62)
  4: 0x0F20 [0x46] CAMERA_CONTROL: Disable user control
  5: 0x0F22 [0x38] SET_CLIENT_EVENT_MODE(mode=27*)
  6: 0x0F25 [0x2F] Unnamed NPC (ID: 17834355/0x01102173)->Render.Flags0 &= ~0x80000 // Bit 19
  7: 0x0F2B [0x2F] Unnamed NPC (ID: 17834374/0x01102186)->Render.Flags0 &= ~0x80000 // Bit 19
  8: 0x0F31 [0x4E] SET_ENTITY_HIDE_FLAG: Show Unnamed NPC (ID: 17834374/0x01102186)
  9: 0x0F37 [0x4E] SET_ENTITY_HIDE_FLAG: Show Unnamed NPC (ID: 17834355/0x01102173)
 10: 0x0F3D [0x92] Unnamed NPC (ID: 17834355/0x01102173)->Render.Flags3 ^= 0x01
 11: 0x0F43 [0x94] Unnamed NPC (ID: 17834355/0x01102173)->Render.Flags3 ^= 0x01
 12: 0x0F49 [0x94] LocalPlayer->Render.Flags3 ^= 0x01
 13: 0x0F4F [0x94] Unnamed NPC (ID: 17834374/0x01102186)->Render.Flags3 ^= 0x01
 14: 0x0F55 [0x59] UPDATE_ENTITY_DATA: Unnamed NPC (ID: 17834355/0x01102173)->Render.Flags0 |= 0x200000
 15: 0x0F5C [0x59] UPDATE_ENTITY_DATA: Unnamed NPC (ID: 17834374/0x01102186)->Render.Flags0 |= 0x200000
 16: 0x0F63 [0x02] IF !(LocalPlayer->Race == 5*) GOTO 0x0F75
 17: 0x0F6B [0x27] REQ_SET(priority=0x05, entity_id=LocalPlayer, tag_num=0x31)
 18: 0x0F72 [0x01] GOTO 0x0FB2
 19: 0x0F75 [0x02] IF !(LocalPlayer->Race == 6*) GOTO 0x0F87
 20: 0x0F7D [0x27] REQ_SET(priority=0x05, entity_id=LocalPlayer, tag_num=0x31)
 21: 0x0F84 [0x01] GOTO 0x0FB2
 22: 0x0F87 [0x02] IF !(LocalPlayer->Race == 7*) GOTO 0x0F99
 23: 0x0F8F [0x27] REQ_SET(priority=0x05, entity_id=LocalPlayer, tag_num=0x32)
 24: 0x0F96 [0x01] GOTO 0x0FB2
 25: 0x0F99 [0x02] IF !(LocalPlayer->Race == 8*) GOTO 0x0FAB
 26: 0x0FA1 [0x27] REQ_SET(priority=0x05, entity_id=LocalPlayer, tag_num=0x33)
 27: 0x0FA8 [0x01] GOTO 0x0FB2
 28: 0x0FAB [0x27] REQ_SET(priority=0x05, entity_id=LocalPlayer, tag_num=0x34)

SUBROUTINE_0FB2:
 29: 0x0FB2 [0xBA] SET_ENTITY_POSITION(entity_id=Unnamed NPC (ID: 17834355/0x01102173), pos_x=-585.188*, pos_z=20.003*, pos_y=-8.500*, direction=358.4°*)
 30: 0x0FBF [0xBA] SET_ENTITY_POSITION(entity_id=LocalPlayer, pos_x=-580.648*, pos_z=20.050*, pos_y=-7.500*, direction=182.7°*)
 31: 0x0FCC [0xBA] SET_ENTITY_POSITION(entity_id=Unnamed NPC (ID: 17834374/0x01102186), pos_x=-575.254*, pos_z=18.926*, pos_y=-750.000*, direction=185.9°*)
 32: 0x0FD9 [0x80] LOAD_WAIT(entity=Unnamed NPC (ID: 17834374/0x01102186))
 33: 0x0FDE [0x80] LOAD_WAIT(entity=LocalPlayer)
 34: 0x0FE3 [0x80] LOAD_WAIT(entity=Unnamed NPC (ID: 17834355/0x01102173))
 35: 0x0FE8 [0x1C] WAIT(30* ticks)
 36: 0x0FEB [0x5B] LOAD_EXT_SCHEDULER: Load scheduler "nesl" with entities [Unnamed NPC (ID: 17834355/0x01102173), Unnamed NPC (ID: 17834355/0x01102173)], work=3585*
 37: 0x0FFA [0x79] LocalPlayer looks at Unnamed NPC (ID: 17834355/0x01102173) (Basic look)
 38: 0x1004 [0x5C] MUSIC_CONTROL: Set Idle (Day) music to song 68*
 39: 0x1008 [0x5C] MUSIC_CONTROL: Set Idle (Night) music to song 68*
 40: 0x100C [0x9A] WAIT_MUSIC_SERVER()
 41: 0x100D [0x45] LOAD_SCHEDULED_TASK: Load scheduler "s000" with entities [EventEntity, EventEntity], work=[795*, 0*]
 42: 0x101E [0x1A] CALL_SUBROUTINE(address=0x1B41)
 43: 0x1021 [0x2B] Unnamed NPC (ID: 17834355/0x01102173) [8974*]:
    → "It all began with a stone, or so the legend says.t"
 44: 0x1028 [0x1C] WAIT(90* ticks)
 45: 0x102B [0x23] WAIT_FOR_DIALOG_INTERACTION
 46: 0x102C [0x2B] Unnamed NPC (ID: 17834355/0x01102173) [8975*]:
    → "In ages past, a sentient jewel, enormous and beautiful, banished the darkness. Its many-colored light filled the world with life and brought forth mighty gods.t"
 47: 0x1033 [0x1C] WAIT(90* ticks)
 48: 0x1036 [0x23] WAIT_FOR_DIALOG_INTERACTION
 49: 0x1037 [0x52] END_LOAD_SCHEDULER: End scheduler "s000" with entities [EventEntity, EventEntity], work=795*
 50: 0x1046 [0x45] LOAD_SCHEDULED_TASK: Load scheduler "s001" with entities [EventEntity, EventEntity], work=[795*, 0*]
 51: 0x1057 [0x5F] MULTI_HANDLER_COMPLEX(mode=0x05 - Load ext scheduler with flag (OpCode 0x5B mode 0, flag 1), ref=3585*, entity1=Unnamed NPC (ID: 17834355/0x01102173), entity2=Unnamed NPC (ID: 17834355/0x01102173), string="shk3", extra=100*)
 52: 0x1069 [0x1C] WAIT(90* ticks)
 53: 0x106C [0x2B] Unnamed NPC (ID: 17834355/0x01102173) [8976*]:
    → "What a quaint little ditty, wouldn't you say? And one which a Middle Lander such as yourself would have heard many times before."
 54: 0x1073 [0x1C] WAIT(90* ticks)
 55: 0x1076 [0x23] WAIT_FOR_DIALOG_INTERACTION
 56: 0x1077 [0x2B] Unnamed NPC (ID: 17834355/0x01102173) [8977*]:
    → "It began with a stone. A many-colored light banishing the darkness."
 57: 0x107E [0x1C] WAIT(90* ticks)
 58: 0x1081 [0x23] WAIT_FOR_DIALOG_INTERACTION
 59: 0x1082 [0x5F] MULTI_HANDLER_COMPLEX(mode=0x07 - Wait scheduler task (OpCode 0x53))
 60: 0x1090 [0x52] END_LOAD_SCHEDULER: End scheduler "s001" with entities [EventEntity, EventEntity], work=795*
 61: 0x109F [0x45] LOAD_SCHEDULED_TASK: Load scheduler "s002" with entities [EventEntity, EventEntity], work=[795*, 0*]
 62: 0x10B0 [0x5B] LOAD_EXT_SCHEDULER: Load scheduler "nis0" with entities [Unnamed NPC (ID: 17834355/0x01102173), Unnamed NPC (ID: 17834355/0x01102173)], work=3612*
 63: 0x10BF [0x2B] Unnamed NPC (ID: 17834355/0x01102173) [8978*]:
    → "But neither of us really thinks that the "darkness" is the Emptiness, hmm?"
 64: 0x10C6 [0x1C] WAIT(120* ticks)
 65: 0x10C9 [0x23] WAIT_FOR_DIALOG_INTERACTION
 66: 0x10CA [0x52] END_LOAD_SCHEDULER: End scheduler "s002" with entities [EventEntity, EventEntity], work=795*
 67: 0x10D9 [0x45] LOAD_SCHEDULED_TASK: Load scheduler "s003" with entities [EventEntity, EventEntity], work=[795*, 0*]
 68: 0x10EA [0x5B] LOAD_EXT_SCHEDULER: Load scheduler "nis1" with entities [Unnamed NPC (ID: 17834355/0x01102173), Unnamed NPC (ID: 17834355/0x01102173)], work=3612*
 69: 0x10F9 [0x2B] Unnamed NPC (ID: 17834355/0x01102173) [8979*]:
    → "It's the Void."
 70: 0x1100 [0x1C] WAIT(60* ticks)
 71: 0x1103 [0x23] WAIT_FOR_DIALOG_INTERACTION
 72: 0x1104 [0x2B] Unnamed NPC (ID: 17834355/0x01102173) [8980*]:
    → "And what threatens your lovely friend's future isn't the Emptiness either. Once again--it's the Void."
 73: 0x110B [0x1C] WAIT(120* ticks)
 74: 0x110E [0x23] WAIT_FOR_DIALOG_INTERACTION
 75: 0x110F [0x24] CREATE_DIALOG(message_id=8981*, default_option=0*, option_flags=0*)
    → "How do you respond? ["Void"?/With a capital "V"?/Meaning that there's nothing?]"
 76: 0x1116 [0x25] WAIT_DIALOG_SELECT()
 77: 0x1117 [0x02] IF !(Work_Zone[0] == 0*) GOTO 0x112E
 78: 0x111F [0x6E] LocalPlayer uses emote 22*
 79: 0x1126 [0x99] Wait for LocalPlayer animation to complete
 80: 0x112B [0x01] GOTO 0x1157
 81: 0x112E [0x02] IF !(Work_Zone[0] == 1*) GOTO 0x1145
 82: 0x1136 [0x6E] LocalPlayer uses emote 32*
 83: 0x113D [0x99] Wait for LocalPlayer animation to complete
 84: 0x1142 [0x01] GOTO 0x1157
 85: 0x1145 [0x02] IF !(Work_Zone[0] == 2*) GOTO 0x1157
 86: 0x114D [0x29] REQ_SET_WAIT(priority=0x10, entity_id=LocalPlayer, tag_num=0x24)
 87: 0x1154 [0x01] GOTO 0x1157

SUBROUTINE_1157:
 88: 0x1157 [0x1C] WAIT(120* ticks)
 89: 0x115A [0x52] END_LOAD_SCHEDULER: End scheduler "s003" with entities [EventEntity, EventEntity], work=795*
 90: 0x1169 [0x45] LOAD_SCHEDULED_TASK: Load scheduler "s004" with entities [EventEntity, EventEntity], work=[795*, 0*]
 91: 0x117A [0x5B] LOAD_EXT_SCHEDULER: Load scheduler "yar0" with entities [Unnamed NPC (ID: 17834355/0x01102173), Unnamed NPC (ID: 17834355/0x01102173)], work=3580*
 92: 0x1189 [0x2B] Unnamed NPC (ID: 17834355/0x01102173) [8982*]:
    → "Isn't it your job to put the pieces together? Because it's certainly not mine."
 93: 0x1190 [0x23] WAIT_FOR_DIALOG_INTERACTION
 94: 0x1191 [0x53] WAIT_SCHEDULER_TASK: Wait for scheduler "yar0" with entities [Unnamed NPC (ID: 17834355/0x01102173), Unnamed NPC (ID: 17834355/0x01102173)]
 95: 0x119E [0x2B] Unnamed NPC (ID: 17834355/0x01102173) [8983*]:
    → "Come now. Less standing around stupefied and more handing me the founder king's orb."
 96: 0x11A5 [0x1C] WAIT(90* ticks)
 97: 0x11A8 [0x23] WAIT_FOR_DIALOG_INTERACTION
 98: 0x11A9 [0x52] END_LOAD_SCHEDULER: End scheduler "s004" with entities [EventEntity, EventEntity], work=795*
 99: 0x11B8 [0x02] IF !(LocalPlayer->Race == 5*) GOTO 0x11D4
100: 0x11C0 [0x45] LOAD_SCHEDULED_TASK: Load scheduler "s006" with entities [EventEntity, EventEntity], work=[795*, 0*]
101: 0x11D1 [0x01] GOTO 0x1201
102: 0x11D4 [0x02] IF !(LocalPlayer->Race == 6*) GOTO 0x11F0
103: 0x11DC [0x45] LOAD_SCHEDULED_TASK: Load scheduler "s006" with entities [EventEntity, EventEntity], work=[795*, 0*]
104: 0x11ED [0x01] GOTO 0x1201
105: 0x11F0 [0x45] LOAD_SCHEDULED_TASK: Load scheduler "s005" with entities [EventEntity, EventEntity], work=[795*, 0*]

SUBROUTINE_1201:
106: 0x1201 [0x27] REQ_SET(priority=0x05, entity_id=LocalPlayer, tag_num=0x26)
107: 0x1208 [0x1C] WAIT(120* ticks)
108: 0x120B [0x1A] CALL_SUBROUTINE(address=0x1B62)
109: 0x120E [0x1C] WAIT(30* ticks)
110: 0x1211 [0x52] END_LOAD_SCHEDULER: End scheduler "s005" with entities [EventEntity, EventEntity], work=795*
111: 0x1220 [0x52] END_LOAD_SCHEDULER: End scheduler "s006" with entities [EventEntity, EventEntity], work=795*
112: 0x122F [0x48] [System] [7897*]:
    → ""
113: 0x1232 [0x23] WAIT_FOR_DIALOG_INTERACTION
114: 0x1233 [0xD0] LOAD_SCHEDULED_TASK_ALT5: Load scheduler "s001" with entities [Unnamed NPC (ID: 17834374/0x01102186), Unnamed NPC (ID: 17834374/0x01102186)], work=[145*, 0*]
115: 0x1244 [0x5B] LOAD_EXT_SCHEDULER: Load scheduler "spr0" with entities [Unnamed NPC (ID: 17834374/0x01102186), Unnamed NPC (ID: 17834374/0x01102186)], work=3357*
116: 0x1253 [0xD0] LOAD_SCHEDULED_TASK_ALT5: Load scheduler "sho1" with entities [Unnamed NPC (ID: 17834374/0x01102186), Unnamed NPC (ID: 17834374/0x01102186)], work=[49*, 0*]
117: 0x1264 [0x1C] WAIT(150* ticks)
118: 0x1267 [0x45] LOAD_SCHEDULED_TASK: Load scheduler "s007" with entities [EventEntity, EventEntity], work=[795*, 0*]
119: 0x1278 [0x1A] CALL_SUBROUTINE(address=0x1B41)
120: 0x127B [0x02] IF !(ExtData[1]->WorkLocal[0] == 0*) GOTO 0x128B
121: 0x1283 [0x03] Work_Zone[2] = 0*
122: 0x1288 [0x01] GOTO 0x1290
123: 0x128B [0x03] Work_Zone[2] = 1*

SUBROUTINE_1290:
124: 0x1290 [0x2B] Unnamed NPC (ID: 17834355/0x01102173) [8984*]:
    → "Some thousand years ago, Adoulin's founder king, August, came across enormous magical power and sealed away [a near omnipotent being/Hades], who came to learn of a place called Tartarus."
125: 0x1297 [0x1C] WAIT(420* ticks)
126: 0x129A [0x52] END_LOAD_SCHEDULER: End scheduler "s007" with entities [EventEntity, EventEntity], work=795*
127: 0x12A9 [0x45] LOAD_SCHEDULED_TASK: Load scheduler "s008" with entities [EventEntity, EventEntity], work=[795*, 0*]
128: 0x12BA [0x5B] LOAD_EXT_SCHEDULER: Load scheduler "spr1" with entities [Unnamed NPC (ID: 17834374/0x01102186), Unnamed NPC (ID: 17834374/0x01102186)], work=3357*
129: 0x12C9 [0xD0] LOAD_SCHEDULED_TASK_ALT5: Load scheduler "sho2" with entities [Unnamed NPC (ID: 17834374/0x01102186), Unnamed NPC (ID: 17834374/0x01102186)], work=[49*, 0*]
130: 0x12DA [0x1C] WAIT(120* ticks)
131: 0x12DD [0x1A] CALL_SUBROUTINE(address=0x1B62)
132: 0x12E0 [0x1C] WAIT(30* ticks)
133: 0x12E3 [0x52] END_LOAD_SCHEDULER: End scheduler "s008" with entities [EventEntity, EventEntity], work=795*
134: 0x12F2 [0xD0] LOAD_SCHEDULED_TASK_ALT5: Load scheduler "kl01" with entities [Unnamed NPC (ID: 17834374/0x01102186), Unnamed NPC (ID: 17834374/0x01102186)], work=[145*, 0*]
135: 0x1303 [0x27] REQ_SET(priority=0x05, entity_id=Unnamed NPC (ID: 17834374/0x01102186), tag_num=0x03)
136: 0x130A [0xBA] SET_ENTITY_POSITION(entity_id=Unnamed NPC (ID: 17834374/0x01102186), pos_x=-585.188*, pos_z=20.003*, pos_y=-8.500*, direction=358.4°*)
137: 0x1317 [0x80] LOAD_WAIT(entity=Unnamed NPC (ID: 17834374/0x01102186))
138: 0x131C [0x1C] WAIT(30* ticks)
139: 0x131F [0x5F] MULTI_HANDLER_COMPLEX(mode=0x03 - Load ext scheduler (OpCode 0x5B mode 0), ref=3613*, entity1=Unnamed NPC (ID: 17834355/0x01102173), entity2=Unnamed NPC (ID: 17834355/0x01102173), string="zbo1")
140: 0x132F [0x5F] MULTI_HANDLER_COMPLEX(mode=0x03 - Load ext scheduler (OpCode 0x5B mode 0), ref=3848*, entity1=Unnamed NPC (ID: 17834374/0x01102186), entity2=Unnamed NPC (ID: 17834374/0x01102186), string="orb0")
141: 0x133F [0x1C] WAIT(30* ticks)
142: 0x1342 [0x45] LOAD_SCHEDULED_TASK: Load scheduler "s009" with entities [EventEntity, EventEntity], work=[795*, 0*]
143: 0x1353 [0x1A] CALL_SUBROUTINE(address=0x1B41)
144: 0x1356 [0x2B] Unnamed NPC (ID: 17834355/0x01102173) [8985*]:
    → "And the "enormous magical power" is central to how the story unfolds."
145: 0x135D [0x23] WAIT_FOR_DIALOG_INTERACTION
146: 0x135E [0x2B] Unnamed NPC (ID: 17834355/0x01102173) [8986*]:
    → "And he came in contact with my homeland...the place where I was born."
147: 0x1365 [0x23] WAIT_FOR_DIALOG_INTERACTION
148: 0x1366 [0x5D] SET_MUSIC_VOLUME(volume=0*, fade_time=120*)
149: 0x136B [0x52] END_LOAD_SCHEDULER: End scheduler "s009" with entities [EventEntity, EventEntity], work=795*
150: 0x137A [0x45] LOAD_SCHEDULED_TASK: Load scheduler "s010" with entities [EventEntity, EventEntity], work=[795*, 0*]
151: 0x138B [0x2B] Unnamed NPC (ID: 17834355/0x01102173) [8987*]:
    → "Yes, this orb...is from my world."
152: 0x1392 [0x23] WAIT_FOR_DIALOG_INTERACTION
153: 0x1393 [0x27] REQ_SET(priority=0x05, entity_id=??? (ID: 17834343/0x01102167), tag_num=0x14)
154: 0x139A [0x1C] WAIT(10* ticks)
155: 0x139D [0x5C] MUSIC_CONTROL: Set Idle (Day) music to song 74*
156: 0x13A1 [0x5C] MUSIC_CONTROL: Set Idle (Night) music to song 74*
