# 17834274 - Kyff

## Common Data

| Field            | Value                    |
|------------------|--------------------------|
| Zone             | Rala Waterways (ID: 258) |
| Block Size       | 268 bytes                |
| Total Events     | 7                        |
| References Count | 22                       |

## List of Events

| Event ID                 | Entrypoint   |   Size |   Instructions |
|--------------------------|--------------|--------|----------------|
| [65535](#event-65535)    | 0x0000       |      1 |              1 |
| [323](#event-323)        | 0x0001       |      7 |              2 |
| [65535.1](#event-655351) | 0x0008       |     19 |              5 |
| [65535.2](#event-655352) | 0x001B       |     37 |              7 |
| [65535.3](#event-655353) | 0x0040       |     29 |              5 |
| [327](#event-327)        | 0x005D       |     21 |              2 |
| [65535.4](#event-655354) | 0x0072       |     21 |              2 |

## DAT References (imed_data)

|   Index | Hex Value   |   Dec Value |
|---------|-------------|-------------|
|       0 | 0x0028      |          40 |
|       1 | 0xFFFB2786  |  4294649734 |
|       2 | 0xFFFB1887  |  4294645895 |
|       3 | 0xFFFFFC18  |  4294966296 |
|       4 | 0xFFFB0B9F  |  4294642591 |
|       5 | 0xFFFB1E5B  |  4294647387 |
|       6 | 0xFFFFFBE6  |  4294966246 |
|       7 | 0x001E      |          30 |
|       8 | 0x0047      |          71 |
|       9 | 0xFFFB18B5  |  4294645941 |
|      10 | 0xFFFB1E1E  |  4294647326 |
|      11 | 0x0009      |           9 |
|      12 | 0x0001      |           1 |
|      13 | 0x0000      |           0 |
|      14 | 0x0008      |           8 |
|      15 | 0x0002      |           2 |
|      16 | 0x000E      |          14 |
|      17 | 0x002C      |          44 |
|      18 | 0x0087      |         135 |
|      19 | 0x0060      |          96 |
|      20 | 0x0085      |         133 |
|      21 | 0x0053      |          83 |

## Events

### Event 65535

#### Metadata

| Field        | Value   |
|--------------|---------|
| Entrypoint   | 0x0000  |
| Data Size    | 1 bytes |
| Instructions | 1       |

```
      00 01 02 03 04 05 06 07  08 09 0A 0B 0C 0D 0E 0F
      -- -- -- -- -- -- -- --  -- -- -- -- -- -- -- --
0000: 00                                                .               
```

#### Opcodes

```
  0: 0x0000 [0x00] END_REQSTACK()
```

### Event 323

#### Metadata

| Field        | Value   |
|--------------|---------|
| Entrypoint   | 0x0001  |
| Data Size    | 7 bytes |
| Instructions | 2       |

```
      00 01 02 03 04 05 06 07  08 09 0A 0B 0C 0D 0E 0F
      -- -- -- -- -- -- -- --  -- -- -- -- -- -- -- --
0000:    92 01 F8 FF FF 7F 00                            .......        
```

#### Opcodes

```
  0: 0x0001 [0x92] EventEntity->Render.Flags3 ^= 0x01
  1: 0x0007 [0x00] END_REQSTACK()
```

### Event 65535.1

#### Metadata

| Field        | Value    |
|--------------|----------|
| Entrypoint   | 0x0008   |
| Data Size    | 19 bytes |
| Instructions | 5        |

```
      00 01 02 03 04 05 06 07  08 09 0A 0B 0C 0D 0E 0F
      -- -- -- -- -- -- -- --  -- -- -- -- -- -- -- --
0000:                          32 00 80 1F 00 01 80 02          2.......
0010: 80 03 80 1F 01 1E 21 21  10 01 00                 ......!!...     
```

#### Opcodes

```
  0: 0x0008 [0x32] ExtData[1]->MainSpeed = 40* * 0.1
  1: 0x000B [0x1F] MOVE_ENTITY: EventEntity moves to X=-317.562*, Z=-321.401*, Y=-1.000*
  2: 0x0013 [0x1F] MOVE_ENTITY: Update entity position (mode=1)
  3: 0x0015 [0x1E] EventEntity looks at Erisa (ID: 17834273/0x01102121) and starts talking
  4: 0x001A [0x00] END_REQSTACK()
```

### Event 65535.2

#### Metadata

| Field        | Value    |
|--------------|----------|
| Entrypoint   | 0x001B   |
| Data Size    | 37 bytes |
| Instructions | 7        |

```
      00 01 02 03 04 05 06 07  08 09 0A 0B 0C 0D 0E 0F
      -- -- -- -- -- -- -- --  -- -- -- -- -- -- -- --
0010:                                   32 00 80 1F 00             2....
0020: 04 80 05 80 06 80 1F 01  1E F0 FF FF 7F 1C 07 80  ................
0030: 66 08 80 22 21 10 01 22  21 10 01 70 61 73 30 00  f.."!.."!..pas0.
```

#### Opcodes

```
  0: 0x001B [0x32] ExtData[1]->MainSpeed = 40* * 0.1
  1: 0x001E [0x1F] MOVE_ENTITY: EventEntity moves to X=-324.705*, Z=-319.909*, Y=-1.050*
  2: 0x0026 [0x1F] MOVE_ENTITY: Update entity position (mode=1)
  3: 0x0028 [0x1E] EventEntity looks at LocalPlayer and starts talking
  4: 0x002D [0x1C] WAIT(30* ticks)
  5: 0x0030 [0x66] LOAD_EXT_SCHEDULER_MAIN: Load scheduler "pas0" with entities [Kyff (ID: 17834274/0x01102122), Kyff (ID: 17834274/0x01102122)], work=71*
  6: 0x003F [0x00] END_REQSTACK()
```

### Event 65535.3

#### Metadata

| Field        | Value    |
|--------------|----------|
| Entrypoint   | 0x0040   |
| Data Size    | 29 bytes |
| Instructions | 5        |

```
      00 01 02 03 04 05 06 07  08 09 0A 0B 0C 0D 0E 0F
      -- -- -- -- -- -- -- --  -- -- -- -- -- -- -- --
0040: 32 00 80 1F 00 09 80 0A  80 06 80 1F 01 66 0B 80  2............f..
0050: 22 21 10 01 22 21 10 01  73 68 61 30 00           "!.."!..sha0.   
```

#### Opcodes

```
  0: 0x0040 [0x32] ExtData[1]->MainSpeed = 40* * 0.1
  1: 0x0043 [0x1F] MOVE_ENTITY: EventEntity moves to X=-321.355*, Z=-319.970*, Y=-1.050*
  2: 0x004B [0x1F] MOVE_ENTITY: Update entity position (mode=1)
  3: 0x004D [0x66] LOAD_EXT_SCHEDULER_MAIN: Load scheduler "sha0" with entities [Kyff (ID: 17834274/0x01102122), Kyff (ID: 17834274/0x01102122)], work=9*
  4: 0x005C [0x00] END_REQSTACK()
```

### Event 327

#### Metadata

| Field        | Value    |
|--------------|----------|
| Entrypoint   | 0x005D   |
| Data Size    | 21 bytes |
| Instructions | 2        |

```
      00 01 02 03 04 05 06 07  08 09 0A 0B 0C 0D 0E 0F
      -- -- -- -- -- -- -- --  -- -- -- -- -- -- -- --
0050:                                         B6 0B 0C               ...
0060: 80 0C 80 0D 80 0E 80 0E  80 0E 80 0E 80 0D 80 0D  ................
0070: 80 00                                             ..              
```

#### Opcodes

```
  0: 0x005D [0xB6] ENTITY_APPEARANCE_HANDLER(case=Full entity look, race=1*, hair=1*, head=0*, body=8*, hands=8*, legs=8*, feet=8*, main=0*, sub=0*)
  1: 0x0071 [0x00] END_REQSTACK()
```

### Event 65535.4

#### Metadata

| Field        | Value    |
|--------------|----------|
| Entrypoint   | 0x0072   |
| Data Size    | 21 bytes |
| Instructions | 2        |

```
      00 01 02 03 04 05 06 07  08 09 0A 0B 0C 0D 0E 0F
      -- -- -- -- -- -- -- --  -- -- -- -- -- -- -- --
0070:       B6 0B 0C 80 0F 80  10 80 11 80 12 80 13 80    ..............
0080: 14 80 15 80 0D 80 00                              .......         
```

#### Opcodes

```
  0: 0x0072 [0xB6] ENTITY_APPEARANCE_HANDLER(case=Full entity look, race=1*, hair=2*, head=14*, body=44*, hands=135*, legs=96*, feet=133*, main=83*, sub=0*)
  1: 0x0086 [0x00] END_REQSTACK()
```
