# 17834329

## Common Data

| Field            | Value                    |
|------------------|--------------------------|
| Zone             | Rala Waterways (ID: 258) |
| Block Size       | 60 bytes                 |
| Total Events     | 2                        |
| References Count | 2                        |

## List of Events

| Event ID              | Entrypoint   |   Size |   Instructions |
|-----------------------|--------------|--------|----------------|
| [65535](#event-65535) | 0x0000       |      1 |              1 |
| [364](#event-364)     | 0x0001       |     25 |              9 |

## DAT References (imed_data)

|   Index | Hex Value   |   Dec Value |
|---------|-------------|-------------|
|       0 | 0x0014      |          20 |
|       1 | 0x1FC7      |        8135 |

## String References

- **8135**: A crumpled sheet of parchment rests at the bottom of the chest.

## Events

### Event 65535

#### Metadata

| Field        | Value   |
|--------------|---------|
| Entrypoint   | 0x0000  |
| Data Size    | 1 bytes |
| Instructions | 1       |

```
      00 01 02 03 04 05 06 07  08 09 0A 0B 0C 0D 0E 0F
      -- -- -- -- -- -- -- --  -- -- -- -- -- -- -- --
0000: 00                                                .               
```

#### Opcodes

```
  0: 0x0000 [0x00] END_REQSTACK()
```

### Event 364

#### Metadata

| Field        | Value    |
|--------------|----------|
| Entrypoint   | 0x0001   |
| Data Size    | 25 bytes |
| Instructions | 9        |

```
      00 01 02 03 04 05 06 07  08 09 0A 0B 0C 0D 0E 0F
      -- -- -- -- -- -- -- --  -- -- -- -- -- -- -- --
0000:    42 4A F0 FF FF 7F F8  FF FF 7F 6F 76 F0 FF FF   BJ........ov...
0010: 7F 1C 00 80 48 01 80 23  21 00                    ....H..#!.      
```

#### Opcodes

```
  0: 0x0001 [0x42] SET_CLI_EVENT_CANCEL_DATA()
  1: 0x0002 [0x4A] LocalPlayer looks at EventEntity
  2: 0x000B [0x6F] WAIT_FRAME_DELAY: Yield until WaitTime reaches zero
  3: 0x000C [0x76] CHECK_ENTITY_RENDER_FLAGS: Wait until LocalPlayer Render.Flags0 and Render.Flags3 conditions are met
  4: 0x0011 [0x1C] WAIT(20* ticks)
  5: 0x0014 [0x48] [System] [8135*]:
    → "A crumpled sheet of parchment rests at the bottom of the chest."
  6: 0x0017 [0x23] WAIT_FOR_DIALOG_INTERACTION
  7: 0x0018 [0x21] END_EVENT
  8: 0x0019 [0x00] END_REQSTACK()
```
