# 17834273 - Erisa

## Common Data

| Field            | Value                    |
|------------------|--------------------------|
| Zone             | Rala Waterways (ID: 258) |
| Block Size       | 248 bytes                |
| Total Events     | 7                        |
| References Count | 21                       |

## List of Events

| Event ID                 | Entrypoint   |   Size |   Instructions |
|--------------------------|--------------|--------|----------------|
| [65535](#event-65535)    | 0x0000       |      1 |              1 |
| [323](#event-323)        | 0x0001       |      1 |              1 |
| [65535.1](#event-655351) | 0x0002       |     19 |              5 |
| [65535.2](#event-655352) | 0x0015       |     19 |              5 |
| [65535.3](#event-655353) | 0x0028       |     34 |              8 |
| [327](#event-327)        | 0x004A       |     24 |              3 |
| [65535.4](#event-655354) | 0x0062       |     22 |              3 |

## DAT References (imed_data)

|   Index | Hex Value   |   Dec Value |
|---------|-------------|-------------|
|       0 | 0x0028      |          40 |
|       1 | 0xFFFB19A5  |  4294646181 |
|       2 | 0xFFFB5096  |  4294660246 |
|       3 | 0xFFFFFC18  |  4294966296 |
|       4 | 0xFFFB1D67  |  4294647143 |
|       5 | 0xFFFB13D3  |  4294644691 |
|       6 | 0xFFFFFBE6  |  4294966246 |
|       7 | 0x000D      |          13 |
|       8 | 0xFFFB21AD  |  4294648237 |
|       9 | 0xFFFAE077  |  4294631543 |
|      10 | 0xFFFB2770  |  4294649712 |
|      11 | 0xFFFADE1C  |  4294630940 |
|      12 | 0xFFFB4A12  |  4294658578 |
|      13 | 0xFFFADD76  |  4294630774 |
|      14 | 0x0004      |           4 |
|      15 | 0x0002      |           2 |
|      16 | 0x0000      |           0 |
|      17 | 0x0008      |           8 |
|      18 | 0x0007      |           7 |
|      19 | 0x002F      |          47 |
|      20 | 0x0134      |         308 |

## Events

### Event 65535

#### Metadata

| Field        | Value   |
|--------------|---------|
| Entrypoint   | 0x0000  |
| Data Size    | 1 bytes |
| Instructions | 1       |

```
      00 01 02 03 04 05 06 07  08 09 0A 0B 0C 0D 0E 0F
      -- -- -- -- -- -- -- --  -- -- -- -- -- -- -- --
0000: 00                                                .               
```

#### Opcodes

```
  0: 0x0000 [0x00] END_REQSTACK()
```

### Event 323

#### Metadata

| Field        | Value   |
|--------------|---------|
| Entrypoint   | 0x0001  |
| Data Size    | 1 bytes |
| Instructions | 1       |

```
      00 01 02 03 04 05 06 07  08 09 0A 0B 0C 0D 0E 0F
      -- -- -- -- -- -- -- --  -- -- -- -- -- -- -- --
0000:    00                                              .              
```

#### Opcodes

```
  0: 0x0001 [0x00] END_REQSTACK()
```

### Event 65535.1

#### Metadata

| Field        | Value    |
|--------------|----------|
| Entrypoint   | 0x0002   |
| Data Size    | 19 bytes |
| Instructions | 5        |

```
      00 01 02 03 04 05 06 07  08 09 0A 0B 0C 0D 0E 0F
      -- -- -- -- -- -- -- --  -- -- -- -- -- -- -- --
0000:       32 00 80 1F 00 01  80 02 80 03 80 1F 01 1E    2.............
0010: F0 FF FF 7F 00                                    .....           
```

#### Opcodes

```
  0: 0x0002 [0x32] ExtData[1]->MainSpeed = 40* * 0.1
  1: 0x0005 [0x1F] MOVE_ENTITY: EventEntity moves to X=-321.115*, Z=-307.050*, Y=-1.000*
  2: 0x000D [0x1F] MOVE_ENTITY: Update entity position (mode=1)
  3: 0x000F [0x1E] EventEntity looks at LocalPlayer and starts talking
  4: 0x0014 [0x00] END_REQSTACK()
```

### Event 65535.2

#### Metadata

| Field        | Value    |
|--------------|----------|
| Entrypoint   | 0x0015   |
| Data Size    | 19 bytes |
| Instructions | 5        |

```
      00 01 02 03 04 05 06 07  08 09 0A 0B 0C 0D 0E 0F
      -- -- -- -- -- -- -- --  -- -- -- -- -- -- -- --
0010:                32 00 80  1F 00 04 80 05 80 06 80       2..........
0020: 1F 01 1E 24 21 10 01 00                           ...$!...        
```

#### Opcodes

```
  0: 0x0015 [0x32] ExtData[1]->MainSpeed = 40* * 0.1
  1: 0x0018 [0x1F] MOVE_ENTITY: EventEntity moves to X=-320.153*, Z=-322.605*, Y=-1.050*
  2: 0x0020 [0x1F] MOVE_ENTITY: Update entity position (mode=1)
  3: 0x0022 [0x1E] EventEntity looks at Unnamed NPC (ID: 17834276/0x01102124) and starts talking
  4: 0x0027 [0x00] END_REQSTACK()
```

### Event 65535.3

#### Metadata

| Field        | Value    |
|--------------|----------|
| Entrypoint   | 0x0028   |
| Data Size    | 34 bytes |
| Instructions | 8        |

```
      00 01 02 03 04 05 06 07  08 09 0A 0B 0C 0D 0E 0F
      -- -- -- -- -- -- -- --  -- -- -- -- -- -- -- --
0020:                          32 07 80 1F 00 08 80 09          2.......
0030: 80 03 80 1F 01 1F 00 0A  80 0B 80 03 80 1F 01 1F  ................
0040: 00 0C 80 0D 80 03 80 1F  01 00                    ..........      
```

#### Opcodes

```
  0: 0x0028 [0x32] ExtData[1]->MainSpeed = 13* * 0.1
  1: 0x002B [0x1F] MOVE_ENTITY: EventEntity moves to X=-319.059*, Z=-335.753*, Y=-1.000*
  2: 0x0033 [0x1F] MOVE_ENTITY: Update entity position (mode=1)
  3: 0x0035 [0x1F] MOVE_ENTITY: EventEntity moves to X=-317.584*, Z=-336.356*, Y=-1.000*
  4: 0x003D [0x1F] MOVE_ENTITY: Update entity position (mode=1)
  5: 0x003F [0x1F] MOVE_ENTITY: EventEntity moves to X=-308.718*, Z=-336.522*, Y=-1.000*
  6: 0x0047 [0x1F] MOVE_ENTITY: Update entity position (mode=1)
  7: 0x0049 [0x00] END_REQSTACK()
```

### Event 327

#### Metadata

| Field        | Value    |
|--------------|----------|
| Entrypoint   | 0x004A   |
| Data Size    | 24 bytes |
| Instructions | 3        |

```
      00 01 02 03 04 05 06 07  08 09 0A 0B 0C 0D 0E 0F
      -- -- -- -- -- -- -- --  -- -- -- -- -- -- -- --
0040:                                B6 0B 0E 80 0F 80            ......
0050: 10 80 11 80 11 80 11 80  11 80 10 80 10 80 95 10  ................
0060: 80 00                                             ..              
```

#### Opcodes

```
  0: 0x004A [0xB6] ENTITY_APPEARANCE_HANDLER(case=Full entity look, race=4*, hair=2*, head=0*, body=8*, hands=8*, legs=8*, feet=8*, main=0*, sub=0*)
  1: 0x005E [0x95] SETUP_EVENT_NPC: Prepare NPC for event (Render.Flags3 = 0*)
  2: 0x0061 [0x00] END_REQSTACK()
```

### Event 65535.4

#### Metadata

| Field        | Value    |
|--------------|----------|
| Entrypoint   | 0x0062   |
| Data Size    | 22 bytes |
| Instructions | 3        |

```
      00 01 02 03 04 05 06 07  08 09 0A 0B 0C 0D 0E 0F
      -- -- -- -- -- -- -- --  -- -- -- -- -- -- -- --
0060:       B6 0B 0F 80 12 80  10 80 13 80 14 80 14 80    ..............
0070: 14 80 10 80 10 80 96 00                           ........        
```

#### Opcodes

```
  0: 0x0062 [0xB6] ENTITY_APPEARANCE_HANDLER(case=Full entity look, race=2*, hair=7*, head=0*, body=47*, hands=308*, legs=308*, feet=308*, main=0*, sub=0*)
  1: 0x0076 [0x96] UNSET_EVENT_NPC: Restore NPC after event (removes event NPC status)
  2: 0x0077 [0x00] END_REQSTACK()
```
