# 17834343

## Common Data

| Field            | Value                    |
|------------------|--------------------------|
| Zone             | Rala Waterways (ID: 258) |
| Block Size       | 680 bytes                |
| Total Events     | 21                       |
| References Count | 15                       |

## List of Events

| Event ID                   | Entrypoint   |   Size |   Instructions |
|----------------------------|--------------|--------|----------------|
| [65535](#event-65535)      | 0x0000       |      1 |              1 |
| [65535.1](#event-655351)   | 0x0001       |      4 |              2 |
| [65535.2](#event-655352)   | 0x0005       |      4 |              2 |
| [0](#event-0)              | 0x0009       |      1 |              1 |
| [343](#event-343)          | 0x000A       |      1 |              1 |
| [352](#event-352)          | 0x000B       |      1 |              1 |
| [359](#event-359)          | 0x000C       |      1 |              1 |
| [353](#event-353)          | 0x000D       |      1 |              1 |
| [65535.3](#event-655353)   | 0x000E       |    117 |             15 |
| [368](#event-368)          | 0x0083       |      1 |              1 |
| [65535.4](#event-655354)   | 0x0084       |     38 |              4 |
| [65535.5](#event-655355)   | 0x00AA       |     35 |              3 |
| [65535.6](#event-655356)   | 0x00CD       |     35 |              3 |
| [65535.7](#event-655357)   | 0x00F0       |     35 |              3 |
| [65535.8](#event-655358)   | 0x0113       |    140 |             10 |
| [65535.9](#event-655359)   | 0x019F       |     33 |              3 |
| [369](#event-369)          | 0x01C0       |      1 |              1 |
| [374](#event-374)          | 0x01C1       |      1 |              1 |
| [382](#event-382)          | 0x01C2       |      1 |              1 |
| [65535.10](#event-6553510) | 0x01C3       |     33 |              3 |
| [65535.11](#event-6553511) | 0x01E4       |     33 |              3 |

## DAT References (imed_data)

|   Index | Hex Value   |   Dec Value |
|---------|-------------|-------------|
|       0 | 0x00D1      |         209 |
|       1 | 0x000A      |          10 |
|       2 | 0x001E      |          30 |
|       3 | 0x000F      |          15 |
|       4 | 0x03BE      |         958 |
|       5 | 0x00A5      |         165 |
|       6 | 0x00F5      |         245 |
|       7 | 0x0000      |           0 |
|       8 | 0x0293      |         659 |
|       9 | 0x0096      |         150 |
|      10 | 0x0E00      |        3584 |
|      11 | 0x0DEF      |        3567 |
|      12 | 0x0E1D      |        3613 |
|      13 | 0x0F08      |        3848 |
|      14 | 0x0F0D      |        3853 |

## Events

### Event 65535

#### Metadata

| Field        | Value   |
|--------------|---------|
| Entrypoint   | 0x0000  |
| Data Size    | 1 bytes |
| Instructions | 1       |

```
      00 01 02 03 04 05 06 07  08 09 0A 0B 0C 0D 0E 0F
      -- -- -- -- -- -- -- --  -- -- -- -- -- -- -- --
0000: 00                                                .               
```

#### Opcodes

```
  0: 0x0000 [0x00] END_REQSTACK()
```

### Event 65535.1

#### Metadata

| Field        | Value   |
|--------------|---------|
| Entrypoint   | 0x0001  |
| Data Size    | 4 bytes |
| Instructions | 2       |

```
      00 01 02 03 04 05 06 07  08 09 0A 0B 0C 0D 0E 0F
      -- -- -- -- -- -- -- --  -- -- -- -- -- -- -- --
0000:    1C 02 10 00                                     ....           
```

#### Opcodes

```
  0: 0x0001 [0x1C] WAIT(Work_Zone[2] ticks)
  1: 0x0004 [0x00] END_REQSTACK()
```

### Event 65535.2

#### Metadata

| Field        | Value   |
|--------------|---------|
| Entrypoint   | 0x0005  |
| Data Size    | 4 bytes |
| Instructions | 2       |

```
      00 01 02 03 04 05 06 07  08 09 0A 0B 0C 0D 0E 0F
      -- -- -- -- -- -- -- --  -- -- -- -- -- -- -- --
0000:                1C 04 10  00                            ....       
```

#### Opcodes

```
  0: 0x0005 [0x1C] WAIT(Work_Zone[4] ticks)
  1: 0x0008 [0x00] END_REQSTACK()
```

### Event 0

#### Metadata

| Field        | Value   |
|--------------|---------|
| Entrypoint   | 0x0009  |
| Data Size    | 1 bytes |
| Instructions | 1       |

```
      00 01 02 03 04 05 06 07  08 09 0A 0B 0C 0D 0E 0F
      -- -- -- -- -- -- -- --  -- -- -- -- -- -- -- --
0000:                             00                             .      
```

#### Opcodes

```
  0: 0x0009 [0x00] END_REQSTACK()
```

### Event 343

#### Metadata

| Field        | Value   |
|--------------|---------|
| Entrypoint   | 0x000A  |
| Data Size    | 1 bytes |
| Instructions | 1       |

```
      00 01 02 03 04 05 06 07  08 09 0A 0B 0C 0D 0E 0F
      -- -- -- -- -- -- -- --  -- -- -- -- -- -- -- --
0000:                                00                           .     
```

#### Opcodes

```
  0: 0x000A [0x00] END_REQSTACK()
```

### Event 352

#### Metadata

| Field        | Value   |
|--------------|---------|
| Entrypoint   | 0x000B  |
| Data Size    | 1 bytes |
| Instructions | 1       |

```
      00 01 02 03 04 05 06 07  08 09 0A 0B 0C 0D 0E 0F
      -- -- -- -- -- -- -- --  -- -- -- -- -- -- -- --
0000:                                   00                         .    
```

#### Opcodes

```
  0: 0x000B [0x00] END_REQSTACK()
```

### Event 359

#### Metadata

| Field        | Value   |
|--------------|---------|
| Entrypoint   | 0x000C  |
| Data Size    | 1 bytes |
| Instructions | 1       |

```
      00 01 02 03 04 05 06 07  08 09 0A 0B 0C 0D 0E 0F
      -- -- -- -- -- -- -- --  -- -- -- -- -- -- -- --
0000:                                      00                       .   
```

#### Opcodes

```
  0: 0x000C [0x00] END_REQSTACK()
```

### Event 353

#### Metadata

| Field        | Value   |
|--------------|---------|
| Entrypoint   | 0x000D  |
| Data Size    | 1 bytes |
| Instructions | 1       |

```
      00 01 02 03 04 05 06 07  08 09 0A 0B 0C 0D 0E 0F
      -- -- -- -- -- -- -- --  -- -- -- -- -- -- -- --
0000:                                         00                     .  
```

#### Opcodes

```
  0: 0x000D [0x00] END_REQSTACK()
```

### Event 65535.3

#### Metadata

| Field        | Value     |
|--------------|-----------|
| Entrypoint   | 0x000E    |
| Data Size    | 117 bytes |
| Instructions | 15        |

```
      00 01 02 03 04 05 06 07  08 09 0A 0B 0C 0D 0E 0F
      -- -- -- -- -- -- -- --  -- -- -- -- -- -- -- --
0000:                                            66 00                f.
0010: 80 72 21 10 01 72 21 10  01 74 6C 6B 30 1C 01 80  .r!..r!..tlk0...
0020: 4A 25 21 10 01 72 21 10  01 1C 02 80 4A 26 21 10  J%!..r!.....J&!.
0030: 01 6E 21 10 01 27 10 25  21 10 01 08 1C 03 80 66  .n!..'.%!......f
0040: 00 80 72 21 10 01 72 21  10 01 74 6C 6B 31 1C 02  ..r!..r!..tlk1..
0050: 80 27 10 26 21 10 01 09  53 72 21 10 01 72 21 10  .'.&!...Sr!..r!.
0060: 01 74 6C 6B 31 4A F0 FF  FF 7F 6E 21 10 01 7B 72  .tlk1J....n!..{r
0070: 21 10 01 5B 04 80 72 21  10 01 72 21 10 01 75 64  !..[..r!..r!..ud
0080: 65 30 00                                          e0.             
```

#### Opcodes

```
  0: 0x000E [0x66] LOAD_EXT_SCHEDULER_MAIN: Load scheduler "tlk0" with entities [Gratzigg (ID: 17834354/0x01102172), Gratzigg (ID: 17834354/0x01102172)], work=209*
  1: 0x001D [0x1C] WAIT(10* ticks)
  2: 0x0020 [0x4A] Aristide (ID: 17834277/0x01102125) looks at Gratzigg (ID: 17834354/0x01102172)
  3: 0x0029 [0x1C] WAIT(30* ticks)
  4: 0x002C [0x4A] Unnamed NPC (ID: 17834278/0x01102126) looks at Arciela (ID: 17834350/0x0110216E)
  5: 0x0035 [0x27] REQ_SET(priority=0x10, entity_id=Aristide (ID: 17834277/0x01102125), tag_num=0x08)
  6: 0x003C [0x1C] WAIT(15* ticks)
  7: 0x003F [0x66] LOAD_EXT_SCHEDULER_MAIN: Load scheduler "tlk1" with entities [Gratzigg (ID: 17834354/0x01102172), Gratzigg (ID: 17834354/0x01102172)], work=209*
  8: 0x004E [0x1C] WAIT(30* ticks)
  9: 0x0051 [0x27] REQ_SET(priority=0x10, entity_id=Unnamed NPC (ID: 17834278/0x01102126), tag_num=0x09)
 10: 0x0058 [0x53] WAIT_SCHEDULER_TASK: Wait for scheduler "tlk1" with entities [Gratzigg (ID: 17834354/0x01102172), Gratzigg (ID: 17834354/0x01102172)]
 11: 0x0065 [0x4A] LocalPlayer looks at Arciela (ID: 17834350/0x0110216E)
 12: 0x006E [0x7B] Gratzigg (ID: 17834354/0x01102172) stops talking
 13: 0x0073 [0x5B] LOAD_EXT_SCHEDULER: Load scheduler "ude0" with entities [Gratzigg (ID: 17834354/0x01102172), Gratzigg (ID: 17834354/0x01102172)], work=958*
 14: 0x0082 [0x00] END_REQSTACK()
```

### Event 368

#### Metadata

| Field        | Value   |
|--------------|---------|
| Entrypoint   | 0x0083  |
| Data Size    | 1 bytes |
| Instructions | 1       |

```
      00 01 02 03 04 05 06 07  08 09 0A 0B 0C 0D 0E 0F
      -- -- -- -- -- -- -- --  -- -- -- -- -- -- -- --
0080:          00                                          .            
```

#### Opcodes

```
  0: 0x0083 [0x00] END_REQSTACK()
```

### Event 65535.4

#### Metadata

| Field        | Value    |
|--------------|----------|
| Entrypoint   | 0x0084   |
| Data Size    | 38 bytes |
| Instructions | 4        |

```
      00 01 02 03 04 05 06 07  08 09 0A 0B 0C 0D 0E 0F
      -- -- -- -- -- -- -- --  -- -- -- -- -- -- -- --
0080:             1C 05 80 CD  06 80 74 21 10 01 74 21      ......t!..t!
0090: 10 01 68 69 74 30 07 80  45 08 80 74 21 10 01 74  ..hit0..E..t!..t
00A0: 21 10 01 68 69 74 30 07  80 00                    !..hit0...      
```

#### Opcodes

```
  0: 0x0084 [0x1C] WAIT(165* ticks)
  1: 0x0087 [0xCD] LOAD_SCHEDULED_TASK_ALT4: Load scheduler "hit0" with entities [Unnamed NPC (ID: 17834356/0x01102174), Unnamed NPC (ID: 17834356/0x01102174)], work=[245*, 0*]
  2: 0x0098 [0x45] LOAD_SCHEDULED_TASK: Load scheduler "hit0" with entities [Unnamed NPC (ID: 17834356/0x01102174), Unnamed NPC (ID: 17834356/0x01102174)], work=[659*, 0*]
  3: 0x00A9 [0x00] END_REQSTACK()
```

### Event 65535.5

#### Metadata

| Field        | Value    |
|--------------|----------|
| Entrypoint   | 0x00AA   |
| Data Size    | 35 bytes |
| Instructions | 3        |

```
      00 01 02 03 04 05 06 07  08 09 0A 0B 0C 0D 0E 0F
      -- -- -- -- -- -- -- --  -- -- -- -- -- -- -- --
00A0:                                CD 06 80 75 21 10            ...u!.
00B0: 01 75 21 10 01 68 69 74  30 07 80 CD 06 80 76 21  .u!..hit0.....v!
00C0: 10 01 76 21 10 01 68 69  74 30 07 80 00           ..v!..hit0...   
```

#### Opcodes

```
  0: 0x00AA [0xCD] LOAD_SCHEDULED_TASK_ALT4: Load scheduler "hit0" with entities [Unnamed NPC (ID: 17834357/0x01102175), Unnamed NPC (ID: 17834357/0x01102175)], work=[245*, 0*]
  1: 0x00BB [0xCD] LOAD_SCHEDULED_TASK_ALT4: Load scheduler "hit0" with entities [Unnamed NPC (ID: 17834358/0x01102176), Unnamed NPC (ID: 17834358/0x01102176)], work=[245*, 0*]
  2: 0x00CC [0x00] END_REQSTACK()
```

### Event 65535.6

#### Metadata

| Field        | Value    |
|--------------|----------|
| Entrypoint   | 0x00CD   |
| Data Size    | 35 bytes |
| Instructions | 3        |

```
      00 01 02 03 04 05 06 07  08 09 0A 0B 0C 0D 0E 0F
      -- -- -- -- -- -- -- --  -- -- -- -- -- -- -- --
00C0:                                         CD 06 80               ...
00D0: 77 21 10 01 77 21 10 01  68 69 74 30 07 80 CD 06  w!..w!..hit0....
00E0: 80 78 21 10 01 78 21 10  01 68 69 74 30 07 80 00  .x!..x!..hit0...
```

#### Opcodes

```
  0: 0x00CD [0xCD] LOAD_SCHEDULED_TASK_ALT4: Load scheduler "hit0" with entities [Unnamed NPC (ID: 17834359/0x01102177), Unnamed NPC (ID: 17834359/0x01102177)], work=[245*, 0*]
  1: 0x00DE [0xCD] LOAD_SCHEDULED_TASK_ALT4: Load scheduler "hit0" with entities [Unnamed NPC (ID: 17834360/0x01102178), Unnamed NPC (ID: 17834360/0x01102178)], work=[245*, 0*]
  2: 0x00EF [0x00] END_REQSTACK()
```

### Event 65535.7

#### Metadata

| Field        | Value    |
|--------------|----------|
| Entrypoint   | 0x00F0   |
| Data Size    | 35 bytes |
| Instructions | 3        |

```
      00 01 02 03 04 05 06 07  08 09 0A 0B 0C 0D 0E 0F
      -- -- -- -- -- -- -- --  -- -- -- -- -- -- -- --
00F0: CD 06 80 79 21 10 01 79  21 10 01 68 69 74 30 07  ...y!..y!..hit0.
0100: 80 CD 06 80 7A 21 10 01  7A 21 10 01 68 69 74 30  ....z!..z!..hit0
0110: 07 80 00                                          ...             
```

#### Opcodes

```
  0: 0x00F0 [0xCD] LOAD_SCHEDULED_TASK_ALT4: Load scheduler "hit0" with entities [Unnamed NPC (ID: 17834361/0x01102179), Unnamed NPC (ID: 17834361/0x01102179)], work=[245*, 0*]
  1: 0x0101 [0xCD] LOAD_SCHEDULED_TASK_ALT4: Load scheduler "hit0" with entities [Unnamed NPC (ID: 17834362/0x0110217A), Unnamed NPC (ID: 17834362/0x0110217A)], work=[245*, 0*]
  2: 0x0112 [0x00] END_REQSTACK()
```

### Event 65535.8

#### Metadata

| Field        | Value     |
|--------------|-----------|
| Entrypoint   | 0x0113    |
| Data Size    | 140 bytes |
| Instructions | 10        |

```
      00 01 02 03 04 05 06 07  08 09 0A 0B 0C 0D 0E 0F
      -- -- -- -- -- -- -- --  -- -- -- -- -- -- -- --
0110:          1C 09 80 CD 06  80 74 21 10 01 74 21 10     ......t!..t!.
0120: 01 68 69 74 31 07 80 CD  06 80 75 21 10 01 75 21  .hit1.....u!..u!
0130: 10 01 68 69 74 31 07 80  CD 06 80 76 21 10 01 76  ..hit1.....v!..v
0140: 21 10 01 68 69 74 31 07  80 CD 06 80 77 21 10 01  !..hit1.....w!..
0150: 77 21 10 01 68 69 74 31  07 80 CD 06 80 78 21 10  w!..hit1.....x!.
0160: 01 78 21 10 01 68 69 74  31 07 80 CD 06 80 79 21  .x!..hit1.....y!
0170: 10 01 79 21 10 01 68 69  74 31 07 80 CD 06 80 7A  ..y!..hit1.....z
0180: 21 10 01 7A 21 10 01 68  69 74 31 07 80 45 08 80  !..z!..hit1..E..
0190: F8 FF FF 7F F8 FF FF 7F  68 69 74 31 07 80 00     ........hit1... 
```

#### Opcodes

```
  0: 0x0113 [0x1C] WAIT(150* ticks)
  1: 0x0116 [0xCD] LOAD_SCHEDULED_TASK_ALT4: Load scheduler "hit1" with entities [Unnamed NPC (ID: 17834356/0x01102174), Unnamed NPC (ID: 17834356/0x01102174)], work=[245*, 0*]
  2: 0x0127 [0xCD] LOAD_SCHEDULED_TASK_ALT4: Load scheduler "hit1" with entities [Unnamed NPC (ID: 17834357/0x01102175), Unnamed NPC (ID: 17834357/0x01102175)], work=[245*, 0*]
  3: 0x0138 [0xCD] LOAD_SCHEDULED_TASK_ALT4: Load scheduler "hit1" with entities [Unnamed NPC (ID: 17834358/0x01102176), Unnamed NPC (ID: 17834358/0x01102176)], work=[245*, 0*]
  4: 0x0149 [0xCD] LOAD_SCHEDULED_TASK_ALT4: Load scheduler "hit1" with entities [Unnamed NPC (ID: 17834359/0x01102177), Unnamed NPC (ID: 17834359/0x01102177)], work=[245*, 0*]
  5: 0x015A [0xCD] LOAD_SCHEDULED_TASK_ALT4: Load scheduler "hit1" with entities [Unnamed NPC (ID: 17834360/0x01102178), Unnamed NPC (ID: 17834360/0x01102178)], work=[245*, 0*]
  6: 0x016B [0xCD] LOAD_SCHEDULED_TASK_ALT4: Load scheduler "hit1" with entities [Unnamed NPC (ID: 17834361/0x01102179), Unnamed NPC (ID: 17834361/0x01102179)], work=[245*, 0*]
  7: 0x017C [0xCD] LOAD_SCHEDULED_TASK_ALT4: Load scheduler "hit1" with entities [Unnamed NPC (ID: 17834362/0x0110217A), Unnamed NPC (ID: 17834362/0x0110217A)], work=[245*, 0*]
  8: 0x018D [0x45] LOAD_SCHEDULED_TASK: Load scheduler "hit1" with entities [EventEntity, EventEntity], work=[659*, 0*]
  9: 0x019E [0x00] END_REQSTACK()
```

### Event 65535.9

#### Metadata

| Field        | Value    |
|--------------|----------|
| Entrypoint   | 0x019F   |
| Data Size    | 33 bytes |
| Instructions | 3        |

```
      00 01 02 03 04 05 06 07  08 09 0A 0B 0C 0D 0E 0F
      -- -- -- -- -- -- -- --  -- -- -- -- -- -- -- --
0190:                                               5F                 _
01A0: 03 0A 80 73 21 10 01 73  21 10 01 78 78 78 78 5F  ...s!..s!..xxxx_
01B0: 03 0B 80 74 21 10 01 74  21 10 01 78 78 78 78 00  ...t!..t!..xxxx.
```

#### Opcodes

```
  0: 0x019F [0x5F] MULTI_HANDLER_COMPLEX(mode=0x03 - Load ext scheduler (OpCode 0x5B mode 0), ref=3584*, entity1=Unnamed NPC (ID: 17834355/0x01102173), entity2=Unnamed NPC (ID: 17834355/0x01102173), string="xxxx")
  1: 0x01AF [0x5F] MULTI_HANDLER_COMPLEX(mode=0x03 - Load ext scheduler (OpCode 0x5B mode 0), ref=3567*, entity1=Unnamed NPC (ID: 17834356/0x01102174), entity2=Unnamed NPC (ID: 17834356/0x01102174), string="xxxx")
  2: 0x01BF [0x00] END_REQSTACK()
```

### Event 369

#### Metadata

| Field        | Value   |
|--------------|---------|
| Entrypoint   | 0x01C0  |
| Data Size    | 1 bytes |
| Instructions | 1       |

```
      00 01 02 03 04 05 06 07  08 09 0A 0B 0C 0D 0E 0F
      -- -- -- -- -- -- -- --  -- -- -- -- -- -- -- --
01C0: 00                                                .               
```

#### Opcodes

```
  0: 0x01C0 [0x00] END_REQSTACK()
```

### Event 374

#### Metadata

| Field        | Value   |
|--------------|---------|
| Entrypoint   | 0x01C1  |
| Data Size    | 1 bytes |
| Instructions | 1       |

```
      00 01 02 03 04 05 06 07  08 09 0A 0B 0C 0D 0E 0F
      -- -- -- -- -- -- -- --  -- -- -- -- -- -- -- --
01C0:    00                                              .              
```

#### Opcodes

```
  0: 0x01C1 [0x00] END_REQSTACK()
```

### Event 382

#### Metadata

| Field        | Value   |
|--------------|---------|
| Entrypoint   | 0x01C2  |
| Data Size    | 1 bytes |
| Instructions | 1       |

```
      00 01 02 03 04 05 06 07  08 09 0A 0B 0C 0D 0E 0F
      -- -- -- -- -- -- -- --  -- -- -- -- -- -- -- --
01C0:       00                                            .             
```

#### Opcodes

```
  0: 0x01C2 [0x00] END_REQSTACK()
```

### Event 65535.10

#### Metadata

| Field        | Value    |
|--------------|----------|
| Entrypoint   | 0x01C3   |
| Data Size    | 33 bytes |
| Instructions | 3        |

```
      00 01 02 03 04 05 06 07  08 09 0A 0B 0C 0D 0E 0F
      -- -- -- -- -- -- -- --  -- -- -- -- -- -- -- --
01C0:          5F 03 0C 80 73  21 10 01 73 21 10 01 78     _...s!..s!..x
01D0: 78 78 78 5F 03 0D 80 86  21 10 01 86 21 10 01 78  xxx_....!...!..x
01E0: 78 78 78 00                                       xxx.            
```

#### Opcodes

```
  0: 0x01C3 [0x5F] MULTI_HANDLER_COMPLEX(mode=0x03 - Load ext scheduler (OpCode 0x5B mode 0), ref=3613*, entity1=Unnamed NPC (ID: 17834355/0x01102173), entity2=Unnamed NPC (ID: 17834355/0x01102173), string="xxxx")
  1: 0x01D3 [0x5F] MULTI_HANDLER_COMPLEX(mode=0x03 - Load ext scheduler (OpCode 0x5B mode 0), ref=3848*, entity1=Unnamed NPC (ID: 17834374/0x01102186), entity2=Unnamed NPC (ID: 17834374/0x01102186), string="xxxx")
  2: 0x01E3 [0x00] END_REQSTACK()
```

### Event 65535.11

#### Metadata

| Field        | Value    |
|--------------|----------|
| Entrypoint   | 0x01E4   |
| Data Size    | 33 bytes |
| Instructions | 3        |

```
      00 01 02 03 04 05 06 07  08 09 0A 0B 0C 0D 0E 0F
      -- -- -- -- -- -- -- --  -- -- -- -- -- -- -- --
01E0:             5F 03 0E 80  73 21 10 01 73 21 10 01      _...s!..s!..
01F0: 78 78 78 78 5F 03 0D 80  86 21 10 01 86 21 10 01  xxxx_....!...!..
0200: 78 78 78 78 00                                    xxxx.           
```

#### Opcodes

```
  0: 0x01E4 [0x5F] MULTI_HANDLER_COMPLEX(mode=0x03 - Load ext scheduler (OpCode 0x5B mode 0), ref=3853*, entity1=Unnamed NPC (ID: 17834355/0x01102173), entity2=Unnamed NPC (ID: 17834355/0x01102173), string="xxxx")
  1: 0x01F4 [0x5F] MULTI_HANDLER_COMPLEX(mode=0x03 - Load ext scheduler (OpCode 0x5B mode 0), ref=3848*, entity1=Unnamed NPC (ID: 17834374/0x01102186), entity2=Unnamed NPC (ID: 17834374/0x01102186), string="xxxx")
  2: 0x0204 [0x00] END_REQSTACK()
```
