# 17834272 - Alluring Plant

## Common Data

| Field            | Value                    |
|------------------|--------------------------|
| Zone             | Rala Waterways (ID: 258) |
| Block Size       | 12528 bytes              |
| Total Events     | 5                        |
| References Count | 330                      |

## List of Events

| Event ID              | Entrypoint   |   Size |   Instructions |
|-----------------------|--------------|--------|----------------|
| [65535](#event-65535) | 0x0000       |      1 |              1 |
| [323](#event-323)     | 0x0001       |   3279 |            380 |
| [338](#event-338)     | 0x0CD0       |    397 |             48 |
| [325](#event-325)     | 0x0E5D       |   3804 |            449 |
| [327](#event-327)     | 0x1D39       |   3691 |            385 |

## DAT References (imed_data)

|   Index | Hex Value   |   Dec Value |
|---------|-------------|-------------|
|       0 | 0x0000      |           0 |
|       1 | 0x00C8      |         200 |
|       2 | 0x001B      |          27 |
|       3 | 0xFFFB1C56  |  4294646870 |
|       4 | 0xFFFB47D6  |  4294658006 |
|       5 | 0xFFFFFBE6  |  4294966246 |
|       6 | 0x07E0      |        2016 |
|       7 | 0xFFFB18D7  |  4294645975 |
|       8 | 0xFFFB602B  |  4294664235 |
|       9 | 0xFFFFFC18  |  4294966296 |
|      10 | 0x046D      |        1133 |
|      11 | 0x022E      |         558 |
|      12 | 0x000F      |          15 |
|      13 | 0x001E      |          30 |
|      14 | 0x1EFA      |        7930 |
|      15 | 0x1EFB      |        7931 |
|      16 | 0x0001      |           1 |
|      17 | 0x1EFE      |        7934 |
|      18 | 0x0551      |        1361 |
|      19 | 0x1EFF      |        7935 |
|      20 | 0x1F00      |        7936 |
|      21 | 0x0050      |          80 |
|      22 | 0x0028      |          40 |
|      23 | 0x1F01      |        7937 |
|      24 | 0x0078      |         120 |
|      25 | 0x1F02      |        7938 |
|      26 | 0x005A      |          90 |
|      27 | 0x003C      |          60 |
|      28 | 0x00C9      |         201 |
|      29 | 0xFFFB1807  |  4294645767 |
|      30 | 0xFFFB47EF  |  4294658031 |
|      31 | 0x0F06      |        3846 |
|      32 | 0xFFFB2371  |  4294648689 |
|      33 | 0xFFFB483F  |  4294658111 |
|      34 | 0x08A8      |        2216 |
|      35 | 0xFFFB1E25  |  4294647333 |
|      36 | 0xFFFB5224  |  4294660644 |
|      37 | 0x04BF      |        1215 |
|      38 | 0xFFFB1E17  |  4294647319 |
|      39 | 0xFFFB3130  |  4294652208 |
|      40 | 0x0BD8      |        3032 |
|      41 | 0xFFFAD931  |  4294629681 |
|      42 | 0xFFFB43D9  |  4294656985 |
|      43 | 0x0406      |        1030 |
|      44 | 0xFFFADCA5  |  4294630565 |
|      45 | 0xFFFB4D5A  |  4294659418 |
|      46 | 0x03E3      |         995 |
|      47 | 0xFFFADEE5  |  4294631141 |
|      48 | 0xFFFB452A  |  4294657322 |
|      49 | 0xFFFAD4C2  |  4294628546 |
|      50 | 0xFFFB4ACB  |  4294658763 |
|      51 | 0xFFFB3818  |  4294653976 |
|      52 | 0xFFFB187F  |  4294645887 |
|      53 | 0x07EE      |        2030 |
|      54 | 0xFFFB36CA  |  4294653642 |
|      55 | 0xFFFB22A5  |  4294648485 |
|      56 | 0x0848      |        2120 |
|      57 | 0x0039      |          57 |
|      58 | 0x0015      |          21 |
|      59 | 0x1F03      |        7939 |
|      60 | 0x1F04      |        7940 |
|      61 | 0x000A      |          10 |
|      62 | 0x1F05      |        7941 |
|      63 | 0x1F06      |        7942 |
|      64 | 0x0046      |          70 |
|      65 | 0xFFFB12E7  |  4294644455 |
|      66 | 0xFFFB17B9  |  4294645689 |
|      67 | 0x00AC      |         172 |
|      68 | 0x1F07      |        7943 |
|      69 | 0x0005      |           5 |
|      70 | 0x089F      |        2207 |
|      71 | 0x1F08      |        7944 |
|      72 | 0xFFFB0334  |  4294640436 |
|      73 | 0xFFFB1E3E  |  4294647358 |
|      74 | 0x0FE6      |        4070 |
|      75 | 0xFFFB1745  |  4294645573 |
|      76 | 0xFFFAD91A  |  4294629658 |
|      77 | 0xFFFB3A77  |  4294654583 |
|      78 | 0xFFFB1EC2  |  4294647490 |
|      79 | 0x07C9      |        1993 |
|      80 | 0xFFFB2E9F  |  4294651551 |
|      81 | 0xFFFB1D4B  |  4294647115 |
|      82 | 0x0A68      |        2664 |
|      83 | 0x00A0      |         160 |
|      84 | 0x007F      |         127 |
|      85 | 0x1F09      |        7945 |
|      86 | 0xFFFB28B0  |  4294650032 |
|      87 | 0xFFFB21AB  |  4294648235 |
|      88 | 0x0417      |        1047 |
|      89 | 0x0007      |           7 |
|      90 | 0x1F0A      |        7946 |
|      91 | 0x003D      |          61 |
|      92 | 0x0016      |          22 |
|      93 | 0x1F0B      |        7947 |
|      94 | 0x1F0C      |        7948 |
|      95 | 0xFFFB1F0A  |  4294647562 |
|      96 | 0xFFFADE9D  |  4294631069 |
|      97 | 0x0423      |        1059 |
|      98 | 0x0045      |          69 |
|      99 | 0x1F0D      |        7949 |
|     100 | 0x1F0E      |        7950 |
|     101 | 0x0055      |          85 |
|     102 | 0x1F0F      |        7951 |
|     103 | 0x1F10      |        7952 |
|     104 | 0x0009      |           9 |
|     105 | 0x1F11      |        7953 |
|     106 | 0x1F12      |        7954 |
|     107 | 0x1F13      |        7955 |
|     108 | 0xFFFB24E0  |  4294649056 |
|     109 | 0xFFFADBCE  |  4294630350 |
|     110 | 0xFFFB1C76  |  4294646902 |
|     111 | 0xFFFADA68  |  4294629992 |
|     112 | 0x0FFB      |        4091 |
|     113 | 0x050B      |        1291 |
|     114 | 0x0014      |          20 |
|     115 | 0x0064      |         100 |
|     116 | 0xFFFB18B5  |  4294645941 |
|     117 | 0xFFFB1E1E  |  4294647326 |
|     118 | 0x07E4      |        2020 |
|     119 | 0x1F14      |        7956 |
|     120 | 0x1F15      |        7957 |
|     121 | 0x1F16      |        7958 |
|     122 | 0x1F17      |        7959 |
|     123 | 0x1F18      |        7960 |
|     124 | 0x1F19      |        7961 |
|     125 | 0x1F1A      |        7962 |
|     126 | 0x1F1B      |        7963 |
|     127 | 0x0096      |         150 |
|     128 | 0x57E4F     |      360015 |
|     129 | 0xFFF9F1F4  |  4294570484 |
|     130 | 0xFFFFCF21  |  4294954785 |
|     131 | 0x0405      |        1029 |
|     132 | 0x57E0A     |      359946 |
|     133 | 0xFFF9D8F4  |  4294564084 |
|     134 | 0x0C0F      |        3087 |
|     135 | 0x57141     |      356673 |
|     136 | 0xFFF9E53A  |  4294567226 |
|     137 | 0x0003      |           3 |
|     138 | 0x0CAC      |        3244 |
|     139 | 0x026C      |         620 |
|     140 | 0x1F1F      |        7967 |
|     141 | 0x1F20      |        7968 |
|     142 | 0x1F21      |        7969 |
|     143 | 0x1F22      |        7970 |
|     144 | 0xFFFAB722  |  4294620962 |
|     145 | 0xFFFAD72F  |  4294629167 |
|     146 | 0xFFFFF351  |  4294964049 |
|     147 | 0x0E4C      |        3660 |
|     148 | 0xFFFAE497  |  4294632599 |
|     149 | 0xFFFAEC32  |  4294634546 |
|     150 | 0x0A99      |        2713 |
|     151 | 0xFFFAE3A7  |  4294632359 |
|     152 | 0xFFFAE791  |  4294633361 |
|     153 | 0x0AC6      |        2758 |
|     154 | 0xFFFAD3CB  |  4294628299 |
|     155 | 0xFFFB067D  |  4294641277 |
|     156 | 0x0808      |        2056 |
|     157 | 0xFFFAD996  |  4294629782 |
|     158 | 0xFFFB15F2  |  4294645234 |
|     159 | 0x0477      |        1143 |
|     160 | 0xFFFAD686  |  4294628998 |
|     161 | 0xFFFB1CD7  |  4294646999 |
|     162 | 0x03B6      |         950 |
|     163 | 0x00AA      |         170 |
|     164 | 0x1F23      |        7971 |
|     165 | 0x0006      |           6 |
|     166 | 0x1F24      |        7972 |
|     167 | 0x001A      |          26 |
|     168 | 0x1F25      |        7973 |
|     169 | 0x1F26      |        7974 |
|     170 | 0x1F27      |        7975 |
|     171 | 0x1F28      |        7976 |
|     172 | 0x1F29      |        7977 |
|     173 | 0xFFFAE040  |  4294631488 |
|     174 | 0xFFFB0DFA  |  4294643194 |
|     175 | 0x0C09      |        3081 |
|     176 | 0xFFFAE4FD  |  4294632701 |
|     177 | 0xFFFB1F90  |  4294647696 |
|     178 | 0x0566      |        1382 |
|     179 | 0xFFFAFA32  |  4294638130 |
|     180 | 0xFFFB1A54  |  4294646356 |
|     181 | 0x07FA      |        2042 |
|     182 | 0xFFFADF9B  |  4294631323 |
|     183 | 0xFFFB0241  |  4294640193 |
|     184 | 0x019A      |         410 |
|     185 | 0xFFFADDF3  |  4294630899 |
|     186 | 0xFFFAFBE4  |  4294638564 |
|     187 | 0x069F      |        1695 |
|     188 | 0xFFFB1D04  |  4294647044 |
|     189 | 0xFFFB1DEC  |  4294647276 |
|     190 | 0x00B4      |         180 |
|     191 | 0x1F2A      |        7978 |
|     192 | 0x1F2B      |        7979 |
|     193 | 0x1F2C      |        7980 |
|     194 | 0x1F2D      |        7981 |
|     195 | 0x1F2E      |        7982 |
|     196 | 0xFFFAD614  |  4294628884 |
|     197 | 0xFFFB25D2  |  4294649298 |
|     198 | 0x03D6      |         982 |
|     199 | 0x1F2F      |        7983 |
|     200 | 0x0BC1      |        3009 |
|     201 | 0x0019      |          25 |
|     202 | 0xFFFAC0A5  |  4294623397 |
|     203 | 0xFFFAF135  |  4294635829 |
|     204 | 0xFFFFF7D1  |  4294965201 |
|     205 | 0x0FC5      |        4037 |
|     206 | 0xFFFADA14  |  4294629908 |
|     207 | 0xFFFB12F7  |  4294644471 |
|     208 | 0xFFFADDA0  |  4294630816 |
|     209 | 0xFFFB058B  |  4294641035 |
|     210 | 0xFFFAE000  |  4294631424 |
|     211 | 0xFFFAFF13  |  4294639379 |
|     212 | 0xFFFAD7AE  |  4294629294 |
|     213 | 0xFFFB1DF8  |  4294647288 |
|     214 | 0x03EE      |        1006 |
|     215 | 0x0027      |          39 |
|     216 | 0x1F30      |        7984 |
|     217 | 0x1F31      |        7985 |
|     218 | 0x1F32      |        7986 |
|     219 | 0x1F33      |        7987 |
|     220 | 0x1F34      |        7988 |
|     221 | 0x1F35      |        7989 |
|     222 | 0xFFFADF24  |  4294631204 |
|     223 | 0xFFFB188A  |  4294645898 |
|     224 | 0xFFFAD5A5  |  4294628773 |
|     225 | 0xFFFB0E10  |  4294643216 |
|     226 | 0x1F36      |        7990 |
|     227 | 0x1F37      |        7991 |
|     228 | 0x1F38      |        7992 |
|     229 | 0x1F39      |        7993 |
|     230 | 0x1F3A      |        7994 |
|     231 | 0x1F3B      |        7995 |
|     232 | 0x1F3C      |        7996 |
|     233 | 0x1F3D      |        7997 |
|     234 | 0x1F3E      |        7998 |
|     235 | 0x1F3F      |        7999 |
|     236 | 0x1F40      |        8000 |
|     237 | 0x1F41      |        8001 |
|     238 | 0x1F42      |        8002 |
|     239 | 0x1F43      |        8003 |
|     240 | 0x1F44      |        8004 |
|     241 | 0x1F45      |        8005 |
|     242 | 0x1F46      |        8006 |
|     243 | 0x1F47      |        8007 |
|     244 | 0x1F48      |        8008 |
|     245 | 0x1F49      |        8009 |
|     246 | 0xFFFADDB5  |  4294630837 |
|     247 | 0xFFFB0A5D  |  4294642269 |
|     248 | 0x0FDE      |        4062 |
|     249 | 0x1F4A      |        8010 |
|     250 | 0x1F4B      |        8011 |
|     251 | 0x0010      |          16 |
|     252 | 0x1F4C      |        8012 |
|     253 | 0x1F4D      |        8013 |
|     254 | 0x1F4E      |        8014 |
|     255 | 0x1F4F      |        8015 |
|     256 | 0x1F50      |        8016 |
|     257 | 0x0008      |           8 |
|     258 | 0x1F51      |        8017 |
|     259 | 0x3ED3D     |      257341 |
|     260 | 0xEAC9      |       60105 |
|     261 | 0xFFFFE97B  |  4294961531 |
|     262 | 0x002F      |          47 |
|     263 | 0x0081      |         129 |
|     264 | 0x0032      |          50 |
|     265 | 0x1F54      |        8020 |
|     266 | 0x1F55      |        8021 |
|     267 | 0x1F56      |        8022 |
|     268 | 0x1F57      |        8023 |
|     269 | 0x5EB4C     |      387916 |
|     270 | 0xFFFA130F  |  4294578959 |
|     271 | 0xFFFFB505  |  4294948101 |
|     272 | 0x069D      |        1693 |
|     273 | 0x5EA3C     |      387644 |
|     274 | 0xFFF9E576  |  4294567286 |
|     275 | 0x080D      |        2061 |
|     276 | 0x5E6EA     |      386794 |
|     277 | 0xFFFA0A07  |  4294576647 |
|     278 | 0x5E5DB     |      386523 |
|     279 | 0xFFFA155C  |  4294579548 |
|     280 | 0x069C      |        1692 |
|     281 | 0x5E7F1     |      387057 |
|     282 | 0xFFFA0139  |  4294574393 |
|     283 | 0xFFFFB4A1  |  4294948001 |
|     284 | 0x075C      |        1884 |
|     285 | 0x5EC04     |      388100 |
|     286 | 0xFFFA0BF9  |  4294577145 |
|     287 | 0x0094      |         148 |
|     288 | 0x012C      |         300 |
|     289 | 0x1F58      |        8024 |
|     290 | 0x1F59      |        8025 |
|     291 | 0x0024      |          36 |
|     292 | 0x000D      |          13 |
|     293 | 0x000C      |          12 |
|     294 | 0x1F5A      |        8026 |
|     295 | 0x1F5B      |        8027 |
|     296 | 0x1F5C      |        8028 |
|     297 | 0x1F5D      |        8029 |
|     298 | 0x0A69      |        2665 |
|     299 | 0x1F5E      |        8030 |
|     300 | 0x00A3      |         163 |
|     301 | 0x1F60      |        8032 |
|     302 | 0x1F61      |        8033 |
|     303 | 0x1F62      |        8034 |
|     304 | 0x1F63      |        8035 |
|     305 | 0x1F64      |        8036 |
|     306 | 0x1F65      |        8037 |
|     307 | 0x1F66      |        8038 |
|     308 | 0x0088      |         136 |
|     309 | 0x1F67      |        8039 |
|     310 | 0x00AE      |         174 |
|     311 | 0x1F68      |        8040 |
|     312 | 0x1F69      |        8041 |
|     313 | 0x007B      |         123 |
|     314 | 0x1F6A      |        8042 |
|     315 | 0x0069      |         105 |
|     316 | 0x1F6B      |        8043 |
|     317 | 0x1F6C      |        8044 |
|     318 | 0x1F6D      |        8045 |
|     319 | 0x1F6E      |        8046 |
|     320 | 0x1F6F      |        8047 |
|     321 | 0x003F      |          63 |
|     322 | 0x5E914     |      387348 |
|     323 | 0xFFFA132E  |  4294578990 |
|     324 | 0x1F70      |        8048 |
|     325 | 0x003A      |          58 |
|     326 | 0x57714     |      358164 |
|     327 | 0xFFF9DAA8  |  4294564520 |
|     328 | 0x1F71      |        8049 |
|     329 | 0x1F72      |        8050 |

## String References

- **7930**: The leaves of this plant are [bulky/thin/bulky] and its fruit is covered with a [hard/hard/soft] shell.
- **7931**: Pluck the fruit? [Yes./No.]
- **8021**: See the greatest show on Ulbuka? [I'm chomping at the bit!/Such vulgarities are beneath me.]

## Events

### Event 65535

#### Metadata

| Field        | Value   |
|--------------|---------|
| Entrypoint   | 0x0000  |
| Data Size    | 1 bytes |
| Instructions | 1       |

```
      00 01 02 03 04 05 06 07  08 09 0A 0B 0C 0D 0E 0F
      -- -- -- -- -- -- -- --  -- -- -- -- -- -- -- --
0000: 00                                                .               
```

#### Opcodes

```
  0: 0x0000 [0x00] END_REQSTACK()
```

### Event 323

#### Metadata

| Field        | Value      |
|--------------|------------|
| Entrypoint   | 0x0001     |
| Data Size    | 3279 bytes |
| Instructions | 379        |

```
      00 01 02 03 04 05 06 07  08 09 0A 0B 0C 0D 0E 0F
      -- -- -- -- -- -- -- --  -- -- -- -- -- -- -- --
0000:    42 03 01 10 00 80 45  01 80 F0 FF FF 7F F0 FF   B.....E........
0010: FF 7F 66 64 6F 31 00 80  55 01 80 F0 FF FF 7F F0  ..fdo1..U.......
0020: FF FF 7F 66 64 6F 31 46  01 38 02 80 2F 00 21 21  ...fdo1F.8../.!!
0030: 10 01 4E 00 21 21 10 01  22 00 92 01 21 21 10 01  ..N.!!.."...!!..
0040: 92 01 40 21 10 01 BA F0  FF FF 7F 03 80 04 80 05  ..@!............
0050: 80 06 80 BA 21 21 10 01  07 80 08 80 09 80 0A 80  ....!!..........
0060: 80 F0 FF FF 7F 80 21 21  10 01 45 0B 80 F0 FF FF  ......!!..E.....
0070: 7F F0 FF FF 7F 73 30 35  33 00 80 1C 0C 80 45 01  .....s053.....E.
0080: 80 F0 FF FF 7F F0 FF FF  7F 66 64 69 31 00 80 1C  .........fdi1...
0090: 0D 80 03 02 10 00 80 48  0E 80 23 24 0F 80 00 80  .......H..#$....
00A0: 00 80 25 02 00 10 10 80  00 F2 00 45 01 80 F0 FF  ..%........E....
00B0: FF 7F F0 FF FF 7F 66 64  6F 31 00 80 55 01 80 F0  ......fdo1..U...
00C0: FF FF 7F F0 FF FF 7F 66  64 6F 31 52 0B 80 F0 FF  .......fdo1R....
00D0: FF 7F F0 FF FF 7F 73 30  35 33 46 00 45 01 80 F0  ......s053F.E...
00E0: FF FF 7F F0 FF FF 7F 66  64 69 32 00 80 21 00 01  .......fdi2..!..
00F0: F2 00 27 05 21 21 10 01  02 1C 0D 80 52 0B 80 F0  ..'.!!......R...
0100: FF FF 7F F0 FF FF 7F 73  30 35 33 45 0B 80 F0 FF  .......s053E....
0110: FF 7F F0 FF FF 7F 73 30  35 34 00 80 4A F0 FF FF  ......s054..J...
0120: 7F 21 21 10 01 2B 21 21  10 01 11 80 23 2A 05 21  .!!..+!!....#*.!
0130: 21 10 01 5B 12 80 21 21  10 01 21 21 10 01 74 6C  !..[..!!..!!..tl
0140: 75 30 52 0B 80 F0 FF FF  7F F0 FF FF 7F 73 30 35  u0R..........s05
0150: 34 45 0B 80 F0 FF FF 7F  F0 FF FF 7F 73 30 35 35  4E..........s055
0160: 00 80 2B 21 21 10 01 13  80 23 2B 21 21 10 01 14  ..+!!....#+!!...
0170: 80 23 5B 12 80 21 21 10  01 21 21 10 01 74 6C 75  .#[..!!..!!..tlu
0180: 31 52 0B 80 F0 FF FF 7F  F0 FF FF 7F 73 30 35 35  1R..........s055
0190: 45 0B 80 F0 FF FF 7F F0  FF FF 7F 73 30 35 36 00  E..........s056.
01A0: 80 27 05 F0 FF FF 7F 1D  1C 15 80 27 05 F0 FF FF  .'.........'....
01B0: 7F 1E 1C 16 80 52 0B 80  F0 FF FF 7F F0 FF FF 7F  .....R..........
01C0: 73 30 35 36 45 0B 80 F0  FF FF 7F F0 FF FF 7F 73  s056E..........s
01D0: 30 35 37 00 80 2B 21 21  10 01 17 80 23 5D 00 80  057..+!!....#]..
01E0: 18 80 52 0B 80 F0 FF FF  7F F0 FF FF 7F 73 30 35  ..R..........s05
01F0: 37 45 0B 80 F0 FF FF 7F  F0 FF FF 7F 73 30 35 38  7E..........s058
0200: 00 80 4A 21 21 10 01 F8  FF FF 7F 7B 21 21 10 01  ..J!!......{!!..
0210: 1C 0D 80 4A F0 FF FF 7F  F8 FF FF 7F 7B F0 FF FF  ...J........{...
0220: 7F 2B 21 21 10 01 19 80  23 52 0B 80 F0 FF FF 7F  .+!!....#R......
0230: F0 FF FF 7F 73 30 35 38  45 0B 80 F0 FF FF 7F F0  ....s058E.......
0240: FF FF 7F 73 30 35 39 00  80 45 0B 80 F0 FF FF 7F  ...s059..E......
0250: F0 FF FF 7F 37 31 32 34  00 80 1C 1A 80 52 0B 80  ....7124.....R..
0260: F0 FF FF 7F F0 FF FF 7F  73 30 35 39 45 0B 80 F0  ........s059E...
0270: FF FF 7F F0 FF FF 7F 73  30 36 30 00 80 45 0B 80  .......s060..E..
0280: F0 FF FF 7F F0 FF FF 7F  37 31 32 34 00 80 1C 1A  ........7124....
0290: 80 52 0B 80 F0 FF FF 7F  F0 FF FF 7F 73 30 36 30  .R..........s060
02A0: 45 0B 80 F0 FF FF 7F F0  FF FF 7F 73 30 36 31 00  E..........s061.
02B0: 80 45 0B 80 F0 FF FF 7F  F0 FF FF 7F 37 31 32 34  .E..........7124
02C0: 00 80 1C 1B 80 45 1C 80  F0 FF FF 7F F0 FF FF 7F  .....E..........
02D0: 77 68 6F 30 00 80 55 1C  80 F0 FF FF 7F F0 FF FF  who0..U.........
02E0: 7F 77 68 6F 30 52 0B 80  F0 FF FF 7F F0 FF FF 7F  .who0R..........
02F0: 73 30 36 31 2F 00 24 21  10 01 2F 00 22 21 10 01  s061/.$!../."!..
0300: 2F 00 23 21 10 01 2F 00  25 21 10 01 2F 00 26 21  /.#!../.%!../.&!
0310: 10 01 2F 00 29 21 10 01  2F 00 2A 21 10 01 94 01  ../.)!../.*!....
0320: 22 21 10 01 4E 00 24 21  10 01 BA 24 21 10 01 1D  "!..N.$!...$!...
0330: 80 1E 80 09 80 1F 80 BA  F0 FF FF 7F 20 80 21 80  ............ .!.
0340: 09 80 22 80 BA 21 21 10  01 23 80 24 80 05 80 25  .."..!!..#.$...%
0350: 80 BA 40 21 10 01 26 80  27 80 05 80 28 80 BA 25  ..@!..&.'...(..%
0360: 21 10 01 29 80 2A 80 09  80 2B 80 BA 26 21 10 01  !..).*...+..&!..
0370: 2C 80 2D 80 09 80 2E 80  BA 29 21 10 01 2F 80 30  ,.-......)!../.0
0380: 80 09 80 2E 80 BA 2A 21  10 01 31 80 32 80 09 80  ......*!..1.2...
0390: 2E 80 BA 22 21 10 01 33  80 34 80 09 80 35 80 BA  ..."!..3.4...5..
03A0: 23 21 10 01 36 80 37 80  09 80 38 80 80 24 21 10  #!..6.7...8..$!.
03B0: 01 80 F0 FF FF 7F 80 21  21 10 01 80 40 21 10 01  .......!!...@!..
03C0: 4A 21 21 10 01 24 21 10  01 4A F0 FF FF 7F 24 21  J!!..$!..J....$!
03D0: 10 01 4A 40 21 10 01 24  21 10 01 1C 0D 80 5C 00  ..J@!..$!.....\.
03E0: 39 80 5C 01 39 80 9A 45  0B 80 F0 FF FF 7F F0 FF  9.\.9..E........
03F0: FF 7F 73 30 36 32 00 80  1C 0C 80 45 1C 80 F0 FF  ..s062.....E....
0400: FF 7F F0 FF FF 7F 77 68  69 31 00 80 27 05 F0 FF  ......whi1..'...
0410: FF 7F 06 6E 21 21 10 01  3A 80 99 21 21 10 01 1C  ...n!!..:..!!...
0420: 0C 80 7C 00 21 21 10 01  2B 21 21 10 01 3B 80 23  ..|.!!..+!!..;.#
0430: 7C 01 21 21 10 01 52 0B  80 F0 FF FF 7F F0 FF FF  |.!!..R.........
0440: 7F 73 30 36 32 45 0B 80  F0 FF FF 7F F0 FF FF 7F  .s062E..........
0450: 73 30 36 33 00 80 66 16  80 40 21 10 01 40 21 10  s063..f..@!..@!.
0460: 01 7A 69 74 30 79 00 21  21 10 01 40 21 10 01 2B  .zit0y.!!..@!..+
0470: 40 21 10 01 3C 80 23 55  0B 80 F0 FF FF 7F F0 FF  @!..<.#U........
0480: FF 7F 73 30 36 33 45 0B  80 F0 FF FF 7F F0 FF FF  ..s063E.........
0490: 7F 73 30 36 34 00 80 1C  0C 80 27 05 40 21 10 01  .s064.....'.@!..
04A0: 07 1C 3D 80 27 05 24 21  10 01 02 2B 40 21 10 01  ..=.'.$!...+@!..
04B0: 3E 80 1C 1A 80 52 0B 80  F0 FF FF 7F F0 FF FF 7F  >....R..........
04C0: 73 30 36 34 45 0B 80 F0  FF FF 7F F0 FF FF 7F 73  s064E..........s
04D0: 30 36 35 00 80 2B 21 21  10 01 3F 80 1C 40 80 52  065..+!!..?..@.R
04E0: 0B 80 F0 FF FF 7F F0 FF  FF 7F 73 30 36 35 45 0B  ..........s065E.
04F0: 80 F0 FF FF 7F F0 FF FF  7F 73 30 36 36 00 80 6B  .........s066..k
0500: 69 64 6C 30 21 21 10 01  BA 21 21 10 01 41 80 42  idl0!!...!!..A.B
0510: 80 09 80 43 80 29 05 21  21 10 01 03 1C 0D 80 5B  ...C.).!!......[
0520: 12 80 21 21 10 01 21 21  10 01 74 6C 75 30 1C 0C  ..!!..!!..tlu0..
0530: 80 2B 21 21 10 01 44 80  23 55 0B 80 F0 FF FF 7F  .+!!..D.#U......
0540: F0 FF FF 7F 73 30 36 36  4E 00 25 21 10 01 4E 00  ....s066N.%!..N.
0550: 26 21 10 01 4E 00 29 21  10 01 4E 00 2A 21 10 01  &!..N.)!..N.*!..
0560: 80 25 21 10 01 80 26 21  10 01 80 29 21 10 01 80  .%!...&!...)!...
0570: 2A 21 10 01 27 05 2A 21  10 01 03 1C 45 80 27 05  *!..'.*!....E.'.
0580: 29 21 10 01 04 27 05 26  21 10 01 05 5B 46 80 25  )!...'.&!...[F.%
0590: 21 10 01 25 21 10 01 6B  61 6D 30 1C 0C 80 45 0B  !..%!..kam0...E.
05A0: 80 F0 FF FF 7F F0 FF FF  7F 73 30 36 37 00 80 2B  .........s067..+
05B0: 47 21 10 01 47 80 1C 1B  80 4E 00 22 21 10 01 4E  G!..G....N."!..N
05C0: 00 23 21 10 01 BA F0 FF  FF 7F 48 80 49 80 05 80  .#!.......H.I...
05D0: 4A 80 BA 40 21 10 01 4B  80 4C 80 09 80 35 80 BA  J..@!..K.L...5..
05E0: 48 21 10 01 4D 80 4E 80  05 80 4F 80 4A 40 21 10  H!..M.N...O.J@!.
05F0: 01 24 21 10 01 6B 69 64  6C 30 21 21 10 01 BA 47  .$!..kidl0!!...G
0600: 21 10 01 50 80 51 80 05  80 35 80 5B 52 80 47 21  !..P.Q...5.[R.G!
0610: 10 01 47 21 10 01 6B 61  6D 30 1C 3D 80 52 0B 80  ..G!..kam0.=.R..
0620: F0 FF FF 7F F0 FF FF 7F  73 30 36 37 45 0B 80 F0  ........s067E...
0630: FF FF 7F F0 FF FF 7F 73  30 36 38 00 80 1C 0C 80  .......s068.....
0640: 2C 24 21 10 01 24 21 10  01 64 65 61 64 1C 53 80  ,$!..$!..dead.S.
0650: 9F 54 80 F8 FF FF 7F F8  FF FF 7F 73 74 72 30 00  .T.........str0.
0660: 80 1C 0C 80 9F 54 80 F8  FF FF 7F F8 FF FF 7F 6B  .....T.........k
0670: 69 6C 6C 00 80 1C 45 80  55 0B 80 F0 FF FF 7F F0  ill...E.U.......
0680: FF FF 7F 73 30 36 38 4E  01 25 21 10 01 4E 01 26  ...s068N.%!..N.&
0690: 21 10 01 4E 01 29 21 10  01 4E 01 2A 21 10 01 27  !..N.)!..N.*!..'
06A0: 05 25 21 10 01 05 27 05  26 21 10 01 06 27 05 29  .%!...'.&!...'.)
06B0: 21 10 01 05 27 05 2A 21  10 01 04 5D 00 80 18 80  !...'.*!...]....
06C0: 45 0B 80 F0 FF FF 7F F0  FF FF 7F 73 30 36 39 00  E..........s069.
06D0: 80 27 05 F0 FF FF 7F 07  27 05 22 21 10 01 02 4A  .'......'."!...J
06E0: 21 21 10 01 22 21 10 01  2B 22 21 10 01 55 80 23  !!.."!..+"!..U.#
06F0: 6B 69 64 6C 30 47 21 10  01 BA 23 21 10 01 56 80  kidl0G!...#!..V.
0700: 57 80 09 80 58 80 4A 23  21 10 01 21 21 10 01 6E  W...X.J#!..!!..n
0710: 21 21 10 01 59 80 99 21  21 10 01 2B 21 21 10 01  !!..Y..!!..+!!..
0720: 5A 80 23 5C 00 5B 80 5C  01 5B 80 9A 52 0B 80 F0  Z.#\.[.\.[..R...
0730: FF FF 7F F0 FF FF 7F 73  30 36 39 45 0B 80 F0 FF  .......s069E....
0740: FF 7F F0 FF FF 7F 73 30  37 30 00 80 6E 23 21 10  ......s070..n#!.
0750: 01 5C 80 99 23 21 10 01  2B 23 21 10 01 5D 80 23  .\..#!..+#!..].#
0760: 6E 47 21 10 01 59 80 99  47 21 10 01 2B 47 21 10  nG!..Y..G!..+G!.
0770: 01 5E 80 23 4E 01 21 21  10 01 BA 21 21 10 01 5F  .^.#N.!!...!!.._
0780: 80 60 80 05 80 61 80 66  62 80 47 21 10 01 47 21  .`...a.fb.G!..G!
0790: 10 01 74 6C 6B 30 2B 47  21 10 01 63 80 23 66 62  ..tlk0+G!..c.#fb
07A0: 80 47 21 10 01 47 21 10  01 74 6C 6B 31 52 0B 80  .G!..G!..tlk1R..
07B0: F0 FF FF 7F F0 FF FF 7F  73 30 37 30 45 0B 80 F0  ........s070E...
07C0: FF FF 7F F0 FF FF 7F 73  30 37 31 00 80 4A 47 21  .......s071..JG!
07D0: 10 01 48 21 10 01 1C 0D  80 4A 22 21 10 01 24 21  ..H!.....J"!..$!
07E0: 10 01 4A 48 21 10 01 47  21 10 01 66 62 80 47 21  ..JH!..G!..fb.G!
07F0: 10 01 47 21 10 01 74 6C  6B 30 2B 47 21 10 01 64  ..G!..tlk0+G!..d
0800: 80 23 66 62 80 47 21 10  01 47 21 10 01 74 6C 6B  .#fb.G!..G!..tlk
0810: 31 6E 48 21 10 01 59 80  99 48 21 10 01 1C 65 80  1nH!..Y..H!...e.
0820: 27 05 47 21 10 01 03 1C  45 80 27 05 48 21 10 01  '.G!....E.'.H!..
0830: 03 1C 1B 80 52 0B 80 F0  FF FF 7F F0 FF FF 7F 73  ....R..........s
0840: 30 37 31 45 0B 80 F0 FF  FF 7F F0 FF FF 7F 73 30  071E..........s0
0850: 37 32 00 80 1C 18 80 52  0B 80 F0 FF FF 7F F0 FF  72.....R........
0860: FF 7F 73 30 37 32 45 0B  80 F0 FF FF 7F F0 FF FF  ..s072E.........
0870: 7F 73 30 38 33 00 80 79  00 23 21 10 01 22 21 10  .s083..y.#!.."!.
0880: 01 2B 22 21 10 01 66 80  23 52 0B 80 F0 FF FF 7F  .+"!..f.#R......
0890: F0 FF FF 7F 73 30 38 33  45 0B 80 F0 FF FF 7F F0  ....s083E.......
08A0: FF FF 7F 73 30 38 34 00  80 66 62 80 23 21 10 01  ...s084..fb.#!..
08B0: 23 21 10 01 74 6C 6B 30  2B 23 21 10 01 67 80 23  #!..tlk0+#!..g.#
08C0: 66 62 80 23 21 10 01 23  21 10 01 74 6C 6B 31 52  fb.#!..#!..tlk1R
08D0: 0B 80 F0 FF FF 7F F0 FF  FF 7F 73 30 38 34 45 0B  ..........s084E.
08E0: 80 F0 FF FF 7F F0 FF FF  7F 73 30 37 33 00 80 4A  .........s073..J
08F0: 22 21 10 01 23 21 10 01  1C 0D 80 4E 01 47 21 10  "!..#!.....N.G!.
0900: 01 4E 01 48 21 10 01 66  68 80 22 21 10 01 22 21  .N.H!..fh."!.."!
0910: 10 01 74 6C 6B 30 2B 22  21 10 01 69 80 23 66 68  ..tlk0+"!..i.#fh
0920: 80 22 21 10 01 22 21 10  01 74 6C 6B 31 66 62 80  ."!.."!..tlk1fb.
0930: 23 21 10 01 23 21 10 01  74 6C 6B 30 2B 23 21 10  #!..#!..tlk0+#!.
0940: 01 6A 80 23 66 62 80 23  21 10 01 23 21 10 01 74  .j.#fb.#!..#!..t
0950: 6C 6B 31 52 0B 80 F0 FF  FF 7F F0 FF FF 7F 73 30  lk1R..........s0
0960: 37 33 45 0B 80 F0 FF FF  7F F0 FF FF 7F 73 30 37  73E..........s07
0970: 35 00 80 6E 22 21 10 01  59 80 99 22 21 10 01 2B  5..n"!..Y.."!..+
0980: 22 21 10 01 6B 80 23 52  0B 80 F0 FF FF 7F F0 FF  "!..k.#R........
0990: FF 7F 73 30 37 35 45 0B  80 F0 FF FF 7F F0 FF FF  ..s075E.........
09A0: 7F 73 30 37 34 00 80 27  05 23 21 10 01 02 7B 23  .s074..'.#!...{#
09B0: 21 10 01 4B 22 21 10 01  58 80 4A 40 21 10 01 21  !..K"!..X.J@!..!
09C0: 21 10 01 1C 0D 80 4E 00  21 21 10 01 7A 00 47 21  !.....N.!!..z.G!
09D0: 10 01 7A 00 48 21 10 01  BA 47 21 10 01 6C 80 6D  ..z.H!...G!..l.m
09E0: 80 09 80 35 80 BA 48 21  10 01 6E 80 6F 80 05 80  ...5..H!..n.o...
09F0: 70 80 4E 00 47 21 10 01  4E 00 48 21 10 01 66 68  p.N.G!..N.H!..fh
0A00: 80 22 21 10 01 22 21 10  01 73 68 61 30 1C 1B 80  ."!.."!..sha0...
0A10: 4A 48 21 10 01 21 21 10  01 4A 47 21 10 01 21 21  JH!..!!..JG!..!!
0A20: 10 01 1C 0D 80 66 62 80  47 21 10 01 47 21 10 01  .....fb.G!..G!..
0A30: 74 6C 6B 31 1C 0D 80 52  0B 80 F0 FF FF 7F F0 FF  tlk1...R........
0A40: FF 7F 73 30 37 34 45 0B  80 F0 FF FF 7F F0 FF FF  ..s074E.........
0A50: 7F 73 30 37 36 00 80 1C  0D 80 27 05 47 21 10 01  .s076.....'.G!..
0A60: 04 1C 45 80 1C 0D 80 5B  71 80 21 21 10 01 21 21  ..E....[q.!!..!!
0A70: 10 01 65 76 62 30 1C 1B  80 52 0B 80 F0 FF FF 7F  ..evb0...R......
0A80: F0 FF FF 7F 73 30 37 36  45 0B 80 F0 FF FF 7F F0  ....s076E.......
0A90: FF FF 7F 73 30 37 37 00  80 66 68 80 22 21 10 01  ...s077..fh."!..
0AA0: 22 21 10 01 73 68 61 31  1C 1B 80 27 05 48 21 10  "!..sha1...'.H!.
0AB0: 01 04 1C 18 80 52 0B 80  F0 FF FF 7F F0 FF FF 7F  .....R..........
0AC0: 73 30 37 37 45 0B 80 F0  FF FF 7F F0 FF FF 7F 73  s077E..........s
0AD0: 30 38 35 00 80 1C 72 80  4E 01 21 21 10 01 4E 01  085...r.N.!!..N.
0AE0: 47 21 10 01 4E 01 48 21  10 01 1C 73 80 52 0B 80  G!..N.H!...s.R..
0AF0: F0 FF FF 7F F0 FF FF 7F  73 30 38 35 45 0B 80 F0  ........s085E...
0B00: FF FF 7F F0 FF FF 7F 73  30 37 38 00 80 1C 0C 80  .......s078.....
0B10: BA 22 21 10 01 74 80 75  80 05 80 76 80 80 22 21  ."!..t.u...v.."!
0B20: 10 01 27 05 22 21 10 01  03 1C 1B 80 4A F0 FF FF  ..'."!......J...
0B30: 7F 22 21 10 01 2B 22 21  10 01 77 80 23 2B 22 21  ."!..+"!..w.#+"!
0B40: 10 01 78 80 23 52 0B 80  F0 FF FF 7F F0 FF FF 7F  ..x.#R..........
0B50: 73 30 37 38 45 0B 80 F0  FF FF 7F F0 FF FF 7F 73  s078E..........s
0B60: 30 37 39 00 80 66 68 80  22 21 10 01 22 21 10 01  079..fh."!.."!..
0B70: 74 6C 6B 30 2B 22 21 10  01 79 80 23 2B 22 21 10  tlk0+"!..y.#+"!.
0B80: 01 7A 80 23 2B 22 21 10  01 7B 80 23 66 68 80 22  .z.#+"!..{.#fh."
0B90: 21 10 01 22 21 10 01 74  6C 6B 31 52 0B 80 F0 FF  !.."!..tlk1R....
0BA0: FF 7F F0 FF FF 7F 73 30  37 39 45 0B 80 F0 FF FF  ......s079E.....
0BB0: 7F F0 FF FF 7F 73 30 38  30 00 80 66 62 80 23 21  .....s080..fb.#!
0BC0: 10 01 23 21 10 01 73 68  61 31 79 00 23 21 10 01  ..#!..sha1y.#!..
0BD0: 22 21 10 01 2B 23 21 10  01 7C 80 23 4A 22 21 10  "!..+#!..|.#J"!.
0BE0: 01 23 21 10 01 1C 0D 80  6E 22 21 10 01 59 80 99  .#!.....n"!..Y..
0BF0: 22 21 10 01 2B 22 21 10  01 7D 80 23 52 0B 80 F0  "!..+"!..}.#R...
0C00: FF FF 7F F0 FF FF 7F 73  30 38 30 45 0B 80 F0 FF  .......s080E....
0C10: FF 7F F0 FF FF 7F 73 30  38 31 00 80 4A 22 21 10  ......s081..J"!.
0C20: 01 F0 FF FF 7F 1C 0D 80  66 68 80 22 21 10 01 22  ........fh."!.."
0C30: 21 10 01 74 6C 6B 30 2B  22 21 10 01 7E 80 23 66  !..tlk0+"!..~.#f
0C40: 68 80 22 21 10 01 22 21  10 01 74 6C 6B 31 52 0B  h."!.."!..tlk1R.
0C50: 80 F0 FF FF 7F F0 FF FF  7F 73 30 38 31 45 0B 80  .........s081E..
0C60: F0 FF FF 7F F0 FF FF 7F  73 30 38 32 00 80 27 05  ........s082..'.
0C70: 22 21 10 01 04 66 62 80  23 21 10 01 23 21 10 01  "!...fb.#!..#!..
0C80: 73 68 61 30 1C 7F 80 45  01 80 F0 FF FF 7F F0 FF  sha0...E........
0C90: FF 7F 66 64 6F 31 00 80  55 01 80 F0 FF FF 7F F0  ..fdo1..U.......
0CA0: FF FF 7F 66 64 6F 31 52  0B 80 F0 FF FF 7F F0 FF  ...fdo1R........
0CB0: FF 7F 73 30 38 32 03 01  10 10 80 46 00 45 01 80  ..s082.....F.E..
0CC0: F0 FF FF 7F F0 FF FF 7F  66 64 69 32 00 80 21 00  ........fdi2..!.
```

#### Opcodes

```
  0: 0x0001 [0x42] SET_CLI_EVENT_CANCEL_DATA()
  1: 0x0002 [0x03] Work_Zone[1] = 0*
  2: 0x0007 [0x45] LOAD_SCHEDULED_TASK: Load scheduler "fdo1" with entities [LocalPlayer, LocalPlayer], work=[200*, 0*]
  3: 0x0018 [0x55] WAIT_LOAD_SCHEDULER: Wait for scheduler "fdo1" with entities [LocalPlayer, LocalPlayer], work=200*
  4: 0x0027 [0x46] CAMERA_CONTROL: Disable user control
  5: 0x0029 [0x38] SET_CLIENT_EVENT_MODE(mode=27*)
  6: 0x002C [0x2F] Erisa (ID: 17834273/0x01102121)->Render.Flags0 &= ~0x80000 // Bit 19
  7: 0x0032 [0x4E] SET_ENTITY_HIDE_FLAG: Show Erisa (ID: 17834273/0x01102121)
  8: 0x0038 [0x22] ENTITY_HIDE_FLAG(enabled=0x00)
  9: 0x003A [0x92] Erisa (ID: 17834273/0x01102121)->Render.Flags3 ^= 0x01
 10: 0x0040 [0x92] Chalvava (ID: 17834304/0x01102140)->Render.Flags3 ^= 0x01
 11: 0x0046 [0xBA] SET_ENTITY_POSITION(entity_id=LocalPlayer, pos_x=-320.426*, pos_z=-309.290*, pos_y=-1.050*, direction=177.2°*)
 12: 0x0053 [0xBA] SET_ENTITY_POSITION(entity_id=Erisa (ID: 17834273/0x01102121), pos_x=-321.321*, pos_z=-303.061*, pos_y=-1.000*, direction=99.6°*)
 13: 0x0060 [0x80] LOAD_WAIT(entity=LocalPlayer)
 14: 0x0065 [0x80] LOAD_WAIT(entity=Erisa (ID: 17834273/0x01102121))
 15: 0x006A [0x45] LOAD_SCHEDULED_TASK: Load scheduler "s053" with entities [LocalPlayer, LocalPlayer], work=[558*, 0*]
 16: 0x007B [0x1C] WAIT(15* ticks)
 17: 0x007E [0x45] LOAD_SCHEDULED_TASK: Load scheduler "fdi1" with entities [LocalPlayer, LocalPlayer], work=[200*, 0*]
 18: 0x008F [0x1C] WAIT(30* ticks)
 19: 0x0092 [0x03] Work_Zone[2] = 0*
 20: 0x0097 [0x48] [System] [7930*]:
    → "The leaves of this plant are [bulky/thin/bulky] and its fruit is covered with a [hard/hard/soft] shell."
 21: 0x009A [0x23] WAIT_FOR_DIALOG_INTERACTION
 22: 0x009B [0x24] CREATE_DIALOG(message_id=7931*, default_option=0*, option_flags=0*)
    → "Pluck the fruit? [Yes./No.]"
 23: 0x00A2 [0x25] WAIT_DIALOG_SELECT()
 24: 0x00A3 [0x02] IF !(Work_Zone[0] == 1*) GOTO 0x00F2
 25: 0x00AB [0x45] LOAD_SCHEDULED_TASK: Load scheduler "fdo1" with entities [LocalPlayer, LocalPlayer], work=[200*, 0*]
 26: 0x00BC [0x55] WAIT_LOAD_SCHEDULER: Wait for scheduler "fdo1" with entities [LocalPlayer, LocalPlayer], work=200*
 27: 0x00CB [0x52] END_LOAD_SCHEDULER: End scheduler "s053" with entities [LocalPlayer, LocalPlayer], work=558*
 28: 0x00DA [0x46] CAMERA_CONTROL: Restore default settings
 29: 0x00DC [0x45] LOAD_SCHEDULED_TASK: Load scheduler "fdi2" with entities [LocalPlayer, LocalPlayer], work=[200*, 0*]
 30: 0x00ED [0x21] END_EVENT
 31: 0x00EE [0x00] END_REQSTACK()

SUBROUTINE_00F2:
 32: 0x00F2 [0x27] REQ_SET(priority=0x05, entity_id=Erisa (ID: 17834273/0x01102121), tag_num=0x02)
 33: 0x00F9 [0x1C] WAIT(30* ticks)
 34: 0x00FC [0x52] END_LOAD_SCHEDULER: End scheduler "s053" with entities [LocalPlayer, LocalPlayer], work=558*
 35: 0x010B [0x45] LOAD_SCHEDULED_TASK: Load scheduler "s054" with entities [LocalPlayer, LocalPlayer], work=[558*, 0*]
 36: 0x011C [0x4A] LocalPlayer looks at Erisa (ID: 17834273/0x01102121)
 37: 0x0125 [0x2B] Erisa (ID: 17834273/0x01102121) [7934*]:
    → "Stop!"
 38: 0x012C [0x23] WAIT_FOR_DIALOG_INTERACTION
 39: 0x012D [0x2A] GET_REQ_LEVEL(level=5, entity_id=Erisa (ID: 17834273/0x01102121))
 40: 0x0133 [0x5B] LOAD_EXT_SCHEDULER: Load scheduler "tlu0" with entities [Erisa (ID: 17834273/0x01102121), Erisa (ID: 17834273/0x01102121)], work=1361*
 41: 0x0142 [0x52] END_LOAD_SCHEDULER: End scheduler "s054" with entities [LocalPlayer, LocalPlayer], work=558*
 42: 0x0151 [0x45] LOAD_SCHEDULED_TASK: Load scheduler "s055" with entities [LocalPlayer, LocalPlayer], work=[558*, 0*]
 43: 0x0162 [0x2B] Erisa (ID: 17834273/0x01102121) [7935*]:
    → "Take a look. The fertilizer I used has created such succulent bounty."
 44: 0x0169 [0x23] WAIT_FOR_DIALOG_INTERACTION
 45: 0x016A [0x2B] Erisa (ID: 17834273/0x01102121) [7936*]:
    → "At the very least, wait until they are fully ripe!"
 46: 0x0171 [0x23] WAIT_FOR_DIALOG_INTERACTION
 47: 0x0172 [0x5B] LOAD_EXT_SCHEDULER: Load scheduler "tlu1" with entities [Erisa (ID: 17834273/0x01102121), Erisa (ID: 17834273/0x01102121)], work=1361*
 48: 0x0181 [0x52] END_LOAD_SCHEDULER: End scheduler "s055" with entities [LocalPlayer, LocalPlayer], work=558*
 49: 0x0190 [0x45] LOAD_SCHEDULED_TASK: Load scheduler "s056" with entities [LocalPlayer, LocalPlayer], work=[558*, 0*]
 50: 0x01A1 [0x27] REQ_SET(priority=0x05, entity_id=LocalPlayer, tag_num=0x1D)
 51: 0x01A8 [0x1C] WAIT(80* ticks)
 52: 0x01AB [0x27] REQ_SET(priority=0x05, entity_id=LocalPlayer, tag_num=0x1E)
 53: 0x01B2 [0x1C] WAIT(40* ticks)
 54: 0x01B5 [0x52] END_LOAD_SCHEDULER: End scheduler "s056" with entities [LocalPlayer, LocalPlayer], work=558*
 55: 0x01C4 [0x45] LOAD_SCHEDULED_TASK: Load scheduler "s057" with entities [LocalPlayer, LocalPlayer], work=[558*, 0*]
 56: 0x01D5 [0x2B] Erisa (ID: 17834273/0x01102121) [7937*]:
    → "The plants might give birth to monsters? You're...you're serious, aren't you?"
 57: 0x01DC [0x23] WAIT_FOR_DIALOG_INTERACTION
 58: 0x01DD [0x5D] SET_MUSIC_VOLUME(volume=0*, fade_time=120*)
 59: 0x01E2 [0x52] END_LOAD_SCHEDULER: End scheduler "s057" with entities [LocalPlayer, LocalPlayer], work=558*
 60: 0x01F1 [0x45] LOAD_SCHEDULED_TASK: Load scheduler "s058" with entities [LocalPlayer, LocalPlayer], work=[558*, 0*]
 61: 0x0202 [0x4A] Erisa (ID: 17834273/0x01102121) looks at EventEntity
 62: 0x020B [0x7B] Erisa (ID: 17834273/0x01102121) stops talking
 63: 0x0210 [0x1C] WAIT(30* ticks)
 64: 0x0213 [0x4A] LocalPlayer looks at EventEntity
 65: 0x021C [0x7B] LocalPlayer stops talking
 66: 0x0221 [0x2B] Erisa (ID: 17834273/0x01102121) [7938*]:
    → "But then all my work..."
 67: 0x0228 [0x23] WAIT_FOR_DIALOG_INTERACTION
 68: 0x0229 [0x52] END_LOAD_SCHEDULER: End scheduler "s058" with entities [LocalPlayer, LocalPlayer], work=558*
 69: 0x0238 [0x45] LOAD_SCHEDULED_TASK: Load scheduler "s059" with entities [LocalPlayer, LocalPlayer], work=[558*, 0*]
 70: 0x0249 [0x45] LOAD_SCHEDULED_TASK: Load scheduler "7124" with entities [LocalPlayer, LocalPlayer], work=[558*, 0*]
 71: 0x025A [0x1C] WAIT(90* ticks)
 72: 0x025D [0x52] END_LOAD_SCHEDULER: End scheduler "s059" with entities [LocalPlayer, LocalPlayer], work=558*
 73: 0x026C [0x45] LOAD_SCHEDULED_TASK: Load scheduler "s060" with entities [LocalPlayer, LocalPlayer], work=[558*, 0*]
 74: 0x027D [0x45] LOAD_SCHEDULED_TASK: Load scheduler "7124" with entities [LocalPlayer, LocalPlayer], work=[558*, 0*]
 75: 0x028E [0x1C] WAIT(90* ticks)
 76: 0x0291 [0x52] END_LOAD_SCHEDULER: End scheduler "s060" with entities [LocalPlayer, LocalPlayer], work=558*
 77: 0x02A0 [0x45] LOAD_SCHEDULED_TASK: Load scheduler "s061" with entities [LocalPlayer, LocalPlayer], work=[558*, 0*]
 78: 0x02B1 [0x45] LOAD_SCHEDULED_TASK: Load scheduler "7124" with entities [LocalPlayer, LocalPlayer], work=[558*, 0*]
 79: 0x02C2 [0x1C] WAIT(60* ticks)
 80: 0x02C5 [0x45] LOAD_SCHEDULED_TASK: Load scheduler "who0" with entities [LocalPlayer, LocalPlayer], work=[201*, 0*]
 81: 0x02D6 [0x55] WAIT_LOAD_SCHEDULER: Wait for scheduler "who0" with entities [LocalPlayer, LocalPlayer], work=201*
 82: 0x02E5 [0x52] END_LOAD_SCHEDULER: End scheduler "s061" with entities [LocalPlayer, LocalPlayer], work=558*
 83: 0x02F4 [0x2F] Unnamed NPC (ID: 17834276/0x01102124)->Render.Flags0 &= ~0x80000 // Bit 19
 84: 0x02FA [0x2F] Kyff (ID: 17834274/0x01102122)->Render.Flags0 &= ~0x80000 // Bit 19
 85: 0x0300 [0x2F] Dworvigg (ID: 17834275/0x01102123)->Render.Flags0 &= ~0x80000 // Bit 19
 86: 0x0306 [0x2F] Aristide (ID: 17834277/0x01102125)->Render.Flags0 &= ~0x80000 // Bit 19
 87: 0x030C [0x2F] Unnamed NPC (ID: 17834278/0x01102126)->Render.Flags0 &= ~0x80000 // Bit 19
 88: 0x0312 [0x2F] Pagnelle (ID: 17834281/0x01102129)->Render.Flags0 &= ~0x80000 // Bit 19
 89: 0x0318 [0x2F] Zenngar (ID: 17834282/0x0110212A)->Render.Flags0 &= ~0x80000 // Bit 19
 90: 0x031E [0x94] Kyff (ID: 17834274/0x01102122)->Render.Flags3 ^= 0x01
 91: 0x0324 [0x4E] SET_ENTITY_HIDE_FLAG: Show Unnamed NPC (ID: 17834276/0x01102124)
 92: 0x032A [0xBA] SET_ENTITY_POSITION(entity_id=Unnamed NPC (ID: 17834276/0x01102124), pos_x=-321.529*, pos_z=-309.265*, pos_y=-1.000*, direction=338.0°*)
 93: 0x0337 [0xBA] SET_ENTITY_POSITION(entity_id=LocalPlayer, pos_x=-318.607*, pos_z=-309.185*, pos_y=-1.000*, direction=194.8°*)
 94: 0x0344 [0xBA] SET_ENTITY_POSITION(entity_id=Erisa (ID: 17834273/0x01102121), pos_x=-319.963*, pos_z=-306.652*, pos_y=-1.050*, direction=106.8°*)
 95: 0x0351 [0xBA] SET_ENTITY_POSITION(entity_id=Chalvava (ID: 17834304/0x01102140), pos_x=-319.977*, pos_z=-315.088*, pos_y=-1.050*, direction=266.5°*)
 96: 0x035E [0xBA] SET_ENTITY_POSITION(entity_id=Aristide (ID: 17834277/0x01102125), pos_x=-337.615*, pos_z=-310.311*, pos_y=-1.000*, direction=90.5°*)
 97: 0x036B [0xBA] SET_ENTITY_POSITION(entity_id=Unnamed NPC (ID: 17834278/0x01102126), pos_x=-336.731*, pos_z=-307.878*, pos_y=-1.000*, direction=87.4°*)
 98: 0x0378 [0xBA] SET_ENTITY_POSITION(entity_id=Pagnelle (ID: 17834281/0x01102129), pos_x=-336.155*, pos_z=-309.974*, pos_y=-1.000*, direction=87.4°*)
 99: 0x0385 [0xBA] SET_ENTITY_POSITION(entity_id=Zenngar (ID: 17834282/0x0110212A), pos_x=-338.750*, pos_z=-308.533*, pos_y=-1.000*, direction=87.4°*)
100: 0x0392 [0xBA] SET_ENTITY_POSITION(entity_id=Kyff (ID: 17834274/0x01102122), pos_x=-313.320*, pos_z=-321.409*, pos_y=-1.000*, direction=178.4°*)
101: 0x039F [0xBA] SET_ENTITY_POSITION(entity_id=Dworvigg (ID: 17834275/0x01102123), pos_x=-313.654*, pos_z=-318.811*, pos_y=-1.000*, direction=186.3°*)
102: 0x03AC [0x80] LOAD_WAIT(entity=Unnamed NPC (ID: 17834276/0x01102124))
103: 0x03B1 [0x80] LOAD_WAIT(entity=LocalPlayer)
104: 0x03B6 [0x80] LOAD_WAIT(entity=Erisa (ID: 17834273/0x01102121))
105: 0x03BB [0x80] LOAD_WAIT(entity=Chalvava (ID: 17834304/0x01102140))
106: 0x03C0 [0x4A] Erisa (ID: 17834273/0x01102121) looks at Unnamed NPC (ID: 17834276/0x01102124)
107: 0x03C9 [0x4A] LocalPlayer looks at Unnamed NPC (ID: 17834276/0x01102124)
108: 0x03D2 [0x4A] Chalvava (ID: 17834304/0x01102140) looks at Unnamed NPC (ID: 17834276/0x01102124)
109: 0x03DB [0x1C] WAIT(30* ticks)
110: 0x03DE [0x5C] MUSIC_CONTROL: Set Idle (Day) music to song 57*
111: 0x03E2 [0x5C] MUSIC_CONTROL: Set Idle (Night) music to song 57*
112: 0x03E6 [0x9A] WAIT_MUSIC_SERVER()
113: 0x03E7 [0x45] LOAD_SCHEDULED_TASK: Load scheduler "s062" with entities [LocalPlayer, LocalPlayer], work=[558*, 0*]
114: 0x03F8 [0x1C] WAIT(15* ticks)
115: 0x03FB [0x45] LOAD_SCHEDULED_TASK: Load scheduler "whi1" with entities [LocalPlayer, LocalPlayer], work=[201*, 0*]
116: 0x040C [0x27] REQ_SET(priority=0x05, entity_id=LocalPlayer, tag_num=0x06)
117: 0x0413 [0x6E] Erisa (ID: 17834273/0x01102121) uses emote 21*
118: 0x041A [0x99] Wait for Erisa (ID: 17834273/0x01102121) animation to complete
119: 0x041F [0x1C] WAIT(15* ticks)
120: 0x0422 [0x7C] Erisa (ID: 17834273/0x01102121)->Render.Flags2 |= 0x00
121: 0x0428 [0x2B] Erisa (ID: 17834273/0x01102121) [7939*]:
    → "By the Goddess!"
122: 0x042F [0x23] WAIT_FOR_DIALOG_INTERACTION
123: 0x0430 [0x7C] Erisa (ID: 17834273/0x01102121)->Render.Flags2 |= 0x01
124: 0x0436 [0x52] END_LOAD_SCHEDULER: End scheduler "s062" with entities [LocalPlayer, LocalPlayer], work=558*
125: 0x0445 [0x45] LOAD_SCHEDULED_TASK: Load scheduler "s063" with entities [LocalPlayer, LocalPlayer], work=[558*, 0*]
126: 0x0456 [0x66] LOAD_EXT_SCHEDULER_MAIN: Load scheduler "zit0" with entities [Chalvava (ID: 17834304/0x01102140), Chalvava (ID: 17834304/0x01102140)], work=40*
127: 0x0465 [0x79] Erisa (ID: 17834273/0x01102121) looks at Chalvava (ID: 17834304/0x01102140) (Basic look)
128: 0x046F [0x2B] Chalvava (ID: 17834304/0x01102140) [7940*]:
    → "Gyaaaaaaaaah!!!"
129: 0x0476 [0x23] WAIT_FOR_DIALOG_INTERACTION
130: 0x0477 [0x55] WAIT_LOAD_SCHEDULER: Wait for scheduler "s063" with entities [LocalPlayer, LocalPlayer], work=558*
131: 0x0486 [0x45] LOAD_SCHEDULED_TASK: Load scheduler "s064" with entities [LocalPlayer, LocalPlayer], work=[558*, 0*]
132: 0x0497 [0x1C] WAIT(15* ticks)
133: 0x049A [0x27] REQ_SET(priority=0x05, entity_id=Chalvava (ID: 17834304/0x01102140), tag_num=0x07)
134: 0x04A1 [0x1C] WAIT(10* ticks)
135: 0x04A4 [0x27] REQ_SET(priority=0x05, entity_id=Unnamed NPC (ID: 17834276/0x01102124), tag_num=0x02)
136: 0x04AB [0x2B] Chalvava (ID: 17834304/0x01102140) [7941*]:
    → "Help meeeeee!"
137: 0x04B2 [0x1C] WAIT(90* ticks)
138: 0x04B5 [0x52] END_LOAD_SCHEDULER: End scheduler "s064" with entities [LocalPlayer, LocalPlayer], work=558*
139: 0x04C4 [0x45] LOAD_SCHEDULED_TASK: Load scheduler "s065" with entities [LocalPlayer, LocalPlayer], work=[558*, 0*]
140: 0x04D5 [0x2B] Erisa (ID: 17834273/0x01102121) [7942*]:
    → "Please, no!"
141: 0x04DC [0x1C] WAIT(70* ticks)
142: 0x04DF [0x52] END_LOAD_SCHEDULER: End scheduler "s065" with entities [LocalPlayer, LocalPlayer], work=558*
143: 0x04EE [0x45] LOAD_SCHEDULED_TASK: Load scheduler "s066" with entities [LocalPlayer, LocalPlayer], work=[558*, 0*]
144: 0x04FF [0x6B] STOP_AND_IDLE: Erisa (ID: 17834273/0x01102121) stops current action and resets to idle (animation="idl0")
145: 0x0508 [0xBA] SET_ENTITY_POSITION(entity_id=Erisa (ID: 17834273/0x01102121), pos_x=-322.841*, pos_z=-321.607*, pos_y=-1.000*, direction=15.1°*)
146: 0x0515 [0x29] REQ_SET_WAIT(priority=0x05, entity_id=Erisa (ID: 17834273/0x01102121), tag_num=0x03)
147: 0x051C [0x1C] WAIT(30* ticks)
148: 0x051F [0x5B] LOAD_EXT_SCHEDULER: Load scheduler "tlu0" with entities [Erisa (ID: 17834273/0x01102121), Erisa (ID: 17834273/0x01102121)], work=1361*
149: 0x052E [0x1C] WAIT(15* ticks)
150: 0x0531 [0x2B] Erisa (ID: 17834273/0x01102121) [7943*]:
    → "I told you! Get back!"
151: 0x0538 [0x23] WAIT_FOR_DIALOG_INTERACTION
152: 0x0539 [0x55] WAIT_LOAD_SCHEDULER: Wait for scheduler "s066" with entities [LocalPlayer, LocalPlayer], work=558*
153: 0x0548 [0x4E] SET_ENTITY_HIDE_FLAG: Show Aristide (ID: 17834277/0x01102125)
154: 0x054E [0x4E] SET_ENTITY_HIDE_FLAG: Show Unnamed NPC (ID: 17834278/0x01102126)
155: 0x0554 [0x4E] SET_ENTITY_HIDE_FLAG: Show Pagnelle (ID: 17834281/0x01102129)
156: 0x055A [0x4E] SET_ENTITY_HIDE_FLAG: Show Zenngar (ID: 17834282/0x0110212A)
157: 0x0560 [0x80] LOAD_WAIT(entity=Aristide (ID: 17834277/0x01102125))
158: 0x0565 [0x80] LOAD_WAIT(entity=Unnamed NPC (ID: 17834278/0x01102126))
159: 0x056A [0x80] LOAD_WAIT(entity=Pagnelle (ID: 17834281/0x01102129))
160: 0x056F [0x80] LOAD_WAIT(entity=Zenngar (ID: 17834282/0x0110212A))
161: 0x0574 [0x27] REQ_SET(priority=0x05, entity_id=Zenngar (ID: 17834282/0x0110212A), tag_num=0x03)
162: 0x057B [0x1C] WAIT(5* ticks)
163: 0x057E [0x27] REQ_SET(priority=0x05, entity_id=Pagnelle (ID: 17834281/0x01102129), tag_num=0x04)
164: 0x0585 [0x27] REQ_SET(priority=0x05, entity_id=Unnamed NPC (ID: 17834278/0x01102126), tag_num=0x05)
165: 0x058C [0x5B] LOAD_EXT_SCHEDULER: Load scheduler "kam0" with entities [Aristide (ID: 17834277/0x01102125), Aristide (ID: 17834277/0x01102125)], work=2207*
166: 0x059B [0x1C] WAIT(15* ticks)
167: 0x059E [0x45] LOAD_SCHEDULED_TASK: Load scheduler "s067" with entities [LocalPlayer, LocalPlayer], work=[558*, 0*]
168: 0x05AF [0x2B] Relentless Storm (ID: 17834311/0x01102147) [7944*]:
    → "Outta the way!!!"
169: 0x05B6 [0x1C] WAIT(60* ticks)
170: 0x05B9 [0x4E] SET_ENTITY_HIDE_FLAG: Show Kyff (ID: 17834274/0x01102122)
171: 0x05BF [0x4E] SET_ENTITY_HIDE_FLAG: Show Dworvigg (ID: 17834275/0x01102123)
172: 0x05C5 [0xBA] SET_ENTITY_POSITION(entity_id=LocalPlayer, pos_x=-326.860*, pos_z=-319.938*, pos_y=-1.050*, direction=357.7°*)
173: 0x05D2 [0xBA] SET_ENTITY_POSITION(entity_id=Chalvava (ID: 17834304/0x01102140), pos_x=-321.723*, pos_z=-337.638*, pos_y=-1.000*, direction=178.4°*)
174: 0x05DF [0xBA] SET_ENTITY_POSITION(entity_id=Soltargan (ID: 17834312/0x01102148), pos_x=-312.713*, pos_z=-319.806*, pos_y=-1.050*, direction=175.2°*)
175: 0x05EC [0x4A] Chalvava (ID: 17834304/0x01102140) looks at Unnamed NPC (ID: 17834276/0x01102124)
176: 0x05F5 [0x6B] STOP_AND_IDLE: Erisa (ID: 17834273/0x01102121) stops current action and resets to idle (animation="idl0")
177: 0x05FE [0xBA] SET_ENTITY_POSITION(entity_id=Relentless Storm (ID: 17834311/0x01102147), pos_x=-315.745*, pos_z=-320.181*, pos_y=-1.050*, direction=178.4°*)
178: 0x060B [0x5B] LOAD_EXT_SCHEDULER: Load scheduler "kam0" with entities [Relentless Storm (ID: 17834311/0x01102147), Relentless Storm (ID: 17834311/0x01102147)], work=2664*
179: 0x061A [0x1C] WAIT(10* ticks)
180: 0x061D [0x52] END_LOAD_SCHEDULER: End scheduler "s067" with entities [LocalPlayer, LocalPlayer], work=558*
181: 0x062C [0x45] LOAD_SCHEDULED_TASK: Load scheduler "s068" with entities [LocalPlayer, LocalPlayer], work=[558*, 0*]
182: 0x063D [0x1C] WAIT(15* ticks)
183: 0x0640 [0x2C] CREATE_SCHEDULER_TASK: Create scheduler "dead" with entities [Unnamed NPC (ID: 17834276/0x01102124), Unnamed NPC (ID: 17834276/0x01102124)]
184: 0x064D [0x1C] WAIT(160* ticks)
185: 0x0650 [0x9F] LOAD_SCHEDULED_TASK_ALT: Load scheduler "str0" with entities [EventEntity, EventEntity], work=[127*, 0*]
186: 0x0661 [0x1C] WAIT(15* ticks)
187: 0x0664 [0x9F] LOAD_SCHEDULED_TASK_ALT: Load scheduler "kill" with entities [EventEntity, EventEntity], work=[127*, 0*]
188: 0x0675 [0x1C] WAIT(5* ticks)
189: 0x0678 [0x55] WAIT_LOAD_SCHEDULER: Wait for scheduler "s068" with entities [LocalPlayer, LocalPlayer], work=558*
190: 0x0687 [0x4E] SET_ENTITY_HIDE_FLAG: Hide Aristide (ID: 17834277/0x01102125)
191: 0x068D [0x4E] SET_ENTITY_HIDE_FLAG: Hide Unnamed NPC (ID: 17834278/0x01102126)
192: 0x0693 [0x4E] SET_ENTITY_HIDE_FLAG: Hide Pagnelle (ID: 17834281/0x01102129)
193: 0x0699 [0x4E] SET_ENTITY_HIDE_FLAG: Hide Zenngar (ID: 17834282/0x0110212A)
194: 0x069F [0x27] REQ_SET(priority=0x05, entity_id=Aristide (ID: 17834277/0x01102125), tag_num=0x05)
195: 0x06A6 [0x27] REQ_SET(priority=0x05, entity_id=Unnamed NPC (ID: 17834278/0x01102126), tag_num=0x06)
196: 0x06AD [0x27] REQ_SET(priority=0x05, entity_id=Pagnelle (ID: 17834281/0x01102129), tag_num=0x05)
197: 0x06B4 [0x27] REQ_SET(priority=0x05, entity_id=Zenngar (ID: 17834282/0x0110212A), tag_num=0x04)
198: 0x06BB [0x5D] SET_MUSIC_VOLUME(volume=0*, fade_time=120*)
199: 0x06C0 [0x45] LOAD_SCHEDULED_TASK: Load scheduler "s069" with entities [LocalPlayer, LocalPlayer], work=[558*, 0*]
200: 0x06D1 [0x27] REQ_SET(priority=0x05, entity_id=LocalPlayer, tag_num=0x07)
201: 0x06D8 [0x27] REQ_SET(priority=0x05, entity_id=Kyff (ID: 17834274/0x01102122), tag_num=0x02)
202: 0x06DF [0x4A] Erisa (ID: 17834273/0x01102121) looks at Kyff (ID: 17834274/0x01102122)
203: 0x06E8 [0x2B] Kyff (ID: 17834274/0x01102122) [7945*]:
    → "Erisa, are you okay?"
204: 0x06EF [0x23] WAIT_FOR_DIALOG_INTERACTION
205: 0x06F0 [0x6B] STOP_AND_IDLE: Relentless Storm (ID: 17834311/0x01102147) stops current action and resets to idle (animation="idl0")
206: 0x06F9 [0xBA] SET_ENTITY_POSITION(entity_id=Dworvigg (ID: 17834275/0x01102123), pos_x=-317.264*, pos_z=-319.061*, pos_y=-1.000*, direction=92.0°*)
207: 0x0706 [0x4A] Dworvigg (ID: 17834275/0x01102123) looks at Erisa (ID: 17834273/0x01102121)
208: 0x070F [0x6E] Erisa (ID: 17834273/0x01102121) uses emote 7*
209: 0x0716 [0x99] Wait for Erisa (ID: 17834273/0x01102121) animation to complete
210: 0x071B [0x2B] Erisa (ID: 17834273/0x01102121) [7946*]:
    → "I-I think so."
211: 0x0722 [0x23] WAIT_FOR_DIALOG_INTERACTION
212: 0x0723 [0x5C] MUSIC_CONTROL: Set Idle (Day) music to song 61*
213: 0x0727 [0x5C] MUSIC_CONTROL: Set Idle (Night) music to song 61*
214: 0x072B [0x9A] WAIT_MUSIC_SERVER()
215: 0x072C [0x52] END_LOAD_SCHEDULER: End scheduler "s069" with entities [LocalPlayer, LocalPlayer], work=558*
216: 0x073B [0x45] LOAD_SCHEDULED_TASK: Load scheduler "s070" with entities [LocalPlayer, LocalPlayer], work=[558*, 0*]
217: 0x074C [0x6E] Dworvigg (ID: 17834275/0x01102123) uses emote 22*
218: 0x0753 [0x99] Wait for Dworvigg (ID: 17834275/0x01102123) animation to complete
219: 0x0758 [0x2B] Dworvigg (ID: 17834275/0x01102123) [7947*]:
    → "That's why I told you to give us the plants. You were lucky things didn't turn out worse."
220: 0x075F [0x23] WAIT_FOR_DIALOG_INTERACTION
221: 0x0760 [0x6E] Relentless Storm (ID: 17834311/0x01102147) uses emote 7*
222: 0x0767 [0x99] Wait for Relentless Storm (ID: 17834311/0x01102147) animation to complete
223: 0x076C [0x2B] Relentless Storm (ID: 17834311/0x01102147) [7948*]:
    → "So, the stories were true. I suspected as much."
224: 0x0773 [0x23] WAIT_FOR_DIALOG_INTERACTION
225: 0x0774 [0x4E] SET_ENTITY_HIDE_FLAG: Hide Erisa (ID: 17834273/0x01102121)
226: 0x077A [0xBA] SET_ENTITY_POSITION(entity_id=Erisa (ID: 17834273/0x01102121), pos_x=-319.734*, pos_z=-336.227*, pos_y=-1.050*, direction=93.1°*)
227: 0x0787 [0x66] LOAD_EXT_SCHEDULER_MAIN: Load scheduler "tlk0" with entities [Relentless Storm (ID: 17834311/0x01102147), Relentless Storm (ID: 17834311/0x01102147)], work=69*
228: 0x0796 [0x2B] Relentless Storm (ID: 17834311/0x01102147) [7949*]:
    → "I will make a direct appeal to Gratzigg to prohibit bringing these seeds into the city proper."
229: 0x079D [0x23] WAIT_FOR_DIALOG_INTERACTION
230: 0x079E [0x66] LOAD_EXT_SCHEDULER_MAIN: Load scheduler "tlk1" with entities [Relentless Storm (ID: 17834311/0x01102147), Relentless Storm (ID: 17834311/0x01102147)], work=69*
231: 0x07AD [0x52] END_LOAD_SCHEDULER: End scheduler "s070" with entities [LocalPlayer, LocalPlayer], work=558*
232: 0x07BC [0x45] LOAD_SCHEDULED_TASK: Load scheduler "s071" with entities [LocalPlayer, LocalPlayer], work=[558*, 0*]
233: 0x07CD [0x4A] Relentless Storm (ID: 17834311/0x01102147) looks at Soltargan (ID: 17834312/0x01102148)
234: 0x07D6 [0x1C] WAIT(30* ticks)
235: 0x07D9 [0x4A] Kyff (ID: 17834274/0x01102122) looks at Unnamed NPC (ID: 17834276/0x01102124)
236: 0x07E2 [0x4A] Soltargan (ID: 17834312/0x01102148) looks at Relentless Storm (ID: 17834311/0x01102147)
237: 0x07EB [0x66] LOAD_EXT_SCHEDULER_MAIN: Load scheduler "tlk0" with entities [Relentless Storm (ID: 17834311/0x01102147), Relentless Storm (ID: 17834311/0x01102147)], work=69*
238: 0x07FA [0x2B] Relentless Storm (ID: 17834311/0x01102147) [7950*]:
    → "But first, to clean up this mess here. We have to make sure no more are strewn about the area."
239: 0x0801 [0x23] WAIT_FOR_DIALOG_INTERACTION
240: 0x0802 [0x66] LOAD_EXT_SCHEDULER_MAIN: Load scheduler "tlk1" with entities [Relentless Storm (ID: 17834311/0x01102147), Relentless Storm (ID: 17834311/0x01102147)], work=69*
241: 0x0811 [0x6E] Soltargan (ID: 17834312/0x01102148) uses emote 7*
242: 0x0818 [0x99] Wait for Soltargan (ID: 17834312/0x01102148) animation to complete
243: 0x081D [0x1C] WAIT(85* ticks)
244: 0x0820 [0x27] REQ_SET(priority=0x05, entity_id=Relentless Storm (ID: 17834311/0x01102147), tag_num=0x03)
245: 0x0827 [0x1C] WAIT(5* ticks)
246: 0x082A [0x27] REQ_SET(priority=0x05, entity_id=Soltargan (ID: 17834312/0x01102148), tag_num=0x03)
247: 0x0831 [0x1C] WAIT(60* ticks)
248: 0x0834 [0x52] END_LOAD_SCHEDULER: End scheduler "s071" with entities [LocalPlayer, LocalPlayer], work=558*
249: 0x0843 [0x45] LOAD_SCHEDULED_TASK: Load scheduler "s072" with entities [LocalPlayer, LocalPlayer], work=[558*, 0*]
250: 0x0854 [0x1C] WAIT(120* ticks)
251: 0x0857 [0x52] END_LOAD_SCHEDULER: End scheduler "s072" with entities [LocalPlayer, LocalPlayer], work=558*
252: 0x0866 [0x45] LOAD_SCHEDULED_TASK: Load scheduler "s083" with entities [LocalPlayer, LocalPlayer], work=[558*, 0*]
253: 0x0877 [0x79] Dworvigg (ID: 17834275/0x01102123) looks at Kyff (ID: 17834274/0x01102122) (Basic look)
254: 0x0881 [0x2B] Kyff (ID: 17834274/0x01102122) [7951*]:
    → "I wonder if these monsters were really trying to attack us."
255: 0x0888 [0x23] WAIT_FOR_DIALOG_INTERACTION
256: 0x0889 [0x52] END_LOAD_SCHEDULER: End scheduler "s083" with entities [LocalPlayer, LocalPlayer], work=558*
257: 0x0898 [0x45] LOAD_SCHEDULED_TASK: Load scheduler "s084" with entities [LocalPlayer, LocalPlayer], work=[558*, 0*]
258: 0x08A9 [0x66] LOAD_EXT_SCHEDULER_MAIN: Load scheduler "tlk0" with entities [Dworvigg (ID: 17834275/0x01102123), Dworvigg (ID: 17834275/0x01102123)], work=69*
259: 0x08B8 [0x2B] Dworvigg (ID: 17834275/0x01102123) [7952*]:
    → "Kyff, are you out of your mind? You saw what they did just now!"
260: 0x08BF [0x23] WAIT_FOR_DIALOG_INTERACTION
261: 0x08C0 [0x66] LOAD_EXT_SCHEDULER_MAIN: Load scheduler "tlk1" with entities [Dworvigg (ID: 17834275/0x01102123), Dworvigg (ID: 17834275/0x01102123)], work=69*
262: 0x08CF [0x52] END_LOAD_SCHEDULER: End scheduler "s084" with entities [LocalPlayer, LocalPlayer], work=558*
263: 0x08DE [0x45] LOAD_SCHEDULED_TASK: Load scheduler "s073" with entities [LocalPlayer, LocalPlayer], work=[558*, 0*]
264: 0x08EF [0x4A] Kyff (ID: 17834274/0x01102122) looks at Dworvigg (ID: 17834275/0x01102123)
265: 0x08F8 [0x1C] WAIT(30* ticks)
266: 0x08FB [0x4E] SET_ENTITY_HIDE_FLAG: Hide Relentless Storm (ID: 17834311/0x01102147)
267: 0x0901 [0x4E] SET_ENTITY_HIDE_FLAG: Hide Soltargan (ID: 17834312/0x01102148)
268: 0x0907 [0x66] LOAD_EXT_SCHEDULER_MAIN: Load scheduler "tlk0" with entities [Kyff (ID: 17834274/0x01102122), Kyff (ID: 17834274/0x01102122)], work=9*
269: 0x0916 [0x2B] Kyff (ID: 17834274/0x01102122) [7953*]:
    → "Well, when Erisa tried to stop it, it backed down as if it were listening to her..."
270: 0x091D [0x23] WAIT_FOR_DIALOG_INTERACTION
271: 0x091E [0x66] LOAD_EXT_SCHEDULER_MAIN: Load scheduler "tlk1" with entities [Kyff (ID: 17834274/0x01102122), Kyff (ID: 17834274/0x01102122)], work=9*
272: 0x092D [0x66] LOAD_EXT_SCHEDULER_MAIN: Load scheduler "tlk0" with entities [Dworvigg (ID: 17834275/0x01102123), Dworvigg (ID: 17834275/0x01102123)], work=69*
273: 0x093C [0x2B] Dworvigg (ID: 17834275/0x01102123) [7954*]:
    → "Now I'm certain there's something wrong with you. Since when can monsters understand language? Now get back to cleaning this place up!"
274: 0x0943 [0x23] WAIT_FOR_DIALOG_INTERACTION
275: 0x0944 [0x66] LOAD_EXT_SCHEDULER_MAIN: Load scheduler "tlk1" with entities [Dworvigg (ID: 17834275/0x01102123), Dworvigg (ID: 17834275/0x01102123)], work=69*
276: 0x0953 [0x52] END_LOAD_SCHEDULER: End scheduler "s073" with entities [LocalPlayer, LocalPlayer], work=558*
277: 0x0962 [0x45] LOAD_SCHEDULED_TASK: Load scheduler "s075" with entities [LocalPlayer, LocalPlayer], work=[558*, 0*]
278: 0x0973 [0x6E] Kyff (ID: 17834274/0x01102122) uses emote 7*
279: 0x097A [0x99] Wait for Kyff (ID: 17834274/0x01102122) animation to complete
280: 0x097F [0x2B] Kyff (ID: 17834274/0x01102122) [7955*]:
    → "Y-yes, of course."
281: 0x0986 [0x23] WAIT_FOR_DIALOG_INTERACTION
282: 0x0987 [0x52] END_LOAD_SCHEDULER: End scheduler "s075" with entities [LocalPlayer, LocalPlayer], work=558*
283: 0x0996 [0x45] LOAD_SCHEDULED_TASK: Load scheduler "s074" with entities [LocalPlayer, LocalPlayer], work=[558*, 0*]
284: 0x09A7 [0x27] REQ_SET(priority=0x05, entity_id=Dworvigg (ID: 17834275/0x01102123), tag_num=0x02)
285: 0x09AE [0x7B] Dworvigg (ID: 17834275/0x01102123) stops talking
286: 0x09B3 [0x4B] UPDATE_ENTITY_YAW(entity=Kyff (ID: 17834274/0x01102122), yaw=5.8°*)
287: 0x09BA [0x4A] Chalvava (ID: 17834304/0x01102140) looks at Erisa (ID: 17834273/0x01102121)
288: 0x09C3 [0x1C] WAIT(30* ticks)
289: 0x09C6 [0x4E] SET_ENTITY_HIDE_FLAG: Show Erisa (ID: 17834273/0x01102121)
290: 0x09CC [0x7A] VM_CONTROL: Reset VM for Relentless Storm (ID: 17834311/0x01102147)
291: 0x09D2 [0x7A] VM_CONTROL: Reset VM for Soltargan (ID: 17834312/0x01102148)
292: 0x09D8 [0xBA] SET_ENTITY_POSITION(entity_id=Relentless Storm (ID: 17834311/0x01102147), pos_x=-318.240*, pos_z=-336.946*, pos_y=-1.000*, direction=178.4°*)
293: 0x09E5 [0xBA] SET_ENTITY_POSITION(entity_id=Soltargan (ID: 17834312/0x01102148), pos_x=-320.394*, pos_z=-337.304*, pos_y=-1.050*, direction=359.5°*)
294: 0x09F2 [0x4E] SET_ENTITY_HIDE_FLAG: Show Relentless Storm (ID: 17834311/0x01102147)
295: 0x09F8 [0x4E] SET_ENTITY_HIDE_FLAG: Show Soltargan (ID: 17834312/0x01102148)
296: 0x09FE [0x66] LOAD_EXT_SCHEDULER_MAIN: Load scheduler "sha0" with entities [Kyff (ID: 17834274/0x01102122), Kyff (ID: 17834274/0x01102122)], work=9*
297: 0x0A0D [0x1C] WAIT(60* ticks)
298: 0x0A10 [0x4A] Soltargan (ID: 17834312/0x01102148) looks at Erisa (ID: 17834273/0x01102121)
299: 0x0A19 [0x4A] Relentless Storm (ID: 17834311/0x01102147) looks at Erisa (ID: 17834273/0x01102121)
300: 0x0A22 [0x1C] WAIT(30* ticks)
301: 0x0A25 [0x66] LOAD_EXT_SCHEDULER_MAIN: Load scheduler "tlk1" with entities [Relentless Storm (ID: 17834311/0x01102147), Relentless Storm (ID: 17834311/0x01102147)], work=69*
302: 0x0A34 [0x1C] WAIT(30* ticks)
303: 0x0A37 [0x52] END_LOAD_SCHEDULER: End scheduler "s074" with entities [LocalPlayer, LocalPlayer], work=558*
304: 0x0A46 [0x45] LOAD_SCHEDULED_TASK: Load scheduler "s076" with entities [LocalPlayer, LocalPlayer], work=[558*, 0*]
305: 0x0A57 [0x1C] WAIT(30* ticks)
306: 0x0A5A [0x27] REQ_SET(priority=0x05, entity_id=Relentless Storm (ID: 17834311/0x01102147), tag_num=0x04)
307: 0x0A61 [0x1C] WAIT(5* ticks)
308: 0x0A64 [0x1C] WAIT(30* ticks)
309: 0x0A67 [0x5B] LOAD_EXT_SCHEDULER: Load scheduler "evb0" with entities [Erisa (ID: 17834273/0x01102121), Erisa (ID: 17834273/0x01102121)], work=1291*
310: 0x0A76 [0x1C] WAIT(60* ticks)
311: 0x0A79 [0x52] END_LOAD_SCHEDULER: End scheduler "s076" with entities [LocalPlayer, LocalPlayer], work=558*
312: 0x0A88 [0x45] LOAD_SCHEDULED_TASK: Load scheduler "s077" with entities [LocalPlayer, LocalPlayer], work=[558*, 0*]
313: 0x0A99 [0x66] LOAD_EXT_SCHEDULER_MAIN: Load scheduler "sha1" with entities [Kyff (ID: 17834274/0x01102122), Kyff (ID: 17834274/0x01102122)], work=9*
314: 0x0AA8 [0x1C] WAIT(60* ticks)
315: 0x0AAB [0x27] REQ_SET(priority=0x05, entity_id=Soltargan (ID: 17834312/0x01102148), tag_num=0x04)
316: 0x0AB2 [0x1C] WAIT(120* ticks)
317: 0x0AB5 [0x52] END_LOAD_SCHEDULER: End scheduler "s077" with entities [LocalPlayer, LocalPlayer], work=558*
318: 0x0AC4 [0x45] LOAD_SCHEDULED_TASK: Load scheduler "s085" with entities [LocalPlayer, LocalPlayer], work=[558*, 0*]
319: 0x0AD5 [0x1C] WAIT(20* ticks)
320: 0x0AD8 [0x4E] SET_ENTITY_HIDE_FLAG: Hide Erisa (ID: 17834273/0x01102121)
321: 0x0ADE [0x4E] SET_ENTITY_HIDE_FLAG: Hide Relentless Storm (ID: 17834311/0x01102147)
322: 0x0AE4 [0x4E] SET_ENTITY_HIDE_FLAG: Hide Soltargan (ID: 17834312/0x01102148)
323: 0x0AEA [0x1C] WAIT(100* ticks)
324: 0x0AED [0x52] END_LOAD_SCHEDULER: End scheduler "s085" with entities [LocalPlayer, LocalPlayer], work=558*
325: 0x0AFC [0x45] LOAD_SCHEDULED_TASK: Load scheduler "s078" with entities [LocalPlayer, LocalPlayer], work=[558*, 0*]
326: 0x0B0D [0x1C] WAIT(15* ticks)
327: 0x0B10 [0xBA] SET_ENTITY_POSITION(entity_id=Kyff (ID: 17834274/0x01102122), pos_x=-321.355*, pos_z=-319.970*, pos_y=-1.050*, direction=177.5°*)
328: 0x0B1D [0x80] LOAD_WAIT(entity=Kyff (ID: 17834274/0x01102122))
329: 0x0B22 [0x27] REQ_SET(priority=0x05, entity_id=Kyff (ID: 17834274/0x01102122), tag_num=0x03)
330: 0x0B29 [0x1C] WAIT(60* ticks)
331: 0x0B2C [0x4A] LocalPlayer looks at Kyff (ID: 17834274/0x01102122)
332: 0x0B35 [0x2B] Kyff (ID: 17834274/0x01102122) [7956*]:
    → "Pardon my brashness, but, um...would it be possible for you to bring these to Erisa for me?"
333: 0x0B3C [0x23] WAIT_FOR_DIALOG_INTERACTION
334: 0x0B3D [0x2B] Kyff (ID: 17834274/0x01102122) [7957*]:
    → "They're some seeds I came across in the forest."
335: 0x0B44 [0x23] WAIT_FOR_DIALOG_INTERACTION
336: 0x0B45 [0x52] END_LOAD_SCHEDULER: End scheduler "s078" with entities [LocalPlayer, LocalPlayer], work=558*
337: 0x0B54 [0x45] LOAD_SCHEDULED_TASK: Load scheduler "s079" with entities [LocalPlayer, LocalPlayer], work=[558*, 0*]
338: 0x0B65 [0x66] LOAD_EXT_SCHEDULER_MAIN: Load scheduler "tlk0" with entities [Kyff (ID: 17834274/0x01102122), Kyff (ID: 17834274/0x01102122)], work=9*
339: 0x0B74 [0x2B] Kyff (ID: 17834274/0x01102122) [7958*]:
    → "Oh, there's no need for worry. They are just seeds of the first plants that she ever grew."
340: 0x0B7B [0x23] WAIT_FOR_DIALOG_INTERACTION
341: 0x0B7C [0x2B] Kyff (ID: 17834274/0x01102122) [7959*]:
    → "I know that this experiment took a bad turn, but not knowing what might occur is precisely why her research is necessary."
342: 0x0B83 [0x23] WAIT_FOR_DIALOG_INTERACTION
343: 0x0B84 [0x2B] Kyff (ID: 17834274/0x01102122) [7960*]:
    → "I don't want her to give up her studies."
344: 0x0B8B [0x23] WAIT_FOR_DIALOG_INTERACTION
345: 0x0B8C [0x66] LOAD_EXT_SCHEDULER_MAIN: Load scheduler "tlk1" with entities [Kyff (ID: 17834274/0x01102122), Kyff (ID: 17834274/0x01102122)], work=9*
346: 0x0B9B [0x52] END_LOAD_SCHEDULER: End scheduler "s079" with entities [LocalPlayer, LocalPlayer], work=558*
347: 0x0BAA [0x45] LOAD_SCHEDULED_TASK: Load scheduler "s080" with entities [LocalPlayer, LocalPlayer], work=[558*, 0*]
348: 0x0BBB [0x66] LOAD_EXT_SCHEDULER_MAIN: Load scheduler "sha1" with entities [Dworvigg (ID: 17834275/0x01102123), Dworvigg (ID: 17834275/0x01102123)], work=69*
349: 0x0BCA [0x79] Dworvigg (ID: 17834275/0x01102123) looks at Kyff (ID: 17834274/0x01102122) (Basic look)
350: 0x0BD4 [0x2B] Dworvigg (ID: 17834275/0x01102123) [7961*]:
    → "Kyff! Stop blabbering and get over here!"
351: 0x0BDB [0x23] WAIT_FOR_DIALOG_INTERACTION
352: 0x0BDC [0x4A] Kyff (ID: 17834274/0x01102122) looks at Dworvigg (ID: 17834275/0x01102123)
353: 0x0BE5 [0x1C] WAIT(30* ticks)
354: 0x0BE8 [0x6E] Kyff (ID: 17834274/0x01102122) uses emote 7*
355: 0x0BEF [0x99] Wait for Kyff (ID: 17834274/0x01102122) animation to complete
356: 0x0BF4 [0x2B] Kyff (ID: 17834274/0x01102122) [7962*]:
    → "I'll be right there!"
357: 0x0BFB [0x23] WAIT_FOR_DIALOG_INTERACTION
358: 0x0BFC [0x52] END_LOAD_SCHEDULER: End scheduler "s080" with entities [LocalPlayer, LocalPlayer], work=558*
359: 0x0C0B [0x45] LOAD_SCHEDULED_TASK: Load scheduler "s081" with entities [LocalPlayer, LocalPlayer], work=[558*, 0*]
360: 0x0C1C [0x4A] Kyff (ID: 17834274/0x01102122) looks at LocalPlayer
361: 0x0C25 [0x1C] WAIT(30* ticks)
362: 0x0C28 [0x66] LOAD_EXT_SCHEDULER_MAIN: Load scheduler "tlk0" with entities [Kyff (ID: 17834274/0x01102122), Kyff (ID: 17834274/0x01102122)], work=9*
363: 0x0C37 [0x2B] Kyff (ID: 17834274/0x01102122) [7963*]:
    → "Thank you for doing this."
364: 0x0C3E [0x23] WAIT_FOR_DIALOG_INTERACTION
365: 0x0C3F [0x66] LOAD_EXT_SCHEDULER_MAIN: Load scheduler "tlk1" with entities [Kyff (ID: 17834274/0x01102122), Kyff (ID: 17834274/0x01102122)], work=9*
366: 0x0C4E [0x52] END_LOAD_SCHEDULER: End scheduler "s081" with entities [LocalPlayer, LocalPlayer], work=558*
367: 0x0C5D [0x45] LOAD_SCHEDULED_TASK: Load scheduler "s082" with entities [LocalPlayer, LocalPlayer], work=[558*, 0*]
368: 0x0C6E [0x27] REQ_SET(priority=0x05, entity_id=Kyff (ID: 17834274/0x01102122), tag_num=0x04)
369: 0x0C75 [0x66] LOAD_EXT_SCHEDULER_MAIN: Load scheduler "sha0" with entities [Dworvigg (ID: 17834275/0x01102123), Dworvigg (ID: 17834275/0x01102123)], work=69*
370: 0x0C84 [0x1C] WAIT(150* ticks)
371: 0x0C87 [0x45] LOAD_SCHEDULED_TASK: Load scheduler "fdo1" with entities [LocalPlayer, LocalPlayer], work=[200*, 0*]
372: 0x0C98 [0x55] WAIT_LOAD_SCHEDULER: Wait for scheduler "fdo1" with entities [LocalPlayer, LocalPlayer], work=200*
373: 0x0CA7 [0x52] END_LOAD_SCHEDULER: End scheduler "s082" with entities [LocalPlayer, LocalPlayer], work=558*
374: 0x0CB6 [0x03] Work_Zone[1] = 1*
375: 0x0CBB [0x46] CAMERA_CONTROL: Restore default settings
376: 0x0CBD [0x45] LOAD_SCHEDULED_TASK: Load scheduler "fdi2" with entities [LocalPlayer, LocalPlayer], work=[200*, 0*]
377: 0x0CCE [0x21] END_EVENT
378: 0x0CCF [0x00] END_REQSTACK()
```

#### Data or dead code:

```
# Dead code (unreachable instructions):
     0x00EF [0x01] GOTO 0x00F2
```

### Event 338

#### Metadata

| Field        | Value     |
|--------------|-----------|
| Entrypoint   | 0x0CD0    |
| Data Size    | 397 bytes |
| Instructions | 48        |

```
      00 01 02 03 04 05 06 07  08 09 0A 0B 0C 0D 0E 0F
      -- -- -- -- -- -- -- --  -- -- -- -- -- -- -- --
0CD0: 42 45 01 80 F0 FF FF 7F  F0 FF FF 7F 66 64 6F 31  BE..........fdo1
0CE0: 00 80 55 01 80 F0 FF FF  7F F0 FF FF 7F 66 64 6F  ..U..........fdo
0CF0: 31 46 01 38 02 80 2F 00  2B 21 10 01 2F 00 2C 21  1F.8../.+!../.,!
0D00: 10 01 2F 00 29 21 10 01  4E 00 2B 21 10 01 4E 00  ../.)!..N.+!..N.
0D10: 2C 21 10 01 4E 00 29 21  10 01 BA 2B 21 10 01 80  ,!..N.)!...+!...
0D20: 80 81 80 82 80 83 80 BA  2C 21 10 01 84 80 85 80  ........,!......
0D30: 82 80 86 80 BA 29 21 10  01 87 80 88 80 82 80 89  .....)!.........
0D40: 80 80 2B 21 10 01 80 2C  21 10 01 80 29 21 10 01  ..+!...,!...)!..
0D50: 1C 0D 80 5B 8A 80 2C 21  10 01 2C 21 10 01 69 64  ...[..,!..,!..id
0D60: 6C 30 45 8B 80 F8 FF FF  7F F8 FF FF 7F 73 30 30  l0E..........s00
0D70: 32 00 80 1C 0C 80 45 01  80 F0 FF FF 7F F0 FF FF  2.....E.........
0D80: 7F 66 64 69 31 00 80 2B  29 21 10 01 8C 80 23 52  .fdi1..+)!....#R
0D90: 8B 80 F8 FF FF 7F F8 FF  FF 7F 73 30 30 32 45 8B  ..........s002E.
0DA0: 80 F8 FF FF 7F F8 FF FF  7F 73 30 30 33 00 80 2B  .........s003..+
0DB0: 29 21 10 01 8D 80 1C 7F  80 52 8B 80 F8 FF FF 7F  )!.......R......
0DC0: F8 FF FF 7F 73 30 30 33  45 8B 80 F8 FF FF 7F F8  ....s003E.......
0DD0: FF FF 7F 73 32 32 36 00  80 1C 18 80 23 52 8B 80  ...s226.....#R..
0DE0: F8 FF FF 7F F8 FF FF 7F  73 32 32 36 45 8B 80 F8  ........s226E...
0DF0: FF FF 7F F8 FF FF 7F 73  30 30 34 00 80 2B 29 21  .......s004..+)!
0E00: 10 01 8E 80 23 2B 29 21  10 01 8F 80 23 45 01 80  ....#+)!....#E..
0E10: F0 FF FF 7F F0 FF FF 7F  66 64 6F 31 00 80 55 01  ........fdo1..U.
0E20: 80 F0 FF FF 7F F0 FF FF  7F 66 64 6F 31 52 8B 80  .........fdo1R..
0E30: F8 FF FF 7F F8 FF FF 7F  73 30 30 34 46 00 02 03  ........s004F...
0E40: 10 10 80 00 5A 0E 45 01  80 F8 FF FF 7F F8 FF FF  ....Z.E.........
0E50: 7F 66 64 69 32 00 80 01  5B 0E 30 21 00           .fdi2...[.0!.   
```

#### Opcodes

```
  0: 0x0CD0 [0x42] SET_CLI_EVENT_CANCEL_DATA()
  1: 0x0CD1 [0x45] LOAD_SCHEDULED_TASK: Load scheduler "fdo1" with entities [LocalPlayer, LocalPlayer], work=[200*, 0*]
  2: 0x0CE2 [0x55] WAIT_LOAD_SCHEDULER: Wait for scheduler "fdo1" with entities [LocalPlayer, LocalPlayer], work=200*
  3: 0x0CF1 [0x46] CAMERA_CONTROL: Disable user control
  4: 0x0CF3 [0x38] SET_CLIENT_EVENT_MODE(mode=27*)
  5: 0x0CF6 [0x2F] Unnamed NPC (ID: 17834283/0x0110212B)->Render.Flags0 &= ~0x80000 // Bit 19
  6: 0x0CFC [0x2F] Unnamed NPC (ID: 17834284/0x0110212C)->Render.Flags0 &= ~0x80000 // Bit 19
  7: 0x0D02 [0x2F] Pagnelle (ID: 17834281/0x01102129)->Render.Flags0 &= ~0x80000 // Bit 19
  8: 0x0D08 [0x4E] SET_ENTITY_HIDE_FLAG: Show Unnamed NPC (ID: 17834283/0x0110212B)
  9: 0x0D0E [0x4E] SET_ENTITY_HIDE_FLAG: Show Unnamed NPC (ID: 17834284/0x0110212C)
 10: 0x0D14 [0x4E] SET_ENTITY_HIDE_FLAG: Show Pagnelle (ID: 17834281/0x01102129)
 11: 0x0D1A [0xBA] SET_ENTITY_POSITION(entity_id=Unnamed NPC (ID: 17834283/0x0110212B), pos_x=360.015*, pos_z=-396.812*, pos_y=-12.511*, direction=90.4°*)
 12: 0x0D27 [0xBA] SET_ENTITY_POSITION(entity_id=Unnamed NPC (ID: 17834284/0x0110212C), pos_x=359.946*, pos_z=-403.212*, pos_y=-12.511*, direction=271.3°*)
 13: 0x0D34 [0xBA] SET_ENTITY_POSITION(entity_id=Pagnelle (ID: 17834281/0x01102129), pos_x=356.673*, pos_z=-400.070*, pos_y=-12.511*, direction=0.3°*)
 14: 0x0D41 [0x80] LOAD_WAIT(entity=Unnamed NPC (ID: 17834283/0x0110212B))
 15: 0x0D46 [0x80] LOAD_WAIT(entity=Unnamed NPC (ID: 17834284/0x0110212C))
 16: 0x0D4B [0x80] LOAD_WAIT(entity=Pagnelle (ID: 17834281/0x01102129))
 17: 0x0D50 [0x1C] WAIT(30* ticks)
 18: 0x0D53 [0x5B] LOAD_EXT_SCHEDULER: Load scheduler "idl0" with entities [Unnamed NPC (ID: 17834284/0x0110212C), Unnamed NPC (ID: 17834284/0x0110212C)], work=3244*
 19: 0x0D62 [0x45] LOAD_SCHEDULED_TASK: Load scheduler "s002" with entities [EventEntity, EventEntity], work=[620*, 0*]
 20: 0x0D73 [0x1C] WAIT(15* ticks)
 21: 0x0D76 [0x45] LOAD_SCHEDULED_TASK: Load scheduler "fdi1" with entities [LocalPlayer, LocalPlayer], work=[200*, 0*]
 22: 0x0D87 [0x2B] Pagnelle (ID: 17834281/0x01102129) [7967*]:
    → "I don't need to tell you that raptor fights are one-on-one competitions between two raptors. Predictably, the raptor that successfully makes its way through the brackets to the end is declared the champion."
 23: 0x0D8E [0x23] WAIT_FOR_DIALOG_INTERACTION
 24: 0x0D8F [0x52] END_LOAD_SCHEDULER: End scheduler "s002" with entities [EventEntity, EventEntity], work=620*
 25: 0x0D9E [0x45] LOAD_SCHEDULED_TASK: Load scheduler "s003" with entities [EventEntity, EventEntity], work=[620*, 0*]
 26: 0x0DAF [0x2B] Pagnelle (ID: 17834281/0x01102129) [7968*]:
    → "Recently, everyone's eye has been on Vicious Vorahal. His spinning kick has carried him to near-limitless victories in the arena, and many a maiden has thrown her handkerchief into the ring in support."
 27: 0x0DB6 [0x1C] WAIT(150* ticks)
 28: 0x0DB9 [0x52] END_LOAD_SCHEDULER: End scheduler "s003" with entities [EventEntity, EventEntity], work=620*
 29: 0x0DC8 [0x45] LOAD_SCHEDULED_TASK: Load scheduler "s226" with entities [EventEntity, EventEntity], work=[620*, 0*]
 30: 0x0DD9 [0x1C] WAIT(120* ticks)
 31: 0x0DDC [0x23] WAIT_FOR_DIALOG_INTERACTION
 32: 0x0DDD [0x52] END_LOAD_SCHEDULER: End scheduler "s226" with entities [EventEntity, EventEntity], work=620*
 33: 0x0DEC [0x45] LOAD_SCHEDULED_TASK: Load scheduler "s004" with entities [EventEntity, EventEntity], work=[620*, 0*]
 34: 0x0DFD [0x2B] Pagnelle (ID: 17834281/0x01102129) [7969*]:
    → "Still, a good deal root for another competitor--Tenacious Tirrod--as a bit of a guilty pleasure."
 35: 0x0E04 [0x23] WAIT_FOR_DIALOG_INTERACTION
 36: 0x0E05 [0x2B] Pagnelle (ID: 17834281/0x01102129) [7970*]:
    → "He's an underdog to be sure, having no trophies to his name, but his never-say-die attitude has won the hearts of his supporters."
 37: 0x0E0C [0x23] WAIT_FOR_DIALOG_INTERACTION
 38: 0x0E0D [0x45] LOAD_SCHEDULED_TASK: Load scheduler "fdo1" with entities [LocalPlayer, LocalPlayer], work=[200*, 0*]
 39: 0x0E1E [0x55] WAIT_LOAD_SCHEDULER: Wait for scheduler "fdo1" with entities [LocalPlayer, LocalPlayer], work=200*
 40: 0x0E2D [0x52] END_LOAD_SCHEDULER: End scheduler "s004" with entities [EventEntity, EventEntity], work=620*
 41: 0x0E3C [0x46] CAMERA_CONTROL: Restore default settings
 42: 0x0E3E [0x02] IF !(Work_Zone[3] == 1*) GOTO 0x0E5A
 43: 0x0E46 [0x45] LOAD_SCHEDULED_TASK: Load scheduler "fdi2" with entities [EventEntity, EventEntity], work=[200*, 0*]
 44: 0x0E57 [0x01] GOTO 0x0E5B
 45: 0x0E5A [0x30] SET_UCOFF_CONTINUE_ZERO()

SUBROUTINE_0E5B:
 46: 0x0E5B [0x21] END_EVENT
 47: 0x0E5C [0x00] END_REQSTACK()
```

### Event 325

#### Metadata

| Field        | Value      |
|--------------|------------|
| Entrypoint   | 0x0E5D     |
| Data Size    | 3804 bytes |
| Instructions | 449        |

```
      00 01 02 03 04 05 06 07  08 09 0A 0B 0C 0D 0E 0F
      -- -- -- -- -- -- -- --  -- -- -- -- -- -- -- --
0E50:                                         42 45 01               BE.
0E60: 80 F0 FF FF 7F F0 FF FF  7F 66 64 6F 31 00 80 55  .........fdo1..U
0E70: 01 80 F0 FF FF 7F F0 FF  FF 7F 66 64 6F 31 46 01  ..........fdo1F.
0E80: 38 02 80 2F 00 25 21 10  01 2F 00 26 21 10 01 2F  8../.%!../.&!../
0E90: 00 27 21 10 01 2F 00 2C  21 10 01 4E 00 25 21 10  .'!../.,!..N.%!.
0EA0: 01 4E 00 26 21 10 01 BA  F0 FF FF 7F 90 80 91 80  .N.&!...........
0EB0: 92 80 93 80 BA 25 21 10  01 94 80 95 80 09 80 96  .....%!.........
0EC0: 80 BA 26 21 10 01 97 80  98 80 09 80 99 80 BA 48  ..&!...........H
0ED0: 21 10 01 9A 80 9B 80 09  80 9C 80 BA 27 21 10 01  !...........'!..
0EE0: 9D 80 9E 80 09 80 9F 80  BA 2C 21 10 01 A0 80 A1  .........,!.....
0EF0: 80 05 80 A2 80 80 F0 FF  FF 7F 80 25 21 10 01 80  ...........%!...
0F00: 26 21 10 01 80 48 21 10  01 4A 48 21 10 01 25 21  &!...H!..JH!..%!
0F10: 10 01 4A 25 21 10 01 48  21 10 01 4A 26 21 10 01  ..J%!..H!..J&!..
0F20: 48 21 10 01 4A 27 21 10  01 25 21 10 01 1C 0D 80  H!..J'!..%!.....
0F30: 5B 8A 80 2C 21 10 01 2C  21 10 01 69 64 6C 30 45  [..,!..,!..idl0E
0F40: 8B 80 F8 FF FF 7F F8 FF  FF 7F 73 31 32 35 00 80  ..........s125..
0F50: 1C 0C 80 45 01 80 F0 FF  FF 7F F0 FF FF 7F 66 64  ...E..........fd
0F60: 69 31 00 80 27 05 25 21  10 01 02 1C 3D 80 27 05  i1..'.%!....=.'.
0F70: 26 21 10 01 03 1C A3 80  52 8B 80 F8 FF FF 7F F8  &!......R.......
0F80: FF FF 7F 73 31 32 35 45  8B 80 F8 FF FF 7F F8 FF  ...s125E........
0F90: FF 7F 73 31 32 36 00 80  2A 05 25 21 10 01 66 68  ..s126..*.%!..fh
0FA0: 80 25 21 10 01 25 21 10  01 74 6C 6B 30 2B 25 21  .%!..%!..tlk0+%!
0FB0: 10 01 A4 80 23 66 68 80  25 21 10 01 25 21 10 01  ....#fh.%!..%!..
0FC0: 74 6C 6B 31 6E 48 21 10  01 A5 80 99 48 21 10 01  tlk1nH!.....H!..
0FD0: 2B 48 21 10 01 A6 80 23  52 8B 80 F8 FF FF 7F F8  +H!....#R.......
0FE0: FF FF 7F 73 31 32 36 45  8B 80 F8 FF FF 7F F8 FF  ...s126E........
0FF0: FF 7F 73 31 32 37 00 80  6E 25 21 10 01 A7 80 99  ..s127..n%!.....
1000: 25 21 10 01 2B 25 21 10  01 A8 80 23 2B 25 21 10  %!..+%!....#+%!.
1010: 01 A9 80 23 4E 00 27 21  10 01 4E 00 2C 21 10 01  ...#N.'!..N.,!..
1020: 80 27 21 10 01 80 2C 21  10 01 52 8B 80 F8 FF FF  .'!...,!..R.....
1030: 7F F8 FF FF 7F 73 31 32  37 45 8B 80 F8 FF FF 7F  .....s127E......
1040: F8 FF FF 7F 73 31 32 38  00 80 2B 27 21 10 01 AA  ....s128..+'!...
1050: 80 23 55 8B 80 F8 FF FF  7F F8 FF FF 7F 73 31 32  .#U..........s12
1060: 38 1C 0D 80 45 8B 80 F8  FF FF 7F F8 FF FF 7F 73  8...E..........s
1070: 31 32 39 00 80 4A 25 21  10 01 27 21 10 01 1C 0C  129..J%!..'!....
1080: 80 4A 26 21 10 01 27 21  10 01 1C 0C 80 4A 48 21  .J&!..'!.....JH!
1090: 10 01 27 21 10 01 6E 25  21 10 01 00 80 99 25 21  ..'!..n%!.....%!
10A0: 10 01 2B 25 21 10 01 AB  80 23 52 8B 80 F8 FF FF  ..+%!....#R.....
10B0: 7F F8 FF FF 7F 73 31 32  39 45 8B 80 F8 FF FF 7F  .....s129E......
10C0: F8 FF FF 7F 73 31 33 30  00 80 6E 27 21 10 01 5C  ....s130..n'!..\
10D0: 80 99 27 21 10 01 2B 27  21 10 01 AC 80 23 45 1C  ..'!..+'!....#E.
10E0: 80 F0 FF FF 7F F0 FF FF  7F 77 68 6F 31 00 80 55  .........who1..U
10F0: 1C 80 F0 FF FF 7F F0 FF  FF 7F 77 68 6F 31 52 8B  ..........who1R.
1100: 80 F8 FF FF 7F F8 FF FF  7F 73 31 33 30 27 05 27  .........s130'.'
1110: 21 10 01 03 2F 00 2B 21  10 01 2F 00 28 21 10 01  !.../.+!../.(!..
1120: 2F 00 72 21 10 01 22 00  94 01 28 21 10 01 37 AD  /.r!.."...(!..7.
1130: 80 AE 80 09 80 AF 80 BA  28 21 10 01 B0 80 B1 80  ........(!......
1140: 05 80 B2 80 BA 72 21 10  01 B3 80 B4 80 09 80 B5  .....r!.........
1150: 80 BA 25 21 10 01 B6 80  B7 80 09 80 B8 80 BA 26  ..%!...........&
1160: 21 10 01 B9 80 BA 80 09  80 BB 80 BA 2B 21 10 01  !...........+!..
1170: BC 80 BD 80 05 80 B5 80  80 F8 FF FF 7F 80 25 21  ..............%!
1180: 10 01 80 26 21 10 01 80  27 21 10 01 80 F8 FF FF  ...&!...'!......
1190: 7F 4A 25 21 10 01 27 21  10 01 4A 26 21 10 01 27  .J%!..'!..J&!..'
11A0: 21 10 01 1C 0D 80 45 8B  80 F8 FF FF 7F F8 FF FF  !.....E.........
11B0: 7F 73 31 33 35 00 80 1C  0C 80 45 1C 80 F0 FF FF  .s135.....E.....
11C0: 7F F0 FF FF 7F 77 68 69  31 00 80 1C BE 80 52 8B  .....whi1.....R.
11D0: 80 F8 FF FF 7F F8 FF FF  7F 73 31 33 35 45 8B 80  .........s135E..
11E0: F8 FF FF 7F F8 FF FF 7F  73 31 33 31 00 80 6E 25  ........s131..n%
11F0: 21 10 01 00 80 99 25 21  10 01 2B 25 21 10 01 BF  !.....%!..+%!...
1200: 80 23 6E 27 21 10 01 5C  80 99 27 21 10 01 2B 27  .#n'!..\..'!..+'
1210: 21 10 01 C0 80 23 52 8B  80 F8 FF FF 7F F8 FF FF  !....#R.........
1220: 7F 73 31 33 31 45 8B 80  F8 FF FF 7F F8 FF FF 7F  .s131E..........
1230: 73 31 33 32 00 80 66 68  80 27 21 10 01 27 21 10  s132..fh.'!..'!.
1240: 01 74 6C 6B 30 2B 27 21  10 01 C1 80 23 2B 27 21  .tlk0+'!....#+'!
1250: 10 01 C2 80 23 66 68 80  27 21 10 01 27 21 10 01  ....#fh.'!..'!..
1260: 74 6C 6B 31 52 8B 80 F8  FF FF 7F F8 FF FF 7F 73  tlk1R..........s
1270: 31 33 32 45 8B 80 F8 FF  FF 7F F8 FF FF 7F 73 31  132E..........s1
1280: 33 33 00 80 6E 25 21 10  01 59 80 99 25 21 10 01  33..n%!..Y..%!..
1290: 66 68 80 26 21 10 01 26  21 10 01 74 68 6B 31 2B  fh.&!..&!..thk1+
12A0: 25 21 10 01 C3 80 23 BA  2C 21 10 01 C4 80 C5 80  %!....#.,!......
12B0: 09 80 C6 80 80 2C 21 10  01 5D 00 80 18 80 52 8B  .....,!..]....R.
12C0: 80 F8 FF FF 7F F8 FF FF  7F 73 31 33 33 45 8B 80  .........s133E..
12D0: F8 FF FF 7F F8 FF FF 7F  73 31 33 34 00 80 66 68  ........s134..fh
12E0: 80 26 21 10 01 26 21 10  01 74 68 6B 32 4A 27 21  .&!..&!..thk2J'!
12F0: 10 01 2C 21 10 01 1C 0D  80 6E 27 21 10 01 5C 80  ..,!.....n'!..\.
1300: 99 27 21 10 01 2B 27 21  10 01 C7 80 23 5C 00 39  .'!..+'!....#\.9
1310: 80 5C 01 39 80 9A 5B C8  80 27 21 10 01 27 21 10  .\.9..[..'!..'!.
1320: 01 6E 61 67 30 1C C9 80  52 8B 80 F8 FF FF 7F F8  .nag0...R.......
1330: FF FF 7F 73 31 33 34 45  8B 80 F8 FF FF 7F F8 FF  ...s134E........
1340: FF 7F 73 31 33 36 00 80  1C 0C 80 6B 69 64 6C 30  ..s136.....kidl0
1350: 2C 21 10 01 1C 1B 80 5B  8A 80 2C 21 10 01 2C 21  ,!.....[..,!..,!
1360: 10 01 6F 62 69 30 52 8B  80 F8 FF FF 7F F8 FF FF  ..obi0R.........
1370: 7F 73 31 33 36 45 8B 80  F8 FF FF 7F F8 FF FF 7F  .s136E..........
1380: 73 31 33 37 00 80 4E 00  2B 21 10 01 1C 40 80 6B  s137..N.+!...@.k
1390: 69 64 6C 30 27 21 10 01  27 05 2B 21 10 01 03 1C  idl0'!..'.+!....
13A0: 3D 80 52 8B 80 F8 FF FF  7F F8 FF FF 7F 73 31 33  =.R..........s13
13B0: 37 45 8B 80 F8 FF FF 7F  F8 FF FF 7F 73 31 36 31  7E..........s161
13C0: 00 80 1C C9 80 9F 54 80  F8 FF FF 7F F8 FF FF 7F  ......T.........
13D0: 73 74 72 30 00 80 1C 0C  80 9F 54 80 F8 FF FF 7F  str0......T.....
13E0: F8 FF FF 7F 6B 69 6C 6C  00 80 1C 45 80 9F 54 80  ....kill...E..T.
13F0: F8 FF FF 7F F8 FF FF 7F  73 74 72 30 00 80 1C 0C  ........str0....
1400: 80 9F 54 80 F8 FF FF 7F  F8 FF FF 7F 6B 69 6C 6C  ..T.........kill
1410: 00 80 1C 72 80 7A 00 2B  21 10 01 BA F0 FF FF 7F  ...r.z.+!.......
1420: CA 80 CB 80 CC 80 CD 80  BA 27 21 10 01 CE 80 CF  .........'!.....
1430: 80 09 80 CD 80 BA 25 21  10 01 D0 80 D1 80 09 80  ......%!........
1440: CD 80 BA 26 21 10 01 D2  80 D3 80 09 80 CD 80 BA  ...&!...........
1450: 2B 21 10 01 D4 80 D5 80  05 80 D6 80 80 2B 21 10  +!...........+!.
1460: 01 1C 45 80 52 8B 80 F8  FF FF 7F F8 FF FF 7F 73  ..E.R..........s
1470: 31 36 31 45 8B 80 F8 FF  FF 7F F8 FF FF 7F 73 31  161E..........s1
1480: 33 38 00 80 80 F0 FF FF  7F 80 27 21 10 01 80 25  38........'!...%
1490: 21 10 01 80 26 21 10 01  4A 27 21 10 01 2C 21 10  !...&!..J'!..,!.
14A0: 01 4A 25 21 10 01 27 21  10 01 4A 26 21 10 01 27  .J%!..'!..J&!..'
14B0: 21 10 01 4A 2B 21 10 01  27 21 10 01 4A 28 21 10  !..J+!..'!..J(!.
14C0: 01 27 21 10 01 1C 0D 80  66 D7 80 28 21 10 01 28  .'!.....f..(!..(
14D0: 21 10 01 74 68 6B 31 1C  18 80 52 8B 80 F8 FF FF  !..thk1...R.....
14E0: 7F F8 FF FF 7F 73 31 33  38 45 8B 80 F8 FF FF 7F  .....s138E......
14F0: F8 FF FF 7F 73 31 33 39  00 80 4B 27 21 10 01 D6  ....s139..K'!...
1500: 80 1C 0D 80 6E 27 21 10  01 5C 80 99 27 21 10 01  ....n'!..\..'!..
1510: 2B 27 21 10 01 D8 80 23  27 05 F0 FF FF 7F 0B 1C  +'!....#'.......
1520: 0C 80 52 8B 80 F8 FF FF  7F F8 FF FF 7F 73 31 33  ..R..........s13
1530: 39 45 8B 80 F8 FF FF 7F  F8 FF FF 7F 73 31 34 30  9E..........s140
1540: 00 80 2A 05 F0 FF FF 7F  79 00 27 21 10 01 F0 FF  ..*.....y.'!....
1550: FF 7F 4E 00 28 21 10 01  80 28 21 10 01 6B 69 64  ..N.(!...(!..kid
1560: 6C 30 2C 21 10 01 4A 2C  21 10 01 28 21 10 01 4A  l0,!..J,!..(!..J
1570: 2B 21 10 01 28 21 10 01  1C 1B 80 52 8B 80 F8 FF  +!..(!.....R....
1580: FF 7F F8 FF FF 7F 73 31  34 30 45 8B 80 F8 FF FF  ......s140E.....
1590: 7F F8 FF FF 7F 73 31 34  31 00 80 2B 27 21 10 01  .....s141..+'!..
15A0: D9 80 23 52 8B 80 F8 FF  FF 7F F8 FF FF 7F 73 31  ..#R..........s1
15B0: 34 31 45 8B 80 F8 FF FF  7F F8 FF FF 7F 73 31 34  41E..........s14
15C0: 32 00 80 4A 48 21 10 01  28 21 10 01 4A 25 21 10  2..JH!..(!..J%!.
15D0: 01 28 21 10 01 4A 26 21  10 01 28 21 10 01 2B 28  .(!..J&!..(!..+(
15E0: 21 10 01 DA 80 23 52 8B  80 F8 FF FF 7F F8 FF FF  !....#R.........
15F0: 7F 73 31 34 32 45 8B 80  F8 FF FF 7F F8 FF FF 7F  .s142E..........
1600: 73 31 34 33 00 80 66 D7  80 28 21 10 01 28 21 10  s143..f..(!..(!.
1610: 01 74 68 6B 32 79 00 27  21 10 01 F8 FF FF 7F 1C  .thk2y.'!.......
1620: 1B 80 2B 27 21 10 01 DB  80 23 6E 28 21 10 01 5C  ..+'!....#n(!..\
1630: 80 99 28 21 10 01 2B 28  21 10 01 DC 80 23 52 8B  ..(!..+(!....#R.
1640: 80 F8 FF FF 7F F8 FF FF  7F 73 31 34 33 45 8B 80  .........s143E..
1650: F8 FF FF 7F F8 FF FF 7F  73 31 34 34 00 80 7B 48  ........s144..{H
1660: 21 10 01 7B 25 21 10 01  6E 25 21 10 01 A5 80 99  !..{%!..n%!.....
1670: 25 21 10 01 2B 25 21 10  01 DD 80 23 BA 28 21 10  %!..+%!....#.(!.
1680: 01 DE 80 DF 80 09 80 AF  80 BA 27 21 10 01 E0 80  ..........'!....
1690: E1 80 09 80 AF 80 80 28  21 10 01 80 27 21 10 01  .......(!...'!..
16A0: 4A 28 21 10 01 25 21 10  01 4A 27 21 10 01 28 21  J(!..%!..J'!..(!
16B0: 10 01 4A 2C 21 10 01 28  21 10 01 4A 2B 21 10 01  ..J,!..(!..J+!..
16C0: 28 21 10 01 1C 0D 80 5B  8A 80 2C 21 10 01 2C 21  (!.....[..,!..,!
16D0: 10 01 69 64 6C 30 5B 8A  80 2B 21 10 01 2B 21 10  ..idl0[..+!..+!.
16E0: 01 69 64 6C 30 1C 0C 80  52 8B 80 F8 FF FF 7F F8  .idl0...R.......
16F0: FF FF 7F 73 31 34 34 45  8B 80 F8 FF FF 7F F8 FF  ...s144E........
1700: FF 7F 73 31 34 35 00 80  66 D7 80 28 21 10 01 28  ..s145..f..(!..(
1710: 21 10 01 74 68 6B 31 79  00 25 21 10 01 28 21 10  !..thk1y.%!..(!.
1720: 01 79 00 48 21 10 01 28  21 10 01 2B 28 21 10 01  .y.H!..(!..+(!..
1730: E2 80 23 6E 25 21 10 01  00 80 99 25 21 10 01 2B  ..#n%!.....%!..+
1740: 25 21 10 01 E3 80 23 52  8B 80 F8 FF FF 7F F8 FF  %!....#R........
1750: FF 7F 73 31 34 35 45 8B  80 F8 FF FF 7F F8 FF FF  ..s145E.........
1760: 7F 73 31 34 36 00 80 2B  28 21 10 01 E4 80 23 52  .s146..+(!....#R
1770: 8B 80 F8 FF FF 7F F8 FF  FF 7F 73 31 34 36 45 8B  ..........s146E.
1780: 80 F8 FF FF 7F F8 FF FF  7F 73 31 34 37 00 80 66  .........s147..f
1790: D7 80 28 21 10 01 28 21  10 01 74 68 6B 32 2B 28  ..(!..(!..thk2+(
17A0: 21 10 01 E5 80 23 5D 00  80 18 80 6E 25 21 10 01  !....#]....n%!..
17B0: 3A 80 99 25 21 10 01 52  8B 80 F8 FF FF 7F F8 FF  :..%!..R........
17C0: FF 7F 73 31 34 37 45 8B  80 F8 FF FF 7F F8 FF FF  ..s147E.........
17D0: 7F 73 31 34 38 00 80 2B  25 21 10 01 E6 80 23 4E  .s148..+%!....#N
17E0: 00 72 21 10 01 80 72 21  10 01 79 00 72 21 10 01  .r!...r!..y.r!..
17F0: 25 21 10 01 5C 00 5B 80  5C 01 5B 80 9A 27 05 72  %!..\.[.\.[..'.r
1800: 21 10 01 04 1C 1B 80 52  8B 80 F8 FF FF 7F F8 FF  !......R........
1810: FF 7F 73 31 34 38 45 8B  80 F8 FF FF 7F F8 FF FF  ..s148E.........
1820: 7F 73 31 34 39 00 80 4A  48 21 10 01 72 21 10 01  .s149..JH!..r!..
1830: 2B 72 21 10 01 E7 80 23  4A 25 21 10 01 72 21 10  +r!....#J%!..r!.
1840: 01 1C 0D 80 4A 26 21 10  01 72 21 10 01 2B 25 21  ....J&!..r!..+%!
1850: 10 01 E8 80 23 2A 05 72  21 10 01 52 8B 80 F8 FF  ....#*.r!..R....
1860: FF 7F F8 FF FF 7F 73 31  34 39 45 8B 80 F8 FF FF  ......s149E.....
1870: 7F F8 FF FF 7F 73 31 35  30 00 80 4A 28 21 10 01  .....s150..J(!..
1880: 28 21 10 01 79 00 72 21  10 01 28 21 10 01 1C 0D  (!..y.r!..(!....
1890: 80 6E 28 21 10 01 00 80  99 28 21 10 01 2B 28 21  .n(!.....(!..+(!
18A0: 10 01 E9 80 23 6E 72 21  10 01 59 80 99 72 21 10  ....#nr!..Y..r!.
18B0: 01 2B 72 21 10 01 EA 80  23 52 8B 80 F8 FF FF 7F  .+r!....#R......
18C0: F8 FF FF 7F 73 31 35 30  45 8B 80 F8 FF FF 7F F8  ....s150E.......
18D0: FF FF 7F 73 31 35 31 00  80 6E 28 21 10 01 5C 80  ...s151..n(!..\.
18E0: 99 28 21 10 01 2B 28 21  10 01 EB 80 23 52 8B 80  .(!..+(!....#R..
18F0: F8 FF FF 7F F8 FF FF 7F  73 31 35 31 45 8B 80 F8  ........s151E...
1900: FF FF 7F F8 FF FF 7F 73  31 35 32 00 80 79 00 72  .......s152..y.r
1910: 21 10 01 25 21 10 01 2B  72 21 10 01 EC 80 23 79  !..%!..+r!....#y
1920: 00 25 21 10 01 F8 FF FF  7F 2B 25 21 10 01 ED 80  .%!......+%!....
1930: 23 5B 52 80 72 21 10 01  72 21 10 01 6B 6F 62 30  #[R.r!..r!..kob0
1940: 7B 25 21 10 01 52 8B 80  F8 FF FF 7F F8 FF FF 7F  {%!..R..........
1950: 73 31 35 32 45 8B 80 F8  FF FF 7F F8 FF FF 7F 73  s152E..........s
1960: 31 35 33 00 80 2B 72 21  10 01 EE 80 23 53 72 21  153..+r!....#Sr!
1970: 10 01 72 21 10 01 6B 6F  62 30 52 8B 80 F8 FF FF  ..r!..kob0R.....
1980: 7F F8 FF FF 7F 73 31 35  33 45 8B 80 F8 FF FF 7F  .....s153E......
1990: F8 FF FF 7F 73 31 35 34  00 80 4A 72 21 10 01 28  ....s154..Jr!..(
19A0: 21 10 01 1C 0D 80 66 62  80 72 21 10 01 72 21 10  !.....fb.r!..r!.
19B0: 01 74 6C 6B 30 2B 72 21  10 01 EF 80 23 66 62 80  .tlk0+r!....#fb.
19C0: 72 21 10 01 72 21 10 01  74 6C 6B 31 66 D7 80 28  r!..r!..tlk1f..(
19D0: 21 10 01 28 21 10 01 74  68 6B 31 7B 28 21 10 01  !..(!..thk1{(!..
19E0: 2B 28 21 10 01 F0 80 23  52 8B 80 F8 FF FF 7F F8  +(!....#R.......
19F0: FF FF 7F 73 31 35 34 45  8B 80 F8 FF FF 7F F8 FF  ...s154E........
1A00: FF 7F 73 31 35 35 00 80  66 62 80 72 21 10 01 72  ..s155..fb.r!..r
1A10: 21 10 01 74 6C 6B 30 2B  72 21 10 01 F1 80 23 66  !..tlk0+r!....#f
1A20: 62 80 72 21 10 01 72 21  10 01 74 6C 6B 31 1C 16  b.r!..r!..tlk1..
1A30: 80 6E 72 21 10 01 59 80  99 72 21 10 01 2B 72 21  .nr!..Y..r!..+r!
1A40: 10 01 F2 80 23 66 D7 80  28 21 10 01 28 21 10 01  ....#f..(!..(!..
1A50: 74 68 6B 32 2B 28 21 10  01 F3 80 23 52 8B 80 F8  thk2+(!....#R...
1A60: FF FF 7F F8 FF FF 7F 73  31 35 35 45 8B 80 F8 FF  .......s155E....
1A70: FF 7F F8 FF FF 7F 73 31  35 36 00 80 66 62 80 72  ......s156..fb.r
1A80: 21 10 01 72 21 10 01 74  6C 6B 30 2B 72 21 10 01  !..r!..tlk0+r!..
1A90: F4 80 23 66 62 80 72 21  10 01 72 21 10 01 74 6C  ..#fb.r!..r!..tl
1AA0: 6B 31 52 8B 80 F8 FF FF  7F F8 FF FF 7F 73 31 35  k1R..........s15
1AB0: 36 45 8B 80 F8 FF FF 7F  F8 FF FF 7F 73 31 35 37  6E..........s157
1AC0: 00 80 27 05 72 21 10 01  05 1C 45 80 27 05 27 21  ..'.r!....E.'.'!
1AD0: 10 01 02 7B 27 21 10 01  1C 45 80 27 05 48 21 10  ...{'!...E.'.H!.
1AE0: 01 06 7B 48 21 10 01 1C  45 80 27 05 25 21 10 01  ..{H!...E.'.%!..
1AF0: 03 1C 45 80 27 05 26 21  10 01 02 7B 26 21 10 01  ..E.'.&!...{&!..
1B00: 1C 18 80 52 8B 80 F8 FF  FF 7F F8 FF FF 7F 73 31  ...R..........s1
1B10: 35 37 45 8B 80 F8 FF FF  7F F8 FF FF 7F 73 31 35  57E..........s15
1B20: 38 00 80 2B 28 21 10 01  F5 80 23 BA F0 FF FF 7F  8..+(!....#.....
1B30: F6 80 F7 80 09 80 F8 80  80 F0 FF FF 7F 4A F0 FF  .............J..
1B40: FF 7F 28 21 10 01 55 8B  80 F8 FF FF 7F F8 FF FF  ..(!..U.........
1B50: 7F 73 31 35 38 4E 01 72  21 10 01 4E 01 27 21 10  .s158N.r!..N.'!.
1B60: 01 4E 01 48 21 10 01 4E  01 25 21 10 01 4E 01 26  .N.H!..N.%!..N.&
1B70: 21 10 01 27 05 27 21 10  01 04 1C 0D 80 45 8B 80  !..'.'!......E..
1B80: F8 FF FF 7F F8 FF FF 7F  73 31 35 39 00 80 4A 28  ........s159..J(
1B90: 21 10 01 F0 FF FF 7F 1C  0D 80 6E 28 21 10 01 5C  !.........n(!..\
1BA0: 80 99 28 21 10 01 2B 28  21 10 01 F9 80 23 2B 28  ..(!..+(!....#+(
1BB0: 21 10 01 FA 80 23 52 8B  80 F8 FF FF 7F F8 FF FF  !....#R.........
1BC0: 7F 73 31 35 39 45 8B 80  F8 FF FF 7F F8 FF FF 7F  .s159E..........
1BD0: 73 32 32 30 00 80 4A 28  21 10 01 2B 21 10 01 1C  s220..J(!..+!...
1BE0: 0D 80 6E 28 21 10 01 FB  80 99 28 21 10 01 2B 28  ..n(!.....(!..+(
1BF0: 21 10 01 FC 80 23 52 8B  80 F8 FF FF 7F F8 FF FF  !....#R.........
1C00: 7F 73 32 32 30 45 8B 80  F8 FF FF 7F F8 FF FF 7F  .s220E..........
1C10: 73 32 32 31 00 80 4A 28  21 10 01 F0 FF FF 7F 1C  s221..J(!.......
1C20: 0D 80 66 D7 80 28 21 10  01 28 21 10 01 74 68 6B  ..f..(!..(!..thk
1C30: 31 2B 28 21 10 01 FD 80  23 52 8B 80 F8 FF FF 7F  1+(!....#R......
1C40: F8 FF FF 7F 73 32 32 31  45 8B 80 F8 FF FF 7F F8  ....s221E.......
1C50: FF FF 7F 73 31 36 30 00  80 2B 28 21 10 01 FE 80  ...s160..+(!....
1C60: 23 66 D7 80 28 21 10 01  28 21 10 01 74 68 6B 32  #f..(!..(!..thk2
1C70: 52 8B 80 F8 FF FF 7F F8  FF FF 7F 73 31 36 30 45  R..........s160E
1C80: 8B 80 F8 FF FF 7F F8 FF  FF 7F 73 31 36 32 00 80  ..........s162..
1C90: 2B 28 21 10 01 FF 80 23  66 D7 80 28 21 10 01 28  +(!....#f..(!..(
1CA0: 21 10 01 74 6C 6B 30 2B  28 21 10 01 00 81 23 66  !..tlk0+(!....#f
1CB0: D7 80 28 21 10 01 28 21  10 01 74 6C 6B 31 1C 16  ..(!..(!..tlk1..
1CC0: 80 52 8B 80 F8 FF FF 7F  F8 FF FF 7F 73 31 36 32  .R..........s162
1CD0: 45 8B 80 F8 FF FF 7F F8  FF FF 7F 73 31 36 33 00  E..........s163.
1CE0: 80 6E 28 21 10 01 01 81  99 28 21 10 01 2B 28 21  .n(!.....(!..+(!
1CF0: 10 01 02 81 23 45 01 80  F0 FF FF 7F F0 FF FF 7F  ....#E..........
1D00: 66 64 6F 31 00 80 55 01  80 F0 FF FF 7F F0 FF FF  fdo1..U.........
1D10: 7F 66 64 6F 31 52 8B 80  F8 FF FF 7F F8 FF FF 7F  .fdo1R..........
1D20: 73 31 36 33 46 00 45 01  80 F0 FF FF 7F F0 FF FF  s163F.E.........
1D30: 7F 66 64 69 32 00 80 21  00                       .fdi2..!.       
```

#### Opcodes

```
  0: 0x0E5D [0x42] SET_CLI_EVENT_CANCEL_DATA()
  1: 0x0E5E [0x45] LOAD_SCHEDULED_TASK: Load scheduler "fdo1" with entities [LocalPlayer, LocalPlayer], work=[200*, 0*]
  2: 0x0E6F [0x55] WAIT_LOAD_SCHEDULER: Wait for scheduler "fdo1" with entities [LocalPlayer, LocalPlayer], work=200*
  3: 0x0E7E [0x46] CAMERA_CONTROL: Disable user control
  4: 0x0E80 [0x38] SET_CLIENT_EVENT_MODE(mode=27*)
  5: 0x0E83 [0x2F] Aristide (ID: 17834277/0x01102125)->Render.Flags0 &= ~0x80000 // Bit 19
  6: 0x0E89 [0x2F] Unnamed NPC (ID: 17834278/0x01102126)->Render.Flags0 &= ~0x80000 // Bit 19
  7: 0x0E8F [0x2F] Ilney (ID: 17834279/0x01102127)->Render.Flags0 &= ~0x80000 // Bit 19
  8: 0x0E95 [0x2F] Unnamed NPC (ID: 17834284/0x0110212C)->Render.Flags0 &= ~0x80000 // Bit 19
  9: 0x0E9B [0x4E] SET_ENTITY_HIDE_FLAG: Show Aristide (ID: 17834277/0x01102125)
 10: 0x0EA1 [0x4E] SET_ENTITY_HIDE_FLAG: Show Unnamed NPC (ID: 17834278/0x01102126)
 11: 0x0EA7 [0xBA] SET_ENTITY_POSITION(entity_id=LocalPlayer, pos_x=-346.334*, pos_z=-338.129*, pos_y=-3.247*, direction=321.7°*)
 12: 0x0EB4 [0xBA] SET_ENTITY_POSITION(entity_id=Aristide (ID: 17834277/0x01102125), pos_x=-334.697*, pos_z=-332.750*, pos_y=-1.000*, direction=238.4°*)
 13: 0x0EC1 [0xBA] SET_ENTITY_POSITION(entity_id=Unnamed NPC (ID: 17834278/0x01102126), pos_x=-334.937*, pos_z=-333.935*, pos_y=-1.000*, direction=242.4°*)
 14: 0x0ECE [0xBA] SET_ENTITY_POSITION(entity_id=Soltargan (ID: 17834312/0x01102148), pos_x=-338.997*, pos_z=-326.019*, pos_y=-1.000*, direction=180.7°*)
 15: 0x0EDB [0xBA] SET_ENTITY_POSITION(entity_id=Ilney (ID: 17834279/0x01102127), pos_x=-337.514*, pos_z=-322.062*, pos_y=-1.000*, direction=100.5°*)
 16: 0x0EE8 [0xBA] SET_ENTITY_POSITION(entity_id=Unnamed NPC (ID: 17834284/0x0110212C), pos_x=-338.298*, pos_z=-320.297*, pos_y=-1.050*, direction=83.5°*)
 17: 0x0EF5 [0x80] LOAD_WAIT(entity=LocalPlayer)
 18: 0x0EFA [0x80] LOAD_WAIT(entity=Aristide (ID: 17834277/0x01102125))
 19: 0x0EFF [0x80] LOAD_WAIT(entity=Unnamed NPC (ID: 17834278/0x01102126))
 20: 0x0F04 [0x80] LOAD_WAIT(entity=Soltargan (ID: 17834312/0x01102148))
 21: 0x0F09 [0x4A] Soltargan (ID: 17834312/0x01102148) looks at Aristide (ID: 17834277/0x01102125)
 22: 0x0F12 [0x4A] Aristide (ID: 17834277/0x01102125) looks at Soltargan (ID: 17834312/0x01102148)
 23: 0x0F1B [0x4A] Unnamed NPC (ID: 17834278/0x01102126) looks at Soltargan (ID: 17834312/0x01102148)
 24: 0x0F24 [0x4A] Ilney (ID: 17834279/0x01102127) looks at Aristide (ID: 17834277/0x01102125)
 25: 0x0F2D [0x1C] WAIT(30* ticks)
 26: 0x0F30 [0x5B] LOAD_EXT_SCHEDULER: Load scheduler "idl0" with entities [Unnamed NPC (ID: 17834284/0x0110212C), Unnamed NPC (ID: 17834284/0x0110212C)], work=3244*
 27: 0x0F3F [0x45] LOAD_SCHEDULED_TASK: Load scheduler "s125" with entities [EventEntity, EventEntity], work=[620*, 0*]
 28: 0x0F50 [0x1C] WAIT(15* ticks)
 29: 0x0F53 [0x45] LOAD_SCHEDULED_TASK: Load scheduler "fdi1" with entities [LocalPlayer, LocalPlayer], work=[200*, 0*]
 30: 0x0F64 [0x27] REQ_SET(priority=0x05, entity_id=Aristide (ID: 17834277/0x01102125), tag_num=0x02)
 31: 0x0F6B [0x1C] WAIT(10* ticks)
 32: 0x0F6E [0x27] REQ_SET(priority=0x05, entity_id=Unnamed NPC (ID: 17834278/0x01102126), tag_num=0x03)
 33: 0x0F75 [0x1C] WAIT(170* ticks)
 34: 0x0F78 [0x52] END_LOAD_SCHEDULER: End scheduler "s125" with entities [EventEntity, EventEntity], work=620*
 35: 0x0F87 [0x45] LOAD_SCHEDULED_TASK: Load scheduler "s126" with entities [EventEntity, EventEntity], work=[620*, 0*]
 36: 0x0F98 [0x2A] GET_REQ_LEVEL(level=5, entity_id=Aristide (ID: 17834277/0x01102125))
 37: 0x0F9E [0x66] LOAD_EXT_SCHEDULER_MAIN: Load scheduler "tlk0" with entities [Aristide (ID: 17834277/0x01102125), Aristide (ID: 17834277/0x01102125)], work=9*
 38: 0x0FAD [0x2B] Aristide (ID: 17834277/0x01102125) [7971*]:
    → "Did you manage to catch the raptors yet?"
 39: 0x0FB4 [0x23] WAIT_FOR_DIALOG_INTERACTION
 40: 0x0FB5 [0x66] LOAD_EXT_SCHEDULER_MAIN: Load scheduler "tlk1" with entities [Aristide (ID: 17834277/0x01102125), Aristide (ID: 17834277/0x01102125)], work=9*
 41: 0x0FC4 [0x6E] Soltargan (ID: 17834312/0x01102148) uses emote 6*
 42: 0x0FCB [0x99] Wait for Soltargan (ID: 17834312/0x01102148) animation to complete
 43: 0x0FD0 [0x2B] Soltargan (ID: 17834312/0x01102148) [7972*]:
    → "I caught a glimpse of one over there, but it vanished before I could subdue it."
 44: 0x0FD7 [0x23] WAIT_FOR_DIALOG_INTERACTION
 45: 0x0FD8 [0x52] END_LOAD_SCHEDULER: End scheduler "s126" with entities [EventEntity, EventEntity], work=620*
 46: 0x0FE7 [0x45] LOAD_SCHEDULED_TASK: Load scheduler "s127" with entities [EventEntity, EventEntity], work=[620*, 0*]
 47: 0x0FF8 [0x6E] Aristide (ID: 17834277/0x01102125) uses emote 26*
 48: 0x0FFF [0x99] Wait for Aristide (ID: 17834277/0x01102125) animation to complete
 49: 0x1004 [0x2B] Aristide (ID: 17834277/0x01102125) [7973*]:
    → "You too? You wouldn't think something so large could be so nimble."
 50: 0x100B [0x23] WAIT_FOR_DIALOG_INTERACTION
 51: 0x100C [0x2B] Aristide (ID: 17834277/0x01102125) [7974*]:
    → "How could that guy manage to catch one...?"
 52: 0x1013 [0x23] WAIT_FOR_DIALOG_INTERACTION
 53: 0x1014 [0x4E] SET_ENTITY_HIDE_FLAG: Show Ilney (ID: 17834279/0x01102127)
 54: 0x101A [0x4E] SET_ENTITY_HIDE_FLAG: Show Unnamed NPC (ID: 17834284/0x0110212C)
 55: 0x1020 [0x80] LOAD_WAIT(entity=Ilney (ID: 17834279/0x01102127))
 56: 0x1025 [0x80] LOAD_WAIT(entity=Unnamed NPC (ID: 17834284/0x0110212C))
 57: 0x102A [0x52] END_LOAD_SCHEDULER: End scheduler "s127" with entities [EventEntity, EventEntity], work=620*
 58: 0x1039 [0x45] LOAD_SCHEDULED_TASK: Load scheduler "s128" with entities [EventEntity, EventEntity], work=[620*, 0*]
 59: 0x104A [0x2B] Ilney (ID: 17834279/0x01102127) [7975*]:
    → "Using a trap, of course."
 60: 0x1051 [0x23] WAIT_FOR_DIALOG_INTERACTION
 61: 0x1052 [0x55] WAIT_LOAD_SCHEDULER: Wait for scheduler "s128" with entities [EventEntity, EventEntity], work=620*
 62: 0x1061 [0x1C] WAIT(30* ticks)
 63: 0x1064 [0x45] LOAD_SCHEDULED_TASK: Load scheduler "s129" with entities [EventEntity, EventEntity], work=[620*, 0*]
 64: 0x1075 [0x4A] Aristide (ID: 17834277/0x01102125) looks at Ilney (ID: 17834279/0x01102127)
 65: 0x107E [0x1C] WAIT(15* ticks)
 66: 0x1081 [0x4A] Unnamed NPC (ID: 17834278/0x01102126) looks at Ilney (ID: 17834279/0x01102127)
 67: 0x108A [0x1C] WAIT(15* ticks)
 68: 0x108D [0x4A] Soltargan (ID: 17834312/0x01102148) looks at Ilney (ID: 17834279/0x01102127)
 69: 0x1096 [0x6E] Aristide (ID: 17834277/0x01102125) uses emote 0*
 70: 0x109D [0x99] Wait for Aristide (ID: 17834277/0x01102125) animation to complete
 71: 0x10A2 [0x2B] Aristide (ID: 17834277/0x01102125) [7976*]:
    → "Who's there? What are you doing with that raptor? They're meant to be "taken care of"!"
 72: 0x10A9 [0x23] WAIT_FOR_DIALOG_INTERACTION
 73: 0x10AA [0x52] END_LOAD_SCHEDULER: End scheduler "s129" with entities [EventEntity, EventEntity], work=620*
 74: 0x10B9 [0x45] LOAD_SCHEDULED_TASK: Load scheduler "s130" with entities [EventEntity, EventEntity], work=[620*, 0*]
 75: 0x10CA [0x6E] Ilney (ID: 17834279/0x01102127) uses emote 22*
 76: 0x10D1 [0x99] Wait for Ilney (ID: 17834279/0x01102127) animation to complete
 77: 0x10D6 [0x2B] Ilney (ID: 17834279/0x01102127) [7977*]:
    → "Who do you think it is?"
 78: 0x10DD [0x23] WAIT_FOR_DIALOG_INTERACTION
 79: 0x10DE [0x45] LOAD_SCHEDULED_TASK: Load scheduler "who1" with entities [LocalPlayer, LocalPlayer], work=[201*, 0*]
 80: 0x10EF [0x55] WAIT_LOAD_SCHEDULER: Wait for scheduler "who1" with entities [LocalPlayer, LocalPlayer], work=201*
 81: 0x10FE [0x52] END_LOAD_SCHEDULER: End scheduler "s130" with entities [EventEntity, EventEntity], work=620*
 82: 0x110D [0x27] REQ_SET(priority=0x05, entity_id=Ilney (ID: 17834279/0x01102127), tag_num=0x03)
 83: 0x1114 [0x2F] Unnamed NPC (ID: 17834283/0x0110212B)->Render.Flags0 &= ~0x80000 // Bit 19
 84: 0x111A [0x2F] Flaviria (ID: 17834280/0x01102128)->Render.Flags0 &= ~0x80000 // Bit 19
 85: 0x1120 [0x2F] Gratzigg (ID: 17834354/0x01102172)->Render.Flags0 &= ~0x80000 // Bit 19
 86: 0x1126 [0x22] ENTITY_HIDE_FLAG(enabled=0x00)
 87: 0x1128 [0x94] Flaviria (ID: 17834280/0x01102128)->Render.Flags3 ^= 0x01
 88: 0x112E [0x37] UPDATE_EVENT_POSITION_AND_DIR: x=-335.808*, z=-324.102*, y=-1.000*, direction=270.8°*
 89: 0x1137 [0xBA] SET_ENTITY_POSITION(entity_id=Flaviria (ID: 17834280/0x01102128), pos_x=-334.595*, pos_z=-319.600*, pos_y=-1.050*, direction=121.5°*)
 90: 0x1144 [0xBA] SET_ENTITY_POSITION(entity_id=Gratzigg (ID: 17834354/0x01102172), pos_x=-329.166*, pos_z=-320.940*, pos_y=-1.000*, direction=179.5°*)
 91: 0x1151 [0xBA] SET_ENTITY_POSITION(entity_id=Aristide (ID: 17834277/0x01102125), pos_x=-335.973*, pos_z=-327.103*, pos_y=-1.000*, direction=36.0°*)
 92: 0x115E [0xBA] SET_ENTITY_POSITION(entity_id=Unnamed NPC (ID: 17834278/0x01102126), pos_x=-336.397*, pos_z=-328.732*, pos_y=-1.000*, direction=149.0°*)
 93: 0x116B [0xBA] SET_ENTITY_POSITION(entity_id=Unnamed NPC (ID: 17834283/0x0110212B), pos_x=-320.252*, pos_z=-320.020*, pos_y=-1.050*, direction=179.5°*)
 94: 0x1178 [0x80] LOAD_WAIT(entity=EventEntity)
 95: 0x117D [0x80] LOAD_WAIT(entity=Aristide (ID: 17834277/0x01102125))
 96: 0x1182 [0x80] LOAD_WAIT(entity=Unnamed NPC (ID: 17834278/0x01102126))
 97: 0x1187 [0x80] LOAD_WAIT(entity=Ilney (ID: 17834279/0x01102127))
 98: 0x118C [0x80] LOAD_WAIT(entity=EventEntity)
 99: 0x1191 [0x4A] Aristide (ID: 17834277/0x01102125) looks at Ilney (ID: 17834279/0x01102127)
100: 0x119A [0x4A] Unnamed NPC (ID: 17834278/0x01102126) looks at Ilney (ID: 17834279/0x01102127)
101: 0x11A3 [0x1C] WAIT(30* ticks)
102: 0x11A6 [0x45] LOAD_SCHEDULED_TASK: Load scheduler "s135" with entities [EventEntity, EventEntity], work=[620*, 0*]
103: 0x11B7 [0x1C] WAIT(15* ticks)
