# 17834300 - Mathais

## Common Data

| Field            | Value                    |
|------------------|--------------------------|
| Zone             | Rala Waterways (ID: 258) |
| Block Size       | 92 bytes                 |
| Total Events     | 2                        |
| References Count | 4                        |

## List of Events

| Event ID              | Entrypoint   |   Size |   Instructions |
|-----------------------|--------------|--------|----------------|
| [65535](#event-65535) | 0x0000       |      1 |              1 |
| [301](#event-301)     | 0x0001       |     51 |             13 |

## DAT References (imed_data)

|   Index | Hex Value   |   Dec Value |
|---------|-------------|-------------|
|       0 | 0x00EE      |         238 |
|       1 | 0x1FA0      |        8096 |
|       2 | 0x1FA1      |        8097 |
|       3 | 0x1FA2      |        8098 |

## String References

- **8096**: Welcome to the Rala Waterways, our little "home away from home," if you can call it that. A little ways in is the Civic Arboretum, where we grow vegetables to help feed Adoulin.
- **8097**: In better days, good-for-nothing kids would abscond down here and engage in all manner of miscreant behavior.
- **8098**: Now, though, monsters have taken root, forcing all but the most hearty aboveground.

## Events

### Event 65535

#### Metadata

| Field        | Value   |
|--------------|---------|
| Entrypoint   | 0x0000  |
| Data Size    | 1 bytes |
| Instructions | 1       |

```
      00 01 02 03 04 05 06 07  08 09 0A 0B 0C 0D 0E 0F
      -- -- -- -- -- -- -- --  -- -- -- -- -- -- -- --
0000: 00                                                .               
```

#### Opcodes

```
  0: 0x0000 [0x00] END_REQSTACK()
```

### Event 301

#### Metadata

| Field        | Value    |
|--------------|----------|
| Entrypoint   | 0x0001   |
| Data Size    | 51 bytes |
| Instructions | 13       |

```
      00 01 02 03 04 05 06 07  08 09 0A 0B 0C 0D 0E 0F
      -- -- -- -- -- -- -- --  -- -- -- -- -- -- -- --
0000:    1E F0 FF FF 7F 6F 70  5B 00 80 F8 FF FF 7F F8   .....op[.......
0010: FF FF 7F 74 6C 6B 30 1D  01 80 23 1D 02 80 23 1D  ...tlk0...#...#.
0020: 03 80 23 5B 00 80 F8 FF  FF 7F F8 FF FF 7F 74 6C  ..#[..........tl
0030: 6B 31 21 00                                       k1!.            
```

#### Opcodes

```
  0: 0x0001 [0x1E] EventEntity looks at LocalPlayer and starts talking
  1: 0x0006 [0x6F] WAIT_FRAME_DELAY: Yield until WaitTime reaches zero
  2: 0x0007 [0x70] WAIT_ENTITY_RENDER_FLAG: Wait while EventEntity->Render.Flags3 bit 2 is set (cancel turn if not)
  3: 0x0008 [0x5B] LOAD_EXT_SCHEDULER: Load scheduler "tlk0" with entities [EventEntity, EventEntity], work=238*
  4: 0x0017 [0x1D] PRINT_EVENT_MESSAGE(message_id=8096*)
    → "Welcome to the Rala Waterways, our little "home away from home," if you can call it that. A little ways in is the Civic Arboretum, where we grow vegetables to help feed Adoulin."
  5: 0x001A [0x23] WAIT_FOR_DIALOG_INTERACTION
  6: 0x001B [0x1D] PRINT_EVENT_MESSAGE(message_id=8097*)
    → "In better days, good-for-nothing kids would abscond down here and engage in all manner of miscreant behavior."
  7: 0x001E [0x23] WAIT_FOR_DIALOG_INTERACTION
  8: 0x001F [0x1D] PRINT_EVENT_MESSAGE(message_id=8098*)
    → "Now, though, monsters have taken root, forcing all but the most hearty aboveground."
  9: 0x0022 [0x23] WAIT_FOR_DIALOG_INTERACTION
 10: 0x0023 [0x5B] LOAD_EXT_SCHEDULER: Load scheduler "tlk1" with entities [EventEntity, EventEntity], work=238*
 11: 0x0032 [0x21] END_EVENT
 12: 0x0033 [0x00] END_REQSTACK()
```
