# 17834324

## Common Data

| Field            | Value                    |
|------------------|--------------------------|
| Zone             | Rala Waterways (ID: 258) |
| Block Size       | 18068 bytes              |
| Total Events     | 13                       |
| References Count | 346                      |

## List of Events

| Event ID              | Entrypoint   |   Size |   Instructions |
|-----------------------|--------------|--------|----------------|
| [65535](#event-65535) | 0x0000       |    658 |             62 |
| [341](#event-341)     | 0x0292       |    733 |            113 |
| [340](#event-340)     | 0x056F       |     20 |              6 |
| [354](#event-354)     | 0x0583       |   2819 |            397 |
| [355](#event-355)     | 0x1086       |    675 |            108 |
| [346](#event-346)     | 0x1329       |   2546 |            352 |
| [347](#event-347)     | 0x1D1B       |    474 |             80 |
| [348](#event-348)     | 0x1EF5       |     63 |             16 |
| [349](#event-349)     | 0x1F34       |    828 |            131 |
| [350](#event-350)     | 0x2270       |    836 |            133 |
| [351](#event-351)     | 0x25B4       |   1100 |            181 |
| [376](#event-376)     | 0x2A00       |   5236 |            781 |
| [363](#event-363)     | 0x3E74       |    628 |             79 |

## DAT References (imed_data)

|   Index | Hex Value   |   Dec Value |
|---------|-------------|-------------|
|       0 | 0x00C8      |         200 |
|       1 | 0x0000      |           0 |
|       2 | 0x00C9      |         201 |
|       3 | 0x0001      |           1 |
|       4 | 0x002D      |          45 |
|       5 | 0x0002      |           2 |
|       6 | 0x001E      |          30 |
|       7 | 0x00D7      |         215 |
|       8 | 0x0013      |          19 |
|       9 | 0x57481     |      357505 |
|      10 | 0xFFF9E580  |  4294567296 |
|      11 | 0xFFFFCF22  |  4294954786 |
|      12 | 0x0FFD      |        4093 |
|      13 | 0x57E40     |      360000 |
|      14 | 0x0802      |        2050 |
|      15 | 0x0078      |         120 |
|      16 | 0x0262      |         610 |
|      17 | 0x0014      |          20 |
|      18 | 0x000C      |          12 |
|      19 | 0x005A      |          90 |
|      20 | 0x2174      |        8564 |
|      21 | 0x2175      |        8565 |
|      22 | 0x0028      |          40 |
|      23 | 0x0020      |          32 |
|      24 | 0x2176      |        8566 |
|      25 | 0x2177      |        8567 |
|      26 | 0x009E      |         158 |
|      27 | 0x2178      |        8568 |
|      28 | 0x0003      |           3 |
|      29 | 0x0004      |           4 |
|      30 | 0x0005      |           5 |
|      31 | 0x0006      |           6 |
|      32 | 0x0008      |           8 |
|      33 | 0x2179      |        8569 |
|      34 | 0x217A      |        8570 |
|      35 | 0x003D      |          61 |
|      36 | 0x0039      |          57 |
|      37 | 0x000F      |          15 |
|      38 | 0x0955      |        2389 |
|      39 | 0x217B      |        8571 |
|      40 | 0xFFFAB5AD  |  4294620589 |
|      41 | 0xFFFB71C6  |  4294668742 |
|      42 | 0xFFFFE97B  |  4294961531 |
|      43 | 0x03FF      |        1023 |
|      44 | 0xFFFAB449  |  4294620233 |
|      45 | 0xFFFB6931  |  4294666545 |
|      46 | 0x0C01      |        3073 |
|      47 | 0x0068      |         104 |
|      48 | 0x0264      |         612 |
|      49 | 0xFFFAF375  |  4294636405 |
|      50 | 0xFFFB487B  |  4294658171 |
|      51 | 0xFFFFFC18  |  4294966296 |
|      52 | 0x004B      |          75 |
|      53 | 0xFFFAB5C7  |  4294620615 |
|      54 | 0xFFFB6F15  |  4294668053 |
|      55 | 0x0C4D      |        3149 |
|      56 | 0x00A3      |         163 |
|      57 | 0x0064      |         100 |
|      58 | 0x001D      |          29 |
|      59 | 0x0046      |          70 |
|      60 | 0x0050      |          80 |
|      61 | 0x0025      |          37 |
|      62 | 0x0009      |           9 |
|      63 | 0x0032      |          50 |
|      64 | 0x0055      |          85 |
|      65 | 0x217C      |        8572 |
|      66 | 0x0044      |          68 |
|      67 | 0x0041      |          65 |
|      68 | 0x0931      |        2353 |
|      69 | 0x217E      |        8574 |
|      70 | 0x000A      |          10 |
|      71 | 0x003B      |          59 |
|      72 | 0x217F      |        8575 |
|      73 | 0x0022      |          34 |
|      74 | 0x2180      |        8576 |
|      75 | 0x2181      |        8577 |
|      76 | 0x2182      |        8578 |
|      77 | 0x2184      |        8580 |
|      78 | 0x0024      |          36 |
|      79 | 0x2185      |        8581 |
|      80 | 0x2186      |        8582 |
|      81 | 0x2187      |        8583 |
|      82 | 0x2188      |        8584 |
|      83 | 0x2189      |        8585 |
|      84 | 0x218A      |        8586 |
|      85 | 0x218B      |        8587 |
|      86 | 0x00C7      |         199 |
|      87 | 0x218C      |        8588 |
|      88 | 0x218D      |        8589 |
|      89 | 0x218E      |        8590 |
|      90 | 0x0019      |          25 |
|      91 | 0x2183      |        8579 |
|      92 | 0x0932      |        2354 |
|      93 | 0x0934      |        2356 |
|      94 | 0x218F      |        8591 |
|      95 | 0x2190      |        8592 |
|      96 | 0x2198      |        8600 |
|      97 | 0x0007      |           7 |
|      98 | 0x0023      |          35 |
|      99 | 0x512D      |       20781 |
|     100 | 0x2191      |        8593 |
|     101 | 0x1031      |        4145 |
|     102 | 0x2192      |        8594 |
|     103 | 0x2193      |        8595 |
|     104 | 0x0933      |        2355 |
|     105 | 0x2199      |        8601 |
|     106 | 0x219A      |        8602 |
|     107 | 0x2194      |        8596 |
|     108 | 0x2195      |        8597 |
|     109 | 0x2196      |        8598 |
|     110 | 0x007F      |         127 |
|     111 | 0x2197      |        8599 |
|     112 | 0x217D      |        8573 |
|     113 | 0x003C      |          60 |
|     114 | 0x219B      |        8603 |
|     115 | 0x05D8      |        1496 |
|     116 | 0x00C0      |         192 |
|     117 | 0x0096      |         150 |
|     118 | 0x00B4      |         180 |
|     119 | 0x219C      |        8604 |
|     120 | 0x000E      |          14 |
|     121 | 0x219D      |        8605 |
|     122 | 0x219E      |        8606 |
|     123 | 0x0015      |          21 |
|     124 | 0x21A0      |        8608 |
|     125 | 0x21A1      |        8609 |
|     126 | 0x219F      |        8607 |
|     127 | 0x0018      |          24 |
|     128 | 0x21BC      |        8636 |
|     129 | 0x21AE      |        8622 |
|     130 | 0x0109      |         265 |
|     131 | 0x00BE      |         190 |
|     132 | 0x21A2      |        8610 |
|     133 | 0x005F      |          95 |
|     134 | 0x21A3      |        8611 |
|     135 | 0x21A4      |        8612 |
|     136 | 0x21A5      |        8613 |
|     137 | 0x21A6      |        8614 |
|     138 | 0x21A7      |        8615 |
|     139 | 0x21A8      |        8616 |
|     140 | 0x000B      |          11 |
|     141 | 0x21AF      |        8623 |
|     142 | 0x21AA      |        8618 |
|     143 | 0x21AB      |        8619 |
|     144 | 0x21AC      |        8620 |
|     145 | 0x21AD      |        8621 |
|     146 | 0x21A9      |        8617 |
|     147 | 0x21B0      |        8624 |
|     148 | 0x6C8B      |       27787 |
|     149 | 0x6DA3      |       28067 |
|     150 | 0x6EBB      |       28347 |
|     151 | 0x1126      |        4390 |
|     152 | 0x21B1      |        8625 |
|     153 | 0x21B3      |        8627 |
|     154 | 0x21B4      |        8628 |
|     155 | 0x0FCE      |        4046 |
|     156 | 0x0F53      |        3923 |
|     157 | 0x0715      |        1813 |
|     158 | 0x21B6      |        8630 |
|     159 | 0x21B7      |        8631 |
|     160 | 0x0FBD      |        4029 |
|     161 | 0x0FCF      |        4047 |
|     162 | 0x0337      |         823 |
|     163 | 0x21B5      |        8629 |
|     164 | 0x0652      |        1618 |
|     165 | 0x0357      |         855 |
|     166 | 0x21B8      |        8632 |
|     167 | 0x21B9      |        8633 |
|     168 | 0x21BA      |        8634 |
|     169 | 0x0010      |          16 |
|     170 | 0x21BB      |        8635 |
|     171 | 0x006E      |         110 |
|     172 | 0x21B2      |        8626 |
|     173 | 0x21BD      |        8637 |
|     174 | 0x21BE      |        8638 |
|     175 | 0x21BF      |        8639 |
|     176 | 0x30D4      |       12500 |
|     177 | 0x2710      |       10000 |
|     178 | 0x21C0      |        8640 |
|     179 | 0x21C1      |        8641 |
|     180 | 0x21C2      |        8642 |
|     181 | 0xFFFAC3A2  |  4294624162 |
|     182 | 0xFFFB876C  |  4294674284 |
|     183 | 0xFFFFEDFF  |  4294962687 |
|     184 | 0x080F      |        2063 |
|     185 | 0x21C3      |        8643 |
|     186 | 0x21C4      |        8644 |
|     187 | 0x0063      |          99 |
|     188 | 0x21C9      |        8649 |
|     189 | 0x21CA      |        8650 |
|     190 | 0x0037      |          55 |
|     191 | 0x21CB      |        8651 |
|     192 | 0x21CC      |        8652 |
|     193 | 0x21C8      |        8648 |
|     194 | 0x21C6      |        8646 |
|     195 | 0x21C7      |        8647 |
|     196 | 0x21C5      |        8645 |
|     197 | 0x21CD      |        8653 |
|     198 | 0x0016      |          22 |
|     199 | 0x21CE      |        8654 |
|     200 | 0x21CF      |        8655 |
|     201 | 0x21D0      |        8656 |
|     202 | 0x21D1      |        8657 |
|     203 | 0x21D2      |        8658 |
|     204 | 0x21D3      |        8659 |
|     205 | 0x21D4      |        8660 |
|     206 | 0x21D5      |        8661 |
|     207 | 0x21D6      |        8662 |
|     208 | 0x21D7      |        8663 |
|     209 | 0x001B      |          27 |
|     210 | 0xFFFDD2C2  |  4294824642 |
|     211 | 0x5D6F      |       23919 |
|     212 | 0x07E9      |        2025 |
|     213 | 0xFFFD8CE5  |  4294806757 |
|     214 | 0x514D      |       20813 |
|     215 | 0x0E8A      |        3722 |
|     216 | 0xFFFD80AA  |  4294803626 |
|     217 | 0x572F      |       22319 |
|     218 | 0x0FF4      |        4084 |
|     219 | 0xFFFD87B8  |  4294805432 |
|     220 | 0x49E1      |       18913 |
|     221 | 0x0F91      |        3985 |
|     222 | 0xFFFD894D  |  4294805837 |
|     223 | 0x65C2      |       26050 |
|     224 | 0x0FDC      |        4060 |
|     225 | 0xFFFDB9DD  |  4294818269 |
|     226 | 0x6208      |       25096 |
|     227 | 0x0FF3      |        4083 |
|     228 | 0xFFFDB558  |  4294817112 |
|     229 | 0x6575      |       25973 |
|     230 | 0x0BFE      |        3070 |
|     231 | 0x02C4      |         708 |
|     232 | 0x00F0      |         240 |
|     233 | 0x01E0      |         480 |
|     234 | 0x1FCF      |        8143 |
|     235 | 0x1FD0      |        8144 |
|     236 | 0x1FD1      |        8145 |
|     237 | 0x1FD2      |        8146 |
|     238 | 0x1FD3      |        8147 |
|     239 | 0x1FD4      |        8148 |
|     240 | 0x1FD5      |        8149 |
|     241 | 0x1FD6      |        8150 |
|     242 | 0x1FD7      |        8151 |
|     243 | 0x1FD8      |        8152 |
|     244 | 0x0082      |         130 |
|     245 | 0x1FD9      |        8153 |
|     246 | 0x1FDA      |        8154 |
|     247 | 0x1FDB      |        8155 |
|     248 | 0x1FDC      |        8156 |
|     249 | 0x1FDD      |        8157 |
|     250 | 0x1FDE      |        8158 |
|     251 | 0x1FDF      |        8159 |
|     252 | 0x1FE0      |        8160 |
|     253 | 0x1FE1      |        8161 |
|     254 | 0x1FE2      |        8162 |
|     255 | 0x1FE3      |        8163 |
|     256 | 0x1FE4      |        8164 |
|     257 | 0x1FE5      |        8165 |
|     258 | 0x1FE6      |        8166 |
|     259 | 0x1FE7      |        8167 |
|     260 | 0x007B      |         123 |
|     261 | 0x1FE8      |        8168 |
|     262 | 0x1FE9      |        8169 |
|     263 | 0x1FEA      |        8170 |
|     264 | 0x1FEB      |        8171 |
|     265 | 0x1FEC      |        8172 |
|     266 | 0x1FED      |        8173 |
|     267 | 0x1FEE      |        8174 |
|     268 | 0x1FEF      |        8175 |
|     269 | 0x1FF0      |        8176 |
|     270 | 0x1FF1      |        8177 |
|     271 | 0x1FF2      |        8178 |
|     272 | 0x1FF3      |        8179 |
|     273 | 0x00A1      |         161 |
|     274 | 0x1FF4      |        8180 |
|     275 | 0x1FF5      |        8181 |
|     276 | 0x1FF6      |        8182 |
|     277 | 0x1FF7      |        8183 |
|     278 | 0x1FF8      |        8184 |
|     279 | 0x1FF9      |        8185 |
|     280 | 0x1FFA      |        8186 |
|     281 | 0x1FFB      |        8187 |
|     282 | 0x1FFC      |        8188 |
|     283 | 0x1FFD      |        8189 |
|     284 | 0x1FFE      |        8190 |
|     285 | 0x1FFF      |        8191 |
|     286 | 0x2000      |        8192 |
|     287 | 0x2001      |        8193 |
|     288 | 0x2002      |        8194 |
|     289 | 0x2003      |        8195 |
|     290 | 0x2004      |        8196 |
|     291 | 0x2005      |        8197 |
|     292 | 0x2006      |        8198 |
|     293 | 0x2007      |        8199 |
|     294 | 0x0080      |         128 |
|     295 | 0x2008      |        8200 |
|     296 | 0x2009      |        8201 |
|     297 | 0x200A      |        8202 |
|     298 | 0x007C      |         124 |
|     299 | 0x00DF      |         223 |
|     300 | 0x200B      |        8203 |
|     301 | 0x200C      |        8204 |
|     302 | 0x200D      |        8205 |
|     303 | 0x200E      |        8206 |
|     304 | 0x200F      |        8207 |
|     305 | 0x2015      |        8213 |
|     306 | 0x2016      |        8214 |
|     307 | 0x2017      |        8215 |
|     308 | 0x2018      |        8216 |
|     309 | 0x2019      |        8217 |
|     310 | 0x201A      |        8218 |
|     311 | 0x201B      |        8219 |
|     312 | 0x201C      |        8220 |
|     313 | 0x201D      |        8221 |
|     314 | 0x201E      |        8222 |
|     315 | 0x201F      |        8223 |
|     316 | 0x2020      |        8224 |
|     317 | 0x2021      |        8225 |
|     318 | 0x2022      |        8226 |
|     319 | 0x2023      |        8227 |
|     320 | 0x2024      |        8228 |
|     321 | 0x2025      |        8229 |
|     322 | 0x03C0      |         960 |
|     323 | 0x2026      |        8230 |
|     324 | 0x2027      |        8231 |
|     325 | 0x2028      |        8232 |
|     326 | 0xFFFDD30A  |  4294824714 |
|     327 | 0x62E5      |       25317 |
|     328 | 0x2029      |        8233 |
|     329 | 0x202A      |        8234 |
|     330 | 0x202B      |        8235 |
|     331 | 0x202C      |        8236 |
|     332 | 0x202D      |        8237 |
|     333 | 0x001F      |          31 |
|     334 | 0x2013      |        8211 |
|     335 | 0x2012      |        8210 |
|     336 | 0x2014      |        8212 |
|     337 | 0x2011      |        8209 |
|     338 | 0x2010      |        8208 |
|     339 | 0x026A      |         618 |
|     340 | 0x008C      |         140 |
|     341 | 0x00AA      |         170 |
|     342 | 0x008E      |         142 |
|     343 | 0x00FA      |         250 |
|     344 | 0x0A0C      |        2572 |
|     345 | 0x1FC6      |        8134 |

## String References

- **8134**: Your $3 crumbles to dust and extricates myriad faculties buried deeply within you.
- **8152**: Who benefits the most? [Arciela./Margret./Estienneux./The Ulbuka Wardens./I do.]
- **8207**: Who killed Melvien? [Arciela./Margret./Reginald./Estienneux./The Ulbuka Wardens./Morimar./I did.]
- **8208**: ...No. That can't be right.
- **8209**: It's about time to give the right answer.
- **8210**: The weight of expectations is becoming unbearable.
- **8571**: Calyces of Adoulinian tomatoes clutter the ground...
- **8578**: What will you do? [Ask about swords./Listen to her stories./Leave immediately.]
- **8584**: What will you do? [Ask about swords./Listen to even more./Run like the wind.]
- **8592**: Which are you interested in? [$3./$3./None. I want out.]
- **8610**: Jerra Ndala stares at you intently.
- **8611**: Jerra Ndala's staring becomes exceedingly absurd.
- **8616**: Is it a fair trade? [Yes, please craft me some clothes./No. You really need bayld?/Maybe, but I don't need anything.]
- **8625**: Which piece of equipment? [#./$1./$2./Why $3?/I know what I need./Let me think on it.]
- **8641**: A note scrawled in barely legible handwriting rests upon the floor.
- **8642**: "$0 bayld!"
- **8644**: Accept it? (Bayld: $2) [Yes, I'll pay the $1 bayld./Not yet.]
- **8648**: Your bag is already bursting at the seams...

## Events

### Event 65535

#### Metadata

| Field        | Value     |
|--------------|-----------|
| Entrypoint   | 0x0000    |
| Data Size    | 658 bytes |
| Instructions | 1         |

```
      00 01 02 03 04 05 06 07  08 09 0A 0B 0C 0D 0E 0F
      -- -- -- -- -- -- -- --  -- -- -- -- -- -- -- --
0000: 00 45 00 80 F0 FF FF 7F  F0 FF FF 7F 66 64 69 30  .E..........fdi0
0010: 01 80 55 00 80 F0 FF FF  7F F0 FF FF 7F 66 64 69  ..U..........fdi
0020: 30 1B 45 00 80 F0 FF FF  7F F0 FF FF 7F 66 64 6F  0.E..........fdo
0030: 30 01 80 55 00 80 F0 FF  FF 7F F0 FF FF 7F 66 64  0..U..........fd
0040: 6F 30 1B 45 00 80 F0 FF  FF 7F F0 FF FF 7F 66 64  o0.E..........fd
0050: 69 31 01 80 55 00 80 F0  FF FF 7F F0 FF FF 7F 66  i1..U..........f
0060: 64 69 31 1B 45 00 80 F0  FF FF 7F F0 FF FF 7F 66  di1.E..........f
0070: 64 6F 31 01 80 55 00 80  F0 FF FF 7F F0 FF FF 7F  do1..U..........
0080: 66 64 6F 31 1B 45 02 80  F0 FF FF 7F F0 FF FF 7F  fdo1.E..........
0090: 77 68 69 31 01 80 55 02  80 F0 FF FF 7F F0 FF FF  whi1..U.........
00A0: 7F 77 68 69 31 1B 45 02  80 F0 FF FF 7F F0 FF FF  .whi1.E.........
00B0: 7F 77 68 6F 31 01 80 55  02 80 F0 FF FF 7F F0 FF  .who1..U........
00C0: FF 7F 77 68 6F 31 1B 45  02 80 F0 FF FF 7F F0 FF  ..who1.E........
00D0: FF 7F 77 68 6F 32 01 80  55 02 80 F0 FF FF 7F F0  ..who2..U.......
00E0: FF FF 7F 77 68 6F 32 1B  45 02 80 F0 FF FF 7F F0  ...who2.E.......
00F0: FF FF 7F 77 68 6F 33 01  80 55 02 80 F0 FF FF 7F  ...who3..U......
0100: F0 FF FF 7F 77 68 6F 33  1B 62 03 80 F0 FF FF 7F  ....who3.b......
0110: F0 FF FF 7F 6D 61 69 6E  01 80 1C 04 80 45 00 80  ....main.....E..
0120: F0 FF FF 7F F0 FF FF 7F  66 64 6F 31 01 80 55 00  ........fdo1..U.
0130: 80 F0 FF FF 7F F0 FF FF  7F 66 64 6F 31 1B 45 00  .........fdo1.E.
0140: 80 F0 FF FF 7F F0 FF FF  7F 66 64 69 31 01 80 62  .........fdi1..b
0150: 05 80 F0 FF FF 7F F0 FF  FF 7F 6D 61 69 6E 01 80  ..........main..
0160: 1C 06 80 55 00 80 F0 FF  FF 7F F0 FF FF 7F 66 64  ...U..........fd
0170: 69 31 1B 45 00 80 F0 FF  FF 7F F0 FF FF 7F 62 6C  i1.E..........bl
0180: 6F 6E 01 80 45 02 80 F0  FF FF 7F F0 FF FF 7F 62  on..E..........b
0190: 6C 6F 6E 01 80 1B 45 02  80 F0 FF FF 7F F0 FF FF  lon...E.........
01A0: 7F 77 68 69 30 01 80 55  02 80 F0 FF FF 7F F0 FF  .whi0..U........
01B0: FF 7F 77 68 69 30 1B 45  02 80 F0 FF FF 7F F0 FF  ..whi0.E........
01C0: FF 7F 77 68 6F 30 01 80  55 02 80 F0 FF FF 7F F0  ..who0..U.......
01D0: FF FF 7F 77 68 6F 30 1B  45 07 80 F0 FF FF 7F F0  ...who0.E.......
01E0: FF FF 7F 65 66 6F 6E 01  80 55 07 80 F0 FF FF 7F  ...efon..U......
01F0: F0 FF FF 7F 65 66 6F 6E  1B 45 00 80 F0 FF FF 7F  ....efon.E......
0200: F0 FF FF 7F 66 64 69 73  01 80 1B 45 00 80 F0 FF  ....fdis...E....
0210: FF 7F F0 FF FF 7F 66 64  6F 73 01 80 55 00 80 F0  ......fdos..U...
0220: FF FF 7F F0 FF FF 7F 66  64 6F 73 1B 45 00 80 F0  .......fdos.E...
0230: FF FF 7F F0 FF FF 7F 66  64 69 66 01 80 1B 45 00  .......fdif...E.
0240: 80 F0 FF FF 7F F0 FF FF  7F 66 64 6F 66 01 80 55  .........fdof..U
0250: 00 80 F0 FF FF 7F F0 FF  FF 7F 66 64 6F 66 1B 45  ..........fdof.E
0260: 00 80 F0 FF FF 7F F0 FF  FF 7F 66 64 69 70 01 80  ..........fdip..
0270: 1B 45 00 80 F0 FF FF 7F  F0 FF FF 7F 66 64 6F 70  .E..........fdop
0280: 01 80 55 00 80 F0 FF FF  7F F0 FF FF 7F 66 64 6F  ..U..........fdo
0290: 70 1B                                             p.              
```

#### Opcodes

```
  0: 0x0000 [0x00] END_REQSTACK()
```

#### Data or dead code:

```
# Dead code (unreachable instructions):
     0x0001 [0x45] LOAD_SCHEDULED_TASK: Load scheduler "fdi0" with entities [LocalPlayer, LocalPlayer], work=[200*, 0*]
     0x0012 [0x55] WAIT_LOAD_SCHEDULER: Wait for scheduler "fdi0" with entities [LocalPlayer, LocalPlayer], work=200*
     0x0021 [0x1B] RETURN
     0x0022 [0x45] LOAD_SCHEDULED_TASK: Load scheduler "fdo0" with entities [LocalPlayer, LocalPlayer], work=[200*, 0*]
     0x0033 [0x55] WAIT_LOAD_SCHEDULER: Wait for scheduler "fdo0" with entities [LocalPlayer, LocalPlayer], work=200*
     0x0042 [0x1B] RETURN
     0x0043 [0x45] LOAD_SCHEDULED_TASK: Load scheduler "fdi1" with entities [LocalPlayer, LocalPlayer], work=[200*, 0*]
     0x0054 [0x55] WAIT_LOAD_SCHEDULER: Wait for scheduler "fdi1" with entities [LocalPlayer, LocalPlayer], work=200*
     0x0063 [0x1B] RETURN
     0x0064 [0x45] LOAD_SCHEDULED_TASK: Load scheduler "fdo1" with entities [LocalPlayer, LocalPlayer], work=[200*, 0*]
     0x0075 [0x55] WAIT_LOAD_SCHEDULER: Wait for scheduler "fdo1" with entities [LocalPlayer, LocalPlayer], work=200*
     0x0084 [0x1B] RETURN
     0x0085 [0x45] LOAD_SCHEDULED_TASK: Load scheduler "whi1" with entities [LocalPlayer, LocalPlayer], work=[201*, 0*]
     0x0096 [0x55] WAIT_LOAD_SCHEDULER: Wait for scheduler "whi1" with entities [LocalPlayer, LocalPlayer], work=201*
     0x00A5 [0x1B] RETURN
     0x00A6 [0x45] LOAD_SCHEDULED_TASK: Load scheduler "who1" with entities [LocalPlayer, LocalPlayer], work=[201*, 0*]
     0x00B7 [0x55] WAIT_LOAD_SCHEDULER: Wait for scheduler "who1" with entities [LocalPlayer, LocalPlayer], work=201*
     0x00C6 [0x1B] RETURN
     0x00C7 [0x45] LOAD_SCHEDULED_TASK: Load scheduler "who2" with entities [LocalPlayer, LocalPlayer], work=[201*, 0*]
     0x00D8 [0x55] WAIT_LOAD_SCHEDULER: Wait for scheduler "who2" with entities [LocalPlayer, LocalPlayer], work=201*
     0x00E7 [0x1B] RETURN
     0x00E8 [0x45] LOAD_SCHEDULED_TASK: Load scheduler "who3" with entities [LocalPlayer, LocalPlayer], work=[201*, 0*]
     0x00F9 [0x55] WAIT_LOAD_SCHEDULER: Wait for scheduler "who3" with entities [LocalPlayer, LocalPlayer], work=201*
     0x0108 [0x1B] RETURN
     0x0109 [0x62] LOAD_EVENT_SCHEDULER: Load scheduler "main" with entities [LocalPlayer, LocalPlayer], work=[1*, 0*]
     0x011A [0x1C] WAIT(45* ticks)
     0x011D [0x45] LOAD_SCHEDULED_TASK: Load scheduler "fdo1" with entities [LocalPlayer, LocalPlayer], work=[200*, 0*]
     0x012E [0x55] WAIT_LOAD_SCHEDULER: Wait for scheduler "fdo1" with entities [LocalPlayer, LocalPlayer], work=200*
     0x013D [0x1B] RETURN
     0x013E [0x45] LOAD_SCHEDULED_TASK: Load scheduler "fdi1" with entities [LocalPlayer, LocalPlayer], work=[200*, 0*]
     0x014F [0x62] LOAD_EVENT_SCHEDULER: Load scheduler "main" with entities [LocalPlayer, LocalPlayer], work=[2*, 0*]
     0x0160 [0x1C] WAIT(30* ticks)
     0x0163 [0x55] WAIT_LOAD_SCHEDULER: Wait for scheduler "fdi1" with entities [LocalPlayer, LocalPlayer], work=200*
     0x0172 [0x1B] RETURN
     0x0173 [0x45] LOAD_SCHEDULED_TASK: Load scheduler "blon" with entities [LocalPlayer, LocalPlayer], work=[200*, 0*]
     0x0184 [0x45] LOAD_SCHEDULED_TASK: Load scheduler "blon" with entities [LocalPlayer, LocalPlayer], work=[201*, 0*]
     0x0195 [0x1B] RETURN
     0x0196 [0x45] LOAD_SCHEDULED_TASK: Load scheduler "whi0" with entities [LocalPlayer, LocalPlayer], work=[201*, 0*]
     0x01A7 [0x55] WAIT_LOAD_SCHEDULER: Wait for scheduler "whi0" with entities [LocalPlayer, LocalPlayer], work=201*
     0x01B6 [0x1B] RETURN
     0x01B7 [0x45] LOAD_SCHEDULED_TASK: Load scheduler "who0" with entities [LocalPlayer, LocalPlayer], work=[201*, 0*]
     0x01C8 [0x55] WAIT_LOAD_SCHEDULER: Wait for scheduler "who0" with entities [LocalPlayer, LocalPlayer], work=201*
     0x01D7 [0x1B] RETURN
     0x01D8 [0x45] LOAD_SCHEDULED_TASK: Load scheduler "efon" with entities [LocalPlayer, LocalPlayer], work=[215*, 0*]
     0x01E9 [0x55] WAIT_LOAD_SCHEDULER: Wait for scheduler "efon" with entities [LocalPlayer, LocalPlayer], work=215*
     0x01F8 [0x1B] RETURN
     0x01F9 [0x45] LOAD_SCHEDULED_TASK: Load scheduler "fdis" with entities [LocalPlayer, LocalPlayer], work=[200*, 0*]
     0x020A [0x1B] RETURN
     0x020B [0x45] LOAD_SCHEDULED_TASK: Load scheduler "fdos" with entities [LocalPlayer, LocalPlayer], work=[200*, 0*]
     0x021C [0x55] WAIT_LOAD_SCHEDULER: Wait for scheduler "fdos" with entities [LocalPlayer, LocalPlayer], work=200*
     0x022B [0x1B] RETURN
     0x022C [0x45] LOAD_SCHEDULED_TASK: Load scheduler "fdif" with entities [LocalPlayer, LocalPlayer], work=[200*, 0*]
     0x023D [0x1B] RETURN
     0x023E [0x45] LOAD_SCHEDULED_TASK: Load scheduler "fdof" with entities [LocalPlayer, LocalPlayer], work=[200*, 0*]
     0x024F [0x55] WAIT_LOAD_SCHEDULER: Wait for scheduler "fdof" with entities [LocalPlayer, LocalPlayer], work=200*
     0x025E [0x1B] RETURN
     0x025F [0x45] LOAD_SCHEDULED_TASK: Load scheduler "fdip" with entities [LocalPlayer, LocalPlayer], work=[200*, 0*]
     0x0270 [0x1B] RETURN
     0x0271 [0x45] LOAD_SCHEDULED_TASK: Load scheduler "fdop" with entities [LocalPlayer, LocalPlayer], work=[200*, 0*]
     0x0282 [0x55] WAIT_LOAD_SCHEDULER: Wait for scheduler "fdop" with entities [LocalPlayer, LocalPlayer], work=200*
     0x0291 [0x1B] RETURN
```

### Event 341

#### Metadata

| Field        | Value     |
|--------------|-----------|
| Entrypoint   | 0x0292    |
| Data Size    | 733 bytes |
| Instructions | 113       |

```
      00 01 02 03 04 05 06 07  08 09 0A 0B 0C 0D 0E 0F
      -- -- -- -- -- -- -- --  -- -- -- -- -- -- -- --
0290:       42 1A 64 00 46 01  5C 00 01 80 5C 01 01 80    B.d.F.\...\...
02A0: 5C 02 01 80 5C 03 01 80  9A 38 08 80 4E 00 F0 FF  \...\....8..N...
02B0: FF 7F 27 10 57 21 10 01  04 92 01 57 21 10 01 94  ..'.W!.....W!...
02C0: 01 57 21 10 01 BA F0 FF  FF 7F 09 80 0A 80 0B 80  .W!.............
02D0: 0C 80 BA 57 21 10 01 0D  80 0A 80 0B 80 0E 80 29  ...W!..........)
02E0: 10 57 21 10 01 09 29 10  F0 FF FF 7F 06 80 57 21  .W!...).......W!
02F0: 10 01 80 F0 FF FF 7F 1C  06 80 5C 00 0F 80 5C 01  ..........\...\.
0300: 0F 80 9A 45 10 80 F0 FF  FF 7F F0 FF FF 7F 73 30  ...E..........s0
0310: 37 34 01 80 1A 43 00 1C  11 80 27 10 F0 FF FF 7F  74...C....'.....
0320: 07 1C 06 80 6E 57 21 10  01 12 80 99 57 21 10 01  ....nW!.....W!..
0330: 1C 13 80 2B 57 21 10 01  14 80 23 52 10 80 F0 FF  ...+W!....#R....
0340: FF 7F F0 FF FF 7F 73 30  37 34 45 10 80 F0 FF FF  ......s074E.....
0350: 7F F0 FF FF 7F 73 30 37  35 01 80 2B 57 21 10 01  .....s075..+W!..
0360: 15 80 23 1C 16 80 6E 57  21 10 01 17 80 99 57 21  ..#...nW!.....W!
0370: 10 01 1C 13 80 29 10 57  21 10 01 0A 2B 57 21 10  .....).W!...+W!.
0380: 01 18 80 23 52 10 80 F0  FF FF 7F F0 FF FF 7F 73  ...#R..........s
0390: 30 37 35 45 10 80 F0 FF  FF 7F F0 FF FF 7F 73 30  075E..........s0
03A0: 37 36 01 80 2B 57 21 10  01 19 80 23 66 1A 80 57  76..+W!....#f..W
03B0: 21 10 01 57 21 10 01 74  6C 6B 30 2B 57 21 10 01  !..W!..tlk0+W!..
03C0: 1B 80 23 52 10 80 F0 FF  FF 7F F0 FF FF 7F 73 30  ..#R..........s0
03D0: 37 36 06 02 10 06 03 10  06 04 10 29 10 F0 FF FF  76.........)....
03E0: 7F 02 02 02 10 1C 80 80  F0 03 05 03 10 01 28 04  ..............(.
03F0: 02 02 10 1D 80 80 FE 03  05 03 10 01 28 04 02 02  ............(...
0400: 10 1E 80 80 0C 04 05 04  10 01 28 04 02 02 10 1F  ..........(.....
0410: 80 80 1A 04 05 04 10 01  28 04 02 02 10 20 80 80  ........(.... ..
0420: 28 04 05 03 10 01 28 04  02 03 10 03 80 00 44 04  (.....(.......D.
0430: 45 10 80 F0 FF FF 7F F0  FF FF 7F 73 30 37 37 01  E..........s077.
0440: 80 01 71 04 02 04 10 03  80 00 60 04 45 10 80 F0  ..q.......`.E...
0450: FF FF 7F F0 FF FF 7F 73  30 37 38 01 80 01 71 04  .......s078...q.
0460: 45 10 80 F0 FF FF 7F F0  FF FF 7F 73 30 37 39 01  E..........s079.
0470: 80 2B 57 21 10 01 21 80  23 52 10 80 F0 FF FF 7F  .+W!..!.#R......
0480: F0 FF FF 7F 73 30 37 37  52 10 80 F0 FF FF 7F F0  ....s077R.......
0490: FF FF 7F 73 30 37 38 52  10 80 F0 FF FF 7F F0 FF  ...s078R........
04A0: FF 7F 73 30 37 39 45 10  80 F0 FF FF 7F F0 FF FF  ..s079E.........
04B0: 7F 73 30 38 30 01 80 66  1A 80 57 21 10 01 57 21  .s080..f..W!..W!
04C0: 10 01 74 6C 6B 32 2B 57  21 10 01 22 80 23 52 10  ..tlk2+W!..".#R.
04D0: 80 F0 FF FF 7F F0 FF FF  7F 73 30 38 30 45 10 80  .........s080E..
04E0: F0 FF FF 7F F0 FF FF 7F  73 30 38 33 01 80 66 1A  ........s083..f.
04F0: 80 57 21 10 01 57 21 10  01 74 6C 6B 31 6E F0 FF  .W!..W!..tlk1n..
0500: FF 7F 03 80 99 F0 FF FF  7F 53 57 21 10 01 57 21  .........SW!..W!
0510: 10 01 74 6C 6B 31 1C 06  80 6E 57 21 10 01 20 80  ..tlk1...nW!.. .
0520: 99 57 21 10 01 1C 06 80  1A 64 00 1C 06 80 52 10  .W!......d....R.
0530: 80 F0 FF FF 7F F0 FF FF  7F 73 30 38 33 5C 00 23  .........s083\.#
0540: 80 5C 01 23 80 5C 02 24  80 5C 03 24 80 9A 1C 25  .\.#.\.$.\.$...%
0550: 80 AB 11 01 80 1C 03 80  AB 0A 46 00 45 00 80 F0  ..........F.E...
0560: FF FF 7F F0 FF FF 7F 66  64 69 32 01 80 21 00     .......fdi2..!. 
```

#### Opcodes

```
  0: 0x0292 [0x42] SET_CLI_EVENT_CANCEL_DATA()
  1: 0x0293 [0x1A] CALL_SUBROUTINE(address=0x0064)
  2: 0x0296 [0x46] CAMERA_CONTROL: Disable user control
  3: 0x0298 [0x5C] MUSIC_CONTROL: Set Idle (Day) music to song 0*
  4: 0x029C [0x5C] MUSIC_CONTROL: Set Idle (Night) music to song 0*
  5: 0x02A0 [0x5C] MUSIC_CONTROL: Set Combat (Solo) music to song 0*
  6: 0x02A4 [0x5C] MUSIC_CONTROL: Set Combat (Party) music to song 0*
  7: 0x02A8 [0x9A] WAIT_MUSIC_SERVER()
  8: 0x02A9 [0x38] SET_CLIENT_EVENT_MODE(mode=19*)
  9: 0x02AC [0x4E] SET_ENTITY_HIDE_FLAG: Show LocalPlayer
 10: 0x02B2 [0x27] REQ_SET(priority=0x10, entity_id=Unnamed NPC (ID: 17834327/0x01102157), tag_num=0x04)
 11: 0x02B9 [0x92] Unnamed NPC (ID: 17834327/0x01102157)->Render.Flags3 ^= 0x01
 12: 0x02BF [0x94] Unnamed NPC (ID: 17834327/0x01102157)->Render.Flags3 ^= 0x01
 13: 0x02C5 [0xBA] SET_ENTITY_POSITION(entity_id=LocalPlayer, pos_x=357.505*, pos_z=-400.000*, pos_y=-12.510*, direction=359.7°*)
 14: 0x02D2 [0xBA] SET_ENTITY_POSITION(entity_id=Unnamed NPC (ID: 17834327/0x01102157), pos_x=360.000*, pos_z=-400.000*, pos_y=-12.510*, direction=180.2°*)
 15: 0x02DF [0x29] REQ_SET_WAIT(priority=0x10, entity_id=Unnamed NPC (ID: 17834327/0x01102157), tag_num=0x09)
 16: 0x02E6 [0x29] REQ_SET_WAIT(priority=0x10, entity_id=LocalPlayer, tag_num=0x06)
 17: 0x02ED [0x80] LOAD_WAIT(entity=Unnamed NPC (ID: 17834327/0x01102157))
 18: 0x02F2 [0x80] LOAD_WAIT(entity=LocalPlayer)
 19: 0x02F7 [0x1C] WAIT(30* ticks)
 20: 0x02FA [0x5C] MUSIC_CONTROL: Set Idle (Day) music to song 120*
 21: 0x02FE [0x5C] MUSIC_CONTROL: Set Idle (Night) music to song 120*
 22: 0x0302 [0x9A] WAIT_MUSIC_SERVER()
 23: 0x0303 [0x45] LOAD_SCHEDULED_TASK: Load scheduler "s074" with entities [LocalPlayer, LocalPlayer], work=[610*, 0*]
 24: 0x0314 [0x1A] CALL_SUBROUTINE(address=0x0043)
 25: 0x0317 [0x1C] WAIT(20* ticks)
 26: 0x031A [0x27] REQ_SET(priority=0x10, entity_id=LocalPlayer, tag_num=0x07)
 27: 0x0321 [0x1C] WAIT(30* ticks)
 28: 0x0324 [0x6E] Unnamed NPC (ID: 17834327/0x01102157) uses emote 12*
 29: 0x032B [0x99] Wait for Unnamed NPC (ID: 17834327/0x01102157) animation to complete
 30: 0x0330 [0x1C] WAIT(90* ticks)
 31: 0x0333 [0x2B] Unnamed NPC (ID: 17834327/0x01102157) [8564*]:
    → "What a match. You were great out there."
 32: 0x033A [0x23] WAIT_FOR_DIALOG_INTERACTION
 33: 0x033B [0x52] END_LOAD_SCHEDULER: End scheduler "s074" with entities [LocalPlayer, LocalPlayer], work=610*
 34: 0x034A [0x45] LOAD_SCHEDULED_TASK: Load scheduler "s075" with entities [LocalPlayer, LocalPlayer], work=[610*, 0*]
 35: 0x035B [0x2B] Unnamed NPC (ID: 17834327/0x01102157) [8565*]:
    → "Sorry, I forgot to introduce myself. I'm Sverdhried's great-great-great-great-great-..."
 36: 0x0362 [0x23] WAIT_FOR_DIALOG_INTERACTION
 37: 0x0363 [0x1C] WAIT(40* ticks)
 38: 0x0366 [0x6E] Unnamed NPC (ID: 17834327/0x01102157) uses emote 32*
 39: 0x036D [0x99] Wait for Unnamed NPC (ID: 17834327/0x01102157) animation to complete
 40: 0x0372 [0x1C] WAIT(90* ticks)
 41: 0x0375 [0x29] REQ_SET_WAIT(priority=0x10, entity_id=Unnamed NPC (ID: 17834327/0x01102157), tag_num=0x0A)
 42: 0x037C [0x2B] Unnamed NPC (ID: 17834327/0x01102157) [8566*]:
    → "I don't know how many "greats" it is, but I'm his granddaughter. The name's Braga."
 43: 0x0383 [0x23] WAIT_FOR_DIALOG_INTERACTION
 44: 0x0384 [0x52] END_LOAD_SCHEDULER: End scheduler "s075" with entities [LocalPlayer, LocalPlayer], work=610*
 45: 0x0393 [0x45] LOAD_SCHEDULED_TASK: Load scheduler "s076" with entities [LocalPlayer, LocalPlayer], work=[610*, 0*]
 46: 0x03A4 [0x2B] Unnamed NPC (ID: 17834327/0x01102157) [8567*]:
    → "We put budding rune fencers through this trial to see whether they have the potential to carry on the tradition my grandfather began generations ago."
 47: 0x03AB [0x23] WAIT_FOR_DIALOG_INTERACTION
 48: 0x03AC [0x66] LOAD_EXT_SCHEDULER_MAIN: Load scheduler "tlk0" with entities [Unnamed NPC (ID: 17834327/0x01102157), Unnamed NPC (ID: 17834327/0x01102157)], work=158*
 49: 0x03BB [0x2B] Unnamed NPC (ID: 17834327/0x01102157) [8568*]:
    → "As Sverdhried's descendant, it's my duty to pass judgment upon those who undertake the trial. So it has been since the days of old."
 50: 0x03C2 [0x23] WAIT_FOR_DIALOG_INTERACTION
 51: 0x03C3 [0x52] END_LOAD_SCHEDULER: End scheduler "s076" with entities [LocalPlayer, LocalPlayer], work=610*
 52: 0x03D2 [0x06] Work_Zone[2] = 0
 53: 0x03D5 [0x06] Work_Zone[3] = 0
 54: 0x03D8 [0x06] Work_Zone[4] = 0
 55: 0x03DB [0x29] REQ_SET_WAIT(priority=0x10, entity_id=LocalPlayer, tag_num=0x02)
 56: 0x03E2 [0x02] IF !(Work_Zone[2] == 3*) GOTO 0x03F0
 57: 0x03EA [0x05] Work_Zone[3] = 1
 58: 0x03ED [0x01] GOTO 0x0428
 59: 0x03F0 [0x02] IF !(Work_Zone[2] == 4*) GOTO 0x03FE
 60: 0x03F8 [0x05] Work_Zone[3] = 1
 61: 0x03FB [0x01] GOTO 0x0428
 62: 0x03FE [0x02] IF !(Work_Zone[2] == 5*) GOTO 0x040C
 63: 0x0406 [0x05] Work_Zone[4] = 1
 64: 0x0409 [0x01] GOTO 0x0428
 65: 0x040C [0x02] IF !(Work_Zone[2] == 6*) GOTO 0x041A
 66: 0x0414 [0x05] Work_Zone[4] = 1
 67: 0x0417 [0x01] GOTO 0x0428
 68: 0x041A [0x02] IF !(Work_Zone[2] == 8*) GOTO 0x0428
 69: 0x0422 [0x05] Work_Zone[3] = 1
 70: 0x0425 [0x01] GOTO 0x0428

SUBROUTINE_0428:
 71: 0x0428 [0x02] IF !(Work_Zone[3] == 1*) GOTO 0x0444
 72: 0x0430 [0x45] LOAD_SCHEDULED_TASK: Load scheduler "s077" with entities [LocalPlayer, LocalPlayer], work=[610*, 0*]
 73: 0x0441 [0x01] GOTO 0x0471
 74: 0x0444 [0x02] IF !(Work_Zone[4] == 1*) GOTO 0x0460
 75: 0x044C [0x45] LOAD_SCHEDULED_TASK: Load scheduler "s078" with entities [LocalPlayer, LocalPlayer], work=[610*, 0*]
 76: 0x045D [0x01] GOTO 0x0471
 77: 0x0460 [0x45] LOAD_SCHEDULED_TASK: Load scheduler "s079" with entities [LocalPlayer, LocalPlayer], work=[610*, 0*]

SUBROUTINE_0471:
 78: 0x0471 [0x2B] Unnamed NPC (ID: 17834327/0x01102157) [8569*]:
    → "Well, now that you've passed, enjoy the new powers you've gained from this experience."
 79: 0x0478 [0x23] WAIT_FOR_DIALOG_INTERACTION
 80: 0x0479 [0x52] END_LOAD_SCHEDULER: End scheduler "s077" with entities [LocalPlayer, LocalPlayer], work=610*
 81: 0x0488 [0x52] END_LOAD_SCHEDULER: End scheduler "s078" with entities [LocalPlayer, LocalPlayer], work=610*
 82: 0x0497 [0x52] END_LOAD_SCHEDULER: End scheduler "s079" with entities [LocalPlayer, LocalPlayer], work=610*
 83: 0x04A6 [0x45] LOAD_SCHEDULED_TASK: Load scheduler "s080" with entities [LocalPlayer, LocalPlayer], work=[610*, 0*]
 84: 0x04B7 [0x66] LOAD_EXT_SCHEDULER_MAIN: Load scheduler "tlk2" with entities [Unnamed NPC (ID: 17834327/0x01102157), Unnamed NPC (ID: 17834327/0x01102157)], work=158*
 85: 0x04C6 [0x2B] Unnamed NPC (ID: 17834327/0x01102157) [8570*]:
    → "I hope that sparring session was as fun for you as it was for me. I haven't fought that hard in years. Don't think it'll be so easy the next time, though!"
 86: 0x04CD [0x23] WAIT_FOR_DIALOG_INTERACTION
 87: 0x04CE [0x52] END_LOAD_SCHEDULER: End scheduler "s080" with entities [LocalPlayer, LocalPlayer], work=610*
 88: 0x04DD [0x45] LOAD_SCHEDULED_TASK: Load scheduler "s083" with entities [LocalPlayer, LocalPlayer], work=[610*, 0*]
 89: 0x04EE [0x66] LOAD_EXT_SCHEDULER_MAIN: Load scheduler "tlk1" with entities [Unnamed NPC (ID: 17834327/0x01102157), Unnamed NPC (ID: 17834327/0x01102157)], work=158*
 90: 0x04FD [0x6E] LocalPlayer uses emote 1*
 91: 0x0504 [0x99] Wait for LocalPlayer animation to complete
 92: 0x0509 [0x53] WAIT_SCHEDULER_TASK: Wait for scheduler "tlk1" with entities [Unnamed NPC (ID: 17834327/0x01102157), Unnamed NPC (ID: 17834327/0x01102157)]
 93: 0x0516 [0x1C] WAIT(30* ticks)
 94: 0x0519 [0x6E] Unnamed NPC (ID: 17834327/0x01102157) uses emote 8*
 95: 0x0520 [0x99] Wait for Unnamed NPC (ID: 17834327/0x01102157) animation to complete
 96: 0x0525 [0x1C] WAIT(30* ticks)
 97: 0x0528 [0x1A] CALL_SUBROUTINE(address=0x0064)
 98: 0x052B [0x1C] WAIT(30* ticks)
 99: 0x052E [0x52] END_LOAD_SCHEDULER: End scheduler "s083" with entities [LocalPlayer, LocalPlayer], work=610*
100: 0x053D [0x5C] MUSIC_CONTROL: Set Idle (Day) music to song 61*
101: 0x0541 [0x5C] MUSIC_CONTROL: Set Idle (Night) music to song 61*
102: 0x0545 [0x5C] MUSIC_CONTROL: Set Combat (Solo) music to song 57*
103: 0x0549 [0x5C] MUSIC_CONTROL: Set Combat (Party) music to song 57*
104: 0x054D [0x9A] WAIT_MUSIC_SERVER()
105: 0x054E [0x1C] WAIT(15* ticks)
106: 0x0551 [0xAB] EventEntity->DespawnValue = 0* // Set despawn value
107: 0x0555 [0x1C] WAIT(1* ticks)
108: 0x0558 [0xAB] EventEntity->UnknownFlag = 0 // Disable unknown flag
109: 0x055A [0x46] CAMERA_CONTROL: Restore default settings
110: 0x055C [0x45] LOAD_SCHEDULED_TASK: Load scheduler "fdi2" with entities [LocalPlayer, LocalPlayer], work=[200*, 0*]
111: 0x056D [0x21] END_EVENT
112: 0x056E [0x00] END_REQSTACK()
```

### Event 340

#### Metadata

| Field        | Value    |
|--------------|----------|
| Entrypoint   | 0x056F   |
| Data Size    | 20 bytes |
| Instructions | 6        |

```
      00 01 02 03 04 05 06 07  08 09 0A 0B 0C 0D 0E 0F
      -- -- -- -- -- -- -- --  -- -- -- -- -- -- -- --
0560:                                               4A                 J
0570: F0 FF FF 7F 55 21 10 01  03 02 10 26 80 48 27 80  ....U!.....&.H'.
0580: 23 21 00                                          #!.             
```

#### Opcodes

```
  0: 0x056F [0x4A] LocalPlayer looks at Tomato Vantage Point (ID: 17834325/0x01102155)
  1: 0x0578 [0x03] Work_Zone[2] = 2389*
  2: 0x057D [0x48] [System] [8571*]:
    → "Calyces of Adoulinian tomatoes clutter the ground..."
  3: 0x0580 [0x23] WAIT_FOR_DIALOG_INTERACTION
  4: 0x0581 [0x21] END_EVENT
  5: 0x0582 [0x00] END_REQSTACK()
```

### Event 354

#### Metadata

| Field        | Value      |
|--------------|------------|
| Entrypoint   | 0x0583     |
| Data Size    | 2819 bytes |
| Instructions | 256        |

```
      00 01 02 03 04 05 06 07  08 09 0A 0B 0C 0D 0E 0F
      -- -- -- -- -- -- -- --  -- -- -- -- -- -- -- --
0580:          03 04 00 02 10  03 06 00 03 10 03 07 00     .............
0590: 04 10 03 08 00 05 10 42  1A 64 00 46 01 38 08 80  .......B.d.F.8..
05A0: 27 10 56 21 10 01 04 92  01 56 21 10 01 94 01 56  '.V!.....V!....V
05B0: 21 10 01 29 10 56 21 10  01 10 02 06 00 03 80 00  !..).V!.........
05C0: D0 05 02 07 00 03 80 00  CD 05 01 96 0F 01 F4 05  ................
05D0: 02 07 00 03 80 00 DB 05  01 F4 05 02 08 00 03 80  ................
05E0: 00 E6 05 01 F4 05 02 04  00 03 80 00 F1 05 01 F4  ................
05F0: 05 01 84 06 BA 56 21 10  01 28 80 29 80 2A 80 2B  .....V!..(.).*.+
0600: 80 BA F0 FF FF 7F 2C 80  2D 80 2A 80 2E 80 4A 56  ......,.-.*...JV
0610: 21 10 01 F0 FF FF 7F 4A  F0 FF FF 7F 56 21 10 01  !......J....V!..
0620: 5C 00 2F 80 5C 01 2F 80  5C 02 01 80 5C 03 01 80  \./.\./.\...\...
0630: 9A 80 F0 FF FF 7F 80 56  21 10 01 02 08 00 03 80  .......V!.......
0640: 00 57 06 45 30 80 F0 FF  FF 7F F0 FF FF 7F 73 30  .W.E0.........s0
0650: 32 38 01 80 01 68 06 45  30 80 F0 FF FF 7F F0 FF  28...h.E0.......
0660: FF 7F 73 30 32 39 01 80  1A 43 00 02 08 00 03 80  ..s029...C......
0670: 00 76 06 01 81 06 02 04  00 03 80 00 81 06 01 E2  .v..............
0680: 09 01 6C 0C BA 56 21 10  01 31 80 32 80 33 80 34  ..l..V!..1.2.3.4
0690: 80 BA F0 FF FF 7F 35 80  36 80 2A 80 37 80 4A F0  ......5.6.*.7.J.
06A0: FF FF 7F 56 21 10 01 5C  00 38 80 5C 01 38 80 5C  ...V!..\.8.\.8.\
06B0: 02 01 80 5C 03 01 80 9A  80 F0 FF FF 7F 80 56 21  ...\..........V!
06C0: 10 01 45 30 80 F0 FF FF  7F F0 FF FF 7F 73 30 30  ..E0.........s00
06D0: 30 01 80 1A 43 00 1C 39  80 52 30 80 F0 FF FF 7F  0...C..9.R0.....
06E0: F0 FF FF 7F 73 30 30 30  45 30 80 F0 FF FF 7F F0  ....s000E0......
06F0: FF FF 7F 73 30 32 37 01  80 6E 56 21 10 01 3A 80  ...s027..nV!..:.
0700: 99 56 21 10 01 1C 06 80  52 30 80 F0 FF FF 7F F0  .V!.....R0......
0710: FF FF 7F 73 30 32 37 45  30 80 F0 FF FF 7F F0 FF  ...s027E0.......
0720: FF 7F 73 30 30 31 01 80  1C 0F 80 5C 00 01 80 5C  ..s001.....\...\
0730: 01 01 80 5C 02 01 80 5C  03 01 80 9A 4A 56 21 10  ...\...\....JV!.
0740: 01 F0 FF FF 7F 6F 70 1C  13 80 52 30 80 F0 FF FF  .....op...R0....
0750: 7F F0 FF FF 7F 73 30 30  31 1A B2 29 02 02 00 03  .....s001..)....
0760: 80 00 78 07 45 30 80 F0  FF FF 7F F0 FF FF 7F 73  ..x.E0.........s
0770: 30 30 33 01 80 01 89 07  45 30 80 F0 FF FF 7F F0  003.....E0......
0780: FF FF 7F 73 30 30 32 01  80 1C 3B 80 52 30 80 F0  ...s002...;.R0..
0790: FF FF 7F F0 FF FF 7F 73  30 30 33 52 30 80 F0 FF  .......s003R0...
07A0: FF 7F F0 FF FF 7F 73 30  30 32 45 30 80 F0 FF FF  ......s002E0....
07B0: 7F F0 FF FF 7F 73 30 30  34 01 80 1C 3C 80 52 30  .....s004...<.R0
07C0: 80 F0 FF FF 7F F0 FF FF  7F 73 30 30 34 1A B2 29  .........s004..)
07D0: 02 02 00 03 80 00 EC 07  45 30 80 F0 FF FF 7F F0  ........E0......
07E0: FF FF 7F 73 30 30 36 01  80 01 FD 07 45 30 80 F0  ...s006.....E0..
07F0: FF FF 7F F0 FF FF 7F 73  30 30 35 01 80 1C 11 80  .......s005.....
0800: 6E F0 FF FF 7F 3D 80 99  F0 FF FF 7F 1C 04 80 AD  n....=..........
0810: 02 3E 80 56 21 10 01 56  21 10 01 1C 3F 80 27 10  .>.V!..V!...?.'.
0820: 56 21 10 01 11 1C 34 80  52 30 80 F0 FF FF 7F F0  V!....4.R0......
0830: FF FF 7F 73 30 30 36 52  30 80 F0 FF FF 7F F0 FF  ...s006R0.......
0840: FF 7F 73 30 30 35 45 30  80 F0 FF FF 7F F0 FF FF  ..s005E0........
0850: 7F 73 30 30 37 01 80 1C  40 80 52 30 80 F0 FF FF  .s007...@.R0....
0860: 7F F0 FF FF 7F 73 30 30  37 45 30 80 F0 FF FF 7F  .....s007E0.....
0870: F0 FF FF 7F 73 30 30 39  01 80 1C 0F 80 2B 56 21  ....s009.....+V!
0880: 10 01 41 80 23 4A F0 FF  FF 7F 56 21 10 01 6F 70  ..A.#J....V!..op
0890: 6E 56 21 10 01 42 80 99  56 21 10 01 1C 25 80 52  nV!..B..V!...%.R
08A0: 30 80 F0 FF FF 7F F0 FF  FF 7F 73 30 30 39 1A 91  0.........s009..
08B0: 29 1A B2 29 02 02 00 03  80 00 D0 08 45 30 80 F0  )..)........E0..
08C0: FF FF 7F F0 FF FF 7F 73  30 32 30 01 80 01 E1 08  .......s020.....
08D0: 45 30 80 F0 FF FF 7F F0  FF FF 7F 73 30 30 38 01  E0.........s008.
08E0: 80 1C 43 80 29 10 F0 FF  FF 7F 19 4A F0 FF FF 7F  ..C.)......J....
08F0: 56 21 10 01 6F 70 1C 39  80 52 30 80 F0 FF FF 7F  V!..op.9.R0.....
0900: F0 FF FF 7F 73 30 32 30  52 30 80 F0 FF FF 7F F0  ....s020R0......
0910: FF FF 7F 73 30 30 38 45  30 80 F0 FF FF 7F F0 FF  ...s008E0.......
0920: FF 7F 73 30 32 35 01 80  5C 00 2F 80 5C 01 2F 80  ..s025..\./.\./.
0930: 5C 02 01 80 5C 03 01 80  1C 3F 80 03 02 10 44 80  \...\....?....D.
0940: 2B 56 21 10 01 45 80 23  1C 11 80 29 10 F0 FF FF  +V!..E.#...)....
0950: 7F 1D 1C 40 80 52 30 80  F0 FF FF 7F F0 FF FF 7F  ...@.R0.........
0960: 73 30 32 35 45 30 80 F0  FF FF 7F F0 FF FF 7F 73  s025E0.........s
0970: 30 32 36 01 80 1C 46 80  27 10 F0 FF FF 7F 1E 66  026...F.'......f
0980: 47 80 56 21 10 01 56 21  10 01 74 68 6B 31 1C 06  G.V!..V!..thk1..
0990: 80 2B 56 21 10 01 48 80  23 66 47 80 56 21 10 01  .+V!..H.#fG.V!..
09A0: 56 21 10 01 74 68 6B 32  1C 04 80 52 30 80 F0 FF  V!..thk2...R0...
09B0: FF 7F F0 FF FF 7F 73 30  32 36 45 30 80 F0 FF FF  ......s026E0....
09C0: 7F F0 FF FF 7F 73 30 32  39 01 80 6E 56 21 10 01  .....s029..nV!..
09D0: 49 80 99 56 21 10 01 1C  25 80 2B 56 21 10 01 4A  I..V!...%.+V!..J
09E0: 80 23 2B 56 21 10 01 4B  80 23 24 4C 80 01 80 01  .#+V!..K.#$L....
09F0: 80 25 02 00 10 01 80 00  20 0A 52 30 80 F0 FF FF  .%...... .R0....
0A00: 7F F0 FF FF 7F 73 30 32  39 45 30 80 F0 FF FF 7F  .....s029E0.....
0A10: F0 FF FF 7F 73 30 32 38  01 80 01 6C 0C 01 6C 0C  ....s028...l..l.
0A20: 02 00 10 03 80 00 2C 0C  52 30 80 F0 FF FF 7F F0  ......,.R0......
0A30: FF FF 7F 73 30 32 39 45  30 80 F0 FF FF 7F F0 FF  ...s029E0.......
0A40: FF 7F 73 30 33 31 01 80  2B 56 21 10 01 4D 80 23  ..s031..+V!..M.#
0A50: 6E 56 21 10 01 4E 80 99  56 21 10 01 2B 56 21 10  nV!..N..V!..+V!.
0A60: 01 4F 80 23 1C 04 80 52  30 80 F0 FF FF 7F F0 FF  .O.#...R0.......
0A70: FF 7F 73 30 33 31 45 30  80 F0 FF FF 7F F0 FF FF  ..s031E0........
0A80: 7F 73 30 33 32 01 80 66  47 80 56 21 10 01 56 21  .s032..fG.V!..V!
0A90: 10 01 74 6C 6B 30 1C 06  80 2B 56 21 10 01 50 80  ..tlk0...+V!..P.
0AA0: 23 2B 56 21 10 01 51 80  23 66 47 80 56 21 10 01  #+V!..Q.#fG.V!..
0AB0: 56 21 10 01 74 6C 6B 31  1C 04 80 24 52 80 01 80  V!..tlk1...$R...
0AC0: 01 80 25 02 00 10 01 80  00 F1 0A 52 30 80 F0 FF  ..%........R0...
0AD0: FF 7F F0 FF FF 7F 73 30  33 32 45 30 80 F0 FF FF  ......s032E0....
0AE0: 7F F0 FF FF 7F 73 30 32  38 01 80 01 6C 0C 01 29  .....s028...l..)
0AF0: 0C 02 00 10 03 80 00 E9  0B 52 30 80 F0 FF FF 7F  .........R0.....
0B00: F0 FF FF 7F 73 30 33 32  45 30 80 F0 FF FF 7F F0  ....s032E0......
0B10: FF FF 7F 73 30 33 33 01  80 2B 56 21 10 01 53 80  ...s033..+V!..S.
0B20: 23 6E 56 21 10 01 1E 80  99 56 21 10 01 2B 56 21  #nV!.....V!..+V!
0B30: 10 01 54 80 23 1C 3F 80  45 30 80 F0 FF FF 7F F0  ..T.#.?.E0......
0B40: FF FF 7F 73 30 33 33 01  80 45 30 80 F0 FF FF 7F  ...s033..E0.....
0B50: F0 FF FF 7F 73 30 33 34  01 80 6E 56 21 10 01 1F  ....s034..nV!...
0B60: 80 99 56 21 10 01 2B 56  21 10 01 55 80 23 1C 04  ..V!..+V!..U.#..
0B70: 80 52 30 80 F0 FF FF 7F  F0 FF FF 7F 73 30 33 34  .R0.........s034
0B80: 45 30 80 F0 FF FF 7F F0  FF FF 7F 73 30 33 35 01  E0.........s035.
0B90: 80 66 56 80 56 21 10 01  56 21 10 01 74 6C 6B 30  .fV.V!..V!..tlk0
0BA0: 1C 06 80 2B 56 21 10 01  57 80 23 03 02 10 26 80  ...+V!..W.#...&.
0BB0: 2B 56 21 10 01 58 80 23  66 56 80 56 21 10 01 56  +V!..X.#fV.V!..V
0BC0: 21 10 01 74 6C 6B 31 45  30 80 F0 FF FF 7F F0 FF  !..tlk1E0.......
0BD0: FF 7F 73 30 33 36 01 80  1C 06 80 2B 56 21 10 01  ..s036.....+V!..
0BE0: 59 80 23 01 1C 10 01 29  0C 02 00 10 05 80 00 29  Y.#....).......)
0BF0: 0C 52 30 80 F0 FF FF 7F  F0 FF FF 7F 73 30 33 32  .R0.........s032
0C00: 45 30 80 F0 FF FF 7F F0  FF FF 7F 73 30 33 30 01  E0.........s030.
0C10: 80 27 10 F0 FF FF 7F 1C  1C 5A 80 2B 56 21 10 01  .'.......Z.+V!..
0C20: 5B 80 23 01 1C 10 01 29  0C 01 6C 0C 02 00 10 05  [.#....)..l.....
0C30: 80 00 6C 0C 52 30 80 F0  FF FF 7F F0 FF FF 7F 73  ..l.R0.........s
0C40: 30 32 39 45 30 80 F0 FF  FF 7F F0 FF FF 7F 73 30  029E0.........s0
0C50: 33 30 01 80 27 10 F0 FF  FF 7F 1A 1C 5A 80 2B 56  30..'.......Z.+V
0C60: 21 10 01 5B 80 23 01 1C  10 01 6C 0C 03 03 10 5C  !..[.#....l....\
0C70: 80 03 04 10 5D 80 2B 56  21 10 01 5E 80 23 03 03  ....].+V!..^.#..
0C80: 10 5C 80 03 04 10 5D 80  52 30 80 F0 FF FF 7F F0  .\....].R0......
0C90: FF FF 7F 73 30 32 38 45  30 80 F0 FF FF 7F F0 FF  ...s028E0.......
0CA0: FF 7F 73 30 33 37 01 80  03 01 10 01 80 24 5F 80  ..s037.......$_.
0CB0: 01 80 01 80 25 02 00 10  01 80 00 96 0D 02 06 00  ....%...........
0CC0: 03 80 00 DF 0C 6E 56 21  10 01 1F 80 99 56 21 10  .....nV!.....V!.
0CD0: 01 1C 06 80 2B 56 21 10  01 60 80 23 01 90 0D 52  ....+V!..`.#...R
0CE0: 30 80 F0 FF FF 7F F0 FF  FF 7F 73 30 33 37 45 30  0.........s037E0
0CF0: 80 F0 FF FF 7F F0 FF FF  7F 73 30 33 38 01 80 6E  .........s038..n
0D00: 56 21 10 01 61 80 99 56  21 10 01 1C 62 80 03 05  V!..a..V!...b...
0D10: 10 63 80 2B 56 21 10 01  64 80 23 52 30 80 F0 FF  .c.+V!..d.#R0...
0D20: FF 7F F0 FF FF 7F 73 30  33 38 45 30 80 F0 FF FF  ......s038E0....
0D30: 7F F0 FF FF 7F 73 30 33  39 01 80 6E 56 21 10 01  .....s039..nV!..
0D40: 46 80 99 56 21 10 01 1C  06 80 03 05 10 63 80 03  F..V!........c..
0D50: 06 10 65 80 2B 56 21 10  01 66 80 23 03 03 10 5C  ..e.+V!..f.#...\
0D60: 80 2B 56 21 10 01 67 80  23 52 30 80 F0 FF FF 7F  .+V!..g.#R0.....
0D70: F0 FF FF 7F 73 30 33 39  45 30 80 F0 FF FF 7F F0  ....s039E0......
0D80: FF FF 7F 73 30 33 37 01  80 3C 01 10 01 80 03 80  ...s037..<......
0D90: 01 AD 0C 01 96 0F 02 00  10 03 80 00 56 0F 02 07  ............V...
0DA0: 00 03 80 00 C0 0D 6E 56  21 10 01 1F 80 99 56 21  ......nV!.....V!
0DB0: 10 01 1C 06 80 2B 56 21  10 01 60 80 23 01 50 0F  .....+V!..`.#.P.
0DC0: 52 30 80 F0 FF FF 7F F0  FF FF 7F 73 30 33 37 02  R0.........s037.
0DD0: 08 00 03 80 00 44 0E 45  30 80 F0 FF FF 7F F0 FF  .....D.E0.......
0DE0: FF 7F 73 30 34 34 01 80  66 47 80 56 21 10 01 56  ..s044..fG.V!..V
0DF0: 21 10 01 74 6C 6B 30 1C  06 80 03 07 10 68 80 2B  !..tlk0......h.+
0E00: 56 21 10 01 69 80 23 2B  56 21 10 01 6A 80 23 66  V!..i.#+V!..j.#f
0E10: 47 80 56 21 10 01 56 21  10 01 74 6C 6B 31 1C 06  G.V!..V!..tlk1..
0E20: 80 52 30 80 F0 FF FF 7F  F0 FF FF 7F 73 30 34 34  .R0.........s044
0E30: 45 30 80 F0 FF FF 7F F0  FF FF 7F 73 30 33 37 01  E0.........s037.
0E40: 80 01 50 0F 6E 56 21 10  01 01 80 99 56 21 10 01  ..P.nV!.....V!..
0E50: 1C 46 80 45 30 80 F0 FF  FF 7F F0 FF FF 7F 73 30  .F.E0.........s0
0E60: 34 30 01 80 03 07 10 68  80 2B 56 21 10 01 6B 80  40.....h.+V!..k.
0E70: 23 1C 06 80 52 30 80 F0  FF FF 7F F0 FF FF 7F 73  #...R0.........s
0E80: 30 34 30 45 30 80 F0 FF  FF 7F F0 FF FF 7F 73 30  040E0.........s0
0E90: 34 31 01 80 1C 11 80 29  10 F0 FF FF 7F 1D 1C 40  41.....).......@
0EA0: 80 66 47 80 56 21 10 01  56 21 10 01 74 68 6B 31  .fG.V!..V!..thk1
0EB0: 1C 11 80 27 10 F0 FF FF  7F 1E 1C 11 80 2B 56 21  ...'.........+V!
0EC0: 10 01 6C 80 23 66 47 80  56 21 10 01 56 21 10 01  ..l.#fG.V!..V!..
0ED0: 74 68 6B 32 1C 11 80 52  30 80 F0 FF FF 7F F0 FF  thk2...R0.......
0EE0: FF 7F 73 30 34 31 45 30  80 F0 FF FF 7F F0 FF FF  ..s041E0........
0EF0: 7F 73 30 34 32 01 80 03  07 10 68 80 2B 56 21 10  .s042.....h.+V!.
0F00: 01 6D 80 23 1C 06 80 66  6E 80 56 21 10 01 56 21  .m.#...fn.V!..V!
0F10: 10 01 70 61 73 30 1C 13  80 52 30 80 F0 FF FF 7F  ..pas0...R0.....
0F20: F0 FF FF 7F 73 30 34 32  45 30 80 F0 FF FF 7F F0  ....s042E0......
0F30: FF FF 7F 73 30 34 33 01  80 5D 01 80 01 80 2B 56  ...s043..]....+V
0F40: 21 10 01 6F 80 23 3C 01  10 03 80 03 80 01 1C 10  !..o.#<.........
0F50: 01 AD 0C 01 96 0F 02 00  10 05 80 00 96 0F 52 30  ..............R0
0F60: 80 F0 FF FF 7F F0 FF FF  7F 73 30 33 37 45 30 80  .........s037E0.
0F70: F0 FF FF 7F F0 FF FF 7F  73 30 33 30 01 80 27 10  ........s030..'.
0F80: F0 FF FF 7F 1B 1C 5A 80  2B 56 21 10 01 5B 80 23  ......Z.+V!..[.#
0F90: 01 1C 10 01 96 0F BA 56  21 10 01 28 80 29 80 2A  .......V!..(.).*
0FA0: 80 2B 80 BA F0 FF FF 7F  2C 80 2D 80 2A 80 2E 80  .+......,.-.*...
0FB0: 4A 56 21 10 01 F0 FF FF  7F 4A F0 FF FF 7F 56 21  JV!......J....V!
0FC0: 10 01 5C 00 2F 80 5C 01  2F 80 5C 02 01 80 5C 03  ..\./.\./.\...\.
0FD0: 01 80 9A 66 56 80 56 21  10 01 56 21 10 01 74 6C  ...fV.V!..V!..tl
0FE0: 6B 30 80 F0 FF FF 7F 80  56 21 10 01 45 30 80 F0  k0......V!..E0..
0FF0: FF FF 7F F0 FF FF 7F 73  30 33 37 01 80 1A 43 00  .......s037...C.
1000: 03 02 10 26 80 2B 56 21  10 01 70 80 23 66 56 80  ...&.+V!..p.#fV.
1010: 56 21 10 01 56 21 10 01  74 6C 6B 31 1A 64 00 1C  V!..V!..tlk1.d..
1020: 06 80 52 30 80 F0 FF FF  7F F0 FF FF 7F 73 30 34  ..R0.........s04
1030: 33 52 30 80 F0 FF FF 7F  F0 FF FF 7F 73 30 33 37  3R0.........s037
1040: 52 30 80 F0 FF FF 7F F0  FF FF 7F 73 30 33 30 5C  R0.........s030\
1050: 00 23 80 5C 01 23 80 5C  02 24 80 5C 03 24 80 9A  .#.\.#.\.$.\.$..
1060: 5D 6E 80 0F 80 1C 25 80  AB 11 01 80 1C 03 80 AB  ]n....%.........
1070: 0A 46 00 45 00 80 F0 FF  FF 7F F0 FF FF 7F 66 64  .F.E..........fd
1080: 69 32 01 80 21 00                                 i2..!.          
```

#### Opcodes

```
  0: 0x0583 [0x03] ExtData[1]->WorkLocal[4] = Work_Zone[2]
  1: 0x0588 [0x03] ExtData[1]->WorkLocal[6] = Work_Zone[3]
  2: 0x058D [0x03] ExtData[1]->WorkLocal[7] = Work_Zone[4]
  3: 0x0592 [0x03] ExtData[1]->WorkLocal[8] = Work_Zone[5]
  4: 0x0597 [0x42] SET_CLI_EVENT_CANCEL_DATA()
  5: 0x0598 [0x1A] CALL_SUBROUTINE(address=0x0064)
  6: 0x059B [0x46] CAMERA_CONTROL: Disable user control
  7: 0x059D [0x38] SET_CLIENT_EVENT_MODE(mode=19*)
  8: 0x05A0 [0x27] REQ_SET(priority=0x10, entity_id=Unnamed NPC (ID: 17834326/0x01102156), tag_num=0x04)
  9: 0x05A7 [0x92] Unnamed NPC (ID: 17834326/0x01102156)->Render.Flags3 ^= 0x01
 10: 0x05AD [0x94] Unnamed NPC (ID: 17834326/0x01102156)->Render.Flags3 ^= 0x01
 11: 0x05B3 [0x29] REQ_SET_WAIT(priority=0x10, entity_id=Unnamed NPC (ID: 17834326/0x01102156), tag_num=0x10)
 12: 0x05BA [0x02] IF !(ExtData[1]->WorkLocal[6] == 1*) GOTO 0x05D0
 13: 0x05C2 [0x02] IF !(ExtData[1]->WorkLocal[7] == 1*) GOTO 0x05CD
 14: 0x05CA [0x01] GOTO 0x0F96
 15: 0x05CD [0x01] GOTO 0x05F4
 16: 0x05D0 [0x02] IF !(ExtData[1]->WorkLocal[7] == 1*) GOTO 0x05DB
 17: 0x05D8 [0x01] GOTO 0x05F4
 18: 0x05DB [0x02] IF !(ExtData[1]->WorkLocal[8] == 1*) GOTO 0x05E6
 19: 0x05E3 [0x01] GOTO 0x05F4
 20: 0x05E6 [0x02] IF !(ExtData[1]->WorkLocal[4] == 1*) GOTO 0x05F1
 21: 0x05EE [0x01] GOTO 0x05F4
 22: 0x05F1 [0x01] GOTO 0x0684

SUBROUTINE_05F4:
 23: 0x05F4 [0xBA] SET_ENTITY_POSITION(entity_id=Unnamed NPC (ID: 17834326/0x01102156), pos_x=-346.707*, pos_z=-298.554*, pos_y=-5.765*, direction=89.9°*)
 24: 0x0601 [0xBA] SET_ENTITY_POSITION(entity_id=LocalPlayer, pos_x=-347.063*, pos_z=-300.751*, pos_y=-5.765*, direction=270.1°*)
 25: 0x060E [0x4A] Unnamed NPC (ID: 17834326/0x01102156) looks at LocalPlayer
 26: 0x0617 [0x4A] LocalPlayer looks at Unnamed NPC (ID: 17834326/0x01102156)
 27: 0x0620 [0x5C] MUSIC_CONTROL: Set Idle (Day) music to song 104*
 28: 0x0624 [0x5C] MUSIC_CONTROL: Set Idle (Night) music to song 104*
 29: 0x0628 [0x5C] MUSIC_CONTROL: Set Combat (Solo) music to song 0*
 30: 0x062C [0x5C] MUSIC_CONTROL: Set Combat (Party) music to song 0*
 31: 0x0630 [0x9A] WAIT_MUSIC_SERVER()
 32: 0x0631 [0x80] LOAD_WAIT(entity=LocalPlayer)
 33: 0x0636 [0x80] LOAD_WAIT(entity=Unnamed NPC (ID: 17834326/0x01102156))
 34: 0x063B [0x02] IF !(ExtData[1]->WorkLocal[8] == 1*) GOTO 0x0657
 35: 0x0643 [0x45] LOAD_SCHEDULED_TASK: Load scheduler "s028" with entities [LocalPlayer, LocalPlayer], work=[612*, 0*]
 36: 0x0654 [0x01] GOTO 0x0668
 37: 0x0657 [0x45] LOAD_SCHEDULED_TASK: Load scheduler "s029" with entities [LocalPlayer, LocalPlayer], work=[612*, 0*]

SUBROUTINE_0668:
 38: 0x0668 [0x1A] CALL_SUBROUTINE(address=0x0043)
 39: 0x066B [0x02] IF !(ExtData[1]->WorkLocal[8] == 1*) GOTO 0x0676
 40: 0x0673 [0x01] GOTO 0x0681
 41: 0x0676 [0x02] IF !(ExtData[1]->WorkLocal[4] == 1*) GOTO 0x0681
 42: 0x067E [0x01] GOTO 0x09E2

SUBROUTINE_0681:
 43: 0x0681 [0x01] GOTO 0x0C6C

SUBROUTINE_0684:
 44: 0x0684 [0xBA] SET_ENTITY_POSITION(entity_id=Unnamed NPC (ID: 17834326/0x01102156), pos_x=-330.891*, pos_z=-309.125*, pos_y=-1.000*, direction=6.6°*)
 45: 0x0691 [0xBA] SET_ENTITY_POSITION(entity_id=LocalPlayer, pos_x=-346.681*, pos_z=-299.243*, pos_y=-5.765*, direction=276.8°*)
 46: 0x069E [0x4A] LocalPlayer looks at Unnamed NPC (ID: 17834326/0x01102156)
 47: 0x06A7 [0x5C] MUSIC_CONTROL: Set Idle (Day) music to song 163*
 48: 0x06AB [0x5C] MUSIC_CONTROL: Set Idle (Night) music to song 163*
 49: 0x06AF [0x5C] MUSIC_CONTROL: Set Combat (Solo) music to song 0*
 50: 0x06B3 [0x5C] MUSIC_CONTROL: Set Combat (Party) music to song 0*
 51: 0x06B7 [0x9A] WAIT_MUSIC_SERVER()
 52: 0x06B8 [0x80] LOAD_WAIT(entity=LocalPlayer)
 53: 0x06BD [0x80] LOAD_WAIT(entity=Unnamed NPC (ID: 17834326/0x01102156))
 54: 0x06C2 [0x45] LOAD_SCHEDULED_TASK: Load scheduler "s000" with entities [LocalPlayer, LocalPlayer], work=[612*, 0*]
 55: 0x06D3 [0x1A] CALL_SUBROUTINE(address=0x0043)
 56: 0x06D6 [0x1C] WAIT(100* ticks)
 57: 0x06D9 [0x52] END_LOAD_SCHEDULER: End scheduler "s000" with entities [LocalPlayer, LocalPlayer], work=612*
 58: 0x06E8 [0x45] LOAD_SCHEDULED_TASK: Load scheduler "s027" with entities [LocalPlayer, LocalPlayer], work=[612*, 0*]
 59: 0x06F9 [0x6E] Unnamed NPC (ID: 17834326/0x01102156) uses emote 29*
 60: 0x0700 [0x99] Wait for Unnamed NPC (ID: 17834326/0x01102156) animation to complete
 61: 0x0705 [0x1C] WAIT(30* ticks)
 62: 0x0708 [0x52] END_LOAD_SCHEDULER: End scheduler "s027" with entities [LocalPlayer, LocalPlayer], work=612*
 63: 0x0717 [0x45] LOAD_SCHEDULED_TASK: Load scheduler "s001" with entities [LocalPlayer, LocalPlayer], work=[612*, 0*]
 64: 0x0728 [0x1C] WAIT(120* ticks)
 65: 0x072B [0x5C] MUSIC_CONTROL: Set Idle (Day) music to song 0*
 66: 0x072F [0x5C] MUSIC_CONTROL: Set Idle (Night) music to song 0*
 67: 0x0733 [0x5C] MUSIC_CONTROL: Set Combat (Solo) music to song 0*
 68: 0x0737 [0x5C] MUSIC_CONTROL: Set Combat (Party) music to song 0*
 69: 0x073B [0x9A] WAIT_MUSIC_SERVER()
 70: 0x073C [0x4A] Unnamed NPC (ID: 17834326/0x01102156) looks at LocalPlayer
 71: 0x0745 [0x6F] WAIT_FRAME_DELAY: Yield until WaitTime reaches zero
 72: 0x0746 [0x70] WAIT_ENTITY_RENDER_FLAG: Wait while EventEntity->Render.Flags3 bit 2 is set (cancel turn if not)
 73: 0x0747 [0x1C] WAIT(90* ticks)
 74: 0x074A [0x52] END_LOAD_SCHEDULER: End scheduler "s001" with entities [LocalPlayer, LocalPlayer], work=612*
 75: 0x0759 [0x1A] CALL_SUBROUTINE(address=0x29B2)
 76: 0x075C [0x02] IF !(ExtData[1]->WorkLocal[2] == 1*) GOTO 0x0778
 77: 0x0764 [0x45] LOAD_SCHEDULED_TASK: Load scheduler "s003" with entities [LocalPlayer, LocalPlayer], work=[612*, 0*]
 78: 0x0775 [0x01] GOTO 0x0789
 79: 0x0778 [0x45] LOAD_SCHEDULED_TASK: Load scheduler "s002" with entities [LocalPlayer, LocalPlayer], work=[612*, 0*]

SUBROUTINE_0789:
 80: 0x0789 [0x1C] WAIT(70* ticks)
 81: 0x078C [0x52] END_LOAD_SCHEDULER: End scheduler "s003" with entities [LocalPlayer, LocalPlayer], work=612*
 82: 0x079B [0x52] END_LOAD_SCHEDULER: End scheduler "s002" with entities [LocalPlayer, LocalPlayer], work=612*
 83: 0x07AA [0x45] LOAD_SCHEDULED_TASK: Load scheduler "s004" with entities [LocalPlayer, LocalPlayer], work=[612*, 0*]
 84: 0x07BB [0x1C] WAIT(80* ticks)
 85: 0x07BE [0x52] END_LOAD_SCHEDULER: End scheduler "s004" with entities [LocalPlayer, LocalPlayer], work=612*
 86: 0x07CD [0x1A] CALL_SUBROUTINE(address=0x29B2)
 87: 0x07D0 [0x02] IF !(ExtData[1]->WorkLocal[2] == 1*) GOTO 0x07EC
 88: 0x07D8 [0x45] LOAD_SCHEDULED_TASK: Load scheduler "s006" with entities [LocalPlayer, LocalPlayer], work=[612*, 0*]
 89: 0x07E9 [0x01] GOTO 0x07FD
 90: 0x07EC [0x45] LOAD_SCHEDULED_TASK: Load scheduler "s005" with entities [LocalPlayer, LocalPlayer], work=[612*, 0*]

SUBROUTINE_07FD:
 91: 0x07FD [0x1C] WAIT(20* ticks)
 92: 0x0800 [0x6E] LocalPlayer uses emote 37*
 93: 0x0807 [0x99] Wait for LocalPlayer animation to complete
 94: 0x080C [0x1C] WAIT(45* ticks)
 95: 0x080F [0xAD] DUAL_ENTITY_SCHEDULER_HANDLER: Execute sub-case 2 with entities [Unnamed NPC (ID: 17834326/0x01102156), Unnamed NPC (ID: 17834326/0x01102156)], work=9*
 96: 0x081B [0x1C] WAIT(50* ticks)
 97: 0x081E [0x27] REQ_SET(priority=0x10, entity_id=Unnamed NPC (ID: 17834326/0x01102156), tag_num=0x11)
 98: 0x0825 [0x1C] WAIT(75* ticks)
 99: 0x0828 [0x52] END_LOAD_SCHEDULER: End scheduler "s006" with entities [LocalPlayer, LocalPlayer], work=612*
100: 0x0837 [0x52] END_LOAD_SCHEDULER: End scheduler "s005" with entities [LocalPlayer, LocalPlayer], work=612*
101: 0x0846 [0x45] LOAD_SCHEDULED_TASK: Load scheduler "s007" with entities [LocalPlayer, LocalPlayer], work=[612*, 0*]
102: 0x0857 [0x1C] WAIT(85* ticks)
103: 0x085A [0x52] END_LOAD_SCHEDULER: End scheduler "s007" with entities [LocalPlayer, LocalPlayer], work=612*
104: 0x0869 [0x45] LOAD_SCHEDULED_TASK: Load scheduler "s009" with entities [LocalPlayer, LocalPlayer], work=[612*, 0*]
105: 0x087A [0x1C] WAIT(120* ticks)
106: 0x087D [0x2B] Unnamed NPC (ID: 17834326/0x01102156) [8572*]:
    → "Ska-bam! Jerra's the name, and trrransforming metals is my game."
107: 0x0884 [0x23] WAIT_FOR_DIALOG_INTERACTION
108: 0x0885 [0x4A] LocalPlayer looks at Unnamed NPC (ID: 17834326/0x01102156)
109: 0x088E [0x6F] WAIT_FRAME_DELAY: Yield until WaitTime reaches zero
110: 0x088F [0x70] WAIT_ENTITY_RENDER_FLAG: Wait while EventEntity->Render.Flags3 bit 2 is set (cancel turn if not)
111: 0x0890 [0x6E] Unnamed NPC (ID: 17834326/0x01102156) uses emote 68*
112: 0x0897 [0x99] Wait for Unnamed NPC (ID: 17834326/0x01102156) animation to complete
113: 0x089C [0x1C] WAIT(15* ticks)
114: 0x089F [0x52] END_LOAD_SCHEDULER: End scheduler "s009" with entities [LocalPlayer, LocalPlayer], work=612*
115: 0x08AE [0x1A] CALL_SUBROUTINE(address=0x2991)
116: 0x08B1 [0x1A] CALL_SUBROUTINE(address=0x29B2)
117: 0x08B4 [0x02] IF !(ExtData[1]->WorkLocal[2] == 1*) GOTO 0x08D0
118: 0x08BC [0x45] LOAD_SCHEDULED_TASK: Load scheduler "s020" with entities [LocalPlayer, LocalPlayer], work=[612*, 0*]
119: 0x08CD [0x01] GOTO 0x08E1
120: 0x08D0 [0x45] LOAD_SCHEDULED_TASK: Load scheduler "s008" with entities [LocalPlayer, LocalPlayer], work=[612*, 0*]

SUBROUTINE_08E1:
121: 0x08E1 [0x1C] WAIT(65* ticks)
122: 0x08E4 [0x29] REQ_SET_WAIT(priority=0x10, entity_id=LocalPlayer, tag_num=0x19)
123: 0x08EB [0x4A] LocalPlayer looks at Unnamed NPC (ID: 17834326/0x01102156)
124: 0x08F4 [0x6F] WAIT_FRAME_DELAY: Yield until WaitTime reaches zero
125: 0x08F5 [0x70] WAIT_ENTITY_RENDER_FLAG: Wait while EventEntity->Render.Flags3 bit 2 is set (cancel turn if not)
126: 0x08F6 [0x1C] WAIT(100* ticks)
127: 0x08F9 [0x52] END_LOAD_SCHEDULER: End scheduler "s020" with entities [LocalPlayer, LocalPlayer], work=612*
128: 0x0908 [0x52] END_LOAD_SCHEDULER: End scheduler "s008" with entities [LocalPlayer, LocalPlayer], work=612*
129: 0x0917 [0x45] LOAD_SCHEDULED_TASK: Load scheduler "s025" with entities [LocalPlayer, LocalPlayer], work=[612*, 0*]
130: 0x0928 [0x5C] MUSIC_CONTROL: Set Idle (Day) music to song 104*
131: 0x092C [0x5C] MUSIC_CONTROL: Set Idle (Night) music to song 104*
132: 0x0930 [0x5C] MUSIC_CONTROL: Set Combat (Solo) music to song 0*
133: 0x0934 [0x5C] MUSIC_CONTROL: Set Combat (Party) music to song 0*
134: 0x0938 [0x1C] WAIT(50* ticks)
135: 0x093B [0x03] Work_Zone[2] = 2353*
136: 0x0940 [0x2B] Unnamed NPC (ID: 17834326/0x01102156) [8574*]:
    → "<Sniff><sniff> I smell burrrnt flesh. Is that...$6?"
137: 0x0947 [0x23] WAIT_FOR_DIALOG_INTERACTION
138: 0x0948 [0x1C] WAIT(20* ticks)
139: 0x094B [0x29] REQ_SET_WAIT(priority=0x10, entity_id=LocalPlayer, tag_num=0x1D)
140: 0x0952 [0x1C] WAIT(85* ticks)
141: 0x0955 [0x52] END_LOAD_SCHEDULER: End scheduler "s025" with entities [LocalPlayer, LocalPlayer], work=612*
142: 0x0964 [0x45] LOAD_SCHEDULED_TASK: Load scheduler "s026" with entities [LocalPlayer, LocalPlayer], work=[612*, 0*]
143: 0x0975 [0x1C] WAIT(10* ticks)
144: 0x0978 [0x27] REQ_SET(priority=0x10, entity_id=LocalPlayer, tag_num=0x1E)
145: 0x097F [0x66] LOAD_EXT_SCHEDULER_MAIN: Load scheduler "thk1" with entities [Unnamed NPC (ID: 17834326/0x01102156), Unnamed NPC (ID: 17834326/0x01102156)], work=59*
146: 0x098E [0x1C] WAIT(30* ticks)
147: 0x0991 [0x2B] Unnamed NPC (ID: 17834326/0x01102156) [8575*]:
    → "Hm? You rrrequest a special sword? I'm not an accomplished enough blacksmith to prrrovide you with one..."
148: 0x0998 [0x23] WAIT_FOR_DIALOG_INTERACTION
149: 0x0999 [0x66] LOAD_EXT_SCHEDULER_MAIN: Load scheduler "thk2" with entities [Unnamed NPC (ID: 17834326/0x01102156), Unnamed NPC (ID: 17834326/0x01102156)], work=59*
150: 0x09A8 [0x1C] WAIT(45* ticks)
151: 0x09AB [0x52] END_LOAD_SCHEDULER: End scheduler "s026" with entities [LocalPlayer, LocalPlayer], work=612*
152: 0x09BA [0x45] LOAD_SCHEDULED_TASK: Load scheduler "s029" with entities [LocalPlayer, LocalPlayer], work=[612*, 0*]
153: 0x09CB [0x6E] Unnamed NPC (ID: 17834326/0x01102156) uses emote 34*
154: 0x09D2 [0x99] Wait for Unnamed NPC (ID: 17834326/0x01102156) animation to complete
155: 0x09D7 [0x1C] WAIT(15* ticks)
156: 0x09DA [0x2B] Unnamed NPC (ID: 17834326/0x01102156) [8576*]:
    → "But I'm an expurrrt weaver of yarns!"
157: 0x09E1 [0x23] WAIT_FOR_DIALOG_INTERACTION

SUBROUTINE_09E2:
158: 0x09E2 [0x2B] Unnamed NPC (ID: 17834326/0x01102156) [8577*]:
    → "One interesting tidbit is that Yesty's kinder than a kitten, despite his tiger-like frrront. Anything else you want to hear?"
159: 0x09E9 [0x23] WAIT_FOR_DIALOG_INTERACTION
160: 0x09EA [0x24] CREATE_DIALOG(message_id=8578*, default_option=0*, option_flags=0*)
    → "What will you do? [Ask about swords./Listen to her stories./Leave immediately.]"
161: 0x09F1 [0x25] WAIT_DIALOG_SELECT()
162: 0x09F2 [0x02] IF !(Work_Zone[0] == 0*) GOTO 0x0A20
163: 0x09FA [0x52] END_LOAD_SCHEDULER: End scheduler "s029" with entities [LocalPlayer, LocalPlayer], work=612*
164: 0x0A09 [0x45] LOAD_SCHEDULED_TASK: Load scheduler "s028" with entities [LocalPlayer, LocalPlayer], work=[612*, 0*]
165: 0x0A1A [0x01] GOTO 0x0C6C

SUBROUTINE_0C29:
166: 0x0C29 [0x01] GOTO 0x0C6C
167: 0x0C2C [0x02] IF !(Work_Zone[0] == 2*) GOTO 0x0C6C
168: 0x0C34 [0x52] END_LOAD_SCHEDULER: End scheduler "s029" with entities [LocalPlayer, LocalPlayer], work=612*
169: 0x0C43 [0x45] LOAD_SCHEDULED_TASK: Load scheduler "s030" with entities [LocalPlayer, LocalPlayer], work=[612*, 0*]
170: 0x0C54 [0x27] REQ_SET(priority=0x10, entity_id=LocalPlayer, tag_num=0x1A)
171: 0x0C5B [0x1C] WAIT(25* ticks)
172: 0x0C5E [0x2B] Unnamed NPC (ID: 17834326/0x01102156) [8579*]:
    → "Don't think you can rrrun away without hearing my stories!"
173: 0x0C65 [0x23] WAIT_FOR_DIALOG_INTERACTION
174: 0x0C66 [0x01] GOTO 0x101C

SUBROUTINE_0C6C:
175: 0x0C6C [0x03] Work_Zone[3] = 2354*
176: 0x0C71 [0x03] Work_Zone[4] = 2356*
177: 0x0C76 [0x2B] Unnamed NPC (ID: 17834326/0x01102156) [8591*]:
    → "What about them? Are you interrrested in the $3 or $5?"
178: 0x0C7D [0x23] WAIT_FOR_DIALOG_INTERACTION
179: 0x0C7E [0x03] Work_Zone[3] = 2354*
180: 0x0C83 [0x03] Work_Zone[4] = 2356*
181: 0x0C88 [0x52] END_LOAD_SCHEDULER: End scheduler "s028" with entities [LocalPlayer, LocalPlayer], work=612*
182: 0x0C97 [0x45] LOAD_SCHEDULED_TASK: Load scheduler "s037" with entities [LocalPlayer, LocalPlayer], work=[612*, 0*]
183: 0x0CA8 [0x03] Work_Zone[1] = 0*

SUBROUTINE_0CAD:
184: 0x0CAD [0x24] CREATE_DIALOG(message_id=8592*, default_option=0*, option_flags=0*)
    → "Which are you interested in? [$3./$3./None. I want out.]"
185: 0x0CB4 [0x25] WAIT_DIALOG_SELECT()
186: 0x0CB5 [0x02] IF !(Work_Zone[0] == 0*) GOTO 0x0D96
187: 0x0CBD [0x02] IF !(ExtData[1]->WorkLocal[6] == 1*) GOTO 0x0CDF
188: 0x0CC5 [0x6E] Unnamed NPC (ID: 17834326/0x01102156) uses emote 6*
189: 0x0CCC [0x99] Wait for Unnamed NPC (ID: 17834326/0x01102156) animation to complete
190: 0x0CD1 [0x1C] WAIT(30* ticks)
191: 0x0CD4 [0x2B] Unnamed NPC (ID: 17834326/0x01102156) [8600*]:
    → "Why're you asking me if you have one!? There's no fun in telling people what they alrrready know."
192: 0x0CDB [0x23] WAIT_FOR_DIALOG_INTERACTION
193: 0x0CDC [0x01] GOTO 0x0D90
194: 0x0CDF [0x52] END_LOAD_SCHEDULER: End scheduler "s037" with entities [LocalPlayer, LocalPlayer], work=612*
195: 0x0CEE [0x45] LOAD_SCHEDULED_TASK: Load scheduler "s038" with entities [LocalPlayer, LocalPlayer], work=[612*, 0*]
196: 0x0CFF [0x6E] Unnamed NPC (ID: 17834326/0x01102156) uses emote 7*
197: 0x0D06 [0x99] Wait for Unnamed NPC (ID: 17834326/0x01102156) animation to complete
198: 0x0D0B [0x1C] WAIT(35* ticks)
199: 0x0D0E [0x03] Work_Zone[5] = 20781*
200: 0x0D13 [0x2B] Unnamed NPC (ID: 17834326/0x01102156) [8593*]:
    → "Any alchemist with half a brrrain can make that! All you need is $3, so it's simpler than trrrapping vermin."
201: 0x0D1A [0x23] WAIT_FOR_DIALOG_INTERACTION
202: 0x0D1B [0x52] END_LOAD_SCHEDULER: End scheduler "s038" with entities [LocalPlayer, LocalPlayer], work=612*
203: 0x0D2A [0x45] LOAD_SCHEDULED_TASK: Load scheduler "s039" with entities [LocalPlayer, LocalPlayer], work=[612*, 0*]
204: 0x0D3B [0x6E] Unnamed NPC (ID: 17834326/0x01102156) uses emote 10*
205: 0x0D42 [0x99] Wait for Unnamed NPC (ID: 17834326/0x01102156) animation to complete
206: 0x0D47 [0x1C] WAIT(30* ticks)
207: 0x0D4A [0x03] Work_Zone[5] = 20781*
208: 0x0D4F [0x03] Work_Zone[6] = 4145*
209: 0x0D54 [0x2B] Unnamed NPC (ID: 17834326/0x01102156) [8594*]:
    → "...Oh, or $4! You can furrrnish me with $4 if you don't have $3!"
210: 0x0D5B [0x23] WAIT_FOR_DIALOG_INTERACTION
211: 0x0D5C [0x03] Work_Zone[3] = 2354*
212: 0x0D61 [0x2B] Unnamed NPC (ID: 17834326/0x01102156) [8595*]:
    → "How much easier can it get? Either of those for $6!"
213: 0x0D68 [0x23] WAIT_FOR_DIALOG_INTERACTION
214: 0x0D69 [0x52] END_LOAD_SCHEDULER: End scheduler "s039" with entities [LocalPlayer, LocalPlayer], work=612*
215: 0x0D78 [0x45] LOAD_SCHEDULED_TASK: Load scheduler "s037" with entities [LocalPlayer, LocalPlayer], work=[612*, 0*]
216: 0x0D89 [0x3C] SET_BIT_FLAG_CONDITIONAL(target_work_offset=Work_Zone[1], bit_index_work_offset=0*, condition_work_offset=1*)

SUBROUTINE_0D90:
217: 0x0D90 [0x01] GOTO 0x0CAD

SUBROUTINE_0F50:
218: 0x0F50 [0x01] GOTO 0x0CAD

SUBROUTINE_0F96:
219: 0x0F96 [0xBA] SET_ENTITY_POSITION(entity_id=Unnamed NPC (ID: 17834326/0x01102156), pos_x=-346.707*, pos_z=-298.554*, pos_y=-5.765*, direction=89.9°*)
220: 0x0FA3 [0xBA] SET_ENTITY_POSITION(entity_id=LocalPlayer, pos_x=-347.063*, pos_z=-300.751*, pos_y=-5.765*, direction=270.1°*)
221: 0x0FB0 [0x4A] Unnamed NPC (ID: 17834326/0x01102156) looks at LocalPlayer
222: 0x0FB9 [0x4A] LocalPlayer looks at Unnamed NPC (ID: 17834326/0x01102156)
223: 0x0FC2 [0x5C] MUSIC_CONTROL: Set Idle (Day) music to song 104*
224: 0x0FC6 [0x5C] MUSIC_CONTROL: Set Idle (Night) music to song 104*
225: 0x0FCA [0x5C] MUSIC_CONTROL: Set Combat (Solo) music to song 0*
226: 0x0FCE [0x5C] MUSIC_CONTROL: Set Combat (Party) music to song 0*
227: 0x0FD2 [0x9A] WAIT_MUSIC_SERVER()
228: 0x0FD3 [0x66] LOAD_EXT_SCHEDULER_MAIN: Load scheduler "tlk0" with entities [Unnamed NPC (ID: 17834326/0x01102156), Unnamed NPC (ID: 17834326/0x01102156)], work=199*
229: 0x0FE2 [0x80] LOAD_WAIT(entity=LocalPlayer)
230: 0x0FE7 [0x80] LOAD_WAIT(entity=Unnamed NPC (ID: 17834326/0x01102156))
231: 0x0FEC [0x45] LOAD_SCHEDULED_TASK: Load scheduler "s037" with entities [LocalPlayer, LocalPlayer], work=[612*, 0*]
232: 0x0FFD [0x1A] CALL_SUBROUTINE(address=0x0043)
233: 0x1000 [0x03] Work_Zone[2] = 2389*
234: 0x1005 [0x2B] Unnamed NPC (ID: 17834326/0x01102156) [8573*]:
    → "The best thing about prowling down here is the surrrplus of Adoulinian tomatoes. My fur's stained red with the juices of my countless victims, and my stomach feels almost as rrround as them."
235: 0x100C [0x23] WAIT_FOR_DIALOG_INTERACTION
236: 0x100D [0x66] LOAD_EXT_SCHEDULER_MAIN: Load scheduler "tlk1" with entities [Unnamed NPC (ID: 17834326/0x01102156), Unnamed NPC (ID: 17834326/0x01102156)], work=199*

SUBROUTINE_101C:
237: 0x101C [0x1A] CALL_SUBROUTINE(address=0x0064)
238: 0x101F [0x1C] WAIT(30* ticks)
239: 0x1022 [0x52] END_LOAD_SCHEDULER: End scheduler "s043" with entities [LocalPlayer, LocalPlayer], work=612*
240: 0x1031 [0x52] END_LOAD_SCHEDULER: End scheduler "s037" with entities [LocalPlayer, LocalPlayer], work=612*
241: 0x1040 [0x52] END_LOAD_SCHEDULER: End scheduler "s030" with entities [LocalPlayer, LocalPlayer], work=612*
242: 0x104F [0x5C] MUSIC_CONTROL: Set Idle (Day) music to song 61*
243: 0x1053 [0x5C] MUSIC_CONTROL: Set Idle (Night) music to song 61*
244: 0x1057 [0x5C] MUSIC_CONTROL: Set Combat (Solo) music to song 57*
245: 0x105B [0x5C] MUSIC_CONTROL: Set Combat (Party) music to song 57*
246: 0x105F [0x9A] WAIT_MUSIC_SERVER()
247: 0x1060 [0x5D] SET_MUSIC_VOLUME(volume=127*, fade_time=120*)
248: 0x1065 [0x1C] WAIT(15* ticks)
249: 0x1068 [0xAB] EventEntity->DespawnValue = 0* // Set despawn value
250: 0x106C [0x1C] WAIT(1* ticks)
251: 0x106F [0xAB] EventEntity->UnknownFlag = 0 // Disable unknown flag
252: 0x1071 [0x46] CAMERA_CONTROL: Restore default settings
253: 0x1073 [0x45] LOAD_SCHEDULED_TASK: Load scheduler "fdi2" with entities [LocalPlayer, LocalPlayer], work=[200*, 0*]
254: 0x1084 [0x21] END_EVENT
255: 0x1085 [0x00] END_REQSTACK()
```

#### Data or dead code:

```
# Dead code (unreachable instructions):
     0x0A1D [0x01] GOTO 0x0C6C
     0x0AEE [0x01] GOTO 0x0C29
     0x0BE6 [0x01] GOTO 0x0C29
     0x0C26 [0x01] GOTO 0x0C29
# Dead code (unreachable instructions):
     0x0C69 [0x01] GOTO 0x0C6C
# Dead code (unreachable instructions):
     0x0D93 [0x01] GOTO 0x0F96
# Dead code (unreachable instructions):
     0x0F53 [0x01] GOTO 0x0F96
     0x0F93 [0x01] GOTO 0x0F96
```

### Event 355

#### Metadata

| Field        | Value     |
|--------------|-----------|
| Entrypoint   | 0x1086    |
| Data Size    | 675 bytes |
| Instructions | 108       |

```
      00 01 02 03 04 05 06 07  08 09 0A 0B 0C 0D 0E 0F
      -- -- -- -- -- -- -- --  -- -- -- -- -- -- -- --
1080:                   03 05  00 03 10 03 03 00 09 10        ..........
1090: 42 1A 64 00 46 01 5C 00  2F 80 5C 01 2F 80 5C 02  B.d.F.\./.\./.\.
10A0: 01 80 5C 03 01 80 9A 38  08 80 27 10 56 21 10 01  ..\....8..'.V!..
10B0: 04 92 01 56 21 10 01 94  01 56 21 10 01 29 10 56  ...V!....V!..).V
10C0: 21 10 01 10 BA 56 21 10  01 28 80 29 80 2A 80 2B  !....V!..(.).*.+
10D0: 80 BA F0 FF FF 7F 2C 80  2D 80 2A 80 2E 80 4A 56  ......,.-.*...JV
10E0: 21 10 01 F0 FF FF 7F 4A  F0 FF FF 7F 56 21 10 01  !......J....V!..
10F0: 80 F0 FF FF 7F 80 56 21  10 01 45 30 80 F0 FF FF  ......V!..E0....
1100: 7F F0 FF FF 7F 73 30 34  35 01 80 1A 43 00 06 01  .....s045...C...
1110: 10 02 05 00 03 80 00 60  12 02 03 00 03 80 00 F9  .......`........
1120: 11 29 10 F0 FF FF 7F 26  1C 71 80 6E 56 21 10 01  .).....&.q.nV!..
1130: 61 80 99 56 21 10 01 1C  62 80 2B 56 21 10 01 72  a..V!...b.+V!..r
1140: 80 23 1C 34 80 7B 56 21  10 01 4B 56 21 10 01 73  .#.4.{V!..KV!..s
1150: 80 6F 70 52 30 80 F0 FF  FF 7F F0 FF FF 7F 73 30  .opR0.........s0
1160: 34 35 45 30 80 F0 FF FF  7F F0 FF FF 7F 73 30 34  45E0.........s04
1170: 36 01 80 9F 74 80 56 21  10 01 56 21 10 01 66 72  6...t.V!..V!..fr
1180: 73 74 01 80 1C 75 80 9F  74 80 56 21 10 01 56 21  st...u..t.V!..V!
1190: 10 01 6F 6B 65 78 01 80  1C 76 80 52 30 80 F0 FF  ..okex...v.R0...
11A0: FF 7F F0 FF FF 7F 73 30  34 36 45 30 80 F0 FF FF  ......s046E0....
11B0: 7F F0 FF FF 7F 73 30 34  37 01 80 1C 71 80 4A 56  .....s047...q.JV
11C0: 21 10 01 F0 FF FF 7F 6F  76 56 21 10 01 6E 56 21  !......ovV!..nV!
11D0: 10 01 4E 80 99 56 21 10  01 2B 56 21 10 01 77 80  ..N..V!..+V!..w.
11E0: 23 1C 04 80 66 6E 80 56  21 10 01 56 21 10 01 70  #...fn.V!..V!..p
11F0: 61 73 30 1C 39 80 01 5A  12 29 10 F0 FF FF 7F 26  as0.9..Z.).....&
1200: 1C 71 80 6E 56 21 10 01  78 80 99 56 21 10 01 1C  .q.nV!..x..V!...
1210: 62 80 2B 56 21 10 01 79  80 23 1C 04 80 52 30 80  b.+V!..y.#...R0.
1220: F0 FF FF 7F F0 FF FF 7F  73 30 34 35 45 30 80 F0  ........s045E0..
1230: FF FF 7F F0 FF FF 7F 73  30 34 37 01 80 2B 56 21  .......s047..+V!
1240: 10 01 7A 80 23 1C 06 80  66 6E 80 56 21 10 01 56  ..z.#...fn.V!..V
1250: 21 10 01 70 61 73 30 1C  39 80 05 01 10 01 D3 12  !..pas0.9.......
1260: 02 03 00 05 80 00 AA 12  6E 56 21 10 01 7B 80 99  ........nV!..{..
1270: 56 21 10 01 2B 56 21 10  01 7C 80 23 1C 04 80 52  V!..+V!..|.#...R
1280: 30 80 F0 FF FF 7F F0 FF  FF 7F 73 30 34 35 45 30  0.........s045E0
1290: 80 F0 FF FF 7F F0 FF FF  7F 73 30 34 38 01 80 2B  .........s048..+
12A0: 56 21 10 01 7D 80 23 01  D3 12 66 47 80 56 21 10  V!..}.#...fG.V!.
12B0: 01 56 21 10 01 74 68 6B  31 2B 56 21 10 01 7E 80  .V!..thk1+V!..~.
12C0: 23 1C 04 80 52 30 80 F0  FF FF 7F F0 FF FF 7F 73  #...R0.........s
12D0: 30 34 35 1A 64 00 1C 06  80 52 30 80 F0 FF FF 7F  045.d....R0.....
12E0: F0 FF FF 7F 73 30 34 37  52 30 80 F0 FF FF 7F F0  ....s047R0......
12F0: FF FF 7F 73 30 34 38 5C  00 23 80 5C 01 23 80 5C  ...s048\.#.\.#.\
1300: 02 24 80 5C 03 24 80 9A  1C 25 80 AB 11 01 80 1C  .$.\.$...%......
1310: 03 80 AB 0A 46 00 45 00  80 F0 FF FF 7F F0 FF FF  ....F.E.........
1320: 7F 66 64 69 32 01 80 21  00                       .fdi2..!.       
```

#### Opcodes

```
  0: 0x1086 [0x03] ExtData[1]->WorkLocal[5] = Work_Zone[3]
  1: 0x108B [0x03] ExtData[1]->WorkLocal[3] = Work_Zone[9]
  2: 0x1090 [0x42] SET_CLI_EVENT_CANCEL_DATA()
  3: 0x1091 [0x1A] CALL_SUBROUTINE(address=0x0064)
  4: 0x1094 [0x46] CAMERA_CONTROL: Disable user control
  5: 0x1096 [0x5C] MUSIC_CONTROL: Set Idle (Day) music to song 104*
  6: 0x109A [0x5C] MUSIC_CONTROL: Set Idle (Night) music to song 104*
  7: 0x109E [0x5C] MUSIC_CONTROL: Set Combat (Solo) music to song 0*
  8: 0x10A2 [0x5C] MUSIC_CONTROL: Set Combat (Party) music to song 0*
  9: 0x10A6 [0x9A] WAIT_MUSIC_SERVER()
 10: 0x10A7 [0x38] SET_CLIENT_EVENT_MODE(mode=19*)
 11: 0x10AA [0x27] REQ_SET(priority=0x10, entity_id=Unnamed NPC (ID: 17834326/0x01102156), tag_num=0x04)
 12: 0x10B1 [0x92] Unnamed NPC (ID: 17834326/0x01102156)->Render.Flags3 ^= 0x01
 13: 0x10B7 [0x94] Unnamed NPC (ID: 17834326/0x01102156)->Render.Flags3 ^= 0x01
 14: 0x10BD [0x29] REQ_SET_WAIT(priority=0x10, entity_id=Unnamed NPC (ID: 17834326/0x01102156), tag_num=0x10)
 15: 0x10C4 [0xBA] SET_ENTITY_POSITION(entity_id=Unnamed NPC (ID: 17834326/0x01102156), pos_x=-346.707*, pos_z=-298.554*, pos_y=-5.765*, direction=89.9°*)
 16: 0x10D1 [0xBA] SET_ENTITY_POSITION(entity_id=LocalPlayer, pos_x=-347.063*, pos_z=-300.751*, pos_y=-5.765*, direction=270.1°*)
 17: 0x10DE [0x4A] Unnamed NPC (ID: 17834326/0x01102156) looks at LocalPlayer
 18: 0x10E7 [0x4A] LocalPlayer looks at Unnamed NPC (ID: 17834326/0x01102156)
 19: 0x10F0 [0x80] LOAD_WAIT(entity=LocalPlayer)
 20: 0x10F5 [0x80] LOAD_WAIT(entity=Unnamed NPC (ID: 17834326/0x01102156))
 21: 0x10FA [0x45] LOAD_SCHEDULED_TASK: Load scheduler "s045" with entities [LocalPlayer, LocalPlayer], work=[612*, 0*]
 22: 0x110B [0x1A] CALL_SUBROUTINE(address=0x0043)
 23: 0x110E [0x06] Work_Zone[1] = 0
 24: 0x1111 [0x02] IF !(ExtData[1]->WorkLocal[5] == 1*) GOTO 0x1260
 25: 0x1119 [0x02] IF !(ExtData[1]->WorkLocal[3] == 1*) GOTO 0x11F9
 26: 0x1121 [0x29] REQ_SET_WAIT(priority=0x10, entity_id=LocalPlayer, tag_num=0x26)
 27: 0x1128 [0x1C] WAIT(60* ticks)
 28: 0x112B [0x6E] Unnamed NPC (ID: 17834326/0x01102156) uses emote 7*
 29: 0x1132 [0x99] Wait for Unnamed NPC (ID: 17834326/0x01102156) animation to complete
 30: 0x1137 [0x1C] WAIT(35* ticks)
 31: 0x113A [0x2B] Unnamed NPC (ID: 17834326/0x01102156) [8603*]:
    → "Yesty once told me, "Never give a sword to a man who can't dancey-wance," so let me purrrform a step or two to prove you can trust me."
 32: 0x1141 [0x23] WAIT_FOR_DIALOG_INTERACTION
 33: 0x1142 [0x1C] WAIT(75* ticks)
 34: 0x1145 [0x7B] Unnamed NPC (ID: 17834326/0x01102156) stops talking
 35: 0x114A [0x4B] UPDATE_ENTITY_YAW(entity=Unnamed NPC (ID: 17834326/0x01102156), yaw=8.2°*)
 36: 0x1151 [0x6F] WAIT_FRAME_DELAY: Yield until WaitTime reaches zero
 37: 0x1152 [0x70] WAIT_ENTITY_RENDER_FLAG: Wait while EventEntity->Render.Flags3 bit 2 is set (cancel turn if not)
 38: 0x1153 [0x52] END_LOAD_SCHEDULER: End scheduler "s045" with entities [LocalPlayer, LocalPlayer], work=612*
 39: 0x1162 [0x45] LOAD_SCHEDULED_TASK: Load scheduler "s046" with entities [LocalPlayer, LocalPlayer], work=[612*, 0*]
 40: 0x1173 [0x9F] LOAD_SCHEDULED_TASK_ALT: Load scheduler "frst" with entities [Unnamed NPC (ID: 17834326/0x01102156), Unnamed NPC (ID: 17834326/0x01102156)], work=[192*, 0*]
 41: 0x1184 [0x1C] WAIT(150* ticks)
 42: 0x1187 [0x9F] LOAD_SCHEDULED_TASK_ALT: Load scheduler "okex" with entities [Unnamed NPC (ID: 17834326/0x01102156), Unnamed NPC (ID: 17834326/0x01102156)], work=[192*, 0*]
 43: 0x1198 [0x1C] WAIT(180* ticks)
 44: 0x119B [0x52] END_LOAD_SCHEDULER: End scheduler "s046" with entities [LocalPlayer, LocalPlayer], work=612*
 45: 0x11AA [0x45] LOAD_SCHEDULED_TASK: Load scheduler "s047" with entities [LocalPlayer, LocalPlayer], work=[612*, 0*]
 46: 0x11BB [0x1C] WAIT(60* ticks)
 47: 0x11BE [0x4A] Unnamed NPC (ID: 17834326/0x01102156) looks at LocalPlayer
 48: 0x11C7 [0x6F] WAIT_FRAME_DELAY: Yield until WaitTime reaches zero
 49: 0x11C8 [0x76] CHECK_ENTITY_RENDER_FLAGS: Wait until Unnamed NPC (ID: 17834326/0x01102156) Render.Flags0 and Render.Flags3 conditions are met
 50: 0x11CD [0x6E] Unnamed NPC (ID: 17834326/0x01102156) uses emote 36*
 51: 0x11D4 [0x99] Wait for Unnamed NPC (ID: 17834326/0x01102156) animation to complete
 52: 0x11D9 [0x2B] Unnamed NPC (ID: 17834326/0x01102156) [8604*]:
    → "Ka-boom! I hope my glorrrious moves didn't blind you."
 53: 0x11E0 [0x23] WAIT_FOR_DIALOG_INTERACTION
 54: 0x11E1 [0x1C] WAIT(45* ticks)
 55: 0x11E4 [0x66] LOAD_EXT_SCHEDULER_MAIN: Load scheduler "pas0" with entities [Unnamed NPC (ID: 17834326/0x01102156), Unnamed NPC (ID: 17834326/0x01102156)], work=127*
 56: 0x11F3 [0x1C] WAIT(100* ticks)
 57: 0x11F6 [0x01] GOTO 0x125A
 58: 0x11F9 [0x29] REQ_SET_WAIT(priority=0x10, entity_id=LocalPlayer, tag_num=0x26)
 59: 0x1200 [0x1C] WAIT(60* ticks)
 60: 0x1203 [0x6E] Unnamed NPC (ID: 17834326/0x01102156) uses emote 14*
 61: 0x120A [0x99] Wait for Unnamed NPC (ID: 17834326/0x01102156) animation to complete
 62: 0x120F [0x1C] WAIT(35* ticks)
 63: 0x1212 [0x2B] Unnamed NPC (ID: 17834326/0x01102156) [8605*]:
    → "Yes, this will do nicely. Now, let the cerrremony commence!"
 64: 0x1219 [0x23] WAIT_FOR_DIALOG_INTERACTION
 65: 0x121A [0x1C] WAIT(45* ticks)
 66: 0x121D [0x52] END_LOAD_SCHEDULER: End scheduler "s045" with entities [LocalPlayer, LocalPlayer], work=612*
 67: 0x122C [0x45] LOAD_SCHEDULED_TASK: Load scheduler "s047" with entities [LocalPlayer, LocalPlayer], work=[612*, 0*]
 68: 0x123D [0x2B] Unnamed NPC (ID: 17834326/0x01102156) [8606*]:
    → "Here you go, like I prrromised. I think this good deed deserves a pet on the head. Don't rrrub me the wrong way, though, or...you'll regret it!"
 69: 0x1244 [0x23] WAIT_FOR_DIALOG_INTERACTION
 70: 0x1245 [0x1C] WAIT(30* ticks)
 71: 0x1248 [0x66] LOAD_EXT_SCHEDULER_MAIN: Load scheduler "pas0" with entities [Unnamed NPC (ID: 17834326/0x01102156), Unnamed NPC (ID: 17834326/0x01102156)], work=127*
 72: 0x1257 [0x1C] WAIT(100* ticks)

SUBROUTINE_125A:
 73: 0x125A [0x05] Work_Zone[1] = 1
 74: 0x125D [0x01] GOTO 0x12D3
 75: 0x1260 [0x02] IF !(ExtData[1]->WorkLocal[3] == 2*) GOTO 0x12AA
 76: 0x1268 [0x6E] Unnamed NPC (ID: 17834326/0x01102156) uses emote 21*
 77: 0x126F [0x99] Wait for Unnamed NPC (ID: 17834326/0x01102156) animation to complete
 78: 0x1274 [0x2B] Unnamed NPC (ID: 17834326/0x01102156) [8608*]:
    → "How nice of you to scrrrounge all these up for me!"
 79: 0x127B [0x23] WAIT_FOR_DIALOG_INTERACTION
 80: 0x127C [0x1C] WAIT(45* ticks)
 81: 0x127F [0x52] END_LOAD_SCHEDULER: End scheduler "s045" with entities [LocalPlayer, LocalPlayer], work=612*
 82: 0x128E [0x45] LOAD_SCHEDULED_TASK: Load scheduler "s048" with entities [LocalPlayer, LocalPlayer], work=[612*, 0*]
 83: 0x129F [0x2B] Unnamed NPC (ID: 17834326/0x01102156) [8609*]:
    → "I only need one, though. Maybe you should purrrk your ears up and listen better next time."
 84: 0x12A6 [0x23] WAIT_FOR_DIALOG_INTERACTION
 85: 0x12A7 [0x01] GOTO 0x12D3
 86: 0x12AA [0x66] LOAD_EXT_SCHEDULER_MAIN: Load scheduler "thk1" with entities [Unnamed NPC (ID: 17834326/0x01102156), Unnamed NPC (ID: 17834326/0x01102156)], work=59*
 87: 0x12B9 [0x2B] Unnamed NPC (ID: 17834326/0x01102156) [8607*]:
    → "What's this drrreg of an object? I can't do anything with it whatsoever."
 88: 0x12C0 [0x23] WAIT_FOR_DIALOG_INTERACTION
 89: 0x12C1 [0x1C] WAIT(45* ticks)
 90: 0x12C4 [0x52] END_LOAD_SCHEDULER: End scheduler "s045" with entities [LocalPlayer, LocalPlayer], work=612*

SUBROUTINE_12D3:
 91: 0x12D3 [0x1A] CALL_SUBROUTINE(address=0x0064)
 92: 0x12D6 [0x1C] WAIT(30* ticks)
 93: 0x12D9 [0x52] END_LOAD_SCHEDULER: End scheduler "s047" with entities [LocalPlayer, LocalPlayer], work=612*
 94: 0x12E8 [0x52] END_LOAD_SCHEDULER: End scheduler "s048" with entities [LocalPlayer, LocalPlayer], work=612*
 95: 0x12F7 [0x5C] MUSIC_CONTROL: Set Idle (Day) music to song 61*
 96: 0x12FB [0x5C] MUSIC_CONTROL: Set Idle (Night) music to song 61*
 97: 0x12FF [0x5C] MUSIC_CONTROL: Set Combat (Solo) music to song 57*
 98: 0x1303 [0x5C] MUSIC_CONTROL: Set Combat (Party) music to song 57*
 99: 0x1307 [0x9A] WAIT_MUSIC_SERVER()
100: 0x1308 [0x1C] WAIT(15* ticks)
101: 0x130B [0xAB] EventEntity->DespawnValue = 0* // Set despawn value
102: 0x130F [0x1C] WAIT(1* ticks)
103: 0x1312 [0xAB] EventEntity->UnknownFlag = 0 // Disable unknown flag
104: 0x1314 [0x46] CAMERA_CONTROL: Restore default settings
105: 0x1316 [0x45] LOAD_SCHEDULED_TASK: Load scheduler "fdi2" with entities [LocalPlayer, LocalPlayer], work=[200*, 0*]
106: 0x1327 [0x21] END_EVENT
107: 0x1328 [0x00] END_REQSTACK()
```

### Event 346

#### Metadata

| Field        | Value      |
|--------------|------------|
| Entrypoint   | 0x1329     |
| Data Size    | 2546 bytes |
| Instructions | 210        |

```
      00 01 02 03 04 05 06 07  08 09 0A 0B 0C 0D 0E 0F
      -- -- -- -- -- -- -- --  -- -- -- -- -- -- -- --
1320:                             03 0B 00 06 10 03 0C           .......
1330: 00 07 10 03 0D 00 08 10  03 04 00 02 10 03 03 00  ................
1340: 7F 80 42 1A 64 00 46 01  5C 00 2F 80 5C 01 2F 80  ..B.d.F.\./.\./.
1350: 5C 02 01 80 5C 03 01 80  9A 38 08 80 27 10 56 21  \...\....8..'.V!
1360: 10 01 04 92 01 56 21 10  01 94 01 56 21 10 01 29  .....V!....V!..)
1370: 10 56 21 10 01 10 02 04  00 03 80 04 81 13 01 84  .V!.............
1380: 13 01 40 14 BA 56 21 10  01 28 80 29 80 2A 80 2B  ..@..V!..(.).*.+
1390: 80 BA F0 FF FF 7F 2C 80  2D 80 2A 80 2E 80 4A 56  ......,.-.*...JV
13A0: 21 10 01 F0 FF FF 7F 4A  F0 FF FF 7F 56 21 10 01  !......J....V!..
13B0: 80 F0 FF FF 7F 80 56 21  10 01 02 04 00 05 80 04  ......V!........
13C0: D6 13 45 30 80 F0 FF FF  7F F0 FF FF 7F 73 30 36  ..E0.........s06
13D0: 30 01 80 01 E7 13 45 30  80 F0 FF FF 7F F0 FF FF  0.....E0........
13E0: 7F 73 30 35 37 01 80 1A  43 00 02 04 00 05 80 04  .s057...C.......
13F0: 2D 14 02 0B 00 03 80 00  01 14 3C 03 00 01 80 03  -.........<.....
1400: 80 02 0C 00 03 80 00 10  14 3C 03 00 03 80 03 80  .........<......
1410: 02 0D 00 03 80 00 1F 14  3C 03 00 05 80 03 80 2B  ........<......+
1420: 56 21 10 01 80 80 23 01  2A 18 01 40 14 02 04 00  V!....#.*..@....
1430: 03 80 00 40 14 2B 56 21  10 01 81 80 23 01 72 16  ...@.+V!....#.r.
1440: BA 56 21 10 01 31 80 32  80 33 80 34 80 BA F0 FF  .V!..1.2.3.4....
1450: FF 7F 2C 80 2D 80 2A 80  2E 80 4A 56 21 10 01 F0  ..,.-.*...JV!...
1460: FF FF 7F 80 F0 FF FF 7F  80 56 21 10 01 27 10 56  .........V!..'.V
1470: 21 10 01 11 45 30 80 F0  FF FF 7F F0 FF FF 7F 73  !...E0.........s
1480: 30 34 39 01 80 1A 43 00  1C 82 80 52 30 80 F0 FF  049...C....R0...
1490: FF 7F F0 FF FF 7F 73 30  34 39 45 30 80 F0 FF FF  ......s049E0....
14A0: 7F F0 FF FF 7F 73 30 35  30 01 80 4A F0 FF FF 7F  .....s050..J....
14B0: 56 21 10 01 6E 56 21 10  01 42 80 99 56 21 10 01  V!..nV!..B..V!..
14C0: 1C 83 80 52 30 80 F0 FF  FF 7F F0 FF FF 7F 73 30  ...R0.........s0
14D0: 35 30 45 30 80 F0 FF FF  7F F0 FF FF 7F 73 30 35  50E0.........s05
14E0: 31 01 80 1C 62 80 2B 56  21 10 01 41 80 23 66 47  1...b.+V!..A.#fG
14F0: 80 56 21 10 01 56 21 10  01 74 68 6B 31 48 84 80  .V!..V!..thk1H..
1500: 1C 04 80 52 30 80 F0 FF  FF 7F F0 FF FF 7F 73 30  ...R0.........s0
1510: 35 31 1A B2 29 02 01 00  03 80 00 31 15 45 30 80  51..)......1.E0.
1520: F0 FF FF 7F F0 FF FF 7F  73 30 35 32 01 80 01 5E  ........s052...^
1530: 15 02 02 00 03 80 00 4D  15 45 30 80 F0 FF FF 7F  .......M.E0.....
1540: F0 FF FF 7F 73 30 35 33  01 80 01 5E 15 45 30 80  ....s053...^.E0.
1550: F0 FF FF 7F F0 FF FF 7F  73 31 32 31 01 80 1C 85  ........s121....
1560: 80 66 47 80 56 21 10 01  56 21 10 01 74 68 6B 32  .fG.V!..V!..thk2
1570: 48 86 80 55 30 80 F0 FF  FF 7F F0 FF FF 7F 73 30  H..U0.........s0
1580: 35 33 55 30 80 F0 FF FF  7F F0 FF FF 7F 73 30 35  53U0.........s05
1590: 32 55 30 80 F0 FF FF 7F  F0 FF FF 7F 73 31 32 31  2U0.........s121
15A0: 45 30 80 F0 FF FF 7F F0  FF FF 7F 73 30 35 34 01  E0.........s054.
15B0: 80 1C 06 80 03 02 10 44  80 2B 56 21 10 01 87 80  .......D.+V!....
15C0: 23 52 30 80 F0 FF FF 7F  F0 FF FF 7F 73 30 35 34  #R0.........s054
15D0: 45 30 80 F0 FF FF 7F F0  FF FF 7F 73 30 35 35 01  E0.........s055.
15E0: 80 66 47 80 56 21 10 01  56 21 10 01 74 6C 6B 30  .fG.V!..V!..tlk0
15F0: 2B 56 21 10 01 88 80 23  1C 16 80 66 47 80 56 21  +V!....#...fG.V!
1600: 10 01 56 21 10 01 74 6C  6B 31 2B 56 21 10 01 89  ..V!..tlk1+V!...
1610: 80 23 1C 11 80 6E 56 21  10 01 61 80 99 56 21 10  .#...nV!..a..V!.
1620: 01 1C 46 80 52 30 80 F0  FF FF 7F F0 FF FF 7F 73  ..F.R0.........s
1630: 30 35 35 45 30 80 F0 FF  FF 7F F0 FF FF 7F 73 30  055E0.........s0
1640: 35 36 01 80 1C 25 80 2B  56 21 10 01 8A 80 23 1C  56...%.+V!....#.
1650: 62 80 52 30 80 F0 FF FF  7F F0 FF FF 7F 73 30 35  b.R0.........s05
1660: 36 45 30 80 F0 FF FF 7F  F0 FF FF 7F 73 30 35 37  6E0.........s057
1670: 01 80 06 01 10 24 8B 80  01 80 01 80 25 02 00 10  .....$......%...
1680: 01 80 00 BF 16 52 30 80  F0 FF FF 7F F0 FF FF 7F  .....R0.........
1690: 73 30 35 37 45 30 80 F0  FF FF 7F F0 FF FF 7F 73  s057E0.........s
16A0: 30 35 39 01 80 6E 56 21  10 01 8C 80 99 56 21 10  059..nV!.....V!.
16B0: 01 2B 56 21 10 01 8D 80  23 1C 71 80 01 02 18 02  .+V!....#.q.....
16C0: 00 10 03 80 00 A6 17 6E  56 21 10 01 49 80 99 56  .......nV!..I..V
16D0: 21 10 01 1C 46 80 52 30  80 F0 FF FF 7F F0 FF FF  !...F.R0........
16E0: 7F 73 30 35 37 45 30 80  F0 FF FF 7F F0 FF FF 7F  .s057E0.........
16F0: 73 30 36 31 01 80 2B 56  21 10 01 8E 80 23 1C 06  s061..+V!....#..
1700: 80 52 30 80 F0 FF FF 7F  F0 FF FF 7F 73 30 36 31  .R0.........s061
1710: 45 30 80 F0 FF FF 7F F0  FF FF 7F 73 30 36 32 01  E0.........s062.
1720: 80 66 56 80 56 21 10 01  56 21 10 01 74 6C 6B 30  .fV.V!..V!..tlk0
1730: 1C 06 80 2B 56 21 10 01  8F 80 23 2B 56 21 10 01  ...+V!....#+V!..
1740: 90 80 23 52 30 80 F0 FF  FF 7F F0 FF FF 7F 73 30  ..#R0.........s0
1750: 36 32 45 30 80 F0 FF FF  7F F0 FF FF 7F 73 30 36  62E0.........s06
1760: 33 01 80 66 56 80 56 21  10 01 56 21 10 01 74 6C  3..fV.V!..V!..tl
1770: 6B 31 1C 06 80 2B 56 21  10 01 91 80 23 1C 06 80  k1...+V!....#...
1780: 52 30 80 F0 FF FF 7F F0  FF FF 7F 73 30 36 33 45  R0.........s063E
1790: 30 80 F0 FF FF 7F F0 FF  FF 7F 73 30 35 37 01 80  0.........s057..
17A0: 01 72 16 01 02 18 02 00  10 05 80 00 02 18 6E F0  .r............n.
17B0: FF FF 7F 1F 80 99 F0 FF  FF 7F 1C 46 80 52 30 80  ...........F.R0.
17C0: F0 FF FF 7F F0 FF FF 7F  73 30 35 37 45 30 80 F0  ........s057E0..
17D0: FF FF 7F F0 FF FF 7F 73  30 35 38 01 80 03 01 10  .......s058.....
17E0: 03 80 2B 56 21 10 01 92  80 23 1C 25 80 6E 56 21  ..+V!....#.%.nV!
17F0: 10 01 1E 80 99 56 21 10  01 1C 46 80 01 B6 1C 01  .....V!...F.....
1800: 02 18 52 30 80 F0 FF FF  7F F0 FF FF 7F 73 30 35  ..R0.........s05
1810: 39 45 30 80 F0 FF FF 7F  F0 FF FF 7F 73 30 36 30  9E0.........s060
1820: 01 80 2B 56 21 10 01 93  80 23 03 02 10 94 80 03  ..+V!....#......
1830: 03 10 95 80 03 04 10 96  80 03 05 10 97 80 06 01  ................
1840: 10 24 98 80 01 80 03 00  25 02 00 10 01 80 00 52  .$......%......R
1850: 19 52 30 80 F0 FF FF 7F  F0 FF FF 7F 73 30 36 30  .R0.........s060
1860: 45 30 80 F0 FF FF 7F F0  FF FF 7F 73 30 36 38 01  E0.........s068.
1870: 80 66 47 80 56 21 10 01  56 21 10 01 74 68 6B 31  .fG.V!..V!..thk1
1880: 1C 11 80 93 94 80 03 06  10 01 80 2B 56 21 10 01  ...........+V!..
1890: 99 80 23 2B 56 21 10 01  9A 80 23 93 01 80 66 47  ..#+V!....#...fG
18A0: 80 56 21 10 01 56 21 10  01 74 68 6B 32 1C 46 80  .V!..V!..thk2.F.
18B0: 52 30 80 F0 FF FF 7F F0  FF FF 7F 73 30 36 38 45  R0.........s068E
18C0: 30 80 F0 FF FF 7F F0 FF  FF 7F 73 30 36 39 01 80  0.........s069..
18D0: 1C 62 80 66 47 80 56 21  10 01 56 21 10 01 74 6C  .b.fG.V!..V!..tl
18E0: 6B 30 03 07 10 9B 80 03  08 10 9C 80 03 09 10 9D  k0..............
18F0: 80 2B 56 21 10 01 9E 80  23 03 05 10 97 80 2B 56  .+V!....#.....+V
1900: 21 10 01 9F 80 23 1C 62  80 66 47 80 56 21 10 01  !....#.b.fG.V!..
1910: 56 21 10 01 74 6C 6B 31  1C 46 80 52 30 80 F0 FF  V!..tlk1.F.R0...
1920: FF 7F F0 FF FF 7F 73 30  36 39 3D 03 00 1C 80 03  ......s069=.....
1930: 80 3D 03 00 1D 80 03 80  45 30 80 F0 FF FF 7F F0  .=......E0......
1940: FF FF 7F 73 30 36 30 01  80 1C 06 80 01 2A 18 01  ...s060......*..
1950: B1 1C 02 00 10 03 80 00  60 1A 52 30 80 F0 FF FF  ........`.R0....
1960: 7F F0 FF FF 7F 73 30 36  30 45 30 80 F0 FF FF 7F  .....s060E0.....
1970: F0 FF FF 7F 73 30 36 38  01 80 66 47 80 56 21 10  ....s068..fG.V!.
1980: 01 56 21 10 01 74 68 6B  31 1C 11 80 93 95 80 03  .V!..thk1.......
1990: 06 10 03 80 2B 56 21 10  01 99 80 23 2B 56 21 10  ....+V!....#+V!.
19A0: 01 9A 80 23 93 01 80 66  47 80 56 21 10 01 56 21  ...#...fG.V!..V!
19B0: 10 01 74 68 6B 32 1C 46  80 52 30 80 F0 FF FF 7F  ..thk2.F.R0.....
19C0: F0 FF FF 7F 73 30 36 38  45 30 80 F0 FF FF 7F F0  ....s068E0......
19D0: FF FF 7F 73 30 36 39 01  80 1C 62 80 66 47 80 56  ...s069...b.fG.V
19E0: 21 10 01 56 21 10 01 74  6C 6B 30 03 07 10 A0 80  !..V!..tlk0.....
19F0: 03 08 10 A1 80 03 09 10  9C 80 03 00 17 A2 80 2B  ...............+
1A00: 56 21 10 01 A3 80 23 03  05 10 97 80 2B 56 21 10  V!....#.....+V!.
1A10: 01 9F 80 23 1C 62 80 66  47 80 56 21 10 01 56 21  ...#.b.fG.V!..V!
1A20: 10 01 74 6C 6B 31 1C 46  80 52 30 80 F0 FF FF 7F  ..tlk1.F.R0.....
1A30: F0 FF FF 7F 73 30 36 39  3D 03 00 1C 80 03 80 3D  ....s069=......=
1A40: 03 00 1D 80 03 80 45 30  80 F0 FF FF 7F F0 FF FF  ......E0........
1A50: 7F 73 30 36 30 01 80 1C  06 80 01 2A 18 01 B1 1C  .s060......*....
1A60: 02 00 10 05 80 00 6E 1B  52 30 80 F0 FF FF 7F F0  ......n.R0......
1A70: FF FF 7F 73 30 36 30 45  30 80 F0 FF FF 7F F0 FF  ...s060E0.......
1A80: FF 7F 73 30 36 38 01 80  66 47 80 56 21 10 01 56  ..s068..fG.V!..V
1A90: 21 10 01 74 68 6B 31 1C  11 80 93 96 80 03 06 10  !..thk1.........
1AA0: 05 80 2B 56 21 10 01 99  80 23 2B 56 21 10 01 9A  ..+V!....#+V!...
1AB0: 80 23 93 01 80 66 47 80  56 21 10 01 56 21 10 01  .#...fG.V!..V!..
1AC0: 74 68 6B 32 1C 46 80 52  30 80 F0 FF FF 7F F0 FF  thk2.F.R0.......
1AD0: FF 7F 73 30 36 38 45 30  80 F0 FF FF 7F F0 FF FF  ..s068E0........
1AE0: 7F 73 30 36 39 01 80 1C  62 80 66 47 80 56 21 10  .s069...b.fG.V!.
1AF0: 01 56 21 10 01 74 6C 6B  30 03 07 10 A0 80 03 08  .V!..tlk0.......
1B00: 10 A1 80 03 09 10 A4 80  03 00 17 A5 80 2B 56 21  .............+V!
1B10: 10 01 A3 80 23 03 05 10  97 80 2B 56 21 10 01 9F  ....#.....+V!...
1B20: 80 23 1C 62 80 66 47 80  56 21 10 01 56 21 10 01  .#.b.fG.V!..V!..
1B30: 74 6C 6B 31 1C 46 80 52  30 80 F0 FF FF 7F F0 FF  tlk1.F.R0.......
1B40: FF 7F 73 30 36 39 3D 03  00 1C 80 03 80 3D 03 00  ..s069=......=..
1B50: 1D 80 03 80 45 30 80 F0  FF FF 7F F0 FF FF 7F 73  ....E0.........s
1B60: 30 36 30 01 80 1C 06 80  01 2A 18 01 B1 1C 02 00  060......*......
1B70: 10 1C 80 00 DE 1B 6E 56  21 10 01 7B 80 99 56 21  ......nV!..{..V!
1B80: 10 01 1C 46 80 52 30 80  F0 FF FF 7F F0 FF FF 7F  ...F.R0.........
1B90: 73 30 36 30 45 30 80 F0  FF FF 7F F0 FF FF 7F 73  s060E0.........s
1BA0: 30 36 37 01 80 2B 56 21  10 01 A6 80 23 2B 56 21  067..+V!....#+V!
1BB0: 10 01 A7 80 23 52 30 80  F0 FF FF 7F F0 FF FF 7F  ....#R0.........
1BC0: 73 30 36 37 45 30 80 F0  FF FF 7F F0 FF FF 7F 73  s067E0.........s
1BD0: 30 36 30 01 80 1C 06 80  01 2A 18 01 B1 1C 02 00  060......*......
1BE0: 10 1D 80 00 6C 1C 52 30  80 F0 FF FF 7F F0 FF FF  ....l.R0........
1BF0: 7F 73 30 36 30 45 30 80  F0 FF FF 7F F0 FF FF 7F  .s060E0.........
1C00: 73 30 36 36 01 80 2B 56  21 10 01 A8 80 23 1C 11  s066..+V!....#..
1C10: 80 6E 56 21 10 01 A9 80  99 56 21 10 01 1C 06 80  .nV!.....V!.....
1C20: 2B 56 21 10 01 AA 80 23  52 30 80 F0 FF FF 7F F0  +V!....#R0......
1C30: FF FF 7F 73 30 36 36 45  30 80 F0 FF FF 7F F0 FF  ...s066E0.......
1C40: FF 7F 73 30 36 34 01 80  1C 11 80 6E 56 21 10 01  ..s064.....nV!..
1C50: 12 80 99 56 21 10 01 1C  11 80 6E F0 FF FF 7F 61  ...V!.....n....a
1C60: 80 99 F0 FF FF 7F 1C AB  80 01 B1 1C 02 00 10 1E  ................
1C70: 80 00 B1 1C 52 30 80 F0  FF FF 7F F0 FF FF 7F 73  ....R0.........s
1C80: 30 36 30 45 30 80 F0 FF  FF 7F F0 FF FF 7F 73 30  060E0.........s0
1C90: 36 35 01 80 1C 11 80 6E  56 21 10 01 61 80 99 56  65.....nV!..a..V
1CA0: 21 10 01 1C 06 80 2B 56  21 10 01 AC 80 23 01 B1  !.....+V!....#..
1CB0: 1C 03 01 10 05 80 1A 64  00 1C 06 80 52 30 80 F0  .......d....R0..
1CC0: FF FF 7F F0 FF FF 7F 73  30 36 34 52 30 80 F0 FF  .......s064R0...
1CD0: FF 7F F0 FF FF 7F 73 30  36 35 52 30 80 F0 FF FF  ......s065R0....
1CE0: 7F F0 FF FF 7F 73 30 35  38 5C 00 23 80 5C 01 23  .....s058\.#.\.#
1CF0: 80 5C 02 24 80 5C 03 24  80 9A 1C 25 80 AB 11 01  .\.$.\.$...%....
1D00: 80 1C 03 80 AB 0A 46 00  45 00 80 F0 FF FF 7F F0  ......F.E.......
1D10: FF FF 7F 66 64 69 32 01  80 21 00                 ...fdi2..!.     
```

#### Opcodes

```
  0: 0x1329 [0x03] ExtData[1]->WorkLocal[11] = Work_Zone[6]
  1: 0x132E [0x03] ExtData[1]->WorkLocal[12] = Work_Zone[7]
  2: 0x1333 [0x03] ExtData[1]->WorkLocal[13] = Work_Zone[8]
  3: 0x1338 [0x03] ExtData[1]->WorkLocal[4] = Work_Zone[2]
  4: 0x133D [0x03] ExtData[1]->WorkLocal[3] = 24*
  5: 0x1342 [0x42] SET_CLI_EVENT_CANCEL_DATA()
  6: 0x1343 [0x1A] CALL_SUBROUTINE(address=0x0064)
  7: 0x1346 [0x46] CAMERA_CONTROL: Disable user control
  8: 0x1348 [0x5C] MUSIC_CONTROL: Set Idle (Day) music to song 104*
  9: 0x134C [0x5C] MUSIC_CONTROL: Set Idle (Night) music to song 104*
 10: 0x1350 [0x5C] MUSIC_CONTROL: Set Combat (Solo) music to song 0*
 11: 0x1354 [0x5C] MUSIC_CONTROL: Set Combat (Party) music to song 0*
 12: 0x1358 [0x9A] WAIT_MUSIC_SERVER()
 13: 0x1359 [0x38] SET_CLIENT_EVENT_MODE(mode=19*)
 14: 0x135C [0x27] REQ_SET(priority=0x10, entity_id=Unnamed NPC (ID: 17834326/0x01102156), tag_num=0x04)
 15: 0x1363 [0x92] Unnamed NPC (ID: 17834326/0x01102156)->Render.Flags3 ^= 0x01
 16: 0x1369 [0x94] Unnamed NPC (ID: 17834326/0x01102156)->Render.Flags3 ^= 0x01
 17: 0x136F [0x29] REQ_SET_WAIT(priority=0x10, entity_id=Unnamed NPC (ID: 17834326/0x01102156), tag_num=0x10)
 18: 0x1376 [0x02] IF !(ExtData[1]->WorkLocal[4] < 1*) GOTO 0x1381
 19: 0x137E [0x01] GOTO 0x1384
 20: 0x1381 [0x01] GOTO 0x1440

SUBROUTINE_1384:
 21: 0x1384 [0xBA] SET_ENTITY_POSITION(entity_id=Unnamed NPC (ID: 17834326/0x01102156), pos_x=-346.707*, pos_z=-298.554*, pos_y=-5.765*, direction=89.9°*)
 22: 0x1391 [0xBA] SET_ENTITY_POSITION(entity_id=LocalPlayer, pos_x=-347.063*, pos_z=-300.751*, pos_y=-5.765*, direction=270.1°*)
 23: 0x139E [0x4A] Unnamed NPC (ID: 17834326/0x01102156) looks at LocalPlayer
 24: 0x13A7 [0x4A] LocalPlayer looks at Unnamed NPC (ID: 17834326/0x01102156)
 25: 0x13B0 [0x80] LOAD_WAIT(entity=LocalPlayer)
 26: 0x13B5 [0x80] LOAD_WAIT(entity=Unnamed NPC (ID: 17834326/0x01102156))
 27: 0x13BA [0x02] IF !(ExtData[1]->WorkLocal[4] < 2*) GOTO 0x13D6
 28: 0x13C2 [0x45] LOAD_SCHEDULED_TASK: Load scheduler "s060" with entities [LocalPlayer, LocalPlayer], work=[612*, 0*]
 29: 0x13D3 [0x01] GOTO 0x13E7
 30: 0x13D6 [0x45] LOAD_SCHEDULED_TASK: Load scheduler "s057" with entities [LocalPlayer, LocalPlayer], work=[612*, 0*]

SUBROUTINE_13E7:
 31: 0x13E7 [0x1A] CALL_SUBROUTINE(address=0x0043)
 32: 0x13EA [0x02] IF !(ExtData[1]->WorkLocal[4] < 2*) GOTO 0x142D
 33: 0x13F2 [0x02] IF !(ExtData[1]->WorkLocal[11] == 1*) GOTO 0x1401
 34: 0x13FA [0x3C] SET_BIT_FLAG_CONDITIONAL(target_work_offset=ExtData[1]->WorkLocal[3], bit_index_work_offset=0*, condition_work_offset=1*)
 35: 0x1401 [0x02] IF !(ExtData[1]->WorkLocal[12] == 1*) GOTO 0x1410
 36: 0x1409 [0x3C] SET_BIT_FLAG_CONDITIONAL(target_work_offset=ExtData[1]->WorkLocal[3], bit_index_work_offset=1*, condition_work_offset=1*)
 37: 0x1410 [0x02] IF !(ExtData[1]->WorkLocal[13] == 1*) GOTO 0x141F
 38: 0x1418 [0x3C] SET_BIT_FLAG_CONDITIONAL(target_work_offset=ExtData[1]->WorkLocal[3], bit_index_work_offset=2*, condition_work_offset=1*)
 39: 0x141F [0x2B] Unnamed NPC (ID: 17834326/0x01102156) [8636*]:
    → "Still interested in that purrrty armor, eh? Well, do you need to know how to make each piece?"
 40: 0x1426 [0x23] WAIT_FOR_DIALOG_INTERACTION
 41: 0x1427 [0x01] GOTO 0x182A

SUBROUTINE_1440:
 42: 0x1440 [0xBA] SET_ENTITY_POSITION(entity_id=Unnamed NPC (ID: 17834326/0x01102156), pos_x=-330.891*, pos_z=-309.125*, pos_y=-1.000*, direction=6.6°*)
 43: 0x144D [0xBA] SET_ENTITY_POSITION(entity_id=LocalPlayer, pos_x=-347.063*, pos_z=-300.751*, pos_y=-5.765*, direction=270.1°*)
