# 17834341

## Common Data

| Field            | Value                    |
|------------------|--------------------------|
| Zone             | Rala Waterways (ID: 258) |
| Block Size       | 8472 bytes               |
| Total Events     | 5                        |
| References Count | 160                      |

## List of Events

| Event ID              | Entrypoint   |   Size |   Instructions |
|-----------------------|--------------|--------|----------------|
| [65535](#event-65535) | 0x0000       |      1 |              1 |
| [377](#event-377)     | 0x0001       |   1287 |            165 |
| [378](#event-378)     | 0x0508       |   2365 |            301 |
| [379](#event-379)     | 0x0E45       |    743 |             98 |
| [383](#event-383)     | 0x112C       |   3399 |            389 |

## DAT References (imed_data)

|   Index | Hex Value   |   Dec Value |
|---------|-------------|-------------|
|       0 | 0x00C8      |         200 |
|       1 | 0x0000      |           0 |
|       2 | 0x0013      |          19 |
|       3 | 0x00FF      |         255 |
|       4 | 0x0001      |           1 |
|       5 | 0x4C4B4     |      312500 |
|       6 | 0xFFF9E968  |  4294568296 |
|       7 | 0xFFFFD8C8  |  4294957256 |
|       8 | 0xFFF9E198  |  4294566296 |
|       9 | 0x59EAC     |      368300 |
|      10 | 0xFFF9E580  |  4294567296 |
|      11 | 0xFFFFCF22  |  4294954786 |
|      12 | 0x07FF      |        2047 |
|      13 | 0x592F4     |      365300 |
|      14 | 0x4BA46     |      309830 |
|      15 | 0xFFFFDFD0  |  4294959056 |
|      16 | 0x001E      |          30 |
|      17 | 0x003C      |          60 |
|      18 | 0x030C      |         780 |
|      19 | 0x010E      |         270 |
|      20 | 0x00F0      |         240 |
|      21 | 0x202F      |        8239 |
|      22 | 0x2030      |        8240 |
|      23 | 0x000A      |          10 |
|      24 | 0x055D      |        1373 |
|      25 | 0x0028      |          40 |
|      26 | 0x2031      |        8241 |
|      27 | 0x0078      |         120 |
|      28 | 0x2032      |        8242 |
|      29 | 0x2033      |        8243 |
|      30 | 0x2034      |        8244 |
|      31 | 0x0095      |         149 |
|      32 | 0x2035      |        8245 |
|      33 | 0x2036      |        8246 |
|      34 | 0x003E      |          62 |
|      35 | 0x00B4      |         180 |
|      36 | 0x2037      |        8247 |
|      37 | 0x0031      |          49 |
|      38 | 0x2038      |        8248 |
|      39 | 0x2039      |        8249 |
|      40 | 0x001D      |          29 |
|      41 | 0x003D      |          61 |
|      42 | 0x000F      |          15 |
|      43 | 0x58610     |      362000 |
|      44 | 0x57670     |      358000 |
|      45 | 0x59998     |      367000 |
|      46 | 0x56EA0     |      356000 |
|      47 | 0x203A      |        8250 |
|      48 | 0x203B      |        8251 |
|      49 | 0x203C      |        8252 |
|      50 | 0x0025      |          37 |
|      51 | 0x203D      |        8253 |
|      52 | 0x00A9      |         169 |
|      53 | 0x203E      |        8254 |
|      54 | 0x203F      |        8255 |
|      55 | 0x002C      |          44 |
|      56 | 0x2040      |        8256 |
|      57 | 0x2041      |        8257 |
|      58 | 0x0051      |          81 |
|      59 | 0x2042      |        8258 |
|      60 | 0x005A      |          90 |
|      61 | 0x0004      |           4 |
|      62 | 0x168D      |        5773 |
|      63 | 0x2043      |        8259 |
|      64 | 0x0029      |          41 |
|      65 | 0x2044      |        8260 |
|      66 | 0x2045      |        8261 |
|      67 | 0x0010      |          16 |
|      68 | 0x2046      |        8262 |
|      69 | 0x0050      |          80 |
|      70 | 0x2047      |        8263 |
|      71 | 0x0008      |           8 |
|      72 | 0x0006      |           6 |
|      73 | 0x2048      |        8264 |
|      74 | 0x0007      |           7 |
|      75 | 0x2049      |        8265 |
|      76 | 0x0005      |           5 |
|      77 | 0x204A      |        8266 |
|      78 | 0x204B      |        8267 |
|      79 | 0x204C      |        8268 |
|      80 | 0x004B      |          75 |
|      81 | 0x002D      |          45 |
|      82 | 0x0014      |          20 |
|      83 | 0x0047      |          71 |
|      84 | 0x204D      |        8269 |
|      85 | 0x589F8     |      363000 |
|      86 | 0x5841C     |      361500 |
|      87 | 0x204E      |        8270 |
|      88 | 0x204F      |        8271 |
|      89 | 0x2050      |        8272 |
|      90 | 0x2051      |        8273 |
|      91 | 0x2052      |        8274 |
|      92 | 0xFFFB3124  |  4294652196 |
|      93 | 0xFFFB1F86  |  4294647686 |
|      94 | 0xFFFFFBB3  |  4294966195 |
|      95 | 0x0941      |        2369 |
|      96 | 0xFFFB305C  |  4294651996 |
|      97 | 0xFFFB1FF4  |  4294647796 |
|      98 | 0xFFFFFC18  |  4294966296 |
|      99 | 0xFFFADF80  |  4294631296 |
|     100 | 0xFFFB143C  |  4294644796 |
|     101 | 0x0FA0      |        4000 |
|     102 | 0x0CAD      |        3245 |
|     103 | 0x0003      |           3 |
|     104 | 0x0312      |         786 |
|     105 | 0x0CB0      |        3248 |
|     106 | 0x1ED9      |        7897 |
|     107 | 0xFFFB24A4  |  4294648996 |
|     108 | 0xFFFB2E68  |  4294651496 |
|     109 | 0xFFFB6130  |  4294664496 |
|     110 | 0xFFFAED90  |  4294634896 |
|     111 | 0xFFFFFA6A  |  4294965866 |
|     112 | 0x1001      |        4097 |
|     113 | 0xFFFB20BC  |  4294647996 |
|     114 | 0xFFFAFD94  |  4294638996 |
|     115 | 0x0C28      |        3112 |
|     116 | 0x2059      |        8281 |
|     117 | 0x0CD1      |        3281 |
|     118 | 0x0955      |        2389 |
|     119 | 0x205A      |        8282 |
|     120 | 0x205B      |        8283 |
|     121 | 0x205C      |        8284 |
|     122 | 0x00BD      |         189 |
|     123 | 0x205D      |        8285 |
|     124 | 0x205E      |        8286 |
|     125 | 0x205F      |        8287 |
|     126 | 0xFFFB049C  |  4294640796 |
|     127 | 0xFFFB1950  |  4294646096 |
|     128 | 0x0FFF      |        4095 |
|     129 | 0x002A      |          42 |
|     130 | 0x2060      |        8288 |
|     131 | 0x2061      |        8289 |
|     132 | 0x2062      |        8290 |
|     133 | 0x206E      |        8302 |
|     134 | 0x206F      |        8303 |
|     135 | 0x2070      |        8304 |
|     136 | 0x2071      |        8305 |
|     137 | 0x2072      |        8306 |
|     138 | 0x0096      |         150 |
|     139 | 0x2073      |        8307 |
|     140 | 0x2074      |        8308 |
|     141 | 0x2075      |        8309 |
|     142 | 0x2076      |        8310 |
|     143 | 0x2077      |        8311 |
|     144 | 0x2078      |        8312 |
|     145 | 0x2079      |        8313 |
|     146 | 0x012C      |         300 |
|     147 | 0x2063      |        8291 |
|     148 | 0x2064      |        8292 |
|     149 | 0x2065      |        8293 |
|     150 | 0x2066      |        8294 |
|     151 | 0x2067      |        8295 |
|     152 | 0x2068      |        8296 |
|     153 | 0x0015      |          21 |
|     154 | 0x0002      |           2 |
|     155 | 0x2069      |        8297 |
|     156 | 0x206A      |        8298 |
|     157 | 0x206B      |        8299 |
|     158 | 0x206C      |        8300 |
|     159 | 0x206D      |        8301 |

## String References

- **7897**: 
- **8269**: You are left utterly speechless.
- **8290**: Who would you like to ask about? [Ygnas./Fremilla./Cynthia.]

## Events

### Event 65535

#### Metadata

| Field        | Value   |
|--------------|---------|
| Entrypoint   | 0x0000  |
| Data Size    | 1 bytes |
| Instructions | 1       |

```
      00 01 02 03 04 05 06 07  08 09 0A 0B 0C 0D 0E 0F
      -- -- -- -- -- -- -- --  -- -- -- -- -- -- -- --
0000: 00                                                .               
```

#### Opcodes

```
  0: 0x0000 [0x00] END_REQSTACK()
```

### Event 377

#### Metadata

| Field        | Value      |
|--------------|------------|
| Entrypoint   | 0x0001     |
| Data Size    | 1287 bytes |
| Instructions | 165        |

```
      00 01 02 03 04 05 06 07  08 09 0A 0B 0C 0D 0E 0F
      -- -- -- -- -- -- -- --  -- -- -- -- -- -- -- --
0000:    42 45 00 80 F0 FF FF  7F F0 FF FF 7F 66 64 6F   BE..........fdo
0010: 31 01 80 55 00 80 F0 FF  FF 7F F0 FF FF 7F 66 64  1..U..........fd
0020: 6F 31 46 01 38 02 80 77  03 80 04 80 1C 04 80 94  o1F.8..w........
0030: 01 61 21 10 01 94 01 60  21 10 01 94 01 62 21 10  .a!....`!....b!.
0040: 01 94 01 63 21 10 01 94  01 64 21 10 01 94 01 F0  ...c!....d!.....
0050: FF FF 7F 2F 00 60 21 10  01 2F 00 61 21 10 01 2F  .../.`!../.a!../
0060: 00 62 21 10 01 2F 00 63  21 10 01 2F 00 64 21 10  .b!../.c!../.d!.
0070: 01 4E 00 60 21 10 01 4E  00 61 21 10 01 4E 00 62  .N.`!..N.a!..N.b
0080: 21 10 01 4E 00 63 21 10  01 4E 00 64 21 10 01 BA  !..N.c!..N.d!...
0090: 60 21 10 01 05 80 06 80  07 80 01 80 BA 61 21 10  `!...........a!.
00A0: 01 05 80 08 80 07 80 01  80 BA 62 21 10 01 09 80  ..........b!....
00B0: 0A 80 0B 80 0C 80 BA 63  21 10 01 0D 80 06 80 0B  .......c!.......
00C0: 80 0C 80 BA 64 21 10 01  0D 80 08 80 0B 80 0C 80  ....d!..........
00D0: 4A F0 FF FF 7F F0 FF FF  7F 7B F0 FF FF 7F BA F0  J........{......
00E0: FF FF 7F 0E 80 0A 80 0F  80 01 80 80 60 21 10 01  ............`!..
00F0: 80 61 21 10 01 80 62 21  10 01 80 63 21 10 01 80  .a!...b!...c!...
0100: 64 21 10 01 80 F0 FF FF  7F 1C 10 80 81 00 62 21  d!............b!
0110: 10 01 2C 62 21 10 01 62  21 10 01 72 65 73 31 27  ..,b!..b!..res1'
0120: 10 60 21 10 01 04 27 10  61 21 10 01 04 27 10 F0  .`!...'.a!...'..
0130: FF FF 7F 2E 1C 11 80 45  12 80 F8 FF FF 7F F8 FF  .......E........
0140: FF 7F 73 30 33 30 01 80  45 00 80 F0 FF FF 7F F0  ..s030..E.......
0150: FF FF 7F 66 64 69 31 01  80 1C 13 80 52 12 80 F8  ...fdi1.....R...
0160: FF FF 7F F8 FF FF 7F 73  30 33 30 45 12 80 F8 FF  .......s030E....
0170: FF 7F F8 FF FF 7F 73 30  33 31 01 80 1C 14 80 52  ......s031.....R
0180: 12 80 F8 FF FF 7F F8 FF  FF 7F 73 30 33 31 45 12  ..........s031E.
0190: 80 F8 FF FF 7F F8 FF FF  7F 73 30 33 32 01 80 2B  .........s032..+
01A0: 60 21 10 01 15 80 1C 11  80 23 2B 61 21 10 01 16  `!.......#+a!...
01B0: 80 1C 11 80 23 2A 10 61  21 10 01 1C 17 80 2A 10  ....#*.a!.....*.
01C0: 60 21 10 01 5B 18 80 60  21 10 01 60 21 10 01 67  `!..[..`!..`!..g
01D0: 75 64 30 66 19 80 61 21  10 01 61 21 10 01 74 68  ud0f..a!..a!..th
01E0: 6B 31 7C 00 61 21 10 01  2B 61 21 10 01 1A 80 1C  k1|.a!..+a!.....
01F0: 1B 80 23 7C 01 61 21 10  01 66 19 80 61 21 10 01  ..#|.a!..f..a!..
0200: 61 21 10 01 74 68 6B 32  52 12 80 F8 FF FF 7F F8  a!..thk2R.......
0210: FF FF 7F 73 30 33 32 45  12 80 F8 FF FF 7F F8 FF  ...s032E........
0220: FF 7F 73 30 33 33 01 80  7C 00 63 21 10 01 2B 63  ..s033..|.c!..+c
0230: 21 10 01 1C 80 1C 1B 80  23 7C 01 63 21 10 01 52  !.......#|.c!..R
0240: 12 80 F8 FF FF 7F F8 FF  FF 7F 73 30 33 33 45 12  ..........s033E.
0250: 80 F8 FF FF 7F F8 FF FF  7F 73 30 33 34 01 80 6E  .........s034..n
0260: 63 21 10 01 17 80 99 63  21 10 01 2B 63 21 10 01  c!.....c!..+c!..
0270: 1D 80 1C 1B 80 23 6E 64  21 10 01 17 80 99 64 21  .....#nd!.....d!
0280: 10 01 2B 64 21 10 01 1E  80 1C 1B 80 23 52 12 80  ..+d!.......#R..
0290: F8 FF FF 7F F8 FF FF 7F  73 30 33 34 45 12 80 F8  ........s034E...
02A0: FF FF 7F F8 FF FF 7F 73  30 33 35 01 80 66 1F 80  .......s035..f..
02B0: 64 21 10 01 64 21 10 01  74 6C 6B 30 2B 64 21 10  d!..d!..tlk0+d!.
02C0: 01 20 80 1C 1B 80 23 66  1F 80 64 21 10 01 64 21  . ....#f..d!..d!
02D0: 10 01 74 6C 6B 31 52 12  80 F8 FF FF 7F F8 FF FF  ..tlk1R.........
02E0: 7F 73 30 33 35 45 12 80  F8 FF FF 7F F8 FF FF 7F  .s035E..........
02F0: 73 30 33 36 01 80 6E 63  21 10 01 01 80 99 63 21  s036..nc!.....c!
0300: 10 01 2B 63 21 10 01 21  80 1C 1B 80 23 5C 00 22  ..+c!..!....#\."
0310: 80 5C 01 22 80 52 12 80  F8 FF FF 7F F8 FF FF 7F  .\.".R..........
0320: 73 30 33 36 45 12 80 F8  FF FF 7F F8 FF FF 7F 73  s036E..........s
0330: 30 33 37 01 80 2C 62 21  10 01 62 21 10 01 72 65  037..,b!..b!..re
0340: 73 32 53 62 21 10 01 62  21 10 01 72 65 73 32 27  s2Sb!..b!..res2'
0350: 10 62 21 10 01 04 1C 10  80 52 12 80 F8 FF FF 7F  .b!......R......
0360: F8 FF FF 7F 73 30 33 37  45 12 80 F8 FF FF 7F F8  ....s037E.......
0370: FF FF 7F 73 30 33 38 01  80 2A 10 62 21 10 01 1C  ...s038..*.b!...
0380: 1B 80 52 12 80 F8 FF FF  7F F8 FF FF 7F 73 30 33  ..R..........s03
0390: 38 45 12 80 F8 FF FF 7F  F8 FF FF 7F 73 30 33 39  8E..........s039
03A0: 01 80 27 10 63 21 10 01  04 27 10 64 21 10 01 04  ..'.c!...'.d!...
03B0: 2A 10 63 21 10 01 1C 1B  80 27 10 63 21 10 01 06  *.c!.....'.c!...
03C0: 27 10 64 21 10 01 06 27  10 62 21 10 01 06 1C 23  '.d!...'.b!....#
03D0: 80 52 12 80 F8 FF FF 7F  F8 FF FF 7F 73 30 33 39  .R..........s039
03E0: 45 12 80 60 21 10 01 60  21 10 01 73 30 34 30 01  E..`!..`!..s040.
03F0: 80 66 19 80 60 21 10 01  60 21 10 01 77 61 69 30  .f..`!..`!..wai0
0400: 2B 60 21 10 01 24 80 1C  23 80 23 66 25 80 60 21  +`!..$..#.#f%.`!
0410: 10 01 60 21 10 01 74 68  6B 31 81 00 60 21 10 01  ..`!..thk1..`!..
0420: 7C 00 60 21 10 01 2B 60  21 10 01 26 80 1C 1B 80  |.`!..+`!..&....
0430: 23 81 01 60 21 10 01 7C  01 60 21 10 01 66 25 80  #..`!..|.`!..f%.
0440: 60 21 10 01 60 21 10 01  74 68 6B 32 66 19 80 61  `!..`!..thk2f..a
0450: 21 10 01 61 21 10 01 7A  69 74 30 2B 61 21 10 01  !..a!..zit0+a!..
0460: 27 80 1C 11 80 6E F0 FF  FF 7F 28 80 99 F0 FF FF  '....n....(.....
0470: 7F 1C 1B 80 23 45 00 80  F0 FF FF 7F F0 FF FF 7F  ....#E..........
0480: 66 64 6F 31 01 80 55 00  80 F0 FF FF 7F F0 FF FF  fdo1..U.........
0490: 7F 66 64 6F 31 52 12 80  F8 FF FF 7F F8 FF FF 7F  .fdo1R..........
04A0: 73 30 34 30 5C 00 29 80  5C 01 29 80 BA 63 21 10  s040\.).\.)..c!.
04B0: 01 01 80 01 80 01 80 01  80 BA 64 21 10 01 01 80  ..........d!....
04C0: 01 80 01 80 01 80 BA 62  21 10 01 01 80 01 80 01  .......b!.......
04D0: 80 01 80 27 10 63 21 10  01 05 27 10 64 21 10 01  ...'.c!...'.d!..
04E0: 05 27 10 62 21 10 01 05  78 1C 2A 80 AB 11 01 80  .'.b!...x.*.....
04F0: 1C 04 80 46 00 45 00 80  F0 FF FF 7F F0 FF FF 7F  ...F.E..........
0500: 66 64 69 32 01 80 21 00                           fdi2..!.        
```

#### Opcodes

```
  0: 0x0001 [0x42] SET_CLI_EVENT_CANCEL_DATA()
  1: 0x0002 [0x45] LOAD_SCHEDULED_TASK: Load scheduler "fdo1" with entities [LocalPlayer, LocalPlayer], work=[200*, 0*]
  2: 0x0013 [0x55] WAIT_LOAD_SCHEDULER: Wait for scheduler "fdo1" with entities [LocalPlayer, LocalPlayer], work=200*
  3: 0x0022 [0x46] CAMERA_CONTROL: Disable user control
  4: 0x0024 [0x38] SET_CLIENT_EVENT_MODE(mode=19*)
  5: 0x0027 [0x77] SET_EVENT_TIME_WEATHER(hour=255*, weather=1*)
  6: 0x002C [0x1C] WAIT(1* ticks)
  7: 0x002F [0x94] Musto-Rusto (ID: 17834337/0x01102161)->Render.Flags3 ^= 0x01
  8: 0x0035 [0x94] Tuffle-Buffle (ID: 17834336/0x01102160)->Render.Flags3 ^= 0x01
  9: 0x003B [0x94] Pupadi Dollmohr (ID: 17834338/0x01102162)->Render.Flags3 ^= 0x01
 10: 0x0041 [0x94] Celestin (ID: 17834339/0x01102163)->Render.Flags3 ^= 0x01
 11: 0x0047 [0x94] Fabioso (ID: 17834340/0x01102164)->Render.Flags3 ^= 0x01
 12: 0x004D [0x94] LocalPlayer->Render.Flags3 ^= 0x01
 13: 0x0053 [0x2F] Tuffle-Buffle (ID: 17834336/0x01102160)->Render.Flags0 &= ~0x80000 // Bit 19
 14: 0x0059 [0x2F] Musto-Rusto (ID: 17834337/0x01102161)->Render.Flags0 &= ~0x80000 // Bit 19
 15: 0x005F [0x2F] Pupadi Dollmohr (ID: 17834338/0x01102162)->Render.Flags0 &= ~0x80000 // Bit 19
 16: 0x0065 [0x2F] Celestin (ID: 17834339/0x01102163)->Render.Flags0 &= ~0x80000 // Bit 19
 17: 0x006B [0x2F] Fabioso (ID: 17834340/0x01102164)->Render.Flags0 &= ~0x80000 // Bit 19
 18: 0x0071 [0x4E] SET_ENTITY_HIDE_FLAG: Show Tuffle-Buffle (ID: 17834336/0x01102160)
 19: 0x0077 [0x4E] SET_ENTITY_HIDE_FLAG: Show Musto-Rusto (ID: 17834337/0x01102161)
 20: 0x007D [0x4E] SET_ENTITY_HIDE_FLAG: Show Pupadi Dollmohr (ID: 17834338/0x01102162)
 21: 0x0083 [0x4E] SET_ENTITY_HIDE_FLAG: Show Celestin (ID: 17834339/0x01102163)
 22: 0x0089 [0x4E] SET_ENTITY_HIDE_FLAG: Show Fabioso (ID: 17834340/0x01102164)
 23: 0x008F [0xBA] SET_ENTITY_POSITION(entity_id=Tuffle-Buffle (ID: 17834336/0x01102160), pos_x=312.500*, pos_z=-399.000*, pos_y=-10.040*, direction=0.0°*)
 24: 0x009C [0xBA] SET_ENTITY_POSITION(entity_id=Musto-Rusto (ID: 17834337/0x01102161), pos_x=312.500*, pos_z=-401.000*, pos_y=-10.040*, direction=0.0°*)
 25: 0x00A9 [0xBA] SET_ENTITY_POSITION(entity_id=Pupadi Dollmohr (ID: 17834338/0x01102162), pos_x=368.300*, pos_z=-400.000*, pos_y=-12.510*, direction=179.9°*)
 26: 0x00B6 [0xBA] SET_ENTITY_POSITION(entity_id=Celestin (ID: 17834339/0x01102163), pos_x=365.300*, pos_z=-399.000*, pos_y=-12.510*, direction=179.9°*)
 27: 0x00C3 [0xBA] SET_ENTITY_POSITION(entity_id=Fabioso (ID: 17834340/0x01102164), pos_x=365.300*, pos_z=-401.000*, pos_y=-12.510*, direction=179.9°*)
 28: 0x00D0 [0x4A] LocalPlayer looks at LocalPlayer
 29: 0x00D9 [0x7B] LocalPlayer stops talking
 30: 0x00DE [0xBA] SET_ENTITY_POSITION(entity_id=LocalPlayer, pos_x=309.830*, pos_z=-400.000*, pos_y=-8.240*, direction=0.0°*)
 31: 0x00EB [0x80] LOAD_WAIT(entity=Tuffle-Buffle (ID: 17834336/0x01102160))
 32: 0x00F0 [0x80] LOAD_WAIT(entity=Musto-Rusto (ID: 17834337/0x01102161))
 33: 0x00F5 [0x80] LOAD_WAIT(entity=Pupadi Dollmohr (ID: 17834338/0x01102162))
 34: 0x00FA [0x80] LOAD_WAIT(entity=Celestin (ID: 17834339/0x01102163))
 35: 0x00FF [0x80] LOAD_WAIT(entity=Fabioso (ID: 17834340/0x01102164))
 36: 0x0104 [0x80] LOAD_WAIT(entity=LocalPlayer)
 37: 0x0109 [0x1C] WAIT(30* ticks)
 38: 0x010C [0x81] SET_ENTITY_BLINKING(blink_flag=0x00, entity=Pupadi Dollmohr (ID: 17834338/0x01102162))
 39: 0x0112 [0x2C] CREATE_SCHEDULER_TASK: Create scheduler "res1" with entities [Pupadi Dollmohr (ID: 17834338/0x01102162), Pupadi Dollmohr (ID: 17834338/0x01102162)]
 40: 0x011F [0x27] REQ_SET(priority=0x10, entity_id=Tuffle-Buffle (ID: 17834336/0x01102160), tag_num=0x04)
 41: 0x0126 [0x27] REQ_SET(priority=0x10, entity_id=Musto-Rusto (ID: 17834337/0x01102161), tag_num=0x04)
 42: 0x012D [0x27] REQ_SET(priority=0x10, entity_id=LocalPlayer, tag_num=0x2E)
 43: 0x0134 [0x1C] WAIT(60* ticks)
 44: 0x0137 [0x45] LOAD_SCHEDULED_TASK: Load scheduler "s030" with entities [EventEntity, EventEntity], work=[780*, 0*]
 45: 0x0148 [0x45] LOAD_SCHEDULED_TASK: Load scheduler "fdi1" with entities [LocalPlayer, LocalPlayer], work=[200*, 0*]
 46: 0x0159 [0x1C] WAIT(270* ticks)
 47: 0x015C [0x52] END_LOAD_SCHEDULER: End scheduler "s030" with entities [EventEntity, EventEntity], work=780*
 48: 0x016B [0x45] LOAD_SCHEDULED_TASK: Load scheduler "s031" with entities [EventEntity, EventEntity], work=[780*, 0*]
 49: 0x017C [0x1C] WAIT(240* ticks)
 50: 0x017F [0x52] END_LOAD_SCHEDULER: End scheduler "s031" with entities [EventEntity, EventEntity], work=780*
 51: 0x018E [0x45] LOAD_SCHEDULED_TASK: Load scheduler "s032" with entities [EventEntity, EventEntity], work=[780*, 0*]
 52: 0x019F [0x2B] Tuffle-Buffle (ID: 17834336/0x01102160) [8239*]:
    → "Hellooo! We're here to claim that which is rightfully-wightfully ours!"
 53: 0x01A6 [0x1C] WAIT(60* ticks)
 54: 0x01A9 [0x23] WAIT_FOR_DIALOG_INTERACTION
 55: 0x01AA [0x2B] Musto-Rusto (ID: 17834337/0x01102161) [8240*]:
    → "Hmmm...is it just me, or is there no one here? Were we supposed to use the service-wervice entrance?"
 56: 0x01B1 [0x1C] WAIT(60* ticks)
 57: 0x01B4 [0x23] WAIT_FOR_DIALOG_INTERACTION
 58: 0x01B5 [0x2A] GET_REQ_LEVEL(level=16, entity_id=Musto-Rusto (ID: 17834337/0x01102161))
 59: 0x01BB [0x1C] WAIT(10* ticks)
 60: 0x01BE [0x2A] GET_REQ_LEVEL(level=16, entity_id=Tuffle-Buffle (ID: 17834336/0x01102160))
 61: 0x01C4 [0x5B] LOAD_EXT_SCHEDULER: Load scheduler "gud0" with entities [Tuffle-Buffle (ID: 17834336/0x01102160), Tuffle-Buffle (ID: 17834336/0x01102160)], work=1373*
 62: 0x01D3 [0x66] LOAD_EXT_SCHEDULER_MAIN: Load scheduler "thk1" with entities [Musto-Rusto (ID: 17834337/0x01102161), Musto-Rusto (ID: 17834337/0x01102161)], work=40*
 63: 0x01E2 [0x7C] Musto-Rusto (ID: 17834337/0x01102161)->Render.Flags2 |= 0x00
 64: 0x01E8 [0x2B] Musto-Rusto (ID: 17834337/0x01102161) [8241*]:
    → "...And there are no raptor fights or anything."
 65: 0x01EF [0x1C] WAIT(120* ticks)
 66: 0x01F2 [0x23] WAIT_FOR_DIALOG_INTERACTION
 67: 0x01F3 [0x7C] Musto-Rusto (ID: 17834337/0x01102161)->Render.Flags2 |= 0x01
 68: 0x01F9 [0x66] LOAD_EXT_SCHEDULER_MAIN: Load scheduler "thk2" with entities [Musto-Rusto (ID: 17834337/0x01102161), Musto-Rusto (ID: 17834337/0x01102161)], work=40*
 69: 0x0208 [0x52] END_LOAD_SCHEDULER: End scheduler "s032" with entities [EventEntity, EventEntity], work=780*
 70: 0x0217 [0x45] LOAD_SCHEDULED_TASK: Load scheduler "s033" with entities [EventEntity, EventEntity], work=[780*, 0*]
 71: 0x0228 [0x7C] Celestin (ID: 17834339/0x01102163)->Render.Flags2 |= 0x00
 72: 0x022E [0x2B] Celestin (ID: 17834339/0x01102163) [8242*]:
    → "(Hmph. Boneheaded twerps found the guts to come here...right into our grasp.)"
 73: 0x0235 [0x1C] WAIT(120* ticks)
 74: 0x0238 [0x23] WAIT_FOR_DIALOG_INTERACTION
 75: 0x0239 [0x7C] Celestin (ID: 17834339/0x01102163)->Render.Flags2 |= 0x01
 76: 0x023F [0x52] END_LOAD_SCHEDULER: End scheduler "s033" with entities [EventEntity, EventEntity], work=780*
 77: 0x024E [0x45] LOAD_SCHEDULED_TASK: Load scheduler "s034" with entities [EventEntity, EventEntity], work=[780*, 0*]
 78: 0x025F [0x6E] Celestin (ID: 17834339/0x01102163) uses emote 10*
 79: 0x0266 [0x99] Wait for Celestin (ID: 17834339/0x01102163) animation to complete
 80: 0x026B [0x2B] Celestin (ID: 17834339/0x01102163) [8243*]:
    → "And a grand welcome here to the bright lights and dazzling effects of the Dashing Dreamers' next show!"
 81: 0x0272 [0x1C] WAIT(120* ticks)
 82: 0x0275 [0x23] WAIT_FOR_DIALOG_INTERACTION
 83: 0x0276 [0x6E] Fabioso (ID: 17834340/0x01102164) uses emote 10*
 84: 0x027D [0x99] Wait for Fabioso (ID: 17834340/0x01102164) animation to complete
 85: 0x0282 [0x2B] Fabioso (ID: 17834340/0x01102164) [8244*]:
    → "Don't worry, my lovely Tarutaru friends. We'll let you do a special little number that'll leave your heads spinning!"
 86: 0x0289 [0x1C] WAIT(120* ticks)
 87: 0x028C [0x23] WAIT_FOR_DIALOG_INTERACTION
 88: 0x028D [0x52] END_LOAD_SCHEDULER: End scheduler "s034" with entities [EventEntity, EventEntity], work=780*
 89: 0x029C [0x45] LOAD_SCHEDULED_TASK: Load scheduler "s035" with entities [EventEntity, EventEntity], work=[780*, 0*]
 90: 0x02AD [0x66] LOAD_EXT_SCHEDULER_MAIN: Load scheduler "tlk0" with entities [Fabioso (ID: 17834340/0x01102164), Fabioso (ID: 17834340/0x01102164)], work=149*
 91: 0x02BC [0x2B] Fabioso (ID: 17834340/0x01102164) [8245*]:
    → "Yes, spinning...and whirling and twirling all the way to a cargo ship bound straight for the Middle Lands!"
 92: 0x02C3 [0x1C] WAIT(120* ticks)
 93: 0x02C6 [0x23] WAIT_FOR_DIALOG_INTERACTION
 94: 0x02C7 [0x66] LOAD_EXT_SCHEDULER_MAIN: Load scheduler "tlk1" with entities [Fabioso (ID: 17834340/0x01102164), Fabioso (ID: 17834340/0x01102164)], work=149*
 95: 0x02D6 [0x52] END_LOAD_SCHEDULER: End scheduler "s035" with entities [EventEntity, EventEntity], work=780*
 96: 0x02E5 [0x45] LOAD_SCHEDULED_TASK: Load scheduler "s036" with entities [EventEntity, EventEntity], work=[780*, 0*]
 97: 0x02F6 [0x6E] Celestin (ID: 17834339/0x01102163) uses emote 0*
 98: 0x02FD [0x99] Wait for Celestin (ID: 17834339/0x01102163) animation to complete
 99: 0x0302 [0x2B] Celestin (ID: 17834339/0x01102163) [8246*]:
    → "Hungry for more? Then feast your eyes on this delicate contraption we've prepared especially for you!"
100: 0x0309 [0x1C] WAIT(120* ticks)
101: 0x030C [0x23] WAIT_FOR_DIALOG_INTERACTION
102: 0x030D [0x5C] MUSIC_CONTROL: Set Idle (Day) music to song 62*
103: 0x0311 [0x5C] MUSIC_CONTROL: Set Idle (Night) music to song 62*
104: 0x0315 [0x52] END_LOAD_SCHEDULER: End scheduler "s036" with entities [EventEntity, EventEntity], work=780*
105: 0x0324 [0x45] LOAD_SCHEDULED_TASK: Load scheduler "s037" with entities [EventEntity, EventEntity], work=[780*, 0*]
106: 0x0335 [0x2C] CREATE_SCHEDULER_TASK: Create scheduler "res2" with entities [Pupadi Dollmohr (ID: 17834338/0x01102162), Pupadi Dollmohr (ID: 17834338/0x01102162)]
107: 0x0342 [0x53] WAIT_SCHEDULER_TASK: Wait for scheduler "res2" with entities [Pupadi Dollmohr (ID: 17834338/0x01102162), Pupadi Dollmohr (ID: 17834338/0x01102162)]
108: 0x034F [0x27] REQ_SET(priority=0x10, entity_id=Pupadi Dollmohr (ID: 17834338/0x01102162), tag_num=0x04)
109: 0x0356 [0x1C] WAIT(30* ticks)
110: 0x0359 [0x52] END_LOAD_SCHEDULER: End scheduler "s037" with entities [EventEntity, EventEntity], work=780*
111: 0x0368 [0x45] LOAD_SCHEDULED_TASK: Load scheduler "s038" with entities [EventEntity, EventEntity], work=[780*, 0*]
112: 0x0379 [0x2A] GET_REQ_LEVEL(level=16, entity_id=Pupadi Dollmohr (ID: 17834338/0x01102162))
113: 0x037F [0x1C] WAIT(120* ticks)
114: 0x0382 [0x52] END_LOAD_SCHEDULER: End scheduler "s038" with entities [EventEntity, EventEntity], work=780*
115: 0x0391 [0x45] LOAD_SCHEDULED_TASK: Load scheduler "s039" with entities [EventEntity, EventEntity], work=[780*, 0*]
116: 0x03A2 [0x27] REQ_SET(priority=0x10, entity_id=Celestin (ID: 17834339/0x01102163), tag_num=0x04)
117: 0x03A9 [0x27] REQ_SET(priority=0x10, entity_id=Fabioso (ID: 17834340/0x01102164), tag_num=0x04)
118: 0x03B0 [0x2A] GET_REQ_LEVEL(level=16, entity_id=Celestin (ID: 17834339/0x01102163))
119: 0x03B6 [0x1C] WAIT(120* ticks)
120: 0x03B9 [0x27] REQ_SET(priority=0x10, entity_id=Celestin (ID: 17834339/0x01102163), tag_num=0x06)
121: 0x03C0 [0x27] REQ_SET(priority=0x10, entity_id=Fabioso (ID: 17834340/0x01102164), tag_num=0x06)
122: 0x03C7 [0x27] REQ_SET(priority=0x10, entity_id=Pupadi Dollmohr (ID: 17834338/0x01102162), tag_num=0x06)
123: 0x03CE [0x1C] WAIT(180* ticks)
124: 0x03D1 [0x52] END_LOAD_SCHEDULER: End scheduler "s039" with entities [EventEntity, EventEntity], work=780*
125: 0x03E0 [0x45] LOAD_SCHEDULED_TASK: Load scheduler "s040" with entities [Tuffle-Buffle (ID: 17834336/0x01102160), Tuffle-Buffle (ID: 17834336/0x01102160)], work=[780*, 0*]
126: 0x03F1 [0x66] LOAD_EXT_SCHEDULER_MAIN: Load scheduler "wai0" with entities [Tuffle-Buffle (ID: 17834336/0x01102160), Tuffle-Buffle (ID: 17834336/0x01102160)], work=40*
127: 0x0400 [0x2B] Tuffle-Buffle (ID: 17834336/0x01102160) [8247*]:
    → "A-absolutaruly amazing! The cheap--she's moving!"
128: 0x0407 [0x1C] WAIT(180* ticks)
129: 0x040A [0x23] WAIT_FOR_DIALOG_INTERACTION
130: 0x040B [0x66] LOAD_EXT_SCHEDULER_MAIN: Load scheduler "thk1" with entities [Tuffle-Buffle (ID: 17834336/0x01102160), Tuffle-Buffle (ID: 17834336/0x01102160)], work=49*
131: 0x041A [0x81] SET_ENTITY_BLINKING(blink_flag=0x00, entity=Tuffle-Buffle (ID: 17834336/0x01102160))
132: 0x0420 [0x7C] Tuffle-Buffle (ID: 17834336/0x01102160)->Render.Flags2 |= 0x00
133: 0x0426 [0x2B] Tuffle-Buffle (ID: 17834336/0x01102160) [8248*]:
    → "But...what's the look of murder in her eyes!?"
134: 0x042D [0x1C] WAIT(120* ticks)
135: 0x0430 [0x23] WAIT_FOR_DIALOG_INTERACTION
136: 0x0431 [0x81] SET_ENTITY_BLINKING(blink_flag=0x01, entity=Tuffle-Buffle (ID: 17834336/0x01102160))
137: 0x0437 [0x7C] Tuffle-Buffle (ID: 17834336/0x01102160)->Render.Flags2 |= 0x01
138: 0x043D [0x66] LOAD_EXT_SCHEDULER_MAIN: Load scheduler "thk2" with entities [Tuffle-Buffle (ID: 17834336/0x01102160), Tuffle-Buffle (ID: 17834336/0x01102160)], work=49*
139: 0x044C [0x66] LOAD_EXT_SCHEDULER_MAIN: Load scheduler "zit0" with entities [Musto-Rusto (ID: 17834337/0x01102161), Musto-Rusto (ID: 17834337/0x01102161)], work=40*
140: 0x045B [0x2B] Musto-Rusto (ID: 17834337/0x01102161) [8249*]:
    → "<Player>! You've g-g-got to help us!"
141: 0x0462 [0x1C] WAIT(60* ticks)
142: 0x0465 [0x6E] LocalPlayer uses emote 29*
143: 0x046C [0x99] Wait for LocalPlayer animation to complete
144: 0x0471 [0x1C] WAIT(120* ticks)
145: 0x0474 [0x23] WAIT_FOR_DIALOG_INTERACTION
146: 0x0475 [0x45] LOAD_SCHEDULED_TASK: Load scheduler "fdo1" with entities [LocalPlayer, LocalPlayer], work=[200*, 0*]
147: 0x0486 [0x55] WAIT_LOAD_SCHEDULER: Wait for scheduler "fdo1" with entities [LocalPlayer, LocalPlayer], work=200*
148: 0x0495 [0x52] END_LOAD_SCHEDULER: End scheduler "s040" with entities [EventEntity, EventEntity], work=780*
149: 0x04A4 [0x5C] MUSIC_CONTROL: Set Idle (Day) music to song 61*
150: 0x04A8 [0x5C] MUSIC_CONTROL: Set Idle (Night) music to song 61*
151: 0x04AC [0xBA] SET_ENTITY_POSITION(entity_id=Celestin (ID: 17834339/0x01102163), pos_x=0.000*, pos_z=0.000*, pos_y=0.000*, direction=0.0°*)
152: 0x04B9 [0xBA] SET_ENTITY_POSITION(entity_id=Fabioso (ID: 17834340/0x01102164), pos_x=0.000*, pos_z=0.000*, pos_y=0.000*, direction=0.0°*)
153: 0x04C6 [0xBA] SET_ENTITY_POSITION(entity_id=Pupadi Dollmohr (ID: 17834338/0x01102162), pos_x=0.000*, pos_z=0.000*, pos_y=0.000*, direction=0.0°*)
154: 0x04D3 [0x27] REQ_SET(priority=0x10, entity_id=Celestin (ID: 17834339/0x01102163), tag_num=0x05)
155: 0x04DA [0x27] REQ_SET(priority=0x10, entity_id=Fabioso (ID: 17834340/0x01102164), tag_num=0x05)
156: 0x04E1 [0x27] REQ_SET(priority=0x10, entity_id=Pupadi Dollmohr (ID: 17834338/0x01102162), tag_num=0x05)
157: 0x04E8 [0x78] ENABLE_GAME_TIMER_RESET_WEATHER()
158: 0x04E9 [0x1C] WAIT(15* ticks)
159: 0x04EC [0xAB] EventEntity->DespawnValue = 0* // Set despawn value
160: 0x04F0 [0x1C] WAIT(1* ticks)
161: 0x04F3 [0x46] CAMERA_CONTROL: Restore default settings
162: 0x04F5 [0x45] LOAD_SCHEDULED_TASK: Load scheduler "fdi2" with entities [LocalPlayer, LocalPlayer], work=[200*, 0*]
163: 0x0506 [0x21] END_EVENT
164: 0x0507 [0x00] END_REQSTACK()
```

### Event 378

#### Metadata

| Field        | Value      |
|--------------|------------|
| Entrypoint   | 0x0508     |
| Data Size    | 2365 bytes |
| Instructions | 301        |

```
      00 01 02 03 04 05 06 07  08 09 0A 0B 0C 0D 0E 0F
      -- -- -- -- -- -- -- --  -- -- -- -- -- -- -- --
0500:                          42 45 00 80 F0 FF FF 7F          BE......
0510: F0 FF FF 7F 66 64 6F 31  01 80 55 00 80 F0 FF FF  ....fdo1..U.....
0520: 7F F0 FF FF 7F 66 64 6F  31 46 01 38 02 80 77 03  .....fdo1F.8..w.
0530: 80 04 80 1C 04 80 94 01  61 21 10 01 94 01 60 21  ........a!....`!
0540: 10 01 94 01 62 21 10 01  94 01 63 21 10 01 94 01  ....b!....c!....
0550: 64 21 10 01 94 01 F0 FF  FF 7F 2F 00 60 21 10 01  d!......../.`!..
0560: 2F 00 61 21 10 01 2F 00  62 21 10 01 2F 00 63 21  /.a!../.b!../.c!
0570: 10 01 2F 00 64 21 10 01  4E 00 60 21 10 01 4E 00  ../.d!..N.`!..N.
0580: 61 21 10 01 4E 00 62 21  10 01 4E 00 63 21 10 01  a!..N.b!..N.c!..
0590: 4E 00 64 21 10 01 4E 00  F0 FF FF 7F BA 60 21 10  N.d!..N......`!.
05A0: 01 2B 80 06 80 0B 80 01  80 BA 61 21 10 01 2C 80  .+........a!..,.
05B0: 08 80 0B 80 01 80 BA 62  21 10 01 2D 80 0A 80 0B  .......b!..-....
05C0: 80 0C 80 BA 63 21 10 01  0D 80 06 80 0B 80 0C 80  ....c!..........
05D0: BA 64 21 10 01 0D 80 08  80 0B 80 0C 80 4A F0 FF  .d!..........J..
05E0: FF 7F F0 FF FF 7F BA F0  FF FF 7F 2E 80 0A 80 0B  ................
05F0: 80 01 80 80 60 21 10 01  80 61 21 10 01 80 62 21  ....`!...a!...b!
0600: 10 01 80 63 21 10 01 80  64 21 10 01 80 F0 FF FF  ...c!...d!......
0610: 7F 27 10 19 21 10 01 03  1C 1B 80 1C 10 80 66 19  .'..!.........f.
0620: 80 60 21 10 01 60 21 10  01 7A 69 74 30 2C 63 21  .`!..`!..zit0,c!
0630: 10 01 63 21 10 01 72 65  73 31 2C 64 21 10 01 64  ..c!..res1,d!..d
0640: 21 10 01 72 65 73 31 2C  62 21 10 01 62 21 10 01  !..res1,b!..b!..
0650: 63 6F 72 70 1C 10 80 27  10 61 21 10 01 05 27 10  corp...'.a!...'.
0660: F0 FF FF 7F 2F 45 12 80  F8 FF FF 7F F8 FF FF 7F  ..../E..........
0670: 73 30 35 30 01 80 45 00  80 F0 FF FF 7F F0 FF FF  s050..E.........
0680: 7F 66 64 69 31 01 80 2A  10 61 21 10 01 4A 61 21  .fdi1..*.a!..Ja!
0690: 10 01 64 21 10 01 1C 10  80 52 12 80 F8 FF FF 7F  ..d!.....R......
06A0: F8 FF FF 7F 73 30 35 30  45 12 80 F8 FF FF 7F F8  ....s050E.......
06B0: FF FF 7F 73 30 35 31 01  80 7C 00 63 21 10 01 2B  ...s051..|.c!..+
06C0: 63 21 10 01 2F 80 23 1C  11 80 7C 01 63 21 10 01  c!../.#...|.c!..
06D0: 7C 00 64 21 10 01 2B 64  21 10 01 30 80 23 1C 11  |.d!..+d!..0.#..
06E0: 80 7C 01 64 21 10 01 52  12 80 F8 FF FF 7F F8 FF  .|.d!..R........
06F0: FF 7F 73 30 35 31 45 12  80 F8 FF FF 7F F8 FF FF  ..s051E.........
0700: 7F 73 30 35 32 01 80 79  00 63 21 10 01 60 21 10  .s052..y.c!..`!.
0710: 01 79 00 64 21 10 01 61  21 10 01 2C 63 21 10 01  .y.d!..a!..,c!..
0720: 63 21 10 01 72 65 73 32  1C 2A 80 2C 64 21 10 01  c!..res2.*.,d!..
0730: 64 21 10 01 72 65 73 32  53 63 21 10 01 63 21 10  d!..res2Sc!..c!.
0740: 01 72 65 73 32 1C 10 80  6E 63 21 10 01 01 80 99  .res2...nc!.....
0750: 63 21 10 01 2B 63 21 10  01 31 80 1C 1B 80 23 4A  c!..+c!..1....#J
0760: 64 21 10 01 63 21 10 01  52 12 80 F8 FF FF 7F F8  d!..c!..R.......
0770: FF FF 7F 73 30 35 32 45  12 80 F8 FF FF 7F F8 FF  ...s052E........
0780: FF 7F 73 30 35 33 01 80  6F 76 64 21 10 01 6E 64  ..s053..ovd!..nd
0790: 21 10 01 32 80 99 64 21  10 01 2B 64 21 10 01 33  !..2..d!..+d!..3
07A0: 80 1C 1B 80 23 4A 63 21  10 01 64 21 10 01 52 12  ....#Jc!..d!..R.
07B0: 80 F8 FF FF 7F F8 FF FF  7F 73 30 35 33 45 12 80  .........s053E..
07C0: F8 FF FF 7F F8 FF FF 7F  73 30 35 34 01 80 6F 76  ........s054..ov
07D0: 63 21 10 01 66 34 80 63  21 10 01 63 21 10 01 74  c!..f4.c!..c!..t
07E0: 6C 6B 30 2B 63 21 10 01  35 80 1C 1B 80 23 66 34  lk0+c!..5....#f4
07F0: 80 63 21 10 01 63 21 10  01 74 6C 6B 31 1C 19 80  .c!..c!..tlk1...
0800: 4A 63 21 10 01 60 21 10  01 4A 64 21 10 01 61 21  Jc!..`!..Jd!..a!
0810: 10 01 52 12 80 F8 FF FF  7F F8 FF FF 7F 73 30 35  ..R..........s05
0820: 34 45 12 80 F8 FF FF 7F  F8 FF FF 7F 73 30 35 35  4E..........s055
0830: 01 80 6F 76 63 21 10 01  6E 63 21 10 01 01 80 99  ..ovc!..nc!.....
0840: 63 21 10 01 2B 63 21 10  01 36 80 1C 1B 80 23 52  c!..+c!..6....#R
0850: 12 80 F8 FF FF 7F F8 FF  FF 7F 73 30 35 35 45 12  ..........s055E.
0860: 80 F8 FF FF 7F F8 FF FF  7F 73 30 35 36 01 80 6E  .........s056..n
0870: 63 21 10 01 37 80 99 63  21 10 01 2B 63 21 10 01  c!..7..c!..+c!..
0880: 38 80 1C 11 80 4A 60 21  10 01 63 21 10 01 4A 61  8....J`!..c!..Ja
0890: 21 10 01 63 21 10 01 4A  F0 FF FF 7F 63 21 10 01  !..c!..J....c!..
08A0: 1C 11 80 23 52 12 80 F8  FF FF 7F F8 FF FF 7F 73  ...#R..........s
08B0: 30 35 36 45 12 80 F8 FF  FF 7F F8 FF FF 7F 73 30  056E..........s0
08C0: 35 37 01 80 6B 69 64 6C  30 60 21 10 01 1C 11 80  57..kidl0`!.....
08D0: 27 10 60 21 10 01 05 2B  60 21 10 01 39 80 1C 1B  '.`!...+`!..9...
08E0: 80 23 2A 10 60 21 10 01  7B 63 21 10 01 7B 64 21  .#*.`!..{c!..{d!
08F0: 10 01 52 12 80 F8 FF FF  7F F8 FF FF 7F 73 30 35  ..R..........s05
0900: 37 45 12 80 F8 FF FF 7F  F8 FF FF 7F 73 30 35 38  7E..........s058
0910: 01 80 AD 00 3A 80 60 21  10 01 60 21 10 01 1C 14  ....:.`!..`!....
0920: 80 2B 60 21 10 01 3B 80  1C 1B 80 23 52 12 80 F8  .+`!..;....#R...
0930: FF FF 7F F8 FF FF 7F 73  30 35 38 45 12 80 F8 FF  .......s058E....
0940: FF 7F F8 FF FF 7F 73 30  35 39 01 80 7B 60 21 10  ......s059..{`!.
0950: 01 2C 60 21 10 01 60 21  10 01 64 65 61 64 53 60  .,`!..`!..deadS`
0960: 21 10 01 60 21 10 01 64  65 61 64 1C 3C 80 4A 61  !..`!..dead.<.Ja
0970: 21 10 01 60 21 10 01 4A  F0 FF FF 7F 60 21 10 01  !..`!..J....`!..
0980: 52 12 80 F8 FF FF 7F F8  FF FF 7F 73 30 35 39 45  R..........s059E
0990: 12 80 F8 FF FF 7F F8 FF  FF 7F 73 30 36 30 01 80  ..........s060..
09A0: 6E 63 21 10 01 3D 80 99  63 21 10 01 6E 64 21 10  nc!..=..c!..nd!.
09B0: 01 3D 80 99 64 21 10 01  03 02 10 3E 80 2B 63 21  .=..d!.....>.+c!
09C0: 10 01 3F 80 1C 1B 80 4A  61 21 10 01 63 21 10 01  ..?....Ja!..c!..
09D0: 4A F0 FF FF 7F 63 21 10  01 1C 11 80 23 52 12 80  J....c!.....#R..
09E0: F8 FF FF 7F F8 FF FF 7F  73 30 36 30 45 12 80 F8  ........s060E...
09F0: FF FF 7F F8 FF FF 7F 73  30 36 31 01 80 6F 76 61  .......s061..ova
0A00: 21 10 01 66 40 80 61 21  10 01 61 21 10 01 73 68  !..f@.a!..a!..sh
0A10: 6B 30 7C 00 61 21 10 01  2B 61 21 10 01 41 80 1C  k0|.a!..+a!..A..
0A20: 1B 80 23 7C 01 61 21 10  01 4A 64 21 10 01 63 21  ..#|.a!..Jd!..c!
0A30: 10 01 52 12 80 F8 FF FF  7F F8 FF FF 7F 73 30 36  ..R..........s06
0A40: 31 45 12 80 F8 FF FF 7F  F8 FF FF 7F 73 30 36 33  1E..........s063
0A50: 01 80 6F 76 64 21 10 01  66 1F 80 64 21 10 01 64  ..ovd!..f..d!..d
0A60: 21 10 01 74 6C 6B 30 2B  64 21 10 01 42 80 1C 1B  !..tlk0+d!..B...
0A70: 80 23 66 1F 80 64 21 10  01 64 21 10 01 74 6C 6B  .#f..d!..d!..tlk
0A80: 31 4A 63 21 10 01 64 21  10 01 52 12 80 F8 FF FF  1Jc!..d!..R.....
0A90: 7F F8 FF FF 7F 73 30 36  33 45 12 80 F8 FF FF 7F  .....s063E......
0AA0: F8 FF FF 7F 73 30 36 32  01 80 6F 76 63 21 10 01  ....s062..ovc!..
0AB0: 6E 63 21 10 01 43 80 99  63 21 10 01 2B 63 21 10  nc!..C..c!..+c!.
0AC0: 01 44 80 1C 1B 80 23 52  12 80 F8 FF FF 7F F8 FF  .D....#R........
0AD0: FF 7F 73 30 36 32 45 12  80 F8 FF FF 7F F8 FF FF  ..s062E.........
0AE0: 7F 73 30 36 34 01 80 1C  11 80 AD 00 45 80 63 21  .s064.......E.c!
0AF0: 10 01 63 21 10 01 AD 00  45 80 64 21 10 01 64 21  ..c!....E.d!..d!
0B00: 10 01 1C 14 80 4A 61 21  10 01 60 21 10 01 4A F0  .....Ja!..`!..J.
0B10: FF FF 7F 60 21 10 01 6F  76 61 21 10 01 27 10 61  ...`!..ova!..'.a
0B20: 21 10 01 06 1C 17 80 52  12 80 F8 FF FF 7F F8 FF  !......R........
0B30: FF 7F 73 30 36 34 45 12  80 F8 FF FF 7F F8 FF FF  ..s064E.........
0B40: 7F 73 30 36 35 01 80 2A  10 61 21 10 01 66 25 80  .s065..*.a!..f%.
0B50: 61 21 10 01 61 21 10 01  73 68 61 30 1C 23 80 2B  a!..a!..sha0.#.+
0B60: 61 21 10 01 46 80 1C 1B  80 23 66 25 80 61 21 10  a!..F....#f%.a!.
0B70: 01 61 21 10 01 73 68 61  31 7B 61 21 10 01 52 12  .a!..sha1{a!..R.
0B80: 80 F8 FF FF 7F F8 FF FF  7F 73 30 36 35 02 87 7F  .........s065...
0B90: 47 80 80 A9 0B 45 12 80  F8 FF FF 7F F8 FF FF 7F  G....E..........
0BA0: 73 67 36 36 01 80 01 BA  0B 45 12 80 F8 FF FF 7F  sg66.....E......
0BB0: F8 FF FF 7F 73 30 36 36  01 80 53 61 21 10 01 61  ....s066..Sa!..a
0BC0: 21 10 01 73 68 61 31 6E  61 21 10 01 48 80 99 61  !..sha1na!..H..a
0BD0: 21 10 01 2B 61 21 10 01  49 80 1C 1B 80 23 1C 1B  !..+a!..I....#..
0BE0: 80 6E 61 21 10 01 4A 80  99 61 21 10 01 2B 61 21  .na!..J..a!..+a!
0BF0: 10 01 4B 80 1C 1B 80 23  4A 61 21 10 01 F0 FF FF  ..K....#Ja!.....
0C00: 7F 4A F0 FF FF 7F 61 21  10 01 02 87 7F 4C 80 80  .J....a!.....L..
0C10: 35 0C 52 12 80 F8 FF FF  7F F8 FF FF 7F 73 30 36  5.R..........s06
0C20: 36 45 12 80 F8 FF FF 7F  F8 FF FF 7F 73 74 36 37  6E..........st67
0C30: 01 80 01 AB 0C 02 87 7F  48 80 80 60 0C 52 12 80  ........H..`.R..
0C40: F8 FF FF 7F F8 FF FF 7F  73 30 36 36 45 12 80 F8  ........s066E...
0C50: FF FF 7F F8 FF FF 7F 73  74 36 37 01 80 01 AB 0C  .......st67.....
0C60: 02 87 7F 47 80 80 8B 0C  52 12 80 F8 FF FF 7F F8  ...G....R.......
0C70: FF FF 7F 73 67 36 36 45  12 80 F8 FF FF 7F F8 FF  ...sg66E........
0C80: FF 7F 73 67 36 37 01 80  01 AB 0C 52 12 80 F8 FF  ..sg67.....R....
0C90: FF 7F F8 FF FF 7F 73 30  36 36 45 12 80 F8 FF FF  ......s066E.....
0CA0: 7F F8 FF FF 7F 73 30 36  37 01 80 6F 76 61 21 10  .....s067..ova!.
0CB0: 01 66 19 80 61 21 10 01  61 21 10 01 74 6C 6B 30  .f..a!..a!..tlk0
0CC0: 2B 61 21 10 01 4D 80 1C  23 80 23 02 87 7F 4C 80  +a!..M..#.#...L.
0CD0: 80 E5 0C 52 12 80 F8 FF  FF 7F F8 FF FF 7F 73 74  ...R..........st
0CE0: 36 37 01 28 0D 02 87 7F  48 80 80 FF 0C 52 12 80  67.(....H....R..
0CF0: F8 FF FF 7F F8 FF FF 7F  73 74 36 37 01 28 0D 02  ........st67.(..
0D00: 87 7F 47 80 80 19 0D 52  12 80 F8 FF FF 7F F8 FF  ..G....R........
0D10: FF 7F 73 67 36 37 01 28  0D 52 12 80 F8 FF FF 7F  ..sg67.(.R......
0D20: F8 FF FF 7F 73 30 36 37  45 12 80 F8 FF FF 7F F8  ....s067E.......
0D30: FF FF 7F 73 30 36 38 01  80 66 19 80 61 21 10 01  ...s068..f..a!..
0D40: 61 21 10 01 74 6C 6B 31  2B 61 21 10 01 4E 80 1C  a!..tlk1+a!..N..
0D50: 1B 80 23 4A 61 21 10 01  62 21 10 01 6F 76 61 21  ..#Ja!..b!..ova!
0D60: 10 01 1C 17 80 6E 61 21  10 01 01 80 99 61 21 10  .....na!.....a!.
0D70: 01 2B 61 21 10 01 4F 80  1C 50 80 52 12 80 F8 FF  .+a!..O..P.R....
0D80: FF 7F F8 FF FF 7F 73 30  36 38 45 12 80 F8 FF FF  ......s068E.....
0D90: 7F F8 FF FF 7F 73 30 36  39 01 80 1C 51 80 23 1C  .....s069...Q.#.
0DA0: 1B 80 4A F0 FF FF 7F 62  21 10 01 52 12 80 F8 FF  ..J....b!..R....
0DB0: FF 7F F8 FF FF 7F 73 30  36 39 45 12 80 F8 FF FF  ......s069E.....
0DC0: 7F F8 FF FF 7F 73 30 37  30 01 80 6F 76 F0 FF FF  .....s070..ov...
0DD0: 7F 1C 52 80 BA 64 21 10  01 01 80 01 80 01 80 01  ..R..d!.........
0DE0: 80 AD 00 53 80 63 21 10  01 F0 FF FF 7F 1C 23 80  ...S.c!.......#.
0DF0: 48 54 80 1C 14 80 45 00  80 F0 FF FF 7F F0 FF FF  HT....E.........
0E00: 7F 66 64 6F 31 01 80 55  00 80 F0 FF FF 7F F0 FF  .fdo1..U........
0E10: FF 7F 66 64 6F 31 52 12  80 F8 FF FF 7F F8 FF FF  ..fdo1R.........
0E20: 7F 73 30 37 30 78 1C 2A  80 AB 11 01 80 1C 04 80  .s070x.*........
0E30: 46 00 45 00 80 F0 FF FF  7F F0 FF FF 7F 66 64 69  F.E..........fdi
0E40: 32 01 80 21 00                                    2..!.           
```

#### Opcodes

```
  0: 0x0508 [0x42] SET_CLI_EVENT_CANCEL_DATA()
  1: 0x0509 [0x45] LOAD_SCHEDULED_TASK: Load scheduler "fdo1" with entities [LocalPlayer, LocalPlayer], work=[200*, 0*]
  2: 0x051A [0x55] WAIT_LOAD_SCHEDULER: Wait for scheduler "fdo1" with entities [LocalPlayer, LocalPlayer], work=200*
  3: 0x0529 [0x46] CAMERA_CONTROL: Disable user control
  4: 0x052B [0x38] SET_CLIENT_EVENT_MODE(mode=19*)
  5: 0x052E [0x77] SET_EVENT_TIME_WEATHER(hour=255*, weather=1*)
  6: 0x0533 [0x1C] WAIT(1* ticks)
  7: 0x0536 [0x94] Musto-Rusto (ID: 17834337/0x01102161)->Render.Flags3 ^= 0x01
  8: 0x053C [0x94] Tuffle-Buffle (ID: 17834336/0x01102160)->Render.Flags3 ^= 0x01
  9: 0x0542 [0x94] Pupadi Dollmohr (ID: 17834338/0x01102162)->Render.Flags3 ^= 0x01
 10: 0x0548 [0x94] Celestin (ID: 17834339/0x01102163)->Render.Flags3 ^= 0x01
 11: 0x054E [0x94] Fabioso (ID: 17834340/0x01102164)->Render.Flags3 ^= 0x01
 12: 0x0554 [0x94] LocalPlayer->Render.Flags3 ^= 0x01
 13: 0x055A [0x2F] Tuffle-Buffle (ID: 17834336/0x01102160)->Render.Flags0 &= ~0x80000 // Bit 19
 14: 0x0560 [0x2F] Musto-Rusto (ID: 17834337/0x01102161)->Render.Flags0 &= ~0x80000 // Bit 19
 15: 0x0566 [0x2F] Pupadi Dollmohr (ID: 17834338/0x01102162)->Render.Flags0 &= ~0x80000 // Bit 19
 16: 0x056C [0x2F] Celestin (ID: 17834339/0x01102163)->Render.Flags0 &= ~0x80000 // Bit 19
 17: 0x0572 [0x2F] Fabioso (ID: 17834340/0x01102164)->Render.Flags0 &= ~0x80000 // Bit 19
 18: 0x0578 [0x4E] SET_ENTITY_HIDE_FLAG: Show Tuffle-Buffle (ID: 17834336/0x01102160)
 19: 0x057E [0x4E] SET_ENTITY_HIDE_FLAG: Show Musto-Rusto (ID: 17834337/0x01102161)
 20: 0x0584 [0x4E] SET_ENTITY_HIDE_FLAG: Show Pupadi Dollmohr (ID: 17834338/0x01102162)
 21: 0x058A [0x4E] SET_ENTITY_HIDE_FLAG: Show Celestin (ID: 17834339/0x01102163)
 22: 0x0590 [0x4E] SET_ENTITY_HIDE_FLAG: Show Fabioso (ID: 17834340/0x01102164)
 23: 0x0596 [0x4E] SET_ENTITY_HIDE_FLAG: Show LocalPlayer
 24: 0x059C [0xBA] SET_ENTITY_POSITION(entity_id=Tuffle-Buffle (ID: 17834336/0x01102160), pos_x=362.000*, pos_z=-399.000*, pos_y=-12.510*, direction=0.0°*)
 25: 0x05A9 [0xBA] SET_ENTITY_POSITION(entity_id=Musto-Rusto (ID: 17834337/0x01102161), pos_x=358.000*, pos_z=-401.000*, pos_y=-12.510*, direction=0.0°*)
 26: 0x05B6 [0xBA] SET_ENTITY_POSITION(entity_id=Pupadi Dollmohr (ID: 17834338/0x01102162), pos_x=367.000*, pos_z=-400.000*, pos_y=-12.510*, direction=179.9°*)
 27: 0x05C3 [0xBA] SET_ENTITY_POSITION(entity_id=Celestin (ID: 17834339/0x01102163), pos_x=365.300*, pos_z=-399.000*, pos_y=-12.510*, direction=179.9°*)
 28: 0x05D0 [0xBA] SET_ENTITY_POSITION(entity_id=Fabioso (ID: 17834340/0x01102164), pos_x=365.300*, pos_z=-401.000*, pos_y=-12.510*, direction=179.9°*)
 29: 0x05DD [0x4A] LocalPlayer looks at LocalPlayer
 30: 0x05E6 [0xBA] SET_ENTITY_POSITION(entity_id=LocalPlayer, pos_x=356.000*, pos_z=-400.000*, pos_y=-12.510*, direction=0.0°*)
 31: 0x05F3 [0x80] LOAD_WAIT(entity=Tuffle-Buffle (ID: 17834336/0x01102160))
 32: 0x05F8 [0x80] LOAD_WAIT(entity=Musto-Rusto (ID: 17834337/0x01102161))
 33: 0x05FD [0x80] LOAD_WAIT(entity=Pupadi Dollmohr (ID: 17834338/0x01102162))
 34: 0x0602 [0x80] LOAD_WAIT(entity=Celestin (ID: 17834339/0x01102163))
 35: 0x0607 [0x80] LOAD_WAIT(entity=Fabioso (ID: 17834340/0x01102164))
 36: 0x060C [0x80] LOAD_WAIT(entity=LocalPlayer)
 37: 0x0611 [0x27] REQ_SET(priority=0x10, entity_id=Unknown NPC (ID: 17834265/0x01102119), tag_num=0x03)
 38: 0x0618 [0x1C] WAIT(120* ticks)
 39: 0x061B [0x1C] WAIT(30* ticks)
 40: 0x061E [0x66] LOAD_EXT_SCHEDULER_MAIN: Load scheduler "zit0" with entities [Tuffle-Buffle (ID: 17834336/0x01102160), Tuffle-Buffle (ID: 17834336/0x01102160)], work=40*
 41: 0x062D [0x2C] CREATE_SCHEDULER_TASK: Create scheduler "res1" with entities [Celestin (ID: 17834339/0x01102163), Celestin (ID: 17834339/0x01102163)]
 42: 0x063A [0x2C] CREATE_SCHEDULER_TASK: Create scheduler "res1" with entities [Fabioso (ID: 17834340/0x01102164), Fabioso (ID: 17834340/0x01102164)]
 43: 0x0647 [0x2C] CREATE_SCHEDULER_TASK: Create scheduler "corp" with entities [Pupadi Dollmohr (ID: 17834338/0x01102162), Pupadi Dollmohr (ID: 17834338/0x01102162)]
 44: 0x0654 [0x1C] WAIT(30* ticks)
 45: 0x0657 [0x27] REQ_SET(priority=0x10, entity_id=Musto-Rusto (ID: 17834337/0x01102161), tag_num=0x05)
 46: 0x065E [0x27] REQ_SET(priority=0x10, entity_id=LocalPlayer, tag_num=0x2F)
 47: 0x0665 [0x45] LOAD_SCHEDULED_TASK: Load scheduler "s050" with entities [EventEntity, EventEntity], work=[780*, 0*]
 48: 0x0676 [0x45] LOAD_SCHEDULED_TASK: Load scheduler "fdi1" with entities [LocalPlayer, LocalPlayer], work=[200*, 0*]
 49: 0x0687 [0x2A] GET_REQ_LEVEL(level=16, entity_id=Musto-Rusto (ID: 17834337/0x01102161))
 50: 0x068D [0x4A] Musto-Rusto (ID: 17834337/0x01102161) looks at Fabioso (ID: 17834340/0x01102164)
 51: 0x0696 [0x1C] WAIT(30* ticks)
 52: 0x0699 [0x52] END_LOAD_SCHEDULER: End scheduler "s050" with entities [EventEntity, EventEntity], work=780*
 53: 0x06A8 [0x45] LOAD_SCHEDULED_TASK: Load scheduler "s051" with entities [EventEntity, EventEntity], work=[780*, 0*]
 54: 0x06B9 [0x7C] Celestin (ID: 17834339/0x01102163)->Render.Flags2 |= 0x00
 55: 0x06BF [0x2B] Celestin (ID: 17834339/0x01102163) [8250*]:
    → "U-ugh...these nobodies are all over us like a bad rash!"
 56: 0x06C6 [0x23] WAIT_FOR_DIALOG_INTERACTION
 57: 0x06C7 [0x1C] WAIT(60* ticks)
 58: 0x06CA [0x7C] Celestin (ID: 17834339/0x01102163)->Render.Flags2 |= 0x01
 59: 0x06D0 [0x7C] Fabioso (ID: 17834340/0x01102164)->Render.Flags2 |= 0x00
 60: 0x06D6 [0x2B] Fabioso (ID: 17834340/0x01102164) [8251*]:
    → "Two black-nosed pimples marring my smooth, supple skin..."
 61: 0x06DD [0x23] WAIT_FOR_DIALOG_INTERACTION
 62: 0x06DE [0x1C] WAIT(60* ticks)
 63: 0x06E1 [0x7C] Fabioso (ID: 17834340/0x01102164)->Render.Flags2 |= 0x01
 64: 0x06E7 [0x52] END_LOAD_SCHEDULER: End scheduler "s051" with entities [EventEntity, EventEntity], work=780*
 65: 0x06F6 [0x45] LOAD_SCHEDULED_TASK: Load scheduler "s052" with entities [EventEntity, EventEntity], work=[780*, 0*]
 66: 0x0707 [0x79] Celestin (ID: 17834339/0x01102163) looks at Tuffle-Buffle (ID: 17834336/0x01102160) (Basic look)
 67: 0x0711 [0x79] Fabioso (ID: 17834340/0x01102164) looks at Musto-Rusto (ID: 17834337/0x01102161) (Basic look)
 68: 0x071B [0x2C] CREATE_SCHEDULER_TASK: Create scheduler "res2" with entities [Celestin (ID: 17834339/0x01102163), Celestin (ID: 17834339/0x01102163)]
 69: 0x0728 [0x1C] WAIT(15* ticks)
 70: 0x072B [0x2C] CREATE_SCHEDULER_TASK: Create scheduler "res2" with entities [Fabioso (ID: 17834340/0x01102164), Fabioso (ID: 17834340/0x01102164)]
 71: 0x0738 [0x53] WAIT_SCHEDULER_TASK: Wait for scheduler "res2" with entities [Celestin (ID: 17834339/0x01102163), Celestin (ID: 17834339/0x01102163)]
 72: 0x0745 [0x1C] WAIT(30* ticks)
 73: 0x0748 [0x6E] Celestin (ID: 17834339/0x01102163) uses emote 0*
 74: 0x074F [0x99] Wait for Celestin (ID: 17834339/0x01102163) animation to complete
 75: 0x0754 [0x2B] Celestin (ID: 17834339/0x01102163) [8252*]:
    → "W-we'll remember this, you talentless hacks! My gorgeous Big Mama--the most beautiful in the land--will come and give you what for!"
 76: 0x075B [0x1C] WAIT(120* ticks)
 77: 0x075E [0x23] WAIT_FOR_DIALOG_INTERACTION
 78: 0x075F [0x4A] Fabioso (ID: 17834340/0x01102164) looks at Celestin (ID: 17834339/0x01102163)
 79: 0x0768 [0x52] END_LOAD_SCHEDULER: End scheduler "s052" with entities [EventEntity, EventEntity], work=780*
 80: 0x0777 [0x45] LOAD_SCHEDULED_TASK: Load scheduler "s053" with entities [EventEntity, EventEntity], work=[780*, 0*]
 81: 0x0788 [0x6F] WAIT_FRAME_DELAY: Yield until WaitTime reaches zero
 82: 0x0789 [0x76] CHECK_ENTITY_RENDER_FLAGS: Wait until Fabioso (ID: 17834340/0x01102164) Render.Flags0 and Render.Flags3 conditions are met
 83: 0x078E [0x6E] Fabioso (ID: 17834340/0x01102164) uses emote 37*
 84: 0x0795 [0x99] Wait for Fabioso (ID: 17834340/0x01102164) animation to complete
 85: 0x079A [0x2B] Fabioso (ID: 17834340/0x01102164) [8253*]:
    → "Celestin, we talked about this! My Sweet Mama is the prettiest lady in the land, not yours!"
 86: 0x07A1 [0x1C] WAIT(120* ticks)
 87: 0x07A4 [0x23] WAIT_FOR_DIALOG_INTERACTION
 88: 0x07A5 [0x4A] Celestin (ID: 17834339/0x01102163) looks at Fabioso (ID: 17834340/0x01102164)
 89: 0x07AE [0x52] END_LOAD_SCHEDULER: End scheduler "s053" with entities [EventEntity, EventEntity], work=780*
 90: 0x07BD [0x45] LOAD_SCHEDULED_TASK: Load scheduler "s054" with entities [EventEntity, EventEntity], work=[780*, 0*]
 91: 0x07CE [0x6F] WAIT_FRAME_DELAY: Yield until WaitTime reaches zero
 92: 0x07CF [0x76] CHECK_ENTITY_RENDER_FLAGS: Wait until Celestin (ID: 17834339/0x01102163) Render.Flags0 and Render.Flags3 conditions are met
 93: 0x07D4 [0x66] LOAD_EXT_SCHEDULER_MAIN: Load scheduler "tlk0" with entities [Celestin (ID: 17834339/0x01102163), Celestin (ID: 17834339/0x01102163)], work=169*
 94: 0x07E3 [0x2B] Celestin (ID: 17834339/0x01102163) [8254*]:
    → "Don't make me remind you of what happened the last time we..."
 95: 0x07EA [0x1C] WAIT(120* ticks)
 96: 0x07ED [0x23] WAIT_FOR_DIALOG_INTERACTION
 97: 0x07EE [0x66] LOAD_EXT_SCHEDULER_MAIN: Load scheduler "tlk1" with entities [Celestin (ID: 17834339/0x01102163), Celestin (ID: 17834339/0x01102163)], work=169*
 98: 0x07FD [0x1C] WAIT(40* ticks)
 99: 0x0800 [0x4A] Celestin (ID: 17834339/0x01102163) looks at Tuffle-Buffle (ID: 17834336/0x01102160)
100: 0x0809 [0x4A] Fabioso (ID: 17834340/0x01102164) looks at Musto-Rusto (ID: 17834337/0x01102161)
101: 0x0812 [0x52] END_LOAD_SCHEDULER: End scheduler "s054" with entities [EventEntity, EventEntity], work=780*
102: 0x0821 [0x45] LOAD_SCHEDULED_TASK: Load scheduler "s055" with entities [EventEntity, EventEntity], work=[780*, 0*]
103: 0x0832 [0x6F] WAIT_FRAME_DELAY: Yield until WaitTime reaches zero
104: 0x0833 [0x76] CHECK_ENTITY_RENDER_FLAGS: Wait until Celestin (ID: 17834339/0x01102163) Render.Flags0 and Render.Flags3 conditions are met
105: 0x0838 [0x6E] Celestin (ID: 17834339/0x01102163) uses emote 0*
106: 0x083F [0x99] Wait for Celestin (ID: 17834339/0x01102163) animation to complete
107: 0x0844 [0x2B] Celestin (ID: 17834339/0x01102163) [8255*]:
    → "<Grumble> Here's your stupid doll. A Dashing Dreamer always pays his debts."
108: 0x084B [0x1C] WAIT(120* ticks)
109: 0x084E [0x23] WAIT_FOR_DIALOG_INTERACTION
110: 0x084F [0x52] END_LOAD_SCHEDULER: End scheduler "s055" with entities [EventEntity, EventEntity], work=780*
111: 0x085E [0x45] LOAD_SCHEDULED_TASK: Load scheduler "s056" with entities [EventEntity, EventEntity], work=[780*, 0*]
112: 0x086F [0x6E] Celestin (ID: 17834339/0x01102163) uses emote 44*
113: 0x0876 [0x99] Wait for Celestin (ID: 17834339/0x01102163) animation to complete
114: 0x087B [0x2B] Celestin (ID: 17834339/0x01102163) [8256*]:
    → "And you wanted some meat for your grinder? Then let me throw in a little something else--but you need to lay off the fat."
115: 0x0882 [0x1C] WAIT(60* ticks)
116: 0x0885 [0x4A] Tuffle-Buffle (ID: 17834336/0x01102160) looks at Celestin (ID: 17834339/0x01102163)
117: 0x088E [0x4A] Musto-Rusto (ID: 17834337/0x01102161) looks at Celestin (ID: 17834339/0x01102163)
118: 0x0897 [0x4A] LocalPlayer looks at Celestin (ID: 17834339/0x01102163)
119: 0x08A0 [0x1C] WAIT(60* ticks)
120: 0x08A3 [0x23] WAIT_FOR_DIALOG_INTERACTION
121: 0x08A4 [0x52] END_LOAD_SCHEDULER: End scheduler "s056" with entities [EventEntity, EventEntity], work=780*
122: 0x08B3 [0x45] LOAD_SCHEDULED_TASK: Load scheduler "s057" with entities [EventEntity, EventEntity], work=[780*, 0*]
123: 0x08C4 [0x6B] STOP_AND_IDLE: Tuffle-Buffle (ID: 17834336/0x01102160) stops current action and resets to idle (animation="idl0")
124: 0x08CD [0x1C] WAIT(60* ticks)
125: 0x08D0 [0x27] REQ_SET(priority=0x10, entity_id=Tuffle-Buffle (ID: 17834336/0x01102160), tag_num=0x05)
126: 0x08D7 [0x2B] Tuffle-Buffle (ID: 17834336/0x01102160) [8257*]:
    → "Oooh! A tasty treataru!"
127: 0x08DE [0x1C] WAIT(120* ticks)
128: 0x08E1 [0x23] WAIT_FOR_DIALOG_INTERACTION
129: 0x08E2 [0x2A] GET_REQ_LEVEL(level=16, entity_id=Tuffle-Buffle (ID: 17834336/0x01102160))
130: 0x08E8 [0x7B] Celestin (ID: 17834339/0x01102163) stops talking
131: 0x08ED [0x7B] Fabioso (ID: 17834340/0x01102164) stops talking
132: 0x08F2 [0x52] END_LOAD_SCHEDULER: End scheduler "s057" with entities [EventEntity, EventEntity], work=780*
133: 0x0901 [0x45] LOAD_SCHEDULED_TASK: Load scheduler "s058" with entities [EventEntity, EventEntity], work=[780*, 0*]
134: 0x0912 [0xAD] DUAL_ENTITY_SCHEDULER_HANDLER: Execute sub-case 0 with entities [Tuffle-Buffle (ID: 17834336/0x01102160), Tuffle-Buffle (ID: 17834336/0x01102160)], work=81*
135: 0x091E [0x1C] WAIT(240* ticks)
136: 0x0921 [0x2B] Tuffle-Buffle (ID: 17834336/0x01102160) [8258*]:
    → "What is... What is...!?"
137: 0x0928 [0x1C] WAIT(120* ticks)
138: 0x092B [0x23] WAIT_FOR_DIALOG_INTERACTION
139: 0x092C [0x52] END_LOAD_SCHEDULER: End scheduler "s058" with entities [EventEntity, EventEntity], work=780*
140: 0x093B [0x45] LOAD_SCHEDULED_TASK: Load scheduler "s059" with entities [EventEntity, EventEntity], work=[780*, 0*]
141: 0x094C [0x7B] Tuffle-Buffle (ID: 17834336/0x01102160) stops talking
142: 0x0951 [0x2C] CREATE_SCHEDULER_TASK: Create scheduler "dead" with entities [Tuffle-Buffle (ID: 17834336/0x01102160), Tuffle-Buffle (ID: 17834336/0x01102160)]
143: 0x095E [0x53] WAIT_SCHEDULER_TASK: Wait for scheduler "dead" with entities [Tuffle-Buffle (ID: 17834336/0x01102160), Tuffle-Buffle (ID: 17834336/0x01102160)]
144: 0x096B [0x1C] WAIT(90* ticks)
145: 0x096E [0x4A] Musto-Rusto (ID: 17834337/0x01102161) looks at Tuffle-Buffle (ID: 17834336/0x01102160)
146: 0x0977 [0x4A] LocalPlayer looks at Tuffle-Buffle (ID: 17834336/0x01102160)
147: 0x0980 [0x52] END_LOAD_SCHEDULER: End scheduler "s059" with entities [EventEntity, EventEntity], work=780*
148: 0x098F [0x45] LOAD_SCHEDULED_TASK: Load scheduler "s060" with entities [EventEntity, EventEntity], work=[780*, 0*]
149: 0x09A0 [0x6E] Celestin (ID: 17834339/0x01102163) uses emote 4*
150: 0x09A7 [0x99] Wait for Celestin (ID: 17834339/0x01102163) animation to complete
151: 0x09AC [0x6E] Fabioso (ID: 17834340/0x01102164) uses emote 4*
152: 0x09B3 [0x99] Wait for Fabioso (ID: 17834340/0x01102164) animation to complete
153: 0x09B8 [0x03] Work_Zone[2] = 5773*
154: 0x09BD [0x2B] Celestin (ID: 17834339/0x01102163) [8259*]:
    → "Hahaha! A special $0, made by yours truly! Hopefully you find it...palatable!"
155: 0x09C4 [0x1C] WAIT(120* ticks)
156: 0x09C7 [0x4A] Musto-Rusto (ID: 17834337/0x01102161) looks at Celestin (ID: 17834339/0x01102163)
157: 0x09D0 [0x4A] LocalPlayer looks at Celestin (ID: 17834339/0x01102163)
158: 0x09D9 [0x1C] WAIT(60* ticks)
159: 0x09DC [0x23] WAIT_FOR_DIALOG_INTERACTION
160: 0x09DD [0x52] END_LOAD_SCHEDULER: End scheduler "s060" with entities [EventEntity, EventEntity], work=780*
161: 0x09EC [0x45] LOAD_SCHEDULED_TASK: Load scheduler "s061" with entities [EventEntity, EventEntity], work=[780*, 0*]
162: 0x09FD [0x6F] WAIT_FRAME_DELAY: Yield until WaitTime reaches zero
163: 0x09FE [0x76] CHECK_ENTITY_RENDER_FLAGS: Wait until Musto-Rusto (ID: 17834337/0x01102161) Render.Flags0 and Render.Flags3 conditions are met
164: 0x0A03 [0x66] LOAD_EXT_SCHEDULER_MAIN: Load scheduler "shk0" with entities [Musto-Rusto (ID: 17834337/0x01102161), Musto-Rusto (ID: 17834337/0x01102161)], work=41*
165: 0x0A12 [0x7C] Musto-Rusto (ID: 17834337/0x01102161)->Render.Flags2 |= 0x00
166: 0x0A18 [0x2B] Musto-Rusto (ID: 17834337/0x01102161) [8260*]:
    → "Nooo!"
167: 0x0A1F [0x1C] WAIT(120* ticks)
168: 0x0A22 [0x23] WAIT_FOR_DIALOG_INTERACTION
169: 0x0A23 [0x7C] Musto-Rusto (ID: 17834337/0x01102161)->Render.Flags2 |= 0x01
170: 0x0A29 [0x4A] Fabioso (ID: 17834340/0x01102164) looks at Celestin (ID: 17834339/0x01102163)
171: 0x0A32 [0x52] END_LOAD_SCHEDULER: End scheduler "s061" with entities [EventEntity, EventEntity], work=780*
172: 0x0A41 [0x45] LOAD_SCHEDULED_TASK: Load scheduler "s063" with entities [EventEntity, EventEntity], work=[780*, 0*]
173: 0x0A52 [0x6F] WAIT_FRAME_DELAY: Yield until WaitTime reaches zero
174: 0x0A53 [0x76] CHECK_ENTITY_RENDER_FLAGS: Wait until Fabioso (ID: 17834340/0x01102164) Render.Flags0 and Render.Flags3 conditions are met
175: 0x0A58 [0x66] LOAD_EXT_SCHEDULER_MAIN: Load scheduler "tlk0" with entities [Fabioso (ID: 17834340/0x01102164), Fabioso (ID: 17834340/0x01102164)], work=149*
176: 0x0A67 [0x2B] Fabioso (ID: 17834340/0x01102164) [8261*]:
    → "Celestin, we need to have a chat about how my Sweet Mama's lustrous mane has as much volume as that coming out your mama's nose..."
177: 0x0A6E [0x1C] WAIT(120* ticks)
178: 0x0A71 [0x23] WAIT_FOR_DIALOG_INTERACTION
179: 0x0A72 [0x66] LOAD_EXT_SCHEDULER_MAIN: Load scheduler "tlk1" with entities [Fabioso (ID: 17834340/0x01102164), Fabioso (ID: 17834340/0x01102164)], work=149*
180: 0x0A81 [0x4A] Celestin (ID: 17834339/0x01102163) looks at Fabioso (ID: 17834340/0x01102164)
181: 0x0A8A [0x52] END_LOAD_SCHEDULER: End scheduler "s063" with entities [EventEntity, EventEntity], work=780*
182: 0x0A99 [0x45] LOAD_SCHEDULED_TASK: Load scheduler "s062" with entities [EventEntity, EventEntity], work=[780*, 0*]
183: 0x0AAA [0x6F] WAIT_FRAME_DELAY: Yield until WaitTime reaches zero
184: 0x0AAB [0x76] CHECK_ENTITY_RENDER_FLAGS: Wait until Celestin (ID: 17834339/0x01102163) Render.Flags0 and Render.Flags3 conditions are met
185: 0x0AB0 [0x6E] Celestin (ID: 17834339/0x01102163) uses emote 16*
186: 0x0AB7 [0x99] Wait for Celestin (ID: 17834339/0x01102163) animation to complete
187: 0x0ABC [0x2B] Celestin (ID: 17834339/0x01102163) [8262*]:
    → "Fabioso, my Big Mama is a pop star supreme! Next to her, yours is as flat as a wooden board!"
188: 0x0AC3 [0x1C] WAIT(120* ticks)
189: 0x0AC6 [0x23] WAIT_FOR_DIALOG_INTERACTION
190: 0x0AC7 [0x52] END_LOAD_SCHEDULER: End scheduler "s062" with entities [EventEntity, EventEntity], work=780*
191: 0x0AD6 [0x45] LOAD_SCHEDULED_TASK: Load scheduler "s064" with entities [EventEntity, EventEntity], work=[780*, 0*]
192: 0x0AE7 [0x1C] WAIT(60* ticks)
193: 0x0AEA [0xAD] DUAL_ENTITY_SCHEDULER_HANDLER: Execute sub-case 0 with entities [Celestin (ID: 17834339/0x01102163), Celestin (ID: 17834339/0x01102163)], work=80*
194: 0x0AF6 [0xAD] DUAL_ENTITY_SCHEDULER_HANDLER: Execute sub-case 0 with entities [Fabioso (ID: 17834340/0x01102164), Fabioso (ID: 17834340/0x01102164)], work=80*
195: 0x0B02 [0x1C] WAIT(240* ticks)
196: 0x0B05 [0x4A] Musto-Rusto (ID: 17834337/0x01102161) looks at Tuffle-Buffle (ID: 17834336/0x01102160)
197: 0x0B0E [0x4A] LocalPlayer looks at Tuffle-Buffle (ID: 17834336/0x01102160)
198: 0x0B17 [0x6F] WAIT_FRAME_DELAY: Yield until WaitTime reaches zero
199: 0x0B18 [0x76] CHECK_ENTITY_RENDER_FLAGS: Wait until Musto-Rusto (ID: 17834337/0x01102161) Render.Flags0 and Render.Flags3 conditions are met
200: 0x0B1D [0x27] REQ_SET(priority=0x10, entity_id=Musto-Rusto (ID: 17834337/0x01102161), tag_num=0x06)
201: 0x0B24 [0x1C] WAIT(10* ticks)
202: 0x0B27 [0x52] END_LOAD_SCHEDULER: End scheduler "s064" with entities [EventEntity, EventEntity], work=780*
203: 0x0B36 [0x45] LOAD_SCHEDULED_TASK: Load scheduler "s065" with entities [EventEntity, EventEntity], work=[780*, 0*]
204: 0x0B47 [0x2A] GET_REQ_LEVEL(level=16, entity_id=Musto-Rusto (ID: 17834337/0x01102161))
205: 0x0B4D [0x66] LOAD_EXT_SCHEDULER_MAIN: Load scheduler "sha0" with entities [Musto-Rusto (ID: 17834337/0x01102161), Musto-Rusto (ID: 17834337/0x01102161)], work=49*
206: 0x0B5C [0x1C] WAIT(180* ticks)
207: 0x0B5F [0x2B] Musto-Rusto (ID: 17834337/0x01102161) [8263*]:
    → "Tuffle-Buffle...!"
208: 0x0B66 [0x1C] WAIT(120* ticks)
209: 0x0B69 [0x23] WAIT_FOR_DIALOG_INTERACTION
210: 0x0B6A [0x66] LOAD_EXT_SCHEDULER_MAIN: Load scheduler "sha1" with entities [Musto-Rusto (ID: 17834337/0x01102161), Musto-Rusto (ID: 17834337/0x01102161)], work=49*
211: 0x0B79 [0x7B] Musto-Rusto (ID: 17834337/0x01102161) stops talking
212: 0x0B7E [0x52] END_LOAD_SCHEDULER: End scheduler "s065" with entities [EventEntity, EventEntity], work=780*
213: 0x0B8D [0x02] IF !(LocalPlayer->Race == 8*) GOTO 0x0BA9
214: 0x0B95 [0x45] LOAD_SCHEDULED_TASK: Load scheduler "sg66" with entities [EventEntity, EventEntity], work=[780*, 0*]
215: 0x0BA6 [0x01] GOTO 0x0BBA
216: 0x0BA9 [0x45] LOAD_SCHEDULED_TASK: Load scheduler "s066" with entities [EventEntity, EventEntity], work=[780*, 0*]

SUBROUTINE_0BBA:
217: 0x0BBA [0x53] WAIT_SCHEDULER_TASK: Wait for scheduler "sha1" with entities [Musto-Rusto (ID: 17834337/0x01102161), Musto-Rusto (ID: 17834337/0x01102161)]
218: 0x0BC7 [0x6E] Musto-Rusto (ID: 17834337/0x01102161) uses emote 6*
219: 0x0BCE [0x99] Wait for Musto-Rusto (ID: 17834337/0x01102161) animation to complete
220: 0x0BD3 [0x2B] Musto-Rusto (ID: 17834337/0x01102161) [8264*]:
    → "<Player>, he's got droopy-woopy eyes and they won't pop open!"
221: 0x0BDA [0x1C] WAIT(120* ticks)
222: 0x0BDD [0x23] WAIT_FOR_DIALOG_INTERACTION
223: 0x0BDE [0x1C] WAIT(120* ticks)
224: 0x0BE1 [0x6E] Musto-Rusto (ID: 17834337/0x01102161) uses emote 7*
225: 0x0BE8 [0x99] Wait for Musto-Rusto (ID: 17834337/0x01102161) animation to complete
226: 0x0BED [0x2B] Musto-Rusto (ID: 17834337/0x01102161) [8265*]:
    → "Aha! If I were ill, I know who I'd wantaru to take care of me--Svenja!"
227: 0x0BF4 [0x1C] WAIT(120* ticks)
228: 0x0BF7 [0x23] WAIT_FOR_DIALOG_INTERACTION
229: 0x0BF8 [0x4A] Musto-Rusto (ID: 17834337/0x01102161) looks at LocalPlayer
230: 0x0C01 [0x4A] LocalPlayer looks at Musto-Rusto (ID: 17834337/0x01102161)
231: 0x0C0A [0x02] IF !(LocalPlayer->Race == 5*) GOTO 0x0C35
232: 0x0C12 [0x52] END_LOAD_SCHEDULER: End scheduler "s066" with entities [EventEntity, EventEntity], work=780*
233: 0x0C21 [0x45] LOAD_SCHEDULED_TASK: Load scheduler "st67" with entities [EventEntity, EventEntity], work=[780*, 0*]
234: 0x0C32 [0x01] GOTO 0x0CAB
235: 0x0C35 [0x02] IF !(LocalPlayer->Race == 6*) GOTO 0x0C60
236: 0x0C3D [0x52] END_LOAD_SCHEDULER: End scheduler "s066" with entities [EventEntity, EventEntity], work=780*
237: 0x0C4C [0x45] LOAD_SCHEDULED_TASK: Load scheduler "st67" with entities [EventEntity, EventEntity], work=[780*, 0*]
238: 0x0C5D [0x01] GOTO 0x0CAB
239: 0x0C60 [0x02] IF !(LocalPlayer->Race == 8*) GOTO 0x0C8B
240: 0x0C68 [0x52] END_LOAD_SCHEDULER: End scheduler "sg66" with entities [EventEntity, EventEntity], work=780*
241: 0x0C77 [0x45] LOAD_SCHEDULED_TASK: Load scheduler "sg67" with entities [EventEntity, EventEntity], work=[780*, 0*]
242: 0x0C88 [0x01] GOTO 0x0CAB
243: 0x0C8B [0x52] END_LOAD_SCHEDULER: End scheduler "s066" with entities [EventEntity, EventEntity], work=780*
244: 0x0C9A [0x45] LOAD_SCHEDULED_TASK: Load scheduler "s067" with entities [EventEntity, EventEntity], work=[780*, 0*]

SUBROUTINE_0CAB:
245: 0x0CAB [0x6F] WAIT_FRAME_DELAY: Yield until WaitTime reaches zero
246: 0x0CAC [0x76] CHECK_ENTITY_RENDER_FLAGS: Wait until Musto-Rusto (ID: 17834337/0x01102161) Render.Flags0 and Render.Flags3 conditions are met
247: 0x0CB1 [0x66] LOAD_EXT_SCHEDULER_MAIN: Load scheduler "tlk0" with entities [Musto-Rusto (ID: 17834337/0x01102161), Musto-Rusto (ID: 17834337/0x01102161)], work=40*
248: 0x0CC0 [0x2B] Musto-Rusto (ID: 17834337/0x01102161) [8266*]:
    → "Yes, that's it! To the Order of Janniston we go!"
249: 0x0CC7 [0x1C] WAIT(180* ticks)
250: 0x0CCA [0x23] WAIT_FOR_DIALOG_INTERACTION
251: 0x0CCB [0x02] IF !(LocalPlayer->Race == 5*) GOTO 0x0CE5
252: 0x0CD3 [0x52] END_LOAD_SCHEDULER: End scheduler "st67" with entities [EventEntity, EventEntity], work=780*
253: 0x0CE2 [0x01] GOTO 0x0D28
254: 0x0CE5 [0x02] IF !(LocalPlayer->Race == 6*) GOTO 0x0CFF
255: 0x0CED [0x52] END_LOAD_SCHEDULER: End scheduler "st67" with entities [EventEntity, EventEntity], work=780*
256: 0x0CFC [0x01] GOTO 0x0D28
257: 0x0CFF [0x02] IF !(LocalPlayer->Race == 8*) GOTO 0x0D19
258: 0x0D07 [0x52] END_LOAD_SCHEDULER: End scheduler "sg67" with entities [EventEntity, EventEntity], work=780*
259: 0x0D16 [0x01] GOTO 0x0D28
260: 0x0D19 [0x52] END_LOAD_SCHEDULER: End scheduler "s067" with entities [EventEntity, EventEntity], work=780*

SUBROUTINE_0D28:
261: 0x0D28 [0x45] LOAD_SCHEDULED_TASK: Load scheduler "s068" with entities [EventEntity, EventEntity], work=[780*, 0*]
262: 0x0D39 [0x66] LOAD_EXT_SCHEDULER_MAIN: Load scheduler "tlk1" with entities [Musto-Rusto (ID: 17834337/0x01102161), Musto-Rusto (ID: 17834337/0x01102161)], work=40*
263: 0x0D48 [0x2B] Musto-Rusto (ID: 17834337/0x01102161) [8267*]:
    → "I'll lug Tuffle-Buffle to her manse, so in the meantime..."
264: 0x0D4F [0x1C] WAIT(120* ticks)
265: 0x0D52 [0x23] WAIT_FOR_DIALOG_INTERACTION
266: 0x0D53 [0x4A] Musto-Rusto (ID: 17834337/0x01102161) looks at Pupadi Dollmohr (ID: 17834338/0x01102162)
267: 0x0D5C [0x6F] WAIT_FRAME_DELAY: Yield until WaitTime reaches zero
268: 0x0D5D [0x76] CHECK_ENTITY_RENDER_FLAGS: Wait until Musto-Rusto (ID: 17834337/0x01102161) Render.Flags0 and Render.Flags3 conditions are met
269: 0x0D62 [0x1C] WAIT(10* ticks)
270: 0x0D65 [0x6E] Musto-Rusto (ID: 17834337/0x01102161) uses emote 0*
271: 0x0D6C [0x99] Wait for Musto-Rusto (ID: 17834337/0x01102161) animation to complete
272: 0x0D71 [0x2B] Musto-Rusto (ID: 17834337/0x01102161) [8268*]:
    → "...you take care of the mannequin!"
273: 0x0D78 [0x1C] WAIT(75* ticks)
274: 0x0D7B [0x52] END_LOAD_SCHEDULER: End scheduler "s068" with entities [EventEntity, EventEntity], work=780*
275: 0x0D8A [0x45] LOAD_SCHEDULED_TASK: Load scheduler "s069" with entities [EventEntity, EventEntity], work=[780*, 0*]
276: 0x0D9B [0x1C] WAIT(45* ticks)
277: 0x0D9E [0x23] WAIT_FOR_DIALOG_INTERACTION
278: 0x0D9F [0x1C] WAIT(120* ticks)
279: 0x0DA2 [0x4A] LocalPlayer looks at Pupadi Dollmohr (ID: 17834338/0x01102162)
280: 0x0DAB [0x52] END_LOAD_SCHEDULER: End scheduler "s069" with entities [EventEntity, EventEntity], work=780*
281: 0x0DBA [0x45] LOAD_SCHEDULED_TASK: Load scheduler "s070" with entities [EventEntity, EventEntity], work=[780*, 0*]
282: 0x0DCB [0x6F] WAIT_FRAME_DELAY: Yield until WaitTime reaches zero
283: 0x0DCC [0x76] CHECK_ENTITY_RENDER_FLAGS: Wait until LocalPlayer Render.Flags0 and Render.Flags3 conditions are met
284: 0x0DD1 [0x1C] WAIT(20* ticks)
285: 0x0DD4 [0xBA] SET_ENTITY_POSITION(entity_id=Fabioso (ID: 17834340/0x01102164), pos_x=0.000*, pos_z=0.000*, pos_y=0.000*, direction=0.0°*)
286: 0x0DE1 [0xAD] DUAL_ENTITY_SCHEDULER_HANDLER: Execute sub-case 0 with entities [Celestin (ID: 17834339/0x01102163), LocalPlayer], work=71*
287: 0x0DED [0x1C] WAIT(180* ticks)
288: 0x0DF0 [0x48] [System] [8269*]:
    → "You are left utterly speechless."
289: 0x0DF3 [0x1C] WAIT(240* ticks)
290: 0x0DF6 [0x45] LOAD_SCHEDULED_TASK: Load scheduler "fdo1" with entities [LocalPlayer, LocalPlayer], work=[200*, 0*]
291: 0x0E07 [0x55] WAIT_LOAD_SCHEDULER: Wait for scheduler "fdo1" with entities [LocalPlayer, LocalPlayer], work=200*
292: 0x0E16 [0x52] END_LOAD_SCHEDULER: End scheduler "s070" with entities [EventEntity, EventEntity], work=780*
293: 0x0E25 [0x78] ENABLE_GAME_TIMER_RESET_WEATHER()
294: 0x0E26 [0x1C] WAIT(15* ticks)
295: 0x0E29 [0xAB] EventEntity->DespawnValue = 0* // Set despawn value
296: 0x0E2D [0x1C] WAIT(1* ticks)
297: 0x0E30 [0x46] CAMERA_CONTROL: Restore default settings
298: 0x0E32 [0x45] LOAD_SCHEDULED_TASK: Load scheduler "fdi2" with entities [LocalPlayer, LocalPlayer], work=[200*, 0*]
299: 0x0E43 [0x21] END_EVENT
300: 0x0E44 [0x00] END_REQSTACK()
```

### Event 379

#### Metadata

| Field        | Value     |
|--------------|-----------|
| Entrypoint   | 0x0E45    |
| Data Size    | 743 bytes |
| Instructions | 98        |

```
      00 01 02 03 04 05 06 07  08 09 0A 0B 0C 0D 0E 0F
      -- -- -- -- -- -- -- --  -- -- -- -- -- -- -- --
0E40:                42 45 00  80 F0 FF FF 7F F0 FF FF       BE.........
0E50: 7F 66 64 6F 31 01 80 55  00 80 F0 FF FF 7F F0 FF  .fdo1..U........
0E60: FF 7F 66 64 6F 31 46 01  38 02 80 77 03 80 04 80  ..fdo1F.8..w....
0E70: 1C 04 80 94 01 61 21 10  01 94 01 60 21 10 01 94  .....a!....`!...
0E80: 01 62 21 10 01 94 01 63  21 10 01 94 01 64 21 10  .b!....c!....d!.
0E90: 01 94 01 F0 FF FF 7F 2F  00 60 21 10 01 2F 00 61  ......./.`!../.a
0EA0: 21 10 01 2F 00 62 21 10  01 2F 00 63 21 10 01 2F  !../.b!../.c!../
0EB0: 00 64 21 10 01 4E 00 60  21 10 01 4E 00 61 21 10  .d!..N.`!..N.a!.
0EC0: 01 4E 00 62 21 10 01 4E  00 63 21 10 01 4E 00 64  .N.b!..N.c!..N.d
0ED0: 21 10 01 4E 00 F0 FF FF  7F BA 62 21 10 01 2D 80  !..N......b!..-.
0EE0: 0A 80 0B 80 0C 80 BA 63  21 10 01 0D 80 06 80 0B  .......c!.......
0EF0: 80 0C 80 BA 64 21 10 01  0D 80 08 80 0B 80 0C 80  ....d!..........
0F00: 80 60 21 10 01 80 61 21  10 01 80 62 21 10 01 80  .`!...a!...b!...
0F10: 63 21 10 01 80 64 21 10  01 80 F0 FF FF 7F 1C 10  c!...d!.........
0F20: 80 2C 60 21 10 01 60 21  10 01 63 6F 72 70 53 60  .,`!..`!..corpS`
0F30: 21 10 01 60 21 10 01 63  6F 72 70 BA 60 21 10 01  !..`!..corp.`!..
0F40: 55 80 06 80 0B 80 01 80  2C 61 21 10 01 61 21 10  U.......,a!..a!.
0F50: 01 63 6F 72 70 53 61 21  10 01 61 21 10 01 63 6F  .corpSa!..a!..co
0F60: 72 70 BA 61 21 10 01 55  80 08 80 0B 80 01 80 2C  rp.a!..U.......,
0F70: F0 FF FF 7F F0 FF FF 7F  63 6F 72 70 53 F0 FF FF  ........corpS...
0F80: 7F F0 FF FF 7F 63 6F 72  70 BA F0 FF FF 7F 56 80  .....corp.....V.
0F90: 0A 80 0B 80 01 80 81 00  62 21 10 01 2C 62 21 10  ........b!..,b!.
0FA0: 01 62 21 10 01 72 65 73  31 4A 63 21 10 01 60 21  .b!..res1Jc!..`!
0FB0: 10 01 4A 64 21 10 01 61  21 10 01 1C 10 80 45 12  ..Jd!..a!.....E.
0FC0: 80 F8 FF FF 7F F8 FF FF  7F 73 30 38 30 01 80 45  .........s080..E
0FD0: 00 80 F0 FF FF 7F F0 FF  FF 7F 66 64 69 31 01 80  ..........fdi1..
0FE0: 1C 10 80 6E 63 21 10 01  3D 80 99 63 21 10 01 6E  ...nc!..=..c!..n
0FF0: 64 21 10 01 3D 80 99 64  21 10 01 2B 63 21 10 01  d!..=..d!..+c!..
1000: 57 80 1C 23 80 23 52 12  80 F8 FF FF 7F F8 FF FF  W..#.#R.........
1010: 7F 73 30 38 30 45 12 80  F8 FF FF 7F F8 FF FF 7F  .s080E..........
1020: 73 30 38 31 01 80 2B 64  21 10 01 58 80 1C 1B 80  s081..+d!..X....
1030: 23 2B 63 21 10 01 59 80  1C 1B 80 23 4A 63 21 10  #+c!..Y....#Jc!.
1040: 01 F0 FF FF 7F 52 12 80  F8 FF FF 7F F8 FF FF 7F  .....R..........
1050: 73 30 38 31 45 12 80 F8  FF FF 7F F8 FF FF 7F 73  s081E..........s
1060: 30 38 32 01 80 6F 76 63  21 10 01 1C 17 80 66 28  082..ovc!.....f(
1070: 80 63 21 10 01 63 21 10  01 74 68 6B 31 2B 63 21  .c!..c!..thk1+c!
1080: 10 01 5A 80 1C 23 80 23  66 28 80 63 21 10 01 63  ..Z..#.#f(.c!..c
1090: 21 10 01 74 68 6B 32 52  12 80 F8 FF FF 7F F8 FF  !..thk2R........
10A0: FF 7F 73 30 38 32 45 12  80 F8 FF FF 7F F8 FF FF  ..s082E.........
10B0: 7F 73 30 38 33 01 80 4A  64 21 10 01 62 21 10 01  .s083..Jd!..b!..
10C0: 6F 76 64 21 10 01 6E 64  21 10 01 4A 80 99 64 21  ovd!..nd!..J..d!
10D0: 10 01 2B 64 21 10 01 5B  80 1C 23 80 23 45 00 80  ..+d!..[..#.#E..
10E0: F0 FF FF 7F F0 FF FF 7F  66 64 6F 31 01 80 55 00  ........fdo1..U.
10F0: 80 F0 FF FF 7F F0 FF FF  7F 66 64 6F 31 52 12 80  .........fdo1R..
1100: F8 FF FF 7F F8 FF FF 7F  73 30 38 33 78 1C 2A 80  ........s083x.*.
1110: AB 11 01 80 1C 04 80 46  00 45 00 80 F0 FF FF 7F  .......F.E......
1120: F0 FF FF 7F 66 64 69 32  01 80 21 00              ....fdi2..!.    
```

#### Opcodes

```
  0: 0x0E45 [0x42] SET_CLI_EVENT_CANCEL_DATA()
  1: 0x0E46 [0x45] LOAD_SCHEDULED_TASK: Load scheduler "fdo1" with entities [LocalPlayer, LocalPlayer], work=[200*, 0*]
  2: 0x0E57 [0x55] WAIT_LOAD_SCHEDULER: Wait for scheduler "fdo1" with entities [LocalPlayer, LocalPlayer], work=200*
  3: 0x0E66 [0x46] CAMERA_CONTROL: Disable user control
  4: 0x0E68 [0x38] SET_CLIENT_EVENT_MODE(mode=19*)
  5: 0x0E6B [0x77] SET_EVENT_TIME_WEATHER(hour=255*, weather=1*)
  6: 0x0E70 [0x1C] WAIT(1* ticks)
  7: 0x0E73 [0x94] Musto-Rusto (ID: 17834337/0x01102161)->Render.Flags3 ^= 0x01
  8: 0x0E79 [0x94] Tuffle-Buffle (ID: 17834336/0x01102160)->Render.Flags3 ^= 0x01
  9: 0x0E7F [0x94] Pupadi Dollmohr (ID: 17834338/0x01102162)->Render.Flags3 ^= 0x01
 10: 0x0E85 [0x94] Celestin (ID: 17834339/0x01102163)->Render.Flags3 ^= 0x01
 11: 0x0E8B [0x94] Fabioso (ID: 17834340/0x01102164)->Render.Flags3 ^= 0x01
 12: 0x0E91 [0x94] LocalPlayer->Render.Flags3 ^= 0x01
 13: 0x0E97 [0x2F] Tuffle-Buffle (ID: 17834336/0x01102160)->Render.Flags0 &= ~0x80000 // Bit 19
 14: 0x0E9D [0x2F] Musto-Rusto (ID: 17834337/0x01102161)->Render.Flags0 &= ~0x80000 // Bit 19
 15: 0x0EA3 [0x2F] Pupadi Dollmohr (ID: 17834338/0x01102162)->Render.Flags0 &= ~0x80000 // Bit 19
 16: 0x0EA9 [0x2F] Celestin (ID: 17834339/0x01102163)->Render.Flags0 &= ~0x80000 // Bit 19
 17: 0x0EAF [0x2F] Fabioso (ID: 17834340/0x01102164)->Render.Flags0 &= ~0x80000 // Bit 19
 18: 0x0EB5 [0x4E] SET_ENTITY_HIDE_FLAG: Show Tuffle-Buffle (ID: 17834336/0x01102160)
 19: 0x0EBB [0x4E] SET_ENTITY_HIDE_FLAG: Show Musto-Rusto (ID: 17834337/0x01102161)
 20: 0x0EC1 [0x4E] SET_ENTITY_HIDE_FLAG: Show Pupadi Dollmohr (ID: 17834338/0x01102162)
 21: 0x0EC7 [0x4E] SET_ENTITY_HIDE_FLAG: Show Celestin (ID: 17834339/0x01102163)
 22: 0x0ECD [0x4E] SET_ENTITY_HIDE_FLAG: Show Fabioso (ID: 17834340/0x01102164)
 23: 0x0ED3 [0x4E] SET_ENTITY_HIDE_FLAG: Show LocalPlayer
 24: 0x0ED9 [0xBA] SET_ENTITY_POSITION(entity_id=Pupadi Dollmohr (ID: 17834338/0x01102162), pos_x=367.000*, pos_z=-400.000*, pos_y=-12.510*, direction=179.9°*)
 25: 0x0EE6 [0xBA] SET_ENTITY_POSITION(entity_id=Celestin (ID: 17834339/0x01102163), pos_x=365.300*, pos_z=-399.000*, pos_y=-12.510*, direction=179.9°*)
 26: 0x0EF3 [0xBA] SET_ENTITY_POSITION(entity_id=Fabioso (ID: 17834340/0x01102164), pos_x=365.300*, pos_z=-401.000*, pos_y=-12.510*, direction=179.9°*)
 27: 0x0F00 [0x80] LOAD_WAIT(entity=Tuffle-Buffle (ID: 17834336/0x01102160))
 28: 0x0F05 [0x80] LOAD_WAIT(entity=Musto-Rusto (ID: 17834337/0x01102161))
 29: 0x0F0A [0x80] LOAD_WAIT(entity=Pupadi Dollmohr (ID: 17834338/0x01102162))
 30: 0x0F0F [0x80] LOAD_WAIT(entity=Celestin (ID: 17834339/0x01102163))
 31: 0x0F14 [0x80] LOAD_WAIT(entity=Fabioso (ID: 17834340/0x01102164))
 32: 0x0F19 [0x80] LOAD_WAIT(entity=LocalPlayer)
 33: 0x0F1E [0x1C] WAIT(30* ticks)
 34: 0x0F21 [0x2C] CREATE_SCHEDULER_TASK: Create scheduler "corp" with entities [Tuffle-Buffle (ID: 17834336/0x01102160), Tuffle-Buffle (ID: 17834336/0x01102160)]
 35: 0x0F2E [0x53] WAIT_SCHEDULER_TASK: Wait for scheduler "corp" with entities [Tuffle-Buffle (ID: 17834336/0x01102160), Tuffle-Buffle (ID: 17834336/0x01102160)]
 36: 0x0F3B [0xBA] SET_ENTITY_POSITION(entity_id=Tuffle-Buffle (ID: 17834336/0x01102160), pos_x=363.000*, pos_z=-399.000*, pos_y=-12.510*, direction=0.0°*)
 37: 0x0F48 [0x2C] CREATE_SCHEDULER_TASK: Create scheduler "corp" with entities [Musto-Rusto (ID: 17834337/0x01102161), Musto-Rusto (ID: 17834337/0x01102161)]
 38: 0x0F55 [0x53] WAIT_SCHEDULER_TASK: Wait for scheduler "corp" with entities [Musto-Rusto (ID: 17834337/0x01102161), Musto-Rusto (ID: 17834337/0x01102161)]
 39: 0x0F62 [0xBA] SET_ENTITY_POSITION(entity_id=Musto-Rusto (ID: 17834337/0x01102161), pos_x=363.000*, pos_z=-401.000*, pos_y=-12.510*, direction=0.0°*)
 40: 0x0F6F [0x2C] CREATE_SCHEDULER_TASK: Create scheduler "corp" with entities [LocalPlayer, LocalPlayer]
 41: 0x0F7C [0x53] WAIT_SCHEDULER_TASK: Wait for scheduler "corp" with entities [LocalPlayer, LocalPlayer]
 42: 0x0F89 [0xBA] SET_ENTITY_POSITION(entity_id=LocalPlayer, pos_x=361.500*, pos_z=-400.000*, pos_y=-12.510*, direction=0.0°*)
 43: 0x0F96 [0x81] SET_ENTITY_BLINKING(blink_flag=0x00, entity=Pupadi Dollmohr (ID: 17834338/0x01102162))
 44: 0x0F9C [0x2C] CREATE_SCHEDULER_TASK: Create scheduler "res1" with entities [Pupadi Dollmohr (ID: 17834338/0x01102162), Pupadi Dollmohr (ID: 17834338/0x01102162)]
 45: 0x0FA9 [0x4A] Celestin (ID: 17834339/0x01102163) looks at Tuffle-Buffle (ID: 17834336/0x01102160)
 46: 0x0FB2 [0x4A] Fabioso (ID: 17834340/0x01102164) looks at Musto-Rusto (ID: 17834337/0x01102161)
 47: 0x0FBB [0x1C] WAIT(30* ticks)
 48: 0x0FBE [0x45] LOAD_SCHEDULED_TASK: Load scheduler "s080" with entities [EventEntity, EventEntity], work=[780*, 0*]
 49: 0x0FCF [0x45] LOAD_SCHEDULED_TASK: Load scheduler "fdi1" with entities [LocalPlayer, LocalPlayer], work=[200*, 0*]
 50: 0x0FE0 [0x1C] WAIT(30* ticks)
 51: 0x0FE3 [0x6E] Celestin (ID: 17834339/0x01102163) uses emote 4*
 52: 0x0FEA [0x99] Wait for Celestin (ID: 17834339/0x01102163) animation to complete
 53: 0x0FEF [0x6E] Fabioso (ID: 17834340/0x01102164) uses emote 4*
 54: 0x0FF6 [0x99] Wait for Fabioso (ID: 17834340/0x01102164) animation to complete
 55: 0x0FFB [0x2B] Celestin (ID: 17834339/0x01102163) [8270*]:
    → "Hehehe! Life must be so difficult when your face looks like a dhalmel stomped on it."
 56: 0x1002 [0x1C] WAIT(180* ticks)
 57: 0x1005 [0x23] WAIT_FOR_DIALOG_INTERACTION
 58: 0x1006 [0x52] END_LOAD_SCHEDULER: End scheduler "s080" with entities [EventEntity, EventEntity], work=780*
 59: 0x1015 [0x45] LOAD_SCHEDULED_TASK: Load scheduler "s081" with entities [EventEntity, EventEntity], work=[780*, 0*]
 60: 0x1026 [0x2B] Fabioso (ID: 17834340/0x01102164) [8271*]:
    → "Now, to stuff these two into barrels and get them boarded for their fabulous journey."
 61: 0x102D [0x1C] WAIT(120* ticks)
 62: 0x1030 [0x23] WAIT_FOR_DIALOG_INTERACTION
 63: 0x1031 [0x2B] Celestin (ID: 17834339/0x01102163) [8272*]:
    → "Boat heading for Nowheresville, population: two!"
 64: 0x1038 [0x1C] WAIT(120* ticks)
 65: 0x103B [0x23] WAIT_FOR_DIALOG_INTERACTION
 66: 0x103C [0x4A] Celestin (ID: 17834339/0x01102163) looks at LocalPlayer
 67: 0x1045 [0x52] END_LOAD_SCHEDULER: End scheduler "s081" with entities [EventEntity, EventEntity], work=780*
 68: 0x1054 [0x45] LOAD_SCHEDULED_TASK: Load scheduler "s082" with entities [EventEntity, EventEntity], work=[780*, 0*]
 69: 0x1065 [0x6F] WAIT_FRAME_DELAY: Yield until WaitTime reaches zero
 70: 0x1066 [0x76] CHECK_ENTITY_RENDER_FLAGS: Wait until Celestin (ID: 17834339/0x01102163) Render.Flags0 and Render.Flags3 conditions are met
 71: 0x106B [0x1C] WAIT(10* ticks)
 72: 0x106E [0x66] LOAD_EXT_SCHEDULER_MAIN: Load scheduler "thk1" with entities [Celestin (ID: 17834339/0x01102163), Celestin (ID: 17834339/0x01102163)], work=29*
 73: 0x107D [0x2B] Celestin (ID: 17834339/0x01102163) [8273*]:
    → "And as for you--well, we only brought two barrels, so promise not to show your face around here anymore and we'll call it square."
 74: 0x1084 [0x1C] WAIT(180* ticks)
 75: 0x1087 [0x23] WAIT_FOR_DIALOG_INTERACTION
 76: 0x1088 [0x66] LOAD_EXT_SCHEDULER_MAIN: Load scheduler "thk2" with entities [Celestin (ID: 17834339/0x01102163), Celestin (ID: 17834339/0x01102163)], work=29*
 77: 0x1097 [0x52] END_LOAD_SCHEDULER: End scheduler "s082" with entities [EventEntity, EventEntity], work=780*
 78: 0x10A6 [0x45] LOAD_SCHEDULED_TASK: Load scheduler "s083" with entities [EventEntity, EventEntity], work=[780*, 0*]
 79: 0x10B7 [0x4A] Fabioso (ID: 17834340/0x01102164) looks at Pupadi Dollmohr (ID: 17834338/0x01102162)
 80: 0x10C0 [0x6F] WAIT_FRAME_DELAY: Yield until WaitTime reaches zero
 81: 0x10C1 [0x76] CHECK_ENTITY_RENDER_FLAGS: Wait until Fabioso (ID: 17834340/0x01102164) Render.Flags0 and Render.Flags3 conditions are met
 82: 0x10C6 [0x6E] Fabioso (ID: 17834340/0x01102164) uses emote 7*
 83: 0x10CD [0x99] Wait for Fabioso (ID: 17834340/0x01102164) animation to complete
 84: 0x10D2 [0x2B] Fabioso (ID: 17834340/0x01102164) [8274*]:
    → "No one will ever find this stupid prop within the recesses of the nearby depository..."
 85: 0x10D9 [0x1C] WAIT(180* ticks)
 86: 0x10DC [0x23] WAIT_FOR_DIALOG_INTERACTION
 87: 0x10DD [0x45] LOAD_SCHEDULED_TASK: Load scheduler "fdo1" with entities [LocalPlayer, LocalPlayer], work=[200*, 0*]
 88: 0x10EE [0x55] WAIT_LOAD_SCHEDULER: Wait for scheduler "fdo1" with entities [LocalPlayer, LocalPlayer], work=200*
 89: 0x10FD [0x52] END_LOAD_SCHEDULER: End scheduler "s083" with entities [EventEntity, EventEntity], work=780*
 90: 0x110C [0x78] ENABLE_GAME_TIMER_RESET_WEATHER()
 91: 0x110D [0x1C] WAIT(15* ticks)
 92: 0x1110 [0xAB] EventEntity->DespawnValue = 0* // Set despawn value
 93: 0x1114 [0x1C] WAIT(1* ticks)
 94: 0x1117 [0x46] CAMERA_CONTROL: Restore default settings
 95: 0x1119 [0x45] LOAD_SCHEDULED_TASK: Load scheduler "fdi2" with entities [LocalPlayer, LocalPlayer], work=[200*, 0*]
 96: 0x112A [0x21] END_EVENT
 97: 0x112B [0x00] END_REQSTACK()
```

### Event 383

#### Metadata

| Field        | Value      |
|--------------|------------|
| Entrypoint   | 0x112C     |
| Data Size    | 3399 bytes |
| Instructions | 347        |

```
      00 01 02 03 04 05 06 07  08 09 0A 0B 0C 0D 0E 0F
      -- -- -- -- -- -- -- --  -- -- -- -- -- -- -- --
1120:                                      42 45 00 80              BE..
1130: F0 FF FF 7F F0 FF FF 7F  66 64 6F 31 01 80 55 00  ........fdo1..U.
1140: 80 F0 FF FF 7F F0 FF FF  7F 66 64 6F 31 46 01 38  .........fdo1F.8
1150: 02 80 77 03 80 04 80 1C  04 80 2F 00 73 21 10 01  ..w......./.s!..
1160: 2F 00 74 21 10 01 2F 00  75 21 10 01 4E 00 73 21  /.t!../.u!..N.s!
1170: 10 01 4E 00 75 21 10 01  59 05 73 21 10 01 01 94  ..N.u!..Y.s!....
1180: 01 73 21 10 01 94 01 74  21 10 01 94 01 75 21 10  .s!....t!....u!.
1190: 01 BA 73 21 10 01 5C 80  5D 80 5E 80 5F 80 BA 75  ..s!..\.].^._..u
11A0: 21 10 01 60 80 61 80 62  80 5F 80 BA F0 FF FF 7F  !..`.a.b._......
11B0: 63 80 64 80 62 80 65 80  5B 66 80 73 21 10 01 73  c.d.b.e.[f.s!..s
11C0: 21 10 01 74 61 72 31 4A  40 21 10 01 75 21 10 01  !..tar1J@!..u!..
11D0: 4A 73 21 10 01 40 21 10  01 4A 75 21 10 01 40 21  Js!..@!..Ju!..@!
11E0: 10 01 7B 73 21 10 01 7B  75 21 10 01 4A F0 FF FF  ..{s!..{u!..J...
11F0: 7F 40 21 10 01 7B F0 FF  FF 7F 29 10 F0 FF FF 7F  .@!..{....).....
1200: 2C 80 73 21 10 01 80 75  21 10 01 1C 11 80 02 87  ,.s!...u!.......
1210: 7F 67 80 80 2A 12 45 68  80 F8 FF FF 7F F8 FF FF  .g..*.Eh........
1220: 7F 73 67 30 30 01 80 01  8F 12 02 87 7F 4C 80 80  .sg00........L..
1230: 46 12 45 68 80 F8 FF FF  7F F8 FF FF 7F 73 74 30  F.Eh.........st0
1240: 30 01 80 01 8F 12 02 87  7F 48 80 80 62 12 45 68  0........H..b.Eh
1250: 80 F8 FF FF 7F F8 FF FF  7F 73 74 30 30 01 80 01  .........st00...
1260: 8F 12 02 87 7F 47 80 80  7E 12 45 68 80 F8 FF FF  .....G..~.Eh....
1270: 7F F8 FF FF 7F 73 67 30  30 01 80 01 8F 12 45 68  .....sg00.....Eh
1280: 80 F8 FF FF 7F F8 FF FF  7F 73 30 30 30 01 80 45  .........s000..E
1290: 00 80 F0 FF FF 7F F0 FF  FF 7F 66 64 69 31 01 80  ..........fdi1..
12A0: 1C 23 80 52 68 80 F8 FF  FF 7F F8 FF FF 7F 73 30  .#.Rh.........s0
12B0: 30 30 52 68 80 F8 FF FF  7F F8 FF FF 7F 73 74 30  00Rh.........st0
12C0: 30 52 68 80 F8 FF FF 7F  F8 FF FF 7F 73 67 30 30  0Rh.........sg00
12D0: 45 68 80 F8 FF FF 7F F8  FF FF 7F 73 30 30 31 01  Eh.........s001.
12E0: 80 1C 10 80 66 25 80 40  21 10 01 40 21 10 01 74  ....f%.@!..@!..t
12F0: 6C 6B 30 1C 3C 80 66 25  80 40 21 10 01 40 21 10  lk0.<.f%.@!..@!.
1300: 01 74 6C 6B 31 5B 69 80  75 21 10 01 75 21 10 01  .tlk1[i.u!..u!..
1310: 74 6C 6B 30 1C 3C 80 5B  69 80 75 21 10 01 75 21  tlk0.<.[i.u!..u!
1320: 10 01 74 6C 6B 31 1C 11  80 45 00 80 F0 FF FF 7F  ..tlk1...E......
1330: F0 FF FF 7F 66 64 6F 31  01 80 55 00 80 F0 FF FF  ....fdo1..U.....
1340: 7F F0 FF FF 7F 66 64 6F  31 48 6A 80 7B 40 21 10  .....fdo1Hj.{@!.
1350: 01 BA 40 21 10 01 6B 80  6C 80 62 80 01 80 66 25  ..@!..k.l.b...f%
1360: 80 40 21 10 01 40 21 10  01 73 68 61 30 6B 69 64  .@!..@!..sha0kid
1370: 6C 30 73 21 10 01 BA 73  21 10 01 6D 80 6E 80 6F  l0s!...s!..m.n.o
1380: 80 70 80 BA 75 21 10 01  6D 80 6E 80 62 80 70 80  .p..u!..m.n.b.p.
1390: 4E 00 74 21 10 01 BA 74  21 10 01 71 80 72 80 62  N.t!...t!..q.r.b
13A0: 80 73 80 80 74 21 10 01  1C 11 80 27 10 74 21 10  .s..t!.....'.t!.
13B0: 01 13 27 10 73 21 10 01  1B 27 10 75 21 10 01 10  ..'.s!...'.u!...
13C0: 52 68 80 F8 FF FF 7F F8  FF FF 7F 73 30 30 31 45  Rh.........s001E
13D0: 68 80 F8 FF FF 7F F8 FF  FF 7F 73 30 30 32 01 80  h.........s002..
13E0: 45 00 80 F0 FF FF 7F F0  FF FF 7F 66 64 69 31 01  E..........fdi1.
13F0: 80 1C 23 80 52 68 80 F8  FF FF 7F F8 FF FF 7F 73  ..#.Rh.........s
1400: 30 30 32 45 68 80 F8 FF  FF 7F F8 FF FF 7F 73 30  002Eh.........s0
1410: 30 33 01 80 2A 10 74 21  10 01 2B 74 21 10 01 74  03..*.t!..+t!..t
1420: 80 23 1C 11 80 5B 75 80  74 21 10 01 74 21 10 01  .#...[u.t!..t!..
1430: 73 74 64 30 03 02 10 76  80 2B 74 21 10 01 77 80  std0...v.+t!..w.
1440: 23 1C 3C 80 52 68 80 F8  FF FF 7F F8 FF FF 7F 73  #.<.Rh.........s
1450: 30 30 33 45 68 80 F8 FF  FF 7F F8 FF FF 7F 73 30  003Eh.........s0
1460: 30 34 01 80 66 25 80 40  21 10 01 40 21 10 01 73  04..f%.@!..@!..s
1470: 68 61 31 53 40 21 10 01  40 21 10 01 73 68 61 31  ha1S@!..@!..sha1
1480: 1C 2A 80 4A 40 21 10 01  74 21 10 01 1C 2A 80 27  .*.J@!..t!...*.'
1490: 10 40 21 10 01 17 2B 40  21 10 01 78 80 2A 10 40  .@!...+@!..x.*.@
14A0: 21 10 01 23 1C 11 80 52  68 80 F8 FF FF 7F F8 FF  !..#...Rh.......
14B0: FF 7F 73 30 30 34 45 68  80 F8 FF FF 7F F8 FF FF  ..s004Eh........
14C0: 7F 73 30 30 35 01 80 66  19 80 40 21 10 01 40 21  .s005..f..@!..@!
14D0: 10 01 74 68 6B 31 2B 40  21 10 01 79 80 1C 1B 80  ..thk1+@!..y....
14E0: 23 66 7A 80 40 21 10 01  40 21 10 01 74 6C 6B 30  #fz.@!..@!..tlk0
14F0: 2B 40 21 10 01 7B 80 1C  1B 80 23 66 7A 80 40 21  +@!..{....#fz.@!
1500: 10 01 40 21 10 01 74 6C  6B 31 52 68 80 F8 FF FF  ..@!..tlk1Rh....
1510: 7F F8 FF FF 7F 73 30 30  35 45 68 80 F8 FF FF 7F  .....s005Eh.....
1520: F8 FF FF 7F 73 30 30 36  01 80 2B 74 21 10 01 7C  ....s006..+t!..|
1530: 80 23 1C 3C 80 7B 74 21  10 01 27 10 74 21 10 01  .#.<.{t!..'.t!..
1540: 14 1C 1B 80 52 68 80 F8  FF FF 7F F8 FF FF 7F 73  ....Rh.........s
1550: 30 30 36 02 87 7F 67 80  80 6F 15 45 68 80 F8 FF  006...g..o.Eh...
1560: FF 7F F8 FF FF 7F 73 67  30 37 01 80 01 D4 15 02  ......sg07......
1570: 87 7F 4C 80 80 8B 15 45  68 80 F8 FF FF 7F F8 FF  ..L....Eh.......
1580: FF 7F 73 74 30 37 01 80  01 D4 15 02 87 7F 48 80  ..st07........H.
1590: 80 A7 15 45 68 80 F8 FF  FF 7F F8 FF FF 7F 73 74  ...Eh.........st
15A0: 30 37 01 80 01 D4 15 02  87 7F 47 80 80 C3 15 45  07........G....E
15B0: 68 80 F8 FF FF 7F F8 FF  FF 7F 73 67 30 37 01 80  h.........sg07..
15C0: 01 D4 15 45 68 80 F8 FF  FF 7F F8 FF FF 7F 73 30  ...Eh.........s0
15D0: 30 37 01 80 1C 1B 80 66  19 80 40 21 10 01 40 21  07.....f..@!..@!
15E0: 10 01 64 69 73 30 2B 40  21 10 01 7D 80 1C 23 80  ..dis0+@!..}..#.
15F0: 23 45 00 80 F0 FF FF 7F  F0 FF FF 7F 66 64 6F 31  #E..........fdo1
1600: 01 80 55 00 80 F0 FF FF  7F F0 FF FF 7F 66 64 6F  ..U..........fdo
1610: 31 48 6A 80 4E 01 73 21  10 01 4E 01 75 21 10 01  1Hj.N.s!..N.u!..
1620: 59 05 73 21 10 01 00 4E  01 74 21 10 01 BA F0 FF  Y.s!...N.t!.....
1630: FF 7F 7E 80 7F 80 62 80  80 80 29 10 F0 FF FF 7F  ..~...b...).....
1640: 2D 2A 10 F0 FF FF 7F 27  10 F0 FF FF 7F 30 1C 11  -*.....'.....0..
1650: 80 52 68 80 F8 FF FF 7F  F8 FF FF 7F 73 30 30 37  .Rh.........s007
1660: 52 68 80 F8 FF FF 7F F8  FF FF 7F 73 74 30 37 52  Rh.........st07R
1670: 68 80 F8 FF FF 7F F8 FF  FF 7F 73 67 30 37 45 68  h.........sg07Eh
1680: 80 F8 FF FF 7F F8 FF FF  7F 73 30 30 38 01 80 45  .........s008..E
1690: 00 80 F0 FF FF 7F F0 FF  FF 7F 66 64 69 31 01 80  ..........fdi1..
16A0: 2A 10 F0 FF FF 7F 4A F0  FF FF 7F 40 21 10 01 6F  *.....J....@!..o
16B0: 76 F0 FF FF 7F 1C 2A 80  52 68 80 F8 FF FF 7F F8  v.....*.Rh......
16C0: FF FF 7F 73 30 30 38 02  87 7F 67 80 80 E3 16 45  ...s008...g....E
16D0: 68 80 F8 FF FF 7F F8 FF  FF 7F 73 67 30 39 01 80  h.........sg09..
16E0: 01 48 17 02 87 7F 4C 80  80 FF 16 45 68 80 F8 FF  .H....L....Eh...
16F0: FF 7F F8 FF FF 7F 73 74  30 39 01 80 01 48 17 02  ......st09...H..
1700: 87 7F 48 80 80 1B 17 45  68 80 F8 FF FF 7F F8 FF  ..H....Eh.......
1710: FF 7F 73 74 30 39 01 80  01 48 17 02 87 7F 47 80  ..st09...H....G.
1720: 80 37 17 45 68 80 F8 FF  FF 7F F8 FF FF 7F 73 67  .7.Eh.........sg
1730: 30 39 01 80 01 48 17 45  68 80 F8 FF FF 7F F8 FF  09...H.Eh.......
1740: FF 7F 73 30 30 39 01 80  4A 40 21 10 01 F0 FF FF  ..s009..J@!.....
1750: 7F 6F 76 40 21 10 01 66  81 80 40 21 10 01 40 21  .ov@!..f..@!..@!
1760: 10 01 62 69 6B 30 2B 40  21 10 01 82 80 1C 1B 80  ..bik0+@!.......
1770: 23 66 81 80 40 21 10 01  40 21 10 01 62 69 6B 31  #f..@!..@!..bik1
1780: 1C 10 80 66 25 80 40 21  10 01 40 21 10 01 74 6C  ...f%.@!..@!..tl
1790: 6B 30 2B 40 21 10 01 83  80 1C 3C 80 23 66 25 80  k0+@!.....<.#f%.
17A0: 40 21 10 01 40 21 10 01  74 6C 6B 31 06 00 00 24  @!..@!..tlk1...$
17B0: 84 80 01 80 00 00 25 02  00 10 01 80 00 95 1A 7B  ......%........{
17C0: 40 21 10 01 52 68 80 F8  FF FF 7F F8 FF FF 7F 73  @!..Rh.........s
17D0: 30 30 39 45 68 80 F8 FF  FF 7F F8 FF FF 7F 73 30  009Eh.........s0
17E0: 31 35 01 80 66 19 80 40  21 10 01 40 21 10 01 74  15..f..@!..@!..t
17F0: 68 6B 31 2B 40 21 10 01  85 80 1C 1B 80 23 52 68  hk1+@!.......#Rh
1800: 80 F8 FF FF 7F F8 FF FF  7F 73 30 31 35 45 68 80  .........s015Eh.
1810: F8 FF FF 7F F8 FF FF 7F  73 30 31 36 01 80 66 25  ........s016..f%
1820: 80 40 21 10 01 40 21 10  01 74 6C 6B 30 2B 40 21  .@!..@!..tlk0+@!
1830: 10 01 86 80 23 2B 40 21  10 01 87 80 1C 1B 80 23  ....#+@!.......#
1840: 66 25 80 40 21 10 01 40  21 10 01 74 6C 6B 31 79  f%.@!..@!..tlk1y
1850: 00 40 21 10 01 F0 FF FF  7F 52 68 80 F8 FF FF 7F  .@!......Rh.....
1860: F8 FF FF 7F 73 30 31 36  45 68 80 F8 FF FF 7F F8  ....s016Eh......
1870: FF FF 7F 73 30 31 37 01  80 66 7A 80 40 21 10 01  ...s017..fz.@!..
1880: 40 21 10 01 74 6C 6B 30  2B 40 21 10 01 88 80 23  @!..tlk0+@!....#
1890: 2B 40 21 10 01 89 80 1C  1B 80 23 66 7A 80 40 21  +@!.......#fz.@!
18A0: 10 01 40 21 10 01 74 6C  6B 31 52 68 80 F8 FF FF  ..@!..tlk1Rh....
18B0: 7F F8 FF FF 7F 73 30 31  37 45 68 80 F8 FF FF 7F  .....s017Eh.....
18C0: F8 FF FF 7F 73 30 31 38  01 80 27 10 F0 FF FF 7F  ....s018..'.....
18D0: 2B 1C 8A 80 66 7A 80 40  21 10 01 40 21 10 01 74  +...fz.@!..@!..t
18E0: 6C 6B 30 2B 40 21 10 01  8B 80 1C 1B 80 23 66 7A  lk0+@!.......#fz
18F0: 80 40 21 10 01 40 21 10  01 74 6C 6B 31 52 68 80  .@!..@!..tlk1Rh.
1900: F8 FF FF 7F F8 FF FF 7F  73 30 31 38 02 87 7F 67  ........s018...g
1910: 80 80 28 19 45 68 80 F8  FF FF 7F F8 FF FF 7F 73  ..(.Eh.........s
1920: 67 31 39 01 80 01 8D 19  02 87 7F 4C 80 80 44 19  g19........L..D.
1930: 45 68 80 F8 FF FF 7F F8  FF FF 7F 73 74 31 39 01  Eh.........st19.
1940: 80 01 8D 19 02 87 7F 48  80 80 60 19 45 68 80 F8  .......H..`.Eh..
1950: FF FF 7F F8 FF FF 7F 73  74 31 39 01 80 01 8D 19  .......st19.....
1960: 02 87 7F 47 80 80 7C 19  45 68 80 F8 FF FF 7F F8  ...G..|.Eh......
1970: FF FF 7F 73 67 31 39 01  80 01 8D 19 45 68 80 F8  ...sg19.....Eh..
1980: FF FF 7F F8 FF FF 7F 73  30 31 39 01 80 66 19 80  .......s019..f..
1990: 40 21 10 01 40 21 10 01  74 68 6B 31 2B 40 21 10  @!..@!..thk1+@!.
19A0: 01 8C 80 1C 1B 80 23 66  25 80 40 21 10 01 40 21  ......#f%.@!..@!
19B0: 10 01 74 6C 6B 30 2B 40  21 10 01 8D 80 23 2B 40  ..tlk0+@!....#+@
19C0: 21 10 01 8E 80 1C 1B 80  23 66 25 80 40 21 10 01  !.......#f%.@!..
19D0: 40 21 10 01 74 6C 6B 31  7B 40 21 10 01 52 68 80  @!..tlk1{@!..Rh.
19E0: F8 FF FF 7F F8 FF FF 7F  73 30 31 39 52 68 80 F8  ........s019Rh..
19F0: FF FF 7F F8 FF FF 7F 73  74 31 39 52 68 80 F8 FF  .......st19Rh...
1A00: FF 7F F8 FF FF 7F 73 67  31 39 45 68 80 F8 FF FF  ......sg19Eh....
1A10: 7F F8 FF FF 7F 73 30 32  30 01 80 66 19 80 40 21  .....s020..f..@!
1A20: 10 01 40 21 10 01 74 68  6B 31 2B 40 21 10 01 8F  ..@!..thk1+@!...
1A30: 80 1C 23 80 23 66 19 80  40 21 10 01 40 21 10 01  ..#.#f..@!..@!..
1A40: 74 68 6B 32 1C 11 80 66  19 80 40 21 10 01 40 21  thk2...f..@!..@!
1A50: 10 01 73 79 75 30 2B 40  21 10 01 90 80 1C 23 80  ..syu0+@!.....#.
1A60: 23 27 10 40 21 10 01 18  52 68 80 F8 FF FF 7F F8  #'.@!...Rh......
1A70: FF FF 7F 73 30 32 30 45  68 80 F8 FF FF 7F F8 FF  ...s020Eh.......
1A80: FF 7F 73 30 32 31 01 80  2B 40 21 10 01 91 80 1C  ..s021..+@!.....
1A90: 92 80 01 24 1E 02 00 10  04 80 00 A2 1C 7B 40 21  ...$.........{@!
1AA0: 10 01 52 68 80 F8 FF FF  7F F8 FF FF 7F 73 30 30  ..Rh.........s00
1AB0: 39 52 68 80 F8 FF FF 7F  F8 FF FF 7F 73 74 30 39  9Rh.........st09
1AC0: 52 68 80 F8 FF FF 7F F8  FF FF 7F 73 67 30 39 45  Rh.........sg09E
1AD0: 68 80 F8 FF FF 7F F8 FF  FF 7F 73 30 31 30 01 80  h.........s010..
1AE0: 66 19 80 40 21 10 01 40  21 10 01 74 68 6B 31 2B  f..@!..@!..thk1+
1AF0: 40 21 10 01 93 80 1C 1B  80 23 03 02 10 76 80 66  @!.......#...v.f
1B00: 25 80 40 21 10 01 40 21  10 01 74 6C 6B 30 2B 40  %.@!..@!..tlk0+@
1B10: 21 10 01 94 80 23 1C 3C  80 66 7A 80 40 21 10 01  !....#.<.fz.@!..
1B20: 40 21 10 01 74 6C 6B 30  2B 40 21 10 01 95 80 1C  @!..tlk0+@!.....
1B30: 1B 80 23 66 7A 80 40 21  10 01 40 21 10 01 74 6C  ..#fz.@!..@!..tl
1B40: 6B 31 79 00 40 21 10 01  F0 FF FF 7F 52 68 80 F8  k1y.@!......Rh..
1B50: FF FF 7F F8 FF FF 7F 73  30 31 30 45 68 80 F8 FF  .......s010Eh...
1B60: FF 7F F8 FF FF 7F 73 30  31 31 01 80 27 10 F0 FF  ......s011..'...
1B70: FF 7F 2B 1C 8A 80 66 25  80 40 21 10 01 40 21 10  ..+...f%.@!..@!.
1B80: 01 74 6C 6B 30 2B 40 21  10 01 96 80 1C 3C 80 23  .tlk0+@!.....<.#
1B90: 52 68 80 F8 FF FF 7F F8  FF FF 7F 73 30 31 31 45  Rh.........s011E
1BA0: 68 80 F8 FF FF 7F F8 FF  FF 7F 73 30 31 32 01 80  h.........s012..
1BB0: 1C 10 80 66 19 80 40 21  10 01 40 21 10 01 64 69  ...f..@!..@!..di
1BC0: 73 30 2B 40 21 10 01 97  80 1C 23 80 23 66 81 80  s0+@!.....#.#f..
1BD0: 40 21 10 01 40 21 10 01  6D 73 75 30 2B 40 21 10  @!..@!..msu0+@!.
1BE0: 01 98 80 1C 1B 80 23 66  81 80 40 21 10 01 40 21  ......#f..@!..@!
1BF0: 10 01 6D 73 75 31 6E F0  FF FF 7F 99 80 99 F0 FF  ..msu1n.........
1C00: FF 7F 1C 1B 80 52 68 80  F8 FF FF 7F F8 FF FF 7F  .....Rh.........
1C10: 73 30 31 32 02 87 7F 67  80 80 30 1C 45 68 80 F8  s012...g..0.Eh..
1C20: FF FF 7F F8 FF FF 7F 73  67 30 39 01 80 01 95 1C  .......sg09.....
1C30: 02 87 7F 4C 80 80 4C 1C  45 68 80 F8 FF FF 7F F8  ...L..L.Eh......
1C40: FF FF 7F 73 74 30 39 01  80 01 95 1C 02 87 7F 48  ...st09........H
1C50: 80 80 68 1C 45 68 80 F8  FF FF 7F F8 FF FF 7F 73  ..h.Eh.........s
1C60: 74 30 39 01 80 01 95 1C  02 87 7F 47 80 80 84 1C  t09........G....
1C70: 45 68 80 F8 FF FF 7F F8  FF FF 7F 73 67 30 39 01  Eh.........sg09.
1C80: 80 01 95 1C 45 68 80 F8  FF FF 7F F8 FF FF 7F 73  ....Eh.........s
1C90: 30 30 39 01 80 3C 00 00  04 80 04 80 01 AF 17 01  009..<..........
1CA0: 24 1E 02 00 10 9A 80 00  24 1E 52 68 80 F8 FF FF  $.......$.Rh....
1CB0: 7F F8 FF FF 7F 73 30 30  39 52 68 80 F8 FF FF 7F  .....s009Rh.....
1CC0: F8 FF FF 7F 73 74 30 39  52 68 80 F8 FF FF 7F F8  ....st09Rh......
1CD0: FF FF 7F 73 67 30 39 45  68 80 F8 FF FF 7F F8 FF  ...sg09Eh.......
1CE0: FF 7F 73 30 31 33 01 80  66 19 80 40 21 10 01 40  ..s013..f..@!..@
1CF0: 21 10 01 74 68 6B 31 2B  40 21 10 01 9B 80 1C 1B  !..thk1+@!......
1D00: 80 23 66 25 80 40 21 10  01 40 21 10 01 74 6C 6B  .#f%.@!..@!..tlk
1D10: 30 2B 40 21 10 01 9C 80  23 2B 40 21 10 01 9D 80  0+@!....#+@!....
1D20: 1C 1B 80 23 52 68 80 F8  FF FF 7F F8 FF FF 7F 73  ...#Rh.........s
1D30: 30 31 33 45 68 80 F8 FF  FF 7F F8 FF FF 7F 73 30  013Eh.........s0
1D40: 31 34 01 80 66 7A 80 40  21 10 01 40 21 10 01 74  14..fz.@!..@!..t
1D50: 6C 6B 30 2B 40 21 10 01  9E 80 1C 3C 80 23 66 25  lk0+@!.....<.#f%
1D60: 80 40 21 10 01 40 21 10  01 74 6C 6B 30 2B 40 21  .@!..@!..tlk0+@!
1D70: 10 01 9F 80 1C 1B 80 23  66 25 80 40 21 10 01 40  .......#f%.@!..@
1D80: 21 10 01 74 6C 6B 31 52  68 80 F8 FF FF 7F F8 FF  !..tlk1Rh.......
1D90: FF 7F 73 30 31 34 02 87  7F 67 80 80 B2 1D 45 68  ..s014...g....Eh
1DA0: 80 F8 FF FF 7F F8 FF FF  7F 73 67 30 39 01 80 01  .........sg09...
1DB0: 17 1E 02 87 7F 4C 80 80  CE 1D 45 68 80 F8 FF FF  .....L....Eh....
1DC0: 7F F8 FF FF 7F 73 74 30  39 01 80 01 17 1E 02 87  .....st09.......
1DD0: 7F 48 80 80 EA 1D 45 68  80 F8 FF FF 7F F8 FF FF  .H....Eh........
1DE0: 7F 73 74 30 39 01 80 01  17 1E 02 87 7F 47 80 80  .st09........G..
1DF0: 06 1E 45 68 80 F8 FF FF  7F F8 FF FF 7F 73 67 30  ..Eh.........sg0
1E00: 39 01 80 01 17 1E 45 68  80 F8 FF FF 7F F8 FF FF  9.....Eh........
1E10: 7F 73 30 30 39 01 80 3C  00 00 9A 80 04 80 01 AF  .s009..<........
1E20: 17 01 24 1E 45 00 80 F0  FF FF 7F F0 FF FF 7F 66  ..$.E..........f
1E30: 64 6F 31 01 80 55 00 80  F0 FF FF 7F F0 FF FF 7F  do1..U..........
1E40: 66 64 6F 31 52 68 80 F8  FF FF 7F F8 FF FF 7F 73  fdo1Rh.........s
1E50: 30 32 31 78 1C 2A 80 AB  11 01 80 1C 04 80 46 00  021x.*........F.
1E60: 45 00 80 F0 FF FF 7F F0  FF FF 7F 66 64 69 32 01  E..........fdi2.
1E70: 80 21 00                                          .!.             
```

#### Opcodes

```
  0: 0x112C [0x42] SET_CLI_EVENT_CANCEL_DATA()
  1: 0x112D [0x45] LOAD_SCHEDULED_TASK: Load scheduler "fdo1" with entities [LocalPlayer, LocalPlayer], work=[200*, 0*]
  2: 0x113E [0x55] WAIT_LOAD_SCHEDULER: Wait for scheduler "fdo1" with entities [LocalPlayer, LocalPlayer], work=200*
  3: 0x114D [0x46] CAMERA_CONTROL: Disable user control
  4: 0x114F [0x38] SET_CLIENT_EVENT_MODE(mode=19*)
  5: 0x1152 [0x77] SET_EVENT_TIME_WEATHER(hour=255*, weather=1*)
  6: 0x1157 [0x1C] WAIT(1* ticks)
  7: 0x115A [0x2F] Unnamed NPC (ID: 17834355/0x01102173)->Render.Flags0 &= ~0x80000 // Bit 19
  8: 0x1160 [0x2F] Unnamed NPC (ID: 17834356/0x01102174)->Render.Flags0 &= ~0x80000 // Bit 19
  9: 0x1166 [0x2F] Unnamed NPC (ID: 17834357/0x01102175)->Render.Flags0 &= ~0x80000 // Bit 19
 10: 0x116C [0x4E] SET_ENTITY_HIDE_FLAG: Show Unnamed NPC (ID: 17834355/0x01102173)
 11: 0x1172 [0x4E] SET_ENTITY_HIDE_FLAG: Show Unnamed NPC (ID: 17834357/0x01102175)
 12: 0x1178 [0x59] UPDATE_ENTITY_DATA: Unnamed NPC (ID: 17834355/0x01102173)->Render.Flags0 |= 0x200000
 13: 0x117F [0x94] Unnamed NPC (ID: 17834355/0x01102173)->Render.Flags3 ^= 0x01
 14: 0x1185 [0x94] Unnamed NPC (ID: 17834356/0x01102174)->Render.Flags3 ^= 0x01
 15: 0x118B [0x94] Unnamed NPC (ID: 17834357/0x01102175)->Render.Flags3 ^= 0x01
 16: 0x1191 [0xBA] SET_ENTITY_POSITION(entity_id=Unnamed NPC (ID: 17834355/0x01102173), pos_x=-315.100*, pos_z=-319.610*, pos_y=-1.101*, direction=208.2°*)
 17: 0x119E [0xBA] SET_ENTITY_POSITION(entity_id=Unnamed NPC (ID: 17834357/0x01102175), pos_x=-315.300*, pos_z=-319.500*, pos_y=-1.000*, direction=208.2°*)
 18: 0x11AB [0xBA] SET_ENTITY_POSITION(entity_id=LocalPlayer, pos_x=-336.000*, pos_z=-322.500*, pos_y=-1.000*, direction=351.6°*)
 19: 0x11B8 [0x5B] LOAD_EXT_SCHEDULER: Load scheduler "tar1" with entities [Unnamed NPC (ID: 17834355/0x01102173), Unnamed NPC (ID: 17834355/0x01102173)], work=3245*
 20: 0x11C7 [0x4A] Chalvava (ID: 17834304/0x01102140) looks at Unnamed NPC (ID: 17834357/0x01102175)
 21: 0x11D0 [0x4A] Unnamed NPC (ID: 17834355/0x01102173) looks at Chalvava (ID: 17834304/0x01102140)
 22: 0x11D9 [0x4A] Unnamed NPC (ID: 17834357/0x01102175) looks at Chalvava (ID: 17834304/0x01102140)
 23: 0x11E2 [0x7B] Unnamed NPC (ID: 17834355/0x01102173) stops talking
 24: 0x11E7 [0x7B] Unnamed NPC (ID: 17834357/0x01102175) stops talking
 25: 0x11EC [0x4A] LocalPlayer looks at Chalvava (ID: 17834304/0x01102140)
 26: 0x11F5 [0x7B] LocalPlayer stops talking
 27: 0x11FA [0x29] REQ_SET_WAIT(priority=0x10, entity_id=LocalPlayer, tag_num=0x2C)
 28: 0x1201 [0x80] LOAD_WAIT(entity=Unnamed NPC (ID: 17834355/0x01102173))
 29: 0x1206 [0x80] LOAD_WAIT(entity=Unnamed NPC (ID: 17834357/0x01102175))
 30: 0x120B [0x1C] WAIT(60* ticks)
 31: 0x120E [0x02] IF !(LocalPlayer->Race == 3*) GOTO 0x122A
 32: 0x1216 [0x45] LOAD_SCHEDULED_TASK: Load scheduler "sg00" with entities [EventEntity, EventEntity], work=[786*, 0*]
 33: 0x1227 [0x01] GOTO 0x128F
 34: 0x122A [0x02] IF !(LocalPlayer->Race == 5*) GOTO 0x1246
 35: 0x1232 [0x45] LOAD_SCHEDULED_TASK: Load scheduler "st00" with entities [EventEntity, EventEntity], work=[786*, 0*]
 36: 0x1243 [0x01] GOTO 0x128F
 37: 0x1246 [0x02] IF !(LocalPlayer->Race == 6*) GOTO 0x1262
 38: 0x124E [0x45] LOAD_SCHEDULED_TASK: Load scheduler "st00" with entities [EventEntity, EventEntity], work=[786*, 0*]
 39: 0x125F [0x01] GOTO 0x128F
 40: 0x1262 [0x02] IF !(LocalPlayer->Race == 8*) GOTO 0x127E
