# 17834372

## Common Data

| Field            | Value                    |
|------------------|--------------------------|
| Zone             | Rala Waterways (ID: 258) |
| Block Size       | 604 bytes                |
| Total Events     | 4                        |
| References Count | 22                       |

## List of Events

| Event ID              | Entrypoint   |   Size |   Instructions |
|-----------------------|--------------|--------|----------------|
| [65535](#event-65535) | 0x0000       |      1 |              1 |
| [368](#event-368)     | 0x0001       |      1 |              1 |
| [369](#event-369)     | 0x0002       |      1 |              1 |
| [8](#event-8)         | 0x0003       |    480 |             59 |

## DAT References (imed_data)

|   Index | Hex Value   |   Dec Value |
|---------|-------------|-------------|
|       0 | 0x00C8      |         200 |
|       1 | 0x0000      |           0 |
|       2 | 0x0013      |          19 |
|       3 | 0xFFFB26C5  |  4294649541 |
|       4 | 0xFFFB1C52  |  4294646866 |
|       5 | 0xFFFFFBE6  |  4294966246 |
|       6 | 0x0C95      |        3221 |
|       7 | 0x026F      |         623 |
|       8 | 0x000F      |          15 |
|       9 | 0x0028      |          40 |
|      10 | 0x0952      |        2386 |
|      11 | 0x20E0      |        8416 |
|      12 | 0x20E1      |        8417 |
|      13 | 0x20E2      |        8418 |
|      14 | 0x0016      |          22 |
|      15 | 0x20E3      |        8419 |
|      16 | 0x0014      |          20 |
|      17 | 0x20E4      |        8420 |
|      18 | 0x20E5      |        8421 |
|      19 | 0x20E6      |        8422 |
|      20 | 0x20E7      |        8423 |
|      21 | 0x0001      |           1 |

## Events

### Event 65535

#### Metadata

| Field        | Value   |
|--------------|---------|
| Entrypoint   | 0x0000  |
| Data Size    | 1 bytes |
| Instructions | 1       |

```
      00 01 02 03 04 05 06 07  08 09 0A 0B 0C 0D 0E 0F
      -- -- -- -- -- -- -- --  -- -- -- -- -- -- -- --
0000: 00                                                .               
```

#### Opcodes

```
  0: 0x0000 [0x00] END_REQSTACK()
```

### Event 368

#### Metadata

| Field        | Value   |
|--------------|---------|
| Entrypoint   | 0x0001  |
| Data Size    | 1 bytes |
| Instructions | 1       |

```
      00 01 02 03 04 05 06 07  08 09 0A 0B 0C 0D 0E 0F
      -- -- -- -- -- -- -- --  -- -- -- -- -- -- -- --
0000:    00                                              .              
```

#### Opcodes

```
  0: 0x0001 [0x00] END_REQSTACK()
```

### Event 369

#### Metadata

| Field        | Value   |
|--------------|---------|
| Entrypoint   | 0x0002  |
| Data Size    | 1 bytes |
| Instructions | 1       |

```
      00 01 02 03 04 05 06 07  08 09 0A 0B 0C 0D 0E 0F
      -- -- -- -- -- -- -- --  -- -- -- -- -- -- -- --
0000:       00                                            .             
```

#### Opcodes

```
  0: 0x0002 [0x00] END_REQSTACK()
```

### Event 8

#### Metadata

| Field        | Value     |
|--------------|-----------|
| Entrypoint   | 0x0003    |
| Data Size    | 480 bytes |
| Instructions | 59        |

```
      00 01 02 03 04 05 06 07  08 09 0A 0B 0C 0D 0E 0F
      -- -- -- -- -- -- -- --  -- -- -- -- -- -- -- --
0000:          42 45 00 80 F0  FF FF 7F F0 FF FF 7F 66     BE..........f
0010: 64 6F 31 01 80 55 00 80  F0 FF FF 7F F0 FF FF 7F  do1..U..........
0020: 66 64 6F 31 46 01 38 02  80 92 01 40 21 10 01 94  fdo1F.8....@!...
0030: 01 F0 FF FF 7F 94 01 40  21 10 01 BA F0 FF FF 7F  .......@!.......
0040: 03 80 04 80 05 80 06 80  80 F0 FF FF 7F 80 40 21  ..............@!
0050: 10 01 4A F0 FF FF 7F 40  21 10 01 4A 40 21 10 01  ..J....@!..J@!..
0060: F0 FF FF 7F 45 07 80 F0  FF FF 7F F0 FF FF 7F 73  ....E..........s
0070: 30 34 31 01 80 1C 08 80  45 00 80 F0 FF FF 7F F0  041.....E.......
0080: FF FF 7F 66 64 69 31 01  80 66 09 80 40 21 10 01  ...fdi1..f..@!..
0090: 40 21 10 01 74 6C 6B 30  03 02 10 0A 80 2B 40 21  @!..tlk0.....+@!
00A0: 10 01 0B 80 23 52 07 80  F0 FF FF 7F F0 FF FF 7F  ....#R..........
00B0: 73 30 34 31 45 07 80 F0  FF FF 7F F0 FF FF 7F 73  s041E..........s
00C0: 30 34 32 01 80 2B 40 21  10 01 0C 80 23 66 09 80  042..+@!....#f..
00D0: 40 21 10 01 40 21 10 01  74 6C 6B 31 2B 40 21 10  @!..@!..tlk1+@!.
00E0: 01 0D 80 23 52 07 80 F0  FF FF 7F F0 FF FF 7F 73  ...#R..........s
00F0: 30 34 32 45 07 80 F0 FF  FF 7F F0 FF FF 7F 73 30  042E..........s0
0100: 34 33 01 80 6E 40 21 10  01 0E 80 99 40 21 10 01  43..n@!.....@!..
0110: 2B 40 21 10 01 0F 80 23  6E 40 21 10 01 10 80 99  +@!....#n@!.....
0120: 40 21 10 01 2B 40 21 10  01 11 80 23 52 07 80 F0  @!..+@!....#R...
0130: FF FF 7F F0 FF FF 7F 73  30 34 33 45 07 80 F0 FF  .......s043E....
0140: FF 7F F0 FF FF 7F 73 30  34 34 01 80 66 09 80 40  ......s044..f..@
0150: 21 10 01 40 21 10 01 74  6C 6B 30 2B 40 21 10 01  !..@!..tlk0+@!..
0160: 12 80 23 52 07 80 F0 FF  FF 7F F0 FF FF 7F 73 30  ..#R..........s0
0170: 34 34 45 07 80 F0 FF FF  7F F0 FF FF 7F 73 30 34  44E..........s04
0180: 35 01 80 2B 40 21 10 01  13 80 23 2B 40 21 10 01  5..+@!....#+@!..
0190: 14 80 23 45 00 80 F0 FF  FF 7F F0 FF FF 7F 66 64  ..#E..........fd
01A0: 6F 31 01 80 55 00 80 F0  FF FF 7F F0 FF FF 7F 66  o1..U..........f
01B0: 64 6F 31 52 07 80 F0 FF  FF 7F F0 FF FF 7F 73 30  do1R..........s0
01C0: 34 35 1C 08 80 AB 11 01  80 1C 15 80 AB 0A 46 00  45............F.
01D0: 45 00 80 F0 FF FF 7F F0  FF FF 7F 66 64 69 32 01  E..........fdi2.
01E0: 80 21 00                                          .!.             
```

#### Opcodes

```
  0: 0x0003 [0x42] SET_CLI_EVENT_CANCEL_DATA()
  1: 0x0004 [0x45] LOAD_SCHEDULED_TASK: Load scheduler "fdo1" with entities [LocalPlayer, LocalPlayer], work=[200*, 0*]
  2: 0x0015 [0x55] WAIT_LOAD_SCHEDULER: Wait for scheduler "fdo1" with entities [LocalPlayer, LocalPlayer], work=200*
  3: 0x0024 [0x46] CAMERA_CONTROL: Disable user control
  4: 0x0026 [0x38] SET_CLIENT_EVENT_MODE(mode=19*)
  5: 0x0029 [0x92] Chalvava (ID: 17834304/0x01102140)->Render.Flags3 ^= 0x01
  6: 0x002F [0x94] LocalPlayer->Render.Flags3 ^= 0x01
  7: 0x0035 [0x94] Chalvava (ID: 17834304/0x01102140)->Render.Flags3 ^= 0x01
  8: 0x003B [0xBA] SET_ENTITY_POSITION(entity_id=LocalPlayer, pos_x=-317.755*, pos_z=-320.430*, pos_y=-1.050*, direction=283.1°*)
  9: 0x0048 [0x80] LOAD_WAIT(entity=LocalPlayer)
 10: 0x004D [0x80] LOAD_WAIT(entity=Chalvava (ID: 17834304/0x01102140))
 11: 0x0052 [0x4A] LocalPlayer looks at Chalvava (ID: 17834304/0x01102140)
 12: 0x005B [0x4A] Chalvava (ID: 17834304/0x01102140) looks at LocalPlayer
 13: 0x0064 [0x45] LOAD_SCHEDULED_TASK: Load scheduler "s041" with entities [LocalPlayer, LocalPlayer], work=[623*, 0*]
 14: 0x0075 [0x1C] WAIT(15* ticks)
 15: 0x0078 [0x45] LOAD_SCHEDULED_TASK: Load scheduler "fdi1" with entities [LocalPlayer, LocalPlayer], work=[200*, 0*]
 16: 0x0089 [0x66] LOAD_EXT_SCHEDULER_MAIN: Load scheduler "tlk0" with entities [Chalvava (ID: 17834304/0x01102140), Chalvava (ID: 17834304/0x01102140)], work=40*
 17: 0x0098 [0x03] Work_Zone[2] = 2386*
 18: 0x009D [0x2B] Chalvava (ID: 17834304/0x01102140) [8416*]:
    → "You want to know about whataru? 5 picked from deep within the jungle-wungle?"
 19: 0x00A4 [0x23] WAIT_FOR_DIALOG_INTERACTION
 20: 0x00A5 [0x52] END_LOAD_SCHEDULER: End scheduler "s041" with entities [LocalPlayer, LocalPlayer], work=623*
 21: 0x00B4 [0x45] LOAD_SCHEDULED_TASK: Load scheduler "s042" with entities [LocalPlayer, LocalPlayer], work=[623*, 0*]
 22: 0x00C5 [0x2B] Chalvava (ID: 17834304/0x01102140) [8417*]:
    → "We're endeavoring to raise some here in the arboretum, so we just started readying the seeds for plantaruing."
 23: 0x00CC [0x23] WAIT_FOR_DIALOG_INTERACTION
 24: 0x00CD [0x66] LOAD_EXT_SCHEDULER_MAIN: Load scheduler "tlk1" with entities [Chalvava (ID: 17834304/0x01102140), Chalvava (ID: 17834304/0x01102140)], work=40*
 25: 0x00DC [0x2B] Chalvava (ID: 17834304/0x01102140) [8418*]:
    → "You...you want one?"
 26: 0x00E3 [0x23] WAIT_FOR_DIALOG_INTERACTION
 27: 0x00E4 [0x52] END_LOAD_SCHEDULER: End scheduler "s042" with entities [LocalPlayer, LocalPlayer], work=623*
 28: 0x00F3 [0x45] LOAD_SCHEDULED_TASK: Load scheduler "s043" with entities [LocalPlayer, LocalPlayer], work=[623*, 0*]
 29: 0x0104 [0x6E] Chalvava (ID: 17834304/0x01102140) uses emote 22*
 30: 0x010B [0x99] Wait for Chalvava (ID: 17834304/0x01102140) animation to complete
 31: 0x0110 [0x2B] Chalvava (ID: 17834304/0x01102140) [8419*]:
    → "I hate to be the harbinger-warbinger of bad news, but we already devoured them all. I can still taste the one I ate, too."
 32: 0x0117 [0x23] WAIT_FOR_DIALOG_INTERACTION
 33: 0x0118 [0x6E] Chalvava (ID: 17834304/0x01102140) uses emote 20*
 34: 0x011F [0x99] Wait for Chalvava (ID: 17834304/0x01102140) animation to complete
 35: 0x0124 [0x2B] Chalvava (ID: 17834304/0x01102140) [8420*]:
    → "You'd have to have had a triply-wiply effective Haste cast on you to make it in time. There's no way something that delicious will stay unsavored for long!"
 36: 0x012B [0x23] WAIT_FOR_DIALOG_INTERACTION
 37: 0x012C [0x52] END_LOAD_SCHEDULER: End scheduler "s043" with entities [LocalPlayer, LocalPlayer], work=623*
 38: 0x013B [0x45] LOAD_SCHEDULED_TASK: Load scheduler "s044" with entities [LocalPlayer, LocalPlayer], work=[623*, 0*]
 39: 0x014C [0x66] LOAD_EXT_SCHEDULER_MAIN: Load scheduler "tlk0" with entities [Chalvava (ID: 17834304/0x01102140), Chalvava (ID: 17834304/0x01102140)], work=40*
 40: 0x015B [0x2B] Chalvava (ID: 17834304/0x01102140) [8421*]:
    → "...H-hey now, d-don't look at me like that. It's not like we stole them and disposed of the evidence-wevidence before the Peacekeepers' Coalition could arrive! We boughtaru them with our own hard-earned bayld!"
 41: 0x0162 [0x23] WAIT_FOR_DIALOG_INTERACTION
 42: 0x0163 [0x52] END_LOAD_SCHEDULER: End scheduler "s044" with entities [LocalPlayer, LocalPlayer], work=623*
 43: 0x0172 [0x45] LOAD_SCHEDULED_TASK: Load scheduler "s045" with entities [LocalPlayer, LocalPlayer], work=[623*, 0*]
 44: 0x0183 [0x2B] Chalvava (ID: 17834304/0x01102140) [8422*]:
    → "If you really want $6 that badly, I guess I can let you in on a little secretaru. I'd never go because even taking one step into the battlegrounds sends paralyzing shiver-wivers down my spine, but word has it that there are some trees left in Yahse Hunting Grounds."
 45: 0x018A [0x23] WAIT_FOR_DIALOG_INTERACTION
 46: 0x018B [0x2B] Chalvava (ID: 17834304/0x01102140) [8423*]:
    → "If you're truly a pioneer and a connoisseur of the fruitaru, its location shouldn't pose a problem to you whatsoever! Now, it's time to plant these beauties."
 47: 0x0192 [0x23] WAIT_FOR_DIALOG_INTERACTION
 48: 0x0193 [0x45] LOAD_SCHEDULED_TASK: Load scheduler "fdo1" with entities [LocalPlayer, LocalPlayer], work=[200*, 0*]
 49: 0x01A4 [0x55] WAIT_LOAD_SCHEDULER: Wait for scheduler "fdo1" with entities [LocalPlayer, LocalPlayer], work=200*
 50: 0x01B3 [0x52] END_LOAD_SCHEDULER: End scheduler "s045" with entities [LocalPlayer, LocalPlayer], work=623*
 51: 0x01C2 [0x1C] WAIT(15* ticks)
 52: 0x01C5 [0xAB] EventEntity->DespawnValue = 0* // Set despawn value
 53: 0x01C9 [0x1C] WAIT(1* ticks)
 54: 0x01CC [0xAB] EventEntity->UnknownFlag = 0 // Disable unknown flag
 55: 0x01CE [0x46] CAMERA_CONTROL: Restore default settings
 56: 0x01D0 [0x45] LOAD_SCHEDULED_TASK: Load scheduler "fdi2" with entities [LocalPlayer, LocalPlayer], work=[200*, 0*]
 57: 0x01E1 [0x21] END_EVENT
 58: 0x01E2 [0x00] END_REQSTACK()
```
