# 17834295 - Augural Conveyor

## Common Data

| Field            | Value                    |
|------------------|--------------------------|
| Zone             | Rala Waterways (ID: 258) |
| Block Size       | 2368 bytes               |
| Total Events     | 6                        |
| References Count | 73                       |

## List of Events

| Event ID              | Entrypoint   |   Size |   Instructions |
|-----------------------|--------------|--------|----------------|
| [65535](#event-65535) | 0x0000       |      1 |              1 |
| [368](#event-368)     | 0x0001       |      1 |              1 |
| [381](#event-381)     | 0x0002       |      1 |              1 |
| [382](#event-382)     | 0x0003       |      1 |              1 |
| [5513](#event-5513)   | 0x0004       |   1314 |            275 |
| [5502](#event-5502)   | 0x0526       |    715 |            151 |

## DAT References (imed_data)

|   Index | Hex Value   |   Dec Value |
|---------|-------------|-------------|
|       0 | 0x0003      |           3 |
|       1 | 0x0000      |           0 |
|       2 | 0x0005      |           5 |
|       3 | 0x0001      |           1 |
|       4 | 0x001F      |          31 |
|       5 | 0xFFFFFFFF  |  4294967295 |
|       6 | 0x1F91      |        8081 |
|       7 | 0x40000000  |  1073741824 |
|       8 | 0x0010      |          16 |
|       9 | 0x0012      |          18 |
|      10 | 0x000C      |          12 |
|      11 | 0x000F      |          15 |
|      12 | 0x0004      |           4 |
|      13 | 0x000B      |          11 |
|      14 | 0x001D      |          29 |
|      15 | 0x1F7D      |        8061 |
|      16 | 0x1F7E      |        8062 |
|      17 | 0x1F85      |        8069 |
|      18 | 0x1F80      |        8064 |
|      19 | 0x0002      |           2 |
|      20 | 0x1F82      |        8066 |
|      21 | 0x003C      |          60 |
|      22 | 0x0078      |         120 |
|      23 | 0x0006      |           6 |
|      24 | 0x0007      |           7 |
|      25 | 0x0008      |           8 |
|      26 | 0x1F7F      |        8063 |
|      27 | 0x005A      |          90 |
|      28 | 0x00C9      |         201 |
|      29 | 0x002D      |          45 |
|      30 | 0x00C8      |         200 |
|      31 | 0x0009      |           9 |
|      32 | 0x000A      |          10 |
|      33 | 0x1F8B      |        8075 |
|      34 | 0x1F8A      |        8074 |
|      35 | 0x1F8C      |        8076 |
|      36 | 0x1F8D      |        8077 |
|      37 | 0x0325      |         805 |
|      38 | 0x0327      |         807 |
|      39 | 0x0326      |         806 |
|      40 | 0x0320      |         800 |
|      41 | 0x0103      |         259 |
|      42 | 0x0108      |         264 |
|      43 | 0x010F      |         271 |
|      44 | 0x0113      |         275 |
|      45 | 0x0348      |         840 |
|      46 | 0x0349      |         841 |
|      47 | 0x034A      |         842 |
|      48 | 0x034B      |         843 |
|      49 | 0x034C      |         844 |
|      50 | 0x034D      |         845 |
|      51 | 0x034E      |         846 |
|      52 | 0x034F      |         847 |
|      53 | 0x0350      |         848 |
|      54 | 0x0351      |         849 |
|      55 | 0x0352      |         850 |
|      56 | 0x0353      |         851 |
|      57 | 0x0354      |         852 |
|      58 | 0x0355      |         853 |
|      59 | 0x0356      |         854 |
|      60 | 0x0357      |         855 |
|      61 | 0x0384      |         900 |
|      62 | 0x0385      |         901 |
|      63 | 0x00E5      |         229 |
|      64 | 0x035F      |         863 |
|      65 | 0x0360      |         864 |
|      66 | 0x0361      |         865 |
|      67 | 0x0362      |         866 |
|      68 | 0x0363      |         867 |
|      69 | 0x0364      |         868 |
|      70 | 0x0365      |         869 |
|      71 | 0x0366      |         870 |
|      72 | 0x0367      |         871 |

## String References

- **8061**: Only party members present with you in this area will be transported to [/this skirmish in ////this alluvion skirmish in /]$8.
- **8062**: Proceed? [Yes./No.]
- **8063**: Now entering [/a skirmish in ////an alluvion skirmish in /]$8.
- **8064**: You have chosen not to enter [/this skirmish in ////this alluvion skirmish in /]$8.
- **8066**: You cannot enter at this time. Please wait a moment and try again.
- **8069**: Your request for entry is being considered...
- **8074**: What's the torso's size? [Never mind./Rank I./Rank II./Rank III./Rank IV./Rank V.]
- **8075**: What's the visage's obtainment rate? [Never mind./Rank I./Rank II./Rank III./Rank IV./Rank V.]
- **8076**: What rank are the legs' benefits? [Never mind./Rank I./Rank II./Rank III./Rank IV./Rank V.]
- **8077**: Ready for an alluvion skirmish? [No./Alluvion A./Alluvion B./Alluvion C./Alluvion D./Alluvion E./Just a regular skirmish, please.]
- **8081**: Enter which battlefield? [None./Endeavoring to Awaken./Endeavoring to Awaken./ /Behind the Sluices./Stonewalled./The Gates./Saved by the Bell./Quiescence./The Charlatan./Yggdrasil Beckons./Yggdrasil Beckons./Watery Grave./Mistress of Ceremonies./A Barrel of Laughs./Sinister Reign./The Ygnas Directive 6./Skirmishes./[Fractures/Obscured Domains]./Alluvion skirmishes./The Silent Forest./Wind of Eternity./Phantasmic Heroes.]

## Events

### Event 65535

#### Metadata

| Field        | Value   |
|--------------|---------|
| Entrypoint   | 0x0000  |
| Data Size    | 1 bytes |
| Instructions | 1       |

```
      00 01 02 03 04 05 06 07  08 09 0A 0B 0C 0D 0E 0F
      -- -- -- -- -- -- -- --  -- -- -- -- -- -- -- --
0000: 00                                                .               
```

#### Opcodes

```
  0: 0x0000 [0x00] END_REQSTACK()
```

### Event 368

#### Metadata

| Field        | Value   |
|--------------|---------|
| Entrypoint   | 0x0001  |
| Data Size    | 1 bytes |
| Instructions | 1       |

```
      00 01 02 03 04 05 06 07  08 09 0A 0B 0C 0D 0E 0F
      -- -- -- -- -- -- -- --  -- -- -- -- -- -- -- --
0000:    00                                              .              
```

#### Opcodes

```
  0: 0x0001 [0x00] END_REQSTACK()
```

### Event 381

#### Metadata

| Field        | Value   |
|--------------|---------|
| Entrypoint   | 0x0002  |
| Data Size    | 1 bytes |
| Instructions | 1       |

```
      00 01 02 03 04 05 06 07  08 09 0A 0B 0C 0D 0E 0F
      -- -- -- -- -- -- -- --  -- -- -- -- -- -- -- --
0000:       00                                            .             
```

#### Opcodes

```
  0: 0x0002 [0x00] END_REQSTACK()
```

### Event 382

#### Metadata

| Field        | Value   |
|--------------|---------|
| Entrypoint   | 0x0003  |
| Data Size    | 1 bytes |
| Instructions | 1       |

```
      00 01 02 03 04 05 06 07  08 09 0A 0B 0C 0D 0E 0F
      -- -- -- -- -- -- -- --  -- -- -- -- -- -- -- --
0000:          00                                          .            
```

#### Opcodes

```
  0: 0x0003 [0x00] END_REQSTACK()
```

### Event 5513

#### Metadata

| Field        | Value      |
|--------------|------------|
| Entrypoint   | 0x0004     |
| Data Size    | 1314 bytes |
| Instructions | 274        |

```
      00 01 02 03 04 05 06 07  08 09 0A 0B 0C 0D 0E 0F
      -- -- -- -- -- -- -- --  -- -- -- -- -- -- -- --
0000:             42 03 0F 00  00 80 03 05 00 02 10 06      B...........
0010: 00 00 06 01 00 06 02 00  06 03 00 03 00 00 03 10  ................
0020: 03 01 00 04 10 03 02 00  05 10 03 03 00 06 10 03  ................
0030: 13 00 08 10 03 12 00 09  10 06 01 10 06 11 00 06  ................
0040: 06 00 06 07 00 02 13 00  01 80 02 65 00 02 03 00  ...........e....
0050: 01 80 02 5D 00 03 0F 00  02 80 01 62 00 03 0F 00  ...].......b....
0060: 03 80 01 BD 00 06 10 00  40 01 80 04 80 10 00 05  ........@.......
0070: 80 0F 10 00 12 00 10 10  00 03 80 24 06 80 01 80  ...........$....
0080: 10 00 25 02 00 10 01 80  00 95 00 03 01 10 07 80  ..%.............
0090: 21 00 01 95 00 03 11 00  00 10 0C 11 00 02 11 00  !...............
00A0: 08 80 80 AD 00 03 0F 00  03 80 01 BD 00 02 11 00  ................
00B0: 09 80 80 BD 00 03 0F 00  02 80 01 BD 00 02 0F 00  ................
00C0: 03 80 80 3E 01 3E 12 00  09 80 14 01 03 01 10 01  ...>.>..........
00D0: 80 40 0A 80 0B 80 01 10  0C 80 43 00 43 01 03 05  .@........C.C...
00E0: 00 02 10 03 00 00 03 10  03 01 00 04 10 03 02 00  ................
00F0: 05 10 03 03 00 06 10 1A  6B 06 40 01 80 0D 80 01  ........k.@.....
0100: 10 06 00 40 08 80 0E 80  01 10 07 00 03 0D 00 01  ...@............
0110: 10 01 3B 01 1A 6B 06 40  01 80 0D 80 01 10 06 00  ..;..k.@........
0120: 40 08 80 0E 80 01 10 07  00 03 0D 00 01 10 40 0A  @.............@.
0130: 80 0B 80 01 10 00 80 43  00 43 01 01 F2 01 02 0F  .......C.C......
0140: 00 02 80 80 BF 01 3E 12  00 08 80 95 01 03 01 10  ......>.........
0150: 01 80 40 0A 80 0B 80 01  10 02 80 43 00 43 01 03  ..@........C.C..
0160: 05 00 02 10 03 00 00 03  10 03 01 00 04 10 03 02  ................
0170: 00 05 10 03 03 00 06 10  1A 6B 06 40 01 80 0D 80  .........k.@....
0180: 01 10 06 00 40 08 80 0E  80 01 10 07 00 03 0D 00  ....@...........
0190: 01 10 01 BC 01 1A 6B 06  40 01 80 0D 80 01 10 06  ......k.@.......
01A0: 00 40 08 80 0E 80 01 10  07 00 03 0D 00 01 10 40  .@.............@
01B0: 0A 80 0B 80 01 10 00 80  43 00 43 01 01 F2 01 02  ........C.C.....
01C0: 0F 00 00 80 80 F2 01 9D  00 71 07 06 00 11 00 40  .........q.....@
01D0: 01 80 0D 80 01 10 06 00  40 0A 80 0B 80 01 10 01  ........@.......
01E0: 80 40 08 80 0E 80 01 10  07 00 03 0D 00 01 10 01  .@..............
01F0: F2 01 06 04 00 05 08 00  02 04 00 01 80 00 49 02  ..............I.
0200: 1A 4B 02 03 03 10 0F 00  48 0F 80 23 24 10 80 08  .K......H..#$...
0210: 00 01 80 25 02 00 10 01  80 00 28 02 06 08 00 48  ...%......(....H
0220: 11 80 1A 7B 02 01 46 02  02 00 10 03 80 00 46 02  ...{..F.......F.
0230: 03 01 10 07 80 1A 4B 02  03 03 10 0F 00 48 12 80  ......K......H..
0240: 05 04 00 01 46 02 01 F8  01 21 00 02 0F 00 00 80  ....F....!......
0250: 80 5E 02 9D 00 A1 07 02  10 11 00 01 7A 02 02 0F  .^..........z...
0260: 00 03 80 80 6C 02 1A F0  06 01 7A 02 02 0F 00 02  ....l.....z.....
0270: 80 80 7A 02 1A F0 06 01  7A 02 1B 06 09 00 06 0C  ..z.....z.......
0280: 00 06 0A 00 02 09 00 01  80 00 AB 02 02 0C 00 01  ................
0290: 80 80 9A 02 1A AC 02 01  A8 02 02 0C 00 03 80 80  ................
02A0: A8 02 1A 6D 03 01 A8 02  01 84 02 1B 03 01 10 0D  ...m............
02B0: 00 40 0A 80 0B 80 01 10  0C 00 43 00 43 01 03 0B  .@........C.C...
02C0: 00 09 10 03 01 10 01 80  02 0B 00 03 80 80 D8 02  ................
02D0: 03 0C 00 03 80 01 6C 03  02 0B 00 13 80 80 FE 02  ......l.........
02E0: 0B 0A 00 02 0A 00 02 80  02 F8 02 05 09 00 48 14  ..............H.
02F0: 80 23 1C 15 80 01 FB 02  1C 16 80 01 6C 03 02 0B  .#..........l...
0300: 00 00 80 80 14 03 03 01  10 07 80 05 09 00 05 04  ................
0310: 00 01 6C 03 02 0B 00 0C  80 80 2A 03 03 01 10 07  ..l.......*.....
0320: 80 05 09 00 05 04 00 01  6C 03 02 0B 00 02 80 80  ........l.......
0330: 40 03 03 01 10 07 80 05  09 00 05 04 00 01 6C 03  @.............l.
0340: 02 0B 00 17 80 80 56 03  03 01 10 07 80 05 09 00  ......V.........
0350: 05 04 00 01 6C 03 02 0B  00 18 80 80 6C 03 03 01  ....l.......l...
0360: 10 07 80 05 09 00 05 04  00 01 6C 03 1B 03 01 10  ..........l.....
0370: 0D 00 40 0A 80 0B 80 01  10 0C 00 43 00 43 01 03  ..@........C.C..
0380: 01 10 01 80 03 0B 00 09  10 02 0B 00 00 80 80 9C  ................
0390: 03 03 01 10 07 80 05 09  00 01 25 05 02 0B 00 0C  ..........%.....
03A0: 80 80 B2 03 03 01 10 07  80 05 09 00 05 04 00 01  ................
03B0: 25 05 02 0B 00 02 80 80  C8 03 03 01 10 07 80 05  %...............
03C0: 09 00 05 04 00 01 25 05  02 0B 00 17 80 80 DE 03  ......%.........
03D0: 03 01 10 07 80 05 09 00  05 04 00 01 25 05 02 0B  ............%...
03E0: 00 18 80 80 F4 03 03 01  10 07 80 05 09 00 05 04  ................
03F0: 00 01 25 05 02 0B 00 19  80 80 C4 04 02 0F 00 03  ..%.............
0400: 80 80 13 04 1A 4B 02 03  03 10 0F 00 48 1A 80 23  .....K......H..#
0410: 01 46 04 02 0F 00 02 80  80 2A 04 1A 4B 02 03 03  .F.......*..K...
0420: 10 0F 00 48 1A 80 23 01  46 04 02 0F 00 00 80 80  ...H..#.F.......
0430: 46 04 9D 00 A1 07 02 10  11 00 03 03 10 0F 00 48  F..............H
0440: 1A 80 23 01 46 04 62 03  80 F0 FF FF 7F F0 FF FF  ..#.F.b.........
0450: 7F 6D 61 69 6E 01 80 1C  1B 80 45 1C 80 F0 FF FF  .main.....E.....
0460: 7F F0 FF FF 7F 77 68 6F  31 01 80 55 1C 80 F0 FF  .....who1..U....
0470: FF 7F F0 FF FF 7F 77 68  6F 31 1C 1D 80 45 1E 80  ......who1...E..
0480: F0 FF FF 7F F0 FF FF 7F  66 64 6F 31 01 80 55 1E  ........fdo1..U.
0490: 80 F0 FF FF 7F F0 FF FF  7F 66 64 6F 31 45 1C 80  .........fdo1E..
04A0: F0 FF FF 7F F0 FF FF 7F  77 68 69 31 01 80 1C 0B  ........whi1....
04B0: 80 30 05 09 00 05 04 00  40 01 80 18 80 01 10 19  .0......@.......
04C0: 80 01 25 05 02 0B 00 1F  80 80 D7 04 03 01 10 07  ..%.............
04D0: 80 05 09 00 01 25 05 02  0B 00 20 80 80 ED 04 03  .....%.... .....
04E0: 01 10 07 80 05 09 00 05  04 00 01 25 05 02 0B 00  ...........%....
04F0: 0D 80 80 25 05 0B 0A 00  02 0A 00 0B 80 02 1F 05  ...%............
0500: 03 01 10 0D 00 40 0A 80  0B 80 01 10 13 80 43 00  .....@........C.
0510: 43 01 05 09 00 48 14 80  23 1C 15 80 01 22 05 1C  C....H..#...."..
0520: 16 80 01 25 05 1B                                 ...%..          
```

#### Opcodes

```
  0: 0x0004 [0x42] SET_CLI_EVENT_CANCEL_DATA()
  1: 0x0005 [0x03] ExtData[1]->WorkLocal[15] = 3*
  2: 0x000A [0x03] ExtData[1]->WorkLocal[5] = Work_Zone[2]
  3: 0x000F [0x06] ExtData[1]->WorkLocal[0] = 0
  4: 0x0012 [0x06] ExtData[1]->WorkLocal[1] = 0
  5: 0x0015 [0x06] ExtData[1]->WorkLocal[2] = 0
  6: 0x0018 [0x06] ExtData[1]->WorkLocal[3] = 0
  7: 0x001B [0x03] ExtData[1]->WorkLocal[0] = Work_Zone[3]
  8: 0x0020 [0x03] ExtData[1]->WorkLocal[1] = Work_Zone[4]
  9: 0x0025 [0x03] ExtData[1]->WorkLocal[2] = Work_Zone[5]
 10: 0x002A [0x03] ExtData[1]->WorkLocal[3] = Work_Zone[6]
 11: 0x002F [0x03] ExtData[1]->WorkLocal[19] = Work_Zone[8]
 12: 0x0034 [0x03] ExtData[1]->WorkLocal[18] = Work_Zone[9]
 13: 0x0039 [0x06] Work_Zone[1] = 0
 14: 0x003C [0x06] ExtData[1]->WorkLocal[17] = 0
 15: 0x003F [0x06] ExtData[1]->WorkLocal[6] = 0
 16: 0x0042 [0x06] ExtData[1]->WorkLocal[7] = 0
 17: 0x0045 [0x02] IF !(ExtData[1]->WorkLocal[19] <= 0*) GOTO 0x0065
 18: 0x004D [0x02] IF !(ExtData[1]->WorkLocal[3] <= 0*) GOTO 0x005D
 19: 0x0055 [0x03] ExtData[1]->WorkLocal[15] = 5*
 20: 0x005A [0x01] GOTO 0x0062
 21: 0x005D [0x03] ExtData[1]->WorkLocal[15] = 1*

SUBROUTINE_0062:
 22: 0x0062 [0x01] GOTO 0x00BD
 23: 0x0065 [0x06] ExtData[1]->WorkLocal[16] = 0
 24: 0x0068 [0x40] SET_BIT_WORK_RANGE(start_bit=0*, end_bit=31*, target=ExtData[1]->WorkLocal[16], source=4294967295*)
 25: 0x0071 [0x0F] ExtData[1]->WorkLocal[16] ^= ExtData[1]->WorkLocal[18]
 26: 0x0076 [0x10] ExtData[1]->WorkLocal[16] <<= 1*
 27: 0x007B [0x24] CREATE_DIALOG(message_id=8081*, default_option=0*, option_flags=ExtData[1]->WorkLocal[16])
    → "Enter which battlefield? [None./Endeavoring to Awaken./Endeavoring to Awaken./ /Behind the Sluices./Stonewalled./The Gates./Saved by the Bell./Quiescence./The Charlatan./Yggdrasil Beckons./Yggdrasil Beckons./Watery Grave./Mistress of Ceremonies./A Barrel of Laughs./Sinister Reign./The Ygnas Directive 6./Skirmishes./[Fractures/Obscured Domains]./Alluvion skirmishes./The Silent Forest./Wind of Eternity./Phantasmic Heroes.]"
 28: 0x0082 [0x25] WAIT_DIALOG_SELECT()
 29: 0x0083 [0x02] IF !(Work_Zone[0] == 0*) GOTO 0x0095
 30: 0x008B [0x03] Work_Zone[1] = 1073741824*
 31: 0x0090 [0x21] END_EVENT
 32: 0x0091 [0x00] END_REQSTACK()

SUBROUTINE_0095:
 33: 0x0095 [0x03] ExtData[1]->WorkLocal[17] = Work_Zone[0]
 34: 0x009A [0x0C] ExtData[1]->WorkLocal[17]--
 35: 0x009D [0x02] IF !(ExtData[1]->WorkLocal[17] == 16*) GOTO 0x00AD
 36: 0x00A5 [0x03] ExtData[1]->WorkLocal[15] = 1*
 37: 0x00AA [0x01] GOTO 0x00BD
 38: 0x00AD [0x02] IF !(ExtData[1]->WorkLocal[17] == 18*) GOTO 0x00BD
 39: 0x00B5 [0x03] ExtData[1]->WorkLocal[15] = 5*
 40: 0x00BA [0x01] GOTO 0x00BD

SUBROUTINE_00BD:
 41: 0x00BD [0x02] IF !(ExtData[1]->WorkLocal[15] == 1*) GOTO 0x013E
 42: 0x00C5 [0x3E] IF !(ExtData[1]->WorkLocal[18] bit 18*) GOTO 0x0114
 43: 0x00CC [0x03] Work_Zone[1] = 0*
 44: 0x00D1 [0x40] SET_BIT_WORK_RANGE(start_bit=12*, end_bit=15*, target=Work_Zone[1], source=4*)
 45: 0x00DA [0x43] SEND_EVENT_UPDATE: Send pending tag to server (packet 0x005B)
 46: 0x00DC [0x43] SEND_EVENT_UPDATE: Check pending flag (skip if not pending)
 47: 0x00DE [0x03] ExtData[1]->WorkLocal[5] = Work_Zone[2]
 48: 0x00E3 [0x03] ExtData[1]->WorkLocal[0] = Work_Zone[3]
 49: 0x00E8 [0x03] ExtData[1]->WorkLocal[1] = Work_Zone[4]
 50: 0x00ED [0x03] ExtData[1]->WorkLocal[2] = Work_Zone[5]
 51: 0x00F2 [0x03] ExtData[1]->WorkLocal[3] = Work_Zone[6]
 52: 0x00F7 [0x1A] CALL_SUBROUTINE(address=0x066B)
 53: 0x00FA [0x40] SET_BIT_WORK_RANGE(start_bit=0*, end_bit=11*, target=Work_Zone[1], source=ExtData[1]->WorkLocal[6])
 54: 0x0103 [0x40] SET_BIT_WORK_RANGE(start_bit=16*, end_bit=29*, target=Work_Zone[1], source=ExtData[1]->WorkLocal[7])
 55: 0x010C [0x03] ExtData[1]->WorkLocal[13] = Work_Zone[1]
 56: 0x0111 [0x01] GOTO 0x013B
 57: 0x0114 [0x1A] CALL_SUBROUTINE(address=0x066B)
 58: 0x0117 [0x40] SET_BIT_WORK_RANGE(start_bit=0*, end_bit=11*, target=Work_Zone[1], source=ExtData[1]->WorkLocal[6])
 59: 0x0120 [0x40] SET_BIT_WORK_RANGE(start_bit=16*, end_bit=29*, target=Work_Zone[1], source=ExtData[1]->WorkLocal[7])
 60: 0x0129 [0x03] ExtData[1]->WorkLocal[13] = Work_Zone[1]
 61: 0x012E [0x40] SET_BIT_WORK_RANGE(start_bit=12*, end_bit=15*, target=Work_Zone[1], source=3*)
 62: 0x0137 [0x43] SEND_EVENT_UPDATE: Send pending tag to server (packet 0x005B)
 63: 0x0139 [0x43] SEND_EVENT_UPDATE: Check pending flag (skip if not pending)

SUBROUTINE_013B:
 64: 0x013B [0x01] GOTO 0x01F2
 65: 0x013E [0x02] IF !(ExtData[1]->WorkLocal[15] == 5*) GOTO 0x01BF
 66: 0x0146 [0x3E] IF !(ExtData[1]->WorkLocal[18] bit 16*) GOTO 0x0195
 67: 0x014D [0x03] Work_Zone[1] = 0*
 68: 0x0152 [0x40] SET_BIT_WORK_RANGE(start_bit=12*, end_bit=15*, target=Work_Zone[1], source=5*)
 69: 0x015B [0x43] SEND_EVENT_UPDATE: Send pending tag to server (packet 0x005B)
 70: 0x015D [0x43] SEND_EVENT_UPDATE: Check pending flag (skip if not pending)
 71: 0x015F [0x03] ExtData[1]->WorkLocal[5] = Work_Zone[2]
 72: 0x0164 [0x03] ExtData[1]->WorkLocal[0] = Work_Zone[3]
 73: 0x0169 [0x03] ExtData[1]->WorkLocal[1] = Work_Zone[4]
 74: 0x016E [0x03] ExtData[1]->WorkLocal[2] = Work_Zone[5]
 75: 0x0173 [0x03] ExtData[1]->WorkLocal[3] = Work_Zone[6]
 76: 0x0178 [0x1A] CALL_SUBROUTINE(address=0x066B)
 77: 0x017B [0x40] SET_BIT_WORK_RANGE(start_bit=0*, end_bit=11*, target=Work_Zone[1], source=ExtData[1]->WorkLocal[6])
 78: 0x0184 [0x40] SET_BIT_WORK_RANGE(start_bit=16*, end_bit=29*, target=Work_Zone[1], source=ExtData[1]->WorkLocal[7])
 79: 0x018D [0x03] ExtData[1]->WorkLocal[13] = Work_Zone[1]
 80: 0x0192 [0x01] GOTO 0x01BC
 81: 0x0195 [0x1A] CALL_SUBROUTINE(address=0x066B)
 82: 0x0198 [0x40] SET_BIT_WORK_RANGE(start_bit=0*, end_bit=11*, target=Work_Zone[1], source=ExtData[1]->WorkLocal[6])
 83: 0x01A1 [0x40] SET_BIT_WORK_RANGE(start_bit=16*, end_bit=29*, target=Work_Zone[1], source=ExtData[1]->WorkLocal[7])
 84: 0x01AA [0x03] ExtData[1]->WorkLocal[13] = Work_Zone[1]
 85: 0x01AF [0x40] SET_BIT_WORK_RANGE(start_bit=12*, end_bit=15*, target=Work_Zone[1], source=3*)
 86: 0x01B8 [0x43] SEND_EVENT_UPDATE: Send pending tag to server (packet 0x005B)
 87: 0x01BA [0x43] SEND_EVENT_UPDATE: Check pending flag (skip if not pending)

SUBROUTINE_01BC:
 88: 0x01BC [0x01] GOTO 0x01F2
 89: 0x01BF [0x02] IF !(ExtData[1]->WorkLocal[15] == 3*) GOTO 0x01F2
 90: 0x01C7 [0x9D] ExtData[1]->WorkLocal[6] = 0x0771[ExtData[1]->WorkLocal[17]] // Read WORD
 91: 0x01CF [0x40] SET_BIT_WORK_RANGE(start_bit=0*, end_bit=11*, target=Work_Zone[1], source=ExtData[1]->WorkLocal[6])
 92: 0x01D8 [0x40] SET_BIT_WORK_RANGE(start_bit=12*, end_bit=15*, target=Work_Zone[1], source=0*)
 93: 0x01E1 [0x40] SET_BIT_WORK_RANGE(start_bit=16*, end_bit=29*, target=Work_Zone[1], source=ExtData[1]->WorkLocal[7])
 94: 0x01EA [0x03] ExtData[1]->WorkLocal[13] = Work_Zone[1]
 95: 0x01EF [0x01] GOTO 0x01F2

SUBROUTINE_01F2:
 96: 0x01F2 [0x06] ExtData[1]->WorkLocal[4] = 0
 97: 0x01F5 [0x05] ExtData[1]->WorkLocal[8] = 1

SUBROUTINE_01F8:
 98: 0x01F8 [0x02] IF !(ExtData[1]->WorkLocal[4] == 0*) GOTO 0x0249
 99: 0x0200 [0x1A] CALL_SUBROUTINE(address=0x024B)
100: 0x0203 [0x03] Work_Zone[3] = ExtData[1]->WorkLocal[15]
101: 0x0208 [0x48] [System] [8061*]:
    → "Only party members present with you in this area will be transported to [/this skirmish in ////this alluvion skirmish in /]$8."
102: 0x020B [0x23] WAIT_FOR_DIALOG_INTERACTION
103: 0x020C [0x24] CREATE_DIALOG(message_id=8062*, default_option=ExtData[1]->WorkLocal[8], option_flags=0*)
    → "Proceed? [Yes./No.]"
104: 0x0213 [0x25] WAIT_DIALOG_SELECT()
105: 0x0214 [0x02] IF !(Work_Zone[0] == 0*) GOTO 0x0228
106: 0x021C [0x06] ExtData[1]->WorkLocal[8] = 0
107: 0x021F [0x48] [System] [8069*]:
    → "Your request for entry is being considered..."
108: 0x0222 [0x1A] CALL_SUBROUTINE(address=0x027B)
109: 0x0225 [0x01] GOTO 0x0246
110: 0x0228 [0x02] IF !(Work_Zone[0] == 1*) GOTO 0x0246
111: 0x0230 [0x03] Work_Zone[1] = 1073741824*
112: 0x0235 [0x1A] CALL_SUBROUTINE(address=0x024B)
113: 0x0238 [0x03] Work_Zone[3] = ExtData[1]->WorkLocal[15]
114: 0x023D [0x48] [System] [8064*]:
    → "You have chosen not to enter [/this skirmish in ////this alluvion skirmish in /]$8."
115: 0x0240 [0x05] ExtData[1]->WorkLocal[4] = 1
116: 0x0243 [0x01] GOTO 0x0246

SUBROUTINE_0246:
117: 0x0246 [0x01] GOTO 0x01F8
118: 0x0249 [0x21] END_EVENT
119: 0x024A [0x00] END_REQSTACK()

SUBROUTINE_024B:
120: 0x024B [0x02] IF !(ExtData[1]->WorkLocal[15] == 3*) GOTO 0x025E
121: 0x0253 [0x9D] Work_Zone[2] = 0x07A1[ExtData[1]->WorkLocal[17]] // Read WORD
122: 0x025B [0x01] GOTO 0x027A
123: 0x025E [0x02] IF !(ExtData[1]->WorkLocal[15] == 1*) GOTO 0x026C
124: 0x0266 [0x1A] CALL_SUBROUTINE(address=0x06F0)
125: 0x0269 [0x01] GOTO 0x027A
126: 0x026C [0x02] IF !(ExtData[1]->WorkLocal[15] == 5*) GOTO 0x027A
127: 0x0274 [0x1A] CALL_SUBROUTINE(address=0x06F0)
128: 0x0277 [0x01] GOTO 0x027A

SUBROUTINE_027A:
129: 0x027A [0x1B] RETURN

SUBROUTINE_027B:
130: 0x027B [0x06] ExtData[1]->WorkLocal[9] = 0
131: 0x027E [0x06] ExtData[1]->WorkLocal[12] = 0
132: 0x0281 [0x06] ExtData[1]->WorkLocal[10] = 0

SUBROUTINE_0284:
133: 0x0284 [0x02] IF !(ExtData[1]->WorkLocal[9] == 0*) GOTO 0x02AB
134: 0x028C [0x02] IF !(ExtData[1]->WorkLocal[12] == 0*) GOTO 0x029A
135: 0x0294 [0x1A] CALL_SUBROUTINE(address=0x02AC)
136: 0x0297 [0x01] GOTO 0x02A8
137: 0x029A [0x02] IF !(ExtData[1]->WorkLocal[12] == 1*) GOTO 0x02A8
138: 0x02A2 [0x1A] CALL_SUBROUTINE(address=0x036D)
139: 0x02A5 [0x01] GOTO 0x02A8

SUBROUTINE_02A8:
140: 0x02A8 [0x01] GOTO 0x0284
141: 0x02AB [0x1B] RETURN

SUBROUTINE_02AC:
142: 0x02AC [0x03] Work_Zone[1] = ExtData[1]->WorkLocal[13]
143: 0x02B1 [0x40] SET_BIT_WORK_RANGE(start_bit=12*, end_bit=15*, target=Work_Zone[1], source=ExtData[1]->WorkLocal[12])
144: 0x02BA [0x43] SEND_EVENT_UPDATE: Send pending tag to server (packet 0x005B)
145: 0x02BC [0x43] SEND_EVENT_UPDATE: Check pending flag (skip if not pending)
146: 0x02BE [0x03] ExtData[1]->WorkLocal[11] = Work_Zone[9]
147: 0x02C3 [0x03] Work_Zone[1] = 0*
148: 0x02C8 [0x02] IF !(ExtData[1]->WorkLocal[11] == 1*) GOTO 0x02D8
149: 0x02D0 [0x03] ExtData[1]->WorkLocal[12] = 1*
150: 0x02D5 [0x01] GOTO 0x036C
151: 0x02D8 [0x02] IF !(ExtData[1]->WorkLocal[11] == 2*) GOTO 0x02FE
152: 0x02E0 [0x0B] ExtData[1]->WorkLocal[10]++
153: 0x02E3 [0x02] IF !(ExtData[1]->WorkLocal[10] <= 5*) GOTO 0x02F8
154: 0x02EB [0x05] ExtData[1]->WorkLocal[9] = 1
155: 0x02EE [0x48] [System] [8066*]:
    → "You cannot enter at this time. Please wait a moment and try again."
156: 0x02F1 [0x23] WAIT_FOR_DIALOG_INTERACTION
157: 0x02F2 [0x1C] WAIT(60* ticks)
158: 0x02F5 [0x01] GOTO 0x02FB
159: 0x02F8 [0x1C] WAIT(120* ticks)

SUBROUTINE_02FB:
160: 0x02FB [0x01] GOTO 0x036C
161: 0x02FE [0x02] IF !(ExtData[1]->WorkLocal[11] == 3*) GOTO 0x0314
162: 0x0306 [0x03] Work_Zone[1] = 1073741824*
163: 0x030B [0x05] ExtData[1]->WorkLocal[9] = 1
164: 0x030E [0x05] ExtData[1]->WorkLocal[4] = 1
165: 0x0311 [0x01] GOTO 0x036C
166: 0x0314 [0x02] IF !(ExtData[1]->WorkLocal[11] == 4*) GOTO 0x032A
167: 0x031C [0x03] Work_Zone[1] = 1073741824*
168: 0x0321 [0x05] ExtData[1]->WorkLocal[9] = 1
169: 0x0324 [0x05] ExtData[1]->WorkLocal[4] = 1
170: 0x0327 [0x01] GOTO 0x036C
171: 0x032A [0x02] IF !(ExtData[1]->WorkLocal[11] == 5*) GOTO 0x0340
172: 0x0332 [0x03] Work_Zone[1] = 1073741824*
173: 0x0337 [0x05] ExtData[1]->WorkLocal[9] = 1
174: 0x033A [0x05] ExtData[1]->WorkLocal[4] = 1
175: 0x033D [0x01] GOTO 0x036C
176: 0x0340 [0x02] IF !(ExtData[1]->WorkLocal[11] == 6*) GOTO 0x0356
177: 0x0348 [0x03] Work_Zone[1] = 1073741824*
178: 0x034D [0x05] ExtData[1]->WorkLocal[9] = 1
179: 0x0350 [0x05] ExtData[1]->WorkLocal[4] = 1
180: 0x0353 [0x01] GOTO 0x036C
181: 0x0356 [0x02] IF !(ExtData[1]->WorkLocal[11] == 7*) GOTO 0x036C
182: 0x035E [0x03] Work_Zone[1] = 1073741824*
183: 0x0363 [0x05] ExtData[1]->WorkLocal[9] = 1
184: 0x0366 [0x05] ExtData[1]->WorkLocal[4] = 1
185: 0x0369 [0x01] GOTO 0x036C

SUBROUTINE_036C:
186: 0x036C [0x1B] RETURN

SUBROUTINE_036D:
187: 0x036D [0x03] Work_Zone[1] = ExtData[1]->WorkLocal[13]
188: 0x0372 [0x40] SET_BIT_WORK_RANGE(start_bit=12*, end_bit=15*, target=Work_Zone[1], source=ExtData[1]->WorkLocal[12])
189: 0x037B [0x43] SEND_EVENT_UPDATE: Send pending tag to server (packet 0x005B)
190: 0x037D [0x43] SEND_EVENT_UPDATE: Check pending flag (skip if not pending)
191: 0x037F [0x03] Work_Zone[1] = 0*
192: 0x0384 [0x03] ExtData[1]->WorkLocal[11] = Work_Zone[9]
193: 0x0389 [0x02] IF !(ExtData[1]->WorkLocal[11] == 3*) GOTO 0x039C
194: 0x0391 [0x03] Work_Zone[1] = 1073741824*
195: 0x0396 [0x05] ExtData[1]->WorkLocal[9] = 1
196: 0x0399 [0x01] GOTO 0x0525
197: 0x039C [0x02] IF !(ExtData[1]->WorkLocal[11] == 4*) GOTO 0x03B2
198: 0x03A4 [0x03] Work_Zone[1] = 1073741824*
199: 0x03A9 [0x05] ExtData[1]->WorkLocal[9] = 1
200: 0x03AC [0x05] ExtData[1]->WorkLocal[4] = 1
201: 0x03AF [0x01] GOTO 0x0525
202: 0x03B2 [0x02] IF !(ExtData[1]->WorkLocal[11] == 5*) GOTO 0x03C8
203: 0x03BA [0x03] Work_Zone[1] = 1073741824*
204: 0x03BF [0x05] ExtData[1]->WorkLocal[9] = 1
205: 0x03C2 [0x05] ExtData[1]->WorkLocal[4] = 1
206: 0x03C5 [0x01] GOTO 0x0525
207: 0x03C8 [0x02] IF !(ExtData[1]->WorkLocal[11] == 6*) GOTO 0x03DE
208: 0x03D0 [0x03] Work_Zone[1] = 1073741824*
209: 0x03D5 [0x05] ExtData[1]->WorkLocal[9] = 1
210: 0x03D8 [0x05] ExtData[1]->WorkLocal[4] = 1
211: 0x03DB [0x01] GOTO 0x0525
212: 0x03DE [0x02] IF !(ExtData[1]->WorkLocal[11] == 7*) GOTO 0x03F4
213: 0x03E6 [0x03] Work_Zone[1] = 1073741824*
214: 0x03EB [0x05] ExtData[1]->WorkLocal[9] = 1
215: 0x03EE [0x05] ExtData[1]->WorkLocal[4] = 1
216: 0x03F1 [0x01] GOTO 0x0525
217: 0x03F4 [0x02] IF !(ExtData[1]->WorkLocal[11] == 8*) GOTO 0x04C4
218: 0x03FC [0x02] IF !(ExtData[1]->WorkLocal[15] == 1*) GOTO 0x0413
219: 0x0404 [0x1A] CALL_SUBROUTINE(address=0x024B)
220: 0x0407 [0x03] Work_Zone[3] = ExtData[1]->WorkLocal[15]
221: 0x040C [0x48] [System] [8063*]:
    → "Now entering [/a skirmish in ////an alluvion skirmish in /]$8."
222: 0x040F [0x23] WAIT_FOR_DIALOG_INTERACTION
223: 0x0410 [0x01] GOTO 0x0446
224: 0x0413 [0x02] IF !(ExtData[1]->WorkLocal[15] == 5*) GOTO 0x042A
225: 0x041B [0x1A] CALL_SUBROUTINE(address=0x024B)
226: 0x041E [0x03] Work_Zone[3] = ExtData[1]->WorkLocal[15]
227: 0x0423 [0x48] [System] [8063*]:
    → "Now entering [/a skirmish in ////an alluvion skirmish in /]$8."
228: 0x0426 [0x23] WAIT_FOR_DIALOG_INTERACTION
229: 0x0427 [0x01] GOTO 0x0446
230: 0x042A [0x02] IF !(ExtData[1]->WorkLocal[15] == 3*) GOTO 0x0446
231: 0x0432 [0x9D] Work_Zone[2] = 0x07A1[ExtData[1]->WorkLocal[17]] // Read WORD
232: 0x043A [0x03] Work_Zone[3] = ExtData[1]->WorkLocal[15]
233: 0x043F [0x48] [System] [8063*]:
    → "Now entering [/a skirmish in ////an alluvion skirmish in /]$8."
234: 0x0442 [0x23] WAIT_FOR_DIALOG_INTERACTION
235: 0x0443 [0x01] GOTO 0x0446

SUBROUTINE_0446:
236: 0x0446 [0x62] LOAD_EVENT_SCHEDULER: Load scheduler "main" with entities [LocalPlayer, LocalPlayer], work=[1*, 0*]
237: 0x0457 [0x1C] WAIT(90* ticks)
238: 0x045A [0x45] LOAD_SCHEDULED_TASK: Load scheduler "who1" with entities [LocalPlayer, LocalPlayer], work=[201*, 0*]
239: 0x046B [0x55] WAIT_LOAD_SCHEDULER: Wait for scheduler "who1" with entities [LocalPlayer, LocalPlayer], work=201*
240: 0x047A [0x1C] WAIT(45* ticks)
241: 0x047D [0x45] LOAD_SCHEDULED_TASK: Load scheduler "fdo1" with entities [LocalPlayer, LocalPlayer], work=[200*, 0*]
242: 0x048E [0x55] WAIT_LOAD_SCHEDULER: Wait for scheduler "fdo1" with entities [LocalPlayer, LocalPlayer], work=200*
243: 0x049D [0x45] LOAD_SCHEDULED_TASK: Load scheduler "whi1" with entities [LocalPlayer, LocalPlayer], work=[201*, 0*]
244: 0x04AE [0x1C] WAIT(15* ticks)
245: 0x04B1 [0x30] SET_UCOFF_CONTINUE_ZERO()
246: 0x04B2 [0x05] ExtData[1]->WorkLocal[9] = 1
247: 0x04B5 [0x05] ExtData[1]->WorkLocal[4] = 1
248: 0x04B8 [0x40] SET_BIT_WORK_RANGE(start_bit=0*, end_bit=7*, target=Work_Zone[1], source=8*)
249: 0x04C1 [0x01] GOTO 0x0525
250: 0x04C4 [0x02] IF !(ExtData[1]->WorkLocal[11] == 9*) GOTO 0x04D7
251: 0x04CC [0x03] Work_Zone[1] = 1073741824*
252: 0x04D1 [0x05] ExtData[1]->WorkLocal[9] = 1
253: 0x04D4 [0x01] GOTO 0x0525
254: 0x04D7 [0x02] IF !(ExtData[1]->WorkLocal[11] == 10*) GOTO 0x04ED
255: 0x04DF [0x03] Work_Zone[1] = 1073741824*
256: 0x04E4 [0x05] ExtData[1]->WorkLocal[9] = 1
257: 0x04E7 [0x05] ExtData[1]->WorkLocal[4] = 1
258: 0x04EA [0x01] GOTO 0x0525
259: 0x04ED [0x02] IF !(ExtData[1]->WorkLocal[11] == 11*) GOTO 0x0525
260: 0x04F5 [0x0B] ExtData[1]->WorkLocal[10]++
261: 0x04F8 [0x02] IF !(ExtData[1]->WorkLocal[10] <= 15*) GOTO 0x051F
262: 0x0500 [0x03] Work_Zone[1] = ExtData[1]->WorkLocal[13]
263: 0x0505 [0x40] SET_BIT_WORK_RANGE(start_bit=12*, end_bit=15*, target=Work_Zone[1], source=2*)
264: 0x050E [0x43] SEND_EVENT_UPDATE: Send pending tag to server (packet 0x005B)
265: 0x0510 [0x43] SEND_EVENT_UPDATE: Check pending flag (skip if not pending)
266: 0x0512 [0x05] ExtData[1]->WorkLocal[9] = 1
267: 0x0515 [0x48] [System] [8066*]:
    → "You cannot enter at this time. Please wait a moment and try again."
268: 0x0518 [0x23] WAIT_FOR_DIALOG_INTERACTION
269: 0x0519 [0x1C] WAIT(60* ticks)
270: 0x051C [0x01] GOTO 0x0522
271: 0x051F [0x1C] WAIT(120* ticks)

SUBROUTINE_0522:
272: 0x0522 [0x01] GOTO 0x0525

SUBROUTINE_0525:
273: 0x0525 [0x1B] RETURN
```

#### Data or dead code:

```
# Dead code (unreachable instructions):
     0x0092 [0x01] GOTO 0x0095
```

### Event 5502

#### Metadata

| Field        | Value     |
|--------------|-----------|
| Entrypoint   | 0x0526    |
| Data Size    | 715 bytes |
| Instructions | 125       |

```
      00 01 02 03 04 05 06 07  08 09 0A 0B 0C 0D 0E 0F
      -- -- -- -- -- -- -- --  -- -- -- -- -- -- -- --
0520:                   42 03  05 00 02 10 06 00 00 06        B.........
0530: 01 00 06 02 00 06 03 00  24 21 80 01 80 01 80 25  ........$!.....%
0540: 02 00 10 01 80 00 52 05  03 01 10 07 80 21 00 01  ......R......!..
0550: 52 05 03 00 00 00 10 24  22 80 01 80 01 80 25 02  R......$".....%.
0560: 00 10 01 80 00 71 05 03  01 10 07 80 21 00 01 71  .....q......!..q
0570: 05 03 01 00 00 10 06 01  10 03 03 10 13 80 03 04  ................
0580: 10 00 80 03 05 10 0C 80  03 06 10 02 80 03 07 10  ................
0590: 17 80 24 23 80 01 80 01  80 25 02 00 10 01 80 00  ..$#.....%......
05A0: AC 05 03 01 10 07 80 21  00 01 AC 05 06 01 10 03  .......!........
05B0: 02 00 00 10 24 24 80 01  80 01 80 25 02 00 10 01  ....$$.....%....
05C0: 80 00 CE 05 03 01 10 07  80 21 00 01 CE 05 06 01  .........!......
05D0: 10 03 03 00 00 10 02 03  00 17 80 00 E3 05 03 03  ................
05E0: 00 01 80 02 03 00 01 80  02 F3 05 03 0F 00 02 80  ................
05F0: 01 F8 05 03 0F 00 03 80  1A 6B 06 40 01 80 0D 80  .........k.@....
0600: 01 10 06 00 40 08 80 0E  80 01 10 07 00 03 0D 00  ....@...........
0610: 01 10 06 04 00 05 08 00  02 04 00 01 80 00 69 06  ..............i.
0620: 1A F0 06 03 03 10 0F 00  48 0F 80 23 24 10 80 08  ........H..#$...
0630: 00 01 80 25 02 00 10 01  80 00 48 06 06 08 00 48  ...%......H....H
0640: 11 80 1A 7B 02 01 66 06  02 00 10 03 80 00 66 06  ...{..f.......f.
0650: 03 01 10 07 80 1A F0 06  03 03 10 0F 00 48 12 80  .............H..
0660: 05 04 00 01 66 06 01 18  06 21 00 02 03 00 01 80  ....f....!......
0670: 02 B1 06 02 05 00 01 80  80 83 06 03 06 00 25 80  ..............%.
0680: 01 AE 06 02 05 00 03 80  80 93 06 03 06 00 26 80  ..............&.
0690: 01 AE 06 02 05 00 13 80  80 A3 06 03 06 00 27 80  ..............'.
06A0: 01 AE 06 02 05 00 00 80  80 AE 06 01 AE 06 01 C8  ................
06B0: 06 03 06 00 05 00 14 06  00 19 80 07 06 00 01 00  ................
06C0: 0C 06 00 07 06 00 28 80  06 07 00 40 01 80 13 80  ......(....@....
06D0: 07 00 00 00 40 00 80 02  80 07 00 01 00 40 17 80  ....@........@..
06E0: 19 80 07 00 02 00 40 1F  80 0D 80 07 00 03 00 1B  ......@.........
06F0: 02 05 00 01 80 80 00 07  03 02 10 29 80 01 70 07  ...........)..p.
0700: 02 05 00 03 80 80 10 07  03 02 10 2A 80 01 70 07  ...........*..p.
0710: 02 05 00 13 80 80 20 07  03 02 10 2B 80 01 70 07  ...... ....+..p.
0720: 02 05 00 00 80 80 30 07  03 02 10 2C 80 01 70 07  ......0....,..p.
0730: 02 05 00 0C 80 80 40 07  03 02 10 0C 80 01 70 07  ......@.......p.
0740: 02 05 00 02 80 80 50 07  03 02 10 13 80 01 70 07  ......P.......p.
0750: 02 05 00 17 80 80 60 07  03 02 10 13 80 01 70 07  ......`.......p.
0760: 02 05 00 18 80 80 70 07  03 02 10 13 80 01 70 07  ......p.......p.
0770: 1B 2D 80 2E 80 2F 80 30  80 31 80 32 80 33 80 34  .-.../.0.1.2.3.4
0780: 80 35 80 36 80 37 80 38  80 39 80 3A 80 3B 80 3C  .5.6.7.8.9.:.;.<
0790: 80 01 80 01 80 01 80 3D  80 3D 80 3E 80 01 80 01  .......=.=.>....
07A0: 80 29 80 29 80 2A 80 29  80 2B 80 2B 80 2A 80 29  .).).*.).+.+.*.)
07B0: 80 29 80 2A 80 2B 80 29  80 2A 80 29 80 29 80 2A  .).*.+.).*.).).*
07C0: 80 01 80 01 80 01 80 2A  80 2A 80 3F 80 01 80 01  .......*.*.?....
07D0: 80 3B 80 40 80 41 80 42  80 43 80 44 80 45 80 46  .;.@.A.B.C.D.E.F
07E0: 80 47 80 48 80 01 80 01  80 01 80 01 80 01 80 01  .G.H............
07F0: 80                                                .               
```

#### Opcodes

```
  0: 0x0526 [0x42] SET_CLI_EVENT_CANCEL_DATA()
  1: 0x0527 [0x03] ExtData[1]->WorkLocal[5] = Work_Zone[2]
  2: 0x052C [0x06] ExtData[1]->WorkLocal[0] = 0
  3: 0x052F [0x06] ExtData[1]->WorkLocal[1] = 0
  4: 0x0532 [0x06] ExtData[1]->WorkLocal[2] = 0
  5: 0x0535 [0x06] ExtData[1]->WorkLocal[3] = 0
  6: 0x0538 [0x24] CREATE_DIALOG(message_id=8075*, default_option=0*, option_flags=0*)
    → "What's the visage's obtainment rate? [Never mind./Rank I./Rank II./Rank III./Rank IV./Rank V.]"
  7: 0x053F [0x25] WAIT_DIALOG_SELECT()
  8: 0x0540 [0x02] IF !(Work_Zone[0] == 0*) GOTO 0x0552
  9: 0x0548 [0x03] Work_Zone[1] = 1073741824*
 10: 0x054D [0x21] END_EVENT
 11: 0x054E [0x00] END_REQSTACK()

SUBROUTINE_0552:
 12: 0x0552 [0x03] ExtData[1]->WorkLocal[0] = Work_Zone[0]
 13: 0x0557 [0x24] CREATE_DIALOG(message_id=8074*, default_option=0*, option_flags=0*)
    → "What's the torso's size? [Never mind./Rank I./Rank II./Rank III./Rank IV./Rank V.]"
 14: 0x055E [0x25] WAIT_DIALOG_SELECT()
 15: 0x055F [0x02] IF !(Work_Zone[0] == 0*) GOTO 0x0571
 16: 0x0567 [0x03] Work_Zone[1] = 1073741824*
 17: 0x056C [0x21] END_EVENT
 18: 0x056D [0x00] END_REQSTACK()

SUBROUTINE_0571:
 19: 0x0571 [0x03] ExtData[1]->WorkLocal[1] = Work_Zone[0]
 20: 0x0576 [0x06] Work_Zone[1] = 0
 21: 0x0579 [0x03] Work_Zone[3] = 2*
 22: 0x057E [0x03] Work_Zone[4] = 3*
 23: 0x0583 [0x03] Work_Zone[5] = 4*
 24: 0x0588 [0x03] Work_Zone[6] = 5*
 25: 0x058D [0x03] Work_Zone[7] = 6*
 26: 0x0592 [0x24] CREATE_DIALOG(message_id=8076*, default_option=0*, option_flags=0*)
    → "What rank are the legs' benefits? [Never mind./Rank I./Rank II./Rank III./Rank IV./Rank V.]"
 27: 0x0599 [0x25] WAIT_DIALOG_SELECT()
 28: 0x059A [0x02] IF !(Work_Zone[0] == 0*) GOTO 0x05AC
 29: 0x05A2 [0x03] Work_Zone[1] = 1073741824*
 30: 0x05A7 [0x21] END_EVENT
 31: 0x05A8 [0x00] END_REQSTACK()

SUBROUTINE_05AC:
 32: 0x05AC [0x06] Work_Zone[1] = 0
 33: 0x05AF [0x03] ExtData[1]->WorkLocal[2] = Work_Zone[0]
 34: 0x05B4 [0x24] CREATE_DIALOG(message_id=8077*, default_option=0*, option_flags=0*)
    → "Ready for an alluvion skirmish? [No./Alluvion A./Alluvion B./Alluvion C./Alluvion D./Alluvion E./Just a regular skirmish, please.]"
 35: 0x05BB [0x25] WAIT_DIALOG_SELECT()
 36: 0x05BC [0x02] IF !(Work_Zone[0] == 0*) GOTO 0x05CE
 37: 0x05C4 [0x03] Work_Zone[1] = 1073741824*
 38: 0x05C9 [0x21] END_EVENT
 39: 0x05CA [0x00] END_REQSTACK()

SUBROUTINE_05CE:
 40: 0x05CE [0x06] Work_Zone[1] = 0
 41: 0x05D1 [0x03] ExtData[1]->WorkLocal[3] = Work_Zone[0]
 42: 0x05D6 [0x02] IF !(ExtData[1]->WorkLocal[3] == 6*) GOTO 0x05E3
 43: 0x05DE [0x03] ExtData[1]->WorkLocal[3] = 0*
 44: 0x05E3 [0x02] IF !(ExtData[1]->WorkLocal[3] <= 0*) GOTO 0x05F3
 45: 0x05EB [0x03] ExtData[1]->WorkLocal[15] = 5*
 46: 0x05F0 [0x01] GOTO 0x05F8
 47: 0x05F3 [0x03] ExtData[1]->WorkLocal[15] = 1*

SUBROUTINE_05F8:
 48: 0x05F8 [0x1A] CALL_SUBROUTINE(address=0x066B)
 49: 0x05FB [0x40] SET_BIT_WORK_RANGE(start_bit=0*, end_bit=11*, target=Work_Zone[1], source=ExtData[1]->WorkLocal[6])
 50: 0x0604 [0x40] SET_BIT_WORK_RANGE(start_bit=16*, end_bit=29*, target=Work_Zone[1], source=ExtData[1]->WorkLocal[7])
 51: 0x060D [0x03] ExtData[1]->WorkLocal[13] = Work_Zone[1]
 52: 0x0612 [0x06] ExtData[1]->WorkLocal[4] = 0
 53: 0x0615 [0x05] ExtData[1]->WorkLocal[8] = 1

SUBROUTINE_0618:
 54: 0x0618 [0x02] IF !(ExtData[1]->WorkLocal[4] == 0*) GOTO 0x0669
 55: 0x0620 [0x1A] CALL_SUBROUTINE(address=0x06F0)
 56: 0x0623 [0x03] Work_Zone[3] = ExtData[1]->WorkLocal[15]
 57: 0x0628 [0x48] [System] [8061*]:
    → "Only party members present with you in this area will be transported to [/this skirmish in ////this alluvion skirmish in /]$8."
 58: 0x062B [0x23] WAIT_FOR_DIALOG_INTERACTION
 59: 0x062C [0x24] CREATE_DIALOG(message_id=8062*, default_option=ExtData[1]->WorkLocal[8], option_flags=0*)
    → "Proceed? [Yes./No.]"
 60: 0x0633 [0x25] WAIT_DIALOG_SELECT()
 61: 0x0634 [0x02] IF !(Work_Zone[0] == 0*) GOTO 0x0648
 62: 0x063C [0x06] ExtData[1]->WorkLocal[8] = 0
 63: 0x063F [0x48] [System] [8069*]:
    → "Your request for entry is being considered..."
 64: 0x0642 [0x1A] CALL_SUBROUTINE(address=0x027B)
 65: 0x0645 [0x01] GOTO 0x0666
 66: 0x0648 [0x02] IF !(Work_Zone[0] == 1*) GOTO 0x0666
 67: 0x0650 [0x03] Work_Zone[1] = 1073741824*
 68: 0x0655 [0x1A] CALL_SUBROUTINE(address=0x06F0)
 69: 0x0658 [0x03] Work_Zone[3] = ExtData[1]->WorkLocal[15]
 70: 0x065D [0x48] [System] [8064*]:
    → "You have chosen not to enter [/this skirmish in ////this alluvion skirmish in /]$8."
 71: 0x0660 [0x05] ExtData[1]->WorkLocal[4] = 1
 72: 0x0663 [0x01] GOTO 0x0666

SUBROUTINE_0666:
 73: 0x0666 [0x01] GOTO 0x0618
 74: 0x0669 [0x21] END_EVENT
 75: 0x066A [0x00] END_REQSTACK()

SUBROUTINE_066B:
 76: 0x066B [0x02] IF !(ExtData[1]->WorkLocal[3] <= 0*) GOTO 0x06B1
 77: 0x0673 [0x02] IF !(ExtData[1]->WorkLocal[5] == 0*) GOTO 0x0683
 78: 0x067B [0x03] ExtData[1]->WorkLocal[6] = 805*
 79: 0x0680 [0x01] GOTO 0x06AE
 80: 0x0683 [0x02] IF !(ExtData[1]->WorkLocal[5] == 1*) GOTO 0x0693
 81: 0x068B [0x03] ExtData[1]->WorkLocal[6] = 807*
 82: 0x0690 [0x01] GOTO 0x06AE
 83: 0x0693 [0x02] IF !(ExtData[1]->WorkLocal[5] == 2*) GOTO 0x06A3
 84: 0x069B [0x03] ExtData[1]->WorkLocal[6] = 806*
 85: 0x06A0 [0x01] GOTO 0x06AE
 86: 0x06A3 [0x02] IF !(ExtData[1]->WorkLocal[5] == 3*) GOTO 0x06AE
 87: 0x06AB [0x01] GOTO 0x06AE

SUBROUTINE_06AE:
 88: 0x06AE [0x01] GOTO 0x06C8
 89: 0x06B1 [0x03] ExtData[1]->WorkLocal[6] = ExtData[1]->WorkLocal[5]
 90: 0x06B6 [0x14] ExtData[1]->WorkLocal[6] *= 8*
 91: 0x06BB [0x07] ExtData[1]->WorkLocal[6] += ExtData[1]->WorkLocal[1]
 92: 0x06C0 [0x0C] ExtData[1]->WorkLocal[6]--
 93: 0x06C3 [0x07] ExtData[1]->WorkLocal[6] += 800*

SUBROUTINE_06C8:
 94: 0x06C8 [0x06] ExtData[1]->WorkLocal[7] = 0
 95: 0x06CB [0x40] SET_BIT_WORK_RANGE(start_bit=0*, end_bit=2*, target=ExtData[1]->WorkLocal[7], source=ExtData[1]->WorkLocal[0])
 96: 0x06D4 [0x40] SET_BIT_WORK_RANGE(start_bit=3*, end_bit=5*, target=ExtData[1]->WorkLocal[7], source=ExtData[1]->WorkLocal[1])
 97: 0x06DD [0x40] SET_BIT_WORK_RANGE(start_bit=6*, end_bit=8*, target=ExtData[1]->WorkLocal[7], source=ExtData[1]->WorkLocal[2])
 98: 0x06E6 [0x40] SET_BIT_WORK_RANGE(start_bit=9*, end_bit=11*, target=ExtData[1]->WorkLocal[7], source=ExtData[1]->WorkLocal[3])
 99: 0x06EF [0x1B] RETURN

SUBROUTINE_06F0:
100: 0x06F0 [0x02] IF !(ExtData[1]->WorkLocal[5] == 0*) GOTO 0x0700
101: 0x06F8 [0x03] Work_Zone[2] = 259*
102: 0x06FD [0x01] GOTO 0x0770
103: 0x0700 [0x02] IF !(ExtData[1]->WorkLocal[5] == 1*) GOTO 0x0710
104: 0x0708 [0x03] Work_Zone[2] = 264*
105: 0x070D [0x01] GOTO 0x0770
106: 0x0710 [0x02] IF !(ExtData[1]->WorkLocal[5] == 2*) GOTO 0x0720
107: 0x0718 [0x03] Work_Zone[2] = 271*
108: 0x071D [0x01] GOTO 0x0770
109: 0x0720 [0x02] IF !(ExtData[1]->WorkLocal[5] == 3*) GOTO 0x0730
110: 0x0728 [0x03] Work_Zone[2] = 275*
111: 0x072D [0x01] GOTO 0x0770
112: 0x0730 [0x02] IF !(ExtData[1]->WorkLocal[5] == 4*) GOTO 0x0740
113: 0x0738 [0x03] Work_Zone[2] = 4*
114: 0x073D [0x01] GOTO 0x0770
115: 0x0740 [0x02] IF !(ExtData[1]->WorkLocal[5] == 5*) GOTO 0x0750
116: 0x0748 [0x03] Work_Zone[2] = 2*
117: 0x074D [0x01] GOTO 0x0770
118: 0x0750 [0x02] IF !(ExtData[1]->WorkLocal[5] == 6*) GOTO 0x0760
119: 0x0758 [0x03] Work_Zone[2] = 2*
120: 0x075D [0x01] GOTO 0x0770
121: 0x0760 [0x02] IF !(ExtData[1]->WorkLocal[5] == 7*) GOTO 0x0770
122: 0x0768 [0x03] Work_Zone[2] = 2*
123: 0x076D [0x01] GOTO 0x0770

SUBROUTINE_0770:
124: 0x0770 [0x1B] RETURN
```

#### Data or dead code:

```
# Dead code (unreachable instructions):
     0x054F [0x01] GOTO 0x0552
# Dead code (unreachable instructions):
     0x056E [0x01] GOTO 0x0571
# Dead code (unreachable instructions):
     0x05A9 [0x01] GOTO 0x05AC
# Dead code (unreachable instructions):
     0x05CB [0x01] GOTO 0x05CE
# Dead code (unreachable instructions):
     0x0771 [0x2D] CREATE_ZONE_SCHEDULER_TASK: Create scheduler 0x33803280 with entities [Unknown NPC (ID: 796929664/0x2F802E80), Unknown NPC (ID: 830484608/0x31803080)]
     0x077E [0x80] LOAD_WAIT(entity=Unknown NPC (ID: 2150989876/0x80358034))
     0x0783 [0x36] SET_ENTITY_EVENT_POSITION(pos_x=0x3780, pos_z=0x3880, pos_y=0x3980)
     0x078A [0x80] LOAD_WAIT(entity=Unknown NPC (ID: 2151383098/0x803B803A))
     0x078F [0x3C] SET_BIT_FLAG_CONDITIONAL(target_work_offset=0x0180, bit_index_work_offset=0x0180, condition_work_offset=0x0180)
     0x0796 [0x80] LOAD_WAIT(entity=Unknown NPC (ID: 2151514173/0x803D803D))
     0x079B [0x3E] IF !(0x0180 bit 0x0180) GOTO 0x2980
     0x07A2 [0x80] LOAD_WAIT(entity=Unknown NPC (ID: 2150268969/0x802A8029))
     0x07A7 [0x29] REQ_SET_WAIT(priority=0x80, entity_id=Unknown NPC (ID: 2150334507/0x802B802B), tag_num=0x2A)
     0x07AE [0x80] LOAD_WAIT(entity=Unknown NPC (ID: 2150203433/0x80298029))
     0x07B3 [0x2A] GET_REQ_LEVEL(level=128, entity_id=Unknown NPC (ID: 2150203435/0x8029802B))
     0x07B9 [0x2A] GET_REQ_LEVEL(level=128, entity_id=Unknown NPC (ID: 2150203433/0x80298029))
     0x07BF [0x2A] GET_REQ_LEVEL(level=128, entity_id=Unknown NPC (ID: 2147581953/0x80018001))
     0x07C5 [0x01] GOTO 0x2A80
     0x07C8 [0x80] LOAD_WAIT(entity=Unknown NPC (ID: 2151645226/0x803F802A))
     0x07CD [0x01] GOTO 0x0180
     0x07D0 [0x80] LOAD_WAIT(entity=Unknown NPC (ID: 2151710779/0x8040803B))
     0x07D5 [0x41] 0x4580 = 0x4480 (bits 0x4280-0x4380)
     0x07DE [0x80] LOAD_WAIT(entity=Unknown NPC (ID: 2152169542/0x80478046))
     0x07E3 [0x48] [System] [0x0180]:
    → "Trial: Unleash the additional effect of the prescribed weapon a set number of times against the assigned [experience-yielding monsters/monsters]."
     0x07E6 [0x80] LOAD_WAIT(entity=Unknown NPC (ID: 2147581953/0x80018001))
     0x07EB [0x01] GOTO 0x0180
```
