# 17834344

## Common Data

| Field            | Value                    |
|------------------|--------------------------|
| Zone             | Rala Waterways (ID: 258) |
| Block Size       | 252 bytes                |
| Total Events     | 13                       |
| References Count | 9                        |

## List of Events

| Event ID                 | Entrypoint   |   Size |   Instructions |
|--------------------------|--------------|--------|----------------|
| [65535](#event-65535)    | 0x0000       |      1 |              1 |
| [0](#event-0)            | 0x0001       |      1 |              1 |
| [65535.1](#event-655351) | 0x0002       |     10 |              2 |
| [65535.2](#event-655352) | 0x000C       |     10 |              2 |
| [65535.3](#event-655353) | 0x0016       |     10 |              2 |
| [65535.4](#event-655354) | 0x0020       |     10 |              2 |
| [368](#event-368)        | 0x002A       |      1 |              1 |
| [65535.5](#event-655355) | 0x002B       |     33 |              3 |
| [65535.6](#event-655356) | 0x004C       |     31 |              3 |
| [65535.7](#event-655357) | 0x006B       |     18 |              2 |
| [374](#event-374)        | 0x007D       |      1 |              1 |
| [65535.8](#event-655358) | 0x007E       |     10 |              2 |
| [65535.9](#event-655359) | 0x0088       |     10 |              2 |

## DAT References (imed_data)

|   Index | Hex Value   |   Dec Value |
|---------|-------------|-------------|
|       0 | 0x0080      |         128 |
|       1 | 0x0001      |           1 |
|       2 | 0x0000      |           0 |
|       3 | 0x0DFF      |        3583 |
|       4 | 0x0DEF      |        3567 |
|       5 | 0x0B3E      |        2878 |
|       6 | 0x0CAD      |        3245 |
|       7 | 0x000A      |          10 |
|       8 | 0x007F      |         127 |

## Events

### Event 65535

#### Metadata

| Field        | Value   |
|--------------|---------|
| Entrypoint   | 0x0000  |
| Data Size    | 1 bytes |
| Instructions | 1       |

```
      00 01 02 03 04 05 06 07  08 09 0A 0B 0C 0D 0E 0F
      -- -- -- -- -- -- -- --  -- -- -- -- -- -- -- --
0000: 00                                                .               
```

#### Opcodes

```
  0: 0x0000 [0x00] END_REQSTACK()
```

### Event 0

#### Metadata

| Field        | Value   |
|--------------|---------|
| Entrypoint   | 0x0001  |
| Data Size    | 1 bytes |
| Instructions | 1       |

```
      00 01 02 03 04 05 06 07  08 09 0A 0B 0C 0D 0E 0F
      -- -- -- -- -- -- -- --  -- -- -- -- -- -- -- --
0000:    00                                              .              
```

#### Opcodes

```
  0: 0x0001 [0x00] END_REQSTACK()
```

### Event 65535.1

#### Metadata

| Field        | Value    |
|--------------|----------|
| Entrypoint   | 0x0002   |
| Data Size    | 10 bytes |
| Instructions | 2        |

```
      00 01 02 03 04 05 06 07  08 09 0A 0B 0C 0D 0E 0F
      -- -- -- -- -- -- -- --  -- -- -- -- -- -- -- --
0000:       6C 7B 21 10 01 00  80 01 80 00                l{!.......    
```

#### Opcodes

```
  0: 0x0002 [0x6C] FADE_ENTITY_COLOR(entity_id=Unnamed NPC (ID: 17834363/0x0110217B), end_alpha=128*, fade_time=1*)
  1: 0x000B [0x00] END_REQSTACK()
```

### Event 65535.2

#### Metadata

| Field        | Value    |
|--------------|----------|
| Entrypoint   | 0x000C   |
| Data Size    | 10 bytes |
| Instructions | 2        |

```
      00 01 02 03 04 05 06 07  08 09 0A 0B 0C 0D 0E 0F
      -- -- -- -- -- -- -- --  -- -- -- -- -- -- -- --
0000:                                      6C 7B 21 10              l{!.
0010: 01 02 80 01 80 00                                 ......          
```

#### Opcodes

```
  0: 0x000C [0x6C] FADE_ENTITY_COLOR(entity_id=Unnamed NPC (ID: 17834363/0x0110217B), end_alpha=0*, fade_time=1*)
  1: 0x0015 [0x00] END_REQSTACK()
```

### Event 65535.3

#### Metadata

| Field        | Value    |
|--------------|----------|
| Entrypoint   | 0x0016   |
| Data Size    | 10 bytes |
| Instructions | 2        |

```
      00 01 02 03 04 05 06 07  08 09 0A 0B 0C 0D 0E 0F
      -- -- -- -- -- -- -- --  -- -- -- -- -- -- -- --
0010:                   6C 7E  21 10 01 00 80 01 80 00        l~!.......
```

#### Opcodes

```
  0: 0x0016 [0x6C] FADE_ENTITY_COLOR(entity_id=Unnamed NPC (ID: 17834366/0x0110217E), end_alpha=128*, fade_time=1*)
  1: 0x001F [0x00] END_REQSTACK()
```

### Event 65535.4

#### Metadata

| Field        | Value    |
|--------------|----------|
| Entrypoint   | 0x0020   |
| Data Size    | 10 bytes |
| Instructions | 2        |

```
      00 01 02 03 04 05 06 07  08 09 0A 0B 0C 0D 0E 0F
      -- -- -- -- -- -- -- --  -- -- -- -- -- -- -- --
0020: 6C 7E 21 10 01 02 80 01  80 00                    l~!.......      
```

#### Opcodes

```
  0: 0x0020 [0x6C] FADE_ENTITY_COLOR(entity_id=Unnamed NPC (ID: 17834366/0x0110217E), end_alpha=0*, fade_time=1*)
  1: 0x0029 [0x00] END_REQSTACK()
```

### Event 368

#### Metadata

| Field        | Value   |
|--------------|---------|
| Entrypoint   | 0x002A  |
| Data Size    | 1 bytes |
| Instructions | 1       |

```
      00 01 02 03 04 05 06 07  08 09 0A 0B 0C 0D 0E 0F
      -- -- -- -- -- -- -- --  -- -- -- -- -- -- -- --
0020:                                00                           .     
```

#### Opcodes

```
  0: 0x002A [0x00] END_REQSTACK()
```

### Event 65535.5

#### Metadata

| Field        | Value    |
|--------------|----------|
| Entrypoint   | 0x002B   |
| Data Size    | 33 bytes |
| Instructions | 3        |

```
      00 01 02 03 04 05 06 07  08 09 0A 0B 0C 0D 0E 0F
      -- -- -- -- -- -- -- --  -- -- -- -- -- -- -- --
0020:                                   5F 03 03 80 73             _...s
0030: 21 10 01 73 21 10 01 78  78 78 78 5F 03 04 80 74  !..s!..xxxx_...t
0040: 21 10 01 74 21 10 01 78  78 78 78 00              !..t!..xxxx.    
```

#### Opcodes

```
  0: 0x002B [0x5F] MULTI_HANDLER_COMPLEX(mode=0x03 - Load ext scheduler (OpCode 0x5B mode 0), ref=3583*, entity1=Unnamed NPC (ID: 17834355/0x01102173), entity2=Unnamed NPC (ID: 17834355/0x01102173), string="xxxx")
  1: 0x003B [0x5F] MULTI_HANDLER_COMPLEX(mode=0x03 - Load ext scheduler (OpCode 0x5B mode 0), ref=3567*, entity1=Unnamed NPC (ID: 17834356/0x01102174), entity2=Unnamed NPC (ID: 17834356/0x01102174), string="xxxx")
  2: 0x004B [0x00] END_REQSTACK()
```

### Event 65535.6

#### Metadata

| Field        | Value    |
|--------------|----------|
| Entrypoint   | 0x004C   |
| Data Size    | 31 bytes |
| Instructions | 3        |

```
      00 01 02 03 04 05 06 07  08 09 0A 0B 0C 0D 0E 0F
      -- -- -- -- -- -- -- --  -- -- -- -- -- -- -- --
0040:                                      5B 05 80 40              [..@
0050: 21 10 01 40 21 10 01 78  78 78 78 5B 06 80 73 21  !..@!..xxxx[..s!
0060: 10 01 73 21 10 01 78 78  78 78 00                 ..s!..xxxx.     
```

#### Opcodes

```
  0: 0x004C [0x5B] LOAD_EXT_SCHEDULER: Load scheduler "xxxx" with entities [Chalvava (ID: 17834304/0x01102140), Chalvava (ID: 17834304/0x01102140)], work=2878*
  1: 0x005B [0x5B] LOAD_EXT_SCHEDULER: Load scheduler "xxxx" with entities [Unnamed NPC (ID: 17834355/0x01102173), Unnamed NPC (ID: 17834355/0x01102173)], work=3245*
  2: 0x006A [0x00] END_REQSTACK()
```

### Event 65535.7

#### Metadata

| Field        | Value    |
|--------------|----------|
| Entrypoint   | 0x006B   |
| Data Size    | 18 bytes |
| Instructions | 2        |

```
      00 01 02 03 04 05 06 07  08 09 0A 0B 0C 0D 0E 0F
      -- -- -- -- -- -- -- --  -- -- -- -- -- -- -- --
0060:                                   D0 07 80 73 21             ...s!
0070: 10 01 73 21 10 01 70 70  69 30 02 80 00           ..s!..ppi0...   
```

#### Opcodes

```
  0: 0x006B [0xD0] LOAD_SCHEDULED_TASK_ALT5: Load scheduler "ppi0" with entities [Unnamed NPC (ID: 17834355/0x01102173), Unnamed NPC (ID: 17834355/0x01102173)], work=[10*, 0*]
  1: 0x007C [0x00] END_REQSTACK()
```

### Event 374

#### Metadata

| Field        | Value   |
|--------------|---------|
| Entrypoint   | 0x007D  |
| Data Size    | 1 bytes |
| Instructions | 1       |

```
      00 01 02 03 04 05 06 07  08 09 0A 0B 0C 0D 0E 0F
      -- -- -- -- -- -- -- --  -- -- -- -- -- -- -- --
0070:                                         00                     .  
```

#### Opcodes

```
  0: 0x007D [0x00] END_REQSTACK()
```

### Event 65535.8

#### Metadata

| Field        | Value    |
|--------------|----------|
| Entrypoint   | 0x007E   |
| Data Size    | 10 bytes |
| Instructions | 2        |

```
      00 01 02 03 04 05 06 07  08 09 0A 0B 0C 0D 0E 0F
      -- -- -- -- -- -- -- --  -- -- -- -- -- -- -- --
0070:                                            6C F0                l.
0080: FF FF 7F 08 80 01 80 00                           ........        
```

#### Opcodes

```
  0: 0x007E [0x6C] FADE_ENTITY_COLOR(entity_id=LocalPlayer, end_alpha=127*, fade_time=1*)
  1: 0x0087 [0x00] END_REQSTACK()
```

### Event 65535.9

#### Metadata

| Field        | Value    |
|--------------|----------|
| Entrypoint   | 0x0088   |
| Data Size    | 10 bytes |
| Instructions | 2        |

```
      00 01 02 03 04 05 06 07  08 09 0A 0B 0C 0D 0E 0F
      -- -- -- -- -- -- -- --  -- -- -- -- -- -- -- --
0080:                          6C 6E 21 10 01 08 80 01          ln!.....
0090: 80 00                                             ..              
```

#### Opcodes

```
  0: 0x0088 [0x6C] FADE_ENTITY_COLOR(entity_id=Arciela (ID: 17834350/0x0110216E), end_alpha=127*, fade_time=1*)
  1: 0x0091 [0x00] END_REQSTACK()
```
