# 17834304 - Chalvava

## Common Data

| Field            | Value                    |
|------------------|--------------------------|
| Zone             | Rala Waterways (ID: 258) |
| Block Size       | 924 bytes                |
| Total Events     | 25                       |
| References Count | 50                       |

## List of Events

| Event ID                 | Entrypoint   |   Size |   Instructions |
|--------------------------|--------------|--------|----------------|
| [65535](#event-65535)    | 0x0000       |      1 |              1 |
| [305](#event-305)        | 0x0001       |     66 |             17 |
| [321](#event-321)        | 0x0043       |      1 |              1 |
| [65535.1](#event-655351) | 0x0044       |     19 |              5 |
| [322](#event-322)        | 0x0057       |      1 |              1 |
| [65535.2](#event-655352) | 0x0058       |     19 |              5 |
| [323](#event-323)        | 0x006B       |      1 |              1 |
| [65535.3](#event-655353) | 0x006C       |     14 |              4 |
| [324](#event-324)        | 0x007A       |     29 |              7 |
| [335](#event-335)        | 0x0097       |    105 |             29 |
| [336](#event-336)        | 0x0100       |     94 |             24 |
| [337](#event-337)        | 0x015E       |     48 |             10 |
| [344](#event-344)        | 0x018E       |      1 |              1 |
| [345](#event-345)        | 0x018F       |      1 |              1 |
| [65535.4](#event-655354) | 0x0190       |     22 |              6 |
| [65535.5](#event-655355) | 0x01A6       |     22 |              6 |
| [8](#event-8)            | 0x01BC       |      1 |              1 |
| [9](#event-9)            | 0x01BD       |     38 |             10 |
| [360](#event-360)        | 0x01E3       |     13 |              7 |
| [367](#event-367)        | 0x01F0       |      1 |              1 |
| [370](#event-370)        | 0x01F1       |     13 |              7 |
| [383](#event-383)        | 0x01FE       |      7 |              2 |
| [384](#event-384)        | 0x0205       |     22 |             10 |
| [65535.6](#event-655356) | 0x021B       |     19 |              5 |
| [65535.7](#event-655357) | 0x022E       |     48 |              8 |

## DAT References (imed_data)

|   Index | Hex Value   |   Dec Value |
|---------|-------------|-------------|
|       0 | 0x0022      |          34 |
|       1 | 0x0001      |           1 |
|       2 | 0x1FAB      |        8107 |
|       3 | 0x1DA0      |        7584 |
|       4 | 0x1FAC      |        8108 |
|       5 | 0x0028      |          40 |
|       6 | 0xFFFB5FDC  |  4294664156 |
|       7 | 0xFFFB16AA  |  4294645418 |
|       8 | 0xFFFFFC18  |  4294966296 |
|       9 | 0xFFFB19D6  |  4294646230 |
|      10 | 0xFFFB0261  |  4294640225 |
|      11 | 0xFFFB1D7D  |  4294647165 |
|      12 | 0xFFFAE511  |  4294632721 |
|      13 | 0xFFFFFBE6  |  4294966246 |
|      14 | 0x001E      |          30 |
|      15 | 0x1F1C      |        7964 |
|      16 | 0x1D96      |        7574 |
|      17 | 0x1D97      |        7575 |
|      18 | 0x0000      |           0 |
|      19 | 0x08D7      |        2263 |
|      20 | 0x1D99      |        7577 |
|      21 | 0x1D9A      |        7578 |
|      22 | 0x1D9B      |        7579 |
|      23 | 0x1D9C      |        7580 |
|      24 | 0x1D98      |        7576 |
|      25 | 0x1D9D      |        7581 |
|      26 | 0x1D9E      |        7582 |
|      27 | 0x1D9F      |        7583 |
|      28 | 0x1DA1      |        7585 |
|      29 | 0x1DA2      |        7586 |
|      30 | 0x0078      |         120 |
|      31 | 0x00C9      |         201 |
|      32 | 0xFFFB1A59  |  4294646361 |
|      33 | 0xFFFB29F9  |  4294650361 |
|      34 | 0x000D      |          13 |
|      35 | 0xFFFB25D0  |  4294649296 |
|      36 | 0xFFFFFC16  |  4294966294 |
|      37 | 0x0952      |        2386 |
|      38 | 0x20E6      |        8422 |
|      39 | 0x214E      |        8526 |
|      40 | 0x2201      |        8705 |
|      41 | 0x0955      |        2389 |
|      42 | 0x207A      |        8314 |
|      43 | 0x207B      |        8315 |
|      44 | 0xFFFB2314  |  4294648596 |
|      45 | 0x0BFF      |        3071 |
|      46 | 0x000F      |          15 |
|      47 | 0x0029      |          41 |
|      48 | 0xFFFB23DC  |  4294648796 |
|      49 | 0xFFFB4CE0  |  4294659296 |

## String References

- **7574**: Excuse me, [sir/ma'am]? You are a pioneer, correct? Could I bother you for a few moments?
- **7575**: Do you have spare time? [A few minutes is fine./Sorry, I'm too busy.]
- **7576**: I understand. If you ever find yourself in need of work, come see me again.
- **7577**: Thank you for your consideration. Those of us who work here are cultivating all manner of plants, but recently we ran out of $5.
- **7578**: Unfortunately, our charges will not grow here without them.
- **7579**: The Inventors' Coalition, however, manufactures $5 in bulk. If you have a chance to visit their headquarters, would you mind picking some up for me?
- **7580**: Thank you for taking time out of your busy day.
- **7581**: You have brought $6 for me? Words are not enough to express my gratitude!
- **7582**: Yes, I am aware that in ideal circumstances, we would be using proper farmland to grow our bounty, not underground here and relying on $5.
- **7583**: But there's no land beyond Jorius Yett for those who wield spades instead of swords or spells. This is the only way we can try to meet the increased demand from the recent population explosion.
- **7584**: If the pioneering efforts are successful, we will likely no longer have to use such unnatural methods.
- **7585**: Until that day comes, we will continue to strive to provide Adoulin with the foodstuffs the populace needs to feed itself.
- **7586**: Back to your reward, however. I hope that this will suffice.
- **7964**: Kyff asked you to take some seeds to Erisa? She certainly did seem a bit down. I'm sure the seeds will cheer her up.
- **8107**: We put all our effortaru into cultivating these vegetables, but they pale in comparison to what we could grow aboveground.
- **8108**: Who am I? Oh, I representaru the Civic Arboretum Workers' Union. Pleased to make your acquaintance.
- **8314**: Ygnas has already collected the day's shipment of $5.
- **8315**: Assuming he is to deliver them to the kitchen, I'd wager he's back at the castle by now.
- **8422**: If you really want $6 that badly, I guess I can let you in on a little secretaru. I'd never go because even taking one step into the battlegrounds sends paralyzing shiver-wivers down my spine, but word has it that there are some trees left in Yahse Hunting Grounds.
- **8526**: Thanks for offering to deliver those tomatoes. Don't you dare drop them, though, or the ghosts of us crestfallen researchers will hauntaru you even into the afterlife!
- **8705**: I'd sure love to have a tit-for-tataru with you, but Arciela awaits in the castle! As for the tomatoes, take heart--I've already sent Fremilla ahead with them.

## Events

### Event 65535

#### Metadata

| Field        | Value   |
|--------------|---------|
| Entrypoint   | 0x0000  |
| Data Size    | 1 bytes |
| Instructions | 1       |

```
      00 01 02 03 04 05 06 07  08 09 0A 0B 0C 0D 0E 0F
      -- -- -- -- -- -- -- --  -- -- -- -- -- -- -- --
0000: 00                                                .               
```

#### Opcodes

```
  0: 0x0000 [0x00] END_REQSTACK()
```

### Event 305

#### Metadata

| Field        | Value    |
|--------------|----------|
| Entrypoint   | 0x0001   |
| Data Size    | 66 bytes |
| Instructions | 17       |

```
      00 01 02 03 04 05 06 07  08 09 0A 0B 0C 0D 0E 0F
      -- -- -- -- -- -- -- --  -- -- -- -- -- -- -- --
0000:    1E F0 FF FF 7F 6F 70  66 00 80 F8 FF FF 7F F8   .....opf.......
0010: FF FF 7F 74 6C 62 30 02  02 10 01 80 00 2A 00 1D  ...tlb0......*..
0020: 02 80 23 1D 03 80 23 01  32 00 1D 02 80 23 1D 04  ..#...#.2....#..
0030: 80 23 66 00 80 F8 FF FF  7F F8 FF FF 7F 74 6C 62  .#f..........tlb
0040: 31 21 00                                          1!.             
```

#### Opcodes

```
  0: 0x0001 [0x1E] EventEntity looks at LocalPlayer and starts talking
  1: 0x0006 [0x6F] WAIT_FRAME_DELAY: Yield until WaitTime reaches zero
  2: 0x0007 [0x70] WAIT_ENTITY_RENDER_FLAG: Wait while EventEntity->Render.Flags3 bit 2 is set (cancel turn if not)
  3: 0x0008 [0x66] LOAD_EXT_SCHEDULER_MAIN: Load scheduler "tlb0" with entities [EventEntity, EventEntity], work=34*
  4: 0x0017 [0x02] IF !(Work_Zone[2] == 1*) GOTO 0x002A
  5: 0x001F [0x1D] PRINT_EVENT_MESSAGE(message_id=8107*)
    → "We put all our effortaru into cultivating these vegetables, but they pale in comparison to what we could grow aboveground."
  6: 0x0022 [0x23] WAIT_FOR_DIALOG_INTERACTION
  7: 0x0023 [0x1D] PRINT_EVENT_MESSAGE(message_id=7584*)
    → "If the pioneering efforts are successful, we will likely no longer have to use such unnatural methods."
  8: 0x0026 [0x23] WAIT_FOR_DIALOG_INTERACTION
  9: 0x0027 [0x01] GOTO 0x0032
 10: 0x002A [0x1D] PRINT_EVENT_MESSAGE(message_id=8107*)
    → "We put all our effortaru into cultivating these vegetables, but they pale in comparison to what we could grow aboveground."
 11: 0x002D [0x23] WAIT_FOR_DIALOG_INTERACTION
 12: 0x002E [0x1D] PRINT_EVENT_MESSAGE(message_id=8108*)
    → "Who am I? Oh, I representaru the Civic Arboretum Workers' Union. Pleased to make your acquaintance."
 13: 0x0031 [0x23] WAIT_FOR_DIALOG_INTERACTION

SUBROUTINE_0032:
 14: 0x0032 [0x66] LOAD_EXT_SCHEDULER_MAIN: Load scheduler "tlb1" with entities [EventEntity, EventEntity], work=34*
 15: 0x0041 [0x21] END_EVENT
 16: 0x0042 [0x00] END_REQSTACK()
```

### Event 321

#### Metadata

| Field        | Value   |
|--------------|---------|
| Entrypoint   | 0x0043  |
| Data Size    | 1 bytes |
| Instructions | 1       |

```
      00 01 02 03 04 05 06 07  08 09 0A 0B 0C 0D 0E 0F
      -- -- -- -- -- -- -- --  -- -- -- -- -- -- -- --
0040:          00                                          .            
```

#### Opcodes

```
  0: 0x0043 [0x00] END_REQSTACK()
```

### Event 65535.1

#### Metadata

| Field        | Value    |
|--------------|----------|
| Entrypoint   | 0x0044   |
| Data Size    | 19 bytes |
| Instructions | 5        |

```
      00 01 02 03 04 05 06 07  08 09 0A 0B 0C 0D 0E 0F
      -- -- -- -- -- -- -- --  -- -- -- -- -- -- -- --
0040:             32 05 80 1F  00 06 80 07 80 08 80 1F      2...........
0050: 01 1E F0 FF FF 7F 00                              .......         
```

#### Opcodes

```
  0: 0x0044 [0x32] ExtData[1]->MainSpeed = 40* * 0.1
  1: 0x0047 [0x1F] MOVE_ENTITY: EventEntity moves to X=-303.140*, Z=-321.878*, Y=-1.000*
  2: 0x004F [0x1F] MOVE_ENTITY: Update entity position (mode=1)
  3: 0x0051 [0x1E] EventEntity looks at LocalPlayer and starts talking
  4: 0x0056 [0x00] END_REQSTACK()
```

### Event 322

#### Metadata

| Field        | Value   |
|--------------|---------|
| Entrypoint   | 0x0057  |
| Data Size    | 1 bytes |
| Instructions | 1       |

```
      00 01 02 03 04 05 06 07  08 09 0A 0B 0C 0D 0E 0F
      -- -- -- -- -- -- -- --  -- -- -- -- -- -- -- --
0050:                      00                                  .        
```

#### Opcodes

```
  0: 0x0057 [0x00] END_REQSTACK()
```

### Event 65535.2

#### Metadata

| Field        | Value    |
|--------------|----------|
| Entrypoint   | 0x0058   |
| Data Size    | 19 bytes |
| Instructions | 5        |

```
      00 01 02 03 04 05 06 07  08 09 0A 0B 0C 0D 0E 0F
      -- -- -- -- -- -- -- --  -- -- -- -- -- -- -- --
0050:                          32 05 80 1F 00 09 80 0A          2.......
0060: 80 08 80 1F 01 1E F0 FF  FF 7F 00                 ...........     
```

#### Opcodes

```
  0: 0x0058 [0x32] ExtData[1]->MainSpeed = 40* * 0.1
  1: 0x005B [0x1F] MOVE_ENTITY: EventEntity moves to X=-321.066*, Z=-327.071*, Y=-1.000*
  2: 0x0063 [0x1F] MOVE_ENTITY: Update entity position (mode=1)
  3: 0x0065 [0x1E] EventEntity looks at LocalPlayer and starts talking
  4: 0x006A [0x00] END_REQSTACK()
```

### Event 323

#### Metadata

| Field        | Value   |
|--------------|---------|
| Entrypoint   | 0x006B  |
| Data Size    | 1 bytes |
| Instructions | 1       |

```
      00 01 02 03 04 05 06 07  08 09 0A 0B 0C 0D 0E 0F
      -- -- -- -- -- -- -- --  -- -- -- -- -- -- -- --
0060:                                   00                         .    
```

#### Opcodes

```
  0: 0x006B [0x00] END_REQSTACK()
```

### Event 65535.3

#### Metadata

| Field        | Value    |
|--------------|----------|
| Entrypoint   | 0x006C   |
| Data Size    | 14 bytes |
| Instructions | 4        |

```
      00 01 02 03 04 05 06 07  08 09 0A 0B 0C 0D 0E 0F
      -- -- -- -- -- -- -- --  -- -- -- -- -- -- -- --
0060:                                      32 05 80 1F              2...
0070: 00 0B 80 0C 80 0D 80 1F  01 00                    ..........      
```

#### Opcodes

```
  0: 0x006C [0x32] ExtData[1]->MainSpeed = 40* * 0.1
  1: 0x006F [0x1F] MOVE_ENTITY: EventEntity moves to X=-320.131*, Z=-334.575*, Y=-1.050*
  2: 0x0077 [0x1F] MOVE_ENTITY: Update entity position (mode=1)
  3: 0x0079 [0x00] END_REQSTACK()
```

### Event 324

#### Metadata

| Field        | Value    |
|--------------|----------|
| Entrypoint   | 0x007A   |
| Data Size    | 29 bytes |
| Instructions | 7        |

```
      00 01 02 03 04 05 06 07  08 09 0A 0B 0C 0D 0E 0F
      -- -- -- -- -- -- -- --  -- -- -- -- -- -- -- --
0070:                                1E F0 FF FF 7F 1C            ......
0080: 0E 80 66 05 80 40 21 10  01 40 21 10 01 74 6C 6B  ..f..@!..@!..tlk
0090: 30 1D 0F 80 23 21 00                              0...#!.         
```

#### Opcodes

```
  0: 0x007A [0x1E] EventEntity looks at LocalPlayer and starts talking
  1: 0x007F [0x1C] WAIT(30* ticks)
  2: 0x0082 [0x66] LOAD_EXT_SCHEDULER_MAIN: Load scheduler "tlk0" with entities [Chalvava (ID: 17834304/0x01102140), Chalvava (ID: 17834304/0x01102140)], work=40*
  3: 0x0091 [0x1D] PRINT_EVENT_MESSAGE(message_id=7964*)
    → "Kyff asked you to take some seeds to Erisa? She certainly did seem a bit down. I'm sure the seeds will cheer her up."
  4: 0x0094 [0x23] WAIT_FOR_DIALOG_INTERACTION
  5: 0x0095 [0x21] END_EVENT
  6: 0x0096 [0x00] END_REQSTACK()
```

### Event 335

#### Metadata

| Field        | Value     |
|--------------|-----------|
| Entrypoint   | 0x0097    |
| Data Size    | 105 bytes |
| Instructions | 29        |

```
      00 01 02 03 04 05 06 07  08 09 0A 0B 0C 0D 0E 0F
      -- -- -- -- -- -- -- --  -- -- -- -- -- -- -- --
0090:                      1E  F0 FF FF 7F 6F 70 66 00         .....opf.
00A0: 80 F8 FF FF 7F F8 FF FF  7F 74 6C 62 30 1D 10 80  .........tlb0...
00B0: 23 24 11 80 01 80 12 80  25 02 00 10 12 80 00 DF  #$......%.......
00C0: 00 42 03 02 10 13 80 1D  14 80 23 1D 15 80 23 1D  .B........#...#.
00D0: 16 80 23 1D 17 80 23 03  01 10 01 80 01 EE 00 02  ..#...#.........
00E0: 00 10 01 80 00 EE 00 1D  18 80 23 01 EE 00 66 00  ..........#...f.
00F0: 80 F8 FF FF 7F F8 FF FF  7F 74 6C 62 31 2E 21 00  .........tlb1.!.
```

#### Opcodes

```
  0: 0x0097 [0x1E] EventEntity looks at LocalPlayer and starts talking
  1: 0x009C [0x6F] WAIT_FRAME_DELAY: Yield until WaitTime reaches zero
  2: 0x009D [0x70] WAIT_ENTITY_RENDER_FLAG: Wait while EventEntity->Render.Flags3 bit 2 is set (cancel turn if not)
  3: 0x009E [0x66] LOAD_EXT_SCHEDULER_MAIN: Load scheduler "tlb0" with entities [EventEntity, EventEntity], work=34*
  4: 0x00AD [0x1D] PRINT_EVENT_MESSAGE(message_id=7574*)
    → "Excuse me, [sir/ma'am]? You are a pioneer, correct? Could I bother you for a few moments?"
  5: 0x00B0 [0x23] WAIT_FOR_DIALOG_INTERACTION
  6: 0x00B1 [0x24] CREATE_DIALOG(message_id=7575*, default_option=1*, option_flags=0*)
    → "Do you have spare time? [A few minutes is fine./Sorry, I'm too busy.]"
  7: 0x00B8 [0x25] WAIT_DIALOG_SELECT()
  8: 0x00B9 [0x02] IF !(Work_Zone[0] == 0*) GOTO 0x00DF
  9: 0x00C1 [0x42] SET_CLI_EVENT_CANCEL_DATA()
 10: 0x00C2 [0x03] Work_Zone[2] = 2263*
 11: 0x00C7 [0x1D] PRINT_EVENT_MESSAGE(message_id=7577*)
    → "Thank you for your consideration. Those of us who work here are cultivating all manner of plants, but recently we ran out of $5."
 12: 0x00CA [0x23] WAIT_FOR_DIALOG_INTERACTION
 13: 0x00CB [0x1D] PRINT_EVENT_MESSAGE(message_id=7578*)
    → "Unfortunately, our charges will not grow here without them."
 14: 0x00CE [0x23] WAIT_FOR_DIALOG_INTERACTION
 15: 0x00CF [0x1D] PRINT_EVENT_MESSAGE(message_id=7579*)
    → "The Inventors' Coalition, however, manufactures $5 in bulk. If you have a chance to visit their headquarters, would you mind picking some up for me?"
 16: 0x00D2 [0x23] WAIT_FOR_DIALOG_INTERACTION
 17: 0x00D3 [0x1D] PRINT_EVENT_MESSAGE(message_id=7580*)
    → "Thank you for taking time out of your busy day."
 18: 0x00D6 [0x23] WAIT_FOR_DIALOG_INTERACTION
 19: 0x00D7 [0x03] Work_Zone[1] = 1*
 20: 0x00DC [0x01] GOTO 0x00EE
 21: 0x00DF [0x02] IF !(Work_Zone[0] == 1*) GOTO 0x00EE
 22: 0x00E7 [0x1D] PRINT_EVENT_MESSAGE(message_id=7576*)
    → "I understand. If you ever find yourself in need of work, come see me again."
 23: 0x00EA [0x23] WAIT_FOR_DIALOG_INTERACTION
 24: 0x00EB [0x01] GOTO 0x00EE

SUBROUTINE_00EE:
 25: 0x00EE [0x66] LOAD_EXT_SCHEDULER_MAIN: Load scheduler "tlb1" with entities [EventEntity, EventEntity], work=34*
 26: 0x00FD [0x2E] SET_CLI_EVENT_CANCEL_FLAGS()
 27: 0x00FE [0x21] END_EVENT
 28: 0x00FF [0x00] END_REQSTACK()
```

### Event 336

#### Metadata

| Field        | Value    |
|--------------|----------|
| Entrypoint   | 0x0100   |
| Data Size    | 94 bytes |
| Instructions | 24       |

```
      00 01 02 03 04 05 06 07  08 09 0A 0B 0C 0D 0E 0F
      -- -- -- -- -- -- -- --  -- -- -- -- -- -- -- --
0100: 1E F0 FF FF 7F 6F 70 42  03 02 10 13 80 66 00 80  .....opB.....f..
0110: F8 FF FF 7F F8 FF FF 7F  74 6C 62 30 1D 19 80 23  ........tlb0...#
0120: 1D 1A 80 23 1D 1B 80 23  1D 03 80 23 1D 1C 80 23  ...#...#...#...#
0130: 1D 1D 80 23 66 05 80 F8  FF FF 7F F8 FF FF 7F 70  ...#f..........p
0140: 61 73 30 1C 1E 80 45 1F  80 F8 FF FF 7F F8 FF FF  as0...E.........
0150: 7F 71 73 74 63 12 80 03  01 10 01 80 21 00        .qstc.......!.  
```

#### Opcodes

```
  0: 0x0100 [0x1E] EventEntity looks at LocalPlayer and starts talking
  1: 0x0105 [0x6F] WAIT_FRAME_DELAY: Yield until WaitTime reaches zero
  2: 0x0106 [0x70] WAIT_ENTITY_RENDER_FLAG: Wait while EventEntity->Render.Flags3 bit 2 is set (cancel turn if not)
  3: 0x0107 [0x42] SET_CLI_EVENT_CANCEL_DATA()
  4: 0x0108 [0x03] Work_Zone[2] = 2263*
  5: 0x010D [0x66] LOAD_EXT_SCHEDULER_MAIN: Load scheduler "tlb0" with entities [EventEntity, EventEntity], work=34*
  6: 0x011C [0x1D] PRINT_EVENT_MESSAGE(message_id=7581*)
    → "You have brought $6 for me? Words are not enough to express my gratitude!"
  7: 0x011F [0x23] WAIT_FOR_DIALOG_INTERACTION
  8: 0x0120 [0x1D] PRINT_EVENT_MESSAGE(message_id=7582*)
    → "Yes, I am aware that in ideal circumstances, we would be using proper farmland to grow our bounty, not underground here and relying on $5."
  9: 0x0123 [0x23] WAIT_FOR_DIALOG_INTERACTION
 10: 0x0124 [0x1D] PRINT_EVENT_MESSAGE(message_id=7583*)
    → "But there's no land beyond Jorius Yett for those who wield spades instead of swords or spells. This is the only way we can try to meet the increased demand from the recent population explosion."
 11: 0x0127 [0x23] WAIT_FOR_DIALOG_INTERACTION
 12: 0x0128 [0x1D] PRINT_EVENT_MESSAGE(message_id=7584*)
    → "If the pioneering efforts are successful, we will likely no longer have to use such unnatural methods."
 13: 0x012B [0x23] WAIT_FOR_DIALOG_INTERACTION
 14: 0x012C [0x1D] PRINT_EVENT_MESSAGE(message_id=7585*)
    → "Until that day comes, we will continue to strive to provide Adoulin with the foodstuffs the populace needs to feed itself."
 15: 0x012F [0x23] WAIT_FOR_DIALOG_INTERACTION
 16: 0x0130 [0x1D] PRINT_EVENT_MESSAGE(message_id=7586*)
    → "Back to your reward, however. I hope that this will suffice."
 17: 0x0133 [0x23] WAIT_FOR_DIALOG_INTERACTION
 18: 0x0134 [0x66] LOAD_EXT_SCHEDULER_MAIN: Load scheduler "pas0" with entities [EventEntity, EventEntity], work=40*
 19: 0x0143 [0x1C] WAIT(120* ticks)
 20: 0x0146 [0x45] LOAD_SCHEDULED_TASK: Load scheduler "qstc" with entities [EventEntity, EventEntity], work=[201*, 0*]
 21: 0x0157 [0x03] Work_Zone[1] = 1*
 22: 0x015C [0x21] END_EVENT
 23: 0x015D [0x00] END_REQSTACK()
```

### Event 337

#### Metadata

| Field        | Value    |
|--------------|----------|
| Entrypoint   | 0x015E   |
| Data Size    | 48 bytes |
| Instructions | 10       |

```
      00 01 02 03 04 05 06 07  08 09 0A 0B 0C 0D 0E 0F
      -- -- -- -- -- -- -- --  -- -- -- -- -- -- -- --
0150:                                            1E F0                ..
0160: FF FF 7F 6F 70 03 02 10  13 80 66 00 80 F8 FF FF  ...op.....f.....
0170: 7F F8 FF FF 7F 74 6C 62  30 1D 16 80 23 66 00 80  .....tlb0...#f..
0180: F8 FF FF 7F F8 FF FF 7F  74 6C 62 31 21 00        ........tlb1!.  
```

#### Opcodes

```
  0: 0x015E [0x1E] EventEntity looks at LocalPlayer and starts talking
  1: 0x0163 [0x6F] WAIT_FRAME_DELAY: Yield until WaitTime reaches zero
  2: 0x0164 [0x70] WAIT_ENTITY_RENDER_FLAG: Wait while EventEntity->Render.Flags3 bit 2 is set (cancel turn if not)
  3: 0x0165 [0x03] Work_Zone[2] = 2263*
  4: 0x016A [0x66] LOAD_EXT_SCHEDULER_MAIN: Load scheduler "tlb0" with entities [EventEntity, EventEntity], work=34*
  5: 0x0179 [0x1D] PRINT_EVENT_MESSAGE(message_id=7579*)
    → "The Inventors' Coalition, however, manufactures $5 in bulk. If you have a chance to visit their headquarters, would you mind picking some up for me?"
  6: 0x017C [0x23] WAIT_FOR_DIALOG_INTERACTION
  7: 0x017D [0x66] LOAD_EXT_SCHEDULER_MAIN: Load scheduler "tlb1" with entities [EventEntity, EventEntity], work=34*
  8: 0x018C [0x21] END_EVENT
  9: 0x018D [0x00] END_REQSTACK()
```

### Event 344

#### Metadata

| Field        | Value   |
|--------------|---------|
| Entrypoint   | 0x018E  |
| Data Size    | 1 bytes |
| Instructions | 1       |

```
      00 01 02 03 04 05 06 07  08 09 0A 0B 0C 0D 0E 0F
      -- -- -- -- -- -- -- --  -- -- -- -- -- -- -- --
0180:                                            00                   . 
```

#### Opcodes

```
  0: 0x018E [0x00] END_REQSTACK()
```

### Event 345

#### Metadata

| Field        | Value   |
|--------------|---------|
| Entrypoint   | 0x018F  |
| Data Size    | 1 bytes |
| Instructions | 1       |

```
      00 01 02 03 04 05 06 07  08 09 0A 0B 0C 0D 0E 0F
      -- -- -- -- -- -- -- --  -- -- -- -- -- -- -- --
0180:                                               00                 .
```

#### Opcodes

```
  0: 0x018F [0x00] END_REQSTACK()
```

### Event 65535.4

#### Metadata

| Field        | Value    |
|--------------|----------|
| Entrypoint   | 0x0190   |
| Data Size    | 22 bytes |
| Instructions | 6        |

```
      00 01 02 03 04 05 06 07  08 09 0A 0B 0C 0D 0E 0F
      -- -- -- -- -- -- -- --  -- -- -- -- -- -- -- --
0190: 32 05 80 1F 00 20 80 21  80 08 80 1F 01 1E F0 FF  2.... .!........
01A0: FF 7F 1C 0E 80 00                                 ......          
```

#### Opcodes

```
  0: 0x0190 [0x32] ExtData[1]->MainSpeed = 40* * 0.1
  1: 0x0193 [0x1F] MOVE_ENTITY: EventEntity moves to X=-320.935*, Z=-316.935*, Y=-1.000*
  2: 0x019B [0x1F] MOVE_ENTITY: Update entity position (mode=1)
  3: 0x019D [0x1E] EventEntity looks at LocalPlayer and starts talking
  4: 0x01A2 [0x1C] WAIT(30* ticks)
  5: 0x01A5 [0x00] END_REQSTACK()
```

### Event 65535.5

#### Metadata

| Field        | Value    |
|--------------|----------|
| Entrypoint   | 0x01A6   |
| Data Size    | 22 bytes |
| Instructions | 6        |

```
      00 01 02 03 04 05 06 07  08 09 0A 0B 0C 0D 0E 0F
      -- -- -- -- -- -- -- --  -- -- -- -- -- -- -- --
01A0:                   32 22  80 1F 00 23 80 23 80 24        2"...#.#.$
01B0: 80 1F 01 1E F0 FF FF 7F  1C 0E 80 00              ............    
```

#### Opcodes

```
  0: 0x01A6 [0x32] ExtData[1]->MainSpeed = 13* * 0.1
  1: 0x01A9 [0x1F] MOVE_ENTITY: EventEntity moves to X=-318.000*, Z=-318.000*, Y=-1.002*
  2: 0x01B1 [0x1F] MOVE_ENTITY: Update entity position (mode=1)
  3: 0x01B3 [0x1E] EventEntity looks at LocalPlayer and starts talking
  4: 0x01B8 [0x1C] WAIT(30* ticks)
  5: 0x01BB [0x00] END_REQSTACK()
```

### Event 8

#### Metadata

| Field        | Value   |
|--------------|---------|
| Entrypoint   | 0x01BC  |
| Data Size    | 1 bytes |
| Instructions | 1       |

```
      00 01 02 03 04 05 06 07  08 09 0A 0B 0C 0D 0E 0F
      -- -- -- -- -- -- -- --  -- -- -- -- -- -- -- --
01B0:                                      00                       .   
```

#### Opcodes

```
  0: 0x01BC [0x00] END_REQSTACK()
```

### Event 9

#### Metadata

| Field        | Value    |
|--------------|----------|
| Entrypoint   | 0x01BD   |
| Data Size    | 38 bytes |
| Instructions | 10       |

```
      00 01 02 03 04 05 06 07  08 09 0A 0B 0C 0D 0E 0F
      -- -- -- -- -- -- -- --  -- -- -- -- -- -- -- --
01B0:                                         42 1E F0               B..
01C0: FF FF 7F 6F 76 F8 FF FF  7F 66 05 80 40 21 10 01  ...ov....f..@!..
01D0: 40 21 10 01 74 6C 6B 30  03 02 10 25 80 1D 26 80  @!..tlk0...%..&.
01E0: 23 21 00                                          #!.             
```

#### Opcodes

```
  0: 0x01BD [0x42] SET_CLI_EVENT_CANCEL_DATA()
  1: 0x01BE [0x1E] EventEntity looks at LocalPlayer and starts talking
  2: 0x01C3 [0x6F] WAIT_FRAME_DELAY: Yield until WaitTime reaches zero
  3: 0x01C4 [0x76] CHECK_ENTITY_RENDER_FLAGS: Wait until EventEntity Render.Flags0 and Render.Flags3 conditions are met
  4: 0x01C9 [0x66] LOAD_EXT_SCHEDULER_MAIN: Load scheduler "tlk0" with entities [Chalvava (ID: 17834304/0x01102140), Chalvava (ID: 17834304/0x01102140)], work=40*
  5: 0x01D8 [0x03] Work_Zone[2] = 2386*
  6: 0x01DD [0x1D] PRINT_EVENT_MESSAGE(message_id=8422*)
    → "If you really want $6 that badly, I guess I can let you in on a little secretaru. I'd never go because even taking one step into the battlegrounds sends paralyzing shiver-wivers down my spine, but word has it that there are some trees left in Yahse Hunting Grounds."
  7: 0x01E0 [0x23] WAIT_FOR_DIALOG_INTERACTION
  8: 0x01E1 [0x21] END_EVENT
  9: 0x01E2 [0x00] END_REQSTACK()
```

### Event 360

#### Metadata

| Field        | Value    |
|--------------|----------|
| Entrypoint   | 0x01E3   |
| Data Size    | 13 bytes |
| Instructions | 7        |

```
      00 01 02 03 04 05 06 07  08 09 0A 0B 0C 0D 0E 0F
      -- -- -- -- -- -- -- --  -- -- -- -- -- -- -- --
01E0:          1E F0 FF FF 7F  6F 70 1D 27 80 23 21 00     .....op.'.#!.
```

#### Opcodes

```
  0: 0x01E3 [0x1E] EventEntity looks at LocalPlayer and starts talking
  1: 0x01E8 [0x6F] WAIT_FRAME_DELAY: Yield until WaitTime reaches zero
  2: 0x01E9 [0x70] WAIT_ENTITY_RENDER_FLAG: Wait while EventEntity->Render.Flags3 bit 2 is set (cancel turn if not)
  3: 0x01EA [0x1D] PRINT_EVENT_MESSAGE(message_id=8526*)
    → "Thanks for offering to deliver those tomatoes. Don't you dare drop them, though, or the ghosts of us crestfallen researchers will hauntaru you even into the afterlife!"
  4: 0x01ED [0x23] WAIT_FOR_DIALOG_INTERACTION
  5: 0x01EE [0x21] END_EVENT
  6: 0x01EF [0x00] END_REQSTACK()
```

### Event 367

#### Metadata

| Field        | Value   |
|--------------|---------|
| Entrypoint   | 0x01F0  |
| Data Size    | 1 bytes |
| Instructions | 1       |

```
      00 01 02 03 04 05 06 07  08 09 0A 0B 0C 0D 0E 0F
      -- -- -- -- -- -- -- --  -- -- -- -- -- -- -- --
01F0: 00                                                .               
```

#### Opcodes

```
  0: 0x01F0 [0x00] END_REQSTACK()
```

### Event 370

#### Metadata

| Field        | Value    |
|--------------|----------|
| Entrypoint   | 0x01F1   |
| Data Size    | 13 bytes |
| Instructions | 7        |

```
      00 01 02 03 04 05 06 07  08 09 0A 0B 0C 0D 0E 0F
      -- -- -- -- -- -- -- --  -- -- -- -- -- -- -- --
01F0:    1E F0 FF FF 7F 6F 70  1D 28 80 23 21 00         .....op.(.#!.  
```

#### Opcodes

```
  0: 0x01F1 [0x1E] EventEntity looks at LocalPlayer and starts talking
  1: 0x01F6 [0x6F] WAIT_FRAME_DELAY: Yield until WaitTime reaches zero
  2: 0x01F7 [0x70] WAIT_ENTITY_RENDER_FLAG: Wait while EventEntity->Render.Flags3 bit 2 is set (cancel turn if not)
  3: 0x01F8 [0x1D] PRINT_EVENT_MESSAGE(message_id=8705*)
    → "I'd sure love to have a tit-for-tataru with you, but Arciela awaits in the castle! As for the tomatoes, take heart--I've already sent Fremilla ahead with them."
  4: 0x01FB [0x23] WAIT_FOR_DIALOG_INTERACTION
  5: 0x01FC [0x21] END_EVENT
  6: 0x01FD [0x00] END_REQSTACK()
```

### Event 383

#### Metadata

| Field        | Value   |
|--------------|---------|
| Entrypoint   | 0x01FE  |
| Data Size    | 7 bytes |
| Instructions | 2       |

```
      00 01 02 03 04 05 06 07  08 09 0A 0B 0C 0D 0E 0F
      -- -- -- -- -- -- -- --  -- -- -- -- -- -- -- --
01F0:                                            92 01                ..
0200: F8 FF FF 7F 00                                    .....           
```

#### Opcodes

```
  0: 0x01FE [0x92] EventEntity->Render.Flags3 ^= 0x01
  1: 0x0204 [0x00] END_REQSTACK()
```

### Event 384

#### Metadata

| Field        | Value    |
|--------------|----------|
| Entrypoint   | 0x0205   |
| Data Size    | 22 bytes |
| Instructions | 10       |

```
      00 01 02 03 04 05 06 07  08 09 0A 0B 0C 0D 0E 0F
      -- -- -- -- -- -- -- --  -- -- -- -- -- -- -- --
0200:                1E F0 FF  FF 7F 6F 70 03 02 10 29       .....op...)
0210: 80 1D 2A 80 23 1D 2B 80  23 21 00                 ..*.#.+.#!.     
```

#### Opcodes

```
  0: 0x0205 [0x1E] EventEntity looks at LocalPlayer and starts talking
  1: 0x020A [0x6F] WAIT_FRAME_DELAY: Yield until WaitTime reaches zero
  2: 0x020B [0x70] WAIT_ENTITY_RENDER_FLAG: Wait while EventEntity->Render.Flags3 bit 2 is set (cancel turn if not)
  3: 0x020C [0x03] Work_Zone[2] = 2389*
  4: 0x0211 [0x1D] PRINT_EVENT_MESSAGE(message_id=8314*)
    → "Ygnas has already collected the day's shipment of $5."
  5: 0x0214 [0x23] WAIT_FOR_DIALOG_INTERACTION
  6: 0x0215 [0x1D] PRINT_EVENT_MESSAGE(message_id=8315*)
    → "Assuming he is to deliver them to the kitchen, I'd wager he's back at the castle by now."
  7: 0x0218 [0x23] WAIT_FOR_DIALOG_INTERACTION
  8: 0x0219 [0x21] END_EVENT
  9: 0x021A [0x00] END_REQSTACK()
```

### Event 65535.6

#### Metadata

| Field        | Value    |
|--------------|----------|
| Entrypoint   | 0x021B   |
| Data Size    | 19 bytes |
| Instructions | 5        |

```
      00 01 02 03 04 05 06 07  08 09 0A 0B 0C 0D 0E 0F
      -- -- -- -- -- -- -- --  -- -- -- -- -- -- -- --
0210:                                   32 22 80 1F 00             2"...
0220: 2C 80 23 80 08 80 1F 01  1E 74 21 10 01 00        ,.#......t!...  
```

#### Opcodes

```
  0: 0x021B [0x32] ExtData[1]->MainSpeed = 13* * 0.1
  1: 0x021E [0x1F] MOVE_ENTITY: EventEntity moves to X=-318.700*, Z=-318.000*, Y=-1.000*
  2: 0x0226 [0x1F] MOVE_ENTITY: Update entity position (mode=1)
  3: 0x0228 [0x1E] EventEntity looks at Unnamed NPC (ID: 17834356/0x01102174) and starts talking
  4: 0x022D [0x00] END_REQSTACK()
```

### Event 65535.7

#### Metadata

| Field        | Value    |
|--------------|----------|
| Entrypoint   | 0x022E   |
| Data Size    | 48 bytes |
| Instructions | 8        |

```
      00 01 02 03 04 05 06 07  08 09 0A 0B 0C 0D 0E 0F
      -- -- -- -- -- -- -- --  -- -- -- -- -- -- -- --
0220:                                            32 22                2"
0230: 80 39 2D 80 1C 2E 80 66  2F 80 F8 FF FF 7F F8 FF  .9-....f/.......
0240: FF 7F 6E 6D 69 30 53 F8  FF FF 7F F8 FF FF 7F 6E  ..nmi0S........n
0250: 6D 69 30 1F 00 30 80 31  80 08 80 1F 01 00        mi0..0.1......  
```

#### Opcodes

```
  0: 0x022E [0x32] ExtData[1]->MainSpeed = 13* * 0.1
  1: 0x0231 [0x39] SET_ENTITY_DIRECTION(direction=16.9°*)
  2: 0x0234 [0x1C] WAIT(15* ticks)
  3: 0x0237 [0x66] LOAD_EXT_SCHEDULER_MAIN: Load scheduler "nmi0" with entities [EventEntity, EventEntity], work=41*
  4: 0x0246 [0x53] WAIT_SCHEDULER_TASK: Wait for scheduler "nmi0" with entities [EventEntity, EventEntity]
  5: 0x0253 [0x1F] MOVE_ENTITY: EventEntity moves to X=-318.500*, Z=-308.000*, Y=-1.000*
  6: 0x025B [0x1F] MOVE_ENTITY: Update entity position (mode=1)
  7: 0x025D [0x00] END_REQSTACK()
```
