# 17834279 - Ilney

## Common Data

| Field            | Value                    |
|------------------|--------------------------|
| Zone             | Rala Waterways (ID: 258) |
| Block Size       | 228 bytes                |
| Total Events     | 6                        |
| References Count | 13                       |

## List of Events

| Event ID                 | Entrypoint   |   Size |   Instructions |
|--------------------------|--------------|--------|----------------|
| [65535](#event-65535)    | 0x0000       |      1 |              1 |
| [325](#event-325)        | 0x0001       |     31 |              4 |
| [65535.1](#event-655351) | 0x0020       |     14 |              4 |
| [65535.2](#event-655352) | 0x002E       |     45 |              4 |
| [65535.3](#event-655353) | 0x005B       |     21 |              2 |
| [343](#event-343)        | 0x0070       |     21 |              2 |

## DAT References (imed_data)

|   Index | Hex Value   |   Dec Value |
|---------|-------------|-------------|
|       0 | 0x000D      |          13 |
|       1 | 0xFFFADB60  |  4294630240 |
|       2 | 0xFFFB403C  |  4294656060 |
|       3 | 0xFFFFFC18  |  4294966296 |
|       4 | 0x0001      |           1 |
|       5 | 0x0004      |           4 |
|       6 | 0x0000      |           0 |
|       7 | 0x0085      |         133 |
|       8 | 0x0018      |          24 |
|       9 | 0x0014      |          20 |
|      10 | 0x006C      |         108 |
|      11 | 0x001D      |          29 |
|      12 | 0x0159      |         345 |

## Events

### Event 65535

#### Metadata

| Field        | Value   |
|--------------|---------|
| Entrypoint   | 0x0000  |
| Data Size    | 1 bytes |
| Instructions | 1       |

```
      00 01 02 03 04 05 06 07  08 09 0A 0B 0C 0D 0E 0F
      -- -- -- -- -- -- -- --  -- -- -- -- -- -- -- --
0000: 00                                                .               
```

#### Opcodes

```
  0: 0x0000 [0x00] END_REQSTACK()
```

### Event 325

#### Metadata

| Field        | Value    |
|--------------|----------|
| Entrypoint   | 0x0001   |
| Data Size    | 31 bytes |
| Instructions | 4        |

```
      00 01 02 03 04 05 06 07  08 09 0A 0B 0C 0D 0E 0F
      -- -- -- -- -- -- -- --  -- -- -- -- -- -- -- --
0000:    B4 00 00 00 3F 3F 3F  00 00 00 00 00 00 00 00   ....???........
0010: 00 00 00 00 00 B5 00 00  00 92 01 F8 FF FF 7F 00  ................
```

#### Opcodes

```
  0: 0x0001 [0xB4] UI_WINDOW_STRING_HANDLER(case=0x00 - Copy string from opcode, work_offset=ExtData[1]->WorkLocal[0], string="???")
  1: 0x0015 [0xB5] SET_EVENT_ENTITY_NAME: Change EventEntity name to ExtData[1]->WorkLocal[0]
  2: 0x0019 [0x92] EventEntity->Render.Flags3 ^= 0x01
  3: 0x001F [0x00] END_REQSTACK()
```

### Event 65535.1

#### Metadata

| Field        | Value    |
|--------------|----------|
| Entrypoint   | 0x0020   |
| Data Size    | 14 bytes |
| Instructions | 4        |

```
      00 01 02 03 04 05 06 07  08 09 0A 0B 0C 0D 0E 0F
      -- -- -- -- -- -- -- --  -- -- -- -- -- -- -- --
0020: 32 00 80 1F 00 01 80 02  80 03 80 1F 01 00        2.............  
```

#### Opcodes

```
  0: 0x0020 [0x32] ExtData[1]->MainSpeed = 13* * 0.1
  1: 0x0023 [0x1F] MOVE_ENTITY: EventEntity moves to X=-337.056*, Z=-311.236*, Y=-1.000*
  2: 0x002B [0x1F] MOVE_ENTITY: Update entity position (mode=1)
  3: 0x002D [0x00] END_REQSTACK()
```

### Event 65535.2

#### Metadata

| Field        | Value    |
|--------------|----------|
| Entrypoint   | 0x002E   |
| Data Size    | 45 bytes |
| Instructions | 4        |

```
      00 01 02 03 04 05 06 07  08 09 0A 0B 0C 0D 0E 0F
      -- -- -- -- -- -- -- --  -- -- -- -- -- -- -- --
0020:                                            B6 0B                ..
0030: 04 80 05 80 06 80 07 80  06 80 08 80 09 80 0A 80  ................
0040: 06 80 B4 00 00 00 49 6C  6E 65 79 00 00 00 00 00  ......Ilney.....
0050: 00 00 00 00 00 00 B5 00  00 00 00                 ...........     
```

#### Opcodes

```
  0: 0x002E [0xB6] ENTITY_APPEARANCE_HANDLER(case=Full entity look, race=1*, hair=4*, head=0*, body=133*, hands=0*, legs=24*, feet=20*, main=108*, sub=0*)
  1: 0x0042 [0xB4] UI_WINDOW_STRING_HANDLER(case=0x00 - Copy string from opcode, work_offset=ExtData[1]->WorkLocal[0], string="Ilney")
  2: 0x0056 [0xB5] SET_EVENT_ENTITY_NAME: Change EventEntity name to ExtData[1]->WorkLocal[0]
  3: 0x005A [0x00] END_REQSTACK()
```

### Event 65535.3

#### Metadata

| Field        | Value    |
|--------------|----------|
| Entrypoint   | 0x005B   |
| Data Size    | 21 bytes |
| Instructions | 2        |

```
      00 01 02 03 04 05 06 07  08 09 0A 0B 0C 0D 0E 0F
      -- -- -- -- -- -- -- --  -- -- -- -- -- -- -- --
0050:                                   B6 0B 04 80 05             .....
0060: 80 0B 80 07 80 06 80 08  80 09 80 0A 80 06 80 00  ................
```

#### Opcodes

```
  0: 0x005B [0xB6] ENTITY_APPEARANCE_HANDLER(case=Full entity look, race=1*, hair=4*, head=29*, body=133*, hands=0*, legs=24*, feet=20*, main=108*, sub=0*)
  1: 0x006F [0x00] END_REQSTACK()
```

### Event 343

#### Metadata

| Field        | Value    |
|--------------|----------|
| Entrypoint   | 0x0070   |
| Data Size    | 21 bytes |
| Instructions | 2        |

```
      00 01 02 03 04 05 06 07  08 09 0A 0B 0C 0D 0E 0F
      -- -- -- -- -- -- -- --  -- -- -- -- -- -- -- --
0070: B6 0B 04 80 05 80 0C 80  07 80 06 80 08 80 09 80  ................
0080: 06 80 06 80 00                                    .....           
```

#### Opcodes

```
  0: 0x0070 [0xB6] ENTITY_APPEARANCE_HANDLER(case=Full entity look, race=1*, hair=4*, head=345*, body=133*, hands=0*, legs=24*, feet=20*, main=0*, sub=0*)
  1: 0x0084 [0x00] END_REQSTACK()
```
