# 17834331 - Margret

## Common Data

| Field            | Value                    |
|------------------|--------------------------|
| Zone             | Rala Waterways (ID: 258) |
| Block Size       | 852 bytes                |
| Total Events     | 25                       |
| References Count | 30                       |

## List of Events

| Event ID                   | Entrypoint   |   Size |   Instructions |
|----------------------------|--------------|--------|----------------|
| [65535](#event-65535)      | 0x0000       |      1 |              1 |
| [376](#event-376)          | 0x0001       |      1 |              1 |
| [65535.1](#event-655351)   | 0x0002       |     14 |              4 |
| [65535.2](#event-655352)   | 0x0010       |     16 |              4 |
| [65535.3](#event-655353)   | 0x0020       |     16 |              4 |
| [65535.4](#event-655354)   | 0x0030       |     16 |              4 |
| [65535.5](#event-655355)   | 0x0040       |     16 |              4 |
| [65535.6](#event-655356)   | 0x0050       |     33 |              3 |
| [65535.7](#event-655357)   | 0x0071       |     33 |              3 |
| [65535.8](#event-655358)   | 0x0092       |     33 |              3 |
| [65535.9](#event-655359)   | 0x00B3       |     25 |              4 |
| [65535.10](#event-6553510) | 0x00CC       |     25 |              4 |
| [65535.11](#event-6553511) | 0x00E5       |     19 |              3 |
| [65535.12](#event-6553512) | 0x00F8       |     28 |              5 |
| [65535.13](#event-6553513) | 0x0114       |     28 |              5 |
| [65535.14](#event-6553514) | 0x0130       |     33 |              3 |
| [65535.15](#event-6553515) | 0x0151       |     33 |              3 |
| [65535.16](#event-6553516) | 0x0172       |     33 |              3 |
| [65535.17](#event-6553517) | 0x0193       |     33 |              3 |
| [65535.18](#event-6553518) | 0x01B4       |     33 |              3 |
| [65535.19](#event-6553519) | 0x01D5       |     33 |              3 |
| [65535.20](#event-6553520) | 0x01F6       |     33 |              3 |
| [65535.21](#event-6553521) | 0x0217       |     33 |              3 |
| [65535.22](#event-6553522) | 0x0238       |     33 |              3 |
| [65535.23](#event-6553523) | 0x0259       |     13 |              3 |

## DAT References (imed_data)

|   Index | Hex Value   |   Dec Value |
|---------|-------------|-------------|
|       0 | 0x000D      |          13 |
|       1 | 0xFFFDBF8F  |  4294819727 |
|       2 | 0x5F3C      |       24380 |
|       3 | 0xFFFFE97B  |  4294961531 |
|       4 | 0x0007      |           7 |
|       5 | 0x003C      |          60 |
|       6 | 0x0006      |           6 |
|       7 | 0x0050      |          80 |
|       8 | 0x0015      |          21 |
|       9 | 0x006E      |         110 |
|      10 | 0x001A      |          26 |
|      11 | 0x0082      |         130 |
|      12 | 0x009F      |         159 |
|      13 | 0x006B      |         107 |
|      14 | 0x0051      |          81 |
|      15 | 0x00C7      |         199 |
|      16 | 0x0D21      |        3361 |
|      17 | 0x007F      |         127 |
|      18 | 0x0060      |          96 |
|      19 | 0x0D22      |        3362 |
|      20 | 0x0078      |         120 |
|      21 | 0x0032      |          50 |
|      22 | 0x005A      |          90 |
|      23 | 0x009E      |         158 |
|      24 | 0x0070      |         112 |
|      25 | 0x0064      |         100 |
|      26 | 0x0013      |          19 |
|      27 | 0x05A7      |        1447 |
|      28 | 0x0108      |         264 |
|      29 | 0x001E      |          30 |

## Events

### Event 65535

#### Metadata

| Field        | Value   |
|--------------|---------|
| Entrypoint   | 0x0000  |
| Data Size    | 1 bytes |
| Instructions | 1       |

```
      00 01 02 03 04 05 06 07  08 09 0A 0B 0C 0D 0E 0F
      -- -- -- -- -- -- -- --  -- -- -- -- -- -- -- --
0000: 00                                                .               
```

#### Opcodes

```
  0: 0x0000 [0x00] END_REQSTACK()
```

### Event 376

#### Metadata

| Field        | Value   |
|--------------|---------|
| Entrypoint   | 0x0001  |
| Data Size    | 1 bytes |
| Instructions | 1       |

```
      00 01 02 03 04 05 06 07  08 09 0A 0B 0C 0D 0E 0F
      -- -- -- -- -- -- -- --  -- -- -- -- -- -- -- --
0000:    00                                              .              
```

#### Opcodes

```
  0: 0x0001 [0x00] END_REQSTACK()
```

### Event 65535.1

#### Metadata

| Field        | Value    |
|--------------|----------|
| Entrypoint   | 0x0002   |
| Data Size    | 14 bytes |
| Instructions | 4        |

```
      00 01 02 03 04 05 06 07  08 09 0A 0B 0C 0D 0E 0F
      -- -- -- -- -- -- -- --  -- -- -- -- -- -- -- --
0000:       32 00 80 1F 00 01  80 02 80 03 80 1F 01 00    2.............
```

#### Opcodes

```
  0: 0x0002 [0x32] ExtData[1]->MainSpeed = 13* * 0.1
  1: 0x0005 [0x1F] MOVE_ENTITY: EventEntity moves to X=-147.569*, Z=24.380*, Y=-5.765*
  2: 0x000D [0x1F] MOVE_ENTITY: Update entity position (mode=1)
  3: 0x000F [0x00] END_REQSTACK()
```

### Event 65535.2

#### Metadata

| Field        | Value    |
|--------------|----------|
| Entrypoint   | 0x0010   |
| Data Size    | 16 bytes |
| Instructions | 4        |

```
      00 01 02 03 04 05 06 07  08 09 0A 0B 0C 0D 0E 0F
      -- -- -- -- -- -- -- --  -- -- -- -- -- -- -- --
0010: 6E F8 FF FF 7F 04 80 99  F8 FF FF 7F 1C 05 80 00  n...............
```

#### Opcodes

```
  0: 0x0010 [0x6E] EventEntity uses emote 7*
  1: 0x0017 [0x99] Wait for EventEntity animation to complete
  2: 0x001C [0x1C] WAIT(60* ticks)
  3: 0x001F [0x00] END_REQSTACK()
```

### Event 65535.3

#### Metadata

| Field        | Value    |
|--------------|----------|
| Entrypoint   | 0x0020   |
| Data Size    | 16 bytes |
| Instructions | 4        |

```
      00 01 02 03 04 05 06 07  08 09 0A 0B 0C 0D 0E 0F
      -- -- -- -- -- -- -- --  -- -- -- -- -- -- -- --
0020: 6E F8 FF FF 7F 06 80 99  F8 FF FF 7F 1C 07 80 00  n...............
```

#### Opcodes

```
  0: 0x0020 [0x6E] EventEntity uses emote 6*
  1: 0x0027 [0x99] Wait for EventEntity animation to complete
  2: 0x002C [0x1C] WAIT(80* ticks)
  3: 0x002F [0x00] END_REQSTACK()
```

### Event 65535.4

#### Metadata

| Field        | Value    |
|--------------|----------|
| Entrypoint   | 0x0030   |
| Data Size    | 16 bytes |
| Instructions | 4        |

```
      00 01 02 03 04 05 06 07  08 09 0A 0B 0C 0D 0E 0F
      -- -- -- -- -- -- -- --  -- -- -- -- -- -- -- --
0030: 6E F8 FF FF 7F 08 80 99  F8 FF FF 7F 1C 09 80 00  n...............
```

#### Opcodes

```
  0: 0x0030 [0x6E] EventEntity uses emote 21*
  1: 0x0037 [0x99] Wait for EventEntity animation to complete
  2: 0x003C [0x1C] WAIT(110* ticks)
  3: 0x003F [0x00] END_REQSTACK()
```

### Event 65535.5

#### Metadata

| Field        | Value    |
|--------------|----------|
| Entrypoint   | 0x0040   |
| Data Size    | 16 bytes |
| Instructions | 4        |

```
      00 01 02 03 04 05 06 07  08 09 0A 0B 0C 0D 0E 0F
      -- -- -- -- -- -- -- --  -- -- -- -- -- -- -- --
0040: 6E F8 FF FF 7F 0A 80 99  F8 FF FF 7F 1C 0B 80 00  n...............
```

#### Opcodes

```
  0: 0x0040 [0x6E] EventEntity uses emote 26*
  1: 0x0047 [0x99] Wait for EventEntity animation to complete
  2: 0x004C [0x1C] WAIT(130* ticks)
  3: 0x004F [0x00] END_REQSTACK()
```

### Event 65535.6

#### Metadata

| Field        | Value    |
|--------------|----------|
| Entrypoint   | 0x0050   |
| Data Size    | 33 bytes |
| Instructions | 3        |

```
      00 01 02 03 04 05 06 07  08 09 0A 0B 0C 0D 0E 0F
      -- -- -- -- -- -- -- --  -- -- -- -- -- -- -- --
0050: 5F 06 0C 80 F8 FF FF 7F  F8 FF FF 7F 70 6E 74 30  _...........pnt0
0060: 07 80 5F 07 F8 FF FF 7F  F8 FF FF 7F 70 6E 74 30  .._.........pnt0
0070: 00                                                .               
```

#### Opcodes

```
  0: 0x0050 [0x5F] MULTI_HANDLER_COMPLEX(mode=0x06 - Load ext scheduler with flag (OpCode 0x5B mode 1, flag 1), ref=159*, entity1=EventEntity, entity2=EventEntity, string="pnt0", extra=80*)
  1: 0x0062 [0x5F] MULTI_HANDLER_COMPLEX(mode=0x07 - Wait scheduler task (OpCode 0x53))
  2: 0x0070 [0x00] END_REQSTACK()
```

### Event 65535.7

#### Metadata

| Field        | Value    |
|--------------|----------|
| Entrypoint   | 0x0071   |
| Data Size    | 33 bytes |
| Instructions | 3        |

```
      00 01 02 03 04 05 06 07  08 09 0A 0B 0C 0D 0E 0F
      -- -- -- -- -- -- -- --  -- -- -- -- -- -- -- --
0070:    5F 06 0C 80 F8 FF FF  7F F8 FF FF 7F 70 6E 74   _...........pnt
0080: 31 0D 80 5F 07 F8 FF FF  7F F8 FF FF 7F 70 6E 74  1.._.........pnt
0090: 31 00                                             1.              
```

#### Opcodes

```
  0: 0x0071 [0x5F] MULTI_HANDLER_COMPLEX(mode=0x06 - Load ext scheduler with flag (OpCode 0x5B mode 1, flag 1), ref=159*, entity1=EventEntity, entity2=EventEntity, string="pnt1", extra=107*)
  1: 0x0083 [0x5F] MULTI_HANDLER_COMPLEX(mode=0x07 - Wait scheduler task (OpCode 0x53))
  2: 0x0091 [0x00] END_REQSTACK()
```

### Event 65535.8

#### Metadata

| Field        | Value    |
|--------------|----------|
| Entrypoint   | 0x0092   |
| Data Size    | 33 bytes |
| Instructions | 3        |

```
      00 01 02 03 04 05 06 07  08 09 0A 0B 0C 0D 0E 0F
      -- -- -- -- -- -- -- --  -- -- -- -- -- -- -- --
0090:       5F 06 0E 80 F8 FF  FF 7F F8 FF FF 7F 70 61    _...........pa
00A0: 73 30 0F 80 5F 07 F8 FF  FF 7F F8 FF FF 7F 70 61  s0.._.........pa
00B0: 73 30 00                                          s0.             
```

#### Opcodes

```
  0: 0x0092 [0x5F] MULTI_HANDLER_COMPLEX(mode=0x06 - Load ext scheduler with flag (OpCode 0x5B mode 1, flag 1), ref=81*, entity1=EventEntity, entity2=EventEntity, string="pas0", extra=199*)
  1: 0x00A4 [0x5F] MULTI_HANDLER_COMPLEX(mode=0x07 - Wait scheduler task (OpCode 0x53))
  2: 0x00B2 [0x00] END_REQSTACK()
```

### Event 65535.9

#### Metadata

| Field        | Value    |
|--------------|----------|
| Entrypoint   | 0x00B3   |
| Data Size    | 25 bytes |
| Instructions | 4        |

```
      00 01 02 03 04 05 06 07  08 09 0A 0B 0C 0D 0E 0F
      -- -- -- -- -- -- -- --  -- -- -- -- -- -- -- --
00B0:          81 00 F8 FF FF  7F 5B 10 80 F8 FF FF 7F     ......[......
00C0: F8 FF FF 7F 68 61 74 30  1C 11 80 00              ....hat0....    
```

#### Opcodes

```
  0: 0x00B3 [0x81] SET_ENTITY_BLINKING(blink_flag=0x00, entity=EventEntity)
  1: 0x00B9 [0x5B] LOAD_EXT_SCHEDULER: Load scheduler "hat0" with entities [EventEntity, EventEntity], work=3361*
  2: 0x00C8 [0x1C] WAIT(127* ticks)
  3: 0x00CB [0x00] END_REQSTACK()
```

### Event 65535.10

#### Metadata

| Field        | Value    |
|--------------|----------|
| Entrypoint   | 0x00CC   |
| Data Size    | 25 bytes |
| Instructions | 4        |

```
      00 01 02 03 04 05 06 07  08 09 0A 0B 0C 0D 0E 0F
      -- -- -- -- -- -- -- --  -- -- -- -- -- -- -- --
00C0:                                      5B 10 80 F8              [...
00D0: FF FF 7F F8 FF FF 7F 68  61 74 31 1C 12 80 81 01  .......hat1.....
00E0: F8 FF FF 7F 00                                    .....           
```

#### Opcodes

```
  0: 0x00CC [0x5B] LOAD_EXT_SCHEDULER: Load scheduler "hat1" with entities [EventEntity, EventEntity], work=3361*
  1: 0x00DB [0x1C] WAIT(96* ticks)
  2: 0x00DE [0x81] SET_ENTITY_BLINKING(blink_flag=0x01, entity=EventEntity)
  3: 0x00E4 [0x00] END_REQSTACK()
```

### Event 65535.11

#### Metadata

| Field        | Value    |
|--------------|----------|
| Entrypoint   | 0x00E5   |
| Data Size    | 19 bytes |
| Instructions | 3        |

```
      00 01 02 03 04 05 06 07  08 09 0A 0B 0C 0D 0E 0F
      -- -- -- -- -- -- -- --  -- -- -- -- -- -- -- --
00E0:                5B 13 80  F8 FF FF 7F F8 FF FF 7F       [..........
00F0: 68 61 74 32 1C 14 80 00                           hat2....        
```

#### Opcodes

```
  0: 0x00E5 [0x5B] LOAD_EXT_SCHEDULER: Load scheduler "hat2" with entities [EventEntity, EventEntity], work=3362*
  1: 0x00F4 [0x1C] WAIT(120* ticks)
  2: 0x00F7 [0x00] END_REQSTACK()
```

### Event 65535.12

#### Metadata

| Field        | Value    |
|--------------|----------|
| Entrypoint   | 0x00F8   |
| Data Size    | 28 bytes |
| Instructions | 5        |

```
      00 01 02 03 04 05 06 07  08 09 0A 0B 0C 0D 0E 0F
      -- -- -- -- -- -- -- --  -- -- -- -- -- -- -- --
00F0:                          1C 15 80 81 00 F8 FF FF          ........
0100: 7F 5B 10 80 F8 FF FF 7F  F8 FF FF 7F 68 61 74 30  .[..........hat0
0110: 1C 11 80 00                                       ....            
```

#### Opcodes

```
  0: 0x00F8 [0x1C] WAIT(50* ticks)
  1: 0x00FB [0x81] SET_ENTITY_BLINKING(blink_flag=0x00, entity=EventEntity)
  2: 0x0101 [0x5B] LOAD_EXT_SCHEDULER: Load scheduler "hat0" with entities [EventEntity, EventEntity], work=3361*
  3: 0x0110 [0x1C] WAIT(127* ticks)
  4: 0x0113 [0x00] END_REQSTACK()
```

### Event 65535.13

#### Metadata

| Field        | Value    |
|--------------|----------|
| Entrypoint   | 0x0114   |
| Data Size    | 28 bytes |
| Instructions | 5        |

```
      00 01 02 03 04 05 06 07  08 09 0A 0B 0C 0D 0E 0F
      -- -- -- -- -- -- -- --  -- -- -- -- -- -- -- --
0110:             1C 16 80 5B  10 80 F8 FF FF 7F F8 FF      ...[........
0120: FF 7F 68 61 74 31 1C 12  80 81 01 F8 FF FF 7F 00  ..hat1..........
```

#### Opcodes

```
  0: 0x0114 [0x1C] WAIT(90* ticks)
  1: 0x0117 [0x5B] LOAD_EXT_SCHEDULER: Load scheduler "hat1" with entities [EventEntity, EventEntity], work=3361*
  2: 0x0126 [0x1C] WAIT(96* ticks)
  3: 0x0129 [0x81] SET_ENTITY_BLINKING(blink_flag=0x01, entity=EventEntity)
  4: 0x012F [0x00] END_REQSTACK()
```

### Event 65535.14

#### Metadata

| Field        | Value    |
|--------------|----------|
| Entrypoint   | 0x0130   |
| Data Size    | 33 bytes |
| Instructions | 3        |

```
      00 01 02 03 04 05 06 07  08 09 0A 0B 0C 0D 0E 0F
      -- -- -- -- -- -- -- --  -- -- -- -- -- -- -- --
0130: 5F 06 17 80 F8 FF FF 7F  F8 FF FF 7F 74 6C 6B 30  _...........tlk0
0140: 07 80 5F 07 F8 FF FF 7F  F8 FF FF 7F 74 6C 6B 30  .._.........tlk0
0150: 00                                                .               
```

#### Opcodes

```
  0: 0x0130 [0x5F] MULTI_HANDLER_COMPLEX(mode=0x06 - Load ext scheduler with flag (OpCode 0x5B mode 1, flag 1), ref=158*, entity1=EventEntity, entity2=EventEntity, string="tlk0", extra=80*)
  1: 0x0142 [0x5F] MULTI_HANDLER_COMPLEX(mode=0x07 - Wait scheduler task (OpCode 0x53))
  2: 0x0150 [0x00] END_REQSTACK()
```

### Event 65535.15

#### Metadata

| Field        | Value    |
|--------------|----------|
| Entrypoint   | 0x0151   |
| Data Size    | 33 bytes |
| Instructions | 3        |

```
      00 01 02 03 04 05 06 07  08 09 0A 0B 0C 0D 0E 0F
      -- -- -- -- -- -- -- --  -- -- -- -- -- -- -- --
0150:    5F 06 17 80 F8 FF FF  7F F8 FF FF 7F 74 6C 6B   _...........tlk
0160: 31 18 80 5F 07 F8 FF FF  7F F8 FF FF 7F 74 6C 6B  1.._.........tlk
0170: 31 00                                             1.              
```

#### Opcodes

```
  0: 0x0151 [0x5F] MULTI_HANDLER_COMPLEX(mode=0x06 - Load ext scheduler with flag (OpCode 0x5B mode 1, flag 1), ref=158*, entity1=EventEntity, entity2=EventEntity, string="tlk1", extra=112*)
  1: 0x0163 [0x5F] MULTI_HANDLER_COMPLEX(mode=0x07 - Wait scheduler task (OpCode 0x53))
  2: 0x0171 [0x00] END_REQSTACK()
```

### Event 65535.16

#### Metadata

| Field        | Value    |
|--------------|----------|
| Entrypoint   | 0x0172   |
| Data Size    | 33 bytes |
| Instructions | 3        |

```
      00 01 02 03 04 05 06 07  08 09 0A 0B 0C 0D 0E 0F
      -- -- -- -- -- -- -- --  -- -- -- -- -- -- -- --
0170:       5F 06 17 80 F8 FF  FF 7F F8 FF FF 7F 74 6C    _...........tl
0180: 6B 32 19 80 5F 07 F8 FF  FF 7F F8 FF FF 7F 74 6C  k2.._.........tl
0190: 6B 32 00                                          k2.             
```

#### Opcodes

```
  0: 0x0172 [0x5F] MULTI_HANDLER_COMPLEX(mode=0x06 - Load ext scheduler with flag (OpCode 0x5B mode 1, flag 1), ref=158*, entity1=EventEntity, entity2=EventEntity, string="tlk2", extra=100*)
  1: 0x0184 [0x5F] MULTI_HANDLER_COMPLEX(mode=0x07 - Wait scheduler task (OpCode 0x53))
  2: 0x0192 [0x00] END_REQSTACK()
```

### Event 65535.17

#### Metadata

| Field        | Value    |
|--------------|----------|
| Entrypoint   | 0x0193   |
| Data Size    | 33 bytes |
| Instructions | 3        |

```
      00 01 02 03 04 05 06 07  08 09 0A 0B 0C 0D 0E 0F
      -- -- -- -- -- -- -- --  -- -- -- -- -- -- -- --
0190:          5F 06 17 80 F8  FF FF 7F F8 FF FF 7F 74     _...........t
01A0: 6C 61 31 18 80 5F 07 F8  FF FF 7F F8 FF FF 7F 74  la1.._.........t
01B0: 6C 61 31 00                                       la1.            
```

#### Opcodes

```
  0: 0x0193 [0x5F] MULTI_HANDLER_COMPLEX(mode=0x06 - Load ext scheduler with flag (OpCode 0x5B mode 1, flag 1), ref=158*, entity1=EventEntity, entity2=EventEntity, string="tla1", extra=112*)
  1: 0x01A5 [0x5F] MULTI_HANDLER_COMPLEX(mode=0x07 - Wait scheduler task (OpCode 0x53))
  2: 0x01B3 [0x00] END_REQSTACK()
```

### Event 65535.18

#### Metadata

| Field        | Value    |
|--------------|----------|
| Entrypoint   | 0x01B4   |
| Data Size    | 33 bytes |
| Instructions | 3        |

```
      00 01 02 03 04 05 06 07  08 09 0A 0B 0C 0D 0E 0F
      -- -- -- -- -- -- -- --  -- -- -- -- -- -- -- --
01B0:             5F 06 1A 80  F8 FF FF 7F F8 FF FF 7F      _...........
01C0: 74 68 6B 31 19 80 5F 07  F8 FF FF 7F F8 FF FF 7F  thk1.._.........
01D0: 74 68 6B 31 00                                    thk1.           
```

#### Opcodes

```
  0: 0x01B4 [0x5F] MULTI_HANDLER_COMPLEX(mode=0x06 - Load ext scheduler with flag (OpCode 0x5B mode 1, flag 1), ref=19*, entity1=EventEntity, entity2=EventEntity, string="thk1", extra=100*)
  1: 0x01C6 [0x5F] MULTI_HANDLER_COMPLEX(mode=0x07 - Wait scheduler task (OpCode 0x53))
  2: 0x01D4 [0x00] END_REQSTACK()
```

### Event 65535.19

#### Metadata

| Field        | Value    |
|--------------|----------|
| Entrypoint   | 0x01D5   |
| Data Size    | 33 bytes |
| Instructions | 3        |

```
      00 01 02 03 04 05 06 07  08 09 0A 0B 0C 0D 0E 0F
      -- -- -- -- -- -- -- --  -- -- -- -- -- -- -- --
01D0:                5F 06 1A  80 F8 FF FF 7F F8 FF FF       _..........
01E0: 7F 74 68 6B 32 19 80 5F  07 F8 FF FF 7F F8 FF FF  .thk2.._........
01F0: 7F 74 68 6B 32 00                                 .thk2.          
```

#### Opcodes

```
  0: 0x01D5 [0x5F] MULTI_HANDLER_COMPLEX(mode=0x06 - Load ext scheduler with flag (OpCode 0x5B mode 1, flag 1), ref=19*, entity1=EventEntity, entity2=EventEntity, string="thk2", extra=100*)
  1: 0x01E7 [0x5F] MULTI_HANDLER_COMPLEX(mode=0x07 - Wait scheduler task (OpCode 0x53))
  2: 0x01F5 [0x00] END_REQSTACK()
```

### Event 65535.20

#### Metadata

| Field        | Value    |
|--------------|----------|
| Entrypoint   | 0x01F6   |
| Data Size    | 33 bytes |
| Instructions | 3        |

```
      00 01 02 03 04 05 06 07  08 09 0A 0B 0C 0D 0E 0F
      -- -- -- -- -- -- -- --  -- -- -- -- -- -- -- --
01F0:                   5F 06  0C 80 F8 FF FF 7F F8 FF        _.........
0200: FF 7F 74 6C 6B 30 07 80  5F 07 F8 FF FF 7F F8 FF  ..tlk0.._.......
0210: FF 7F 74 6C 6B 30 00                              ..tlk0.         
```

#### Opcodes

```
  0: 0x01F6 [0x5F] MULTI_HANDLER_COMPLEX(mode=0x06 - Load ext scheduler with flag (OpCode 0x5B mode 1, flag 1), ref=159*, entity1=EventEntity, entity2=EventEntity, string="tlk0", extra=80*)
  1: 0x0208 [0x5F] MULTI_HANDLER_COMPLEX(mode=0x07 - Wait scheduler task (OpCode 0x53))
  2: 0x0216 [0x00] END_REQSTACK()
```

### Event 65535.21

#### Metadata

| Field        | Value    |
|--------------|----------|
| Entrypoint   | 0x0217   |
| Data Size    | 33 bytes |
| Instructions | 3        |

```
      00 01 02 03 04 05 06 07  08 09 0A 0B 0C 0D 0E 0F
      -- -- -- -- -- -- -- --  -- -- -- -- -- -- -- --
0210:                      5F  06 0C 80 F8 FF FF 7F F8         _........
0220: FF FF 7F 74 6C 6B 31 07  80 5F 07 F8 FF FF 7F F8  ...tlk1.._......
0230: FF FF 7F 74 6C 6B 31 00                           ...tlk1.        
```

#### Opcodes

```
  0: 0x0217 [0x5F] MULTI_HANDLER_COMPLEX(mode=0x06 - Load ext scheduler with flag (OpCode 0x5B mode 1, flag 1), ref=159*, entity1=EventEntity, entity2=EventEntity, string="tlk1", extra=80*)
  1: 0x0229 [0x5F] MULTI_HANDLER_COMPLEX(mode=0x07 - Wait scheduler task (OpCode 0x53))
  2: 0x0237 [0x00] END_REQSTACK()
```

### Event 65535.22

#### Metadata

| Field        | Value    |
|--------------|----------|
| Entrypoint   | 0x0238   |
| Data Size    | 33 bytes |
| Instructions | 3        |

```
      00 01 02 03 04 05 06 07  08 09 0A 0B 0C 0D 0E 0F
      -- -- -- -- -- -- -- --  -- -- -- -- -- -- -- --
0230:                          5F 05 1B 80 F8 FF FF 7F          _.......
0240: F8 FF FF 7F 73 68 6B 31  1C 80 5F 07 F8 FF FF 7F  ....shk1.._.....
0250: F8 FF FF 7F 73 68 6B 31  00                       ....shk1.       
```

#### Opcodes

```
  0: 0x0238 [0x5F] MULTI_HANDLER_COMPLEX(mode=0x05 - Load ext scheduler with flag (OpCode 0x5B mode 0, flag 1), ref=1447*, entity1=EventEntity, entity2=EventEntity, string="shk1", extra=264*)
  1: 0x024A [0x5F] MULTI_HANDLER_COMPLEX(mode=0x07 - Wait scheduler task (OpCode 0x53))
  2: 0x0258 [0x00] END_REQSTACK()
```

### Event 65535.23

#### Metadata

| Field        | Value    |
|--------------|----------|
| Entrypoint   | 0x0259   |
| Data Size    | 13 bytes |
| Instructions | 3        |

```
      00 01 02 03 04 05 06 07  08 09 0A 0B 0C 0D 0E 0F
      -- -- -- -- -- -- -- --  -- -- -- -- -- -- -- --
0250:                             6B 69 64 6C 30 F8 FF           kidl0..
0260: FF 7F 1C 1D 80 00                                 ......          
```

#### Opcodes

```
  0: 0x0259 [0x6B] STOP_AND_IDLE: EventEntity stops current action and resets to idle (animation="idl0")
  1: 0x0262 [0x1C] WAIT(30* ticks)
  2: 0x0265 [0x00] END_REQSTACK()
```
