# 17834330

## Common Data

| Field            | Value                    |
|------------------|--------------------------|
| Zone             | Rala Waterways (ID: 258) |
| Block Size       | 268 bytes                |
| Total Events     | 2                        |
| References Count | 11                       |

## List of Events

| Event ID              | Entrypoint   |   Size |   Instructions |
|-----------------------|--------------|--------|----------------|
| [65535](#event-65535) | 0x0000       |      1 |              1 |
| [366](#event-366)     | 0x0001       |    197 |             34 |

## DAT References (imed_data)

|   Index | Hex Value   |   Dec Value |
|---------|-------------|-------------|
|       0 | 0x0014      |          20 |
|       1 | 0x0050      |          80 |
|       2 | 0x1FCE      |        8142 |
|       3 | 0x0001      |           1 |
|       4 | 0x1FCD      |        8141 |
|       5 | 0x000B      |          11 |
|       6 | 0x026A      |         618 |
|       7 | 0x0000      |           0 |
|       8 | 0x008C      |         140 |
|       9 | 0x005A      |          90 |
|      10 | 0x001E      |          30 |

## String References

- **8141**: Something descended from the ceiling with nary a warning!
- **8142**: What entity keeps the Sacred City safe?

## Events

### Event 65535

#### Metadata

| Field        | Value   |
|--------------|---------|
| Entrypoint   | 0x0000  |
| Data Size    | 1 bytes |
| Instructions | 1       |

```
      00 01 02 03 04 05 06 07  08 09 0A 0B 0C 0D 0E 0F
      -- -- -- -- -- -- -- --  -- -- -- -- -- -- -- --
0000: 00                                                .               
```

#### Opcodes

```
  0: 0x0000 [0x00] END_REQSTACK()
```

### Event 366

#### Metadata

| Field        | Value     |
|--------------|-----------|
| Entrypoint   | 0x0001    |
| Data Size    | 197 bytes |
| Instructions | 24        |

```
      00 01 02 03 04 05 06 07  08 09 0A 0B 0C 0D 0E 0F
      -- -- -- -- -- -- -- --  -- -- -- -- -- -- -- --
0000:    42 4A F0 FF FF 7F F8  FF FF 7F 6F 76 F0 FF FF   BJ........ov...
0010: 7F 1C 00 80 29 08 F0 FF  FF 7F 09 1C 01 80 48 02  ....).........H.
0020: 80 23 06 01 10 B4 00 00  00 45 52 47 49 53 41 44  .#.......ERGISAD
0030: 45 00 00 00 00 00 00 00  00 71 30 03 80 71 31 00  E........q0..q1.
0040: 00 9D 08 00 00 00 45 52  47 49 53 41 44 45 00 00  ......ERGISADE..
0050: 00 00 00 00 00 00 6F 00  43 00 43 01 48 04 80 23  ......o.C.C.H..#
0060: 29 08 F0 FF FF 7F 0A 03  01 10 05 80 01 C1 00 9D  )...............
0070: 08 00 00 00 00 00 00 00  00 00 00 00 00 00 00 00  ................
0080: 00 00 00 00 95 00 03 01  10 03 80 29 08 F0 FF FF  ...........)....
0090: 7F 0A 01 C1 00 43 00 43  01 45 06 80 F8 FF FF 7F  .....C.C.E......
00A0: F8 FF FF 7F 73 30 39 36  07 80 1C 01 80 CD 08 80  ....s096........
00B0: F0 FF FF 7F F0 FF FF 7F  6D 61 69 6E 07 80 1C 09  ........main....
00C0: 80 1C 0A 80 21 00                                 ....!.          
```

#### Opcodes

```
  0: 0x0001 [0x42] SET_CLI_EVENT_CANCEL_DATA()
  1: 0x0002 [0x4A] LocalPlayer looks at EventEntity
  2: 0x000B [0x6F] WAIT_FRAME_DELAY: Yield until WaitTime reaches zero
  3: 0x000C [0x76] CHECK_ENTITY_RENDER_FLAGS: Wait until LocalPlayer Render.Flags0 and Render.Flags3 conditions are met
  4: 0x0011 [0x1C] WAIT(20* ticks)
  5: 0x0014 [0x29] REQ_SET_WAIT(priority=0x08, entity_id=LocalPlayer, tag_num=0x09)
  6: 0x001B [0x1C] WAIT(80* ticks)
  7: 0x001E [0x48] [System] [8142*]:
    → "What entity keeps the Sacred City safe?"
  8: 0x0021 [0x23] WAIT_FOR_DIALOG_INTERACTION
  9: 0x0022 [0x06] Work_Zone[1] = 0
 10: 0x0025 [0xB4] UI_WINDOW_STRING_HANDLER(case=0x00 - Copy string from opcode, work_offset=ExtData[1]->WorkLocal[0], string="ERGISADE")
 11: 0x0039 [0x71] USER_INPUT_HANDLER: Menu operation A (param=0x8003)
 12: 0x003D [0x71] USER_INPUT_HANDLER: Menu operation B (param=0x0000)
 13: 0x0041 [0x9D] IF (strcmp(ExtData[1]->WorkLocal[0], 5247495341444500000000000000006f) != 0) GOTO 0x00 // Also sets 0x4500
 14: 0x0058 [0x43] SEND_EVENT_UPDATE: Send pending tag to server (packet 0x005B)
 15: 0x005A [0x43] SEND_EVENT_UPDATE: Check pending flag (skip if not pending)
 16: 0x005C [0x48] [System] [8141*]:
    → "Something descended from the ceiling with nary a warning!"
 17: 0x005F [0x23] WAIT_FOR_DIALOG_INTERACTION
 18: 0x0060 [0x29] REQ_SET_WAIT(priority=0x08, entity_id=LocalPlayer, tag_num=0x0A)
 19: 0x0067 [0x03] Work_Zone[1] = 11*
 20: 0x006C [0x01] GOTO 0x00C1

SUBROUTINE_00C1:
 21: 0x00C1 [0x1C] WAIT(30* ticks)
 22: 0x00C4 [0x21] END_EVENT
 23: 0x00C5 [0x00] END_REQSTACK()
```

#### Data or dead code:

```
# Dead code (unreachable instructions):
     0x006F [0x9D] IF (strcmp(ExtData[1]->WorkLocal[0], 00000000000000000000000000000095) != 0) GOTO 0x00 // Also sets ExtData[1]->WorkLocal[0]
     0x0086 [0x03] Work_Zone[1] = 1*
     0x008B [0x29] REQ_SET_WAIT(priority=0x08, entity_id=LocalPlayer, tag_num=0x0A)
     0x0092 [0x01] GOTO 0x00C1
     0x0095 [0x43] SEND_EVENT_UPDATE: Send pending tag to server (packet 0x005B)
     0x0097 [0x43] SEND_EVENT_UPDATE: Check pending flag (skip if not pending)
     0x0099 [0x45] LOAD_SCHEDULED_TASK: Load scheduler "s096" with entities [EventEntity, EventEntity], work=[618*, 0*]
     0x00AA [0x1C] WAIT(80* ticks)
     0x00AD [0xCD] LOAD_SCHEDULED_TASK_ALT4: Load scheduler "main" with entities [LocalPlayer, LocalPlayer], work=[140*, 0*]
     0x00BE [0x1C] WAIT(90* ticks)
```
