# 17834323 - Saldinor

## Common Data

| Field            | Value                    |
|------------------|--------------------------|
| Zone             | Rala Waterways (ID: 258) |
| Block Size       | 324 bytes                |
| Total Events     | 6                        |
| References Count | 19                       |

## List of Events

| Event ID              | Entrypoint   |   Size |   Instructions |
|-----------------------|--------------|--------|----------------|
| [65535](#event-65535) | 0x0000       |      1 |              1 |
| [329](#event-329)     | 0x0001       |     13 |              7 |
| [330](#event-330)     | 0x000E       |     93 |             31 |
| [332](#event-332)     | 0x006B       |     33 |             13 |
| [331](#event-331)     | 0x008C       |     43 |             12 |
| [333](#event-333)     | 0x00B7       |     23 |              9 |

## DAT References (imed_data)

|   Index | Hex Value   |   Dec Value |
|---------|-------------|-------------|
|       0 | 0x1D95      |        7573 |
|       1 | 0x1D88      |        7560 |
|       2 | 0x1D89      |        7561 |
|       3 | 0x1D8A      |        7562 |
|       4 | 0x0F5A      |        3930 |
|       5 | 0x0002      |           2 |
|       6 | 0x1D8B      |        7563 |
|       7 | 0x1D8C      |        7564 |
|       8 | 0x1D8D      |        7565 |
|       9 | 0x0001      |           1 |
|      10 | 0x0000      |           0 |
|      11 | 0x1D8E      |        7566 |
|      12 | 0x1D8F      |        7567 |
|      13 | 0x1D93      |        7571 |
|      14 | 0x1D94      |        7572 |
|      15 | 0x1D91      |        7569 |
|      16 | 0x1D92      |        7570 |
|      17 | 0x00C9      |         201 |
|      18 | 0x1D90      |        7568 |

## String References

- **7560**: Can't you feel the deeply oppressive air bearing down on your shoulders? It must be the darkness of the jungle made manifest.
- **7561**: Is it just me? Am I the only one who notices this ominous haze?
- **7562**: Still, it couldn't hurt to make a protective charm to ward off evil.
- **7563**: According to the rituals taught to me by a local geomancer, I need $1 $0.
- **7564**: But I can't do it alone. Please, will you lend me your aid?
- **7565**: Assist him in gathering materials? [Certainly./Sounds too dangerous...]
- **7566**: You have my gratitude. The only way to resist the primordial darkness is with this kind of protection. Remember what I need--$1 $0.
- **7567**: I suppose I cannot fault you. Yet the darkness is approaching...something must be done before it envelops us all.
- **7568**: Have you forgotten what I need? $1 $0.
- **7569**: You have done me a great service. With this, I should be able to repel the darkness a little while longer.
- **7570**: My heart feels this darkness more than most...but there must be others like me who sense the horrors contained within.
- **7571**: My mother has fallen ill from worry. Could this be related to...? I must create more charms. Please, bring me $1 $0.
- **7572**: Trade them to me once you have the appropriate number.
- **7573**: This murky haze...what could it mean?

## Events

### Event 65535

#### Metadata

| Field        | Value   |
|--------------|---------|
| Entrypoint   | 0x0000  |
| Data Size    | 1 bytes |
| Instructions | 1       |

```
      00 01 02 03 04 05 06 07  08 09 0A 0B 0C 0D 0E 0F
      -- -- -- -- -- -- -- --  -- -- -- -- -- -- -- --
0000: 00                                                .               
```

#### Opcodes

```
  0: 0x0000 [0x00] END_REQSTACK()
```

### Event 329

#### Metadata

| Field        | Value    |
|--------------|----------|
| Entrypoint   | 0x0001   |
| Data Size    | 13 bytes |
| Instructions | 7        |

```
      00 01 02 03 04 05 06 07  08 09 0A 0B 0C 0D 0E 0F
      -- -- -- -- -- -- -- --  -- -- -- -- -- -- -- --
0000:    1E F0 FF FF 7F 6F 70  1D 00 80 23 21 00         .....op...#!.  
```

#### Opcodes

```
  0: 0x0001 [0x1E] EventEntity looks at LocalPlayer and starts talking
  1: 0x0006 [0x6F] WAIT_FRAME_DELAY: Yield until WaitTime reaches zero
  2: 0x0007 [0x70] WAIT_ENTITY_RENDER_FLAG: Wait while EventEntity->Render.Flags3 bit 2 is set (cancel turn if not)
  3: 0x0008 [0x1D] PRINT_EVENT_MESSAGE(message_id=7573*)
    → "This murky haze...what could it mean?"
  4: 0x000B [0x23] WAIT_FOR_DIALOG_INTERACTION
  5: 0x000C [0x21] END_EVENT
  6: 0x000D [0x00] END_REQSTACK()
```

### Event 330

#### Metadata

| Field        | Value    |
|--------------|----------|
| Entrypoint   | 0x000E   |
| Data Size    | 93 bytes |
| Instructions | 31       |

```
      00 01 02 03 04 05 06 07  08 09 0A 0B 0C 0D 0E 0F
      -- -- -- -- -- -- -- --  -- -- -- -- -- -- -- --
0000:                                            1E F0                ..
0010: FF FF 7F 6F 70 1D 01 80  23 1D 02 80 23 1D 03 80  ...op...#...#...
0020: 23 03 02 10 04 80 03 03  10 05 80 1D 06 80 23 1D  #.............#.
0030: 07 80 23 24 08 80 09 80  0A 80 25 02 00 10 0A 80  ..#$......%.....
0040: 00 5A 00 42 03 02 10 04  80 03 03 10 05 80 1D 0B  .Z.B............
0050: 80 23 03 01 10 09 80 01  69 00 02 00 10 09 80 00  .#......i.......
0060: 69 00 1D 0C 80 23 01 69  00 21 00                 i....#.i.!.     
```

#### Opcodes

```
  0: 0x000E [0x1E] EventEntity looks at LocalPlayer and starts talking
  1: 0x0013 [0x6F] WAIT_FRAME_DELAY: Yield until WaitTime reaches zero
  2: 0x0014 [0x70] WAIT_ENTITY_RENDER_FLAG: Wait while EventEntity->Render.Flags3 bit 2 is set (cancel turn if not)
  3: 0x0015 [0x1D] PRINT_EVENT_MESSAGE(message_id=7560*)
    → "Can't you feel the deeply oppressive air bearing down on your shoulders? It must be the darkness of the jungle made manifest."
  4: 0x0018 [0x23] WAIT_FOR_DIALOG_INTERACTION
  5: 0x0019 [0x1D] PRINT_EVENT_MESSAGE(message_id=7561*)
    → "Is it just me? Am I the only one who notices this ominous haze?"
  6: 0x001C [0x23] WAIT_FOR_DIALOG_INTERACTION
  7: 0x001D [0x1D] PRINT_EVENT_MESSAGE(message_id=7562*)
    → "Still, it couldn't hurt to make a protective charm to ward off evil."
  8: 0x0020 [0x23] WAIT_FOR_DIALOG_INTERACTION
  9: 0x0021 [0x03] Work_Zone[2] = 3930*
 10: 0x0026 [0x03] Work_Zone[3] = 2*
 11: 0x002B [0x1D] PRINT_EVENT_MESSAGE(message_id=7563*)
    → "According to the rituals taught to me by a local geomancer, I need $1 $0."
 12: 0x002E [0x23] WAIT_FOR_DIALOG_INTERACTION
 13: 0x002F [0x1D] PRINT_EVENT_MESSAGE(message_id=7564*)
    → "But I can't do it alone. Please, will you lend me your aid?"
 14: 0x0032 [0x23] WAIT_FOR_DIALOG_INTERACTION
 15: 0x0033 [0x24] CREATE_DIALOG(message_id=7565*, default_option=1*, option_flags=0*)
    → "Assist him in gathering materials? [Certainly./Sounds too dangerous...]"
 16: 0x003A [0x25] WAIT_DIALOG_SELECT()
 17: 0x003B [0x02] IF !(Work_Zone[0] == 0*) GOTO 0x005A
 18: 0x0043 [0x42] SET_CLI_EVENT_CANCEL_DATA()
 19: 0x0044 [0x03] Work_Zone[2] = 3930*
 20: 0x0049 [0x03] Work_Zone[3] = 2*
 21: 0x004E [0x1D] PRINT_EVENT_MESSAGE(message_id=7566*)
    → "You have my gratitude. The only way to resist the primordial darkness is with this kind of protection. Remember what I need--$1 $0."
 22: 0x0051 [0x23] WAIT_FOR_DIALOG_INTERACTION
 23: 0x0052 [0x03] Work_Zone[1] = 1*
 24: 0x0057 [0x01] GOTO 0x0069
 25: 0x005A [0x02] IF !(Work_Zone[0] == 1*) GOTO 0x0069
 26: 0x0062 [0x1D] PRINT_EVENT_MESSAGE(message_id=7567*)
    → "I suppose I cannot fault you. Yet the darkness is approaching...something must be done before it envelops us all."
 27: 0x0065 [0x23] WAIT_FOR_DIALOG_INTERACTION
 28: 0x0066 [0x01] GOTO 0x0069

SUBROUTINE_0069:
 29: 0x0069 [0x21] END_EVENT
 30: 0x006A [0x00] END_REQSTACK()
```

### Event 332

#### Metadata

| Field        | Value    |
|--------------|----------|
| Entrypoint   | 0x006B   |
| Data Size    | 33 bytes |
| Instructions | 13       |

```
      00 01 02 03 04 05 06 07  08 09 0A 0B 0C 0D 0E 0F
      -- -- -- -- -- -- -- --  -- -- -- -- -- -- -- --
0060:                                   1E F0 FF FF 7F             .....
0070: 42 6F 70 03 02 10 04 80  03 03 10 05 80 1D 0D 80  Bop.............
0080: 23 1D 0E 80 23 03 01 10  09 80 21 00              #...#.....!.    
```

#### Opcodes

```
  0: 0x006B [0x1E] EventEntity looks at LocalPlayer and starts talking
  1: 0x0070 [0x42] SET_CLI_EVENT_CANCEL_DATA()
  2: 0x0071 [0x6F] WAIT_FRAME_DELAY: Yield until WaitTime reaches zero
  3: 0x0072 [0x70] WAIT_ENTITY_RENDER_FLAG: Wait while EventEntity->Render.Flags3 bit 2 is set (cancel turn if not)
  4: 0x0073 [0x03] Work_Zone[2] = 3930*
  5: 0x0078 [0x03] Work_Zone[3] = 2*
  6: 0x007D [0x1D] PRINT_EVENT_MESSAGE(message_id=7571*)
    → "My mother has fallen ill from worry. Could this be related to...? I must create more charms. Please, bring me $1 $0."
  7: 0x0080 [0x23] WAIT_FOR_DIALOG_INTERACTION
  8: 0x0081 [0x1D] PRINT_EVENT_MESSAGE(message_id=7572*)
    → "Trade them to me once you have the appropriate number."
  9: 0x0084 [0x23] WAIT_FOR_DIALOG_INTERACTION
 10: 0x0085 [0x03] Work_Zone[1] = 1*
 11: 0x008A [0x21] END_EVENT
 12: 0x008B [0x00] END_REQSTACK()
```

### Event 331

#### Metadata

| Field        | Value    |
|--------------|----------|
| Entrypoint   | 0x008C   |
| Data Size    | 43 bytes |
| Instructions | 12       |

```
      00 01 02 03 04 05 06 07  08 09 0A 0B 0C 0D 0E 0F
      -- -- -- -- -- -- -- --  -- -- -- -- -- -- -- --
0080:                                      1E F0 FF FF              ....
0090: 7F 42 6F 70 1D 0F 80 23  02 02 10 05 80 00 A4 00  .Bop...#........
00A0: 1D 10 80 23 45 11 80 F8  FF FF 7F F8 FF FF 7F 71  ...#E..........q
00B0: 73 74 63 0A 80 21 00                              stc..!.         
```

#### Opcodes

```
  0: 0x008C [0x1E] EventEntity looks at LocalPlayer and starts talking
  1: 0x0091 [0x42] SET_CLI_EVENT_CANCEL_DATA()
  2: 0x0092 [0x6F] WAIT_FRAME_DELAY: Yield until WaitTime reaches zero
  3: 0x0093 [0x70] WAIT_ENTITY_RENDER_FLAG: Wait while EventEntity->Render.Flags3 bit 2 is set (cancel turn if not)
  4: 0x0094 [0x1D] PRINT_EVENT_MESSAGE(message_id=7569*)
    → "You have done me a great service. With this, I should be able to repel the darkness a little while longer."
  5: 0x0097 [0x23] WAIT_FOR_DIALOG_INTERACTION
  6: 0x0098 [0x02] IF !(Work_Zone[2] == 2*) GOTO 0x00A4
  7: 0x00A0 [0x1D] PRINT_EVENT_MESSAGE(message_id=7570*)
    → "My heart feels this darkness more than most...but there must be others like me who sense the horrors contained within."
  8: 0x00A3 [0x23] WAIT_FOR_DIALOG_INTERACTION
  9: 0x00A4 [0x45] LOAD_SCHEDULED_TASK: Load scheduler "qstc" with entities [EventEntity, EventEntity], work=[201*, 0*]
 10: 0x00B5 [0x21] END_EVENT
 11: 0x00B6 [0x00] END_REQSTACK()
```

### Event 333

#### Metadata

| Field        | Value    |
|--------------|----------|
| Entrypoint   | 0x00B7   |
| Data Size    | 23 bytes |
| Instructions | 9        |

```
      00 01 02 03 04 05 06 07  08 09 0A 0B 0C 0D 0E 0F
      -- -- -- -- -- -- -- --  -- -- -- -- -- -- -- --
00B0:                      1E  F0 FF FF 7F 6F 70 03 02         .....op..
00C0: 10 04 80 03 03 10 05 80  1D 12 80 23 21 00        ...........#!.  
```

#### Opcodes

```
  0: 0x00B7 [0x1E] EventEntity looks at LocalPlayer and starts talking
  1: 0x00BC [0x6F] WAIT_FRAME_DELAY: Yield until WaitTime reaches zero
  2: 0x00BD [0x70] WAIT_ENTITY_RENDER_FLAG: Wait while EventEntity->Render.Flags3 bit 2 is set (cancel turn if not)
  3: 0x00BE [0x03] Work_Zone[2] = 3930*
  4: 0x00C3 [0x03] Work_Zone[3] = 2*
  5: 0x00C8 [0x1D] PRINT_EVENT_MESSAGE(message_id=7568*)
    → "Have you forgotten what I need? $1 $0."
  6: 0x00CB [0x23] WAIT_FOR_DIALOG_INTERACTION
  7: 0x00CC [0x21] END_EVENT
  8: 0x00CD [0x00] END_REQSTACK()
```
