# 0x7FFFFFF0 - Zone Events

## Common Data

| Field            | Value                    |
|------------------|--------------------------|
| Zone             | Rala Waterways (ID: 258) |
| Block Size       | 3316 bytes               |
| Total Events     | 56                       |
| References Count | 99                       |

## List of Events

| Event ID                   | Entrypoint   |   Size |   Instructions |
|----------------------------|--------------|--------|----------------|
| [65535](#event-65535)      | 0x0000       |      1 |              1 |
| [65534](#event-65534)      | 0x0001       |      1 |              1 |
| [65535.1](#event-655351)   | 0x0002       |      6 |              2 |
| [65535.2](#event-655352)   | 0x0008       |      6 |              2 |
| [65535.3](#event-655353)   | 0x000E       |     24 |              4 |
| [65535.4](#event-655354)   | 0x0026       |     24 |              4 |
| [65535.5](#event-655355)   | 0x003E       |      7 |              3 |
| [65535.6](#event-655356)   | 0x0045       |      7 |              3 |
| [12](#event-12)            | 0x004C       |     49 |             13 |
| [65535.7](#event-655357)   | 0x007D       |     37 |              5 |
| [65535.8](#event-655358)   | 0x00A2       |    185 |             37 |
| [65535.9](#event-655359)   | 0x015B       |     34 |              8 |
| [65535.10](#event-6553510) | 0x017D       |     19 |              5 |
| [65535.11](#event-6553511) | 0x0190       |     14 |              4 |
| [65535.12](#event-6553512) | 0x019E       |     19 |              5 |
| [65535.13](#event-6553513) | 0x01B1       |     21 |              5 |
| [65535.14](#event-6553514) | 0x01C6       |     29 |              7 |
| [65535.15](#event-6553515) | 0x01E3       |     14 |              4 |
| [65535.16](#event-6553516) | 0x01F1       |     19 |              5 |
| [65535.17](#event-6553517) | 0x0204       |     14 |              4 |
| [65535.18](#event-6553518) | 0x0212       |     14 |              4 |
| [65535.19](#event-6553519) | 0x0220       |     29 |              9 |
| [65535.20](#event-6553520) | 0x023D       |     14 |              4 |
| [65535.21](#event-6553521) | 0x024B       |     14 |              4 |
| [65535.22](#event-6553522) | 0x0259       |     23 |              5 |
| [65535.23](#event-6553523) | 0x0270       |     14 |              4 |
| [65535.24](#event-6553524) | 0x027E       |     14 |              4 |
| [65535.25](#event-6553525) | 0x028C       |     14 |              4 |
| [65535.26](#event-6553526) | 0x029A       |     14 |              4 |
| [65535.27](#event-6553527) | 0x02A8       |     24 |              4 |
| [65535.28](#event-6553528) | 0x02C0       |     24 |              4 |
| [65535.29](#event-6553529) | 0x02D8       |     38 |              5 |
| [65535.30](#event-6553530) | 0x02FE       |     38 |              5 |
| [65535.31](#event-6553531) | 0x0324       |     38 |              5 |
| [65535.32](#event-6553532) | 0x034A       |     37 |              5 |
| [65535.33](#event-6553533) | 0x036F       |     37 |              5 |
| [65535.34](#event-6553534) | 0x0394       |     42 |              6 |
| [65535.35](#event-6553535) | 0x03BE       |     24 |              4 |
| [65535.36](#event-6553536) | 0x03D6       |     27 |              5 |
| [65535.37](#event-6553537) | 0x03F1       |     29 |              5 |
| [65535.38](#event-6553538) | 0x040E       |     29 |              5 |
| [65535.39](#event-6553539) | 0x042B       |     24 |              4 |
| [65535.40](#event-6553540) | 0x0443       |     24 |              4 |
| [65535.41](#event-6553541) | 0x045B       |    353 |             41 |
| [65535.42](#event-6553542) | 0x05BC       |    222 |             26 |
| [65535.43](#event-6553543) | 0x069A       |    222 |             26 |
| [65535.44](#event-6553544) | 0x0778       |     14 |              4 |
| [65535.45](#event-6553545) | 0x0786       |     14 |              4 |
| [65535.46](#event-6553546) | 0x0794       |     14 |              4 |
| [65535.47](#event-6553547) | 0x07A2       |      5 |              2 |
| [65535.48](#event-6553548) | 0x07A7       |      5 |              2 |
| [65535.49](#event-6553549) | 0x07AC       |      5 |              2 |
| [65535.50](#event-6553550) | 0x07B1       |      5 |              2 |
| [65535.51](#event-6553551) | 0x07B6       |    345 |             33 |
| [65535.52](#event-6553552) | 0x090F       |    345 |             33 |
| [65535.53](#event-6553553) | 0x0A68       |     14 |              4 |

## DAT References (imed_data)

|   Index | Hex Value   |   Dec Value |
|---------|-------------|-------------|
|       0 | 0x0001      |           1 |
|       1 | 0x0000      |           0 |
|       2 | 0x0028      |          40 |
|       3 | 0x0005      |           5 |
|       4 | 0x0002      |           2 |
|       5 | 0x000A      |          10 |
|       6 | 0x0009      |           9 |
|       7 | 0x0046      |          70 |
|       8 | 0x008C      |         140 |
|       9 | 0x00D2      |         210 |
|      10 | 0xFFFAD9A5  |  4294629797 |
|      11 | 0xFFFAF119  |  4294635801 |
|      12 | 0xFFFFFC18  |  4294966296 |
|      13 | 0x001E      |          30 |
|      14 | 0x000D      |          13 |
|      15 | 0x29FA9     |      171945 |
|      16 | 0x222DE     |      139998 |
|      17 | 0xFFFFE97B  |  4294961531 |
|      18 | 0x2BA5A     |      178778 |
|      19 | 0x20B33     |      133939 |
|      20 | 0xFFF7DEBA  |  4294434490 |
|      21 | 0xEAA8      |       60072 |
|      22 | 0x024D      |         589 |
|      23 | 0xFFF7CE45  |  4294430277 |
|      24 | 0xE661      |       58977 |
|      25 | 0xFFF7C5BE  |  4294428094 |
|      26 | 0xE16B      |       57707 |
|      27 | 0xFFF7A734  |  4294420276 |
|      28 | 0xE5B5      |       58805 |
|      29 | 0xFFFE17F7  |  4294842359 |
|      30 | 0xFFFA713F  |  4294603071 |
|      31 | 0x4F4B3     |      324787 |
|      32 | 0xFFF9E973  |  4294568307 |
|      33 | 0xFFFFCF21  |  4294954785 |
|      34 | 0x50ED0     |      331472 |
|      35 | 0xFFF9C6D9  |  4294559449 |
|      36 | 0x000B      |          11 |
|      37 | 0xFFF78052  |  4294410322 |
|      38 | 0xE9E8      |       59880 |
|      39 | 0xFFFB4414  |  4294657044 |
|      40 | 0xFFFB18B3  |  4294645939 |
|      41 | 0x516C2     |      333506 |
|      42 | 0xFFFB6EEE  |  4294668014 |
|      43 | 0xFFFFE3DD  |  4294960093 |
|      44 | 0x57E14     |      359956 |
|      45 | 0xFFF9D87C  |  4294563964 |
|      46 | 0xFFFAB449  |  4294620233 |
|      47 | 0xFFFB6931  |  4294666545 |
|      48 | 0xFFFA9C3C  |  4294614076 |
|      49 | 0xFFFB6912  |  4294666514 |
|      50 | 0x0050      |          80 |
|      51 | 0x0008      |           8 |
|      52 | 0x0007      |           7 |
|      53 | 0x0091      |         145 |
|      54 | 0x004F      |          79 |
|      55 | 0x004C      |          76 |
|      56 | 0x00C9      |         201 |
|      57 | 0x0018      |          24 |
|      58 | 0x0020      |          32 |
|      59 | 0x0030      |          48 |
|      60 | 0x0040      |          64 |
|      61 | 0x003C      |          60 |
|      62 | 0x0095      |         149 |
|      63 | 0x0078      |         120 |
|      64 | 0x009F      |         159 |
|      65 | 0x0003      |           3 |
|      66 | 0x00A9      |         169 |
|      67 | 0x0004      |           4 |
|      68 | 0x00B3      |         179 |
|      69 | 0x00BD      |         189 |
|      70 | 0x0006      |           6 |
|      71 | 0x00C7      |         199 |
|      72 | 0x00D1      |         209 |
|      73 | 0x0013      |          19 |
|      74 | 0x001D      |          29 |
|      75 | 0x0027      |          39 |
|      76 | 0x0031      |          49 |
|      77 | 0x003B      |          59 |
|      78 | 0x0045      |          69 |
|      79 | 0x4FD58     |      327000 |
|      80 | 0xFFF9E580  |  4294567296 |
|      81 | 0xFFFFCF22  |  4294954786 |
|      82 | 0x57E40     |      360000 |
|      83 | 0xFFFB175C  |  4294645596 |
|      84 | 0xFFFB1AE0  |  4294646496 |
|      85 | 0x0057      |          87 |
|      86 | 0x005D      |          93 |
|      87 | 0x0060      |          96 |
|      88 | 0x0064      |         100 |
|      89 | 0x008D      |         141 |
|      90 | 0x0F26      |        3878 |
|      91 | 0x0097      |         151 |
|      92 | 0x00A1      |         161 |
|      93 | 0x00AB      |         171 |
|      94 | 0x00B5      |         181 |
|      95 | 0x00BF      |         191 |
|      96 | 0xFFF72234  |  4294386228 |
|      97 | 0x498A      |       18826 |
|      98 | 0xFFFFE2B4  |  4294959796 |

## Events

### Event 65535

#### Metadata

| Field        | Value   |
|--------------|---------|
| Entrypoint   | 0x0000  |
| Data Size    | 1 bytes |
| Instructions | 1       |

```
      00 01 02 03 04 05 06 07  08 09 0A 0B 0C 0D 0E 0F
      -- -- -- -- -- -- -- --  -- -- -- -- -- -- -- --
0000: 00                                                .               
```

#### Opcodes

```
  0: 0x0000 [0x00] END_REQSTACK()
```

### Event 65534

#### Metadata

| Field        | Value   |
|--------------|---------|
| Entrypoint   | 0x0001  |
| Data Size    | 1 bytes |
| Instructions | 1       |

```
      00 01 02 03 04 05 06 07  08 09 0A 0B 0C 0D 0E 0F
      -- -- -- -- -- -- -- --  -- -- -- -- -- -- -- --
0000:    00                                              .              
```

#### Opcodes

```
  0: 0x0001 [0x00] END_REQSTACK()
```

### Event 65535.1

#### Metadata

| Field        | Value   |
|--------------|---------|
| Entrypoint   | 0x0002  |
| Data Size    | 6 bytes |
| Instructions | 2       |

```
      00 01 02 03 04 05 06 07  08 09 0A 0B 0C 0D 0E 0F
      -- -- -- -- -- -- -- --  -- -- -- -- -- -- -- --
0000:       03 02 10 07 7F 00                             ......        
```

#### Opcodes

```
  0: 0x0002 [0x03] Work_Zone[2] = Entity->Race
  1: 0x0007 [0x00] END_REQSTACK()
```

### Event 65535.2

#### Metadata

| Field        | Value   |
|--------------|---------|
| Entrypoint   | 0x0008  |
| Data Size    | 6 bytes |
| Instructions | 2       |

```
      00 01 02 03 04 05 06 07  08 09 0A 0B 0C 0D 0E 0F
      -- -- -- -- -- -- -- --  -- -- -- -- -- -- -- --
0000:                          03 02 10 0B 7F 00                ......  
```

#### Opcodes

```
  0: 0x0008 [0x03] Work_Zone[2] = (Entity->Render.Flags01 >> 25) & 1
  1: 0x000D [0x00] END_REQSTACK()
```

### Event 65535.3

#### Metadata

| Field        | Value    |
|--------------|----------|
| Entrypoint   | 0x000E   |
| Data Size    | 24 bytes |
| Instructions | 4        |

```
      00 01 02 03 04 05 06 07  08 09 0A 0B 0C 0D 0E 0F
      -- -- -- -- -- -- -- --  -- -- -- -- -- -- -- --
0000:                                            03 04                ..
0010: 00 07 7F 1A C7 00 66 05  00 F8 FF FF 7F F8 FF FF  ......f.........
0020: 7F 74 68 6B 31 00                                 .thk1.          
```

#### Opcodes

```
  0: 0x000E [0x03] ExtData[1]->WorkLocal[4] = Entity->Race
  1: 0x0013 [0x1A] CALL_SUBROUTINE(address=0x00C7)
  2: 0x0016 [0x66] LOAD_EXT_SCHEDULER_MAIN: Load scheduler "thk1" with entities [EventEntity, EventEntity], work=ExtData[1]->WorkLocal[5]
  3: 0x0025 [0x00] END_REQSTACK()
```

### Event 65535.4

#### Metadata

| Field        | Value    |
|--------------|----------|
| Entrypoint   | 0x0026   |
| Data Size    | 24 bytes |
| Instructions | 4        |

```
      00 01 02 03 04 05 06 07  08 09 0A 0B 0C 0D 0E 0F
      -- -- -- -- -- -- -- --  -- -- -- -- -- -- -- --
0020:                   03 04  00 07 7F 1A C7 00 66 05        ........f.
0030: 00 F8 FF FF 7F F8 FF FF  7F 74 68 6B 32 00        .........thk2.  
```

#### Opcodes

```
  0: 0x0026 [0x03] ExtData[1]->WorkLocal[4] = Entity->Race
  1: 0x002B [0x1A] CALL_SUBROUTINE(address=0x00C7)
  2: 0x002E [0x66] LOAD_EXT_SCHEDULER_MAIN: Load scheduler "thk2" with entities [EventEntity, EventEntity], work=ExtData[1]->WorkLocal[5]
  3: 0x003D [0x00] END_REQSTACK()
```

### Event 65535.5

#### Metadata

| Field        | Value   |
|--------------|---------|
| Entrypoint   | 0x003E  |
| Data Size    | 7 bytes |
| Instructions | 3       |

```
      00 01 02 03 04 05 06 07  08 09 0A 0B 0C 0D 0E 0F
      -- -- -- -- -- -- -- --  -- -- -- -- -- -- -- --
0030:                                            AB 03                ..
0040: AC 01 00 80 00                                    .....           
```

#### Opcodes

```
  0: 0x003E [0xAB] EventEntity->Render.Flags0 ^= 0x20000 // Toggle bit 17
  1: 0x0040 [0xAC] EventEntity->StatusEvent = 1*
  2: 0x0044 [0x00] END_REQSTACK()
```

### Event 65535.6

#### Metadata

| Field        | Value   |
|--------------|---------|
| Entrypoint   | 0x0045  |
| Data Size    | 7 bytes |
| Instructions | 3       |

```
      00 01 02 03 04 05 06 07  08 09 0A 0B 0C 0D 0E 0F
      -- -- -- -- -- -- -- --  -- -- -- -- -- -- -- --
0040:                AC 01 01  80 AB 04 00                   .......    
```

#### Opcodes

```
  0: 0x0045 [0xAC] EventEntity->StatusEvent = 0*
  1: 0x0049 [0xAB] EventEntity->Render.Flags0 |= 0x40000 // Set bit 18
  2: 0x004B [0x00] END_REQSTACK()
```

### Event 12

#### Metadata

| Field        | Value    |
|--------------|----------|
| Entrypoint   | 0x004C   |
| Data Size    | 49 bytes |
| Instructions | 13       |

```
      00 01 02 03 04 05 06 07  08 09 0A 0B 0C 0D 0E 0F
      -- -- -- -- -- -- -- --  -- -- -- -- -- -- -- --
0040:                                      42 03 00 00              B...
0050: 02 10 03 01 00 03 10 03  02 00 04 10 03 03 00 05  ................
0060: 10 32 02 80 1F 00 00 00  02 00 01 00 1F 01 6F 47  .2............oG
0070: 00 00 00 02 00 01 00 03  00 47 01 21 00           .........G.!.   
```

#### Opcodes

```
  0: 0x004C [0x42] SET_CLI_EVENT_CANCEL_DATA()
  1: 0x004D [0x03] ExtData[1]->WorkLocal[0] = Work_Zone[2]
  2: 0x0052 [0x03] ExtData[1]->WorkLocal[1] = Work_Zone[3]
  3: 0x0057 [0x03] ExtData[1]->WorkLocal[2] = Work_Zone[4]
  4: 0x005C [0x03] ExtData[1]->WorkLocal[3] = Work_Zone[5]
  5: 0x0061 [0x32] ExtData[1]->MainSpeed = 40* * 0.1
  6: 0x0064 [0x1F] MOVE_ENTITY: EventEntity moves to X=ExtData[1]->WorkLocal[0], Z=ExtData[1]->WorkLocal[2], Y=ExtData[1]->WorkLocal[1]
  7: 0x006C [0x1F] MOVE_ENTITY: Update entity position (mode=1)
  8: 0x006E [0x6F] WAIT_FRAME_DELAY: Yield until WaitTime reaches zero
  9: 0x006F [0x47] UPDATE_PLAYER_POS(ExtData[1]->WorkLocal[0], ExtData[1]->WorkLocal[2], ExtData[1]->WorkLocal[1], yaw=ExtData[1]->WorkLocal[3])
 10: 0x0079 [0x47] WAIT_PLAYER_POS_UPDATE
 11: 0x007B [0x21] END_EVENT
 12: 0x007C [0x00] END_REQSTACK()
```

### Event 65535.7

#### Metadata

| Field        | Value    |
|--------------|----------|
| Entrypoint   | 0x007D   |
| Data Size    | 37 bytes |
| Instructions | 5        |

```
      00 01 02 03 04 05 06 07  08 09 0A 0B 0C 0D 0E 0F
      -- -- -- -- -- -- -- --  -- -- -- -- -- -- -- --
0070:                                         03 04 00               ...
0080: 07 7F 1A C7 00 66 05 00  F8 FF FF 7F F8 FF FF 7F  .....f..........
0090: 73 68 61 30 53 F8 FF FF  7F F8 FF FF 7F 73 68 61  sha0S........sha
00A0: 30 00                                             0.              
```

#### Opcodes

```
  0: 0x007D [0x03] ExtData[1]->WorkLocal[4] = Entity->Race
  1: 0x0082 [0x1A] CALL_SUBROUTINE(address=0x00C7)
  2: 0x0085 [0x66] LOAD_EXT_SCHEDULER_MAIN: Load scheduler "sha0" with entities [EventEntity, EventEntity], work=ExtData[1]->WorkLocal[5]
  3: 0x0094 [0x53] WAIT_SCHEDULER_TASK: Wait for scheduler "sha0" with entities [EventEntity, EventEntity]
  4: 0x00A1 [0x00] END_REQSTACK()
```

### Event 65535.8

#### Metadata

| Field        | Value     |
|--------------|-----------|
| Entrypoint   | 0x00A2    |
| Data Size    | 185 bytes |
| Instructions | 13        |

```
      00 01 02 03 04 05 06 07  08 09 0A 0B 0C 0D 0E 0F
      -- -- -- -- -- -- -- --  -- -- -- -- -- -- -- --
00A0:       03 04 00 07 7F 1A  C7 00 66 05 00 F8 FF FF    ........f.....
00B0: 7F F8 FF FF 7F 73 68 61  31 53 F8 FF FF 7F F8 FF  .....sha1S......
00C0: FF 7F 73 68 61 31 00 03  05 00 04 00 02 05 00 03  ..sha1..........
00D0: 80 05 DC 00 08 05 00 00  80 01 E1 00 08 05 00 04  ................
00E0: 80 14 05 00 05 80 07 05  00 06 80 1B 03 05 00 04  ................
00F0: 00 02 05 00 03 80 05 01  01 08 05 00 00 80 01 06  ................
0100: 01 08 05 00 04 80 14 05  00 05 80 07 05 00 07 80  ................
0110: 1B 03 05 00 04 00 02 05  00 03 80 05 26 01 08 05  ............&...
0120: 00 00 80 01 2B 01 08 05  00 04 80 14 05 00 05 80  ....+...........
0130: 07 05 00 08 80 1B 03 05  00 04 00 02 05 00 03 80  ................
0140: 05 4B 01 08 05 00 00 80  01 50 01 08 05 00 04 80  .K.......P......
0150: 14 05 00 05 80 07 05 00  09 80 1B                 ...........     
```

#### Opcodes

```
  0: 0x00A2 [0x03] ExtData[1]->WorkLocal[4] = Entity->Race
  1: 0x00A7 [0x1A] CALL_SUBROUTINE(address=0x00C7)
  2: 0x00AA [0x66] LOAD_EXT_SCHEDULER_MAIN: Load scheduler "sha1" with entities [EventEntity, EventEntity], work=ExtData[1]->WorkLocal[5]
  3: 0x00B9 [0x53] WAIT_SCHEDULER_TASK: Wait for scheduler "sha1" with entities [EventEntity, EventEntity]
  4: 0x00C6 [0x00] END_REQSTACK()

SUBROUTINE_00C7:
  5: 0x00C7 [0x03] ExtData[1]->WorkLocal[5] = ExtData[1]->WorkLocal[4]
  6: 0x00CC [0x02] IF !(ExtData[1]->WorkLocal[5] > 5*) GOTO 0x00DC
  7: 0x00D4 [0x08] ExtData[1]->WorkLocal[5] -= 1*
  8: 0x00D9 [0x01] GOTO 0x00E1
  9: 0x00DC [0x08] ExtData[1]->WorkLocal[5] -= 2*

SUBROUTINE_00E1:
 10: 0x00E1 [0x14] ExtData[1]->WorkLocal[5] *= 10*
 11: 0x00E6 [0x07] ExtData[1]->WorkLocal[5] += 9*
 12: 0x00EB [0x1B] RETURN
```

#### Data or dead code:

```
# Dead code (unreachable instructions):
     0x00EC [0x03] ExtData[1]->WorkLocal[5] = ExtData[1]->WorkLocal[4]
     0x00F1 [0x02] IF !(ExtData[1]->WorkLocal[5] > 5*) GOTO 0x0101
     0x00F9 [0x08] ExtData[1]->WorkLocal[5] -= 1*
     0x00FE [0x01] GOTO 0x0106
     0x0101 [0x08] ExtData[1]->WorkLocal[5] -= 2*
     0x0106 [0x14] ExtData[1]->WorkLocal[5] *= 10*
     0x010B [0x07] ExtData[1]->WorkLocal[5] += 70*
     0x0110 [0x1B] RETURN
     0x0111 [0x03] ExtData[1]->WorkLocal[5] = ExtData[1]->WorkLocal[4]
     0x0116 [0x02] IF !(ExtData[1]->WorkLocal[5] > 5*) GOTO 0x0126
     0x011E [0x08] ExtData[1]->WorkLocal[5] -= 1*
     0x0123 [0x01] GOTO 0x012B
     0x0126 [0x08] ExtData[1]->WorkLocal[5] -= 2*
     0x012B [0x14] ExtData[1]->WorkLocal[5] *= 10*
     0x0130 [0x07] ExtData[1]->WorkLocal[5] += 140*
     0x0135 [0x1B] RETURN
     0x0136 [0x03] ExtData[1]->WorkLocal[5] = ExtData[1]->WorkLocal[4]
     0x013B [0x02] IF !(ExtData[1]->WorkLocal[5] > 5*) GOTO 0x014B
     0x0143 [0x08] ExtData[1]->WorkLocal[5] -= 1*
     0x0148 [0x01] GOTO 0x0150
     0x014B [0x08] ExtData[1]->WorkLocal[5] -= 2*
     0x0150 [0x14] ExtData[1]->WorkLocal[5] *= 10*
     0x0155 [0x07] ExtData[1]->WorkLocal[5] += 210*
     0x015A [0x1B] RETURN
```

### Event 65535.9

#### Metadata

| Field        | Value    |
|--------------|----------|
| Entrypoint   | 0x015B   |
| Data Size    | 34 bytes |
| Instructions | 8        |

```
      00 01 02 03 04 05 06 07  08 09 0A 0B 0C 0D 0E 0F
      -- -- -- -- -- -- -- --  -- -- -- -- -- -- -- --
0150:                                   32 02 80 1F 00             2....
0160: 0A 80 0B 80 0C 80 1F 01  1E 27 21 10 01 1C 0D 80  .........'!.....
0170: 6E F8 FF FF 7F 01 80 99  F8 FF FF 7F 00           n............   
```

#### Opcodes

```
  0: 0x015B [0x32] ExtData[1]->MainSpeed = 40* * 0.1
  1: 0x015E [0x1F] MOVE_ENTITY: EventEntity moves to X=-337.499*, Z=-331.495*, Y=-1.000*
  2: 0x0166 [0x1F] MOVE_ENTITY: Update entity position (mode=1)
  3: 0x0168 [0x1E] EventEntity looks at Ilney (ID: 17834279/0x01102127) and starts talking
  4: 0x016D [0x1C] WAIT(30* ticks)
  5: 0x0170 [0x6E] EventEntity uses emote 0*
  6: 0x0177 [0x99] Wait for EventEntity animation to complete
  7: 0x017C [0x00] END_REQSTACK()
```

### Event 65535.10

#### Metadata

| Field        | Value    |
|--------------|----------|
| Entrypoint   | 0x017D   |
| Data Size    | 19 bytes |
| Instructions | 5        |

```
      00 01 02 03 04 05 06 07  08 09 0A 0B 0C 0D 0E 0F
      -- -- -- -- -- -- -- --  -- -- -- -- -- -- -- --
0170:                                         32 0E 80               2..
0180: 1F 00 0F 80 10 80 11 80  1F 01 1E 6D 21 10 01 00  ...........m!...
```

#### Opcodes

```
  0: 0x017D [0x32] ExtData[1]->MainSpeed = 13* * 0.1
  1: 0x0180 [0x1F] MOVE_ENTITY: EventEntity moves to X=171.945*, Z=139.998*, Y=-5.765*
  2: 0x0188 [0x1F] MOVE_ENTITY: Update entity position (mode=1)
  3: 0x018A [0x1E] EventEntity looks at Arciela (ID: 17834349/0x0110216D) and starts talking
  4: 0x018F [0x00] END_REQSTACK()
```

### Event 65535.11

#### Metadata

| Field        | Value    |
|--------------|----------|
| Entrypoint   | 0x0190   |
| Data Size    | 14 bytes |
| Instructions | 4        |

```
      00 01 02 03 04 05 06 07  08 09 0A 0B 0C 0D 0E 0F
      -- -- -- -- -- -- -- --  -- -- -- -- -- -- -- --
0190: 32 0E 80 1F 00 12 80 13  80 11 80 1F 01 00        2.............  
```

#### Opcodes

```
  0: 0x0190 [0x32] ExtData[1]->MainSpeed = 13* * 0.1
  1: 0x0193 [0x1F] MOVE_ENTITY: EventEntity moves to X=178.778*, Z=133.939*, Y=-5.765*
  2: 0x019B [0x1F] MOVE_ENTITY: Update entity position (mode=1)
  3: 0x019D [0x00] END_REQSTACK()
```

### Event 65535.12

#### Metadata

| Field        | Value    |
|--------------|----------|
| Entrypoint   | 0x019E   |
| Data Size    | 19 bytes |
| Instructions | 5        |

```
      00 01 02 03 04 05 06 07  08 09 0A 0B 0C 0D 0E 0F
      -- -- -- -- -- -- -- --  -- -- -- -- -- -- -- --
0190:                                            32 0E                2.
01A0: 80 1F 00 14 80 15 80 11  80 1F 01 1E 7F 21 10 01  .............!..
01B0: 00                                                .               
```

#### Opcodes

```
  0: 0x019E [0x32] ExtData[1]->MainSpeed = 13* * 0.1
  1: 0x01A1 [0x1F] MOVE_ENTITY: EventEntity moves to X=-532.806*, Z=60.072*, Y=-5.765*
  2: 0x01A9 [0x1F] MOVE_ENTITY: Update entity position (mode=1)
  3: 0x01AB [0x1E] EventEntity looks at Unnamed NPC (ID: 17834367/0x0110217F) and starts talking
  4: 0x01B0 [0x00] END_REQSTACK()
```

### Event 65535.13

#### Metadata

| Field        | Value    |
|--------------|----------|
| Entrypoint   | 0x01B1   |
| Data Size    | 21 bytes |
| Instructions | 5        |

```
      00 01 02 03 04 05 06 07  08 09 0A 0B 0C 0D 0E 0F
      -- -- -- -- -- -- -- --  -- -- -- -- -- -- -- --
01B0:    32 0E 80 1F 00 0F 80  10 80 11 80 1F 01 4B F0   2............K.
01C0: FF FF 7F 16 80 00                                 ......          
```

#### Opcodes

```
  0: 0x01B1 [0x32] ExtData[1]->MainSpeed = 13* * 0.1
  1: 0x01B4 [0x1F] MOVE_ENTITY: EventEntity moves to X=171.945*, Z=139.998*, Y=-5.765*
  2: 0x01BC [0x1F] MOVE_ENTITY: Update entity position (mode=1)
  3: 0x01BE [0x4B] UPDATE_ENTITY_YAW(entity=LocalPlayer, yaw=3.2°*)
  4: 0x01C5 [0x00] END_REQSTACK()
```

### Event 65535.14

#### Metadata

| Field        | Value    |
|--------------|----------|
| Entrypoint   | 0x01C6   |
| Data Size    | 29 bytes |
| Instructions | 7        |

```
      00 01 02 03 04 05 06 07  08 09 0A 0B 0C 0D 0E 0F
      -- -- -- -- -- -- -- --  -- -- -- -- -- -- -- --
01C0:                   32 0E  80 1F 00 17 80 18 80 11        2.........
01D0: 80 1F 01 1F 00 19 80 1A  80 11 80 1F 01 1E 7C 21  ..............|!
01E0: 10 01 00                                          ...             
```

#### Opcodes

```
  0: 0x01C6 [0x32] ExtData[1]->MainSpeed = 13* * 0.1
  1: 0x01C9 [0x1F] MOVE_ENTITY: EventEntity moves to X=-537.019*, Z=58.977*, Y=-5.765*
  2: 0x01D1 [0x1F] MOVE_ENTITY: Update entity position (mode=1)
  3: 0x01D3 [0x1F] MOVE_ENTITY: EventEntity moves to X=-539.202*, Z=57.707*, Y=-5.765*
  4: 0x01DB [0x1F] MOVE_ENTITY: Update entity position (mode=1)
  5: 0x01DD [0x1E] EventEntity looks at Unnamed NPC (ID: 17834364/0x0110217C) and starts talking
  6: 0x01E2 [0x00] END_REQSTACK()
```

### Event 65535.15

#### Metadata

| Field        | Value    |
|--------------|----------|
| Entrypoint   | 0x01E3   |
| Data Size    | 14 bytes |
| Instructions | 4        |

```
      00 01 02 03 04 05 06 07  08 09 0A 0B 0C 0D 0E 0F
      -- -- -- -- -- -- -- --  -- -- -- -- -- -- -- --
01E0:          32 0E 80 1F 00  1B 80 1C 80 11 80 1F 01     2............
01F0: 00                                                .               
```

#### Opcodes

```
  0: 0x01E3 [0x32] ExtData[1]->MainSpeed = 13* * 0.1
  1: 0x01E6 [0x1F] MOVE_ENTITY: EventEntity moves to X=-547.020*, Z=58.805*, Y=-5.765*
  2: 0x01EE [0x1F] MOVE_ENTITY: Update entity position (mode=1)
  3: 0x01F0 [0x00] END_REQSTACK()
```

### Event 65535.16

#### Metadata

| Field        | Value    |
|--------------|----------|
| Entrypoint   | 0x01F1   |
| Data Size    | 19 bytes |
| Instructions | 5        |

```
      00 01 02 03 04 05 06 07  08 09 0A 0B 0C 0D 0E 0F
      -- -- -- -- -- -- -- --  -- -- -- -- -- -- -- --
01F0:    32 0E 80 1F 00 1D 80  1E 80 11 80 1F 01 1E 7B   2.............{
0200: 21 10 01 00                                       !...            
```

#### Opcodes

```
  0: 0x01F1 [0x32] ExtData[1]->MainSpeed = 13* * 0.1
  1: 0x01F4 [0x1F] MOVE_ENTITY: EventEntity moves to X=-124.937*, Z=-364.225*, Y=-5.765*
  2: 0x01FC [0x1F] MOVE_ENTITY: Update entity position (mode=1)
  3: 0x01FE [0x1E] EventEntity looks at Unnamed NPC (ID: 17834363/0x0110217B) and starts talking
  4: 0x0203 [0x00] END_REQSTACK()
```

### Event 65535.17

#### Metadata

| Field        | Value    |
|--------------|----------|
| Entrypoint   | 0x0204   |
| Data Size    | 14 bytes |
| Instructions | 4        |

```
      00 01 02 03 04 05 06 07  08 09 0A 0B 0C 0D 0E 0F
      -- -- -- -- -- -- -- --  -- -- -- -- -- -- -- --
0200:             32 02 80 1F  00 1F 80 20 80 21 80 1F      2...... .!..
0210: 01 00                                             ..              
```

#### Opcodes

```
  0: 0x0204 [0x32] ExtData[1]->MainSpeed = 40* * 0.1
  1: 0x0207 [0x1F] MOVE_ENTITY: EventEntity moves to X=324.787*, Z=-398.989*, Y=-12.511*
  2: 0x020F [0x1F] MOVE_ENTITY: Update entity position (mode=1)
  3: 0x0211 [0x00] END_REQSTACK()
```

### Event 65535.18

#### Metadata

| Field        | Value    |
|--------------|----------|
| Entrypoint   | 0x0212   |
| Data Size    | 14 bytes |
| Instructions | 4        |

```
      00 01 02 03 04 05 06 07  08 09 0A 0B 0C 0D 0E 0F
      -- -- -- -- -- -- -- --  -- -- -- -- -- -- -- --
0210:       32 02 80 1F 00 22  80 23 80 21 80 1F 01 00    2....".#.!....
```

#### Opcodes

```
  0: 0x0212 [0x32] ExtData[1]->MainSpeed = 40* * 0.1
  1: 0x0215 [0x1F] MOVE_ENTITY: EventEntity moves to X=331.472*, Z=-407.847*, Y=-12.511*
  2: 0x021D [0x1F] MOVE_ENTITY: Update entity position (mode=1)
  3: 0x021F [0x00] END_REQSTACK()
```

### Event 65535.19

#### Metadata

| Field        | Value    |
|--------------|----------|
| Entrypoint   | 0x0220   |
| Data Size    | 29 bytes |
| Instructions | 9        |

```
      00 01 02 03 04 05 06 07  08 09 0A 0B 0C 0D 0E 0F
      -- -- -- -- -- -- -- --  -- -- -- -- -- -- -- --
0220: 32 24 80 1F 00 25 80 26  80 11 80 1F 01 6F 1E 6A  2$...%.&.....o.j
0230: 21 10 01 6F 76 F8 FF FF  7F 1C 0D 80 00           !..ov........   
```

#### Opcodes

```
  0: 0x0220 [0x32] ExtData[1]->MainSpeed = 11* * 0.1
  1: 0x0223 [0x1F] MOVE_ENTITY: EventEntity moves to X=-556.974*, Z=59.880*, Y=-5.765*
  2: 0x022B [0x1F] MOVE_ENTITY: Update entity position (mode=1)
  3: 0x022D [0x6F] WAIT_FRAME_DELAY: Yield until WaitTime reaches zero
  4: 0x022E [0x1E] EventEntity looks at Sluice Gate (ID: 17834346/0x0110216A) and starts talking
  5: 0x0233 [0x6F] WAIT_FRAME_DELAY: Yield until WaitTime reaches zero
  6: 0x0234 [0x76] CHECK_ENTITY_RENDER_FLAGS: Wait until EventEntity Render.Flags0 and Render.Flags3 conditions are met
  7: 0x0239 [0x1C] WAIT(30* ticks)
  8: 0x023C [0x00] END_REQSTACK()
```

### Event 65535.20

#### Metadata

| Field        | Value    |
|--------------|----------|
| Entrypoint   | 0x023D   |
| Data Size    | 14 bytes |
| Instructions | 4        |

```
      00 01 02 03 04 05 06 07  08 09 0A 0B 0C 0D 0E 0F
      -- -- -- -- -- -- -- --  -- -- -- -- -- -- -- --
0230:                                         32 02 80               2..
0240: 1F 00 27 80 28 80 0C 80  1F 01 00                 ..'.(......     
```

#### Opcodes

```
  0: 0x023D [0x32] ExtData[1]->MainSpeed = 40* * 0.1
  1: 0x0240 [0x1F] MOVE_ENTITY: EventEntity moves to X=-310.252*, Z=-321.357*, Y=-1.000*
  2: 0x0248 [0x1F] MOVE_ENTITY: Update entity position (mode=1)
  3: 0x024A [0x00] END_REQSTACK()
```

### Event 65535.21

#### Metadata

| Field        | Value    |
|--------------|----------|
| Entrypoint   | 0x024B   |
| Data Size    | 14 bytes |
| Instructions | 4        |

```
      00 01 02 03 04 05 06 07  08 09 0A 0B 0C 0D 0E 0F
      -- -- -- -- -- -- -- --  -- -- -- -- -- -- -- --
0240:                                   32 0E 80 1F 00             2....
0250: 29 80 2A 80 2B 80 1F 01  00                       ).*.+....       
```

#### Opcodes

```
  0: 0x024B [0x32] ExtData[1]->MainSpeed = 13* * 0.1
  1: 0x024E [0x1F] MOVE_ENTITY: EventEntity moves to X=333.506*, Z=-299.282*, Y=-7.203*
  2: 0x0256 [0x1F] MOVE_ENTITY: Update entity position (mode=1)
  3: 0x0258 [0x00] END_REQSTACK()
```

### Event 65535.22

#### Metadata

| Field        | Value    |
|--------------|----------|
| Entrypoint   | 0x0259   |
| Data Size    | 23 bytes |
| Instructions | 5        |

```
      00 01 02 03 04 05 06 07  08 09 0A 0B 0C 0D 0E 0F
      -- -- -- -- -- -- -- --  -- -- -- -- -- -- -- --
0250:                             32 0E 80 1F 00 2C 80           2....,.
0260: 2D 80 21 80 1F 01 4A F0  FF FF 7F 73 21 10 01 00  -.!...J....s!...
```

#### Opcodes

```
  0: 0x0259 [0x32] ExtData[1]->MainSpeed = 13* * 0.1
  1: 0x025C [0x1F] MOVE_ENTITY: EventEntity moves to X=359.956*, Z=-403.332*, Y=-12.511*
  2: 0x0264 [0x1F] MOVE_ENTITY: Update entity position (mode=1)
  3: 0x0266 [0x4A] LocalPlayer looks at Unnamed NPC (ID: 17834355/0x01102173)
  4: 0x026F [0x00] END_REQSTACK()
```

### Event 65535.23

#### Metadata

| Field        | Value    |
|--------------|----------|
| Entrypoint   | 0x0270   |
| Data Size    | 14 bytes |
| Instructions | 4        |

```
      00 01 02 03 04 05 06 07  08 09 0A 0B 0C 0D 0E 0F
      -- -- -- -- -- -- -- --  -- -- -- -- -- -- -- --
0270: 32 0E 80 1F 00 2E 80 2F  80 11 80 1F 01 00        2....../......  
```

#### Opcodes

```
  0: 0x0270 [0x32] ExtData[1]->MainSpeed = 13* * 0.1
  1: 0x0273 [0x1F] MOVE_ENTITY: EventEntity moves to X=-347.063*, Z=-300.751*, Y=-5.765*
  2: 0x027B [0x1F] MOVE_ENTITY: Update entity position (mode=1)
  3: 0x027D [0x00] END_REQSTACK()
```

### Event 65535.24

#### Metadata

| Field        | Value    |
|--------------|----------|
| Entrypoint   | 0x027E   |
| Data Size    | 14 bytes |
| Instructions | 4        |

```
      00 01 02 03 04 05 06 07  08 09 0A 0B 0C 0D 0E 0F
      -- -- -- -- -- -- -- --  -- -- -- -- -- -- -- --
0270:                                            32 0E                2.
0280: 80 1F 00 30 80 31 80 11  80 1F 01 00              ...0.1......    
```

#### Opcodes

```
  0: 0x027E [0x32] ExtData[1]->MainSpeed = 13* * 0.1
  1: 0x0281 [0x1F] MOVE_ENTITY: EventEntity moves to X=-353.220*, Z=-300.782*, Y=-5.765*
  2: 0x0289 [0x1F] MOVE_ENTITY: Update entity position (mode=1)
  3: 0x028B [0x00] END_REQSTACK()
```

### Event 65535.25

#### Metadata

| Field        | Value    |
|--------------|----------|
| Entrypoint   | 0x028C   |
| Data Size    | 14 bytes |
| Instructions | 4        |

```
      00 01 02 03 04 05 06 07  08 09 0A 0B 0C 0D 0E 0F
      -- -- -- -- -- -- -- --  -- -- -- -- -- -- -- --
0280:                                      32 02 80 1F              2...
0290: 00 30 80 31 80 11 80 1F  01 00                    .0.1......      
```

#### Opcodes

```
  0: 0x028C [0x32] ExtData[1]->MainSpeed = 40* * 0.1
  1: 0x028F [0x1F] MOVE_ENTITY: EventEntity moves to X=-353.220*, Z=-300.782*, Y=-5.765*
  2: 0x0297 [0x1F] MOVE_ENTITY: Update entity position (mode=1)
  3: 0x0299 [0x00] END_REQSTACK()
```

### Event 65535.26

#### Metadata

| Field        | Value    |
|--------------|----------|
| Entrypoint   | 0x029A   |
| Data Size    | 14 bytes |
| Instructions | 4        |

```
      00 01 02 03 04 05 06 07  08 09 0A 0B 0C 0D 0E 0F
      -- -- -- -- -- -- -- --  -- -- -- -- -- -- -- --
0290:                                32 32 80 1F 00 30            22...0
02A0: 80 31 80 11 80 1F 01 00                           .1......        
```

#### Opcodes

```
  0: 0x029A [0x32] ExtData[1]->MainSpeed = 80* * 0.1
  1: 0x029D [0x1F] MOVE_ENTITY: EventEntity moves to X=-353.220*, Z=-300.782*, Y=-5.765*
  2: 0x02A5 [0x1F] MOVE_ENTITY: Update entity position (mode=1)
  3: 0x02A7 [0x00] END_REQSTACK()
```

### Event 65535.27

#### Metadata

| Field        | Value    |
|--------------|----------|
| Entrypoint   | 0x02A8   |
| Data Size    | 24 bytes |
| Instructions | 4        |

```
      00 01 02 03 04 05 06 07  08 09 0A 0B 0C 0D 0E 0F
      -- -- -- -- -- -- -- --  -- -- -- -- -- -- -- --
02A0:                          03 04 00 07 7F 1A C7 00          ........
02B0: 66 05 00 F8 FF FF 7F F8  FF FF 7F 74 6C 6B 30 00  f..........tlk0.
```

#### Opcodes

```
  0: 0x02A8 [0x03] ExtData[1]->WorkLocal[4] = Entity->Race
  1: 0x02AD [0x1A] CALL_SUBROUTINE(address=0x00C7)
  2: 0x02B0 [0x66] LOAD_EXT_SCHEDULER_MAIN: Load scheduler "tlk0" with entities [EventEntity, EventEntity], work=ExtData[1]->WorkLocal[5]
  3: 0x02BF [0x00] END_REQSTACK()
```

### Event 65535.28

#### Metadata

| Field        | Value    |
|--------------|----------|
| Entrypoint   | 0x02C0   |
| Data Size    | 24 bytes |
| Instructions | 4        |

```
      00 01 02 03 04 05 06 07  08 09 0A 0B 0C 0D 0E 0F
      -- -- -- -- -- -- -- --  -- -- -- -- -- -- -- --
02C0: 03 04 00 07 7F 1A C7 00  66 05 00 F8 FF FF 7F F8  ........f.......
02D0: FF FF 7F 74 6C 6B 31 00                           ...tlk1.        
```

#### Opcodes

```
  0: 0x02C0 [0x03] ExtData[1]->WorkLocal[4] = Entity->Race
  1: 0x02C5 [0x1A] CALL_SUBROUTINE(address=0x00C7)
  2: 0x02C8 [0x66] LOAD_EXT_SCHEDULER_MAIN: Load scheduler "tlk1" with entities [EventEntity, EventEntity], work=ExtData[1]->WorkLocal[5]
  3: 0x02D7 [0x00] END_REQSTACK()
```

### Event 65535.29

#### Metadata

| Field        | Value    |
|--------------|----------|
| Entrypoint   | 0x02D8   |
| Data Size    | 38 bytes |
| Instructions | 5        |

```
      00 01 02 03 04 05 06 07  08 09 0A 0B 0C 0D 0E 0F
      -- -- -- -- -- -- -- --  -- -- -- -- -- -- -- --
02D0:                          22 00 2F 00 F8 FF FF 7F          "./.....
02E0: B6 0B 33 80 34 80 35 80  36 80 37 80 37 80 37 80  ..3.4.5.6.7.7.7.
02F0: 38 80 39 80 6C F8 FF FF  7F 3A 80 00 80 00        8.9.l....:....  
```

#### Opcodes

```
  0: 0x02D8 [0x22] ENTITY_HIDE_FLAG(enabled=0x00)
  1: 0x02DA [0x2F] EventEntity->Render.Flags0 &= ~0x80000 // Bit 19
  2: 0x02E0 [0xB6] ENTITY_APPEARANCE_HANDLER(case=Full entity look, race=8*, hair=7*, head=145*, body=79*, hands=76*, legs=76*, feet=76*, main=201*, sub=24*)
  3: 0x02F4 [0x6C] FADE_ENTITY_COLOR(entity_id=EventEntity, end_alpha=32*, fade_time=1*)
  4: 0x02FD [0x00] END_REQSTACK()
```

### Event 65535.30

#### Metadata

| Field        | Value    |
|--------------|----------|
| Entrypoint   | 0x02FE   |
| Data Size    | 38 bytes |
| Instructions | 5        |

```
      00 01 02 03 04 05 06 07  08 09 0A 0B 0C 0D 0E 0F
      -- -- -- -- -- -- -- --  -- -- -- -- -- -- -- --
02F0:                                            22 00                ".
0300: 2F 00 F8 FF FF 7F B6 0B  34 80 34 80 35 80 36 80  /.......4.4.5.6.
0310: 37 80 37 80 37 80 38 80  39 80 6C F8 FF FF 7F 3B  7.7.7.8.9.l....;
0320: 80 00 80 00                                       ....            
```

#### Opcodes

```
  0: 0x02FE [0x22] ENTITY_HIDE_FLAG(enabled=0x00)
  1: 0x0300 [0x2F] EventEntity->Render.Flags0 &= ~0x80000 // Bit 19
  2: 0x0306 [0xB6] ENTITY_APPEARANCE_HANDLER(case=Full entity look, race=7*, hair=7*, head=145*, body=79*, hands=76*, legs=76*, feet=76*, main=201*, sub=24*)
  3: 0x031A [0x6C] FADE_ENTITY_COLOR(entity_id=EventEntity, end_alpha=48*, fade_time=1*)
  4: 0x0323 [0x00] END_REQSTACK()
```

### Event 65535.31

#### Metadata

| Field        | Value    |
|--------------|----------|
| Entrypoint   | 0x0324   |
| Data Size    | 38 bytes |
| Instructions | 5        |

```
      00 01 02 03 04 05 06 07  08 09 0A 0B 0C 0D 0E 0F
      -- -- -- -- -- -- -- --  -- -- -- -- -- -- -- --
0320:             22 00 2F 00  F8 FF FF 7F B6 0B 03 80      "./.........
0330: 34 80 35 80 36 80 37 80  37 80 37 80 38 80 39 80  4.5.6.7.7.7.8.9.
0340: 6C F8 FF FF 7F 3C 80 00  80 00                    l....<....      
```

#### Opcodes

```
  0: 0x0324 [0x22] ENTITY_HIDE_FLAG(enabled=0x00)
  1: 0x0326 [0x2F] EventEntity->Render.Flags0 &= ~0x80000 // Bit 19
  2: 0x032C [0xB6] ENTITY_APPEARANCE_HANDLER(case=Full entity look, race=5*, hair=7*, head=145*, body=79*, hands=76*, legs=76*, feet=76*, main=201*, sub=24*)
  3: 0x0340 [0x6C] FADE_ENTITY_COLOR(entity_id=EventEntity, end_alpha=64*, fade_time=1*)
  4: 0x0349 [0x00] END_REQSTACK()
```

### Event 65535.32

#### Metadata

| Field        | Value    |
|--------------|----------|
| Entrypoint   | 0x034A   |
| Data Size    | 37 bytes |
| Instructions | 5        |

```
      00 01 02 03 04 05 06 07  08 09 0A 0B 0C 0D 0E 0F
      -- -- -- -- -- -- -- --  -- -- -- -- -- -- -- --
0340:                                03 04 00 07 7F 1A            ......
0350: C7 00 66 05 00 F8 FF FF  7F F8 FF FF 7F 73 69 74  ..f..........sit
0360: 30 53 F8 FF FF 7F F8 FF  FF 7F 73 69 74 30 00     0S........sit0. 
```

#### Opcodes

```
  0: 0x034A [0x03] ExtData[1]->WorkLocal[4] = Entity->Race
  1: 0x034F [0x1A] CALL_SUBROUTINE(address=0x00C7)
  2: 0x0352 [0x66] LOAD_EXT_SCHEDULER_MAIN: Load scheduler "sit0" with entities [EventEntity, EventEntity], work=ExtData[1]->WorkLocal[5]
  3: 0x0361 [0x53] WAIT_SCHEDULER_TASK: Wait for scheduler "sit0" with entities [EventEntity, EventEntity]
  4: 0x036E [0x00] END_REQSTACK()
```

### Event 65535.33

#### Metadata

| Field        | Value    |
|--------------|----------|
| Entrypoint   | 0x036F   |
| Data Size    | 37 bytes |
| Instructions | 5        |

```
      00 01 02 03 04 05 06 07  08 09 0A 0B 0C 0D 0E 0F
      -- -- -- -- -- -- -- --  -- -- -- -- -- -- -- --
0360:                                               03                 .
0370: 04 00 07 7F 1A C7 00 66  05 00 F8 FF FF 7F F8 FF  .......f........
0380: FF 7F 73 69 74 31 53 F8  FF FF 7F F8 FF FF 7F 73  ..sit1S........s
0390: 69 74 31 00                                       it1.            
```

#### Opcodes

```
  0: 0x036F [0x03] ExtData[1]->WorkLocal[4] = Entity->Race
  1: 0x0374 [0x1A] CALL_SUBROUTINE(address=0x00C7)
  2: 0x0377 [0x66] LOAD_EXT_SCHEDULER_MAIN: Load scheduler "sit1" with entities [EventEntity, EventEntity], work=ExtData[1]->WorkLocal[5]
  3: 0x0386 [0x53] WAIT_SCHEDULER_TASK: Wait for scheduler "sit1" with entities [EventEntity, EventEntity]
  4: 0x0393 [0x00] END_REQSTACK()
```

### Event 65535.34

#### Metadata

| Field        | Value    |
|--------------|----------|
| Entrypoint   | 0x0394   |
| Data Size    | 42 bytes |
| Instructions | 6        |

```
      00 01 02 03 04 05 06 07  08 09 0A 0B 0C 0D 0E 0F
      -- -- -- -- -- -- -- --  -- -- -- -- -- -- -- --
0390:             03 04 00 07  7F 1A C7 00 66 05 00 F8      ........f...
03A0: FF FF 7F F8 FF FF 7F 74  6C 6B 30 1C 3D 80 66 05  .......tlk0.=.f.
03B0: 00 F8 FF FF 7F F8 FF FF  7F 74 6C 6B 31 00        .........tlk1.  
```

#### Opcodes

```
  0: 0x0394 [0x03] ExtData[1]->WorkLocal[4] = Entity->Race
  1: 0x0399 [0x1A] CALL_SUBROUTINE(address=0x00C7)
  2: 0x039C [0x66] LOAD_EXT_SCHEDULER_MAIN: Load scheduler "tlk0" with entities [EventEntity, EventEntity], work=ExtData[1]->WorkLocal[5]
  3: 0x03AB [0x1C] WAIT(60* ticks)
  4: 0x03AE [0x66] LOAD_EXT_SCHEDULER_MAIN: Load scheduler "tlk1" with entities [EventEntity, EventEntity], work=ExtData[1]->WorkLocal[5]
  5: 0x03BD [0x00] END_REQSTACK()
```

### Event 65535.35

#### Metadata

| Field        | Value    |
|--------------|----------|
| Entrypoint   | 0x03BE   |
| Data Size    | 24 bytes |
| Instructions | 4        |

```
      00 01 02 03 04 05 06 07  08 09 0A 0B 0C 0D 0E 0F
      -- -- -- -- -- -- -- --  -- -- -- -- -- -- -- --
03B0:                                            03 04                ..
03C0: 00 07 7F 1A 11 01 66 05  00 F8 FF FF 7F F8 FF FF  ......f.........
03D0: 7F 6F 72 7A 30 00                                 .orz0.          
```

#### Opcodes

```
  0: 0x03BE [0x03] ExtData[1]->WorkLocal[4] = Entity->Race
  1: 0x03C3 [0x1A] CALL_SUBROUTINE(address=0x0111)
  2: 0x03C6 [0x66] LOAD_EXT_SCHEDULER_MAIN: Load scheduler "orz0" with entities [EventEntity, EventEntity], work=ExtData[1]->WorkLocal[5]
  3: 0x03D5 [0x00] END_REQSTACK()
```

### Event 65535.36

#### Metadata

| Field        | Value    |
|--------------|----------|
| Entrypoint   | 0x03D6   |
| Data Size    | 27 bytes |
| Instructions | 5        |

```
      00 01 02 03 04 05 06 07  08 09 0A 0B 0C 0D 0E 0F
      -- -- -- -- -- -- -- --  -- -- -- -- -- -- -- --
03D0:                   03 04  00 07 7F 1A EC 00 0B 05        ..........
03E0: 00 66 05 00 F8 FF FF 7F  F8 FF FF 7F 70 61 73 30  .f..........pas0
03F0: 00                                                .               
```

#### Opcodes

```
  0: 0x03D6 [0x03] ExtData[1]->WorkLocal[4] = Entity->Race
  1: 0x03DB [0x1A] CALL_SUBROUTINE(address=0x00EC)
  2: 0x03DE [0x0B] ExtData[1]->WorkLocal[5]++
  3: 0x03E1 [0x66] LOAD_EXT_SCHEDULER_MAIN: Load scheduler "pas0" with entities [EventEntity, EventEntity], work=ExtData[1]->WorkLocal[5]
  4: 0x03F0 [0x00] END_REQSTACK()
```

### Event 65535.37

#### Metadata

| Field        | Value    |
|--------------|----------|
| Entrypoint   | 0x03F1   |
| Data Size    | 29 bytes |
| Instructions | 5        |

```
      00 01 02 03 04 05 06 07  08 09 0A 0B 0C 0D 0E 0F
      -- -- -- -- -- -- -- --  -- -- -- -- -- -- -- --
03F0:    03 04 00 07 7F 1A 11  01 07 05 00 00 80 66 05   .............f.
0400: 00 F8 FF FF 7F F8 FF FF  7F 6F 6F 75 30 00        .........oou0.  
```

#### Opcodes

```
  0: 0x03F1 [0x03] ExtData[1]->WorkLocal[4] = Entity->Race
  1: 0x03F6 [0x1A] CALL_SUBROUTINE(address=0x0111)
  2: 0x03F9 [0x07] ExtData[1]->WorkLocal[5] += 1*
  3: 0x03FE [0x66] LOAD_EXT_SCHEDULER_MAIN: Load scheduler "oou0" with entities [EventEntity, EventEntity], work=ExtData[1]->WorkLocal[5]
  4: 0x040D [0x00] END_REQSTACK()
```

### Event 65535.38

#### Metadata

| Field        | Value    |
|--------------|----------|
| Entrypoint   | 0x040E   |
| Data Size    | 29 bytes |
| Instructions | 5        |

```
      00 01 02 03 04 05 06 07  08 09 0A 0B 0C 0D 0E 0F
      -- -- -- -- -- -- -- --  -- -- -- -- -- -- -- --
0400:                                            03 04                ..
0410: 00 07 7F 1A 11 01 07 05  00 00 80 66 05 00 F8 FF  ...........f....
0420: FF 7F F8 FF FF 7F 6F 6F  75 32 00                 ......oou2.     
```

#### Opcodes

```
  0: 0x040E [0x03] ExtData[1]->WorkLocal[4] = Entity->Race
  1: 0x0413 [0x1A] CALL_SUBROUTINE(address=0x0111)
  2: 0x0416 [0x07] ExtData[1]->WorkLocal[5] += 1*
  3: 0x041B [0x66] LOAD_EXT_SCHEDULER_MAIN: Load scheduler "oou2" with entities [EventEntity, EventEntity], work=ExtData[1]->WorkLocal[5]
  4: 0x042A [0x00] END_REQSTACK()
```

### Event 65535.39

#### Metadata

| Field        | Value    |
|--------------|----------|
| Entrypoint   | 0x042B   |
| Data Size    | 24 bytes |
| Instructions | 4        |

```
      00 01 02 03 04 05 06 07  08 09 0A 0B 0C 0D 0E 0F
      -- -- -- -- -- -- -- --  -- -- -- -- -- -- -- --
0420:                                   03 04 00 07 7F             .....
0430: 1A 11 01 66 05 00 F8 FF  FF 7F F8 FF FF 7F 6D 61  ...f..........ma
0440: 62 30 00                                          b0.             
```

#### Opcodes

```
  0: 0x042B [0x03] ExtData[1]->WorkLocal[4] = Entity->Race
  1: 0x0430 [0x1A] CALL_SUBROUTINE(address=0x0111)
  2: 0x0433 [0x66] LOAD_EXT_SCHEDULER_MAIN: Load scheduler "mab0" with entities [EventEntity, EventEntity], work=ExtData[1]->WorkLocal[5]
  3: 0x0442 [0x00] END_REQSTACK()
```

### Event 65535.40

#### Metadata

| Field        | Value    |
|--------------|----------|
| Entrypoint   | 0x0443   |
| Data Size    | 24 bytes |
| Instructions | 4        |

```
      00 01 02 03 04 05 06 07  08 09 0A 0B 0C 0D 0E 0F
      -- -- -- -- -- -- -- --  -- -- -- -- -- -- -- --
0440:          03 04 00 07 7F  1A 11 01 66 05 00 F8 FF     ........f....
0450: FF 7F F8 FF FF 7F 6D 61  62 32 00                 ......mab2.     
```

#### Opcodes

```
  0: 0x0443 [0x03] ExtData[1]->WorkLocal[4] = Entity->Race
  1: 0x0448 [0x1A] CALL_SUBROUTINE(address=0x0111)
  2: 0x044B [0x66] LOAD_EXT_SCHEDULER_MAIN: Load scheduler "mab2" with entities [EventEntity, EventEntity], work=ExtData[1]->WorkLocal[5]
  3: 0x045A [0x00] END_REQSTACK()
```

### Event 65535.41

#### Metadata

| Field        | Value     |
|--------------|-----------|
| Entrypoint   | 0x045B    |
| Data Size    | 353 bytes |
| Instructions | 41        |

```
      00 01 02 03 04 05 06 07  08 09 0A 0B 0C 0D 0E 0F
      -- -- -- -- -- -- -- --  -- -- -- -- -- -- -- --
0450:                                   02 07 7F 00 80             .....
0460: 80 87 04 66 3E 80 F8 FF  FF 7F F8 FF FF 7F 74 6C  ...f>.........tl
0470: 6B 30 1C 3F 80 66 3E 80  F8 FF FF 7F F8 FF FF 7F  k0.?.f>.........
0480: 74 6C 6B 31 01 BB 05 02  07 7F 04 80 80 B3 04 66  tlk1...........f
0490: 40 80 F8 FF FF 7F F8 FF  FF 7F 74 6C 6B 30 1C 3F  @.........tlk0.?
04A0: 80 66 40 80 F8 FF FF 7F  F8 FF FF 7F 74 6C 6B 31  .f@.........tlk1
04B0: 01 BB 05 02 07 7F 41 80  80 DF 04 66 42 80 F8 FF  ......A....fB...
04C0: FF 7F F8 FF FF 7F 74 6C  6B 30 1C 3F 80 66 42 80  ......tlk0.?.fB.
04D0: F8 FF FF 7F F8 FF FF 7F  74 6C 6B 31 01 BB 05 02  ........tlk1....
04E0: 07 7F 43 80 80 0B 05 66  44 80 F8 FF FF 7F F8 FF  ..C....fD.......
04F0: FF 7F 74 6C 6B 30 1C 3F  80 66 44 80 F8 FF FF 7F  ..tlk0.?.fD.....
0500: F8 FF FF 7F 74 6C 6B 31  01 BB 05 02 07 7F 03 80  ....tlk1........
0510: 80 37 05 66 45 80 F8 FF  FF 7F F8 FF FF 7F 74 6C  .7.fE.........tl
0520: 6B 30 1C 3F 80 66 45 80  F8 FF FF 7F F8 FF FF 7F  k0.?.fE.........
0530: 74 6C 6B 31 01 BB 05 02  07 7F 46 80 80 63 05 66  tlk1......F..c.f
0540: 45 80 F8 FF FF 7F F8 FF  FF 7F 74 6C 6B 30 1C 3F  E.........tlk0.?
0550: 80 66 45 80 F8 FF FF 7F  F8 FF FF 7F 74 6C 6B 31  .fE.........tlk1
0560: 01 BB 05 02 07 7F 34 80  80 8F 05 66 47 80 F8 FF  ......4....fG...
0570: FF 7F F8 FF FF 7F 74 6C  6B 30 1C 3F 80 66 47 80  ......tlk0.?.fG.
0580: F8 FF FF 7F F8 FF FF 7F  74 6C 6B 31 01 BB 05 02  ........tlk1....
0590: 07 7F 33 80 80 BB 05 66  48 80 F8 FF FF 7F F8 FF  ..3....fH.......
05A0: FF 7F 74 6C 6B 30 1C 3F  80 66 48 80 F8 FF FF 7F  ..tlk0.?.fH.....
05B0: F8 FF FF 7F 74 6C 6B 31  01 BB 05 00              ....tlk1....    
```

#### Opcodes

```
  0: 0x045B [0x02] IF !(Entity->Race == 1*) GOTO 0x0487
  1: 0x0463 [0x66] LOAD_EXT_SCHEDULER_MAIN: Load scheduler "tlk0" with entities [EventEntity, EventEntity], work=149*
  2: 0x0472 [0x1C] WAIT(120* ticks)
  3: 0x0475 [0x66] LOAD_EXT_SCHEDULER_MAIN: Load scheduler "tlk1" with entities [EventEntity, EventEntity], work=149*
  4: 0x0484 [0x01] GOTO 0x05BB
  5: 0x0487 [0x02] IF !(Entity->Race == 2*) GOTO 0x04B3
  6: 0x048F [0x66] LOAD_EXT_SCHEDULER_MAIN: Load scheduler "tlk0" with entities [EventEntity, EventEntity], work=159*
  7: 0x049E [0x1C] WAIT(120* ticks)
  8: 0x04A1 [0x66] LOAD_EXT_SCHEDULER_MAIN: Load scheduler "tlk1" with entities [EventEntity, EventEntity], work=159*
  9: 0x04B0 [0x01] GOTO 0x05BB
 10: 0x04B3 [0x02] IF !(Entity->Race == 3*) GOTO 0x04DF
 11: 0x04BB [0x66] LOAD_EXT_SCHEDULER_MAIN: Load scheduler "tlk0" with entities [EventEntity, EventEntity], work=169*
 12: 0x04CA [0x1C] WAIT(120* ticks)
 13: 0x04CD [0x66] LOAD_EXT_SCHEDULER_MAIN: Load scheduler "tlk1" with entities [EventEntity, EventEntity], work=169*
 14: 0x04DC [0x01] GOTO 0x05BB
 15: 0x04DF [0x02] IF !(Entity->Race == 4*) GOTO 0x050B
 16: 0x04E7 [0x66] LOAD_EXT_SCHEDULER_MAIN: Load scheduler "tlk0" with entities [EventEntity, EventEntity], work=179*
 17: 0x04F6 [0x1C] WAIT(120* ticks)
 18: 0x04F9 [0x66] LOAD_EXT_SCHEDULER_MAIN: Load scheduler "tlk1" with entities [EventEntity, EventEntity], work=179*
 19: 0x0508 [0x01] GOTO 0x05BB
 20: 0x050B [0x02] IF !(Entity->Race == 5*) GOTO 0x0537
 21: 0x0513 [0x66] LOAD_EXT_SCHEDULER_MAIN: Load scheduler "tlk0" with entities [EventEntity, EventEntity], work=189*
 22: 0x0522 [0x1C] WAIT(120* ticks)
 23: 0x0525 [0x66] LOAD_EXT_SCHEDULER_MAIN: Load scheduler "tlk1" with entities [EventEntity, EventEntity], work=189*
 24: 0x0534 [0x01] GOTO 0x05BB
 25: 0x0537 [0x02] IF !(Entity->Race == 6*) GOTO 0x0563
 26: 0x053F [0x66] LOAD_EXT_SCHEDULER_MAIN: Load scheduler "tlk0" with entities [EventEntity, EventEntity], work=189*
 27: 0x054E [0x1C] WAIT(120* ticks)
 28: 0x0551 [0x66] LOAD_EXT_SCHEDULER_MAIN: Load scheduler "tlk1" with entities [EventEntity, EventEntity], work=189*
 29: 0x0560 [0x01] GOTO 0x05BB
 30: 0x0563 [0x02] IF !(Entity->Race == 7*) GOTO 0x058F
 31: 0x056B [0x66] LOAD_EXT_SCHEDULER_MAIN: Load scheduler "tlk0" with entities [EventEntity, EventEntity], work=199*
 32: 0x057A [0x1C] WAIT(120* ticks)
 33: 0x057D [0x66] LOAD_EXT_SCHEDULER_MAIN: Load scheduler "tlk1" with entities [EventEntity, EventEntity], work=199*
 34: 0x058C [0x01] GOTO 0x05BB
 35: 0x058F [0x02] IF !(Entity->Race == 8*) GOTO 0x05BB
 36: 0x0597 [0x66] LOAD_EXT_SCHEDULER_MAIN: Load scheduler "tlk0" with entities [EventEntity, EventEntity], work=209*
 37: 0x05A6 [0x1C] WAIT(120* ticks)
 38: 0x05A9 [0x66] LOAD_EXT_SCHEDULER_MAIN: Load scheduler "tlk1" with entities [EventEntity, EventEntity], work=209*
 39: 0x05B8 [0x01] GOTO 0x05BB

SUBROUTINE_05BB:
 40: 0x05BB [0x00] END_REQSTACK()
```

### Event 65535.42

#### Metadata

| Field        | Value     |
|--------------|-----------|
| Entrypoint   | 0x05BC    |
| Data Size    | 222 bytes |
| Instructions | 26        |

```
      00 01 02 03 04 05 06 07  08 09 0A 0B 0C 0D 0E 0F
      -- -- -- -- -- -- -- --  -- -- -- -- -- -- -- --
05B0:                                      02 07 7F 00              ....
05C0: 80 80 D6 05 66 06 80 F8  FF FF 7F F8 FF FF 7F 73  ....f..........s
05D0: 68 61 30 01 8C 06 02 07  7F 04 80 80 F0 05 66 49  ha0...........fI
05E0: 80 F8 FF FF 7F F8 FF FF  7F 73 68 61 30 01 8C 06  .........sha0...
05F0: 02 07 7F 41 80 80 0A 06  66 4A 80 F8 FF FF 7F F8  ...A....fJ......
0600: FF FF 7F 73 68 61 30 01  8C 06 02 07 7F 43 80 80  ...sha0......C..
0610: 24 06 66 4B 80 F8 FF FF  7F F8 FF FF 7F 73 68 61  $.fK.........sha
0620: 30 01 8C 06 02 07 7F 03  80 80 3E 06 66 4C 80 F8  0.........>.fL..
0630: FF FF 7F F8 FF FF 7F 73  68 61 30 01 8C 06 02 07  .......sha0.....
0640: 7F 46 80 80 58 06 66 4C  80 F8 FF FF 7F F8 FF FF  .F..X.fL........
0650: 7F 73 68 61 30 01 8C 06  02 07 7F 34 80 80 72 06  .sha0......4..r.
0660: 66 4D 80 F8 FF FF 7F F8  FF FF 7F 73 68 61 30 01  fM.........sha0.
0670: 8C 06 02 07 7F 33 80 80  8C 06 66 4E 80 F8 FF FF  .....3....fN....
0680: 7F F8 FF FF 7F 73 68 61  30 01 8C 06 53 F8 FF FF  .....sha0...S...
0690: 7F F8 FF FF 7F 73 68 61  30 00                    .....sha0.      
```

#### Opcodes

```
  0: 0x05BC [0x02] IF !(Entity->Race == 1*) GOTO 0x05D6
  1: 0x05C4 [0x66] LOAD_EXT_SCHEDULER_MAIN: Load scheduler "sha0" with entities [EventEntity, EventEntity], work=9*
  2: 0x05D3 [0x01] GOTO 0x068C
  3: 0x05D6 [0x02] IF !(Entity->Race == 2*) GOTO 0x05F0
  4: 0x05DE [0x66] LOAD_EXT_SCHEDULER_MAIN: Load scheduler "sha0" with entities [EventEntity, EventEntity], work=19*
  5: 0x05ED [0x01] GOTO 0x068C
  6: 0x05F0 [0x02] IF !(Entity->Race == 3*) GOTO 0x060A
  7: 0x05F8 [0x66] LOAD_EXT_SCHEDULER_MAIN: Load scheduler "sha0" with entities [EventEntity, EventEntity], work=29*
  8: 0x0607 [0x01] GOTO 0x068C
  9: 0x060A [0x02] IF !(Entity->Race == 4*) GOTO 0x0624
 10: 0x0612 [0x66] LOAD_EXT_SCHEDULER_MAIN: Load scheduler "sha0" with entities [EventEntity, EventEntity], work=39*
 11: 0x0621 [0x01] GOTO 0x068C
 12: 0x0624 [0x02] IF !(Entity->Race == 5*) GOTO 0x063E
 13: 0x062C [0x66] LOAD_EXT_SCHEDULER_MAIN: Load scheduler "sha0" with entities [EventEntity, EventEntity], work=49*
 14: 0x063B [0x01] GOTO 0x068C
 15: 0x063E [0x02] IF !(Entity->Race == 6*) GOTO 0x0658
 16: 0x0646 [0x66] LOAD_EXT_SCHEDULER_MAIN: Load scheduler "sha0" with entities [EventEntity, EventEntity], work=49*
 17: 0x0655 [0x01] GOTO 0x068C
 18: 0x0658 [0x02] IF !(Entity->Race == 7*) GOTO 0x0672
 19: 0x0660 [0x66] LOAD_EXT_SCHEDULER_MAIN: Load scheduler "sha0" with entities [EventEntity, EventEntity], work=59*
 20: 0x066F [0x01] GOTO 0x068C
 21: 0x0672 [0x02] IF !(Entity->Race == 8*) GOTO 0x068C
 22: 0x067A [0x66] LOAD_EXT_SCHEDULER_MAIN: Load scheduler "sha0" with entities [EventEntity, EventEntity], work=69*
 23: 0x0689 [0x01] GOTO 0x068C

SUBROUTINE_068C:
 24: 0x068C [0x53] WAIT_SCHEDULER_TASK: Wait for scheduler "sha0" with entities [EventEntity, EventEntity]
 25: 0x0699 [0x00] END_REQSTACK()
```

### Event 65535.43

#### Metadata

| Field        | Value     |
|--------------|-----------|
| Entrypoint   | 0x069A    |
| Data Size    | 222 bytes |
| Instructions | 26        |

```
      00 01 02 03 04 05 06 07  08 09 0A 0B 0C 0D 0E 0F
      -- -- -- -- -- -- -- --  -- -- -- -- -- -- -- --
0690:                                02 07 7F 00 80 80            ......
06A0: B4 06 66 06 80 F8 FF FF  7F F8 FF FF 7F 73 68 61  ..f..........sha
06B0: 31 01 6A 07 02 07 7F 04  80 80 CE 06 66 49 80 F8  1.j.........fI..
06C0: FF FF 7F F8 FF FF 7F 73  68 61 31 01 6A 07 02 07  .......sha1.j...
06D0: 7F 41 80 80 E8 06 66 4A  80 F8 FF FF 7F F8 FF FF  .A....fJ........
06E0: 7F 73 68 61 31 01 6A 07  02 07 7F 43 80 80 02 07  .sha1.j....C....
06F0: 66 4B 80 F8 FF FF 7F F8  FF FF 7F 73 68 61 31 01  fK.........sha1.
0700: 6A 07 02 07 7F 03 80 80  1C 07 66 4C 80 F8 FF FF  j.........fL....
0710: 7F F8 FF FF 7F 73 68 61  31 01 6A 07 02 07 7F 46  .....sha1.j....F
0720: 80 80 36 07 66 4C 80 F8  FF FF 7F F8 FF FF 7F 73  ..6.fL.........s
0730: 68 61 31 01 6A 07 02 07  7F 34 80 80 50 07 66 4D  ha1.j....4..P.fM
0740: 80 F8 FF FF 7F F8 FF FF  7F 73 68 61 31 01 6A 07  .........sha1.j.
0750: 02 07 7F 33 80 80 6A 07  66 4E 80 F8 FF FF 7F F8  ...3..j.fN......
0760: FF FF 7F 73 68 61 31 01  6A 07 53 F8 FF FF 7F F8  ...sha1.j.S.....
0770: FF FF 7F 73 68 61 31 00                           ...sha1.        
```

#### Opcodes

```
  0: 0x069A [0x02] IF !(Entity->Race == 1*) GOTO 0x06B4
  1: 0x06A2 [0x66] LOAD_EXT_SCHEDULER_MAIN: Load scheduler "sha1" with entities [EventEntity, EventEntity], work=9*
  2: 0x06B1 [0x01] GOTO 0x076A
  3: 0x06B4 [0x02] IF !(Entity->Race == 2*) GOTO 0x06CE
  4: 0x06BC [0x66] LOAD_EXT_SCHEDULER_MAIN: Load scheduler "sha1" with entities [EventEntity, EventEntity], work=19*
  5: 0x06CB [0x01] GOTO 0x076A
  6: 0x06CE [0x02] IF !(Entity->Race == 3*) GOTO 0x06E8
  7: 0x06D6 [0x66] LOAD_EXT_SCHEDULER_MAIN: Load scheduler "sha1" with entities [EventEntity, EventEntity], work=29*
  8: 0x06E5 [0x01] GOTO 0x076A
  9: 0x06E8 [0x02] IF !(Entity->Race == 4*) GOTO 0x0702
 10: 0x06F0 [0x66] LOAD_EXT_SCHEDULER_MAIN: Load scheduler "sha1" with entities [EventEntity, EventEntity], work=39*
 11: 0x06FF [0x01] GOTO 0x076A
 12: 0x0702 [0x02] IF !(Entity->Race == 5*) GOTO 0x071C
 13: 0x070A [0x66] LOAD_EXT_SCHEDULER_MAIN: Load scheduler "sha1" with entities [EventEntity, EventEntity], work=49*
 14: 0x0719 [0x01] GOTO 0x076A
 15: 0x071C [0x02] IF !(Entity->Race == 6*) GOTO 0x0736
 16: 0x0724 [0x66] LOAD_EXT_SCHEDULER_MAIN: Load scheduler "sha1" with entities [EventEntity, EventEntity], work=49*
 17: 0x0733 [0x01] GOTO 0x076A
 18: 0x0736 [0x02] IF !(Entity->Race == 7*) GOTO 0x0750
 19: 0x073E [0x66] LOAD_EXT_SCHEDULER_MAIN: Load scheduler "sha1" with entities [EventEntity, EventEntity], work=59*
 20: 0x074D [0x01] GOTO 0x076A
 21: 0x0750 [0x02] IF !(Entity->Race == 8*) GOTO 0x076A
 22: 0x0758 [0x66] LOAD_EXT_SCHEDULER_MAIN: Load scheduler "sha1" with entities [EventEntity, EventEntity], work=69*
 23: 0x0767 [0x01] GOTO 0x076A

SUBROUTINE_076A:
 24: 0x076A [0x53] WAIT_SCHEDULER_TASK: Wait for scheduler "sha1" with entities [EventEntity, EventEntity]
 25: 0x0777 [0x00] END_REQSTACK()
```

### Event 65535.44

#### Metadata

| Field        | Value    |
|--------------|----------|
| Entrypoint   | 0x0778   |
| Data Size    | 14 bytes |
| Instructions | 4        |

```
      00 01 02 03 04 05 06 07  08 09 0A 0B 0C 0D 0E 0F
      -- -- -- -- -- -- -- --  -- -- -- -- -- -- -- --
0770:                          32 0E 80 1F 00 4F 80 50          2....O.P
0780: 80 51 80 1F 01 00                                 .Q....          
```

#### Opcodes

```
  0: 0x0778 [0x32] ExtData[1]->MainSpeed = 13* * 0.1
  1: 0x077B [0x1F] MOVE_ENTITY: EventEntity moves to X=327.000*, Z=-400.000*, Y=-12.510*
  2: 0x0783 [0x1F] MOVE_ENTITY: Update entity position (mode=1)
  3: 0x0785 [0x00] END_REQSTACK()
```

### Event 65535.45

#### Metadata

| Field        | Value    |
|--------------|----------|
| Entrypoint   | 0x0786   |
| Data Size    | 14 bytes |
| Instructions | 4        |

```
      00 01 02 03 04 05 06 07  08 09 0A 0B 0C 0D 0E 0F
      -- -- -- -- -- -- -- --  -- -- -- -- -- -- -- --
0780:                   32 0E  80 1F 00 52 80 50 80 51        2....R.P.Q
0790: 80 1F 01 00                                       ....            
```

#### Opcodes

```
  0: 0x0786 [0x32] ExtData[1]->MainSpeed = 13* * 0.1
  1: 0x0789 [0x1F] MOVE_ENTITY: EventEntity moves to X=360.000*, Z=-400.000*, Y=-12.510*
  2: 0x0791 [0x1F] MOVE_ENTITY: Update entity position (mode=1)
  3: 0x0793 [0x00] END_REQSTACK()
```

### Event 65535.46

#### Metadata

| Field        | Value    |
|--------------|----------|
| Entrypoint   | 0x0794   |
| Data Size    | 14 bytes |
| Instructions | 4        |

```
      00 01 02 03 04 05 06 07  08 09 0A 0B 0C 0D 0E 0F
      -- -- -- -- -- -- -- --  -- -- -- -- -- -- -- --
0790:             32 0E 80 1F  00 53 80 54 80 0C 80 1F      2....S.T....
07A0: 01 00                                             ..              
```

#### Opcodes

```
  0: 0x0794 [0x32] ExtData[1]->MainSpeed = 13* * 0.1
  1: 0x0797 [0x1F] MOVE_ENTITY: EventEntity moves to X=-321.700*, Z=-320.800*, Y=-1.000*
  2: 0x079F [0x1F] MOVE_ENTITY: Update entity position (mode=1)
  3: 0x07A1 [0x00] END_REQSTACK()
```

### Event 65535.47

#### Metadata

| Field        | Value   |
|--------------|---------|
| Entrypoint   | 0x07A2  |
| Data Size    | 5 bytes |
| Instructions | 2       |

```
      00 01 02 03 04 05 06 07  08 09 0A 0B 0C 0D 0E 0F
      -- -- -- -- -- -- -- --  -- -- -- -- -- -- -- --
07A0:       B6 0F 55 80 00                                ..U..         
```

#### Opcodes

```
  0: 0x07A2 [0xB6] ENTITY_APPEARANCE_HANDLER(case=Model size, value=87*)
  1: 0x07A6 [0x00] END_REQSTACK()
```

### Event 65535.48

#### Metadata

| Field        | Value   |
|--------------|---------|
| Entrypoint   | 0x07A7  |
| Data Size    | 5 bytes |
| Instructions | 2       |

```
      00 01 02 03 04 05 06 07  08 09 0A 0B 0C 0D 0E 0F
      -- -- -- -- -- -- -- --  -- -- -- -- -- -- -- --
07A0:                      B6  0F 56 80 00                     ..V..    
```

#### Opcodes

```
  0: 0x07A7 [0xB6] ENTITY_APPEARANCE_HANDLER(case=Model size, value=93*)
  1: 0x07AB [0x00] END_REQSTACK()
```

### Event 65535.49

#### Metadata

| Field        | Value   |
|--------------|---------|
| Entrypoint   | 0x07AC  |
| Data Size    | 5 bytes |
| Instructions | 2       |

```
      00 01 02 03 04 05 06 07  08 09 0A 0B 0C 0D 0E 0F
      -- -- -- -- -- -- -- --  -- -- -- -- -- -- -- --
07A0:                                      B6 0F 57 80              ..W.
07B0: 00                                                .               
```

#### Opcodes

```
  0: 0x07AC [0xB6] ENTITY_APPEARANCE_HANDLER(case=Model size, value=96*)
  1: 0x07B0 [0x00] END_REQSTACK()
```

### Event 65535.50

#### Metadata

| Field        | Value   |
|--------------|---------|
| Entrypoint   | 0x07B1  |
| Data Size    | 5 bytes |
| Instructions | 2       |

```
      00 01 02 03 04 05 06 07  08 09 0A 0B 0C 0D 0E 0F
      -- -- -- -- -- -- -- --  -- -- -- -- -- -- -- --
07B0:    B6 0F 58 80 00                                  ..X..          
```

#### Opcodes

```
  0: 0x07B1 [0xB6] ENTITY_APPEARANCE_HANDLER(case=Model size, value=100*)
  1: 0x07B5 [0x00] END_REQSTACK()
```

### Event 65535.51

#### Metadata

| Field        | Value     |
|--------------|-----------|
| Entrypoint   | 0x07B6    |
| Data Size    | 345 bytes |
| Instructions | 33        |

```
      00 01 02 03 04 05 06 07  08 09 0A 0B 0C 0D 0E 0F
      -- -- -- -- -- -- -- --  -- -- -- -- -- -- -- --
07B0:                   02 87  7F 00 80 80 E1 07 5F 04        ........_.
07C0: 59 80 F0 FF FF 7F F0 FF  FF 7F 6B 69 7A 30 5F 03  Y.........kiz0_.
07D0: 5A 80 86 21 10 01 86 21  10 01 68 6D 6D 30 01 0E  Z..!...!..hmm0..
07E0: 09 02 87 7F 04 80 80 0C  08 5F 04 5B 80 F0 FF FF  ........._.[....
07F0: 7F F0 FF FF 7F 6B 69 7A  30 5F 03 5A 80 86 21 10  .....kiz0_.Z..!.
0800: 01 86 21 10 01 68 66 6D  30 01 0E 09 02 87 7F 41  ..!..hfm0......A
0810: 80 80 37 08 5F 04 5C 80  F0 FF FF 7F F0 FF FF 7F  ..7._.\.........
0820: 6B 69 7A 30 5F 03 5A 80  86 21 10 01 86 21 10 01  kiz0_.Z..!...!..
0830: 65 6D 6D 30 01 0E 09 02  87 7F 43 80 80 62 08 5F  emm0......C..b._
0840: 04 5D 80 F0 FF FF 7F F0  FF FF 7F 6B 69 7A 30 5F  .].........kiz0_
0850: 03 5A 80 86 21 10 01 86  21 10 01 65 66 6D 30 01  .Z..!...!..efm0.
0860: 0E 09 02 87 7F 03 80 80  8D 08 5F 04 5E 80 F0 FF  .........._.^...
0870: FF 7F F0 FF FF 7F 6B 69  7A 30 5F 03 5A 80 86 21  ......kiz0_.Z..!
0880: 10 01 86 21 10 01 74 6D  61 30 01 0E 09 02 87 7F  ...!..tma0......
0890: 46 80 80 B8 08 5F 04 5E  80 F0 FF FF 7F F0 FF FF  F...._.^........
08A0: 7F 6B 69 7A 30 5F 03 5A  80 86 21 10 01 86 21 10  .kiz0_.Z..!...!.
08B0: 01 74 6D 61 30 01 0E 09  02 87 7F 34 80 80 E3 08  .tma0......4....
08C0: 5F 04 5F 80 F0 FF FF 7F  F0 FF FF 7F 6B 69 7A 30  _._.........kiz0
08D0: 5F 03 5A 80 86 21 10 01  86 21 10 01 6D 6D 61 30  _.Z..!...!..mma0
08E0: 01 0E 09 02 87 7F 33 80  80 0E 09 5F 04 38 80 F0  ......3...._.8..
08F0: FF FF 7F F0 FF FF 7F 6B  69 7A 30 5F 03 5A 80 86  .......kiz0_.Z..
0900: 21 10 01 86 21 10 01 67  6D 61 30 01 0E 09 00     !...!..gma0.... 
```

#### Opcodes

```
  0: 0x07B6 [0x02] IF !(LocalPlayer->Race == 1*) GOTO 0x07E1
  1: 0x07BE [0x5F] MULTI_HANDLER_COMPLEX(mode=0x04 - Load ext scheduler (OpCode 0x5B mode 1), ref=141*, entity1=LocalPlayer, entity2=LocalPlayer, string="kiz0")
  2: 0x07CE [0x5F] MULTI_HANDLER_COMPLEX(mode=0x03 - Load ext scheduler (OpCode 0x5B mode 0), ref=3878*, entity1=Unnamed NPC (ID: 17834374/0x01102186), entity2=Unnamed NPC (ID: 17834374/0x01102186), string="hmm0")
  3: 0x07DE [0x01] GOTO 0x090E
  4: 0x07E1 [0x02] IF !(LocalPlayer->Race == 2*) GOTO 0x080C
  5: 0x07E9 [0x5F] MULTI_HANDLER_COMPLEX(mode=0x04 - Load ext scheduler (OpCode 0x5B mode 1), ref=151*, entity1=LocalPlayer, entity2=LocalPlayer, string="kiz0")
  6: 0x07F9 [0x5F] MULTI_HANDLER_COMPLEX(mode=0x03 - Load ext scheduler (OpCode 0x5B mode 0), ref=3878*, entity1=Unnamed NPC (ID: 17834374/0x01102186), entity2=Unnamed NPC (ID: 17834374/0x01102186), string="hfm0")
  7: 0x0809 [0x01] GOTO 0x090E
  8: 0x080C [0x02] IF !(LocalPlayer->Race == 3*) GOTO 0x0837
  9: 0x0814 [0x5F] MULTI_HANDLER_COMPLEX(mode=0x04 - Load ext scheduler (OpCode 0x5B mode 1), ref=161*, entity1=LocalPlayer, entity2=LocalPlayer, string="kiz0")
 10: 0x0824 [0x5F] MULTI_HANDLER_COMPLEX(mode=0x03 - Load ext scheduler (OpCode 0x5B mode 0), ref=3878*, entity1=Unnamed NPC (ID: 17834374/0x01102186), entity2=Unnamed NPC (ID: 17834374/0x01102186), string="emm0")
 11: 0x0834 [0x01] GOTO 0x090E
 12: 0x0837 [0x02] IF !(LocalPlayer->Race == 4*) GOTO 0x0862
 13: 0x083F [0x5F] MULTI_HANDLER_COMPLEX(mode=0x04 - Load ext scheduler (OpCode 0x5B mode 1), ref=171*, entity1=LocalPlayer, entity2=LocalPlayer, string="kiz0")
 14: 0x084F [0x5F] MULTI_HANDLER_COMPLEX(mode=0x03 - Load ext scheduler (OpCode 0x5B mode 0), ref=3878*, entity1=Unnamed NPC (ID: 17834374/0x01102186), entity2=Unnamed NPC (ID: 17834374/0x01102186), string="efm0")
 15: 0x085F [0x01] GOTO 0x090E
 16: 0x0862 [0x02] IF !(LocalPlayer->Race == 5*) GOTO 0x088D
 17: 0x086A [0x5F] MULTI_HANDLER_COMPLEX(mode=0x04 - Load ext scheduler (OpCode 0x5B mode 1), ref=181*, entity1=LocalPlayer, entity2=LocalPlayer, string="kiz0")
 18: 0x087A [0x5F] MULTI_HANDLER_COMPLEX(mode=0x03 - Load ext scheduler (OpCode 0x5B mode 0), ref=3878*, entity1=Unnamed NPC (ID: 17834374/0x01102186), entity2=Unnamed NPC (ID: 17834374/0x01102186), string="tma0")
 19: 0x088A [0x01] GOTO 0x090E
 20: 0x088D [0x02] IF !(LocalPlayer->Race == 6*) GOTO 0x08B8
 21: 0x0895 [0x5F] MULTI_HANDLER_COMPLEX(mode=0x04 - Load ext scheduler (OpCode 0x5B mode 1), ref=181*, entity1=LocalPlayer, entity2=LocalPlayer, string="kiz0")
 22: 0x08A5 [0x5F] MULTI_HANDLER_COMPLEX(mode=0x03 - Load ext scheduler (OpCode 0x5B mode 0), ref=3878*, entity1=Unnamed NPC (ID: 17834374/0x01102186), entity2=Unnamed NPC (ID: 17834374/0x01102186), string="tma0")
 23: 0x08B5 [0x01] GOTO 0x090E
 24: 0x08B8 [0x02] IF !(LocalPlayer->Race == 7*) GOTO 0x08E3
 25: 0x08C0 [0x5F] MULTI_HANDLER_COMPLEX(mode=0x04 - Load ext scheduler (OpCode 0x5B mode 1), ref=191*, entity1=LocalPlayer, entity2=LocalPlayer, string="kiz0")
 26: 0x08D0 [0x5F] MULTI_HANDLER_COMPLEX(mode=0x03 - Load ext scheduler (OpCode 0x5B mode 0), ref=3878*, entity1=Unnamed NPC (ID: 17834374/0x01102186), entity2=Unnamed NPC (ID: 17834374/0x01102186), string="mma0")
 27: 0x08E0 [0x01] GOTO 0x090E
 28: 0x08E3 [0x02] IF !(LocalPlayer->Race == 8*) GOTO 0x090E
 29: 0x08EB [0x5F] MULTI_HANDLER_COMPLEX(mode=0x04 - Load ext scheduler (OpCode 0x5B mode 1), ref=201*, entity1=LocalPlayer, entity2=LocalPlayer, string="kiz0")
 30: 0x08FB [0x5F] MULTI_HANDLER_COMPLEX(mode=0x03 - Load ext scheduler (OpCode 0x5B mode 0), ref=3878*, entity1=Unnamed NPC (ID: 17834374/0x01102186), entity2=Unnamed NPC (ID: 17834374/0x01102186), string="gma0")
 31: 0x090B [0x01] GOTO 0x090E

SUBROUTINE_090E:
 32: 0x090E [0x00] END_REQSTACK()
```

### Event 65535.52

#### Metadata

| Field        | Value     |
|--------------|-----------|
| Entrypoint   | 0x090F    |
| Data Size    | 345 bytes |
| Instructions | 33        |

```
      00 01 02 03 04 05 06 07  08 09 0A 0B 0C 0D 0E 0F
      -- -- -- -- -- -- -- --  -- -- -- -- -- -- -- --
0900:                                               02                 .
0910: 87 7F 00 80 80 3A 09 5F  04 59 80 F0 FF FF 7F F0  .....:._.Y......
0920: FF FF 7F 6B 69 7A 31 5F  03 5A 80 86 21 10 01 86  ...kiz1_.Z..!...
0930: 21 10 01 68 6D 6D 31 01  67 0A 02 87 7F 04 80 80  !..hmm1.g.......
0940: 65 09 5F 04 5B 80 F0 FF  FF 7F F0 FF FF 7F 6B 69  e._.[.........ki
0950: 7A 31 5F 03 5A 80 86 21  10 01 86 21 10 01 68 66  z1_.Z..!...!..hf
0960: 6D 31 01 67 0A 02 87 7F  41 80 80 90 09 5F 04 5C  m1.g....A...._.\
0970: 80 F0 FF FF 7F F0 FF FF  7F 6B 69 7A 31 5F 03 5A  .........kiz1_.Z
0980: 80 86 21 10 01 86 21 10  01 65 6D 6D 31 01 67 0A  ..!...!..emm1.g.
0990: 02 87 7F 43 80 80 BB 09  5F 04 5D 80 F0 FF FF 7F  ...C...._.].....
09A0: F0 FF FF 7F 6B 69 7A 31  5F 03 5A 80 86 21 10 01  ....kiz1_.Z..!..
09B0: 86 21 10 01 65 66 6D 31  01 67 0A 02 87 7F 03 80  .!..efm1.g......
09C0: 80 E6 09 5F 04 5E 80 F0  FF FF 7F F0 FF FF 7F 6B  ..._.^.........k
09D0: 69 7A 31 5F 03 5A 80 86  21 10 01 86 21 10 01 74  iz1_.Z..!...!..t
09E0: 6D 61 31 01 67 0A 02 87  7F 46 80 80 11 0A 5F 04  ma1.g....F...._.
09F0: 5E 80 F0 FF FF 7F F0 FF  FF 7F 6B 69 7A 31 5F 03  ^.........kiz1_.
0A00: 5A 80 86 21 10 01 86 21  10 01 74 6D 61 31 01 67  Z..!...!..tma1.g
0A10: 0A 02 87 7F 34 80 80 3C  0A 5F 04 5F 80 F0 FF FF  ....4..<._._....
0A20: 7F F0 FF FF 7F 6B 69 7A  31 5F 03 5A 80 86 21 10  .....kiz1_.Z..!.
0A30: 01 86 21 10 01 6D 6D 61  31 01 67 0A 02 87 7F 33  ..!..mma1.g....3
0A40: 80 80 67 0A 5F 04 38 80  F0 FF FF 7F F0 FF FF 7F  ..g._.8.........
0A50: 6B 69 7A 31 5F 03 5A 80  86 21 10 01 86 21 10 01  kiz1_.Z..!...!..
0A60: 67 6D 61 31 01 67 0A 00                           gma1.g..        
```

#### Opcodes

```
  0: 0x090F [0x02] IF !(LocalPlayer->Race == 1*) GOTO 0x093A
  1: 0x0917 [0x5F] MULTI_HANDLER_COMPLEX(mode=0x04 - Load ext scheduler (OpCode 0x5B mode 1), ref=141*, entity1=LocalPlayer, entity2=LocalPlayer, string="kiz1")
  2: 0x0927 [0x5F] MULTI_HANDLER_COMPLEX(mode=0x03 - Load ext scheduler (OpCode 0x5B mode 0), ref=3878*, entity1=Unnamed NPC (ID: 17834374/0x01102186), entity2=Unnamed NPC (ID: 17834374/0x01102186), string="hmm1")
  3: 0x0937 [0x01] GOTO 0x0A67
  4: 0x093A [0x02] IF !(LocalPlayer->Race == 2*) GOTO 0x0965
  5: 0x0942 [0x5F] MULTI_HANDLER_COMPLEX(mode=0x04 - Load ext scheduler (OpCode 0x5B mode 1), ref=151*, entity1=LocalPlayer, entity2=LocalPlayer, string="kiz1")
  6: 0x0952 [0x5F] MULTI_HANDLER_COMPLEX(mode=0x03 - Load ext scheduler (OpCode 0x5B mode 0), ref=3878*, entity1=Unnamed NPC (ID: 17834374/0x01102186), entity2=Unnamed NPC (ID: 17834374/0x01102186), string="hfm1")
  7: 0x0962 [0x01] GOTO 0x0A67
  8: 0x0965 [0x02] IF !(LocalPlayer->Race == 3*) GOTO 0x0990
  9: 0x096D [0x5F] MULTI_HANDLER_COMPLEX(mode=0x04 - Load ext scheduler (OpCode 0x5B mode 1), ref=161*, entity1=LocalPlayer, entity2=LocalPlayer, string="kiz1")
 10: 0x097D [0x5F] MULTI_HANDLER_COMPLEX(mode=0x03 - Load ext scheduler (OpCode 0x5B mode 0), ref=3878*, entity1=Unnamed NPC (ID: 17834374/0x01102186), entity2=Unnamed NPC (ID: 17834374/0x01102186), string="emm1")
 11: 0x098D [0x01] GOTO 0x0A67
 12: 0x0990 [0x02] IF !(LocalPlayer->Race == 4*) GOTO 0x09BB
 13: 0x0998 [0x5F] MULTI_HANDLER_COMPLEX(mode=0x04 - Load ext scheduler (OpCode 0x5B mode 1), ref=171*, entity1=LocalPlayer, entity2=LocalPlayer, string="kiz1")
 14: 0x09A8 [0x5F] MULTI_HANDLER_COMPLEX(mode=0x03 - Load ext scheduler (OpCode 0x5B mode 0), ref=3878*, entity1=Unnamed NPC (ID: 17834374/0x01102186), entity2=Unnamed NPC (ID: 17834374/0x01102186), string="efm1")
 15: 0x09B8 [0x01] GOTO 0x0A67
 16: 0x09BB [0x02] IF !(LocalPlayer->Race == 5*) GOTO 0x09E6
 17: 0x09C3 [0x5F] MULTI_HANDLER_COMPLEX(mode=0x04 - Load ext scheduler (OpCode 0x5B mode 1), ref=181*, entity1=LocalPlayer, entity2=LocalPlayer, string="kiz1")
 18: 0x09D3 [0x5F] MULTI_HANDLER_COMPLEX(mode=0x03 - Load ext scheduler (OpCode 0x5B mode 0), ref=3878*, entity1=Unnamed NPC (ID: 17834374/0x01102186), entity2=Unnamed NPC (ID: 17834374/0x01102186), string="tma1")
 19: 0x09E3 [0x01] GOTO 0x0A67
 20: 0x09E6 [0x02] IF !(LocalPlayer->Race == 6*) GOTO 0x0A11
 21: 0x09EE [0x5F] MULTI_HANDLER_COMPLEX(mode=0x04 - Load ext scheduler (OpCode 0x5B mode 1), ref=181*, entity1=LocalPlayer, entity2=LocalPlayer, string="kiz1")
 22: 0x09FE [0x5F] MULTI_HANDLER_COMPLEX(mode=0x03 - Load ext scheduler (OpCode 0x5B mode 0), ref=3878*, entity1=Unnamed NPC (ID: 17834374/0x01102186), entity2=Unnamed NPC (ID: 17834374/0x01102186), string="tma1")
 23: 0x0A0E [0x01] GOTO 0x0A67
 24: 0x0A11 [0x02] IF !(LocalPlayer->Race == 7*) GOTO 0x0A3C
 25: 0x0A19 [0x5F] MULTI_HANDLER_COMPLEX(mode=0x04 - Load ext scheduler (OpCode 0x5B mode 1), ref=191*, entity1=LocalPlayer, entity2=LocalPlayer, string="kiz1")
 26: 0x0A29 [0x5F] MULTI_HANDLER_COMPLEX(mode=0x03 - Load ext scheduler (OpCode 0x5B mode 0), ref=3878*, entity1=Unnamed NPC (ID: 17834374/0x01102186), entity2=Unnamed NPC (ID: 17834374/0x01102186), string="mma1")
 27: 0x0A39 [0x01] GOTO 0x0A67
 28: 0x0A3C [0x02] IF !(LocalPlayer->Race == 8*) GOTO 0x0A67
 29: 0x0A44 [0x5F] MULTI_HANDLER_COMPLEX(mode=0x04 - Load ext scheduler (OpCode 0x5B mode 1), ref=201*, entity1=LocalPlayer, entity2=LocalPlayer, string="kiz1")
 30: 0x0A54 [0x5F] MULTI_HANDLER_COMPLEX(mode=0x03 - Load ext scheduler (OpCode 0x5B mode 0), ref=3878*, entity1=Unnamed NPC (ID: 17834374/0x01102186), entity2=Unnamed NPC (ID: 17834374/0x01102186), string="gma1")
 31: 0x0A64 [0x01] GOTO 0x0A67

SUBROUTINE_0A67:
 32: 0x0A67 [0x00] END_REQSTACK()
```

### Event 65535.53

#### Metadata

| Field        | Value    |
|--------------|----------|
| Entrypoint   | 0x0A68   |
| Data Size    | 14 bytes |
| Instructions | 4        |

```
      00 01 02 03 04 05 06 07  08 09 0A 0B 0C 0D 0E 0F
      -- -- -- -- -- -- -- --  -- -- -- -- -- -- -- --
0A60:                          32 0E 80 1F 00 60 80 61          2....`.a
0A70: 80 62 80 1F 01 00                                 .b....          
```

#### Opcodes

```
  0: 0x0A68 [0x32] ExtData[1]->MainSpeed = 13* * 0.1
  1: 0x0A6B [0x1F] MOVE_ENTITY: EventEntity moves to X=-581.068*, Z=18.826*, Y=-7.500*
  2: 0x0A73 [0x1F] MOVE_ENTITY: Update entity position (mode=1)
  3: 0x0A75 [0x00] END_REQSTACK()
```
