# Event 65535

## Metadata

| Field           | Value    |
|-----------------|----------|
| Event Index     | 25/27    |
| Offset          | 0x01C0   |
| Data Size       | 37 bytes |
| Calculated Size | 37 bytes |
| Instructions    | 9        |

```
      00 01 02 03 04 05 06 07  08 09 0A 0B 0C 0D 0E 0F
      -- -- -- -- -- -- -- --  -- -- -- -- -- -- -- --
01C0: 29 08 29 A0 0F 01 0B 1D  0B 80 23 29 08 29 A0 0F  ).).......#).)..
01D0: 01 0C 29 08 29 A0 0F 01  0D 1D 0C 80 23 29 08 29  ..).).......#).)
01E0: A0 0F 01 0E 00                                    .....           
```

## Opcodes

```
  0: 0x01C0 [0x29] REQ_SET_WAIT(priority=0x08, entity_id=Vah Keshura (ID: 17801257/0x010FA029), tag_num=0x0B)
  1: 0x01C7 [0x1D] PRINT_EVENT_MESSAGE(message_id=10206*)
    → "But there's no way even the finest chef could use one of those. They're way too dangerrrous!\u007F1\u0000\u0007"
  2: 0x01CA [0x23] WAIT_FOR_DIALOG_INTERACTION
  3: 0x01CB [0x29] REQ_SET_WAIT(priority=0x08, entity_id=Vah Keshura (ID: 17801257/0x010FA029), tag_num=0x0C)
  4: 0x01D2 [0x29] REQ_SET_WAIT(priority=0x08, entity_id=Vah Keshura (ID: 17801257/0x010FA029), tag_num=0x0D)
  5: 0x01D9 [0x1D] PRINT_EVENT_MESSAGE(message_id=10207*)
    → "But if you still want one anyway, you're going to have to go to the Temple of Uggalepih. They say that there's a kitchen there where an evil chef spends his days and nights sharrrpening his knives.\u007F1\u0000\u0007"
  6: 0x01DC [0x23] WAIT_FOR_DIALOG_INTERACTION
  7: 0x01DD [0x29] REQ_SET_WAIT(priority=0x08, entity_id=Vah Keshura (ID: 17801257/0x010FA029), tag_num=0x0E)
  8: 0x01E4 [0x00] END_REQSTACK()
```
