# Event 65535

## Metadata

| Field           | Value    |
|-----------------|----------|
| Event Index     | 24/27    |
| Offset          | 0x019B   |
| Data Size       | 37 bytes |
| Calculated Size | 37 bytes |
| Instructions    | 9        |

```
      00 01 02 03 04 05 06 07  08 09 0A 0B 0C 0D 0E 0F
      -- -- -- -- -- -- -- --  -- -- -- -- -- -- -- --
0190:                                   29 08 29 A0 0F             ).)..
01A0: 01 05 1D 09 80 23 29 08  29 A0 0F 01 06 29 08 29  .....#).)....).)
01B0: A0 0F 01 07 1D 0A 80 23  29 08 29 A0 0F 01 08 00  .......#).).....
```

## Opcodes

```
  0: 0x019B [0x29] REQ_SET_WAIT(priority=0x08, entity_id=Vah Keshura (ID: 17801257/0x010FA029), tag_num=0x05)
  1: 0x01A2 [0x1D] PRINT_EVENT_MESSAGE(message_id=10204*)
    → "You say you want a Tonberry knife?\u007F1\u0000\u0007"
  2: 0x01A5 [0x23] WAIT_FOR_DIALOG_INTERACTION
  3: 0x01A6 [0x29] REQ_SET_WAIT(priority=0x08, entity_id=Vah Keshura (ID: 17801257/0x010FA029), tag_num=0x06)
  4: 0x01AD [0x29] REQ_SET_WAIT(priority=0x08, entity_id=Vah Keshura (ID: 17801257/0x010FA029), tag_num=0x07)
  5: 0x01B4 [0x1D] PRINT_EVENT_MESSAGE(message_id=10205*)
    → "Hah-hah! I get it! You want to be a chef, and hearrrd that Tonberry knives are the best in Vana'diel, rrright?\u007F1\u0000\u0007"
  6: 0x01B7 [0x23] WAIT_FOR_DIALOG_INTERACTION
  7: 0x01B8 [0x29] REQ_SET_WAIT(priority=0x08, entity_id=Vah Keshura (ID: 17801257/0x010FA029), tag_num=0x08)
  8: 0x01BF [0x00] END_REQSTACK()
```
