# Event 10084

## Metadata

| Field           | Value    |
|-----------------|----------|
| Event Index     | 6/7      |
| Offset          | 0x002F   |
| Data Size       | 52 bytes |
| Calculated Size | 52 bytes |
| Instructions    | 12       |

```
      00 01 02 03 04 05 06 07  08 09 0A 0B 0C 0D 0E 0F
      -- -- -- -- -- -- -- --  -- -- -- -- -- -- -- --
0020:                                               42                 B
0030: 48 04 80 1E F0 FF FF 7F  1C 05 80 66 00 80 F8 FF  H..........f....
0040: FF 7F F8 FF FF 7F 74 6C  6B 30 1D 06 80 23 66 00  ......tlk0...#f.
0050: 80 F8 FF FF 7F F8 FF FF  7F 74 6C 6B 31 1D 07 80  .........tlk1...
0060: 23 21 00                                          #!.             
```

## Opcodes

```
  0: 0x002F [0x42] SET_CLI_EVENT_CANCEL_DATA()
  1: 0x0030 [0x48] [System] [11120*]:
    → "\u001F\u000F\u0008's badge flashes brightly.\u007F1\u0000\u0007"
  2: 0x0033 [0x1E] EventEntity looks at LocalPlayer and starts talking
  3: 0x0038 [0x1C] WAIT(30* ticks)
  4: 0x003B [0x66] LOAD_EXT_SCHEDULER_MAIN(work_offset=40*, entity1=EventEntity, entity2=EventEntity, action="tlk0")
  5: 0x004A [0x1D] PRINT_EVENT_MESSAGE(message_id=11123*)
    → "I'm a little surprised that there are so many adventurers in our nation who are set on becoming mercenaries.\u007F1\u0000\u0007"
  6: 0x004D [0x23] WAIT_FOR_DIALOG_INTERACTION
  7: 0x004E [0x66] LOAD_EXT_SCHEDULER_MAIN(work_offset=40*, entity1=EventEntity, entity2=EventEntity, action="tlk1")
  8: 0x005D [0x1D] PRINT_EVENT_MESSAGE(message_id=11124*)
    → "Have they forgotten the pain and fear they went through in the last war?\u007F1\u0000\u0007"
  9: 0x0060 [0x23] WAIT_FOR_DIALOG_INTERACTION
 10: 0x0061 [0x21] END_EVENT
 11: 0x0062 [0x00] END_REQSTACK()
```
