# Event 65535

## Metadata

| Field           | Value    |
|-----------------|----------|
| Event Index     | 24/34    |
| Offset          | 0x0328   |
| Data Size       | 49 bytes |
| Calculated Size | 49 bytes |
| Instructions    | 4        |

```
      00 01 02 03 04 05 06 07  08 09 0A 0B 0C 0D 0E 0F
      -- -- -- -- -- -- -- --  -- -- -- -- -- -- -- --
0320:                          5F 03 13 80 0A 52 10 01          _....R..
0330: 0A 52 10 01 00 FE FE FE  5F 03 22 80 FB 51 10 01  .R......_."..Q..
0340: FB 51 10 01 00 FE FE FE  5F 03 1C 80 06 52 10 01  .Q......_....R..
0350: 06 52 10 01 00 FE FE FE  00                       .R.......       
```

## Opcodes

```
  0: 0x0328 [0x5F] MULTI_HANDLER_COMPLEX(mode=0x03 - Load ext scheduler (OpCode 0x5B mode 0), ref=3430*, entity1=Unnamed NPC (ID: 17846794/0x0110520A), entity2=Unnamed NPC (ID: 17846794/0x0110520A), string=0xFEFEFE00)
  1: 0x0338 [0x5F] MULTI_HANDLER_COMPLEX(mode=0x03 - Load ext scheduler (OpCode 0x5B mode 0), ref=3388*, entity1=Unnamed NPC (ID: 17846779/0x011051FB), entity2=Unnamed NPC (ID: 17846779/0x011051FB), string=0xFEFEFE00)
  2: 0x0348 [0x5F] MULTI_HANDLER_COMPLEX(mode=0x03 - Load ext scheduler (OpCode 0x5B mode 0), ref=3344*, entity1=HEISHI_A (ID: 17846790/0x01105206), entity2=HEISHI_A (ID: 17846790/0x01105206), string=0xFEFEFE00)
  3: 0x0358 [0x00] END_REQSTACK()
```
