# Event 65535

## Metadata

| Field           | Value    |
|-----------------|----------|
| Event Index     | 20/34    |
| Offset          | 0x0254   |
| Data Size       | 49 bytes |
| Calculated Size | 49 bytes |
| Instructions    | 4        |

```
      00 01 02 03 04 05 06 07  08 09 0A 0B 0C 0D 0E 0F
      -- -- -- -- -- -- -- --  -- -- -- -- -- -- -- --
0250:             5F 03 13 80  0A 52 10 01 0A 52 10 01      _....R...R..
0260: 00 FE FE FE 5F 03 1E 80  FD 51 10 01 FD 51 10 01  ...._....Q...Q..
0270: 00 FE FE FE 5F 03 1F 80  F9 51 10 01 F9 51 10 01  ...._....Q...Q..
0280: 00 FE FE FE 00                                    .....           
```

## Opcodes

```
  0: 0x0254 [0x5F] MULTI_HANDLER_COMPLEX(mode=0x03 - Load ext scheduler (OpCode 0x5B mode 0), ref=References[19], entity1=Unnamed NPC (ID: 17846794/0x0110520A), entity2=Unnamed NPC (ID: 17846794/0x0110520A), string=0xFEFEFE00)
  1: 0x0264 [0x5F] MULTI_HANDLER_COMPLEX(mode=0x03 - Load ext scheduler (OpCode 0x5B mode 0), ref=References[30], entity1=Unnamed NPC (ID: 17846781/0x011051FD), entity2=Unnamed NPC (ID: 17846781/0x011051FD), string=0xFEFEFE00)
  2: 0x0274 [0x5F] MULTI_HANDLER_COMPLEX(mode=0x03 - Load ext scheduler (OpCode 0x5B mode 0), ref=References[31], entity1=Arciela (ID: 17846777/0x011051F9), entity2=Arciela (ID: 17846777/0x011051F9), string=0xFEFEFE00)
  3: 0x0284 [0x00] END_REQSTACK()
```
