# Event 65535

## Metadata

| Field           | Value    |
|-----------------|----------|
| Event Index     | 33/66    |
| Offset          | 0x01DC   |
| Data Size       | 53 bytes |
| Calculated Size | 53 bytes |
| Instructions    | 11       |

```
      00 01 02 03 04 05 06 07  08 09 0A 0B 0C 0D 0E 0F
      -- -- -- -- -- -- -- --  -- -- -- -- -- -- -- --
01D0:                                      37 41 80 42              7A.B
01E0: 80 43 80 44 80 80 F8 FF  FF 7F 32 07 80 1F 00 45  .C.D......2....E
01F0: 80 46 80 47 80 1F 01 4B  30 21 03 01 48 80 1C 18  .F.G...K0!..H...
0200: 80 6E 30 21 03 01 02 80  99 30 21 03 01 1C 49 80  .n0!.....0!...I.
0210: 00                                                .               
```

## Opcodes

```
  0: 0x01DC [0x37] UPDATE_EVENT_POSITION_AND_DIR: x=-183.147*, z=-826.464*, y=-5.910*, direction=91.8°*
  1: 0x01E5 [0x80] LOAD_WAIT(entity=EventEntity)
  2: 0x01EA [0x32] ExtData[1]->MainSpeed = 13* * 0.1
  3: 0x01ED [0x1F] MOVE_ENTITY: EventEntity moves to X=-180.188*, Z=-831.578*, Y=-4.632*
  4: 0x01F5 [0x1F] MOVE_ENTITY: Update entity position (mode=1)
  5: 0x01F7 [0x4B] UPDATE_ENTITY_YAW(entity=Bashraf (ID: 16982320/0x01032130), yaw=4.85°*)
  6: 0x01FE [0x1C] WAIT(30* ticks)
  7: 0x0201 [0x6E] Bashraf (ID: 16982320/0x01032130) uses emote 0*
  8: 0x0208 [0x99] Wait for Bashraf (ID: 16982320/0x01032130) animation to complete
  9: 0x020D [0x1C] WAIT(90* ticks)
 10: 0x0210 [0x00] END_REQSTACK()
```
