# Event 65535

## Metadata

| Field           | Value    |
|-----------------|----------|
| Event Index     | 6/66     |
| Offset          | 0x0020   |
| Data Size       | 37 bytes |
| Calculated Size | 37 bytes |
| Instructions    | 7        |

```
      00 01 02 03 04 05 06 07  08 09 0A 0B 0C 0D 0E 0F
      -- -- -- -- -- -- -- --  -- -- -- -- -- -- -- --
0020: 32 07 80 1F 00 00 80 01  80 02 80 1F 01 1E 2F 21  2............./!
0030: 03 01 1C 08 80 66 02 80  30 21 03 01 30 21 03 01  .....f..0!..0!..
0040: 74 6C 6B 30 00                                    tlk0.           
```

## Opcodes

```
  0: 0x0020 [0x32] ExtData[1]->MainSpeed = 13* * 0.1
  1: 0x0023 [0x1F] MOVE_ENTITY: EventEntity moves to X=-90.836*, Z=4.729*, Y=0.000*
  2: 0x002B [0x1F] MOVE_ENTITY: Update entity position (mode=1)
  3: 0x002D [0x1E] EventEntity looks at Tehf Kimasnahya (ID: 16982319/0x0103212F) and starts talking
  4: 0x0032 [0x1C] WAIT(180* ticks)
  5: 0x0035 [0x66] LOAD_EXT_SCHEDULER_MAIN: Load scheduler "tlk0" with entities [Bashraf (ID: 16982320/0x01032130), Bashraf (ID: 16982320/0x01032130)], work=0*
  6: 0x0044 [0x00] END_REQSTACK()
```
