# Event 65535

## Metadata

| Field           | Value    |
|-----------------|----------|
| Event Index     | 7/10     |
| Offset          | 0x0028   |
| Data Size       | 51 bytes |
| Calculated Size | 51 bytes |
| Instructions    | 13       |

```
      00 01 02 03 04 05 06 07  08 09 0A 0B 0C 0D 0E 0F
      -- -- -- -- -- -- -- --  -- -- -- -- -- -- -- --
0020:                          32 06 80 6C F8 FF FF 7F          2..l....
0030: 07 80 01 80 1F 00 08 80  09 80 0A 80 1F 01 1F 00  ................
0040: 0B 80 0C 80 0A 80 1F 01  1F 00 0D 80 0E 80 0A 80  ................
0050: 1F 01 6F 1E 19 50 0F 01  6F 70 00                 ..o..P..op.     
```

## Opcodes

```
  0: 0x0028 [0x32] ExtData[1]->MainSpeed = 13* * 0.1
  1: 0x002B [0x6C] FADE_ENTITY_COLOR(entity_id=EventEntity, end_alpha=128*, fade_time=1*)
  2: 0x0034 [0x1F] MOVE_ENTITY: EventEntity moves to X=-34.899*, Z=-136.750*, Y=5.499*
  3: 0x003C [0x1F] MOVE_ENTITY: Update entity position (mode=1)
  4: 0x003E [0x1F] MOVE_ENTITY: EventEntity moves to X=-32.361*, Z=-138.251*, Y=5.499*
  5: 0x0046 [0x1F] MOVE_ENTITY: Update entity position (mode=1)
  6: 0x0048 [0x1F] MOVE_ENTITY: EventEntity moves to X=-30.892*, Z=-138.411*, Y=5.499*
  7: 0x0050 [0x1F] MOVE_ENTITY: Update entity position (mode=1)
  8: 0x0052 [0x6F] WAIT_FRAME_DELAY: Yield until WaitTime reaches zero
  9: 0x0053 [0x1E] EventEntity looks at Muckvix (ID: 17780761/0x010F5019) and starts talking
 10: 0x0058 [0x6F] WAIT_FRAME_DELAY: Yield until WaitTime reaches zero
 11: 0x0059 [0x70] WAIT_ENTITY_RENDER_FLAG: Wait while EventEntity->Render.Flags3 bit 2 is set (cancel turn if not)
 12: 0x005A [0x00] END_REQSTACK()
```
