# Event 65535

## Metadata

| Field           | Value    |
|-----------------|----------|
| Event Index     | 5/7      |
| Offset          | 0x0018   |
| Data Size       | 77 bytes |
| Calculated Size | 77 bytes |
| Instructions    | 9        |

```
      00 01 02 03 04 05 06 07  08 09 0A 0B 0C 0D 0E 0F
      -- -- -- -- -- -- -- --  -- -- -- -- -- -- -- --
0010:                          5B 03 80 F8 FF FF 7F F8          [.......
0020: FF FF 7F 6A 6D 70 30 53  F8 FF FF 7F F8 FF FF 7F  ...jmp0S........
0030: 6A 6D 70 30 5B 03 80 F8  FF FF 7F F8 FF FF 7F 6A  jmp0[..........j
0040: 6D 70 30 53 F8 FF FF 7F  F8 FF FF 7F 6A 6D 70 30  mp0S........jmp0
0050: 1F 00 04 80 05 80 06 80  1F 01 1F 00 07 80 08 80  ................
0060: 06 80 1F 01 00                                    .....           
```

## Opcodes

```
  0: 0x0018 [0x5B] LOAD_EXT_SCHEDULER(work_offset=85*, entity1=EventEntity, entity2=EventEntity, action="jmp0")
  1: 0x0027 [0x53] WAIT_SCHEDULER_TASK(entity1=EventEntity, entity2=EventEntity, action_id="jmp0")
  2: 0x0034 [0x5B] LOAD_EXT_SCHEDULER(work_offset=85*, entity1=EventEntity, entity2=EventEntity, action="jmp0")
  3: 0x0043 [0x53] WAIT_SCHEDULER_TASK(entity1=EventEntity, entity2=EventEntity, action_id="jmp0")
  4: 0x0050 [0x1F] MOVE_ENTITY: EventEntity moves to X=-140.000*, Z=-180.000*, Y=20.000*
  5: 0x0058 [0x1F] MOVE_ENTITY: Update entity position (mode=1)
  6: 0x005A [0x1F] MOVE_ENTITY: EventEntity moves to X=-137.376*, Z=-161.912*, Y=20.000*
  7: 0x0062 [0x1F] MOVE_ENTITY: Update entity position (mode=1)
  8: 0x0064 [0x00] END_REQSTACK()
```
