# Event 65535

## Metadata

| Field           | Value    |
|-----------------|----------|
| Event Index     | 7/8      |
| Offset          | 0x0010   |
| Data Size       | 58 bytes |
| Calculated Size | 58 bytes |
| Instructions    | 11       |

```
      00 01 02 03 04 05 06 07  08 09 0A 0B 0C 0D 0E 0F
      -- -- -- -- -- -- -- --  -- -- -- -- -- -- -- --
0010: 03 00 00 01 80 03 01 00  02 80 03 02 00 03 80 02  ................
0020: 00 00 04 80 03 49 00 07  00 00 05 80 07 01 00 06  .....I..........
0030: 80 08 02 00 07 80 BA C9  02 05 01 00 00 01 00 02  ................
0040: 00 08 80 1C 09 80 01 1F  00 00                    ..........      
```

## Opcodes

```
  0: 0x0010 [0x03] ExtData[1]->WorkLocal[0] = 4294819670*
  1: 0x0015 [0x03] ExtData[1]->WorkLocal[1] = 4294631176*
  2: 0x001A [0x03] ExtData[1]->WorkLocal[2] = 4294926617*
  3: 0x001F [0x02] IF !(ExtData[1]->WorkLocal[0] >= 0*) GOTO 0x0049
  4: 0x0027 [0x07] ExtData[1]->WorkLocal[0] += 462*
  5: 0x002C [0x07] ExtData[1]->WorkLocal[1] += 231*
  6: 0x0031 [0x08] ExtData[1]->WorkLocal[2] -= 25*
  7: 0x0036 [0xBA] SET_ENTITY_POSITION(entity_id=Unnamed NPC (ID: 17105609/0x010502C9), pos_x=ExtData[1]->WorkLocal[0], pos_z=ExtData[1]->WorkLocal[1], pos_y=ExtData[1]->WorkLocal[2], direction=315.5°*)
  8: 0x0043 [0x1C] WAIT(1* ticks)
  9: 0x0046 [0x01] GOTO 0x001F
 10: 0x0049 [0x00] END_REQSTACK()
```
