# Event 65535

## Metadata

| Field           | Value    |
|-----------------|----------|
| Event Index     | 8/8      |
| Offset          | 0x004A   |
| Data Size       | 58 bytes |
| Calculated Size | 58 bytes |
| Instructions    | 11       |

```
      00 01 02 03 04 05 06 07  08 09 0A 0B 0C 0D 0E 0F
      -- -- -- -- -- -- -- --  -- -- -- -- -- -- -- --
0040:                                03 00 00 0A 80 03            ......
0050: 01 00 0B 80 03 02 00 0C  80 02 00 00 0D 80 03 83  ................
0060: 00 07 00 00 0E 80 07 01  00 0F 80 08 01 00 10 80  ................
0070: BA C9 02 05 01 00 00 01  00 02 00 11 80 1C 09 80  ................
0080: 01 59 00 00                                       .Y..            
```

## Opcodes

```
  0: 0x004A [0x03] ExtData[1]->WorkLocal[0] = 81511*
  1: 0x004F [0x03] ExtData[1]->WorkLocal[1] = 4294764920*
  2: 0x0054 [0x03] ExtData[1]->WorkLocal[2] = 4294875111*
  3: 0x0059 [0x02] IF !(ExtData[1]->WorkLocal[0] >= 110000*) GOTO 0x0083
  4: 0x0061 [0x07] ExtData[1]->WorkLocal[0] += 180*
  5: 0x0066 [0x07] ExtData[1]->WorkLocal[1] += 240*
  6: 0x006B [0x08] ExtData[1]->WorkLocal[1] -= 20*
  7: 0x0070 [0xBA] SET_ENTITY_POSITION(entity_id=Unnamed NPC (ID: 17105609/0x010502C9), pos_x=ExtData[1]->WorkLocal[0], pos_z=ExtData[1]->WorkLocal[1], pos_y=ExtData[1]->WorkLocal[2], direction=307.6°*)
  8: 0x007D [0x1C] WAIT(1* ticks)
  9: 0x0080 [0x01] GOTO 0x0059

SUBROUTINE_0083:
 10: 0x0083 [0x00] END_REQSTACK()
```
