# Event 65535

## Metadata

| Field           | Value    |
|-----------------|----------|
| Event Index     | 24/36    |
| Offset          | 0x015B   |
| Data Size       | 67 bytes |
| Calculated Size | 67 bytes |
| Instructions    | 13       |

```
      00 01 02 03 04 05 06 07  08 09 0A 0B 0C 0D 0E 0F
      -- -- -- -- -- -- -- --  -- -- -- -- -- -- -- --
0150:                                   6E 41 22 03 01             nA"..
0160: 26 80 99 41 22 03 01 1C  30 80 5B 33 80 42 22 03  &..A"...0.[3.B".
0170: 01 42 22 03 01 69 72 6F  30 1C 34 80 1C 30 80 1C  .B"..iro0.4..0..
0180: 31 80 6E 45 22 03 01 35  80 99 45 22 03 01 1C 32  1.nE"..5..E"...2
0190: 80 6E 46 22 03 01 26 80  99 46 22 03 01 00        .nF"..&..F"...  
```

## Opcodes

```
  0: 0x015B [0x6E] FAN3 (ID: 16982593/0x01032241) uses emote 11*
  1: 0x0162 [0x99] Wait for FAN3 (ID: 16982593/0x01032241) animation to complete
  2: 0x0167 [0x1C] WAIT(3* ticks)
  3: 0x016A [0x5B] LOAD_EXT_SCHEDULER: Load scheduler "iro0" with entities [FAN4 (ID: 16982594/0x01032242), FAN4 (ID: 16982594/0x01032242)], work=1328*
  4: 0x0179 [0x1C] WAIT(4* ticks)
  5: 0x017C [0x1C] WAIT(3* ticks)
  6: 0x017F [0x1C] WAIT(2* ticks)
  7: 0x0182 [0x6E] FAN7 (ID: 16982597/0x01032245) uses emote 8*
  8: 0x0189 [0x99] Wait for FAN7 (ID: 16982597/0x01032245) animation to complete
  9: 0x018E [0x1C] WAIT(5* ticks)
 10: 0x0191 [0x6E] FAN8 (ID: 16982598/0x01032246) uses emote 11*
 11: 0x0198 [0x99] Wait for FAN8 (ID: 16982598/0x01032246) animation to complete
 12: 0x019D [0x00] END_REQSTACK()
```
