# Event 65535

## Metadata

| Field           | Value    |
|-----------------|----------|
| Event Index     | 75/77    |
| Offset          | 0x04AB   |
| Data Size       | 56 bytes |
| Calculated Size | 56 bytes |
| Instructions    | 10       |

```
      00 01 02 03 04 05 06 07  08 09 0A 0B 0C 0D 0E 0F
      -- -- -- -- -- -- -- --  -- -- -- -- -- -- -- --
04A0:                                   32 12 80 1F 00             2....
04B0: 13 80 14 80 10 80 1F 01  6F 4A 99 F1 06 01 F0 FF  ........oJ......
04C0: FF 7F 6F 76 99 F1 06 01  2C 99 F1 06 01 99 F1 06  ..ov....,.......
04D0: 01 72 65 73 30 53 99 F1  06 01 99 F1 06 01 72 65  .res0S........re
04E0: 73 30 00                                          s0.             
```

## Opcodes

```
  0: 0x04AB [0x32] ExtData[1]->MainSpeed = 13* * 0.1
  1: 0x04AE [0x1F] MOVE_ENTITY: EventEntity moves to X=-340.969*, Z=135.658*, Y=-100.249*
  2: 0x04B6 [0x1F] MOVE_ENTITY: Update entity position (mode=1)
  3: 0x04B8 [0x6F] WAIT_FRAME_DELAY: Yield until WaitTime reaches zero
  4: 0x04B9 [0x4A] Kukki-Chebukki (ID: 17232281/0x0106F199) looks at LocalPlayer
  5: 0x04C2 [0x6F] WAIT_FRAME_DELAY: Yield until WaitTime reaches zero
  6: 0x04C3 [0x76] CHECK_ENTITY_RENDER_FLAGS: Wait until Kukki-Chebukki (ID: 17232281/0x0106F199) Render.Flags0 and Render.Flags3 conditions are met
  7: 0x04C8 [0x2C] CREATE_SCHEDULER_TASK: Create scheduler "res0" with entities [Kukki-Chebukki (ID: 17232281/0x0106F199), Kukki-Chebukki (ID: 17232281/0x0106F199)]
  8: 0x04D5 [0x53] WAIT_SCHEDULER_TASK: Wait for scheduler "res0" with entities [Kukki-Chebukki (ID: 17232281/0x0106F199), Kukki-Chebukki (ID: 17232281/0x0106F199)]
  9: 0x04E2 [0x00] END_REQSTACK()
```
