# Event 141

## Metadata

| Field           | Value    |
|-----------------|----------|
| Event Index     | 22/59    |
| Offset          | 0x0154   |
| Data Size       | 36 bytes |
| Calculated Size | 36 bytes |
| Instructions    | 13       |

```
      00 01 02 03 04 05 06 07  08 09 0A 0B 0C 0D 0E 0F
      -- -- -- -- -- -- -- --  -- -- -- -- -- -- -- --
0150:             1E F0 FF FF  7F 6F 70 29 08 17 10 0F      .....op)....
0160: 01 01 1D 05 80 23 1D 06  80 23 29 08 17 10 0F 01  .....#...#).....
0170: 02 1A 7D 05 20 00 21 00                           ..}. .!.        
```

## Opcodes

```
  0: 0x0154 [0x1E] EventEntity looks at LocalPlayer and starts talking
  1: 0x0159 [0x6F] WAIT_FRAME_DELAY: Yield until WaitTime reaches zero
  2: 0x015A [0x70] WAIT_ENTITY_RENDER_FLAG: Wait while EventEntity->Render.Flags3 bit 2 is set (cancel turn if not)
  3: 0x015B [0x29] REQ_SET_WAIT(priority=0x08, entity_id=Kororo (ID: 17764375/0x010F1017), tag_num=0x01)
  4: 0x0162 [0x1D] PRINT_EVENT_MESSAGE(message_id=7760*)
    → "The reason that the life span of Cardians has become shortenedy is that the quality of the Mana Orbs has worsenedy.\u007F1\u0000\u0007"
  5: 0x0165 [0x23] WAIT_FOR_DIALOG_INTERACTION
  6: 0x0166 [0x1D] PRINT_EVENT_MESSAGE(message_id=7761*)
    → "Just when the monsters are growing strongery and we need more Cardians than ever before, too... I'd hate to think what lies aheady if things go on like this...\u007F1\u0000\u0007"
  7: 0x0169 [0x23] WAIT_FOR_DIALOG_INTERACTION
  8: 0x016A [0x29] REQ_SET_WAIT(priority=0x08, entity_id=Kororo (ID: 17764375/0x010F1017), tag_num=0x02)
  9: 0x0171 [0x1A] CALL_SUBROUTINE(address=0x057D)
 10: 0x0174 [0x20] SET_CLI_EVENT_UC_FLAG: Unlock player control
 11: 0x0176 [0x21] END_EVENT
 12: 0x0177 [0x00] END_REQSTACK()
```
