# Event 331

## Metadata

| Field           | Value    |
|-----------------|----------|
| Event Index     | 46/59    |
| Offset          | 0x0452   |
| Data Size       | 36 bytes |
| Calculated Size | 36 bytes |
| Instructions    | 13       |

```
      00 01 02 03 04 05 06 07  08 09 0A 0B 0C 0D 0E 0F
      -- -- -- -- -- -- -- --  -- -- -- -- -- -- -- --
0450:       1E F0 FF FF 7F 6F  70 29 08 17 10 0F 01 01    .....op)......
0460: 1D 2D 80 23 1D 2E 80 23  29 08 17 10 0F 01 02 1A  .-.#...#).......
0470: 7D 05 20 00 21 00                                 }. .!.          
```

## Opcodes

```
  0: 0x0452 [0x1E] EventEntity looks at LocalPlayer and starts talking
  1: 0x0457 [0x6F] WAIT_FRAME_DELAY: Yield until WaitTime reaches zero
  2: 0x0458 [0x70] WAIT_ENTITY_RENDER_FLAG: Wait while EventEntity->Render.Flags3 bit 2 is set (cancel turn if not)
  3: 0x0459 [0x29] REQ_SET_WAIT(priority=0x08, entity_id=Kororo (ID: 17764375/0x010F1017), tag_num=0x01)
  4: 0x0460 [0x1D] PRINT_EVENT_MESSAGE(message_id=8233*)
    → "Ice in the shapey of a tear...\u0007Ice that didn't melty until it touched the handies of Boizo-Naizo... There are many unexplainable mysteries in this worldy.\u007F1\u0000\u0007"
  5: 0x0463 [0x23] WAIT_FOR_DIALOG_INTERACTION
  6: 0x0464 [0x1D] PRINT_EVENT_MESSAGE(message_id=8234*)
    → "Say...\u0007I wondery if Cardians can cry? There is no such devicey built into them to enabley them to, though...\u007F1\u0000\u0007"
  7: 0x0467 [0x23] WAIT_FOR_DIALOG_INTERACTION
  8: 0x0468 [0x29] REQ_SET_WAIT(priority=0x08, entity_id=Kororo (ID: 17764375/0x010F1017), tag_num=0x02)
  9: 0x046F [0x1A] CALL_SUBROUTINE(address=0x057D)
 10: 0x0472 [0x20] SET_CLI_EVENT_UC_FLAG: Unlock player control
 11: 0x0474 [0x21] END_EVENT
 12: 0x0475 [0x00] END_REQSTACK()
```
