# Event 17

## Metadata

| Field           | Value    |
|-----------------|----------|
| Event Index     | 5/34     |
| Offset          | 0x0048   |
| Data Size       | 57 bytes |
| Calculated Size | 57 bytes |
| Instructions    | 6        |

```
      00 01 02 03 04 05 06 07  08 09 0A 0B 0C 0D 0E 0F
      -- -- -- -- -- -- -- --  -- -- -- -- -- -- -- --
0040:                          22 01 37 00 80 09 80 0A          ".7.....
0050: 80 0B 80 5B 04 80 F0 FF  FF 7F F0 FF FF 7F 00 FE  ...[............
0060: FE FE 5B 05 80 F0 FF FF  7F F0 FF FF 7F 00 FE FE  ..[.............
0070: FE 5B 06 80 F0 FF FF 7F  F0 FF FF 7F 00 FE FE FE  .[..............
0080: 00                                                .               
```

## Opcodes

```
  0: 0x0048 [0x22] ENTITY_HIDE_FLAG(enabled=0x01)
  1: 0x004A [0x37] UPDATE_EVENT_POSITION_AND_DIR: x=0.000*, z=41.886*, y=2.499*, direction=45.0°*
  2: 0x0053 [0x5B] LOAD_EXT_SCHEDULER: Load scheduler 0xFEFEFE00 with entities [LocalPlayer, LocalPlayer], work=513*
  3: 0x0062 [0x5B] LOAD_EXT_SCHEDULER: Load scheduler 0xFEFEFE00 with entities [LocalPlayer, LocalPlayer], work=514*
  4: 0x0071 [0x5B] LOAD_EXT_SCHEDULER: Load scheduler 0xFEFEFE00 with entities [LocalPlayer, LocalPlayer], work=588*
  5: 0x0080 [0x00] END_REQSTACK()
```
