# Event 65535

## Metadata

| Field           | Value    |
|-----------------|----------|
| Event Index     | 68/93    |
| Offset          | 0x0B15   |
| Data Size       | 48 bytes |
| Calculated Size | 48 bytes |
| Instructions    | 9        |

```
      00 01 02 03 04 05 06 07  08 09 0A 0B 0C 0D 0E 0F
      -- -- -- -- -- -- -- --  -- -- -- -- -- -- -- --
0B10:                03 03 00  A3 80 03 04 00 A4 80 02       ...........
0B20: 04 00 03 80 04 44 0B BA  F0 FF FF 7F A5 80 A6 80  .....D..........
0B30: 03 00 A7 80 08 04 00 1E  80 07 03 00 97 80 1C 1C  ................
0B40: 80 01 1F 0B 00                                    .....           
```

## Opcodes

```
  0: 0x0B15 [0x03] ExtData[1]->WorkLocal[3] = 4294966296*
  1: 0x0B1A [0x03] ExtData[1]->WorkLocal[4] = 3000*
  2: 0x0B1F [0x02] IF !(ExtData[1]->WorkLocal[4] < 0*) GOTO 0x0B44
  3: 0x0B27 [0xBA] SET_ENTITY_POSITION(entity_id=LocalPlayer, pos_x=529.460*, pos_z=-372.789*, pos_y=ExtData[1]->WorkLocal[3], direction=342.5°*)
  4: 0x0B34 [0x08] ExtData[1]->WorkLocal[4] -= 10*
  5: 0x0B39 [0x07] ExtData[1]->WorkLocal[3] += 100*
  6: 0x0B3E [0x1C] WAIT(1* ticks)
  7: 0x0B41 [0x01] GOTO 0x0B1F

SUBROUTINE_0B44:
  8: 0x0B44 [0x00] END_REQSTACK()
```
