# Event 65535

## Metadata

| Field           | Value    |
|-----------------|----------|
| Event Index     | 36/97    |
| Offset          | 0x060A   |
| Data Size       | 54 bytes |
| Calculated Size | 54 bytes |
| Instructions    | 10       |

```
      00 01 02 03 04 05 06 07  08 09 0A 0B 0C 0D 0E 0F
      -- -- -- -- -- -- -- --  -- -- -- -- -- -- -- --
0600:                                45 00 80 F8 FF FF            E.....
0610: 7F F8 FF FF 7F 73 30 30  30 01 80 29 08 96 00 0F  .....s000..)....
0620: 01 0D 1D 1F 80 23 1D 20  80 23 29 08 96 00 0F 01  .....#. .#).....
0630: 0E 29 08 96 00 0F 01 0F  29 08 96 00 0F 01 10 00  .)......).......
```

## Opcodes

```
  0: 0x060A [0x45] LOAD_SCHEDULED_TASK: Load scheduler "s000" with entities [EventEntity, EventEntity], work=[188*, 0*]
  1: 0x061B [0x29] REQ_SET_WAIT(priority=0x08, entity_id=Moogle (ID: 17760406/0x010F0096), tag_num=0x0D)
  2: 0x0622 [0x1D] PRINT_EVENT_MESSAGE(message_id=11438*)
    → "All moogles like taking care of plants, kupo!\u007F1\u0000\u0007"
  3: 0x0625 [0x23] WAIT_FOR_DIALOG_INTERACTION
  4: 0x0626 [0x1D] PRINT_EVENT_MESSAGE(message_id=11439*)
    → "As long as you have a flowerpot and seeds, I'll make it my personal responsibility to look after the plants you raise, kupo!\u007F1\u0000\u0007"
  5: 0x0629 [0x23] WAIT_FOR_DIALOG_INTERACTION
  6: 0x062A [0x29] REQ_SET_WAIT(priority=0x08, entity_id=Moogle (ID: 17760406/0x010F0096), tag_num=0x0E)
  7: 0x0631 [0x29] REQ_SET_WAIT(priority=0x08, entity_id=Moogle (ID: 17760406/0x010F0096), tag_num=0x0F)
  8: 0x0638 [0x29] REQ_SET_WAIT(priority=0x08, entity_id=Moogle (ID: 17760406/0x010F0096), tag_num=0x10)
  9: 0x063F [0x00] END_REQSTACK()
```
