# 17568198

## Common Data

| Field            | Value                     |
|------------------|---------------------------|
| Zone             | Ordelle's Caves (ID: 193) |
| Block Size       | 128 bytes                 |
| Total Events     | 5                         |
| References Count | 8                         |

## List of Events

| Event ID                 | Entrypoint   |   Size |   Instructions |
|--------------------------|--------------|--------|----------------|
| [65535](#event-65535)    | 0x0000       |      1 |              1 |
| [56](#event-56)          | 0x0001       |      1 |              1 |
| [65535.1](#event-655351) | 0x0002       |     29 |              6 |
| [65535.2](#event-655352) | 0x001F       |     19 |              5 |
| [65535.3](#event-655353) | 0x0032       |      7 |              3 |

## DAT References (imed_data)

|   Index | Hex Value   |   Dec Value |
|---------|-------------|-------------|
|       0 | 0xFFFEA081  |  4294877313 |
|       1 | 0x2FD95     |      195989 |
|       2 | 0x7567      |       30055 |
|       3 | 0x0E0E      |        3598 |
|       4 | 0x0000      |           0 |
|       5 | 0x0001      |           1 |
|       6 | 0x0080      |         128 |
|       7 | 0x005A      |          90 |

## Events

### Event 65535

#### Metadata

| Field        | Value   |
|--------------|---------|
| Entrypoint   | 0x0000  |
| Data Size    | 1 bytes |
| Instructions | 1       |

```
      00 01 02 03 04 05 06 07  08 09 0A 0B 0C 0D 0E 0F
      -- -- -- -- -- -- -- --  -- -- -- -- -- -- -- --
0000: 00                                                .               
```

#### Opcodes

```
  0: 0x0000 [0x00] END_REQSTACK()
```

### Event 56

#### Metadata

| Field        | Value   |
|--------------|---------|
| Entrypoint   | 0x0001  |
| Data Size    | 1 bytes |
| Instructions | 1       |

```
      00 01 02 03 04 05 06 07  08 09 0A 0B 0C 0D 0E 0F
      -- -- -- -- -- -- -- --  -- -- -- -- -- -- -- --
0000:    00                                              .              
```

#### Opcodes

```
  0: 0x0001 [0x00] END_REQSTACK()
```

### Event 65535.1

#### Metadata

| Field        | Value    |
|--------------|----------|
| Entrypoint   | 0x0002   |
| Data Size    | 29 bytes |
| Instructions | 6        |

```
      00 01 02 03 04 05 06 07  08 09 0A 0B 0C 0D 0E 0F
      -- -- -- -- -- -- -- --  -- -- -- -- -- -- -- --
0000:       2F 00 F8 FF FF 7F  33 01 37 00 80 01 80 02    /.....3.7.....
0010: 80 03 80 22 00 6C F8 FF  FF 7F 04 80 05 80 00     ...".l......... 
```

#### Opcodes

```
  0: 0x0002 [0x2F] EventEntity->Render.Flags0 &= ~0x80000 // Bit 19
  1: 0x0008 [0x33] EventEntity->Render.Flags0 |= 0x200000 // Bit 21 (flag=0x01)
  2: 0x000A [0x37] UPDATE_EVENT_POSITION_AND_DIR: x=-89.983*, z=195.989*, y=30.055*, direction=316.2°*
  3: 0x0013 [0x22] ENTITY_HIDE_FLAG(enabled=0x00)
  4: 0x0015 [0x6C] FADE_ENTITY_COLOR(entity_id=EventEntity, end_alpha=0*, fade_time=1*)
  5: 0x001E [0x00] END_REQSTACK()
```

### Event 65535.2

#### Metadata

| Field        | Value    |
|--------------|----------|
| Entrypoint   | 0x001F   |
| Data Size    | 19 bytes |
| Instructions | 5        |

```
      00 01 02 03 04 05 06 07  08 09 0A 0B 0C 0D 0E 0F
      -- -- -- -- -- -- -- --  -- -- -- -- -- -- -- --
0010:                                               6C                 l
0020: F8 FF FF 7F 06 80 07 80  1C 07 80 AB 03 AC 01 05  ................
0030: 80 00                                             ..              
```

#### Opcodes

```
  0: 0x001F [0x6C] FADE_ENTITY_COLOR(entity_id=EventEntity, end_alpha=128*, fade_time=90*)
  1: 0x0028 [0x1C] WAIT(90* ticks)
  2: 0x002B [0xAB] EventEntity->Render.Flags0 ^= 0x20000 // Toggle bit 17
  3: 0x002D [0xAC] EventEntity->StatusEvent = 1*
  4: 0x0031 [0x00] END_REQSTACK()
```

### Event 65535.3

#### Metadata

| Field        | Value   |
|--------------|---------|
| Entrypoint   | 0x0032  |
| Data Size    | 7 bytes |
| Instructions | 3       |

```
      00 01 02 03 04 05 06 07  08 09 0A 0B 0C 0D 0E 0F
      -- -- -- -- -- -- -- --  -- -- -- -- -- -- -- --
0030:       AB 03 AC 01 04 80  00                         .......       
```

#### Opcodes

```
  0: 0x0032 [0xAB] EventEntity->Render.Flags0 ^= 0x20000 // Toggle bit 17
  1: 0x0034 [0xAC] EventEntity->StatusEvent = 0*
  2: 0x0038 [0x00] END_REQSTACK()
```
