# 17568197

## Common Data

| Field            | Value                     |
|------------------|---------------------------|
| Zone             | Ordelle's Caves (ID: 193) |
| Block Size       | 19612 bytes               |
| Total Events     | 6                         |
| References Count | 250                       |

## List of Events

| Event ID                 | Entrypoint   |   Size |   Instructions |
|--------------------------|--------------|--------|----------------|
| [65535](#event-65535)    | 0x0000       |      1 |              1 |
| [56](#event-56)          | 0x0001       |      1 |              1 |
| [65535.1](#event-655351) | 0x0002       |  18546 |           3186 |
| [65535.2](#event-655352) | 0x4874       |     10 |              4 |
| [65535.3](#event-655353) | 0x487E       |      7 |              3 |
| [65535.4](#event-655354) | 0x4885       |      7 |              3 |

## DAT References (imed_data)

|   Index | Hex Value   |   Dec Value |
|---------|-------------|-------------|
|       0 | 0xFFFEA737  |  4294879031 |
|       1 | 0x305F7     |      198135 |
|       2 | 0x7EBB      |       32443 |
|       3 | 0x0557      |        1367 |
|       4 | 0x0000      |           0 |
|       5 | 0x0001      |           1 |
|       6 | 0x0002      |           2 |
|       7 | 0x0003      |           3 |
|       8 | 0x0004      |           4 |
|       9 | 0x0005      |           5 |
|      10 | 0x0006      |           6 |
|      11 | 0x0007      |           7 |
|      12 | 0x005F      |          95 |
|      13 | 0x0064      |         100 |
|      14 | 0x0069      |         105 |
|      15 | 0x0052      |          82 |
|      16 | 0x0057      |          87 |
|      17 | 0x005C      |          92 |
|      18 | 0x0059      |          89 |
|      19 | 0x005D      |          93 |
|      20 | 0x0061      |          97 |
|      21 | 0x0060      |          96 |
|      22 | 0x0008      |           8 |
|      23 | 0x0009      |           9 |
|      24 | 0x000A      |          10 |
|      25 | 0x000D      |          13 |
|      26 | 0x0012      |          18 |
|      27 | 0x0013      |          19 |
|      28 | 0x0014      |          20 |
|      29 | 0x0017      |          23 |
|      30 | 0x000C      |          12 |
|      31 | 0x000F      |          15 |
|      32 | 0x000E      |          14 |
|      33 | 0x000B      |          11 |
|      34 | 0x0018      |          24 |
|      35 | 0x001F      |          31 |
|      36 | 0x001B      |          27 |
|      37 | 0x0010      |          16 |
|      38 | 0x0015      |          21 |
|      39 | 0x018D      |         397 |
|      40 | 0x0175      |         373 |
|      41 | 0x0170      |         368 |
|      42 | 0x0171      |         369 |
|      43 | 0x014C      |         332 |
|      44 | 0x01C1      |         449 |
|      45 | 0x027C      |         636 |
|      46 | 0x027B      |         635 |
|      47 | 0x027D      |         637 |
|      48 | 0x02D3      |         723 |
|      49 | 0x0321      |         801 |
|      50 | 0x0326      |         806 |
|      51 | 0x01E1      |         481 |
|      52 | 0x0343      |         835 |
|      53 | 0x0386      |         902 |
|      54 | 0x0388      |         904 |
|      55 | 0x0361      |         865 |
|      56 | 0x0387      |         903 |
|      57 | 0x038A      |         906 |
|      58 | 0x003F      |          63 |
|      59 | 0x0282      |         642 |
|      60 | 0x0283      |         643 |
|      61 | 0x0288      |         648 |
|      62 | 0x0289      |         649 |
|      63 | 0x028A      |         650 |
|      64 | 0x028B      |         651 |
|      65 | 0x029E      |         670 |
|      66 | 0x0019      |          25 |
|      67 | 0x00C6      |         198 |
|      68 | 0x0032      |          50 |
|      69 | 0x00B5      |         181 |
|      70 | 0x008C      |         140 |
|      71 | 0x008E      |         142 |
|      72 | 0x007A      |         122 |
|      73 | 0x014B      |         331 |
|      74 | 0x0148      |         328 |
|      75 | 0x0166      |         358 |
|      76 | 0x017A      |         378 |
|      77 | 0x0182      |         386 |
|      78 | 0x0183      |         387 |
|      79 | 0x0192      |         402 |
|      80 | 0x01DF      |         479 |
|      81 | 0x01E9      |         489 |
|      82 | 0x001C      |          28 |
|      83 | 0x00E6      |         230 |
|      84 | 0x00EB      |         235 |
|      85 | 0x00F5      |         245 |
|      86 | 0x007E      |         126 |
|      87 | 0x007F      |         127 |
|      88 | 0x00F3      |         243 |
|      89 | 0x00F4      |         244 |
|      90 | 0x00E0      |         224 |
|      91 | 0x00E9      |         233 |
|      92 | 0x009E      |         158 |
|      93 | 0x009D      |         157 |
|      94 | 0x00E2      |         226 |
|      95 | 0x00E1      |         225 |
|      96 | 0x014F      |         335 |
|      97 | 0x014E      |         334 |
|      98 | 0x0167      |         359 |
|      99 | 0x00E5      |         229 |
|     100 | 0x0169      |         361 |
|     101 | 0x016A      |         362 |
|     102 | 0x0168      |         360 |
|     103 | 0x0133      |         307 |
|     104 | 0x0174      |         372 |
|     105 | 0x018C      |         396 |
|     106 | 0x0194      |         404 |
|     107 | 0x0195      |         405 |
|     108 | 0x0178      |         376 |
|     109 | 0x0240      |         576 |
|     110 | 0x0197      |         407 |
|     111 | 0x0198      |         408 |
|     112 | 0x01A3      |         419 |
|     113 | 0x019E      |         414 |
|     114 | 0x0246      |         582 |
|     115 | 0x0247      |         583 |
|     116 | 0x0248      |         584 |
|     117 | 0x024B      |         587 |
|     118 | 0x024A      |         586 |
|     119 | 0x0011      |          17 |
|     120 | 0x024F      |         591 |
|     121 | 0x01C3      |         451 |
|     122 | 0x01C4      |         452 |
|     123 | 0x01EF      |         495 |
|     124 | 0x01F0      |         496 |
|     125 | 0x001A      |          26 |
|     126 | 0x0095      |         149 |
|     127 | 0x001D      |          29 |
|     128 | 0x0073      |         115 |
|     129 | 0x0034      |          52 |
|     130 | 0x0024      |          36 |
|     131 | 0x005E      |          94 |
|     132 | 0x0072      |         114 |
|     133 | 0x0031      |          49 |
|     134 | 0x006C      |         108 |
|     135 | 0x003A      |          58 |
|     136 | 0x0096      |         150 |
|     137 | 0x0016      |          22 |
|     138 | 0x0035      |          53 |
|     139 | 0x0085      |         133 |
|     140 | 0x0081      |         129 |
|     141 | 0x0023      |          35 |
|     142 | 0x0033      |          51 |
|     143 | 0x0082      |         130 |
|     144 | 0x0039      |          57 |
|     145 | 0x0020      |          32 |
|     146 | 0x0038      |          56 |
|     147 | 0x0036      |          54 |
|     148 | 0x0083      |         131 |
|     149 | 0x00A2      |         162 |
|     150 | 0x0022      |          34 |
|     151 | 0x0021      |          33 |
|     152 | 0x0065      |         101 |
|     153 | 0x0086      |         134 |
|     154 | 0x0062      |          98 |
|     155 | 0x008D      |         141 |
|     156 | 0x0037      |          55 |
|     157 | 0x008A      |         138 |
|     158 | 0x008B      |         139 |
|     159 | 0x002B      |          43 |
|     160 | 0x0067      |         103 |
|     161 | 0x0030      |          48 |
|     162 | 0x002D      |          45 |
|     163 | 0x00A1      |         161 |
|     164 | 0x0066      |         102 |
|     165 | 0x0075      |         117 |
|     166 | 0x0068      |         104 |
|     167 | 0x007B      |         123 |
|     168 | 0x0077      |         119 |
|     169 | 0x01FE      |         510 |
|     170 | 0x009F      |         159 |
|     171 | 0x00A4      |         164 |
|     172 | 0x00A9      |         169 |
|     173 | 0x00AC      |         172 |
|     174 | 0x00B2      |         178 |
|     175 | 0x00B0      |         176 |
|     176 | 0x013D      |         317 |
|     177 | 0x0108      |         264 |
|     178 | 0x010C      |         268 |
|     179 | 0x0100      |         256 |
|     180 | 0x00FB      |         251 |
|     181 | 0x00B8      |         184 |
|     182 | 0x011C      |         284 |
|     183 | 0x0041      |          65 |
|     184 | 0x0042      |          66 |
|     185 | 0x0047      |          71 |
|     186 | 0x0160      |         352 |
|     187 | 0x0043      |          67 |
|     188 | 0x0048      |          72 |
|     189 | 0x004B      |          75 |
|     190 | 0x004C      |          76 |
|     191 | 0x004D      |          77 |
|     192 | 0x005B      |          91 |
|     193 | 0x0058      |          88 |
|     194 | 0x0053      |          83 |
|     195 | 0x0054      |          84 |
|     196 | 0x0161      |         353 |
|     197 | 0x015C      |         348 |
|     198 | 0x016D      |         365 |
|     199 | 0x00C5      |         197 |
|     200 | 0x00C3      |         195 |
|     201 | 0x00C7      |         199 |
|     202 | 0x015E      |         350 |
|     203 | 0x00C4      |         196 |
|     204 | 0x016E      |         366 |
|     205 | 0x00D0      |         208 |
|     206 | 0x00CD      |         205 |
|     207 | 0x00CA      |         202 |
|     208 | 0x00D2      |         210 |
|     209 | 0x00D8      |         216 |
|     210 | 0x00D5      |         213 |
|     211 | 0x00D6      |         214 |
|     212 | 0x013B      |         315 |
|     213 | 0x0136      |         310 |
|     214 | 0x013A      |         314 |
|     215 | 0x0137      |         311 |
|     216 | 0x016F      |         367 |
|     217 | 0x0138      |         312 |
|     218 | 0x0139      |         313 |
|     219 | 0x009A      |         154 |
|     220 | 0x0091      |         145 |
|     221 | 0x009B      |         155 |
|     222 | 0x0099      |         153 |
|     223 | 0x0093      |         147 |
|     224 | 0x0092      |         146 |
|     225 | 0x0098      |         152 |
|     226 | 0x0071      |         113 |
|     227 | 0x00E8      |         232 |
|     228 | 0x00DD      |         221 |
|     229 | 0x00F8      |         248 |
|     230 | 0x00F1      |         241 |
|     231 | 0x0124      |         292 |
|     232 | 0x012E      |         302 |
|     233 | 0x0129      |         297 |
|     234 | 0x0122      |         290 |
|     235 | 0x0132      |         306 |
|     236 | 0x0126      |         294 |
|     237 | 0x0155      |         341 |
|     238 | 0x0025      |          37 |
|     239 | 0x0029      |          41 |
|     240 | 0x0028      |          40 |
|     241 | 0x007D      |         125 |
|     242 | 0x0079      |         121 |
|     243 | 0x007C      |         124 |
|     244 | 0x0074      |         116 |
|     245 | 0x00EC      |         236 |
|     246 | 0x019C      |         412 |
|     247 | 0x0193      |         403 |
|     248 | 0x01C6      |         454 |
|     249 | 0x01C7      |         455 |

## Events

### Event 65535

#### Metadata

| Field        | Value   |
|--------------|---------|
| Entrypoint   | 0x0000  |
| Data Size    | 1 bytes |
| Instructions | 1       |

```
      00 01 02 03 04 05 06 07  08 09 0A 0B 0C 0D 0E 0F
      -- -- -- -- -- -- -- --  -- -- -- -- -- -- -- --
0000: 00                                                .               
```

#### Opcodes

```
  0: 0x0000 [0x00] END_REQSTACK()
```

### Event 56

#### Metadata

| Field        | Value   |
|--------------|---------|
| Entrypoint   | 0x0001  |
| Data Size    | 1 bytes |
| Instructions | 1       |

```
      00 01 02 03 04 05 06 07  08 09 0A 0B 0C 0D 0E 0F
      -- -- -- -- -- -- -- --  -- -- -- -- -- -- -- --
0000:    00                                              .              
```

#### Opcodes

```
  0: 0x0001 [0x00] END_REQSTACK()
```

### Event 65535.1

#### Metadata

| Field        | Value       |
|--------------|-------------|
| Entrypoint   | 0x0002      |
| Data Size    | 18546 bytes |
| Instructions | 5           |

```
      00 01 02 03 04 05 06 07  08 09 0A 0B 0C 0D 0E 0F
      -- -- -- -- -- -- -- --  -- -- -- -- -- -- -- --
0000:       2F 00 F8 FF FF 7F  37 00 80 01 80 02 80 03    /.....7.......
0010: 80 22 00 80 F8 FF FF 7F  00 03 02 00 04 80 1A 64  .".............d
0020: 14 1A 6E 14 02 0B 00 04  80 80 27 01 02 01 00 04  ..n.......'.....
0030: 80 80 4B 00 B4 00 02 00  46 65 6C 69 7A 00 00 00  ..K.....Feliz...
0040: 00 00 00 00 00 00 00 00  01 24 01 02 01 00 05 80  .........$......
0050: 80 6A 00 B4 00 02 00 46  65 72 64 69 6E 61 6E 64  .j.....Ferdinand
0060: 00 00 00 00 00 00 00 01  24 01 02 01 00 06 80 80  ........$.......
0070: 89 00 B4 00 02 00 47 75  6E 6E 61 72 00 00 00 00  ......Gunnar....
0080: 00 00 00 00 00 00 01 24  01 02 01 00 07 80 80 A8  .......$........
0090: 00 B4 00 02 00 4D 61 73  73 69 6D 6F 00 00 00 00  .....Massimo....
00A0: 00 00 00 00 00 01 24 01  02 01 00 08 80 80 C7 00  ......$.........
00B0: B4 00 02 00 4F 6C 64 72  69 63 68 00 00 00 00 00  ....Oldrich.....
00C0: 00 00 00 00 01 24 01 02  01 00 09 80 80 E6 00 B4  .....$..........
00D0: 00 02 00 53 69 65 67 77  61 72 64 00 00 00 00 00  ...Siegward.....
00E0: 00 00 00 01 24 01 02 01  00 0A 80 80 05 01 B4 00  ....$...........
00F0: 02 00 54 68 65 6F 62 61  6C 64 00 00 00 00 00 00  ..Theobald......
0100: 00 00 01 24 01 02 01 00  0B 80 80 24 01 B4 00 02  ...$.......$....
0110: 00 5A 65 6E 6A 69 00 00  00 00 00 00 00 00 00 00  .Zenji..........
0120: 00 01 24 01 01 3C 08 02  0B 00 05 80 80 2A 02 02  ..$..<.......*..
0130: 01 00 04 80 80 4E 01 B4  00 02 00 41 6D 65 72 69  .....N.....Ameri
0140: 74 61 00 00 00 00 00 00  00 00 00 01 27 02 02 01  ta..........'...
0150: 00 05 80 80 6D 01 B4 00  02 00 42 65 61 74 72 69  ....m.....Beatri
0160: 63 65 00 00 00 00 00 00  00 00 01 27 02 02 01 00  ce.........'....
0170: 06 80 80 8C 01 B4 00 02  00 48 65 6E 72 69 65 74  .........Henriet
0180: 74 61 00 00 00 00 00 00  00 01 27 02 02 01 00 07  ta........'.....
0190: 80 80 AB 01 B4 00 02 00  4A 65 73 69 6D 61 65 00  ........Jesimae.
01A0: 00 00 00 00 00 00 00 00  01 27 02 02 01 00 08 80  .........'......
01B0: 80 CA 01 B4 00 02 00 4B  61 72 79 6E 00 00 00 00  .......Karyn....
01C0: 00 00 00 00 00 00 00 01  27 02 02 01 00 09 80 80  ........'.......
01D0: E9 01 B4 00 02 00 4E 61  6E 61 6B 6F 00 00 00 00  ......Nanako....
01E0: 00 00 00 00 00 00 01 27  02 02 01 00 0A 80 80 08  .......'........
01F0: 02 B4 00 02 00 53 68 61  72 6C 65 6E 65 00 00 00  .....Sharlene...
0200: 00 00 00 00 00 01 27 02  02 01 00 0B 80 80 27 02  ......'.......'.
0210: B4 00 02 00 53 69 65 67  68 69 6C 64 65 00 00 00  ....Sieghilde...
0220: 00 00 00 00 01 27 02 01  3C 08 02 0B 00 06 80 80  .....'..<.......
0230: 2D 03 02 01 00 04 80 80  51 02 B4 00 02 00 43 68  -.......Q.....Ch
0240: 61 6E 61 6E 64 69 74 00  00 00 00 00 00 00 01 2A  anandit........*
0250: 03 02 01 00 05 80 80 70  02 B4 00 02 00 44 65 75  .......p.....Deu
0260: 6C 6D 61 65 75 78 00 00  00 00 00 00 00 01 2A 03  lmaeux........*.
0270: 02 01 00 06 80 80 8F 02  B4 00 02 00 44 65 6D 72  ............Demr
0280: 65 73 69 6E 61 75 78 00  00 00 00 00 01 2A 03 02  esinaux......*..
0290: 01 00 07 80 80 AE 02 B4  00 02 00 45 70 68 65 61  ...........Ephea
02A0: 6C 67 61 75 78 00 00 00  00 00 00 01 2A 03 02 01  lgaux.......*...
02B0: 00 08 80 80 CD 02 B4 00  02 00 47 61 75 6C 64 65  ..........Gaulde
02C0: 76 61 6C 00 00 00 00 00  00 00 01 2A 03 02 01 00  val........*....
02D0: 09 80 80 EC 02 B4 00 02  00 47 72 61 75 66 66 65  .........Grauffe
02E0: 6D 61 72 74 00 00 00 00  00 01 2A 03 02 01 00 0A  mart......*.....
02F0: 80 80 0B 03 B4 00 02 00  4D 69 67 61 69 66 6F 6E  ........Migaifon
0300: 67 75 74 00 00 00 00 00  01 2A 03 02 01 00 0B 80  gut......*......
0310: 80 2A 03 B4 00 02 00 52  6F 6D 69 64 69 61 6E 74  .*.....Romidiant
0320: 00 00 00 00 00 00 00 01  2A 03 01 3C 08 02 0B 00  ........*..<....
0330: 07 80 80 30 04 02 01 00  04 80 80 54 03 B4 00 02  ...0.......T....
0340: 00 41 72 6D 69 74 74 69  65 00 00 00 00 00 00 00  .Armittie.......
0350: 00 01 2D 04 02 01 00 05  80 80 73 03 B4 00 02 00  ..-.......s.....
0360: 43 61 64 65 70 75 72 65  00 00 00 00 00 00 00 00  Cadepure........
0370: 01 2D 04 02 01 00 06 80  80 92 03 B4 00 02 00 43  .-.............C
0380: 6C 65 61 72 69 74 65 00  00 00 00 00 00 00 00 01  learite.........
0390: 2D 04 02 01 00 07 80 80  B1 03 B4 00 02 00 45 70  -.............Ep
03A0: 69 6C 6C 65 76 65 00 00  00 00 00 00 00 00 01 2D  illeve.........-
03B0: 04 02 01 00 08 80 80 D0  03 B4 00 02 00 4C 69 61  .............Lia
03C0: 62 65 6C 6C 65 00 00 00  00 00 00 00 00 01 2D 04  belle.........-.
03D0: 02 01 00 09 80 80 EF 03  B4 00 02 00 4E 61 75 74  ............Naut
03E0: 68 69 6D 61 00 00 00 00  00 00 00 00 01 2D 04 02  hima.........-..
03F0: 01 00 0A 80 80 0E 04 B4  00 02 00 52 61 64 69 6C  ...........Radil
0400: 6C 65 00 00 00 00 00 00  00 00 00 01 2D 04 02 01  le..........-...
0410: 00 0B 80 80 2D 04 B4 00  02 00 56 69 6D 65 63 68  ....-.....Vimech
0420: 75 65 00 00 00 00 00 00  00 00 01 2D 04 01 3C 08  ue.........-..<.
0430: 02 0B 00 08 80 80 33 05  02 01 00 04 80 80 57 04  ......3.......W.
0440: B4 00 02 00 42 61 6C 75  2D 46 61 6C 75 00 00 00  ....Balu-Falu...
0450: 00 00 00 00 01 30 05 02  01 00 05 80 80 76 04 B4  .....0.......v..
0460: 00 02 00 42 75 72 67 2D  4C 61 64 61 72 67 00 00  ...Burg-Ladarg..
0470: 00 00 00 01 30 05 02 01  00 06 80 80 95 04 B4 00  ....0...........
0480: 02 00 45 68 67 6F 2D 52  79 75 68 67 6F 00 00 00  ..Ehgo-Ryuhgo...
0490: 00 00 01 30 05 02 01 00  07 80 80 B4 04 B4 00 02  ...0............
04A0: 00 4B 6F 6C 75 69 2D 50  65 6C 75 69 00 00 00 00  .Kolui-Pelui....
04B0: 00 01 30 05 02 01 00 08  80 80 D3 04 B4 00 02 00  ..0.............
04C0: 4E 6F 6B 75 6D 2D 41 6B  6B 75 6D 00 00 00 00 00  Nokum-Akkum.....
04D0: 01 30 05 02 01 00 09 80  80 F2 04 B4 00 02 00 53  .0.............S
04E0: 61 76 75 6C 2D 4B 69 76  75 6C 00 00 00 00 00 01  avul-Kivul......
04F0: 30 05 02 01 00 0A 80 80  11 05 B4 00 02 00 56 69  0.............Vi
0500: 6E 6A 61 2D 4B 61 6E 6A  61 00 00 00 00 00 01 30  nja-Kanja......0
0510: 05 02 01 00 0B 80 80 30  05 B4 00 02 00 59 61 72  .......0.....Yar
0520: 67 61 2D 55 6D 69 67 61  00 00 00 00 00 01 30 05  ga-Umiga......0.
0530: 01 3C 08 02 0B 00 09 80  80 36 06 02 01 00 04 80  .<.......6......
0540: 80 5A 05 B4 00 02 00 43  75 70 61 70 61 00 00 00  .Z.....Cupapa...
0550: 00 00 00 00 00 00 00 01  33 06 02 01 00 05 80 80  ........3.......
0560: 79 05 B4 00 02 00 4A 61  6A 75 6A 75 00 00 00 00  y.....Jajuju....
0570: 00 00 00 00 00 00 01 33  06 02 01 00 06 80 80 98  .......3........
0580: 05 B4 00 02 00 4B 61 6C  6F 6B 6F 6B 6F 00 00 00  .....Kalokoko...
0590: 00 00 00 00 00 01 33 06  02 01 00 07 80 80 B7 05  ......3.........
05A0: B4 00 02 00 4D 61 68 6F  79 61 79 61 00 00 00 00  ....Mahoyaya....
05B0: 00 00 00 00 01 33 06 02  01 00 08 80 80 D6 05 B4  .....3..........
05C0: 00 02 00 50 61 6B 75 72  61 72 61 00 00 00 00 00  ...Pakurara.....
05D0: 00 00 00 01 33 06 02 01  00 09 80 80 F5 05 B4 00  ....3...........
05E0: 02 00 52 69 70 6F 6B 65  6B 65 00 00 00 00 00 00  ..Ripokeke......
05F0: 00 00 01 33 06 02 01 00  0A 80 80 14 06 B4 00 02  ...3............
0600: 00 59 61 77 61 77 61 00  00 00 00 00 00 00 00 00  .Yawawa.........
0610: 00 01 33 06 02 01 00 0B  80 80 33 06 B4 00 02 00  ..3.......3.....
0620: 59 75 66 61 66 61 00 00  00 00 00 00 00 00 00 00  Yufafa..........
0630: 01 33 06 01 3C 08 02 0B  00 0A 80 80 39 07 02 01  .3..<.......9...
0640: 00 04 80 80 5D 06 B4 00  02 00 46 68 69 67 00 00  ....].....Fhig..
0650: 00 00 00 00 00 00 00 00  00 00 01 36 07 02 01 00  ...........6....
0660: 05 80 80 7C 06 B4 00 02  00 4B 68 75 6D 61 00 00  ...|.....Khuma..
0670: 00 00 00 00 00 00 00 00  00 01 36 07 02 01 00 06  ..........6.....
0680: 80 80 9B 06 B4 00 02 00  50 69 6D 79 00 00 00 00  ........Pimy....
0690: 00 00 00 00 00 00 00 00  01 36 07 02 01 00 07 80  .........6......
06A0: 80 BA 06 B4 00 02 00 52  61 6B 61 00 00 00 00 00  .......Raka.....
06B0: 00 00 00 00 00 00 00 01  36 07 02 01 00 08 80 80  ........6.......
06C0: D9 06 B4 00 02 00 53 61  68 79 75 00 00 00 00 00  ......Sahyu.....
06D0: 00 00 00 00 00 00 01 36  07 02 01 00 09 80 80 F8  .......6........
06E0: 06 B4 00 02 00 53 75 66  68 69 00 00 00 00 00 00  .....Sufhi......
06F0: 00 00 00 00 00 01 36 07  02 01 00 0A 80 80 17 07  ......6.........
0700: B4 00 02 00 54 73 75 69  6D 00 00 00 00 00 00 00  ....Tsuim.......
0710: 00 00 00 00 01 36 07 02  01 00 0B 80 80 36 07 B4  .....6.......6..
0720: 00 02 00 59 6F 6C 69 00  00 00 00 00 00 00 00 00  ...Yoli.........
0730: 00 00 00 01 36 07 01 3C  08 02 0B 00 0B 80 80 3C  ....6..<.......<
0740: 08 02 01 00 04 80 80 60  07 B4 00 02 00 44 75 72  .......`.....Dur
0750: 69 62 00 00 00 00 00 00  00 00 00 00 00 01 39 08  ib............9.
0760: 02 01 00 05 80 80 7F 07  B4 00 02 00 44 7A 61 70  ............Dzap
0770: 69 77 61 00 00 00 00 00  00 00 00 00 01 39 08 02  iwa..........9..
0780: 01 00 06 80 80 9E 07 B4  00 02 00 4A 75 67 6F 77  ...........Jugow
0790: 61 00 00 00 00 00 00 00  00 00 00 01 39 08 02 01  a...........9...
07A0: 00 07 80 80 BD 07 B4 00  02 00 4D 75 67 69 64 6F  ..........Mugido
07B0: 00 00 00 00 00 00 00 00  00 00 01 39 08 02 01 00  ...........9....
07C0: 08 80 80 DC 07 B4 00 02  00 56 6F 6C 64 61 69 00  .........Voldai.
07D0: 00 00 00 00 00 00 00 00  00 01 39 08 02 01 00 09  ..........9.....
07E0: 80 80 FB 07 B4 00 02 00  57 61 67 77 65 69 00 00  ........Wagwei..
07F0: 00 00 00 00 00 00 00 00  01 39 08 02 01 00 0A 80  .........9......
0800: 80 1A 08 B4 00 02 00 5A  61 79 61 67 00 00 00 00  .......Zayag....
0810: 00 00 00 00 00 00 00 01  39 08 02 01 00 0B 80 80  ........9.......
0820: 39 08 B4 00 02 00 5A 6F  6C 64 6F 66 00 00 00 00  9.....Zoldof....
0830: 00 00 00 00 00 00 01 39  08 01 3C 08 02 02 00 04  .......9..<.....
0840: 80 01 48 08 B5 00 02 00  1B 03 02 00 04 80 1A 64  ..H............d
0850: 14 1A 6E 14 02 0B 00 04  80 80 57 09 02 01 00 04  ..n.......W.....
0860: 80 80 7B 08 B4 00 02 00  46 65 6C 69 7A 00 00 00  ..{.....Feliz...
0870: 00 00 00 00 00 00 00 00  01 54 09 02 01 00 05 80  .........T......
0880: 80 9A 08 B4 00 02 00 46  65 72 64 69 6E 61 6E 64  .......Ferdinand
0890: 00 00 00 00 00 00 00 01  54 09 02 01 00 06 80 80  ........T.......
08A0: B9 08 B4 00 02 00 47 75  6E 6E 61 72 00 00 00 00  ......Gunnar....
08B0: 00 00 00 00 00 00 01 54  09 02 01 00 07 80 80 D8  .......T........
08C0: 08 B4 00 02 00 4D 61 73  73 69 6D 6F 00 00 00 00  .....Massimo....
08D0: 00 00 00 00 00 01 54 09  02 01 00 08 80 80 F7 08  ......T.........
08E0: B4 00 02 00 4F 6C 64 72  69 63 68 00 00 00 00 00  ....Oldrich.....
08F0: 00 00 00 00 01 54 09 02  01 00 09 80 80 16 09 B4  .....T..........
0900: 00 02 00 53 69 65 67 77  61 72 64 00 00 00 00 00  ...Siegward.....
0910: 00 00 00 01 54 09 02 01  00 0A 80 80 35 09 B4 00  ....T.......5...
0920: 02 00 54 68 65 6F 62 61  6C 64 00 00 00 00 00 00  ..Theobald......
0930: 00 00 01 54 09 02 01 00  0B 80 80 54 09 B4 00 02  ...T.......T....
0940: 00 5A 65 6E 6A 69 00 00  00 00 00 00 00 00 00 00  .Zenji..........
0950: 00 01 54 09 01 6C 10 02  0B 00 05 80 80 5A 0A 02  ..T..l.......Z..
0960: 01 00 04 80 80 7E 09 B4  00 02 00 41 6D 65 72 69  .....~.....Ameri
0970: 74 61 00 00 00 00 00 00  00 00 00 01 57 0A 02 01  ta..........W...
0980: 00 05 80 80 9D 09 B4 00  02 00 42 65 61 74 72 69  ..........Beatri
0990: 63 65 00 00 00 00 00 00  00 00 01 57 0A 02 01 00  ce.........W....
09A0: 06 80 80 BC 09 B4 00 02  00 48 65 6E 72 69 65 74  .........Henriet
09B0: 74 61 00 00 00 00 00 00  00 01 57 0A 02 01 00 07  ta........W.....
09C0: 80 80 DB 09 B4 00 02 00  4A 65 73 69 6D 61 65 00  ........Jesimae.
09D0: 00 00 00 00 00 00 00 00  01 57 0A 02 01 00 08 80  .........W......
09E0: 80 FA 09 B4 00 02 00 4B  61 72 79 6E 00 00 00 00  .......Karyn....
09F0: 00 00 00 00 00 00 00 01  57 0A 02 01 00 09 80 80  ........W.......
0A00: 19 0A B4 00 02 00 4E 61  6E 61 6B 6F 00 00 00 00  ......Nanako....
0A10: 00 00 00 00 00 00 01 57  0A 02 01 00 0A 80 80 38  .......W.......8
0A20: 0A B4 00 02 00 53 68 61  72 6C 65 6E 65 00 00 00  .....Sharlene...
0A30: 00 00 00 00 00 01 57 0A  02 01 00 0B 80 80 57 0A  ......W.......W.
0A40: B4 00 02 00 53 69 65 67  68 69 6C 64 65 00 00 00  ....Sieghilde...
0A50: 00 00 00 00 01 57 0A 01  6C 10 02 0B 00 06 80 80  .....W..l.......
0A60: 5D 0B 02 01 00 04 80 80  81 0A B4 00 02 00 43 68  ].............Ch
0A70: 61 6E 61 6E 64 69 74 00  00 00 00 00 00 00 01 5A  anandit........Z
0A80: 0B 02 01 00 05 80 80 A0  0A B4 00 02 00 44 65 75  .............Deu
0A90: 6C 6D 61 65 75 78 00 00  00 00 00 00 00 01 5A 0B  lmaeux........Z.
0AA0: 02 01 00 06 80 80 BF 0A  B4 00 02 00 44 65 6D 72  ............Demr
0AB0: 65 73 69 6E 61 75 78 00  00 00 00 00 01 5A 0B 02  esinaux......Z..
0AC0: 01 00 07 80 80 DE 0A B4  00 02 00 45 70 68 65 61  ...........Ephea
0AD0: 6C 67 61 75 78 00 00 00  00 00 00 01 5A 0B 02 01  lgaux.......Z...
0AE0: 00 08 80 80 FD 0A B4 00  02 00 47 61 75 6C 64 65  ..........Gaulde
0AF0: 76 61 6C 00 00 00 00 00  00 00 01 5A 0B 02 01 00  val........Z....
0B00: 09 80 80 1C 0B B4 00 02  00 47 72 61 75 66 66 65  .........Grauffe
0B10: 6D 61 72 74 00 00 00 00  00 01 5A 0B 02 01 00 0A  mart......Z.....
0B20: 80 80 3B 0B B4 00 02 00  4D 69 67 61 69 66 6F 6E  ..;.....Migaifon
0B30: 67 75 74 00 00 00 00 00  01 5A 0B 02 01 00 0B 80  gut......Z......
0B40: 80 5A 0B B4 00 02 00 52  6F 6D 69 64 69 61 6E 74  .Z.....Romidiant
0B50: 00 00 00 00 00 00 00 01  5A 0B 01 6C 10 02 0B 00  ........Z..l....
0B60: 07 80 80 60 0C 02 01 00  04 80 80 84 0B B4 00 02  ...`............
0B70: 00 41 72 6D 69 74 74 69  65 00 00 00 00 00 00 00  .Armittie.......
0B80: 00 01 5D 0C 02 01 00 05  80 80 A3 0B B4 00 02 00  ..].............
0B90: 43 61 64 65 70 75 72 65  00 00 00 00 00 00 00 00  Cadepure........
0BA0: 01 5D 0C 02 01 00 06 80  80 C2 0B B4 00 02 00 43  .].............C
0BB0: 6C 65 61 72 69 74 65 00  00 00 00 00 00 00 00 01  learite.........
0BC0: 5D 0C 02 01 00 07 80 80  E1 0B B4 00 02 00 45 70  ].............Ep
0BD0: 69 6C 6C 65 76 65 00 00  00 00 00 00 00 00 01 5D  illeve.........]
0BE0: 0C 02 01 00 08 80 80 00  0C B4 00 02 00 4C 69 61  .............Lia
0BF0: 62 65 6C 6C 65 00 00 00  00 00 00 00 00 01 5D 0C  belle.........].
0C00: 02 01 00 09 80 80 1F 0C  B4 00 02 00 4E 61 75 74  ............Naut
0C10: 68 69 6D 61 00 00 00 00  00 00 00 00 01 5D 0C 02  hima.........]..
0C20: 01 00 0A 80 80 3E 0C B4  00 02 00 52 61 64 69 6C  .....>.....Radil
0C30: 6C 65 00 00 00 00 00 00  00 00 00 01 5D 0C 02 01  le..........]...
0C40: 00 0B 80 80 5D 0C B4 00  02 00 56 69 6D 65 63 68  ....].....Vimech
0C50: 75 65 00 00 00 00 00 00  00 00 01 5D 0C 01 6C 10  ue.........]..l.
0C60: 02 0B 00 08 80 80 63 0D  02 01 00 04 80 80 87 0C  ......c.........
0C70: B4 00 02 00 42 61 6C 75  2D 46 61 6C 75 00 00 00  ....Balu-Falu...
0C80: 00 00 00 00 01 60 0D 02  01 00 05 80 80 A6 0C B4  .....`..........
0C90: 00 02 00 42 75 72 67 2D  4C 61 64 61 72 67 00 00  ...Burg-Ladarg..
0CA0: 00 00 00 01 60 0D 02 01  00 06 80 80 C5 0C B4 00  ....`...........
0CB0: 02 00 45 68 67 6F 2D 52  79 75 68 67 6F 00 00 00  ..Ehgo-Ryuhgo...
0CC0: 00 00 01 60 0D 02 01 00  07 80 80 E4 0C B4 00 02  ...`............
0CD0: 00 4B 6F 6C 75 69 2D 50  65 6C 75 69 00 00 00 00  .Kolui-Pelui....
0CE0: 00 01 60 0D 02 01 00 08  80 80 03 0D B4 00 02 00  ..`.............
0CF0: 4E 6F 6B 75 6D 2D 41 6B  6B 75 6D 00 00 00 00 00  Nokum-Akkum.....
0D00: 01 60 0D 02 01 00 09 80  80 22 0D B4 00 02 00 53  .`.......".....S
0D10: 61 76 75 6C 2D 4B 69 76  75 6C 00 00 00 00 00 01  avul-Kivul......
0D20: 60 0D 02 01 00 0A 80 80  41 0D B4 00 02 00 56 69  `.......A.....Vi
0D30: 6E 6A 61 2D 4B 61 6E 6A  61 00 00 00 00 00 01 60  nja-Kanja......`
0D40: 0D 02 01 00 0B 80 80 60  0D B4 00 02 00 59 61 72  .......`.....Yar
0D50: 67 61 2D 55 6D 69 67 61  00 00 00 00 00 01 60 0D  ga-Umiga......`.
0D60: 01 6C 10 02 0B 00 09 80  80 66 0E 02 01 00 04 80  .l.......f......
0D70: 80 8A 0D B4 00 02 00 43  75 70 61 70 61 00 00 00  .......Cupapa...
0D80: 00 00 00 00 00 00 00 01  63 0E 02 01 00 05 80 80  ........c.......
0D90: A9 0D B4 00 02 00 4A 61  6A 75 6A 75 00 00 00 00  ......Jajuju....
0DA0: 00 00 00 00 00 00 01 63  0E 02 01 00 06 80 80 C8  .......c........
0DB0: 0D B4 00 02 00 4B 61 6C  6F 6B 6F 6B 6F 00 00 00  .....Kalokoko...
0DC0: 00 00 00 00 00 01 63 0E  02 01 00 07 80 80 E7 0D  ......c.........
0DD0: B4 00 02 00 4D 61 68 6F  79 61 79 61 00 00 00 00  ....Mahoyaya....
0DE0: 00 00 00 00 01 63 0E 02  01 00 08 80 80 06 0E B4  .....c..........
0DF0: 00 02 00 50 61 6B 75 72  61 72 61 00 00 00 00 00  ...Pakurara.....
0E00: 00 00 00 01 63 0E 02 01  00 09 80 80 25 0E B4 00  ....c.......%...
0E10: 02 00 52 69 70 6F 6B 65  6B 65 00 00 00 00 00 00  ..Ripokeke......
0E20: 00 00 01 63 0E 02 01 00  0A 80 80 44 0E B4 00 02  ...c.......D....
0E30: 00 59 61 77 61 77 61 00  00 00 00 00 00 00 00 00  .Yawawa.........
0E40: 00 01 63 0E 02 01 00 0B  80 80 63 0E B4 00 02 00  ..c.......c.....
0E50: 59 75 66 61 66 61 00 00  00 00 00 00 00 00 00 00  Yufafa..........
0E60: 01 63 0E 01 6C 10 02 0B  00 0A 80 80 69 0F 02 01  .c..l.......i...
0E70: 00 04 80 80 8D 0E B4 00  02 00 46 68 69 67 00 00  ..........Fhig..
0E80: 00 00 00 00 00 00 00 00  00 00 01 66 0F 02 01 00  ...........f....
0E90: 05 80 80 AC 0E B4 00 02  00 4B 68 75 6D 61 00 00  .........Khuma..
0EA0: 00 00 00 00 00 00 00 00  00 01 66 0F 02 01 00 06  ..........f.....
0EB0: 80 80 CB 0E B4 00 02 00  50 69 6D 79 00 00 00 00  ........Pimy....
0EC0: 00 00 00 00 00 00 00 00  01 66 0F 02 01 00 07 80  .........f......
0ED0: 80 EA 0E B4 00 02 00 52  61 6B 61 00 00 00 00 00  .......Raka.....
0EE0: 00 00 00 00 00 00 00 01  66 0F 02 01 00 08 80 80  ........f.......
0EF0: 09 0F B4 00 02 00 53 61  68 79 75 00 00 00 00 00  ......Sahyu.....
0F00: 00 00 00 00 00 00 01 66  0F 02 01 00 09 80 80 28  .......f.......(
0F10: 0F B4 00 02 00 53 75 66  68 69 00 00 00 00 00 00  .....Sufhi......
0F20: 00 00 00 00 00 01 66 0F  02 01 00 0A 80 80 47 0F  ......f.......G.
0F30: B4 00 02 00 54 73 75 69  6D 00 00 00 00 00 00 00  ....Tsuim.......
0F40: 00 00 00 00 01 66 0F 02  01 00 0B 80 80 66 0F B4  .....f.......f..
0F50: 00 02 00 59 6F 6C 69 00  00 00 00 00 00 00 00 00  ...Yoli.........
0F60: 00 00 00 01 66 0F 01 6C  10 02 0B 00 0B 80 80 6C  ....f..l.......l
0F70: 10 02 01 00 04 80 80 90  0F B4 00 02 00 44 75 72  .............Dur
0F80: 69 62 00 00 00 00 00 00  00 00 00 00 00 01 69 10  ib............i.
0F90: 02 01 00 05 80 80 AF 0F  B4 00 02 00 44 7A 61 70  ............Dzap
0FA0: 69 77 61 00 00 00 00 00  00 00 00 00 01 69 10 02  iwa..........i..
0FB0: 01 00 06 80 80 CE 0F B4  00 02 00 4A 75 67 6F 77  ...........Jugow
0FC0: 61 00 00 00 00 00 00 00  00 00 00 01 69 10 02 01  a...........i...
0FD0: 00 07 80 80 ED 0F B4 00  02 00 4D 75 67 69 64 6F  ..........Mugido
0FE0: 00 00 00 00 00 00 00 00  00 00 01 69 10 02 01 00  ...........i....
0FF0: 08 80 80 0C 10 B4 00 02  00 56 6F 6C 64 61 69 00  .........Voldai.
1000: 00 00 00 00 00 00 00 00  00 01 69 10 02 01 00 09  ..........i.....
1010: 80 80 2B 10 B4 00 02 00  57 61 67 77 65 69 00 00  ..+.....Wagwei..
1020: 00 00 00 00 00 00 00 00  01 69 10 02 01 00 0A 80  .........i......
1030: 80 4A 10 B4 00 02 00 5A  61 79 61 67 00 00 00 00  .J.....Zayag....
1040: 00 00 00 00 00 00 00 01  69 10 02 01 00 0B 80 80  ........i.......
1050: 69 10 B4 00 02 00 5A 6F  6C 64 6F 66 00 00 00 00  i.....Zoldof....
1060: 00 00 00 00 00 00 01 69  10 01 6C 10 02 02 00 04  .......i..l.....
1070: 80 01 78 10 B5 00 02 00  1B 1A 3F 14 02 09 00 04  ..x.......?.....
1080: 80 02 44 12 02 0B 00 04  80 80 BC 10 02 09 00 05  ..D.............
1090: 80 80 9B 10 B6 0F 0C 80  01 B9 10 02 09 00 06 80  ................
10A0: 80 AA 10 B6 0F 0D 80 01  B9 10 02 09 00 07 80 80  ................
10B0: B9 10 B6 0F 0E 80 01 B9  10 01 44 12 02 0B 00 05  ..........D.....
10C0: 80 80 F4 10 02 09 00 05  80 80 D3 10 B6 0F 0C 80  ................
10D0: 01 F1 10 02 09 00 06 80  80 E2 10 B6 0F 0D 80 01  ................
10E0: F1 10 02 09 00 07 80 80  F1 10 B6 0F 0E 80 01 F1  ................
10F0: 10 01 44 12 02 0B 00 06  80 80 2C 11 02 09 00 05  ..D.......,.....
1100: 80 80 0B 11 B6 0F 0C 80  01 29 11 02 09 00 06 80  .........)......
1110: 80 1A 11 B6 0F 0D 80 01  29 11 02 09 00 07 80 80  ........).......
1120: 29 11 B6 0F 0E 80 01 29  11 01 44 12 02 0B 00 07  )......)..D.....
1130: 80 80 64 11 02 09 00 05  80 80 43 11 B6 0F 0C 80  ..d.......C.....
1140: 01 61 11 02 09 00 06 80  80 52 11 B6 0F 0D 80 01  .a.......R......
1150: 61 11 02 09 00 07 80 80  61 11 B6 0F 0E 80 01 61  a.......a......a
1160: 11 01 44 12 02 0B 00 08  80 80 9C 11 02 09 00 05  ..D.............
1170: 80 80 7B 11 B6 0F 0F 80  01 99 11 02 09 00 06 80  ..{.............
1180: 80 8A 11 B6 0F 10 80 01  99 11 02 09 00 07 80 80  ................
1190: 99 11 B6 0F 11 80 01 99  11 01 44 12 02 0B 00 09  ..........D.....
11A0: 80 80 D4 11 02 09 00 05  80 80 B3 11 B6 0F 0F 80  ................
11B0: 01 D1 11 02 09 00 06 80  80 C2 11 B6 0F 10 80 01  ................
11C0: D1 11 02 09 00 07 80 80  D1 11 B6 0F 11 80 01 D1  ................
11D0: 11 01 44 12 02 0B 00 0A  80 80 0C 12 02 09 00 05  ..D.............
11E0: 80 80 EB 11 B6 0F 12 80  01 09 12 02 09 00 06 80  ................
11F0: 80 FA 11 B6 0F 13 80 01  09 12 02 09 00 07 80 80  ................
1200: 09 12 B6 0F 14 80 01 09  12 01 44 12 02 0B 00 0B  ..........D.....
1210: 80 80 44 12 02 09 00 05  80 80 23 12 B6 0F 11 80  ..D.......#.....
1220: 01 41 12 02 09 00 06 80  80 32 12 B6 0F 15 80 01  .A.......2......
1230: 41 12 02 09 00 07 80 80  41 12 B6 0F 0D 80 01 41  A.......A......A
1240: 12 01 44 12 0B 0B 00 B6  0B 0B 00 0C 00 0D 00 0E  ..D.............
1250: 00 0F 00 10 00 11 00 04  80 04 80 1B 1A 3F 14 02  .............?..
1260: 09 00 04 80 02 27 14 02  0B 00 04 80 80 9F 12 02  .....'..........
1270: 09 00 05 80 80 7E 12 B6  0F 0C 80 01 9C 12 02 09  .....~..........
1280: 00 06 80 80 8D 12 B6 0F  0D 80 01 9C 12 02 09 00  ................
1290: 07 80 80 9C 12 B6 0F 0E  80 01 9C 12 01 27 14 02  .............'..
12A0: 0B 00 05 80 80 D7 12 02  09 00 05 80 80 B6 12 B6  ................
12B0: 0F 0C 80 01 D4 12 02 09  00 06 80 80 C5 12 B6 0F  ................
12C0: 0D 80 01 D4 12 02 09 00  07 80 80 D4 12 B6 0F 0E  ................
12D0: 80 01 D4 12 01 27 14 02  0B 00 06 80 80 0F 13 02  .....'..........
12E0: 09 00 05 80 80 EE 12 B6  0F 0C 80 01 0C 13 02 09  ................
12F0: 00 06 80 80 FD 12 B6 0F  0D 80 01 0C 13 02 09 00  ................
1300: 07 80 80 0C 13 B6 0F 0E  80 01 0C 13 01 27 14 02  .............'..
1310: 0B 00 07 80 80 47 13 02  09 00 05 80 80 26 13 B6  .....G.......&..
1320: 0F 0C 80 01 44 13 02 09  00 06 80 80 35 13 B6 0F  ....D.......5...
1330: 0D 80 01 44 13 02 09 00  07 80 80 44 13 B6 0F 0E  ...D.......D....
1340: 80 01 44 13 01 27 14 02  0B 00 08 80 80 7F 13 02  ..D..'..........
1350: 09 00 05 80 80 5E 13 B6  0F 0F 80 01 7C 13 02 09  .....^......|...
1360: 00 06 80 80 6D 13 B6 0F  10 80 01 7C 13 02 09 00  ....m......|....
1370: 07 80 80 7C 13 B6 0F 11  80 01 7C 13 01 27 14 02  ...|......|..'..
1380: 0B 00 09 80 80 B7 13 02  09 00 05 80 80 96 13 B6  ................
1390: 0F 0F 80 01 B4 13 02 09  00 06 80 80 A5 13 B6 0F  ................
13A0: 10 80 01 B4 13 02 09 00  07 80 80 B4 13 B6 0F 11  ................
13B0: 80 01 B4 13 01 27 14 02  0B 00 0A 80 80 EF 13 02  .....'..........
13C0: 09 00 05 80 80 CE 13 B6  0F 12 80 01 EC 13 02 09  ................
13D0: 00 06 80 80 DD 13 B6 0F  13 80 01 EC 13 02 09 00  ................
13E0: 07 80 80 EC 13 B6 0F 14  80 01 EC 13 01 27 14 02  .............'..
13F0: 0B 00 0B 80 80 27 14 02  09 00 05 80 80 06 14 B6  .....'..........
1400: 0F 11 80 01 24 14 02 09  00 06 80 80 15 14 B6 0F  ....$...........
1410: 15 80 01 24 14 02 09 00  07 80 80 24 14 B6 0F 0D  ...$.......$....
1420: 80 01 24 14 01 27 14 0B  0B 00 B6 0B 0B 00 0C 00  ..$..'..........
1430: 0D 00 0E 00 0F 00 10 00  11 00 12 00 13 00 1B 1A  ................
1440: 6E 14 1A 63 15 1A 59 15  1A BA 19 1A CF 19 1A EF  n..c..Y.........
1450: 19 1A 0F 1A 1A 2F 1A 1A  5C 19 1A 7C 19 1A 4F 1A  ...../..\..|..O.
1460: 1A 77 1A 1B 41 04 80 07  80 09 10 01 00 1B 41 08  .w..A.........A.
1470: 80 0A 80 09 10 0B 00 03  1E 17 04 80 02 0B 00 04  ................
1480: 80 80 8C 14 03 1F 17 04  80 01 FC 14 02 0B 00 05  ................
1490: 80 80 9C 14 03 1F 17 05  80 01 FC 14 02 0B 00 06  ................
14A0: 80 80 AC 14 03 1F 17 04  80 01 FC 14 02 0B 00 07  ................
14B0: 80 80 BC 14 03 1F 17 05  80 01 FC 14 02 0B 00 08  ................
14C0: 80 80 CC 14 03 1F 17 04  80 01 FC 14 02 0B 00 09  ................
14D0: 80 80 DC 14 03 1F 17 05  80 01 FC 14 02 0B 00 0A  ................
14E0: 80 80 EC 14 03 1F 17 05  80 01 FC 14 02 0B 00 0B  ................
14F0: 80 80 FC 14 03 1F 17 04  80 01 FC 14 02 1F 17 05  ................
1500: 80 00 44 15 02 87 7F 06  80 80 14 15 03 1E 17 05  ..D.............
1510: 80 01 44 15 02 87 7F 08  80 80 24 15 03 1E 17 05  ..D.......$.....
1520: 80 01 44 15 02 87 7F 0A  80 80 34 15 03 1E 17 05  ..D.......4.....
1530: 80 01 44 15 02 87 7F 0B  80 80 44 15 03 1E 17 05  ..D.......D.....
1540: 80 01 44 15 1B 41 16 80  17 80 09 10 06 00 1B 41  ..D..A.........A
1550: 18 80 19 80 09 10 08 00  1B 41 1A 80 1B 80 09 10  .........A......
1560: 09 00 1B 1A 6E 14 1A 45  15 02 06 00 04 80 00 7D  ....n..E.......}
1570: 15 41 1C 80 1D 80 09 10  0C 00 01 BD 18 02 0B 00  .A..............
1580: 04 80 80 E5 15 02 06 00  05 80 80 A4 15 3E 09 10  .............>..
1590: 0B 80 9C 15 03 0C 00 19  80 01 A1 15 03 0C 00 1E  ................
15A0: 80 01 E2 15 02 06 00 06  80 80 C3 15 3E 09 10 0B  ............>...
15B0: 80 BB 15 03 0C 00 09 80  01 C0 15 03 0C 00 08 80  ................
15C0: 01 E2 15 02 06 00 07 80  80 E2 15 3E 09 10 0B 80  ...........>....
15D0: DA 15 03 0C 00 05 80 01  DF 15 03 0C 00 04 80 01  ................
15E0: E2 15 01 BD 18 02 0B 00  05 80 80 4D 16 02 06 00  ...........M....
15F0: 05 80 80 0C 16 3E 09 10  0B 80 04 16 03 0C 00 05  .....>..........
1600: 80 01 09 16 03 0C 00 04  80 01 4A 16 02 06 00 06  ..........J.....
1610: 80 80 2B 16 3E 09 10 0B  80 23 16 03 0C 00 09 80  ..+.>....#......
1620: 01 28 16 03 0C 00 08 80  01 4A 16 02 06 00 07 80  .(.......J......
1630: 80 4A 16 3E 09 10 0B 80  42 16 03 0C 00 07 80 01  .J.>....B.......
1640: 47 16 03 0C 00 06 80 01  4A 16 01 BD 18 02 0B 00  G.......J.......
1650: 06 80 80 B5 16 02 06 00  05 80 80 74 16 3E 09 10  ...........t.>..
1660: 0B 80 6C 16 03 0C 00 07  80 01 71 16 03 0C 00 06  ..l.......q.....
1670: 80 01 B2 16 02 06 00 06  80 80 93 16 3E 09 10 0B  ............>...
1680: 80 8B 16 03 0C 00 1F 80  01 90 16 03 0C 00 20 80  .............. .
1690: 01 B2 16 02 06 00 07 80  80 B2 16 3E 09 10 0B 80  ...........>....
16A0: AA 16 03 0C 00 19 80 01  AF 16 03 0C 00 1E 80 01  ................
16B0: B2 16 01 BD 18 02 0B 00  07 80 80 1D 17 02 06 00  ................
16C0: 05 80 80 DC 16 3E 09 10  0B 80 D4 16 03 0C 00 05  .....>..........
16D0: 80 01 D9 16 03 0C 00 04  80 01 1A 17 02 06 00 06  ................
16E0: 80 80 FB 16 3E 09 10 0B  80 F3 16 03 0C 00 21 80  ....>.........!.
16F0: 01 F8 16 03 0C 00 18 80  01 1A 17 02 06 00 07 80  ................
1700: 80 1A 17 3E 09 10 0B 80  12 17 03 0C 00 0B 80 01  ...>............
1710: 17 17 03 0C 00 0A 80 01  1A 17 01 BD 18 02 0B 00  ................
1720: 08 80 80 85 17 02 06 00  05 80 80 44 17 3E 09 10  ...........D.>..
1730: 0B 80 3C 17 03 0C 00 09  80 01 41 17 03 0C 00 08  ..<.......A.....
1740: 80 01 82 17 02 06 00 06  80 80 63 17 3E 09 10 0B  ..........c.>...
1750: 80 5B 17 03 0C 00 07 80  01 60 17 03 0C 00 06 80  .[.......`......
1760: 01 82 17 02 06 00 07 80  80 82 17 3E 09 10 0B 80  ...........>....
1770: 7A 17 03 0C 00 0B 80 01  7F 17 03 0C 00 0A 80 01  z...............
1780: 82 17 01 BD 18 02 0B 00  09 80 80 ED 17 02 06 00  ................
1790: 05 80 80 AC 17 3E 09 10  0B 80 A4 17 03 0C 00 07  .....>..........
17A0: 80 01 A9 17 03 0C 00 06  80 01 EA 17 02 06 00 06  ................
17B0: 80 80 CB 17 3E 09 10 0B  80 C3 17 03 0C 00 0B 80  ....>...........
17C0: 01 C8 17 03 0C 00 0A 80  01 EA 17 02 06 00 07 80  ................
17D0: 80 EA 17 3E 09 10 0B 80  E2 17 03 0C 00 05 80 01  ...>............
17E0: E7 17 03 0C 00 04 80 01  EA 17 01 BD 18 02 0B 00  ................
17F0: 0A 80 80 55 18 02 06 00  05 80 80 14 18 3E 09 10  ...U.........>..
1800: 0B 80 0C 18 03 0C 00 17  80 01 11 18 03 0C 00 16  ................
1810: 80 01 52 18 02 06 00 06  80 80 33 18 3E 09 10 0B  ..R.......3.>...
1820: 80 2B 18 03 0C 00 21 80  01 30 18 03 0C 00 18 80  .+....!..0......
1830: 01 52 18 02 06 00 07 80  80 52 18 3E 09 10 0B 80  .R.......R.>....
1840: 4A 18 03 0C 00 19 80 01  4F 18 03 0C 00 1E 80 01  J.......O.......
1850: 52 18 01 BD 18 02 0B 00  0B 80 80 BD 18 02 06 00  R...............
1860: 05 80 80 7C 18 3E 09 10  0B 80 74 18 03 0C 00 09  ...|.>....t.....
1870: 80 01 79 18 03 0C 00 08  80 01 BA 18 02 06 00 06  ..y.............
1880: 80 80 9B 18 3E 09 10 0B  80 93 18 03 0C 00 19 80  ....>...........
1890: 01 98 18 03 0C 00 1E 80  01 BA 18 02 06 00 07 80  ................
18A0: 80 BA 18 3E 09 10 0B 80  B2 18 03 0C 00 21 80 01  ...>.........!..
18B0: B7 18 03 0C 00 18 80 01  BA 18 01 BD 18 1B 40 22  ..............@"
18C0: 80 23 80 01 10 05 80 43  00 43 01 1B 40 22 80 23  .#.....C.C..@".#
18D0: 80 01 10 06 80 43 00 43  01 1B 40 22 80 23 80 01  .....C.C..@".#..
18E0: 10 07 80 43 00 43 01 1B  40 22 80 23 80 01 10 08  ...C.C..@".#....
18F0: 80 43 00 43 01 1B 40 22  80 23 80 01 10 09 80 43  .C.C..@".#.....C
1900: 00 43 01 1B 40 22 80 23  80 01 10 0A 80 43 00 43  .C..@".#.....C.C
1910: 01 1B 40 22 80 23 80 01  10 0B 80 43 00 43 01 1B  ..@".#.....C.C..
1920: 40 22 80 23 80 01 10 16  80 43 00 43 01 1B 40 22  @".#.....C.C..@"
1930: 80 23 80 01 10 18 80 43  00 43 01 1B 1A 6E 14 03  .#.....C.C...n..
1940: 0A 00 0B 00 02 0A 00 09  80 04 51 19 08 0A 00 05  ..........Q.....
1950: 80 14 0A 00 18 80 07 0A  00 17 80 1B 03 16 00 04  ................
1960: 80 03 17 00 04 80 41 1C  80 1D 80 08 10 16 00 41  ......A........A
1970: 04 80 07 80 07 10 17 00  1A 02 40 1B 03 16 00 04  ..........@.....
1980: 80 41 22 80 24 80 08 10  16 00 3E 07 10 1C 80 A0  .A".$.....>.....
1990: 19 41 04 80 07 80 07 10  17 00 1A EA 45 01 B9 19  .A..........E...
19A0: 41 04 80 07 80 07 10 17  00 02 17 00 04 80 80 B4  A...............
19B0: 19 01 B9 19 03 13 00 04  80 1B 03 16 00 04 80 41  ...............A
19C0: 04 80 07 80 08 10 16 00  1A 4F 15 1A 49 2B 1B 03  .........O..I+..
19D0: 15 00 04 80 03 16 00 04  80 41 0A 80 0B 80 07 10  .........A......
19E0: 15 00 41 08 80 0B 80 08  10 16 00 1A 4E 33 1B 03  ..A.........N3..
19F0: 15 00 04 80 03 16 00 04  80 41 16 80 17 80 07 10  .........A......
1A00: 15 00 41 16 80 21 80 08  10 16 00 1A 7B 36 1B 03  ..A..!......{6..
1A10: 15 00 04 80 03 16 00 04  80 41 18 80 21 80 07 10  .........A..!...
1A20: 15 00 41 1E 80 1F 80 08  10 16 00 1A A8 39 1B 03  ..A..........9..
1A30: 15 00 04 80 03 16 00 04  80 41 1E 80 19 80 07 10  .........A......
1A40: 15 00 41 25 80 1B 80 08  10 16 00 1A D5 3C 1B 41  ..A%.........<.A
1A50: 04 80 07 80 06 10 14 00  1A 6E 14 1A C6 46 41 08  .........n...FA.
1A60: 80 0B 80 06 10 14 00 1A  C9 47 41 16 80 21 80 06  .........GA..!..
1A70: 10 14 00 1A 13 48 1B 41  26 80 22 80 07 10 00 00  .....H.A&.".....
1A80: 02 00 00 05 80 80 90 1A  03 12 00 27 80 01 D9 1B  ...........'....
1A90: 02 00 00 06 80 80 A0 1A  03 12 00 28 80 01 D9 1B  ...........(....
1AA0: 02 00 00 07 80 80 B0 1A  03 12 00 29 80 01 D9 1B  ...........)....
1AB0: 02 00 00 08 80 80 C0 1A  03 12 00 2A 80 01 D9 1B  ...........*....
1AC0: 02 00 00 09 80 80 D0 1A  03 12 00 2B 80 01 D9 1B  ...........+....
1AD0: 02 00 00 0A 80 80 E0 1A  03 12 00 2C 80 01 D9 1B  ...........,....
1AE0: 02 00 00 0B 80 80 D9 1B  41 04 80 0B 80 03 10 00  ........A.......
1AF0: 00 02 00 00 04 80 80 01  1B 03 12 00 27 80 01 D6  ............'...
1B00: 1B 02 00 00 05 80 80 11  1B 03 12 00 2D 80 01 D6  ............-...
1B10: 1B 02 00 00 06 80 80 21  1B 03 12 00 2E 80 01 D6  .......!........
1B20: 1B 02 00 00 07 80 80 31  1B 03 12 00 2F 80 01 D6  .......1..../...
1B30: 1B 02 00 00 08 80 80 41  1B 03 12 00 30 80 01 D6  .......A....0...
1B40: 1B 02 00 00 09 80 80 51  1B 03 12 00 31 80 01 D6  .......Q....1...
1B50: 1B 02 00 00 0A 80 80 61  1B 03 12 00 32 80 01 D6  .......a....2...
1B60: 1B 02 00 00 0B 80 80 76  1B 03 12 00 33 80 03 13  .......v....3...
1B70: 00 33 80 01 D6 1B 02 00  00 16 80 80 86 1B 03 12  .3..............
1B80: 00 34 80 01 D6 1B 02 00  00 17 80 80 96 1B 03 12  .4..............
1B90: 00 35 80 01 D6 1B 02 00  00 18 80 80 A6 1B 03 12  .5..............
1BA0: 00 36 80 01 D6 1B 02 00  00 21 80 80 B6 1B 03 12  .6.......!......
1BB0: 00 37 80 01 D6 1B 02 00  00 1E 80 80 C6 1B 03 12  .7..............
1BC0: 00 38 80 01 D6 1B 02 00  00 19 80 80 D6 1B 03 12  .8..............
1BD0: 00 39 80 01 D6 1B 01 D9  1B 3E 03 10 16 80 69 1C  .9.......>....i.
1BE0: 41 17 80 1F 80 03 10 00  00 02 00 00 04 80 80 F9  A...............
1BF0: 1B 03 13 00 3A 80 01 69  1C 02 00 00 05 80 80 09  ....:..i........
1C00: 1C 03 13 00 3B 80 01 69  1C 02 00 00 06 80 80 19  ....;..i........
1C10: 1C 03 13 00 3C 80 01 69  1C 02 00 00 07 80 80 29  ....<..i.......)
1C20: 1C 03 13 00 3D 80 01 69  1C 02 00 00 08 80 80 39  ....=..i.......9
1C30: 1C 03 13 00 3E 80 01 69  1C 02 00 00 09 80 80 49  ....>..i.......I
1C40: 1C 03 13 00 3F 80 01 69  1C 02 00 00 0A 80 80 59  ....?..i.......Y
1C50: 1C 03 13 00 40 80 01 69  1C 02 00 00 0B 80 80 69  ....@..i.......i
1C60: 1C 03 13 00 41 80 01 69  1C 41 42 80 24 80 07 10  ....A..i.AB.$...
1C70: 00 00 02 00 00 05 80 80  82 1C 03 0D 00 43 80 01  .............C..
1C80: 31 1E 02 00 00 06 80 80  92 1C 03 0D 00 44 80 01  1............D..
1C90: 31 1E 02 00 00 07 80 80  A2 1C 03 0D 00 45 80 01  1............E..
1CA0: 31 1E 02 00 00 08 80 80  B2 1C 03 0D 00 46 80 01  1............F..
1CB0: 31 1E 02 00 00 09 80 80  C2 1C 03 0D 00 47 80 01  1............G..
1CC0: 31 1E 02 00 00 0A 80 80  D2 1C 03 0D 00 48 80 01  1............H..
1CD0: 31 1E 02 00 00 0B 80 80  31 1E 41 25 80 1D 80 03  1.......1.A%....
1CE0: 10 00 00 02 00 00 04 80  80 6E 1D 02 0B 00 04 80  .........n......
1CF0: 80 FB 1C 03 0D 00 49 80  01 6B 1D 02 0B 00 05 80  ......I..k......
1D00: 80 0B 1D 03 0D 00 2B 80  01 6B 1D 02 0B 00 06 80  ......+..k......
1D10: 80 1B 1D 03 0D 00 49 80  01 6B 1D 02 0B 00 07 80  ......I..k......
1D20: 80 2B 1D 03 0D 00 2B 80  01 6B 1D 02 0B 00 08 80  .+....+..k......
1D30: 80 3B 1D 03 0D 00 49 80  01 6B 1D 02 0B 00 09 80  .;....I..k......
1D40: 80 4B 1D 03 0D 00 2B 80  01 6B 1D 02 0B 00 0A 80  .K....+..k......
1D50: 80 5B 1D 03 0D 00 2B 80  01 6B 1D 02 0B 00 0B 80  .[....+..k......
1D60: 80 6B 1D 03 0D 00 49 80  01 6B 1D 01 2E 1E 02 00  .k....I..k......
1D70: 00 05 80 80 7E 1D 03 0D  00 4A 80 01 2E 1E 02 00  ....~....J......
1D80: 00 06 80 80 8E 1D 03 0D  00 4B 80 01 2E 1E 02 00  .........K......
1D90: 00 07 80 80 9E 1D 03 0D  00 29 80 01 2E 1E 02 00  .........)......
1DA0: 00 08 80 80 AE 1D 03 0D  00 2A 80 01 2E 1E 02 00  .........*......
1DB0: 00 09 80 80 BE 1D 03 0D  00 4C 80 01 2E 1E 02 00  .........L......
1DC0: 00 0A 80 80 CE 1D 03 0D  00 48 80 01 2E 1E 02 00  .........H......
1DD0: 00 0B 80 80 DE 1D 03 0D  00 48 80 01 2E 1E 02 00  .........H......
1DE0: 00 16 80 80 EE 1D 03 0D  00 4D 80 01 2E 1E 02 00  .........M......
1DF0: 00 17 80 80 FE 1D 03 0D  00 4E 80 01 2E 1E 02 00  .........N......
1E00: 00 18 80 80 0E 1E 03 0D  00 4F 80 01 2E 1E 02 00  .........O......
1E10: 00 21 80 80 1E 1E 03 0D  00 50 80 01 2E 1E 02 00  .!.......P......
1E20: 00 1E 80 80 2E 1E 03 0D  00 51 80 01 2E 1E 01 31  .........Q.....1
1E30: 1E 41 52 80 23 80 07 10  00 00 02 00 00 17 80 80  .AR.#...........
1E40: 59 1E 03 0E 00 53 80 03  0F 00 53 80 03 10 00 53  Y....S....S....S
1E50: 80 03 11 00 53 80 01 48  2B 02 00 00 18 80 80 5C  ....S..H+......\
1E60: 1F 02 0B 00 04 80 80 80  1E 03 0E 00 54 80 03 0F  ............T...
1E70: 00 54 80 03 10 00 54 80  03 11 00 54 80 01 59 1F  .T....T....T..Y.
1E80: 02 0B 00 05 80 80 9F 1E  03 0E 00 55 80 03 0F 00  ...........U....
1E90: 55 80 03 10 00 55 80 03  11 00 55 80 01 59 1F 02  U....U....U..Y..
1EA0: 0B 00 06 80 80 BE 1E 03  0E 00 54 80 03 0F 00 54  ..........T....T
1EB0: 80 03 10 00 54 80 03 11  00 54 80 01 59 1F 02 0B  ....T....T..Y...
1EC0: 00 07 80 80 DD 1E 03 0E  00 55 80 03 0F 00 55 80  .........U....U.
1ED0: 03 10 00 55 80 03 11 00  55 80 01 59 1F 02 0B 00  ...U....U..Y....
1EE0: 08 80 80 FC 1E 03 0E 00  54 80 03 0F 00 54 80 03  ........T....T..
1EF0: 10 00 54 80 03 11 00 54  80 01 59 1F 02 0B 00 09  ..T....T..Y.....
1F00: 80 80 1B 1F 03 0E 00 55  80 03 0F 00 55 80 03 10  .......U....U...
1F10: 00 55 80 03 11 00 55 80  01 59 1F 02 0B 00 0A 80  .U....U..Y......
1F20: 80 3A 1F 03 0E 00 55 80  03 0F 00 55 80 03 10 00  .:....U....U....
1F30: 55 80 03 11 00 55 80 01  59 1F 02 0B 00 0B 80 80  U....U..Y.......
1F40: 59 1F 03 0E 00 54 80 03  0F 00 54 80 03 10 00 54  Y....T....T....T
1F50: 80 03 11 00 54 80 01 59  1F 01 48 2B 02 00 00 21  ....T..Y..H+...!
1F60: 80 80 5F 20 02 0B 00 04  80 80 83 1F 03 0E 00 49  .._ ...........I
1F70: 80 03 0F 00 49 80 03 10  00 49 80 03 11 00 49 80  ....I....I....I.
1F80: 01 5C 20 02 0B 00 05 80  80 A2 1F 03 0E 00 2B 80  .\ ...........+.
1F90: 03 0F 00 2B 80 03 10 00  2B 80 03 11 00 2B 80 01  ...+....+....+..
1FA0: 5C 20 02 0B 00 06 80 80  C1 1F 03 0E 00 49 80 03  \ ...........I..
1FB0: 0F 00 49 80 03 10 00 49  80 03 11 00 49 80 01 5C  ..I....I....I..\
1FC0: 20 02 0B 00 07 80 80 E0  1F 03 0E 00 2B 80 03 0F   ...........+...
1FD0: 00 2B 80 03 10 00 2B 80  03 11 00 2B 80 01 5C 20  .+....+....+..\ 
1FE0: 02 0B 00 08 80 80 FF 1F  03 0E 00 49 80 03 0F 00  ...........I....
1FF0: 49 80 03 10 00 49 80 03  11 00 49 80 01 5C 20 02  I....I....I..\ .
2000: 0B 00 09 80 80 1E 20 03  0E 00 2B 80 03 0F 00 2B  ...... ...+....+
2010: 80 03 10 00 2B 80 03 11  00 2B 80 01 5C 20 02 0B  ....+....+..\ ..
2020: 00 0A 80 80 3D 20 03 0E  00 2B 80 03 0F 00 2B 80  ....= ...+....+.
2030: 03 10 00 2B 80 03 11 00  2B 80 01 5C 20 02 0B 00  ...+....+..\ ...
2040: 0B 80 80 5C 20 03 0E 00  49 80 03 0F 00 49 80 03  ...\ ...I....I..
2050: 10 00 49 80 03 11 00 49  80 01 5C 20 01 48 2B 02  ..I....I..\ .H+.
2060: 00 00 05 80 80 F3 20 02  0B 00 04 80 80 77 20 03  ...... ......w .
2070: 0E 00 56 80 01 E7 20 02  0B 00 05 80 80 87 20 03  ..V... ....... .
2080: 0E 00 57 80 01 E7 20 02  0B 00 06 80 80 97 20 03  ..W... ....... .
2090: 0E 00 56 80 01 E7 20 02  0B 00 07 80 80 A7 20 03  ..V... ....... .
20A0: 0E 00 57 80 01 E7 20 02  0B 00 08 80 80 B7 20 03  ..W... ....... .
20B0: 0E 00 56 80 01 E7 20 02  0B 00 09 80 80 C7 20 03  ..V... ....... .
20C0: 0E 00 57 80 01 E7 20 02  0B 00 0A 80 80 D7 20 03  ..W... ....... .
20D0: 0E 00 57 80 01 E7 20 02  0B 00 0B 80 80 E7 20 03  ..W... ....... .
20E0: 0E 00 56 80 01 E7 20 1A  EF 19 1A 0F 1A 1A 2F 1A  ..V... ......./.
20F0: 01 48 2B 02 00 00 06 80  80 87 21 02 0B 00 04 80  .H+.......!.....
2100: 80 0B 21 03 0E 00 58 80  01 7B 21 02 0B 00 05 80  ..!...X..{!.....
2110: 80 1B 21 03 0E 00 59 80  01 7B 21 02 0B 00 06 80  ..!...Y..{!.....
2120: 80 2B 21 03 0E 00 58 80  01 7B 21 02 0B 00 07 80  .+!...X..{!.....
2130: 80 3B 21 03 0E 00 59 80  01 7B 21 02 0B 00 08 80  .;!...Y..{!.....
2140: 80 4B 21 03 0E 00 58 80  01 7B 21 02 0B 00 09 80  .K!...X..{!.....
2150: 80 5B 21 03 0E 00 59 80  01 7B 21 02 0B 00 0A 80  .[!...Y..{!.....
2160: 80 6B 21 03 0E 00 59 80  01 7B 21 02 0B 00 0B 80  .k!...Y..{!.....
2170: 80 7B 21 03 0E 00 58 80  01 7B 21 1A EF 19 1A 0F  .{!...X..{!.....
2180: 1A 1A 2F 1A 01 48 2B 02  00 00 0B 80 80 1B 22 02  ../..H+.......".
2190: 0B 00 04 80 80 9F 21 03  0E 00 5A 80 01 0F 22 02  ......!...Z...".
21A0: 0B 00 05 80 80 AF 21 03  0E 00 5B 80 01 0F 22 02  ......!...[...".
21B0: 0B 00 06 80 80 BF 21 03  0E 00 5A 80 01 0F 22 02  ......!...Z...".
21C0: 0B 00 07 80 80 CF 21 03  0E 00 5B 80 01 0F 22 02  ......!...[...".
21D0: 0B 00 08 80 80 DF 21 03  0E 00 5A 80 01 0F 22 02  ......!...Z...".
21E0: 0B 00 09 80 80 EF 21 03  0E 00 5B 80 01 0F 22 02  ......!...[...".
21F0: 0B 00 0A 80 80 FF 21 03  0E 00 5B 80 01 0F 22 02  ......!...[...".
2200: 0B 00 0B 80 80 0F 22 03  0E 00 5A 80 01 0F 22 1A  ......"...Z...".
2210: EF 19 1A 0F 1A 1A 2F 1A  01 48 2B 02 00 00 07 80  ....../..H+.....
2220: 80 59 22 02 0B 00 09 80  00 42 22 03 0E 00 5C 80  .Y"......B"...\.
2230: 03 0F 00 5C 80 03 10 00  5C 80 03 11 00 5C 80 01  ...\....\....\..
2240: 56 22 03 0E 00 5D 80 03  0F 00 5D 80 03 10 00 5D  V"...]....]....]
2250: 80 03 11 00 5D 80 01 48  2B 02 00 00 08 80 80 97  ....]..H+.......
2260: 22 02 0B 00 09 80 00 80  22 03 0E 00 5E 80 03 0F  "......."...^...
2270: 00 5E 80 03 10 00 5E 80  03 11 00 5E 80 01 94 22  .^....^....^..."
2280: 03 0E 00 5F 80 03 0F 00  5F 80 03 10 00 5F 80 03  ..._...._...._..
2290: 11 00 5F 80 01 48 2B 02  00 00 16 80 80 D5 22 02  .._..H+.......".
22A0: 0B 00 09 80 00 BE 22 03  0E 00 60 80 03 0F 00 60  ......"...`....`
22B0: 80 03 10 00 60 80 03 11  00 60 80 01 D2 22 03 0E  ....`....`..."..
22C0: 00 61 80 03 0F 00 61 80  03 10 00 61 80 03 11 00  .a....a....a....
22D0: 61 80 01 48 2B 02 00 00  1E 80 80 D8 23 02 0B 00  a..H+.......#...
22E0: 04 80 80 FC 22 03 0E 00  4B 80 03 0F 00 4B 80 03  ...."...K....K..
22F0: 10 00 4B 80 03 11 00 4B  80 01 D5 23 02 0B 00 05  ..K....K...#....
2300: 80 80 1B 23 03 0E 00 62  80 03 0F 00 62 80 03 10  ...#...b....b...
2310: 00 62 80 03 11 00 62 80  01 D5 23 02 0B 00 06 80  .b....b...#.....
2320: 80 3A 23 03 0E 00 4B 80  03 0F 00 4B 80 03 10 00  .:#...K....K....
2330: 4B 80 03 11 00 4B 80 01  D5 23 02 0B 00 07 80 80  K....K...#......
2340: 59 23 03 0E 00 62 80 03  0F 00 62 80 03 10 00 62  Y#...b....b....b
2350: 80 03 11 00 62 80 01 D5  23 02 0B 00 08 80 80 78  ....b...#......x
2360: 23 03 0E 00 4B 80 03 0F  00 4B 80 03 10 00 4B 80  #...K....K....K.
2370: 03 11 00 4B 80 01 D5 23  02 0B 00 09 80 80 97 23  ...K...#.......#
2380: 03 0E 00 62 80 03 0F 00  62 80 03 10 00 62 80 03  ...b....b....b..
2390: 11 00 62 80 01 D5 23 02  0B 00 0A 80 80 B6 23 03  ..b...#.......#.
23A0: 0E 00 62 80 03 0F 00 62  80 03 10 00 62 80 03 11  ..b....b....b...
23B0: 00 62 80 01 D5 23 02 0B  00 0B 80 80 D5 23 03 0E  .b...#.......#..
23C0: 00 4B 80 03 0F 00 4B 80  03 10 00 4B 80 03 11 00  .K....K....K....
23D0: 4B 80 01 D5 23 01 48 2B  02 00 00 09 80 80 F6 23  K...#.H+.......#
23E0: 03 0D 00 04 80 03 0E 00  63 80 1A EF 19 1A 0F 1A  ........c.......
23F0: 1A 2F 1A 01 48 2B 02 00  00 0A 80 80 90 24 03 0E  ./..H+.......$..
2400: 00 46 80 03 0F 00 48 80  03 11 00 46 80 02 0B 00  .F....H....F....
2410: 04 80 80 1D 24 03 10 00  58 80 01 8D 24 02 0B 00  ....$...X...$...
2420: 05 80 80 2D 24 03 10 00  59 80 01 8D 24 02 0B 00  ...-$...Y...$...
2430: 06 80 80 3D 24 03 10 00  58 80 01 8D 24 02 0B 00  ...=$...X...$...
2440: 07 80 80 4D 24 03 10 00  59 80 01 8D 24 02 0B 00  ...M$...Y...$...
2450: 08 80 80 5D 24 03 10 00  58 80 01 8D 24 02 0B 00  ...]$...X...$...
2460: 09 80 80 6D 24 03 10 00  59 80 01 8D 24 02 0B 00  ...m$...Y...$...
2470: 0A 80 80 7D 24 03 10 00  59 80 01 8D 24 02 0B 00  ...}$...Y...$...
2480: 0B 80 80 8D 24 03 10 00  58 80 01 8D 24 01 48 2B  ....$...X...$.H+
2490: 02 00 00 19 80 80 AE 24  03 0D 00 64 80 03 0E 00  .......$...d....
24A0: 64 80 1A EF 19 1A 0F 1A  1A 2F 1A 01 48 2B 02 00  d......../..H+..
24B0: 00 20 80 80 CC 24 03 0D  00 65 80 03 0E 00 65 80  . ...$...e....e.
24C0: 1A EF 19 1A 0F 1A 1A 2F  1A 01 48 2B 02 00 00 1F  ......./..H+....
24D0: 80 80 48 2B 41 22 80 23  80 03 10 00 00 02 00 00  ..H+A".#........
24E0: 04 80 80 FB 24 03 0D 00  66 80 03 0E 00 66 80 1A  ....$...f....f..
24F0: EF 19 1A 0F 1A 1A 2F 1A  01 45 2B 02 00 00 05 80  ....../..E+.....
2500: 80 1F 25 03 0D 00 28 80  03 0E 00 67 80 03 0F 00  ..%...(....g....
2510: 67 80 03 10 00 67 80 03  11 00 67 80 01 45 2B 02  g....g....g..E+.
2520: 00 00 06 80 80 43 25 03  0D 00 68 80 03 0E 00 68  .....C%...h....h
2530: 80 03 0F 00 68 80 03 10  00 68 80 03 11 00 68 80  ....h....h....h.
2540: 01 45 2B 02 00 00 0A 80  80 67 25 03 0D 00 69 80  .E+......g%...i.
2550: 03 0E 00 69 80 03 0F 00  69 80 03 10 00 69 80 03  ...i....i....i..
2560: 11 00 69 80 01 45 2B 02  00 00 0B 80 80 6A 26 02  ..i..E+......j&.
2570: 0B 00 04 80 80 8E 25 03  0E 00 6A 80 03 0F 00 6A  ......%...j....j
2580: 80 03 10 00 6A 80 03 11  00 6A 80 01 67 26 02 0B  ....j....j..g&..
2590: 00 05 80 80 AD 25 03 0E  00 6B 80 03 0F 00 6B 80  .....%...k....k.
25A0: 03 10 00 6B 80 03 11 00  6B 80 01 67 26 02 0B 00  ...k....k..g&...
25B0: 06 80 80 CC 25 03 0E 00  6A 80 03 0F 00 6A 80 03  ....%...j....j..
25C0: 10 00 6A 80 03 11 00 6A  80 01 67 26 02 0B 00 07  ..j....j..g&....
25D0: 80 80 EB 25 03 0E 00 6B  80 03 0F 00 6B 80 03 10  ...%...k....k...
25E0: 00 6B 80 03 11 00 6B 80  01 67 26 02 0B 00 08 80  .k....k..g&.....
25F0: 80 0A 26 03 0E 00 6A 80  03 0F 00 6A 80 03 10 00  ..&...j....j....
2600: 6A 80 03 11 00 6A 80 01  67 26 02 0B 00 09 80 80  j....j..g&......
2610: 29 26 03 0E 00 6B 80 03  0F 00 6B 80 03 10 00 6B  )&...k....k....k
2620: 80 03 11 00 6B 80 01 67  26 02 0B 00 0A 80 80 48  ....k..g&......H
2630: 26 03 0E 00 6B 80 03 0F  00 6B 80 03 10 00 6B 80  &...k....k....k.
2640: 03 11 00 6B 80 01 67 26  02 0B 00 0B 80 80 67 26  ...k..g&......g&
2650: 03 0E 00 6A 80 03 0F 00  6A 80 03 10 00 6A 80 03  ...j....j....j..
2660: 11 00 6A 80 01 67 26 01  45 2B 02 00 00 07 80 80  ..j..g&.E+......
2670: 23 27 02 0B 00 04 80 80  87 26 03 0E 00 29 80 03  #'.......&...)..
2680: 10 00 29 80 01 1A 27 02  0B 00 05 80 80 9C 26 03  ..)...'.......&.
2690: 0E 00 2A 80 03 10 00 2A  80 01 1A 27 02 0B 00 06  ..*....*...'....
26A0: 80 80 B1 26 03 0E 00 29  80 03 10 00 29 80 01 1A  ...&...)....)...
26B0: 27 02 0B 00 07 80 80 C6  26 03 0E 00 2A 80 03 10  '.......&...*...
26C0: 00 2A 80 01 1A 27 02 0B  00 08 80 80 DB 26 03 0E  .*...'.......&..
26D0: 00 29 80 03 10 00 29 80  01 1A 27 02 0B 00 09 80  .)....)...'.....
26E0: 80 F0 26 03 0E 00 2A 80  03 10 00 2A 80 01 1A 27  ..&...*....*...'
26F0: 02 0B 00 0A 80 80 05 27  03 0E 00 2A 80 03 10 00  .......'...*....
2700: 2A 80 01 1A 27 02 0B 00  0B 80 80 1A 27 03 0E 00  *...'.......'...
2710: 29 80 03 10 00 29 80 01  1A 27 1A EF 19 1A 2F 1A  )....)...'..../.
2720: 01 45 2B 02 00 00 08 80  80 47 27 03 0D 00 6C 80  .E+......G'...l.
2730: 03 0E 00 6C 80 03 0F 00  6C 80 03 10 00 6C 80 03  ...l....l....l..
2740: 11 00 6C 80 01 45 2B 02  00 00 09 80 80 60 27 03  ..l..E+......`'.
2750: 0E 00 6D 80 1A EF 19 1A  0F 1A 1A 2F 1A 01 45 2B  ..m......../..E+
2760: 02 00 00 16 80 80 8B 28  02 0B 00 04 80 80 8C 27  .......(.......'
2770: 03 0D 00 6E 80 03 0E 00  6E 80 03 0F 00 6E 80 03  ...n....n....n..
2780: 10 00 6E 80 03 11 00 6E  80 01 88 28 02 0B 00 05  ..n....n...(....
2790: 80 80 B0 27 03 0D 00 6F  80 03 0E 00 6F 80 03 0F  ...'...o....o...
27A0: 00 6F 80 03 10 00 6F 80  03 11 00 6F 80 01 88 28  .o....o....o...(
27B0: 02 0B 00 06 80 80 D4 27  03 0D 00 6E 80 03 0E 00  .......'...n....
27C0: 6E 80 03 0F 00 6E 80 03  10 00 6E 80 03 11 00 6E  n....n....n....n
27D0: 80 01 88 28 02 0B 00 07  80 80 F8 27 03 0D 00 6F  ...(.......'...o
27E0: 80 03 0E 00 6F 80 03 0F  00 6F 80 03 10 00 6F 80  ....o....o....o.
27F0: 03 11 00 6F 80 01 88 28  02 0B 00 08 80 80 1C 28  ...o...(.......(
2800: 03 0D 00 6E 80 03 0E 00  6E 80 03 0F 00 6E 80 03  ...n....n....n..
2810: 10 00 6E 80 03 11 00 6E  80 01 88 28 02 0B 00 09  ..n....n...(....
2820: 80 80 40 28 03 0D 00 6F  80 03 0E 00 6F 80 03 0F  ..@(...o....o...
2830: 00 6F 80 03 10 00 6F 80  03 11 00 6F 80 01 88 28  .o....o....o...(
2840: 02 0B 00 0A 80 80 64 28  03 0D 00 6F 80 03 0E 00  ......d(...o....
2850: 6F 80 03 0F 00 6F 80 03  10 00 6F 80 03 11 00 6F  o....o....o....o
2860: 80 01 88 28 02 0B 00 0B  80 80 88 28 03 0D 00 6E  ...(.......(...n
2870: 80 03 0E 00 6E 80 03 0F  00 6E 80 03 10 00 6E 80  ....n....n....n.
2880: 03 11 00 6E 80 01 88 28  01 45 2B 02 00 00 17 80  ...n...(.E+.....
2890: 80 AB 28 03 0D 00 70 80  03 0E 00 70 80 03 0F 00  ..(...p....p....
28A0: 70 80 1A 0F 1A 1A 2F 1A  01 45 2B 02 00 00 18 80  p...../..E+.....
28B0: 80 CF 28 03 0D 00 71 80  03 0E 00 71 80 03 0F 00  ..(...q....q....
28C0: 71 80 03 10 00 71 80 03  11 00 71 80 01 45 2B 02  q....q....q..E+.
28D0: 00 00 21 80 80 E8 28 03  0E 00 72 80 1A EF 19 1A  ..!...(...r.....
28E0: 0F 1A 1A 2F 1A 01 45 2B  02 00 00 1E 80 80 01 29  .../..E+.......)
28F0: 03 0E 00 73 80 1A EF 19  1A 0F 1A 1A 2F 1A 01 45  ...s......../..E
2900: 2B 02 00 00 19 80 80 25  29 03 0D 00 2C 80 03 0E  +......%)...,...
2910: 00 2C 80 03 0F 00 2C 80  03 10 00 2C 80 03 11 00  .,....,....,....
2920: 2C 80 01 45 2B 02 00 00  20 80 80 3E 29 03 0E 00  ,..E+... ..>)...
2930: 74 80 1A EF 19 1A 0F 1A  1A 2F 1A 01 45 2B 02 00  t......../..E+..
2940: 00 1F 80 80 57 29 03 0E  00 75 80 1A EF 19 1A 0F  ....W)...u......
2950: 1A 1A 2F 1A 01 45 2B 02  00 00 25 80 80 70 29 03  ../..E+...%..p).
2960: 0E 00 76 80 1A EF 19 1A  0F 1A 1A 2F 1A 01 45 2B  ..v......../..E+
2970: 02 00 00 77 80 80 89 29  03 0E 00 78 80 1A EF 19  ...w...)...x....
2980: 1A 0F 1A 1A 2F 1A 01 45  2B 02 00 00 1A 80 80 42  ..../..E+......B
2990: 2A 02 0B 00 04 80 80 A6  29 03 0E 00 79 80 03 10  *.......)...y...
29A0: 00 29 80 01 39 2A 02 0B  00 05 80 80 BB 29 03 0E  .)..9*.......)..
29B0: 00 7A 80 03 10 00 2A 80  01 39 2A 02 0B 00 06 80  .z....*..9*.....
29C0: 80 D0 29 03 0E 00 79 80  03 10 00 29 80 01 39 2A  ..)...y....)..9*
29D0: 02 0B 00 07 80 80 E5 29  03 0E 00 7A 80 03 10 00  .......)...z....
29E0: 2A 80 01 39 2A 02 0B 00  08 80 80 FA 29 03 0E 00  *..9*.......)...
29F0: 79 80 03 10 00 29 80 01  39 2A 02 0B 00 09 80 80  y....)..9*......
2A00: 0F 2A 03 0E 00 7A 80 03  10 00 2A 80 01 39 2A 02  .*...z....*..9*.
2A10: 0B 00 0A 80 80 24 2A 03  0E 00 7A 80 03 10 00 2A  .....$*...z....*
2A20: 80 01 39 2A 02 0B 00 0B  80 80 39 2A 03 0E 00 79  ..9*......9*...y
2A30: 80 03 10 00 29 80 01 39  2A 1A EF 19 1A 2F 1A 01  ....)..9*..../..
2A40: 45 2B 02 00 00 1B 80 80  45 2B 02 0B 00 04 80 80  E+......E+......
2A50: 69 2A 03 0E 00 7B 80 03  0F 00 7B 80 03 10 00 7B  i*...{....{....{
2A60: 80 03 11 00 7B 80 01 42  2B 02 0B 00 05 80 80 88  ....{..B+.......
2A70: 2A 03 0E 00 7C 80 03 0F  00 7C 80 03 10 00 7C 80  *...|....|....|.
2A80: 03 11 00 7C 80 01 42 2B  02 0B 00 06 80 80 A7 2A  ...|..B+.......*
2A90: 03 0E 00 7B 80 03 0F 00  7B 80 03 10 00 7B 80 03  ...{....{....{..
2AA0: 11 00 7B 80 01 42 2B 02  0B 00 07 80 80 C6 2A 03  ..{..B+.......*.
2AB0: 0E 00 7C 80 03 0F 00 7C  80 03 10 00 7C 80 03 11  ..|....|....|...
2AC0: 00 7C 80 01 42 2B 02 0B  00 08 80 80 E5 2A 03 0E  .|..B+.......*..
2AD0: 00 7B 80 03 0F 00 7B 80  03 10 00 7B 80 03 11 00  .{....{....{....
2AE0: 7B 80 01 42 2B 02 0B 00  09 80 80 04 2B 03 0E 00  {..B+.......+...
2AF0: 7C 80 03 0F 00 7C 80 03  10 00 7C 80 03 11 00 7C  |....|....|....|
2B00: 80 01 42 2B 02 0B 00 0A  80 80 23 2B 03 0E 00 7C  ..B+......#+...|
2B10: 80 03 0F 00 7C 80 03 10  00 7C 80 03 11 00 7C 80  ....|....|....|.
2B20: 01 42 2B 02 0B 00 0B 80  80 42 2B 03 0E 00 7B 80  .B+......B+...{.
2B30: 03 0F 00 7B 80 03 10 00  7B 80 03 11 00 7B 80 01  ...{....{....{..
2B40: 42 2B 01 45 2B 01 48 2B  1B 02 08 00 05 80 80 F4  B+.E+.H+........
2B50: 2B 02 16 00 04 80 80 61  2B 03 0D 00 04 80 01 F1  +......a+.......
2B60: 2B 02 16 00 05 80 80 71  2B 03 0D 00 05 80 01 F1  +......q+.......
2B70: 2B 02 16 00 06 80 80 81  2B 03 0D 00 7D 80 01 F1  +.......+...}...
2B80: 2B 02 16 00 07 80 80 91  2B 03 0D 00 7E 80 01 F1  +.......+...~...
2B90: 2B 02 16 00 08 80 80 A1  2B 03 0D 00 09 80 01 F1  +.......+.......
2BA0: 2B 02 16 00 09 80 80 B1  2B 03 0D 00 7F 80 01 F1  +.......+.......
2BB0: 2B 02 16 00 0A 80 80 C1  2B 03 0D 00 0B 80 01 F1  +.......+.......
2BC0: 2B 02 16 00 0B 80 80 D1  2B 03 0D 00 15 80 01 F1  +.......+.......
2BD0: 2B 02 16 00 16 80 80 E1  2B 03 0D 00 80 80 01 F1  +.......+.......
2BE0: 2B 02 16 00 17 80 80 F1  2B 03 0D 00 81 80 01 F1  +.......+.......
2BF0: 2B 01 4D 33 02 08 00 06  80 80 9F 2C 02 16 00 04  +.M3.......,....
2C00: 80 80 0C 2C 03 0D 00 04  80 01 9C 2C 02 16 00 05  ...,.......,....
2C10: 80 80 1C 2C 03 0D 00 77  80 01 9C 2C 02 16 00 06  ...,...w...,....
2C20: 80 80 2C 2C 03 0D 00 06  80 01 9C 2C 02 16 00 07  ..,,.......,....
2C30: 80 80 3C 2C 03 0D 00 17  80 01 9C 2C 02 16 00 08  ..<,.......,....
2C40: 80 80 4C 2C 03 0D 00 82  80 01 9C 2C 02 16 00 09  ..L,.......,....
2C50: 80 80 5C 2C 03 0D 00 7E  80 01 9C 2C 02 16 00 0A  ..\,...~...,....
2C60: 80 80 6C 2C 03 0D 00 1D  80 01 9C 2C 02 16 00 0B  ..l,.......,....
2C70: 80 80 7C 2C 03 0D 00 83  80 01 9C 2C 02 16 00 16  ..|,.......,....
2C80: 80 80 8C 2C 03 0D 00 84  80 01 9C 2C 02 16 00 17  ...,.......,....
2C90: 80 80 9C 2C 03 0D 00 85  80 01 9C 2C 01 4D 33 02  ...,.......,.M3.
2CA0: 08 00 07 80 80 4A 2D 02  16 00 04 80 80 B7 2C 03  .....J-.......,.
2CB0: 0D 00 04 80 01 47 2D 02  16 00 05 80 80 C7 2C 03  .....G-.......,.
2CC0: 0D 00 09 80 01 47 2D 02  16 00 06 80 80 D7 2C 03  .....G-.......,.
2CD0: 0D 00 25 80 01 47 2D 02  16 00 07 80 80 E7 2C 03  ..%..G-.......,.
2CE0: 0D 00 24 80 01 47 2D 02  16 00 08 80 80 F7 2C 03  ..$..G-.......,.
2CF0: 0D 00 86 80 01 47 2D 02  16 00 09 80 80 07 2D 03  .....G-.......-.
2D00: 0D 00 84 80 01 47 2D 02  16 00 0A 80 80 17 2D 03  .....G-.......-.
2D10: 0D 00 87 80 01 47 2D 02  16 00 0B 80 80 27 2D 03  .....G-......'-.
2D20: 0D 00 88 80 01 47 2D 02  16 00 16 80 80 37 2D 03  .....G-......7-.
2D30: 0D 00 89 80 01 47 2D 02  16 00 17 80 80 47 2D 03  .....G-......G-.
2D40: 0D 00 8A 80 01 47 2D 01  4D 33 02 08 00 08 80 80  .....G-.M3......
2D50: F5 2D 02 16 00 04 80 80  62 2D 03 0D 00 04 80 01  .-......b-......
2D60: F2 2D 02 16 00 05 80 80  72 2D 03 0D 00 52 80 01  .-......r-...R..
2D70: F2 2D 02 16 00 06 80 80  82 2D 03 0D 00 1A 80 01  .-.......-......
2D80: F2 2D 02 16 00 07 80 80  92 2D 03 0D 00 8B 80 01  .-.......-......
2D90: F2 2D 02 16 00 08 80 80  A2 2D 03 0D 00 8C 80 01  .-.......-......
2DA0: F2 2D 02 16 00 09 80 80  B2 2D 03 0D 00 1E 80 01  .-.......-......
2DB0: F2 2D 02 16 00 0A 80 80  C2 2D 03 0D 00 8D 80 01  .-.......-......
2DC0: F2 2D 02 16 00 0B 80 80  D2 2D 03 0D 00 09 80 01  .-.......-......
2DD0: F2 2D 02 16 00 16 80 80  E2 2D 03 0D 00 22 80 01  .-.......-..."..
2DE0: F2 2D 02 16 00 17 80 80  F2 2D 03 0D 00 8E 80 01  .-.......-......
2DF0: F2 2D 01 4D 33 02 08 00  09 80 80 A0 2E 02 16 00  .-.M3...........
2E00: 04 80 80 0D 2E 03 0D 00  04 80 01 9D 2E 02 16 00  ................
2E10: 05 80 80 1D 2E 03 0D 00  1C 80 01 9D 2E 02 16 00  ................
2E20: 06 80 80 2D 2E 03 0D 00  7E 80 01 9D 2E 02 16 00  ...-....~.......
2E30: 07 80 80 3D 2E 03 0D 00  8F 80 01 9D 2E 02 16 00  ...=............
2E40: 08 80 80 4D 2E 03 0D 00  1B 80 01 9D 2E 02 16 00  ...M............
2E50: 09 80 80 5D 2E 03 0D 00  1D 80 01 9D 2E 02 16 00  ...]............
2E60: 0A 80 80 6D 2E 03 0D 00  09 80 01 9D 2E 02 16 00  ...m............
2E70: 0B 80 80 7D 2E 03 0D 00  19 80 01 9D 2E 02 16 00  ...}............
2E80: 16 80 80 8D 2E 03 0D 00  90 80 01 9D 2E 02 16 00  ................
2E90: 17 80 80 9D 2E 03 0D 00  8A 80 01 9D 2E 01 4D 33  ..............M3
2EA0: 02 08 00 0A 80 80 4B 2F  02 16 00 04 80 80 B8 2E  ......K/........
2EB0: 03 0D 00 04 80 01 48 2F  02 16 00 05 80 80 C8 2E  ......H/........
2EC0: 03 0D 00 91 80 01 48 2F  02 16 00 06 80 80 D8 2E  ......H/........
2ED0: 03 0D 00 26 80 01 48 2F  02 16 00 07 80 80 E8 2E  ...&..H/........
2EE0: 03 0D 00 82 80 01 48 2F  02 16 00 08 80 80 F8 2E  ......H/........
2EF0: 03 0D 00 92 80 01 48 2F  02 16 00 09 80 80 08 2F  ......H/......./
2F00: 03 0D 00 8F 80 01 48 2F  02 16 00 0A 80 80 18 2F  ......H/......./
2F10: 03 0D 00 93 80 01 48 2F  02 16 00 0B 80 80 28 2F  ......H/......(/
2F20: 03 0D 00 1A 80 01 48 2F  02 16 00 16 80 80 38 2F  ......H/......8/
2F30: 03 0D 00 08 80 01 48 2F  02 16 00 17 80 80 48 2F  ......H/......H/
2F40: 03 0D 00 8E 80 01 48 2F  01 4D 33 02 08 00 0B 80  ......H/.M3.....
2F50: 80 F6 2F 02 16 00 04 80  80 63 2F 03 0D 00 04 80  ../......c/.....
2F60: 01 F3 2F 02 16 00 05 80  80 73 2F 03 0D 00 94 80  ../......s/.....
2F70: 01 F3 2F 02 16 00 06 80  80 83 2F 03 0D 00 1B 80  ../......./.....
2F80: 01 F3 2F 02 16 00 07 80  80 93 2F 03 0D 00 1C 80  ../......./.....
2F90: 01 F3 2F 02 16 00 08 80  80 A3 2F 03 0D 00 8B 80  ../......./.....
2FA0: 01 F3 2F 02 16 00 09 80  80 B3 2F 03 0D 00 19 80  ../......./.....
2FB0: 01 F3 2F 02 16 00 0A 80  80 C3 2F 03 0D 00 7E 80  ../......./...~.
2FC0: 01 F3 2F 02 16 00 0B 80  80 D3 2F 03 0D 00 26 80  ../......./...&.
2FD0: 01 F3 2F 02 16 00 16 80  80 E3 2F 03 0D 00 95 80  ../......./.....
2FE0: 01 F3 2F 02 16 00 17 80  80 F3 2F 03 0D 00 8A 80  ../......./.....
2FF0: 01 F3 2F 01 4D 33 02 08  00 16 80 80 A1 30 02 16  ../.M3.......0..
3000: 00 04 80 80 0E 30 03 0D  00 04 80 01 9E 30 02 16  .....0.......0..
3010: 00 05 80 80 1E 30 03 0D  00 96 80 01 9E 30 02 16  .....0.......0..
3020: 00 06 80 80 2E 30 03 0D  00 1F 80 01 9E 30 02 16  .....0.......0..
3030: 00 07 80 80 3E 30 03 0D  00 1A 80 01 9E 30 02 16  ....>0.......0..
3040: 00 08 80 80 4E 30 03 0D  00 7E 80 01 9E 30 02 16  ....N0...~...0..
3050: 00 09 80 80 5E 30 03 0D  00 1C 80 01 9E 30 02 16  ....^0.......0..
3060: 00 0A 80 80 6E 30 03 0D  00 8B 80 01 9E 30 02 16  ....n0.......0..
3070: 00 0B 80 80 7E 30 03 0D  00 0B 80 01 9E 30 02 16  ....~0.......0..
3080: 00 16 80 80 8E 30 03 0D  00 1B 80 01 9E 30 02 16  .....0.......0..
3090: 00 17 80 80 9E 30 03 0D  00 85 80 01 9E 30 01 4D  .....0.......0.M
30A0: 33 02 08 00 17 80 80 4C  31 02 16 00 04 80 80 B9  3......L1.......
30B0: 30 03 0D 00 04 80 01 49  31 02 16 00 05 80 80 C9  0......I1.......
30C0: 30 03 0D 00 1F 80 01 49  31 02 16 00 06 80 80 D9  0......I1.......
30D0: 30 03 0D 00 52 80 01 49  31 02 16 00 07 80 80 E9  0...R..I1.......
30E0: 30 03 0D 00 8C 80 01 49  31 02 16 00 08 80 80 F9  0......I1.......
30F0: 30 03 0D 00 1A 80 01 49  31 02 16 00 09 80 80 09  0......I1.......
3100: 31 03 0D 00 8B 80 01 49  31 02 16 00 0A 80 80 19  1......I1.......
3110: 31 03 0D 00 97 80 01 49  31 02 16 00 0B 80 80 29  1......I1......)
3120: 31 03 0D 00 1E 80 01 49  31 02 16 00 16 80 80 39  1......I1......9
3130: 31 03 0D 00 98 80 01 49  31 02 16 00 17 80 80 49  1......I1......I
3140: 31 03 0D 00 8E 80 01 49  31 01 4D 33 02 08 00 18  1......I1.M3....
3150: 80 80 F7 31 02 16 00 04  80 80 64 31 03 0D 00 04  ...1......d1....
3160: 80 01 F4 31 02 16 00 05  80 80 74 31 03 0D 00 0A  ...1......t1....
3170: 80 01 F4 31 02 16 00 06  80 80 84 31 03 0D 00 91  ...1.......1....
3180: 80 01 F4 31 02 16 00 07  80 80 94 31 03 0D 00 8B  ...1.......1....
3190: 80 01 F4 31 02 16 00 08  80 80 A4 31 03 0D 00 7E  ...1.......1...~
31A0: 80 01 F4 31 02 16 00 09  80 80 B4 31 03 0D 00 08  ...1.......1....
31B0: 80 01 F4 31 02 16 00 0A  80 80 C4 31 03 0D 00 1A  ...1.......1....
31C0: 80 01 F4 31 02 16 00 0B  80 80 D4 31 03 0D 00 92  ...1.......1....
31D0: 80 01 F4 31 02 16 00 16  80 80 E4 31 03 0D 00 99  ...1.......1....
31E0: 80 01 F4 31 02 16 00 17  80 80 F4 31 03 0D 00 85  ...1.......1....
31F0: 80 01 F4 31 01 4D 33 02  08 00 21 80 80 A2 32 02  ...1.M3...!...2.
3200: 16 00 04 80 80 0F 32 03  0D 00 04 80 01 9F 32 02  ......2.......2.
3210: 16 00 05 80 80 1F 32 03  0D 00 7E 80 01 9F 32 02  ......2...~...2.
3220: 16 00 06 80 80 2F 32 03  0D 00 8C 80 01 9F 32 02  ...../2.......2.
3230: 16 00 07 80 80 3F 32 03  0D 00 09 80 01 9F 32 02  .....?2.......2.
3240: 16 00 08 80 80 4F 32 03  0D 00 88 80 01 9F 32 02  .....O2.......2.
3250: 16 00 09 80 80 5F 32 03  0D 00 8F 80 01 9F 32 02  ....._2.......2.
3260: 16 00 0A 80 80 6F 32 03  0D 00 95 80 01 9F 32 02  .....o2.......2.
3270: 16 00 0B 80 80 7F 32 03  0D 00 24 80 01 9F 32 02  ......2...$...2.
3280: 16 00 16 80 80 8F 32 03  0D 00 9A 80 01 9F 32 02  ......2.......2.
3290: 16 00 17 80 80 9F 32 03  0D 00 81 80 01 9F 32 01  ......2.......2.
32A0: 4D 33 02 08 00 1E 80 80  4D 33 02 16 00 04 80 80  M3......M3......
32B0: BA 32 03 0D 00 04 80 01  4A 33 02 16 00 05 80 80  .2......J3......
32C0: CA 32 03 0D 00 20 80 01  4A 33 02 16 00 06 80 80  .2... ..J3......
32D0: DA 32 03 0D 00 1E 80 01  4A 33 02 16 00 07 80 80  .2......J3......
32E0: EA 32 03 0D 00 25 80 01  4A 33 02 16 00 08 80 80  .2...%..J3......
32F0: FA 32 03 0D 00 08 80 01  4A 33 02 16 00 09 80 80  .2......J3......
3300: 0A 33 03 0D 00 87 80 01  4A 33 02 16 00 0A 80 80  .3......J3......
3310: 1A 33 03 0D 00 22 80 01  4A 33 02 16 00 0B 80 80  .3..."..J3......
3320: 2A 33 03 0D 00 9B 80 01  4A 33 02 16 00 16 80 80  *3......J3......
3330: 3A 33 03 0D 00 9C 80 01  4A 33 02 16 00 17 80 80  :3......J3......
3340: 4A 33 03 0D 00 81 80 01  4A 33 01 4D 33 1B 02 15  J3......J3.M3...
3350: 00 04 80 80 19 34 02 16  00 04 80 80 66 33 03 0E  .....4......f3..
3360: 00 52 80 01 16 34 02 16  00 05 80 80 76 33 03 0E  .R...4......v3..
3370: 00 06 80 01 16 34 02 16  00 06 80 80 86 33 03 0E  .....4.......3..
3380: 00 7F 80 01 16 34 02 16  00 07 80 80 96 33 03 0E  .....4.......3..
3390: 00 9D 80 01 16 34 02 16  00 08 80 80 A6 33 03 0E  .....4.......3..
33A0: 00 86 80 01 16 34 02 16  00 09 80 80 B6 33 03 0E  .....4.......3..
33B0: 00 42 80 01 16 34 02 16  00 0A 80 80 C6 33 03 0E  .B...4.......3..
33C0: 00 17 80 01 16 34 02 16  00 0B 80 80 D6 33 03 0E  .....4.......3..
33D0: 00 84 80 01 16 34 02 16  00 16 80 80 E6 33 03 0E  .....4.......3..
33E0: 00 89 80 01 16 34 02 16  00 17 80 80 F6 33 03 0E  .....4.......3..
33F0: 00 9C 80 01 16 34 02 16  00 18 80 80 06 34 03 0E  .....4.......4..
3400: 00 9E 80 01 16 34 02 16  00 21 80 80 16 34 03 0E  .....4...!...4..
3410: 00 9B 80 01 16 34 01 7A  36 02 15 00 05 80 80 E4  .....4.z6.......
3420: 34 02 16 00 04 80 80 31  34 03 0E 00 0A 80 01 E1  4......14.......
3430: 34 02 16 00 05 80 80 41  34 03 0E 00 09 80 01 E1  4......A4.......
3440: 34 02 16 00 06 80 80 51  34 03 0E 00 7D 80 01 E1  4......Q4...}...
3450: 34 02 16 00 07 80 80 61  34 03 0E 00 77 80 01 E1  4......a4...w...
3460: 34 02 16 00 08 80 80 71  34 03 0E 00 8C 80 01 E1  4......q4.......
3470: 34 02 16 00 09 80 80 81  34 03 0E 00 1E 80 01 E1  4.......4.......
3480: 34 02 16 00 0A 80 80 91  34 03 0E 00 0B 80 01 E1  4.......4.......
3490: 34 02 16 00 0B 80 80 A1  34 03 0E 00 08 80 01 E1  4.......4.......
34A0: 34 02 16 00 16 80 80 B1  34 03 0E 00 19 80 01 E1  4.......4.......
34B0: 34 02 16 00 17 80 80 C1  34 03 0E 00 24 80 01 E1  4.......4...$...
34C0: 34 02 16 00 18 80 80 D1  34 03 0E 00 88 80 01 E1  4.......4.......
34D0: 34 02 16 00 21 80 80 E1  34 03 0E 00 9A 80 01 E1  4...!...4.......
34E0: 34 01 7A 36 02 15 00 06  80 80 AF 35 02 16 00 04  4.z6.......5....
34F0: 80 80 FC 34 03 0E 00 26  80 01 AC 35 02 16 00 05  ...4...&...5....
3500: 80 80 0C 35 03 0E 00 7E  80 01 AC 35 02 16 00 06  ...5...~...5....
3510: 80 80 1C 35 03 0E 00 94  80 01 AC 35 02 16 00 07  ...5.......5....
3520: 80 80 2C 35 03 0E 00 1D  80 01 AC 35 02 16 00 08  ..,5.......5....
3530: 80 80 3C 35 03 0E 00 1A  80 01 AC 35 02 16 00 09  ..<5.......5....
3540: 80 80 4C 35 03 0E 00 14  80 01 AC 35 02 16 00 0A  ..L5.......5....
3550: 80 80 5C 35 03 0E 00 1B  80 01 AC 35 02 16 00 0B  ..\5.......5....
3560: 80 80 6C 35 03 0E 00 9F  80 01 AC 35 02 16 00 16  ..l5.......5....
3570: 80 80 7C 35 03 0E 00 80  80 01 AC 35 02 16 00 17  ..|5.......5....
3580: 80 80 8C 35 03 0E 00 90  80 01 AC 35 02 16 00 18  ...5.......5....
3590: 80 80 9C 35 03 0E 00 98  80 01 AC 35 02 16 00 21  ...5.......5...!
35A0: 80 80 AC 35 03 0E 00 47  80 01 AC 35 01 7A 36 02  ...5...G...5.z6.
35B0: 15 00 07 80 80 7A 36 02  16 00 04 80 80 C7 35 03  .....z6.......5.
35C0: 0E 00 16 80 01 77 36 02  16 00 05 80 80 D7 35 03  .....w6.......5.
35D0: 0E 00 A0 80 01 77 36 02  16 00 06 80 80 E7 35 03  .....w6.......5.
35E0: 0E 00 1F 80 01 77 36 02  16 00 07 80 80 F7 35 03  .....w6.......5.
35F0: 0E 00 23 80 01 77 36 02  16 00 08 80 80 07 36 03  ..#..w6.......6.
3600: 0E 00 A1 80 01 77 36 02  16 00 09 80 80 17 36 03  .....w6.......6.
3610: 0E 00 96 80 01 77 36 02  16 00 0A 80 80 27 36 03  .....w6......'6.
3620: 0E 00 A2 80 01 77 36 02  16 00 0B 80 80 37 36 03  .....w6......76.
3630: 0E 00 92 80 01 77 36 02  16 00 16 80 80 47 36 03  .....w6......G6.
3640: 0E 00 97 80 01 77 36 02  16 00 17 80 80 57 36 03  .....w6......W6.
3650: 0E 00 8D 80 01 77 36 02  16 00 18 80 80 67 36 03  .....w6......g6.
3660: 0E 00 99 80 01 77 36 02  16 00 21 80 80 77 36 03  .....w6...!..w6.
3670: 0E 00 A3 80 01 77 36 01  7A 36 1B 02 15 00 04 80  .....w6.z6......
3680: 80 46 37 02 16 00 04 80  80 93 36 03 0F 00 52 80  .F7.......6...R.
3690: 01 43 37 02 16 00 05 80  80 A3 36 03 0F 00 06 80  .C7.......6.....
36A0: 01 43 37 02 16 00 06 80  80 B3 36 03 0F 00 7F 80  .C7.......6.....
36B0: 01 43 37 02 16 00 07 80  80 C3 36 03 0F 00 9D 80  .C7.......6.....
36C0: 01 43 37 02 16 00 08 80  80 D3 36 03 0F 00 86 80  .C7.......6.....
36D0: 01 43 37 02 16 00 09 80  80 E3 36 03 0F 00 42 80  .C7.......6...B.
36E0: 01 43 37 02 16 00 0A 80  80 F3 36 03 0F 00 17 80  .C7.......6.....
36F0: 01 43 37 02 16 00 0B 80  80 03 37 03 0F 00 84 80  .C7.......7.....
3700: 01 43 37 02 16 00 16 80  80 13 37 03 0F 00 89 80  .C7.......7.....
3710: 01 43 37 02 16 00 17 80  80 23 37 03 0F 00 9C 80  .C7......#7.....
3720: 01 43 37 02 16 00 18 80  80 33 37 03 0F 00 9E 80  .C7......37.....
3730: 01 43 37 02 16 00 21 80  80 43 37 03 0F 00 9B 80  .C7...!..C7.....
3740: 01 43 37 01 A7 39 02 15  00 05 80 80 11 38 02 16  .C7..9.......8..
3750: 00 04 80 80 5E 37 03 0F  00 0A 80 01 0E 38 02 16  ....^7.......8..
3760: 00 05 80 80 6E 37 03 0F  00 09 80 01 0E 38 02 16  ....n7.......8..
3770: 00 06 80 80 7E 37 03 0F  00 7D 80 01 0E 38 02 16  ....~7...}...8..
3780: 00 07 80 80 8E 37 03 0F  00 77 80 01 0E 38 02 16  .....7...w...8..
3790: 00 08 80 80 9E 37 03 0F  00 8C 80 01 0E 38 02 16  .....7.......8..
37A0: 00 09 80 80 AE 37 03 0F  00 1E 80 01 0E 38 02 16  .....7.......8..
37B0: 00 0A 80 80 BE 37 03 0F  00 0B 80 01 0E 38 02 16  .....7.......8..
37C0: 00 0B 80 80 CE 37 03 0F  00 08 80 01 0E 38 02 16  .....7.......8..
37D0: 00 16 80 80 DE 37 03 0F  00 19 80 01 0E 38 02 16  .....7.......8..
37E0: 00 17 80 80 EE 37 03 0F  00 24 80 01 0E 38 02 16  .....7...$...8..
37F0: 00 18 80 80 FE 37 03 0F  00 88 80 01 0E 38 02 16  .....7.......8..
3800: 00 21 80 80 0E 38 03 0F  00 9A 80 01 0E 38 01 A7  .!...8.......8..
3810: 39 02 15 00 06 80 80 DC  38 02 16 00 04 80 80 29  9.......8......)
3820: 38 03 0F 00 26 80 01 D9  38 02 16 00 05 80 80 39  8...&...8......9
3830: 38 03 0F 00 7E 80 01 D9  38 02 16 00 06 80 80 49  8...~...8......I
3840: 38 03 0F 00 94 80 01 D9  38 02 16 00 07 80 80 59  8.......8......Y
3850: 38 03 0F 00 1D 80 01 D9  38 02 16 00 08 80 80 69  8.......8......i
3860: 38 03 0F 00 1A 80 01 D9  38 02 16 00 09 80 80 79  8.......8......y
3870: 38 03 0F 00 1C 80 01 D9  38 02 16 00 0A 80 80 89  8.......8.......
3880: 38 03 0F 00 1B 80 01 D9  38 02 16 00 0B 80 80 99  8.......8.......
3890: 38 03 0F 00 21 80 01 D9  38 02 16 00 16 80 80 A9  8...!...8.......
38A0: 38 03 0F 00 80 80 01 D9  38 02 16 00 17 80 80 B9  8.......8.......
38B0: 38 03 0F 00 90 80 01 D9  38 02 16 00 18 80 80 C9  8.......8.......
38C0: 38 03 0F 00 98 80 01 D9  38 02 16 00 21 80 80 D9  8.......8...!...
38D0: 38 03 0F 00 47 80 01 D9  38 01 A7 39 02 15 00 07  8...G...8..9....
38E0: 80 80 A7 39 02 16 00 04  80 80 F4 38 03 0F 00 16  ...9.......8....
38F0: 80 01 A4 39 02 16 00 05  80 80 04 39 03 0F 00 A4  ...9.......9....
3900: 80 01 A4 39 02 16 00 06  80 80 14 39 03 0F 00 04  ...9.......9....
3910: 80 01 A4 39 02 16 00 07  80 80 24 39 03 0F 00 23  ...9......$9...#
3920: 80 01 A4 39 02 16 00 08  80 80 34 39 03 0F 00 A0  ...9......49....
3930: 80 01 A4 39 02 16 00 09  80 80 44 39 03 0F 00 A5  ...9......D9....
3940: 80 01 A4 39 02 16 00 0A  80 80 54 39 03 0F 00 22  ...9......T9..."
3950: 80 01 A4 39 02 16 00 0B  80 80 64 39 03 0F 00 92  ...9......d9....
3960: 80 01 A4 39 02 16 00 16  80 80 74 39 03 0F 00 07  ...9......t9....
3970: 80 01 A4 39 02 16 00 17  80 80 84 39 03 0F 00 1F  ...9.......9....
3980: 80 01 A4 39 02 16 00 18  80 80 94 39 03 0F 00 99  ...9.......9....
3990: 80 01 A4 39 02 16 00 21  80 80 A4 39 03 0F 00 A3  ...9...!...9....
39A0: 80 01 A4 39 01 A7 39 1B  02 15 00 04 80 80 73 3A  ...9..9.......s:
39B0: 02 16 00 04 80 80 C0 39  03 10 00 52 80 01 70 3A  .......9...R..p:
39C0: 02 16 00 05 80 80 D0 39  03 10 00 06 80 01 70 3A  .......9......p:
39D0: 02 16 00 06 80 80 E0 39  03 10 00 7F 80 01 70 3A  .......9......p:
39E0: 02 16 00 07 80 80 F0 39  03 10 00 9D 80 01 70 3A  .......9......p:
39F0: 02 16 00 08 80 80 00 3A  03 10 00 81 80 01 70 3A  .......:......p:
3A00: 02 16 00 09 80 80 10 3A  03 10 00 42 80 01 70 3A  .......:...B..p:
3A10: 02 16 00 0A 80 80 20 3A  03 10 00 17 80 01 70 3A  ...... :......p:
3A20: 02 16 00 0B 80 80 30 3A  03 10 00 8A 80 01 70 3A  ......0:......p:
3A30: 02 16 00 16 80 80 40 3A  03 10 00 89 80 01 70 3A  ......@:......p:
3A40: 02 16 00 17 80 80 50 3A  03 10 00 9C 80 01 70 3A  ......P:......p:
3A50: 02 16 00 18 80 80 60 3A  03 10 00 9E 80 01 70 3A  ......`:......p:
3A60: 02 16 00 21 80 80 70 3A  03 10 00 9B 80 01 70 3A  ...!..p:......p:
3A70: 01 D4 3C 02 15 00 05 80  80 3E 3B 02 16 00 04 80  ..<......>;.....
3A80: 80 8B 3A 03 10 00 0A 80  01 3B 3B 02 16 00 05 80  ..:......;;.....
3A90: 80 9B 3A 03 10 00 09 80  01 3B 3B 02 16 00 06 80  ..:......;;.....
3AA0: 80 AB 3A 03 10 00 7D 80  01 3B 3B 02 16 00 07 80  ..:...}..;;.....
3AB0: 80 BB 3A 03 10 00 77 80  01 3B 3B 02 16 00 08 80  ..:...w..;;.....
3AC0: 80 CB 3A 03 10 00 8C 80  01 3B 3B 02 16 00 09 80  ..:......;;.....
3AD0: 80 DB 3A 03 10 00 1E 80  01 3B 3B 02 16 00 0A 80  ..:......;;.....
3AE0: 80 EB 3A 03 10 00 0B 80  01 3B 3B 02 16 00 0B 80  ..:......;;.....
3AF0: 80 FB 3A 03 10 00 08 80  01 3B 3B 02 16 00 16 80  ..:......;;.....
3B00: 80 0B 3B 03 10 00 19 80  01 3B 3B 02 16 00 17 80  ..;......;;.....
3B10: 80 1B 3B 03 10 00 24 80  01 3B 3B 02 16 00 18 80  ..;...$..;;.....
3B20: 80 2B 3B 03 10 00 88 80  01 3B 3B 02 16 00 21 80  .+;......;;...!.
3B30: 80 3B 3B 03 10 00 9A 80  01 3B 3B 01 D4 3C 02 15  .;;......;;..<..
3B40: 00 06 80 80 09 3C 02 16  00 04 80 80 56 3B 03 10  .....<......V;..
3B50: 00 26 80 01 06 3C 02 16  00 05 80 80 66 3B 03 10  .&...<......f;..
3B60: 00 7E 80 01 06 3C 02 16  00 06 80 80 76 3B 03 10  .~...<......v;..
3B70: 00 94 80 01 06 3C 02 16  00 07 80 80 86 3B 03 10  .....<.......;..
3B80: 00 1D 80 01 06 3C 02 16  00 08 80 80 96 3B 03 10  .....<.......;..
3B90: 00 1A 80 01 06 3C 02 16  00 09 80 80 A6 3B 03 10  .....<.......;..
3BA0: 00 1C 80 01 06 3C 02 16  00 0A 80 80 B6 3B 03 10  .....<.......;..
3BB0: 00 1B 80 01 06 3C 02 16  00 0B 80 80 C6 3B 03 10  .....<.......;..
3BC0: 00 21 80 01 06 3C 02 16  00 16 80 80 D6 3B 03 10  .!...<.......;..
3BD0: 00 80 80 01 06 3C 02 16  00 17 80 80 E6 3B 03 10  .....<.......;..
3BE0: 00 90 80 01 06 3C 02 16  00 18 80 80 F6 3B 03 10  .....<.......;..
3BF0: 00 98 80 01 06 3C 02 16  00 21 80 80 06 3C 03 10  .....<...!...<..
3C00: 00 47 80 01 06 3C 01 D4  3C 02 15 00 07 80 80 D4  .G...<..<.......
3C10: 3C 02 16 00 04 80 80 21  3C 03 10 00 16 80 01 D1  <......!<.......
3C20: 3C 02 16 00 05 80 80 31  3C 03 10 00 A6 80 01 D1  <......1<.......
3C30: 3C 02 16 00 06 80 80 41  3C 03 10 00 1F 80 01 D1  <......A<.......
3C40: 3C 02 16 00 07 80 80 51  3C 03 10 00 23 80 01 D1  <......Q<...#...
3C50: 3C 02 16 00 08 80 80 61  3C 03 10 00 A4 80 01 D1  <......a<.......
3C60: 3C 02 16 00 09 80 80 71  3C 03 10 00 91 80 01 D1  <......q<.......
3C70: 3C 02 16 00 0A 80 80 81  3C 03 10 00 22 80 01 D1  <.......<..."...
3C80: 3C 02 16 00 0B 80 80 91  3C 03 10 00 92 80 01 D1  <.......<.......
3C90: 3C 02 16 00 16 80 80 A1  3C 03 10 00 07 80 01 D1  <.......<.......
3CA0: 3C 02 16 00 17 80 80 B1  3C 03 10 00 97 80 01 D1  <.......<.......
3CB0: 3C 02 16 00 18 80 80 C1  3C 03 10 00 99 80 01 D1  <.......<.......
3CC0: 3C 02 16 00 21 80 80 D1  3C 03 10 00 A3 80 01 D1  <...!...<.......
3CD0: 3C 01 D4 3C 1B 02 15 00  04 80 80 A0 3D 02 16 00  <..<........=...
3CE0: 04 80 80 ED 3C 03 11 00  52 80 01 9D 3D 02 16 00  ....<...R...=...
3CF0: 05 80 80 FD 3C 03 11 00  06 80 01 9D 3D 02 16 00  ....<.......=...
3D00: 06 80 80 0D 3D 03 11 00  7F 80 01 9D 3D 02 16 00  ....=.......=...
3D10: 07 80 80 1D 3D 03 11 00  9D 80 01 9D 3D 02 16 00  ....=.......=...
3D20: 08 80 80 2D 3D 03 11 00  81 80 01 9D 3D 02 16 00  ...-=.......=...
3D30: 09 80 80 3D 3D 03 11 00  42 80 01 9D 3D 02 16 00  ...==...B...=...
3D40: 0A 80 80 4D 3D 03 11 00  17 80 01 9D 3D 02 16 00  ...M=.......=...
3D50: 0B 80 80 5D 3D 03 11 00  8A 80 01 9D 3D 02 16 00  ...]=.......=...
3D60: 16 80 80 6D 3D 03 11 00  89 80 01 9D 3D 02 16 00  ...m=.......=...
3D70: 17 80 80 7D 3D 03 11 00  9C 80 01 9D 3D 02 16 00  ...}=.......=...
3D80: 18 80 80 8D 3D 03 11 00  9E 80 01 9D 3D 02 16 00  ....=.......=...
3D90: 21 80 80 9D 3D 03 11 00  9B 80 01 9D 3D 01 01 40  !...=.......=..@
3DA0: 02 15 00 05 80 80 6B 3E  02 16 00 04 80 80 B8 3D  ......k>.......=
3DB0: 03 11 00 0A 80 01 68 3E  02 16 00 05 80 80 C8 3D  ......h>.......=
3DC0: 03 11 00 09 80 01 68 3E  02 16 00 06 80 80 D8 3D  ......h>.......=
3DD0: 03 11 00 7D 80 01 68 3E  02 16 00 07 80 80 E8 3D  ...}..h>.......=
3DE0: 03 11 00 77 80 01 68 3E  02 16 00 08 80 80 F8 3D  ...w..h>.......=
3DF0: 03 11 00 8C 80 01 68 3E  02 16 00 09 80 80 08 3E  ......h>.......>
3E00: 03 11 00 1E 80 01 68 3E  02 16 00 0A 80 80 18 3E  ......h>.......>
3E10: 03 11 00 0B 80 01 68 3E  02 16 00 0B 80 80 28 3E  ......h>......(>
3E20: 03 11 00 08 80 01 68 3E  02 16 00 16 80 80 38 3E  ......h>......8>
3E30: 03 11 00 19 80 01 68 3E  02 16 00 17 80 80 48 3E  ......h>......H>
3E40: 03 11 00 24 80 01 68 3E  02 16 00 18 80 80 58 3E  ...$..h>......X>
3E50: 03 11 00 88 80 01 68 3E  02 16 00 21 80 80 68 3E  ......h>...!..h>
3E60: 03 11 00 9A 80 01 68 3E  01 01 40 02 15 00 06 80  ......h>..@.....
3E70: 80 36 3F 02 16 00 04 80  80 83 3E 03 11 00 26 80  .6?.......>...&.
3E80: 01 33 3F 02 16 00 05 80  80 93 3E 03 11 00 7E 80  .3?.......>...~.
3E90: 01 33 3F 02 16 00 06 80  80 A3 3E 03 11 00 94 80  .3?.......>.....
3EA0: 01 33 3F 02 16 00 07 80  80 B3 3E 03 11 00 1D 80  .3?.......>.....
3EB0: 01 33 3F 02 16 00 08 80  80 C3 3E 03 11 00 1A 80  .3?.......>.....
3EC0: 01 33 3F 02 16 00 09 80  80 D3 3E 03 11 00 1C 80  .3?.......>.....
3ED0: 01 33 3F 02 16 00 0A 80  80 E3 3E 03 11 00 1B 80  .3?.......>.....
3EE0: 01 33 3F 02 16 00 0B 80  80 F3 3E 03 11 00 21 80  .3?.......>...!.
3EF0: 01 33 3F 02 16 00 16 80  80 03 3F 03 11 00 80 80  .3?.......?.....
3F00: 01 33 3F 02 16 00 17 80  80 13 3F 03 11 00 90 80  .3?.......?.....
3F10: 01 33 3F 02 16 00 18 80  80 23 3F 03 11 00 98 80  .3?......#?.....
3F20: 01 33 3F 02 16 00 21 80  80 33 3F 03 11 00 47 80  .3?...!..3?...G.
3F30: 01 33 3F 01 01 40 02 15  00 07 80 80 01 40 02 16  .3?..@.......@..
3F40: 00 04 80 80 4E 3F 03 11  00 16 80 01 FE 3F 02 16  ....N?.......?..
3F50: 00 05 80 80 5E 3F 03 11  00 0E 80 01 FE 3F 02 16  ....^?.......?..
3F60: 00 06 80 80 6E 3F 03 11  00 07 80 01 FE 3F 02 16  ....n?.......?..
3F70: 00 07 80 80 7E 3F 03 11  00 23 80 01 FE 3F 02 16  ....~?...#...?..
3F80: 00 08 80 80 8E 3F 03 11  00 A6 80 01 FE 3F 02 16  .....?.......?..
3F90: 00 09 80 80 9E 3F 03 11  00 04 80 01 FE 3F 02 16  .....?.......?..
3FA0: 00 0A 80 80 AE 3F 03 11  00 22 80 01 FE 3F 02 16  .....?..."...?..
3FB0: 00 0B 80 80 BE 3F 03 11  00 92 80 01 FE 3F 02 16  .....?.......?..
3FC0: 00 16 80 80 CE 3F 03 11  00 18 80 01 FE 3F 02 16  .....?.......?..
3FD0: 00 17 80 80 DE 3F 03 11  00 1F 80 01 FE 3F 02 16  .....?.......?..
3FE0: 00 18 80 80 EE 3F 03 11  00 99 80 01 FE 3F 02 16  .....?.......?..
3FF0: 00 21 80 80 FE 3F 03 11  00 A3 80 01 FE 3F 01 01  .!...?.......?..
4000: 40 1B 02 17 00 04 80 80  A0 40 02 16 00 04 80 80  @........@......
4010: 1F 40 03 12 00 56 80 03  13 00 56 80 01 9D 40 02  .@...V....V...@.
4020: 16 00 05 80 80 34 40 03  12 00 8F 80 03 13 00 8F  .....4@.........
4030: 80 01 9D 40 02 16 00 06  80 80 49 40 03 12 00 47  ...@......I@...G
4040: 80 03 13 00 47 80 01 9D  40 02 16 00 07 80 80 5E  ....G...@......^
4050: 40 03 12 00 A7 80 03 13  00 A7 80 01 9D 40 02 16  @............@..
4060: 00 08 80 80 73 40 03 12  00 A8 80 03 13 00 A8 80  ....s@..........
4070: 01 9D 40 02 16 00 09 80  80 88 40 03 12 00 9D 80  ..@.......@.....
4080: 03 13 00 9D 80 01 9D 40  02 16 00 0A 80 80 9D 40  .......@.......@
4090: 03 12 00 A9 80 03 13 00  A9 80 01 9D 40 01 E9 45  ............@..E
40A0: 02 17 00 05 80 80 1B 41  02 16 00 04 80 80 B8 40  .......A.......@
40B0: 03 12 00 AA 80 01 18 41  02 16 00 05 80 80 C8 40  .......A.......@
40C0: 03 12 00 AB 80 01 18 41  02 16 00 06 80 80 D8 40  .......A.......@
40D0: 03 12 00 AC 80 01 18 41  02 16 00 07 80 80 E8 40  .......A.......@
40E0: 03 12 00 AD 80 01 18 41  02 16 00 08 80 80 F8 40  .......A.......@
40F0: 03 12 00 AE 80 01 18 41  02 16 00 09 80 80 08 41  .......A.......A
4100: 03 12 00 AF 80 01 18 41  02 16 00 0A 80 80 18 41  .......A.......A
4110: 03 12 00 B0 80 01 18 41  01 E9 45 02 17 00 06 80  .......A..E.....
4120: 80 96 41 02 16 00 04 80  80 33 41 03 12 00 B1 80  ..A......3A.....
4130: 01 93 41 02 16 00 05 80  80 43 41 03 12 00 B2 80  ..A......CA.....
4140: 01 93 41 02 16 00 06 80  80 53 41 03 12 00 B3 80  ..A......SA.....
4150: 01 93 41 02 16 00 07 80  80 63 41 03 12 00 B4 80  ..A......cA.....
4160: 01 93 41 02 16 00 08 80  80 73 41 03 12 00 B5 80  ..A......sA.....
4170: 01 93 41 02 16 00 09 80  80 83 41 03 12 00 B6 80  ..A.......A.....
4180: 01 93 41 02 16 00 0A 80  80 93 41 03 12 00 4B 80  ..A.......A...K.
4190: 01 93 41 01 E9 45 02 17  00 07 80 80 11 42 02 16  ..A..E.......B..
41A0: 00 04 80 80 AE 41 03 12  00 B7 80 01 0E 42 02 16  .....A.......B..
41B0: 00 05 80 80 BE 41 03 12  00 B8 80 01 0E 42 02 16  .....A.......B..
41C0: 00 06 80 80 CE 41 03 12  00 B9 80 01 0E 42 02 16  .....A.......B..
41D0: 00 07 80 80 DE 41 03 12  00 BA 80 01 0E 42 02 16  .....A.......B..
41E0: 00 08 80 80 EE 41 03 12  00 BB 80 01 0E 42 02 16  .....A.......B..
41F0: 00 09 80 80 FE 41 03 12  00 BC 80 01 0E 42 02 16  .....A.......B..
4200: 00 0A 80 80 0E 42 03 12  00 BD 80 01 0E 42 01 E9  .....B.......B..
4210: 45 02 17 00 08 80 80 8C  42 02 16 00 04 80 80 29  E.......B......)
4220: 42 03 12 00 BE 80 01 89  42 02 16 00 05 80 80 39  B.......B......9
4230: 42 03 12 00 BF 80 01 89  42 02 16 00 06 80 80 49  B.......B......I
4240: 42 03 12 00 C0 80 01 89  42 02 16 00 07 80 80 59  B.......B......Y
4250: 42 03 12 00 C1 80 01 89  42 02 16 00 08 80 80 69  B.......B......i
4260: 42 03 12 00 C2 80 01 89  42 02 16 00 09 80 80 79  B.......B......y
4270: 42 03 12 00 C3 80 01 89  42 02 16 00 0A 80 80 89  B.......B.......
4280: 42 03 12 00 C4 80 01 89  42 01 E9 45 02 17 00 09  B.......B..E....
4290: 80 80 07 43 02 16 00 04  80 80 A4 42 03 12 00 83  ...C.......B....
42A0: 80 01 04 43 02 16 00 05  80 80 B4 42 03 12 00 0C  ...C.......B....
42B0: 80 01 04 43 02 16 00 06  80 80 C4 42 03 12 00 C5  ...C.......B....
42C0: 80 01 04 43 02 16 00 07  80 80 D4 42 03 12 00 13  ...C.......B....
42D0: 80 01 04 43 02 16 00 08  80 80 E4 42 03 12 00 14  ...C.......B....
42E0: 80 01 04 43 02 16 00 09  80 80 F4 42 03 12 00 C6  ...C.......B....
42F0: 80 01 04 43 02 16 00 0A  80 80 04 43 03 12 00 60  ...C.......C...`
4300: 80 01 04 43 01 E9 45 02  17 00 0A 80 80 82 43 02  ...C..E.......C.
4310: 16 00 04 80 80 1F 43 03  12 00 C7 80 01 7F 43 02  ......C.......C.
4320: 16 00 05 80 80 2F 43 03  12 00 43 80 01 7F 43 02  ...../C...C...C.
4330: 16 00 06 80 80 3F 43 03  12 00 C8 80 01 7F 43 02  .....?C.......C.
4340: 16 00 07 80 80 4F 43 03  12 00 C9 80 01 7F 43 02  .....OC.......C.
4350: 16 00 08 80 80 5F 43 03  12 00 CA 80 01 7F 43 02  ....._C.......C.
4360: 16 00 09 80 80 6F 43 03  12 00 CB 80 01 7F 43 02  .....oC.......C.
4370: 16 00 0A 80 80 7F 43 03  12 00 CC 80 01 7F 43 01  ......C.......C.
4380: E9 45 02 17 00 0B 80 80  FD 43 02 16 00 04 80 80  .E.......C......
4390: 9A 43 03 12 00 CD 80 01  FA 43 02 16 00 05 80 80  .C.......C......
43A0: AA 43 03 12 00 CE 80 01  FA 43 02 16 00 06 80 80  .C.......C......
43B0: BA 43 03 12 00 CF 80 01  FA 43 02 16 00 07 80 80  .C.......C......
43C0: CA 43 03 12 00 D0 80 01  FA 43 02 16 00 08 80 80  .C.......C......
43D0: DA 43 03 12 00 D1 80 01  FA 43 02 16 00 09 80 80  .C.......C......
43E0: EA 43 03 12 00 D2 80 01  FA 43 02 16 00 0A 80 80  .C.......C......
43F0: FA 43 03 12 00 D3 80 01  FA 43 01 E9 45 02 17 00  .C.......C..E...
4400: 16 80 80 78 44 02 16 00  04 80 80 15 44 03 12 00  ...xD.......D...
4410: D4 80 01 75 44 02 16 00  05 80 80 25 44 03 12 00  ...uD......%D...
4420: D5 80 01 75 44 02 16 00  06 80 80 35 44 03 12 00  ...uD......5D...
4430: D6 80 01 75 44 02 16 00  07 80 80 45 44 03 12 00  ...uD......ED...
4440: D7 80 01 75 44 02 16 00  08 80 80 55 44 03 12 00  ...uD......UD...
4450: D8 80 01 75 44 02 16 00  09 80 80 65 44 03 12 00  ...uD......eD...
4460: D9 80 01 75 44 02 16 00  0A 80 80 75 44 03 12 00  ...uD......uD...
4470: DA 80 01 75 44 01 E9 45  02 17 00 17 80 80 F3 44  ...uD..E.......D
4480: 02 16 00 04 80 80 90 44  03 12 00 DB 80 01 F0 44  .......D.......D
4490: 02 16 00 05 80 80 A0 44  03 12 00 DC 80 01 F0 44  .......D.......D
44A0: 02 16 00 06 80 80 B0 44  03 12 00 DD 80 01 F0 44  .......D.......D
44B0: 02 16 00 07 80 80 C0 44  03 12 00 DE 80 01 F0 44  .......D.......D
44C0: 02 16 00 08 80 80 D0 44  03 12 00 DF 80 01 F0 44  .......D.......D
44D0: 02 16 00 09 80 80 E0 44  03 12 00 E0 80 01 F0 44  .......D.......D
44E0: 02 16 00 0A 80 80 F0 44  03 12 00 E1 80 01 F0 44  .......D.......D
44F0: 01 E9 45 02 17 00 18 80  80 6E 45 02 16 00 04 80  ..E......nE.....
4500: 80 0B 45 03 12 00 A6 80  01 6B 45 02 16 00 05 80  ..E......kE.....
4510: 80 1B 45 03 12 00 E2 80  01 6B 45 02 16 00 06 80  ..E......kE.....
4520: 80 2B 45 03 12 00 E3 80  01 6B 45 02 16 00 07 80  .+E......kE.....
4530: 80 3B 45 03 12 00 E4 80  01 6B 45 02 16 00 08 80  .;E......kE.....
4540: 80 4B 45 03 12 00 98 80  01 6B 45 02 16 00 09 80  .KE......kE.....
4550: 80 5B 45 03 12 00 E5 80  01 6B 45 02 16 00 0A 80  .[E......kE.....
4560: 80 6B 45 03 12 00 E6 80  01 6B 45 01 E9 45 02 17  .kE......kE..E..
4570: 00 21 80 80 E9 45 02 16  00 04 80 80 86 45 03 12  .!...E.......E..
4580: 00 E7 80 01 E6 45 02 16  00 05 80 80 96 45 03 12  .....E.......E..
4590: 00 E8 80 01 E6 45 02 16  00 06 80 80 A6 45 03 12  .....E.......E..
45A0: 00 E9 80 01 E6 45 02 16  00 07 80 80 B6 45 03 12  .....E.......E..
45B0: 00 EA 80 01 E6 45 02 16  00 08 80 80 C6 45 03 12  .....E.......E..
45C0: 00 EB 80 01 E6 45 02 16  00 09 80 80 D6 45 03 12  .....E.......E..
45D0: 00 EC 80 01 E6 45 02 16  00 0A 80 80 E6 45 03 12  .....E.......E..
45E0: 00 ED 80 01 E6 45 01 E9  45 1B 02 17 00 04 80 80  .....E..E.......
45F0: F5 45 01 C5 46 02 17 00  07 80 80 05 46 03 17 00  .E..F.......F...
4600: 04 80 01 C5 46 02 17 00  09 80 80 15 46 03 17 00  ....F.......F...
4610: 04 80 01 C5 46 02 17 00  0A 80 80 25 46 03 17 00  ....F......%F...
4620: 04 80 01 C5 46 02 17 00  0B 80 80 35 46 03 17 00  ....F......5F...
4630: 04 80 01 C5 46 02 17 00  17 80 80 45 46 03 17 00  ....F......EF...
4640: 04 80 01 C5 46 02 17 00  21 80 80 55 46 03 17 00  ....F...!..UF...
4650: 04 80 01 C5 46 02 16 00  04 80 80 65 46 03 13 00  ....F......eF...
4660: EE 80 01 C5 46 02 16 00  05 80 80 75 46 03 13 00  ....F......uF...
4670: 23 80 01 C5 46 02 16 00  06 80 80 85 46 03 13 00  #...F.......F...
4680: EF 80 01 C5 46 02 16 00  07 80 80 95 46 03 13 00  ....F.......F...
4690: F0 80 01 C5 46 02 16 00  08 80 80 A5 46 03 13 00  ....F.......F...
46A0: 42 80 01 C5 46 02 16 00  09 80 80 B5 46 03 13 00  B...F.......F...
46B0: 9F 80 01 C5 46 02 16 00  0A 80 80 C5 46 03 13 00  ....F.......F...
46C0: 7D 80 01 C5 46 1B 02 14  00 04 80 80 D1 46 01 C8  }...F........F..
46D0: 47 02 14 00 05 80 80 E1  46 03 0D 00 F1 80 01 C8  G.......F.......
46E0: 47 02 14 00 06 80 80 F1  46 03 0D 00 A8 80 01 C8  G.......F.......
46F0: 47 02 14 00 07 80 80 01  47 03 0D 00 F2 80 01 C8  G.......G.......
4700: 47 02 14 00 08 80 80 11  47 03 0D 00 F3 80 01 C8  G.......G.......
4710: 47 02 14 00 09 80 80 21  47 03 0D 00 CE 80 01 C8  G......!G.......
4720: 47 02 14 00 0A 80 80 31  47 03 0D 00 0E 80 01 C8  G......1G.......
4730: 47 02 14 00 0B 80 80 41  47 03 0D 00 5B 80 01 C8  G......AG...[...
4740: 47 02 14 00 16 80 80 51  47 03 0D 00 54 80 01 C8  G......QG...T...
4750: 47 02 14 00 17 80 80 C8  47 02 0B 00 04 80 80 64  G.......G......d
4760: 47 01 C5 47 02 0B 00 05  80 80 74 47 03 0D 00 F4  G..G......tG....
4770: 80 01 C5 47 02 0B 00 06  80 80 7F 47 01 C5 47 02  ...G.......G..G.
4780: 0B 00 07 80 80 8F 47 03  0D 00 F4 80 01 C5 47 02  ......G.......G.
4790: 0B 00 08 80 80 9A 47 01  C5 47 02 0B 00 09 80 80  ......G..G......
47A0: AA 47 03 0D 00 F4 80 01  C5 47 02 0B 00 0A 80 80  .G.......G......
47B0: BA 47 03 0D 00 F4 80 01  C5 47 02 0B 00 0B 80 80  .G.......G......
47C0: C5 47 01 C5 47 01 C8 47  1B 02 14 00 04 80 80 D4  .G..G..G........
47D0: 47 01 12 48 02 14 00 05  80 80 F3 47 03 0E 00 E3  G..H.......G....
47E0: 80 03 0F 00 E3 80 03 10  00 E3 80 03 11 00 E3 80  ................
47F0: 01 12 48 02 14 00 06 80  80 12 48 03 0E 00 F4 80  ..H.......H.....
4800: 03 0F 00 F4 80 03 10 00  F4 80 03 11 00 F4 80 01  ................
4810: 12 48 1B 02 14 00 04 80  80 1E 48 01 73 48 02 14  .H........H.sH..
4820: 00 05 80 80 2E 48 03 12  00 F5 80 01 73 48 02 14  .....H......sH..
4830: 00 06 80 80 3E 48 03 12  00 F6 80 01 73 48 02 14  ....>H......sH..
4840: 00 07 80 80 53 48 03 12  00 F7 80 03 13 00 04 80  ....SH..........
4850: 01 73 48 02 14 00 08 80  80 63 48 03 12 00 F8 80  .sH......cH.....
4860: 01 73 48 02 14 00 09 80  80 73 48 03 12 00 F9 80  .sH......sH.....
4870: 01 73 48 1B                                       .sH.            
```

#### Opcodes

```
  0: 0x0002 [0x2F] EventEntity->Render.Flags0 &= ~0x80000 // Bit 19
  1: 0x0008 [0x37] UPDATE_EVENT_POSITION_AND_DIR: x=-88.265*, z=198.135*, y=32.443*, direction=120.1*
  2: 0x0011 [0x22] ENTITY_HIDE_FLAG(enabled=0x00)
  3: 0x0013 [0x80] LOAD_WAIT(entity=EventEntity)
  4: 0x0018 [0x00] END_REQSTACK()
```

#### Data or dead code:

```
# Dead code (unreachable instructions):
     0x0019 [0x03] ExtData[1]->WorkLocal[2] = 0*
     0x001E [0x1A] CALL_SUBROUTINE(address=0x1464)
     0x0021 [0x1A] CALL_SUBROUTINE(address=0x146E)
     0x0024 [0x02] IF !(ExtData[1]->WorkLocal[11] == 0*) GOTO 0x0127
     0x002C [0x02] IF !(ExtData[1]->WorkLocal[1] == 0*) GOTO 0x004B
     0x0034 [0xB4] UI_WINDOW_STRING_HANDLER(case=0x00 - Copy string from opcode, work_offset=ExtData[1]->WorkLocal[2], string="Feliz")
     0x0048 [0x01] GOTO 0x0124
     0x004B [0x02] IF !(ExtData[1]->WorkLocal[1] == 1*) GOTO 0x006A
     0x0053 [0xB4] UI_WINDOW_STRING_HANDLER(case=0x00 - Copy string from opcode, work_offset=ExtData[1]->WorkLocal[2], string="Ferdinand")
     0x0067 [0x01] GOTO 0x0124
     0x006A [0x02] IF !(ExtData[1]->WorkLocal[1] == 2*) GOTO 0x0089
     0x0072 [0xB4] UI_WINDOW_STRING_HANDLER(case=0x00 - Copy string from opcode, work_offset=ExtData[1]->WorkLocal[2], string="Gunnar")
     0x0086 [0x01] GOTO 0x0124
     0x0089 [0x02] IF !(ExtData[1]->WorkLocal[1] == 3*) GOTO 0x00A8
     0x0091 [0xB4] UI_WINDOW_STRING_HANDLER(case=0x00 - Copy string from opcode, work_offset=ExtData[1]->WorkLocal[2], string="Massimo")
     0x00A5 [0x01] GOTO 0x0124
     0x00A8 [0x02] IF !(ExtData[1]->WorkLocal[1] == 4*) GOTO 0x00C7
     0x00B0 [0xB4] UI_WINDOW_STRING_HANDLER(case=0x00 - Copy string from opcode, work_offset=ExtData[1]->WorkLocal[2], string="Oldrich")
     0x00C4 [0x01] GOTO 0x0124
     0x00C7 [0x02] IF !(ExtData[1]->WorkLocal[1] == 5*) GOTO 0x00E6
     0x00CF [0xB4] UI_WINDOW_STRING_HANDLER(case=0x00 - Copy string from opcode, work_offset=ExtData[1]->WorkLocal[2], string="Siegward")
     0x00E3 [0x01] GOTO 0x0124
     0x00E6 [0x02] IF !(ExtData[1]->WorkLocal[1] == 6*) GOTO 0x0105
     0x00EE [0xB4] UI_WINDOW_STRING_HANDLER(case=0x00 - Copy string from opcode, work_offset=ExtData[1]->WorkLocal[2], string="Theobald")
     0x0102 [0x01] GOTO 0x0124
     0x0105 [0x02] IF !(ExtData[1]->WorkLocal[1] == 7*) GOTO 0x0124
     0x010D [0xB4] UI_WINDOW_STRING_HANDLER(case=0x00 - Copy string from opcode, work_offset=ExtData[1]->WorkLocal[2], string="Zenji")
     0x0121 [0x01] GOTO 0x0124
     0x0124 [0x01] GOTO 0x083C
     0x0127 [0x02] IF !(ExtData[1]->WorkLocal[11] == 1*) GOTO 0x022A
     0x012F [0x02] IF !(ExtData[1]->WorkLocal[1] == 0*) GOTO 0x014E
     0x0137 [0xB4] UI_WINDOW_STRING_HANDLER(case=0x00 - Copy string from opcode, work_offset=ExtData[1]->WorkLocal[2], string="Amerita")
     0x014B [0x01] GOTO 0x0227
     0x014E [0x02] IF !(ExtData[1]->WorkLocal[1] == 1*) GOTO 0x016D
     0x0156 [0xB4] UI_WINDOW_STRING_HANDLER(case=0x00 - Copy string from opcode, work_offset=ExtData[1]->WorkLocal[2], string="Beatrice")
     0x016A [0x01] GOTO 0x0227
     0x016D [0x02] IF !(ExtData[1]->WorkLocal[1] == 2*) GOTO 0x018C
