# Event 65535

## Metadata

| Field           | Value    |
|-----------------|----------|
| Event Index     | 12/157   |
| Offset          | 0x00A0   |
| Data Size       | 35 bytes |
| Calculated Size | 35 bytes |
| Instructions    | 9        |

```
      00 01 02 03 04 05 06 07  08 09 0A 0B 0C 0D 0E 0F
      -- -- -- -- -- -- -- --  -- -- -- -- -- -- -- --
00A0: 32 18 80 1F 00 19 80 1A  80 03 80 1F 01 1F 00 1B  2...............
00B0: 80 1C 80 03 80 1F 01 1F  00 1D 80 1E 80 0D 80 1F  ................
00C0: 01 6F 00                                          .o.             
```

## Opcodes

```
  0: 0x00A0 [0x32] ExtData[1]->MainSpeed = 38* * 0.1
  1: 0x00A3 [0x1F] MOVE_ENTITY: EventEntity moves to X=31.347*, Z=-45.669*, Y=-7.203*
  2: 0x00AB [0x1F] MOVE_ENTITY: Update entity position (mode=1)
  3: 0x00AD [0x1F] MOVE_ENTITY: EventEntity moves to X=33.178*, Z=-47.304*, Y=-7.203*
  4: 0x00B5 [0x1F] MOVE_ENTITY: Update entity position (mode=1)
  5: 0x00B7 [0x1F] MOVE_ENTITY: EventEntity moves to X=34.142*, Z=-51.437*, Y=-6.601*
  6: 0x00BF [0x1F] MOVE_ENTITY: Update entity position (mode=1)
  7: 0x00C1 [0x6F] WAIT_FRAME_DELAY: Yield until WaitTime reaches zero
  8: 0x00C2 [0x00] END_REQSTACK()
```
