# Event 65535

## Metadata

| Field           | Value    |
|-----------------|----------|
| Event Index     | 24/36    |
| Offset          | 0x0245   |
| Data Size       | 66 bytes |
| Calculated Size | 66 bytes |
| Instructions    | 16       |

```
      00 01 02 03 04 05 06 07  08 09 0A 0B 0C 0D 0E 0F
      -- -- -- -- -- -- -- --  -- -- -- -- -- -- -- --
0240:                32 1C 80  1F 00 43 80 44 80 45 80       2....C.D.E.
0250: 1F 01 1C 4F 80 1F 00 46  80 47 80 48 80 1F 01 1C  ...O...F.G.H....
0260: 4F 80 1F 00 49 80 4A 80  4B 80 1F 01 1C 4F 80 1F  O...I.J.K....O..
0270: 00 4C 80 4D 80 4E 80 1F  01 1C 4F 80 1F 00 3F 80  .L.M.N....O...?.
0280: 40 80 41 80 1F 01 00                              @.A....         
```

## Opcodes

```
  0: 0x0245 [0x32] ExtData[1]->MainSpeed = 19* * 0.1
  1: 0x0248 [0x1F] MOVE_ENTITY: EventEntity moves to X=-601.910*, Z=587.743*, Y=0.274*
  2: 0x0250 [0x1F] MOVE_ENTITY: Update entity position (mode=1)
  3: 0x0252 [0x1C] WAIT(30* ticks)
  4: 0x0255 [0x1F] MOVE_ENTITY: EventEntity moves to X=-600.199*, Z=588.994*, Y=0.347*
  5: 0x025D [0x1F] MOVE_ENTITY: Update entity position (mode=1)
  6: 0x025F [0x1C] WAIT(30* ticks)
  7: 0x0262 [0x1F] MOVE_ENTITY: EventEntity moves to X=-599.211*, Z=586.089*, Y=0.586*
  8: 0x026A [0x1F] MOVE_ENTITY: Update entity position (mode=1)
  9: 0x026C [0x1C] WAIT(30* ticks)
 10: 0x026F [0x1F] MOVE_ENTITY: EventEntity moves to X=-599.391*, Z=583.375*, Y=0.830*
 11: 0x0277 [0x1F] MOVE_ENTITY: Update entity position (mode=1)
 12: 0x0279 [0x1C] WAIT(30* ticks)
 13: 0x027C [0x1F] MOVE_ENTITY: EventEntity moves to X=-600.128*, Z=585.578*, Y=0.628*
 14: 0x0284 [0x1F] MOVE_ENTITY: Update entity position (mode=1)
 15: 0x0286 [0x00] END_REQSTACK()
```
