# Event 65535

## Metadata

| Field           | Value    |
|-----------------|----------|
| Event Index     | 28/36    |
| Offset          | 0x0311   |
| Data Size       | 50 bytes |
| Calculated Size | 50 bytes |
| Instructions    | 12       |

```
      00 01 02 03 04 05 06 07  08 09 0A 0B 0C 0D 0E 0F
      -- -- -- -- -- -- -- --  -- -- -- -- -- -- -- --
0310:    32 1C 80 1F 00 60 80  61 80 62 80 1F 01 1C 5B   2....`.a.b....[
0320: 80 1F 00 5C 80 5D 80 5E  80 1F 01 1C 5B 80 1F 00  ...\.].^....[...
0330: 3F 80 40 80 41 80 1F 01  4B 47 10 0F 01 5F 80 1C  ?.@.A...KG..._..
0340: 5B 80 00                                          [..             
```

## Opcodes

```
  0: 0x0311 [0x32] ExtData[1]->MainSpeed = 19* * 0.1
  1: 0x0314 [0x1F] MOVE_ENTITY: EventEntity moves to X=-599.892*, Z=588.477*, Y=0.373*
  2: 0x031C [0x1F] MOVE_ENTITY: Update entity position (mode=1)
  3: 0x031E [0x1C] WAIT(60* ticks)
  4: 0x0321 [0x1F] MOVE_ENTITY: EventEntity moves to X=-602.144*, Z=586.825*, Y=0.376*
  5: 0x0329 [0x1F] MOVE_ENTITY: Update entity position (mode=1)
  6: 0x032B [0x1C] WAIT(60* ticks)
  7: 0x032E [0x1F] MOVE_ENTITY: EventEntity moves to X=-600.128*, Z=585.578*, Y=0.628*
  8: 0x0336 [0x1F] MOVE_ENTITY: Update entity position (mode=1)
  9: 0x0338 [0x4B] UPDATE_ENTITY_YAW(entity=Unnamed NPC (ID: 17764423/0x010F1047), yaw=11.79°*)
 10: 0x033F [0x1C] WAIT(60* ticks)
 11: 0x0342 [0x00] END_REQSTACK()
```
