# Event 65535

## Metadata

| Field           | Value    |
|-----------------|----------|
| Event Index     | 20/36    |
| Offset          | 0x01CD   |
| Data Size       | 45 bytes |
| Calculated Size | 45 bytes |
| Instructions    | 10       |

```
      00 01 02 03 04 05 06 07  08 09 0A 0B 0C 0D 0E 0F
      -- -- -- -- -- -- -- --  -- -- -- -- -- -- -- --
01C0:                                         02 04 00               ...
01D0: 3E 80 01 F9 01 32 1C 80  1F 00 35 80 36 80 37 80  >....2....5.6.7.
01E0: 1F 01 1F 00 38 80 39 80  3A 80 1F 01 1F 00 3B 80  ....8.9.:.....;.
01F0: 3C 80 3D 80 1F 01 01 CD  01 00                    <.=.......      
```

## Opcodes

```
  0: 0x01CD [0x02] IF !(ExtData[1]->WorkLocal[4] == 2*) GOTO 0x01F9
  1: 0x01D5 [0x32] ExtData[1]->MainSpeed = 19* * 0.1
  2: 0x01D8 [0x1F] MOVE_ENTITY: EventEntity moves to X=-602.788*, Z=610.368*, Y=0.316*
  3: 0x01E0 [0x1F] MOVE_ENTITY: Update entity position (mode=1)
  4: 0x01E2 [0x1F] MOVE_ENTITY: EventEntity moves to X=-605.459*, Z=605.068*, Y=0.123*
  5: 0x01EA [0x1F] MOVE_ENTITY: Update entity position (mode=1)
  6: 0x01EC [0x1F] MOVE_ENTITY: EventEntity moves to X=-603.359*, Z=608.272*, Y=0.211*
  7: 0x01F4 [0x1F] MOVE_ENTITY: Update entity position (mode=1)
  8: 0x01F6 [0x01] GOTO 0x01CD

SUBROUTINE_01F9:
  9: 0x01F9 [0x00] END_REQSTACK()
```
