# Event 65535

## Metadata

| Field           | Value    |
|-----------------|----------|
| Event Index     | 34/36    |
| Offset          | 0x0408   |
| Data Size       | 59 bytes |
| Calculated Size | 59 bytes |
| Instructions    | 13       |

```
      00 01 02 03 04 05 06 07  08 09 0A 0B 0C 0D 0E 0F
      -- -- -- -- -- -- -- --  -- -- -- -- -- -- -- --
0400:                          32 34 80 1F 00 7B 80 7C          24...{.|
0410: 80 7D 80 1F 01 1F 00 7E  80 7F 80 80 80 1F 01 1F  .}.....~........
0420: 00 81 80 82 80 83 80 1F  01 1F 00 84 80 85 80 86  ................
0430: 80 1F 01 1F 00 87 80 88  80 89 80 1F 01 1E 44 10  ..............D.
0440: 0F 01 00                                          ...             
```

## Opcodes

```
  0: 0x0408 [0x32] ExtData[1]->MainSpeed = 10* * 0.1
  1: 0x040B [0x1F] MOVE_ENTITY: EventEntity moves to X=-601.361*, Z=584.507*, Y=0.542*
  2: 0x0413 [0x1F] MOVE_ENTITY: Update entity position (mode=1)
  3: 0x0415 [0x1F] MOVE_ENTITY: EventEntity moves to X=-600.414*, Z=583.859*, Y=0.704*
  4: 0x041D [0x1F] MOVE_ENTITY: Update entity position (mode=1)
  5: 0x041F [0x1F] MOVE_ENTITY: EventEntity moves to X=-599.376*, Z=585.276*, Y=0.668*
  6: 0x0427 [0x1F] MOVE_ENTITY: Update entity position (mode=1)
  7: 0x0429 [0x1F] MOVE_ENTITY: EventEntity moves to X=-598.992*, Z=587.260*, Y=0.468*
  8: 0x0431 [0x1F] MOVE_ENTITY: Update entity position (mode=1)
  9: 0x0433 [0x1F] MOVE_ENTITY: EventEntity moves to X=-599.942*, Z=587.474*, Y=0.447*
 10: 0x043B [0x1F] MOVE_ENTITY: Update entity position (mode=1)
 11: 0x043D [0x1E] EventEntity looks at Unnamed NPC (ID: 17764420/0x010F1044) and starts talking
 12: 0x0442 [0x00] END_REQSTACK()
```
