# Event 65535

## Metadata

| Field           | Value    |
|-----------------|----------|
| Event Index     | 27/36    |
| Offset          | 0x02DF   |
| Data Size       | 50 bytes |
| Calculated Size | 50 bytes |
| Instructions    | 12       |

```
      00 01 02 03 04 05 06 07  08 09 0A 0B 0C 0D 0E 0F
      -- -- -- -- -- -- -- --  -- -- -- -- -- -- -- --
02D0:                                               32                 2
02E0: 34 80 1F 00 58 80 59 80  5A 80 1F 01 1C 5B 80 1F  4...X.Y.Z....[..
02F0: 00 5C 80 5D 80 5E 80 1F  01 1C 5B 80 1F 00 3F 80  .\.].^....[...?.
0300: 40 80 41 80 1F 01 4B 47  10 0F 01 5F 80 1C 5B 80  @.A...KG..._..[.
0310: 00                                                .               
```

## Opcodes

```
  0: 0x02DF [0x32] ExtData[1]->MainSpeed = 10* * 0.1
  1: 0x02E2 [0x1F] MOVE_ENTITY: EventEntity moves to X=-600.221*, Z=588.558*, Y=0.369*
  2: 0x02EA [0x1F] MOVE_ENTITY: Update entity position (mode=1)
  3: 0x02EC [0x1C] WAIT(60* ticks)
  4: 0x02EF [0x1F] MOVE_ENTITY: EventEntity moves to X=-602.144*, Z=586.825*, Y=0.376*
  5: 0x02F7 [0x1F] MOVE_ENTITY: Update entity position (mode=1)
  6: 0x02F9 [0x1C] WAIT(60* ticks)
  7: 0x02FC [0x1F] MOVE_ENTITY: EventEntity moves to X=-600.128*, Z=585.578*, Y=0.628*
  8: 0x0304 [0x1F] MOVE_ENTITY: Update entity position (mode=1)
  9: 0x0306 [0x4B] UPDATE_ENTITY_YAW(entity=Unnamed NPC (ID: 17764423/0x010F1047), yaw=11.8°*)
 10: 0x030D [0x1C] WAIT(60* ticks)
 11: 0x0310 [0x00] END_REQSTACK()
```
