# Event 65535

## Metadata

| Field           | Value    |
|-----------------|----------|
| Event Index     | 23/36    |
| Offset          | 0x020F   |
| Data Size       | 54 bytes |
| Calculated Size | 54 bytes |
| Instructions    | 12       |

```
      00 01 02 03 04 05 06 07  08 09 0A 0B 0C 0D 0E 0F
      -- -- -- -- -- -- -- --  -- -- -- -- -- -- -- --
0200:                                               32                 2
0210: 34 80 1F 00 43 80 44 80  45 80 1F 01 1F 00 46 80  4...C.D.E.....F.
0220: 47 80 48 80 1F 01 1F 00  49 80 4A 80 4B 80 1F 01  G.H.....I.J.K...
0230: 1F 00 4C 80 4D 80 4E 80  1F 01 1F 00 3F 80 40 80  ..L.M.N.....?.@.
0240: 41 80 1F 01 00                                    A....           
```

## Opcodes

```
  0: 0x020F [0x32] ExtData[1]->MainSpeed = 10* * 0.1
  1: 0x0212 [0x1F] MOVE_ENTITY: EventEntity moves to X=-601.910*, Z=587.743*, Y=0.274*
  2: 0x021A [0x1F] MOVE_ENTITY: Update entity position (mode=1)
  3: 0x021C [0x1F] MOVE_ENTITY: EventEntity moves to X=-600.199*, Z=588.994*, Y=0.347*
  4: 0x0224 [0x1F] MOVE_ENTITY: Update entity position (mode=1)
  5: 0x0226 [0x1F] MOVE_ENTITY: EventEntity moves to X=-599.211*, Z=586.089*, Y=0.586*
  6: 0x022E [0x1F] MOVE_ENTITY: Update entity position (mode=1)
  7: 0x0230 [0x1F] MOVE_ENTITY: EventEntity moves to X=-599.391*, Z=583.375*, Y=0.830*
  8: 0x0238 [0x1F] MOVE_ENTITY: Update entity position (mode=1)
  9: 0x023A [0x1F] MOVE_ENTITY: EventEntity moves to X=-600.128*, Z=585.578*, Y=0.628*
 10: 0x0242 [0x1F] MOVE_ENTITY: Update entity position (mode=1)
 11: 0x0244 [0x00] END_REQSTACK()
```
