# Event 65535

## Metadata

| Field           | Value    |
|-----------------|----------|
| Event Index     | 29/36    |
| Offset          | 0x0343   |
| Data Size       | 67 bytes |
| Calculated Size | 67 bytes |
| Instructions    | 15       |

```
      00 01 02 03 04 05 06 07  08 09 0A 0B 0C 0D 0E 0F
      -- -- -- -- -- -- -- --  -- -- -- -- -- -- -- --
0340:          32 05 80 1F 00  63 80 64 80 65 80 1F 01     2....c.d.e...
0350: 4B 47 10 0F 01 66 80 1C  5B 80 1F 00 67 80 68 80  KG...f..[...g.h.
0360: 69 80 1F 01 4B 47 10 0F  01 6A 80 1C 6B 80 1F 00  i...KG...j..k...
0370: 6C 80 6D 80 6E 80 1F 01  1C 4F 80 4B 47 10 0F 01  l.m.n....O.KG...
0380: 6F 80 1C 5B 80 00                                 o..[..          
```

## Opcodes

```
  0: 0x0343 [0x32] ExtData[1]->MainSpeed = 57* * 0.1
  1: 0x0346 [0x1F] MOVE_ENTITY: EventEntity moves to X=-599.295*, Z=590.678*, Y=0.264*
  2: 0x034E [0x1F] MOVE_ENTITY: Update entity position (mode=1)
  3: 0x0350 [0x4B] UPDATE_ENTITY_YAW(entity=Unnamed NPC (ID: 17764423/0x010F1047), yaw=5.27°*)
  4: 0x0357 [0x1C] WAIT(60* ticks)
  5: 0x035A [0x1F] MOVE_ENTITY: EventEntity moves to X=-604.353*, Z=586.292*, Y=0.138*
  6: 0x0362 [0x1F] MOVE_ENTITY: Update entity position (mode=1)
  7: 0x0364 [0x4B] UPDATE_ENTITY_YAW(entity=Unnamed NPC (ID: 17764423/0x010F1047), yaw=0.20°*)
  8: 0x036B [0x1C] WAIT(240* ticks)
  9: 0x036E [0x1F] MOVE_ENTITY: EventEntity moves to X=-600.328*, Z=582.410*, Y=0.802*
 10: 0x0376 [0x1F] MOVE_ENTITY: Update entity position (mode=1)
 11: 0x0378 [0x1C] WAIT(30* ticks)
 12: 0x037B [0x4B] UPDATE_ENTITY_YAW(entity=Unnamed NPC (ID: 17764423/0x010F1047), yaw=16.63°*)
 13: 0x0382 [0x1C] WAIT(60* ticks)
 14: 0x0385 [0x00] END_REQSTACK()
```
