# Event 114

## Metadata

| Field           | Value    |
|-----------------|----------|
| Event Index     | 7/16     |
| Offset          | 0x0059   |
| Data Size       | 60 bytes |
| Calculated Size | 60 bytes |
| Instructions    | 11       |

```
      00 01 02 03 04 05 06 07  08 09 0A 0B 0C 0D 0E 0F
      -- -- -- -- -- -- -- --  -- -- -- -- -- -- -- --
0050:                             29 0B E6 51 09 01 07           )..Q...
0060: 29 0B E6 51 09 01 08 29  0B E6 51 09 01 09 29 0B  )..Q...)..Q...).
0070: E6 51 09 01 0A 29 0B E6  51 09 01 0B 29 0B E6 51  .Q...)..Q...)..Q
0080: 09 01 0C 29 0B E6 51 09  01 0D 29 0B E6 51 09 01  ...)..Q...)..Q..
0090: 0E 20 00 21 00                                    . .!.           
```

## Opcodes

```
  0: 0x0059 [0x29] REQ_SET_WAIT(priority=0x0B, entity_id=Zantaviat (ID: 17388006/0x010951E6), tag_num=0x07)
  1: 0x0060 [0x29] REQ_SET_WAIT(priority=0x0B, entity_id=Zantaviat (ID: 17388006/0x010951E6), tag_num=0x08)
  2: 0x0067 [0x29] REQ_SET_WAIT(priority=0x0B, entity_id=Zantaviat (ID: 17388006/0x010951E6), tag_num=0x09)
  3: 0x006E [0x29] REQ_SET_WAIT(priority=0x0B, entity_id=Zantaviat (ID: 17388006/0x010951E6), tag_num=0x0A)
  4: 0x0075 [0x29] REQ_SET_WAIT(priority=0x0B, entity_id=Zantaviat (ID: 17388006/0x010951E6), tag_num=0x0B)
  5: 0x007C [0x29] REQ_SET_WAIT(priority=0x0B, entity_id=Zantaviat (ID: 17388006/0x010951E6), tag_num=0x0C)
  6: 0x0083 [0x29] REQ_SET_WAIT(priority=0x0B, entity_id=Zantaviat (ID: 17388006/0x010951E6), tag_num=0x0D)
  7: 0x008A [0x29] REQ_SET_WAIT(priority=0x0B, entity_id=Zantaviat (ID: 17388006/0x010951E6), tag_num=0x0E)
  8: 0x0091 [0x20] SET_CLI_EVENT_UC_FLAG: Unlock player control
  9: 0x0093 [0x21] END_EVENT
 10: 0x0094 [0x00] END_REQSTACK()
```
