# Event 577

## Metadata

| Field           | Value    |
|-----------------|----------|
| Event Index     | 7/9      |
| Offset          | 0x02B4   |
| Data Size       | 43 bytes |
| Calculated Size | 43 bytes |
| Instructions    | 13       |

```
      00 01 02 03 04 05 06 07  08 09 0A 0B 0C 0D 0E 0F
      -- -- -- -- -- -- -- --  -- -- -- -- -- -- -- --
02B0:             1E F0 FF FF  7F 6F 70 66 00 80 F8 FF      .....opf....
02C0: FF 7F F8 FF FF 7F 74 6C  6B 30 1D 1C 80 23 1C 00  ......tlk0...#..
02D0: 80 1D 1D 80 23 5E 69 64  6C 30 1C 00 80 21 00     ....#^idl0...!. 
```

## Opcodes

```
  0: 0x02B4 [0x1E] EventEntity looks at LocalPlayer and starts talking
  1: 0x02B9 [0x6F] WAIT_FRAME_DELAY: Yield until WaitTime reaches zero
  2: 0x02BA [0x70] WAIT_ENTITY_RENDER_FLAG: Wait while EventEntity->Render.Flags3 bit 2 is set (cancel turn if not)
  3: 0x02BB [0x66] LOAD_EXT_SCHEDULER_MAIN(work_offset=30*, entity1=EventEntity, entity2=EventEntity, action="tlk0")
  4: 0x02CA [0x1D] PRINT_EVENT_MESSAGE(message_id=15*)
    → "Ahead lies the residential area. Proceed to your Rent-a-Room, foreigner!\u007F1\u0000\u0007"
  5: 0x02CD [0x23] WAIT_FOR_DIALOG_INTERACTION
  6: 0x02CE [0x1C] WAIT(30* ticks)
  7: 0x02D1 [0x1D] PRINT_EVENT_MESSAGE(message_id=16*)
    → "If you're already renting here, you may come and go as you please, like the Mog House in your homeland.\u007F1\u0000\u0007"
  8: 0x02D4 [0x23] WAIT_FOR_DIALOG_INTERACTION
  9: 0x02D5 [0x5E] EventEntity goes idle (kills current action) (animation: "idl0")
 10: 0x02DA [0x1C] WAIT(30* ticks)
 11: 0x02DD [0x21] END_EVENT
 12: 0x02DE [0x00] END_REQSTACK()
```
