# Event 65535

## Metadata

| Field           | Value    |
|-----------------|----------|
| Event Index     | 11/13    |
| Offset          | 0x0078   |
| Data Size       | 50 bytes |
| Calculated Size | 50 bytes |
| Instructions    | 8        |

```
      00 01 02 03 04 05 06 07  08 09 0A 0B 0C 0D 0E 0F
      -- -- -- -- -- -- -- --  -- -- -- -- -- -- -- --
0070:                          5B 09 80 F8 FF FF 7F F8          [.......
0080: FF FF 7F 61 73 74 31 53  F8 FF FF 7F F8 FF FF 7F  ...ast1S........
0090: 61 73 74 31 32 03 80 1F  00 0A 80 0B 80 0C 80 1F  ast12...........
00A0: 01 6F 4B F8 FF FF 7F 07  80 00                    .oK.......      
```

## Opcodes

```
  0: 0x0078 [0x5B] LOAD_EXT_SCHEDULER: Load scheduler "ast1" with entities [EventEntity, EventEntity], work=863*
  1: 0x0087 [0x53] WAIT_SCHEDULER_TASK: Wait for scheduler "ast1" with entities [EventEntity, EventEntity]
  2: 0x0094 [0x32] ExtData[1]->MainSpeed = 11* * 0.1
  3: 0x0097 [0x1F] MOVE_ENTITY: EventEntity moves to X=-2.397*, Z=68.749*, Y=-4.999*
  4: 0x009F [0x1F] MOVE_ENTITY: Update entity position (mode=1)
  5: 0x00A1 [0x6F] WAIT_FRAME_DELAY: Yield until WaitTime reaches zero
  6: 0x00A2 [0x4B] UPDATE_ENTITY_YAW(entity=EventEntity, yaw=5.6°*)
  7: 0x00A9 [0x00] END_REQSTACK()
```
