# Event 65535

## Metadata

| Field           | Value    |
|-----------------|----------|
| Event Index     | 13/40    |
| Offset          | 0x00C7   |
| Data Size       | 79 bytes |
| Calculated Size | 79 bytes |
| Instructions    | 8        |

```
      00 01 02 03 04 05 06 07  08 09 0A 0B 0C 0D 0E 0F
      -- -- -- -- -- -- -- --  -- -- -- -- -- -- -- --
00C0:                      5B  1C 80 F8 FF FF 7F F8 FF         [........
00D0: FF 7F 62 65 64 31 1C 27  80 4A 07 50 0F 01 08 50  ..bed1.'.J.P...P
00E0: 0F 01 45 28 80 F0 FF FF  7F F0 FF FF 7F 62 30 30  ..E(.........b00
00F0: 32 29 80 55 28 80 F0 FF  FF 7F F0 FF FF 7F 62 30  2).U(.........b0
0100: 30 32 53 F8 FF FF 7F F8  FF FF 7F 62 65 64 31 81  02S........bed1.
0110: 01 F8 FF FF 7F 00                                 ......          
```

## Opcodes

```
  0: 0x00C7 [0x5B] LOAD_EXT_SCHEDULER(work_offset=191*, entity1=EventEntity, entity2=EventEntity, action="bed1")
  1: 0x00D6 [0x1C] WAIT(240* ticks)
  2: 0x00D9 [0x4A] Aldo (ID: 17780743/0x010F5007) looks at Verena (ID: 17780744/0x010F5008)
  3: 0x00E2 [0x45] LOAD_SCHEDULED_TASK(work_offset1=145*, entity1=LocalPlayer, entity2=LocalPlayer, scheduler_id="b002", work_offset2=0*)
  4: 0x00F3 [0x55] WAIT_LOAD_SCHEDULER(work_offset=145*, entity1=LocalPlayer, entity2=LocalPlayer, scheduler_id="b002")
  5: 0x0102 [0x53] WAIT_SCHEDULER_TASK(entity1=EventEntity, entity2=EventEntity, action_id="bed1")
  6: 0x010F [0x81] SET_ENTITY_BLINKING(blink_flag=0x01, entity=EventEntity)
  7: 0x0115 [0x00] END_REQSTACK()
```
