# Event 65535

## Metadata

| Field           | Value    |
|-----------------|----------|
| Event Index     | 16/40    |
| Offset          | 0x014D   |
| Data Size       | 50 bytes |
| Calculated Size | 50 bytes |
| Instructions    | 11       |

```
      00 01 02 03 04 05 06 07  08 09 0A 0B 0C 0D 0E 0F
      -- -- -- -- -- -- -- --  -- -- -- -- -- -- -- --
0140:                                         1F 00 2F               ../
0150: 80 30 80 0A 80 1F 01 1F  00 31 80 32 80 0A 80 1F  .0.......1.2....
0160: 01 1F 00 33 80 34 80 35  80 1F 01 27 03 65 50 0F  ...3.4.5...'.eP.
0170: 01 07 1F 00 36 80 37 80  35 80 1F 01 22 01 00     ....6.7.5...".. 
```

## Opcodes

```
  0: 0x014D [0x1F] MOVE_ENTITY: EventEntity moves to X=17.717*, Z=-53.832*, Y=3.899*
  1: 0x0155 [0x1F] MOVE_ENTITY: Update entity position (mode=1)
  2: 0x0157 [0x1F] MOVE_ENTITY: EventEntity moves to X=18.854*, Z=-51.759*, Y=3.899*
  3: 0x015F [0x1F] MOVE_ENTITY: Update entity position (mode=1)
  4: 0x0161 [0x1F] MOVE_ENTITY: EventEntity moves to X=19.344*, Z=-50.053*, Y=3.901*
  5: 0x0169 [0x1F] MOVE_ENTITY: Update entity position (mode=1)
  6: 0x016B [0x27] REQ_SET(priority=0x03, entity_id=Door:Aldo's Room (ID: 17780837/0x010F5065), tag_num=0x07)
  7: 0x0172 [0x1F] MOVE_ENTITY: EventEntity moves to X=27.514*, Z=-54.071*, Y=3.901*
  8: 0x017A [0x1F] MOVE_ENTITY: Update entity position (mode=1)
  9: 0x017C [0x22] ENTITY_HIDE_FLAG(enabled=0x01)
 10: 0x017E [0x00] END_REQSTACK()
```
