# Event 138

## Metadata

| Field           | Value    |
|-----------------|----------|
| Event Index     | 6/25     |
| Offset          | 0x0007   |
| Data Size       | 68 bytes |
| Calculated Size | 68 bytes |
| Instructions    | 15       |

```
      00 01 02 03 04 05 06 07  08 09 0A 0B 0C 0D 0E 0F
      -- -- -- -- -- -- -- --  -- -- -- -- -- -- -- --
0000:                      4A  0D 30 0F 01 F0 FF FF 7F         J.0......
0010: 4A 0E 30 0F 01 F0 FF FF  7F 03 09 10 00 80 02 02  J.0.............
0020: 10 01 80 00 39 00 2B 0D  30 0F 01 02 80 23 2B 0E  ....9.+.0....#+.
0030: 30 0F 01 03 80 23 01 49  00 2B 0D 30 0F 01 04 80  0....#.I.+.0....
0040: 23 2B 0E 30 0F 01 03 80  23 21 00                 #+.0....#!.     
```

## Opcodes

```
  0: 0x0007 [0x4A] High Wind (ID: 17772557/0x010F300D) looks at LocalPlayer
  1: 0x0010 [0x4A] Rainhard (ID: 17772558/0x010F300E) looks at LocalPlayer
  2: 0x0019 [0x03] Work_Zone[9] = 56*
  3: 0x001E [0x02] IF !(Work_Zone[2] == 0*) GOTO 0x0039
  4: 0x0026 [0x2B] High Wind (ID: 17772557/0x010F300D) [10190*]:
    → "You don't have \u0001\u00056\u0002\u0007\u0000\u0000.\u007F1\u0000\u0007"
  5: 0x002D [0x23] WAIT_FOR_DIALOG_INTERACTION
  6: 0x002E [0x2B] Rainhard (ID: 17772558/0x010F300E) [10192*]:
    → "Stand down!\u007F1\u0000\u0007"
  7: 0x0035 [0x23] WAIT_FOR_DIALOG_INTERACTION
  8: 0x0036 [0x01] GOTO 0x0049
  9: 0x0039 [0x2B] High Wind (ID: 17772557/0x010F300D) [10191*]:
    → "Nobody sees the sovereign without an appointment!\u007F1\u0000\u0007"
 10: 0x0040 [0x23] WAIT_FOR_DIALOG_INTERACTION
 11: 0x0041 [0x2B] Rainhard (ID: 17772558/0x010F300E) [10192*]:
    → "Stand down!\u007F1\u0000\u0007"
 12: 0x0048 [0x23] WAIT_FOR_DIALOG_INTERACTION
 13: 0x0049 [0x21] END_EVENT
 14: 0x004A [0x00] END_REQSTACK()
```
