# Event 32742

## Metadata

| Field           | Value    |
|-----------------|----------|
| Event Index     | 5/6      |
| Offset          | 0x01BE   |
| Data Size       | 23 bytes |
| Calculated Size | 23 bytes |
| Instructions    | 11       |

```
      00 01 02 03 04 05 06 07  08 09 0A 0B 0C 0D 0E 0F
      -- -- -- -- -- -- -- --  -- -- -- -- -- -- -- --
01B0:                                            1E F0                ..
01C0: FF FF 7F 1D 1D 80 23 1D  1E 80 23 1D 1F 80 23 1D  ......#...#...#.
01D0: 20 80 23 21 00                                     .#!.           
```

## Opcodes

```
  0: 0x01BE [0x1E] EventEntity looks at LocalPlayer and starts talking
  1: 0x01C3 [0x1D] PRINT_EVENT_MESSAGE(message_id=12432*)
    → "Are you bringing joy to the children of Vana'diel?\u0007Don't keep all that happiness to yourself, now!\u007F1\u0000\u0007"
  2: 0x01C6 [0x23] WAIT_FOR_DIALOG_INTERACTION
  3: 0x01C7 [0x1D] PRINT_EVENT_MESSAGE(message_id=12433*)
    → "What's the best way to make a child smile? Why, presents, of course!\u0007Children nowadays want all kinds of goodies. I'm a bit behind the times, so I'm afraid I can't offer any good advice as to what would be the best present.\u007F1\u0000\u0007"
  4: 0x01CA [0x23] WAIT_FOR_DIALOG_INTERACTION
  5: 0x01CB [0x1D] PRINT_EVENT_MESSAGE(message_id=12434*)
    → "But if you want to avoid suspicion, you'll need a red hat like mine. All smilebringers have them!\u007F1\u0000\u0007"
  6: 0x01CE [0x23] WAIT_FOR_DIALOG_INTERACTION
  7: 0x01CF [0x1D] PRINT_EVENT_MESSAGE(message_id=12435*)
    → "They should be for sale somewhere around here, so snap one up if you want it!\u007F1\u0000\u0007"
  8: 0x01D2 [0x23] WAIT_FOR_DIALOG_INTERACTION
  9: 0x01D3 [0x21] END_EVENT
 10: 0x01D4 [0x00] END_REQSTACK()
```
