# Event 65535

## Metadata

| Field           | Value    |
|-----------------|----------|
| Event Index     | 10/10    |
| Offset          | 0x007A   |
| Data Size       | 44 bytes |
| Calculated Size | 44 bytes |
| Instructions    | 10       |

```
      00 01 02 03 04 05 06 07  08 09 0A 0B 0C 0D 0E 0F
      -- -- -- -- -- -- -- --  -- -- -- -- -- -- -- --
0070:                                32 04 80 5A 00 08            2..Z..
0080: 80 09 80 0A 80 5A 01 5A  00 0B 80 0C 80 0D 80 5A  .....Z.Z.......Z
0090: 01 5A 00 0E 80 0F 80 10  80 5A 01 5A 00 11 80 12  .Z.......Z.Z....
00A0: 80 13 80 5A 01 00                                 ...Z..          
```

## Opcodes

```
  0: 0x007A [0x32] ExtData[1]->MainSpeed = 13* * 0.1
  1: 0x007D [0x5A] UPDATE_EVENT_POSITION: Set EventEntity MovePosition to X=246.387*, Z=-350.221*, Y=20.082*
  2: 0x0085 [0x5A] UPDATE_EVENT_POSITION: Move EventEntity incrementally towards MovePosition
  3: 0x0087 [0x5A] UPDATE_EVENT_POSITION: Set EventEntity MovePosition to X=244.959*, Z=-343.726*, Y=20.190*
  4: 0x008F [0x5A] UPDATE_EVENT_POSITION: Move EventEntity incrementally towards MovePosition
  5: 0x0091 [0x5A] UPDATE_EVENT_POSITION: Set EventEntity MovePosition to X=243.192*, Z=-336.696*, Y=20.664*
  6: 0x0099 [0x5A] UPDATE_EVENT_POSITION: Move EventEntity incrementally towards MovePosition
  7: 0x009B [0x5A] UPDATE_EVENT_POSITION: Set EventEntity MovePosition to X=241.181*, Z=-330.171*, Y=20.515*
  8: 0x00A3 [0x5A] UPDATE_EVENT_POSITION: Move EventEntity incrementally towards MovePosition
  9: 0x00A5 [0x00] END_REQSTACK()
```
