# Event 633

## Metadata

| Field           | Value    |
|-----------------|----------|
| Event Index     | 23/38    |
| Offset          | 0x0124   |
| Data Size       | 33 bytes |
| Calculated Size | 33 bytes |
| Instructions    | 12       |

```
      00 01 02 03 04 05 06 07  08 09 0A 0B 0C 0D 0E 0F
      -- -- -- -- -- -- -- --  -- -- -- -- -- -- -- --
0120:             1E F0 FF FF  7F 6F 70 29 08 84 70 0E      .....op)..p.
0130: 01 03 1D 03 80 23 1D 04  80 23 29 08 84 70 0E 01  .....#...#)..p..
0140: 04 20 00 21 00                                    . .!.           
```

## Opcodes

```
  0: 0x0124 [0x1E] EventEntity looks at LocalPlayer and starts talking
  1: 0x0129 [0x6F] WAIT_FRAME_DELAY: Yield until WaitTime reaches zero
  2: 0x012A [0x70] WAIT_ENTITY_RENDER_FLAG: Wait while EventEntity->Render.Flags3 bit 2 is set (cancel turn if not)
  3: 0x012B [0x29] REQ_SET_WAIT(priority=0x08, entity_id=Calovour (ID: 17723524/0x010E7084), tag_num=0x03)
  4: 0x0132 [0x1D] PRINT_EVENT_MESSAGE(message_id=7194*)
    → "The Gates of Paradise only welcome souls free of desire. I have given my riches to the cathedral. I am now free.\u007F1\u0000\u0007"
  5: 0x0135 [0x23] WAIT_FOR_DIALOG_INTERACTION
  6: 0x0136 [0x1D] PRINT_EVENT_MESSAGE(message_id=7195*)
    → "May Altana guide my soul to Paradise. My heart is calm as never before.\u007F1\u0000\u0007"
  7: 0x0139 [0x23] WAIT_FOR_DIALOG_INTERACTION
  8: 0x013A [0x29] REQ_SET_WAIT(priority=0x08, entity_id=Calovour (ID: 17723524/0x010E7084), tag_num=0x04)
  9: 0x0141 [0x20] SET_CLI_EVENT_UC_FLAG: Unlock player control
 10: 0x0143 [0x21] END_EVENT
 11: 0x0144 [0x00] END_REQSTACK()
```
