# Event 637

## Metadata

| Field           | Value    |
|-----------------|----------|
| Event Index     | 24/38    |
| Offset          | 0x0145   |
| Data Size       | 39 bytes |
| Calculated Size | 39 bytes |
| Instructions    | 10       |

```
      00 01 02 03 04 05 06 07  08 09 0A 0B 0C 0D 0E 0F
      -- -- -- -- -- -- -- --  -- -- -- -- -- -- -- --
0140:                1E F0 FF  FF 7F 6F 70 29 0B 84 70       .....op)..p
0150: 0E 01 18 29 0B 84 70 0E  01 19 29 0B 84 70 0E 01  ...)..p...)..p..
0160: 1A 29 0B 84 70 0E 01 1B  20 00 21 00              .)..p... .!.    
```

## Opcodes

```
  0: 0x0145 [0x1E] EventEntity looks at LocalPlayer and starts talking
  1: 0x014A [0x6F] WAIT_FRAME_DELAY: Yield until WaitTime reaches zero
  2: 0x014B [0x70] WAIT_ENTITY_RENDER_FLAG: Wait while EventEntity->Render.Flags3 bit 2 is set (cancel turn if not)
  3: 0x014C [0x29] REQ_SET_WAIT(priority=0x0B, entity_id=Calovour (ID: 17723524/0x010E7084), tag_num=0x18)
  4: 0x0153 [0x29] REQ_SET_WAIT(priority=0x0B, entity_id=Calovour (ID: 17723524/0x010E7084), tag_num=0x19)
  5: 0x015A [0x29] REQ_SET_WAIT(priority=0x0B, entity_id=Calovour (ID: 17723524/0x010E7084), tag_num=0x1A)
  6: 0x0161 [0x29] REQ_SET_WAIT(priority=0x0B, entity_id=Calovour (ID: 17723524/0x010E7084), tag_num=0x1B)
  7: 0x0168 [0x20] SET_CLI_EVENT_UC_FLAG: Unlock player control
  8: 0x016A [0x21] END_EVENT
  9: 0x016B [0x00] END_REQSTACK()
```
