# Event 638

## Metadata

| Field           | Value    |
|-----------------|----------|
| Event Index     | 29/38    |
| Offset          | 0x01C4   |
| Data Size       | 33 bytes |
| Calculated Size | 33 bytes |
| Instructions    | 12       |

```
      00 01 02 03 04 05 06 07  08 09 0A 0B 0C 0D 0E 0F
      -- -- -- -- -- -- -- --  -- -- -- -- -- -- -- --
01C0:             1E F0 FF FF  7F 6F 70 29 08 84 70 0E      .....op)..p.
01D0: 01 03 1D 0C 80 23 1D 0D  80 23 29 08 84 70 0E 01  .....#...#)..p..
01E0: 04 20 00 21 00                                    . .!.           
```

## Opcodes

```
  0: 0x01C4 [0x1E] EventEntity looks at LocalPlayer and starts talking
  1: 0x01C9 [0x6F] WAIT_FRAME_DELAY: Yield until WaitTime reaches zero
  2: 0x01CA [0x70] WAIT_ENTITY_RENDER_FLAG: Wait while EventEntity->Render.Flags3 bit 2 is set (cancel turn if not)
  3: 0x01CB [0x29] REQ_SET_WAIT(priority=0x08, entity_id=Calovour (ID: 17723524/0x010E7084), tag_num=0x03)
  4: 0x01D2 [0x1D] PRINT_EVENT_MESSAGE(message_id=7212*)
    → "Kind adventurer, I beg you. Please find me \u0001\u0001\u0001 \u0001\u0005$\u0002\u0003\u0000\u0000. I would very much like to taste those fond memories once more.\u007F1\u0000\u0007"
  5: 0x01D5 [0x23] WAIT_FOR_DIALOG_INTERACTION
  6: 0x01D6 [0x1D] PRINT_EVENT_MESSAGE(message_id=7213*)
    → "Please, I know it is an odd request, but it would mean so much to me.\u007F1\u0000\u0007"
  7: 0x01D9 [0x23] WAIT_FOR_DIALOG_INTERACTION
  8: 0x01DA [0x29] REQ_SET_WAIT(priority=0x08, entity_id=Calovour (ID: 17723524/0x010E7084), tag_num=0x04)
  9: 0x01E1 [0x20] SET_CLI_EVENT_UC_FLAG: Unlock player control
 10: 0x01E3 [0x21] END_EVENT
 11: 0x01E4 [0x00] END_REQSTACK()
```
