# Event 65535

## Metadata

| Field           | Value    |
|-----------------|----------|
| Event Index     | 32/38    |
| Offset          | 0x02E2   |
| Data Size       | 37 bytes |
| Calculated Size | 37 bytes |
| Instructions    | 9        |

```
      00 01 02 03 04 05 06 07  08 09 0A 0B 0C 0D 0E 0F
      -- -- -- -- -- -- -- --  -- -- -- -- -- -- -- --
02E0:       29 08 84 70 0E 01  05 1D 1B 80 23 29 08 84    )..p......#)..
02F0: 70 0E 01 06 29 08 84 70  0E 01 07 1D 1C 80 23 29  p...)..p......#)
0300: 08 84 70 0E 01 08 00                              ..p....         
```

## Opcodes

```
  0: 0x02E2 [0x29] REQ_SET_WAIT(priority=0x08, entity_id=Calovour (ID: 17723524/0x010E7084), tag_num=0x05)
  1: 0x02E9 [0x1D] PRINT_EVENT_MESSAGE(message_id=7215*)
    → "Queen Leaute, bless her soul, has passed away. And her two sons are forever quarreling. All I can do is pray for them both!\u007F1\u0000\u0007"
  2: 0x02EC [0x23] WAIT_FOR_DIALOG_INTERACTION
  3: 0x02ED [0x29] REQ_SET_WAIT(priority=0x08, entity_id=Calovour (ID: 17723524/0x010E7084), tag_num=0x06)
  4: 0x02F4 [0x29] REQ_SET_WAIT(priority=0x08, entity_id=Calovour (ID: 17723524/0x010E7084), tag_num=0x07)
  5: 0x02FB [0x1D] PRINT_EVENT_MESSAGE(message_id=7216*)
    → "Over the years, my heart has grown as dusty and dry as this old teacup.\u007F1\u0000\u0007"
  6: 0x02FE [0x23] WAIT_FOR_DIALOG_INTERACTION
  7: 0x02FF [0x29] REQ_SET_WAIT(priority=0x08, entity_id=Calovour (ID: 17723524/0x010E7084), tag_num=0x08)
  8: 0x0306 [0x00] END_REQSTACK()
```
