# Event 65535

## Metadata

| Field           | Value    |
|-----------------|----------|
| Event Index     | 11/12    |
| Offset          | 0x0103   |
| Data Size       | 31 bytes |
| Calculated Size | 31 bytes |
| Instructions    | 9        |

```
      00 01 02 03 04 05 06 07  08 09 0A 0B 0C 0D 0E 0F
      -- -- -- -- -- -- -- --  -- -- -- -- -- -- -- --
0100:          32 0C 80 1F 00  1A 80 1B 80 1C 80 1F 01     2............
0110: 1F 00 1D 80 1E 80 1F 80  1F 01 1E 75 72 10 01 6F  ...........ur..o
0120: 70 00                                             p.              
```

## Opcodes

```
  0: 0x0103 [0x32] ExtData[1]->MainSpeed = 40* * 0.1
  1: 0x0106 [0x1F] MOVE_ENTITY: EventEntity moves to X=156.673*, Z=-216.732*, Y=0.161*
  2: 0x010E [0x1F] MOVE_ENTITY: Update entity position (mode=1)
  3: 0x0110 [0x1F] MOVE_ENTITY: EventEntity moves to X=158.161*, Z=-216.982*, Y=-0.007*
  4: 0x0118 [0x1F] MOVE_ENTITY: Update entity position (mode=1)
  5: 0x011A [0x1E] EventEntity looks at Unnamed NPC (ID: 17855093/0x01107275) and starts talking
  6: 0x011F [0x6F] WAIT_FRAME_DELAY: Yield until WaitTime reaches zero
  7: 0x0120 [0x70] WAIT_ENTITY_RENDER_FLAG: Wait while EventEntity->Render.Flags3 bit 2 is set (cancel turn if not)
  8: 0x0121 [0x00] END_REQSTACK()
```
