# Event 65535

## Metadata

| Field           | Value    |
|-----------------|----------|
| Event Index     | 5/12     |
| Offset          | 0x0040   |
| Data Size       | 37 bytes |
| Calculated Size | 37 bytes |
| Instructions    | 8        |

```
      00 01 02 03 04 05 06 07  08 09 0A 0B 0C 0D 0E 0F
      -- -- -- -- -- -- -- --  -- -- -- -- -- -- -- --
0040: 1C 09 80 AD 00 0A 80 F8  FF FF 7F F8 FF FF 7F 1C  ................
0050: 0B 80 32 0C 80 1F 00 0D  80 0E 80 0F 80 1F 01 1E  ..2.............
0060: 79 72 10 01 00                                    yr...           
```

## Opcodes

```
  0: 0x0040 [0x1C] WAIT(10* ticks)
  1: 0x0043 [0xAD] DUAL_ENTITY_SCHEDULER: Execute sub-case 0 with entities [EventEntity, EventEntity], param=25*
  2: 0x004F [0x1C] WAIT(120* ticks)
  3: 0x0052 [0x32] ExtData[1]->MainSpeed = 40* * 0.1
  4: 0x0055 [0x1F] MOVE_ENTITY: EventEntity moves to X=222.706*, Z=-90.888*, Y=2.788*
  5: 0x005D [0x1F] MOVE_ENTITY: Update entity position (mode=1)
  6: 0x005F [0x1E] EventEntity looks at Unnamed NPC (ID: 17855097/0x01107279) and starts talking
  7: 0x0064 [0x00] END_REQSTACK()
```
