# Event 65535

## Metadata

| Field           | Value    |
|-----------------|----------|
| Event Index     | 23/48    |
| Offset          | 0x00E7   |
| Data Size       | 54 bytes |
| Calculated Size | 54 bytes |
| Instructions    | 12       |

```
      00 01 02 03 04 05 06 07  08 09 0A 0B 0C 0D 0E 0F
      -- -- -- -- -- -- -- --  -- -- -- -- -- -- -- --
00E0:                      32  01 80 1F 00 20 80 21 80         2.... .!.
00F0: 0C 80 1F 01 4B F8 FF FF  7F 22 80 1C 23 80 27 05  ....K...."..#.'.
0100: 41 72 05 01 03 1C 24 80  1F 00 25 80 26 80 07 80  Ar....$...%.&...
0110: 1F 01 27 05 41 72 05 01  04 1C 24 80 00           ..'.Ar....$..   
```

## Opcodes

```
  0: 0x00E7 [0x32] ExtData[1]->MainSpeed = 13* * 0.1
  1: 0x00EA [0x1F] MOVE_ENTITY: EventEntity moves to X=88.702*, Z=8.770*, Y=-20.170*
  2: 0x00F2 [0x1F] MOVE_ENTITY: Update entity position (mode=1)
  3: 0x00F4 [0x4B] UPDATE_ENTITY_YAW(entity=EventEntity, yaw=3.94°*)
  4: 0x00FB [0x1C] WAIT(60* ticks)
  5: 0x00FE [0x27] REQ_SET(priority=0x05, entity_id=Unnamed NPC (ID: 17134145/0x01057241), tag_num=0x03)
  6: 0x0105 [0x1C] WAIT(90* ticks)
  7: 0x0108 [0x1F] MOVE_ENTITY: EventEntity moves to X=88.543*, Z=3.664*, Y=-19.532*
  8: 0x0110 [0x1F] MOVE_ENTITY: Update entity position (mode=1)
  9: 0x0112 [0x27] REQ_SET(priority=0x05, entity_id=Unnamed NPC (ID: 17134145/0x01057241), tag_num=0x04)
 10: 0x0119 [0x1C] WAIT(90* ticks)
 11: 0x011C [0x00] END_REQSTACK()
```
