# Event 65535

## Metadata

| Field           | Value    |
|-----------------|----------|
| Event Index     | 17/18    |
| Offset          | 0x00EE   |
| Data Size       | 53 bytes |
| Calculated Size | 53 bytes |
| Instructions    | 9        |

```
      00 01 02 03 04 05 06 07  08 09 0A 0B 0C 0D 0E 0F
      -- -- -- -- -- -- -- --  -- -- -- -- -- -- -- --
00E0:                                            1F 00                ..
00F0: 20 80 21 80 1C 80 1F 01  6F 03 00 00 07 7F 1A 25   .!.....o......%
0100: 01 7B F8 FF FF 7F 66 01  00 F8 FF FF 7F F8 FF FF  .{....f.........
0110: 7F 73 68 61 30 53 F8 FF  FF 7F F8 FF FF 7F 73 68  .sha0S........sh
0120: 61 30 00                                          a0.             
```

## Opcodes

```
  0: 0x00EE [0x1F] MOVE_ENTITY: EventEntity moves to X=-22.541*, Z=70.930*, Y=0.000*
  1: 0x00F6 [0x1F] MOVE_ENTITY: Update entity position (mode=1)
  2: 0x00F8 [0x6F] WAIT_FRAME_DELAY: Yield until WaitTime reaches zero
  3: 0x00F9 [0x03] ExtData[1]->WorkLocal[0] = Entity->Race
  4: 0x00FE [0x1A] CALL_SUBROUTINE(address=0x0125)
  5: 0x0101 [0x7B] EventEntity stops talking
  6: 0x0106 [0x66] LOAD_EXT_SCHEDULER_MAIN(work_offset=0x0001, entity1=EventEntity, entity2=EventEntity, action="sha0")
  7: 0x0115 [0x53] WAIT_SCHEDULER_TASK(entity1=EventEntity, entity2=EventEntity, action_id="sha0")
  8: 0x0122 [0x00] END_REQSTACK()
```
