# Event 65535

## Metadata

| Field           | Value    |
|-----------------|----------|
| Event Index     | 21/34    |
| Offset          | 0x14BC   |
| Data Size       | 45 bytes |
| Calculated Size | 45 bytes |
| Instructions    | 7        |

```
      00 01 02 03 04 05 06 07  08 09 0A 0B 0C 0D 0E 0F
      -- -- -- -- -- -- -- --  -- -- -- -- -- -- -- --
14B0:                                      1C 07 80 03              ....
14C0: 05 00 07 7F 1A B3 15 66  06 00 F8 FF FF 7F F8 FF  .......f........
14D0: FF 7F 74 6C 6B 30 1C 07  80 66 06 00 F8 FF FF 7F  ..tlk0...f......
14E0: F8 FF FF 7F 74 6C 6B 31  00                       ....tlk1.       
```

## Opcodes

```
  0: 0x14BC [0x1C] WAIT(60* ticks)
  1: 0x14BF [0x03] ExtData[1]->WorkLocal[5] = Entity->Race
  2: 0x14C4 [0x1A] CALL_SUBROUTINE(address=0x15B3)
  3: 0x14C7 [0x66] LOAD_EXT_SCHEDULER_MAIN: Load scheduler "tlk0" with entities [EventEntity, EventEntity], work=ExtData[1]->WorkLocal[6]
  4: 0x14D6 [0x1C] WAIT(60* ticks)
  5: 0x14D9 [0x66] LOAD_EXT_SCHEDULER_MAIN: Load scheduler "tlk1" with entities [EventEntity, EventEntity], work=ExtData[1]->WorkLocal[6]
  6: 0x14E8 [0x00] END_REQSTACK()
```
