# Event 65535

## Metadata

| Field           | Value    |
|-----------------|----------|
| Event Index     | 4/8      |
| Offset          | 0x0033   |
| Data Size       | 50 bytes |
| Calculated Size | 50 bytes |
| Instructions    | 15       |

```
      00 01 02 03 04 05 06 07  08 09 0A 0B 0C 0D 0E 0F
      -- -- -- -- -- -- -- --  -- -- -- -- -- -- -- --
0030:          32 06 80 1F 00  07 80 08 80 02 80 1F 01     2............
0040: 6F 1C 09 80 1F 00 0A 80  0B 80 02 80 1F 01 6F 1C  o.............o.
0050: 09 80 86 01 0F 70 0E 01  4B F8 FF FF 7F 0C 80 6F  .....p..K......o
0060: 70 32 04 80 00                                    p2...           
```

## Opcodes

```
  0: 0x0033 [0x32] ExtData[1]->MainSpeed = 8* * 0.1
  1: 0x0036 [0x1F] MOVE_ENTITY: EventEntity moves to X=148.836*, Z=143.866*, Y=-0.601*
  2: 0x003E [0x1F] MOVE_ENTITY: Update entity position (mode=1)
  3: 0x0040 [0x6F] WAIT_FRAME_DELAY: Yield until WaitTime reaches zero
  4: 0x0041 [0x1C] WAIT(30* ticks)
  5: 0x0044 [0x1F] MOVE_ENTITY: EventEntity moves to X=149.124*, Z=143.302*, Y=-0.601*
  6: 0x004C [0x1F] MOVE_ENTITY: Update entity position (mode=1)
  7: 0x004E [0x6F] WAIT_FRAME_DELAY: Yield until WaitTime reaches zero
  8: 0x004F [0x1C] WAIT(30* ticks)
  9: 0x0052 [0x86] Arnau (ID: 17723407/0x010E700F)->Render.Flags3 ^= 0x01
 10: 0x0058 [0x4B] UPDATE_ENTITY_YAW(entity=EventEntity, yaw=8.7°*)
 11: 0x005F [0x6F] WAIT_FRAME_DELAY: Yield until WaitTime reaches zero
 12: 0x0060 [0x70] WAIT_ENTITY_RENDER_FLAG: Wait while EventEntity->Render.Flags3 bit 2 is set (cancel turn if not)
 13: 0x0061 [0x32] ExtData[1]->MainSpeed = 10* * 0.1
 14: 0x0064 [0x00] END_REQSTACK()
```
