# Event 636

## Metadata

| Field           | Value    |
|-----------------|----------|
| Event Index     | 9/10     |
| Offset          | 0x70B1   |
| Data Size       | 65 bytes |
| Calculated Size | 65 bytes |
| Instructions    | 11       |

```
      00 01 02 03 04 05 06 07  08 09 0A 0B 0C 0D 0E 0F
      -- -- -- -- -- -- -- --  -- -- -- -- -- -- -- --
70B0:    4A 07 02 05 01 F0 FF  FF 7F 7B 07 02 05 01 6F   J........{....o
70C0: 76 07 02 05 01 5B 26 80  07 02 05 01 07 02 05 01  v....[&.........
70D0: 74 6C 61 30 03 02 10 11  82 2B 07 02 05 01 EE 82  tla0.....+......
70E0: 23 5B 26 80 07 02 05 01  07 02 05 01 74 6C 61 31  #[&.........tla1
70F0: 21 00                                             !.              
```

## Opcodes

```
  0: 0x70B1 [0x4A] Rholont (ID: 17105415/0x01050207) looks at LocalPlayer
  1: 0x70BA [0x7B] Rholont (ID: 17105415/0x01050207) stops talking
  2: 0x70BF [0x6F] WAIT_FRAME_DELAY: Yield until WaitTime reaches zero
  3: 0x70C0 [0x76] CHECK_ENTITY_RENDER_FLAGS: Wait until Rholont (ID: 17105415/0x01050207) Render.Flags0 and Render.Flags3 conditions are met
  4: 0x70C5 [0x5B] LOAD_EXT_SCHEDULER(work_offset=1272*, entity1=Rholont (ID: 17105415/0x01050207), entity2=Rholont (ID: 17105415/0x01050207), action="tla0")
  5: 0x70D4 [0x03] Work_Zone[2] = 1019*
  6: 0x70D9 [0x2B] Rholont (ID: 17105415/0x01050207) [13292*]:
    → "\u0008, your mission requires you to travel to Jugner Forest and procure \u0001\u00056\u0002\u0000\u0000\u0000!\u007F1\u0000\u0007"
  7: 0x70E0 [0x23] WAIT_FOR_DIALOG_INTERACTION
  8: 0x70E1 [0x5B] LOAD_EXT_SCHEDULER(work_offset=1272*, entity1=Rholont (ID: 17105415/0x01050207), entity2=Rholont (ID: 17105415/0x01050207), action="tla1")
  9: 0x70F0 [0x21] END_EVENT
 10: 0x70F1 [0x00] END_REQSTACK()
```
