# Event 609

## Metadata

| Field           | Value    |
|-----------------|----------|
| Event Index     | 10/14    |
| Offset          | 0x0089   |
| Data Size       | 39 bytes |
| Calculated Size | 39 bytes |
| Instructions    | 13       |

```
      00 01 02 03 04 05 06 07  08 09 0A 0B 0C 0D 0E 0F
      -- -- -- -- -- -- -- --  -- -- -- -- -- -- -- --
0080:                             86 00 F8 FF FF 7F 1E           .......
0090: F0 FF FF 7F 6F 70 29 08  51 E0 0E 01 01 1D 03 80  ....op).Q.......
00A0: 23 1D 04 80 23 29 08 51  E0 0E 01 02 20 00 21 00  #...#).Q.... .!.
```

## Opcodes

```
  0: 0x0089 [0x86] EventEntity->Render.Flags3 = Flags3  // No change (flag=0)
  1: 0x008F [0x1E] EventEntity looks at LocalPlayer and starts talking
  2: 0x0094 [0x6F] WAIT_FRAME_DELAY: Yield until WaitTime reaches zero
  3: 0x0095 [0x70] WAIT_ENTITY_RENDER_FLAG: Wait while EventEntity->Render.Flags3 bit 2 is set (cancel turn if not)
  4: 0x0096 [0x29] REQ_SET_WAIT(priority=0x08, entity_id=Yung Yaam (ID: 17752145/0x010EE051), tag_num=0x01)
  5: 0x009D [0x1D] PRINT_EVENT_MESSAGE(message_id=8888*)
    → "The cooking herrre is carrried overrr from the Culinarrrians' Guild, so that's why the taste is top class.\u007F1\u0000\u0007"
  6: 0x00A0 [0x23] WAIT_FOR_DIALOG_INTERACTION
  7: 0x00A1 [0x1D] PRINT_EVENT_MESSAGE(message_id=8889*)
    → "People come from farrr and abrrroad just to taste ourrr dishes. Arrren't you imprrressed?\u007F1\u0000\u0007"
  8: 0x00A4 [0x23] WAIT_FOR_DIALOG_INTERACTION
  9: 0x00A5 [0x29] REQ_SET_WAIT(priority=0x08, entity_id=Yung Yaam (ID: 17752145/0x010EE051), tag_num=0x02)
 10: 0x00AC [0x20] SET_CLI_EVENT_UC_FLAG: Unlock player control
 11: 0x00AE [0x21] END_EVENT
 12: 0x00AF [0x00] END_REQSTACK()
```
