# Event 643

## Metadata

| Field           | Value    |
|-----------------|----------|
| Event Index     | 13/14    |
| Offset          | 0x0110   |
| Data Size       | 39 bytes |
| Calculated Size | 39 bytes |
| Instructions    | 13       |

```
      00 01 02 03 04 05 06 07  08 09 0A 0B 0C 0D 0E 0F
      -- -- -- -- -- -- -- --  -- -- -- -- -- -- -- --
0110: 86 00 F8 FF FF 7F 1E F0  FF FF 7F 6F 70 29 08 51  ...........op).Q
0120: E0 0E 01 01 1D 0A 80 23  1D 0B 80 23 29 08 51 E0  .......#...#).Q.
0130: 0E 01 02 20 00 21 00                              ... .!.         
```

## Opcodes

```
  0: 0x0110 [0x86] EventEntity->Render.Flags3 = Flags3  // No change (flag=0)
  1: 0x0116 [0x1E] EventEntity looks at LocalPlayer and starts talking
  2: 0x011B [0x6F] WAIT_FRAME_DELAY: Yield until WaitTime reaches zero
  3: 0x011C [0x70] WAIT_ENTITY_RENDER_FLAG: Wait while EventEntity->Render.Flags3 bit 2 is set (cancel turn if not)
  4: 0x011D [0x29] REQ_SET_WAIT(priority=0x08, entity_id=Yung Yaam (ID: 17752145/0x010EE051), tag_num=0x01)
  5: 0x0124 [0x1D] PRINT_EVENT_MESSAGE(message_id=8946*)
    → "Motherrr is such a worrrrierrr! Jatan-Paratan seems his same old self again to me.\u007F1\u0000\u0007"
  6: 0x0127 [0x23] WAIT_FOR_DIALOG_INTERACTION
  7: 0x0128 [0x1D] PRINT_EVENT_MESSAGE(message_id=8947*)
    → "But I must say that I did prrreferrr the cheerrrful little ditties Jatan-Paratan used to play beforrre. They werrre morrre my type of music.\u0001t\u007F1\u0000\u0007"
  8: 0x012B [0x23] WAIT_FOR_DIALOG_INTERACTION
  9: 0x012C [0x29] REQ_SET_WAIT(priority=0x08, entity_id=Yung Yaam (ID: 17752145/0x010EE051), tag_num=0x02)
 10: 0x0133 [0x20] SET_CLI_EVENT_UC_FLAG: Unlock player control
 11: 0x0135 [0x21] END_EVENT
 12: 0x0136 [0x00] END_REQSTACK()
```
