# Event 83

## Metadata

| Field           | Value    |
|-----------------|----------|
| Event Index     | 11/14    |
| Offset          | 0x00B0   |
| Data Size       | 39 bytes |
| Calculated Size | 39 bytes |
| Instructions    | 13       |

```
      00 01 02 03 04 05 06 07  08 09 0A 0B 0C 0D 0E 0F
      -- -- -- -- -- -- -- --  -- -- -- -- -- -- -- --
00B0: 86 00 F8 FF FF 7F 1E F0  FF FF 7F 6F 70 29 08 51  ...........op).Q
00C0: E0 0E 01 01 1D 05 80 23  1D 06 80 23 29 08 51 E0  .......#...#).Q.
00D0: 0E 01 02 20 00 21 00                              ... .!.         
```

## Opcodes

```
  0: 0x00B0 [0x86] EventEntity->Render.Flags3 = Flags3  // No change (flag=0)
  1: 0x00B6 [0x1E] EventEntity looks at LocalPlayer and starts talking
  2: 0x00BB [0x6F] WAIT_FRAME_DELAY: Yield until WaitTime reaches zero
  3: 0x00BC [0x70] WAIT_ENTITY_RENDER_FLAG: Wait while EventEntity->Render.Flags3 bit 2 is set (cancel turn if not)
  4: 0x00BD [0x29] REQ_SET_WAIT(priority=0x08, entity_id=Yung Yaam (ID: 17752145/0x010EE051), tag_num=0x01)
  5: 0x00C4 [0x1D] PRINT_EVENT_MESSAGE(message_id=7446*)
    → "A little while ago, Barrren-Morrren asked Bondada what she wanted as a gift.\u007F1\u0000\u0007"
  6: 0x00C7 [0x23] WAIT_FOR_DIALOG_INTERACTION
  7: 0x00C8 [0x1D] PRINT_EVENT_MESSAGE(message_id=7447*)
    → "Those two always seem to be fighting and putting each otherrr down, but deep down they rrreally like one anotherrr.\u007F1\u0000\u0007"
  8: 0x00CB [0x23] WAIT_FOR_DIALOG_INTERACTION
  9: 0x00CC [0x29] REQ_SET_WAIT(priority=0x08, entity_id=Yung Yaam (ID: 17752145/0x010EE051), tag_num=0x02)
 10: 0x00D3 [0x20] SET_CLI_EVENT_UC_FLAG: Unlock player control
 11: 0x00D5 [0x21] END_EVENT
 12: 0x00D6 [0x00] END_REQSTACK()
```
