# Event 2862

## Metadata

| Field           | Value    |
|-----------------|----------|
| Event Index     | 4/10     |
| Offset          | 0x00F5   |
| Data Size       | 48 bytes |
| Calculated Size | 48 bytes |
| Instructions    | 12       |

```
      00 01 02 03 04 05 06 07  08 09 0A 0B 0C 0D 0E 0F
      -- -- -- -- -- -- -- --  -- -- -- -- -- -- -- --
00F0:                1E F0 FF  FF 7F 42 6F 70 5B 00 80       .....Bop[..
0100: F8 FF FF 7F F8 FF FF 7F  74 6C 6B 30 1D 1A 80 23  ........tlk0...#
0110: 1D 1B 80 23 5B 00 80 F8  FF FF 7F F8 FF FF 7F 73  ...#[..........s
0120: 74 64 30 21 00                                    td0!.           
```

## Opcodes

```
  0: 0x00F5 [0x1E] EventEntity looks at LocalPlayer and starts talking
  1: 0x00FA [0x42] SET_CLI_EVENT_CANCEL_DATA()
  2: 0x00FB [0x6F] WAIT_FRAME_DELAY: Yield until WaitTime reaches zero
  3: 0x00FC [0x70] WAIT_ENTITY_RENDER_FLAG: Wait while EventEntity->Render.Flags3 bit 2 is set (cancel turn if not)
  4: 0x00FD [0x5B] LOAD_EXT_SCHEDULER: Load scheduler "tlk0" with entities [EventEntity, EventEntity], work=65*
  5: 0x010C [0x1D] PRINT_EVENT_MESSAGE(message_id=8097*)
    → "Oh-ho, made some yerself, did ya? I'm impressed.\u007F1\u0000\u0007"
  6: 0x010F [0x23] WAIT_FOR_DIALOG_INTERACTION
  7: 0x0110 [0x1D] PRINT_EVENT_MESSAGE(message_id=8098*)
    → "But I really wanted to don the ol' chef's hat for this one. If ya get more ingredients, make sure to bring 'em, back to me.\u007F1\u0000\u0007"
  8: 0x0113 [0x23] WAIT_FOR_DIALOG_INTERACTION
  9: 0x0114 [0x5B] LOAD_EXT_SCHEDULER: Load scheduler "std0" with entities [EventEntity, EventEntity], work=65*
 10: 0x0123 [0x21] END_EVENT
 11: 0x0124 [0x00] END_REQSTACK()
```
