# Event 2863

## Metadata

| Field           | Value    |
|-----------------|----------|
| Event Index     | 5/10     |
| Offset          | 0x0125   |
| Data Size       | 63 bytes |
| Calculated Size | 63 bytes |
| Instructions    | 13       |

```
      00 01 02 03 04 05 06 07  08 09 0A 0B 0C 0D 0E 0F
      -- -- -- -- -- -- -- --  -- -- -- -- -- -- -- --
0120:                1E F0 FF  FF 7F 6F 70 5B 00 80 F8       .....op[...
0130: FF FF 7F F8 FF FF 7F 74  6C 6B 30 03 02 10 08 80  .......tlk0.....
0140: 03 03 10 09 80 03 04 10  0A 80 03 05 10 0B 80 1D  ................
0150: 1C 80 23 5B 00 80 F8 FF  FF 7F F8 FF FF 7F 73 74  ..#[..........st
0160: 64 30 21 00                                       d0!.            
```

## Opcodes

```
  0: 0x0125 [0x1E] EventEntity looks at LocalPlayer and starts talking
  1: 0x012A [0x6F] WAIT_FRAME_DELAY: Yield until WaitTime reaches zero
  2: 0x012B [0x70] WAIT_ENTITY_RENDER_FLAG: Wait while EventEntity->Render.Flags3 bit 2 is set (cancel turn if not)
  3: 0x012C [0x5B] LOAD_EXT_SCHEDULER(work_offset=65*, entity1=EventEntity, entity2=EventEntity, action="tlk0")
  4: 0x013B [0x03] Work_Zone[2] = 5954*
  5: 0x0140 [0x03] Work_Zone[3] = 5949*
  6: 0x0145 [0x03] Work_Zone[4] = 3916*
  7: 0x014A [0x03] Work_Zone[5] = 2*
  8: 0x014F [0x1D] PRINT_EVENT_MESSAGE(message_id=8092*)
    → "
\u0003 \u0001\u0005%\u0002\u0000\u0000\u0000, \u0001\u0001\u0001 \u0001\u0005$\u0002\u0001\u0000\u0000, and \u0001\u0001\u0001 \u0001\u0005$\u0002\u0002\u0000\u0000. Bring me those, and I'll be able to make ya somethin' special.\u007F1\u0000\u0007"
  9: 0x0152 [0x23] WAIT_FOR_DIALOG_INTERACTION
 10: 0x0153 [0x5B] LOAD_EXT_SCHEDULER(work_offset=65*, entity1=EventEntity, entity2=EventEntity, action="std0")
 11: 0x0162 [0x21] END_EVENT
 12: 0x0163 [0x00] END_REQSTACK()
```
