# Event 5071

## Metadata

| Field           | Value    |
|-----------------|----------|
| Event Index     | 6/10     |
| Offset          | 0x0164   |
| Data Size       | 48 bytes |
| Calculated Size | 48 bytes |
| Instructions    | 12       |

```
      00 01 02 03 04 05 06 07  08 09 0A 0B 0C 0D 0E 0F
      -- -- -- -- -- -- -- --  -- -- -- -- -- -- -- --
0160:             42 1E F0 FF  FF 7F 6F 70 5B 00 80 F8      B.....op[...
0170: FF FF 7F F8 FF FF 7F 74  6C 6B 30 1D 1D 80 23 1D  .......tlk0...#.
0180: 1E 80 23 5B 00 80 F8 FF  FF 7F F8 FF FF 7F 73 74  ..#[..........st
0190: 64 30 21 00                                       d0!.            
```

## Opcodes

```
  0: 0x0164 [0x42] SET_CLI_EVENT_CANCEL_DATA()
  1: 0x0165 [0x1E] EventEntity looks at LocalPlayer and starts talking
  2: 0x016A [0x6F] WAIT_FRAME_DELAY: Yield until WaitTime reaches zero
  3: 0x016B [0x70] WAIT_ENTITY_RENDER_FLAG: Wait while EventEntity->Render.Flags3 bit 2 is set (cancel turn if not)
  4: 0x016C [0x5B] LOAD_EXT_SCHEDULER: Load scheduler "tlk0" with entities [EventEntity, EventEntity], work=65*
  5: 0x017B [0x1D] PRINT_EVENT_MESSAGE(message_id=10342*)
    → "Need somethin'?\u0007Oh, you're here from the Mummers' Coalition. Must be about the tab, then.\u007F1\u0000\u0007"
  6: 0x017E [0x23] WAIT_FOR_DIALOG_INTERACTION
  7: 0x017F [0x1D] PRINT_EVENT_MESSAGE(message_id=10343*)
    → "Pleasure doin' business. You're always welcome here!\u007F1\u0000\u0007"
  8: 0x0182 [0x23] WAIT_FOR_DIALOG_INTERACTION
  9: 0x0183 [0x5B] LOAD_EXT_SCHEDULER: Load scheduler "std0" with entities [EventEntity, EventEntity], work=65*
 10: 0x0192 [0x21] END_EVENT
 11: 0x0193 [0x00] END_REQSTACK()
```
