# Event 65535

## Metadata

| Field           | Value    |
|-----------------|----------|
| Event Index     | 9/10     |
| Offset          | 0x01BF   |
| Data Size       | 68 bytes |
| Calculated Size | 68 bytes |
| Instructions    | 14       |

```
      00 01 02 03 04 05 06 07  08 09 0A 0B 0C 0D 0E 0F
      -- -- -- -- -- -- -- --  -- -- -- -- -- -- -- --
01B0:                                               1C                 .
01C0: 1F 80 5B 00 80 F8 FF FF  7F F8 FF FF 7F 6A 69 6D  ..[..........jim
01D0: 30 1C 24 80 5B 00 80 F8  FF FF 7F F8 FF FF 7F 73  0.$.[..........s
01E0: 74 64 30 1C 24 80 1E 3B  00 10 01 6F 70 32 20 80  td0.$..;...op2 .
01F0: 1F 00 25 80 26 80 23 80  1F 01 2F 01 F8 FF FF 7F  ..%.&.#.../.....
0200: 22 01 00                                          "..             
```

## Opcodes

```
  0: 0x01BF [0x1C] WAIT(30* ticks)
  1: 0x01C2 [0x5B] LOAD_EXT_SCHEDULER: Load scheduler "jim0" with entities [EventEntity, EventEntity], work=65*
  2: 0x01D1 [0x1C] WAIT(60* ticks)
  3: 0x01D4 [0x5B] LOAD_EXT_SCHEDULER: Load scheduler "std0" with entities [EventEntity, EventEntity], work=65*
  4: 0x01E3 [0x1C] WAIT(60* ticks)
  5: 0x01E6 [0x1E] EventEntity looks at Task Delegator (ID: 17825851/0x0110003B) and starts talking
  6: 0x01EB [0x6F] WAIT_FRAME_DELAY: Yield until WaitTime reaches zero
  7: 0x01EC [0x70] WAIT_ENTITY_RENDER_FLAG: Wait while EventEntity->Render.Flags3 bit 2 is set (cancel turn if not)
  8: 0x01ED [0x32] ExtData[1]->MainSpeed = 13* * 0.1
  9: 0x01F0 [0x1F] MOVE_ENTITY: EventEntity moves to X=-38.208*, Z=-103.693*, Y=-0.650*
 10: 0x01F8 [0x1F] MOVE_ENTITY: Update entity position (mode=1)
 11: 0x01FA [0x2F] EventEntity->Render.Flags0 |= 0x80000 // Bit 19
 12: 0x0200 [0x22] ENTITY_HIDE_FLAG(enabled=0x01)
 13: 0x0202 [0x00] END_REQSTACK()
```
