# Event 23

## Metadata

| Field           | Value    |
|-----------------|----------|
| Event Index     | 6/7      |
| Offset          | 0x0097   |
| Data Size       | 33 bytes |
| Calculated Size | 33 bytes |
| Instructions    | 12       |

```
      00 01 02 03 04 05 06 07  08 09 0A 0B 0C 0D 0E 0F
      -- -- -- -- -- -- -- --  -- -- -- -- -- -- -- --
0090:                      1E  F0 FF FF 7F 1C 05 80 02         .........
00A0: 04 10 07 80 00 B2 00 1D  0A 80 23 1D 0B 80 23 01  ..........#...#.
00B0: B6 00 1D 0C 80 23 21 00                           .....#!.        
```

## Opcodes

```
  0: 0x0097 [0x1E] EventEntity looks at LocalPlayer and starts talking
  1: 0x009C [0x1C] WAIT(30* ticks)
  2: 0x009F [0x02] IF !(Work_Zone[4] == 1*) GOTO 0x00B2
  3: 0x00A7 [0x1D] PRINT_EVENT_MESSAGE(message_id=7700*)
    → "That woman you were looking for?\u0007Yeah, I saw her in the southwest chamber up above. Or somewhere around there.\u007F1\u0000\u0007"
  4: 0x00AA [0x23] WAIT_FOR_DIALOG_INTERACTION
  5: 0x00AB [0x1D] PRINT_EVENT_MESSAGE(message_id=7701*)
    → "But didn't I already tell you that?\u0007Gee, my head hurts...\u007F1\u0000\u0007"
  6: 0x00AE [0x23] WAIT_FOR_DIALOG_INTERACTION
  7: 0x00AF [0x01] GOTO 0x00B6
  8: 0x00B2 [0x1D] PRINT_EVENT_MESSAGE(message_id=7704*)
    → "What, you actually thought I'd tell you where the woman is?\u0007Maybe I would, if I knew...or cared. Now scram.\u007F1\u0000\u0007"
  9: 0x00B5 [0x23] WAIT_FOR_DIALOG_INTERACTION
 10: 0x00B6 [0x21] END_EVENT
 11: 0x00B7 [0x00] END_REQSTACK()
```
