# Event 65535

## Metadata

| Field           | Value    |
|-----------------|----------|
| Event Index     | 28/38    |
| Offset          | 0x023F   |
| Data Size       | 55 bytes |
| Calculated Size | 55 bytes |
| Instructions    | 12       |

```
      00 01 02 03 04 05 06 07  08 09 0A 0B 0C 0D 0E 0F
      -- -- -- -- -- -- -- --  -- -- -- -- -- -- -- --
0230:                                               33                 3
0240: 01 03 02 00 30 80 03 03  00 31 80 06 04 00 02 04  ....0....1......
0250: 00 05 80 00 75 02 02 02  00 32 80 02 61 02 05 04  ....u....2..a...
0260: 00 07 02 00 03 00 37 2B  80 2F 80 02 00 33 80 1C  ......7+./...3..
0270: 04 80 01 4E 02 00                                 ...N..          
```

## Opcodes

```
  0: 0x023F [0x33] EventEntity->Render.Flags0 |= 0x200000 // Bit 21 (flag=0x01)
  1: 0x0241 [0x03] ExtData[1]->WorkLocal[2] = 4294827296*
  2: 0x0246 [0x03] ExtData[1]->WorkLocal[3] = 45*
  3: 0x024B [0x06] ExtData[1]->WorkLocal[4] = 0
  4: 0x024E [0x02] IF !(ExtData[1]->WorkLocal[4] == 0*) GOTO 0x0275
  5: 0x0256 [0x02] IF !(ExtData[1]->WorkLocal[2] <= 4294828296*) GOTO 0x0261
  6: 0x025E [0x05] ExtData[1]->WorkLocal[4] = 1
  7: 0x0261 [0x07] ExtData[1]->WorkLocal[2] += ExtData[1]->WorkLocal[3]
  8: 0x0266 [0x37] UPDATE_EVENT_POSITION_AND_DIR: x=-460.000*, z=19.000*, y=ExtData[1]->WorkLocal[2], direction=90.0°*
  9: 0x026F [0x1C] WAIT(1* ticks)
 10: 0x0272 [0x01] GOTO 0x024E
 11: 0x0275 [0x00] END_REQSTACK()
```
