# Event 65535

## Metadata

| Field           | Value    |
|-----------------|----------|
| Event Index     | 31/38    |
| Offset          | 0x028E   |
| Data Size       | 55 bytes |
| Calculated Size | 55 bytes |
| Instructions    | 12       |

```
      00 01 02 03 04 05 06 07  08 09 0A 0B 0C 0D 0E 0F
      -- -- -- -- -- -- -- --  -- -- -- -- -- -- -- --
0280:                                            33 01                3.
0290: 03 02 00 38 80 03 03 00  39 80 06 04 00 02 04 00  ...8....9.......
02A0: 05 80 00 C4 02 02 02 00  3A 80 03 B0 02 05 04 00  ........:.......
02B0: 08 02 00 03 00 37 34 80  37 80 02 00 33 80 1C 04  .....74.7...3...
02C0: 80 01 9D 02 00                                    .....           
```

## Opcodes

```
  0: 0x028E [0x33] EventEntity->Render.Flags0 |= 0x200000 // Bit 21 (flag=0x01)
  1: 0x0290 [0x03] ExtData[1]->WorkLocal[2] = 99960*
  2: 0x0295 [0x03] ExtData[1]->WorkLocal[3] = 38*
  3: 0x029A [0x06] ExtData[1]->WorkLocal[4] = 0
  4: 0x029D [0x02] IF !(ExtData[1]->WorkLocal[4] == 0*) GOTO 0x02C4
  5: 0x02A5 [0x02] IF !(ExtData[1]->WorkLocal[2] >= 99000*) GOTO 0x02B0
  6: 0x02AD [0x05] ExtData[1]->WorkLocal[4] = 1
  7: 0x02B0 [0x08] ExtData[1]->WorkLocal[2] -= ExtData[1]->WorkLocal[3]
  8: 0x02B5 [0x37] UPDATE_EVENT_POSITION_AND_DIR: x=580.000*, z=19.110*, y=ExtData[1]->WorkLocal[2], direction=90.0°*
  9: 0x02BE [0x1C] WAIT(1* ticks)
 10: 0x02C1 [0x01] GOTO 0x029D

SUBROUTINE_02C4:
 11: 0x02C4 [0x00] END_REQSTACK()
```
