# Event 471

## Metadata

| Field           | Value    |
|-----------------|----------|
| Event Index     | 16/16    |
| Offset          | 0x016F   |
| Data Size       | 29 bytes |
| Calculated Size | 29 bytes |
| Instructions    | 10       |

```
      00 01 02 03 04 05 06 07  08 09 0A 0B 0C 0D 0E 0F
      -- -- -- -- -- -- -- --  -- -- -- -- -- -- -- --
0160:                                               1E                 .
0170: F0 FF FF 7F 6F 70 29 08  3C E0 0E 01 01 1D 0C 80  ....op).<.......
0180: 23 29 08 3C E0 0E 01 02  20 00 21 00              #).<.... .!.    
```

## Opcodes

```
  0: 0x016F [0x1E] EventEntity looks at LocalPlayer and starts talking
  1: 0x0174 [0x6F] WAIT_FRAME_DELAY: Yield until WaitTime reaches zero
  2: 0x0175 [0x70] WAIT_ENTITY_RENDER_FLAG: Wait while EventEntity->Render.Flags3 bit 2 is set (cancel turn if not)
  3: 0x0176 [0x29] REQ_SET_WAIT(priority=0x08, entity_id=Koko Lihzeh (ID: 17752124/0x010EE03C), tag_num=0x01)
  4: 0x017D [0x1D] PRINT_EVENT_MESSAGE(message_id=8447*)
    → "I rrreceived frrruit seeds! I'll trrry and grrrow some \u0001\u0005%\u0002\u0001\u0000\u0000.\u007F1\u0000\u0007"
  5: 0x0180 [0x23] WAIT_FOR_DIALOG_INTERACTION
  6: 0x0181 [0x29] REQ_SET_WAIT(priority=0x08, entity_id=Koko Lihzeh (ID: 17752124/0x010EE03C), tag_num=0x02)
  7: 0x0188 [0x20] SET_CLI_EVENT_UC_FLAG: Unlock player control
  8: 0x018A [0x21] END_EVENT
  9: 0x018B [0x00] END_REQSTACK()
```
