# Event 10011

## Metadata

| Field           | Value    |
|-----------------|----------|
| Event Index     | 4/14     |
| Offset          | 0x0117   |
| Data Size       | 64 bytes |
| Calculated Size | 64 bytes |
| Instructions    | 12       |

```
      00 01 02 03 04 05 06 07  08 09 0A 0B 0C 0D 0E 0F
      -- -- -- -- -- -- -- --  -- -- -- -- -- -- -- --
0110:                      20  01 42 62 10 80 F0 FF FF          .Bb.....
0120: 7F F0 FF FF 7F 6D 61 69  6E 11 80 1C 12 80 47 00  .....main.....G.
0130: 19 80 14 80 15 80 16 80  47 01 62 17 80 F0 FF FF  ........G.b.....
0140: 7F F0 FF FF 7F 6D 61 69  6E 11 80 1C 12 80 20 00  .....main..... .
0150: 03 01 10 1A 80 21 00                              .....!.         
```

## Opcodes

```
  0: 0x0117 [0x20] SET_CLI_EVENT_UC_FLAG: Lock player control
  1: 0x0119 [0x42] SET_CLI_EVENT_CANCEL_DATA()
  2: 0x011A [0x62] LOAD_EVENT_SCHEDULER: Load scheduler "main" with entities [LocalPlayer, LocalPlayer], work=[1*, 0*]
  3: 0x012B [0x1C] WAIT(180* ticks)
  4: 0x012E [0x47] UPDATE_PLAYER_POS(180.000*, 265.000*, 12.367*, yaw=90.0°*)
  5: 0x0138 [0x47] WAIT_PLAYER_POS_UPDATE
  6: 0x013A [0x62] LOAD_EVENT_SCHEDULER: Load scheduler "main" with entities [LocalPlayer, LocalPlayer], work=[2*, 0*]
  7: 0x014B [0x1C] WAIT(180* ticks)
  8: 0x014E [0x20] SET_CLI_EVENT_UC_FLAG: Unlock player control
  9: 0x0150 [0x03] Work_Zone[1] = 1001*
 10: 0x0155 [0x21] END_EVENT
 11: 0x0156 [0x00] END_REQSTACK()
```
