# Event 176

## Metadata

| Field           | Value     |
|-----------------|-----------|
| Event Index     | 6/10      |
| Offset          | 0x006F    |
| Data Size       | 118 bytes |
| Calculated Size | 118 bytes |
| Instructions    | 4         |

```
      00 01 02 03 04 05 06 07  08 09 0A 0B 0C 0D 0E 0F
      -- -- -- -- -- -- -- --  -- -- -- -- -- -- -- --
0060:                                               37                 7
0070: 1A 80 1B 80 1C 80 1D 80  1E 12 A0 0E 01 00 03 01  ................
0080: 10 1E 80 43 00 43 01 02  03 10 1C 80 00 97 00 03  ...C.C..........
0090: 01 10 1C 80 01 E3 00 42  24 1F 80 1E 80 1C 80 25  .......B$......%
00A0: 02 00 10 1C 80 00 D3 00  03 01 10 20 80 43 00 43  ........... .C.C
00B0: 01 02 03 10 1E 80 00 C8  00 1D 21 80 23 1D 22 80  ..........!.#.".
00C0: 23 1D 23 80 23 01 D0 00  1D 21 80 23 1D 24 80 23  #.#.#....!.#.$.#
00D0: 01 E3 00 02 00 10 1E 80  00 E3 00 03 01 10 1C 80  ................
00E0: 01 E3 00 21 00                                    ...!.           
```

## Opcodes

```
  0: 0x006F [0x37] UPDATE_EVENT_POSITION_AND_DIR: x=-160.747*, z=-38.077*, y=0.000*, direction=246.5°*
  1: 0x0078 [0x1E] EventEntity looks at Amar (ID: 17735698/0x010EA012) and starts talking
  2: 0x007D [0x00] END_REQSTACK()
```

## Data or dead code:

```
# Data Section: 0x007E (103 bytes)
     0x007E: 03 01 10 1E 80 43 00 43 01 02 03 10 1C 80 00 97
     0x008E: 00 03 01 10 1C 80 01 E3 00 42 24 1F 80 1E 80 1C
     0x009E: 80 25 02 00 10 1C 80 00 D3 00 03 01 10 20 80 43
     0x00AE: 00 43 01 02 03 10 1E 80 00 C8 00 1D 21 80 23 1D
     0x00BE: 22 80 23 1D 23 80 23 01 D0 00 1D 21 80 23 1D 24
     0x00CE: 80 23 01 E3 00 02 00 10 1E 80 00 E3 00 03 01 10
     0x00DE: 1C 80 01 E3 00 21 00
```