# Event 176

## Metadata

| Field           | Value     |
|-----------------|-----------|
| Event Index     | 6/10      |
| Offset          | 0x006F    |
| Data Size       | 118 bytes |
| Calculated Size | 118 bytes |
| Instructions    | 3         |

```
      00 01 02 03 04 05 06 07  08 09 0A 0B 0C 0D 0E 0F
      -- -- -- -- -- -- -- --  -- -- -- -- -- -- -- --
0060:                                               37                 7
0070: 1A 80 1B 80 1C 80 1D 80  1E 12 A0 0E 01 00 03 01  ................
0080: 10 1E 80 43 00 43 01 02  03 10 1C 80 00 97 00 03  ...C.C..........
0090: 01 10 1C 80 01 E3 00 42  24 1F 80 1E 80 1C 80 25  .......B$......%
00A0: 02 00 10 1C 80 00 D3 00  03 01 10 20 80 43 00 43  ........... .C.C
00B0: 01 02 03 10 1E 80 00 C8  00 1D 21 80 23 1D 22 80  ..........!.#.".
00C0: 23 1D 23 80 23 01 D0 00  1D 21 80 23 1D 24 80 23  #.#.#....!.#.$.#
00D0: 01 E3 00 02 00 10 1E 80  00 E3 00 03 01 10 1C 80  ................
00E0: 01 E3 00 21 00                                    ...!.           
```

## Opcodes

```
  0: 0x006F [0x37] UPDATE_EVENT_POSITION_AND_DIR: x=-160.747*, z=-38.077*, y=0.000*, direction=246.5°*
  1: 0x0078 [0x1E] EventEntity looks at Amar (ID: 17735698/0x010EA012) and starts talking
  2: 0x007D [0x00] END_REQSTACK()
```

## Data or dead code:

```
# Dead code (unreachable instructions):
     0x007E [0x03] Work_Zone[1] = 1*
     0x0083 [0x43] SEND_EVENT_UPDATE: Send pending tag to server (packet 0x005B)
     0x0085 [0x43] SEND_EVENT_UPDATE: Check pending flag (skip if not pending)
     0x0087 [0x02] IF !(Work_Zone[3] == 0*) GOTO 0x0097
     0x008F [0x03] Work_Zone[1] = 0*
     0x0094 [0x01] GOTO 0x00E3
     0x0097 [0x42] SET_CLI_EVENT_CANCEL_DATA()
     0x0098 [0x24] CREATE_DIALOG(message_id=14091*, default_option=1*, option_flags=0*)
    → "Ask if this person is the chick's owner?\u0007\u000BYes.\u0007No.\u007F1\u0000\u0007"
     0x009F [0x25] WAIT_DIALOG_SELECT()
     0x00A0 [0x02] IF !(Work_Zone[0] == 0*) GOTO 0x00D3
     0x00A8 [0x03] Work_Zone[1] = 2*
     0x00AD [0x43] SEND_EVENT_UPDATE: Send pending tag to server (packet 0x005B)
     0x00AF [0x43] SEND_EVENT_UPDATE: Check pending flag (skip if not pending)
     0x00B1 [0x02] IF !(Work_Zone[3] == 1*) GOTO 0x00C8
     0x00B9 [0x1D] PRINT_EVENT_MESSAGE(message_id=14181*)
    → "What? You say you've got my chocobo!?\u007F1\u0000\u0007"
     0x00BC [0x23] WAIT_FOR_DIALOG_INTERACTION
     0x00BD [0x1D] PRINT_EVENT_MESSAGE(message_id=14182*)
    → "That's great news!\u0007The only time I ever really feel relaxed is when I'm with that little guy.\u007F1\u0000\u0007"
     0x00C0 [0x23] WAIT_FOR_DIALOG_INTERACTION
     0x00C1 [0x1D] PRINT_EVENT_MESSAGE(message_id=14183*)
    → "You're raising a chocobo yourself, aren't you? Let me teach you a story I always tell mine...\u007F1\u0000\u0007"
     0x00C4 [0x23] WAIT_FOR_DIALOG_INTERACTION
     0x00C5 [0x01] GOTO 0x00D0
     0x00C8 [0x1D] PRINT_EVENT_MESSAGE(message_id=14181*)
    → "What? You say you've got my chocobo!?\u007F1\u0000\u0007"
     0x00CB [0x23] WAIT_FOR_DIALOG_INTERACTION
     0x00CC [0x1D] PRINT_EVENT_MESSAGE(message_id=14205*)
    → "Stop joking around. I've got work to do. My chocobo's at home waiting for me to finish.\u007F1\u0000\u0007"
     0x00CF [0x23] WAIT_FOR_DIALOG_INTERACTION
     0x00D0 [0x01] GOTO 0x00E3
     0x00D3 [0x02] IF !(Work_Zone[0] == 1*) GOTO 0x00E3
     0x00DB [0x03] Work_Zone[1] = 0*
     0x00E0 [0x01] GOTO 0x00E3
     0x00E3 [0x21] END_EVENT
     0x00E4 [0x00] END_REQSTACK()
```