# Event 65535

## Metadata

| Field           | Value    |
|-----------------|----------|
| Event Index     | 57/68    |
| Offset          | 0x0712   |
| Data Size       | 66 bytes |
| Calculated Size | 66 bytes |
| Instructions    | 16       |

```
      00 01 02 03 04 05 06 07  08 09 0A 0B 0C 0D 0E 0F
      -- -- -- -- -- -- -- --  -- -- -- -- -- -- -- --
0710:       32 1E 80 1F 00 BE  80 BF 80 C0 80 1F 01 1C    2.............
0720: 40 80 1F 00 C1 80 C2 80  C3 80 1F 01 1C 40 80 1F  @............@..
0730: 00 C4 80 C5 80 C6 80 1F  01 1C 40 80 1F 00 C7 80  ..........@.....
0740: C8 80 C9 80 1F 01 1C 40  80 1F 00 BA 80 BB 80 BC  .......@........
0750: 80 1F 01 00                                       ....            
```

## Opcodes

```
  0: 0x0712 [0x32] ExtData[1]->MainSpeed = 19* * 0.1
  1: 0x0715 [0x1F] MOVE_ENTITY: EventEntity moves to X=-601.910*, Z=587.743*, Y=0.274*
  2: 0x071D [0x1F] MOVE_ENTITY: Update entity position (mode=1)
  3: 0x071F [0x1C] WAIT(30* ticks)
  4: 0x0722 [0x1F] MOVE_ENTITY: EventEntity moves to X=-600.199*, Z=588.994*, Y=0.347*
  5: 0x072A [0x1F] MOVE_ENTITY: Update entity position (mode=1)
  6: 0x072C [0x1C] WAIT(30* ticks)
  7: 0x072F [0x1F] MOVE_ENTITY: EventEntity moves to X=-599.211*, Z=586.089*, Y=0.586*
  8: 0x0737 [0x1F] MOVE_ENTITY: Update entity position (mode=1)
  9: 0x0739 [0x1C] WAIT(30* ticks)
 10: 0x073C [0x1F] MOVE_ENTITY: EventEntity moves to X=-599.391*, Z=583.375*, Y=0.830*
 11: 0x0744 [0x1F] MOVE_ENTITY: Update entity position (mode=1)
 12: 0x0746 [0x1C] WAIT(30* ticks)
 13: 0x0749 [0x1F] MOVE_ENTITY: EventEntity moves to X=-600.128*, Z=585.578*, Y=0.628*
 14: 0x0751 [0x1F] MOVE_ENTITY: Update entity position (mode=1)
 15: 0x0753 [0x00] END_REQSTACK()
```
