# Event 65535

## Metadata

| Field           | Value    |
|-----------------|----------|
| Event Index     | 61/68    |
| Offset          | 0x07E2   |
| Data Size       | 50 bytes |
| Calculated Size | 50 bytes |
| Instructions    | 12       |

```
      00 01 02 03 04 05 06 07  08 09 0A 0B 0C 0D 0E 0F
      -- -- -- -- -- -- -- --  -- -- -- -- -- -- -- --
07E0:       32 1E 80 1F 00 D6  80 D7 80 D8 80 1F 01 1C    2.............
07F0: 22 80 1F 00 D2 80 D3 80  D4 80 1F 01 1C 22 80 1F  "............"..
0800: 00 BA 80 BB 80 BC 80 1F  01 4B 91 A0 0E 01 D5 80  .........K......
0810: 1C 22 80 00                                       ."..            
```

## Opcodes

```
  0: 0x07E2 [0x32] ExtData[1]->MainSpeed = 19* * 0.1
  1: 0x07E5 [0x1F] MOVE_ENTITY: EventEntity moves to X=-599.892*, Z=588.477*, Y=0.373*
  2: 0x07ED [0x1F] MOVE_ENTITY: Update entity position (mode=1)
  3: 0x07EF [0x1C] WAIT(60* ticks)
  4: 0x07F2 [0x1F] MOVE_ENTITY: EventEntity moves to X=-602.144*, Z=586.825*, Y=0.376*
  5: 0x07FA [0x1F] MOVE_ENTITY: Update entity position (mode=1)
  6: 0x07FC [0x1C] WAIT(60* ticks)
  7: 0x07FF [0x1F] MOVE_ENTITY: EventEntity moves to X=-600.128*, Z=585.578*, Y=0.628*
  8: 0x0807 [0x1F] MOVE_ENTITY: Update entity position (mode=1)
  9: 0x0809 [0x4B] UPDATE_ENTITY_YAW(entity=Unnamed NPC (ID: 17735825/0x010EA091), yaw=11.79°*)
 10: 0x0810 [0x1C] WAIT(60* ticks)
 11: 0x0813 [0x00] END_REQSTACK()
```
