# Event 65535

## Metadata

| Field           | Value    |
|-----------------|----------|
| Event Index     | 34/68    |
| Offset          | 0x0423   |
| Data Size       | 55 bytes |
| Calculated Size | 55 bytes |
| Instructions    | 9        |

```
      00 01 02 03 04 05 06 07  08 09 0A 0B 0C 0D 0E 0F
      -- -- -- -- -- -- -- --  -- -- -- -- -- -- -- --
0420:          32 1E 80 1F 00  6E 80 6F 80 70 80 1F 01     2....n.o.p...
0430: 1E F0 FF FF 7F 1C 40 80  5B 21 80 91 A0 0E 01 91  ......@.[!......
0440: A0 0E 01 6B 75 65 30 1C  22 80 5B 23 80 91 A0 0E  ...kue0.".[#....
0450: 01 91 A0 0E 01 31 30 30  39 00                    .....1009.      
```

## Opcodes

```
  0: 0x0423 [0x32] ExtData[1]->MainSpeed = 19* * 0.1
  1: 0x0426 [0x1F] MOVE_ENTITY: EventEntity moves to X=-154.474*, Z=-687.977*, Y=-64.025*
  2: 0x042E [0x1F] MOVE_ENTITY: Update entity position (mode=1)
  3: 0x0430 [0x1E] EventEntity looks at LocalPlayer and starts talking
  4: 0x0435 [0x1C] WAIT(30* ticks)
  5: 0x0438 [0x5B] LOAD_EXT_SCHEDULER: Load scheduler "kue0" with entities [Unnamed NPC (ID: 17735825/0x010EA091), Unnamed NPC (ID: 17735825/0x010EA091)], work=875*
  6: 0x0447 [0x1C] WAIT(60* ticks)
  7: 0x044A [0x5B] LOAD_EXT_SCHEDULER: Load scheduler "1009" with entities [Unnamed NPC (ID: 17735825/0x010EA091), Unnamed NPC (ID: 17735825/0x010EA091)], work=224*
  8: 0x0459 [0x00] END_REQSTACK()
```
