# Event 65535

## Metadata

| Field           | Value    |
|-----------------|----------|
| Event Index     | 62/68    |
| Offset          | 0x0814   |
| Data Size       | 67 bytes |
| Calculated Size | 67 bytes |
| Instructions    | 15       |

```
      00 01 02 03 04 05 06 07  08 09 0A 0B 0C 0D 0E 0F
      -- -- -- -- -- -- -- --  -- -- -- -- -- -- -- --
0810:             32 29 80 1F  00 D9 80 DA 80 DB 80 1F      2)..........
0820: 01 4B 91 A0 0E 01 DC 80  1C 22 80 1F 00 DD 80 DE  .K......."......
0830: 80 DF 80 1F 01 4B 91 A0  0E 01 E0 80 1C E1 80 1F  .....K..........
0840: 00 E2 80 E3 80 E4 80 1F  01 1C 40 80 4B 91 A0 0E  ..........@.K...
0850: 01 E5 80 1C 22 80 00                              ...."..         
```

## Opcodes

```
  0: 0x0814 [0x32] ExtData[1]->MainSpeed = 57* * 0.1
  1: 0x0817 [0x1F] MOVE_ENTITY: EventEntity moves to X=-599.295*, Z=590.678*, Y=0.264*
  2: 0x081F [0x1F] MOVE_ENTITY: Update entity position (mode=1)
  3: 0x0821 [0x4B] UPDATE_ENTITY_YAW(entity=Unnamed NPC (ID: 17735825/0x010EA091), yaw=5.27°*)
  4: 0x0828 [0x1C] WAIT(60* ticks)
  5: 0x082B [0x1F] MOVE_ENTITY: EventEntity moves to X=-604.353*, Z=586.292*, Y=0.138*
  6: 0x0833 [0x1F] MOVE_ENTITY: Update entity position (mode=1)
  7: 0x0835 [0x4B] UPDATE_ENTITY_YAW(entity=Unnamed NPC (ID: 17735825/0x010EA091), yaw=0.20°*)
  8: 0x083C [0x1C] WAIT(240* ticks)
  9: 0x083F [0x1F] MOVE_ENTITY: EventEntity moves to X=-600.328*, Z=582.410*, Y=0.802*
 10: 0x0847 [0x1F] MOVE_ENTITY: Update entity position (mode=1)
 11: 0x0849 [0x1C] WAIT(30* ticks)
 12: 0x084C [0x4B] UPDATE_ENTITY_YAW(entity=Unnamed NPC (ID: 17735825/0x010EA091), yaw=16.63°*)
 13: 0x0853 [0x1C] WAIT(60* ticks)
 14: 0x0856 [0x00] END_REQSTACK()
```
