# Event 65535

## Metadata

| Field           | Value    |
|-----------------|----------|
| Event Index     | 60/68    |
| Offset          | 0x07B0   |
| Data Size       | 50 bytes |
| Calculated Size | 50 bytes |
| Instructions    | 12       |

```
      00 01 02 03 04 05 06 07  08 09 0A 0B 0C 0D 0E 0F
      -- -- -- -- -- -- -- --  -- -- -- -- -- -- -- --
07B0: 32 17 80 1F 00 CF 80 D0  80 D1 80 1F 01 1C 22 80  2.............".
07C0: 1F 00 D2 80 D3 80 D4 80  1F 01 1C 22 80 1F 00 BA  ..........."....
07D0: 80 BB 80 BC 80 1F 01 4B  91 A0 0E 01 D5 80 1C 22  .......K......."
07E0: 80 00                                             ..              
```

## Opcodes

```
  0: 0x07B0 [0x32] ExtData[1]->MainSpeed = 10* * 0.1
  1: 0x07B3 [0x1F] MOVE_ENTITY: EventEntity moves to X=-600.221*, Z=588.558*, Y=0.369*
  2: 0x07BB [0x1F] MOVE_ENTITY: Update entity position (mode=1)
  3: 0x07BD [0x1C] WAIT(60* ticks)
  4: 0x07C0 [0x1F] MOVE_ENTITY: EventEntity moves to X=-602.144*, Z=586.825*, Y=0.376*
  5: 0x07C8 [0x1F] MOVE_ENTITY: Update entity position (mode=1)
  6: 0x07CA [0x1C] WAIT(60* ticks)
  7: 0x07CD [0x1F] MOVE_ENTITY: EventEntity moves to X=-600.128*, Z=585.578*, Y=0.628*
  8: 0x07D5 [0x1F] MOVE_ENTITY: Update entity position (mode=1)
  9: 0x07D7 [0x4B] UPDATE_ENTITY_YAW(entity=Unnamed NPC (ID: 17735825/0x010EA091), yaw=11.79°*)
 10: 0x07DE [0x1C] WAIT(60* ticks)
 11: 0x07E1 [0x00] END_REQSTACK()
```
