# Event 65535

## Metadata

| Field           | Value    |
|-----------------|----------|
| Event Index     | 14/68    |
| Offset          | 0x0070   |
| Data Size       | 62 bytes |
| Calculated Size | 62 bytes |
| Instructions    | 10       |

```
      00 01 02 03 04 05 06 07  08 09 0A 0B 0C 0D 0E 0F
      -- -- -- -- -- -- -- --  -- -- -- -- -- -- -- --
0070: 5B 15 80 91 A0 0E 01 91  A0 0E 01 68 69 30 39 1C  [..........hi09.
0080: 16 80 32 17 80 1F 00 18  80 19 80 13 80 1F 01 4A  ..2............J
0090: 90 A0 0E 01 91 A0 0E 01  1C 17 80 5B 15 80 91 A0  ...........[....
00A0: 0E 01 91 A0 0E 01 68 69  30 39 1C 1A 80 00        ......hi09....  
```

## Opcodes

```
  0: 0x0070 [0x5B] LOAD_EXT_SCHEDULER: Load scheduler "hi09" with entities [Unnamed NPC (ID: 17735825/0x010EA091), Unnamed NPC (ID: 17735825/0x010EA091)], work=872*
  1: 0x007F [0x1C] WAIT(150* ticks)
  2: 0x0082 [0x32] ExtData[1]->MainSpeed = 10* * 0.1
  3: 0x0085 [0x1F] MOVE_ENTITY: EventEntity moves to X=9.038*, Z=-59.962*, Y=-2.999*
  4: 0x008D [0x1F] MOVE_ENTITY: Update entity position (mode=1)
  5: 0x008F [0x4A] Zopago (ID: 17735824/0x010EA090) looks at Unnamed NPC (ID: 17735825/0x010EA091)
  6: 0x0098 [0x1C] WAIT(10* ticks)
  7: 0x009B [0x5B] LOAD_EXT_SCHEDULER: Load scheduler "hi09" with entities [Unnamed NPC (ID: 17735825/0x010EA091), Unnamed NPC (ID: 17735825/0x010EA091)], work=872*
  8: 0x00AA [0x1C] WAIT(120* ticks)
  9: 0x00AD [0x00] END_REQSTACK()
```
