# Event 65535

## Metadata

| Field           | Value    |
|-----------------|----------|
| Event Index     | 52/68    |
| Offset          | 0x0691   |
| Data Size       | 48 bytes |
| Calculated Size | 48 bytes |
| Instructions    | 11       |

```
      00 01 02 03 04 05 06 07  08 09 0A 0B 0C 0D 0E 0F
      -- -- -- -- -- -- -- --  -- -- -- -- -- -- -- --
0690:    02 04 00 B0 80 01 C0  06 32 1E 80 1F 00 B1 80   ........2......
06A0: B2 80 B3 80 1F 01 1C 22  80 1F 00 B4 80 B5 80 B6  ......."........
06B0: 80 1F 01 1F 00 B7 80 B8  80 B9 80 1F 01 01 91 06  ................
06C0: 00                                                .               
```

## Opcodes

```
  0: 0x0691 [0x02] IF !(ExtData[1]->WorkLocal[4] == 1*) GOTO 0x06C0
  1: 0x0699 [0x32] ExtData[1]->MainSpeed = 19* * 0.1
  2: 0x069C [0x1F] MOVE_ENTITY: EventEntity moves to X=-604.743*, Z=600.818*, Y=0.035*
  3: 0x06A4 [0x1F] MOVE_ENTITY: Update entity position (mode=1)
  4: 0x06A6 [0x1C] WAIT(60* ticks)
  5: 0x06A9 [0x1F] MOVE_ENTITY: EventEntity moves to X=-608.317*, Z=600.631*, Y=0.214*
  6: 0x06B1 [0x1F] MOVE_ENTITY: Update entity position (mode=1)
  7: 0x06B3 [0x1F] MOVE_ENTITY: EventEntity moves to X=-606.086*, Z=601.808*, Y=0.102*
  8: 0x06BB [0x1F] MOVE_ENTITY: Update entity position (mode=1)
  9: 0x06BD [0x01] GOTO 0x0691
 10: 0x06C0 [0x00] END_REQSTACK()
```
