# Event 65535

## Metadata

| Field           | Value    |
|-----------------|----------|
| Event Index     | 56/68    |
| Offset          | 0x06DC   |
| Data Size       | 54 bytes |
| Calculated Size | 54 bytes |
| Instructions    | 12       |

```
      00 01 02 03 04 05 06 07  08 09 0A 0B 0C 0D 0E 0F
      -- -- -- -- -- -- -- --  -- -- -- -- -- -- -- --
06D0:                                      32 17 80 1F              2...
06E0: 00 BE 80 BF 80 C0 80 1F  01 1F 00 C1 80 C2 80 C3  ................
06F0: 80 1F 01 1F 00 C4 80 C5  80 C6 80 1F 01 1F 00 C7  ................
0700: 80 C8 80 C9 80 1F 01 1F  00 BA 80 BB 80 BC 80 1F  ................
0710: 01 00                                             ..              
```

## Opcodes

```
  0: 0x06DC [0x32] ExtData[1]->MainSpeed = 10* * 0.1
  1: 0x06DF [0x1F] MOVE_ENTITY: EventEntity moves to X=-601.910*, Z=587.743*, Y=0.274*
  2: 0x06E7 [0x1F] MOVE_ENTITY: Update entity position (mode=1)
  3: 0x06E9 [0x1F] MOVE_ENTITY: EventEntity moves to X=-600.199*, Z=588.994*, Y=0.347*
  4: 0x06F1 [0x1F] MOVE_ENTITY: Update entity position (mode=1)
  5: 0x06F3 [0x1F] MOVE_ENTITY: EventEntity moves to X=-599.211*, Z=586.089*, Y=0.586*
  6: 0x06FB [0x1F] MOVE_ENTITY: Update entity position (mode=1)
  7: 0x06FD [0x1F] MOVE_ENTITY: EventEntity moves to X=-599.391*, Z=583.375*, Y=0.830*
  8: 0x0705 [0x1F] MOVE_ENTITY: Update entity position (mode=1)
  9: 0x0707 [0x1F] MOVE_ENTITY: EventEntity moves to X=-600.128*, Z=585.578*, Y=0.628*
 10: 0x070F [0x1F] MOVE_ENTITY: Update entity position (mode=1)
 11: 0x0711 [0x00] END_REQSTACK()
```
