# Event 65535

## Metadata

| Field           | Value    |
|-----------------|----------|
| Event Index     | 110/110  |
| Offset          | 0x0659   |
| Data Size       | 46 bytes |
| Calculated Size | 46 bytes |
| Instructions    | 11       |

```
      00 01 02 03 04 05 06 07  08 09 0A 0B 0C 0D 0E 0F
      -- -- -- -- -- -- -- --  -- -- -- -- -- -- -- --
0650:                             32 14 80 1F 00 8F 80           2......
0660: 90 80 91 80 1F 01 6F 4A  06 90 0E 01 F0 FF FF 7F  ......oJ........
0670: 1C 92 80 02 09 10 93 80  00 80 06 7B 06 90 0E 01  ...........{....
0680: 6F 76 06 90 0E 01 00                              ov.....         
```

## Opcodes

```
  0: 0x0659 [0x32] ExtData[1]->MainSpeed = 10* * 0.1
  1: 0x065C [0x1F] MOVE_ENTITY: EventEntity moves to X=-33.853*, Z=80.233*, Y=-3.764*
  2: 0x0664 [0x1F] MOVE_ENTITY: Update entity position (mode=1)
  3: 0x0666 [0x6F] WAIT_FRAME_DELAY: Yield until WaitTime reaches zero
  4: 0x0667 [0x4A] Claidie (ID: 17731590/0x010E9006) looks at LocalPlayer
  5: 0x0670 [0x1C] WAIT(2* ticks)
  6: 0x0673 [0x02] IF !(Work_Zone[9] == 7*) GOTO 0x0680
  7: 0x067B [0x7B] Claidie (ID: 17731590/0x010E9006) stops talking
  8: 0x0680 [0x6F] WAIT_FRAME_DELAY: Yield until WaitTime reaches zero
  9: 0x0681 [0x76] CHECK_ENTITY_RENDER_FLAGS: Wait until Claidie (ID: 17731590/0x010E9006) Render.Flags0 and Render.Flags3 conditions are met
 10: 0x0686 [0x00] END_REQSTACK()
```
