# Event 65535

## Metadata

| Field           | Value    |
|-----------------|----------|
| Event Index     | 25/34    |
| Offset          | 0x0255   |
| Data Size       | 50 bytes |
| Calculated Size | 50 bytes |
| Instructions    | 12       |

```
      00 01 02 03 04 05 06 07  08 09 0A 0B 0C 0D 0E 0F
      -- -- -- -- -- -- -- --  -- -- -- -- -- -- -- --
0250:                32 22 80  1F 00 46 80 47 80 48 80       2"...F.G.H.
0260: 1F 01 1C 49 80 1F 00 4A  80 4B 80 4C 80 1F 01 1C  ...I...J.K.L....
0270: 49 80 1F 00 2D 80 2E 80  2F 80 1F 01 4B 94 A0 0E  I...-.../...K...
0280: 01 4D 80 1C 49 80 00                              .M..I..         
```

## Opcodes

```
  0: 0x0255 [0x32] ExtData[1]->MainSpeed = 10* * 0.1
  1: 0x0258 [0x1F] MOVE_ENTITY: EventEntity moves to X=-600.221*, Z=588.558*, Y=0.369*
  2: 0x0260 [0x1F] MOVE_ENTITY: Update entity position (mode=1)
  3: 0x0262 [0x1C] WAIT(60* ticks)
  4: 0x0265 [0x1F] MOVE_ENTITY: EventEntity moves to X=-602.144*, Z=586.825*, Y=0.376*
  5: 0x026D [0x1F] MOVE_ENTITY: Update entity position (mode=1)
  6: 0x026F [0x1C] WAIT(60* ticks)
  7: 0x0272 [0x1F] MOVE_ENTITY: EventEntity moves to X=-600.128*, Z=585.578*, Y=0.628*
  8: 0x027A [0x1F] MOVE_ENTITY: Update entity position (mode=1)
  9: 0x027C [0x4B] UPDATE_ENTITY_YAW(entity=Unnamed NPC (ID: 17735828/0x010EA094), yaw=11.79°*)
 10: 0x0283 [0x1C] WAIT(60* ticks)
 11: 0x0286 [0x00] END_REQSTACK()
```
