# Event 65535

## Metadata

| Field           | Value    |
|-----------------|----------|
| Event Index     | 21/34    |
| Offset          | 0x0185   |
| Data Size       | 54 bytes |
| Calculated Size | 54 bytes |
| Instructions    | 12       |

```
      00 01 02 03 04 05 06 07  08 09 0A 0B 0C 0D 0E 0F
      -- -- -- -- -- -- -- --  -- -- -- -- -- -- -- --
0180:                32 22 80  1F 00 31 80 32 80 33 80       2"...1.2.3.
0190: 1F 01 1F 00 34 80 35 80  36 80 1F 01 1F 00 37 80  ....4.5.6.....7.
01A0: 38 80 39 80 1F 01 1F 00  3A 80 3B 80 3C 80 1F 01  8.9.....:.;.<...
01B0: 1F 00 2D 80 2E 80 2F 80  1F 01 00                 ..-.../....     
```

## Opcodes

```
  0: 0x0185 [0x32] ExtData[1]->MainSpeed = 10* * 0.1
  1: 0x0188 [0x1F] MOVE_ENTITY: EventEntity moves to X=-601.910*, Z=587.743*, Y=0.274*
  2: 0x0190 [0x1F] MOVE_ENTITY: Update entity position (mode=1)
  3: 0x0192 [0x1F] MOVE_ENTITY: EventEntity moves to X=-600.199*, Z=588.994*, Y=0.347*
  4: 0x019A [0x1F] MOVE_ENTITY: Update entity position (mode=1)
  5: 0x019C [0x1F] MOVE_ENTITY: EventEntity moves to X=-599.211*, Z=586.089*, Y=0.586*
  6: 0x01A4 [0x1F] MOVE_ENTITY: Update entity position (mode=1)
  7: 0x01A6 [0x1F] MOVE_ENTITY: EventEntity moves to X=-599.391*, Z=583.375*, Y=0.830*
  8: 0x01AE [0x1F] MOVE_ENTITY: Update entity position (mode=1)
  9: 0x01B0 [0x1F] MOVE_ENTITY: EventEntity moves to X=-600.128*, Z=585.578*, Y=0.628*
 10: 0x01B8 [0x1F] MOVE_ENTITY: Update entity position (mode=1)
 11: 0x01BA [0x00] END_REQSTACK()
```
