# Event 65535

## Metadata

| Field           | Value    |
|-----------------|----------|
| Event Index     | 26/34    |
| Offset          | 0x0287   |
| Data Size       | 50 bytes |
| Calculated Size | 50 bytes |
| Instructions    | 12       |

```
      00 01 02 03 04 05 06 07  08 09 0A 0B 0C 0D 0E 0F
      -- -- -- -- -- -- -- --  -- -- -- -- -- -- -- --
0280:                      32  13 80 1F 00 4E 80 4F 80         2....N.O.
0290: 50 80 1F 01 1C 49 80 1F  00 4A 80 4B 80 4C 80 1F  P....I...J.K.L..
02A0: 01 1C 49 80 1F 00 2D 80  2E 80 2F 80 1F 01 4B 94  ..I...-.../...K.
02B0: A0 0E 01 4D 80 1C 49 80  00                       ...M..I..       
```

## Opcodes

```
  0: 0x0287 [0x32] ExtData[1]->MainSpeed = 19* * 0.1
  1: 0x028A [0x1F] MOVE_ENTITY: EventEntity moves to X=-599.892*, Z=588.477*, Y=0.373*
  2: 0x0292 [0x1F] MOVE_ENTITY: Update entity position (mode=1)
  3: 0x0294 [0x1C] WAIT(60* ticks)
  4: 0x0297 [0x1F] MOVE_ENTITY: EventEntity moves to X=-602.144*, Z=586.825*, Y=0.376*
  5: 0x029F [0x1F] MOVE_ENTITY: Update entity position (mode=1)
  6: 0x02A1 [0x1C] WAIT(60* ticks)
  7: 0x02A4 [0x1F] MOVE_ENTITY: EventEntity moves to X=-600.128*, Z=585.578*, Y=0.628*
  8: 0x02AC [0x1F] MOVE_ENTITY: Update entity position (mode=1)
  9: 0x02AE [0x4B] UPDATE_ENTITY_YAW(entity=Unnamed NPC (ID: 17735828/0x010EA094), yaw=11.79°*)
 10: 0x02B5 [0x1C] WAIT(60* ticks)
 11: 0x02B8 [0x00] END_REQSTACK()
```
