# Event 10032

## Metadata

| Field           | Value    |
|-----------------|----------|
| Event Index     | 30/30    |
| Offset          | 0x022D   |
| Data Size       | 33 bytes |
| Calculated Size | 33 bytes |
| Instructions    | 12       |

```
      00 01 02 03 04 05 06 07  08 09 0A 0B 0C 0D 0E 0F
      -- -- -- -- -- -- -- --  -- -- -- -- -- -- -- --
0220:                                         1E F0 FF               ...
0230: FF 7F 6F 70 29 08 42 50  0F 01 01 1D 1B 80 23 1D  ..op).BP......#.
0240: 1C 80 23 29 08 42 50 0F  01 02 20 00 21 00        ..#).BP... .!.  
```

## Opcodes

```
  0: 0x022D [0x1E] EventEntity looks at LocalPlayer and starts talking
  1: 0x0232 [0x6F] WAIT_FRAME_DELAY: Yield until WaitTime reaches zero
  2: 0x0233 [0x70] WAIT_ENTITY_RENDER_FLAG: Wait while EventEntity->Render.Flags3 bit 2 is set (cancel turn if not)
  3: 0x0234 [0x29] REQ_SET_WAIT(priority=0x08, entity_id=Yatniel (ID: 17780802/0x010F5042), tag_num=0x01)
  4: 0x023B [0x1D] PRINT_EVENT_MESSAGE(message_id=8007*)
    → "If I didn't have this damn assignment, I would have joined in on the treasure hunt. Things happen for a reason, I guess.\u007F1\u0000\u0007"
  5: 0x023E [0x23] WAIT_FOR_DIALOG_INTERACTION
  6: 0x023F [0x1D] PRINT_EVENT_MESSAGE(message_id=8008*)
    → "Remember this.\u0007Thieves' work and adventuring don't go hand in hand. Don't bite off more than you can chew. Damn straight!\u007F1\u0000\u0007"
  7: 0x0242 [0x23] WAIT_FOR_DIALOG_INTERACTION
  8: 0x0243 [0x29] REQ_SET_WAIT(priority=0x08, entity_id=Yatniel (ID: 17780802/0x010F5042), tag_num=0x02)
  9: 0x024A [0x20] SET_CLI_EVENT_UC_FLAG: Unlock player control
 10: 0x024C [0x21] END_EVENT
 11: 0x024D [0x00] END_REQSTACK()
```
