# Event 65535

## Metadata

| Field           | Value    |
|-----------------|----------|
| Event Index     | 27/30    |
| Offset          | 0x01F0   |
| Data Size       | 37 bytes |
| Calculated Size | 37 bytes |
| Instructions    | 9        |

```
      00 01 02 03 04 05 06 07  08 09 0A 0B 0C 0D 0E 0F
      -- -- -- -- -- -- -- --  -- -- -- -- -- -- -- --
01F0: 29 08 42 50 0F 01 07 1D  17 80 23 29 08 42 50 0F  ).BP......#).BP.
0200: 01 08 29 08 42 50 0F 01  09 1D 18 80 23 29 08 42  ..).BP......#).B
0210: 50 0F 01 0A 00                                    P....           
```

## Opcodes

```
  0: 0x01F0 [0x29] REQ_SET_WAIT(priority=0x08, entity_id=Yatniel (ID: 17780802/0x010F5042), tag_num=0x07)
  1: 0x01F7 [0x1D] PRINT_EVENT_MESSAGE(message_id=8003*)
    → "You got them!\u0007I couldn't make the damn things myself.\u007F1\u0000\u0007"
  2: 0x01FA [0x23] WAIT_FOR_DIALOG_INTERACTION
  3: 0x01FB [0x29] REQ_SET_WAIT(priority=0x08, entity_id=Yatniel (ID: 17780802/0x010F5042), tag_num=0x08)
  4: 0x0202 [0x29] REQ_SET_WAIT(priority=0x08, entity_id=Yatniel (ID: 17780802/0x010F5042), tag_num=0x09)
  5: 0x0209 [0x1D] PRINT_EVENT_MESSAGE(message_id=8004*)
    → "Now I can get my work done. And eat some damn good food.\u007F1\u0000\u0007"
  6: 0x020C [0x23] WAIT_FOR_DIALOG_INTERACTION
  7: 0x020D [0x29] REQ_SET_WAIT(priority=0x08, entity_id=Yatniel (ID: 17780802/0x010F5042), tag_num=0x0A)
  8: 0x0214 [0x00] END_REQSTACK()
```
