# Event 216

## Metadata

| Field           | Value    |
|-----------------|----------|
| Event Index     | 5/6      |
| Offset          | 0x00B5   |
| Data Size       | 52 bytes |
| Calculated Size | 52 bytes |
| Instructions    | 13       |

```
      00 01 02 03 04 05 06 07  08 09 0A 0B 0C 0D 0E 0F
      -- -- -- -- -- -- -- --  -- -- -- -- -- -- -- --
00B0:                20 01 42  1E F0 FF FF 7F 6F 70 66        .B.....opf
00C0: 00 80 F8 FF FF 7F F8 FF  FF 7F 74 6C 6B 30 1D 0F  ..........tlk0..
00D0: 80 23 1D 10 80 23 45 11  80 F0 FF FF 7F F0 FF FF  .#...#E.........
00E0: 7F 71 73 74 63 0A 80 21  00                       .qstc..!.       
```

## Opcodes

```
  0: 0x00B5 [0x20] SET_CLI_EVENT_UC_FLAG: Lock player control
  1: 0x00B7 [0x42] SET_CLI_EVENT_CANCEL_DATA()
  2: 0x00B8 [0x1E] EventEntity looks at LocalPlayer and starts talking
  3: 0x00BD [0x6F] WAIT_FRAME_DELAY: Yield until WaitTime reaches zero
  4: 0x00BE [0x70] WAIT_ENTITY_RENDER_FLAG: Wait while EventEntity->Render.Flags3 bit 2 is set (cancel turn if not)
  5: 0x00BF [0x66] LOAD_EXT_SCHEDULER_MAIN(work_offset=30*, entity1=EventEntity, entity2=EventEntity, action="tlk0")
  6: 0x00CE [0x1D] PRINT_EVENT_MESSAGE(message_id=8028*)
    → "I was able to regain contact with my husband again. Thank you so much!\u007F1\u0000\u0007"
  7: 0x00D1 [0x23] WAIT_FOR_DIALOG_INTERACTION
  8: 0x00D2 [0x1D] PRINT_EVENT_MESSAGE(message_id=8029*)
    → "The world may never again know peace and tranquility. But for the sake of our loved ones, we must ever hold on to hope.\u007F1\u0000\u0007"
  9: 0x00D5 [0x23] WAIT_FOR_DIALOG_INTERACTION
 10: 0x00D6 [0x45] LOAD_SCHEDULED_TASK(work_offset1=201*, entity1=LocalPlayer, entity2=LocalPlayer, scheduler_id="qstc", work_offset2=0*)
 11: 0x00E7 [0x21] END_EVENT
 12: 0x00E8 [0x00] END_REQSTACK()
```
