# Event 10054

## Metadata

| Field           | Value    |
|-----------------|----------|
| Event Index     | 3/102    |
| Offset          | 0x003E   |
| Data Size       | 52 bytes |
| Calculated Size | 52 bytes |
| Instructions    | 12       |

```
      00 01 02 03 04 05 06 07  08 09 0A 0B 0C 0D 0E 0F
      -- -- -- -- -- -- -- --  -- -- -- -- -- -- -- --
0030:                                            42 48                BH
0040: 03 80 1E F0 FF FF 7F 1C  04 80 66 00 80 F8 FF FF  ..........f.....
0050: 7F F8 FF FF 7F 74 6C 6B  30 1D 05 80 23 1D 06 80  .....tlk0...#...
0060: 23 66 00 80 F8 FF FF 7F  F8 FF FF 7F 74 65 6E 30  #f..........ten0
0070: 21 00                                             !.              
```

## Opcodes

```
  0: 0x003E [0x42] SET_CLI_EVENT_CANCEL_DATA()
  1: 0x003F [0x48] [System] [9486*]:
    → "\u001F\u000F\u0008's badge flashes brightly.\u007F1\u0000\u0007"
  2: 0x0042 [0x1E] EventEntity looks at LocalPlayer and starts talking
  3: 0x0047 [0x1C] WAIT(30* ticks)
  4: 0x004A [0x66] LOAD_EXT_SCHEDULER_MAIN: Load scheduler "tlk0" with entities [EventEntity, EventEntity], work=0*
  5: 0x0059 [0x1D] PRINT_EVENT_MESSAGE(message_id=9491*)
    → "Jeuno is different from the other nations.\u0007I actually kind of enjoy watching everyone squabble with each other.\u007F1\u0000\u0007"
  6: 0x005C [0x23] WAIT_FOR_DIALOG_INTERACTION
  7: 0x005D [0x1D] PRINT_EVENT_MESSAGE(message_id=9492*)
    → "I can't imagine why anyone would want to go all the way to the Near East and become a mercenary.\u007F1\u0000\u0007"
  8: 0x0060 [0x23] WAIT_FOR_DIALOG_INTERACTION
  9: 0x0061 [0x66] LOAD_EXT_SCHEDULER_MAIN: Load scheduler "ten0" with entities [EventEntity, EventEntity], work=0*
 10: 0x0070 [0x21] END_EVENT
 11: 0x0071 [0x00] END_REQSTACK()
```
