# Event 65535

## Metadata

| Field           | Value    |
|-----------------|----------|
| Event Index     | 3/9      |
| Offset          | 0x0010   |
| Data Size       | 52 bytes |
| Calculated Size | 52 bytes |
| Instructions    | 12       |

```
      00 01 02 03 04 05 06 07  08 09 0A 0B 0C 0D 0E 0F
      -- -- -- -- -- -- -- --  -- -- -- -- -- -- -- --
0010: 1F 00 05 80 06 80 03 80  1F 01 39 07 80 4A 21 40  ..........9..J!@
0020: 0F 01 22 40 0F 01 1C 08  80 4A 20 40 0F 01 22 40  .."@.....J @.."@
0030: 0F 01 1C 08 80 4A F0 FF  FF 7F 22 40 0F 01 1C 08  .....J...."@....
0040: 80 6F 70 00                                       .op.            
```

## Opcodes

```
  0: 0x0010 [0x1F] MOVE_ENTITY: EventEntity moves to X=10.760*, Z=70.362*, Y=1.999*
  1: 0x0018 [0x1F] MOVE_ENTITY: Update entity position (mode=1)
  2: 0x001A [0x39] SET_ENTITY_DIRECTION(direction=1.1°*)
  3: 0x001D [0x4A] Geebeh (ID: 17776673/0x010F4021) looks at Fickblix (ID: 17776674/0x010F4022)
  4: 0x0026 [0x1C] WAIT(10* ticks)
  5: 0x0029 [0x4A] Paya-Sabya (ID: 17776672/0x010F4020) looks at Fickblix (ID: 17776674/0x010F4022)
  6: 0x0032 [0x1C] WAIT(10* ticks)
  7: 0x0035 [0x4A] LocalPlayer looks at Fickblix (ID: 17776674/0x010F4022)
  8: 0x003E [0x1C] WAIT(10* ticks)
  9: 0x0041 [0x6F] WAIT_FRAME_DELAY: Yield until WaitTime reaches zero
 10: 0x0042 [0x70] WAIT_ENTITY_RENDER_FLAG: Wait while EventEntity->Render.Flags3 bit 2 is set (cancel turn if not)
 11: 0x0043 [0x00] END_REQSTACK()
```
