# Event 5066

## Metadata

| Field           | Value    |
|-----------------|----------|
| Event Index     | 3/3      |
| Offset          | 0x015E   |
| Data Size       | 22 bytes |
| Calculated Size | 22 bytes |
| Instructions    | 9        |

```
      00 01 02 03 04 05 06 07  08 09 0A 0B 0C 0D 0E 0F
      -- -- -- -- -- -- -- --  -- -- -- -- -- -- -- --
0150:                                            20 01                 .
0160: 1E F0 FF FF 7F 1D 00 80  23 03 02 10 01 80 1D 25  ........#......%
0170: 80 23 21 00                                       .#!.            
```

## Opcodes

```
  0: 0x015E [0x20] SET_CLI_EVENT_UC_FLAG: Lock player control
  1: 0x0160 [0x1E] EventEntity looks at LocalPlayer and starts talking
  2: 0x0165 [0x1D] PRINT_EVENT_MESSAGE(message_id=14340*)
    → "Good day! I'm a Merry Map Marker, and I'd be emphatically ecstatic if you'd allow me to mark your magical map!\u007F1\u0000\u0007"
  3: 0x0168 [0x23] WAIT_FOR_DIALOG_INTERACTION
  4: 0x0169 [0x03] Work_Zone[2] = 1856*
  5: 0x016E [0x1D] PRINT_EVENT_MESSAGE(message_id=14339*)
    → "Well met! I'm a Merry Map Marker, and I'd love to make marks all over your merry \u0001\u00053\u0002\u0000\u0000\u0000, but it appears you are missing the markable map I mention.\u007F1\u0000\u0007"
  6: 0x0171 [0x23] WAIT_FOR_DIALOG_INTERACTION
  7: 0x0172 [0x21] END_EVENT
  8: 0x0173 [0x00] END_REQSTACK()
```
