# Event 65535

## Metadata

| Field           | Value    |
|-----------------|----------|
| Event Index     | 15/24    |
| Offset          | 0x00BF   |
| Data Size       | 41 bytes |
| Calculated Size | 41 bytes |
| Instructions    | 4        |

```
      00 01 02 03 04 05 06 07  08 09 0A 0B 0C 0D 0E 0F
      -- -- -- -- -- -- -- --  -- -- -- -- -- -- -- --
00B0:                                               CD                 .
00C0: 07 80 49 13 06 01 49 13  06 01 73 30 30 32 05 80  ..I...I...s002..
00D0: CD 07 80 49 13 06 01 49  13 06 01 73 65 30 32 05  ...I...I...se02.
00E0: 80 1C 08 80 01 BF 00 00                           ........        
```

## Opcodes

```
  0: 0x00BF [0xCD] LOAD_SCHEDULED_TASK_ALT4: Load scheduler "s002" with entities [Romaa Mihgo (ID: 17175369/0x01061349), Romaa Mihgo (ID: 17175369/0x01061349)], work=[72*, 0*]
  1: 0x00D0 [0xCD] LOAD_SCHEDULED_TASK_ALT4: Load scheduler "se02" with entities [Romaa Mihgo (ID: 17175369/0x01061349), Romaa Mihgo (ID: 17175369/0x01061349)], work=[72*, 0*]
  2: 0x00E1 [0x1C] WAIT(250* ticks)
  3: 0x00E4 [0x01] GOTO 0x00BF
```

## Data or dead code:

```
# Dead code (unreachable instructions):
     0x00E7 [0x00] END_REQSTACK()
```