# Event 338

## Metadata

| Field           | Value    |
|-----------------|----------|
| Event Index     | 4/7      |
| Offset          | 0x004F   |
| Data Size       | 43 bytes |
| Calculated Size | 43 bytes |
| Instructions    | 9        |

```
      00 01 02 03 04 05 06 07  08 09 0A 0B 0C 0D 0E 0F
      -- -- -- -- -- -- -- --  -- -- -- -- -- -- -- --
0040:                                               1E                 .
0050: F0 FF FF 7F 6F 70 66 02  80 65 D2 0F 01 65 D2 0F  ....opf..e...e..
0060: 01 74 6C 6B 30 1D 03 80  23 66 02 80 65 D2 0F 01  .tlk0...#f..e...
0070: 65 D2 0F 01 74 6C 6B 31  21 00                    e...tlk1!.      
```

## Opcodes

```
  0: 0x004F [0x1E] EventEntity looks at LocalPlayer and starts talking
  1: 0x0054 [0x6F] WAIT_FRAME_DELAY: Yield until WaitTime reaches zero
  2: 0x0055 [0x70] WAIT_ENTITY_RENDER_FLAG: Wait while EventEntity->Render.Flags3 bit 2 is set (cancel turn if not)
  3: 0x0056 [0x66] LOAD_EXT_SCHEDULER_MAIN: Load scheduler "tlk0" with entities [Olavia (ID: 17814117/0x010FD265), Olavia (ID: 17814117/0x010FD265)], work=19*
  4: 0x0065 [0x1D] PRINT_EVENT_MESSAGE(message_id=8045*)
    → "Curse my luck! I spotted the mammoth tiger-beast my superiors had briefed me on, but lost sight of him in a blizzard.\u0007We have reason to believe he vanished off to the north. Would you be so kind as to investigate for me?\u007F1\u0000\u0007"
  5: 0x0068 [0x23] WAIT_FOR_DIALOG_INTERACTION
  6: 0x0069 [0x66] LOAD_EXT_SCHEDULER_MAIN: Load scheduler "tlk1" with entities [Olavia (ID: 17814117/0x010FD265), Olavia (ID: 17814117/0x010FD265)], work=19*
  7: 0x0078 [0x21] END_EVENT
  8: 0x0079 [0x00] END_REQSTACK()
```
