# Event 65535

## Metadata

| Field           | Value    |
|-----------------|----------|
| Event Index     | 23/34    |
| Offset          | 0x0D45   |
| Data Size       | 44 bytes |
| Calculated Size | 44 bytes |
| Instructions    | 11       |

```
      00 01 02 03 04 05 06 07  08 09 0A 0B 0C 0D 0E 0F
      -- -- -- -- -- -- -- --  -- -- -- -- -- -- -- --
0D40:                24 9B 80  01 80 01 80 25 02 00 10       $......%...
0D50: 01 80 00 5D 0D 03 01 10  9C 80 01 6D 0D 02 00 10  ...].......m....
0D60: 02 80 00 6D 0D 03 01 10  9D 80 01 6D 0D 20 00 21  ...m.......m. .!
0D70: 00                                                .               
```

## Opcodes

```
  0: 0x0D45 [0x24] CREATE_DIALOG(message_id=6702*, default_option=0*, option_flags=0*)
    → "\u0001@m203_609\u0003t\u0003	\u0003O\u0017'\u0002D\u0002i\u0002E\u0003U\u0001[\u0003}\u0003X\u0001H\u0007\u000B\u0001@OK\u0003t\u0003	\u0003O\u0007\u0015P\u0015{\u00025\u0002)\u0003N\u0003
\u0003A\u0001[\u00025\u0002D\u0002H\u0002"\u007F1\u0000\u0007"
  1: 0x0D4C [0x25] WAIT_DIALOG_SELECT()
  2: 0x0D4D [0x02] IF !(Work_Zone[0] == 0*) GOTO 0x0D5D
  3: 0x0D55 [0x03] Work_Zone[1] = 93*
  4: 0x0D5A [0x01] GOTO 0x0D6D

SUBROUTINE_0D5D:
  5: 0x0D5D [0x02] IF !(Work_Zone[0] == 1*) GOTO 0x0D6D
  6: 0x0D65 [0x03] Work_Zone[1] = 94*
  7: 0x0D6A [0x01] GOTO 0x0D6D

SUBROUTINE_0D6D:
  8: 0x0D6D [0x20] SET_CLI_EVENT_UC_FLAG: Unlock player control
  9: 0x0D6F [0x21] END_EVENT
 10: 0x0D70 [0x00] END_REQSTACK()
```
