# Event 543

## Metadata

| Field           | Value    |
|-----------------|----------|
| Event Index     | 201/215  |
| Offset          | 0x7595   |
| Data Size       | 33 bytes |
| Calculated Size | 33 bytes |
| Instructions    | 12       |

```
      00 01 02 03 04 05 06 07  08 09 0A 0B 0C 0D 0E 0F
      -- -- -- -- -- -- -- --  -- -- -- -- -- -- -- --
7590:                1E F0 FF  FF 7F 6F 70 29 08 52 00       .....op).R.
75A0: 0F 01 0A 1D 81 81 23 1D  82 81 23 29 08 52 00 0F  ......#...#).R..
75B0: 01 0B 20 00 21 00                                 .. .!.          
```

## Opcodes

```
  0: 0x7595 [0x1E] EventEntity looks at LocalPlayer and starts talking
  1: 0x759A [0x6F] WAIT_FRAME_DELAY: Yield until WaitTime reaches zero
  2: 0x759B [0x70] WAIT_ENTITY_RENDER_FLAG: Wait while EventEntity->Render.Flags3 bit 2 is set (cancel turn if not)
  3: 0x759C [0x29] REQ_SET_WAIT(priority=0x08, entity_id=Kohlo-Lakolo (ID: 17760338/0x010F0052), tag_num=0x0A)
  4: 0x75A3 [0x1D] PRINT_EVENT_MESSAGE(message_id=12578*)
    → "...Where have you been?\u0007While you were gone, all sorts of crazy stuff happened...\u007F1\u0000\u0007"
  5: 0x75A6 [0x23] WAIT_FOR_DIALOG_INTERACTION
  6: 0x75A7 [0x1D] PRINT_EVENT_MESSAGE(message_id=12579*)
    → "If you can bring us \u0001\u00056\u0002\u0001\u0000\u0000, I'll tell you what's been going on...\u007F1\u0000\u0007"
  7: 0x75AA [0x23] WAIT_FOR_DIALOG_INTERACTION
  8: 0x75AB [0x29] REQ_SET_WAIT(priority=0x08, entity_id=Kohlo-Lakolo (ID: 17760338/0x010F0052), tag_num=0x0B)
  9: 0x75B2 [0x20] SET_CLI_EVENT_UC_FLAG: Unlock player control
 10: 0x75B4 [0x21] END_EVENT
 11: 0x75B5 [0x00] END_REQSTACK()
```
