# Event 65535

## Metadata

| Field           | Value    |
|-----------------|----------|
| Event Index     | 123/215  |
| Offset          | 0x5657   |
| Data Size       | 37 bytes |
| Calculated Size | 37 bytes |
| Instructions    | 9        |

```
      00 01 02 03 04 05 06 07  08 09 0A 0B 0C 0D 0E 0F
      -- -- -- -- -- -- -- --  -- -- -- -- -- -- -- --
5650:                      29  08 52 00 0F 01 08 1D E9         ).R......
5660: 80 23 29 08 52 00 0F 01  09 29 08 52 00 0F 01 01  .#).R....).R....
5670: 1D EA 80 23 29 08 52 00  0F 01 02 00              ...#).R.....    
```

## Opcodes

```
  0: 0x5657 [0x29] REQ_SET_WAIT(priority=0x08, entity_id=Kohlo-Lakolo (ID: 17760338/0x010F0052), tag_num=0x08)
  1: 0x565E [0x1D] PRINT_EVENT_MESSAGE(message_id=3993*)
    → "Nanaa Mihgo! Otherwise known as the Cat Burglar! We're on your tail now!\u007F1\u0000\u0007"
  2: 0x5661 [0x23] WAIT_FOR_DIALOG_INTERACTION
  3: 0x5662 [0x29] REQ_SET_WAIT(priority=0x08, entity_id=Kohlo-Lakolo (ID: 17760338/0x010F0052), tag_num=0x09)
  4: 0x5669 [0x29] REQ_SET_WAIT(priority=0x08, entity_id=Kohlo-Lakolo (ID: 17760338/0x010F0052), tag_num=0x01)
  5: 0x5670 [0x1D] PRINT_EVENT_MESSAGE(message_id=3994*)
    → "We're not letting you out of here until you promise to give up your evil ways for good!\u007F1\u0000\u0007"
  6: 0x5673 [0x23] WAIT_FOR_DIALOG_INTERACTION
  7: 0x5674 [0x29] REQ_SET_WAIT(priority=0x08, entity_id=Kohlo-Lakolo (ID: 17760338/0x010F0052), tag_num=0x02)
  8: 0x567B [0x00] END_REQSTACK()
```
