# Event 65535

## Metadata

| Field           | Value    |
|-----------------|----------|
| Event Index     | 10/11    |
| Offset          | 0x007D   |
| Data Size       | 74 bytes |
| Calculated Size | 74 bytes |
| Instructions    | 16       |

```
      00 01 02 03 04 05 06 07  08 09 0A 0B 0C 0D 0E 0F
      -- -- -- -- -- -- -- --  -- -- -- -- -- -- -- --
0070:                                         3A F8 FF               :..
0080: FF 7F 01 00 03 00 00 0C  80 02 00 00 0D 80 01 B1  ................
0090: 00 07 00 00 0E 80 07 01  00 0E 80 02 01 00 0F 80  ................
00A0: 04 A8 00 03 01 00 0C 80  39 01 00 1C 10 80 01 89  ........9.......
00B0: 00 27 10 F0 FF FF 7F 1E  32 11 80 1F 00 12 80 13  .'......2.......
00C0: 80 14 80 1F 01 6F 00                              .....o.         
```

## Opcodes

```
  0: 0x007D [0x3A] CONVERT_YAW_TO_BYTE(entity=EventEntity, result_destination=ExtData[1]->WorkLocal[1])
  1: 0x0084 [0x03] ExtData[1]->WorkLocal[0] = 0*
  2: 0x0089 [0x02] IF !(ExtData[1]->WorkLocal[0] == 2048*) GOTO 0x00B1
  3: 0x0091 [0x07] ExtData[1]->WorkLocal[0] += 32*
  4: 0x0096 [0x07] ExtData[1]->WorkLocal[1] += 32*
  5: 0x009B [0x02] IF !(ExtData[1]->WorkLocal[1] < 4096*) GOTO 0x00A8
  6: 0x00A3 [0x03] ExtData[1]->WorkLocal[1] = 0*
  7: 0x00A8 [0x39] SET_ENTITY_DIRECTION(direction=0.0°)
  8: 0x00AB [0x1C] WAIT(1* ticks)
  9: 0x00AE [0x01] GOTO 0x0089

SUBROUTINE_00B1:
 10: 0x00B1 [0x27] REQ_SET(priority=0x10, entity_id=LocalPlayer, tag_num=0x1E)
 11: 0x00B8 [0x32] ExtData[1]->MainSpeed = 12* * 0.1
 12: 0x00BB [0x1F] MOVE_ENTITY: EventEntity moves to X=-333.712*, Z=-766.844*, Y=-2.584*
 13: 0x00C3 [0x1F] MOVE_ENTITY: Update entity position (mode=1)
 14: 0x00C5 [0x6F] WAIT_FRAME_DELAY: Yield until WaitTime reaches zero
 15: 0x00C6 [0x00] END_REQSTACK()
```
