# Event 65535

## Metadata

| Field           | Value    |
|-----------------|----------|
| Event Index     | 15/53    |
| Offset          | 0x01D0   |
| Data Size       | 60 bytes |
| Calculated Size | 60 bytes |
| Instructions    | 7        |

```
      00 01 02 03 04 05 06 07  08 09 0A 0B 0C 0D 0E 0F
      -- -- -- -- -- -- -- --  -- -- -- -- -- -- -- --
01D0: A5 01 37 1A 80 1B 80 02  80 1C 80 5B 15 80 F8 FF  ..7........[....
01E0: FF 7F F8 FF FF 7F 6B 65  6E 30 1C 18 80 45 17 80  ......ken0...E..
01F0: 10 70 0E 01 10 70 0E 01  73 65 30 35 02 80 53 F8  .p...p..se05..S.
0200: FF FF 7F F8 FF FF 7F 6B  65 6E 30 00              .......ken0.    
```

## Opcodes

```
  0: 0x01D0 [0xA5] EventEntity->Flags3.BallistaTeam |= 0x08  // Set bit 3 of BallistaTeam
  1: 0x01D2 [0x37] UPDATE_EVENT_POSITION_AND_DIR: x=139.142*, z=134.704*, y=0.000*, direction=140.4°*
  2: 0x01DB [0x5B] LOAD_EXT_SCHEDULER(work_offset=118*, entity1=EventEntity, entity2=EventEntity, action="ken0")
  3: 0x01EA [0x1C] WAIT(30* ticks)
  4: 0x01ED [0x45] LOAD_SCHEDULED_TASK(work_offset1=243*, entity1=Shamonde (ID: 17723408/0x010E7010), entity2=Shamonde (ID: 17723408/0x010E7010), scheduler_id="se05", work_offset2=0*)
  5: 0x01FE [0x53] WAIT_SCHEDULER_TASK(entity1=EventEntity, entity2=EventEntity, action_id="ken0")
  6: 0x020B [0x00] END_REQSTACK()
```
