# Event 65535

## Metadata

| Field           | Value    |
|-----------------|----------|
| Event Index     | 12/53    |
| Offset          | 0x014B   |
| Data Size       | 83 bytes |
| Calculated Size | 83 bytes |
| Instructions    | 7        |

```
      00 01 02 03 04 05 06 07  08 09 0A 0B 0C 0D 0E 0F
      -- -- -- -- -- -- -- --  -- -- -- -- -- -- -- --
0140:                                   9F 16 80 F8 FF             .....
0150: FF 7F F8 FF FF 7F 00 FE  FE FE 02 80 5B 15 80 F8  ............[...
0160: FF FF 7F F8 FF FF 7F 6B  6B 67 31 45 17 80 10 70  .......kkg1E...p
0170: 0E 01 10 70 0E 01 73 65  30 38 02 80 1C 18 80 9F  ...p..se08......
0180: 16 80 F8 FF FF 7F F8 FF  FF 7F 6D 61 69 6E 02 80  ..........main..
0190: 53 F8 FF FF 7F F8 FF FF  7F 6B 6B 67 31 00        S........kkg1.  
```

## Opcodes

```
  0: 0x014B [0x9F] LOAD_SCHEDULED_TASK_ALT: Load scheduler 0xFEFEFE00 with entities [EventEntity, EventEntity], work=[25*, 0*]
  1: 0x015C [0x5B] LOAD_EXT_SCHEDULER(work_offset=118*, entity1=EventEntity, entity2=EventEntity, action="kkg1")
  2: 0x016B [0x45] LOAD_SCHEDULED_TASK(work_offset1=243*, entity1=Shamonde (ID: 17723408/0x010E7010), entity2=Shamonde (ID: 17723408/0x010E7010), scheduler_id="se08", work_offset2=0*)
  3: 0x017C [0x1C] WAIT(30* ticks)
  4: 0x017F [0x9F] LOAD_SCHEDULED_TASK_ALT: Load scheduler "main" with entities [EventEntity, EventEntity], work=[25*, 0*]
  5: 0x0190 [0x53] WAIT_SCHEDULER_TASK(entity1=EventEntity, entity2=EventEntity, action_id="kkg1")
  6: 0x019D [0x00] END_REQSTACK()
```
