# Event 65535

## Metadata

| Field           | Value    |
|-----------------|----------|
| Event Index     | 32/57    |
| Offset          | 0x026D   |
| Data Size       | 64 bytes |
| Calculated Size | 64 bytes |
| Instructions    | 11       |

```
      00 01 02 03 04 05 06 07  08 09 0A 0B 0C 0D 0E 0F
      -- -- -- -- -- -- -- --  -- -- -- -- -- -- -- --
0260:                                         59 03 F8               Y..
0270: FF FF 7F 1B 80 79 00 F8  FF FF 7F 63 31 0A 01 1C  .....y.....c1...
0280: 05 80 79 00 F8 FF FF 7F  66 31 0A 01 1C 05 80 79  ..y.....f1.....y
0290: 00 F8 FF FF 7F 64 31 0A  01 1C 1C 80 59 03 F8 FF  .....d1.....Y...
02A0: FF 7F 1D 80 7B F8 FF FF  7F 1C 1C 80 00           ....{........   
```

## Opcodes

```
  0: 0x026D [0x59] UPDATE_ENTITY_DATA: Set EventEntity turn speed head = 50*
  1: 0x0275 [0x79] EventEntity looks at Shantotto (ID: 17445219/0x010A3163) (Basic look)
  2: 0x027F [0x1C] WAIT(60* ticks)
  3: 0x0282 [0x79] EventEntity looks at Aldo (ID: 17445222/0x010A3166) (Basic look)
  4: 0x028C [0x1C] WAIT(60* ticks)
  5: 0x028F [0x79] EventEntity looks at Shantotto (ID: 17445220/0x010A3164) (Basic look)
  6: 0x0299 [0x1C] WAIT(90* ticks)
  7: 0x029C [0x59] UPDATE_ENTITY_DATA: Set EventEntity turn speed head = 100*
  8: 0x02A4 [0x7B] EventEntity stops talking
  9: 0x02A9 [0x1C] WAIT(90* ticks)
 10: 0x02AC [0x00] END_REQSTACK()
```
