# Event 65535

## Metadata

| Field           | Value    |
|-----------------|----------|
| Event Index     | 31/57    |
| Offset          | 0x0235   |
| Data Size       | 56 bytes |
| Calculated Size | 56 bytes |
| Instructions    | 11       |

```
      00 01 02 03 04 05 06 07  08 09 0A 0B 0C 0D 0E 0F
      -- -- -- -- -- -- -- --  -- -- -- -- -- -- -- --
0230:                4B F8 FF  FF 7F 19 80 6F 76 F8 FF       K......ov..
0240: FF 7F 59 03 F8 FF FF 7F  1A 80 79 00 F8 FF FF 7F  ..Y.......y.....
0250: 63 31 0A 01 1C 0F 80 79  00 F8 FF FF 7F 64 31 0A  c1.....y.....d1.
0260: 01 1C 0F 80 7B F8 FF FF  7F 1C 05 80 00           ....{........   
```

## Opcodes

```
  0: 0x0235 [0x4B] UPDATE_ENTITY_YAW(entity=EventEntity, yaw=2.58°*)
  1: 0x023C [0x6F] WAIT_FRAME_DELAY: Yield until WaitTime reaches zero
  2: 0x023D [0x76] CHECK_ENTITY_RENDER_FLAGS: Wait until EventEntity Render.Flags0 and Render.Flags3 conditions are met
  3: 0x0242 [0x59] UPDATE_ENTITY_DATA: Set EventEntity turn speed head = 200*
  4: 0x024A [0x79] EventEntity looks at Shantotto (ID: 17445219/0x010A3163) (Basic look)
  5: 0x0254 [0x1C] WAIT(120* ticks)
  6: 0x0257 [0x79] EventEntity looks at Shantotto (ID: 17445220/0x010A3164) (Basic look)
  7: 0x0261 [0x1C] WAIT(120* ticks)
  8: 0x0264 [0x7B] EventEntity stops talking
  9: 0x0269 [0x1C] WAIT(60* ticks)
 10: 0x026C [0x00] END_REQSTACK()
```
