# Event 12

## Metadata

| Field           | Value    |
|-----------------|----------|
| Event Index     | 36/40    |
| Offset          | 0x1948   |
| Data Size       | 71 bytes |
| Calculated Size | 71 bytes |
| Instructions    | 15       |

```
      00 01 02 03 04 05 06 07  08 09 0A 0B 0C 0D 0E 0F
      -- -- -- -- -- -- -- --  -- -- -- -- -- -- -- --
1940:                          20 01 42 1C A5 80 43 00           .B...C.
1950: 43 01 45 0E 80 F0 FF FF  7F F0 FF FF 7F 66 64 6F  C.E..........fdo
1960: 31 00 80 1C 2E 80 47 00  FE 80 FF 80 00 81 01 81  1.....G.........
1970: 47 01 1C 20 80 45 0E 80  F0 FF FF 7F F0 FF FF 7F  G.. .E..........
1980: 66 64 69 31 00 80 03 01  10 05 80 20 00 21 00     fdi1....... .!. 
```

## Opcodes

```
  0: 0x1948 [0x20] SET_CLI_EVENT_UC_FLAG: Lock player control
  1: 0x194A [0x42] SET_CLI_EVENT_CANCEL_DATA()
  2: 0x194B [0x1C] WAIT(120* ticks)
  3: 0x194E [0x43] SEND_EVENT_UPDATE: Send pending tag to server (packet 0x005B)
  4: 0x1950 [0x43] SEND_EVENT_UPDATE: Check pending flag (skip if not pending)
  5: 0x1952 [0x45] LOAD_SCHEDULED_TASK: Load scheduler "fdo1" with entities [LocalPlayer, LocalPlayer], work=[200*, 0*]
  6: 0x1963 [0x1C] WAIT(60* ticks)
  7: 0x1966 [0x47] UPDATE_PLAYER_POS(-179.019*, -29.040*, -118.555*, yaw=90.0°*)
  8: 0x1970 [0x47] WAIT_PLAYER_POS_UPDATE
  9: 0x1972 [0x1C] WAIT(20* ticks)
 10: 0x1975 [0x45] LOAD_SCHEDULED_TASK: Load scheduler "fdi1" with entities [LocalPlayer, LocalPlayer], work=[200*, 0*]
 11: 0x1986 [0x03] Work_Zone[1] = 1*
 12: 0x198B [0x20] SET_CLI_EVENT_UC_FLAG: Unlock player control
 13: 0x198D [0x21] END_EVENT
 14: 0x198E [0x00] END_REQSTACK()
```
