# Event 13

## Metadata

| Field           | Value    |
|-----------------|----------|
| Event Index     | 37/40    |
| Offset          | 0x198F   |
| Data Size       | 74 bytes |
| Calculated Size | 74 bytes |
| Instructions    | 16       |

```
      00 01 02 03 04 05 06 07  08 09 0A 0B 0C 0D 0E 0F
      -- -- -- -- -- -- -- --  -- -- -- -- -- -- -- --
1980:                                               20                  
1990: 01 42 1C A5 80 43 00 43  01 45 0E 80 F0 FF FF 7F  .B...C.C.E......
19A0: F0 FF FF 7F 66 64 6F 31  00 80 1C 2E 80 47 00 FE  ....fdo1.....G..
19B0: 80 FF 80 00 81 01 81 47  01 1C 20 80 45 0E 80 F0  .......G.. .E...
19C0: FF FF 7F F0 FF FF 7F 66  64 69 31 00 80 1C D1 80  .......fdi1.....
19D0: 03 01 10 05 80 20 00 21  00                       ..... .!.       
```

## Opcodes

```
  0: 0x198F [0x20] SET_CLI_EVENT_UC_FLAG: Lock player control
  1: 0x1991 [0x42] SET_CLI_EVENT_CANCEL_DATA()
  2: 0x1992 [0x1C] WAIT(120* ticks)
  3: 0x1995 [0x43] SEND_EVENT_UPDATE: Send pending tag to server (packet 0x005B)
  4: 0x1997 [0x43] SEND_EVENT_UPDATE: Check pending flag (skip if not pending)
  5: 0x1999 [0x45] LOAD_SCHEDULED_TASK(work_offset1=200*, entity1=LocalPlayer, entity2=LocalPlayer, scheduler_id="fdo1", work_offset2=0*)
  6: 0x19AA [0x1C] WAIT(60* ticks)
  7: 0x19AD [0x47] UPDATE_PLAYER_POS(-179.019*, -29.040*, -118.555*, yaw=90.0°*)
  8: 0x19B7 [0x47] WAIT_PLAYER_POS_UPDATE
  9: 0x19B9 [0x1C] WAIT(20* ticks)
 10: 0x19BC [0x45] LOAD_SCHEDULED_TASK(work_offset1=200*, entity1=LocalPlayer, entity2=LocalPlayer, scheduler_id="fdi1", work_offset2=0*)
 11: 0x19CD [0x1C] WAIT(40* ticks)
 12: 0x19D0 [0x03] Work_Zone[1] = 1*
 13: 0x19D5 [0x20] SET_CLI_EVENT_UC_FLAG: Unlock player control
 14: 0x19D7 [0x21] END_EVENT
 15: 0x19D8 [0x00] END_REQSTACK()
```
