# Event 14

## Metadata

| Field           | Value    |
|-----------------|----------|
| Event Index     | 38/40    |
| Offset          | 0x19D9   |
| Data Size       | 74 bytes |
| Calculated Size | 74 bytes |
| Instructions    | 16       |

```
      00 01 02 03 04 05 06 07  08 09 0A 0B 0C 0D 0E 0F
      -- -- -- -- -- -- -- --  -- -- -- -- -- -- -- --
19D0:                             20 01 42 1C A5 80 43            .B...C
19E0: 00 43 01 45 0E 80 F0 FF  FF 7F F0 FF FF 7F 66 64  .C.E..........fd
19F0: 6F 31 00 80 1C 2E 80 47  00 FE 80 FF 80 00 81 01  o1.....G........
1A00: 81 47 01 1C 20 80 45 0E  80 F0 FF FF 7F F0 FF FF  .G.. .E.........
1A10: 7F 66 64 69 31 00 80 1C  D1 80 03 01 10 05 80 20  .fdi1.......... 
1A20: 00 21 00                                          .!.             
```

## Opcodes

```
  0: 0x19D9 [0x20] SET_CLI_EVENT_UC_FLAG: Lock player control
  1: 0x19DB [0x42] SET_CLI_EVENT_CANCEL_DATA()
  2: 0x19DC [0x1C] WAIT(120* ticks)
  3: 0x19DF [0x43] SEND_EVENT_UPDATE: Send pending tag to server (packet 0x005B)
  4: 0x19E1 [0x43] SEND_EVENT_UPDATE: Check pending flag (skip if not pending)
  5: 0x19E3 [0x45] LOAD_SCHEDULED_TASK(work_offset1=200*, entity1=LocalPlayer, entity2=LocalPlayer, scheduler_id="fdo1", work_offset2=0*)
  6: 0x19F4 [0x1C] WAIT(60* ticks)
  7: 0x19F7 [0x47] UPDATE_PLAYER_POS(-179.019*, -29.040*, -118.555*, yaw=90.0°*)
  8: 0x1A01 [0x47] WAIT_PLAYER_POS_UPDATE
  9: 0x1A03 [0x1C] WAIT(20* ticks)
 10: 0x1A06 [0x45] LOAD_SCHEDULED_TASK(work_offset1=200*, entity1=LocalPlayer, entity2=LocalPlayer, scheduler_id="fdi1", work_offset2=0*)
 11: 0x1A17 [0x1C] WAIT(40* ticks)
 12: 0x1A1A [0x03] Work_Zone[1] = 1*
 13: 0x1A1F [0x20] SET_CLI_EVENT_UC_FLAG: Unlock player control
 14: 0x1A21 [0x21] END_EVENT
 15: 0x1A22 [0x00] END_REQSTACK()
```
