# Event 16

## Metadata

| Field           | Value    |
|-----------------|----------|
| Event Index     | 40/40    |
| Offset          | 0x1A6D   |
| Data Size       | 74 bytes |
| Calculated Size | 74 bytes |
| Instructions    | 16       |

```
      00 01 02 03 04 05 06 07  08 09 0A 0B 0C 0D 0E 0F
      -- -- -- -- -- -- -- --  -- -- -- -- -- -- -- --
1A60:                                         20 01 42                .B
1A70: 1C A5 80 43 00 43 01 45  0E 80 F0 FF FF 7F F0 FF  ...C.C.E........
1A80: FF 7F 66 64 6F 31 00 80  1C 2E 80 47 00 FE 80 FF  ..fdo1.....G....
1A90: 80 00 81 01 81 47 01 1C  20 80 45 0E 80 F0 FF FF  .....G.. .E.....
1AA0: 7F F0 FF FF 7F 66 64 69  31 00 80 1C D1 80 03 01  .....fdi1.......
1AB0: 10 05 80 20 00 21 00                              ... .!.         
```

## Opcodes

```
  0: 0x1A6D [0x20] SET_CLI_EVENT_UC_FLAG: Lock player control
  1: 0x1A6F [0x42] SET_CLI_EVENT_CANCEL_DATA()
  2: 0x1A70 [0x1C] WAIT(120* ticks)
  3: 0x1A73 [0x43] SEND_EVENT_UPDATE: Send pending tag to server (packet 0x005B)
  4: 0x1A75 [0x43] SEND_EVENT_UPDATE: Check pending flag (skip if not pending)
  5: 0x1A77 [0x45] LOAD_SCHEDULED_TASK: Load scheduler "fdo1" with entities [LocalPlayer, LocalPlayer], work=[200*, 0*]
  6: 0x1A88 [0x1C] WAIT(60* ticks)
  7: 0x1A8B [0x47] UPDATE_PLAYER_POS(-179.019*, -29.040*, -118.555*, yaw=90.0°*)
  8: 0x1A95 [0x47] WAIT_PLAYER_POS_UPDATE
  9: 0x1A97 [0x1C] WAIT(20* ticks)
 10: 0x1A9A [0x45] LOAD_SCHEDULED_TASK: Load scheduler "fdi1" with entities [LocalPlayer, LocalPlayer], work=[200*, 0*]
 11: 0x1AAB [0x1C] WAIT(40* ticks)
 12: 0x1AAE [0x03] Work_Zone[1] = 1*
 13: 0x1AB3 [0x20] SET_CLI_EVENT_UC_FLAG: Unlock player control
 14: 0x1AB5 [0x21] END_EVENT
 15: 0x1AB6 [0x00] END_REQSTACK()
```
