# Event 536

## Metadata

| Field           | Value    |
|-----------------|----------|
| Event Index     | 4/8      |
| Offset          | 0x01F6   |
| Data Size       | 41 bytes |
| Calculated Size | 41 bytes |
| Instructions    | 13       |

```
      00 01 02 03 04 05 06 07  08 09 0A 0B 0C 0D 0E 0F
      -- -- -- -- -- -- -- --  -- -- -- -- -- -- -- --
01F0:                   42 20  01 1E F0 FF FF 7F 6F 70        B ......op
0200: 66 01 80 F8 FF FF 7F F8  FF FF 7F 74 6C 6B 30 1D  f..........tlk0.
0210: 1E 80 23 5E 69 64 6C 30  1C 01 80 20 00 21 00     ..#^idl0... .!. 
```

## Opcodes

```
  0: 0x01F6 [0x42] SET_CLI_EVENT_CANCEL_DATA()
  1: 0x01F7 [0x20] SET_CLI_EVENT_UC_FLAG: Lock player control
  2: 0x01F9 [0x1E] EventEntity looks at LocalPlayer and starts talking
  3: 0x01FE [0x6F] WAIT_FRAME_DELAY: Yield until WaitTime reaches zero
  4: 0x01FF [0x70] WAIT_ENTITY_RENDER_FLAG: Wait while EventEntity->Render.Flags3 bit 2 is set (cancel turn if not)
  5: 0x0200 [0x66] LOAD_EXT_SCHEDULER_MAIN(work_offset=30*, entity1=EventEntity, entity2=EventEntity, action="tlk0")
  6: 0x020F [0x1D] PRINT_EVENT_MESSAGE(message_id=7550*)
    → "My, my, my! What's this? I'm flattered, but this is a business, you know.\u007F1\u0000\u0007"
  7: 0x0212 [0x23] WAIT_FOR_DIALOG_INTERACTION
  8: 0x0213 [0x5E] EventEntity goes idle (kills current action) (animation: "idl0")
  9: 0x0218 [0x1C] WAIT(30* ticks)
 10: 0x021B [0x20] SET_CLI_EVENT_UC_FLAG: Unlock player control
 11: 0x021D [0x21] END_EVENT
 12: 0x021E [0x00] END_REQSTACK()
```
