# Event 65535

## Metadata

| Field           | Value    |
|-----------------|----------|
| Event Index     | 16/21    |
| Offset          | 0x364A   |
| Data Size       | 42 bytes |
| Calculated Size | 42 bytes |
| Instructions    | 6        |

```
      00 01 02 03 04 05 06 07  08 09 0A 0B 0C 0D 0E 0F
      -- -- -- -- -- -- -- --  -- -- -- -- -- -- -- --
3640:                                03 22 00 07 7F 1A            ."....
3650: B0 35 66 23 00 F8 FF FF  7F F8 FF FF 7F 74 6C 6B  .5f#.........tlk
3660: 30 1C 06 80 66 23 00 F8  FF FF 7F F8 FF FF 7F 74  0...f#.........t
3670: 6C 6B 31 00                                       lk1.            
```

## Opcodes

```
  0: 0x364A [0x03] ExtData[1]->WorkLocal[34] = Entity->Race
  1: 0x364F [0x1A] CALL_SUBROUTINE(address=0x35B0)
  2: 0x3652 [0x66] LOAD_EXT_SCHEDULER_MAIN: Load scheduler "tlk0" with entities [EventEntity, EventEntity], work=ExtData[1]->WorkLocal[35]
  3: 0x3661 [0x1C] WAIT(60* ticks)
  4: 0x3664 [0x66] LOAD_EXT_SCHEDULER_MAIN: Load scheduler "tlk1" with entities [EventEntity, EventEntity], work=ExtData[1]->WorkLocal[35]
  5: 0x3673 [0x00] END_REQSTACK()
```
