# Event 8

## Metadata

| Field           | Value    |
|-----------------|----------|
| Event Index     | 4/21     |
| Offset          | 0x0034   |
| Data Size       | 82 bytes |
| Calculated Size | 82 bytes |
| Instructions    | 16       |

```
      00 01 02 03 04 05 06 07  08 09 0A 0B 0C 0D 0E 0F
      -- -- -- -- -- -- -- --  -- -- -- -- -- -- -- --
0030:             20 01 24 03  80 04 80 01 80 25 02 00       .$......%..
0040: 10 01 80 00 77 00 42 03  01 10 04 80 62 04 80 F0  ....w.B.....b...
0050: FF FF 7F F0 FF FF 7F 6D  61 69 6E 01 80 1C 05 80  .......main.....
0060: 45 00 80 F0 FF FF 7F F0  FF FF 7F 66 64 6F 31 01  E..........fdo1.
0070: 80 1C 06 80 01 82 00 02  00 10 04 80 00 82 00 01  ................
0080: 82 00 20 00 21 00                                 .. .!.          
```

## Opcodes

```
  0: 0x0034 [0x20] SET_CLI_EVENT_UC_FLAG: Lock player control
  1: 0x0036 [0x24] CREATE_DIALOG(message_id=7600*, default_option=1*, option_flags=0*)
    → "Step into the circle?\u0007\u000BYes.\u0007No.\u007F1\u0000\u0007"
  2: 0x003D [0x25] WAIT_DIALOG_SELECT()
  3: 0x003E [0x02] IF !(Work_Zone[0] == 0*) GOTO 0x0077
  4: 0x0046 [0x42] SET_CLI_EVENT_CANCEL_DATA()
  5: 0x0047 [0x03] Work_Zone[1] = 1*
  6: 0x004C [0x62] LOAD_EVENT_SCHEDULER (arg=5012): Load scheduler "main" with entities [LocalPlayer, LocalPlayer], work=[1*, 0*]
  7: 0x005D [0x1C] WAIT(140* ticks)
  8: 0x0060 [0x45] LOAD_SCHEDULED_TASK(work_offset1=200*, entity1=LocalPlayer, entity2=LocalPlayer, scheduler_id="fdo1", work_offset2=0*)
  9: 0x0071 [0x1C] WAIT(60* ticks)
 10: 0x0074 [0x01] GOTO 0x0082

SUBROUTINE_0077:
 11: 0x0077 [0x02] IF !(Work_Zone[0] == 1*) GOTO 0x0082
 12: 0x007F [0x01] GOTO 0x0082

SUBROUTINE_0082:
 13: 0x0082 [0x20] SET_CLI_EVENT_UC_FLAG: Unlock player control
 14: 0x0084 [0x21] END_EVENT
 15: 0x0085 [0x00] END_REQSTACK()
```
