# Event 9

## Metadata

| Field           | Value    |
|-----------------|----------|
| Event Index     | 5/21     |
| Offset          | 0x0086   |
| Data Size       | 82 bytes |
| Calculated Size | 82 bytes |
| Instructions    | 16       |

```
      00 01 02 03 04 05 06 07  08 09 0A 0B 0C 0D 0E 0F
      -- -- -- -- -- -- -- --  -- -- -- -- -- -- -- --
0080:                   20 01  24 03 80 04 80 01 80 25         .$......%
0090: 02 00 10 01 80 00 C9 00  42 03 01 10 04 80 62 04  ........B.....b.
00A0: 80 F0 FF FF 7F F0 FF FF  7F 6D 61 69 6E 01 80 1C  .........main...
00B0: 05 80 45 00 80 F0 FF FF  7F F0 FF FF 7F 66 64 6F  ..E..........fdo
00C0: 31 01 80 1C 06 80 01 D4  00 02 00 10 04 80 00 D4  1...............
00D0: 00 01 D4 00 20 00 21 00                           .... .!.        
```

## Opcodes

```
  0: 0x0086 [0x20] SET_CLI_EVENT_UC_FLAG: Lock player control
  1: 0x0088 [0x24] CREATE_DIALOG(message_id=7600*, default_option=1*, option_flags=0*)
    → "Step into the circle?\u0007\u000BYes.\u0007No.\u007F1\u0000\u0007"
  2: 0x008F [0x25] WAIT_DIALOG_SELECT()
  3: 0x0090 [0x02] IF !(Work_Zone[0] == 0*) GOTO 0x00C9
  4: 0x0098 [0x42] SET_CLI_EVENT_CANCEL_DATA()
  5: 0x0099 [0x03] Work_Zone[1] = 1*
  6: 0x009E [0x62] LOAD_EVENT_SCHEDULER: Load scheduler "main" with entities [LocalPlayer, LocalPlayer], work=[1*, 0*]
  7: 0x00AF [0x1C] WAIT(140* ticks)
  8: 0x00B2 [0x45] LOAD_SCHEDULED_TASK: Load scheduler "fdo1" with entities [LocalPlayer, LocalPlayer], work=[200*, 0*]
  9: 0x00C3 [0x1C] WAIT(60* ticks)
 10: 0x00C6 [0x01] GOTO 0x00D4
 11: 0x00C9 [0x02] IF !(Work_Zone[0] == 1*) GOTO 0x00D4
 12: 0x00D1 [0x01] GOTO 0x00D4

SUBROUTINE_00D4:
 13: 0x00D4 [0x20] SET_CLI_EVENT_UC_FLAG: Unlock player control
 14: 0x00D6 [0x21] END_EVENT
 15: 0x00D7 [0x00] END_REQSTACK()
```
