# Event 65535

## Metadata

| Field           | Value    |
|-----------------|----------|
| Event Index     | 15/18    |
| Offset          | 0x00F3   |
| Data Size       | 51 bytes |
| Calculated Size | 51 bytes |
| Instructions    | 7        |

```
      00 01 02 03 04 05 06 07  08 09 0A 0B 0C 0D 0E 0F
      -- -- -- -- -- -- -- --  -- -- -- -- -- -- -- --
00F0:          5B 0B 80 F8 FF  FF 7F F8 FF FF 7F 74 6C     [..........tl
0100: 62 30 1D 16 80 23 5B 0B  80 F8 FF FF 7F F8 FF FF  b0...#[.........
0110: 7F 74 6C 62 31 53 F8 FF  FF 7F F8 FF FF 7F 74 6C  .tlb1S........tl
0120: 62 31 1C 17 80 00                                 b1....          
```

## Opcodes

```
  0: 0x00F3 [0x5B] LOAD_EXT_SCHEDULER: Load scheduler "tlb0" with entities [EventEntity, EventEntity], work=96*
  1: 0x0102 [0x1D] PRINT_EVENT_MESSAGE(message_id=11422*)
    → "Well, I don't expect things will be getting any easier around here for a while yet, but you take care, all the same.\u007F1\u0000\u0007"
  2: 0x0105 [0x23] WAIT_FOR_DIALOG_INTERACTION
  3: 0x0106 [0x5B] LOAD_EXT_SCHEDULER: Load scheduler "tlb1" with entities [EventEntity, EventEntity], work=96*
  4: 0x0115 [0x53] WAIT_SCHEDULER_TASK: Wait for scheduler "tlb1" with entities [EventEntity, EventEntity]
  5: 0x0122 [0x1C] WAIT(60* ticks)
  6: 0x0125 [0x00] END_REQSTACK()
```
