# Event 236

## Metadata

| Field           | Value    |
|-----------------|----------|
| Event Index     | 4/11     |
| Offset          | 0x3AC5   |
| Data Size       | 43 bytes |
| Calculated Size | 43 bytes |
| Instructions    | 11       |

```
      00 01 02 03 04 05 06 07  08 09 0A 0B 0C 0D 0E 0F
      -- -- -- -- -- -- -- --  -- -- -- -- -- -- -- --
3AC0:                42 4A F0  FF FF 7F FF E1 05 01 1C       BJ.........
3AD0: 18 80 4A FF E1 05 01 F0  FF FF 7F 6F 76 FF E1 05  ..J........ov...
3AE0: 01 03 02 10 AF 81 2B FF  E1 05 01 B0 81 23 21 00  ......+......#!.
```

## Opcodes

```
  0: 0x3AC5 [0x42] SET_CLI_EVENT_CANCEL_DATA()
  1: 0x3AC6 [0x4A] LocalPlayer looks at Dhea Prandoleh (ID: 17162751/0x0105E1FF)
  2: 0x3ACF [0x1C] WAIT(15* ticks)
  3: 0x3AD2 [0x4A] Dhea Prandoleh (ID: 17162751/0x0105E1FF) looks at LocalPlayer
  4: 0x3ADB [0x6F] WAIT_FRAME_DELAY: Yield until WaitTime reaches zero
  5: 0x3ADC [0x76] CHECK_ENTITY_RENDER_FLAGS: Wait until Dhea Prandoleh (ID: 17162751/0x0105E1FF) Render.Flags0 and Render.Flags3 conditions are met
  6: 0x3AE1 [0x03] Work_Zone[2] = 786*
  7: 0x3AE6 [0x2B] Dhea Prandoleh (ID: 17162751/0x0105E1FF) [13945*]:
    → "There you are, \u0008.\u0007If you're looking for your \u0001\u0005#\u0002\u0000\u0000\u0000, I've got it right here.\u007F1\u0000\u0007"
  8: 0x3AED [0x23] WAIT_FOR_DIALOG_INTERACTION
  9: 0x3AEE [0x21] END_EVENT
 10: 0x3AEF [0x00] END_REQSTACK()
```
