# Event 1540

## Metadata

| Field           | Value    |
|-----------------|----------|
| Event Index     | 27/69    |
| Offset          | 0x0337   |
| Data Size       | 47 bytes |
| Calculated Size | 47 bytes |
| Instructions    | 11       |

```
      00 01 02 03 04 05 06 07  08 09 0A 0B 0C 0D 0E 0F
      -- -- -- -- -- -- -- --  -- -- -- -- -- -- -- --
0330:                      1E  F0 FF FF 7F 6F 70 66 00         .....opf.
0340: 80 F8 FF FF 7F F8 FF FF  7F 74 6C 62 30 1D 2B 80  .........tlb0.+.
0350: 23 1D 2C 80 23 66 00 80  F8 FF FF 7F F8 FF FF 7F  #.,.#f..........
0360: 74 6C 62 31 21 00                                 tlb1!.          
```

## Opcodes

```
  0: 0x0337 [0x1E] EventEntity looks at LocalPlayer and starts talking
  1: 0x033C [0x6F] WAIT_FRAME_DELAY: Yield until WaitTime reaches zero
  2: 0x033D [0x70] WAIT_ENTITY_RENDER_FLAG: Wait while EventEntity->Render.Flags3 bit 2 is set (cancel turn if not)
  3: 0x033E [0x66] LOAD_EXT_SCHEDULER_MAIN: Load scheduler "tlb0" with entities [EventEntity, EventEntity], work=68*
  4: 0x034D [0x1D] PRINT_EVENT_MESSAGE(message_id=9170*)
    → "The princess has always been a connoisseurrr of fine vegetables. Surely fresh tomatoes will cheer her up.\u007F1\u0000\u0007"
  5: 0x0350 [0x23] WAIT_FOR_DIALOG_INTERACTION
  6: 0x0351 [0x1D] PRINT_EVENT_MESSAGE(message_id=9171*)
    → "But wasn't that Fremilla's job...?\u007F1\u0000\u0007"
  7: 0x0354 [0x23] WAIT_FOR_DIALOG_INTERACTION
  8: 0x0355 [0x66] LOAD_EXT_SCHEDULER_MAIN: Load scheduler "tlb1" with entities [EventEntity, EventEntity], work=68*
  9: 0x0364 [0x21] END_EVENT
 10: 0x0365 [0x00] END_REQSTACK()
```
