# Event 1541

## Metadata

| Field           | Value    |
|-----------------|----------|
| Event Index     | 28/69    |
| Offset          | 0x0366   |
| Data Size       | 47 bytes |
| Calculated Size | 47 bytes |
| Instructions    | 11       |

```
      00 01 02 03 04 05 06 07  08 09 0A 0B 0C 0D 0E 0F
      -- -- -- -- -- -- -- --  -- -- -- -- -- -- -- --
0360:                   1E F0  FF FF 7F 6F 70 66 00 80        .....opf..
0370: F8 FF FF 7F F8 FF FF 7F  74 6C 62 30 1D 2D 80 23  ........tlb0.-.#
0380: 1D 2E 80 23 66 00 80 F8  FF FF 7F F8 FF FF 7F 74  ...#f..........t
0390: 6C 62 31 21 00                                    lb1!.           
```

## Opcodes

```
  0: 0x0366 [0x1E] EventEntity looks at LocalPlayer and starts talking
  1: 0x036B [0x6F] WAIT_FRAME_DELAY: Yield until WaitTime reaches zero
  2: 0x036C [0x70] WAIT_ENTITY_RENDER_FLAG: Wait while EventEntity->Render.Flags3 bit 2 is set (cancel turn if not)
  3: 0x036D [0x66] LOAD_EXT_SCHEDULER_MAIN(work_offset=68*, entity1=EventEntity, entity2=EventEntity, action="tlb0")
  4: 0x037C [0x1D] PRINT_EVENT_MESSAGE(message_id=9275*)
    → "The Twelve Orders have tasked you with surrrveying Rala Waterways?\u007F1\u0000\u0007"
  5: 0x037F [0x23] WAIT_FOR_DIALOG_INTERACTION
  6: 0x0380 [0x1D] PRINT_EVENT_MESSAGE(message_id=9276*)
    → "I would advise you to bring prrrotection. The recent landshivers may have loosened a few stones in the ceilings.\u007F1\u0000\u0007"
  7: 0x0383 [0x23] WAIT_FOR_DIALOG_INTERACTION
  8: 0x0384 [0x66] LOAD_EXT_SCHEDULER_MAIN(work_offset=68*, entity1=EventEntity, entity2=EventEntity, action="tlb1")
  9: 0x0393 [0x21] END_EVENT
 10: 0x0394 [0x00] END_REQSTACK()
```
