# Event 1542

## Metadata

| Field           | Value    |
|-----------------|----------|
| Event Index     | 29/69    |
| Offset          | 0x0395   |
| Data Size       | 47 bytes |
| Calculated Size | 47 bytes |
| Instructions    | 11       |

```
      00 01 02 03 04 05 06 07  08 09 0A 0B 0C 0D 0E 0F
      -- -- -- -- -- -- -- --  -- -- -- -- -- -- -- --
0390:                1E F0 FF  FF 7F 6F 70 66 00 80 F8       .....opf...
03A0: FF FF 7F F8 FF FF 7F 74  6C 62 30 1D 2F 80 23 1D  .......tlb0./.#.
03B0: 30 80 23 66 00 80 F8 FF  FF 7F F8 FF FF 7F 74 6C  0.#f..........tl
03C0: 62 31 21 00                                       b1!.            
```

## Opcodes

```
  0: 0x0395 [0x1E] EventEntity looks at LocalPlayer and starts talking
  1: 0x039A [0x6F] WAIT_FRAME_DELAY: Yield until WaitTime reaches zero
  2: 0x039B [0x70] WAIT_ENTITY_RENDER_FLAG: Wait while EventEntity->Render.Flags3 bit 2 is set (cancel turn if not)
  3: 0x039C [0x66] LOAD_EXT_SCHEDULER_MAIN(work_offset=68*, entity1=EventEntity, entity2=EventEntity, action="tlb0")
  4: 0x03AB [0x1D] PRINT_EVENT_MESSAGE(message_id=9324*)
    → "Arciela has never called such a meeting of the Twelve Orders with such urrrgency.\u007F1\u0000\u0007"
  5: 0x03AE [0x23] WAIT_FOR_DIALOG_INTERACTION
  6: 0x03AF [0x1D] PRINT_EVENT_MESSAGE(message_id=9325*)
    → "She has informed us that you are to be present. I'll purrrmit you entry once the heads have assembled.\u007F1\u0000\u0007"
  7: 0x03B2 [0x23] WAIT_FOR_DIALOG_INTERACTION
  8: 0x03B3 [0x66] LOAD_EXT_SCHEDULER_MAIN(work_offset=68*, entity1=EventEntity, entity2=EventEntity, action="tlb1")
  9: 0x03C2 [0x21] END_EVENT
 10: 0x03C3 [0x00] END_REQSTACK()
```
