# Event 1543

## Metadata

| Field           | Value    |
|-----------------|----------|
| Event Index     | 30/69    |
| Offset          | 0x03C4   |
| Data Size       | 47 bytes |
| Calculated Size | 47 bytes |
| Instructions    | 11       |

```
      00 01 02 03 04 05 06 07  08 09 0A 0B 0C 0D 0E 0F
      -- -- -- -- -- -- -- --  -- -- -- -- -- -- -- --
03C0:             1E F0 FF FF  7F 6F 70 66 00 80 F8 FF      .....opf....
03D0: FF 7F F8 FF FF 7F 74 6C  62 30 1D 31 80 23 1D 32  ......tlb0.1.#.2
03E0: 80 23 66 00 80 F8 FF FF  7F F8 FF FF 7F 74 6C 62  .#f..........tlb
03F0: 31 21 00                                          1!.             
```

## Opcodes

```
  0: 0x03C4 [0x1E] EventEntity looks at LocalPlayer and starts talking
  1: 0x03C9 [0x6F] WAIT_FRAME_DELAY: Yield until WaitTime reaches zero
  2: 0x03CA [0x70] WAIT_ENTITY_RENDER_FLAG: Wait while EventEntity->Render.Flags3 bit 2 is set (cancel turn if not)
  3: 0x03CB [0x66] LOAD_EXT_SCHEDULER_MAIN: Load scheduler "tlb0" with entities [EventEntity, EventEntity], work=68*
  4: 0x03DA [0x1D] PRINT_EVENT_MESSAGE(message_id=9552*)
    → "What!? Frrremilla!?\u0007I'm at a loss for words!\u007F1\u0000\u0007"
  5: 0x03DD [0x23] WAIT_FOR_DIALOG_INTERACTION
  6: 0x03DE [0x1D] PRINT_EVENT_MESSAGE(message_id=9553*)
    → "If only I could do something to help besides stand guarrrd over the castle.... Either way, there is sadly nothing you can do here at the moment.\u007F1\u0000\u0007"
  7: 0x03E1 [0x23] WAIT_FOR_DIALOG_INTERACTION
  8: 0x03E2 [0x66] LOAD_EXT_SCHEDULER_MAIN: Load scheduler "tlb1" with entities [EventEntity, EventEntity], work=68*
  9: 0x03F1 [0x21] END_EVENT
 10: 0x03F2 [0x00] END_REQSTACK()
```
