# Event 1544

## Metadata

| Field           | Value    |
|-----------------|----------|
| Event Index     | 33/69    |
| Offset          | 0x0470   |
| Data Size       | 45 bytes |
| Calculated Size | 45 bytes |
| Instructions    | 11       |

```
      00 01 02 03 04 05 06 07  08 09 0A 0B 0C 0D 0E 0F
      -- -- -- -- -- -- -- --  -- -- -- -- -- -- -- --
0470: 42 1E F0 FF FF 7F 6F 70  66 00 80 F8 FF FF 7F F8  B.....opf.......
0480: FF FF 7F 74 6C 62 30 1D  3B 80 23 66 00 80 F8 FF  ...tlb0.;.#f....
0490: FF 7F F8 FF FF 7F 74 6C  62 31 2E 21 00           ......tlb1.!.   
```

## Opcodes

```
  0: 0x0470 [0x42] SET_CLI_EVENT_CANCEL_DATA()
  1: 0x0471 [0x1E] EventEntity looks at LocalPlayer and starts talking
  2: 0x0476 [0x6F] WAIT_FRAME_DELAY: Yield until WaitTime reaches zero
  3: 0x0477 [0x70] WAIT_ENTITY_RENDER_FLAG: Wait while EventEntity->Render.Flags3 bit 2 is set (cancel turn if not)
  4: 0x0478 [0x66] LOAD_EXT_SCHEDULER_MAIN: Load scheduler "tlb0" with entities [EventEntity, EventEntity], work=68*
  5: 0x0487 [0x1D] PRINT_EVENT_MESSAGE(message_id=9584*)
    → "Yes, this \u0001\u0005#\u0002\u0000\u0000\u0000 does look to be the keepsake they rrrequested.\u007F1\u0000\u0007"
  6: 0x048A [0x23] WAIT_FOR_DIALOG_INTERACTION
  7: 0x048B [0x66] LOAD_EXT_SCHEDULER_MAIN: Load scheduler "tlb1" with entities [EventEntity, EventEntity], work=68*
  8: 0x049A [0x2E] SET_CLI_EVENT_CANCEL_FLAGS()
  9: 0x049B [0x21] END_EVENT
 10: 0x049C [0x00] END_REQSTACK()
```
