# Event 1558

## Metadata

| Field           | Value    |
|-----------------|----------|
| Event Index     | 43/69    |
| Offset          | 0x0525   |
| Data Size       | 27 bytes |
| Calculated Size | 27 bytes |
| Instructions    | 13       |

```
      00 01 02 03 04 05 06 07  08 09 0A 0B 0C 0D 0E 0F
      -- -- -- -- -- -- -- --  -- -- -- -- -- -- -- --
0520:                42 1E F0  FF FF 7F 6F 70 03 03 10       B.....op...
0530: 46 80 1D 43 80 23 1D 47  80 23 1D 45 80 23 21 00  F..C.#.G.#.E.#!.
```

## Opcodes

```
  0: 0x0525 [0x42] SET_CLI_EVENT_CANCEL_DATA()
  1: 0x0526 [0x1E] EventEntity looks at LocalPlayer and starts talking
  2: 0x052B [0x6F] WAIT_FRAME_DELAY: Yield until WaitTime reaches zero
  3: 0x052C [0x70] WAIT_ENTITY_RENDER_FLAG: Wait while EventEntity->Render.Flags3 bit 2 is set (cancel turn if not)
  4: 0x052D [0x03] Work_Zone[3] = 28063*
  5: 0x0532 [0x1D] PRINT_EVENT_MESSAGE(message_id=9949*)
    → "Well met, \u0008.\u0007Forrrgive me if I'm butting in, but did you happen to lose \u0001\u0001\u0001 \u0001\u0005$\u0002\u0001\u0000\u0000?\u007F1\u0000\u0007"
  6: 0x0535 [0x23] WAIT_FOR_DIALOG_INTERACTION
  7: 0x0536 [0x1D] PRINT_EVENT_MESSAGE(message_id=9952*)
    → "A particularly vigilant citizen returrrned it to the castle, where I decided to hold it for safekeeping.\u007F1\u0000\u0007"
  8: 0x0539 [0x23] WAIT_FOR_DIALOG_INTERACTION
  9: 0x053A [0x1D] PRINT_EVENT_MESSAGE(message_id=9951*)
    → "Please ensurrre that you do not lose it again. I would hate to picture the look on the princess's face were you to do so.\u007F1\u0000\u0007"
 10: 0x053D [0x23] WAIT_FOR_DIALOG_INTERACTION
 11: 0x053E [0x21] END_EVENT
 12: 0x053F [0x00] END_REQSTACK()
```
