# Event 1559

## Metadata

| Field           | Value    |
|-----------------|----------|
| Event Index     | 44/69    |
| Offset          | 0x0540   |
| Data Size       | 22 bytes |
| Calculated Size | 22 bytes |
| Instructions    | 12       |

```
      00 01 02 03 04 05 06 07  08 09 0A 0B 0C 0D 0E 0F
      -- -- -- -- -- -- -- --  -- -- -- -- -- -- -- --
0540: 42 1E F0 FF FF 7F 6F 70  1D 43 80 23 1D 47 80 23  B.....op.C.#.G.#
0550: 1D 45 80 23 21 00                                 .E.#!.          
```

## Opcodes

```
  0: 0x0540 [0x42] SET_CLI_EVENT_CANCEL_DATA()
  1: 0x0541 [0x1E] EventEntity looks at LocalPlayer and starts talking
  2: 0x0546 [0x6F] WAIT_FRAME_DELAY: Yield until WaitTime reaches zero
  3: 0x0547 [0x70] WAIT_ENTITY_RENDER_FLAG: Wait while EventEntity->Render.Flags3 bit 2 is set (cancel turn if not)
  4: 0x0548 [0x1D] PRINT_EVENT_MESSAGE(message_id=9949*)
    → "Well met, \u0008.\u0007Forrrgive me if I'm butting in, but did you happen to lose \u0001\u0001\u0001 \u0001\u0005$\u0002\u0001\u0000\u0000?\u007F1\u0000\u0007"
  5: 0x054B [0x23] WAIT_FOR_DIALOG_INTERACTION
  6: 0x054C [0x1D] PRINT_EVENT_MESSAGE(message_id=9952*)
    → "A particularly vigilant citizen returrrned it to the castle, where I decided to hold it for safekeeping.\u007F1\u0000\u0007"
  7: 0x054F [0x23] WAIT_FOR_DIALOG_INTERACTION
  8: 0x0550 [0x1D] PRINT_EVENT_MESSAGE(message_id=9951*)
    → "Please ensurrre that you do not lose it again. I would hate to picture the look on the princess's face were you to do so.\u007F1\u0000\u0007"
  9: 0x0553 [0x23] WAIT_FOR_DIALOG_INTERACTION
 10: 0x0554 [0x21] END_EVENT
 11: 0x0555 [0x00] END_REQSTACK()
```
