# Event 49

## Metadata

| Field           | Value    |
|-----------------|----------|
| Event Index     | 12/69    |
| Offset          | 0x010B   |
| Data Size       | 48 bytes |
| Calculated Size | 48 bytes |
| Instructions    | 12       |

```
      00 01 02 03 04 05 06 07  08 09 0A 0B 0C 0D 0E 0F
      -- -- -- -- -- -- -- --  -- -- -- -- -- -- -- --
0100:                                   42 1E F0 FF FF             B....
0110: 7F 6F 70 66 00 80 F8 FF  FF 7F F8 FF FF 7F 74 6C  .opf..........tl
0120: 62 30 1D 17 80 23 1D 18  80 23 66 00 80 F8 FF FF  b0...#...#f.....
0130: 7F F8 FF FF 7F 74 6C 62  31 21 00                 .....tlb1!.     
```

## Opcodes

```
  0: 0x010B [0x42] SET_CLI_EVENT_CANCEL_DATA()
  1: 0x010C [0x1E] EventEntity looks at LocalPlayer and starts talking
  2: 0x0111 [0x6F] WAIT_FRAME_DELAY: Yield until WaitTime reaches zero
  3: 0x0112 [0x70] WAIT_ENTITY_RENDER_FLAG: Wait while EventEntity->Render.Flags3 bit 2 is set (cancel turn if not)
  4: 0x0113 [0x66] LOAD_EXT_SCHEDULER_MAIN: Load scheduler "tlb0" with entities [EventEntity, EventEntity], work=68*
  5: 0x0122 [0x1D] PRINT_EVENT_MESSAGE(message_id=8127*)
    → "The master is far too preoccupied to see an outsiderrr like...\u0007What's this? The librrrary? Maybe I can be of assistance.\u007F1\u0000\u0007"
  6: 0x0125 [0x23] WAIT_FOR_DIALOG_INTERACTION
  7: 0x0126 [0x1D] PRINT_EVENT_MESSAGE(message_id=8128*)
    → "Those slobs need to update their rrrecords better. So much of this is out of date!\u007F6\u0001\u0007There. Now everything is as it should be.\u007F1\u0000\u0007"
  8: 0x0129 [0x23] WAIT_FOR_DIALOG_INTERACTION
  9: 0x012A [0x66] LOAD_EXT_SCHEDULER_MAIN: Load scheduler "tlb1" with entities [EventEntity, EventEntity], work=68*
 10: 0x0139 [0x21] END_EVENT
 11: 0x013A [0x00] END_REQSTACK()
```
