# Event 5231

## Metadata

| Field           | Value    |
|-----------------|----------|
| Event Index     | 67/69    |
| Offset          | 0x0A39   |
| Data Size       | 26 bytes |
| Calculated Size | 26 bytes |
| Instructions    | 12       |

```
      00 01 02 03 04 05 06 07  08 09 0A 0B 0C 0D 0E 0F
      -- -- -- -- -- -- -- --  -- -- -- -- -- -- -- --
0A30:                             1E F0 FF FF 7F 6F 70           .....op
0A40: 03 02 10 8E 80 1D 8F 80  23 1D 90 80 23 1D 91 80  ........#...#...
0A50: 23 21 00                                          #!.             
```

## Opcodes

```
  0: 0x0A39 [0x1E] EventEntity looks at LocalPlayer and starts talking
  1: 0x0A3E [0x6F] WAIT_FRAME_DELAY: Yield until WaitTime reaches zero
  2: 0x0A3F [0x70] WAIT_ENTITY_RENDER_FLAG: Wait while EventEntity->Render.Flags3 bit 2 is set (cancel turn if not)
  3: 0x0A40 [0x03] Work_Zone[2] = 289*
  4: 0x0A45 [0x1D] PRINT_EVENT_MESSAGE(message_id=12188*)
    → "So I hear you'rrre going to \u0001\u00058\u0002\u0000\u0000\u0000.\u007F1\u0000\u0007"
  5: 0x0A48 [0x23] WAIT_FOR_DIALOG_INTERACTION
  6: 0x0A49 [0x1D] PRINT_EVENT_MESSAGE(message_id=12189*)
    → "Be careful out there, okay?\u007F1\u0000\u0007"
  7: 0x0A4C [0x23] WAIT_FOR_DIALOG_INTERACTION
  8: 0x0A4D [0x1D] PRINT_EVENT_MESSAGE(message_id=12190*)
    → "Hm? \u0001\u00058\u0002\u0000\u0000\u0000? Where's that?\u007F1\u0000\u0007"
  9: 0x0A50 [0x23] WAIT_FOR_DIALOG_INTERACTION
 10: 0x0A51 [0x21] END_EVENT
 11: 0x0A52 [0x00] END_REQSTACK()
```
