# Event 1515

## Metadata

| Field           | Value    |
|-----------------|----------|
| Event Index     | 3/5      |
| Offset          | 0x0010   |
| Data Size       | 46 bytes |
| Calculated Size | 46 bytes |
| Instructions    | 17       |

```
      00 01 02 03 04 05 06 07  08 09 0A 0B 0C 0D 0E 0F
      -- -- -- -- -- -- -- --  -- -- -- -- -- -- -- --
0010: 03 02 00 03 10 03 07 00  04 10 1E F0 FF FF 7F 1D  ................
0020: 02 80 23 02 02 10 03 80  01 35 00 1D 04 80 23 1D  ..#......5....#.
0030: 05 80 23 21 00 1D 06 80  23 1A 73 00 21 00        ..#!....#.s.!.  
```

## Opcodes

```
  0: 0x0010 [0x03] ExtData[1]->WorkLocal[2] = Work_Zone[3]
  1: 0x0015 [0x03] ExtData[1]->WorkLocal[7] = Work_Zone[4]
  2: 0x001A [0x1E] EventEntity looks at LocalPlayer and starts talking
  3: 0x001F [0x1D] PRINT_EVENT_MESSAGE(message_id=8401*)
    → "Well met, friend. I had received word that you would be coming.\u007F1\u0000\u0007"
  4: 0x0022 [0x23] WAIT_FOR_DIALOG_INTERACTION
  5: 0x0023 [0x02] IF !(Work_Zone[2] == 0*) GOTO 0x0035
  6: 0x002B [0x1D] PRINT_EVENT_MESSAGE(message_id=8402*)
    → "Oh, dear. I'm afraid all our pack chocobos are presently afield.\u007F1\u0000\u0007"
  7: 0x002E [0x23] WAIT_FOR_DIALOG_INTERACTION
  8: 0x002F [0x1D] PRINT_EVENT_MESSAGE(message_id=8403*)
    → "One of the animals should be available again soon, though, so please check back in a short while.\u007F1\u0000\u0007"
  9: 0x0032 [0x23] WAIT_FOR_DIALOG_INTERACTION
 10: 0x0033 [0x21] END_EVENT
 11: 0x0034 [0x00] END_REQSTACK()

SUBROUTINE_0035:
 12: 0x0035 [0x1D] PRINT_EVENT_MESSAGE(message_id=8404*)
    → "How might I assist you?\u007F1\u0000\u0007"
 13: 0x0038 [0x23] WAIT_FOR_DIALOG_INTERACTION
 14: 0x0039 [0x1A] CALL_SUBROUTINE(address=0x0073)
 15: 0x003C [0x21] END_EVENT
 16: 0x003D [0x00] END_REQSTACK()
```
