# Event 65535

## Metadata

| Field           | Value    |
|-----------------|----------|
| Event Index     | 14/14    |
| Offset          | 0x0071   |
| Data Size       | 38 bytes |
| Calculated Size | 38 bytes |
| Instructions    | 8        |

```
      00 01 02 03 04 05 06 07  08 09 0A 0B 0C 0D 0E 0F
      -- -- -- -- -- -- -- --  -- -- -- -- -- -- -- --
0070:    32 07 80 1F 00 10 80  11 80 12 80 1F 01 6F 1E   2............o.
0080: 7D 81 01 01 1C 13 80 5B  14 80 7B 81 01 01 7B 81  }......[..{...{.
0090: 01 01 77 61 76 30 00                              ..wav0.         
```

## Opcodes

```
  0: 0x0071 [0x32] ExtData[1]->MainSpeed = 40* * 0.1
  1: 0x0074 [0x1F] MOVE_ENTITY: EventEntity moves to X=-506.467*, Z=361.199*, Y=-31.461*
  2: 0x007C [0x1F] MOVE_ENTITY: Update entity position (mode=1)
  3: 0x007E [0x6F] WAIT_FRAME_DELAY: Yield until WaitTime reaches zero
  4: 0x007F [0x1E] EventEntity looks at Vukki-Chebukki (ID: 16875901/0x0101817D) and starts talking
  5: 0x0084 [0x1C] WAIT(30* ticks)
  6: 0x0087 [0x5B] LOAD_EXT_SCHEDULER(work_offset=324*, entity1=Kukki-Chebukki (ID: 16875899/0x0101817B), entity2=Kukki-Chebukki (ID: 16875899/0x0101817B), action="wav0")
  7: 0x0096 [0x00] END_REQSTACK()
```
