# Event 5031

## Metadata

| Field           | Value    |
|-----------------|----------|
| Event Index     | 141/152  |
| Offset          | 0x1479   |
| Data Size       | 51 bytes |
| Calculated Size | 51 bytes |
| Instructions    | 12       |

```
      00 01 02 03 04 05 06 07  08 09 0A 0B 0C 0D 0E 0F
      -- -- -- -- -- -- -- --  -- -- -- -- -- -- -- --
1470:                             4A F0 FF FF 7F F8 FF           J......
1480: FF 7F 6F 70 79 00 C3 10  10 01 C4 10 10 01 03 02  ..opy...........
1490: 10 9B 80 2B C3 10 10 01  A0 80 23 1C 06 80 4E 01  ...+......#...N.
14A0: C4 10 10 01 2F 01 C4 10  10 01 21 00              ..../.....!.    
```

## Opcodes

```
  0: 0x1479 [0x4A] LocalPlayer looks at EventEntity
  1: 0x1482 [0x6F] WAIT_FRAME_DELAY: Yield until WaitTime reaches zero
  2: 0x1483 [0x70] WAIT_ENTITY_RENDER_FLAG: Wait while EventEntity->Render.Flags3 bit 2 is set (cancel turn if not)
  3: 0x1484 [0x79] Roskin (ID: 17830083/0x011010C3) looks at Unnamed NPC (ID: 17830084/0x011010C4) (Basic look)
  4: 0x148E [0x03] Work_Zone[2] = 5944*
  5: 0x1493 [0x2B] Roskin (ID: 17830083/0x011010C3) [10357*]:
    → "There's no way I can discuss all that clandestine information only privileged people get to hear with my throat this dry. \u007F\u0000\u0001\u0001\u0001\u0001 \u0001\u0005$\u0002\u0000\u0000\u0000 from the caf\u0008i, however, might make me loosen my lips.\u007F1\u0000\u0007"
  6: 0x149A [0x23] WAIT_FOR_DIALOG_INTERACTION
  7: 0x149B [0x1C] WAIT(30* ticks)
  8: 0x149E [0x4E] SET_ENTITY_HIDE_FLAG: Hide Unnamed NPC (ID: 17830084/0x011010C4)
  9: 0x14A4 [0x2F] Unnamed NPC (ID: 17830084/0x011010C4)->Render.Flags0 |= 0x80000 // Bit 19
 10: 0x14AA [0x21] END_EVENT
 11: 0x14AB [0x00] END_REQSTACK()
```
