# Event 5098

## Metadata

| Field           | Value    |
|-----------------|----------|
| Event Index     | 139/152  |
| Offset          | 0x12C2   |
| Data Size       | 51 bytes |
| Calculated Size | 51 bytes |
| Instructions    | 12       |

```
      00 01 02 03 04 05 06 07  08 09 0A 0B 0C 0D 0E 0F
      -- -- -- -- -- -- -- --  -- -- -- -- -- -- -- --
12C0:       4A F0 FF FF 7F F8  FF FF 7F 6F 76 F0 FF FF    J........ov...
12D0: 7F 79 00 C3 10 10 01 C4  10 10 01 03 02 10 93 80  .y..............
12E0: 1D 95 80 23 1C 06 80 4E  01 C4 10 10 01 2F 01 C4  ...#...N...../..
12F0: 10 10 01 21 00                                    ...!.           
```

## Opcodes

```
  0: 0x12C2 [0x4A] LocalPlayer looks at EventEntity
  1: 0x12CB [0x6F] WAIT_FRAME_DELAY: Yield until WaitTime reaches zero
  2: 0x12CC [0x76] CHECK_ENTITY_RENDER_FLAGS: Wait until LocalPlayer Render.Flags0 and Render.Flags3 conditions are met
  3: 0x12D1 [0x79] Roskin (ID: 17830083/0x011010C3) looks at Unnamed NPC (ID: 17830084/0x011010C4) (Basic look)
  4: 0x12DB [0x03] Work_Zone[2] = 5976*
  5: 0x12E0 [0x1D] PRINT_EVENT_MESSAGE(message_id=10988*)
    → "Won't someone take pity on a poor invalid and bring me a bowl of Yocile's homemade \u001E\u0005ulbuconut milk\u001E\u0001?\u007F1\u0000\u0007"
  6: 0x12E3 [0x23] WAIT_FOR_DIALOG_INTERACTION
  7: 0x12E4 [0x1C] WAIT(30* ticks)
  8: 0x12E7 [0x4E] SET_ENTITY_HIDE_FLAG: Hide Unnamed NPC (ID: 17830084/0x011010C4)
  9: 0x12ED [0x2F] Unnamed NPC (ID: 17830084/0x011010C4)->Render.Flags0 |= 0x80000 // Bit 19
 10: 0x12F3 [0x21] END_EVENT
 11: 0x12F4 [0x00] END_REQSTACK()
```
