# Event 5103

## Metadata

| Field           | Value    |
|-----------------|----------|
| Event Index     | 136/152  |
| Offset          | 0x0FC3   |
| Data Size       | 43 bytes |
| Calculated Size | 43 bytes |
| Instructions    | 13       |

```
      00 01 02 03 04 05 06 07  08 09 0A 0B 0C 0D 0E 0F
      -- -- -- -- -- -- -- --  -- -- -- -- -- -- -- --
0FC0:          1E F0 FF FF 7F  6F 70 4A F0 FF FF 7F F8     .....opJ.....
0FD0: FF FF 7F 6F 76 F0 FF FF  7F 6E F8 FF FF 7F 24 80  ...ov....n....$.
0FE0: 99 F8 FF FF 7F 1D 84 80  23 1C 06 80 21 00        ........#...!.  
```

## Opcodes

```
  0: 0x0FC3 [0x1E] EventEntity looks at LocalPlayer and starts talking
  1: 0x0FC8 [0x6F] WAIT_FRAME_DELAY: Yield until WaitTime reaches zero
  2: 0x0FC9 [0x70] WAIT_ENTITY_RENDER_FLAG: Wait while EventEntity->Render.Flags3 bit 2 is set (cancel turn if not)
  3: 0x0FCA [0x4A] LocalPlayer looks at EventEntity
  4: 0x0FD3 [0x6F] WAIT_FRAME_DELAY: Yield until WaitTime reaches zero
  5: 0x0FD4 [0x76] CHECK_ENTITY_RENDER_FLAGS: Wait until LocalPlayer Render.Flags0 and Render.Flags3 conditions are met
  6: 0x0FD9 [0x6E] EventEntity uses emote 36*
  7: 0x0FE0 [0x99] Wait for EventEntity animation to complete
  8: 0x0FE5 [0x1D] PRINT_EVENT_MESSAGE(message_id=11137*)
    → "Once I get my hands on it, Yocile's got no choice but to fall in love with me.\u0007Who's the man? I'm the man!\u007F1\u0000\u0007"
  9: 0x0FE8 [0x23] WAIT_FOR_DIALOG_INTERACTION
 10: 0x0FE9 [0x1C] WAIT(30* ticks)
 11: 0x0FEC [0x21] END_EVENT
 12: 0x0FED [0x00] END_REQSTACK()
```
