# Event 5131

## Metadata

| Field           | Value    |
|-----------------|----------|
| Event Index     | 129/152  |
| Offset          | 0x0CF8   |
| Data Size       | 32 bytes |
| Calculated Size | 32 bytes |
| Instructions    | 12       |

```
      00 01 02 03 04 05 06 07  08 09 0A 0B 0C 0D 0E 0F
      -- -- -- -- -- -- -- --  -- -- -- -- -- -- -- --
0CF0:                          1E F0 FF FF 7F 6F 70 4A          .....opJ
0D00: F0 FF FF 7F F8 FF FF 7F  6F 76 F0 FF FF 7F 1D 61  ........ov.....a
0D10: 80 23 1D 62 80 23 21 00                           .#.b.#!.        
```

## Opcodes

```
  0: 0x0CF8 [0x1E] EventEntity looks at LocalPlayer and starts talking
  1: 0x0CFD [0x6F] WAIT_FRAME_DELAY: Yield until WaitTime reaches zero
  2: 0x0CFE [0x70] WAIT_ENTITY_RENDER_FLAG: Wait while EventEntity->Render.Flags3 bit 2 is set (cancel turn if not)
  3: 0x0CFF [0x4A] LocalPlayer looks at EventEntity
  4: 0x0D08 [0x6F] WAIT_FRAME_DELAY: Yield until WaitTime reaches zero
  5: 0x0D09 [0x76] CHECK_ENTITY_RENDER_FLAGS: Wait until LocalPlayer Render.Flags0 and Render.Flags3 conditions are met
  6: 0x0D0E [0x1D] PRINT_EVENT_MESSAGE(message_id=11286*)
    → "My calling as a custodian of history is now a reality--and I owe it all to your superlative actions. \u00072Superlative\u00073 being the operative word here.\u007F1\u0000\u0007"
  7: 0x0D11 [0x23] WAIT_FOR_DIALOG_INTERACTION
  8: 0x0D12 [0x1D] PRINT_EVENT_MESSAGE(message_id=11287*)
    → "I thank you from the bottom of my heart.\u007F1\u0000\u0007"
  9: 0x0D15 [0x23] WAIT_FOR_DIALOG_INTERACTION
 10: 0x0D16 [0x21] END_EVENT
 11: 0x0D17 [0x00] END_REQSTACK()
```
