# Event 5201

## Metadata

| Field           | Value    |
|-----------------|----------|
| Event Index     | 120/152  |
| Offset          | 0x0BC0   |
| Data Size       | 32 bytes |
| Calculated Size | 32 bytes |
| Instructions    | 12       |

```
      00 01 02 03 04 05 06 07  08 09 0A 0B 0C 0D 0E 0F
      -- -- -- -- -- -- -- --  -- -- -- -- -- -- -- --
0BC0: 1E F0 FF FF 7F 6F 70 4A  F0 FF FF 7F F8 FF FF 7F  .....opJ........
0BD0: 6F 76 F0 FF FF 7F 1D 53  80 23 1D 54 80 23 21 00  ov.....S.#.T.#!.
```

## Opcodes

```
  0: 0x0BC0 [0x1E] EventEntity looks at LocalPlayer and starts talking
  1: 0x0BC5 [0x6F] WAIT_FRAME_DELAY: Yield until WaitTime reaches zero
  2: 0x0BC6 [0x70] WAIT_ENTITY_RENDER_FLAG: Wait while EventEntity->Render.Flags3 bit 2 is set (cancel turn if not)
  3: 0x0BC7 [0x4A] LocalPlayer looks at EventEntity
  4: 0x0BD0 [0x6F] WAIT_FRAME_DELAY: Yield until WaitTime reaches zero
  5: 0x0BD1 [0x76] CHECK_ENTITY_RENDER_FLAGS: Wait until LocalPlayer Render.Flags0 and Render.Flags3 conditions are met
  6: 0x0BD6 [0x1D] PRINT_EVENT_MESSAGE(message_id=11320*)
    → "Make haste for Celennia Memorial Library and procure \u00072Heroes and Legends of Adoulin\u00073 for me.\u007F1\u0000\u0007"
  7: 0x0BD9 [0x23] WAIT_FOR_DIALOG_INTERACTION
  8: 0x0BDA [0x1D] PRINT_EVENT_MESSAGE(message_id=11321*)
    → "This should be a piece of proverbial cake compared to the trials I put before you up until now. Just go there and mention that the one and only Roskin sent you.\u007F1\u0000\u0007"
  9: 0x0BDD [0x23] WAIT_FOR_DIALOG_INTERACTION
 10: 0x0BDE [0x21] END_EVENT
 11: 0x0BDF [0x00] END_REQSTACK()
```
