# Event 65535

## Metadata

| Field           | Value    |
|-----------------|----------|
| Event Index     | 99/152   |
| Offset          | 0x09A5   |
| Data Size       | 60 bytes |
| Calculated Size | 60 bytes |
| Instructions    | 9        |

```
      00 01 02 03 04 05 06 07  08 09 0A 0B 0C 0D 0E 0F
      -- -- -- -- -- -- -- --  -- -- -- -- -- -- -- --
09A0:                66 08 80  F8 FF FF 7F F8 FF FF 7F       f..........
09B0: 73 68 61 31 53 F8 FF FF  7F F8 FF FF 7F 73 68 61  sha1S........sha
09C0: 31 1C 06 80 32 33 80 1F  00 40 80 41 80 3F 80 1F  1...23...@.A.?..
09D0: 01 1C 06 80 AD 00 37 80  F8 FF FF 7F F8 FF FF 7F  ......7.........
09E0: 00                                                .               
```

## Opcodes

```
  0: 0x09A5 [0x66] LOAD_EXT_SCHEDULER_MAIN(work_offset=9*, entity1=EventEntity, entity2=EventEntity, action="sha1")
  1: 0x09B4 [0x53] WAIT_SCHEDULER_TASK(entity1=EventEntity, entity2=EventEntity, action_id="sha1")
  2: 0x09C1 [0x1C] WAIT(30* ticks)
  3: 0x09C4 [0x32] ExtData[1]->MainSpeed = 8* * 0.1
  4: 0x09C7 [0x1F] MOVE_ENTITY: EventEntity moves to X=-46.221*, Z=-22.737*, Y=-0.676*
  5: 0x09CF [0x1F] MOVE_ENTITY: Update entity position (mode=1)
  6: 0x09D1 [0x1C] WAIT(30* ticks)
  7: 0x09D4 [0xAD] DUAL_ENTITY_SCHEDULER: Execute sub-case 0 with entities [EventEntity, EventEntity], param=68*
  8: 0x09E0 [0x00] END_REQSTACK()
```
