# Event 65535

## Metadata

| Field           | Value    |
|-----------------|----------|
| Event Index     | 100/152  |
| Offset          | 0x09E1   |
| Data Size       | 60 bytes |
| Calculated Size | 60 bytes |
| Instructions    | 9        |

```
      00 01 02 03 04 05 06 07  08 09 0A 0B 0C 0D 0E 0F
      -- -- -- -- -- -- -- --  -- -- -- -- -- -- -- --
09E0:    66 08 80 F8 FF FF 7F  F8 FF FF 7F 73 68 61 31   f..........sha1
09F0: 53 F8 FF FF 7F F8 FF FF  7F 73 68 61 31 1C 06 80  S........sha1...
0A00: 32 33 80 1F 00 40 80 41  80 3F 80 1F 01 1C 06 80  23...@.A.?......
0A10: AD 00 42 80 F8 FF FF 7F  F8 FF FF 7F 00           ..B..........   
```

## Opcodes

```
  0: 0x09E1 [0x66] LOAD_EXT_SCHEDULER_MAIN(work_offset=9*, entity1=EventEntity, entity2=EventEntity, action="sha1")
  1: 0x09F0 [0x53] WAIT_SCHEDULER_TASK(entity1=EventEntity, entity2=EventEntity, action_id="sha1")
  2: 0x09FD [0x1C] WAIT(30* ticks)
  3: 0x0A00 [0x32] ExtData[1]->MainSpeed = 8* * 0.1
  4: 0x0A03 [0x1F] MOVE_ENTITY: EventEntity moves to X=-46.221*, Z=-22.737*, Y=-0.676*
  5: 0x0A0B [0x1F] MOVE_ENTITY: Update entity position (mode=1)
  6: 0x0A0D [0x1C] WAIT(30* ticks)
  7: 0x0A10 [0xAD] DUAL_ENTITY_SCHEDULER: Execute sub-case 0 with entities [EventEntity, EventEntity], param=27*
  8: 0x0A1C [0x00] END_REQSTACK()
```
