# Event 10055

## Metadata

| Field           | Value    |
|-----------------|----------|
| Event Index     | 4/110    |
| Offset          | 0x0066   |
| Data Size       | 37 bytes |
| Calculated Size | 37 bytes |
| Instructions    | 11       |

```
      00 01 02 03 04 05 06 07  08 09 0A 0B 0C 0D 0E 0F
      -- -- -- -- -- -- -- --  -- -- -- -- -- -- -- --
0060:                   42 48  09 80 1E F0 FF FF 7F 1C        BH........
0070: 0A 80 66 00 80 F8 FF FF  7F F8 FF FF 7F 74 6C 6B  ..f..........tlk
0080: 30 1D 0B 80 23 1D 0C 80  23 21 00                 0...#...#!.     
```

## Opcodes

```
  0: 0x0066 [0x42] SET_CLI_EVENT_CANCEL_DATA()
  1: 0x0067 [0x48] [System] [9486*]:
    → "\u001F\u000F\u0008's badge flashes brightly.\u007F1\u0000\u0007"
  2: 0x006A [0x1E] EventEntity looks at LocalPlayer and starts talking
  3: 0x006F [0x1C] WAIT(30* ticks)
  4: 0x0072 [0x66] LOAD_EXT_SCHEDULER_MAIN: Load scheduler "tlk0" with entities [EventEntity, EventEntity], work=40*
  5: 0x0081 [0x1D] PRINT_EVENT_MESSAGE(message_id=9493*)
    → "I heard that the Near East is bursting at the seams with wonderful treasures never seen this side of Vana'diel.\u007F1\u0000\u0007"
  6: 0x0084 [0x23] WAIT_FOR_DIALOG_INTERACTION
  7: 0x0085 [0x1D] PRINT_EVENT_MESSAGE(message_id=9494*)
    → "I can't figure out which sounds more interesting--the Tenshodo or the Near East...\u007F1\u0000\u0007"
  8: 0x0088 [0x23] WAIT_FOR_DIALOG_INTERACTION
  9: 0x0089 [0x21] END_EVENT
 10: 0x008A [0x00] END_REQSTACK()
```
