# Event 65535

## Metadata

| Field           | Value     |
|-----------------|-----------|
| Event Index     | 17/21     |
| Offset          | 0x018D    |
| Data Size       | 107 bytes |
| Calculated Size | 107 bytes |
| Instructions    | 4         |

```
      00 01 02 03 04 05 06 07  08 09 0A 0B 0C 0D 0E 0F
      -- -- -- -- -- -- -- --  -- -- -- -- -- -- -- --
0180:                                         32 10 80               2..
0190: 1F 00 11 80 12 80 13 80  1F 01 00 BF 20 00 80 14  ............ ...
01A0: 80 14 80 00 00 41 15 80  16 80 00 00 01 00 41 17  .....A........A.
01B0: 80 10 80 00 00 02 00 BF  20 00 80 14 80 02 80 00  ........ .......
01C0: 00 3E 00 00 08 80 D0 01  03 03 00 02 80 01 D3 01  .>..............
01D0: 06 03 00 3E 00 00 00 80  E2 01 03 04 00 02 80 01  ...>............
01E0: E5 01 06 04 00 3E 00 00  01 80 F4 01 03 05 00 02  .....>..........
01F0: 80 01 F7 01 06 04 00 1B                           ........        
```

## Opcodes

```
  0: 0x018D [0x32] ExtData[1]->MainSpeed = 27* * 0.1
  1: 0x0190 [0x1F] MOVE_ENTITY: EventEntity moves to X=-93.764*, Z=-78.195*, Y=-0.500*
  2: 0x0198 [0x1F] MOVE_ENTITY: Update entity position (mode=1)
  3: 0x019A [0x00] END_REQSTACK()
```

## Data or dead code:

```
# Dead code (unreachable instructions):
     0x019B [0xBF] CHOCOBO_RACING_PARAMETER_GETTER(param_type=0x20)
     0x019D [0x00] END_REQSTACK()
     0x019E [0x80] LOAD_WAIT(entity=Unknown NPC (ID: 2148827156/0x80148014))
     0x01A3 [0x00] END_REQSTACK()
     0x01A4 [0x00] END_REQSTACK()
     0x01A5 [0x41] ExtData[1]->WorkLocal[1] = ExtData[1]->WorkLocal[0] (bits 28*-30*)
     0x01AE [0x41] ExtData[1]->WorkLocal[2] = ExtData[1]->WorkLocal[0] (bits 25*-27*)
     0x01B7 [0xBF] CHOCOBO_RACING_PARAMETER_GETTER(param_type=0x20)
     0x01B9 [0x00] END_REQSTACK()
     0x01BA [0x80] LOAD_WAIT(entity=Unknown NPC (ID: 2147647508/0x80028014))
     0x01BF [0x00] END_REQSTACK()
     0x01C0 [0x00] END_REQSTACK()
     0x01C1 [0x3E] IF !(ExtData[1]->WorkLocal[0] bit 16*) GOTO 0x01D0
     0x01C8 [0x03] ExtData[1]->WorkLocal[3] = 1*
     0x01CD [0x01] GOTO 0x01D3
     0x01D0 [0x06] ExtData[1]->WorkLocal[3] = 0
     0x01D3 [0x3E] IF !(ExtData[1]->WorkLocal[0] bit 0*) GOTO 0x01E2
     0x01DA [0x03] ExtData[1]->WorkLocal[4] = 1*
     0x01DF [0x01] GOTO 0x01E5
     0x01E2 [0x06] ExtData[1]->WorkLocal[4] = 0
     0x01E5 [0x3E] IF !(ExtData[1]->WorkLocal[0] bit 8*) GOTO 0x01F4
     0x01EC [0x03] ExtData[1]->WorkLocal[5] = 1*
     0x01F1 [0x01] GOTO 0x01F7
     0x01F4 [0x06] ExtData[1]->WorkLocal[4] = 0
     0x01F7 [0x1B] RETURN
```