# 16867735

## Common Data

| Field            | Value                      |
|------------------|----------------------------|
| Zone             | Promyvion - Vahzl (ID: 22) |
| Block Size       | 108 bytes                  |
| Total Events     | 2                          |
| References Count | 6                          |

## List of Events

| Event ID              | Entrypoint   |   Size |   Instructions |
|-----------------------|--------------|--------|----------------|
| [65535](#event-65535) | 0x0000       |      1 |              1 |
| [48](#event-48)       | 0x0001       |     56 |             12 |

## DAT References (imed_data)

|   Index | Hex Value   |   Dec Value |
|---------|-------------|-------------|
|       0 | 0x00C9      |         201 |
|       1 | 0x0000      |           0 |
|       2 | 0x003C      |          60 |
|       3 | 0x1C45      |        7237 |
|       4 | 0x0078      |         120 |
|       5 | 0x1C46      |        7238 |

## String References

- **7237**: You are blinded by a white flash...
- **7238**: A strange image has been burned into your mind...

## Events

### Event 65535

#### Metadata

| Field        | Value   |
|--------------|---------|
| Entrypoint   | 0x0000  |
| Data Size    | 1 bytes |
| Instructions | 1       |

```
      00 01 02 03 04 05 06 07  08 09 0A 0B 0C 0D 0E 0F
      -- -- -- -- -- -- -- --  -- -- -- -- -- -- -- --
0000: 00                                                .               
```

#### Opcodes

```
  0: 0x0000 [0x00] END_REQSTACK()
```

### Event 48

#### Metadata

| Field        | Value    |
|--------------|----------|
| Entrypoint   | 0x0001   |
| Data Size    | 56 bytes |
| Instructions | 12       |

```
      00 01 02 03 04 05 06 07  08 09 0A 0B 0C 0D 0E 0F
      -- -- -- -- -- -- -- --  -- -- -- -- -- -- -- --
0000:    20 01 42 45 00 80 F0  FF FF 7F F0 FF FF 7F 77    .BE..........w
0010: 68 6F 31 01 80 1C 02 80  45 00 80 F0 FF FF 7F F0  ho1.....E.......
0020: FF FF 7F 77 68 69 31 01  80 48 03 80 1C 04 80 48  ...whi1..H.....H
0030: 05 80 1C 04 80 20 00 21  00                       ..... .!.       
```

#### Opcodes

```
  0: 0x0001 [0x20] SET_CLI_EVENT_UC_FLAG: Lock player control
  1: 0x0003 [0x42] SET_CLI_EVENT_CANCEL_DATA()
  2: 0x0004 [0x45] LOAD_SCHEDULED_TASK: Load scheduler "who1" with entities [LocalPlayer, LocalPlayer], work=[201*, 0*]
  3: 0x0015 [0x1C] WAIT(60* ticks)
  4: 0x0018 [0x45] LOAD_SCHEDULED_TASK: Load scheduler "whi1" with entities [LocalPlayer, LocalPlayer], work=[201*, 0*]
  5: 0x0029 [0x48] [System] [7237*]:
    → "You are blinded by a white flash..."
  6: 0x002C [0x1C] WAIT(120* ticks)
  7: 0x002F [0x48] [System] [7238*]:
    → "A strange image has been burned into your mind..."
  8: 0x0032 [0x1C] WAIT(120* ticks)
  9: 0x0035 [0x20] SET_CLI_EVENT_UC_FLAG: Unlock player control
 10: 0x0037 [0x21] END_EVENT
 11: 0x0038 [0x00] END_REQSTACK()
```
