# 0x7FFFFFF0 - Zone Events

## Common Data

| Field            | Value                      |
|------------------|----------------------------|
| Zone             | Promyvion - Vahzl (ID: 22) |
| Block Size       | 3628 bytes                 |
| Total Events     | 38                         |
| References Count | 73                         |

## List of Events

| Event ID                   | Entrypoint   |   Size |   Instructions |
|----------------------------|--------------|--------|----------------|
| [65535](#event-65535)      | 0x0000       |      1 |              1 |
| [65534](#event-65534)      | 0x0001       |      1 |              1 |
| [65535.1](#event-655351)   | 0x0002       |      6 |              2 |
| [65535.2](#event-655352)   | 0x0008       |      6 |              2 |
| [65535.3](#event-655353)   | 0x000E       |      6 |              2 |
| [65535.4](#event-655354)   | 0x0014       |      6 |              2 |
| [65535.5](#event-655355)   | 0x001A       |      6 |              2 |
| [65535.6](#event-655356)   | 0x0020       |     10 |              2 |
| [65535.7](#event-655357)   | 0x002A       |     24 |              6 |
| [65535.8](#event-655358)   | 0x0042       |     10 |              2 |
| [65535.9](#event-655359)   | 0x004C       |     15 |              5 |
| [65535.10](#event-6553510) | 0x005B       |     10 |              2 |
| [65535.11](#event-6553511) | 0x0065       |     15 |              5 |
| [65535.12](#event-6553512) | 0x0074       |     10 |              2 |
| [65535.13](#event-6553513) | 0x007E       |     15 |              5 |
| [65535.14](#event-6553514) | 0x008D       |     10 |              2 |
| [65535.15](#event-6553515) | 0x0097       |     15 |              5 |
| [65535.16](#event-6553516) | 0x00A6       |     10 |              2 |
| [65535.17](#event-6553517) | 0x00B0       |     14 |              4 |
| [65535.18](#event-6553518) | 0x00BE       |     10 |              2 |
| [30](#event-30)            | 0x00C8       |    190 |             27 |
| [31](#event-31)            | 0x0186       |    190 |             27 |
| [32](#event-32)            | 0x0244       |    190 |             27 |
| [33](#event-33)            | 0x0302       |    190 |             27 |
| [34](#event-34)            | 0x03C0       |    190 |             27 |
| [35](#event-35)            | 0x047E       |    190 |             27 |
| [36](#event-36)            | 0x053C       |    190 |             27 |
| [37](#event-37)            | 0x05FA       |    190 |             27 |
| [38](#event-38)            | 0x06B8       |    188 |             26 |
| [39](#event-39)            | 0x0774       |    188 |             26 |
| [40](#event-40)            | 0x0830       |    188 |             26 |
| [41](#event-41)            | 0x08EC       |    188 |             26 |
| [42](#event-42)            | 0x09A8       |    188 |             26 |
| [43](#event-43)            | 0x0A64       |    188 |             26 |
| [44](#event-44)            | 0x0B20       |    188 |             26 |
| [45](#event-45)            | 0x0BDC       |     53 |             15 |
| [46](#event-46)            | 0x0C11       |     41 |              5 |
| [47](#event-47)            | 0x0C3A       |     38 |              4 |

## DAT References (imed_data)

|   Index | Hex Value   |   Dec Value |
|---------|-------------|-------------|
|       0 | 0xFFFADCFD  |  4294630653 |
|       1 | 0x2201F     |      139295 |
|       2 | 0x0000      |           0 |
|       3 | 0x0956      |        2390 |
|       4 | 0xFFFA7C99  |  4294605977 |
|       5 | 0x21B3C     |      138044 |
|       6 | 0x005C      |          92 |
|       7 | 0x07DF      |        2015 |
|       8 | 0x000D      |          13 |
|       9 | 0xFFFA619E  |  4294599070 |
|      10 | 0x21BF3     |      138227 |
|      11 | 0xFFFFFFF4  |  4294967284 |
|      12 | 0xFFFA56CF  |  4294596303 |
|      13 | 0x21B5A     |      138074 |
|      14 | 0x0A08      |        2568 |
|      15 | 0xFFFA9587  |  4294612359 |
|      16 | 0x221DA     |      139738 |
|      17 | 0x261F8     |      156152 |
|      18 | 0xFFFF1055  |  4294905941 |
|      19 | 0x0043      |          67 |
|      20 | 0x07D0      |        2000 |
|      21 | 0x24BC9     |      150473 |
|      22 | 0xFFFF1001  |  4294905857 |
|      23 | 0x241F0     |      147952 |
|      24 | 0xFFFF1159  |  4294906201 |
|      25 | 0x086B      |        2155 |
|      26 | 0x26ABD     |      158397 |
|      27 | 0xFFFF0EDF  |  4294905567 |
|      28 | 0x0056      |          86 |
|      29 | 0x6C5B1     |      443825 |
|      30 | 0x227C7     |      141255 |
|      31 | 0x003E      |          62 |
|      32 | 0x0FF8      |        4088 |
|      33 | 0x6DF36     |      450358 |
|      34 | 0x224F7     |      140535 |
|      35 | 0x6DA29     |      449065 |
|      36 | 0x22063     |      139363 |
|      37 | 0x0032      |          50 |
|      38 | 0x6C1FA     |      442874 |
|      39 | 0x2204F     |      139343 |
|      40 | 0x0020      |          32 |
|      41 | 0xFFFE2BB2  |  4294847410 |
|      42 | 0xFFFFFC19  |  4294966297 |
|      43 | 0x1C3B      |        7227 |
|      44 | 0x0001      |           1 |
|      45 | 0x0049      |          73 |
|      46 | 0x008C      |         140 |
|      47 | 0x00C8      |         200 |
|      48 | 0x00C9      |         201 |
|      49 | 0x00A0      |         160 |
|      50 | 0x010E      |         270 |
|      51 | 0x003C      |          60 |
|      52 | 0x69F7E     |      434046 |
|      53 | 0xFFFBE968  |  4294699368 |
|      54 | 0x09B2      |        2482 |
|      55 | 0x2051F     |      132383 |
|      56 | 0x4CBC6     |      314310 |
|      57 | 0x03E5      |         997 |
|      58 | 0xA932      |       43314 |
|      59 | 0xFFFFCD38  |  4294954296 |
|      60 | 0x097F      |        2431 |
|      61 | 0x3F235     |      258613 |
|      62 | 0x22A3A     |      141882 |
|      63 | 0xFFFFFD90  |  4294966672 |
|      64 | 0x0BF4      |        3060 |
|      65 | 0x1C3C      |        7228 |
|      66 | 0xFFFFC668  |  4294952552 |
|      67 | 0xFFFE2C48  |  4294847560 |
|      68 | 0x0024      |          36 |
|      69 | 0x0014      |          20 |
|      70 | 0x1C3D      |        7229 |
|      71 | 0x004A      |          74 |
|      72 | 0x00AA      |         170 |

## String References

- **7227**: Enter the memory stream? [Yes./No.]
- **7228**: Return through the memory stream? [Yes./No.]
- **7229**: Leave Promyvion? [Yes./No.]

## Events

### Event 65535

#### Metadata

| Field        | Value   |
|--------------|---------|
| Entrypoint   | 0x0000  |
| Data Size    | 1 bytes |
| Instructions | 1       |

```
      00 01 02 03 04 05 06 07  08 09 0A 0B 0C 0D 0E 0F
      -- -- -- -- -- -- -- --  -- -- -- -- -- -- -- --
0000: 00                                                .               
```

#### Opcodes

```
  0: 0x0000 [0x00] END_REQSTACK()
```

### Event 65534

#### Metadata

| Field        | Value   |
|--------------|---------|
| Entrypoint   | 0x0001  |
| Data Size    | 1 bytes |
| Instructions | 1       |

```
      00 01 02 03 04 05 06 07  08 09 0A 0B 0C 0D 0E 0F
      -- -- -- -- -- -- -- --  -- -- -- -- -- -- -- --
0000:    00                                              .              
```

#### Opcodes

```
  0: 0x0001 [0x00] END_REQSTACK()
```

### Event 65535.1

#### Metadata

| Field        | Value   |
|--------------|---------|
| Entrypoint   | 0x0002  |
| Data Size    | 6 bytes |
| Instructions | 2       |

```
      00 01 02 03 04 05 06 07  08 09 0A 0B 0C 0D 0E 0F
      -- -- -- -- -- -- -- --  -- -- -- -- -- -- -- --
0000:       03 02 10 0B 7F 00                             ......        
```

#### Opcodes

```
  0: 0x0002 [0x03] Work_Zone[2] = (Entity->Render.Flags01 >> 25) & 1
  1: 0x0007 [0x00] END_REQSTACK()
```

### Event 65535.2

#### Metadata

| Field        | Value   |
|--------------|---------|
| Entrypoint   | 0x0008  |
| Data Size    | 6 bytes |
| Instructions | 2       |

```
      00 01 02 03 04 05 06 07  08 09 0A 0B 0C 0D 0E 0F
      -- -- -- -- -- -- -- --  -- -- -- -- -- -- -- --
0000:                          03 02 10 07 7F 00                ......  
```

#### Opcodes

```
  0: 0x0008 [0x03] Work_Zone[2] = Entity->Race
  1: 0x000D [0x00] END_REQSTACK()
```

### Event 65535.3

#### Metadata

| Field        | Value   |
|--------------|---------|
| Entrypoint   | 0x000E  |
| Data Size    | 6 bytes |
| Instructions | 2       |

```
      00 01 02 03 04 05 06 07  08 09 0A 0B 0C 0D 0E 0F
      -- -- -- -- -- -- -- --  -- -- -- -- -- -- -- --
0000:                                            03 09                ..
0010: 10 07 7F 00                                       ....            
```

#### Opcodes

```
  0: 0x000E [0x03] Work_Zone[9] = Entity->Race
  1: 0x0013 [0x00] END_REQSTACK()
```

### Event 65535.4

#### Metadata

| Field        | Value   |
|--------------|---------|
| Entrypoint   | 0x0014  |
| Data Size    | 6 bytes |
| Instructions | 2       |

```
      00 01 02 03 04 05 06 07  08 09 0A 0B 0C 0D 0E 0F
      -- -- -- -- -- -- -- --  -- -- -- -- -- -- -- --
0010:             03 02 10 06  7F 00                        ......      
```

#### Opcodes

```
  0: 0x0014 [0x03] Work_Zone[2] = Entity->JobId (if LocalPlayer)
  1: 0x0019 [0x00] END_REQSTACK()
```

### Event 65535.5

#### Metadata

| Field        | Value   |
|--------------|---------|
| Entrypoint   | 0x001A  |
| Data Size    | 6 bytes |
| Instructions | 2       |

```
      00 01 02 03 04 05 06 07  08 09 0A 0B 0C 0D 0E 0F
      -- -- -- -- -- -- -- --  -- -- -- -- -- -- -- --
0010:                                03 08 10 07 7F 00            ......
```

#### Opcodes

```
  0: 0x001A [0x03] Work_Zone[8] = Entity->Race
  1: 0x001F [0x00] END_REQSTACK()
```

### Event 65535.6

#### Metadata

| Field        | Value    |
|--------------|----------|
| Entrypoint   | 0x0020   |
| Data Size    | 10 bytes |
| Instructions | 2        |

```
      00 01 02 03 04 05 06 07  08 09 0A 0B 0C 0D 0E 0F
      -- -- -- -- -- -- -- --  -- -- -- -- -- -- -- --
0020: 37 00 80 01 80 02 80 03  80 00                    7.........      
```

#### Opcodes

```
  0: 0x0020 [0x37] UPDATE_EVENT_POSITION_AND_DIR: x=-336.643*, z=139.295*, y=0.000*, direction=210.1°*
  1: 0x0029 [0x00] END_REQSTACK()
```

### Event 65535.7

#### Metadata

| Field        | Value    |
|--------------|----------|
| Entrypoint   | 0x002A   |
| Data Size    | 24 bytes |
| Instructions | 6        |

```
      00 01 02 03 04 05 06 07  08 09 0A 0B 0C 0D 0E 0F
      -- -- -- -- -- -- -- --  -- -- -- -- -- -- -- --
0020:                                37 04 80 05 80 06            7.....
0030: 80 07 80 32 08 80 1F 00  09 80 0A 80 0B 80 1F 01  ...2............
0040: 6F 00                                             o.              
```

#### Opcodes

```
  0: 0x002A [0x37] UPDATE_EVENT_POSITION_AND_DIR: x=-361.319*, z=138.044*, y=0.092*, direction=177.1°*
  1: 0x0033 [0x32] ExtData[1]->MainSpeed = 13* * 0.1
  2: 0x0036 [0x1F] MOVE_ENTITY: EventEntity moves to X=-368.226*, Z=138.227*, Y=-0.012*
  3: 0x003E [0x1F] MOVE_ENTITY: Update entity position (mode=1)
  4: 0x0040 [0x6F] WAIT_FRAME_DELAY: Yield until WaitTime reaches zero
  5: 0x0041 [0x00] END_REQSTACK()
```

### Event 65535.8

#### Metadata

| Field        | Value    |
|--------------|----------|
| Entrypoint   | 0x0042   |
| Data Size    | 10 bytes |
| Instructions | 2        |

```
      00 01 02 03 04 05 06 07  08 09 0A 0B 0C 0D 0E 0F
      -- -- -- -- -- -- -- --  -- -- -- -- -- -- -- --
0040:       37 0C 80 0D 80 02  80 0E 80 00                7.........    
```

#### Opcodes

```
  0: 0x0042 [0x37] UPDATE_EVENT_POSITION_AND_DIR: x=-370.993*, z=138.074*, y=0.000*, direction=225.7°*
  1: 0x004B [0x00] END_REQSTACK()
```

### Event 65535.9

#### Metadata

| Field        | Value    |
|--------------|----------|
| Entrypoint   | 0x004C   |
| Data Size    | 15 bytes |
| Instructions | 5        |

```
      00 01 02 03 04 05 06 07  08 09 0A 0B 0C 0D 0E 0F
      -- -- -- -- -- -- -- --  -- -- -- -- -- -- -- --
0040:                                      32 08 80 1F              2...
0050: 00 0F 80 10 80 02 80 1F  01 6F 00                 .........o.     
```

#### Opcodes

```
  0: 0x004C [0x32] ExtData[1]->MainSpeed = 13* * 0.1
  1: 0x004F [0x1F] MOVE_ENTITY: EventEntity moves to X=-354.937*, Z=139.738*, Y=0.000*
  2: 0x0057 [0x1F] MOVE_ENTITY: Update entity position (mode=1)
  3: 0x0059 [0x6F] WAIT_FRAME_DELAY: Yield until WaitTime reaches zero
  4: 0x005A [0x00] END_REQSTACK()
```

### Event 65535.10

#### Metadata

| Field        | Value    |
|--------------|----------|
| Entrypoint   | 0x005B   |
| Data Size    | 10 bytes |
| Instructions | 2        |

```
      00 01 02 03 04 05 06 07  08 09 0A 0B 0C 0D 0E 0F
      -- -- -- -- -- -- -- --  -- -- -- -- -- -- -- --
0050:                                   37 11 80 12 80             7....
0060: 13 80 14 80 00                                    .....           
```

#### Opcodes

```
  0: 0x005B [0x37] UPDATE_EVENT_POSITION_AND_DIR: x=156.152*, z=-61.355*, y=0.067*, direction=175.8°*
  1: 0x0064 [0x00] END_REQSTACK()
```

### Event 65535.11

#### Metadata

| Field        | Value    |
|--------------|----------|
| Entrypoint   | 0x0065   |
| Data Size    | 15 bytes |
| Instructions | 5        |

```
      00 01 02 03 04 05 06 07  08 09 0A 0B 0C 0D 0E 0F
      -- -- -- -- -- -- -- --  -- -- -- -- -- -- -- --
0060:                32 08 80  1F 00 15 80 16 80 02 80       2..........
0070: 1F 01 6F 00                                       ..o.            
```

#### Opcodes

```
  0: 0x0065 [0x32] ExtData[1]->MainSpeed = 13* * 0.1
  1: 0x0068 [0x1F] MOVE_ENTITY: EventEntity moves to X=150.473*, Z=-61.439*, Y=0.000*
  2: 0x0070 [0x1F] MOVE_ENTITY: Update entity position (mode=1)
  3: 0x0072 [0x6F] WAIT_FRAME_DELAY: Yield until WaitTime reaches zero
  4: 0x0073 [0x00] END_REQSTACK()
```

### Event 65535.12

#### Metadata

| Field        | Value    |
|--------------|----------|
| Entrypoint   | 0x0074   |
| Data Size    | 10 bytes |
| Instructions | 2        |

```
      00 01 02 03 04 05 06 07  08 09 0A 0B 0C 0D 0E 0F
      -- -- -- -- -- -- -- --  -- -- -- -- -- -- -- --
0070:             37 17 80 18  80 02 80 19 80 00            7.........  
```

#### Opcodes

```
  0: 0x0074 [0x37] UPDATE_EVENT_POSITION_AND_DIR: x=147.952*, z=-61.095*, y=0.000*, direction=189.4°*
  1: 0x007D [0x00] END_REQSTACK()
```

### Event 65535.13

#### Metadata

| Field        | Value    |
|--------------|----------|
| Entrypoint   | 0x007E   |
| Data Size    | 15 bytes |
| Instructions | 5        |

```
      00 01 02 03 04 05 06 07  08 09 0A 0B 0C 0D 0E 0F
      -- -- -- -- -- -- -- --  -- -- -- -- -- -- -- --
0070:                                            32 08                2.
0080: 80 1F 00 1A 80 1B 80 1C  80 1F 01 6F 00           ...........o.   
```

#### Opcodes

```
  0: 0x007E [0x32] ExtData[1]->MainSpeed = 13* * 0.1
  1: 0x0081 [0x1F] MOVE_ENTITY: EventEntity moves to X=158.397*, Z=-61.729*, Y=0.086*
  2: 0x0089 [0x1F] MOVE_ENTITY: Update entity position (mode=1)
  3: 0x008B [0x6F] WAIT_FRAME_DELAY: Yield until WaitTime reaches zero
  4: 0x008C [0x00] END_REQSTACK()
```

### Event 65535.14

#### Metadata

| Field        | Value    |
|--------------|----------|
| Entrypoint   | 0x008D   |
| Data Size    | 10 bytes |
| Instructions | 2        |

```
      00 01 02 03 04 05 06 07  08 09 0A 0B 0C 0D 0E 0F
      -- -- -- -- -- -- -- --  -- -- -- -- -- -- -- --
0080:                                         37 1D 80               7..
0090: 1E 80 1F 80 20 80 00                              .... ..         
```

#### Opcodes

```
  0: 0x008D [0x37] UPDATE_EVENT_POSITION_AND_DIR: x=443.825*, z=141.255*, y=0.062*, direction=359.3°*
  1: 0x0096 [0x00] END_REQSTACK()
```

### Event 65535.15

#### Metadata

| Field        | Value    |
|--------------|----------|
| Entrypoint   | 0x0097   |
| Data Size    | 15 bytes |
| Instructions | 5        |

```
      00 01 02 03 04 05 06 07  08 09 0A 0B 0C 0D 0E 0F
      -- -- -- -- -- -- -- --  -- -- -- -- -- -- -- --
0090:                      32  08 80 1F 00 21 80 22 80         2....!.".
00A0: 02 80 1F 01 6F 00                                 ....o.          
```

#### Opcodes

```
  0: 0x0097 [0x32] ExtData[1]->MainSpeed = 13* * 0.1
  1: 0x009A [0x1F] MOVE_ENTITY: EventEntity moves to X=450.358*, Z=140.535*, Y=0.000*
  2: 0x00A2 [0x1F] MOVE_ENTITY: Update entity position (mode=1)
  3: 0x00A4 [0x6F] WAIT_FRAME_DELAY: Yield until WaitTime reaches zero
  4: 0x00A5 [0x00] END_REQSTACK()
```

### Event 65535.16

#### Metadata

| Field        | Value    |
|--------------|----------|
| Entrypoint   | 0x00A6   |
| Data Size    | 10 bytes |
| Instructions | 2        |

```
      00 01 02 03 04 05 06 07  08 09 0A 0B 0C 0D 0E 0F
      -- -- -- -- -- -- -- --  -- -- -- -- -- -- -- --
00A0:                   37 23  80 24 80 02 80 25 80 00        7#.$...%..
```

#### Opcodes

```
  0: 0x00A6 [0x37] UPDATE_EVENT_POSITION_AND_DIR: x=449.065*, z=139.363*, y=0.000*, direction=4.4°*
  1: 0x00AF [0x00] END_REQSTACK()
```

### Event 65535.17

#### Metadata

| Field        | Value    |
|--------------|----------|
| Entrypoint   | 0x00B0   |
| Data Size    | 14 bytes |
| Instructions | 4        |

```
      00 01 02 03 04 05 06 07  08 09 0A 0B 0C 0D 0E 0F
      -- -- -- -- -- -- -- --  -- -- -- -- -- -- -- --
00B0: 32 08 80 1F 00 26 80 27  80 28 80 1F 01 00        2....&.'.(....  
```

#### Opcodes

```
  0: 0x00B0 [0x32] ExtData[1]->MainSpeed = 13* * 0.1
  1: 0x00B3 [0x1F] MOVE_ENTITY: EventEntity moves to X=442.874*, Z=139.343*, Y=0.032*
  2: 0x00BB [0x1F] MOVE_ENTITY: Update entity position (mode=1)
  3: 0x00BD [0x00] END_REQSTACK()
```

### Event 65535.18

#### Metadata

| Field        | Value    |
|--------------|----------|
| Entrypoint   | 0x00BE   |
| Data Size    | 10 bytes |
| Instructions | 2        |

```
      00 01 02 03 04 05 06 07  08 09 0A 0B 0C 0D 0E 0F
      -- -- -- -- -- -- -- --  -- -- -- -- -- -- -- --
00B0:                                            37 02                7.
00C0: 80 29 80 2A 80 02 80 00                           .).*....        
```

#### Opcodes

```
  0: 0x00BE [0x37] UPDATE_EVENT_POSITION_AND_DIR: x=0.000*, z=-119.886*, y=-0.999*, direction=0.0°*
  1: 0x00C7 [0x00] END_REQSTACK()
```

### Event 30

#### Metadata

| Field        | Value     |
|--------------|-----------|
| Entrypoint   | 0x00C8    |
| Data Size    | 190 bytes |
| Instructions | 27        |

```
      00 01 02 03 04 05 06 07  08 09 0A 0B 0C 0D 0E 0F
      -- -- -- -- -- -- -- --  -- -- -- -- -- -- -- --
00C0:                          20 01 24 2B 80 2C 80 02           .$+.,..
00D0: 80 25 02 00 10 02 80 00  77 01 42 43 00 43 01 9F  .%......w.BC.C..
00E0: 2D 80 F0 FF FF 7F F0 FF  FF 7F 6D 61 69 6E 02 80  -.........main..
00F0: 1C 2E 80 45 2F 80 F0 FF  FF 7F F0 FF FF 7F 6F 76  ...E/.........ov
0100: 6C 31 02 80 45 2F 80 F0  FF FF 7F F0 FF FF 7F 62  l1..E/.........b
0110: 6C 6F 6E 02 80 45 30 80  F0 FF FF 7F F0 FF FF 7F  lon..E0.........
0120: 62 6C 6F 6E 02 80 45 31  80 F8 FF FF 7F F8 FF FF  blon..E1........
0130: 7F 77 32 32 31 02 80 1C  32 80 45 2F 80 F0 FF FF  .w221...2.E/....
0140: 7F F0 FF FF 7F 66 64 6F  31 02 80 1C 33 80 45 2F  .....fdo1...3.E/
0150: 80 F0 FF FF 7F F0 FF FF  7F 62 6C 6F 66 02 80 46  .........blof..F
0160: 00 47 00 34 80 35 80 02  80 36 80 47 01 29 01 F0  .G.4.5...6.G.)..
0170: FF FF 7F 25 01 82 01 02  00 10 2C 80 00 82 01 01  ...%......,.....
0180: 82 01 20 00 21 00                                 .. .!.          
```

#### Opcodes

```
  0: 0x00C8 [0x20] SET_CLI_EVENT_UC_FLAG: Lock player control
  1: 0x00CA [0x24] CREATE_DIALOG(message_id=7227*, default_option=1*, option_flags=0*)
    → "Enter the memory stream? [Yes./No.]"
  2: 0x00D1 [0x25] WAIT_DIALOG_SELECT()
  3: 0x00D2 [0x02] IF !(Work_Zone[0] == 0*) GOTO 0x0177
  4: 0x00DA [0x42] SET_CLI_EVENT_CANCEL_DATA()
  5: 0x00DB [0x43] SEND_EVENT_UPDATE: Send pending tag to server (packet 0x005B)
  6: 0x00DD [0x43] SEND_EVENT_UPDATE: Check pending flag (skip if not pending)
  7: 0x00DF [0x9F] LOAD_SCHEDULED_TASK_ALT: Load scheduler "main" with entities [LocalPlayer, LocalPlayer], work=[73*, 0*]
  8: 0x00F0 [0x1C] WAIT(140* ticks)
  9: 0x00F3 [0x45] LOAD_SCHEDULED_TASK: Load scheduler "ovl1" with entities [LocalPlayer, LocalPlayer], work=[200*, 0*]
 10: 0x0104 [0x45] LOAD_SCHEDULED_TASK: Load scheduler "blon" with entities [LocalPlayer, LocalPlayer], work=[200*, 0*]
 11: 0x0115 [0x45] LOAD_SCHEDULED_TASK: Load scheduler "blon" with entities [LocalPlayer, LocalPlayer], work=[201*, 0*]
 12: 0x0126 [0x45] LOAD_SCHEDULED_TASK: Load scheduler "w221" with entities [EventEntity, EventEntity], work=[160*, 0*]
 13: 0x0137 [0x1C] WAIT(270* ticks)
 14: 0x013A [0x45] LOAD_SCHEDULED_TASK: Load scheduler "fdo1" with entities [LocalPlayer, LocalPlayer], work=[200*, 0*]
 15: 0x014B [0x1C] WAIT(60* ticks)
 16: 0x014E [0x45] LOAD_SCHEDULED_TASK: Load scheduler "blof" with entities [LocalPlayer, LocalPlayer], work=[200*, 0*]
 17: 0x015F [0x46] CAMERA_CONTROL: Restore default settings
 18: 0x0161 [0x47] UPDATE_PLAYER_POS(434.046*, -267.928*, 0.000*, yaw=218.1°*)
 19: 0x016B [0x47] WAIT_PLAYER_POS_UPDATE
 20: 0x016D [0x29] REQ_SET_WAIT(priority=0x01, entity_id=LocalPlayer, tag_num=0x25)
 21: 0x0174 [0x01] GOTO 0x0182
 22: 0x0177 [0x02] IF !(Work_Zone[0] == 1*) GOTO 0x0182
 23: 0x017F [0x01] GOTO 0x0182

SUBROUTINE_0182:
 24: 0x0182 [0x20] SET_CLI_EVENT_UC_FLAG: Unlock player control
 25: 0x0184 [0x21] END_EVENT
 26: 0x0185 [0x00] END_REQSTACK()
```

### Event 31

#### Metadata

| Field        | Value     |
|--------------|-----------|
| Entrypoint   | 0x0186    |
| Data Size    | 190 bytes |
| Instructions | 27        |

```
      00 01 02 03 04 05 06 07  08 09 0A 0B 0C 0D 0E 0F
      -- -- -- -- -- -- -- --  -- -- -- -- -- -- -- --
0180:                   20 01  24 2B 80 2C 80 02 80 25         .$+.,...%
0190: 02 00 10 02 80 00 35 02  42 43 00 43 01 9F 2D 80  ......5.BC.C..-.
01A0: F0 FF FF 7F F0 FF FF 7F  6D 61 69 6E 02 80 1C 2E  ........main....
01B0: 80 45 2F 80 F0 FF FF 7F  F0 FF FF 7F 6F 76 6C 31  .E/.........ovl1
01C0: 02 80 45 2F 80 F0 FF FF  7F F0 FF FF 7F 62 6C 6F  ..E/.........blo
01D0: 6E 02 80 45 30 80 F0 FF  FF 7F F0 FF FF 7F 62 6C  n..E0.........bl
01E0: 6F 6E 02 80 45 31 80 F8  FF FF 7F F8 FF FF 7F 77  on..E1.........w
01F0: 32 32 32 02 80 1C 32 80  45 2F 80 F0 FF FF 7F F0  222...2.E/......
0200: FF FF 7F 66 64 6F 31 02  80 1C 33 80 45 2F 80 F0  ...fdo1...3.E/..
0210: FF FF 7F F0 FF FF 7F 62  6C 6F 66 02 80 46 00 47  .......blof..F.G
0220: 00 34 80 35 80 02 80 36  80 47 01 29 01 F0 FF FF  .4.5...6.G.)....
0230: 7F 25 01 40 02 02 00 10  2C 80 00 40 02 01 40 02  .%.@....,..@..@.
0240: 20 00 21 00                                        .!.            
```

#### Opcodes

```
  0: 0x0186 [0x20] SET_CLI_EVENT_UC_FLAG: Lock player control
  1: 0x0188 [0x24] CREATE_DIALOG(message_id=7227*, default_option=1*, option_flags=0*)
    → "Enter the memory stream? [Yes./No.]"
  2: 0x018F [0x25] WAIT_DIALOG_SELECT()
  3: 0x0190 [0x02] IF !(Work_Zone[0] == 0*) GOTO 0x0235
  4: 0x0198 [0x42] SET_CLI_EVENT_CANCEL_DATA()
  5: 0x0199 [0x43] SEND_EVENT_UPDATE: Send pending tag to server (packet 0x005B)
  6: 0x019B [0x43] SEND_EVENT_UPDATE: Check pending flag (skip if not pending)
  7: 0x019D [0x9F] LOAD_SCHEDULED_TASK_ALT: Load scheduler "main" with entities [LocalPlayer, LocalPlayer], work=[73*, 0*]
  8: 0x01AE [0x1C] WAIT(140* ticks)
  9: 0x01B1 [0x45] LOAD_SCHEDULED_TASK: Load scheduler "ovl1" with entities [LocalPlayer, LocalPlayer], work=[200*, 0*]
 10: 0x01C2 [0x45] LOAD_SCHEDULED_TASK: Load scheduler "blon" with entities [LocalPlayer, LocalPlayer], work=[200*, 0*]
 11: 0x01D3 [0x45] LOAD_SCHEDULED_TASK: Load scheduler "blon" with entities [LocalPlayer, LocalPlayer], work=[201*, 0*]
 12: 0x01E4 [0x45] LOAD_SCHEDULED_TASK: Load scheduler "w222" with entities [EventEntity, EventEntity], work=[160*, 0*]
 13: 0x01F5 [0x1C] WAIT(270* ticks)
 14: 0x01F8 [0x45] LOAD_SCHEDULED_TASK: Load scheduler "fdo1" with entities [LocalPlayer, LocalPlayer], work=[200*, 0*]
 15: 0x0209 [0x1C] WAIT(60* ticks)
 16: 0x020C [0x45] LOAD_SCHEDULED_TASK: Load scheduler "blof" with entities [LocalPlayer, LocalPlayer], work=[200*, 0*]
 17: 0x021D [0x46] CAMERA_CONTROL: Restore default settings
 18: 0x021F [0x47] UPDATE_PLAYER_POS(434.046*, -267.928*, 0.000*, yaw=218.1°*)
 19: 0x0229 [0x47] WAIT_PLAYER_POS_UPDATE
 20: 0x022B [0x29] REQ_SET_WAIT(priority=0x01, entity_id=LocalPlayer, tag_num=0x25)
 21: 0x0232 [0x01] GOTO 0x0240
 22: 0x0235 [0x02] IF !(Work_Zone[0] == 1*) GOTO 0x0240
 23: 0x023D [0x01] GOTO 0x0240

SUBROUTINE_0240:
 24: 0x0240 [0x20] SET_CLI_EVENT_UC_FLAG: Unlock player control
 25: 0x0242 [0x21] END_EVENT
 26: 0x0243 [0x00] END_REQSTACK()
```

### Event 32

#### Metadata

| Field        | Value     |
|--------------|-----------|
| Entrypoint   | 0x0244    |
| Data Size    | 190 bytes |
| Instructions | 27        |

```
      00 01 02 03 04 05 06 07  08 09 0A 0B 0C 0D 0E 0F
      -- -- -- -- -- -- -- --  -- -- -- -- -- -- -- --
0240:             20 01 24 2B  80 2C 80 02 80 25 02 00       .$+.,...%..
0250: 10 02 80 00 F3 02 42 43  00 43 01 9F 2D 80 F0 FF  ......BC.C..-...
0260: FF 7F F0 FF FF 7F 6D 61  69 6E 02 80 1C 2E 80 45  ......main.....E
0270: 2F 80 F0 FF FF 7F F0 FF  FF 7F 6F 76 6C 31 02 80  /.........ovl1..
0280: 45 2F 80 F0 FF FF 7F F0  FF FF 7F 62 6C 6F 6E 02  E/.........blon.
0290: 80 45 30 80 F0 FF FF 7F  F0 FF FF 7F 62 6C 6F 6E  .E0.........blon
02A0: 02 80 45 31 80 F8 FF FF  7F F8 FF FF 7F 77 32 32  ..E1.........w22
02B0: 33 02 80 1C 32 80 45 2F  80 F0 FF FF 7F F0 FF FF  3...2.E/........
02C0: 7F 66 64 6F 31 02 80 1C  33 80 45 2F 80 F0 FF FF  .fdo1...3.E/....
02D0: 7F F0 FF FF 7F 62 6C 6F  66 02 80 46 00 47 00 37  .....blof..F.G.7
02E0: 80 38 80 02 80 39 80 47  01 29 01 F0 FF FF 7F 25  .8...9.G.).....%
02F0: 01 FE 02 02 00 10 2C 80  00 FE 02 01 FE 02 20 00  ......,....... .
0300: 21 00                                             !.              
```

#### Opcodes

```
  0: 0x0244 [0x20] SET_CLI_EVENT_UC_FLAG: Lock player control
  1: 0x0246 [0x24] CREATE_DIALOG(message_id=7227*, default_option=1*, option_flags=0*)
    → "Enter the memory stream? [Yes./No.]"
  2: 0x024D [0x25] WAIT_DIALOG_SELECT()
  3: 0x024E [0x02] IF !(Work_Zone[0] == 0*) GOTO 0x02F3
  4: 0x0256 [0x42] SET_CLI_EVENT_CANCEL_DATA()
  5: 0x0257 [0x43] SEND_EVENT_UPDATE: Send pending tag to server (packet 0x005B)
  6: 0x0259 [0x43] SEND_EVENT_UPDATE: Check pending flag (skip if not pending)
  7: 0x025B [0x9F] LOAD_SCHEDULED_TASK_ALT: Load scheduler "main" with entities [LocalPlayer, LocalPlayer], work=[73*, 0*]
  8: 0x026C [0x1C] WAIT(140* ticks)
  9: 0x026F [0x45] LOAD_SCHEDULED_TASK: Load scheduler "ovl1" with entities [LocalPlayer, LocalPlayer], work=[200*, 0*]
 10: 0x0280 [0x45] LOAD_SCHEDULED_TASK: Load scheduler "blon" with entities [LocalPlayer, LocalPlayer], work=[200*, 0*]
 11: 0x0291 [0x45] LOAD_SCHEDULED_TASK: Load scheduler "blon" with entities [LocalPlayer, LocalPlayer], work=[201*, 0*]
 12: 0x02A2 [0x45] LOAD_SCHEDULED_TASK: Load scheduler "w223" with entities [EventEntity, EventEntity], work=[160*, 0*]
 13: 0x02B3 [0x1C] WAIT(270* ticks)
 14: 0x02B6 [0x45] LOAD_SCHEDULED_TASK: Load scheduler "fdo1" with entities [LocalPlayer, LocalPlayer], work=[200*, 0*]
 15: 0x02C7 [0x1C] WAIT(60* ticks)
 16: 0x02CA [0x45] LOAD_SCHEDULED_TASK: Load scheduler "blof" with entities [LocalPlayer, LocalPlayer], work=[200*, 0*]
 17: 0x02DB [0x46] CAMERA_CONTROL: Restore default settings
 18: 0x02DD [0x47] UPDATE_PLAYER_POS(132.383*, 314.310*, 0.000*, yaw=87.6°*)
 19: 0x02E7 [0x47] WAIT_PLAYER_POS_UPDATE
 20: 0x02E9 [0x29] REQ_SET_WAIT(priority=0x01, entity_id=LocalPlayer, tag_num=0x25)
 21: 0x02F0 [0x01] GOTO 0x02FE
 22: 0x02F3 [0x02] IF !(Work_Zone[0] == 1*) GOTO 0x02FE
 23: 0x02FB [0x01] GOTO 0x02FE

SUBROUTINE_02FE:
 24: 0x02FE [0x20] SET_CLI_EVENT_UC_FLAG: Unlock player control
 25: 0x0300 [0x21] END_EVENT
 26: 0x0301 [0x00] END_REQSTACK()
```

### Event 33

#### Metadata

| Field        | Value     |
|--------------|-----------|
| Entrypoint   | 0x0302    |
| Data Size    | 190 bytes |
| Instructions | 27        |

```
      00 01 02 03 04 05 06 07  08 09 0A 0B 0C 0D 0E 0F
      -- -- -- -- -- -- -- --  -- -- -- -- -- -- -- --
0300:       20 01 24 2B 80 2C  80 02 80 25 02 00 10 02     .$+.,...%....
0310: 80 00 B1 03 42 43 00 43  01 9F 2D 80 F0 FF FF 7F  ....BC.C..-.....
0320: F0 FF FF 7F 6D 61 69 6E  02 80 1C 2E 80 45 2F 80  ....main.....E/.
0330: F0 FF FF 7F F0 FF FF 7F  6F 76 6C 31 02 80 45 2F  ........ovl1..E/
0340: 80 F0 FF FF 7F F0 FF FF  7F 62 6C 6F 6E 02 80 45  .........blon..E
0350: 30 80 F0 FF FF 7F F0 FF  FF 7F 62 6C 6F 6E 02 80  0.........blon..
0360: 45 31 80 F8 FF FF 7F F8  FF FF 7F 77 32 32 34 02  E1.........w224.
0370: 80 1C 32 80 45 2F 80 F0  FF FF 7F F0 FF FF 7F 66  ..2.E/.........f
0380: 64 6F 31 02 80 1C 33 80  45 2F 80 F0 FF FF 7F F0  do1...3.E/......
0390: FF FF 7F 62 6C 6F 66 02  80 46 00 47 00 37 80 38  ...blof..F.G.7.8
03A0: 80 02 80 39 80 47 01 29  01 F0 FF FF 7F 25 01 BC  ...9.G.).....%..
03B0: 03 02 00 10 2C 80 00 BC  03 01 BC 03 20 00 21 00  ....,....... .!.
```

#### Opcodes

```
  0: 0x0302 [0x20] SET_CLI_EVENT_UC_FLAG: Lock player control
  1: 0x0304 [0x24] CREATE_DIALOG(message_id=7227*, default_option=1*, option_flags=0*)
    → "Enter the memory stream? [Yes./No.]"
  2: 0x030B [0x25] WAIT_DIALOG_SELECT()
  3: 0x030C [0x02] IF !(Work_Zone[0] == 0*) GOTO 0x03B1
  4: 0x0314 [0x42] SET_CLI_EVENT_CANCEL_DATA()
  5: 0x0315 [0x43] SEND_EVENT_UPDATE: Send pending tag to server (packet 0x005B)
  6: 0x0317 [0x43] SEND_EVENT_UPDATE: Check pending flag (skip if not pending)
  7: 0x0319 [0x9F] LOAD_SCHEDULED_TASK_ALT: Load scheduler "main" with entities [LocalPlayer, LocalPlayer], work=[73*, 0*]
  8: 0x032A [0x1C] WAIT(140* ticks)
  9: 0x032D [0x45] LOAD_SCHEDULED_TASK: Load scheduler "ovl1" with entities [LocalPlayer, LocalPlayer], work=[200*, 0*]
 10: 0x033E [0x45] LOAD_SCHEDULED_TASK: Load scheduler "blon" with entities [LocalPlayer, LocalPlayer], work=[200*, 0*]
 11: 0x034F [0x45] LOAD_SCHEDULED_TASK: Load scheduler "blon" with entities [LocalPlayer, LocalPlayer], work=[201*, 0*]
 12: 0x0360 [0x45] LOAD_SCHEDULED_TASK: Load scheduler "w224" with entities [EventEntity, EventEntity], work=[160*, 0*]
 13: 0x0371 [0x1C] WAIT(270* ticks)
 14: 0x0374 [0x45] LOAD_SCHEDULED_TASK: Load scheduler "fdo1" with entities [LocalPlayer, LocalPlayer], work=[200*, 0*]
 15: 0x0385 [0x1C] WAIT(60* ticks)
 16: 0x0388 [0x45] LOAD_SCHEDULED_TASK: Load scheduler "blof" with entities [LocalPlayer, LocalPlayer], work=[200*, 0*]
 17: 0x0399 [0x46] CAMERA_CONTROL: Restore default settings
 18: 0x039B [0x47] UPDATE_PLAYER_POS(132.383*, 314.310*, 0.000*, yaw=87.6°*)
 19: 0x03A5 [0x47] WAIT_PLAYER_POS_UPDATE
 20: 0x03A7 [0x29] REQ_SET_WAIT(priority=0x01, entity_id=LocalPlayer, tag_num=0x25)
 21: 0x03AE [0x01] GOTO 0x03BC
 22: 0x03B1 [0x02] IF !(Work_Zone[0] == 1*) GOTO 0x03BC
 23: 0x03B9 [0x01] GOTO 0x03BC

SUBROUTINE_03BC:
 24: 0x03BC [0x20] SET_CLI_EVENT_UC_FLAG: Unlock player control
 25: 0x03BE [0x21] END_EVENT
 26: 0x03BF [0x00] END_REQSTACK()
```

### Event 34

#### Metadata

| Field        | Value     |
|--------------|-----------|
| Entrypoint   | 0x03C0    |
| Data Size    | 190 bytes |
| Instructions | 27        |

```
      00 01 02 03 04 05 06 07  08 09 0A 0B 0C 0D 0E 0F
      -- -- -- -- -- -- -- --  -- -- -- -- -- -- -- --
03C0: 20 01 24 2B 80 2C 80 02  80 25 02 00 10 02 80 00   .$+.,...%......
03D0: 6F 04 42 43 00 43 01 9F  2D 80 F0 FF FF 7F F0 FF  o.BC.C..-.......
03E0: FF 7F 6D 61 69 6E 02 80  1C 2E 80 45 2F 80 F0 FF  ..main.....E/...
03F0: FF 7F F0 FF FF 7F 6F 76  6C 31 02 80 45 2F 80 F0  ......ovl1..E/..
0400: FF FF 7F F0 FF FF 7F 62  6C 6F 6E 02 80 45 30 80  .......blon..E0.
0410: F0 FF FF 7F F0 FF FF 7F  62 6C 6F 6E 02 80 45 31  ........blon..E1
0420: 80 F8 FF FF 7F F8 FF FF  7F 77 32 32 35 02 80 1C  .........w225...
0430: 32 80 45 2F 80 F0 FF FF  7F F0 FF FF 7F 66 64 6F  2.E/.........fdo
0440: 31 02 80 1C 33 80 45 2F  80 F0 FF FF 7F F0 FF FF  1...3.E/........
0450: 7F 62 6C 6F 66 02 80 46  00 47 00 3A 80 3B 80 02  .blof..F.G.:.;..
0460: 80 3C 80 47 01 29 01 F0  FF FF 7F 25 01 7A 04 02  .<.G.).....%.z..
0470: 00 10 2C 80 00 7A 04 01  7A 04 20 00 21 00        ..,..z..z. .!.  
```

#### Opcodes

```
  0: 0x03C0 [0x20] SET_CLI_EVENT_UC_FLAG: Lock player control
  1: 0x03C2 [0x24] CREATE_DIALOG(message_id=7227*, default_option=1*, option_flags=0*)
    → "Enter the memory stream? [Yes./No.]"
  2: 0x03C9 [0x25] WAIT_DIALOG_SELECT()
  3: 0x03CA [0x02] IF !(Work_Zone[0] == 0*) GOTO 0x046F
  4: 0x03D2 [0x42] SET_CLI_EVENT_CANCEL_DATA()
  5: 0x03D3 [0x43] SEND_EVENT_UPDATE: Send pending tag to server (packet 0x005B)
  6: 0x03D5 [0x43] SEND_EVENT_UPDATE: Check pending flag (skip if not pending)
  7: 0x03D7 [0x9F] LOAD_SCHEDULED_TASK_ALT: Load scheduler "main" with entities [LocalPlayer, LocalPlayer], work=[73*, 0*]
  8: 0x03E8 [0x1C] WAIT(140* ticks)
  9: 0x03EB [0x45] LOAD_SCHEDULED_TASK: Load scheduler "ovl1" with entities [LocalPlayer, LocalPlayer], work=[200*, 0*]
 10: 0x03FC [0x45] LOAD_SCHEDULED_TASK: Load scheduler "blon" with entities [LocalPlayer, LocalPlayer], work=[200*, 0*]
 11: 0x040D [0x45] LOAD_SCHEDULED_TASK: Load scheduler "blon" with entities [LocalPlayer, LocalPlayer], work=[201*, 0*]
 12: 0x041E [0x45] LOAD_SCHEDULED_TASK: Load scheduler "w225" with entities [EventEntity, EventEntity], work=[160*, 0*]
 13: 0x042F [0x1C] WAIT(270* ticks)
 14: 0x0432 [0x45] LOAD_SCHEDULED_TASK: Load scheduler "fdo1" with entities [LocalPlayer, LocalPlayer], work=[200*, 0*]
 15: 0x0443 [0x1C] WAIT(60* ticks)
 16: 0x0446 [0x45] LOAD_SCHEDULED_TASK: Load scheduler "blof" with entities [LocalPlayer, LocalPlayer], work=[200*, 0*]
 17: 0x0457 [0x46] CAMERA_CONTROL: Restore default settings
 18: 0x0459 [0x47] UPDATE_PLAYER_POS(43.314*, -13.000*, 0.000*, yaw=213.7°*)
 19: 0x0463 [0x47] WAIT_PLAYER_POS_UPDATE
 20: 0x0465 [0x29] REQ_SET_WAIT(priority=0x01, entity_id=LocalPlayer, tag_num=0x25)
 21: 0x046C [0x01] GOTO 0x047A
 22: 0x046F [0x02] IF !(Work_Zone[0] == 1*) GOTO 0x047A
 23: 0x0477 [0x01] GOTO 0x047A

SUBROUTINE_047A:
 24: 0x047A [0x20] SET_CLI_EVENT_UC_FLAG: Unlock player control
 25: 0x047C [0x21] END_EVENT
 26: 0x047D [0x00] END_REQSTACK()
```

### Event 35

#### Metadata

| Field        | Value     |
|--------------|-----------|
| Entrypoint   | 0x047E    |
| Data Size    | 190 bytes |
| Instructions | 27        |

```
      00 01 02 03 04 05 06 07  08 09 0A 0B 0C 0D 0E 0F
      -- -- -- -- -- -- -- --  -- -- -- -- -- -- -- --
0470:                                            20 01                 .
0480: 24 2B 80 2C 80 02 80 25  02 00 10 02 80 00 2D 05  $+.,...%......-.
0490: 42 43 00 43 01 9F 2D 80  F0 FF FF 7F F0 FF FF 7F  BC.C..-.........
04A0: 6D 61 69 6E 02 80 1C 2E  80 45 2F 80 F0 FF FF 7F  main.....E/.....
04B0: F0 FF FF 7F 6F 76 6C 31  02 80 45 2F 80 F0 FF FF  ....ovl1..E/....
04C0: 7F F0 FF FF 7F 62 6C 6F  6E 02 80 45 30 80 F0 FF  .....blon..E0...
04D0: FF 7F F0 FF FF 7F 62 6C  6F 6E 02 80 45 31 80 F8  ......blon..E1..
04E0: FF FF 7F F8 FF FF 7F 77  32 32 36 02 80 1C 32 80  .......w226...2.
04F0: 45 2F 80 F0 FF FF 7F F0  FF FF 7F 66 64 6F 31 02  E/.........fdo1.
0500: 80 1C 33 80 45 2F 80 F0  FF FF 7F F0 FF FF 7F 62  ..3.E/.........b
0510: 6C 6F 66 02 80 46 00 47  00 3D 80 3E 80 3F 80 40  lof..F.G.=.>.?.@
0520: 80 47 01 29 01 F0 FF FF  7F 25 01 38 05 02 00 10  .G.).....%.8....
0530: 2C 80 00 38 05 01 38 05  20 00 21 00              ,..8..8. .!.    
```

#### Opcodes

```
  0: 0x047E [0x20] SET_CLI_EVENT_UC_FLAG: Lock player control
  1: 0x0480 [0x24] CREATE_DIALOG(message_id=7227*, default_option=1*, option_flags=0*)
    → "Enter the memory stream? [Yes./No.]"
  2: 0x0487 [0x25] WAIT_DIALOG_SELECT()
  3: 0x0488 [0x02] IF !(Work_Zone[0] == 0*) GOTO 0x052D
  4: 0x0490 [0x42] SET_CLI_EVENT_CANCEL_DATA()
  5: 0x0491 [0x43] SEND_EVENT_UPDATE: Send pending tag to server (packet 0x005B)
  6: 0x0493 [0x43] SEND_EVENT_UPDATE: Check pending flag (skip if not pending)
  7: 0x0495 [0x9F] LOAD_SCHEDULED_TASK_ALT: Load scheduler "main" with entities [LocalPlayer, LocalPlayer], work=[73*, 0*]
  8: 0x04A6 [0x1C] WAIT(140* ticks)
  9: 0x04A9 [0x45] LOAD_SCHEDULED_TASK: Load scheduler "ovl1" with entities [LocalPlayer, LocalPlayer], work=[200*, 0*]
 10: 0x04BA [0x45] LOAD_SCHEDULED_TASK: Load scheduler "blon" with entities [LocalPlayer, LocalPlayer], work=[200*, 0*]
 11: 0x04CB [0x45] LOAD_SCHEDULED_TASK: Load scheduler "blon" with entities [LocalPlayer, LocalPlayer], work=[201*, 0*]
 12: 0x04DC [0x45] LOAD_SCHEDULED_TASK: Load scheduler "w226" with entities [EventEntity, EventEntity], work=[160*, 0*]
 13: 0x04ED [0x1C] WAIT(270* ticks)
 14: 0x04F0 [0x45] LOAD_SCHEDULED_TASK: Load scheduler "fdo1" with entities [LocalPlayer, LocalPlayer], work=[200*, 0*]
 15: 0x0501 [0x1C] WAIT(60* ticks)
 16: 0x0504 [0x45] LOAD_SCHEDULED_TASK: Load scheduler "blof" with entities [LocalPlayer, LocalPlayer], work=[200*, 0*]
 17: 0x0515 [0x46] CAMERA_CONTROL: Restore default settings
 18: 0x0517 [0x47] UPDATE_PLAYER_POS(258.613*, 141.882*, -0.624*, yaw=268.9°*)
 19: 0x0521 [0x47] WAIT_PLAYER_POS_UPDATE
 20: 0x0523 [0x29] REQ_SET_WAIT(priority=0x01, entity_id=LocalPlayer, tag_num=0x25)
 21: 0x052A [0x01] GOTO 0x0538
 22: 0x052D [0x02] IF !(Work_Zone[0] == 1*) GOTO 0x0538
 23: 0x0535 [0x01] GOTO 0x0538

SUBROUTINE_0538:
 24: 0x0538 [0x20] SET_CLI_EVENT_UC_FLAG: Unlock player control
 25: 0x053A [0x21] END_EVENT
 26: 0x053B [0x00] END_REQSTACK()
```

### Event 36

#### Metadata

| Field        | Value     |
|--------------|-----------|
| Entrypoint   | 0x053C    |
| Data Size    | 190 bytes |
| Instructions | 27        |

```
      00 01 02 03 04 05 06 07  08 09 0A 0B 0C 0D 0E 0F
      -- -- -- -- -- -- -- --  -- -- -- -- -- -- -- --
0530:                                      20 01 24 2B               .$+
0540: 80 2C 80 02 80 25 02 00  10 02 80 00 EB 05 42 43  .,...%........BC
0550: 00 43 01 9F 2D 80 F0 FF  FF 7F F0 FF FF 7F 6D 61  .C..-.........ma
0560: 69 6E 02 80 1C 2E 80 45  2F 80 F0 FF FF 7F F0 FF  in.....E/.......
0570: FF 7F 6F 76 6C 31 02 80  45 2F 80 F0 FF FF 7F F0  ..ovl1..E/......
0580: FF FF 7F 62 6C 6F 6E 02  80 45 30 80 F0 FF FF 7F  ...blon..E0.....
0590: F0 FF FF 7F 62 6C 6F 6E  02 80 45 31 80 F8 FF FF  ....blon..E1....
05A0: 7F F8 FF FF 7F 77 32 32  37 02 80 1C 32 80 45 2F  .....w227...2.E/
05B0: 80 F0 FF FF 7F F0 FF FF  7F 66 64 6F 31 02 80 1C  .........fdo1...
05C0: 33 80 45 2F 80 F0 FF FF  7F F0 FF FF 7F 62 6C 6F  3.E/.........blo
05D0: 66 02 80 46 00 47 00 3D  80 3E 80 3F 80 40 80 47  f..F.G.=.>.?.@.G
05E0: 01 29 01 F0 FF FF 7F 25  01 F6 05 02 00 10 2C 80  .).....%......,.
05F0: 00 F6 05 01 F6 05 20 00  21 00                    ...... .!.      
```

#### Opcodes

```
  0: 0x053C [0x20] SET_CLI_EVENT_UC_FLAG: Lock player control
  1: 0x053E [0x24] CREATE_DIALOG(message_id=7227*, default_option=1*, option_flags=0*)
    → "Enter the memory stream? [Yes./No.]"
  2: 0x0545 [0x25] WAIT_DIALOG_SELECT()
  3: 0x0546 [0x02] IF !(Work_Zone[0] == 0*) GOTO 0x05EB
  4: 0x054E [0x42] SET_CLI_EVENT_CANCEL_DATA()
  5: 0x054F [0x43] SEND_EVENT_UPDATE: Send pending tag to server (packet 0x005B)
  6: 0x0551 [0x43] SEND_EVENT_UPDATE: Check pending flag (skip if not pending)
  7: 0x0553 [0x9F] LOAD_SCHEDULED_TASK_ALT: Load scheduler "main" with entities [LocalPlayer, LocalPlayer], work=[73*, 0*]
  8: 0x0564 [0x1C] WAIT(140* ticks)
  9: 0x0567 [0x45] LOAD_SCHEDULED_TASK: Load scheduler "ovl1" with entities [LocalPlayer, LocalPlayer], work=[200*, 0*]
 10: 0x0578 [0x45] LOAD_SCHEDULED_TASK: Load scheduler "blon" with entities [LocalPlayer, LocalPlayer], work=[200*, 0*]
 11: 0x0589 [0x45] LOAD_SCHEDULED_TASK: Load scheduler "blon" with entities [LocalPlayer, LocalPlayer], work=[201*, 0*]
 12: 0x059A [0x45] LOAD_SCHEDULED_TASK: Load scheduler "w227" with entities [EventEntity, EventEntity], work=[160*, 0*]
 13: 0x05AB [0x1C] WAIT(270* ticks)
 14: 0x05AE [0x45] LOAD_SCHEDULED_TASK: Load scheduler "fdo1" with entities [LocalPlayer, LocalPlayer], work=[200*, 0*]
 15: 0x05BF [0x1C] WAIT(60* ticks)
 16: 0x05C2 [0x45] LOAD_SCHEDULED_TASK: Load scheduler "blof" with entities [LocalPlayer, LocalPlayer], work=[200*, 0*]
 17: 0x05D3 [0x46] CAMERA_CONTROL: Restore default settings
 18: 0x05D5 [0x47] UPDATE_PLAYER_POS(258.613*, 141.882*, -0.624*, yaw=268.9°*)
 19: 0x05DF [0x47] WAIT_PLAYER_POS_UPDATE
 20: 0x05E1 [0x29] REQ_SET_WAIT(priority=0x01, entity_id=LocalPlayer, tag_num=0x25)
 21: 0x05E8 [0x01] GOTO 0x05F6
 22: 0x05EB [0x02] IF !(Work_Zone[0] == 1*) GOTO 0x05F6
 23: 0x05F3 [0x01] GOTO 0x05F6

SUBROUTINE_05F6:
 24: 0x05F6 [0x20] SET_CLI_EVENT_UC_FLAG: Unlock player control
 25: 0x05F8 [0x21] END_EVENT
 26: 0x05F9 [0x00] END_REQSTACK()
```

### Event 37

#### Metadata

| Field        | Value     |
|--------------|-----------|
| Entrypoint   | 0x05FA    |
| Data Size    | 190 bytes |
| Instructions | 27        |

```
      00 01 02 03 04 05 06 07  08 09 0A 0B 0C 0D 0E 0F
      -- -- -- -- -- -- -- --  -- -- -- -- -- -- -- --
05F0:                                20 01 24 2B 80 2C             .$+.,
0600: 80 02 80 25 02 00 10 02  80 00 A9 06 42 43 00 43  ...%........BC.C
0610: 01 9F 2D 80 F0 FF FF 7F  F0 FF FF 7F 6D 61 69 6E  ..-.........main
0620: 02 80 1C 2E 80 45 2F 80  F0 FF FF 7F F0 FF FF 7F  .....E/.........
0630: 6F 76 6C 31 02 80 45 2F  80 F0 FF FF 7F F0 FF FF  ovl1..E/........
0640: 7F 62 6C 6F 6E 02 80 45  30 80 F0 FF FF 7F F0 FF  .blon..E0.......
0650: FF 7F 62 6C 6F 6E 02 80  45 31 80 F8 FF FF 7F F8  ..blon..E1......
0660: FF FF 7F 77 32 32 38 02  80 1C 32 80 45 2F 80 F0  ...w228...2.E/..
0670: FF FF 7F F0 FF FF 7F 66  64 6F 31 02 80 1C 33 80  .......fdo1...3.
0680: 45 2F 80 F0 FF FF 7F F0  FF FF 7F 62 6C 6F 66 02  E/.........blof.
0690: 80 46 00 47 00 3D 80 3E  80 3F 80 40 80 47 01 29  .F.G.=.>.?.@.G.)
06A0: 01 F0 FF FF 7F 25 01 B4  06 02 00 10 2C 80 00 B4  .....%......,...
06B0: 06 01 B4 06 20 00 21 00                           .... .!.        
```

#### Opcodes

```
  0: 0x05FA [0x20] SET_CLI_EVENT_UC_FLAG: Lock player control
  1: 0x05FC [0x24] CREATE_DIALOG(message_id=7227*, default_option=1*, option_flags=0*)
    → "Enter the memory stream? [Yes./No.]"
  2: 0x0603 [0x25] WAIT_DIALOG_SELECT()
  3: 0x0604 [0x02] IF !(Work_Zone[0] == 0*) GOTO 0x06A9
  4: 0x060C [0x42] SET_CLI_EVENT_CANCEL_DATA()
  5: 0x060D [0x43] SEND_EVENT_UPDATE: Send pending tag to server (packet 0x005B)
  6: 0x060F [0x43] SEND_EVENT_UPDATE: Check pending flag (skip if not pending)
  7: 0x0611 [0x9F] LOAD_SCHEDULED_TASK_ALT: Load scheduler "main" with entities [LocalPlayer, LocalPlayer], work=[73*, 0*]
  8: 0x0622 [0x1C] WAIT(140* ticks)
  9: 0x0625 [0x45] LOAD_SCHEDULED_TASK: Load scheduler "ovl1" with entities [LocalPlayer, LocalPlayer], work=[200*, 0*]
 10: 0x0636 [0x45] LOAD_SCHEDULED_TASK: Load scheduler "blon" with entities [LocalPlayer, LocalPlayer], work=[200*, 0*]
 11: 0x0647 [0x45] LOAD_SCHEDULED_TASK: Load scheduler "blon" with entities [LocalPlayer, LocalPlayer], work=[201*, 0*]
 12: 0x0658 [0x45] LOAD_SCHEDULED_TASK: Load scheduler "w228" with entities [EventEntity, EventEntity], work=[160*, 0*]
 13: 0x0669 [0x1C] WAIT(270* ticks)
 14: 0x066C [0x45] LOAD_SCHEDULED_TASK: Load scheduler "fdo1" with entities [LocalPlayer, LocalPlayer], work=[200*, 0*]
 15: 0x067D [0x1C] WAIT(60* ticks)
 16: 0x0680 [0x45] LOAD_SCHEDULED_TASK: Load scheduler "blof" with entities [LocalPlayer, LocalPlayer], work=[200*, 0*]
 17: 0x0691 [0x46] CAMERA_CONTROL: Restore default settings
 18: 0x0693 [0x47] UPDATE_PLAYER_POS(258.613*, 141.882*, -0.624*, yaw=268.9°*)
 19: 0x069D [0x47] WAIT_PLAYER_POS_UPDATE
 20: 0x069F [0x29] REQ_SET_WAIT(priority=0x01, entity_id=LocalPlayer, tag_num=0x25)
 21: 0x06A6 [0x01] GOTO 0x06B4
 22: 0x06A9 [0x02] IF !(Work_Zone[0] == 1*) GOTO 0x06B4
 23: 0x06B1 [0x01] GOTO 0x06B4

SUBROUTINE_06B4:
 24: 0x06B4 [0x20] SET_CLI_EVENT_UC_FLAG: Unlock player control
 25: 0x06B6 [0x21] END_EVENT
 26: 0x06B7 [0x00] END_REQSTACK()
```

### Event 38

#### Metadata

| Field        | Value     |
|--------------|-----------|
| Entrypoint   | 0x06B8    |
| Data Size    | 188 bytes |
| Instructions | 26        |

```
      00 01 02 03 04 05 06 07  08 09 0A 0B 0C 0D 0E 0F
      -- -- -- -- -- -- -- --  -- -- -- -- -- -- -- --
06B0:                          24 2B 80 2C 80 02 80 25          $+.,...%
06C0: 02 00 10 02 80 00 65 07  42 43 00 43 01 9F 2D 80  ......e.BC.C..-.
06D0: F0 FF FF 7F F0 FF FF 7F  6D 61 69 6E 02 80 1C 2E  ........main....
06E0: 80 45 2F 80 F0 FF FF 7F  F0 FF FF 7F 6F 76 6C 31  .E/.........ovl1
06F0: 02 80 45 2F 80 F0 FF FF  7F F0 FF FF 7F 62 6C 6F  ..E/.........blo
0700: 6E 02 80 45 30 80 F0 FF  FF 7F F0 FF FF 7F 62 6C  n..E0.........bl
0710: 6F 6E 02 80 45 31 80 F8  FF FF 7F F8 FF FF 7F 77  on..E1.........w
0720: 32 32 39 02 80 1C 32 80  45 2F 80 F0 FF FF 7F F0  229...2.E/......
0730: FF FF 7F 66 64 6F 31 02  80 1C 33 80 45 2F 80 F0  ...fdo1...3.E/..
0740: FF FF 7F F0 FF FF 7F 62  6C 6F 66 02 80 46 00 47  .......blof..F.G
0750: 00 3D 80 3E 80 3F 80 40  80 47 01 29 01 F0 FF FF  .=.>.?.@.G.)....
0760: 7F 25 01 70 07 02 00 10  2C 80 00 70 07 01 70 07  .%.p....,..p..p.
0770: 20 00 21 00                                        .!.            
```

#### Opcodes

```
  0: 0x06B8 [0x24] CREATE_DIALOG(message_id=7227*, default_option=1*, option_flags=0*)
    → "Enter the memory stream? [Yes./No.]"
  1: 0x06BF [0x25] WAIT_DIALOG_SELECT()
  2: 0x06C0 [0x02] IF !(Work_Zone[0] == 0*) GOTO 0x0765
  3: 0x06C8 [0x42] SET_CLI_EVENT_CANCEL_DATA()
  4: 0x06C9 [0x43] SEND_EVENT_UPDATE: Send pending tag to server (packet 0x005B)
  5: 0x06CB [0x43] SEND_EVENT_UPDATE: Check pending flag (skip if not pending)
  6: 0x06CD [0x9F] LOAD_SCHEDULED_TASK_ALT: Load scheduler "main" with entities [LocalPlayer, LocalPlayer], work=[73*, 0*]
  7: 0x06DE [0x1C] WAIT(140* ticks)
  8: 0x06E1 [0x45] LOAD_SCHEDULED_TASK: Load scheduler "ovl1" with entities [LocalPlayer, LocalPlayer], work=[200*, 0*]
  9: 0x06F2 [0x45] LOAD_SCHEDULED_TASK: Load scheduler "blon" with entities [LocalPlayer, LocalPlayer], work=[200*, 0*]
 10: 0x0703 [0x45] LOAD_SCHEDULED_TASK: Load scheduler "blon" with entities [LocalPlayer, LocalPlayer], work=[201*, 0*]
 11: 0x0714 [0x45] LOAD_SCHEDULED_TASK: Load scheduler "w229" with entities [EventEntity, EventEntity], work=[160*, 0*]
 12: 0x0725 [0x1C] WAIT(270* ticks)
 13: 0x0728 [0x45] LOAD_SCHEDULED_TASK: Load scheduler "fdo1" with entities [LocalPlayer, LocalPlayer], work=[200*, 0*]
 14: 0x0739 [0x1C] WAIT(60* ticks)
 15: 0x073C [0x45] LOAD_SCHEDULED_TASK: Load scheduler "blof" with entities [LocalPlayer, LocalPlayer], work=[200*, 0*]
 16: 0x074D [0x46] CAMERA_CONTROL: Restore default settings
 17: 0x074F [0x47] UPDATE_PLAYER_POS(258.613*, 141.882*, -0.624*, yaw=268.9°*)
 18: 0x0759 [0x47] WAIT_PLAYER_POS_UPDATE
 19: 0x075B [0x29] REQ_SET_WAIT(priority=0x01, entity_id=LocalPlayer, tag_num=0x25)
 20: 0x0762 [0x01] GOTO 0x0770
 21: 0x0765 [0x02] IF !(Work_Zone[0] == 1*) GOTO 0x0770
 22: 0x076D [0x01] GOTO 0x0770

SUBROUTINE_0770:
 23: 0x0770 [0x20] SET_CLI_EVENT_UC_FLAG: Unlock player control
 24: 0x0772 [0x21] END_EVENT
 25: 0x0773 [0x00] END_REQSTACK()
```

### Event 39

#### Metadata

| Field        | Value     |
|--------------|-----------|
| Entrypoint   | 0x0774    |
| Data Size    | 188 bytes |
| Instructions | 26        |

```
      00 01 02 03 04 05 06 07  08 09 0A 0B 0C 0D 0E 0F
      -- -- -- -- -- -- -- --  -- -- -- -- -- -- -- --
0770:             24 2B 80 2C  80 02 80 25 02 00 10 02      $+.,...%....
0780: 80 00 21 08 42 43 00 43  01 9F 2D 80 F0 FF FF 7F  ..!.BC.C..-.....
0790: F0 FF FF 7F 6D 61 69 6E  02 80 1C 2E 80 45 2F 80  ....main.....E/.
07A0: F0 FF FF 7F F0 FF FF 7F  6F 76 6C 31 02 80 45 2F  ........ovl1..E/
07B0: 80 F0 FF FF 7F F0 FF FF  7F 62 6C 6F 6E 02 80 45  .........blon..E
07C0: 30 80 F0 FF FF 7F F0 FF  FF 7F 62 6C 6F 6E 02 80  0.........blon..
07D0: 45 31 80 F8 FF FF 7F F8  FF FF 7F 77 32 32 61 02  E1.........w22a.
07E0: 80 1C 32 80 45 2F 80 F0  FF FF 7F F0 FF FF 7F 66  ..2.E/.........f
07F0: 64 6F 31 02 80 1C 33 80  45 2F 80 F0 FF FF 7F F0  do1...3.E/......
0800: FF FF 7F 62 6C 6F 66 02  80 46 00 47 00 3A 80 3B  ...blof..F.G.:.;
0810: 80 02 80 3C 80 47 01 29  01 F0 FF FF 7F 25 01 2C  ...<.G.).....%.,
0820: 08 02 00 10 2C 80 00 2C  08 01 2C 08 20 00 21 00  ....,..,..,. .!.
```

#### Opcodes

```
  0: 0x0774 [0x24] CREATE_DIALOG(message_id=7227*, default_option=1*, option_flags=0*)
    → "Enter the memory stream? [Yes./No.]"
  1: 0x077B [0x25] WAIT_DIALOG_SELECT()
  2: 0x077C [0x02] IF !(Work_Zone[0] == 0*) GOTO 0x0821
  3: 0x0784 [0x42] SET_CLI_EVENT_CANCEL_DATA()
  4: 0x0785 [0x43] SEND_EVENT_UPDATE: Send pending tag to server (packet 0x005B)
  5: 0x0787 [0x43] SEND_EVENT_UPDATE: Check pending flag (skip if not pending)
  6: 0x0789 [0x9F] LOAD_SCHEDULED_TASK_ALT: Load scheduler "main" with entities [LocalPlayer, LocalPlayer], work=[73*, 0*]
  7: 0x079A [0x1C] WAIT(140* ticks)
  8: 0x079D [0x45] LOAD_SCHEDULED_TASK: Load scheduler "ovl1" with entities [LocalPlayer, LocalPlayer], work=[200*, 0*]
  9: 0x07AE [0x45] LOAD_SCHEDULED_TASK: Load scheduler "blon" with entities [LocalPlayer, LocalPlayer], work=[200*, 0*]
 10: 0x07BF [0x45] LOAD_SCHEDULED_TASK: Load scheduler "blon" with entities [LocalPlayer, LocalPlayer], work=[201*, 0*]
 11: 0x07D0 [0x45] LOAD_SCHEDULED_TASK: Load scheduler "w22a" with entities [EventEntity, EventEntity], work=[160*, 0*]
 12: 0x07E1 [0x1C] WAIT(270* ticks)
 13: 0x07E4 [0x45] LOAD_SCHEDULED_TASK: Load scheduler "fdo1" with entities [LocalPlayer, LocalPlayer], work=[200*, 0*]
 14: 0x07F5 [0x1C] WAIT(60* ticks)
 15: 0x07F8 [0x45] LOAD_SCHEDULED_TASK: Load scheduler "blof" with entities [LocalPlayer, LocalPlayer], work=[200*, 0*]
 16: 0x0809 [0x46] CAMERA_CONTROL: Restore default settings
 17: 0x080B [0x47] UPDATE_PLAYER_POS(43.314*, -13.000*, 0.000*, yaw=213.7°*)
 18: 0x0815 [0x47] WAIT_PLAYER_POS_UPDATE
 19: 0x0817 [0x29] REQ_SET_WAIT(priority=0x01, entity_id=LocalPlayer, tag_num=0x25)
 20: 0x081E [0x01] GOTO 0x082C
 21: 0x0821 [0x02] IF !(Work_Zone[0] == 1*) GOTO 0x082C
 22: 0x0829 [0x01] GOTO 0x082C

SUBROUTINE_082C:
 23: 0x082C [0x20] SET_CLI_EVENT_UC_FLAG: Unlock player control
 24: 0x082E [0x21] END_EVENT
 25: 0x082F [0x00] END_REQSTACK()
```

### Event 40

#### Metadata

| Field        | Value     |
|--------------|-----------|
| Entrypoint   | 0x0830    |
| Data Size    | 188 bytes |
| Instructions | 26        |

```
      00 01 02 03 04 05 06 07  08 09 0A 0B 0C 0D 0E 0F
      -- -- -- -- -- -- -- --  -- -- -- -- -- -- -- --
0830: 24 2B 80 2C 80 02 80 25  02 00 10 02 80 00 DD 08  $+.,...%........
0840: 42 43 00 43 01 9F 2D 80  F0 FF FF 7F F0 FF FF 7F  BC.C..-.........
0850: 6D 61 69 6E 02 80 1C 2E  80 45 2F 80 F0 FF FF 7F  main.....E/.....
0860: F0 FF FF 7F 6F 76 6C 31  02 80 45 2F 80 F0 FF FF  ....ovl1..E/....
0870: 7F F0 FF FF 7F 62 6C 6F  6E 02 80 45 30 80 F0 FF  .....blon..E0...
0880: FF 7F F0 FF FF 7F 62 6C  6F 6E 02 80 45 31 80 F8  ......blon..E1..
0890: FF FF 7F F8 FF FF 7F 77  32 32 62 02 80 1C 32 80  .......w22b...2.
08A0: 45 2F 80 F0 FF FF 7F F0  FF FF 7F 66 64 6F 31 02  E/.........fdo1.
08B0: 80 1C 33 80 45 2F 80 F0  FF FF 7F F0 FF FF 7F 62  ..3.E/.........b
08C0: 6C 6F 66 02 80 46 00 47  00 3A 80 3B 80 02 80 3C  lof..F.G.:.;...<
08D0: 80 47 01 29 01 F0 FF FF  7F 25 01 E8 08 02 00 10  .G.).....%......
08E0: 2C 80 00 E8 08 01 E8 08  20 00 21 00              ,....... .!.    
```

#### Opcodes

```
  0: 0x0830 [0x24] CREATE_DIALOG(message_id=7227*, default_option=1*, option_flags=0*)
    → "Enter the memory stream? [Yes./No.]"
  1: 0x0837 [0x25] WAIT_DIALOG_SELECT()
  2: 0x0838 [0x02] IF !(Work_Zone[0] == 0*) GOTO 0x08DD
  3: 0x0840 [0x42] SET_CLI_EVENT_CANCEL_DATA()
  4: 0x0841 [0x43] SEND_EVENT_UPDATE: Send pending tag to server (packet 0x005B)
  5: 0x0843 [0x43] SEND_EVENT_UPDATE: Check pending flag (skip if not pending)
  6: 0x0845 [0x9F] LOAD_SCHEDULED_TASK_ALT: Load scheduler "main" with entities [LocalPlayer, LocalPlayer], work=[73*, 0*]
  7: 0x0856 [0x1C] WAIT(140* ticks)
  8: 0x0859 [0x45] LOAD_SCHEDULED_TASK: Load scheduler "ovl1" with entities [LocalPlayer, LocalPlayer], work=[200*, 0*]
  9: 0x086A [0x45] LOAD_SCHEDULED_TASK: Load scheduler "blon" with entities [LocalPlayer, LocalPlayer], work=[200*, 0*]
 10: 0x087B [0x45] LOAD_SCHEDULED_TASK: Load scheduler "blon" with entities [LocalPlayer, LocalPlayer], work=[201*, 0*]
 11: 0x088C [0x45] LOAD_SCHEDULED_TASK: Load scheduler "w22b" with entities [EventEntity, EventEntity], work=[160*, 0*]
 12: 0x089D [0x1C] WAIT(270* ticks)
 13: 0x08A0 [0x45] LOAD_SCHEDULED_TASK: Load scheduler "fdo1" with entities [LocalPlayer, LocalPlayer], work=[200*, 0*]
 14: 0x08B1 [0x1C] WAIT(60* ticks)
 15: 0x08B4 [0x45] LOAD_SCHEDULED_TASK: Load scheduler "blof" with entities [LocalPlayer, LocalPlayer], work=[200*, 0*]
 16: 0x08C5 [0x46] CAMERA_CONTROL: Restore default settings
 17: 0x08C7 [0x47] UPDATE_PLAYER_POS(43.314*, -13.000*, 0.000*, yaw=213.7°*)
 18: 0x08D1 [0x47] WAIT_PLAYER_POS_UPDATE
 19: 0x08D3 [0x29] REQ_SET_WAIT(priority=0x01, entity_id=LocalPlayer, tag_num=0x25)
 20: 0x08DA [0x01] GOTO 0x08E8
 21: 0x08DD [0x02] IF !(Work_Zone[0] == 1*) GOTO 0x08E8
 22: 0x08E5 [0x01] GOTO 0x08E8

SUBROUTINE_08E8:
 23: 0x08E8 [0x20] SET_CLI_EVENT_UC_FLAG: Unlock player control
 24: 0x08EA [0x21] END_EVENT
 25: 0x08EB [0x00] END_REQSTACK()
```

### Event 41

#### Metadata

| Field        | Value     |
|--------------|-----------|
| Entrypoint   | 0x08EC    |
| Data Size    | 188 bytes |
| Instructions | 26        |

```
      00 01 02 03 04 05 06 07  08 09 0A 0B 0C 0D 0E 0F
      -- -- -- -- -- -- -- --  -- -- -- -- -- -- -- --
08E0:                                      24 41 80 2C              $A.,
08F0: 80 02 80 25 02 00 10 02  80 00 99 09 42 43 00 43  ...%........BC.C
0900: 01 9F 2D 80 F0 FF FF 7F  F0 FF FF 7F 6D 61 69 6E  ..-.........main
0910: 02 80 1C 2E 80 45 2F 80  F0 FF FF 7F F0 FF FF 7F  .....E/.........
0920: 6F 76 6C 31 02 80 45 2F  80 F0 FF FF 7F F0 FF FF  ovl1..E/........
0930: 7F 62 6C 6F 6E 02 80 45  30 80 F0 FF FF 7F F0 FF  .blon..E0.......
0940: FF 7F 62 6C 6F 6E 02 80  45 31 80 F8 FF FF 7F F8  ..blon..E1......
0950: FF FF 7F 77 32 32 63 02  80 1C 32 80 45 2F 80 F0  ...w22c...2.E/..
0960: FF FF 7F F0 FF FF 7F 66  64 6F 31 02 80 1C 33 80  .......fdo1...3.
0970: 45 2F 80 F0 FF FF 7F F0  FF FF 7F 62 6C 6F 66 02  E/.........blof.
0980: 80 46 00 47 00 42 80 43  80 44 80 45 80 47 01 29  .F.G.B.C.D.E.G.)
0990: 01 F0 FF FF 7F 25 01 A4  09 02 00 10 2C 80 00 A4  .....%......,...
09A0: 09 01 A4 09 20 00 21 00                           .... .!.        
```

#### Opcodes

```
  0: 0x08EC [0x24] CREATE_DIALOG(message_id=7228*, default_option=1*, option_flags=0*)
    → "Return through the memory stream? [Yes./No.]"
  1: 0x08F3 [0x25] WAIT_DIALOG_SELECT()
  2: 0x08F4 [0x02] IF !(Work_Zone[0] == 0*) GOTO 0x0999
  3: 0x08FC [0x42] SET_CLI_EVENT_CANCEL_DATA()
  4: 0x08FD [0x43] SEND_EVENT_UPDATE: Send pending tag to server (packet 0x005B)
  5: 0x08FF [0x43] SEND_EVENT_UPDATE: Check pending flag (skip if not pending)
  6: 0x0901 [0x9F] LOAD_SCHEDULED_TASK_ALT: Load scheduler "main" with entities [LocalPlayer, LocalPlayer], work=[73*, 0*]
  7: 0x0912 [0x1C] WAIT(140* ticks)
  8: 0x0915 [0x45] LOAD_SCHEDULED_TASK: Load scheduler "ovl1" with entities [LocalPlayer, LocalPlayer], work=[200*, 0*]
  9: 0x0926 [0x45] LOAD_SCHEDULED_TASK: Load scheduler "blon" with entities [LocalPlayer, LocalPlayer], work=[200*, 0*]
 10: 0x0937 [0x45] LOAD_SCHEDULED_TASK: Load scheduler "blon" with entities [LocalPlayer, LocalPlayer], work=[201*, 0*]
 11: 0x0948 [0x45] LOAD_SCHEDULED_TASK: Load scheduler "w22c" with entities [EventEntity, EventEntity], work=[160*, 0*]
 12: 0x0959 [0x1C] WAIT(270* ticks)
 13: 0x095C [0x45] LOAD_SCHEDULED_TASK: Load scheduler "fdo1" with entities [LocalPlayer, LocalPlayer], work=[200*, 0*]
 14: 0x096D [0x1C] WAIT(60* ticks)
 15: 0x0970 [0x45] LOAD_SCHEDULED_TASK: Load scheduler "blof" with entities [LocalPlayer, LocalPlayer], work=[200*, 0*]
 16: 0x0981 [0x46] CAMERA_CONTROL: Restore default settings
 17: 0x0983 [0x47] UPDATE_PLAYER_POS(-14.744*, -119.736*, 0.036*, yaw=1.8°*)
 18: 0x098D [0x47] WAIT_PLAYER_POS_UPDATE
 19: 0x098F [0x29] REQ_SET_WAIT(priority=0x01, entity_id=LocalPlayer, tag_num=0x25)
 20: 0x0996 [0x01] GOTO 0x09A4
 21: 0x0999 [0x02] IF !(Work_Zone[0] == 1*) GOTO 0x09A4
 22: 0x09A1 [0x01] GOTO 0x09A4

SUBROUTINE_09A4:
 23: 0x09A4 [0x20] SET_CLI_EVENT_UC_FLAG: Unlock player control
 24: 0x09A6 [0x21] END_EVENT
 25: 0x09A7 [0x00] END_REQSTACK()
```

### Event 42

#### Metadata

| Field        | Value     |
|--------------|-----------|
| Entrypoint   | 0x09A8    |
| Data Size    | 188 bytes |
| Instructions | 26        |

```
      00 01 02 03 04 05 06 07  08 09 0A 0B 0C 0D 0E 0F
      -- -- -- -- -- -- -- --  -- -- -- -- -- -- -- --
09A0:                          24 41 80 2C 80 02 80 25          $A.,...%
09B0: 02 00 10 02 80 00 55 0A  42 43 00 43 01 9F 2D 80  ......U.BC.C..-.
09C0: F0 FF FF 7F F0 FF FF 7F  6D 61 69 6E 02 80 1C 2E  ........main....
09D0: 80 45 2F 80 F0 FF FF 7F  F0 FF FF 7F 6F 76 6C 31  .E/.........ovl1
09E0: 02 80 45 2F 80 F0 FF FF  7F F0 FF FF 7F 62 6C 6F  ..E/.........blo
09F0: 6E 02 80 45 30 80 F0 FF  FF 7F F0 FF FF 7F 62 6C  n..E0.........bl
0A00: 6F 6E 02 80 45 31 80 F8  FF FF 7F F8 FF FF 7F 77  on..E1.........w
0A10: 32 32 64 02 80 1C 32 80  45 2F 80 F0 FF FF 7F F0  22d...2.E/......
0A20: FF FF 7F 66 64 6F 31 02  80 1C 33 80 45 2F 80 F0  ...fdo1...3.E/..
0A30: FF FF 7F F0 FF FF 7F 62  6C 6F 66 02 80 46 00 47  .......blof..F.G
0A40: 00 37 80 38 80 02 80 39  80 47 01 29 01 F0 FF FF  .7.8...9.G.)....
0A50: 7F 25 01 60 0A 02 00 10  2C 80 00 60 0A 01 60 0A  .%.`....,..`..`.
0A60: 20 00 21 00                                        .!.            
```

#### Opcodes

```
  0: 0x09A8 [0x24] CREATE_DIALOG(message_id=7228*, default_option=1*, option_flags=0*)
    → "Return through the memory stream? [Yes./No.]"
  1: 0x09AF [0x25] WAIT_DIALOG_SELECT()
  2: 0x09B0 [0x02] IF !(Work_Zone[0] == 0*) GOTO 0x0A55
  3: 0x09B8 [0x42] SET_CLI_EVENT_CANCEL_DATA()
  4: 0x09B9 [0x43] SEND_EVENT_UPDATE: Send pending tag to server (packet 0x005B)
  5: 0x09BB [0x43] SEND_EVENT_UPDATE: Check pending flag (skip if not pending)
  6: 0x09BD [0x9F] LOAD_SCHEDULED_TASK_ALT: Load scheduler "main" with entities [LocalPlayer, LocalPlayer], work=[73*, 0*]
  7: 0x09CE [0x1C] WAIT(140* ticks)
  8: 0x09D1 [0x45] LOAD_SCHEDULED_TASK: Load scheduler "ovl1" with entities [LocalPlayer, LocalPlayer], work=[200*, 0*]
  9: 0x09E2 [0x45] LOAD_SCHEDULED_TASK: Load scheduler "blon" with entities [LocalPlayer, LocalPlayer], work=[200*, 0*]
 10: 0x09F3 [0x45] LOAD_SCHEDULED_TASK: Load scheduler "blon" with entities [LocalPlayer, LocalPlayer], work=[201*, 0*]
 11: 0x0A04 [0x45] LOAD_SCHEDULED_TASK: Load scheduler "w22d" with entities [EventEntity, EventEntity], work=[160*, 0*]
 12: 0x0A15 [0x1C] WAIT(270* ticks)
 13: 0x0A18 [0x45] LOAD_SCHEDULED_TASK: Load scheduler "fdo1" with entities [LocalPlayer, LocalPlayer], work=[200*, 0*]
 14: 0x0A29 [0x1C] WAIT(60* ticks)
 15: 0x0A2C [0x45] LOAD_SCHEDULED_TASK: Load scheduler "blof" with entities [LocalPlayer, LocalPlayer], work=[200*, 0*]
 16: 0x0A3D [0x46] CAMERA_CONTROL: Restore default settings
 17: 0x0A3F [0x47] UPDATE_PLAYER_POS(132.383*, 314.310*, 0.000*, yaw=87.6°*)
 18: 0x0A49 [0x47] WAIT_PLAYER_POS_UPDATE
 19: 0x0A4B [0x29] REQ_SET_WAIT(priority=0x01, entity_id=LocalPlayer, tag_num=0x25)
 20: 0x0A52 [0x01] GOTO 0x0A60
 21: 0x0A55 [0x02] IF !(Work_Zone[0] == 1*) GOTO 0x0A60
 22: 0x0A5D [0x01] GOTO 0x0A60

SUBROUTINE_0A60:
 23: 0x0A60 [0x20] SET_CLI_EVENT_UC_FLAG: Unlock player control
 24: 0x0A62 [0x21] END_EVENT
 25: 0x0A63 [0x00] END_REQSTACK()
```

### Event 43

#### Metadata

| Field        | Value     |
|--------------|-----------|
| Entrypoint   | 0x0A64    |
| Data Size    | 188 bytes |
| Instructions | 26        |

```
      00 01 02 03 04 05 06 07  08 09 0A 0B 0C 0D 0E 0F
      -- -- -- -- -- -- -- --  -- -- -- -- -- -- -- --
0A60:             24 41 80 2C  80 02 80 25 02 00 10 02      $A.,...%....
0A70: 80 00 11 0B 42 43 00 43  01 9F 2D 80 F0 FF FF 7F  ....BC.C..-.....
0A80: F0 FF FF 7F 6D 61 69 6E  02 80 1C 2E 80 45 2F 80  ....main.....E/.
0A90: F0 FF FF 7F F0 FF FF 7F  6F 76 6C 31 02 80 45 2F  ........ovl1..E/
0AA0: 80 F0 FF FF 7F F0 FF FF  7F 62 6C 6F 6E 02 80 45  .........blon..E
0AB0: 30 80 F0 FF FF 7F F0 FF  FF 7F 62 6C 6F 6E 02 80  0.........blon..
0AC0: 45 31 80 F8 FF FF 7F F8  FF FF 7F 77 32 32 65 02  E1.........w22e.
0AD0: 80 1C 32 80 45 2F 80 F0  FF FF 7F F0 FF FF 7F 66  ..2.E/.........f
0AE0: 64 6F 31 02 80 1C 33 80  45 2F 80 F0 FF FF 7F F0  do1...3.E/......
0AF0: FF FF 7F 62 6C 6F 66 02  80 46 00 47 00 34 80 35  ...blof..F.G.4.5
0B00: 80 02 80 36 80 47 01 29  01 F0 FF FF 7F 25 01 1C  ...6.G.).....%..
0B10: 0B 02 00 10 2C 80 00 1C  0B 01 1C 0B 20 00 21 00  ....,....... .!.
```

#### Opcodes

```
  0: 0x0A64 [0x24] CREATE_DIALOG(message_id=7228*, default_option=1*, option_flags=0*)
    → "Return through the memory stream? [Yes./No.]"
  1: 0x0A6B [0x25] WAIT_DIALOG_SELECT()
  2: 0x0A6C [0x02] IF !(Work_Zone[0] == 0*) GOTO 0x0B11
  3: 0x0A74 [0x42] SET_CLI_EVENT_CANCEL_DATA()
  4: 0x0A75 [0x43] SEND_EVENT_UPDATE: Send pending tag to server (packet 0x005B)
  5: 0x0A77 [0x43] SEND_EVENT_UPDATE: Check pending flag (skip if not pending)
  6: 0x0A79 [0x9F] LOAD_SCHEDULED_TASK_ALT: Load scheduler "main" with entities [LocalPlayer, LocalPlayer], work=[73*, 0*]
  7: 0x0A8A [0x1C] WAIT(140* ticks)
  8: 0x0A8D [0x45] LOAD_SCHEDULED_TASK: Load scheduler "ovl1" with entities [LocalPlayer, LocalPlayer], work=[200*, 0*]
  9: 0x0A9E [0x45] LOAD_SCHEDULED_TASK: Load scheduler "blon" with entities [LocalPlayer, LocalPlayer], work=[200*, 0*]
 10: 0x0AAF [0x45] LOAD_SCHEDULED_TASK: Load scheduler "blon" with entities [LocalPlayer, LocalPlayer], work=[201*, 0*]
 11: 0x0AC0 [0x45] LOAD_SCHEDULED_TASK: Load scheduler "w22e" with entities [EventEntity, EventEntity], work=[160*, 0*]
 12: 0x0AD1 [0x1C] WAIT(270* ticks)
 13: 0x0AD4 [0x45] LOAD_SCHEDULED_TASK: Load scheduler "fdo1" with entities [LocalPlayer, LocalPlayer], work=[200*, 0*]
 14: 0x0AE5 [0x1C] WAIT(60* ticks)
 15: 0x0AE8 [0x45] LOAD_SCHEDULED_TASK: Load scheduler "blof" with entities [LocalPlayer, LocalPlayer], work=[200*, 0*]
 16: 0x0AF9 [0x46] CAMERA_CONTROL: Restore default settings
 17: 0x0AFB [0x47] UPDATE_PLAYER_POS(434.046*, -267.928*, 0.000*, yaw=218.1°*)
 18: 0x0B05 [0x47] WAIT_PLAYER_POS_UPDATE
 19: 0x0B07 [0x29] REQ_SET_WAIT(priority=0x01, entity_id=LocalPlayer, tag_num=0x25)
 20: 0x0B0E [0x01] GOTO 0x0B1C
 21: 0x0B11 [0x02] IF !(Work_Zone[0] == 1*) GOTO 0x0B1C
 22: 0x0B19 [0x01] GOTO 0x0B1C

SUBROUTINE_0B1C:
 23: 0x0B1C [0x20] SET_CLI_EVENT_UC_FLAG: Unlock player control
 24: 0x0B1E [0x21] END_EVENT
 25: 0x0B1F [0x00] END_REQSTACK()
```

### Event 44

#### Metadata

| Field        | Value     |
|--------------|-----------|
| Entrypoint   | 0x0B20    |
| Data Size    | 188 bytes |
| Instructions | 26        |

```
      00 01 02 03 04 05 06 07  08 09 0A 0B 0C 0D 0E 0F
      -- -- -- -- -- -- -- --  -- -- -- -- -- -- -- --
0B20: 24 41 80 2C 80 02 80 25  02 00 10 02 80 00 CD 0B  $A.,...%........
0B30: 42 43 00 43 01 9F 2D 80  F0 FF FF 7F F0 FF FF 7F  BC.C..-.........
0B40: 6D 61 69 6E 02 80 1C 2E  80 45 2F 80 F0 FF FF 7F  main.....E/.....
0B50: F0 FF FF 7F 6F 76 6C 31  02 80 45 2F 80 F0 FF FF  ....ovl1..E/....
0B60: 7F F0 FF FF 7F 62 6C 6F  6E 02 80 45 30 80 F0 FF  .....blon..E0...
0B70: FF 7F F0 FF FF 7F 62 6C  6F 6E 02 80 45 31 80 F8  ......blon..E1..
0B80: FF FF 7F F8 FF FF 7F 77  32 32 66 02 80 1C 32 80  .......w22f...2.
0B90: 45 2F 80 F0 FF FF 7F F0  FF FF 7F 66 64 6F 31 02  E/.........fdo1.
0BA0: 80 1C 33 80 45 2F 80 F0  FF FF 7F F0 FF FF 7F 62  ..3.E/.........b
0BB0: 6C 6F 66 02 80 46 00 47  00 3D 80 3E 80 3F 80 40  lof..F.G.=.>.?.@
0BC0: 80 47 01 29 01 F0 FF FF  7F 25 01 D8 0B 02 00 10  .G.).....%......
0BD0: 2C 80 00 D8 0B 01 D8 0B  20 00 21 00              ,....... .!.    
```

#### Opcodes

```
  0: 0x0B20 [0x24] CREATE_DIALOG(message_id=7228*, default_option=1*, option_flags=0*)
    → "Return through the memory stream? [Yes./No.]"
  1: 0x0B27 [0x25] WAIT_DIALOG_SELECT()
  2: 0x0B28 [0x02] IF !(Work_Zone[0] == 0*) GOTO 0x0BCD
  3: 0x0B30 [0x42] SET_CLI_EVENT_CANCEL_DATA()
  4: 0x0B31 [0x43] SEND_EVENT_UPDATE: Send pending tag to server (packet 0x005B)
  5: 0x0B33 [0x43] SEND_EVENT_UPDATE: Check pending flag (skip if not pending)
  6: 0x0B35 [0x9F] LOAD_SCHEDULED_TASK_ALT: Load scheduler "main" with entities [LocalPlayer, LocalPlayer], work=[73*, 0*]
  7: 0x0B46 [0x1C] WAIT(140* ticks)
  8: 0x0B49 [0x45] LOAD_SCHEDULED_TASK: Load scheduler "ovl1" with entities [LocalPlayer, LocalPlayer], work=[200*, 0*]
  9: 0x0B5A [0x45] LOAD_SCHEDULED_TASK: Load scheduler "blon" with entities [LocalPlayer, LocalPlayer], work=[200*, 0*]
 10: 0x0B6B [0x45] LOAD_SCHEDULED_TASK: Load scheduler "blon" with entities [LocalPlayer, LocalPlayer], work=[201*, 0*]
 11: 0x0B7C [0x45] LOAD_SCHEDULED_TASK: Load scheduler "w22f" with entities [EventEntity, EventEntity], work=[160*, 0*]
 12: 0x0B8D [0x1C] WAIT(270* ticks)
 13: 0x0B90 [0x45] LOAD_SCHEDULED_TASK: Load scheduler "fdo1" with entities [LocalPlayer, LocalPlayer], work=[200*, 0*]
 14: 0x0BA1 [0x1C] WAIT(60* ticks)
 15: 0x0BA4 [0x45] LOAD_SCHEDULED_TASK: Load scheduler "blof" with entities [LocalPlayer, LocalPlayer], work=[200*, 0*]
 16: 0x0BB5 [0x46] CAMERA_CONTROL: Restore default settings
 17: 0x0BB7 [0x47] UPDATE_PLAYER_POS(258.613*, 141.882*, -0.624*, yaw=268.9°*)
 18: 0x0BC1 [0x47] WAIT_PLAYER_POS_UPDATE
 19: 0x0BC3 [0x29] REQ_SET_WAIT(priority=0x01, entity_id=LocalPlayer, tag_num=0x25)
 20: 0x0BCA [0x01] GOTO 0x0BD8
 21: 0x0BCD [0x02] IF !(Work_Zone[0] == 1*) GOTO 0x0BD8
 22: 0x0BD5 [0x01] GOTO 0x0BD8

SUBROUTINE_0BD8:
 23: 0x0BD8 [0x20] SET_CLI_EVENT_UC_FLAG: Unlock player control
 24: 0x0BDA [0x21] END_EVENT
 25: 0x0BDB [0x00] END_REQSTACK()
```

### Event 45

#### Metadata

| Field        | Value    |
|--------------|----------|
| Entrypoint   | 0x0BDC   |
| Data Size    | 53 bytes |
| Instructions | 15       |

```
      00 01 02 03 04 05 06 07  08 09 0A 0B 0C 0D 0E 0F
      -- -- -- -- -- -- -- --  -- -- -- -- -- -- -- --
0BD0:                                      20 01 24 46               .$F
0BE0: 80 2C 80 02 80 25 02 00  10 02 80 00 02 0C 42 43  .,...%........BC
0BF0: 00 43 01 03 01 10 2C 80  29 01 F0 FF FF 7F 24 01  .C....,.).....$.
0C00: 0D 0C 02 00 10 2C 80 00  0D 0C 01 0D 0C 20 00 21  .....,....... .!
0C10: 00                                                .               
```

#### Opcodes

```
  0: 0x0BDC [0x20] SET_CLI_EVENT_UC_FLAG: Lock player control
  1: 0x0BDE [0x24] CREATE_DIALOG(message_id=7229*, default_option=1*, option_flags=0*)
    → "Leave Promyvion? [Yes./No.]"
  2: 0x0BE5 [0x25] WAIT_DIALOG_SELECT()
  3: 0x0BE6 [0x02] IF !(Work_Zone[0] == 0*) GOTO 0x0C02
  4: 0x0BEE [0x42] SET_CLI_EVENT_CANCEL_DATA()
  5: 0x0BEF [0x43] SEND_EVENT_UPDATE: Send pending tag to server (packet 0x005B)
  6: 0x0BF1 [0x43] SEND_EVENT_UPDATE: Check pending flag (skip if not pending)
  7: 0x0BF3 [0x03] Work_Zone[1] = 1*
  8: 0x0BF8 [0x29] REQ_SET_WAIT(priority=0x01, entity_id=LocalPlayer, tag_num=0x24)
  9: 0x0BFF [0x01] GOTO 0x0C0D
 10: 0x0C02 [0x02] IF !(Work_Zone[0] == 1*) GOTO 0x0C0D
 11: 0x0C0A [0x01] GOTO 0x0C0D

SUBROUTINE_0C0D:
 12: 0x0C0D [0x20] SET_CLI_EVENT_UC_FLAG: Unlock player control
 13: 0x0C0F [0x21] END_EVENT
 14: 0x0C10 [0x00] END_REQSTACK()
```

### Event 46

#### Metadata

| Field        | Value    |
|--------------|----------|
| Entrypoint   | 0x0C11   |
| Data Size    | 41 bytes |
| Instructions | 5        |

```
      00 01 02 03 04 05 06 07  08 09 0A 0B 0C 0D 0E 0F
      -- -- -- -- -- -- -- --  -- -- -- -- -- -- -- --
0C10:    9F 2D 80 F0 FF FF 7F  F0 FF FF 7F 6D 61 69 6E   .-.........main
0C20: 02 80 1C 2E 80 45 2F 80  F0 FF FF 7F F0 FF FF 7F  .....E/.........
0C30: 66 64 6F 31 02 80 1C 33  80 00                    fdo1...3..      
```

#### Opcodes

```
  0: 0x0C11 [0x9F] LOAD_SCHEDULED_TASK_ALT: Load scheduler "main" with entities [LocalPlayer, LocalPlayer], work=[73*, 0*]
  1: 0x0C22 [0x1C] WAIT(140* ticks)
  2: 0x0C25 [0x45] LOAD_SCHEDULED_TASK: Load scheduler "fdo1" with entities [LocalPlayer, LocalPlayer], work=[200*, 0*]
  3: 0x0C36 [0x1C] WAIT(60* ticks)
  4: 0x0C39 [0x00] END_REQSTACK()
```

### Event 47

#### Metadata

| Field        | Value    |
|--------------|----------|
| Entrypoint   | 0x0C3A   |
| Data Size    | 38 bytes |
| Instructions | 4        |

```
      00 01 02 03 04 05 06 07  08 09 0A 0B 0C 0D 0E 0F
      -- -- -- -- -- -- -- --  -- -- -- -- -- -- -- --
0C30:                                45 2F 80 F0 FF FF            E/....
0C40: 7F F0 FF FF 7F 66 64 69  31 02 80 9F 47 80 F0 FF  .....fdi1...G...
0C50: FF 7F F0 FF FF 7F 6D 61  69 6E 02 80 1C 48 80 00  ......main...H..
```

#### Opcodes

```
  0: 0x0C3A [0x45] LOAD_SCHEDULED_TASK: Load scheduler "fdi1" with entities [LocalPlayer, LocalPlayer], work=[200*, 0*]
  1: 0x0C4B [0x9F] LOAD_SCHEDULED_TASK_ALT: Load scheduler "main" with entities [LocalPlayer, LocalPlayer], work=[74*, 0*]
  2: 0x0C5C [0x1C] WAIT(170* ticks)
  3: 0x0C5F [0x00] END_REQSTACK()
```
