# Event 10007

## Metadata

| Field           | Value     |
|-----------------|-----------|
| Event Index     | 3/5       |
| Offset          | 0x0723    |
| Data Size       | 346 bytes |
| Calculated Size | 346 bytes |
| Instructions    | 21        |

```
      00 01 02 03 04 05 06 07  08 09 0A 0B 0C 0D 0E 0F
      -- -- -- -- -- -- -- --  -- -- -- -- -- -- -- --
0720:          42 03 0E 00 08  10 1E F0 FF FF 7F 1D 53     B...........S
0730: 80 23 1D 54 80 1C 55 80  02 06 10 02 80 01 4A 07  .#.T..U.......J.
0740: 1D 56 80 23 01 7B 08 01  4E 07 1D 57 80 23 1D 58  .V.#.{..N..W.#.X
0750: 80 23 B3 06 00 80 B3 05  00 00 01 00 02 00 03 00  .#..............
0760: 04 00 05 00 06 00 07 00  02 00 00 07 80 00 75 07  ..............u.
0770: 1D 3B 80 23 1B 02 02 00  02 80 01 89 07 03 03 10  .;.#............
0780: 06 00 1D 59 80 23 01 9D  07 02 0E 00 02 80 00 94  ...Y.#..........
0790: 07 01 9D 07 03 03 10 0E  00 1D 59 80 23 24 5A 80  ..........Y.#$Z.
07A0: 02 80 02 80 25 02 00 10  02 80 00 B0 07 01 B3 07  ....%...........
07B0: 01 7B 08 03 02 10 5B 80  1D 5C 80 23 24 5D 80 10  .{....[..\.#$]..
07C0: 80 02 80 25 02 00 10 10  80 00 D2 07 01 7B 08 01  ...%.........{..
07D0: E2 07 02 00 10 02 80 00  E2 07 03 01 10 5E 80 01  .............^..
07E0: E2 07 43 00 43 01 02 07  10 02 80 80 57 08 B3 03  ..C.C.......W...
07F0: 00 80 B3 05 00 00 01 00  02 00 03 00 04 00 05 00  ................
0800: 06 00 07 00 02 00 00 07  80 00 13 08 1D 5F 80 23  ............._.#
0810: 01 7B 08 B3 07 00 80 B3  05 00 00 01 00 02 00 03  .{..............
0820: 00 04 00 05 00 06 00 07  00 02 00 00 07 80 00 38  ...............8
0830: 08 1D 60 80 23 01 7B 08  03 01 10 61 80 43 00 43  ..`.#.{....a.C.C
0840: 01 02 07 10 02 80 00 50  08 1D 62 80 23 01 54 08  .......P..b.#.T.
0850: 1D 60 80 23 01 7B 08 02  07 10 07 80 80 69 08 1D  .`.#.{.......i..
0860: 5F 80 23 01 7B 08 01 7B  08 02 07 10 63 80 80 7B  _.#.{..{....c..{
0870: 08 1D 64 80 23 01 7B 08  01 7B 08 21 00           ..d.#.{..{.!.   
```

## Opcodes

```
  0: 0x0723 [0x42] SET_CLI_EVENT_CANCEL_DATA()
  1: 0x0724 [0x03] ExtData[1]->WorkLocal[14] = Work_Zone[8]
  2: 0x0729 [0x1E] EventEntity looks at LocalPlayer and starts talking
  3: 0x072E [0x1D] PRINT_EVENT_MESSAGE(message_id=7629*)
    → "So you would like to participate in Fish Ranking, would you? Let me examine this fish. Please wait a moment.\u007F1\u0000\u0007"
  4: 0x0731 [0x23] WAIT_FOR_DIALOG_INTERACTION
  5: 0x0732 [0x1D] PRINT_EVENT_MESSAGE(message_id=7630*)
    → "...\u0000\u0007"
  6: 0x0735 [0x1C] WAIT(120* ticks)
  7: 0x0738 [0x02] IF !(Work_Zone[6] == 0*) GOTO 0x074A
  8: 0x0740 [0x1D] PRINT_EVENT_MESSAGE(message_id=7631*)
    → "I'm terribly sorry, but this fish doesn't meet the requirements for entry. Please try again!\u007F1\u0000\u0007"
  9: 0x0743 [0x23] WAIT_FOR_DIALOG_INTERACTION
 10: 0x0744 [0x01] GOTO 0x087B

SUBROUTINE_074A:
 11: 0x074A [0x1D] PRINT_EVENT_MESSAGE(message_id=7632*)
    → "Great! Your fish meets the requirements.\u007F1\u0000\u0007"
 12: 0x074D [0x23] WAIT_FOR_DIALOG_INTERACTION
 13: 0x074E [0x1D] PRINT_EVENT_MESSAGE(message_id=7626*)
    → "Your fish comes to 
\u0005 \u007F\u0012\u0005[point/points] under the current rules.\u007F1\u0000\u0007"
 14: 0x0751 [0x23] WAIT_FOR_DIALOG_INTERACTION
 15: 0x0752 [0xB3] RANKINGS_BOARD_HANDLER(case_type=0x06)
 16: 0x0754 [0x00] END_REQSTACK()

 17: 0x087B [0x21] END_EVENT
 18: 0x087C [0x00] END_REQSTACK()
```

## Data or dead code:

```
# Dead code (unreachable instructions):
     0x0747 [0x01] GOTO 0x074E
# Data Section: 0x0755 (294 bytes)
     0x0755: 80 B3 05 00 00 01 00 02 00 03 00 04 00 05 00 06
     0x0765: 00 07 00 02 00 00 07 80 00 75 07 1D 3B 80 23 1B
     0x0775: 02 02 00 02 80 01 89 07 03 03 10 06 00 1D 59 80
     0x0785: 23 01 9D 07 02 0E 00 02 80 00 94 07 01 9D 07 03
     0x0795: 03 10 0E 00 1D 59 80 23 24 5A 80 02 80 02 80 25
     0x07A5: 02 00 10 02 80 00 B0 07 01 B3 07 01 7B 08 03 02
     0x07B5: 10 5B 80 1D 5C 80 23 24 5D 80 10 80 02 80 25 02
     0x07C5: 00 10 10 80 00 D2 07 01 7B 08 01 E2 07 02 00 10
     0x07D5: 02 80 00 E2 07 03 01 10 5E 80 01 E2 07 43 00 43
     0x07E5: 01 02 07 10 02 80 80 57 08 B3 03 00 80 B3 05 00
     0x07F5: 00 01 00 02 00 03 00 04 00 05 00 06 00 07 00 02
     0x0805: 00 00 07 80 00 13 08 1D 5F 80 23 01 7B 08 B3 07
     0x0815: 00 80 B3 05 00 00 01 00 02 00 03 00 04 00 05 00
     0x0825: 06 00 07 00 02 00 00 07 80 00 38 08 1D 60 80 23
     0x0835: 01 7B 08 03 01 10 61 80 43 00 43 01 02 07 10 02
     0x0845: 80 00 50 08 1D 62 80 23 01 54 08 1D 60 80 23 01
     0x0855: 7B 08 02 07 10 07 80 80 69 08 1D 5F 80 23 01 7B
     0x0865: 08 01 7B 08 02 07 10 63 80 80 7B 08 1D 64 80 23
     0x0875: 01 7B 08 01 7B 08
```