# Event 10010

## Metadata

| Field           | Value    |
|-----------------|----------|
| Event Index     | 5/5      |
| Offset          | 0x0883   |
| Data Size       | 14 bytes |
| Calculated Size | 14 bytes |
| Instructions    | 8        |

```
      00 01 02 03 04 05 06 07  08 09 0A 0B 0C 0D 0E 0F
      -- -- -- -- -- -- -- --  -- -- -- -- -- -- -- --
0880:          1D 01 80 23 1D  04 80 23 1D 66 80 23 21     ...#...#.f.#!
0890: 00                                                .               
```

## Opcodes

```
  0: 0x0883 [0x1D] PRINT_EVENT_MESSAGE(message_id=7606*)
    → "This is the information desk for the Fishermen's Guild ranking system, also known as \u00072Fish Ranking.\u00073\u007F1\u0000\u0007"
  1: 0x0886 [0x23] WAIT_FOR_DIALOG_INTERACTION
  2: 0x0887 [0x1D] PRINT_EVENT_MESSAGE(message_id=7607*)
    → "We are currently \u000C\u0000[contesting the rules for the next ranking/preparing to accept entries/accepting entries/preparing to release results/presenting ranking results to the public/on hiatus/closed].\u007F1\u0000\u0007"
  3: 0x088A [0x23] WAIT_FOR_DIALOG_INTERACTION
  4: 0x088B [0x1D] PRINT_EVENT_MESSAGE(message_id=7657*)
    → "We are not accepting entries now.\u007F1\u0000\u0007"
  5: 0x088E [0x23] WAIT_FOR_DIALOG_INTERACTION
  6: 0x088F [0x21] END_EVENT
  7: 0x0890 [0x00] END_REQSTACK()
```
