# Event 39

## Metadata

| Field           | Value    |
|-----------------|----------|
| Event Index     | 7/16     |
| Offset          | 0x0103   |
| Data Size       | 42 bytes |
| Calculated Size | 42 bytes |
| Instructions    | 13       |

```
      00 01 02 03 04 05 06 07  08 09 0A 0B 0C 0D 0E 0F
      -- -- -- -- -- -- -- --  -- -- -- -- -- -- -- --
0100:          20 01 42 30 47  00 02 10 03 10 04 10 05      .B0G........
0110: 10 47 01 02 06 10 15 80  01 2B 01 48 16 80 23 02  .G.......+.H..#.
0120: 09 10 05 80 01 2B 01 48  17 80 23 21 00           .....+.H..#!.   
```

## Opcodes

```
  0: 0x0103 [0x20] SET_CLI_EVENT_UC_FLAG: Lock player control
  1: 0x0105 [0x42] SET_CLI_EVENT_CANCEL_DATA()
  2: 0x0106 [0x30] SET_UCOFF_CONTINUE_ZERO()
  3: 0x0107 [0x47] UPDATE_PLAYER_POS(Work_Zone[2], Work_Zone[3], Work_Zone[4], yaw=Work_Zone[5])
  4: 0x0111 [0x47] WAIT_PLAYER_POS_UPDATE
  5: 0x0113 [0x02] IF !(Work_Zone[6] == 4294967295*) GOTO 0x012B
  6: 0x011B [0x48] [System] [7550*]:
    → "You scored 
\u0004 \u007F\u0012\u0004[Petra/Petras] (
\u0005 \u007F\u0012\u0005[Ballista point/Ballista points]).\u007F1\u0000\u0007"
  7: 0x011E [0x23] WAIT_FOR_DIALOG_INTERACTION
  8: 0x011F [0x02] IF !(Work_Zone[9] == 0*) GOTO 0x012B
  9: 0x0127 [0x48] [System] [7548*]:
    → "Contributing a total of 
\u0007 \u007F\u0012\u0007[Petra/Petras] to the \u000C\u0006[San d'Orian/Bastokan/Windurstian] forces, today's high scorer is \u001C\u0000!\u007F1\u0000\u0007"
 10: 0x012A [0x23] WAIT_FOR_DIALOG_INTERACTION
 11: 0x012B [0x21] END_EVENT
 12: 0x012C [0x00] END_REQSTACK()
```
