# Event 65535

## Metadata

| Field           | Value    |
|-----------------|----------|
| Event Index     | 6/8      |
| Offset          | 0x00F0   |
| Data Size       | 70 bytes |
| Calculated Size | 70 bytes |
| Instructions    | 16       |

```
      00 01 02 03 04 05 06 07  08 09 0A 0B 0C 0D 0E 0F
      -- -- -- -- -- -- -- --  -- -- -- -- -- -- -- --
00F0: 32 04 80 1F 00 10 80 11  80 07 80 1F 01 1F 00 12  2...............
0100: 80 13 80 07 80 1F 01 1C  18 80 1F 00 15 80 16 80  ................
0110: 07 80 1F 01 1C 18 80 1F  00 19 80 1A 80 07 80 1F  ................
0120: 01 1C 00 80 1F 00 1B 80  1C 80 07 80 1F 01 4B 7F  ..............K.
0130: 20 03 01 0E 80 00                                  .....          
```

## Opcodes

```
  0: 0x00F0 [0x32] ExtData[1]->MainSpeed = 40* * 0.1
  1: 0x00F3 [0x1F] MOVE_ENTITY: EventEntity moves to X=-92.318*, Z=-6.176*, Y=0.000*
  2: 0x00FB [0x1F] MOVE_ENTITY: Update entity position (mode=1)
  3: 0x00FD [0x1F] MOVE_ENTITY: EventEntity moves to X=-91.287*, Z=-10.052*, Y=0.000*
  4: 0x0105 [0x1F] MOVE_ENTITY: Update entity position (mode=1)
  5: 0x0107 [0x1C] WAIT(60* ticks)
  6: 0x010A [0x1F] MOVE_ENTITY: EventEntity moves to X=-87.708*, Z=-10.357*, Y=0.000*
  7: 0x0112 [0x1F] MOVE_ENTITY: Update entity position (mode=1)
  8: 0x0114 [0x1C] WAIT(60* ticks)
  9: 0x0117 [0x1F] MOVE_ENTITY: EventEntity moves to X=-88.749*, Z=-6.531*, Y=0.000*
 10: 0x011F [0x1F] MOVE_ENTITY: Update entity position (mode=1)
 11: 0x0121 [0x1C] WAIT(30* ticks)
 12: 0x0124 [0x1F] MOVE_ENTITY: EventEntity moves to X=-91.025*, Z=-5.923*, Y=0.000*
 13: 0x012C [0x1F] MOVE_ENTITY: Update entity position (mode=1)
 14: 0x012E [0x4B] UPDATE_ENTITY_YAW(entity=Teteroon (ID: 16982143/0x0103207F), yaw=3.4°*)
 15: 0x0135 [0x00] END_REQSTACK()
```
