# Event 238

## Metadata

| Field           | Value    |
|-----------------|----------|
| Event Index     | 7/11     |
| Offset          | 0x006E   |
| Data Size       | 24 bytes |
| Calculated Size | 24 bytes |
| Instructions    | 13       |

```
      00 01 02 03 04 05 06 07  08 09 0A 0B 0C 0D 0E 0F
      -- -- -- -- -- -- -- --  -- -- -- -- -- -- -- --
0060:                                            42 1E                B.
0070: F0 FF FF 7F 6F 70 1D 07  80 23 48 08 80 23 48 09  ....op...#H..#H.
0080: 80 23 20 00 21 00                                 .# .!.          
```

## Opcodes

```
  0: 0x006E [0x42] SET_CLI_EVENT_CANCEL_DATA()
  1: 0x006F [0x1E] EventEntity looks at LocalPlayer and starts talking
  2: 0x0074 [0x6F] WAIT_FRAME_DELAY: Yield until WaitTime reaches zero
  3: 0x0075 [0x70] WAIT_ENTITY_RENDER_FLAG: Wait while EventEntity->Render.Flags3 bit 2 is set (cancel turn if not)
  4: 0x0076 [0x1D] PRINT_EVENT_MESSAGE(message_id=10409*)
    → "Opi!?\u0007Opi-opi!?\u007F1\u0000\u0007"
  5: 0x0079 [0x23] WAIT_FOR_DIALOG_INTERACTION
  6: 0x007A [0x48] [System] [10410*]:
    → "It seems as if you handed the Opo-opos the items in the wrong order.\u0000\u0007"
  7: 0x007D [0x23] WAIT_FOR_DIALOG_INTERACTION
  8: 0x007E [0x48] [System] [10411*]:
    → "Now you have to start again from the beginning...\u0000\u0007"
  9: 0x0081 [0x23] WAIT_FOR_DIALOG_INTERACTION
 10: 0x0082 [0x20] SET_CLI_EVENT_UC_FLAG: Unlock player control
 11: 0x0084 [0x21] END_EVENT
 12: 0x0085 [0x00] END_REQSTACK()
```
