# Event 1003

## Metadata

| Field           | Value     |
|-----------------|-----------|
| Event Index     | 9/91      |
| Offset          | 0x0965    |
| Data Size       | 900 bytes |
| Calculated Size | 900 bytes |
| Instructions    | 31        |

```
      00 01 02 03 04 05 06 07  08 09 0A 0B 0C 0D 0E 0F
      -- -- -- -- -- -- -- --  -- -- -- -- -- -- -- --
0960:                42 46 01  45 02 80 F8 FF FF 7F F8       BF.E.......
0970: FF FF 7F 66 64 6F 31 03  80 1C 04 80 38 05 80 29  ...fdo1.....8..)
0980: 64 F0 FF FF 7F 25 29 08  F0 FF FF 7F 35 45 08 80  d....%).....5E..
0990: F0 FF FF 7F F0 FF FF 7F  73 30 32 33 03 80 45 02  ........s023..E.
09A0: 80 F8 FF FF 7F F8 FF FF  7F 66 64 69 31 03 80 02  .........fdi1...
09B0: 06 10 01 80 00 D2 09 03  05 10 29 80 66 00 80 F8  ..........).f...
09C0: FF FF 7F F8 FF FF 7F 74  6C 6B 30 1D 17 80 23 01  .......tlk0...#.
09D0: FF 09 66 00 80 F8 FF FF  7F F8 FF FF 7F 74 6C 6B  ..f..........tlk
09E0: 30 1D 25 80 23 45 08 80  F0 FF FF 7F F0 FF FF 7F  0.%.#E..........
09F0: 73 30 31 39 03 80 03 05  10 29 80 1D 26 80 23 45  s019.....)..&.#E
0A00: 02 80 F8 FF FF 7F F8 FF  FF 7F 66 64 6F 31 03 80  ..........fdo1..
0A10: 1C 04 80 5E 69 64 6C 30  46 00 45 02 80 F8 FF FF  ...^idl0F.E.....
0A20: 7F F8 FF FF 7F 66 64 69  31 03 80 45 1A 80 F0 FF  .....fdi1..E....
0A30: FF 7F F0 FF FF 7F 71 73  74 63 03 80 20 00 21 00  ......qstc.. .!.
0A40: 45 02 80 F0 FF FF 7F F0  FF FF 7F 6F 76 6C 31 03  E..........ovl1.
0A50: 80 45 06 80 F8 FF FF 7F  F8 FF FF 7F 73 30 32 36  .E..........s026
0A60: 03 80 66 00 80 F8 FF FF  7F F8 FF FF 7F 74 6C 6B  ..f..........tlk
0A70: 30 02 06 10 01 80 00 80  0A 1D 2A 80 23 01 84 0A  0.........*.#...
0A80: 1D 27 80 23 5E 69 64 6C  30 1D 00 80 23 52 06 80  .'.#^idl0...#R..
0A90: F8 FF FF 7F F8 FF FF 7F  73 30 32 36 45 06 80 F8  ........s026E...
0AA0: FF FF 7F F8 FF FF 7F 73  30 37 36 03 80 66 00 80  .......s076..f..
0AB0: F8 FF FF 7F F8 FF FF 7F  74 68 6B 31 1D 1E 80 23  ........thk1...#
0AC0: 1D 2B 80 23 1D 2C 80 23  52 06 80 F8 FF FF 7F F8  .+.#.,.#R.......
0AD0: FF FF 7F 73 30 37 36 45  06 80 F8 FF FF 7F F8 FF  ...s076E........
0AE0: FF 7F 73 30 32 36 03 80  1D 2D 80 23 66 00 80 F8  ..s026...-.#f...
0AF0: FF FF 7F F8 FF FF 7F 74  68 6B 32 53 F8 FF FF 7F  .......thk2S....
0B00: F8 FF FF 7F 74 68 6B 32  1C 00 80 52 06 80 F8 FF  ....thk2...R....
0B10: FF 7F F8 FF FF 7F 73 30  32 36 45 02 80 F0 FF FF  ......s026E.....
0B20: 7F F0 FF FF 7F 6F 76 6C  31 03 80 45 08 80 F0 FF  .....ovl1..E....
0B30: FF 7F F0 FF FF 7F 73 30  31 39 03 80 66 00 80 F8  ......s019..f...
0B40: FF FF 7F F8 FF FF 7F 70  6F 69 31 1D 2E 80 23 66  .......poi1...#f
0B50: 00 80 F8 FF FF 7F F8 FF  FF 7F 70 6F 69 32 53 F8  ..........poi2S.
0B60: FF FF 7F F8 FF FF 7F 70  6F 69 32 1C 00 80 66 00  .......poi2...f.
0B70: 80 F8 FF FF 7F F8 FF FF  7F 74 6C 6B 30 1D 2F 80  .........tlk0./.
0B80: 23 5E 69 64 6C 30 24 0C  80 03 80 03 80 25 02 00  #^idl0$......%..
0B90: 10 03 80 00 99 0C 45 06  80 F8 FF FF 7F F8 FF FF  ......E.........
0BA0: 7F 73 31 30 35 03 80 66  00 80 F8 FF FF 7F F8 FF  .s105..f........
0BB0: FF 7F 74 6C 6B 30 1D 30  80 23 1D 31 80 23 52 06  ..tlk0.0.#.1.#R.
0BC0: 80 F8 FF FF 7F F8 FF FF  7F 73 31 30 35 45 02 80  .........s105E..
0BD0: F0 FF FF 7F F0 FF FF 7F  6F 76 6C 31 03 80 02 09  ........ovl1....
0BE0: 10 10 80 00 FA 0B 45 06  80 F8 FF FF 7F F8 FF FF  ......E.........
0BF0: 7F 73 31 30 36 03 80 01  27 0C 02 09 10 11 80 00  .s106...'.......
0C00: 16 0C 45 06 80 F8 FF FF  7F F8 FF FF 7F 73 31 30  ..E..........s10
0C10: 36 03 80 01 27 0C 45 08  80 F0 FF FF 7F F0 FF FF  6...'.E.........
0C20: 7F 73 30 32 32 03 80 1D  32 80 23 1D 12 80 23 5E  .s022...2.#...#^
0C30: 69 64 6C 30 24 13 80 03  80 03 80 25 02 00 10 03  idl0$......%....
0C40: 80 00 78 0C 45 06 80 F8  FF FF 7F F8 FF FF 7F 73  ..x.E..........s
0C50: 30 37 37 03 80 66 00 80  F8 FF FF 7F F8 FF FF 7F  077..f..........
0C60: 74 6C 6B 30 1D 33 80 23  5E 69 64 6C 30 1C 00 80  tlk0.3.#^idl0...
0C70: 03 01 10 15 80 01 96 0C  02 00 10 01 80 00 86 0C  ................
0C80: 01 96 0B 01 96 0C 02 00  10 15 80 00 96 0C 03 01  ................
0C90: 10 16 80 01 96 0C 01 A9  0C 02 00 10 01 80 00 A9  ................
0CA0: 0C 03 01 10 16 80 01 A9  0C 45 02 80 F8 FF FF 7F  .........E......
0CB0: F8 FF FF 7F 66 64 6F 31  03 80 1C 04 80 52 06 80  ....fdo1.....R..
0CC0: F8 FF FF 7F F8 FF FF 7F  73 30 37 37 46 00 45 02  ........s077F.E.
0CD0: 80 F8 FF FF 7F F8 FF FF  7F 66 64 69 31 03 80 21  .........fdi1..!
0CE0: 00 29 0F 22 70 0E 01 38  00                       .)."p..8.       
```

## Opcodes

```
  0: 0x0965 [0x42] SET_CLI_EVENT_CANCEL_DATA()
  1: 0x0966 [0x46] CAMERA_CONTROL: Disable user control
  2: 0x0968 [0x45] LOAD_SCHEDULED_TASK: Load scheduler "fdo1" with entities [EventEntity, EventEntity], work=[200*, 0*]
  3: 0x0979 [0x1C] WAIT(60* ticks)
  4: 0x097C [0x38] SET_CLIENT_EVENT_MODE(mode=3*)
  5: 0x097F [0x29] REQ_SET_WAIT(priority=0x64, entity_id=LocalPlayer, tag_num=0x25)
  6: 0x0986 [0x29] REQ_SET_WAIT(priority=0x08, entity_id=LocalPlayer, tag_num=0x35)
  7: 0x098D [0x45] LOAD_SCHEDULED_TASK: Load scheduler "s023" with entities [LocalPlayer, LocalPlayer], work=[131*, 0*]
  8: 0x099E [0x45] LOAD_SCHEDULED_TASK: Load scheduler "fdi1" with entities [EventEntity, EventEntity], work=[200*, 0*]
  9: 0x09AF [0x02] IF !(Work_Zone[6] == 1*) GOTO 0x09D2
 10: 0x09B7 [0x03] Work_Zone[5] = 891*
 11: 0x09BC [0x66] LOAD_EXT_SCHEDULER_MAIN: Load scheduler "tlk0" with entities [EventEntity, EventEntity], work=30*
 12: 0x09CB [0x1D] PRINT_EVENT_MESSAGE(message_id=12607*)
    → "I knew you'd return safely, and with the \u0001\u0005#\u0002\u0003\u0000\u0000. Mission completed!\u007F1\u0000\u0007"
 13: 0x09CE [0x23] WAIT_FOR_DIALOG_INTERACTION
 14: 0x09CF [0x01] GOTO 0x09FF
 15: 0x09D2 [0x66] LOAD_EXT_SCHEDULER_MAIN: Load scheduler "tlk0" with entities [EventEntity, EventEntity], work=30*
 16: 0x09E1 [0x1D] PRINT_EVENT_MESSAGE(message_id=27*)
    → "Ah, you've returned! I was afraid that Goblins got you.\u007F1\u0000\u0007"
 17: 0x09E4 [0x23] WAIT_FOR_DIALOG_INTERACTION
 18: 0x09E5 [0x45] LOAD_SCHEDULED_TASK: Load scheduler "s019" with entities [LocalPlayer, LocalPlayer], work=[131*, 0*]
 19: 0x09F6 [0x03] Work_Zone[5] = 891*
 20: 0x09FB [0x1D] PRINT_EVENT_MESSAGE(message_id=28*)
    → "That's one \u0001\u0005#\u0002\u0003\u0000\u0000 for the gatehouse, then. Mission complete. Not bad for a new recruit.\u007F1\u0000\u0007"
 21: 0x09FE [0x23] WAIT_FOR_DIALOG_INTERACTION
 22: 0x09FF [0x45] LOAD_SCHEDULED_TASK: Load scheduler "fdo1" with entities [EventEntity, EventEntity], work=[200*, 0*]
 23: 0x0A10 [0x1C] WAIT(60* ticks)
 24: 0x0A13 [0x5E] EventEntity goes idle (kills current action) (animation: "idl0")
 25: 0x0A18 [0x46] CAMERA_CONTROL: Restore default settings
 26: 0x0A1A [0x45] LOAD_SCHEDULED_TASK: Load scheduler "fdi1" with entities [EventEntity, EventEntity], work=[200*, 0*]
 27: 0x0A2B [0x45] LOAD_SCHEDULED_TASK: Load scheduler "qstc" with entities [LocalPlayer, LocalPlayer], work=[201*, 0*]
 28: 0x0A3C [0x20] SET_CLI_EVENT_UC_FLAG: Unlock player control
 29: 0x0A3E [0x21] END_EVENT
 30: 0x0A3F [0x00] END_REQSTACK()
```

## Data or dead code:

```
# Dead code (unreachable instructions):
     0x0A40 [0x45] LOAD_SCHEDULED_TASK: Load scheduler "ovl1" with entities [LocalPlayer, LocalPlayer], work=[200*, 0*]
     0x0A51 [0x45] LOAD_SCHEDULED_TASK: Load scheduler "s026" with entities [EventEntity, EventEntity], work=[90*, 0*]
     0x0A62 [0x66] LOAD_EXT_SCHEDULER_MAIN: Load scheduler "tlk0" with entities [EventEntity, EventEntity], work=30*
     0x0A71 [0x02] IF !(Work_Zone[6] == 1*) GOTO 0x0A80
     0x0A79 [0x1D] PRINT_EVENT_MESSAGE(message_id=12624*)
    → "I know you came all this way, but I can't help you right now.\u007F1\u0000\u0007"
     0x0A7C [0x23] WAIT_FOR_DIALOG_INTERACTION
     0x0A7D [0x01] GOTO 0x0A84
     0x0A80 [0x1D] PRINT_EVENT_MESSAGE(message_id=29*)
    → "Ah, the recruit's back again? I'm sorry, but I've no time for you today.\u007F1\u0000\u0007"
     0x0A83 [0x23] WAIT_FOR_DIALOG_INTERACTION
     0x0A84 [0x5E] EventEntity goes idle (kills current action) (animation: "idl0")
     0x0A89 [0x1D] PRINT_EVENT_MESSAGE(message_id=30*)
    → "Well, perhaps you can be of some help. Many of our children have disappeared mysteriously, and I've no doubt the Ghelsba Orcs are behind it.\u007F1\u0000\u0007"
     0x0A8C [0x23] WAIT_FOR_DIALOG_INTERACTION
     0x0A8D [0x52] END_LOAD_SCHEDULER: End scheduler "s026" with entities [EventEntity, EventEntity], work=90*
     0x0A9C [0x45] LOAD_SCHEDULED_TASK: Load scheduler "s076" with entities [EventEntity, EventEntity], work=[90*, 0*]
     0x0AAD [0x66] LOAD_EXT_SCHEDULER_MAIN: Load scheduler "thk1" with entities [EventEntity, EventEntity], work=30*
     0x0ABC [0x1D] PRINT_EVENT_MESSAGE(message_id=31*)
    → "The Royal Knights should be on the job by now, but the two princes are at each other's throats.\u007F1\u0000\u0007"
     0x0ABF [0x23] WAIT_FOR_DIALOG_INTERACTION
     0x0AC0 [0x1D] PRINT_EVENT_MESSAGE(message_id=32*)
    → "Prince Trion, the eldest, says we should launch a full attack, with all haste.\u007F1\u0000\u0007"
     0x0AC3 [0x23] WAIT_FOR_DIALOG_INTERACTION
     0x0AC4 [0x1D] PRINT_EVENT_MESSAGE(message_id=33*)
    → "While his younger brother, Prince Pieuje says the safety of the children comes first, and he won't authorize an attack.\u007F1\u0000\u0007"
     0x0AC7 [0x23] WAIT_FOR_DIALOG_INTERACTION
     0x0AC8 [0x52] END_LOAD_SCHEDULER: End scheduler "s076" with entities [EventEntity, EventEntity], work=90*
     0x0AD7 [0x45] LOAD_SCHEDULED_TASK: Load scheduler "s026" with entities [EventEntity, EventEntity], work=[90*, 0*]
     0x0AE8 [0x1D] PRINT_EVENT_MESSAGE(message_id=34*)
    → "They've been arguing this back and forth for days. The knights' hands are tied, and frankly, nobody knows what to do.\u007F1\u0000\u0007"
     0x0AEB [0x23] WAIT_FOR_DIALOG_INTERACTION
     0x0AEC [0x66] LOAD_EXT_SCHEDULER_MAIN: Load scheduler "thk2" with entities [EventEntity, EventEntity], work=30*
     0x0AFB [0x53] WAIT_SCHEDULER_TASK: Wait for scheduler "thk2" with entities [EventEntity, EventEntity]
     0x0B08 [0x1C] WAIT(30* ticks)
     0x0B0B [0x52] END_LOAD_SCHEDULER: End scheduler "s026" with entities [EventEntity, EventEntity], work=90*
     0x0B1A [0x45] LOAD_SCHEDULED_TASK: Load scheduler "ovl1" with entities [LocalPlayer, LocalPlayer], work=[200*, 0*]
     0x0B2B [0x45] LOAD_SCHEDULED_TASK: Load scheduler "s019" with entities [LocalPlayer, LocalPlayer], work=[131*, 0*]
     0x0B3C [0x66] LOAD_EXT_SCHEDULER_MAIN: Load scheduler "poi1" with entities [EventEntity, EventEntity], work=30*
     0x0B4B [0x1D] PRINT_EVENT_MESSAGE(message_id=35*)
    → "If you really want to make a name for yourself, go to Ghelsba, and rescue those kidnapped children!\u007F1\u0000\u0007"
     0x0B4E [0x23] WAIT_FOR_DIALOG_INTERACTION
     0x0B4F [0x66] LOAD_EXT_SCHEDULER_MAIN: Load scheduler "poi2" with entities [EventEntity, EventEntity], work=30*
     0x0B5E [0x53] WAIT_SCHEDULER_TASK: Wait for scheduler "poi2" with entities [EventEntity, EventEntity]
     0x0B6B [0x1C] WAIT(30* ticks)
     0x0B6E [0x66] LOAD_EXT_SCHEDULER_MAIN: Load scheduler "tlk0" with entities [EventEntity, EventEntity], work=30*
     0x0B7D [0x1D] PRINT_EVENT_MESSAGE(message_id=36*)
    → "What say you? Will you go?\u007F1\u0000\u0007"
     0x0B80 [0x23] WAIT_FOR_DIALOG_INTERACTION
     0x0B81 [0x5E] EventEntity goes idle (kills current action) (animation: "idl0")
     0x0B86 [0x24] CREATE_DIALOG(message_id=11*, default_option=0*, option_flags=0*)
    → "Interested?\u0007\u000BTell me more.\u0007Never mind.\u007F1\u0000\u0007"
     0x0B8D [0x25] WAIT_DIALOG_SELECT()
     0x0B8E [0x02] IF !(Work_Zone[0] == 0*) GOTO 0x0C99
     0x0B96 [0x45] LOAD_SCHEDULED_TASK: Load scheduler "s105" with entities [EventEntity, EventEntity], work=[90*, 0*]
     0x0BA7 [0x66] LOAD_EXT_SCHEDULER_MAIN: Load scheduler "tlk0" with entities [EventEntity, EventEntity], work=30*
     0x0BB6 [0x1D] PRINT_EVENT_MESSAGE(message_id=37*)
    → "Here's your mission, then. Rescue the two children kidnapped by the Orcs of Ghelsba Outpost.\u007F1\u0000\u0007"
     0x0BB9 [0x23] WAIT_FOR_DIALOG_INTERACTION
     0x0BBA [0x1D] PRINT_EVENT_MESSAGE(message_id=38*)
    → "Ghelsba Outpost is northwest of West Ronfaure. Take the path before the Westgate, then turn right when the path splits in the forest. You'll find the entrance up in the hills.\u007F1\u0000\u0007"
     0x0BBD [0x23] WAIT_FOR_DIALOG_INTERACTION
     0x0BBE [0x52] END_LOAD_SCHEDULER: End scheduler "s105" with entities [EventEntity, EventEntity], work=90*
     0x0BCD [0x45] LOAD_SCHEDULED_TASK: Load scheduler "ovl1" with entities [LocalPlayer, LocalPlayer], work=[200*, 0*]
     0x0BDE [0x02] IF !(Work_Zone[9] == 5*) GOTO 0x0BFA
     0x0BE6 [0x45] LOAD_SCHEDULED_TASK: Load scheduler "s106" with entities [EventEntity, EventEntity], work=[90*, 0*]
     0x0BF7 [0x01] GOTO 0x0C27
     0x0BFA [0x02] IF !(Work_Zone[9] == 6*) GOTO 0x0C16
     0x0C02 [0x45] LOAD_SCHEDULED_TASK: Load scheduler "s106" with entities [EventEntity, EventEntity], work=[90*, 0*]
     0x0C13 [0x01] GOTO 0x0C27
     0x0C16 [0x45] LOAD_SCHEDULED_TASK: Load scheduler "s022" with entities [LocalPlayer, LocalPlayer], work=[131*, 0*]
     0x0C27 [0x1D] PRINT_EVENT_MESSAGE(message_id=39*)
    → "If you have trouble finding the way, just follow one of the soldiers on patrol.\u007F1\u0000\u0007"
     0x0C2A [0x23] WAIT_FOR_DIALOG_INTERACTION
     0x0C2B [0x1D] PRINT_EVENT_MESSAGE(message_id=14*)
    → "That is all. You'll take the mission then?\u007F1\u0000\u0007"
     0x0C2E [0x23] WAIT_FOR_DIALOG_INTERACTION
     0x0C2F [0x5E] EventEntity goes idle (kills current action) (animation: "idl0")
     0x0C34 [0x24] CREATE_DIALOG(message_id=15*, default_option=0*, option_flags=0*)
    → "Do you accept the mission?\u0007\u000BI accept.\u0007Could you explain again?\u0007No, thank you.\u007F1\u0000\u0007"
     0x0C3B [0x25] WAIT_DIALOG_SELECT()
     0x0C3C [0x02] IF !(Work_Zone[0] == 0*) GOTO 0x0C78
     0x0C44 [0x45] LOAD_SCHEDULED_TASK: Load scheduler "s077" with entities [EventEntity, EventEntity], work=[90*, 0*]
     0x0C55 [0x66] LOAD_EXT_SCHEDULER_MAIN: Load scheduler "tlk0" with entities [EventEntity, EventEntity], work=30*
     0x0C64 [0x1D] PRINT_EVENT_MESSAGE(message_id=40*)
    → "Orcs tend to keep their hostages in tents or small huts. Once you're inside the compound, check them first.\u007F1\u0000\u0007"
     0x0C67 [0x23] WAIT_FOR_DIALOG_INTERACTION
     0x0C68 [0x5E] EventEntity goes idle (kills current action) (animation: "idl0")
     0x0C6D [0x1C] WAIT(30* ticks)
     0x0C70 [0x03] Work_Zone[1] = 2*
     0x0C75 [0x01] GOTO 0x0C96
     0x0C78 [0x02] IF !(Work_Zone[0] == 1*) GOTO 0x0C86
     0x0C80 [0x01] GOTO 0x0B96
     0x0C83 [0x01] GOTO 0x0C96
     0x0C86 [0x02] IF !(Work_Zone[0] == 2*) GOTO 0x0C96
     0x0C8E [0x03] Work_Zone[1] = 1073741824*
     0x0C93 [0x01] GOTO 0x0C96
     0x0C96 [0x01] GOTO 0x0CA9
     0x0C99 [0x02] IF !(Work_Zone[0] == 1*) GOTO 0x0CA9
     0x0CA1 [0x03] Work_Zone[1] = 1073741824*
     0x0CA6 [0x01] GOTO 0x0CA9
     0x0CA9 [0x45] LOAD_SCHEDULED_TASK: Load scheduler "fdo1" with entities [EventEntity, EventEntity], work=[200*, 0*]
     0x0CBA [0x1C] WAIT(60* ticks)
     0x0CBD [0x52] END_LOAD_SCHEDULER: End scheduler "s077" with entities [EventEntity, EventEntity], work=90*
     0x0CCC [0x46] CAMERA_CONTROL: Restore default settings
     0x0CCE [0x45] LOAD_SCHEDULED_TASK: Load scheduler "fdi1" with entities [EventEntity, EventEntity], work=[200*, 0*]
     0x0CDF [0x21] END_EVENT
     0x0CE0 [0x00] END_REQSTACK()
     0x0CE1 [0x29] REQ_SET_WAIT(priority=0x0F, entity_id=Grilau (ID: 17723426/0x010E7022), tag_num=0x38)
     0x0CE8 [0x00] END_REQSTACK()
```