# Event 1021

## Metadata

| Field           | Value    |
|-----------------|----------|
| Event Index     | 52/91    |
| Offset          | 0x2716   |
| Data Size       | 33 bytes |
| Calculated Size | 33 bytes |
| Instructions    | 12       |

```
      00 01 02 03 04 05 06 07  08 09 0A 0B 0C 0D 0E 0F
      -- -- -- -- -- -- -- --  -- -- -- -- -- -- -- --
2710:                   1E F0  FF FF 7F 6F 70 29 08 22        .....op)."
2720: 70 0E 01 11 1D 8A 80 23  1D 8B 80 23 29 08 22 70  p......#...#)."p
2730: 0E 01 12 20 00 21 00                              ... .!.         
```

## Opcodes

```
  0: 0x2716 [0x1E] EventEntity looks at LocalPlayer and starts talking
  1: 0x271B [0x6F] WAIT_FRAME_DELAY: Yield until WaitTime reaches zero
  2: 0x271C [0x70] WAIT_ENTITY_RENDER_FLAG: Wait while EventEntity->Render.Flags3 bit 2 is set (cancel turn if not)
  3: 0x271D [0x29] REQ_SET_WAIT(priority=0x08, entity_id=Grilau (ID: 17723426/0x010E7022), tag_num=0x11)
  4: 0x2724 [0x1D] PRINT_EVENT_MESSAGE(message_id=12617*)
    → "Visitors report missing gravestones and shadows twisting in the caverns. Scour the tomb and determine if they speak the truth.\u007F1\u0000\u0007"
  5: 0x2727 [0x23] WAIT_FOR_DIALOG_INTERACTION
  6: 0x2728 [0x1D] PRINT_EVENT_MESSAGE(message_id=12618*)
    → "Make haste to King Ranperre's Tomb. You may find proof of grave-robbers there.\u007F1\u0000\u0007"
  7: 0x272B [0x23] WAIT_FOR_DIALOG_INTERACTION
  8: 0x272C [0x29] REQ_SET_WAIT(priority=0x08, entity_id=Grilau (ID: 17723426/0x010E7022), tag_num=0x12)
  9: 0x2733 [0x20] SET_CLI_EVENT_UC_FLAG: Unlock player control
 10: 0x2735 [0x21] END_EVENT
 11: 0x2736 [0x00] END_REQSTACK()
```
