# Event 1025

## Metadata

| Field           | Value    |
|-----------------|----------|
| Event Index     | 65/91    |
| Offset          | 0x2AB1   |
| Data Size       | 33 bytes |
| Calculated Size | 33 bytes |
| Instructions    | 12       |

```
      00 01 02 03 04 05 06 07  08 09 0A 0B 0C 0D 0E 0F
      -- -- -- -- -- -- -- --  -- -- -- -- -- -- -- --
2AB0:    1E F0 FF FF 7F 6F 70  29 08 22 70 0E 01 11 1D   .....op)."p....
2AC0: 97 80 23 1D 98 80 23 29  08 22 70 0E 01 12 20 00  ..#...#)."p... .
2AD0: 21 00                                             !.              
```

## Opcodes

```
  0: 0x2AB1 [0x1E] EventEntity looks at LocalPlayer and starts talking
  1: 0x2AB6 [0x6F] WAIT_FRAME_DELAY: Yield until WaitTime reaches zero
  2: 0x2AB7 [0x70] WAIT_ENTITY_RENDER_FLAG: Wait while EventEntity->Render.Flags3 bit 2 is set (cancel turn if not)
  3: 0x2AB8 [0x29] REQ_SET_WAIT(priority=0x08, entity_id=Grilau (ID: 17723426/0x010E7022), tag_num=0x11)
  4: 0x2ABF [0x1D] PRINT_EVENT_MESSAGE(message_id=12631*)
    → "A boy training to be a friar went near Ghelsba and did not return. His name was Tedimout.\u007F1\u0000\u0007"
  5: 0x2AC2 [0x23] WAIT_FOR_DIALOG_INTERACTION
  6: 0x2AC3 [0x1D] PRINT_EVENT_MESSAGE(message_id=12632*)
    → "The Temple Knights may be mobilized soon. You must visit the cathedral and ask what this boy looks like.\u007F1\u0000\u0007"
  7: 0x2AC6 [0x23] WAIT_FOR_DIALOG_INTERACTION
  8: 0x2AC7 [0x29] REQ_SET_WAIT(priority=0x08, entity_id=Grilau (ID: 17723426/0x010E7022), tag_num=0x12)
  9: 0x2ACE [0x20] SET_CLI_EVENT_UC_FLAG: Unlock player control
 10: 0x2AD0 [0x21] END_EVENT
 11: 0x2AD1 [0x00] END_REQSTACK()
```
