# Event 1028

## Metadata

| Field           | Value    |
|-----------------|----------|
| Event Index     | 73/91    |
| Offset          | 0x2D29   |
| Data Size       | 33 bytes |
| Calculated Size | 33 bytes |
| Instructions    | 12       |

```
      00 01 02 03 04 05 06 07  08 09 0A 0B 0C 0D 0E 0F
      -- -- -- -- -- -- -- --  -- -- -- -- -- -- -- --
2D20:                             1E F0 FF FF 7F 6F 70           .....op
2D30: 29 08 22 70 0E 01 11 1D  9F 80 23 1D A0 80 23 29  )."p......#...#)
2D40: 08 22 70 0E 01 12 20 00  21 00                    ."p... .!.      
```

## Opcodes

```
  0: 0x2D29 [0x1E] EventEntity looks at LocalPlayer and starts talking
  1: 0x2D2E [0x6F] WAIT_FRAME_DELAY: Yield until WaitTime reaches zero
  2: 0x2D2F [0x70] WAIT_ENTITY_RENDER_FLAG: Wait while EventEntity->Render.Flags3 bit 2 is set (cancel turn if not)
  3: 0x2D30 [0x29] REQ_SET_WAIT(priority=0x08, entity_id=Grilau (ID: 17723426/0x010E7022), tag_num=0x11)
  4: 0x2D37 [0x1D] PRINT_EVENT_MESSAGE(message_id=12643*)
    → "What? You were told to hand the \u0001\u00053\u0002\u0003\u0000\u0000 to Prince Pieuje personally?\u007F1\u0000\u0007"
  5: 0x2D3A [0x23] WAIT_FOR_DIALOG_INTERACTION
  6: 0x2D3B [0x1D] PRINT_EVENT_MESSAGE(message_id=12644*)
    → "Well, you should find His Highness in the cathedral.\u007F1\u0000\u0007"
  7: 0x2D3E [0x23] WAIT_FOR_DIALOG_INTERACTION
  8: 0x2D3F [0x29] REQ_SET_WAIT(priority=0x08, entity_id=Grilau (ID: 17723426/0x010E7022), tag_num=0x12)
  9: 0x2D46 [0x20] SET_CLI_EVENT_UC_FLAG: Unlock player control
 10: 0x2D48 [0x21] END_EVENT
 11: 0x2D49 [0x00] END_REQSTACK()
```
