# Event 1045

## Metadata

| Field           | Value      |
|-----------------|------------|
| Event Index     | 91/91      |
| Offset          | 0x2F33     |
| Data Size       | 1109 bytes |
| Calculated Size | 1109 bytes |
| Instructions    | 5          |

```
      00 01 02 03 04 05 06 07  08 09 0A 0B 0C 0D 0E 0F
      -- -- -- -- -- -- -- --  -- -- -- -- -- -- -- --
2F30:          01 DA 31 00 45  02 80 F0 FF FF 7F F0 FF     ..1.E........
2F40: FF 7F 66 64 6F 32 03 80  55 02 80 F0 FF FF 7F F0  ..fdo2..U.......
2F50: FF FF 7F 66 64 6F 32 46  00 45 02 80 F0 FF FF 7F  ...fdo2F.E......
2F60: F0 FF FF 7F 66 64 69 32  03 80 1B 1A 04 33 1D AA  ....fdi2.....3..
2F70: 80 23 1D A1 80 23 1A 14  33 24 1F 80 03 80 03 80  .#...#..3$......
2F80: 25 02 00 10 03 80 00 98  2F 1A 04 33 1D 61 80 23  %......./..3.a.#
2F90: 03 01 10 14 80 01 AF 2F  02 00 10 01 80 00 AF 2F  ......./......./
2FA0: 1A 04 33 1D AB 80 23 03  01 10 16 80 01 AF 2F 1A  ..3...#......./.
2FB0: 14 33 45 02 80 F0 FF FF  7F F0 FF FF 7F 66 64 6F  .3E..........fdo
2FC0: 32 03 80 55 02 80 F0 FF  FF 7F F0 FF FF 7F 66 64  2..U..........fd
2FD0: 6F 32 46 00 45 02 80 F0  FF FF 7F F0 FF FF 7F 66  o2F.E..........f
2FE0: 64 69 32 03 80 21 00 1A  04 33 1D AC 80 23 1A 14  di2..!...3...#..
2FF0: 33 24 1F 80 03 80 03 80  25 02 00 10 03 80 00 10  3$......%.......
3000: 30 1A 04 33 1D AD 80 23  03 01 10 18 80 01 27 30  0..3...#......'0
3010: 02 00 10 01 80 00 27 30  1A 04 33 1D AE 80 23 03  ......'0..3...#.
3020: 01 10 16 80 01 27 30 1A  14 33 1A 37 2F 21 00 1A  .....'0..3.7/!..
3030: 3A 33 1A 04 33 1D AF 80  23 1A 14 33 1A 37 2F 21  :3..3...#..3.7/!
3040: 00 1E F0 FF FF 7F 6F 70  1A 04 33 03 02 10 B0 80  ......op..3.....
3050: 1D B1 80 23 1A 14 33 21  00 1E F0 FF FF 7F 6F 70  ...#..3!......op
3060: 1A 04 33 03 02 10 B0 80  1D B2 80 23 1A 14 33 21  ..3........#..3!
3070: 00 1A 3A 33 1A 04 33 1D  78 80 23 1D B3 80 23 1A  ..:3..3.x.#...#.
3080: 14 33 7D 30 80 45 1A 80  F0 FF FF 7F F0 FF FF 7F  .3}0.E..........
3090: 71 73 74 63 03 80 1C 02  80 1A 37 2F 21 00 1A 04  qstc......7/!...
30A0: 33 1D 71 80 23 1A 14 33  24 1F 80 03 80 03 80 25  3.q.#..3$......%
30B0: 02 00 10 03 80 00 C7 30  1A 04 33 1D B4 80 23 03  .......0..3...#.
30C0: 01 10 19 80 01 DE 30 02  00 10 01 80 00 DE 30 1A  ......0.......0.
30D0: 04 33 1D B5 80 23 03 01  10 16 80 01 DE 30 1A 14  .3...#.......0..
30E0: 33 1A 37 2F 21 00 1A 3A  33 1A 04 33 1D B6 80 23  3.7/!..:3..3...#
30F0: 1D B7 80 23 1D 72 80 23  1A 14 33 1A 37 2F 21 00  ...#.r.#..3.7/!.
3100: 1A 04 33 1D B8 80 23 1D  B9 80 23 1D BA 80 23 1D  ..3...#...#...#.
3110: 08 80 23 1A 14 33 24 1F  80 03 80 03 80 25 02 00  ..#..3$......%..
3120: 10 03 80 00 35 31 1A 04  33 1D BB 80 23 03 01 10  ....51..3...#...
3130: 1B 80 01 4C 31 02 00 10  01 80 00 4C 31 1A 04 33  ...L1......L1..3
3140: 1D BC 80 23 03 01 10 16  80 01 4C 31 1A 14 33 1A  ...#......L1..3.
3150: 37 2F 21 00 1A 3A 33 1A  04 33 1D BD 80 23 03 02  7/!..:3..3...#..
3160: 10 BE 80 1D BF 80 23 1D  C0 80 23 1D C1 80 23 1A  ......#...#...#.
3170: 14 33 7D 31 80 45 1A 80  F0 FF FF 7F F0 FF FF 7F  .3}1.E..........
3180: 71 73 74 63 03 80 1C 02  80 1A 37 2F 21 00 1A 04  qstc......7/!...
3190: 33 1D C2 80 23 1D C3 80  23 1A 14 33 24 1F 80 03  3...#...#..3$...
31A0: 80 03 80 25 02 00 10 03  80 00 BB 31 1A 04 33 1D  ...%.......1..3.
31B0: C4 80 23 03 01 10 1C 80  01 D2 31 02 00 10 01 80  ..#.......1.....
31C0: 00 D2 31 1A 04 33 1D C5  80 23 03 01 10 16 80 01  ..1..3...#......
31D0: D2 31 1A 14 33 1A 37 2F  21 00 1E F0 FF FF 7F 6F  .1..3.7/!......o
31E0: 70 1A 04 33 1D C6 80 23  1A 14 33 21 00 1A 04 33  p..3...#..3!...3
31F0: 1D C7 80 23 1A 14 33 24  1F 80 03 80 03 80 25 02  ...#..3$......%.
3200: 00 10 03 80 00 16 32 1A  04 33 1D C8 80 23 03 01  ......2..3...#..
3210: 10 1D 80 01 2D 32 02 00  10 01 80 00 2D 32 1A 04  ....-2......-2..
3220: 33 1D C9 80 23 03 01 10  16 80 01 2D 32 1A 14 33  3...#......-2..3
3230: 1A 37 2F 21 00 1A 04 33  1D CA 80 23 1A 14 33 24  .7/!...3...#..3$
3240: 1F 80 03 80 03 80 25 02  00 10 03 80 00 5E 32 1A  ......%......^2.
3250: 04 33 1D CB 80 23 03 01  10 20 80 01 75 32 02 00  .3...#... ..u2..
3260: 10 01 80 00 75 32 1A 04  33 1D CC 80 23 03 01 10  ....u2..3...#...
3270: 16 80 01 75 32 1A 14 33  1A 37 2F 21 00 1A 04 33  ...u2..3.7/!...3
3280: 1D CD 80 23 1D CE 80 23  1D CF 80 23 1D D0 80 23  ...#...#...#...#
3290: 1A 14 33 24 1F 80 03 80  03 80 25 02 00 10 03 80  ..3$......%.....
32A0: 00 E5 32 1A 04 33 1D D1  80 23 1A 14 33 24 D2 80  ..2..3...#..3$..
32B0: 03 80 03 80 25 1A 1A 33  02 00 10 03 80 00 C7 32  ....%..3.......2
32C0: 1D D3 80 23 01 D6 32 02  00 10 01 80 00 D6 32 1D  ...#..2.......2.
32D0: D4 80 23 01 D6 32 1A 2A  33 1D D5 80 23 03 01 10  ..#..2.*3...#...
32E0: 21 80 01 FC 32 02 00 10  01 80 00 FC 32 1A 04 33  !...2.......2..3
32F0: 1D D6 80 23 03 01 10 16  80 01 FC 32 1A 14 33 1A  ...#.......2..3.
3300: 37 2F 21 00 66 00 80 F8  FF FF 7F F8 FF FF 7F 74  7/!.f..........t
3310: 6C 6B 30 1B 5E 69 64 6C  30 1B 66 00 80 F8 FF FF  lk0.^idl0.f.....
3320: 7F F8 FF FF 7F 74 68 6B  31 1B 66 00 80 F8 FF FF  .....thk1.f.....
3330: 7F F8 FF FF 7F 74 68 6B  32 1B 42 46 01 45 02 80  .....thk2.BF.E..
3340: F8 FF FF 7F F8 FF FF 7F  66 64 6F 31 03 80 1C 04  ........fdo1....
3350: 80 38 05 80 29 64 F0 FF  FF 7F 25 79 00 F8 FF FF  .8..)d....%y....
3360: 7F F0 FF FF 7F 45 08 80  F0 FF FF 7F F0 FF FF 7F  .....E..........
3370: 73 30 32 33 03 80 45 02  80 F8 FF FF 7F F8 FF FF  s023..E.........
3380: 7F 66 64 69 31 03 80 1B                           .fdi1...        
```

## Opcodes

```
  0: 0x2F33 [0x01] GOTO 0x31DA

SUBROUTINE_3304:
  1: 0x3304 [0x66] LOAD_EXT_SCHEDULER_MAIN: Load scheduler "tlk0" with entities [EventEntity, EventEntity], work=30*
  2: 0x3313 [0x1B] RETURN

SUBROUTINE_3314:
  3: 0x3314 [0x5E] EventEntity goes idle (kills current action) (animation: "idl0")
  4: 0x3319 [0x1B] RETURN
```

## Data or dead code:

```
# Dead code (unreachable instructions):
     0x2F36 [0x00] END_REQSTACK()
     0x2F37 [0x45] LOAD_SCHEDULED_TASK: Load scheduler "fdo2" with entities [LocalPlayer, LocalPlayer], work=[200*, 0*]
     0x2F48 [0x55] WAIT_LOAD_SCHEDULER: Wait for scheduler "fdo2" with entities [LocalPlayer, LocalPlayer], work=200*
     0x2F57 [0x46] CAMERA_CONTROL: Restore default settings
     0x2F59 [0x45] LOAD_SCHEDULED_TASK: Load scheduler "fdi2" with entities [LocalPlayer, LocalPlayer], work=[200*, 0*]
     0x2F6A [0x1B] RETURN
     0x2F6B [0x1A] CALL_SUBROUTINE(address=0x3304)
     0x2F6E [0x1D] PRINT_EVENT_MESSAGE(message_id=109*)
    → "Well, if it isn't \u0008!\u0007Your timing is perfect. The chateau just sent a request for an adventurer.\u007F1\u0000\u0007"
     0x2F71 [0x23] WAIT_FOR_DIALOG_INTERACTION
     0x2F72 [0x1D] PRINT_EVENT_MESSAGE(message_id=110*)
    → "It looks as if this next mission has something to do with the late queen. You should feel honored. It's not every day that an adventurer gets to work directly with the royal family.\u007F1\u0000\u0007"
     0x2F75 [0x23] WAIT_FOR_DIALOG_INTERACTION
     0x2F76 [0x1A] CALL_SUBROUTINE(address=0x3314)
     0x2F79 [0x24] CREATE_DIALOG(message_id=4*, default_option=0*, option_flags=0*)
    → "Accept this mission?\u0007\u000BYes.\u0007No.\u007F1\u0000\u0007"
     0x2F80 [0x25] WAIT_DIALOG_SELECT()
     0x2F81 [0x02] IF !(Work_Zone[0] == 0*) GOTO 0x2F98
     0x2F89 [0x1A] CALL_SUBROUTINE(address=0x3304)
     0x2F8C [0x1D] PRINT_EVENT_MESSAGE(message_id=111*)
    → "Spoken like a true San d'Orian!\u0007Now hurry off to Chateau d'Oraguille and get the details on the mission from Monarlais Halver.\u007F1\u0000\u0007"
     0x2F8F [0x23] WAIT_FOR_DIALOG_INTERACTION
     0x2F90 [0x03] Work_Zone[1] = 16*
     0x2F95 [0x01] GOTO 0x2FAF
     0x2F98 [0x02] IF !(Work_Zone[0] == 1*) GOTO 0x2FAF
     0x2FA0 [0x1A] CALL_SUBROUTINE(address=0x3304)
     0x2FA3 [0x1D] PRINT_EVENT_MESSAGE(message_id=112*)
    → "What's wrong? Dealing with royalty is not your cup of tea? Well, think about it and come back when you've come to your senses.\u007F1\u0000\u0007"
     0x2FA6 [0x23] WAIT_FOR_DIALOG_INTERACTION
     0x2FA7 [0x03] Work_Zone[1] = 1073741824*
     0x2FAC [0x01] GOTO 0x2FAF
     0x2FAF [0x1A] CALL_SUBROUTINE(address=0x3314)
     0x2FB2 [0x45] LOAD_SCHEDULED_TASK: Load scheduler "fdo2" with entities [LocalPlayer, LocalPlayer], work=[200*, 0*]
     0x2FC3 [0x55] WAIT_LOAD_SCHEDULER: Wait for scheduler "fdo2" with entities [LocalPlayer, LocalPlayer], work=200*
     0x2FD2 [0x46] CAMERA_CONTROL: Restore default settings
     0x2FD4 [0x45] LOAD_SCHEDULED_TASK: Load scheduler "fdi2" with entities [LocalPlayer, LocalPlayer], work=[200*, 0*]
     0x2FE5 [0x21] END_EVENT
     0x2FE6 [0x00] END_REQSTACK()
     0x2FE7 [0x1A] CALL_SUBROUTINE(address=0x3304)
     0x2FEA [0x1D] PRINT_EVENT_MESSAGE(message_id=113*)
    → "Prince Trion is requesting the aid of an adventurer. How about it?\u007F1\u0000\u0007"
     0x2FED [0x23] WAIT_FOR_DIALOG_INTERACTION
     0x2FEE [0x1A] CALL_SUBROUTINE(address=0x3314)
     0x2FF1 [0x24] CREATE_DIALOG(message_id=4*, default_option=0*, option_flags=0*)
    → "Accept this mission?\u0007\u000BYes.\u0007No.\u007F1\u0000\u0007"
     0x2FF8 [0x25] WAIT_DIALOG_SELECT()
     0x2FF9 [0x02] IF !(Work_Zone[0] == 0*) GOTO 0x3010
     0x3001 [0x1A] CALL_SUBROUTINE(address=0x3304)
     0x3004 [0x1D] PRINT_EVENT_MESSAGE(message_id=114*)
    → "It looks fairly urgent, so you should hurry to the chateau. The prince is waiting in his chambers.\u007F1\u0000\u0007"
     0x3007 [0x23] WAIT_FOR_DIALOG_INTERACTION
     0x3008 [0x03] Work_Zone[1] = 17*
     0x300D [0x01] GOTO 0x3027
     0x3010 [0x02] IF !(Work_Zone[0] == 1*) GOTO 0x3027
     0x3018 [0x1A] CALL_SUBROUTINE(address=0x3304)
     0x301B [0x1D] PRINT_EVENT_MESSAGE(message_id=115*)
    → "I expected more from you, \u0008. If you change your mind, return here. I'll be waiting.\u007F1\u0000\u0007"
     0x301E [0x23] WAIT_FOR_DIALOG_INTERACTION
     0x301F [0x03] Work_Zone[1] = 1073741824*
     0x3024 [0x01] GOTO 0x3027
     0x3027 [0x1A] CALL_SUBROUTINE(address=0x3314)
     0x302A [0x1A] CALL_SUBROUTINE(address=0x2F37)
     0x302D [0x21] END_EVENT
     0x302E [0x00] END_REQSTACK()
     0x302F [0x1A] CALL_SUBROUTINE(address=0x333A)
     0x3032 [0x1A] CALL_SUBROUTINE(address=0x3304)
     0x3035 [0x1D] PRINT_EVENT_MESSAGE(message_id=116*)
    → "I have received the details of your mission from Prince Trion. I will deliver this book to the scholars for deciphering.\u007F1\u0000\u0007"
     0x3038 [0x23] WAIT_FOR_DIALOG_INTERACTION
     0x3039 [0x1A] CALL_SUBROUTINE(address=0x3314)
     0x303C [0x1A] CALL_SUBROUTINE(address=0x2F37)
     0x303F [0x21] END_EVENT
     0x3040 [0x00] END_REQSTACK()
     0x3041 [0x1E] EventEntity looks at LocalPlayer and starts talking
     0x3046 [0x6F] WAIT_FRAME_DELAY: Yield until WaitTime reaches zero
     0x3047 [0x70] WAIT_ENTITY_RENDER_FLAG: Wait while EventEntity->Render.Flags3 bit 2 is set (cancel turn if not)
     0x3048 [0x1A] CALL_SUBROUTINE(address=0x3304)
     0x304B [0x03] Work_Zone[2] = 269*
     0x3050 [0x1D] PRINT_EVENT_MESSAGE(message_id=117*)
    → "The deciphering of the \u0001\u00053\u0002\u0000\u0000\u0000 will take a considerable amount of time. Return later for a report.\u007F1\u0000\u0007"
     0x3053 [0x23] WAIT_FOR_DIALOG_INTERACTION
     0x3054 [0x1A] CALL_SUBROUTINE(address=0x3314)
     0x3057 [0x21] END_EVENT
     0x3058 [0x00] END_REQSTACK()
     0x3059 [0x1E] EventEntity looks at LocalPlayer and starts talking
     0x305E [0x6F] WAIT_FRAME_DELAY: Yield until WaitTime reaches zero
     0x305F [0x70] WAIT_ENTITY_RENDER_FLAG: Wait while EventEntity->Render.Flags3 bit 2 is set (cancel turn if not)
     0x3060 [0x1A] CALL_SUBROUTINE(address=0x3304)
     0x3063 [0x03] Work_Zone[2] = 269*
     0x3068 [0x1D] PRINT_EVENT_MESSAGE(message_id=119*)
    → "Ah, \u0008. We've been waiting.\u0007Prince Trion is calling for you. I wonder if this means the \u0001\u00053\u0002\u0000\u0000\u0000 has been completely deciphered.\u007F1\u0000\u0007"
     0x306B [0x23] WAIT_FOR_DIALOG_INTERACTION
     0x306C [0x1A] CALL_SUBROUTINE(address=0x3314)
     0x306F [0x21] END_EVENT
     0x3070 [0x00] END_REQSTACK()
     0x3071 [0x1A] CALL_SUBROUTINE(address=0x333A)
     0x3074 [0x1A] CALL_SUBROUTINE(address=0x3304)
     0x3077 [0x1D] PRINT_EVENT_MESSAGE(message_id=120*)
    → "Well done, \u0008! I knew you would not let the Kingdom down.\u007F1\u0000\u0007"
     0x307A [0x23] WAIT_FOR_DIALOG_INTERACTION
     0x307B [0x1D] PRINT_EVENT_MESSAGE(message_id=121*)
    → "I'm proud to increase your rank to 7!\u007F1\u0000\u0007"
     0x307E [0x23] WAIT_FOR_DIALOG_INTERACTION
     0x307F [0x1A] CALL_SUBROUTINE(address=0x3314)
     0x3082 [0x7D] LOAD_START_SCHEDULER_PLAYER: Load scheduler with animation_id 32816
     0x3085 [0x45] LOAD_SCHEDULED_TASK: Load scheduler "qstc" with entities [LocalPlayer, LocalPlayer], work=[201*, 0*]
     0x3096 [0x1C] WAIT(200* ticks)
     0x3099 [0x1A] CALL_SUBROUTINE(address=0x2F37)
     0x309C [0x21] END_EVENT
     0x309D [0x00] END_REQSTACK()
     0x309E [0x1A] CALL_SUBROUTINE(address=0x3304)
     0x30A1 [0x1D] PRINT_EVENT_MESSAGE(message_id=122*)
    → "The papsque has work for you, \u0008. Are you willing to take on the task?\u007F1\u0000\u0007"
     0x30A4 [0x23] WAIT_FOR_DIALOG_INTERACTION
     0x30A5 [0x1A] CALL_SUBROUTINE(address=0x3314)
     0x30A8 [0x24] CREATE_DIALOG(message_id=4*, default_option=0*, option_flags=0*)
    → "Accept this mission?\u0007\u000BYes.\u0007No.\u007F1\u0000\u0007"
     0x30AF [0x25] WAIT_DIALOG_SELECT()
     0x30B0 [0x02] IF !(Work_Zone[0] == 0*) GOTO 0x30C7
     0x30B8 [0x1A] CALL_SUBROUTINE(address=0x3304)
     0x30BB [0x1D] PRINT_EVENT_MESSAGE(message_id=123*)
    → "Excellent. Proceed to the papsque's chambers on the third floor of the cathedral.\u007F1\u0000\u0007"
     0x30BE [0x23] WAIT_FOR_DIALOG_INTERACTION
     0x30BF [0x03] Work_Zone[1] = 18*
     0x30C4 [0x01] GOTO 0x30DE
     0x30C7 [0x02] IF !(Work_Zone[0] == 1*) GOTO 0x30DE
     0x30CF [0x1A] CALL_SUBROUTINE(address=0x3304)
     0x30D2 [0x1D] PRINT_EVENT_MESSAGE(message_id=124*)
    → "The papsque often comes across as a difficult man, but he is actually very kindhearted and compassionate. If you change your mind, I'll be waiting here.\u007F1\u0000\u0007"
     0x30D5 [0x23] WAIT_FOR_DIALOG_INTERACTION
     0x30D6 [0x03] Work_Zone[1] = 1073741824*
     0x30DB [0x01] GOTO 0x30DE
     0x30DE [0x1A] CALL_SUBROUTINE(address=0x3314)
     0x30E1 [0x1A] CALL_SUBROUTINE(address=0x2F37)
     0x30E4 [0x21] END_EVENT
     0x30E5 [0x00] END_REQSTACK()
     0x30E6 [0x1A] CALL_SUBROUTINE(address=0x333A)
     0x30E9 [0x1A] CALL_SUBROUTINE(address=0x3304)
     0x30EC [0x1D] PRINT_EVENT_MESSAGE(message_id=125*)
    → "The fair Claidie I d'Oraguille has invited you to the chateau. She wishes for you to see the flowers that have bloomed from the seeds you brought back from Altepa.\u007F1\u0000\u0007"
     0x30EF [0x23] WAIT_FOR_DIALOG_INTERACTION
     0x30F0 [0x1D] PRINT_EVENT_MESSAGE(message_id=126*)
    → "It is an honor to be invited to the chateau garden. One day you may even have the opportunity to attend one of their royal garden parties.\u007F1\u0000\u0007"
     0x30F3 [0x23] WAIT_FOR_DIALOG_INTERACTION
     0x30F4 [0x1D] PRINT_EVENT_MESSAGE(message_id=127*)
    → "We cannot keep the princess waiting. Now, off to the chateau!\u007F1\u0000\u0007"
     0x30F7 [0x23] WAIT_FOR_DIALOG_INTERACTION
     0x30F8 [0x1A] CALL_SUBROUTINE(address=0x3314)
     0x30FB [0x1A] CALL_SUBROUTINE(address=0x2F37)
     0x30FE [0x21] END_EVENT
     0x30FF [0x00] END_REQSTACK()
     0x3100 [0x1A] CALL_SUBROUTINE(address=0x3304)
     0x3103 [0x1D] PRINT_EVENT_MESSAGE(message_id=128*)
    → "A party of Royal Knights stationed in Ghelsba Outpost have reported strange activity by Orcs deep within Yughott Grotto.\u007F1\u0000\u0007"
     0x3106 [0x23] WAIT_FOR_DIALOG_INTERACTION
     0x3107 [0x1D] PRINT_EVENT_MESSAGE(message_id=129*)
    → "From your reports, we already know that the beastmen have built a giant portal, but their motives remain unclear.\u007F1\u0000\u0007"
     0x310A [0x23] WAIT_FOR_DIALOG_INTERACTION
     0x310B [0x1D] PRINT_EVENT_MESSAGE(message_id=130*)
    → "It makes me shudder to think of what those Orcs are planning with that portal...\u007F1\u0000\u0007"
     0x310E [0x23] WAIT_FOR_DIALOG_INTERACTION
     0x310F [0x1D] PRINT_EVENT_MESSAGE(message_id=131*)
    → "\u0008, your next mission is to travel to Ghelsba and continue your investigation into the Orcs' activities.\u007F1\u0000\u0007"
     0x3112 [0x23] WAIT_FOR_DIALOG_INTERACTION
     0x3113 [0x1A] CALL_SUBROUTINE(address=0x3314)
     0x3116 [0x24] CREATE_DIALOG(message_id=4*, default_option=0*, option_flags=0*)
    → "Accept this mission?\u0007\u000BYes.\u0007No.\u007F1\u0000\u0007"
     0x311D [0x25] WAIT_DIALOG_SELECT()
     0x311E [0x02] IF !(Work_Zone[0] == 0*) GOTO 0x3135
     0x3126 [0x1A] CALL_SUBROUTINE(address=0x3304)
     0x3129 [0x1D] PRINT_EVENT_MESSAGE(message_id=132*)
    → "Be on your guard when traveling deep into Yughott Grotto. Losing an adventurer such as yourself would deal a great blow to all of San d'Oria.\u007F1\u0000\u0007"
     0x312C [0x23] WAIT_FOR_DIALOG_INTERACTION
     0x312D [0x03] Work_Zone[1] = 19*
     0x3132 [0x01] GOTO 0x314C
     0x3135 [0x02] IF !(Work_Zone[0] == 1*) GOTO 0x314C
     0x313D [0x1A] CALL_SUBROUTINE(address=0x3304)
     0x3140 [0x1D] PRINT_EVENT_MESSAGE(message_id=133*)
    → "I see you need more time for preparations. When you are ready, I'll be waiting.\u007F1\u0000\u0007"
     0x3143 [0x23] WAIT_FOR_DIALOG_INTERACTION
     0x3144 [0x03] Work_Zone[1] = 1073741824*
     0x3149 [0x01] GOTO 0x314C
     0x314C [0x1A] CALL_SUBROUTINE(address=0x3314)
     0x314F [0x1A] CALL_SUBROUTINE(address=0x2F37)
     0x3152 [0x21] END_EVENT
     0x3153 [0x00] END_REQSTACK()
     0x3154 [0x1A] CALL_SUBROUTINE(address=0x333A)
     0x3157 [0x1A] CALL_SUBROUTINE(address=0x3304)
     0x315A [0x1D] PRINT_EVENT_MESSAGE(message_id=134*)
    → "It's hard to believe Orcs have their hands on such dangerous equipment. More patrols will have to be sent out to prevent any new developments in their evil plans.\u007F1\u0000\u0007"
     0x315D [0x23] WAIT_FOR_DIALOG_INTERACTION
     0x315E [0x03] Work_Zone[2] = 284*
     0x3163 [0x1D] PRINT_EVENT_MESSAGE(message_id=135*)
    → "And this \u0001\u00053\u0002\u0000\u0000\u0000... We will have to analyze it and begin reproduction for our forces. We cannot let Orcs get the Treasure of the Dragon King before San d'Oria does.\u007F1\u0000\u0007"
     0x3166 [0x23] WAIT_FOR_DIALOG_INTERACTION
     0x3167 [0x1D] PRINT_EVENT_MESSAGE(message_id=136*)
    → "Well, congratulations on the completion of your mission. Hmmm? Do I know of an adventurer named Eideialc? Never heard of him.\u007F1\u0000\u0007"
     0x316A [0x23] WAIT_FOR_DIALOG_INTERACTION
     0x316B [0x1D] PRINT_EVENT_MESSAGE(message_id=137*)
    → "But you need not worry about some petty traveler. You are in a different league. You are now rank 8!\u007F1\u0000\u0007"
     0x316E [0x23] WAIT_FOR_DIALOG_INTERACTION
     0x316F [0x1A] CALL_SUBROUTINE(address=0x3314)
     0x3172 [0x7D] LOAD_START_SCHEDULER_PLAYER: Load scheduler with animation_id 32817
     0x3175 [0x45] LOAD_SCHEDULED_TASK: Load scheduler "qstc" with entities [LocalPlayer, LocalPlayer], work=[201*, 0*]
     0x3186 [0x1C] WAIT(200* ticks)
     0x3189 [0x1A] CALL_SUBROUTINE(address=0x2F37)
     0x318C [0x21] END_EVENT
     0x318D [0x00] END_REQSTACK()
     0x318E [0x1A] CALL_SUBROUTINE(address=0x3304)
     0x3191 [0x1D] PRINT_EVENT_MESSAGE(message_id=138*)
    → "Princess Claidie's coming-of-age ceremony is drawing near. This ceremony is an important facet of d'Oraguille tradition.\u007F1\u0000\u0007"
     0x3194 [0x23] WAIT_FOR_DIALOG_INTERACTION
     0x3195 [0x1D] PRINT_EVENT_MESSAGE(message_id=139*)
    → "Monarlais Halver has put out a call to high-ranking adventurers for their assistance in Chateau d'Oraguille.\u007F1\u0000\u0007"
     0x3198 [0x23] WAIT_FOR_DIALOG_INTERACTION
     0x3199 [0x1A] CALL_SUBROUTINE(address=0x3314)
     0x319C [0x24] CREATE_DIALOG(message_id=4*, default_option=0*, option_flags=0*)
    → "Accept this mission?\u0007\u000BYes.\u0007No.\u007F1\u0000\u0007"
     0x31A3 [0x25] WAIT_DIALOG_SELECT()
     0x31A4 [0x02] IF !(Work_Zone[0] == 0*) GOTO 0x31BB
     0x31AC [0x1A] CALL_SUBROUTINE(address=0x3304)
     0x31AF [0x1D] PRINT_EVENT_MESSAGE(message_id=140*)
    → "Ah, the young princess has finally become a lady... Oh, I'm sorry. You can get the details of your next mission from Sir Halver.\u007F1\u0000\u0007"
     0x31B2 [0x23] WAIT_FOR_DIALOG_INTERACTION
     0x31B3 [0x03] Work_Zone[1] = 20*
     0x31B8 [0x01] GOTO 0x31D2
     0x31BB [0x02] IF !(Work_Zone[0] == 1*) GOTO 0x31D2
     0x31C3 [0x1A] CALL_SUBROUTINE(address=0x3304)
     0x31C6 [0x1D] PRINT_EVENT_MESSAGE(message_id=141*)
    → "What? You do not wish to repay the kindness the princess has shown to you in the past months? As you wish...but if you change your mind, you know where to find me.\u007F1\u0000\u0007"
     0x31C9 [0x23] WAIT_FOR_DIALOG_INTERACTION
     0x31CA [0x03] Work_Zone[1] = 1073741824*
     0x31CF [0x01] GOTO 0x31D2
     0x31D2 [0x1A] CALL_SUBROUTINE(address=0x3314)
     0x31D5 [0x1A] CALL_SUBROUTINE(address=0x2F37)
     0x31D8 [0x21] END_EVENT
     0x31D9 [0x00] END_REQSTACK()
     0x31ED [0x1A] CALL_SUBROUTINE(address=0x3304)
     0x31F0 [0x1D] PRINT_EVENT_MESSAGE(message_id=144*)
    → "The king has requested your audience. He has selected you from the mountain of adventurers in San d'Oria. You should feel honored!\u007F1\u0000\u0007"
     0x31F3 [0x23] WAIT_FOR_DIALOG_INTERACTION
     0x31F4 [0x1A] CALL_SUBROUTINE(address=0x3314)
     0x31F7 [0x24] CREATE_DIALOG(message_id=4*, default_option=0*, option_flags=0*)
    → "Accept this mission?\u0007\u000BYes.\u0007No.\u007F1\u0000\u0007"
     0x31FE [0x25] WAIT_DIALOG_SELECT()
     0x31FF [0x02] IF !(Work_Zone[0] == 0*) GOTO 0x3216
     0x3207 [0x1A] CALL_SUBROUTINE(address=0x3304)
     0x320A [0x1D] PRINT_EVENT_MESSAGE(message_id=145*)
    → "You have matured from a fledgling adventurer into a great asset to our kingdom. Do not let us down.\u007F1\u0000\u0007"
     0x320D [0x23] WAIT_FOR_DIALOG_INTERACTION
     0x320E [0x03] Work_Zone[1] = 21*
     0x3213 [0x01] GOTO 0x322D
     0x3216 [0x02] IF !(Work_Zone[0] == 1*) GOTO 0x322D
     0x321E [0x1A] CALL_SUBROUTINE(address=0x3304)
     0x3221 [0x1D] PRINT_EVENT_MESSAGE(message_id=146*)
    → "There is no need for modesty at a time like this. The fate of San d'Oria is at stake!\u007F1\u0000\u0007"
     0x3224 [0x23] WAIT_FOR_DIALOG_INTERACTION
     0x3225 [0x03] Work_Zone[1] = 1073741824*
     0x322A [0x01] GOTO 0x322D
     0x322D [0x1A] CALL_SUBROUTINE(address=0x3314)
     0x3230 [0x1A] CALL_SUBROUTINE(address=0x2F37)
     0x3233 [0x21] END_EVENT
     0x3234 [0x00] END_REQSTACK()
     0x3235 [0x1A] CALL_SUBROUTINE(address=0x3304)
     0x3238 [0x1D] PRINT_EVENT_MESSAGE(message_id=147*)
    → "The authorities are saying that a dark cloud of despair is looming over the Kingdom. They are asking for the assistance of only the best adventurers.\u007F1\u0000\u0007"
     0x323B [0x23] WAIT_FOR_DIALOG_INTERACTION
     0x323C [0x1A] CALL_SUBROUTINE(address=0x3314)
     0x323F [0x24] CREATE_DIALOG(message_id=4*, default_option=0*, option_flags=0*)
    → "Accept this mission?\u0007\u000BYes.\u0007No.\u007F1\u0000\u0007"
     0x3246 [0x25] WAIT_DIALOG_SELECT()
     0x3247 [0x02] IF !(Work_Zone[0] == 0*) GOTO 0x325E
     0x324F [0x1A] CALL_SUBROUTINE(address=0x3304)
     0x3252 [0x1D] PRINT_EVENT_MESSAGE(message_id=149*)
    → "Then proceed to the Audience Chamber in the Chateau d'Oraguille.\u0007Word has it that His Highness is not feeling that well. He may not be present for your briefing.\u007F1\u0000\u0007"
     0x3255 [0x23] WAIT_FOR_DIALOG_INTERACTION
     0x3256 [0x03] Work_Zone[1] = 22*
     0x325B [0x01] GOTO 0x3275
     0x325E [0x02] IF !(Work_Zone[0] == 1*) GOTO 0x3275
     0x3266 [0x1A] CALL_SUBROUTINE(address=0x3304)
     0x3269 [0x1D] PRINT_EVENT_MESSAGE(message_id=150*)
    → "\u007F\u0005[Sir/Lady] \u0008! The Kingdom is counting on you. Who else, I ask you, is worthy for this task?\u007F1\u0000\u0007"
     0x326C [0x23] WAIT_FOR_DIALOG_INTERACTION
     0x326D [0x03] Work_Zone[1] = 1073741824*
     0x3272 [0x01] GOTO 0x3275
     0x3275 [0x1A] CALL_SUBROUTINE(address=0x3314)
     0x3278 [0x1A] CALL_SUBROUTINE(address=0x2F37)
     0x327B [0x21] END_EVENT
     0x327C [0x00] END_REQSTACK()
     0x327D [0x1A] CALL_SUBROUTINE(address=0x3304)
     0x3280 [0x1D] PRINT_EVENT_MESSAGE(message_id=151*)
    → "Ah, a time of great change is upon us. In a matter of days, the Rites of Succession will be held at the cathedral in Northern San d'Oria. It is then that the new heir to the throne will be decided.\u007F1\u0000\u0007"
     0x3283 [0x23] WAIT_FOR_DIALOG_INTERACTION
     0x3284 [0x1D] PRINT_EVENT_MESSAGE(message_id=152*)
    → "Due to the unpredictable circumstances that took place at the princess's coming-of-age ceremony, this time, only authorized personnel will be allowed near the proceedings. However, the royal family has requested your services as a guard.\u007F1\u0000\u0007"
     0x3287 [0x23] WAIT_FOR_DIALOG_INTERACTION
     0x3288 [0x1D] PRINT_EVENT_MESSAGE(message_id=153*)
    → "Even we Royal Knights have not been granted permission to attend... You must be held in high regard by His Highness. I envy you, \u007F\u0005[Sir/Ma'am].\u007F1\u0000\u0007"
     0x328B [0x23] WAIT_FOR_DIALOG_INTERACTION
     0x328C [0x1D] PRINT_EVENT_MESSAGE(message_id=154*)
    → "When you have finished your preparations, proceed directly to the cathedral to report.\u007F1\u0000\u0007"
     0x328F [0x23] WAIT_FOR_DIALOG_INTERACTION
     0x3290 [0x1A] CALL_SUBROUTINE(address=0x3314)
     0x3293 [0x24] CREATE_DIALOG(message_id=4*, default_option=0*, option_flags=0*)
    → "Accept this mission?\u0007\u000BYes.\u0007No.\u007F1\u0000\u0007"
     0x329A [0x25] WAIT_DIALOG_SELECT()
     0x329B [0x02] IF !(Work_Zone[0] == 0*) GOTO 0x32E5
     0x32A3 [0x1A] CALL_SUBROUTINE(address=0x3304)
     0x32A6 [0x1D] PRINT_EVENT_MESSAGE(message_id=155*)
    → "Off the record, which of the two princes do you think should be the next heir to the throne?\u007F1\u0000\u0007"
     0x32A9 [0x23] WAIT_FOR_DIALOG_INTERACTION
     0x32AA [0x1A] CALL_SUBROUTINE(address=0x3314)
     0x32AD [0x24] CREATE_DIALOG(message_id=156*, default_option=0*, option_flags=0*)
    → "It is a difficult decision, but...\u0007\u000BTrion is better suited.\u0007Pieuje is better suited.\u007F1\u0000\u0007"
     0x32B4 [0x25] WAIT_DIALOG_SELECT()
     0x32B5 [0x1A] CALL_SUBROUTINE(address=0x331A)
     0x32B8 [0x02] IF !(Work_Zone[0] == 0*) GOTO 0x32C7
     0x32C0 [0x1D] PRINT_EVENT_MESSAGE(message_id=157*)
    → "Hm...\u0007Being the oldest, he is the true heir, and many people believe he is the most suited to rule the Kingdom. However, Prince Pieuje's prudent ways may be what this country is lacking.\u007F1\u0000\u0007"
     0x32C3 [0x23] WAIT_FOR_DIALOG_INTERACTION
     0x32C4 [0x01] GOTO 0x32D6
     0x32C7 [0x02] IF !(Work_Zone[0] == 1*) GOTO 0x32D6
     0x32CF [0x1D] PRINT_EVENT_MESSAGE(message_id=158*)
    → "Many think as you do, \u007F\u0005[Sir/Lady] \u0008. However, what this country may need is someone who will not back down in the face of a threat--someone who will stand up for the pride of the Kingdom.\u007F1\u0000\u0007"
     0x32D2 [0x23] WAIT_FOR_DIALOG_INTERACTION
     0x32D3 [0x01] GOTO 0x32D6
     0x32D6 [0x1A] CALL_SUBROUTINE(address=0x332A)
     0x32D9 [0x1D] PRINT_EVENT_MESSAGE(message_id=159*)
    → "But our opinion is of no matter. Lightbringer will decide who is the most suited to stand over our fine nation. And do not speak a word of today's exchange, for the monarlais will have our heads if he finds out.\u007F1\u0000\u0007"
     0x32DC [0x23] WAIT_FOR_DIALOG_INTERACTION
     0x32DD [0x03] Work_Zone[1] = 23*
     0x32E2 [0x01] GOTO 0x32FC
     0x32E5 [0x02] IF !(Work_Zone[0] == 1*) GOTO 0x32FC
     0x32ED [0x1A] CALL_SUBROUTINE(address=0x3304)
     0x32F0 [0x1D] PRINT_EVENT_MESSAGE(message_id=160*)
    → "I realize that you must have many preparations before taking on such an important mission. Take your time and return here when you are ready.\u007F1\u0000\u0007"
     0x32F3 [0x23] WAIT_FOR_DIALOG_INTERACTION
     0x32F4 [0x03] Work_Zone[1] = 1073741824*
     0x32F9 [0x01] GOTO 0x32FC
     0x32FC [0x1A] CALL_SUBROUTINE(address=0x3314)
     0x32FF [0x1A] CALL_SUBROUTINE(address=0x2F37)
     0x3302 [0x21] END_EVENT
     0x3303 [0x00] END_REQSTACK()
# Dead code (unreachable instructions):
     0x331A [0x66] LOAD_EXT_SCHEDULER_MAIN: Load scheduler "thk1" with entities [EventEntity, EventEntity], work=30*
     0x3329 [0x1B] RETURN
     0x332A [0x66] LOAD_EXT_SCHEDULER_MAIN: Load scheduler "thk2" with entities [EventEntity, EventEntity], work=30*
     0x3339 [0x1B] RETURN
     0x333A [0x42] SET_CLI_EVENT_CANCEL_DATA()
     0x333B [0x46] CAMERA_CONTROL: Disable user control
     0x333D [0x45] LOAD_SCHEDULED_TASK: Load scheduler "fdo1" with entities [EventEntity, EventEntity], work=[200*, 0*]
     0x334E [0x1C] WAIT(60* ticks)
     0x3351 [0x38] SET_CLIENT_EVENT_MODE(mode=3*)
     0x3354 [0x29] REQ_SET_WAIT(priority=0x64, entity_id=LocalPlayer, tag_num=0x25)
     0x335B [0x79] EventEntity looks at LocalPlayer (Basic look)
     0x3365 [0x45] LOAD_SCHEDULED_TASK: Load scheduler "s023" with entities [LocalPlayer, LocalPlayer], work=[131*, 0*]
     0x3376 [0x45] LOAD_SCHEDULED_TASK: Load scheduler "fdi1" with entities [EventEntity, EventEntity], work=[200*, 0*]
     0x3387 [0x1B] RETURN
```