# Event 52

## Metadata

| Field           | Value    |
|-----------------|----------|
| Event Index     | 83/91    |
| Offset          | 0x2EF5   |
| Data Size       | 36 bytes |
| Calculated Size | 36 bytes |
| Instructions    | 10       |

```
      00 01 02 03 04 05 06 07  08 09 0A 0B 0C 0D 0E 0F
      -- -- -- -- -- -- -- --  -- -- -- -- -- -- -- --
2EF0:                1E F0 FF  FF 7F 6F 70 66 00 80 F8       .....opf...
2F00: FF FF 7F F8 FF FF 7F 74  6C 6B 30 1D A9 80 23 5E  .......tlk0...#^
2F10: 69 64 6C 30 1C 00 80 21  00                       idl0...!.       
```

## Opcodes

```
  0: 0x2EF5 [0x1E] EventEntity looks at LocalPlayer and starts talking
  1: 0x2EFA [0x6F] WAIT_FRAME_DELAY: Yield until WaitTime reaches zero
  2: 0x2EFB [0x70] WAIT_ENTITY_RENDER_FLAG: Wait while EventEntity->Render.Flags3 bit 2 is set (cancel turn if not)
  3: 0x2EFC [0x66] LOAD_EXT_SCHEDULER_MAIN(work_offset=30*, entity1=EventEntity, entity2=EventEntity, action="tlk0")
  4: 0x2F0B [0x1D] PRINT_EVENT_MESSAGE(message_id=108*)
    → "Ah, if it isn't \u0008!\u0007You had best hurry off to Chateau d'Oraguille. It seems as if something terrible is in the works there.\u007F1\u0000\u0007"
  5: 0x2F0E [0x23] WAIT_FOR_DIALOG_INTERACTION
  6: 0x2F0F [0x5E] EventEntity goes idle (kills current action) (animation: "idl0")
  7: 0x2F14 [0x1C] WAIT(30* ticks)
  8: 0x2F17 [0x21] END_EVENT
  9: 0x2F18 [0x00] END_REQSTACK()
```
