# Event 682

## Metadata

| Field           | Value    |
|-----------------|----------|
| Event Index     | 15/15    |
| Offset          | 0x0123   |
| Data Size       | 33 bytes |
| Calculated Size | 33 bytes |
| Instructions    | 12       |

```
      00 01 02 03 04 05 06 07  08 09 0A 0B 0C 0D 0E 0F
      -- -- -- -- -- -- -- --  -- -- -- -- -- -- -- --
0120:          1E F0 FF FF 7F  6F 70 29 08 55 E0 0E 01     .....op).U...
0130: 01 1D 0B 80 23 1D 0C 80  23 29 08 55 E0 0E 01 07  ....#...#).U....
0140: 20 00 21 00                                        .!.            
```

## Opcodes

```
  0: 0x0123 [0x1E] EventEntity looks at LocalPlayer and starts talking
  1: 0x0128 [0x6F] WAIT_FRAME_DELAY: Yield until WaitTime reaches zero
  2: 0x0129 [0x70] WAIT_ENTITY_RENDER_FLAG: Wait while EventEntity->Render.Flags3 bit 2 is set (cancel turn if not)
  3: 0x012A [0x29] REQ_SET_WAIT(priority=0x08, entity_id=Chyuk-Kochak (ID: 17752149/0x010EE055), tag_num=0x01)
  4: 0x0131 [0x1D] PRINT_EVENT_MESSAGE(message_id=9139*)
    → "The Cat Burglar must have caught wind of us... Nanaa Mihgo didn't want us to expose her hideaway, so she stole the story before it could go into circulation.\u007F1\u0000\u0007"
  5: 0x0134 [0x23] WAIT_FOR_DIALOG_INTERACTION
  6: 0x0135 [0x1D] PRINT_EVENT_MESSAGE(message_id=9140*)
    → "But you did real well to get the magic doll back off of her! It's practically impossible to retrieve anything stolen by the Cat Burglar!\u007F1\u0000\u0007"
  7: 0x0138 [0x23] WAIT_FOR_DIALOG_INTERACTION
  8: 0x0139 [0x29] REQ_SET_WAIT(priority=0x08, entity_id=Chyuk-Kochak (ID: 17752149/0x010EE055), tag_num=0x07)
  9: 0x0140 [0x20] SET_CLI_EVENT_UC_FLAG: Unlock player control
 10: 0x0142 [0x21] END_EVENT
 11: 0x0143 [0x00] END_REQSTACK()
```
