# Event 733

## Metadata

| Field           | Value    |
|-----------------|----------|
| Event Index     | 5/5      |
| Offset          | 0x003B   |
| Data Size       | 52 bytes |
| Calculated Size | 52 bytes |
| Instructions    | 12       |

```
      00 01 02 03 04 05 06 07  08 09 0A 0B 0C 0D 0E 0F
      -- -- -- -- -- -- -- --  -- -- -- -- -- -- -- --
0030:                                   42 48 04 80 1E             BH...
0040: F0 FF FF 7F 1C 01 80 5B  00 80 F8 FF FF 7F F8 FF  .......[........
0050: FF 7F 74 6C 6B 30 1D 05  80 23 1D 06 80 23 5B 00  ..tlk0...#...#[.
0060: 80 F8 FF FF 7F F8 FF FF  7F 74 6C 6B 31 21 00     .........tlk1!. 
```

## Opcodes

```
  0: 0x003B [0x42] SET_CLI_EVENT_CANCEL_DATA()
  1: 0x003C [0x48] [System] [10415*]:
    → "\u001F\u000F\u0008's badge flashes brightly.\u007F1\u0000\u0007"
  2: 0x003F [0x1E] EventEntity looks at LocalPlayer and starts talking
  3: 0x0044 [0x1C] WAIT(30* ticks)
  4: 0x0047 [0x5B] LOAD_EXT_SCHEDULER: Load scheduler "tlk0" with entities [EventEntity, EventEntity], work=358*
  5: 0x0056 [0x1D] PRINT_EVENT_MESSAGE(message_id=10422*)
    → "That badge!\u0007It makes my hot Mithran blood boil! It looks like things are going to get interrresting soon!\u007F1\u0000\u0007"
  6: 0x0059 [0x23] WAIT_FOR_DIALOG_INTERACTION
  7: 0x005A [0x1D] PRINT_EVENT_MESSAGE(message_id=10423*)
    → "Arrrgh, if only I were an adventurer! I would take off to the Near East as soon as I could!\u007F1\u0000\u0007"
  8: 0x005D [0x23] WAIT_FOR_DIALOG_INTERACTION
  9: 0x005E [0x5B] LOAD_EXT_SCHEDULER: Load scheduler "tlk1" with entities [EventEntity, EventEntity], work=358*
 10: 0x006D [0x21] END_EVENT
 11: 0x006E [0x00] END_REQSTACK()
```
