# Event 65535

## Metadata

| Field           | Value    |
|-----------------|----------|
| Event Index     | 17/17    |
| Offset          | 0x0133   |
| Data Size       | 50 bytes |
| Calculated Size | 50 bytes |
| Instructions    | 11       |

```
      00 01 02 03 04 05 06 07  08 09 0A 0B 0C 0D 0E 0F
      -- -- -- -- -- -- -- --  -- -- -- -- -- -- -- --
0130:          06 03 00 03 00  00 0A 80 03 01 00 0B 80     .............
0140: 02 03 00 14 80 03 64 01  08 00 00 1C 80 08 01 00  ......d.........
0150: 1C 80 57 03 00 37 00 00  01 00 0C 80 1D 80 1C 01  ..W..7..........
0160: 80 01 40 01 00                                    ..@..           
```

## Opcodes

```
  0: 0x0133 [0x06] ExtData[1]->WorkLocal[3] = 0
  1: 0x0136 [0x03] ExtData[1]->WorkLocal[0] = 265402*
  2: 0x013B [0x03] ExtData[1]->WorkLocal[1] = 4294872101*
  3: 0x0140 [0x02] IF !(ExtData[1]->WorkLocal[3] >= 1000*) GOTO 0x0164
  4: 0x0148 [0x08] ExtData[1]->WorkLocal[0] -= 40*
  5: 0x014D [0x08] ExtData[1]->WorkLocal[1] -= 40*
  6: 0x0152 [0x57] CREATE_FRAME_DELAY(delay=ExtData[1]->WorkLocal[3])
  7: 0x0155 [0x37] UPDATE_EVENT_POSITION_AND_DIR: x=ExtData[1]->WorkLocal[0], z=ExtData[1]->WorkLocal[1], y=115.839*, direction=31.6°*
  8: 0x015E [0x1C] WAIT(1* ticks)
  9: 0x0161 [0x01] GOTO 0x0140

SUBROUTINE_0164:
 10: 0x0164 [0x00] END_REQSTACK()
```
