# Event 65535

## Metadata

| Field           | Value    |
|-----------------|----------|
| Event Index     | 15/17    |
| Offset          | 0x00B1   |
| Data Size       | 70 bytes |
| Calculated Size | 70 bytes |
| Instructions    | 13       |

```
      00 01 02 03 04 05 06 07  08 09 0A 0B 0C 0D 0E 0F
      -- -- -- -- -- -- -- --  -- -- -- -- -- -- -- --
00B0:    5B 18 80 24 53 05 01  24 53 05 01 6B 61 69 30   [..$S..$S..kai0
00C0: 06 03 00 03 00 00 03 80  03 01 00 04 80 03 02 00  ................
00D0: 19 80 02 03 00 14 80 03  F6 00 07 00 00 15 80 07  ................
00E0: 01 00 15 80 57 03 00 37  00 00 01 00 05 80 17 80  ....W..7........
00F0: 1C 01 80 01 D2 00 00                              .......         
```

## Opcodes

```
  0: 0x00B1 [0x5B] LOAD_EXT_SCHEDULER: Load scheduler "kai0" with entities [Cait Sith Coig (ID: 17126180/0x01055324), Cait Sith Coig (ID: 17126180/0x01055324)], work=1413*
  1: 0x00C0 [0x06] ExtData[1]->WorkLocal[3] = 0
  2: 0x00C3 [0x03] ExtData[1]->WorkLocal[0] = 261839*
  3: 0x00C8 [0x03] ExtData[1]->WorkLocal[1] = 4294862666*
  4: 0x00CD [0x03] ExtData[1]->WorkLocal[2] = 116871*
  5: 0x00D2 [0x02] IF !(ExtData[1]->WorkLocal[3] >= 1000*) GOTO 0x00F6
  6: 0x00DA [0x07] ExtData[1]->WorkLocal[0] += 30*
  7: 0x00DF [0x07] ExtData[1]->WorkLocal[1] += 30*
  8: 0x00E4 [0x57] CREATE_FRAME_DELAY(delay=ExtData[1]->WorkLocal[3])
  9: 0x00E7 [0x37] UPDATE_EVENT_POSITION_AND_DIR: x=ExtData[1]->WorkLocal[0], z=ExtData[1]->WorkLocal[1], y=116.838*, direction=225.0°*
 10: 0x00F0 [0x1C] WAIT(1* ticks)
 11: 0x00F3 [0x01] GOTO 0x00D2
 12: 0x00F6 [0x00] END_REQSTACK()
```
