# Event 65535

## Metadata

| Field           | Value    |
|-----------------|----------|
| Event Index     | 4/4      |
| Offset          | 0x003E   |
| Data Size       | 61 bytes |
| Calculated Size | 61 bytes |
| Instructions    | 10       |

```
      00 01 02 03 04 05 06 07  08 09 0A 0B 0C 0D 0E 0F
      -- -- -- -- -- -- -- --  -- -- -- -- -- -- -- --
0030:                                            1C 05                ..
0040: 80 5B 00 80 F8 FF FF 7F  F8 FF FF 7F 73 61 6B 30  .[..........sak0
0050: 03 00 00 02 80 02 00 00  01 80 01 6B 00 07 00 00  ...........k....
0060: 03 80 39 00 00 1C 04 80  01 55 00 5B 00 80 F8 FF  ..9......U.[....
0070: FF 7F F8 FF FF 7F 73 61  6B 6B 00                 ......sakk.     
```

## Opcodes

```
  0: 0x003E [0x1C] WAIT(120* ticks)
  1: 0x0041 [0x5B] LOAD_EXT_SCHEDULER(work_offset=1413*, entity1=EventEntity, entity2=EventEntity, action="sak0")
  2: 0x0050 [0x03] ExtData[1]->WorkLocal[0] = 1777*
  3: 0x0055 [0x02] IF !(ExtData[1]->WorkLocal[0] == 2993*) GOTO 0x006B
  4: 0x005D [0x07] ExtData[1]->WorkLocal[0] += 32*
  5: 0x0062 [0x39] SET_ENTITY_DIRECTION(direction=0.0°)
  6: 0x0065 [0x1C] WAIT(1* ticks)
  7: 0x0068 [0x01] GOTO 0x0055

SUBROUTINE_006B:
  8: 0x006B [0x5B] LOAD_EXT_SCHEDULER(work_offset=1413*, entity1=EventEntity, entity2=EventEntity, action="sakk")
  9: 0x007A [0x00] END_REQSTACK()
```
