# Event 65535

## Metadata

| Field           | Value    |
|-----------------|----------|
| Event Index     | 3/4      |
| Offset          | 0x0004   |
| Data Size       | 58 bytes |
| Calculated Size | 58 bytes |
| Instructions    | 9        |

```
      00 01 02 03 04 05 06 07  08 09 0A 0B 0C 0D 0E 0F
      -- -- -- -- -- -- -- --  -- -- -- -- -- -- -- --
0000:             5B 00 80 F8  FF FF 7F F8 FF FF 7F 73      [..........s
0010: 61 6B 30 03 00 00 01 80  02 00 00 02 80 01 2E 00  ak0.............
0020: 08 00 00 03 80 39 00 00  1C 04 80 01 18 00 5B 00  .....9........[.
0030: 80 F8 FF FF 7F F8 FF FF  7F 73 61 6B 6B 00        .........sakk.  
```

## Opcodes

```
  0: 0x0004 [0x5B] LOAD_EXT_SCHEDULER: Load scheduler "sak0" with entities [EventEntity, EventEntity], work=1413*
  1: 0x0013 [0x03] ExtData[1]->WorkLocal[0] = 2993*
  2: 0x0018 [0x02] IF !(ExtData[1]->WorkLocal[0] == 1777*) GOTO 0x002E
  3: 0x0020 [0x08] ExtData[1]->WorkLocal[0] -= 32*
  4: 0x0025 [0x39] SET_ENTITY_DIRECTION(direction=0.0°)
  5: 0x0028 [0x1C] WAIT(1* ticks)
  6: 0x002B [0x01] GOTO 0x0018
  7: 0x002E [0x5B] LOAD_EXT_SCHEDULER: Load scheduler "sakk" with entities [EventEntity, EventEntity], work=1413*
  8: 0x003D [0x00] END_REQSTACK()
```
