# Event 65535

## Metadata

| Field           | Value    |
|-----------------|----------|
| Event Index     | 5/7      |
| Offset          | 0x01AB   |
| Data Size       | 30 bytes |
| Calculated Size | 30 bytes |
| Instructions    | 9        |

```
      00 01 02 03 04 05 06 07  08 09 0A 0B 0C 0D 0E 0F
      -- -- -- -- -- -- -- --  -- -- -- -- -- -- -- --
01A0:                                   61 00 32 0D 80             a.2..
01B0: 1F 00 0E 80 0F 80 10 80  1F 01 6F 4B F8 FF FF 7F  ..........oK....
01C0: 11 80 6F 76 F8 FF FF 7F  00                       ..ov.....       
```

## Opcodes

```
  0: 0x01AB [0x61] EventEntity->Render.Flags2 &= ~0x00000001
  1: 0x01AD [0x32] ExtData[1]->MainSpeed = 37* * 0.1
  2: 0x01B0 [0x1F] MOVE_ENTITY: EventEntity moves to X=474.229*, Z=0.208*, Y=-40.199*
  3: 0x01B8 [0x1F] MOVE_ENTITY: Update entity position (mode=1)
  4: 0x01BA [0x6F] WAIT_FRAME_DELAY: Yield until WaitTime reaches zero
  5: 0x01BB [0x4B] UPDATE_ENTITY_YAW(entity=EventEntity, yaw=10.87°*)
  6: 0x01C2 [0x6F] WAIT_FRAME_DELAY: Yield until WaitTime reaches zero
  7: 0x01C3 [0x76] CHECK_ENTITY_RENDER_FLAGS: Wait until EventEntity Render.Flags0 and Render.Flags3 conditions are met
  8: 0x01C8 [0x00] END_REQSTACK()
```
