# Event 28

## Metadata

| Field           | Value    |
|-----------------|----------|
| Event Index     | 21/30    |
| Offset          | 0x1062   |
| Data Size       | 63 bytes |
| Calculated Size | 63 bytes |
| Instructions    | 17       |

```
      00 01 02 03 04 05 06 07  08 09 0A 0B 0C 0D 0E 0F
      -- -- -- -- -- -- -- --  -- -- -- -- -- -- -- --
1060:       20 01 42 03 02 10  97 80 03 03 10 98 80 24     .B..........$
1070: 99 80 02 80 11 80 25 02  00 10 11 80 00 87 10 03  ......%.........
1080: 01 10 64 80 01 9C 10 02  00 10 01 80 00 97 10 03  ..d.............
1090: 01 10 13 80 01 9C 10 03  01 10 11 80 2E 20 00 21  ............. .!
10A0: 00                                                .               
```

## Opcodes

```
  0: 0x1062 [0x20] SET_CLI_EVENT_UC_FLAG: Lock player control
  1: 0x1064 [0x42] SET_CLI_EVENT_CANCEL_DATA()
  2: 0x1065 [0x03] Work_Zone[2] = 1091*
  3: 0x106A [0x03] Work_Zone[3] = 1108*
  4: 0x106F [0x24] CREATE_DIALOG(message_id=7510*, default_option=2*, option_flags=0*)
    → "Which item will you obtain?\u0007\u000B\u007F\u0000\u0001\u0001\u00056\u0002\u0000\u0000\u0000.\u0007\u007F\u0000\u0001\u0001\u00056\u0002\u0001\u0000\u0000.\u007F1\u0000\u0007"
  5: 0x1076 [0x25] WAIT_DIALOG_SELECT()
  6: 0x1077 [0x02] IF !(Work_Zone[0] == 0*) GOTO 0x1087
  7: 0x107F [0x03] Work_Zone[1] = 100*
  8: 0x1084 [0x01] GOTO 0x109C
  9: 0x1087 [0x02] IF !(Work_Zone[0] == 1*) GOTO 0x1097
 10: 0x108F [0x03] Work_Zone[1] = 200*
 11: 0x1094 [0x01] GOTO 0x109C
 12: 0x1097 [0x03] Work_Zone[1] = 0*
 13: 0x109C [0x2E] SET_CLI_EVENT_CANCEL_FLAGS()
 14: 0x109D [0x20] SET_CLI_EVENT_UC_FLAG: Unlock player control
 15: 0x109F [0x21] END_EVENT
 16: 0x10A0 [0x00] END_REQSTACK()
```
