# Event 65535

## Metadata

| Field           | Value    |
|-----------------|----------|
| Event Index     | 34/34    |
| Offset          | 0x0358   |
| Data Size       | 55 bytes |
| Calculated Size | 55 bytes |
| Instructions    | 13       |

```
      00 01 02 03 04 05 06 07  08 09 0A 0B 0C 0D 0E 0F
      -- -- -- -- -- -- -- --  -- -- -- -- -- -- -- --
0350:                          27 05 31 21 03 01 3D 32          '.1!..=2
0360: 04 80 1F 00 4B 80 4C 80  0D 80 1F 01 32 3A 80 1F  ....K.L.....2:..
0370: 00 4D 80 4E 80 0D 80 1F  01 1C 4F 80 32 04 80 1F  .M.N......O.2...
0380: 00 43 80 44 80 0D 80 1F  01 1E 54 20 03 01 00     .C.D......T ... 
```

## Opcodes

```
  0: 0x0358 [0x27] REQ_SET(priority=0x05, entity_id=Foudeel (ID: 16982321/0x01032131), tag_num=0x3D)
  1: 0x035F [0x32] ExtData[1]->MainSpeed = 13* * 0.1
  2: 0x0362 [0x1F] MOVE_ENTITY: EventEntity moves to X=79.028*, Z=-137.555*, Y=-6.000*
  3: 0x036A [0x1F] MOVE_ENTITY: Update entity position (mode=1)
  4: 0x036C [0x32] ExtData[1]->MainSpeed = 40* * 0.1
  5: 0x036F [0x1F] MOVE_ENTITY: EventEntity moves to X=80.231*, Z=-134.233*, Y=-6.000*
  6: 0x0377 [0x1F] MOVE_ENTITY: Update entity position (mode=1)
  7: 0x0379 [0x1C] WAIT(5* ticks)
  8: 0x037C [0x32] ExtData[1]->MainSpeed = 13* * 0.1
  9: 0x037F [0x1F] MOVE_ENTITY: EventEntity moves to X=78.677*, Z=-134.011*, Y=-6.000*
 10: 0x0387 [0x1F] MOVE_ENTITY: Update entity position (mode=1)
 11: 0x0389 [0x1E] EventEntity looks at Yafaaf (ID: 16982100/0x01032054) and starts talking
 12: 0x038E [0x00] END_REQSTACK()
```
