# 17441113 - Dazbog

## Common Data

| Field            | Value                       |
|------------------|-----------------------------|
| Zone             | Castle Zvahl Keep (ID: 162) |
| Block Size       | 1360 bytes                  |
| Total Events     | 38                          |
| References Count | 70                          |

## List of Events

| Event ID                   | Entrypoint   |   Size |   Instructions |
|----------------------------|--------------|--------|----------------|
| [65535](#event-65535)      | 0x0000       |      1 |              1 |
| [65535.1](#event-655351)   | 0x0001       |     14 |              2 |
| [65535.2](#event-655352)   | 0x000F       |     14 |              2 |
| [65535.3](#event-655353)   | 0x001D       |     14 |              2 |
| [65535.4](#event-655354)   | 0x002B       |     14 |              2 |
| [65535.5](#event-655355)   | 0x0039       |     42 |              6 |
| [65535.6](#event-655356)   | 0x0063       |     14 |              2 |
| [65535.7](#event-655357)   | 0x0071       |     14 |              2 |
| [65535.8](#event-655358)   | 0x007F       |     14 |              2 |
| [65535.9](#event-655359)   | 0x008D       |     14 |              2 |
| [65535.10](#event-6553510) | 0x009B       |     14 |              2 |
| [65535.11](#event-6553511) | 0x00A9       |     14 |              2 |
| [65535.12](#event-6553512) | 0x00B7       |     14 |              2 |
| [65535.13](#event-6553513) | 0x00C5       |     14 |              2 |
| [65535.14](#event-6553514) | 0x00D3       |     14 |              2 |
| [65535.15](#event-6553515) | 0x00E1       |     14 |              2 |
| [123](#event-123)          | 0x00EF       |      7 |              2 |
| [124](#event-124)          | 0x00F6       |      7 |              2 |
| [65535.16](#event-6553516) | 0x00FD       |     22 |              6 |
| [65535.17](#event-6553517) | 0x0113       |     23 |              7 |
| [65535.18](#event-6553518) | 0x012A       |     25 |              7 |
| [65535.19](#event-6553519) | 0x0143       |     25 |              7 |
| [65535.20](#event-6553520) | 0x015C       |     15 |              5 |
| [65535.21](#event-6553521) | 0x016B       |     14 |              4 |
| [125](#event-125)          | 0x0179       |      7 |              2 |
| [126](#event-126)          | 0x0180       |      7 |              2 |
| [127](#event-127)          | 0x0187       |      7 |              2 |
| [65535.22](#event-6553522) | 0x018E       |     15 |              5 |
| [65535.23](#event-6553523) | 0x019D       |     15 |              5 |
| [65535.24](#event-6553524) | 0x01AC       |     15 |              5 |
| [65535.25](#event-6553525) | 0x01BB       |     15 |              5 |
| [65535.26](#event-6553526) | 0x01CA       |    375 |             66 |
| [65535.27](#event-6553527) | 0x0341       |     22 |              8 |
| [65535.28](#event-6553528) | 0x0357       |     15 |              5 |
| [65535.29](#event-6553529) | 0x0366       |     15 |              5 |
| [65535.30](#event-6553530) | 0x0375       |     15 |              5 |
| [65535.31](#event-6553531) | 0x0384       |      5 |              2 |
| [65535.32](#event-6553532) | 0x0389       |      5 |              2 |

## DAT References (imed_data)

|   Index | Hex Value   |   Dec Value |
|---------|-------------|-------------|
|       0 | 0x000D      |          13 |
|       1 | 0x241C      |        9244 |
|       2 | 0x06F6      |        1782 |
|       3 | 0x0000      |           0 |
|       4 | 0x0320      |         800 |
|       5 | 0x2710      |       10000 |
|       6 | 0x0DAC      |        3500 |
|       7 | 0x000A      |          10 |
|       8 | 0x0028      |          40 |
|       9 | 0x47C7      |       18375 |
|      10 | 0x062B      |        1579 |
|      11 | 0xA081      |       41089 |
|      12 | 0x049A      |        1178 |
|      13 | 0xFFF9DFA4  |  4294565796 |
|      14 | 0x55F0      |       22000 |
|      15 | 0xFFFF57A3  |  4294924195 |
|      16 | 0x001E      |          30 |
|      17 | 0x0190      |         400 |
|      18 | 0xFFF9DCF1  |  4294565105 |
|      19 | 0x5261      |       21089 |
|      20 | 0xFFFF57D1  |  4294924241 |
|      21 | 0xFFFA6A27  |  4294601255 |
|      22 | 0xFFFF72EE  |  4294931182 |
|      23 | 0xFFF78808  |  4294412296 |
|      24 | 0xF03C      |       61500 |
|      25 | 0xFFFEEE90  |  4294897296 |
|      26 | 0x2B90      |       11152 |
|      27 | 0x0FC3      |        4035 |
|      28 | 0xFFFFE47F  |  4294960255 |
|      29 | 0x2D4B      |       11595 |
|      30 | 0x0B7B      |        2939 |
|      31 | 0xFFFFE475  |  4294960245 |
|      32 | 0x16C4      |        5828 |
|      33 | 0x048C      |        1164 |
|      34 | 0xFFFFE453  |  4294960211 |
|      35 | 0x00F0      |         240 |
|      36 | 0x0005      |           5 |
|      37 | 0x0093      |         147 |
|      38 | 0x0001      |           1 |
|      39 | 0x0098      |         152 |
|      40 | 0x0002      |           2 |
|      41 | 0x009D      |         157 |
|      42 | 0x0003      |           3 |
|      43 | 0x00A2      |         162 |
|      44 | 0x0004      |           4 |
|      45 | 0x00A7      |         167 |
|      46 | 0x00AC      |         172 |
|      47 | 0x0014      |          20 |
|      48 | 0x0018      |          24 |
|      49 | 0x0038      |          56 |
|      50 | 0x003A      |          58 |
|      51 | 0x00DD      |         221 |
|      52 | 0x00FE      |         254 |
|      53 | 0x003C      |          60 |
|      54 | 0x0015      |          21 |
|      55 | 0x0027      |          39 |
|      56 | 0x0280      |         640 |
|      57 | 0x38F1      |       14577 |
|      58 | 0x0302      |         770 |
|      59 | 0xFFFFE3E1  |  4294960097 |
|      60 | 0xFFFFA4CF  |  4294943951 |
|      61 | 0x01EE      |         494 |
|      62 | 0x1CA1      |        7329 |
|      63 | 0x02E5      |         741 |
|      64 | 0xFFFFE3D8  |  4294960088 |
|      65 | 0xFFF94630  |  4294526512 |
|      66 | 0xFFFC5A8B  |  4294728331 |
|      67 | 0xFFFD73A9  |  4294800297 |
|      68 | 0x0034      |          52 |
|      69 | 0x0C57      |        3159 |

## Events

### Event 65535

#### Metadata

| Field        | Value   |
|--------------|---------|
| Entrypoint   | 0x0000  |
| Data Size    | 1 bytes |
| Instructions | 1       |

```
      00 01 02 03 04 05 06 07  08 09 0A 0B 0C 0D 0E 0F
      -- -- -- -- -- -- -- --  -- -- -- -- -- -- -- --
0000: 00                                                .               
```

#### Opcodes

```
  0: 0x0000 [0x00] END_REQSTACK()
```

### Event 65535.1

#### Metadata

| Field        | Value    |
|--------------|----------|
| Entrypoint   | 0x0001   |
| Data Size    | 14 bytes |
| Instructions | 2        |

```
      00 01 02 03 04 05 06 07  08 09 0A 0B 0C 0D 0E 0F
      -- -- -- -- -- -- -- --  -- -- -- -- -- -- -- --
0000:    2C F8 FF FF 7F F8 FF  FF 7F 73 70 30 31 00      ,........sp01. 
```

#### Opcodes

```
  0: 0x0001 [0x2C] CREATE_SCHEDULER_TASK: Create scheduler "sp01" with entities [EventEntity, EventEntity]
  1: 0x000E [0x00] END_REQSTACK()
```

### Event 65535.2

#### Metadata

| Field        | Value    |
|--------------|----------|
| Entrypoint   | 0x000F   |
| Data Size    | 14 bytes |
| Instructions | 2        |

```
      00 01 02 03 04 05 06 07  08 09 0A 0B 0C 0D 0E 0F
      -- -- -- -- -- -- -- --  -- -- -- -- -- -- -- --
0000:                                               53                 S
0010: F8 FF FF 7F F8 FF FF 7F  73 70 30 31 00           ........sp01.   
```

#### Opcodes

```
  0: 0x000F [0x53] WAIT_SCHEDULER_TASK: Wait for scheduler "sp01" with entities [EventEntity, EventEntity]
  1: 0x001C [0x00] END_REQSTACK()
```

### Event 65535.3

#### Metadata

| Field        | Value    |
|--------------|----------|
| Entrypoint   | 0x001D   |
| Data Size    | 14 bytes |
| Instructions | 2        |

```
      00 01 02 03 04 05 06 07  08 09 0A 0B 0C 0D 0E 0F
      -- -- -- -- -- -- -- --  -- -- -- -- -- -- -- --
0010:                                         2C F8 FF               ,..
0020: FF 7F F8 FF FF 7F 73 70  31 30 00                 ......sp10.     
```

#### Opcodes

```
  0: 0x001D [0x2C] CREATE_SCHEDULER_TASK: Create scheduler "sp10" with entities [EventEntity, EventEntity]
  1: 0x002A [0x00] END_REQSTACK()
```

### Event 65535.4

#### Metadata

| Field        | Value    |
|--------------|----------|
| Entrypoint   | 0x002B   |
| Data Size    | 14 bytes |
| Instructions | 2        |

```
      00 01 02 03 04 05 06 07  08 09 0A 0B 0C 0D 0E 0F
      -- -- -- -- -- -- -- --  -- -- -- -- -- -- -- --
0020:                                   53 F8 FF FF 7F             S....
0030: F8 FF FF 7F 73 70 31 30  00                       ....sp10.       
```

#### Opcodes

```
  0: 0x002B [0x53] WAIT_SCHEDULER_TASK: Wait for scheduler "sp10" with entities [EventEntity, EventEntity]
  1: 0x0038 [0x00] END_REQSTACK()
```

### Event 65535.5

#### Metadata

| Field        | Value    |
|--------------|----------|
| Entrypoint   | 0x0039   |
| Data Size    | 42 bytes |
| Instructions | 6        |

```
      00 01 02 03 04 05 06 07  08 09 0A 0B 0C 0D 0E 0F
      -- -- -- -- -- -- -- --  -- -- -- -- -- -- -- --
0030:                             2C F8 FF FF 7F F8 FF           ,......
0040: FF 7F 73 70 31 30 53 F8  FF FF 7F F8 FF FF 7F 73  ..sp10S........s
0050: 70 31 30 4A 59 21 0A 01  F0 FF FF 7F 6F 76 59 21  p10JY!......ovY!
0060: 0A 01 00                                          ...             
```

#### Opcodes

```
  0: 0x0039 [0x2C] CREATE_SCHEDULER_TASK: Create scheduler "sp10" with entities [EventEntity, EventEntity]
  1: 0x0046 [0x53] WAIT_SCHEDULER_TASK: Wait for scheduler "sp10" with entities [EventEntity, EventEntity]
  2: 0x0053 [0x4A] Dazbog (ID: 17441113/0x010A2159) looks at LocalPlayer
  3: 0x005C [0x6F] WAIT_FRAME_DELAY: Yield until WaitTime reaches zero
  4: 0x005D [0x76] CHECK_ENTITY_RENDER_FLAGS: Wait until Dazbog (ID: 17441113/0x010A2159) Render.Flags0 and Render.Flags3 conditions are met
  5: 0x0062 [0x00] END_REQSTACK()
```

### Event 65535.6

#### Metadata

| Field        | Value    |
|--------------|----------|
| Entrypoint   | 0x0063   |
| Data Size    | 14 bytes |
| Instructions | 2        |

```
      00 01 02 03 04 05 06 07  08 09 0A 0B 0C 0D 0E 0F
      -- -- -- -- -- -- -- --  -- -- -- -- -- -- -- --
0060:          2C F8 FF FF 7F  F8 FF FF 7F 73 70 32 30     ,........sp20
0070: 00                                                .               
```

#### Opcodes

```
  0: 0x0063 [0x2C] CREATE_SCHEDULER_TASK: Create scheduler "sp20" with entities [EventEntity, EventEntity]
  1: 0x0070 [0x00] END_REQSTACK()
```

### Event 65535.7

#### Metadata

| Field        | Value    |
|--------------|----------|
| Entrypoint   | 0x0071   |
| Data Size    | 14 bytes |
| Instructions | 2        |

```
      00 01 02 03 04 05 06 07  08 09 0A 0B 0C 0D 0E 0F
      -- -- -- -- -- -- -- --  -- -- -- -- -- -- -- --
0070:    53 F8 FF FF 7F F8 FF  FF 7F 73 70 32 30 00      S........sp20. 
```

#### Opcodes

```
  0: 0x0071 [0x53] WAIT_SCHEDULER_TASK: Wait for scheduler "sp20" with entities [EventEntity, EventEntity]
  1: 0x007E [0x00] END_REQSTACK()
```

### Event 65535.8

#### Metadata

| Field        | Value    |
|--------------|----------|
| Entrypoint   | 0x007F   |
| Data Size    | 14 bytes |
| Instructions | 2        |

```
      00 01 02 03 04 05 06 07  08 09 0A 0B 0C 0D 0E 0F
      -- -- -- -- -- -- -- --  -- -- -- -- -- -- -- --
0070:                                               2C                 ,
0080: F8 FF FF 7F F8 FF FF 7F  73 70 33 30 00           ........sp30.   
```

#### Opcodes

```
  0: 0x007F [0x2C] CREATE_SCHEDULER_TASK: Create scheduler "sp30" with entities [EventEntity, EventEntity]
  1: 0x008C [0x00] END_REQSTACK()
```

### Event 65535.9

#### Metadata

| Field        | Value    |
|--------------|----------|
| Entrypoint   | 0x008D   |
| Data Size    | 14 bytes |
| Instructions | 2        |

```
      00 01 02 03 04 05 06 07  08 09 0A 0B 0C 0D 0E 0F
      -- -- -- -- -- -- -- --  -- -- -- -- -- -- -- --
0080:                                         53 F8 FF               S..
0090: FF 7F F8 FF FF 7F 73 70  33 30 00                 ......sp30.     
```

#### Opcodes

```
  0: 0x008D [0x53] WAIT_SCHEDULER_TASK: Wait for scheduler "sp30" with entities [EventEntity, EventEntity]
  1: 0x009A [0x00] END_REQSTACK()
```

### Event 65535.10

#### Metadata

| Field        | Value    |
|--------------|----------|
| Entrypoint   | 0x009B   |
| Data Size    | 14 bytes |
| Instructions | 2        |

```
      00 01 02 03 04 05 06 07  08 09 0A 0B 0C 0D 0E 0F
      -- -- -- -- -- -- -- --  -- -- -- -- -- -- -- --
0090:                                   2C F8 FF FF 7F             ,....
00A0: F8 FF FF 7F 73 70 34 30  00                       ....sp40.       
```

#### Opcodes

```
  0: 0x009B [0x2C] CREATE_SCHEDULER_TASK: Create scheduler "sp40" with entities [EventEntity, EventEntity]
  1: 0x00A8 [0x00] END_REQSTACK()
```

### Event 65535.11

#### Metadata

| Field        | Value    |
|--------------|----------|
| Entrypoint   | 0x00A9   |
| Data Size    | 14 bytes |
| Instructions | 2        |

```
      00 01 02 03 04 05 06 07  08 09 0A 0B 0C 0D 0E 0F
      -- -- -- -- -- -- -- --  -- -- -- -- -- -- -- --
00A0:                             53 F8 FF FF 7F F8 FF           S......
00B0: FF 7F 73 70 34 30 00                              ..sp40.         
```

#### Opcodes

```
  0: 0x00A9 [0x53] WAIT_SCHEDULER_TASK: Wait for scheduler "sp40" with entities [EventEntity, EventEntity]
  1: 0x00B6 [0x00] END_REQSTACK()
```

### Event 65535.12

#### Metadata

| Field        | Value    |
|--------------|----------|
| Entrypoint   | 0x00B7   |
| Data Size    | 14 bytes |
| Instructions | 2        |

```
      00 01 02 03 04 05 06 07  08 09 0A 0B 0C 0D 0E 0F
      -- -- -- -- -- -- -- --  -- -- -- -- -- -- -- --
00B0:                      2C  F8 FF FF 7F F8 FF FF 7F         ,........
00C0: 73 70 35 30 00                                    sp50.           
```

#### Opcodes

```
  0: 0x00B7 [0x2C] CREATE_SCHEDULER_TASK: Create scheduler "sp50" with entities [EventEntity, EventEntity]
  1: 0x00C4 [0x00] END_REQSTACK()
```

### Event 65535.13

#### Metadata

| Field        | Value    |
|--------------|----------|
| Entrypoint   | 0x00C5   |
| Data Size    | 14 bytes |
| Instructions | 2        |

```
      00 01 02 03 04 05 06 07  08 09 0A 0B 0C 0D 0E 0F
      -- -- -- -- -- -- -- --  -- -- -- -- -- -- -- --
00C0:                53 F8 FF  FF 7F F8 FF FF 7F 73 70       S........sp
00D0: 35 30 00                                          50.             
```

#### Opcodes

```
  0: 0x00C5 [0x53] WAIT_SCHEDULER_TASK: Wait for scheduler "sp50" with entities [EventEntity, EventEntity]
  1: 0x00D2 [0x00] END_REQSTACK()
```

### Event 65535.14

#### Metadata

| Field        | Value    |
|--------------|----------|
| Entrypoint   | 0x00D3   |
| Data Size    | 14 bytes |
| Instructions | 2        |

```
      00 01 02 03 04 05 06 07  08 09 0A 0B 0C 0D 0E 0F
      -- -- -- -- -- -- -- --  -- -- -- -- -- -- -- --
00D0:          2C F8 FF FF 7F  F8 FF FF 7F 73 70 36 30     ,........sp60
00E0: 00                                                .               
```

#### Opcodes

```
  0: 0x00D3 [0x2C] CREATE_SCHEDULER_TASK: Create scheduler "sp60" with entities [EventEntity, EventEntity]
  1: 0x00E0 [0x00] END_REQSTACK()
```

### Event 65535.15

#### Metadata

| Field        | Value    |
|--------------|----------|
| Entrypoint   | 0x00E1   |
| Data Size    | 14 bytes |
| Instructions | 2        |

```
      00 01 02 03 04 05 06 07  08 09 0A 0B 0C 0D 0E 0F
      -- -- -- -- -- -- -- --  -- -- -- -- -- -- -- --
00E0:    53 F8 FF FF 7F F8 FF  FF 7F 73 70 36 30 00      S........sp60. 
```

#### Opcodes

```
  0: 0x00E1 [0x53] WAIT_SCHEDULER_TASK: Wait for scheduler "sp60" with entities [EventEntity, EventEntity]
  1: 0x00EE [0x00] END_REQSTACK()
```

### Event 123

#### Metadata

| Field        | Value   |
|--------------|---------|
| Entrypoint   | 0x00EF  |
| Data Size    | 7 bytes |
| Instructions | 2       |

```
      00 01 02 03 04 05 06 07  08 09 0A 0B 0C 0D 0E 0F
      -- -- -- -- -- -- -- --  -- -- -- -- -- -- -- --
00E0:                                               92                 .
00F0: 01 F8 FF FF 7F 00                                 ......          
```

#### Opcodes

```
  0: 0x00EF [0x92] EventEntity->Render.Flags3 ^= 0x01
  1: 0x00F5 [0x00] END_REQSTACK()
```

### Event 124

#### Metadata

| Field        | Value   |
|--------------|---------|
| Entrypoint   | 0x00F6  |
| Data Size    | 7 bytes |
| Instructions | 2       |

```
      00 01 02 03 04 05 06 07  08 09 0A 0B 0C 0D 0E 0F
      -- -- -- -- -- -- -- --  -- -- -- -- -- -- -- --
00F0:                   92 01  F8 FF FF 7F 00                 .......   
```

#### Opcodes

```
  0: 0x00F6 [0x92] EventEntity->Render.Flags3 ^= 0x01
  1: 0x00FC [0x00] END_REQSTACK()
```

### Event 65535.16

#### Metadata

| Field        | Value    |
|--------------|----------|
| Entrypoint   | 0x00FD   |
| Data Size    | 22 bytes |
| Instructions | 6        |

```
      00 01 02 03 04 05 06 07  08 09 0A 0B 0C 0D 0E 0F
      -- -- -- -- -- -- -- --  -- -- -- -- -- -- -- --
00F0:                                         32 00 80               2..
0100: 1F 00 01 80 02 80 03 80  1F 01 6F 4B F8 FF FF 7F  ..........oK....
0110: 04 80 00                                          ...             
```

#### Opcodes

```
  0: 0x00FD [0x32] ExtData[1]->MainSpeed = 13* * 0.1
  1: 0x0100 [0x1F] MOVE_ENTITY: EventEntity moves to X=9.244*, Z=1.782*, Y=0.000*
  2: 0x0108 [0x1F] MOVE_ENTITY: Update entity position (mode=1)
  3: 0x010A [0x6F] WAIT_FRAME_DELAY: Yield until WaitTime reaches zero
  4: 0x010B [0x4B] UPDATE_ENTITY_YAW(entity=EventEntity, yaw=4.4°*)
  5: 0x0112 [0x00] END_REQSTACK()
```

### Event 65535.17

#### Metadata

| Field        | Value    |
|--------------|----------|
| Entrypoint   | 0x0113   |
| Data Size    | 23 bytes |
| Instructions | 7        |

```
      00 01 02 03 04 05 06 07  08 09 0A 0B 0C 0D 0E 0F
      -- -- -- -- -- -- -- --  -- -- -- -- -- -- -- --
0110:          32 00 80 1F 00  05 80 06 80 03 80 1F 01     2............
0120: 6F 1C 07 80 1E 5D 21 0A  01 00                    o....]!...      
```

#### Opcodes

```
  0: 0x0113 [0x32] ExtData[1]->MainSpeed = 13* * 0.1
  1: 0x0116 [0x1F] MOVE_ENTITY: EventEntity moves to X=10.000*, Z=3.500*, Y=0.000*
  2: 0x011E [0x1F] MOVE_ENTITY: Update entity position (mode=1)
  3: 0x0120 [0x6F] WAIT_FRAME_DELAY: Yield until WaitTime reaches zero
  4: 0x0121 [0x1C] WAIT(10* ticks)
  5: 0x0124 [0x1E] EventEntity looks at Shadow Lord (ID: 17441117/0x010A215D) and starts talking
  6: 0x0129 [0x00] END_REQSTACK()
```

### Event 65535.18

#### Metadata

| Field        | Value    |
|--------------|----------|
| Entrypoint   | 0x012A   |
| Data Size    | 25 bytes |
| Instructions | 7        |

```
      00 01 02 03 04 05 06 07  08 09 0A 0B 0C 0D 0E 0F
      -- -- -- -- -- -- -- --  -- -- -- -- -- -- -- --
0120:                                32 08 80 1F 00 09            2.....
0130: 80 0A 80 03 80 1F 01 1F  00 0B 80 0C 80 03 80 1F  ................
0140: 01 6F 00                                          .o.             
```

#### Opcodes

```
  0: 0x012A [0x32] ExtData[1]->MainSpeed = 40* * 0.1
  1: 0x012D [0x1F] MOVE_ENTITY: EventEntity moves to X=18.375*, Z=1.579*, Y=0.000*
  2: 0x0135 [0x1F] MOVE_ENTITY: Update entity position (mode=1)
  3: 0x0137 [0x1F] MOVE_ENTITY: EventEntity moves to X=41.089*, Z=1.178*, Y=0.000*
  4: 0x013F [0x1F] MOVE_ENTITY: Update entity position (mode=1)
  5: 0x0141 [0x6F] WAIT_FRAME_DELAY: Yield until WaitTime reaches zero
  6: 0x0142 [0x00] END_REQSTACK()
```

### Event 65535.19

#### Metadata

| Field        | Value    |
|--------------|----------|
| Entrypoint   | 0x0143   |
| Data Size    | 25 bytes |
| Instructions | 7        |

```
      00 01 02 03 04 05 06 07  08 09 0A 0B 0C 0D 0E 0F
      -- -- -- -- -- -- -- --  -- -- -- -- -- -- -- --
0140:          32 08 80 1F 00  0D 80 0E 80 0F 80 1F 01     2............
0150: 6F 1C 10 80 4B F8 FF FF  7F 11 80 00              o...K.......    
```

#### Opcodes

```
  0: 0x0143 [0x32] ExtData[1]->MainSpeed = 40* * 0.1
  1: 0x0146 [0x1F] MOVE_ENTITY: EventEntity moves to X=-401.500*, Z=22.000*, Y=-43.101*
  2: 0x014E [0x1F] MOVE_ENTITY: Update entity position (mode=1)
  3: 0x0150 [0x6F] WAIT_FRAME_DELAY: Yield until WaitTime reaches zero
  4: 0x0151 [0x1C] WAIT(30* ticks)
  5: 0x0154 [0x4B] UPDATE_ENTITY_YAW(entity=EventEntity, yaw=2.2°*)
  6: 0x015B [0x00] END_REQSTACK()
```

### Event 65535.20

#### Metadata

| Field        | Value    |
|--------------|----------|
| Entrypoint   | 0x015C   |
| Data Size    | 15 bytes |
| Instructions | 5        |

```
      00 01 02 03 04 05 06 07  08 09 0A 0B 0C 0D 0E 0F
      -- -- -- -- -- -- -- --  -- -- -- -- -- -- -- --
0150:                                      32 00 80 1F              2...
0160: 00 12 80 13 80 14 80 1F  01 6F 00                 .........o.     
```

#### Opcodes

```
  0: 0x015C [0x32] ExtData[1]->MainSpeed = 13* * 0.1
  1: 0x015F [0x1F] MOVE_ENTITY: EventEntity moves to X=-402.191*, Z=21.089*, Y=-43.055*
  2: 0x0167 [0x1F] MOVE_ENTITY: Update entity position (mode=1)
  3: 0x0169 [0x6F] WAIT_FRAME_DELAY: Yield until WaitTime reaches zero
  4: 0x016A [0x00] END_REQSTACK()
```

### Event 65535.21

#### Metadata

| Field        | Value    |
|--------------|----------|
| Entrypoint   | 0x016B   |
| Data Size    | 14 bytes |
| Instructions | 4        |

```
      00 01 02 03 04 05 06 07  08 09 0A 0B 0C 0D 0E 0F
      -- -- -- -- -- -- -- --  -- -- -- -- -- -- -- --
0160:                                   32 08 80 5A 00             2..Z.
0170: 15 80 13 80 16 80 5A 01  00                       ......Z..       
```

#### Opcodes

```
  0: 0x016B [0x32] ExtData[1]->MainSpeed = 40* * 0.1
  1: 0x016E [0x5A] UPDATE_EVENT_POSITION: Set EventEntity MovePosition to X=-366.041*, Z=21.089*, Y=-36.114*
  2: 0x0176 [0x5A] UPDATE_EVENT_POSITION: Move EventEntity incrementally towards MovePosition
  3: 0x0178 [0x00] END_REQSTACK()
```

### Event 125

#### Metadata

| Field        | Value   |
|--------------|---------|
| Entrypoint   | 0x0179  |
| Data Size    | 7 bytes |
| Instructions | 2       |

```
      00 01 02 03 04 05 06 07  08 09 0A 0B 0C 0D 0E 0F
      -- -- -- -- -- -- -- --  -- -- -- -- -- -- -- --
0170:                             92 01 F8 FF FF 7F 00           .......
```

#### Opcodes

```
  0: 0x0179 [0x92] EventEntity->Render.Flags3 ^= 0x01
  1: 0x017F [0x00] END_REQSTACK()
```

### Event 126

#### Metadata

| Field        | Value   |
|--------------|---------|
| Entrypoint   | 0x0180  |
| Data Size    | 7 bytes |
| Instructions | 2       |

```
      00 01 02 03 04 05 06 07  08 09 0A 0B 0C 0D 0E 0F
      -- -- -- -- -- -- -- --  -- -- -- -- -- -- -- --
0180: 92 01 F8 FF FF 7F 00                              .......         
```

#### Opcodes

```
  0: 0x0180 [0x92] EventEntity->Render.Flags3 ^= 0x01
  1: 0x0186 [0x00] END_REQSTACK()
```

### Event 127

#### Metadata

| Field        | Value   |
|--------------|---------|
| Entrypoint   | 0x0187  |
| Data Size    | 7 bytes |
| Instructions | 2       |

```
      00 01 02 03 04 05 06 07  08 09 0A 0B 0C 0D 0E 0F
      -- -- -- -- -- -- -- --  -- -- -- -- -- -- -- --
0180:                      92  01 F8 FF FF 7F 00               .......  
```

#### Opcodes

```
  0: 0x0187 [0x92] EventEntity->Render.Flags3 ^= 0x01
  1: 0x018D [0x00] END_REQSTACK()
```

### Event 65535.22

#### Metadata

| Field        | Value    |
|--------------|----------|
| Entrypoint   | 0x018E   |
| Data Size    | 15 bytes |
| Instructions | 5        |

```
      00 01 02 03 04 05 06 07  08 09 0A 0B 0C 0D 0E 0F
      -- -- -- -- -- -- -- --  -- -- -- -- -- -- -- --
0180:                                            32 08                2.
0190: 80 1F 00 17 80 18 80 19  80 1F 01 6F 00           ...........o.   
```

#### Opcodes

```
  0: 0x018E [0x32] ExtData[1]->MainSpeed = 40* * 0.1
  1: 0x0191 [0x1F] MOVE_ENTITY: EventEntity moves to X=-555.000*, Z=61.500*, Y=-70.000*
  2: 0x0199 [0x1F] MOVE_ENTITY: Update entity position (mode=1)
  3: 0x019B [0x6F] WAIT_FRAME_DELAY: Yield until WaitTime reaches zero
  4: 0x019C [0x00] END_REQSTACK()
```

### Event 65535.23

#### Metadata

| Field        | Value    |
|--------------|----------|
| Entrypoint   | 0x019D   |
| Data Size    | 15 bytes |
| Instructions | 5        |

```
      00 01 02 03 04 05 06 07  08 09 0A 0B 0C 0D 0E 0F
      -- -- -- -- -- -- -- --  -- -- -- -- -- -- -- --
0190:                                         32 00 80               2..
01A0: 1F 00 1A 80 1B 80 1C 80  1F 01 6F 00              ..........o.    
```

#### Opcodes

```
  0: 0x019D [0x32] ExtData[1]->MainSpeed = 13* * 0.1
  1: 0x01A0 [0x1F] MOVE_ENTITY: EventEntity moves to X=11.152*, Z=4.035*, Y=-7.041*
  2: 0x01A8 [0x1F] MOVE_ENTITY: Update entity position (mode=1)
  3: 0x01AA [0x6F] WAIT_FRAME_DELAY: Yield until WaitTime reaches zero
  4: 0x01AB [0x00] END_REQSTACK()
```

### Event 65535.24

#### Metadata

| Field        | Value    |
|--------------|----------|
| Entrypoint   | 0x01AC   |
| Data Size    | 15 bytes |
| Instructions | 5        |

```
      00 01 02 03 04 05 06 07  08 09 0A 0B 0C 0D 0E 0F
      -- -- -- -- -- -- -- --  -- -- -- -- -- -- -- --
01A0:                                      32 00 80 1F              2...
01B0: 00 1D 80 1E 80 1F 80 1F  01 6F 00                 .........o.     
```

#### Opcodes

```
  0: 0x01AC [0x32] ExtData[1]->MainSpeed = 13* * 0.1
  1: 0x01AF [0x1F] MOVE_ENTITY: EventEntity moves to X=11.595*, Z=2.939*, Y=-7.051*
  2: 0x01B7 [0x1F] MOVE_ENTITY: Update entity position (mode=1)
  3: 0x01B9 [0x6F] WAIT_FRAME_DELAY: Yield until WaitTime reaches zero
  4: 0x01BA [0x00] END_REQSTACK()
```

### Event 65535.25

#### Metadata

| Field        | Value    |
|--------------|----------|
| Entrypoint   | 0x01BB   |
| Data Size    | 15 bytes |
| Instructions | 5        |

```
      00 01 02 03 04 05 06 07  08 09 0A 0B 0C 0D 0E 0F
      -- -- -- -- -- -- -- --  -- -- -- -- -- -- -- --
01B0:                                   32 08 80 1F 00             2....
01C0: 20 80 21 80 22 80 1F 01  6F 00                     .!."...o.      
```

#### Opcodes

```
  0: 0x01BB [0x32] ExtData[1]->MainSpeed = 40* * 0.1
  1: 0x01BE [0x1F] MOVE_ENTITY: EventEntity moves to X=5.828*, Z=1.164*, Y=-7.085*
  2: 0x01C6 [0x1F] MOVE_ENTITY: Update entity position (mode=1)
  3: 0x01C8 [0x6F] WAIT_FRAME_DELAY: Yield until WaitTime reaches zero
  4: 0x01C9 [0x00] END_REQSTACK()
```

### Event 65535.26

#### Metadata

| Field        | Value     |
|--------------|-----------|
| Entrypoint   | 0x01CA    |
| Data Size    | 375 bytes |
| Instructions | 66        |

```
      00 01 02 03 04 05 06 07  08 09 0A 0B 0C 0D 0E 0F
      -- -- -- -- -- -- -- --  -- -- -- -- -- -- -- --
01C0:                                03 00 00 03 80 03            ......
01D0: 02 00 03 80 02 02 00 03  80 04 40 03 03 00 00 02  ..........@.....
01E0: 00 3F 00 00 00 00 23 80  02 00 00 08 80 00 60 02  .?....#.......`.
01F0: 13 01 00 24 80 02 01 00  03 80 80 05 02 03 01 00  ...$............
0200: 25 80 01 55 02 02 01 00  26 80 80 15 02 03 01 00  %..U....&.......
0210: 27 80 01 55 02 02 01 00  28 80 80 25 02 03 01 00  '..U....(..%....
0220: 29 80 01 55 02 02 01 00  2A 80 80 35 02 03 01 00  )..U....*..5....
0230: 2B 80 01 55 02 02 01 00  2C 80 80 45 02 03 01 00  +..U....,..E....
0240: 2D 80 01 55 02 02 01 00  24 80 80 55 02 03 01 00  -..U....$..U....
0250: 2E 80 01 55 02 73 01 00  63 21 0A 01 5C 21 0A 01  ...U.s..c!..\!..
0260: 03 00 00 02 00 3F 00 00  00 00 23 80 02 00 00 2F  .....?....#..../
0270: 80 00 D4 02 13 01 00 2C  80 02 01 00 03 80 80 89  .......,........
0280: 02 03 01 00 30 80 01 C9  02 02 01 00 26 80 80 99  ....0.......&...
0290: 02 03 01 00 31 80 01 C9  02 02 01 00 28 80 80 A9  ....1.......(...
02A0: 02 03 01 00 32 80 01 C9  02 02 01 00 2A 80 80 B9  ....2.......*...
02B0: 02 03 01 00 33 80 01 C9  02 02 01 00 2C 80 80 C9  ....3.......,...
02C0: 02 03 01 00 34 80 01 C9  02 73 01 00 64 21 0A 01  ....4....s..d!..
02D0: 5C 21 0A 01 03 00 00 02  00 3F 00 00 00 00 23 80  \!.......?....#.
02E0: 02 00 00 35 80 00 28 03  13 01 00 28 80 02 01 00  ...5..(....(....
02F0: 03 80 80 FD 02 03 01 00  36 80 01 1D 03 02 01 00  ........6.......
0300: 26 80 80 0D 03 03 01 00  10 80 01 1D 03 02 01 00  &...............
0310: 28 80 80 1D 03 03 01 00  37 80 01 1D 03 73 01 00  (.......7....s..
0320: 65 21 0A 01 5C 21 0A 01  02 02 00 38 80 02 35 03  e!..\!.....8..5.
0330: 03 02 00 03 80 1C 07 80  07 02 00 07 80 01 D4 01  ................
0340: 00                                                .               
```

#### Opcodes

```
  0: 0x01CA [0x03] ExtData[1]->WorkLocal[0] = 0*
  1: 0x01CF [0x03] ExtData[1]->WorkLocal[2] = 0*
  2: 0x01D4 [0x02] IF !(ExtData[1]->WorkLocal[2] < 0*) GOTO 0x0340
  3: 0x01DC [0x03] ExtData[1]->WorkLocal[0] = ExtData[1]->WorkLocal[2]
  4: 0x01E1 [0x3F] ExtData[1]->WorkLocal[0] = ExtData[1]->WorkLocal[0] % 240*
  5: 0x01E8 [0x02] IF !(ExtData[1]->WorkLocal[0] == 40*) GOTO 0x0260
  6: 0x01F0 [0x13] ExtData[1]->WorkLocal[1] = rand() % 5*
  7: 0x01F5 [0x02] IF !(ExtData[1]->WorkLocal[1] == 0*) GOTO 0x0205
  8: 0x01FD [0x03] ExtData[1]->WorkLocal[1] = 147*
  9: 0x0202 [0x01] GOTO 0x0255
 10: 0x0205 [0x02] IF !(ExtData[1]->WorkLocal[1] == 1*) GOTO 0x0215
 11: 0x020D [0x03] ExtData[1]->WorkLocal[1] = 152*
 12: 0x0212 [0x01] GOTO 0x0255
 13: 0x0215 [0x02] IF !(ExtData[1]->WorkLocal[1] == 2*) GOTO 0x0225
 14: 0x021D [0x03] ExtData[1]->WorkLocal[1] = 157*
 15: 0x0222 [0x01] GOTO 0x0255
 16: 0x0225 [0x02] IF !(ExtData[1]->WorkLocal[1] == 3*) GOTO 0x0235
 17: 0x022D [0x03] ExtData[1]->WorkLocal[1] = 162*
 18: 0x0232 [0x01] GOTO 0x0255
 19: 0x0235 [0x02] IF !(ExtData[1]->WorkLocal[1] == 4*) GOTO 0x0245
 20: 0x023D [0x03] ExtData[1]->WorkLocal[1] = 167*
 21: 0x0242 [0x01] GOTO 0x0255
 22: 0x0245 [0x02] IF !(ExtData[1]->WorkLocal[1] == 5*) GOTO 0x0255
 23: 0x024D [0x03] ExtData[1]->WorkLocal[1] = 172*
 24: 0x0252 [0x01] GOTO 0x0255

SUBROUTINE_0255:
 25: 0x0255 [0x73] Antican Curule Aedilis (ID: 17441123/0x010A2163) casts magic ExtData[1]->WorkLocal[1] on Chaos (ID: 17441116/0x010A215C)
 26: 0x0260 [0x03] ExtData[1]->WorkLocal[0] = ExtData[1]->WorkLocal[2]
 27: 0x0265 [0x3F] ExtData[1]->WorkLocal[0] = ExtData[1]->WorkLocal[0] % 240*
 28: 0x026C [0x02] IF !(ExtData[1]->WorkLocal[0] == 20*) GOTO 0x02D4
 29: 0x0274 [0x13] ExtData[1]->WorkLocal[1] = rand() % 4*
 30: 0x0279 [0x02] IF !(ExtData[1]->WorkLocal[1] == 0*) GOTO 0x0289
 31: 0x0281 [0x03] ExtData[1]->WorkLocal[1] = 24*
 32: 0x0286 [0x01] GOTO 0x02C9
 33: 0x0289 [0x02] IF !(ExtData[1]->WorkLocal[1] == 1*) GOTO 0x0299
 34: 0x0291 [0x03] ExtData[1]->WorkLocal[1] = 56*
 35: 0x0296 [0x01] GOTO 0x02C9
 36: 0x0299 [0x02] IF !(ExtData[1]->WorkLocal[1] == 2*) GOTO 0x02A9
 37: 0x02A1 [0x03] ExtData[1]->WorkLocal[1] = 58*
 38: 0x02A6 [0x01] GOTO 0x02C9
 39: 0x02A9 [0x02] IF !(ExtData[1]->WorkLocal[1] == 3*) GOTO 0x02B9
 40: 0x02B1 [0x03] ExtData[1]->WorkLocal[1] = 221*
 41: 0x02B6 [0x01] GOTO 0x02C9
 42: 0x02B9 [0x02] IF !(ExtData[1]->WorkLocal[1] == 4*) GOTO 0x02C9
 43: 0x02C1 [0x03] ExtData[1]->WorkLocal[1] = 254*
 44: 0x02C6 [0x01] GOTO 0x02C9

SUBROUTINE_02C9:
 45: 0x02C9 [0x73] Garmatur the Merciless (ID: 17441124/0x010A2164) casts magic ExtData[1]->WorkLocal[1] on Chaos (ID: 17441116/0x010A215C)
 46: 0x02D4 [0x03] ExtData[1]->WorkLocal[0] = ExtData[1]->WorkLocal[2]
 47: 0x02D9 [0x3F] ExtData[1]->WorkLocal[0] = ExtData[1]->WorkLocal[0] % 240*
 48: 0x02E0 [0x02] IF !(ExtData[1]->WorkLocal[0] == 60*) GOTO 0x0328
 49: 0x02E8 [0x13] ExtData[1]->WorkLocal[1] = rand() % 2*
 50: 0x02ED [0x02] IF !(ExtData[1]->WorkLocal[1] == 0*) GOTO 0x02FD
 51: 0x02F5 [0x03] ExtData[1]->WorkLocal[1] = 21*
 52: 0x02FA [0x01] GOTO 0x031D
 53: 0x02FD [0x02] IF !(ExtData[1]->WorkLocal[1] == 1*) GOTO 0x030D
 54: 0x0305 [0x03] ExtData[1]->WorkLocal[1] = 30*
 55: 0x030A [0x01] GOTO 0x031D
 56: 0x030D [0x02] IF !(ExtData[1]->WorkLocal[1] == 2*) GOTO 0x031D
 57: 0x0315 [0x03] ExtData[1]->WorkLocal[1] = 39*
 58: 0x031A [0x01] GOTO 0x031D

SUBROUTINE_031D:
 59: 0x031D [0x73] Ge'Dha Evileye (ID: 17441125/0x010A2165) casts magic ExtData[1]->WorkLocal[1] on Chaos (ID: 17441116/0x010A215C)
 60: 0x0328 [0x02] IF !(ExtData[1]->WorkLocal[2] <= 640*) GOTO 0x0335
 61: 0x0330 [0x03] ExtData[1]->WorkLocal[2] = 0*
 62: 0x0335 [0x1C] WAIT(10* ticks)
 63: 0x0338 [0x07] ExtData[1]->WorkLocal[2] += 10*
 64: 0x033D [0x01] GOTO 0x01D4
 65: 0x0340 [0x00] END_REQSTACK()
```

### Event 65535.27

#### Metadata

| Field        | Value    |
|--------------|----------|
| Entrypoint   | 0x0341   |
| Data Size    | 22 bytes |
| Instructions | 8        |

```
      00 01 02 03 04 05 06 07  08 09 0A 0B 0C 0D 0E 0F
      -- -- -- -- -- -- -- --  -- -- -- -- -- -- -- --
0340:    32 08 80 1F 00 39 80  3A 80 3B 80 1F 01 6F 1E   2....9.:.;...o.
0350: 57 21 0A 01 6F 70 00                              W!..op.         
```

#### Opcodes

```
  0: 0x0341 [0x32] ExtData[1]->MainSpeed = 40* * 0.1
  1: 0x0344 [0x1F] MOVE_ENTITY: EventEntity moves to X=14.577*, Z=0.770*, Y=-7.199*
  2: 0x034C [0x1F] MOVE_ENTITY: Update entity position (mode=1)
  3: 0x034E [0x6F] WAIT_FRAME_DELAY: Yield until WaitTime reaches zero
  4: 0x034F [0x1E] EventEntity looks at Gloom Phantom (ID: 17441111/0x010A2157) and starts talking
  5: 0x0354 [0x6F] WAIT_FRAME_DELAY: Yield until WaitTime reaches zero
  6: 0x0355 [0x70] WAIT_ENTITY_RENDER_FLAG: Wait while EventEntity->Render.Flags3 bit 2 is set (cancel turn if not)
  7: 0x0356 [0x00] END_REQSTACK()
```

### Event 65535.28

#### Metadata

| Field        | Value    |
|--------------|----------|
| Entrypoint   | 0x0357   |
| Data Size    | 15 bytes |
| Instructions | 5        |

```
      00 01 02 03 04 05 06 07  08 09 0A 0B 0C 0D 0E 0F
      -- -- -- -- -- -- -- --  -- -- -- -- -- -- -- --
0350:                      32  35 80 1F 00 3C 80 3D 80         25...<.=.
0360: 03 80 1F 01 6F 00                                 ....o.          
```

#### Opcodes

```
  0: 0x0357 [0x32] ExtData[1]->MainSpeed = 60* * 0.1
  1: 0x035A [0x1F] MOVE_ENTITY: EventEntity moves to X=-23.345*, Z=0.494*, Y=0.000*
  2: 0x0362 [0x1F] MOVE_ENTITY: Update entity position (mode=1)
  3: 0x0364 [0x6F] WAIT_FRAME_DELAY: Yield until WaitTime reaches zero
  4: 0x0365 [0x00] END_REQSTACK()
```

### Event 65535.29

#### Metadata

| Field        | Value    |
|--------------|----------|
| Entrypoint   | 0x0366   |
| Data Size    | 15 bytes |
| Instructions | 5        |

```
      00 01 02 03 04 05 06 07  08 09 0A 0B 0C 0D 0E 0F
      -- -- -- -- -- -- -- --  -- -- -- -- -- -- -- --
0360:                   32 08  80 1F 00 3E 80 3F 80 40        2....>.?.@
0370: 80 1F 01 6F 00                                    ...o.           
```

#### Opcodes

```
  0: 0x0366 [0x32] ExtData[1]->MainSpeed = 40* * 0.1
  1: 0x0369 [0x1F] MOVE_ENTITY: EventEntity moves to X=7.329*, Z=0.741*, Y=-7.208*
  2: 0x0371 [0x1F] MOVE_ENTITY: Update entity position (mode=1)
  3: 0x0373 [0x6F] WAIT_FRAME_DELAY: Yield until WaitTime reaches zero
  4: 0x0374 [0x00] END_REQSTACK()
```

### Event 65535.30

#### Metadata

| Field        | Value    |
|--------------|----------|
| Entrypoint   | 0x0375   |
| Data Size    | 15 bytes |
| Instructions | 5        |

```
      00 01 02 03 04 05 06 07  08 09 0A 0B 0C 0D 0E 0F
      -- -- -- -- -- -- -- --  -- -- -- -- -- -- -- --
0370:                32 08 80  1F 00 41 80 42 80 43 80       2....A.B.C.
0380: 1F 01 6F 00                                       ..o.            
```

#### Opcodes

```
  0: 0x0375 [0x32] ExtData[1]->MainSpeed = 40* * 0.1
  1: 0x0378 [0x1F] MOVE_ENTITY: EventEntity moves to X=-440.784*, Z=-238.965*, Y=-166.999*
  2: 0x0380 [0x1F] MOVE_ENTITY: Update entity position (mode=1)
  3: 0x0382 [0x6F] WAIT_FRAME_DELAY: Yield until WaitTime reaches zero
  4: 0x0383 [0x00] END_REQSTACK()
```

### Event 65535.31

#### Metadata

| Field        | Value   |
|--------------|---------|
| Entrypoint   | 0x0384  |
| Data Size    | 5 bytes |
| Instructions | 2       |

```
      00 01 02 03 04 05 06 07  08 09 0A 0B 0C 0D 0E 0F
      -- -- -- -- -- -- -- --  -- -- -- -- -- -- -- --
0380:             B6 00 44 80  00                           ..D..       
```

#### Opcodes

```
  0: 0x0384 [0xB6] ENTITY_APPEARANCE_HANDLER(case=Hair style, value=52*)
  1: 0x0388 [0x00] END_REQSTACK()
```

### Event 65535.32

#### Metadata

| Field        | Value   |
|--------------|---------|
| Entrypoint   | 0x0389  |
| Data Size    | 5 bytes |
| Instructions | 2       |

```
      00 01 02 03 04 05 06 07  08 09 0A 0B 0C 0D 0E 0F
      -- -- -- -- -- -- -- --  -- -- -- -- -- -- -- --
0380:                             B6 00 45 80 00                 ..E..  
```

#### Opcodes

```
  0: 0x0389 [0xB6] ENTITY_APPEARANCE_HANDLER(case=Hair style, value=3159*)
  1: 0x038D [0x00] END_REQSTACK()
```
