# 17441115 - Garazu-Horeizu

## Common Data

| Field            | Value                       |
|------------------|-----------------------------|
| Zone             | Castle Zvahl Keep (ID: 162) |
| Block Size       | 1764 bytes                  |
| Total Events     | 88                          |
| References Count | 27                          |

## List of Events

| Event ID                   | Entrypoint   |   Size |   Instructions |
|----------------------------|--------------|--------|----------------|
| [65535](#event-65535)      | 0x0000       |      1 |              1 |
| [65535.1](#event-655351)   | 0x0001       |     16 |              2 |
| [65535.2](#event-655352)   | 0x0011       |     14 |              2 |
| [65535.3](#event-655353)   | 0x001F       |     16 |              2 |
| [65535.4](#event-655354)   | 0x002F       |     14 |              2 |
| [65535.5](#event-655355)   | 0x003D       |     16 |              2 |
| [65535.6](#event-655356)   | 0x004D       |     14 |              2 |
| [65535.7](#event-655357)   | 0x005B       |     16 |              2 |
| [65535.8](#event-655358)   | 0x006B       |     14 |              2 |
| [65535.9](#event-655359)   | 0x0079       |     16 |              2 |
| [65535.10](#event-6553510) | 0x0089       |     14 |              2 |
| [65535.11](#event-6553511) | 0x0097       |     16 |              2 |
| [65535.12](#event-6553512) | 0x00A7       |     14 |              2 |
| [65535.13](#event-6553513) | 0x00B5       |     16 |              2 |
| [65535.14](#event-6553514) | 0x00C5       |     14 |              2 |
| [65535.15](#event-6553515) | 0x00D3       |     16 |              2 |
| [65535.16](#event-6553516) | 0x00E3       |     14 |              2 |
| [65535.17](#event-6553517) | 0x00F1       |     16 |              2 |
| [65535.18](#event-6553518) | 0x0101       |     14 |              2 |
| [65535.19](#event-6553519) | 0x010F       |     16 |              2 |
| [65535.20](#event-6553520) | 0x011F       |     14 |              2 |
| [65535.21](#event-6553521) | 0x012D       |     16 |              2 |
| [65535.22](#event-6553522) | 0x013D       |     14 |              2 |
| [65535.23](#event-6553523) | 0x014B       |     16 |              2 |
| [65535.24](#event-6553524) | 0x015B       |     14 |              2 |
| [65535.25](#event-6553525) | 0x0169       |     16 |              2 |
| [65535.26](#event-6553526) | 0x0179       |     14 |              2 |
| [65535.27](#event-6553527) | 0x0187       |     16 |              2 |
| [65535.28](#event-6553528) | 0x0197       |     14 |              2 |
| [65535.29](#event-6553529) | 0x01A5       |     16 |              2 |
| [65535.30](#event-6553530) | 0x01B5       |     14 |              2 |
| [65535.31](#event-6553531) | 0x01C3       |     16 |              2 |
| [65535.32](#event-6553532) | 0x01D3       |     14 |              2 |
| [65535.33](#event-6553533) | 0x01E1       |     16 |              2 |
| [65535.34](#event-6553534) | 0x01F1       |     14 |              2 |
| [65535.35](#event-6553535) | 0x01FF       |     16 |              2 |
| [65535.36](#event-6553536) | 0x020F       |     14 |              2 |
| [65535.37](#event-6553537) | 0x021D       |     16 |              2 |
| [65535.38](#event-6553538) | 0x022D       |     14 |              2 |
| [65535.39](#event-6553539) | 0x023B       |     16 |              2 |
| [65535.40](#event-6553540) | 0x024B       |     14 |              2 |
| [65535.41](#event-6553541) | 0x0259       |     16 |              2 |
| [65535.42](#event-6553542) | 0x0269       |     14 |              2 |
| [65535.43](#event-6553543) | 0x0277       |     16 |              2 |
| [65535.44](#event-6553544) | 0x0287       |     14 |              2 |
| [65535.45](#event-6553545) | 0x0295       |     16 |              2 |
| [65535.46](#event-6553546) | 0x02A5       |     14 |              2 |
| [65535.47](#event-6553547) | 0x02B3       |     16 |              2 |
| [65535.48](#event-6553548) | 0x02C3       |     14 |              2 |
| [65535.49](#event-6553549) | 0x02D1       |     16 |              2 |
| [65535.50](#event-6553550) | 0x02E1       |     14 |              2 |
| [65535.51](#event-6553551) | 0x02EF       |     16 |              2 |
| [65535.52](#event-6553552) | 0x02FF       |     14 |              2 |
| [65535.53](#event-6553553) | 0x030D       |     16 |              2 |
| [65535.54](#event-6553554) | 0x031D       |     14 |              2 |
| [65535.55](#event-6553555) | 0x032B       |     16 |              2 |
| [65535.56](#event-6553556) | 0x033B       |     14 |              2 |
| [65535.57](#event-6553557) | 0x0349       |     16 |              2 |
| [65535.58](#event-6553558) | 0x0359       |     14 |              2 |
| [65535.59](#event-6553559) | 0x0367       |     16 |              2 |
| [65535.60](#event-6553560) | 0x0377       |     14 |              2 |
| [65535.61](#event-6553561) | 0x0385       |     16 |              2 |
| [65535.62](#event-6553562) | 0x0395       |     14 |              2 |
| [65535.63](#event-6553563) | 0x03A3       |     16 |              2 |
| [65535.64](#event-6553564) | 0x03B3       |     14 |              2 |
| [65535.65](#event-6553565) | 0x03C1       |     16 |              2 |
| [65535.66](#event-6553566) | 0x03D1       |     14 |              2 |
| [65535.67](#event-6553567) | 0x03DF       |     16 |              2 |
| [65535.68](#event-6553568) | 0x03EF       |     14 |              2 |
| [65535.69](#event-6553569) | 0x03FD       |     16 |              2 |
| [65535.70](#event-6553570) | 0x040D       |     14 |              2 |
| [65535.71](#event-6553571) | 0x041B       |     16 |              2 |
| [65535.72](#event-6553572) | 0x042B       |     14 |              2 |
| [65535.73](#event-6553573) | 0x0439       |     16 |              2 |
| [65535.74](#event-6553574) | 0x0449       |     14 |              2 |
| [65535.75](#event-6553575) | 0x0457       |     16 |              2 |
| [65535.76](#event-6553576) | 0x0467       |     14 |              2 |
| [65535.77](#event-6553577) | 0x0475       |     16 |              2 |
| [65535.78](#event-6553578) | 0x0485       |     14 |              2 |
| [65535.79](#event-6553579) | 0x0493       |     16 |              2 |
| [65535.80](#event-6553580) | 0x04A3       |     14 |              2 |
| [65535.81](#event-6553581) | 0x04B1       |     16 |              2 |
| [65535.82](#event-6553582) | 0x04C1       |     14 |              2 |
| [123](#event-123)          | 0x04CF       |      7 |              2 |
| [65535.83](#event-6553583) | 0x04D6       |     10 |              2 |
| [65535.84](#event-6553584) | 0x04E0       |     10 |              2 |
| [65535.85](#event-6553585) | 0x04EA       |     15 |              5 |
| [65535.86](#event-6553586) | 0x04F9       |     15 |              5 |

## DAT References (imed_data)

|   Index | Hex Value   |   Dec Value |
|---------|-------------|-------------|
|       0 | 0x00BD      |         189 |
|       1 | 0x0022      |          34 |
|       2 | 0x0805      |        2053 |
|       3 | 0x0028      |          40 |
|       4 | 0x0031      |          49 |
|       5 | 0x01BC      |         444 |
|       6 | 0x055D      |        1373 |
|       7 | 0x055F      |        1375 |
|       8 | 0x0560      |        1376 |
|       9 | 0x0801      |        2049 |
|      10 | 0x0804      |        2052 |
|      11 | 0x0806      |        2054 |
|      12 | 0x055C      |        1372 |
|      13 | 0x0808      |        2056 |
|      14 | 0x00B4      |         180 |
|      15 | 0x00B8      |         184 |
|      16 | 0x00FD      |         253 |
|      17 | 0x0000      |           0 |
|      18 | 0x0001      |           1 |
|      19 | 0x0080      |         128 |
|      20 | 0x000A      |          10 |
|      21 | 0x000D      |          13 |
|      22 | 0x2103      |        8451 |
|      23 | 0x02C8      |         712 |
|      24 | 0xFFFFFEFD  |  4294967037 |
|      25 | 0x157C      |        5500 |
|      26 | 0x0013      |          19 |

## Events

### Event 65535

#### Metadata

| Field        | Value   |
|--------------|---------|
| Entrypoint   | 0x0000  |
| Data Size    | 1 bytes |
| Instructions | 1       |

```
      00 01 02 03 04 05 06 07  08 09 0A 0B 0C 0D 0E 0F
      -- -- -- -- -- -- -- --  -- -- -- -- -- -- -- --
0000: 00                                                .               
```

#### Opcodes

```
  0: 0x0000 [0x00] END_REQSTACK()
```

### Event 65535.1

#### Metadata

| Field        | Value    |
|--------------|----------|
| Entrypoint   | 0x0001   |
| Data Size    | 16 bytes |
| Instructions | 2        |

```
      00 01 02 03 04 05 06 07  08 09 0A 0B 0C 0D 0E 0F
      -- -- -- -- -- -- -- --  -- -- -- -- -- -- -- --
0000:    66 00 80 F8 FF FF 7F  F8 FF FF 7F 74 6C 6B 30   f..........tlk0
0010: 00                                                .               
```

#### Opcodes

```
  0: 0x0001 [0x66] LOAD_EXT_SCHEDULER_MAIN: Load scheduler "tlk0" with entities [EventEntity, EventEntity], work=189*
  1: 0x0010 [0x00] END_REQSTACK()
```

### Event 65535.2

#### Metadata

| Field        | Value    |
|--------------|----------|
| Entrypoint   | 0x0011   |
| Data Size    | 14 bytes |
| Instructions | 2        |

```
      00 01 02 03 04 05 06 07  08 09 0A 0B 0C 0D 0E 0F
      -- -- -- -- -- -- -- --  -- -- -- -- -- -- -- --
0010:    53 F8 FF FF 7F F8 FF  FF 7F 74 6C 6B 30 00      S........tlk0. 
```

#### Opcodes

```
  0: 0x0011 [0x53] WAIT_SCHEDULER_TASK: Wait for scheduler "tlk0" with entities [EventEntity, EventEntity]
  1: 0x001E [0x00] END_REQSTACK()
```

### Event 65535.3

#### Metadata

| Field        | Value    |
|--------------|----------|
| Entrypoint   | 0x001F   |
| Data Size    | 16 bytes |
| Instructions | 2        |

```
      00 01 02 03 04 05 06 07  08 09 0A 0B 0C 0D 0E 0F
      -- -- -- -- -- -- -- --  -- -- -- -- -- -- -- --
0010:                                               66                 f
0020: 00 80 F8 FF FF 7F F8 FF  FF 7F 74 6C 6B 31 00     ..........tlk1. 
```

#### Opcodes

```
  0: 0x001F [0x66] LOAD_EXT_SCHEDULER_MAIN: Load scheduler "tlk1" with entities [EventEntity, EventEntity], work=189*
  1: 0x002E [0x00] END_REQSTACK()
```

### Event 65535.4

#### Metadata

| Field        | Value    |
|--------------|----------|
| Entrypoint   | 0x002F   |
| Data Size    | 14 bytes |
| Instructions | 2        |

```
      00 01 02 03 04 05 06 07  08 09 0A 0B 0C 0D 0E 0F
      -- -- -- -- -- -- -- --  -- -- -- -- -- -- -- --
0020:                                               53                 S
0030: F8 FF FF 7F F8 FF FF 7F  74 6C 6B 31 00           ........tlk1.   
```

#### Opcodes

```
  0: 0x002F [0x53] WAIT_SCHEDULER_TASK: Wait for scheduler "tlk1" with entities [EventEntity, EventEntity]
  1: 0x003C [0x00] END_REQSTACK()
```

### Event 65535.5

#### Metadata

| Field        | Value    |
|--------------|----------|
| Entrypoint   | 0x003D   |
| Data Size    | 16 bytes |
| Instructions | 2        |

```
      00 01 02 03 04 05 06 07  08 09 0A 0B 0C 0D 0E 0F
      -- -- -- -- -- -- -- --  -- -- -- -- -- -- -- --
0030:                                         66 01 80               f..
0040: F8 FF FF 7F F8 FF FF 7F  74 6C 62 30 00           ........tlb0.   
```

#### Opcodes

```
  0: 0x003D [0x66] LOAD_EXT_SCHEDULER_MAIN: Load scheduler "tlb0" with entities [EventEntity, EventEntity], work=34*
  1: 0x004C [0x00] END_REQSTACK()
```

### Event 65535.6

#### Metadata

| Field        | Value    |
|--------------|----------|
| Entrypoint   | 0x004D   |
| Data Size    | 14 bytes |
| Instructions | 2        |

```
      00 01 02 03 04 05 06 07  08 09 0A 0B 0C 0D 0E 0F
      -- -- -- -- -- -- -- --  -- -- -- -- -- -- -- --
0040:                                         53 F8 FF               S..
0050: FF 7F F8 FF FF 7F 74 6C  62 30 00                 ......tlb0.     
```

#### Opcodes

```
  0: 0x004D [0x53] WAIT_SCHEDULER_TASK: Wait for scheduler "tlb0" with entities [EventEntity, EventEntity]
  1: 0x005A [0x00] END_REQSTACK()
```

### Event 65535.7

#### Metadata

| Field        | Value    |
|--------------|----------|
| Entrypoint   | 0x005B   |
| Data Size    | 16 bytes |
| Instructions | 2        |

```
      00 01 02 03 04 05 06 07  08 09 0A 0B 0C 0D 0E 0F
      -- -- -- -- -- -- -- --  -- -- -- -- -- -- -- --
0050:                                   66 01 80 F8 FF             f....
0060: FF 7F F8 FF FF 7F 74 6C  62 31 00                 ......tlb1.     
```

#### Opcodes

```
  0: 0x005B [0x66] LOAD_EXT_SCHEDULER_MAIN: Load scheduler "tlb1" with entities [EventEntity, EventEntity], work=34*
  1: 0x006A [0x00] END_REQSTACK()
```

### Event 65535.8

#### Metadata

| Field        | Value    |
|--------------|----------|
| Entrypoint   | 0x006B   |
| Data Size    | 14 bytes |
| Instructions | 2        |

```
      00 01 02 03 04 05 06 07  08 09 0A 0B 0C 0D 0E 0F
      -- -- -- -- -- -- -- --  -- -- -- -- -- -- -- --
0060:                                   53 F8 FF FF 7F             S....
0070: F8 FF FF 7F 74 6C 62 31  00                       ....tlb1.       
```

#### Opcodes

```
  0: 0x006B [0x53] WAIT_SCHEDULER_TASK: Wait for scheduler "tlb1" with entities [EventEntity, EventEntity]
  1: 0x0078 [0x00] END_REQSTACK()
```

### Event 65535.9

#### Metadata

| Field        | Value    |
|--------------|----------|
| Entrypoint   | 0x0079   |
| Data Size    | 16 bytes |
| Instructions | 2        |

```
      00 01 02 03 04 05 06 07  08 09 0A 0B 0C 0D 0E 0F
      -- -- -- -- -- -- -- --  -- -- -- -- -- -- -- --
0070:                             5B 02 80 F8 FF FF 7F           [......
0080: F8 FF FF 7F 74 6C 68 30  00                       ....tlh0.       
```

#### Opcodes

```
  0: 0x0079 [0x5B] LOAD_EXT_SCHEDULER: Load scheduler "tlh0" with entities [EventEntity, EventEntity], work=2053*
  1: 0x0088 [0x00] END_REQSTACK()
```

### Event 65535.10

#### Metadata

| Field        | Value    |
|--------------|----------|
| Entrypoint   | 0x0089   |
| Data Size    | 14 bytes |
| Instructions | 2        |

```
      00 01 02 03 04 05 06 07  08 09 0A 0B 0C 0D 0E 0F
      -- -- -- -- -- -- -- --  -- -- -- -- -- -- -- --
0080:                             53 F8 FF FF 7F F8 FF           S......
0090: FF 7F 74 6C 68 30 00                              ..tlh0.         
```

#### Opcodes

```
  0: 0x0089 [0x53] WAIT_SCHEDULER_TASK: Wait for scheduler "tlh0" with entities [EventEntity, EventEntity]
  1: 0x0096 [0x00] END_REQSTACK()
```

### Event 65535.11

#### Metadata

| Field        | Value    |
|--------------|----------|
| Entrypoint   | 0x0097   |
| Data Size    | 16 bytes |
| Instructions | 2        |

```
      00 01 02 03 04 05 06 07  08 09 0A 0B 0C 0D 0E 0F
      -- -- -- -- -- -- -- --  -- -- -- -- -- -- -- --
0090:                      66  03 80 F8 FF FF 7F F8 FF         f........
00A0: FF 7F 74 6C 6B 31 00                              ..tlk1.         
```

#### Opcodes

```
  0: 0x0097 [0x66] LOAD_EXT_SCHEDULER_MAIN: Load scheduler "tlk1" with entities [EventEntity, EventEntity], work=40*
  1: 0x00A6 [0x00] END_REQSTACK()
```

### Event 65535.12

#### Metadata

| Field        | Value    |
|--------------|----------|
| Entrypoint   | 0x00A7   |
| Data Size    | 14 bytes |
| Instructions | 2        |

```
      00 01 02 03 04 05 06 07  08 09 0A 0B 0C 0D 0E 0F
      -- -- -- -- -- -- -- --  -- -- -- -- -- -- -- --
00A0:                      53  F8 FF FF 7F F8 FF FF 7F         S........
00B0: 74 6C 6B 31 00                                    tlk1.           
```

#### Opcodes

```
  0: 0x00A7 [0x53] WAIT_SCHEDULER_TASK: Wait for scheduler "tlk1" with entities [EventEntity, EventEntity]
  1: 0x00B4 [0x00] END_REQSTACK()
```

### Event 65535.13

#### Metadata

| Field        | Value    |
|--------------|----------|
| Entrypoint   | 0x00B5   |
| Data Size    | 16 bytes |
| Instructions | 2        |

```
      00 01 02 03 04 05 06 07  08 09 0A 0B 0C 0D 0E 0F
      -- -- -- -- -- -- -- --  -- -- -- -- -- -- -- --
00B0:                66 04 80  F8 FF FF 7F F8 FF FF 7F       f..........
00C0: 74 68 6B 31 00                                    thk1.           
```

#### Opcodes

```
  0: 0x00B5 [0x66] LOAD_EXT_SCHEDULER_MAIN: Load scheduler "thk1" with entities [EventEntity, EventEntity], work=49*
  1: 0x00C4 [0x00] END_REQSTACK()
```

### Event 65535.14

#### Metadata

| Field        | Value    |
|--------------|----------|
| Entrypoint   | 0x00C5   |
| Data Size    | 14 bytes |
| Instructions | 2        |

```
      00 01 02 03 04 05 06 07  08 09 0A 0B 0C 0D 0E 0F
      -- -- -- -- -- -- -- --  -- -- -- -- -- -- -- --
00C0:                53 F8 FF  FF 7F F8 FF FF 7F 74 68       S........th
00D0: 6B 31 00                                          k1.             
```

#### Opcodes

```
  0: 0x00C5 [0x53] WAIT_SCHEDULER_TASK: Wait for scheduler "thk1" with entities [EventEntity, EventEntity]
  1: 0x00D2 [0x00] END_REQSTACK()
```

### Event 65535.15

#### Metadata

| Field        | Value    |
|--------------|----------|
| Entrypoint   | 0x00D3   |
| Data Size    | 16 bytes |
| Instructions | 2        |

```
      00 01 02 03 04 05 06 07  08 09 0A 0B 0C 0D 0E 0F
      -- -- -- -- -- -- -- --  -- -- -- -- -- -- -- --
00D0:          66 04 80 F8 FF  FF 7F F8 FF FF 7F 74 68     f..........th
00E0: 6B 32 00                                          k2.             
```

#### Opcodes

```
  0: 0x00D3 [0x66] LOAD_EXT_SCHEDULER_MAIN: Load scheduler "thk2" with entities [EventEntity, EventEntity], work=49*
  1: 0x00E2 [0x00] END_REQSTACK()
```

### Event 65535.16

#### Metadata

| Field        | Value    |
|--------------|----------|
| Entrypoint   | 0x00E3   |
| Data Size    | 14 bytes |
| Instructions | 2        |

```
      00 01 02 03 04 05 06 07  08 09 0A 0B 0C 0D 0E 0F
      -- -- -- -- -- -- -- --  -- -- -- -- -- -- -- --
00E0:          53 F8 FF FF 7F  F8 FF FF 7F 74 68 6B 32     S........thk2
00F0: 00                                                .               
```

#### Opcodes

```
  0: 0x00E3 [0x53] WAIT_SCHEDULER_TASK: Wait for scheduler "thk2" with entities [EventEntity, EventEntity]
  1: 0x00F0 [0x00] END_REQSTACK()
```

### Event 65535.17

#### Metadata

| Field        | Value    |
|--------------|----------|
| Entrypoint   | 0x00F1   |
| Data Size    | 16 bytes |
| Instructions | 2        |

```
      00 01 02 03 04 05 06 07  08 09 0A 0B 0C 0D 0E 0F
      -- -- -- -- -- -- -- --  -- -- -- -- -- -- -- --
00F0:    5B 05 80 F8 FF FF 7F  F8 FF FF 7F 68 69 30 33   [..........hi03
0100: 00                                                .               
```

#### Opcodes

```
  0: 0x00F1 [0x5B] LOAD_EXT_SCHEDULER: Load scheduler "hi03" with entities [EventEntity, EventEntity], work=444*
  1: 0x0100 [0x00] END_REQSTACK()
```

### Event 65535.18

#### Metadata

| Field        | Value    |
|--------------|----------|
| Entrypoint   | 0x0101   |
| Data Size    | 14 bytes |
| Instructions | 2        |

```
      00 01 02 03 04 05 06 07  08 09 0A 0B 0C 0D 0E 0F
      -- -- -- -- -- -- -- --  -- -- -- -- -- -- -- --
0100:    53 F8 FF FF 7F F8 FF  FF 7F 68 69 30 33 00      S........hi03. 
```

#### Opcodes

```
  0: 0x0101 [0x53] WAIT_SCHEDULER_TASK: Wait for scheduler "hi03" with entities [EventEntity, EventEntity]
  1: 0x010E [0x00] END_REQSTACK()
```

### Event 65535.19

#### Metadata

| Field        | Value    |
|--------------|----------|
| Entrypoint   | 0x010F   |
| Data Size    | 16 bytes |
| Instructions | 2        |

```
      00 01 02 03 04 05 06 07  08 09 0A 0B 0C 0D 0E 0F
      -- -- -- -- -- -- -- --  -- -- -- -- -- -- -- --
0100:                                               5B                 [
0110: 05 80 F8 FF FF 7F F8 FF  FF 7F 68 69 30 34 00     ..........hi04. 
```

#### Opcodes

```
  0: 0x010F [0x5B] LOAD_EXT_SCHEDULER: Load scheduler "hi04" with entities [EventEntity, EventEntity], work=444*
  1: 0x011E [0x00] END_REQSTACK()
```

### Event 65535.20

#### Metadata

| Field        | Value    |
|--------------|----------|
| Entrypoint   | 0x011F   |
| Data Size    | 14 bytes |
| Instructions | 2        |

```
      00 01 02 03 04 05 06 07  08 09 0A 0B 0C 0D 0E 0F
      -- -- -- -- -- -- -- --  -- -- -- -- -- -- -- --
0110:                                               53                 S
0120: F8 FF FF 7F F8 FF FF 7F  68 69 30 34 00           ........hi04.   
```

#### Opcodes

```
  0: 0x011F [0x53] WAIT_SCHEDULER_TASK: Wait for scheduler "hi04" with entities [EventEntity, EventEntity]
  1: 0x012C [0x00] END_REQSTACK()
```

### Event 65535.21

#### Metadata

| Field        | Value    |
|--------------|----------|
| Entrypoint   | 0x012D   |
| Data Size    | 16 bytes |
| Instructions | 2        |

```
      00 01 02 03 04 05 06 07  08 09 0A 0B 0C 0D 0E 0F
      -- -- -- -- -- -- -- --  -- -- -- -- -- -- -- --
0120:                                         5B 06 80               [..
0130: F8 FF FF 7F F8 FF FF 7F  67 65 6E 30 00           ........gen0.   
```

#### Opcodes

```
  0: 0x012D [0x5B] LOAD_EXT_SCHEDULER: Load scheduler "gen0" with entities [EventEntity, EventEntity], work=1373*
  1: 0x013C [0x00] END_REQSTACK()
```

### Event 65535.22

#### Metadata

| Field        | Value    |
|--------------|----------|
| Entrypoint   | 0x013D   |
| Data Size    | 14 bytes |
| Instructions | 2        |

```
      00 01 02 03 04 05 06 07  08 09 0A 0B 0C 0D 0E 0F
      -- -- -- -- -- -- -- --  -- -- -- -- -- -- -- --
0130:                                         53 F8 FF               S..
0140: FF 7F F8 FF FF 7F 67 65  6E 30 00                 ......gen0.     
```

#### Opcodes

```
  0: 0x013D [0x53] WAIT_SCHEDULER_TASK: Wait for scheduler "gen0" with entities [EventEntity, EventEntity]
  1: 0x014A [0x00] END_REQSTACK()
```

### Event 65535.23

#### Metadata

| Field        | Value    |
|--------------|----------|
| Entrypoint   | 0x014B   |
| Data Size    | 16 bytes |
| Instructions | 2        |

```
      00 01 02 03 04 05 06 07  08 09 0A 0B 0C 0D 0E 0F
      -- -- -- -- -- -- -- --  -- -- -- -- -- -- -- --
0140:                                   5B 06 80 F8 FF             [....
0150: FF 7F F8 FF FF 7F 67 75  64 30 00                 ......gud0.     
```

#### Opcodes

```
  0: 0x014B [0x5B] LOAD_EXT_SCHEDULER: Load scheduler "gud0" with entities [EventEntity, EventEntity], work=1373*
  1: 0x015A [0x00] END_REQSTACK()
```

### Event 65535.24

#### Metadata

| Field        | Value    |
|--------------|----------|
| Entrypoint   | 0x015B   |
| Data Size    | 14 bytes |
| Instructions | 2        |

```
      00 01 02 03 04 05 06 07  08 09 0A 0B 0C 0D 0E 0F
      -- -- -- -- -- -- -- --  -- -- -- -- -- -- -- --
0150:                                   53 F8 FF FF 7F             S....
0160: F8 FF FF 7F 67 75 64 30  00                       ....gud0.       
```

#### Opcodes

```
  0: 0x015B [0x53] WAIT_SCHEDULER_TASK: Wait for scheduler "gud0" with entities [EventEntity, EventEntity]
  1: 0x0168 [0x00] END_REQSTACK()
```

### Event 65535.25

#### Metadata

| Field        | Value    |
|--------------|----------|
| Entrypoint   | 0x0169   |
| Data Size    | 16 bytes |
| Instructions | 2        |

```
      00 01 02 03 04 05 06 07  08 09 0A 0B 0C 0D 0E 0F
      -- -- -- -- -- -- -- --  -- -- -- -- -- -- -- --
0160:                             5B 06 80 F8 FF FF 7F           [......
0170: F8 FF FF 7F 67 75 64 31  00                       ....gud1.       
```

#### Opcodes

```
  0: 0x0169 [0x5B] LOAD_EXT_SCHEDULER: Load scheduler "gud1" with entities [EventEntity, EventEntity], work=1373*
  1: 0x0178 [0x00] END_REQSTACK()
```

### Event 65535.26

#### Metadata

| Field        | Value    |
|--------------|----------|
| Entrypoint   | 0x0179   |
| Data Size    | 14 bytes |
| Instructions | 2        |

```
      00 01 02 03 04 05 06 07  08 09 0A 0B 0C 0D 0E 0F
      -- -- -- -- -- -- -- --  -- -- -- -- -- -- -- --
0170:                             53 F8 FF FF 7F F8 FF           S......
0180: FF 7F 67 75 64 31 00                              ..gud1.         
```

#### Opcodes

```
  0: 0x0179 [0x53] WAIT_SCHEDULER_TASK: Wait for scheduler "gud1" with entities [EventEntity, EventEntity]
  1: 0x0186 [0x00] END_REQSTACK()
```

### Event 65535.27

#### Metadata

| Field        | Value    |
|--------------|----------|
| Entrypoint   | 0x0187   |
| Data Size    | 16 bytes |
| Instructions | 2        |

```
      00 01 02 03 04 05 06 07  08 09 0A 0B 0C 0D 0E 0F
      -- -- -- -- -- -- -- --  -- -- -- -- -- -- -- --
0180:                      5B  06 80 F8 FF FF 7F F8 FF         [........
0190: FF 7F 67 61 68 32 00                              ..gah2.         
```

#### Opcodes

```
  0: 0x0187 [0x5B] LOAD_EXT_SCHEDULER: Load scheduler "gah2" with entities [EventEntity, EventEntity], work=1373*
  1: 0x0196 [0x00] END_REQSTACK()
```

### Event 65535.28

#### Metadata

| Field        | Value    |
|--------------|----------|
| Entrypoint   | 0x0197   |
| Data Size    | 14 bytes |
| Instructions | 2        |

```
      00 01 02 03 04 05 06 07  08 09 0A 0B 0C 0D 0E 0F
      -- -- -- -- -- -- -- --  -- -- -- -- -- -- -- --
0190:                      53  F8 FF FF 7F F8 FF FF 7F         S........
01A0: 67 61 68 32 00                                    gah2.           
```

#### Opcodes

```
  0: 0x0197 [0x53] WAIT_SCHEDULER_TASK: Wait for scheduler "gah2" with entities [EventEntity, EventEntity]
  1: 0x01A4 [0x00] END_REQSTACK()
```

### Event 65535.29

#### Metadata

| Field        | Value    |
|--------------|----------|
| Entrypoint   | 0x01A5   |
| Data Size    | 16 bytes |
| Instructions | 2        |

```
      00 01 02 03 04 05 06 07  08 09 0A 0B 0C 0D 0E 0F
      -- -- -- -- -- -- -- --  -- -- -- -- -- -- -- --
01A0:                5B 07 80  F8 FF FF 7F F8 FF FF 7F       [..........
01B0: 79 65 73 61 00                                    yesa.           
```

#### Opcodes

```
  0: 0x01A5 [0x5B] LOAD_EXT_SCHEDULER: Load scheduler "yesa" with entities [EventEntity, EventEntity], work=1375*
  1: 0x01B4 [0x00] END_REQSTACK()
```

### Event 65535.30

#### Metadata

| Field        | Value    |
|--------------|----------|
| Entrypoint   | 0x01B5   |
| Data Size    | 14 bytes |
| Instructions | 2        |

```
      00 01 02 03 04 05 06 07  08 09 0A 0B 0C 0D 0E 0F
      -- -- -- -- -- -- -- --  -- -- -- -- -- -- -- --
01B0:                53 F8 FF  FF 7F F8 FF FF 7F 79 65       S........ye
01C0: 73 61 00                                          sa.             
```

#### Opcodes

```
  0: 0x01B5 [0x53] WAIT_SCHEDULER_TASK: Wait for scheduler "yesa" with entities [EventEntity, EventEntity]
  1: 0x01C2 [0x00] END_REQSTACK()
```

### Event 65535.31

#### Metadata

| Field        | Value    |
|--------------|----------|
| Entrypoint   | 0x01C3   |
| Data Size    | 16 bytes |
| Instructions | 2        |

```
      00 01 02 03 04 05 06 07  08 09 0A 0B 0C 0D 0E 0F
      -- -- -- -- -- -- -- --  -- -- -- -- -- -- -- --
01C0:          5B 08 80 F8 FF  FF 7F F8 FF FF 7F 68 6E     [..........hn
01D0: 65 30 00                                          e0.             
```

#### Opcodes

```
  0: 0x01C3 [0x5B] LOAD_EXT_SCHEDULER: Load scheduler "hne0" with entities [EventEntity, EventEntity], work=1376*
  1: 0x01D2 [0x00] END_REQSTACK()
```

### Event 65535.32

#### Metadata

| Field        | Value    |
|--------------|----------|
| Entrypoint   | 0x01D3   |
| Data Size    | 14 bytes |
| Instructions | 2        |

```
      00 01 02 03 04 05 06 07  08 09 0A 0B 0C 0D 0E 0F
      -- -- -- -- -- -- -- --  -- -- -- -- -- -- -- --
01D0:          53 F8 FF FF 7F  F8 FF FF 7F 68 6E 65 30     S........hne0
01E0: 00                                                .               
```

#### Opcodes

```
  0: 0x01D3 [0x53] WAIT_SCHEDULER_TASK: Wait for scheduler "hne0" with entities [EventEntity, EventEntity]
  1: 0x01E0 [0x00] END_REQSTACK()
```

### Event 65535.33

#### Metadata

| Field        | Value    |
|--------------|----------|
| Entrypoint   | 0x01E1   |
| Data Size    | 16 bytes |
| Instructions | 2        |

```
      00 01 02 03 04 05 06 07  08 09 0A 0B 0C 0D 0E 0F
      -- -- -- -- -- -- -- --  -- -- -- -- -- -- -- --
01E0:    5B 09 80 F8 FF FF 7F  F8 FF FF 7F 6B 73 68 30   [..........ksh0
01F0: 00                                                .               
```

#### Opcodes

```
  0: 0x01E1 [0x5B] LOAD_EXT_SCHEDULER: Load scheduler "ksh0" with entities [EventEntity, EventEntity], work=2049*
  1: 0x01F0 [0x00] END_REQSTACK()
```

### Event 65535.34

#### Metadata

| Field        | Value    |
|--------------|----------|
| Entrypoint   | 0x01F1   |
| Data Size    | 14 bytes |
| Instructions | 2        |

```
      00 01 02 03 04 05 06 07  08 09 0A 0B 0C 0D 0E 0F
      -- -- -- -- -- -- -- --  -- -- -- -- -- -- -- --
01F0:    53 F8 FF FF 7F F8 FF  FF 7F 6B 73 68 30 00      S........ksh0. 
```

#### Opcodes

```
  0: 0x01F1 [0x53] WAIT_SCHEDULER_TASK: Wait for scheduler "ksh0" with entities [EventEntity, EventEntity]
  1: 0x01FE [0x00] END_REQSTACK()
```

### Event 65535.35

#### Metadata

| Field        | Value    |
|--------------|----------|
| Entrypoint   | 0x01FF   |
| Data Size    | 16 bytes |
| Instructions | 2        |

```
      00 01 02 03 04 05 06 07  08 09 0A 0B 0C 0D 0E 0F
      -- -- -- -- -- -- -- --  -- -- -- -- -- -- -- --
01F0:                                               5B                 [
0200: 09 80 F8 FF FF 7F F8 FF  FF 7F 68 6F 75 30 00     ..........hou0. 
```

#### Opcodes

```
  0: 0x01FF [0x5B] LOAD_EXT_SCHEDULER: Load scheduler "hou0" with entities [EventEntity, EventEntity], work=2049*
  1: 0x020E [0x00] END_REQSTACK()
```

### Event 65535.36

#### Metadata

| Field        | Value    |
|--------------|----------|
| Entrypoint   | 0x020F   |
| Data Size    | 14 bytes |
| Instructions | 2        |

```
      00 01 02 03 04 05 06 07  08 09 0A 0B 0C 0D 0E 0F
      -- -- -- -- -- -- -- --  -- -- -- -- -- -- -- --
0200:                                               53                 S
0210: F8 FF FF 7F F8 FF FF 7F  68 6F 75 30 00           ........hou0.   
```

#### Opcodes

```
  0: 0x020F [0x53] WAIT_SCHEDULER_TASK: Wait for scheduler "hou0" with entities [EventEntity, EventEntity]
  1: 0x021C [0x00] END_REQSTACK()
```

### Event 65535.37

#### Metadata

| Field        | Value    |
|--------------|----------|
| Entrypoint   | 0x021D   |
| Data Size    | 16 bytes |
| Instructions | 2        |

```
      00 01 02 03 04 05 06 07  08 09 0A 0B 0C 0D 0E 0F
      -- -- -- -- -- -- -- --  -- -- -- -- -- -- -- --
0210:                                         5B 09 80               [..
0220: F8 FF FF 7F F8 FF FF 7F  68 6F 75 31 00           ........hou1.   
```

#### Opcodes

```
  0: 0x021D [0x5B] LOAD_EXT_SCHEDULER: Load scheduler "hou1" with entities [EventEntity, EventEntity], work=2049*
  1: 0x022C [0x00] END_REQSTACK()
```

### Event 65535.38

#### Metadata

| Field        | Value    |
|--------------|----------|
| Entrypoint   | 0x022D   |
| Data Size    | 14 bytes |
| Instructions | 2        |

```
      00 01 02 03 04 05 06 07  08 09 0A 0B 0C 0D 0E 0F
      -- -- -- -- -- -- -- --  -- -- -- -- -- -- -- --
0220:                                         53 F8 FF               S..
0230: FF 7F F8 FF FF 7F 68 6F  75 31 00                 ......hou1.     
```

#### Opcodes

```
  0: 0x022D [0x53] WAIT_SCHEDULER_TASK: Wait for scheduler "hou1" with entities [EventEntity, EventEntity]
  1: 0x023A [0x00] END_REQSTACK()
```

### Event 65535.39

#### Metadata

| Field        | Value    |
|--------------|----------|
| Entrypoint   | 0x023B   |
| Data Size    | 16 bytes |
| Instructions | 2        |

```
      00 01 02 03 04 05 06 07  08 09 0A 0B 0C 0D 0E 0F
      -- -- -- -- -- -- -- --  -- -- -- -- -- -- -- --
0230:                                   5B 09 80 F8 FF             [....
0240: FF 7F F8 FF FF 7F 68 6F  75 32 00                 ......hou2.     
```

#### Opcodes

```
  0: 0x023B [0x5B] LOAD_EXT_SCHEDULER: Load scheduler "hou2" with entities [EventEntity, EventEntity], work=2049*
  1: 0x024A [0x00] END_REQSTACK()
```

### Event 65535.40

#### Metadata

| Field        | Value    |
|--------------|----------|
| Entrypoint   | 0x024B   |
| Data Size    | 14 bytes |
| Instructions | 2        |

```
      00 01 02 03 04 05 06 07  08 09 0A 0B 0C 0D 0E 0F
      -- -- -- -- -- -- -- --  -- -- -- -- -- -- -- --
0240:                                   53 F8 FF FF 7F             S....
0250: F8 FF FF 7F 68 6F 75 31  00                       ....hou1.       
```

#### Opcodes

```
  0: 0x024B [0x53] WAIT_SCHEDULER_TASK: Wait for scheduler "hou1" with entities [EventEntity, EventEntity]
  1: 0x0258 [0x00] END_REQSTACK()
```

### Event 65535.41

#### Metadata

| Field        | Value    |
|--------------|----------|
| Entrypoint   | 0x0259   |
| Data Size    | 16 bytes |
| Instructions | 2        |

```
      00 01 02 03 04 05 06 07  08 09 0A 0B 0C 0D 0E 0F
      -- -- -- -- -- -- -- --  -- -- -- -- -- -- -- --
0250:                             5B 0A 80 F8 FF FF 7F           [......
0260: F8 FF FF 7F 68 69 7A 30  00                       ....hiz0.       
```

#### Opcodes

```
  0: 0x0259 [0x5B] LOAD_EXT_SCHEDULER: Load scheduler "hiz0" with entities [EventEntity, EventEntity], work=2052*
  1: 0x0268 [0x00] END_REQSTACK()
```

### Event 65535.42

#### Metadata

| Field        | Value    |
|--------------|----------|
| Entrypoint   | 0x0269   |
| Data Size    | 14 bytes |
| Instructions | 2        |

```
      00 01 02 03 04 05 06 07  08 09 0A 0B 0C 0D 0E 0F
      -- -- -- -- -- -- -- --  -- -- -- -- -- -- -- --
0260:                             53 F8 FF FF 7F F8 FF           S......
0270: FF 7F 68 69 7A 30 00                              ..hiz0.         
```

#### Opcodes

```
  0: 0x0269 [0x53] WAIT_SCHEDULER_TASK: Wait for scheduler "hiz0" with entities [EventEntity, EventEntity]
  1: 0x0276 [0x00] END_REQSTACK()
```

### Event 65535.43

#### Metadata

| Field        | Value    |
|--------------|----------|
| Entrypoint   | 0x0277   |
| Data Size    | 16 bytes |
| Instructions | 2        |

```
      00 01 02 03 04 05 06 07  08 09 0A 0B 0C 0D 0E 0F
      -- -- -- -- -- -- -- --  -- -- -- -- -- -- -- --
0270:                      5B  0A 80 F8 FF FF 7F F8 FF         [........
0280: FF 7F 68 69 7A 31 00                              ..hiz1.         
```

#### Opcodes

```
  0: 0x0277 [0x5B] LOAD_EXT_SCHEDULER: Load scheduler "hiz1" with entities [EventEntity, EventEntity], work=2052*
  1: 0x0286 [0x00] END_REQSTACK()
```

### Event 65535.44

#### Metadata

| Field        | Value    |
|--------------|----------|
| Entrypoint   | 0x0287   |
| Data Size    | 14 bytes |
| Instructions | 2        |

```
      00 01 02 03 04 05 06 07  08 09 0A 0B 0C 0D 0E 0F
      -- -- -- -- -- -- -- --  -- -- -- -- -- -- -- --
0280:                      53  F8 FF FF 7F F8 FF FF 7F         S........
0290: 68 69 7A 31 00                                    hiz1.           
```

#### Opcodes

```
  0: 0x0287 [0x53] WAIT_SCHEDULER_TASK: Wait for scheduler "hiz1" with entities [EventEntity, EventEntity]
  1: 0x0294 [0x00] END_REQSTACK()
```

### Event 65535.45

#### Metadata

| Field        | Value    |
|--------------|----------|
| Entrypoint   | 0x0295   |
| Data Size    | 16 bytes |
| Instructions | 2        |

```
      00 01 02 03 04 05 06 07  08 09 0A 0B 0C 0D 0E 0F
      -- -- -- -- -- -- -- --  -- -- -- -- -- -- -- --
0290:                5B 02 80  F8 FF FF 7F F8 FF FF 7F       [..........
02A0: 74 6C 72 30 00                                    tlr0.           
```

#### Opcodes

```
  0: 0x0295 [0x5B] LOAD_EXT_SCHEDULER: Load scheduler "tlr0" with entities [EventEntity, EventEntity], work=2053*
  1: 0x02A4 [0x00] END_REQSTACK()
```

### Event 65535.46

#### Metadata

| Field        | Value    |
|--------------|----------|
| Entrypoint   | 0x02A5   |
| Data Size    | 14 bytes |
| Instructions | 2        |

```
      00 01 02 03 04 05 06 07  08 09 0A 0B 0C 0D 0E 0F
      -- -- -- -- -- -- -- --  -- -- -- -- -- -- -- --
02A0:                53 F8 FF  FF 7F F8 FF FF 7F 74 6C       S........tl
02B0: 72 30 00                                          r0.             
```

#### Opcodes

```
  0: 0x02A5 [0x53] WAIT_SCHEDULER_TASK: Wait for scheduler "tlr0" with entities [EventEntity, EventEntity]
  1: 0x02B2 [0x00] END_REQSTACK()
```

### Event 65535.47

#### Metadata

| Field        | Value    |
|--------------|----------|
| Entrypoint   | 0x02B3   |
| Data Size    | 16 bytes |
| Instructions | 2        |

```
      00 01 02 03 04 05 06 07  08 09 0A 0B 0C 0D 0E 0F
      -- -- -- -- -- -- -- --  -- -- -- -- -- -- -- --
02B0:          5B 0B 80 F8 FF  FF 7F F8 FF FF 7F 65 69     [..........ei
02C0: 73 30 00                                          s0.             
```

#### Opcodes

```
  0: 0x02B3 [0x5B] LOAD_EXT_SCHEDULER: Load scheduler "eis0" with entities [EventEntity, EventEntity], work=2054*
  1: 0x02C2 [0x00] END_REQSTACK()
```

### Event 65535.48

#### Metadata

| Field        | Value    |
|--------------|----------|
| Entrypoint   | 0x02C3   |
| Data Size    | 14 bytes |
| Instructions | 2        |

```
      00 01 02 03 04 05 06 07  08 09 0A 0B 0C 0D 0E 0F
      -- -- -- -- -- -- -- --  -- -- -- -- -- -- -- --
02C0:          53 F8 FF FF 7F  F8 FF FF 7F 65 69 73 30     S........eis0
02D0: 00                                                .               
```

#### Opcodes

```
  0: 0x02C3 [0x53] WAIT_SCHEDULER_TASK: Wait for scheduler "eis0" with entities [EventEntity, EventEntity]
  1: 0x02D0 [0x00] END_REQSTACK()
```

### Event 65535.49

#### Metadata

| Field        | Value    |
|--------------|----------|
| Entrypoint   | 0x02D1   |
| Data Size    | 16 bytes |
| Instructions | 2        |

```
      00 01 02 03 04 05 06 07  08 09 0A 0B 0C 0D 0E 0F
      -- -- -- -- -- -- -- --  -- -- -- -- -- -- -- --
02D0:    5B 0B 80 F8 FF FF 7F  F8 FF FF 7F 65 69 73 31   [..........eis1
02E0: 00                                                .               
```

#### Opcodes

```
  0: 0x02D1 [0x5B] LOAD_EXT_SCHEDULER: Load scheduler "eis1" with entities [EventEntity, EventEntity], work=2054*
  1: 0x02E0 [0x00] END_REQSTACK()
```

### Event 65535.50

#### Metadata

| Field        | Value    |
|--------------|----------|
| Entrypoint   | 0x02E1   |
| Data Size    | 14 bytes |
| Instructions | 2        |

```
      00 01 02 03 04 05 06 07  08 09 0A 0B 0C 0D 0E 0F
      -- -- -- -- -- -- -- --  -- -- -- -- -- -- -- --
02E0:    53 F8 FF FF 7F F8 FF  FF 7F 65 69 73 31 00      S........eis1. 
```

#### Opcodes

```
  0: 0x02E1 [0x53] WAIT_SCHEDULER_TASK: Wait for scheduler "eis1" with entities [EventEntity, EventEntity]
  1: 0x02EE [0x00] END_REQSTACK()
```

### Event 65535.51

#### Metadata

| Field        | Value    |
|--------------|----------|
| Entrypoint   | 0x02EF   |
| Data Size    | 16 bytes |
| Instructions | 2        |

```
      00 01 02 03 04 05 06 07  08 09 0A 0B 0C 0D 0E 0F
      -- -- -- -- -- -- -- --  -- -- -- -- -- -- -- --
02E0:                                               5B                 [
02F0: 0B 80 F8 FF FF 7F F8 FF  FF 7F 65 69 73 32 00     ..........eis2. 
```

#### Opcodes

```
  0: 0x02EF [0x5B] LOAD_EXT_SCHEDULER: Load scheduler "eis2" with entities [EventEntity, EventEntity], work=2054*
  1: 0x02FE [0x00] END_REQSTACK()
```

### Event 65535.52

#### Metadata

| Field        | Value    |
|--------------|----------|
| Entrypoint   | 0x02FF   |
| Data Size    | 14 bytes |
| Instructions | 2        |

```
      00 01 02 03 04 05 06 07  08 09 0A 0B 0C 0D 0E 0F
      -- -- -- -- -- -- -- --  -- -- -- -- -- -- -- --
02F0:                                               53                 S
0300: F8 FF FF 7F F8 FF FF 7F  65 69 73 32 00           ........eis2.   
```

#### Opcodes

```
  0: 0x02FF [0x53] WAIT_SCHEDULER_TASK: Wait for scheduler "eis2" with entities [EventEntity, EventEntity]
  1: 0x030C [0x00] END_REQSTACK()
```

### Event 65535.53

#### Metadata

| Field        | Value    |
|--------------|----------|
| Entrypoint   | 0x030D   |
| Data Size    | 16 bytes |
| Instructions | 2        |

```
      00 01 02 03 04 05 06 07  08 09 0A 0B 0C 0D 0E 0F
      -- -- -- -- -- -- -- --  -- -- -- -- -- -- -- --
0300:                                         5B 0B 80               [..
0310: F8 FF FF 7F F8 FF FF 7F  65 69 73 33 00           ........eis3.   
```

#### Opcodes

```
  0: 0x030D [0x5B] LOAD_EXT_SCHEDULER: Load scheduler "eis3" with entities [EventEntity, EventEntity], work=2054*
  1: 0x031C [0x00] END_REQSTACK()
```

### Event 65535.54

#### Metadata

| Field        | Value    |
|--------------|----------|
| Entrypoint   | 0x031D   |
| Data Size    | 14 bytes |
| Instructions | 2        |

```
      00 01 02 03 04 05 06 07  08 09 0A 0B 0C 0D 0E 0F
      -- -- -- -- -- -- -- --  -- -- -- -- -- -- -- --
0310:                                         53 F8 FF               S..
0320: FF 7F F8 FF FF 7F 65 69  73 33 00                 ......eis3.     
```

#### Opcodes

```
  0: 0x031D [0x53] WAIT_SCHEDULER_TASK: Wait for scheduler "eis3" with entities [EventEntity, EventEntity]
  1: 0x032A [0x00] END_REQSTACK()
```

### Event 65535.55

#### Metadata

| Field        | Value    |
|--------------|----------|
| Entrypoint   | 0x032B   |
| Data Size    | 16 bytes |
| Instructions | 2        |

```
      00 01 02 03 04 05 06 07  08 09 0A 0B 0C 0D 0E 0F
      -- -- -- -- -- -- -- --  -- -- -- -- -- -- -- --
0320:                                   5B 0B 80 F8 FF             [....
0330: FF 7F F8 FF FF 7F 65 69  73 34 00                 ......eis4.     
```

#### Opcodes

```
  0: 0x032B [0x5B] LOAD_EXT_SCHEDULER: Load scheduler "eis4" with entities [EventEntity, EventEntity], work=2054*
  1: 0x033A [0x00] END_REQSTACK()
```

### Event 65535.56

#### Metadata

| Field        | Value    |
|--------------|----------|
| Entrypoint   | 0x033B   |
| Data Size    | 14 bytes |
| Instructions | 2        |

```
      00 01 02 03 04 05 06 07  08 09 0A 0B 0C 0D 0E 0F
      -- -- -- -- -- -- -- --  -- -- -- -- -- -- -- --
0330:                                   53 F8 FF FF 7F             S....
0340: F8 FF FF 7F 65 69 73 34  00                       ....eis4.       
```

#### Opcodes

```
  0: 0x033B [0x53] WAIT_SCHEDULER_TASK: Wait for scheduler "eis4" with entities [EventEntity, EventEntity]
  1: 0x0348 [0x00] END_REQSTACK()
```

### Event 65535.57

#### Metadata

| Field        | Value    |
|--------------|----------|
| Entrypoint   | 0x0349   |
| Data Size    | 16 bytes |
| Instructions | 2        |

```
      00 01 02 03 04 05 06 07  08 09 0A 0B 0C 0D 0E 0F
      -- -- -- -- -- -- -- --  -- -- -- -- -- -- -- --
0340:                             5B 0C 80 F8 FF FF 7F           [......
0350: F8 FF FF 7F 32 73 74 30  00                       ....2st0.       
```

#### Opcodes

```
  0: 0x0349 [0x5B] LOAD_EXT_SCHEDULER: Load scheduler "2st0" with entities [EventEntity, EventEntity], work=1372*
  1: 0x0358 [0x00] END_REQSTACK()
```

### Event 65535.58

#### Metadata

| Field        | Value    |
|--------------|----------|
| Entrypoint   | 0x0359   |
| Data Size    | 14 bytes |
| Instructions | 2        |

```
      00 01 02 03 04 05 06 07  08 09 0A 0B 0C 0D 0E 0F
      -- -- -- -- -- -- -- --  -- -- -- -- -- -- -- --
0350:                             53 F8 FF FF 7F F8 FF           S......
0360: FF 7F 32 73 74 30 00                              ..2st0.         
```

#### Opcodes

```
  0: 0x0359 [0x53] WAIT_SCHEDULER_TASK: Wait for scheduler "2st0" with entities [EventEntity, EventEntity]
  1: 0x0366 [0x00] END_REQSTACK()
```

### Event 65535.59

#### Metadata

| Field        | Value    |
|--------------|----------|
| Entrypoint   | 0x0367   |
| Data Size    | 16 bytes |
| Instructions | 2        |

```
      00 01 02 03 04 05 06 07  08 09 0A 0B 0C 0D 0E 0F
      -- -- -- -- -- -- -- --  -- -- -- -- -- -- -- --
0360:                      5B  0C 80 F8 FF FF 7F F8 FF         [........
0370: FF 7F 32 73 74 31 00                              ..2st1.         
```

#### Opcodes

```
  0: 0x0367 [0x5B] LOAD_EXT_SCHEDULER: Load scheduler "2st1" with entities [EventEntity, EventEntity], work=1372*
  1: 0x0376 [0x00] END_REQSTACK()
```

### Event 65535.60

#### Metadata

| Field        | Value    |
|--------------|----------|
| Entrypoint   | 0x0377   |
| Data Size    | 14 bytes |
| Instructions | 2        |

```
      00 01 02 03 04 05 06 07  08 09 0A 0B 0C 0D 0E 0F
      -- -- -- -- -- -- -- --  -- -- -- -- -- -- -- --
0370:                      53  F8 FF FF 7F F8 FF FF 7F         S........
0380: 32 73 74 31 00                                    2st1.           
```

#### Opcodes

```
  0: 0x0377 [0x53] WAIT_SCHEDULER_TASK: Wait for scheduler "2st1" with entities [EventEntity, EventEntity]
  1: 0x0384 [0x00] END_REQSTACK()
```

### Event 65535.61

#### Metadata

| Field        | Value    |
|--------------|----------|
| Entrypoint   | 0x0385   |
| Data Size    | 16 bytes |
| Instructions | 2        |

```
      00 01 02 03 04 05 06 07  08 09 0A 0B 0C 0D 0E 0F
      -- -- -- -- -- -- -- --  -- -- -- -- -- -- -- --
0380:                5B 0D 80  F8 FF FF 7F F8 FF FF 7F       [..........
0390: 6B 72 61 30 00                                    kra0.           
```

#### Opcodes

```
  0: 0x0385 [0x5B] LOAD_EXT_SCHEDULER: Load scheduler "kra0" with entities [EventEntity, EventEntity], work=2056*
  1: 0x0394 [0x00] END_REQSTACK()
```

### Event 65535.62

#### Metadata

| Field        | Value    |
|--------------|----------|
| Entrypoint   | 0x0395   |
| Data Size    | 14 bytes |
| Instructions | 2        |

```
      00 01 02 03 04 05 06 07  08 09 0A 0B 0C 0D 0E 0F
      -- -- -- -- -- -- -- --  -- -- -- -- -- -- -- --
0390:                53 F8 FF  FF 7F F8 FF FF 7F 6B 72       S........kr
03A0: 61 30 00                                          a0.             
```

#### Opcodes

```
  0: 0x0395 [0x53] WAIT_SCHEDULER_TASK: Wait for scheduler "kra0" with entities [EventEntity, EventEntity]
  1: 0x03A2 [0x00] END_REQSTACK()
```

### Event 65535.63

#### Metadata

| Field        | Value    |
|--------------|----------|
| Entrypoint   | 0x03A3   |
| Data Size    | 16 bytes |
| Instructions | 2        |

```
      00 01 02 03 04 05 06 07  08 09 0A 0B 0C 0D 0E 0F
      -- -- -- -- -- -- -- --  -- -- -- -- -- -- -- --
03A0:          5B 0D 80 F8 FF  FF 7F F8 FF FF 7F 6B 72     [..........kr
03B0: 61 31 00                                          a1.             
```

#### Opcodes

```
  0: 0x03A3 [0x5B] LOAD_EXT_SCHEDULER: Load scheduler "kra1" with entities [EventEntity, EventEntity], work=2056*
  1: 0x03B2 [0x00] END_REQSTACK()
```

### Event 65535.64

#### Metadata

| Field        | Value    |
|--------------|----------|
| Entrypoint   | 0x03B3   |
| Data Size    | 14 bytes |
| Instructions | 2        |

```
      00 01 02 03 04 05 06 07  08 09 0A 0B 0C 0D 0E 0F
      -- -- -- -- -- -- -- --  -- -- -- -- -- -- -- --
03B0:          53 F8 FF FF 7F  F8 FF FF 7F 6B 72 61 31     S........kra1
03C0: 00                                                .               
```

#### Opcodes

```
  0: 0x03B3 [0x53] WAIT_SCHEDULER_TASK: Wait for scheduler "kra1" with entities [EventEntity, EventEntity]
  1: 0x03C0 [0x00] END_REQSTACK()
```

### Event 65535.65

#### Metadata

| Field        | Value    |
|--------------|----------|
| Entrypoint   | 0x03C1   |
| Data Size    | 16 bytes |
| Instructions | 2        |

```
      00 01 02 03 04 05 06 07  08 09 0A 0B 0C 0D 0E 0F
      -- -- -- -- -- -- -- --  -- -- -- -- -- -- -- --
03C0:    5B 0D 80 F8 FF FF 7F  F8 FF FF 7F 6B 72 61 6C   [..........kral
03D0: 00                                                .               
```

#### Opcodes

```
  0: 0x03C1 [0x5B] LOAD_EXT_SCHEDULER: Load scheduler "kral" with entities [EventEntity, EventEntity], work=2056*
  1: 0x03D0 [0x00] END_REQSTACK()
```

### Event 65535.66

#### Metadata

| Field        | Value    |
|--------------|----------|
| Entrypoint   | 0x03D1   |
| Data Size    | 14 bytes |
| Instructions | 2        |

```
      00 01 02 03 04 05 06 07  08 09 0A 0B 0C 0D 0E 0F
      -- -- -- -- -- -- -- --  -- -- -- -- -- -- -- --
03D0:    53 F8 FF FF 7F F8 FF  FF 7F 6B 72 62 6C 00      S........krbl. 
```

#### Opcodes

```
  0: 0x03D1 [0x53] WAIT_SCHEDULER_TASK: Wait for scheduler "krbl" with entities [EventEntity, EventEntity]
  1: 0x03DE [0x00] END_REQSTACK()
```

### Event 65535.67

#### Metadata

| Field        | Value    |
|--------------|----------|
| Entrypoint   | 0x03DF   |
| Data Size    | 16 bytes |
| Instructions | 2        |

```
      00 01 02 03 04 05 06 07  08 09 0A 0B 0C 0D 0E 0F
      -- -- -- -- -- -- -- --  -- -- -- -- -- -- -- --
03D0:                                               5B                 [
03E0: 0D 80 F8 FF FF 7F F8 FF  FF 7F 6B 72 62 30 00     ..........krb0. 
```

#### Opcodes

```
  0: 0x03DF [0x5B] LOAD_EXT_SCHEDULER: Load scheduler "krb0" with entities [EventEntity, EventEntity], work=2056*
  1: 0x03EE [0x00] END_REQSTACK()
```

### Event 65535.68

#### Metadata

| Field        | Value    |
|--------------|----------|
| Entrypoint   | 0x03EF   |
| Data Size    | 14 bytes |
| Instructions | 2        |

```
      00 01 02 03 04 05 06 07  08 09 0A 0B 0C 0D 0E 0F
      -- -- -- -- -- -- -- --  -- -- -- -- -- -- -- --
03E0:                                               53                 S
03F0: F8 FF FF 7F F8 FF FF 7F  6B 72 62 30 00           ........krb0.   
```

#### Opcodes

```
  0: 0x03EF [0x53] WAIT_SCHEDULER_TASK: Wait for scheduler "krb0" with entities [EventEntity, EventEntity]
  1: 0x03FC [0x00] END_REQSTACK()
```

### Event 65535.69

#### Metadata

| Field        | Value    |
|--------------|----------|
| Entrypoint   | 0x03FD   |
| Data Size    | 16 bytes |
| Instructions | 2        |

```
      00 01 02 03 04 05 06 07  08 09 0A 0B 0C 0D 0E 0F
      -- -- -- -- -- -- -- --  -- -- -- -- -- -- -- --
03F0:                                         5B 0D 80               [..
0400: F8 FF FF 7F F8 FF FF 7F  6B 72 62 31 00           ........krb1.   
```

#### Opcodes

```
  0: 0x03FD [0x5B] LOAD_EXT_SCHEDULER: Load scheduler "krb1" with entities [EventEntity, EventEntity], work=2056*
  1: 0x040C [0x00] END_REQSTACK()
```

### Event 65535.70

#### Metadata

| Field        | Value    |
|--------------|----------|
| Entrypoint   | 0x040D   |
| Data Size    | 14 bytes |
| Instructions | 2        |

```
      00 01 02 03 04 05 06 07  08 09 0A 0B 0C 0D 0E 0F
      -- -- -- -- -- -- -- --  -- -- -- -- -- -- -- --
0400:                                         53 F8 FF               S..
0410: FF 7F F8 FF FF 7F 6B 72  62 31 00                 ......krb1.     
```

#### Opcodes

```
  0: 0x040D [0x53] WAIT_SCHEDULER_TASK: Wait for scheduler "krb1" with entities [EventEntity, EventEntity]
  1: 0x041A [0x00] END_REQSTACK()
```

### Event 65535.71

#### Metadata

| Field        | Value    |
|--------------|----------|
| Entrypoint   | 0x041B   |
| Data Size    | 16 bytes |
| Instructions | 2        |

```
      00 01 02 03 04 05 06 07  08 09 0A 0B 0C 0D 0E 0F
      -- -- -- -- -- -- -- --  -- -- -- -- -- -- -- --
0410:                                   5B 0D 80 F8 FF             [....
0420: FF 7F F8 FF FF 7F 6B 72  62 6C 00                 ......krbl.     
```

#### Opcodes

```
  0: 0x041B [0x5B] LOAD_EXT_SCHEDULER: Load scheduler "krbl" with entities [EventEntity, EventEntity], work=2056*
  1: 0x042A [0x00] END_REQSTACK()
```

### Event 65535.72

#### Metadata

| Field        | Value    |
|--------------|----------|
| Entrypoint   | 0x042B   |
| Data Size    | 14 bytes |
| Instructions | 2        |

```
      00 01 02 03 04 05 06 07  08 09 0A 0B 0C 0D 0E 0F
      -- -- -- -- -- -- -- --  -- -- -- -- -- -- -- --
0420:                                   53 F8 FF FF 7F             S....
0430: F8 FF FF 7F 6B 72 62 6C  00                       ....krbl.       
```

#### Opcodes

```
  0: 0x042B [0x53] WAIT_SCHEDULER_TASK: Wait for scheduler "krbl" with entities [EventEntity, EventEntity]
  1: 0x0438 [0x00] END_REQSTACK()
```

### Event 65535.73

#### Metadata

| Field        | Value    |
|--------------|----------|
| Entrypoint   | 0x0439   |
| Data Size    | 16 bytes |
| Instructions | 2        |

```
      00 01 02 03 04 05 06 07  08 09 0A 0B 0C 0D 0E 0F
      -- -- -- -- -- -- -- --  -- -- -- -- -- -- -- --
0430:                             66 0E 80 F8 FF FF 7F           f......
0440: F8 FF FF 7F 6D 6F 74 30  00                       ....mot0.       
```

#### Opcodes

```
  0: 0x0439 [0x66] LOAD_EXT_SCHEDULER_MAIN: Load scheduler "mot0" with entities [EventEntity, EventEntity], work=180*
  1: 0x0448 [0x00] END_REQSTACK()
```

### Event 65535.74

#### Metadata

| Field        | Value    |
|--------------|----------|
| Entrypoint   | 0x0449   |
| Data Size    | 14 bytes |
| Instructions | 2        |

```
      00 01 02 03 04 05 06 07  08 09 0A 0B 0C 0D 0E 0F
      -- -- -- -- -- -- -- --  -- -- -- -- -- -- -- --
0440:                             53 F8 FF FF 7F F8 FF           S......
0450: FF 7F 6D 6F 74 30 00                              ..mot0.         
```

#### Opcodes

```
  0: 0x0449 [0x53] WAIT_SCHEDULER_TASK: Wait for scheduler "mot0" with entities [EventEntity, EventEntity]
  1: 0x0456 [0x00] END_REQSTACK()
```

### Event 65535.75

#### Metadata

| Field        | Value    |
|--------------|----------|
| Entrypoint   | 0x0457   |
| Data Size    | 16 bytes |
| Instructions | 2        |

```
      00 01 02 03 04 05 06 07  08 09 0A 0B 0C 0D 0E 0F
      -- -- -- -- -- -- -- --  -- -- -- -- -- -- -- --
0450:                      66  0E 80 F8 FF FF 7F F8 FF         f........
0460: FF 7F 6D 6F 74 31 00                              ..mot1.         
```

#### Opcodes

```
  0: 0x0457 [0x66] LOAD_EXT_SCHEDULER_MAIN: Load scheduler "mot1" with entities [EventEntity, EventEntity], work=180*
  1: 0x0466 [0x00] END_REQSTACK()
```

### Event 65535.76

#### Metadata

| Field        | Value    |
|--------------|----------|
| Entrypoint   | 0x0467   |
| Data Size    | 14 bytes |
| Instructions | 2        |

```
      00 01 02 03 04 05 06 07  08 09 0A 0B 0C 0D 0E 0F
      -- -- -- -- -- -- -- --  -- -- -- -- -- -- -- --
0460:                      53  F8 FF FF 7F F8 FF FF 7F         S........
0470: 6D 6F 74 31 00                                    mot1.           
```

#### Opcodes

```
  0: 0x0467 [0x53] WAIT_SCHEDULER_TASK: Wait for scheduler "mot1" with entities [EventEntity, EventEntity]
  1: 0x0474 [0x00] END_REQSTACK()
```

### Event 65535.77

#### Metadata

| Field        | Value    |
|--------------|----------|
| Entrypoint   | 0x0475   |
| Data Size    | 16 bytes |
| Instructions | 2        |

```
      00 01 02 03 04 05 06 07  08 09 0A 0B 0C 0D 0E 0F
      -- -- -- -- -- -- -- --  -- -- -- -- -- -- -- --
0470:                66 0F 80  F8 FF FF 7F F8 FF FF 7F       f..........
0480: 75 6B 75 30 00                                    uku0.           
```

#### Opcodes

```
  0: 0x0475 [0x66] LOAD_EXT_SCHEDULER_MAIN: Load scheduler "uku0" with entities [EventEntity, EventEntity], work=184*
  1: 0x0484 [0x00] END_REQSTACK()
```

### Event 65535.78

#### Metadata

| Field        | Value    |
|--------------|----------|
| Entrypoint   | 0x0485   |
| Data Size    | 14 bytes |
| Instructions | 2        |

```
      00 01 02 03 04 05 06 07  08 09 0A 0B 0C 0D 0E 0F
      -- -- -- -- -- -- -- --  -- -- -- -- -- -- -- --
0480:                53 F8 FF  FF 7F F8 FF FF 7F 75 6B       S........uk
0490: 75 30 00                                          u0.             
```

#### Opcodes

```
  0: 0x0485 [0x53] WAIT_SCHEDULER_TASK: Wait for scheduler "uku0" with entities [EventEntity, EventEntity]
  1: 0x0492 [0x00] END_REQSTACK()
```

### Event 65535.79

#### Metadata

| Field        | Value    |
|--------------|----------|
| Entrypoint   | 0x0493   |
| Data Size    | 16 bytes |
| Instructions | 2        |

```
      00 01 02 03 04 05 06 07  08 09 0A 0B 0C 0D 0E 0F
      -- -- -- -- -- -- -- --  -- -- -- -- -- -- -- --
0490:          66 10 80 F8 FF  FF 7F F8 FF FF 7F 66 79     f..........fy
04A0: 75 30 00                                          u0.             
```

#### Opcodes

```
  0: 0x0493 [0x66] LOAD_EXT_SCHEDULER_MAIN: Load scheduler "fyu0" with entities [EventEntity, EventEntity], work=253*
  1: 0x04A2 [0x00] END_REQSTACK()
```

### Event 65535.80

#### Metadata

| Field        | Value    |
|--------------|----------|
| Entrypoint   | 0x04A3   |
| Data Size    | 14 bytes |
| Instructions | 2        |

```
      00 01 02 03 04 05 06 07  08 09 0A 0B 0C 0D 0E 0F
      -- -- -- -- -- -- -- --  -- -- -- -- -- -- -- --
04A0:          53 F8 FF FF 7F  F8 FF FF 7F 66 79 75 30     S........fyu0
04B0: 00                                                .               
```

#### Opcodes

```
  0: 0x04A3 [0x53] WAIT_SCHEDULER_TASK: Wait for scheduler "fyu0" with entities [EventEntity, EventEntity]
  1: 0x04B0 [0x00] END_REQSTACK()
```

### Event 65535.81

#### Metadata

| Field        | Value    |
|--------------|----------|
| Entrypoint   | 0x04B1   |
| Data Size    | 16 bytes |
| Instructions | 2        |

```
      00 01 02 03 04 05 06 07  08 09 0A 0B 0C 0D 0E 0F
      -- -- -- -- -- -- -- --  -- -- -- -- -- -- -- --
04B0:    66 10 80 F8 FF FF 7F  F8 FF FF 7F 66 79 75 33   f..........fyu3
04C0: 00                                                .               
```

#### Opcodes

```
  0: 0x04B1 [0x66] LOAD_EXT_SCHEDULER_MAIN: Load scheduler "fyu3" with entities [EventEntity, EventEntity], work=253*
  1: 0x04C0 [0x00] END_REQSTACK()
```

### Event 65535.82

#### Metadata

| Field        | Value    |
|--------------|----------|
| Entrypoint   | 0x04C1   |
| Data Size    | 14 bytes |
| Instructions | 2        |

```
      00 01 02 03 04 05 06 07  08 09 0A 0B 0C 0D 0E 0F
      -- -- -- -- -- -- -- --  -- -- -- -- -- -- -- --
04C0:    53 F8 FF FF 7F F8 FF  FF 7F 66 79 75 33 00      S........fyu3. 
```

#### Opcodes

```
  0: 0x04C1 [0x53] WAIT_SCHEDULER_TASK: Wait for scheduler "fyu3" with entities [EventEntity, EventEntity]
  1: 0x04CE [0x00] END_REQSTACK()
```

### Event 123

#### Metadata

| Field        | Value   |
|--------------|---------|
| Entrypoint   | 0x04CF  |
| Data Size    | 7 bytes |
| Instructions | 2       |

```
      00 01 02 03 04 05 06 07  08 09 0A 0B 0C 0D 0E 0F
      -- -- -- -- -- -- -- --  -- -- -- -- -- -- -- --
04C0:                                               92                 .
04D0: 01 F8 FF FF 7F 00                                 ......          
```

#### Opcodes

```
  0: 0x04CF [0x92] EventEntity->Render.Flags3 ^= 0x01
  1: 0x04D5 [0x00] END_REQSTACK()
```

### Event 65535.83

#### Metadata

| Field        | Value    |
|--------------|----------|
| Entrypoint   | 0x04D6   |
| Data Size    | 10 bytes |
| Instructions | 2        |

```
      00 01 02 03 04 05 06 07  08 09 0A 0B 0C 0D 0E 0F
      -- -- -- -- -- -- -- --  -- -- -- -- -- -- -- --
04D0:                   6C F8  FF FF 7F 11 80 12 80 00        l.........
```

#### Opcodes

```
  0: 0x04D6 [0x6C] FADE_ENTITY_COLOR(entity_id=EventEntity, end_alpha=0*, fade_time=1*)
  1: 0x04DF [0x00] END_REQSTACK()
```

### Event 65535.84

#### Metadata

| Field        | Value    |
|--------------|----------|
| Entrypoint   | 0x04E0   |
| Data Size    | 10 bytes |
| Instructions | 2        |

```
      00 01 02 03 04 05 06 07  08 09 0A 0B 0C 0D 0E 0F
      -- -- -- -- -- -- -- --  -- -- -- -- -- -- -- --
04E0: 6C F8 FF FF 7F 13 80 14  80 00                    l.........      
```

#### Opcodes

```
  0: 0x04E0 [0x6C] FADE_ENTITY_COLOR(entity_id=EventEntity, end_alpha=128*, fade_time=10*)
  1: 0x04E9 [0x00] END_REQSTACK()
```

### Event 65535.85

#### Metadata

| Field        | Value    |
|--------------|----------|
| Entrypoint   | 0x04EA   |
| Data Size    | 15 bytes |
| Instructions | 5        |

```
      00 01 02 03 04 05 06 07  08 09 0A 0B 0C 0D 0E 0F
      -- -- -- -- -- -- -- --  -- -- -- -- -- -- -- --
04E0:                                32 15 80 1F 00 16            2.....
04F0: 80 17 80 18 80 1F 01 6F  00                       .......o.       
```

#### Opcodes

```
  0: 0x04EA [0x32] ExtData[1]->MainSpeed = 13* * 0.1
  1: 0x04ED [0x1F] MOVE_ENTITY: EventEntity moves to X=8.451*, Z=0.712*, Y=-0.259*
  2: 0x04F5 [0x1F] MOVE_ENTITY: Update entity position (mode=1)
  3: 0x04F7 [0x6F] WAIT_FRAME_DELAY: Yield until WaitTime reaches zero
  4: 0x04F8 [0x00] END_REQSTACK()
```

### Event 65535.86

#### Metadata

| Field        | Value    |
|--------------|----------|
| Entrypoint   | 0x04F9   |
| Data Size    | 15 bytes |
| Instructions | 5        |

```
      00 01 02 03 04 05 06 07  08 09 0A 0B 0C 0D 0E 0F
      -- -- -- -- -- -- -- --  -- -- -- -- -- -- -- --
04F0:                             32 15 80 1F 00 19 80           2......
0500: 1A 80 11 80 1F 01 6F 00                           ......o.        
```

#### Opcodes

```
  0: 0x04F9 [0x32] ExtData[1]->MainSpeed = 13* * 0.1
  1: 0x04FC [0x1F] MOVE_ENTITY: EventEntity moves to X=5.500*, Z=0.019*, Y=0.000*
  2: 0x0504 [0x1F] MOVE_ENTITY: Update entity position (mode=1)
  3: 0x0506 [0x6F] WAIT_FRAME_DELAY: Yield until WaitTime reaches zero
  4: 0x0507 [0x00] END_REQSTACK()
```
