# 17441110

## Common Data

| Field            | Value                       |
|------------------|-----------------------------|
| Zone             | Castle Zvahl Keep (ID: 162) |
| Block Size       | 59324 bytes                 |
| Total Events     | 6                           |
| References Count | 987                         |

## List of Events

| Event ID              | Entrypoint   |   Size |   Instructions |
|-----------------------|--------------|--------|----------------|
| [65535](#event-65535) | 0x0000       |    658 |             62 |
| [123](#event-123)     | 0x0292       |   7145 |            867 |
| [124](#event-124)     | 0x1E7B       |   6394 |            740 |
| [125](#event-125)     | 0x3775       |  10942 |           1350 |
| [126](#event-126)     | 0x6233       |  11092 |           1365 |
| [127](#event-127)     | 0x8D87       |  19104 |           2356 |

## DAT References (imed_data)

|   Index | Hex Value   |   Dec Value |
|---------|-------------|-------------|
|       0 | 0x00C8      |         200 |
|       1 | 0x0000      |           0 |
|       2 | 0x00C9      |         201 |
|       3 | 0x0001      |           1 |
|       4 | 0x002D      |          45 |
|       5 | 0x0002      |           2 |
|       6 | 0x001E      |          30 |
|       7 | 0x00D7      |         215 |
|       8 | 0x012C      |         300 |
|       9 | 0x0093      |         147 |
|      10 | 0x02D2      |         722 |
|      11 | 0x00FF      |         255 |
|      12 | 0x32C8      |       13000 |
|      13 | 0x0800      |        2048 |
|      14 | 0x3326      |       13094 |
|      15 | 0xFFFFF676  |  4294964854 |
|      16 | 0xFFFFFF98  |  4294967192 |
|      17 | 0x082B      |        2091 |
|      18 | 0x338D      |       13197 |
|      19 | 0x0A8C      |        2700 |
|      20 | 0x0759      |        1881 |
|      21 | 0x157C      |        5500 |
|      22 | 0xFFFFF830  |  4294965296 |
|      23 | 0x15F2      |        5618 |
|      24 | 0x0654      |        1620 |
|      25 | 0x0259      |         601 |
|      26 | 0xFFFFDCD8  |  4294958296 |
|      27 | 0xFFFFFB00  |  4294966016 |
|      28 | 0x84D0      |       34000 |
|      29 | 0x00B9      |         185 |
|      30 | 0x0070      |         112 |
|      31 | 0x001F      |          31 |
|      32 | 0x007F      |         127 |
|      33 | 0x0387      |         903 |
|      34 | 0x0096      |         150 |
|      35 | 0x1CE7      |        7399 |
|      36 | 0x00F0      |         240 |
|      37 | 0x1CE8      |        7400 |
|      38 | 0x005A      |          90 |
|      39 | 0x1CE9      |        7401 |
|      40 | 0x1CEA      |        7402 |
|      41 | 0x1CEB      |        7403 |
|      42 | 0x1CEC      |        7404 |
|      43 | 0x003C      |          60 |
|      44 | 0x1CED      |        7405 |
|      45 | 0x0078      |         120 |
|      46 | 0x1388      |        5000 |
|      47 | 0xFFFFF380  |  4294964096 |
|      48 | 0xFFFFEC78  |  4294962296 |
|      49 | 0x00C3      |         195 |
|      50 | 0x001B      |          27 |
|      51 | 0x1CEE      |        7406 |
|      52 | 0x00B4      |         180 |
|      53 | 0x0015      |          21 |
|      54 | 0x0026      |          38 |
|      55 | 0x1CEF      |        7407 |
|      56 | 0xFFF78BF0  |  4294413296 |
|      57 | 0xD2F0      |       54000 |
|      58 | 0xFFFEEE90  |  4294897296 |
|      59 | 0x1CF0      |        7408 |
|      60 | 0x1CF1      |        7409 |
|      61 | 0x1CF2      |        7410 |
|      62 | 0x1CF3      |        7411 |
|      63 | 0x000A      |          10 |
|      64 | 0x1CF4      |        7412 |
|      65 | 0x1CF5      |        7413 |
|      66 | 0x1CF6      |        7414 |
|      67 | 0x00D2      |         210 |
|      68 | 0x006E      |         110 |
|      69 | 0x0003      |           3 |
|      70 | 0x0004      |           4 |
|      71 | 0x0005      |           5 |
|      72 | 0x0006      |           6 |
|      73 | 0x0008      |           8 |
|      74 | 0x1CF7      |        7415 |
|      75 | 0x1CF8      |        7416 |
|      76 | 0x1CF9      |        7417 |
|      77 | 0x1CFA      |        7418 |
|      78 | 0x1CFB      |        7419 |
|      79 | 0x1CFC      |        7420 |
|      80 | 0x1CFD      |        7421 |
|      81 | 0x1CFE      |        7422 |
|      82 | 0x1CFF      |        7423 |
|      83 | 0x0007      |           7 |
|      84 | 0x1D00      |        7424 |
|      85 | 0x1D01      |        7425 |
|      86 | 0x1D02      |        7426 |
|      87 | 0x1D03      |        7427 |
|      88 | 0x1D04      |        7428 |
|      89 | 0x1D05      |        7429 |
|      90 | 0x1D06      |        7430 |
|      91 | 0x1D07      |        7431 |
|      92 | 0x1D08      |        7432 |
|      93 | 0x1D09      |        7433 |
|      94 | 0x0020      |          32 |
|      95 | 0x1CE6      |        7398 |
|      96 | 0xFFFFFF11  |  4294967057 |
|      97 | 0x15F90     |       90000 |
|      98 | 0xFFFE2B40  |  4294847296 |
|      99 | 0x05DC      |        1500 |
|     100 | 0x2710      |       10000 |
|     101 | 0xFFFF8AD0  |  4294937296 |
|     102 | 0x03E8      |        1000 |
|     103 | 0x02BC      |         700 |
|     104 | 0x1D0A      |        7434 |
|     105 | 0x1D0B      |        7435 |
|     106 | 0x1D0C      |        7436 |
|     107 | 0x1D0D      |        7437 |
|     108 | 0x1D0E      |        7438 |
|     109 | 0x1D0F      |        7439 |
|     110 | 0x1D10      |        7440 |
|     111 | 0x1D11      |        7441 |
|     112 | 0x1D12      |        7442 |
|     113 | 0x1D13      |        7443 |
|     114 | 0x1D14      |        7444 |
|     115 | 0x1D15      |        7445 |
|     116 | 0x1D16      |        7446 |
|     117 | 0x1D17      |        7447 |
|     118 | 0x1D18      |        7448 |
|     119 | 0x1D19      |        7449 |
|     120 | 0x1D1A      |        7450 |
|     121 | 0x1D1B      |        7451 |
|     122 | 0x1D1C      |        7452 |
|     123 | 0x1D1D      |        7453 |
|     124 | 0x1D1E      |        7454 |
|     125 | 0x1D1F      |        7455 |
|     126 | 0x1D20      |        7456 |
|     127 | 0x1D21      |        7457 |
|     128 | 0x1D22      |        7458 |
|     129 | 0x1D23      |        7459 |
|     130 | 0x1D24      |        7460 |
|     131 | 0x1D25      |        7461 |
|     132 | 0x1D26      |        7462 |
|     133 | 0x1D27      |        7463 |
|     134 | 0x1D28      |        7464 |
|     135 | 0x1D29      |        7465 |
|     136 | 0x1D2A      |        7466 |
|     137 | 0x1D2B      |        7467 |
|     138 | 0x0021      |          33 |
|     139 | 0x001D      |          29 |
|     140 | 0x00EA      |         234 |
|     141 | 0x1D2C      |        7468 |
|     142 | 0x00BB      |         187 |
|     143 | 0x0D86      |        3462 |
|     144 | 0x1D2D      |        7469 |
|     145 | 0x000F      |          15 |
|     146 | 0x0D91      |        3473 |
|     147 | 0x0DB9      |        3513 |
|     148 | 0x0D92      |        3474 |
|     149 | 0x00E1      |         225 |
|     150 | 0x1D2E      |        7470 |
|     151 | 0x1D2F      |        7471 |
|     152 | 0x1D30      |        7472 |
|     153 | 0x1D31      |        7473 |
|     154 | 0x1D32      |        7474 |
|     155 | 0x006A      |         106 |
|     156 | 0x01F5      |         501 |
|     157 | 0x00A2      |         162 |
|     158 | 0x009B      |         155 |
|     159 | 0xFFF85EE0  |  4294467296 |
|     160 | 0x1525      |        5413 |
|     161 | 0xFFFFF22B  |  4294963755 |
|     162 | 0x0962      |        2402 |
|     163 | 0x1687      |        5767 |
|     164 | 0x0CB1      |        3249 |
|     165 | 0x06F7      |        1783 |
|     166 | 0x4E20      |       20000 |
|     167 | 0x0025      |          37 |
|     168 | 0x192B      |        6443 |
|     169 | 0xFFFFF9D3  |  4294965715 |
|     170 | 0x088E      |        2190 |
|     171 | 0x1AAF      |        6831 |
|     172 | 0x0468      |        1128 |
|     173 | 0x0798      |        1944 |
|     174 | 0x0388      |         904 |
|     175 | 0x1D33      |        7475 |
|     176 | 0x1D34      |        7476 |
|     177 | 0x1D35      |        7477 |
|     178 | 0x1D36      |        7478 |
|     179 | 0x1D37      |        7479 |
|     180 | 0x00C5      |         197 |
|     181 | 0x1D38      |        7480 |
|     182 | 0x0168      |         360 |
|     183 | 0x1D39      |        7481 |
|     184 | 0x1D3A      |        7482 |
|     185 | 0x1D3B      |        7483 |
|     186 | 0x1D3C      |        7484 |
|     187 | 0x1D3D      |        7485 |
|     188 | 0x1D3E      |        7486 |
|     189 | 0x1D3F      |        7487 |
|     190 | 0x1D40      |        7488 |
|     191 | 0x1D41      |        7489 |
|     192 | 0x1D42      |        7490 |
|     193 | 0x1D43      |        7491 |
|     194 | 0x1D44      |        7492 |
|     195 | 0x1D45      |        7493 |
|     196 | 0x1D46      |        7494 |
|     197 | 0x0069      |         105 |
|     198 | 0x01F4      |         500 |
|     199 | 0x1D47      |        7495 |
|     200 | 0x0080      |         128 |
|     201 | 0x0079      |         121 |
|     202 | 0x1D48      |        7496 |
|     203 | 0x1D49      |        7497 |
|     204 | 0x0077      |         119 |
|     205 | 0x0017      |          23 |
|     206 | 0x01A0      |         416 |
|     207 | 0x1D4A      |        7498 |
|     208 | 0x1D4B      |        7499 |
|     209 | 0x1D4C      |        7500 |
|     210 | 0x1D4D      |        7501 |
|     211 | 0x1D4E      |        7502 |
|     212 | 0x1D4F      |        7503 |
|     213 | 0x4FF8      |       20472 |
|     214 | 0xFFFFFAB5  |  4294965941 |
|     215 | 0x0879      |        2169 |
|     216 | 0x1D50      |        7504 |
|     217 | 0x1D51      |        7505 |
|     218 | 0x1D52      |        7506 |
|     219 | 0x1D53      |        7507 |
|     220 | 0x000C      |          12 |
|     221 | 0xFFF99D3C  |  4294548796 |
|     222 | 0x4CF4      |       19700 |
|     223 | 0xFFFF5420  |  4294923296 |
|     224 | 0xFFF99760  |  4294547296 |
|     225 | 0x4650      |       18000 |
|     226 | 0xFFF99954  |  4294547796 |
|     227 | 0x55F0      |       22000 |
|     228 | 0xFFF98F90  |  4294545296 |
|     229 | 0x010E      |         270 |
|     230 | 0x1D54      |        7508 |
|     231 | 0x1D55      |        7509 |
|     232 | 0x1D56      |        7510 |
|     233 | 0x1D57      |        7511 |
|     234 | 0x0863      |        2147 |
|     235 | 0x1D58      |        7512 |
|     236 | 0x1D59      |        7513 |
|     237 | 0x1D5A      |        7514 |
|     238 | 0x1D5B      |        7515 |
|     239 | 0x1D5C      |        7516 |
|     240 | 0x1D5D      |        7517 |
|     241 | 0x0073      |         115 |
|     242 | 0x0066      |         102 |
|     243 | 0xFFF7A360  |  4294419296 |
|     244 | 0xEA60      |       60000 |
|     245 | 0xFFF7A16C  |  4294418796 |
|     246 | 0xE290      |       58000 |
|     247 | 0xF230      |       62000 |
|     248 | 0xFFF810C0  |  4294447296 |
|     249 | 0xFFFEF660  |  4294899296 |
|     250 | 0x038C      |         908 |
|     251 | 0x1D5F      |        7519 |
|     252 | 0x1D60      |        7520 |
|     253 | 0x1D61      |        7521 |
|     254 | 0x1D62      |        7522 |
|     255 | 0x1D64      |        7524 |
|     256 | 0x1D65      |        7525 |
|     257 | 0x1D63      |        7523 |
|     258 | 0x02E7      |         743 |
|     259 | 0x0DAC      |        3500 |
|     260 | 0xFFFFE4A8  |  4294960296 |
|     261 | 0x3526      |       13606 |
|     262 | 0x0133      |         307 |
|     263 | 0xFFFFE3E0  |  4294960096 |
|     264 | 0x089C      |        2204 |
|     265 | 0x38F2      |       14578 |
|     266 | 0xFFFFFAE3  |  4294965987 |
|     267 | 0x0786      |        1926 |
|     268 | 0x3BEB      |       15339 |
|     269 | 0x0A6B      |        2667 |
|     270 | 0x08D5      |        2261 |
|     271 | 0x47F8      |       18424 |
|     272 | 0xFFFFFCB3  |  4294966451 |
|     273 | 0x0822      |        2082 |
|     274 | 0xFFFF8B2A  |  4294937386 |
|     275 | 0xFFFF6474  |  4294927476 |
|     276 | 0xFFFFD0B5  |  4294955189 |
|     277 | 0x0014      |          20 |
|     278 | 0x1D66      |        7526 |
|     279 | 0x1D67      |        7527 |
|     280 | 0x1D68      |        7528 |
|     281 | 0x1D69      |        7529 |
|     282 | 0x1D6A      |        7530 |
|     283 | 0x1D6B      |        7531 |
|     284 | 0x1D6C      |        7532 |
|     285 | 0x1D6D      |        7533 |
|     286 | 0x1D6E      |        7534 |
|     287 | 0x1D6F      |        7535 |
|     288 | 0x1D70      |        7536 |
|     289 | 0x1D71      |        7537 |
|     290 | 0x1D72      |        7538 |
|     291 | 0x1D73      |        7539 |
|     292 | 0x1D74      |        7540 |
|     293 | 0x1D75      |        7541 |
|     294 | 0x1D76      |        7542 |
|     295 | 0x1D77      |        7543 |
|     296 | 0x1D78      |        7544 |
|     297 | 0x1D79      |        7545 |
|     298 | 0xC350      |       50000 |
|     299 | 0x0C54      |        3156 |
|     300 | 0xFFFFFF9C  |  4294967196 |
|     301 | 0x1884      |        6276 |
|     302 | 0x0030      |          48 |
|     303 | 0x1F7B      |        8059 |
|     304 | 0xFFFFF105  |  4294963461 |
|     305 | 0x08F5      |        2293 |
|     306 | 0x21DB      |        8667 |
|     307 | 0x0CE1      |        3297 |
|     308 | 0x05E6      |        1510 |
|     309 | 0x128F      |        4751 |
|     310 | 0x1F70      |        8048 |
|     311 | 0xFFFFFF41  |  4294967105 |
|     312 | 0x0550      |        1360 |
|     313 | 0x1107      |        4359 |
|     314 | 0xFFFFD80B  |  4294957067 |
|     315 | 0x0AB0      |        2736 |
|     316 | 0x27B8      |       10168 |
|     317 | 0x1C60      |        7264 |
|     318 | 0x0693      |        1683 |
|     319 | 0x0E56      |        3670 |
|     320 | 0x2FE0      |       12256 |
|     321 | 0x049E      |        1182 |
|     322 | 0x299D      |       10653 |
|     323 | 0xFFFFE46F  |  4294960239 |
|     324 | 0x0952      |        2386 |
|     325 | 0xFFFFF517  |  4294964503 |
|     326 | 0xFFFFD69B  |  4294956699 |
|     327 | 0x0C64      |        3172 |
|     328 | 0xFFFFFADE  |  4294965982 |
|     329 | 0x2167      |        8551 |
|     330 | 0x0335      |         821 |
|     331 | 0x1D7A      |        7546 |
|     332 | 0x1D7B      |        7547 |
|     333 | 0x0A44      |        2628 |
|     334 | 0x0034      |          52 |
|     335 | 0x1825      |        6181 |
|     336 | 0xFFFFFB51  |  4294966097 |
|     337 | 0xFFFFE492  |  4294960274 |
|     338 | 0x26A4      |        9892 |
|     339 | 0x03F5      |        1013 |
|     340 | 0xFFFFE3E1  |  4294960097 |
|     341 | 0x0877      |        2167 |
|     342 | 0x2E3F      |       11839 |
|     343 | 0xFFFFF7F3  |  4294965235 |
|     344 | 0x0722      |        1826 |
|     345 | 0x2B90      |       11152 |
|     346 | 0x0FC3      |        4035 |
|     347 | 0xFFFFE47F  |  4294960255 |
|     348 | 0x08AE      |        2222 |
|     349 | 0x2E1A      |       11802 |
|     350 | 0xFFFFF086  |  4294963334 |
|     351 | 0x0663      |        1635 |
|     352 | 0x1D7C      |        7548 |
|     353 | 0x1D7D      |        7549 |
|     354 | 0x1D7E      |        7550 |
|     355 | 0x1D7F      |        7551 |
|     356 | 0x1D80      |        7552 |
|     357 | 0x1D81      |        7553 |
|     358 | 0x1D82      |        7554 |
|     359 | 0x1D83      |        7555 |
|     360 | 0x1D84      |        7556 |
|     361 | 0x1D85      |        7557 |
|     362 | 0x1D86      |        7558 |
|     363 | 0x1D87      |        7559 |
|     364 | 0x1D88      |        7560 |
|     365 | 0x1D89      |        7561 |
|     366 | 0x00E9      |         233 |
|     367 | 0x003F      |          63 |
|     368 | 0x1D8A      |        7562 |
|     369 | 0x1D8B      |        7563 |
|     370 | 0x1D8C      |        7564 |
|     371 | 0x1D8D      |        7565 |
|     372 | 0xFFFFFFC0  |  4294967232 |
|     373 | 0x1D8E      |        7566 |
|     374 | 0x1D8F      |        7567 |
|     375 | 0x1D90      |        7568 |
|     376 | 0x1D91      |        7569 |
|     377 | 0x1D92      |        7570 |
|     378 | 0x1D93      |        7571 |
|     379 | 0x1D94      |        7572 |
|     380 | 0x1D95      |        7573 |
|     381 | 0x1D96      |        7574 |
|     382 | 0x1D97      |        7575 |
|     383 | 0x1D98      |        7576 |
|     384 | 0x1D99      |        7577 |
|     385 | 0x1D9A      |        7578 |
|     386 | 0x1D9B      |        7579 |
|     387 | 0x1D9C      |        7580 |
|     388 | 0x1D9D      |        7581 |
|     389 | 0x1D9E      |        7582 |
|     390 | 0x1D9F      |        7583 |
|     391 | 0x1DA0      |        7584 |
|     392 | 0x1DA1      |        7585 |
|     393 | 0x1DA2      |        7586 |
|     394 | 0x1DA3      |        7587 |
|     395 | 0x1DA4      |        7588 |
|     396 | 0x1DA5      |        7589 |
|     397 | 0x1DA6      |        7590 |
|     398 | 0x1DA7      |        7591 |
|     399 | 0x1DA8      |        7592 |
|     400 | 0x1DA9      |        7593 |
|     401 | 0x1DAA      |        7594 |
|     402 | 0x1DAB      |        7595 |
|     403 | 0x1DAC      |        7596 |
|     404 | 0x1DAD      |        7597 |
|     405 | 0x1DAE      |        7598 |
|     406 | 0x1DAF      |        7599 |
|     407 | 0x1DB0      |        7600 |
|     408 | 0x1DB1      |        7601 |
|     409 | 0x1DB2      |        7602 |
|     410 | 0x1DB3      |        7603 |
|     411 | 0x1DB4      |        7604 |
|     412 | 0x1DB5      |        7605 |
|     413 | 0x1DB6      |        7606 |
|     414 | 0x1DB7      |        7607 |
|     415 | 0x1DB8      |        7608 |
|     416 | 0x001A      |          26 |
|     417 | 0x1DB9      |        7609 |
|     418 | 0x1DBA      |        7610 |
|     419 | 0x7530      |       30000 |
|     420 | 0x2175      |        8565 |
|     421 | 0x07CE      |        1998 |
|     422 | 0x2778      |       10104 |
|     423 | 0xFFFFF9E1  |  4294965729 |
|     424 | 0x08B8      |        2232 |
|     425 | 0x2662      |        9826 |
|     426 | 0x0856      |        2134 |
|     427 | 0x06ED      |        1773 |
|     428 | 0x2686      |        9862 |
|     429 | 0x1775      |        6005 |
|     430 | 0xFFFFE494  |  4294960276 |
|     431 | 0x0490      |        1168 |
|     432 | 0x2351      |        9041 |
|     433 | 0xFFFFF408  |  4294964232 |
|     434 | 0x0924      |        2340 |
|     435 | 0x038D      |         909 |
|     436 | 0x1DBB      |        7611 |
|     437 | 0x1DBC      |        7612 |
|     438 | 0x1DBD      |        7613 |
|     439 | 0x1DBE      |        7614 |
|     440 | 0x00F6      |         246 |
|     441 | 0x1DBF      |        7615 |
|     442 | 0x0ABC      |        2748 |
|     443 | 0x1DC0      |        7616 |
|     444 | 0x1DC1      |        7617 |
|     445 | 0x1DC2      |        7618 |
|     446 | 0x1FFE      |        8190 |
|     447 | 0xFFFFF1DA  |  4294963674 |
|     448 | 0x0633      |        1587 |
|     449 | 0x251F      |        9503 |
|     450 | 0x0E22      |        3618 |
|     451 | 0x073E      |        1854 |
|     452 | 0xFFFFF2A0  |  4294963872 |
|     453 | 0x005B      |          91 |
|     454 | 0x0016      |          22 |
|     455 | 0x1762      |        5986 |
|     456 | 0x2F50      |       12112 |
|     457 | 0x04FF      |        1279 |
|     458 | 0x12AF      |        4783 |
|     459 | 0x032C      |         812 |
|     460 | 0xFFFFFF97  |  4294967191 |
|     461 | 0x0627      |        1575 |
|     462 | 0xFFFFEA4C  |  4294961740 |
|     463 | 0x15E7      |        5607 |
|     464 | 0x3256      |       12886 |
|     465 | 0xFFFFF8C3  |  4294965443 |
|     466 | 0x04EA      |        1258 |
|     467 | 0x244A      |        9290 |
|     468 | 0x0EAC      |        3756 |
|     469 | 0x03F2      |        1010 |
|     470 | 0x30EC      |       12524 |
|     471 | 0x0AED      |        2797 |
|     472 | 0x06CF      |        1743 |
|     473 | 0x1DC3      |        7619 |
|     474 | 0x1DC4      |        7620 |
|     475 | 0x1DC5      |        7621 |
|     476 | 0x20C9      |        8393 |
|     477 | 0x00BF      |         191 |
|     478 | 0x270C      |        9996 |
|     479 | 0x0844      |        2116 |
|     480 | 0xFFFF8945  |  4294936901 |
|     481 | 0xFFFF63D8  |  4294927320 |
|     482 | 0xFFFFD289  |  4294955657 |
|     483 | 0x0E74      |        3700 |
|     484 | 0xFFFF89CD  |  4294937037 |
|     485 | 0xFFFF6217  |  4294926871 |
|     486 | 0x0ED8      |        3800 |
|     487 | 0x1DC6      |        7622 |
|     488 | 0x1DC7      |        7623 |
|     489 | 0x1DC8      |        7624 |
|     490 | 0x1DC9      |        7625 |
|     491 | 0x1DCA      |        7626 |
|     492 | 0x1DCB      |        7627 |
|     493 | 0x1DCC      |        7628 |
|     494 | 0x1DCD      |        7629 |
|     495 | 0x0D7A      |        3450 |
|     496 | 0x1DCE      |        7630 |
|     497 | 0x0DD4      |        3540 |
|     498 | 0x0055      |          85 |
|     499 | 0x1DCF      |        7631 |
|     500 | 0x1DD0      |        7632 |
|     501 | 0x00FD      |         253 |
|     502 | 0x1DD1      |        7633 |
|     503 | 0x1DD2      |        7634 |
|     504 | 0x0562      |        1378 |
|     505 | 0xFFFFEDBA  |  4294962618 |
|     506 | 0x0644      |        1604 |
|     507 | 0xFFFFF1B4  |  4294963636 |
|     508 | 0xFFFFD894  |  4294957204 |
|     509 | 0x0DC5      |        3525 |
|     510 | 0xFFFFF44A  |  4294964298 |
|     511 | 0xFFFFD567  |  4294956391 |
|     512 | 0x186A0     |      100000 |
|     513 | 0x0E32      |        3634 |
|     514 | 0x1DD3      |        7635 |
|     515 | 0x1DD4      |        7636 |
|     516 | 0x1DD5      |        7637 |
|     517 | 0x1DD6      |        7638 |
|     518 | 0x1DD7      |        7639 |
|     519 | 0x1DD8      |        7640 |
|     520 | 0x1DD9      |        7641 |
|     521 | 0x1DDA      |        7642 |
|     522 | 0x1DDB      |        7643 |
|     523 | 0x1DDC      |        7644 |
|     524 | 0x1DDD      |        7645 |
|     525 | 0x1DDE      |        7646 |
|     526 | 0x1DDF      |        7647 |
|     527 | 0x1DE0      |        7648 |
|     528 | 0x2638      |        9784 |
|     529 | 0xFFFFFFF6  |  4294967286 |
|     530 | 0x081C      |        2076 |
|     531 | 0x2587      |        9607 |
|     532 | 0xFFFFF94A  |  4294965578 |
|     533 | 0x0922      |        2338 |
|     534 | 0x059E      |        1438 |
|     535 | 0x1835      |        6197 |
|     536 | 0x0D62      |        3426 |
|     537 | 0x0E72      |        3698 |
|     538 | 0x09FE      |        2558 |
|     539 | 0x0DD7      |        3543 |
|     540 | 0x1DE1      |        7649 |
|     541 | 0x1DE2      |        7650 |
|     542 | 0x1DE3      |        7651 |
|     543 | 0x1DE4      |        7652 |
|     544 | 0x1DE5      |        7653 |
|     545 | 0x1DE6      |        7654 |
|     546 | 0x1DE7      |        7655 |
|     547 | 0x1DE8      |        7656 |
|     548 | 0x1DE9      |        7657 |
|     549 | 0x1DEA      |        7658 |
|     550 | 0x1DEB      |        7659 |
|     551 | 0x1DEC      |        7660 |
|     552 | 0x1DED      |        7661 |
|     553 | 0xFFFFFF13  |  4294967059 |
|     554 | 0xFFFF3CB0  |  4294917296 |
|     555 | 0x1DEE      |        7662 |
|     556 | 0x1DEF      |        7663 |
|     557 | 0x1DF0      |        7664 |
|     558 | 0x1DF1      |        7665 |
|     559 | 0x03E7      |         999 |
|     560 | 0x1DF2      |        7666 |
|     561 | 0x1DF3      |        7667 |
|     562 | 0x1DF4      |        7668 |
|     563 | 0x1DF5      |        7669 |
|     564 | 0x1DF6      |        7670 |
|     565 | 0x1DF7      |        7671 |
|     566 | 0x1DF8      |        7672 |
|     567 | 0x1DF9      |        7673 |
|     568 | 0x1DFA      |        7674 |
|     569 | 0x1DFB      |        7675 |
|     570 | 0x1DFC      |        7676 |
|     571 | 0x1DFD      |        7677 |
|     572 | 0x439F      |       17311 |
|     573 | 0x33FB      |       13307 |
|     574 | 0xFFFFCEFB  |  4294954747 |
|     575 | 0x0E14      |        3604 |
|     576 | 0x1DFE      |        7678 |
|     577 | 0xFFFFE69C  |  4294960796 |
|     578 | 0x348C      |       13452 |
|     579 | 0x3574      |       13684 |
|     580 | 0x01C2      |         450 |
|     581 | 0x1DFF      |        7679 |
|     582 | 0x1E00      |        7680 |
|     583 | 0x0067      |         103 |
|     584 | 0x1E01      |        7681 |
|     585 | 0x1E02      |        7682 |
|     586 | 0x1E03      |        7683 |
|     587 | 0x1E04      |        7684 |
|     588 | 0x1E05      |        7685 |
|     589 | 0x1E06      |        7686 |
|     590 | 0x1E07      |        7687 |
|     591 | 0x1E08      |        7688 |
|     592 | 0x1E09      |        7689 |
|     593 | 0x00F8      |         248 |
|     594 | 0x00CC      |         204 |
|     595 | 0x014A      |         330 |
|     596 | 0x1E0A      |        7690 |
|     597 | 0x1E0B      |        7691 |
|     598 | 0x1E0C      |        7692 |
|     599 | 0x1E0D      |        7693 |
|     600 | 0x1E0E      |        7694 |
|     601 | 0x1E0F      |        7695 |
|     602 | 0x1E10      |        7696 |
|     603 | 0x1E11      |        7697 |
|     604 | 0x1E12      |        7698 |
|     605 | 0x1E13      |        7699 |
|     606 | 0x1E14      |        7700 |
|     607 | 0x1E15      |        7701 |
|     608 | 0x1E16      |        7702 |
|     609 | 0x1E17      |        7703 |
|     610 | 0x1E18      |        7704 |
|     611 | 0x1E19      |        7705 |
|     612 | 0x1E1A      |        7706 |
|     613 | 0x1E1B      |        7707 |
|     614 | 0x1E1C      |        7708 |
|     615 | 0x1E1D      |        7709 |
|     616 | 0x1E1E      |        7710 |
|     617 | 0x0A45      |        2629 |
|     618 | 0x1E1F      |        7711 |
|     619 | 0xFFFFE3C7  |  4294960071 |
|     620 | 0x18A5      |        6309 |
|     621 | 0xFFFFFC07  |  4294966279 |
|     622 | 0xFFFFE41B  |  4294960155 |
|     623 | 0x18B8      |        6328 |
|     624 | 0x048C      |        1164 |
|     625 | 0xFFFFE43A  |  4294960186 |
|     626 | 0x1644      |        5700 |
|     627 | 0xFFFFE3AE  |  4294960046 |
|     628 | 0x196D      |        6509 |
|     629 | 0xFFFFE402  |  4294960130 |
|     630 | 0x1980      |        6528 |
|     631 | 0xFFFFE421  |  4294960161 |
|     632 | 0x170C      |        5900 |
|     633 | 0xFFFFE395  |  4294960021 |
|     634 | 0x1A35      |        6709 |
|     635 | 0xFFFFE3E9  |  4294960105 |
|     636 | 0x1A48      |        6728 |
|     637 | 0xFFFFE408  |  4294960136 |
|     638 | 0x17D4      |        6100 |
|     639 | 0xFFFFE37C  |  4294959996 |
|     640 | 0x1AFD      |        6909 |
|     641 | 0xFFFFE3D0  |  4294960080 |
|     642 | 0x1B10      |        6928 |
|     643 | 0xFFFFE3EF  |  4294960111 |
|     644 | 0x189C      |        6300 |
|     645 | 0xFFFFE363  |  4294959971 |
|     646 | 0x1BC5      |        7109 |
|     647 | 0xFFFFE3B7  |  4294960055 |
|     648 | 0x1BD8      |        7128 |
|     649 | 0xFFFFE3D6  |  4294960086 |
|     650 | 0x1964      |        6500 |
|     651 | 0xFFFFE34A  |  4294959946 |
|     652 | 0x1C8D      |        7309 |
|     653 | 0xFFFFE39E  |  4294960030 |
|     654 | 0x1CA0      |        7328 |
|     655 | 0xFFFFE3BD  |  4294960061 |
|     656 | 0x1A2C      |        6700 |
|     657 | 0xFFFFE331  |  4294959921 |
|     658 | 0xFFFFE385  |  4294960005 |
|     659 | 0xFFFFE3A4  |  4294960036 |
|     660 | 0x1AF4      |        6900 |
|     661 | 0xFFFFE318  |  4294959896 |
|     662 | 0xFFFFE36C  |  4294959980 |
|     663 | 0x1E30      |        7728 |
|     664 | 0xFFFFE38B  |  4294960011 |
|     665 | 0x1BBC      |        7100 |
|     666 | 0xFFFFE2FF  |  4294959871 |
|     667 | 0x1EE5      |        7909 |
|     668 | 0xFFFFE353  |  4294959955 |
|     669 | 0x1EF8      |        7928 |
|     670 | 0xFFFFE372  |  4294959986 |
|     671 | 0x1C84      |        7300 |
|     672 | 0xFFFFE2E6  |  4294959846 |
|     673 | 0x1FAD      |        8109 |
|     674 | 0xFFFFE33A  |  4294959930 |
|     675 | 0x1FC0      |        8128 |
|     676 | 0xFFFFE359  |  4294959961 |
|     677 | 0xFFFFE2CD  |  4294959821 |
|     678 | 0x2075      |        8309 |
|     679 | 0xFFFFE321  |  4294959905 |
|     680 | 0x2088      |        8328 |
|     681 | 0xFFFFE340  |  4294959936 |
|     682 | 0xFFFFE2B4  |  4294959796 |
|     683 | 0x213D      |        8509 |
|     684 | 0xFFFFE308  |  4294959880 |
|     685 | 0x2150      |        8528 |
|     686 | 0xFFFFE327  |  4294959911 |
|     687 | 0x1EDC      |        7900 |
|     688 | 0xFFFFE29B  |  4294959771 |
|     689 | 0x2205      |        8709 |
|     690 | 0xFFFFE2EF  |  4294959855 |
|     691 | 0x2218      |        8728 |
|     692 | 0xFFFFE30E  |  4294959886 |
|     693 | 0x1FA4      |        8100 |
|     694 | 0xFFFFE282  |  4294959746 |
|     695 | 0x22CD      |        8909 |
|     696 | 0xFFFFE2D6  |  4294959830 |
|     697 | 0x22E0      |        8928 |
|     698 | 0xFFFFE2F5  |  4294959861 |
|     699 | 0x206C      |        8300 |
|     700 | 0xFFFFE269  |  4294959721 |
|     701 | 0x2395      |        9109 |
|     702 | 0xFFFFE2BD  |  4294959805 |
|     703 | 0x23A8      |        9128 |
|     704 | 0xFFFFE2DC  |  4294959836 |
|     705 | 0x34B5      |       13493 |
|     706 | 0xFFFFFF37  |  4294967095 |
|     707 | 0x07FB      |        2043 |
|     708 | 0x3975      |       14709 |
|     709 | 0xFFFFF3B1  |  4294964145 |
|     710 | 0x083E      |        2110 |
|     711 | 0x3F7B      |       16251 |
|     712 | 0x05D0      |        1488 |
|     713 | 0xFFFFE3AC  |  4294960044 |
|     714 | 0x070E      |        1806 |
|     715 | 0x1E20      |        7712 |
|     716 | 0x1E21      |        7713 |
|     717 | 0x1E22      |        7714 |
|     718 | 0x1E23      |        7715 |
|     719 | 0x1E24      |        7716 |
|     720 | 0x1E25      |        7717 |
|     721 | 0x2D03      |       11523 |
|     722 | 0x10CA      |        4298 |
|     723 | 0x07CF      |        1999 |
|     724 | 0xFFFFF30B  |  4294963979 |
|     725 | 0xFFFFCAF9  |  4294953721 |
|     726 | 0x0D98      |        3480 |
|     727 | 0xFFFFE7B6  |  4294961078 |
|     728 | 0xFFFFD11D  |  4294955293 |
|     729 | 0xFFFFC7F2  |  4294952946 |
|     730 | 0xFFFF983A  |  4294940730 |
|     731 | 0xFFFFDF7A  |  4294958970 |
|     732 | 0xFFFF8C05  |  4294937605 |
|     733 | 0xFFFF6396  |  4294927254 |
|     734 | 0xFFFFCFDA  |  4294954970 |
|     735 | 0x0578      |        1400 |
|     736 | 0xFFFFFE70  |  4294966896 |
|     737 | 0x2DD6      |       11734 |
|     738 | 0x07D0      |        2000 |
|     739 | 0x000D      |          13 |
|     740 | 0xFFFFFABD  |  4294965949 |
|     741 | 0xFFFFDE9B  |  4294958747 |
|     742 | 0xFFFFD059  |  4294955097 |
|     743 | 0x0625      |        1573 |
|     744 | 0xFFFFE953  |  4294961491 |
|     745 | 0xFFFFCCA1  |  4294954145 |
|     746 | 0x0FDA      |        4058 |
|     747 | 0xFFFFFDA8  |  4294966696 |
|     748 | 0x0022      |          34 |
|     749 | 0x0024      |          36 |
|     750 | 0x0023      |          35 |
|     751 | 0x00E8      |         232 |
|     752 | 0x0060      |          96 |
|     753 | 0x004A      |          74 |
|     754 | 0x03AC      |         940 |
|     755 | 0x0082      |         130 |
|     756 | 0x1E27      |        7719 |
|     757 | 0x1E28      |        7720 |
|     758 | 0x1E29      |        7721 |
|     759 | 0x0028      |          40 |
|     760 | 0x0050      |          80 |
|     761 | 0x1E2A      |        7722 |
|     762 | 0x1E2B      |        7723 |
|     763 | 0x1E2C      |        7724 |
|     764 | 0x1E2D      |        7725 |
|     765 | 0x01FF      |         511 |
|     766 | 0x1E2E      |        7726 |
|     767 | 0x1E2F      |        7727 |
|     768 | 0x22D3      |        8915 |
|     769 | 0x023D      |         573 |
|     770 | 0x1E31      |        7729 |
|     771 | 0x1E32      |        7730 |
|     772 | 0x1E33      |        7731 |
|     773 | 0x1E34      |        7732 |
|     774 | 0x1E35      |        7733 |
|     775 | 0x03A0      |         928 |
|     776 | 0x1F10      |        7952 |
|     777 | 0x0846      |        2118 |
|     778 | 0x07E8      |        2024 |
|     779 | 0x25BD      |        9661 |
|     780 | 0x028B      |         651 |
|     781 | 0x1E36      |        7734 |
|     782 | 0x1E37      |        7735 |
|     783 | 0x1E38      |        7736 |
|     784 | 0x1E39      |        7737 |
|     785 | 0x0814      |        2068 |
|     786 | 0x03EF      |        1007 |
|     787 | 0x1E3A      |        7738 |
|     788 | 0x1E3B      |        7739 |
|     789 | 0x1E3C      |        7740 |
|     790 | 0x1E3D      |        7741 |
|     791 | 0x1E3E      |        7742 |
|     792 | 0x1E3F      |        7743 |
|     793 | 0x1E40      |        7744 |
|     794 | 0x1E41      |        7745 |
|     795 | 0x0032      |          50 |
|     796 | 0x0A37      |        2615 |
|     797 | 0x39D5      |       14805 |
|     798 | 0xFFFFFADC  |  4294965980 |
|     799 | 0x38F1      |       14577 |
|     800 | 0x0302      |         770 |
|     801 | 0x25B3      |        9651 |
|     802 | 0xFFFFFA1C  |  4294965788 |
|     803 | 0x0A54      |        2644 |
|     804 | 0x008B      |         139 |
|     805 | 0x1E42      |        7746 |
|     806 | 0x1E43      |        7747 |
|     807 | 0x1E44      |        7748 |
|     808 | 0x1E45      |        7749 |
|     809 | 0x1E46      |        7750 |
|     810 | 0x1E47      |        7751 |
|     811 | 0x1E48      |        7752 |
|     812 | 0x1E49      |        7753 |
|     813 | 0x1E4A      |        7754 |
|     814 | 0x1E4B      |        7755 |
|     815 | 0x237F      |        9087 |
|     816 | 0x0018      |          24 |
|     817 | 0x0075      |         117 |
|     818 | 0x2380      |        9088 |
|     819 | 0x0031      |          49 |
|     820 | 0x00BA      |         186 |
|     821 | 0x1E4C      |        7756 |
|     822 | 0x1E4D      |        7757 |
|     823 | 0x1E4E      |        7758 |
|     824 | 0x1E4F      |        7759 |
|     825 | 0x1E50      |        7760 |
|     826 | 0x1E51      |        7761 |
|     827 | 0x1E52      |        7762 |
|     828 | 0x1E53      |        7763 |
|     829 | 0x1E54      |        7764 |
|     830 | 0x1E55      |        7765 |
|     831 | 0x1E56      |        7766 |
|     832 | 0x1E57      |        7767 |
|     833 | 0x1E58      |        7768 |
|     834 | 0xFFFF4E1C  |  4294921756 |
|     835 | 0xFFFFB820  |  4294948896 |
|     836 | 0x3EBE8     |      257000 |
|     837 | 0x00D5      |         213 |
|     838 | 0x1E59      |        7769 |
|     839 | 0x1E5A      |        7770 |
|     840 | 0x1E5B      |        7771 |
|     841 | 0x1E5C      |        7772 |
|     842 | 0x1E5D      |        7773 |
|     843 | 0x1E5E      |        7774 |
|     844 | 0x1E5F      |        7775 |
|     845 | 0x1E60      |        7776 |
|     846 | 0x1E61      |        7777 |
|     847 | 0x1E62      |        7778 |
|     848 | 0x1E63      |        7779 |
|     849 | 0x24B9      |        9401 |
|     850 | 0x0A8F      |        2703 |
|     851 | 0x1E64      |        7780 |
|     852 | 0x1E65      |        7781 |
|     853 | 0x1E66      |        7782 |
|     854 | 0x1E67      |        7783 |
|     855 | 0x1E68      |        7784 |
|     856 | 0x1E69      |        7785 |
|     857 | 0x05A5      |        1445 |
|     858 | 0x1E6A      |        7786 |
|     859 | 0x05A7      |        1447 |
|     860 | 0x1E6B      |        7787 |
|     861 | 0x24EB      |        9451 |
|     862 | 0xFFFFEE37  |  4294962743 |
|     863 | 0x07BB      |        1979 |
|     864 | 0x2B84      |       11140 |
|     865 | 0xFFFFE38D  |  4294960013 |
|     866 | 0x0866      |        2150 |
|     867 | 0x2EF9      |       12025 |
|     868 | 0xFFFFFFD2  |  4294967250 |
|     869 | 0x03A8      |         936 |
|     870 | 0xFFFFE3B8  |  4294960056 |
|     871 | 0x004C      |          76 |
|     872 | 0x0019      |          25 |
|     873 | 0x1997      |        6551 |
|     874 | 0xFFFEFA74  |  4294900340 |
|     875 | 0x00D6      |         214 |
|     876 | 0xFFFFF924  |  4294965540 |
|     877 | 0x0044      |          68 |
|     878 | 0xFFFF36EB  |  4294915819 |
|     879 | 0x03FA      |        1018 |
|     880 | 0xFFFEE8C9  |  4294895817 |
|     881 | 0x0147      |         327 |
|     882 | 0xFFFFF061  |  4294963297 |
|     883 | 0xFFFFFFBB  |  4294967227 |
|     884 | 0x084C      |        2124 |
|     885 | 0xFFFFFFF3  |  4294967283 |
|     886 | 0x0B34      |        2868 |
|     887 | 0xFFFFF8A7  |  4294965415 |
|     888 | 0xFFFFFFBC  |  4294967228 |
|     889 | 0x0064      |         100 |
|     890 | 0x0B50      |        2896 |
|     891 | 0xFFFFF900  |  4294965504 |
|     892 | 0xFFFFE3C1  |  4294960065 |
|     893 | 0x0768      |        1896 |
|     894 | 0x2ED0      |       11984 |
|     895 | 0x0576      |        1398 |
|     896 | 0xFFFFE481  |  4294960257 |
|     897 | 0x07E6      |        2022 |
|     898 | 0x2909      |       10505 |
|     899 | 0xFFFFFE37  |  4294966839 |
|     900 | 0x0B30      |        2864 |
|     901 | 0x2C6A      |       11370 |
|     902 | 0x0B29      |        2857 |
|     903 | 0xFFFFE45D  |  4294960221 |
|     904 | 0x065E      |        1630 |
|     905 | 0x0B4F      |        2895 |
|     906 | 0x2209      |        8713 |
|     907 | 0xFFFFE48B  |  4294960267 |
|     908 | 0x1246      |        4678 |
|     909 | 0xFFFFE426  |  4294960166 |
|     910 | 0x5076      |       20598 |
|     911 | 0xFFFFFC6B  |  4294966379 |
|     912 | 0xFFFFE443  |  4294960195 |
|     913 | 0x525E      |       21086 |
|     914 | 0x0331      |         817 |
|     915 | 0x1E6C      |        7788 |
|     916 | 0x1E6D      |        7789 |
|     917 | 0x1E6E      |        7790 |
|     918 | 0x1E6F      |        7791 |
|     919 | 0x1E70      |        7792 |
|     920 | 0x1E71      |        7793 |
|     921 | 0x1E72      |        7794 |
|     922 | 0x00BE      |         190 |
|     923 | 0x1E73      |        7795 |
|     924 | 0x1E74      |        7796 |
|     925 | 0x1E75      |        7797 |
|     926 | 0x1E76      |        7798 |
|     927 | 0x411E      |       16670 |
|     928 | 0x0268      |         616 |
|     929 | 0x0679      |        1657 |
|     930 | 0x493E      |       18750 |
|     931 | 0x0E24      |        3620 |
|     932 | 0x480E      |       18446 |
|     933 | 0xFFFFF5DE  |  4294964702 |
|     934 | 0x1E77      |        7799 |
|     935 | 0x1E78      |        7800 |
|     936 | 0x1E79      |        7801 |
|     937 | 0x31BF      |       12735 |
|     938 | 0xFFFFF345  |  4294964037 |
|     939 | 0x0715      |        1813 |
|     940 | 0x2045      |        8261 |
|     941 | 0x0AF0      |        2800 |
|     942 | 0x0A5D      |        2653 |
|     943 | 0x1CD1      |        7377 |
|     944 | 0x0C58      |        3160 |
|     945 | 0x0A6A      |        2666 |
|     946 | 0x00A5      |         165 |
|     947 | 0xFFF91EED  |  4294516461 |
|     948 | 0xFFFC4DFA  |  4294725114 |
|     949 | 0xFFFD72E1  |  4294800097 |
|     950 | 0x0878      |        2168 |
|     951 | 0xFFF91F70  |  4294516592 |
|     952 | 0xFFFC5814  |  4294727700 |
|     953 | 0xFFF915DF  |  4294514143 |
|     954 | 0xFFFC54CD  |  4294726861 |
|     955 | 0xFFFD733F  |  4294800191 |
|     956 | 0x08A4      |        2212 |
|     957 | 0xFFF916C4  |  4294514372 |
|     958 | 0xFFFC5D26  |  4294728998 |
|     959 | 0xFFFD72C9  |  4294800073 |
|     960 | 0x0802      |        2050 |
|     961 | 0xFFF90626  |  4294510118 |
|     962 | 0xFFFC56C0  |  4294727360 |
|     963 | 0x1000      |        4096 |
|     964 | 0x00DB      |         219 |
|     965 | 0x1E7A      |        7802 |
|     966 | 0xFFFFFC00  |  4294966272 |
|     967 | 0x0400      |        1024 |
|     968 | 0x1E7B      |        7803 |
|     969 | 0x1E7C      |        7804 |
|     970 | 0x1E7D      |        7805 |
|     971 | 0x1E7E      |        7806 |
|     972 | 0x1E7F      |        7807 |
|     973 | 0x1E80      |        7808 |
|     974 | 0x1E81      |        7809 |
|     975 | 0x01DB      |         475 |
|     976 | 0x038B      |         907 |
|     977 | 0x038E      |         910 |
|     978 | 0x038F      |         911 |
|     979 | 0x0391      |         913 |
|     980 | 0x0390      |         912 |
|     981 | 0x0392      |         914 |
|     982 | 0x0393      |         915 |
|     983 | 0x0394      |         916 |
|     984 | 0x0395      |         917 |
|     985 | 0x0094      |         148 |
|     986 | 0x0095      |         149 |

## String References

- **6551**: Obtained $0 gil.
- **7398**: @@
- **7423**: Did you want to obtain the weapon? [Yes, that's right./No, not really.]
- **7461**: Throw away the weapon? [Yes./No.]
- **7522**: Join the battle? [Yes./Not yet.]
- **7601**: Will you offer your aid? [Yes./No way.]
- **7694**: Are you a descendant of the Zilart? [Yes, I am./No, sorry./I'm a descendant of Promathia.]
- **7753**: Try to destroy the World Eater Egg? [Sure./I'd better not.]

## Events

### Event 65535

#### Metadata

| Field        | Value     |
|--------------|-----------|
| Entrypoint   | 0x0000    |
| Data Size    | 658 bytes |
| Instructions | 1         |

```
      00 01 02 03 04 05 06 07  08 09 0A 0B 0C 0D 0E 0F
      -- -- -- -- -- -- -- --  -- -- -- -- -- -- -- --
0000: 00 45 00 80 F0 FF FF 7F  F0 FF FF 7F 66 64 69 30  .E..........fdi0
0010: 01 80 55 00 80 F0 FF FF  7F F0 FF FF 7F 66 64 69  ..U..........fdi
0020: 30 1B 45 00 80 F0 FF FF  7F F0 FF FF 7F 66 64 6F  0.E..........fdo
0030: 30 01 80 55 00 80 F0 FF  FF 7F F0 FF FF 7F 66 64  0..U..........fd
0040: 6F 30 1B 45 00 80 F0 FF  FF 7F F0 FF FF 7F 66 64  o0.E..........fd
0050: 69 31 01 80 55 00 80 F0  FF FF 7F F0 FF FF 7F 66  i1..U..........f
0060: 64 69 31 1B 45 00 80 F0  FF FF 7F F0 FF FF 7F 66  di1.E..........f
0070: 64 6F 31 01 80 55 00 80  F0 FF FF 7F F0 FF FF 7F  do1..U..........
0080: 66 64 6F 31 1B 45 02 80  F0 FF FF 7F F0 FF FF 7F  fdo1.E..........
0090: 77 68 69 31 01 80 55 02  80 F0 FF FF 7F F0 FF FF  whi1..U.........
00A0: 7F 77 68 69 31 1B 45 02  80 F0 FF FF 7F F0 FF FF  .whi1.E.........
00B0: 7F 77 68 6F 31 01 80 55  02 80 F0 FF FF 7F F0 FF  .who1..U........
00C0: FF 7F 77 68 6F 31 1B 45  02 80 F0 FF FF 7F F0 FF  ..who1.E........
00D0: FF 7F 77 68 6F 32 01 80  55 02 80 F0 FF FF 7F F0  ..who2..U.......
00E0: FF FF 7F 77 68 6F 32 1B  45 02 80 F0 FF FF 7F F0  ...who2.E.......
00F0: FF FF 7F 77 68 6F 33 01  80 55 02 80 F0 FF FF 7F  ...who3..U......
0100: F0 FF FF 7F 77 68 6F 33  1B 62 03 80 F0 FF FF 7F  ....who3.b......
0110: F0 FF FF 7F 6D 61 69 6E  01 80 1C 04 80 45 00 80  ....main.....E..
0120: F0 FF FF 7F F0 FF FF 7F  66 64 6F 31 01 80 55 00  ........fdo1..U.
0130: 80 F0 FF FF 7F F0 FF FF  7F 66 64 6F 31 1B 45 00  .........fdo1.E.
0140: 80 F0 FF FF 7F F0 FF FF  7F 66 64 69 31 01 80 62  .........fdi1..b
0150: 05 80 F0 FF FF 7F F0 FF  FF 7F 6D 61 69 6E 01 80  ..........main..
0160: 1C 06 80 55 00 80 F0 FF  FF 7F F0 FF FF 7F 66 64  ...U..........fd
0170: 69 31 1B 45 00 80 F0 FF  FF 7F F0 FF FF 7F 62 6C  i1.E..........bl
0180: 6F 6E 01 80 45 02 80 F0  FF FF 7F F0 FF FF 7F 62  on..E..........b
0190: 6C 6F 6E 01 80 1B 45 02  80 F0 FF FF 7F F0 FF FF  lon...E.........
01A0: 7F 77 68 69 30 01 80 55  02 80 F0 FF FF 7F F0 FF  .whi0..U........
01B0: FF 7F 77 68 69 30 1B 45  02 80 F0 FF FF 7F F0 FF  ..whi0.E........
01C0: FF 7F 77 68 6F 30 01 80  55 02 80 F0 FF FF 7F F0  ..who0..U.......
01D0: FF FF 7F 77 68 6F 30 1B  45 07 80 F0 FF FF 7F F0  ...who0.E.......
01E0: FF FF 7F 65 66 6F 6E 01  80 55 07 80 F0 FF FF 7F  ...efon..U......
01F0: F0 FF FF 7F 65 66 6F 6E  1B 45 00 80 F0 FF FF 7F  ....efon.E......
0200: F0 FF FF 7F 66 64 69 73  01 80 1B 45 00 80 F0 FF  ....fdis...E....
0210: FF 7F F0 FF FF 7F 66 64  6F 73 01 80 55 00 80 F0  ......fdos..U...
0220: FF FF 7F F0 FF FF 7F 66  64 6F 73 1B 45 00 80 F0  .......fdos.E...
0230: FF FF 7F F0 FF FF 7F 66  64 69 66 01 80 1B 45 00  .......fdif...E.
0240: 80 F0 FF FF 7F F0 FF FF  7F 66 64 6F 66 01 80 55  .........fdof..U
0250: 00 80 F0 FF FF 7F F0 FF  FF 7F 66 64 6F 66 1B 45  ..........fdof.E
0260: 00 80 F0 FF FF 7F F0 FF  FF 7F 66 64 69 70 01 80  ..........fdip..
0270: 1B 45 00 80 F0 FF FF 7F  F0 FF FF 7F 66 64 6F 70  .E..........fdop
0280: 01 80 55 00 80 F0 FF FF  7F F0 FF FF 7F 66 64 6F  ..U..........fdo
0290: 70 1B                                             p.              
```

#### Opcodes

```
  0: 0x0000 [0x00] END_REQSTACK()
```

#### Data or dead code:

```
# Dead code (unreachable instructions):
     0x0001 [0x45] LOAD_SCHEDULED_TASK: Load scheduler "fdi0" with entities [LocalPlayer, LocalPlayer], work=[200*, 0*]
     0x0012 [0x55] WAIT_LOAD_SCHEDULER: Wait for scheduler "fdi0" with entities [LocalPlayer, LocalPlayer], work=200*
     0x0021 [0x1B] RETURN
     0x0022 [0x45] LOAD_SCHEDULED_TASK: Load scheduler "fdo0" with entities [LocalPlayer, LocalPlayer], work=[200*, 0*]
     0x0033 [0x55] WAIT_LOAD_SCHEDULER: Wait for scheduler "fdo0" with entities [LocalPlayer, LocalPlayer], work=200*
     0x0042 [0x1B] RETURN
     0x0043 [0x45] LOAD_SCHEDULED_TASK: Load scheduler "fdi1" with entities [LocalPlayer, LocalPlayer], work=[200*, 0*]
     0x0054 [0x55] WAIT_LOAD_SCHEDULER: Wait for scheduler "fdi1" with entities [LocalPlayer, LocalPlayer], work=200*
     0x0063 [0x1B] RETURN
     0x0064 [0x45] LOAD_SCHEDULED_TASK: Load scheduler "fdo1" with entities [LocalPlayer, LocalPlayer], work=[200*, 0*]
     0x0075 [0x55] WAIT_LOAD_SCHEDULER: Wait for scheduler "fdo1" with entities [LocalPlayer, LocalPlayer], work=200*
     0x0084 [0x1B] RETURN
     0x0085 [0x45] LOAD_SCHEDULED_TASK: Load scheduler "whi1" with entities [LocalPlayer, LocalPlayer], work=[201*, 0*]
     0x0096 [0x55] WAIT_LOAD_SCHEDULER: Wait for scheduler "whi1" with entities [LocalPlayer, LocalPlayer], work=201*
     0x00A5 [0x1B] RETURN
     0x00A6 [0x45] LOAD_SCHEDULED_TASK: Load scheduler "who1" with entities [LocalPlayer, LocalPlayer], work=[201*, 0*]
     0x00B7 [0x55] WAIT_LOAD_SCHEDULER: Wait for scheduler "who1" with entities [LocalPlayer, LocalPlayer], work=201*
     0x00C6 [0x1B] RETURN
     0x00C7 [0x45] LOAD_SCHEDULED_TASK: Load scheduler "who2" with entities [LocalPlayer, LocalPlayer], work=[201*, 0*]
     0x00D8 [0x55] WAIT_LOAD_SCHEDULER: Wait for scheduler "who2" with entities [LocalPlayer, LocalPlayer], work=201*
     0x00E7 [0x1B] RETURN
     0x00E8 [0x45] LOAD_SCHEDULED_TASK: Load scheduler "who3" with entities [LocalPlayer, LocalPlayer], work=[201*, 0*]
     0x00F9 [0x55] WAIT_LOAD_SCHEDULER: Wait for scheduler "who3" with entities [LocalPlayer, LocalPlayer], work=201*
     0x0108 [0x1B] RETURN
     0x0109 [0x62] LOAD_EVENT_SCHEDULER: Load scheduler "main" with entities [LocalPlayer, LocalPlayer], work=[1*, 0*]
     0x011A [0x1C] WAIT(45* ticks)
     0x011D [0x45] LOAD_SCHEDULED_TASK: Load scheduler "fdo1" with entities [LocalPlayer, LocalPlayer], work=[200*, 0*]
     0x012E [0x55] WAIT_LOAD_SCHEDULER: Wait for scheduler "fdo1" with entities [LocalPlayer, LocalPlayer], work=200*
     0x013D [0x1B] RETURN
     0x013E [0x45] LOAD_SCHEDULED_TASK: Load scheduler "fdi1" with entities [LocalPlayer, LocalPlayer], work=[200*, 0*]
     0x014F [0x62] LOAD_EVENT_SCHEDULER: Load scheduler "main" with entities [LocalPlayer, LocalPlayer], work=[2*, 0*]
     0x0160 [0x1C] WAIT(30* ticks)
     0x0163 [0x55] WAIT_LOAD_SCHEDULER: Wait for scheduler "fdi1" with entities [LocalPlayer, LocalPlayer], work=200*
     0x0172 [0x1B] RETURN
     0x0173 [0x45] LOAD_SCHEDULED_TASK: Load scheduler "blon" with entities [LocalPlayer, LocalPlayer], work=[200*, 0*]
     0x0184 [0x45] LOAD_SCHEDULED_TASK: Load scheduler "blon" with entities [LocalPlayer, LocalPlayer], work=[201*, 0*]
     0x0195 [0x1B] RETURN
     0x0196 [0x45] LOAD_SCHEDULED_TASK: Load scheduler "whi0" with entities [LocalPlayer, LocalPlayer], work=[201*, 0*]
     0x01A7 [0x55] WAIT_LOAD_SCHEDULER: Wait for scheduler "whi0" with entities [LocalPlayer, LocalPlayer], work=201*
     0x01B6 [0x1B] RETURN
     0x01B7 [0x45] LOAD_SCHEDULED_TASK: Load scheduler "who0" with entities [LocalPlayer, LocalPlayer], work=[201*, 0*]
     0x01C8 [0x55] WAIT_LOAD_SCHEDULER: Wait for scheduler "who0" with entities [LocalPlayer, LocalPlayer], work=201*
     0x01D7 [0x1B] RETURN
     0x01D8 [0x45] LOAD_SCHEDULED_TASK: Load scheduler "efon" with entities [LocalPlayer, LocalPlayer], work=[215*, 0*]
     0x01E9 [0x55] WAIT_LOAD_SCHEDULER: Wait for scheduler "efon" with entities [LocalPlayer, LocalPlayer], work=215*
     0x01F8 [0x1B] RETURN
     0x01F9 [0x45] LOAD_SCHEDULED_TASK: Load scheduler "fdis" with entities [LocalPlayer, LocalPlayer], work=[200*, 0*]
     0x020A [0x1B] RETURN
     0x020B [0x45] LOAD_SCHEDULED_TASK: Load scheduler "fdos" with entities [LocalPlayer, LocalPlayer], work=[200*, 0*]
     0x021C [0x55] WAIT_LOAD_SCHEDULER: Wait for scheduler "fdos" with entities [LocalPlayer, LocalPlayer], work=200*
     0x022B [0x1B] RETURN
     0x022C [0x45] LOAD_SCHEDULED_TASK: Load scheduler "fdif" with entities [LocalPlayer, LocalPlayer], work=[200*, 0*]
     0x023D [0x1B] RETURN
     0x023E [0x45] LOAD_SCHEDULED_TASK: Load scheduler "fdof" with entities [LocalPlayer, LocalPlayer], work=[200*, 0*]
     0x024F [0x55] WAIT_LOAD_SCHEDULER: Wait for scheduler "fdof" with entities [LocalPlayer, LocalPlayer], work=200*
     0x025E [0x1B] RETURN
     0x025F [0x45] LOAD_SCHEDULED_TASK: Load scheduler "fdip" with entities [LocalPlayer, LocalPlayer], work=[200*, 0*]
     0x0270 [0x1B] RETURN
     0x0271 [0x45] LOAD_SCHEDULED_TASK: Load scheduler "fdop" with entities [LocalPlayer, LocalPlayer], work=[200*, 0*]
     0x0282 [0x55] WAIT_LOAD_SCHEDULER: Wait for scheduler "fdop" with entities [LocalPlayer, LocalPlayer], work=200*
     0x0291 [0x1B] RETURN
```

### Event 123

#### Metadata

| Field        | Value      |
|--------------|------------|
| Entrypoint   | 0x0292     |
| Data Size    | 7145 bytes |
| Instructions | 867        |

```
      00 01 02 03 04 05 06 07  08 09 0A 0B 0C 0D 0E 0F
      -- -- -- -- -- -- -- --  -- -- -- -- -- -- -- --
0290:       42 5D 01 80 08 80  1A 64 00 46 01 38 09 80    B].....d.F.8..
02A0: D9 00 34 0A 80 77 0B 80  03 80 AB 09 1C 03 80 2F  ..4..w........./
02B0: 00 57 21 0A 01 2F 00 58  21 0A 01 2F 00 59 21 0A  .W!../.X!../.Y!.
02C0: 01 2F 00 5A 21 0A 01 2F  00 5B 21 0A 01 2F 00 5C  ./.Z!../.[!../.\
02D0: 21 0A 01 4E 00 57 21 0A  01 4E 00 58 21 0A 01 4E  !..N.W!..N.X!..N
02E0: 00 59 21 0A 01 4E 00 5A  21 0A 01 4E 00 5B 21 0A  .Y!..N.Z!..N.[!.
02F0: 01 4E 00 5C 21 0A 01 94  01 57 21 0A 01 94 01 58  .N.\!....W!....X
0300: 21 0A 01 94 01 59 21 0A  01 94 01 5A 21 0A 01 94  !....Y!....Z!...
0310: 01 5B 21 0A 01 94 01 5C  21 0A 01 94 01 F0 FF FF  .[!....\!.......
0320: 7F BA 57 21 0A 01 0C 80  01 80 01 80 0D 80 BA 58  ..W!...........X
0330: 21 0A 01 0E 80 0F 80 10  80 11 80 BA 59 21 0A 01  !...........Y!..
0340: 12 80 13 80 10 80 14 80  59 05 5A 21 0A 01 01 BA  ........Y.Z!....
0350: 5A 21 0A 01 15 80 01 80  16 80 01 80 BA 5B 21 0A  Z!...........[!.
0360: 01 17 80 18 80 10 80 19  80 BA 5C 21 0A 01 1A 80  ..........\!....
0370: 01 80 01 80 1B 80 BA F0  FF FF 7F 1C 80 01 80 01  ................
0380: 80 0D 80 80 57 21 0A 01  80 58 21 0A 01 80 59 21  ....W!...X!...Y!
0390: 0A 01 80 5A 21 0A 01 80  5B 21 0A 01 80 5C 21 0A  ...Z!...[!...\!.
03A0: 01 80 F0 FF FF 7F 66 1D  80 5A 21 0A 01 5A 21 0A  ......f..Z!..Z!.
03B0: 01 73 79 6F 30 53 5A 21  0A 01 5A 21 0A 01 73 79  .syo0SZ!..Z!..sy
03C0: 6F 30 66 1E 80 5B 21 0A  01 5B 21 0A 01 6B 61 6B  o0f..[!..[!..kak
03D0: 30 27 10 5A 21 0A 01 55  27 10 5B 21 0A 01 54 27  0'.Z!..U'.[!..T'
03E0: 10 5C 21 0A 01 03 5C 00  1F 80 5C 01 1F 80 9A 5D  .\!...\...\....]
03F0: 20 80 03 80 27 10 58 21  0A 01 0D 29 10 58 21 0A   ...'.X!...).X!.
0400: 01 0E 27 10 57 21 0A 01  3F 27 10 F0 FF FF 7F 12  ..'.W!..?'......
0410: 45 21 80 F8 FF FF 7F F8  FF FF 7F 73 30 30 30 01  E!.........s000.
0420: 80 1A 43 00 27 10 59 21  0A 01 0A 1C 22 80 52 21  ..C.'.Y!....".R!
0430: 80 F8 FF FF 7F F8 FF FF  7F 73 30 30 30 45 21 80  .........s000E!.
0440: F8 FF FF 7F F8 FF FF 7F  73 30 30 31 01 80 27 10  ........s001..'.
0450: 57 21 0A 01 41 1C 08 80  52 21 80 F8 FF FF 7F F8  W!..A...R!......
0460: FF FF 7F 73 30 30 31 45  21 80 F8 FF FF 7F F8 FF  ...s001E!.......
0470: FF 7F 73 30 30 32 01 80  27 10 57 21 0A 01 43 45  ..s002..'.W!..CE
0480: 21 80 F8 FF FF 7F F8 FF  FF 7F 31 30 30 37 01 80  !.........1007..
0490: 2B 57 21 0A 01 23 80 1C  24 80 23 27 10 58 21 0A  +W!..#..$.#'.X!.
04A0: 01 15 1C 06 80 27 10 57  21 0A 01 45 52 21 80 F8  .....'.W!..ER!..
04B0: FF FF 7F F8 FF FF 7F 73  30 30 32 45 21 80 F8 FF  .......s002E!...
04C0: FF 7F F8 FF FF 7F 73 30  30 33 01 80 79 00 F0 FF  ......s003..y...
04D0: FF 7F 58 21 0A 01 2B 58  21 0A 01 25 80 2A 10 58  ..X!..+X!..%.*.X
04E0: 21 0A 01 1C 26 80 52 21  80 F8 FF FF 7F F8 FF FF  !...&.R!........
04F0: 7F 73 30 30 33 45 21 80  F8 FF FF 7F F8 FF FF 7F  .s003E!.........
0500: 73 30 30 34 01 80 2B 58  21 0A 01 27 80 1C 08 80  s004..+X!..'....
0510: 52 21 80 F8 FF FF 7F F8  FF FF 7F 73 30 30 34 45  R!.........s004E
0520: 21 80 F8 FF FF 7F F8 FF  FF 7F 73 30 30 35 01 80  !.........s005..
0530: 27 10 59 21 0A 01 0A 45  21 80 F8 FF FF 7F F8 FF  '.Y!...E!.......
0540: FF 7F 31 30 30 31 01 80  2B 59 21 0A 01 28 80 79  ..1001..+Y!..(.y
0550: 00 F0 FF FF 7F 59 21 0A  01 29 10 59 21 0A 01 0B  .....Y!..).Y!...
0560: 23 4A 58 21 0A 01 57 21  0A 01 27 10 58 21 0A 01  #JX!..W!..'.X!..
0570: 16 52 21 80 F8 FF FF 7F  F8 FF FF 7F 73 30 30 35  .R!.........s005
0580: 45 21 80 F8 FF FF 7F F8  FF FF 7F 73 30 30 36 01  E!.........s006.
0590: 80 79 00 F0 FF FF 7F 57  21 0A 01 27 10 57 21 0A  .y.....W!..'.W!.
05A0: 01 07 45 21 80 F8 FF FF  7F F8 FF FF 7F 31 30 30  ..E!.........100
05B0: 37 01 80 2B 57 21 0A 01  29 80 23 29 10 57 21 0A  7..+W!..).#).W!.
05C0: 01 08 52 21 80 F8 FF FF  7F F8 FF FF 7F 73 30 30  ..R!.........s00
05D0: 36 45 21 80 F8 FF FF 7F  F8 FF FF 7F 73 30 30 37  6E!.........s007
05E0: 01 80 27 10 57 21 0A 01  47 2B 57 21 0A 01 2A 80  ..'.W!..G+W!..*.
05F0: 23 29 10 57 21 0A 01 48  2A 10 58 21 0A 01 B4 00  #).W!..H*.X!....
0600: 01 00 3F 3F 3F 00 00 00  00 00 00 00 00 00 00 00  ..???...........
0610: 00 00 B5 00 01 00 5D 01  80 2B 80 B0 00 F8 FF FF  ......]..+......
0620: 7F 5A 21 0A 01 2C 80 1C  2D 80 4B 58 21 0A 01 11  .Z!..,..-.KX!...
0630: 80 33 01 37 15 80 2E 80  2F 80 01 80 52 21 80 F8  .3.7..../...R!..
0640: FF FF 7F F8 FF FF 7F 73  30 30 37 45 21 80 F8 FF  .......s007E!...
0650: FF 7F F8 FF FF 7F 73 30  30 38 01 80 27 10 57 21  ......s008..'.W!
0660: 0A 01 43 27 10 58 21 0A  01 0B 27 10 59 21 0A 01  ..C'.X!...'.Y!..
0670: 0A 79 00 F0 FF FF 7F F8  FF FF 7F 1C 2B 80 37 15  .y..........+.7.
0680: 80 30 80 2F 80 01 80 1C  2B 80 37 15 80 01 80 2F  .0./....+.7..../
0690: 80 01 80 22 00 C5 31 80  F8 FF FF 7F F8 FF FF 7F  ..."..1.........
06A0: 73 30 30 31 01 80 5C 00  32 80 5C 01 32 80 9A 5D  s001..\.2.\.2..]
06B0: 20 80 03 80 29 10 57 21  0A 01 44 27 10 57 21 0A   ...).W!..D'.W!.
06C0: 01 45 4A 57 21 0A 01 5A  21 0A 01 4A 58 21 0A 01  .EJW!..Z!..JX!..
06D0: 5A 21 0A 01 4A 59 21 0A  01 5A 21 0A 01 4A F0 FF  Z!..JY!..Z!..J..
06E0: FF 7F 5A 21 0A 01 27 10  58 21 0A 01 0D 52 21 80  ..Z!..'.X!...R!.
06F0: F8 FF FF 7F F8 FF FF 7F  73 30 30 38 45 21 80 F8  ........s008E!..
0700: FF FF 7F F8 FF FF 7F 73  30 30 39 01 80 27 10 5A  .......s009..'.Z
0710: 21 0A 01 56 1C 2B 80 B0  00 F8 FF FF 7F 5A 21 0A  !..V.+.......Z!.
0720: 01 33 80 C5 31 80 F8 FF  FF 7F F8 FF FF 7F 73 30  .3..1.........s0
0730: 30 33 01 80 1C 34 80 52  21 80 F8 FF FF 7F F8 FF  03...4.R!.......
0740: FF 7F 73 30 30 39 45 21  80 F8 FF FF 7F F8 FF FF  ..s009E!........
0750: 7F 73 30 31 30 01 80 27  10 57 21 0A 01 1F 27 10  .s010..'.W!...'.
0760: 58 21 0A 01 05 27 10 59  21 0A 01 0A 6E F0 FF FF  X!...'.Y!...n...
0770: 7F 35 80 99 F0 FF FF 7F  D5 36 80 5A 21 0A 01 5A  .5.......6.Z!..Z
0780: 21 0A 01 73 61 30 34 01  80 1C 2B 80 59 05 5A 21  !..sa04...+.Y.Z!
0790: 0A 01 00 BA 5A 21 0A 01  15 80 01 80 01 80 01 80  ....Z!..........
07A0: 1C 2B 80 66 1E 80 5A 21  0A 01 5A 21 0A 01 6B 61  .+.f..Z!..Z!..ka
07B0: 6B 30 52 21 80 F8 FF FF  7F F8 FF FF 7F 73 30 31  k0R!.........s01
07C0: 30 45 21 80 F8 FF FF 7F  F8 FF FF 7F 73 30 31 31  0E!.........s011
07D0: 01 80 27 10 57 21 0A 01  21 27 10 58 21 0A 01 07  ..'.W!..!'.X!...
07E0: 1C 2B 80 66 1E 80 5A 21  0A 01 5A 21 0A 01 6B 61  .+.f..Z!..Z!..ka
07F0: 6B 31 B0 00 F8 FF FF 7F  5A 21 0A 01 37 80 1C 2D  k1......Z!..7..-
0800: 80 B4 00 01 00 00 00 00  00 00 00 00 00 00 00 00  ................
0810: 00 00 00 00 00 B5 00 01  00 22 01 37 38 80 39 80  .........".78.9.
0820: 3A 80 01 80 33 00 52 21  80 F8 FF FF 7F F8 FF FF  :...3.R!........
0830: 7F 73 30 31 31 45 21 80  F8 FF FF 7F F8 FF FF 7F  .s011E!.........
0840: 73 30 31 32 01 80 27 10  57 21 0A 01 1F 45 21 80  s012..'.W!...E!.
0850: F8 FF FF 7F F8 FF FF 7F  31 30 31 30 01 80 2B 57  ........1010..+W
0860: 21 0A 01 3B 80 29 10 57  21 0A 01 20 1C 06 80 27  !..;.).W!.. ...'
0870: 10 5A 21 0A 01 58 52 21  80 F8 FF FF 7F F8 FF FF  .Z!..XR!........
0880: 7F 73 30 31 32 45 21 80  F8 FF FF 7F F8 FF FF 7F  .s012E!.........
0890: 73 30 31 33 01 80 27 10  57 21 0A 01 21 45 21 80  s013..'.W!..!E!.
08A0: F8 FF FF 7F F8 FF FF 7F  38 31 35 39 01 80 2B 5A  ........8159..+Z
08B0: 21 0A 01 3C 80 2A 10 5A  21 0A 01 1C 2D 80 23 52  !..<.*.Z!...-.#R
08C0: 21 80 F8 FF FF 7F F8 FF  FF 7F 73 30 31 33 45 21  !.........s013E!
08D0: 80 F8 FF FF 7F F8 FF FF  7F 62 6C 6F 66 01 80 45  .........blof..E
08E0: 21 80 F8 FF FF 7F F8 FF  FF 7F 73 30 31 34 01 80  !.........s014..
08F0: 27 10 5A 21 0A 01 01 2B  5A 21 0A 01 3D 80 23 29  '.Z!...+Z!..=.#)
0900: 10 5A 21 0A 01 02 27 10  5A 21 0A 01 03 29 10 5A  .Z!...'.Z!...).Z
0910: 21 0A 01 04 27 10 5A 21  0A 01 59 1C 06 80 52 21  !...'.Z!..Y...R!
0920: 80 F8 FF FF 7F F8 FF FF  7F 73 30 31 34 45 21 80  .........s014E!.
0930: F8 FF FF 7F F8 FF FF 7F  73 30 31 35 01 80 2B 5A  ........s015..+Z
0940: 21 0A 01 3E 80 2A 10 5A  21 0A 01 4A 57 21 0A 01  !..>.*.Z!..JW!..
0950: 5A 21 0A 01 1C 3F 80 4A  58 21 0A 01 5A 21 0A 01  Z!...?.JX!..Z!..
0960: 4A 59 21 0A 01 5A 21 0A  01 27 10 5A 21 0A 01 17  JY!..Z!..'.Z!...
0970: 23 2B 5A 21 0A 01 40 80  23 29 10 5A 21 0A 01 18  #+Z!..@.#).Z!...
0980: 52 21 80 F8 FF FF 7F F8  FF FF 7F 73 30 31 35 45  R!.........s015E
0990: 21 80 F8 FF FF 7F F8 FF  FF 7F 73 30 31 36 01 80  !.........s016..
09A0: 27 10 5A 21 0A 01 2D 2B  5A 21 0A 01 41 80 1C 2B  '.Z!..-+Z!..A..+
09B0: 80 23 45 21 80 F8 FF FF  7F F8 FF FF 7F 31 30 30  .#E!.........100
09C0: 34 01 80 27 10 57 21 0A  01 4D 1C 2B 80 52 21 80  4..'.W!..M.+.R!.
09D0: F8 FF FF 7F F8 FF FF 7F  73 30 31 36 45 21 80 F8  ........s016E!..
09E0: FF FF 7F F8 FF FF 7F 73  30 31 37 01 80 2B 57 21  .......s017..+W!
09F0: 0A 01 42 80 2A 10 57 21  0A 01 2C 57 21 0A 01 F8  ..B.*.W!..,W!...
0A00: FF FF 7F 63 6E 74 30 1C  3F 80 45 21 80 F8 FF FF  ...cnt0.?.E!....
0A10: 7F F8 FF FF 7F 38 33 32  36 01 80 BB 43 80 5A 21  .....8326...C.Z!
0A20: 0A 01 5A 21 0A 01 73 74  30 31 01 80 66 44 80 5A  ..Z!..st01..fD.Z
0A30: 21 0A 01 5A 21 0A 01 65  63 30 30 1C 3F 80 27 10  !..Z!..ec00.?.'.
0A40: 5A 21 0A 01 57 1C 06 80  27 10 5B 21 0A 01 55 1C  Z!..W...'.[!..U.
0A50: 2B 80 66 1E 80 5B 21 0A  01 5B 21 0A 01 6B 61 6B  +.f..[!..[!..kak
0A60: 31 45 21 80 F8 FF FF 7F  F8 FF FF 7F 31 30 31 35  1E!.........1015
0A70: 01 80 4A 57 21 0A 01 5B  21 0A 01 4A 58 21 0A 01  ..JW!..[!..JX!..
0A80: 5B 21 0A 01 4A 59 21 0A  01 5B 21 0A 01 79 00 F0  [!..JY!..[!..y..
0A90: FF FF 7F 5B 21 0A 01 1C  2D 80 52 21 80 F8 FF FF  ...[!...-.R!....
0AA0: 7F F8 FF FF 7F 73 30 31  37 02 87 7F 45 80 80 C5  .....s017...E...
0AB0: 0A 45 21 80 F8 FF FF 7F  F8 FF FF 7F 73 67 31 38  .E!.........sg18
0AC0: 01 80 01 46 0B 02 87 7F  46 80 80 E1 0A 45 21 80  ...F....F....E!.
0AD0: F8 FF FF 7F F8 FF FF 7F  73 67 31 38 01 80 01 46  ........sg18...F
0AE0: 0B 02 87 7F 47 80 80 FD  0A 45 21 80 F8 FF FF 7F  ....G....E!.....
0AF0: F8 FF FF 7F 73 74 31 38  01 80 01 46 0B 02 87 7F  ....st18...F....
0B00: 48 80 80 19 0B 45 21 80  F8 FF FF 7F F8 FF FF 7F  H....E!.........
0B10: 73 74 31 38 01 80 01 46  0B 02 87 7F 49 80 80 35  st18...F....I..5
0B20: 0B 45 21 80 F8 FF FF 7F  F8 FF FF 7F 73 67 31 38  .E!.........sg18
0B30: 01 80 01 46 0B 45 21 80  F8 FF FF 7F F8 FF FF 7F  ...F.E!.........
0B40: 73 30 31 38 01 80 4A 5B  21 0A 01 F0 FF FF 7F 6F  s018..J[!......o
0B50: 76 5B 21 0A 01 2B 5B 21  0A 01 4A 80 1C 2D 80 23  v[!..+[!..J..-.#
0B60: 02 87 7F 45 80 80 7A 0B  52 21 80 F8 FF FF 7F F8  ...E..z.R!......
0B70: FF FF 7F 73 67 31 38 01  F1 0B 02 87 7F 46 80 80  ...sg18......F..
0B80: 94 0B 52 21 80 F8 FF FF  7F F8 FF FF 7F 73 67 31  ..R!.........sg1
0B90: 38 01 F1 0B 02 87 7F 47  80 80 AE 0B 52 21 80 F8  8......G....R!..
0BA0: FF FF 7F F8 FF FF 7F 73  74 31 38 01 F1 0B 02 87  .......st18.....
0BB0: 7F 48 80 80 C8 0B 52 21  80 F8 FF FF 7F F8 FF FF  .H....R!........
0BC0: 7F 73 74 31 38 01 F1 0B  02 87 7F 49 80 80 E2 0B  .st18......I....
0BD0: 52 21 80 F8 FF FF 7F F8  FF FF 7F 73 67 31 38 01  R!.........sg18.
0BE0: F1 0B 52 21 80 F8 FF FF  7F F8 FF FF 7F 73 30 31  ..R!.........s01
0BF0: 38 45 21 80 F8 FF FF 7F  F8 FF FF 7F 73 30 31 39  8E!.........s019
0C00: 01 80 27 10 5B 21 0A 01  01 2B 5B 21 0A 01 4B 80  ..'.[!...+[!..K.
0C10: 23 2B 5B 21 0A 01 4C 80  23 02 87 7F 49 80 00 34  #+[!..L.#...I..4
0C20: 0C 2B 5B 21 0A 01 4D 80  23 2B 5B 21 0A 01 4E 80  .+[!..M.#+[!..N.
0C30: 23 01 3C 0C 2B 5B 21 0A  01 4D 80 23 29 10 5B 21  #.<.+[!..M.#).[!
0C40: 0A 01 02 27 10 5B 21 0A  01 03 1C 2B 80 52 21 80  ...'.[!....+.R!.
0C50: F8 FF FF 7F F8 FF FF 7F  73 30 31 39 45 21 80 F8  ........s019E!..
0C60: FF FF 7F F8 FF FF 7F 73  30 32 30 01 80 7B 5B 21  .......s020..{[!
0C70: 0A 01 27 10 5B 21 0A 01  23 2B 5B 21 0A 01 4F 80  ..'.[!..#+[!..O.
0C80: 23 2B 5B 21 0A 01 50 80  23 29 10 5B 21 0A 01 24  #+[!..P.#).[!..$
0C90: 52 21 80 F8 FF FF 7F F8  FF FF 7F 73 30 32 30 02  R!.........s020.
0CA0: 87 7F 45 80 80 BB 0C 45  21 80 F8 FF FF 7F F8 FF  ..E....E!.......
0CB0: FF 7F 73 67 32 31 01 80  01 3C 0D 02 87 7F 46 80  ..sg21...<....F.
0CC0: 80 D7 0C 45 21 80 F8 FF  FF 7F F8 FF FF 7F 73 67  ...E!.........sg
0CD0: 32 31 01 80 01 3C 0D 02  87 7F 47 80 80 F3 0C 45  21...<....G....E
0CE0: 21 80 F8 FF FF 7F F8 FF  FF 7F 73 74 32 31 01 80  !.........st21..
0CF0: 01 3C 0D 02 87 7F 48 80  80 0F 0D 45 21 80 F8 FF  .<....H....E!...
0D00: FF 7F F8 FF FF 7F 73 74  32 31 01 80 01 3C 0D 02  ......st21...<..
0D10: 87 7F 49 80 80 2B 0D 45  21 80 F8 FF FF 7F F8 FF  ..I..+.E!.......
0D20: FF 7F 73 67 32 31 01 80  01 3C 0D 45 21 80 F8 FF  ..sg21...<.E!...
0D30: FF 7F F8 FF FF 7F 73 30  32 31 01 80 79 00 5B 21  ......s021..y.[!
0D40: 0A 01 F0 FF FF 7F 27 10  5B 21 0A 01 25 2B 5B 21  ......'.[!..%+[!
0D50: 0A 01 51 80 23 29 10 5B  21 0A 01 26 24 52 80 01  ..Q.#).[!..&$R..
0D60: 80 01 80 25 02 00 10 01  80 00 7E 0D 6E F0 FF FF  ...%......~.n...
0D70: 7F 53 80 99 F0 FF FF 7F  1C 2D 80 01 98 0D 02 00  .S.......-......
0D80: 10 03 80 00 98 0D 6E F0  FF FF 7F 48 80 99 F0 FF  ......n....H....
0D90: FF 7F 1C 2D 80 01 98 0D  02 87 7F 45 80 80 B2 0D  ...-.......E....
0DA0: 52 21 80 F8 FF FF 7F F8  FF FF 7F 73 67 32 31 01  R!.........sg21.
0DB0: 29 0E 02 87 7F 46 80 80  CC 0D 52 21 80 F8 FF FF  )....F....R!....
0DC0: 7F F8 FF FF 7F 73 67 32  31 01 29 0E 02 87 7F 47  .....sg21.)....G
0DD0: 80 80 E6 0D 52 21 80 F8  FF FF 7F F8 FF FF 7F 73  ....R!.........s
0DE0: 74 32 31 01 29 0E 02 87  7F 48 80 80 00 0E 52 21  t21.)....H....R!
0DF0: 80 F8 FF FF 7F F8 FF FF  7F 73 74 32 31 01 29 0E  .........st21.).
0E00: 02 87 7F 49 80 80 1A 0E  52 21 80 F8 FF FF 7F F8  ...I....R!......
0E10: FF FF 7F 73 67 32 31 01  29 0E 52 21 80 F8 FF FF  ...sg21.).R!....
0E20: 7F F8 FF FF 7F 73 30 32  31 45 21 80 F8 FF FF 7F  .....s021E!.....
0E30: F8 FF FF 7F 73 30 32 32  01 80 27 10 5B 21 0A 01  ....s022..'.[!..
0E40: 1D 2B 5B 21 0A 01 54 80  23 29 10 5B 21 0A 01 1E  .+[!..T.#).[!...
0E50: 52 21 80 F8 FF FF 7F F8  FF FF 7F 73 30 32 32 45  R!.........s022E
0E60: 21 80 F8 FF FF 7F F8 FF  FF 7F 73 30 32 33 01 80  !.........s023..
0E70: 27 10 5B 21 0A 01 05 2B  5B 21 0A 01 55 80 23 2B  '.[!...+[!..U.#+
0E80: 5B 21 0A 01 56 80 23 29  10 5B 21 0A 01 06 27 10  [!..V.#).[!...'.
0E90: 5B 21 0A 01 07 29 10 5B  21 0A 01 08 27 10 5B 21  [!...).[!...'.[!
0EA0: 0A 01 56 52 21 80 F8 FF  FF 7F F8 FF FF 7F 73 30  ..VR!.........s0
0EB0: 32 33 45 21 80 F8 FF FF  7F F8 FF FF 7F 73 30 32  23E!.........s02
0EC0: 34 01 80 2B 5B 21 0A 01  57 80 2A 10 5B 21 0A 01  4..+[!..W.*.[!..
0ED0: 4A 57 21 0A 01 5B 21 0A  01 4A F0 FF FF 7F 5B 21  JW!..[!..J....[!
0EE0: 0A 01 1C 3F 80 4A 58 21  0A 01 5B 21 0A 01 4A 59  ...?.JX!..[!..JY
0EF0: 21 0A 01 5B 21 0A 01 52  21 80 F8 FF FF 7F F8 FF  !..[!..R!.......
0F00: FF 7F 73 30 32 34 45 21  80 F8 FF FF 7F F8 FF FF  ..s024E!........
0F10: 7F 73 30 32 35 01 80 27  10 5B 21 0A 01 01 2B 5B  .s025..'.[!...+[
0F20: 21 0A 01 58 80 23 2B 5B  21 0A 01 59 80 23 2B 5B  !..X.#+[!..Y.#+[
0F30: 21 0A 01 5A 80 23 29 10  5B 21 0A 01 02 27 10 5B  !..Z.#).[!...'.[
0F40: 21 0A 01 03 29 10 5B 21  0A 01 04 4A 5B 21 0A 01  !...).[!...J[!..
0F50: 57 21 0A 01 52 21 80 F8  FF FF 7F F8 FF FF 7F 73  W!..R!.........s
0F60: 30 32 35 45 21 80 F8 FF  FF 7F F8 FF FF 7F 73 30  025E!.........s0
0F70: 32 36 01 80 6F 76 5B 21  0A 01 27 10 5B 21 0A 01  26..ov[!..'.[!..
0F80: 09 2B 5B 21 0A 01 5B 80  23 29 10 5B 21 0A 01 0A  .+[!..[.#).[!...
0F90: 27 10 5B 21 0A 01 0B 52  21 80 F8 FF FF 7F F8 FF  '.[!...R!.......
0FA0: FF 7F 73 30 32 36 45 21  80 F8 FF FF 7F F8 FF FF  ..s026E!........
0FB0: 7F 73 30 32 37 01 80 27  10 57 21 0A 01 1F 45 21  .s027..'.W!...E!
0FC0: 80 F8 FF FF 7F F8 FF FF  7F 31 30 30 37 01 80 2B  .........1007..+
0FD0: 57 21 0A 01 5C 80 29 10  57 21 0A 01 20 27 10 57  W!..\.).W!.. '.W
0FE0: 21 0A 01 21 29 10 57 21  0A 01 22 27 10 57 21 0A  !..!).W!.."'.W!.
0FF0: 01 03 2B 57 21 0A 01 5D  80 23 29 10 57 21 0A 01  ..+W!..].#).W!..
1000: 04 5D 5E 80 2D 80 1A 64  00 1C 06 80 48 5F 80 27  .]^.-..d....H_.'
1010: 10 57 21 0A 01 05 1A 0B  02 89 60 80 1C 2B 80 B4  .W!.......`..+..
1020: 14 61 80 62 80 63 80 01  80 03 80 B4 14 64 80 65  .a.b.c.......d.e
1030: 80 66 80 67 80 05 80 1A  F9 01 1C 2B 80 2B 57 21  .f.g.......+.+W!
1040: 0A 01 68 80 1C 22 80 2B  57 21 0A 01 69 80 1C 22  ..h..".+W!..i.."
1050: 80 2B 57 21 0A 01 6A 80  1C 22 80 2B 57 21 0A 01  .+W!..j..".+W!..
1060: 6B 80 1C 22 80 5D 20 80  2D 80 1A 0B 02 8A B4 15  k..".] .-.......
1070: 1A F9 01 4A 5B 21 0A 01  F0 FF FF 7F 7B 5B 21 0A  ...J[!......{[!.
1080: 01 27 10 5B 21 0A 01 0D  29 10 5B 21 0A 01 0E 48  .'.[!...).[!...H
1090: 5F 80 52 21 80 F8 FF FF  7F F8 FF FF 7F 73 30 32  _.R!.........s02
10A0: 37 45 21 80 F8 FF FF 7F  F8 FF FF 7F 73 30 32 38  7E!.........s028
10B0: 01 80 1A 43 00 2B 5B 21  0A 01 6C 80 23 27 10 5B  ...C.+[!..l.#'.[
10C0: 21 0A 01 0F 2B 5B 21 0A  01 6D 80 23 29 10 5B 21  !...+[!..m.#).[!
10D0: 0A 01 10 27 10 5B 21 0A  01 57 52 21 80 F8 FF FF  ...'.[!..WR!....
10E0: 7F F8 FF FF 7F 73 30 32  38 02 87 7F 45 80 80 05  .....s028...E...
10F0: 11 45 21 80 F8 FF FF 7F  F8 FF FF 7F 73 67 32 39  .E!.........sg29
1100: 01 80 01 4E 11 02 87 7F  46 80 80 21 11 45 21 80  ...N....F..!.E!.
1110: F8 FF FF 7F F8 FF FF 7F  73 67 32 39 01 80 01 4E  ........sg29...N
1120: 11 02 87 7F 49 80 80 3D  11 45 21 80 F8 FF FF 7F  ....I..=.E!.....
1130: F8 FF FF 7F 73 67 32 39  01 80 01 4E 11 45 21 80  ....sg29...N.E!.
1140: F8 FF FF 7F F8 FF FF 7F  73 30 32 39 01 80 2B 5B  ........s029..+[
1150: 21 0A 01 6E 80 2A 10 5B  21 0A 01 4A 57 21 0A 01  !..n.*.[!..JW!..
1160: 5B 21 0A 01 4A 58 21 0A  01 5B 21 0A 01 4A 59 21  [!..JX!..[!..JY!
1170: 0A 01 5B 21 0A 01 4A F0  FF FF 7F 5B 21 0A 01 27  ..[!..J....[!..'
1180: 10 5B 21 0A 01 11 23 2B  5B 21 0A 01 6F 80 23 2B  .[!...#+[!..o.#+
1190: 5B 21 0A 01 70 80 23 29  10 5B 21 0A 01 12 02 87  [!..p.#).[!.....
11A0: 7F 45 80 80 B8 11 52 21  80 F8 FF FF 7F F8 FF FF  .E....R!........
11B0: 7F 73 67 32 39 01 FB 11  02 87 7F 46 80 80 D2 11  .sg29......F....
11C0: 52 21 80 F8 FF FF 7F F8  FF FF 7F 73 67 32 39 01  R!.........sg29.
11D0: FB 11 02 87 7F 49 80 80  EC 11 52 21 80 F8 FF FF  .....I....R!....
11E0: 7F F8 FF FF 7F 73 67 32  39 01 FB 11 52 21 80 F8  .....sg29...R!..
11F0: FF FF 7F F8 FF FF 7F 73  30 32 39 02 87 7F 45 80  .......s029...E.
1200: 80 17 12 45 21 80 F8 FF  FF 7F F8 FF FF 7F 73 67  ...E!.........sg
1210: 33 30 01 80 01 98 12 02  87 7F 46 80 80 33 12 45  30........F..3.E
1220: 21 80 F8 FF FF 7F F8 FF  FF 7F 73 67 33 30 01 80  !.........sg30..
1230: 01 98 12 02 87 7F 47 80  80 4F 12 45 21 80 F8 FF  ......G..O.E!...
1240: FF 7F F8 FF FF 7F 73 74  33 30 01 80 01 98 12 02  ......st30......
1250: 87 7F 48 80 80 6B 12 45  21 80 F8 FF FF 7F F8 FF  ..H..k.E!.......
1260: FF 7F 73 74 33 30 01 80  01 98 12 02 87 7F 49 80  ..st30........I.
1270: 80 87 12 45 21 80 F8 FF  FF 7F F8 FF FF 7F 73 67  ...E!.........sg
1280: 33 30 01 80 01 98 12 45  21 80 F8 FF FF 7F F8 FF  30.....E!.......
1290: FF 7F 73 30 33 30 01 80  27 10 5B 21 0A 01 13 29  ..s030..'.[!...)
12A0: 10 5B 21 0A 01 14 4A 5B  21 0A 01 F0 FF FF 7F 7B  .[!...J[!......{
12B0: 5B 21 0A 01 6F 76 5B 21  0A 01 2B 5B 21 0A 01 71  [!..ov[!..+[!..q
12C0: 80 1C 22 80 23 02 87 7F  45 80 80 DF 12 52 21 80  ..".#...E....R!.
12D0: F8 FF FF 7F F8 FF FF 7F  73 67 33 30 01 56 13 02  ........sg30.V..
12E0: 87 7F 46 80 80 F9 12 52  21 80 F8 FF FF 7F F8 FF  ..F....R!.......
12F0: FF 7F 73 67 33 30 01 56  13 02 87 7F 47 80 80 13  ..sg30.V....G...
1300: 13 52 21 80 F8 FF FF 7F  F8 FF FF 7F 73 74 33 30  .R!.........st30
1310: 01 56 13 02 87 7F 48 80  80 2D 13 52 21 80 F8 FF  .V....H..-.R!...
1320: FF 7F F8 FF FF 7F 73 74  33 30 01 56 13 02 87 7F  ......st30.V....
1330: 49 80 80 47 13 52 21 80  F8 FF FF 7F F8 FF FF 7F  I..G.R!.........
1340: 73 67 33 30 01 56 13 52  21 80 F8 FF FF 7F F8 FF  sg30.V.R!.......
1350: FF 7F 73 30 33 30 45 21  80 F8 FF FF 7F F8 FF FF  ..s030E!........
1360: 7F 73 30 33 31 01 80 27  10 58 21 0A 01 0B 2B 58  .s031..'.X!...+X
1370: 21 0A 01 72 80 23 29 10  58 21 0A 01 0C 52 21 80  !..r.#).X!...R!.
1380: F8 FF FF 7F F8 FF FF 7F  73 30 33 31 45 21 80 F8  ........s031E!..
1390: FF FF 7F F8 FF FF 7F 73  30 33 32 01 80 27 10 59  .......s032..'.Y
13A0: 21 0A 01 0A 45 21 80 F8  FF FF 7F F8 FF FF 7F 31  !...E!.........1
13B0: 30 30 31 01 80 2B 59 21  0A 01 73 80 23 29 10 59  001..+Y!..s.#).Y
13C0: 21 0A 01 0B 27 10 57 21  0A 01 17 1C 2B 80 52 21  !...'.W!....+.R!
13D0: 80 F8 FF FF 7F F8 FF FF  7F 73 30 33 32 45 21 80  .........s032E!.
13E0: F8 FF FF 7F F8 FF FF 7F  73 30 33 33 01 80 45 21  ........s033..E!
13F0: 80 F8 FF FF 7F F8 FF FF  7F 31 30 30 37 01 80 2B  .........1007..+
1400: 57 21 0A 01 74 80 23 29  10 57 21 0A 01 18 1C 2B  W!..t.#).W!....+
1410: 80 23 1C 2B 80 52 21 80  F8 FF FF 7F F8 FF FF 7F  .#.+.R!.........
1420: 73 30 33 33 45 21 80 F8  FF FF 7F F8 FF FF 7F 73  s033E!.........s
1430: 30 33 34 01 80 27 10 57  21 0A 01 19 6E 5B 21 0A  034..'.W!...n[!.
1440: 01 48 80 99 5B 21 0A 01  03 09 10 8B 7F 2B 5B 21  .H..[!.......+[!
1450: 0A 01 75 80 1C 34 80 23  52 21 80 F8 FF FF 7F F8  ..u..4.#R!......
1460: FF FF 7F 73 30 33 34 45  21 80 F8 FF FF 7F F8 FF  ...s034E!.......
1470: FF 7F 73 30 33 35 01 80  27 10 5B 21 0A 01 09 2B  ..s035..'.[!...+
1480: 5B 21 0A 01 76 80 23 2B  5B 21 0A 01 77 80 23 2B  [!..v.#+[!..w.#+
1490: 5B 21 0A 01 78 80 23 29  10 5B 21 0A 01 0A 27 10  [!..x.#).[!...'.
14A0: 5B 21 0A 01 0B 52 21 80  F8 FF FF 7F F8 FF FF 7F  [!...R!.........
14B0: 73 30 33 35 45 21 80 F8  FF FF 7F F8 FF FF 7F 73  s035E!.........s
14C0: 30 33 36 01 80 27 10 57  21 0A 01 3D 79 00 5B 21  036..'.W!..=y.[!
14D0: 0A 01 57 21 0A 01 45 21  80 F8 FF FF 7F F8 FF FF  ..W!..E!........
14E0: 7F 31 30 30 34 01 80 2B  57 21 0A 01 79 80 23 29  .1004..+W!..y.#)
14F0: 10 57 21 0A 01 3E 52 21  80 F8 FF FF 7F F8 FF FF  .W!..>R!........
1500: 7F 73 30 33 36 45 21 80  F8 FF FF 7F F8 FF FF 7F  .s036E!.........
1510: 73 30 33 37 01 80 27 10  57 21 0A 01 37 45 21 80  s037..'.W!..7E!.
1520: F8 FF FF 7F F8 FF FF 7F  31 30 30 37 01 80 2B 57  ........1007..+W
1530: 21 0A 01 7A 80 1C 2D 80  27 10 57 21 0A 01 39 29  !..z..-.'.W!..9)
1540: 10 57 21 0A 01 3A 23 52  21 80 F8 FF FF 7F F8 FF  .W!..:#R!.......
1550: FF 7F 73 30 33 37 45 21  80 F8 FF FF 7F F8 FF FF  ..s037E!........
1560: 7F 73 30 33 38 01 80 27  10 57 21 0A 01 35 45 21  .s038..'.W!..5E!
1570: 80 F8 FF FF 7F F8 FF FF  7F 31 30 30 36 01 80 2B  .........1006..+
1580: 57 21 0A 01 7B 80 23 29  10 57 21 0A 01 36 52 21  W!..{.#).W!..6R!
1590: 80 F8 FF FF 7F F8 FF FF  7F 73 30 33 38 45 21 80  .........s038E!.
15A0: F8 FF FF 7F F8 FF FF 7F  73 30 33 39 01 80 27 10  ........s039..'.
15B0: 57 21 0A 01 07 2B 57 21  0A 01 7C 80 23 2B 57 21  W!...+W!..|.#+W!
15C0: 0A 01 7D 80 23 2B 57 21  0A 01 7E 80 23 52 21 80  ..}.#+W!..~.#R!.
15D0: F8 FF FF 7F F8 FF FF 7F  73 30 33 39 45 21 80 F8  ........s039E!..
15E0: FF FF 7F F8 FF FF 7F 73  30 34 30 01 80 45 21 80  .......s040..E!.
15F0: F8 FF FF 7F F8 FF FF 7F  31 30 31 35 01 80 2B 57  ........1015..+W
1600: 21 0A 01 7F 80 23 29 10  57 21 0A 01 08 27 10 57  !....#).W!...'.W
1610: 21 0A 01 09 2B 57 21 0A  01 80 80 23 29 10 57 21  !...+W!....#).W!
1620: 0A 01 0A 52 21 80 F8 FF  FF 7F F8 FF FF 7F 73 30  ...R!.........s0
1630: 34 30 45 21 80 F8 FF FF  7F F8 FF FF 7F 73 30 34  40E!.........s04
1640: 31 01 80 27 10 57 21 0A  01 35 2B 57 21 0A 01 81  1..'.W!..5+W!...
1650: 80 23 29 10 57 21 0A 01  36 27 10 57 21 0A 01 05  .#).W!..6'.W!...
1660: 29 10 57 21 0A 01 06 1C  06 80 4A 57 21 0A 01 F0  ).W!......JW!...
1670: FF FF 7F 6F 76 57 21 0A  01 1C 3F 80 27 10 57 21  ...ovW!...?.'.W!
1680: 0A 01 3D 2B 57 21 0A 01  82 80 23 79 00 F0 FF FF  ..=+W!....#y....
1690: 7F 57 21 0A 01 29 10 57  21 0A 01 3E 03 00 10 01  .W!..).W!..>....
16A0: 80 02 00 10 01 80 00 68  17 24 83 80 01 80 01 80  .......h.$......
16B0: 25 02 00 10 01 80 00 32  17 6E F0 FF FF 7F 53 80  %......2.n....S.
16C0: 99 F0 FF FF 7F 1C 26 80  52 21 80 F8 FF FF 7F F8  ......&.R!......
16D0: FF FF 7F 73 30 34 31 45  21 80 F8 FF FF 7F F8 FF  ...s041E!.......
16E0: FF 7F 73 30 34 32 01 80  27 10 57 21 0A 01 3B 45  ..s042..'.W!..;E
16F0: 21 80 F8 FF FF 7F F8 FF  FF 7F 31 30 30 37 01 80  !.........1007..
1700: 2B 57 21 0A 01 84 80 29  10 57 21 0A 01 3C 23 52  +W!....).W!..<#R
1710: 21 80 F8 FF FF 7F F8 FF  FF 7F 73 30 34 32 45 21  !.........s042E!
1720: 80 F8 FF FF 7F F8 FF FF  7F 73 30 34 31 01 80 01  .........s041...
1730: 65 17 02 00 10 03 80 00  65 17 6E F0 FF FF 7F 48  e.......e.n....H
1740: 80 99 F0 FF FF 7F 1C 2D  80 79 00 F0 FF FF 7F 5B  .......-.y.....[
1750: 21 0A 01 4A 57 21 0A 01  5B 21 0A 01 6F 76 57 21  !..JW!..[!..ovW!
1760: 0A 01 01 65 17 01 A1 16  52 21 80 F8 FF FF 7F F8  ...e....R!......
1770: FF FF 7F 73 30 34 31 45  21 80 F8 FF FF 7F F8 FF  ...s041E!.......
1780: FF 7F 73 30 34 33 01 80  7B 5B 21 0A 01 27 10 5B  ..s043..{[!..'.[
1790: 21 0A 01 23 2B 5B 21 0A  01 85 80 23 29 10 5B 21  !..#+[!....#).[!
17A0: 0A 01 24 52 21 80 F8 FF  FF 7F F8 FF FF 7F 73 30  ..$R!.........s0
17B0: 34 33 45 21 80 F8 FF FF  7F F8 FF FF 7F 73 30 34  43E!.........s04
17C0: 34 01 80 27 10 57 21 0A  01 35 45 21 80 F8 FF FF  4..'.W!..5E!....
17D0: 7F F8 FF FF 7F 31 30 30  37 01 80 2B 57 21 0A 01  .....1007..+W!..
17E0: 86 80 23 2B 57 21 0A 01  87 80 23 29 10 57 21 0A  ..#+W!....#).W!.
17F0: 01 36 52 21 80 F8 FF FF  7F F8 FF FF 7F 73 30 34  .6R!.........s04
1800: 34 45 21 80 F8 FF FF 7F  F8 FF FF 7F 73 30 34 35  4E!.........s045
1810: 01 80 27 10 5B 21 0A 01  27 2B 5B 21 0A 01 88 80  ..'.[!..'+[!....
1820: 23 29 10 5B 21 0A 01 28  27 10 5B 21 0A 01 25 2B  #).[!..('.[!..%+
1830: 5B 21 0A 01 89 80 29 10  5B 21 0A 01 26 79 00 5B  [!....).[!..&y.[
1840: 21 0A 01 57 21 0A 01 23  45 21 80 F8 FF FF 7F F8  !..W!..#E!......
1850: FF FF 7F 38 32 31 33 01  80 60 02 64 30 6F 6E 5D  ...8213..`.d0on]
1860: 01 80 2B 80 52 21 80 F8  FF FF 7F F8 FF FF 7F 73  ..+.R!.........s
1870: 30 34 35 45 21 80 F8 FF  FF 7F F8 FF FF 7F 73 30  045E!.........s0
1880: 34 36 01 80 1C 34 80 5C  00 8A 80 5C 01 8A 80 9A  46...4.\...\....
1890: 5D 20 80 03 80 52 21 80  F8 FF FF 7F F8 FF FF 7F  ] ...R!.........
18A0: 73 30 34 36 45 21 80 F8  FF FF 7F F8 FF FF 7F 73  s046E!.........s
18B0: 30 34 37 01 80 1C 08 80  52 21 80 F8 FF FF 7F F8  047.....R!......
18C0: FF FF 7F 73 30 34 37 45  21 80 F8 FF FF 7F F8 FF  ...s047E!.......
18D0: FF 7F 73 30 34 38 01 80  27 10 57 21 0A 01 43 27  ..s048..'.W!..C'
18E0: 10 58 21 0A 01 05 27 10  59 21 0A 01 0A 6E F0 FF  .X!...'.Y!...n..
18F0: FF 7F 8B 80 99 F0 FF FF  7F 1C 24 80 7B 5B 21 0A  ..........$.{[!.
1900: 01 1C 2B 80 52 21 80 F8  FF FF 7F F8 FF FF 7F 73  ..+.R!.........s
1910: 30 34 38 45 21 80 F8 FF  FF 7F F8 FF FF 7F 73 30  048E!.........s0
1920: 34 39 01 80 27 10 58 21  0A 01 07 C5 8C 80 5B 21  49..'.X!......[!
1930: 0A 01 5B 21 0A 01 73 30  30 30 01 80 81 00 5B 21  ..[!..s000....[!
1940: 0A 01 27 10 5B 21 0A 01  2F 45 21 80 5B 21 0A 01  ..'.[!../E!.[!..
1950: 5B 21 0A 01 65 69 30 30  01 80 2B 5B 21 0A 01 8D  [!..ei00..+[!...
1960: 80 29 10 5B 21 0A 01 30  1C 2B 80 52 21 80 F8 FF  .).[!..0.+.R!...
1970: FF 7F F8 FF FF 7F 73 30  34 39 45 21 80 F8 FF FF  ......s049E!....
1980: 7F F8 FF FF 7F 73 30 35  30 01 80 45 21 80 5B 21  .....s050..E!.[!
1990: 0A 01 5B 21 0A 01 73 61  35 30 01 80 C5 8C 80 5B  ..[!..sa50.....[
19A0: 21 0A 01 5B 21 0A 01 73  30 30 31 01 80 1C 2D 80  !..[!..s001...-.
19B0: C5 8C 80 5B 21 0A 01 5B  21 0A 01 73 30 30 32 01  ...[!..[!..s002.
19C0: 80 27 10 5B 21 0A 01 31  45 21 80 5B 21 0A 01 5B  .'.[!..1E!.[!..[
19D0: 21 0A 01 65 69 30 31 01  80 29 10 5B 21 0A 01 32  !..ei01..).[!..2
19E0: C5 8C 80 5B 21 0A 01 5B  21 0A 01 73 30 30 33 01  ...[!..[!..s003.
19F0: 80 27 10 5B 21 0A 01 37  45 21 80 5B 21 0A 01 5B  .'.[!..7E!.[!..[
1A00: 21 0A 01 65 69 30 32 01  80 1C 06 80 52 21 80 F8  !..ei02.....R!..
1A10: FF FF 7F F8 FF FF 7F 73  30 35 30 45 21 80 F8 FF  .......s050E!...
1A20: FF 7F F8 FF FF 7F 73 30  35 31 01 80 29 10 5B 21  ......s051..).[!
1A30: 0A 01 38 C5 8C 80 5B 21  0A 01 5B 21 0A 01 73 30  ..8...[!..[!..s0
1A40: 30 34 01 80 27 10 5B 21  0A 01 35 45 21 80 5B 21  04..'.[!..5E!.[!
1A50: 0A 01 5B 21 0A 01 65 69  61 33 01 80 27 10 57 21  ..[!..eia3..'.W!
1A60: 0A 01 1F 27 10 58 21 0A  01 05 6E F0 FF FF 7F 8B  ...'.X!...n.....
1A70: 80 99 F0 FF FF 7F 29 10  5B 21 0A 01 36 27 10 58  ......).[!..6'.X
1A80: 21 0A 01 07 C5 8C 80 5B  21 0A 01 5B 21 0A 01 73  !......[!..[!..s
1A90: 30 30 35 01 80 1C 2D 80  45 21 80 5B 21 0A 01 5B  005...-.E!.[!..[
1AA0: 21 0A 01 65 69 6B 33 01  80 45 21 80 5B 21 0A 01  !..eik3..E!.[!..
1AB0: 5B 21 0A 01 65 69 6B 34  01 80 C5 8C 80 5B 21 0A  [!..eik4.....[!.
1AC0: 01 5B 21 0A 01 6B 69 6C  61 01 80 6B 69 64 6C 30  .[!..kila..kidl0
1AD0: 5B 21 0A 01 81 01 5B 21  0A 01 52 21 80 F8 FF FF  [!....[!..R!....
1AE0: 7F F8 FF FF 7F 73 30 35  31 45 21 80 F8 FF FF 7F  .....s051E!.....
1AF0: F8 FF FF 7F 73 30 35 32  01 80 1C 2B 80 C5 8E 80  ....s052...+....
1B00: 5C 21 0A 01 5C 21 0A 01  73 30 30 30 01 80 1C 2D  \!..\!..s000...-
1B10: 80 4B 58 21 0A 01 8F 80  45 21 80 F8 FF FF 7F F8  .KX!....E!......
1B20: FF FF 7F 30 30 30 35 01  80 2B 58 21 0A 01 90 80  ...0005..+X!....
1B30: 1C 91 80 4B 57 21 0A 01  92 80 4B 59 21 0A 01 93  ...KW!....KY!...
1B40: 80 4B F0 FF FF 7F 94 80  1C 95 80 52 21 80 F8 FF  .K.........R!...
1B50: FF 7F F8 FF FF 7F 73 30  35 32 45 21 80 F8 FF FF  ......s052E!....
1B60: 7F F8 FF FF 7F 73 30 35  33 01 80 C5 31 80 5C 21  .....s053...1.\!
1B70: 0A 01 5C 21 0A 01 73 61  30 30 01 80 1C 2B 80 4A  ..\!..sa00...+.J
1B80: 57 21 0A 01 5C 21 0A 01  4A 58 21 0A 01 5C 21 0A  W!..\!..JX!..\!.
1B90: 01 4A 59 21 0A 01 5C 21  0A 01 4A F0 FF FF 7F 5C  .JY!..\!..J....\
1BA0: 21 0A 01 1C 2B 80 BA 5C  21 0A 01 1A 80 01 80 01  !...+..\!.......
1BB0: 80 01 80 1C 2B 80 27 10  5C 21 0A 01 04 52 21 80  ....+.'.\!...R!.
1BC0: F8 FF FF 7F F8 FF FF 7F  73 30 35 33 45 21 80 F8  ........s053E!..
1BD0: FF FF 7F F8 FF FF 7F 73  30 35 34 01 80 1C 24 80  .......s054...$.
1BE0: 52 21 80 F8 FF FF 7F F8  FF FF 7F 73 30 35 34 45  R!.........s054E
1BF0: 21 80 F8 FF FF 7F F8 FF  FF 7F 73 30 35 35 01 80  !.........s055..
1C00: 1C 2D 80 4A 5B 21 0A 01  5C 21 0A 01 6F 76 5B 21  .-.J[!..\!..ov[!
1C10: 0A 01 1C 06 80 7B 5B 21  0A 01 27 10 5B 21 0A 01  .....{[!..'.[!..
1C20: 29 1C 43 80 52 21 80 F8  FF FF 7F F8 FF FF 7F 73  ).C.R!.........s
1C30: 30 35 35 45 21 80 F8 FF  FF 7F F8 FF FF 7F 73 30  055E!.........s0
1C40: 35 36 01 80 27 10 58 21  0A 01 0F 45 21 80 F8 FF  56..'.X!...E!...
1C50: FF 7F F8 FF FF 7F 30 30  31 34 01 80 2B 58 21 0A  ......0014..+X!.
1C60: 01 96 80 23 29 10 58 21  0A 01 10 52 21 80 F8 FF  ...#).X!...R!...
1C70: FF 7F F8 FF FF 7F 73 30  35 36 45 21 80 F8 FF FF  ......s056E!....
1C80: 7F F8 FF FF 7F 73 30 35  37 01 80 27 10 57 21 0A  .....s057..'.W!.
1C90: 01 1F 45 21 80 F8 FF FF  7F F8 FF FF 7F 31 30 30  ..E!.........100
1CA0: 37 01 80 2B 57 21 0A 01  97 80 23 29 10 57 21 0A  7..+W!....#).W!.
1CB0: 01 20 27 10 57 21 0A 01  21 52 21 80 F8 FF FF 7F  . '.W!..!R!.....
1CC0: F8 FF FF 7F 73 30 35 37  45 21 80 F8 FF FF 7F F8  ....s057E!......
1CD0: FF FF 7F 73 30 35 38 01  80 27 10 59 21 0A 01 0A  ...s058..'.Y!...
1CE0: 45 21 80 F8 FF FF 7F F8  FF FF 7F 31 30 30 31 01  E!.........1001.
1CF0: 80 2B 59 21 0A 01 98 80  23 29 10 59 21 0A 01 0B  .+Y!....#).Y!...
1D00: 52 21 80 F8 FF FF 7F F8  FF FF 7F 73 30 35 38 45  R!.........s058E
1D10: 21 80 F8 FF FF 7F F8 FF  FF 7F 73 30 35 39 01 80  !.........s059..
1D20: 2B 5B 21 0A 01 99 80 23  29 10 5B 21 0A 01 2A 27  +[!....#).[!..*'
1D30: 10 5B 21 0A 01 2B 29 10  5B 21 0A 01 2C 4A 5B 21  .[!..+).[!..,J[!
1D40: 0A 01 F0 FF FF 7F 7B 5B  21 0A 01 52 21 80 F8 FF  ......{[!..R!...
1D50: FF 7F F8 FF FF 7F 73 30  35 39 45 21 80 F8 FF FF  ......s059E!....
1D60: 7F F8 FF FF 7F 73 30 36  30 01 80 6F 76 5B 21 0A  .....s060..ov[!.
1D70: 01 81 00 5B 21 0A 01 7C  00 5B 21 0A 01 27 10 5B  ...[!..|.[!..'.[
1D80: 21 0A 01 1B 2B 5B 21 0A  01 9A 80 1C 43 80 81 01  !...+[!.....C...
1D90: 5B 21 0A 01 7C 01 5B 21  0A 01 52 21 80 F8 FF FF  [!..|.[!..R!....
1DA0: 7F F8 FF FF 7F 73 30 36  30 45 21 80 F8 FF FF 7F  .....s060E!.....
1DB0: F8 FF FF 7F 73 30 36 31  01 80 9F 9B 80 5C 21 0A  ....s061.....\!.
1DC0: 01 5C 21 0A 01 73 65 73  70 01 80 45 21 80 F8 FF  .\!..sesp..E!...
1DD0: FF 7F F8 FF FF 7F 34 31  33 31 01 80 5B 9C 80 5C  ......4131..[..\
1DE0: 21 0A 01 5C 21 0A 01 68  6F 75 31 53 5C 21 0A 01  !..\!..hou1S\!..
1DF0: 5C 21 0A 01 68 6F 75 31  9F 9B 80 5C 21 0A 01 5C  \!..hou1...\!..\
1E00: 21 0A 01 62 68 73 65 01  80 45 21 80 F8 FF FF 7F  !..bhse..E!.....
1E10: F8 FF FF 7F 38 31 35 38  01 80 1A A6 00 1C 2D 80  ....8158......-.
1E20: 1A 64 00 45 21 80 F8 FF  FF 7F F8 FF FF 7F 62 6C  .d.E!.........bl
1E30: 6F 66 01 80 52 21 80 F8  FF FF 7F F8 FF FF 7F 73  of..R!.........s
1E40: 30 36 31 1A 96 01 D9 01  35 9D 80 78 5C 00 9E 80  061.....5..x\...
1E50: 5C 01 9E 80 9A 5D 20 80  03 80 1C 91 80 AB 11 01  \....] .........
1E60: 80 1C 03 80 AB 0A 46 00  45 00 80 F8 FF FF 7F F8  ......F.E.......
1E70: FF FF 7F 66 64 69 32 01  80 21 00                 ...fdi2..!.     
```

#### Opcodes

```
  0: 0x0292 [0x42] SET_CLI_EVENT_CANCEL_DATA()
  1: 0x0293 [0x5D] SET_MUSIC_VOLUME(volume=0*, fade_time=300*)
  2: 0x0298 [0x1A] CALL_SUBROUTINE(address=0x0064)
  3: 0x029B [0x46] CAMERA_CONTROL: Disable user control
  4: 0x029D [0x38] SET_CLIENT_EVENT_MODE(mode=147*)
  5: 0x02A0 [0xD9] SET_SOUND_EFFECT_LIMIT_FLAG(flag_value=0x00)
  6: 0x02A2 [0x34] LOAD_UNLOAD_ZONE(zone_id=722*)
  7: 0x02A5 [0x77] SET_EVENT_TIME_WEATHER(hour=255*, weather=1*)
  8: 0x02AA [0xAB] EventEntity->UnknownFlag = 1 // Enable unknown flag
  9: 0x02AC [0x1C] WAIT(1* ticks)
 10: 0x02AF [0x2F] Gloom Phantom (ID: 17441111/0x010A2157)->Render.Flags0 &= ~0x80000 // Bit 19
 11: 0x02B5 [0x2F] Magh Bihu (ID: 17441112/0x010A2158)->Render.Flags0 &= ~0x80000 // Bit 19
 12: 0x02BB [0x2F] Dazbog (ID: 17441113/0x010A2159)->Render.Flags0 &= ~0x80000 // Bit 19
 13: 0x02C1 [0x2F] Garazu-Horeizu (ID: 17441114/0x010A215A)->Render.Flags0 &= ~0x80000 // Bit 19
 14: 0x02C7 [0x2F] Garazu-Horeizu (ID: 17441115/0x010A215B)->Render.Flags0 &= ~0x80000 // Bit 19
 15: 0x02CD [0x2F] Chaos (ID: 17441116/0x010A215C)->Render.Flags0 &= ~0x80000 // Bit 19
 16: 0x02D3 [0x4E] SET_ENTITY_HIDE_FLAG: Show Gloom Phantom (ID: 17441111/0x010A2157)
 17: 0x02D9 [0x4E] SET_ENTITY_HIDE_FLAG: Show Magh Bihu (ID: 17441112/0x010A2158)
 18: 0x02DF [0x4E] SET_ENTITY_HIDE_FLAG: Show Dazbog (ID: 17441113/0x010A2159)
 19: 0x02E5 [0x4E] SET_ENTITY_HIDE_FLAG: Show Garazu-Horeizu (ID: 17441114/0x010A215A)
 20: 0x02EB [0x4E] SET_ENTITY_HIDE_FLAG: Show Garazu-Horeizu (ID: 17441115/0x010A215B)
 21: 0x02F1 [0x4E] SET_ENTITY_HIDE_FLAG: Show Chaos (ID: 17441116/0x010A215C)
 22: 0x02F7 [0x94] Gloom Phantom (ID: 17441111/0x010A2157)->Render.Flags3 ^= 0x01
 23: 0x02FD [0x94] Magh Bihu (ID: 17441112/0x010A2158)->Render.Flags3 ^= 0x01
 24: 0x0303 [0x94] Dazbog (ID: 17441113/0x010A2159)->Render.Flags3 ^= 0x01
 25: 0x0309 [0x94] Garazu-Horeizu (ID: 17441114/0x010A215A)->Render.Flags3 ^= 0x01
 26: 0x030F [0x94] Garazu-Horeizu (ID: 17441115/0x010A215B)->Render.Flags3 ^= 0x01
 27: 0x0315 [0x94] Chaos (ID: 17441116/0x010A215C)->Render.Flags3 ^= 0x01
 28: 0x031B [0x94] LocalPlayer->Render.Flags3 ^= 0x01
 29: 0x0321 [0xBA] SET_ENTITY_POSITION(entity_id=Gloom Phantom (ID: 17441111/0x010A2157), pos_x=13.000*, pos_z=0.000*, pos_y=0.000*, direction=180.0*)
 30: 0x032E [0xBA] SET_ENTITY_POSITION(entity_id=Magh Bihu (ID: 17441112/0x010A2158), pos_x=13.094*, pos_z=-2.442*, pos_y=-0.104*, direction=183.8*)
 31: 0x033B [0xBA] SET_ENTITY_POSITION(entity_id=Dazbog (ID: 17441113/0x010A2159), pos_x=13.197*, pos_z=2.700*, pos_y=-0.104*, direction=165.3*)
 32: 0x0348 [0x59] UPDATE_ENTITY_DATA: Garazu-Horeizu (ID: 17441114/0x010A215A)->Render.Flags0 |= 0x200000
 33: 0x034F [0xBA] SET_ENTITY_POSITION(entity_id=Garazu-Horeizu (ID: 17441114/0x010A215A), pos_x=5.500*, pos_z=0.000*, pos_y=-2.000*, direction=0.0*)
 34: 0x035C [0xBA] SET_ENTITY_POSITION(entity_id=Garazu-Horeizu (ID: 17441115/0x010A215B), pos_x=5.618*, pos_z=1.620*, pos_y=-0.104*, direction=52.8*)
 35: 0x0369 [0xBA] SET_ENTITY_POSITION(entity_id=Chaos (ID: 17441116/0x010A215C), pos_x=-9.000*, pos_z=0.000*, pos_y=0.000*, direction=377476106.7*)
 36: 0x0376 [0xBA] SET_ENTITY_POSITION(entity_id=LocalPlayer, pos_x=34.000*, pos_z=0.000*, pos_y=0.000*, direction=180.0*)
 37: 0x0383 [0x80] LOAD_WAIT(entity=Gloom Phantom (ID: 17441111/0x010A2157))
 38: 0x0388 [0x80] LOAD_WAIT(entity=Magh Bihu (ID: 17441112/0x010A2158))
 39: 0x038D [0x80] LOAD_WAIT(entity=Dazbog (ID: 17441113/0x010A2159))
 40: 0x0392 [0x80] LOAD_WAIT(entity=Garazu-Horeizu (ID: 17441114/0x010A215A))
 41: 0x0397 [0x80] LOAD_WAIT(entity=Garazu-Horeizu (ID: 17441115/0x010A215B))
 42: 0x039C [0x80] LOAD_WAIT(entity=Chaos (ID: 17441116/0x010A215C))
 43: 0x03A1 [0x80] LOAD_WAIT(entity=LocalPlayer)
 44: 0x03A6 [0x66] LOAD_EXT_SCHEDULER_MAIN: Load scheduler "syo0" with entities [Garazu-Horeizu (ID: 17441114/0x010A215A), Garazu-Horeizu (ID: 17441114/0x010A215A)], work=185*
 45: 0x03B5 [0x53] WAIT_SCHEDULER_TASK: Wait for scheduler "syo0" with entities [Garazu-Horeizu (ID: 17441114/0x010A215A), Garazu-Horeizu (ID: 17441114/0x010A215A)]
 46: 0x03C2 [0x66] LOAD_EXT_SCHEDULER_MAIN: Load scheduler "kak0" with entities [Garazu-Horeizu (ID: 17441115/0x010A215B), Garazu-Horeizu (ID: 17441115/0x010A215B)], work=112*
 47: 0x03D1 [0x27] REQ_SET(priority=0x10, entity_id=Garazu-Horeizu (ID: 17441114/0x010A215A), tag_num=0x55)
 48: 0x03D8 [0x27] REQ_SET(priority=0x10, entity_id=Garazu-Horeizu (ID: 17441115/0x010A215B), tag_num=0x54)
 49: 0x03DF [0x27] REQ_SET(priority=0x10, entity_id=Chaos (ID: 17441116/0x010A215C), tag_num=0x03)
 50: 0x03E6 [0x5C] MUSIC_CONTROL: Set Idle (Day) music to song 31*
 51: 0x03EA [0x5C] MUSIC_CONTROL: Set Idle (Night) music to song 31*
 52: 0x03EE [0x9A] WAIT_MUSIC_SERVER()
 53: 0x03EF [0x5D] SET_MUSIC_VOLUME(volume=127*, fade_time=1*)
 54: 0x03F4 [0x27] REQ_SET(priority=0x10, entity_id=Magh Bihu (ID: 17441112/0x010A2158), tag_num=0x0D)
 55: 0x03FB [0x29] REQ_SET_WAIT(priority=0x10, entity_id=Magh Bihu (ID: 17441112/0x010A2158), tag_num=0x0E)
 56: 0x0402 [0x27] REQ_SET(priority=0x10, entity_id=Gloom Phantom (ID: 17441111/0x010A2157), tag_num=0x3F)
 57: 0x0409 [0x27] REQ_SET(priority=0x10, entity_id=LocalPlayer, tag_num=0x12)
 58: 0x0410 [0x45] LOAD_SCHEDULED_TASK: Load scheduler "s000" with entities [EventEntity, EventEntity], work=[903*, 0*]
 59: 0x0421 [0x1A] CALL_SUBROUTINE(address=0x0043)
 60: 0x0424 [0x27] REQ_SET(priority=0x10, entity_id=Dazbog (ID: 17441113/0x010A2159), tag_num=0x0A)
 61: 0x042B [0x1C] WAIT(150* ticks)
 62: 0x042E [0x52] END_LOAD_SCHEDULER: End scheduler "s000" with entities [EventEntity, EventEntity], work=903*
 63: 0x043D [0x45] LOAD_SCHEDULED_TASK: Load scheduler "s001" with entities [EventEntity, EventEntity], work=[903*, 0*]
 64: 0x044E [0x27] REQ_SET(priority=0x10, entity_id=Gloom Phantom (ID: 17441111/0x010A2157), tag_num=0x41)
 65: 0x0455 [0x1C] WAIT(300* ticks)
 66: 0x0458 [0x52] END_LOAD_SCHEDULER: End scheduler "s001" with entities [EventEntity, EventEntity], work=903*
 67: 0x0467 [0x45] LOAD_SCHEDULED_TASK: Load scheduler "s002" with entities [EventEntity, EventEntity], work=[903*, 0*]
 68: 0x0478 [0x27] REQ_SET(priority=0x10, entity_id=Gloom Phantom (ID: 17441111/0x010A2157), tag_num=0x43)
 69: 0x047F [0x45] LOAD_SCHEDULED_TASK: Load scheduler "1007" with entities [EventEntity, EventEntity], work=[903*, 0*]
 70: 0x0490 [0x2B] Gloom Phantom (ID: 17441111/0x010A2157) [7399*]:
     "It's completely different in here than it is out there! What's going on!?"
 71: 0x0497 [0x1C] WAIT(240* ticks)
 72: 0x049A [0x23] WAIT_FOR_DIALOG_INTERACTION
 73: 0x049B [0x27] REQ_SET(priority=0x10, entity_id=Magh Bihu (ID: 17441112/0x010A2158), tag_num=0x15)
 74: 0x04A2 [0x1C] WAIT(30* ticks)
 75: 0x04A5 [0x27] REQ_SET(priority=0x10, entity_id=Gloom Phantom (ID: 17441111/0x010A2157), tag_num=0x45)
 76: 0x04AC [0x52] END_LOAD_SCHEDULER: End scheduler "s002" with entities [EventEntity, EventEntity], work=903*
 77: 0x04BB [0x45] LOAD_SCHEDULED_TASK: Load scheduler "s003" with entities [EventEntity, EventEntity], work=[903*, 0*]
 78: 0x04CC [0x79] LocalPlayer looks at Magh Bihu (ID: 17441112/0x010A2158) (Basic look)
 79: 0x04D6 [0x2B] Magh Bihu (ID: 17441112/0x010A2158) [7400*]:
     "It must be due to opening the gate to the underworld."
 80: 0x04DD [0x2A] GET_REQ_LEVEL(level=16, entity_id=Magh Bihu (ID: 17441112/0x010A2158))
 81: 0x04E3 [0x1C] WAIT(90* ticks)
 82: 0x04E6 [0x52] END_LOAD_SCHEDULER: End scheduler "s003" with entities [EventEntity, EventEntity], work=903*
 83: 0x04F5 [0x45] LOAD_SCHEDULED_TASK: Load scheduler "s004" with entities [EventEntity, EventEntity], work=[903*, 0*]
 84: 0x0506 [0x2B] Magh Bihu (ID: 17441112/0x010A2158) [7401*]:
     "This area has been interspersed with Valhalla, and it's throwing everything off."
 85: 0x050D [0x1C] WAIT(300* ticks)
 86: 0x0510 [0x52] END_LOAD_SCHEDULER: End scheduler "s004" with entities [EventEntity, EventEntity], work=903*
 87: 0x051F [0x45] LOAD_SCHEDULED_TASK: Load scheduler "s005" with entities [EventEntity, EventEntity], work=[903*, 0*]
 88: 0x0530 [0x27] REQ_SET(priority=0x10, entity_id=Dazbog (ID: 17441113/0x010A2159), tag_num=0x0A)
 89: 0x0537 [0x45] LOAD_SCHEDULED_TASK: Load scheduler "1001" with entities [EventEntity, EventEntity], work=[903*, 0*]
 90: 0x0548 [0x2B] Dazbog (ID: 17441113/0x010A2159) [7402*]:
     "Th-this place is really cold. It seeps into your v-very soul..."
 91: 0x054F [0x79] LocalPlayer looks at Dazbog (ID: 17441113/0x010A2159) (Basic look)
 92: 0x0559 [0x29] REQ_SET_WAIT(priority=0x10, entity_id=Dazbog (ID: 17441113/0x010A2159), tag_num=0x0B)
 93: 0x0560 [0x23] WAIT_FOR_DIALOG_INTERACTION
 94: 0x0561 [0x4A] Magh Bihu (ID: 17441112/0x010A2158) looks at Gloom Phantom (ID: 17441111/0x010A2157)
 95: 0x056A [0x27] REQ_SET(priority=0x10, entity_id=Magh Bihu (ID: 17441112/0x010A2158), tag_num=0x16)
 96: 0x0571 [0x52] END_LOAD_SCHEDULER: End scheduler "s005" with entities [EventEntity, EventEntity], work=903*
 97: 0x0580 [0x45] LOAD_SCHEDULED_TASK: Load scheduler "s006" with entities [EventEntity, EventEntity], work=[903*, 0*]
 98: 0x0591 [0x79] LocalPlayer looks at Gloom Phantom (ID: 17441111/0x010A2157) (Basic look)
 99: 0x059B [0x27] REQ_SET(priority=0x10, entity_id=Gloom Phantom (ID: 17441111/0x010A2157), tag_num=0x07)
100: 0x05A2 [0x45] LOAD_SCHEDULED_TASK: Load scheduler "1007" with entities [EventEntity, EventEntity], work=[903*, 0*]
101: 0x05B3 [0x2B] Gloom Phantom (ID: 17441111/0x010A2157) [7403*]:
     "Well, Valhalla is where people go when they die!"
102: 0x05BA [0x23] WAIT_FOR_DIALOG_INTERACTION
103: 0x05BB [0x29] REQ_SET_WAIT(priority=0x10, entity_id=Gloom Phantom (ID: 17441111/0x010A2157), tag_num=0x08)
104: 0x05C2 [0x52] END_LOAD_SCHEDULER: End scheduler "s006" with entities [EventEntity, EventEntity], work=903*
105: 0x05D1 [0x45] LOAD_SCHEDULED_TASK: Load scheduler "s007" with entities [EventEntity, EventEntity], work=[903*, 0*]
106: 0x05E2 [0x27] REQ_SET(priority=0x10, entity_id=Gloom Phantom (ID: 17441111/0x010A2157), tag_num=0x47)
107: 0x05E9 [0x2B] Gloom Phantom (ID: 17441111/0x010A2157) [7404*]:
     "So maybe since Valhalla has partially merged with this world, it means we're also half dead?"
108: 0x05F0 [0x23] WAIT_FOR_DIALOG_INTERACTION
109: 0x05F1 [0x29] REQ_SET_WAIT(priority=0x10, entity_id=Gloom Phantom (ID: 17441111/0x010A2157), tag_num=0x48)
110: 0x05F8 [0x2A] GET_REQ_LEVEL(level=16, entity_id=Magh Bihu (ID: 17441112/0x010A2158))
111: 0x05FE [0xB4] UI_WINDOW_STRING_HANDLER(case=0x00 - Copy string from opcode, work_offset=ExtData[1]->WorkLocal[1], string="???")
112: 0x0612 [0xB5] SET_EVENT_ENTITY_NAME: Change EventEntity name to ExtData[1]->WorkLocal[1]
113: 0x0616 [0x5D] SET_MUSIC_VOLUME(volume=0*, fade_time=60*)
114: 0x061B [0xB0] PRINT_EVENT_MESSAGE(unknown1=0x00, speaker_id=EventEntity, listener_id=0x010A215A, message_offset=0x802C)
115: 0x0627 [0x1C] WAIT(120* ticks)
116: 0x062A [0x4B] UPDATE_ENTITY_YAW(entity=Magh Bihu (ID: 17441112/0x010A2158), yaw=11.5*)
117: 0x0631 [0x33] EventEntity->Render.Flags0 |= 0x200000 // Bit 21 (flag=0x01)
118: 0x0633 [0x37] UPDATE_EVENT_POSITION_AND_DIR: x=5.500*, z=5.000*, y=-3.200*, direction=0.0*
119: 0x063C [0x52] END_LOAD_SCHEDULER: End scheduler "s007" with entities [EventEntity, EventEntity], work=903*
120: 0x064B [0x45] LOAD_SCHEDULED_TASK: Load scheduler "s008" with entities [EventEntity, EventEntity], work=[903*, 0*]
121: 0x065C [0x27] REQ_SET(priority=0x10, entity_id=Gloom Phantom (ID: 17441111/0x010A2157), tag_num=0x43)
122: 0x0663 [0x27] REQ_SET(priority=0x10, entity_id=Magh Bihu (ID: 17441112/0x010A2158), tag_num=0x0B)
123: 0x066A [0x27] REQ_SET(priority=0x10, entity_id=Dazbog (ID: 17441113/0x010A2159), tag_num=0x0A)
124: 0x0671 [0x79] LocalPlayer looks at EventEntity (Basic look)
125: 0x067B [0x1C] WAIT(60* ticks)
126: 0x067E [0x37] UPDATE_EVENT_POSITION_AND_DIR: x=5.500*, z=-5.000*, y=-3.200*, direction=0.0*
127: 0x0687 [0x1C] WAIT(60* ticks)
128: 0x068A [0x37] UPDATE_EVENT_POSITION_AND_DIR: x=5.500*, z=0.000*, y=-3.200*, direction=0.0*
129: 0x0693 [0x22] ENTITY_HIDE_FLAG(enabled=0x00)
130: 0x0695 [0xC5] LOAD_SCHEDULED_TASK_ALT3: Load scheduler 0x80013130 for entities [EventEntity, EventEntity], work=195*, param=12403
131: 0x06A6 [0x5C] MUSIC_CONTROL: Set Idle (Day) music to song 27*
132: 0x06AA [0x5C] MUSIC_CONTROL: Set Idle (Night) music to song 27*
133: 0x06AE [0x9A] WAIT_MUSIC_SERVER()
134: 0x06AF [0x5D] SET_MUSIC_VOLUME(volume=127*, fade_time=1*)
135: 0x06B4 [0x29] REQ_SET_WAIT(priority=0x10, entity_id=Gloom Phantom (ID: 17441111/0x010A2157), tag_num=0x44)
136: 0x06BB [0x27] REQ_SET(priority=0x10, entity_id=Gloom Phantom (ID: 17441111/0x010A2157), tag_num=0x45)
137: 0x06C2 [0x4A] Gloom Phantom (ID: 17441111/0x010A2157) looks at Garazu-Horeizu (ID: 17441114/0x010A215A)
138: 0x06CB [0x4A] Magh Bihu (ID: 17441112/0x010A2158) looks at Garazu-Horeizu (ID: 17441114/0x010A215A)
139: 0x06D4 [0x4A] Dazbog (ID: 17441113/0x010A2159) looks at Garazu-Horeizu (ID: 17441114/0x010A215A)
140: 0x06DD [0x4A] LocalPlayer looks at Garazu-Horeizu (ID: 17441114/0x010A215A)
141: 0x06E6 [0x27] REQ_SET(priority=0x10, entity_id=Magh Bihu (ID: 17441112/0x010A2158), tag_num=0x0D)
142: 0x06ED [0x52] END_LOAD_SCHEDULER: End scheduler "s008" with entities [EventEntity, EventEntity], work=903*
143: 0x06FC [0x45] LOAD_SCHEDULED_TASK: Load scheduler "s009" with entities [EventEntity, EventEntity], work=[903*, 0*]
144: 0x070D [0x27] REQ_SET(priority=0x10, entity_id=Garazu-Horeizu (ID: 17441114/0x010A215A), tag_num=0x56)
145: 0x0714 [0x1C] WAIT(60* ticks)
146: 0x0717 [0xB0] PRINT_EVENT_MESSAGE(unknown1=0x00, speaker_id=EventEntity, listener_id=0x010A215A, message_offset=0x8033)
147: 0x0723 [0xC5] LOAD_SCHEDULED_TASK_ALT3: Load scheduler 0x80013330 for entities [EventEntity, EventEntity], work=195*, param=12403
148: 0x0734 [0x1C] WAIT(180* ticks)
149: 0x0737 [0x52] END_LOAD_SCHEDULER: End scheduler "s009" with entities [EventEntity, EventEntity], work=903*
150: 0x0746 [0x45] LOAD_SCHEDULED_TASK: Load scheduler "s010" with entities [EventEntity, EventEntity], work=[903*, 0*]
151: 0x0757 [0x27] REQ_SET(priority=0x10, entity_id=Gloom Phantom (ID: 17441111/0x010A2157), tag_num=0x1F)
152: 0x075E [0x27] REQ_SET(priority=0x10, entity_id=Magh Bihu (ID: 17441112/0x010A2158), tag_num=0x05)
153: 0x0765 [0x27] REQ_SET(priority=0x10, entity_id=Dazbog (ID: 17441113/0x010A2159), tag_num=0x0A)
154: 0x076C [0x6E] LocalPlayer uses emote 21*
155: 0x0773 [0x99] Wait for LocalPlayer animation to complete
156: 0x0778 [0xD5] LOAD_EVENT_SCHEDULER_ALT8: Load scheduler "sa" with entities [Garazu-Horeizu (ID: 17441114/0x010A215A), Garazu-Horeizu (ID: 17441114/0x010A215A)], work=ExtData[1]->WorkLocal[1]
157: 0x0789 [0x1C] WAIT(60* ticks)
158: 0x078C [0x59] UPDATE_ENTITY_DATA: Garazu-Horeizu (ID: 17441114/0x010A215A)->Render.Flags0 &= ~0x200000
159: 0x0793 [0xBA] SET_ENTITY_POSITION(entity_id=Garazu-Horeizu (ID: 17441114/0x010A215A), pos_x=5.500*, pos_z=0.000*, pos_y=0.000*, direction=0.0*)
160: 0x07A0 [0x1C] WAIT(60* ticks)
161: 0x07A3 [0x66] LOAD_EXT_SCHEDULER_MAIN: Load scheduler "kak0" with entities [Garazu-Horeizu (ID: 17441114/0x010A215A), Garazu-Horeizu (ID: 17441114/0x010A215A)], work=112*
162: 0x07B2 [0x52] END_LOAD_SCHEDULER: End scheduler "s010" with entities [EventEntity, EventEntity], work=903*
163: 0x07C1 [0x45] LOAD_SCHEDULED_TASK: Load scheduler "s011" with entities [EventEntity, EventEntity], work=[903*, 0*]
164: 0x07D2 [0x27] REQ_SET(priority=0x10, entity_id=Gloom Phantom (ID: 17441111/0x010A2157), tag_num=0x21)
165: 0x07D9 [0x27] REQ_SET(priority=0x10, entity_id=Magh Bihu (ID: 17441112/0x010A2158), tag_num=0x07)
166: 0x07E0 [0x1C] WAIT(60* ticks)
167: 0x07E3 [0x66] LOAD_EXT_SCHEDULER_MAIN: Load scheduler "kak1" with entities [Garazu-Horeizu (ID: 17441114/0x010A215A), Garazu-Horeizu (ID: 17441114/0x010A215A)], work=112*
168: 0x07F2 [0xB0] PRINT_EVENT_MESSAGE(unknown1=0x00, speaker_id=EventEntity, listener_id=0x010A215A, message_offset=0x8037)
169: 0x07FE [0x1C] WAIT(120* ticks)
170: 0x0801 [0xB4] UI_WINDOW_STRING_HANDLER(case=0x00 - Copy string from opcode, work_offset=ExtData[1]->WorkLocal[1], string="")
171: 0x0815 [0xB5] SET_EVENT_ENTITY_NAME: Change EventEntity name to ExtData[1]->WorkLocal[1]
172: 0x0819 [0x22] ENTITY_HIDE_FLAG(enabled=0x01)
173: 0x081B [0x37] UPDATE_EVENT_POSITION_AND_DIR: x=-554.000*, z=54.000*, y=-70.000*, direction=0.0*
174: 0x0824 [0x33] EventEntity->Render.Flags0 &= ~ 0x200000 // Bit 21 (flag=0x00)
175: 0x0826 [0x52] END_LOAD_SCHEDULER: End scheduler "s011" with entities [EventEntity, EventEntity], work=903*
176: 0x0835 [0x45] LOAD_SCHEDULED_TASK: Load scheduler "s012" with entities [EventEntity, EventEntity], work=[903*, 0*]
177: 0x0846 [0x27] REQ_SET(priority=0x10, entity_id=Gloom Phantom (ID: 17441111/0x010A2157), tag_num=0x1F)
178: 0x084D [0x45] LOAD_SCHEDULED_TASK: Load scheduler "1010" with entities [EventEntity, EventEntity], work=[903*, 0*]
179: 0x085E [0x2B] Gloom Phantom (ID: 17441111/0x010A2157) [7408*]:
     "You! You're the Maelstrom Mage, Garazu-Horeizu!"
180: 0x0865 [0x29] REQ_SET_WAIT(priority=0x10, entity_id=Gloom Phantom (ID: 17441111/0x010A2157), tag_num=0x20)
181: 0x086C [0x1C] WAIT(30* ticks)
182: 0x086F [0x27] REQ_SET(priority=0x10, entity_id=Garazu-Horeizu (ID: 17441114/0x010A215A), tag_num=0x58)
