# 17441120

## Common Data

| Field            | Value                       |
|------------------|-----------------------------|
| Zone             | Castle Zvahl Keep (ID: 162) |
| Block Size       | 1364 bytes                  |
| Total Events     | 68                          |
| References Count | 15                          |

## List of Events

| Event ID                   | Entrypoint   |   Size |   Instructions |
|----------------------------|--------------|--------|----------------|
| [65535](#event-65535)      | 0x0000       |      1 |              1 |
| [65535.1](#event-655351)   | 0x0001       |     16 |              2 |
| [65535.2](#event-655352)   | 0x0011       |     14 |              2 |
| [65535.3](#event-655353)   | 0x001F       |     16 |              2 |
| [65535.4](#event-655354)   | 0x002F       |     14 |              2 |
| [65535.5](#event-655355)   | 0x003D       |     16 |              2 |
| [65535.6](#event-655356)   | 0x004D       |     14 |              2 |
| [65535.7](#event-655357)   | 0x005B       |     16 |              2 |
| [65535.8](#event-655358)   | 0x006B       |     14 |              2 |
| [65535.9](#event-655359)   | 0x0079       |     57 |              5 |
| [65535.10](#event-6553510) | 0x00B2       |     16 |              2 |
| [65535.11](#event-6553511) | 0x00C2       |     14 |              2 |
| [65535.12](#event-6553512) | 0x00D0       |     16 |              2 |
| [65535.13](#event-6553513) | 0x00E0       |     14 |              2 |
| [65535.14](#event-6553514) | 0x00EE       |     16 |              2 |
| [65535.15](#event-6553515) | 0x00FE       |     14 |              2 |
| [65535.16](#event-6553516) | 0x010C       |     16 |              2 |
| [65535.17](#event-6553517) | 0x011C       |     14 |              2 |
| [65535.18](#event-6553518) | 0x012A       |     16 |              2 |
| [65535.19](#event-6553519) | 0x013A       |     14 |              2 |
| [65535.20](#event-6553520) | 0x0148       |     16 |              2 |
| [65535.21](#event-6553521) | 0x0158       |     14 |              2 |
| [65535.22](#event-6553522) | 0x0166       |     16 |              2 |
| [65535.23](#event-6553523) | 0x0176       |     14 |              2 |
| [65535.24](#event-6553524) | 0x0184       |     16 |              2 |
| [65535.25](#event-6553525) | 0x0194       |     14 |              2 |
| [65535.26](#event-6553526) | 0x01A2       |     16 |              2 |
| [65535.27](#event-6553527) | 0x01B2       |     14 |              2 |
| [65535.28](#event-6553528) | 0x01C0       |     16 |              2 |
| [65535.29](#event-6553529) | 0x01D0       |     14 |              2 |
| [65535.30](#event-6553530) | 0x01DE       |     16 |              2 |
| [65535.31](#event-6553531) | 0x01EE       |     14 |              2 |
| [65535.32](#event-6553532) | 0x01FC       |     16 |              2 |
| [65535.33](#event-6553533) | 0x020C       |     14 |              2 |
| [65535.34](#event-6553534) | 0x021A       |     16 |              2 |
| [65535.35](#event-6553535) | 0x022A       |     14 |              2 |
| [65535.36](#event-6553536) | 0x0238       |     16 |              2 |
| [65535.37](#event-6553537) | 0x0248       |     14 |              2 |
| [65535.38](#event-6553538) | 0x0256       |     16 |              2 |
| [65535.39](#event-6553539) | 0x0266       |     14 |              2 |
| [65535.40](#event-6553540) | 0x0274       |     16 |              2 |
| [65535.41](#event-6553541) | 0x0284       |     14 |              2 |
| [65535.42](#event-6553542) | 0x0292       |     16 |              2 |
| [65535.43](#event-6553543) | 0x02A2       |     14 |              2 |
| [65535.44](#event-6553544) | 0x02B0       |     16 |              2 |
| [65535.45](#event-6553545) | 0x02C0       |     14 |              2 |
| [65535.46](#event-6553546) | 0x02CE       |     16 |              2 |
| [65535.47](#event-6553547) | 0x02DE       |     14 |              2 |
| [65535.48](#event-6553548) | 0x02EC       |     16 |              2 |
| [65535.49](#event-6553549) | 0x02FC       |     14 |              2 |
| [65535.50](#event-6553550) | 0x030A       |     16 |              2 |
| [65535.51](#event-6553551) | 0x031A       |     14 |              2 |
| [65535.52](#event-6553552) | 0x0328       |     16 |              2 |
| [65535.53](#event-6553553) | 0x0338       |     14 |              2 |
| [65535.54](#event-6553554) | 0x0346       |     16 |              2 |
| [65535.55](#event-6553555) | 0x0356       |     14 |              2 |
| [65535.56](#event-6553556) | 0x0364       |     16 |              2 |
| [65535.57](#event-6553557) | 0x0374       |     14 |              2 |
| [65535.58](#event-6553558) | 0x0382       |     16 |              2 |
| [65535.59](#event-6553559) | 0x0392       |     14 |              2 |
| [65535.60](#event-6553560) | 0x03A0       |     16 |              2 |
| [65535.61](#event-6553561) | 0x03B0       |     14 |              2 |
| [125](#event-125)          | 0x03BE       |      7 |              2 |
| [126](#event-126)          | 0x03C5       |      7 |              2 |
| [65535.62](#event-6553562) | 0x03CC       |      7 |              3 |
| [65535.63](#event-6553563) | 0x03D3       |      7 |              3 |
| [127](#event-127)          | 0x03DA       |      7 |              2 |
| [65535.64](#event-6553564) | 0x03E1       |     22 |              8 |

## DAT References (imed_data)

|   Index | Hex Value   |   Dec Value |
|---------|-------------|-------------|
|       0 | 0x08B0      |        2224 |
|       1 | 0x08B1      |        2225 |
|       2 | 0x08B2      |        2226 |
|       3 | 0x08B3      |        2227 |
|       4 | 0x08B4      |        2228 |
|       5 | 0x08B5      |        2229 |
|       6 | 0x0ABB      |        2747 |
|       7 | 0x0C3E      |        3134 |
|       8 | 0x0ABE      |        2750 |
|       9 | 0x0001      |           1 |
|      10 | 0x0000      |           0 |
|      11 | 0x0028      |          40 |
|      12 | 0x3B1A      |       15130 |
|      13 | 0x069A      |        1690 |
|      14 | 0xFFFFE3E1  |  4294960097 |

## Events

### Event 65535

#### Metadata

| Field        | Value   |
|--------------|---------|
| Entrypoint   | 0x0000  |
| Data Size    | 1 bytes |
| Instructions | 1       |

```
      00 01 02 03 04 05 06 07  08 09 0A 0B 0C 0D 0E 0F
      -- -- -- -- -- -- -- --  -- -- -- -- -- -- -- --
0000: 00                                                .               
```

#### Opcodes

```
  0: 0x0000 [0x00] END_REQSTACK()
```

### Event 65535.1

#### Metadata

| Field        | Value    |
|--------------|----------|
| Entrypoint   | 0x0001   |
| Data Size    | 16 bytes |
| Instructions | 2        |

```
      00 01 02 03 04 05 06 07  08 09 0A 0B 0C 0D 0E 0F
      -- -- -- -- -- -- -- --  -- -- -- -- -- -- -- --
0000:    5B 00 80 F8 FF FF 7F  F8 FF FF 7F 72 61 76 30   [..........rav0
0010: 00                                                .               
```

#### Opcodes

```
  0: 0x0001 [0x5B] LOAD_EXT_SCHEDULER: Load scheduler "rav0" with entities [EventEntity, EventEntity], work=2224*
  1: 0x0010 [0x00] END_REQSTACK()
```

### Event 65535.2

#### Metadata

| Field        | Value    |
|--------------|----------|
| Entrypoint   | 0x0011   |
| Data Size    | 14 bytes |
| Instructions | 2        |

```
      00 01 02 03 04 05 06 07  08 09 0A 0B 0C 0D 0E 0F
      -- -- -- -- -- -- -- --  -- -- -- -- -- -- -- --
0010:    53 F8 FF FF 7F F8 FF  FF 7F 72 61 76 30 00      S........rav0. 
```

#### Opcodes

```
  0: 0x0011 [0x53] WAIT_SCHEDULER_TASK: Wait for scheduler "rav0" with entities [EventEntity, EventEntity]
  1: 0x001E [0x00] END_REQSTACK()
```

### Event 65535.3

#### Metadata

| Field        | Value    |
|--------------|----------|
| Entrypoint   | 0x001F   |
| Data Size    | 16 bytes |
| Instructions | 2        |

```
      00 01 02 03 04 05 06 07  08 09 0A 0B 0C 0D 0E 0F
      -- -- -- -- -- -- -- --  -- -- -- -- -- -- -- --
0010:                                               5B                 [
0020: 00 80 F8 FF FF 7F F8 FF  FF 7F 72 61 76 31 00     ..........rav1. 
```

#### Opcodes

```
  0: 0x001F [0x5B] LOAD_EXT_SCHEDULER: Load scheduler "rav1" with entities [EventEntity, EventEntity], work=2224*
  1: 0x002E [0x00] END_REQSTACK()
```

### Event 65535.4

#### Metadata

| Field        | Value    |
|--------------|----------|
| Entrypoint   | 0x002F   |
| Data Size    | 14 bytes |
| Instructions | 2        |

```
      00 01 02 03 04 05 06 07  08 09 0A 0B 0C 0D 0E 0F
      -- -- -- -- -- -- -- --  -- -- -- -- -- -- -- --
0020:                                               53                 S
0030: F8 FF FF 7F F8 FF FF 7F  72 61 76 31 00           ........rav1.   
```

#### Opcodes

```
  0: 0x002F [0x53] WAIT_SCHEDULER_TASK: Wait for scheduler "rav1" with entities [EventEntity, EventEntity]
  1: 0x003C [0x00] END_REQSTACK()
```

### Event 65535.5

#### Metadata

| Field        | Value    |
|--------------|----------|
| Entrypoint   | 0x003D   |
| Data Size    | 16 bytes |
| Instructions | 2        |

```
      00 01 02 03 04 05 06 07  08 09 0A 0B 0C 0D 0E 0F
      -- -- -- -- -- -- -- --  -- -- -- -- -- -- -- --
0030:                                         5B 00 80               [..
0040: F8 FF FF 7F F8 FF FF 7F  72 61 76 32 00           ........rav2.   
```

#### Opcodes

```
  0: 0x003D [0x5B] LOAD_EXT_SCHEDULER: Load scheduler "rav2" with entities [EventEntity, EventEntity], work=2224*
  1: 0x004C [0x00] END_REQSTACK()
```

### Event 65535.6

#### Metadata

| Field        | Value    |
|--------------|----------|
| Entrypoint   | 0x004D   |
| Data Size    | 14 bytes |
| Instructions | 2        |

```
      00 01 02 03 04 05 06 07  08 09 0A 0B 0C 0D 0E 0F
      -- -- -- -- -- -- -- --  -- -- -- -- -- -- -- --
0040:                                         53 F8 FF               S..
0050: FF 7F F8 FF FF 7F 72 61  76 32 00                 ......rav2.     
```

#### Opcodes

```
  0: 0x004D [0x53] WAIT_SCHEDULER_TASK: Wait for scheduler "rav2" with entities [EventEntity, EventEntity]
  1: 0x005A [0x00] END_REQSTACK()
```

### Event 65535.7

#### Metadata

| Field        | Value    |
|--------------|----------|
| Entrypoint   | 0x005B   |
| Data Size    | 16 bytes |
| Instructions | 2        |

```
      00 01 02 03 04 05 06 07  08 09 0A 0B 0C 0D 0E 0F
      -- -- -- -- -- -- -- --  -- -- -- -- -- -- -- --
0050:                                   5B 00 80 F8 FF             [....
0060: FF 7F F8 FF FF 7F 72 61  76 33 00                 ......rav3.     
```

#### Opcodes

```
  0: 0x005B [0x5B] LOAD_EXT_SCHEDULER: Load scheduler "rav3" with entities [EventEntity, EventEntity], work=2224*
  1: 0x006A [0x00] END_REQSTACK()
```

### Event 65535.8

#### Metadata

| Field        | Value    |
|--------------|----------|
| Entrypoint   | 0x006B   |
| Data Size    | 14 bytes |
| Instructions | 2        |

```
      00 01 02 03 04 05 06 07  08 09 0A 0B 0C 0D 0E 0F
      -- -- -- -- -- -- -- --  -- -- -- -- -- -- -- --
0060:                                   53 F8 FF FF 7F             S....
0070: F8 FF FF 7F 72 61 76 33  00                       ....rav3.       
```

#### Opcodes

```
  0: 0x006B [0x53] WAIT_SCHEDULER_TASK: Wait for scheduler "rav3" with entities [EventEntity, EventEntity]
  1: 0x0078 [0x00] END_REQSTACK()
```

### Event 65535.9

#### Metadata

| Field        | Value    |
|--------------|----------|
| Entrypoint   | 0x0079   |
| Data Size    | 57 bytes |
| Instructions | 5        |

```
      00 01 02 03 04 05 06 07  08 09 0A 0B 0C 0D 0E 0F
      -- -- -- -- -- -- -- --  -- -- -- -- -- -- -- --
0070:                             5B 00 80 F8 FF FF 7F           [......
0080: F8 FF FF 7F 72 61 76 31  53 F8 FF FF 7F F8 FF FF  ....rav1S.......
0090: 7F 72 61 76 31 5B 00 80  F8 FF FF 7F F8 FF FF 7F  .rav1[..........
00A0: 72 61 76 33 53 F8 FF FF  7F F8 FF FF 7F 72 61 76  rav3S........rav
00B0: 33 00                                             3.              
```

#### Opcodes

```
  0: 0x0079 [0x5B] LOAD_EXT_SCHEDULER: Load scheduler "rav1" with entities [EventEntity, EventEntity], work=2224*
  1: 0x0088 [0x53] WAIT_SCHEDULER_TASK: Wait for scheduler "rav1" with entities [EventEntity, EventEntity]
  2: 0x0095 [0x5B] LOAD_EXT_SCHEDULER: Load scheduler "rav3" with entities [EventEntity, EventEntity], work=2224*
  3: 0x00A4 [0x53] WAIT_SCHEDULER_TASK: Wait for scheduler "rav3" with entities [EventEntity, EventEntity]
  4: 0x00B1 [0x00] END_REQSTACK()
```

### Event 65535.10

#### Metadata

| Field        | Value    |
|--------------|----------|
| Entrypoint   | 0x00B2   |
| Data Size    | 16 bytes |
| Instructions | 2        |

```
      00 01 02 03 04 05 06 07  08 09 0A 0B 0C 0D 0E 0F
      -- -- -- -- -- -- -- --  -- -- -- -- -- -- -- --
00B0:       5B 00 80 F8 FF FF  7F F8 FF FF 7F 72 61 6C    [..........ral
00C0: 30 00                                             0.              
```

#### Opcodes

```
  0: 0x00B2 [0x5B] LOAD_EXT_SCHEDULER: Load scheduler "ral0" with entities [EventEntity, EventEntity], work=2224*
  1: 0x00C1 [0x00] END_REQSTACK()
```

### Event 65535.11

#### Metadata

| Field        | Value    |
|--------------|----------|
| Entrypoint   | 0x00C2   |
| Data Size    | 14 bytes |
| Instructions | 2        |

```
      00 01 02 03 04 05 06 07  08 09 0A 0B 0C 0D 0E 0F
      -- -- -- -- -- -- -- --  -- -- -- -- -- -- -- --
00C0:       53 F8 FF FF 7F F8  FF FF 7F 72 61 6C 30 00    S........ral0.
```

#### Opcodes

```
  0: 0x00C2 [0x53] WAIT_SCHEDULER_TASK: Wait for scheduler "ral0" with entities [EventEntity, EventEntity]
  1: 0x00CF [0x00] END_REQSTACK()
```

### Event 65535.12

#### Metadata

| Field        | Value    |
|--------------|----------|
| Entrypoint   | 0x00D0   |
| Data Size    | 16 bytes |
| Instructions | 2        |

```
      00 01 02 03 04 05 06 07  08 09 0A 0B 0C 0D 0E 0F
      -- -- -- -- -- -- -- --  -- -- -- -- -- -- -- --
00D0: 5B 00 80 F8 FF FF 7F F8  FF FF 7F 72 61 6C 31 00  [..........ral1.
```

#### Opcodes

```
  0: 0x00D0 [0x5B] LOAD_EXT_SCHEDULER: Load scheduler "ral1" with entities [EventEntity, EventEntity], work=2224*
  1: 0x00DF [0x00] END_REQSTACK()
```

### Event 65535.13

#### Metadata

| Field        | Value    |
|--------------|----------|
| Entrypoint   | 0x00E0   |
| Data Size    | 14 bytes |
| Instructions | 2        |

```
      00 01 02 03 04 05 06 07  08 09 0A 0B 0C 0D 0E 0F
      -- -- -- -- -- -- -- --  -- -- -- -- -- -- -- --
00E0: 53 F8 FF FF 7F F8 FF FF  7F 72 61 6C 31 00        S........ral1.  
```

#### Opcodes

```
  0: 0x00E0 [0x53] WAIT_SCHEDULER_TASK: Wait for scheduler "ral1" with entities [EventEntity, EventEntity]
  1: 0x00ED [0x00] END_REQSTACK()
```

### Event 65535.14

#### Metadata

| Field        | Value    |
|--------------|----------|
| Entrypoint   | 0x00EE   |
| Data Size    | 16 bytes |
| Instructions | 2        |

```
      00 01 02 03 04 05 06 07  08 09 0A 0B 0C 0D 0E 0F
      -- -- -- -- -- -- -- --  -- -- -- -- -- -- -- --
00E0:                                            5B 01                [.
00F0: 80 F8 FF FF 7F F8 FF FF  7F 6B 62 69 30 00        .........kbi0.  
```

#### Opcodes

```
  0: 0x00EE [0x5B] LOAD_EXT_SCHEDULER: Load scheduler "kbi0" with entities [EventEntity, EventEntity], work=2225*
  1: 0x00FD [0x00] END_REQSTACK()
```

### Event 65535.15

#### Metadata

| Field        | Value    |
|--------------|----------|
| Entrypoint   | 0x00FE   |
| Data Size    | 14 bytes |
| Instructions | 2        |

```
      00 01 02 03 04 05 06 07  08 09 0A 0B 0C 0D 0E 0F
      -- -- -- -- -- -- -- --  -- -- -- -- -- -- -- --
00F0:                                            53 F8                S.
0100: FF FF 7F F8 FF FF 7F 6B  62 69 30 00              .......kbi0.    
```

#### Opcodes

```
  0: 0x00FE [0x53] WAIT_SCHEDULER_TASK: Wait for scheduler "kbi0" with entities [EventEntity, EventEntity]
  1: 0x010B [0x00] END_REQSTACK()
```

### Event 65535.16

#### Metadata

| Field        | Value    |
|--------------|----------|
| Entrypoint   | 0x010C   |
| Data Size    | 16 bytes |
| Instructions | 2        |

```
      00 01 02 03 04 05 06 07  08 09 0A 0B 0C 0D 0E 0F
      -- -- -- -- -- -- -- --  -- -- -- -- -- -- -- --
0100:                                      5B 02 80 F8              [...
0110: FF FF 7F F8 FF FF 7F 73  70 70 30 00              .......spp0.    
```

#### Opcodes

```
  0: 0x010C [0x5B] LOAD_EXT_SCHEDULER: Load scheduler "spp0" with entities [EventEntity, EventEntity], work=2226*
  1: 0x011B [0x00] END_REQSTACK()
```

### Event 65535.17

#### Metadata

| Field        | Value    |
|--------------|----------|
| Entrypoint   | 0x011C   |
| Data Size    | 14 bytes |
| Instructions | 2        |

```
      00 01 02 03 04 05 06 07  08 09 0A 0B 0C 0D 0E 0F
      -- -- -- -- -- -- -- --  -- -- -- -- -- -- -- --
0110:                                      53 F8 FF FF              S...
0120: 7F F8 FF FF 7F 73 70 70  30 00                    .....spp0.      
```

#### Opcodes

```
  0: 0x011C [0x53] WAIT_SCHEDULER_TASK: Wait for scheduler "spp0" with entities [EventEntity, EventEntity]
  1: 0x0129 [0x00] END_REQSTACK()
```

### Event 65535.18

#### Metadata

| Field        | Value    |
|--------------|----------|
| Entrypoint   | 0x012A   |
| Data Size    | 16 bytes |
| Instructions | 2        |

```
      00 01 02 03 04 05 06 07  08 09 0A 0B 0C 0D 0E 0F
      -- -- -- -- -- -- -- --  -- -- -- -- -- -- -- --
0120:                                5B 03 80 F8 FF FF            [.....
0130: 7F F8 FF FF 7F 65 69 30  30 00                    .....ei00.      
```

#### Opcodes

```
  0: 0x012A [0x5B] LOAD_EXT_SCHEDULER: Load scheduler "ei00" with entities [EventEntity, EventEntity], work=2227*
  1: 0x0139 [0x00] END_REQSTACK()
```

### Event 65535.19

#### Metadata

| Field        | Value    |
|--------------|----------|
| Entrypoint   | 0x013A   |
| Data Size    | 14 bytes |
| Instructions | 2        |

```
      00 01 02 03 04 05 06 07  08 09 0A 0B 0C 0D 0E 0F
      -- -- -- -- -- -- -- --  -- -- -- -- -- -- -- --
0130:                                53 F8 FF FF 7F F8            S.....
0140: FF FF 7F 65 69 30 30 00                           ...ei00.        
```

#### Opcodes

```
  0: 0x013A [0x53] WAIT_SCHEDULER_TASK: Wait for scheduler "ei00" with entities [EventEntity, EventEntity]
  1: 0x0147 [0x00] END_REQSTACK()
```

### Event 65535.20

#### Metadata

| Field        | Value    |
|--------------|----------|
| Entrypoint   | 0x0148   |
| Data Size    | 16 bytes |
| Instructions | 2        |

```
      00 01 02 03 04 05 06 07  08 09 0A 0B 0C 0D 0E 0F
      -- -- -- -- -- -- -- --  -- -- -- -- -- -- -- --
0140:                          5B 03 80 F8 FF FF 7F F8          [.......
0150: FF FF 7F 73 68 30 30 00                           ...sh00.        
```

#### Opcodes

```
  0: 0x0148 [0x5B] LOAD_EXT_SCHEDULER: Load scheduler "sh00" with entities [EventEntity, EventEntity], work=2227*
  1: 0x0157 [0x00] END_REQSTACK()
```

### Event 65535.21

#### Metadata

| Field        | Value    |
|--------------|----------|
| Entrypoint   | 0x0158   |
| Data Size    | 14 bytes |
| Instructions | 2        |

```
      00 01 02 03 04 05 06 07  08 09 0A 0B 0C 0D 0E 0F
      -- -- -- -- -- -- -- --  -- -- -- -- -- -- -- --
0150:                          53 F8 FF FF 7F F8 FF FF          S.......
0160: 7F 73 68 30 30 00                                 .sh00.          
```

#### Opcodes

```
  0: 0x0158 [0x53] WAIT_SCHEDULER_TASK: Wait for scheduler "sh00" with entities [EventEntity, EventEntity]
  1: 0x0165 [0x00] END_REQSTACK()
```

### Event 65535.22

#### Metadata

| Field        | Value    |
|--------------|----------|
| Entrypoint   | 0x0166   |
| Data Size    | 16 bytes |
| Instructions | 2        |

```
      00 01 02 03 04 05 06 07  08 09 0A 0B 0C 0D 0E 0F
      -- -- -- -- -- -- -- --  -- -- -- -- -- -- -- --
0160:                   5B 04  80 F8 FF FF 7F F8 FF FF        [.........
0170: 7F 63 72 67 30 00                                 .crg0.          
```

#### Opcodes

```
  0: 0x0166 [0x5B] LOAD_EXT_SCHEDULER: Load scheduler "crg0" with entities [EventEntity, EventEntity], work=2228*
  1: 0x0175 [0x00] END_REQSTACK()
```

### Event 65535.23

#### Metadata

| Field        | Value    |
|--------------|----------|
| Entrypoint   | 0x0176   |
| Data Size    | 14 bytes |
| Instructions | 2        |

```
      00 01 02 03 04 05 06 07  08 09 0A 0B 0C 0D 0E 0F
      -- -- -- -- -- -- -- --  -- -- -- -- -- -- -- --
0170:                   53 F8  FF FF 7F F8 FF FF 7F 63        S........c
0180: 72 67 30 00                                       rg0.            
```

#### Opcodes

```
  0: 0x0176 [0x53] WAIT_SCHEDULER_TASK: Wait for scheduler "crg0" with entities [EventEntity, EventEntity]
  1: 0x0183 [0x00] END_REQSTACK()
```

### Event 65535.24

#### Metadata

| Field        | Value    |
|--------------|----------|
| Entrypoint   | 0x0184   |
| Data Size    | 16 bytes |
| Instructions | 2        |

```
      00 01 02 03 04 05 06 07  08 09 0A 0B 0C 0D 0E 0F
      -- -- -- -- -- -- -- --  -- -- -- -- -- -- -- --
0180:             5B 04 80 F8  FF FF 7F F8 FF FF 7F 63      [..........c
0190: 72 67 31 00                                       rg1.            
```

#### Opcodes

```
  0: 0x0184 [0x5B] LOAD_EXT_SCHEDULER: Load scheduler "crg1" with entities [EventEntity, EventEntity], work=2228*
  1: 0x0193 [0x00] END_REQSTACK()
```

### Event 65535.25

#### Metadata

| Field        | Value    |
|--------------|----------|
| Entrypoint   | 0x0194   |
| Data Size    | 14 bytes |
| Instructions | 2        |

```
      00 01 02 03 04 05 06 07  08 09 0A 0B 0C 0D 0E 0F
      -- -- -- -- -- -- -- --  -- -- -- -- -- -- -- --
0190:             53 F8 FF FF  7F F8 FF FF 7F 63 72 67      S........crg
01A0: 31 00                                             1.              
```

#### Opcodes

```
  0: 0x0194 [0x53] WAIT_SCHEDULER_TASK: Wait for scheduler "crg1" with entities [EventEntity, EventEntity]
  1: 0x01A1 [0x00] END_REQSTACK()
```

### Event 65535.26

#### Metadata

| Field        | Value    |
|--------------|----------|
| Entrypoint   | 0x01A2   |
| Data Size    | 16 bytes |
| Instructions | 2        |

```
      00 01 02 03 04 05 06 07  08 09 0A 0B 0C 0D 0E 0F
      -- -- -- -- -- -- -- --  -- -- -- -- -- -- -- --
01A0:       5B 05 80 F8 FF FF  7F F8 FF FF 7F 77 61 6C    [..........wal
01B0: 30 00                                             0.              
```

#### Opcodes

```
  0: 0x01A2 [0x5B] LOAD_EXT_SCHEDULER: Load scheduler "wal0" with entities [EventEntity, EventEntity], work=2229*
  1: 0x01B1 [0x00] END_REQSTACK()
```

### Event 65535.27

#### Metadata

| Field        | Value    |
|--------------|----------|
| Entrypoint   | 0x01B2   |
| Data Size    | 14 bytes |
| Instructions | 2        |

```
      00 01 02 03 04 05 06 07  08 09 0A 0B 0C 0D 0E 0F
      -- -- -- -- -- -- -- --  -- -- -- -- -- -- -- --
01B0:       53 F8 FF FF 7F F8  FF FF 7F 77 61 6C 30 00    S........wal0.
```

#### Opcodes

```
  0: 0x01B2 [0x53] WAIT_SCHEDULER_TASK: Wait for scheduler "wal0" with entities [EventEntity, EventEntity]
  1: 0x01BF [0x00] END_REQSTACK()
```

### Event 65535.28

#### Metadata

| Field        | Value    |
|--------------|----------|
| Entrypoint   | 0x01C0   |
| Data Size    | 16 bytes |
| Instructions | 2        |

```
      00 01 02 03 04 05 06 07  08 09 0A 0B 0C 0D 0E 0F
      -- -- -- -- -- -- -- --  -- -- -- -- -- -- -- --
01C0: 5B 05 80 F8 FF FF 7F F8  FF FF 7F 77 61 6C 32 00  [..........wal2.
```

#### Opcodes

```
  0: 0x01C0 [0x5B] LOAD_EXT_SCHEDULER: Load scheduler "wal2" with entities [EventEntity, EventEntity], work=2229*
  1: 0x01CF [0x00] END_REQSTACK()
```

### Event 65535.29

#### Metadata

| Field        | Value    |
|--------------|----------|
| Entrypoint   | 0x01D0   |
| Data Size    | 14 bytes |
| Instructions | 2        |

```
      00 01 02 03 04 05 06 07  08 09 0A 0B 0C 0D 0E 0F
      -- -- -- -- -- -- -- --  -- -- -- -- -- -- -- --
01D0: 53 F8 FF FF 7F F8 FF FF  7F 77 61 6C 32 00        S........wal2.  
```

#### Opcodes

```
  0: 0x01D0 [0x53] WAIT_SCHEDULER_TASK: Wait for scheduler "wal2" with entities [EventEntity, EventEntity]
  1: 0x01DD [0x00] END_REQSTACK()
```

### Event 65535.30

#### Metadata

| Field        | Value    |
|--------------|----------|
| Entrypoint   | 0x01DE   |
| Data Size    | 16 bytes |
| Instructions | 2        |

```
      00 01 02 03 04 05 06 07  08 09 0A 0B 0C 0D 0E 0F
      -- -- -- -- -- -- -- --  -- -- -- -- -- -- -- --
01D0:                                            5B 05                [.
01E0: 80 F8 FF FF 7F F8 FF FF  7F 62 6F 75 30 00        .........bou0.  
```

#### Opcodes

```
  0: 0x01DE [0x5B] LOAD_EXT_SCHEDULER: Load scheduler "bou0" with entities [EventEntity, EventEntity], work=2229*
  1: 0x01ED [0x00] END_REQSTACK()
```

### Event 65535.31

#### Metadata

| Field        | Value    |
|--------------|----------|
| Entrypoint   | 0x01EE   |
| Data Size    | 14 bytes |
| Instructions | 2        |

```
      00 01 02 03 04 05 06 07  08 09 0A 0B 0C 0D 0E 0F
      -- -- -- -- -- -- -- --  -- -- -- -- -- -- -- --
01E0:                                            53 F8                S.
01F0: FF FF 7F F8 FF FF 7F 62  6F 75 30 00              .......bou0.    
```

#### Opcodes

```
  0: 0x01EE [0x53] WAIT_SCHEDULER_TASK: Wait for scheduler "bou0" with entities [EventEntity, EventEntity]
  1: 0x01FB [0x00] END_REQSTACK()
```

### Event 65535.32

#### Metadata

| Field        | Value    |
|--------------|----------|
| Entrypoint   | 0x01FC   |
| Data Size    | 16 bytes |
| Instructions | 2        |

```
      00 01 02 03 04 05 06 07  08 09 0A 0B 0C 0D 0E 0F
      -- -- -- -- -- -- -- --  -- -- -- -- -- -- -- --
01F0:                                      5B 06 80 F8              [...
0200: FF FF 7F F8 FF FF 7F 73  74 64 62 00              .......stdb.    
```

#### Opcodes

```
  0: 0x01FC [0x5B] LOAD_EXT_SCHEDULER: Load scheduler "stdb" with entities [EventEntity, EventEntity], work=2747*
  1: 0x020B [0x00] END_REQSTACK()
```

### Event 65535.33

#### Metadata

| Field        | Value    |
|--------------|----------|
| Entrypoint   | 0x020C   |
| Data Size    | 14 bytes |
| Instructions | 2        |

```
      00 01 02 03 04 05 06 07  08 09 0A 0B 0C 0D 0E 0F
      -- -- -- -- -- -- -- --  -- -- -- -- -- -- -- --
0200:                                      53 F8 FF FF              S...
0210: 7F F8 FF FF 7F 73 74 64  62 00                    .....stdb.      
```

#### Opcodes

```
  0: 0x020C [0x53] WAIT_SCHEDULER_TASK: Wait for scheduler "stdb" with entities [EventEntity, EventEntity]
  1: 0x0219 [0x00] END_REQSTACK()
```

### Event 65535.34

#### Metadata

| Field        | Value    |
|--------------|----------|
| Entrypoint   | 0x021A   |
| Data Size    | 16 bytes |
| Instructions | 2        |

```
      00 01 02 03 04 05 06 07  08 09 0A 0B 0C 0D 0E 0F
      -- -- -- -- -- -- -- --  -- -- -- -- -- -- -- --
0210:                                5B 06 80 F8 FF FF            [.....
0220: 7F F8 FF FF 7F 74 6F 75  30 00                    .....tou0.      
```

#### Opcodes

```
  0: 0x021A [0x5B] LOAD_EXT_SCHEDULER: Load scheduler "tou0" with entities [EventEntity, EventEntity], work=2747*
  1: 0x0229 [0x00] END_REQSTACK()
```

### Event 65535.35

#### Metadata

| Field        | Value    |
|--------------|----------|
| Entrypoint   | 0x022A   |
| Data Size    | 14 bytes |
| Instructions | 2        |

```
      00 01 02 03 04 05 06 07  08 09 0A 0B 0C 0D 0E 0F
      -- -- -- -- -- -- -- --  -- -- -- -- -- -- -- --
0220:                                53 F8 FF FF 7F F8            S.....
0230: FF FF 7F 74 6F 75 30 00                           ...tou0.        
```

#### Opcodes

```
  0: 0x022A [0x53] WAIT_SCHEDULER_TASK: Wait for scheduler "tou0" with entities [EventEntity, EventEntity]
  1: 0x0237 [0x00] END_REQSTACK()
```

### Event 65535.36

#### Metadata

| Field        | Value    |
|--------------|----------|
| Entrypoint   | 0x0238   |
| Data Size    | 16 bytes |
| Instructions | 2        |

```
      00 01 02 03 04 05 06 07  08 09 0A 0B 0C 0D 0E 0F
      -- -- -- -- -- -- -- --  -- -- -- -- -- -- -- --
0230:                          5B 06 80 F8 FF FF 7F F8          [.......
0240: FF FF 7F 74 6F 75 31 00                           ...tou1.        
```

#### Opcodes

```
  0: 0x0238 [0x5B] LOAD_EXT_SCHEDULER: Load scheduler "tou1" with entities [EventEntity, EventEntity], work=2747*
  1: 0x0247 [0x00] END_REQSTACK()
```

### Event 65535.37

#### Metadata

| Field        | Value    |
|--------------|----------|
| Entrypoint   | 0x0248   |
| Data Size    | 14 bytes |
| Instructions | 2        |

```
      00 01 02 03 04 05 06 07  08 09 0A 0B 0C 0D 0E 0F
      -- -- -- -- -- -- -- --  -- -- -- -- -- -- -- --
0240:                          53 F8 FF FF 7F F8 FF FF          S.......
0250: 7F 74 6F 75 31 00                                 .tou1.          
```

#### Opcodes

```
  0: 0x0248 [0x53] WAIT_SCHEDULER_TASK: Wait for scheduler "tou1" with entities [EventEntity, EventEntity]
  1: 0x0255 [0x00] END_REQSTACK()
```

### Event 65535.38

#### Metadata

| Field        | Value    |
|--------------|----------|
| Entrypoint   | 0x0256   |
| Data Size    | 16 bytes |
| Instructions | 2        |

```
      00 01 02 03 04 05 06 07  08 09 0A 0B 0C 0D 0E 0F
      -- -- -- -- -- -- -- --  -- -- -- -- -- -- -- --
0250:                   5B 07  80 F8 FF FF 7F F8 FF FF        [.........
0260: 7F 61 72 75 30 00                                 .aru0.          
```

#### Opcodes

```
  0: 0x0256 [0x5B] LOAD_EXT_SCHEDULER: Load scheduler "aru0" with entities [EventEntity, EventEntity], work=3134*
  1: 0x0265 [0x00] END_REQSTACK()
```

### Event 65535.39

#### Metadata

| Field        | Value    |
|--------------|----------|
| Entrypoint   | 0x0266   |
| Data Size    | 14 bytes |
| Instructions | 2        |

```
      00 01 02 03 04 05 06 07  08 09 0A 0B 0C 0D 0E 0F
      -- -- -- -- -- -- -- --  -- -- -- -- -- -- -- --
0260:                   53 F8  FF FF 7F F8 FF FF 7F 61        S........a
0270: 72 75 30 00                                       ru0.            
```

#### Opcodes

```
  0: 0x0266 [0x53] WAIT_SCHEDULER_TASK: Wait for scheduler "aru0" with entities [EventEntity, EventEntity]
  1: 0x0273 [0x00] END_REQSTACK()
```

### Event 65535.40

#### Metadata

| Field        | Value    |
|--------------|----------|
| Entrypoint   | 0x0274   |
| Data Size    | 16 bytes |
| Instructions | 2        |

```
      00 01 02 03 04 05 06 07  08 09 0A 0B 0C 0D 0E 0F
      -- -- -- -- -- -- -- --  -- -- -- -- -- -- -- --
0270:             5B 07 80 F8  FF FF 7F F8 FF FF 7F 61      [..........a
0280: 72 75 31 00                                       ru1.            
```

#### Opcodes

```
  0: 0x0274 [0x5B] LOAD_EXT_SCHEDULER: Load scheduler "aru1" with entities [EventEntity, EventEntity], work=3134*
  1: 0x0283 [0x00] END_REQSTACK()
```

### Event 65535.41

#### Metadata

| Field        | Value    |
|--------------|----------|
| Entrypoint   | 0x0284   |
| Data Size    | 14 bytes |
| Instructions | 2        |

```
      00 01 02 03 04 05 06 07  08 09 0A 0B 0C 0D 0E 0F
      -- -- -- -- -- -- -- --  -- -- -- -- -- -- -- --
0280:             53 F8 FF FF  7F F8 FF FF 7F 61 72 75      S........aru
0290: 31 00                                             1.              
```

#### Opcodes

```
  0: 0x0284 [0x53] WAIT_SCHEDULER_TASK: Wait for scheduler "aru1" with entities [EventEntity, EventEntity]
  1: 0x0291 [0x00] END_REQSTACK()
```

### Event 65535.42

#### Metadata

| Field        | Value    |
|--------------|----------|
| Entrypoint   | 0x0292   |
| Data Size    | 16 bytes |
| Instructions | 2        |

```
      00 01 02 03 04 05 06 07  08 09 0A 0B 0C 0D 0E 0F
      -- -- -- -- -- -- -- --  -- -- -- -- -- -- -- --
0290:       5B 06 80 F8 FF FF  7F F8 FF FF 7F 74 6C 61    [..........tla
02A0: 30 00                                             0.              
```

#### Opcodes

```
  0: 0x0292 [0x5B] LOAD_EXT_SCHEDULER: Load scheduler "tla0" with entities [EventEntity, EventEntity], work=2747*
  1: 0x02A1 [0x00] END_REQSTACK()
```

### Event 65535.43

#### Metadata

| Field        | Value    |
|--------------|----------|
| Entrypoint   | 0x02A2   |
| Data Size    | 14 bytes |
| Instructions | 2        |

```
      00 01 02 03 04 05 06 07  08 09 0A 0B 0C 0D 0E 0F
      -- -- -- -- -- -- -- --  -- -- -- -- -- -- -- --
02A0:       53 F8 FF FF 7F F8  FF FF 7F 74 6C 61 30 00    S........tla0.
```

#### Opcodes

```
  0: 0x02A2 [0x53] WAIT_SCHEDULER_TASK: Wait for scheduler "tla0" with entities [EventEntity, EventEntity]
  1: 0x02AF [0x00] END_REQSTACK()
```

### Event 65535.44

#### Metadata

| Field        | Value    |
|--------------|----------|
| Entrypoint   | 0x02B0   |
| Data Size    | 16 bytes |
| Instructions | 2        |

```
      00 01 02 03 04 05 06 07  08 09 0A 0B 0C 0D 0E 0F
      -- -- -- -- -- -- -- --  -- -- -- -- -- -- -- --
02B0: 5B 06 80 F8 FF FF 7F F8  FF FF 7F 74 6C 61 31 00  [..........tla1.
```

#### Opcodes

```
  0: 0x02B0 [0x5B] LOAD_EXT_SCHEDULER: Load scheduler "tla1" with entities [EventEntity, EventEntity], work=2747*
  1: 0x02BF [0x00] END_REQSTACK()
```

### Event 65535.45

#### Metadata

| Field        | Value    |
|--------------|----------|
| Entrypoint   | 0x02C0   |
| Data Size    | 14 bytes |
| Instructions | 2        |

```
      00 01 02 03 04 05 06 07  08 09 0A 0B 0C 0D 0E 0F
      -- -- -- -- -- -- -- --  -- -- -- -- -- -- -- --
02C0: 53 F8 FF FF 7F F8 FF FF  7F 74 6C 61 31 00        S........tla1.  
```

#### Opcodes

```
  0: 0x02C0 [0x53] WAIT_SCHEDULER_TASK: Wait for scheduler "tla1" with entities [EventEntity, EventEntity]
  1: 0x02CD [0x00] END_REQSTACK()
```

### Event 65535.46

#### Metadata

| Field        | Value    |
|--------------|----------|
| Entrypoint   | 0x02CE   |
| Data Size    | 16 bytes |
| Instructions | 2        |

```
      00 01 02 03 04 05 06 07  08 09 0A 0B 0C 0D 0E 0F
      -- -- -- -- -- -- -- --  -- -- -- -- -- -- -- --
02C0:                                            5B 06                [.
02D0: 80 F8 FF FF 7F F8 FF FF  7F 74 6C 62 30 00        .........tlb0.  
```

#### Opcodes

```
  0: 0x02CE [0x5B] LOAD_EXT_SCHEDULER: Load scheduler "tlb0" with entities [EventEntity, EventEntity], work=2747*
  1: 0x02DD [0x00] END_REQSTACK()
```

### Event 65535.47

#### Metadata

| Field        | Value    |
|--------------|----------|
| Entrypoint   | 0x02DE   |
| Data Size    | 14 bytes |
| Instructions | 2        |

```
      00 01 02 03 04 05 06 07  08 09 0A 0B 0C 0D 0E 0F
      -- -- -- -- -- -- -- --  -- -- -- -- -- -- -- --
02D0:                                            53 F8                S.
02E0: FF FF 7F F8 FF FF 7F 74  6C 62 30 00              .......tlb0.    
```

#### Opcodes

```
  0: 0x02DE [0x53] WAIT_SCHEDULER_TASK: Wait for scheduler "tlb0" with entities [EventEntity, EventEntity]
  1: 0x02EB [0x00] END_REQSTACK()
```

### Event 65535.48

#### Metadata

| Field        | Value    |
|--------------|----------|
| Entrypoint   | 0x02EC   |
| Data Size    | 16 bytes |
| Instructions | 2        |

```
      00 01 02 03 04 05 06 07  08 09 0A 0B 0C 0D 0E 0F
      -- -- -- -- -- -- -- --  -- -- -- -- -- -- -- --
02E0:                                      5B 06 80 F8              [...
02F0: FF FF 7F F8 FF FF 7F 74  6C 62 31 00              .......tlb1.    
```

#### Opcodes

```
  0: 0x02EC [0x5B] LOAD_EXT_SCHEDULER: Load scheduler "tlb1" with entities [EventEntity, EventEntity], work=2747*
  1: 0x02FB [0x00] END_REQSTACK()
```

### Event 65535.49

#### Metadata

| Field        | Value    |
|--------------|----------|
| Entrypoint   | 0x02FC   |
| Data Size    | 14 bytes |
| Instructions | 2        |

```
      00 01 02 03 04 05 06 07  08 09 0A 0B 0C 0D 0E 0F
      -- -- -- -- -- -- -- --  -- -- -- -- -- -- -- --
02F0:                                      53 F8 FF FF              S...
0300: 7F F8 FF FF 7F 74 6C 62  31 00                    .....tlb1.      
```

#### Opcodes

```
  0: 0x02FC [0x53] WAIT_SCHEDULER_TASK: Wait for scheduler "tlb1" with entities [EventEntity, EventEntity]
  1: 0x0309 [0x00] END_REQSTACK()
```

### Event 65535.50

#### Metadata

| Field        | Value    |
|--------------|----------|
| Entrypoint   | 0x030A   |
| Data Size    | 16 bytes |
| Instructions | 2        |

```
      00 01 02 03 04 05 06 07  08 09 0A 0B 0C 0D 0E 0F
      -- -- -- -- -- -- -- --  -- -- -- -- -- -- -- --
0300:                                5B 06 80 F8 FF FF            [.....
0310: 7F F8 FF FF 7F 74 68 61  30 00                    .....tha0.      
```

#### Opcodes

```
  0: 0x030A [0x5B] LOAD_EXT_SCHEDULER: Load scheduler "tha0" with entities [EventEntity, EventEntity], work=2747*
  1: 0x0319 [0x00] END_REQSTACK()
```

### Event 65535.51

#### Metadata

| Field        | Value    |
|--------------|----------|
| Entrypoint   | 0x031A   |
| Data Size    | 14 bytes |
| Instructions | 2        |

```
      00 01 02 03 04 05 06 07  08 09 0A 0B 0C 0D 0E 0F
      -- -- -- -- -- -- -- --  -- -- -- -- -- -- -- --
0310:                                53 F8 FF FF 7F F8            S.....
0320: FF FF 7F 74 68 61 30 00                           ...tha0.        
```

#### Opcodes

```
  0: 0x031A [0x53] WAIT_SCHEDULER_TASK: Wait for scheduler "tha0" with entities [EventEntity, EventEntity]
  1: 0x0327 [0x00] END_REQSTACK()
```

### Event 65535.52

#### Metadata

| Field        | Value    |
|--------------|----------|
| Entrypoint   | 0x0328   |
| Data Size    | 16 bytes |
| Instructions | 2        |

```
      00 01 02 03 04 05 06 07  08 09 0A 0B 0C 0D 0E 0F
      -- -- -- -- -- -- -- --  -- -- -- -- -- -- -- --
0320:                          5B 06 80 F8 FF FF 7F F8          [.......
0330: FF FF 7F 74 68 61 31 00                           ...tha1.        
```

#### Opcodes

```
  0: 0x0328 [0x5B] LOAD_EXT_SCHEDULER: Load scheduler "tha1" with entities [EventEntity, EventEntity], work=2747*
  1: 0x0337 [0x00] END_REQSTACK()
```

### Event 65535.53

#### Metadata

| Field        | Value    |
|--------------|----------|
| Entrypoint   | 0x0338   |
| Data Size    | 14 bytes |
| Instructions | 2        |

```
      00 01 02 03 04 05 06 07  08 09 0A 0B 0C 0D 0E 0F
      -- -- -- -- -- -- -- --  -- -- -- -- -- -- -- --
0330:                          53 F8 FF FF 7F F8 FF FF          S.......
0340: 7F 74 68 61 31 00                                 .tha1.          
```

#### Opcodes

```
  0: 0x0338 [0x53] WAIT_SCHEDULER_TASK: Wait for scheduler "tha1" with entities [EventEntity, EventEntity]
  1: 0x0345 [0x00] END_REQSTACK()
```

### Event 65535.54

#### Metadata

| Field        | Value    |
|--------------|----------|
| Entrypoint   | 0x0346   |
| Data Size    | 16 bytes |
| Instructions | 2        |

```
      00 01 02 03 04 05 06 07  08 09 0A 0B 0C 0D 0E 0F
      -- -- -- -- -- -- -- --  -- -- -- -- -- -- -- --
0340:                   5B 06  80 F8 FF FF 7F F8 FF FF        [.........
0350: 7F 6D 6B 65 30 00                                 .mke0.          
```

#### Opcodes

```
  0: 0x0346 [0x5B] LOAD_EXT_SCHEDULER: Load scheduler "mke0" with entities [EventEntity, EventEntity], work=2747*
  1: 0x0355 [0x00] END_REQSTACK()
```

### Event 65535.55

#### Metadata

| Field        | Value    |
|--------------|----------|
| Entrypoint   | 0x0356   |
| Data Size    | 14 bytes |
| Instructions | 2        |

```
      00 01 02 03 04 05 06 07  08 09 0A 0B 0C 0D 0E 0F
      -- -- -- -- -- -- -- --  -- -- -- -- -- -- -- --
0350:                   53 F8  FF FF 7F F8 FF FF 7F 6D        S........m
0360: 6B 65 30 00                                       ke0.            
```

#### Opcodes

```
  0: 0x0356 [0x53] WAIT_SCHEDULER_TASK: Wait for scheduler "mke0" with entities [EventEntity, EventEntity]
  1: 0x0363 [0x00] END_REQSTACK()
```

### Event 65535.56

#### Metadata

| Field        | Value    |
|--------------|----------|
| Entrypoint   | 0x0364   |
| Data Size    | 16 bytes |
| Instructions | 2        |

```
      00 01 02 03 04 05 06 07  08 09 0A 0B 0C 0D 0E 0F
      -- -- -- -- -- -- -- --  -- -- -- -- -- -- -- --
0360:             5B 06 80 F8  FF FF 7F F8 FF FF 7F 6D      [..........m
0370: 6B 65 31 00                                       ke1.            
```

#### Opcodes

```
  0: 0x0364 [0x5B] LOAD_EXT_SCHEDULER: Load scheduler "mke1" with entities [EventEntity, EventEntity], work=2747*
  1: 0x0373 [0x00] END_REQSTACK()
```

### Event 65535.57

#### Metadata

| Field        | Value    |
|--------------|----------|
| Entrypoint   | 0x0374   |
| Data Size    | 14 bytes |
| Instructions | 2        |

```
      00 01 02 03 04 05 06 07  08 09 0A 0B 0C 0D 0E 0F
      -- -- -- -- -- -- -- --  -- -- -- -- -- -- -- --
0370:             53 F8 FF FF  7F F8 FF FF 7F 6D 6B 65      S........mke
0380: 31 00                                             1.              
```

#### Opcodes

```
  0: 0x0374 [0x53] WAIT_SCHEDULER_TASK: Wait for scheduler "mke1" with entities [EventEntity, EventEntity]
  1: 0x0381 [0x00] END_REQSTACK()
```

### Event 65535.58

#### Metadata

| Field        | Value    |
|--------------|----------|
| Entrypoint   | 0x0382   |
| Data Size    | 16 bytes |
| Instructions | 2        |

```
      00 01 02 03 04 05 06 07  08 09 0A 0B 0C 0D 0E 0F
      -- -- -- -- -- -- -- --  -- -- -- -- -- -- -- --
0380:       5B 08 80 F8 FF FF  7F F8 FF FF 7F 6D 69 72    [..........mir
0390: 30 00                                             0.              
```

#### Opcodes

```
  0: 0x0382 [0x5B] LOAD_EXT_SCHEDULER: Load scheduler "mir0" with entities [EventEntity, EventEntity], work=2750*
  1: 0x0391 [0x00] END_REQSTACK()
```

### Event 65535.59

#### Metadata

| Field        | Value    |
|--------------|----------|
| Entrypoint   | 0x0392   |
| Data Size    | 14 bytes |
| Instructions | 2        |

```
      00 01 02 03 04 05 06 07  08 09 0A 0B 0C 0D 0E 0F
      -- -- -- -- -- -- -- --  -- -- -- -- -- -- -- --
0390:       53 F8 FF FF 7F F8  FF FF 7F 6D 69 72 30 00    S........mir0.
```

#### Opcodes

```
  0: 0x0392 [0x53] WAIT_SCHEDULER_TASK: Wait for scheduler "mir0" with entities [EventEntity, EventEntity]
  1: 0x039F [0x00] END_REQSTACK()
```

### Event 65535.60

#### Metadata

| Field        | Value    |
|--------------|----------|
| Entrypoint   | 0x03A0   |
| Data Size    | 16 bytes |
| Instructions | 2        |

```
      00 01 02 03 04 05 06 07  08 09 0A 0B 0C 0D 0E 0F
      -- -- -- -- -- -- -- --  -- -- -- -- -- -- -- --
03A0: 5B 06 80 F8 FF FF 7F F8  FF FF 7F 74 6F 75 32 00  [..........tou2.
```

#### Opcodes

```
  0: 0x03A0 [0x5B] LOAD_EXT_SCHEDULER: Load scheduler "tou2" with entities [EventEntity, EventEntity], work=2747*
  1: 0x03AF [0x00] END_REQSTACK()
```

### Event 65535.61

#### Metadata

| Field        | Value    |
|--------------|----------|
| Entrypoint   | 0x03B0   |
| Data Size    | 14 bytes |
| Instructions | 2        |

```
      00 01 02 03 04 05 06 07  08 09 0A 0B 0C 0D 0E 0F
      -- -- -- -- -- -- -- --  -- -- -- -- -- -- -- --
03B0: 53 F8 FF FF 7F F8 FF FF  7F 74 6F 75 32 00        S........tou2.  
```

#### Opcodes

```
  0: 0x03B0 [0x53] WAIT_SCHEDULER_TASK: Wait for scheduler "tou2" with entities [EventEntity, EventEntity]
  1: 0x03BD [0x00] END_REQSTACK()
```

### Event 125

#### Metadata

| Field        | Value   |
|--------------|---------|
| Entrypoint   | 0x03BE  |
| Data Size    | 7 bytes |
| Instructions | 2       |

```
      00 01 02 03 04 05 06 07  08 09 0A 0B 0C 0D 0E 0F
      -- -- -- -- -- -- -- --  -- -- -- -- -- -- -- --
03B0:                                            92 01                ..
03C0: F8 FF FF 7F 00                                    .....           
```

#### Opcodes

```
  0: 0x03BE [0x92] EventEntity->Render.Flags3 ^= 0x01
  1: 0x03C4 [0x00] END_REQSTACK()
```

### Event 126

#### Metadata

| Field        | Value   |
|--------------|---------|
| Entrypoint   | 0x03C5  |
| Data Size    | 7 bytes |
| Instructions | 2       |

```
      00 01 02 03 04 05 06 07  08 09 0A 0B 0C 0D 0E 0F
      -- -- -- -- -- -- -- --  -- -- -- -- -- -- -- --
03C0:                92 01 F8  FF FF 7F 00                   .......    
```

#### Opcodes

```
  0: 0x03C5 [0x92] EventEntity->Render.Flags3 ^= 0x01
  1: 0x03CB [0x00] END_REQSTACK()
```

### Event 65535.62

#### Metadata

| Field        | Value   |
|--------------|---------|
| Entrypoint   | 0x03CC  |
| Data Size    | 7 bytes |
| Instructions | 3       |

```
      00 01 02 03 04 05 06 07  08 09 0A 0B 0C 0D 0E 0F
      -- -- -- -- -- -- -- --  -- -- -- -- -- -- -- --
03C0:                                      AB 03 AC 01              ....
03D0: 09 80 00                                          ...             
```

#### Opcodes

```
  0: 0x03CC [0xAB] EventEntity->Render.Flags0 ^= 0x20000 // Toggle bit 17
  1: 0x03CE [0xAC] EventEntity->StatusEvent = 1*
  2: 0x03D2 [0x00] END_REQSTACK()
```

### Event 65535.63

#### Metadata

| Field        | Value   |
|--------------|---------|
| Entrypoint   | 0x03D3  |
| Data Size    | 7 bytes |
| Instructions | 3       |

```
      00 01 02 03 04 05 06 07  08 09 0A 0B 0C 0D 0E 0F
      -- -- -- -- -- -- -- --  -- -- -- -- -- -- -- --
03D0:          AC 01 0A 80 AB  04 00                       .......      
```

#### Opcodes

```
  0: 0x03D3 [0xAC] EventEntity->StatusEvent = 0*
  1: 0x03D7 [0xAB] EventEntity->Render.Flags0 |= 0x40000 // Set bit 18
  2: 0x03D9 [0x00] END_REQSTACK()
```

### Event 127

#### Metadata

| Field        | Value   |
|--------------|---------|
| Entrypoint   | 0x03DA  |
| Data Size    | 7 bytes |
| Instructions | 2       |

```
      00 01 02 03 04 05 06 07  08 09 0A 0B 0C 0D 0E 0F
      -- -- -- -- -- -- -- --  -- -- -- -- -- -- -- --
03D0:                                92 01 F8 FF FF 7F            ......
03E0: 00                                                .               
```

#### Opcodes

```
  0: 0x03DA [0x92] EventEntity->Render.Flags3 ^= 0x01
  1: 0x03E0 [0x00] END_REQSTACK()
```

### Event 65535.64

#### Metadata

| Field        | Value    |
|--------------|----------|
| Entrypoint   | 0x03E1   |
| Data Size    | 22 bytes |
| Instructions | 8        |

```
      00 01 02 03 04 05 06 07  08 09 0A 0B 0C 0D 0E 0F
      -- -- -- -- -- -- -- --  -- -- -- -- -- -- -- --
03E0:    32 0B 80 1F 00 0C 80  0D 80 0E 80 1F 01 6F 1E   2............o.
03F0: 5E 21 0A 01 6F 70 00                              ^!..op.         
```

#### Opcodes

```
  0: 0x03E1 [0x32] ExtData[1]->MainSpeed = 40* * 0.1
  1: 0x03E4 [0x1F] MOVE_ENTITY: EventEntity moves to X=15.130*, Z=1.690*, Y=-7.199*
  2: 0x03EC [0x1F] MOVE_ENTITY: Update entity position (mode=1)
  3: 0x03EE [0x6F] WAIT_FRAME_DELAY: Yield until WaitTime reaches zero
  4: 0x03EF [0x1E] EventEntity looks at Duke Alloces (ID: 17441118/0x010A215E) and starts talking
  5: 0x03F4 [0x6F] WAIT_FRAME_DELAY: Yield until WaitTime reaches zero
  6: 0x03F5 [0x70] WAIT_ENTITY_RENDER_FLAG: Wait while EventEntity->Render.Flags3 bit 2 is set (cancel turn if not)
  7: 0x03F6 [0x00] END_REQSTACK()
```
