# 17441103 - Kupert

## Common Data

| Field            | Value                       |
|------------------|-----------------------------|
| Zone             | Castle Zvahl Keep (ID: 162) |
| Block Size       | 328 bytes                   |
| Total Events     | 7                           |
| References Count | 20                          |

## List of Events

| Event ID              | Entrypoint   |   Size |   Instructions |
|-----------------------|--------------|--------|----------------|
| [65535](#event-65535) | 0x0000       |      1 |              1 |
| [101](#event-101)     | 0x0001       |      1 |              1 |
| [102](#event-102)     | 0x0002       |      1 |              1 |
| [103](#event-103)     | 0x0003       |      1 |              1 |
| [104](#event-104)     | 0x0004       |      1 |              1 |
| [113](#event-113)     | 0x0005       |    184 |             36 |
| [114](#event-114)     | 0x00BD       |     13 |              3 |

## DAT References (imed_data)

|   Index | Hex Value   |   Dec Value |
|---------|-------------|-------------|
|       0 | 0x0000      |           0 |
|       1 | 0xFFFCD36C  |  4294759276 |
|       2 | 0xFFFEAD59  |  4294880601 |
|       3 | 0xFFFF34E0  |  4294915296 |
|       4 | 0x0001      |           1 |
|       5 | 0xFFF92997  |  4294519191 |
|       6 | 0xFFFFCDD7  |  4294954455 |
|       7 | 0xFFFEF660  |  4294899296 |
|       8 | 0x0002      |           2 |
|       9 | 0xFFFA62CA  |  4294599370 |
|      10 | 0xFFFE11C0  |  4294840768 |
|      11 | 0xFFFF348E  |  4294915214 |
|      12 | 0x0003      |           3 |
|      13 | 0xFFFC6BA6  |  4294732710 |
|      14 | 0x18E01     |      101889 |
|      15 | 0x0080      |         128 |
|      16 | 0x005A      |          90 |
|      17 | 0x000A      |          10 |
|      18 | 0x0014      |          20 |
|      19 | 0x002D      |          45 |

## Events

### Event 65535

#### Metadata

| Field        | Value   |
|--------------|---------|
| Entrypoint   | 0x0000  |
| Data Size    | 1 bytes |
| Instructions | 1       |

```
      00 01 02 03 04 05 06 07  08 09 0A 0B 0C 0D 0E 0F
      -- -- -- -- -- -- -- --  -- -- -- -- -- -- -- --
0000: 00                                                .               
```

#### Opcodes

```
  0: 0x0000 [0x00] END_REQSTACK()
```

### Event 101

#### Metadata

| Field        | Value   |
|--------------|---------|
| Entrypoint   | 0x0001  |
| Data Size    | 1 bytes |
| Instructions | 1       |

```
      00 01 02 03 04 05 06 07  08 09 0A 0B 0C 0D 0E 0F
      -- -- -- -- -- -- -- --  -- -- -- -- -- -- -- --
0000:    00                                              .              
```

#### Opcodes

```
  0: 0x0001 [0x00] END_REQSTACK()
```

### Event 102

#### Metadata

| Field        | Value   |
|--------------|---------|
| Entrypoint   | 0x0002  |
| Data Size    | 1 bytes |
| Instructions | 1       |

```
      00 01 02 03 04 05 06 07  08 09 0A 0B 0C 0D 0E 0F
      -- -- -- -- -- -- -- --  -- -- -- -- -- -- -- --
0000:       00                                            .             
```

#### Opcodes

```
  0: 0x0002 [0x00] END_REQSTACK()
```

### Event 103

#### Metadata

| Field        | Value   |
|--------------|---------|
| Entrypoint   | 0x0003  |
| Data Size    | 1 bytes |
| Instructions | 1       |

```
      00 01 02 03 04 05 06 07  08 09 0A 0B 0C 0D 0E 0F
      -- -- -- -- -- -- -- --  -- -- -- -- -- -- -- --
0000:          00                                          .            
```

#### Opcodes

```
  0: 0x0003 [0x00] END_REQSTACK()
```

### Event 104

#### Metadata

| Field        | Value   |
|--------------|---------|
| Entrypoint   | 0x0004  |
| Data Size    | 1 bytes |
| Instructions | 1       |

```
      00 01 02 03 04 05 06 07  08 09 0A 0B 0C 0D 0E 0F
      -- -- -- -- -- -- -- --  -- -- -- -- -- -- -- --
0000:             00                                        .           
```

#### Opcodes

```
  0: 0x0004 [0x00] END_REQSTACK()
```

### Event 113

#### Metadata

| Field        | Value     |
|--------------|-----------|
| Entrypoint   | 0x0005    |
| Data Size    | 184 bytes |
| Instructions | 36        |

```
      00 01 02 03 04 05 06 07  08 09 0A 0B 0C 0D 0E 0F
      -- -- -- -- -- -- -- --  -- -- -- -- -- -- -- --
0000:                02 05 10  00 80 80 24 00 03 00 00       ......$....
0010: 01 80 03 01 00 02 80 03  02 00 03 80 03 03 00 00  ................
0020: 80 01 81 00 02 05 10 04  80 80 43 00 03 00 00 05  ..........C.....
0030: 80 03 01 00 06 80 03 02  00 07 80 03 03 00 00 80  ................
0040: 01 81 00 02 05 10 08 80  80 62 00 03 00 00 09 80  .........b......
0050: 03 01 00 0A 80 03 02 00  0B 80 03 03 00 00 80 01  ................
0060: 81 00 02 05 10 0C 80 80  81 00 03 00 00 0D 80 03  ................
0070: 01 00 0E 80 03 02 00 03  80 03 03 00 00 80 01 81  ................
0080: 00 37 00 00 01 00 02 00  03 00 6C 4F 21 0A 01 0F  .7........lO!...
0090: 80 10 80 1C 11 80 2F 00  4F 21 0A 01 4A 4F 21 0A  ....../.O!..JO!.
00A0: 01 F0 FF FF 7F 4E 00 4F  21 0A 01 1C 12 80 4A F0  .....N.O!.....J.
00B0: FF FF 7F 4F 21 0A 01 6F  70 1C 13 80 00           ...O!..op....   
```

#### Opcodes

```
  0: 0x0005 [0x02] IF !(Work_Zone[5] == 0*) GOTO 0x0024
  1: 0x000D [0x03] ExtData[1]->WorkLocal[0] = 4294759276*
  2: 0x0012 [0x03] ExtData[1]->WorkLocal[1] = 4294880601*
  3: 0x0017 [0x03] ExtData[1]->WorkLocal[2] = 4294915296*
  4: 0x001C [0x03] ExtData[1]->WorkLocal[3] = 0*
  5: 0x0021 [0x01] GOTO 0x0081
  6: 0x0024 [0x02] IF !(Work_Zone[5] == 1*) GOTO 0x0043
  7: 0x002C [0x03] ExtData[1]->WorkLocal[0] = 4294519191*
  8: 0x0031 [0x03] ExtData[1]->WorkLocal[1] = 4294954455*
  9: 0x0036 [0x03] ExtData[1]->WorkLocal[2] = 4294899296*
 10: 0x003B [0x03] ExtData[1]->WorkLocal[3] = 0*
 11: 0x0040 [0x01] GOTO 0x0081
 12: 0x0043 [0x02] IF !(Work_Zone[5] == 2*) GOTO 0x0062
 13: 0x004B [0x03] ExtData[1]->WorkLocal[0] = 4294599370*
 14: 0x0050 [0x03] ExtData[1]->WorkLocal[1] = 4294840768*
 15: 0x0055 [0x03] ExtData[1]->WorkLocal[2] = 4294915214*
 16: 0x005A [0x03] ExtData[1]->WorkLocal[3] = 0*
 17: 0x005F [0x01] GOTO 0x0081
 18: 0x0062 [0x02] IF !(Work_Zone[5] == 3*) GOTO 0x0081
 19: 0x006A [0x03] ExtData[1]->WorkLocal[0] = 4294732710*
 20: 0x006F [0x03] ExtData[1]->WorkLocal[1] = 101889*
 21: 0x0074 [0x03] ExtData[1]->WorkLocal[2] = 4294915296*
 22: 0x0079 [0x03] ExtData[1]->WorkLocal[3] = 0*
 23: 0x007E [0x01] GOTO 0x0081

SUBROUTINE_0081:
 24: 0x0081 [0x37] UPDATE_EVENT_POSITION_AND_DIR: x=ExtData[1]->WorkLocal[0], z=ExtData[1]->WorkLocal[1], y=ExtData[1]->WorkLocal[2], direction=ExtData[1]->WorkLocal[3]
 25: 0x008A [0x6C] FADE_ENTITY_COLOR(entity_id=Kupert (ID: 17441103/0x010A214F), end_alpha=128*, fade_time=90*)
 26: 0x0093 [0x1C] WAIT(10* ticks)
 27: 0x0096 [0x2F] Kupert (ID: 17441103/0x010A214F)->Render.Flags0 &= ~0x80000 // Bit 19
 28: 0x009C [0x4A] Kupert (ID: 17441103/0x010A214F) looks at LocalPlayer
 29: 0x00A5 [0x4E] SET_ENTITY_HIDE_FLAG: Show Kupert (ID: 17441103/0x010A214F)
 30: 0x00AB [0x1C] WAIT(20* ticks)
 31: 0x00AE [0x4A] LocalPlayer looks at Kupert (ID: 17441103/0x010A214F)
 32: 0x00B7 [0x6F] WAIT_FRAME_DELAY: Yield until WaitTime reaches zero
 33: 0x00B8 [0x70] WAIT_ENTITY_RENDER_FLAG: Wait while EventEntity->Render.Flags3 bit 2 is set (cancel turn if not)
 34: 0x00B9 [0x1C] WAIT(45* ticks)
 35: 0x00BC [0x00] END_REQSTACK()
```

### Event 114

#### Metadata

| Field        | Value    |
|--------------|----------|
| Entrypoint   | 0x00BD   |
| Data Size    | 13 bytes |
| Instructions | 3        |

```
      00 01 02 03 04 05 06 07  08 09 0A 0B 0C 0D 0E 0F
      -- -- -- -- -- -- -- --  -- -- -- -- -- -- -- --
00B0:                                         6C 4F 21               lO!
00C0: 0A 01 00 80 10 80 1C 10  80 00                    ..........      
```

#### Opcodes

```
  0: 0x00BD [0x6C] FADE_ENTITY_COLOR(entity_id=Kupert (ID: 17441103/0x010A214F), end_alpha=0*, fade_time=90*)
  1: 0x00C6 [0x1C] WAIT(90* ticks)
  2: 0x00C9 [0x00] END_REQSTACK()
```
