# 17441024 - Ore Door

## Common Data

| Field            | Value                       |
|------------------|-----------------------------|
| Zone             | Castle Zvahl Keep (ID: 162) |
| Block Size       | 492 bytes                   |
| Total Events     | 5                           |
| References Count | 17                          |

## List of Events

| Event ID                 | Entrypoint   |   Size |   Instructions |
|--------------------------|--------------|--------|----------------|
| [65535](#event-65535)    | 0x0000       |      1 |              1 |
| [8](#event-8)            | 0x0001       |    260 |             40 |
| [65535.1](#event-655351) | 0x0105       |      9 |              5 |
| [9](#event-9)            | 0x010E       |     54 |             12 |
| [65535.2](#event-655352) | 0x0144       |     61 |             13 |

## DAT References (imed_data)

|   Index | Hex Value   |   Dec Value |
|---------|-------------|-------------|
|       0 | 0x1C3C      |        7228 |
|       1 | 0x0050      |          80 |
|       2 | 0x00C8      |         200 |
|       3 | 0x0000      |           0 |
|       4 | 0x003C      |          60 |
|       5 | 0x0013      |          19 |
|       6 | 0x0014      |          20 |
|       7 | 0x001C      |          28 |
|       8 | 0x000F      |          15 |
|       9 | 0x1C40      |        7232 |
|      10 | 0x1C41      |        7233 |
|      11 | 0x0168      |         360 |
|      12 | 0xFFFFB6C2  |  4294948546 |
|      13 | 0x1C3F      |        7231 |
|      14 | 0x1C3D      |        7229 |
|      15 | 0x0004      |           4 |
|      16 | 0x0028      |          40 |

## String References

- **7228**: Your $0 broke!
- **7229**: Do you want to leave the room? [Yes./Not yet.]
- **7231**: You can sense something terrible behind the door. You should probably refrain from entering.
- **7232**: This magic doll has had a seal placed upon it.
- **7233**: The old, worn-out seal breaks as you approach.

## Events

### Event 65535

#### Metadata

| Field        | Value   |
|--------------|---------|
| Entrypoint   | 0x0000  |
| Data Size    | 1 bytes |
| Instructions | 1       |

```
      00 01 02 03 04 05 06 07  08 09 0A 0B 0C 0D 0E 0F
      -- -- -- -- -- -- -- --  -- -- -- -- -- -- -- --
0000: 00                                                .               
```

#### Opcodes

```
  0: 0x0000 [0x00] END_REQSTACK()
```

### Event 8

#### Metadata

| Field        | Value     |
|--------------|-----------|
| Entrypoint   | 0x0001    |
| Data Size    | 260 bytes |
| Instructions | 40        |

```
      00 01 02 03 04 05 06 07  08 09 0A 0B 0C 0D 0E 0F
      -- -- -- -- -- -- -- --  -- -- -- -- -- -- -- --
0000:    20 01 42 46 01 4E 00  37 21 0A 01 80 37 21 0A    .BF.N.7!...7!.
0010: 01 92 01 37 21 0A 01 48  00 80 23 4C 1C 01 80 45  ...7!..H..#L...E
0020: 02 80 F8 FF FF 7F F8 FF  FF 7F 66 64 6F 31 03 80  ..........fdo1..
0030: 1C 04 80 38 05 80 29 08  F0 FF FF 7F 0C 4E 00 37  ...8..)......N.7
0040: 21 0A 01 80 37 21 0A 01  1C 06 80 62 07 80 37 21  !...7!.....b..7!
0050: 0A 01 37 21 0A 01 6D 61  69 6E 03 80 4D 1C 01 80  ..7!..main..M...
0060: 27 08 F0 FF FF 7F 0D 45  08 80 F0 FF FF 7F F0 FF  '......E........
0070: FF 7F 73 31 33 38 03 80  45 02 80 F8 FF FF 7F F8  ..s138..E.......
0080: FF FF 7F 66 64 69 31 03  80 2A 08 F0 FF FF 7F 52  ...fdi1..*.....R
0090: 08 80 F0 FF FF 7F F0 FF  FF 7F 73 31 33 38 45 08  ..........s138E.
00A0: 80 F0 FF FF 7F F0 FF FF  7F 73 31 33 39 03 80 48  .........s139..H
00B0: 09 80 23 55 08 80 F0 FF  FF 7F F0 FF FF 7F 73 31  ..#U..........s1
00C0: 33 39 48 0A 80 23 62 07  80 37 21 0A 01 37 21 0A  39H..#b..7!..7!.
00D0: 01 67 68 73 74 03 80 1C  01 80 45 02 80 F8 FF FF  .ghst.....E.....
00E0: 7F F8 FF FF 7F 66 64 6F  31 03 80 1C 02 80 45 02  .....fdo1.....E.
00F0: 80 F8 FF FF 7F F8 FF FF  7F 66 64 69 31 03 80 46  .........fdi1..F
0100: 00 20 00 21 00                                    . .!.           
```

#### Opcodes

```
  0: 0x0001 [0x20] SET_CLI_EVENT_UC_FLAG: Lock player control
  1: 0x0003 [0x42] SET_CLI_EVENT_CANCEL_DATA()
  2: 0x0004 [0x46] CAMERA_CONTROL: Disable user control
  3: 0x0006 [0x4E] SET_ENTITY_HIDE_FLAG: Show Talking Doll (ID: 17441079/0x010A2137)
  4: 0x000C [0x80] LOAD_WAIT(entity=Talking Doll (ID: 17441079/0x010A2137))
  5: 0x0011 [0x92] Talking Doll (ID: 17441079/0x010A2137)->Render.Flags3 ^= 0x01
  6: 0x0017 [0x48] [System] [7228*]:
    → "Your $0 broke!"
  7: 0x001A [0x23] WAIT_FOR_DIALOG_INTERACTION
  8: 0x001B [0x4C] EventEntity->StatusEvent = 8 // Open door
  9: 0x001C [0x1C] WAIT(80* ticks)
 10: 0x001F [0x45] LOAD_SCHEDULED_TASK: Load scheduler "fdo1" with entities [EventEntity, EventEntity], work=[200*, 0*]
 11: 0x0030 [0x1C] WAIT(60* ticks)
 12: 0x0033 [0x38] SET_CLIENT_EVENT_MODE(mode=19*)
 13: 0x0036 [0x29] REQ_SET_WAIT(priority=0x08, entity_id=LocalPlayer, tag_num=0x0C)
 14: 0x003D [0x4E] SET_ENTITY_HIDE_FLAG: Show Talking Doll (ID: 17441079/0x010A2137)
 15: 0x0043 [0x80] LOAD_WAIT(entity=Talking Doll (ID: 17441079/0x010A2137))
 16: 0x0048 [0x1C] WAIT(20* ticks)
 17: 0x004B [0x62] LOAD_EVENT_SCHEDULER: Load scheduler "main" with entities [Talking Doll (ID: 17441079/0x010A2137), Talking Doll (ID: 17441079/0x010A2137)], work=[28*, 0*]
 18: 0x005C [0x4D] EventEntity->StatusEvent = 9 // Close door
 19: 0x005D [0x1C] WAIT(80* ticks)
 20: 0x0060 [0x27] REQ_SET(priority=0x08, entity_id=LocalPlayer, tag_num=0x0D)
 21: 0x0067 [0x45] LOAD_SCHEDULED_TASK: Load scheduler "s138" with entities [LocalPlayer, LocalPlayer], work=[15*, 0*]
 22: 0x0078 [0x45] LOAD_SCHEDULED_TASK: Load scheduler "fdi1" with entities [EventEntity, EventEntity], work=[200*, 0*]
 23: 0x0089 [0x2A] GET_REQ_LEVEL(level=8, entity_id=LocalPlayer)
 24: 0x008F [0x52] END_LOAD_SCHEDULER: End scheduler "s138" with entities [LocalPlayer, LocalPlayer], work=15*
 25: 0x009E [0x45] LOAD_SCHEDULED_TASK: Load scheduler "s139" with entities [LocalPlayer, LocalPlayer], work=[15*, 0*]
 26: 0x00AF [0x48] [System] [7232*]:
    → "This magic doll has had a seal placed upon it."
 27: 0x00B2 [0x23] WAIT_FOR_DIALOG_INTERACTION
 28: 0x00B3 [0x55] WAIT_LOAD_SCHEDULER: Wait for scheduler "s139" with entities [LocalPlayer, LocalPlayer], work=15*
 29: 0x00C2 [0x48] [System] [7233*]:
    → "The old, worn-out seal breaks as you approach."
 30: 0x00C5 [0x23] WAIT_FOR_DIALOG_INTERACTION
 31: 0x00C6 [0x62] LOAD_EVENT_SCHEDULER: Load scheduler "ghst" with entities [Talking Doll (ID: 17441079/0x010A2137), Talking Doll (ID: 17441079/0x010A2137)], work=[28*, 0*]
 32: 0x00D7 [0x1C] WAIT(80* ticks)
 33: 0x00DA [0x45] LOAD_SCHEDULED_TASK: Load scheduler "fdo1" with entities [EventEntity, EventEntity], work=[200*, 0*]
 34: 0x00EB [0x1C] WAIT(200* ticks)
 35: 0x00EE [0x45] LOAD_SCHEDULED_TASK: Load scheduler "fdi1" with entities [EventEntity, EventEntity], work=[200*, 0*]
 36: 0x00FF [0x46] CAMERA_CONTROL: Restore default settings
 37: 0x0101 [0x20] SET_CLI_EVENT_UC_FLAG: Unlock player control
 38: 0x0103 [0x21] END_EVENT
 39: 0x0104 [0x00] END_REQSTACK()
```

### Event 65535.1

#### Metadata

| Field        | Value   |
|--------------|---------|
| Entrypoint   | 0x0105  |
| Data Size    | 9 bytes |
| Instructions | 5       |

```
      00 01 02 03 04 05 06 07  08 09 0A 0B 0C 0D 0E 0F
      -- -- -- -- -- -- -- --  -- -- -- -- -- -- -- --
0100:                4C 1C 0B  80 4D 1C 01 80 00             L...M....  
```

#### Opcodes

```
  0: 0x0105 [0x4C] EventEntity->StatusEvent = 8 // Open door
  1: 0x0106 [0x1C] WAIT(360* ticks)
  2: 0x0109 [0x4D] EventEntity->StatusEvent = 9 // Close door
  3: 0x010A [0x1C] WAIT(80* ticks)
  4: 0x010D [0x00] END_REQSTACK()
```

### Event 9

#### Metadata

| Field        | Value    |
|--------------|----------|
| Entrypoint   | 0x010E   |
| Data Size    | 54 bytes |
| Instructions | 12       |

```
      00 01 02 03 04 05 06 07  08 09 0A 0B 0C 0D 0E 0F
      -- -- -- -- -- -- -- --  -- -- -- -- -- -- -- --
0100:                                            3B F0                ;.
0110: FF FF 7F 00 00 01 00 02  00 02 00 00 0C 80 02 28  ...............(
0120: 01 48 0D 80 23 01 42 01  24 0E 80 03 80 03 80 25  .H..#.B.$......%
0130: 02 00 10 03 80 00 42 01  29 03 00 21 0A 01 04 01  ......B.)..!....
0140: 42 01 21 00                                       B.!.            
```

#### Opcodes

```
  0: 0x010E [0x3B] GET_ENTITY_POSITION(entity=LocalPlayer, x_destination=ExtData[1]->WorkLocal[0], y_destination=ExtData[1]->WorkLocal[1], z_destination=ExtData[1]->WorkLocal[2])
  1: 0x0119 [0x02] IF !(ExtData[1]->WorkLocal[0] <= 4294948546*) GOTO 0x0128
  2: 0x0121 [0x48] [System] [7231*]:
    → "You can sense something terrible behind the door. You should probably refrain from entering."
  3: 0x0124 [0x23] WAIT_FOR_DIALOG_INTERACTION
  4: 0x0125 [0x01] GOTO 0x0142
  5: 0x0128 [0x24] CREATE_DIALOG(message_id=7229*, default_option=0*, option_flags=0*)
    → "Do you want to leave the room? [Yes./Not yet.]"
  6: 0x012F [0x25] WAIT_DIALOG_SELECT()
  7: 0x0130 [0x02] IF !(Work_Zone[0] == 0*) GOTO 0x0142
  8: 0x0138 [0x29] REQ_SET_WAIT(priority=0x03, entity_id=Ore Door (ID: 17441024/0x010A2100), tag_num=0x04)
  9: 0x013F [0x01] GOTO 0x0142

SUBROUTINE_0142:
 10: 0x0142 [0x21] END_EVENT
 11: 0x0143 [0x00] END_REQSTACK()
```

### Event 65535.2

#### Metadata

| Field        | Value    |
|--------------|----------|
| Entrypoint   | 0x0144   |
| Data Size    | 61 bytes |
| Instructions | 13       |

```
      00 01 02 03 04 05 06 07  08 09 0A 0B 0C 0D 0E 0F
      -- -- -- -- -- -- -- --  -- -- -- -- -- -- -- --
0140:             42 43 00 43  01 38 0F 80 4C 1C 10 80      BC.C.8..L...
0150: 45 02 80 F0 FF FF 7F F0  FF FF 7F 66 64 6F 31 03  E..........fdo1.
0160: 80 1C 04 80 29 03 F0 FF  FF 7F 0E 45 02 80 F0 FF  ....)......E....
0170: FF 7F F0 FF FF 7F 66 64  69 31 03 80 4D 1C 04 80  ......fdi1..M...
0180: 00                                                .               
```

#### Opcodes

```
  0: 0x0144 [0x42] SET_CLI_EVENT_CANCEL_DATA()
  1: 0x0145 [0x43] SEND_EVENT_UPDATE: Send pending tag to server (packet 0x005B)
  2: 0x0147 [0x43] SEND_EVENT_UPDATE: Check pending flag (skip if not pending)
  3: 0x0149 [0x38] SET_CLIENT_EVENT_MODE(mode=4*)
  4: 0x014C [0x4C] EventEntity->StatusEvent = 8 // Open door
  5: 0x014D [0x1C] WAIT(40* ticks)
  6: 0x0150 [0x45] LOAD_SCHEDULED_TASK: Load scheduler "fdo1" with entities [LocalPlayer, LocalPlayer], work=[200*, 0*]
  7: 0x0161 [0x1C] WAIT(60* ticks)
  8: 0x0164 [0x29] REQ_SET_WAIT(priority=0x03, entity_id=LocalPlayer, tag_num=0x0E)
  9: 0x016B [0x45] LOAD_SCHEDULED_TASK: Load scheduler "fdi1" with entities [LocalPlayer, LocalPlayer], work=[200*, 0*]
 10: 0x017C [0x4D] EventEntity->StatusEvent = 9 // Close door
 11: 0x017D [0x1C] WAIT(60* ticks)
 12: 0x0180 [0x00] END_REQSTACK()
```
