# 0x7FFFFFF0 - Zone Events

## Common Data

| Field            | Value                       |
|------------------|-----------------------------|
| Zone             | Castle Zvahl Keep (ID: 162) |
| Block Size       | 2628 bytes                  |
| Total Events     | 44                          |
| References Count | 141                         |

## List of Events

| Event ID                   | Entrypoint   |   Size |   Instructions |
|----------------------------|--------------|--------|----------------|
| [65535](#event-65535)      | 0x0000       |      1 |              1 |
| [65534](#event-65534)      | 0x0001       |      1 |              1 |
| [118](#event-118)          | 0x0002       |    118 |             16 |
| [0](#event-0)              | 0x0078       |     59 |             11 |
| [1](#event-1)              | 0x00B3       |     59 |             11 |
| [2](#event-2)              | 0x00EE       |     59 |             11 |
| [3](#event-3)              | 0x0129       |     59 |             11 |
| [4](#event-4)              | 0x0164       |     59 |             11 |
| [5](#event-5)              | 0x019F       |     87 |             16 |
| [6](#event-6)              | 0x01F6       |    167 |             30 |
| [7](#event-7)              | 0x029D       |    167 |             30 |
| [8](#event-8)              | 0x0344       |      1 |              1 |
| [65535.1](#event-655351)   | 0x0345       |     10 |              2 |
| [65535.2](#event-655352)   | 0x034F       |     14 |              4 |
| [65535.3](#event-655353)   | 0x035D       |     10 |              2 |
| [65535.4](#event-655354)   | 0x0367       |    353 |             41 |
| [65535.5](#event-655355)   | 0x04C8       |      7 |              3 |
| [65535.6](#event-655356)   | 0x04CF       |      7 |              3 |
| [65535.7](#event-655357)   | 0x04D6       |     19 |              7 |
| [65535.8](#event-655358)   | 0x04E9       |     23 |              7 |
| [65535.9](#event-655359)   | 0x0500       |     25 |              7 |
| [65535.10](#event-6553510) | 0x0519       |     15 |              5 |
| [65535.11](#event-6553511) | 0x0528       |     14 |              4 |
| [65535.12](#event-6553512) | 0x0536       |      9 |              3 |
| [65535.13](#event-6553513) | 0x053F       |      5 |              2 |
| [65535.14](#event-6553514) | 0x0544       |     58 |             10 |
| [65535.15](#event-6553515) | 0x057E       |     15 |              5 |
| [65535.16](#event-6553516) | 0x058D       |     15 |              5 |
| [65535.17](#event-6553517) | 0x059C       |     15 |              5 |
| [65535.18](#event-6553518) | 0x05AB       |     15 |              5 |
| [65535.19](#event-6553519) | 0x05BA       |    168 |             38 |
| [65535.20](#event-6553520) | 0x0662       |      7 |              3 |
| [65535.21](#event-6553521) | 0x0669       |      7 |              3 |
| [65535.22](#event-6553522) | 0x0670       |     37 |              5 |
| [65535.23](#event-6553523) | 0x0695       |     37 |              5 |
| [65535.24](#event-6553524) | 0x06BA       |     22 |              8 |
| [65535.25](#event-6553525) | 0x06D0       |     22 |              8 |
| [65535.26](#event-6553526) | 0x06E6       |     22 |              8 |
| [65535.27](#event-6553527) | 0x06FC       |     15 |              5 |
| [65535.28](#event-6553528) | 0x070B       |     15 |              5 |
| [65535.29](#event-6553529) | 0x071A       |     15 |              5 |
| [65535.30](#event-6553530) | 0x0729       |     15 |              5 |
| [65535.31](#event-6553531) | 0x0738       |     15 |              5 |
| [65535.32](#event-6553532) | 0x0747       |      6 |              2 |

## DAT References (imed_data)

|   Index | Hex Value   |   Dec Value |
|---------|-------------|-------------|
|       0 | 0x1CDD      |        7389 |
|       1 | 0x001C      |          28 |
|       2 | 0x0000      |           0 |
|       3 | 0x005A      |          90 |
|       4 | 0x00C9      |         201 |
|       5 | 0x002D      |          45 |
|       6 | 0x00C8      |         200 |
|       7 | 0x000F      |          15 |
|       8 | 0x0001      |           1 |
|       9 | 0x00B4      |         180 |
|      10 | 0xFFFC5687  |  4294727303 |
|      11 | 0x1375B     |       79707 |
|      12 | 0xFFFF34E0  |  4294915296 |
|      13 | 0x0C88      |        3208 |
|      14 | 0x0002      |           2 |
|      15 | 0xFFFA81CC  |  4294607308 |
|      16 | 0xFFFE2B15  |  4294847253 |
|      17 | 0x0C43      |        3139 |
|      18 | 0xFFFCF2E0  |  4294767328 |
|      19 | 0xFFFEB9AA  |  4294883754 |
|      20 | 0xFFFF34E1  |  4294915297 |
|      21 | 0x0C22      |        3106 |
|      22 | 0xFFF9A746  |  4294551366 |
|      23 | 0xE747      |       59207 |
|      24 | 0xFFFEF94E  |  4294900046 |
|      25 | 0x0803      |        2051 |
|      26 | 0xFFF821BD  |  4294451645 |
|      27 | 0x12ACA     |       76490 |
|      28 | 0xFFFEE6C0  |  4294895296 |
|      29 | 0x07F5      |        2037 |
|      30 | 0xFFF82567  |  4294452583 |
|      31 | 0xACAE      |       44206 |
|      32 | 0x0784      |        1924 |
|      33 | 0x0004      |           4 |
|      34 | 0xFFFFA5CE  |  4294944206 |
|      35 | 0xFFFFB314  |  4294947604 |
|      36 | 0x07E7      |        2023 |
|      37 | 0xFFFE8427  |  4294870055 |
|      38 | 0xFFFFB31E  |  4294947614 |
|      39 | 0xFFFFC180  |  4294951296 |
|      40 | 0x0FEA      |        4074 |
|      41 | 0xFFF94AB9  |  4294527673 |
|      42 | 0x1D4BB     |      119995 |
|      43 | 0xFFFEF660  |  4294899296 |
|      44 | 0x07FB      |        2043 |
|      45 | 0x0003      |           3 |
|      46 | 0xFFFE7600  |  4294866432 |
|      47 | 0x19F5C     |      106332 |
|      48 | 0xFFFFC3DA  |  4294951898 |
|      49 | 0x03F5      |        1013 |
|      50 | 0xFFFF992B  |  4294940971 |
|      51 | 0x1AE14     |      110100 |
|      52 | 0x0259      |         601 |
|      53 | 0x07C2      |        1986 |
|      54 | 0xFFF9496F  |  4294527343 |
|      55 | 0x003C      |          60 |
|      56 | 0xFFFEF661  |  4294899297 |
|      57 | 0x0847      |        2119 |
|      58 | 0xFFFE7823  |  4294866979 |
|      59 | 0xFFFDACD3  |  4294814931 |
|      60 | 0x0B48      |        2888 |
|      61 | 0xFFFF8723  |  4294936355 |
|      62 | 0xFFFDBE13  |  4294819347 |
|      63 | 0x03BB      |         955 |
|      64 | 0xFFFFA008  |  4294942728 |
|      65 | 0x10FA9     |       69545 |
|      66 | 0xFFFFFD87  |  4294966663 |
|      67 | 0x07E6      |        2022 |
|      68 | 0x000D      |          13 |
|      69 | 0xFFFF8222  |  4294935074 |
|      70 | 0x11069     |       69737 |
|      71 | 0xFFFFFFB9  |  4294967225 |
|      72 | 0xFFFFBBE6  |  4294949862 |
|      73 | 0x1118B     |       70027 |
|      74 | 0x0080      |         128 |
|      75 | 0x0EED      |        3821 |
|      76 | 0x0095      |         149 |
|      77 | 0x0078      |         120 |
|      78 | 0x009F      |         159 |
|      79 | 0x00A9      |         169 |
|      80 | 0x00B3      |         179 |
|      81 | 0x0005      |           5 |
|      82 | 0x00BD      |         189 |
|      83 | 0x0006      |           6 |
|      84 | 0x0007      |           7 |
|      85 | 0x00C7      |         199 |
|      86 | 0x0008      |           8 |
|      87 | 0x0045      |          69 |
|      88 | 0x0028      |          40 |
|      89 | 0x4268      |       17000 |
|      90 | 0x1964      |        6500 |
|      91 | 0x09C4      |        2500 |
|      92 | 0x001E      |          30 |
|      93 | 0x4888      |       18568 |
|      94 | 0x04A9      |        1193 |
|      95 | 0xA1E5      |       41445 |
|      96 | 0x0204      |         516 |
|      97 | 0xFFF9D7D4  |  4294563796 |
|      98 | 0x4E20      |       20000 |
|      99 | 0xFFFF5808  |  4294924296 |
|     100 | 0xFFFFF49B  |  4294964379 |
|     101 | 0xFFFFDBFA  |  4294958074 |
|     102 | 0xFFFFE3E0  |  4294960096 |
|     103 | 0x3D1B      |       15643 |
|     104 | 0xFFFFFCA2  |  4294966434 |
|     105 | 0xFFF7B6E8  |  4294424296 |
|     106 | 0xEA60      |       60000 |
|     107 | 0xFFF79B90  |  4294417296 |
|     108 | 0xFFFEEE90  |  4294897296 |
|     109 | 0x2E1A      |       11802 |
|     110 | 0xFFFFF086  |  4294963334 |
|     111 | 0xFFFFE4A8  |  4294960296 |
|     112 | 0x3115      |       12565 |
|     113 | 0xFFFFF420  |  4294964256 |
|     114 | 0x000A      |          10 |
|     115 | 0x0009      |           9 |
|     116 | 0x0046      |          70 |
|     117 | 0x008C      |         140 |
|     118 | 0x00D2      |         210 |
|     119 | 0x1792      |        6034 |
|     120 | 0x00EB      |         235 |
|     121 | 0xFFFFE438  |  4294960184 |
|     122 | 0x1A4E      |        6734 |
|     123 | 0x0035      |          53 |
|     124 | 0xFFFFE45E  |  4294960222 |
|     125 | 0x2380      |        9088 |
|     126 | 0x0031      |          49 |
|     127 | 0xFFFFE3E1  |  4294960097 |
|     128 | 0x1A57      |        6743 |
|     129 | 0x0474      |        1140 |
|     130 | 0xFFFFE431  |  4294960177 |
|     131 | 0x1B86      |        7046 |
|     132 | 0x0416      |        1046 |
|     133 | 0x225D      |        8797 |
|     134 | 0x0278      |         632 |
|     135 | 0x1C5C      |        7260 |
|     136 | 0x03FC      |        1020 |
|     137 | 0xFFFFE3D7  |  4294960087 |
|     138 | 0xFFF92B6D  |  4294519661 |
|     139 | 0xFFFC56ED  |  4294727405 |
|     140 | 0xFFFD72E1  |  4294800097 |

## String References

- **7389**: Entering [/Duke Alloces's Decision/The Voracious Beast (Garazu-Horeizu)/The Voracious Beast (Chaos)/Wings of War][/: Very Difficult/: Difficult/: Normal/: Easy/: Very Easy].

## Events

### Event 65535

#### Metadata

| Field        | Value   |
|--------------|---------|
| Entrypoint   | 0x0000  |
| Data Size    | 1 bytes |
| Instructions | 1       |

```
      00 01 02 03 04 05 06 07  08 09 0A 0B 0C 0D 0E 0F
      -- -- -- -- -- -- -- --  -- -- -- -- -- -- -- --
0000: 00                                                .               
```

#### Opcodes

```
  0: 0x0000 [0x00] END_REQSTACK()
```

### Event 65534

#### Metadata

| Field        | Value   |
|--------------|---------|
| Entrypoint   | 0x0001  |
| Data Size    | 1 bytes |
| Instructions | 1       |

```
      00 01 02 03 04 05 06 07  08 09 0A 0B 0C 0D 0E 0F
      -- -- -- -- -- -- -- --  -- -- -- -- -- -- -- --
0000:    00                                              .              
```

#### Opcodes

```
  0: 0x0001 [0x00] END_REQSTACK()
```

### Event 118

#### Metadata

| Field        | Value     |
|--------------|-----------|
| Entrypoint   | 0x0002    |
| Data Size    | 118 bytes |
| Instructions | 16        |

```
      00 01 02 03 04 05 06 07  08 09 0A 0B 0C 0D 0E 0F
      -- -- -- -- -- -- -- --  -- -- -- -- -- -- -- --
0000:       42 48 00 80 1A 0B  00 21 00 D5 01 80 F0 FF    BH.....!......
0010: FF 7F F0 FF FF 7F 6D 61  69 6E 02 80 1C 03 80 45  ......main.....E
0020: 04 80 F0 FF FF 7F F0 FF  FF 7F 77 68 6F 31 02 80  ..........who1..
0030: 55 04 80 F0 FF FF 7F F0  FF FF 7F 77 68 6F 31 1C  U..........who1.
0040: 05 80 45 06 80 F0 FF FF  7F F0 FF FF 7F 66 64 6F  ..E..........fdo
0050: 31 02 80 55 06 80 F0 FF  FF 7F F0 FF FF 7F 66 64  1..U..........fd
0060: 6F 31 45 04 80 F0 FF FF  7F F0 FF FF 7F 77 68 69  o1E..........whi
0070: 31 02 80 1C 07 80 30 1B                           1.....0.        
```

#### Opcodes

```
  0: 0x0002 [0x42] SET_CLI_EVENT_CANCEL_DATA()
  1: 0x0003 [0x48] [System] [7389*]:
    → "Entering [/Duke Alloces's Decision/The Voracious Beast (Garazu-Horeizu)/The Voracious Beast (Chaos)/Wings of War][/: Very Difficult/: Difficult/: Normal/: Easy/: Very Easy]."
  2: 0x0006 [0x1A] CALL_SUBROUTINE(address=0x000B)
  3: 0x0009 [0x21] END_EVENT
  4: 0x000A [0x00] END_REQSTACK()

SUBROUTINE_000B:
  5: 0x000B [0xD5] LOAD_EVENT_SCHEDULER_ALT8: Load scheduler "ma" with entities [LocalPlayer, LocalPlayer], work=ExtData[1]->WorkLocal[2]
  6: 0x001C [0x1C] WAIT(90* ticks)
  7: 0x001F [0x45] LOAD_SCHEDULED_TASK: Load scheduler "who1" with entities [LocalPlayer, LocalPlayer], work=[201*, 0*]
  8: 0x0030 [0x55] WAIT_LOAD_SCHEDULER: Wait for scheduler "who1" with entities [LocalPlayer, LocalPlayer], work=201*
  9: 0x003F [0x1C] WAIT(45* ticks)
 10: 0x0042 [0x45] LOAD_SCHEDULED_TASK: Load scheduler "fdo1" with entities [LocalPlayer, LocalPlayer], work=[200*, 0*]
 11: 0x0053 [0x55] WAIT_LOAD_SCHEDULER: Wait for scheduler "fdo1" with entities [LocalPlayer, LocalPlayer], work=200*
 12: 0x0062 [0x45] LOAD_SCHEDULED_TASK: Load scheduler "whi1" with entities [LocalPlayer, LocalPlayer], work=[201*, 0*]
 13: 0x0073 [0x1C] WAIT(15* ticks)
 14: 0x0076 [0x30] SET_UCOFF_CONTINUE_ZERO()
 15: 0x0077 [0x1B] RETURN
```

### Event 0

#### Metadata

| Field        | Value    |
|--------------|----------|
| Entrypoint   | 0x0078   |
| Data Size    | 59 bytes |
| Instructions | 11       |

```
      00 01 02 03 04 05 06 07  08 09 0A 0B 0C 0D 0E 0F
      -- -- -- -- -- -- -- --  -- -- -- -- -- -- -- --
0070:                          20 01 42 62 08 80 F8 FF           .Bb....
0080: FF 7F F8 FF FF 7F 6D 61  69 6E 02 80 1C 09 80 47  ......main.....G
0090: 00 0A 80 0B 80 0C 80 0D  80 47 01 62 0E 80 F8 FF  .........G.b....
00A0: FF 7F F8 FF FF 7F 6D 61  69 6E 02 80 1C 09 80 20  ......main..... 
00B0: 00 21 00                                          .!.             
```

#### Opcodes

```
  0: 0x0078 [0x20] SET_CLI_EVENT_UC_FLAG: Lock player control
  1: 0x007A [0x42] SET_CLI_EVENT_CANCEL_DATA()
  2: 0x007B [0x62] LOAD_EVENT_SCHEDULER: Load scheduler "main" with entities [EventEntity, EventEntity], work=[1*, 0*]
  3: 0x008C [0x1C] WAIT(180* ticks)
  4: 0x008F [0x47] UPDATE_PLAYER_POS(-239.993*, 79.707*, -52.000*, yaw=281.9°*)
  5: 0x0099 [0x47] WAIT_PLAYER_POS_UPDATE
  6: 0x009B [0x62] LOAD_EVENT_SCHEDULER: Load scheduler "main" with entities [EventEntity, EventEntity], work=[2*, 0*]
  7: 0x00AC [0x1C] WAIT(180* ticks)
  8: 0x00AF [0x20] SET_CLI_EVENT_UC_FLAG: Unlock player control
  9: 0x00B1 [0x21] END_EVENT
 10: 0x00B2 [0x00] END_REQSTACK()
```

### Event 1

#### Metadata

| Field        | Value    |
|--------------|----------|
| Entrypoint   | 0x00B3   |
| Data Size    | 59 bytes |
| Instructions | 11       |

```
      00 01 02 03 04 05 06 07  08 09 0A 0B 0C 0D 0E 0F
      -- -- -- -- -- -- -- --  -- -- -- -- -- -- -- --
00B0:          20 01 42 62 08  80 F8 FF FF 7F F8 FF FF      .Bb.........
00C0: 7F 6D 61 69 6E 02 80 1C  09 80 47 00 0F 80 10 80  .main.....G.....
00D0: 0C 80 11 80 47 01 62 0E  80 F8 FF FF 7F F8 FF FF  ....G.b.........
00E0: 7F 6D 61 69 6E 02 80 1C  09 80 20 00 21 00        .main..... .!.  
```

#### Opcodes

```
  0: 0x00B3 [0x20] SET_CLI_EVENT_UC_FLAG: Lock player control
  1: 0x00B5 [0x42] SET_CLI_EVENT_CANCEL_DATA()
  2: 0x00B6 [0x62] LOAD_EVENT_SCHEDULER: Load scheduler "main" with entities [EventEntity, EventEntity], work=[1*, 0*]
  3: 0x00C7 [0x1C] WAIT(180* ticks)
  4: 0x00CA [0x47] UPDATE_PLAYER_POS(-359.988*, -120.043*, -52.000*, yaw=275.9°*)
  5: 0x00D4 [0x47] WAIT_PLAYER_POS_UPDATE
  6: 0x00D6 [0x62] LOAD_EVENT_SCHEDULER: Load scheduler "main" with entities [EventEntity, EventEntity], work=[2*, 0*]
  7: 0x00E7 [0x1C] WAIT(180* ticks)
  8: 0x00EA [0x20] SET_CLI_EVENT_UC_FLAG: Unlock player control
  9: 0x00EC [0x21] END_EVENT
 10: 0x00ED [0x00] END_REQSTACK()
```

### Event 2

#### Metadata

| Field        | Value    |
|--------------|----------|
| Entrypoint   | 0x00EE   |
| Data Size    | 59 bytes |
| Instructions | 11       |

```
      00 01 02 03 04 05 06 07  08 09 0A 0B 0C 0D 0E 0F
      -- -- -- -- -- -- -- --  -- -- -- -- -- -- -- --
00E0:                                            20 01                 .
00F0: 42 62 08 80 F8 FF FF 7F  F8 FF FF 7F 6D 61 69 6E  Bb..........main
0100: 02 80 1C 09 80 47 00 12  80 13 80 14 80 15 80 47  .....G.........G
0110: 01 62 0E 80 F8 FF FF 7F  F8 FF FF 7F 6D 61 69 6E  .b..........main
0120: 02 80 1C 09 80 20 00 21  00                       ..... .!.       
```

#### Opcodes

```
  0: 0x00EE [0x20] SET_CLI_EVENT_UC_FLAG: Lock player control
  1: 0x00F0 [0x42] SET_CLI_EVENT_CANCEL_DATA()
  2: 0x00F1 [0x62] LOAD_EVENT_SCHEDULER: Load scheduler "main" with entities [EventEntity, EventEntity], work=[1*, 0*]
  3: 0x0102 [0x1C] WAIT(180* ticks)
  4: 0x0105 [0x47] UPDATE_PLAYER_POS(-199.968*, -83.542*, -51.999*, yaw=273.0°*)
  5: 0x010F [0x47] WAIT_PLAYER_POS_UPDATE
  6: 0x0111 [0x62] LOAD_EVENT_SCHEDULER: Load scheduler "main" with entities [EventEntity, EventEntity], work=[2*, 0*]
  7: 0x0122 [0x1C] WAIT(180* ticks)
  8: 0x0125 [0x20] SET_CLI_EVENT_UC_FLAG: Unlock player control
  9: 0x0127 [0x21] END_EVENT
 10: 0x0128 [0x00] END_REQSTACK()
```

### Event 3

#### Metadata

| Field        | Value    |
|--------------|----------|
| Entrypoint   | 0x0129   |
| Data Size    | 59 bytes |
| Instructions | 11       |

```
      00 01 02 03 04 05 06 07  08 09 0A 0B 0C 0D 0E 0F
      -- -- -- -- -- -- -- --  -- -- -- -- -- -- -- --
0120:                             20 01 42 62 08 80 F8            .Bb...
0130: FF FF 7F F8 FF FF 7F 6D  61 69 6E 02 80 1C 09 80  .......main.....
0140: 47 00 0F 80 10 80 0C 80  11 80 47 01 62 0E 80 F8  G.........G.b...
0150: FF FF 7F F8 FF FF 7F 6D  61 69 6E 02 80 1C 09 80  .......main.....
0160: 20 00 21 00                                        .!.            
```

#### Opcodes

```
  0: 0x0129 [0x20] SET_CLI_EVENT_UC_FLAG: Lock player control
  1: 0x012B [0x42] SET_CLI_EVENT_CANCEL_DATA()
  2: 0x012C [0x62] LOAD_EVENT_SCHEDULER: Load scheduler "main" with entities [EventEntity, EventEntity], work=[1*, 0*]
  3: 0x013D [0x1C] WAIT(180* ticks)
  4: 0x0140 [0x47] UPDATE_PLAYER_POS(-359.988*, -120.043*, -52.000*, yaw=275.9°*)
  5: 0x014A [0x47] WAIT_PLAYER_POS_UPDATE
  6: 0x014C [0x62] LOAD_EVENT_SCHEDULER: Load scheduler "main" with entities [EventEntity, EventEntity], work=[2*, 0*]
  7: 0x015D [0x1C] WAIT(180* ticks)
  8: 0x0160 [0x20] SET_CLI_EVENT_UC_FLAG: Unlock player control
  9: 0x0162 [0x21] END_EVENT
 10: 0x0163 [0x00] END_REQSTACK()
```

### Event 4

#### Metadata

| Field        | Value    |
|--------------|----------|
| Entrypoint   | 0x0164   |
| Data Size    | 59 bytes |
| Instructions | 11       |

```
      00 01 02 03 04 05 06 07  08 09 0A 0B 0C 0D 0E 0F
      -- -- -- -- -- -- -- --  -- -- -- -- -- -- -- --
0160:             20 01 42 62  08 80 F8 FF FF 7F F8 FF       .Bb........
0170: FF 7F 6D 61 69 6E 02 80  1C 09 80 47 00 16 80 17  ..main.....G....
0180: 80 18 80 19 80 47 01 62  0E 80 F8 FF FF 7F F8 FF  .....G.b........
0190: FF 7F 6D 61 69 6E 02 80  1C 09 80 20 00 21 00     ..main..... .!. 
```

#### Opcodes

```
  0: 0x0164 [0x20] SET_CLI_EVENT_UC_FLAG: Lock player control
  1: 0x0166 [0x42] SET_CLI_EVENT_CANCEL_DATA()
  2: 0x0167 [0x62] LOAD_EVENT_SCHEDULER: Load scheduler "main" with entities [EventEntity, EventEntity], work=[1*, 0*]
  3: 0x0178 [0x1C] WAIT(180* ticks)
  4: 0x017B [0x47] UPDATE_PLAYER_POS(-415.930*, 59.207*, -67.250*, yaw=180.3°*)
  5: 0x0185 [0x47] WAIT_PLAYER_POS_UPDATE
  6: 0x0187 [0x62] LOAD_EVENT_SCHEDULER: Load scheduler "main" with entities [EventEntity, EventEntity], work=[2*, 0*]
  7: 0x0198 [0x1C] WAIT(180* ticks)
  8: 0x019B [0x20] SET_CLI_EVENT_UC_FLAG: Unlock player control
  9: 0x019D [0x21] END_EVENT
 10: 0x019E [0x00] END_REQSTACK()
```

### Event 5

#### Metadata

| Field        | Value    |
|--------------|----------|
| Entrypoint   | 0x019F   |
| Data Size    | 87 bytes |
| Instructions | 16       |

```
      00 01 02 03 04 05 06 07  08 09 0A 0B 0C 0D 0E 0F
      -- -- -- -- -- -- -- --  -- -- -- -- -- -- -- --
0190:                                               20                  
01A0: 01 42 62 08 80 F8 FF FF  7F F8 FF FF 7F 6D 61 69  .Bb..........mai
01B0: 6E 02 80 1C 09 80 13 00  00 08 80 02 00 00 02 80  n...............
01C0: 00 D2 01 47 00 1A 80 1B  80 1C 80 1D 80 47 01 01  ...G.........G..
01D0: DE 01 47 00 1E 80 1F 80  1C 80 20 80 47 01 62 0E  ..G....... .G.b.
01E0: 80 F8 FF FF 7F F8 FF FF  7F 6D 61 69 6E 02 80 1C  .........main...
01F0: 09 80 20 00 21 00                                 .. .!.          
```

#### Opcodes

```
  0: 0x019F [0x20] SET_CLI_EVENT_UC_FLAG: Lock player control
  1: 0x01A1 [0x42] SET_CLI_EVENT_CANCEL_DATA()
  2: 0x01A2 [0x62] LOAD_EVENT_SCHEDULER: Load scheduler "main" with entities [EventEntity, EventEntity], work=[1*, 0*]
  3: 0x01B3 [0x1C] WAIT(180* ticks)
  4: 0x01B6 [0x13] ExtData[1]->WorkLocal[0] = rand() % 1*
  5: 0x01BB [0x02] IF !(ExtData[1]->WorkLocal[0] == 0*) GOTO 0x01D2
  6: 0x01C3 [0x47] UPDATE_PLAYER_POS(-515.651*, 76.490*, -72.000*, yaw=179.0°*)
  7: 0x01CD [0x47] WAIT_PLAYER_POS_UPDATE
  8: 0x01CF [0x01] GOTO 0x01DE
  9: 0x01D2 [0x47] UPDATE_PLAYER_POS(-514.713*, 44.206*, -72.000*, yaw=169.1°*)
 10: 0x01DC [0x47] WAIT_PLAYER_POS_UPDATE

SUBROUTINE_01DE:
 11: 0x01DE [0x62] LOAD_EVENT_SCHEDULER: Load scheduler "main" with entities [EventEntity, EventEntity], work=[2*, 0*]
 12: 0x01EF [0x1C] WAIT(180* ticks)
 13: 0x01F2 [0x20] SET_CLI_EVENT_UC_FLAG: Unlock player control
 14: 0x01F4 [0x21] END_EVENT
 15: 0x01F5 [0x00] END_REQSTACK()
```

### Event 6

#### Metadata

| Field        | Value     |
|--------------|-----------|
| Entrypoint   | 0x01F6    |
| Data Size    | 167 bytes |
| Instructions | 30        |

```
      00 01 02 03 04 05 06 07  08 09 0A 0B 0C 0D 0E 0F
      -- -- -- -- -- -- -- --  -- -- -- -- -- -- -- --
01F0:                   20 01  42 62 08 80 F8 FF FF 7F         .Bb......
0200: F8 FF FF 7F 6D 61 69 6E  02 80 1C 09 80 13 02 00  ....main........
0210: 21 80 02 02 00 02 80 80  29 02 47 00 22 80 23 80  !.......).G.".#.
0220: 02 80 24 80 47 01 01 85  02 02 02 00 08 80 80 40  ..$.G..........@
0230: 02 47 00 25 80 26 80 27  80 28 80 47 01 01 85 02  .G.%.&.'.(.G....
0240: 02 02 00 0E 80 80 57 02  47 00 29 80 2A 80 2B 80  ......W.G.).*.+.
0250: 2C 80 47 01 01 85 02 02  02 00 2D 80 80 6E 02 47  ,.G.......-..n.G
0260: 00 2E 80 2F 80 30 80 31  80 47 01 01 85 02 02 02  .../.0.1.G......
0270: 00 21 80 80 85 02 47 00  32 80 33 80 34 80 35 80  .!....G.2.3.4.5.
0280: 47 01 01 85 02 62 0E 80  F8 FF FF 7F F8 FF FF 7F  G....b..........
0290: 6D 61 69 6E 02 80 1C 09  80 20 00 21 00           main..... .!.   
```

#### Opcodes

```
  0: 0x01F6 [0x20] SET_CLI_EVENT_UC_FLAG: Lock player control
  1: 0x01F8 [0x42] SET_CLI_EVENT_CANCEL_DATA()
  2: 0x01F9 [0x62] LOAD_EVENT_SCHEDULER: Load scheduler "main" with entities [EventEntity, EventEntity], work=[1*, 0*]
  3: 0x020A [0x1C] WAIT(180* ticks)
  4: 0x020D [0x13] ExtData[1]->WorkLocal[2] = rand() % 4*
  5: 0x0212 [0x02] IF !(ExtData[1]->WorkLocal[2] == 0*) GOTO 0x0229
  6: 0x021A [0x47] UPDATE_PLAYER_POS(-23.090*, -19.692*, 0.000*, yaw=177.8°*)
  7: 0x0224 [0x47] WAIT_PLAYER_POS_UPDATE
  8: 0x0226 [0x01] GOTO 0x0285
  9: 0x0229 [0x02] IF !(ExtData[1]->WorkLocal[2] == 1*) GOTO 0x0240
 10: 0x0231 [0x47] UPDATE_PLAYER_POS(-97.241*, -19.682*, -16.000*, yaw=358.1°*)
 11: 0x023B [0x47] WAIT_PLAYER_POS_UPDATE
 12: 0x023D [0x01] GOTO 0x0285
 13: 0x0240 [0x02] IF !(ExtData[1]->WorkLocal[2] == 2*) GOTO 0x0257
 14: 0x0248 [0x47] UPDATE_PLAYER_POS(-439.623*, 119.995*, -68.000*, yaw=179.6°*)
 15: 0x0252 [0x47] WAIT_PLAYER_POS_UPDATE
 16: 0x0254 [0x01] GOTO 0x0285
 17: 0x0257 [0x02] IF !(ExtData[1]->WorkLocal[2] == 3*) GOTO 0x026E
 18: 0x025F [0x47] UPDATE_PLAYER_POS(-100.864*, 106.332*, -15.398*, yaw=89.0°*)
 19: 0x0269 [0x47] WAIT_PLAYER_POS_UPDATE
 20: 0x026B [0x01] GOTO 0x0285
 21: 0x026E [0x02] IF !(ExtData[1]->WorkLocal[2] == 4*) GOTO 0x0285
 22: 0x0276 [0x47] UPDATE_PLAYER_POS(-26.325*, 110.100*, 0.601*, yaw=174.5°*)
 23: 0x0280 [0x47] WAIT_PLAYER_POS_UPDATE
 24: 0x0282 [0x01] GOTO 0x0285

SUBROUTINE_0285:
 25: 0x0285 [0x62] LOAD_EVENT_SCHEDULER: Load scheduler "main" with entities [EventEntity, EventEntity], work=[2*, 0*]
 26: 0x0296 [0x1C] WAIT(180* ticks)
 27: 0x0299 [0x20] SET_CLI_EVENT_UC_FLAG: Unlock player control
 28: 0x029B [0x21] END_EVENT
 29: 0x029C [0x00] END_REQSTACK()
```

### Event 7

#### Metadata

| Field        | Value     |
|--------------|-----------|
| Entrypoint   | 0x029D    |
| Data Size    | 167 bytes |
| Instructions | 30        |

```
      00 01 02 03 04 05 06 07  08 09 0A 0B 0C 0D 0E 0F
      -- -- -- -- -- -- -- --  -- -- -- -- -- -- -- --
0290:                                         20 01 42                .B
02A0: 62 08 80 F8 FF FF 7F F8  FF FF 7F 6D 61 69 6E 02  b..........main.
02B0: 80 1C 09 80 13 01 00 21  80 02 01 00 02 80 80 D0  .......!........
02C0: 02 47 00 22 80 23 80 02  80 24 80 47 01 01 2C 03  .G.".#...$.G..,.
02D0: 02 01 00 08 80 80 E7 02  47 00 25 80 26 80 27 80  ........G.%.&.'.
02E0: 28 80 47 01 01 2C 03 02  01 00 0E 80 80 FE 02 47  (.G..,.........G
02F0: 00 36 80 37 80 38 80 39  80 47 01 01 2C 03 02 01  .6.7.8.9.G..,...
0300: 00 2D 80 80 15 03 47 00  3A 80 3B 80 30 80 3C 80  .-....G.:.;.0.<.
0310: 47 01 01 2C 03 02 01 00  21 80 80 2C 03 47 00 3D  G..,....!..,.G.=
0320: 80 3E 80 34 80 3F 80 47  01 01 2C 03 62 0E 80 F8  .>.4.?.G..,.b...
0330: FF FF 7F F8 FF FF 7F 6D  61 69 6E 02 80 1C 09 80  .......main.....
0340: 20 00 21 00                                        .!.            
```

#### Opcodes

```
  0: 0x029D [0x20] SET_CLI_EVENT_UC_FLAG: Lock player control
  1: 0x029F [0x42] SET_CLI_EVENT_CANCEL_DATA()
  2: 0x02A0 [0x62] LOAD_EVENT_SCHEDULER: Load scheduler "main" with entities [EventEntity, EventEntity], work=[1*, 0*]
  3: 0x02B1 [0x1C] WAIT(180* ticks)
  4: 0x02B4 [0x13] ExtData[1]->WorkLocal[1] = rand() % 4*
  5: 0x02B9 [0x02] IF !(ExtData[1]->WorkLocal[1] == 0*) GOTO 0x02D0
  6: 0x02C1 [0x47] UPDATE_PLAYER_POS(-23.090*, -19.692*, 0.000*, yaw=177.8°*)
  7: 0x02CB [0x47] WAIT_PLAYER_POS_UPDATE
  8: 0x02CD [0x01] GOTO 0x032C
  9: 0x02D0 [0x02] IF !(ExtData[1]->WorkLocal[1] == 1*) GOTO 0x02E7
 10: 0x02D8 [0x47] UPDATE_PLAYER_POS(-97.241*, -19.682*, -16.000*, yaw=358.1°*)
 11: 0x02E2 [0x47] WAIT_PLAYER_POS_UPDATE
 12: 0x02E4 [0x01] GOTO 0x032C
 13: 0x02E7 [0x02] IF !(ExtData[1]->WorkLocal[1] == 2*) GOTO 0x02FE
 14: 0x02EF [0x47] UPDATE_PLAYER_POS(-439.953*, 0.060*, -67.999*, yaw=186.2°*)
 15: 0x02F9 [0x47] WAIT_PLAYER_POS_UPDATE
 16: 0x02FB [0x01] GOTO 0x032C
 17: 0x02FE [0x02] IF !(ExtData[1]->WorkLocal[1] == 3*) GOTO 0x0315
 18: 0x0306 [0x47] UPDATE_PLAYER_POS(-100.317*, -152.365*, -15.398*, yaw=253.8°*)
 19: 0x0310 [0x47] WAIT_PLAYER_POS_UPDATE
 20: 0x0312 [0x01] GOTO 0x032C
 21: 0x0315 [0x02] IF !(ExtData[1]->WorkLocal[1] == 4*) GOTO 0x032C
 22: 0x031D [0x47] UPDATE_PLAYER_POS(-30.941*, -147.949*, 0.601*, yaw=83.9°*)
 23: 0x0327 [0x47] WAIT_PLAYER_POS_UPDATE
 24: 0x0329 [0x01] GOTO 0x032C

SUBROUTINE_032C:
 25: 0x032C [0x62] LOAD_EVENT_SCHEDULER: Load scheduler "main" with entities [EventEntity, EventEntity], work=[2*, 0*]
 26: 0x033D [0x1C] WAIT(180* ticks)
 27: 0x0340 [0x20] SET_CLI_EVENT_UC_FLAG: Unlock player control
 28: 0x0342 [0x21] END_EVENT
 29: 0x0343 [0x00] END_REQSTACK()
```

### Event 8

#### Metadata

| Field        | Value   |
|--------------|---------|
| Entrypoint   | 0x0344  |
| Data Size    | 1 bytes |
| Instructions | 1       |

```
      00 01 02 03 04 05 06 07  08 09 0A 0B 0C 0D 0E 0F
      -- -- -- -- -- -- -- --  -- -- -- -- -- -- -- --
0340:             00                                        .           
```

#### Opcodes

```
  0: 0x0344 [0x00] END_REQSTACK()
```

### Event 65535.1

#### Metadata

| Field        | Value    |
|--------------|----------|
| Entrypoint   | 0x0345   |
| Data Size    | 10 bytes |
| Instructions | 2        |

```
      00 01 02 03 04 05 06 07  08 09 0A 0B 0C 0D 0E 0F
      -- -- -- -- -- -- -- --  -- -- -- -- -- -- -- --
0340:                37 40 80  41 80 42 80 43 80 00          7@.A.B.C.. 
```

#### Opcodes

```
  0: 0x0345 [0x37] UPDATE_EVENT_POSITION_AND_DIR: x=-24.568*, z=69.545*, y=-0.633*, direction=177.7°*
  1: 0x034E [0x00] END_REQSTACK()
```

### Event 65535.2

#### Metadata

| Field        | Value    |
|--------------|----------|
| Entrypoint   | 0x034F   |
| Data Size    | 14 bytes |
| Instructions | 4        |

```
      00 01 02 03 04 05 06 07  08 09 0A 0B 0C 0D 0E 0F
      -- -- -- -- -- -- -- --  -- -- -- -- -- -- -- --
0340:                                               32                 2
0350: 44 80 1F 00 45 80 46 80  47 80 1F 01 00           D...E.F.G....   
```

#### Opcodes

```
  0: 0x034F [0x32] ExtData[1]->MainSpeed = 13* * 0.1
  1: 0x0352 [0x1F] MOVE_ENTITY: EventEntity moves to X=-32.222*, Z=69.737*, Y=-0.071*
  2: 0x035A [0x1F] MOVE_ENTITY: Update entity position (mode=1)
  3: 0x035C [0x00] END_REQSTACK()
```

### Event 65535.3

#### Metadata

| Field        | Value    |
|--------------|----------|
| Entrypoint   | 0x035D   |
| Data Size    | 10 bytes |
| Instructions | 2        |

```
      00 01 02 03 04 05 06 07  08 09 0A 0B 0C 0D 0E 0F
      -- -- -- -- -- -- -- --  -- -- -- -- -- -- -- --
0350:                                         37 48 80               7H.
0360: 49 80 4A 80 4B 80 00                              I.J.K..         
```

#### Opcodes

```
  0: 0x035D [0x37] UPDATE_EVENT_POSITION_AND_DIR: x=-17.434*, z=70.027*, y=0.128*, direction=335.8°*
  1: 0x0366 [0x00] END_REQSTACK()
```

### Event 65535.4

#### Metadata

| Field        | Value     |
|--------------|-----------|
| Entrypoint   | 0x0367    |
| Data Size    | 353 bytes |
| Instructions | 41        |

```
      00 01 02 03 04 05 06 07  08 09 0A 0B 0C 0D 0E 0F
      -- -- -- -- -- -- -- --  -- -- -- -- -- -- -- --
0360:                      02  07 7F 08 80 80 93 03 66         ........f
0370: 4C 80 F8 FF FF 7F F8 FF  FF 7F 74 6C 6B 30 1C 4D  L.........tlk0.M
0380: 80 66 4C 80 F8 FF FF 7F  F8 FF FF 7F 74 6C 6B 31  .fL.........tlk1
0390: 01 C7 04 02 07 7F 0E 80  80 BF 03 66 4E 80 F8 FF  ...........fN...
03A0: FF 7F F8 FF FF 7F 74 6C  6B 30 1C 4D 80 66 4E 80  ......tlk0.M.fN.
03B0: F8 FF FF 7F F8 FF FF 7F  74 6C 6B 31 01 C7 04 02  ........tlk1....
03C0: 07 7F 2D 80 80 EB 03 66  4F 80 F8 FF FF 7F F8 FF  ..-....fO.......
03D0: FF 7F 74 6C 6B 30 1C 4D  80 66 4F 80 F8 FF FF 7F  ..tlk0.M.fO.....
03E0: F8 FF FF 7F 74 6C 6B 31  01 C7 04 02 07 7F 21 80  ....tlk1......!.
03F0: 80 17 04 66 50 80 F8 FF  FF 7F F8 FF FF 7F 74 6C  ...fP.........tl
0400: 6B 30 1C 4D 80 66 50 80  F8 FF FF 7F F8 FF FF 7F  k0.M.fP.........
0410: 74 6C 6B 31 01 C7 04 02  07 7F 51 80 80 43 04 66  tlk1......Q..C.f
0420: 52 80 F8 FF FF 7F F8 FF  FF 7F 74 6C 6B 30 1C 4D  R.........tlk0.M
0430: 80 66 52 80 F8 FF FF 7F  F8 FF FF 7F 74 6C 6B 31  .fR.........tlk1
0440: 01 C7 04 02 07 7F 53 80  80 6F 04 66 52 80 F8 FF  ......S..o.fR...
0450: FF 7F F8 FF FF 7F 74 6C  6B 30 1C 4D 80 66 52 80  ......tlk0.M.fR.
0460: F8 FF FF 7F F8 FF FF 7F  74 6C 6B 31 01 C7 04 02  ........tlk1....
0470: 07 7F 54 80 80 9B 04 66  55 80 F8 FF FF 7F F8 FF  ..T....fU.......
0480: FF 7F 74 6C 6B 30 1C 4D  80 66 55 80 F8 FF FF 7F  ..tlk0.M.fU.....
0490: F8 FF FF 7F 74 6C 6B 31  01 C7 04 02 07 7F 56 80  ....tlk1......V.
04A0: 80 C7 04 66 57 80 F8 FF  FF 7F F8 FF FF 7F 74 6C  ...fW.........tl
04B0: 6B 30 1C 4D 80 66 57 80  F8 FF FF 7F F8 FF FF 7F  k0.M.fW.........
04C0: 74 6C 6B 31 01 C7 04 00                           tlk1....        
```

#### Opcodes

```
  0: 0x0367 [0x02] IF !(Entity->Race == 1*) GOTO 0x0393
  1: 0x036F [0x66] LOAD_EXT_SCHEDULER_MAIN: Load scheduler "tlk0" with entities [EventEntity, EventEntity], work=149*
  2: 0x037E [0x1C] WAIT(120* ticks)
  3: 0x0381 [0x66] LOAD_EXT_SCHEDULER_MAIN: Load scheduler "tlk1" with entities [EventEntity, EventEntity], work=149*
  4: 0x0390 [0x01] GOTO 0x04C7
  5: 0x0393 [0x02] IF !(Entity->Race == 2*) GOTO 0x03BF
  6: 0x039B [0x66] LOAD_EXT_SCHEDULER_MAIN: Load scheduler "tlk0" with entities [EventEntity, EventEntity], work=159*
  7: 0x03AA [0x1C] WAIT(120* ticks)
  8: 0x03AD [0x66] LOAD_EXT_SCHEDULER_MAIN: Load scheduler "tlk1" with entities [EventEntity, EventEntity], work=159*
  9: 0x03BC [0x01] GOTO 0x04C7
 10: 0x03BF [0x02] IF !(Entity->Race == 3*) GOTO 0x03EB
 11: 0x03C7 [0x66] LOAD_EXT_SCHEDULER_MAIN: Load scheduler "tlk0" with entities [EventEntity, EventEntity], work=169*
 12: 0x03D6 [0x1C] WAIT(120* ticks)
 13: 0x03D9 [0x66] LOAD_EXT_SCHEDULER_MAIN: Load scheduler "tlk1" with entities [EventEntity, EventEntity], work=169*
 14: 0x03E8 [0x01] GOTO 0x04C7
 15: 0x03EB [0x02] IF !(Entity->Race == 4*) GOTO 0x0417
 16: 0x03F3 [0x66] LOAD_EXT_SCHEDULER_MAIN: Load scheduler "tlk0" with entities [EventEntity, EventEntity], work=179*
 17: 0x0402 [0x1C] WAIT(120* ticks)
 18: 0x0405 [0x66] LOAD_EXT_SCHEDULER_MAIN: Load scheduler "tlk1" with entities [EventEntity, EventEntity], work=179*
 19: 0x0414 [0x01] GOTO 0x04C7
 20: 0x0417 [0x02] IF !(Entity->Race == 5*) GOTO 0x0443
 21: 0x041F [0x66] LOAD_EXT_SCHEDULER_MAIN: Load scheduler "tlk0" with entities [EventEntity, EventEntity], work=189*
 22: 0x042E [0x1C] WAIT(120* ticks)
 23: 0x0431 [0x66] LOAD_EXT_SCHEDULER_MAIN: Load scheduler "tlk1" with entities [EventEntity, EventEntity], work=189*
 24: 0x0440 [0x01] GOTO 0x04C7
 25: 0x0443 [0x02] IF !(Entity->Race == 6*) GOTO 0x046F
 26: 0x044B [0x66] LOAD_EXT_SCHEDULER_MAIN: Load scheduler "tlk0" with entities [EventEntity, EventEntity], work=189*
 27: 0x045A [0x1C] WAIT(120* ticks)
 28: 0x045D [0x66] LOAD_EXT_SCHEDULER_MAIN: Load scheduler "tlk1" with entities [EventEntity, EventEntity], work=189*
 29: 0x046C [0x01] GOTO 0x04C7
 30: 0x046F [0x02] IF !(Entity->Race == 7*) GOTO 0x049B
 31: 0x0477 [0x66] LOAD_EXT_SCHEDULER_MAIN: Load scheduler "tlk0" with entities [EventEntity, EventEntity], work=199*
 32: 0x0486 [0x1C] WAIT(120* ticks)
 33: 0x0489 [0x66] LOAD_EXT_SCHEDULER_MAIN: Load scheduler "tlk1" with entities [EventEntity, EventEntity], work=199*
 34: 0x0498 [0x01] GOTO 0x04C7
 35: 0x049B [0x02] IF !(Entity->Race == 8*) GOTO 0x04C7
 36: 0x04A3 [0x66] LOAD_EXT_SCHEDULER_MAIN: Load scheduler "tlk0" with entities [EventEntity, EventEntity], work=69*
 37: 0x04B2 [0x1C] WAIT(120* ticks)
 38: 0x04B5 [0x66] LOAD_EXT_SCHEDULER_MAIN: Load scheduler "tlk1" with entities [EventEntity, EventEntity], work=69*
 39: 0x04C4 [0x01] GOTO 0x04C7

SUBROUTINE_04C7:
 40: 0x04C7 [0x00] END_REQSTACK()
```

### Event 65535.5

#### Metadata

| Field        | Value   |
|--------------|---------|
| Entrypoint   | 0x04C8  |
| Data Size    | 7 bytes |
| Instructions | 3       |

```
      00 01 02 03 04 05 06 07  08 09 0A 0B 0C 0D 0E 0F
      -- -- -- -- -- -- -- --  -- -- -- -- -- -- -- --
04C0:                          AB 03 AC 01 08 80 00             ....... 
```

#### Opcodes

```
  0: 0x04C8 [0xAB] EventEntity->Render.Flags0 ^= 0x20000 // Toggle bit 17
  1: 0x04CA [0xAC] EventEntity->StatusEvent = 1*
  2: 0x04CE [0x00] END_REQSTACK()
```

### Event 65535.6

#### Metadata

| Field        | Value   |
|--------------|---------|
| Entrypoint   | 0x04CF  |
| Data Size    | 7 bytes |
| Instructions | 3       |

```
      00 01 02 03 04 05 06 07  08 09 0A 0B 0C 0D 0E 0F
      -- -- -- -- -- -- -- --  -- -- -- -- -- -- -- --
04C0:                                               AC                 .
04D0: 01 02 80 AB 04 00                                 ......          
```

#### Opcodes

```
  0: 0x04CF [0xAC] EventEntity->StatusEvent = 0*
  1: 0x04D3 [0xAB] EventEntity->Render.Flags0 |= 0x40000 // Set bit 18
  2: 0x04D5 [0x00] END_REQSTACK()
```

### Event 65535.7

#### Metadata

| Field        | Value    |
|--------------|----------|
| Entrypoint   | 0x04D6   |
| Data Size    | 19 bytes |
| Instructions | 7        |

```
      00 01 02 03 04 05 06 07  08 09 0A 0B 0C 0D 0E 0F
      -- -- -- -- -- -- -- --  -- -- -- -- -- -- -- --
04D0:                   33 01  32 58 80 1F 00 59 80 02        3.2X...Y..
04E0: 80 02 80 1F 01 6F 33 00  00                       .....o3..       
```

#### Opcodes

```
  0: 0x04D6 [0x33] EventEntity->Render.Flags0 |= 0x200000 // Bit 21 (flag=0x01)
  1: 0x04D8 [0x32] ExtData[1]->MainSpeed = 40* * 0.1
  2: 0x04DB [0x1F] MOVE_ENTITY: EventEntity moves to X=17.000*, Z=0.000*, Y=0.000*
  3: 0x04E3 [0x1F] MOVE_ENTITY: Update entity position (mode=1)
  4: 0x04E5 [0x6F] WAIT_FRAME_DELAY: Yield until WaitTime reaches zero
  5: 0x04E6 [0x33] EventEntity->Render.Flags0 &= ~ 0x200000 // Bit 21 (flag=0x00)
  6: 0x04E8 [0x00] END_REQSTACK()
```

### Event 65535.8

#### Metadata

| Field        | Value    |
|--------------|----------|
| Entrypoint   | 0x04E9   |
| Data Size    | 23 bytes |
| Instructions | 7        |

```
      00 01 02 03 04 05 06 07  08 09 0A 0B 0C 0D 0E 0F
      -- -- -- -- -- -- -- --  -- -- -- -- -- -- -- --
04E0:                             32 44 80 1F 00 5A 80           2D...Z.
04F0: 5B 80 02 80 1F 01 6F 1C  5C 80 1E 5D 21 0A 01 00  [.....o.\..]!...
```

#### Opcodes

```
  0: 0x04E9 [0x32] ExtData[1]->MainSpeed = 13* * 0.1
  1: 0x04EC [0x1F] MOVE_ENTITY: EventEntity moves to X=6.500*, Z=2.500*, Y=0.000*
  2: 0x04F4 [0x1F] MOVE_ENTITY: Update entity position (mode=1)
  3: 0x04F6 [0x6F] WAIT_FRAME_DELAY: Yield until WaitTime reaches zero
  4: 0x04F7 [0x1C] WAIT(30* ticks)
  5: 0x04FA [0x1E] EventEntity looks at Shadow Lord (ID: 17441117/0x010A215D) and starts talking
  6: 0x04FF [0x00] END_REQSTACK()
```

### Event 65535.9

#### Metadata

| Field        | Value    |
|--------------|----------|
| Entrypoint   | 0x0500   |
| Data Size    | 25 bytes |
| Instructions | 7        |

```
      00 01 02 03 04 05 06 07  08 09 0A 0B 0C 0D 0E 0F
      -- -- -- -- -- -- -- --  -- -- -- -- -- -- -- --
0500: 32 58 80 1F 00 5D 80 5E  80 02 80 1F 01 1F 00 5F  2X...].^......._
0510: 80 60 80 02 80 1F 01 6F  00                       .`.....o.       
```

#### Opcodes

```
  0: 0x0500 [0x32] ExtData[1]->MainSpeed = 40* * 0.1
  1: 0x0503 [0x1F] MOVE_ENTITY: EventEntity moves to X=18.568*, Z=1.193*, Y=0.000*
  2: 0x050B [0x1F] MOVE_ENTITY: Update entity position (mode=1)
  3: 0x050D [0x1F] MOVE_ENTITY: EventEntity moves to X=41.445*, Z=0.516*, Y=0.000*
  4: 0x0515 [0x1F] MOVE_ENTITY: Update entity position (mode=1)
  5: 0x0517 [0x6F] WAIT_FRAME_DELAY: Yield until WaitTime reaches zero
  6: 0x0518 [0x00] END_REQSTACK()
```

### Event 65535.10

#### Metadata

| Field        | Value    |
|--------------|----------|
| Entrypoint   | 0x0519   |
| Data Size    | 15 bytes |
| Instructions | 5        |

```
      00 01 02 03 04 05 06 07  08 09 0A 0B 0C 0D 0E 0F
      -- -- -- -- -- -- -- --  -- -- -- -- -- -- -- --
0510:                             32 58 80 1F 00 61 80           2X...a.
0520: 62 80 63 80 1F 01 6F 00                           b.c...o.        
```

#### Opcodes

```
  0: 0x0519 [0x32] ExtData[1]->MainSpeed = 40* * 0.1
  1: 0x051C [0x1F] MOVE_ENTITY: EventEntity moves to X=-403.500*, Z=20.000*, Y=-43.000*
  2: 0x0524 [0x1F] MOVE_ENTITY: Update entity position (mode=1)
  3: 0x0526 [0x6F] WAIT_FRAME_DELAY: Yield until WaitTime reaches zero
  4: 0x0527 [0x00] END_REQSTACK()
```

### Event 65535.11

#### Metadata

| Field        | Value    |
|--------------|----------|
| Entrypoint   | 0x0528   |
| Data Size    | 14 bytes |
| Instructions | 4        |

```
      00 01 02 03 04 05 06 07  08 09 0A 0B 0C 0D 0E 0F
      -- -- -- -- -- -- -- --  -- -- -- -- -- -- -- --
0520:                          32 58 80 5A 00 64 80 65          2X.Z.d.e
0530: 80 66 80 5A 01 00                                 .f.Z..          
```

#### Opcodes

```
  0: 0x0528 [0x32] ExtData[1]->MainSpeed = 40* * 0.1
  1: 0x052B [0x5A] UPDATE_EVENT_POSITION: Set EventEntity MovePosition to X=-2.917*, Z=-9.222*, Y=-7.200*
  2: 0x0533 [0x5A] UPDATE_EVENT_POSITION: Move EventEntity incrementally towards MovePosition
  3: 0x0535 [0x00] END_REQSTACK()
```

### Event 65535.12

#### Metadata

| Field        | Value   |
|--------------|---------|
| Entrypoint   | 0x0536  |
| Data Size    | 9 bytes |
| Instructions | 3       |

```
      00 01 02 03 04 05 06 07  08 09 0A 0B 0C 0D 0E 0F
      -- -- -- -- -- -- -- --  -- -- -- -- -- -- -- --
0530:                   B6 08  05 10 B6 09 06 10 00           ......... 
```

#### Opcodes

```
  0: 0x0536 [0xB6] ENTITY_APPEARANCE_HANDLER(case=Main, value=Work_Zone[5])
  1: 0x053A [0xB6] ENTITY_APPEARANCE_HANDLER(case=Sub, value=Work_Zone[6])
  2: 0x053E [0x00] END_REQSTACK()
```

### Event 65535.13

#### Metadata

| Field        | Value   |
|--------------|---------|
| Entrypoint   | 0x053F  |
| Data Size    | 5 bytes |
| Instructions | 2       |

```
      00 01 02 03 04 05 06 07  08 09 0A 0B 0C 0D 0E 0F
      -- -- -- -- -- -- -- --  -- -- -- -- -- -- -- --
0530:                                               B6                 .
0540: 0A 05 10 00                                       ....            
```

#### Opcodes

```
  0: 0x053F [0xB6] ENTITY_APPEARANCE_HANDLER(case=Ranged, value=Work_Zone[5])
  1: 0x0543 [0x00] END_REQSTACK()
```

### Event 65535.14

#### Metadata

| Field        | Value    |
|--------------|----------|
| Entrypoint   | 0x0544   |
| Data Size    | 58 bytes |
| Instructions | 10       |

```
      00 01 02 03 04 05 06 07  08 09 0A 0B 0C 0D 0E 0F
      -- -- -- -- -- -- -- --  -- -- -- -- -- -- -- --
0540:             79 00 F8 FF  FF 7F 59 21 0A 01 1C 03      y.....Y!....
0550: 80 79 00 F8 FF FF 7F 58  21 0A 01 1C 03 80 79 00  .y.....X!.....y.
0560: F8 FF FF 7F 59 21 0A 01  1C 03 80 79 00 F8 FF FF  ....Y!.....y....
0570: 7F 58 21 0A 01 1C 03 80  7B F8 FF FF 7F 00        .X!.....{.....  
```

#### Opcodes

```
  0: 0x0544 [0x79] EventEntity looks at Dazbog (ID: 17441113/0x010A2159) (Basic look)
  1: 0x054E [0x1C] WAIT(90* ticks)
  2: 0x0551 [0x79] EventEntity looks at Magh Bihu (ID: 17441112/0x010A2158) (Basic look)
  3: 0x055B [0x1C] WAIT(90* ticks)
  4: 0x055E [0x79] EventEntity looks at Dazbog (ID: 17441113/0x010A2159) (Basic look)
  5: 0x0568 [0x1C] WAIT(90* ticks)
  6: 0x056B [0x79] EventEntity looks at Magh Bihu (ID: 17441112/0x010A2158) (Basic look)
  7: 0x0575 [0x1C] WAIT(90* ticks)
  8: 0x0578 [0x7B] EventEntity stops talking
  9: 0x057D [0x00] END_REQSTACK()
```

### Event 65535.15

#### Metadata

| Field        | Value    |
|--------------|----------|
| Entrypoint   | 0x057E   |
| Data Size    | 15 bytes |
| Instructions | 5        |

```
      00 01 02 03 04 05 06 07  08 09 0A 0B 0C 0D 0E 0F
      -- -- -- -- -- -- -- --  -- -- -- -- -- -- -- --
0570:                                            32 44                2D
0580: 80 1F 00 67 80 68 80 66  80 1F 01 6F 00           ...g.h.f...o.   
```

#### Opcodes

```
  0: 0x057E [0x32] ExtData[1]->MainSpeed = 13* * 0.1
  1: 0x0581 [0x1F] MOVE_ENTITY: EventEntity moves to X=15.643*, Z=-0.862*, Y=-7.200*
  2: 0x0589 [0x1F] MOVE_ENTITY: Update entity position (mode=1)
  3: 0x058B [0x6F] WAIT_FRAME_DELAY: Yield until WaitTime reaches zero
  4: 0x058C [0x00] END_REQSTACK()
```

### Event 65535.16

#### Metadata

| Field        | Value    |
|--------------|----------|
| Entrypoint   | 0x058D   |
| Data Size    | 15 bytes |
| Instructions | 5        |

```
      00 01 02 03 04 05 06 07  08 09 0A 0B 0C 0D 0E 0F
      -- -- -- -- -- -- -- --  -- -- -- -- -- -- -- --
0580:                                         32 58 80               2X.
0590: 1F 00 69 80 6A 80 2B 80  1F 01 6F 00              ..i.j.+...o.    
```

#### Opcodes

```
  0: 0x058D [0x32] ExtData[1]->MainSpeed = 40* * 0.1
  1: 0x0590 [0x1F] MOVE_ENTITY: EventEntity moves to X=-543.000*, Z=60.000*, Y=-68.000*
  2: 0x0598 [0x1F] MOVE_ENTITY: Update entity position (mode=1)
  3: 0x059A [0x6F] WAIT_FRAME_DELAY: Yield until WaitTime reaches zero
  4: 0x059B [0x00] END_REQSTACK()
```

### Event 65535.17

#### Metadata

| Field        | Value    |
|--------------|----------|
| Entrypoint   | 0x059C   |
| Data Size    | 15 bytes |
| Instructions | 5        |

```
      00 01 02 03 04 05 06 07  08 09 0A 0B 0C 0D 0E 0F
      -- -- -- -- -- -- -- --  -- -- -- -- -- -- -- --
0590:                                      32 58 80 1F              2X..
05A0: 00 6B 80 6A 80 6C 80 1F  01 6F 00                 .k.j.l...o.     
```

#### Opcodes

```
  0: 0x059C [0x32] ExtData[1]->MainSpeed = 40* * 0.1
  1: 0x059F [0x1F] MOVE_ENTITY: EventEntity moves to X=-550.000*, Z=60.000*, Y=-70.000*
  2: 0x05A7 [0x1F] MOVE_ENTITY: Update entity position (mode=1)
  3: 0x05A9 [0x6F] WAIT_FRAME_DELAY: Yield until WaitTime reaches zero
  4: 0x05AA [0x00] END_REQSTACK()
```

### Event 65535.18

#### Metadata

| Field        | Value    |
|--------------|----------|
| Entrypoint   | 0x05AB   |
| Data Size    | 15 bytes |
| Instructions | 5        |

```
      00 01 02 03 04 05 06 07  08 09 0A 0B 0C 0D 0E 0F
      -- -- -- -- -- -- -- --  -- -- -- -- -- -- -- --
05A0:                                   32 58 80 1F 00             2X...
05B0: 6D 80 6E 80 6F 80 1F 01  6F 00                    m.n.o...o.      
```

#### Opcodes

```
  0: 0x05AB [0x32] ExtData[1]->MainSpeed = 40* * 0.1
  1: 0x05AE [0x1F] MOVE_ENTITY: EventEntity moves to X=11.802*, Z=-3.962*, Y=-7.000*
  2: 0x05B6 [0x1F] MOVE_ENTITY: Update entity position (mode=1)
  3: 0x05B8 [0x6F] WAIT_FRAME_DELAY: Yield until WaitTime reaches zero
  4: 0x05B9 [0x00] END_REQSTACK()
```

### Event 65535.19

#### Metadata

| Field        | Value     |
|--------------|-----------|
| Entrypoint   | 0x05BA    |
| Data Size    | 168 bytes |
| Instructions | 6         |

```
      00 01 02 03 04 05 06 07  08 09 0A 0B 0C 0D 0E 0F
      -- -- -- -- -- -- -- --  -- -- -- -- -- -- -- --
05B0:                                32 58 80 1F 00 70            2X...p
05C0: 80 71 80 6F 80 1F 01 6F  1E 57 21 0A 01 00 03 04  .q.o...o.W!.....
05D0: 00 03 00 02 04 00 51 80  05 E3 05 08 04 00 08 80  ......Q.........
05E0: 01 E8 05 08 04 00 0E 80  14 04 00 72 80 07 04 00  ...........r....
05F0: 73 80 1B 03 04 00 03 00  02 04 00 51 80 05 08 06  s..........Q....
0600: 08 04 00 08 80 01 0D 06  08 04 00 0E 80 14 04 00  ................
0610: 72 80 07 04 00 74 80 1B  03 04 00 03 00 02 04 00  r....t..........
0620: 51 80 05 2D 06 08 04 00  08 80 01 32 06 08 04 00  Q..-.......2....
0630: 0E 80 14 04 00 72 80 07  04 00 75 80 1B 03 04 00  .....r....u.....
0640: 03 00 02 04 00 51 80 05  52 06 08 04 00 08 80 01  .....Q..R.......
0650: 57 06 08 04 00 0E 80 14  04 00 72 80 07 04 00 76  W.........r....v
0660: 80 1B                                             ..              
```

#### Opcodes

```
  0: 0x05BA [0x32] ExtData[1]->MainSpeed = 40* * 0.1
  1: 0x05BD [0x1F] MOVE_ENTITY: EventEntity moves to X=12.565*, Z=-3.040*, Y=-7.000*
  2: 0x05C5 [0x1F] MOVE_ENTITY: Update entity position (mode=1)
  3: 0x05C7 [0x6F] WAIT_FRAME_DELAY: Yield until WaitTime reaches zero
  4: 0x05C8 [0x1E] EventEntity looks at Gloom Phantom (ID: 17441111/0x010A2157) and starts talking
  5: 0x05CD [0x00] END_REQSTACK()
```

#### Data or dead code:

```
# Dead code (unreachable instructions):
     0x05CE [0x03] ExtData[1]->WorkLocal[4] = ExtData[1]->WorkLocal[3]
     0x05D3 [0x02] IF !(ExtData[1]->WorkLocal[4] > 5*) GOTO 0x05E3
     0x05DB [0x08] ExtData[1]->WorkLocal[4] -= 1*
     0x05E0 [0x01] GOTO 0x05E8
     0x05E3 [0x08] ExtData[1]->WorkLocal[4] -= 2*
     0x05E8 [0x14] ExtData[1]->WorkLocal[4] *= 10*
     0x05ED [0x07] ExtData[1]->WorkLocal[4] += 9*
     0x05F2 [0x1B] RETURN
     0x05F3 [0x03] ExtData[1]->WorkLocal[4] = ExtData[1]->WorkLocal[3]
     0x05F8 [0x02] IF !(ExtData[1]->WorkLocal[4] > 5*) GOTO 0x0608
     0x0600 [0x08] ExtData[1]->WorkLocal[4] -= 1*
     0x0605 [0x01] GOTO 0x060D
     0x0608 [0x08] ExtData[1]->WorkLocal[4] -= 2*
     0x060D [0x14] ExtData[1]->WorkLocal[4] *= 10*
     0x0612 [0x07] ExtData[1]->WorkLocal[4] += 70*
     0x0617 [0x1B] RETURN
     0x0618 [0x03] ExtData[1]->WorkLocal[4] = ExtData[1]->WorkLocal[3]
     0x061D [0x02] IF !(ExtData[1]->WorkLocal[4] > 5*) GOTO 0x062D
     0x0625 [0x08] ExtData[1]->WorkLocal[4] -= 1*
     0x062A [0x01] GOTO 0x0632
     0x062D [0x08] ExtData[1]->WorkLocal[4] -= 2*
     0x0632 [0x14] ExtData[1]->WorkLocal[4] *= 10*
     0x0637 [0x07] ExtData[1]->WorkLocal[4] += 140*
     0x063C [0x1B] RETURN
     0x063D [0x03] ExtData[1]->WorkLocal[4] = ExtData[1]->WorkLocal[3]
     0x0642 [0x02] IF !(ExtData[1]->WorkLocal[4] > 5*) GOTO 0x0652
     0x064A [0x08] ExtData[1]->WorkLocal[4] -= 1*
     0x064F [0x01] GOTO 0x0657
     0x0652 [0x08] ExtData[1]->WorkLocal[4] -= 2*
     0x0657 [0x14] ExtData[1]->WorkLocal[4] *= 10*
     0x065C [0x07] ExtData[1]->WorkLocal[4] += 210*
     0x0661 [0x1B] RETURN
```

### Event 65535.20

#### Metadata

| Field        | Value   |
|--------------|---------|
| Entrypoint   | 0x0662  |
| Data Size    | 7 bytes |
| Instructions | 3       |

```
      00 01 02 03 04 05 06 07  08 09 0A 0B 0C 0D 0E 0F
      -- -- -- -- -- -- -- --  -- -- -- -- -- -- -- --
0660:       AB 03 AC 01 08 80  00                         .......       
```

#### Opcodes

```
  0: 0x0662 [0xAB] EventEntity->Render.Flags0 ^= 0x20000 // Toggle bit 17
  1: 0x0664 [0xAC] EventEntity->StatusEvent = 1*
  2: 0x0668 [0x00] END_REQSTACK()
```

### Event 65535.21

#### Metadata

| Field        | Value   |
|--------------|---------|
| Entrypoint   | 0x0669  |
| Data Size    | 7 bytes |
| Instructions | 3       |

```
      00 01 02 03 04 05 06 07  08 09 0A 0B 0C 0D 0E 0F
      -- -- -- -- -- -- -- --  -- -- -- -- -- -- -- --
0660:                             AC 01 02 80 AB 04 00           .......
```

#### Opcodes

```
  0: 0x0669 [0xAC] EventEntity->StatusEvent = 0*
  1: 0x066D [0xAB] EventEntity->Render.Flags0 |= 0x40000 // Set bit 18
  2: 0x066F [0x00] END_REQSTACK()
```

### Event 65535.22

#### Metadata

| Field        | Value    |
|--------------|----------|
| Entrypoint   | 0x0670   |
| Data Size    | 37 bytes |
| Instructions | 5        |

```
      00 01 02 03 04 05 06 07  08 09 0A 0B 0C 0D 0E 0F
      -- -- -- -- -- -- -- --  -- -- -- -- -- -- -- --
0670: 03 03 00 07 7F 1A CE 05  66 04 00 F8 FF FF 7F F8  ........f.......
0680: FF FF 7F 73 68 61 30 53  F8 FF FF 7F F8 FF FF 7F  ...sha0S........
0690: 73 68 61 30 00                                    sha0.           
```

#### Opcodes

```
  0: 0x0670 [0x03] ExtData[1]->WorkLocal[3] = Entity->Race
  1: 0x0675 [0x1A] CALL_SUBROUTINE(address=0x05CE)
  2: 0x0678 [0x66] LOAD_EXT_SCHEDULER_MAIN: Load scheduler "sha0" with entities [EventEntity, EventEntity], work=ExtData[1]->WorkLocal[4]
  3: 0x0687 [0x53] WAIT_SCHEDULER_TASK: Wait for scheduler "sha0" with entities [EventEntity, EventEntity]
  4: 0x0694 [0x00] END_REQSTACK()
```

### Event 65535.23

#### Metadata

| Field        | Value    |
|--------------|----------|
| Entrypoint   | 0x0695   |
| Data Size    | 37 bytes |
| Instructions | 5        |

```
      00 01 02 03 04 05 06 07  08 09 0A 0B 0C 0D 0E 0F
      -- -- -- -- -- -- -- --  -- -- -- -- -- -- -- --
0690:                03 03 00  07 7F 1A CE 05 66 04 00       ........f..
06A0: F8 FF FF 7F F8 FF FF 7F  73 68 61 31 53 F8 FF FF  ........sha1S...
06B0: 7F F8 FF FF 7F 73 68 61  31 00                    .....sha1.      
```

#### Opcodes

```
  0: 0x0695 [0x03] ExtData[1]->WorkLocal[3] = Entity->Race
  1: 0x069A [0x1A] CALL_SUBROUTINE(address=0x05CE)
  2: 0x069D [0x66] LOAD_EXT_SCHEDULER_MAIN: Load scheduler "sha1" with entities [EventEntity, EventEntity], work=ExtData[1]->WorkLocal[4]
  3: 0x06AC [0x53] WAIT_SCHEDULER_TASK: Wait for scheduler "sha1" with entities [EventEntity, EventEntity]
  4: 0x06B9 [0x00] END_REQSTACK()
```

### Event 65535.24

#### Metadata

| Field        | Value    |
|--------------|----------|
| Entrypoint   | 0x06BA   |
| Data Size    | 22 bytes |
| Instructions | 8        |

```
      00 01 02 03 04 05 06 07  08 09 0A 0B 0C 0D 0E 0F
      -- -- -- -- -- -- -- --  -- -- -- -- -- -- -- --
06B0:                                32 58 80 1F 00 77            2X...w
06C0: 80 78 80 79 80 1F 01 6F  1E 5C 21 0A 01 6F 70 00  .x.y...o.\!..op.
```

#### Opcodes

```
  0: 0x06BA [0x32] ExtData[1]->MainSpeed = 40* * 0.1
  1: 0x06BD [0x1F] MOVE_ENTITY: EventEntity moves to X=6.034*, Z=0.235*, Y=-7.112*
  2: 0x06C5 [0x1F] MOVE_ENTITY: Update entity position (mode=1)
  3: 0x06C7 [0x6F] WAIT_FRAME_DELAY: Yield until WaitTime reaches zero
  4: 0x06C8 [0x1E] EventEntity looks at Chaos (ID: 17441116/0x010A215C) and starts talking
  5: 0x06CD [0x6F] WAIT_FRAME_DELAY: Yield until WaitTime reaches zero
  6: 0x06CE [0x70] WAIT_ENTITY_RENDER_FLAG: Wait while EventEntity->Render.Flags3 bit 2 is set (cancel turn if not)
  7: 0x06CF [0x00] END_REQSTACK()
```

### Event 65535.25

#### Metadata

| Field        | Value    |
|--------------|----------|
| Entrypoint   | 0x06D0   |
| Data Size    | 22 bytes |
| Instructions | 8        |

```
      00 01 02 03 04 05 06 07  08 09 0A 0B 0C 0D 0E 0F
      -- -- -- -- -- -- -- --  -- -- -- -- -- -- -- --
06D0: 32 58 80 1F 00 7A 80 7B  80 7C 80 1F 01 6F 1E 5C  2X...z.{.|...o.\
06E0: 21 0A 01 6F 70 00                                 !..op.          
```

#### Opcodes

```
  0: 0x06D0 [0x32] ExtData[1]->MainSpeed = 40* * 0.1
  1: 0x06D3 [0x1F] MOVE_ENTITY: EventEntity moves to X=6.734*, Z=0.053*, Y=-7.074*
  2: 0x06DB [0x1F] MOVE_ENTITY: Update entity position (mode=1)
  3: 0x06DD [0x6F] WAIT_FRAME_DELAY: Yield until WaitTime reaches zero
  4: 0x06DE [0x1E] EventEntity looks at Chaos (ID: 17441116/0x010A215C) and starts talking
  5: 0x06E3 [0x6F] WAIT_FRAME_DELAY: Yield until WaitTime reaches zero
  6: 0x06E4 [0x70] WAIT_ENTITY_RENDER_FLAG: Wait while EventEntity->Render.Flags3 bit 2 is set (cancel turn if not)
  7: 0x06E5 [0x00] END_REQSTACK()
```

### Event 65535.26

#### Metadata

| Field        | Value    |
|--------------|----------|
| Entrypoint   | 0x06E6   |
| Data Size    | 22 bytes |
| Instructions | 8        |

```
      00 01 02 03 04 05 06 07  08 09 0A 0B 0C 0D 0E 0F
      -- -- -- -- -- -- -- --  -- -- -- -- -- -- -- --
06E0:                   32 44  80 1F 00 7D 80 7E 80 7F        2D...}.~..
06F0: 80 1F 01 6F 1E 5E 21 0A  01 6F 70 00              ...o.^!..op.    
```

#### Opcodes

```
  0: 0x06E6 [0x32] ExtData[1]->MainSpeed = 13* * 0.1
  1: 0x06E9 [0x1F] MOVE_ENTITY: EventEntity moves to X=9.088*, Z=0.049*, Y=-7.199*
  2: 0x06F1 [0x1F] MOVE_ENTITY: Update entity position (mode=1)
  3: 0x06F3 [0x6F] WAIT_FRAME_DELAY: Yield until WaitTime reaches zero
  4: 0x06F4 [0x1E] EventEntity looks at Duke Alloces (ID: 17441118/0x010A215E) and starts talking
  5: 0x06F9 [0x6F] WAIT_FRAME_DELAY: Yield until WaitTime reaches zero
  6: 0x06FA [0x70] WAIT_ENTITY_RENDER_FLAG: Wait while EventEntity->Render.Flags3 bit 2 is set (cancel turn if not)
  7: 0x06FB [0x00] END_REQSTACK()
```

### Event 65535.27

#### Metadata

| Field        | Value    |
|--------------|----------|
| Entrypoint   | 0x06FC   |
| Data Size    | 15 bytes |
| Instructions | 5        |

```
      00 01 02 03 04 05 06 07  08 09 0A 0B 0C 0D 0E 0F
      -- -- -- -- -- -- -- --  -- -- -- -- -- -- -- --
06F0:                                      32 58 80 1F              2X..
0700: 00 80 80 81 80 82 80 1F  01 6F 00                 .........o.     
```

#### Opcodes

```
  0: 0x06FC [0x32] ExtData[1]->MainSpeed = 40* * 0.1
  1: 0x06FF [0x1F] MOVE_ENTITY: EventEntity moves to X=6.743*, Z=1.140*, Y=-7.119*
  2: 0x0707 [0x1F] MOVE_ENTITY: Update entity position (mode=1)
  3: 0x0709 [0x6F] WAIT_FRAME_DELAY: Yield until WaitTime reaches zero
  4: 0x070A [0x00] END_REQSTACK()
```

### Event 65535.28

#### Metadata

| Field        | Value    |
|--------------|----------|
| Entrypoint   | 0x070B   |
| Data Size    | 15 bytes |
| Instructions | 5        |

```
      00 01 02 03 04 05 06 07  08 09 0A 0B 0C 0D 0E 0F
      -- -- -- -- -- -- -- --  -- -- -- -- -- -- -- --
0700:                                   32 58 80 1F 00             2X...
0710: 83 80 84 80 66 80 1F 01  6F 00                    ....f...o.      
```

#### Opcodes

```
  0: 0x070B [0x32] ExtData[1]->MainSpeed = 40* * 0.1
  1: 0x070E [0x1F] MOVE_ENTITY: EventEntity moves to X=7.046*, Z=1.046*, Y=-7.200*
  2: 0x0716 [0x1F] MOVE_ENTITY: Update entity position (mode=1)
  3: 0x0718 [0x6F] WAIT_FRAME_DELAY: Yield until WaitTime reaches zero
  4: 0x0719 [0x00] END_REQSTACK()
```

### Event 65535.29

#### Metadata

| Field        | Value    |
|--------------|----------|
| Entrypoint   | 0x071A   |
| Data Size    | 15 bytes |
| Instructions | 5        |

```
      00 01 02 03 04 05 06 07  08 09 0A 0B 0C 0D 0E 0F
      -- -- -- -- -- -- -- --  -- -- -- -- -- -- -- --
0710:                                32 58 80 1F 00 85            2X....
0720: 80 86 80 66 80 1F 01 6F  00                       ...f...o.       
```

#### Opcodes

```
  0: 0x071A [0x32] ExtData[1]->MainSpeed = 40* * 0.1
  1: 0x071D [0x1F] MOVE_ENTITY: EventEntity moves to X=8.797*, Z=0.632*, Y=-7.200*
  2: 0x0725 [0x1F] MOVE_ENTITY: Update entity position (mode=1)
  3: 0x0727 [0x6F] WAIT_FRAME_DELAY: Yield until WaitTime reaches zero
  4: 0x0728 [0x00] END_REQSTACK()
```

### Event 65535.30

#### Metadata

| Field        | Value    |
|--------------|----------|
| Entrypoint   | 0x0729   |
| Data Size    | 15 bytes |
| Instructions | 5        |

```
      00 01 02 03 04 05 06 07  08 09 0A 0B 0C 0D 0E 0F
      -- -- -- -- -- -- -- --  -- -- -- -- -- -- -- --
0720:                             32 58 80 1F 00 87 80           2X.....
0730: 88 80 89 80 1F 01 6F 00                           ......o.        
```

#### Opcodes

```
  0: 0x0729 [0x32] ExtData[1]->MainSpeed = 40* * 0.1
  1: 0x072C [0x1F] MOVE_ENTITY: EventEntity moves to X=7.260*, Z=1.020*, Y=-7.209*
  2: 0x0734 [0x1F] MOVE_ENTITY: Update entity position (mode=1)
  3: 0x0736 [0x6F] WAIT_FRAME_DELAY: Yield until WaitTime reaches zero
  4: 0x0737 [0x00] END_REQSTACK()
```

### Event 65535.31

#### Metadata

| Field        | Value    |
|--------------|----------|
| Entrypoint   | 0x0738   |
| Data Size    | 15 bytes |
| Instructions | 5        |

```
      00 01 02 03 04 05 06 07  08 09 0A 0B 0C 0D 0E 0F
      -- -- -- -- -- -- -- --  -- -- -- -- -- -- -- --
0730:                          32 44 80 1F 00 8A 80 8B          2D......
0740: 80 8C 80 1F 01 6F 00                              .....o.         
```

#### Opcodes

```
  0: 0x0738 [0x32] ExtData[1]->MainSpeed = 13* * 0.1
  1: 0x073B [0x1F] MOVE_ENTITY: EventEntity moves to X=-447.635*, Z=-239.891*, Y=-167.199*
  2: 0x0743 [0x1F] MOVE_ENTITY: Update entity position (mode=1)
  3: 0x0745 [0x6F] WAIT_FRAME_DELAY: Yield until WaitTime reaches zero
  4: 0x0746 [0x00] END_REQSTACK()
```

### Event 65535.32

#### Metadata

| Field        | Value   |
|--------------|---------|
| Entrypoint   | 0x0747  |
| Data Size    | 6 bytes |
| Instructions | 2       |

```
      00 01 02 03 04 05 06 07  08 09 0A 0B 0C 0D 0E 0F
      -- -- -- -- -- -- -- --  -- -- -- -- -- -- -- --
0740:                      03  09 10 07 7F 00                  ......   
```

#### Opcodes

```
  0: 0x0747 [0x03] Work_Zone[9] = Entity->Race
  1: 0x074C [0x00] END_REQSTACK()
```
