# Event 65535

## Metadata

| Field           | Value    |
|-----------------|----------|
| Event Index     | 15/18    |
| Offset          | 0x24B4   |
| Data Size       | 80 bytes |
| Calculated Size | 80 bytes |
| Instructions    | 10       |

```
      00 01 02 03 04 05 06 07  08 09 0A 0B 0C 0D 0E 0F
      -- -- -- -- -- -- -- --  -- -- -- -- -- -- -- --
24B0:             45 3B 80 F0  FF FF 7F F0 FF FF 7F 6E      E;.........n
24C0: 61 6B 73 00 80 45 3B 80  F0 FF FF 7F F0 FF FF 7F  aks..E;.........
24D0: 68 61 73 73 00 80 45 3B  80 2E 60 04 01 2E 60 04  hass..E;..`...`.
24E0: 01 6B 61 6E 74 00 80 03  02 10 34 10 2B 45 60 04  .kant.....4.+E`.
24F0: 01 85 80 1A 2E 22 1C 6D  80 2B 45 60 04 01 86 80  .....".m.+E`....
2500: 1C 6D 80 00                                       .m..            
```

## Opcodes

```
  0: 0x24B4 [0x45] LOAD_SCHEDULED_TASK: Load scheduler "naks" with entities [LocalPlayer, LocalPlayer], work=[191*, 0*]
  1: 0x24C5 [0x45] LOAD_SCHEDULED_TASK: Load scheduler "hass" with entities [LocalPlayer, LocalPlayer], work=[191*, 0*]
  2: 0x24D6 [0x45] LOAD_SCHEDULED_TASK: Load scheduler "kant" with entities [Unnamed NPC (ID: 17063982/0x0104602E), Unnamed NPC (ID: 17063982/0x0104602E)], work=[191*, 0*]
  3: 0x24E7 [0x03] Work_Zone[2] = Work_Zone[52]
  4: 0x24EC [0x2B] Goccilo (ID: 17064005/0x01046045) [10029*]:
    → "And they're off!\u0000\u0007"
  5: 0x24F3 [0x1A] CALL_SUBROUTINE(address=0x222E)
  6: 0x24F6 [0x1C] WAIT(90* ticks)
  7: 0x24F9 [0x2B] Goccilo (ID: 17064005/0x01046045) [10033*]:
    → "Ah! It looks like one of the contestants was slow out of the gate! Will it be able to catch up in time!?\u0000\u0007"
  8: 0x2500 [0x1C] WAIT(90* ticks)
  9: 0x2503 [0x00] END_REQSTACK()
```
