# Event 65535

## Metadata

| Field           | Value    |
|-----------------|----------|
| Event Index     | 10/10    |
| Offset          | 0x0035   |
| Data Size       | 74 bytes |
| Calculated Size | 74 bytes |
| Instructions    | 8        |

```
      00 01 02 03 04 05 06 07  08 09 0A 0B 0C 0D 0E 0F
      -- -- -- -- -- -- -- --  -- -- -- -- -- -- -- --
0030:                1C 0B 80  45 0C 80 F0 FF FF 7F F0       ...E.......
0040: FF FF 7F 77 68 6F 31 02  80 55 0C 80 F0 FF FF 7F  ...who1..U......
0050: F0 FF FF 7F 77 68 6F 31  78 52 0D 80 F0 FF FF 7F  ....who1xR......
0060: F0 FF FF 7F 73 30 32 30  45 0D 80 F0 FF FF 7F F0  ....s020E.......
0070: FF FF 7F 73 30 31 37 02  80 7B 95 40 0F 01 00     ...s017..{.@... 
```

## Opcodes

```
  0: 0x0035 [0x1C] WAIT(480* ticks)
  1: 0x0038 [0x45] LOAD_SCHEDULED_TASK: Load scheduler "who1" with entities [LocalPlayer, LocalPlayer], work=[201*, 0*]
  2: 0x0049 [0x55] WAIT_LOAD_SCHEDULER: Wait for scheduler "who1" with entities [LocalPlayer, LocalPlayer], work=201*
  3: 0x0058 [0x78] ENABLE_GAME_TIMER_RESET_WEATHER()
  4: 0x0059 [0x52] END_LOAD_SCHEDULER: End scheduler "s020" with entities [LocalPlayer, LocalPlayer], work=37*
  5: 0x0068 [0x45] LOAD_SCHEDULED_TASK: Load scheduler "s017" with entities [LocalPlayer, LocalPlayer], work=[37*, 0*]
  6: 0x0079 [0x7B] Pheauclemand (ID: 17776789/0x010F4095) stops talking
  7: 0x007E [0x00] END_REQSTACK()
```
