# Event 329

## Metadata

| Field           | Value    |
|-----------------|----------|
| Event Index     | 6/14     |
| Offset          | 0x033E   |
| Data Size       | 53 bytes |
| Calculated Size | 53 bytes |
| Instructions    | 11       |

```
      00 01 02 03 04 05 06 07  08 09 0A 0B 0C 0D 0E 0F
      -- -- -- -- -- -- -- --  -- -- -- -- -- -- -- --
0330:                                            42 03                B.
0340: 01 10 02 10 1E F0 FF FF  7F 1D 21 80 23 5B 01 80  ..........!.#[..
0350: F8 FF FF 7F F8 FF FF 7F  70 61 73 30 1D 1F 80 23  ........pas0...#
0360: 45 20 80 F8 FF FF 7F F8  FF FF 7F 71 73 74 63 06  E .........qstc.
0370: 80 21 00                                          .!.             
```

## Opcodes

```
  0: 0x033E [0x42] SET_CLI_EVENT_CANCEL_DATA()
  1: 0x033F [0x03] Work_Zone[1] = Work_Zone[2]
  2: 0x0344 [0x1E] EventEntity looks at LocalPlayer and starts talking
  3: 0x0349 [0x1D] PRINT_EVENT_MESSAGE(message_id=7758*)
    → "Another segment from Ultima! You have my utmost gratitude. Please accept this in return.\u007F1\u0000\u0007"
  4: 0x034C [0x23] WAIT_FOR_DIALOG_INTERACTION
  5: 0x034D [0x5B] LOAD_EXT_SCHEDULER: Load scheduler "pas0" with entities [EventEntity, EventEntity], work=65*
  6: 0x035C [0x1D] PRINT_EVENT_MESSAGE(message_id=7757*)
    → "If you acquire any more segments of Ultima, I would greatly appreciate it if you could bring them to me.\u007F1\u0000\u0007"
  7: 0x035F [0x23] WAIT_FOR_DIALOG_INTERACTION
  8: 0x0360 [0x45] LOAD_SCHEDULED_TASK: Load scheduler "qstc" with entities [EventEntity, EventEntity], work=[201*, 0*]
  9: 0x0371 [0x21] END_EVENT
 10: 0x0372 [0x00] END_REQSTACK()
```
