# Event 65535

## Metadata

| Field           | Value    |
|-----------------|----------|
| Event Index     | 8/8      |
| Offset          | 0x0170   |
| Data Size       | 85 bytes |
| Calculated Size | 85 bytes |
| Instructions    | 7        |

```
      00 01 02 03 04 05 06 07  08 09 0A 0B 0C 0D 0E 0F
      -- -- -- -- -- -- -- --  -- -- -- -- -- -- -- --
0170: 45 13 80 F0 FF FF 7F F0  FF FF 7F 78 30 30 62 14  E..........x00b.
0180: 80 1C 15 80 52 13 80 F0  FF FF 7F F0 FF FF 7F 78  ....R..........x
0190: 30 30 62 45 15 80 F0 FF  FF 7F F0 FF FF 7F 6F 76  00bE..........ov
01A0: 6C 31 14 80 45 13 80 F0  FF FF 7F F0 FF FF 7F 78  l1..E..........x
01B0: 30 30 32 14 80 55 13 80  F0 FF FF 7F F0 FF FF 7F  002..U..........
01C0: 78 30 30 32 00                                    x002.           
```

## Opcodes

```
  0: 0x0170 [0x45] LOAD_SCHEDULED_TASK: Load scheduler "x00b" with entities [LocalPlayer, LocalPlayer], work=[82*, 0*]
  1: 0x0181 [0x1C] WAIT(200* ticks)
  2: 0x0184 [0x52] END_LOAD_SCHEDULER: End scheduler "x00b" with entities [LocalPlayer, LocalPlayer], work=82*
  3: 0x0193 [0x45] LOAD_SCHEDULED_TASK: Load scheduler "ovl1" with entities [LocalPlayer, LocalPlayer], work=[200*, 0*]
  4: 0x01A4 [0x45] LOAD_SCHEDULED_TASK: Load scheduler "x002" with entities [LocalPlayer, LocalPlayer], work=[82*, 0*]
  5: 0x01B5 [0x55] WAIT_LOAD_SCHEDULER: Wait for scheduler "x002" with entities [LocalPlayer, LocalPlayer], work=82*
  6: 0x01C4 [0x00] END_REQSTACK()
```
