# Event 65535

## Metadata

| Field           | Value    |
|-----------------|----------|
| Event Index     | 22/34    |
| Offset          | 0x0210   |
| Data Size       | 66 bytes |
| Calculated Size | 66 bytes |
| Instructions    | 16       |

```
      00 01 02 03 04 05 06 07  08 09 0A 0B 0C 0D 0E 0F
      -- -- -- -- -- -- -- --  -- -- -- -- -- -- -- --
0210: 32 32 80 1F 00 37 80 38  80 39 80 1F 01 1C 43 80  22...7.8.9....C.
0220: 1F 00 3A 80 3B 80 3C 80  1F 01 1C 43 80 1F 00 3D  ..:.;.<....C...=
0230: 80 3E 80 3F 80 1F 01 1C  43 80 1F 00 40 80 41 80  .>.?....C...@.A.
0240: 42 80 1F 01 1C 43 80 1F  00 33 80 34 80 35 80 1F  B....C...3.4.5..
0250: 01 00                                             ..              
```

## Opcodes

```
  0: 0x0210 [0x32] ExtData[1]->MainSpeed = 19* * 0.1
  1: 0x0213 [0x1F] MOVE_ENTITY: EventEntity moves to X=-601.910*, Z=587.743*, Y=0.274*
  2: 0x021B [0x1F] MOVE_ENTITY: Update entity position (mode=1)
  3: 0x021D [0x1C] WAIT(30* ticks)
  4: 0x0220 [0x1F] MOVE_ENTITY: EventEntity moves to X=-600.199*, Z=588.994*, Y=0.347*
  5: 0x0228 [0x1F] MOVE_ENTITY: Update entity position (mode=1)
  6: 0x022A [0x1C] WAIT(30* ticks)
  7: 0x022D [0x1F] MOVE_ENTITY: EventEntity moves to X=-599.211*, Z=586.089*, Y=0.586*
  8: 0x0235 [0x1F] MOVE_ENTITY: Update entity position (mode=1)
  9: 0x0237 [0x1C] WAIT(30* ticks)
 10: 0x023A [0x1F] MOVE_ENTITY: EventEntity moves to X=-599.391*, Z=583.375*, Y=0.830*
 11: 0x0242 [0x1F] MOVE_ENTITY: Update entity position (mode=1)
 12: 0x0244 [0x1C] WAIT(30* ticks)
 13: 0x0247 [0x1F] MOVE_ENTITY: EventEntity moves to X=-600.128*, Z=585.578*, Y=0.628*
 14: 0x024F [0x1F] MOVE_ENTITY: Update entity position (mode=1)
 15: 0x0251 [0x00] END_REQSTACK()
```
