# Event 65535

## Metadata

| Field           | Value    |
|-----------------|----------|
| Event Index     | 27/34    |
| Offset          | 0x030E   |
| Data Size       | 67 bytes |
| Calculated Size | 67 bytes |
| Instructions    | 15       |

```
      00 01 02 03 04 05 06 07  08 09 0A 0B 0C 0D 0E 0F
      -- -- -- -- -- -- -- --  -- -- -- -- -- -- -- --
0300:                                            32 05                2.
0310: 80 1F 00 56 80 57 80 58  80 1F 01 4B 17 61 0E 01  ...V.W.X...K.a..
0320: 59 80 1C 26 80 1F 00 5A  80 5B 80 5C 80 1F 01 4B  Y..&...Z.[.\...K
0330: 17 61 0E 01 5D 80 1C 5E  80 1F 00 5F 80 60 80 61  .a..]..^..._.`.a
0340: 80 1F 01 1C 43 80 4B 17  61 0E 01 62 80 1C 26 80  ....C.K.a..b..&.
0350: 00                                                .               
```

## Opcodes

```
  0: 0x030E [0x32] ExtData[1]->MainSpeed = 57* * 0.1
  1: 0x0311 [0x1F] MOVE_ENTITY: EventEntity moves to X=-599.295*, Z=590.678*, Y=0.264*
  2: 0x0319 [0x1F] MOVE_ENTITY: Update entity position (mode=1)
  3: 0x031B [0x4B] UPDATE_ENTITY_YAW(entity=Unnamed NPC (ID: 17719575/0x010E6117), yaw=5.27°*)
  4: 0x0322 [0x1C] WAIT(60* ticks)
  5: 0x0325 [0x1F] MOVE_ENTITY: EventEntity moves to X=-604.353*, Z=586.292*, Y=0.138*
  6: 0x032D [0x1F] MOVE_ENTITY: Update entity position (mode=1)
  7: 0x032F [0x4B] UPDATE_ENTITY_YAW(entity=Unnamed NPC (ID: 17719575/0x010E6117), yaw=0.20°*)
  8: 0x0336 [0x1C] WAIT(240* ticks)
  9: 0x0339 [0x1F] MOVE_ENTITY: EventEntity moves to X=-600.328*, Z=582.410*, Y=0.802*
 10: 0x0341 [0x1F] MOVE_ENTITY: Update entity position (mode=1)
 11: 0x0343 [0x1C] WAIT(30* ticks)
 12: 0x0346 [0x4B] UPDATE_ENTITY_YAW(entity=Unnamed NPC (ID: 17719575/0x010E6117), yaw=16.63°*)
 13: 0x034D [0x1C] WAIT(60* ticks)
 14: 0x0350 [0x00] END_REQSTACK()
```
