# Event 65535

## Metadata

| Field           | Value    |
|-----------------|----------|
| Event Index     | 26/34    |
| Offset          | 0x02DC   |
| Data Size       | 50 bytes |
| Calculated Size | 50 bytes |
| Instructions    | 12       |

```
      00 01 02 03 04 05 06 07  08 09 0A 0B 0C 0D 0E 0F
      -- -- -- -- -- -- -- --  -- -- -- -- -- -- -- --
02D0:                                      32 32 80 1F              22..
02E0: 00 53 80 54 80 55 80 1F  01 1C 26 80 1F 00 4F 80  .S.T.U....&...O.
02F0: 50 80 51 80 1F 01 1C 26  80 1F 00 33 80 34 80 35  P.Q....&...3.4.5
0300: 80 1F 01 4B 17 61 0E 01  52 80 1C 26 80 00        ...K.a..R..&..  
```

## Opcodes

```
  0: 0x02DC [0x32] ExtData[1]->MainSpeed = 19* * 0.1
  1: 0x02DF [0x1F] MOVE_ENTITY: EventEntity moves to X=-599.892*, Z=588.477*, Y=0.373*
  2: 0x02E7 [0x1F] MOVE_ENTITY: Update entity position (mode=1)
  3: 0x02E9 [0x1C] WAIT(60* ticks)
  4: 0x02EC [0x1F] MOVE_ENTITY: EventEntity moves to X=-602.144*, Z=586.825*, Y=0.376*
  5: 0x02F4 [0x1F] MOVE_ENTITY: Update entity position (mode=1)
  6: 0x02F6 [0x1C] WAIT(60* ticks)
  7: 0x02F9 [0x1F] MOVE_ENTITY: EventEntity moves to X=-600.128*, Z=585.578*, Y=0.628*
  8: 0x0301 [0x1F] MOVE_ENTITY: Update entity position (mode=1)
  9: 0x0303 [0x4B] UPDATE_ENTITY_YAW(entity=Unnamed NPC (ID: 17719575/0x010E6117), yaw=11.8°*)
 10: 0x030A [0x1C] WAIT(60* ticks)
 11: 0x030D [0x00] END_REQSTACK()
```
