# Event 65535

## Metadata

| Field           | Value    |
|-----------------|----------|
| Event Index     | 21/34    |
| Offset          | 0x01DA   |
| Data Size       | 54 bytes |
| Calculated Size | 54 bytes |
| Instructions    | 12       |

```
      00 01 02 03 04 05 06 07  08 09 0A 0B 0C 0D 0E 0F
      -- -- -- -- -- -- -- --  -- -- -- -- -- -- -- --
01D0:                                32 28 80 1F 00 37            2(...7
01E0: 80 38 80 39 80 1F 01 1F  00 3A 80 3B 80 3C 80 1F  .8.9.....:.;.<..
01F0: 01 1F 00 3D 80 3E 80 3F  80 1F 01 1F 00 40 80 41  ...=.>.?.....@.A
0200: 80 42 80 1F 01 1F 00 33  80 34 80 35 80 1F 01 00  .B.....3.4.5....
```

## Opcodes

```
  0: 0x01DA [0x32] ExtData[1]->MainSpeed = 10* * 0.1
  1: 0x01DD [0x1F] MOVE_ENTITY: EventEntity moves to X=-601.910*, Z=587.743*, Y=0.274*
  2: 0x01E5 [0x1F] MOVE_ENTITY: Update entity position (mode=1)
  3: 0x01E7 [0x1F] MOVE_ENTITY: EventEntity moves to X=-600.199*, Z=588.994*, Y=0.347*
  4: 0x01EF [0x1F] MOVE_ENTITY: Update entity position (mode=1)
  5: 0x01F1 [0x1F] MOVE_ENTITY: EventEntity moves to X=-599.211*, Z=586.089*, Y=0.586*
  6: 0x01F9 [0x1F] MOVE_ENTITY: Update entity position (mode=1)
  7: 0x01FB [0x1F] MOVE_ENTITY: EventEntity moves to X=-599.391*, Z=583.375*, Y=0.830*
  8: 0x0203 [0x1F] MOVE_ENTITY: Update entity position (mode=1)
  9: 0x0205 [0x1F] MOVE_ENTITY: EventEntity moves to X=-600.128*, Z=585.578*, Y=0.628*
 10: 0x020D [0x1F] MOVE_ENTITY: Update entity position (mode=1)
 11: 0x020F [0x00] END_REQSTACK()
```
