# Event 65535

## Metadata

| Field           | Value    |
|-----------------|----------|
| Event Index     | 32/34    |
| Offset          | 0x03D3   |
| Data Size       | 59 bytes |
| Calculated Size | 59 bytes |
| Instructions    | 13       |

```
      00 01 02 03 04 05 06 07  08 09 0A 0B 0C 0D 0E 0F
      -- -- -- -- -- -- -- --  -- -- -- -- -- -- -- --
03D0:          32 28 80 1F 00  6E 80 6F 80 70 80 1F 01     2(...n.o.p...
03E0: 1F 00 71 80 72 80 73 80  1F 01 1F 00 74 80 75 80  ..q.r.s.....t.u.
03F0: 76 80 1F 01 1F 00 77 80  78 80 79 80 1F 01 1F 00  v.....w.x.y.....
0400: 7A 80 7B 80 7C 80 1F 01  1E 13 61 0E 01 00        z.{.|.....a...  
```

## Opcodes

```
  0: 0x03D3 [0x32] ExtData[1]->MainSpeed = 10* * 0.1
  1: 0x03D6 [0x1F] MOVE_ENTITY: EventEntity moves to X=-601.361*, Z=584.507*, Y=0.542*
  2: 0x03DE [0x1F] MOVE_ENTITY: Update entity position (mode=1)
  3: 0x03E0 [0x1F] MOVE_ENTITY: EventEntity moves to X=-600.414*, Z=583.859*, Y=0.704*
  4: 0x03E8 [0x1F] MOVE_ENTITY: Update entity position (mode=1)
  5: 0x03EA [0x1F] MOVE_ENTITY: EventEntity moves to X=-599.376*, Z=585.276*, Y=0.668*
  6: 0x03F2 [0x1F] MOVE_ENTITY: Update entity position (mode=1)
  7: 0x03F4 [0x1F] MOVE_ENTITY: EventEntity moves to X=-598.992*, Z=587.260*, Y=0.468*
  8: 0x03FC [0x1F] MOVE_ENTITY: Update entity position (mode=1)
  9: 0x03FE [0x1F] MOVE_ENTITY: EventEntity moves to X=-599.942*, Z=587.474*, Y=0.447*
 10: 0x0406 [0x1F] MOVE_ENTITY: Update entity position (mode=1)
 11: 0x0408 [0x1E] EventEntity looks at Unnamed NPC (ID: 17719571/0x010E6113) and starts talking
 12: 0x040D [0x00] END_REQSTACK()
```
