# Event 65535

## Metadata

| Field           | Value    |
|-----------------|----------|
| Event Index     | 31/34    |
| Offset          | 0x03A0   |
| Data Size       | 51 bytes |
| Calculated Size | 51 bytes |
| Instructions    | 11       |

```
      00 01 02 03 04 05 06 07  08 09 0A 0B 0C 0D 0E 0F
      -- -- -- -- -- -- -- --  -- -- -- -- -- -- -- --
03A0: 32 05 80 1F 00 66 80 67  80 05 80 1F 01 1F 00 68  2....f.g.......h
03B0: 80 69 80 6A 80 1F 01 1F  00 6B 80 6C 80 6D 80 1F  .i.j.....k.l.m..
03C0: 01 1E 13 61 0E 01 1C 43  80 4A 13 61 0E 01 17 61  ...a...C.J.a...a
03D0: 0E 01 00                                          ...             
```

## Opcodes

```
  0: 0x03A0 [0x32] ExtData[1]->MainSpeed = 57* * 0.1
  1: 0x03A3 [0x1F] MOVE_ENTITY: EventEntity moves to X=-604.257*, Z=586.573*, Y=0.057*
  2: 0x03AB [0x1F] MOVE_ENTITY: Update entity position (mode=1)
  3: 0x03AD [0x1F] MOVE_ENTITY: EventEntity moves to X=-603.318*, Z=588.527*, Y=0.196*
  4: 0x03B5 [0x1F] MOVE_ENTITY: Update entity position (mode=1)
  5: 0x03B7 [0x1F] MOVE_ENTITY: EventEntity moves to X=-601.495*, Z=586.040*, Y=0.496*
  6: 0x03BF [0x1F] MOVE_ENTITY: Update entity position (mode=1)
  7: 0x03C1 [0x1E] EventEntity looks at Unnamed NPC (ID: 17719571/0x010E6113) and starts talking
  8: 0x03C6 [0x1C] WAIT(30* ticks)
  9: 0x03C9 [0x4A] Unnamed NPC (ID: 17719571/0x010E6113) looks at Unnamed NPC (ID: 17719575/0x010E6117)
 10: 0x03D2 [0x00] END_REQSTACK()
```
