# Event 65535

## Metadata

| Field           | Value    |
|-----------------|----------|
| Event Index     | 25/34    |
| Offset          | 0x02AA   |
| Data Size       | 50 bytes |
| Calculated Size | 50 bytes |
| Instructions    | 12       |

```
      00 01 02 03 04 05 06 07  08 09 0A 0B 0C 0D 0E 0F
      -- -- -- -- -- -- -- --  -- -- -- -- -- -- -- --
02A0:                                32 28 80 1F 00 4C            2(...L
02B0: 80 4D 80 4E 80 1F 01 1C  26 80 1F 00 4F 80 50 80  .M.N....&...O.P.
02C0: 51 80 1F 01 1C 26 80 1F  00 33 80 34 80 35 80 1F  Q....&...3.4.5..
02D0: 01 4B 17 61 0E 01 52 80  1C 26 80 00              .K.a..R..&..    
```

## Opcodes

```
  0: 0x02AA [0x32] ExtData[1]->MainSpeed = 10* * 0.1
  1: 0x02AD [0x1F] MOVE_ENTITY: EventEntity moves to X=-600.221*, Z=588.558*, Y=0.369*
  2: 0x02B5 [0x1F] MOVE_ENTITY: Update entity position (mode=1)
  3: 0x02B7 [0x1C] WAIT(60* ticks)
  4: 0x02BA [0x1F] MOVE_ENTITY: EventEntity moves to X=-602.144*, Z=586.825*, Y=0.376*
  5: 0x02C2 [0x1F] MOVE_ENTITY: Update entity position (mode=1)
  6: 0x02C4 [0x1C] WAIT(60* ticks)
  7: 0x02C7 [0x1F] MOVE_ENTITY: EventEntity moves to X=-600.128*, Z=585.578*, Y=0.628*
  8: 0x02CF [0x1F] MOVE_ENTITY: Update entity position (mode=1)
  9: 0x02D1 [0x4B] UPDATE_ENTITY_YAW(entity=Unnamed NPC (ID: 17719575/0x010E6117), yaw=11.8°*)
 10: 0x02D8 [0x1C] WAIT(60* ticks)
 11: 0x02DB [0x00] END_REQSTACK()
```
