# Event 65535

## Metadata

| Field           | Value    |
|-----------------|----------|
| Event Index     | 4/9      |
| Offset          | 0x0017   |
| Data Size       | 78 bytes |
| Calculated Size | 78 bytes |
| Instructions    | 8        |

```
      00 01 02 03 04 05 06 07  08 09 0A 0B 0C 0D 0E 0F
      -- -- -- -- -- -- -- --  -- -- -- -- -- -- -- --
0010:                      9F  03 80 82 30 01 01 82 30         ....0...0
0020: 01 01 73 74 72 30 02 80  1C 04 80 9F 03 80 85 30  ..str0.........0
0030: 01 01 85 30 01 01 73 74  72 30 02 80 1C 05 80 9F  ...0..str0......
0040: 03 80 84 30 01 01 84 30  01 01 73 74 72 30 02 80  ...0...0..str0..
0050: 1C 06 80 9F 03 80 83 30  01 01 83 30 01 01 73 74  .......0...0..st
0060: 72 30 02 80 00                                    r0...           
```

## Opcodes

```
  0: 0x0017 [0x9F] LOAD_SCHEDULED_TASK_ALT: Load scheduler "str0" with entities [Unnamed NPC (ID: 16855170/0x01013082), Unnamed NPC (ID: 16855170/0x01013082)], work=[94*, 0*]
  1: 0x0028 [0x1C] WAIT(15* ticks)
  2: 0x002B [0x9F] LOAD_SCHEDULED_TASK_ALT: Load scheduler "str0" with entities [Unnamed NPC (ID: 16855173/0x01013085), Unnamed NPC (ID: 16855173/0x01013085)], work=[94*, 0*]
  3: 0x003C [0x1C] WAIT(6* ticks)
  4: 0x003F [0x9F] LOAD_SCHEDULED_TASK_ALT: Load scheduler "str0" with entities [Unnamed NPC (ID: 16855172/0x01013084), Unnamed NPC (ID: 16855172/0x01013084)], work=[94*, 0*]
  5: 0x0050 [0x1C] WAIT(9* ticks)
  6: 0x0053 [0x9F] LOAD_SCHEDULED_TASK_ALT: Load scheduler "str0" with entities [Unnamed NPC (ID: 16855171/0x01013083), Unnamed NPC (ID: 16855171/0x01013083)], work=[94*, 0*]
  7: 0x0064 [0x00] END_REQSTACK()
```
