# Event 65535

## Metadata

| Field           | Value    |
|-----------------|----------|
| Event Index     | 7/9      |
| Offset          | 0x0091   |
| Data Size       | 78 bytes |
| Calculated Size | 78 bytes |
| Instructions    | 8        |

```
      00 01 02 03 04 05 06 07  08 09 0A 0B 0C 0D 0E 0F
      -- -- -- -- -- -- -- --  -- -- -- -- -- -- -- --
0090:    9F 03 80 82 30 01 01  82 30 01 01 6B 69 6C 6C   ....0...0..kill
00A0: 02 80 1C 05 80 9F 03 80  83 30 01 01 83 30 01 01  .........0...0..
00B0: 6B 69 6C 6C 02 80 1C 04  80 9F 03 80 84 30 01 01  kill.........0..
00C0: 84 30 01 01 6B 69 6C 6C  02 80 1C 06 80 9F 03 80  .0..kill........
00D0: 85 30 01 01 85 30 01 01  6B 69 6C 6C 02 80 00     .0...0..kill... 
```

## Opcodes

```
  0: 0x0091 [0x9F] LOAD_SCHEDULED_TASK_ALT: Load scheduler "kill" with entities [Unnamed NPC (ID: 16855170/0x01013082), Unnamed NPC (ID: 16855170/0x01013082)], work=[94*, 0*]
  1: 0x00A2 [0x1C] WAIT(6* ticks)
  2: 0x00A5 [0x9F] LOAD_SCHEDULED_TASK_ALT: Load scheduler "kill" with entities [Unnamed NPC (ID: 16855171/0x01013083), Unnamed NPC (ID: 16855171/0x01013083)], work=[94*, 0*]
  3: 0x00B6 [0x1C] WAIT(15* ticks)
  4: 0x00B9 [0x9F] LOAD_SCHEDULED_TASK_ALT: Load scheduler "kill" with entities [Unnamed NPC (ID: 16855172/0x01013084), Unnamed NPC (ID: 16855172/0x01013084)], work=[94*, 0*]
  5: 0x00CA [0x1C] WAIT(9* ticks)
  6: 0x00CD [0x9F] LOAD_SCHEDULED_TASK_ALT: Load scheduler "kill" with entities [Unnamed NPC (ID: 16855173/0x01013085), Unnamed NPC (ID: 16855173/0x01013085)], work=[94*, 0*]
  7: 0x00DE [0x00] END_REQSTACK()
```
