# Event 65535

## Metadata

| Field           | Value    |
|-----------------|----------|
| Event Index     | 36/150   |
| Offset          | 0x0232   |
| Data Size       | 62 bytes |
| Calculated Size | 62 bytes |
| Instructions    | 6        |

```
      00 01 02 03 04 05 06 07  08 09 0A 0B 0C 0D 0E 0F
      -- -- -- -- -- -- -- --  -- -- -- -- -- -- -- --
0230:       BB 28 80 7D 62 0B  01 7D 62 0B 01 73 74 30    .(.}b..}b..st0
0240: 31 00 80 1C 29 80 BB 28  80 7D 62 0B 01 7D 62 0B  1...)..(.}b..}b.
0250: 01 73 74 30 32 00 80 27  10 83 62 0B 01 03 45 2A  .st02..'..b...E*
0260: 80 F8 FF FF 7F F8 FF FF  7F 64 62 6E 30 00 80 00  .........dbn0...
```

## Opcodes

```
  0: 0x0232 [0xBB] LOAD_EVENT_SCHEDULER_ALT: Load scheduler "st01" with entities [02 (ID: 17523325/0x010B627D), 02 (ID: 17523325/0x010B627D)], work=[156*, 0*]
  1: 0x0243 [0x1C] WAIT(180* ticks)
  2: 0x0246 [0xBB] LOAD_EVENT_SCHEDULER_ALT: Load scheduler "st02" with entities [02 (ID: 17523325/0x010B627D), 02 (ID: 17523325/0x010B627D)], work=[156*, 0*]
  3: 0x0257 [0x27] REQ_SET(priority=0x10, entity_id=??? (ID: 17523331/0x010B6283), tag_num=0x03)
  4: 0x025E [0x45] LOAD_SCHEDULED_TASK: Load scheduler "dbn0" with entities [EventEntity, EventEntity], work=[482*, 0*]
  5: 0x026F [0x00] END_REQSTACK()
```
