# Event 22

## Metadata

| Field           | Value    |
|-----------------|----------|
| Event Index     | 24/39    |
| Offset          | 0x0207   |
| Data Size       | 38 bytes |
| Calculated Size | 38 bytes |
| Instructions    | 10       |

```
      00 01 02 03 04 05 06 07  08 09 0A 0B 0C 0D 0E 0F
      -- -- -- -- -- -- -- --  -- -- -- -- -- -- -- --
0200:                      4A  F0 FF FF 7F F8 FF FF 7F         J........
0210: 1E F0 FF FF 7F 6F 76 F8  FF FF 7F 2B CC F2 0A 01  .....ov....+....
0220: 25 80 23 2B CC F2 0A 01  26 80 23 21 00           %.#+....&.#!.   
```

## Opcodes

```
  0: 0x0207 [0x4A] LocalPlayer looks at EventEntity
  1: 0x0210 [0x1E] EventEntity looks at LocalPlayer and starts talking
  2: 0x0215 [0x6F] WAIT_FRAME_DELAY: Yield until WaitTime reaches zero
  3: 0x0216 [0x76] CHECK_ENTITY_RENDER_FLAGS: Wait until EventEntity Render.Flags0 and Render.Flags3 conditions are met
  4: 0x021B [0x2B] Erlene (ID: 17494732/0x010AF2CC) [7774*]:
    → "Thank you again for your help.\u0007If you're still worried about Professor Schultz, you'll be happy to hear that he is safe now.\u007F1\u0000\u0007"
  5: 0x0222 [0x23] WAIT_FOR_DIALOG_INTERACTION
  6: 0x0223 [0x2B] Erlene (ID: 17494732/0x010AF2CC) [7775*]:
    → "Ulbrecht orchestrated a marvel of military extraction and was able to rescue him.\u0007It is only under such extreme circumstances that his true affection for the professor becomes evident.\u007F1\u0000\u0007"
  7: 0x022A [0x23] WAIT_FOR_DIALOG_INTERACTION
  8: 0x022B [0x21] END_EVENT
  9: 0x022C [0x00] END_REQSTACK()
```
