# Event 26

## Metadata

| Field           | Value    |
|-----------------|----------|
| Event Index     | 27/39    |
| Offset          | 0x0271   |
| Data Size       | 46 bytes |
| Calculated Size | 46 bytes |
| Instructions    | 12       |

```
      00 01 02 03 04 05 06 07  08 09 0A 0B 0C 0D 0E 0F
      -- -- -- -- -- -- -- --  -- -- -- -- -- -- -- --
0270:    4A F0 FF FF 7F F8 FF  FF 7F 1E F0 FF FF 7F 6F   J.............o
0280: 76 F8 FF FF 7F 2B CC F2  0A 01 2A 80 23 2B CC F2  v....+....*.#+..
0290: 0A 01 2B 80 23 2B CC F2  0A 01 2C 80 23 21 00     ..+.#+....,.#!. 
```

## Opcodes

```
  0: 0x0271 [0x4A] LocalPlayer looks at EventEntity
  1: 0x027A [0x1E] EventEntity looks at LocalPlayer and starts talking
  2: 0x027F [0x6F] WAIT_FRAME_DELAY: Yield until WaitTime reaches zero
  3: 0x0280 [0x76] CHECK_ENTITY_RENDER_FLAGS: Wait until EventEntity Render.Flags0 and Render.Flags3 conditions are met
  4: 0x0285 [0x2B] Erlene (ID: 17494732/0x010AF2CC) [7807*]:
    → "Word has reached me that the next appointed meeting ground is Sauromugue Champaign.\u007F1\u0000\u0007"
  5: 0x028C [0x23] WAIT_FOR_DIALOG_INTERACTION
  6: 0x028D [0x2B] Erlene (ID: 17494732/0x010AF2CC) [7808*]:
    → "Head south from here, and just as you exit the Rolanberry Fields, cross the Great Jeuno Bridge.\u0007The champaign lies just beyond.\u007F1\u0000\u0007"
  7: 0x0294 [0x23] WAIT_FOR_DIALOG_INTERACTION
  8: 0x0295 [0x2B] Erlene (ID: 17494732/0x010AF2CC) [7809*]:
    → "You must hurry!\u007F1\u0000\u0007"
  9: 0x029C [0x23] WAIT_FOR_DIALOG_INTERACTION
 10: 0x029D [0x21] END_EVENT
 11: 0x029E [0x00] END_REQSTACK()
```
