# Event 65535

## Metadata

| Field           | Value    |
|-----------------|----------|
| Event Index     | 108/112  |
| Offset          | 0x063D   |
| Data Size       | 56 bytes |
| Calculated Size | 56 bytes |
| Instructions    | 11       |

```
      00 01 02 03 04 05 06 07  08 09 0A 0B 0C 0D 0E 0F
      -- -- -- -- -- -- -- --  -- -- -- -- -- -- -- --
0630:                                         03 01 00               ...
0640: 00 80 03 02 00 00 80 02  01 00 4A 80 04 6B 06 02  ..........J..k..
0650: 02 00 00 80 00 68 06 AD  02 4B 80 F8 FF FF 7F F8  .....h...K......
0660: FF FF 7F 03 02 00 01 80  01 74 06 1C 01 80 57 01  .........t....W.
0670: 00 01 47 06 00                                    ..G..           
```

## Opcodes

```
  0: 0x063D [0x03] ExtData[1]->WorkLocal[1] = 0*
  1: 0x0642 [0x03] ExtData[1]->WorkLocal[2] = 0*
  2: 0x0647 [0x02] IF !(ExtData[1]->WorkLocal[1] < 570*) GOTO 0x066B
  3: 0x064F [0x02] IF !(ExtData[1]->WorkLocal[2] == 0*) GOTO 0x0668
  4: 0x0657 [0xAD] DUAL_ENTITY_SCHEDULER_HANDLER: Execute sub-case 2 with entities [EventEntity, EventEntity], work=269*
  5: 0x0663 [0x03] ExtData[1]->WorkLocal[2] = 1*
  6: 0x0668 [0x01] GOTO 0x0674

SUBROUTINE_066B:
  7: 0x066B [0x1C] WAIT(1* ticks)
  8: 0x066E [0x57] CREATE_FRAME_DELAY(delay=ExtData[1]->WorkLocal[1])
  9: 0x0671 [0x01] GOTO 0x0647

SUBROUTINE_0674:
 10: 0x0674 [0x00] END_REQSTACK()
```
