# Event 65535

## Metadata

| Field           | Value     |
|-----------------|-----------|
| Event Index     | 20/24     |
| Offset          | 0x01FD    |
| Data Size       | 107 bytes |
| Calculated Size | 107 bytes |
| Instructions    | 4         |

```
      00 01 02 03 04 05 06 07  08 09 0A 0B 0C 0D 0E 0F
      -- -- -- -- -- -- -- --  -- -- -- -- -- -- -- --
01F0:                                         32 04 80               2..
0200: 1F 00 12 80 13 80 00 80  1F 01 00 BF 20 00 80 00  ............ ...
0210: 80 08 80 00 00 41 14 80  15 80 00 00 01 00 41 16  .....A........A.
0220: 80 0E 80 00 00 02 00 BF  20 00 80 00 80 05 80 00  ........ .......
0230: 00 3E 00 00 17 80 40 02  03 03 00 05 80 01 43 02  .>....@.......C.
0240: 06 03 00 3E 00 00 00 80  52 02 03 04 00 05 80 01  ...>....R.......
0250: 55 02 06 04 00 3E 00 00  01 80 64 02 03 05 00 05  U....>....d.....
0260: 80 01 67 02 06 04 00 1B                           ..g.....        
```

## Opcodes

```
  0: 0x01FD [0x32] ExtData[1]->MainSpeed = 80* * 0.1
  1: 0x0200 [0x1F] MOVE_ENTITY: EventEntity moves to X=-73.005*, Z=-74.716*, Y=0.000*
  2: 0x0208 [0x1F] MOVE_ENTITY: Update entity position (mode=1)
  3: 0x020A [0x00] END_REQSTACK()
```

## Data or dead code:

```
# Dead code (unreachable instructions):
     0x020B [0xBF] CHOCOBO_RACING_PARAMETER_GETTER(param_type=0x20)
     0x020D [0x00] END_REQSTACK()
     0x020E [0x80] LOAD_WAIT(entity=Unknown NPC (ID: 2148040704/0x80088000))
     0x0213 [0x00] END_REQSTACK()
     0x0214 [0x00] END_REQSTACK()
     0x0215 [0x41] ExtData[1]->WorkLocal[1] = ExtData[1]->WorkLocal[0] (bits 28*-30*)
     0x021E [0x41] ExtData[1]->WorkLocal[2] = ExtData[1]->WorkLocal[0] (bits 25*-27*)
     0x0227 [0xBF] CHOCOBO_RACING_PARAMETER_GETTER(param_type=0x20)
     0x0229 [0x00] END_REQSTACK()
     0x022A [0x80] LOAD_WAIT(entity=Unknown NPC (ID: 2147844096/0x80058000))
     0x022F [0x00] END_REQSTACK()
     0x0230 [0x00] END_REQSTACK()
     0x0231 [0x3E] IF !(ExtData[1]->WorkLocal[0] bit 16*) GOTO 0x0240
     0x0238 [0x03] ExtData[1]->WorkLocal[3] = 1*
     0x023D [0x01] GOTO 0x0243
     0x0240 [0x06] ExtData[1]->WorkLocal[3] = 0
     0x0243 [0x3E] IF !(ExtData[1]->WorkLocal[0] bit 0*) GOTO 0x0252
     0x024A [0x03] ExtData[1]->WorkLocal[4] = 1*
     0x024F [0x01] GOTO 0x0255
     0x0252 [0x06] ExtData[1]->WorkLocal[4] = 0
     0x0255 [0x3E] IF !(ExtData[1]->WorkLocal[0] bit 8*) GOTO 0x0264
     0x025C [0x03] ExtData[1]->WorkLocal[5] = 1*
     0x0261 [0x01] GOTO 0x0267
     0x0264 [0x06] ExtData[1]->WorkLocal[4] = 0
     0x0267 [0x1B] RETURN
```