# Event 65535

## Metadata

| Field           | Value    |
|-----------------|----------|
| Event Index     | 13/24    |
| Offset          | 0x00C9   |
| Data Size       | 49 bytes |
| Calculated Size | 49 bytes |
| Instructions    | 6        |

```
      00 01 02 03 04 05 06 07  08 09 0A 0B 0C 0D 0E 0F
      -- -- -- -- -- -- -- --  -- -- -- -- -- -- -- --
00C0:                             B6 0B 09 80 0A 80 00           .......
00D0: 80 07 80 08 80 08 80 08  80 00 80 00 80 1A 0B 02  ................
00E0: 7E 03 F8 FF FF 7F 02 00  00 80 03 00 04 00 05 00  ~...............
00F0: 7E 04 F8 FF FF 7F 32 04  80 00                    ~.....2...      
```

## Opcodes

```
  0: 0x00C9 [0xB6] ENTITY_APPEARANCE_HANDLER(case=Full entity look, race=3*, hair=14*, head=0*, body=187*, hands=2*, legs=2*, feet=2*, main=0*, sub=0*)
  1: 0x00DD [0x1A] CALL_SUBROUTINE(address=0x020B)
  2: 0x00E0 [0x7E] CHOCOBO_MOUNT: Mount custom chocobo on EventEntity (index=2, color=32768, name_id=3)
  3: 0x00F0 [0x7E] CHOCOBO_MOUNT: Mode 4 on EventEntity
  4: 0x00F6 [0x32] ExtData[1]->MainSpeed = 80* * 0.1
  5: 0x00F9 [0x00] END_REQSTACK()
```
