# Event 65535

## Metadata

| Field           | Value     |
|-----------------|-----------|
| Event Index     | 20/24     |
| Offset          | 0x01FD    |
| Data Size       | 107 bytes |
| Calculated Size | 107 bytes |
| Instructions    | 5         |

```
      00 01 02 03 04 05 06 07  08 09 0A 0B 0C 0D 0E 0F
      -- -- -- -- -- -- -- --  -- -- -- -- -- -- -- --
01F0:                                         32 04 80               2..
0200: 1F 00 12 80 13 80 00 80  1F 01 00 BF 20 00 80 00  ............ ...
0210: 80 08 80 00 00 41 14 80  15 80 00 00 01 00 41 16  .....A........A.
0220: 80 0E 80 00 00 02 00 BF  20 00 80 00 80 05 80 00  ........ .......
0230: 00 3E 00 00 17 80 40 02  03 03 00 05 80 01 43 02  .>....@.......C.
0240: 06 03 00 3E 00 00 00 80  52 02 03 04 00 05 80 01  ...>....R.......
0250: 55 02 06 04 00 3E 00 00  01 80 64 02 03 05 00 05  U....>....d.....
0260: 80 01 67 02 06 04 00 1B                           ..g.....        
```

## Opcodes

```
  0: 0x01FD [0x32] ExtData[1]->MainSpeed = 80* * 0.1
  1: 0x0200 [0x1F] MOVE_ENTITY: EventEntity moves to X=-73.005*, Z=-74.716*, Y=0.000*
  2: 0x0208 [0x1F] MOVE_ENTITY: Update entity position (mode=1)
  3: 0x020A [0x00] END_REQSTACK()
```

## Data or dead code:

```
# Data Section: 0x020B (93 bytes)
     0x020B: BF 20 00 80 00 80 08 80 00 00 41 14 80 15 80 00
     0x021B: 00 01 00 41 16 80 0E 80 00 00 02 00 BF 20 00 80
     0x022B: 00 80 05 80 00 00 3E 00 00 17 80 40 02 03 03 00
     0x023B: 05 80 01 43 02 06 03 00 3E 00 00 00 80 52 02 03
     0x024B: 04 00 05 80 01 55 02 06 04 00 3E 00 00 01 80 64
     0x025B: 02 03 05 00 05 80 01 67 02 06 04 00 1B
```