# Event 349

## Metadata

| Field           | Value    |
|-----------------|----------|
| Event Index     | 4/21     |
| Offset          | 0x0145   |
| Data Size       | 64 bytes |
| Calculated Size | 64 bytes |
| Instructions    | 12       |

```
      00 01 02 03 04 05 06 07  08 09 0A 0B 0C 0D 0E 0F
      -- -- -- -- -- -- -- --  -- -- -- -- -- -- -- --
0140:                4A F0 FF  FF 7F 8A 90 0F 01 1C 00       J..........
0150: 80 1E F0 FF FF 7F 66 04  80 8A 90 0F 01 8A 90 0F  ......f.........
0160: 01 73 68 61 30 1C 0C 80  2B 8A 90 0F 01 1A 80 23  .sha0...+......#
0170: 66 04 80 8A 90 0F 01 8A  90 0F 01 73 68 61 31 1C  f..........sha1.
0180: 0C 80 23 21 00                                    ..#!.           
```

## Opcodes

```
  0: 0x0145 [0x4A] LocalPlayer looks at Zurko-Bazurko (ID: 17797258/0x010F908A)
  1: 0x014E [0x1C] WAIT(20* ticks)
  2: 0x0151 [0x1E] EventEntity looks at LocalPlayer and starts talking
  3: 0x0156 [0x66] LOAD_EXT_SCHEDULER_MAIN: Load scheduler "sha0" with entities [Zurko-Bazurko (ID: 17797258/0x010F908A), Zurko-Bazurko (ID: 17797258/0x010F908A)], work=49*
  4: 0x0165 [0x1C] WAIT(120* ticks)
  5: 0x0168 [0x2B] Zurko-Bazurko (ID: 17797258/0x010F908A) [7853*]:
    → "The fate of the world hangs in the balance, understand!? You're to report that the Zurk is on a mission of the most epic-wepic proportions for the good of all mankind.\u0007There is no other option.\u007F1\u0000\u0007"
  6: 0x016F [0x23] WAIT_FOR_DIALOG_INTERACTION
  7: 0x0170 [0x66] LOAD_EXT_SCHEDULER_MAIN: Load scheduler "sha1" with entities [Zurko-Bazurko (ID: 17797258/0x010F908A), Zurko-Bazurko (ID: 17797258/0x010F908A)], work=49*
  8: 0x017F [0x1C] WAIT(120* ticks)
  9: 0x0182 [0x23] WAIT_FOR_DIALOG_INTERACTION
 10: 0x0183 [0x21] END_EVENT
 11: 0x0184 [0x00] END_REQSTACK()
```
