# Event 351

## Metadata

| Field           | Value    |
|-----------------|----------|
| Event Index     | 6/21     |
| Offset          | 0x01A0   |
| Data Size       | 36 bytes |
| Calculated Size | 36 bytes |
| Instructions    | 10       |

```
      00 01 02 03 04 05 06 07  08 09 0A 0B 0C 0D 0E 0F
      -- -- -- -- -- -- -- --  -- -- -- -- -- -- -- --
01A0: 42 4A F0 FF FF 7F 8A 90  0F 01 1C 00 80 1E F0 FF  BJ..............
01B0: FF 7F 2B 8A 90 0F 01 1C  80 23 2B 8A 90 0F 01 1D  ..+......#+.....
01C0: 80 23 21 00                                       .#!.            
```

## Opcodes

```
  0: 0x01A0 [0x42] SET_CLI_EVENT_CANCEL_DATA()
  1: 0x01A1 [0x4A] LocalPlayer looks at Zurko-Bazurko (ID: 17797258/0x010F908A)
  2: 0x01AA [0x1C] WAIT(20* ticks)
  3: 0x01AD [0x1E] EventEntity looks at LocalPlayer and starts talking
  4: 0x01B2 [0x2B] Zurko-Bazurko (ID: 17797258/0x010F908A) [7855*]:
    → "Wh-whatever can this be...!?\u0007From an obsidian-widian darkness flows a malicious outpouring of flavor that assaultarus the tongue with an overpowering sweetness!\u007F1\u0000\u0007"
  5: 0x01B9 [0x23] WAIT_FOR_DIALOG_INTERACTION
  6: 0x01BA [0x2B] Zurko-Bazurko (ID: 17797258/0x010F908A) [7856*]:
    → "Hmph, your naivety amuses me.\u0007No matter how much you whine, the Zurk cannot return what has willingly given-wiven itself up to his soul!\u007F1\u0000\u0007"
  7: 0x01C1 [0x23] WAIT_FOR_DIALOG_INTERACTION
  8: 0x01C2 [0x21] END_EVENT
  9: 0x01C3 [0x00] END_REQSTACK()
```
