# Event 365

## Metadata

| Field           | Value    |
|-----------------|----------|
| Event Index     | 20/21    |
| Offset          | 0x024D   |
| Data Size       | 48 bytes |
| Calculated Size | 48 bytes |
| Instructions    | 12       |

```
      00 01 02 03 04 05 06 07  08 09 0A 0B 0C 0D 0E 0F
      -- -- -- -- -- -- -- --  -- -- -- -- -- -- -- --
0240:                                         4A F0 FF               J..
0250: FF 7F 8A 90 0F 01 1C 00  80 1E F0 FF FF 7F 03 02  ................
0260: 10 24 80 2B 8A 90 0F 01  25 80 23 2B 8A 90 0F 01  .$.+....%.#+....
0270: 26 80 23 2B 8A 90 0F 01  27 80 23 21 00           &.#+....'.#!.   
```

## Opcodes

```
  0: 0x024D [0x4A] LocalPlayer looks at Zurko-Bazurko (ID: 17797258/0x010F908A)
  1: 0x0256 [0x1C] WAIT(20* ticks)
  2: 0x0259 [0x1E] EventEntity looks at LocalPlayer and starts talking
  3: 0x025E [0x03] Work_Zone[2] = 2573*
  4: 0x0263 [0x2B] Zurko-Bazurko (ID: 17797258/0x010F908A) [7951*]:
    → "Never before had the Zurk foughtaru someone worthy enough to receive the mighty benediction by \u0001\u00053\u0002\u0000\u0000\u0000. He shall treat this fortuity with due gravitas.\u007F1\u0000\u0007"
  5: 0x026A [0x23] WAIT_FOR_DIALOG_INTERACTION
  6: 0x026B [0x2B] Zurko-Bazurko (ID: 17797258/0x010F908A) [7952*]:
    → "Do not mishear, for the Zurk has not been deterred in the slightaruest! He shall forge-worge ahead down his own, as you shall do the same with yours.\u007F1\u0000\u0007"
  7: 0x0272 [0x23] WAIT_FOR_DIALOG_INTERACTION
  8: 0x0273 [0x2B] Zurko-Bazurko (ID: 17797258/0x010F908A) [7953*]:
    → "May the runes be with you.\u007F1\u0000\u0007"
  9: 0x027A [0x23] WAIT_FOR_DIALOG_INTERACTION
 10: 0x027B [0x21] END_EVENT
 11: 0x027C [0x00] END_REQSTACK()
```
