# Event 544

## Metadata

| Field           | Value    |
|-----------------|----------|
| Event Index     | 4/7      |
| Offset          | 0x013F   |
| Data Size       | 54 bytes |
| Calculated Size | 54 bytes |
| Instructions    | 12       |

```
      00 01 02 03 04 05 06 07  08 09 0A 0B 0C 0D 0E 0F
      -- -- -- -- -- -- -- --  -- -- -- -- -- -- -- --
0130:                                               1E                 .
0140: F0 FF FF 7F 66 04 80 F8  FF FF 7F F8 FF FF 7F 74  ....f..........t
0150: 6C 6B 31 1D 14 80 23 66  04 80 F8 FF FF 7F F8 FF  lk1...#f........
0160: FF 7F 74 6C 6B 30 1D 15  80 23 1D 16 80 23 03 01  ..tlk0...#...#..
0170: 10 09 80 21 00                                    ...!.           
```

## Opcodes

```
  0: 0x013F [0x1E] EventEntity looks at LocalPlayer and starts talking
  1: 0x0144 [0x66] LOAD_EXT_SCHEDULER_MAIN: Load scheduler "tlk1" with entities [EventEntity, EventEntity], work=0*
  2: 0x0153 [0x1D] PRINT_EVENT_MESSAGE(message_id=8335*)
    → "I'm sorry, but that's all for today. Someone stole my dagger.\u007F1\u0000\u0007"
  3: 0x0156 [0x23] WAIT_FOR_DIALOG_INTERACTION
  4: 0x0157 [0x66] LOAD_EXT_SCHEDULER_MAIN: Load scheduler "tlk0" with entities [EventEntity, EventEntity], work=0*
  5: 0x0166 [0x1D] PRINT_EVENT_MESSAGE(message_id=8336*)
    → "I'm Luthiaque. I travel hither and thither, bringing entertainment everywhere!\u007F1\u0000\u0007"
  6: 0x0169 [0x23] WAIT_FOR_DIALOG_INTERACTION
  7: 0x016A [0x1D] PRINT_EVENT_MESSAGE(message_id=8337*)
    → "Juggling is my specialty, but not mere balls or dishes... No, I juggle daggers!\u007F1\u0000\u0007"
  8: 0x016D [0x23] WAIT_FOR_DIALOG_INTERACTION
  9: 0x016E [0x03] Work_Zone[1] = 1*
 10: 0x0173 [0x21] END_EVENT
 11: 0x0174 [0x00] END_REQSTACK()
```
