# Event 549

## Metadata

| Field           | Value    |
|-----------------|----------|
| Event Index     | 3/7      |
| Offset          | 0x0107   |
| Data Size       | 56 bytes |
| Calculated Size | 56 bytes |
| Instructions    | 11       |

```
      00 01 02 03 04 05 06 07  08 09 0A 0B 0C 0D 0E 0F
      -- -- -- -- -- -- -- --  -- -- -- -- -- -- -- --
0100:                      13  00 00 09 80 02 00 00 09         .........
0110: 80 00 2A 01 66 04 80 F8  FF FF 7F F8 FF FF 7F 74  ..*.f..........t
0120: 68 6B 31 1D 12 80 23 01  3D 01 66 04 80 F8 FF FF  hk1...#.=.f.....
0130: 7F F8 FF FF 7F 74 6C 6B  32 1D 13 80 23 21 00     .....tlk2...#!. 
```

## Opcodes

```
  0: 0x0107 [0x13] ExtData[1]->WorkLocal[0] = rand() % 1*
  1: 0x010C [0x02] IF !(ExtData[1]->WorkLocal[0] == 1*) GOTO 0x012A
  2: 0x0114 [0x66] LOAD_EXT_SCHEDULER_MAIN(work_offset=0*, entity1=EventEntity, entity2=EventEntity, action="thk1")
  3: 0x0123 [0x1D] PRINT_EVENT_MESSAGE(message_id=8333*)
    → "Hmm... Now where did I put it?\u007F1\u0000\u0007"
  4: 0x0126 [0x23] WAIT_FOR_DIALOG_INTERACTION
  5: 0x0127 [0x01] GOTO 0x013D

SUBROUTINE_012A:
  6: 0x012A [0x66] LOAD_EXT_SCHEDULER_MAIN(work_offset=0*, entity1=EventEntity, entity2=EventEntity, action="tlk2")
  7: 0x0139 [0x1D] PRINT_EVENT_MESSAGE(message_id=8334*)
    → "Oh, I'm sorry. I'm looking for something. Come back later.\u007F1\u0000\u0007"
  8: 0x013C [0x23] WAIT_FOR_DIALOG_INTERACTION
  9: 0x013D [0x21] END_EVENT
 10: 0x013E [0x00] END_REQSTACK()
```
