# Event 936

## Metadata

| Field           | Value    |
|-----------------|----------|
| Event Index     | 3/11     |
| Offset          | 0x09B8   |
| Data Size       | 38 bytes |
| Calculated Size | 38 bytes |
| Instructions    | 10       |

```
      00 01 02 03 04 05 06 07  08 09 0A 0B 0C 0D 0E 0F
      -- -- -- -- -- -- -- --  -- -- -- -- -- -- -- --
09B0:                          4A 1F 60 0E 01 F0 FF FF          J.`.....
09C0: 7F 6F 76 F0 FF FF 7F 03  02 10 29 80 2B 1F 60 0E  .ov.......).+.`.
09D0: 01 2A 80 23 2B 1F 60 0E  01 2F 80 23 21 00        .*.#+.`../.#!.  
```

## Opcodes

```
  0: 0x09B8 [0x4A] Amaura (ID: 17719327/0x010E601F) looks at LocalPlayer
  1: 0x09C1 [0x6F] WAIT_FRAME_DELAY: Yield until WaitTime reaches zero
  2: 0x09C2 [0x76] CHECK_ENTITY_RENDER_FLAGS: Wait until LocalPlayer Render.Flags0 and Render.Flags3 conditions are met
  3: 0x09C7 [0x03] Work_Zone[2] = 1061*
  4: 0x09CC [0x2B] Amaura (ID: 17719327/0x010E601F) [13711*]:
    → "<Sigh>...\u0007The main ingredient, \u0001\u00053\u0002\u0000\u0000\u0000, can no longer be found.\u007F1\u0000\u0007"
  5: 0x09D3 [0x23] WAIT_FOR_DIALOG_INTERACTION
  6: 0x09D4 [0x2B] Amaura (ID: 17719327/0x010E601F) [13715*]:
    → "And to think that not a decade ago, the saplings from which the bulbs could be obtained were still as common as those pesky little hares out in Ronfaure...\u007F1\u0000\u0007"
  7: 0x09DB [0x23] WAIT_FOR_DIALOG_INTERACTION
  8: 0x09DC [0x21] END_EVENT
  9: 0x09DD [0x00] END_REQSTACK()
```
