# Event 940

## Metadata

| Field           | Value    |
|-----------------|----------|
| Event Index     | 7/11     |
| Offset          | 0x1615   |
| Data Size       | 33 bytes |
| Calculated Size | 33 bytes |
| Instructions    | 9        |

```
      00 01 02 03 04 05 06 07  08 09 0A 0B 0C 0D 0E 0F
      -- -- -- -- -- -- -- --  -- -- -- -- -- -- -- --
1610:                4A 1F 60  0E 01 F0 FF FF 7F 6F 76       J.`......ov
1620: F0 FF FF 7F 2B 1F 60 0E  01 76 80 23 2B 1F 60 0E  ....+.`..v.#+.`.
1630: 01 77 80 23 21 00                                 .w.#!.          
```

## Opcodes

```
  0: 0x1615 [0x4A] Amaura (ID: 17719327/0x010E601F) looks at LocalPlayer
  1: 0x161E [0x6F] WAIT_FRAME_DELAY: Yield until WaitTime reaches zero
  2: 0x161F [0x76] CHECK_ENTITY_RENDER_FLAGS: Wait until LocalPlayer Render.Flags0 and Render.Flags3 conditions are met
  3: 0x1624 [0x2B] Amaura (ID: 17719327/0x010E601F) [13744*]:
    → "Ye're Lilisette's friend, aren't ye? That little ball of energy never could sit still for long...\u007F1\u0000\u0007"
  4: 0x162B [0x23] WAIT_FOR_DIALOG_INTERACTION
  5: 0x162C [0x2B] Amaura (ID: 17719327/0x010E601F) [13745*]:
    → "The medicine will be a while yet. How about doin' some household chores for old Amaura in the meantime?\u007F1\u0000\u0007"
  6: 0x1633 [0x23] WAIT_FOR_DIALOG_INTERACTION
  7: 0x1634 [0x21] END_EVENT
  8: 0x1635 [0x00] END_REQSTACK()
```
