# Event 65535

## Metadata

| Field           | Value     |
|-----------------|-----------|
| Event Index     | 8/30      |
| Offset          | 0x0010    |
| Data Size       | 106 bytes |
| Calculated Size | 106 bytes |
| Instructions    | 10        |

```
      00 01 02 03 04 05 06 07  08 09 0A 0B 0C 0D 0E 0F
      -- -- -- -- -- -- -- --  -- -- -- -- -- -- -- --
0010: 1C 02 80 52 03 80 F8 FF  FF 7F F8 FF FF 7F 65 78  ...R..........ex
0020: 30 31 45 03 80 F8 FF FF  7F F8 FF FF 7F 65 78 61  01E..........exa
0030: 32 04 80 1C 02 80 52 03  80 F8 FF FF 7F F8 FF FF  2.....R.........
0040: 7F 65 78 61 32 45 03 80  F8 FF FF 7F F8 FF FF 7F  .exa2E..........
0050: 65 78 30 34 04 80 1C 02  80 52 03 80 F8 FF FF 7F  ex04.....R......
0060: F8 FF FF 7F 65 78 30 34  45 03 80 F8 FF FF 7F F8  ....ex04E.......
0070: FF FF 7F 65 78 61 33 04  80 00                    ...exa3...      
```

## Opcodes

```
  0: 0x0010 [0x1C] WAIT(60* ticks)
  1: 0x0013 [0x52] END_LOAD_SCHEDULER: End scheduler "ex01" with entities [EventEntity, EventEntity], work=738*
  2: 0x0022 [0x45] LOAD_SCHEDULED_TASK(work_offset1=738*, entity1=EventEntity, entity2=EventEntity, scheduler_id="exa2", work_offset2=0*)
  3: 0x0033 [0x1C] WAIT(60* ticks)
  4: 0x0036 [0x52] END_LOAD_SCHEDULER: End scheduler "exa2" with entities [EventEntity, EventEntity], work=738*
  5: 0x0045 [0x45] LOAD_SCHEDULED_TASK(work_offset1=738*, entity1=EventEntity, entity2=EventEntity, scheduler_id="ex04", work_offset2=0*)
  6: 0x0056 [0x1C] WAIT(60* ticks)
  7: 0x0059 [0x52] END_LOAD_SCHEDULER: End scheduler "ex04" with entities [EventEntity, EventEntity], work=738*
  8: 0x0068 [0x45] LOAD_SCHEDULED_TASK(work_offset1=738*, entity1=EventEntity, entity2=EventEntity, scheduler_id="exa3", work_offset2=0*)
  9: 0x0079 [0x00] END_REQSTACK()
```
