# Event 65535

## Metadata

| Field           | Value    |
|-----------------|----------|
| Event Index     | 14/17    |
| Offset          | 0x008C   |
| Data Size       | 62 bytes |
| Calculated Size | 62 bytes |
| Instructions    | 10       |

```
      00 01 02 03 04 05 06 07  08 09 0A 0B 0C 0D 0E 0F
      -- -- -- -- -- -- -- --  -- -- -- -- -- -- -- --
0080:                                      5B 13 80 75              [..u
0090: 21 08 01 75 21 08 01 75  64 65 31 53 75 21 08 01  !..u!..ude1Su!..
00A0: 75 21 08 01 75 64 65 31  32 08 80 1F 00 14 80 15  u!..ude12.......
00B0: 80 12 80 1F 01 1F 00 16  80 17 80 12 80 1F 01 1F  ................
00C0: 00 18 80 19 80 12 80 1F  01 00                    ..........      
```

## Opcodes

```
  0: 0x008C [0x5B] LOAD_EXT_SCHEDULER(work_offset=244*, entity1=Zeid (ID: 17310069/0x01082175), entity2=Zeid (ID: 17310069/0x01082175), action="ude1")
  1: 0x009B [0x53] WAIT_SCHEDULER_TASK(entity1=Zeid (ID: 17310069/0x01082175), entity2=Zeid (ID: 17310069/0x01082175), action_id="ude1")
  2: 0x00A8 [0x32] ExtData[1]->MainSpeed = 10* * 0.1
  3: 0x00AB [0x1F] MOVE_ENTITY: EventEntity moves to X=-2.572*, Z=-614.037*, Y=-54.038*
  4: 0x00B3 [0x1F] MOVE_ENTITY: Update entity position (mode=1)
  5: 0x00B5 [0x1F] MOVE_ENTITY: EventEntity moves to X=-3.971*, Z=-611.087*, Y=-54.038*
  6: 0x00BD [0x1F] MOVE_ENTITY: Update entity position (mode=1)
  7: 0x00BF [0x1F] MOVE_ENTITY: EventEntity moves to X=-7.072*, Z=-608.763*, Y=-54.038*
  8: 0x00C7 [0x1F] MOVE_ENTITY: Update entity position (mode=1)
  9: 0x00C9 [0x00] END_REQSTACK()
```
