# Event 65535

## Metadata

| Field           | Value    |
|-----------------|----------|
| Event Index     | 4/16     |
| Offset          | 0x0047   |
| Data Size       | 64 bytes |
| Calculated Size | 64 bytes |
| Instructions    | 14       |

```
      00 01 02 03 04 05 06 07  08 09 0A 0B 0C 0D 0E 0F
      -- -- -- -- -- -- -- --  -- -- -- -- -- -- -- --
0040:                      1C  09 80 32 0A 80 1F 00 0B         ...2.....
0050: 80 0C 80 0D 80 1F 01 1F  00 0E 80 0F 80 10 80 1F  ................
0060: 01 1F 00 11 80 12 80 10  80 1F 01 6F 1E 9E F3 05  ...........o....
0070: 01 6F 76 F8 FF FF 7F 5B  07 80 F8 FF FF 7F F8 FF  .ov....[........
0080: FF 7F 74 6C 6B 30 00                              ..tlk0.         
```

## Opcodes

```
  0: 0x0047 [0x1C] WAIT(140* ticks)
  1: 0x004A [0x32] ExtData[1]->MainSpeed = 35* * 0.1
  2: 0x004D [0x1F] MOVE_ENTITY: EventEntity moves to X=-39.477*, Z=131.032*, Y=-15.800*
  3: 0x0055 [0x1F] MOVE_ENTITY: Update entity position (mode=1)
  4: 0x0057 [0x1F] MOVE_ENTITY: EventEntity moves to X=-37.378*, Z=130.872*, Y=-16.000*
  5: 0x005F [0x1F] MOVE_ENTITY: Update entity position (mode=1)
  6: 0x0061 [0x1F] MOVE_ENTITY: EventEntity moves to X=-36.577*, Z=131.647*, Y=-16.000*
  7: 0x0069 [0x1F] MOVE_ENTITY: Update entity position (mode=1)
  8: 0x006B [0x6F] WAIT_FRAME_DELAY: Yield until WaitTime reaches zero
  9: 0x006C [0x1E] EventEntity looks at Star Sibyl (ID: 17167262/0x0105F39E) and starts talking
 10: 0x0071 [0x6F] WAIT_FRAME_DELAY: Yield until WaitTime reaches zero
 11: 0x0072 [0x76] CHECK_ENTITY_RENDER_FLAGS: Wait until EventEntity Render.Flags0 and Render.Flags3 conditions are met
 12: 0x0077 [0x5B] LOAD_EXT_SCHEDULER(work_offset=85*, entity1=EventEntity, entity2=EventEntity, action="tlk0")
 13: 0x0086 [0x00] END_REQSTACK()
```
