# Event 5051

## Metadata

| Field           | Value    |
|-----------------|----------|
| Event Index     | 7/14     |
| Offset          | 0x0080   |
| Data Size       | 43 bytes |
| Calculated Size | 43 bytes |
| Instructions    | 11       |

```
      00 01 02 03 04 05 06 07  08 09 0A 0B 0C 0D 0E 0F
      -- -- -- -- -- -- -- --  -- -- -- -- -- -- -- --
0080: 1E F0 FF FF 7F 1C 01 80  66 00 80 F8 FF FF 7F F8  ........f.......
0090: FF FF 7F 74 6C 6B 30 1D  06 80 23 03 02 10 07 80  ...tlk0...#.....
00A0: 03 03 10 08 80 1D 09 80  23 21 00                 ........#!.     
```

## Opcodes

```
  0: 0x0080 [0x1E] EventEntity looks at LocalPlayer and starts talking
  1: 0x0085 [0x1C] WAIT(30* ticks)
  2: 0x0088 [0x66] LOAD_EXT_SCHEDULER_MAIN(work_offset=0*, entity1=EventEntity, entity2=EventEntity, action="tlk0")
  3: 0x0097 [0x1D] PRINT_EVENT_MESSAGE(message_id=10160*)
    → "Maester Margret has pledged her support to your cause.\u007F1\u0000\u0007"
  4: 0x009A [0x23] WAIT_FOR_DIALOG_INTERACTION
  5: 0x009B [0x03] Work_Zone[2] = 4382*
  6: 0x00A0 [0x03] Work_Zone[3] = 637*
  7: 0x00A5 [0x1D] PRINT_EVENT_MESSAGE(message_id=10161*)
    → "Bring us \u0001\u0001\u0001 \u0001\u0005$\u0002\u0000\u0000\u0000 and \u0001\u0001\u0001 \u0001\u0005$\u0002\u0001\u0000\u0000 that she might continue her pursuits.\u007F1\u0000\u0007"
  8: 0x00A8 [0x23] WAIT_FOR_DIALOG_INTERACTION
  9: 0x00A9 [0x21] END_EVENT
 10: 0x00AA [0x00] END_REQSTACK()
```
