# Event 101

## Metadata

| Field           | Value    |
|-----------------|----------|
| Event Index     | 13/16    |
| Offset          | 0x00D9   |
| Data Size       | 33 bytes |
| Calculated Size | 33 bytes |
| Instructions    | 12       |

```
      00 01 02 03 04 05 06 07  08 09 0A 0B 0C 0D 0E 0F
      -- -- -- -- -- -- -- --  -- -- -- -- -- -- -- --
00D0:                             1E F0 FF FF 7F 6F 70           .....op
00E0: 29 08 98 10 0F 01 01 1D  09 80 23 1D 0A 80 23 29  ).........#...#)
00F0: 08 98 10 0F 01 02 20 00  21 00                    ...... .!.      
```

## Opcodes

```
  0: 0x00D9 [0x1E] EventEntity looks at LocalPlayer and starts talking
  1: 0x00DE [0x6F] WAIT_FRAME_DELAY: Yield until WaitTime reaches zero
  2: 0x00DF [0x70] WAIT_ENTITY_RENDER_FLAG: Wait while EventEntity->Render.Flags3 bit 2 is set (cancel turn if not)
  3: 0x00E0 [0x29] REQ_SET_WAIT(priority=0x08, entity_id=Varun (ID: 17764504/0x010F1098), tag_num=0x01)
  4: 0x00E7 [0x1D] PRINT_EVENT_MESSAGE(message_id=7648*)
    → "I spread the word that I'd pay a reward to the one who finds my \u0001\u0005#\u0002\u0001\u0000\u0000, but didn't get a single response.\u007F1\u0000\u0007"
  5: 0x00EA [0x23] WAIT_FOR_DIALOG_INTERACTION
  6: 0x00EB [0x1D] PRINT_EVENT_MESSAGE(message_id=7649*)
    → "Guess I'll have to go back to the depths of the Palborough Mines and dig up another one...but that place is so dangerous, and...how can I show my face in Bastok!?\u007F1\u0000\u0007"
  7: 0x00EE [0x23] WAIT_FOR_DIALOG_INTERACTION
  8: 0x00EF [0x29] REQ_SET_WAIT(priority=0x08, entity_id=Varun (ID: 17764504/0x010F1098), tag_num=0x02)
  9: 0x00F6 [0x20] SET_CLI_EVENT_UC_FLAG: Unlock player control
 10: 0x00F8 [0x21] END_EVENT
 11: 0x00F9 [0x00] END_REQSTACK()
```
