# Event 432

## Metadata

| Field           | Value    |
|-----------------|----------|
| Event Index     | 9/16     |
| Offset          | 0x005F   |
| Data Size       | 43 bytes |
| Calculated Size | 43 bytes |
| Instructions    | 12       |

```
      00 01 02 03 04 05 06 07  08 09 0A 0B 0C 0D 0E 0F
      -- -- -- -- -- -- -- --  -- -- -- -- -- -- -- --
0050:                                               1E                 .
0060: F0 FF FF 7F 6F 70 29 08  98 10 0F 01 03 1D 02 80  ....op).........
0070: 23 29 08 98 10 0F 01 04  29 08 98 10 0F 01 05 29  #)......)......)
0080: 08 98 10 0F 01 06 20 00  21 00                    ...... .!.      
```

## Opcodes

```
  0: 0x005F [0x1E] EventEntity looks at LocalPlayer and starts talking
  1: 0x0064 [0x6F] WAIT_FRAME_DELAY: Yield until WaitTime reaches zero
  2: 0x0065 [0x70] WAIT_ENTITY_RENDER_FLAG: Wait while EventEntity->Render.Flags3 bit 2 is set (cancel turn if not)
  3: 0x0066 [0x29] REQ_SET_WAIT(priority=0x08, entity_id=Varun (ID: 17764504/0x010F1098), tag_num=0x03)
  4: 0x006D [0x1D] PRINT_EVENT_MESSAGE(message_id=8540*)
    → "Where did I drop it?\u0007Damn, that's going to be impossible to find, too! What a catastrophe...!\u007F1\u0000\u0007"
  5: 0x0070 [0x23] WAIT_FOR_DIALOG_INTERACTION
  6: 0x0071 [0x29] REQ_SET_WAIT(priority=0x08, entity_id=Varun (ID: 17764504/0x010F1098), tag_num=0x04)
  7: 0x0078 [0x29] REQ_SET_WAIT(priority=0x08, entity_id=Varun (ID: 17764504/0x010F1098), tag_num=0x05)
  8: 0x007F [0x29] REQ_SET_WAIT(priority=0x08, entity_id=Varun (ID: 17764504/0x010F1098), tag_num=0x06)
  9: 0x0086 [0x20] SET_CLI_EVENT_UC_FLAG: Unlock player control
 10: 0x0088 [0x21] END_EVENT
 11: 0x0089 [0x00] END_REQSTACK()
```
