# Event 65535

## Metadata

| Field           | Value    |
|-----------------|----------|
| Event Index     | 11/16    |
| Offset          | 0x00A3   |
| Data Size       | 27 bytes |
| Calculated Size | 27 bytes |
| Instructions    | 9        |

```
      00 01 02 03 04 05 06 07  08 09 0A 0B 0C 0D 0E 0F
      -- -- -- -- -- -- -- --  -- -- -- -- -- -- -- --
00A0:          29 08 98 10 0F  01 01 1D 03 80 23 1D 04     ).........#..
00B0: 80 23 1D 05 80 23 29 08  98 10 0F 01 02 00        .#...#).......  
```

## Opcodes

```
  0: 0x00A3 [0x29] REQ_SET_WAIT(priority=0x08, entity_id=Varun (ID: 17764504/0x010F1098), tag_num=0x01)
  1: 0x00AA [0x1D] PRINT_EVENT_MESSAGE(message_id=7642*)
    → "Ahhh...\u0007I traveled all the way here from Bastok, but I lost the stone that was the purpose of my journey.\u007F1\u0000\u0007"
  2: 0x00AD [0x23] WAIT_FOR_DIALOG_INTERACTION
  3: 0x00AE [0x1D] PRINT_EVENT_MESSAGE(message_id=7643*)
    → "Hm?\u0007What kind of stone did I lose?\u007F1\u0000\u0007"
  4: 0x00B1 [0x23] WAIT_FOR_DIALOG_INTERACTION
  5: 0x00B2 [0x1D] PRINT_EVENT_MESSAGE(message_id=7644*)
    → "It was a rock that we found in the Palborough Mines, north of Bastok. It had small traces of mythril in it.\u007F1\u0000\u0007"
  6: 0x00B5 [0x23] WAIT_FOR_DIALOG_INTERACTION
  7: 0x00B6 [0x29] REQ_SET_WAIT(priority=0x08, entity_id=Varun (ID: 17764504/0x010F1098), tag_num=0x02)
  8: 0x00BD [0x00] END_REQSTACK()
```
