# 17383471 - Door

## Common Data

| Field            | Value                |
|------------------|----------------------|
| Zone             | Qulun Dome (ID: 148) |
| Block Size       | 288 bytes            |
| Total Events     | 3                    |
| References Count | 9                    |

## List of Events

| Event ID              | Entrypoint   |   Size |   Instructions |
|-----------------------|--------------|--------|----------------|
| [65535](#event-65535) | 0x0000       |      1 |              1 |
| [50](#event-50)       | 0x0001       |     98 |             26 |
| [51](#event-51)       | 0x0063       |    125 |             32 |

## DAT References (imed_data)

|   Index | Hex Value   |   Dec Value |
|---------|-------------|-------------|
|       0 | 0x1C42      |        7234 |
|       1 | 0x0001      |           1 |
|       2 | 0x0000      |           0 |
|       3 | 0x002D      |          45 |
|       4 | 0x002E      |          46 |
|       5 | 0x002F      |          47 |
|       6 | 0x1C3D      |        7229 |
|       7 | 0x0078      |         120 |
|       8 | 0x1194      |        4500 |

## String References

- **7229**: The $3, $3, and $3 shine brightly!
- **7234**: Investigate the door? [Yes./No.]

## Events

### Event 65535

#### Metadata

| Field        | Value   |
|--------------|---------|
| Entrypoint   | 0x0000  |
| Data Size    | 1 bytes |
| Instructions | 1       |

```
      00 01 02 03 04 05 06 07  08 09 0A 0B 0C 0D 0E 0F
      -- -- -- -- -- -- -- --  -- -- -- -- -- -- -- --
0000: 00                                                .               
```

#### Opcodes

```
  0: 0x0000 [0x00] END_REQSTACK()
```

### Event 50

#### Metadata

| Field        | Value    |
|--------------|----------|
| Entrypoint   | 0x0001   |
| Data Size    | 98 bytes |
| Instructions | 26       |

```
      00 01 02 03 04 05 06 07  08 09 0A 0B 0C 0D 0E 0F
      -- -- -- -- -- -- -- --  -- -- -- -- -- -- -- --
0000:    20 01 24 00 80 01 80  02 80 25 02 00 10 02 80    .$......%.....
0010: 00 54 00 42 43 00 43 01  1A C5 00 03 02 10 03 80  .T.BC.C.........
0020: 03 03 10 04 80 03 04 10  05 80 48 06 80 23 4A F0  ..........H..#J.
0030: FF FF 7F F8 FF FF 7F 4C  1C 07 80 29 02 F0 FF FF  .......L...)....
0040: 7F 0B 4D 29 02 F0 FF FF  7F 0C 29 02 F0 FF FF 7F  ..M)......).....
0050: 0D 01 5F 00 02 00 10 01  80 00 5F 00 01 5F 00 20  .._......._.._. 
0060: 00 21 00                                          .!.             
```

#### Opcodes

```
  0: 0x0001 [0x20] SET_CLI_EVENT_UC_FLAG: Lock player control
  1: 0x0003 [0x24] CREATE_DIALOG(message_id=7234*, default_option=1*, option_flags=0*)
    → "Investigate the door? [Yes./No.]"
  2: 0x000A [0x25] WAIT_DIALOG_SELECT()
  3: 0x000B [0x02] IF !(Work_Zone[0] == 0*) GOTO 0x0054
  4: 0x0013 [0x42] SET_CLI_EVENT_CANCEL_DATA()
  5: 0x0014 [0x43] SEND_EVENT_UPDATE: Send pending tag to server (packet 0x005B)
  6: 0x0016 [0x43] SEND_EVENT_UPDATE: Check pending flag (skip if not pending)
  7: 0x0018 [0x1A] CALL_SUBROUTINE(address=0x00C5)
  8: 0x001B [0x03] Work_Zone[2] = 45*
  9: 0x0020 [0x03] Work_Zone[3] = 46*
 10: 0x0025 [0x03] Work_Zone[4] = 47*
 11: 0x002A [0x48] [System] [7229*]:
    → "The $3, $3, and $3 shine brightly!"
 12: 0x002D [0x23] WAIT_FOR_DIALOG_INTERACTION
 13: 0x002E [0x4A] LocalPlayer looks at EventEntity
 14: 0x0037 [0x4C] EventEntity->StatusEvent = 8 // Open door
 15: 0x0038 [0x1C] WAIT(120* ticks)
 16: 0x003B [0x29] REQ_SET_WAIT(priority=0x02, entity_id=LocalPlayer, tag_num=0x0B)
 17: 0x0042 [0x4D] EventEntity->StatusEvent = 9 // Close door
 18: 0x0043 [0x29] REQ_SET_WAIT(priority=0x02, entity_id=LocalPlayer, tag_num=0x0C)
 19: 0x004A [0x29] REQ_SET_WAIT(priority=0x02, entity_id=LocalPlayer, tag_num=0x0D)
 20: 0x0051 [0x01] GOTO 0x005F
 21: 0x0054 [0x02] IF !(Work_Zone[0] == 1*) GOTO 0x005F
 22: 0x005C [0x01] GOTO 0x005F

SUBROUTINE_005F:
 23: 0x005F [0x20] SET_CLI_EVENT_UC_FLAG: Unlock player control
 24: 0x0061 [0x21] END_EVENT
 25: 0x0062 [0x00] END_REQSTACK()
```

### Event 51

#### Metadata

| Field        | Value     |
|--------------|-----------|
| Entrypoint   | 0x0063    |
| Data Size    | 125 bytes |
| Instructions | 32        |

```
      00 01 02 03 04 05 06 07  08 09 0A 0B 0C 0D 0E 0F
      -- -- -- -- -- -- -- --  -- -- -- -- -- -- -- --
0060:          20 01 24 00 80  01 80 02 80 25 02 00 10      .$......%...
0070: 02 80 00 B6 00 42 43 00  43 01 1A C5 00 03 02 10  .....BC.C.......
0080: 03 80 03 03 10 04 80 03  04 10 05 80 48 06 80 23  ............H..#
0090: 4A F0 FF FF 7F F8 FF FF  7F 4C 1C 07 80 29 02 F0  J........L...)..
00A0: FF FF 7F 0F 4D 29 02 F0  FF FF 7F 10 29 02 F0 FF  ....M)......)...
00B0: FF 7F 11 01 C1 00 02 00  10 01 80 00 C1 00 01 C1  ................
00C0: 00 20 00 21 00 65 00 00  F8 FF FF 7F F0 FF FF 7F  . .!.e..........
00D0: 02 00 00 08 80 02 DF 00  03 01 10 01 80 21 00 1B  .............!..
```

#### Opcodes

```
  0: 0x0063 [0x20] SET_CLI_EVENT_UC_FLAG: Lock player control
  1: 0x0065 [0x24] CREATE_DIALOG(message_id=7234*, default_option=1*, option_flags=0*)
    → "Investigate the door? [Yes./No.]"
  2: 0x006C [0x25] WAIT_DIALOG_SELECT()
  3: 0x006D [0x02] IF !(Work_Zone[0] == 0*) GOTO 0x00B6
  4: 0x0075 [0x42] SET_CLI_EVENT_CANCEL_DATA()
  5: 0x0076 [0x43] SEND_EVENT_UPDATE: Send pending tag to server (packet 0x005B)
  6: 0x0078 [0x43] SEND_EVENT_UPDATE: Check pending flag (skip if not pending)
  7: 0x007A [0x1A] CALL_SUBROUTINE(address=0x00C5)
  8: 0x007D [0x03] Work_Zone[2] = 45*
  9: 0x0082 [0x03] Work_Zone[3] = 46*
 10: 0x0087 [0x03] Work_Zone[4] = 47*
 11: 0x008C [0x48] [System] [7229*]:
    → "The $3, $3, and $3 shine brightly!"
 12: 0x008F [0x23] WAIT_FOR_DIALOG_INTERACTION
 13: 0x0090 [0x4A] LocalPlayer looks at EventEntity
 14: 0x0099 [0x4C] EventEntity->StatusEvent = 8 // Open door
 15: 0x009A [0x1C] WAIT(120* ticks)
 16: 0x009D [0x29] REQ_SET_WAIT(priority=0x02, entity_id=LocalPlayer, tag_num=0x0F)
 17: 0x00A4 [0x4D] EventEntity->StatusEvent = 9 // Close door
 18: 0x00A5 [0x29] REQ_SET_WAIT(priority=0x02, entity_id=LocalPlayer, tag_num=0x10)
 19: 0x00AC [0x29] REQ_SET_WAIT(priority=0x02, entity_id=LocalPlayer, tag_num=0x11)
 20: 0x00B3 [0x01] GOTO 0x00C1
 21: 0x00B6 [0x02] IF !(Work_Zone[0] == 1*) GOTO 0x00C1
 22: 0x00BE [0x01] GOTO 0x00C1

SUBROUTINE_00C1:
 23: 0x00C1 [0x20] SET_CLI_EVENT_UC_FLAG: Unlock player control
 24: 0x00C3 [0x21] END_EVENT
 25: 0x00C4 [0x00] END_REQSTACK()

SUBROUTINE_00C5:
 26: 0x00C5 [0x65] CALCULATE_3D_DISTANCE(result=ExtData[1]->WorkLocal[0], entity1=EventEntity, entity2=LocalPlayer)
 27: 0x00D0 [0x02] IF !(ExtData[1]->WorkLocal[0] <= 4500*) GOTO 0x00DF
 28: 0x00D8 [0x03] Work_Zone[1] = 1*
 29: 0x00DD [0x21] END_EVENT
 30: 0x00DE [0x00] END_REQSTACK()
 31: 0x00DF [0x1B] RETURN
```
