# 0x7FFFFFF0 - Zone Events

## Common Data

| Field            | Value                |
|------------------|----------------------|
| Zone             | Qulun Dome (ID: 148) |
| Block Size       | 31484 bytes          |
| Total Events     | 18                   |
| References Count | 553                  |

## List of Events

| Event ID                 | Entrypoint   |   Size |   Instructions |
|--------------------------|--------------|--------|----------------|
| [65535](#event-65535)    | 0x0000       |      1 |              1 |
| [65534](#event-65534)    | 0x0001       |      1 |              1 |
| [0](#event-0)            | 0x0002       |   2418 |            315 |
| [60](#event-60)          | 0x0974       |   1179 |            149 |
| [61](#event-61)          | 0x0E0F       |    442 |             57 |
| [62](#event-62)          | 0x0FC9       |    303 |             34 |
| [63](#event-63)          | 0x10F8       |    746 |             91 |
| [64](#event-64)          | 0x13E2       |   1003 |            125 |
| [65](#event-65)          | 0x17CD       |    666 |             81 |
| [67](#event-67)          | 0x1A67       |  22315 |           3835 |
| [65535.1](#event-655351) | 0x7192       |     17 |              5 |
| [65535.2](#event-655352) | 0x71A3       |     14 |              4 |
| [65535.3](#event-655353) | 0x71B1       |     11 |              3 |
| [65535.4](#event-655354) | 0x71BC       |     13 |              3 |
| [65535.5](#event-655355) | 0x71C9       |     14 |              4 |
| [65535.6](#event-655356) | 0x71D7       |     14 |              4 |
| [65535.7](#event-655357) | 0x71E5       |     14 |              4 |
| [65535.8](#event-655358) | 0x71F3       |     13 |              3 |

## DAT References (imed_data)

|   Index | Hex Value   |   Dec Value |
|---------|-------------|-------------|
|       0 | 0x0000      |           0 |
|       1 | 0x003C      |          60 |
|       2 | 0x0005      |           5 |
|       3 | 0x00C8      |         200 |
|       4 | 0x00C9      |         201 |
|       5 | 0x007F      |         127 |
|       6 | 0x0001      |           1 |
|       7 | 0x007B      |         123 |
|       8 | 0x0013      |          19 |
|       9 | 0x00EA      |         234 |
|      10 | 0x0007      |           7 |
|      11 | 0x0030      |          48 |
|      12 | 0x00B4      |         180 |
|      13 | 0x1C43      |        7235 |
|      14 | 0x1C44      |        7236 |
|      15 | 0x0028      |          40 |
|      16 | 0x1C45      |        7237 |
|      17 | 0x1C46      |        7238 |
|      18 | 0x005A      |          90 |
|      19 | 0x1C47      |        7239 |
|      20 | 0x1C48      |        7240 |
|      21 | 0x1C49      |        7241 |
|      22 | 0x0093      |         147 |
|      23 | 0x0078      |         120 |
|      24 | 0x1C4A      |        7242 |
|      25 | 0x0014      |          20 |
|      26 | 0x1C4B      |        7243 |
|      27 | 0x0096      |         150 |
|      28 | 0x1C4C      |        7244 |
|      29 | 0x1C4D      |        7245 |
|      30 | 0x1C4E      |        7246 |
|      31 | 0x0041      |          65 |
|      32 | 0x0070      |         112 |
|      33 | 0x000F      |          15 |
|      34 | 0x000C      |          12 |
|      35 | 0x003F      |          63 |
|      36 | 0x1C4F      |        7247 |
|      37 | 0x1C50      |        7248 |
|      38 | 0x1C51      |        7249 |
|      39 | 0x1C52      |        7250 |
|      40 | 0x1C53      |        7251 |
|      41 | 0x0012      |          18 |
|      42 | 0x1C54      |        7252 |
|      43 | 0x1C55      |        7253 |
|      44 | 0x1C56      |        7254 |
|      45 | 0x1C57      |        7255 |
|      46 | 0x1C58      |        7256 |
|      47 | 0x1C59      |        7257 |
|      48 | 0x002D      |          45 |
|      49 | 0x00F0      |         240 |
|      50 | 0x0094      |         148 |
|      51 | 0x2587      |        9607 |
|      52 | 0xFFFEB9BE  |  4294883774 |
|      53 | 0x5FAA      |       24490 |
|      54 | 0x0528      |        1320 |
|      55 | 0x000D      |          13 |
|      56 | 0x2E89      |       11913 |
|      57 | 0xFFFEC1EE  |  4294885870 |
|      58 | 0x6551      |       25937 |
|      59 | 0x1C5B      |        7259 |
|      60 | 0x0060      |          96 |
|      61 | 0x1C5C      |        7260 |
|      62 | 0x000A      |          10 |
|      63 | 0x00F8      |         248 |
|      64 | 0x0079      |         121 |
|      65 | 0x1C5D      |        7261 |
|      66 | 0x001E      |          30 |
|      67 | 0x1C5E      |        7262 |
|      68 | 0x1C5F      |        7263 |
|      69 | 0x1C60      |        7264 |
|      70 | 0x1C61      |        7265 |
|      71 | 0x005F      |          95 |
|      72 | 0x1C62      |        7266 |
|      73 | 0x1C63      |        7267 |
|      74 | 0x1C64      |        7268 |
|      75 | 0x1C65      |        7269 |
|      76 | 0x00A3      |         163 |
|      77 | 0x2573      |        9587 |
|      78 | 0xF0C7      |       61639 |
|      79 | 0x5C92      |       23698 |
|      80 | 0x0052      |          82 |
|      81 | 0x2F3B      |       12091 |
|      82 | 0xEF8A      |       61322 |
|      83 | 0x5CDF      |       23775 |
|      84 | 0x1CD0      |        7376 |
|      85 | 0x1CD1      |        7377 |
|      86 | 0x1CD2      |        7378 |
|      87 | 0x00E1      |         225 |
|      88 | 0x1CD3      |        7379 |
|      89 | 0x1CD4      |        7380 |
|      90 | 0x1CD5      |        7381 |
|      91 | 0x1CD6      |        7382 |
|      92 | 0x1CD7      |        7383 |
|      93 | 0x1CD8      |        7384 |
|      94 | 0x1CD9      |        7385 |
|      95 | 0x1CDA      |        7386 |
|      96 | 0x1CDB      |        7387 |
|      97 | 0x1CDC      |        7388 |
|      98 | 0x1CDD      |        7389 |
|      99 | 0x1CDE      |        7390 |
|     100 | 0x1CDF      |        7391 |
|     101 | 0x0A31      |        2609 |
|     102 | 0x1CE0      |        7392 |
|     103 | 0x1CE1      |        7393 |
|     104 | 0x1CE2      |        7394 |
|     105 | 0x1CE3      |        7395 |
|     106 | 0x1CE4      |        7396 |
|     107 | 0x1CE5      |        7397 |
|     108 | 0x1CE6      |        7398 |
|     109 | 0x1CE7      |        7399 |
|     110 | 0x2C23      |       11299 |
|     111 | 0xF082      |       61570 |
|     112 | 0x5C9D      |       23709 |
|     113 | 0x0050      |          80 |
|     114 | 0x1CE8      |        7400 |
|     115 | 0x1CE9      |        7401 |
|     116 | 0x1CEA      |        7402 |
|     117 | 0x1CEB      |        7403 |
|     118 | 0x1CEC      |        7404 |
|     119 | 0x1CED      |        7405 |
|     120 | 0x26CD      |        9933 |
|     121 | 0xFFFF3B79  |  4294916985 |
|     122 | 0x63C7      |       25543 |
|     123 | 0x0333      |         819 |
|     124 | 0x0027      |          39 |
|     125 | 0x1CF0      |        7408 |
|     126 | 0x0080      |         128 |
|     127 | 0x1CF1      |        7409 |
|     128 | 0x0032      |          50 |
|     129 | 0x00A1      |         161 |
|     130 | 0x0006      |           6 |
|     131 | 0x1CF2      |        7410 |
|     132 | 0x2AED      |       10989 |
|     133 | 0xFFFF4276  |  4294918774 |
|     134 | 0x63B0      |       25520 |
|     135 | 0x00E3      |         227 |
|     136 | 0x1CF3      |        7411 |
|     137 | 0x1CF4      |        7412 |
|     138 | 0x1CF5      |        7413 |
|     139 | 0x1CFB      |        7419 |
|     140 | 0x1CF6      |        7414 |
|     141 | 0x1CF7      |        7415 |
|     142 | 0x1CF8      |        7416 |
|     143 | 0x1CF9      |        7417 |
|     144 | 0x1CFA      |        7418 |
|     145 | 0x009D      |         157 |
|     146 | 0x26FD      |        9981 |
|     147 | 0xFFFF401F  |  4294918175 |
|     148 | 0x63B8      |       25528 |
|     149 | 0x0326      |         806 |
|     150 | 0x2895      |       10389 |
|     151 | 0xFFFF4428  |  4294919208 |
|     152 | 0x6390      |       25488 |
|     153 | 0x1CFC      |        7420 |
|     154 | 0x1CFD      |        7421 |
|     155 | 0x1CFE      |        7422 |
|     156 | 0x1CFF      |        7423 |
|     157 | 0x1D00      |        7424 |
|     158 | 0x04CB      |        1227 |
|     159 | 0x1D01      |        7425 |
|     160 | 0x1D02      |        7426 |
|     161 | 0x1D03      |        7427 |
|     162 | 0x1D04      |        7428 |
|     163 | 0x1D05      |        7429 |
|     164 | 0x1D06      |        7430 |
|     165 | 0x0830      |        2096 |
|     166 | 0x1D07      |        7431 |
|     167 | 0x03FC      |        1020 |
|     168 | 0x1D08      |        7432 |
|     169 | 0x1D09      |        7433 |
|     170 | 0x1D0A      |        7434 |
|     171 | 0x1D0B      |        7435 |
|     172 | 0x1D0C      |        7436 |
|     173 | 0x01F5      |         501 |
|     174 | 0x1D0D      |        7437 |
|     175 | 0x1D0E      |        7438 |
|     176 | 0x1D0F      |        7439 |
|     177 | 0x0FA0      |        4000 |
|     178 | 0x1D10      |        7440 |
|     179 | 0x1D11      |        7441 |
|     180 | 0x1D12      |        7442 |
|     181 | 0x1D13      |        7443 |
|     182 | 0x1D14      |        7444 |
|     183 | 0x1D15      |        7445 |
|     184 | 0x1D16      |        7446 |
|     185 | 0x1D17      |        7447 |
|     186 | 0x1D18      |        7448 |
|     187 | 0x1D19      |        7449 |
|     188 | 0x1D1A      |        7450 |
|     189 | 0x1D1B      |        7451 |
|     190 | 0x001B      |          27 |
|     191 | 0x3F92C     |      260396 |
|     192 | 0x137B7     |       79799 |
|     193 | 0x9BB9      |       39865 |
|     194 | 0x0899      |        2201 |
|     195 | 0x00C7      |         199 |
|     196 | 0x00E7      |         231 |
|     197 | 0x1D2F      |        7471 |
|     198 | 0x0002      |           2 |
|     199 | 0x1D30      |        7472 |
|     200 | 0x0003      |           3 |
|     201 | 0x1D31      |        7473 |
|     202 | 0x0004      |           4 |
|     203 | 0x1D32      |        7474 |
|     204 | 0x1D35      |        7477 |
|     205 | 0x1D36      |        7478 |
|     206 | 0x1D37      |        7479 |
|     207 | 0x0008      |           8 |
|     208 | 0x1D38      |        7480 |
|     209 | 0x0009      |           9 |
|     210 | 0x1D39      |        7481 |
|     211 | 0x1D33      |        7475 |
|     212 | 0x000B      |          11 |
|     213 | 0x1D34      |        7476 |
|     214 | 0x1D3A      |        7482 |
|     215 | 0x1D3B      |        7483 |
|     216 | 0x1D3C      |        7484 |
|     217 | 0x1D3D      |        7485 |
|     218 | 0x1D3E      |        7486 |
|     219 | 0x1D41      |        7489 |
|     220 | 0x1D42      |        7490 |
|     221 | 0x1D43      |        7491 |
|     222 | 0x1D44      |        7492 |
|     223 | 0x1D45      |        7493 |
|     224 | 0x1D3F      |        7487 |
|     225 | 0x1D40      |        7488 |
|     226 | 0x1D46      |        7494 |
|     227 | 0x3FF5F     |      261983 |
|     228 | 0x12D78     |       77176 |
|     229 | 0x9C76      |       40054 |
|     230 | 0x3FEA1     |      261793 |
|     231 | 0x10D41     |       68929 |
|     232 | 0x9B59      |       39769 |
|     233 | 0x3F696     |      259734 |
|     234 | 0xD46E      |       54382 |
|     235 | 0x9940      |       39232 |
|     236 | 0x0C37      |        3127 |
|     237 | 0x0268      |         616 |
|     238 | 0x1D47      |        7495 |
|     239 | 0x1D53      |        7507 |
|     240 | 0x1D48      |        7496 |
|     241 | 0x1D54      |        7508 |
|     242 | 0x1D49      |        7497 |
|     243 | 0x1D55      |        7509 |
|     244 | 0x1D4A      |        7498 |
|     245 | 0x1D56      |        7510 |
|     246 | 0x1D4D      |        7501 |
|     247 | 0x1D59      |        7513 |
|     248 | 0x1D4E      |        7502 |
|     249 | 0x1D5A      |        7514 |
|     250 | 0x1D4F      |        7503 |
|     251 | 0x1D5B      |        7515 |
|     252 | 0x1D50      |        7504 |
|     253 | 0x1D5C      |        7516 |
|     254 | 0x1D51      |        7505 |
|     255 | 0x1D5D      |        7517 |
|     256 | 0x1D4B      |        7499 |
|     257 | 0x1D57      |        7511 |
|     258 | 0x1D4C      |        7500 |
|     259 | 0x1D58      |        7512 |
|     260 | 0x1D52      |        7506 |
|     261 | 0x1D5E      |        7518 |
|     262 | 0x00F4      |         244 |
|     263 | 0x006E      |         110 |
|     264 | 0x1D5F      |        7519 |
|     265 | 0x1D60      |        7520 |
|     266 | 0x1D61      |        7521 |
|     267 | 0x1D62      |        7522 |
|     268 | 0x1D65      |        7525 |
|     269 | 0x1D66      |        7526 |
|     270 | 0x1D67      |        7527 |
|     271 | 0x1D68      |        7528 |
|     272 | 0x1D69      |        7529 |
|     273 | 0x1D63      |        7523 |
|     274 | 0x1D64      |        7524 |
|     275 | 0x1D6A      |        7530 |
|     276 | 0x1D6B      |        7531 |
|     277 | 0x1D6C      |        7532 |
|     278 | 0x1D6D      |        7533 |
|     279 | 0x1D6E      |        7534 |
|     280 | 0x1D6F      |        7535 |
|     281 | 0x1D72      |        7538 |
|     282 | 0x1D73      |        7539 |
|     283 | 0x1D74      |        7540 |
|     284 | 0x1D75      |        7541 |
|     285 | 0x1D76      |        7542 |
|     286 | 0x1D70      |        7536 |
|     287 | 0x1D71      |        7537 |
|     288 | 0x1D77      |        7543 |
|     289 | 0x0034      |          52 |
|     290 | 0x1D78      |        7544 |
|     291 | 0x1D79      |        7545 |
|     292 | 0x0020      |          32 |
|     293 | 0x1D7A      |        7546 |
|     294 | 0x1D7B      |        7547 |
|     295 | 0x1D7C      |        7548 |
|     296 | 0x1D7D      |        7549 |
|     297 | 0x1D80      |        7552 |
|     298 | 0x1D81      |        7553 |
|     299 | 0x1D82      |        7554 |
|     300 | 0x1D83      |        7555 |
|     301 | 0x1D84      |        7556 |
|     302 | 0x1D7E      |        7550 |
|     303 | 0x1D7F      |        7551 |
|     304 | 0x1D85      |        7557 |
|     305 | 0x1D86      |        7558 |
|     306 | 0x1D92      |        7570 |
|     307 | 0x1D87      |        7559 |
|     308 | 0x1D93      |        7571 |
|     309 | 0x1D88      |        7560 |
|     310 | 0x1D94      |        7572 |
|     311 | 0x1D89      |        7561 |
|     312 | 0x1D95      |        7573 |
|     313 | 0x1D8C      |        7564 |
|     314 | 0x1D98      |        7576 |
|     315 | 0x1D8D      |        7565 |
|     316 | 0x1D99      |        7577 |
|     317 | 0x1D8E      |        7566 |
|     318 | 0x1D9A      |        7578 |
|     319 | 0x1D8F      |        7567 |
|     320 | 0x1D9B      |        7579 |
|     321 | 0x1D90      |        7568 |
|     322 | 0x1D9C      |        7580 |
|     323 | 0x1D8A      |        7562 |
|     324 | 0x1D96      |        7574 |
|     325 | 0x1D8B      |        7563 |
|     326 | 0x1D97      |        7575 |
|     327 | 0x1D91      |        7569 |
|     328 | 0x1D9D      |        7581 |
|     329 | 0x0064      |         100 |
|     330 | 0x0069      |         105 |
|     331 | 0x0057      |          87 |
|     332 | 0x005C      |          92 |
|     333 | 0x0059      |          89 |
|     334 | 0x005D      |          93 |
|     335 | 0x0061      |          97 |
|     336 | 0x0017      |          23 |
|     337 | 0x000E      |          14 |
|     338 | 0x0018      |          24 |
|     339 | 0x001F      |          31 |
|     340 | 0x0010      |          16 |
|     341 | 0x0015      |          21 |
|     342 | 0x018D      |         397 |
|     343 | 0x0175      |         373 |
|     344 | 0x0170      |         368 |
|     345 | 0x0171      |         369 |
|     346 | 0x014C      |         332 |
|     347 | 0x01C1      |         449 |
|     348 | 0x027C      |         636 |
|     349 | 0x027B      |         635 |
|     350 | 0x027D      |         637 |
|     351 | 0x02D3      |         723 |
|     352 | 0x0321      |         801 |
|     353 | 0x01E1      |         481 |
|     354 | 0x0343      |         835 |
|     355 | 0x0386      |         902 |
|     356 | 0x0388      |         904 |
|     357 | 0x0361      |         865 |
|     358 | 0x0387      |         903 |
|     359 | 0x038A      |         906 |
|     360 | 0x0282      |         642 |
|     361 | 0x0283      |         643 |
|     362 | 0x0288      |         648 |
|     363 | 0x0289      |         649 |
|     364 | 0x028A      |         650 |
|     365 | 0x028B      |         651 |
|     366 | 0x029E      |         670 |
|     367 | 0x0019      |          25 |
|     368 | 0x00C6      |         198 |
|     369 | 0x00B5      |         181 |
|     370 | 0x008C      |         140 |
|     371 | 0x008E      |         142 |
|     372 | 0x007A      |         122 |
|     373 | 0x014B      |         331 |
|     374 | 0x0148      |         328 |
|     375 | 0x0166      |         358 |
|     376 | 0x017A      |         378 |
|     377 | 0x0182      |         386 |
|     378 | 0x0183      |         387 |
|     379 | 0x0192      |         402 |
|     380 | 0x01DF      |         479 |
|     381 | 0x01E9      |         489 |
|     382 | 0x001C      |          28 |
|     383 | 0x00E6      |         230 |
|     384 | 0x00EB      |         235 |
|     385 | 0x00F5      |         245 |
|     386 | 0x007E      |         126 |
|     387 | 0x00F3      |         243 |
|     388 | 0x00E0      |         224 |
|     389 | 0x00E9      |         233 |
|     390 | 0x009E      |         158 |
|     391 | 0x00E2      |         226 |
|     392 | 0x014F      |         335 |
|     393 | 0x014E      |         334 |
|     394 | 0x0167      |         359 |
|     395 | 0x00E5      |         229 |
|     396 | 0x0169      |         361 |
|     397 | 0x016A      |         362 |
|     398 | 0x0168      |         360 |
|     399 | 0x0133      |         307 |
|     400 | 0x0174      |         372 |
|     401 | 0x018C      |         396 |
|     402 | 0x0194      |         404 |
|     403 | 0x0195      |         405 |
|     404 | 0x0178      |         376 |
|     405 | 0x0240      |         576 |
|     406 | 0x0197      |         407 |
|     407 | 0x0198      |         408 |
|     408 | 0x01A3      |         419 |
|     409 | 0x019E      |         414 |
|     410 | 0x0246      |         582 |
|     411 | 0x0247      |         583 |
|     412 | 0x0248      |         584 |
|     413 | 0x024B      |         587 |
|     414 | 0x024A      |         586 |
|     415 | 0x0011      |          17 |
|     416 | 0x024F      |         591 |
|     417 | 0x01C3      |         451 |
|     418 | 0x01C4      |         452 |
|     419 | 0x01EF      |         495 |
|     420 | 0x01F0      |         496 |
|     421 | 0x001A      |          26 |
|     422 | 0x0095      |         149 |
|     423 | 0x001D      |          29 |
|     424 | 0x0073      |         115 |
|     425 | 0x0024      |          36 |
|     426 | 0x005E      |          94 |
|     427 | 0x0072      |         114 |
|     428 | 0x0031      |          49 |
|     429 | 0x006C      |         108 |
|     430 | 0x003A      |          58 |
|     431 | 0x0016      |          22 |
|     432 | 0x0035      |          53 |
|     433 | 0x0085      |         133 |
|     434 | 0x0081      |         129 |
|     435 | 0x0023      |          35 |
|     436 | 0x0033      |          51 |
|     437 | 0x0082      |         130 |
|     438 | 0x0039      |          57 |
|     439 | 0x0038      |          56 |
|     440 | 0x0036      |          54 |
|     441 | 0x0083      |         131 |
|     442 | 0x00A2      |         162 |
|     443 | 0x0022      |          34 |
|     444 | 0x0021      |          33 |
|     445 | 0x0065      |         101 |
|     446 | 0x0086      |         134 |
|     447 | 0x0062      |          98 |
|     448 | 0x008D      |         141 |
|     449 | 0x0037      |          55 |
|     450 | 0x008A      |         138 |
|     451 | 0x008B      |         139 |
|     452 | 0x002B      |          43 |
|     453 | 0x0067      |         103 |
|     454 | 0x0066      |         102 |
|     455 | 0x0075      |         117 |
|     456 | 0x0068      |         104 |
|     457 | 0x0077      |         119 |
|     458 | 0x01FE      |         510 |
|     459 | 0x009F      |         159 |
|     460 | 0x00A4      |         164 |
|     461 | 0x00A9      |         169 |
|     462 | 0x00AC      |         172 |
|     463 | 0x00B2      |         178 |
|     464 | 0x00B0      |         176 |
|     465 | 0x013D      |         317 |
|     466 | 0x0108      |         264 |
|     467 | 0x010C      |         268 |
|     468 | 0x0100      |         256 |
|     469 | 0x00FB      |         251 |
|     470 | 0x00B8      |         184 |
|     471 | 0x011C      |         284 |
|     472 | 0x0042      |          66 |
|     473 | 0x0047      |          71 |
|     474 | 0x0160      |         352 |
|     475 | 0x0043      |          67 |
|     476 | 0x0048      |          72 |
|     477 | 0x004B      |          75 |
|     478 | 0x004C      |          76 |
|     479 | 0x004D      |          77 |
|     480 | 0x005B      |          91 |
|     481 | 0x0058      |          88 |
|     482 | 0x0053      |          83 |
|     483 | 0x0054      |          84 |
|     484 | 0x0161      |         353 |
|     485 | 0x015C      |         348 |
|     486 | 0x016D      |         365 |
|     487 | 0x00C5      |         197 |
|     488 | 0x00C3      |         195 |
|     489 | 0x015E      |         350 |
|     490 | 0x00C4      |         196 |
|     491 | 0x016E      |         366 |
|     492 | 0x00D0      |         208 |
|     493 | 0x00CD      |         205 |
|     494 | 0x00CA      |         202 |
|     495 | 0x00D2      |         210 |
|     496 | 0x00D8      |         216 |
|     497 | 0x00D5      |         213 |
|     498 | 0x00D6      |         214 |
|     499 | 0x013B      |         315 |
|     500 | 0x0136      |         310 |
|     501 | 0x013A      |         314 |
|     502 | 0x0137      |         311 |
|     503 | 0x016F      |         367 |
|     504 | 0x0138      |         312 |
|     505 | 0x0139      |         313 |
|     506 | 0x009A      |         154 |
|     507 | 0x0091      |         145 |
|     508 | 0x009B      |         155 |
|     509 | 0x0099      |         153 |
|     510 | 0x0092      |         146 |
|     511 | 0x0098      |         152 |
|     512 | 0x0071      |         113 |
|     513 | 0x00E8      |         232 |
|     514 | 0x00DD      |         221 |
|     515 | 0x00F1      |         241 |
|     516 | 0x0124      |         292 |
|     517 | 0x012E      |         302 |
|     518 | 0x0129      |         297 |
|     519 | 0x0122      |         290 |
|     520 | 0x0132      |         306 |
|     521 | 0x0126      |         294 |
|     522 | 0x0155      |         341 |
|     523 | 0x0025      |          37 |
|     524 | 0x0029      |          41 |
|     525 | 0x007D      |         125 |
|     526 | 0x007C      |         124 |
|     527 | 0x0074      |         116 |
|     528 | 0x00EC      |         236 |
|     529 | 0x019C      |         412 |
|     530 | 0x0193      |         403 |
|     531 | 0x01C6      |         454 |
|     532 | 0x01C7      |         455 |
|     533 | 0xEAB0      |       60080 |
|     534 | 0xFFFFED8E  |  4294962574 |
|     535 | 0x5E2A      |       24106 |
|     536 | 0x0427      |        1063 |
|     537 | 0xEC6A      |       60522 |
|     538 | 0xFFFFDFB5  |  4294959029 |
|     539 | 0x5DBC      |       23996 |
|     540 | 0xEB42      |       60226 |
|     541 | 0xFFFFD693  |  4294956691 |
|     542 | 0x5DC8      |       24008 |
|     543 | 0x041A      |        1050 |
|     544 | 0xEA24      |       59940 |
|     545 | 0x0C3B      |        3131 |
|     546 | 0xEB07      |       60167 |
|     547 | 0xFFFFE9D8  |  4294961624 |
|     548 | 0x5DD9      |       24025 |
|     549 | 0xEC95      |       60565 |
|     550 | 0xFFFFF7F9  |  4294965241 |
|     551 | 0x5E69      |       24169 |
|     552 | 0x0C48      |        3144 |

## String References

- **7387**: You understand? [You need some help./You need a friend.]
- **7393**: What say? [Easy mission!/Good day!]
- **7413**: Join the Elite Guard? [I am at your command./Never!]
- **7416**: Join the Elite Raiders? [I am at your command./Never!]

## Events

### Event 65535

#### Metadata

| Field        | Value   |
|--------------|---------|
| Entrypoint   | 0x0000  |
| Data Size    | 1 bytes |
| Instructions | 1       |

```
      00 01 02 03 04 05 06 07  08 09 0A 0B 0C 0D 0E 0F
      -- -- -- -- -- -- -- --  -- -- -- -- -- -- -- --
0000: 00                                                .               
```

#### Opcodes

```
  0: 0x0000 [0x00] END_REQSTACK()
```

### Event 65534

#### Metadata

| Field        | Value   |
|--------------|---------|
| Entrypoint   | 0x0001  |
| Data Size    | 1 bytes |
| Instructions | 1       |

```
      00 01 02 03 04 05 06 07  08 09 0A 0B 0C 0D 0E 0F
      -- -- -- -- -- -- -- --  -- -- -- -- -- -- -- --
0000:    00                                              .              
```

#### Opcodes

```
  0: 0x0001 [0x00] END_REQSTACK()
```

### Event 0

#### Metadata

| Field        | Value      |
|--------------|------------|
| Entrypoint   | 0x0002     |
| Data Size    | 2418 bytes |
| Instructions | 315        |

```
      00 01 02 03 04 05 06 07  08 09 0A 0B 0C 0D 0E 0F
      -- -- -- -- -- -- -- --  -- -- -- -- -- -- -- --
0000:       42 5D 00 80 01 80  62 02 80 23 40 09 01 23    B]....b..#@..#
0010: 40 09 01 6D 61 69 6E 00  80 45 03 80 F0 FF FF 7F  @..main..E......
0020: F0 FF FF 7F 62 6C 6F 6E  00 80 45 04 80 F0 FF FF  ....blon..E.....
0030: 7F F0 FF FF 7F 77 68 6F  31 00 80 55 04 80 F0 FF  .....who1..U....
0040: FF 7F F0 FF FF 7F 77 68  6F 31 45 03 80 F0 FF FF  ......who1E.....
0050: 7F F0 FF FF 7F 66 64 69  31 00 80 62 02 80 F8 FF  .....fdi1..b....
0060: FF 7F F8 FF FF 7F 73 74  6D 32 00 80 5D 05 80 06  ......stm2..]...
0070: 80 5C 00 07 80 5C 01 07  80 38 08 80 34 09 80 1C  .\...\...8..4...
0080: 06 80 46 01 77 0A 80 00  80 22 01 4E 00 2C 40 09  ..F.w....".N.,@.
0090: 01 4E 00 2B 40 09 01 4E  00 2A 40 09 01 1C 06 80  .N.+@..N.*@.....
00A0: 80 2C 40 09 01 45 0B 80  F0 FF FF 7F F0 FF FF 7F  .,@..E..........
00B0: 73 30 30 36 00 80 45 04  80 F0 FF FF 7F F0 FF FF  s006..E.........
00C0: 7F 77 68 69 31 00 80 27  0A 2C 40 09 01 02 27 0A  .whi1..'.,@...'.
00D0: 2B 40 09 01 02 27 0A 2A  40 09 01 02 1C 0C 80 2B  +@...'.*@......+
00E0: 2C 40 09 01 0D 80 23 2A  0A 2C 40 09 01 2A 0A 2B  ,@....#*.,@..*.+
00F0: 40 09 01 6F 76 2B 40 09  01 66 00 80 2B 40 09 01  @..ov+@..f..+@..
0100: 2B 40 09 01 74 6C 6B 30  2B 2B 40 09 01 0E 80 23  +@..tlk0++@....#
0110: 6B 69 64 6C 30 2B 40 09  01 27 0A 29 40 09 01 02  kidl0+@..'.)@...
0120: 27 0A 2B 40 09 01 03 1C  0F 80 27 0A 2C 40 09 01  '.+@......'.,@..
0130: 03 45 0B 80 F0 FF FF 7F  F0 FF FF 7F 73 30 30 37  .E..........s007
0140: 00 80 2B 2C 40 09 01 10  80 23 2B 2A 40 09 01 11  ..+,@....#+*@...
0150: 80 23 2A 0A 29 40 09 01  5B 12 80 29 40 09 01 29  .#*.)@..[..)@..)
0160: 40 09 01 74 6C 6B 30 2B  29 40 09 01 13 80 23 6B  @..tlk0+)@....#k
0170: 69 64 6C 30 29 40 09 01  79 00 2A 40 09 01 29 40  idl0)@..y.*@..)@
0180: 09 01 2B 2A 40 09 01 14  80 23 4A 29 40 09 01 2C  ..+*@....#J)@..,
0190: 40 09 01 2B 29 40 09 01  15 80 23 7B 2A 40 09 01  @..+)@....#{*@..
01A0: 45 03 80 F0 FF FF 7F F0  FF FF 7F 62 6C 6F 6E 00  E..........blon.
01B0: 80 45 04 80 F0 FF FF 7F  F0 FF FF 7F 77 68 6F 31  .E..........who1
01C0: 00 80 1C 01 80 4E 01 2C  40 09 01 4E 01 2B 40 09  .....N.,@..N.+@.
01D0: 01 4E 01 2A 40 09 01 38  08 80 34 16 80 77 0A 80  .N.*@..8..4..w..
01E0: 00 80 1C 06 80 27 0A 27  40 09 01 02 27 0A 28 40  .....'.'@...'.(@
01F0: 09 01 02 4E 00 25 40 09  01 4E 00 26 40 09 01 4E  ...N.%@..N.&@..N
0200: 00 24 40 09 01 22 01 46  01 1C 06 80 80 27 40 09  .$@..".F.....'@.
0210: 01 80 28 40 09 01 45 0B  80 F8 FF FF 7F F8 FF FF  ..(@..E.........
0220: 7F 73 30 30 39 00 80 45  04 80 F0 FF FF 7F F0 FF  .s009..E........
0230: FF 7F 77 68 69 31 00 80  45 03 80 F0 FF FF 7F F0  ..whi1..E.......
0240: FF FF 7F 62 6C 6F 6E 00  80 1C 01 80 2C 27 40 09  ...blon.....,'@.
0250: 01 27 40 09 01 64 65 61  64 1C 01 80 2C 28 40 09  .'@..dead...,(@.
0260: 01 28 40 09 01 64 65 61  64 1C 17 80 27 0A 26 40  .(@..dead...'.&@
0270: 09 01 02 2B 26 40 09 01  18 80 23 4A 25 40 09 01  ...+&@....#J%@..
0280: 26 40 09 01 2A 0A 26 40  09 01 45 04 80 F8 FF FF  &@..*.&@..E.....
0290: 7F F8 FF FF 7F 77 68 6F  30 00 80 1C 19 80 45 04  .....who0.....E.
02A0: 80 F8 FF FF 7F F8 FF FF  7F 77 68 69 30 00 80 45  .........whi0..E
02B0: 0B 80 F8 FF FF 7F F8 FF  FF 7F 73 30 31 30 00 80  ..........s010..
02C0: 4E 01 27 40 09 01 27 0A  26 40 09 01 03 27 0A 25  N.'@..'.&@...'.%
02D0: 40 09 01 02 27 0A 24 40  09 01 02 2B 26 40 09 01  @...'.$@...+&@..
02E0: 1A 80 23 1C 1B 80 2A 0A  25 40 09 01 4A 25 40 09  ..#...*.%@..J%@.
02F0: 01 26 40 09 01 2B 25 40  09 01 1C 80 23 1C 01 80  .&@..+%@....#...
0300: 4A 25 40 09 01 24 40 09  01 1C 01 80 2A 0A 26 40  J%@..$@.....*.&@
0310: 09 01 27 0A 25 40 09 01  03 1C 17 80 45 04 80 F8  ..'.%@......E...
0320: FF FF 7F F8 FF FF 7F 77  68 6F 30 00 80 1C 19 80  .......who0.....
0330: 45 04 80 F8 FF FF 7F F8  FF FF 7F 77 68 69 30 00  E..........whi0.
0340: 80 45 0B 80 F8 FF FF 7F  F8 FF FF 7F 73 30 31 31  .E..........s011
0350: 00 80 2C 24 40 09 01 24  40 09 01 72 65 73 31 4E  ..,$@..$@..res1N
0360: 00 27 40 09 01 1C 01 80  2B 24 40 09 01 1D 80 23  .'@.....+$@....#
0370: 2C 24 40 09 01 24 40 09  01 72 65 73 32 1C 12 80  ,$@..$@..res2...
0380: 2B 24 40 09 01 1E 80 23  2A 0A 25 40 09 01 45 04  +$@....#*.%@..E.
0390: 80 F0 FF FF 7F F0 FF FF  7F 77 68 6F 31 00 80 1C  .........who1...
03A0: 1F 80 22 01 38 08 80 34  20 80 77 21 80 22 80 1C  ..".8..4 .w!."..
03B0: 06 80 27 0A 26 40 09 01  04 27 0A 24 40 09 01 03  ..'.&@...'.$@...
03C0: 27 0A 25 40 09 01 04 80  24 40 09 01 66 23 80 24  '.%@....$@..f#.$
03D0: 40 09 01 24 40 09 01 6E  69 72 30 45 0B 80 F0 FF  @..$@..nir0E....
03E0: FF 7F F0 FF FF 7F 73 30  30 30 00 80 45 04 80 F0  ......s000..E...
03F0: FF FF 7F F0 FF FF 7F 77  68 69 31 00 80 45 03 80  .......whi1..E..
0400: F0 FF FF 7F F0 FF FF 7F  62 6C 6F 6E 00 80 1C 0C  ........blon....
0410: 80 5B 03 80 26 40 09 01  26 40 09 01 74 6C 62 30  .[..&@..&@..tlb0
0420: 2B 26 40 09 01 24 80 23  1C 01 80 2B 24 40 09 01  +&@..$.#...+$@..
0430: 25 80 23 55 0B 80 F0 FF  FF 7F F0 FF FF 7F 73 30  %.#U..........s0
0440: 30 30 45 0B 80 F0 FF FF  7F F0 FF FF 7F 73 30 30  00E..........s00
0450: 31 00 80 1C 01 80 27 0A  26 40 09 01 05 2B 26 40  1.....'.&@...+&@
0460: 09 01 26 80 23 2B 24 40  09 01 27 80 23 55 0B 80  ..&.#+$@..'.#U..
0470: F0 FF FF 7F F0 FF FF 7F  73 30 30 31 2A 0A 26 40  ........s001*.&@
0480: 09 01 45 0B 80 F0 FF FF  7F F0 FF FF 7F 73 30 30  ..E..........s00
0490: 32 00 80 2B 26 40 09 01  28 80 5B 04 80 26 40 09  2..+&@..(.[..&@.
04A0: 01 26 40 09 01 73 61 73  30 1C 29 80 45 04 80 F0  .&@..sas0.).E...
04B0: FF FF 7F F0 FF FF 7F 77  68 6F 30 00 80 86 01 25  .......who0....%
04C0: 40 09 01 1C 19 80 7B 25  40 09 01 4E 00 25 40 09  @.....{%@..N.%@.
04D0: 01 53 26 40 09 01 26 40  09 01 73 61 73 30 80 25  .S&@..&@..sas0.%
04E0: 40 09 01 66 22 80 25 40  09 01 25 40 09 01 73 61  @..f".%@..%@..sa
04F0: 73 30 45 04 80 F0 FF FF  7F F0 FF FF 7F 77 68 69  s0E..........whi
0500: 30 00 80 79 00 24 40 09  01 25 40 09 01 1C 01 80  0..y.$@..%@.....
0510: 2B 24 40 09 01 2A 80 23  27 0A 26 40 09 01 06 66  +$@..*.#'.&@...f
0520: 22 80 25 40 09 01 25 40  09 01 73 61 73 31 45 0B  ".%@..%@..sas1E.
0530: 80 F0 FF FF 7F F0 FF FF  7F 73 30 31 32 00 80 1C  .........s012...
0540: 01 80 2B 26 40 09 01 2B  80 23 27 0A 26 40 09 01  ..+&@..+.#'.&@..
0550: 07 53 25 40 09 01 25 40  09 01 73 61 73 31 45 04  .S%@..%@..sas1E.
0560: 80 F0 FF FF 7F F0 FF FF  7F 77 68 6F 30 00 80 1C  .........who0...
0570: 19 80 27 0A 25 40 09 01  05 27 0A 24 40 09 01 04  ..'.%@...'.$@...
0580: 4E 01 26 40 09 01 2A 0A  24 40 09 01 2A 0A 25 40  N.&@..*.$@..*.%@
0590: 09 01 66 23 80 24 40 09  01 24 40 09 01 64 61 6B  ..f#.$@..$@..dak
05A0: 30 45 0B 80 F0 FF FF 7F  F0 FF FF 7F 73 30 30 33  0E..........s003
05B0: 00 80 45 04 80 F0 FF FF  7F F0 FF FF 7F 77 68 69  ..E..........whi
05C0: 30 00 80 2B 24 40 09 01  2C 80 23 2B 25 40 09 01  0..+$@..,.#+%@..
05D0: 2D 80 23 45 04 80 F0 FF  FF 7F F0 FF FF 7F 77 68  -.#E..........wh
05E0: 6F 30 00 80 1C 19 80 52  0B 80 F0 FF FF 7F F0 FF  o0.....R........
05F0: FF 7F 73 30 30 33 45 0B  80 F0 FF FF 7F F0 FF FF  ..s003E.........
0600: 7F 73 30 30 34 00 80 45  04 80 F0 FF FF 7F F0 FF  .s004..E........
0610: FF 7F 77 68 69 30 00 80  2B 24 40 09 01 2E 80 23  ..whi0..+$@....#
0620: 1C 01 80 2B 24 40 09 01  2F 80 23 66 23 80 24 40  ...+$@../.#f#.$@
0630: 09 01 24 40 09 01 64 61  6B 31 45 0B 80 F0 FF FF  ..$@..dak1E.....
0640: 7F F0 FF FF 7F 73 30 30  35 00 80 1C 30 80 45 04  .....s005...0.E.
0650: 80 F0 FF FF 7F F0 FF FF  7F 77 68 6F 30 00 80 1C  .........who0...
0660: 21 80 45 0B 80 F0 FF FF  7F F0 FF FF 7F 73 30 30  !.E..........s00
0670: 38 00 80 45 04 80 F0 FF  FF 7F F0 FF FF 7F 77 68  8..E..........wh
0680: 69 30 00 80 1C 31 80 45  04 80 F0 FF FF 7F F0 FF  i0...1.E........
0690: FF 7F 77 68 6F 31 00 80  5D 00 80 01 80 55 04 80  ..who1..]....U..
06A0: F0 FF FF 7F F0 FF FF 7F  77 68 6F 31 52 0B 80 F0  ........who1R...
06B0: FF FF 7F F0 FF FF 7F 73  30 30 38 35 32 80 4E 01  .......s00852.N.
06C0: 24 40 09 01 4E 01 25 40  09 01 1C 06 80 46 00 78  $@..N.%@.....F.x
06D0: 45 04 80 F0 FF FF 7F F0  FF FF 7F 77 68 69 31 00  E..........whi1.
06E0: 80 45 03 80 F0 FF FF 7F  F0 FF FF 7F 62 6C 6F 66  .E..........blof
06F0: 00 80 02 02 10 00 80 00  FB 06 21 46 01 22 00 37  ..........!F.".7
0700: 33 80 34 80 35 80 36 80  45 0B 80 F0 FF FF 7F F0  3.4.5.6.E.......
0710: FF FF 7F 73 30 31 33 00  80 1C 31 80 32 37 80 1F  ...s013...1.27..
0720: 00 38 80 39 80 3A 80 1F  01 79 00 F0 FF FF 7F 2D  .8.9.:...y.....-
0730: 40 09 01 79 00 2D 40 09  01 F0 FF FF 7F 27 0A 2D  @..y.-@......'.-
0740: 40 09 01 02 1C 01 80 2B  2D 40 09 01 3B 80 23 2A  @......+-@..;.#*
0750: 0A 2D 40 09 01 55 0B 80  F0 FF FF 7F F0 FF FF 7F  .-@..U..........
0760: 73 30 31 33 4E 01 F0 FF  FF 7F 45 0B 80 F0 FF FF  s013N.....E.....
0770: 7F F0 FF FF 7F 73 30 31  34 00 80 5B 3C 80 2D 40  .....s014..[<.-@
0780: 09 01 2D 40 09 01 74 6C  63 32 27 0A 2E 40 09 01  ..-@..tlc2'..@..
0790: 02 2B 2D 40 09 01 3D 80  23 1C 3E 80 80 2E 40 09  .+-@..=.#.>...@.
07A0: 01 5B 3F 80 2E 40 09 01  2E 40 09 01 75 6B 6D 30  .[?..@...@..ukm0
07B0: 1C 21 80 53 2D 40 09 01  2D 40 09 01 74 6C 63 32  .!.S-@..-@..tlc2
07C0: 4A 2D 40 09 01 2E 40 09  01 5D 05 80 06 80 5C 00  J-@...@..]....\.
07D0: 40 80 5C 01 40 80 2B 2D  40 09 01 41 80 23 27 0A  @.\.@.+-@..A.#'.
07E0: 2D 40 09 01 03 1C 42 80  45 0B 80 F0 FF FF 7F F0  -@....B.E.......
07F0: FF FF 7F 73 30 31 35 00  80 4E 00 F0 FF FF 7F 4A  ...s015..N.....J
0800: F0 FF FF 7F 2E 40 09 01  1C 1B 80 2B 2E 40 09 01  .....@.....+.@..
0810: 43 80 23 2B 2E 40 09 01  44 80 23 2A 0A 2D 40 09  C.#+.@..D.#*.-@.
0820: 01 5B 3C 80 2D 40 09 01  2D 40 09 01 74 6C 61 30  .[<.-@..-@..tla0
0830: 2B 2D 40 09 01 45 80 23  55 0B 80 F0 FF FF 7F F0  +-@..E.#U.......
0840: FF FF 7F 73 30 31 35 45  0B 80 F0 FF FF 7F F0 FF  ...s015E........
0850: FF 7F 73 30 31 36 00 80  5B 3C 80 2D 40 09 01 2D  ..s016..[<.-@..-
0860: 40 09 01 74 6C 61 31 2B  2E 40 09 01 46 80 23 5B  @..tla1+.@..F.#[
0870: 3F 80 2E 40 09 01 2E 40  09 01 75 74 75 30 5B 47  ?..@...@..utu0[G
0880: 80 2D 40 09 01 2D 40 09  01 74 68 6B 31 2B 2E 40  .-@..-@..thk1+.@
0890: 09 01 48 80 23 6C 2E 40  09 01 00 80 17 80 45 03  ..H.#l.@......E.
08A0: 80 F0 FF FF 7F F0 FF FF  7F 66 64 6F 31 00 80 1C  .........fdo1...
08B0: 12 80 52 0B 80 F0 FF FF  7F F0 FF FF 7F 73 30 31  ..R..........s01
08C0: 36 45 03 80 F0 FF FF 7F  F0 FF FF 7F 66 64 69 31  6E..........fdi1
08D0: 00 80 45 0B 80 F0 FF FF  7F F0 FF FF 7F 73 30 31  ..E..........s01
08E0: 37 00 80 79 00 F0 FF FF  7F 2D 40 09 01 1C 42 80  7..y.....-@...B.
08F0: 2B 2D 40 09 01 49 80 23  5B 47 80 2D 40 09 01 2D  +-@..I.#[G.-@..-
0900: 40 09 01 74 68 6B 32 2B  2D 40 09 01 4A 80 23 4A  @..thk2+-@..J.#J
0910: 2D 40 09 01 F0 FF FF 7F  2B 2D 40 09 01 4B 80 23  -@......+-@..K.#
0920: 27 0A 2D 40 09 01 04 1C  01 80 5D 00 80 01 80 45  '.-@......]....E
0930: 03 80 F0 FF FF 7F F0 FF  FF 7F 66 64 6F 31 00 80  ..........fdo1..
0940: 1C 01 80 52 0B 80 F0 FF  FF 7F F0 FF FF 7F 73 30  ...R..........s0
0950: 31 37 46 00 45 03 80 F0  FF FF 7F F0 FF FF 7F 66  17F.E..........f
0960: 64 69 32 00 80 5C 00 00  80 5C 01 00 80 5D 05 80  di2..\...\...]..
0970: 01 80 21 00                                       ..!.            
```

#### Opcodes

```
  0: 0x0002 [0x42] SET_CLI_EVENT_CANCEL_DATA()
  1: 0x0003 [0x5D] SET_MUSIC_VOLUME(volume=0*, fade_time=60*)
  2: 0x0008 [0x62] LOAD_EVENT_SCHEDULER: Load scheduler "main" with entities [Magicite (ID: 17383459/0x01094023), Magicite (ID: 17383459/0x01094023)], work=[5*, 0*]
  3: 0x0019 [0x45] LOAD_SCHEDULED_TASK: Load scheduler "blon" with entities [LocalPlayer, LocalPlayer], work=[200*, 0*]
  4: 0x002A [0x45] LOAD_SCHEDULED_TASK: Load scheduler "who1" with entities [LocalPlayer, LocalPlayer], work=[201*, 0*]
  5: 0x003B [0x55] WAIT_LOAD_SCHEDULER: Wait for scheduler "who1" with entities [LocalPlayer, LocalPlayer], work=201*
  6: 0x004A [0x45] LOAD_SCHEDULED_TASK: Load scheduler "fdi1" with entities [LocalPlayer, LocalPlayer], work=[200*, 0*]
  7: 0x005B [0x62] LOAD_EVENT_SCHEDULER: Load scheduler "stm2" with entities [EventEntity, EventEntity], work=[5*, 0*]
  8: 0x006C [0x5D] SET_MUSIC_VOLUME(volume=127*, fade_time=1*)
  9: 0x0071 [0x5C] MUSIC_CONTROL: Set Idle (Day) music to song 123*
 10: 0x0075 [0x5C] MUSIC_CONTROL: Set Idle (Night) music to song 123*
 11: 0x0079 [0x38] SET_CLIENT_EVENT_MODE(mode=19*)
 12: 0x007C [0x34] LOAD_UNLOAD_ZONE(zone_id=234*)
 13: 0x007F [0x1C] WAIT(1* ticks)
 14: 0x0082 [0x46] CAMERA_CONTROL: Disable user control
 15: 0x0084 [0x77] SET_EVENT_TIME_WEATHER(hour=7*, weather=0*)
 16: 0x0089 [0x22] ENTITY_HIDE_FLAG(enabled=0x01)
 17: 0x008B [0x4E] SET_ENTITY_HIDE_FLAG: Show Blamor (ID: 17383468/0x0109402C)
 18: 0x0091 [0x4E] SET_ENTITY_HIDE_FLAG: Show Omran (ID: 17383467/0x0109402B)
 19: 0x0097 [0x4E] SET_ENTITY_HIDE_FLAG: Show Babenn (ID: 17383466/0x0109402A)
 20: 0x009D [0x1C] WAIT(1* ticks)
 21: 0x00A0 [0x80] LOAD_WAIT(entity=Blamor (ID: 17383468/0x0109402C))
 22: 0x00A5 [0x45] LOAD_SCHEDULED_TASK: Load scheduler "s006" with entities [LocalPlayer, LocalPlayer], work=[48*, 0*]
 23: 0x00B6 [0x45] LOAD_SCHEDULED_TASK: Load scheduler "whi1" with entities [LocalPlayer, LocalPlayer], work=[201*, 0*]
 24: 0x00C7 [0x27] REQ_SET(priority=0x0A, entity_id=Blamor (ID: 17383468/0x0109402C), tag_num=0x02)
 25: 0x00CE [0x27] REQ_SET(priority=0x0A, entity_id=Omran (ID: 17383467/0x0109402B), tag_num=0x02)
 26: 0x00D5 [0x27] REQ_SET(priority=0x0A, entity_id=Babenn (ID: 17383466/0x0109402A), tag_num=0x02)
 27: 0x00DC [0x1C] WAIT(180* ticks)
 28: 0x00DF [0x2B] Blamor (ID: 17383468/0x0109402C) [7235*]:
    → "Those "explosives"--pretty amazing, aren't they?"
 29: 0x00E6 [0x23] WAIT_FOR_DIALOG_INTERACTION
 30: 0x00E7 [0x2A] GET_REQ_LEVEL(level=10, entity_id=Blamor (ID: 17383468/0x0109402C))
 31: 0x00ED [0x2A] GET_REQ_LEVEL(level=10, entity_id=Omran (ID: 17383467/0x0109402B))
 32: 0x00F3 [0x6F] WAIT_FRAME_DELAY: Yield until WaitTime reaches zero
 33: 0x00F4 [0x76] CHECK_ENTITY_RENDER_FLAGS: Wait until Omran (ID: 17383467/0x0109402B) Render.Flags0 and Render.Flags3 conditions are met
 34: 0x00F9 [0x66] LOAD_EXT_SCHEDULER_MAIN: Load scheduler "tlk0" with entities [Omran (ID: 17383467/0x0109402B), Omran (ID: 17383467/0x0109402B)], work=0*
 35: 0x0108 [0x2B] Omran (ID: 17383467/0x0109402B) [7236*]:
    → "Indeed. Without them, we would not have been able to dig that mine. Now, finally, we can compete with San d'Oria for power."
 36: 0x010F [0x23] WAIT_FOR_DIALOG_INTERACTION
 37: 0x0110 [0x6B] STOP_AND_IDLE: Omran (ID: 17383467/0x0109402B) stops current action and resets to idle (animation="idl0")
 38: 0x0119 [0x27] REQ_SET(priority=0x0A, entity_id=Raogrimm (ID: 17383465/0x01094029), tag_num=0x02)
 39: 0x0120 [0x27] REQ_SET(priority=0x0A, entity_id=Omran (ID: 17383467/0x0109402B), tag_num=0x03)
 40: 0x0127 [0x1C] WAIT(40* ticks)
 41: 0x012A [0x27] REQ_SET(priority=0x0A, entity_id=Blamor (ID: 17383468/0x0109402C), tag_num=0x03)
 42: 0x0131 [0x45] LOAD_SCHEDULED_TASK: Load scheduler "s007" with entities [LocalPlayer, LocalPlayer], work=[48*, 0*]
 43: 0x0142 [0x2B] Blamor (ID: 17383468/0x0109402C) [7237*]:
    → "Heh, Quadav aren't good enough to live in there! One blast should take care of them..."
 44: 0x0149 [0x23] WAIT_FOR_DIALOG_INTERACTION
 45: 0x014A [0x2B] Babenn (ID: 17383466/0x0109402A) [7238*]:
    → "..."
 46: 0x0151 [0x23] WAIT_FOR_DIALOG_INTERACTION
 47: 0x0152 [0x2A] GET_REQ_LEVEL(level=10, entity_id=Raogrimm (ID: 17383465/0x01094029))
 48: 0x0158 [0x5B] LOAD_EXT_SCHEDULER: Load scheduler "tlk0" with entities [Raogrimm (ID: 17383465/0x01094029), Raogrimm (ID: 17383465/0x01094029)], work=90*
 49: 0x0167 [0x2B] Raogrimm (ID: 17383465/0x01094029) [7239*]:
    → "What is the matter, Babenn?"
 50: 0x016E [0x23] WAIT_FOR_DIALOG_INTERACTION
 51: 0x016F [0x6B] STOP_AND_IDLE: Raogrimm (ID: 17383465/0x01094029) stops current action and resets to idle (animation="idl0")
 52: 0x0178 [0x79] Babenn (ID: 17383466/0x0109402A) looks at Raogrimm (ID: 17383465/0x01094029) (Basic look)
 53: 0x0182 [0x2B] Babenn (ID: 17383466/0x0109402A) [7240*]:
    → "Lord Raogrimm... We've found the Quadav temple in the mines, as you suspected. I-I could not stop them."
 54: 0x0189 [0x23] WAIT_FOR_DIALOG_INTERACTION
 55: 0x018A [0x4A] Raogrimm (ID: 17383465/0x01094029) looks at Blamor (ID: 17383468/0x0109402C)
 56: 0x0193 [0x2B] Raogrimm (ID: 17383465/0x01094029) [7241*]:
    → "That is unfortunate... As always, they don't even try to understand."
 57: 0x019A [0x23] WAIT_FOR_DIALOG_INTERACTION
 58: 0x019B [0x7B] Babenn (ID: 17383466/0x0109402A) stops talking
 59: 0x01A0 [0x45] LOAD_SCHEDULED_TASK: Load scheduler "blon" with entities [LocalPlayer, LocalPlayer], work=[200*, 0*]
 60: 0x01B1 [0x45] LOAD_SCHEDULED_TASK: Load scheduler "who1" with entities [LocalPlayer, LocalPlayer], work=[201*, 0*]
 61: 0x01C2 [0x1C] WAIT(60* ticks)
 62: 0x01C5 [0x4E] SET_ENTITY_HIDE_FLAG: Hide Blamor (ID: 17383468/0x0109402C)
 63: 0x01CB [0x4E] SET_ENTITY_HIDE_FLAG: Hide Omran (ID: 17383467/0x0109402B)
 64: 0x01D1 [0x4E] SET_ENTITY_HIDE_FLAG: Hide Babenn (ID: 17383466/0x0109402A)
 65: 0x01D7 [0x38] SET_CLIENT_EVENT_MODE(mode=19*)
 66: 0x01DA [0x34] LOAD_UNLOAD_ZONE(zone_id=147*)
 67: 0x01DD [0x77] SET_EVENT_TIME_WEATHER(hour=7*, weather=0*)
 68: 0x01E2 [0x1C] WAIT(1* ticks)
 69: 0x01E5 [0x27] REQ_SET(priority=0x0A, entity_id=Quadav (ID: 17383463/0x01094027), tag_num=0x02)
 70: 0x01EC [0x27] REQ_SET(priority=0x0A, entity_id=Quadav (ID: 17383464/0x01094028), tag_num=0x02)
 71: 0x01F3 [0x4E] SET_ENTITY_HIDE_FLAG: Show Cornelia (ID: 17383461/0x01094025)
 72: 0x01F9 [0x4E] SET_ENTITY_HIDE_FLAG: Show Ulrich (ID: 17383462/0x01094026)
 73: 0x01FF [0x4E] SET_ENTITY_HIDE_FLAG: Show Raogrimm (ID: 17383460/0x01094024)
 74: 0x0205 [0x22] ENTITY_HIDE_FLAG(enabled=0x01)
 75: 0x0207 [0x46] CAMERA_CONTROL: Disable user control
 76: 0x0209 [0x1C] WAIT(1* ticks)
 77: 0x020C [0x80] LOAD_WAIT(entity=Quadav (ID: 17383463/0x01094027))
 78: 0x0211 [0x80] LOAD_WAIT(entity=Quadav (ID: 17383464/0x01094028))
 79: 0x0216 [0x45] LOAD_SCHEDULED_TASK: Load scheduler "s009" with entities [EventEntity, EventEntity], work=[48*, 0*]
 80: 0x0227 [0x45] LOAD_SCHEDULED_TASK: Load scheduler "whi1" with entities [LocalPlayer, LocalPlayer], work=[201*, 0*]
 81: 0x0238 [0x45] LOAD_SCHEDULED_TASK: Load scheduler "blon" with entities [LocalPlayer, LocalPlayer], work=[200*, 0*]
 82: 0x0249 [0x1C] WAIT(60* ticks)
 83: 0x024C [0x2C] CREATE_SCHEDULER_TASK: Create scheduler "dead" with entities [Quadav (ID: 17383463/0x01094027), Quadav (ID: 17383463/0x01094027)]
 84: 0x0259 [0x1C] WAIT(60* ticks)
 85: 0x025C [0x2C] CREATE_SCHEDULER_TASK: Create scheduler "dead" with entities [Quadav (ID: 17383464/0x01094028), Quadav (ID: 17383464/0x01094028)]
 86: 0x0269 [0x1C] WAIT(120* ticks)
 87: 0x026C [0x27] REQ_SET(priority=0x0A, entity_id=Ulrich (ID: 17383462/0x01094026), tag_num=0x02)
 88: 0x0273 [0x2B] Ulrich (ID: 17383462/0x01094026) [7242*]:
    → "Huh. Nothing. With all the Quadav guarding the place, you think we'd find a treasure or two!"
 89: 0x027A [0x23] WAIT_FOR_DIALOG_INTERACTION
 90: 0x027B [0x4A] Cornelia (ID: 17383461/0x01094025) looks at Ulrich (ID: 17383462/0x01094026)
 91: 0x0284 [0x2A] GET_REQ_LEVEL(level=10, entity_id=Ulrich (ID: 17383462/0x01094026))
 92: 0x028A [0x45] LOAD_SCHEDULED_TASK: Load scheduler "who0" with entities [EventEntity, EventEntity], work=[201*, 0*]
 93: 0x029B [0x1C] WAIT(20* ticks)
 94: 0x029E [0x45] LOAD_SCHEDULED_TASK: Load scheduler "whi0" with entities [EventEntity, EventEntity], work=[201*, 0*]
 95: 0x02AF [0x45] LOAD_SCHEDULED_TASK: Load scheduler "s010" with entities [EventEntity, EventEntity], work=[48*, 0*]
 96: 0x02C0 [0x4E] SET_ENTITY_HIDE_FLAG: Hide Quadav (ID: 17383463/0x01094027)
 97: 0x02C6 [0x27] REQ_SET(priority=0x0A, entity_id=Ulrich (ID: 17383462/0x01094026), tag_num=0x03)
 98: 0x02CD [0x27] REQ_SET(priority=0x0A, entity_id=Cornelia (ID: 17383461/0x01094025), tag_num=0x02)
 99: 0x02D4 [0x27] REQ_SET(priority=0x0A, entity_id=Raogrimm (ID: 17383460/0x01094024), tag_num=0x02)
100: 0x02DB [0x2B] Ulrich (ID: 17383462/0x01094026) [7243*]:
    → "C'mon, let's move! Let's just finish this job and go."
101: 0x02E2 [0x23] WAIT_FOR_DIALOG_INTERACTION
102: 0x02E3 [0x1C] WAIT(150* ticks)
103: 0x02E6 [0x2A] GET_REQ_LEVEL(level=10, entity_id=Cornelia (ID: 17383461/0x01094025))
104: 0x02EC [0x4A] Cornelia (ID: 17383461/0x01094025) looks at Ulrich (ID: 17383462/0x01094026)
105: 0x02F5 [0x2B] Cornelia (ID: 17383461/0x01094025) [7244*]:
    → "Ulrich, wait!"
106: 0x02FC [0x23] WAIT_FOR_DIALOG_INTERACTION
107: 0x02FD [0x1C] WAIT(60* ticks)
108: 0x0300 [0x4A] Cornelia (ID: 17383461/0x01094025) looks at Raogrimm (ID: 17383460/0x01094024)
109: 0x0309 [0x1C] WAIT(60* ticks)
110: 0x030C [0x2A] GET_REQ_LEVEL(level=10, entity_id=Ulrich (ID: 17383462/0x01094026))
111: 0x0312 [0x27] REQ_SET(priority=0x0A, entity_id=Cornelia (ID: 17383461/0x01094025), tag_num=0x03)
112: 0x0319 [0x1C] WAIT(120* ticks)
113: 0x031C [0x45] LOAD_SCHEDULED_TASK: Load scheduler "who0" with entities [EventEntity, EventEntity], work=[201*, 0*]
114: 0x032D [0x1C] WAIT(20* ticks)
115: 0x0330 [0x45] LOAD_SCHEDULED_TASK: Load scheduler "whi0" with entities [EventEntity, EventEntity], work=[201*, 0*]
116: 0x0341 [0x45] LOAD_SCHEDULED_TASK: Load scheduler "s011" with entities [EventEntity, EventEntity], work=[48*, 0*]
117: 0x0352 [0x2C] CREATE_SCHEDULER_TASK: Create scheduler "res1" with entities [Raogrimm (ID: 17383460/0x01094024), Raogrimm (ID: 17383460/0x01094024)]
118: 0x035F [0x4E] SET_ENTITY_HIDE_FLAG: Show Quadav (ID: 17383463/0x01094027)
119: 0x0365 [0x1C] WAIT(60* ticks)
120: 0x0368 [0x2B] Raogrimm (ID: 17383460/0x01094024) [7245*]:
    → "As I thought...they were trying to protect their eggs..."
121: 0x036F [0x23] WAIT_FOR_DIALOG_INTERACTION
122: 0x0370 [0x2C] CREATE_SCHEDULER_TASK: Create scheduler "res2" with entities [Raogrimm (ID: 17383460/0x01094024), Raogrimm (ID: 17383460/0x01094024)]
123: 0x037D [0x1C] WAIT(90* ticks)
124: 0x0380 [0x2B] Raogrimm (ID: 17383460/0x01094024) [7246*]:
    → "But they don't even try to understand..."
125: 0x0387 [0x23] WAIT_FOR_DIALOG_INTERACTION
126: 0x0388 [0x2A] GET_REQ_LEVEL(level=10, entity_id=Cornelia (ID: 17383461/0x01094025))
127: 0x038E [0x45] LOAD_SCHEDULED_TASK: Load scheduler "who1" with entities [LocalPlayer, LocalPlayer], work=[201*, 0*]
128: 0x039F [0x1C] WAIT(65* ticks)
129: 0x03A2 [0x22] ENTITY_HIDE_FLAG(enabled=0x01)
130: 0x03A4 [0x38] SET_CLIENT_EVENT_MODE(mode=19*)
131: 0x03A7 [0x34] LOAD_UNLOAD_ZONE(zone_id=112*)
132: 0x03AA [0x77] SET_EVENT_TIME_WEATHER(hour=15*, weather=12*)
133: 0x03AF [0x1C] WAIT(1* ticks)
134: 0x03B2 [0x27] REQ_SET(priority=0x0A, entity_id=Ulrich (ID: 17383462/0x01094026), tag_num=0x04)
135: 0x03B9 [0x27] REQ_SET(priority=0x0A, entity_id=Raogrimm (ID: 17383460/0x01094024), tag_num=0x03)
136: 0x03C0 [0x27] REQ_SET(priority=0x0A, entity_id=Cornelia (ID: 17383461/0x01094025), tag_num=0x04)
137: 0x03C7 [0x80] LOAD_WAIT(entity=Raogrimm (ID: 17383460/0x01094024))
138: 0x03CC [0x66] LOAD_EXT_SCHEDULER_MAIN: Load scheduler "nir0" with entities [Raogrimm (ID: 17383460/0x01094024), Raogrimm (ID: 17383460/0x01094024)], work=63*
139: 0x03DB [0x45] LOAD_SCHEDULED_TASK: Load scheduler "s000" with entities [LocalPlayer, LocalPlayer], work=[48*, 0*]
140: 0x03EC [0x45] LOAD_SCHEDULED_TASK: Load scheduler "whi1" with entities [LocalPlayer, LocalPlayer], work=[201*, 0*]
141: 0x03FD [0x45] LOAD_SCHEDULED_TASK: Load scheduler "blon" with entities [LocalPlayer, LocalPlayer], work=[200*, 0*]
142: 0x040E [0x1C] WAIT(180* ticks)
143: 0x0411 [0x5B] LOAD_EXT_SCHEDULER: Load scheduler "tlb0" with entities [Ulrich (ID: 17383462/0x01094026), Ulrich (ID: 17383462/0x01094026)], work=200*
144: 0x0420 [0x2B] Ulrich (ID: 17383462/0x01094026) [7247*]:
    → "Is that all you've got, Raogrimm!?"
145: 0x0427 [0x23] WAIT_FOR_DIALOG_INTERACTION
146: 0x0428 [0x1C] WAIT(60* ticks)
147: 0x042B [0x2B] Raogrimm (ID: 17383460/0x01094024) [7248*]:
    → "Ulrich, why!?"
148: 0x0432 [0x23] WAIT_FOR_DIALOG_INTERACTION
149: 0x0433 [0x55] WAIT_LOAD_SCHEDULER: Wait for scheduler "s000" with entities [LocalPlayer, LocalPlayer], work=48*
150: 0x0442 [0x45] LOAD_SCHEDULED_TASK: Load scheduler "s001" with entities [LocalPlayer, LocalPlayer], work=[48*, 0*]
151: 0x0453 [0x1C] WAIT(60* ticks)
152: 0x0456 [0x27] REQ_SET(priority=0x0A, entity_id=Ulrich (ID: 17383462/0x01094026), tag_num=0x05)
153: 0x045D [0x2B] Ulrich (ID: 17383462/0x01094026) [7249*]:
    → "Why? Because I never liked you, that's why!"
154: 0x0464 [0x23] WAIT_FOR_DIALOG_INTERACTION
155: 0x0465 [0x2B] Raogrimm (ID: 17383460/0x01094024) [7250*]:
    → "You will never get away with this, Ulrich!"
156: 0x046C [0x23] WAIT_FOR_DIALOG_INTERACTION
157: 0x046D [0x55] WAIT_LOAD_SCHEDULER: Wait for scheduler "s001" with entities [LocalPlayer, LocalPlayer], work=48*
158: 0x047C [0x2A] GET_REQ_LEVEL(level=10, entity_id=Ulrich (ID: 17383462/0x01094026))
159: 0x0482 [0x45] LOAD_SCHEDULED_TASK: Load scheduler "s002" with entities [LocalPlayer, LocalPlayer], work=[48*, 0*]
160: 0x0493 [0x2B] Ulrich (ID: 17383462/0x01094026) [7251*]:
    → "Watch me!"
161: 0x049A [0x5B] LOAD_EXT_SCHEDULER: Load scheduler "sas0" with entities [Ulrich (ID: 17383462/0x01094026), Ulrich (ID: 17383462/0x01094026)], work=201*
162: 0x04A9 [0x1C] WAIT(18* ticks)
163: 0x04AC [0x45] LOAD_SCHEDULED_TASK: Load scheduler "who0" with entities [LocalPlayer, LocalPlayer], work=[201*, 0*]
164: 0x04BD [0x86] Cornelia (ID: 17383461/0x01094025)->Render.Flags3 ^= 0x01
165: 0x04C3 [0x1C] WAIT(20* ticks)
166: 0x04C6 [0x7B] Cornelia (ID: 17383461/0x01094025) stops talking
167: 0x04CB [0x4E] SET_ENTITY_HIDE_FLAG: Show Cornelia (ID: 17383461/0x01094025)
168: 0x04D1 [0x53] WAIT_SCHEDULER_TASK: Wait for scheduler "sas0" with entities [Ulrich (ID: 17383462/0x01094026), Ulrich (ID: 17383462/0x01094026)]
169: 0x04DE [0x80] LOAD_WAIT(entity=Cornelia (ID: 17383461/0x01094025))
170: 0x04E3 [0x66] LOAD_EXT_SCHEDULER_MAIN: Load scheduler "sas0" with entities [Cornelia (ID: 17383461/0x01094025), Cornelia (ID: 17383461/0x01094025)], work=12*
171: 0x04F2 [0x45] LOAD_SCHEDULED_TASK: Load scheduler "whi0" with entities [LocalPlayer, LocalPlayer], work=[201*, 0*]
172: 0x0503 [0x79] Raogrimm (ID: 17383460/0x01094024) looks at Cornelia (ID: 17383461/0x01094025) (Basic look)
173: 0x050D [0x1C] WAIT(60* ticks)
174: 0x0510 [0x2B] Raogrimm (ID: 17383460/0x01094024) [7252*]:
    → "...Cornelia!?"
175: 0x0517 [0x23] WAIT_FOR_DIALOG_INTERACTION
176: 0x0518 [0x27] REQ_SET(priority=0x0A, entity_id=Ulrich (ID: 17383462/0x01094026), tag_num=0x06)
177: 0x051F [0x66] LOAD_EXT_SCHEDULER_MAIN: Load scheduler "sas1" with entities [Cornelia (ID: 17383461/0x01094025), Cornelia (ID: 17383461/0x01094025)], work=12*
178: 0x052E [0x45] LOAD_SCHEDULED_TASK: Load scheduler "s012" with entities [LocalPlayer, LocalPlayer], work=[48*, 0*]
179: 0x053F [0x1C] WAIT(60* ticks)
180: 0x0542 [0x2B] Ulrich (ID: 17383462/0x01094026) [7253*]:
    → "Wh-what have I done!?"
181: 0x0549 [0x23] WAIT_FOR_DIALOG_INTERACTION
182: 0x054A [0x27] REQ_SET(priority=0x0A, entity_id=Ulrich (ID: 17383462/0x01094026), tag_num=0x07)
183: 0x0551 [0x53] WAIT_SCHEDULER_TASK: Wait for scheduler "sas1" with entities [Cornelia (ID: 17383461/0x01094025), Cornelia (ID: 17383461/0x01094025)]
184: 0x055E [0x45] LOAD_SCHEDULED_TASK: Load scheduler "who0" with entities [LocalPlayer, LocalPlayer], work=[201*, 0*]
185: 0x056F [0x1C] WAIT(20* ticks)
186: 0x0572 [0x27] REQ_SET(priority=0x0A, entity_id=Cornelia (ID: 17383461/0x01094025), tag_num=0x05)
187: 0x0579 [0x27] REQ_SET(priority=0x0A, entity_id=Raogrimm (ID: 17383460/0x01094024), tag_num=0x04)
188: 0x0580 [0x4E] SET_ENTITY_HIDE_FLAG: Hide Ulrich (ID: 17383462/0x01094026)
189: 0x0586 [0x2A] GET_REQ_LEVEL(level=10, entity_id=Raogrimm (ID: 17383460/0x01094024))
190: 0x058C [0x2A] GET_REQ_LEVEL(level=10, entity_id=Cornelia (ID: 17383461/0x01094025))
191: 0x0592 [0x66] LOAD_EXT_SCHEDULER_MAIN: Load scheduler "dak0" with entities [Raogrimm (ID: 17383460/0x01094024), Raogrimm (ID: 17383460/0x01094024)], work=63*
192: 0x05A1 [0x45] LOAD_SCHEDULED_TASK: Load scheduler "s003" with entities [LocalPlayer, LocalPlayer], work=[48*, 0*]
193: 0x05B2 [0x45] LOAD_SCHEDULED_TASK: Load scheduler "whi0" with entities [LocalPlayer, LocalPlayer], work=[201*, 0*]
194: 0x05C3 [0x2B] Raogrimm (ID: 17383460/0x01094024) [7254*]:
    → "Why...!?"
195: 0x05CA [0x23] WAIT_FOR_DIALOG_INTERACTION
196: 0x05CB [0x2B] Cornelia (ID: 17383461/0x01094025) [7255*]:
    → "I...couldn't let you die here, Raogrimm... There are people who need you..."
197: 0x05D2 [0x23] WAIT_FOR_DIALOG_INTERACTION
198: 0x05D3 [0x45] LOAD_SCHEDULED_TASK: Load scheduler "who0" with entities [LocalPlayer, LocalPlayer], work=[201*, 0*]
199: 0x05E4 [0x1C] WAIT(20* ticks)
200: 0x05E7 [0x52] END_LOAD_SCHEDULER: End scheduler "s003" with entities [LocalPlayer, LocalPlayer], work=48*
201: 0x05F6 [0x45] LOAD_SCHEDULED_TASK: Load scheduler "s004" with entities [LocalPlayer, LocalPlayer], work=[48*, 0*]
202: 0x0607 [0x45] LOAD_SCHEDULED_TASK: Load scheduler "whi0" with entities [LocalPlayer, LocalPlayer], work=[201*, 0*]
203: 0x0618 [0x2B] Raogrimm (ID: 17383460/0x01094024) [7256*]:
    → "Cornelia!!!"
204: 0x061F [0x23] WAIT_FOR_DIALOG_INTERACTION
205: 0x0620 [0x1C] WAIT(60* ticks)
206: 0x0623 [0x2B] Raogrimm (ID: 17383460/0x01094024) [7257*]:
    → "No... NOOOOO!"
207: 0x062A [0x23] WAIT_FOR_DIALOG_INTERACTION
208: 0x062B [0x66] LOAD_EXT_SCHEDULER_MAIN: Load scheduler "dak1" with entities [Raogrimm (ID: 17383460/0x01094024), Raogrimm (ID: 17383460/0x01094024)], work=63*
209: 0x063A [0x45] LOAD_SCHEDULED_TASK: Load scheduler "s005" with entities [LocalPlayer, LocalPlayer], work=[48*, 0*]
210: 0x064B [0x1C] WAIT(45* ticks)
211: 0x064E [0x45] LOAD_SCHEDULED_TASK: Load scheduler "who0" with entities [LocalPlayer, LocalPlayer], work=[201*, 0*]
212: 0x065F [0x1C] WAIT(15* ticks)
213: 0x0662 [0x45] LOAD_SCHEDULED_TASK: Load scheduler "s008" with entities [LocalPlayer, LocalPlayer], work=[48*, 0*]
214: 0x0673 [0x45] LOAD_SCHEDULED_TASK: Load scheduler "whi0" with entities [LocalPlayer, LocalPlayer], work=[201*, 0*]
215: 0x0684 [0x1C] WAIT(240* ticks)
216: 0x0687 [0x45] LOAD_SCHEDULED_TASK: Load scheduler "who1" with entities [LocalPlayer, LocalPlayer], work=[201*, 0*]
217: 0x0698 [0x5D] SET_MUSIC_VOLUME(volume=0*, fade_time=60*)
218: 0x069D [0x55] WAIT_LOAD_SCHEDULER: Wait for scheduler "who1" with entities [LocalPlayer, LocalPlayer], work=201*
219: 0x06AC [0x52] END_LOAD_SCHEDULER: End scheduler "s008" with entities [LocalPlayer, LocalPlayer], work=48*
220: 0x06BB [0x35] LOAD_ZONE_NO_CLOSE(zone_id=148*)
221: 0x06BE [0x4E] SET_ENTITY_HIDE_FLAG: Hide Raogrimm (ID: 17383460/0x01094024)
222: 0x06C4 [0x4E] SET_ENTITY_HIDE_FLAG: Hide Cornelia (ID: 17383461/0x01094025)
223: 0x06CA [0x1C] WAIT(1* ticks)
224: 0x06CD [0x46] CAMERA_CONTROL: Restore default settings
225: 0x06CF [0x78] ENABLE_GAME_TIMER_RESET_WEATHER()
226: 0x06D0 [0x45] LOAD_SCHEDULED_TASK: Load scheduler "whi1" with entities [LocalPlayer, LocalPlayer], work=[201*, 0*]
227: 0x06E1 [0x45] LOAD_SCHEDULED_TASK: Load scheduler "blof" with entities [LocalPlayer, LocalPlayer], work=[200*, 0*]
228: 0x06F2 [0x02] IF !(Work_Zone[2] == 0*) GOTO 0x06FB
229: 0x06FA [0x21] END_EVENT
230: 0x06FB [0x46] CAMERA_CONTROL: Disable user control
231: 0x06FD [0x22] ENTITY_HIDE_FLAG(enabled=0x00)
232: 0x06FF [0x37] UPDATE_EVENT_POSITION_AND_DIR: x=9.607*, z=-83.522*, y=24.490*, direction=116.0°*
233: 0x0708 [0x45] LOAD_SCHEDULED_TASK: Load scheduler "s013" with entities [LocalPlayer, LocalPlayer], work=[48*, 0*]
234: 0x0719 [0x1C] WAIT(240* ticks)
235: 0x071C [0x32] ExtData[1]->MainSpeed = 13* * 0.1
236: 0x071F [0x1F] MOVE_ENTITY: EventEntity moves to X=11.913*, Z=-81.426*, Y=25.937*
237: 0x0727 [0x1F] MOVE_ENTITY: Update entity position (mode=1)
238: 0x0729 [0x79] LocalPlayer looks at Lion (ID: 17383469/0x0109402D) (Basic look)
239: 0x0733 [0x79] Lion (ID: 17383469/0x0109402D) looks at LocalPlayer (Basic look)
240: 0x073D [0x27] REQ_SET(priority=0x0A, entity_id=Lion (ID: 17383469/0x0109402D), tag_num=0x02)
241: 0x0744 [0x1C] WAIT(60* ticks)
242: 0x0747 [0x2B] Lion (ID: 17383469/0x0109402D) [7259*]:
    → "So, that's what magicite looks like."
243: 0x074E [0x23] WAIT_FOR_DIALOG_INTERACTION
244: 0x074F [0x2A] GET_REQ_LEVEL(level=10, entity_id=Lion (ID: 17383469/0x0109402D))
245: 0x0755 [0x55] WAIT_LOAD_SCHEDULER: Wait for scheduler "s013" with entities [LocalPlayer, LocalPlayer], work=48*
246: 0x0764 [0x4E] SET_ENTITY_HIDE_FLAG: Hide LocalPlayer
247: 0x076A [0x45] LOAD_SCHEDULED_TASK: Load scheduler "s014" with entities [LocalPlayer, LocalPlayer], work=[48*, 0*]
248: 0x077B [0x5B] LOAD_EXT_SCHEDULER: Load scheduler "tlc2" with entities [Lion (ID: 17383469/0x0109402D), Lion (ID: 17383469/0x0109402D)], work=96*
249: 0x078A [0x27] REQ_SET(priority=0x0A, entity_id=Shadow of Darkness (ID: 17383470/0x0109402E), tag_num=0x02)
250: 0x0791 [0x2B] Lion (ID: 17383469/0x0109402D) [7260*]:
    → "What are they trying to do with it, though?"
251: 0x0798 [0x23] WAIT_FOR_DIALOG_INTERACTION
252: 0x0799 [0x1C] WAIT(10* ticks)
253: 0x079C [0x80] LOAD_WAIT(entity=Shadow of Darkness (ID: 17383470/0x0109402E))
254: 0x07A1 [0x5B] LOAD_EXT_SCHEDULER: Load scheduler "ukm0" with entities [Shadow of Darkness (ID: 17383470/0x0109402E), Shadow of Darkness (ID: 17383470/0x0109402E)], work=248*
255: 0x07B0 [0x1C] WAIT(15* ticks)
256: 0x07B3 [0x53] WAIT_SCHEDULER_TASK: Wait for scheduler "tlc2" with entities [Lion (ID: 17383469/0x0109402D), Lion (ID: 17383469/0x0109402D)]
257: 0x07C0 [0x4A] Lion (ID: 17383469/0x0109402D) looks at Shadow of Darkness (ID: 17383470/0x0109402E)
258: 0x07C9 [0x5D] SET_MUSIC_VOLUME(volume=127*, fade_time=1*)
259: 0x07CE [0x5C] MUSIC_CONTROL: Set Idle (Day) music to song 121*
260: 0x07D2 [0x5C] MUSIC_CONTROL: Set Idle (Night) music to song 121*
261: 0x07D6 [0x2B] Lion (ID: 17383469/0x0109402D) [7261*]:
    → "!!!"
262: 0x07DD [0x23] WAIT_FOR_DIALOG_INTERACTION
263: 0x07DE [0x27] REQ_SET(priority=0x0A, entity_id=Lion (ID: 17383469/0x0109402D), tag_num=0x03)
264: 0x07E5 [0x1C] WAIT(30* ticks)
265: 0x07E8 [0x45] LOAD_SCHEDULED_TASK: Load scheduler "s015" with entities [LocalPlayer, LocalPlayer], work=[48*, 0*]
266: 0x07F9 [0x4E] SET_ENTITY_HIDE_FLAG: Show LocalPlayer
267: 0x07FF [0x4A] LocalPlayer looks at Shadow of Darkness (ID: 17383470/0x0109402E)
268: 0x0808 [0x1C] WAIT(150* ticks)
269: 0x080B [0x2B] Shadow of Darkness (ID: 17383470/0x0109402E) [7262*]:
    → "You are too late... I have already awakened."
270: 0x0812 [0x23] WAIT_FOR_DIALOG_INTERACTION
271: 0x0813 [0x2B] Shadow of Darkness (ID: 17383470/0x0109402E) [7263*]:
    → "Your rage, cowardice, envy, arrogance, and apathy...from these I will spread the bane that will destroy Vana'diel."
272: 0x081A [0x23] WAIT_FOR_DIALOG_INTERACTION
273: 0x081B [0x2A] GET_REQ_LEVEL(level=10, entity_id=Lion (ID: 17383469/0x0109402D))
274: 0x0821 [0x5B] LOAD_EXT_SCHEDULER: Load scheduler "tla0" with entities [Lion (ID: 17383469/0x0109402D), Lion (ID: 17383469/0x0109402D)], work=96*
275: 0x0830 [0x2B] Lion (ID: 17383469/0x0109402D) [7264*]:
    → "Who are you!?"
276: 0x0837 [0x23] WAIT_FOR_DIALOG_INTERACTION
277: 0x0838 [0x55] WAIT_LOAD_SCHEDULER: Wait for scheduler "s015" with entities [LocalPlayer, LocalPlayer], work=48*
278: 0x0847 [0x45] LOAD_SCHEDULED_TASK: Load scheduler "s016" with entities [LocalPlayer, LocalPlayer], work=[48*, 0*]
279: 0x0858 [0x5B] LOAD_EXT_SCHEDULER: Load scheduler "tla1" with entities [Lion (ID: 17383469/0x0109402D), Lion (ID: 17383469/0x0109402D)], work=96*
280: 0x0867 [0x2B] Shadow of Darkness (ID: 17383470/0x0109402E) [7265*]:
    → "Your kind awakened me...and this time, you will be destroyed!"
281: 0x086E [0x23] WAIT_FOR_DIALOG_INTERACTION
282: 0x086F [0x5B] LOAD_EXT_SCHEDULER: Load scheduler "utu0" with entities [Shadow of Darkness (ID: 17383470/0x0109402E), Shadow of Darkness (ID: 17383470/0x0109402E)], work=248*
283: 0x087E [0x5B] LOAD_EXT_SCHEDULER: Load scheduler "thk1" with entities [Lion (ID: 17383469/0x0109402D), Lion (ID: 17383469/0x0109402D)], work=95*
284: 0x088D [0x2B] Shadow of Darkness (ID: 17383470/0x0109402E) [7266*]:
    → "You cannot stop me. Vana'diel will be the grave for you and all your kind!"
285: 0x0894 [0x23] WAIT_FOR_DIALOG_INTERACTION
286: 0x0895 [0x6C] FADE_ENTITY_COLOR(entity_id=Shadow of Darkness (ID: 17383470/0x0109402E), end_alpha=0*, fade_time=120*)
287: 0x089E [0x45] LOAD_SCHEDULED_TASK: Load scheduler "fdo1" with entities [LocalPlayer, LocalPlayer], work=[200*, 0*]
288: 0x08AF [0x1C] WAIT(90* ticks)
289: 0x08B2 [0x52] END_LOAD_SCHEDULER: End scheduler "s016" with entities [LocalPlayer, LocalPlayer], work=48*
290: 0x08C1 [0x45] LOAD_SCHEDULED_TASK: Load scheduler "fdi1" with entities [LocalPlayer, LocalPlayer], work=[200*, 0*]
291: 0x08D2 [0x45] LOAD_SCHEDULED_TASK: Load scheduler "s017" with entities [LocalPlayer, LocalPlayer], work=[48*, 0*]
292: 0x08E3 [0x79] LocalPlayer looks at Lion (ID: 17383469/0x0109402D) (Basic look)
293: 0x08ED [0x1C] WAIT(30* ticks)
294: 0x08F0 [0x2B] Lion (ID: 17383469/0x0109402D) [7267*]:
    → "The Shadow Lord!? It can't be! His powers couldn't have returned!?"
295: 0x08F7 [0x23] WAIT_FOR_DIALOG_INTERACTION
296: 0x08F8 [0x5B] LOAD_EXT_SCHEDULER: Load scheduler "thk2" with entities [Lion (ID: 17383469/0x0109402D), Lion (ID: 17383469/0x0109402D)], work=95*
297: 0x0907 [0x2B] Lion (ID: 17383469/0x0109402D) [7268*]:
    → "Then it is true. The beastmen are trying to bring back the Shadow Lord."
298: 0x090E [0x23] WAIT_FOR_DIALOG_INTERACTION
299: 0x090F [0x4A] Lion (ID: 17383469/0x0109402D) looks at LocalPlayer
300: 0x0918 [0x2B] Lion (ID: 17383469/0x0109402D) [7269*]:
    → "...Be careful."
301: 0x091F [0x23] WAIT_FOR_DIALOG_INTERACTION
302: 0x0920 [0x27] REQ_SET(priority=0x0A, entity_id=Lion (ID: 17383469/0x0109402D), tag_num=0x04)
303: 0x0927 [0x1C] WAIT(60* ticks)
304: 0x092A [0x5D] SET_MUSIC_VOLUME(volume=0*, fade_time=60*)
305: 0x092F [0x45] LOAD_SCHEDULED_TASK: Load scheduler "fdo1" with entities [LocalPlayer, LocalPlayer], work=[200*, 0*]
306: 0x0940 [0x1C] WAIT(60* ticks)
307: 0x0943 [0x52] END_LOAD_SCHEDULER: End scheduler "s017" with entities [LocalPlayer, LocalPlayer], work=48*
308: 0x0952 [0x46] CAMERA_CONTROL: Restore default settings
309: 0x0954 [0x45] LOAD_SCHEDULED_TASK: Load scheduler "fdi2" with entities [LocalPlayer, LocalPlayer], work=[200*, 0*]
310: 0x0965 [0x5C] MUSIC_CONTROL: Set Idle (Day) music to song 0*
311: 0x0969 [0x5C] MUSIC_CONTROL: Set Idle (Night) music to song 0*
312: 0x096D [0x5D] SET_MUSIC_VOLUME(volume=127*, fade_time=60*)
313: 0x0972 [0x21] END_EVENT
314: 0x0973 [0x00] END_REQSTACK()
```

### Event 60

#### Metadata

| Field        | Value      |
|--------------|------------|
| Entrypoint   | 0x0974     |
| Data Size    | 1179 bytes |
| Instructions | 147        |

```
      00 01 02 03 04 05 06 07  08 09 0A 0B 0C 0D 0E 0F
      -- -- -- -- -- -- -- --  -- -- -- -- -- -- -- --
0970:             42 46 01 5D  00 80 01 80 45 03 80 F0      BF.]....E...
0980: FF FF 7F F0 FF FF 7F 66  64 6F 31 00 80 55 03 80  .......fdo1..U..
0990: F0 FF FF 7F F0 FF FF 7F  66 64 6F 31 5C 00 4C 80  ........fdo1\.L.
09A0: 5C 01 4C 80 38 08 80 37  4D 80 4E 80 4F 80 50 80  \.L.8..7M.N.O.P.
09B0: 4E 00 3E 40 09 01 22 00  45 02 80 F0 FF FF 7F F0  N.>@..".E.......
09C0: FF FF 7F 73 30 37 36 00  80 45 03 80 F0 FF FF 7F  ...s076..E......
09D0: F0 FF FF 7F 66 64 69 31  00 80 32 37 80 1F 00 51  ....fdi1..27...Q
09E0: 80 52 80 53 80 1F 01 55  02 80 F0 FF FF 7F F0 FF  .R.S...U........
09F0: FF 7F 73 30 37 36 45 03  80 F0 FF FF 7F F0 FF FF  ..s076E.........
0A00: 7F 6F 76 6C 31 00 80 45  02 80 F0 FF FF 7F F0 FF  .ovl1..E........
0A10: FF 7F 73 30 37 37 00 80  4A 3E 40 09 01 F0 FF FF  ..s077..J>@.....
0A20: 7F 1C 30 80 2B 3E 40 09  01 54 80 23 27 0A 3E 40  ..0.+>@..T.#'.>@
0A30: 09 01 02 1C 01 80 45 02  80 F0 FF FF 7F F0 FF FF  ......E.........
0A40: 7F 73 30 37 38 00 80 1C  30 80 2B 3E 40 09 01 55  .s078...0.+>@..U
0A50: 80 23 2A 0A 3E 40 09 01  4B 3E 40 09 01 00 80 52  .#*.>@..K>@....R
0A60: 02 80 F0 FF FF 7F F0 FF  FF 7F 73 30 37 38 45 02  ..........s078E.
0A70: 80 F0 FF FF 7F F0 FF FF  7F 73 30 37 39 00 80 2B  .........s079..+
0A80: 3E 40 09 01 56 80 23 5B  57 80 3E 40 09 01 3E 40  >@..V.#[W.>@..>@
0A90: 09 01 74 6C 6B 30 2B 3E  40 09 01 58 80 23 5B 57  ..tlk0+>@..X.#[W
0AA0: 80 3E 40 09 01 3E 40 09  01 74 6C 6B 31 4A 3E 40  .>@..>@..tlk1J>@
0AB0: 09 01 F0 FF FF 7F 2B 3E  40 09 01 59 80 23 7B 3E  ......+>@..Y.#{>
0AC0: 40 09 01 22 01 52 02 80  F0 FF FF 7F F0 FF FF 7F  @..".R..........
0AD0: 73 30 37 39 45 02 80 F0  FF FF 7F F0 FF FF 7F 73  s079E..........s
0AE0: 30 38 30 00 80 5B 57 80  3E 40 09 01 3E 40 09 01  080..[W.>@..>@..
0AF0: 74 6C 6B 30 2B 3E 40 09  01 5A 80 23 5B 57 80 3E  tlk0+>@..Z.#[W.>
0B00: 40 09 01 3E 40 09 01 74  6C 6B 31 2B 3E 40 09 01  @..>@..tlk1+>@..
0B10: 5B 80 23 45 03 80 F0 FF  FF 7F F0 FF FF 7F 6F 76  [.#E..........ov
0B20: 6C 31 00 80 22 00 52 02  80 F0 FF FF 7F F0 FF FF  l1..".R.........
0B30: 7F 73 30 38 30 45 02 80  F0 FF FF 7F F0 FF FF 7F  .s080E..........
0B40: 73 30 38 31 00 80 5B 57  80 3E 40 09 01 3E 40 09  s081..[W.>@..>@.
0B50: 01 74 6C 6B 30 2B 3E 40  09 01 5C 80 23 2B 3E 40  .tlk0+>@..\.#+>@
0B60: 09 01 5D 80 23 5B 57 80  3E 40 09 01 3E 40 09 01  ..].#[W.>@..>@..
0B70: 74 6C 6B 31 2B 3E 40 09  01 5E 80 23 52 02 80 F0  tlk1+>@..^.#R...
0B80: FF FF 7F F0 FF FF 7F 73  30 38 31 45 02 80 F0 FF  .......s081E....
0B90: FF 7F F0 FF FF 7F 73 30  38 32 00 80 79 00 3E 40  ......s082..y.>@
0BA0: 09 01 F0 FF FF 7F 5B 57  80 3E 40 09 01 3E 40 09  ......[W.>@..>@.
0BB0: 01 74 6C 6B 30 2B 3E 40  09 01 5F 80 23 5B 57 80  .tlk0+>@.._.#[W.
0BC0: 3E 40 09 01 3E 40 09 01  74 6C 6B 31 24 60 80 00  >@..>@..tlk1$`..
0BD0: 80 00 80 25 02 00 10 06  80 00 1C 0C 7B 3E 40 09  ...%........{>@.
0BE0: 01 2B 3E 40 09 01 61 80  23 27 0A 3E 40 09 01 03  .+>@..a.#'.>@...
0BF0: 52 02 80 F0 FF FF 7F F0  FF FF 7F 73 30 38 32 45  R..........s082E
0C00: 02 80 F0 FF FF 7F F0 FF  FF 7F 73 30 38 33 00 80  ..........s083..
0C10: 1C 12 80 05 01 10 01 A0  0D 01 1C 0C 52 02 80 F0  ............R...
0C20: FF FF 7F F0 FF FF 7F 73  30 38 32 45 02 80 F0 FF  .......s082E....
0C30: FF 7F F0 FF FF 7F 73 30  38 33 00 80 27 0A 3E 40  ......s083..'.>@
0C40: 09 01 03 2B 3E 40 09 01  62 80 1C 01 80 1E 3E 40  ...+>@..b.....>@
0C50: 09 01 23 7B 3E 40 09 01  2B 3E 40 09 01 63 80 23  ..#{>@..+>@..c.#
0C60: 79 00 3E 40 09 01 F0 FF  FF 7F 2B 3E 40 09 01 64  y.>@......+>@..d
0C70: 80 1C 01 80 2A 0A 3E 40  09 01 1E 3E 40 09 01 23  ....*.>@...>@..#
0C80: 4B 3E 40 09 01 65 80 79  00 3E 40 09 01 F0 FF FF  K>@..e.y.>@.....
0C90: 7F 52 02 80 F0 FF FF 7F  F0 FF FF 7F 73 30 38 33  .R..........s083
0CA0: 45 02 80 F0 FF FF 7F F0  FF FF 7F 73 30 38 34 00  E..........s084.
0CB0: 80 2B 3E 40 09 01 66 80  23 24 67 80 00 80 00 80  .+>@..f.#$g.....
0CC0: 25 02 00 10 06 80 00 E6  0C 7B 3E 40 09 01 2B 3E  %........{>@..+>
0CD0: 40 09 01 68 80 23 27 0A  3E 40 09 01 04 05 01 10  @..h.#'.>@......
0CE0: 01 A0 0D 01 E6 0C 5B 57  80 3E 40 09 01 3E 40 09  ......[W.>@..>@.
0CF0: 01 74 6C 6B 30 2B 3E 40  09 01 69 80 23 52 02 80  .tlk0+>@..i.#R..
0D00: F0 FF FF 7F F0 FF FF 7F  73 30 38 34 45 02 80 F0  ........s084E...
0D10: FF FF 7F F0 FF FF 7F 73  30 38 35 00 80 5B 57 80  .......s085..[W.
0D20: 3E 40 09 01 3E 40 09 01  74 6C 6B 31 2B 3E 40 09  >@..>@..tlk1+>@.
0D30: 01 6A 80 23 7B 3E 40 09  01 2B 3E 40 09 01 6B 80  .j.#{>@..+>@..k.
0D40: 23 79 00 3E 40 09 01 F0  FF FF 7F 5B 57 80 3E 40  #y.>@......[W.>@
0D50: 09 01 3E 40 09 01 74 6C  6B 30 2B 3E 40 09 01 6C  ..>@..tlk0+>@..l
0D60: 80 23 5B 57 80 3E 40 09  01 3E 40 09 01 74 6C 6B  .#[W.>@..>@..tlk
0D70: 31 52 02 80 F0 FF FF 7F  F0 FF FF 7F 73 30 38 35  1R..........s085
0D80: 45 02 80 F0 FF FF 7F F0  FF FF 7F 73 30 38 36 00  E..........s086.
0D90: 80 2B 3E 40 09 01 6D 80  23 27 0A 3E 40 09 01 04  .+>@..m.#'.>@...
0DA0: 5D 00 80 17 80 45 03 80  F0 FF FF 7F F0 FF FF 7F  ]....E..........
0DB0: 66 64 6F 32 00 80 55 03  80 F0 FF FF 7F F0 FF FF  fdo2..U.........
0DC0: 7F 66 64 6F 32 52 02 80  F0 FF FF 7F F0 FF FF 7F  .fdo2R..........
0DD0: 73 30 38 33 52 02 80 F0  FF FF 7F F0 FF FF 7F 73  s083R..........s
0DE0: 30 38 34 52 02 80 F0 FF  FF 7F F0 FF FF 7F 73 30  084R..........s0
0DF0: 38 36 5C 00 00 80 5C 01  00 80 46 00 45 03 80 F0  86\...\...F.E...
0E00: FF FF 7F F0 FF FF 7F 66  64 69 31 00 80 21 00     .......fdi1..!. 
```

#### Opcodes

```
  0: 0x0974 [0x42] SET_CLI_EVENT_CANCEL_DATA()
  1: 0x0975 [0x46] CAMERA_CONTROL: Disable user control
  2: 0x0977 [0x5D] SET_MUSIC_VOLUME(volume=0*, fade_time=60*)
  3: 0x097C [0x45] LOAD_SCHEDULED_TASK: Load scheduler "fdo1" with entities [LocalPlayer, LocalPlayer], work=[200*, 0*]
  4: 0x098D [0x55] WAIT_LOAD_SCHEDULER: Wait for scheduler "fdo1" with entities [LocalPlayer, LocalPlayer], work=200*
  5: 0x099C [0x5C] MUSIC_CONTROL: Set Idle (Day) music to song 163*
  6: 0x09A0 [0x5C] MUSIC_CONTROL: Set Idle (Night) music to song 163*
  7: 0x09A4 [0x38] SET_CLIENT_EVENT_MODE(mode=19*)
  8: 0x09A7 [0x37] UPDATE_EVENT_POSITION_AND_DIR: x=9.587*, z=61.639*, y=23.698*, direction=7.2°*
  9: 0x09B0 [0x4E] SET_ENTITY_HIDE_FLAG: Show Raptorlegs Gedwad (ID: 17383486/0x0109403E)
 10: 0x09B6 [0x22] ENTITY_HIDE_FLAG(enabled=0x00)
 11: 0x09B8 [0x45] LOAD_SCHEDULED_TASK: Load scheduler "s076" with entities [LocalPlayer, LocalPlayer], work=[5*, 0*]
 12: 0x09C9 [0x45] LOAD_SCHEDULED_TASK: Load scheduler "fdi1" with entities [LocalPlayer, LocalPlayer], work=[200*, 0*]
 13: 0x09DA [0x32] ExtData[1]->MainSpeed = 13* * 0.1
 14: 0x09DD [0x1F] MOVE_ENTITY: EventEntity moves to X=12.091*, Z=61.322*, Y=23.775*
 15: 0x09E5 [0x1F] MOVE_ENTITY: Update entity position (mode=1)
 16: 0x09E7 [0x55] WAIT_LOAD_SCHEDULER: Wait for scheduler "s076" with entities [LocalPlayer, LocalPlayer], work=5*
 17: 0x09F6 [0x45] LOAD_SCHEDULED_TASK: Load scheduler "ovl1" with entities [LocalPlayer, LocalPlayer], work=[200*, 0*]
 18: 0x0A07 [0x45] LOAD_SCHEDULED_TASK: Load scheduler "s077" with entities [LocalPlayer, LocalPlayer], work=[5*, 0*]
 19: 0x0A18 [0x4A] Raptorlegs Gedwad (ID: 17383486/0x0109403E) looks at LocalPlayer
 20: 0x0A21 [0x1C] WAIT(45* ticks)
 21: 0x0A24 [0x2B] Raptorlegs Gedwad (ID: 17383486/0x0109403E) [7376*]:
    → "Huh? Adventurer?"
 22: 0x0A2B [0x23] WAIT_FOR_DIALOG_INTERACTION
 23: 0x0A2C [0x27] REQ_SET(priority=0x0A, entity_id=Raptorlegs Gedwad (ID: 17383486/0x0109403E), tag_num=0x02)
 24: 0x0A33 [0x1C] WAIT(60* ticks)
 25: 0x0A36 [0x45] LOAD_SCHEDULED_TASK: Load scheduler "s078" with entities [LocalPlayer, LocalPlayer], work=[5*, 0*]
 26: 0x0A47 [0x1C] WAIT(45* ticks)
 27: 0x0A4A [0x2B] Raptorlegs Gedwad (ID: 17383486/0x0109403E) [7377*]:
    → "You there! Help Orc friend!"
 28: 0x0A51 [0x23] WAIT_FOR_DIALOG_INTERACTION
 29: 0x0A52 [0x2A] GET_REQ_LEVEL(level=10, entity_id=Raptorlegs Gedwad (ID: 17383486/0x0109403E))
 30: 0x0A58 [0x4B] UPDATE_ENTITY_YAW(entity=Raptorlegs Gedwad (ID: 17383486/0x0109403E), yaw=0.0°*)
 31: 0x0A5F [0x52] END_LOAD_SCHEDULER: End scheduler "s078" with entities [LocalPlayer, LocalPlayer], work=5*
 32: 0x0A6E [0x45] LOAD_SCHEDULED_TASK: Load scheduler "s079" with entities [LocalPlayer, LocalPlayer], work=[5*, 0*]
 33: 0x0A7F [0x2B] Raptorlegs Gedwad (ID: 17383486/0x0109403E) [7378*]:
    → "......"
 34: 0x0A86 [0x23] WAIT_FOR_DIALOG_INTERACTION
 35: 0x0A87 [0x5B] LOAD_EXT_SCHEDULER: Load scheduler "tlk0" with entities [Raptorlegs Gedwad (ID: 17383486/0x0109403E), Raptorlegs Gedwad (ID: 17383486/0x0109403E)], work=225*
 36: 0x0A96 [0x2B] Raptorlegs Gedwad (ID: 17383486/0x0109403E) [7379*]:
    → "Gah hah ha! Turtle cowards! Gedwad's plan work! Turtles think you Gedwad's army! Now Gedwad rest..."
 37: 0x0A9D [0x23] WAIT_FOR_DIALOG_INTERACTION
 38: 0x0A9E [0x5B] LOAD_EXT_SCHEDULER: Load scheduler "tlk1" with entities [Raptorlegs Gedwad (ID: 17383486/0x0109403E), Raptorlegs Gedwad (ID: 17383486/0x0109403E)], work=225*
 39: 0x0AAD [0x4A] Raptorlegs Gedwad (ID: 17383486/0x0109403E) looks at LocalPlayer
 40: 0x0AB6 [0x2B] Raptorlegs Gedwad (ID: 17383486/0x0109403E) [7380*]:
    → "...Eh? Oh! Gedwad no say thank you to adventurer!"
 41: 0x0ABD [0x23] WAIT_FOR_DIALOG_INTERACTION
 42: 0x0ABE [0x7B] Raptorlegs Gedwad (ID: 17383486/0x0109403E) stops talking
 43: 0x0AC3 [0x22] ENTITY_HIDE_FLAG(enabled=0x01)
 44: 0x0AC5 [0x52] END_LOAD_SCHEDULER: End scheduler "s079" with entities [LocalPlayer, LocalPlayer], work=5*
 45: 0x0AD4 [0x45] LOAD_SCHEDULED_TASK: Load scheduler "s080" with entities [LocalPlayer, LocalPlayer], work=[5*, 0*]
 46: 0x0AE5 [0x5B] LOAD_EXT_SCHEDULER: Load scheduler "tlk0" with entities [Raptorlegs Gedwad (ID: 17383486/0x0109403E), Raptorlegs Gedwad (ID: 17383486/0x0109403E)], work=225*
 47: 0x0AF4 [0x2B] Raptorlegs Gedwad (ID: 17383486/0x0109403E) [7381*]:
    → "Thank you to adventurer! Gedwad saved by <Player>!"
 48: 0x0AFB [0x23] WAIT_FOR_DIALOG_INTERACTION
 49: 0x0AFC [0x5B] LOAD_EXT_SCHEDULER: Load scheduler "tlk1" with entities [Raptorlegs Gedwad (ID: 17383486/0x0109403E), Raptorlegs Gedwad (ID: 17383486/0x0109403E)], work=225*
 50: 0x0B0B [0x2B] Raptorlegs Gedwad (ID: 17383486/0x0109403E) [7382*]:
    → "How Gedwad know adventurer name? Trooper first class Raptorlegs Gedwad of Gochakzuk's Gravemakers know everything. Collecting information Gedwad's job!"
 51: 0x0B12 [0x23] WAIT_FOR_DIALOG_INTERACTION
 52: 0x0B13 [0x45] LOAD_SCHEDULED_TASK: Load scheduler "ovl1" with entities [LocalPlayer, LocalPlayer], work=[200*, 0*]
 53: 0x0B24 [0x22] ENTITY_HIDE_FLAG(enabled=0x00)
 54: 0x0B26 [0x52] END_LOAD_SCHEDULER: End scheduler "s080" with entities [LocalPlayer, LocalPlayer], work=5*
 55: 0x0B35 [0x45] LOAD_SCHEDULED_TASK: Load scheduler "s081" with entities [LocalPlayer, LocalPlayer], work=[5*, 0*]
 56: 0x0B46 [0x5B] LOAD_EXT_SCHEDULER: Load scheduler "tlk0" with entities [Raptorlegs Gedwad (ID: 17383486/0x0109403E), Raptorlegs Gedwad (ID: 17383486/0x0109403E)], work=225*
 57: 0x0B55 [0x2B] Raptorlegs Gedwad (ID: 17383486/0x0109403E) [7383*]:
    → "Adventurer never hear of Gravemakers? Of course no hear of Gravemakers! Gravemakers secret team! Gravemakers... Ah! Forget what Gedwad say!"
 58: 0x0B5C [0x23] WAIT_FOR_DIALOG_INTERACTION
 59: 0x0B5D [0x2B] Raptorlegs Gedwad (ID: 17383486/0x0109403E) [7384*]:
    → "Gedwad use speed and cunning. Gedwad sneak into turtle lair and get information for mighty Empire."
 60: 0x0B64 [0x23] WAIT_FOR_DIALOG_INTERACTION
 61: 0x0B65 [0x5B] LOAD_EXT_SCHEDULER: Load scheduler "tlk1" with entities [Raptorlegs Gedwad (ID: 17383486/0x0109403E), Raptorlegs Gedwad (ID: 17383486/0x0109403E)], work=225*
 62: 0x0B74 [0x2B] Raptorlegs Gedwad (ID: 17383486/0x0109403E) [7385*]:
    → "But Gedwad have trouble. Turtles find Gedwad. Turtles send more guards. Now Gedwad no enter lair. Now Gedwad no use spybats..."
 63: 0x0B7B [0x23] WAIT_FOR_DIALOG_INTERACTION
 64: 0x0B7C [0x52] END_LOAD_SCHEDULER: End scheduler "s081" with entities [LocalPlayer, LocalPlayer], work=5*
 65: 0x0B8B [0x45] LOAD_SCHEDULED_TASK: Load scheduler "s082" with entities [LocalPlayer, LocalPlayer], work=[5*, 0*]
 66: 0x0B9C [0x79] Raptorlegs Gedwad (ID: 17383486/0x0109403E) looks at LocalPlayer (Basic look)
 67: 0x0BA6 [0x5B] LOAD_EXT_SCHEDULER: Load scheduler "tlk0" with entities [Raptorlegs Gedwad (ID: 17383486/0x0109403E), Raptorlegs Gedwad (ID: 17383486/0x0109403E)], work=225*
 68: 0x0BB5 [0x2B] Raptorlegs Gedwad (ID: 17383486/0x0109403E) [7386*]:
    → "Adventurer! You know why Gedwad blabber top-secret information to you?"
 69: 0x0BBC [0x23] WAIT_FOR_DIALOG_INTERACTION
 70: 0x0BBD [0x5B] LOAD_EXT_SCHEDULER: Load scheduler "tlk1" with entities [Raptorlegs Gedwad (ID: 17383486/0x0109403E), Raptorlegs Gedwad (ID: 17383486/0x0109403E)], work=225*
 71: 0x0BCC [0x24] CREATE_DIALOG(message_id=7387*, default_option=0*, option_flags=0*)
    → "You understand? [You need some help./You need a friend.]"
 72: 0x0BD3 [0x25] WAIT_DIALOG_SELECT()
 73: 0x0BD4 [0x02] IF !(Work_Zone[0] == 1*) GOTO 0x0C1C
 74: 0x0BDC [0x7B] Raptorlegs Gedwad (ID: 17383486/0x0109403E) stops talking
 75: 0x0BE1 [0x2B] Raptorlegs Gedwad (ID: 17383486/0x0109403E) [7388*]:
    → "Gedwad no need friend! Gedwad need Orcish axe to slice adventurer head! Adventurer more stupid than Orc!"
 76: 0x0BE8 [0x23] WAIT_FOR_DIALOG_INTERACTION
 77: 0x0BE9 [0x27] REQ_SET(priority=0x0A, entity_id=Raptorlegs Gedwad (ID: 17383486/0x0109403E), tag_num=0x03)
 78: 0x0BF0 [0x52] END_LOAD_SCHEDULER: End scheduler "s082" with entities [LocalPlayer, LocalPlayer], work=5*
 79: 0x0BFF [0x45] LOAD_SCHEDULED_TASK: Load scheduler "s083" with entities [LocalPlayer, LocalPlayer], work=[5*, 0*]
 80: 0x0C10 [0x1C] WAIT(90* ticks)
 81: 0x0C13 [0x05] Work_Zone[1] = 1
 82: 0x0C16 [0x01] GOTO 0x0DA0

SUBROUTINE_0C1C:
 83: 0x0C1C [0x52] END_LOAD_SCHEDULER: End scheduler "s082" with entities [LocalPlayer, LocalPlayer], work=5*
 84: 0x0C2B [0x45] LOAD_SCHEDULED_TASK: Load scheduler "s083" with entities [LocalPlayer, LocalPlayer], work=[5*, 0*]
 85: 0x0C3C [0x27] REQ_SET(priority=0x0A, entity_id=Raptorlegs Gedwad (ID: 17383486/0x0109403E), tag_num=0x03)
 86: 0x0C43 [0x2B] Raptorlegs Gedwad (ID: 17383486/0x0109403E) [7389*]:
    → "Oh! Adventurer smart as Orc! Let Gedwad explain mission! Adventurer sneak into cave. Check turtle forces."
 87: 0x0C4A [0x1C] WAIT(60* ticks)
 88: 0x0C4D [0x1E] EventEntity looks at Raptorlegs Gedwad (ID: 17383486/0x0109403E) and starts talking
 89: 0x0C52 [0x23] WAIT_FOR_DIALOG_INTERACTION
 90: 0x0C53 [0x7B] Raptorlegs Gedwad (ID: 17383486/0x0109403E) stops talking
 91: 0x0C58 [0x2B] Raptorlegs Gedwad (ID: 17383486/0x0109403E) [7390*]:
    → "If forces weak, Orc Empire attack and take cave! If Orc Empire take cave, less turtles for adventurers to fight! Orcs win, adventurers win!"
 92: 0x0C5F [0x23] WAIT_FOR_DIALOG_INTERACTION
 93: 0x0C60 [0x79] Raptorlegs Gedwad (ID: 17383486/0x0109403E) looks at LocalPlayer (Basic look)
 94: 0x0C6A [0x2B] Raptorlegs Gedwad (ID: 17383486/0x0109403E) [7391*]:
    → "Mission easy. Take spybats and hide near king."
 95: 0x0C71 [0x1C] WAIT(60* ticks)
 96: 0x0C74 [0x2A] GET_REQ_LEVEL(level=10, entity_id=Raptorlegs Gedwad (ID: 17383486/0x0109403E))
 97: 0x0C7A [0x1E] EventEntity looks at Raptorlegs Gedwad (ID: 17383486/0x0109403E) and starts talking
 98: 0x0C7F [0x23] WAIT_FOR_DIALOG_INTERACTION
 99: 0x0C80 [0x4B] UPDATE_ENTITY_YAW(entity=Raptorlegs Gedwad (ID: 17383486/0x0109403E), yaw=14.3°*)
100: 0x0C87 [0x79] Raptorlegs Gedwad (ID: 17383486/0x0109403E) looks at LocalPlayer (Basic look)
101: 0x0C91 [0x52] END_LOAD_SCHEDULER: End scheduler "s083" with entities [LocalPlayer, LocalPlayer], work=5*
102: 0x0CA0 [0x45] LOAD_SCHEDULED_TASK: Load scheduler "s084" with entities [LocalPlayer, LocalPlayer], work=[5*, 0*]
103: 0x0CB1 [0x2B] Raptorlegs Gedwad (ID: 17383486/0x0109403E) [7392*]:
    → "Spybats do rest. When spybats get info, spybats fly back to Gedwad. When spybats fly back to Gedwad, adventurer gets gold. Easy mission! Easy mission!"
104: 0x0CB8 [0x23] WAIT_FOR_DIALOG_INTERACTION
105: 0x0CB9 [0x24] CREATE_DIALOG(message_id=7393*, default_option=0*, option_flags=0*)
    → "What say? [Easy mission!/Good day!]"
106: 0x0CC0 [0x25] WAIT_DIALOG_SELECT()
107: 0x0CC1 [0x02] IF !(Work_Zone[0] == 1*) GOTO 0x0CE6
108: 0x0CC9 [0x7B] Raptorlegs Gedwad (ID: 17383486/0x0109403E) stops talking
109: 0x0CCE [0x2B] Raptorlegs Gedwad (ID: 17383486/0x0109403E) [7394*]:
    → "Adventurer kill beastmen for gil, but adventurer no take beastman offer for gil. Adventurer more ruthless than Orc..."
110: 0x0CD5 [0x23] WAIT_FOR_DIALOG_INTERACTION
111: 0x0CD6 [0x27] REQ_SET(priority=0x0A, entity_id=Raptorlegs Gedwad (ID: 17383486/0x0109403E), tag_num=0x04)
112: 0x0CDD [0x05] Work_Zone[1] = 1
113: 0x0CE0 [0x01] GOTO 0x0DA0

SUBROUTINE_0CE6:
114: 0x0CE6 [0x5B] LOAD_EXT_SCHEDULER: Load scheduler "tlk0" with entities [Raptorlegs Gedwad (ID: 17383486/0x0109403E), Raptorlegs Gedwad (ID: 17383486/0x0109403E)], work=225*
115: 0x0CF5 [0x2B] Raptorlegs Gedwad (ID: 17383486/0x0109403E) [7395*]:
    → "Noble Gedwad like noble adventurer spirit!"
116: 0x0CFC [0x23] WAIT_FOR_DIALOG_INTERACTION
117: 0x0CFD [0x52] END_LOAD_SCHEDULER: End scheduler "s084" with entities [LocalPlayer, LocalPlayer], work=5*
118: 0x0D0C [0x45] LOAD_SCHEDULED_TASK: Load scheduler "s085" with entities [LocalPlayer, LocalPlayer], work=[5*, 0*]
119: 0x0D1D [0x5B] LOAD_EXT_SCHEDULER: Load scheduler "tlk1" with entities [Raptorlegs Gedwad (ID: 17383486/0x0109403E), Raptorlegs Gedwad (ID: 17383486/0x0109403E)], work=225*
120: 0x0D2C [0x2B] Raptorlegs Gedwad (ID: 17383486/0x0109403E) [7396*]:
    → "But adventurer ugly face no good for mission. Turtles no stupid. Turtles see adventurer, turtles kill adventurer. Turtles kill adventurer, Gedwad mission fail, Gochakzuk eat Gedwad liver for breakfast!"
121: 0x0D33 [0x23] WAIT_FOR_DIALOG_INTERACTION
122: 0x0D34 [0x7B] Raptorlegs Gedwad (ID: 17383486/0x0109403E) stops talking
123: 0x0D39 [0x2B] Raptorlegs Gedwad (ID: 17383486/0x0109403E) [7397*]:
    → "Adventurer need disguise..."
124: 0x0D40 [0x23] WAIT_FOR_DIALOG_INTERACTION
125: 0x0D41 [0x79] Raptorlegs Gedwad (ID: 17383486/0x0109403E) looks at LocalPlayer (Basic look)
126: 0x0D4B [0x5B] LOAD_EXT_SCHEDULER: Load scheduler "tlk0" with entities [Raptorlegs Gedwad (ID: 17383486/0x0109403E), Raptorlegs Gedwad (ID: 17383486/0x0109403E)], work=225*
127: 0x0D5A [0x2B] Raptorlegs Gedwad (ID: 17383486/0x0109403E) [7398*]:
    → "Oh! Gedwad remember see lady make bone helmet in country of tasty Taru. Maybe she make you good disguise!"
128: 0x0D61 [0x23] WAIT_FOR_DIALOG_INTERACTION
129: 0x0D62 [0x5B] LOAD_EXT_SCHEDULER: Load scheduler "tlk1" with entities [Raptorlegs Gedwad (ID: 17383486/0x0109403E), Raptorlegs Gedwad (ID: 17383486/0x0109403E)], work=225*
130: 0x0D71 [0x52] END_LOAD_SCHEDULER: End scheduler "s085" with entities [LocalPlayer, LocalPlayer], work=5*
131: 0x0D80 [0x45] LOAD_SCHEDULED_TASK: Load scheduler "s086" with entities [LocalPlayer, LocalPlayer], work=[5*, 0*]
132: 0x0D91 [0x2B] Raptorlegs Gedwad (ID: 17383486/0x0109403E) [7399*]:
    → "Gedwad stay here. When adventurer ready, come fast. Gedwad no like wait. Gedwad get hungry...eat spybats..."
133: 0x0D98 [0x23] WAIT_FOR_DIALOG_INTERACTION
134: 0x0D99 [0x27] REQ_SET(priority=0x0A, entity_id=Raptorlegs Gedwad (ID: 17383486/0x0109403E), tag_num=0x04)

SUBROUTINE_0DA0:
135: 0x0DA0 [0x5D] SET_MUSIC_VOLUME(volume=0*, fade_time=120*)
136: 0x0DA5 [0x45] LOAD_SCHEDULED_TASK: Load scheduler "fdo2" with entities [LocalPlayer, LocalPlayer], work=[200*, 0*]
137: 0x0DB6 [0x55] WAIT_LOAD_SCHEDULER: Wait for scheduler "fdo2" with entities [LocalPlayer, LocalPlayer], work=200*
138: 0x0DC5 [0x52] END_LOAD_SCHEDULER: End scheduler "s083" with entities [LocalPlayer, LocalPlayer], work=5*
139: 0x0DD4 [0x52] END_LOAD_SCHEDULER: End scheduler "s084" with entities [LocalPlayer, LocalPlayer], work=5*
140: 0x0DE3 [0x52] END_LOAD_SCHEDULER: End scheduler "s086" with entities [LocalPlayer, LocalPlayer], work=5*
141: 0x0DF2 [0x5C] MUSIC_CONTROL: Set Idle (Day) music to song 0*
142: 0x0DF6 [0x5C] MUSIC_CONTROL: Set Idle (Night) music to song 0*
143: 0x0DFA [0x46] CAMERA_CONTROL: Restore default settings
144: 0x0DFC [0x45] LOAD_SCHEDULED_TASK: Load scheduler "fdi1" with entities [LocalPlayer, LocalPlayer], work=[200*, 0*]
145: 0x0E0D [0x21] END_EVENT
146: 0x0E0E [0x00] END_REQSTACK()
```

#### Data or dead code:

```
# Dead code (unreachable instructions):
     0x0C19 [0x01] GOTO 0x0C1C
# Dead code (unreachable instructions):
     0x0CE3 [0x01] GOTO 0x0CE6
```

### Event 61

#### Metadata

| Field        | Value     |
|--------------|-----------|
| Entrypoint   | 0x0E0F    |
| Data Size    | 442 bytes |
| Instructions | 57        |

```
      00 01 02 03 04 05 06 07  08 09 0A 0B 0C 0D 0E 0F
      -- -- -- -- -- -- -- --  -- -- -- -- -- -- -- --
0E00:                                               42                 B
0E10: 46 01 5D 00 80 01 80 45  03 80 F0 FF FF 7F F0 FF  F.]....E........
0E20: FF 7F 66 64 6F 31 00 80  55 03 80 F0 FF FF 7F F0  ..fdo1..U.......
0E30: FF FF 7F 66 64 6F 31 5C  00 4C 80 5C 01 4C 80 38  ...fdo1\.L.\.L.8
0E40: 08 80 45 02 80 F0 FF FF  7F F0 FF FF 7F 73 30 38  ..E..........s08
0E50: 32 00 80 37 6E 80 6F 80  70 80 71 80 4E 00 3E 40  2..7n.o.p.q.N.>@
0E60: 09 01 22 00 79 00 F0 FF  FF 7F 3E 40 09 01 79 00  ..".y.....>@..y.
0E70: 3E 40 09 01 F0 FF FF 7F  45 03 80 F0 FF FF 7F F0  >@......E.......
0E80: FF FF 7F 66 64 69 32 00  80 32 37 80 1F 00 51 80  ...fdi2..27...Q.
0E90: 52 80 53 80 1F 01 5B 57  80 3E 40 09 01 3E 40 09  R.S...[W.>@..>@.
0EA0: 01 74 6C 6B 30 2B 3E 40  09 01 72 80 23 5B 57 80  .tlk0+>@..r.#[W.
0EB0: 3E 40 09 01 3E 40 09 01  74 6C 6B 31 52 02 80 F0  >@..>@..tlk1R...
0EC0: FF FF 7F F0 FF FF 7F 73  30 38 32 45 02 80 F0 FF  .......s082E....
0ED0: FF 7F F0 FF FF 7F 73 30  38 37 00 80 2B 3E 40 09  ......s087..+>@.
0EE0: 01 73 80 23 2B 3E 40 09  01 74 80 23 7B 3E 40 09  .s.#+>@..t.#{>@.
0EF0: 01 22 01 52 02 80 F0 FF  FF 7F F0 FF FF 7F 73 30  .".R..........s0
0F00: 38 37 45 02 80 F0 FF FF  7F F0 FF FF 7F 73 30 38  87E..........s08
0F10: 30 00 80 5B 57 80 3E 40  09 01 3E 40 09 01 74 6C  0..[W.>@..>@..tl
0F20: 6B 30 2B 3E 40 09 01 75  80 23 5B 57 80 3E 40 09  k0+>@..u.#[W.>@.
0F30: 01 3E 40 09 01 74 6C 6B  31 2B 3E 40 09 01 76 80  .>@..tlk1+>@..v.
0F40: 23 22 00 52 02 80 F0 FF  FF 7F F0 FF FF 7F 73 30  #".R..........s0
0F50: 38 30 45 02 80 F0 FF FF  7F F0 FF FF 7F 73 30 38  80E..........s08
0F60: 33 00 80 27 0A 3E 40 09  01 03 2B 3E 40 09 01 77  3..'.>@...+>@..w
0F70: 80 1C 12 80 1E 3E 40 09  01 23 2A 0A 3E 40 09 01  .....>@..#*.>@..
0F80: 27 0A 3E 40 09 01 04 5D  00 80 17 80 45 03 80 F0  '.>@...]....E...
0F90: FF FF 7F F0 FF FF 7F 66  64 6F 32 00 80 55 03 80  .......fdo2..U..
0FA0: F0 FF FF 7F F0 FF FF 7F  66 64 6F 32 5C 00 00 80  ........fdo2\...
0FB0: 5C 01 00 80 46 00 45 03  80 F0 FF FF 7F F0 FF FF  \...F.E.........
0FC0: 7F 66 64 69 31 00 80 21  00                       .fdi1..!.       
```

#### Opcodes

```
  0: 0x0E0F [0x42] SET_CLI_EVENT_CANCEL_DATA()
  1: 0x0E10 [0x46] CAMERA_CONTROL: Disable user control
  2: 0x0E12 [0x5D] SET_MUSIC_VOLUME(volume=0*, fade_time=60*)
  3: 0x0E17 [0x45] LOAD_SCHEDULED_TASK: Load scheduler "fdo1" with entities [LocalPlayer, LocalPlayer], work=[200*, 0*]
  4: 0x0E28 [0x55] WAIT_LOAD_SCHEDULER: Wait for scheduler "fdo1" with entities [LocalPlayer, LocalPlayer], work=200*
  5: 0x0E37 [0x5C] MUSIC_CONTROL: Set Idle (Day) music to song 163*
  6: 0x0E3B [0x5C] MUSIC_CONTROL: Set Idle (Night) music to song 163*
  7: 0x0E3F [0x38] SET_CLIENT_EVENT_MODE(mode=19*)
  8: 0x0E42 [0x45] LOAD_SCHEDULED_TASK: Load scheduler "s082" with entities [LocalPlayer, LocalPlayer], work=[5*, 0*]
  9: 0x0E53 [0x37] UPDATE_EVENT_POSITION_AND_DIR: x=11.299*, z=61.570*, y=23.709*, direction=7.0°*
 10: 0x0E5C [0x4E] SET_ENTITY_HIDE_FLAG: Show Raptorlegs Gedwad (ID: 17383486/0x0109403E)
 11: 0x0E62 [0x22] ENTITY_HIDE_FLAG(enabled=0x00)
 12: 0x0E64 [0x79] LocalPlayer looks at Raptorlegs Gedwad (ID: 17383486/0x0109403E) (Basic look)
 13: 0x0E6E [0x79] Raptorlegs Gedwad (ID: 17383486/0x0109403E) looks at LocalPlayer (Basic look)
 14: 0x0E78 [0x45] LOAD_SCHEDULED_TASK: Load scheduler "fdi2" with entities [LocalPlayer, LocalPlayer], work=[200*, 0*]
 15: 0x0E89 [0x32] ExtData[1]->MainSpeed = 13* * 0.1
 16: 0x0E8C [0x1F] MOVE_ENTITY: EventEntity moves to X=12.091*, Z=61.322*, Y=23.775*
 17: 0x0E94 [0x1F] MOVE_ENTITY: Update entity position (mode=1)
 18: 0x0E96 [0x5B] LOAD_EXT_SCHEDULER: Load scheduler "tlk0" with entities [Raptorlegs Gedwad (ID: 17383486/0x0109403E), Raptorlegs Gedwad (ID: 17383486/0x0109403E)], work=225*
 19: 0x0EA5 [0x2B] Raptorlegs Gedwad (ID: 17383486/0x0109403E) [7400*]:
    → "Adventurer slow. Gedwad give adventurer new name--Stubbylegs <Player>. Gah ha hah!"
 20: 0x0EAC [0x23] WAIT_FOR_DIALOG_INTERACTION
 21: 0x0EAD [0x5B] LOAD_EXT_SCHEDULER: Load scheduler "tlk1" with entities [Raptorlegs Gedwad (ID: 17383486/0x0109403E), Raptorlegs Gedwad (ID: 17383486/0x0109403E)], work=225*
 22: 0x0EBC [0x52] END_LOAD_SCHEDULER: End scheduler "s082" with entities [LocalPlayer, LocalPlayer], work=5*
 23: 0x0ECB [0x45] LOAD_SCHEDULED_TASK: Load scheduler "s087" with entities [LocalPlayer, LocalPlayer], work=[5*, 0*]
 24: 0x0EDC [0x2B] Raptorlegs Gedwad (ID: 17383486/0x0109403E) [7401*]:
    → "Eh? What thing on Stubbylegs's head?"
 25: 0x0EE3 [0x23] WAIT_FOR_DIALOG_INTERACTION
 26: 0x0EE4 [0x2B] Raptorlegs Gedwad (ID: 17383486/0x0109403E) [7402*]:
    → "Quadav disguise? Turtle horde stupid, but not that stupid..."
 27: 0x0EEB [0x23] WAIT_FOR_DIALOG_INTERACTION
 28: 0x0EEC [0x7B] Raptorlegs Gedwad (ID: 17383486/0x0109403E) stops talking
 29: 0x0EF1 [0x22] ENTITY_HIDE_FLAG(enabled=0x01)
 30: 0x0EF3 [0x52] END_LOAD_SCHEDULER: End scheduler "s087" with entities [LocalPlayer, LocalPlayer], work=5*
 31: 0x0F02 [0x45] LOAD_SCHEDULED_TASK: Load scheduler "s080" with entities [LocalPlayer, LocalPlayer], work=[5*, 0*]
 32: 0x0F13 [0x5B] LOAD_EXT_SCHEDULER: Load scheduler "tlk0" with entities [Raptorlegs Gedwad (ID: 17383486/0x0109403E), Raptorlegs Gedwad (ID: 17383486/0x0109403E)], work=225*
 33: 0x0F22 [0x2B] Raptorlegs Gedwad (ID: 17383486/0x0109403E) [7403*]:
    → "Wait... Maybe adventurer have plan! Yes! Adventurer have plan. Use funny helmet to fool stupid Quadav! Right?"
 34: 0x0F29 [0x23] WAIT_FOR_DIALOG_INTERACTION
 35: 0x0F2A [0x5B] LOAD_EXT_SCHEDULER: Load scheduler "tlk1" with entities [Raptorlegs Gedwad (ID: 17383486/0x0109403E), Raptorlegs Gedwad (ID: 17383486/0x0109403E)], work=225*
 36: 0x0F39 [0x2B] Raptorlegs Gedwad (ID: 17383486/0x0109403E) [7404*]:
    → "Here. Take spybats. Put spybats somewhere inside cave."
 37: 0x0F40 [0x23] WAIT_FOR_DIALOG_INTERACTION
 38: 0x0F41 [0x22] ENTITY_HIDE_FLAG(enabled=0x00)
 39: 0x0F43 [0x52] END_LOAD_SCHEDULER: End scheduler "s080" with entities [LocalPlayer, LocalPlayer], work=5*
 40: 0x0F52 [0x45] LOAD_SCHEDULED_TASK: Load scheduler "s083" with entities [LocalPlayer, LocalPlayer], work=[5*, 0*]
 41: 0x0F63 [0x27] REQ_SET(priority=0x0A, entity_id=Raptorlegs Gedwad (ID: 17383486/0x0109403E), tag_num=0x03)
 42: 0x0F6A [0x2B] Raptorlegs Gedwad (ID: 17383486/0x0109403E) [7405*]:
    → "When done, come back here. We wait for spybats together."
 43: 0x0F71 [0x1C] WAIT(90* ticks)
 44: 0x0F74 [0x1E] EventEntity looks at Raptorlegs Gedwad (ID: 17383486/0x0109403E) and starts talking
 45: 0x0F79 [0x23] WAIT_FOR_DIALOG_INTERACTION
 46: 0x0F7A [0x2A] GET_REQ_LEVEL(level=10, entity_id=Raptorlegs Gedwad (ID: 17383486/0x0109403E))
 47: 0x0F80 [0x27] REQ_SET(priority=0x0A, entity_id=Raptorlegs Gedwad (ID: 17383486/0x0109403E), tag_num=0x04)
 48: 0x0F87 [0x5D] SET_MUSIC_VOLUME(volume=0*, fade_time=120*)
 49: 0x0F8C [0x45] LOAD_SCHEDULED_TASK: Load scheduler "fdo2" with entities [LocalPlayer, LocalPlayer], work=[200*, 0*]
 50: 0x0F9D [0x55] WAIT_LOAD_SCHEDULER: Wait for scheduler "fdo2" with entities [LocalPlayer, LocalPlayer], work=200*
 51: 0x0FAC [0x5C] MUSIC_CONTROL: Set Idle (Day) music to song 0*
 52: 0x0FB0 [0x5C] MUSIC_CONTROL: Set Idle (Night) music to song 0*
 53: 0x0FB4 [0x46] CAMERA_CONTROL: Restore default settings
 54: 0x0FB6 [0x45] LOAD_SCHEDULED_TASK: Load scheduler "fdi1" with entities [LocalPlayer, LocalPlayer], work=[200*, 0*]
 55: 0x0FC7 [0x21] END_EVENT
 56: 0x0FC8 [0x00] END_REQSTACK()
```

### Event 62

#### Metadata

| Field        | Value     |
|--------------|-----------|
| Entrypoint   | 0x0FC9    |
| Data Size    | 303 bytes |
| Instructions | 34        |

```
      00 01 02 03 04 05 06 07  08 09 0A 0B 0C 0D 0E 0F
      -- -- -- -- -- -- -- --  -- -- -- -- -- -- -- --
0FC0:                             42 46 01 45 03 80 F0           BF.E...
0FD0: FF FF 7F F0 FF FF 7F 66  64 6F 31 00 80 55 03 80  .......fdo1..U..
0FE0: F0 FF FF 7F F0 FF FF 7F  66 64 6F 31 38 08 80 37  ........fdo18..7
0FF0: 78 80 79 80 7A 80 7B 80  4E 00 3F 40 09 01 80 3F  x.y.z.{.N.?@...?
1000: 40 09 01 6C 3F 40 09 01  00 80 06 80 6B 62 74 6C  @..l?@......kbtl
1010: 30 3F 40 09 01 4A 3F 40  09 01 F0 FF FF 7F 45 02  0?@..J?@......E.
1020: 80 F0 FF FF 7F F0 FF FF  7F 73 30 38 38 00 80 45  .........s088..E
1030: 03 80 F0 FF FF 7F F0 FF  FF 7F 66 64 69 31 00 80  ..........fdi1..
1040: 6E F0 FF FF 7F 7C 80 99  F0 FF FF 7F 2B 42 40 09  n....|......+B@.
1050: 01 7D 80 1C 21 80 1E 3F  40 09 01 23 52 02 80 F0  .}..!..?@..#R...
1060: FF FF 7F F0 FF FF 7F 73  30 38 38 45 02 80 F0 FF  .......s088E....
1070: FF 7F F0 FF FF 7F 73 30  38 39 00 80 45 03 80 F0  ......s089..E...
1080: FF FF 7F F0 FF FF 7F 62  6C 6F 6E 00 80 45 04 80  .......blon..E..
1090: F0 FF FF 7F F0 FF FF 7F  62 6C 6F 6E 00 80 6C 3F  ........blon..l?
10A0: 40 09 01 7E 80 06 80 2B  3F 40 09 01 7F 80 1C 80  @..~...+?@......
10B0: 80 45 03 80 F0 FF FF 7F  F0 FF FF 7F 62 6C 6F 66  .E..........blof
10C0: 00 80 23 45 03 80 F0 FF  FF 7F F0 FF FF 7F 66 64  ..#E..........fd
10D0: 6F 31 00 80 55 03 80 F0  FF FF 7F F0 FF FF 7F 66  o1..U..........f
10E0: 64 6F 31 46 00 45 03 80  F0 FF FF 7F F0 FF FF 7F  do1F.E..........
10F0: 66 64 69 31 00 80 21 00                           fdi1..!.        
```

#### Opcodes

```
  0: 0x0FC9 [0x42] SET_CLI_EVENT_CANCEL_DATA()
  1: 0x0FCA [0x46] CAMERA_CONTROL: Disable user control
  2: 0x0FCC [0x45] LOAD_SCHEDULED_TASK: Load scheduler "fdo1" with entities [LocalPlayer, LocalPlayer], work=[200*, 0*]
  3: 0x0FDD [0x55] WAIT_LOAD_SCHEDULER: Wait for scheduler "fdo1" with entities [LocalPlayer, LocalPlayer], work=200*
  4: 0x0FEC [0x38] SET_CLIENT_EVENT_MODE(mode=19*)
  5: 0x0FEF [0x37] UPDATE_EVENT_POSITION_AND_DIR: x=9.933*, z=-50.311*, y=25.543*, direction=72.0°*
  6: 0x0FF8 [0x4E] SET_ENTITY_HIDE_FLAG: Show Diamond Quadav (ID: 17383487/0x0109403F)
  7: 0x0FFE [0x80] LOAD_WAIT(entity=Diamond Quadav (ID: 17383487/0x0109403F))
  8: 0x1003 [0x6C] FADE_ENTITY_COLOR(entity_id=Diamond Quadav (ID: 17383487/0x0109403F), end_alpha=0*, fade_time=1*)
  9: 0x100C [0x6B] STOP_AND_IDLE: Diamond Quadav (ID: 17383487/0x0109403F) stops current action and resets to idle (animation="btl0")
 10: 0x1015 [0x4A] Diamond Quadav (ID: 17383487/0x0109403F) looks at LocalPlayer
 11: 0x101E [0x45] LOAD_SCHEDULED_TASK: Load scheduler "s088" with entities [LocalPlayer, LocalPlayer], work=[5*, 0*]
 12: 0x102F [0x45] LOAD_SCHEDULED_TASK: Load scheduler "fdi1" with entities [LocalPlayer, LocalPlayer], work=[200*, 0*]
 13: 0x1040 [0x6E] LocalPlayer uses emote 39*
 14: 0x1047 [0x99] Wait for LocalPlayer animation to complete
 15: 0x104C [0x2B] ??? (ID: 17383490/0x01094042) [7408*]:
    → "Wa-ait there! I do not recogni-ize you! Are you one of the new re-ecruits? Show me your fa-ace!"
 16: 0x1053 [0x1C] WAIT(15* ticks)
 17: 0x1056 [0x1E] EventEntity looks at Diamond Quadav (ID: 17383487/0x0109403F) and starts talking
 18: 0x105B [0x23] WAIT_FOR_DIALOG_INTERACTION
 19: 0x105C [0x52] END_LOAD_SCHEDULER: End scheduler "s088" with entities [LocalPlayer, LocalPlayer], work=5*
 20: 0x106B [0x45] LOAD_SCHEDULED_TASK: Load scheduler "s089" with entities [LocalPlayer, LocalPlayer], work=[5*, 0*]
 21: 0x107C [0x45] LOAD_SCHEDULED_TASK: Load scheduler "blon" with entities [LocalPlayer, LocalPlayer], work=[200*, 0*]
 22: 0x108D [0x45] LOAD_SCHEDULED_TASK: Load scheduler "blon" with entities [LocalPlayer, LocalPlayer], work=[201*, 0*]
 23: 0x109E [0x6C] FADE_ENTITY_COLOR(entity_id=Diamond Quadav (ID: 17383487/0x0109403F), end_alpha=128*, fade_time=1*)
 24: 0x10A7 [0x2B] Diamond Quadav (ID: 17383487/0x0109403F) [7409*]:
    → "Insole-ence! Whe-ere is your shell? How dare you enter the Qulun Dome looki-ing like that! Pre-epare to be punished!"
 25: 0x10AE [0x1C] WAIT(50* ticks)
 26: 0x10B1 [0x45] LOAD_SCHEDULED_TASK: Load scheduler "blof" with entities [LocalPlayer, LocalPlayer], work=[200*, 0*]
 27: 0x10C2 [0x23] WAIT_FOR_DIALOG_INTERACTION
 28: 0x10C3 [0x45] LOAD_SCHEDULED_TASK: Load scheduler "fdo1" with entities [LocalPlayer, LocalPlayer], work=[200*, 0*]
 29: 0x10D4 [0x55] WAIT_LOAD_SCHEDULER: Wait for scheduler "fdo1" with entities [LocalPlayer, LocalPlayer], work=200*
 30: 0x10E3 [0x46] CAMERA_CONTROL: Restore default settings
 31: 0x10E5 [0x45] LOAD_SCHEDULED_TASK: Load scheduler "fdi1" with entities [LocalPlayer, LocalPlayer], work=[200*, 0*]
 32: 0x10F6 [0x21] END_EVENT
 33: 0x10F7 [0x00] END_REQSTACK()
```

### Event 63

#### Metadata

| Field        | Value     |
|--------------|-----------|
| Entrypoint   | 0x10F8    |
| Data Size    | 746 bytes |
| Instructions | 91        |

```
      00 01 02 03 04 05 06 07  08 09 0A 0B 0C 0D 0E 0F
      -- -- -- -- -- -- -- --  -- -- -- -- -- -- -- --
10F0:                          42 46 01 5D 00 80 01 80          BF.]....
1100: 45 03 80 F0 FF FF 7F F0  FF FF 7F 66 64 6F 31 00  E..........fdo1.
1110: 80 55 03 80 F0 FF FF 7F  F0 FF FF 7F 66 64 6F 31  .U..........fdo1
1120: 5C 00 81 80 5C 01 81 80  38 08 80 37 78 80 79 80  \...\...8..7x.y.
1130: 7A 80 7B 80 4E 00 3F 40  09 01 4E 00 40 40 09 01  z.{.N.?@..N.@@..
1140: 80 3F 40 09 01 1E 3F 40  09 01 4A 40 40 09 01 F0  .?@...?@..J@@...
1150: FF FF 7F 02 87 7F 02 80  80 6F 11 45 02 80 F0 FF  .........o.E....
1160: FF 7F F0 FF FF 7F 73 31  30 32 00 80 01 9C 11 02  ......s102......
1170: 87 7F 82 80 80 8B 11 45  02 80 F0 FF FF 7F F0 FF  .......E........
1180: FF 7F 73 31 30 32 00 80  01 9C 11 45 02 80 F0 FF  ..s102.....E....
1190: FF 7F F0 FF FF 7F 73 30  39 30 00 80 45 03 80 F0  ......s090..E...
11A0: FF FF 7F F0 FF FF 7F 66  64 69 31 00 80 2C 3F 40  .......fdi1..,?@
11B0: 09 01 3F 40 09 01 64 65  61 64 53 3F 40 09 01 3F  ..?@..deadS?@..?
11C0: 40 09 01 64 65 61 64 2B  42 40 09 01 83 80 1C 21  @..dead+B@.....!
11D0: 80 1E 40 40 09 01 23 52  02 80 F0 FF FF 7F F0 FF  ..@@..#R........
11E0: FF 7F 73 30 39 30 45 02  80 F0 FF FF 7F F0 FF FF  ..s090E.........
11F0: 7F 73 30 39 31 00 80 32  37 80 33 01 1F 00 84 80  .s091..27.3.....
1200: 85 80 86 80 1F 01 33 00  5B 87 80 40 40 09 01 40  ......3.[..@@..@
1210: 40 09 01 74 6C 6B 30 2B  40 40 09 01 88 80 23 5B  @..tlk0+@@....#[
1220: 87 80 40 40 09 01 40 40  09 01 74 6C 6B 31 2B 40  ..@@..@@..tlk1+@
1230: 40 09 01 89 80 23 24 8A  80 00 80 00 80 25 02 00  @....#$......%..
1240: 10 00 80 00 8F 12 52 02  80 F0 FF FF 7F F0 FF FF  ......R.........
1250: 7F 73 30 39 31 45 02 80  F0 FF FF 7F F0 FF FF 7F  .s091E..........
1260: 73 30 39 32 00 80 5B 87  80 40 40 09 01 40 40 09  s092..[..@@..@@.
1270: 01 74 6C 6B 30 2B 40 40  09 01 8B 80 23 5B 87 80  .tlk0+@@....#[..
1280: 40 40 09 01 40 40 09 01  74 6C 6B 31 01 A0 13 02  @@..@@..tlk1....
1290: 00 10 06 80 00 A0 13 52  02 80 F0 FF FF 7F F0 FF  .......R........
12A0: FF 7F 73 30 39 31 45 02  80 F0 FF FF 7F F0 FF FF  ..s091E.........
12B0: 7F 73 30 39 33 00 80 4E  01 3F 40 09 01 5B 87 80  .s093..N.?@..[..
12C0: 40 40 09 01 40 40 09 01  74 6C 6B 30 2B 40 40 09  @@..@@..tlk0+@@.
12D0: 01 8C 80 23 5B 87 80 40  40 09 01 40 40 09 01 74  ...#[..@@..@@..t
