# Event 697

## Metadata

| Field           | Value    |
|-----------------|----------|
| Event Index     | 36/37    |
| Offset          | 0x017F   |
| Data Size       | 26 bytes |
| Calculated Size | 26 bytes |
| Instructions    | 11       |

```
      00 01 02 03 04 05 06 07  08 09 0A 0B 0C 0D 0E 0F
      -- -- -- -- -- -- -- --  -- -- -- -- -- -- -- --
0170:                                               42                 B
0180: 1E F0 FF FF 7F 6F 70 02  09 10 06 80 00 93 01 1D  .....op.........
0190: 48 80 23 1D 49 80 23 21  00                       H.#.I.#!.       
```

## Opcodes

```
  0: 0x017F [0x42] SET_CLI_EVENT_CANCEL_DATA()
  1: 0x0180 [0x1E] EventEntity looks at LocalPlayer and starts talking
  2: 0x0185 [0x6F] WAIT_FRAME_DELAY: Yield until WaitTime reaches zero
  3: 0x0186 [0x70] WAIT_ENTITY_RENDER_FLAG: Wait while EventEntity->Render.Flags3 bit 2 is set (cancel turn if not)
  4: 0x0187 [0x02] IF !(Work_Zone[9] == 0*) GOTO 0x0193
  5: 0x018F [0x1D] PRINT_EVENT_MESSAGE(message_id=10122*)
    → "Oh, thank you so much for earlier!\u007F1\u0000\u0007"
  6: 0x0192 [0x23] WAIT_FOR_DIALOG_INTERACTION
  7: 0x0193 [0x1D] PRINT_EVENT_MESSAGE(message_id=10123*)
    → "I told you I would thank you, didn't I? Saliyahf has something I want to give to you, so talk to him, okay?\u007F1\u0000\u0007"
  8: 0x0196 [0x23] WAIT_FOR_DIALOG_INTERACTION
  9: 0x0197 [0x21] END_EVENT
 10: 0x0198 [0x00] END_REQSTACK()
```
