# Event 286

## Metadata

| Field           | Value    |
|-----------------|----------|
| Event Index     | 8/15     |
| Offset          | 0x0076   |
| Data Size       | 33 bytes |
| Calculated Size | 33 bytes |
| Instructions    | 12       |

```
      00 01 02 03 04 05 06 07  08 09 0A 0B 0C 0D 0E 0F
      -- -- -- -- -- -- -- --  -- -- -- -- -- -- -- --
0070:                   1E F0  FF FF 7F 6F 70 29 08 41        .....op).A
0080: 20 0F 01 02 1D 05 80 23  1D 06 80 23 29 08 41 20   ......#...#).A 
0090: 0F 01 03 20 00 21 00                              ... .!.         
```

## Opcodes

```
  0: 0x0076 [0x1E] EventEntity looks at LocalPlayer and starts talking
  1: 0x007B [0x6F] WAIT_FRAME_DELAY: Yield until WaitTime reaches zero
  2: 0x007C [0x70] WAIT_ENTITY_RENDER_FLAG: Wait while EventEntity->Render.Flags3 bit 2 is set (cancel turn if not)
  3: 0x007D [0x29] REQ_SET_WAIT(priority=0x08, entity_id=Bebibi (ID: 17768513/0x010F2041), tag_num=0x02)
  4: 0x0084 [0x1D] PRINT_EVENT_MESSAGE(message_id=8102*)
    → "The Toraimarai Canal in the central tower was made off-limits, off-limits to all, after the Great War.\u007F1\u0000\u0007"
  5: 0x0087 [0x23] WAIT_FOR_DIALOG_INTERACTION
  6: 0x0088 [0x1D] PRINT_EVENT_MESSAGE(message_id=8103*)
    → "That's why the stagnation had gone unnoticed for so long. Oh, the poor, poor star trees!\u007F1\u0000\u0007"
  7: 0x008B [0x23] WAIT_FOR_DIALOG_INTERACTION
  8: 0x008C [0x29] REQ_SET_WAIT(priority=0x08, entity_id=Bebibi (ID: 17768513/0x010F2041), tag_num=0x03)
  9: 0x0093 [0x20] SET_CLI_EVENT_UC_FLAG: Unlock player control
 10: 0x0095 [0x21] END_EVENT
 11: 0x0096 [0x00] END_REQSTACK()
```
