# Event 105

## Metadata

| Field           | Value    |
|-----------------|----------|
| Event Index     | 37/37    |
| Offset          | 0x0249   |
| Data Size       | 47 bytes |
| Calculated Size | 47 bytes |
| Instructions    | 11       |

```
      00 01 02 03 04 05 06 07  08 09 0A 0B 0C 0D 0E 0F
      -- -- -- -- -- -- -- --  -- -- -- -- -- -- -- --
0240:                             1E F0 FF FF 7F 6F 70           .....op
0250: 66 00 80 F8 FF FF 7F F8  FF FF 7F 74 6C 6B 31 1D  f..........tlk1.
0260: 09 80 23 1D 0A 80 23 66  00 80 F8 FF FF 7F F8 FF  ..#...#f........
0270: FF 7F 74 65 6E 31 21 00                           ..ten1!.        
```

## Opcodes

```
  0: 0x0249 [0x1E] EventEntity looks at LocalPlayer and starts talking
  1: 0x024E [0x6F] WAIT_FRAME_DELAY: Yield until WaitTime reaches zero
  2: 0x024F [0x70] WAIT_ENTITY_RENDER_FLAG: Wait while EventEntity->Render.Flags3 bit 2 is set (cancel turn if not)
  3: 0x0250 [0x66] LOAD_EXT_SCHEDULER_MAIN: Load scheduler "tlk1" with entities [EventEntity, EventEntity], work=0*
  4: 0x025F [0x1D] PRINT_EVENT_MESSAGE(message_id=13640*)
    → "A suspicious individual has been sighted to the southwest of the frontier station in Yorcia Weald.\u007F1\u0000\u0007"
  5: 0x0262 [0x23] WAIT_FOR_DIALOG_INTERACTION
  6: 0x0263 [0x1D] PRINT_EVENT_MESSAGE(message_id=13641*)
    → "There's an ergon locus nearby, so perhaps it's someone trying to harvest its power? That's pure speculation, of course, but the populace is bound to fathom the worst when there is little information.\u007F1\u0000\u0007"
  7: 0x0266 [0x23] WAIT_FOR_DIALOG_INTERACTION
  8: 0x0267 [0x66] LOAD_EXT_SCHEDULER_MAIN: Load scheduler "ten1" with entities [EventEntity, EventEntity], work=0*
  9: 0x0276 [0x21] END_EVENT
 10: 0x0277 [0x00] END_REQSTACK()
```
