# Event 65535

## Metadata

| Field           | Value    |
|-----------------|----------|
| Event Index     | 4/4      |
| Offset          | 0x001A   |
| Data Size       | 38 bytes |
| Calculated Size | 38 bytes |
| Instructions    | 9        |

```
      00 01 02 03 04 05 06 07  08 09 0A 0B 0C 0D 0E 0F
      -- -- -- -- -- -- -- --  -- -- -- -- -- -- -- --
0010:                                32 04 80 1F 00 05            2.....
0020: 80 06 80 07 80 1F 01 33  01 37 08 80 09 80 0A 80  .......3.7......
0030: 0B 80 32 04 80 1F 00 0C  80 0D 80 0E 80 1F 01 00  ..2.............
```

## Opcodes

```
  0: 0x001A [0x32] ExtData[1]->MainSpeed = 40* * 0.1
  1: 0x001D [0x1F] MOVE_ENTITY: EventEntity moves to X=437.111*, Z=259.347*, Y=20.300*
  2: 0x0025 [0x1F] MOVE_ENTITY: Update entity position (mode=1)
  3: 0x0027 [0x33] EventEntity->Render.Flags0 |= 0x200000 // Bit 21 (flag=0x01)
  4: 0x0029 [0x37] UPDATE_EVENT_POSITION_AND_DIR: x=412.919*, z=244.275*, y=17.942*, direction=170.9°*
  5: 0x0032 [0x32] ExtData[1]->MainSpeed = 40* * 0.1
  6: 0x0035 [0x1F] MOVE_ENTITY: EventEntity moves to X=384.239*, Z=231.041*, Y=17.342*
  7: 0x003D [0x1F] MOVE_ENTITY: Update entity position (mode=1)
  8: 0x003F [0x00] END_REQSTACK()
```
