# Event 2016

## Metadata

| Field           | Value    |
|-----------------|----------|
| Event Index     | 114/206  |
| Offset          | 0x089D   |
| Data Size       | 47 bytes |
| Calculated Size | 47 bytes |
| Instructions    | 12       |

```
      00 01 02 03 04 05 06 07  08 09 0A 0B 0C 0D 0E 0F
      -- -- -- -- -- -- -- --  -- -- -- -- -- -- -- --
0890:                                         1E F0 FF               ...
08A0: FF 7F 6F 70 5B 0E 80 F8  FF FF 7F F8 FF FF 7F 70  ..op[..........p
08B0: 6E 74 30 1D 77 80 23 1D  78 80 23 53 F8 FF FF 7F  nt0.w.#.x.#S....
08C0: F8 FF FF 7F 70 6E 74 30  20 00 21 00              ....pnt0 .!.    
```

## Opcodes

```
  0: 0x089D [0x1E] EventEntity looks at LocalPlayer and starts talking
  1: 0x08A2 [0x6F] WAIT_FRAME_DELAY: Yield until WaitTime reaches zero
  2: 0x08A3 [0x70] WAIT_ENTITY_RENDER_FLAG: Wait while EventEntity->Render.Flags3 bit 2 is set (cancel turn if not)
  3: 0x08A4 [0x5B] LOAD_EXT_SCHEDULER(work_offset=2647*, entity1=EventEntity, entity2=EventEntity, action="pnt0")
  4: 0x08B3 [0x1D] PRINT_EVENT_MESSAGE(message_id=7641*)
    → "Examine the earth-rupturing roots to reveal riveting rewards!\u007F1\u0000\u0007"
  5: 0x08B6 [0x23] WAIT_FOR_DIALOG_INTERACTION
  6: 0x08B7 [0x1D] PRINT_EVENT_MESSAGE(message_id=7642*)
    → "Well, maybe not \u00072riveting,\u00073 but rewards nonetheless, kupo.\u0007Either way, take some time to talk to me when you're done.\u007F1\u0000\u0007"
  7: 0x08BA [0x23] WAIT_FOR_DIALOG_INTERACTION
  8: 0x08BB [0x53] WAIT_SCHEDULER_TASK(entity1=EventEntity, entity2=EventEntity, action_id="pnt0")
  9: 0x08C8 [0x20] SET_CLI_EVENT_UC_FLAG: Unlock player control
 10: 0x08CA [0x21] END_EVENT
 11: 0x08CB [0x00] END_REQSTACK()
```
