# Event 2018

## Metadata

| Field           | Value    |
|-----------------|----------|
| Event Index     | 116/206  |
| Offset          | 0x0902   |
| Data Size       | 34 bytes |
| Calculated Size | 34 bytes |
| Instructions    | 11       |

```
      00 01 02 03 04 05 06 07  08 09 0A 0B 0C 0D 0E 0F
      -- -- -- -- -- -- -- --  -- -- -- -- -- -- -- --
0900:       1E F0 FF FF 7F 6F  70 5B 6C 80 F8 FF FF 7F    .....op[l.....
0910: F8 FF FF 7F 70 6E 63 30  1D 7C 80 23 1D 7D 80 23  ....pnc0.|.#.}.#
0920: 20 00 21 00                                        .!.            
```

## Opcodes

```
  0: 0x0902 [0x1E] EventEntity looks at LocalPlayer and starts talking
  1: 0x0907 [0x6F] WAIT_FRAME_DELAY: Yield until WaitTime reaches zero
  2: 0x0908 [0x70] WAIT_ENTITY_RENDER_FLAG: Wait while EventEntity->Render.Flags3 bit 2 is set (cancel turn if not)
  3: 0x0909 [0x5B] LOAD_EXT_SCHEDULER: Load scheduler "pnc0" with entities [EventEntity, EventEntity], work=2636*
  4: 0x0918 [0x1D] PRINT_EVENT_MESSAGE(message_id=7658*)
    → "Nurse the netting out of the swelling spring to see if that evil entity got entangled in it.\u007F1\u0000\u0007"
  5: 0x091B [0x23] WAIT_FOR_DIALOG_INTERACTION
  6: 0x091C [0x1D] PRINT_EVENT_MESSAGE(message_id=7659*)
    → "Should you find fishy fragments--or anything at all--apprise me as soon as you're able, kupo.\u007F1\u0000\u0007"
  7: 0x091F [0x23] WAIT_FOR_DIALOG_INTERACTION
  8: 0x0920 [0x20] SET_CLI_EVENT_UC_FLAG: Unlock player control
  9: 0x0922 [0x21] END_EVENT
 10: 0x0923 [0x00] END_REQSTACK()
```
