# Event 2069

## Metadata

| Field           | Value    |
|-----------------|----------|
| Event Index     | 21/206   |
| Offset          | 0x0134   |
| Data Size       | 54 bytes |
| Calculated Size | 54 bytes |
| Instructions    | 13       |

```
      00 01 02 03 04 05 06 07  08 09 0A 0B 0C 0D 0E 0F
      -- -- -- -- -- -- -- --  -- -- -- -- -- -- -- --
0130:             1E F0 FF FF  7F 6F 70 5B 0E 80 F8 FF      .....op[....
0140: FF 7F F8 FF FF 7F 74 68  62 30 1D 31 80 23 5B 0E  ......thb0.1.#[.
0150: 80 F8 FF FF 7F F8 FF FF  7F 74 68 62 31 03 03 10  .........thb1...
0160: 32 80 1D 33 80 23 20 00  21 00                    2..3.# .!.      
```

## Opcodes

```
  0: 0x0134 [0x1E] EventEntity looks at LocalPlayer and starts talking
  1: 0x0139 [0x6F] WAIT_FRAME_DELAY: Yield until WaitTime reaches zero
  2: 0x013A [0x70] WAIT_ENTITY_RENDER_FLAG: Wait while EventEntity->Render.Flags3 bit 2 is set (cancel turn if not)
  3: 0x013B [0x5B] LOAD_EXT_SCHEDULER: Load scheduler "thb0" with entities [EventEntity, EventEntity], work=2647*
  4: 0x014A [0x1D] PRINT_EVENT_MESSAGE(message_id=8417*)
    → "I will prepare an appropriate moogle soup to aid this afflicted adamantoise, kupo.\u007F1\u0000\u0007"
  5: 0x014D [0x23] WAIT_FOR_DIALOG_INTERACTION
  6: 0x014E [0x5B] LOAD_EXT_SCHEDULER: Load scheduler "thb1" with entities [EventEntity, EventEntity], work=2647*
  7: 0x015D [0x03] Work_Zone[3] = 4472*
  8: 0x0162 [0x1D] PRINT_EVENT_MESSAGE(message_id=8418*)
    → "Bring me twelve \u0001\u0005%\u0002\u0001\u0000\u0000 so that I can brew the best bisque to tend to our tepid tortoise.\u007F1\u0000\u0007"
  9: 0x0165 [0x23] WAIT_FOR_DIALOG_INTERACTION
 10: 0x0166 [0x20] SET_CLI_EVENT_UC_FLAG: Unlock player control
 11: 0x0168 [0x21] END_EVENT
 12: 0x0169 [0x00] END_REQSTACK()
```
