# Event 65535

## Metadata

| Field           | Value    |
|-----------------|----------|
| Event Index     | 152/206  |
| Offset          | 0x0AF1   |
| Data Size       | 65 bytes |
| Calculated Size | 65 bytes |
| Instructions    | 11       |

```
      00 01 02 03 04 05 06 07  08 09 0A 0B 0C 0D 0E 0F
      -- -- -- -- -- -- -- --  -- -- -- -- -- -- -- --
0AF0:    5B 0E 80 F8 FF FF 7F  F8 FF FF 7F 77 61 76 30   [..........wav0
0B00: 53 F8 FF FF 7F F8 FF FF  7F 77 61 76 30 32 00 80  S........wav02..
0B10: 1F 00 B7 80 B8 80 B9 80  1F 01 1F 00 BA 80 BB 80  ................
0B20: BC 80 1F 01 4B F8 FF FF  7F BD 80 6F 76 F8 FF FF  ....K......ov...
0B30: 7F 00                                             ..              
```

## Opcodes

```
  0: 0x0AF1 [0x5B] LOAD_EXT_SCHEDULER: Load scheduler "wav0" with entities [EventEntity, EventEntity], work=2647*
  1: 0x0B00 [0x53] WAIT_SCHEDULER_TASK: Wait for scheduler "wav0" with entities [EventEntity, EventEntity]
  2: 0x0B0D [0x32] ExtData[1]->MainSpeed = 40* * 0.1
  3: 0x0B10 [0x1F] MOVE_ENTITY: EventEntity moves to X=-0.528*, Z=-2.327*, Y=0.323*
  4: 0x0B18 [0x1F] MOVE_ENTITY: Update entity position (mode=1)
  5: 0x0B1A [0x1F] MOVE_ENTITY: EventEntity moves to X=0.430*, Z=-2.912*, Y=0.279*
  6: 0x0B22 [0x1F] MOVE_ENTITY: Update entity position (mode=1)
  7: 0x0B24 [0x4B] UPDATE_ENTITY_YAW(entity=EventEntity, yaw=16.8°*)
  8: 0x0B2B [0x6F] WAIT_FRAME_DELAY: Yield until WaitTime reaches zero
  9: 0x0B2C [0x76] CHECK_ENTITY_RENDER_FLAGS: Wait until EventEntity Render.Flags0 and Render.Flags3 conditions are met
 10: 0x0B31 [0x00] END_REQSTACK()
```
