# Event 65535

## Metadata

| Field           | Value    |
|-----------------|----------|
| Event Index     | 15/30    |
| Offset          | 0x00A5   |
| Data Size       | 44 bytes |
| Calculated Size | 44 bytes |
| Instructions    | 10       |

```
      00 01 02 03 04 05 06 07  08 09 0A 0B 0C 0D 0E 0F
      -- -- -- -- -- -- -- --  -- -- -- -- -- -- -- --
00A0:                32 00 80  BA 54 23 05 01 1A 80 1B       2...T#.....
00B0: 80 1C 80 1D 80 1F 00 1E  80 1F 80 20 80 1F 01 6F  ........... ...o
00C0: 4A 54 23 05 01 57 23 05  01 7B 54 23 05 01 6F 70  JT#..W#..{T#..op
00D0: 00                                                .               
```

## Opcodes

```
  0: 0x00A5 [0x32] ExtData[1]->MainSpeed = 40* * 0.1
  1: 0x00A8 [0xBA] SET_ENTITY_POSITION(entity_id=Excenmille (ID: 17113940/0x01052354), pos_x=-0.282*, pos_z=-327.239*, pos_y=0.774*, direction=127.9°*)
  2: 0x00B5 [0x1F] MOVE_ENTITY: EventEntity moves to X=-3.216*, Z=-323.771*, Y=-0.074*
  3: 0x00BD [0x1F] MOVE_ENTITY: Update entity position (mode=1)
  4: 0x00BF [0x6F] WAIT_FRAME_DELAY: Yield until WaitTime reaches zero
  5: 0x00C0 [0x4A] Excenmille (ID: 17113940/0x01052354) looks at Zogbog (ID: 17113943/0x01052357)
  6: 0x00C9 [0x7B] Excenmille (ID: 17113940/0x01052354) stops talking
  7: 0x00CE [0x6F] WAIT_FRAME_DELAY: Yield until WaitTime reaches zero
  8: 0x00CF [0x70] WAIT_ENTITY_RENDER_FLAG: Wait while EventEntity->Render.Flags3 bit 2 is set (cancel turn if not)
  9: 0x00D0 [0x00] END_REQSTACK()
```
