# Event 65535

## Metadata

| Field           | Value    |
|-----------------|----------|
| Event Index     | 11/11    |
| Offset          | 0x004F   |
| Data Size       | 53 bytes |
| Calculated Size | 53 bytes |
| Instructions    | 9        |

```
      00 01 02 03 04 05 06 07  08 09 0A 0B 0C 0D 0E 0F
      -- -- -- -- -- -- -- --  -- -- -- -- -- -- -- --
0040:                                               5E                 ^
0050: 69 64 31 31 32 07 80 1F  00 08 80 09 80 05 80 1F  id112...........
0060: 01 6F 5B 0A 80 F8 FF FF  7F F8 FF FF 7F 74 6E 67  .o[..........tng
0070: 31 53 F8 FF FF 7F F8 FF  FF 7F 74 6E 67 31 5E 69  1S........tng1^i
0080: 64 6C 30 00                                       dl0.            
```

## Opcodes

```
  0: 0x004F [0x5E] EventEntity goes idle (kills current action) (animation: "id11")
  1: 0x0054 [0x32] ExtData[1]->MainSpeed = 11* * 0.1
  2: 0x0057 [0x1F] MOVE_ENTITY: EventEntity moves to X=-0.086*, Z=-25.794*, Y=-11.000*
  3: 0x005F [0x1F] MOVE_ENTITY: Update entity position (mode=1)
  4: 0x0061 [0x6F] WAIT_FRAME_DELAY: Yield until WaitTime reaches zero
  5: 0x0062 [0x5B] LOAD_EXT_SCHEDULER: Load scheduler "tng1" with entities [EventEntity, EventEntity], work=571*
  6: 0x0071 [0x53] WAIT_SCHEDULER_TASK: Wait for scheduler "tng1" with entities [EventEntity, EventEntity]
  7: 0x007E [0x5E] EventEntity goes idle (kills current action) (animation: "idl0")
  8: 0x0083 [0x00] END_REQSTACK()
```
