# Event 65535

## Metadata

| Field           | Value    |
|-----------------|----------|
| Event Index     | 8/12     |
| Offset          | 0x0052   |
| Data Size       | 44 bytes |
| Calculated Size | 44 bytes |
| Instructions    | 6        |

```
      00 01 02 03 04 05 06 07  08 09 0A 0B 0C 0D 0E 0F
      -- -- -- -- -- -- -- --  -- -- -- -- -- -- -- --
0050:       59 05 F8 FF FF 7F  01 3B 6D 31 0A 01 00 00    Y......;m1....
0060: 01 00 02 00 3A 6D 31 0A  01 03 00 BA F8 FF FF 7F  ....:m1.........
0070: 00 00 01 00 02 00 03 00  80 F8 FF FF 7F 00        ..............  
```

## Opcodes

```
  0: 0x0052 [0x59] UPDATE_ENTITY_DATA: EventEntity->Render.Flags0 |= 0x200000
  1: 0x0059 [0x3B] GET_ENTITY_POSITION(entity=6 (ID: 17445229/0x010A316D), x_destination=ExtData[1]->WorkLocal[0], y_destination=ExtData[1]->WorkLocal[1], z_destination=ExtData[1]->WorkLocal[2])
  2: 0x0064 [0x3A] CONVERT_YAW_TO_BYTE(entity=6 (ID: 17445229/0x010A316D), result_destination=ExtData[1]->WorkLocal[3])
  3: 0x006B [0xBA] SET_ENTITY_POSITION(entity_id=EventEntity, pos_x=ExtData[1]->WorkLocal[0], pos_z=ExtData[1]->WorkLocal[1], pos_y=ExtData[1]->WorkLocal[2], direction=ExtData[1]->WorkLocal[3])
  4: 0x0078 [0x80] LOAD_WAIT(entity=EventEntity)
  5: 0x007D [0x00] END_REQSTACK()
```
