# Event 65535

## Metadata

| Field           | Value    |
|-----------------|----------|
| Event Index     | 25/28    |
| Offset          | 0x01CE   |
| Data Size       | 52 bytes |
| Calculated Size | 52 bytes |
| Instructions    | 8        |

```
      00 01 02 03 04 05 06 07  08 09 0A 0B 0C 0D 0E 0F
      -- -- -- -- -- -- -- --  -- -- -- -- -- -- -- --
01C0:                                            66 1F                f.
01D0: 80 0A 90 0E 01 0A 90 0E  01 73 6C 30 30 53 0A 90  .........sl00S..
01E0: 0E 01 0A 90 0E 01 73 6C  30 30 32 08 80 1F 00 20  ......sl002.... 
01F0: 80 21 80 12 80 1F 01 6F  6C 0A 90 0E 01 06 80 15  .!.....ol.......
0200: 80 00                                             ..              
```

## Opcodes

```
  0: 0x01CE [0x66] LOAD_EXT_SCHEDULER_MAIN(work_offset=21*, entity1=Milchupain (ID: 17731594/0x010E900A), entity2=Milchupain (ID: 17731594/0x010E900A), action="sl00")
  1: 0x01DD [0x53] WAIT_SCHEDULER_TASK(entity1=Milchupain (ID: 17731594/0x010E900A), entity2=Milchupain (ID: 17731594/0x010E900A), action_id="sl00")
  2: 0x01EA [0x32] ExtData[1]->MainSpeed = 40* * 0.1
  3: 0x01ED [0x1F] MOVE_ENTITY: EventEntity moves to X=-37.957*, Z=76.307*, Y=-3.749*
  4: 0x01F5 [0x1F] MOVE_ENTITY: Update entity position (mode=1)
  5: 0x01F7 [0x6F] WAIT_FRAME_DELAY: Yield until WaitTime reaches zero
  6: 0x01F8 [0x6C] FADE_ENTITY_COLOR(entity_id=Milchupain (ID: 17731594/0x010E900A), end_alpha=0*, fade_time=1*)
  7: 0x0201 [0x00] END_REQSTACK()
```
