# Event 371

## Metadata

| Field           | Value    |
|-----------------|----------|
| Event Index     | 94/101   |
| Offset          | 0x18B3   |
| Data Size       | 33 bytes |
| Calculated Size | 33 bytes |
| Instructions    | 12       |

```
      00 01 02 03 04 05 06 07  08 09 0A 0B 0C 0D 0E 0F
      -- -- -- -- -- -- -- --  -- -- -- -- -- -- -- --
18B0:          1E F0 FF FF 7F  6F 70 29 08 0B F0 0E 01     .....op).....
18C0: 01 1D A5 80 23 1D A6 80  23 29 08 0B F0 0E 01 02  ....#...#)......
18D0: 20 00 21 00                                        .!.            
```

## Opcodes

```
  0: 0x18B3 [0x1E] EventEntity looks at LocalPlayer and starts talking
  1: 0x18B8 [0x6F] WAIT_FRAME_DELAY: Yield until WaitTime reaches zero
  2: 0x18B9 [0x70] WAIT_ENTITY_RENDER_FLAG: Wait while EventEntity->Render.Flags3 bit 2 is set (cancel turn if not)
  3: 0x18BA [0x29] REQ_SET_WAIT(priority=0x08, entity_id=Zokima-Rokima (ID: 17756171/0x010EF00B), tag_num=0x01)
  4: 0x18C1 [0x1D] PRINT_EVENT_MESSAGE(message_id=8766*)
    → "This is a mission from the Aurastery, which basically means a mission from the School of Magic. Please talk to the teachers in the staff room.\u007F1\u0000\u0007"
  5: 0x18C4 [0x23] WAIT_FOR_DIALOG_INTERACTION
  6: 0x18C5 [0x1D] PRINT_EVENT_MESSAGE(message_id=8767*)
    → "Principal Koru-Moru resides in Windurst Walls, but...\u0007There probably wouldn't be much pointaru in asking him about the mission.\u007F1\u0000\u0007"
  7: 0x18C8 [0x23] WAIT_FOR_DIALOG_INTERACTION
  8: 0x18C9 [0x29] REQ_SET_WAIT(priority=0x08, entity_id=Zokima-Rokima (ID: 17756171/0x010EF00B), tag_num=0x02)
  9: 0x18D0 [0x20] SET_CLI_EVENT_UC_FLAG: Unlock player control
 10: 0x18D2 [0x21] END_EVENT
 11: 0x18D3 [0x00] END_REQSTACK()
```
