# Event 428

## Metadata

| Field           | Value    |
|-----------------|----------|
| Event Index     | 100/101  |
| Offset          | 0x1C83   |
| Data Size       | 33 bytes |
| Calculated Size | 33 bytes |
| Instructions    | 12       |

```
      00 01 02 03 04 05 06 07  08 09 0A 0B 0C 0D 0E 0F
      -- -- -- -- -- -- -- --  -- -- -- -- -- -- -- --
1C80:          1E F0 FF FF 7F  6F 70 29 08 0B F0 0E 01     .....op).....
1C90: 01 1D B8 80 23 1D B9 80  23 29 08 0B F0 0E 01 02  ....#...#)......
1CA0: 20 00 21 00                                        .!.            
```

## Opcodes

```
  0: 0x1C83 [0x1E] EventEntity looks at LocalPlayer and starts talking
  1: 0x1C88 [0x6F] WAIT_FRAME_DELAY: Yield until WaitTime reaches zero
  2: 0x1C89 [0x70] WAIT_ENTITY_RENDER_FLAG: Wait while EventEntity->Render.Flags3 bit 2 is set (cancel turn if not)
  3: 0x1C8A [0x29] REQ_SET_WAIT(priority=0x08, entity_id=Zokima-Rokima (ID: 17756171/0x010EF00B), tag_num=0x01)
  4: 0x1C91 [0x1D] PRINT_EVENT_MESSAGE(message_id=9030*)
    → "A proposal has been sentaru to Heavens Tower for a revision of the peace treaty between the Yagudo and Windurst.\u007F1\u0000\u0007"
  5: 0x1C94 [0x23] WAIT_FOR_DIALOG_INTERACTION
  6: 0x1C95 [0x1D] PRINT_EVENT_MESSAGE(message_id=9031*)
    → "I justaru can't understand why the Yagudo are being so agressive-wessive. Is this their way of pulling a fastaru one on us?\u007F1\u0000\u0007"
  7: 0x1C98 [0x23] WAIT_FOR_DIALOG_INTERACTION
  8: 0x1C99 [0x29] REQ_SET_WAIT(priority=0x08, entity_id=Zokima-Rokima (ID: 17756171/0x010EF00B), tag_num=0x02)
  9: 0x1CA0 [0x20] SET_CLI_EVENT_UC_FLAG: Unlock player control
 10: 0x1CA2 [0x21] END_EVENT
 11: 0x1CA3 [0x00] END_REQSTACK()
```
