# Event 65535

## Metadata

| Field           | Value    |
|-----------------|----------|
| Event Index     | 73/101   |
| Offset          | 0x1066   |
| Data Size       | 37 bytes |
| Calculated Size | 37 bytes |
| Instructions    | 9        |

```
      00 01 02 03 04 05 06 07  08 09 0A 0B 0C 0D 0E 0F
      -- -- -- -- -- -- -- --  -- -- -- -- -- -- -- --
1060:                   29 08  0B F0 0E 01 07 1D 77 80        ).......w.
1070: 23 29 08 0B F0 0E 01 08  29 08 0B F0 0E 01 01 1D  #)......).......
1080: 78 80 23 29 08 0B F0 0E  01 02 00                 x.#).......     
```

## Opcodes

```
  0: 0x1066 [0x29] REQ_SET_WAIT(priority=0x08, entity_id=Zokima-Rokima (ID: 17756171/0x010EF00B), tag_num=0x07)
  1: 0x106D [0x1D] PRINT_EVENT_MESSAGE(message_id=7419*)
    → "Itaru appears to be \u0001\u00056\u0002\u0004\u0000\u0000 addressed to you. A letter with the star emblem on itaru, signifying it's of the utmost importance, has been sentaru to you!\u007F1\u0000\u0007"
  2: 0x1070 [0x23] WAIT_FOR_DIALOG_INTERACTION
  3: 0x1071 [0x29] REQ_SET_WAIT(priority=0x08, entity_id=Zokima-Rokima (ID: 17756171/0x010EF00B), tag_num=0x08)
  4: 0x1078 [0x29] REQ_SET_WAIT(priority=0x08, entity_id=Zokima-Rokima (ID: 17756171/0x010EF00B), tag_num=0x01)
  5: 0x107F [0x1D] PRINT_EVENT_MESSAGE(message_id=7420*)
    → "The mostaru revered person in all Windurst--if this isn'taru a mistake, thataru is--has summoned you!\u007F1\u0000\u0007"
  6: 0x1082 [0x23] WAIT_FOR_DIALOG_INTERACTION
  7: 0x1083 [0x29] REQ_SET_WAIT(priority=0x08, entity_id=Zokima-Rokima (ID: 17756171/0x010EF00B), tag_num=0x02)
  8: 0x108A [0x00] END_REQSTACK()
```
