# Event 65535

## Metadata

| Field           | Value    |
|-----------------|----------|
| Event Index     | 28/101   |
| Offset          | 0x0490   |
| Data Size       | 62 bytes |
| Calculated Size | 62 bytes |
| Instructions    | 12       |

```
      00 01 02 03 04 05 06 07  08 09 0A 0B 0C 0D 0E 0F
      -- -- -- -- -- -- -- --  -- -- -- -- -- -- -- --
0490: 29 0B 0B F0 0E 01 1F 24  2D 80 27 80 27 80 25 02  )......$-.'.'.%.
04A0: 00 10 27 80 00 B6 04 03  01 10 14 80 29 0B 0B F0  ..'.........)...
04B0: 0E 01 1D 01 CD 04 02 00  10 14 80 00 CD 04 03 01  ................
04C0: 10 13 80 29 0B 0B F0 0E  01 22 01 CD 04 00        ...)....."....  
```

## Opcodes

```
  0: 0x0490 [0x29] REQ_SET_WAIT(priority=0x0B, entity_id=Zokima-Rokima (ID: 17756171/0x010EF00B), tag_num=0x1F)
  1: 0x0497 [0x24] CREATE_DIALOG(message_id=7302*, default_option=0*, option_flags=0*)
    → "Receive a mission?\u0007\u000BAcceptaru.\u0007Decline.\u007F1\u0000\u0007"
  2: 0x049E [0x25] WAIT_DIALOG_SELECT()
  3: 0x049F [0x02] IF !(Work_Zone[0] == 0*) GOTO 0x04B6
  4: 0x04A7 [0x03] Work_Zone[1] = 1*
  5: 0x04AC [0x29] REQ_SET_WAIT(priority=0x0B, entity_id=Zokima-Rokima (ID: 17756171/0x010EF00B), tag_num=0x1D)
  6: 0x04B3 [0x01] GOTO 0x04CD

SUBROUTINE_04B6:
  7: 0x04B6 [0x02] IF !(Work_Zone[0] == 1*) GOTO 0x04CD
  8: 0x04BE [0x03] Work_Zone[1] = 31*
  9: 0x04C3 [0x29] REQ_SET_WAIT(priority=0x0B, entity_id=Zokima-Rokima (ID: 17756171/0x010EF00B), tag_num=0x22)
 10: 0x04CA [0x01] GOTO 0x04CD

SUBROUTINE_04CD:
 11: 0x04CD [0x00] END_REQSTACK()
```
