# Event 87

## Metadata

| Field           | Value    |
|-----------------|----------|
| Event Index     | 23/101   |
| Offset          | 0x013D   |
| Data Size       | 33 bytes |
| Calculated Size | 33 bytes |
| Instructions    | 12       |

```
      00 01 02 03 04 05 06 07  08 09 0A 0B 0C 0D 0E 0F
      -- -- -- -- -- -- -- --  -- -- -- -- -- -- -- --
0130:                                         1E F0 FF               ...
0140: FF 7F 6F 70 29 08 0B F0  0E 01 01 1D 0F 80 23 1D  ..op).........#.
0150: 10 80 23 29 08 0B F0 0E  01 02 20 00 21 00        ..#)...... .!.  
```

## Opcodes

```
  0: 0x013D [0x1E] EventEntity looks at LocalPlayer and starts talking
  1: 0x0142 [0x6F] WAIT_FRAME_DELAY: Yield until WaitTime reaches zero
  2: 0x0143 [0x70] WAIT_ENTITY_RENDER_FLAG: Wait while EventEntity->Render.Flags3 bit 2 is set (cancel turn if not)
  3: 0x0144 [0x29] REQ_SET_WAIT(priority=0x08, entity_id=Zokima-Rokima (ID: 17756171/0x010EF00B), tag_num=0x01)
  4: 0x014B [0x1D] PRINT_EVENT_MESSAGE(message_id=7282*)
    → "This is Windurst Walls, the centermost of the four districts that make up the Federation of Windurst. It is also the political centaru of Windurst.\u007F1\u0000\u0007"
  5: 0x014E [0x23] WAIT_FOR_DIALOG_INTERACTION
  6: 0x014F [0x1D] PRINT_EVENT_MESSAGE(message_id=7283*)
    → "If you need directions to make your way around Windurst Walls, go ask \u001E\u0005Jack of Diamonds\u001E\u0001 in the open area down thattaru way.\u007F1\u0000\u0007"
  7: 0x0152 [0x23] WAIT_FOR_DIALOG_INTERACTION
  8: 0x0153 [0x29] REQ_SET_WAIT(priority=0x08, entity_id=Zokima-Rokima (ID: 17756171/0x010EF00B), tag_num=0x02)
  9: 0x015A [0x20] SET_CLI_EVENT_UC_FLAG: Unlock player control
 10: 0x015C [0x21] END_EVENT
 11: 0x015D [0x00] END_REQSTACK()
```
