# Event 97

## Metadata

| Field           | Value    |
|-----------------|----------|
| Event Index     | 29/101   |
| Offset          | 0x04CE   |
| Data Size       | 69 bytes |
| Calculated Size | 69 bytes |
| Instructions    | 13       |

```
      00 01 02 03 04 05 06 07  08 09 0A 0B 0C 0D 0E 0F
      -- -- -- -- -- -- -- --  -- -- -- -- -- -- -- --
04C0:                                            29 0B                ).
04D0: 0B F0 0E 01 20 29 0B 0B  F0 0E 01 21 24 2D 80 27  .... ).....!$-.'
04E0: 80 27 80 25 02 00 10 27  80 00 FB 04 03 01 10 14  .'.%...'........
04F0: 80 29 0B 0B F0 0E 01 1D  01 12 05 02 00 10 14 80  .)..............
0500: 00 12 05 03 01 10 13 80  29 0B 0B F0 0E 01 22 01  ........).....".
0510: 12 05 00                                          ...             
```

## Opcodes

```
  0: 0x04CE [0x29] REQ_SET_WAIT(priority=0x0B, entity_id=Zokima-Rokima (ID: 17756171/0x010EF00B), tag_num=0x20)
  1: 0x04D5 [0x29] REQ_SET_WAIT(priority=0x0B, entity_id=Zokima-Rokima (ID: 17756171/0x010EF00B), tag_num=0x21)
  2: 0x04DC [0x24] CREATE_DIALOG(message_id=7302*, default_option=0*, option_flags=0*)
    → "Receive a mission?\u0007\u000BAcceptaru.\u0007Decline.\u007F1\u0000\u0007"
  3: 0x04E3 [0x25] WAIT_DIALOG_SELECT()
  4: 0x04E4 [0x02] IF !(Work_Zone[0] == 0*) GOTO 0x04FB
  5: 0x04EC [0x03] Work_Zone[1] = 1*
  6: 0x04F1 [0x29] REQ_SET_WAIT(priority=0x0B, entity_id=Zokima-Rokima (ID: 17756171/0x010EF00B), tag_num=0x1D)
  7: 0x04F8 [0x01] GOTO 0x0512
  8: 0x04FB [0x02] IF !(Work_Zone[0] == 1*) GOTO 0x0512
  9: 0x0503 [0x03] Work_Zone[1] = 31*
 10: 0x0508 [0x29] REQ_SET_WAIT(priority=0x0B, entity_id=Zokima-Rokima (ID: 17756171/0x010EF00B), tag_num=0x22)
 11: 0x050F [0x01] GOTO 0x0512

SUBROUTINE_0512:
 12: 0x0512 [0x00] END_REQSTACK()
```
