# Event 65535

## Metadata

| Field           | Value     |
|-----------------|-----------|
| Event Index     | 20/20     |
| Offset          | 0x012C    |
| Data Size       | 162 bytes |
| Calculated Size | 162 bytes |
| Instructions    | 4         |

```
      00 01 02 03 04 05 06 07  08 09 0A 0B 0C 0D 0E 0F
      -- -- -- -- -- -- -- --  -- -- -- -- -- -- -- --
0120:                                      32 16 80 1F              2...
0130: 00 1A 80 1B 80 1C 80 1F  01 00 03 01 00 00 00 02  ................
0140: 01 00 1D 80 05 4F 01 08  01 00 01 80 01 54 01 08  .....O.......T..
0150: 01 00 13 80 14 01 00 1E  80 07 01 00 1F 80 1B 03  ................
0160: 01 00 00 00 02 01 00 1D  80 05 74 01 08 01 00 01  ..........t.....
0170: 80 01 79 01 08 01 00 13  80 14 01 00 1E 80 07 01  ..y.............
0180: 00 20 80 1B 03 01 00 00  00 02 01 00 1D 80 05 99  . ..............
0190: 01 08 01 00 01 80 01 9E  01 08 01 00 13 80 14 01  ................
01A0: 00 1E 80 07 01 00 21 80  1B 03 01 00 00 00 02 01  ......!.........
01B0: 00 1D 80 05 BE 01 08 01  00 01 80 01 C3 01 08 01  ................
01C0: 00 13 80 14 01 00 1E 80  07 01 00 22 80 1B        ..........."..  
```

## Opcodes

```
  0: 0x012C [0x32] ExtData[1]->MainSpeed = 40* * 0.1
  1: 0x012F [0x1F] MOVE_ENTITY: EventEntity moves to X=-152.189*, Z=-3.603*, Y=-15.811*
  2: 0x0137 [0x1F] MOVE_ENTITY: Update entity position (mode=1)
  3: 0x0139 [0x00] END_REQSTACK()
```

## Data or dead code:

```
# Dead code (unreachable instructions):
     0x013A [0x03] ExtData[1]->WorkLocal[1] = ExtData[1]->WorkLocal[0]
     0x013F [0x02] IF !(ExtData[1]->WorkLocal[1] > 5*) GOTO 0x014F
     0x0147 [0x08] ExtData[1]->WorkLocal[1] -= 1*
     0x014C [0x01] GOTO 0x0154
     0x014F [0x08] ExtData[1]->WorkLocal[1] -= 2*
     0x0154 [0x14] ExtData[1]->WorkLocal[1] *= 10*
     0x0159 [0x07] ExtData[1]->WorkLocal[1] += 9*
     0x015E [0x1B] RETURN
     0x015F [0x03] ExtData[1]->WorkLocal[1] = ExtData[1]->WorkLocal[0]
     0x0164 [0x02] IF !(ExtData[1]->WorkLocal[1] > 5*) GOTO 0x0174
     0x016C [0x08] ExtData[1]->WorkLocal[1] -= 1*
     0x0171 [0x01] GOTO 0x0179
     0x0174 [0x08] ExtData[1]->WorkLocal[1] -= 2*
     0x0179 [0x14] ExtData[1]->WorkLocal[1] *= 10*
     0x017E [0x07] ExtData[1]->WorkLocal[1] += 70*
     0x0183 [0x1B] RETURN
     0x0184 [0x03] ExtData[1]->WorkLocal[1] = ExtData[1]->WorkLocal[0]
     0x0189 [0x02] IF !(ExtData[1]->WorkLocal[1] > 5*) GOTO 0x0199
     0x0191 [0x08] ExtData[1]->WorkLocal[1] -= 1*
     0x0196 [0x01] GOTO 0x019E
     0x0199 [0x08] ExtData[1]->WorkLocal[1] -= 2*
     0x019E [0x14] ExtData[1]->WorkLocal[1] *= 10*
     0x01A3 [0x07] ExtData[1]->WorkLocal[1] += 140*
     0x01A8 [0x1B] RETURN
     0x01A9 [0x03] ExtData[1]->WorkLocal[1] = ExtData[1]->WorkLocal[0]
     0x01AE [0x02] IF !(ExtData[1]->WorkLocal[1] > 5*) GOTO 0x01BE
     0x01B6 [0x08] ExtData[1]->WorkLocal[1] -= 1*
     0x01BB [0x01] GOTO 0x01C3
     0x01BE [0x08] ExtData[1]->WorkLocal[1] -= 2*
     0x01C3 [0x14] ExtData[1]->WorkLocal[1] *= 10*
     0x01C8 [0x07] ExtData[1]->WorkLocal[1] += 210*
     0x01CD [0x1B] RETURN
```