# Event 65535

## Metadata

| Field           | Value     |
|-----------------|-----------|
| Event Index     | 20/20     |
| Offset          | 0x012C    |
| Data Size       | 162 bytes |
| Calculated Size | 162 bytes |
| Instructions    | 5         |

```
      00 01 02 03 04 05 06 07  08 09 0A 0B 0C 0D 0E 0F
      -- -- -- -- -- -- -- --  -- -- -- -- -- -- -- --
0120:                                      32 16 80 1F              2...
0130: 00 1A 80 1B 80 1C 80 1F  01 00 03 01 00 00 00 02  ................
0140: 01 00 1D 80 05 4F 01 08  01 00 01 80 01 54 01 08  .....O.......T..
0150: 01 00 13 80 14 01 00 1E  80 07 01 00 1F 80 1B 03  ................
0160: 01 00 00 00 02 01 00 1D  80 05 74 01 08 01 00 01  ..........t.....
0170: 80 01 79 01 08 01 00 13  80 14 01 00 1E 80 07 01  ..y.............
0180: 00 20 80 1B 03 01 00 00  00 02 01 00 1D 80 05 99  . ..............
0190: 01 08 01 00 01 80 01 9E  01 08 01 00 13 80 14 01  ................
01A0: 00 1E 80 07 01 00 21 80  1B 03 01 00 00 00 02 01  ......!.........
01B0: 00 1D 80 05 BE 01 08 01  00 01 80 01 C3 01 08 01  ................
01C0: 00 13 80 14 01 00 1E 80  07 01 00 22 80 1B        ..........."..  
```

## Opcodes

```
  0: 0x012C [0x32] ExtData[1]->MainSpeed = 40* * 0.1
  1: 0x012F [0x1F] MOVE_ENTITY: EventEntity moves to X=-152.189*, Z=-3.603*, Y=-15.811*
  2: 0x0137 [0x1F] MOVE_ENTITY: Update entity position (mode=1)
  3: 0x0139 [0x00] END_REQSTACK()
```

## Data or dead code:

```
# Data Section: 0x013A (148 bytes)
     0x013A: 03 01 00 00 00 02 01 00 1D 80 05 4F 01 08 01 00
     0x014A: 01 80 01 54 01 08 01 00 13 80 14 01 00 1E 80 07
     0x015A: 01 00 1F 80 1B 03 01 00 00 00 02 01 00 1D 80 05
     0x016A: 74 01 08 01 00 01 80 01 79 01 08 01 00 13 80 14
     0x017A: 01 00 1E 80 07 01 00 20 80 1B 03 01 00 00 00 02
     0x018A: 01 00 1D 80 05 99 01 08 01 00 01 80 01 9E 01 08
     0x019A: 01 00 13 80 14 01 00 1E 80 07 01 00 21 80 1B 03
     0x01AA: 01 00 00 00 02 01 00 1D 80 05 BE 01 08 01 00 01
     0x01BA: 80 01 C3 01 08 01 00 13 80 14 01 00 1E 80 07 01
     0x01CA: 00 22 80 1B
```