# Event 65535

## Metadata

| Field           | Value    |
|-----------------|----------|
| Event Index     | 31/43    |
| Offset          | 0x018D   |
| Data Size       | 37 bytes |
| Calculated Size | 37 bytes |
| Instructions    | 9        |

```
      00 01 02 03 04 05 06 07  08 09 0A 0B 0C 0D 0E 0F
      -- -- -- -- -- -- -- --  -- -- -- -- -- -- -- --
0180:                                         29 08 DF               )..
0190: 10 0F 01 0F 1D 10 80 23  29 08 DF 10 0F 01 10 29  .......#)......)
01A0: 08 DF 10 0F 01 0D 1D 11  80 23 29 08 DF 10 0F 01  .........#).....
01B0: 0E 00                                             ..              
```

## Opcodes

```
  0: 0x018D [0x29] REQ_SET_WAIT(priority=0x08, entity_id=Shantotto (ID: 17764575/0x010F10DF), tag_num=0x0F)
  1: 0x0194 [0x1D] PRINT_EVENT_MESSAGE(message_id=9497*)
    → "I heard you were sneaking around, asking people about the Dark Dungeon.\u0007Why don't you just stand at the top of Heavens Tower and yell, \u00072I'm going to break my brother out of jail. Arrest me, someone!\u00073\u007F1\u0000\u0007"
  2: 0x0197 [0x23] WAIT_FOR_DIALOG_INTERACTION
  3: 0x0198 [0x29] REQ_SET_WAIT(priority=0x08, entity_id=Shantotto (ID: 17764575/0x010F10DF), tag_num=0x10)
  4: 0x019F [0x29] REQ_SET_WAIT(priority=0x08, entity_id=Shantotto (ID: 17764575/0x010F10DF), tag_num=0x0D)
  5: 0x01A6 [0x1D] PRINT_EVENT_MESSAGE(message_id=9498*)
    → "How imprudent.\u0007And you were always such a bright student.\u007F1\u0000\u0007"
  6: 0x01A9 [0x23] WAIT_FOR_DIALOG_INTERACTION
  7: 0x01AA [0x29] REQ_SET_WAIT(priority=0x08, entity_id=Shantotto (ID: 17764575/0x010F10DF), tag_num=0x0E)
  8: 0x01B1 [0x00] END_REQSTACK()
```
