# Event 269

## Metadata

| Field           | Value    |
|-----------------|----------|
| Event Index     | 10/16    |
| Offset          | 0x0083   |
| Data Size       | 39 bytes |
| Calculated Size | 39 bytes |
| Instructions    | 14       |

```
      00 01 02 03 04 05 06 07  08 09 0A 0B 0C 0D 0E 0F
      -- -- -- -- -- -- -- --  -- -- -- -- -- -- -- --
0080:          20 01 1E F0 FF  FF 7F 6F 70 1D 05 80 23      ......op...#
0090: 6E ED 01 03 01 06 80 99  ED 01 03 01 1D 07 80 23  n..............#
00A0: 99 ED 01 03 01 1C 08 80  21 00                    ........!.      
```

## Opcodes

```
  0: 0x0083 [0x20] SET_CLI_EVENT_UC_FLAG: Lock player control
  1: 0x0085 [0x1E] EventEntity looks at LocalPlayer and starts talking
  2: 0x008A [0x6F] WAIT_FRAME_DELAY: Yield until WaitTime reaches zero
  3: 0x008B [0x70] WAIT_ENTITY_RENDER_FLAG: Wait while EventEntity->Render.Flags3 bit 2 is set (cancel turn if not)
  4: 0x008C [0x1D] PRINT_EVENT_MESSAGE(message_id=7735*)
    → "We Serpent Generals will defend Al Zahbi with our lives.\u007F1\u0000\u0007"
  5: 0x008F [0x23] WAIT_FOR_DIALOG_INTERACTION
  6: 0x0090 [0x6E] Najelith (ID: 16974317/0x010301ED) uses emote 7*
  7: 0x0097 [0x99] Wait for Najelith (ID: 16974317/0x010301ED) animation to complete
  8: 0x009C [0x1D] PRINT_EVENT_MESSAGE(message_id=7736*)
    → "The mercenaries also have an important role in protecting the Empire. Do not forget that.\u007F1\u0000\u0007"
  9: 0x009F [0x23] WAIT_FOR_DIALOG_INTERACTION
 10: 0x00A0 [0x99] Wait for Najelith (ID: 16974317/0x010301ED) animation to complete
 11: 0x00A5 [0x1C] WAIT(30* ticks)
 12: 0x00A8 [0x21] END_EVENT
 13: 0x00A9 [0x00] END_REQSTACK()
```
