# Event 10001

## Metadata

| Field           | Value    |
|-----------------|----------|
| Event Index     | 7/12     |
| Offset          | 0x003E   |
| Data Size       | 43 bytes |
| Calculated Size | 43 bytes |
| Instructions    | 12       |

```
      00 01 02 03 04 05 06 07  08 09 0A 0B 0C 0D 0E 0F
      -- -- -- -- -- -- -- --  -- -- -- -- -- -- -- --
0030:                                            20 01                 .
0040: 42 1E F0 FF FF 7F 6F 70  03 02 10 00 80 03 03 10  B.....op........
0050: 01 80 1D 05 80 23 45 06  80 F0 FF FF 7F F0 FF FF  .....#E.........
0060: 7F 71 73 74 63 07 80 21  00                       .qstc..!.       
```

## Opcodes

```
  0: 0x003E [0x20] SET_CLI_EVENT_UC_FLAG: Lock player control
  1: 0x0040 [0x42] SET_CLI_EVENT_CANCEL_DATA()
  2: 0x0041 [0x1E] EventEntity looks at LocalPlayer and starts talking
  3: 0x0046 [0x6F] WAIT_FRAME_DELAY: Yield until WaitTime reaches zero
  4: 0x0047 [0x70] WAIT_ENTITY_RENDER_FLAG: Wait while EventEntity->Render.Flags3 bit 2 is set (cancel turn if not)
  5: 0x0048 [0x03] Work_Zone[2] = 57*
  6: 0x004D [0x03] Work_Zone[3] = 4508*
  7: 0x0052 [0x1D] PRINT_EVENT_MESSAGE(message_id=6946*)
    → "Oh, my! You actually managed to get your hands on \u0001\u0001\u0001 \u0001\u0005$\u0002\u0001\u0000\u0000!?\u0007Well, looks like I'll be giving you \u0001\u00056\u0002\u0000\u0000\u0000 in order to keep my half of the deal then, doesn't it?\u007F1\u0000\u0007"
  8: 0x0055 [0x23] WAIT_FOR_DIALOG_INTERACTION
  9: 0x0056 [0x45] LOAD_SCHEDULED_TASK: Load scheduler "qstc" with entities [LocalPlayer, LocalPlayer], work=[201*, 0*]
 10: 0x0067 [0x21] END_EVENT
 11: 0x0068 [0x00] END_REQSTACK()
```
