# Event 1019

## Metadata

| Field           | Value    |
|-----------------|----------|
| Event Index     | 12/12    |
| Offset          | 0x00C4   |
| Data Size       | 19 bytes |
| Calculated Size | 19 bytes |
| Instructions    | 9        |

```
      00 01 02 03 04 05 06 07  08 09 0A 0B 0C 0D 0E 0F
      -- -- -- -- -- -- -- --  -- -- -- -- -- -- -- --
00C0:             1E F0 FF FF  7F 1D 0E 80 23 1D 0F 80      ........#...
00D0: 23 1D 10 80 23 21 00                              #...#!.         
```

## Opcodes

```
  0: 0x00C4 [0x1E] EventEntity looks at LocalPlayer and starts talking
  1: 0x00C9 [0x1D] PRINT_EVENT_MESSAGE(message_id=12391*)
    → "Why, if it isn't one of our custom stewpots!\u007F1\u0000\u0007"
  2: 0x00CC [0x23] WAIT_FOR_DIALOG_INTERACTION
  3: 0x00CD [0x1D] PRINT_EVENT_MESSAGE(message_id=12392*)
    → "Oh, good heavens, what a ghastly hole...\u007F1\u0000\u0007"
  4: 0x00D0 [0x23] WAIT_FOR_DIALOG_INTERACTION
  5: 0x00D1 [0x1D] PRINT_EVENT_MESSAGE(message_id=12393*)
    → "I fear I'm not much with repairs, but I do believe Ranpi-Monpi next door could be of service.\u007F1\u0000\u0007"
  6: 0x00D4 [0x23] WAIT_FOR_DIALOG_INTERACTION
  7: 0x00D5 [0x21] END_EVENT
  8: 0x00D6 [0x00] END_REQSTACK()
```
