# Event 32730

## Metadata

| Field           | Value    |
|-----------------|----------|
| Event Index     | 4/6      |
| Offset          | 0x00D1   |
| Data Size       | 55 bytes |
| Calculated Size | 55 bytes |
| Instructions    | 15       |

```
      00 01 02 03 04 05 06 07  08 09 0A 0B 0C 0D 0E 0F
      -- -- -- -- -- -- -- --  -- -- -- -- -- -- -- --
00D0:    03 01 10 00 80 1E F0  FF FF 7F 1D 1A 80 23 24   .............#$
00E0: 1B 80 06 80 00 80 25 02  00 10 00 80 00 FB 00 1D  ......%.........
00F0: 1C 80 23 03 01 10 06 80  01 06 01 02 00 10 06 80  ..#.............
0100: 00 06 01 01 06 01 21 00                           ......!.        
```

## Opcodes

```
  0: 0x00D1 [0x03] Work_Zone[1] = 0*
  1: 0x00D6 [0x1E] EventEntity looks at LocalPlayer and starts talking
  2: 0x00DB [0x1D] PRINT_EVENT_MESSAGE(message_id=14930*)
    → "What has befallen you?\u0007Do you wish to give up?\u007F1\u0000\u0007"
  3: 0x00DE [0x23] WAIT_FOR_DIALOG_INTERACTION
  4: 0x00DF [0x24] CREATE_DIALOG(message_id=14931*, default_option=1*, option_flags=0*)
    → "Give up?\u0007\u000BI'm done.\u0007Not yet.\u007F1\u0000\u0007"
  5: 0x00E6 [0x25] WAIT_DIALOG_SELECT()
  6: 0x00E7 [0x02] IF !(Work_Zone[0] == 0*) GOTO 0x00FB
  7: 0x00EF [0x1D] PRINT_EVENT_MESSAGE(message_id=14932*)
    → "A pity.\u0007Please speak with me again if you change your mind.\u007F1\u0000\u0007"
  8: 0x00F2 [0x23] WAIT_FOR_DIALOG_INTERACTION
  9: 0x00F3 [0x03] Work_Zone[1] = 1*
 10: 0x00F8 [0x01] GOTO 0x0106

SUBROUTINE_00FB:
 11: 0x00FB [0x02] IF !(Work_Zone[0] == 1*) GOTO 0x0106
 12: 0x0103 [0x01] GOTO 0x0106

SUBROUTINE_0106:
 13: 0x0106 [0x21] END_EVENT
 14: 0x0107 [0x00] END_REQSTACK()
```
