# Event 819

## Metadata

| Field           | Value    |
|-----------------|----------|
| Event Index     | 4/8      |
| Offset          | 0x013C   |
| Data Size       | 46 bytes |
| Calculated Size | 46 bytes |
| Instructions    | 11       |

```
      00 01 02 03 04 05 06 07  08 09 0A 0B 0C 0D 0E 0F
      -- -- -- -- -- -- -- --  -- -- -- -- -- -- -- --
0130:                                      42 1E F0 FF              B...
0140: FF 7F 6F 70 66 00 80 F8  FF FF 7F F8 FF FF 7F 74  ..opf..........t
0150: 6C 6B 30 1D 0F 80 23 66  00 80 F8 FF FF 7F F8 FF  lk0...#f........
0160: FF 7F 74 6C 6B 31 20 00  21 00                    ..tlk1 .!.      
```

## Opcodes

```
  0: 0x013C [0x42] SET_CLI_EVENT_CANCEL_DATA()
  1: 0x013D [0x1E] EventEntity looks at LocalPlayer and starts talking
  2: 0x0142 [0x6F] WAIT_FRAME_DELAY: Yield until WaitTime reaches zero
  3: 0x0143 [0x70] WAIT_ENTITY_RENDER_FLAG: Wait while EventEntity->Render.Flags3 bit 2 is set (cancel turn if not)
  4: 0x0144 [0x66] LOAD_EXT_SCHEDULER_MAIN(work_offset=49*, entity1=EventEntity, entity2=EventEntity, action="tlk0")
  5: 0x0153 [0x1D] PRINT_EVENT_MESSAGE(message_id=10187*)
    → "Nothing beats good old Windurstian cooking! Those foreign foods make me feel so bloaty-woated!\u007F1\u0000\u0007"
  6: 0x0156 [0x23] WAIT_FOR_DIALOG_INTERACTION
  7: 0x0157 [0x66] LOAD_EXT_SCHEDULER_MAIN(work_offset=49*, entity1=EventEntity, entity2=EventEntity, action="tlk1")
  8: 0x0166 [0x20] SET_CLI_EVENT_UC_FLAG: Unlock player control
  9: 0x0168 [0x21] END_EVENT
 10: 0x0169 [0x00] END_REQSTACK()
```
