# Event 65535

## Metadata

| Field           | Value    |
|-----------------|----------|
| Event Index     | 9/15     |
| Offset          | 0x0374   |
| Data Size       | 55 bytes |
| Calculated Size | 55 bytes |
| Instructions    | 5        |

```
      00 01 02 03 04 05 06 07  08 09 0A 0B 0C 0D 0E 0F
      -- -- -- -- -- -- -- --  -- -- -- -- -- -- -- --
0370:             45 09 80 15  80 09 01 15 80 09 01 62      E..........b
0380: 6C 6F 6E 02 80 45 39 80  F0 FF FF 7F F0 FF FF 7F  lon..E9.........
0390: 62 6C 6F 6E 02 80 1C 1F  80 45 09 80 15 80 09 01  blon.....E......
03A0: 15 80 09 01 62 6C 6F 66  02 80 00                 ....blof...     
```

## Opcodes

```
  0: 0x0374 [0x45] LOAD_SCHEDULED_TASK(work_offset1=200*, entity1=Star Sibyl (ID: 17399829/0x01098015), entity2=Star Sibyl (ID: 17399829/0x01098015), scheduler_id="blon", work_offset2=0*)
  1: 0x0385 [0x45] LOAD_SCHEDULED_TASK(work_offset1=201*, entity1=LocalPlayer, entity2=LocalPlayer, scheduler_id="blon", work_offset2=0*)
  2: 0x0396 [0x1C] WAIT(100* ticks)
  3: 0x0399 [0x45] LOAD_SCHEDULED_TASK(work_offset1=200*, entity1=Star Sibyl (ID: 17399829/0x01098015), entity2=Star Sibyl (ID: 17399829/0x01098015), scheduler_id="blof", work_offset2=0*)
  4: 0x03AA [0x00] END_REQSTACK()
```
