# Event 804

## Metadata

| Field           | Value    |
|-----------------|----------|
| Event Index     | 34/38    |
| Offset          | 0x01F3   |
| Data Size       | 55 bytes |
| Calculated Size | 55 bytes |
| Instructions    | 13       |

```
      00 01 02 03 04 05 06 07  08 09 0A 0B 0C 0D 0E 0F
      -- -- -- -- -- -- -- --  -- -- -- -- -- -- -- --
01F0:          1E F0 FF FF 7F  1C 29 80 66 2B 80 AE 21     ......).f+..!
0200: 03 01 AE 21 03 01 74 77  61 30 02 02 10 19 80 80  ...!..twa0......
0210: 19 02 1D 47 80 23 01 28  02 02 02 10 48 80 80 28  ...G.#.(....H..(
0220: 02 1D 49 80 23 01 28 02  21 00                    ..I.#.(.!.      
```

## Opcodes

```
  0: 0x01F3 [0x1E] EventEntity looks at LocalPlayer and starts talking
  1: 0x01F8 [0x1C] WAIT(30* ticks)
  2: 0x01FB [0x66] LOAD_EXT_SCHEDULER_MAIN: Load scheduler "twa0" with entities [Mishhar (ID: 16982446/0x010321AE), Mishhar (ID: 16982446/0x010321AE)], work=29*
  3: 0x020A [0x02] IF !(Work_Zone[2] == 0*) GOTO 0x0219
  4: 0x0212 [0x1D] PRINT_EVENT_MESSAGE(message_id=6999*)
    → "My intuition tells me that they have been taken to the Jade Sepulcher. Please go on ahead. I will join you shortly.\u007F1\u0000\u0007"
  5: 0x0215 [0x23] WAIT_FOR_DIALOG_INTERACTION
  6: 0x0216 [0x01] GOTO 0x0228

SUBROUTINE_0219:
  7: 0x0219 [0x02] IF !(Work_Zone[2] == 1*) GOTO 0x0228
  8: 0x0221 [0x1D] PRINT_EVENT_MESSAGE(message_id=7000*)
    → "My scouts are still being held captive in the Jade Sepulcher. We must save them! I will join you shortly.\u007F1\u0000\u0007"
  9: 0x0224 [0x23] WAIT_FOR_DIALOG_INTERACTION
 10: 0x0225 [0x01] GOTO 0x0228

SUBROUTINE_0228:
 11: 0x0228 [0x21] END_EVENT
 12: 0x0229 [0x00] END_REQSTACK()
```
