# Event 806

## Metadata

| Field           | Value    |
|-----------------|----------|
| Event Index     | 38/38    |
| Offset          | 0x0248   |
| Data Size       | 48 bytes |
| Calculated Size | 48 bytes |
| Instructions    | 10       |

```
      00 01 02 03 04 05 06 07  08 09 0A 0B 0C 0D 0E 0F
      -- -- -- -- -- -- -- --  -- -- -- -- -- -- -- --
0240:                          1E F0 FF FF 7F 1C 29 80          ......).
0250: 66 2B 80 AE 21 03 01 AE  21 03 01 74 77 61 30 1D  f+..!...!..twa0.
0260: 4D 80 23 66 2B 80 AE 21  03 01 AE 21 03 01 74 77  M.#f+..!...!..tw
0270: 61 31 1D 4E 80 23 21 00                           a1.N.#!.        
```

## Opcodes

```
  0: 0x0248 [0x1E] EventEntity looks at LocalPlayer and starts talking
  1: 0x024D [0x1C] WAIT(30* ticks)
  2: 0x0250 [0x66] LOAD_EXT_SCHEDULER_MAIN: Load scheduler "twa0" with entities [Mishhar (ID: 16982446/0x010321AE), Mishhar (ID: 16982446/0x010321AE)], work=29*
  3: 0x025F [0x1D] PRINT_EVENT_MESSAGE(message_id=7010*)
    → "Isween and Captain Rafsween stuck to their own paths. Perhaps there is no single best strategy... We all have our own style.\u007F1\u0000\u0007"
  4: 0x0262 [0x23] WAIT_FOR_DIALOG_INTERACTION
  5: 0x0263 [0x66] LOAD_EXT_SCHEDULER_MAIN: Load scheduler "twa1" with entities [Mishhar (ID: 16982446/0x010321AE), Mishhar (ID: 16982446/0x010321AE)], work=29*
  6: 0x0272 [0x1D] PRINT_EVENT_MESSAGE(message_id=7011*)
    → "That's why even if my methods are mistaken, I shall see them through...\u007F1\u0000\u0007"
  7: 0x0275 [0x23] WAIT_FOR_DIALOG_INTERACTION
  8: 0x0276 [0x21] END_EVENT
  9: 0x0277 [0x00] END_REQSTACK()
```
