# Event 196

## Metadata

| Field           | Value    |
|-----------------|----------|
| Event Index     | 7/8      |
| Offset          | 0x0052   |
| Data Size       | 33 bytes |
| Calculated Size | 33 bytes |
| Instructions    | 12       |

```
      00 01 02 03 04 05 06 07  08 09 0A 0B 0C 0D 0E 0F
      -- -- -- -- -- -- -- --  -- -- -- -- -- -- -- --
0050:       1E F0 FF FF 7F 6F  70 29 08 38 E0 0E 01 01    .....op).8....
0060: 1D 04 80 23 1D 05 80 23  29 08 38 E0 0E 01 02 20  ...#...#).8.... 
0070: 00 21 00                                          .!.             
```

## Opcodes

```
  0: 0x0052 [0x1E] EventEntity looks at LocalPlayer and starts talking
  1: 0x0057 [0x6F] WAIT_FRAME_DELAY: Yield until WaitTime reaches zero
  2: 0x0058 [0x70] WAIT_ENTITY_RENDER_FLAG: Wait while EventEntity->Render.Flags3 bit 2 is set (cancel turn if not)
  3: 0x0059 [0x29] REQ_SET_WAIT(priority=0x08, entity_id=Mimomo (ID: 17752120/0x010EE038), tag_num=0x01)
  4: 0x0060 [0x1D] PRINT_EVENT_MESSAGE(message_id=7764*)
    → "I'm having twouble-wouble with my study-wudies, so I came from the beginners class to ask the teacher-weachers here for helpy-welpy.\u007F1\u0000\u0007"
  5: 0x0063 [0x23] WAIT_FOR_DIALOG_INTERACTION
  6: 0x0064 [0x1D] PRINT_EVENT_MESSAGE(message_id=7765*)
    → "But they all say the testy-westys are at handy-wandy, and are too busy-wusy to talky-walky. Won't someone just answer-wanser my simple-wimple question?\u007F1\u0000\u0007"
  7: 0x0067 [0x23] WAIT_FOR_DIALOG_INTERACTION
  8: 0x0068 [0x29] REQ_SET_WAIT(priority=0x08, entity_id=Mimomo (ID: 17752120/0x010EE038), tag_num=0x02)
  9: 0x006F [0x20] SET_CLI_EVENT_UC_FLAG: Unlock player control
 10: 0x0071 [0x21] END_EVENT
 11: 0x0072 [0x00] END_REQSTACK()
```
