# Event 65535

## Metadata

| Field           | Value    |
|-----------------|----------|
| Event Index     | 20/21    |
| Offset          | 0x018E   |
| Data Size       | 60 bytes |
| Calculated Size | 60 bytes |
| Instructions    | 14       |

```
      00 01 02 03 04 05 06 07  08 09 0A 0B 0C 0D 0E 0F
      -- -- -- -- -- -- -- --  -- -- -- -- -- -- -- --
0180:                                            32 1E                2.
0190: 80 1F 00 1F 80 20 80 00  80 1F 01 1F 00 21 80 22  ..... .......!."
01A0: 80 00 80 1F 01 6F 1E FD  20 03 01 6F 70 03 00 00  .....o.. ..op...
01B0: 07 7F 1A 99 00 66 01 00  F8 FF FF 7F F8 FF FF 7F  .....f..........
01C0: 73 68 61 30 7B F8 FF FF  7F 00                    sha0{.....      
```

## Opcodes

```
  0: 0x018E [0x32] ExtData[1]->MainSpeed = 38* * 0.1
  1: 0x0191 [0x1F] MOVE_ENTITY: EventEntity moves to X=-4.013*, Z=-68.083*, Y=0.000*
  2: 0x0199 [0x1F] MOVE_ENTITY: Update entity position (mode=1)
  3: 0x019B [0x1F] MOVE_ENTITY: EventEntity moves to X=-2.659*, Z=-65.375*, Y=0.000*
  4: 0x01A3 [0x1F] MOVE_ENTITY: Update entity position (mode=1)
  5: 0x01A5 [0x6F] WAIT_FRAME_DELAY: Yield until WaitTime reaches zero
  6: 0x01A6 [0x1E] EventEntity looks at Unnamed NPC (ID: 16982269/0x010320FD) and starts talking
  7: 0x01AB [0x6F] WAIT_FRAME_DELAY: Yield until WaitTime reaches zero
  8: 0x01AC [0x70] WAIT_ENTITY_RENDER_FLAG: Wait while EventEntity->Render.Flags3 bit 2 is set (cancel turn if not)
  9: 0x01AD [0x03] ExtData[1]->WorkLocal[0] = Entity->Race
 10: 0x01B2 [0x1A] CALL_SUBROUTINE(address=0x0099)
 11: 0x01B5 [0x66] LOAD_EXT_SCHEDULER_MAIN(work_offset=0x0001, entity1=EventEntity, entity2=EventEntity, action="sha0")
 12: 0x01C4 [0x7B] EventEntity stops talking
 13: 0x01C9 [0x00] END_REQSTACK()
```
