# 17940500 - Reja Ygridhi

## Common Data

| Field            | Value                               |
|------------------|-------------------------------------|
| Zone             | Celennia Memorial Library (ID: 284) |
| Block Size       | 3560 bytes                          |
| Total Events     | 16                                  |
| References Count | 225                                 |

## List of Events

| Event ID                 | Entrypoint   |   Size |   Instructions |
|--------------------------|--------------|--------|----------------|
| [65535](#event-65535)    | 0x0000       |      1 |              1 |
| [14](#event-14)          | 0x0001       |     43 |              9 |
| [23](#event-23)          | 0x002C       |     43 |              9 |
| [22](#event-22)          | 0x0057       |     63 |             13 |
| [17](#event-17)          | 0x0096       |    149 |             31 |
| [18](#event-18)          | 0x012B       |     43 |              9 |
| [19](#event-19)          | 0x0156       |     90 |             24 |
| [20](#event-20)          | 0x01B0       |    167 |             33 |
| [15](#event-15)          | 0x0257       |    397 |             83 |
| [16](#event-16)          | 0x03E4       |    402 |             84 |
| [28](#event-28)          | 0x0576       |    397 |             83 |
| [2](#event-2)            | 0x0703       |      1 |              1 |
| [5](#event-5)            | 0x0704       |    753 |            158 |
| [37](#event-37)          | 0x09F5       |      1 |              1 |
| [65535.1](#event-655351) | 0x09F6       |      9 |              3 |
| [65535.2](#event-655352) | 0x09FF       |     18 |              4 |

## DAT References (imed_data)

|   Index | Hex Value   |   Dec Value |
|---------|-------------|-------------|
|       0 | 0x0044      |          68 |
|       1 | 0x1DF0      |        7664 |
|       2 | 0x1DF1      |        7665 |
|       3 | 0x000A      |          10 |
|       4 | 0x1DF2      |        7666 |
|       5 | 0x0014      |          20 |
|       6 | 0x1DF6      |        7670 |
|       7 | 0x0033      |          51 |
|       8 | 0x1DE1      |        7649 |
|       9 | 0x1DE2      |        7650 |
|      10 | 0x1DE3      |        7651 |
|      11 | 0x1DE4      |        7652 |
|      12 | 0x0000      |           0 |
|      13 | 0x1DE6      |        7654 |
|      14 | 0x0037      |          55 |
|      15 | 0x1DE7      |        7655 |
|      16 | 0x0001      |           1 |
|      17 | 0x0008      |           8 |
|      18 | 0x1DE5      |        7653 |
|      19 | 0x1DE8      |        7656 |
|      20 | 0x1DE9      |        7657 |
|      21 | 0x1DEA      |        7658 |
|      22 | 0x1DEB      |        7659 |
|      23 | 0x1DEC      |        7660 |
|      24 | 0x1DED      |        7661 |
|      25 | 0x1DEE      |        7662 |
|      26 | 0x1DEF      |        7663 |
|      27 | 0x00C9      |         201 |
|      28 | 0x000B      |          11 |
|      29 | 0x000C      |          12 |
|      30 | 0x0002      |           2 |
|      31 | 0x000D      |          13 |
|      32 | 0x0003      |           3 |
|      33 | 0x0015      |          21 |
|      34 | 0x1DF5      |        7669 |
|      35 | 0x1DF3      |        7667 |
|      36 | 0x1DF4      |        7668 |
|      37 | 0x0036      |          54 |
|      38 | 0x0078      |         120 |
|      39 | 0x1DF7      |        7671 |
|      40 | 0x7530      |       30000 |
|      41 | 0x4E20      |       20000 |
|      42 | 0x1DF8      |        7672 |
|      43 | 0x1DFA      |        7674 |
|      44 | 0x1DFB      |        7675 |
|      45 | 0x000E      |          14 |
|      46 | 0x000F      |          15 |
|      47 | 0x1DFC      |        7676 |
|      48 | 0xD4A51000  |  3567587328 |
|      49 | 0x0012      |          18 |
|      50 | 0xC350      |       50000 |
|      51 | 0x1DF9      |        7673 |
|      52 | 0x0011      |          17 |
|      53 | 0x0013      |          19 |
|      54 | 0x515D      |       20829 |
|      55 | 0x51E5      |       20965 |
|      56 | 0x6C85      |       27781 |
|      57 | 0x6E29      |       28201 |
|      58 | 0x50A3      |       20643 |
|      59 | 0x523E      |       21054 |
|      60 | 0x5309      |       21257 |
|      61 | 0x6C84      |       27780 |
|      62 | 0x6EB7      |       28343 |
|      63 | 0x504A      |       20554 |
|      64 | 0x5104      |       20740 |
|      65 | 0x6C83      |       27779 |
|      66 | 0x6D9E      |       28062 |
|      67 | 0x515A      |       20826 |
|      68 | 0x51B5      |       20917 |
|      69 | 0x5356      |       21334 |
|      70 | 0x53B4      |       21428 |
|      71 | 0x6C76      |       27766 |
|      72 | 0x6EAB      |       28331 |
|      73 | 0x5188      |       20872 |
|      74 | 0x5285      |       21125 |
|      75 | 0x6C77      |       27767 |
|      76 | 0x6D92      |       28050 |
|      77 | 0x6EF0      |       28400 |
|      78 | 0x6FE0      |       28640 |
|      79 | 0x5154      |       20820 |
|      80 | 0x51DE      |       20958 |
|      81 | 0x6C59      |       27737 |
|      82 | 0x6E07      |       28167 |
|      83 | 0x5096      |       20630 |
|      84 | 0x5237      |       21047 |
|      85 | 0x5305      |       21253 |
|      86 | 0x6C5A      |       27738 |
|      87 | 0x6E91      |       28305 |
|      88 | 0x503F      |       20543 |
|      89 | 0x50FB      |       20731 |
|      90 | 0x6C5B      |       27739 |
|      91 | 0x6D7C      |       28028 |
|      92 | 0x5120      |       20768 |
|      93 | 0x52F1      |       21233 |
|      94 | 0x52C2      |       21186 |
|      95 | 0x6C58      |       27736 |
|      96 | 0x6E06      |       28166 |
|      97 | 0x0032      |          50 |
|      98 | 0x0046      |          70 |
|      99 | 0x0047      |          71 |
|     100 | 0x0048      |          72 |
|     101 | 0x0049      |          73 |
|     102 | 0x004A      |          74 |
|     103 | 0x004B      |          75 |
|     104 | 0x004C      |          76 |
|     105 | 0x004D      |          77 |
|     106 | 0x004E      |          78 |
|     107 | 0x004F      |          79 |
|     108 | 0x0052      |          82 |
|     109 | 0x0054      |          84 |
|     110 | 0x0055      |          85 |
|     111 | 0x0058      |          88 |
|     112 | 0x0059      |          89 |
|     113 | 0x005B      |          91 |
|     114 | 0x005D      |          93 |
|     115 | 0x005E      |          94 |
|     116 | 0x0060      |          96 |
|     117 | 0x0064      |         100 |
|     118 | 0x0066      |         102 |
|     119 | 0x006C      |         108 |
|     120 | 0x0072      |         114 |
|     121 | 0x0076      |         118 |
|     122 | 0x0077      |         119 |
|     123 | 0x001A      |          26 |
|     124 | 0x001B      |          27 |
|     125 | 0x001C      |          28 |
|     126 | 0x001D      |          29 |
|     127 | 0x001E      |          30 |
|     128 | 0x0027      |          39 |
|     129 | 0x0028      |          40 |
|     130 | 0x0029      |          41 |
|     131 | 0x002A      |          42 |
|     132 | 0x002B      |          43 |
|     133 | 0x002C      |          44 |
|     134 | 0x002D      |          45 |
|     135 | 0x002E      |          46 |
|     136 | 0x002F      |          47 |
|     137 | 0x0030      |          48 |
|     138 | 0x006D      |         109 |
|     139 | 0x0079      |         121 |
|     140 | 0x0067      |         103 |
|     141 | 0x007A      |         122 |
|     142 | 0x007B      |         123 |
|     143 | 0x007C      |         124 |
|     144 | 0x007D      |         125 |
|     145 | 0x007F      |         127 |
|     146 | 0x0031      |          49 |
|     147 | 0x0068      |         104 |
|     148 | 0x0069      |         105 |
|     149 | 0x006E      |         110 |
|     150 | 0x0073      |         115 |
|     151 | 0x0074      |         116 |
|     152 | 0x0075      |         117 |
|     153 | 0x006F      |         111 |
|     154 | 0x0005      |           5 |
|     155 | 0x0009      |           9 |
|     156 | 0x00C8      |         200 |
|     157 | 0x00CA      |         202 |
|     158 | 0x00CB      |         203 |
|     159 | 0x00CC      |         204 |
|     160 | 0x00CD      |         205 |
|     161 | 0x00CE      |         206 |
|     162 | 0x00CF      |         207 |
|     163 | 0x0006      |           6 |
|     164 | 0x0010      |          16 |
|     165 | 0x0035      |          53 |
|     166 | 0x0038      |          56 |
|     167 | 0x003A      |          58 |
|     168 | 0x003B      |          59 |
|     169 | 0x0039      |          57 |
|     170 | 0x003E      |          62 |
|     171 | 0x001F      |          31 |
|     172 | 0x0020      |          32 |
|     173 | 0x0021      |          33 |
|     174 | 0x0022      |          34 |
|     175 | 0x003C      |          60 |
|     176 | 0x007E      |         126 |
|     177 | 0x0016      |          22 |
|     178 | 0x0023      |          35 |
|     179 | 0x0024      |          36 |
|     180 | 0x0040      |          64 |
|     181 | 0x0041      |          65 |
|     182 | 0x0042      |          66 |
|     183 | 0x0043      |          67 |
|     184 | 0x0050      |          80 |
|     185 | 0x0051      |          81 |
|     186 | 0x0056      |          86 |
|     187 | 0x0057      |          87 |
|     188 | 0x0004      |           4 |
|     189 | 0x0045      |          69 |
|     190 | 0x0034      |          52 |
|     191 | 0x0025      |          37 |
|     192 | 0x0026      |          38 |
|     193 | 0x0053      |          83 |
|     194 | 0x0017      |          23 |
|     195 | 0x0018      |          24 |
|     196 | 0x0007      |           7 |
|     197 | 0x0019      |          25 |
|     198 | 0x003D      |          61 |
|     199 | 0x003F      |          63 |
|     200 | 0x005A      |          90 |
|     201 | 0x005C      |          92 |
|     202 | 0x005F      |          95 |
|     203 | 0x6FC9      |       28617 |
|     204 | 0x6FCA      |       28618 |
|     205 | 0x6FCB      |       28619 |
|     206 | 0x6FCC      |       28620 |
|     207 | 0x6FCD      |       28621 |
|     208 | 0x6FCE      |       28622 |
|     209 | 0x6FCF      |       28623 |
|     210 | 0x6FD0      |       28624 |
|     211 | 0x6FD1      |       28625 |
|     212 | 0x6FD2      |       28626 |
|     213 | 0x6FD3      |       28627 |
|     214 | 0x6FD4      |       28628 |
|     215 | 0x6FD5      |       28629 |
|     216 | 0x6FD6      |       28630 |
|     217 | 0x6FD7      |       28631 |
|     218 | 0x6FD8      |       28632 |
|     219 | 0x6FD9      |       28633 |
|     220 | 0x6FDA      |       28634 |
|     221 | 0x6FDB      |       28635 |
|     222 | 0x6FDC      |       28636 |
|     223 | 0x6FDD      |       28637 |
|     224 | 0x6FDE      |       28638 |

## String References

- **7649**: Hsss. This's the Celennia Memorial Librrrary, and I'm Reja Ygridhi--the one in charge of keeping dust and paw prints off these tomes.
- **7650**: The city's fat cats told me I have to cooperate with you pioneers' research and let you trrrack mud all over my beloved building. Honestly, though, I don't want your dirty paws anywhere near my books.
- **7651**: Maybe if you show some respect for the wrrritten word first, then I'll have less of a reason to act like a sourpuss. So, you going to rrrun an errand for me or what?
- **7652**: Run an errand for her? [To prove my worth? Of course!/I'm not living under the cat's paw.]
- **7653**: Then you'd better rrremove yourself from my sight before I claw your face off!
- **7654**: Hmph. Maybe you're not so worthless after all. I need you to confirm how purrrtinent our information about the Twelve Orders is.
- **7655**: How? I take it they don't ask you to use your brrrain much out in the jungle, do they? Keep putting one of your legs in front of the other until you rrreach each order, that's how.
- **7656**: I need you to confirm how accurrrate our information about all the Twelve Orders is. Report to me when you're done.
- **7657**: I guess you did a good enough job. I don't apprrreciate your tone, though. Of course there were mistakes--that's because the documents I gave you are years old.
- **7658**: It was all a test, and despite your mouse-sized brain, you were able to surrrpass my expectations. See, we don't just shuffle books around here--we also gather intelligence.
- **7659**: Whether the intelligence you extrrract is worthy of binding and displaying on these shelves is none of your concern. Just collect as much of it as you can and gain as much experience as possible.
- **7660**: Now that I can trrrust you to some extent, I'd rather not have you die. However, certain types of knowledge are more important than the life of one rrreplaceable pioneer.
- **7661**: Moreover, it's the information you risk your life for that's always the most crrrucial.
- **7662**: Don't worry. I'm not so rrreprobate that I won't compensate you for your hard work.
- **7663**: While we're at it, I suppose we can grrrant you access to the shelves of intelligence we've already amassed. Just don't hack up any hairballs on them, got it?
- **7664**: Come back after you've prrrocured a member's card from the Scouts' Coalition and talk to me, then you can lose yourself in the worlds each tome crrreates.
- **7665**: There you are. The library crrraves more information, so go out and get some.
- **7666**: That's enough for now. Give yourself a scrrratch on the back. I guess we prrroved the saying "Curiosity killed the cat" wrong, huh?
- **7667**: There you are. I hate to admit it, but your efforts [in advancing the alliance/at helping the city's populace/in supporting pioneers/during your coalition assignments] deserve prrraise of some sort.
- **7668**: Here's your reward. Now scrrram.
- **7669**: Ah, if it isn't my favorrrite waste of air. The curator's been raving about all you did for our sacred city, and I've been tasked with giving you a little something.
- **7670**: Fine. It's from me, okay!? Just don't go spouting it from the rrrooftops.
- **7671**: There you are. I hate to admit it, but your efforts investigating the Naakuals deserve prrraise of some sort.
- **7672**: What will your reward be? [$1./$2./$3./$4./$5./$6./$7./$8./$9./$10./$11./$12./$13./$14 bayld./$15 kinetic unit[/s]./Nothing for the nonce.]
- **7673**: What will your reward be? [$1./$2./$3./$4./$5./$6./$7./$8./$9./$10./$11./$12./$13./$14./$15./$16./$17./$18./$19 bayld./$20 kinetic unit[/s]./Nothing for the nonce.]
- **7674**: Hmph. You really want [that/bayld/kinetic units]? Now's your last chance to rrreconsider.
- **7675**: Keep what you chose? [Yes./No.]
- **7676**: I knew you'd pussyfoot around in the end. Just tell me what you want when you finally get arrround to deciding.

## Events

### Event 65535

#### Metadata

| Field        | Value   |
|--------------|---------|
| Entrypoint   | 0x0000  |
| Data Size    | 1 bytes |
| Instructions | 1       |

```
      00 01 02 03 04 05 06 07  08 09 0A 0B 0C 0D 0E 0F
      -- -- -- -- -- -- -- --  -- -- -- -- -- -- -- --
0000: 00                                                .               
```

#### Opcodes

```
  0: 0x0000 [0x00] END_REQSTACK()
```

### Event 14

#### Metadata

| Field        | Value    |
|--------------|----------|
| Entrypoint   | 0x0001   |
| Data Size    | 43 bytes |
| Instructions | 9        |

```
      00 01 02 03 04 05 06 07  08 09 0A 0B 0C 0D 0E 0F
      -- -- -- -- -- -- -- --  -- -- -- -- -- -- -- --
0000:    1E F0 FF FF 7F 6F 70  66 00 80 F8 FF FF 7F F8   .....opf.......
0010: FF FF 7F 74 6C 62 30 1D  01 80 23 66 00 80 F8 FF  ...tlb0...#f....
0020: FF 7F F8 FF FF 7F 74 6C  62 31 21 00              ......tlb1!.    
```

#### Opcodes

```
  0: 0x0001 [0x1E] EventEntity looks at LocalPlayer and starts talking
  1: 0x0006 [0x6F] WAIT_FRAME_DELAY: Yield until WaitTime reaches zero
  2: 0x0007 [0x70] WAIT_ENTITY_RENDER_FLAG: Wait while EventEntity->Render.Flags3 bit 2 is set (cancel turn if not)
  3: 0x0008 [0x66] LOAD_EXT_SCHEDULER_MAIN: Load scheduler "tlb0" with entities [EventEntity, EventEntity], work=68*
  4: 0x0017 [0x1D] PRINT_EVENT_MESSAGE(message_id=7664*)
    → "Come back after you've prrrocured a member's card from the Scouts' Coalition and talk to me, then you can lose yourself in the worlds each tome crrreates."
  5: 0x001A [0x23] WAIT_FOR_DIALOG_INTERACTION
  6: 0x001B [0x66] LOAD_EXT_SCHEDULER_MAIN: Load scheduler "tlb1" with entities [EventEntity, EventEntity], work=68*
  7: 0x002A [0x21] END_EVENT
  8: 0x002B [0x00] END_REQSTACK()
```

### Event 23

#### Metadata

| Field        | Value    |
|--------------|----------|
| Entrypoint   | 0x002C   |
| Data Size    | 43 bytes |
| Instructions | 9        |

```
      00 01 02 03 04 05 06 07  08 09 0A 0B 0C 0D 0E 0F
      -- -- -- -- -- -- -- --  -- -- -- -- -- -- -- --
0020:                                      1E F0 FF FF              ....
0030: 7F 6F 70 66 00 80 F8 FF  FF 7F F8 FF FF 7F 74 6C  .opf..........tl
0040: 62 30 1D 02 80 23 66 00  80 F8 FF FF 7F F8 FF FF  b0...#f.........
0050: 7F 74 6C 62 31 21 00                              .tlb1!.         
```

#### Opcodes

```
  0: 0x002C [0x1E] EventEntity looks at LocalPlayer and starts talking
  1: 0x0031 [0x6F] WAIT_FRAME_DELAY: Yield until WaitTime reaches zero
  2: 0x0032 [0x70] WAIT_ENTITY_RENDER_FLAG: Wait while EventEntity->Render.Flags3 bit 2 is set (cancel turn if not)
  3: 0x0033 [0x66] LOAD_EXT_SCHEDULER_MAIN: Load scheduler "tlb0" with entities [EventEntity, EventEntity], work=68*
  4: 0x0042 [0x1D] PRINT_EVENT_MESSAGE(message_id=7665*)
    → "There you are. The library crrraves more information, so go out and get some."
  5: 0x0045 [0x23] WAIT_FOR_DIALOG_INTERACTION
  6: 0x0046 [0x66] LOAD_EXT_SCHEDULER_MAIN: Load scheduler "tlb1" with entities [EventEntity, EventEntity], work=68*
  7: 0x0055 [0x21] END_EVENT
  8: 0x0056 [0x00] END_REQSTACK()
```

### Event 22

#### Metadata

| Field        | Value    |
|--------------|----------|
| Entrypoint   | 0x0057   |
| Data Size    | 63 bytes |
| Instructions | 13       |

```
      00 01 02 03 04 05 06 07  08 09 0A 0B 0C 0D 0E 0F
      -- -- -- -- -- -- -- --  -- -- -- -- -- -- -- --
0050:                      1E  F0 FF FF 7F 6F 70 66 00         .....opf.
0060: 80 F8 FF FF 7F F8 FF FF  7F 74 6C 62 30 02 02 10  .........tlb0...
0070: 03 80 00 79 00 1D 04 80  23 02 02 10 05 80 00 85  ...y....#.......
0080: 00 1D 06 80 23 66 00 80  F8 FF FF 7F F8 FF FF 7F  ....#f..........
0090: 74 6C 62 31 21 00                                 tlb1!.          
```

#### Opcodes

```
  0: 0x0057 [0x1E] EventEntity looks at LocalPlayer and starts talking
  1: 0x005C [0x6F] WAIT_FRAME_DELAY: Yield until WaitTime reaches zero
  2: 0x005D [0x70] WAIT_ENTITY_RENDER_FLAG: Wait while EventEntity->Render.Flags3 bit 2 is set (cancel turn if not)
  3: 0x005E [0x66] LOAD_EXT_SCHEDULER_MAIN: Load scheduler "tlb0" with entities [EventEntity, EventEntity], work=68*
  4: 0x006D [0x02] IF !(Work_Zone[2] == 10*) GOTO 0x0079
  5: 0x0075 [0x1D] PRINT_EVENT_MESSAGE(message_id=7666*)
    → "That's enough for now. Give yourself a scrrratch on the back. I guess we prrroved the saying "Curiosity killed the cat" wrong, huh?"
  6: 0x0078 [0x23] WAIT_FOR_DIALOG_INTERACTION
  7: 0x0079 [0x02] IF !(Work_Zone[2] == 20*) GOTO 0x0085
  8: 0x0081 [0x1D] PRINT_EVENT_MESSAGE(message_id=7670*)
    → "Fine. It's from me, okay!? Just don't go spouting it from the rrrooftops."
  9: 0x0084 [0x23] WAIT_FOR_DIALOG_INTERACTION
 10: 0x0085 [0x66] LOAD_EXT_SCHEDULER_MAIN: Load scheduler "tlb1" with entities [EventEntity, EventEntity], work=68*
 11: 0x0094 [0x21] END_EVENT
 12: 0x0095 [0x00] END_REQSTACK()
```

### Event 17

#### Metadata

| Field        | Value     |
|--------------|-----------|
| Entrypoint   | 0x0096    |
| Data Size    | 149 bytes |
| Instructions | 31        |

```
      00 01 02 03 04 05 06 07  08 09 0A 0B 0C 0D 0E 0F
      -- -- -- -- -- -- -- --  -- -- -- -- -- -- -- --
0090:                   1E F0  FF FF 7F 6F 70 66 07 80        .....opf..
00A0: F8 FF FF 7F F8 FF FF 7F  74 6C 6B 30 1D 08 80 23  ........tlk0...#
00B0: 1D 09 80 23 1D 0A 80 23  66 07 80 F8 FF FF 7F F8  ...#...#f.......
00C0: FF FF 7F 74 6C 6B 32 24  0B 80 0C 80 0C 80 25 02  ...tlk2$......%.
00D0: 00 10 0C 80 00 06 01 42  1D 0D 80 23 66 0E 80 F8  .......B...#f...
00E0: FF FF 7F F8 FF FF 7F 74  6C 6B 30 1D 0F 80 23 66  .......tlk0...#f
00F0: 0E 80 F8 FF FF 7F F8 FF  FF 7F 74 6C 6B 31 03 01  ..........tlk1..
0100: 10 10 80 01 29 01 02 00  10 10 80 00 29 01 66 11  ....).......).f.
0110: 80 F8 FF FF 7F F8 FF FF  7F 61 6E 67 30 1D 12 80  .........ang0...
0120: 23 03 01 10 0C 80 01 29  01 21 00                 #......).!.     
```

#### Opcodes

```
  0: 0x0096 [0x1E] EventEntity looks at LocalPlayer and starts talking
  1: 0x009B [0x6F] WAIT_FRAME_DELAY: Yield until WaitTime reaches zero
  2: 0x009C [0x70] WAIT_ENTITY_RENDER_FLAG: Wait while EventEntity->Render.Flags3 bit 2 is set (cancel turn if not)
  3: 0x009D [0x66] LOAD_EXT_SCHEDULER_MAIN: Load scheduler "tlk0" with entities [EventEntity, EventEntity], work=51*
  4: 0x00AC [0x1D] PRINT_EVENT_MESSAGE(message_id=7649*)
    → "Hsss. This's the Celennia Memorial Librrrary, and I'm Reja Ygridhi--the one in charge of keeping dust and paw prints off these tomes."
  5: 0x00AF [0x23] WAIT_FOR_DIALOG_INTERACTION
  6: 0x00B0 [0x1D] PRINT_EVENT_MESSAGE(message_id=7650*)
    → "The city's fat cats told me I have to cooperate with you pioneers' research and let you trrrack mud all over my beloved building. Honestly, though, I don't want your dirty paws anywhere near my books."
  7: 0x00B3 [0x23] WAIT_FOR_DIALOG_INTERACTION
  8: 0x00B4 [0x1D] PRINT_EVENT_MESSAGE(message_id=7651*)
    → "Maybe if you show some respect for the wrrritten word first, then I'll have less of a reason to act like a sourpuss. So, you going to rrrun an errand for me or what?"
  9: 0x00B7 [0x23] WAIT_FOR_DIALOG_INTERACTION
 10: 0x00B8 [0x66] LOAD_EXT_SCHEDULER_MAIN: Load scheduler "tlk2" with entities [EventEntity, EventEntity], work=51*
 11: 0x00C7 [0x24] CREATE_DIALOG(message_id=7652*, default_option=0*, option_flags=0*)
    → "Run an errand for her? [To prove my worth? Of course!/I'm not living under the cat's paw.]"
 12: 0x00CE [0x25] WAIT_DIALOG_SELECT()
 13: 0x00CF [0x02] IF !(Work_Zone[0] == 0*) GOTO 0x0106
 14: 0x00D7 [0x42] SET_CLI_EVENT_CANCEL_DATA()
 15: 0x00D8 [0x1D] PRINT_EVENT_MESSAGE(message_id=7654*)
    → "Hmph. Maybe you're not so worthless after all. I need you to confirm how purrrtinent our information about the Twelve Orders is."
 16: 0x00DB [0x23] WAIT_FOR_DIALOG_INTERACTION
 17: 0x00DC [0x66] LOAD_EXT_SCHEDULER_MAIN: Load scheduler "tlk0" with entities [EventEntity, EventEntity], work=55*
 18: 0x00EB [0x1D] PRINT_EVENT_MESSAGE(message_id=7655*)
    → "How? I take it they don't ask you to use your brrrain much out in the jungle, do they? Keep putting one of your legs in front of the other until you rrreach each order, that's how."
 19: 0x00EE [0x23] WAIT_FOR_DIALOG_INTERACTION
 20: 0x00EF [0x66] LOAD_EXT_SCHEDULER_MAIN: Load scheduler "tlk1" with entities [EventEntity, EventEntity], work=55*
 21: 0x00FE [0x03] Work_Zone[1] = 1*
 22: 0x0103 [0x01] GOTO 0x0129
 23: 0x0106 [0x02] IF !(Work_Zone[0] == 1*) GOTO 0x0129
 24: 0x010E [0x66] LOAD_EXT_SCHEDULER_MAIN: Load scheduler "ang0" with entities [EventEntity, EventEntity], work=8*
 25: 0x011D [0x1D] PRINT_EVENT_MESSAGE(message_id=7653*)
    → "Then you'd better rrremove yourself from my sight before I claw your face off!"
 26: 0x0120 [0x23] WAIT_FOR_DIALOG_INTERACTION
 27: 0x0121 [0x03] Work_Zone[1] = 0*
 28: 0x0126 [0x01] GOTO 0x0129

SUBROUTINE_0129:
 29: 0x0129 [0x21] END_EVENT
 30: 0x012A [0x00] END_REQSTACK()
```

### Event 18

#### Metadata

| Field        | Value    |
|--------------|----------|
| Entrypoint   | 0x012B   |
| Data Size    | 43 bytes |
| Instructions | 9        |

```
      00 01 02 03 04 05 06 07  08 09 0A 0B 0C 0D 0E 0F
      -- -- -- -- -- -- -- --  -- -- -- -- -- -- -- --
0120:                                   1E F0 FF FF 7F             .....
0130: 6F 70 66 00 80 F8 FF FF  7F F8 FF FF 7F 74 6C 62  opf..........tlb
0140: 30 1D 13 80 23 66 00 80  F8 FF FF 7F F8 FF FF 7F  0...#f..........
0150: 74 6C 62 31 21 00                                 tlb1!.          
```

#### Opcodes

```
  0: 0x012B [0x1E] EventEntity looks at LocalPlayer and starts talking
  1: 0x0130 [0x6F] WAIT_FRAME_DELAY: Yield until WaitTime reaches zero
  2: 0x0131 [0x70] WAIT_ENTITY_RENDER_FLAG: Wait while EventEntity->Render.Flags3 bit 2 is set (cancel turn if not)
  3: 0x0132 [0x66] LOAD_EXT_SCHEDULER_MAIN: Load scheduler "tlb0" with entities [EventEntity, EventEntity], work=68*
  4: 0x0141 [0x1D] PRINT_EVENT_MESSAGE(message_id=7656*)
    → "I need you to confirm how accurrrate our information about all the Twelve Orders is. Report to me when you're done."
  5: 0x0144 [0x23] WAIT_FOR_DIALOG_INTERACTION
  6: 0x0145 [0x66] LOAD_EXT_SCHEDULER_MAIN: Load scheduler "tlb1" with entities [EventEntity, EventEntity], work=68*
  7: 0x0154 [0x21] END_EVENT
  8: 0x0155 [0x00] END_REQSTACK()
```

### Event 19

#### Metadata

| Field        | Value    |
|--------------|----------|
| Entrypoint   | 0x0156   |
| Data Size    | 90 bytes |
| Instructions | 24       |

```
      00 01 02 03 04 05 06 07  08 09 0A 0B 0C 0D 0E 0F
      -- -- -- -- -- -- -- --  -- -- -- -- -- -- -- --
0150:                   42 1E  F0 FF FF 7F 6F 70 66 00        B.....opf.
0160: 80 F8 FF FF 7F F8 FF FF  7F 74 6C 62 30 1D 14 80  .........tlb0...
0170: 23 1D 15 80 23 1D 16 80  23 1D 17 80 23 1D 18 80  #...#...#...#...
0180: 23 1D 19 80 23 1D 1A 80  23 66 00 80 F8 FF FF 7F  #...#...#f......
0190: F8 FF FF 7F 74 6C 62 31  45 1B 80 F8 FF FF 7F F8  ....tlb1E.......
01A0: FF FF 7F 71 73 74 63 0C  80 03 01 10 10 80 21 00  ...qstc.......!.
```

#### Opcodes

```
  0: 0x0156 [0x42] SET_CLI_EVENT_CANCEL_DATA()
  1: 0x0157 [0x1E] EventEntity looks at LocalPlayer and starts talking
  2: 0x015C [0x6F] WAIT_FRAME_DELAY: Yield until WaitTime reaches zero
  3: 0x015D [0x70] WAIT_ENTITY_RENDER_FLAG: Wait while EventEntity->Render.Flags3 bit 2 is set (cancel turn if not)
  4: 0x015E [0x66] LOAD_EXT_SCHEDULER_MAIN: Load scheduler "tlb0" with entities [EventEntity, EventEntity], work=68*
  5: 0x016D [0x1D] PRINT_EVENT_MESSAGE(message_id=7657*)
    → "I guess you did a good enough job. I don't apprrreciate your tone, though. Of course there were mistakes--that's because the documents I gave you are years old."
  6: 0x0170 [0x23] WAIT_FOR_DIALOG_INTERACTION
  7: 0x0171 [0x1D] PRINT_EVENT_MESSAGE(message_id=7658*)
    → "It was all a test, and despite your mouse-sized brain, you were able to surrrpass my expectations. See, we don't just shuffle books around here--we also gather intelligence."
  8: 0x0174 [0x23] WAIT_FOR_DIALOG_INTERACTION
  9: 0x0175 [0x1D] PRINT_EVENT_MESSAGE(message_id=7659*)
    → "Whether the intelligence you extrrract is worthy of binding and displaying on these shelves is none of your concern. Just collect as much of it as you can and gain as much experience as possible."
 10: 0x0178 [0x23] WAIT_FOR_DIALOG_INTERACTION
 11: 0x0179 [0x1D] PRINT_EVENT_MESSAGE(message_id=7660*)
    → "Now that I can trrrust you to some extent, I'd rather not have you die. However, certain types of knowledge are more important than the life of one rrreplaceable pioneer."
 12: 0x017C [0x23] WAIT_FOR_DIALOG_INTERACTION
 13: 0x017D [0x1D] PRINT_EVENT_MESSAGE(message_id=7661*)
    → "Moreover, it's the information you risk your life for that's always the most crrrucial."
 14: 0x0180 [0x23] WAIT_FOR_DIALOG_INTERACTION
 15: 0x0181 [0x1D] PRINT_EVENT_MESSAGE(message_id=7662*)
    → "Don't worry. I'm not so rrreprobate that I won't compensate you for your hard work."
 16: 0x0184 [0x23] WAIT_FOR_DIALOG_INTERACTION
 17: 0x0185 [0x1D] PRINT_EVENT_MESSAGE(message_id=7663*)
    → "While we're at it, I suppose we can grrrant you access to the shelves of intelligence we've already amassed. Just don't hack up any hairballs on them, got it?"
 18: 0x0188 [0x23] WAIT_FOR_DIALOG_INTERACTION
 19: 0x0189 [0x66] LOAD_EXT_SCHEDULER_MAIN: Load scheduler "tlb1" with entities [EventEntity, EventEntity], work=68*
 20: 0x0198 [0x45] LOAD_SCHEDULED_TASK: Load scheduler "qstc" with entities [EventEntity, EventEntity], work=[201*, 0*]
 21: 0x01A9 [0x03] Work_Zone[1] = 1*
 22: 0x01AE [0x21] END_EVENT
 23: 0x01AF [0x00] END_REQSTACK()
```

### Event 20

#### Metadata

| Field        | Value     |
|--------------|-----------|
| Entrypoint   | 0x01B0    |
| Data Size    | 167 bytes |
| Instructions | 33        |

```
      00 01 02 03 04 05 06 07  08 09 0A 0B 0C 0D 0E 0F
      -- -- -- -- -- -- -- --  -- -- -- -- -- -- -- --
01B0: 03 00 00 02 10 42 1E F0  FF FF 7F 6F 70 66 00 80  .....B.....opf..
01C0: F8 FF FF 7F F8 FF FF 7F  74 6C 62 30 02 02 10 03  ........tlb0....
01D0: 80 00 D9 01 03 02 10 0C  80 02 02 10 1C 80 00 E6  ................
01E0: 01 03 02 10 10 80 02 02  10 1D 80 00 F3 01 03 02  ................
01F0: 10 1E 80 02 02 10 1F 80  00 00 02 03 02 10 20 80  .............. .
0200: 02 02 10 21 80 00 0D 02  03 02 10 10 80 02 02 10  ...!............
0210: 05 80 00 25 02 03 02 10  0C 80 1D 22 80 23 1D 06  ...%.......".#..
0220: 80 23 01 29 02 1D 23 80  23 1D 24 80 23 66 25 80  .#.)..#.#.$.#f%.
0230: F8 FF FF 7F F8 FF FF 7F  70 61 73 30 1C 26 80 03  ........pas0.&..
0240: 01 10 00 00 45 1B 80 F8  FF FF 7F F8 FF FF 7F 71  ....E..........q
0250: 73 74 63 0C 80 21 00                              stc..!.         
```

#### Opcodes

```
  0: 0x01B0 [0x03] ExtData[1]->WorkLocal[0] = Work_Zone[2]
  1: 0x01B5 [0x42] SET_CLI_EVENT_CANCEL_DATA()
  2: 0x01B6 [0x1E] EventEntity looks at LocalPlayer and starts talking
  3: 0x01BB [0x6F] WAIT_FRAME_DELAY: Yield until WaitTime reaches zero
  4: 0x01BC [0x70] WAIT_ENTITY_RENDER_FLAG: Wait while EventEntity->Render.Flags3 bit 2 is set (cancel turn if not)
  5: 0x01BD [0x66] LOAD_EXT_SCHEDULER_MAIN: Load scheduler "tlb0" with entities [EventEntity, EventEntity], work=68*
  6: 0x01CC [0x02] IF !(Work_Zone[2] == 10*) GOTO 0x01D9
  7: 0x01D4 [0x03] Work_Zone[2] = 0*
  8: 0x01D9 [0x02] IF !(Work_Zone[2] == 11*) GOTO 0x01E6
  9: 0x01E1 [0x03] Work_Zone[2] = 1*
 10: 0x01E6 [0x02] IF !(Work_Zone[2] == 12*) GOTO 0x01F3
 11: 0x01EE [0x03] Work_Zone[2] = 2*
 12: 0x01F3 [0x02] IF !(Work_Zone[2] == 13*) GOTO 0x0200
 13: 0x01FB [0x03] Work_Zone[2] = 3*
 14: 0x0200 [0x02] IF !(Work_Zone[2] == 21*) GOTO 0x020D
 15: 0x0208 [0x03] Work_Zone[2] = 1*
 16: 0x020D [0x02] IF !(Work_Zone[2] == 20*) GOTO 0x0225
 17: 0x0215 [0x03] Work_Zone[2] = 0*
 18: 0x021A [0x1D] PRINT_EVENT_MESSAGE(message_id=7669*)
    → "Ah, if it isn't my favorrrite waste of air. The curator's been raving about all you did for our sacred city, and I've been tasked with giving you a little something."
 19: 0x021D [0x23] WAIT_FOR_DIALOG_INTERACTION
 20: 0x021E [0x1D] PRINT_EVENT_MESSAGE(message_id=7670*)
    → "Fine. It's from me, okay!? Just don't go spouting it from the rrrooftops."
 21: 0x0221 [0x23] WAIT_FOR_DIALOG_INTERACTION
 22: 0x0222 [0x01] GOTO 0x0229
 23: 0x0225 [0x1D] PRINT_EVENT_MESSAGE(message_id=7667*)
    → "There you are. I hate to admit it, but your efforts [in advancing the alliance/at helping the city's populace/in supporting pioneers/during your coalition assignments] deserve prrraise of some sort."
 24: 0x0228 [0x23] WAIT_FOR_DIALOG_INTERACTION

SUBROUTINE_0229:
 25: 0x0229 [0x1D] PRINT_EVENT_MESSAGE(message_id=7668*)
    → "Here's your reward. Now scrrram."
 26: 0x022C [0x23] WAIT_FOR_DIALOG_INTERACTION
 27: 0x022D [0x66] LOAD_EXT_SCHEDULER_MAIN: Load scheduler "pas0" with entities [EventEntity, EventEntity], work=54*
 28: 0x023C [0x1C] WAIT(120* ticks)
 29: 0x023F [0x03] Work_Zone[1] = ExtData[1]->WorkLocal[0]
 30: 0x0244 [0x45] LOAD_SCHEDULED_TASK: Load scheduler "qstc" with entities [EventEntity, EventEntity], work=[201*, 0*]
 31: 0x0255 [0x21] END_EVENT
 32: 0x0256 [0x00] END_REQSTACK()
```

### Event 15

#### Metadata

| Field        | Value     |
|--------------|-----------|
| Entrypoint   | 0x0257    |
| Data Size    | 397 bytes |
| Instructions | 74        |

```
      00 01 02 03 04 05 06 07  08 09 0A 0B 0C 0D 0E 0F
      -- -- -- -- -- -- -- --  -- -- -- -- -- -- -- --
0250:                      42  1E F0 FF FF 7F 6F 70 66         B.....opf
0260: 00 80 F8 FF FF 7F F8 FF  FF 7F 74 6C 62 30 1D 27  ..........tlb0.'
0270: 80 23 66 00 80 F8 FF FF  7F F8 FF FF 7F 74 6C 62  .#f..........tlb
0280: 31 06 01 00 06 03 00 06  05 00 02 05 00 0C 80 00  1...............
0290: E2 03 02 03 00 1F 80 05  B0 02 9D 00 35 07 02 00  ............5...
02A0: 03 00 9D 05 05 07 02 00  03 00 0B 03 00 01 92 02  ................
02B0: 03 06 17 28 80 03 07 17  29 80 24 2A 80 0C 80 0C  ...(....).$*....
02C0: 80 25 02 00 10 0C 80 00  CD 02 01 CD 02 03 04 00  .%..............
02D0: 00 10 02 04 00 1D 80 05  2A 03 9D 00 35 07 02 00  ........*...5...
02E0: 04 00 93 02 00 03 02 10  0C 80 1D 2B 80 23 93 0C  ...........+.#..
02F0: 80 24 2C 80 10 80 0C 80  25 02 00 10 0C 80 00 1F  .$,.....%.......
0300: 03 0B 04 00 03 01 10 04  00 45 1B 80 F8 FF FF 7F  .........E......
0310: F8 FF FF 7F 71 73 74 63  0C 80 21 00 01 2A 03 02  ....qstc..!..*..
0320: 00 10 10 80 00 2A 03 01  2A 03 02 04 00 1F 80 00  .....*..*.......
0330: 79 03 03 04 00 00 10 03  02 10 10 80 1D 2B 80 23  y............+.#
0340: 24 2C 80 10 80 0C 80 25  02 00 10 0C 80 00 6E 03  $,.....%......n.
0350: 0B 04 00 03 01 10 04 00  45 1B 80 F8 FF FF 7F F8  ........E.......
0360: FF FF 7F 71 73 74 63 0C  80 21 00 01 79 03 02 00  ...qstc..!..y...
0370: 10 10 80 00 79 03 01 79  03 02 04 00 2D 80 00 C8  ....y..y....-...
0380: 03 03 04 00 00 10 03 02  10 1E 80 1D 2B 80 23 24  ............+.#$
0390: 2C 80 10 80 0C 80 25 02  00 10 0C 80 00 BD 03 0B  ,.....%.........
03A0: 04 00 03 01 10 04 00 45  1B 80 F8 FF FF 7F F8 FF  .......E........
03B0: FF 7F 71 73 74 63 0C 80  21 00 01 C8 03 02 00 10  ..qstc..!.......
03C0: 10 80 00 C8 03 01 C8 03  02 04 00 2E 80 00 DF 03  ................
03D0: 1D 2F 80 23 05 05 00 0B  04 00 03 01 10 04 00 01  ./.#............
03E0: 8A 02 21 00                                       ..!.            
```

#### Opcodes

```
  0: 0x0257 [0x42] SET_CLI_EVENT_CANCEL_DATA()
  1: 0x0258 [0x1E] EventEntity looks at LocalPlayer and starts talking
  2: 0x025D [0x6F] WAIT_FRAME_DELAY: Yield until WaitTime reaches zero
  3: 0x025E [0x70] WAIT_ENTITY_RENDER_FLAG: Wait while EventEntity->Render.Flags3 bit 2 is set (cancel turn if not)
  4: 0x025F [0x66] LOAD_EXT_SCHEDULER_MAIN: Load scheduler "tlb0" with entities [EventEntity, EventEntity], work=68*
  5: 0x026E [0x1D] PRINT_EVENT_MESSAGE(message_id=7671*)
    → "There you are. I hate to admit it, but your efforts investigating the Naakuals deserve prrraise of some sort."
  6: 0x0271 [0x23] WAIT_FOR_DIALOG_INTERACTION
  7: 0x0272 [0x66] LOAD_EXT_SCHEDULER_MAIN: Load scheduler "tlb1" with entities [EventEntity, EventEntity], work=68*
  8: 0x0281 [0x06] ExtData[1]->WorkLocal[1] = 0
  9: 0x0284 [0x06] ExtData[1]->WorkLocal[3] = 0
 10: 0x0287 [0x06] ExtData[1]->WorkLocal[5] = 0
 11: 0x028A [0x02] IF !(ExtData[1]->WorkLocal[5] == 0*) GOTO 0x03E2
 12: 0x0292 [0x02] IF !(ExtData[1]->WorkLocal[3] > 13*) GOTO 0x02B0
 13: 0x029A [0x9D] ExtData[1]->WorkLocal[2] = 0x0735[ExtData[1]->WorkLocal[3]] // Read WORD
 14: 0x02A2 [0x9D] 0x0705[ExtData[1]->WorkLocal[3] * 2] = ExtData[1]->WorkLocal[2] // Write WORD
 15: 0x02AA [0x0B] ExtData[1]->WorkLocal[3]++
 16: 0x02AD [0x01] GOTO 0x0292
 17: 0x02B0 [0x03] Work_Zone_1700[6] = 30000*
 18: 0x02B5 [0x03] Work_Zone_1700[7] = 20000*
 19: 0x02BA [0x24] CREATE_DIALOG(message_id=7672*, default_option=0*, option_flags=0*)
    → "What will your reward be? [$1./$2./$3./$4./$5./$6./$7./$8./$9./$10./$11./$12./$13./$14 bayld./$15 kinetic unit[/s]./Nothing for the nonce.]"
 20: 0x02C1 [0x25] WAIT_DIALOG_SELECT()
 21: 0x02C2 [0x02] IF !(Work_Zone[0] == 0*) GOTO 0x02CD
 22: 0x02CA [0x01] GOTO 0x02CD

SUBROUTINE_02CD:
 23: 0x02CD [0x03] ExtData[1]->WorkLocal[4] = Work_Zone[0]
 24: 0x02D2 [0x02] IF !(ExtData[1]->WorkLocal[4] > 12*) GOTO 0x032A
 25: 0x02DA [0x9D] ExtData[1]->WorkLocal[2] = 0x0735[ExtData[1]->WorkLocal[4]] // Read WORD
 26: 0x02E2 [0x93] DISPLAY_ITEM_INFO(item_id=ExtData[1]->WorkLocal[2])
 27: 0x02E5 [0x03] Work_Zone[2] = 0*
 28: 0x02EA [0x1D] PRINT_EVENT_MESSAGE(message_id=7674*)
    → "Hmph. You really want [that/bayld/kinetic units]? Now's your last chance to rrreconsider."
 29: 0x02ED [0x23] WAIT_FOR_DIALOG_INTERACTION
 30: 0x02EE [0x93] DISPLAY_ITEM_INFO(item_id=0*)
 31: 0x02F1 [0x24] CREATE_DIALOG(message_id=7675*, default_option=1*, option_flags=0*)
    → "Keep what you chose? [Yes./No.]"
 32: 0x02F8 [0x25] WAIT_DIALOG_SELECT()
 33: 0x02F9 [0x02] IF !(Work_Zone[0] == 0*) GOTO 0x031F
 34: 0x0301 [0x0B] ExtData[1]->WorkLocal[4]++
 35: 0x0304 [0x03] Work_Zone[1] = ExtData[1]->WorkLocal[4]
 36: 0x0309 [0x45] LOAD_SCHEDULED_TASK: Load scheduler "qstc" with entities [EventEntity, EventEntity], work=[201*, 0*]
 37: 0x031A [0x21] END_EVENT
 38: 0x031B [0x00] END_REQSTACK()

SUBROUTINE_032A:
 39: 0x032A [0x02] IF !(ExtData[1]->WorkLocal[4] == 13*) GOTO 0x0379
 40: 0x0332 [0x03] ExtData[1]->WorkLocal[4] = Work_Zone[0]
 41: 0x0337 [0x03] Work_Zone[2] = 1*
 42: 0x033C [0x1D] PRINT_EVENT_MESSAGE(message_id=7674*)
    → "Hmph. You really want [that/bayld/kinetic units]? Now's your last chance to rrreconsider."
 43: 0x033F [0x23] WAIT_FOR_DIALOG_INTERACTION
 44: 0x0340 [0x24] CREATE_DIALOG(message_id=7675*, default_option=1*, option_flags=0*)
    → "Keep what you chose? [Yes./No.]"
 45: 0x0347 [0x25] WAIT_DIALOG_SELECT()
 46: 0x0348 [0x02] IF !(Work_Zone[0] == 0*) GOTO 0x036E
 47: 0x0350 [0x0B] ExtData[1]->WorkLocal[4]++
 48: 0x0353 [0x03] Work_Zone[1] = ExtData[1]->WorkLocal[4]
 49: 0x0358 [0x45] LOAD_SCHEDULED_TASK: Load scheduler "qstc" with entities [EventEntity, EventEntity], work=[201*, 0*]
 50: 0x0369 [0x21] END_EVENT
 51: 0x036A [0x00] END_REQSTACK()

SUBROUTINE_0379:
 52: 0x0379 [0x02] IF !(ExtData[1]->WorkLocal[4] == 14*) GOTO 0x03C8
 53: 0x0381 [0x03] ExtData[1]->WorkLocal[4] = Work_Zone[0]
 54: 0x0386 [0x03] Work_Zone[2] = 2*
 55: 0x038B [0x1D] PRINT_EVENT_MESSAGE(message_id=7674*)
    → "Hmph. You really want [that/bayld/kinetic units]? Now's your last chance to rrreconsider."
 56: 0x038E [0x23] WAIT_FOR_DIALOG_INTERACTION
 57: 0x038F [0x24] CREATE_DIALOG(message_id=7675*, default_option=1*, option_flags=0*)
    → "Keep what you chose? [Yes./No.]"
 58: 0x0396 [0x25] WAIT_DIALOG_SELECT()
 59: 0x0397 [0x02] IF !(Work_Zone[0] == 0*) GOTO 0x03BD
 60: 0x039F [0x0B] ExtData[1]->WorkLocal[4]++
 61: 0x03A2 [0x03] Work_Zone[1] = ExtData[1]->WorkLocal[4]
 62: 0x03A7 [0x45] LOAD_SCHEDULED_TASK: Load scheduler "qstc" with entities [EventEntity, EventEntity], work=[201*, 0*]
 63: 0x03B8 [0x21] END_EVENT
 64: 0x03B9 [0x00] END_REQSTACK()

SUBROUTINE_03C8:
 65: 0x03C8 [0x02] IF !(ExtData[1]->WorkLocal[4] == 15*) GOTO 0x03DF
 66: 0x03D0 [0x1D] PRINT_EVENT_MESSAGE(message_id=7676*)
    → "I knew you'd pussyfoot around in the end. Just tell me what you want when you finally get arrround to deciding."
 67: 0x03D3 [0x23] WAIT_FOR_DIALOG_INTERACTION
 68: 0x03D4 [0x05] ExtData[1]->WorkLocal[5] = 1
 69: 0x03D7 [0x0B] ExtData[1]->WorkLocal[4]++
 70: 0x03DA [0x03] Work_Zone[1] = ExtData[1]->WorkLocal[4]
 71: 0x03DF [0x01] GOTO 0x028A
 72: 0x03E2 [0x21] END_EVENT
 73: 0x03E3 [0x00] END_REQSTACK()
```

#### Data or dead code:

```
# Dead code (unreachable instructions):
     0x031C [0x01] GOTO 0x032A
# Dead code (unreachable instructions):
     0x036B [0x01] GOTO 0x0379
# Dead code (unreachable instructions):
     0x03BA [0x01] GOTO 0x03C8
```

### Event 16

#### Metadata

| Field        | Value     |
|--------------|-----------|
| Entrypoint   | 0x03E4    |
| Data Size    | 402 bytes |
| Instructions | 75        |

```
      00 01 02 03 04 05 06 07  08 09 0A 0B 0C 0D 0E 0F
      -- -- -- -- -- -- -- --  -- -- -- -- -- -- -- --
03E0:             42 1E F0 FF  FF 7F 6F 70 66 00 80 F8      B.....opf...
03F0: FF FF 7F F8 FF FF 7F 74  6C 62 30 1D 27 80 23 66  .......tlb0.'.#f
0400: 00 80 F8 FF FF 7F F8 FF  FF 7F 74 6C 62 31 06 01  ..........tlb1..
0410: 00 06 03 00 06 05 00 02  05 00 0C 80 00 74 05 02  .............t..
0420: 03 00 1D 80 05 3D 04 9D  00 65 07 02 00 03 00 9D  .....=...e......
0430: 05 05 07 02 00 03 00 0B  03 00 01 1F 04 03 06 17  ................
0440: 28 80 03 07 17 29 80 03  06 00 30 80 24 2A 80 0C  (....)....0.$*..
0450: 80 06 00 25 02 00 10 0C  80 00 5F 04 01 5F 04 03  ...%......_.._..
0460: 04 00 00 10 02 04 00 1D  80 05 BC 04 9D 00 65 07  ..............e.
0470: 02 00 04 00 93 02 00 03  02 10 0C 80 1D 2B 80 23  .............+.#
0480: 93 0C 80 24 2C 80 10 80  0C 80 25 02 00 10 0C 80  ...$,.....%.....
0490: 00 B1 04 0B 04 00 03 01  10 04 00 45 1B 80 F8 FF  ...........E....
04A0: FF 7F F8 FF FF 7F 71 73  74 63 0C 80 21 00 01 BC  ......qstc..!...
04B0: 04 02 00 10 10 80 00 BC  04 01 BC 04 02 04 00 1F  ................
04C0: 80 00 0B 05 03 04 00 00  10 03 02 10 10 80 1D 2B  ...............+
04D0: 80 23 24 2C 80 10 80 0C  80 25 02 00 10 0C 80 00  .#$,.....%......
04E0: 00 05 0B 04 00 03 01 10  04 00 45 1B 80 F8 FF FF  ..........E.....
04F0: 7F F8 FF FF 7F 71 73 74  63 0C 80 21 00 01 0B 05  .....qstc..!....
0500: 02 00 10 10 80 00 0B 05  01 0B 05 02 04 00 2D 80  ..............-.
0510: 00 5A 05 03 04 00 00 10  03 02 10 1E 80 1D 2B 80  .Z............+.
0520: 23 24 2C 80 10 80 0C 80  25 02 00 10 0C 80 00 4F  #$,.....%......O
0530: 05 0B 04 00 03 01 10 04  00 45 1B 80 F8 FF FF 7F  .........E......
0540: F8 FF FF 7F 71 73 74 63  0C 80 21 00 01 5A 05 02  ....qstc..!..Z..
0550: 00 10 10 80 00 5A 05 01  5A 05 02 04 00 2E 80 00  .....Z..Z.......
0560: 71 05 1D 2F 80 23 05 05  00 0B 04 00 03 01 10 04  q../.#..........
0570: 00 01 17 04 21 00                                 ....!.          
```

#### Opcodes

```
  0: 0x03E4 [0x42] SET_CLI_EVENT_CANCEL_DATA()
  1: 0x03E5 [0x1E] EventEntity looks at LocalPlayer and starts talking
  2: 0x03EA [0x6F] WAIT_FRAME_DELAY: Yield until WaitTime reaches zero
  3: 0x03EB [0x70] WAIT_ENTITY_RENDER_FLAG: Wait while EventEntity->Render.Flags3 bit 2 is set (cancel turn if not)
  4: 0x03EC [0x66] LOAD_EXT_SCHEDULER_MAIN: Load scheduler "tlb0" with entities [EventEntity, EventEntity], work=68*
  5: 0x03FB [0x1D] PRINT_EVENT_MESSAGE(message_id=7671*)
    → "There you are. I hate to admit it, but your efforts investigating the Naakuals deserve prrraise of some sort."
  6: 0x03FE [0x23] WAIT_FOR_DIALOG_INTERACTION
  7: 0x03FF [0x66] LOAD_EXT_SCHEDULER_MAIN: Load scheduler "tlb1" with entities [EventEntity, EventEntity], work=68*
  8: 0x040E [0x06] ExtData[1]->WorkLocal[1] = 0
  9: 0x0411 [0x06] ExtData[1]->WorkLocal[3] = 0
 10: 0x0414 [0x06] ExtData[1]->WorkLocal[5] = 0
 11: 0x0417 [0x02] IF !(ExtData[1]->WorkLocal[5] == 0*) GOTO 0x0574
 12: 0x041F [0x02] IF !(ExtData[1]->WorkLocal[3] > 12*) GOTO 0x043D
 13: 0x0427 [0x9D] ExtData[1]->WorkLocal[2] = 0x0765[ExtData[1]->WorkLocal[3]] // Read WORD
 14: 0x042F [0x9D] 0x0705[ExtData[1]->WorkLocal[3] * 2] = ExtData[1]->WorkLocal[2] // Write WORD
 15: 0x0437 [0x0B] ExtData[1]->WorkLocal[3]++
 16: 0x043A [0x01] GOTO 0x041F
 17: 0x043D [0x03] Work_Zone_1700[6] = 30000*
 18: 0x0442 [0x03] Work_Zone_1700[7] = 20000*
 19: 0x0447 [0x03] ExtData[1]->WorkLocal[6] = 3567587328*
 20: 0x044C [0x24] CREATE_DIALOG(message_id=7672*, default_option=0*, option_flags=ExtData[1]->WorkLocal[6])
    → "What will your reward be? [$1./$2./$3./$4./$5./$6./$7./$8./$9./$10./$11./$12./$13./$14 bayld./$15 kinetic unit[/s]./Nothing for the nonce.]"
 21: 0x0453 [0x25] WAIT_DIALOG_SELECT()
 22: 0x0454 [0x02] IF !(Work_Zone[0] == 0*) GOTO 0x045F
 23: 0x045C [0x01] GOTO 0x045F

SUBROUTINE_045F:
 24: 0x045F [0x03] ExtData[1]->WorkLocal[4] = Work_Zone[0]
 25: 0x0464 [0x02] IF !(ExtData[1]->WorkLocal[4] > 12*) GOTO 0x04BC
 26: 0x046C [0x9D] ExtData[1]->WorkLocal[2] = 0x0765[ExtData[1]->WorkLocal[4]] // Read WORD
 27: 0x0474 [0x93] DISPLAY_ITEM_INFO(item_id=ExtData[1]->WorkLocal[2])
 28: 0x0477 [0x03] Work_Zone[2] = 0*
 29: 0x047C [0x1D] PRINT_EVENT_MESSAGE(message_id=7674*)
    → "Hmph. You really want [that/bayld/kinetic units]? Now's your last chance to rrreconsider."
 30: 0x047F [0x23] WAIT_FOR_DIALOG_INTERACTION
 31: 0x0480 [0x93] DISPLAY_ITEM_INFO(item_id=0*)
 32: 0x0483 [0x24] CREATE_DIALOG(message_id=7675*, default_option=1*, option_flags=0*)
    → "Keep what you chose? [Yes./No.]"
 33: 0x048A [0x25] WAIT_DIALOG_SELECT()
 34: 0x048B [0x02] IF !(Work_Zone[0] == 0*) GOTO 0x04B1
 35: 0x0493 [0x0B] ExtData[1]->WorkLocal[4]++
 36: 0x0496 [0x03] Work_Zone[1] = ExtData[1]->WorkLocal[4]
 37: 0x049B [0x45] LOAD_SCHEDULED_TASK: Load scheduler "qstc" with entities [EventEntity, EventEntity], work=[201*, 0*]
 38: 0x04AC [0x21] END_EVENT
 39: 0x04AD [0x00] END_REQSTACK()

SUBROUTINE_04BC:
 40: 0x04BC [0x02] IF !(ExtData[1]->WorkLocal[4] == 13*) GOTO 0x050B
 41: 0x04C4 [0x03] ExtData[1]->WorkLocal[4] = Work_Zone[0]
 42: 0x04C9 [0x03] Work_Zone[2] = 1*
 43: 0x04CE [0x1D] PRINT_EVENT_MESSAGE(message_id=7674*)
    → "Hmph. You really want [that/bayld/kinetic units]? Now's your last chance to rrreconsider."
 44: 0x04D1 [0x23] WAIT_FOR_DIALOG_INTERACTION
 45: 0x04D2 [0x24] CREATE_DIALOG(message_id=7675*, default_option=1*, option_flags=0*)
    → "Keep what you chose? [Yes./No.]"
 46: 0x04D9 [0x25] WAIT_DIALOG_SELECT()
 47: 0x04DA [0x02] IF !(Work_Zone[0] == 0*) GOTO 0x0500
 48: 0x04E2 [0x0B] ExtData[1]->WorkLocal[4]++
 49: 0x04E5 [0x03] Work_Zone[1] = ExtData[1]->WorkLocal[4]
 50: 0x04EA [0x45] LOAD_SCHEDULED_TASK: Load scheduler "qstc" with entities [EventEntity, EventEntity], work=[201*, 0*]
 51: 0x04FB [0x21] END_EVENT
 52: 0x04FC [0x00] END_REQSTACK()

SUBROUTINE_050B:
 53: 0x050B [0x02] IF !(ExtData[1]->WorkLocal[4] == 14*) GOTO 0x055A
 54: 0x0513 [0x03] ExtData[1]->WorkLocal[4] = Work_Zone[0]
 55: 0x0518 [0x03] Work_Zone[2] = 2*
 56: 0x051D [0x1D] PRINT_EVENT_MESSAGE(message_id=7674*)
    → "Hmph. You really want [that/bayld/kinetic units]? Now's your last chance to rrreconsider."
 57: 0x0520 [0x23] WAIT_FOR_DIALOG_INTERACTION
 58: 0x0521 [0x24] CREATE_DIALOG(message_id=7675*, default_option=1*, option_flags=0*)
    → "Keep what you chose? [Yes./No.]"
 59: 0x0528 [0x25] WAIT_DIALOG_SELECT()
 60: 0x0529 [0x02] IF !(Work_Zone[0] == 0*) GOTO 0x054F
 61: 0x0531 [0x0B] ExtData[1]->WorkLocal[4]++
 62: 0x0534 [0x03] Work_Zone[1] = ExtData[1]->WorkLocal[4]
 63: 0x0539 [0x45] LOAD_SCHEDULED_TASK: Load scheduler "qstc" with entities [EventEntity, EventEntity], work=[201*, 0*]
 64: 0x054A [0x21] END_EVENT
 65: 0x054B [0x00] END_REQSTACK()

SUBROUTINE_055A:
 66: 0x055A [0x02] IF !(ExtData[1]->WorkLocal[4] == 15*) GOTO 0x0571
 67: 0x0562 [0x1D] PRINT_EVENT_MESSAGE(message_id=7676*)
    → "I knew you'd pussyfoot around in the end. Just tell me what you want when you finally get arrround to deciding."
 68: 0x0565 [0x23] WAIT_FOR_DIALOG_INTERACTION
 69: 0x0566 [0x05] ExtData[1]->WorkLocal[5] = 1
 70: 0x0569 [0x0B] ExtData[1]->WorkLocal[4]++
 71: 0x056C [0x03] Work_Zone[1] = ExtData[1]->WorkLocal[4]
 72: 0x0571 [0x01] GOTO 0x0417
 73: 0x0574 [0x21] END_EVENT
 74: 0x0575 [0x00] END_REQSTACK()
```

#### Data or dead code:

```
# Dead code (unreachable instructions):
     0x04AE [0x01] GOTO 0x04BC
# Dead code (unreachable instructions):
     0x04FD [0x01] GOTO 0x050B
# Dead code (unreachable instructions):
     0x054C [0x01] GOTO 0x055A
```

### Event 28

#### Metadata

| Field        | Value     |
|--------------|-----------|
| Entrypoint   | 0x0576    |
| Data Size    | 397 bytes |
| Instructions | 74        |

```
      00 01 02 03 04 05 06 07  08 09 0A 0B 0C 0D 0E 0F
      -- -- -- -- -- -- -- --  -- -- -- -- -- -- -- --
0570:                   42 1E  F0 FF FF 7F 6F 70 66 00        B.....opf.
0580: 80 F8 FF FF 7F F8 FF FF  7F 74 6C 62 30 1D 27 80  .........tlb0.'.
0590: 23 66 00 80 F8 FF FF 7F  F8 FF FF 7F 74 6C 62 31  #f..........tlb1
05A0: 06 01 00 06 03 00 06 05  00 02 05 00 0C 80 00 01  ................
05B0: 07 02 03 00 31 80 05 CF  05 9D 00 95 07 02 00 03  ....1...........
05C0: 00 9D 05 05 07 02 00 03  00 0B 03 00 01 B1 05 03  ................
05D0: 0B 17 32 80 03 0C 17 28  80 24 33 80 0C 80 06 00  ..2....(.$3.....
05E0: 25 02 00 10 0C 80 00 EC  05 01 EC 05 03 04 00 00  %...............
05F0: 10 02 04 00 34 80 05 49  06 9D 00 95 07 02 00 04  ....4..I........
0600: 00 93 02 00 03 02 10 0C  80 1D 2B 80 23 93 0C 80  ..........+.#...
0610: 24 2C 80 10 80 0C 80 25  02 00 10 0C 80 00 3E 06  $,.....%......>.
0620: 0B 04 00 03 01 10 04 00  45 1B 80 F8 FF FF 7F F8  ........E.......
0630: FF FF 7F 71 73 74 63 0C  80 21 00 01 49 06 02 00  ...qstc..!..I...
0640: 10 10 80 00 49 06 01 49  06 02 04 00 31 80 00 98  ....I..I....1...
0650: 06 03 04 00 00 10 03 02  10 10 80 1D 2B 80 23 24  ............+.#$
0660: 2C 80 10 80 0C 80 25 02  00 10 0C 80 00 8D 06 0B  ,.....%.........
0670: 04 00 03 01 10 04 00 45  1B 80 F8 FF FF 7F F8 FF  .......E........
0680: FF 7F 71 73 74 63 0C 80  21 00 01 98 06 02 00 10  ..qstc..!.......
0690: 10 80 00 98 06 01 98 06  02 04 00 35 80 00 E7 06  ...........5....
06A0: 03 04 00 00 10 03 02 10  1E 80 1D 2B 80 23 24 2C  ...........+.#$,
06B0: 80 10 80 0C 80 25 02 00  10 0C 80 00 DC 06 0B 04  .....%..........
06C0: 00 03 01 10 04 00 45 1B  80 F8 FF FF 7F F8 FF FF  ......E.........
06D0: 7F 71 73 74 63 0C 80 21  00 01 E7 06 02 00 10 10  .qstc..!........
06E0: 80 00 E7 06 01 E7 06 02  04 00 05 80 00 FE 06 1D  ................
06F0: 2F 80 23 05 05 00 0B 04  00 03 01 10 04 00 01 A9  /.#.............
0700: 05 21 00                                          .!.             
```

#### Opcodes

```
  0: 0x0576 [0x42] SET_CLI_EVENT_CANCEL_DATA()
  1: 0x0577 [0x1E] EventEntity looks at LocalPlayer and starts talking
  2: 0x057C [0x6F] WAIT_FRAME_DELAY: Yield until WaitTime reaches zero
  3: 0x057D [0x70] WAIT_ENTITY_RENDER_FLAG: Wait while EventEntity->Render.Flags3 bit 2 is set (cancel turn if not)
  4: 0x057E [0x66] LOAD_EXT_SCHEDULER_MAIN: Load scheduler "tlb0" with entities [EventEntity, EventEntity], work=68*
  5: 0x058D [0x1D] PRINT_EVENT_MESSAGE(message_id=7671*)
    → "There you are. I hate to admit it, but your efforts investigating the Naakuals deserve prrraise of some sort."
  6: 0x0590 [0x23] WAIT_FOR_DIALOG_INTERACTION
  7: 0x0591 [0x66] LOAD_EXT_SCHEDULER_MAIN: Load scheduler "tlb1" with entities [EventEntity, EventEntity], work=68*
  8: 0x05A0 [0x06] ExtData[1]->WorkLocal[1] = 0
  9: 0x05A3 [0x06] ExtData[1]->WorkLocal[3] = 0
 10: 0x05A6 [0x06] ExtData[1]->WorkLocal[5] = 0
 11: 0x05A9 [0x02] IF !(ExtData[1]->WorkLocal[5] == 0*) GOTO 0x0701
 12: 0x05B1 [0x02] IF !(ExtData[1]->WorkLocal[3] > 18*) GOTO 0x05CF
 13: 0x05B9 [0x9D] ExtData[1]->WorkLocal[2] = 0x0795[ExtData[1]->WorkLocal[3]] // Read WORD
 14: 0x05C1 [0x9D] 0x0705[ExtData[1]->WorkLocal[3] * 2] = ExtData[1]->WorkLocal[2] // Write WORD
 15: 0x05C9 [0x0B] ExtData[1]->WorkLocal[3]++
 16: 0x05CC [0x01] GOTO 0x05B1
 17: 0x05CF [0x03] Work_Zone_1700[11] = 50000*
 18: 0x05D4 [0x03] Work_Zone_1700[12] = 30000*
 19: 0x05D9 [0x24] CREATE_DIALOG(message_id=7673*, default_option=0*, option_flags=ExtData[1]->WorkLocal[6])
    → "What will your reward be? [$1./$2./$3./$4./$5./$6./$7./$8./$9./$10./$11./$12./$13./$14./$15./$16./$17./$18./$19 bayld./$20 kinetic unit[/s]./Nothing for the nonce.]"
 20: 0x05E0 [0x25] WAIT_DIALOG_SELECT()
 21: 0x05E1 [0x02] IF !(Work_Zone[0] == 0*) GOTO 0x05EC
 22: 0x05E9 [0x01] GOTO 0x05EC

SUBROUTINE_05EC:
 23: 0x05EC [0x03] ExtData[1]->WorkLocal[4] = Work_Zone[0]
 24: 0x05F1 [0x02] IF !(ExtData[1]->WorkLocal[4] > 17*) GOTO 0x0649
 25: 0x05F9 [0x9D] ExtData[1]->WorkLocal[2] = 0x0795[ExtData[1]->WorkLocal[4]] // Read WORD
 26: 0x0601 [0x93] DISPLAY_ITEM_INFO(item_id=ExtData[1]->WorkLocal[2])
 27: 0x0604 [0x03] Work_Zone[2] = 0*
 28: 0x0609 [0x1D] PRINT_EVENT_MESSAGE(message_id=7674*)
    → "Hmph. You really want [that/bayld/kinetic units]? Now's your last chance to rrreconsider."
 29: 0x060C [0x23] WAIT_FOR_DIALOG_INTERACTION
 30: 0x060D [0x93] DISPLAY_ITEM_INFO(item_id=0*)
 31: 0x0610 [0x24] CREATE_DIALOG(message_id=7675*, default_option=1*, option_flags=0*)
    → "Keep what you chose? [Yes./No.]"
 32: 0x0617 [0x25] WAIT_DIALOG_SELECT()
 33: 0x0618 [0x02] IF !(Work_Zone[0] == 0*) GOTO 0x063E
 34: 0x0620 [0x0B] ExtData[1]->WorkLocal[4]++
 35: 0x0623 [0x03] Work_Zone[1] = ExtData[1]->WorkLocal[4]
 36: 0x0628 [0x45] LOAD_SCHEDULED_TASK: Load scheduler "qstc" with entities [EventEntity, EventEntity], work=[201*, 0*]
 37: 0x0639 [0x21] END_EVENT
 38: 0x063A [0x00] END_REQSTACK()

SUBROUTINE_0649:
 39: 0x0649 [0x02] IF !(ExtData[1]->WorkLocal[4] == 18*) GOTO 0x0698
 40: 0x0651 [0x03] ExtData[1]->WorkLocal[4] = Work_Zone[0]
 41: 0x0656 [0x03] Work_Zone[2] = 1*
 42: 0x065B [0x1D] PRINT_EVENT_MESSAGE(message_id=7674*)
    → "Hmph. You really want [that/bayld/kinetic units]? Now's your last chance to rrreconsider."
 43: 0x065E [0x23] WAIT_FOR_DIALOG_INTERACTION
 44: 0x065F [0x24] CREATE_DIALOG(message_id=7675*, default_option=1*, option_flags=0*)
    → "Keep what you chose? [Yes./No.]"
 45: 0x0666 [0x25] WAIT_DIALOG_SELECT()
 46: 0x0667 [0x02] IF !(Work_Zone[0] == 0*) GOTO 0x068D
 47: 0x066F [0x0B] ExtData[1]->WorkLocal[4]++
 48: 0x0672 [0x03] Work_Zone[1] = ExtData[1]->WorkLocal[4]
 49: 0x0677 [0x45] LOAD_SCHEDULED_TASK: Load scheduler "qstc" with entities [EventEntity, EventEntity], work=[201*, 0*]
 50: 0x0688 [0x21] END_EVENT
 51: 0x0689 [0x00] END_REQSTACK()

SUBROUTINE_0698:
 52: 0x0698 [0x02] IF !(ExtData[1]->WorkLocal[4] == 19*) GOTO 0x06E7
 53: 0x06A0 [0x03] ExtData[1]->WorkLocal[4] = Work_Zone[0]
 54: 0x06A5 [0x03] Work_Zone[2] = 2*
 55: 0x06AA [0x1D] PRINT_EVENT_MESSAGE(message_id=7674*)
    → "Hmph. You really want [that/bayld/kinetic units]? Now's your last chance to rrreconsider."
 56: 0x06AD [0x23] WAIT_FOR_DIALOG_INTERACTION
 57: 0x06AE [0x24] CREATE_DIALOG(message_id=7675*, default_option=1*, option_flags=0*)
    → "Keep what you chose? [Yes./No.]"
 58: 0x06B5 [0x25] WAIT_DIALOG_SELECT()
 59: 0x06B6 [0x02] IF !(Work_Zone[0] == 0*) GOTO 0x06DC
 60: 0x06BE [0x0B] ExtData[1]->WorkLocal[4]++
 61: 0x06C1 [0x03] Work_Zone[1] = ExtData[1]->WorkLocal[4]
 62: 0x06C6 [0x45] LOAD_SCHEDULED_TASK: Load scheduler "qstc" with entities [EventEntity, EventEntity], work=[201*, 0*]
 63: 0x06D7 [0x21] END_EVENT
 64: 0x06D8 [0x00] END_REQSTACK()

SUBROUTINE_06E7:
 65: 0x06E7 [0x02] IF !(ExtData[1]->WorkLocal[4] == 20*) GOTO 0x06FE
 66: 0x06EF [0x1D] PRINT_EVENT_MESSAGE(message_id=7676*)
    → "I knew you'd pussyfoot around in the end. Just tell me what you want when you finally get arrround to deciding."
 67: 0x06F2 [0x23] WAIT_FOR_DIALOG_INTERACTION
 68: 0x06F3 [0x05] ExtData[1]->WorkLocal[5] = 1
 69: 0x06F6 [0x0B] ExtData[1]->WorkLocal[4]++
 70: 0x06F9 [0x03] Work_Zone[1] = ExtData[1]->WorkLocal[4]
 71: 0x06FE [0x01] GOTO 0x05A9
 72: 0x0701 [0x21] END_EVENT
 73: 0x0702 [0x00] END_REQSTACK()
```

#### Data or dead code:

```
# Dead code (unreachable instructions):
     0x063B [0x01] GOTO 0x0649
# Dead code (unreachable instructions):
     0x068A [0x01] GOTO 0x0698
# Dead code (unreachable instructions):
     0x06D9 [0x01] GOTO 0x06E7
```

### Event 2

#### Metadata

| Field        | Value   |
|--------------|---------|
| Entrypoint   | 0x0703  |
| Data Size    | 1 bytes |
| Instructions | 1       |

```
      00 01 02 03 04 05 06 07  08 09 0A 0B 0C 0D 0E 0F
      -- -- -- -- -- -- -- --  -- -- -- -- -- -- -- --
0700:          00                                          .            
```

#### Opcodes

```
  0: 0x0703 [0x00] END_REQSTACK()
```

### Event 5

#### Metadata

| Field        | Value     |
|--------------|-----------|
| Entrypoint   | 0x0704    |
| Data Size    | 753 bytes |
| Instructions | 1         |

```
      00 01 02 03 04 05 06 07  08 09 0A 0B 0C 0D 0E 0F
      -- -- -- -- -- -- -- --  -- -- -- -- -- -- -- --
0700:             00 03 10 04  10 05 10 06 10 07 10 08      ............
0710: 10 09 10 00 17 01 17 02  17 03 17 04 17 05 17 06  ................
0720: 17 07 17 08 17 09 17 0A  17 0B 17 0C 17 0D 17 0E  ................
0730: 17 0C 80 0C 80 36 80 37  80 38 80 39 80 3A 80 3B  .....6.7.8.9.:.;
0740: 80 3C 80 3D 80 3E 80 3F  80 40 80 41 80 42 80 0C  .<.=.>.?.@.A.B..
0750: 80 0C 80 0C 80 0C 80 0C  80 0C 80 0C 80 0C 80 0C  ................
0760: 80 0C 80 0C 80 43 80 44  80 45 80 46 80 47 80 48  .....C.D.E.F.G.H
0770: 80 49 80 4A 80 4B 80 4C  80 4D 80 4E 80 0C 80 0C  .I.J.K.L.M.N....
0780: 80 0C 80 0C 80 0C 80 0C  80 0C 80 0C 80 0C 80 0C  ................
0790: 80 0C 80 0C 80 4F 80 50  80 51 80 52 80 53 80 54  .....O.P.Q.R.S.T
07A0: 80 55 80 56 80 57 80 58  80 59 80 5A 80 5B 80 5C  .U.V.W.X.Y.Z.[.\
07B0: 80 5D 80 5E 80 5F 80 60  80 0C 80 0C 80 0C 80 0C  .].^._.`........
07C0: 80 0C 80 0C 80 61 80 07  80 62 80 63 80 64 80 65  .....a...b.c.d.e
07D0: 80 66 80 67 80 68 80 69  80 6A 80 6B 80 6C 80 6D  .f.g.h.i.j.k.l.m
07E0: 80 6E 80 6F 80 70 80 71  80 72 80 73 80 74 80 75  .n.o.p.q.r.s.t.u
07F0: 80 76 80 77 80 78 80 79  80 7A 80 0C 80 0C 80 0C  .v.w.x.y.z......
0800: 80 0C 80 0C 80 7B 80 7C  80 7D 80 7E 80 7F 80 80  .....{.|.}.~....
0810: 80 81 80 82 80 83 80 84  80 85 80 86 80 87 80 88  ................
0820: 80 89 80 8A 80 26 80 8B  80 0C 80 0C 80 0C 80 0C  .....&..........
0830: 80 0C 80 0C 80 8C 80 8D  80 8E 80 8F 80 90 80 91  ................
0840: 80 92 80 0C 80 0C 80 0C  80 0C 80 0C 80 0C 80 0C  ................
0850: 80 0C 80 0C 80 93 80 94  80 95 80 96 80 97 80 98  ................
0860: 80 99 80 0C 80 0C 80 0C  80 0C 80 0C 80 0C 80 0C  ................
0870: 80 0C 80 0C 80 0C 80 10  80 9A 80 11 80 9B 80 03  ................
0880: 80 1C 80 1F 80 1D 80 0C  80 0C 80 0C 80 0C 80 0C  ................
0890: 80 0C 80 0C 80 0C 80 0C  80 0C 80 0C 80 0C 80 0C  ................
08A0: 80 0C 80 0C 80 9C 80 1B  80 9D 80 9E 80 9F 80 A0  ................
08B0: 80 A1 80 A2 80 0C 80 0C  80 0C 80 0C 80 0C 80 0C  ................
08C0: 80 0C 80 0C 80 0C 80 10  80 1E 80 9A 80 A3 80 9B  ................
08D0: 80 03 80 1D 80 A4 80 31  80 A5 80 0E 80 A6 80 A7  .......1........
08E0: 80 A8 80 A9 80 AA 80 25  80 AB 80 AC 80 AD 80 AE  .......%........
08F0: 80 AF 80 B0 80 0C 80 0C  80 0C 80 0C 80 0C 80 0C  ................
0900: 80 0C 80 0C 80 0C 80 10  80 1E 80 A3 80 11 80 9B  ................
0910: 80 03 80 2D 80 21 80 B1  80 7B 80 7C 80 7D 80 AC  ...-.!...{.|.}..
0920: 80 AD 80 AE 80 81 80 82  80 B2 80 B3 80 83 80 89  ................
0930: 80 25 80 92 80 61 80 0E  80 A9 80 A7 80 B4 80 B5  .%...a..........
0940: 80 B6 80 B7 80 63 80 65  80 66 80 67 80 B8 80 B9  .....c.e.f.g....
0950: 80 6C 80 BA 80 BB 80 6F  80 70 80 72 80 0C 80 0C  .l.....o.p.r....
0960: 80 0C 80 0C 80 20 80 BC  80 1C 80 1D 80 00 80 BD  ..... ..........
0970: 80 68 80 69 80 7E 80 7F  80 07 80 BE 80 A6 80 AA  .h.i.~..........
0980: 80 BF 80 C0 80 84 80 C1  80 6D 80 71 80 73 80 C2  .........m.q.s..
0990: 80 C3 80 0C 80 9A 80 C4  80 1F 80 2E 80 62 80 64  .............b.d
09A0: 80 6A 80 6B 80 C5 80 AB  80 A5 80 A8 80 AF 80 C6  .j.k............
09B0: 80 C7 80 80 80 85 80 86  80 6E 80 C8 80 C9 80 CA  .........n......
09C0: 80 0C 80 0C 80 CB 80 CC  80 CD 80 CE 80 CF 80 D0  ................
09D0: 80 D1 80 D2 80 D3 80 D4  80 D5 80 D6 80 D7 80 D8  ................
09E0: 80 D9 80 DA 80 DB 80 DC  80 DD 80 DE 80 DF 80 E0  ................
09F0: 80 0C 80 0C 80                                    .....           
```

#### Opcodes

```
  0: 0x0704 [0x00] END_REQSTACK()
```

#### Data or dead code:

```
# Dead code (unreachable instructions):
     0x0705 [0x03] 0x0410 = 0x0510
     0x070A [0x10] Work_Zone[6] <<= Work_Zone[7]
     0x070F [0x08] 0x0910 -= ExtData[1]->WorkLocal[16]
     0x0714 [0x17] Work_Zone_1700[1] = cos(Work_Zone_1700[2]) * Work_Zone_1700[3]
     0x071B [0x04] DEPRECATED_NOP(unused=0x0517)
     0x071E [0x17] Work_Zone_1700[6] = cos(Work_Zone_1700[7]) * Work_Zone_1700[8]
     0x0725 [0x09] 0x0A17 |= (1 << 0x0B17)
     0x072A [0x17] Work_Zone_1700[12] = cos(Work_Zone_1700[13]) * Work_Zone_1700[14]
     0x0731 [0x0C] 0x0C80--
     0x0734 [0x80] LOAD_WAIT(entity=Unknown NPC (ID: 2151120950/0x80378036))
     0x0739 [0x38] SET_CLIENT_EVENT_MODE(mode=0x3980)
     0x073C [0x80] LOAD_WAIT(entity=Unknown NPC (ID: 2151383098/0x803B803A))
     0x0741 [0x3C] SET_BIT_FLAG_CONDITIONAL(target_work_offset=0x3D80, bit_index_work_offset=0x3E80, condition_work_offset=0x3F80)
     0x0748 [0x80] LOAD_WAIT(entity=Unknown NPC (ID: 2151776320/0x80418040))
     0x074D [0x42] SET_CLI_EVENT_CANCEL_DATA()
     0x074E [0x80] LOAD_WAIT(entity=Unknown NPC (ID: 2148302860/0x800C800C))
     0x0753 [0x0C] 0x0C80--
     0x0756 [0x80] LOAD_WAIT(entity=Unknown NPC (ID: 2148302860/0x800C800C))
     0x075B [0x0C] 0x0C80--
     0x075E [0x80] LOAD_WAIT(entity=Unknown NPC (ID: 2148302860/0x800C800C))
     0x0763 [0x0C] 0x4380--
     0x0766 [0x80] LOAD_WAIT(entity=Unknown NPC (ID: 2152038468/0x80458044))
     0x076B [0x46] CAMERA_CONTROL: Unknown mode 0x80
     0x076D [0x47] WAIT_PLAYER_POS_UPDATE
     0x076F [0x48] [System] [0x4980]:
     0x0772 [0x80] LOAD_WAIT(entity=Unknown NPC (ID: 2152431690/0x804B804A))
     0x0777 [0x4C] EventEntity->StatusEvent = 8 // Open door
     0x0778 [0x80] LOAD_WAIT(entity=Unknown NPC (ID: 2152628301/0x804E804D))
     0x077D [0x0C] 0x0C80--
     0x0780 [0x80] LOAD_WAIT(entity=Unknown NPC (ID: 2148302860/0x800C800C))
     0x0785 [0x0C] 0x0C80--
     0x0788 [0x80] LOAD_WAIT(entity=Unknown NPC (ID: 2148302860/0x800C800C))
     0x078D [0x0C] 0x0C80--
     0x0790 [0x80] LOAD_WAIT(entity=Unknown NPC (ID: 2148302860/0x800C800C))
     0x0795 [0x4F] EventEntity->StatusEvent = 0x5080 // Custom event value
     0x0798 [0x80] LOAD_WAIT(entity=Unknown NPC (ID: 2152890449/0x80528051))
     0x079D [0x53] WAIT_SCHEDULER_TASK: Wait for scheduler 0x59805880 with entities [Unknown NPC (ID: 1434473600/0x55805480), Unknown NPC (ID: 1468028544/0x57805680)]
     0x07AA [0x80] LOAD_WAIT(entity=Unknown NPC (ID: 2153480282/0x805B805A))
     0x07AF [0x5C] MUSIC_CONTROL: Set Idle (Day) music to song 21233*, volume=21186*
     0x07B5 [0x5F] MULTI_HANDLER_COMPLEX(mode=0x80 - Unknown)
     0x07B7 [0x60] ADJUST_RENDER_FLAGS1_MULTI: Deprecated mode 0x80 (no operation)
     0x07B9 [0x0C] 0x0C80--
     0x07BC [0x80] LOAD_WAIT(entity=Unknown NPC (ID: 2148302860/0x800C800C))
     0x07C1 [0x0C] 0x0C80--
     0x07C4 [0x80] LOAD_WAIT(entity=Unknown NPC (ID: 2147975265/0x80078061))
     0x07C9 [0x62] LOAD_EVENT_SCHEDULER: Load scheduler 0x69806880 with entities [Unknown NPC (ID: 1702913152/0x65806480), Unknown NPC (ID: 1736468096/0x67806680)], work=[0x6380, 0x6A80]
     0x07DA [0x80] LOAD_WAIT(entity=Unknown NPC (ID: 2154594411/0x806C806B))
     0x07DF [0x6D] DEPRECATED_OPCODE(unused1=0x6E80, unused2=0x6F80, unused3=0x7080)
     0x07E6 [0x80] LOAD_WAIT(entity=Unknown NPC (ID: 2154987633/0x80728071))
     0x07EB [0x73] Unknown NPC (ID: 1988130176/0x76807580) casts magic 0x7480 on Unknown NPC (ID: 2021685120/0x78807780)
     0x07F6 [0x80] LOAD_WAIT(entity=Unknown NPC (ID: 2155511929/0x807A8079))
     0x07FB [0x0C] 0x0C80--
     0x07FE [0x80] LOAD_WAIT(entity=Unknown NPC (ID: 2148302860/0x800C800C))
     0x0803 [0x0C] 0x7B80--
     0x0806 [0x80] LOAD_WAIT(entity=Unknown NPC (ID: 2155708540/0x807D807C))
     0x080B [0x7E] CHOCOBO_MOUNT: Unknown mode 128
     0x0811 [0x81] SET_ENTITY_BLINKING(blink_flag=0x80, entity=Unknown NPC (ID: 2156101762/0x80838082))
     0x0817 [0x84] ADJUST_RENDER_FLAGS3_BIT0()
     0x0818 [0x80] LOAD_WAIT(entity=Unknown NPC (ID: 2156298373/0x80868085))
     0x081D [0x87] WORLD_PASS_HANDLER_A: Send world pass packet 0x1B (Para=0)
     0x081E [0x80] LOAD_WAIT(entity=Unknown NPC (ID: 2156494984/0x80898088))
     0x0823 [0x8A] CLOSE_MAP()
     0x0824 [0x80] LOAD_WAIT(entity=Unknown NPC (ID: 2156625958/0x808B8026))
     0x0829 [0x0C] 0x0C80--
     0x082C [0x80] LOAD_WAIT(entity=Unknown NPC (ID: 2148302860/0x800C800C))
     0x0831 [0x0C] 0x0C80--
     0x0834 [0x80] LOAD_WAIT(entity=Unknown NPC (ID: 2156757132/0x808D808C))
     0x0839 [0x8E] EventEntity->StatusEvent = 45
     0x083A [0x80] LOAD_WAIT(entity=Unknown NPC (ID: 2156953743/0x8090808F))
     0x083F [0x91] ExtData[1]->MainSpeedBase = 0x9280 * 10.0
     0x0842 [0x80] LOAD_WAIT(entity=Unknown NPC (ID: 2148302860/0x800C800C))
     0x0847 [0x0C] 0x0C80--
     0x084A [0x80] LOAD_WAIT(entity=Unknown NPC (ID: 2148302860/0x800C800C))
     0x084F [0x0C] 0x0C80--
     0x0852 [0x80] LOAD_WAIT(entity=Unknown NPC (ID: 2157150220/0x8093800C))
     0x0857 [0x94] Unknown NPC (ID: 2157346965/0x80968095)->Render.Flags3 ^= 0x80
     0x085D [0x97] SAVE_SET_WIND_VALUES(wind_base=0x9880, wind_width=0x9980)
     0x0862 [0x80] LOAD_WAIT(entity=Unknown NPC (ID: 2148302860/0x800C800C))
     0x0867 [0x0C] 0x0C80--
     0x086A [0x80] LOAD_WAIT(entity=Unknown NPC (ID: 2148302860/0x800C800C))
     0x086F [0x0C] 0x0C80--
     0x0872 [0x80] LOAD_WAIT(entity=Unknown NPC (ID: 2148302860/0x800C800C))
     0x0877 [0x10] 0x9A80 <<= 0x1180
     0x087C [0x80] LOAD_WAIT(entity=Unknown NPC (ID: 2147713179/0x8003809B))
     0x0881 [0x1C] WAIT(0x1F80 ticks)
     0x0884 [0x80] LOAD_WAIT(entity=Unknown NPC (ID: 2148302877/0x800C801D))
     0x0889 [0x0C] 0x0C80--
     0x088C [0x80] LOAD_WAIT(entity=Unknown NPC (ID: 2148302860/0x800C800C))
     0x0891 [0x0C] 0x0C80--
     0x0894 [0x80] LOAD_WAIT(entity=Unknown NPC (ID: 2148302860/0x800C800C))
     0x0899 [0x0C] 0x0C80--
     0x089C [0x80] LOAD_WAIT(entity=Unknown NPC (ID: 2148302860/0x800C800C))
     0x08A1 [0x0C] 0x0C80--
     0x08A4 [0x80] LOAD_WAIT(entity=Unknown NPC (ID: 2149286044/0x801B809C))
     0x08A9 [0x9D] OPCODE_9D[0x80]: Unknown
     0x08AB [0x9E] SET_RECT_EVENT_SEND_FLAG: Notify client of area movement
     0x08AD [0x9F] LOAD_SCHEDULED_TASK_ALT: Load scheduler 0x0C800C80 with entities [Unknown NPC (ID: 2726338944/0xA280A180), Unknown NPC (ID: 209718400/0x0C800C80)], work=[0xA080, 0x0C80]
     0x08BE [0x80] LOAD_WAIT(entity=Unknown NPC (ID: 2148302860/0x800C800C))
     0x08C3 [0x0C] 0x0C80--
     0x08C6 [0x80] LOAD_WAIT(entity=Unknown NPC (ID: 2149482512/0x801E8010))
     0x08CB [0x9A] WAIT_MUSIC_SERVER()
     0x08CC [0x80] LOAD_WAIT(entity=Unknown NPC (ID: 2157674659/0x809B80A3))
     0x08D1 [0x03] 0x1D80 = 0xA480
     0x08D6 [0x80] LOAD_WAIT(entity=Unknown NPC (ID: 2158329905/0x80A58031))
     0x08DB [0x0E] 0xA680 |= 0xA780
     0x08E0 [0x80] LOAD_WAIT(entity=Unknown NPC (ID: 2158592168/0x80A980A8))
     0x08E5 [0xAA] VANA_DIEL_TIMESTAMP_CONVERTER(timestamp=0x2580, year=0xAB80, month=0xAC80, day=0xAD80, weekday=0xAE80, hour=0xAF80, minute=0xB080, moon=0x0C80)
     0x08F6 [0x80] LOAD_WAIT(entity=Unknown NPC (ID: 2148302860/0x800C800C))
     0x08FB [0x0C] 0x0C80--
     0x08FE [0x80] LOAD_WAIT(entity=Unknown NPC (ID: 2148302860/0x800C800C))
     0x0903 [0x0C] 0x0C80--
     0x0906 [0x80] LOAD_WAIT(entity=Unknown NPC (ID: 2149482512/0x801E8010))
     0x090B [0xA3] END_LOAD_SCHEDULER_MAIN_ALT: End scheduler 0x7B80B180 with entities [Unknown NPC (ID: 58760064/0x03809B80), Unknown NPC (ID: 562048384/0x21802D80)], work=0x1180
     0x091A [0x80] LOAD_WAIT(entity=Unknown NPC (ID: 2155708540/0x807D807C))
     0x091F [0xAC] ENTITY_STATUS_HANDLER: Invalid case 0x80 (bad parse?)
     0x0923 [0xAE] MULTI_PURPOSE_ENTITY_HANDLER(case_type=0x80)
     0x0925 [0x81] SET_ENTITY_BLINKING(blink_flag=0x80, entity=Unknown NPC (ID: 2159181954/0x80B28082))
     0x092B [0xB3] RANKINGS_BOARD_HANDLER(case_type=0x80)
     0x092D [0x83] References[2432] = GetGameTime()
     0x0930 [0x80] LOAD_WAIT(entity=Unknown NPC (ID: 2157084709/0x80928025))
     0x0935 [0x61] EventEntity->Render.Flags2 &= ~0x00000001
     0x0937 [0x0E] 0xA980 |= 0xA780
     0x093C [0x80] LOAD_WAIT(entity=Unknown NPC (ID: 2159378612/0x80B580B4))
     0x0941 [0xB6] ENTITY_APPEARANCE_HANDLER(case=Unknown 0x80)
     0x0943 [0xB7] ENTITY_DATA_HANDLER: Unknown case 0x80 for Unknown NPC (ID: 2154135651/0x80658063)
     0x094B [0x67] HIDE_HUD_ELEMENTS(param1=0xB880, param2=0xB980)
     0x0950 [0x80] LOAD_WAIT(entity=Unknown NPC (ID: 2159706220/0x80BA806C))
     0x0955 [0xBB] LOAD_EVENT_SCHEDULER_ALT: Load scheduler 0x0C800C80 with entities [Unknown NPC (ID: 1921020032/0x72807080), Unknown NPC (ID: 209718400/0x0C800C80)], work=[0x6F80, 0x2080]
     0x0966 [0x80] LOAD_WAIT(entity=Unknown NPC (ID: 2149351612/0x801C80BC))
     0x096B [0x1D] PRINT_EVENT_MESSAGE(message_id=0x80)
     0x096E [0x80] LOAD_WAIT(entity=Unknown NPC (ID: 2154332349/0x806880BD))
     0x0973 [0x69] SET_SOUND_VOLUME: Mute System/Zone/Master/SpecialChat
     0x0977 [0x7F] WAIT_DIALOG_SELECT_ALT()
     0x0978 [0x80] LOAD_WAIT(entity=Unknown NPC (ID: 2159968263/0x80BE8007))
     0x097D [0xA6] REQUEST_EVENT_MAP_NUMBER: Request map info from server (mode 128) (0x00EB packet)
     0x097F [0xAA] VANA_DIEL_TIMESTAMP_CONVERTER(timestamp=0xBF80, year=0xC080, month=References[1152], day=0xC180, weekday=0x6D80, hour=0x7180, minute=0x7380, moon=0xC280)
     0x0990 [0x80] LOAD_WAIT(entity=Unknown NPC (ID: 2148303043/0x800C80C3))
     0x0995 [0x9A] WAIT_MUSIC_SERVER()
     0x0996 [0x80] LOAD_WAIT(entity=Unknown NPC (ID: 2149548228/0x801F80C4))
     0x099B [0x2E] SET_CLI_EVENT_CANCEL_FLAGS()
     0x099C [0x80] LOAD_WAIT(entity=Unknown NPC (ID: 2154070114/0x80648062))
     0x09A1 [0x6A] CHANGE_SOUND_VOLUME: Set 0xAB80 volume to 0x6B80, fade_time=0xC580
     0x09A8 [0x80] LOAD_WAIT(entity=Unknown NPC (ID: 2158526629/0x80A880A5))
     0x09AD [0xAF] GET_CAMERA_POSITION(mode=0x80, x=0x80C6, z=0x80C7, y=0x8080)
     0x09B5 [0x85] OPEN_MOOGLE_MENU()
     0x09B6 [0x80] LOAD_WAIT(entity=Unknown NPC (ID: 2154725510/0x806E8086))
     0x09BB [0xC8] OPEN_MAP_WINDOW(zone=0xC980, submap=0xCA80, flag=0x0C80)
     0x09C2 [0x80] LOAD_WAIT(entity=Unknown NPC (ID: 2160820236/0x80CB800C))
     0x09C7 [0xCC] ITEM_INFO_WINDOW_HANDLER(case=0x80 - Unknown case 0x80)
     0x09CB [0xCE] WAIT_LOAD_SCHEDULER_ALT4: Wait for scheduler 0xD580D480 with entities [Unknown NPC (ID: 3514880128/0xD180D080), Unknown NPC (ID: 3548435072/0xD380D280)], work=0xCF80
     0x09DA [0x80] LOAD_WAIT(entity=Unknown NPC (ID: 2161606870/0x80D780D6))
     0x09DF [0xD8] SET_ENTITY_EVENT_DIR: Unknown mode 0x80 for Unknown NPC (ID: 2161803481/0x80DA80D9)
     0x09E5 [0xDB] UNKNOWN_0xDB
     0x09E6 [0x80] LOAD_WAIT(entity=Unknown NPC (ID: 2162000092/0x80DD80DC))
     0x09EB [0xDE] UNKNOWN_0xDE
     0x09EC [0x80] LOAD_WAIT(entity=Unknown NPC (ID: 2162196703/0x80E080DF))
     0x09F1 [0x0C] 0x0C80--
```

### Event 37

#### Metadata

| Field        | Value   |
|--------------|---------|
| Entrypoint   | 0x09F5  |
| Data Size    | 1 bytes |
| Instructions | 1       |

```
      00 01 02 03 04 05 06 07  08 09 0A 0B 0C 0D 0E 0F
      -- -- -- -- -- -- -- --  -- -- -- -- -- -- -- --
09F0:                00                                      .          
```

#### Opcodes

```
  0: 0x09F5 [0x00] END_REQSTACK()
```

### Event 65535.1

#### Metadata

| Field        | Value   |
|--------------|---------|
| Entrypoint   | 0x09F6  |
| Data Size    | 9 bytes |
| Instructions | 3       |

```
      00 01 02 03 04 05 06 07  08 09 0A 0B 0C 0D 0E 0F
      -- -- -- -- -- -- -- --  -- -- -- -- -- -- -- --
09F0:                   1C 00  17 1E 22 C0 11 01 00           ....".... 
```

#### Opcodes

```
  0: 0x09F6 [0x1C] WAIT(Work_Zone_1700[0] ticks)
  1: 0x09F9 [0x1E] EventEntity looks at Oshasha (ID: 17940514/0x0111C022) and starts talking
  2: 0x09FE [0x00] END_REQSTACK()
```

### Event 65535.2

#### Metadata

| Field        | Value    |
|--------------|----------|
| Entrypoint   | 0x09FF   |
| Data Size    | 18 bytes |
| Instructions | 4        |

```
      00 01 02 03 04 05 06 07  08 09 0A 0B 0C 0D 0E 0F
      -- -- -- -- -- -- -- --  -- -- -- -- -- -- -- --
09F0:                                               1E                 .
0A00: 22 C0 11 01 6E F8 FF FF  7F 7E 80 99 F8 FF FF 7F  "...n....~......
0A10: 00                                                .               
```

#### Opcodes

```
  0: 0x09FF [0x1E] EventEntity looks at Oshasha (ID: 17940514/0x0111C022) and starts talking
  1: 0x0A04 [0x6E] EventEntity uses emote 29*
  2: 0x0A0B [0x99] Wait for EventEntity animation to complete
  3: 0x0A10 [0x00] END_REQSTACK()
```
