# 17940492

## Common Data

| Field            | Value                               |
|------------------|-------------------------------------|
| Zone             | Celennia Memorial Library (ID: 284) |
| Block Size       | 5396 bytes                          |
| Total Events     | 4                                   |
| References Count | 110                                 |

## List of Events

| Event ID              | Entrypoint   |   Size |   Instructions |
|-----------------------|--------------|--------|----------------|
| [65535](#event-65535) | 0x0000       |      1 |              1 |
| [10](#event-10)       | 0x0001       |   1663 |            191 |
| [11](#event-11)       | 0x0680       |   1377 |            155 |
| [38](#event-38)       | 0x0BE1       |   1883 |            205 |

## DAT References (imed_data)

|   Index | Hex Value   |   Dec Value |
|---------|-------------|-------------|
|       0 | 0x00C8      |         200 |
|       1 | 0x0000      |           0 |
|       2 | 0x001B      |          27 |
|       3 | 0xFFFE5E0C  |  4294860300 |
|       4 | 0xFFFE7FD7  |  4294868951 |
|       5 | 0xFFFFF79B  |  4294965147 |
|       6 | 0x0FB6      |        4022 |
|       7 | 0xFFFE661E  |  4294862366 |
|       8 | 0xFFFE7C39  |  4294868025 |
|       9 | 0x09DF      |        2527 |
|      10 | 0xFFFE8F86  |  4294872966 |
|      11 | 0xFFFEB62A  |  4294882858 |
|      12 | 0xFFFFF5A7  |  4294964647 |
|      13 | 0x05F5      |        1525 |
|      14 | 0x001E      |          30 |
|      15 | 0x0013      |          19 |
|      16 | 0x0CBD      |        3261 |
|      17 | 0x026D      |         621 |
|      18 | 0x000F      |          15 |
|      19 | 0x0096      |         150 |
|      20 | 0x1C6B      |        7275 |
|      21 | 0x0006      |           6 |
|      22 | 0x1C6C      |        7276 |
|      23 | 0x0927      |        2343 |
|      24 | 0x1C6D      |        7277 |
|      25 | 0x1C6E      |        7278 |
|      26 | 0x1C6F      |        7279 |
|      27 | 0x1C70      |        7280 |
|      28 | 0xFFFE6D34  |  4294864180 |
|      29 | 0xFFFE951F  |  4294874399 |
|      30 | 0x05CF      |        1487 |
|      31 | 0x005A      |          90 |
|      32 | 0x003C      |          60 |
|      33 | 0x1C71      |        7281 |
|      34 | 0x1C72      |        7282 |
|      35 | 0x0050      |          80 |
|      36 | 0x0028      |          40 |
|      37 | 0x1C73      |        7283 |
|      38 | 0x1C74      |        7284 |
|      39 | 0x00B4      |         180 |
|      40 | 0x1C76      |        7286 |
|      41 | 0x0007      |           7 |
|      42 | 0x1C77      |        7287 |
|      43 | 0x1C75      |        7285 |
|      44 | 0x1C78      |        7288 |
|      45 | 0x1C79      |        7289 |
|      46 | 0x1C7A      |        7290 |
|      47 | 0x0001      |           1 |
|      48 | 0x1C7B      |        7291 |
|      49 | 0x1C7C      |        7292 |
|      50 | 0x1C7D      |        7293 |
|      51 | 0x1C7E      |        7294 |
|      52 | 0x1C7F      |        7295 |
|      53 | 0x0078      |         120 |
|      54 | 0xFFFE410A  |  4294852874 |
|      55 | 0xFFFE9A5A  |  4294875738 |
|      56 | 0x0CE1      |        3297 |
|      57 | 0xFFFE4622  |  4294854178 |
|      58 | 0xFFFEA36B  |  4294878059 |
|      59 | 0x057B      |        1403 |
|      60 | 0xFFFE5FF8  |  4294860792 |
|      61 | 0xFFFE8D20  |  4294872352 |
|      62 | 0x0950      |        2384 |
|      63 | 0x02F7      |         759 |
|      64 | 0x1C86      |        7302 |
|      65 | 0x1C87      |        7303 |
|      66 | 0x1C88      |        7304 |
|      67 | 0x1C89      |        7305 |
|      68 | 0x001D      |          29 |
|      69 | 0x1C8A      |        7306 |
|      70 | 0x1C8B      |        7307 |
|      71 | 0x1C8C      |        7308 |
|      72 | 0x1C8D      |        7309 |
|      73 | 0x1C8E      |        7310 |
|      74 | 0x1C8F      |        7311 |
|      75 | 0x1C90      |        7312 |
|      76 | 0x1C91      |        7313 |
|      77 | 0x1C92      |        7314 |
|      78 | 0x1C93      |        7315 |
|      79 | 0x1C94      |        7316 |
|      80 | 0xFFFE764A  |  4294866506 |
|      81 | 0xFFFEBC60  |  4294884448 |
|      82 | 0xFFFFE02A  |  4294959146 |
|      83 | 0x08CF      |        2255 |
|      84 | 0xFFFE5E32  |  4294860338 |
|      85 | 0xFFFEBFC3  |  4294885315 |
|      86 | 0x06C1      |        1729 |
|      87 | 0xFFFE5312  |  4294857490 |
|      88 | 0xFFFEBD12  |  4294884626 |
|      89 | 0x0F5D      |        3933 |
|      90 | 0x1C95      |        7317 |
|      91 | 0x1C96      |        7318 |
|      92 | 0x1C97      |        7319 |
|      93 | 0x1C98      |        7320 |
|      94 | 0x1C99      |        7321 |
|      95 | 0x1C9A      |        7322 |
|      96 | 0x1C9B      |        7323 |
|      97 | 0x1C9C      |        7324 |
|      98 | 0x1C9D      |        7325 |
|      99 | 0x1C9E      |        7326 |
|     100 | 0x1C9F      |        7327 |
|     101 | 0x1CA0      |        7328 |
|     102 | 0x1CA1      |        7329 |
|     103 | 0xFFFE6D5C  |  4294864220 |
|     104 | 0xFFFE9426  |  4294874150 |
|     105 | 0x0E37      |        3639 |
|     106 | 0xFFFE663B  |  4294862395 |
|     107 | 0xFFFE8D18  |  4294872344 |
|     108 | 0x0DD3      |        3539 |
|     109 | 0x1CA2      |        7330 |

## String References

- **7289**: "$3"...? [Never heard of it./I'm not terribly familiar...]

## Events

### Event 65535

#### Metadata

| Field        | Value   |
|--------------|---------|
| Entrypoint   | 0x0000  |
| Data Size    | 1 bytes |
| Instructions | 1       |

```
      00 01 02 03 04 05 06 07  08 09 0A 0B 0C 0D 0E 0F
      -- -- -- -- -- -- -- --  -- -- -- -- -- -- -- --
0000: 00                                                .               
```

#### Opcodes

```
  0: 0x0000 [0x00] END_REQSTACK()
```

### Event 10

#### Metadata

| Field        | Value      |
|--------------|------------|
| Entrypoint   | 0x0001     |
| Data Size    | 1663 bytes |
| Instructions | 191        |

```
      00 01 02 03 04 05 06 07  08 09 0A 0B 0C 0D 0E 0F
      -- -- -- -- -- -- -- --  -- -- -- -- -- -- -- --
0000:    42 45 00 80 F0 FF FF  7F F0 FF FF 7F 66 64 6F   BE..........fdo
0010: 31 01 80 55 00 80 F0 FF  FF 7F F0 FF FF 7F 66 64  1..U..........fd
0020: 6F 31 46 01 38 02 80 2F  00 0E C0 11 01 2F 00 0D  o1F.8../...../..
0030: C0 11 01 4E 00 0E C0 11  01 4E 00 0D C0 11 01 4E  ...N.....N.....N
0040: 00 F0 FF FF 7F 94 01 0E  C0 11 01 94 01 0D C0 11  ................
0050: 01 94 01 F0 FF FF 7F BA  0E C0 11 01 03 80 04 80  ................
0060: 05 80 06 80 BA 0D C0 11  01 07 80 08 80 05 80 09  ................
0070: 80 BA F0 FF FF 7F 0A 80  0B 80 0C 80 0D 80 80 F0  ................
0080: FF FF 7F 80 0E C0 11 01  80 0D C0 11 01 80 0F C0  ................
0090: 11 01 4A 0D C0 11 01 0E  C0 11 01 4A 0E C0 11 01  ..J........J....
00A0: 0D C0 11 01 1C 0E 80 66  0F 80 0D C0 11 01 0D C0  .......f........
00B0: 11 01 74 68 6B 31 5B 10  80 0E C0 11 01 0E C0 11  ..thk1[.........
00C0: 01 74 68 6B 30 27 05 F0  FF FF 7F 0F 45 11 80 F8  .thk0'......E...
00D0: FF FF 7F F8 FF FF 7F 73  31 31 30 01 80 1C 12 80  .......s110.....
00E0: 45 00 80 F0 FF FF 7F F0  FF FF 7F 66 64 69 31 01  E..........fdi1.
00F0: 80 1C 13 80 52 11 80 F8  FF FF 7F F8 FF FF 7F 73  ....R..........s
0100: 31 31 30 45 11 80 F8 FF  FF 7F F8 FF FF 7F 73 31  110E..........s1
0110: 31 31 01 80 1C 13 80 52  11 80 F8 FF FF 7F F8 FF  11.....R........
0120: FF 7F 73 31 31 31 45 11  80 F8 FF FF 7F F8 FF FF  ..s111E.........
0130: 7F 73 31 31 32 01 80 66  0F 80 0D C0 11 01 0D C0  .s112..f........
0140: 11 01 74 68 6B 32 2B 0D  C0 11 01 14 80 23 6E 0D  ..thk2+......#n.
0150: C0 11 01 15 80 99 0D C0  11 01 2B 0D C0 11 01 16  ..........+.....
0160: 80 23 52 11 80 F8 FF FF  7F F8 FF FF 7F 73 31 31  .#R..........s11
0170: 32 45 11 80 F8 FF FF 7F  F8 FF FF 7F 73 31 31 33  2E..........s113
0180: 01 80 03 02 10 17 80 2B  0E C0 11 01 18 80 23 66  .......+......#f
0190: 0F 80 0D C0 11 01 0D C0  11 01 74 6C 6B 30 2B 0D  ..........tlk0+.
01A0: C0 11 01 19 80 23 52 11  80 F8 FF FF 7F F8 FF FF  .....#R.........
01B0: 7F 73 31 31 33 45 11 80  F8 FF FF 7F F8 FF FF 7F  .s113E..........
01C0: 73 31 31 34 01 80 2B 0D  C0 11 01 1A 80 23 66 0F  s114..+......#f.
01D0: 80 0D C0 11 01 0D C0 11  01 74 6C 6B 31 52 11 80  .........tlk1R..
01E0: F8 FF FF 7F F8 FF FF 7F  73 31 31 34 45 11 80 F8  ........s114E...
01F0: FF FF 7F F8 FF FF 7F 73  31 31 35 01 80 5B 10 80  .......s115..[..
0200: 0E C0 11 01 0E C0 11 01  74 68 6B 31 2B 0E C0 11  ........thk1+...
0210: 01 1B 80 23 BA F0 FF FF  7F 1C 80 1D 80 05 80 1E  ...#............
0220: 80 80 F0 FF FF 7F 27 05  F0 FF FF 7F 10 1C 1F 80  ......'.........
0230: 52 11 80 F8 FF FF 7F F8  FF FF 7F 73 31 31 35 45  R..........s115E
0240: 11 80 F8 FF FF 7F F8 FF  FF 7F 73 31 31 36 01 80  ..........s116..
0250: 1C 20 80 4A 0E C0 11 01  F0 FF FF 7F 1C 0E 80 79  . .J...........y
0260: 00 0D C0 11 01 F0 FF FF  7F 02 03 10 01 80 00 7C  ...............|
0270: 02 2B 0E C0 11 01 21 80  23 01 84 02 2B 0E C0 11  .+....!.#...+...
0280: 01 22 80 23 2A 05 F0 FF  FF 7F 27 05 F0 FF FF 7F  .".#*.....'.....
0290: 07 1C 23 80 27 05 F0 FF  FF 7F 08 1C 24 80 52 11  ..#.'.......$.R.
02A0: 80 F8 FF FF 7F F8 FF FF  7F 73 31 31 36 45 11 80  .........s116E..
02B0: F8 FF FF 7F F8 FF FF 7F  73 31 31 37 01 80 5B 10  ........s117..[.
02C0: 80 0E C0 11 01 0E C0 11  01 79 65 73 30 1C 12 80  .........yes0...
02D0: 4A 0D C0 11 01 F0 FF FF  7F 2B 0E C0 11 01 25 80  J........+....%.
02E0: 23 53 0E C0 11 01 0E C0  11 01 79 65 73 30 52 11  #S........yes0R.
02F0: 80 F8 FF FF 7F F8 FF FF  7F 73 31 31 37 45 11 80  .........s117E..
0300: F8 FF FF 7F F8 FF FF 7F  73 31 31 38 01 80 5B 10  ........s118..[.
0310: 80 0E C0 11 01 0E C0 11  01 74 6C 6B 30 02 03 10  .........tlk0...
0320: 01 80 00 28 04 2B 0E C0  11 01 26 80 23 5B 10 80  ...(.+....&.#[..
0330: 0E C0 11 01 0E C0 11 01  74 6C 6B 31 7B 0E C0 11  ........tlk1{...
0340: 01 1C 1F 80 52 11 80 F8  FF FF 7F F8 FF FF 7F 73  ....R..........s
0350: 31 31 38 45 11 80 F8 FF  FF 7F F8 FF FF 7F 73 31  118E..........s1
0360: 31 39 01 80 27 05 0E C0  11 01 02 1C 27 80 4E 01  19..'.......'.N.
0370: 0D C0 11 01 4A F0 FF FF  7F 0E C0 11 01 52 11 80  ....J........R..
0380: F8 FF FF 7F F8 FF FF 7F  73 31 31 39 45 11 80 F8  ........s119E...
0390: FF FF 7F F8 FF FF 7F 73  31 32 30 01 80 2A 05 0E  .......s120..*..
03A0: C0 11 01 1C 1F 80 52 11  80 F8 FF FF 7F F8 FF FF  ......R.........
03B0: 7F 73 31 32 30 45 11 80  F8 FF FF 7F F8 FF FF 7F  .s120E..........
03C0: 73 31 32 31 01 80 4A 0E  C0 11 01 F0 FF FF 7F 1C  s121..J.........
03D0: 0E 80 2B 0E C0 11 01 28  80 23 6E F0 FF FF 7F 29  ..+....(.#n....)
03E0: 80 99 F0 FF FF 7F 1C 1F  80 52 11 80 F8 FF FF 7F  .........R......
03F0: F8 FF FF 7F 73 31 32 31  45 11 80 F8 FF FF 7F F8  ....s121E.......
0400: FF FF 7F 73 31 32 32 01  80 03 02 10 17 80 2B 0E  ...s122.......+.
0410: C0 11 01 2A 80 23 52 11  80 F8 FF FF 7F F8 FF FF  ...*.#R.........
0420: 7F 73 31 32 32 01 F1 04  2B 0E C0 11 01 2B 80 23  .s122...+....+.#
0430: 5B 10 80 0E C0 11 01 0E  C0 11 01 74 6C 6B 31 7B  [..........tlk1{
0440: 0E C0 11 01 1C 20 80 52  11 80 F8 FF FF 7F F8 FF  ..... .R........
0450: FF 7F 73 31 31 38 45 11  80 F8 FF FF 7F F8 FF FF  ..s118E.........
0460: 7F 73 31 31 39 01 80 27  05 0E C0 11 01 02 1C 27  .s119..'.......'
0470: 80 4E 01 0D C0 11 01 4A  F0 FF FF 7F 0E C0 11 01  .N.....J........
0480: 52 11 80 F8 FF FF 7F F8  FF FF 7F 73 31 31 39 45  R..........s119E
0490: 11 80 F8 FF FF 7F F8 FF  FF 7F 73 31 32 30 01 80  ..........s120..
04A0: 2A 05 0E C0 11 01 1C 1F  80 52 11 80 F8 FF FF 7F  *........R......
04B0: F8 FF FF 7F 73 31 32 30  45 11 80 F8 FF FF 7F F8  ....s120E.......
04C0: FF FF 7F 73 31 32 31 01  80 4A 0E C0 11 01 F0 FF  ...s121..J......
04D0: FF 7F 1C 0E 80 03 02 10  17 80 2B 0E C0 11 01 2C  ..........+....,
04E0: 80 23 52 11 80 F8 FF FF  7F F8 FF FF 7F 73 31 32  .#R..........s12
04F0: 31 45 11 80 F8 FF FF 7F  F8 FF FF 7F 73 31 32 33  1E..........s123
0500: 01 80 24 2D 80 01 80 01  80 25 02 00 10 01 80 00  ..$-.....%......
0510: 3D 05 52 11 80 F8 FF FF  7F F8 FF FF 7F 73 31 32  =.R..........s12
0520: 33 45 11 80 F8 FF FF 7F  F8 FF FF 7F 73 31 32 34  3E..........s124
0530: 01 80 2B 0E C0 11 01 2E  80 23 01 70 05 02 00 10  ..+......#.p....
0540: 2F 80 00 70 05 52 11 80  F8 FF FF 7F F8 FF FF 7F  /..p.R..........
0550: 73 31 32 33 45 11 80 F8  FF FF 7F F8 FF FF 7F 73  s123E..........s
0560: 31 32 34 01 80 2B 0E C0  11 01 2E 80 23 01 70 05  124..+......#.p.
0570: 5B 10 80 0E C0 11 01 0E  C0 11 01 6E 6F 6E 30 2B  [..........non0+
0580: 0E C0 11 01 30 80 23 53  0E C0 11 01 0E C0 11 01  ....0.#S........
0590: 6E 6F 6E 30 52 11 80 F8  FF FF 7F F8 FF FF 7F 73  non0R..........s
05A0: 31 32 34 45 11 80 F8 FF  FF 7F F8 FF FF 7F 73 31  124E..........s1
05B0: 32 35 01 80 5B 10 80 0E  C0 11 01 0E C0 11 01 74  25..[..........t
05C0: 6C 6B 30 2B 0E C0 11 01  31 80 23 2B 0E C0 11 01  lk0+....1.#+....
05D0: 32 80 23 52 11 80 F8 FF  FF 7F F8 FF FF 7F 73 31  2.#R..........s1
05E0: 32 35 45 11 80 F8 FF FF  7F F8 FF FF 7F 73 31 32  25E..........s12
05F0: 36 01 80 2B 0E C0 11 01  33 80 23 5B 10 80 0E C0  6..+....3.#[....
0600: 11 01 0E C0 11 01 74 6C  6B 31 2B 0E C0 11 01 34  ......tlk1+....4
0610: 80 23 52 11 80 F8 FF FF  7F F8 FF FF 7F 73 31 32  .#R..........s12
0620: 36 45 11 80 F8 FF FF 7F  F8 FF FF 7F 73 31 32 37  6E..........s127
0630: 01 80 27 05 0E C0 11 01  03 1C 35 80 45 00 80 F0  ..'.......5.E...
0640: FF FF 7F F0 FF FF 7F 66  64 6F 31 01 80 55 00 80  .......fdo1..U..
0650: F0 FF FF 7F F0 FF FF 7F  66 64 6F 31 52 11 80 F8  ........fdo1R...
0660: FF FF 7F F8 FF FF 7F 73  31 32 37 46 00 45 00 80  .......s127F.E..
0670: F0 FF FF 7F F0 FF FF 7F  66 64 69 32 01 80 21 00  ........fdi2..!.
```

#### Opcodes

```
  0: 0x0001 [0x42] SET_CLI_EVENT_CANCEL_DATA()
  1: 0x0002 [0x45] LOAD_SCHEDULED_TASK: Load scheduler "fdo1" with entities [LocalPlayer, LocalPlayer], work=[200*, 0*]
  2: 0x0013 [0x55] WAIT_LOAD_SCHEDULER: Wait for scheduler "fdo1" with entities [LocalPlayer, LocalPlayer], work=200*
  3: 0x0022 [0x46] CAMERA_CONTROL: Disable user control
  4: 0x0024 [0x38] SET_CLIENT_EVENT_MODE(mode=27*)
  5: 0x0027 [0x2F] Svenja (ID: 17940494/0x0111C00E)->Render.Flags0 &= ~0x80000 // Bit 19
  6: 0x002D [0x2F] Margret (ID: 17940493/0x0111C00D)->Render.Flags0 &= ~0x80000 // Bit 19
  7: 0x0033 [0x4E] SET_ENTITY_HIDE_FLAG: Show Svenja (ID: 17940494/0x0111C00E)
  8: 0x0039 [0x4E] SET_ENTITY_HIDE_FLAG: Show Margret (ID: 17940493/0x0111C00D)
  9: 0x003F [0x4E] SET_ENTITY_HIDE_FLAG: Show LocalPlayer
 10: 0x0045 [0x94] Svenja (ID: 17940494/0x0111C00E)->Render.Flags3 ^= 0x01
 11: 0x004B [0x94] Margret (ID: 17940493/0x0111C00D)->Render.Flags3 ^= 0x01
 12: 0x0051 [0x94] LocalPlayer->Render.Flags3 ^= 0x01
 13: 0x0057 [0xBA] SET_ENTITY_POSITION(entity_id=Svenja (ID: 17940494/0x0111C00E), pos_x=-106.996*, pos_z=-98.345*, pos_y=-2.149*, direction=353.5°*)
 14: 0x0064 [0xBA] SET_ENTITY_POSITION(entity_id=Margret (ID: 17940493/0x0111C00D), pos_x=-104.930*, pos_z=-99.271*, pos_y=-2.149*, direction=222.1°*)
 15: 0x0071 [0xBA] SET_ENTITY_POSITION(entity_id=LocalPlayer, pos_x=-94.330*, pos_z=-84.438*, pos_y=-2.649*, direction=134.0°*)
 16: 0x007E [0x80] LOAD_WAIT(entity=LocalPlayer)
 17: 0x0083 [0x80] LOAD_WAIT(entity=Svenja (ID: 17940494/0x0111C00E))
 18: 0x0088 [0x80] LOAD_WAIT(entity=Margret (ID: 17940493/0x0111C00D))
 19: 0x008D [0x80] LOAD_WAIT(entity=Andreine (ID: 17940495/0x0111C00F))
 20: 0x0092 [0x4A] Margret (ID: 17940493/0x0111C00D) looks at Svenja (ID: 17940494/0x0111C00E)
 21: 0x009B [0x4A] Svenja (ID: 17940494/0x0111C00E) looks at Margret (ID: 17940493/0x0111C00D)
 22: 0x00A4 [0x1C] WAIT(30* ticks)
 23: 0x00A7 [0x66] LOAD_EXT_SCHEDULER_MAIN: Load scheduler "thk1" with entities [Margret (ID: 17940493/0x0111C00D), Margret (ID: 17940493/0x0111C00D)], work=19*
 24: 0x00B6 [0x5B] LOAD_EXT_SCHEDULER: Load scheduler "thk0" with entities [Svenja (ID: 17940494/0x0111C00E), Svenja (ID: 17940494/0x0111C00E)], work=3261*
 25: 0x00C5 [0x27] REQ_SET(priority=0x05, entity_id=LocalPlayer, tag_num=0x0F)
 26: 0x00CC [0x45] LOAD_SCHEDULED_TASK: Load scheduler "s110" with entities [EventEntity, EventEntity], work=[621*, 0*]
 27: 0x00DD [0x1C] WAIT(15* ticks)
 28: 0x00E0 [0x45] LOAD_SCHEDULED_TASK: Load scheduler "fdi1" with entities [LocalPlayer, LocalPlayer], work=[200*, 0*]
 29: 0x00F1 [0x1C] WAIT(150* ticks)
 30: 0x00F4 [0x52] END_LOAD_SCHEDULER: End scheduler "s110" with entities [EventEntity, EventEntity], work=621*
 31: 0x0103 [0x45] LOAD_SCHEDULED_TASK: Load scheduler "s111" with entities [EventEntity, EventEntity], work=[621*, 0*]
 32: 0x0114 [0x1C] WAIT(150* ticks)
 33: 0x0117 [0x52] END_LOAD_SCHEDULER: End scheduler "s111" with entities [EventEntity, EventEntity], work=621*
 34: 0x0126 [0x45] LOAD_SCHEDULED_TASK: Load scheduler "s112" with entities [EventEntity, EventEntity], work=[621*, 0*]
 35: 0x0137 [0x66] LOAD_EXT_SCHEDULER_MAIN: Load scheduler "thk2" with entities [Margret (ID: 17940493/0x0111C00D), Margret (ID: 17940493/0x0111C00D)], work=19*
 36: 0x0146 [0x2B] Margret (ID: 17940493/0x0111C00D) [7275*]:
    → "No matter how many tomes we pore over, we cannot find a reliable remedy. This is unacceptable."
 37: 0x014D [0x23] WAIT_FOR_DIALOG_INTERACTION
 38: 0x014E [0x6E] Margret (ID: 17940493/0x0111C00D) uses emote 6*
 39: 0x0155 [0x99] Wait for Margret (ID: 17940493/0x0111C00D) animation to complete
 40: 0x015A [0x2B] Margret (ID: 17940493/0x0111C00D) [7276*]:
    → "Perhaps we underestimated the severity of the situation."
 41: 0x0161 [0x23] WAIT_FOR_DIALOG_INTERACTION
 42: 0x0162 [0x52] END_LOAD_SCHEDULER: End scheduler "s112" with entities [EventEntity, EventEntity], work=621*
 43: 0x0171 [0x45] LOAD_SCHEDULED_TASK: Load scheduler "s113" with entities [EventEntity, EventEntity], work=[621*, 0*]
 44: 0x0182 [0x03] Work_Zone[2] = 2343*
 45: 0x0187 [0x2B] Svenja (ID: 17940494/0x0111C00E) [7277*]:
    → "But, Margret, look--if we just had $6 like it said in that tattered volume..."
 46: 0x018E [0x23] WAIT_FOR_DIALOG_INTERACTION
 47: 0x018F [0x66] LOAD_EXT_SCHEDULER_MAIN: Load scheduler "tlk0" with entities [Margret (ID: 17940493/0x0111C00D), Margret (ID: 17940493/0x0111C00D)], work=19*
 48: 0x019E [0x2B] Margret (ID: 17940493/0x0111C00D) [7278*]:
    → "<Huff> You know as well as I that the process outlined there is overly simplified! We cannot merely waltz into Foret de Hennetiel, pluck some herbs, and be done with it."
 49: 0x01A5 [0x23] WAIT_FOR_DIALOG_INTERACTION
 50: 0x01A6 [0x52] END_LOAD_SCHEDULER: End scheduler "s113" with entities [EventEntity, EventEntity], work=621*
 51: 0x01B5 [0x45] LOAD_SCHEDULED_TASK: Load scheduler "s114" with entities [EventEntity, EventEntity], work=[621*, 0*]
 52: 0x01C6 [0x2B] Margret (ID: 17940493/0x0111C00D) [7279*]:
    → "And worse, that script is hundreds of years old! With Hennetiel succumbing to corruption of late, what proof do we have that the plant even still exists?"
 53: 0x01CD [0x23] WAIT_FOR_DIALOG_INTERACTION
 54: 0x01CE [0x66] LOAD_EXT_SCHEDULER_MAIN: Load scheduler "tlk1" with entities [Margret (ID: 17940493/0x0111C00D), Margret (ID: 17940493/0x0111C00D)], work=19*
 55: 0x01DD [0x52] END_LOAD_SCHEDULER: End scheduler "s114" with entities [EventEntity, EventEntity], work=621*
 56: 0x01EC [0x45] LOAD_SCHEDULED_TASK: Load scheduler "s115" with entities [EventEntity, EventEntity], work=[621*, 0*]
 57: 0x01FD [0x5B] LOAD_EXT_SCHEDULER: Load scheduler "thk1" with entities [Svenja (ID: 17940494/0x0111C00E), Svenja (ID: 17940494/0x0111C00E)], work=3261*
 58: 0x020C [0x2B] Svenja (ID: 17940494/0x0111C00E) [7280*]:
    → "You may be right, but still..."
 59: 0x0213 [0x23] WAIT_FOR_DIALOG_INTERACTION
 60: 0x0214 [0xBA] SET_ENTITY_POSITION(entity_id=LocalPlayer, pos_x=-103.116*, pos_z=-92.897*, pos_y=-2.149*, direction=130.7°*)
 61: 0x0221 [0x80] LOAD_WAIT(entity=LocalPlayer)
 62: 0x0226 [0x27] REQ_SET(priority=0x05, entity_id=LocalPlayer, tag_num=0x10)
 63: 0x022D [0x1C] WAIT(90* ticks)
 64: 0x0230 [0x52] END_LOAD_SCHEDULER: End scheduler "s115" with entities [EventEntity, EventEntity], work=621*
 65: 0x023F [0x45] LOAD_SCHEDULED_TASK: Load scheduler "s116" with entities [EventEntity, EventEntity], work=[621*, 0*]
 66: 0x0250 [0x1C] WAIT(60* ticks)
 67: 0x0253 [0x4A] Svenja (ID: 17940494/0x0111C00E) looks at LocalPlayer
 68: 0x025C [0x1C] WAIT(30* ticks)
 69: 0x025F [0x79] Margret (ID: 17940493/0x0111C00D) looks at LocalPlayer (Basic look)
 70: 0x0269 [0x02] IF !(Work_Zone[3] == 0*) GOTO 0x027C
 71: 0x0271 [0x2B] Svenja (ID: 17940494/0x0111C00E) [7281*]:
    → "Can I help you?"
 72: 0x0278 [0x23] WAIT_FOR_DIALOG_INTERACTION
 73: 0x0279 [0x01] GOTO 0x0284
 74: 0x027C [0x2B] Svenja (ID: 17940494/0x0111C00E) [7282*]:
    → "Why, if it isn't <Player>. Has Adoulin been treating you well of late?"
 75: 0x0283 [0x23] WAIT_FOR_DIALOG_INTERACTION

SUBROUTINE_0284:
 76: 0x0284 [0x2A] GET_REQ_LEVEL(level=5, entity_id=LocalPlayer)
 77: 0x028A [0x27] REQ_SET(priority=0x05, entity_id=LocalPlayer, tag_num=0x07)
 78: 0x0291 [0x1C] WAIT(80* ticks)
 79: 0x0294 [0x27] REQ_SET(priority=0x05, entity_id=LocalPlayer, tag_num=0x08)
 80: 0x029B [0x1C] WAIT(40* ticks)
 81: 0x029E [0x52] END_LOAD_SCHEDULER: End scheduler "s116" with entities [EventEntity, EventEntity], work=621*
 82: 0x02AD [0x45] LOAD_SCHEDULED_TASK: Load scheduler "s117" with entities [EventEntity, EventEntity], work=[621*, 0*]
 83: 0x02BE [0x5B] LOAD_EXT_SCHEDULER: Load scheduler "yes0" with entities [Svenja (ID: 17940494/0x0111C00E), Svenja (ID: 17940494/0x0111C00E)], work=3261*
 84: 0x02CD [0x1C] WAIT(15* ticks)
 85: 0x02D0 [0x4A] Margret (ID: 17940493/0x0111C00D) looks at LocalPlayer
 86: 0x02D9 [0x2B] Svenja (ID: 17940494/0x0111C00E) [7283*]:
    → "You came to pay your respects at my manor?"
 87: 0x02E0 [0x23] WAIT_FOR_DIALOG_INTERACTION
 88: 0x02E1 [0x53] WAIT_SCHEDULER_TASK: Wait for scheduler "yes0" with entities [Svenja (ID: 17940494/0x0111C00E), Svenja (ID: 17940494/0x0111C00E)]
 89: 0x02EE [0x52] END_LOAD_SCHEDULER: End scheduler "s117" with entities [EventEntity, EventEntity], work=621*
 90: 0x02FD [0x45] LOAD_SCHEDULED_TASK: Load scheduler "s118" with entities [EventEntity, EventEntity], work=[621*, 0*]
 91: 0x030E [0x5B] LOAD_EXT_SCHEDULER: Load scheduler "tlk0" with entities [Svenja (ID: 17940494/0x0111C00E), Svenja (ID: 17940494/0x0111C00E)], work=3261*
 92: 0x031D [0x02] IF !(Work_Zone[3] == 0*) GOTO 0x0428
 93: 0x0325 [0x2B] Svenja (ID: 17940494/0x0111C00E) [7284*]:
    → "And there were others who came to petition me as well? Then I simply cannot dawdle here when I am needed elsewhere."
 94: 0x032C [0x23] WAIT_FOR_DIALOG_INTERACTION
 95: 0x032D [0x5B] LOAD_EXT_SCHEDULER: Load scheduler "tlk1" with entities [Svenja (ID: 17940494/0x0111C00E), Svenja (ID: 17940494/0x0111C00E)], work=3261*
 96: 0x033C [0x7B] Svenja (ID: 17940494/0x0111C00E) stops talking
 97: 0x0341 [0x1C] WAIT(90* ticks)
 98: 0x0344 [0x52] END_LOAD_SCHEDULER: End scheduler "s118" with entities [EventEntity, EventEntity], work=621*
 99: 0x0353 [0x45] LOAD_SCHEDULED_TASK: Load scheduler "s119" with entities [EventEntity, EventEntity], work=[621*, 0*]
100: 0x0364 [0x27] REQ_SET(priority=0x05, entity_id=Svenja (ID: 17940494/0x0111C00E), tag_num=0x02)
101: 0x036B [0x1C] WAIT(180* ticks)
102: 0x036E [0x4E] SET_ENTITY_HIDE_FLAG: Hide Margret (ID: 17940493/0x0111C00D)
103: 0x0374 [0x4A] LocalPlayer looks at Svenja (ID: 17940494/0x0111C00E)
104: 0x037D [0x52] END_LOAD_SCHEDULER: End scheduler "s119" with entities [EventEntity, EventEntity], work=621*
105: 0x038C [0x45] LOAD_SCHEDULED_TASK: Load scheduler "s120" with entities [EventEntity, EventEntity], work=[621*, 0*]
106: 0x039D [0x2A] GET_REQ_LEVEL(level=5, entity_id=Svenja (ID: 17940494/0x0111C00E))
107: 0x03A3 [0x1C] WAIT(90* ticks)
108: 0x03A6 [0x52] END_LOAD_SCHEDULER: End scheduler "s120" with entities [EventEntity, EventEntity], work=621*
109: 0x03B5 [0x45] LOAD_SCHEDULED_TASK: Load scheduler "s121" with entities [EventEntity, EventEntity], work=[621*, 0*]
110: 0x03C6 [0x4A] Svenja (ID: 17940494/0x0111C00E) looks at LocalPlayer
111: 0x03CF [0x1C] WAIT(30* ticks)
112: 0x03D2 [0x2B] Svenja (ID: 17940494/0x0111C00E) [7286*]:
    → "Pray tell, would you happen to be one of our intrepid pioneers?"
113: 0x03D9 [0x23] WAIT_FOR_DIALOG_INTERACTION
114: 0x03DA [0x6E] LocalPlayer uses emote 7*
115: 0x03E1 [0x99] Wait for LocalPlayer animation to complete
116: 0x03E6 [0x1C] WAIT(90* ticks)
117: 0x03E9 [0x52] END_LOAD_SCHEDULER: End scheduler "s121" with entities [EventEntity, EventEntity], work=621*
118: 0x03F8 [0x45] LOAD_SCHEDULED_TASK: Load scheduler "s122" with entities [EventEntity, EventEntity], work=[621*, 0*]
119: 0x0409 [0x03] Work_Zone[2] = 2343*
120: 0x040E [0x2B] Svenja (ID: 17940494/0x0111C00E) [7287*]:
    → "I see. Have you ever heard of a rare plant called $6?"
121: 0x0415 [0x23] WAIT_FOR_DIALOG_INTERACTION
122: 0x0416 [0x52] END_LOAD_SCHEDULER: End scheduler "s122" with entities [EventEntity, EventEntity], work=621*
123: 0x0425 [0x01] GOTO 0x04F1
124: 0x0428 [0x2B] Svenja (ID: 17940494/0x0111C00E) [7285*]:
    → "You say there were others seeking my assistance? Then I simply cannot dawdle here when I am needed elsewhere."
125: 0x042F [0x23] WAIT_FOR_DIALOG_INTERACTION
126: 0x0430 [0x5B] LOAD_EXT_SCHEDULER: Load scheduler "tlk1" with entities [Svenja (ID: 17940494/0x0111C00E), Svenja (ID: 17940494/0x0111C00E)], work=3261*
127: 0x043F [0x7B] Svenja (ID: 17940494/0x0111C00E) stops talking
128: 0x0444 [0x1C] WAIT(60* ticks)
129: 0x0447 [0x52] END_LOAD_SCHEDULER: End scheduler "s118" with entities [EventEntity, EventEntity], work=621*
130: 0x0456 [0x45] LOAD_SCHEDULED_TASK: Load scheduler "s119" with entities [EventEntity, EventEntity], work=[621*, 0*]
131: 0x0467 [0x27] REQ_SET(priority=0x05, entity_id=Svenja (ID: 17940494/0x0111C00E), tag_num=0x02)
132: 0x046E [0x1C] WAIT(180* ticks)
133: 0x0471 [0x4E] SET_ENTITY_HIDE_FLAG: Hide Margret (ID: 17940493/0x0111C00D)
134: 0x0477 [0x4A] LocalPlayer looks at Svenja (ID: 17940494/0x0111C00E)
135: 0x0480 [0x52] END_LOAD_SCHEDULER: End scheduler "s119" with entities [EventEntity, EventEntity], work=621*
136: 0x048F [0x45] LOAD_SCHEDULED_TASK: Load scheduler "s120" with entities [EventEntity, EventEntity], work=[621*, 0*]
137: 0x04A0 [0x2A] GET_REQ_LEVEL(level=5, entity_id=Svenja (ID: 17940494/0x0111C00E))
138: 0x04A6 [0x1C] WAIT(90* ticks)
139: 0x04A9 [0x52] END_LOAD_SCHEDULER: End scheduler "s120" with entities [EventEntity, EventEntity], work=621*
140: 0x04B8 [0x45] LOAD_SCHEDULED_TASK: Load scheduler "s121" with entities [EventEntity, EventEntity], work=[621*, 0*]
141: 0x04C9 [0x4A] Svenja (ID: 17940494/0x0111C00E) looks at LocalPlayer
142: 0x04D2 [0x1C] WAIT(30* ticks)
143: 0x04D5 [0x03] Work_Zone[2] = 2343*
144: 0x04DA [0x2B] Svenja (ID: 17940494/0x0111C00E) [7288*]:
    → "Our previous meeting must not have been mere chance. Have you heard tales of a rare plant called $6?"
145: 0x04E1 [0x23] WAIT_FOR_DIALOG_INTERACTION
146: 0x04E2 [0x52] END_LOAD_SCHEDULER: End scheduler "s121" with entities [EventEntity, EventEntity], work=621*

SUBROUTINE_04F1:
147: 0x04F1 [0x45] LOAD_SCHEDULED_TASK: Load scheduler "s123" with entities [EventEntity, EventEntity], work=[621*, 0*]
148: 0x0502 [0x24] CREATE_DIALOG(message_id=7289*, default_option=0*, option_flags=0*)
    → ""$3"...? [Never heard of it./I'm not terribly familiar...]"
149: 0x0509 [0x25] WAIT_DIALOG_SELECT()
150: 0x050A [0x02] IF !(Work_Zone[0] == 0*) GOTO 0x053D
151: 0x0512 [0x52] END_LOAD_SCHEDULER: End scheduler "s123" with entities [EventEntity, EventEntity], work=621*
152: 0x0521 [0x45] LOAD_SCHEDULED_TASK: Load scheduler "s124" with entities [EventEntity, EventEntity], work=[621*, 0*]
153: 0x0532 [0x2B] Svenja (ID: 17940494/0x0111C00E) [7290*]:
    → "I expected as much, as even our most treasured tomes make scant mention of its existence. It is an herb of sorts said to have grown in Foret de Hennetiel."
154: 0x0539 [0x23] WAIT_FOR_DIALOG_INTERACTION
155: 0x053A [0x01] GOTO 0x0570
156: 0x053D [0x02] IF !(Work_Zone[0] == 1*) GOTO 0x0570
157: 0x0545 [0x52] END_LOAD_SCHEDULER: End scheduler "s123" with entities [EventEntity, EventEntity], work=621*
158: 0x0554 [0x45] LOAD_SCHEDULED_TASK: Load scheduler "s124" with entities [EventEntity, EventEntity], work=[621*, 0*]
159: 0x0565 [0x2B] Svenja (ID: 17940494/0x0111C00E) [7290*]:
    → "I expected as much, as even our most treasured tomes make scant mention of its existence. It is an herb of sorts said to have grown in Foret de Hennetiel."
160: 0x056C [0x23] WAIT_FOR_DIALOG_INTERACTION
161: 0x056D [0x01] GOTO 0x0570

SUBROUTINE_0570:
162: 0x0570 [0x5B] LOAD_EXT_SCHEDULER: Load scheduler "non0" with entities [Svenja (ID: 17940494/0x0111C00E), Svenja (ID: 17940494/0x0111C00E)], work=3261*
163: 0x057F [0x2B] Svenja (ID: 17940494/0x0111C00E) [7291*]:
    → "My use of the past tense has likely not escaped your notice. The truth is, since the continent was sealed off centuries ago, our information about Ulbuka's flora has fallen wildly out of date."
164: 0x0586 [0x23] WAIT_FOR_DIALOG_INTERACTION
165: 0x0587 [0x53] WAIT_SCHEDULER_TASK: Wait for scheduler "non0" with entities [Svenja (ID: 17940494/0x0111C00E), Svenja (ID: 17940494/0x0111C00E)]
166: 0x0594 [0x52] END_LOAD_SCHEDULER: End scheduler "s124" with entities [EventEntity, EventEntity], work=621*
167: 0x05A3 [0x45] LOAD_SCHEDULED_TASK: Load scheduler "s125" with entities [EventEntity, EventEntity], work=[621*, 0*]
168: 0x05B4 [0x5B] LOAD_EXT_SCHEDULER: Load scheduler "tlk0" with entities [Svenja (ID: 17940494/0x0111C00E), Svenja (ID: 17940494/0x0111C00E)], work=3261*
169: 0x05C3 [0x2B] Svenja (ID: 17940494/0x0111C00E) [7292*]:
    → "I came to the library this day to find a cure for an illness affecting a young lad here in our fair city...and my research has led me to this plant."
170: 0x05CA [0x23] WAIT_FOR_DIALOG_INTERACTION
171: 0x05CB [0x2B] Svenja (ID: 17940494/0x0111C00E) [7293*]:
    → "Grinding a fistful of its roasted leaves and administering the resultant powder as a tonic will cure his ailment...or so this text says."
172: 0x05D2 [0x23] WAIT_FOR_DIALOG_INTERACTION
173: 0x05D3 [0x52] END_LOAD_SCHEDULER: End scheduler "s125" with entities [EventEntity, EventEntity], work=621*
174: 0x05E2 [0x45] LOAD_SCHEDULED_TASK: Load scheduler "s126" with entities [EventEntity, EventEntity], work=[621*, 0*]
175: 0x05F3 [0x2B] Svenja (ID: 17940494/0x0111C00E) [7294*]:
    → "Should you happen to stumble across so much as a seedling in the forest, would you do me the kindness of bringing it to my manor? The author described the leaves as being of a deep green hue, with grooved ridges that let rainwater slide right off."
176: 0x05FA [0x23] WAIT_FOR_DIALOG_INTERACTION
177: 0x05FB [0x5B] LOAD_EXT_SCHEDULER: Load scheduler "tlk1" with entities [Svenja (ID: 17940494/0x0111C00E), Svenja (ID: 17940494/0x0111C00E)], work=3261*
178: 0x060A [0x2B] Svenja (ID: 17940494/0x0111C00E) [7295*]:
    → "Should you succeed, you know where to find me."
179: 0x0611 [0x23] WAIT_FOR_DIALOG_INTERACTION
180: 0x0612 [0x52] END_LOAD_SCHEDULER: End scheduler "s126" with entities [EventEntity, EventEntity], work=621*
181: 0x0621 [0x45] LOAD_SCHEDULED_TASK: Load scheduler "s127" with entities [EventEntity, EventEntity], work=[621*, 0*]
182: 0x0632 [0x27] REQ_SET(priority=0x05, entity_id=Svenja (ID: 17940494/0x0111C00E), tag_num=0x03)
183: 0x0639 [0x1C] WAIT(120* ticks)
184: 0x063C [0x45] LOAD_SCHEDULED_TASK: Load scheduler "fdo1" with entities [LocalPlayer, LocalPlayer], work=[200*, 0*]
185: 0x064D [0x55] WAIT_LOAD_SCHEDULER: Wait for scheduler "fdo1" with entities [LocalPlayer, LocalPlayer], work=200*
186: 0x065C [0x52] END_LOAD_SCHEDULER: End scheduler "s127" with entities [EventEntity, EventEntity], work=621*
187: 0x066B [0x46] CAMERA_CONTROL: Restore default settings
188: 0x066D [0x45] LOAD_SCHEDULED_TASK: Load scheduler "fdi2" with entities [LocalPlayer, LocalPlayer], work=[200*, 0*]
189: 0x067E [0x21] END_EVENT
190: 0x067F [0x00] END_REQSTACK()
```

### Event 11

#### Metadata

| Field        | Value      |
|--------------|------------|
| Entrypoint   | 0x0680     |
| Data Size    | 1377 bytes |
| Instructions | 155        |

```
      00 01 02 03 04 05 06 07  08 09 0A 0B 0C 0D 0E 0F
      -- -- -- -- -- -- -- --  -- -- -- -- -- -- -- --
0680: 42 45 00 80 F0 FF FF 7F  F0 FF FF 7F 66 64 6F 31  BE..........fdo1
0690: 01 80 55 00 80 F0 FF FF  7F F0 FF FF 7F 66 64 6F  ..U..........fdo
06A0: 31 46 01 38 02 80 2F 00  0E C0 11 01 2F 00 0D C0  1F.8../...../...
06B0: 11 01 4E 00 0E C0 11 01  4E 00 0D C0 11 01 4E 00  ..N.....N.....N.
06C0: F0 FF FF 7F 94 01 0E C0  11 01 94 01 0D C0 11 01  ................
06D0: 94 01 F0 FF FF 7F BA 0E  C0 11 01 03 80 04 80 05  ................
06E0: 80 06 80 BA 0D C0 11 01  07 80 08 80 05 80 09 80  ................
06F0: BA F0 FF FF 7F 0A 80 0B  80 0C 80 0D 80 80 F0 FF  ................
0700: FF 7F 80 0E C0 11 01 80  0D C0 11 01 80 0F C0 11  ................
0710: 01 4A 0D C0 11 01 0E C0  11 01 4A 0E C0 11 01 0D  .J........J.....
0720: C0 11 01 1C 0E 80 66 0F  80 0D C0 11 01 0D C0 11  ......f.........
0730: 01 74 68 6B 31 5B 10 80  0E C0 11 01 0E C0 11 01  .thk1[..........
0740: 74 68 6B 30 27 05 F0 FF  FF 7F 0F 45 11 80 F8 FF  thk0'......E....
0750: FF 7F F8 FF FF 7F 73 31  31 30 01 80 1C 12 80 45  ......s110.....E
0760: 00 80 F0 FF FF 7F F0 FF  FF 7F 66 64 69 31 01 80  ..........fdi1..
0770: 1C 13 80 52 11 80 F8 FF  FF 7F F8 FF FF 7F 73 31  ...R..........s1
0780: 31 30 45 11 80 F8 FF FF  7F F8 FF FF 7F 73 31 31  10E..........s11
0790: 31 01 80 1C 13 80 52 11  80 F8 FF FF 7F F8 FF FF  1.....R.........
07A0: 7F 73 31 31 31 45 11 80  F8 FF FF 7F F8 FF FF 7F  .s111E..........
07B0: 73 31 31 32 01 80 66 0F  80 0D C0 11 01 0D C0 11  s112..f.........
07C0: 01 74 68 6B 32 2B 0D C0  11 01 14 80 23 6E 0D C0  .thk2+......#n..
07D0: 11 01 15 80 99 0D C0 11  01 2B 0D C0 11 01 16 80  .........+......
07E0: 23 52 11 80 F8 FF FF 7F  F8 FF FF 7F 73 31 31 32  #R..........s112
07F0: 45 11 80 F8 FF FF 7F F8  FF FF 7F 73 31 31 33 01  E..........s113.
0800: 80 03 02 10 17 80 2B 0E  C0 11 01 18 80 23 66 0F  ......+......#f.
0810: 80 0D C0 11 01 0D C0 11  01 74 6C 6B 30 2B 0D C0  .........tlk0+..
0820: 11 01 19 80 23 52 11 80  F8 FF FF 7F F8 FF FF 7F  ....#R..........
0830: 73 31 31 33 45 11 80 F8  FF FF 7F F8 FF FF 7F 73  s113E..........s
0840: 31 31 34 01 80 2B 0D C0  11 01 1A 80 23 66 0F 80  114..+......#f..
0850: 0D C0 11 01 0D C0 11 01  74 6C 6B 31 52 11 80 F8  ........tlk1R...
0860: FF FF 7F F8 FF FF 7F 73  31 31 34 45 11 80 F8 FF  .......s114E....
0870: FF 7F F8 FF FF 7F 73 31  31 35 01 80 5B 10 80 0E  ......s115..[...
0880: C0 11 01 0E C0 11 01 74  68 6B 31 2B 0E C0 11 01  .......thk1+....
0890: 1B 80 23 BA F0 FF FF 7F  1C 80 1D 80 05 80 1E 80  ..#.............
08A0: 80 F0 FF FF 7F 27 05 F0  FF FF 7F 10 1C 1F 80 52  .....'.........R
08B0: 11 80 F8 FF FF 7F F8 FF  FF 7F 73 31 31 35 45 11  ..........s115E.
08C0: 80 F8 FF FF 7F F8 FF FF  7F 73 31 31 36 01 80 1C  .........s116...
08D0: 20 80 4A 0E C0 11 01 F0  FF FF 7F 1C 0E 80 79 00   .J...........y.
08E0: 0D C0 11 01 F0 FF FF 7F  2B 0E C0 11 01 22 80 23  ........+....".#
08F0: 2A 05 F0 FF FF 7F 27 05  F0 FF FF 7F 07 1C 23 80  *.....'.......#.
0900: 27 05 F0 FF FF 7F 08 1C  24 80 52 11 80 F8 FF FF  '.......$.R.....
0910: 7F F8 FF FF 7F 73 31 31  36 45 11 80 F8 FF FF 7F  .....s116E......
0920: F8 FF FF 7F 73 31 31 37  01 80 5B 10 80 0E C0 11  ....s117..[.....
0930: 01 0E C0 11 01 79 65 73  30 1C 12 80 4A 0D C0 11  .....yes0...J...
0940: 01 F0 FF FF 7F 2B 0E C0  11 01 25 80 23 53 0E C0  .....+....%.#S..
0950: 11 01 0E C0 11 01 79 65  73 30 52 11 80 F8 FF FF  ......yes0R.....
0960: 7F F8 FF FF 7F 73 31 31  37 45 11 80 F8 FF FF 7F  .....s117E......
0970: F8 FF FF 7F 73 31 31 38  01 80 5B 10 80 0E C0 11  ....s118..[.....
0980: 01 0E C0 11 01 74 6C 6B  30 2B 0E C0 11 01 2B 80  .....tlk0+....+.
0990: 23 5B 10 80 0E C0 11 01  0E C0 11 01 74 6C 6B 31  #[..........tlk1
09A0: 7B 0E C0 11 01 1C 20 80  52 11 80 F8 FF FF 7F F8  {..... .R.......
09B0: FF FF 7F 73 31 31 38 45  11 80 F8 FF FF 7F F8 FF  ...s118E........
09C0: FF 7F 73 31 31 39 01 80  27 05 0E C0 11 01 02 1C  ..s119..'.......
09D0: 27 80 4E 01 0D C0 11 01  4A F0 FF FF 7F 0E C0 11  '.N.....J.......
09E0: 01 52 11 80 F8 FF FF 7F  F8 FF FF 7F 73 31 31 39  .R..........s119
09F0: 45 11 80 F8 FF FF 7F F8  FF FF 7F 73 31 32 30 01  E..........s120.
0A00: 80 2A 05 0E C0 11 01 1C  1F 80 52 11 80 F8 FF FF  .*........R.....
0A10: 7F F8 FF FF 7F 73 31 32  30 45 11 80 F8 FF FF 7F  .....s120E......
0A20: F8 FF FF 7F 73 31 32 31  01 80 4A 0E C0 11 01 F0  ....s121..J.....
0A30: FF FF 7F 1C 0E 80 03 02  10 17 80 2B 0E C0 11 01  ...........+....
0A40: 2C 80 23 52 11 80 F8 FF  FF 7F F8 FF FF 7F 73 31  ,.#R..........s1
0A50: 32 31 45 11 80 F8 FF FF  7F F8 FF FF 7F 73 31 32  21E..........s12
0A60: 33 01 80 24 2D 80 01 80  01 80 25 02 00 10 01 80  3..$-.....%.....
0A70: 00 9E 0A 52 11 80 F8 FF  FF 7F F8 FF FF 7F 73 31  ...R..........s1
0A80: 32 33 45 11 80 F8 FF FF  7F F8 FF FF 7F 73 31 32  23E..........s12
0A90: 34 01 80 2B 0E C0 11 01  2E 80 23 01 D1 0A 02 00  4..+......#.....
0AA0: 10 2F 80 00 D1 0A 52 11  80 F8 FF FF 7F F8 FF FF  ./....R.........
0AB0: 7F 73 31 32 33 45 11 80  F8 FF FF 7F F8 FF FF 7F  .s123E..........
0AC0: 73 31 32 34 01 80 2B 0E  C0 11 01 2E 80 23 01 D1  s124..+......#..
0AD0: 0A 5B 10 80 0E C0 11 01  0E C0 11 01 6E 6F 6E 30  .[..........non0
0AE0: 2B 0E C0 11 01 30 80 23  53 0E C0 11 01 0E C0 11  +....0.#S.......
0AF0: 01 6E 6F 6E 30 52 11 80  F8 FF FF 7F F8 FF FF 7F  .non0R..........
0B00: 73 31 32 34 45 11 80 F8  FF FF 7F F8 FF FF 7F 73  s124E..........s
0B10: 31 32 35 01 80 5B 10 80  0E C0 11 01 0E C0 11 01  125..[..........
0B20: 74 6C 6B 30 2B 0E C0 11  01 31 80 23 2B 0E C0 11  tlk0+....1.#+...
0B30: 01 32 80 23 52 11 80 F8  FF FF 7F F8 FF FF 7F 73  .2.#R..........s
0B40: 31 32 35 45 11 80 F8 FF  FF 7F F8 FF FF 7F 73 31  125E..........s1
0B50: 32 36 01 80 2B 0E C0 11  01 33 80 23 5B 10 80 0E  26..+....3.#[...
0B60: C0 11 01 0E C0 11 01 74  6C 6B 31 2B 0E C0 11 01  .......tlk1+....
0B70: 34 80 23 52 11 80 F8 FF  FF 7F F8 FF FF 7F 73 31  4.#R..........s1
0B80: 32 36 45 11 80 F8 FF FF  7F F8 FF FF 7F 73 31 32  26E..........s12
0B90: 37 01 80 27 05 0E C0 11  01 03 1C 35 80 45 00 80  7..'.......5.E..
0BA0: F0 FF FF 7F F0 FF FF 7F  66 64 6F 31 01 80 55 00  ........fdo1..U.
0BB0: 80 F0 FF FF 7F F0 FF FF  7F 66 64 6F 31 52 11 80  .........fdo1R..
0BC0: F8 FF FF 7F F8 FF FF 7F  73 31 32 37 46 00 45 00  ........s127F.E.
0BD0: 80 F0 FF FF 7F F0 FF FF  7F 66 64 69 32 01 80 21  .........fdi2..!
0BE0: 00                                                .               
```

#### Opcodes

```
  0: 0x0680 [0x42] SET_CLI_EVENT_CANCEL_DATA()
  1: 0x0681 [0x45] LOAD_SCHEDULED_TASK: Load scheduler "fdo1" with entities [LocalPlayer, LocalPlayer], work=[200*, 0*]
  2: 0x0692 [0x55] WAIT_LOAD_SCHEDULER: Wait for scheduler "fdo1" with entities [LocalPlayer, LocalPlayer], work=200*
  3: 0x06A1 [0x46] CAMERA_CONTROL: Disable user control
  4: 0x06A3 [0x38] SET_CLIENT_EVENT_MODE(mode=27*)
  5: 0x06A6 [0x2F] Svenja (ID: 17940494/0x0111C00E)->Render.Flags0 &= ~0x80000 // Bit 19
  6: 0x06AC [0x2F] Margret (ID: 17940493/0x0111C00D)->Render.Flags0 &= ~0x80000 // Bit 19
  7: 0x06B2 [0x4E] SET_ENTITY_HIDE_FLAG: Show Svenja (ID: 17940494/0x0111C00E)
  8: 0x06B8 [0x4E] SET_ENTITY_HIDE_FLAG: Show Margret (ID: 17940493/0x0111C00D)
  9: 0x06BE [0x4E] SET_ENTITY_HIDE_FLAG: Show LocalPlayer
 10: 0x06C4 [0x94] Svenja (ID: 17940494/0x0111C00E)->Render.Flags3 ^= 0x01
 11: 0x06CA [0x94] Margret (ID: 17940493/0x0111C00D)->Render.Flags3 ^= 0x01
 12: 0x06D0 [0x94] LocalPlayer->Render.Flags3 ^= 0x01
 13: 0x06D6 [0xBA] SET_ENTITY_POSITION(entity_id=Svenja (ID: 17940494/0x0111C00E), pos_x=-106.996*, pos_z=-98.345*, pos_y=-2.149*, direction=353.5°*)
 14: 0x06E3 [0xBA] SET_ENTITY_POSITION(entity_id=Margret (ID: 17940493/0x0111C00D), pos_x=-104.930*, pos_z=-99.271*, pos_y=-2.149*, direction=222.1°*)
 15: 0x06F0 [0xBA] SET_ENTITY_POSITION(entity_id=LocalPlayer, pos_x=-94.330*, pos_z=-84.438*, pos_y=-2.649*, direction=134.0°*)
 16: 0x06FD [0x80] LOAD_WAIT(entity=LocalPlayer)
 17: 0x0702 [0x80] LOAD_WAIT(entity=Svenja (ID: 17940494/0x0111C00E))
 18: 0x0707 [0x80] LOAD_WAIT(entity=Margret (ID: 17940493/0x0111C00D))
 19: 0x070C [0x80] LOAD_WAIT(entity=Andreine (ID: 17940495/0x0111C00F))
 20: 0x0711 [0x4A] Margret (ID: 17940493/0x0111C00D) looks at Svenja (ID: 17940494/0x0111C00E)
 21: 0x071A [0x4A] Svenja (ID: 17940494/0x0111C00E) looks at Margret (ID: 17940493/0x0111C00D)
 22: 0x0723 [0x1C] WAIT(30* ticks)
 23: 0x0726 [0x66] LOAD_EXT_SCHEDULER_MAIN: Load scheduler "thk1" with entities [Margret (ID: 17940493/0x0111C00D), Margret (ID: 17940493/0x0111C00D)], work=19*
 24: 0x0735 [0x5B] LOAD_EXT_SCHEDULER: Load scheduler "thk0" with entities [Svenja (ID: 17940494/0x0111C00E), Svenja (ID: 17940494/0x0111C00E)], work=3261*
 25: 0x0744 [0x27] REQ_SET(priority=0x05, entity_id=LocalPlayer, tag_num=0x0F)
 26: 0x074B [0x45] LOAD_SCHEDULED_TASK: Load scheduler "s110" with entities [EventEntity, EventEntity], work=[621*, 0*]
 27: 0x075C [0x1C] WAIT(15* ticks)
 28: 0x075F [0x45] LOAD_SCHEDULED_TASK: Load scheduler "fdi1" with entities [LocalPlayer, LocalPlayer], work=[200*, 0*]
 29: 0x0770 [0x1C] WAIT(150* ticks)
 30: 0x0773 [0x52] END_LOAD_SCHEDULER: End scheduler "s110" with entities [EventEntity, EventEntity], work=621*
 31: 0x0782 [0x45] LOAD_SCHEDULED_TASK: Load scheduler "s111" with entities [EventEntity, EventEntity], work=[621*, 0*]
 32: 0x0793 [0x1C] WAIT(150* ticks)
 33: 0x0796 [0x52] END_LOAD_SCHEDULER: End scheduler "s111" with entities [EventEntity, EventEntity], work=621*
 34: 0x07A5 [0x45] LOAD_SCHEDULED_TASK: Load scheduler "s112" with entities [EventEntity, EventEntity], work=[621*, 0*]
 35: 0x07B6 [0x66] LOAD_EXT_SCHEDULER_MAIN: Load scheduler "thk2" with entities [Margret (ID: 17940493/0x0111C00D), Margret (ID: 17940493/0x0111C00D)], work=19*
 36: 0x07C5 [0x2B] Margret (ID: 17940493/0x0111C00D) [7275*]:
    → "No matter how many tomes we pore over, we cannot find a reliable remedy. This is unacceptable."
 37: 0x07CC [0x23] WAIT_FOR_DIALOG_INTERACTION
 38: 0x07CD [0x6E] Margret (ID: 17940493/0x0111C00D) uses emote 6*
 39: 0x07D4 [0x99] Wait for Margret (ID: 17940493/0x0111C00D) animation to complete
 40: 0x07D9 [0x2B] Margret (ID: 17940493/0x0111C00D) [7276*]:
    → "Perhaps we underestimated the severity of the situation."
 41: 0x07E0 [0x23] WAIT_FOR_DIALOG_INTERACTION
 42: 0x07E1 [0x52] END_LOAD_SCHEDULER: End scheduler "s112" with entities [EventEntity, EventEntity], work=621*
 43: 0x07F0 [0x45] LOAD_SCHEDULED_TASK: Load scheduler "s113" with entities [EventEntity, EventEntity], work=[621*, 0*]
 44: 0x0801 [0x03] Work_Zone[2] = 2343*
 45: 0x0806 [0x2B] Svenja (ID: 17940494/0x0111C00E) [7277*]:
    → "But, Margret, look--if we just had $6 like it said in that tattered volume..."
 46: 0x080D [0x23] WAIT_FOR_DIALOG_INTERACTION
 47: 0x080E [0x66] LOAD_EXT_SCHEDULER_MAIN: Load scheduler "tlk0" with entities [Margret (ID: 17940493/0x0111C00D), Margret (ID: 17940493/0x0111C00D)], work=19*
 48: 0x081D [0x2B] Margret (ID: 17940493/0x0111C00D) [7278*]:
    → "<Huff> You know as well as I that the process outlined there is overly simplified! We cannot merely waltz into Foret de Hennetiel, pluck some herbs, and be done with it."
 49: 0x0824 [0x23] WAIT_FOR_DIALOG_INTERACTION
 50: 0x0825 [0x52] END_LOAD_SCHEDULER: End scheduler "s113" with entities [EventEntity, EventEntity], work=621*
 51: 0x0834 [0x45] LOAD_SCHEDULED_TASK: Load scheduler "s114" with entities [EventEntity, EventEntity], work=[621*, 0*]
 52: 0x0845 [0x2B] Margret (ID: 17940493/0x0111C00D) [7279*]:
    → "And worse, that script is hundreds of years old! With Hennetiel succumbing to corruption of late, what proof do we have that the plant even still exists?"
 53: 0x084C [0x23] WAIT_FOR_DIALOG_INTERACTION
 54: 0x084D [0x66] LOAD_EXT_SCHEDULER_MAIN: Load scheduler "tlk1" with entities [Margret (ID: 17940493/0x0111C00D), Margret (ID: 17940493/0x0111C00D)], work=19*
 55: 0x085C [0x52] END_LOAD_SCHEDULER: End scheduler "s114" with entities [EventEntity, EventEntity], work=621*
 56: 0x086B [0x45] LOAD_SCHEDULED_TASK: Load scheduler "s115" with entities [EventEntity, EventEntity], work=[621*, 0*]
 57: 0x087C [0x5B] LOAD_EXT_SCHEDULER: Load scheduler "thk1" with entities [Svenja (ID: 17940494/0x0111C00E), Svenja (ID: 17940494/0x0111C00E)], work=3261*
 58: 0x088B [0x2B] Svenja (ID: 17940494/0x0111C00E) [7280*]:
    → "You may be right, but still..."
 59: 0x0892 [0x23] WAIT_FOR_DIALOG_INTERACTION
 60: 0x0893 [0xBA] SET_ENTITY_POSITION(entity_id=LocalPlayer, pos_x=-103.116*, pos_z=-92.897*, pos_y=-2.149*, direction=130.7°*)
 61: 0x08A0 [0x80] LOAD_WAIT(entity=LocalPlayer)
 62: 0x08A5 [0x27] REQ_SET(priority=0x05, entity_id=LocalPlayer, tag_num=0x10)
 63: 0x08AC [0x1C] WAIT(90* ticks)
 64: 0x08AF [0x52] END_LOAD_SCHEDULER: End scheduler "s115" with entities [EventEntity, EventEntity], work=621*
 65: 0x08BE [0x45] LOAD_SCHEDULED_TASK: Load scheduler "s116" with entities [EventEntity, EventEntity], work=[621*, 0*]
 66: 0x08CF [0x1C] WAIT(60* ticks)
 67: 0x08D2 [0x4A] Svenja (ID: 17940494/0x0111C00E) looks at LocalPlayer
 68: 0x08DB [0x1C] WAIT(30* ticks)
 69: 0x08DE [0x79] Margret (ID: 17940493/0x0111C00D) looks at LocalPlayer (Basic look)
 70: 0x08E8 [0x2B] Svenja (ID: 17940494/0x0111C00E) [7282*]:
    → "Why, if it isn't <Player>. Has Adoulin been treating you well of late?"
 71: 0x08EF [0x23] WAIT_FOR_DIALOG_INTERACTION
 72: 0x08F0 [0x2A] GET_REQ_LEVEL(level=5, entity_id=LocalPlayer)
 73: 0x08F6 [0x27] REQ_SET(priority=0x05, entity_id=LocalPlayer, tag_num=0x07)
 74: 0x08FD [0x1C] WAIT(80* ticks)
 75: 0x0900 [0x27] REQ_SET(priority=0x05, entity_id=LocalPlayer, tag_num=0x08)
 76: 0x0907 [0x1C] WAIT(40* ticks)
 77: 0x090A [0x52] END_LOAD_SCHEDULER: End scheduler "s116" with entities [EventEntity, EventEntity], work=621*
 78: 0x0919 [0x45] LOAD_SCHEDULED_TASK: Load scheduler "s117" with entities [EventEntity, EventEntity], work=[621*, 0*]
 79: 0x092A [0x5B] LOAD_EXT_SCHEDULER: Load scheduler "yes0" with entities [Svenja (ID: 17940494/0x0111C00E), Svenja (ID: 17940494/0x0111C00E)], work=3261*
 80: 0x0939 [0x1C] WAIT(15* ticks)
 81: 0x093C [0x4A] Margret (ID: 17940493/0x0111C00D) looks at LocalPlayer
 82: 0x0945 [0x2B] Svenja (ID: 17940494/0x0111C00E) [7283*]:
    → "You came to pay your respects at my manor?"
 83: 0x094C [0x23] WAIT_FOR_DIALOG_INTERACTION
 84: 0x094D [0x53] WAIT_SCHEDULER_TASK: Wait for scheduler "yes0" with entities [Svenja (ID: 17940494/0x0111C00E), Svenja (ID: 17940494/0x0111C00E)]
 85: 0x095A [0x52] END_LOAD_SCHEDULER: End scheduler "s117" with entities [EventEntity, EventEntity], work=621*
 86: 0x0969 [0x45] LOAD_SCHEDULED_TASK: Load scheduler "s118" with entities [EventEntity, EventEntity], work=[621*, 0*]
 87: 0x097A [0x5B] LOAD_EXT_SCHEDULER: Load scheduler "tlk0" with entities [Svenja (ID: 17940494/0x0111C00E), Svenja (ID: 17940494/0x0111C00E)], work=3261*
 88: 0x0989 [0x2B] Svenja (ID: 17940494/0x0111C00E) [7285*]:
    → "You say there were others seeking my assistance? Then I simply cannot dawdle here when I am needed elsewhere."
 89: 0x0990 [0x23] WAIT_FOR_DIALOG_INTERACTION
 90: 0x0991 [0x5B] LOAD_EXT_SCHEDULER: Load scheduler "tlk1" with entities [Svenja (ID: 17940494/0x0111C00E), Svenja (ID: 17940494/0x0111C00E)], work=3261*
 91: 0x09A0 [0x7B] Svenja (ID: 17940494/0x0111C00E) stops talking
 92: 0x09A5 [0x1C] WAIT(60* ticks)
 93: 0x09A8 [0x52] END_LOAD_SCHEDULER: End scheduler "s118" with entities [EventEntity, EventEntity], work=621*
 94: 0x09B7 [0x45] LOAD_SCHEDULED_TASK: Load scheduler "s119" with entities [EventEntity, EventEntity], work=[621*, 0*]
 95: 0x09C8 [0x27] REQ_SET(priority=0x05, entity_id=Svenja (ID: 17940494/0x0111C00E), tag_num=0x02)
 96: 0x09CF [0x1C] WAIT(180* ticks)
 97: 0x09D2 [0x4E] SET_ENTITY_HIDE_FLAG: Hide Margret (ID: 17940493/0x0111C00D)
 98: 0x09D8 [0x4A] LocalPlayer looks at Svenja (ID: 17940494/0x0111C00E)
 99: 0x09E1 [0x52] END_LOAD_SCHEDULER: End scheduler "s119" with entities [EventEntity, EventEntity], work=621*
100: 0x09F0 [0x45] LOAD_SCHEDULED_TASK: Load scheduler "s120" with entities [EventEntity, EventEntity], work=[621*, 0*]
101: 0x0A01 [0x2A] GET_REQ_LEVEL(level=5, entity_id=Svenja (ID: 17940494/0x0111C00E))
102: 0x0A07 [0x1C] WAIT(90* ticks)
103: 0x0A0A [0x52] END_LOAD_SCHEDULER: End scheduler "s120" with entities [EventEntity, EventEntity], work=621*
104: 0x0A19 [0x45] LOAD_SCHEDULED_TASK: Load scheduler "s121" with entities [EventEntity, EventEntity], work=[621*, 0*]
105: 0x0A2A [0x4A] Svenja (ID: 17940494/0x0111C00E) looks at LocalPlayer
106: 0x0A33 [0x1C] WAIT(30* ticks)
107: 0x0A36 [0x03] Work_Zone[2] = 2343*
108: 0x0A3B [0x2B] Svenja (ID: 17940494/0x0111C00E) [7288*]:
    → "Our previous meeting must not have been mere chance. Have you heard tales of a rare plant called $6?"
109: 0x0A42 [0x23] WAIT_FOR_DIALOG_INTERACTION
110: 0x0A43 [0x52] END_LOAD_SCHEDULER: End scheduler "s121" with entities [EventEntity, EventEntity], work=621*
111: 0x0A52 [0x45] LOAD_SCHEDULED_TASK: Load scheduler "s123" with entities [EventEntity, EventEntity], work=[621*, 0*]
112: 0x0A63 [0x24] CREATE_DIALOG(message_id=7289*, default_option=0*, option_flags=0*)
    → ""$3"...? [Never heard of it./I'm not terribly familiar...]"
113: 0x0A6A [0x25] WAIT_DIALOG_SELECT()
114: 0x0A6B [0x02] IF !(Work_Zone[0] == 0*) GOTO 0x0A9E
115: 0x0A73 [0x52] END_LOAD_SCHEDULER: End scheduler "s123" with entities [EventEntity, EventEntity], work=621*
116: 0x0A82 [0x45] LOAD_SCHEDULED_TASK: Load scheduler "s124" with entities [EventEntity, EventEntity], work=[621*, 0*]
117: 0x0A93 [0x2B] Svenja (ID: 17940494/0x0111C00E) [7290*]:
    → "I expected as much, as even our most treasured tomes make scant mention of its existence. It is an herb of sorts said to have grown in Foret de Hennetiel."
118: 0x0A9A [0x23] WAIT_FOR_DIALOG_INTERACTION
119: 0x0A9B [0x01] GOTO 0x0AD1
120: 0x0A9E [0x02] IF !(Work_Zone[0] == 1*) GOTO 0x0AD1
121: 0x0AA6 [0x52] END_LOAD_SCHEDULER: End scheduler "s123" with entities [EventEntity, EventEntity], work=621*
122: 0x0AB5 [0x45] LOAD_SCHEDULED_TASK: Load scheduler "s124" with entities [EventEntity, EventEntity], work=[621*, 0*]
123: 0x0AC6 [0x2B] Svenja (ID: 17940494/0x0111C00E) [7290*]:
    → "I expected as much, as even our most treasured tomes make scant mention of its existence. It is an herb of sorts said to have grown in Foret de Hennetiel."
124: 0x0ACD [0x23] WAIT_FOR_DIALOG_INTERACTION
125: 0x0ACE [0x01] GOTO 0x0AD1

SUBROUTINE_0AD1:
126: 0x0AD1 [0x5B] LOAD_EXT_SCHEDULER: Load scheduler "non0" with entities [Svenja (ID: 17940494/0x0111C00E), Svenja (ID: 17940494/0x0111C00E)], work=3261*
127: 0x0AE0 [0x2B] Svenja (ID: 17940494/0x0111C00E) [7291*]:
    → "My use of the past tense has likely not escaped your notice. The truth is, since the continent was sealed off centuries ago, our information about Ulbuka's flora has fallen wildly out of date."
128: 0x0AE7 [0x23] WAIT_FOR_DIALOG_INTERACTION
129: 0x0AE8 [0x53] WAIT_SCHEDULER_TASK: Wait for scheduler "non0" with entities [Svenja (ID: 17940494/0x0111C00E), Svenja (ID: 17940494/0x0111C00E)]
130: 0x0AF5 [0x52] END_LOAD_SCHEDULER: End scheduler "s124" with entities [EventEntity, EventEntity], work=621*
131: 0x0B04 [0x45] LOAD_SCHEDULED_TASK: Load scheduler "s125" with entities [EventEntity, EventEntity], work=[621*, 0*]
132: 0x0B15 [0x5B] LOAD_EXT_SCHEDULER: Load scheduler "tlk0" with entities [Svenja (ID: 17940494/0x0111C00E), Svenja (ID: 17940494/0x0111C00E)], work=3261*
133: 0x0B24 [0x2B] Svenja (ID: 17940494/0x0111C00E) [7292*]:
    → "I came to the library this day to find a cure for an illness affecting a young lad here in our fair city...and my research has led me to this plant."
134: 0x0B2B [0x23] WAIT_FOR_DIALOG_INTERACTION
135: 0x0B2C [0x2B] Svenja (ID: 17940494/0x0111C00E) [7293*]:
    → "Grinding a fistful of its roasted leaves and administering the resultant powder as a tonic will cure his ailment...or so this text says."
136: 0x0B33 [0x23] WAIT_FOR_DIALOG_INTERACTION
137: 0x0B34 [0x52] END_LOAD_SCHEDULER: End scheduler "s125" with entities [EventEntity, EventEntity], work=621*
138: 0x0B43 [0x45] LOAD_SCHEDULED_TASK: Load scheduler "s126" with entities [EventEntity, EventEntity], work=[621*, 0*]
139: 0x0B54 [0x2B] Svenja (ID: 17940494/0x0111C00E) [7294*]:
    → "Should you happen to stumble across so much as a seedling in the forest, would you do me the kindness of bringing it to my manor? The author described the leaves as being of a deep green hue, with grooved ridges that let rainwater slide right off."
140: 0x0B5B [0x23] WAIT_FOR_DIALOG_INTERACTION
141: 0x0B5C [0x5B] LOAD_EXT_SCHEDULER: Load scheduler "tlk1" with entities [Svenja (ID: 17940494/0x0111C00E), Svenja (ID: 17940494/0x0111C00E)], work=3261*
142: 0x0B6B [0x2B] Svenja (ID: 17940494/0x0111C00E) [7295*]:
    → "Should you succeed, you know where to find me."
143: 0x0B72 [0x23] WAIT_FOR_DIALOG_INTERACTION
144: 0x0B73 [0x52] END_LOAD_SCHEDULER: End scheduler "s126" with entities [EventEntity, EventEntity], work=621*
145: 0x0B82 [0x45] LOAD_SCHEDULED_TASK: Load scheduler "s127" with entities [EventEntity, EventEntity], work=[621*, 0*]
146: 0x0B93 [0x27] REQ_SET(priority=0x05, entity_id=Svenja (ID: 17940494/0x0111C00E), tag_num=0x03)
147: 0x0B9A [0x1C] WAIT(120* ticks)
148: 0x0B9D [0x45] LOAD_SCHEDULED_TASK: Load scheduler "fdo1" with entities [LocalPlayer, LocalPlayer], work=[200*, 0*]
149: 0x0BAE [0x55] WAIT_LOAD_SCHEDULER: Wait for scheduler "fdo1" with entities [LocalPlayer, LocalPlayer], work=200*
150: 0x0BBD [0x52] END_LOAD_SCHEDULER: End scheduler "s127" with entities [EventEntity, EventEntity], work=621*
151: 0x0BCC [0x46] CAMERA_CONTROL: Restore default settings
152: 0x0BCE [0x45] LOAD_SCHEDULED_TASK: Load scheduler "fdi2" with entities [LocalPlayer, LocalPlayer], work=[200*, 0*]
153: 0x0BDF [0x21] END_EVENT
154: 0x0BE0 [0x00] END_REQSTACK()
```

### Event 38

#### Metadata

| Field        | Value      |
|--------------|------------|
| Entrypoint   | 0x0BE1     |
| Data Size    | 1883 bytes |
| Instructions | 205        |

```
      00 01 02 03 04 05 06 07  08 09 0A 0B 0C 0D 0E 0F
      -- -- -- -- -- -- -- --  -- -- -- -- -- -- -- --
0BE0:    42 45 00 80 F0 FF FF  7F F0 FF FF 7F 66 64 6F   BE..........fdo
0BF0: 31 01 80 55 00 80 F0 FF  FF 7F F0 FF FF 7F 66 64  1..U..........fd
0C00: 6F 31 46 01 38 02 80 2F  00 10 C0 11 01 2F 00 11  o1F.8../...../..
0C10: C0 11 01 4E 00 10 C0 11  01 4E 00 11 C0 11 01 4E  ...N.....N.....N
0C20: 00 F0 FF FF 7F 92 01 10  C0 11 01 92 01 11 C0 11  ................
0C30: 01 94 01 10 C0 11 01 94  01 11 C0 11 01 94 01 F0  ................
0C40: FF FF 7F BA 10 C0 11 01  36 80 37 80 05 80 38 80  ........6.7...8.
0C50: BA 11 C0 11 01 39 80 3A  80 05 80 3B 80 BA F0 FF  .....9.:...;....
0C60: FF 7F 3C 80 3D 80 05 80  3E 80 80 F0 FF FF 7F 80  ..<.=...>.......
0C70: 10 C0 11 01 80 11 C0 11  01 4A 10 C0 11 01 11 C0  .........J......
0C80: 11 01 4A 11 C0 11 01 10  C0 11 01 1C 0E 80 45 3F  ..J...........E?
0C90: 80 F8 FF FF 7F F8 FF FF  7F 73 30 31 34 01 80 1C  .........s014...
0CA0: 12 80 45 00 80 F0 FF FF  7F F0 FF FF 7F 66 64 69  ..E..........fdi
0CB0: 31 01 80 66 0F 80 10 C0  11 01 10 C0 11 01 74 6C  1..f..........tl
0CC0: 6B 30 2B 10 C0 11 01 40  80 23 66 0F 80 10 C0 11  k0+....@.#f.....
0CD0: 01 10 C0 11 01 74 6C 6B  31 52 3F 80 F8 FF FF 7F  .....tlk1R?.....
0CE0: F8 FF FF 7F 73 30 31 34  45 3F 80 F8 FF FF 7F F8  ....s014E?......
0CF0: FF FF 7F 73 30 31 35 01  80 6E 11 C0 11 01 15 80  ...s015..n......
0D00: 99 11 C0 11 01 2B 11 C0  11 01 41 80 23 2B 11 C0  .....+....A.#+..
0D10: 11 01 42 80 23 52 3F 80  F8 FF FF 7F F8 FF FF 7F  ..B.#R?.........
0D20: 73 30 31 35 45 3F 80 F8  FF FF 7F F8 FF FF 7F 73  s015E?.........s
0D30: 30 31 36 01 80 66 0F 80  10 C0 11 01 10 C0 11 01  016..f..........
0D40: 74 6C 6B 30 2B 10 C0 11  01 43 80 23 66 0F 80 10  tlk0+....C.#f...
0D50: C0 11 01 10 C0 11 01 74  6C 6B 31 52 3F 80 F8 FF  .......tlk1R?...
0D60: FF 7F F8 FF FF 7F 73 30  31 36 45 3F 80 F8 FF FF  ......s016E?....
0D70: 7F F8 FF FF 7F 73 30 31  37 01 80 66 44 80 11 C0  .....s017..fD...
0D80: 11 01 11 C0 11 01 74 6C  6B 30 2B 11 C0 11 01 45  ......tlk0+....E
0D90: 80 23 2B 11 C0 11 01 46  80 23 66 44 80 11 C0 11  .#+....F.#fD....
0DA0: 01 11 C0 11 01 74 6C 6B  31 52 3F 80 F8 FF FF 7F  .....tlk1R?.....
0DB0: F8 FF FF 7F 73 30 31 37  45 3F 80 F8 FF FF 7F F8  ....s017E?......
0DC0: FF FF 7F 73 30 31 38 01  80 6E 10 C0 11 01 15 80  ...s018..n......
0DD0: 99 10 C0 11 01 2B 10 C0  11 01 47 80 23 2B 10 C0  .....+....G.#+..
0DE0: 11 01 48 80 23 52 3F 80  F8 FF FF 7F F8 FF FF 7F  ..H.#R?.........
0DF0: 73 30 31 38 45 3F 80 F8  FF FF 7F F8 FF FF 7F 73  s018E?.........s
0E00: 30 31 39 01 80 66 44 80  11 C0 11 01 11 C0 11 01  019..fD.........
0E10: 74 6C 6B 30 2B 11 C0 11  01 49 80 23 66 44 80 11  tlk0+....I.#fD..
0E20: C0 11 01 11 C0 11 01 74  6C 6B 31 66 0F 80 10 C0  .......tlk1f....
0E30: 11 01 10 C0 11 01 74 68  6B 31 2B 10 C0 11 01 4A  ......thk1+....J
0E40: 80 23 52 3F 80 F8 FF FF  7F F8 FF FF 7F 73 30 31  .#R?.........s01
0E50: 39 45 3F 80 F8 FF FF 7F  F8 FF FF 7F 73 30 32 30  9E?.........s020
0E60: 01 80 66 0F 80 10 C0 11  01 10 C0 11 01 74 68 6B  ..f..........thk
0E70: 32 2B 10 C0 11 01 4B 80  23 52 3F 80 F8 FF FF 7F  2+....K.#R?.....
0E80: F8 FF FF 7F 73 30 32 30  45 3F 80 F8 FF FF 7F F8  ....s020E?......
0E90: FF FF 7F 73 30 32 31 01  80 7C 00 11 C0 11 01 2B  ...s021..|.....+
0EA0: 11 C0 11 01 4C 80 23 7C  01 11 C0 11 01 27 05 F0  ....L.#|.....'..
0EB0: FF FF 7F 15 1C 0E 80 52  3F 80 F8 FF FF 7F F8 FF  .......R?.......
0EC0: FF 7F 73 30 32 31 45 3F  80 F8 FF FF 7F F8 FF FF  ..s021E?........
0ED0: 7F 73 30 32 32 01 80 4A  10 C0 11 01 F0 FF FF 7F  .s022..J........
0EE0: 1C 0E 80 66 0F 80 10 C0  11 01 10 C0 11 01 74 6C  ...f..........tl
0EF0: 6B 30 2B 10 C0 11 01 4D  80 23 2B 10 C0 11 01 4E  k0+....M.#+....N
0F00: 80 23 52 3F 80 F8 FF FF  7F F8 FF FF 7F 73 30 32  .#R?.........s02
0F10: 32 45 3F 80 F8 FF FF 7F  F8 FF FF 7F 73 30 32 33  2E?.........s023
0F20: 01 80 2B 10 C0 11 01 4F  80 23 45 00 80 F0 FF FF  ..+....O.#E.....
0F30: 7F F0 FF FF 7F 66 64 6F  31 01 80 55 00 80 F0 FF  .....fdo1..U....
0F40: FF 7F F0 FF FF 7F 66 64  6F 31 52 3F 80 F8 FF FF  ......fdo1R?....
0F50: 7F F8 FF FF 7F 73 30 32  33 6B 69 64 6C 30 10 C0  .....s023kidl0..
0F60: 11 01 2F 00 12 C0 11 01  92 01 12 C0 11 01 94 01  ../.............
0F70: 12 C0 11 01 BA 12 C0 11  01 50 80 51 80 52 80 53  .........P.Q.R.S
0F80: 80 BA 10 C0 11 01 54 80  55 80 52 80 56 80 BA F0  ......T.U.R.V...
0F90: FF FF 7F 57 80 58 80 52  80 59 80 80 F0 FF FF 7F  ...W.X.R.Y......
0FA0: 80 10 C0 11 01 45 3F 80  F8 FF FF 7F F8 FF FF 7F  .....E?.........
0FB0: 73 30 32 34 01 80 1C 12  80 45 00 80 F0 FF FF 7F  s024.....E......
0FC0: F0 FF FF 7F 66 64 69 31  01 80 66 0F 80 10 C0 11  ....fdi1..f.....
0FD0: 01 10 C0 11 01 74 6C 6B  30 2B 10 C0 11 01 5A 80  .....tlk0+....Z.
0FE0: 23 2B 10 C0 11 01 5B 80  23 52 3F 80 F8 FF FF 7F  #+....[.#R?.....
0FF0: F8 FF FF 7F 73 30 32 34  45 3F 80 F8 FF FF 7F F8  ....s024E?......
1000: FF FF 7F 73 30 32 35 01  80 2B 10 C0 11 01 5C 80  ...s025..+....\.
1010: 23 2B 10 C0 11 01 5D 80  23 52 3F 80 F8 FF FF 7F  #+....].#R?.....
1020: F8 FF FF 7F 73 30 32 35  45 3F 80 F8 FF FF 7F F8  ....s025E?......
1030: FF FF 7F 73 30 32 36 01  80 2B 10 C0 11 01 5E 80  ...s026..+....^.
1040: 23 66 0F 80 10 C0 11 01  10 C0 11 01 74 6C 6B 31  #f..........tlk1
1050: 4E 00 12 C0 11 01 27 05  12 C0 11 01 02 1C 0E 80  N.....'.........
1060: 52 3F 80 F8 FF FF 7F F8  FF FF 7F 73 30 32 36 45  R?.........s026E
1070: 3F 80 F8 FF FF 7F F8 FF  FF 7F 73 30 32 37 01 80  ?.........s027..
1080: 2B 12 C0 11 01 5F 80 23  52 3F 80 F8 FF FF 7F F8  +...._.#R?......
1090: FF FF 7F 73 30 32 37 45  3F 80 F8 FF FF 7F F8 FF  ...s027E?.......
10A0: FF 7F 73 30 32 38 01 80  4A 10 C0 11 01 12 C0 11  ..s028..J.......
10B0: 01 1C 0E 80 2B 10 C0 11  01 60 80 23 2A 05 12 C0  ....+....`.#*...
10C0: 11 01 6E 12 C0 11 01 29  80 99 12 C0 11 01 2B 12  ..n....)......+.
10D0: C0 11 01 61 80 23 52 3F  80 F8 FF FF 7F F8 FF FF  ...a.#R?........
10E0: 7F 73 30 32 38 45 3F 80  F8 FF FF 7F F8 FF FF 7F  .s028E?.........
10F0: 73 30 32 39 01 80 66 44  80 12 C0 11 01 12 C0 11  s029..fD........
1100: 01 74 6C 6B 30 2B 12 C0  11 01 62 80 23 2B 12 C0  .tlk0+....b.#+..
1110: 11 01 63 80 23 66 44 80  12 C0 11 01 12 C0 11 01  ..c.#fD.........
1120: 74 6C 6B 31 52 3F 80 F8  FF FF 7F F8 FF FF 7F 73  tlk1R?.........s
1130: 30 32 39 45 3F 80 F8 FF  FF 7F F8 FF FF 7F 73 30  029E?.........s0
1140: 33 30 01 80 66 0F 80 10  C0 11 01 10 C0 11 01 74  30..f..........t
1150: 6C 6B 30 2B 10 C0 11 01  64 80 23 66 0F 80 10 C0  lk0+....d.#f....
1160: 11 01 10 C0 11 01 74 6C  6B 31 52 3F 80 F8 FF FF  ......tlk1R?....
1170: 7F F8 FF FF 7F 73 30 33  30 45 3F 80 F8 FF FF 7F  .....s030E?.....
1180: F8 FF FF 7F 73 30 33 31  01 80 66 44 80 12 C0 11  ....s031..fD....
1190: 01 12 C0 11 01 74 6C 6B  30 2B 12 C0 11 01 65 80  .....tlk0+....e.
11A0: 23 66 44 80 12 C0 11 01  12 C0 11 01 74 6C 6B 31  #fD.........tlk1
11B0: 52 3F 80 F8 FF FF 7F F8  FF FF 7F 73 30 33 31 45  R?.........s031E
11C0: 3F 80 F8 FF FF 7F F8 FF  FF 7F 73 30 33 32 01 80  ?.........s032..
11D0: 4A 10 C0 11 01 F0 FF FF  7F 1C 0E 80 2B 10 C0 11  J...........+...
11E0: 01 66 80 23 45 00 80 F0  FF FF 7F F0 FF FF 7F 66  .f.#E..........f
11F0: 64 6F 31 01 80 55 00 80  F0 FF FF 7F F0 FF FF 7F  do1..U..........
1200: 66 64 6F 31 52 3F 80 F8  FF FF 7F F8 FF FF 7F 73  fdo1R?.........s
1210: 74 65 73 BA 10 C0 11 01  67 80 68 80 05 80 69 80  tes.....g.h...i.
1220: BA F0 FF FF 7F 6A 80 6B  80 05 80 6C 80 80 F0 FF  .....j.k...l....
1230: FF 7F 80 10 C0 11 01 4A  12 C0 11 01 10 C0 11 01  .......J........
1240: 4A 11 C0 11 01 10 C0 11  01 27 05 10 C0 11 01 02  J........'......
1250: 1C 0E 80 27 05 F0 FF FF  7F 16 45 3F 80 F8 FF FF  ...'......E?....
1260: 7F F8 FF FF 7F 73 30 33  33 01 80 1C 12 80 45 00  .....s033.....E.
1270: 80 F0 FF FF 7F F0 FF FF  7F 66 64 69 31 01 80 66  .........fdi1..f
1280: 44 80 12 C0 11 01 12 C0  11 01 74 6C 6B 30 2B 12  D.........tlk0+.
1290: C0 11 01 6D 80 1C 35 80  66 44 80 12 C0 11 01 12  ...m..5.fD......
12A0: C0 11 01 74 6C 6B 31 52  3F 80 F8 FF FF 7F F8 FF  ...tlk1R?.......
12B0: FF 7F 73 30 33 33 45 3F  80 F8 FF FF 7F F8 FF FF  ..s033E?........
12C0: 7F 73 30 33 34 01 80 1C  35 80 52 3F 80 F8 FF FF  .s034...5.R?....
12D0: 7F F8 FF FF 7F 73 30 33  34 45 3F 80 F8 FF FF 7F  .....s034E?.....
12E0: F8 FF FF 7F 73 30 33 35  01 80 7C 00 11 C0 11 01  ....s035..|.....
12F0: 2B 11 C0 11 01 4C 80 23  45 00 80 F0 FF FF 7F F0  +....L.#E.......
1300: FF FF 7F 66 64 6F 31 01  80 55 00 80 F0 FF FF 7F  ...fdo1..U......
1310: F0 FF FF 7F 66 64 6F 31  52 3F 80 F8 FF FF 7F F8  ....fdo1R?......
1320: FF FF 7F 73 30 33 35 46  00 45 00 80 F0 FF FF 7F  ...s035F.E......
1330: F0 FF FF 7F 66 64 69 32  01 80 21 00              ....fdi2..!.    
```

#### Opcodes

```
  0: 0x0BE1 [0x42] SET_CLI_EVENT_CANCEL_DATA()
  1: 0x0BE2 [0x45] LOAD_SCHEDULED_TASK: Load scheduler "fdo1" with entities [LocalPlayer, LocalPlayer], work=[200*, 0*]
  2: 0x0BF3 [0x55] WAIT_LOAD_SCHEDULER: Wait for scheduler "fdo1" with entities [LocalPlayer, LocalPlayer], work=200*
  3: 0x0C02 [0x46] CAMERA_CONTROL: Disable user control
  4: 0x0C04 [0x38] SET_CLIENT_EVENT_MODE(mode=27*)
  5: 0x0C07 [0x2F] Erfimia (ID: 17940496/0x0111C010)->Render.Flags0 &= ~0x80000 // Bit 19
  6: 0x0C0D [0x2F] Robertioux (ID: 17940497/0x0111C011)->Render.Flags0 &= ~0x80000 // Bit 19
  7: 0x0C13 [0x4E] SET_ENTITY_HIDE_FLAG: Show Erfimia (ID: 17940496/0x0111C010)
  8: 0x0C19 [0x4E] SET_ENTITY_HIDE_FLAG: Show Robertioux (ID: 17940497/0x0111C011)
  9: 0x0C1F [0x4E] SET_ENTITY_HIDE_FLAG: Show LocalPlayer
 10: 0x0C25 [0x92] Erfimia (ID: 17940496/0x0111C010)->Render.Flags3 ^= 0x01
 11: 0x0C2B [0x92] Robertioux (ID: 17940497/0x0111C011)->Render.Flags3 ^= 0x01
 12: 0x0C31 [0x94] Erfimia (ID: 17940496/0x0111C010)->Render.Flags3 ^= 0x01
 13: 0x0C37 [0x94] Robertioux (ID: 17940497/0x0111C011)->Render.Flags3 ^= 0x01
 14: 0x0C3D [0x94] LocalPlayer->Render.Flags3 ^= 0x01
 15: 0x0C43 [0xBA] SET_ENTITY_POSITION(entity_id=Erfimia (ID: 17940496/0x0111C010), pos_x=-114.422*, pos_z=-91.558*, pos_y=-2.149*, direction=289.8°*)
 16: 0x0C50 [0xBA] SET_ENTITY_POSITION(entity_id=Robertioux (ID: 17940497/0x0111C011), pos_x=-113.118*, pos_z=-89.237*, pos_y=-2.149*, direction=123.3°*)
 17: 0x0C5D [0xBA] SET_ENTITY_POSITION(entity_id=LocalPlayer, pos_x=-106.504*, pos_z=-94.944*, pos_y=-2.149*, direction=209.5°*)
 18: 0x0C6A [0x80] LOAD_WAIT(entity=LocalPlayer)
 19: 0x0C6F [0x80] LOAD_WAIT(entity=Erfimia (ID: 17940496/0x0111C010))
 20: 0x0C74 [0x80] LOAD_WAIT(entity=Robertioux (ID: 17940497/0x0111C011))
 21: 0x0C79 [0x4A] Erfimia (ID: 17940496/0x0111C010) looks at Robertioux (ID: 17940497/0x0111C011)
 22: 0x0C82 [0x4A] Robertioux (ID: 17940497/0x0111C011) looks at Erfimia (ID: 17940496/0x0111C010)
 23: 0x0C8B [0x1C] WAIT(30* ticks)
 24: 0x0C8E [0x45] LOAD_SCHEDULED_TASK: Load scheduler "s014" with entities [EventEntity, EventEntity], work=[759*, 0*]
 25: 0x0C9F [0x1C] WAIT(15* ticks)
 26: 0x0CA2 [0x45] LOAD_SCHEDULED_TASK: Load scheduler "fdi1" with entities [LocalPlayer, LocalPlayer], work=[200*, 0*]
 27: 0x0CB3 [0x66] LOAD_EXT_SCHEDULER_MAIN: Load scheduler "tlk0" with entities [Erfimia (ID: 17940496/0x0111C010), Erfimia (ID: 17940496/0x0111C010)], work=19*
 28: 0x0CC2 [0x2B] Erfimia (ID: 17940496/0x0111C010) [7302*]:
    → "Congratulations, Robertioux. To be named high exorcist is quite an honor."
 29: 0x0CC9 [0x23] WAIT_FOR_DIALOG_INTERACTION
 30: 0x0CCA [0x66] LOAD_EXT_SCHEDULER_MAIN: Load scheduler "tlk1" with entities [Erfimia (ID: 17940496/0x0111C010), Erfimia (ID: 17940496/0x0111C010)], work=19*
 31: 0x0CD9 [0x52] END_LOAD_SCHEDULER: End scheduler "s014" with entities [EventEntity, EventEntity], work=759*
 32: 0x0CE8 [0x45] LOAD_SCHEDULED_TASK: Load scheduler "s015" with entities [EventEntity, EventEntity], work=[759*, 0*]
 33: 0x0CF9 [0x6E] Robertioux (ID: 17940497/0x0111C011) uses emote 6*
 34: 0x0D00 [0x99] Wait for Robertioux (ID: 17940497/0x0111C011) animation to complete
 35: 0x0D05 [0x2B] Robertioux (ID: 17940497/0x0111C011) [7303*]:
    → "What a farce. An empty title at best now that I no longer possess the eye's power."
 36: 0x0D0C [0x23] WAIT_FOR_DIALOG_INTERACTION
 37: 0x0D0D [0x2B] Robertioux (ID: 17940497/0x0111C011) [7304*]:
    → "Though I have been chosen to join the high exorcists, I will be of little use to the order now."
 38: 0x0D14 [0x23] WAIT_FOR_DIALOG_INTERACTION
 39: 0x0D15 [0x52] END_LOAD_SCHEDULER: End scheduler "s015" with entities [EventEntity, EventEntity], work=759*
 40: 0x0D24 [0x45] LOAD_SCHEDULED_TASK: Load scheduler "s016" with entities [EventEntity, EventEntity], work=[759*, 0*]
 41: 0x0D35 [0x66] LOAD_EXT_SCHEDULER_MAIN: Load scheduler "tlk0" with entities [Erfimia (ID: 17940496/0x0111C010), Erfimia (ID: 17940496/0x0111C010)], work=19*
 42: 0x0D44 [0x2B] Erfimia (ID: 17940496/0x0111C010) [7305*]:
    → "It's a fresh start--a chance to discover your true strength."
 43: 0x0D4B [0x23] WAIT_FOR_DIALOG_INTERACTION
 44: 0x0D4C [0x66] LOAD_EXT_SCHEDULER_MAIN: Load scheduler "tlk1" with entities [Erfimia (ID: 17940496/0x0111C010), Erfimia (ID: 17940496/0x0111C010)], work=19*
 45: 0x0D5B [0x52] END_LOAD_SCHEDULER: End scheduler "s016" with entities [EventEntity, EventEntity], work=759*
 46: 0x0D6A [0x45] LOAD_SCHEDULED_TASK: Load scheduler "s017" with entities [EventEntity, EventEntity], work=[759*, 0*]
 47: 0x0D7B [0x66] LOAD_EXT_SCHEDULER_MAIN: Load scheduler "tlk0" with entities [Robertioux (ID: 17940497/0x0111C011), Robertioux (ID: 17940497/0x0111C011)], work=29*
 48: 0x0D8A [0x2B] Robertioux (ID: 17940497/0x0111C011) [7306*]:
    → "Tell me, Erfimia. What do you stand to gain from keeping the order in the dark?"
 49: 0x0D91 [0x23] WAIT_FOR_DIALOG_INTERACTION
 50: 0x0D92 [0x2B] Robertioux (ID: 17940497/0x0111C011) [7307*]:
    → "Surely revealing the truth would win you friends in high places. Do you not resent the fact that I am to be rewarded for abusing a profane power?"
 51: 0x0D99 [0x23] WAIT_FOR_DIALOG_INTERACTION
 52: 0x0D9A [0x66] LOAD_EXT_SCHEDULER_MAIN: Load scheduler "tlk1" with entities [Robertioux (ID: 17940497/0x0111C011), Robertioux (ID: 17940497/0x0111C011)], work=29*
 53: 0x0DA9 [0x52] END_LOAD_SCHEDULER: End scheduler "s017" with entities [EventEntity, EventEntity], work=759*
 54: 0x0DB8 [0x45] LOAD_SCHEDULED_TASK: Load scheduler "s018" with entities [EventEntity, EventEntity], work=[759*, 0*]
 55: 0x0DC9 [0x6E] Erfimia (ID: 17940496/0x0111C010) uses emote 6*
 56: 0x0DD0 [0x99] Wait for Erfimia (ID: 17940496/0x0111C010) animation to complete
 57: 0x0DD5 [0x2B] Erfimia (ID: 17940496/0x0111C010) [7308*]:
    → "I don't resent you, Robertioux, although I can't condone your actions."
 58: 0x0DDC [0x23] WAIT_FOR_DIALOG_INTERACTION
 59: 0x0DDD [0x2B] Erfimia (ID: 17940496/0x0111C010) [7309*]:
    → "What you've been doing is wrong, even now."
 60: 0x0DE4 [0x23] WAIT_FOR_DIALOG_INTERACTION
 61: 0x0DE5 [0x52] END_LOAD_SCHEDULER: End scheduler "s018" with entities [EventEntity, EventEntity], work=759*
 62: 0x0DF4 [0x45] LOAD_SCHEDULED_TASK: Load scheduler "s019" with entities [EventEntity, EventEntity], work=[759*, 0*]
 63: 0x0E05 [0x66] LOAD_EXT_SCHEDULER_MAIN: Load scheduler "tlk0" with entities [Robertioux (ID: 17940497/0x0111C011), Robertioux (ID: 17940497/0x0111C011)], work=29*
 64: 0x0E14 [0x2B] Robertioux (ID: 17940497/0x0111C011) [7310*]:
    → "Then why have you not spoken out?"
 65: 0x0E1B [0x23] WAIT_FOR_DIALOG_INTERACTION
 66: 0x0E1C [0x66] LOAD_EXT_SCHEDULER_MAIN: Load scheduler "tlk1" with entities [Robertioux (ID: 17940497/0x0111C011), Robertioux (ID: 17940497/0x0111C011)], work=29*
 67: 0x0E2B [0x66] LOAD_EXT_SCHEDULER_MAIN: Load scheduler "thk1" with entities [Erfimia (ID: 17940496/0x0111C010), Erfimia (ID: 17940496/0x0111C010)], work=19*
 68: 0x0E3A [0x2B] Erfimia (ID: 17940496/0x0111C010) [7311*]:
    → "Believe me, I could have, but..."
 69: 0x0E41 [0x23] WAIT_FOR_DIALOG_INTERACTION
 70: 0x0E42 [0x52] END_LOAD_SCHEDULER: End scheduler "s019" with entities [EventEntity, EventEntity], work=759*
 71: 0x0E51 [0x45] LOAD_SCHEDULED_TASK: Load scheduler "s020" with entities [EventEntity, EventEntity], work=[759*, 0*]
 72: 0x0E62 [0x66] LOAD_EXT_SCHEDULER_MAIN: Load scheduler "thk2" with entities [Erfimia (ID: 17940496/0x0111C010), Erfimia (ID: 17940496/0x0111C010)], work=19*
 73: 0x0E71 [0x2B] Erfimia (ID: 17940496/0x0111C010) [7312*]:
    → "In the end, I knew that revealing your secret wouldn't make things right, I guess."
 74: 0x0E78 [0x23] WAIT_FOR_DIALOG_INTERACTION
 75: 0x0E79 [0x52] END_LOAD_SCHEDULER: End scheduler "s020" with entities [EventEntity, EventEntity], work=759*
 76: 0x0E88 [0x45] LOAD_SCHEDULED_TASK: Load scheduler "s021" with entities [EventEntity, EventEntity], work=[759*, 0*]
 77: 0x0E99 [0x7C] Robertioux (ID: 17940497/0x0111C011)->Render.Flags2 |= 0x00
 78: 0x0E9F [0x2B] Robertioux (ID: 17940497/0x0111C011) [7313*]:
    → "..."
 79: 0x0EA6 [0x23] WAIT_FOR_DIALOG_INTERACTION
 80: 0x0EA7 [0x7C] Robertioux (ID: 17940497/0x0111C011)->Render.Flags2 |= 0x01
 81: 0x0EAD [0x27] REQ_SET(priority=0x05, entity_id=LocalPlayer, tag_num=0x15)
 82: 0x0EB4 [0x1C] WAIT(30* ticks)
 83: 0x0EB7 [0x52] END_LOAD_SCHEDULER: End scheduler "s021" with entities [EventEntity, EventEntity], work=759*
 84: 0x0EC6 [0x45] LOAD_SCHEDULED_TASK: Load scheduler "s022" with entities [EventEntity, EventEntity], work=[759*, 0*]
 85: 0x0ED7 [0x4A] Erfimia (ID: 17940496/0x0111C010) looks at LocalPlayer
 86: 0x0EE0 [0x1C] WAIT(30* ticks)
 87: 0x0EE3 [0x66] LOAD_EXT_SCHEDULER_MAIN: Load scheduler "tlk0" with entities [Erfimia (ID: 17940496/0x0111C010), Erfimia (ID: 17940496/0x0111C010)], work=19*
 88: 0x0EF2 [0x2B] Erfimia (ID: 17940496/0x0111C010) [7314*]:
    → "Oh! <Player>, you're here!"
 89: 0x0EF9 [0x23] WAIT_FOR_DIALOG_INTERACTION
 90: 0x0EFA [0x2B] Erfimia (ID: 17940496/0x0111C010) [7315*]:
    → "Good. I have a favor to ask of you."
 91: 0x0F01 [0x23] WAIT_FOR_DIALOG_INTERACTION
 92: 0x0F02 [0x52] END_LOAD_SCHEDULER: End scheduler "s022" with entities [EventEntity, EventEntity], work=759*
 93: 0x0F11 [0x45] LOAD_SCHEDULED_TASK: Load scheduler "s023" with entities [EventEntity, EventEntity], work=[759*, 0*]
 94: 0x0F22 [0x2B] Erfimia (ID: 17940496/0x0111C010) [7316*]:
    → "Over here."
 95: 0x0F29 [0x23] WAIT_FOR_DIALOG_INTERACTION
 96: 0x0F2A [0x45] LOAD_SCHEDULED_TASK: Load scheduler "fdo1" with entities [LocalPlayer, LocalPlayer], work=[200*, 0*]
 97: 0x0F3B [0x55] WAIT_LOAD_SCHEDULER: Wait for scheduler "fdo1" with entities [LocalPlayer, LocalPlayer], work=200*
 98: 0x0F4A [0x52] END_LOAD_SCHEDULER: End scheduler "s023" with entities [EventEntity, EventEntity], work=759*
 99: 0x0F59 [0x6B] STOP_AND_IDLE: Erfimia (ID: 17940496/0x0111C010) stops current action and resets to idle (animation="idl0")
100: 0x0F62 [0x2F] Frondeaubaire (ID: 17940498/0x0111C012)->Render.Flags0 &= ~0x80000 // Bit 19
101: 0x0F68 [0x92] Frondeaubaire (ID: 17940498/0x0111C012)->Render.Flags3 ^= 0x01
102: 0x0F6E [0x94] Frondeaubaire (ID: 17940498/0x0111C012)->Render.Flags3 ^= 0x01
103: 0x0F74 [0xBA] SET_ENTITY_POSITION(entity_id=Frondeaubaire (ID: 17940498/0x0111C012), pos_x=-100.790*, pos_z=-82.848*, pos_y=-8.150*, direction=198.2°*)
104: 0x0F81 [0xBA] SET_ENTITY_POSITION(entity_id=Erfimia (ID: 17940496/0x0111C010), pos_x=-106.958*, pos_z=-81.981*, pos_y=-8.150*, direction=152.0°*)
105: 0x0F8E [0xBA] SET_ENTITY_POSITION(entity_id=LocalPlayer, pos_x=-109.806*, pos_z=-82.670*, pos_y=-8.150*, direction=345.7°*)
106: 0x0F9B [0x80] LOAD_WAIT(entity=LocalPlayer)
107: 0x0FA0 [0x80] LOAD_WAIT(entity=Erfimia (ID: 17940496/0x0111C010))
108: 0x0FA5 [0x45] LOAD_SCHEDULED_TASK: Load scheduler "s024" with entities [EventEntity, EventEntity], work=[759*, 0*]
109: 0x0FB6 [0x1C] WAIT(15* ticks)
110: 0x0FB9 [0x45] LOAD_SCHEDULED_TASK: Load scheduler "fdi1" with entities [LocalPlayer, LocalPlayer], work=[200*, 0*]
111: 0x0FCA [0x66] LOAD_EXT_SCHEDULER_MAIN: Load scheduler "tlk0" with entities [Erfimia (ID: 17940496/0x0111C010), Erfimia (ID: 17940496/0x0111C010)], work=19*
112: 0x0FD9 [0x2B] Erfimia (ID: 17940496/0x0111C010) [7317*]:
    → "Ever since that time in Yorcia Weald, I've been trying to learn more about the Ahriman that gave Robertioux the eye."
113: 0x0FE0 [0x23] WAIT_FOR_DIALOG_INTERACTION
114: 0x0FE1 [0x2B] Erfimia (ID: 17940496/0x0111C010) [7318*]:
    → "Don't you think it's strange? Ahriman aren't native to Ulbuka. How did it even get here? I've spent countless nights here, searching for answers."
115: 0x0FE8 [0x23] WAIT_FOR_DIALOG_INTERACTION
116: 0x0FE9 [0x52] END_LOAD_SCHEDULER: End scheduler "s024" with entities [EventEntity, EventEntity], work=759*
117: 0x0FF8 [0x45] LOAD_SCHEDULED_TASK: Load scheduler "s025" with entities [EventEntity, EventEntity], work=[759*, 0*]
118: 0x1009 [0x2B] Erfimia (ID: 17940496/0x0111C010) [7319*]:
    → "The Scouts' Coalition wasn't any help and it looks like my research hasn't turned up any leads, either. That leaves only one thing to do."
119: 0x1010 [0x23] WAIT_FOR_DIALOG_INTERACTION
120: 0x1011 [0x2B] Erfimia (ID: 17940496/0x0111C010) [7320*]:
    → "I've got to get out there and look for clues myself."
121: 0x1018 [0x23] WAIT_FOR_DIALOG_INTERACTION
122: 0x1019 [0x52] END_LOAD_SCHEDULER: End scheduler "s025" with entities [EventEntity, EventEntity], work=759*
123: 0x1028 [0x45] LOAD_SCHEDULED_TASK: Load scheduler "s026" with entities [EventEntity, EventEntity], work=[759*, 0*]
124: 0x1039 [0x2B] Erfimia (ID: 17940496/0x0111C010) [7321*]:
    → "I say "I," but...well, I was really hoping you could come with me again."
125: 0x1040 [0x23] WAIT_FOR_DIALOG_INTERACTION
126: 0x1041 [0x66] LOAD_EXT_SCHEDULER_MAIN: Load scheduler "tlk1" with entities [Erfimia (ID: 17940496/0x0111C010), Erfimia (ID: 17940496/0x0111C010)], work=19*
127: 0x1050 [0x4E] SET_ENTITY_HIDE_FLAG: Show Frondeaubaire (ID: 17940498/0x0111C012)
128: 0x1056 [0x27] REQ_SET(priority=0x05, entity_id=Frondeaubaire (ID: 17940498/0x0111C012), tag_num=0x02)
129: 0x105D [0x1C] WAIT(30* ticks)
130: 0x1060 [0x52] END_LOAD_SCHEDULER: End scheduler "s026" with entities [EventEntity, EventEntity], work=759*
131: 0x106F [0x45] LOAD_SCHEDULED_TASK: Load scheduler "s027" with entities [EventEntity, EventEntity], work=[759*, 0*]
132: 0x1080 [0x2B] Frondeaubaire (ID: 17940498/0x0111C012) [7322*]:
    → "Ah, Erfimia. I see you have developed quite an appetite for knowledge these past few days."
133: 0x1087 [0x23] WAIT_FOR_DIALOG_INTERACTION
134: 0x1088 [0x52] END_LOAD_SCHEDULER: End scheduler "s027" with entities [EventEntity, EventEntity], work=759*
135: 0x1097 [0x45] LOAD_SCHEDULED_TASK: Load scheduler "s028" with entities [EventEntity, EventEntity], work=[759*, 0*]
136: 0x10A8 [0x4A] Erfimia (ID: 17940496/0x0111C010) looks at Frondeaubaire (ID: 17940498/0x0111C012)
137: 0x10B1 [0x1C] WAIT(30* ticks)
138: 0x10B4 [0x2B] Erfimia (ID: 17940496/0x0111C010) [7323*]:
    → "Exorcist Frondeaubaire. Are you researching something as well?"
139: 0x10BB [0x23] WAIT_FOR_DIALOG_INTERACTION
140: 0x10BC [0x2A] GET_REQ_LEVEL(level=5, entity_id=Frondeaubaire (ID: 17940498/0x0111C012))
141: 0x10C2 [0x6E] Frondeaubaire (ID: 17940498/0x0111C012) uses emote 7*
142: 0x10C9 [0x99] Wait for Frondeaubaire (ID: 17940498/0x0111C012) animation to complete
143: 0x10CE [0x2B] Frondeaubaire (ID: 17940498/0x0111C012) [7324*]:
    → "Indeed."
144: 0x10D5 [0x23] WAIT_FOR_DIALOG_INTERACTION
145: 0x10D6 [0x52] END_LOAD_SCHEDULER: End scheduler "s028" with entities [EventEntity, EventEntity], work=759*
146: 0x10E5 [0x45] LOAD_SCHEDULED_TASK: Load scheduler "s029" with entities [EventEntity, EventEntity], work=[759*, 0*]
147: 0x10F6 [0x66] LOAD_EXT_SCHEDULER_MAIN: Load scheduler "tlk0" with entities [Frondeaubaire (ID: 17940498/0x0111C012), Frondeaubaire (ID: 17940498/0x0111C012)], work=29*
148: 0x1105 [0x2B] Frondeaubaire (ID: 17940498/0x0111C012) [7325*]:
    → "When I was searching for you and Robertioux in the weald, I caught sight of something strange...an Ahriman."
149: 0x110C [0x23] WAIT_FOR_DIALOG_INTERACTION
150: 0x110D [0x2B] Frondeaubaire (ID: 17940498/0x0111C012) [7326*]:
    → "I felt that such an unusual occurrence in Ulbuka necessitated further inquiry."
151: 0x1114 [0x23] WAIT_FOR_DIALOG_INTERACTION
152: 0x1115 [0x66] LOAD_EXT_SCHEDULER_MAIN: Load scheduler "tlk1" with entities [Frondeaubaire (ID: 17940498/0x0111C012), Frondeaubaire (ID: 17940498/0x0111C012)], work=29*
153: 0x1124 [0x52] END_LOAD_SCHEDULER: End scheduler "s029" with entities [EventEntity, EventEntity], work=759*
154: 0x1133 [0x45] LOAD_SCHEDULED_TASK: Load scheduler "s030" with entities [EventEntity, EventEntity], work=[759*, 0*]
155: 0x1144 [0x66] LOAD_EXT_SCHEDULER_MAIN: Load scheduler "tlk0" with entities [Erfimia (ID: 17940496/0x0111C010), Erfimia (ID: 17940496/0x0111C010)], work=19*
156: 0x1153 [0x2B] Erfimia (ID: 17940496/0x0111C010) [7327*]:
    → "An Ahriman? In Yorcia Weald? Where exactly did you see it? Please!"
157: 0x115A [0x23] WAIT_FOR_DIALOG_INTERACTION
158: 0x115B [0x66] LOAD_EXT_SCHEDULER_MAIN: Load scheduler "tlk1" with entities [Erfimia (ID: 17940496/0x0111C010), Erfimia (ID: 17940496/0x0111C010)], work=19*
159: 0x116A [0x52] END_LOAD_SCHEDULER: End scheduler "s030" with entities [EventEntity, EventEntity], work=759*
160: 0x1179 [0x45] LOAD_SCHEDULED_TASK: Load scheduler "s031" with entities [EventEntity, EventEntity], work=[759*, 0*]
161: 0x118A [0x66] LOAD_EXT_SCHEDULER_MAIN: Load scheduler "tlk0" with entities [Frondeaubaire (ID: 17940498/0x0111C012), Frondeaubaire (ID: 17940498/0x0111C012)], work=29*
162: 0x1199 [0x2B] Frondeaubaire (ID: 17940498/0x0111C012) [7328*]:
    → "Hm? Well, I recorded the sighting around I-8 on my map, but wh--"
163: 0x11A0 [0x23] WAIT_FOR_DIALOG_INTERACTION
164: 0x11A1 [0x66] LOAD_EXT_SCHEDULER_MAIN: Load scheduler "tlk1" with entities [Frondeaubaire (ID: 17940498/0x0111C012), Frondeaubaire (ID: 17940498/0x0111C012)], work=29*
165: 0x11B0 [0x52] END_LOAD_SCHEDULER: End scheduler "s031" with entities [EventEntity, EventEntity], work=759*
166: 0x11BF [0x45] LOAD_SCHEDULED_TASK: Load scheduler "s032" with entities [EventEntity, EventEntity], work=[759*, 0*]
167: 0x11D0 [0x4A] Erfimia (ID: 17940496/0x0111C010) looks at LocalPlayer
168: 0x11D9 [0x1C] WAIT(30* ticks)
169: 0x11DC [0x2B] Erfimia (ID: 17940496/0x0111C010) [7329*]:
    → "Come on, <Player>! Let's hope it's still out there!"
170: 0x11E3 [0x23] WAIT_FOR_DIALOG_INTERACTION
171: 0x11E4 [0x45] LOAD_SCHEDULED_TASK: Load scheduler "fdo1" with entities [LocalPlayer, LocalPlayer], work=[200*, 0*]
172: 0x11F5 [0x55] WAIT_LOAD_SCHEDULER: Wait for scheduler "fdo1" with entities [LocalPlayer, LocalPlayer], work=200*
173: 0x1204 [0x52] END_LOAD_SCHEDULER: End scheduler "stes" with entities [EventEntity, EventEntity], work=759*
174: 0x1213 [0xBA] SET_ENTITY_POSITION(entity_id=Erfimia (ID: 17940496/0x0111C010), pos_x=-103.076*, pos_z=-93.146*, pos_y=-2.149*, direction=319.8°*)
175: 0x1220 [0xBA] SET_ENTITY_POSITION(entity_id=LocalPlayer, pos_x=-104.901*, pos_z=-94.952*, pos_y=-2.149*, direction=311.0°*)
176: 0x122D [0x80] LOAD_WAIT(entity=LocalPlayer)
177: 0x1232 [0x80] LOAD_WAIT(entity=Erfimia (ID: 17940496/0x0111C010))
178: 0x1237 [0x4A] Frondeaubaire (ID: 17940498/0x0111C012) looks at Erfimia (ID: 17940496/0x0111C010)
179: 0x1240 [0x4A] Robertioux (ID: 17940497/0x0111C011) looks at Erfimia (ID: 17940496/0x0111C010)
180: 0x1249 [0x27] REQ_SET(priority=0x05, entity_id=Erfimia (ID: 17940496/0x0111C010), tag_num=0x02)
181: 0x1250 [0x1C] WAIT(30* ticks)
182: 0x1253 [0x27] REQ_SET(priority=0x05, entity_id=LocalPlayer, tag_num=0x16)
183: 0x125A [0x45] LOAD_SCHEDULED_TASK: Load scheduler "s033" with entities [EventEntity, EventEntity], work=[759*, 0*]
184: 0x126B [0x1C] WAIT(15* ticks)
185: 0x126E [0x45] LOAD_SCHEDULED_TASK: Load scheduler "fdi1" with entities [LocalPlayer, LocalPlayer], work=[200*, 0*]
186: 0x127F [0x66] LOAD_EXT_SCHEDULER_MAIN: Load scheduler "tlk0" with entities [Frondeaubaire (ID: 17940498/0x0111C012), Frondeaubaire (ID: 17940498/0x0111C012)], work=29*
187: 0x128E [0x2B] Frondeaubaire (ID: 17940498/0x0111C012) [7330*]:
    → "Er...Erfimia?"
188: 0x1295 [0x1C] WAIT(120* ticks)
189: 0x1298 [0x66] LOAD_EXT_SCHEDULER_MAIN: Load scheduler "tlk1" with entities [Frondeaubaire (ID: 17940498/0x0111C012), Frondeaubaire (ID: 17940498/0x0111C012)], work=29*
190: 0x12A7 [0x52] END_LOAD_SCHEDULER: End scheduler "s033" with entities [EventEntity, EventEntity], work=759*
191: 0x12B6 [0x45] LOAD_SCHEDULED_TASK: Load scheduler "s034" with entities [EventEntity, EventEntity], work=[759*, 0*]
192: 0x12C7 [0x1C] WAIT(120* ticks)
193: 0x12CA [0x52] END_LOAD_SCHEDULER: End scheduler "s034" with entities [EventEntity, EventEntity], work=759*
194: 0x12D9 [0x45] LOAD_SCHEDULED_TASK: Load scheduler "s035" with entities [EventEntity, EventEntity], work=[759*, 0*]
195: 0x12EA [0x7C] Robertioux (ID: 17940497/0x0111C011)->Render.Flags2 |= 0x00
196: 0x12F0 [0x2B] Robertioux (ID: 17940497/0x0111C011) [7313*]:
    → "..."
197: 0x12F7 [0x23] WAIT_FOR_DIALOG_INTERACTION
198: 0x12F8 [0x45] LOAD_SCHEDULED_TASK: Load scheduler "fdo1" with entities [LocalPlayer, LocalPlayer], work=[200*, 0*]
199: 0x1309 [0x55] WAIT_LOAD_SCHEDULER: Wait for scheduler "fdo1" with entities [LocalPlayer, LocalPlayer], work=200*
200: 0x1318 [0x52] END_LOAD_SCHEDULER: End scheduler "s035" with entities [EventEntity, EventEntity], work=759*
201: 0x1327 [0x46] CAMERA_CONTROL: Restore default settings
202: 0x1329 [0x45] LOAD_SCHEDULED_TASK: Load scheduler "fdi2" with entities [LocalPlayer, LocalPlayer], work=[200*, 0*]
203: 0x133A [0x21] END_EVENT
204: 0x133B [0x00] END_REQSTACK()
```
