# 17940507 - Trystol

## Common Data

| Field            | Value                               |
|------------------|-------------------------------------|
| Zone             | Celennia Memorial Library (ID: 284) |
| Block Size       | 88 bytes                            |
| Total Events     | 2                                   |
| References Count | 3                                   |

## List of Events

| Event ID              | Entrypoint   |   Size |   Instructions |
|-----------------------|--------------|--------|----------------|
| [65535](#event-65535) | 0x0000       |      1 |              1 |
| [25](#event-25)       | 0x0001       |     49 |             12 |

## DAT References (imed_data)

|   Index | Hex Value   |   Dec Value |
|---------|-------------|-------------|
|       0 | 0x003C      |          60 |
|       1 | 0x1E0F      |        7695 |
|       2 | 0x1E10      |        7696 |

## String References

- **7695**: You know about the "founder king," don't you? Also known as the "first king" and had the name August. Fitting name for a man of his stature.
- **7696**: The Order of Adoulin is actually composed of his descendants, but no one from there wields anywhere near the power that August did when he was king.

## Events

### Event 65535

#### Metadata

| Field        | Value   |
|--------------|---------|
| Entrypoint   | 0x0000  |
| Data Size    | 1 bytes |
| Instructions | 1       |

```
      00 01 02 03 04 05 06 07  08 09 0A 0B 0C 0D 0E 0F
      -- -- -- -- -- -- -- --  -- -- -- -- -- -- -- --
0000: 00                                                .               
```

#### Opcodes

```
  0: 0x0000 [0x00] END_REQSTACK()
```

### Event 25

#### Metadata

| Field        | Value    |
|--------------|----------|
| Entrypoint   | 0x0001   |
| Data Size    | 49 bytes |
| Instructions | 12       |

```
      00 01 02 03 04 05 06 07  08 09 0A 0B 0C 0D 0E 0F
      -- -- -- -- -- -- -- --  -- -- -- -- -- -- -- --
0000:    1E F0 FF FF 7F 6F 70  5B 00 80 F8 FF FF 7F F8   .....op[.......
0010: FF FF 7F 74 6C 6B 30 1D  01 80 23 1D 02 80 23 5B  ...tlk0...#...#[
0020: 00 80 F8 FF FF 7F F8 FF  FF 7F 74 6C 6B 31 20 00  ..........tlk1 .
0030: 21 00                                             !.              
```

#### Opcodes

```
  0: 0x0001 [0x1E] EventEntity looks at LocalPlayer and starts talking
  1: 0x0006 [0x6F] WAIT_FRAME_DELAY: Yield until WaitTime reaches zero
  2: 0x0007 [0x70] WAIT_ENTITY_RENDER_FLAG: Wait while EventEntity->Render.Flags3 bit 2 is set (cancel turn if not)
  3: 0x0008 [0x5B] LOAD_EXT_SCHEDULER: Load scheduler "tlk0" with entities [EventEntity, EventEntity], work=60*
  4: 0x0017 [0x1D] PRINT_EVENT_MESSAGE(message_id=7695*)
    → "You know about the "founder king," don't you? Also known as the "first king" and had the name August. Fitting name for a man of his stature."
  5: 0x001A [0x23] WAIT_FOR_DIALOG_INTERACTION
  6: 0x001B [0x1D] PRINT_EVENT_MESSAGE(message_id=7696*)
    → "The Order of Adoulin is actually composed of his descendants, but no one from there wields anywhere near the power that August did when he was king."
  7: 0x001E [0x23] WAIT_FOR_DIALOG_INTERACTION
  8: 0x001F [0x5B] LOAD_EXT_SCHEDULER: Load scheduler "tlk1" with entities [EventEntity, EventEntity], work=60*
  9: 0x002E [0x20] SET_CLI_EVENT_UC_FLAG: Unlock player control
 10: 0x0030 [0x21] END_EVENT
 11: 0x0031 [0x00] END_REQSTACK()
```
