# 17940509

## Common Data

| Field            | Value                               |
|------------------|-------------------------------------|
| Zone             | Celennia Memorial Library (ID: 284) |
| Block Size       | 24376 bytes                         |
| Total Events     | 8                                   |
| References Count | 588                                 |

## List of Events

| Event ID              | Entrypoint   |   Size |   Instructions |
|-----------------------|--------------|--------|----------------|
| [65535](#event-65535) | 0x0000       |      1 |              1 |
| [1](#event-1)         | 0x0001       |    290 |             41 |
| [2](#event-2)         | 0x0123       |   3690 |            430 |
| [3](#event-3)         | 0x0F8D       |   2257 |            263 |
| [4](#event-4)         | 0x185E       |   3015 |            463 |
| [5](#event-5)         | 0x2425       |  10589 |           1416 |
| [6](#event-6)         | 0x4D82       |    808 |            109 |
| [7](#event-7)         | 0x50AA       |   1326 |            153 |

## DAT References (imed_data)

|   Index | Hex Value   |   Dec Value |
|---------|-------------|-------------|
|       0 | 0x0093      |         147 |
|       1 | 0xFFFE3E6A  |  4294852202 |
|       2 | 0xFFFE9348  |  4294873928 |
|       3 | 0xFFFFF79A  |  4294965146 |
|       4 | 0x04DD      |        1245 |
|       5 | 0x001E      |          30 |
|       6 | 0x026E      |         622 |
|       7 | 0x0000      |           0 |
|       8 | 0x0028      |          40 |
|       9 | 0x1E12      |        7698 |
|      10 | 0x1E13      |        7699 |
|      11 | 0x002D      |          45 |
|      12 | 0x1E14      |        7700 |
|      13 | 0x000F      |          15 |
|      14 | 0x0001      |           1 |
|      15 | 0x00C8      |         200 |
|      16 | 0x0004      |           4 |
|      17 | 0xFFFE40EF  |  4294852847 |
|      18 | 0xFFFE8C7A  |  4294872186 |
|      19 | 0xFFFFF79B  |  4294965147 |
|      20 | 0x07CD      |        1997 |
|      21 | 0xFFFE5C2E  |  4294859822 |
|      22 | 0xFFFE90CA  |  4294873290 |
|      23 | 0x08A7      |        2215 |
|      24 | 0xFFFE5747  |  4294858567 |
|      25 | 0xFFFE7F3E  |  4294868798 |
|      26 | 0x0572      |        1394 |
|      27 | 0xFFFE40E9  |  4294852841 |
|      28 | 0xFFFEA62B  |  4294878763 |
|      29 | 0x0DDE      |        3550 |
|      30 | 0xFFFE4CBC  |  4294855868 |
|      31 | 0xFFFE67A1  |  4294862753 |
|      32 | 0x0639      |        1593 |
|      33 | 0x026F      |         623 |
|      34 | 0x0078      |         120 |
|      35 | 0x0C91      |        3217 |
|      36 | 0x1E16      |        7702 |
|      37 | 0x0002      |           2 |
|      38 | 0x0003      |           3 |
|      39 | 0x0005      |           5 |
|      40 | 0x1E17      |        7703 |
|      41 | 0x0C9E      |        3230 |
|      42 | 0x1E1A      |        7706 |
|      43 | 0x0C90      |        3216 |
|      44 | 0x0C99      |        3225 |
|      45 | 0x1E18      |        7704 |
|      46 | 0x1E19      |        7705 |
|      47 | 0x0CED      |        3309 |
|      48 | 0x1E1B      |        7707 |
|      49 | 0x1E1C      |        7708 |
|      50 | 0x003C      |          60 |
|      51 | 0xFFFE4802  |  4294854658 |
|      52 | 0xFFFE9267  |  4294873703 |
|      53 | 0x001A      |          26 |
|      54 | 0x0027      |          39 |
|      55 | 0x1E1D      |        7709 |
|      56 | 0x1E1E      |        7710 |
|      57 | 0x005A      |          90 |
|      58 | 0xFFFE5CEE  |  4294860014 |
|      59 | 0xFFFE99B1  |  4294875569 |
|      60 | 0x0573      |        1395 |
|      61 | 0x003B      |          59 |
|      62 | 0x1E1F      |        7711 |
|      63 | 0x0CEE      |        3310 |
|      64 | 0x1E20      |        7712 |
|      65 | 0x1E21      |        7713 |
|      66 | 0x0CEF      |        3311 |
|      67 | 0x1E22      |        7714 |
|      68 | 0xFFFE4A26  |  4294855206 |
|      69 | 0xFFFE7E78  |  4294868600 |
|      70 | 0x1E23      |        7715 |
|      71 | 0x0006      |           6 |
|      72 | 0x0008      |           8 |
|      73 | 0x1E24      |        7716 |
|      74 | 0x0050      |          80 |
|      75 | 0x0CEC      |        3308 |
|      76 | 0x1E25      |        7717 |
|      77 | 0x1E26      |        7718 |
|      78 | 0x1E27      |        7719 |
|      79 | 0x1E28      |        7720 |
|      80 | 0x1E29      |        7721 |
|      81 | 0x1E2A      |        7722 |
|      82 | 0x1E2B      |        7723 |
|      83 | 0x0CA1      |        3233 |
|      84 | 0x1E2C      |        7724 |
|      85 | 0x1E2D      |        7725 |
|      86 | 0x1E2E      |        7726 |
|      87 | 0x0CF0      |        3312 |
|      88 | 0x1E2F      |        7727 |
|      89 | 0x00AA      |         170 |
|      90 | 0x1E30      |        7728 |
|      91 | 0x1E31      |        7729 |
|      92 | 0x1E32      |        7730 |
|      93 | 0x1E33      |        7731 |
|      94 | 0x1E34      |        7732 |
|      95 | 0x1E35      |        7733 |
|      96 | 0x1E36      |        7734 |
|      97 | 0x1E37      |        7735 |
|      98 | 0x1E38      |        7736 |
|      99 | 0x1E39      |        7737 |
|     100 | 0x001D      |          29 |
|     101 | 0x1E3A      |        7738 |
|     102 | 0xFFFE6EFE  |  4294864638 |
|     103 | 0xFFFE8D4B  |  4294872395 |
|     104 | 0xFFFF7E83  |  4294934147 |
|     105 | 0x05CB      |        1483 |
|     106 | 0xFFFE654F  |  4294862159 |
|     107 | 0xFFFE89EB  |  4294871531 |
|     108 | 0xFFFF7CF3  |  4294933747 |
|     109 | 0x0E71      |        3697 |
|     110 | 0xFFFE65E6  |  4294862310 |
|     111 | 0xFFFE8DCC  |  4294872524 |
|     112 | 0x0660      |        1632 |
|     113 | 0x0CFA      |        3322 |
|     114 | 0x00D5      |         213 |
|     115 | 0x1E3B      |        7739 |
|     116 | 0x0CF7      |        3319 |
|     117 | 0x1E3C      |        7740 |
|     118 | 0x096A      |        2410 |
|     119 | 0x1E3D      |        7741 |
|     120 | 0x0C9F      |        3231 |
|     121 | 0x1E3E      |        7742 |
|     122 | 0x1E3F      |        7743 |
|     123 | 0x1E40      |        7744 |
|     124 | 0x1E41      |        7745 |
|     125 | 0x1E42      |        7746 |
|     126 | 0x1E43      |        7747 |
|     127 | 0xFFFE541C  |  4294857756 |
|     128 | 0xFFFEB511  |  4294882577 |
|     129 | 0xFFFE8FAC  |  4294873004 |
|     130 | 0xFFFEB703  |  4294883075 |
|     131 | 0xFFFFF5A7  |  4294964647 |
|     132 | 0x0612      |        1554 |
|     133 | 0xFFFE7982  |  4294867330 |
|     134 | 0xFFFEA02F  |  4294877231 |
|     135 | 0x0E0C      |        3596 |
|     136 | 0xFFFE5566  |  4294858086 |
|     137 | 0xFFFEAF07  |  4294881031 |
|     138 | 0xFFFFE02B  |  4294959147 |
|     139 | 0x0B0A      |        2826 |
|     140 | 0x0CF2      |        3314 |
|     141 | 0x0CFC      |        3324 |
|     142 | 0x006E      |         110 |
|     143 | 0x000A      |          10 |
|     144 | 0x1E44      |        7748 |
|     145 | 0x0B53      |        2899 |
|     146 | 0x1E45      |        7749 |
|     147 | 0x1E46      |        7750 |
|     148 | 0x1E47      |        7751 |
|     149 | 0xFFFE605D  |  4294860893 |
|     150 | 0xFFFEB50A  |  4294882570 |
|     151 | 0x0885      |        2181 |
|     152 | 0x0096      |         150 |
|     153 | 0x00D2      |         210 |
|     154 | 0x1E48      |        7752 |
|     155 | 0x1E49      |        7753 |
|     156 | 0x1E4A      |        7754 |
|     157 | 0x1E4B      |        7755 |
|     158 | 0x1E4C      |        7756 |
|     159 | 0x1E4D      |        7757 |
|     160 | 0x0007      |           7 |
|     161 | 0x0CF3      |        3315 |
|     162 | 0x1E4E      |        7758 |
|     163 | 0x1E4F      |        7759 |
|     164 | 0x1E50      |        7760 |
|     165 | 0x1E51      |        7761 |
|     166 | 0x012C      |         300 |
|     167 | 0x1E52      |        7762 |
|     168 | 0x1E53      |        7763 |
|     169 | 0x1E54      |        7764 |
|     170 | 0x1E55      |        7765 |
|     171 | 0x1E56      |        7766 |
|     172 | 0x1E57      |        7767 |
|     173 | 0x1E58      |        7768 |
|     174 | 0xFFFE870B  |  4294870795 |
|     175 | 0xFFFEA03F  |  4294877247 |
|     176 | 0x1E59      |        7769 |
|     177 | 0x1E5A      |        7770 |
|     178 | 0x1E5B      |        7771 |
|     179 | 0xFFFE3E78  |  4294852216 |
|     180 | 0xFFFE9F9E  |  4294877086 |
|     181 | 0x0881      |        2177 |
|     182 | 0xFFFE5356  |  4294857558 |
|     183 | 0xFFFE90FA  |  4294873338 |
|     184 | 0x08F6      |        2294 |
|     185 | 0x00AD      |         173 |
|     186 | 0x0044      |          68 |
|     187 | 0x1E5C      |        7772 |
|     188 | 0x0CFB      |        3323 |
|     189 | 0x1E5D      |        7773 |
|     190 | 0x1E5E      |        7774 |
|     191 | 0x1C60      |        7264 |
|     192 | 0xFFFFFF8F  |  4294967183 |
|     193 | 0x1AA68     |      109160 |
|     194 | 0x2760      |       10080 |
|     195 | 0x07D0      |        2000 |
|     196 | 0xFFFF7932  |  4294932786 |
|     197 | 0x1E5F      |        7775 |
|     198 | 0x1E60      |        7776 |
|     199 | 0x67B6      |       26550 |
|     200 | 0xFFFFF95C  |  4294965596 |
|     201 | 0x0514      |        1300 |
|     202 | 0x03E8      |        1000 |
|     203 | 0x1E61      |        7777 |
|     204 | 0x1E62      |        7778 |
|     205 | 0x1E63      |        7779 |
|     206 | 0xFFFFFF8E  |  4294967182 |
|     207 | 0xFFFEF264  |  4294898276 |
|     208 | 0x56FE      |       22270 |
|     209 | 0xFFFE3F2C  |  4294852396 |
|     210 | 0x1E64      |        7780 |
|     211 | 0x1E65      |        7781 |
|     212 | 0x1E66      |        7782 |
|     213 | 0x1BEE      |        7150 |
|     214 | 0xFFFF0EFC  |  4294905596 |
|     215 | 0x0758      |        1880 |
|     216 | 0x1E3A2     |      123810 |
|     217 | 0x08C0      |        2240 |
|     218 | 0x1E67      |        7783 |
|     219 | 0x1E68      |        7784 |
|     220 | 0x1E69      |        7785 |
|     221 | 0x1E6A      |        7786 |
|     222 | 0x1E6B      |        7787 |
|     223 | 0x1E6C      |        7788 |
|     224 | 0x1E6D      |        7789 |
|     225 | 0x1E6E      |        7790 |
|     226 | 0x1E6F      |        7791 |
|     227 | 0x1E70      |        7792 |
|     228 | 0xFFFFFF8D  |  4294967181 |
|     229 | 0xFFFE9F12  |  4294876946 |
|     230 | 0x1E0AA     |      123050 |
|     231 | 0x06EA      |        1770 |
|     232 | 0xFFFF9B10  |  4294941456 |
|     233 | 0xED44      |       60740 |
|     234 | 0x055A      |        1370 |
|     235 | 0x1E71      |        7793 |
|     236 | 0x1E72      |        7794 |
|     237 | 0x1E73      |        7795 |
|     238 | 0xFFFD88C0  |  4294805696 |
|     239 | 0x09D8      |        2520 |
|     240 | 0x09C4      |        2500 |
|     241 | 0xFFFF60B4  |  4294926516 |
|     242 | 0x0258      |         600 |
|     243 | 0x1E74      |        7796 |
|     244 | 0xFFFFCE5A  |  4294954586 |
|     245 | 0xA334      |       41780 |
|     246 | 0x04D8      |        1240 |
|     247 | 0x01F4      |         500 |
|     248 | 0x1E75      |        7797 |
|     249 | 0xFFFFFF8C  |  4294967180 |
|     250 | 0xFFFF619A  |  4294926746 |
|     251 | 0x21BB0     |      138160 |
|     252 | 0xFFFE23E8  |  4294845416 |
|     253 | 0x1E76      |        7798 |
|     254 | 0xFFFF7A90  |  4294933136 |
|     255 | 0x11D32     |       73010 |
|     256 | 0x05DC      |        1500 |
|     257 | 0xFFFF85C6  |  4294936006 |
|     258 | 0x1E77      |        7799 |
|     259 | 0x1E78      |        7800 |
|     260 | 0x1E79      |        7801 |
|     261 | 0x422C      |       16940 |
|     262 | 0x044C      |        1100 |
|     263 | 0x1E7A      |        7802 |
|     264 | 0xFFFE3F77  |  4294852471 |
|     265 | 0xFFFE924B  |  4294873675 |
|     266 | 0x0C4E      |        3150 |
|     267 | 0xFFFE412A  |  4294852906 |
|     268 | 0xFFFE9BC9  |  4294876105 |
|     269 | 0x003F      |          63 |
|     270 | 0x1E7B      |        7803 |
|     271 | 0x1E7C      |        7804 |
|     272 | 0x1E7D      |        7805 |
|     273 | 0x1E7E      |        7806 |
|     274 | 0x0CC5      |        3269 |
|     275 | 0x1E7F      |        7807 |
|     276 | 0x0CC4      |        3268 |
|     277 | 0x1E80      |        7808 |
|     278 | 0x1E81      |        7809 |
|     279 | 0x1E82      |        7810 |
|     280 | 0x0CC3      |        3267 |
|     281 | 0x1E83      |        7811 |
|     282 | 0x0CC8      |        3272 |
|     283 | 0x1E84      |        7812 |
|     284 | 0x1E85      |        7813 |
|     285 | 0x1E86      |        7814 |
|     286 | 0x1E87      |        7815 |
|     287 | 0x1E88      |        7816 |
|     288 | 0x1E89      |        7817 |
|     289 | 0x1E8A      |        7818 |
|     290 | 0x0498      |        1176 |
|     291 | 0xFFFE8C07  |  4294872071 |
|     292 | 0xFFFEB906  |  4294883590 |
|     293 | 0x0591      |        1425 |
|     294 | 0xFFFE91DD  |  4294873565 |
|     295 | 0xFFFEB444  |  4294882372 |
|     296 | 0x05D1      |        1489 |
|     297 | 0xFFFE7493  |  4294866067 |
|     298 | 0xFFFE9B3A  |  4294875962 |
|     299 | 0x0DEB      |        3563 |
|     300 | 0xFFFE5038  |  4294856760 |
|     301 | 0xFFFEB179  |  4294881657 |
|     302 | 0x0C18      |        3096 |
|     303 | 0x0292      |         658 |
|     304 | 0x1F1C      |        7964 |
|     305 | 0x1F1D      |        7965 |
|     306 | 0x1F1E      |        7966 |
|     307 | 0x0C93      |        3219 |
|     308 | 0x1F1F      |        7967 |
|     309 | 0x1F20      |        7968 |
|     310 | 0x0013      |          19 |
|     311 | 0x1F21      |        7969 |
|     312 | 0x1F22      |        7970 |
|     313 | 0x1F23      |        7971 |
|     314 | 0x055D      |        1373 |
|     315 | 0x1F24      |        7972 |
|     316 | 0x0031      |          49 |
|     317 | 0x1F25      |        7973 |
|     318 | 0x1F26      |        7974 |
|     319 | 0x1F27      |        7975 |
|     320 | 0x1F28      |        7976 |
|     321 | 0x1F29      |        7977 |
|     322 | 0x1F2A      |        7978 |
|     323 | 0x0016      |          22 |
|     324 | 0x1F2B      |        7979 |
|     325 | 0x1F2C      |        7980 |
|     326 | 0x1F2D      |        7981 |
|     327 | 0xFFFE7CD1  |  4294868177 |
|     328 | 0xFFFEA1F1  |  4294877681 |
|     329 | 0x0EA6      |        3750 |
|     330 | 0x0040      |          64 |
|     331 | 0x1F2E      |        7982 |
|     332 | 0x1F2F      |        7983 |
|     333 | 0x1F30      |        7984 |
|     334 | 0x1F31      |        7985 |
|     335 | 0x1F32      |        7986 |
|     336 | 0x1F33      |        7987 |
|     337 | 0x1F34      |        7988 |
|     338 | 0x1F35      |        7989 |
|     339 | 0x1F36      |        7990 |
|     340 | 0x1F3A      |        7994 |
|     341 | 0x0D84      |        3460 |
|     342 | 0x0D60      |        3424 |
|     343 | 0x0D85      |        3461 |
|     344 | 0x0104      |         260 |
|     345 | 0x1F3C      |        7996 |
|     346 | 0x1F3D      |        7997 |
|     347 | 0x1F3E      |        7998 |
|     348 | 0x1F3F      |        7999 |
|     349 | 0xFFFFFF9C  |  4294967196 |
|     350 | 0x2C6A      |       11370 |
|     351 | 0x0492      |        1170 |
|     352 | 0x1F40      |        8000 |
|     353 | 0x1F41      |        8001 |
|     354 | 0x00F0      |         240 |
|     355 | 0x1F42      |        8002 |
|     356 | 0x1F43      |        8003 |
|     357 | 0x1F44      |        8004 |
|     358 | 0x1F45      |        8005 |
|     359 | 0x1F46      |        8006 |
|     360 | 0xFFFFFF85  |  4294967173 |
|     361 | 0xFFFED7A2  |  4294891426 |
|     362 | 0xFFFF3FF8  |  4294918136 |
|     363 | 0x067C      |        1660 |
|     364 | 0xFFFEF2DC  |  4294898396 |
|     365 | 0x1F47      |        8007 |
|     366 | 0x092E      |        2350 |
|     367 | 0x042E      |        1070 |
|     368 | 0x00B4      |         180 |
|     369 | 0x1F48      |        8008 |
|     370 | 0x1F49      |        8009 |
|     371 | 0x1F4A      |        8010 |
|     372 | 0x1F4B      |        8011 |
|     373 | 0x1F4C      |        8012 |
|     374 | 0x1F4D      |        8013 |
|     375 | 0x1F4E      |        8014 |
|     376 | 0x1F4F      |        8015 |
|     377 | 0x1F50      |        8016 |
|     378 | 0x1F51      |        8017 |
|     379 | 0x1F52      |        8018 |
|     380 | 0x1F53      |        8019 |
|     381 | 0x1F54      |        8020 |
|     382 | 0x1F55      |        8021 |
|     383 | 0x0D86      |        3462 |
|     384 | 0x1F56      |        8022 |
|     385 | 0x1F57      |        8023 |
|     386 | 0x5140      |       20800 |
|     387 | 0x116C      |        4460 |
|     388 | 0x04A6      |        1190 |
|     389 | 0x1F58      |        8024 |
|     390 | 0x1F59      |        8025 |
|     391 | 0xFFFFFF90  |  4294967184 |
|     392 | 0xFFFFAE84  |  4294946436 |
|     393 | 0x12200     |       74240 |
|     394 | 0x05AA      |        1450 |
|     395 | 0x127BE     |       75710 |
|     396 | 0x1F5A      |        8026 |
|     397 | 0x1F5B      |        8027 |
|     398 | 0x1F5C      |        8028 |
|     399 | 0xFFFFFF84  |  4294967172 |
|     400 | 0x32D2      |       13010 |
|     401 | 0x0532      |        1330 |
|     402 | 0x1F5D      |        8029 |
|     403 | 0x1F5E      |        8030 |
|     404 | 0xFFFFFF83  |  4294967171 |
|     405 | 0x8FFC      |       36860 |
|     406 | 0x1C66      |        7270 |
|     407 | 0x04BA      |        1210 |
|     408 | 0xFFFF84A4  |  4294935716 |
|     409 | 0x1F5F      |        8031 |
|     410 | 0xFFFE8C06  |  4294872070 |
|     411 | 0xFFFE9DEF  |  4294876655 |
|     412 | 0xFFFD8A3E  |  4294806078 |
|     413 | 0x095B      |        2395 |
|     414 | 0x0D61      |        3425 |
|     415 | 0x0D1A      |        3354 |
|     416 | 0x0D66      |        3430 |
|     417 | 0x0D67      |        3431 |
|     418 | 0x0140      |         320 |
|     419 | 0x007F      |         127 |
|     420 | 0xFFFE4EA2  |  4294856354 |
|     421 | 0xFFFE914B  |  4294873419 |
|     422 | 0x033F      |         831 |
|     423 | 0xFFFE4BE5  |  4294855653 |
|     424 | 0xFFFE8DD8  |  4294872536 |
|     425 | 0x0DEC      |        3564 |
|     426 | 0x00DC      |         220 |
|     427 | 0x1F60      |        8032 |
|     428 | 0x1F61      |        8033 |
|     429 | 0x1F62      |        8034 |
|     430 | 0x1F63      |        8035 |
|     431 | 0x1F64      |        8036 |
|     432 | 0x1F65      |        8037 |
|     433 | 0x01A4      |         420 |
|     434 | 0x1F66      |        8038 |
|     435 | 0x1F67      |        8039 |
|     436 | 0x1F68      |        8040 |
|     437 | 0x1F69      |        8041 |
|     438 | 0x1F6A      |        8042 |
|     439 | 0x1F6B      |        8043 |
|     440 | 0x1F6C      |        8044 |
|     441 | 0x1F6D      |        8045 |
|     442 | 0x1F6E      |        8046 |
|     443 | 0x1F6F      |        8047 |
|     444 | 0x1F70      |        8048 |
|     445 | 0x1F71      |        8049 |
|     446 | 0x1F37      |        7991 |
|     447 | 0x1F38      |        7992 |
|     448 | 0x1F39      |        7993 |
|     449 | 0xFFFE7629  |  4294866473 |
|     450 | 0xFFFE9D17  |  4294876439 |
|     451 | 0x05E2      |        1506 |
|     452 | 0xFFFE6D25  |  4294864165 |
|     453 | 0xFFFE91CA  |  4294873546 |
|     454 | 0x072C      |        1836 |
|     455 | 0xFFFE63D6  |  4294861782 |
|     456 | 0xFFFE972F  |  4294874927 |
|     457 | 0x0162      |         354 |
|     458 | 0xFFFE6447  |  4294861895 |
|     459 | 0xFFFE9103  |  4294873347 |
|     460 | 0x0EB4      |        3764 |
|     461 | 0x0D16      |        3350 |
|     462 | 0x0122      |         290 |
|     463 | 0x1F72      |        8050 |
|     464 | 0x1F73      |        8051 |
|     465 | 0x1F74      |        8052 |
|     466 | 0x1F75      |        8053 |
|     467 | 0x1F76      |        8054 |
|     468 | 0x1F77      |        8055 |
|     469 | 0x1F78      |        8056 |
|     470 | 0x1F79      |        8057 |
|     471 | 0x1F7A      |        8058 |
|     472 | 0x1F7B      |        8059 |
|     473 | 0x1F7C      |        8060 |
|     474 | 0x1F7D      |        8061 |
|     475 | 0x1F7E      |        8062 |
|     476 | 0x1F7F      |        8063 |
|     477 | 0xFFFE460B  |  4294854155 |
|     478 | 0xFFFE89C2  |  4294871490 |
|     479 | 0x0F33      |        3891 |
|     480 | 0xFFFFF4B7  |  4294964407 |
|     481 | 0x0049      |          73 |
|     482 | 0x1F80      |        8064 |
|     483 | 0x1F81      |        8065 |
|     484 | 0x1F82      |        8066 |
|     485 | 0x1F83      |        8067 |
|     486 | 0x1F84      |        8068 |
|     487 | 0x1F85      |        8069 |
|     488 | 0x1F86      |        8070 |
|     489 | 0x1F87      |        8071 |
|     490 | 0x1F88      |        8072 |
|     491 | 0x1F89      |        8073 |
|     492 | 0x1F8A      |        8074 |
|     493 | 0x1F8B      |        8075 |
|     494 | 0xFFFFFF82  |  4294967170 |
|     495 | 0x2112E     |      135470 |
|     496 | 0x07B2      |        1970 |
|     497 | 0x179A8     |       96680 |
|     498 | 0x1F8C      |        8076 |
|     499 | 0x9196      |       37270 |
|     500 | 0x0460      |        1120 |
|     501 | 0xFFFFE502  |  4294960386 |
|     502 | 0x1F8D      |        8077 |
|     503 | 0x1F8E      |        8078 |
|     504 | 0xFFFFFF81  |  4294967169 |
|     505 | 0x920E      |       37390 |
|     506 | 0xFFFF9890  |  4294940816 |
|     507 | 0x1F8F      |        8079 |
|     508 | 0x1F90      |        8080 |
|     509 | 0x1F91      |        8081 |
|     510 | 0x1F92      |        8082 |
|     511 | 0x0D87      |        3463 |
|     512 | 0x014A      |         330 |
|     513 | 0x1F93      |        8083 |
|     514 | 0x1F94      |        8084 |
|     515 | 0x1F95      |        8085 |
|     516 | 0x1F96      |        8086 |
|     517 | 0xFFFFB564  |  4294948196 |
|     518 | 0xFFFF1E92  |  4294909586 |
|     519 | 0x04EC      |        1260 |
|     520 | 0x2012      |        8210 |
|     521 | 0x1F97      |        8087 |
|     522 | 0x1F98      |        8088 |
|     523 | 0x1F99      |        8089 |
|     524 | 0x1F9A      |        8090 |
|     525 | 0x1F9B      |        8091 |
|     526 | 0x1F9C      |        8092 |
|     527 | 0x1F9D      |        8093 |
|     528 | 0x1F9E      |        8094 |
|     529 | 0x1F9F      |        8095 |
|     530 | 0x1FA0      |        8096 |
|     531 | 0x1FA1      |        8097 |
|     532 | 0x1FA2      |        8098 |
|     533 | 0x1FA3      |        8099 |
|     534 | 0x1FA4      |        8100 |
|     535 | 0x1FA5      |        8101 |
|     536 | 0x1FA6      |        8102 |
|     537 | 0x1FA7      |        8103 |
|     538 | 0x1FA8      |        8104 |
|     539 | 0x1FA9      |        8105 |
|     540 | 0x1FAA      |        8106 |
|     541 | 0x1FAB      |        8107 |
|     542 | 0x1FAC      |        8108 |
|     543 | 0x1FAD      |        8109 |
|     544 | 0x1FAE      |        8110 |
|     545 | 0x1F3B      |        7995 |
|     546 | 0xFFFE878B  |  4294870923 |
|     547 | 0xFFFEA9BC  |  4294879676 |
|     548 | 0x0291      |         657 |
|     549 | 0xFFFE832D  |  4294869805 |
|     550 | 0xFFFEAD7D  |  4294880637 |
|     551 | 0x06D9      |        1753 |
|     552 | 0x0014      |          20 |
|     553 | 0x008C      |         140 |
|     554 | 0x0064      |         100 |
|     555 | 0x0134      |         308 |
|     556 | 0x0278      |         632 |
|     557 | 0x1FAF      |        8111 |
|     558 | 0x1FB0      |        8112 |
|     559 | 0x1FB1      |        8113 |
|     560 | 0x1FB2      |        8114 |
|     561 | 0x1FB3      |        8115 |
|     562 | 0x1FB4      |        8116 |
|     563 | 0x1FB5      |        8117 |
|     564 | 0x1FB6      |        8118 |
|     565 | 0x1FB7      |        8119 |
|     566 | 0x1FB8      |        8120 |
|     567 | 0x000C      |          12 |
|     568 | 0x1FB9      |        8121 |
|     569 | 0xFFFE8F00  |  4294872832 |
|     570 | 0xFFFE97E1  |  4294875105 |
|     571 | 0xFFFFF770  |  4294965104 |
|     572 | 0x0FAA      |        4010 |
|     573 | 0x022A      |         554 |
|     574 | 0x1FBA      |        8122 |
|     575 | 0x1FBB      |        8123 |
|     576 | 0x1FBC      |        8124 |
|     577 | 0x1FBD      |        8125 |
|     578 | 0x1FBE      |        8126 |
|     579 | 0x1FBF      |        8127 |
|     580 | 0xFFFE8442  |  4294870082 |
|     581 | 0xFFFEA436  |  4294878262 |
|     582 | 0x01F5      |         501 |
|     583 | 0x1FC0      |        8128 |
|     584 | 0x1FC1      |        8129 |
|     585 | 0x1FC2      |        8130 |
|     586 | 0x00C9      |         201 |
|     587 | 0x00D7      |         215 |

## String References

- **7264**: @@
- **7703**: What will you ask? [What's bothering you?/What kind of sweets do you like?/What kind of guys are you into?]
- **7716**: Why did you broach this topic? [Because I wanted to cheer you up.]
- **7759**: Any questions? [You're researching what, exactly?/I thought you were reading some book.]
- **7760**: I couldn't tell what because... [...you're not actually reading anything.]
- **7772**: Take a look at which book? [Heroes and Legends of Adoulin./Treasures of the Royal Family./His Majesty and the Golden Beast.]
- **7773**: You carefully remove "Heroes and Legends of Adoulin" from the shelf. Its red leather cover is emblazoned with the seal of the Order of Adoulin.
- **7774**: The first chapter, floridly titled "White Wings of the Swallow, Bring Glory Unto Our House!" contains a vivid description of the founder king's exploits in Ulbuka, as well as a variety of minutiae about royal retainers.
- **7775**: "...And so it came to be that the Founder King--may His glory blossom eternal--advanced onto the continent with eleven of his most trusted retainers.
- **7776**: "In one fell swoop He severed the heads of a hundred beasts, and the very trees parted before his noble visage, their limbs genuflecting as he passed ever further into the jungle.
- **7777**: "But the innermost reaches refused to yield to even one so steadfast of will and righteous of spirit as His Majesty.
- **7778**: "If He could not breach the veil, then what hope did His eleven retainers have?
- **7779**: "One by one they fell to demons with teeth as long as greatswords and claws as sharp as daggers, or brambled vines whose choking grasps injected poison into the retinue's writhing flesh.
- **7780**: "Only one remained resolute in the face of impending doom--the unwavering Morimar of the Order of Shneddick, whose axe cleaved foe after foe in twain in the name of our King.
- **7781**: "And then the continent began to turn on them.
- **7782**: "What happened to them that day was lost to the ages. Yet the Founder King surely stared into the cold gaze of death as He lay beneath the shrouded canopy.
- **7783**: "As the darkness clouded His eyes, He feebly rose His right hand, presented Morimar with His blade and a tiny keepsake, and with His last breath murmured, 'Never again shall man set foot into the wilds of Ulbuka.' Morimar solemnly accepted these gifts as the Founder King bid him return to Adoulin in his stead.
- **7784**: "Morimar hurried back to this city, spreading the Founder King's dying words to all. His duty fulfilled, he marched back into the wilds, never to be heard from again."
- **7785**: You carefully remove "Treasures of the Royal Family" from the shelf. Its spine has gone soft, and a musty smell wafts from its blue cover.
- **7786**: Depictions of various jewels, paintings, earthenware, and more adorn the tome's faded yellow pages.
- **7787**: "Ortharsyne" "This blade--specifically, a poniard--was wielded by the late founder king from the age of six until his untimely demise in the wilds of Ulbuka.
- **7788**: "Since then, each of Adoulin's kings have kept the blade at their side, not just as a ceremonial object, but also as a solemn reminder of the founder king's dying words.
- **7789**: "In more recent history, the dissolution of the monarchy means that no one man has ruling authority over the city, yet each grand chancellor has continued to uphold this most ancient of customs.
- **7790**: "Owing in large part to the circumstances of the legendary poniard returning to Adoulin after the founder king's fall, rumors abound that the blade holds a latent potential within it--yet none have seen it do anything more than hang at its owner's waist."
- **7791**: You carefully remove "His Majesty and the Golden Beast" from the shelves. This black volume is covered in a thin layer of dust.
- **7792**: A colorful illustration meant for a younger audience depicts a three-yalm-tall beast of unknown species rearing up on its hind legs to confront a battle-ready founder king.
- **7793**: "...And the biggest monster Adoulin ever did see rose up and bared its teeth at the king.
- **7794**: "How big was it? Why, it made even the biggest mountain look like the tiniest vermin nest. The founder king's head nearly fell from his shoulders straining to look up at its face!
- **7795**: "Its fur sparkled in the light of the bright sun above.
- **7796**: "The beast gave out a mighty roar! Graaaaaah! "Its claws were bigger and sharper than even the king's sword!
- **7797**: "'Leave this to me!' the king bellowed as he shielded his friends. And so he fought the beast all by himself.
- **7798**: "They fought for seven days and seven nights, until the beast finally apologized for making the king mad.
- **7799**: "'Who are you?' the king asked. 'My name's Terrcualn,' the beast replied.
- **7800**: "'So, Terrcualn...' 'What is it?'
- **7801**: "'You lost, which means you must obey me.' 'Of course, Master.'
- **7802**: "And that's how the big, scary beast came to travel with the king deep into the jungle."
- **7978**: Anything to say? [A "concealed work"?/What does that even mean?]
- **7990**: What topic should she look for? [The founder king's retinue./The founder king's battle./The founder king's death./The founder king's favorite sweets.]
- **7997**: "The founder king, August Adoulin, was a charismatic personage who incited a number of valiant individuals to join his cause.
- **7998**: "This feat might have proved difficult for lesser men, but for King August, it was child's play. His character was unimpeachable, and his gallantry nonpareil. Even those whom he defeated in combat would utter his praises before exhaling their final breath.
- **7999**: "Employing this uncanny charisma, he was able to subjugate the ferocious beasts that prowled the Adoulin Islands, unify the warlords of the various outlying islets, and establish himself as their leader.
- **8000**: "These former warlords numbered eleven strong, and they formed what would eventually be known as eleven of the Twelve Orders, excepting only the king's house.
- **8001**: "With the support of his eleven vassals, he turned his focus inward to the Ulbukan mainland and trod upon its primordial plains in hopes of taming them.
- **8002**: "Pressing ever further into the maze of vegetation, they stumbled upon a swath of woodland now known as Yorcia Weald, wherein they encountered a tiger that loomed larger than the most expansive manse of the day and whose pelt was a radiant gold that would catch the sun's rays just right to melt the eyes of any who dared gaze upon it for more than a few moments.
- **8003**: "This massive beast claimed to be the ruler of all who inhabited the jungle, and challenged the founder king with an ear-splitting roar. 'My name is Terrcualn, and you may only proceed once I lay lifeless upon the forest floor!'
- **8004**: "With that guttural proclamation, the creatures surrounding the king withdrew, leaving what they assumed would be the best pickings to their pack leader.
- **8005**: "As a rejoinder, August vowed to skin the feline alive if he laid a claw on any one of the king's followers, and the two began staring each other down in a silence that finally broke half a day hence.
- **8006**: "The battle raged on for seven suns, with it ending by moonlight on the seventh night.
- **8007**: "Neither wildcat nor warrior could deny the other's raw power, so they stopped the duel in favor of a long-lasting friendship.
- **8008**: "As a symbol of their new alliance, the tiger entrusted his son to the care of one of the king's eleven bannermen.
- **8009**: "This is the first known inhabitant whom the king befriended, but it is also far from the last. August continued to push deeper into the continent's verdant abyss, where he would confront still more natives seeking to drive him from their sacred territory."
- **8015**: Are they related? [Absolutely./So I've heard.]
- **8023**: "The most fearsome adversaries the king and his retinue faced during the Great Expedition were the Cimmerian Adherents.
- **8024**: "With the aid of the aurelian tiger, King August and his forces plunged deeper and deeper into the wildlands. However, with the fall of night came heated battle with the Cimmerian Adherents--an event that was repeated seemingly ad infinitum.
- **8025**: "No matter how many victories they earned or how many foul creatures they dispatched, the night continued to bring with it an umbral assault. The abominations knew neither fatigue nor fear, and plagued the retinue to its breaking point.
- **8026**: "The fiends' reign of terror did not stop with the king's party, though. The creatures were said to loathe all things that drew breath or energy from the sun. They poisoned the land, blighted the trees, and massacred every animal they laid eyes upon.
- **8027**: "As the days passed, the king learned that these dark minions had also beleaguered the goldpelt and his forest for countless nights.
- **8028**: "This epiphany redoubled their determination. No longer were they both fighting for themselves, but for their companions as well.
- **8029**: "Then, one evenfall, a bloodbath rained down upon the Ulbukan jungle, tainting its lush vegetation a mournful shade of red.
- **8030**: "The event began with an enemy ambuscade. Ring upon ring of nocturnal horrors encircled the king and his followers. The danger became more palpable with each passing second as the shadowy grunts ilmed ever closer.
- **8031**: "The resplendent feline expended his remaining stamina to unleash a terrifying attack that felled all the surrounding enemies. This selfless act bought the king and his companions enough time to escape, but also cost the tiger his life.
- **8033**: "Incited by the display of the wildcat's bravery, his son, the king, and the monarch's eleven stalwart crusaders pressed on in the face of the nightmarish barrage.
- **8034**: "The conflict lasted for so long that all involved lost count of the days spent cleaving chunks of flesh from their assailants. At last, however, the forces of the night were pushed back to the sorcerous ruins from which they first emerged.
- **8035**: "It was there that the explorers were met with that which controlled the entirety of the Cimmerian Adherents.
- **8036**: "This mastermind behind the invasion of Ulbuka and the destruction of its lands was--"
- **8064**: "...Not a soul bore witness to the king's demise.
- **8065**: "The king and his followers stepped into those mysterious ruins, wherein the "Serpentine Labyrinth"--dubbed such due to the fact it contained as many branching passageways as leaves in the jungle--sprawled before them."
- **8067**: Have you heard of it before? [It sounds like Ra'Kaznar./Not in the least.]
- **8075**: "The hordes of uncanny terrors that crawled aboveground to corrupt the land all did so from that very labyrinth.
- **8076**: "By this time, the king's ranks had been thinned by the droves of aberrations that had already fallen to the heroes' blades. However, that did not the least to shorten his strides into this den of iniquity.
- **8077**: "Each footfall they took resounded with a booming determination to prevent this caliginous menace from ever resurfacing.
- **8078**: "And yet, with the exception of one subordinate, the steps of every person who made the descent with King August were silenced within that abyssal mausoleum.
- **8079**: "The lone person to survive was Morimar, the king's general and tamer of beasts. He emerged from the chaos with the golden tiger's next of kin, and no one else.
- **8080**: "With the founder king nowhere to be seen and most of Morimar's account lost to the slow tick of time, all we can do is conjecture about the king's fate.
- **8081**: "That conjecture, sadly, can only be based upon the few curt words his general spoke of the terrible incident.
- **8082**: "From them, we can conclude that King August expended his life inside the bowels of the Serpentine Labyrinth, clashing with--
- **8084**: "The battle was a spectacle of atrocious beauty, with hacked limbs and ruptured veins decorating each and every winding corridor of the subterranean maze.
- **8085**: "Explorer after explorer in the king's retinue was struck down, but not before they could drag regiments of oppressors to the grave with them.
- **8086**: "King August used himself as a shield to allow Morimar time with which to return soilside. With little to no room for error and even less for respite, the monarch's chances of climbing back up from those treacherous depths were lamentably slim.
- **8087**: "Morimar hurried back to Castle Adoulin, the king's cherished blade swinging from his side and a message from the sovereign on his lips: 'No more shall we colonize the hinterland.' With that, he passed the sword on to the callow prince and princess and promptly departed."
- **8089**: "His orders fulfilled, Morimar vanished from sight, never to be seen again.
- **8090**: "Even after his disappearance, tales of his and his feline companion's efforts to preserve the forest waft above the heads of citizens throughout Adoulin's bifurcated districts to this day."
- **8093**: Have anything to say? [His grave in the waterways?/Just a memorial?]
- **8101**: Ask about her father's disappearance? [Of course...since he brought it up!/No, it would be boorish of me.]
- **8113**: What will you do? [Show her a scale./Ask about the Serpentine Labyrinth./Cheer Arciela on.]

## Events

### Event 65535

#### Metadata

| Field        | Value   |
|--------------|---------|
| Entrypoint   | 0x0000  |
| Data Size    | 1 bytes |
| Instructions | 1       |

```
      00 01 02 03 04 05 06 07  08 09 0A 0B 0C 0D 0E 0F
      -- -- -- -- -- -- -- --  -- -- -- -- -- -- -- --
0000: 00                                                .               
```

#### Opcodes

```
  0: 0x0000 [0x00] END_REQSTACK()
```

### Event 1

#### Metadata

| Field        | Value     |
|--------------|-----------|
| Entrypoint   | 0x0001    |
| Data Size    | 290 bytes |
| Instructions | 41        |

```
      00 01 02 03 04 05 06 07  08 09 0A 0B 0C 0D 0E 0F
      -- -- -- -- -- -- -- --  -- -- -- -- -- -- -- --
0000:    42 1A AA 53 46 01 38  00 80 92 01 1E C0 11 01   B..SF.8........
0010: 94 01 F0 FF FF 7F 94 01  1E C0 11 01 BA F0 FF FF  ................
0020: 7F 01 80 02 80 03 80 04  80 80 F0 FF FF 7F 80 1E  ................
0030: C0 11 01 4A F0 FF FF 7F  1E C0 11 01 4A 1E C0 11  ...J........J...
0040: 01 F0 FF FF 7F 1C 05 80  45 06 80 F8 FF FF 7F F8  ........E.......
0050: FF FF 7F 73 31 38 38 07  80 1A 89 53 66 08 80 1E  ...s188....Sf...
0060: C0 11 01 1E C0 11 01 74  6C 6B 30 2B 1E C0 11 01  .......tlk0+....
0070: 09 80 23 52 06 80 F8 FF  FF 7F F8 FF FF 7F 73 31  ..#R..........s1
0080: 38 38 45 06 80 F8 FF FF  7F F8 FF FF 7F 73 31 38  88E..........s18
0090: 39 07 80 66 08 80 1E C0  11 01 1E C0 11 01 74 6C  9..f..........tl
00A0: 6B 31 1C 05 80 2B 1E C0  11 01 0A 80 23 52 06 80  k1...+......#R..
00B0: F8 FF FF 7F F8 FF FF 7F  73 31 38 39 45 06 80 F8  ........s189E...
00C0: FF FF 7F F8 FF FF 7F 73  31 39 30 07 80 7B 1E C0  .......s190..{..
00D0: 11 01 81 00 1E C0 11 01  66 08 80 1E C0 11 01 1E  ........f.......
00E0: C0 11 01 74 68 73 31 1C  0B 80 2B 1E C0 11 01 0C  ...ths1...+.....
00F0: 80 23 1A AA 53 52 06 80  F8 FF FF 7F F8 FF FF 7F  .#..SR..........
0100: 73 31 39 30 1C 0D 80 AB  11 07 80 1C 0E 80 46 00  s190..........F.
0110: 45 0F 80 F0 FF FF 7F F0  FF FF 7F 66 64 69 32 07  E..........fdi2.
0120: 80 21 00                                          .!.             
```

#### Opcodes

```
  0: 0x0001 [0x42] SET_CLI_EVENT_CANCEL_DATA()
  1: 0x0002 [0x1A] CALL_SUBROUTINE(address=0x53AA)
  2: 0x0005 [0x46] CAMERA_CONTROL: Disable user control
  3: 0x0007 [0x38] SET_CLIENT_EVENT_MODE(mode=147*)
  4: 0x000A [0x92] Yefafa (ID: 17940510/0x0111C01E)->Render.Flags3 ^= 0x01
  5: 0x0010 [0x94] LocalPlayer->Render.Flags3 ^= 0x01
  6: 0x0016 [0x94] Yefafa (ID: 17940510/0x0111C01E)->Render.Flags3 ^= 0x01
  7: 0x001C [0xBA] SET_ENTITY_POSITION(entity_id=LocalPlayer, pos_x=-115.094*, pos_z=-93.368*, pos_y=-2.150*, direction=109.4°*)
  8: 0x0029 [0x80] LOAD_WAIT(entity=LocalPlayer)
  9: 0x002E [0x80] LOAD_WAIT(entity=Yefafa (ID: 17940510/0x0111C01E))
 10: 0x0033 [0x4A] LocalPlayer looks at Yefafa (ID: 17940510/0x0111C01E)
 11: 0x003C [0x4A] Yefafa (ID: 17940510/0x0111C01E) looks at LocalPlayer
 12: 0x0045 [0x1C] WAIT(30* ticks)
 13: 0x0048 [0x45] LOAD_SCHEDULED_TASK: Load scheduler "s188" with entities [EventEntity, EventEntity], work=[622*, 0*]
 14: 0x0059 [0x1A] CALL_SUBROUTINE(address=0x5389)
 15: 0x005C [0x66] LOAD_EXT_SCHEDULER_MAIN: Load scheduler "tlk0" with entities [Yefafa (ID: 17940510/0x0111C01E), Yefafa (ID: 17940510/0x0111C01E)], work=40*
 16: 0x006B [0x2B] Yefafa (ID: 17940510/0x0111C01E) [7698*]:
    → "You've noticed that kits of all kinds have been frequentauring the $7 lately, right?"
 17: 0x0072 [0x23] WAIT_FOR_DIALOG_INTERACTION
 18: 0x0073 [0x52] END_LOAD_SCHEDULER: End scheduler "s188" with entities [EventEntity, EventEntity], work=622*
 19: 0x0082 [0x45] LOAD_SCHEDULED_TASK: Load scheduler "s189" with entities [EventEntity, EventEntity], work=[622*, 0*]
 20: 0x0093 [0x66] LOAD_EXT_SCHEDULER_MAIN: Load scheduler "tlk1" with entities [Yefafa (ID: 17940510/0x0111C01E), Yefafa (ID: 17940510/0x0111C01E)], work=40*
 21: 0x00A2 [0x1C] WAIT(30* ticks)
 22: 0x00A5 [0x2B] Yefafa (ID: 17940510/0x0111C01E) [7699*]:
    → "No, no, no! I obviously-wobviously don't mean pioneers. Who'd think odd of that? I mean Adoulinian guys and girls."
 23: 0x00AC [0x23] WAIT_FOR_DIALOG_INTERACTION
 24: 0x00AD [0x52] END_LOAD_SCHEDULER: End scheduler "s189" with entities [EventEntity, EventEntity], work=622*
 25: 0x00BC [0x45] LOAD_SCHEDULED_TASK: Load scheduler "s190" with entities [EventEntity, EventEntity], work=[622*, 0*]
 26: 0x00CD [0x7B] Yefafa (ID: 17940510/0x0111C01E) stops talking
 27: 0x00D2 [0x81] SET_ENTITY_BLINKING(blink_flag=0x00, entity=Yefafa (ID: 17940510/0x0111C01E))
 28: 0x00D8 [0x66] LOAD_EXT_SCHEDULER_MAIN: Load scheduler "ths1" with entities [Yefafa (ID: 17940510/0x0111C01E), Yefafa (ID: 17940510/0x0111C01E)], work=40*
 29: 0x00E7 [0x1C] WAIT(45* ticks)
 30: 0x00EA [0x2B] Yefafa (ID: 17940510/0x0111C01E) [7700*]:
    → "They keep using this strange phrase with each other. All these whippersnappers and their argotaru--why can't they use real words?"
 31: 0x00F1 [0x23] WAIT_FOR_DIALOG_INTERACTION
 32: 0x00F2 [0x1A] CALL_SUBROUTINE(address=0x53AA)
 33: 0x00F5 [0x52] END_LOAD_SCHEDULER: End scheduler "s190" with entities [EventEntity, EventEntity], work=622*
 34: 0x0104 [0x1C] WAIT(15* ticks)
 35: 0x0107 [0xAB] EventEntity->DespawnValue = 0* // Set despawn value
 36: 0x010B [0x1C] WAIT(1* ticks)
 37: 0x010E [0x46] CAMERA_CONTROL: Restore default settings
 38: 0x0110 [0x45] LOAD_SCHEDULED_TASK: Load scheduler "fdi2" with entities [LocalPlayer, LocalPlayer], work=[200*, 0*]
 39: 0x0121 [0x21] END_EVENT
 40: 0x0122 [0x00] END_REQSTACK()
```

### Event 2

#### Metadata

| Field        | Value      |
|--------------|------------|
| Entrypoint   | 0x0123     |
| Data Size    | 3690 bytes |
| Instructions | 381        |

```
      00 01 02 03 04 05 06 07  08 09 0A 0B 0C 0D 0E 0F
      -- -- -- -- -- -- -- --  -- -- -- -- -- -- -- --
0120:          42 1A AA 53 03  01 10 10 80 43 00 43 01     B..S.....C.C.
0130: 03 01 00 02 10 46 01 38  00 80 2F 00 1F C0 11 01  .....F.8../.....
0140: 4E 00 1F C0 11 01 4E 00  F0 FF FF 7F 92 01 1F C0  N.....N.........
0150: 11 01 92 01 0F C0 11 01  92 01 1A C0 11 01 92 01  ................
0160: 14 C0 11 01 94 01 1F C0  11 01 94 01 F0 FF FF 7F  ................
0170: 94 01 1A C0 11 01 94 01  14 C0 11 01 4E 01 0F C0  ............N...
0180: 11 01 BA 1F C0 11 01 11  80 12 80 13 80 14 80 BA  ................
0190: F0 FF FF 7F 15 80 16 80  03 80 17 80 BA 0F C0 11  ................
01A0: 01 18 80 19 80 03 80 1A  80 BA 1A C0 11 01 1B 80  ................
01B0: 1C 80 03 80 1D 80 BA 14  C0 11 01 1E 80 1F 80 03  ................
01C0: 80 20 80 80 1F C0 11 01  80 F0 FF FF 7F 80 1A C0  . ..............
01D0: 11 01 80 14 C0 11 01 4E  01 0F C0 11 01 27 05 F0  .......N.....'..
01E0: FF FF 7F 11 45 21 80 F8  FF FF 7F F8 FF FF 7F 73  ....E!.........s
01F0: 30 37 36 07 80 1C 0D 80  1A 89 53 1C 22 80 52 21  076.......S.".R!
0200: 80 F8 FF FF 7F F8 FF FF  7F 73 30 37 36 45 21 80  .........s076E!.
0210: F8 FF FF 7F F8 FF FF 7F  73 30 37 37 07 80 4A 1F  ........s077..J.
0220: C0 11 01 F0 FF FF 7F 1C  05 80 5B 23 80 1F C0 11  ..........[#....
0230: 01 1F C0 11 01 74 6C 6B  30 2B 1F C0 11 01 24 80  .....tlk0+....$.
0240: 23 5B 23 80 1F C0 11 01  1F C0 11 01 74 6C 6B 31  #[#.........tlk1
0250: 2A 05 F0 FF FF 7F 52 21  80 F8 FF FF 7F F8 FF FF  *.....R!........
0260: 7F 73 30 37 37 40 07 80  0E 80 02 00 07 80 40 25  .s077@........@%
0270: 80 26 80 02 00 07 80 40  10 80 27 80 02 00 07 80  .&.....@..'.....
0280: 45 21 80 F8 FF FF 7F F8  FF FF 7F 73 30 37 38 07  E!.........s078.
0290: 80 24 28 80 07 80 07 80  25 02 00 10 07 80 00 5C  .$(.....%......\
02A0: 03 7B 1F C0 11 01 52 21  80 F8 FF FF 7F F8 FF FF  .{....R!........
02B0: 7F 73 30 37 38 45 21 80  F8 FF FF 7F F8 FF FF 7F  .s078E!.........
02C0: 73 30 37 39 07 80 81 00  1F C0 11 01 7C 00 1F C0  s079........|...
02D0: 11 01 5B 29 80 1F C0 11  01 1F C0 11 01 75 74 75  ..[).........utu
02E0: 30 2B 1F C0 11 01 2A 80  23 81 01 1F C0 11 01 7C  0+....*.#......|
02F0: 01 1F C0 11 01 5B 29 80  1F C0 11 01 1F C0 11 01  .....[).........
0300: 75 74 75 31 79 00 1F C0  11 01 F0 FF FF 7F 02 01  utu1y...........
0310: 00 07 80 00 47 03 41 07  80 0E 80 02 00 02 10 02  ....G.A.........
0320: 02 10 26 80 03 47 03 03  01 10 0E 80 43 00 43 01  ..&..G......C.C.
0330: 41 07 80 0E 80 02 00 02  10 07 02 10 0E 80 40 07  A.............@.
0340: 80 0E 80 02 00 02 10 52  21 80 F8 FF FF 7F F8 FF  .......R!.......
0350: FF 7F 73 30 37 39 01 80  02 01 D6 04 02 00 10 0E  ..s079..........
0360: 80 00 A0 03 02 01 00 07  80 00 9D 03 41 25 80 26  ............A%.&
0370: 80 02 00 02 10 02 02 10  26 80 03 9D 03 03 01 10  ........&.......
0380: 25 80 43 00 43 01 41 25  80 26 80 02 00 02 10 07  %.C.C.A%.&......
0390: 02 10 0E 80 40 25 80 26  80 02 00 02 10 01 D6 04  ....@%.&........
03A0: 02 00 10 25 80 00 D6 04  81 00 1F C0 11 01 7C 00  ...%..........|.
03B0: 1F C0 11 01 5B 2B 80 1F  C0 11 01 1F C0 11 01 66  ....[+.........f
03C0: 65 30 31 1C 0D 80 5B 2C  80 1F C0 11 01 1F C0 11  e01...[,........
03D0: 01 62 69 6B 30 1C 0D 80  52 21 80 F8 FF FF 7F F8  .bik0...R!......
03E0: FF FF 7F 73 30 37 38 45  21 80 F8 FF FF 7F F8 FF  ...s078E!.......
03F0: FF 7F 73 31 38 38 07 80  2B 1F C0 11 01 2D 80 23  ..s188..+....-.#
0400: 5B 2B 80 1F C0 11 01 1F  C0 11 01 66 65 30 30 55  [+.........fe00U
0410: 21 80 F8 FF FF 7F F8 FF  FF 7F 73 31 38 38 5B 2C  !.........s188[,
0420: 80 1F C0 11 01 1F C0 11  01 62 69 6B 31 D3 00 1F  .........bik1...
0430: C0 11 01 1C 05 80 7B 1F  C0 11 01 45 21 80 F8 FF  ......{....E!...
0440: FF 7F F8 FF FF 7F 73 30  37 39 07 80 5B 29 80 1F  ......s079..[)..
0450: C0 11 01 1F C0 11 01 75  74 75 30 2B 1F C0 11 01  .......utu0+....
0460: 2E 80 23 81 01 1F C0 11  01 7C 01 1F C0 11 01 5B  ..#......|.....[
0470: 29 80 1F C0 11 01 1F C0  11 01 75 74 75 31 79 00  ).........utu1y.
0480: 1F C0 11 01 F0 FF FF 7F  02 01 00 07 80 00 C1 04  ................
0490: 41 10 80 27 80 02 00 02  10 02 02 10 26 80 03 C1  A..'........&...
04A0: 04 03 01 10 26 80 43 00  43 01 41 10 80 27 80 02  ....&.C.C.A..'..
04B0: 00 02 10 07 02 10 0E 80  40 10 80 27 80 02 00 02  ........@..'....
04C0: 10 52 21 80 F8 FF FF 7F  F8 FF FF 7F 73 30 37 39  .R!.........s079
04D0: 01 80 02 01 D6 04 52 21  80 F8 FF FF 7F F8 FF FF  ......R!........
04E0: 7F 73 30 37 38 45 21 80  F8 FF FF 7F F8 FF FF 7F  .s078E!.........
04F0: 73 30 38 30 07 80 81 00  1F C0 11 01 7C 00 1F C0  s080........|...
0500: 11 01 5B 2F 80 1F C0 11  01 1F C0 11 01 73 77 65  ..[/.........swe
0510: 30 2B 1F C0 11 01 30 80  23 2B 1F C0 11 01 31 80  0+....0.#+....1.
0520: 23 4E 00 0F C0 11 01 80  0F C0 11 01 53 1F C0 11  #N..........S...
0530: 01 1F C0 11 01 73 77 65  30 27 05 0F C0 11 01 07  .....swe0'......
0540: 1C 32 80 52 21 80 F8 FF  FF 7F F8 FF FF 7F 73 30  .2.R!.........s0
0550: 38 30 45 21 80 F8 FF FF  7F F8 FF FF 7F 73 30 38  80E!.........s08
0560: 31 07 80 7B 1F C0 11 01  1C 0D 80 4A 14 C0 11 01  1..{.......J....
0570: 1F C0 11 01 BA F0 FF FF  7F 33 80 34 80 03 80 1A  .........3.4....
0580: 80 80 F0 FF FF 7F 4A F0  FF FF 7F 1F C0 11 01 1C  ......J.........
0590: 05 80 6E 14 C0 11 01 35  80 99 14 C0 11 01 2A 05  ..n....5......*.
05A0: 0F C0 11 01 66 36 80 0F  C0 11 01 0F C0 11 01 74  ....f6.........t
05B0: 6C 6B 30 2B 0F C0 11 01  37 80 23 66 36 80 0F C0  lk0+....7.#f6...
05C0: 11 01 0F C0 11 01 74 6C  6B 31 52 21 80 F8 FF FF  ......tlk1R!....
05D0: 7F F8 FF FF 7F 73 30 38  31 45 21 80 F8 FF FF 7F  .....s081E!.....
05E0: F8 FF FF 7F 73 31 38 30  07 80 5B 2F 80 1F C0 11  ....s180..[/....
05F0: 01 1F C0 11 01 73 77 65  31 2B 1F C0 11 01 38 80  .....swe1+....8.
0600: 23 53 1F C0 11 01 1F C0  11 01 73 77 65 31 5B 2F  #S........swe1[/
0610: 80 1F C0 11 01 1F C0 11  01 73 77 65 32 52 21 80  .........swe2R!.
0620: F8 FF FF 7F F8 FF FF 7F  73 31 38 30 45 21 80 F8  ........s180E!..
0630: FF FF 7F F8 FF FF 7F 73  31 38 32 07 80 4B 14 C0  .......s182..K..
0640: 11 01 20 80 1C 39 80 4E  01 0F C0 11 01 BA 0F C0  .. ..9.N........
0650: 11 01 3A 80 3B 80 03 80  3C 80 66 3D 80 14 C0 11  ..:.;...<.f=....
0660: 01 14 C0 11 01 74 68 6B  31 2B 1F C0 11 01 3E 80  .....thk1+....>.
0670: 23 53 1F C0 11 01 1F C0  11 01 73 77 65 32 52 21  #S........swe2R!
0680: 80 F8 FF FF 7F F8 FF FF  7F 73 31 38 32 45 21 80  .........s182E!.
0690: F8 FF FF 7F F8 FF FF 7F  73 30 38 32 07 80 5B 3F  ........s082..[?
06A0: 80 1F C0 11 01 1F C0 11  01 73 77 65 33 2B 1F C0  .........swe3+..
06B0: 11 01 40 80 23 7B 0F C0  11 01 53 1F C0 11 01 1F  ..@.#{....S.....
06C0: C0 11 01 73 77 65 33 5B  3F 80 1F C0 11 01 1F C0  ...swe3[?.......
06D0: 11 01 73 77 65 34 52 21  80 F8 FF FF 7F F8 FF FF  ..swe4R!........
06E0: 7F 73 30 38 32 45 21 80  F8 FF FF 7F F8 FF FF 7F  .s082E!.........
06F0: 73 30 38 33 07 80 2B 1F  C0 11 01 41 80 23 53 1F  s083..+....A.#S.
0700: C0 11 01 1F C0 11 01 73  77 65 34 5B 42 80 1F C0  .......swe4[B...
0710: 11 01 1F C0 11 01 73 77  65 35 52 21 80 F8 FF FF  ......swe5R!....
0720: 7F F8 FF FF 7F 73 30 38  33 45 21 80 F8 FF FF 7F  .....s083E!.....
0730: F8 FF FF 7F 73 30 38 34  07 80 7C 01 1F C0 11 01  ....s084..|.....
0740: 2B 1F C0 11 01 43 80 23  BA 14 C0 11 01 44 80 45  +....C.#.....D.E
0750: 80 03 80 07 80 53 1F C0  11 01 1F C0 11 01 73 77  .....S........sw
0760: 65 35 52 21 80 F8 FF FF  7F F8 FF FF 7F 73 30 38  e5R!.........s08
0770: 34 45 21 80 F8 FF FF 7F  F8 FF FF 7F 73 31 38 31  4E!.........s181
0780: 07 80 7C 00 1F C0 11 01  5B 42 80 1F C0 11 01 1F  ..|.....[B......
0790: C0 11 01 73 77 65 36 2B  1F C0 11 01 46 80 23 53  ...swe6+....F.#S
07A0: 1F C0 11 01 1F C0 11 01  73 77 65 36 52 21 80 F8  ........swe6R!..
07B0: FF FF 7F F8 FF FF 7F 73  31 38 31 02 87 7F 26 80  .......s181...&.
07C0: 80 D7 07 45 21 80 F8 FF  FF 7F F8 FF FF 7F 73 31  ...E!.........s1
07D0: 39 34 07 80 01 58 08 02  87 7F 10 80 80 F3 07 45  94...X.........E
07E0: 21 80 F8 FF FF 7F F8 FF  FF 7F 73 31 39 34 07 80  !.........s194..
07F0: 01 58 08 02 87 7F 27 80  80 0F 08 45 21 80 F8 FF  .X....'....E!...
0800: FF 7F F8 FF FF 7F 73 31  38 33 07 80 01 58 08 02  ......s183...X..
0810: 87 7F 47 80 80 2B 08 45  21 80 F8 FF FF 7F F8 FF  ..G..+.E!.......
0820: FF 7F 73 31 38 33 07 80  01 58 08 02 87 7F 48 80  ..s183...X....H.
0830: 80 47 08 45 21 80 F8 FF  FF 7F F8 FF FF 7F 73 31  .G.E!.........s1
0840: 39 34 07 80 01 58 08 45  21 80 F8 FF FF 7F F8 FF  94...X.E!.......
0850: FF 7F 73 30 38 35 07 80  24 49 80 07 80 07 80 25  ..s085..$I.....%
0860: 02 00 10 07 80 00 6B 08  01 6B 08 27 05 F0 FF FF  ......k..k.'....
0870: 7F 07 1C 4A 80 6B 69 64  6C 30 1F C0 11 01 27 05  ...J.kidl0....'.
0880: F0 FF FF 7F 08 1C 08 80  5B 4B 80 1F C0 11 01 1F  ........[K......
0890: C0 11 01 71 75 65 30 52  21 80 F8 FF FF 7F F8 FF  ...que0R!.......
08A0: FF 7F 73 30 38 35 52 21  80 F8 FF FF 7F F8 FF FF  ..s085R!........
08B0: 7F 73 31 38 33 52 21 80  F8 FF FF 7F F8 FF FF 7F  .s183R!.........
08C0: 73 31 39 34 45 21 80 F8  FF FF 7F F8 FF FF 7F 73  s194E!.........s
08D0: 30 38 36 07 80 2B 1F C0  11 01 4C 80 23 53 1F C0  086..+....L.#S..
08E0: 11 01 1F C0 11 01 71 75  65 30 52 21 80 F8 FF FF  ......que0R!....
08F0: 7F F8 FF FF 7F 73 30 38  36 02 87 7F 27 80 80 15  .....s086...'...
0900: 09 45 21 80 F8 FF FF 7F  F8 FF FF 7F 73 30 38 38  .E!.........s088
0910: 07 80 01 42 09 02 87 7F  47 80 80 31 09 45 21 80  ...B....G..1.E!.
0920: F8 FF FF 7F F8 FF FF 7F  73 30 38 38 07 80 01 42  ........s088...B
0930: 09 45 21 80 F8 FF FF 7F  F8 FF FF 7F 73 30 38 37  .E!.........s087
0940: 07 80 2B 1F C0 11 01 4D  80 23 52 21 80 F8 FF FF  ..+....M.#R!....
0950: 7F F8 FF FF 7F 73 30 38  37 52 21 80 F8 FF FF 7F  .....s087R!.....
0960: F8 FF FF 7F 73 30 38 38  45 21 80 F8 FF FF 7F F8  ....s088E!......
0970: FF FF 7F 73 30 38 39 07  80 5B 4B 80 1F C0 11 01  ...s089..[K.....
0980: 1F C0 11 01 71 75 65 31  2B 1F C0 11 01 4E 80 23  ....que1+....N.#
0990: 7C 01 1F C0 11 01 2B 1F  C0 11 01 4F 80 23 53 1F  |.....+....O.#S.
09A0: C0 11 01 1F C0 11 01 71  75 65 31 52 21 80 F8 FF  .......que1R!...
09B0: FF 7F F8 FF FF 7F 73 30  38 39 45 21 80 F8 FF FF  ......s089E!....
09C0: 7F F8 FF FF 7F 73 30 39  30 07 80 D3 00 1F C0 11  .....s090.......
09D0: 01 5B 2C 80 1F C0 11 01  1F C0 11 01 74 6C 61 30  .[,.........tla0
09E0: 2B 1F C0 11 01 50 80 23  2B 1F C0 11 01 51 80 23  +....P.#+....Q.#
09F0: 52 21 80 F8 FF FF 7F F8  FF FF 7F 73 30 39 30 45  R!.........s090E
0A00: 21 80 F8 FF FF 7F F8 FF  FF 7F 73 30 39 31 07 80  !.........s091..
0A10: 5B 2C 80 1F C0 11 01 1F  C0 11 01 74 6C 61 31 2B  [,.........tla1+
0A20: 1F C0 11 01 52 80 23 5B  53 80 1F C0 11 01 1F C0  ....R.#[S.......
0A30: 11 01 64 79 6F 30 2B 1F  C0 11 01 54 80 23 4E 00  ..dyo0+....T.#N.
0A40: 0F C0 11 01 80 0F C0 11  01 27 05 0F C0 11 01 08  .........'......
0A50: 1C 05 80 52 21 80 F8 FF  FF 7F F8 FF FF 7F 73 30  ...R!.........s0
0A60: 39 31 45 21 80 F8 FF FF  7F F8 FF FF 7F 73 30 39  91E!.........s09
0A70: 32 07 80 2B 1F C0 11 01  55 80 23 2B 1F C0 11 01  2..+....U.#+....
0A80: 56 80 23 53 1F C0 11 01  1F C0 11 01 64 79 6F 30  V.#S........dyo0
0A90: 7C 00 1F C0 11 01 5B 57  80 1F C0 11 01 1F C0 11  |.....[W........
0AA0: 01 63 72 79 30 52 21 80  F8 FF FF 7F F8 FF FF 7F  .cry0R!.........
0AB0: 73 30 39 32 45 21 80 F8  FF FF 7F F8 FF FF 7F 73  s092E!.........s
0AC0: 30 39 33 07 80 2B 1F C0  11 01 58 80 23 53 1F C0  093..+....X.#S..
0AD0: 11 01 1F C0 11 01 63 72  79 30 52 21 80 F8 FF FF  ......cry0R!....
0AE0: 7F F8 FF FF 7F 73 30 39  33 45 21 80 F8 FF FF 7F  .....s093E!.....
0AF0: F8 FF FF 7F 73 30 39 34  07 80 5B 57 80 1F C0 11  ....s094..[W....
0B00: 01 1F C0 11 01 63 72 79  31 CD 59 80 1F C0 11 01  .....cry1.Y.....
0B10: 1F C0 11 01 73 30 30 30  07 80 2B 1F C0 11 01 5A  ....s000..+....Z
0B20: 80 23 2B 1F C0 11 01 5B  80 23 2B 1F C0 11 01 5C  .#+....[.#+....\
0B30: 80 23 52 21 80 F8 FF FF  7F F8 FF FF 7F 73 30 39  .#R!.........s09
0B40: 34 45 21 80 F8 FF FF 7F  F8 FF FF 7F 73 30 39 35  4E!.........s095
0B50: 07 80 2B 1F C0 11 01 5D  80 23 2B 1F C0 11 01 5E  ..+....].#+....^
0B60: 80 23 2B 1F C0 11 01 5F  80 23 52 21 80 F8 FF FF  .#+...._.#R!....
0B70: 7F F8 FF FF 7F 73 30 39  35 45 21 80 F8 FF FF 7F  .....s095E!.....
0B80: F8 FF FF 7F 73 30 39 36  07 80 2B 1F C0 11 01 60  ....s096..+....`
0B90: 80 23 2B 1F C0 11 01 61  80 23 52 21 80 F8 FF FF  .#+....a.#R!....
0BA0: 7F F8 FF FF 7F 73 30 39  36 45 21 80 F8 FF FF 7F  .....s096E!.....
0BB0: F8 FF FF 7F 73 30 39 37  07 80 2B 1F C0 11 01 62  ....s097..+....b
0BC0: 80 23 CD 59 80 1F C0 11  01 1F C0 11 01 73 30 30  .#.Y.........s00
0BD0: 31 07 80 2B 1F C0 11 01  63 80 23 52 21 80 F8 FF  1..+....c.#R!...
0BE0: FF 7F F8 FF FF 7F 73 30  39 37 45 21 80 F8 FF FF  ......s097E!....
0BF0: 7F F8 FF FF 7F 73 31 38  39 07 80 6E F0 FF FF 7F  .....s189..n....
0C00: 64 80 99 F0 FF FF 7F 1C  22 80 52 21 80 F8 FF FF  d.......".R!....
0C10: 7F F8 FF FF 7F 73 31 38  39 45 21 80 F8 FF FF 7F  .....s189E!.....
0C20: F8 FF FF 7F 73 30 39 38  07 80 1C 22 80 52 21 80  ....s098...".R!.
0C30: F8 FF FF 7F F8 FF FF 7F  73 30 39 38 45 21 80 F8  ........s098E!..
0C40: FF FF 7F F8 FF FF 7F 73  32 30 30 07 80 5B 57 80  .......s200..[W.
0C50: 1F C0 11 01 1F C0 11 01  63 72 79 32 CD 59 80 1F  ........cry2.Y..
0C60: C0 11 01 1F C0 11 01 73  30 30 32 07 80 1C 32 80  .......s002...2.
0C70: 2B 1F C0 11 01 65 80 23  53 1F C0 11 01 1F C0 11  +....e.#S.......
0C80: 01 63 72 79 32 1A AA 53  1C 05 80 52 21 80 F8 FF  .cry2..S...R!...
0C90: FF 7F F8 FF FF 7F 73 32  30 30 CD 59 80 1F C0 11  ......s200.Y....
0CA0: 01 1F C0 11 01 6B 61 6C  6C 07 80 2F 00 20 C0 11  .....kall../. ..
0CB0: 01 2F 00 21 C0 11 01 4E  00 20 C0 11 01 4E 00 21  ./.!...N. ...N.!
0CC0: C0 11 01 22 00 94 01 20  C0 11 01 33 01 59 05 1F  ..."... ...3.Y..
0CD0: C0 11 01 01 59 05 20 C0  11 01 01 59 05 21 C0 11  ....Y. ....Y.!..
0CE0: 01 01 BA 1F C0 11 01 66  80 67 80 68 80 69 80 BA  .......f.g.h.i..
0CF0: 20 C0 11 01 6A 80 6B 80  6C 80 6D 80 BA 21 C0 11   ...j.k.l.m..!..
0D00: 01 6A 80 6B 80 6C 80 6D  80 37 6E 80 6F 80 68 80  .j.k.l.m.7n.o.h.
0D10: 70 80 80 F8 FF FF 7F 80  1F C0 11 01 80 20 C0 11  p............ ..
0D20: 01 4A 1F C0 11 01 20 C0  11 01 4A 20 C0 11 01 1F  .J.... ...J ....
0D30: C0 11 01 1C 05 80 5B 71  80 21 C0 11 01 21 C0 11  ......[q.!...!..
0D40: 01 79 75 67 30 C5 72 80  F8 FF FF 7F F8 FF FF 7F  .yug0.r.........
0D50: 73 30 30 30 07 80 45 21  80 F8 FF FF 7F F8 FF FF  s000..E!........
0D60: 7F 73 30 39 39 07 80 1C  0D 80 1A 89 53 2B 1F C0  .s099.......S+..
0D70: 11 01 73 80 1C 22 80 5B  74 80 20 C0 11 01 20 C0  ..s..".[t. ... .
0D80: 11 01 70 6F 69 30 45 0F  80 F0 FF FF 7F F0 FF FF  ..poi0E.........
0D90: 7F 6F 76 6C 31 07 80 52  21 80 F8 FF FF 7F F8 FF  .ovl1..R!.......
0DA0: FF 7F 73 30 39 39 45 21  80 F8 FF FF 7F F8 FF FF  ..s099E!........
0DB0: 7F 73 31 38 35 07 80 1C  22 80 23 1A AA 53 1C 05  .s185...".#..S..
0DC0: 80 52 21 80 F8 FF FF 7F  F8 FF FF 7F 73 31 38 35  .R!.........s185
0DD0: C5 72 80 F8 FF FF 7F F8  FF FF 7F 6B 69 6C 30 07  .r.........kil0.
0DE0: 80 81 01 1F C0 11 01 7C  01 1F C0 11 01 BA 1F C0  .......|........
0DF0: 11 01 11 80 12 80 13 80  14 80 80 1F C0 11 01 4A  ...............J
0E00: 1F C0 11 01 F0 FF FF 7F  1C 05 80 45 21 80 F8 FF  ...........E!...
0E10: FF 7F F8 FF FF 7F 73 31  38 34 07 80 1C 0D 80 1A  ......s184......
0E20: 89 53 5B 23 80 1F C0 11  01 1F C0 11 01 74 6C 6B  .S[#.........tlk
0E30: 30 2B 1F C0 11 01 75 80  23 52 21 80 F8 FF FF 7F  0+....u.#R!.....
0E40: F8 FF FF 7F 73 31 38 34  45 21 80 F8 FF FF 7F F8  ....s184E!......
0E50: FF FF 7F 73 31 30 30 07  80 03 02 10 76 80 2B 1F  ...s100.....v.+.
0E60: C0 11 01 77 80 23 5B 23  80 1F C0 11 01 1F C0 11  ...w.#[#........
0E70: 01 74 6C 6B 31 6E F0 FF  FF 7F 47 80 99 F0 FF FF  .tlk1n....G.....
0E80: 7F 1C 39 80 52 21 80 F8  FF FF 7F F8 FF FF 7F 73  ..9.R!.........s
0E90: 31 30 30 45 21 80 F8 FF  FF 7F F8 FF FF 7F 73 31  100E!.........s1
0EA0: 30 31 07 80 5B 78 80 1F  C0 11 01 1F C0 11 01 79  01..[x.........y
0EB0: 65 73 30 2B 1F C0 11 01  79 80 23 5B 23 80 1F C0  es0+....y.#[#...
0EC0: 11 01 1F C0 11 01 74 6C  6B 30 2B 1F C0 11 01 7A  ......tlk0+....z
0ED0: 80 23 52 21 80 F8 FF FF  7F F8 FF FF 7F 73 31 30  .#R!.........s10
0EE0: 31 45 21 80 F8 FF FF 7F  F8 FF FF 7F 73 31 30 32  1E!.........s102
0EF0: 07 80 2B 1F C0 11 01 7B  80 23 2B 1F C0 11 01 7C  ..+....{.#+....|
0F00: 80 23 5B 23 80 1F C0 11  01 1F C0 11 01 74 6C 6B  .#[#.........tlk
0F10: 31 52 21 80 F8 FF FF 7F  F8 FF FF 7F 73 31 30 32  1R!.........s102
0F20: 45 21 80 F8 FF FF 7F F8  FF FF 7F 73 31 30 33 07  E!.........s103.
0F30: 80 2B 1F C0 11 01 7D 80  23 5B 2C 80 1F C0 11 01  .+....}.#[,.....
0F40: 1F C0 11 01 74 6C 61 30  2B 1F C0 11 01 7E 80 23  ....tla0+....~.#
0F50: 1A AA 53 1C 05 80 52 21  80 F8 FF FF 7F F8 FF FF  ..S...R!........
0F60: 7F 73 31 30 33 27 05 20  C0 11 01 02 1C 0D 80 AB  .s103'. ........
0F70: 11 07 80 1C 0E 80 AB 0A  46 00 45 0F 80 F0 FF FF  ........F.E.....
0F80: 7F F0 FF FF 7F 66 64 69  32 07 80 21 00           .....fdi2..!.   
```

#### Opcodes

```
  0: 0x0123 [0x42] SET_CLI_EVENT_CANCEL_DATA()
  1: 0x0124 [0x1A] CALL_SUBROUTINE(address=0x53AA)
  2: 0x0127 [0x03] Work_Zone[1] = 4*
  3: 0x012C [0x43] SEND_EVENT_UPDATE: Send pending tag to server (packet 0x005B)
  4: 0x012E [0x43] SEND_EVENT_UPDATE: Check pending flag (skip if not pending)
  5: 0x0130 [0x03] ExtData[1]->WorkLocal[1] = Work_Zone[2]
  6: 0x0135 [0x46] CAMERA_CONTROL: Disable user control
  7: 0x0137 [0x38] SET_CLIENT_EVENT_MODE(mode=147*)
  8: 0x013A [0x2F] Arciela (ID: 17940511/0x0111C01F)->Render.Flags0 &= ~0x80000 // Bit 19
  9: 0x0140 [0x4E] SET_ENTITY_HIDE_FLAG: Show Arciela (ID: 17940511/0x0111C01F)
 10: 0x0146 [0x4E] SET_ENTITY_HIDE_FLAG: Show LocalPlayer
 11: 0x014C [0x92] Arciela (ID: 17940511/0x0111C01F)->Render.Flags3 ^= 0x01
 12: 0x0152 [0x92] Andreine (ID: 17940495/0x0111C00F)->Render.Flags3 ^= 0x01
 13: 0x0158 [0x92] Vainrachault (ID: 17940506/0x0111C01A)->Render.Flags3 ^= 0x01
 14: 0x015E [0x92] Reja Ygridhi (ID: 17940500/0x0111C014)->Render.Flags3 ^= 0x01
 15: 0x0164 [0x94] Arciela (ID: 17940511/0x0111C01F)->Render.Flags3 ^= 0x01
 16: 0x016A [0x94] LocalPlayer->Render.Flags3 ^= 0x01
 17: 0x0170 [0x94] Vainrachault (ID: 17940506/0x0111C01A)->Render.Flags3 ^= 0x01
 18: 0x0176 [0x94] Reja Ygridhi (ID: 17940500/0x0111C014)->Render.Flags3 ^= 0x01
 19: 0x017C [0x4E] SET_ENTITY_HIDE_FLAG: Hide Andreine (ID: 17940495/0x0111C00F)
 20: 0x0182 [0xBA] SET_ENTITY_POSITION(entity_id=Arciela (ID: 17940511/0x0111C01F), pos_x=-114.449*, pos_z=-95.110*, pos_y=-2.149*, direction=175.5°*)
 21: 0x018F [0xBA] SET_ENTITY_POSITION(entity_id=LocalPlayer, pos_x=-107.474*, pos_z=-94.006*, pos_y=-2.150*, direction=194.7°*)
 22: 0x019C [0xBA] SET_ENTITY_POSITION(entity_id=Andreine (ID: 17940495/0x0111C00F), pos_x=-108.729*, pos_z=-98.498*, pos_y=-2.150*, direction=122.5°*)
 23: 0x01A9 [0xBA] SET_ENTITY_POSITION(entity_id=Vainrachault (ID: 17940506/0x0111C01A), pos_x=-114.455*, pos_z=-88.533*, pos_y=-2.150*, direction=312.0°*)
 24: 0x01B6 [0xBA] SET_ENTITY_POSITION(entity_id=Reja Ygridhi (ID: 17940500/0x0111C014), pos_x=-111.428*, pos_z=-104.543*, pos_y=-2.150*, direction=140.0°*)
 25: 0x01C3 [0x80] LOAD_WAIT(entity=Arciela (ID: 17940511/0x0111C01F))
 26: 0x01C8 [0x80] LOAD_WAIT(entity=LocalPlayer)
 27: 0x01CD [0x80] LOAD_WAIT(entity=Vainrachault (ID: 17940506/0x0111C01A))
 28: 0x01D2 [0x80] LOAD_WAIT(entity=Reja Ygridhi (ID: 17940500/0x0111C014))
 29: 0x01D7 [0x4E] SET_ENTITY_HIDE_FLAG: Hide Andreine (ID: 17940495/0x0111C00F)
 30: 0x01DD [0x27] REQ_SET(priority=0x05, entity_id=LocalPlayer, tag_num=0x11)
 31: 0x01E4 [0x45] LOAD_SCHEDULED_TASK: Load scheduler "s076" with entities [EventEntity, EventEntity], work=[623*, 0*]
 32: 0x01F5 [0x1C] WAIT(15* ticks)
 33: 0x01F8 [0x1A] CALL_SUBROUTINE(address=0x5389)
 34: 0x01FB [0x1C] WAIT(120* ticks)
 35: 0x01FE [0x52] END_LOAD_SCHEDULER: End scheduler "s076" with entities [EventEntity, EventEntity], work=623*
 36: 0x020D [0x45] LOAD_SCHEDULED_TASK: Load scheduler "s077" with entities [EventEntity, EventEntity], work=[623*, 0*]
 37: 0x021E [0x4A] Arciela (ID: 17940511/0x0111C01F) looks at LocalPlayer
 38: 0x0227 [0x1C] WAIT(30* ticks)
 39: 0x022A [0x5B] LOAD_EXT_SCHEDULER: Load scheduler "tlk0" with entities [Arciela (ID: 17940511/0x0111C01F), Arciela (ID: 17940511/0x0111C01F)], work=3217*
 40: 0x0239 [0x2B] Arciela (ID: 17940511/0x0111C01F) [7702*]:
    → "<Player>? Are you looking for something here, too?"
 41: 0x0240 [0x23] WAIT_FOR_DIALOG_INTERACTION
 42: 0x0241 [0x5B] LOAD_EXT_SCHEDULER: Load scheduler "tlk1" with entities [Arciela (ID: 17940511/0x0111C01F), Arciela (ID: 17940511/0x0111C01F)], work=3217*
 43: 0x0250 [0x2A] GET_REQ_LEVEL(level=5, entity_id=LocalPlayer)
 44: 0x0256 [0x52] END_LOAD_SCHEDULER: End scheduler "s077" with entities [EventEntity, EventEntity], work=623*
 45: 0x0265 [0x40] SET_BIT_WORK_RANGE(start_bit=0*, end_bit=1*, target=ExtData[1]->WorkLocal[2], source=0*)
 46: 0x026E [0x40] SET_BIT_WORK_RANGE(start_bit=2*, end_bit=3*, target=ExtData[1]->WorkLocal[2], source=0*)
 47: 0x0277 [0x40] SET_BIT_WORK_RANGE(start_bit=4*, end_bit=5*, target=ExtData[1]->WorkLocal[2], source=0*)
 48: 0x0280 [0x45] LOAD_SCHEDULED_TASK: Load scheduler "s078" with entities [EventEntity, EventEntity], work=[623*, 0*]
 49: 0x0291 [0x24] CREATE_DIALOG(message_id=7703*, default_option=0*, option_flags=0*)
    → "What will you ask? [What's bothering you?/What kind of sweets do you like?/What kind of guys are you into?]"
 50: 0x0298 [0x25] WAIT_DIALOG_SELECT()
 51: 0x0299 [0x02] IF !(Work_Zone[0] == 0*) GOTO 0x035C
 52: 0x02A1 [0x7B] Arciela (ID: 17940511/0x0111C01F) stops talking
 53: 0x02A6 [0x52] END_LOAD_SCHEDULER: End scheduler "s078" with entities [EventEntity, EventEntity], work=623*
 54: 0x02B5 [0x45] LOAD_SCHEDULED_TASK: Load scheduler "s079" with entities [EventEntity, EventEntity], work=[623*, 0*]
 55: 0x02C6 [0x81] SET_ENTITY_BLINKING(blink_flag=0x00, entity=Arciela (ID: 17940511/0x0111C01F))
 56: 0x02CC [0x7C] Arciela (ID: 17940511/0x0111C01F)->Render.Flags2 |= 0x00
 57: 0x02D2 [0x5B] LOAD_EXT_SCHEDULER: Load scheduler "utu0" with entities [Arciela (ID: 17940511/0x0111C01F), Arciela (ID: 17940511/0x0111C01F)], work=3230*
 58: 0x02E1 [0x2B] Arciela (ID: 17940511/0x0111C01F) [7706*]:
    → "Am I that easy to read...? <Sigh>...I suppose you aren't the only one who's noticed..."
 59: 0x02E8 [0x23] WAIT_FOR_DIALOG_INTERACTION
 60: 0x02E9 [0x81] SET_ENTITY_BLINKING(blink_flag=0x01, entity=Arciela (ID: 17940511/0x0111C01F))
 61: 0x02EF [0x7C] Arciela (ID: 17940511/0x0111C01F)->Render.Flags2 |= 0x01
 62: 0x02F5 [0x5B] LOAD_EXT_SCHEDULER: Load scheduler "utu1" with entities [Arciela (ID: 17940511/0x0111C01F), Arciela (ID: 17940511/0x0111C01F)], work=3230*
 63: 0x0304 [0x79] Arciela (ID: 17940511/0x0111C01F) looks at LocalPlayer (Basic look)
 64: 0x030E [0x02] IF !(ExtData[1]->WorkLocal[1] == 0*) GOTO 0x0347
 65: 0x0316 [0x41] Work_Zone[2] = ExtData[1]->WorkLocal[2] (bits 0*-1*)
 66: 0x031F [0x02] IF !(Work_Zone[2] >= 3*) GOTO 0x0347
 67: 0x0327 [0x03] Work_Zone[1] = 1*
 68: 0x032C [0x43] SEND_EVENT_UPDATE: Send pending tag to server (packet 0x005B)
 69: 0x032E [0x43] SEND_EVENT_UPDATE: Check pending flag (skip if not pending)
 70: 0x0330 [0x41] Work_Zone[2] = ExtData[1]->WorkLocal[2] (bits 0*-1*)
 71: 0x0339 [0x07] Work_Zone[2] += 1*
 72: 0x033E [0x40] SET_BIT_WORK_RANGE(start_bit=0*, end_bit=1*, target=ExtData[1]->WorkLocal[2], source=Work_Zone[2])
 73: 0x0347 [0x52] END_LOAD_SCHEDULER: End scheduler "s079" with entities [EventEntity, EventEntity], work=623*
 74: 0x0356 [0x01] GOTO 0x0280

SUBROUTINE_04D6:
 75: 0x04D6 [0x52] END_LOAD_SCHEDULER: End scheduler "s078" with entities [EventEntity, EventEntity], work=623*
 76: 0x04E5 [0x45] LOAD_SCHEDULED_TASK: Load scheduler "s080" with entities [EventEntity, EventEntity], work=[623*, 0*]
 77: 0x04F6 [0x81] SET_ENTITY_BLINKING(blink_flag=0x00, entity=Arciela (ID: 17940511/0x0111C01F))
 78: 0x04FC [0x7C] Arciela (ID: 17940511/0x0111C01F)->Render.Flags2 |= 0x00
 79: 0x0502 [0x5B] LOAD_EXT_SCHEDULER: Load scheduler "swe0" with entities [Arciela (ID: 17940511/0x0111C01F), Arciela (ID: 17940511/0x0111C01F)], work=3309*
 80: 0x0511 [0x2B] Arciela (ID: 17940511/0x0111C01F) [7707*]:
    → "My what!?"
 81: 0x0518 [0x23] WAIT_FOR_DIALOG_INTERACTION
 82: 0x0519 [0x2B] Arciela (ID: 17940511/0x0111C01F) [7708*]:
    → "Sweets!? My favorite kind of sweets!?"
 83: 0x0520 [0x23] WAIT_FOR_DIALOG_INTERACTION
 84: 0x0521 [0x4E] SET_ENTITY_HIDE_FLAG: Show Andreine (ID: 17940495/0x0111C00F)
 85: 0x0527 [0x80] LOAD_WAIT(entity=Andreine (ID: 17940495/0x0111C00F))
 86: 0x052C [0x53] WAIT_SCHEDULER_TASK: Wait for scheduler "swe0" with entities [Arciela (ID: 17940511/0x0111C01F), Arciela (ID: 17940511/0x0111C01F)]
 87: 0x0539 [0x27] REQ_SET(priority=0x05, entity_id=Andreine (ID: 17940495/0x0111C00F), tag_num=0x07)
 88: 0x0540 [0x1C] WAIT(60* ticks)
 89: 0x0543 [0x52] END_LOAD_SCHEDULER: End scheduler "s080" with entities [EventEntity, EventEntity], work=623*
 90: 0x0552 [0x45] LOAD_SCHEDULED_TASK: Load scheduler "s081" with entities [EventEntity, EventEntity], work=[623*, 0*]
 91: 0x0563 [0x7B] Arciela (ID: 17940511/0x0111C01F) stops talking
 92: 0x0568 [0x1C] WAIT(15* ticks)
 93: 0x056B [0x4A] Reja Ygridhi (ID: 17940500/0x0111C014) looks at Arciela (ID: 17940511/0x0111C01F)
 94: 0x0574 [0xBA] SET_ENTITY_POSITION(entity_id=LocalPlayer, pos_x=-112.638*, pos_z=-93.593*, pos_y=-2.150*, direction=122.5°*)
 95: 0x0581 [0x80] LOAD_WAIT(entity=LocalPlayer)
 96: 0x0586 [0x4A] LocalPlayer looks at Arciela (ID: 17940511/0x0111C01F)
 97: 0x058F [0x1C] WAIT(30* ticks)
 98: 0x0592 [0x6E] Reja Ygridhi (ID: 17940500/0x0111C014) uses emote 26*
 99: 0x0599 [0x99] Wait for Reja Ygridhi (ID: 17940500/0x0111C014) animation to complete
100: 0x059E [0x2A] GET_REQ_LEVEL(level=5, entity_id=Andreine (ID: 17940495/0x0111C00F))
101: 0x05A4 [0x66] LOAD_EXT_SCHEDULER_MAIN: Load scheduler "tlk0" with entities [Andreine (ID: 17940495/0x0111C00F), Andreine (ID: 17940495/0x0111C00F)], work=39*
102: 0x05B3 [0x2B] Andreine (ID: 17940495/0x0111C00F) [7709*]:
    → "Dear princess, please remember that you are in a place of learning."
103: 0x05BA [0x23] WAIT_FOR_DIALOG_INTERACTION
104: 0x05BB [0x66] LOAD_EXT_SCHEDULER_MAIN: Load scheduler "tlk1" with entities [Andreine (ID: 17940495/0x0111C00F), Andreine (ID: 17940495/0x0111C00F)], work=39*
105: 0x05CA [0x52] END_LOAD_SCHEDULER: End scheduler "s081" with entities [EventEntity, EventEntity], work=623*
106: 0x05D9 [0x45] LOAD_SCHEDULED_TASK: Load scheduler "s180" with entities [EventEntity, EventEntity], work=[623*, 0*]
107: 0x05EA [0x5B] LOAD_EXT_SCHEDULER: Load scheduler "swe1" with entities [Arciela (ID: 17940511/0x0111C01F), Arciela (ID: 17940511/0x0111C01F)], work=3309*
108: 0x05F9 [0x2B] Arciela (ID: 17940511/0x0111C01F) [7710*]:
    → "Oh my...please forgive me. I promise to be quieter."
109: 0x0600 [0x23] WAIT_FOR_DIALOG_INTERACTION
110: 0x0601 [0x53] WAIT_SCHEDULER_TASK: Wait for scheduler "swe1" with entities [Arciela (ID: 17940511/0x0111C01F), Arciela (ID: 17940511/0x0111C01F)]
111: 0x060E [0x5B] LOAD_EXT_SCHEDULER: Load scheduler "swe2" with entities [Arciela (ID: 17940511/0x0111C01F), Arciela (ID: 17940511/0x0111C01F)], work=3309*
112: 0x061D [0x52] END_LOAD_SCHEDULER: End scheduler "s180" with entities [EventEntity, EventEntity], work=623*
113: 0x062C [0x45] LOAD_SCHEDULED_TASK: Load scheduler "s182" with entities [EventEntity, EventEntity], work=[623*, 0*]
114: 0x063D [0x4B] UPDATE_ENTITY_YAW(entity=Reja Ygridhi (ID: 17940500/0x0111C014), yaw=8.8°*)
115: 0x0644 [0x1C] WAIT(90* ticks)
116: 0x0647 [0x4E] SET_ENTITY_HIDE_FLAG: Hide Andreine (ID: 17940495/0x0111C00F)
117: 0x064D [0xBA] SET_ENTITY_POSITION(entity_id=Andreine (ID: 17940495/0x0111C00F), pos_x=-107.282*, pos_z=-91.727*, pos_y=-2.150*, direction=122.6°*)
118: 0x065A [0x66] LOAD_EXT_SCHEDULER_MAIN: Load scheduler "thk1" with entities [Reja Ygridhi (ID: 17940500/0x0111C014), Reja Ygridhi (ID: 17940500/0x0111C014)], work=59*
119: 0x0669 [0x2B] Arciela (ID: 17940511/0x0111C01F) [7711*]:
    → "<Cough>"
120: 0x0670 [0x23] WAIT_FOR_DIALOG_INTERACTION
121: 0x0671 [0x53] WAIT_SCHEDULER_TASK: Wait for scheduler "swe2" with entities [Arciela (ID: 17940511/0x0111C01F), Arciela (ID: 17940511/0x0111C01F)]
122: 0x067E [0x52] END_LOAD_SCHEDULER: End scheduler "s182" with entities [EventEntity, EventEntity], work=623*
123: 0x068D [0x45] LOAD_SCHEDULED_TASK: Load scheduler "s082" with entities [EventEntity, EventEntity], work=[623*, 0*]
124: 0x069E [0x5B] LOAD_EXT_SCHEDULER: Load scheduler "swe3" with entities [Arciela (ID: 17940511/0x0111C01F), Arciela (ID: 17940511/0x0111C01F)], work=3310*
125: 0x06AD [0x2B] Arciela (ID: 17940511/0x0111C01F) [7712*]:
    → "My, uh...favorite sweets. Right..."
126: 0x06B4 [0x23] WAIT_FOR_DIALOG_INTERACTION
127: 0x06B5 [0x7B] Andreine (ID: 17940495/0x0111C00F) stops talking
128: 0x06BA [0x53] WAIT_SCHEDULER_TASK: Wait for scheduler "swe3" with entities [Arciela (ID: 17940511/0x0111C01F), Arciela (ID: 17940511/0x0111C01F)]
129: 0x06C7 [0x5B] LOAD_EXT_SCHEDULER: Load scheduler "swe4" with entities [Arciela (ID: 17940511/0x0111C01F), Arciela (ID: 17940511/0x0111C01F)], work=3310*
130: 0x06D6 [0x52] END_LOAD_SCHEDULER: End scheduler "s082" with entities [EventEntity, EventEntity], work=623*
131: 0x06E5 [0x45] LOAD_SCHEDULED_TASK: Load scheduler "s083" with entities [EventEntity, EventEntity], work=[623*, 0*]
132: 0x06F6 [0x2B] Arciela (ID: 17940511/0x0111C01F) [7713*]:
    → "Maybe chocolate crepes with white honey...or witch nougat smothered with maple sugar."
133: 0x06FD [0x23] WAIT_FOR_DIALOG_INTERACTION
134: 0x06FE [0x53] WAIT_SCHEDULER_TASK: Wait for scheduler "swe4" with entities [Arciela (ID: 17940511/0x0111C01F), Arciela (ID: 17940511/0x0111C01F)]
135: 0x070B [0x5B] LOAD_EXT_SCHEDULER: Load scheduler "swe5" with entities [Arciela (ID: 17940511/0x0111C01F), Arciela (ID: 17940511/0x0111C01F)], work=3311*
136: 0x071A [0x52] END_LOAD_SCHEDULER: End scheduler "s083" with entities [EventEntity, EventEntity], work=623*
137: 0x0729 [0x45] LOAD_SCHEDULED_TASK: Load scheduler "s084" with entities [EventEntity, EventEntity], work=[623*, 0*]
138: 0x073A [0x7C] Arciela (ID: 17940511/0x0111C01F)->Render.Flags2 |= 0x01
139: 0x0740 [0x2B] Arciela (ID: 17940511/0x0111C01F) [7714*]:
    → "And of course, who can forget gateau aux fraises? The tartness of the berries is just to die for."
140: 0x0747 [0x23] WAIT_FOR_DIALOG_INTERACTION
141: 0x0748 [0xBA] SET_ENTITY_POSITION(entity_id=Reja Ygridhi (ID: 17940500/0x0111C014), pos_x=-112.090*, pos_z=-98.696*, pos_y=-2.150*, direction=0.0°*)
142: 0x0755 [0x53] WAIT_SCHEDULER_TASK: Wait for scheduler "swe5" with entities [Arciela (ID: 17940511/0x0111C01F), Arciela (ID: 17940511/0x0111C01F)]
143: 0x0762 [0x52] END_LOAD_SCHEDULER: End scheduler "s084" with entities [EventEntity, EventEntity], work=623*
144: 0x0771 [0x45] LOAD_SCHEDULED_TASK: Load scheduler "s181" with entities [EventEntity, EventEntity], work=[623*, 0*]
145: 0x0782 [0x7C] Arciela (ID: 17940511/0x0111C01F)->Render.Flags2 |= 0x00
146: 0x0788 [0x5B] LOAD_EXT_SCHEDULER: Load scheduler "swe6" with entities [Arciela (ID: 17940511/0x0111C01F), Arciela (ID: 17940511/0x0111C01F)], work=3311*
147: 0x0797 [0x2B] Arciela (ID: 17940511/0x0111C01F) [7715*]:
    → "Grennith always told me that I ate too much and would balloon up like a swamp frog... ...Wait. Why are we talking about this, again?"
148: 0x079E [0x23] WAIT_FOR_DIALOG_INTERACTION
149: 0x079F [0x53] WAIT_SCHEDULER_TASK: Wait for scheduler "swe6" with entities [Arciela (ID: 17940511/0x0111C01F), Arciela (ID: 17940511/0x0111C01F)]
150: 0x07AC [0x52] END_LOAD_SCHEDULER: End scheduler "s181" with entities [EventEntity, EventEntity], work=623*
151: 0x07BB [0x02] IF !(LocalPlayer->Race == 3*) GOTO 0x07D7
152: 0x07C3 [0x45] LOAD_SCHEDULED_TASK: Load scheduler "s194" with entities [EventEntity, EventEntity], work=[623*, 0*]
153: 0x07D4 [0x01] GOTO 0x0858
154: 0x07D7 [0x02] IF !(LocalPlayer->Race == 4*) GOTO 0x07F3
155: 0x07DF [0x45] LOAD_SCHEDULED_TASK: Load scheduler "s194" with entities [EventEntity, EventEntity], work=[623*, 0*]
156: 0x07F0 [0x01] GOTO 0x0858
157: 0x07F3 [0x02] IF !(LocalPlayer->Race == 5*) GOTO 0x080F
158: 0x07FB [0x45] LOAD_SCHEDULED_TASK: Load scheduler "s183" with entities [EventEntity, EventEntity], work=[623*, 0*]
159: 0x080C [0x01] GOTO 0x0858
160: 0x080F [0x02] IF !(LocalPlayer->Race == 6*) GOTO 0x082B
161: 0x0817 [0x45] LOAD_SCHEDULED_TASK: Load scheduler "s183" with entities [EventEntity, EventEntity], work=[623*, 0*]
162: 0x0828 [0x01] GOTO 0x0858
163: 0x082B [0x02] IF !(LocalPlayer->Race == 8*) GOTO 0x0847
164: 0x0833 [0x45] LOAD_SCHEDULED_TASK: Load scheduler "s194" with entities [EventEntity, EventEntity], work=[623*, 0*]
165: 0x0844 [0x01] GOTO 0x0858
166: 0x0847 [0x45] LOAD_SCHEDULED_TASK: Load scheduler "s085" with entities [EventEntity, EventEntity], work=[623*, 0*]

SUBROUTINE_0858:
167: 0x0858 [0x24] CREATE_DIALOG(message_id=7716*, default_option=0*, option_flags=0*)
    → "Why did you broach this topic? [Because I wanted to cheer you up.]"
168: 0x085F [0x25] WAIT_DIALOG_SELECT()
169: 0x0860 [0x02] IF !(Work_Zone[0] == 0*) GOTO 0x086B
170: 0x0868 [0x01] GOTO 0x086B

SUBROUTINE_086B:
171: 0x086B [0x27] REQ_SET(priority=0x05, entity_id=LocalPlayer, tag_num=0x07)
172: 0x0872 [0x1C] WAIT(80* ticks)
173: 0x0875 [0x6B] STOP_AND_IDLE: Arciela (ID: 17940511/0x0111C01F) stops current action and resets to idle (animation="idl0")
174: 0x087E [0x27] REQ_SET(priority=0x05, entity_id=LocalPlayer, tag_num=0x08)
175: 0x0885 [0x1C] WAIT(40* ticks)
176: 0x0888 [0x5B] LOAD_EXT_SCHEDULER: Load scheduler "que0" with entities [Arciela (ID: 17940511/0x0111C01F), Arciela (ID: 17940511/0x0111C01F)], work=3308*
177: 0x0897 [0x52] END_LOAD_SCHEDULER: End scheduler "s085" with entities [EventEntity, EventEntity], work=623*
178: 0x08A6 [0x52] END_LOAD_SCHEDULER: End scheduler "s183" with entities [EventEntity, EventEntity], work=623*
179: 0x08B5 [0x52] END_LOAD_SCHEDULER: End scheduler "s194" with entities [EventEntity, EventEntity], work=623*
180: 0x08C4 [0x45] LOAD_SCHEDULED_TASK: Load scheduler "s086" with entities [EventEntity, EventEntity], work=[623*, 0*]
181: 0x08D5 [0x2B] Arciela (ID: 17940511/0x0111C01F) [7717*]:
    → "Well...you certainly did succeed in surprising me."
182: 0x08DC [0x23] WAIT_FOR_DIALOG_INTERACTION
183: 0x08DD [0x53] WAIT_SCHEDULER_TASK: Wait for scheduler "que0" with entities [Arciela (ID: 17940511/0x0111C01F), Arciela (ID: 17940511/0x0111C01F)]
184: 0x08EA [0x52] END_LOAD_SCHEDULER: End scheduler "s086" with entities [EventEntity, EventEntity], work=623*
185: 0x08F9 [0x02] IF !(LocalPlayer->Race == 5*) GOTO 0x0915
186: 0x0901 [0x45] LOAD_SCHEDULED_TASK: Load scheduler "s088" with entities [EventEntity, EventEntity], work=[623*, 0*]
187: 0x0912 [0x01] GOTO 0x0942
188: 0x0915 [0x02] IF !(LocalPlayer->Race == 6*) GOTO 0x0931
189: 0x091D [0x45] LOAD_SCHEDULED_TASK: Load scheduler "s088" with entities [EventEntity, EventEntity], work=[623*, 0*]
190: 0x092E [0x01] GOTO 0x0942
191: 0x0931 [0x45] LOAD_SCHEDULED_TASK: Load scheduler "s087" with entities [EventEntity, EventEntity], work=[623*, 0*]

SUBROUTINE_0942:
192: 0x0942 [0x2B] Arciela (ID: 17940511/0x0111C01F) [7718*]:
    → "...You were really that concerned about me?"
193: 0x0949 [0x23] WAIT_FOR_DIALOG_INTERACTION
194: 0x094A [0x52] END_LOAD_SCHEDULER: End scheduler "s087" with entities [EventEntity, EventEntity], work=623*
195: 0x0959 [0x52] END_LOAD_SCHEDULER: End scheduler "s088" with entities [EventEntity, EventEntity], work=623*
196: 0x0968 [0x45] LOAD_SCHEDULED_TASK: Load scheduler "s089" with entities [EventEntity, EventEntity], work=[623*, 0*]
197: 0x0979 [0x5B] LOAD_EXT_SCHEDULER: Load scheduler "que1" with entities [Arciela (ID: 17940511/0x0111C01F), Arciela (ID: 17940511/0x0111C01F)], work=3308*
198: 0x0988 [0x2B] Arciela (ID: 17940511/0x0111C01F) [7719*]:
    → "Hehe! For at least one moment, you helped me forget my troubles."
199: 0x098F [0x23] WAIT_FOR_DIALOG_INTERACTION
200: 0x0990 [0x7C] Arciela (ID: 17940511/0x0111C01F)->Render.Flags2 |= 0x01
201: 0x0996 [0x2B] Arciela (ID: 17940511/0x0111C01F) [7720*]:
    → "Whoever would have thought you'd come all this way just to talk to me about desserts!"
202: 0x099D [0x23] WAIT_FOR_DIALOG_INTERACTION
203: 0x099E [0x53] WAIT_SCHEDULER_TASK: Wait for scheduler "que1" with entities [Arciela (ID: 17940511/0x0111C01F), Arciela (ID: 17940511/0x0111C01F)]
204: 0x09AB [0x52] END_LOAD_SCHEDULER: End scheduler "s089" with entities [EventEntity, EventEntity], work=623*
205: 0x09BA [0x45] LOAD_SCHEDULED_TASK: Load scheduler "s090" with entities [EventEntity, EventEntity], work=[623*, 0*]
206: 0x09CB [0xD3] CLEAR_ENTITY_MOTION_QUEUE(condition_flag=0x00, entity_server_id=0x0111C01F)
207: 0x09D1 [0x5B] LOAD_EXT_SCHEDULER: Load scheduler "tla0" with entities [Arciela (ID: 17940511/0x0111C01F), Arciela (ID: 17940511/0x0111C01F)], work=3225*
208: 0x09E0 [0x2B] Arciela (ID: 17940511/0x0111C01F) [7721*]:
    → "You're always so kind to me, <Player>. We'll make sure to get back to this topic later!"
209: 0x09E7 [0x23] WAIT_FOR_DIALOG_INTERACTION
210: 0x09E8 [0x2B] Arciela (ID: 17940511/0x0111C01F) [7722*]:
    → "To be honest, there is something bothering me. Would you mind lending me your ear?"
211: 0x09EF [0x23] WAIT_FOR_DIALOG_INTERACTION
212: 0x09F0 [0x52] END_LOAD_SCHEDULER: End scheduler "s090" with entities [EventEntity, EventEntity], work=623*
213: 0x09FF [0x45] LOAD_SCHEDULED_TASK: Load scheduler "s091" with entities [EventEntity, EventEntity], work=[623*, 0*]
214: 0x0A10 [0x5B] LOAD_EXT_SCHEDULER: Load scheduler "tla1" with entities [Arciela (ID: 17940511/0x0111C01F), Arciela (ID: 17940511/0x0111C01F)], work=3225*
215: 0x0A1F [0x2B] Arciela (ID: 17940511/0x0111C01F) [7723*]:
    → "It's about my brother. Of course I'm worried what would happen if he never turned back to normal, but it's more than that."
216: 0x0A26 [0x23] WAIT_FOR_DIALOG_INTERACTION
217: 0x0A27 [0x5B] LOAD_EXT_SCHEDULER: Load scheduler "dyo0" with entities [Arciela (ID: 17940511/0x0111C01F), Arciela (ID: 17940511/0x0111C01F)], work=3233*
218: 0x0A36 [0x2B] Arciela (ID: 17940511/0x0111C01F) [7724*]:
    → "Why would he point at me? I've turned it over and over in my head, but I can't find the answer."
219: 0x0A3D [0x23] WAIT_FOR_DIALOG_INTERACTION
220: 0x0A3E [0x4E] SET_ENTITY_HIDE_FLAG: Show Andreine (ID: 17940495/0x0111C00F)
221: 0x0A44 [0x80] LOAD_WAIT(entity=Andreine (ID: 17940495/0x0111C00F))
222: 0x0A49 [0x27] REQ_SET(priority=0x05, entity_id=Andreine (ID: 17940495/0x0111C00F), tag_num=0x08)
223: 0x0A50 [0x1C] WAIT(30* ticks)
224: 0x0A53 [0x52] END_LOAD_SCHEDULER: End scheduler "s091" with entities [EventEntity, EventEntity], work=623*
225: 0x0A62 [0x45] LOAD_SCHEDULED_TASK: Load scheduler "s092" with entities [EventEntity, EventEntity], work=[623*, 0*]
226: 0x0A73 [0x2B] Arciela (ID: 17940511/0x0111C01F) [7725*]:
    → "Every person in the room had their own take on the matter, but I can't shake this feeling that none of them are right."
227: 0x0A7A [0x23] WAIT_FOR_DIALOG_INTERACTION
228: 0x0A7B [0x2B] Arciela (ID: 17940511/0x0111C01F) [7726*]:
    → "It's like...they're only saying what will help advance their agendas."
229: 0x0A82 [0x23] WAIT_FOR_DIALOG_INTERACTION
230: 0x0A83 [0x53] WAIT_SCHEDULER_TASK: Wait for scheduler "dyo0" with entities [Arciela (ID: 17940511/0x0111C01F), Arciela (ID: 17940511/0x0111C01F)]
231: 0x0A90 [0x7C] Arciela (ID: 17940511/0x0111C01F)->Render.Flags2 |= 0x00
232: 0x0A96 [0x5B] LOAD_EXT_SCHEDULER: Load scheduler "cry0" with entities [Arciela (ID: 17940511/0x0111C01F), Arciela (ID: 17940511/0x0111C01F)], work=3312*
233: 0x0AA5 [0x52] END_LOAD_SCHEDULER: End scheduler "s092" with entities [EventEntity, EventEntity], work=623*
234: 0x0AB4 [0x45] LOAD_SCHEDULED_TASK: Load scheduler "s093" with entities [EventEntity, EventEntity], work=[623*, 0*]
235: 0x0AC5 [0x2B] Arciela (ID: 17940511/0x0111C01F) [7727*]:
    → "I don't know what he really meant, but I do know that his words were heartfelt. As they have been ever since we were little children."
236: 0x0ACC [0x23] WAIT_FOR_DIALOG_INTERACTION
237: 0x0ACD [0x53] WAIT_SCHEDULER_TASK: Wait for scheduler "cry0" with entities [Arciela (ID: 17940511/0x0111C01F), Arciela (ID: 17940511/0x0111C01F)]
238: 0x0ADA [0x52] END_LOAD_SCHEDULER: End scheduler "s093" with entities [EventEntity, EventEntity], work=623*
239: 0x0AE9 [0x45] LOAD_SCHEDULED_TASK: Load scheduler "s094" with entities [EventEntity, EventEntity], work=[623*, 0*]
240: 0x0AFA [0x5B] LOAD_EXT_SCHEDULER: Load scheduler "cry1" with entities [Arciela (ID: 17940511/0x0111C01F), Arciela (ID: 17940511/0x0111C01F)], work=3312*
241: 0x0B09 [0xCD] LOAD_SCHEDULED_TASK_ALT4: Load scheduler "s000" with entities [Arciela (ID: 17940511/0x0111C01F), Arciela (ID: 17940511/0x0111C01F)], work=[170*, 0*]
242: 0x0B1A [0x2B] Arciela (ID: 17940511/0x0111C01F) [7728*]:
    → "I just don't understand...what am I supposed to do?"
243: 0x0B21 [0x23] WAIT_FOR_DIALOG_INTERACTION
244: 0x0B22 [0x2B] Arciela (ID: 17940511/0x0111C01F) [7729*]:
    → "Should we keep making inroads into Ulbuka?"
245: 0x0B29 [0x23] WAIT_FOR_DIALOG_INTERACTION
246: 0x0B2A [0x2B] Arciela (ID: 17940511/0x0111C01F) [7730*]:
    → "Or should we give up and withdraw, like the founder king bids?"
247: 0x0B31 [0x23] WAIT_FOR_DIALOG_INTERACTION
248: 0x0B32 [0x52] END_LOAD_SCHEDULER: End scheduler "s094" with entities [EventEntity, EventEntity], work=623*
249: 0x0B41 [0x45] LOAD_SCHEDULED_TASK: Load scheduler "s095" with entities [EventEntity, EventEntity], work=[623*, 0*]
250: 0x0B52 [0x2B] Arciela (ID: 17940511/0x0111C01F) [7731*]:
    → "The arguments rage on with increasing viciousness each passing day."
251: 0x0B59 [0x23] WAIT_FOR_DIALOG_INTERACTION
252: 0x0B5A [0x2B] Arciela (ID: 17940511/0x0111C01F) [7732*]:
    → "What if the city becomes even more divided? What if this breaks into all-out civil war?"
253: 0x0B61 [0x23] WAIT_FOR_DIALOG_INTERACTION
254: 0x0B62 [0x2B] Arciela (ID: 17940511/0x0111C01F) [7733*]:
    → "If that were to happen, whether or not we colonize the continent will seem but a minor squabble."
255: 0x0B69 [0x23] WAIT_FOR_DIALOG_INTERACTION
256: 0x0B6A [0x52] END_LOAD_SCHEDULER: End scheduler "s095" with entities [EventEntity, EventEntity], work=623*
257: 0x0B79 [0x45] LOAD_SCHEDULED_TASK: Load scheduler "s096" with entities [EventEntity, EventEntity], work=[623*, 0*]
258: 0x0B8A [0x2B] Arciela (ID: 17940511/0x0111C01F) [7734*]:
    → "And what's more...I get the feeling that the anomalies happening through Ulbuka are not wholly related to colonization."
259: 0x0B91 [0x23] WAIT_FOR_DIALOG_INTERACTION
260: 0x0B92 [0x2B] Arciela (ID: 17940511/0x0111C01F) [7735*]:
    → "We've long known that beasts lurk in the jungles--but now there are some creatures that we've never even heard of until recently."
261: 0x0B99 [0x23] WAIT_FOR_DIALOG_INTERACTION
262: 0x0B9A [0x52] END_LOAD_SCHEDULER: End scheduler "s096" with entities [EventEntity, EventEntity], work=623*
263: 0x0BA9 [0x45] LOAD_SCHEDULED_TASK: Load scheduler "s097" with entities [EventEntity, EventEntity], work=[623*, 0*]
264: 0x0BBA [0x2B] Arciela (ID: 17940511/0x0111C01F) [7736*]:
    → "Why couldn't my brother be more clear with his guidance?"
265: 0x0BC1 [0x23] WAIT_FOR_DIALOG_INTERACTION
266: 0x0BC2 [0xCD] LOAD_SCHEDULED_TASK_ALT4: Load scheduler "s001" with entities [Arciela (ID: 17940511/0x0111C01F), Arciela (ID: 17940511/0x0111C01F)], work=[170*, 0*]
267: 0x0BD3 [0x2B] Arciela (ID: 17940511/0x0111C01F) [7737*]:
    → "Or is it just as you said? Has his illness progressed to the point where we can't even telepathically communicate with him...and he's become a leafkin in more than just flesh?"
268: 0x0BDA [0x23] WAIT_FOR_DIALOG_INTERACTION
269: 0x0BDB [0x52] END_LOAD_SCHEDULER: End scheduler "s097" with entities [EventEntity, EventEntity], work=623*
270: 0x0BEA [0x45] LOAD_SCHEDULED_TASK: Load scheduler "s189" with entities [EventEntity, EventEntity], work=[623*, 0*]
271: 0x0BFB [0x6E] LocalPlayer uses emote 29*
272: 0x0C02 [0x99] Wait for LocalPlayer animation to complete
273: 0x0C07 [0x1C] WAIT(120* ticks)
274: 0x0C0A [0x52] END_LOAD_SCHEDULER: End scheduler "s189" with entities [EventEntity, EventEntity], work=623*
275: 0x0C19 [0x45] LOAD_SCHEDULED_TASK: Load scheduler "s098" with entities [EventEntity, EventEntity], work=[623*, 0*]
276: 0x0C2A [0x1C] WAIT(120* ticks)
277: 0x0C2D [0x52] END_LOAD_SCHEDULER: End scheduler "s098" with entities [EventEntity, EventEntity], work=623*
278: 0x0C3C [0x45] LOAD_SCHEDULED_TASK: Load scheduler "s200" with entities [EventEntity, EventEntity], work=[623*, 0*]
279: 0x0C4D [0x5B] LOAD_EXT_SCHEDULER: Load scheduler "cry2" with entities [Arciela (ID: 17940511/0x0111C01F), Arciela (ID: 17940511/0x0111C01F)], work=3312*
280: 0x0C5C [0xCD] LOAD_SCHEDULED_TASK_ALT4: Load scheduler "s002" with entities [Arciela (ID: 17940511/0x0111C01F), Arciela (ID: 17940511/0x0111C01F)], work=[170*, 0*]
281: 0x0C6D [0x1C] WAIT(60* ticks)
282: 0x0C70 [0x2B] Arciela (ID: 17940511/0x0111C01F) [7738*]:
    → "I-I'm sorry, <Player>. All of this is so overwhelming."
283: 0x0C77 [0x23] WAIT_FOR_DIALOG_INTERACTION
284: 0x0C78 [0x53] WAIT_SCHEDULER_TASK: Wait for scheduler "cry2" with entities [Arciela (ID: 17940511/0x0111C01F), Arciela (ID: 17940511/0x0111C01F)]
285: 0x0C85 [0x1A] CALL_SUBROUTINE(address=0x53AA)
286: 0x0C88 [0x1C] WAIT(30* ticks)
287: 0x0C8B [0x52] END_LOAD_SCHEDULER: End scheduler "s200" with entities [EventEntity, EventEntity], work=623*
288: 0x0C9A [0xCD] LOAD_SCHEDULED_TASK_ALT4: Load scheduler "kall" with entities [Arciela (ID: 17940511/0x0111C01F), Arciela (ID: 17940511/0x0111C01F)], work=[170*, 0*]
289: 0x0CAB [0x2F] Unnamed NPC (ID: 17940512/0x0111C020)->Render.Flags0 &= ~0x80000 // Bit 19
290: 0x0CB1 [0x2F] Unnamed NPC (ID: 17940513/0x0111C021)->Render.Flags0 &= ~0x80000 // Bit 19
291: 0x0CB7 [0x4E] SET_ENTITY_HIDE_FLAG: Show Unnamed NPC (ID: 17940512/0x0111C020)
292: 0x0CBD [0x4E] SET_ENTITY_HIDE_FLAG: Show Unnamed NPC (ID: 17940513/0x0111C021)
293: 0x0CC3 [0x22] ENTITY_HIDE_FLAG(enabled=0x00)
294: 0x0CC5 [0x94] Unnamed NPC (ID: 17940512/0x0111C020)->Render.Flags3 ^= 0x01
295: 0x0CCB [0x33] EventEntity->Render.Flags0 |= 0x200000 // Bit 21 (flag=0x01)
296: 0x0CCD [0x59] UPDATE_ENTITY_DATA: Arciela (ID: 17940511/0x0111C01F)->Render.Flags0 |= 0x200000
297: 0x0CD4 [0x59] UPDATE_ENTITY_DATA: Unnamed NPC (ID: 17940512/0x0111C020)->Render.Flags0 |= 0x200000
298: 0x0CDB [0x59] UPDATE_ENTITY_DATA: Unnamed NPC (ID: 17940513/0x0111C021)->Render.Flags0 |= 0x200000
299: 0x0CE2 [0xBA] SET_ENTITY_POSITION(entity_id=Arciela (ID: 17940511/0x0111C01F), pos_x=-102.658*, pos_z=-94.901*, pos_y=-33.149*, direction=130.3°*)
300: 0x0CEF [0xBA] SET_ENTITY_POSITION(entity_id=Unnamed NPC (ID: 17940512/0x0111C020), pos_x=-105.137*, pos_z=-95.765*, pos_y=-33.549*, direction=324.9°*)
301: 0x0CFC [0xBA] SET_ENTITY_POSITION(entity_id=Unnamed NPC (ID: 17940513/0x0111C021), pos_x=-105.137*, pos_z=-95.765*, pos_y=-33.549*, direction=324.9°*)
302: 0x0D09 [0x37] UPDATE_EVENT_POSITION_AND_DIR: x=-104.986*, z=-94.772*, y=-33.149*, direction=143.4°*
303: 0x0D12 [0x80] LOAD_WAIT(entity=EventEntity)
304: 0x0D17 [0x80] LOAD_WAIT(entity=Arciela (ID: 17940511/0x0111C01F))
305: 0x0D1C [0x80] LOAD_WAIT(entity=Unnamed NPC (ID: 17940512/0x0111C020))
306: 0x0D21 [0x4A] Arciela (ID: 17940511/0x0111C01F) looks at Unnamed NPC (ID: 17940512/0x0111C020)
307: 0x0D2A [0x4A] Unnamed NPC (ID: 17940512/0x0111C020) looks at Arciela (ID: 17940511/0x0111C01F)
308: 0x0D33 [0x1C] WAIT(30* ticks)
309: 0x0D36 [0x5B] LOAD_EXT_SCHEDULER: Load scheduler "yug0" with entities [Unnamed NPC (ID: 17940513/0x0111C021), Unnamed NPC (ID: 17940513/0x0111C021)], work=3322*
310: 0x0D45 [0xC5] LOAD_SCHEDULED_TASK_ALT3: Load scheduler 0x80073030 for entities [EventEntity, EventEntity], work=213*, param=12403
311: 0x0D56 [0x45] LOAD_SCHEDULED_TASK: Load scheduler "s099" with entities [EventEntity, EventEntity], work=[623*, 0*]
312: 0x0D67 [0x1C] WAIT(15* ticks)
313: 0x0D6A [0x1A] CALL_SUBROUTINE(address=0x5389)
314: 0x0D6D [0x2B] Arciela (ID: 17940511/0x0111C01F) [7739*]:
    → "Try as I might, I cannot unravel these mysteries by myself."
315: 0x0D74 [0x1C] WAIT(120* ticks)
316: 0x0D77 [0x5B] LOAD_EXT_SCHEDULER: Load scheduler "poi0" with entities [Unnamed NPC (ID: 17940512/0x0111C020), Unnamed NPC (ID: 17940512/0x0111C020)], work=3319*
317: 0x0D86 [0x45] LOAD_SCHEDULED_TASK: Load scheduler "ovl1" with entities [LocalPlayer, LocalPlayer], work=[200*, 0*]
318: 0x0D97 [0x52] END_LOAD_SCHEDULER: End scheduler "s099" with entities [EventEntity, EventEntity], work=623*
319: 0x0DA6 [0x45] LOAD_SCHEDULED_TASK: Load scheduler "s185" with entities [EventEntity, EventEntity], work=[623*, 0*]
320: 0x0DB7 [0x1C] WAIT(120* ticks)
321: 0x0DBA [0x23] WAIT_FOR_DIALOG_INTERACTION
322: 0x0DBB [0x1A] CALL_SUBROUTINE(address=0x53AA)
323: 0x0DBE [0x1C] WAIT(30* ticks)
324: 0x0DC1 [0x52] END_LOAD_SCHEDULER: End scheduler "s185" with entities [EventEntity, EventEntity], work=623*
325: 0x0DD0 [0xC5] LOAD_SCHEDULED_TASK_ALT3: Load scheduler 0x8007306C for entities [EventEntity, EventEntity], work=213*, param=26987
326: 0x0DE1 [0x81] SET_ENTITY_BLINKING(blink_flag=0x01, entity=Arciela (ID: 17940511/0x0111C01F))
327: 0x0DE7 [0x7C] Arciela (ID: 17940511/0x0111C01F)->Render.Flags2 |= 0x01
328: 0x0DED [0xBA] SET_ENTITY_POSITION(entity_id=Arciela (ID: 17940511/0x0111C01F), pos_x=-114.449*, pos_z=-95.110*, pos_y=-2.149*, direction=175.5°*)
329: 0x0DFA [0x80] LOAD_WAIT(entity=Arciela (ID: 17940511/0x0111C01F))
330: 0x0DFF [0x4A] Arciela (ID: 17940511/0x0111C01F) looks at LocalPlayer
331: 0x0E08 [0x1C] WAIT(30* ticks)
332: 0x0E0B [0x45] LOAD_SCHEDULED_TASK: Load scheduler "s184" with entities [EventEntity, EventEntity], work=[623*, 0*]
333: 0x0E1C [0x1C] WAIT(15* ticks)
334: 0x0E1F [0x1A] CALL_SUBROUTINE(address=0x5389)
335: 0x0E22 [0x5B] LOAD_EXT_SCHEDULER: Load scheduler "tlk0" with entities [Arciela (ID: 17940511/0x0111C01F), Arciela (ID: 17940511/0x0111C01F)], work=3217*
336: 0x0E31 [0x2B] Arciela (ID: 17940511/0x0111C01F) [7740*]:
    → "That's why I've been coming here for the past few days, hoping to find something. Anything. But once again I've turned up empty-handed."
337: 0x0E38 [0x23] WAIT_FOR_DIALOG_INTERACTION
338: 0x0E39 [0x52] END_LOAD_SCHEDULER: End scheduler "s184" with entities [EventEntity, EventEntity], work=623*
339: 0x0E48 [0x45] LOAD_SCHEDULED_TASK: Load scheduler "s100" with entities [EventEntity, EventEntity], work=[623*, 0*]
340: 0x0E59 [0x03] Work_Zone[2] = 2410*
341: 0x0E5E [0x2B] Arciela (ID: 17940511/0x0111C01F) [7741*]:
    → "How about your $3? Has there been any change?"
342: 0x0E65 [0x23] WAIT_FOR_DIALOG_INTERACTION
343: 0x0E66 [0x5B] LOAD_EXT_SCHEDULER: Load scheduler "tlk1" with entities [Arciela (ID: 17940511/0x0111C01F), Arciela (ID: 17940511/0x0111C01F)], work=3217*
344: 0x0E75 [0x6E] LocalPlayer uses emote 6*
345: 0x0E7C [0x99] Wait for LocalPlayer animation to complete
346: 0x0E81 [0x1C] WAIT(90* ticks)
347: 0x0E84 [0x52] END_LOAD_SCHEDULER: End scheduler "s100" with entities [EventEntity, EventEntity], work=623*
348: 0x0E93 [0x45] LOAD_SCHEDULED_TASK: Load scheduler "s101" with entities [EventEntity, EventEntity], work=[623*, 0*]
349: 0x0EA4 [0x5B] LOAD_EXT_SCHEDULER: Load scheduler "yes0" with entities [Arciela (ID: 17940511/0x0111C01F), Arciela (ID: 17940511/0x0111C01F)], work=3231*
350: 0x0EB3 [0x2B] Arciela (ID: 17940511/0x0111C01F) [7742*]:
    → "I see... But I believe in you, <Player>. I know you'll be able to read into what he really wants."
351: 0x0EBA [0x23] WAIT_FOR_DIALOG_INTERACTION
352: 0x0EBB [0x5B] LOAD_EXT_SCHEDULER: Load scheduler "tlk0" with entities [Arciela (ID: 17940511/0x0111C01F), Arciela (ID: 17940511/0x0111C01F)], work=3217*
353: 0x0ECA [0x2B] Arciela (ID: 17940511/0x0111C01F) [7743*]:
    → "Rosulatia, the leafkin queen, would not have trusted you if she didn't see some spark there."
354: 0x0ED1 [0x23] WAIT_FOR_DIALOG_INTERACTION
355: 0x0ED2 [0x52] END_LOAD_SCHEDULER: End scheduler "s101" with entities [EventEntity, EventEntity], work=623*
356: 0x0EE1 [0x45] LOAD_SCHEDULED_TASK: Load scheduler "s102" with entities [EventEntity, EventEntity], work=[623*, 0*]
357: 0x0EF2 [0x2B] Arciela (ID: 17940511/0x0111C01F) [7744*]:
    → "I have not been able to leave the city walls of late, but you...you must be going to the mainland on a regular basis."
358: 0x0EF9 [0x23] WAIT_FOR_DIALOG_INTERACTION
359: 0x0EFA [0x2B] Arciela (ID: 17940511/0x0111C01F) [7745*]:
    → "Please. If you find something, anything--tell me right away."
360: 0x0F01 [0x23] WAIT_FOR_DIALOG_INTERACTION
361: 0x0F02 [0x5B] LOAD_EXT_SCHEDULER: Load scheduler "tlk1" with entities [Arciela (ID: 17940511/0x0111C01F), Arciela (ID: 17940511/0x0111C01F)], work=3217*
362: 0x0F11 [0x52] END_LOAD_SCHEDULER: End scheduler "s102" with entities [EventEntity, EventEntity], work=623*
363: 0x0F20 [0x45] LOAD_SCHEDULED_TASK: Load scheduler "s103" with entities [EventEntity, EventEntity], work=[623*, 0*]
364: 0x0F31 [0x2B] Arciela (ID: 17940511/0x0111C01F) [7746*]:
    → "I'll do what I can here. There's just got to be some tome that..."
365: 0x0F38 [0x23] WAIT_FOR_DIALOG_INTERACTION
366: 0x0F39 [0x5B] LOAD_EXT_SCHEDULER: Load scheduler "tla0" with entities [Arciela (ID: 17940511/0x0111C01F), Arciela (ID: 17940511/0x0111C01F)], work=3225*
367: 0x0F48 [0x2B] Arciela (ID: 17940511/0x0111C01F) [7747*]:
    → "Thank you for making the effort to come find me, <Player>. Perhaps I'll finally sleep better tonight."
368: 0x0F4F [0x23] WAIT_FOR_DIALOG_INTERACTION
369: 0x0F50 [0x1A] CALL_SUBROUTINE(address=0x53AA)
370: 0x0F53 [0x1C] WAIT(30* ticks)
371: 0x0F56 [0x52] END_LOAD_SCHEDULER: End scheduler "s103" with entities [EventEntity, EventEntity], work=623*
372: 0x0F65 [0x27] REQ_SET(priority=0x05, entity_id=Unnamed NPC (ID: 17940512/0x0111C020), tag_num=0x02)
373: 0x0F6C [0x1C] WAIT(15* ticks)
374: 0x0F6F [0xAB] EventEntity->DespawnValue = 0* // Set despawn value
375: 0x0F73 [0x1C] WAIT(1* ticks)
376: 0x0F76 [0xAB] EventEntity->UnknownFlag = 0 // Disable unknown flag
377: 0x0F78 [0x46] CAMERA_CONTROL: Restore default settings
378: 0x0F7A [0x45] LOAD_SCHEDULED_TASK: Load scheduler "fdi2" with entities [LocalPlayer, LocalPlayer], work=[200*, 0*]
379: 0x0F8B [0x21] END_EVENT
380: 0x0F8C [0x00] END_REQSTACK()
```

#### Data or dead code:

```
# Dead code (unreachable instructions):
     0x0359 [0x01] GOTO 0x04D6
     0x04D3 [0x01] GOTO 0x04D6
```

### Event 3

#### Metadata

| Field        | Value      |
|--------------|------------|
| Entrypoint   | 0x0F8D     |
| Data Size    | 2257 bytes |
| Instructions | 263        |

```
      00 01 02 03 04 05 06 07  08 09 0A 0B 0C 0D 0E 0F
      -- -- -- -- -- -- -- --  -- -- -- -- -- -- -- --
0F80:                                         42 1A AA               B..
0F90: 53 03 01 10 10 80 43 00  43 01 03 01 00 02 10 46  S.....C.C......F
0FA0: 01 38 00 80 2F 00 1F C0  11 01 2F 00 20 C0 11 01  .8../...../. ...
0FB0: 4E 00 1F C0 11 01 4E 00  20 C0 11 01 4E 00 F0 FF  N.....N. ...N...
0FC0: FF 7F 22 00 92 01 1F C0  11 01 92 01 0F C0 11 01  ..".............
0FD0: 94 01 1F C0 11 01 94 01  20 C0 11 01 94 01 0F C0  ........ .......
0FE0: 11 01 94 01 F0 FF FF 7F  33 01 BA 1F C0 11 01 7F  ........3.......
0FF0: 80 80 80 13 80 10 80 BA  20 C0 11 01 7F 80 80 80  ........ .......
1000: 13 80 10 80 BA F0 FF FF  7F 81 80 82 80 83 80 84  ................
1010: 80 BA 0F C0 11 01 85 80  86 80 13 80 87 80 37 88  ..............7.
1020: 80 89 80 8A 80 8B 80 80  1F C0 11 01 80 20 C0 11  ............. ..
1030: 01 80 F0 FF FF 7F 80 0F  C0 11 01 80 F0 FF FF 7F  ................
1040: 1C 05 80 81 00 1F C0 11  01 7C 00 1F C0 11 01 AE  .........|......
1050: 05 1F C0 11 01 20 C0 11  01 5B 8C 80 1F C0 11 01  ..... ...[......
1060: 1F C0 11 01 72 65 61 30  5B 8D 80 20 C0 11 01 20  ....rea0[.. ... 
1070: C0 11 01 72 65 61 30 27  05 0F C0 11 01 0A 27 05  ...rea0'......'.
