# 17940495 - Andreine

## Common Data

| Field            | Value                               |
|------------------|-------------------------------------|
| Zone             | Celennia Memorial Library (ID: 284) |
| Block Size       | 1592 bytes                          |
| Total Events     | 71                                  |
| References Count | 48                                  |

## List of Events

| Event ID                   | Entrypoint   |   Size |   Instructions |
|----------------------------|--------------|--------|----------------|
| [65535](#event-65535)      | 0x0000       |      1 |              1 |
| [13](#event-13)            | 0x0001       |     47 |             11 |
| [27](#event-27)            | 0x0030       |     47 |             11 |
| [10](#event-10)            | 0x005F       |      7 |              2 |
| [11](#event-11)            | 0x0066       |      7 |              2 |
| [12](#event-12)            | 0x006D       |     42 |             12 |
| [2](#event-2)              | 0x0097       |      1 |              1 |
| [65535.1](#event-655351)   | 0x0098       |     22 |              6 |
| [65535.2](#event-655352)   | 0x00AE       |     14 |              4 |
| [3](#event-3)              | 0x00BC       |      1 |              1 |
| [65535.3](#event-655353)   | 0x00BD       |     22 |              6 |
| [4](#event-4)              | 0x00D3       |      1 |              1 |
| [65535.4](#event-655354)   | 0x00D4       |     22 |              6 |
| [65535.5](#event-655355)   | 0x00EA       |     14 |              4 |
| [5](#event-5)              | 0x00F8       |      1 |              1 |
| [7](#event-7)              | 0x00F9       |      1 |              1 |
| [8](#event-8)              | 0x00FA       |     29 |              7 |
| [39](#event-39)            | 0x0117       |     29 |              7 |
| [40](#event-40)            | 0x0134       |      1 |              1 |
| [41](#event-41)            | 0x0135       |      1 |              1 |
| [37](#event-37)            | 0x0136       |      1 |              1 |
| [65535.6](#event-655356)   | 0x0137       |     16 |              4 |
| [65535.7](#event-655357)   | 0x0147       |     33 |              3 |
| [65535.8](#event-655358)   | 0x0168       |     33 |              3 |
| [65535.9](#event-655359)   | 0x0189       |     33 |              3 |
| [65535.10](#event-6553510) | 0x01AA       |     33 |              3 |
| [65535.11](#event-6553511) | 0x01CB       |     22 |              6 |
| [65535.12](#event-6553512) | 0x01E1       |     22 |              6 |
| [65535.13](#event-6553513) | 0x01F7       |     19 |              3 |
| [65535.14](#event-6553514) | 0x020A       |     40 |             10 |
| [43](#event-43)            | 0x0232       |      1 |              1 |
| [44](#event-44)            | 0x0233       |      1 |              1 |
| [45](#event-45)            | 0x0234       |      1 |              1 |
| [46](#event-46)            | 0x0235       |      1 |              1 |
| [47](#event-47)            | 0x0236       |      1 |              1 |
| [65535.15](#event-6553515) | 0x0237       |     16 |              2 |
| [65535.16](#event-6553516) | 0x0247       |     14 |              2 |
| [65535.17](#event-6553517) | 0x0255       |     16 |              2 |
| [65535.18](#event-6553518) | 0x0265       |     14 |              2 |
| [65535.19](#event-6553519) | 0x0273       |     16 |              2 |
| [65535.20](#event-6553520) | 0x0283       |     14 |              2 |
| [65535.21](#event-6553521) | 0x0291       |     16 |              2 |
| [65535.22](#event-6553522) | 0x02A1       |     14 |              2 |
| [65535.23](#event-6553523) | 0x02AF       |     16 |              2 |
| [65535.24](#event-6553524) | 0x02BF       |     14 |              2 |
| [65535.25](#event-6553525) | 0x02CD       |     16 |              2 |
| [65535.26](#event-6553526) | 0x02DD       |     14 |              2 |
| [65535.27](#event-6553527) | 0x02EB       |     16 |              2 |
| [65535.28](#event-6553528) | 0x02FB       |     14 |              2 |
| [65535.29](#event-6553529) | 0x0309       |     16 |              2 |
| [65535.30](#event-6553530) | 0x0319       |     14 |              2 |
| [65535.31](#event-6553531) | 0x0327       |     16 |              2 |
| [65535.32](#event-6553532) | 0x0337       |     14 |              2 |
| [65535.33](#event-6553533) | 0x0345       |     16 |              2 |
| [65535.34](#event-6553534) | 0x0355       |     14 |              2 |
| [65535.35](#event-6553535) | 0x0363       |     16 |              2 |
| [65535.36](#event-6553536) | 0x0373       |     14 |              2 |
| [65535.37](#event-6553537) | 0x0381       |     16 |              2 |
| [65535.38](#event-6553538) | 0x0391       |     14 |              2 |
| [65535.39](#event-6553539) | 0x039F       |     16 |              4 |
| [65535.40](#event-6553540) | 0x03AF       |     16 |              4 |
| [65535.41](#event-6553541) | 0x03BF       |     16 |              4 |
| [65535.42](#event-6553542) | 0x03CF       |     16 |              4 |
| [65535.43](#event-6553543) | 0x03DF       |     16 |              4 |
| [65535.44](#event-6553544) | 0x03EF       |     16 |              4 |
| [65535.45](#event-6553545) | 0x03FF       |     16 |              4 |
| [65535.46](#event-6553546) | 0x040F       |     16 |              4 |
| [65535.47](#event-6553547) | 0x041F       |     16 |              4 |
| [65535.48](#event-6553548) | 0x042F       |     16 |              4 |
| [65535.49](#event-6553549) | 0x043F       |      9 |              3 |
| [48](#event-48)            | 0x0448       |      1 |              1 |

## DAT References (imed_data)

|   Index | Hex Value   |   Dec Value |
|---------|-------------|-------------|
|       0 | 0x0027      |          39 |
|       1 | 0x1C83      |        7299 |
|       2 | 0x1C84      |        7300 |
|       3 | 0x1C85      |        7301 |
|       4 | 0x001E      |          30 |
|       5 | 0x1C80      |        7296 |
|       6 | 0x0927      |        2343 |
|       7 | 0x1C81      |        7297 |
|       8 | 0x1C82      |        7298 |
|       9 | 0x000D      |          13 |
|      10 | 0xFFFE4B1A  |  4294855450 |
|      11 | 0xFFFE7BCE  |  4294867918 |
|      12 | 0xFFFFF79A  |  4294965146 |
|      13 | 0xFFFE6482  |  4294861954 |
|      14 | 0xFFFE7D68  |  4294868328 |
|      15 | 0xFFFE807B  |  4294869115 |
|      16 | 0xFFFEA706  |  4294878982 |
|      17 | 0xFFFFF79B  |  4294965147 |
|      18 | 0xFFFE4763  |  4294854499 |
|      19 | 0xFFFE967E  |  4294874750 |
|      20 | 0xFFFE5356  |  4294857558 |
|      21 | 0xFFFE90FA  |  4294873338 |
|      22 | 0x1FC2      |        8130 |
|      23 | 0x1CA3      |        7331 |
|      24 | 0x001D      |          29 |
|      25 | 0x0078      |         120 |
|      26 | 0xFFFE585B  |  4294858843 |
|      27 | 0xFFFE91B7  |  4294873527 |
|      28 | 0xFFFE700A  |  4294864906 |
|      29 | 0xFFFE98A3  |  4294875299 |
|      30 | 0xFFFE5E0D  |  4294860301 |
|      31 | 0xFFFE9A89  |  4294875785 |
|      32 | 0x0708      |        1800 |
|      33 | 0x000F      |          15 |
|      34 | 0x0007      |           7 |
|      35 | 0x0046      |          70 |
|      36 | 0xFFFE84F2  |  4294870258 |
|      37 | 0xFFFE9F6C  |  4294877036 |
|      38 | 0x00B3      |         179 |
|      39 | 0x0020      |          32 |
|      40 | 0x0015      |          21 |
|      41 | 0x003C      |          60 |
|      42 | 0x0006      |           6 |
|      43 | 0x000B      |          11 |
|      44 | 0x000E      |          14 |
|      45 | 0x0004      |           4 |
|      46 | 0x0013      |          19 |
|      47 | 0x000C      |          12 |

## String References

- **7296**: Mistress Svenja's heart is truly made of gold, dropping everything in her hectic schedule to search for a cure like this.
- **7297**: Finding $6 deep within Foret de Hennetiel will truly heal this child's malady, will it not? Even if that is not the case, we must do everything in our power to nurse him back to health.
- **7298**: My standing may be nothing compared to that of the mistress, but I ask that you do her this favor.
- **7299**: Welcome to the Celennia Memorial Library, an archive of everything related to Adoulin.
- **7300**: Only those with the proper credentials are able to view the information and data collected by the Scouts' Coalition.
- **7301**: The Scouts' Coalition is always adding to their stores of knowledge, so check back periodically to see if there's something new on which to feast your mind.
- **7331**: Lady Erfimia told me to inform you that she has gone ahead to I-8 in $7 and will meet you there. She was in such an awful hurry. Whatever could be the matter?
- **8130**: Please give the princess my regards.

## Events

### Event 65535

#### Metadata

| Field        | Value   |
|--------------|---------|
| Entrypoint   | 0x0000  |
| Data Size    | 1 bytes |
| Instructions | 1       |

```
      00 01 02 03 04 05 06 07  08 09 0A 0B 0C 0D 0E 0F
      -- -- -- -- -- -- -- --  -- -- -- -- -- -- -- --
0000: 00                                                .               
```

#### Opcodes

```
  0: 0x0000 [0x00] END_REQSTACK()
```

### Event 13

#### Metadata

| Field        | Value    |
|--------------|----------|
| Entrypoint   | 0x0001   |
| Data Size    | 47 bytes |
| Instructions | 11       |

```
      00 01 02 03 04 05 06 07  08 09 0A 0B 0C 0D 0E 0F
      -- -- -- -- -- -- -- --  -- -- -- -- -- -- -- --
0000:    1E F0 FF FF 7F 6F 70  66 00 80 F8 FF FF 7F F8   .....opf.......
0010: FF FF 7F 74 6C 6B 30 1D  01 80 23 1D 02 80 23 66  ...tlk0...#...#f
0020: 00 80 F8 FF FF 7F F8 FF  FF 7F 74 6C 6B 31 21 00  ..........tlk1!.
```

#### Opcodes

```
  0: 0x0001 [0x1E] EventEntity looks at LocalPlayer and starts talking
  1: 0x0006 [0x6F] WAIT_FRAME_DELAY: Yield until WaitTime reaches zero
  2: 0x0007 [0x70] WAIT_ENTITY_RENDER_FLAG: Wait while EventEntity->Render.Flags3 bit 2 is set (cancel turn if not)
  3: 0x0008 [0x66] LOAD_EXT_SCHEDULER_MAIN: Load scheduler "tlk0" with entities [EventEntity, EventEntity], work=39*
  4: 0x0017 [0x1D] PRINT_EVENT_MESSAGE(message_id=7299*)
    → "Welcome to the Celennia Memorial Library, an archive of everything related to Adoulin."
  5: 0x001A [0x23] WAIT_FOR_DIALOG_INTERACTION
  6: 0x001B [0x1D] PRINT_EVENT_MESSAGE(message_id=7300*)
    → "Only those with the proper credentials are able to view the information and data collected by the Scouts' Coalition."
  7: 0x001E [0x23] WAIT_FOR_DIALOG_INTERACTION
  8: 0x001F [0x66] LOAD_EXT_SCHEDULER_MAIN: Load scheduler "tlk1" with entities [EventEntity, EventEntity], work=39*
  9: 0x002E [0x21] END_EVENT
 10: 0x002F [0x00] END_REQSTACK()
```

### Event 27

#### Metadata

| Field        | Value    |
|--------------|----------|
| Entrypoint   | 0x0030   |
| Data Size    | 47 bytes |
| Instructions | 11       |

```
      00 01 02 03 04 05 06 07  08 09 0A 0B 0C 0D 0E 0F
      -- -- -- -- -- -- -- --  -- -- -- -- -- -- -- --
0030: 1E F0 FF FF 7F 6F 70 66  00 80 F8 FF FF 7F F8 FF  .....opf........
0040: FF 7F 74 6C 6B 30 1D 01  80 23 1D 03 80 23 66 00  ..tlk0...#...#f.
0050: 80 F8 FF FF 7F F8 FF FF  7F 74 6C 6B 31 21 00     .........tlk1!. 
```

#### Opcodes

```
  0: 0x0030 [0x1E] EventEntity looks at LocalPlayer and starts talking
  1: 0x0035 [0x6F] WAIT_FRAME_DELAY: Yield until WaitTime reaches zero
  2: 0x0036 [0x70] WAIT_ENTITY_RENDER_FLAG: Wait while EventEntity->Render.Flags3 bit 2 is set (cancel turn if not)
  3: 0x0037 [0x66] LOAD_EXT_SCHEDULER_MAIN: Load scheduler "tlk0" with entities [EventEntity, EventEntity], work=39*
  4: 0x0046 [0x1D] PRINT_EVENT_MESSAGE(message_id=7299*)
    → "Welcome to the Celennia Memorial Library, an archive of everything related to Adoulin."
  5: 0x0049 [0x23] WAIT_FOR_DIALOG_INTERACTION
  6: 0x004A [0x1D] PRINT_EVENT_MESSAGE(message_id=7301*)
    → "The Scouts' Coalition is always adding to their stores of knowledge, so check back periodically to see if there's something new on which to feast your mind."
  7: 0x004D [0x23] WAIT_FOR_DIALOG_INTERACTION
  8: 0x004E [0x66] LOAD_EXT_SCHEDULER_MAIN: Load scheduler "tlk1" with entities [EventEntity, EventEntity], work=39*
  9: 0x005D [0x21] END_EVENT
 10: 0x005E [0x00] END_REQSTACK()
```

### Event 10

#### Metadata

| Field        | Value   |
|--------------|---------|
| Entrypoint   | 0x005F  |
| Data Size    | 7 bytes |
| Instructions | 2       |

```
      00 01 02 03 04 05 06 07  08 09 0A 0B 0C 0D 0E 0F
      -- -- -- -- -- -- -- --  -- -- -- -- -- -- -- --
0050:                                               92                 .
0060: 01 F8 FF FF 7F 00                                 ......          
```

#### Opcodes

```
  0: 0x005F [0x92] EventEntity->Render.Flags3 ^= 0x01
  1: 0x0065 [0x00] END_REQSTACK()
```

### Event 11

#### Metadata

| Field        | Value   |
|--------------|---------|
| Entrypoint   | 0x0066  |
| Data Size    | 7 bytes |
| Instructions | 2       |

```
      00 01 02 03 04 05 06 07  08 09 0A 0B 0C 0D 0E 0F
      -- -- -- -- -- -- -- --  -- -- -- -- -- -- -- --
0060:                   92 01  F8 FF FF 7F 00                 .......   
```

#### Opcodes

```
  0: 0x0066 [0x92] EventEntity->Render.Flags3 ^= 0x01
  1: 0x006C [0x00] END_REQSTACK()
```

### Event 12

#### Metadata

| Field        | Value    |
|--------------|----------|
| Entrypoint   | 0x006D   |
| Data Size    | 42 bytes |
| Instructions | 12       |

```
      00 01 02 03 04 05 06 07  08 09 0A 0B 0C 0D 0E 0F
      -- -- -- -- -- -- -- --  -- -- -- -- -- -- -- --
0060:                                         1E F0 FF               ...
0070: FF 7F 1C 04 80 66 00 80  F8 FF FF 7F F8 FF FF 7F  .....f..........
0080: 74 6C 6B 30 1D 05 80 23  03 02 10 06 80 1D 07 80  tlk0...#........
0090: 23 1D 08 80 23 21 00                              #...#!.         
```

#### Opcodes

```
  0: 0x006D [0x1E] EventEntity looks at LocalPlayer and starts talking
  1: 0x0072 [0x1C] WAIT(30* ticks)
  2: 0x0075 [0x66] LOAD_EXT_SCHEDULER_MAIN: Load scheduler "tlk0" with entities [EventEntity, EventEntity], work=39*
  3: 0x0084 [0x1D] PRINT_EVENT_MESSAGE(message_id=7296*)
    → "Mistress Svenja's heart is truly made of gold, dropping everything in her hectic schedule to search for a cure like this."
  4: 0x0087 [0x23] WAIT_FOR_DIALOG_INTERACTION
  5: 0x0088 [0x03] Work_Zone[2] = 2343*
  6: 0x008D [0x1D] PRINT_EVENT_MESSAGE(message_id=7297*)
    → "Finding $6 deep within Foret de Hennetiel will truly heal this child's malady, will it not? Even if that is not the case, we must do everything in our power to nurse him back to health."
  7: 0x0090 [0x23] WAIT_FOR_DIALOG_INTERACTION
  8: 0x0091 [0x1D] PRINT_EVENT_MESSAGE(message_id=7298*)
    → "My standing may be nothing compared to that of the mistress, but I ask that you do her this favor."
  9: 0x0094 [0x23] WAIT_FOR_DIALOG_INTERACTION
 10: 0x0095 [0x21] END_EVENT
 11: 0x0096 [0x00] END_REQSTACK()
```

### Event 2

#### Metadata

| Field        | Value   |
|--------------|---------|
| Entrypoint   | 0x0097  |
| Data Size    | 1 bytes |
| Instructions | 1       |

```
      00 01 02 03 04 05 06 07  08 09 0A 0B 0C 0D 0E 0F
      -- -- -- -- -- -- -- --  -- -- -- -- -- -- -- --
0090:                      00                                  .        
```

#### Opcodes

```
  0: 0x0097 [0x00] END_REQSTACK()
```

### Event 65535.1

#### Metadata

| Field        | Value    |
|--------------|----------|
| Entrypoint   | 0x0098   |
| Data Size    | 22 bytes |
| Instructions | 6        |

```
      00 01 02 03 04 05 06 07  08 09 0A 0B 0C 0D 0E 0F
      -- -- -- -- -- -- -- --  -- -- -- -- -- -- -- --
0090:                          32 09 80 1F 00 0A 80 0B          2.......
00A0: 80 0C 80 1F 01 1E 1F C0  11 01 1C 04 80 00        ..............  
```

#### Opcodes

```
  0: 0x0098 [0x32] ExtData[1]->MainSpeed = 13* * 0.1
  1: 0x009B [0x1F] MOVE_ENTITY: EventEntity moves to X=-111.846*, Z=-99.378*, Y=-2.150*
  2: 0x00A3 [0x1F] MOVE_ENTITY: Update entity position (mode=1)
  3: 0x00A5 [0x1E] EventEntity looks at Arciela (ID: 17940511/0x0111C01F) and starts talking
  4: 0x00AA [0x1C] WAIT(30* ticks)
  5: 0x00AD [0x00] END_REQSTACK()
```

### Event 65535.2

#### Metadata

| Field        | Value    |
|--------------|----------|
| Entrypoint   | 0x00AE   |
| Data Size    | 14 bytes |
| Instructions | 4        |

```
      00 01 02 03 04 05 06 07  08 09 0A 0B 0C 0D 0E 0F
      -- -- -- -- -- -- -- --  -- -- -- -- -- -- -- --
00A0:                                            32 09                2.
00B0: 80 1F 00 0D 80 0E 80 0C  80 1F 01 00              ............    
```

#### Opcodes

```
  0: 0x00AE [0x32] ExtData[1]->MainSpeed = 13* * 0.1
  1: 0x00B1 [0x1F] MOVE_ENTITY: EventEntity moves to X=-105.342*, Z=-98.968*, Y=-2.150*
  2: 0x00B9 [0x1F] MOVE_ENTITY: Update entity position (mode=1)
  3: 0x00BB [0x00] END_REQSTACK()
```

### Event 3

#### Metadata

| Field        | Value   |
|--------------|---------|
| Entrypoint   | 0x00BC  |
| Data Size    | 1 bytes |
| Instructions | 1       |

```
      00 01 02 03 04 05 06 07  08 09 0A 0B 0C 0D 0E 0F
      -- -- -- -- -- -- -- --  -- -- -- -- -- -- -- --
00B0:                                      00                       .   
```

#### Opcodes

```
  0: 0x00BC [0x00] END_REQSTACK()
```

### Event 65535.3

#### Metadata

| Field        | Value    |
|--------------|----------|
| Entrypoint   | 0x00BD   |
| Data Size    | 22 bytes |
| Instructions | 6        |

```
      00 01 02 03 04 05 06 07  08 09 0A 0B 0C 0D 0E 0F
      -- -- -- -- -- -- -- --  -- -- -- -- -- -- -- --
00B0:                                         32 09 80               2..
00C0: 1F 00 0F 80 10 80 11 80  1F 01 1E F0 FF FF 7F 1C  ................
00D0: 04 80 00                                          ...             
```

#### Opcodes

```
  0: 0x00BD [0x32] ExtData[1]->MainSpeed = 13* * 0.1
  1: 0x00C0 [0x1F] MOVE_ENTITY: EventEntity moves to X=-98.181*, Z=-88.314*, Y=-2.149*
  2: 0x00C8 [0x1F] MOVE_ENTITY: Update entity position (mode=1)
  3: 0x00CA [0x1E] EventEntity looks at LocalPlayer and starts talking
  4: 0x00CF [0x1C] WAIT(30* ticks)
  5: 0x00D2 [0x00] END_REQSTACK()
```

### Event 4

#### Metadata

| Field        | Value   |
|--------------|---------|
| Entrypoint   | 0x00D3  |
| Data Size    | 1 bytes |
| Instructions | 1       |

```
      00 01 02 03 04 05 06 07  08 09 0A 0B 0C 0D 0E 0F
      -- -- -- -- -- -- -- --  -- -- -- -- -- -- -- --
00D0:          00                                          .            
```

#### Opcodes

```
  0: 0x00D3 [0x00] END_REQSTACK()
```

### Event 65535.4

#### Metadata

| Field        | Value    |
|--------------|----------|
| Entrypoint   | 0x00D4   |
| Data Size    | 22 bytes |
| Instructions | 6        |

```
      00 01 02 03 04 05 06 07  08 09 0A 0B 0C 0D 0E 0F
      -- -- -- -- -- -- -- --  -- -- -- -- -- -- -- --
00D0:             32 09 80 1F  00 12 80 13 80 11 80 1F      2...........
00E0: 01 1E F0 FF FF 7F 1C 04  80 00                    ..........      
```

#### Opcodes

```
  0: 0x00D4 [0x32] ExtData[1]->MainSpeed = 13* * 0.1
  1: 0x00D7 [0x1F] MOVE_ENTITY: EventEntity moves to X=-112.797*, Z=-92.546*, Y=-2.149*
  2: 0x00DF [0x1F] MOVE_ENTITY: Update entity position (mode=1)
  3: 0x00E1 [0x1E] EventEntity looks at LocalPlayer and starts talking
  4: 0x00E6 [0x1C] WAIT(30* ticks)
  5: 0x00E9 [0x00] END_REQSTACK()
```

### Event 65535.5

#### Metadata

| Field        | Value    |
|--------------|----------|
| Entrypoint   | 0x00EA   |
| Data Size    | 14 bytes |
| Instructions | 4        |

```
      00 01 02 03 04 05 06 07  08 09 0A 0B 0C 0D 0E 0F
      -- -- -- -- -- -- -- --  -- -- -- -- -- -- -- --
00E0:                                32 09 80 1F 00 14            2.....
00F0: 80 15 80 11 80 1F 01 00                           ........        
```

#### Opcodes

```
  0: 0x00EA [0x32] ExtData[1]->MainSpeed = 13* * 0.1
  1: 0x00ED [0x1F] MOVE_ENTITY: EventEntity moves to X=-109.738*, Z=-93.958*, Y=-2.149*
  2: 0x00F5 [0x1F] MOVE_ENTITY: Update entity position (mode=1)
  3: 0x00F7 [0x00] END_REQSTACK()
```

### Event 5

#### Metadata

| Field        | Value   |
|--------------|---------|
| Entrypoint   | 0x00F8  |
| Data Size    | 1 bytes |
| Instructions | 1       |

```
      00 01 02 03 04 05 06 07  08 09 0A 0B 0C 0D 0E 0F
      -- -- -- -- -- -- -- --  -- -- -- -- -- -- -- --
00F0:                          00                               .       
```

#### Opcodes

```
  0: 0x00F8 [0x00] END_REQSTACK()
```

### Event 7

#### Metadata

| Field        | Value   |
|--------------|---------|
| Entrypoint   | 0x00F9  |
| Data Size    | 1 bytes |
| Instructions | 1       |

```
      00 01 02 03 04 05 06 07  08 09 0A 0B 0C 0D 0E 0F
      -- -- -- -- -- -- -- --  -- -- -- -- -- -- -- --
00F0:                             00                             .      
```

#### Opcodes

```
  0: 0x00F9 [0x00] END_REQSTACK()
```

### Event 8

#### Metadata

| Field        | Value    |
|--------------|----------|
| Entrypoint   | 0x00FA   |
| Data Size    | 29 bytes |
| Instructions | 7        |

```
      00 01 02 03 04 05 06 07  08 09 0A 0B 0C 0D 0E 0F
      -- -- -- -- -- -- -- --  -- -- -- -- -- -- -- --
00F0:                                1E F0 FF FF 7F 1C            ......
0100: 04 80 66 00 80 F8 FF FF  7F F8 FF FF 7F 74 6C 6B  ..f..........tlk
0110: 30 1D 16 80 23 21 00                              0...#!.         
```

#### Opcodes

```
  0: 0x00FA [0x1E] EventEntity looks at LocalPlayer and starts talking
  1: 0x00FF [0x1C] WAIT(30* ticks)
  2: 0x0102 [0x66] LOAD_EXT_SCHEDULER_MAIN: Load scheduler "tlk0" with entities [EventEntity, EventEntity], work=39*
  3: 0x0111 [0x1D] PRINT_EVENT_MESSAGE(message_id=8130*)
    → "Please give the princess my regards."
  4: 0x0114 [0x23] WAIT_FOR_DIALOG_INTERACTION
  5: 0x0115 [0x21] END_EVENT
  6: 0x0116 [0x00] END_REQSTACK()
```

### Event 39

#### Metadata

| Field        | Value    |
|--------------|----------|
| Entrypoint   | 0x0117   |
| Data Size    | 29 bytes |
| Instructions | 7        |

```
      00 01 02 03 04 05 06 07  08 09 0A 0B 0C 0D 0E 0F
      -- -- -- -- -- -- -- --  -- -- -- -- -- -- -- --
0110:                      1E  F0 FF FF 7F 1C 04 80 66         ........f
0120: 00 80 F8 FF FF 7F F8 FF  FF 7F 74 6C 6B 30 1D 17  ..........tlk0..
0130: 80 23 21 00                                       .#!.            
```

#### Opcodes

```
  0: 0x0117 [0x1E] EventEntity looks at LocalPlayer and starts talking
  1: 0x011C [0x1C] WAIT(30* ticks)
  2: 0x011F [0x66] LOAD_EXT_SCHEDULER_MAIN: Load scheduler "tlk0" with entities [EventEntity, EventEntity], work=39*
  3: 0x012E [0x1D] PRINT_EVENT_MESSAGE(message_id=7331*)
    → "Lady Erfimia told me to inform you that she has gone ahead to I-8 in $7 and will meet you there. She was in such an awful hurry. Whatever could be the matter?"
  4: 0x0131 [0x23] WAIT_FOR_DIALOG_INTERACTION
  5: 0x0132 [0x21] END_EVENT
  6: 0x0133 [0x00] END_REQSTACK()
```

### Event 40

#### Metadata

| Field        | Value   |
|--------------|---------|
| Entrypoint   | 0x0134  |
| Data Size    | 1 bytes |
| Instructions | 1       |

```
      00 01 02 03 04 05 06 07  08 09 0A 0B 0C 0D 0E 0F
      -- -- -- -- -- -- -- --  -- -- -- -- -- -- -- --
0130:             00                                        .           
```

#### Opcodes

```
  0: 0x0134 [0x00] END_REQSTACK()
```

### Event 41

#### Metadata

| Field        | Value   |
|--------------|---------|
| Entrypoint   | 0x0135  |
| Data Size    | 1 bytes |
| Instructions | 1       |

```
      00 01 02 03 04 05 06 07  08 09 0A 0B 0C 0D 0E 0F
      -- -- -- -- -- -- -- --  -- -- -- -- -- -- -- --
0130:                00                                      .          
```

#### Opcodes

```
  0: 0x0135 [0x00] END_REQSTACK()
```

### Event 37

#### Metadata

| Field        | Value   |
|--------------|---------|
| Entrypoint   | 0x0136  |
| Data Size    | 1 bytes |
| Instructions | 1       |

```
      00 01 02 03 04 05 06 07  08 09 0A 0B 0C 0D 0E 0F
      -- -- -- -- -- -- -- --  -- -- -- -- -- -- -- --
0130:                   00                                    .         
```

#### Opcodes

```
  0: 0x0136 [0x00] END_REQSTACK()
```

### Event 65535.6

#### Metadata

| Field        | Value    |
|--------------|----------|
| Entrypoint   | 0x0137   |
| Data Size    | 16 bytes |
| Instructions | 4        |

```
      00 01 02 03 04 05 06 07  08 09 0A 0B 0C 0D 0E 0F
      -- -- -- -- -- -- -- --  -- -- -- -- -- -- -- --
0130:                      6E  F8 FF FF 7F 18 80 99 F8         n........
0140: FF FF 7F 1C 19 80 00                              .......         
```

#### Opcodes

```
  0: 0x0137 [0x6E] EventEntity uses emote 29*
  1: 0x013E [0x99] Wait for EventEntity animation to complete
  2: 0x0143 [0x1C] WAIT(120* ticks)
  3: 0x0146 [0x00] END_REQSTACK()
```

### Event 65535.7

#### Metadata

| Field        | Value    |
|--------------|----------|
| Entrypoint   | 0x0147   |
| Data Size    | 33 bytes |
| Instructions | 3        |

```
      00 01 02 03 04 05 06 07  08 09 0A 0B 0C 0D 0E 0F
      -- -- -- -- -- -- -- --  -- -- -- -- -- -- -- --
0140:                      5F  06 00 80 F8 FF FF 7F F8         _........
0150: FF FF 7F 74 6C 6B 30 02  10 5F 07 F8 FF FF 7F F8  ...tlk0.._......
0160: FF FF 7F 74 6C 6B 30 00                           ...tlk0.        
```

#### Opcodes

```
  0: 0x0147 [0x5F] MULTI_HANDLER_COMPLEX(mode=0x06 - Load ext scheduler with flag (OpCode 0x5B mode 1, flag 1), ref=39*, entity1=EventEntity, entity2=EventEntity, string="tlk0", extra=Work_Zone[2])
  1: 0x0159 [0x5F] MULTI_HANDLER_COMPLEX(mode=0x07 - Wait scheduler task (OpCode 0x53))
  2: 0x0167 [0x00] END_REQSTACK()
```

### Event 65535.8

#### Metadata

| Field        | Value    |
|--------------|----------|
| Entrypoint   | 0x0168   |
| Data Size    | 33 bytes |
| Instructions | 3        |

```
      00 01 02 03 04 05 06 07  08 09 0A 0B 0C 0D 0E 0F
      -- -- -- -- -- -- -- --  -- -- -- -- -- -- -- --
0160:                          5F 06 00 80 F8 FF FF 7F          _.......
0170: F8 FF FF 7F 74 6C 6B 31  02 10 5F 07 F8 FF FF 7F  ....tlk1.._.....
0180: F8 FF FF 7F 74 6C 6B 31  00                       ....tlk1.       
```

#### Opcodes

```
  0: 0x0168 [0x5F] MULTI_HANDLER_COMPLEX(mode=0x06 - Load ext scheduler with flag (OpCode 0x5B mode 1, flag 1), ref=39*, entity1=EventEntity, entity2=EventEntity, string="tlk1", extra=Work_Zone[2])
  1: 0x017A [0x5F] MULTI_HANDLER_COMPLEX(mode=0x07 - Wait scheduler task (OpCode 0x53))
  2: 0x0188 [0x00] END_REQSTACK()
```

### Event 65535.9

#### Metadata

| Field        | Value    |
|--------------|----------|
| Entrypoint   | 0x0189   |
| Data Size    | 33 bytes |
| Instructions | 3        |

```
      00 01 02 03 04 05 06 07  08 09 0A 0B 0C 0D 0E 0F
      -- -- -- -- -- -- -- --  -- -- -- -- -- -- -- --
0180:                             5F 06 00 80 F8 FF FF           _......
0190: 7F F8 FF FF 7F 74 68 6B  31 02 10 5F 07 F8 FF FF  .....thk1.._....
01A0: 7F F8 FF FF 7F 74 68 6B  31 00                    .....thk1.      
```

#### Opcodes

```
  0: 0x0189 [0x5F] MULTI_HANDLER_COMPLEX(mode=0x06 - Load ext scheduler with flag (OpCode 0x5B mode 1, flag 1), ref=39*, entity1=EventEntity, entity2=EventEntity, string="thk1", extra=Work_Zone[2])
  1: 0x019B [0x5F] MULTI_HANDLER_COMPLEX(mode=0x07 - Wait scheduler task (OpCode 0x53))
  2: 0x01A9 [0x00] END_REQSTACK()
```

### Event 65535.10

#### Metadata

| Field        | Value    |
|--------------|----------|
| Entrypoint   | 0x01AA   |
| Data Size    | 33 bytes |
| Instructions | 3        |

```
      00 01 02 03 04 05 06 07  08 09 0A 0B 0C 0D 0E 0F
      -- -- -- -- -- -- -- --  -- -- -- -- -- -- -- --
01A0:                                5F 06 00 80 F8 FF            _.....
01B0: FF 7F F8 FF FF 7F 74 68  6B 32 02 10 5F 07 F8 FF  ......thk2.._...
01C0: FF 7F F8 FF FF 7F 74 68  6B 32 00                 ......thk2.     
```

#### Opcodes

```
  0: 0x01AA [0x5F] MULTI_HANDLER_COMPLEX(mode=0x06 - Load ext scheduler with flag (OpCode 0x5B mode 1, flag 1), ref=39*, entity1=EventEntity, entity2=EventEntity, string="thk2", extra=Work_Zone[2])
  1: 0x01BC [0x5F] MULTI_HANDLER_COMPLEX(mode=0x07 - Wait scheduler task (OpCode 0x53))
  2: 0x01CA [0x00] END_REQSTACK()
```

### Event 65535.11

#### Metadata

| Field        | Value    |
|--------------|----------|
| Entrypoint   | 0x01CB   |
| Data Size    | 22 bytes |
| Instructions | 6        |

```
      00 01 02 03 04 05 06 07  08 09 0A 0B 0C 0D 0E 0F
      -- -- -- -- -- -- -- --  -- -- -- -- -- -- -- --
01C0:                                   32 09 80 1F 00             2....
01D0: 1A 80 1B 80 11 80 1F 01  1E F0 FF FF 7F 1C 04 80  ................
01E0: 00                                                .               
```

#### Opcodes

```
  0: 0x01CB [0x32] ExtData[1]->MainSpeed = 13* * 0.1
  1: 0x01CE [0x1F] MOVE_ENTITY: EventEntity moves to X=-108.453*, Z=-93.769*, Y=-2.149*
  2: 0x01D6 [0x1F] MOVE_ENTITY: Update entity position (mode=1)
  3: 0x01D8 [0x1E] EventEntity looks at LocalPlayer and starts talking
  4: 0x01DD [0x1C] WAIT(30* ticks)
  5: 0x01E0 [0x00] END_REQSTACK()
```

### Event 65535.12

#### Metadata

| Field        | Value    |
|--------------|----------|
| Entrypoint   | 0x01E1   |
| Data Size    | 22 bytes |
| Instructions | 6        |

```
      00 01 02 03 04 05 06 07  08 09 0A 0B 0C 0D 0E 0F
      -- -- -- -- -- -- -- --  -- -- -- -- -- -- -- --
01E0:    32 09 80 1F 00 1C 80  1D 80 11 80 1F 01 1E F0   2..............
01F0: FF FF 7F 1C 04 80 00                              .......         
```

#### Opcodes

```
  0: 0x01E1 [0x32] ExtData[1]->MainSpeed = 13* * 0.1
  1: 0x01E4 [0x1F] MOVE_ENTITY: EventEntity moves to X=-102.390*, Z=-91.997*, Y=-2.149*
  2: 0x01EC [0x1F] MOVE_ENTITY: Update entity position (mode=1)
  3: 0x01EE [0x1E] EventEntity looks at LocalPlayer and starts talking
  4: 0x01F3 [0x1C] WAIT(30* ticks)
  5: 0x01F6 [0x00] END_REQSTACK()
```

### Event 65535.13

#### Metadata

| Field        | Value    |
|--------------|----------|
| Entrypoint   | 0x01F7   |
| Data Size    | 19 bytes |
| Instructions | 3        |

```
      00 01 02 03 04 05 06 07  08 09 0A 0B 0C 0D 0E 0F
      -- -- -- -- -- -- -- --  -- -- -- -- -- -- -- --
01F0:                      BA  0F C0 11 01 1E 80 1F 80         .........
0200: 11 80 20 80 80 F8 FF FF  7F 00                    .. .......      
```

#### Opcodes

```
  0: 0x01F7 [0xBA] SET_ENTITY_POSITION(entity_id=Andreine (ID: 17940495/0x0111C00F), pos_x=-106.995*, pos_z=-91.511*, pos_y=-2.149*, direction=158.2°*)
  1: 0x0204 [0x80] LOAD_WAIT(entity=EventEntity)
  2: 0x0209 [0x00] END_REQSTACK()
```

### Event 65535.14

#### Metadata

| Field        | Value    |
|--------------|----------|
| Entrypoint   | 0x020A   |
| Data Size    | 40 bytes |
| Instructions | 10       |

```
      00 01 02 03 04 05 06 07  08 09 0A 0B 0C 0D 0E 0F
      -- -- -- -- -- -- -- --  -- -- -- -- -- -- -- --
0200:                                1C 04 80 1E 22 C0            ....".
0210: 11 01 1C 21 80 6E F8 FF  FF 7F 22 80 99 F8 FF FF  ...!.n....".....
0220: 7F 32 09 80 1C 23 80 1F  00 24 80 25 80 11 80 1F  .2...#...$.%....
0230: 01 00                                             ..              
```

#### Opcodes

```
  0: 0x020A [0x1C] WAIT(30* ticks)
  1: 0x020D [0x1E] EventEntity looks at Oshasha (ID: 17940514/0x0111C022) and starts talking
  2: 0x0212 [0x1C] WAIT(15* ticks)
  3: 0x0215 [0x6E] EventEntity uses emote 7*
  4: 0x021C [0x99] Wait for EventEntity animation to complete
  5: 0x0221 [0x32] ExtData[1]->MainSpeed = 13* * 0.1
  6: 0x0224 [0x1C] WAIT(70* ticks)
  7: 0x0227 [0x1F] MOVE_ENTITY: EventEntity moves to X=-97.038*, Z=-90.260*, Y=-2.149*
  8: 0x022F [0x1F] MOVE_ENTITY: Update entity position (mode=1)
  9: 0x0231 [0x00] END_REQSTACK()
```

### Event 43

#### Metadata

| Field        | Value   |
|--------------|---------|
| Entrypoint   | 0x0232  |
| Data Size    | 1 bytes |
| Instructions | 1       |

```
      00 01 02 03 04 05 06 07  08 09 0A 0B 0C 0D 0E 0F
      -- -- -- -- -- -- -- --  -- -- -- -- -- -- -- --
0230:       00                                            .             
```

#### Opcodes

```
  0: 0x0232 [0x00] END_REQSTACK()
```

### Event 44

#### Metadata

| Field        | Value   |
|--------------|---------|
| Entrypoint   | 0x0233  |
| Data Size    | 1 bytes |
| Instructions | 1       |

```
      00 01 02 03 04 05 06 07  08 09 0A 0B 0C 0D 0E 0F
      -- -- -- -- -- -- -- --  -- -- -- -- -- -- -- --
0230:          00                                          .            
```

#### Opcodes

```
  0: 0x0233 [0x00] END_REQSTACK()
```

### Event 45

#### Metadata

| Field        | Value   |
|--------------|---------|
| Entrypoint   | 0x0234  |
| Data Size    | 1 bytes |
| Instructions | 1       |

```
      00 01 02 03 04 05 06 07  08 09 0A 0B 0C 0D 0E 0F
      -- -- -- -- -- -- -- --  -- -- -- -- -- -- -- --
0230:             00                                        .           
```

#### Opcodes

```
  0: 0x0234 [0x00] END_REQSTACK()
```

### Event 46

#### Metadata

| Field        | Value   |
|--------------|---------|
| Entrypoint   | 0x0235  |
| Data Size    | 1 bytes |
| Instructions | 1       |

```
      00 01 02 03 04 05 06 07  08 09 0A 0B 0C 0D 0E 0F
      -- -- -- -- -- -- -- --  -- -- -- -- -- -- -- --
0230:                00                                      .          
```

#### Opcodes

```
  0: 0x0235 [0x00] END_REQSTACK()
```

### Event 47

#### Metadata

| Field        | Value   |
|--------------|---------|
| Entrypoint   | 0x0236  |
| Data Size    | 1 bytes |
| Instructions | 1       |

```
      00 01 02 03 04 05 06 07  08 09 0A 0B 0C 0D 0E 0F
      -- -- -- -- -- -- -- --  -- -- -- -- -- -- -- --
0230:                   00                                    .         
```

#### Opcodes

```
  0: 0x0236 [0x00] END_REQSTACK()
```

### Event 65535.15

#### Metadata

| Field        | Value    |
|--------------|----------|
| Entrypoint   | 0x0237   |
| Data Size    | 16 bytes |
| Instructions | 2        |

```
      00 01 02 03 04 05 06 07  08 09 0A 0B 0C 0D 0E 0F
      -- -- -- -- -- -- -- --  -- -- -- -- -- -- -- --
0230:                      66  00 80 F8 FF FF 7F F8 FF         f........
0240: FF 7F 74 6C 6B 30 00                              ..tlk0.         
```

#### Opcodes

```
  0: 0x0237 [0x66] LOAD_EXT_SCHEDULER_MAIN: Load scheduler "tlk0" with entities [EventEntity, EventEntity], work=39*
  1: 0x0246 [0x00] END_REQSTACK()
```

### Event 65535.16

#### Metadata

| Field        | Value    |
|--------------|----------|
| Entrypoint   | 0x0247   |
| Data Size    | 14 bytes |
| Instructions | 2        |

```
      00 01 02 03 04 05 06 07  08 09 0A 0B 0C 0D 0E 0F
      -- -- -- -- -- -- -- --  -- -- -- -- -- -- -- --
0240:                      53  F8 FF FF 7F F8 FF FF 7F         S........
0250: 74 6C 6B 30 00                                    tlk0.           
```

#### Opcodes

```
  0: 0x0247 [0x53] WAIT_SCHEDULER_TASK: Wait for scheduler "tlk0" with entities [EventEntity, EventEntity]
  1: 0x0254 [0x00] END_REQSTACK()
```

### Event 65535.17

#### Metadata

| Field        | Value    |
|--------------|----------|
| Entrypoint   | 0x0255   |
| Data Size    | 16 bytes |
| Instructions | 2        |

```
      00 01 02 03 04 05 06 07  08 09 0A 0B 0C 0D 0E 0F
      -- -- -- -- -- -- -- --  -- -- -- -- -- -- -- --
0250:                66 00 80  F8 FF FF 7F F8 FF FF 7F       f..........
0260: 74 6C 6B 31 00                                    tlk1.           
```

#### Opcodes

```
  0: 0x0255 [0x66] LOAD_EXT_SCHEDULER_MAIN: Load scheduler "tlk1" with entities [EventEntity, EventEntity], work=39*
  1: 0x0264 [0x00] END_REQSTACK()
```

### Event 65535.18

#### Metadata

| Field        | Value    |
|--------------|----------|
| Entrypoint   | 0x0265   |
| Data Size    | 14 bytes |
| Instructions | 2        |

```
      00 01 02 03 04 05 06 07  08 09 0A 0B 0C 0D 0E 0F
      -- -- -- -- -- -- -- --  -- -- -- -- -- -- -- --
0260:                53 F8 FF  FF 7F F8 FF FF 7F 74 6C       S........tl
0270: 6B 31 00                                          k1.             
```

#### Opcodes

```
  0: 0x0265 [0x53] WAIT_SCHEDULER_TASK: Wait for scheduler "tlk1" with entities [EventEntity, EventEntity]
  1: 0x0272 [0x00] END_REQSTACK()
```

### Event 65535.19

#### Metadata

| Field        | Value    |
|--------------|----------|
| Entrypoint   | 0x0273   |
| Data Size    | 16 bytes |
| Instructions | 2        |

```
      00 01 02 03 04 05 06 07  08 09 0A 0B 0C 0D 0E 0F
      -- -- -- -- -- -- -- --  -- -- -- -- -- -- -- --
0270:          66 00 80 F8 FF  FF 7F F8 FF FF 7F 74 68     f..........th
0280: 6B 31 00                                          k1.             
```

#### Opcodes

```
  0: 0x0273 [0x66] LOAD_EXT_SCHEDULER_MAIN: Load scheduler "thk1" with entities [EventEntity, EventEntity], work=39*
  1: 0x0282 [0x00] END_REQSTACK()
```

### Event 65535.20

#### Metadata

| Field        | Value    |
|--------------|----------|
| Entrypoint   | 0x0283   |
| Data Size    | 14 bytes |
| Instructions | 2        |

```
      00 01 02 03 04 05 06 07  08 09 0A 0B 0C 0D 0E 0F
      -- -- -- -- -- -- -- --  -- -- -- -- -- -- -- --
0280:          53 F8 FF FF 7F  F8 FF FF 7F 74 68 6B 31     S........thk1
0290: 00                                                .               
```

#### Opcodes

```
  0: 0x0283 [0x53] WAIT_SCHEDULER_TASK: Wait for scheduler "thk1" with entities [EventEntity, EventEntity]
  1: 0x0290 [0x00] END_REQSTACK()
```

### Event 65535.21

#### Metadata

| Field        | Value    |
|--------------|----------|
| Entrypoint   | 0x0291   |
| Data Size    | 16 bytes |
| Instructions | 2        |

```
      00 01 02 03 04 05 06 07  08 09 0A 0B 0C 0D 0E 0F
      -- -- -- -- -- -- -- --  -- -- -- -- -- -- -- --
0290:    66 00 80 F8 FF FF 7F  F8 FF FF 7F 74 68 6B 32   f..........thk2
02A0: 00                                                .               
```

#### Opcodes

```
  0: 0x0291 [0x66] LOAD_EXT_SCHEDULER_MAIN: Load scheduler "thk2" with entities [EventEntity, EventEntity], work=39*
  1: 0x02A0 [0x00] END_REQSTACK()
```

### Event 65535.22

#### Metadata

| Field        | Value    |
|--------------|----------|
| Entrypoint   | 0x02A1   |
| Data Size    | 14 bytes |
| Instructions | 2        |

```
      00 01 02 03 04 05 06 07  08 09 0A 0B 0C 0D 0E 0F
      -- -- -- -- -- -- -- --  -- -- -- -- -- -- -- --
02A0:    53 F8 FF FF 7F F8 FF  FF 7F 74 68 6B 32 00      S........thk2. 
```

#### Opcodes

```
  0: 0x02A1 [0x53] WAIT_SCHEDULER_TASK: Wait for scheduler "thk2" with entities [EventEntity, EventEntity]
  1: 0x02AE [0x00] END_REQSTACK()
```

### Event 65535.23

#### Metadata

| Field        | Value    |
|--------------|----------|
| Entrypoint   | 0x02AF   |
| Data Size    | 16 bytes |
| Instructions | 2        |

```
      00 01 02 03 04 05 06 07  08 09 0A 0B 0C 0D 0E 0F
      -- -- -- -- -- -- -- --  -- -- -- -- -- -- -- --
02A0:                                               66                 f
02B0: 00 80 F8 FF FF 7F F8 FF  FF 7F 73 68 61 30 00     ..........sha0. 
```

#### Opcodes

```
  0: 0x02AF [0x66] LOAD_EXT_SCHEDULER_MAIN: Load scheduler "sha0" with entities [EventEntity, EventEntity], work=39*
  1: 0x02BE [0x00] END_REQSTACK()
```

### Event 65535.24

#### Metadata

| Field        | Value    |
|--------------|----------|
| Entrypoint   | 0x02BF   |
| Data Size    | 14 bytes |
| Instructions | 2        |

```
      00 01 02 03 04 05 06 07  08 09 0A 0B 0C 0D 0E 0F
      -- -- -- -- -- -- -- --  -- -- -- -- -- -- -- --
02B0:                                               53                 S
02C0: F8 FF FF 7F F8 FF FF 7F  73 68 61 30 00           ........sha0.   
```

#### Opcodes

```
  0: 0x02BF [0x53] WAIT_SCHEDULER_TASK: Wait for scheduler "sha0" with entities [EventEntity, EventEntity]
  1: 0x02CC [0x00] END_REQSTACK()
```

### Event 65535.25

#### Metadata

| Field        | Value    |
|--------------|----------|
| Entrypoint   | 0x02CD   |
| Data Size    | 16 bytes |
| Instructions | 2        |

```
      00 01 02 03 04 05 06 07  08 09 0A 0B 0C 0D 0E 0F
      -- -- -- -- -- -- -- --  -- -- -- -- -- -- -- --
02C0:                                         66 00 80               f..
02D0: F8 FF FF 7F F8 FF FF 7F  73 68 61 31 00           ........sha1.   
```

#### Opcodes

```
  0: 0x02CD [0x66] LOAD_EXT_SCHEDULER_MAIN: Load scheduler "sha1" with entities [EventEntity, EventEntity], work=39*
  1: 0x02DC [0x00] END_REQSTACK()
```

### Event 65535.26

#### Metadata

| Field        | Value    |
|--------------|----------|
| Entrypoint   | 0x02DD   |
| Data Size    | 14 bytes |
| Instructions | 2        |

```
      00 01 02 03 04 05 06 07  08 09 0A 0B 0C 0D 0E 0F
      -- -- -- -- -- -- -- --  -- -- -- -- -- -- -- --
02D0:                                         53 F8 FF               S..
02E0: FF 7F F8 FF FF 7F 73 68  61 31 00                 ......sha1.     
```

#### Opcodes

```
  0: 0x02DD [0x53] WAIT_SCHEDULER_TASK: Wait for scheduler "sha1" with entities [EventEntity, EventEntity]
  1: 0x02EA [0x00] END_REQSTACK()
```

### Event 65535.27

#### Metadata

| Field        | Value    |
|--------------|----------|
| Entrypoint   | 0x02EB   |
| Data Size    | 16 bytes |
| Instructions | 2        |

```
      00 01 02 03 04 05 06 07  08 09 0A 0B 0C 0D 0E 0F
      -- -- -- -- -- -- -- --  -- -- -- -- -- -- -- --
02E0:                                   66 00 80 F8 FF             f....
02F0: FF 7F F8 FF FF 7F 73 69  72 30 00                 ......sir0.     
```

#### Opcodes

```
  0: 0x02EB [0x66] LOAD_EXT_SCHEDULER_MAIN: Load scheduler "sir0" with entities [EventEntity, EventEntity], work=39*
  1: 0x02FA [0x00] END_REQSTACK()
```

### Event 65535.28

#### Metadata

| Field        | Value    |
|--------------|----------|
| Entrypoint   | 0x02FB   |
| Data Size    | 14 bytes |
| Instructions | 2        |

```
      00 01 02 03 04 05 06 07  08 09 0A 0B 0C 0D 0E 0F
      -- -- -- -- -- -- -- --  -- -- -- -- -- -- -- --
02F0:                                   53 F8 FF FF 7F             S....
0300: F8 FF FF 7F 73 69 72 30  00                       ....sir0.       
```

#### Opcodes

```
  0: 0x02FB [0x53] WAIT_SCHEDULER_TASK: Wait for scheduler "sir0" with entities [EventEntity, EventEntity]
  1: 0x0308 [0x00] END_REQSTACK()
```

### Event 65535.29

#### Metadata

| Field        | Value    |
|--------------|----------|
| Entrypoint   | 0x0309   |
| Data Size    | 16 bytes |
| Instructions | 2        |

```
      00 01 02 03 04 05 06 07  08 09 0A 0B 0C 0D 0E 0F
      -- -- -- -- -- -- -- --  -- -- -- -- -- -- -- --
0300:                             66 00 80 F8 FF FF 7F           f......
0310: F8 FF FF 7F 73 69 72 31  00                       ....sir1.       
```

#### Opcodes

```
  0: 0x0309 [0x66] LOAD_EXT_SCHEDULER_MAIN: Load scheduler "sir1" with entities [EventEntity, EventEntity], work=39*
  1: 0x0318 [0x00] END_REQSTACK()
```

### Event 65535.30

#### Metadata

| Field        | Value    |
|--------------|----------|
| Entrypoint   | 0x0319   |
| Data Size    | 14 bytes |
| Instructions | 2        |

```
      00 01 02 03 04 05 06 07  08 09 0A 0B 0C 0D 0E 0F
      -- -- -- -- -- -- -- --  -- -- -- -- -- -- -- --
0310:                             53 F8 FF FF 7F F8 FF           S......
0320: FF 7F 73 69 72 31 00                              ..sir1.         
```

#### Opcodes

```
  0: 0x0319 [0x53] WAIT_SCHEDULER_TASK: Wait for scheduler "sir1" with entities [EventEntity, EventEntity]
  1: 0x0326 [0x00] END_REQSTACK()
```

### Event 65535.31

#### Metadata

| Field        | Value    |
|--------------|----------|
| Entrypoint   | 0x0327   |
| Data Size    | 16 bytes |
| Instructions | 2        |

```
      00 01 02 03 04 05 06 07  08 09 0A 0B 0C 0D 0E 0F
      -- -- -- -- -- -- -- --  -- -- -- -- -- -- -- --
0320:                      66  26 80 F8 FF FF 7F F8 FF         f&.......
0330: FF 7F 74 6C 6B 30 00                              ..tlk0.         
```

#### Opcodes

```
  0: 0x0327 [0x66] LOAD_EXT_SCHEDULER_MAIN: Load scheduler "tlk0" with entities [EventEntity, EventEntity], work=179*
  1: 0x0336 [0x00] END_REQSTACK()
```

### Event 65535.32

#### Metadata

| Field        | Value    |
|--------------|----------|
| Entrypoint   | 0x0337   |
| Data Size    | 14 bytes |
| Instructions | 2        |

```
      00 01 02 03 04 05 06 07  08 09 0A 0B 0C 0D 0E 0F
      -- -- -- -- -- -- -- --  -- -- -- -- -- -- -- --
0330:                      53  F8 FF FF 7F F8 FF FF 7F         S........
0340: 74 6C 6B 30 00                                    tlk0.           
```

#### Opcodes

```
  0: 0x0337 [0x53] WAIT_SCHEDULER_TASK: Wait for scheduler "tlk0" with entities [EventEntity, EventEntity]
  1: 0x0344 [0x00] END_REQSTACK()
```

### Event 65535.33

#### Metadata

| Field        | Value    |
|--------------|----------|
| Entrypoint   | 0x0345   |
| Data Size    | 16 bytes |
| Instructions | 2        |

```
      00 01 02 03 04 05 06 07  08 09 0A 0B 0C 0D 0E 0F
      -- -- -- -- -- -- -- --  -- -- -- -- -- -- -- --
0340:                66 26 80  F8 FF FF 7F F8 FF FF 7F       f&.........
0350: 74 6C 6B 31 00                                    tlk1.           
```

#### Opcodes

```
  0: 0x0345 [0x66] LOAD_EXT_SCHEDULER_MAIN: Load scheduler "tlk1" with entities [EventEntity, EventEntity], work=179*
  1: 0x0354 [0x00] END_REQSTACK()
```

### Event 65535.34

#### Metadata

| Field        | Value    |
|--------------|----------|
| Entrypoint   | 0x0355   |
| Data Size    | 14 bytes |
| Instructions | 2        |

```
      00 01 02 03 04 05 06 07  08 09 0A 0B 0C 0D 0E 0F
      -- -- -- -- -- -- -- --  -- -- -- -- -- -- -- --
0350:                53 F8 FF  FF 7F F8 FF FF 7F 74 6C       S........tl
0360: 6B 31 00                                          k1.             
```

#### Opcodes

```
  0: 0x0355 [0x53] WAIT_SCHEDULER_TASK: Wait for scheduler "tlk1" with entities [EventEntity, EventEntity]
  1: 0x0362 [0x00] END_REQSTACK()
```

### Event 65535.35

#### Metadata

| Field        | Value    |
|--------------|----------|
| Entrypoint   | 0x0363   |
| Data Size    | 16 bytes |
| Instructions | 2        |

```
      00 01 02 03 04 05 06 07  08 09 0A 0B 0C 0D 0E 0F
      -- -- -- -- -- -- -- --  -- -- -- -- -- -- -- --
0360:          66 27 80 F8 FF  FF 7F F8 FF FF 7F 73 74     f'.........st
0370: 64 30 00                                          d0.             
```

#### Opcodes

```
  0: 0x0363 [0x66] LOAD_EXT_SCHEDULER_MAIN: Load scheduler "std0" with entities [EventEntity, EventEntity], work=32*
  1: 0x0372 [0x00] END_REQSTACK()
```

### Event 65535.36

#### Metadata

| Field        | Value    |
|--------------|----------|
| Entrypoint   | 0x0373   |
| Data Size    | 14 bytes |
| Instructions | 2        |

```
      00 01 02 03 04 05 06 07  08 09 0A 0B 0C 0D 0E 0F
      -- -- -- -- -- -- -- --  -- -- -- -- -- -- -- --
0370:          53 F8 FF FF 7F  F8 FF FF 7F 73 74 64 30     S........std0
0380: 00                                                .               
```

#### Opcodes

```
  0: 0x0373 [0x53] WAIT_SCHEDULER_TASK: Wait for scheduler "std0" with entities [EventEntity, EventEntity]
  1: 0x0380 [0x00] END_REQSTACK()
```

### Event 65535.37

#### Metadata

| Field        | Value    |
|--------------|----------|
| Entrypoint   | 0x0381   |
| Data Size    | 16 bytes |
| Instructions | 2        |

```
      00 01 02 03 04 05 06 07  08 09 0A 0B 0C 0D 0E 0F
      -- -- -- -- -- -- -- --  -- -- -- -- -- -- -- --
0380:    66 27 80 F8 FF FF 7F  F8 FF FF 7F 73 74 64 31   f'.........std1
0390: 00                                                .               
```

#### Opcodes

```
  0: 0x0381 [0x66] LOAD_EXT_SCHEDULER_MAIN: Load scheduler "std1" with entities [EventEntity, EventEntity], work=32*
  1: 0x0390 [0x00] END_REQSTACK()
```

### Event 65535.38

#### Metadata

| Field        | Value    |
|--------------|----------|
| Entrypoint   | 0x0391   |
| Data Size    | 14 bytes |
| Instructions | 2        |

```
      00 01 02 03 04 05 06 07  08 09 0A 0B 0C 0D 0E 0F
      -- -- -- -- -- -- -- --  -- -- -- -- -- -- -- --
0390:    53 F8 FF FF 7F F8 FF  FF 7F 73 74 64 31 00      S........std1. 
```

#### Opcodes

```
  0: 0x0391 [0x53] WAIT_SCHEDULER_TASK: Wait for scheduler "std1" with entities [EventEntity, EventEntity]
  1: 0x039E [0x00] END_REQSTACK()
```

### Event 65535.39

#### Metadata

| Field        | Value    |
|--------------|----------|
| Entrypoint   | 0x039F   |
| Data Size    | 16 bytes |
| Instructions | 4        |

```
      00 01 02 03 04 05 06 07  08 09 0A 0B 0C 0D 0E 0F
      -- -- -- -- -- -- -- --  -- -- -- -- -- -- -- --
0390:                                               6E                 n
03A0: F8 FF FF 7F 28 80 99 F8  FF FF 7F 1C 29 80 00     ....(.......).. 
```

#### Opcodes

```
  0: 0x039F [0x6E] EventEntity uses emote 21*
  1: 0x03A6 [0x99] Wait for EventEntity animation to complete
  2: 0x03AB [0x1C] WAIT(60* ticks)
  3: 0x03AE [0x00] END_REQSTACK()
```

### Event 65535.40

#### Metadata

| Field        | Value    |
|--------------|----------|
| Entrypoint   | 0x03AF   |
| Data Size    | 16 bytes |
| Instructions | 4        |

```
      00 01 02 03 04 05 06 07  08 09 0A 0B 0C 0D 0E 0F
      -- -- -- -- -- -- -- --  -- -- -- -- -- -- -- --
03A0:                                               6E                 n
03B0: F8 FF FF 7F 22 80 99 F8  FF FF 7F 1C 29 80 00     ....".......).. 
```

#### Opcodes

```
  0: 0x03AF [0x6E] EventEntity uses emote 7*
  1: 0x03B6 [0x99] Wait for EventEntity animation to complete
  2: 0x03BB [0x1C] WAIT(60* ticks)
  3: 0x03BE [0x00] END_REQSTACK()
```

### Event 65535.41

#### Metadata

| Field        | Value    |
|--------------|----------|
| Entrypoint   | 0x03BF   |
| Data Size    | 16 bytes |
| Instructions | 4        |

```
      00 01 02 03 04 05 06 07  08 09 0A 0B 0C 0D 0E 0F
      -- -- -- -- -- -- -- --  -- -- -- -- -- -- -- --
03B0:                                               6E                 n
03C0: F8 FF FF 7F 2A 80 99 F8  FF FF 7F 1C 29 80 00     ....*.......).. 
```

#### Opcodes

```
  0: 0x03BF [0x6E] EventEntity uses emote 6*
  1: 0x03C6 [0x99] Wait for EventEntity animation to complete
  2: 0x03CB [0x1C] WAIT(60* ticks)
  3: 0x03CE [0x00] END_REQSTACK()
```

### Event 65535.42

#### Metadata

| Field        | Value    |
|--------------|----------|
| Entrypoint   | 0x03CF   |
| Data Size    | 16 bytes |
| Instructions | 4        |

```
      00 01 02 03 04 05 06 07  08 09 0A 0B 0C 0D 0E 0F
      -- -- -- -- -- -- -- --  -- -- -- -- -- -- -- --
03C0:                                               6E                 n
03D0: F8 FF FF 7F 2B 80 99 F8  FF FF 7F 1C 29 80 00     ....+.......).. 
```

#### Opcodes

```
  0: 0x03CF [0x6E] EventEntity uses emote 11*
  1: 0x03D6 [0x99] Wait for EventEntity animation to complete
  2: 0x03DB [0x1C] WAIT(60* ticks)
  3: 0x03DE [0x00] END_REQSTACK()
```

### Event 65535.43

#### Metadata

| Field        | Value    |
|--------------|----------|
| Entrypoint   | 0x03DF   |
| Data Size    | 16 bytes |
| Instructions | 4        |

```
      00 01 02 03 04 05 06 07  08 09 0A 0B 0C 0D 0E 0F
      -- -- -- -- -- -- -- --  -- -- -- -- -- -- -- --
03D0:                                               6E                 n
03E0: F8 FF FF 7F 2C 80 99 F8  FF FF 7F 1C 29 80 00     ....,.......).. 
```

#### Opcodes

```
  0: 0x03DF [0x6E] EventEntity uses emote 14*
  1: 0x03E6 [0x99] Wait for EventEntity animation to complete
  2: 0x03EB [0x1C] WAIT(60* ticks)
  3: 0x03EE [0x00] END_REQSTACK()
```

### Event 65535.44

#### Metadata

| Field        | Value    |
|--------------|----------|
| Entrypoint   | 0x03EF   |
| Data Size    | 16 bytes |
| Instructions | 4        |

```
      00 01 02 03 04 05 06 07  08 09 0A 0B 0C 0D 0E 0F
      -- -- -- -- -- -- -- --  -- -- -- -- -- -- -- --
03E0:                                               6E                 n
03F0: F8 FF FF 7F 2D 80 99 F8  FF FF 7F 1C 29 80 00     ....-.......).. 
```

#### Opcodes

```
  0: 0x03EF [0x6E] EventEntity uses emote 4*
  1: 0x03F6 [0x99] Wait for EventEntity animation to complete
  2: 0x03FB [0x1C] WAIT(60* ticks)
  3: 0x03FE [0x00] END_REQSTACK()
```

### Event 65535.45

#### Metadata

| Field        | Value    |
|--------------|----------|
| Entrypoint   | 0x03FF   |
| Data Size    | 16 bytes |
| Instructions | 4        |

```
      00 01 02 03 04 05 06 07  08 09 0A 0B 0C 0D 0E 0F
      -- -- -- -- -- -- -- --  -- -- -- -- -- -- -- --
03F0:                                               6E                 n
0400: F8 FF FF 7F 2E 80 99 F8  FF FF 7F 1C 29 80 00     ............).. 
```

#### Opcodes

```
  0: 0x03FF [0x6E] EventEntity uses emote 19*
  1: 0x0406 [0x99] Wait for EventEntity animation to complete
  2: 0x040B [0x1C] WAIT(60* ticks)
  3: 0x040E [0x00] END_REQSTACK()
```

### Event 65535.46

#### Metadata

| Field        | Value    |
|--------------|----------|
| Entrypoint   | 0x040F   |
| Data Size    | 16 bytes |
| Instructions | 4        |

```
      00 01 02 03 04 05 06 07  08 09 0A 0B 0C 0D 0E 0F
      -- -- -- -- -- -- -- --  -- -- -- -- -- -- -- --
0400:                                               6E                 n
0410: F8 FF FF 7F 2F 80 99 F8  FF FF 7F 1C 29 80 00     ..../.......).. 
```

#### Opcodes

```
  0: 0x040F [0x6E] EventEntity uses emote 12*
  1: 0x0416 [0x99] Wait for EventEntity animation to complete
  2: 0x041B [0x1C] WAIT(60* ticks)
  3: 0x041E [0x00] END_REQSTACK()
```

### Event 65535.47

#### Metadata

| Field        | Value    |
|--------------|----------|
| Entrypoint   | 0x041F   |
| Data Size    | 16 bytes |
| Instructions | 4        |

```
      00 01 02 03 04 05 06 07  08 09 0A 0B 0C 0D 0E 0F
      -- -- -- -- -- -- -- --  -- -- -- -- -- -- -- --
0410:                                               6E                 n
0420: F8 FF FF 7F 2F 80 99 F8  FF FF 7F 1C 29 80 00     ..../.......).. 
```

#### Opcodes

```
  0: 0x041F [0x6E] EventEntity uses emote 12*
  1: 0x0426 [0x99] Wait for EventEntity animation to complete
  2: 0x042B [0x1C] WAIT(60* ticks)
  3: 0x042E [0x00] END_REQSTACK()
```

### Event 65535.48

#### Metadata

| Field        | Value    |
|--------------|----------|
| Entrypoint   | 0x042F   |
| Data Size    | 16 bytes |
| Instructions | 4        |

```
      00 01 02 03 04 05 06 07  08 09 0A 0B 0C 0D 0E 0F
      -- -- -- -- -- -- -- --  -- -- -- -- -- -- -- --
0420:                                               6E                 n
0430: F8 FF FF 7F 18 80 99 F8  FF FF 7F 1C 29 80 00     ............).. 
```

#### Opcodes

```
  0: 0x042F [0x6E] EventEntity uses emote 29*
  1: 0x0436 [0x99] Wait for EventEntity animation to complete
  2: 0x043B [0x1C] WAIT(60* ticks)
  3: 0x043E [0x00] END_REQSTACK()
```

### Event 65535.49

#### Metadata

| Field        | Value   |
|--------------|---------|
| Entrypoint   | 0x043F  |
| Data Size    | 9 bytes |
| Instructions | 3       |

```
      00 01 02 03 04 05 06 07  08 09 0A 0B 0C 0D 0E 0F
      -- -- -- -- -- -- -- --  -- -- -- -- -- -- -- --
0430:                                               5E                 ^
0440: 69 64 6C 30 1C 29 80 00                           idl0.)..        
```

#### Opcodes

```
  0: 0x043F [0x5E] EventEntity goes idle (kills current action) (animation: "idl0")
  1: 0x0444 [0x1C] WAIT(60* ticks)
  2: 0x0447 [0x00] END_REQSTACK()
```

### Event 48

#### Metadata

| Field        | Value   |
|--------------|---------|
| Entrypoint   | 0x0448  |
| Data Size    | 1 bytes |
| Instructions | 1       |

```
      00 01 02 03 04 05 06 07  08 09 0A 0B 0C 0D 0E 0F
      -- -- -- -- -- -- -- --  -- -- -- -- -- -- -- --
0440:                          00                               .       
```

#### Opcodes

```
  0: 0x0448 [0x00] END_REQSTACK()
```
