# 17940521

## Common Data

| Field            | Value                               |
|------------------|-------------------------------------|
| Zone             | Celennia Memorial Library (ID: 284) |
| Block Size       | 148 bytes                           |
| Total Events     | 4                                   |
| References Count | 7                                   |

## List of Events

| Event ID                 | Entrypoint   |   Size |   Instructions |
|--------------------------|--------------|--------|----------------|
| [65535](#event-65535)    | 0x0000       |      1 |              1 |
| [37](#event-37)          | 0x0001       |      1 |              1 |
| [65535.1](#event-655351) | 0x0002       |     73 |             17 |
| [65535.2](#event-655352) | 0x004B       |     10 |              4 |

## DAT References (imed_data)

|   Index | Hex Value   |   Dec Value |
|---------|-------------|-------------|
|       0 | 0x0007      |           7 |
|       1 | 0x04B0      |        1200 |
|       2 | 0x0004      |           4 |
|       3 | 0x0384      |         900 |
|       4 | 0x0258      |         600 |
|       5 | 0x0000      |           0 |
|       6 | 0x0005      |           5 |

## Events

### Event 65535

#### Metadata

| Field        | Value   |
|--------------|---------|
| Entrypoint   | 0x0000  |
| Data Size    | 1 bytes |
| Instructions | 1       |

```
      00 01 02 03 04 05 06 07  08 09 0A 0B 0C 0D 0E 0F
      -- -- -- -- -- -- -- --  -- -- -- -- -- -- -- --
0000: 00                                                .               
```

#### Opcodes

```
  0: 0x0000 [0x00] END_REQSTACK()
```

### Event 37

#### Metadata

| Field        | Value   |
|--------------|---------|
| Entrypoint   | 0x0001  |
| Data Size    | 1 bytes |
| Instructions | 1       |

```
      00 01 02 03 04 05 06 07  08 09 0A 0B 0C 0D 0E 0F
      -- -- -- -- -- -- -- --  -- -- -- -- -- -- -- --
0000:    00                                              .              
```

#### Opcodes

```
  0: 0x0001 [0x00] END_REQSTACK()
```

### Event 65535.1

#### Metadata

| Field        | Value    |
|--------------|----------|
| Entrypoint   | 0x0002   |
| Data Size    | 73 bytes |
| Instructions | 17       |

```
      00 01 02 03 04 05 06 07  08 09 0A 0B 0C 0D 0E 0F
      -- -- -- -- -- -- -- --  -- -- -- -- -- -- -- --
0000:       02 20 10 00 80 00  12 00 03 00 00 01 80 01    . ............
0010: 27 00 02 20 10 02 80 04  22 00 03 00 00 03 80 01  '.. ....".......
0020: 27 00 03 00 00 04 80 B4  0A 00 00 03 21 10 00 00  '...........!...
0030: 02 21 10 05 80 02 42 00  B4 0C 21 10 1C 06 80 01  .!....B...!.....
0040: 30 00 B4 0B 05 22 10 B4  06 00 00                 0....".....     
```

#### Opcodes

```
  0: 0x0002 [0x02] IF !(Work_Zone[32] == 7*) GOTO 0x0012
  1: 0x000A [0x03] ExtData[1]->WorkLocal[0] = 1200*
  2: 0x000F [0x01] GOTO 0x0027
  3: 0x0012 [0x02] IF !(Work_Zone[32] < 4*) GOTO 0x0022
  4: 0x001A [0x03] ExtData[1]->WorkLocal[0] = 900*
  5: 0x001F [0x01] GOTO 0x0027
  6: 0x0022 [0x03] ExtData[1]->WorkLocal[0] = 600*

SUBROUTINE_0027:
  7: 0x0027 [0xB4] UI_WINDOW_STRING_HANDLER(case=0x0A - Open event time window, work_offset=ExtData[1]->WorkLocal[0])
  8: 0x002B [0x03] Work_Zone[33] = ExtData[1]->WorkLocal[0]

SUBROUTINE_0030:
  9: 0x0030 [0x02] IF !(Work_Zone[33] <= 0*) GOTO 0x0042
 10: 0x0038 [0xB4] UI_WINDOW_STRING_HANDLER(case=0x0C - Get event time count value, work_offset=Work_Zone[33])
 11: 0x003C [0x1C] WAIT(5* ticks)
 12: 0x003F [0x01] GOTO 0x0030
 13: 0x0042 [0xB4] UI_WINDOW_STRING_HANDLER(case=0x0B - Destroy event time window)
 14: 0x0044 [0x05] Work_Zone[34] = 1
 15: 0x0047 [0xB4] UI_WINDOW_STRING_HANDLER(case=0x06 - Toggle query message flag, flag_value=0x00)
 16: 0x004A [0x00] END_REQSTACK()
```

### Event 65535.2

#### Metadata

| Field        | Value    |
|--------------|----------|
| Entrypoint   | 0x004B   |
| Data Size    | 10 bytes |
| Instructions | 4        |

```
      00 01 02 03 04 05 06 07  08 09 0A 0B 0C 0D 0E 0F
      -- -- -- -- -- -- -- --  -- -- -- -- -- -- -- --
0040:                                   06 21 10 06 22             .!.."
0050: 10 B4 06 01 00                                    .....           
```

#### Opcodes

```
  0: 0x004B [0x06] Work_Zone[33] = 0
  1: 0x004E [0x06] Work_Zone[34] = 0
  2: 0x0051 [0xB4] UI_WINDOW_STRING_HANDLER(case=0x06 - Toggle query message flag, flag_value=0x01)
  3: 0x0054 [0x00] END_REQSTACK()
```
