# 17940519

## Common Data

| Field            | Value                               |
|------------------|-------------------------------------|
| Zone             | Celennia Memorial Library (ID: 284) |
| Block Size       | 124 bytes                           |
| Total Events     | 6                                   |
| References Count | 4                                   |

## List of Events

| Event ID                 | Entrypoint   |   Size |   Instructions |
|--------------------------|--------------|--------|----------------|
| [65535](#event-65535)    | 0x0000       |      1 |              1 |
| [5](#event-5)            | 0x0001       |      1 |              1 |
| [65535.1](#event-655351) | 0x0002       |     33 |              3 |
| [40](#event-40)          | 0x0023       |      1 |              1 |
| [41](#event-41)          | 0x0024       |      1 |              1 |
| [65535.2](#event-655352) | 0x0025       |     31 |              3 |

## DAT References (imed_data)

|   Index | Hex Value   |   Dec Value |
|---------|-------------|-------------|
|       0 | 0x0B53      |        2899 |
|       1 | 0x0D60      |        3424 |
|       2 | 0x0CF2      |        3314 |
|       3 | 0x0CFC      |        3324 |

## Events

### Event 65535

#### Metadata

| Field        | Value   |
|--------------|---------|
| Entrypoint   | 0x0000  |
| Data Size    | 1 bytes |
| Instructions | 1       |

```
      00 01 02 03 04 05 06 07  08 09 0A 0B 0C 0D 0E 0F
      -- -- -- -- -- -- -- --  -- -- -- -- -- -- -- --
0000: 00                                                .               
```

#### Opcodes

```
  0: 0x0000 [0x00] END_REQSTACK()
```

### Event 5

#### Metadata

| Field        | Value   |
|--------------|---------|
| Entrypoint   | 0x0001  |
| Data Size    | 1 bytes |
| Instructions | 1       |

```
      00 01 02 03 04 05 06 07  08 09 0A 0B 0C 0D 0E 0F
      -- -- -- -- -- -- -- --  -- -- -- -- -- -- -- --
0000:    00                                              .              
```

#### Opcodes

```
  0: 0x0001 [0x00] END_REQSTACK()
```

### Event 65535.1

#### Metadata

| Field        | Value    |
|--------------|----------|
| Entrypoint   | 0x0002   |
| Data Size    | 33 bytes |
| Instructions | 3        |

```
      00 01 02 03 04 05 06 07  08 09 0A 0B 0C 0D 0E 0F
      -- -- -- -- -- -- -- --  -- -- -- -- -- -- -- --
0000:       5F 03 00 80 0F C0  11 01 0F C0 11 01 78 78    _...........xx
0010: 78 78 5F 03 01 80 20 C0  11 01 20 C0 11 01 78 78  xx_... ... ...xx
0020: 78 78 00                                          xx.             
```

#### Opcodes

```
  0: 0x0002 [0x5F] MULTI_HANDLER_COMPLEX(mode=0x03 - Load ext scheduler (OpCode 0x5B mode 0), ref=2899*, entity1=Andreine (ID: 17940495/0x0111C00F), entity2=Andreine (ID: 17940495/0x0111C00F), string="xxxx")
  1: 0x0012 [0x5F] MULTI_HANDLER_COMPLEX(mode=0x03 - Load ext scheduler (OpCode 0x5B mode 0), ref=3424*, entity1=Unnamed NPC (ID: 17940512/0x0111C020), entity2=Unnamed NPC (ID: 17940512/0x0111C020), string="xxxx")
  2: 0x0022 [0x00] END_REQSTACK()
```

### Event 40

#### Metadata

| Field        | Value   |
|--------------|---------|
| Entrypoint   | 0x0023  |
| Data Size    | 1 bytes |
| Instructions | 1       |

```
      00 01 02 03 04 05 06 07  08 09 0A 0B 0C 0D 0E 0F
      -- -- -- -- -- -- -- --  -- -- -- -- -- -- -- --
0020:          00                                          .            
```

#### Opcodes

```
  0: 0x0023 [0x00] END_REQSTACK()
```

### Event 41

#### Metadata

| Field        | Value   |
|--------------|---------|
| Entrypoint   | 0x0024  |
| Data Size    | 1 bytes |
| Instructions | 1       |

```
      00 01 02 03 04 05 06 07  08 09 0A 0B 0C 0D 0E 0F
      -- -- -- -- -- -- -- --  -- -- -- -- -- -- -- --
0020:             00                                        .           
```

#### Opcodes

```
  0: 0x0024 [0x00] END_REQSTACK()
```

### Event 65535.2

#### Metadata

| Field        | Value    |
|--------------|----------|
| Entrypoint   | 0x0025   |
| Data Size    | 31 bytes |
| Instructions | 3        |

```
      00 01 02 03 04 05 06 07  08 09 0A 0B 0C 0D 0E 0F
      -- -- -- -- -- -- -- --  -- -- -- -- -- -- -- --
0020:                5B 02 80  1F C0 11 01 1F C0 11 01       [..........
0030: 78 78 78 78 5B 03 80 20  C0 11 01 20 C0 11 01 78  xxxx[.. ... ...x
0040: 78 78 78 00                                       xxx.            
```

#### Opcodes

```
  0: 0x0025 [0x5B] LOAD_EXT_SCHEDULER: Load scheduler "xxxx" with entities [Arciela (ID: 17940511/0x0111C01F), Arciela (ID: 17940511/0x0111C01F)], work=3314*
  1: 0x0034 [0x5B] LOAD_EXT_SCHEDULER: Load scheduler "xxxx" with entities [Unnamed NPC (ID: 17940512/0x0111C020), Unnamed NPC (ID: 17940512/0x0111C020)], work=3324*
  2: 0x0043 [0x00] END_REQSTACK()
```
