# 17940514 - Oshasha

## Common Data

| Field            | Value                               |
|------------------|-------------------------------------|
| Zone             | Celennia Memorial Library (ID: 284) |
| Block Size       | 2564 bytes                          |
| Total Events     | 103                                 |
| References Count | 47                                  |

## List of Events

| Event ID                   | Entrypoint   |   Size |   Instructions |
|----------------------------|--------------|--------|----------------|
| [65535](#event-65535)      | 0x0000       |      1 |              1 |
| [5](#event-5)              | 0x0001       |     25 |              3 |
| [65535.1](#event-655351)   | 0x001A       |     26 |              6 |
| [65535.2](#event-655352)   | 0x0034       |     25 |              3 |
| [65535.3](#event-655353)   | 0x004D       |     14 |              4 |
| [37](#event-37)            | 0x005B       |      1 |              1 |
| [65535.4](#event-655354)   | 0x005C       |     50 |              6 |
| [65535.5](#event-655355)   | 0x008E       |     57 |              7 |
| [65535.6](#event-655356)   | 0x00C7       |     29 |              3 |
| [65535.7](#event-655357)   | 0x00E4       |     29 |              3 |
| [65535.8](#event-655358)   | 0x0101       |     33 |              3 |
| [65535.9](#event-655359)   | 0x0122       |     33 |              3 |
| [65535.10](#event-6553510) | 0x0143       |     33 |              3 |
| [65535.11](#event-6553511) | 0x0164       |     29 |              3 |
| [65535.12](#event-6553512) | 0x0181       |     29 |              3 |
| [65535.13](#event-6553513) | 0x019E       |     29 |              3 |
| [65535.14](#event-6553514) | 0x01BB       |     29 |              3 |
| [65535.15](#event-6553515) | 0x01D8       |     29 |              3 |
| [65535.16](#event-6553516) | 0x01F5       |     29 |              3 |
| [65535.17](#event-6553517) | 0x0212       |     29 |              3 |
| [65535.18](#event-6553518) | 0x022F       |     29 |              3 |
| [65535.19](#event-6553519) | 0x024C       |     29 |              3 |
| [43](#event-43)            | 0x0269       |      7 |              2 |
| [44](#event-44)            | 0x0270       |      7 |              2 |
| [46](#event-46)            | 0x0277       |      7 |              2 |
| [65535.20](#event-6553520) | 0x027E       |     24 |              8 |
| [65535.21](#event-6553521) | 0x0296       |     16 |              2 |
| [65535.22](#event-6553522) | 0x02A6       |     42 |              4 |
| [65535.23](#event-6553523) | 0x02D0       |     16 |              2 |
| [65535.24](#event-6553524) | 0x02E0       |     14 |              2 |
| [65535.25](#event-6553525) | 0x02EE       |     16 |              2 |
| [65535.26](#event-6553526) | 0x02FE       |     14 |              2 |
| [65535.27](#event-6553527) | 0x030C       |     16 |              2 |
| [65535.28](#event-6553528) | 0x031C       |     14 |              2 |
| [65535.29](#event-6553529) | 0x032A       |     16 |              2 |
| [65535.30](#event-6553530) | 0x033A       |     14 |              2 |
| [65535.31](#event-6553531) | 0x0348       |     16 |              2 |
| [65535.32](#event-6553532) | 0x0358       |     14 |              2 |
| [65535.33](#event-6553533) | 0x0366       |     16 |              2 |
| [65535.34](#event-6553534) | 0x0376       |     14 |              2 |
| [65535.35](#event-6553535) | 0x0384       |     16 |              2 |
| [65535.36](#event-6553536) | 0x0394       |     14 |              2 |
| [65535.37](#event-6553537) | 0x03A2       |     16 |              2 |
| [65535.38](#event-6553538) | 0x03B2       |     14 |              2 |
| [65535.39](#event-6553539) | 0x03C0       |     16 |              2 |
| [65535.40](#event-6553540) | 0x03D0       |     22 |              4 |
| [65535.41](#event-6553541) | 0x03E6       |     16 |              2 |
| [65535.42](#event-6553542) | 0x03F6       |     14 |              2 |
| [65535.43](#event-6553543) | 0x0404       |     16 |              2 |
| [65535.44](#event-6553544) | 0x0414       |     14 |              2 |
| [65535.45](#event-6553545) | 0x0422       |     16 |              2 |
| [65535.46](#event-6553546) | 0x0432       |     22 |              4 |
| [65535.47](#event-6553547) | 0x0448       |     16 |              2 |
| [65535.48](#event-6553548) | 0x0458       |     14 |              2 |
| [65535.49](#event-6553549) | 0x0466       |     16 |              2 |
| [65535.50](#event-6553550) | 0x0476       |     14 |              2 |
| [65535.51](#event-6553551) | 0x0484       |     16 |              2 |
| [65535.52](#event-6553552) | 0x0494       |     14 |              2 |
| [65535.53](#event-6553553) | 0x04A2       |     16 |              2 |
| [65535.54](#event-6553554) | 0x04B2       |     14 |              2 |
| [65535.55](#event-6553555) | 0x04C0       |     16 |              2 |
| [65535.56](#event-6553556) | 0x04D0       |     14 |              2 |
| [65535.57](#event-6553557) | 0x04DE       |     16 |              2 |
| [65535.58](#event-6553558) | 0x04EE       |     14 |              2 |
| [65535.59](#event-6553559) | 0x04FC       |     16 |              2 |
| [65535.60](#event-6553560) | 0x050C       |     14 |              2 |
| [65535.61](#event-6553561) | 0x051A       |     16 |              2 |
| [65535.62](#event-6553562) | 0x052A       |     22 |              4 |
| [65535.63](#event-6553563) | 0x0540       |     44 |              4 |
| [65535.64](#event-6553564) | 0x056C       |     16 |              2 |
| [65535.65](#event-6553565) | 0x057C       |     14 |              2 |
| [65535.66](#event-6553566) | 0x058A       |     18 |              4 |
| [65535.67](#event-6553567) | 0x059C       |     18 |              4 |
| [65535.68](#event-6553568) | 0x05AE       |     18 |              4 |
| [65535.69](#event-6553569) | 0x05C0       |     18 |              4 |
| [65535.70](#event-6553570) | 0x05D2       |     18 |              4 |
| [65535.71](#event-6553571) | 0x05E4       |     27 |              3 |
| [65535.72](#event-6553572) | 0x05FF       |      9 |              3 |
| [65535.73](#event-6553573) | 0x0608       |     16 |              2 |
| [65535.74](#event-6553574) | 0x0618       |     14 |              2 |
| [65535.75](#event-6553575) | 0x0626       |     16 |              2 |
| [65535.76](#event-6553576) | 0x0636       |     14 |              2 |
| [65535.77](#event-6553577) | 0x0644       |     16 |              2 |
| [65535.78](#event-6553578) | 0x0654       |     14 |              2 |
| [65535.79](#event-6553579) | 0x0662       |     16 |              2 |
| [65535.80](#event-6553580) | 0x0672       |     14 |              2 |
| [65535.81](#event-6553581) | 0x0680       |     16 |              2 |
| [65535.82](#event-6553582) | 0x0690       |     14 |              2 |
| [65535.83](#event-6553583) | 0x069E       |     16 |              2 |
| [65535.84](#event-6553584) | 0x06AE       |     14 |              2 |
| [65535.85](#event-6553585) | 0x06BC       |     16 |              2 |
| [65535.86](#event-6553586) | 0x06CC       |     14 |              2 |
| [65535.87](#event-6553587) | 0x06DA       |     16 |              2 |
| [65535.88](#event-6553588) | 0x06EA       |     14 |              2 |
| [65535.89](#event-6553589) | 0x06F8       |     16 |              2 |
| [65535.90](#event-6553590) | 0x0708       |     14 |              2 |
| [65535.91](#event-6553591) | 0x0716       |     22 |              8 |
| [65535.92](#event-6553592) | 0x072C       |     22 |              8 |
| [65535.93](#event-6553593) | 0x0742       |     15 |              5 |
| [65535.94](#event-6553594) | 0x0751       |     22 |              8 |
| [65535.95](#event-6553595) | 0x0767       |     22 |              8 |
| [65535.96](#event-6553596) | 0x077D       |     15 |              5 |
| [65535.97](#event-6553597) | 0x078C       |     15 |              5 |

## DAT References (imed_data)

|   Index | Hex Value   |   Dec Value |
|---------|-------------|-------------|
|       0 | 0x000D      |          13 |
|       1 | 0xFFFE7CD1  |  4294868177 |
|       2 | 0xFFFEA1F1  |  4294877681 |
|       3 | 0xFFFFF79B  |  4294965147 |
|       4 | 0x001E      |          30 |
|       5 | 0xFFFE6FCC  |  4294864844 |
|       6 | 0xFFFE9717  |  4294874903 |
|       7 | 0x00D2      |         210 |
|       8 | 0x055D      |        1373 |
|       9 | 0x0801      |        2049 |
|      10 | 0x00B0      |         176 |
|      11 | 0x0031      |          49 |
|      12 | 0x00BD      |         189 |
|      13 | 0x0053      |          83 |
|      14 | 0x006C      |         108 |
|      15 | 0x0072      |         114 |
|      16 | 0x0038      |          56 |
|      17 | 0x002A      |          42 |
|      18 | 0x0028      |          40 |
|      19 | 0xFFFE5AA9  |  4294859433 |
|      20 | 0xFFFE7D1B  |  4294868251 |
|      21 | 0x0005      |           5 |
|      22 | 0x0029      |          41 |
|      23 | 0x003C      |          60 |
|      24 | 0x0001      |           1 |
|      25 | 0x0007      |           7 |
|      26 | 0x0006      |           6 |
|      27 | 0x0008      |           8 |
|      28 | 0x002B      |          43 |
|      29 | 0x01AE      |         430 |
|      30 | 0x01AF      |         431 |
|      31 | 0x002E      |          46 |
|      32 | 0xFFFE89A8  |  4294871464 |
|      33 | 0xFFFE884A  |  4294871114 |
|      34 | 0xFFFFF79A  |  4294965146 |
|      35 | 0xFFFE8F94  |  4294872980 |
|      36 | 0xFFFE945A  |  4294874202 |
|      37 | 0xFFFFF770  |  4294965104 |
|      38 | 0xFFFE8636  |  4294870582 |
|      39 | 0xFFFE7B33  |  4294867763 |
|      40 | 0xFFFE881C  |  4294871068 |
|      41 | 0xFFFE936E  |  4294873966 |
|      42 | 0xFFFE8344  |  4294869828 |
|      43 | 0xFFFEA0DA  |  4294877402 |
|      44 | 0xFFFE9254  |  4294873684 |
|      45 | 0xFFFEB98F  |  4294883727 |
|      46 | 0xFFFFF5A7  |  4294964647 |

## Events

### Event 65535

#### Metadata

| Field        | Value   |
|--------------|---------|
| Entrypoint   | 0x0000  |
| Data Size    | 1 bytes |
| Instructions | 1       |

```
      00 01 02 03 04 05 06 07  08 09 0A 0B 0C 0D 0E 0F
      -- -- -- -- -- -- -- --  -- -- -- -- -- -- -- --
0000: 00                                                .               
```

#### Opcodes

```
  0: 0x0000 [0x00] END_REQSTACK()
```

### Event 5

#### Metadata

| Field        | Value    |
|--------------|----------|
| Entrypoint   | 0x0001   |
| Data Size    | 25 bytes |
| Instructions | 3        |

```
      00 01 02 03 04 05 06 07  08 09 0A 0B 0C 0D 0E 0F
      -- -- -- -- -- -- -- --  -- -- -- -- -- -- -- --
0000:    B4 00 00 00 3F 3F 3F  00 00 00 00 00 00 00 00   ....???........
0010: 00 00 00 00 00 B5 00 00  00 00                    ..........      
```

#### Opcodes

```
  0: 0x0001 [0xB4] UI_WINDOW_STRING_HANDLER(case=0x00 - Copy string from opcode, work_offset=ExtData[1]->WorkLocal[0], string="???")
  1: 0x0015 [0xB5] SET_EVENT_ENTITY_NAME: Change EventEntity name to ExtData[1]->WorkLocal[0]
  2: 0x0019 [0x00] END_REQSTACK()
```

### Event 65535.1

#### Metadata

| Field        | Value    |
|--------------|----------|
| Entrypoint   | 0x001A   |
| Data Size    | 26 bytes |
| Instructions | 6        |

```
      00 01 02 03 04 05 06 07  08 09 0A 0B 0C 0D 0E 0F
      -- -- -- -- -- -- -- --  -- -- -- -- -- -- -- --
0010:                                32 00 80 1F 00 01            2.....
0020: 80 02 80 03 80 1F 01 4A  0F C0 11 01 22 C0 11 01  .......J...."...
0030: 1C 04 80 00                                       ....            
```

#### Opcodes

```
  0: 0x001A [0x32] ExtData[1]->MainSpeed = 13* * 0.1
  1: 0x001D [0x1F] MOVE_ENTITY: EventEntity moves to X=-99.119*, Z=-89.615*, Y=-2.149*
  2: 0x0025 [0x1F] MOVE_ENTITY: Update entity position (mode=1)
  3: 0x0027 [0x4A] Andreine (ID: 17940495/0x0111C00F) looks at Oshasha (ID: 17940514/0x0111C022)
  4: 0x0030 [0x1C] WAIT(30* ticks)
  5: 0x0033 [0x00] END_REQSTACK()
```

### Event 65535.2

#### Metadata

| Field        | Value    |
|--------------|----------|
| Entrypoint   | 0x0034   |
| Data Size    | 25 bytes |
| Instructions | 3        |

```
      00 01 02 03 04 05 06 07  08 09 0A 0B 0C 0D 0E 0F
      -- -- -- -- -- -- -- --  -- -- -- -- -- -- -- --
0030:             B4 00 00 00  4F 73 68 61 73 68 61 00      ....Oshasha.
0040: 00 00 00 00 00 00 00 00  B5 00 00 00 00           .............   
```

#### Opcodes

```
  0: 0x0034 [0xB4] UI_WINDOW_STRING_HANDLER(case=0x00 - Copy string from opcode, work_offset=ExtData[1]->WorkLocal[0], string="Oshasha")
  1: 0x0048 [0xB5] SET_EVENT_ENTITY_NAME: Change EventEntity name to ExtData[1]->WorkLocal[0]
  2: 0x004C [0x00] END_REQSTACK()
```

### Event 65535.3

#### Metadata

| Field        | Value    |
|--------------|----------|
| Entrypoint   | 0x004D   |
| Data Size    | 14 bytes |
| Instructions | 4        |

```
      00 01 02 03 04 05 06 07  08 09 0A 0B 0C 0D 0E 0F
      -- -- -- -- -- -- -- --  -- -- -- -- -- -- -- --
0040:                                         32 00 80               2..
0050: 1F 00 05 80 06 80 03 80  1F 01 00                 ...........     
```

#### Opcodes

```
  0: 0x004D [0x32] ExtData[1]->MainSpeed = 13* * 0.1
  1: 0x0050 [0x1F] MOVE_ENTITY: EventEntity moves to X=-102.452*, Z=-92.393*, Y=-2.149*
  2: 0x0058 [0x1F] MOVE_ENTITY: Update entity position (mode=1)
  3: 0x005A [0x00] END_REQSTACK()
```

### Event 37

#### Metadata

| Field        | Value   |
|--------------|---------|
| Entrypoint   | 0x005B  |
| Data Size    | 1 bytes |
| Instructions | 1       |

```
      00 01 02 03 04 05 06 07  08 09 0A 0B 0C 0D 0E 0F
      -- -- -- -- -- -- -- --  -- -- -- -- -- -- -- --
0050:                                   00                         .    
```

#### Opcodes

```
  0: 0x005B [0x00] END_REQSTACK()
```

### Event 65535.4

#### Metadata

| Field        | Value    |
|--------------|----------|
| Entrypoint   | 0x005C   |
| Data Size    | 50 bytes |
| Instructions | 6        |

```
      00 01 02 03 04 05 06 07  08 09 0A 0B 0C 0D 0E 0F
      -- -- -- -- -- -- -- --  -- -- -- -- -- -- -- --
0050:                                      81 00 F8 FF              ....
0060: FF 7F 03 02 10 07 80 5F  05 08 80 F8 FF FF 7F F8  ......._........
0070: FF FF 7F 66 75 77 61 02  10 5F 07 F8 FF FF 7F F8  ...fuwa.._......
0080: FF FF 7F 66 75 77 61 81  01 F8 FF FF 7F 00        ...fuwa.......  
```

#### Opcodes

```
  0: 0x005C [0x81] SET_ENTITY_BLINKING(blink_flag=0x00, entity=EventEntity)
  1: 0x0062 [0x03] Work_Zone[2] = 210*
  2: 0x0067 [0x5F] MULTI_HANDLER_COMPLEX(mode=0x05 - Load ext scheduler with flag (OpCode 0x5B mode 0, flag 1), ref=1373*, entity1=EventEntity, entity2=EventEntity, string="fuwa", extra=Work_Zone[2])
  3: 0x0079 [0x5F] MULTI_HANDLER_COMPLEX(mode=0x07 - Wait scheduler task (OpCode 0x53))
  4: 0x0087 [0x81] SET_ENTITY_BLINKING(blink_flag=0x01, entity=EventEntity)
  5: 0x008D [0x00] END_REQSTACK()
```

### Event 65535.5

#### Metadata

| Field        | Value    |
|--------------|----------|
| Entrypoint   | 0x008E   |
| Data Size    | 57 bytes |
| Instructions | 7        |

```
      00 01 02 03 04 05 06 07  08 09 0A 0B 0C 0D 0E 0F
      -- -- -- -- -- -- -- --  -- -- -- -- -- -- -- --
0080:                                            81 00                ..
0090: F8 FF FF 7F 7C 00 F8 FF  FF 7F 5F 05 09 80 F8 FF  ....|....._.....
00A0: FF 7F F8 FF FF 7F 79 67  6F 30 0A 80 5F 07 F8 FF  ......ygo0.._...
00B0: FF 7F F8 FF FF 7F 79 67  6F 30 81 01 F8 FF FF 7F  ......ygo0......
00C0: 7C 01 F8 FF FF 7F 00                              |......         
```

#### Opcodes

```
  0: 0x008E [0x81] SET_ENTITY_BLINKING(blink_flag=0x00, entity=EventEntity)
  1: 0x0094 [0x7C] EventEntity->Render.Flags2 |= 0x00
  2: 0x009A [0x5F] MULTI_HANDLER_COMPLEX(mode=0x05 - Load ext scheduler with flag (OpCode 0x5B mode 0, flag 1), ref=2049*, entity1=EventEntity, entity2=EventEntity, string="ygo0", extra=176*)
  3: 0x00AC [0x5F] MULTI_HANDLER_COMPLEX(mode=0x07 - Wait scheduler task (OpCode 0x53))
  4: 0x00BA [0x81] SET_ENTITY_BLINKING(blink_flag=0x01, entity=EventEntity)
  5: 0x00C0 [0x7C] EventEntity->Render.Flags2 |= 0x01
  6: 0x00C6 [0x00] END_REQSTACK()
```

### Event 65535.6

#### Metadata

| Field        | Value    |
|--------------|----------|
| Entrypoint   | 0x00C7   |
| Data Size    | 29 bytes |
| Instructions | 3        |

```
      00 01 02 03 04 05 06 07  08 09 0A 0B 0C 0D 0E 0F
      -- -- -- -- -- -- -- --  -- -- -- -- -- -- -- --
00C0:                      66  0B 80 F8 FF FF 7F F8 FF         f........
00D0: FF 7F 74 6C 6B 30 53 F8  FF FF 7F F8 FF FF 7F 74  ..tlk0S........t
00E0: 6C 6B 30 00                                       lk0.            
```

#### Opcodes

```
  0: 0x00C7 [0x66] LOAD_EXT_SCHEDULER_MAIN: Load scheduler "tlk0" with entities [EventEntity, EventEntity], work=49*
  1: 0x00D6 [0x53] WAIT_SCHEDULER_TASK: Wait for scheduler "tlk0" with entities [EventEntity, EventEntity]
  2: 0x00E3 [0x00] END_REQSTACK()
```

### Event 65535.7

#### Metadata

| Field        | Value    |
|--------------|----------|
| Entrypoint   | 0x00E4   |
| Data Size    | 29 bytes |
| Instructions | 3        |

```
      00 01 02 03 04 05 06 07  08 09 0A 0B 0C 0D 0E 0F
      -- -- -- -- -- -- -- --  -- -- -- -- -- -- -- --
00E0:             66 0B 80 F8  FF FF 7F F8 FF FF 7F 74      f..........t
00F0: 6C 6B 31 53 F8 FF FF 7F  F8 FF FF 7F 74 6C 6B 31  lk1S........tlk1
0100: 00                                                .               
```

#### Opcodes

```
  0: 0x00E4 [0x66] LOAD_EXT_SCHEDULER_MAIN: Load scheduler "tlk1" with entities [EventEntity, EventEntity], work=49*
  1: 0x00F3 [0x53] WAIT_SCHEDULER_TASK: Wait for scheduler "tlk1" with entities [EventEntity, EventEntity]
  2: 0x0100 [0x00] END_REQSTACK()
```

### Event 65535.8

#### Metadata

| Field        | Value    |
|--------------|----------|
| Entrypoint   | 0x0101   |
| Data Size    | 33 bytes |
| Instructions | 3        |

```
      00 01 02 03 04 05 06 07  08 09 0A 0B 0C 0D 0E 0F
      -- -- -- -- -- -- -- --  -- -- -- -- -- -- -- --
0100:    5F 06 0C 80 F8 FF FF  7F F8 FF FF 7F 74 6C 6B   _...........tlk
0110: 30 0D 80 5F 07 F8 FF FF  7F F8 FF FF 7F 74 6C 6B  0.._.........tlk
0120: 30 00                                             0.              
```

#### Opcodes

```
  0: 0x0101 [0x5F] MULTI_HANDLER_COMPLEX(mode=0x06 - Load ext scheduler with flag (OpCode 0x5B mode 1, flag 1), ref=189*, entity1=EventEntity, entity2=EventEntity, string="tlk0", extra=83*)
  1: 0x0113 [0x5F] MULTI_HANDLER_COMPLEX(mode=0x07 - Wait scheduler task (OpCode 0x53))
  2: 0x0121 [0x00] END_REQSTACK()
```

### Event 65535.9

#### Metadata

| Field        | Value    |
|--------------|----------|
| Entrypoint   | 0x0122   |
| Data Size    | 33 bytes |
| Instructions | 3        |

```
      00 01 02 03 04 05 06 07  08 09 0A 0B 0C 0D 0E 0F
      -- -- -- -- -- -- -- --  -- -- -- -- -- -- -- --
0120:       5F 06 0C 80 F8 FF  FF 7F F8 FF FF 7F 74 6C    _...........tl
0130: 6B 31 0E 80 5F 07 F8 FF  FF 7F F8 FF FF 7F 74 6C  k1.._.........tl
0140: 6B 31 00                                          k1.             
```

#### Opcodes

```
  0: 0x0122 [0x5F] MULTI_HANDLER_COMPLEX(mode=0x06 - Load ext scheduler with flag (OpCode 0x5B mode 1, flag 1), ref=189*, entity1=EventEntity, entity2=EventEntity, string="tlk1", extra=108*)
  1: 0x0134 [0x5F] MULTI_HANDLER_COMPLEX(mode=0x07 - Wait scheduler task (OpCode 0x53))
  2: 0x0142 [0x00] END_REQSTACK()
```

### Event 65535.10

#### Metadata

| Field        | Value    |
|--------------|----------|
| Entrypoint   | 0x0143   |
| Data Size    | 33 bytes |
| Instructions | 3        |

```
      00 01 02 03 04 05 06 07  08 09 0A 0B 0C 0D 0E 0F
      -- -- -- -- -- -- -- --  -- -- -- -- -- -- -- --
0140:          5F 06 0F 80 F8  FF FF 7F F8 FF FF 7F 70     _...........p
0150: 6F 73 30 10 80 5F 07 F8  FF FF 7F F8 FF FF 7F 70  os0.._.........p
0160: 6F 73 30 00                                       os0.            
```

#### Opcodes

```
  0: 0x0143 [0x5F] MULTI_HANDLER_COMPLEX(mode=0x06 - Load ext scheduler with flag (OpCode 0x5B mode 1, flag 1), ref=114*, entity1=EventEntity, entity2=EventEntity, string="pos0", extra=56*)
  1: 0x0155 [0x5F] MULTI_HANDLER_COMPLEX(mode=0x07 - Wait scheduler task (OpCode 0x53))
  2: 0x0163 [0x00] END_REQSTACK()
```

### Event 65535.11

#### Metadata

| Field        | Value    |
|--------------|----------|
| Entrypoint   | 0x0164   |
| Data Size    | 29 bytes |
| Instructions | 3        |

```
      00 01 02 03 04 05 06 07  08 09 0A 0B 0C 0D 0E 0F
      -- -- -- -- -- -- -- --  -- -- -- -- -- -- -- --
0160:             66 11 80 F8  FF FF 7F F8 FF FF 7F 62      f..........b
0170: 69 6B 30 53 F8 FF FF 7F  F8 FF FF 7F 62 69 6B 30  ik0S........bik0
0180: 00                                                .               
```

#### Opcodes

```
  0: 0x0164 [0x66] LOAD_EXT_SCHEDULER_MAIN: Load scheduler "bik0" with entities [EventEntity, EventEntity], work=42*
  1: 0x0173 [0x53] WAIT_SCHEDULER_TASK: Wait for scheduler "bik0" with entities [EventEntity, EventEntity]
  2: 0x0180 [0x00] END_REQSTACK()
```

### Event 65535.12

#### Metadata

| Field        | Value    |
|--------------|----------|
| Entrypoint   | 0x0181   |
| Data Size    | 29 bytes |
| Instructions | 3        |

```
      00 01 02 03 04 05 06 07  08 09 0A 0B 0C 0D 0E 0F
      -- -- -- -- -- -- -- --  -- -- -- -- -- -- -- --
0180:    66 11 80 F8 FF FF 7F  F8 FF FF 7F 62 69 6B 31   f..........bik1
0190: 53 F8 FF FF 7F F8 FF FF  7F 62 69 6B 31 00        S........bik1.  
```

#### Opcodes

```
  0: 0x0181 [0x66] LOAD_EXT_SCHEDULER_MAIN: Load scheduler "bik1" with entities [EventEntity, EventEntity], work=42*
  1: 0x0190 [0x53] WAIT_SCHEDULER_TASK: Wait for scheduler "bik1" with entities [EventEntity, EventEntity]
  2: 0x019D [0x00] END_REQSTACK()
```

### Event 65535.13

#### Metadata

| Field        | Value    |
|--------------|----------|
| Entrypoint   | 0x019E   |
| Data Size    | 29 bytes |
| Instructions | 3        |

```
      00 01 02 03 04 05 06 07  08 09 0A 0B 0C 0D 0E 0F
      -- -- -- -- -- -- -- --  -- -- -- -- -- -- -- --
0190:                                            66 12                f.
01A0: 80 F8 FF FF 7F F8 FF FF  7F 69 72 6F 30 53 F8 FF  .........iro0S..
01B0: FF 7F F8 FF FF 7F 69 72  6F 30 00                 ......iro0.     
```

#### Opcodes

```
  0: 0x019E [0x66] LOAD_EXT_SCHEDULER_MAIN: Load scheduler "iro0" with entities [EventEntity, EventEntity], work=40*
  1: 0x01AD [0x53] WAIT_SCHEDULER_TASK: Wait for scheduler "iro0" with entities [EventEntity, EventEntity]
  2: 0x01BA [0x00] END_REQSTACK()
```

### Event 65535.14

#### Metadata

| Field        | Value    |
|--------------|----------|
| Entrypoint   | 0x01BB   |
| Data Size    | 29 bytes |
| Instructions | 3        |

```
      00 01 02 03 04 05 06 07  08 09 0A 0B 0C 0D 0E 0F
      -- -- -- -- -- -- -- --  -- -- -- -- -- -- -- --
01B0:                                   66 12 80 F8 FF             f....
01C0: FF 7F F8 FF FF 7F 73 79  75 30 53 F8 FF FF 7F F8  ......syu0S.....
01D0: FF FF 7F 73 79 75 30 00                           ...syu0.        
```

#### Opcodes

```
  0: 0x01BB [0x66] LOAD_EXT_SCHEDULER_MAIN: Load scheduler "syu0" with entities [EventEntity, EventEntity], work=40*
  1: 0x01CA [0x53] WAIT_SCHEDULER_TASK: Wait for scheduler "syu0" with entities [EventEntity, EventEntity]
  2: 0x01D7 [0x00] END_REQSTACK()
```

### Event 65535.15

#### Metadata

| Field        | Value    |
|--------------|----------|
| Entrypoint   | 0x01D8   |
| Data Size    | 29 bytes |
| Instructions | 3        |

```
      00 01 02 03 04 05 06 07  08 09 0A 0B 0C 0D 0E 0F
      -- -- -- -- -- -- -- --  -- -- -- -- -- -- -- --
01D0:                          66 12 80 F8 FF FF 7F F8          f.......
01E0: FF FF 7F 77 61 69 30 53  F8 FF FF 7F F8 FF FF 7F  ...wai0S........
01F0: 77 61 69 30 00                                    wai0.           
```

#### Opcodes

```
  0: 0x01D8 [0x66] LOAD_EXT_SCHEDULER_MAIN: Load scheduler "wai0" with entities [EventEntity, EventEntity], work=40*
  1: 0x01E7 [0x53] WAIT_SCHEDULER_TASK: Wait for scheduler "wai0" with entities [EventEntity, EventEntity]
  2: 0x01F4 [0x00] END_REQSTACK()
```

### Event 65535.16

#### Metadata

| Field        | Value    |
|--------------|----------|
| Entrypoint   | 0x01F5   |
| Data Size    | 29 bytes |
| Instructions | 3        |

```
      00 01 02 03 04 05 06 07  08 09 0A 0B 0C 0D 0E 0F
      -- -- -- -- -- -- -- --  -- -- -- -- -- -- -- --
01F0:                66 12 80  F8 FF FF 7F F8 FF FF 7F       f..........
0200: 74 68 6B 31 53 F8 FF FF  7F F8 FF FF 7F 74 68 6B  thk1S........thk
0210: 31 00                                             1.              
```

#### Opcodes

```
  0: 0x01F5 [0x66] LOAD_EXT_SCHEDULER_MAIN: Load scheduler "thk1" with entities [EventEntity, EventEntity], work=40*
  1: 0x0204 [0x53] WAIT_SCHEDULER_TASK: Wait for scheduler "thk1" with entities [EventEntity, EventEntity]
  2: 0x0211 [0x00] END_REQSTACK()
```

### Event 65535.17

#### Metadata

| Field        | Value    |
|--------------|----------|
| Entrypoint   | 0x0212   |
| Data Size    | 29 bytes |
| Instructions | 3        |

```
      00 01 02 03 04 05 06 07  08 09 0A 0B 0C 0D 0E 0F
      -- -- -- -- -- -- -- --  -- -- -- -- -- -- -- --
0210:       66 12 80 F8 FF FF  7F F8 FF FF 7F 74 68 6B    f..........thk
0220: 32 53 F8 FF FF 7F F8 FF  FF 7F 74 68 6B 32 00     2S........thk2. 
```

#### Opcodes

```
  0: 0x0212 [0x66] LOAD_EXT_SCHEDULER_MAIN: Load scheduler "thk2" with entities [EventEntity, EventEntity], work=40*
  1: 0x0221 [0x53] WAIT_SCHEDULER_TASK: Wait for scheduler "thk2" with entities [EventEntity, EventEntity]
  2: 0x022E [0x00] END_REQSTACK()
```

### Event 65535.18

#### Metadata

| Field        | Value    |
|--------------|----------|
| Entrypoint   | 0x022F   |
| Data Size    | 29 bytes |
| Instructions | 3        |

```
      00 01 02 03 04 05 06 07  08 09 0A 0B 0C 0D 0E 0F
      -- -- -- -- -- -- -- --  -- -- -- -- -- -- -- --
0220:                                               66                 f
0230: 11 80 F8 FF FF 7F F8 FF  FF 7F 6D 73 75 30 53 F8  ..........msu0S.
0240: FF FF 7F F8 FF FF 7F 6D  73 75 30 00              .......msu0.    
```

#### Opcodes

```
  0: 0x022F [0x66] LOAD_EXT_SCHEDULER_MAIN: Load scheduler "msu0" with entities [EventEntity, EventEntity], work=42*
  1: 0x023E [0x53] WAIT_SCHEDULER_TASK: Wait for scheduler "msu0" with entities [EventEntity, EventEntity]
  2: 0x024B [0x00] END_REQSTACK()
```

### Event 65535.19

#### Metadata

| Field        | Value    |
|--------------|----------|
| Entrypoint   | 0x024C   |
| Data Size    | 29 bytes |
| Instructions | 3        |

```
      00 01 02 03 04 05 06 07  08 09 0A 0B 0C 0D 0E 0F
      -- -- -- -- -- -- -- --  -- -- -- -- -- -- -- --
0240:                                      66 11 80 F8              f...
0250: FF FF 7F F8 FF FF 7F 6D  73 75 31 53 F8 FF FF 7F  .......msu1S....
0260: F8 FF FF 7F 6D 73 75 31  00                       ....msu1.       
```

#### Opcodes

```
  0: 0x024C [0x66] LOAD_EXT_SCHEDULER_MAIN: Load scheduler "msu1" with entities [EventEntity, EventEntity], work=42*
  1: 0x025B [0x53] WAIT_SCHEDULER_TASK: Wait for scheduler "msu1" with entities [EventEntity, EventEntity]
  2: 0x0268 [0x00] END_REQSTACK()
```

### Event 43

#### Metadata

| Field        | Value   |
|--------------|---------|
| Entrypoint   | 0x0269  |
| Data Size    | 7 bytes |
| Instructions | 2       |

```
      00 01 02 03 04 05 06 07  08 09 0A 0B 0C 0D 0E 0F
      -- -- -- -- -- -- -- --  -- -- -- -- -- -- -- --
0260:                             92 01 F8 FF FF 7F 00           .......
```

#### Opcodes

```
  0: 0x0269 [0x92] EventEntity->Render.Flags3 ^= 0x01
  1: 0x026F [0x00] END_REQSTACK()
```

### Event 44

#### Metadata

| Field        | Value   |
|--------------|---------|
| Entrypoint   | 0x0270  |
| Data Size    | 7 bytes |
| Instructions | 2       |

```
      00 01 02 03 04 05 06 07  08 09 0A 0B 0C 0D 0E 0F
      -- -- -- -- -- -- -- --  -- -- -- -- -- -- -- --
0270: 92 01 F8 FF FF 7F 00                              .......         
```

#### Opcodes

```
  0: 0x0270 [0x92] EventEntity->Render.Flags3 ^= 0x01
  1: 0x0276 [0x00] END_REQSTACK()
```

### Event 46

#### Metadata

| Field        | Value   |
|--------------|---------|
| Entrypoint   | 0x0277  |
| Data Size    | 7 bytes |
| Instructions | 2       |

```
      00 01 02 03 04 05 06 07  08 09 0A 0B 0C 0D 0E 0F
      -- -- -- -- -- -- -- --  -- -- -- -- -- -- -- --
0270:                      92  01 F8 FF FF 7F 00               .......  
```

#### Opcodes

```
  0: 0x0277 [0x92] EventEntity->Render.Flags3 ^= 0x01
  1: 0x027D [0x00] END_REQSTACK()
```

### Event 65535.20

#### Metadata

| Field        | Value    |
|--------------|----------|
| Entrypoint   | 0x027E   |
| Data Size    | 24 bytes |
| Instructions | 8        |

```
      00 01 02 03 04 05 06 07  08 09 0A 0B 0C 0D 0E 0F
      -- -- -- -- -- -- -- --  -- -- -- -- -- -- -- --
0270:                                            32 00                2.
0280: 80 5A 00 13 80 14 80 03  80 5A 01 1C 15 80 1E F0  .Z.......Z......
0290: FF FF 7F 6F 70 00                                 ...op.          
```

#### Opcodes

```
  0: 0x027E [0x32] ExtData[1]->MainSpeed = 13* * 0.1
  1: 0x0281 [0x5A] UPDATE_EVENT_POSITION: Set EventEntity MovePosition to X=-107.863*, Z=-99.045*, Y=-2.149*
  2: 0x0289 [0x5A] UPDATE_EVENT_POSITION: Move EventEntity incrementally towards MovePosition
  3: 0x028B [0x1C] WAIT(5* ticks)
  4: 0x028E [0x1E] EventEntity looks at LocalPlayer and starts talking
  5: 0x0293 [0x6F] WAIT_FRAME_DELAY: Yield until WaitTime reaches zero
  6: 0x0294 [0x70] WAIT_ENTITY_RENDER_FLAG: Wait while EventEntity->Render.Flags3 bit 2 is set (cancel turn if not)
  7: 0x0295 [0x00] END_REQSTACK()
```

### Event 65535.21

#### Metadata

| Field        | Value    |
|--------------|----------|
| Entrypoint   | 0x0296   |
| Data Size    | 16 bytes |
| Instructions | 2        |

```
      00 01 02 03 04 05 06 07  08 09 0A 0B 0C 0D 0E 0F
      -- -- -- -- -- -- -- --  -- -- -- -- -- -- -- --
0290:                   66 12  80 F8 FF FF 7F F8 FF FF        f.........
02A0: 7F 74 6C 6B 30 00                                 .tlk0.          
```

#### Opcodes

```
  0: 0x0296 [0x66] LOAD_EXT_SCHEDULER_MAIN: Load scheduler "tlk0" with entities [EventEntity, EventEntity], work=40*
  1: 0x02A5 [0x00] END_REQSTACK()
```

### Event 65535.22

#### Metadata

| Field        | Value    |
|--------------|----------|
| Entrypoint   | 0x02A6   |
| Data Size    | 42 bytes |
| Instructions | 4        |

```
      00 01 02 03 04 05 06 07  08 09 0A 0B 0C 0D 0E 0F
      -- -- -- -- -- -- -- --  -- -- -- -- -- -- -- --
02A0:                   53 F8  FF FF 7F F8 FF FF 7F 74        S........t
02B0: 6C 6B 30 66 12 80 F8 FF  FF 7F F8 FF FF 7F 74 6C  lk0f..........tl
02C0: 6B 31 53 F8 FF FF 7F F8  FF FF 7F 74 6C 6B 31 00  k1S........tlk1.
```

#### Opcodes

```
  0: 0x02A6 [0x53] WAIT_SCHEDULER_TASK: Wait for scheduler "tlk0" with entities [EventEntity, EventEntity]
  1: 0x02B3 [0x66] LOAD_EXT_SCHEDULER_MAIN: Load scheduler "tlk1" with entities [EventEntity, EventEntity], work=40*
  2: 0x02C2 [0x53] WAIT_SCHEDULER_TASK: Wait for scheduler "tlk1" with entities [EventEntity, EventEntity]
  3: 0x02CF [0x00] END_REQSTACK()
```

### Event 65535.23

#### Metadata

| Field        | Value    |
|--------------|----------|
| Entrypoint   | 0x02D0   |
| Data Size    | 16 bytes |
| Instructions | 2        |

```
      00 01 02 03 04 05 06 07  08 09 0A 0B 0C 0D 0E 0F
      -- -- -- -- -- -- -- --  -- -- -- -- -- -- -- --
02D0: 66 12 80 F8 FF FF 7F F8  FF FF 7F 74 68 6B 31 00  f..........thk1.
```

#### Opcodes

```
  0: 0x02D0 [0x66] LOAD_EXT_SCHEDULER_MAIN: Load scheduler "thk1" with entities [EventEntity, EventEntity], work=40*
  1: 0x02DF [0x00] END_REQSTACK()
```

### Event 65535.24

#### Metadata

| Field        | Value    |
|--------------|----------|
| Entrypoint   | 0x02E0   |
| Data Size    | 14 bytes |
| Instructions | 2        |

```
      00 01 02 03 04 05 06 07  08 09 0A 0B 0C 0D 0E 0F
      -- -- -- -- -- -- -- --  -- -- -- -- -- -- -- --
02E0: 53 F8 FF FF 7F F8 FF FF  7F 74 68 6B 31 00        S........thk1.  
```

#### Opcodes

```
  0: 0x02E0 [0x53] WAIT_SCHEDULER_TASK: Wait for scheduler "thk1" with entities [EventEntity, EventEntity]
  1: 0x02ED [0x00] END_REQSTACK()
```

### Event 65535.25

#### Metadata

| Field        | Value    |
|--------------|----------|
| Entrypoint   | 0x02EE   |
| Data Size    | 16 bytes |
| Instructions | 2        |

```
      00 01 02 03 04 05 06 07  08 09 0A 0B 0C 0D 0E 0F
      -- -- -- -- -- -- -- --  -- -- -- -- -- -- -- --
02E0:                                            66 12                f.
02F0: 80 F8 FF FF 7F F8 FF FF  7F 74 68 6B 32 00        .........thk2.  
```

#### Opcodes

```
  0: 0x02EE [0x66] LOAD_EXT_SCHEDULER_MAIN: Load scheduler "thk2" with entities [EventEntity, EventEntity], work=40*
  1: 0x02FD [0x00] END_REQSTACK()
```

### Event 65535.26

#### Metadata

| Field        | Value    |
|--------------|----------|
| Entrypoint   | 0x02FE   |
| Data Size    | 14 bytes |
| Instructions | 2        |

```
      00 01 02 03 04 05 06 07  08 09 0A 0B 0C 0D 0E 0F
      -- -- -- -- -- -- -- --  -- -- -- -- -- -- -- --
02F0:                                            53 F8                S.
0300: FF FF 7F F8 FF FF 7F 74  68 6B 32 00              .......thk2.    
```

#### Opcodes

```
  0: 0x02FE [0x53] WAIT_SCHEDULER_TASK: Wait for scheduler "thk2" with entities [EventEntity, EventEntity]
  1: 0x030B [0x00] END_REQSTACK()
```

### Event 65535.27

#### Metadata

| Field        | Value    |
|--------------|----------|
| Entrypoint   | 0x030C   |
| Data Size    | 16 bytes |
| Instructions | 2        |

```
      00 01 02 03 04 05 06 07  08 09 0A 0B 0C 0D 0E 0F
      -- -- -- -- -- -- -- --  -- -- -- -- -- -- -- --
0300:                                      66 16 80 F8              f...
0310: FF FF 7F F8 FF FF 7F 73  68 6B 30 00              .......shk0.    
```

#### Opcodes

```
  0: 0x030C [0x66] LOAD_EXT_SCHEDULER_MAIN: Load scheduler "shk0" with entities [EventEntity, EventEntity], work=41*
  1: 0x031B [0x00] END_REQSTACK()
```

### Event 65535.28

#### Metadata

| Field        | Value    |
|--------------|----------|
| Entrypoint   | 0x031C   |
| Data Size    | 14 bytes |
| Instructions | 2        |

```
      00 01 02 03 04 05 06 07  08 09 0A 0B 0C 0D 0E 0F
      -- -- -- -- -- -- -- --  -- -- -- -- -- -- -- --
0310:                                      53 F8 FF FF              S...
0320: 7F F8 FF FF 7F 73 68 6B  30 00                    .....shk0.      
```

#### Opcodes

```
  0: 0x031C [0x53] WAIT_SCHEDULER_TASK: Wait for scheduler "shk0" with entities [EventEntity, EventEntity]
  1: 0x0329 [0x00] END_REQSTACK()
```

### Event 65535.29

#### Metadata

| Field        | Value    |
|--------------|----------|
| Entrypoint   | 0x032A   |
| Data Size    | 16 bytes |
| Instructions | 2        |

```
      00 01 02 03 04 05 06 07  08 09 0A 0B 0C 0D 0E 0F
      -- -- -- -- -- -- -- --  -- -- -- -- -- -- -- --
0320:                                66 12 80 F8 FF FF            f.....
0330: 7F F8 FF FF 7F 64 69 73  30 00                    .....dis0.      
```

#### Opcodes

```
  0: 0x032A [0x66] LOAD_EXT_SCHEDULER_MAIN: Load scheduler "dis0" with entities [EventEntity, EventEntity], work=40*
  1: 0x0339 [0x00] END_REQSTACK()
```

### Event 65535.30

#### Metadata

| Field        | Value    |
|--------------|----------|
| Entrypoint   | 0x033A   |
| Data Size    | 14 bytes |
| Instructions | 2        |

```
      00 01 02 03 04 05 06 07  08 09 0A 0B 0C 0D 0E 0F
      -- -- -- -- -- -- -- --  -- -- -- -- -- -- -- --
0330:                                53 F8 FF FF 7F F8            S.....
0340: FF FF 7F 64 69 73 30 00                           ...dis0.        
```

#### Opcodes

```
  0: 0x033A [0x53] WAIT_SCHEDULER_TASK: Wait for scheduler "dis0" with entities [EventEntity, EventEntity]
  1: 0x0347 [0x00] END_REQSTACK()
```

### Event 65535.31

#### Metadata

| Field        | Value    |
|--------------|----------|
| Entrypoint   | 0x0348   |
| Data Size    | 16 bytes |
| Instructions | 2        |

```
      00 01 02 03 04 05 06 07  08 09 0A 0B 0C 0D 0E 0F
      -- -- -- -- -- -- -- --  -- -- -- -- -- -- -- --
0340:                          66 12 80 F8 FF FF 7F F8          f.......
0350: FF FF 7F 70 6F 69 30 00                           ...poi0.        
```

#### Opcodes

```
  0: 0x0348 [0x66] LOAD_EXT_SCHEDULER_MAIN: Load scheduler "poi0" with entities [EventEntity, EventEntity], work=40*
  1: 0x0357 [0x00] END_REQSTACK()
```

### Event 65535.32

#### Metadata

| Field        | Value    |
|--------------|----------|
| Entrypoint   | 0x0358   |
| Data Size    | 14 bytes |
| Instructions | 2        |

```
      00 01 02 03 04 05 06 07  08 09 0A 0B 0C 0D 0E 0F
      -- -- -- -- -- -- -- --  -- -- -- -- -- -- -- --
0350:                          53 F8 FF FF 7F F8 FF FF          S.......
0360: 7F 70 6F 69 30 00                                 .poi0.          
```

#### Opcodes

```
  0: 0x0358 [0x53] WAIT_SCHEDULER_TASK: Wait for scheduler "poi0" with entities [EventEntity, EventEntity]
  1: 0x0365 [0x00] END_REQSTACK()
```

### Event 65535.33

#### Metadata

| Field        | Value    |
|--------------|----------|
| Entrypoint   | 0x0366   |
| Data Size    | 16 bytes |
| Instructions | 2        |

```
      00 01 02 03 04 05 06 07  08 09 0A 0B 0C 0D 0E 0F
      -- -- -- -- -- -- -- --  -- -- -- -- -- -- -- --
0360:                   66 12  80 F8 FF FF 7F F8 FF FF        f.........
0370: 7F 70 61 73 30 00                                 .pas0.          
```

#### Opcodes

```
  0: 0x0366 [0x66] LOAD_EXT_SCHEDULER_MAIN: Load scheduler "pas0" with entities [EventEntity, EventEntity], work=40*
  1: 0x0375 [0x00] END_REQSTACK()
```

### Event 65535.34

#### Metadata

| Field        | Value    |
|--------------|----------|
| Entrypoint   | 0x0376   |
| Data Size    | 14 bytes |
| Instructions | 2        |

```
      00 01 02 03 04 05 06 07  08 09 0A 0B 0C 0D 0E 0F
      -- -- -- -- -- -- -- --  -- -- -- -- -- -- -- --
0370:                   53 F8  FF FF 7F F8 FF FF 7F 70        S........p
0380: 61 73 30 00                                       as0.            
```

#### Opcodes

```
  0: 0x0376 [0x53] WAIT_SCHEDULER_TASK: Wait for scheduler "pas0" with entities [EventEntity, EventEntity]
  1: 0x0383 [0x00] END_REQSTACK()
```

### Event 65535.35

#### Metadata

| Field        | Value    |
|--------------|----------|
| Entrypoint   | 0x0384   |
| Data Size    | 16 bytes |
| Instructions | 2        |

```
      00 01 02 03 04 05 06 07  08 09 0A 0B 0C 0D 0E 0F
      -- -- -- -- -- -- -- --  -- -- -- -- -- -- -- --
0380:             66 12 80 F8  FF FF 7F F8 FF FF 7F 73      f..........s
0390: 79 75 30 00                                       yu0.            
```

#### Opcodes

```
  0: 0x0384 [0x66] LOAD_EXT_SCHEDULER_MAIN: Load scheduler "syu0" with entities [EventEntity, EventEntity], work=40*
  1: 0x0393 [0x00] END_REQSTACK()
```

### Event 65535.36

#### Metadata

| Field        | Value    |
|--------------|----------|
| Entrypoint   | 0x0394   |
| Data Size    | 14 bytes |
| Instructions | 2        |

```
      00 01 02 03 04 05 06 07  08 09 0A 0B 0C 0D 0E 0F
      -- -- -- -- -- -- -- --  -- -- -- -- -- -- -- --
0390:             53 F8 FF FF  7F F8 FF FF 7F 73 79 75      S........syu
03A0: 30 00                                             0.              
```

#### Opcodes

```
  0: 0x0394 [0x53] WAIT_SCHEDULER_TASK: Wait for scheduler "syu0" with entities [EventEntity, EventEntity]
  1: 0x03A1 [0x00] END_REQSTACK()
```

### Event 65535.37

#### Metadata

| Field        | Value    |
|--------------|----------|
| Entrypoint   | 0x03A2   |
| Data Size    | 16 bytes |
| Instructions | 2        |

```
      00 01 02 03 04 05 06 07  08 09 0A 0B 0C 0D 0E 0F
      -- -- -- -- -- -- -- --  -- -- -- -- -- -- -- --
03A0:       66 12 80 F8 FF FF  7F F8 FF FF 7F 77 61 76    f..........wav
03B0: 30 00                                             0.              
```

#### Opcodes

```
  0: 0x03A2 [0x66] LOAD_EXT_SCHEDULER_MAIN: Load scheduler "wav0" with entities [EventEntity, EventEntity], work=40*
  1: 0x03B1 [0x00] END_REQSTACK()
```

### Event 65535.38

#### Metadata

| Field        | Value    |
|--------------|----------|
| Entrypoint   | 0x03B2   |
| Data Size    | 14 bytes |
| Instructions | 2        |

```
      00 01 02 03 04 05 06 07  08 09 0A 0B 0C 0D 0E 0F
      -- -- -- -- -- -- -- --  -- -- -- -- -- -- -- --
03B0:       53 F8 FF FF 7F F8  FF FF 7F 77 61 76 30 00    S........wav0.
```

#### Opcodes

```
  0: 0x03B2 [0x53] WAIT_SCHEDULER_TASK: Wait for scheduler "wav0" with entities [EventEntity, EventEntity]
  1: 0x03BF [0x00] END_REQSTACK()
```

### Event 65535.39

#### Metadata

| Field        | Value    |
|--------------|----------|
| Entrypoint   | 0x03C0   |
| Data Size    | 16 bytes |
| Instructions | 2        |

```
      00 01 02 03 04 05 06 07  08 09 0A 0B 0C 0D 0E 0F
      -- -- -- -- -- -- -- --  -- -- -- -- -- -- -- --
03C0: 66 16 80 F8 FF FF 7F F8  FF FF 7F 65 68 6E 30 00  f..........ehn0.
```

#### Opcodes

```
  0: 0x03C0 [0x66] LOAD_EXT_SCHEDULER_MAIN: Load scheduler "ehn0" with entities [EventEntity, EventEntity], work=41*
  1: 0x03CF [0x00] END_REQSTACK()
```

### Event 65535.40

#### Metadata

| Field        | Value    |
|--------------|----------|
| Entrypoint   | 0x03D0   |
| Data Size    | 22 bytes |
| Instructions | 4        |

```
      00 01 02 03 04 05 06 07  08 09 0A 0B 0C 0D 0E 0F
      -- -- -- -- -- -- -- --  -- -- -- -- -- -- -- --
03D0: 53 F8 FF FF 7F F8 FF FF  7F 65 68 6E 30 5E 69 64  S........ehn0^id
03E0: 6C 30 1C 17 80 00                                 l0....          
```

#### Opcodes

```
  0: 0x03D0 [0x53] WAIT_SCHEDULER_TASK: Wait for scheduler "ehn0" with entities [EventEntity, EventEntity]
  1: 0x03DD [0x5E] EventEntity goes idle (kills current action) (animation: "idl0")
  2: 0x03E2 [0x1C] WAIT(60* ticks)
  3: 0x03E5 [0x00] END_REQSTACK()
```

### Event 65535.41

#### Metadata

| Field        | Value    |
|--------------|----------|
| Entrypoint   | 0x03E6   |
| Data Size    | 16 bytes |
| Instructions | 2        |

```
      00 01 02 03 04 05 06 07  08 09 0A 0B 0C 0D 0E 0F
      -- -- -- -- -- -- -- --  -- -- -- -- -- -- -- --
03E0:                   66 16  80 F8 FF FF 7F F8 FF FF        f.........
03F0: 7F 65 68 6E 31 00                                 .ehn1.          
```

#### Opcodes

```
  0: 0x03E6 [0x66] LOAD_EXT_SCHEDULER_MAIN: Load scheduler "ehn1" with entities [EventEntity, EventEntity], work=41*
  1: 0x03F5 [0x00] END_REQSTACK()
```

### Event 65535.42

#### Metadata

| Field        | Value    |
|--------------|----------|
| Entrypoint   | 0x03F6   |
| Data Size    | 14 bytes |
| Instructions | 2        |

```
      00 01 02 03 04 05 06 07  08 09 0A 0B 0C 0D 0E 0F
      -- -- -- -- -- -- -- --  -- -- -- -- -- -- -- --
03F0:                   53 F8  FF FF 7F F8 FF FF 7F 65        S........e
0400: 68 6E 31 00                                       hn1.            
```

#### Opcodes

```
  0: 0x03F6 [0x53] WAIT_SCHEDULER_TASK: Wait for scheduler "ehn1" with entities [EventEntity, EventEntity]
  1: 0x0403 [0x00] END_REQSTACK()
```

### Event 65535.43

#### Metadata

| Field        | Value    |
|--------------|----------|
| Entrypoint   | 0x0404   |
| Data Size    | 16 bytes |
| Instructions | 2        |

```
      00 01 02 03 04 05 06 07  08 09 0A 0B 0C 0D 0E 0F
      -- -- -- -- -- -- -- --  -- -- -- -- -- -- -- --
0400:             66 11 80 F8  FF FF 7F F8 FF FF 7F 6D      f..........m
0410: 73 75 30 00                                       su0.            
```

#### Opcodes

```
  0: 0x0404 [0x66] LOAD_EXT_SCHEDULER_MAIN: Load scheduler "msu0" with entities [EventEntity, EventEntity], work=42*
  1: 0x0413 [0x00] END_REQSTACK()
```

### Event 65535.44

#### Metadata

| Field        | Value    |
|--------------|----------|
| Entrypoint   | 0x0414   |
| Data Size    | 14 bytes |
| Instructions | 2        |

```
      00 01 02 03 04 05 06 07  08 09 0A 0B 0C 0D 0E 0F
      -- -- -- -- -- -- -- --  -- -- -- -- -- -- -- --
0410:             53 F8 FF FF  7F F8 FF FF 7F 6D 73 75      S........msu
0420: 30 00                                             0.              
```

#### Opcodes

```
  0: 0x0414 [0x53] WAIT_SCHEDULER_TASK: Wait for scheduler "msu0" with entities [EventEntity, EventEntity]
  1: 0x0421 [0x00] END_REQSTACK()
```

### Event 65535.45

#### Metadata

| Field        | Value    |
|--------------|----------|
| Entrypoint   | 0x0422   |
| Data Size    | 16 bytes |
| Instructions | 2        |

```
      00 01 02 03 04 05 06 07  08 09 0A 0B 0C 0D 0E 0F
      -- -- -- -- -- -- -- --  -- -- -- -- -- -- -- --
0420:       66 11 80 F8 FF FF  7F F8 FF FF 7F 6D 73 75    f..........msu
0430: 31 00                                             1.              
```

#### Opcodes

```
  0: 0x0422 [0x66] LOAD_EXT_SCHEDULER_MAIN: Load scheduler "msu1" with entities [EventEntity, EventEntity], work=42*
  1: 0x0431 [0x00] END_REQSTACK()
```

### Event 65535.46

#### Metadata

| Field        | Value    |
|--------------|----------|
| Entrypoint   | 0x0432   |
| Data Size    | 22 bytes |
| Instructions | 4        |

```
      00 01 02 03 04 05 06 07  08 09 0A 0B 0C 0D 0E 0F
      -- -- -- -- -- -- -- --  -- -- -- -- -- -- -- --
0430:       53 F8 FF FF 7F F8  FF FF 7F 6D 73 75 31 5E    S........msu1^
0440: 69 64 6C 30 1C 17 80 00                           idl0....        
```

#### Opcodes

```
  0: 0x0432 [0x53] WAIT_SCHEDULER_TASK: Wait for scheduler "msu1" with entities [EventEntity, EventEntity]
  1: 0x043F [0x5E] EventEntity goes idle (kills current action) (animation: "idl0")
  2: 0x0444 [0x1C] WAIT(60* ticks)
  3: 0x0447 [0x00] END_REQSTACK()
```

### Event 65535.47

#### Metadata

| Field        | Value    |
|--------------|----------|
| Entrypoint   | 0x0448   |
| Data Size    | 16 bytes |
| Instructions | 2        |

```
      00 01 02 03 04 05 06 07  08 09 0A 0B 0C 0D 0E 0F
      -- -- -- -- -- -- -- --  -- -- -- -- -- -- -- --
0440:                          66 16 80 F8 FF FF 7F F8          f.......
0450: FF FF 7F 67 68 6E 31 00                           ...ghn1.        
```

#### Opcodes

```
  0: 0x0448 [0x66] LOAD_EXT_SCHEDULER_MAIN: Load scheduler "ghn1" with entities [EventEntity, EventEntity], work=41*
  1: 0x0457 [0x00] END_REQSTACK()
```

### Event 65535.48

#### Metadata

| Field        | Value    |
|--------------|----------|
| Entrypoint   | 0x0458   |
| Data Size    | 14 bytes |
| Instructions | 2        |

```
      00 01 02 03 04 05 06 07  08 09 0A 0B 0C 0D 0E 0F
      -- -- -- -- -- -- -- --  -- -- -- -- -- -- -- --
0450:                          53 F8 FF FF 7F F8 FF FF          S.......
0460: 7F 67 68 6E 31 00                                 .ghn1.          
```

#### Opcodes

```
  0: 0x0458 [0x53] WAIT_SCHEDULER_TASK: Wait for scheduler "ghn1" with entities [EventEntity, EventEntity]
  1: 0x0465 [0x00] END_REQSTACK()
```

### Event 65535.49

#### Metadata

| Field        | Value    |
|--------------|----------|
| Entrypoint   | 0x0466   |
| Data Size    | 16 bytes |
| Instructions | 2        |

```
      00 01 02 03 04 05 06 07  08 09 0A 0B 0C 0D 0E 0F
      -- -- -- -- -- -- -- --  -- -- -- -- -- -- -- --
0460:                   66 12  80 F8 FF FF 7F F8 FF FF        f.........
0470: 7F 69 72 6F 30 00                                 .iro0.          
```

#### Opcodes

```
  0: 0x0466 [0x66] LOAD_EXT_SCHEDULER_MAIN: Load scheduler "iro0" with entities [EventEntity, EventEntity], work=40*
  1: 0x0475 [0x00] END_REQSTACK()
```

### Event 65535.50

#### Metadata

| Field        | Value    |
|--------------|----------|
| Entrypoint   | 0x0476   |
| Data Size    | 14 bytes |
| Instructions | 2        |

```
      00 01 02 03 04 05 06 07  08 09 0A 0B 0C 0D 0E 0F
      -- -- -- -- -- -- -- --  -- -- -- -- -- -- -- --
0470:                   53 F8  FF FF 7F F8 FF FF 7F 69        S........i
0480: 72 6F 30 00                                       ro0.            
```

#### Opcodes

```
  0: 0x0476 [0x53] WAIT_SCHEDULER_TASK: Wait for scheduler "iro0" with entities [EventEntity, EventEntity]
  1: 0x0483 [0x00] END_REQSTACK()
```

### Event 65535.51

#### Metadata

| Field        | Value    |
|--------------|----------|
| Entrypoint   | 0x0484   |
| Data Size    | 16 bytes |
| Instructions | 2        |

```
      00 01 02 03 04 05 06 07  08 09 0A 0B 0C 0D 0E 0F
      -- -- -- -- -- -- -- --  -- -- -- -- -- -- -- --
0480:             66 12 80 F8  FF FF 7F F8 FF FF 7F 77      f..........w
0490: 61 69 30 00                                       ai0.            
```

#### Opcodes

```
  0: 0x0484 [0x66] LOAD_EXT_SCHEDULER_MAIN: Load scheduler "wai0" with entities [EventEntity, EventEntity], work=40*
  1: 0x0493 [0x00] END_REQSTACK()
```

### Event 65535.52

#### Metadata

| Field        | Value    |
|--------------|----------|
| Entrypoint   | 0x0494   |
| Data Size    | 14 bytes |
| Instructions | 2        |

```
      00 01 02 03 04 05 06 07  08 09 0A 0B 0C 0D 0E 0F
      -- -- -- -- -- -- -- --  -- -- -- -- -- -- -- --
0490:             53 F8 FF FF  7F F8 FF FF 7F 77 61 69      S........wai
04A0: 30 00                                             0.              
```

#### Opcodes

```
  0: 0x0494 [0x53] WAIT_SCHEDULER_TASK: Wait for scheduler "wai0" with entities [EventEntity, EventEntity]
  1: 0x04A1 [0x00] END_REQSTACK()
```

### Event 65535.53

#### Metadata

| Field        | Value    |
|--------------|----------|
| Entrypoint   | 0x04A2   |
| Data Size    | 16 bytes |
| Instructions | 2        |

```
      00 01 02 03 04 05 06 07  08 09 0A 0B 0C 0D 0E 0F
      -- -- -- -- -- -- -- --  -- -- -- -- -- -- -- --
04A0:       66 11 80 F8 FF FF  7F F8 FF FF 7F 62 69 6B    f..........bik
04B0: 30 00                                             0.              
```

#### Opcodes

```
  0: 0x04A2 [0x66] LOAD_EXT_SCHEDULER_MAIN: Load scheduler "bik0" with entities [EventEntity, EventEntity], work=42*
  1: 0x04B1 [0x00] END_REQSTACK()
```

### Event 65535.54

#### Metadata

| Field        | Value    |
|--------------|----------|
| Entrypoint   | 0x04B2   |
| Data Size    | 14 bytes |
| Instructions | 2        |

```
      00 01 02 03 04 05 06 07  08 09 0A 0B 0C 0D 0E 0F
      -- -- -- -- -- -- -- --  -- -- -- -- -- -- -- --
04B0:       53 F8 FF FF 7F F8  FF FF 7F 62 69 6B 30 00    S........bik0.
```

#### Opcodes

```
  0: 0x04B2 [0x53] WAIT_SCHEDULER_TASK: Wait for scheduler "bik0" with entities [EventEntity, EventEntity]
  1: 0x04BF [0x00] END_REQSTACK()
```

### Event 65535.55

#### Metadata

| Field        | Value    |
|--------------|----------|
| Entrypoint   | 0x04C0   |
| Data Size    | 16 bytes |
| Instructions | 2        |

```
      00 01 02 03 04 05 06 07  08 09 0A 0B 0C 0D 0E 0F
      -- -- -- -- -- -- -- --  -- -- -- -- -- -- -- --
04C0: 66 11 80 F8 FF FF 7F F8  FF FF 7F 62 69 6B 31 00  f..........bik1.
```

#### Opcodes

```
  0: 0x04C0 [0x66] LOAD_EXT_SCHEDULER_MAIN: Load scheduler "bik1" with entities [EventEntity, EventEntity], work=42*
  1: 0x04CF [0x00] END_REQSTACK()
```

### Event 65535.56

#### Metadata

| Field        | Value    |
|--------------|----------|
| Entrypoint   | 0x04D0   |
| Data Size    | 14 bytes |
| Instructions | 2        |

```
      00 01 02 03 04 05 06 07  08 09 0A 0B 0C 0D 0E 0F
      -- -- -- -- -- -- -- --  -- -- -- -- -- -- -- --
04D0: 53 F8 FF FF 7F F8 FF FF  7F 62 69 6B 31 00        S........bik1.  
```

#### Opcodes

```
  0: 0x04D0 [0x53] WAIT_SCHEDULER_TASK: Wait for scheduler "bik1" with entities [EventEntity, EventEntity]
  1: 0x04DD [0x00] END_REQSTACK()
```

### Event 65535.57

#### Metadata

| Field        | Value    |
|--------------|----------|
| Entrypoint   | 0x04DE   |
| Data Size    | 16 bytes |
| Instructions | 2        |

```
      00 01 02 03 04 05 06 07  08 09 0A 0B 0C 0D 0E 0F
      -- -- -- -- -- -- -- --  -- -- -- -- -- -- -- --
04D0:                                            66 12                f.
04E0: 80 F8 FF FF 7F F8 FF FF  7F 67 6B 72 30 00        .........gkr0.  
```

#### Opcodes

```
  0: 0x04DE [0x66] LOAD_EXT_SCHEDULER_MAIN: Load scheduler "gkr0" with entities [EventEntity, EventEntity], work=40*
  1: 0x04ED [0x00] END_REQSTACK()
```

### Event 65535.58

#### Metadata

| Field        | Value    |
|--------------|----------|
| Entrypoint   | 0x04EE   |
| Data Size    | 14 bytes |
| Instructions | 2        |

```
      00 01 02 03 04 05 06 07  08 09 0A 0B 0C 0D 0E 0F
      -- -- -- -- -- -- -- --  -- -- -- -- -- -- -- --
04E0:                                            53 F8                S.
04F0: FF FF 7F F8 FF FF 7F 67  6B 72 30 00              .......gkr0.    
```

#### Opcodes

```
  0: 0x04EE [0x53] WAIT_SCHEDULER_TASK: Wait for scheduler "gkr0" with entities [EventEntity, EventEntity]
  1: 0x04FB [0x00] END_REQSTACK()
```

### Event 65535.59

#### Metadata

| Field        | Value    |
|--------------|----------|
| Entrypoint   | 0x04FC   |
| Data Size    | 16 bytes |
| Instructions | 2        |

```
      00 01 02 03 04 05 06 07  08 09 0A 0B 0C 0D 0E 0F
      -- -- -- -- -- -- -- --  -- -- -- -- -- -- -- --
04F0:                                      66 12 80 F8              f...
0500: FF FF 7F F8 FF FF 7F 67  6B 72 31 00              .......gkr1.    
```

#### Opcodes

```
  0: 0x04FC [0x66] LOAD_EXT_SCHEDULER_MAIN: Load scheduler "gkr1" with entities [EventEntity, EventEntity], work=40*
  1: 0x050B [0x00] END_REQSTACK()
```

### Event 65535.60

#### Metadata

| Field        | Value    |
|--------------|----------|
| Entrypoint   | 0x050C   |
| Data Size    | 14 bytes |
| Instructions | 2        |

```
      00 01 02 03 04 05 06 07  08 09 0A 0B 0C 0D 0E 0F
      -- -- -- -- -- -- -- --  -- -- -- -- -- -- -- --
0500:                                      53 F8 FF FF              S...
0510: 7F F8 FF FF 7F 67 6B 72  31 00                    .....gkr1.      
```

#### Opcodes

```
  0: 0x050C [0x53] WAIT_SCHEDULER_TASK: Wait for scheduler "gkr1" with entities [EventEntity, EventEntity]
  1: 0x0519 [0x00] END_REQSTACK()
```

### Event 65535.61

#### Metadata

| Field        | Value    |
|--------------|----------|
| Entrypoint   | 0x051A   |
| Data Size    | 16 bytes |
| Instructions | 2        |

```
      00 01 02 03 04 05 06 07  08 09 0A 0B 0C 0D 0E 0F
      -- -- -- -- -- -- -- --  -- -- -- -- -- -- -- --
0510:                                66 16 80 F8 FF FF            f.....
0520: 7F F8 FF FF 7F 6F 68 68  30 00                    .....ohh0.      
```

#### Opcodes

```
  0: 0x051A [0x66] LOAD_EXT_SCHEDULER_MAIN: Load scheduler "ohh0" with entities [EventEntity, EventEntity], work=41*
  1: 0x0529 [0x00] END_REQSTACK()
```

### Event 65535.62

#### Metadata

| Field        | Value    |
|--------------|----------|
| Entrypoint   | 0x052A   |
| Data Size    | 22 bytes |
| Instructions | 4        |

```
      00 01 02 03 04 05 06 07  08 09 0A 0B 0C 0D 0E 0F
      -- -- -- -- -- -- -- --  -- -- -- -- -- -- -- --
0520:                                53 F8 FF FF 7F F8            S.....
0530: FF FF 7F 6F 68 68 30 5E  69 64 6C 30 1C 17 80 00  ...ohh0^idl0....
```

#### Opcodes

```
  0: 0x052A [0x53] WAIT_SCHEDULER_TASK: Wait for scheduler "ohh0" with entities [EventEntity, EventEntity]
  1: 0x0537 [0x5E] EventEntity goes idle (kills current action) (animation: "idl0")
  2: 0x053C [0x1C] WAIT(60* ticks)
  3: 0x053F [0x00] END_REQSTACK()
```

### Event 65535.63

#### Metadata

| Field        | Value    |
|--------------|----------|
| Entrypoint   | 0x0540   |
| Data Size    | 44 bytes |
| Instructions | 4        |

```
      00 01 02 03 04 05 06 07  08 09 0A 0B 0C 0D 0E 0F
      -- -- -- -- -- -- -- --  -- -- -- -- -- -- -- --
0540: 66 16 80 F8 FF FF 7F F8  FF FF 7F 73 68 6B 30 53  f..........shk0S
0550: F8 FF FF 7F F8 FF FF 7F  73 68 6B 30 66 12 80 F8  ........shk0f...
0560: FF FF 7F F8 FF FF 7F 7A  69 74 30 00              .......zit0.    
```

#### Opcodes

```
  0: 0x0540 [0x66] LOAD_EXT_SCHEDULER_MAIN: Load scheduler "shk0" with entities [EventEntity, EventEntity], work=41*
  1: 0x054F [0x53] WAIT_SCHEDULER_TASK: Wait for scheduler "shk0" with entities [EventEntity, EventEntity]
  2: 0x055C [0x66] LOAD_EXT_SCHEDULER_MAIN: Load scheduler "zit0" with entities [EventEntity, EventEntity], work=40*
  3: 0x056B [0x00] END_REQSTACK()
```

### Event 65535.64

#### Metadata

| Field        | Value    |
|--------------|----------|
| Entrypoint   | 0x056C   |
| Data Size    | 16 bytes |
| Instructions | 2        |

```
      00 01 02 03 04 05 06 07  08 09 0A 0B 0C 0D 0E 0F
      -- -- -- -- -- -- -- --  -- -- -- -- -- -- -- --
0560:                                      66 12 80 F8              f...
0570: FF FF 7F F8 FF FF 7F 7A  69 74 30 00              .......zit0.    
```

#### Opcodes

```
  0: 0x056C [0x66] LOAD_EXT_SCHEDULER_MAIN: Load scheduler "zit0" with entities [EventEntity, EventEntity], work=40*
  1: 0x057B [0x00] END_REQSTACK()
```

### Event 65535.65

#### Metadata

| Field        | Value    |
|--------------|----------|
| Entrypoint   | 0x057C   |
| Data Size    | 14 bytes |
| Instructions | 2        |

```
      00 01 02 03 04 05 06 07  08 09 0A 0B 0C 0D 0E 0F
      -- -- -- -- -- -- -- --  -- -- -- -- -- -- -- --
0570:                                      53 F8 FF FF              S...
0580: 7F F8 FF FF 7F 7A 69 74  30 00                    .....zit0.      
```

#### Opcodes

```
  0: 0x057C [0x53] WAIT_SCHEDULER_TASK: Wait for scheduler "zit0" with entities [EventEntity, EventEntity]
  1: 0x0589 [0x00] END_REQSTACK()
```

### Event 65535.66

#### Metadata

| Field        | Value    |
|--------------|----------|
| Entrypoint   | 0x058A   |
| Data Size    | 18 bytes |
| Instructions | 4        |

```
      00 01 02 03 04 05 06 07  08 09 0A 0B 0C 0D 0E 0F
      -- -- -- -- -- -- -- --  -- -- -- -- -- -- -- --
0580:                                6E F8 FF FF 7F 18            n.....
0590: 80 99 F8 FF FF 7F 99 F8  FF FF 7F 00              ............    
```

#### Opcodes

```
  0: 0x058A [0x6E] EventEntity uses emote 1*
  1: 0x0591 [0x99] Wait for EventEntity animation to complete
  2: 0x0596 [0x99] Wait for EventEntity animation to complete
  3: 0x059B [0x00] END_REQSTACK()
```

### Event 65535.67

#### Metadata

| Field        | Value    |
|--------------|----------|
| Entrypoint   | 0x059C   |
| Data Size    | 18 bytes |
| Instructions | 4        |

```
      00 01 02 03 04 05 06 07  08 09 0A 0B 0C 0D 0E 0F
      -- -- -- -- -- -- -- --  -- -- -- -- -- -- -- --
0590:                                      6E F8 FF FF              n...
05A0: 7F 19 80 99 F8 FF FF 7F  99 F8 FF FF 7F 00        ..............  
```

#### Opcodes

```
  0: 0x059C [0x6E] EventEntity uses emote 7*
  1: 0x05A3 [0x99] Wait for EventEntity animation to complete
  2: 0x05A8 [0x99] Wait for EventEntity animation to complete
  3: 0x05AD [0x00] END_REQSTACK()
```

### Event 65535.68

#### Metadata

| Field        | Value    |
|--------------|----------|
| Entrypoint   | 0x05AE   |
| Data Size    | 18 bytes |
| Instructions | 4        |

```
      00 01 02 03 04 05 06 07  08 09 0A 0B 0C 0D 0E 0F
      -- -- -- -- -- -- -- --  -- -- -- -- -- -- -- --
05A0:                                            6E F8                n.
05B0: FF FF 7F 1A 80 99 F8 FF  FF 7F 99 F8 FF FF 7F 00  ................
```

#### Opcodes

```
  0: 0x05AE [0x6E] EventEntity uses emote 6*
  1: 0x05B5 [0x99] Wait for EventEntity animation to complete
  2: 0x05BA [0x99] Wait for EventEntity animation to complete
  3: 0x05BF [0x00] END_REQSTACK()
```

### Event 65535.69

#### Metadata

| Field        | Value    |
|--------------|----------|
| Entrypoint   | 0x05C0   |
| Data Size    | 18 bytes |
| Instructions | 4        |

```
      00 01 02 03 04 05 06 07  08 09 0A 0B 0C 0D 0E 0F
      -- -- -- -- -- -- -- --  -- -- -- -- -- -- -- --
05C0: 6E F8 FF FF 7F 1B 80 99  F8 FF FF 7F 99 F8 FF FF  n...............
05D0: 7F 00                                             ..              
```

#### Opcodes

```
  0: 0x05C0 [0x6E] EventEntity uses emote 8*
  1: 0x05C7 [0x99] Wait for EventEntity animation to complete
  2: 0x05CC [0x99] Wait for EventEntity animation to complete
  3: 0x05D1 [0x00] END_REQSTACK()
```

### Event 65535.70

#### Metadata

| Field        | Value    |
|--------------|----------|
| Entrypoint   | 0x05D2   |
| Data Size    | 18 bytes |
| Instructions | 4        |

```
      00 01 02 03 04 05 06 07  08 09 0A 0B 0C 0D 0E 0F
      -- -- -- -- -- -- -- --  -- -- -- -- -- -- -- --
05D0:       6E F8 FF FF 7F 00  80 99 F8 FF FF 7F 99 F8    n.............
05E0: FF FF 7F 00                                       ....            
```

#### Opcodes

```
  0: 0x05D2 [0x6E] EventEntity uses emote 13*
  1: 0x05D9 [0x99] Wait for EventEntity animation to complete
  2: 0x05DE [0x99] Wait for EventEntity animation to complete
  3: 0x05E3 [0x00] END_REQSTACK()
```

### Event 65535.71

#### Metadata

| Field        | Value    |
|--------------|----------|
| Entrypoint   | 0x05E4   |
| Data Size    | 27 bytes |
| Instructions | 3        |

```
      00 01 02 03 04 05 06 07  08 09 0A 0B 0C 0D 0E 0F
      -- -- -- -- -- -- -- --  -- -- -- -- -- -- -- --
05E0:             2C F8 FF FF  7F F8 FF FF 7F 64 65 61      ,........dea
05F0: 64 53 F8 FF FF 7F F8 FF  FF 7F 64 65 61 64 00     dS........dead. 
```

#### Opcodes

```
  0: 0x05E4 [0x2C] CREATE_SCHEDULER_TASK: Create scheduler "dead" with entities [EventEntity, EventEntity]
  1: 0x05F1 [0x53] WAIT_SCHEDULER_TASK: Wait for scheduler "dead" with entities [EventEntity, EventEntity]
  2: 0x05FE [0x00] END_REQSTACK()
```

### Event 65535.72

#### Metadata

| Field        | Value   |
|--------------|---------|
| Entrypoint   | 0x05FF  |
| Data Size    | 9 bytes |
| Instructions | 3       |

```
      00 01 02 03 04 05 06 07  08 09 0A 0B 0C 0D 0E 0F
      -- -- -- -- -- -- -- --  -- -- -- -- -- -- -- --
05F0:                                               5E                 ^
0600: 69 64 6C 30 1C 17 80 00                           idl0....        
```

#### Opcodes

```
  0: 0x05FF [0x5E] EventEntity goes idle (kills current action) (animation: "idl0")
  1: 0x0604 [0x1C] WAIT(60* ticks)
  2: 0x0607 [0x00] END_REQSTACK()
```

### Event 65535.73

#### Metadata

| Field        | Value    |
|--------------|----------|
| Entrypoint   | 0x0608   |
| Data Size    | 16 bytes |
| Instructions | 2        |

```
      00 01 02 03 04 05 06 07  08 09 0A 0B 0C 0D 0E 0F
      -- -- -- -- -- -- -- --  -- -- -- -- -- -- -- --
0600:                          66 16 80 F8 FF FF 7F F8          f.......
0610: FF FF 7F 63 61 62 6B 00                           ...cabk.        
```

#### Opcodes

```
  0: 0x0608 [0x66] LOAD_EXT_SCHEDULER_MAIN: Load scheduler "cabk" with entities [EventEntity, EventEntity], work=41*
  1: 0x0617 [0x00] END_REQSTACK()
```

### Event 65535.74

#### Metadata

| Field        | Value    |
|--------------|----------|
| Entrypoint   | 0x0618   |
| Data Size    | 14 bytes |
| Instructions | 2        |

```
      00 01 02 03 04 05 06 07  08 09 0A 0B 0C 0D 0E 0F
      -- -- -- -- -- -- -- --  -- -- -- -- -- -- -- --
0610:                          53 F8 FF FF 7F F8 FF FF          S.......
0620: 7F 63 61 62 6B 00                                 .cabk.          
```

#### Opcodes

```
  0: 0x0618 [0x53] WAIT_SCHEDULER_TASK: Wait for scheduler "cabk" with entities [EventEntity, EventEntity]
  1: 0x0625 [0x00] END_REQSTACK()
```

### Event 65535.75

#### Metadata

| Field        | Value    |
|--------------|----------|
| Entrypoint   | 0x0626   |
| Data Size    | 16 bytes |
| Instructions | 2        |

```
      00 01 02 03 04 05 06 07  08 09 0A 0B 0C 0D 0E 0F
      -- -- -- -- -- -- -- --  -- -- -- -- -- -- -- --
0620:                   66 1C  80 F8 FF FF 7F F8 FF FF        f.........
0630: 7F 73 70 65 66 00                                 .spef.          
```

#### Opcodes

```
  0: 0x0626 [0x66] LOAD_EXT_SCHEDULER_MAIN: Load scheduler "spef" with entities [EventEntity, EventEntity], work=43*
  1: 0x0635 [0x00] END_REQSTACK()
```

### Event 65535.76

#### Metadata

| Field        | Value    |
|--------------|----------|
| Entrypoint   | 0x0636   |
| Data Size    | 14 bytes |
| Instructions | 2        |

```
      00 01 02 03 04 05 06 07  08 09 0A 0B 0C 0D 0E 0F
      -- -- -- -- -- -- -- --  -- -- -- -- -- -- -- --
0630:                   53 F8  FF FF 7F F8 FF FF 7F 73        S........s
0640: 70 65 66 00                                       pef.            
```

#### Opcodes

```
  0: 0x0636 [0x53] WAIT_SCHEDULER_TASK: Wait for scheduler "spef" with entities [EventEntity, EventEntity]
  1: 0x0643 [0x00] END_REQSTACK()
```

### Event 65535.77

#### Metadata

| Field        | Value    |
|--------------|----------|
| Entrypoint   | 0x0644   |
| Data Size    | 16 bytes |
| Instructions | 2        |

```
      00 01 02 03 04 05 06 07  08 09 0A 0B 0C 0D 0E 0F
      -- -- -- -- -- -- -- --  -- -- -- -- -- -- -- --
0640:             5B 1D 80 F8  FF FF 7F F8 FF FF 7F 6F      [..........o
0650: 6B 69 72 00                                       kir.            
```

#### Opcodes

```
  0: 0x0644 [0x5B] LOAD_EXT_SCHEDULER: Load scheduler "okir" with entities [EventEntity, EventEntity], work=430*
  1: 0x0653 [0x00] END_REQSTACK()
```

### Event 65535.78

#### Metadata

| Field        | Value    |
|--------------|----------|
| Entrypoint   | 0x0654   |
| Data Size    | 14 bytes |
| Instructions | 2        |

```
      00 01 02 03 04 05 06 07  08 09 0A 0B 0C 0D 0E 0F
      -- -- -- -- -- -- -- --  -- -- -- -- -- -- -- --
0650:             53 F8 FF FF  7F F8 FF FF 7F 6F 6B 69      S........oki
0660: 72 00                                             r.              
```

#### Opcodes

```
  0: 0x0654 [0x53] WAIT_SCHEDULER_TASK: Wait for scheduler "okir" with entities [EventEntity, EventEntity]
  1: 0x0661 [0x00] END_REQSTACK()
```

### Event 65535.79

#### Metadata

| Field        | Value    |
|--------------|----------|
| Entrypoint   | 0x0662   |
| Data Size    | 16 bytes |
| Instructions | 2        |

```
      00 01 02 03 04 05 06 07  08 09 0A 0B 0C 0D 0E 0F
      -- -- -- -- -- -- -- --  -- -- -- -- -- -- -- --
0660:       5B 1E 80 F8 FF FF  7F F8 FF FF 7F 75 73 69    [..........usi
0670: 30 00                                             0.              
```

#### Opcodes

```
  0: 0x0662 [0x5B] LOAD_EXT_SCHEDULER: Load scheduler "usi0" with entities [EventEntity, EventEntity], work=431*
  1: 0x0671 [0x00] END_REQSTACK()
```

### Event 65535.80

#### Metadata

| Field        | Value    |
|--------------|----------|
| Entrypoint   | 0x0672   |
| Data Size    | 14 bytes |
| Instructions | 2        |

```
      00 01 02 03 04 05 06 07  08 09 0A 0B 0C 0D 0E 0F
      -- -- -- -- -- -- -- --  -- -- -- -- -- -- -- --
0670:       53 F8 FF FF 7F F8  FF FF 7F 75 73 69 30 00    S........usi0.
```

#### Opcodes

```
  0: 0x0672 [0x53] WAIT_SCHEDULER_TASK: Wait for scheduler "usi0" with entities [EventEntity, EventEntity]
  1: 0x067F [0x00] END_REQSTACK()
```

### Event 65535.81

#### Metadata

| Field        | Value    |
|--------------|----------|
| Entrypoint   | 0x0680   |
| Data Size    | 16 bytes |
| Instructions | 2        |

```
      00 01 02 03 04 05 06 07  08 09 0A 0B 0C 0D 0E 0F
      -- -- -- -- -- -- -- --  -- -- -- -- -- -- -- --
0680: 5B 1E 80 F8 FF FF 7F F8  FF FF 7F 75 73 69 31 00  [..........usi1.
```

#### Opcodes

```
  0: 0x0680 [0x5B] LOAD_EXT_SCHEDULER: Load scheduler "usi1" with entities [EventEntity, EventEntity], work=431*
  1: 0x068F [0x00] END_REQSTACK()
```

### Event 65535.82

#### Metadata

| Field        | Value    |
|--------------|----------|
| Entrypoint   | 0x0690   |
| Data Size    | 14 bytes |
| Instructions | 2        |

```
      00 01 02 03 04 05 06 07  08 09 0A 0B 0C 0D 0E 0F
      -- -- -- -- -- -- -- --  -- -- -- -- -- -- -- --
0690: 53 F8 FF FF 7F F8 FF FF  7F 75 73 69 31 00        S........usi1.  
```

#### Opcodes

```
  0: 0x0690 [0x53] WAIT_SCHEDULER_TASK: Wait for scheduler "usi1" with entities [EventEntity, EventEntity]
  1: 0x069D [0x00] END_REQSTACK()
```

### Event 65535.83

#### Metadata

| Field        | Value    |
|--------------|----------|
| Entrypoint   | 0x069E   |
| Data Size    | 16 bytes |
| Instructions | 2        |

```
      00 01 02 03 04 05 06 07  08 09 0A 0B 0C 0D 0E 0F
      -- -- -- -- -- -- -- --  -- -- -- -- -- -- -- --
0690:                                            66 11                f.
06A0: 80 F8 FF FF 7F F8 FF FF  7F 74 65 68 30 00        .........teh0.  
```

#### Opcodes

```
  0: 0x069E [0x66] LOAD_EXT_SCHEDULER_MAIN: Load scheduler "teh0" with entities [EventEntity, EventEntity], work=42*
  1: 0x06AD [0x00] END_REQSTACK()
```

### Event 65535.84

#### Metadata

| Field        | Value    |
|--------------|----------|
| Entrypoint   | 0x06AE   |
| Data Size    | 14 bytes |
| Instructions | 2        |

```
      00 01 02 03 04 05 06 07  08 09 0A 0B 0C 0D 0E 0F
      -- -- -- -- -- -- -- --  -- -- -- -- -- -- -- --
06A0:                                            53 F8                S.
06B0: FF FF 7F F8 FF FF 7F 74  65 68 30 00              .......teh0.    
```

#### Opcodes

```
  0: 0x06AE [0x53] WAIT_SCHEDULER_TASK: Wait for scheduler "teh0" with entities [EventEntity, EventEntity]
  1: 0x06BB [0x00] END_REQSTACK()
```

### Event 65535.85

#### Metadata

| Field        | Value    |
|--------------|----------|
| Entrypoint   | 0x06BC   |
| Data Size    | 16 bytes |
| Instructions | 2        |

```
      00 01 02 03 04 05 06 07  08 09 0A 0B 0C 0D 0E 0F
      -- -- -- -- -- -- -- --  -- -- -- -- -- -- -- --
06B0:                                      66 11 80 F8              f...
06C0: FF FF 7F F8 FF FF 7F 74  65 68 31 00              .......teh1.    
```

#### Opcodes

```
  0: 0x06BC [0x66] LOAD_EXT_SCHEDULER_MAIN: Load scheduler "teh1" with entities [EventEntity, EventEntity], work=42*
  1: 0x06CB [0x00] END_REQSTACK()
```

### Event 65535.86

#### Metadata

| Field        | Value    |
|--------------|----------|
| Entrypoint   | 0x06CC   |
| Data Size    | 14 bytes |
| Instructions | 2        |

```
      00 01 02 03 04 05 06 07  08 09 0A 0B 0C 0D 0E 0F
      -- -- -- -- -- -- -- --  -- -- -- -- -- -- -- --
06C0:                                      53 F8 FF FF              S...
06D0: 7F F8 FF FF 7F 74 65 68  31 00                    .....teh1.      
```

#### Opcodes

```
  0: 0x06CC [0x53] WAIT_SCHEDULER_TASK: Wait for scheduler "teh1" with entities [EventEntity, EventEntity]
  1: 0x06D9 [0x00] END_REQSTACK()
```

### Event 65535.87

#### Metadata

| Field        | Value    |
|--------------|----------|
| Entrypoint   | 0x06DA   |
| Data Size    | 16 bytes |
| Instructions | 2        |

```
      00 01 02 03 04 05 06 07  08 09 0A 0B 0C 0D 0E 0F
      -- -- -- -- -- -- -- --  -- -- -- -- -- -- -- --
06D0:                                66 1F 80 F8 FF FF            f.....
06E0: 7F F8 FF FF 7F 6D 64 71  30 00                    .....mdq0.      
```

#### Opcodes

```
  0: 0x06DA [0x66] LOAD_EXT_SCHEDULER_MAIN: Load scheduler "mdq0" with entities [EventEntity, EventEntity], work=46*
  1: 0x06E9 [0x00] END_REQSTACK()
```

### Event 65535.88

#### Metadata

| Field        | Value    |
|--------------|----------|
| Entrypoint   | 0x06EA   |
| Data Size    | 14 bytes |
| Instructions | 2        |

```
      00 01 02 03 04 05 06 07  08 09 0A 0B 0C 0D 0E 0F
      -- -- -- -- -- -- -- --  -- -- -- -- -- -- -- --
06E0:                                53 F8 FF FF 7F F8            S.....
06F0: FF FF 7F 6D 64 71 30 00                           ...mdq0.        
```

#### Opcodes

```
  0: 0x06EA [0x53] WAIT_SCHEDULER_TASK: Wait for scheduler "mdq0" with entities [EventEntity, EventEntity]
  1: 0x06F7 [0x00] END_REQSTACK()
```

### Event 65535.89

#### Metadata

| Field        | Value    |
|--------------|----------|
| Entrypoint   | 0x06F8   |
| Data Size    | 16 bytes |
| Instructions | 2        |

```
      00 01 02 03 04 05 06 07  08 09 0A 0B 0C 0D 0E 0F
      -- -- -- -- -- -- -- --  -- -- -- -- -- -- -- --
06F0:                          66 1F 80 F8 FF FF 7F F8          f.......
0700: FF FF 7F 6D 64 71 33 00                           ...mdq3.        
```

#### Opcodes

```
  0: 0x06F8 [0x66] LOAD_EXT_SCHEDULER_MAIN: Load scheduler "mdq3" with entities [EventEntity, EventEntity], work=46*
  1: 0x0707 [0x00] END_REQSTACK()
```

### Event 65535.90

#### Metadata

| Field        | Value    |
|--------------|----------|
| Entrypoint   | 0x0708   |
| Data Size    | 14 bytes |
| Instructions | 2        |

```
      00 01 02 03 04 05 06 07  08 09 0A 0B 0C 0D 0E 0F
      -- -- -- -- -- -- -- --  -- -- -- -- -- -- -- --
0700:                          53 F8 FF FF 7F F8 FF FF          S.......
0710: 7F 6D 64 71 33 00                                 .mdq3.          
```

#### Opcodes

```
  0: 0x0708 [0x53] WAIT_SCHEDULER_TASK: Wait for scheduler "mdq3" with entities [EventEntity, EventEntity]
  1: 0x0715 [0x00] END_REQSTACK()
```

### Event 65535.91

#### Metadata

| Field        | Value    |
|--------------|----------|
| Entrypoint   | 0x0716   |
| Data Size    | 22 bytes |
| Instructions | 8        |

```
      00 01 02 03 04 05 06 07  08 09 0A 0B 0C 0D 0E 0F
      -- -- -- -- -- -- -- --  -- -- -- -- -- -- -- --
0710:                   32 12  80 1F 00 20 80 21 80 22        2.... .!."
0720: 80 1F 01 6F 1E F0 FF FF  7F 6F 70 00              ...o.....op.    
```

#### Opcodes

```
  0: 0x0716 [0x32] ExtData[1]->MainSpeed = 40* * 0.1
  1: 0x0719 [0x1F] MOVE_ENTITY: EventEntity moves to X=-95.832*, Z=-96.182*, Y=-2.150*
  2: 0x0721 [0x1F] MOVE_ENTITY: Update entity position (mode=1)
  3: 0x0723 [0x6F] WAIT_FRAME_DELAY: Yield until WaitTime reaches zero
  4: 0x0724 [0x1E] EventEntity looks at LocalPlayer and starts talking
  5: 0x0729 [0x6F] WAIT_FRAME_DELAY: Yield until WaitTime reaches zero
  6: 0x072A [0x70] WAIT_ENTITY_RENDER_FLAG: Wait while EventEntity->Render.Flags3 bit 2 is set (cancel turn if not)
  7: 0x072B [0x00] END_REQSTACK()
```

### Event 65535.92

#### Metadata

| Field        | Value    |
|--------------|----------|
| Entrypoint   | 0x072C   |
| Data Size    | 22 bytes |
| Instructions | 8        |

```
      00 01 02 03 04 05 06 07  08 09 0A 0B 0C 0D 0E 0F
      -- -- -- -- -- -- -- --  -- -- -- -- -- -- -- --
0720:                                      32 00 80 1F              2...
0730: 00 23 80 24 80 25 80 1F  01 6F 1E F0 FF FF 7F 6F  .#.$.%...o.....o
0740: 70 00                                             p.              
```

#### Opcodes

```
  0: 0x072C [0x32] ExtData[1]->MainSpeed = 13* * 0.1
  1: 0x072F [0x1F] MOVE_ENTITY: EventEntity moves to X=-94.316*, Z=-93.094*, Y=-2.192*
  2: 0x0737 [0x1F] MOVE_ENTITY: Update entity position (mode=1)
  3: 0x0739 [0x6F] WAIT_FRAME_DELAY: Yield until WaitTime reaches zero
  4: 0x073A [0x1E] EventEntity looks at LocalPlayer and starts talking
  5: 0x073F [0x6F] WAIT_FRAME_DELAY: Yield until WaitTime reaches zero
  6: 0x0740 [0x70] WAIT_ENTITY_RENDER_FLAG: Wait while EventEntity->Render.Flags3 bit 2 is set (cancel turn if not)
  7: 0x0741 [0x00] END_REQSTACK()
```

### Event 65535.93

#### Metadata

| Field        | Value    |
|--------------|----------|
| Entrypoint   | 0x0742   |
| Data Size    | 15 bytes |
| Instructions | 5        |

```
      00 01 02 03 04 05 06 07  08 09 0A 0B 0C 0D 0E 0F
      -- -- -- -- -- -- -- --  -- -- -- -- -- -- -- --
0740:       32 00 80 1F 00 26  80 27 80 22 80 1F 01 6F    2....&.'."...o
0750: 00                                                .               
```

#### Opcodes

```
  0: 0x0742 [0x32] ExtData[1]->MainSpeed = 13* * 0.1
  1: 0x0745 [0x1F] MOVE_ENTITY: EventEntity moves to X=-96.714*, Z=-99.533*, Y=-2.150*
  2: 0x074D [0x1F] MOVE_ENTITY: Update entity position (mode=1)
  3: 0x074F [0x6F] WAIT_FRAME_DELAY: Yield until WaitTime reaches zero
  4: 0x0750 [0x00] END_REQSTACK()
```

### Event 65535.94

#### Metadata

| Field        | Value    |
|--------------|----------|
| Entrypoint   | 0x0751   |
| Data Size    | 22 bytes |
| Instructions | 8        |

```
      00 01 02 03 04 05 06 07  08 09 0A 0B 0C 0D 0E 0F
      -- -- -- -- -- -- -- --  -- -- -- -- -- -- -- --
0750:    32 12 80 1F 00 23 80  24 80 25 80 1F 01 6F 1E   2....#.$.%...o.
0760: F0 FF FF 7F 6F 70 00                              ....op.         
```

#### Opcodes

```
  0: 0x0751 [0x32] ExtData[1]->MainSpeed = 40* * 0.1
  1: 0x0754 [0x1F] MOVE_ENTITY: EventEntity moves to X=-94.316*, Z=-93.094*, Y=-2.192*
  2: 0x075C [0x1F] MOVE_ENTITY: Update entity position (mode=1)
  3: 0x075E [0x6F] WAIT_FRAME_DELAY: Yield until WaitTime reaches zero
  4: 0x075F [0x1E] EventEntity looks at LocalPlayer and starts talking
  5: 0x0764 [0x6F] WAIT_FRAME_DELAY: Yield until WaitTime reaches zero
  6: 0x0765 [0x70] WAIT_ENTITY_RENDER_FLAG: Wait while EventEntity->Render.Flags3 bit 2 is set (cancel turn if not)
  7: 0x0766 [0x00] END_REQSTACK()
```

### Event 65535.95

#### Metadata

| Field        | Value    |
|--------------|----------|
| Entrypoint   | 0x0767   |
| Data Size    | 22 bytes |
| Instructions | 8        |

```
      00 01 02 03 04 05 06 07  08 09 0A 0B 0C 0D 0E 0F
      -- -- -- -- -- -- -- --  -- -- -- -- -- -- -- --
0760:                      32  00 80 1F 00 28 80 29 80         2....(.).
0770: 03 80 1F 01 6F 1E F0 FF  FF 7F 6F 70 00           ....o.....op.   
```

#### Opcodes

```
  0: 0x0767 [0x32] ExtData[1]->MainSpeed = 13* * 0.1
  1: 0x076A [0x1F] MOVE_ENTITY: EventEntity moves to X=-96.228*, Z=-93.330*, Y=-2.149*
  2: 0x0772 [0x1F] MOVE_ENTITY: Update entity position (mode=1)
  3: 0x0774 [0x6F] WAIT_FRAME_DELAY: Yield until WaitTime reaches zero
  4: 0x0775 [0x1E] EventEntity looks at LocalPlayer and starts talking
  5: 0x077A [0x6F] WAIT_FRAME_DELAY: Yield until WaitTime reaches zero
  6: 0x077B [0x70] WAIT_ENTITY_RENDER_FLAG: Wait while EventEntity->Render.Flags3 bit 2 is set (cancel turn if not)
  7: 0x077C [0x00] END_REQSTACK()
```

### Event 65535.96

#### Metadata

| Field        | Value    |
|--------------|----------|
| Entrypoint   | 0x077D   |
| Data Size    | 15 bytes |
| Instructions | 5        |

```
      00 01 02 03 04 05 06 07  08 09 0A 0B 0C 0D 0E 0F
      -- -- -- -- -- -- -- --  -- -- -- -- -- -- -- --
0770:                                         32 00 80               2..
0780: 1F 00 2A 80 2B 80 03 80  1F 01 6F 00              ..*.+.....o.    
```

#### Opcodes

```
  0: 0x077D [0x32] ExtData[1]->MainSpeed = 13* * 0.1
  1: 0x0780 [0x1F] MOVE_ENTITY: EventEntity moves to X=-97.468*, Z=-89.894*, Y=-2.149*
  2: 0x0788 [0x1F] MOVE_ENTITY: Update entity position (mode=1)
  3: 0x078A [0x6F] WAIT_FRAME_DELAY: Yield until WaitTime reaches zero
  4: 0x078B [0x00] END_REQSTACK()
```

### Event 65535.97

#### Metadata

| Field        | Value    |
|--------------|----------|
| Entrypoint   | 0x078C   |
| Data Size    | 15 bytes |
| Instructions | 5        |

```
      00 01 02 03 04 05 06 07  08 09 0A 0B 0C 0D 0E 0F
      -- -- -- -- -- -- -- --  -- -- -- -- -- -- -- --
0780:                                      32 00 80 1F              2...
0790: 00 2C 80 2D 80 2E 80 1F  01 6F 00                 .,.-.....o.     
```

#### Opcodes

```
  0: 0x078C [0x32] ExtData[1]->MainSpeed = 13* * 0.1
  1: 0x078F [0x1F] MOVE_ENTITY: EventEntity moves to X=-93.612*, Z=-83.569*, Y=-2.649*
  2: 0x0797 [0x1F] MOVE_ENTITY: Update entity position (mode=1)
  3: 0x0799 [0x6F] WAIT_FRAME_DELAY: Yield until WaitTime reaches zero
  4: 0x079A [0x00] END_REQSTACK()
```
