# 17940523 - Hestefa

## Common Data

| Field            | Value                               |
|------------------|-------------------------------------|
| Zone             | Celennia Memorial Library (ID: 284) |
| Block Size       | 960 bytes                           |
| Total Events     | 9                                   |
| References Count | 34                                  |

## List of Events

| Event ID                 | Entrypoint   |   Size |   Instructions |
|--------------------------|--------------|--------|----------------|
| [65535](#event-65535)    | 0x0000       |      1 |              1 |
| [37](#event-37)          | 0x0001       |      1 |              1 |
| [65535.1](#event-655351) | 0x0002       |      9 |              3 |
| [65535.2](#event-655352) | 0x000B       |     18 |              4 |
| [29](#event-29)          | 0x001D       |    437 |             91 |
| [30](#event-30)          | 0x01D2       |     81 |             13 |
| [31](#event-31)          | 0x0223       |     96 |             17 |
| [32](#event-32)          | 0x0283       |     92 |             15 |
| [33](#event-33)          | 0x02DF       |     35 |             11 |

## DAT References (imed_data)

|   Index | Hex Value   |   Dec Value |
|---------|-------------|-------------|
|       0 | 0x001D      |          29 |
|       1 | 0x0001      |           1 |
|       2 | 0x002D      |          45 |
|       3 | 0x1F0A      |        7946 |
|       4 | 0x0013      |          19 |
|       5 | 0x1F0B      |        7947 |
|       6 | 0x1F0C      |        7948 |
|       7 | 0x1F0D      |        7949 |
|       8 | 0x003C      |          60 |
|       9 | 0x1F0E      |        7950 |
|      10 | 0x0000      |           0 |
|      11 | 0x000B      |          11 |
|      12 | 0x1F10      |        7952 |
|      13 | 0x1F0F      |        7951 |
|      14 | 0x005A      |          90 |
|      15 | 0x1F11      |        7953 |
|      16 | 0x009F      |         159 |
|      17 | 0x1F12      |        7954 |
|      18 | 0x1F13      |        7955 |
|      19 | 0x1F14      |        7956 |
|      20 | 0x1F15      |        7957 |
|      21 | 0x001A      |          26 |
|      22 | 0x1F16      |        7958 |
|      23 | 0x001E      |          30 |
|      24 | 0x1F17      |        7959 |
|      25 | 0x0051      |          81 |
|      26 | 0x1F18      |        7960 |
|      27 | 0x1F19      |        7961 |
|      28 | 0x0024      |          36 |
|      29 | 0x1F1A      |        7962 |
|      30 | 0x004B      |          75 |
|      31 | 0x1F09      |        7945 |
|      32 | 0x0004      |           4 |
|      33 | 0x1F1B      |        7963 |

## String References

- **7945**: <Sigh> If only I could stop getting lost in my superior's eyes when he makes ridiculous requests of me, I wouldn't be here searching for geomancers and rune fencers.
- **7946**: Holy burned books! Your outfit! So you do indeed walk the path of the [geomancer/rune fencer], <Player>.
- **7947**: <Sigh> I swear my superior knows I'll do anything to please him. Why else would he make me wait around here looking for a [geomancer/rune fencer] to come out of the woodwork?
- **7948**: Yes, someone with the same sort of trappings that you're wearing right now.
- **7949**: Wait! Now that I've had time to think about it, I can feel [the telltale comforting warmth that signals a harmonious relationship with nature/a cryptic elemental ambience] emanating from your livery! You're a [geomancer/rune fencer], aren't you?
- **7950**: Are you a [geomancer/rune fencer]? [Yes, I am./I'm just little old <Player>.]
- **7951**: Well, aren't you a saucy one. Here you are wearing the traditional garb of those [lifestream dippers/symbol slingers], and you make a joke at my expense.
- **7952**: I knew it! There's no outwitting my paper-cut-giving-sharp intuition.
- **7953**: You don't get to where I am by not knowing how to [spot someone who's in tune with the overarching energies of the land/perceive runic resonances].
- **7954**: I also know how to pass the time, and boy, you don't want to know how much of it I had. As I was rummaging through the musty tomes on these shelves, I came across a [miniature tapestry of poems/treatise] that was ordinary by every definition...at least upon first glance.
- **7955**: However, fatefully [turning it it on its side to read/deciding to take the first letter of each line and read them backwards] proved to be key in uncovering its true meaning.
- **7956**: And that meaning has an extensive amount to do with [geomancers'/rune fencers'] vestments...one would assume.
- **7957**: What precisely was the profound message contained within its crumbling confines, you ask?
- **7958**: That's the thing! I may have an eye for people like you, but no grasp on the tenets or academics of your profession.
- **7959**: That's why I was going to hand it over to an expert, but I didn't want to disappoint my lov--superior by leaving my post. As you can imagine, I was rather conflicted.
- **7960**: Now that you're here, though, I can just foist it off on you.
- **7961**: Like I said, I don't know much about [lifestreaming or what-have-you/those squiggly characters]. I do know, however, that someone in the [Order of Renaye/Inventors' Coalition] should.
- **7962**: Well, it's time I finally got back to doing what I came here to do. To the bookshelves! Oh, and good luck.
- **7963**: I never pegged myself for a reader before, but it's actually kind of fun! All that ink sure does a number on your faculties, though.

## Events

### Event 65535

#### Metadata

| Field        | Value   |
|--------------|---------|
| Entrypoint   | 0x0000  |
| Data Size    | 1 bytes |
| Instructions | 1       |

```
      00 01 02 03 04 05 06 07  08 09 0A 0B 0C 0D 0E 0F
      -- -- -- -- -- -- -- --  -- -- -- -- -- -- -- --
0000: 00                                                .               
```

#### Opcodes

```
  0: 0x0000 [0x00] END_REQSTACK()
```

### Event 37

#### Metadata

| Field        | Value   |
|--------------|---------|
| Entrypoint   | 0x0001  |
| Data Size    | 1 bytes |
| Instructions | 1       |

```
      00 01 02 03 04 05 06 07  08 09 0A 0B 0C 0D 0E 0F
      -- -- -- -- -- -- -- --  -- -- -- -- -- -- -- --
0000:    00                                              .              
```

#### Opcodes

```
  0: 0x0001 [0x00] END_REQSTACK()
```

### Event 65535.1

#### Metadata

| Field        | Value   |
|--------------|---------|
| Entrypoint   | 0x0002  |
| Data Size    | 9 bytes |
| Instructions | 3       |

```
      00 01 02 03 04 05 06 07  08 09 0A 0B 0C 0D 0E 0F
      -- -- -- -- -- -- -- --  -- -- -- -- -- -- -- --
0000:       1C 00 17 1E 22 C0  11 01 00                   ...."....     
```

#### Opcodes

```
  0: 0x0002 [0x1C] WAIT(Work_Zone_1700[0] ticks)
  1: 0x0005 [0x1E] EventEntity looks at Oshasha (ID: 17940514/0x0111C022) and starts talking
  2: 0x000A [0x00] END_REQSTACK()
```

### Event 65535.2

#### Metadata

| Field        | Value    |
|--------------|----------|
| Entrypoint   | 0x000B   |
| Data Size    | 18 bytes |
| Instructions | 4        |

```
      00 01 02 03 04 05 06 07  08 09 0A 0B 0C 0D 0E 0F
      -- -- -- -- -- -- -- --  -- -- -- -- -- -- -- --
0000:                                   1E 22 C0 11 01             ."...
0010: 6E F8 FF FF 7F 00 80 99  F8 FF FF 7F 00           n............   
```

#### Opcodes

```
  0: 0x000B [0x1E] EventEntity looks at Oshasha (ID: 17940514/0x0111C022) and starts talking
  1: 0x0010 [0x6E] EventEntity uses emote 29*
  2: 0x0017 [0x99] Wait for EventEntity animation to complete
  3: 0x001C [0x00] END_REQSTACK()
```

### Event 29

#### Metadata

| Field        | Value     |
|--------------|-----------|
| Entrypoint   | 0x001D    |
| Data Size    | 437 bytes |
| Instructions | 91        |

```
      00 01 02 03 04 05 06 07  08 09 0A 0B 0C 0D 0E 0F
      -- -- -- -- -- -- -- --  -- -- -- -- -- -- -- --
0010:                                         42 03 00               B..
0020: 00 08 10 03 01 00 09 10  06 01 10 06 02 10 02 00  ................
0030: 00 01 80 00 3C 00 05 02  10 05 01 10 4A F0 FF FF  ....<.......J...
0040: 7F 2B C0 11 01 02 01 00  01 80 00 72 00 4A 2B C0  .+.........r.J+.
0050: 11 01 F0 FF FF 7F 6F 76  2B C0 11 01 1C 02 80 6E  ......ov+......n
0060: 2B C0 11 01 00 80 99 2B  C0 11 01 1D 03 80 23 01  +......+......#.
0070: 28 01 7B 2B C0 11 01 66  04 80 2B C0 11 01 2B C0  (.{+...f..+...+.
0080: 11 01 74 68 6B 31 1D 05  80 23 53 2B C0 11 01 2B  ..thk1...#S+...+
0090: C0 11 01 74 68 6B 31 66  04 80 2B C0 11 01 2B C0  ...thk1f..+...+.
00A0: 11 01 74 68 6B 32 53 2B  C0 11 01 2B C0 11 01 74  ..thk2S+...+...t
00B0: 68 6B 32 4A 2B C0 11 01  F0 FF FF 7F 6F 76 2B C0  hk2J+.......ov+.
00C0: 11 01 1D 06 80 23 1C 02  80 6E 2B C0 11 01 00 80  .....#...n+.....
00D0: 99 2B C0 11 01 1D 07 80  23 1C 08 80 24 09 80 0A  .+......#...$...
00E0: 80 0A 80 25 02 00 10 0A  80 00 06 01 29 08 F0 FF  ...%........)...
00F0: FF 7F 0E 6E 2B C0 11 01  0B 80 99 2B C0 11 01 1D  ...n+......+....
0100: 0C 80 23 01 28 01 02 00  10 01 80 00 28 01 29 08  ..#.(.......(.).
0110: F0 FF FF 7F 0E 6E 2B C0  11 01 01 80 99 2B C0 11  .....n+......+..
0120: 01 1D 0D 80 23 01 28 01  1C 0E 80 1D 0F 80 23 66  ....#.(.......#f
0130: 10 80 2B C0 11 01 2B C0  11 01 74 6C 6B 30 1D 11  ..+...+...tlk0..
0140: 80 23 1D 12 80 23 53 2B  C0 11 01 2B C0 11 01 74  .#...#S+...+...t
0150: 6C 6B 30 66 10 80 2B C0  11 01 2B C0 11 01 74 6C  lk0f..+...+...tl
0160: 6B 31 1D 13 80 23 1D 14  80 23 53 2B C0 11 01 2B  k1...#...#S+...+
0170: C0 11 01 74 6C 6B 31 6E  2B C0 11 01 15 80 99 2B  ...tlk1n+......+
0180: C0 11 01 1C 02 80 1D 16  80 23 1C 17 80 1D 18 80  .........#......
0190: 23 66 19 80 2B C0 11 01  2B C0 11 01 70 61 73 30  #f..+...+...pas0
01A0: 1C 17 80 1D 1A 80 23 53  2B C0 11 01 2B C0 11 01  ......#S+...+...
01B0: 70 61 73 30 1D 1B 80 23  7B 2B C0 11 01 6E 2B C0  pas0...#{+...n+.
01C0: 11 01 1C 80 99 2B C0 11  01 1D 1D 80 23 1C 1E 80  .....+......#...
01D0: 21 00                                             !.              
```

#### Opcodes

```
  0: 0x001D [0x42] SET_CLI_EVENT_CANCEL_DATA()
  1: 0x001E [0x03] ExtData[1]->WorkLocal[0] = Work_Zone[8]
  2: 0x0023 [0x03] ExtData[1]->WorkLocal[1] = Work_Zone[9]
  3: 0x0028 [0x06] Work_Zone[1] = 0
  4: 0x002B [0x06] Work_Zone[2] = 0
  5: 0x002E [0x02] IF !(ExtData[1]->WorkLocal[0] == 1*) GOTO 0x003C
  6: 0x0036 [0x05] Work_Zone[2] = 1
  7: 0x0039 [0x05] Work_Zone[1] = 1
  8: 0x003C [0x4A] LocalPlayer looks at Hestefa (ID: 17940523/0x0111C02B)
  9: 0x0045 [0x02] IF !(ExtData[1]->WorkLocal[1] == 1*) GOTO 0x0072
 10: 0x004D [0x4A] Hestefa (ID: 17940523/0x0111C02B) looks at LocalPlayer
 11: 0x0056 [0x6F] WAIT_FRAME_DELAY: Yield until WaitTime reaches zero
 12: 0x0057 [0x76] CHECK_ENTITY_RENDER_FLAGS: Wait until Hestefa (ID: 17940523/0x0111C02B) Render.Flags0 and Render.Flags3 conditions are met
 13: 0x005C [0x1C] WAIT(45* ticks)
 14: 0x005F [0x6E] Hestefa (ID: 17940523/0x0111C02B) uses emote 29*
 15: 0x0066 [0x99] Wait for Hestefa (ID: 17940523/0x0111C02B) animation to complete
 16: 0x006B [0x1D] PRINT_EVENT_MESSAGE(message_id=7946*)
    → "Holy burned books! Your outfit! So you do indeed walk the path of the [geomancer/rune fencer], <Player>."
 17: 0x006E [0x23] WAIT_FOR_DIALOG_INTERACTION
 18: 0x006F [0x01] GOTO 0x0128
 19: 0x0072 [0x7B] Hestefa (ID: 17940523/0x0111C02B) stops talking
 20: 0x0077 [0x66] LOAD_EXT_SCHEDULER_MAIN: Load scheduler "thk1" with entities [Hestefa (ID: 17940523/0x0111C02B), Hestefa (ID: 17940523/0x0111C02B)], work=19*
 21: 0x0086 [0x1D] PRINT_EVENT_MESSAGE(message_id=7947*)
    → "<Sigh> I swear my superior knows I'll do anything to please him. Why else would he make me wait around here looking for a [geomancer/rune fencer] to come out of the woodwork?"
 22: 0x0089 [0x23] WAIT_FOR_DIALOG_INTERACTION
 23: 0x008A [0x53] WAIT_SCHEDULER_TASK: Wait for scheduler "thk1" with entities [Hestefa (ID: 17940523/0x0111C02B), Hestefa (ID: 17940523/0x0111C02B)]
 24: 0x0097 [0x66] LOAD_EXT_SCHEDULER_MAIN: Load scheduler "thk2" with entities [Hestefa (ID: 17940523/0x0111C02B), Hestefa (ID: 17940523/0x0111C02B)], work=19*
 25: 0x00A6 [0x53] WAIT_SCHEDULER_TASK: Wait for scheduler "thk2" with entities [Hestefa (ID: 17940523/0x0111C02B), Hestefa (ID: 17940523/0x0111C02B)]
 26: 0x00B3 [0x4A] Hestefa (ID: 17940523/0x0111C02B) looks at LocalPlayer
 27: 0x00BC [0x6F] WAIT_FRAME_DELAY: Yield until WaitTime reaches zero
 28: 0x00BD [0x76] CHECK_ENTITY_RENDER_FLAGS: Wait until Hestefa (ID: 17940523/0x0111C02B) Render.Flags0 and Render.Flags3 conditions are met
 29: 0x00C2 [0x1D] PRINT_EVENT_MESSAGE(message_id=7948*)
    → "Yes, someone with the same sort of trappings that you're wearing right now."
 30: 0x00C5 [0x23] WAIT_FOR_DIALOG_INTERACTION
 31: 0x00C6 [0x1C] WAIT(45* ticks)
 32: 0x00C9 [0x6E] Hestefa (ID: 17940523/0x0111C02B) uses emote 29*
 33: 0x00D0 [0x99] Wait for Hestefa (ID: 17940523/0x0111C02B) animation to complete
 34: 0x00D5 [0x1D] PRINT_EVENT_MESSAGE(message_id=7949*)
    → "Wait! Now that I've had time to think about it, I can feel [the telltale comforting warmth that signals a harmonious relationship with nature/a cryptic elemental ambience] emanating from your livery! You're a [geomancer/rune fencer], aren't you?"
 35: 0x00D8 [0x23] WAIT_FOR_DIALOG_INTERACTION
 36: 0x00D9 [0x1C] WAIT(60* ticks)
 37: 0x00DC [0x24] CREATE_DIALOG(message_id=7950*, default_option=0*, option_flags=0*)
    → "Are you a [geomancer/rune fencer]? [Yes, I am./I'm just little old <Player>.]"
 38: 0x00E3 [0x25] WAIT_DIALOG_SELECT()
 39: 0x00E4 [0x02] IF !(Work_Zone[0] == 0*) GOTO 0x0106
 40: 0x00EC [0x29] REQ_SET_WAIT(priority=0x08, entity_id=LocalPlayer, tag_num=0x0E)
 41: 0x00F3 [0x6E] Hestefa (ID: 17940523/0x0111C02B) uses emote 11*
 42: 0x00FA [0x99] Wait for Hestefa (ID: 17940523/0x0111C02B) animation to complete
 43: 0x00FF [0x1D] PRINT_EVENT_MESSAGE(message_id=7952*)
    → "I knew it! There's no outwitting my paper-cut-giving-sharp intuition."
 44: 0x0102 [0x23] WAIT_FOR_DIALOG_INTERACTION
 45: 0x0103 [0x01] GOTO 0x0128
 46: 0x0106 [0x02] IF !(Work_Zone[0] == 1*) GOTO 0x0128
 47: 0x010E [0x29] REQ_SET_WAIT(priority=0x08, entity_id=LocalPlayer, tag_num=0x0E)
 48: 0x0115 [0x6E] Hestefa (ID: 17940523/0x0111C02B) uses emote 1*
 49: 0x011C [0x99] Wait for Hestefa (ID: 17940523/0x0111C02B) animation to complete
 50: 0x0121 [0x1D] PRINT_EVENT_MESSAGE(message_id=7951*)
    → "Well, aren't you a saucy one. Here you are wearing the traditional garb of those [lifestream dippers/symbol slingers], and you make a joke at my expense."
 51: 0x0124 [0x23] WAIT_FOR_DIALOG_INTERACTION
 52: 0x0125 [0x01] GOTO 0x0128

SUBROUTINE_0128:
 53: 0x0128 [0x1C] WAIT(90* ticks)
 54: 0x012B [0x1D] PRINT_EVENT_MESSAGE(message_id=7953*)
    → "You don't get to where I am by not knowing how to [spot someone who's in tune with the overarching energies of the land/perceive runic resonances]."
 55: 0x012E [0x23] WAIT_FOR_DIALOG_INTERACTION
 56: 0x012F [0x66] LOAD_EXT_SCHEDULER_MAIN: Load scheduler "tlk0" with entities [Hestefa (ID: 17940523/0x0111C02B), Hestefa (ID: 17940523/0x0111C02B)], work=159*
 57: 0x013E [0x1D] PRINT_EVENT_MESSAGE(message_id=7954*)
    → "I also know how to pass the time, and boy, you don't want to know how much of it I had. As I was rummaging through the musty tomes on these shelves, I came across a [miniature tapestry of poems/treatise] that was ordinary by every definition...at least upon first glance."
 58: 0x0141 [0x23] WAIT_FOR_DIALOG_INTERACTION
 59: 0x0142 [0x1D] PRINT_EVENT_MESSAGE(message_id=7955*)
    → "However, fatefully [turning it it on its side to read/deciding to take the first letter of each line and read them backwards] proved to be key in uncovering its true meaning."
 60: 0x0145 [0x23] WAIT_FOR_DIALOG_INTERACTION
 61: 0x0146 [0x53] WAIT_SCHEDULER_TASK: Wait for scheduler "tlk0" with entities [Hestefa (ID: 17940523/0x0111C02B), Hestefa (ID: 17940523/0x0111C02B)]
 62: 0x0153 [0x66] LOAD_EXT_SCHEDULER_MAIN: Load scheduler "tlk1" with entities [Hestefa (ID: 17940523/0x0111C02B), Hestefa (ID: 17940523/0x0111C02B)], work=159*
 63: 0x0162 [0x1D] PRINT_EVENT_MESSAGE(message_id=7956*)
    → "And that meaning has an extensive amount to do with [geomancers'/rune fencers'] vestments...one would assume."
 64: 0x0165 [0x23] WAIT_FOR_DIALOG_INTERACTION
 65: 0x0166 [0x1D] PRINT_EVENT_MESSAGE(message_id=7957*)
    → "What precisely was the profound message contained within its crumbling confines, you ask?"
 66: 0x0169 [0x23] WAIT_FOR_DIALOG_INTERACTION
 67: 0x016A [0x53] WAIT_SCHEDULER_TASK: Wait for scheduler "tlk1" with entities [Hestefa (ID: 17940523/0x0111C02B), Hestefa (ID: 17940523/0x0111C02B)]
 68: 0x0177 [0x6E] Hestefa (ID: 17940523/0x0111C02B) uses emote 26*
 69: 0x017E [0x99] Wait for Hestefa (ID: 17940523/0x0111C02B) animation to complete
 70: 0x0183 [0x1C] WAIT(45* ticks)
 71: 0x0186 [0x1D] PRINT_EVENT_MESSAGE(message_id=7958*)
    → "That's the thing! I may have an eye for people like you, but no grasp on the tenets or academics of your profession."
 72: 0x0189 [0x23] WAIT_FOR_DIALOG_INTERACTION
 73: 0x018A [0x1C] WAIT(30* ticks)
 74: 0x018D [0x1D] PRINT_EVENT_MESSAGE(message_id=7959*)
    → "That's why I was going to hand it over to an expert, but I didn't want to disappoint my lov--superior by leaving my post. As you can imagine, I was rather conflicted."
 75: 0x0190 [0x23] WAIT_FOR_DIALOG_INTERACTION
 76: 0x0191 [0x66] LOAD_EXT_SCHEDULER_MAIN: Load scheduler "pas0" with entities [Hestefa (ID: 17940523/0x0111C02B), Hestefa (ID: 17940523/0x0111C02B)], work=81*
 77: 0x01A0 [0x1C] WAIT(30* ticks)
 78: 0x01A3 [0x1D] PRINT_EVENT_MESSAGE(message_id=7960*)
    → "Now that you're here, though, I can just foist it off on you."
 79: 0x01A6 [0x23] WAIT_FOR_DIALOG_INTERACTION
 80: 0x01A7 [0x53] WAIT_SCHEDULER_TASK: Wait for scheduler "pas0" with entities [Hestefa (ID: 17940523/0x0111C02B), Hestefa (ID: 17940523/0x0111C02B)]
 81: 0x01B4 [0x1D] PRINT_EVENT_MESSAGE(message_id=7961*)
    → "Like I said, I don't know much about [lifestreaming or what-have-you/those squiggly characters]. I do know, however, that someone in the [Order of Renaye/Inventors' Coalition] should."
 82: 0x01B7 [0x23] WAIT_FOR_DIALOG_INTERACTION
 83: 0x01B8 [0x7B] Hestefa (ID: 17940523/0x0111C02B) stops talking
 84: 0x01BD [0x6E] Hestefa (ID: 17940523/0x0111C02B) uses emote 36*
 85: 0x01C4 [0x99] Wait for Hestefa (ID: 17940523/0x0111C02B) animation to complete
 86: 0x01C9 [0x1D] PRINT_EVENT_MESSAGE(message_id=7962*)
    → "Well, it's time I finally got back to doing what I came here to do. To the bookshelves! Oh, and good luck."
 87: 0x01CC [0x23] WAIT_FOR_DIALOG_INTERACTION
 88: 0x01CD [0x1C] WAIT(75* ticks)
 89: 0x01D0 [0x21] END_EVENT
 90: 0x01D1 [0x00] END_REQSTACK()
```

### Event 30

#### Metadata

| Field        | Value    |
|--------------|----------|
| Entrypoint   | 0x01D2   |
| Data Size    | 81 bytes |
| Instructions | 13       |

```
      00 01 02 03 04 05 06 07  08 09 0A 0B 0C 0D 0E 0F
      -- -- -- -- -- -- -- --  -- -- -- -- -- -- -- --
01D0:       4A F0 FF FF 7F 2B  C0 11 01 6F 70 7B 2B C0    J....+...op{+.
01E0: 11 01 66 04 80 2B C0 11  01 2B C0 11 01 74 68 6B  ..f..+...+...thk
01F0: 31 1C 08 80 1D 1F 80 23  53 2B C0 11 01 2B C0 11  1......#S+...+..
0200: 01 74 68 6B 31 66 04 80  2B C0 11 01 2B C0 11 01  .thk1f..+...+...
0210: 74 68 6B 32 53 2B C0 11  01 2B C0 11 01 74 68 6B  thk2S+...+...thk
0220: 32 21 00                                          2!.             
```

#### Opcodes

```
  0: 0x01D2 [0x4A] LocalPlayer looks at Hestefa (ID: 17940523/0x0111C02B)
  1: 0x01DB [0x6F] WAIT_FRAME_DELAY: Yield until WaitTime reaches zero
  2: 0x01DC [0x70] WAIT_ENTITY_RENDER_FLAG: Wait while EventEntity->Render.Flags3 bit 2 is set (cancel turn if not)
  3: 0x01DD [0x7B] Hestefa (ID: 17940523/0x0111C02B) stops talking
  4: 0x01E2 [0x66] LOAD_EXT_SCHEDULER_MAIN: Load scheduler "thk1" with entities [Hestefa (ID: 17940523/0x0111C02B), Hestefa (ID: 17940523/0x0111C02B)], work=19*
  5: 0x01F1 [0x1C] WAIT(60* ticks)
  6: 0x01F4 [0x1D] PRINT_EVENT_MESSAGE(message_id=7945*)
    → "<Sigh> If only I could stop getting lost in my superior's eyes when he makes ridiculous requests of me, I wouldn't be here searching for geomancers and rune fencers."
  7: 0x01F7 [0x23] WAIT_FOR_DIALOG_INTERACTION
  8: 0x01F8 [0x53] WAIT_SCHEDULER_TASK: Wait for scheduler "thk1" with entities [Hestefa (ID: 17940523/0x0111C02B), Hestefa (ID: 17940523/0x0111C02B)]
  9: 0x0205 [0x66] LOAD_EXT_SCHEDULER_MAIN: Load scheduler "thk2" with entities [Hestefa (ID: 17940523/0x0111C02B), Hestefa (ID: 17940523/0x0111C02B)], work=19*
 10: 0x0214 [0x53] WAIT_SCHEDULER_TASK: Wait for scheduler "thk2" with entities [Hestefa (ID: 17940523/0x0111C02B), Hestefa (ID: 17940523/0x0111C02B)]
 11: 0x0221 [0x21] END_EVENT
 12: 0x0222 [0x00] END_REQSTACK()
```

### Event 31

#### Metadata

| Field        | Value    |
|--------------|----------|
| Entrypoint   | 0x0223   |
| Data Size    | 96 bytes |
| Instructions | 17       |

```
      00 01 02 03 04 05 06 07  08 09 0A 0B 0C 0D 0E 0F
      -- -- -- -- -- -- -- --  -- -- -- -- -- -- -- --
0220:          03 00 00 08 10  1E F0 FF FF 7F 6F 70 7B     ..........op{
0230: 2B C0 11 01 66 04 80 2B  C0 11 01 2B C0 11 01 74  +...f..+...+...t
0240: 68 6B 31 1C 08 80 06 02  10 02 00 00 01 80 00 54  hk1............T
0250: 02 05 02 10 1D 1B 80 23  53 2B C0 11 01 2B C0 11  .......#S+...+..
0260: 01 74 68 6B 31 66 04 80  2B C0 11 01 2B C0 11 01  .thk1f..+...+...
0270: 74 68 6B 32 53 2B C0 11  01 2B C0 11 01 74 68 6B  thk2S+...+...thk
0280: 32 21 00                                          2!.             
```

#### Opcodes

```
  0: 0x0223 [0x03] ExtData[1]->WorkLocal[0] = Work_Zone[8]
  1: 0x0228 [0x1E] EventEntity looks at LocalPlayer and starts talking
  2: 0x022D [0x6F] WAIT_FRAME_DELAY: Yield until WaitTime reaches zero
  3: 0x022E [0x70] WAIT_ENTITY_RENDER_FLAG: Wait while EventEntity->Render.Flags3 bit 2 is set (cancel turn if not)
  4: 0x022F [0x7B] Hestefa (ID: 17940523/0x0111C02B) stops talking
  5: 0x0234 [0x66] LOAD_EXT_SCHEDULER_MAIN: Load scheduler "thk1" with entities [Hestefa (ID: 17940523/0x0111C02B), Hestefa (ID: 17940523/0x0111C02B)], work=19*
  6: 0x0243 [0x1C] WAIT(60* ticks)
  7: 0x0246 [0x06] Work_Zone[2] = 0
  8: 0x0249 [0x02] IF !(ExtData[1]->WorkLocal[0] == 1*) GOTO 0x0254
  9: 0x0251 [0x05] Work_Zone[2] = 1
 10: 0x0254 [0x1D] PRINT_EVENT_MESSAGE(message_id=7961*)
    → "Like I said, I don't know much about [lifestreaming or what-have-you/those squiggly characters]. I do know, however, that someone in the [Order of Renaye/Inventors' Coalition] should."
 11: 0x0257 [0x23] WAIT_FOR_DIALOG_INTERACTION
 12: 0x0258 [0x53] WAIT_SCHEDULER_TASK: Wait for scheduler "thk1" with entities [Hestefa (ID: 17940523/0x0111C02B), Hestefa (ID: 17940523/0x0111C02B)]
 13: 0x0265 [0x66] LOAD_EXT_SCHEDULER_MAIN: Load scheduler "thk2" with entities [Hestefa (ID: 17940523/0x0111C02B), Hestefa (ID: 17940523/0x0111C02B)], work=19*
 14: 0x0274 [0x53] WAIT_SCHEDULER_TASK: Wait for scheduler "thk2" with entities [Hestefa (ID: 17940523/0x0111C02B), Hestefa (ID: 17940523/0x0111C02B)]
 15: 0x0281 [0x21] END_EVENT
 16: 0x0282 [0x00] END_REQSTACK()
```

### Event 32

#### Metadata

| Field        | Value    |
|--------------|----------|
| Entrypoint   | 0x0283   |
| Data Size    | 92 bytes |
| Instructions | 15       |

```
      00 01 02 03 04 05 06 07  08 09 0A 0B 0C 0D 0E 0F
      -- -- -- -- -- -- -- --  -- -- -- -- -- -- -- --
0280:          03 00 00 08 10  4A F0 FF FF 7F 2B C0 11     .....J....+..
0290: 01 6F 70 66 04 80 2B C0  11 01 2B C0 11 01 74 6C  .opf..+...+...tl
02A0: 6B 30 05 02 10 02 00 00  01 80 00 B0 02 06 02 10  k0..............
02B0: 1D 05 80 23 53 2B C0 11  01 2B C0 11 01 74 6C 6B  ...#S+...+...tlk
02C0: 30 66 04 80 2B C0 11 01  2B C0 11 01 74 6C 6B 31  0f..+...+...tlk1
02D0: 53 2B C0 11 01 2B C0 11  01 74 6C 6B 31 21 00     S+...+...tlk1!. 
```

#### Opcodes

```
  0: 0x0283 [0x03] ExtData[1]->WorkLocal[0] = Work_Zone[8]
  1: 0x0288 [0x4A] LocalPlayer looks at Hestefa (ID: 17940523/0x0111C02B)
  2: 0x0291 [0x6F] WAIT_FRAME_DELAY: Yield until WaitTime reaches zero
  3: 0x0292 [0x70] WAIT_ENTITY_RENDER_FLAG: Wait while EventEntity->Render.Flags3 bit 2 is set (cancel turn if not)
  4: 0x0293 [0x66] LOAD_EXT_SCHEDULER_MAIN: Load scheduler "tlk0" with entities [Hestefa (ID: 17940523/0x0111C02B), Hestefa (ID: 17940523/0x0111C02B)], work=19*
  5: 0x02A2 [0x05] Work_Zone[2] = 1
  6: 0x02A5 [0x02] IF !(ExtData[1]->WorkLocal[0] == 1*) GOTO 0x02B0
  7: 0x02AD [0x06] Work_Zone[2] = 0
  8: 0x02B0 [0x1D] PRINT_EVENT_MESSAGE(message_id=7947*)
    → "<Sigh> I swear my superior knows I'll do anything to please him. Why else would he make me wait around here looking for a [geomancer/rune fencer] to come out of the woodwork?"
  9: 0x02B3 [0x23] WAIT_FOR_DIALOG_INTERACTION
 10: 0x02B4 [0x53] WAIT_SCHEDULER_TASK: Wait for scheduler "tlk0" with entities [Hestefa (ID: 17940523/0x0111C02B), Hestefa (ID: 17940523/0x0111C02B)]
 11: 0x02C1 [0x66] LOAD_EXT_SCHEDULER_MAIN: Load scheduler "tlk1" with entities [Hestefa (ID: 17940523/0x0111C02B), Hestefa (ID: 17940523/0x0111C02B)], work=19*
 12: 0x02D0 [0x53] WAIT_SCHEDULER_TASK: Wait for scheduler "tlk1" with entities [Hestefa (ID: 17940523/0x0111C02B), Hestefa (ID: 17940523/0x0111C02B)]
 13: 0x02DD [0x21] END_EVENT
 14: 0x02DE [0x00] END_REQSTACK()
```

### Event 33

#### Metadata

| Field        | Value    |
|--------------|----------|
| Entrypoint   | 0x02DF   |
| Data Size    | 35 bytes |
| Instructions | 11       |

```
      00 01 02 03 04 05 06 07  08 09 0A 0B 0C 0D 0E 0F
      -- -- -- -- -- -- -- --  -- -- -- -- -- -- -- --
02D0:                                               4A                 J
02E0: F0 FF FF 7F 2B C0 11 01  6F 70 6E 2B C0 11 01 20  ....+...opn+... 
02F0: 80 99 2B C0 11 01 1C 02  80 1D 21 80 23 1C 08 80  ..+.......!.#...
0300: 21 00                                             !.              
```

#### Opcodes

```
  0: 0x02DF [0x4A] LocalPlayer looks at Hestefa (ID: 17940523/0x0111C02B)
  1: 0x02E8 [0x6F] WAIT_FRAME_DELAY: Yield until WaitTime reaches zero
  2: 0x02E9 [0x70] WAIT_ENTITY_RENDER_FLAG: Wait while EventEntity->Render.Flags3 bit 2 is set (cancel turn if not)
  3: 0x02EA [0x6E] Hestefa (ID: 17940523/0x0111C02B) uses emote 4*
  4: 0x02F1 [0x99] Wait for Hestefa (ID: 17940523/0x0111C02B) animation to complete
  5: 0x02F6 [0x1C] WAIT(45* ticks)
  6: 0x02F9 [0x1D] PRINT_EVENT_MESSAGE(message_id=7963*)
    → "I never pegged myself for a reader before, but it's actually kind of fun! All that ink sure does a number on your faculties, though."
  7: 0x02FC [0x23] WAIT_FOR_DIALOG_INTERACTION
  8: 0x02FD [0x1C] WAIT(60* ticks)
  9: 0x0300 [0x21] END_EVENT
 10: 0x0301 [0x00] END_REQSTACK()
```
