# 17940528

## Common Data

| Field            | Value                               |
|------------------|-------------------------------------|
| Zone             | Celennia Memorial Library (ID: 284) |
| Block Size       | 10936 bytes                         |
| Total Events     | 7                                   |
| References Count | 242                                 |

## List of Events

| Event ID              | Entrypoint   |   Size |   Instructions |
|-----------------------|--------------|--------|----------------|
| [65535](#event-65535) | 0x0000       |    658 |             62 |
| [43](#event-43)       | 0x0292       |   2280 |            318 |
| [44](#event-44)       | 0x0B7A       |   1696 |            235 |
| [45](#event-45)       | 0x121A       |    162 |             27 |
| [46](#event-46)       | 0x12BC       |   4644 |            641 |
| [47](#event-47)       | 0x24E0       |    129 |             20 |
| [48](#event-48)       | 0x2561       |    355 |             54 |

## DAT References (imed_data)

|   Index | Hex Value   |   Dec Value |
|---------|-------------|-------------|
|       0 | 0x00C8      |         200 |
|       1 | 0x0000      |           0 |
|       2 | 0x00C9      |         201 |
|       3 | 0x0001      |           1 |
|       4 | 0x002D      |          45 |
|       5 | 0x0002      |           2 |
|       6 | 0x001E      |          30 |
|       7 | 0x00D7      |         215 |
|       8 | 0x0093      |         147 |
|       9 | 0xFFFE98D8  |  4294875352 |
|      10 | 0xFFFE9A6E  |  4294875758 |
|      11 | 0xFFFFF79B  |  4294965147 |
|      12 | 0x0731      |        1841 |
|      13 | 0xFFFE8636  |  4294870582 |
|      14 | 0xFFFE7B33  |  4294867763 |
|      15 | 0xFFFFF79A  |  4294965146 |
|      16 | 0x04AF      |        1199 |
|      17 | 0x0005      |           5 |
|      18 | 0xFFFE8DDE  |  4294872542 |
|      19 | 0xFFFE9A53  |  4294875731 |
|      20 | 0xFFFFF770  |  4294965104 |
|      21 | 0x0470      |        1136 |
|      22 | 0x0006      |           6 |
|      23 | 0xFFFE8BB6  |  4294871990 |
|      24 | 0xFFFE9ABB  |  4294875835 |
|      25 | 0xFFFFF773  |  4294965107 |
|      26 | 0x0072      |         114 |
|      27 | 0x001F      |          31 |
|      28 | 0x007F      |         127 |
|      29 | 0x0382      |         898 |
|      30 | 0x1FD2      |        8146 |
|      31 | 0x003C      |          60 |
|      32 | 0x1FD3      |        8147 |
|      33 | 0x000A      |          10 |
|      34 | 0x1FD4      |        8148 |
|      35 | 0x1FD5      |        8149 |
|      36 | 0x0CE6      |        3302 |
|      37 | 0x1FD6      |        8150 |
|      38 | 0x1FD7      |        8151 |
|      39 | 0x1FD8      |        8152 |
|      40 | 0x1FD9      |        8153 |
|      41 | 0x1FDA      |        8154 |
|      42 | 0x1FDB      |        8155 |
|      43 | 0x1FDC      |        8156 |
|      44 | 0x0708      |        1800 |
|      45 | 0x1FDD      |        8157 |
|      46 | 0x1FDE      |        8158 |
|      47 | 0x1FDF      |        8159 |
|      48 | 0x1FE0      |        8160 |
|      49 | 0x1FE1      |        8161 |
|      50 | 0x1FE2      |        8162 |
|      51 | 0x1FE3      |        8163 |
|      52 | 0x1FE4      |        8164 |
|      53 | 0x1FE5      |        8165 |
|      54 | 0x1FE6      |        8166 |
|      55 | 0x0007      |           7 |
|      56 | 0x005A      |          90 |
|      57 | 0x1FE8      |        8168 |
|      58 | 0x1FE9      |        8169 |
|      59 | 0x1FEA      |        8170 |
|      60 | 0x0014      |          20 |
|      61 | 0x1FEB      |        8171 |
|      62 | 0x1FEC      |        8172 |
|      63 | 0x1FED      |        8173 |
|      64 | 0x012C      |         300 |
|      65 | 0x1FE7      |        8167 |
|      66 | 0x003F      |          63 |
|      67 | 0x000F      |          15 |
|      68 | 0x0019      |          25 |
|      69 | 0x1FF1      |        8177 |
|      70 | 0x1FF2      |        8178 |
|      71 | 0x1FF3      |        8179 |
|      72 | 0x1FF4      |        8180 |
|      73 | 0x1FF5      |        8181 |
|      74 | 0x1FF6      |        8182 |
|      75 | 0x1FF7      |        8183 |
|      76 | 0x1FF8      |        8184 |
|      77 | 0x1FF9      |        8185 |
|      78 | 0x1FFA      |        8186 |
|      79 | 0x1FFB      |        8187 |
|      80 | 0x1FFC      |        8188 |
|      81 | 0x1FFD      |        8189 |
|      82 | 0x1FFE      |        8190 |
|      83 | 0x1FFF      |        8191 |
|      84 | 0x2000      |        8192 |
|      85 | 0x2001      |        8193 |
|      86 | 0x01FE      |         510 |
|      87 | 0x0200      |         512 |
|      88 | 0x0027      |          39 |
|      89 | 0x1FEE      |        8174 |
|      90 | 0x1FEF      |        8175 |
|      91 | 0x1FF0      |        8176 |
|      92 | 0x0204      |         516 |
|      93 | 0x2002      |        8194 |
|      94 | 0x2003      |        8195 |
|      95 | 0x2004      |        8196 |
|      96 | 0xFFFE5CDC  |  4294859996 |
|      97 | 0xFFFE79E8  |  4294867432 |
|      98 | 0xFFFFF574  |  4294964596 |
|      99 | 0x0530      |        1328 |
|     100 | 0xFFFE56E3  |  4294858467 |
|     101 | 0xFFFE7762  |  4294866786 |
|     102 | 0x000E      |          14 |
|     103 | 0xFFFE56CD  |  4294858445 |
|     104 | 0xFFFE7DA4  |  4294868388 |
|     105 | 0x088D      |        2189 |
|     106 | 0xFFFE5A60  |  4294859360 |
|     107 | 0xFFFE7619  |  4294866457 |
|     108 | 0xFFFFF3B2  |  4294964146 |
|     109 | 0x013C      |         316 |
|     110 | 0xFFFF185E  |  4294907998 |
|     111 | 0xFFFFD13C  |  4294955324 |
|     112 | 0x2F3A      |       12090 |
|     113 | 0x0AC3      |        2755 |
|     114 | 0xFFFF15B3  |  4294907315 |
|     115 | 0xFFFFCA2F  |  4294953519 |
|     116 | 0x2FF8      |       12280 |
|     117 | 0x0C33      |        3123 |
|     118 | 0xFFFF1716  |  4294907670 |
|     119 | 0xFFFFE42E  |  4294960174 |
|     120 | 0x2F57      |       12119 |
|     121 | 0x03D2      |         978 |
|     122 | 0x09C4      |        2500 |
|     123 | 0x2005      |        8197 |
|     124 | 0xFFFE6F0E  |  4294864654 |
|     125 | 0xFFFE8B37  |  4294871863 |
|     126 | 0x0867      |        2151 |
|     127 | 0x0078      |         120 |
|     128 | 0x2006      |        8198 |
|     129 | 0x2007      |        8199 |
|     130 | 0x2008      |        8200 |
|     131 | 0x2009      |        8201 |
|     132 | 0x200A      |        8202 |
|     133 | 0x0FAA      |        4010 |
|     134 | 0x200B      |        8203 |
|     135 | 0x0050      |          80 |
|     136 | 0x200C      |        8204 |
|     137 | 0x200D      |        8205 |
|     138 | 0x200E      |        8206 |
|     139 | 0x200F      |        8207 |
|     140 | 0x001B      |          27 |
|     141 | 0x1C60      |        7264 |
|     142 | 0xFFFFFF16  |  4294967062 |
|     143 | 0x07D0      |        2000 |
|     144 | 0x03E8      |        1000 |
|     145 | 0x00A0      |         160 |
|     146 | 0x0064      |         100 |
|     147 | 0x2010      |        8208 |
|     148 | 0x2011      |        8209 |
|     149 | 0x015E      |         350 |
|     150 | 0x2012      |        8210 |
|     151 | 0x2013      |        8211 |
|     152 | 0x2014      |        8212 |
|     153 | 0x2015      |        8213 |
|     154 | 0x2016      |        8214 |
|     155 | 0x2017      |        8215 |
|     156 | 0x00AA      |         170 |
|     157 | 0x0011      |          17 |
|     158 | 0x0008      |           8 |
|     159 | 0xFFFF3ABE  |  4294916798 |
|     160 | 0xFFFFB68A  |  4294948490 |
|     161 | 0x2EF8      |       12024 |
|     162 | 0x03D0      |         976 |
|     163 | 0xFFFF4A61  |  4294920801 |
|     164 | 0xFFFFAFE3  |  4294946787 |
|     165 | 0x2F4C      |       12108 |
|     166 | 0xFFFF1682  |  4294907522 |
|     167 | 0xFFFFD8CD  |  4294957261 |
|     168 | 0x2F1B      |       12059 |
|     169 | 0x2EE0      |       12000 |
|     170 | 0x2018      |        8216 |
|     171 | 0x0015      |          21 |
|     172 | 0x2019      |        8217 |
|     173 | 0x201A      |        8218 |
|     174 | 0x02D8      |         728 |
|     175 | 0xFFFE5F57  |  4294860631 |
|     176 | 0xFFFE8437  |  4294870071 |
|     177 | 0x0080      |         128 |
|     178 | 0x201B      |        8219 |
|     179 | 0x201C      |        8220 |
|     180 | 0x201D      |        8221 |
|     181 | 0x201E      |        8222 |
|     182 | 0x201F      |        8223 |
|     183 | 0x2020      |        8224 |
|     184 | 0x2021      |        8225 |
|     185 | 0xFFFF1948  |  4294908232 |
|     186 | 0x018D      |         397 |
|     187 | 0x2EDF      |       11999 |
|     188 | 0xFFFF0B8D  |  4294904717 |
|     189 | 0xFFFFFA26  |  4294965798 |
|     190 | 0x2E2E      |       11822 |
|     191 | 0xFFFF1150  |  4294906192 |
|     192 | 0x16D3      |        5843 |
|     193 | 0x2D3D      |       11581 |
|     194 | 0x00C4      |         196 |
|     195 | 0x2022      |        8226 |
|     196 | 0x2023      |        8227 |
|     197 | 0x0092      |         146 |
|     198 | 0x2024      |        8228 |
|     199 | 0x2025      |        8229 |
|     200 | 0x0032      |          50 |
|     201 | 0x2026      |        8230 |
|     202 | 0xFFFE5DAC  |  4294860204 |
|     203 | 0xFFFE828E  |  4294869646 |
|     204 | 0x0499      |        1177 |
|     205 | 0x2027      |        8231 |
|     206 | 0x2028      |        8232 |
|     207 | 0x2029      |        8233 |
|     208 | 0x202A      |        8234 |
|     209 | 0x202B      |        8235 |
|     210 | 0x202C      |        8236 |
|     211 | 0x202D      |        8237 |
|     212 | 0x202E      |        8238 |
|     213 | 0x202F      |        8239 |
|     214 | 0x2030      |        8240 |
|     215 | 0x2031      |        8241 |
|     216 | 0x2032      |        8242 |
|     217 | 0x2033      |        8243 |
|     218 | 0x2034      |        8244 |
|     219 | 0x2035      |        8245 |
|     220 | 0x2036      |        8246 |
|     221 | 0x0210      |         528 |
|     222 | 0x2037      |        8247 |
|     223 | 0x0212      |         530 |
|     224 | 0x2038      |        8248 |
|     225 | 0x2039      |        8249 |
|     226 | 0x021E      |         542 |
|     227 | 0x203A      |        8250 |
|     228 | 0x203B      |        8251 |
|     229 | 0x203C      |        8252 |
|     230 | 0x203D      |        8253 |
|     231 | 0x0220      |         544 |
|     232 | 0x203E      |        8254 |
|     233 | 0x4B0A      |       19210 |
|     234 | 0x203F      |        8255 |
|     235 | 0x2040      |        8256 |
|     236 | 0x0228      |         552 |
|     237 | 0x2041      |        8257 |
|     238 | 0x2042      |        8258 |
|     239 | 0x2043      |        8259 |
|     240 | 0x2044      |        8260 |
|     241 | 0x2045      |        8261 |

## String References

- **7264**: @@
- **8166**: Accept Oshasha's request? [Yes./Not now.]

## Events

### Event 65535

#### Metadata

| Field        | Value     |
|--------------|-----------|
| Entrypoint   | 0x0000    |
| Data Size    | 658 bytes |
| Instructions | 1         |

```
      00 01 02 03 04 05 06 07  08 09 0A 0B 0C 0D 0E 0F
      -- -- -- -- -- -- -- --  -- -- -- -- -- -- -- --
0000: 00 45 00 80 F0 FF FF 7F  F0 FF FF 7F 66 64 69 30  .E..........fdi0
0010: 01 80 55 00 80 F0 FF FF  7F F0 FF FF 7F 66 64 69  ..U..........fdi
0020: 30 1B 45 00 80 F0 FF FF  7F F0 FF FF 7F 66 64 6F  0.E..........fdo
0030: 30 01 80 55 00 80 F0 FF  FF 7F F0 FF FF 7F 66 64  0..U..........fd
0040: 6F 30 1B 45 00 80 F0 FF  FF 7F F0 FF FF 7F 66 64  o0.E..........fd
0050: 69 31 01 80 55 00 80 F0  FF FF 7F F0 FF FF 7F 66  i1..U..........f
0060: 64 69 31 1B 45 00 80 F0  FF FF 7F F0 FF FF 7F 66  di1.E..........f
0070: 64 6F 31 01 80 55 00 80  F0 FF FF 7F F0 FF FF 7F  do1..U..........
0080: 66 64 6F 31 1B 45 02 80  F0 FF FF 7F F0 FF FF 7F  fdo1.E..........
0090: 77 68 69 31 01 80 55 02  80 F0 FF FF 7F F0 FF FF  whi1..U.........
00A0: 7F 77 68 69 31 1B 45 02  80 F0 FF FF 7F F0 FF FF  .whi1.E.........
00B0: 7F 77 68 6F 31 01 80 55  02 80 F0 FF FF 7F F0 FF  .who1..U........
00C0: FF 7F 77 68 6F 31 1B 45  02 80 F0 FF FF 7F F0 FF  ..who1.E........
00D0: FF 7F 77 68 6F 32 01 80  55 02 80 F0 FF FF 7F F0  ..who2..U.......
00E0: FF FF 7F 77 68 6F 32 1B  45 02 80 F0 FF FF 7F F0  ...who2.E.......
00F0: FF FF 7F 77 68 6F 33 01  80 55 02 80 F0 FF FF 7F  ...who3..U......
0100: F0 FF FF 7F 77 68 6F 33  1B 62 03 80 F0 FF FF 7F  ....who3.b......
0110: F0 FF FF 7F 6D 61 69 6E  01 80 1C 04 80 45 00 80  ....main.....E..
0120: F0 FF FF 7F F0 FF FF 7F  66 64 6F 31 01 80 55 00  ........fdo1..U.
0130: 80 F0 FF FF 7F F0 FF FF  7F 66 64 6F 31 1B 45 00  .........fdo1.E.
0140: 80 F0 FF FF 7F F0 FF FF  7F 66 64 69 31 01 80 62  .........fdi1..b
0150: 05 80 F0 FF FF 7F F0 FF  FF 7F 6D 61 69 6E 01 80  ..........main..
0160: 1C 06 80 55 00 80 F0 FF  FF 7F F0 FF FF 7F 66 64  ...U..........fd
0170: 69 31 1B 45 00 80 F0 FF  FF 7F F0 FF FF 7F 62 6C  i1.E..........bl
0180: 6F 6E 01 80 45 02 80 F0  FF FF 7F F0 FF FF 7F 62  on..E..........b
0190: 6C 6F 6E 01 80 1B 45 02  80 F0 FF FF 7F F0 FF FF  lon...E.........
01A0: 7F 77 68 69 30 01 80 55  02 80 F0 FF FF 7F F0 FF  .whi0..U........
01B0: FF 7F 77 68 69 30 1B 45  02 80 F0 FF FF 7F F0 FF  ..whi0.E........
01C0: FF 7F 77 68 6F 30 01 80  55 02 80 F0 FF FF 7F F0  ..who0..U.......
01D0: FF FF 7F 77 68 6F 30 1B  45 07 80 F0 FF FF 7F F0  ...who0.E.......
01E0: FF FF 7F 65 66 6F 6E 01  80 55 07 80 F0 FF FF 7F  ...efon..U......
01F0: F0 FF FF 7F 65 66 6F 6E  1B 45 00 80 F0 FF FF 7F  ....efon.E......
0200: F0 FF FF 7F 66 64 69 73  01 80 1B 45 00 80 F0 FF  ....fdis...E....
0210: FF 7F F0 FF FF 7F 66 64  6F 73 01 80 55 00 80 F0  ......fdos..U...
0220: FF FF 7F F0 FF FF 7F 66  64 6F 73 1B 45 00 80 F0  .......fdos.E...
0230: FF FF 7F F0 FF FF 7F 66  64 69 66 01 80 1B 45 00  .......fdif...E.
0240: 80 F0 FF FF 7F F0 FF FF  7F 66 64 6F 66 01 80 55  .........fdof..U
0250: 00 80 F0 FF FF 7F F0 FF  FF 7F 66 64 6F 66 1B 45  ..........fdof.E
0260: 00 80 F0 FF FF 7F F0 FF  FF 7F 66 64 69 70 01 80  ..........fdip..
0270: 1B 45 00 80 F0 FF FF 7F  F0 FF FF 7F 66 64 6F 70  .E..........fdop
0280: 01 80 55 00 80 F0 FF FF  7F F0 FF FF 7F 66 64 6F  ..U..........fdo
0290: 70 1B                                             p.              
```

#### Opcodes

```
  0: 0x0000 [0x00] END_REQSTACK()
```

#### Data or dead code:

```
# Dead code (unreachable instructions):
     0x0001 [0x45] LOAD_SCHEDULED_TASK: Load scheduler "fdi0" with entities [LocalPlayer, LocalPlayer], work=[200*, 0*]
     0x0012 [0x55] WAIT_LOAD_SCHEDULER: Wait for scheduler "fdi0" with entities [LocalPlayer, LocalPlayer], work=200*
     0x0021 [0x1B] RETURN
     0x0022 [0x45] LOAD_SCHEDULED_TASK: Load scheduler "fdo0" with entities [LocalPlayer, LocalPlayer], work=[200*, 0*]
     0x0033 [0x55] WAIT_LOAD_SCHEDULER: Wait for scheduler "fdo0" with entities [LocalPlayer, LocalPlayer], work=200*
     0x0042 [0x1B] RETURN
     0x0043 [0x45] LOAD_SCHEDULED_TASK: Load scheduler "fdi1" with entities [LocalPlayer, LocalPlayer], work=[200*, 0*]
     0x0054 [0x55] WAIT_LOAD_SCHEDULER: Wait for scheduler "fdi1" with entities [LocalPlayer, LocalPlayer], work=200*
     0x0063 [0x1B] RETURN
     0x0064 [0x45] LOAD_SCHEDULED_TASK: Load scheduler "fdo1" with entities [LocalPlayer, LocalPlayer], work=[200*, 0*]
     0x0075 [0x55] WAIT_LOAD_SCHEDULER: Wait for scheduler "fdo1" with entities [LocalPlayer, LocalPlayer], work=200*
     0x0084 [0x1B] RETURN
     0x0085 [0x45] LOAD_SCHEDULED_TASK: Load scheduler "whi1" with entities [LocalPlayer, LocalPlayer], work=[201*, 0*]
     0x0096 [0x55] WAIT_LOAD_SCHEDULER: Wait for scheduler "whi1" with entities [LocalPlayer, LocalPlayer], work=201*
     0x00A5 [0x1B] RETURN
     0x00A6 [0x45] LOAD_SCHEDULED_TASK: Load scheduler "who1" with entities [LocalPlayer, LocalPlayer], work=[201*, 0*]
     0x00B7 [0x55] WAIT_LOAD_SCHEDULER: Wait for scheduler "who1" with entities [LocalPlayer, LocalPlayer], work=201*
     0x00C6 [0x1B] RETURN
     0x00C7 [0x45] LOAD_SCHEDULED_TASK: Load scheduler "who2" with entities [LocalPlayer, LocalPlayer], work=[201*, 0*]
     0x00D8 [0x55] WAIT_LOAD_SCHEDULER: Wait for scheduler "who2" with entities [LocalPlayer, LocalPlayer], work=201*
     0x00E7 [0x1B] RETURN
     0x00E8 [0x45] LOAD_SCHEDULED_TASK: Load scheduler "who3" with entities [LocalPlayer, LocalPlayer], work=[201*, 0*]
     0x00F9 [0x55] WAIT_LOAD_SCHEDULER: Wait for scheduler "who3" with entities [LocalPlayer, LocalPlayer], work=201*
     0x0108 [0x1B] RETURN
     0x0109 [0x62] LOAD_EVENT_SCHEDULER: Load scheduler "main" with entities [LocalPlayer, LocalPlayer], work=[1*, 0*]
     0x011A [0x1C] WAIT(45* ticks)
     0x011D [0x45] LOAD_SCHEDULED_TASK: Load scheduler "fdo1" with entities [LocalPlayer, LocalPlayer], work=[200*, 0*]
     0x012E [0x55] WAIT_LOAD_SCHEDULER: Wait for scheduler "fdo1" with entities [LocalPlayer, LocalPlayer], work=200*
     0x013D [0x1B] RETURN
     0x013E [0x45] LOAD_SCHEDULED_TASK: Load scheduler "fdi1" with entities [LocalPlayer, LocalPlayer], work=[200*, 0*]
     0x014F [0x62] LOAD_EVENT_SCHEDULER: Load scheduler "main" with entities [LocalPlayer, LocalPlayer], work=[2*, 0*]
     0x0160 [0x1C] WAIT(30* ticks)
     0x0163 [0x55] WAIT_LOAD_SCHEDULER: Wait for scheduler "fdi1" with entities [LocalPlayer, LocalPlayer], work=200*
     0x0172 [0x1B] RETURN
     0x0173 [0x45] LOAD_SCHEDULED_TASK: Load scheduler "blon" with entities [LocalPlayer, LocalPlayer], work=[200*, 0*]
     0x0184 [0x45] LOAD_SCHEDULED_TASK: Load scheduler "blon" with entities [LocalPlayer, LocalPlayer], work=[201*, 0*]
     0x0195 [0x1B] RETURN
     0x0196 [0x45] LOAD_SCHEDULED_TASK: Load scheduler "whi0" with entities [LocalPlayer, LocalPlayer], work=[201*, 0*]
     0x01A7 [0x55] WAIT_LOAD_SCHEDULER: Wait for scheduler "whi0" with entities [LocalPlayer, LocalPlayer], work=201*
     0x01B6 [0x1B] RETURN
     0x01B7 [0x45] LOAD_SCHEDULED_TASK: Load scheduler "who0" with entities [LocalPlayer, LocalPlayer], work=[201*, 0*]
     0x01C8 [0x55] WAIT_LOAD_SCHEDULER: Wait for scheduler "who0" with entities [LocalPlayer, LocalPlayer], work=201*
     0x01D7 [0x1B] RETURN
     0x01D8 [0x45] LOAD_SCHEDULED_TASK: Load scheduler "efon" with entities [LocalPlayer, LocalPlayer], work=[215*, 0*]
     0x01E9 [0x55] WAIT_LOAD_SCHEDULER: Wait for scheduler "efon" with entities [LocalPlayer, LocalPlayer], work=215*
     0x01F8 [0x1B] RETURN
     0x01F9 [0x45] LOAD_SCHEDULED_TASK: Load scheduler "fdis" with entities [LocalPlayer, LocalPlayer], work=[200*, 0*]
     0x020A [0x1B] RETURN
     0x020B [0x45] LOAD_SCHEDULED_TASK: Load scheduler "fdos" with entities [LocalPlayer, LocalPlayer], work=[200*, 0*]
     0x021C [0x55] WAIT_LOAD_SCHEDULER: Wait for scheduler "fdos" with entities [LocalPlayer, LocalPlayer], work=200*
     0x022B [0x1B] RETURN
     0x022C [0x45] LOAD_SCHEDULED_TASK: Load scheduler "fdif" with entities [LocalPlayer, LocalPlayer], work=[200*, 0*]
     0x023D [0x1B] RETURN
     0x023E [0x45] LOAD_SCHEDULED_TASK: Load scheduler "fdof" with entities [LocalPlayer, LocalPlayer], work=[200*, 0*]
     0x024F [0x55] WAIT_LOAD_SCHEDULER: Wait for scheduler "fdof" with entities [LocalPlayer, LocalPlayer], work=200*
     0x025E [0x1B] RETURN
     0x025F [0x45] LOAD_SCHEDULED_TASK: Load scheduler "fdip" with entities [LocalPlayer, LocalPlayer], work=[200*, 0*]
     0x0270 [0x1B] RETURN
     0x0271 [0x45] LOAD_SCHEDULED_TASK: Load scheduler "fdop" with entities [LocalPlayer, LocalPlayer], work=[200*, 0*]
     0x0282 [0x55] WAIT_LOAD_SCHEDULER: Wait for scheduler "fdop" with entities [LocalPlayer, LocalPlayer], work=200*
     0x0291 [0x1B] RETURN
```

### Event 43

#### Metadata

| Field        | Value      |
|--------------|------------|
| Entrypoint   | 0x0292     |
| Data Size    | 2280 bytes |
| Instructions | 317        |

```
      00 01 02 03 04 05 06 07  08 09 0A 0B 0C 0D 0E 0F
      -- -- -- -- -- -- -- --  -- -- -- -- -- -- -- --
0290:       42 1A 64 00 46 01  38 08 80 2F 00 22 C0 11    B.d.F.8../."..
02A0: 01 4E 00 22 C0 11 01 92  01 0F C0 11 01 94 01 0F  .N."............
02B0: C0 11 01 94 01 22 C0 11  01 94 01 F0 FF FF 7F BA  ....."..........
02C0: 0F C0 11 01 09 80 0A 80  0B 80 0C 80 BA 22 C0 11  ............."..
02D0: 01 0D 80 0E 80 0F 80 10  80 29 0F F0 FF FF 7F 17  .........)......
02E0: 02 09 10 11 80 00 F8 02  BA F0 FF FF 7F 12 80 13  ................
02F0: 80 14 80 15 80 01 1D 03  02 09 10 16 80 00 10 03  ................
0300: BA F0 FF FF 7F 12 80 13  80 14 80 15 80 01 1D 03  ................
0310: BA F0 FF FF 7F 17 80 18  80 19 80 1A 80 80 0F C0  ................
0320: 11 01 80 22 C0 11 01 29  0F 0F C0 11 01 23 4A 22  ..."...).....#J"
0330: C0 11 01 F0 FF FF 7F 4A  F0 FF FF 7F 0F C0 11 01  .......J........
0340: 4A 0F C0 11 01 F0 FF FF  7F 6F 76 0F C0 11 01 6F  J........ov....o
0350: 76 F0 FF FF 7F 6F 76 22  C0 11 01 5C 00 1B 80 5C  v....ov"...\...\
0360: 01 1B 80 9A 5D 1C 80 03  80 45 1D 80 F8 FF FF 7F  ....]....E......
0370: F8 FF FF 7F 73 30 30 30  01 80 1A 43 00 2B 0F C0  ....s000...C.+..
0380: 11 01 1E 80 23 29 0F 0F  C0 11 01 24 29 0F 22 C0  ....#).....$).".
0390: 11 01 3A 1C 1F 80 52 1D  80 F8 FF FF 7F F8 FF FF  ..:...R.........
03A0: 7F 73 30 30 30 45 1D 80  F8 FF FF 7F F8 FF FF 7F  .s000E..........
03B0: 73 30 30 31 01 80 29 0F  0F C0 11 01 25 2B 22 C0  s001..).....%+".
03C0: 11 01 20 80 1C 21 80 4A  F0 FF FF 7F 22 C0 11 01  .. ..!.J...."...
03D0: 1C 21 80 4A 0F C0 11 01  22 C0 11 01 6F 76 F0 FF  .!.J...."...ov..
03E0: FF 7F 29 0F 22 C0 11 01  3B 29 0F 0F C0 11 01 26  ..)."...;).....&
03F0: 27 0F 22 C0 11 01 60 1C  1F 80 52 1D 80 F8 FF FF  '."...`...R.....
0400: 7F F8 FF FF 7F 73 30 30  31 45 1D 80 F8 FF FF 7F  .....s001E......
0410: F8 FF FF 7F 73 30 30 32  01 80 2A 0F 22 C0 11 01  ....s002..*."...
0420: 7B 22 C0 11 01 29 0F 22  C0 11 01 24 2B 22 C0 11  {"...)."...$+"..
0430: 01 22 80 23 29 0F 22 C0  11 01 25 6F 76 0F C0 11  .".#)."...%ov...
0440: 01 52 1D 80 F8 FF FF 7F  F8 FF FF 7F 73 30 30 32  .R..........s002
0450: 45 1D 80 F8 FF FF 7F F8  FF FF 7F 73 30 30 33 01  E..........s003.
0460: 80 79 00 22 C0 11 01 F0  FF FF 7F 27 0F 22 C0 11  .y.".......'."..
0470: 01 61 2B 22 C0 11 01 23  80 23 4A F0 FF FF 7F 22  .a+"...#.#J...."
0480: C0 11 01 03 03 10 24 80  2B 22 C0 11 01 25 80 23  ......$.+"...%.#
0490: 6F 76 F0 FF FF 7F 2A 0F  22 C0 11 01 52 1D 80 F8  ov....*."...R...
04A0: FF FF 7F F8 FF FF 7F 73  30 30 33 45 1D 80 F8 FF  .......s003E....
04B0: FF 7F F8 FF FF 7F 73 30  30 34 01 80 2B 22 C0 11  ......s004..+"..
04C0: 01 26 80 23 4A F0 FF FF  7F 22 C0 11 01 2B 22 C0  .&.#J...."...+".
04D0: 11 01 27 80 23 6F 76 F0  FF FF 7F 52 1D 80 F8 FF  ..'.#ov....R....
04E0: FF 7F F8 FF FF 7F 73 30  30 34 02 09 10 11 80 00  ......s004......
04F0: 0B 05 45 1D 80 F8 FF FF  7F F8 FF FF 7F 73 30 31  ..E..........s01
0500: 36 01 80 7B 22 C0 11 01  01 3D 05 02 09 10 16 80  6..{"....=......
0510: 00 2C 05 45 1D 80 F8 FF  FF 7F F8 FF FF 7F 73 30  .,.E..........s0
0520: 31 36 01 80 7B 22 C0 11  01 01 3D 05 45 1D 80 F8  16..{"....=.E...
0530: FF FF 7F F8 FF FF 7F 73  30 30 35 01 80 29 0F 22  .......s005..)."
0540: C0 11 01 1A 2B 22 C0 11  01 28 80 23 2B 22 C0 11  ....+"...(.#+"..
0550: 01 29 80 23 27 0F 22 C0  11 01 1B 02 09 10 11 80  .).#'.".........
0560: 00 75 05 52 1D 80 F8 FF  FF 7F F8 FF FF 7F 73 30  .u.R..........s0
0570: 31 36 01 9E 05 02 09 10  16 80 00 8F 05 52 1D 80  16...........R..
0580: F8 FF FF 7F F8 FF FF 7F  73 30 31 36 01 9E 05 52  ........s016...R
0590: 1D 80 F8 FF FF 7F F8 FF  FF 7F 73 30 30 35 45 1D  ..........s005E.
05A0: 80 F8 FF FF 7F F8 FF FF  7F 73 30 30 36 01 80 2B  .........s006..+
05B0: 22 C0 11 01 2A 80 23 2A  0F 22 C0 11 01 2B 22 C0  "...*.#*."...+".
05C0: 11 01 2B 80 23 52 1D 80  F8 FF FF 7F F8 FF FF 7F  ..+.#R..........
05D0: 73 30 30 36 02 09 10 11  80 00 F0 05 45 1D 80 F8  s006........E...
05E0: FF FF 7F F8 FF FF 7F 73  30 31 37 01 80 01 1D 06  .......s017.....
05F0: 02 09 10 16 80 00 0C 06  45 1D 80 F8 FF FF 7F F8  ........E.......
0600: FF FF 7F 73 30 31 37 01  80 01 1D 06 45 1D 80 F8  ...s017.....E...
0610: FF FF 7F F8 FF FF 7F 73  30 30 37 01 80 7B 22 C0  .......s007..{".
0620: 11 01 4B 22 C0 11 01 2C  80 6F 76 22 C0 11 01 29  ..K"...,.ov"...)
0630: 0F 22 C0 11 01 3E 2B 22  C0 11 01 2D 80 23 29 0F  ."...>+"...-.#).
0640: 22 C0 11 01 3F 02 09 10  11 80 00 5F 06 52 1D 80  "...?......_.R..
0650: F8 FF FF 7F F8 FF FF 7F  73 30 31 37 01 88 06 02  ........s017....
0660: 09 10 16 80 00 79 06 52  1D 80 F8 FF FF 7F F8 FF  .....y.R........
0670: FF 7F 73 30 31 37 01 88  06 52 1D 80 F8 FF FF 7F  ..s017...R......
0680: F8 FF FF 7F 73 30 30 37  45 1D 80 F8 FF FF 7F F8  ....s007E.......
0690: FF FF 7F 73 30 30 38 01  80 29 0F 22 C0 11 01 40  ...s008..)."...@
06A0: 03 03 10 24 80 2B 22 C0  11 01 2E 80 29 0F 22 C0  ...$.+".....).".
06B0: 11 01 41 4A 22 C0 11 01  F0 FF FF 7F 6F 76 22 C0  ..AJ".......ov".
06C0: 11 01 02 09 10 11 80 00  D2 06 7B 22 C0 11 01 01  ..........{"....
06D0: DF 06 02 09 10 16 80 00  DF 06 7B 22 C0 11 01 23  ..........{"...#
06E0: 29 0F 22 C0 11 01 1A 03  03 10 24 80 2B 22 C0 11  ).".......$.+"..
06F0: 01 2F 80 23 52 1D 80 F8  FF FF 7F F8 FF FF 7F 73  ./.#R..........s
0700: 30 30 38 45 1D 80 F8 FF  FF 7F F8 FF FF 7F 73 30  008E..........s0
0710: 30 39 01 80 2B 22 C0 11  01 30 80 23 27 0F 22 C0  09..+"...0.#'.".
0720: 11 01 1B 03 03 10 24 80  2B 22 C0 11 01 31 80 23  ......$.+"...1.#
0730: 2A 0F 22 C0 11 01 52 1D  80 F8 FF FF 7F F8 FF FF  *."...R.........
0740: 7F 73 30 30 39 02 09 10  11 80 00 61 07 45 1D 80  .s009......a.E..
0750: F8 FF FF 7F F8 FF FF 7F  73 30 31 38 01 80 01 8E  ........s018....
0760: 07 02 09 10 16 80 00 7D  07 45 1D 80 F8 FF FF 7F  .......}.E......
0770: F8 FF FF 7F 73 30 31 38  01 80 01 8E 07 45 1D 80  ....s018.....E..
0780: F8 FF FF 7F F8 FF FF 7F  73 30 31 30 01 80 27 0F  ........s010..'.
0790: 22 C0 11 01 49 2B 22 C0  11 01 32 80 23 2A 0F 22  "...I+"...2.#*."
07A0: C0 11 01 29 0F 22 C0 11  01 1C 2B 22 C0 11 01 33  ...)."....+"...3
07B0: 80 23 29 0F 22 C0 11 01  1D 02 09 10 11 80 00 D3  .#)."...........
07C0: 07 52 1D 80 F8 FF FF 7F  F8 FF FF 7F 73 30 31 38  .R..........s018
07D0: 01 FC 07 02 09 10 16 80  00 ED 07 52 1D 80 F8 FF  ...........R....
07E0: FF 7F F8 FF FF 7F 73 30  31 38 01 FC 07 52 1D 80  ......s018...R..
07F0: F8 FF FF 7F F8 FF FF 7F  73 30 31 30 02 09 10 11  ........s010....
0800: 80 00 18 08 45 1D 80 F8  FF FF 7F F8 FF FF 7F 73  ....E..........s
0810: 30 31 39 01 80 01 45 08  02 09 10 16 80 00 34 08  019...E.......4.
0820: 45 1D 80 F8 FF FF 7F F8  FF FF 7F 73 30 31 39 01  E..........s019.
0830: 80 01 45 08 45 1D 80 F8  FF FF 7F F8 FF FF 7F 73  ..E.E..........s
0840: 30 31 31 01 80 29 0F 22  C0 11 01 1E 2B 22 C0 11  011..)."....+"..
0850: 01 34 80 23 29 0F 22 C0  11 01 1F 29 0F 22 C0 11  .4.#)."....)."..
0860: 01 24 2B 22 C0 11 01 35  80 23 24 36 80 01 80 01  .$+"...5.#$6....
0870: 80 25 02 00 10 01 80 00  4E 0A 6E F0 FF FF 7F 37  .%......N.n....7
0880: 80 99 F0 FF FF 7F 1C 38  80 29 0F 22 C0 11 01 25  .......8.)."...%
0890: 02 09 10 11 80 00 AA 08  52 1D 80 F8 FF FF 7F F8  ........R.......
08A0: FF FF 7F 73 30 31 39 01  D3 08 02 09 10 16 80 00  ...s019.........
08B0: C4 08 52 1D 80 F8 FF FF  7F F8 FF FF 7F 73 30 31  ..R..........s01
08C0: 39 01 D3 08 52 1D 80 F8  FF FF 7F F8 FF FF 7F 73  9...R..........s
08D0: 30 31 31 45 1D 80 F8 FF  FF 7F F8 FF FF 7F 73 30  011E..........s0
08E0: 31 32 01 80 29 0F 22 C0  11 01 22 2B 22 C0 11 01  12..)."..."+"...
08F0: 39 80 23 29 0F 22 C0 11  01 23 29 0F 22 C0 11 01  9.#)."...#)."...
0900: 28 03 03 10 24 80 2B 22  C0 11 01 3A 80 23 29 0F  (...$.+"...:.#).
0910: 22 C0 11 01 29 52 1D 80  F8 FF FF 7F F8 FF FF 7F  "...)R..........
0920: 73 30 31 32 45 1D 80 F8  FF FF 7F F8 FF FF 7F 73  s012E..........s
0930: 30 31 33 01 80 7B 22 C0  11 01 27 0F 22 C0 11 01  013..{"...'."...
0940: 62 1C 38 80 1C 38 80 4A  0F C0 11 01 F0 FF FF 7F  b.8..8.J........
0950: 6F 76 0F C0 11 01 1C 06  80 52 1D 80 F8 FF FF 7F  ov.......R......
0960: F8 FF FF 7F 73 30 31 33  45 1D 80 F8 FF FF 7F F8  ....s013E.......
0970: FF FF 7F 73 30 31 34 01  80 7B 0F C0 11 01 29 0F  ...s014..{....).
0980: 0F C0 11 01 27 2B 0F C0  11 01 3B 80 1C 3C 80 4A  ....'+....;..<.J
0990: F0 FF FF 7F 0F C0 11 01  6F 76 F0 FF FF 7F 23 2A  ........ov....#*
09A0: 0F 22 C0 11 01 6C 22 C0  11 01 01 80 03 80 2B 0F  ."...l".......+.
09B0: C0 11 01 3D 80 23 29 0F  0F C0 11 01 28 52 1D 80  ...=.#).....(R..
09C0: F8 FF FF 7F F8 FF FF 7F  73 30 31 34 02 09 10 11  ........s014....
09D0: 80 00 E8 09 45 1D 80 F8  FF FF 7F F8 FF FF 7F 73  ....E..........s
09E0: 30 32 30 01 80 01 15 0A  02 09 10 16 80 00 04 0A  020.............
09F0: 45 1D 80 F8 FF FF 7F F8  FF FF 7F 73 30 32 30 01  E..........s020.
0A00: 80 01 15 0A 45 1D 80 F8  FF FF 7F F8 FF FF 7F 73  ....E..........s
0A10: 30 31 35 01 80 29 0F 0F  C0 11 01 29 2B 0F C0 11  015..).....)+...
0A20: 01 3E 80 23 29 0F 0F C0  11 01 2A 29 0F 0F C0 11  .>.#).....*)....
0A30: 01 33 2B 0F C0 11 01 3F  80 23 29 0F 0F C0 11 01  .3+....?.#).....
0A40: 34 5D 01 80 40 80 03 01  10 03 80 01 F8 0A 02 00  4]..@...........
0A50: 10 03 80 00 F8 0A 6E F0  FF FF 7F 16 80 99 F0 FF  ......n.........
0A60: FF 7F 1C 38 80 29 0F 22  C0 11 01 25 02 09 10 11  ...8.)."...%....
0A70: 80 00 86 0A 52 1D 80 F8  FF FF 7F F8 FF FF 7F 73  ....R..........s
0A80: 30 31 39 01 AF 0A 02 09  10 16 80 00 A0 0A 52 1D  019...........R.
0A90: 80 F8 FF FF 7F F8 FF FF  7F 73 30 31 39 01 AF 0A  .........s019...
0AA0: 52 1D 80 F8 FF FF 7F F8  FF FF 7F 73 30 31 31 45  R..........s011E
0AB0: 1D 80 F8 FF FF 7F F8 FF  FF 7F 73 30 30 39 01 80  ..........s009..
0AC0: 7B 22 C0 11 01 4B 22 C0  11 01 01 80 6F 76 22 C0  {"...K".....ov".
0AD0: 11 01 29 0F 22 C0 11 01  3E 2B 22 C0 11 01 41 80  ..)."...>+"...A.
0AE0: 23 29 0F 22 C0 11 01 3F  03 01 10 01 80 5D 01 80  #)."...?.....]..
0AF0: 40 80 01 F8 0A 01 F8 0A  1A 64 00 52 1D 80 F8 FF  @........d.R....
0B00: FF 7F F8 FF FF 7F 73 30  30 39 02 09 10 11 80 00  ......s009......
0B10: 24 0B 52 1D 80 F8 FF FF  7F F8 FF FF 7F 73 30 32  $.R..........s02
0B20: 30 01 4D 0B 02 09 10 16  80 00 3E 0B 52 1D 80 F8  0.M.......>.R...
0B30: FF FF 7F F8 FF FF 7F 73  30 32 30 01 4D 0B 52 1D  .......s020.M.R.
0B40: 80 F8 FF FF 7F F8 FF FF  7F 73 30 31 35 5C 00 42  .........s015\.B
0B50: 80 5C 01 42 80 9A 5D 1C  80 03 80 1C 43 80 AB 11  .\.B..].....C...
0B60: 01 80 1C 03 80 46 00 45  00 80 F8 FF FF 7F F8 FF  .....F.E........
0B70: FF 7F 66 64 69 32 01 80  21 00                    ..fdi2..!.      
```

#### Opcodes

```
  0: 0x0292 [0x42] SET_CLI_EVENT_CANCEL_DATA()
  1: 0x0293 [0x1A] CALL_SUBROUTINE(address=0x0064)
  2: 0x0296 [0x46] CAMERA_CONTROL: Disable user control
  3: 0x0298 [0x38] SET_CLIENT_EVENT_MODE(mode=147*)
  4: 0x029B [0x2F] Oshasha (ID: 17940514/0x0111C022)->Render.Flags0 &= ~0x80000 // Bit 19
  5: 0x02A1 [0x4E] SET_ENTITY_HIDE_FLAG: Show Oshasha (ID: 17940514/0x0111C022)
  6: 0x02A7 [0x92] Andreine (ID: 17940495/0x0111C00F)->Render.Flags3 ^= 0x01
  7: 0x02AD [0x94] Andreine (ID: 17940495/0x0111C00F)->Render.Flags3 ^= 0x01
  8: 0x02B3 [0x94] Oshasha (ID: 17940514/0x0111C022)->Render.Flags3 ^= 0x01
  9: 0x02B9 [0x94] LocalPlayer->Render.Flags3 ^= 0x01
 10: 0x02BF [0xBA] SET_ENTITY_POSITION(entity_id=Andreine (ID: 17940495/0x0111C00F), pos_x=-91.944*, pos_z=-91.538*, pos_y=-2.149*, direction=161.8°*)
 11: 0x02CC [0xBA] SET_ENTITY_POSITION(entity_id=Oshasha (ID: 17940514/0x0111C022), pos_x=-96.714*, pos_z=-99.533*, pos_y=-2.150*, direction=105.4°*)
 12: 0x02D9 [0x29] REQ_SET_WAIT(priority=0x0F, entity_id=LocalPlayer, tag_num=0x17)
 13: 0x02E0 [0x02] IF !(Work_Zone[9] == 5*) GOTO 0x02F8
 14: 0x02E8 [0xBA] SET_ENTITY_POSITION(entity_id=LocalPlayer, pos_x=-94.754*, pos_z=-91.565*, pos_y=-2.192*, direction=99.8°*)
 15: 0x02F5 [0x01] GOTO 0x031D
 16: 0x02F8 [0x02] IF !(Work_Zone[9] == 6*) GOTO 0x0310
 17: 0x0300 [0xBA] SET_ENTITY_POSITION(entity_id=LocalPlayer, pos_x=-94.754*, pos_z=-91.565*, pos_y=-2.192*, direction=99.8°*)
 18: 0x030D [0x01] GOTO 0x031D
 19: 0x0310 [0xBA] SET_ENTITY_POSITION(entity_id=LocalPlayer, pos_x=-95.306*, pos_z=-91.461*, pos_y=-2.189*, direction=10.0°*)

SUBROUTINE_031D:
 20: 0x031D [0x80] LOAD_WAIT(entity=Andreine (ID: 17940495/0x0111C00F))
 21: 0x0322 [0x80] LOAD_WAIT(entity=Oshasha (ID: 17940514/0x0111C022))
 22: 0x0327 [0x29] REQ_SET_WAIT(priority=0x0F, entity_id=Andreine (ID: 17940495/0x0111C00F), tag_num=0x23)
 23: 0x032E [0x4A] Oshasha (ID: 17940514/0x0111C022) looks at LocalPlayer
 24: 0x0337 [0x4A] LocalPlayer looks at Andreine (ID: 17940495/0x0111C00F)
 25: 0x0340 [0x4A] Andreine (ID: 17940495/0x0111C00F) looks at LocalPlayer
 26: 0x0349 [0x6F] WAIT_FRAME_DELAY: Yield until WaitTime reaches zero
 27: 0x034A [0x76] CHECK_ENTITY_RENDER_FLAGS: Wait until Andreine (ID: 17940495/0x0111C00F) Render.Flags0 and Render.Flags3 conditions are met
 28: 0x034F [0x6F] WAIT_FRAME_DELAY: Yield until WaitTime reaches zero
 29: 0x0350 [0x76] CHECK_ENTITY_RENDER_FLAGS: Wait until LocalPlayer Render.Flags0 and Render.Flags3 conditions are met
 30: 0x0355 [0x6F] WAIT_FRAME_DELAY: Yield until WaitTime reaches zero
 31: 0x0356 [0x76] CHECK_ENTITY_RENDER_FLAGS: Wait until Oshasha (ID: 17940514/0x0111C022) Render.Flags0 and Render.Flags3 conditions are met
 32: 0x035B [0x5C] MUSIC_CONTROL: Set Idle (Day) music to song 31*
 33: 0x035F [0x5C] MUSIC_CONTROL: Set Idle (Night) music to song 31*
 34: 0x0363 [0x9A] WAIT_MUSIC_SERVER()
 35: 0x0364 [0x5D] SET_MUSIC_VOLUME(volume=127*, fade_time=1*)
 36: 0x0369 [0x45] LOAD_SCHEDULED_TASK: Load scheduler "s000" with entities [EventEntity, EventEntity], work=[898*, 0*]
 37: 0x037A [0x1A] CALL_SUBROUTINE(address=0x0043)
 38: 0x037D [0x2B] Andreine (ID: 17940495/0x0111C00F) [8146*]:
    → "Forgive me, I find myself somewhat preoccupied at the moment..."
 39: 0x0384 [0x23] WAIT_FOR_DIALOG_INTERACTION
 40: 0x0385 [0x29] REQ_SET_WAIT(priority=0x0F, entity_id=Andreine (ID: 17940495/0x0111C00F), tag_num=0x24)
 41: 0x038C [0x29] REQ_SET_WAIT(priority=0x0F, entity_id=Oshasha (ID: 17940514/0x0111C022), tag_num=0x3A)
 42: 0x0393 [0x1C] WAIT(60* ticks)
 43: 0x0396 [0x52] END_LOAD_SCHEDULER: End scheduler "s000" with entities [EventEntity, EventEntity], work=898*
 44: 0x03A5 [0x45] LOAD_SCHEDULED_TASK: Load scheduler "s001" with entities [EventEntity, EventEntity], work=[898*, 0*]
 45: 0x03B6 [0x29] REQ_SET_WAIT(priority=0x0F, entity_id=Andreine (ID: 17940495/0x0111C00F), tag_num=0x25)
 46: 0x03BD [0x2B] Oshasha (ID: 17940514/0x0111C022) [8147*]:
    → "Ah!"
 47: 0x03C4 [0x1C] WAIT(10* ticks)
 48: 0x03C7 [0x4A] LocalPlayer looks at Oshasha (ID: 17940514/0x0111C022)
 49: 0x03D0 [0x1C] WAIT(10* ticks)
 50: 0x03D3 [0x4A] Andreine (ID: 17940495/0x0111C00F) looks at Oshasha (ID: 17940514/0x0111C022)
 51: 0x03DC [0x6F] WAIT_FRAME_DELAY: Yield until WaitTime reaches zero
 52: 0x03DD [0x76] CHECK_ENTITY_RENDER_FLAGS: Wait until LocalPlayer Render.Flags0 and Render.Flags3 conditions are met
 53: 0x03E2 [0x29] REQ_SET_WAIT(priority=0x0F, entity_id=Oshasha (ID: 17940514/0x0111C022), tag_num=0x3B)
 54: 0x03E9 [0x29] REQ_SET_WAIT(priority=0x0F, entity_id=Andreine (ID: 17940495/0x0111C00F), tag_num=0x26)
 55: 0x03F0 [0x27] REQ_SET(priority=0x0F, entity_id=Oshasha (ID: 17940514/0x0111C022), tag_num=0x60)
 56: 0x03F7 [0x1C] WAIT(60* ticks)
 57: 0x03FA [0x52] END_LOAD_SCHEDULER: End scheduler "s001" with entities [EventEntity, EventEntity], work=898*
 58: 0x0409 [0x45] LOAD_SCHEDULED_TASK: Load scheduler "s002" with entities [EventEntity, EventEntity], work=[898*, 0*]
 59: 0x041A [0x2A] GET_REQ_LEVEL(level=15, entity_id=Oshasha (ID: 17940514/0x0111C022))
 60: 0x0420 [0x7B] Oshasha (ID: 17940514/0x0111C022) stops talking
 61: 0x0425 [0x29] REQ_SET_WAIT(priority=0x0F, entity_id=Oshasha (ID: 17940514/0x0111C022), tag_num=0x24)
 62: 0x042C [0x2B] Oshasha (ID: 17940514/0x0111C022) [8148*]:
    → "You are justaru the pioneer I'm looking for!"
 63: 0x0433 [0x23] WAIT_FOR_DIALOG_INTERACTION
 64: 0x0434 [0x29] REQ_SET_WAIT(priority=0x0F, entity_id=Oshasha (ID: 17940514/0x0111C022), tag_num=0x25)
 65: 0x043B [0x6F] WAIT_FRAME_DELAY: Yield until WaitTime reaches zero
 66: 0x043C [0x76] CHECK_ENTITY_RENDER_FLAGS: Wait until Andreine (ID: 17940495/0x0111C00F) Render.Flags0 and Render.Flags3 conditions are met
 67: 0x0441 [0x52] END_LOAD_SCHEDULER: End scheduler "s002" with entities [EventEntity, EventEntity], work=898*
 68: 0x0450 [0x45] LOAD_SCHEDULED_TASK: Load scheduler "s003" with entities [EventEntity, EventEntity], work=[898*, 0*]
 69: 0x0461 [0x79] Oshasha (ID: 17940514/0x0111C022) looks at LocalPlayer (Basic look)
 70: 0x046B [0x27] REQ_SET(priority=0x0F, entity_id=Oshasha (ID: 17940514/0x0111C022), tag_num=0x61)
 71: 0x0472 [0x2B] Oshasha (ID: 17940514/0x0111C022) [8149*]:
    → "Do you have a spare momentaru? I am searching for a rather unique book."
 72: 0x0479 [0x23] WAIT_FOR_DIALOG_INTERACTION
 73: 0x047A [0x4A] LocalPlayer looks at Oshasha (ID: 17940514/0x0111C022)
 74: 0x0483 [0x03] Work_Zone[3] = 3302*
 75: 0x0488 [0x2B] Oshasha (ID: 17940514/0x0111C022) [8150*]:
    → "It is a tome for internal library-wibrary use only, known as the $3."
 76: 0x048F [0x23] WAIT_FOR_DIALOG_INTERACTION
 77: 0x0490 [0x6F] WAIT_FRAME_DELAY: Yield until WaitTime reaches zero
 78: 0x0491 [0x76] CHECK_ENTITY_RENDER_FLAGS: Wait until LocalPlayer Render.Flags0 and Render.Flags3 conditions are met
 79: 0x0496 [0x2A] GET_REQ_LEVEL(level=15, entity_id=Oshasha (ID: 17940514/0x0111C022))
 80: 0x049C [0x52] END_LOAD_SCHEDULER: End scheduler "s003" with entities [EventEntity, EventEntity], work=898*
 81: 0x04AB [0x45] LOAD_SCHEDULED_TASK: Load scheduler "s004" with entities [EventEntity, EventEntity], work=[898*, 0*]
 82: 0x04BC [0x2B] Oshasha (ID: 17940514/0x0111C022) [8151*]:
    → "Not much is known about the book, including its author or the year it was written. In fact, we don't even know the reason-weason why it was in the library in the first place."
 83: 0x04C3 [0x23] WAIT_FOR_DIALOG_INTERACTION
 84: 0x04C4 [0x4A] LocalPlayer looks at Oshasha (ID: 17940514/0x0111C022)
 85: 0x04CD [0x2B] Oshasha (ID: 17940514/0x0111C022) [8152*]:
    → "Furthermore, there's a rumor-wumor that says some sort of calamity will strike those who read this mysterious book."
 86: 0x04D4 [0x23] WAIT_FOR_DIALOG_INTERACTION
 87: 0x04D5 [0x6F] WAIT_FRAME_DELAY: Yield until WaitTime reaches zero
 88: 0x04D6 [0x76] CHECK_ENTITY_RENDER_FLAGS: Wait until LocalPlayer Render.Flags0 and Render.Flags3 conditions are met
 89: 0x04DB [0x52] END_LOAD_SCHEDULER: End scheduler "s004" with entities [EventEntity, EventEntity], work=898*
 90: 0x04EA [0x02] IF !(Work_Zone[9] == 5*) GOTO 0x050B
 91: 0x04F2 [0x45] LOAD_SCHEDULED_TASK: Load scheduler "s016" with entities [EventEntity, EventEntity], work=[898*, 0*]
 92: 0x0503 [0x7B] Oshasha (ID: 17940514/0x0111C022) stops talking
 93: 0x0508 [0x01] GOTO 0x053D
 94: 0x050B [0x02] IF !(Work_Zone[9] == 6*) GOTO 0x052C
 95: 0x0513 [0x45] LOAD_SCHEDULED_TASK: Load scheduler "s016" with entities [EventEntity, EventEntity], work=[898*, 0*]
 96: 0x0524 [0x7B] Oshasha (ID: 17940514/0x0111C022) stops talking
 97: 0x0529 [0x01] GOTO 0x053D
 98: 0x052C [0x45] LOAD_SCHEDULED_TASK: Load scheduler "s005" with entities [EventEntity, EventEntity], work=[898*, 0*]

SUBROUTINE_053D:
 99: 0x053D [0x29] REQ_SET_WAIT(priority=0x0F, entity_id=Oshasha (ID: 17940514/0x0111C022), tag_num=0x1A)
100: 0x0544 [0x2B] Oshasha (ID: 17940514/0x0111C022) [8153*]:
    → "It's said that the book even possesses the power to summon-wummon demons, which is why I'm searching for this particular tome."
101: 0x054B [0x23] WAIT_FOR_DIALOG_INTERACTION
102: 0x054C [0x2B] Oshasha (ID: 17940514/0x0111C022) [8154*]:
    → "Fortunately, we know the lastaru person to have borrowed the book."
103: 0x0553 [0x23] WAIT_FOR_DIALOG_INTERACTION
104: 0x0554 [0x27] REQ_SET(priority=0x0F, entity_id=Oshasha (ID: 17940514/0x0111C022), tag_num=0x1B)
105: 0x055B [0x02] IF !(Work_Zone[9] == 5*) GOTO 0x0575
106: 0x0563 [0x52] END_LOAD_SCHEDULER: End scheduler "s016" with entities [EventEntity, EventEntity], work=898*
107: 0x0572 [0x01] GOTO 0x059E
108: 0x0575 [0x02] IF !(Work_Zone[9] == 6*) GOTO 0x058F
109: 0x057D [0x52] END_LOAD_SCHEDULER: End scheduler "s016" with entities [EventEntity, EventEntity], work=898*
110: 0x058C [0x01] GOTO 0x059E
111: 0x058F [0x52] END_LOAD_SCHEDULER: End scheduler "s005" with entities [EventEntity, EventEntity], work=898*

SUBROUTINE_059E:
112: 0x059E [0x45] LOAD_SCHEDULED_TASK: Load scheduler "s006" with entities [EventEntity, EventEntity], work=[898*, 0*]
113: 0x05AF [0x2B] Oshasha (ID: 17940514/0x0111C022) [8155*]:
    → "His name is Ghalcimus D. Adoulin--the former leader of the Order of Adoulin himself."
114: 0x05B6 [0x23] WAIT_FOR_DIALOG_INTERACTION
115: 0x05B7 [0x2A] GET_REQ_LEVEL(level=15, entity_id=Oshasha (ID: 17940514/0x0111C022))
116: 0x05BD [0x2B] Oshasha (ID: 17940514/0x0111C022) [8156*]:
    → "That's rightaru. It was none other than Arciela's father..."
117: 0x05C4 [0x23] WAIT_FOR_DIALOG_INTERACTION
118: 0x05C5 [0x52] END_LOAD_SCHEDULER: End scheduler "s006" with entities [EventEntity, EventEntity], work=898*
119: 0x05D4 [0x02] IF !(Work_Zone[9] == 5*) GOTO 0x05F0
120: 0x05DC [0x45] LOAD_SCHEDULED_TASK: Load scheduler "s017" with entities [EventEntity, EventEntity], work=[898*, 0*]
121: 0x05ED [0x01] GOTO 0x061D
122: 0x05F0 [0x02] IF !(Work_Zone[9] == 6*) GOTO 0x060C
123: 0x05F8 [0x45] LOAD_SCHEDULED_TASK: Load scheduler "s017" with entities [EventEntity, EventEntity], work=[898*, 0*]
124: 0x0609 [0x01] GOTO 0x061D
125: 0x060C [0x45] LOAD_SCHEDULED_TASK: Load scheduler "s007" with entities [EventEntity, EventEntity], work=[898*, 0*]

SUBROUTINE_061D:
126: 0x061D [0x7B] Oshasha (ID: 17940514/0x0111C022) stops talking
127: 0x0622 [0x4B] UPDATE_ENTITY_YAW(entity=Oshasha (ID: 17940514/0x0111C022), yaw=9.9°*)
128: 0x0629 [0x6F] WAIT_FRAME_DELAY: Yield until WaitTime reaches zero
129: 0x062A [0x76] CHECK_ENTITY_RENDER_FLAGS: Wait until Oshasha (ID: 17940514/0x0111C022) Render.Flags0 and Render.Flags3 conditions are met
130: 0x062F [0x29] REQ_SET_WAIT(priority=0x0F, entity_id=Oshasha (ID: 17940514/0x0111C022), tag_num=0x3E)
131: 0x0636 [0x2B] Oshasha (ID: 17940514/0x0111C022) [8157*]:
    → "Roughly five years ago, Master Ghalcimus disappeared during a survey of the forestaru and his whereabouts are still unknown."
132: 0x063D [0x23] WAIT_FOR_DIALOG_INTERACTION
133: 0x063E [0x29] REQ_SET_WAIT(priority=0x0F, entity_id=Oshasha (ID: 17940514/0x0111C022), tag_num=0x3F)
134: 0x0645 [0x02] IF !(Work_Zone[9] == 5*) GOTO 0x065F
135: 0x064D [0x52] END_LOAD_SCHEDULER: End scheduler "s017" with entities [EventEntity, EventEntity], work=898*
136: 0x065C [0x01] GOTO 0x0688
137: 0x065F [0x02] IF !(Work_Zone[9] == 6*) GOTO 0x0679
138: 0x0667 [0x52] END_LOAD_SCHEDULER: End scheduler "s017" with entities [EventEntity, EventEntity], work=898*
139: 0x0676 [0x01] GOTO 0x0688
140: 0x0679 [0x52] END_LOAD_SCHEDULER: End scheduler "s007" with entities [EventEntity, EventEntity], work=898*

SUBROUTINE_0688:
141: 0x0688 [0x45] LOAD_SCHEDULED_TASK: Load scheduler "s008" with entities [EventEntity, EventEntity], work=[898*, 0*]
142: 0x0699 [0x29] REQ_SET_WAIT(priority=0x0F, entity_id=Oshasha (ID: 17940514/0x0111C022), tag_num=0x40)
143: 0x06A0 [0x03] Work_Zone[3] = 3302*
144: 0x06A5 [0x2B] Oshasha (ID: 17940514/0x0111C022) [8158*]:
    → "It is unclear if his disappearance has anything to do with the $3 that I'm looking-wooking for."
145: 0x06AC [0x29] REQ_SET_WAIT(priority=0x0F, entity_id=Oshasha (ID: 17940514/0x0111C022), tag_num=0x41)
146: 0x06B3 [0x4A] Oshasha (ID: 17940514/0x0111C022) looks at LocalPlayer
147: 0x06BC [0x6F] WAIT_FRAME_DELAY: Yield until WaitTime reaches zero
148: 0x06BD [0x76] CHECK_ENTITY_RENDER_FLAGS: Wait until Oshasha (ID: 17940514/0x0111C022) Render.Flags0 and Render.Flags3 conditions are met
149: 0x06C2 [0x02] IF !(Work_Zone[9] == 5*) GOTO 0x06D2
150: 0x06CA [0x7B] Oshasha (ID: 17940514/0x0111C022) stops talking
151: 0x06CF [0x01] GOTO 0x06DF
152: 0x06D2 [0x02] IF !(Work_Zone[9] == 6*) GOTO 0x06DF
153: 0x06DA [0x7B] Oshasha (ID: 17940514/0x0111C022) stops talking

SUBROUTINE_06DF:
154: 0x06DF [0x23] WAIT_FOR_DIALOG_INTERACTION
155: 0x06E0 [0x29] REQ_SET_WAIT(priority=0x0F, entity_id=Oshasha (ID: 17940514/0x0111C022), tag_num=0x1A)
156: 0x06E7 [0x03] Work_Zone[3] = 3302*
157: 0x06EC [0x2B] Oshasha (ID: 17940514/0x0111C022) [8159*]:
    → "If I can find the $3 and decipher its meaning, I might be able to solve this little puzzle-wuzzle."
158: 0x06F3 [0x23] WAIT_FOR_DIALOG_INTERACTION
159: 0x06F4 [0x52] END_LOAD_SCHEDULER: End scheduler "s008" with entities [EventEntity, EventEntity], work=898*
160: 0x0703 [0x45] LOAD_SCHEDULED_TASK: Load scheduler "s009" with entities [EventEntity, EventEntity], work=[898*, 0*]
161: 0x0714 [0x2B] Oshasha (ID: 17940514/0x0111C022) [8160*]:
    → "And justaru as I was contemplating the matter, I received a useful tip from the Scouts' Coalition."
162: 0x071B [0x23] WAIT_FOR_DIALOG_INTERACTION
163: 0x071C [0x27] REQ_SET(priority=0x0F, entity_id=Oshasha (ID: 17940514/0x0111C022), tag_num=0x1B)
164: 0x0723 [0x03] Work_Zone[3] = 3302*
165: 0x0728 [0x2B] Oshasha (ID: 17940514/0x0111C022) [8161*]:
    → "They say a book resembling the $3 was spotted in the Velkk village-willage located in the Marjami Ravine."
166: 0x072F [0x23] WAIT_FOR_DIALOG_INTERACTION
167: 0x0730 [0x2A] GET_REQ_LEVEL(level=15, entity_id=Oshasha (ID: 17940514/0x0111C022))
168: 0x0736 [0x52] END_LOAD_SCHEDULER: End scheduler "s009" with entities [EventEntity, EventEntity], work=898*
169: 0x0745 [0x02] IF !(Work_Zone[9] == 5*) GOTO 0x0761
170: 0x074D [0x45] LOAD_SCHEDULED_TASK: Load scheduler "s018" with entities [EventEntity, EventEntity], work=[898*, 0*]
171: 0x075E [0x01] GOTO 0x078E
172: 0x0761 [0x02] IF !(Work_Zone[9] == 6*) GOTO 0x077D
173: 0x0769 [0x45] LOAD_SCHEDULED_TASK: Load scheduler "s018" with entities [EventEntity, EventEntity], work=[898*, 0*]
174: 0x077A [0x01] GOTO 0x078E
175: 0x077D [0x45] LOAD_SCHEDULED_TASK: Load scheduler "s010" with entities [EventEntity, EventEntity], work=[898*, 0*]

SUBROUTINE_078E:
176: 0x078E [0x27] REQ_SET(priority=0x0F, entity_id=Oshasha (ID: 17940514/0x0111C022), tag_num=0x49)
177: 0x0795 [0x2B] Oshasha (ID: 17940514/0x0111C022) [8162*]:
    → "Unfortunately, it is a rather dangerous place, and the book is thoughtaru to be located near the Velkk throne."
178: 0x079C [0x23] WAIT_FOR_DIALOG_INTERACTION
179: 0x079D [0x2A] GET_REQ_LEVEL(level=15, entity_id=Oshasha (ID: 17940514/0x0111C022))
180: 0x07A3 [0x29] REQ_SET_WAIT(priority=0x0F, entity_id=Oshasha (ID: 17940514/0x0111C022), tag_num=0x1C)
181: 0x07AA [0x2B] Oshasha (ID: 17940514/0x0111C022) [8163*]:
    → "You see... I'm no match for the savage Velkk in my currentaru state..."
182: 0x07B1 [0x23] WAIT_FOR_DIALOG_INTERACTION
183: 0x07B2 [0x29] REQ_SET_WAIT(priority=0x0F, entity_id=Oshasha (ID: 17940514/0x0111C022), tag_num=0x1D)
184: 0x07B9 [0x02] IF !(Work_Zone[9] == 5*) GOTO 0x07D3
185: 0x07C1 [0x52] END_LOAD_SCHEDULER: End scheduler "s018" with entities [EventEntity, EventEntity], work=898*
186: 0x07D0 [0x01] GOTO 0x07FC
187: 0x07D3 [0x02] IF !(Work_Zone[9] == 6*) GOTO 0x07ED
188: 0x07DB [0x52] END_LOAD_SCHEDULER: End scheduler "s018" with entities [EventEntity, EventEntity], work=898*
189: 0x07EA [0x01] GOTO 0x07FC
190: 0x07ED [0x52] END_LOAD_SCHEDULER: End scheduler "s010" with entities [EventEntity, EventEntity], work=898*

SUBROUTINE_07FC:
191: 0x07FC [0x02] IF !(Work_Zone[9] == 5*) GOTO 0x0818
192: 0x0804 [0x45] LOAD_SCHEDULED_TASK: Load scheduler "s019" with entities [EventEntity, EventEntity], work=[898*, 0*]
193: 0x0815 [0x01] GOTO 0x0845
194: 0x0818 [0x02] IF !(Work_Zone[9] == 6*) GOTO 0x0834
195: 0x0820 [0x45] LOAD_SCHEDULED_TASK: Load scheduler "s019" with entities [EventEntity, EventEntity], work=[898*, 0*]
196: 0x0831 [0x01] GOTO 0x0845
197: 0x0834 [0x45] LOAD_SCHEDULED_TASK: Load scheduler "s011" with entities [EventEntity, EventEntity], work=[898*, 0*]

SUBROUTINE_0845:
198: 0x0845 [0x29] REQ_SET_WAIT(priority=0x0F, entity_id=Oshasha (ID: 17940514/0x0111C022), tag_num=0x1E)
199: 0x084C [0x2B] Oshasha (ID: 17940514/0x0111C022) [8164*]:
    → "That is why I was hoping to find a pioneer that I could countaru on."
200: 0x0853 [0x23] WAIT_FOR_DIALOG_INTERACTION
201: 0x0854 [0x29] REQ_SET_WAIT(priority=0x0F, entity_id=Oshasha (ID: 17940514/0x0111C022), tag_num=0x1F)
202: 0x085B [0x29] REQ_SET_WAIT(priority=0x0F, entity_id=Oshasha (ID: 17940514/0x0111C022), tag_num=0x24)
203: 0x0862 [0x2B] Oshasha (ID: 17940514/0x0111C022) [8165*]:
    → "Arciela has nothing but good things to say about you, so will you help-welp me?"
204: 0x0869 [0x23] WAIT_FOR_DIALOG_INTERACTION
205: 0x086A [0x24] CREATE_DIALOG(message_id=8166*, default_option=0*, option_flags=0*)
    → "Accept Oshasha's request? [Yes./Not now.]"
206: 0x0871 [0x25] WAIT_DIALOG_SELECT()
207: 0x0872 [0x02] IF !(Work_Zone[0] == 0*) GOTO 0x0A4E
208: 0x087A [0x6E] LocalPlayer uses emote 7*
209: 0x0881 [0x99] Wait for LocalPlayer animation to complete
210: 0x0886 [0x1C] WAIT(90* ticks)
211: 0x0889 [0x29] REQ_SET_WAIT(priority=0x0F, entity_id=Oshasha (ID: 17940514/0x0111C022), tag_num=0x25)
212: 0x0890 [0x02] IF !(Work_Zone[9] == 5*) GOTO 0x08AA
213: 0x0898 [0x52] END_LOAD_SCHEDULER: End scheduler "s019" with entities [EventEntity, EventEntity], work=898*
214: 0x08A7 [0x01] GOTO 0x08D3
215: 0x08AA [0x02] IF !(Work_Zone[9] == 6*) GOTO 0x08C4
216: 0x08B2 [0x52] END_LOAD_SCHEDULER: End scheduler "s019" with entities [EventEntity, EventEntity], work=898*
217: 0x08C1 [0x01] GOTO 0x08D3
218: 0x08C4 [0x52] END_LOAD_SCHEDULER: End scheduler "s011" with entities [EventEntity, EventEntity], work=898*

SUBROUTINE_08D3:
219: 0x08D3 [0x45] LOAD_SCHEDULED_TASK: Load scheduler "s012" with entities [EventEntity, EventEntity], work=[898*, 0*]
220: 0x08E4 [0x29] REQ_SET_WAIT(priority=0x0F, entity_id=Oshasha (ID: 17940514/0x0111C022), tag_num=0x22)
221: 0x08EB [0x2B] Oshasha (ID: 17940514/0x0111C022) [8168*]:
    → "Phew... That's a relief. Now then, please hurry-wurry to the Marjami Ravine."
222: 0x08F2 [0x23] WAIT_FOR_DIALOG_INTERACTION
223: 0x08F3 [0x29] REQ_SET_WAIT(priority=0x0F, entity_id=Oshasha (ID: 17940514/0x0111C022), tag_num=0x23)
224: 0x08FA [0x29] REQ_SET_WAIT(priority=0x0F, entity_id=Oshasha (ID: 17940514/0x0111C022), tag_num=0x28)
225: 0x0901 [0x03] Work_Zone[3] = 3302*
226: 0x0906 [0x2B] Oshasha (ID: 17940514/0x0111C022) [8169*]:
    → "And if you do happen-wappen to find the $3, you must not open it."
227: 0x090D [0x23] WAIT_FOR_DIALOG_INTERACTION
228: 0x090E [0x29] REQ_SET_WAIT(priority=0x0F, entity_id=Oshasha (ID: 17940514/0x0111C022), tag_num=0x29)
229: 0x0915 [0x52] END_LOAD_SCHEDULER: End scheduler "s012" with entities [EventEntity, EventEntity], work=898*
230: 0x0924 [0x45] LOAD_SCHEDULED_TASK: Load scheduler "s013" with entities [EventEntity, EventEntity], work=[898*, 0*]
231: 0x0935 [0x7B] Oshasha (ID: 17940514/0x0111C022) stops talking
232: 0x093A [0x27] REQ_SET(priority=0x0F, entity_id=Oshasha (ID: 17940514/0x0111C022), tag_num=0x62)
233: 0x0941 [0x1C] WAIT(90* ticks)
234: 0x0944 [0x1C] WAIT(90* ticks)
235: 0x0947 [0x4A] Andreine (ID: 17940495/0x0111C00F) looks at LocalPlayer
236: 0x0950 [0x6F] WAIT_FRAME_DELAY: Yield until WaitTime reaches zero
237: 0x0951 [0x76] CHECK_ENTITY_RENDER_FLAGS: Wait until Andreine (ID: 17940495/0x0111C00F) Render.Flags0 and Render.Flags3 conditions are met
238: 0x0956 [0x1C] WAIT(30* ticks)
239: 0x0959 [0x52] END_LOAD_SCHEDULER: End scheduler "s013" with entities [EventEntity, EventEntity], work=898*
240: 0x0968 [0x45] LOAD_SCHEDULED_TASK: Load scheduler "s014" with entities [EventEntity, EventEntity], work=[898*, 0*]
241: 0x0979 [0x7B] Andreine (ID: 17940495/0x0111C00F) stops talking
242: 0x097E [0x29] REQ_SET_WAIT(priority=0x0F, entity_id=Andreine (ID: 17940495/0x0111C00F), tag_num=0x27)
243: 0x0985 [0x2B] Andreine (ID: 17940495/0x0111C00F) [8170*]:
    → "Ah, <Player>. You have really taken on quite the request this time!"
244: 0x098C [0x1C] WAIT(20* ticks)
245: 0x098F [0x4A] LocalPlayer looks at Andreine (ID: 17940495/0x0111C00F)
246: 0x0998 [0x6F] WAIT_FRAME_DELAY: Yield until WaitTime reaches zero
247: 0x0999 [0x76] CHECK_ENTITY_RENDER_FLAGS: Wait until LocalPlayer Render.Flags0 and Render.Flags3 conditions are met
248: 0x099E [0x23] WAIT_FOR_DIALOG_INTERACTION
249: 0x099F [0x2A] GET_REQ_LEVEL(level=15, entity_id=Oshasha (ID: 17940514/0x0111C022))
250: 0x09A5 [0x6C] FADE_ENTITY_COLOR(entity_id=Oshasha (ID: 17940514/0x0111C022), end_alpha=0*, fade_time=1*)
251: 0x09AE [0x2B] Andreine (ID: 17940495/0x0111C00F) [8171*]:
    → "Did you notice?"
252: 0x09B5 [0x23] WAIT_FOR_DIALOG_INTERACTION
253: 0x09B6 [0x29] REQ_SET_WAIT(priority=0x0F, entity_id=Andreine (ID: 17940495/0x0111C00F), tag_num=0x28)
254: 0x09BD [0x52] END_LOAD_SCHEDULER: End scheduler "s014" with entities [EventEntity, EventEntity], work=898*
255: 0x09CC [0x02] IF !(Work_Zone[9] == 5*) GOTO 0x09E8
256: 0x09D4 [0x45] LOAD_SCHEDULED_TASK: Load scheduler "s020" with entities [EventEntity, EventEntity], work=[898*, 0*]
257: 0x09E5 [0x01] GOTO 0x0A15
258: 0x09E8 [0x02] IF !(Work_Zone[9] == 6*) GOTO 0x0A04
259: 0x09F0 [0x45] LOAD_SCHEDULED_TASK: Load scheduler "s020" with entities [EventEntity, EventEntity], work=[898*, 0*]
260: 0x0A01 [0x01] GOTO 0x0A15
261: 0x0A04 [0x45] LOAD_SCHEDULED_TASK: Load scheduler "s015" with entities [EventEntity, EventEntity], work=[898*, 0*]

SUBROUTINE_0A15:
262: 0x0A15 [0x29] REQ_SET_WAIT(priority=0x0F, entity_id=Andreine (ID: 17940495/0x0111C00F), tag_num=0x29)
263: 0x0A1C [0x2B] Andreine (ID: 17940495/0x0111C00F) [8172*]:
    → "The conservator did not yawn even once!"
264: 0x0A23 [0x23] WAIT_FOR_DIALOG_INTERACTION
265: 0x0A24 [0x29] REQ_SET_WAIT(priority=0x0F, entity_id=Andreine (ID: 17940495/0x0111C00F), tag_num=0x2A)
266: 0x0A2B [0x29] REQ_SET_WAIT(priority=0x0F, entity_id=Andreine (ID: 17940495/0x0111C00F), tag_num=0x33)
267: 0x0A32 [0x2B] Andreine (ID: 17940495/0x0111C00F) [8173*]:
    → "That can only mean that this is something big! It must be if it can keep Oshasha awake!"
268: 0x0A39 [0x23] WAIT_FOR_DIALOG_INTERACTION
269: 0x0A3A [0x29] REQ_SET_WAIT(priority=0x0F, entity_id=Andreine (ID: 17940495/0x0111C00F), tag_num=0x34)
270: 0x0A41 [0x5D] SET_MUSIC_VOLUME(volume=0*, fade_time=300*)
271: 0x0A46 [0x03] Work_Zone[1] = 1*
272: 0x0A4B [0x01] GOTO 0x0AF8
273: 0x0A4E [0x02] IF !(Work_Zone[0] == 1*) GOTO 0x0AF8
274: 0x0A56 [0x6E] LocalPlayer uses emote 6*
275: 0x0A5D [0x99] Wait for LocalPlayer animation to complete
276: 0x0A62 [0x1C] WAIT(90* ticks)
277: 0x0A65 [0x29] REQ_SET_WAIT(priority=0x0F, entity_id=Oshasha (ID: 17940514/0x0111C022), tag_num=0x25)
278: 0x0A6C [0x02] IF !(Work_Zone[9] == 5*) GOTO 0x0A86
279: 0x0A74 [0x52] END_LOAD_SCHEDULER: End scheduler "s019" with entities [EventEntity, EventEntity], work=898*
280: 0x0A83 [0x01] GOTO 0x0AAF
281: 0x0A86 [0x02] IF !(Work_Zone[9] == 6*) GOTO 0x0AA0
282: 0x0A8E [0x52] END_LOAD_SCHEDULER: End scheduler "s019" with entities [EventEntity, EventEntity], work=898*
283: 0x0A9D [0x01] GOTO 0x0AAF
284: 0x0AA0 [0x52] END_LOAD_SCHEDULER: End scheduler "s011" with entities [EventEntity, EventEntity], work=898*

SUBROUTINE_0AAF:
285: 0x0AAF [0x45] LOAD_SCHEDULED_TASK: Load scheduler "s009" with entities [EventEntity, EventEntity], work=[898*, 0*]
286: 0x0AC0 [0x7B] Oshasha (ID: 17940514/0x0111C022) stops talking
287: 0x0AC5 [0x4B] UPDATE_ENTITY_YAW(entity=Oshasha (ID: 17940514/0x0111C022), yaw=0.0°*)
288: 0x0ACC [0x6F] WAIT_FRAME_DELAY: Yield until WaitTime reaches zero
289: 0x0ACD [0x76] CHECK_ENTITY_RENDER_FLAGS: Wait until Oshasha (ID: 17940514/0x0111C022) Render.Flags0 and Render.Flags3 conditions are met
290: 0x0AD2 [0x29] REQ_SET_WAIT(priority=0x0F, entity_id=Oshasha (ID: 17940514/0x0111C022), tag_num=0x3E)
291: 0x0AD9 [0x2B] Oshasha (ID: 17940514/0x0111C022) [8167*]:
    → "I only wish I was strong enough to join-woin you..."
292: 0x0AE0 [0x23] WAIT_FOR_DIALOG_INTERACTION
293: 0x0AE1 [0x29] REQ_SET_WAIT(priority=0x0F, entity_id=Oshasha (ID: 17940514/0x0111C022), tag_num=0x3F)
294: 0x0AE8 [0x03] Work_Zone[1] = 0*
295: 0x0AED [0x5D] SET_MUSIC_VOLUME(volume=0*, fade_time=300*)
296: 0x0AF2 [0x01] GOTO 0x0AF8

SUBROUTINE_0AF8:
297: 0x0AF8 [0x1A] CALL_SUBROUTINE(address=0x0064)
298: 0x0AFB [0x52] END_LOAD_SCHEDULER: End scheduler "s009" with entities [EventEntity, EventEntity], work=898*
299: 0x0B0A [0x02] IF !(Work_Zone[9] == 5*) GOTO 0x0B24
300: 0x0B12 [0x52] END_LOAD_SCHEDULER: End scheduler "s020" with entities [EventEntity, EventEntity], work=898*
301: 0x0B21 [0x01] GOTO 0x0B4D
302: 0x0B24 [0x02] IF !(Work_Zone[9] == 6*) GOTO 0x0B3E
303: 0x0B2C [0x52] END_LOAD_SCHEDULER: End scheduler "s020" with entities [EventEntity, EventEntity], work=898*
304: 0x0B3B [0x01] GOTO 0x0B4D
305: 0x0B3E [0x52] END_LOAD_SCHEDULER: End scheduler "s015" with entities [EventEntity, EventEntity], work=898*

SUBROUTINE_0B4D:
306: 0x0B4D [0x5C] MUSIC_CONTROL: Set Idle (Day) music to song 63*
307: 0x0B51 [0x5C] MUSIC_CONTROL: Set Idle (Night) music to song 63*
308: 0x0B55 [0x9A] WAIT_MUSIC_SERVER()
309: 0x0B56 [0x5D] SET_MUSIC_VOLUME(volume=127*, fade_time=1*)
310: 0x0B5B [0x1C] WAIT(15* ticks)
311: 0x0B5E [0xAB] EventEntity->DespawnValue = 0* // Set despawn value
312: 0x0B62 [0x1C] WAIT(1* ticks)
313: 0x0B65 [0x46] CAMERA_CONTROL: Restore default settings
314: 0x0B67 [0x45] LOAD_SCHEDULED_TASK: Load scheduler "fdi2" with entities [EventEntity, EventEntity], work=[200*, 0*]
315: 0x0B78 [0x21] END_EVENT
316: 0x0B79 [0x00] END_REQSTACK()
```

#### Data or dead code:

```
# Dead code (unreachable instructions):
     0x0AF5 [0x01] GOTO 0x0AF8
```

### Event 44

#### Metadata

| Field        | Value      |
|--------------|------------|
| Entrypoint   | 0x0B7A     |
| Data Size    | 1696 bytes |
| Instructions | 235        |

```
      00 01 02 03 04 05 06 07  08 09 0A 0B 0C 0D 0E 0F
      -- -- -- -- -- -- -- --  -- -- -- -- -- -- -- --
0B70:                                42 1A 64 00 46 01            B.d.F.
0B80: 38 08 80 2F 00 22 C0 11  01 4E 00 22 C0 11 01 92  8../."...N."....
0B90: 01 0F C0 11 01 94 01 0F  C0 11 01 94 01 22 C0 11  ............."..
0BA0: 01 94 01 F0 FF FF 7F BA  0F C0 11 01 09 80 0A 80  ................
0BB0: 0B 80 0C 80 BA 22 C0 11  01 0D 80 0E 80 0F 80 10  ....."..........
0BC0: 80 29 0F F0 FF FF 7F 17  02 09 10 11 80 00 E0 0B  .)..............
0BD0: BA F0 FF FF 7F 12 80 13  80 14 80 15 80 01 05 0C  ................
0BE0: 02 09 10 16 80 00 F8 0B  BA F0 FF FF 7F 12 80 13  ................
0BF0: 80 14 80 15 80 01 05 0C  BA F0 FF FF 7F 17 80 18  ................
0C00: 80 19 80 1A 80 80 0F C0  11 01 80 22 C0 11 01 29  ..........."...)
0C10: 0F 0F C0 11 01 23 4A 22  C0 11 01 F0 FF FF 7F 4A  .....#J".......J
0C20: F0 FF FF 7F 0F C0 11 01  4A 0F C0 11 01 F0 FF FF  ........J.......
0C30: 7F 6F 76 0F C0 11 01 6F  76 F0 FF FF 7F 6F 76 22  .ov....ov....ov"
0C40: C0 11 01 5C 00 44 80 5C  01 44 80 9A 5D 1C 80 03  ...\.D.\.D..]...
0C50: 80 45 1D 80 F8 FF FF 7F  F8 FF FF 7F 73 30 30 30  .E..........s000
0C60: 01 80 1A 43 00 2B 0F C0  11 01 45 80 23 29 0F 0F  ...C.+....E.#)..
0C70: C0 11 01 24 27 0F 22 C0  11 01 63 1C 16 80 52 1D  ...$'."...c...R.
0C80: 80 F8 FF FF 7F F8 FF FF  7F 73 30 30 30 45 1D 80  .........s000E..
0C90: F8 FF FF 7F F8 FF FF 7F  73 30 30 31 01 80 29 0F  ........s001..).
0CA0: 0F C0 11 01 25 1C 21 80  4A F0 FF FF 7F 22 C0 11  ....%.!.J...."..
0CB0: 01 1C 21 80 6F 76 F0 FF  FF 7F 52 1D 80 F8 FF FF  ..!.ov....R.....
0CC0: 7F F8 FF FF 7F 73 30 30  31 45 1D 80 F8 FF FF 7F  .....s001E......
0CD0: F8 FF FF 7F 73 30 30 33  01 80 29 0F 0F C0 11 01  ....s003..).....
0CE0: 26 4A 0F C0 11 01 22 C0  11 01 6F 76 0F C0 11 01  &J...."...ov....
0CF0: 2A 0F 22 C0 11 01 29 0F  F0 FF FF 7F 06 1C 1F 80  *."...).........
0D00: 29 0F 22 C0 11 01 26 2B  22 C0 11 01 46 80 1C 38  )."...&+"...F..8
0D10: 80 1C 06 80 23 52 1D 80  F8 FF FF 7F F8 FF FF 7F  ....#R..........
0D20: 73 30 30 33 45 1D 80 F8  FF FF 7F F8 FF FF 7F 73  s003E..........s
0D30: 30 30 39 01 80 29 0F 22  C0 11 01 27 7B 22 C0 11  009..)."...'{"..
0D40: 01 29 0F 22 C0 11 01 1C  03 03 10 24 80 2B 22 C0  .).".......$.+".
0D50: 11 01 47 80 23 2B 22 C0  11 01 48 80 23 29 0F 22  ..G.#+"...H.#)."
0D60: C0 11 01 1D 52 1D 80 F8  FF FF 7F F8 FF FF 7F 73  ....R..........s
0D70: 30 30 39 02 09 10 11 80  00 8F 0D 45 1D 80 F8 FF  009........E....
0D80: FF 7F F8 FF FF 7F 73 30  31 39 01 80 01 BC 0D 02  ......s019......
0D90: 09 10 16 80 00 AB 0D 45  1D 80 F8 FF FF 7F F8 FF  .......E........
0DA0: FF 7F 73 30 31 39 01 80  01 BC 0D 45 1D 80 F8 FF  ..s019.....E....
0DB0: FF 7F F8 FF FF 7F 73 30  31 31 01 80 29 0F 22 C0  ......s011..).".
0DC0: 11 01 1E 79 00 22 C0 11  01 F0 FF FF 7F 29 0F F0  ...y.".......)..
0DD0: FF FF 7F 07 1C 1F 80 1A  64 00 29 0F 22 C0 11 01  ........d.)."...
0DE0: 1F 02 09 10 11 80 00 FB  0D 52 1D 80 F8 FF FF 7F  .........R......
0DF0: F8 FF FF 7F 73 30 31 39  01 24 0E 02 09 10 16 80  ....s019.$......
0E00: 00 15 0E 52 1D 80 F8 FF  FF 7F F8 FF FF 7F 73 30  ...R..........s0
0E10: 31 39 01 24 0E 52 1D 80  F8 FF FF 7F F8 FF FF 7F  19.$.R..........
0E20: 73 30 31 31 4A F0 FF FF  7F 22 C0 11 01 6F 76 F0  s011J...."...ov.
0E30: FF FF 7F 29 0F F0 FF FF  7F 08 45 1D 80 F8 FF FF  ...)......E.....
0E40: 7F F8 FF FF 7F 73 30 30  38 01 80 1A 43 00 1C 06  .....s008...C...
0E50: 80 29 0F 22 C0 11 01 1A  03 03 10 24 80 2B 22 C0  .).".......$.+".
0E60: 11 01 49 80 23 2B 22 C0  11 01 4A 80 23 29 0F 22  ..I.#+"...J.#)."
0E70: C0 11 01 1B 52 1D 80 F8  FF FF 7F F8 FF FF 7F 73  ....R..........s
0E80: 30 30 38 45 1D 80 F8 FF  FF 7F F8 FF FF 7F 73 30  008E..........s0
0E90: 30 39 01 80 7B 22 C0 11  01 29 0F 22 C0 11 01 1C  09..{"...)."....
0EA0: 2B 22 C0 11 01 4B 80 23  2B 22 C0 11 01 4C 80 23  +"...K.#+"...L.#
0EB0: 29 0F 22 C0 11 01 1D 29  0F 22 C0 11 01 1E 52 1D  )."....)."....R.
0EC0: 80 F8 FF FF 7F F8 FF FF  7F 73 30 30 39 45 1D 80  .........s009E..
0ED0: F8 FF FF 7F F8 FF FF 7F  73 30 31 32 01 80 27 0F  ........s012..'.
0EE0: 22 C0 11 01 64 2B 22 C0  11 01 4D 80 23 2A 0F 22  "...d+"...M.#*."
0EF0: C0 11 01 2B 22 C0 11 01  4E 80 23 29 0F 22 C0 11  ...+"...N.#)."..
0F00: 01 1F 27 0F 22 C0 11 01  65 1C 43 80 52 1D 80 F8  ..'."...e.C.R...
0F10: FF FF 7F F8 FF FF 7F 73  30 31 32 45 1D 80 F8 FF  .......s012E....
0F20: FF 7F F8 FF FF 7F 73 30  32 31 01 80 4A 0F C0 11  ......s021..J...
0F30: 01 22 C0 11 01 2B 0F C0  11 01 4F 80 4A F0 FF FF  ."...+....O.J...
0F40: 7F 22 C0 11 01 1C 1F 80  6F 76 22 C0 11 01 52 1D  ."......ov"...R.
0F50: 80 F8 FF FF 7F F8 FF FF  7F 73 30 32 31 45 1D 80  .........s021E..
0F60: F8 FF FF 7F F8 FF FF 7F  73 30 32 32 01 80 2A 0F  ........s022..*.
0F70: 22 C0 11 01 4A F0 FF FF  7F 22 C0 11 01 4A 22 C0  "...J...."...J".
0F80: 11 01 0F C0 11 01 6F 76  22 C0 11 01 6F 76 F0 FF  ......ov"...ov..
0F90: FF 7F 23 6F 76 0F C0 11  01 29 0F 22 C0 11 01 22  ..#ov....)."..."
0FA0: 2B 22 C0 11 01 50 80 23  29 0F 22 C0 11 01 23 7B  +"...P.#)."...#{
0FB0: 22 C0 11 01 27 0F 22 C0  11 01 66 1C 1F 80 52 1D  "...'."...f...R.
0FC0: 80 F8 FF FF 7F F8 FF FF  7F 73 30 32 32 02 09 10  .........s022...
0FD0: 11 80 00 E9 0F 45 1D 80  F8 FF FF 7F F8 FF FF 7F  .....E..........
0FE0: 73 30 32 34 01 80 01 16  10 02 09 10 16 80 00 05  s024............
0FF0: 10 45 1D 80 F8 FF FF 7F  F8 FF FF 7F 73 30 32 34  .E..........s024
1000: 01 80 01 16 10 45 1D 80  F8 FF FF 7F F8 FF FF 7F  .....E..........
1010: 73 30 32 33 01 80 1C 1F  80 45 1D 80 F8 FF FF 7F  s023.....E......
1020: F8 FF FF 7F 39 30 32 31  01 80 7B 0F C0 11 01 29  ....9021..{....)
1030: 0F 0F C0 11 01 27 1C 1F  80 45 1D 80 F8 FF FF 7F  .....'...E......
1040: F8 FF FF 7F 39 30 32 32  01 80 02 09 10 11 80 00  ....9022........
1050: 64 10 52 1D 80 F8 FF FF  7F F8 FF FF 7F 73 30 32  d.R..........s02
1060: 34 01 8D 10 02 09 10 16  80 00 7E 10 52 1D 80 F8  4.........~.R...
1070: FF FF 7F F8 FF FF 7F 73  30 32 34 01 8D 10 52 1D  .......s024...R.
1080: 80 F8 FF FF 7F F8 FF FF  7F 73 30 32 33 45 1D 80  .........s023E..
1090: F8 FF FF 7F F8 FF FF 7F  73 30 31 34 01 80 2B 0F  ........s014..+.
10A0: C0 11 01 51 80 1C 06 80  4A F0 FF FF 7F 0F C0 11  ...Q....J.......
10B0: 01 6F 76 F0 FF FF 7F 23  29 0F 0F C0 11 01 28 52  .ov....#).....(R
10C0: 1D 80 F8 FF FF 7F F8 FF  FF 7F 73 30 31 34 02 09  ..........s014..
10D0: 10 11 80 00 EA 10 45 1D  80 F8 FF FF 7F F8 FF FF  ......E.........
10E0: 7F 73 30 32 30 01 80 01  17 11 02 09 10 16 80 00  .s020...........
10F0: 06 11 45 1D 80 F8 FF FF  7F F8 FF FF 7F 73 30 32  ..E..........s02
1100: 30 01 80 01 17 11 45 1D  80 F8 FF FF 7F F8 FF FF  0.....E.........
1110: 7F 73 30 31 35 01 80 79  00 0F C0 11 01 F0 FF FF  .s015..y........
1120: 7F 29 0F 0F C0 11 01 29  2B 0F C0 11 01 52 80 23  .).....)+....R.#
1130: 2B 0F C0 11 01 53 80 23  29 0F 0F C0 11 01 2A 02  +....S.#).....*.
1140: 09 10 11 80 00 59 11 52  1D 80 F8 FF FF 7F F8 FF  .....Y.R........
1150: FF 7F 73 30 32 30 01 82  11 02 09 10 16 80 00 73  ..s020.........s
1160: 11 52 1D 80 F8 FF FF 7F  F8 FF FF 7F 73 30 32 30  .R..........s020
1170: 01 82 11 52 1D 80 F8 FF  FF 7F F8 FF FF 7F 73 30  ...R..........s0
1180: 31 35 45 1D 80 F8 FF FF  7F F8 FF FF 7F 73 30 30  15E..........s00
1190: 38 01 80 29 0F 0F C0 11  01 23 2B 0F C0 11 01 54  8..).....#+....T
11A0: 80 23 2B 0F C0 11 01 55  80 23 29 0F 0F C0 11 01  .#+....U.#).....
11B0: 24 29 0F 0F C0 11 01 25  5D 01 80 40 80 1A 64 00  $).....%]..@..d.
11C0: 29 0F 0F C0 11 01 26 2A  0F 22 C0 11 01 52 1D 80  ).....&*."...R..
11D0: F8 FF FF 7F F8 FF FF 7F  73 30 30 38 5C 00 42 80  ........s008\.B.
11E0: 5C 01 42 80 9A 5D 1C 80  03 80 1C 43 80 AB 11 01  \.B..].....C....
11F0: 80 1C 03 80 46 00 45 00  80 F8 FF FF 7F F8 FF FF  ....F.E.........
1200: 7F 66 64 69 32 01 80 45  02 80 F8 FF FF 7F F8 FF  .fdi2..E........
1210: FF 7F 71 73 74 63 01 80  21 00                    ..qstc..!.      
```

#### Opcodes

```
  0: 0x0B7A [0x42] SET_CLI_EVENT_CANCEL_DATA()
  1: 0x0B7B [0x1A] CALL_SUBROUTINE(address=0x0064)
  2: 0x0B7E [0x46] CAMERA_CONTROL: Disable user control
  3: 0x0B80 [0x38] SET_CLIENT_EVENT_MODE(mode=147*)
  4: 0x0B83 [0x2F] Oshasha (ID: 17940514/0x0111C022)->Render.Flags0 &= ~0x80000 // Bit 19
  5: 0x0B89 [0x4E] SET_ENTITY_HIDE_FLAG: Show Oshasha (ID: 17940514/0x0111C022)
  6: 0x0B8F [0x92] Andreine (ID: 17940495/0x0111C00F)->Render.Flags3 ^= 0x01
  7: 0x0B95 [0x94] Andreine (ID: 17940495/0x0111C00F)->Render.Flags3 ^= 0x01
  8: 0x0B9B [0x94] Oshasha (ID: 17940514/0x0111C022)->Render.Flags3 ^= 0x01
  9: 0x0BA1 [0x94] LocalPlayer->Render.Flags3 ^= 0x01
 10: 0x0BA7 [0xBA] SET_ENTITY_POSITION(entity_id=Andreine (ID: 17940495/0x0111C00F), pos_x=-91.944*, pos_z=-91.538*, pos_y=-2.149*, direction=161.8°*)
 11: 0x0BB4 [0xBA] SET_ENTITY_POSITION(entity_id=Oshasha (ID: 17940514/0x0111C022), pos_x=-96.714*, pos_z=-99.533*, pos_y=-2.150*, direction=105.4°*)
 12: 0x0BC1 [0x29] REQ_SET_WAIT(priority=0x0F, entity_id=LocalPlayer, tag_num=0x17)
 13: 0x0BC8 [0x02] IF !(Work_Zone[9] == 5*) GOTO 0x0BE0
 14: 0x0BD0 [0xBA] SET_ENTITY_POSITION(entity_id=LocalPlayer, pos_x=-94.754*, pos_z=-91.565*, pos_y=-2.192*, direction=99.8°*)
 15: 0x0BDD [0x01] GOTO 0x0C05
 16: 0x0BE0 [0x02] IF !(Work_Zone[9] == 6*) GOTO 0x0BF8
 17: 0x0BE8 [0xBA] SET_ENTITY_POSITION(entity_id=LocalPlayer, pos_x=-94.754*, pos_z=-91.565*, pos_y=-2.192*, direction=99.8°*)
 18: 0x0BF5 [0x01] GOTO 0x0C05
 19: 0x0BF8 [0xBA] SET_ENTITY_POSITION(entity_id=LocalPlayer, pos_x=-95.306*, pos_z=-91.461*, pos_y=-2.189*, direction=10.0°*)

SUBROUTINE_0C05:
 20: 0x0C05 [0x80] LOAD_WAIT(entity=Andreine (ID: 17940495/0x0111C00F))
 21: 0x0C0A [0x80] LOAD_WAIT(entity=Oshasha (ID: 17940514/0x0111C022))
 22: 0x0C0F [0x29] REQ_SET_WAIT(priority=0x0F, entity_id=Andreine (ID: 17940495/0x0111C00F), tag_num=0x23)
 23: 0x0C16 [0x4A] Oshasha (ID: 17940514/0x0111C022) looks at LocalPlayer
 24: 0x0C1F [0x4A] LocalPlayer looks at Andreine (ID: 17940495/0x0111C00F)
 25: 0x0C28 [0x4A] Andreine (ID: 17940495/0x0111C00F) looks at LocalPlayer
 26: 0x0C31 [0x6F] WAIT_FRAME_DELAY: Yield until WaitTime reaches zero
 27: 0x0C32 [0x76] CHECK_ENTITY_RENDER_FLAGS: Wait until Andreine (ID: 17940495/0x0111C00F) Render.Flags0 and Render.Flags3 conditions are met
 28: 0x0C37 [0x6F] WAIT_FRAME_DELAY: Yield until WaitTime reaches zero
 29: 0x0C38 [0x76] CHECK_ENTITY_RENDER_FLAGS: Wait until LocalPlayer Render.Flags0 and Render.Flags3 conditions are met
 30: 0x0C3D [0x6F] WAIT_FRAME_DELAY: Yield until WaitTime reaches zero
 31: 0x0C3E [0x76] CHECK_ENTITY_RENDER_FLAGS: Wait until Oshasha (ID: 17940514/0x0111C022) Render.Flags0 and Render.Flags3 conditions are met
 32: 0x0C43 [0x5C] MUSIC_CONTROL: Set Idle (Day) music to song 25*
 33: 0x0C47 [0x5C] MUSIC_CONTROL: Set Idle (Night) music to song 25*
 34: 0x0C4B [0x9A] WAIT_MUSIC_SERVER()
 35: 0x0C4C [0x5D] SET_MUSIC_VOLUME(volume=127*, fade_time=1*)
 36: 0x0C51 [0x45] LOAD_SCHEDULED_TASK: Load scheduler "s000" with entities [EventEntity, EventEntity], work=[898*, 0*]
 37: 0x0C62 [0x1A] CALL_SUBROUTINE(address=0x0043)
 38: 0x0C65 [0x2B] Andreine (ID: 17940495/0x0111C00F) [8177*]:
    → "Ah, what do we have here... I shall go summon the conservator at once."
 39: 0x0C6C [0x23] WAIT_FOR_DIALOG_INTERACTION
 40: 0x0C6D [0x29] REQ_SET_WAIT(priority=0x0F, entity_id=Andreine (ID: 17940495/0x0111C00F), tag_num=0x24)
 41: 0x0C74 [0x27] REQ_SET(priority=0x0F, entity_id=Oshasha (ID: 17940514/0x0111C022), tag_num=0x63)
 42: 0x0C7B [0x1C] WAIT(6* ticks)
 43: 0x0C7E [0x52] END_LOAD_SCHEDULER: End scheduler "s000" with entities [EventEntity, EventEntity], work=898*
 44: 0x0C8D [0x45] LOAD_SCHEDULED_TASK: Load scheduler "s001" with entities [EventEntity, EventEntity], work=[898*, 0*]
 45: 0x0C9E [0x29] REQ_SET_WAIT(priority=0x0F, entity_id=Andreine (ID: 17940495/0x0111C00F), tag_num=0x25)
 46: 0x0CA5 [0x1C] WAIT(10* ticks)
 47: 0x0CA8 [0x4A] LocalPlayer looks at Oshasha (ID: 17940514/0x0111C022)
 48: 0x0CB1 [0x1C] WAIT(10* ticks)
 49: 0x0CB4 [0x6F] WAIT_FRAME_DELAY: Yield until WaitTime reaches zero
 50: 0x0CB5 [0x76] CHECK_ENTITY_RENDER_FLAGS: Wait until LocalPlayer Render.Flags0 and Render.Flags3 conditions are met
 51: 0x0CBA [0x52] END_LOAD_SCHEDULER: End scheduler "s001" with entities [EventEntity, EventEntity], work=898*
 52: 0x0CC9 [0x45] LOAD_SCHEDULED_TASK: Load scheduler "s003" with entities [EventEntity, EventEntity], work=[898*, 0*]
 53: 0x0CDA [0x29] REQ_SET_WAIT(priority=0x0F, entity_id=Andreine (ID: 17940495/0x0111C00F), tag_num=0x26)
 54: 0x0CE1 [0x4A] Andreine (ID: 17940495/0x0111C00F) looks at Oshasha (ID: 17940514/0x0111C022)
 55: 0x0CEA [0x6F] WAIT_FRAME_DELAY: Yield until WaitTime reaches zero
 56: 0x0CEB [0x76] CHECK_ENTITY_RENDER_FLAGS: Wait until Andreine (ID: 17940495/0x0111C00F) Render.Flags0 and Render.Flags3 conditions are met
 57: 0x0CF0 [0x2A] GET_REQ_LEVEL(level=15, entity_id=Oshasha (ID: 17940514/0x0111C022))
 58: 0x0CF6 [0x29] REQ_SET_WAIT(priority=0x0F, entity_id=LocalPlayer, tag_num=0x06)
 59: 0x0CFD [0x1C] WAIT(60* ticks)
 60: 0x0D00 [0x29] REQ_SET_WAIT(priority=0x0F, entity_id=Oshasha (ID: 17940514/0x0111C022), tag_num=0x26)
 61: 0x0D07 [0x2B] Oshasha (ID: 17940514/0x0111C022) [8178*]:
    → "Thank you so much! I did not expectaru you to find it so quickly!"
 62: 0x0D0E [0x1C] WAIT(90* ticks)
 63: 0x0D11 [0x1C] WAIT(30* ticks)
 64: 0x0D14 [0x23] WAIT_FOR_DIALOG_INTERACTION
 65: 0x0D15 [0x52] END_LOAD_SCHEDULER: End scheduler "s003" with entities [EventEntity, EventEntity], work=898*
 66: 0x0D24 [0x45] LOAD_SCHEDULED_TASK: Load scheduler "s009" with entities [EventEntity, EventEntity], work=[898*, 0*]
 67: 0x0D35 [0x29] REQ_SET_WAIT(priority=0x0F, entity_id=Oshasha (ID: 17940514/0x0111C022), tag_num=0x27)
 68: 0x0D3C [0x7B] Oshasha (ID: 17940514/0x0111C022) stops talking
 69: 0x0D41 [0x29] REQ_SET_WAIT(priority=0x0F, entity_id=Oshasha (ID: 17940514/0x0111C022), tag_num=0x1C)
 70: 0x0D48 [0x03] Work_Zone[3] = 3302*
 71: 0x0D4D [0x2B] Oshasha (ID: 17940514/0x0111C022) [8179*]:
    → "So this is the mysterious book-wook known as the $3..."
 72: 0x0D54 [0x23] WAIT_FOR_DIALOG_INTERACTION
 73: 0x0D55 [0x2B] Oshasha (ID: 17940514/0x0111C022) [8180*]:
    → "Who wrote this book and for what reason-weason?"
 74: 0x0D5C [0x23] WAIT_FOR_DIALOG_INTERACTION
 75: 0x0D5D [0x29] REQ_SET_WAIT(priority=0x0F, entity_id=Oshasha (ID: 17940514/0x0111C022), tag_num=0x1D)
 76: 0x0D64 [0x52] END_LOAD_SCHEDULER: End scheduler "s009" with entities [EventEntity, EventEntity], work=898*
 77: 0x0D73 [0x02] IF !(Work_Zone[9] == 5*) GOTO 0x0D8F
 78: 0x0D7B [0x45] LOAD_SCHEDULED_TASK: Load scheduler "s019" with entities [EventEntity, EventEntity], work=[898*, 0*]
 79: 0x0D8C [0x01] GOTO 0x0DBC
 80: 0x0D8F [0x02] IF !(Work_Zone[9] == 6*) GOTO 0x0DAB
 81: 0x0D97 [0x45] LOAD_SCHEDULED_TASK: Load scheduler "s019" with entities [EventEntity, EventEntity], work=[898*, 0*]
 82: 0x0DA8 [0x01] GOTO 0x0DBC
 83: 0x0DAB [0x45] LOAD_SCHEDULED_TASK: Load scheduler "s011" with entities [EventEntity, EventEntity], work=[898*, 0*]

SUBROUTINE_0DBC:
 84: 0x0DBC [0x29] REQ_SET_WAIT(priority=0x0F, entity_id=Oshasha (ID: 17940514/0x0111C022), tag_num=0x1E)
 85: 0x0DC3 [0x79] Oshasha (ID: 17940514/0x0111C022) looks at LocalPlayer (Basic look)
 86: 0x0DCD [0x29] REQ_SET_WAIT(priority=0x0F, entity_id=LocalPlayer, tag_num=0x07)
 87: 0x0DD4 [0x1C] WAIT(60* ticks)
 88: 0x0DD7 [0x1A] CALL_SUBROUTINE(address=0x0064)
 89: 0x0DDA [0x29] REQ_SET_WAIT(priority=0x0F, entity_id=Oshasha (ID: 17940514/0x0111C022), tag_num=0x1F)
 90: 0x0DE1 [0x02] IF !(Work_Zone[9] == 5*) GOTO 0x0DFB
 91: 0x0DE9 [0x52] END_LOAD_SCHEDULER: End scheduler "s019" with entities [EventEntity, EventEntity], work=898*
 92: 0x0DF8 [0x01] GOTO 0x0E24
 93: 0x0DFB [0x02] IF !(Work_Zone[9] == 6*) GOTO 0x0E15
 94: 0x0E03 [0x52] END_LOAD_SCHEDULER: End scheduler "s019" with entities [EventEntity, EventEntity], work=898*
 95: 0x0E12 [0x01] GOTO 0x0E24
 96: 0x0E15 [0x52] END_LOAD_SCHEDULER: End scheduler "s011" with entities [EventEntity, EventEntity], work=898*

SUBROUTINE_0E24:
 97: 0x0E24 [0x4A] LocalPlayer looks at Oshasha (ID: 17940514/0x0111C022)
 98: 0x0E2D [0x6F] WAIT_FRAME_DELAY: Yield until WaitTime reaches zero
 99: 0x0E2E [0x76] CHECK_ENTITY_RENDER_FLAGS: Wait until LocalPlayer Render.Flags0 and Render.Flags3 conditions are met
100: 0x0E33 [0x29] REQ_SET_WAIT(priority=0x0F, entity_id=LocalPlayer, tag_num=0x08)
101: 0x0E3A [0x45] LOAD_SCHEDULED_TASK: Load scheduler "s008" with entities [EventEntity, EventEntity], work=[898*, 0*]
102: 0x0E4B [0x1A] CALL_SUBROUTINE(address=0x0043)
103: 0x0E4E [0x1C] WAIT(30* ticks)
104: 0x0E51 [0x29] REQ_SET_WAIT(priority=0x0F, entity_id=Oshasha (ID: 17940514/0x0111C022), tag_num=0x1A)
105: 0x0E58 [0x03] Work_Zone[3] = 3302*
106: 0x0E5D [0x2B] Oshasha (ID: 17940514/0x0111C022) [8181*]:
    → "I see... The $3 is like a kind of dictionary aboutaru demons."
107: 0x0E64 [0x23] WAIT_FOR_DIALOG_INTERACTION
108: 0x0E65 [0x2B] Oshasha (ID: 17940514/0x0111C022) [8182*]:
    → "What's more, you actually engaged the author in conversation..."
109: 0x0E6C [0x23] WAIT_FOR_DIALOG_INTERACTION
110: 0x0E6D [0x29] REQ_SET_WAIT(priority=0x0F, entity_id=Oshasha (ID: 17940514/0x0111C022), tag_num=0x1B)
111: 0x0E74 [0x52] END_LOAD_SCHEDULER: End scheduler "s008" with entities [EventEntity, EventEntity], work=898*
112: 0x0E83 [0x45] LOAD_SCHEDULED_TASK: Load scheduler "s009" with entities [EventEntity, EventEntity], work=[898*, 0*]
113: 0x0E94 [0x7B] Oshasha (ID: 17940514/0x0111C022) stops talking
114: 0x0E99 [0x29] REQ_SET_WAIT(priority=0x0F, entity_id=Oshasha (ID: 17940514/0x0111C022), tag_num=0x1C)
115: 0x0EA0 [0x2B] Oshasha (ID: 17940514/0x0111C022) [8183*]:
    → "His name was Schultz, you say-way? As in Gunther Schultz II, wielder of the grimoire in the Crystal War twenty years ago?"
116: 0x0EA7 [0x23] WAIT_FOR_DIALOG_INTERACTION
117: 0x0EA8 [0x2B] Oshasha (ID: 17940514/0x0111C022) [8184*]:
    → "In that case, I have no doubtaru that we will be successful."
118: 0x0EAF [0x23] WAIT_FOR_DIALOG_INTERACTION
119: 0x0EB0 [0x29] REQ_SET_WAIT(priority=0x0F, entity_id=Oshasha (ID: 17940514/0x0111C022), tag_num=0x1D)
120: 0x0EB7 [0x29] REQ_SET_WAIT(priority=0x0F, entity_id=Oshasha (ID: 17940514/0x0111C022), tag_num=0x1E)
121: 0x0EBE [0x52] END_LOAD_SCHEDULER: End scheduler "s009" with entities [EventEntity, EventEntity], work=898*
122: 0x0ECD [0x45] LOAD_SCHEDULED_TASK: Load scheduler "s012" with entities [EventEntity, EventEntity], work=[898*, 0*]
123: 0x0EDE [0x27] REQ_SET(priority=0x0F, entity_id=Oshasha (ID: 17940514/0x0111C022), tag_num=0x64)
124: 0x0EE5 [0x2B] Oshasha (ID: 17940514/0x0111C022) [8185*]:
    → "Perhaps the rumors that state this book has the ability to summon-wummon demons are true after all."
125: 0x0EEC [0x23] WAIT_FOR_DIALOG_INTERACTION
126: 0x0EED [0x2A] GET_REQ_LEVEL(level=15, entity_id=Oshasha (ID: 17940514/0x0111C022))
127: 0x0EF3 [0x2B] Oshasha (ID: 17940514/0x0111C022) [8186*]:
    → "I must find a secure location-wocation so that I can read its contents in full."
128: 0x0EFA [0x23] WAIT_FOR_DIALOG_INTERACTION
129: 0x0EFB [0x29] REQ_SET_WAIT(priority=0x0F, entity_id=Oshasha (ID: 17940514/0x0111C022), tag_num=0x1F)
130: 0x0F02 [0x27] REQ_SET(priority=0x0F, entity_id=Oshasha (ID: 17940514/0x0111C022), tag_num=0x65)
131: 0x0F09 [0x1C] WAIT(15* ticks)
132: 0x0F0C [0x52] END_LOAD_SCHEDULER: End scheduler "s012" with entities [EventEntity, EventEntity], work=898*
133: 0x0F1B [0x45] LOAD_SCHEDULED_TASK: Load scheduler "s021" with entities [EventEntity, EventEntity], work=[898*, 0*]
134: 0x0F2C [0x4A] Andreine (ID: 17940495/0x0111C00F) looks at Oshasha (ID: 17940514/0x0111C022)
135: 0x0F35 [0x2B] Andreine (ID: 17940495/0x0111C00F) [8187*]:
    → "Ah! Just where do you think you are going!?"
136: 0x0F3C [0x4A] LocalPlayer looks at Oshasha (ID: 17940514/0x0111C022)
137: 0x0F45 [0x1C] WAIT(60* ticks)
138: 0x0F48 [0x6F] WAIT_FRAME_DELAY: Yield until WaitTime reaches zero
139: 0x0F49 [0x76] CHECK_ENTITY_RENDER_FLAGS: Wait until Oshasha (ID: 17940514/0x0111C022) Render.Flags0 and Render.Flags3 conditions are met
140: 0x0F4E [0x52] END_LOAD_SCHEDULER: End scheduler "s021" with entities [EventEntity, EventEntity], work=898*
141: 0x0F5D [0x45] LOAD_SCHEDULED_TASK: Load scheduler "s022" with entities [EventEntity, EventEntity], work=[898*, 0*]
142: 0x0F6E [0x2A] GET_REQ_LEVEL(level=15, entity_id=Oshasha (ID: 17940514/0x0111C022))
143: 0x0F74 [0x4A] LocalPlayer looks at Oshasha (ID: 17940514/0x0111C022)
144: 0x0F7D [0x4A] Oshasha (ID: 17940514/0x0111C022) looks at Andreine (ID: 17940495/0x0111C00F)
145: 0x0F86 [0x6F] WAIT_FRAME_DELAY: Yield until WaitTime reaches zero
146: 0x0F87 [0x76] CHECK_ENTITY_RENDER_FLAGS: Wait until Oshasha (ID: 17940514/0x0111C022) Render.Flags0 and Render.Flags3 conditions are met
147: 0x0F8C [0x6F] WAIT_FRAME_DELAY: Yield until WaitTime reaches zero
148: 0x0F8D [0x76] CHECK_ENTITY_RENDER_FLAGS: Wait until LocalPlayer Render.Flags0 and Render.Flags3 conditions are met
149: 0x0F92 [0x23] WAIT_FOR_DIALOG_INTERACTION
150: 0x0F93 [0x6F] WAIT_FRAME_DELAY: Yield until WaitTime reaches zero
151: 0x0F94 [0x76] CHECK_ENTITY_RENDER_FLAGS: Wait until Andreine (ID: 17940495/0x0111C00F) Render.Flags0 and Render.Flags3 conditions are met
152: 0x0F99 [0x29] REQ_SET_WAIT(priority=0x0F, entity_id=Oshasha (ID: 17940514/0x0111C022), tag_num=0x22)
153: 0x0FA0 [0x2B] Oshasha (ID: 17940514/0x0111C022) [8188*]:
    → "I am going to pay a visitaru to a friend I can trust. He has also been eagerly waiting to read this book."
154: 0x0FA7 [0x23] WAIT_FOR_DIALOG_INTERACTION
155: 0x0FA8 [0x29] REQ_SET_WAIT(priority=0x0F, entity_id=Oshasha (ID: 17940514/0x0111C022), tag_num=0x23)
156: 0x0FAF [0x7B] Oshasha (ID: 17940514/0x0111C022) stops talking
157: 0x0FB4 [0x27] REQ_SET(priority=0x0F, entity_id=Oshasha (ID: 17940514/0x0111C022), tag_num=0x66)
158: 0x0FBB [0x1C] WAIT(60* ticks)
159: 0x0FBE [0x52] END_LOAD_SCHEDULER: End scheduler "s022" with entities [EventEntity, EventEntity], work=898*
160: 0x0FCD [0x02] IF !(Work_Zone[9] == 5*) GOTO 0x0FE9
161: 0x0FD5 [0x45] LOAD_SCHEDULED_TASK: Load scheduler "s024" with entities [EventEntity, EventEntity], work=[898*, 0*]
162: 0x0FE6 [0x01] GOTO 0x1016
163: 0x0FE9 [0x02] IF !(Work_Zone[9] == 6*) GOTO 0x1005
164: 0x0FF1 [0x45] LOAD_SCHEDULED_TASK: Load scheduler "s024" with entities [EventEntity, EventEntity], work=[898*, 0*]
165: 0x1002 [0x01] GOTO 0x1016
166: 0x1005 [0x45] LOAD_SCHEDULED_TASK: Load scheduler "s023" with entities [EventEntity, EventEntity], work=[898*, 0*]

SUBROUTINE_1016:
167: 0x1016 [0x1C] WAIT(60* ticks)
168: 0x1019 [0x45] LOAD_SCHEDULED_TASK: Load scheduler "9021" with entities [EventEntity, EventEntity], work=[898*, 0*]
169: 0x102A [0x7B] Andreine (ID: 17940495/0x0111C00F) stops talking
170: 0x102F [0x29] REQ_SET_WAIT(priority=0x0F, entity_id=Andreine (ID: 17940495/0x0111C00F), tag_num=0x27)
171: 0x1036 [0x1C] WAIT(60* ticks)
172: 0x1039 [0x45] LOAD_SCHEDULED_TASK: Load scheduler "9022" with entities [EventEntity, EventEntity], work=[898*, 0*]
173: 0x104A [0x02] IF !(Work_Zone[9] == 5*) GOTO 0x1064
174: 0x1052 [0x52] END_LOAD_SCHEDULER: End scheduler "s024" with entities [EventEntity, EventEntity], work=898*
175: 0x1061 [0x01] GOTO 0x108D
176: 0x1064 [0x02] IF !(Work_Zone[9] == 6*) GOTO 0x107E
177: 0x106C [0x52] END_LOAD_SCHEDULER: End scheduler "s024" with entities [EventEntity, EventEntity], work=898*
178: 0x107B [0x01] GOTO 0x108D
179: 0x107E [0x52] END_LOAD_SCHEDULER: End scheduler "s023" with entities [EventEntity, EventEntity], work=898*

SUBROUTINE_108D:
180: 0x108D [0x45] LOAD_SCHEDULED_TASK: Load scheduler "s014" with entities [EventEntity, EventEntity], work=[898*, 0*]
181: 0x109E [0x2B] Andreine (ID: 17940495/0x0111C00F) [8189*]:
    → "I wonder if by "he," she meant Valli..."
182: 0x10A5 [0x1C] WAIT(30* ticks)
183: 0x10A8 [0x4A] LocalPlayer looks at Andreine (ID: 17940495/0x0111C00F)
184: 0x10B1 [0x6F] WAIT_FRAME_DELAY: Yield until WaitTime reaches zero
185: 0x10B2 [0x76] CHECK_ENTITY_RENDER_FLAGS: Wait until LocalPlayer Render.Flags0 and Render.Flags3 conditions are met
186: 0x10B7 [0x23] WAIT_FOR_DIALOG_INTERACTION
187: 0x10B8 [0x29] REQ_SET_WAIT(priority=0x0F, entity_id=Andreine (ID: 17940495/0x0111C00F), tag_num=0x28)
188: 0x10BF [0x52] END_LOAD_SCHEDULER: End scheduler "s014" with entities [EventEntity, EventEntity], work=898*
189: 0x10CE [0x02] IF !(Work_Zone[9] == 5*) GOTO 0x10EA
190: 0x10D6 [0x45] LOAD_SCHEDULED_TASK: Load scheduler "s020" with entities [EventEntity, EventEntity], work=[898*, 0*]
191: 0x10E7 [0x01] GOTO 0x1117
192: 0x10EA [0x02] IF !(Work_Zone[9] == 6*) GOTO 0x1106
193: 0x10F2 [0x45] LOAD_SCHEDULED_TASK: Load scheduler "s020" with entities [EventEntity, EventEntity], work=[898*, 0*]
194: 0x1103 [0x01] GOTO 0x1117
195: 0x1106 [0x45] LOAD_SCHEDULED_TASK: Load scheduler "s015" with entities [EventEntity, EventEntity], work=[898*, 0*]

SUBROUTINE_1117:
196: 0x1117 [0x79] Andreine (ID: 17940495/0x0111C00F) looks at LocalPlayer (Basic look)
197: 0x1121 [0x29] REQ_SET_WAIT(priority=0x0F, entity_id=Andreine (ID: 17940495/0x0111C00F), tag_num=0x29)
198: 0x1128 [0x2B] Andreine (ID: 17940495/0x0111C00F) [8190*]:
    → "He is a master of the blade, and teaches the art of swordsmanship after being invited as a guest of the Order of Thurandaut."
199: 0x112F [0x23] WAIT_FOR_DIALOG_INTERACTION
200: 0x1130 [0x2B] Andreine (ID: 17940495/0x0111C00F) [8191*]:
    → "Much like the conservator, he also came across the sea from the Middle Lands."
201: 0x1137 [0x23] WAIT_FOR_DIALOG_INTERACTION
202: 0x1138 [0x29] REQ_SET_WAIT(priority=0x0F, entity_id=Andreine (ID: 17940495/0x0111C00F), tag_num=0x2A)
203: 0x113F [0x02] IF !(Work_Zone[9] == 5*) GOTO 0x1159
204: 0x1147 [0x52] END_LOAD_SCHEDULER: End scheduler "s020" with entities [EventEntity, EventEntity], work=898*
205: 0x1156 [0x01] GOTO 0x1182
206: 0x1159 [0x02] IF !(Work_Zone[9] == 6*) GOTO 0x1173
207: 0x1161 [0x52] END_LOAD_SCHEDULER: End scheduler "s020" with entities [EventEntity, EventEntity], work=898*
208: 0x1170 [0x01] GOTO 0x1182
209: 0x1173 [0x52] END_LOAD_SCHEDULER: End scheduler "s015" with entities [EventEntity, EventEntity], work=898*

SUBROUTINE_1182:
210: 0x1182 [0x45] LOAD_SCHEDULED_TASK: Load scheduler "s008" with entities [EventEntity, EventEntity], work=[898*, 0*]
211: 0x1193 [0x29] REQ_SET_WAIT(priority=0x0F, entity_id=Andreine (ID: 17940495/0x0111C00F), tag_num=0x23)
212: 0x119A [0x2B] Andreine (ID: 17940495/0x0111C00F) [8192*]:
    → "Speaking of the Middle Lands... The conservator received a letter from the Federation of Windurst the other day!"
213: 0x11A1 [0x23] WAIT_FOR_DIALOG_INTERACTION
214: 0x11A2 [0x2B] Andreine (ID: 17940495/0x0111C00F) [8193*]:
    → "From what I can remember, the conservator has seemed different ever since receiving it. I am certain that the letter was from Shantotto..."
215: 0x11A9 [0x23] WAIT_FOR_DIALOG_INTERACTION
216: 0x11AA [0x29] REQ_SET_WAIT(priority=0x0F, entity_id=Andreine (ID: 17940495/0x0111C00F), tag_num=0x24)
217: 0x11B1 [0x29] REQ_SET_WAIT(priority=0x0F, entity_id=Andreine (ID: 17940495/0x0111C00F), tag_num=0x25)
218: 0x11B8 [0x5D] SET_MUSIC_VOLUME(volume=0*, fade_time=300*)
219: 0x11BD [0x1A] CALL_SUBROUTINE(address=0x0064)
220: 0x11C0 [0x29] REQ_SET_WAIT(priority=0x0F, entity_id=Andreine (ID: 17940495/0x0111C00F), tag_num=0x26)
221: 0x11C7 [0x2A] GET_REQ_LEVEL(level=15, entity_id=Oshasha (ID: 17940514/0x0111C022))
222: 0x11CD [0x52] END_LOAD_SCHEDULER: End scheduler "s008" with entities [EventEntity, EventEntity], work=898*
223: 0x11DC [0x5C] MUSIC_CONTROL: Set Idle (Day) music to song 63*
224: 0x11E0 [0x5C] MUSIC_CONTROL: Set Idle (Night) music to song 63*
225: 0x11E4 [0x9A] WAIT_MUSIC_SERVER()
226: 0x11E5 [0x5D] SET_MUSIC_VOLUME(volume=127*, fade_time=1*)
227: 0x11EA [0x1C] WAIT(15* ticks)
228: 0x11ED [0xAB] EventEntity->DespawnValue = 0* // Set despawn value
229: 0x11F1 [0x1C] WAIT(1* ticks)
230: 0x11F4 [0x46] CAMERA_CONTROL: Restore default settings
231: 0x11F6 [0x45] LOAD_SCHEDULED_TASK: Load scheduler "fdi2" with entities [EventEntity, EventEntity], work=[200*, 0*]
232: 0x1207 [0x45] LOAD_SCHEDULED_TASK: Load scheduler "qstc" with entities [EventEntity, EventEntity], work=[201*, 0*]
233: 0x1218 [0x21] END_EVENT
234: 0x1219 [0x00] END_REQSTACK()
```

### Event 45

#### Metadata

| Field        | Value     |
|--------------|-----------|
| Entrypoint   | 0x121A    |
| Data Size    | 162 bytes |
| Instructions | 27        |

```
      00 01 02 03 04 05 06 07  08 09 0A 0B 0C 0D 0E 0F
      -- -- -- -- -- -- -- --  -- -- -- -- -- -- -- --
1210:                                4A 0F C0 11 01 F0            J.....
1220: FF FF 7F 6F 76 0F C0 11  01 02 02 10 56 80 04 BA  ...ov.......V...
1230: 12 02 02 10 57 80 05 77  12 03 03 10 24 80 66 58  ....W..w....$.fX
1240: 80 0F C0 11 01 0F C0 11  01 74 6C 6B 30 2B 0F C0  .........tlk0+..
1250: 11 01 59 80 23 2B 0F C0  11 01 5A 80 23 66 58 80  ..Y.#+....Z.#fX.
1260: 0F C0 11 01 0F C0 11 01  74 6C 6B 31 2B 0F C0 11  ........tlk1+...
1270: 01 5B 80 23 01 BA 12 02  02 10 5C 80 00 BA 12 03  .[.#......\.....
1280: 03 10 24 80 66 58 80 0F  C0 11 01 0F C0 11 01 74  ..$.fX.........t
1290: 6C 6B 30 2B 0F C0 11 01  5D 80 23 2B 0F C0 11 01  lk0+....].#+....
12A0: 5E 80 23 66 58 80 0F C0  11 01 0F C0 11 01 74 6C  ^.#fX.........tl
12B0: 6B 31 2B 0F C0 11 01 5F  80 23 21 00              k1+...._.#!.    
```

#### Opcodes

```
  0: 0x121A [0x4A] Andreine (ID: 17940495/0x0111C00F) looks at LocalPlayer
  1: 0x1223 [0x6F] WAIT_FRAME_DELAY: Yield until WaitTime reaches zero
  2: 0x1224 [0x76] CHECK_ENTITY_RENDER_FLAGS: Wait until Andreine (ID: 17940495/0x0111C00F) Render.Flags0 and Render.Flags3 conditions are met
  3: 0x1229 [0x02] IF !(Work_Zone[2] < 510*) GOTO 0x12BA
  4: 0x1231 [0x02] IF !(Work_Zone[2] > 512*) GOTO 0x1277
  5: 0x1239 [0x03] Work_Zone[3] = 3302*
  6: 0x123E [0x66] LOAD_EXT_SCHEDULER_MAIN: Load scheduler "tlk0" with entities [Andreine (ID: 17940495/0x0111C00F), Andreine (ID: 17940495/0x0111C00F)], work=39*
  7: 0x124D [0x2B] Andreine (ID: 17940495/0x0111C00F) [8174*]:
    → "I hope you are able to locate the $3 that the conservator has tasked you with finding."
  8: 0x1254 [0x23] WAIT_FOR_DIALOG_INTERACTION
  9: 0x1255 [0x2B] Andreine (ID: 17940495/0x0111C00F) [8175*]:
    → "However, the Velkk village in the Marjami Ravine is a place fraught with peril."
 10: 0x125C [0x23] WAIT_FOR_DIALOG_INTERACTION
 11: 0x125D [0x66] LOAD_EXT_SCHEDULER_MAIN: Load scheduler "tlk1" with entities [Andreine (ID: 17940495/0x0111C00F), Andreine (ID: 17940495/0x0111C00F)], work=39*
 12: 0x126C [0x2B] Andreine (ID: 17940495/0x0111C00F) [8176*]:
    → "It is also said that the book itself is quite dangerous too. If you do find it, you must not open it, no matter what."
 13: 0x1273 [0x23] WAIT_FOR_DIALOG_INTERACTION
 14: 0x1274 [0x01] GOTO 0x12BA
 15: 0x1277 [0x02] IF !(Work_Zone[2] == 516*) GOTO 0x12BA
 16: 0x127F [0x03] Work_Zone[3] = 3302*
 17: 0x1284 [0x66] LOAD_EXT_SCHEDULER_MAIN: Load scheduler "tlk0" with entities [Andreine (ID: 17940495/0x0111C00F), Andreine (ID: 17940495/0x0111C00F)], work=39*
 18: 0x1293 [0x2B] Andreine (ID: 17940495/0x0111C00F) [8194*]:
    → "The conservator set out to try and solve the mysteries lurking within the $3's pages."
 19: 0x129A [0x23] WAIT_FOR_DIALOG_INTERACTION
 20: 0x129B [0x2B] Andreine (ID: 17940495/0x0111C00F) [8195*]:
    → "I believe she went to visit Valli, who resides with the Order of Thurandaut in Western Adoulin."
 21: 0x12A2 [0x23] WAIT_FOR_DIALOG_INTERACTION
 22: 0x12A3 [0x66] LOAD_EXT_SCHEDULER_MAIN: Load scheduler "tlk1" with entities [Andreine (ID: 17940495/0x0111C00F), Andreine (ID: 17940495/0x0111C00F)], work=39*
 23: 0x12B2 [0x2B] Andreine (ID: 17940495/0x0111C00F) [8196*]:
    → "Still... I am interested to know what has caused such a sudden change in the conservator's usual lethargy."
 24: 0x12B9 [0x23] WAIT_FOR_DIALOG_INTERACTION

SUBROUTINE_12BA:
 25: 0x12BA [0x21] END_EVENT
 26: 0x12BB [0x00] END_REQSTACK()
```

### Event 46

#### Metadata

| Field        | Value      |
|--------------|------------|
| Entrypoint   | 0x12BC     |
| Data Size    | 4644 bytes |
| Instructions | 641        |

```
      00 01 02 03 04 05 06 07  08 09 0A 0B 0C 0D 0E 0F
      -- -- -- -- -- -- -- --  -- -- -- -- -- -- -- --
12B0:                                      42 5D 01 80              B]..
12C0: 40 80 1A 64 00 46 01 38  08 80 2F 00 22 C0 11 01  @..d.F.8../."...
12D0: 2F 00 31 C0 11 01 2F 00  32 C0 11 01 2F 00 33 C0  /.1.../.2.../.3.
12E0: 11 01 2F 00 34 C0 11 01  2F 00 35 C0 11 01 2F 00  ../.4.../.5.../.
12F0: 36 C0 11 01 4E 00 22 C0  11 01 4E 00 31 C0 11 01  6...N."...N.1...
1300: 4E 00 32 C0 11 01 4E 00  33 C0 11 01 92 01 0F C0  N.2...N.3.......
1310: 11 01 94 01 0F C0 11 01  94 01 22 C0 11 01 94 01  ..........".....
1320: 31 C0 11 01 94 01 32 C0  11 01 94 01 33 C0 11 01  1.....2.....3...
1330: 94 01 34 C0 11 01 94 01  35 C0 11 01 94 01 36 C0  ..4.....5.....6.
1340: 11 01 94 01 F0 FF FF 7F  BA 0F C0 11 01 09 80 0A  ................
1350: 80 0B 80 0C 80 59 05 22  C0 11 01 01 BA 22 C0 11  .....Y."....."..
1360: 01 60 80 61 80 62 80 63  80 BA 31 C0 11 01 64 80  .`.a.b.c..1...d.
1370: 65 80 0B 80 66 80 BA 32  C0 11 01 67 80 68 80 0B  e...f..2...g.h..
1380: 80 69 80 BA 33 C0 11 01  6A 80 6B 80 6C 80 6D 80  .i..3...j.k.l.m.
1390: BA 34 C0 11 01 6E 80 6F  80 70 80 71 80 BA 35 C0  .4...n.o.p.q..5.
13A0: 11 01 72 80 73 80 74 80  75 80 BA 36 C0 11 01 76  ..r.s.t.u..6...v
13B0: 80 77 80 78 80 79 80 29  0F F0 FF FF 7F 17 02 09  .w.x.y.)........
13C0: 10 11 80 00 D6 13 BA F0  FF FF 7F 12 80 13 80 14  ................
13D0: 80 15 80 01 FB 13 02 09  10 16 80 00 EE 13 BA F0  ................
13E0: FF FF 7F 12 80 13 80 14  80 15 80 01 FB 13 BA F0  ................
13F0: FF FF 7F 17 80 18 80 19  80 1A 80 80 0F C0 11 01  ................
1400: 80 22 C0 11 01 80 31 C0  11 01 80 32 C0 11 01 80  ."....1....2....
1410: 34 C0 11 01 80 35 C0 11  01 80 33 C0 11 01 80 F0  4....5....3.....
1420: FF FF 7F 29 0F 0F C0 11  01 23 29 0F 31 C0 11 01  ...).....#).1...
1430: 01 4B 22 C0 11 01 7A 80  4A 32 C0 11 01 22 C0 11  .K"...z.J2..."..
1440: 01 4A 31 C0 11 01 22 C0  11 01 4A F0 FF FF 7F 0F  .J1..."...J.....
1450: C0 11 01 4A 0F C0 11 01  F0 FF FF 7F 6F 76 0F C0  ...J........ov..
1460: 11 01 6F 76 F0 FF FF 7F  6F 76 22 C0 11 01 6F 76  ..ov....ov"...ov
1470: 31 C0 11 01 6F 76 32 C0  11 01 29 0F 31 C0 11 01  1...ov2...).1...
1480: 02 7B 31 C0 11 01 45 1D  80 F8 FF FF 7F F8 FF FF  .{1...E.........
1490: 7F 73 30 30 30 01 80 1A  43 00 2B 0F C0 11 01 7B  .s000...C.+....{
14A0: 80 23 1A 64 00 29 0F 0F  C0 11 01 24 1C 1F 80 52  .#.d.).....$...R
14B0: 1D 80 F8 FF FF 7F F8 FF  FF 7F 73 30 30 30 7B F0  ..........s000{.
14C0: FF FF 7F BA F0 FF FF 7F  7C 80 7D 80 0B 80 7E 80  ........|.}...~.
14D0: 5C 00 44 80 5C 01 44 80  9A 5D 1C 80 03 80 29 0F  \.D.\.D..]....).
14E0: 22 C0 11 01 1A 45 1D 80  F8 FF FF 7F F8 FF FF 7F  "....E..........
14F0: 73 30 32 35 01 80 1A 43  00 1C 7F 80 52 1D 80 F8  s025...C....R...
1500: FF FF 7F F8 FF FF 7F 73  30 32 35 45 1D 80 F8 FF  .......s025E....
1510: FF 7F F8 FF FF 7F 73 30  32 36 01 80 03 03 10 24  ......s026.....$
1520: 80 2B 22 C0 11 01 80 80  23 2B 22 C0 11 01 81 80  .+".....#+".....
1530: 23 29 0F 22 C0 11 01 1B  52 1D 80 F8 FF FF 7F F8  #)."....R.......
1540: FF FF 7F 73 30 32 36 45  1D 80 F8 FF FF 7F F8 FF  ...s026E........
1550: FF 7F 73 30 32 37 01 80  79 00 31 C0 11 01 32 C0  ..s027..y.1...2.
1560: 11 01 29 0F 31 C0 11 01  03 2B 31 C0 11 01 82 80  ..).1....+1.....
1570: 1C 06 80 79 00 32 C0 11  01 31 C0 11 01 23 29 0F  ...y.2...1...#).
1580: 31 C0 11 01 04 79 00 31  C0 11 01 22 C0 11 01 2B  1....y.1..."...+
1590: 31 C0 11 01 83 80 23 27  0F F0 FF FF 7F 18 1C 11  1.....#'........
15A0: 80 52 1D 80 F8 FF FF 7F  F8 FF FF 7F 73 30 32 37  .R..........s027
15B0: 45 1D 80 F8 FF FF 7F F8  FF FF 7F 73 30 32 38 01  E..........s028.
15C0: 80 79 00 31 C0 11 01 32  C0 11 01 29 0F 32 C0 11  .y.1...2...).2..
15D0: 01 0D 2B 32 C0 11 01 84  80 23 29 0F 32 C0 11 01  ..+2.....#).2...
15E0: 0E 2A 0F F0 FF FF 7F 4A  22 C0 11 01 F0 FF FF 7F  .*.....J".......
15F0: 79 00 32 C0 11 01 F0 FF  FF 7F 79 00 F0 FF FF 7F  y.2.......y.....
1600: 32 C0 11 01 29 0F 32 C0  11 01 0F 29 0F 32 C0 11  2...).2....).2..
1610: 01 10 4B 32 C0 11 01 85  80 6F 76 32 C0 11 01 79  ..K2.....ov2...y
1620: 00 31 C0 11 01 F0 FF FF  7F 6F 76 22 C0 11 01 2B  .1.......ov"...+
1630: 32 C0 11 01 86 80 1C 87  80 79 00 32 C0 11 01 22  2........y.2..."
1640: C0 11 01 79 00 31 C0 11  01 22 C0 11 01 23 52 1D  ...y.1..."...#R.
1650: 80 F8 FF FF 7F F8 FF FF  7F 73 30 32 38 45 1D 80  .........s028E..
1660: F8 FF FF 7F F8 FF FF 7F  73 30 32 39 01 80 4A 22  ........s029..J"
1670: C0 11 01 32 C0 11 01 6F  76 22 C0 11 01 4A 32 C0  ...2...ov"...J2.
1680: 11 01 22 C0 11 01 29 0F  22 C0 11 01 22 2B 22 C0  .."...)."..."+".
1690: 11 01 88 80 23 29 0F 22  C0 11 01 23 6F 76 32 C0  ....#)."...#ov2.
16A0: 11 01 2B 32 C0 11 01 89  80 23 52 1D 80 F8 FF FF  ..+2.....#R.....
16B0: 7F F8 FF FF 7F 73 30 32  39 45 1D 80 F8 FF FF 7F  .....s029E......
16C0: F8 FF FF 7F 73 30 33 30  01 80 7B 32 C0 11 01 29  ....s030..{2...)
16D0: 0F 32 C0 11 01 1B 2B 32  C0 11 01 8A 80 23 29 0F  .2....+2.....#).
16E0: 32 C0 11 01 1C 29 0F 32  C0 11 01 1D 52 1D 80 F8  2....).2....R...
16F0: FF FF 7F F8 FF FF 7F 73  30 33 30 45 1D 80 F8 FF  .......s030E....
1700: FF 7F F8 FF FF 7F 73 30  33 31 01 80 4A 31 C0 11  ......s031..J1..
1710: 01 22 C0 11 01 2B 22 C0  11 01 8B 80 23 6F 76 31  ."...+".....#ov1
1720: C0 11 01 5D 01 80 40 80  1A 0B 02 1C 1F 80 29 0F  ...]..@.......).
1730: 32 C0 11 01 1E 52 1D 80  F8 FF FF 7F F8 FF FF 7F  2....R..........
1740: 73 30 33 31 5C 00 8C 80  5C 01 8C 80 9A 5D 1C 80  s031\...\....]..
1750: 03 80 48 8D 80 89 8E 80  1C 1F 80 B4 14 01 80 01  ..H.............
1760: 80 8F 80 01 80 03 80 B4  14 01 80 01 80 90 80 91  ................
1770: 80 03 80 1A F9 01 1C 92  80 2B 22 C0 11 01 93 80  .........+".....
1780: 23 1C 40 80 2B 22 C0 11  01 94 80 23 1C 95 80 2B  #.@.+".....#...+
1790: 22 C0 11 01 96 80 23 1C  95 80 1A 0B 02 8A B4 15  ".....#.........
17A0: 48 8D 80 79 00 22 C0 11  01 31 C0 11 01 4A 32 C0  H..y."...1...J2.
17B0: 11 01 22 C0 11 01 4A F0  FF FF 7F 22 C0 11 01 29  .."...J...."...)
17C0: 0F 31 C0 11 01 01 29 0F  31 C0 11 01 02 6F 76 F0  .1....).1....ov.
17D0: FF FF 7F 6F 76 32 C0 11  01 45 1D 80 F8 FF FF 7F  ...ov2...E......
17E0: F8 FF FF 7F 73 30 33 32  01 80 1A F9 01 2B 31 C0  ....s032.....+1.
17F0: 11 01 97 80 23 29 0F 32  C0 11 01 1F 1C 11 80 52  ....#).2.......R
1800: 1D 80 F8 FF FF 7F F8 FF  FF 7F 73 30 33 32 45 1D  ..........s032E.
1810: 80 F8 FF FF 7F F8 FF FF  7F 73 30 33 33 01 80 79  .........s033..y
1820: 00 22 C0 11 01 32 C0 11  01 2B 32 C0 11 01 98 80  ."...2...+2.....
1830: 23 29 0F 32 C0 11 01 20  29 0F 32 C0 11 01 21 6E  #).2... ).2...!n
1840: 22 C0 11 01 37 80 99 22  C0 11 01 2B 22 C0 11 01  "...7.."...+"...
1850: 99 80 23 29 0F 32 C0 11  01 22 52 1D 80 F8 FF FF  ..#).2..."R.....
1860: 7F F8 FF FF 7F 73 30 33  33 45 1D 80 F8 FF FF 7F  .....s033E......
1870: F8 FF FF 7F 73 30 33 34  01 80 29 0F 22 C0 11 01  ....s034..)."...
1880: 1A 2B 22 C0 11 01 9A 80  23 2B 22 C0 11 01 9B 80  .+".....#+".....
1890: 23 5D 06 80 40 80 1A 64  00 29 0F 22 C0 11 01 1B  #]..@..d.)."....
18A0: 52 1D 80 F8 FF FF 7F F8  FF FF 7F 73 30 33 34 34  R..........s0344
18B0: 9C 80 77 9D 80 03 80 1C  03 80 69 01 9E 80 4E 00  ..w.......i...N.
18C0: 34 C0 11 01 4E 00 35 C0  11 01 4E 00 36 C0 11 01  4...N.5...N.6...
18D0: 80 34 C0 11 01 80 35 C0  11 01 80 36 C0 11 01 4E  .4....5....6...N
18E0: 00 F8 FF FF 7F 80 F8 FF  FF 7F BA 34 C0 11 01 9F  ...........4....
18F0: 80 A0 80 A1 80 A2 80 BA  35 C0 11 01 A3 80 A4 80  ........5.......
1900: A5 80 A2 80 BA 36 C0 11  01 A6 80 A7 80 A8 80 75  .....6.........u
1910: 80 59 05 F8 FF FF 7F 01  BA F8 FF FF 7F 76 80 77  .Y...........v.w
1920: 80 A9 80 79 80 6C 22 C0  11 01 01 80 03 80 6C 31  ...y.l".......l1
1930: C0 11 01 01 80 03 80 6C  32 C0 11 01 01 80 03 80  .......l2.......
1940: 6C 0F C0 11 01 01 80 03  80 6C 33 C0 11 01 01 80  l........l3.....
1950: 03 80 6C F0 FF FF 7F 01  80 03 80 1C 03 80 27 0F  ..l...........'.
1960: 34 C0 11 01 4D 27 0F 35  C0 11 01 4E 27 0F 36 C0  4...M'.5...N'.6.
1970: 11 01 4B 45 1D 80 F8 FF  FF 7F F8 FF FF 7F 73 30  ..KE..........s0
1980: 33 35 01 80 1A D8 01 1C  1F 80 52 1D 80 F8 FF FF  35........R.....
1990: 7F F8 FF FF 7F 73 30 33  35 45 1D 80 F8 FF FF 7F  .....s035E......
19A0: F8 FF FF 7F 73 30 33 39  01 80 2B 22 C0 11 01 AA  ....s039..+"....
19B0: 80 1C 38 80 2A 0F 36 C0  11 01 52 1D 80 F8 FF FF  ..8.*.6...R.....
19C0: 7F F8 FF FF 7F 73 30 33  39 45 1D 80 F8 FF FF 7F  .....s039E......
19D0: F8 FF FF 7F 73 30 34 37  01 80 2A 0F 35 C0 11 01  ....s047..*.5...
19E0: 2A 0F 34 C0 11 01 23 D5  AB 80 F8 FF FF 7F F8 FF  *.4...#.........
19F0: FF 7F 63 73 75 7A 01 80  81 00 34 C0 11 01 81 00  ..csuz....4.....
1A00: 36 C0 11 01 29 0F 36 C0  11 01 35 52 1D 80 F8 FF  6...).6...5R....
1A10: FF 7F F8 FF FF 7F 73 30  34 37 45 1D 80 F8 FF FF  ......s047E.....
1A20: 7F F8 FF FF 7F 73 30 35  31 01 80 2B 22 C0 11 01  .....s051..+"...
1A30: AC 80 1C 38 80 29 0F 34  C0 11 01 35 29 0F 36 C0  ...8.).4...5).6.
1A40: 11 01 36 52 1D 80 F8 FF  FF 7F F8 FF FF 7F 73 30  ..6R..........s0
1A50: 35 31 45 1D 80 F8 FF FF  7F F8 FF FF 7F 73 30 34  51E..........s04
1A60: 32 01 80 D5 AB 80 F8 FF  FF 7F F8 FF FF 7F 65 66  2.............ef
1A70: 6B 6C 01 80 1C 38 80 29  0F 34 C0 11 01 36 1A 64  kl...8.).4...6.d
1A80: 00 23 45 1D 80 F8 FF FF  7F F8 FF FF 7F 62 72 6F  .#E..........bro
1A90: 66 01 80 2B 22 C0 11 01  AD 80 23 52 1D 80 F8 FF  f..+".....#R....
1AA0: FF 7F F8 FF FF 7F 73 30  34 32 35 AE 80 78 1C 43  ......s0425..x.C
1AB0: 80 22 00 BA 0F C0 11 01  09 80 0A 80 0B 80 0C 80  ."..............
1AC0: 59 05 22 C0 11 01 01 BA  22 C0 11 01 60 80 61 80  Y."....."...`.a.
1AD0: 62 80 63 80 BA 31 C0 11  01 64 80 65 80 0B 80 66  b.c..1...d.e...f
1AE0: 80 BA 32 C0 11 01 67 80  68 80 0B 80 69 80 BA 33  ..2...g.h...i..3
1AF0: C0 11 01 6A 80 6B 80 6C  80 6D 80 BA F0 FF FF 7F  ...j.k.l.m......
1B00: AF 80 B0 80 0B 80 69 80  81 01 34 C0 11 01 81 01  ......i...4.....
1B10: 36 C0 11 01 6C 22 C0 11  01 B1 80 03 80 6C 31 C0  6...l".......l1.
1B20: 11 01 B1 80 03 80 6C 32  C0 11 01 B1 80 03 80 6C  ......l2.......l
1B30: 0F C0 11 01 B1 80 03 80  6C 33 C0 11 01 B1 80 03  ........l3......
