# 0x7FFFFFF0 - Zone Events

## Common Data

| Field            | Value                               |
|------------------|-------------------------------------|
| Zone             | Celennia Memorial Library (ID: 284) |
| Block Size       | 1076 bytes                          |
| Total Events     | 26                                  |
| References Count | 44                                  |

## List of Events

| Event ID                   | Entrypoint   |   Size |   Instructions |
|----------------------------|--------------|--------|----------------|
| [65535](#event-65535)      | 0x0000       |      1 |              1 |
| [65534](#event-65534)      | 0x0001       |      1 |              1 |
| [65535.1](#event-655351)   | 0x0002       |     37 |              5 |
| [65535.2](#event-655352)   | 0x0027       |     37 |              5 |
| [65535.3](#event-655353)   | 0x004C       |     24 |              4 |
| [65535.4](#event-655354)   | 0x0064       |     24 |              4 |
| [65535.5](#event-655355)   | 0x007C       |    175 |             37 |
| [65535.6](#event-655356)   | 0x012B       |     24 |              4 |
| [65535.7](#event-655357)   | 0x0143       |     24 |              4 |
| [65535.8](#event-655358)   | 0x015B       |     38 |              5 |
| [65535.9](#event-655359)   | 0x0181       |     38 |              5 |
| [65535.10](#event-6553510) | 0x01A7       |     38 |              5 |
| [65535.11](#event-6553511) | 0x01CD       |     37 |              5 |
| [65535.12](#event-6553512) | 0x01F2       |     37 |              5 |
| [65535.13](#event-6553513) | 0x0217       |     42 |              6 |
| [65535.14](#event-6553514) | 0x0241       |     14 |              4 |
| [65535.15](#event-6553515) | 0x024F       |     22 |              6 |
| [65535.16](#event-6553516) | 0x0265       |     22 |              6 |
| [65535.17](#event-6553517) | 0x027B       |     22 |              6 |
| [65535.18](#event-6553518) | 0x0291       |     22 |              6 |
| [65535.19](#event-6553519) | 0x02A7       |     22 |              6 |
| [65535.20](#event-6553520) | 0x02BD       |     22 |              6 |
| [65535.21](#event-6553521) | 0x02D3       |     14 |              4 |
| [65535.22](#event-6553522) | 0x02E1       |      6 |              2 |
| [65535.23](#event-6553523) | 0x02E7       |     15 |              5 |
| [65535.24](#event-6553524) | 0x02F6       |     22 |              8 |

## DAT References (imed_data)

|   Index | Hex Value   |   Dec Value |
|---------|-------------|-------------|
|       0 | 0x0005      |           5 |
|       1 | 0x0001      |           1 |
|       2 | 0x0002      |           2 |
|       3 | 0x000A      |          10 |
|       4 | 0x0009      |           9 |
|       5 | 0x0046      |          70 |
|       6 | 0x008C      |         140 |
|       7 | 0x00D2      |         210 |
|       8 | 0x0008      |           8 |
|       9 | 0x0007      |           7 |
|      10 | 0x0091      |         145 |
|      11 | 0x004F      |          79 |
|      12 | 0x004C      |          76 |
|      13 | 0x00C9      |         201 |
|      14 | 0x0018      |          24 |
|      15 | 0x0020      |          32 |
|      16 | 0x0030      |          48 |
|      17 | 0x0040      |          64 |
|      18 | 0x003C      |          60 |
|      19 | 0x000D      |          13 |
|      20 | 0xFFFE851A  |  4294870298 |
|      21 | 0xFFFEAAC1  |  4294879937 |
|      22 | 0xFFFFF79B  |  4294965147 |
|      23 | 0xFFFE67C0  |  4294862784 |
|      24 | 0xFFFE888B  |  4294871179 |
|      25 | 0x001E      |          30 |
|      26 | 0xFFFE45D6  |  4294854102 |
|      27 | 0xFFFE9425  |  4294874149 |
|      28 | 0xFFFE870C  |  4294870796 |
|      29 | 0xFFFEAD41  |  4294880577 |
|      30 | 0xFFFE5BE9  |  4294859753 |
|      31 | 0xFFFEB374  |  4294882164 |
|      32 | 0xFFFE832D  |  4294869805 |
|      33 | 0xFFFEAD7D  |  4294880637 |
|      34 | 0xFFFE53CA  |  4294857674 |
|      35 | 0xFFFE9176  |  4294873462 |
|      36 | 0x0028      |          40 |
|      37 | 0xFFFE8E5F  |  4294872671 |
|      38 | 0xFFFEB4FD  |  4294882557 |
|      39 | 0xFFFFF5A7  |  4294964647 |
|      40 | 0xFFFE602A  |  4294860842 |
|      41 | 0xFFFE7FEF  |  4294868975 |
|      42 | 0xFFFE5AA9  |  4294859433 |
|      43 | 0xFFFE7D1B  |  4294868251 |

## Events

### Event 65535

#### Metadata

| Field        | Value   |
|--------------|---------|
| Entrypoint   | 0x0000  |
| Data Size    | 1 bytes |
| Instructions | 1       |

```
      00 01 02 03 04 05 06 07  08 09 0A 0B 0C 0D 0E 0F
      -- -- -- -- -- -- -- --  -- -- -- -- -- -- -- --
0000: 00                                                .               
```

#### Opcodes

```
  0: 0x0000 [0x00] END_REQSTACK()
```

### Event 65534

#### Metadata

| Field        | Value   |
|--------------|---------|
| Entrypoint   | 0x0001  |
| Data Size    | 1 bytes |
| Instructions | 1       |

```
      00 01 02 03 04 05 06 07  08 09 0A 0B 0C 0D 0E 0F
      -- -- -- -- -- -- -- --  -- -- -- -- -- -- -- --
0000:    00                                              .              
```

#### Opcodes

```
  0: 0x0001 [0x00] END_REQSTACK()
```

### Event 65535.1

#### Metadata

| Field        | Value    |
|--------------|----------|
| Entrypoint   | 0x0002   |
| Data Size    | 37 bytes |
| Instructions | 5        |

```
      00 01 02 03 04 05 06 07  08 09 0A 0B 0C 0D 0E 0F
      -- -- -- -- -- -- -- --  -- -- -- -- -- -- -- --
0000:       03 00 00 07 7F 1A  97 00 66 01 00 F8 FF FF    ........f.....
0010: 7F F8 FF FF 7F 73 68 61  30 53 F8 FF FF 7F F8 FF  .....sha0S......
0020: FF 7F 73 68 61 30 00                              ..sha0.         
```

#### Opcodes

```
  0: 0x0002 [0x03] ExtData[1]->WorkLocal[0] = Entity->Race
  1: 0x0007 [0x1A] CALL_SUBROUTINE(address=0x0097)
  2: 0x000A [0x66] LOAD_EXT_SCHEDULER_MAIN: Load scheduler "sha0" with entities [EventEntity, EventEntity], work=ExtData[1]->WorkLocal[1]
  3: 0x0019 [0x53] WAIT_SCHEDULER_TASK: Wait for scheduler "sha0" with entities [EventEntity, EventEntity]
  4: 0x0026 [0x00] END_REQSTACK()
```

### Event 65535.2

#### Metadata

| Field        | Value    |
|--------------|----------|
| Entrypoint   | 0x0027   |
| Data Size    | 37 bytes |
| Instructions | 5        |

```
      00 01 02 03 04 05 06 07  08 09 0A 0B 0C 0D 0E 0F
      -- -- -- -- -- -- -- --  -- -- -- -- -- -- -- --
0020:                      03  00 00 07 7F 1A 97 00 66         ........f
0030: 01 00 F8 FF FF 7F F8 FF  FF 7F 73 68 61 31 53 F8  ..........sha1S.
0040: FF FF 7F F8 FF FF 7F 73  68 61 31 00              .......sha1.    
```

#### Opcodes

```
  0: 0x0027 [0x03] ExtData[1]->WorkLocal[0] = Entity->Race
  1: 0x002C [0x1A] CALL_SUBROUTINE(address=0x0097)
  2: 0x002F [0x66] LOAD_EXT_SCHEDULER_MAIN: Load scheduler "sha1" with entities [EventEntity, EventEntity], work=ExtData[1]->WorkLocal[1]
  3: 0x003E [0x53] WAIT_SCHEDULER_TASK: Wait for scheduler "sha1" with entities [EventEntity, EventEntity]
  4: 0x004B [0x00] END_REQSTACK()
```

### Event 65535.3

#### Metadata

| Field        | Value    |
|--------------|----------|
| Entrypoint   | 0x004C   |
| Data Size    | 24 bytes |
| Instructions | 4        |

```
      00 01 02 03 04 05 06 07  08 09 0A 0B 0C 0D 0E 0F
      -- -- -- -- -- -- -- --  -- -- -- -- -- -- -- --
0040:                                      03 00 00 07              ....
0050: 7F 1A 97 00 66 01 00 F8  FF FF 7F F8 FF FF 7F 74  ....f..........t
0060: 68 6B 31 00                                       hk1.            
```

#### Opcodes

```
  0: 0x004C [0x03] ExtData[1]->WorkLocal[0] = Entity->Race
  1: 0x0051 [0x1A] CALL_SUBROUTINE(address=0x0097)
  2: 0x0054 [0x66] LOAD_EXT_SCHEDULER_MAIN: Load scheduler "thk1" with entities [EventEntity, EventEntity], work=ExtData[1]->WorkLocal[1]
  3: 0x0063 [0x00] END_REQSTACK()
```

### Event 65535.4

#### Metadata

| Field        | Value    |
|--------------|----------|
| Entrypoint   | 0x0064   |
| Data Size    | 24 bytes |
| Instructions | 4        |

```
      00 01 02 03 04 05 06 07  08 09 0A 0B 0C 0D 0E 0F
      -- -- -- -- -- -- -- --  -- -- -- -- -- -- -- --
0060:             03 00 00 07  7F 1A 97 00 66 01 00 F8      ........f...
0070: FF FF 7F F8 FF FF 7F 74  68 6B 32 00              .......thk2.    
```

#### Opcodes

```
  0: 0x0064 [0x03] ExtData[1]->WorkLocal[0] = Entity->Race
  1: 0x0069 [0x1A] CALL_SUBROUTINE(address=0x0097)
  2: 0x006C [0x66] LOAD_EXT_SCHEDULER_MAIN: Load scheduler "thk2" with entities [EventEntity, EventEntity], work=ExtData[1]->WorkLocal[1]
  3: 0x007B [0x00] END_REQSTACK()
```

### Event 65535.5

#### Metadata

| Field        | Value     |
|--------------|-----------|
| Entrypoint   | 0x007C    |
| Data Size    | 175 bytes |
| Instructions | 13        |

```
      00 01 02 03 04 05 06 07  08 09 0A 0B 0C 0D 0E 0F
      -- -- -- -- -- -- -- --  -- -- -- -- -- -- -- --
0070:                                      03 00 00 07              ....
0080: 7F 1A BC 00 0B 01 00 66  01 00 F8 FF FF 7F F8 FF  .......f........
0090: FF 7F 70 61 73 30 00 03  01 00 00 00 02 01 00 00  ..pas0..........
00A0: 80 05 AC 00 08 01 00 01  80 01 B1 00 08 01 00 02  ................
00B0: 80 14 01 00 03 80 07 01  00 04 80 1B 03 01 00 00  ................
00C0: 00 02 01 00 00 80 05 D1  00 08 01 00 01 80 01 D6  ................
00D0: 00 08 01 00 02 80 14 01  00 03 80 07 01 00 05 80  ................
00E0: 1B 03 01 00 00 00 02 01  00 00 80 05 F6 00 08 01  ................
00F0: 00 01 80 01 FB 00 08 01  00 02 80 14 01 00 03 80  ................
0100: 07 01 00 06 80 1B 03 01  00 00 00 02 01 00 00 80  ................
0110: 05 1B 01 08 01 00 01 80  01 20 01 08 01 00 02 80  ......... ......
0120: 14 01 00 03 80 07 01 00  07 80 1B                 ...........     
```

#### Opcodes

```
  0: 0x007C [0x03] ExtData[1]->WorkLocal[0] = Entity->Race
  1: 0x0081 [0x1A] CALL_SUBROUTINE(address=0x00BC)
  2: 0x0084 [0x0B] ExtData[1]->WorkLocal[1]++
  3: 0x0087 [0x66] LOAD_EXT_SCHEDULER_MAIN: Load scheduler "pas0" with entities [EventEntity, EventEntity], work=ExtData[1]->WorkLocal[1]
  4: 0x0096 [0x00] END_REQSTACK()

SUBROUTINE_00BC:
  5: 0x00BC [0x03] ExtData[1]->WorkLocal[1] = ExtData[1]->WorkLocal[0]
  6: 0x00C1 [0x02] IF !(ExtData[1]->WorkLocal[1] > 5*) GOTO 0x00D1
  7: 0x00C9 [0x08] ExtData[1]->WorkLocal[1] -= 1*
  8: 0x00CE [0x01] GOTO 0x00D6
  9: 0x00D1 [0x08] ExtData[1]->WorkLocal[1] -= 2*

SUBROUTINE_00D6:
 10: 0x00D6 [0x14] ExtData[1]->WorkLocal[1] *= 10*
 11: 0x00DB [0x07] ExtData[1]->WorkLocal[1] += 70*
 12: 0x00E0 [0x1B] RETURN
```

#### Data or dead code:

```
# Dead code (unreachable instructions):
     0x0097 [0x03] ExtData[1]->WorkLocal[1] = ExtData[1]->WorkLocal[0]
     0x009C [0x02] IF !(ExtData[1]->WorkLocal[1] > 5*) GOTO 0x00AC
     0x00A4 [0x08] ExtData[1]->WorkLocal[1] -= 1*
     0x00A9 [0x01] GOTO 0x00B1
     0x00AC [0x08] ExtData[1]->WorkLocal[1] -= 2*
     0x00B1 [0x14] ExtData[1]->WorkLocal[1] *= 10*
     0x00B6 [0x07] ExtData[1]->WorkLocal[1] += 9*
     0x00BB [0x1B] RETURN
# Dead code (unreachable instructions):
     0x00E1 [0x03] ExtData[1]->WorkLocal[1] = ExtData[1]->WorkLocal[0]
     0x00E6 [0x02] IF !(ExtData[1]->WorkLocal[1] > 5*) GOTO 0x00F6
     0x00EE [0x08] ExtData[1]->WorkLocal[1] -= 1*
     0x00F3 [0x01] GOTO 0x00FB
     0x00F6 [0x08] ExtData[1]->WorkLocal[1] -= 2*
     0x00FB [0x14] ExtData[1]->WorkLocal[1] *= 10*
     0x0100 [0x07] ExtData[1]->WorkLocal[1] += 140*
     0x0105 [0x1B] RETURN
     0x0106 [0x03] ExtData[1]->WorkLocal[1] = ExtData[1]->WorkLocal[0]
     0x010B [0x02] IF !(ExtData[1]->WorkLocal[1] > 5*) GOTO 0x011B
     0x0113 [0x08] ExtData[1]->WorkLocal[1] -= 1*
     0x0118 [0x01] GOTO 0x0120
     0x011B [0x08] ExtData[1]->WorkLocal[1] -= 2*
     0x0120 [0x14] ExtData[1]->WorkLocal[1] *= 10*
     0x0125 [0x07] ExtData[1]->WorkLocal[1] += 210*
     0x012A [0x1B] RETURN
```

### Event 65535.6

#### Metadata

| Field        | Value    |
|--------------|----------|
| Entrypoint   | 0x012B   |
| Data Size    | 24 bytes |
| Instructions | 4        |

```
      00 01 02 03 04 05 06 07  08 09 0A 0B 0C 0D 0E 0F
      -- -- -- -- -- -- -- --  -- -- -- -- -- -- -- --
0120:                                   03 00 00 07 7F             .....
0130: 1A 97 00 66 01 00 F8 FF  FF 7F F8 FF FF 7F 74 6C  ...f..........tl
0140: 6B 30 00                                          k0.             
```

#### Opcodes

```
  0: 0x012B [0x03] ExtData[1]->WorkLocal[0] = Entity->Race
  1: 0x0130 [0x1A] CALL_SUBROUTINE(address=0x0097)
  2: 0x0133 [0x66] LOAD_EXT_SCHEDULER_MAIN: Load scheduler "tlk0" with entities [EventEntity, EventEntity], work=ExtData[1]->WorkLocal[1]
  3: 0x0142 [0x00] END_REQSTACK()
```

### Event 65535.7

#### Metadata

| Field        | Value    |
|--------------|----------|
| Entrypoint   | 0x0143   |
| Data Size    | 24 bytes |
| Instructions | 4        |

```
      00 01 02 03 04 05 06 07  08 09 0A 0B 0C 0D 0E 0F
      -- -- -- -- -- -- -- --  -- -- -- -- -- -- -- --
0140:          03 00 00 07 7F  1A 97 00 66 01 00 F8 FF     ........f....
0150: FF 7F F8 FF FF 7F 74 6C  6B 31 00                 ......tlk1.     
```

#### Opcodes

```
  0: 0x0143 [0x03] ExtData[1]->WorkLocal[0] = Entity->Race
  1: 0x0148 [0x1A] CALL_SUBROUTINE(address=0x0097)
  2: 0x014B [0x66] LOAD_EXT_SCHEDULER_MAIN: Load scheduler "tlk1" with entities [EventEntity, EventEntity], work=ExtData[1]->WorkLocal[1]
  3: 0x015A [0x00] END_REQSTACK()
```

### Event 65535.8

#### Metadata

| Field        | Value    |
|--------------|----------|
| Entrypoint   | 0x015B   |
| Data Size    | 38 bytes |
| Instructions | 5        |

```
      00 01 02 03 04 05 06 07  08 09 0A 0B 0C 0D 0E 0F
      -- -- -- -- -- -- -- --  -- -- -- -- -- -- -- --
0150:                                   22 00 2F 00 F8             "./..
0160: FF FF 7F B6 0B 08 80 09  80 0A 80 0B 80 0C 80 0C  ................
0170: 80 0C 80 0D 80 0E 80 6C  F8 FF FF 7F 0F 80 01 80  .......l........
0180: 00                                                .               
```

#### Opcodes

```
  0: 0x015B [0x22] ENTITY_HIDE_FLAG(enabled=0x00)
  1: 0x015D [0x2F] EventEntity->Render.Flags0 &= ~0x80000 // Bit 19
  2: 0x0163 [0xB6] ENTITY_APPEARANCE_HANDLER(case=Full entity look, race=8*, hair=7*, head=145*, body=79*, hands=76*, legs=76*, feet=76*, main=201*, sub=24*)
  3: 0x0177 [0x6C] FADE_ENTITY_COLOR(entity_id=EventEntity, end_alpha=32*, fade_time=1*)
  4: 0x0180 [0x00] END_REQSTACK()
```

### Event 65535.9

#### Metadata

| Field        | Value    |
|--------------|----------|
| Entrypoint   | 0x0181   |
| Data Size    | 38 bytes |
| Instructions | 5        |

```
      00 01 02 03 04 05 06 07  08 09 0A 0B 0C 0D 0E 0F
      -- -- -- -- -- -- -- --  -- -- -- -- -- -- -- --
0180:    22 00 2F 00 F8 FF FF  7F B6 0B 09 80 09 80 0A   "./............
0190: 80 0B 80 0C 80 0C 80 0C  80 0D 80 0E 80 6C F8 FF  .............l..
01A0: FF 7F 10 80 01 80 00                              .......         
```

#### Opcodes

```
  0: 0x0181 [0x22] ENTITY_HIDE_FLAG(enabled=0x00)
  1: 0x0183 [0x2F] EventEntity->Render.Flags0 &= ~0x80000 // Bit 19
  2: 0x0189 [0xB6] ENTITY_APPEARANCE_HANDLER(case=Full entity look, race=7*, hair=7*, head=145*, body=79*, hands=76*, legs=76*, feet=76*, main=201*, sub=24*)
  3: 0x019D [0x6C] FADE_ENTITY_COLOR(entity_id=EventEntity, end_alpha=48*, fade_time=1*)
  4: 0x01A6 [0x00] END_REQSTACK()
```

### Event 65535.10

#### Metadata

| Field        | Value    |
|--------------|----------|
| Entrypoint   | 0x01A7   |
| Data Size    | 38 bytes |
| Instructions | 5        |

```
      00 01 02 03 04 05 06 07  08 09 0A 0B 0C 0D 0E 0F
      -- -- -- -- -- -- -- --  -- -- -- -- -- -- -- --
01A0:                      22  00 2F 00 F8 FF FF 7F B6         "./......
01B0: 0B 00 80 09 80 0A 80 0B  80 0C 80 0C 80 0C 80 0D  ................
01C0: 80 0E 80 6C F8 FF FF 7F  11 80 01 80 00           ...l.........   
```

#### Opcodes

```
  0: 0x01A7 [0x22] ENTITY_HIDE_FLAG(enabled=0x00)
  1: 0x01A9 [0x2F] EventEntity->Render.Flags0 &= ~0x80000 // Bit 19
  2: 0x01AF [0xB6] ENTITY_APPEARANCE_HANDLER(case=Full entity look, race=5*, hair=7*, head=145*, body=79*, hands=76*, legs=76*, feet=76*, main=201*, sub=24*)
  3: 0x01C3 [0x6C] FADE_ENTITY_COLOR(entity_id=EventEntity, end_alpha=64*, fade_time=1*)
  4: 0x01CC [0x00] END_REQSTACK()
```

### Event 65535.11

#### Metadata

| Field        | Value    |
|--------------|----------|
| Entrypoint   | 0x01CD   |
| Data Size    | 37 bytes |
| Instructions | 5        |

```
      00 01 02 03 04 05 06 07  08 09 0A 0B 0C 0D 0E 0F
      -- -- -- -- -- -- -- --  -- -- -- -- -- -- -- --
01C0:                                         03 00 00               ...
01D0: 07 7F 1A 97 00 66 01 00  F8 FF FF 7F F8 FF FF 7F  .....f..........
01E0: 73 69 74 30 53 F8 FF FF  7F F8 FF FF 7F 73 69 74  sit0S........sit
01F0: 30 00                                             0.              
```

#### Opcodes

```
  0: 0x01CD [0x03] ExtData[1]->WorkLocal[0] = Entity->Race
  1: 0x01D2 [0x1A] CALL_SUBROUTINE(address=0x0097)
  2: 0x01D5 [0x66] LOAD_EXT_SCHEDULER_MAIN: Load scheduler "sit0" with entities [EventEntity, EventEntity], work=ExtData[1]->WorkLocal[1]
  3: 0x01E4 [0x53] WAIT_SCHEDULER_TASK: Wait for scheduler "sit0" with entities [EventEntity, EventEntity]
  4: 0x01F1 [0x00] END_REQSTACK()
```

### Event 65535.12

#### Metadata

| Field        | Value    |
|--------------|----------|
| Entrypoint   | 0x01F2   |
| Data Size    | 37 bytes |
| Instructions | 5        |

```
      00 01 02 03 04 05 06 07  08 09 0A 0B 0C 0D 0E 0F
      -- -- -- -- -- -- -- --  -- -- -- -- -- -- -- --
01F0:       03 00 00 07 7F 1A  97 00 66 01 00 F8 FF FF    ........f.....
0200: 7F F8 FF FF 7F 73 69 74  31 53 F8 FF FF 7F F8 FF  .....sit1S......
0210: FF 7F 73 69 74 31 00                              ..sit1.         
```

#### Opcodes

```
  0: 0x01F2 [0x03] ExtData[1]->WorkLocal[0] = Entity->Race
  1: 0x01F7 [0x1A] CALL_SUBROUTINE(address=0x0097)
  2: 0x01FA [0x66] LOAD_EXT_SCHEDULER_MAIN: Load scheduler "sit1" with entities [EventEntity, EventEntity], work=ExtData[1]->WorkLocal[1]
  3: 0x0209 [0x53] WAIT_SCHEDULER_TASK: Wait for scheduler "sit1" with entities [EventEntity, EventEntity]
  4: 0x0216 [0x00] END_REQSTACK()
```

### Event 65535.13

#### Metadata

| Field        | Value    |
|--------------|----------|
| Entrypoint   | 0x0217   |
| Data Size    | 42 bytes |
| Instructions | 6        |

```
      00 01 02 03 04 05 06 07  08 09 0A 0B 0C 0D 0E 0F
      -- -- -- -- -- -- -- --  -- -- -- -- -- -- -- --
0210:                      03  00 00 07 7F 1A 97 00 66         ........f
0220: 01 00 F8 FF FF 7F F8 FF  FF 7F 74 6C 6B 30 1C 12  ..........tlk0..
0230: 80 66 01 00 F8 FF FF 7F  F8 FF FF 7F 74 6C 6B 31  .f..........tlk1
0240: 00                                                .               
```

#### Opcodes

```
  0: 0x0217 [0x03] ExtData[1]->WorkLocal[0] = Entity->Race
  1: 0x021C [0x1A] CALL_SUBROUTINE(address=0x0097)
  2: 0x021F [0x66] LOAD_EXT_SCHEDULER_MAIN: Load scheduler "tlk0" with entities [EventEntity, EventEntity], work=ExtData[1]->WorkLocal[1]
  3: 0x022E [0x1C] WAIT(60* ticks)
  4: 0x0231 [0x66] LOAD_EXT_SCHEDULER_MAIN: Load scheduler "tlk1" with entities [EventEntity, EventEntity], work=ExtData[1]->WorkLocal[1]
  5: 0x0240 [0x00] END_REQSTACK()
```

### Event 65535.14

#### Metadata

| Field        | Value    |
|--------------|----------|
| Entrypoint   | 0x0241   |
| Data Size    | 14 bytes |
| Instructions | 4        |

```
      00 01 02 03 04 05 06 07  08 09 0A 0B 0C 0D 0E 0F
      -- -- -- -- -- -- -- --  -- -- -- -- -- -- -- --
0240:    32 13 80 1F 00 14 80  15 80 16 80 1F 01 00      2............. 
```

#### Opcodes

```
  0: 0x0241 [0x32] ExtData[1]->MainSpeed = 13* * 0.1
  1: 0x0244 [0x1F] MOVE_ENTITY: EventEntity moves to X=-96.998*, Z=-87.359*, Y=-2.149*
  2: 0x024C [0x1F] MOVE_ENTITY: Update entity position (mode=1)
  3: 0x024E [0x00] END_REQSTACK()
```

### Event 65535.15

#### Metadata

| Field        | Value    |
|--------------|----------|
| Entrypoint   | 0x024F   |
| Data Size    | 22 bytes |
| Instructions | 6        |

```
      00 01 02 03 04 05 06 07  08 09 0A 0B 0C 0D 0E 0F
      -- -- -- -- -- -- -- --  -- -- -- -- -- -- -- --
0240:                                               32                 2
0250: 13 80 1F 00 17 80 18 80  16 80 1F 01 1E 0E C0 11  ................
0260: 01 1C 19 80 00                                    .....           
```

#### Opcodes

```
  0: 0x024F [0x32] ExtData[1]->MainSpeed = 13* * 0.1
  1: 0x0252 [0x1F] MOVE_ENTITY: EventEntity moves to X=-104.512*, Z=-96.117*, Y=-2.149*
  2: 0x025A [0x1F] MOVE_ENTITY: Update entity position (mode=1)
  3: 0x025C [0x1E] EventEntity looks at Svenja (ID: 17940494/0x0111C00E) and starts talking
  4: 0x0261 [0x1C] WAIT(30* ticks)
  5: 0x0264 [0x00] END_REQSTACK()
```

### Event 65535.16

#### Metadata

| Field        | Value    |
|--------------|----------|
| Entrypoint   | 0x0265   |
| Data Size    | 22 bytes |
| Instructions | 6        |

```
      00 01 02 03 04 05 06 07  08 09 0A 0B 0C 0D 0E 0F
      -- -- -- -- -- -- -- --  -- -- -- -- -- -- -- --
0260:                32 13 80  1F 00 1A 80 1B 80 16 80       2..........
0270: 1F 01 1E 1F C0 11 01 1C  19 80 00                 ...........     
```

#### Opcodes

```
  0: 0x0265 [0x32] ExtData[1]->MainSpeed = 13* * 0.1
  1: 0x0268 [0x1F] MOVE_ENTITY: EventEntity moves to X=-113.194*, Z=-93.147*, Y=-2.149*
  2: 0x0270 [0x1F] MOVE_ENTITY: Update entity position (mode=1)
  3: 0x0272 [0x1E] EventEntity looks at Arciela (ID: 17940511/0x0111C01F) and starts talking
  4: 0x0277 [0x1C] WAIT(30* ticks)
  5: 0x027A [0x00] END_REQSTACK()
```

### Event 65535.17

#### Metadata

| Field        | Value    |
|--------------|----------|
| Entrypoint   | 0x027B   |
| Data Size    | 22 bytes |
| Instructions | 6        |

```
      00 01 02 03 04 05 06 07  08 09 0A 0B 0C 0D 0E 0F
      -- -- -- -- -- -- -- --  -- -- -- -- -- -- -- --
0270:                                   32 13 80 1F 00             2....
0280: 1C 80 1D 80 16 80 1F 01  1E 0F C0 11 01 1C 19 80  ................
0290: 00                                                .               
```

#### Opcodes

```
  0: 0x027B [0x32] ExtData[1]->MainSpeed = 13* * 0.1
  1: 0x027E [0x1F] MOVE_ENTITY: EventEntity moves to X=-96.500*, Z=-86.719*, Y=-2.149*
  2: 0x0286 [0x1F] MOVE_ENTITY: Update entity position (mode=1)
  3: 0x0288 [0x1E] EventEntity looks at Andreine (ID: 17940495/0x0111C00F) and starts talking
  4: 0x028D [0x1C] WAIT(30* ticks)
  5: 0x0290 [0x00] END_REQSTACK()
```

### Event 65535.18

#### Metadata

| Field        | Value    |
|--------------|----------|
| Entrypoint   | 0x0291   |
| Data Size    | 22 bytes |
| Instructions | 6        |

```
      00 01 02 03 04 05 06 07  08 09 0A 0B 0C 0D 0E 0F
      -- -- -- -- -- -- -- --  -- -- -- -- -- -- -- --
0290:    32 13 80 1F 00 1E 80  1F 80 16 80 1F 01 1E 1F   2..............
02A0: C0 11 01 1C 19 80 00                              .......         
```

#### Opcodes

```
  0: 0x0291 [0x32] ExtData[1]->MainSpeed = 13* * 0.1
  1: 0x0294 [0x1F] MOVE_ENTITY: EventEntity moves to X=-107.543*, Z=-85.132*, Y=-2.149*
  2: 0x029C [0x1F] MOVE_ENTITY: Update entity position (mode=1)
  3: 0x029E [0x1E] EventEntity looks at Arciela (ID: 17940511/0x0111C01F) and starts talking
  4: 0x02A3 [0x1C] WAIT(30* ticks)
  5: 0x02A6 [0x00] END_REQSTACK()
```

### Event 65535.19

#### Metadata

| Field        | Value    |
|--------------|----------|
| Entrypoint   | 0x02A7   |
| Data Size    | 22 bytes |
| Instructions | 6        |

```
      00 01 02 03 04 05 06 07  08 09 0A 0B 0C 0D 0E 0F
      -- -- -- -- -- -- -- --  -- -- -- -- -- -- -- --
02A0:                      32  13 80 1F 00 20 80 21 80         2.... .!.
02B0: 16 80 1F 01 1E 0F C0 11  01 1C 19 80 00           .............   
```

#### Opcodes

```
  0: 0x02A7 [0x32] ExtData[1]->MainSpeed = 13* * 0.1
  1: 0x02AA [0x1F] MOVE_ENTITY: EventEntity moves to X=-97.491*, Z=-86.659*, Y=-2.149*
  2: 0x02B2 [0x1F] MOVE_ENTITY: Update entity position (mode=1)
  3: 0x02B4 [0x1E] EventEntity looks at Andreine (ID: 17940495/0x0111C00F) and starts talking
  4: 0x02B9 [0x1C] WAIT(30* ticks)
  5: 0x02BC [0x00] END_REQSTACK()
```

### Event 65535.20

#### Metadata

| Field        | Value    |
|--------------|----------|
| Entrypoint   | 0x02BD   |
| Data Size    | 22 bytes |
| Instructions | 6        |

```
      00 01 02 03 04 05 06 07  08 09 0A 0B 0C 0D 0E 0F
      -- -- -- -- -- -- -- --  -- -- -- -- -- -- -- --
02B0:                                         32 13 80               2..
02C0: 1F 00 22 80 23 80 16 80  1F 01 1E 10 C0 11 01 1C  ..".#...........
02D0: 19 80 00                                          ...             
```

#### Opcodes

```
  0: 0x02BD [0x32] ExtData[1]->MainSpeed = 13* * 0.1
  1: 0x02C0 [0x1F] MOVE_ENTITY: EventEntity moves to X=-109.622*, Z=-93.834*, Y=-2.149*
  2: 0x02C8 [0x1F] MOVE_ENTITY: Update entity position (mode=1)
  3: 0x02CA [0x1E] EventEntity looks at Erfimia (ID: 17940496/0x0111C010) and starts talking
  4: 0x02CF [0x1C] WAIT(30* ticks)
  5: 0x02D2 [0x00] END_REQSTACK()
```

### Event 65535.21

#### Metadata

| Field        | Value    |
|--------------|----------|
| Entrypoint   | 0x02D3   |
| Data Size    | 14 bytes |
| Instructions | 4        |

```
      00 01 02 03 04 05 06 07  08 09 0A 0B 0C 0D 0E 0F
      -- -- -- -- -- -- -- --  -- -- -- -- -- -- -- --
02D0:          32 24 80 1F 00  25 80 26 80 27 80 1F 01     2$...%.&.'...
02E0: 00                                                .               
```

#### Opcodes

```
  0: 0x02D3 [0x32] ExtData[1]->MainSpeed = 40* * 0.1
  1: 0x02D6 [0x1F] MOVE_ENTITY: EventEntity moves to X=-94.625*, Z=-84.739*, Y=-2.649*
  2: 0x02DE [0x1F] MOVE_ENTITY: Update entity position (mode=1)
  3: 0x02E0 [0x00] END_REQSTACK()
```

### Event 65535.22

#### Metadata

| Field        | Value   |
|--------------|---------|
| Entrypoint   | 0x02E1  |
| Data Size    | 6 bytes |
| Instructions | 2       |

```
      00 01 02 03 04 05 06 07  08 09 0A 0B 0C 0D 0E 0F
      -- -- -- -- -- -- -- --  -- -- -- -- -- -- -- --
02E0:    03 09 10 07 7F 00                               ......         
```

#### Opcodes

```
  0: 0x02E1 [0x03] Work_Zone[9] = Entity->Race
  1: 0x02E6 [0x00] END_REQSTACK()
```

### Event 65535.23

#### Metadata

| Field        | Value    |
|--------------|----------|
| Entrypoint   | 0x02E7   |
| Data Size    | 15 bytes |
| Instructions | 5        |

```
      00 01 02 03 04 05 06 07  08 09 0A 0B 0C 0D 0E 0F
      -- -- -- -- -- -- -- --  -- -- -- -- -- -- -- --
02E0:                      32  13 80 1F 00 28 80 29 80         2....(.).
02F0: 16 80 1F 01 6F 00                                 ....o.          
```

#### Opcodes

```
  0: 0x02E7 [0x32] ExtData[1]->MainSpeed = 13* * 0.1
  1: 0x02EA [0x1F] MOVE_ENTITY: EventEntity moves to X=-106.454*, Z=-98.321*, Y=-2.149*
  2: 0x02F2 [0x1F] MOVE_ENTITY: Update entity position (mode=1)
  3: 0x02F4 [0x6F] WAIT_FRAME_DELAY: Yield until WaitTime reaches zero
  4: 0x02F5 [0x00] END_REQSTACK()
```

### Event 65535.24

#### Metadata

| Field        | Value    |
|--------------|----------|
| Entrypoint   | 0x02F6   |
| Data Size    | 22 bytes |
| Instructions | 8        |

```
      00 01 02 03 04 05 06 07  08 09 0A 0B 0C 0D 0E 0F
      -- -- -- -- -- -- -- --  -- -- -- -- -- -- -- --
02F0:                   32 13  80 1F 00 2A 80 2B 80 16        2....*.+..
0300: 80 1F 01 6F 1E 22 C0 11  01 6F 70 00              ...o."...op.    
```

#### Opcodes

```
  0: 0x02F6 [0x32] ExtData[1]->MainSpeed = 13* * 0.1
  1: 0x02F9 [0x1F] MOVE_ENTITY: EventEntity moves to X=-107.863*, Z=-99.045*, Y=-2.149*
  2: 0x0301 [0x1F] MOVE_ENTITY: Update entity position (mode=1)
  3: 0x0303 [0x6F] WAIT_FRAME_DELAY: Yield until WaitTime reaches zero
  4: 0x0304 [0x1E] EventEntity looks at Oshasha (ID: 17940514/0x0111C022) and starts talking
  5: 0x0309 [0x6F] WAIT_FRAME_DELAY: Yield until WaitTime reaches zero
  6: 0x030A [0x70] WAIT_ENTITY_RENDER_FLAG: Wait while EventEntity->Render.Flags3 bit 2 is set (cancel turn if not)
  7: 0x030B [0x00] END_REQSTACK()
```
