# Event 918

## Metadata

| Field           | Value    |
|-----------------|----------|
| Event Index     | 3/3      |
| Offset          | 0x002F   |
| Data Size       | 46 bytes |
| Calculated Size | 46 bytes |
| Instructions    | 9        |

```
      00 01 02 03 04 05 06 07  08 09 0A 0B 0C 0D 0E 0F
      -- -- -- -- -- -- -- --  -- -- -- -- -- -- -- --
0020:                                               42                 B
0030: 45 00 80 F8 FF FF 7F F8  FF FF 7F 66 64 6F 31 01  E..........fdo1.
0040: 80 55 00 80 F8 FF FF 7F  F8 FF FF 7F 66 64 6F 31  .U..........fdo1
0050: 1C 02 80 AB 11 01 80 1C  03 80 30 21 00           ..........0!.   
```

## Opcodes

```
  0: 0x002F [0x42] SET_CLI_EVENT_CANCEL_DATA()
  1: 0x0030 [0x45] LOAD_SCHEDULED_TASK(work_offset1=200*, entity1=EventEntity, entity2=EventEntity, scheduler_id="fdo1", work_offset2=0*)
  2: 0x0041 [0x55] WAIT_LOAD_SCHEDULER(work_offset=200*, entity1=EventEntity, entity2=EventEntity, scheduler_id="fdo1")
  3: 0x0050 [0x1C] WAIT(15* ticks)
  4: 0x0053 [0xAB] EventEntity->DespawnValue = 0* // Set despawn value
  5: 0x0057 [0x1C] WAIT(1* ticks)
  6: 0x005A [0x30] SET_UCOFF_CONTINUE_ZERO()
  7: 0x005B [0x21] END_EVENT
  8: 0x005C [0x00] END_REQSTACK()
```
