# Event 65535

## Metadata

| Field           | Value    |
|-----------------|----------|
| Event Index     | 8/13     |
| Offset          | 0x00A9   |
| Data Size       | 61 bytes |
| Calculated Size | 61 bytes |
| Instructions    | 5        |

```
      00 01 02 03 04 05 06 07  08 09 0A 0B 0C 0D 0E 0F
      -- -- -- -- -- -- -- --  -- -- -- -- -- -- -- --
00A0:                             5B 06 80 18 E1 0E 01           [......
00B0: 18 E1 0E 01 68 6F 6E 31  5B 05 80 19 E1 0E 01 19  ....hon1[.......
00C0: E1 0E 01 68 6F 6E 31 5B  06 80 18 E1 0E 01 18 E1  ...hon1[........
00D0: 0E 01 68 6F 6E 32 5B 05  80 19 E1 0E 01 19 E1 0E  ..hon2[.........
00E0: 01 68 6F 6E 32 00                                 .hon2.          
```

## Opcodes

```
  0: 0x00A9 [0x5B] LOAD_EXT_SCHEDULER: Load scheduler "hon1" with entities [Unnamed NPC (ID: 17752344/0x010EE118), Unnamed NPC (ID: 17752344/0x010EE118)], work=1323*
  1: 0x00B8 [0x5B] LOAD_EXT_SCHEDULER: Load scheduler "hon1" with entities [Khoto Rokkorah (ID: 17752345/0x010EE119), Khoto Rokkorah (ID: 17752345/0x010EE119)], work=1529*
  2: 0x00C7 [0x5B] LOAD_EXT_SCHEDULER: Load scheduler "hon2" with entities [Unnamed NPC (ID: 17752344/0x010EE118), Unnamed NPC (ID: 17752344/0x010EE118)], work=1323*
  3: 0x00D6 [0x5B] LOAD_EXT_SCHEDULER: Load scheduler "hon2" with entities [Khoto Rokkorah (ID: 17752345/0x010EE119), Khoto Rokkorah (ID: 17752345/0x010EE119)], work=1529*
  4: 0x00E5 [0x00] END_REQSTACK()
```
