# Event 992

## Metadata

| Field           | Value    |
|-----------------|----------|
| Event Index     | 13/13    |
| Offset          | 0x01B4   |
| Data Size       | 69 bytes |
| Calculated Size | 69 bytes |
| Instructions    | 12       |

```
      00 01 02 03 04 05 06 07  08 09 0A 0B 0C 0D 0E 0F
      -- -- -- -- -- -- -- --  -- -- -- -- -- -- -- --
01B0:             1E F0 FF FF  7F 79 00 19 E1 0E 01 F0      .....y......
01C0: FF FF 7F 66 00 80 19 E1  0E 01 19 E1 0E 01 74 6C  ...f..........tl
01D0: 6B 30 2B 19 E1 0E 01 13  80 23 2B 19 E1 0E 01 14  k0+......#+.....
01E0: 80 23 1C 03 80 66 00 80  19 E1 0E 01 19 E1 0E 01  .#...f..........
01F0: 74 6C 6B 31 1C 04 80 21  00                       tlk1...!.       
```

## Opcodes

```
  0: 0x01B4 [0x1E] EventEntity looks at LocalPlayer and starts talking
  1: 0x01B9 [0x79] Khoto Rokkorah (ID: 17752345/0x010EE119) looks at LocalPlayer (Basic look)
  2: 0x01C3 [0x66] LOAD_EXT_SCHEDULER_MAIN: Load scheduler "tlk0" with entities [Khoto Rokkorah (ID: 17752345/0x010EE119), Khoto Rokkorah (ID: 17752345/0x010EE119)], work=59*
  3: 0x01D2 [0x2B] Khoto Rokkorah (ID: 17752345/0x010EE119) [15142*]:
    → "Hello, \u0008!\u007F1\u0000\u0007"
  4: 0x01D9 [0x23] WAIT_FOR_DIALOG_INTERACTION
  5: 0x01DA [0x2B] Khoto Rokkorah (ID: 17752345/0x010EE119) [15143*]:
    → "Just you wait! One day I'll be the best storyteller this town has ever seen!\u007F1\u0000\u0007"
  6: 0x01E1 [0x23] WAIT_FOR_DIALOG_INTERACTION
  7: 0x01E2 [0x1C] WAIT(40* ticks)
  8: 0x01E5 [0x66] LOAD_EXT_SCHEDULER_MAIN: Load scheduler "tlk1" with entities [Khoto Rokkorah (ID: 17752345/0x010EE119), Khoto Rokkorah (ID: 17752345/0x010EE119)], work=59*
  9: 0x01F4 [0x1C] WAIT(90* ticks)
 10: 0x01F7 [0x21] END_EVENT
 11: 0x01F8 [0x00] END_REQSTACK()
```
