# 16990640

## Common Data

| Field            | Value                     |
|------------------|---------------------------|
| Zone             | Bhaflau Thickets (ID: 52) |
| Block Size       | 2084 bytes                |
| Total Events     | 3                         |
| References Count | 50                        |

## List of Events

| Event ID              | Entrypoint   |   Size |   Instructions |
|-----------------------|--------------|--------|----------------|
| [65535](#event-65535) | 0x0000       |      1 |              1 |
| [5](#event-5)         | 0x0001       |    764 |            103 |
| [8](#event-8)         | 0x02FD       |   1088 |            128 |

## DAT References (imed_data)

|   Index | Hex Value   |   Dec Value |
|---------|-------------|-------------|
|       0 | 0x0013      |          19 |
|       1 | 0x000F      |          15 |
|       2 | 0x001E      |          30 |
|       3 | 0x00FF      |         255 |
|       4 | 0x0000      |           0 |
|       5 | 0x1D6F      |        7535 |
|       6 | 0x0009      |           9 |
|       7 | 0x1D70      |        7536 |
|       8 | 0x0307      |         775 |
|       9 | 0x1D71      |        7537 |
|      10 | 0x0001      |           1 |
|      11 | 0x1D80      |        7552 |
|      12 | 0x1D72      |        7538 |
|      13 | 0x002D      |          45 |
|      14 | 0x1D73      |        7539 |
|      15 | 0x0078      |         120 |
|      16 | 0x1D74      |        7540 |
|      17 | 0x1D75      |        7541 |
|      18 | 0x1D76      |        7542 |
|      19 | 0x1D77      |        7543 |
|      20 | 0x0007      |           7 |
|      21 | 0x1D78      |        7544 |
|      22 | 0x1D79      |        7545 |
|      23 | 0x042D      |        1069 |
|      24 | 0x1D7A      |        7546 |
|      25 | 0x1D7B      |        7547 |
|      26 | 0x1D7C      |        7548 |
|      27 | 0x1D7D      |        7549 |
|      28 | 0x003C      |          60 |
|      29 | 0x1D7E      |        7550 |
|      30 | 0x1D7F      |        7551 |
|      31 | 0x00C8      |         200 |
|      32 | 0x0111      |         273 |
|      33 | 0x1DE8      |        7656 |
|      34 | 0x0004      |           4 |
|      35 | 0x1DE9      |        7657 |
|      36 | 0x1DEA      |        7658 |
|      37 | 0x0019      |          25 |
|      38 | 0x1DEB      |        7659 |
|      39 | 0x0024      |          36 |
|      40 | 0x1DEC      |        7660 |
|      41 | 0x1DED      |        7661 |
|      42 | 0x02D4      |         724 |
|      43 | 0x00B4      |         180 |
|      44 | 0x0016      |          22 |
|      45 | 0x1DEE      |        7662 |
|      46 | 0x1DEF      |        7663 |
|      47 | 0x00C9      |         201 |
|      48 | 0x0002      |           2 |
|      49 | 0x00D7      |         215 |

## String References

- **7537**: Show him the $3? [Yes./I have nothing to say.]
- **7538**: You show the $3 to the Immortal.
- **7539**: Daswil grins slightly.

## Events

### Event 65535

#### Metadata

| Field        | Value   |
|--------------|---------|
| Entrypoint   | 0x0000  |
| Data Size    | 1 bytes |
| Instructions | 1       |

```
      00 01 02 03 04 05 06 07  08 09 0A 0B 0C 0D 0E 0F
      -- -- -- -- -- -- -- --  -- -- -- -- -- -- -- --
0000: 00                                                .               
```

#### Opcodes

```
  0: 0x0000 [0x00] END_REQSTACK()
```

### Event 5

#### Metadata

| Field        | Value     |
|--------------|-----------|
| Entrypoint   | 0x0001    |
| Data Size    | 764 bytes |
| Instructions | 102       |

```
      00 01 02 03 04 05 06 07  08 09 0A 0B 0C 0D 0E 0F
      -- -- -- -- -- -- -- --  -- -- -- -- -- -- -- --
0000:    42 1A 0F 05 46 01 38  00 80 79 00 F0 FF FF 7F   B...F.8..y.....
0010: F0 FF FF 7F 92 01 B1 41  03 01 94 01 F0 FF FF 7F  .......A........
0020: 94 01 B1 41 03 01 29 10  F0 FF FF 7F 1B 80 F0 FF  ...A..).........
0030: FF 7F 80 B1 41 03 01 1C  01 80 4A B1 41 03 01 F0  ....A.....J.A...
0040: FF FF 7F 4A F0 FF FF 7F  B1 41 03 01 1C 02 80 45  ...J.....A.....E
0050: 03 80 F0 FF FF 7F F0 FF  FF 7F 73 31 36 34 04 80  ..........s164..
0060: 1C 01 80 1A EE 04 2B B1  41 03 01 05 80 23 52 03  ......+.A....#R.
0070: 80 F0 FF FF 7F F0 FF FF  7F 73 31 36 34 45 03 80  .........s164E..
0080: F0 FF FF 7F F0 FF FF 7F  73 31 36 35 04 80 66 06  ........s165..f.
0090: 80 B1 41 03 01 B1 41 03  01 74 77 61 30 2B B1 41  ..A...A..twa0+.A
00A0: 03 01 07 80 23 66 06 80  B1 41 03 01 B1 41 03 01  ....#f...A...A..
00B0: 74 77 61 31 03 02 10 08  80 24 09 80 04 80 04 80  twa1.....$......
00C0: 25 02 00 10 0A 80 00 06  01 52 03 80 F0 FF FF 7F  %........R......
00D0: F0 FF FF 7F 73 31 36 35  45 03 80 F0 FF FF 7F F0  ....s165E.......
00E0: FF FF 7F 73 31 37 32 04  80 66 06 80 B1 41 03 01  ...s172..f...A..
00F0: B1 41 03 01 74 77 62 30  2B B1 41 03 01 0B 80 23  .A..twb0+.A....#
0100: 01 C4 02 01 06 01 52 03  80 F0 FF FF 7F F0 FF FF  ......R.........
0110: 7F 73 31 36 35 45 03 80  F0 FF FF 7F F0 FF FF 7F  .s165E..........
0120: 73 31 36 36 04 80 6E F0  FF FF 7F 04 80 99 F0 FF  s166..n.........
0130: FF 7F 03 02 10 08 80 48  0C 80 23 1C 0D 80 48 0E  .......H..#...H.
0140: 80 1C 0F 80 52 03 80 F0  FF FF 7F F0 FF FF 7F 73  ....R..........s
0150: 31 36 36 45 03 80 F0 FF  FF 7F F0 FF FF 7F 73 31  166E..........s1
0160: 36 37 04 80 66 06 80 B1  41 03 01 B1 41 03 01 74  67..f...A...A..t
0170: 6C 6B 30 03 02 10 08 80  2B B1 41 03 01 10 80 23  lk0.....+.A....#
0180: 2B B1 41 03 01 11 80 23  2B B1 41 03 01 12 80 23  +.A....#+.A....#
0190: 52 03 80 F0 FF FF 7F F0  FF FF 7F 73 31 36 37 45  R..........s167E
01A0: 03 80 F0 FF FF 7F F0 FF  FF 7F 73 31 36 38 04 80  ..........s168..
01B0: 66 06 80 B1 41 03 01 B1  41 03 01 74 6C 6B 31 2B  f...A...A..tlk1+
01C0: B1 41 03 01 13 80 23 6E  B1 41 03 01 14 80 99 B1  .A....#n.A......
01D0: 41 03 01 2B B1 41 03 01  15 80 23 6E B1 41 03 01  A..+.A....#n.A..
01E0: 04 80 99 B1 41 03 01 2B  B1 41 03 01 16 80 23 52  ....A..+.A....#R
01F0: 03 80 F0 FF FF 7F F0 FF  FF 7F 73 31 36 38 45 03  ..........s168E.
0200: 80 F0 FF FF 7F F0 FF FF  7F 73 31 36 39 04 80 66  .........s169..f
0210: 06 80 B1 41 03 01 B1 41  03 01 74 77 62 30 4B F0  ...A...A..twb0K.
0220: FF FF 7F 17 80 2B B1 41  03 01 18 80 23 2B B1 41  .....+.A....#+.A
0230: 03 01 19 80 23 2B B1 41  03 01 1A 80 23 52 03 80  ....#+.A....#R..
0240: F0 FF FF 7F F0 FF FF 7F  73 31 36 39 45 03 80 F0  ........s169E...
0250: FF FF 7F F0 FF FF 7F 73  31 37 30 04 80 2B B1 41  .......s170..+.A
0260: 03 01 1B 80 23 52 03 80  F0 FF FF 7F F0 FF FF 7F  ....#R..........
0270: 73 31 37 30 45 03 80 F0  FF FF 7F F0 FF FF 7F 73  s170E..........s
0280: 31 37 31 04 80 66 06 80  B1 41 03 01 B1 41 03 01  171..f...A...A..
0290: 74 77 62 31 1C 1C 80 4A  F0 FF FF 7F B1 41 03 01  twb1...J.....A..
02A0: 66 06 80 B1 41 03 01 B1  41 03 01 74 6C 6B 30 2B  f...A...A..tlk0+
02B0: B1 41 03 01 1D 80 23 2B  B1 41 03 01 1E 80 23 03  .A....#+.A....#.
02C0: 01 10 0A 80 1A 0F 05 1C  02 80 52 03 80 F0 FF FF  ..........R.....
02D0: 7F F0 FF FF 7F 73 31 37  31 52 03 80 F0 FF FF 7F  .....s171R......
02E0: F0 FF FF 7F 73 31 37 32  46 00 45 1F 80 F0 FF FF  ....s172F.E.....
02F0: 7F F0 FF FF 7F 66 64 69  32 04 80 21 00           .....fdi2..!.   
```

#### Opcodes

```
  0: 0x0001 [0x42] SET_CLI_EVENT_CANCEL_DATA()
  1: 0x0002 [0x1A] CALL_SUBROUTINE(address=0x050F)
  2: 0x0005 [0x46] CAMERA_CONTROL: Disable user control
  3: 0x0007 [0x38] SET_CLIENT_EVENT_MODE(mode=19*)
  4: 0x000A [0x79] LocalPlayer looks at LocalPlayer (Basic look)
  5: 0x0014 [0x92] Daswil (ID: 16990641/0x010341B1)->Render.Flags3 ^= 0x01
  6: 0x001A [0x94] LocalPlayer->Render.Flags3 ^= 0x01
  7: 0x0020 [0x94] Daswil (ID: 16990641/0x010341B1)->Render.Flags3 ^= 0x01
  8: 0x0026 [0x29] REQ_SET_WAIT(priority=0x10, entity_id=LocalPlayer, tag_num=0x1B)
  9: 0x002D [0x80] LOAD_WAIT(entity=LocalPlayer)
 10: 0x0032 [0x80] LOAD_WAIT(entity=Daswil (ID: 16990641/0x010341B1))
 11: 0x0037 [0x1C] WAIT(15* ticks)
 12: 0x003A [0x4A] Daswil (ID: 16990641/0x010341B1) looks at LocalPlayer
 13: 0x0043 [0x4A] LocalPlayer looks at Daswil (ID: 16990641/0x010341B1)
 14: 0x004C [0x1C] WAIT(30* ticks)
 15: 0x004F [0x45] LOAD_SCHEDULED_TASK: Load scheduler "s164" with entities [LocalPlayer, LocalPlayer], work=[255*, 0*]
 16: 0x0060 [0x1C] WAIT(15* ticks)
 17: 0x0063 [0x1A] CALL_SUBROUTINE(address=0x04EE)
 18: 0x0066 [0x2B] Daswil (ID: 16990641/0x010341B1) [7535*]:
    → "This is the Mamool Ja staging point. You are on Imperial terri...what's this?"
 19: 0x006D [0x23] WAIT_FOR_DIALOG_INTERACTION
 20: 0x006E [0x52] END_LOAD_SCHEDULER: End scheduler "s164" with entities [LocalPlayer, LocalPlayer], work=255*
 21: 0x007D [0x45] LOAD_SCHEDULED_TASK: Load scheduler "s165" with entities [LocalPlayer, LocalPlayer], work=[255*, 0*]
 22: 0x008E [0x66] LOAD_EXT_SCHEDULER_MAIN: Load scheduler "twa0" with entities [Daswil (ID: 16990641/0x010341B1), Daswil (ID: 16990641/0x010341B1)], work=9*
 23: 0x009D [0x2B] Daswil (ID: 16990641/0x010341B1) [7536*]:
    → "You have something to say? Out with it, now."
 24: 0x00A4 [0x23] WAIT_FOR_DIALOG_INTERACTION
 25: 0x00A5 [0x66] LOAD_EXT_SCHEDULER_MAIN: Load scheduler "twa1" with entities [Daswil (ID: 16990641/0x010341B1), Daswil (ID: 16990641/0x010341B1)], work=9*
 26: 0x00B4 [0x03] Work_Zone[2] = 775*
 27: 0x00B9 [0x24] CREATE_DIALOG(message_id=7537*, default_option=0*, option_flags=0*)
    → "Show him the $3? [Yes./I have nothing to say.]"
 28: 0x00C0 [0x25] WAIT_DIALOG_SELECT()
 29: 0x00C1 [0x02] IF !(Work_Zone[0] == 1*) GOTO 0x0106
 30: 0x00C9 [0x52] END_LOAD_SCHEDULER: End scheduler "s165" with entities [LocalPlayer, LocalPlayer], work=255*
 31: 0x00D8 [0x45] LOAD_SCHEDULED_TASK: Load scheduler "s172" with entities [LocalPlayer, LocalPlayer], work=[255*, 0*]
 32: 0x00E9 [0x66] LOAD_EXT_SCHEDULER_MAIN: Load scheduler "twb0" with entities [Daswil (ID: 16990641/0x010341B1), Daswil (ID: 16990641/0x010341B1)], work=9*
 33: 0x00F8 [0x2B] Daswil (ID: 16990641/0x010341B1) [7552*]:
    → "Is that so? Then you are trespassing on Imperial territory. Withdraw at once!"
 34: 0x00FF [0x23] WAIT_FOR_DIALOG_INTERACTION
 35: 0x0100 [0x01] GOTO 0x02C4

SUBROUTINE_0106:
 36: 0x0106 [0x52] END_LOAD_SCHEDULER: End scheduler "s165" with entities [LocalPlayer, LocalPlayer], work=255*
 37: 0x0115 [0x45] LOAD_SCHEDULED_TASK: Load scheduler "s166" with entities [LocalPlayer, LocalPlayer], work=[255*, 0*]
 38: 0x0126 [0x6E] LocalPlayer uses emote 0*
 39: 0x012D [0x99] Wait for LocalPlayer animation to complete
 40: 0x0132 [0x03] Work_Zone[2] = 775*
 41: 0x0137 [0x48] [System] [7538*]:
    → "You show the $3 to the Immortal."
 42: 0x013A [0x23] WAIT_FOR_DIALOG_INTERACTION
 43: 0x013B [0x1C] WAIT(45* ticks)
 44: 0x013E [0x48] [System] [7539*]:
    → "Daswil grins slightly."
 45: 0x0141 [0x1C] WAIT(120* ticks)
 46: 0x0144 [0x52] END_LOAD_SCHEDULER: End scheduler "s166" with entities [LocalPlayer, LocalPlayer], work=255*
 47: 0x0153 [0x45] LOAD_SCHEDULED_TASK: Load scheduler "s167" with entities [LocalPlayer, LocalPlayer], work=[255*, 0*]
 48: 0x0164 [0x66] LOAD_EXT_SCHEDULER_MAIN: Load scheduler "tlk0" with entities [Daswil (ID: 16990641/0x010341B1), Daswil (ID: 16990641/0x010341B1)], work=9*
 49: 0x0173 [0x03] Work_Zone[2] = 775*
 50: 0x0178 [0x2B] Daswil (ID: 16990641/0x010341B1) [7540*]:
    → "Oho, so you brought me $6! You must be one of Naja's messengers."
 51: 0x017F [0x23] WAIT_FOR_DIALOG_INTERACTION
 52: 0x0180 [0x2B] Daswil (ID: 16990641/0x010341B1) [7541*]:
    → "This $3 contains oil from a berry that can only be found in a nation that lies to the far south, called Zhwa. It takes days to extract the oil. This is a highly valuable item..."
 53: 0x0187 [0x23] WAIT_FOR_DIALOG_INTERACTION
 54: 0x0188 [0x2B] Daswil (ID: 16990641/0x010341B1) [7542*]:
    → "Stationed out in this forsaken land without all the trimmings of home, the scent of this oil is our only comfort."
 55: 0x018F [0x23] WAIT_FOR_DIALOG_INTERACTION
 56: 0x0190 [0x52] END_LOAD_SCHEDULER: End scheduler "s167" with entities [LocalPlayer, LocalPlayer], work=255*
 57: 0x019F [0x45] LOAD_SCHEDULED_TASK: Load scheduler "s168" with entities [LocalPlayer, LocalPlayer], work=[255*, 0*]
 58: 0x01B0 [0x66] LOAD_EXT_SCHEDULER_MAIN: Load scheduler "tlk1" with entities [Daswil (ID: 16990641/0x010341B1), Daswil (ID: 16990641/0x010341B1)], work=9*
 59: 0x01BF [0x2B] Daswil (ID: 16990641/0x010341B1) [7543*]:
    → "You'll have to pardon me. I owe you for your kind service."
 60: 0x01C6 [0x23] WAIT_FOR_DIALOG_INTERACTION
 61: 0x01C7 [0x6E] Daswil (ID: 16990641/0x010341B1) uses emote 7*
 62: 0x01CE [0x99] Wait for Daswil (ID: 16990641/0x010341B1) animation to complete
 63: 0x01D3 [0x2B] Daswil (ID: 16990641/0x010341B1) [7544*]:
    → "Hopefully you will find this information valuable..."
 64: 0x01DA [0x23] WAIT_FOR_DIALOG_INTERACTION
 65: 0x01DB [0x6E] Daswil (ID: 16990641/0x010341B1) uses emote 0*
 66: 0x01E2 [0x99] Wait for Daswil (ID: 16990641/0x010341B1) animation to complete
 67: 0x01E7 [0x2B] Daswil (ID: 16990641/0x010341B1) [7545*]:
    → "Do you see the glowing, blue design a bit behind you?"
 68: 0x01EE [0x23] WAIT_FOR_DIALOG_INTERACTION
 69: 0x01EF [0x52] END_LOAD_SCHEDULER: End scheduler "s168" with entities [LocalPlayer, LocalPlayer], work=255*
 70: 0x01FE [0x45] LOAD_SCHEDULED_TASK: Load scheduler "s169" with entities [LocalPlayer, LocalPlayer], work=[255*, 0*]
 71: 0x020F [0x66] LOAD_EXT_SCHEDULER_MAIN: Load scheduler "twb0" with entities [Daswil (ID: 16990641/0x010341B1), Daswil (ID: 16990641/0x010341B1)], work=9*
 72: 0x021E [0x4B] UPDATE_ENTITY_YAW(entity=LocalPlayer, yaw=5.9°*)
 73: 0x0225 [0x2B] Daswil (ID: 16990641/0x010341B1) [7546*]:
    → "That is a "runic portal." Runic portals are used for transport to distant locations."
 74: 0x022C [0x23] WAIT_FOR_DIALOG_INTERACTION
 75: 0x022D [0x2B] Daswil (ID: 16990641/0x010341B1) [7547*]:
    → "They are a product of the great wisdom of Aht Urhgan's honorable alchemists. It functions by wondrous principles that are completely unfathomable to me."
 76: 0x0234 [0x23] WAIT_FOR_DIALOG_INTERACTION
 77: 0x0235 [0x2B] Daswil (ID: 16990641/0x010341B1) [7548*]:
    → "You don't need to understand how it works to be impressed by the runic portals, though. Simply use it, and then you will truly understand its excellence."
 78: 0x023C [0x23] WAIT_FOR_DIALOG_INTERACTION
 79: 0x023D [0x52] END_LOAD_SCHEDULER: End scheduler "s169" with entities [LocalPlayer, LocalPlayer], work=255*
 80: 0x024C [0x45] LOAD_SCHEDULED_TASK: Load scheduler "s170" with entities [LocalPlayer, LocalPlayer], work=[255*, 0*]
 81: 0x025D [0x2B] Daswil (ID: 16990641/0x010341B1) [7549*]:
    → "A few hours' walk from here will take you to Al Zahbi, but with the runic portal, you can be there in the wink of an eye!"
 82: 0x0264 [0x23] WAIT_FOR_DIALOG_INTERACTION
 83: 0x0265 [0x52] END_LOAD_SCHEDULER: End scheduler "s170" with entities [LocalPlayer, LocalPlayer], work=255*
 84: 0x0274 [0x45] LOAD_SCHEDULED_TASK: Load scheduler "s171" with entities [LocalPlayer, LocalPlayer], work=[255*, 0*]
 85: 0x0285 [0x66] LOAD_EXT_SCHEDULER_MAIN: Load scheduler "twb1" with entities [Daswil (ID: 16990641/0x010341B1), Daswil (ID: 16990641/0x010341B1)], work=9*
 86: 0x0294 [0x1C] WAIT(60* ticks)
 87: 0x0297 [0x4A] LocalPlayer looks at Daswil (ID: 16990641/0x010341B1)
 88: 0x02A0 [0x66] LOAD_EXT_SCHEDULER_MAIN: Load scheduler "tlk0" with entities [Daswil (ID: 16990641/0x010341B1), Daswil (ID: 16990641/0x010341B1)], work=9*
 89: 0x02AF [0x2B] Daswil (ID: 16990641/0x010341B1) [7550*]:
    → "Not only that, but if you travel to the capital from here, henceforth you will be able to return to this place using the same method!"
 90: 0x02B6 [0x23] WAIT_FOR_DIALOG_INTERACTION
 91: 0x02B7 [0x2B] Daswil (ID: 16990641/0x010341B1) [7551*]:
    → "If you should ever have urgent business here at the Mamool Ja staging point, you can make good use of the runic portal."
 92: 0x02BE [0x23] WAIT_FOR_DIALOG_INTERACTION
 93: 0x02BF [0x03] Work_Zone[1] = 1*

SUBROUTINE_02C4:
 94: 0x02C4 [0x1A] CALL_SUBROUTINE(address=0x050F)
 95: 0x02C7 [0x1C] WAIT(30* ticks)
 96: 0x02CA [0x52] END_LOAD_SCHEDULER: End scheduler "s171" with entities [LocalPlayer, LocalPlayer], work=255*
 97: 0x02D9 [0x52] END_LOAD_SCHEDULER: End scheduler "s172" with entities [LocalPlayer, LocalPlayer], work=255*
 98: 0x02E8 [0x46] CAMERA_CONTROL: Restore default settings
 99: 0x02EA [0x45] LOAD_SCHEDULED_TASK: Load scheduler "fdi2" with entities [LocalPlayer, LocalPlayer], work=[200*, 0*]
100: 0x02FB [0x21] END_EVENT
101: 0x02FC [0x00] END_REQSTACK()
```

#### Data or dead code:

```
# Dead code (unreachable instructions):
     0x0103 [0x01] GOTO 0x0106
```

### Event 8

#### Metadata

| Field        | Value      |
|--------------|------------|
| Entrypoint   | 0x02FD     |
| Data Size    | 1088 bytes |
| Instructions | 73         |

```
      00 01 02 03 04 05 06 07  08 09 0A 0B 0C 0D 0E 0F
      -- -- -- -- -- -- -- --  -- -- -- -- -- -- -- --
02F0:                                         42 1A 0F               B..
0300: 05 46 01 38 00 80 79 00  F0 FF FF 7F F0 FF FF 7F  .F.8..y.........
0310: 92 01 B1 41 03 01 94 01  F0 FF FF 7F 94 01 B1 41  ...A...........A
0320: 03 01 29 10 F0 FF FF 7F  1B 80 F0 FF FF 7F 80 B1  ..).............
0330: 41 03 01 1C 01 80 4A B1  41 03 01 F0 FF FF 7F 4A  A.....J.A......J
0340: F0 FF FF 7F B1 41 03 01  1C 02 80 45 20 80 F0 FF  .....A.....E ...
0350: FF 7F F0 FF FF 7F 61 65  30 30 04 80 1C 01 80 1A  ......ae00......
0360: EE 04 2B B1 41 03 01 21  80 23 6E B1 41 03 01 22  ..+.A..!.#n.A.."
0370: 80 99 B1 41 03 01 99 B1  41 03 01 2B B1 41 03 01  ...A....A..+.A..
0380: 23 80 23 52 20 80 F0 FF  FF 7F F0 FF FF 7F 61 65  #.#R .........ae
0390: 30 30 45 20 80 F0 FF FF  7F F0 FF FF 7F 61 65 30  00E .........ae0
03A0: 31 04 80 2B B1 41 03 01  24 80 23 6E B1 41 03 01  1..+.A..$.#n.A..
03B0: 25 80 99 B1 41 03 01 99  B1 41 03 01 2B B1 41 03  %...A....A..+.A.
03C0: 01 26 80 23 6E B1 41 03  01 27 80 99 B1 41 03 01  .&.#n.A..'...A..
03D0: 99 B1 41 03 01 2B B1 41  03 01 28 80 23 1C 02 80  ..A..+.A..(.#...
03E0: 2B B1 41 03 01 29 80 73  2A 80 B1 41 03 01 F0 FF  +.A..).s*..A....
03F0: FF 7F 1C 1C 80 52 20 80  F0 FF FF 7F F0 FF FF 7F  .....R .........
0400: 61 65 30 31 45 20 80 F0  FF FF 7F F0 FF FF 7F 61  ae01E .........a
0410: 65 30 32 04 80 1C 2B 80  29 10 F0 FF FF 7F 1E 55  e02...+.)......U
0420: 20 80 F0 FF FF 7F F0 FF  FF 7F 61 65 30 32 45 20   .........ae02E 
0430: 80 F0 FF FF 7F F0 FF FF  7F 61 65 30 34 04 80 6E  .........ae04..n
0440: B1 41 03 01 2C 80 99 B1  41 03 01 99 B1 41 03 01  .A..,...A....A..
0450: 2B B1 41 03 01 2D 80 23  52 20 80 F0 FF FF 7F F0  +.A..-.#R ......
0460: FF FF 7F 61 65 30 34 45  20 80 F0 FF FF 7F F0 FF  ...ae04E .......
0470: FF 7F 61 65 30 35 04 80  6E B1 41 03 01 22 80 99  ..ae05..n.A.."..
0480: B1 41 03 01 2B B1 41 03  01 2E 80 23 99 B1 41 03  .A..+.A....#..A.
0490: 01 1A 0F 05 1C 02 80 46  00 45 1F 80 F0 FF FF 7F  .......F.E......
04A0: F0 FF FF 7F 66 64 69 32  04 80 21 00 45 1F 80 F0  ....fdi2..!.E...
04B0: FF FF 7F F0 FF FF 7F 66  64 69 30 04 80 55 1F 80  .......fdi0..U..
04C0: F0 FF FF 7F F0 FF FF 7F  66 64 69 30 1B 45 1F 80  ........fdi0.E..
04D0: F0 FF FF 7F F0 FF FF 7F  66 64 6F 30 04 80 55 1F  ........fdo0..U.
04E0: 80 F0 FF FF 7F F0 FF FF  7F 66 64 6F 30 1B 45 1F  .........fdo0.E.
04F0: 80 F0 FF FF 7F F0 FF FF  7F 66 64 69 31 04 80 55  .........fdi1..U
0500: 1F 80 F0 FF FF 7F F0 FF  FF 7F 66 64 69 31 1B 45  ..........fdi1.E
0510: 1F 80 F0 FF FF 7F F0 FF  FF 7F 66 64 6F 31 04 80  ..........fdo1..
0520: 55 1F 80 F0 FF FF 7F F0  FF FF 7F 66 64 6F 31 1B  U..........fdo1.
0530: 45 2F 80 F0 FF FF 7F F0  FF FF 7F 77 68 69 31 04  E/.........whi1.
0540: 80 55 2F 80 F0 FF FF 7F  F0 FF FF 7F 77 68 69 31  .U/.........whi1
0550: 1B 45 2F 80 F0 FF FF 7F  F0 FF FF 7F 77 68 6F 31  .E/.........who1
0560: 04 80 55 2F 80 F0 FF FF  7F F0 FF FF 7F 77 68 6F  ..U/.........who
0570: 31 1B 45 2F 80 F0 FF FF  7F F0 FF FF 7F 77 68 6F  1.E/.........who
0580: 32 04 80 55 2F 80 F0 FF  FF 7F F0 FF FF 7F 77 68  2..U/.........wh
0590: 6F 32 1B 45 2F 80 F0 FF  FF 7F F0 FF FF 7F 77 68  o2.E/.........wh
05A0: 6F 33 04 80 55 2F 80 F0  FF FF 7F F0 FF FF 7F 77  o3..U/.........w
05B0: 68 6F 33 1B 62 0A 80 F0  FF FF 7F F0 FF FF 7F 6D  ho3.b..........m
05C0: 61 69 6E 04 80 1C 0D 80  45 1F 80 F0 FF FF 7F F0  ain.....E.......
05D0: FF FF 7F 66 64 6F 31 04  80 55 1F 80 F0 FF FF 7F  ...fdo1..U......
05E0: F0 FF FF 7F 66 64 6F 31  1B 45 1F 80 F0 FF FF 7F  ....fdo1.E......
05F0: F0 FF FF 7F 66 64 69 31  04 80 62 30 80 F0 FF FF  ....fdi1..b0....
0600: 7F F0 FF FF 7F 6D 61 69  6E 04 80 1C 02 80 55 1F  .....main.....U.
0610: 80 F0 FF FF 7F F0 FF FF  7F 66 64 69 31 1B 45 1F  .........fdi1.E.
0620: 80 F0 FF FF 7F F0 FF FF  7F 62 6C 6F 6E 04 80 45  .........blon..E
0630: 2F 80 F0 FF FF 7F F0 FF  FF 7F 62 6C 6F 6E 04 80  /.........blon..
0640: 1B 45 2F 80 F0 FF FF 7F  F0 FF FF 7F 77 68 69 30  .E/.........whi0
0650: 04 80 55 2F 80 F0 FF FF  7F F0 FF FF 7F 77 68 69  ..U/.........whi
0660: 30 1B 45 2F 80 F0 FF FF  7F F0 FF FF 7F 77 68 6F  0.E/.........who
0670: 30 04 80 55 2F 80 F0 FF  FF 7F F0 FF FF 7F 77 68  0..U/.........wh
0680: 6F 30 1B 45 31 80 F0 FF  FF 7F F0 FF FF 7F 65 66  o0.E1.........ef
0690: 6F 6E 04 80 55 31 80 F0  FF FF 7F F0 FF FF 7F 65  on..U1.........e
06A0: 66 6F 6E 1B 45 1F 80 F0  FF FF 7F F0 FF FF 7F 66  fon.E..........f
06B0: 64 69 73 04 80 1B 45 1F  80 F0 FF FF 7F F0 FF FF  dis...E.........
06C0: 7F 66 64 6F 73 04 80 55  1F 80 F0 FF FF 7F F0 FF  .fdos..U........
06D0: FF 7F 66 64 6F 73 1B 45  1F 80 F0 FF FF 7F F0 FF  ..fdos.E........
06E0: FF 7F 66 64 69 66 04 80  1B 45 1F 80 F0 FF FF 7F  ..fdif...E......
06F0: F0 FF FF 7F 66 64 6F 66  04 80 55 1F 80 F0 FF FF  ....fdof..U.....
0700: 7F F0 FF FF 7F 66 64 6F  66 1B 45 1F 80 F0 FF FF  .....fdof.E.....
0710: 7F F0 FF FF 7F 66 64 69  70 04 80 1B 45 1F 80 F0  .....fdip...E...
0720: FF FF 7F F0 FF FF 7F 66  64 6F 70 04 80 55 1F 80  .......fdop..U..
0730: F0 FF FF 7F F0 FF FF 7F  66 64 6F 70 1B           ........fdop.   
```

#### Opcodes

```
  0: 0x02FD [0x42] SET_CLI_EVENT_CANCEL_DATA()
  1: 0x02FE [0x1A] CALL_SUBROUTINE(address=0x050F)
  2: 0x0301 [0x46] CAMERA_CONTROL: Disable user control
  3: 0x0303 [0x38] SET_CLIENT_EVENT_MODE(mode=19*)
  4: 0x0306 [0x79] LocalPlayer looks at LocalPlayer (Basic look)
  5: 0x0310 [0x92] Daswil (ID: 16990641/0x010341B1)->Render.Flags3 ^= 0x01
  6: 0x0316 [0x94] LocalPlayer->Render.Flags3 ^= 0x01
  7: 0x031C [0x94] Daswil (ID: 16990641/0x010341B1)->Render.Flags3 ^= 0x01
  8: 0x0322 [0x29] REQ_SET_WAIT(priority=0x10, entity_id=LocalPlayer, tag_num=0x1B)
  9: 0x0329 [0x80] LOAD_WAIT(entity=LocalPlayer)
 10: 0x032E [0x80] LOAD_WAIT(entity=Daswil (ID: 16990641/0x010341B1))
 11: 0x0333 [0x1C] WAIT(15* ticks)
 12: 0x0336 [0x4A] Daswil (ID: 16990641/0x010341B1) looks at LocalPlayer
 13: 0x033F [0x4A] LocalPlayer looks at Daswil (ID: 16990641/0x010341B1)
 14: 0x0348 [0x1C] WAIT(30* ticks)
 15: 0x034B [0x45] LOAD_SCHEDULED_TASK: Load scheduler "ae00" with entities [LocalPlayer, LocalPlayer], work=[273*, 0*]
 16: 0x035C [0x1C] WAIT(15* ticks)
 17: 0x035F [0x1A] CALL_SUBROUTINE(address=0x04EE)
 18: 0x0362 [0x2B] Daswil (ID: 16990641/0x010341B1) [7656*]:
    → "That mark... Well, well. Well, indeed..."
 19: 0x0369 [0x23] WAIT_FOR_DIALOG_INTERACTION
 20: 0x036A [0x6E] Daswil (ID: 16990641/0x010341B1) uses emote 4*
 21: 0x0371 [0x99] Wait for Daswil (ID: 16990641/0x010341B1) animation to complete
 22: 0x0376 [0x99] Wait for Daswil (ID: 16990641/0x010341B1) animation to complete
 23: 0x037B [0x2B] Daswil (ID: 16990641/0x010341B1) [7657*]:
    → "Gwahahahaha!"
 24: 0x0382 [0x23] WAIT_FOR_DIALOG_INTERACTION
 25: 0x0383 [0x52] END_LOAD_SCHEDULER: End scheduler "ae00" with entities [LocalPlayer, LocalPlayer], work=273*
 26: 0x0392 [0x45] LOAD_SCHEDULED_TASK: Load scheduler "ae01" with entities [LocalPlayer, LocalPlayer], work=[273*, 0*]
 27: 0x03A3 [0x2B] Daswil (ID: 16990641/0x010341B1) [7658*]:
    → "Were Naja's little errands not enough to satisfy your lust for power?"
 28: 0x03AA [0x23] WAIT_FOR_DIALOG_INTERACTION
 29: 0x03AB [0x6E] Daswil (ID: 16990641/0x010341B1) uses emote 25*
 30: 0x03B2 [0x99] Wait for Daswil (ID: 16990641/0x010341B1) animation to complete
 31: 0x03B7 [0x99] Wait for Daswil (ID: 16990641/0x010341B1) animation to complete
 32: 0x03BC [0x2B] Daswil (ID: 16990641/0x010341B1) [7659*]:
    → "Wonderful! That is how it should be--mortals striving to be more than ordinary."
 33: 0x03C3 [0x23] WAIT_FOR_DIALOG_INTERACTION
 34: 0x03C4 [0x6E] Daswil (ID: 16990641/0x010341B1) uses emote 36*
 35: 0x03CB [0x99] Wait for Daswil (ID: 16990641/0x010341B1) animation to complete
 36: 0x03D0 [0x99] Wait for Daswil (ID: 16990641/0x010341B1) animation to complete
 37: 0x03D5 [0x2B] Daswil (ID: 16990641/0x010341B1) [7660*]:
    → "The world teaches us this is so. You've brought a smile to my face!"
 38: 0x03DC [0x23] WAIT_FOR_DIALOG_INTERACTION
 39: 0x03DD [0x1C] WAIT(30* ticks)
 40: 0x03E0 [0x2B] Daswil (ID: 16990641/0x010341B1) [7661*]:
    → "Let's see if I can't do the same for you."
 41: 0x03E7 [0x73] Daswil (ID: 16990641/0x010341B1) casts magic 724* on LocalPlayer
 42: 0x03F2 [0x1C] WAIT(60* ticks)
 43: 0x03F5 [0x52] END_LOAD_SCHEDULER: End scheduler "ae01" with entities [LocalPlayer, LocalPlayer], work=273*
 44: 0x0404 [0x45] LOAD_SCHEDULED_TASK: Load scheduler "ae02" with entities [LocalPlayer, LocalPlayer], work=[273*, 0*]
 45: 0x0415 [0x1C] WAIT(180* ticks)
 46: 0x0418 [0x29] REQ_SET_WAIT(priority=0x10, entity_id=LocalPlayer, tag_num=0x1E)
 47: 0x041F [0x55] WAIT_LOAD_SCHEDULER: Wait for scheduler "ae02" with entities [LocalPlayer, LocalPlayer], work=273*
 48: 0x042E [0x45] LOAD_SCHEDULED_TASK: Load scheduler "ae04" with entities [LocalPlayer, LocalPlayer], work=[273*, 0*]
 49: 0x043F [0x6E] Daswil (ID: 16990641/0x010341B1) uses emote 22*
 50: 0x0446 [0x99] Wait for Daswil (ID: 16990641/0x010341B1) animation to complete
 51: 0x044B [0x99] Wait for Daswil (ID: 16990641/0x010341B1) animation to complete
 52: 0x0450 [0x2B] Daswil (ID: 16990641/0x010341B1) [7662*]:
    → "Oho, you're stronger than you look. Your ambition has tempered your will."
 53: 0x0457 [0x23] WAIT_FOR_DIALOG_INTERACTION
 54: 0x0458 [0x52] END_LOAD_SCHEDULER: End scheduler "ae04" with entities [LocalPlayer, LocalPlayer], work=273*
 55: 0x0467 [0x45] LOAD_SCHEDULED_TASK: Load scheduler "ae05" with entities [LocalPlayer, LocalPlayer], work=[273*, 0*]
 56: 0x0478 [0x6E] Daswil (ID: 16990641/0x010341B1) uses emote 4*
 57: 0x047F [0x99] Wait for Daswil (ID: 16990641/0x010341B1) animation to complete
 58: 0x0484 [0x2B] Daswil (ID: 16990641/0x010341B1) [7663*]:
    → "Gwahahahaha! You know how to get on my good side!"
 59: 0x048B [0x23] WAIT_FOR_DIALOG_INTERACTION
 60: 0x048C [0x99] Wait for Daswil (ID: 16990641/0x010341B1) animation to complete
 61: 0x0491 [0x1A] CALL_SUBROUTINE(address=0x050F)
 62: 0x0494 [0x1C] WAIT(30* ticks)
 63: 0x0497 [0x46] CAMERA_CONTROL: Restore default settings
 64: 0x0499 [0x45] LOAD_SCHEDULED_TASK: Load scheduler "fdi2" with entities [LocalPlayer, LocalPlayer], work=[200*, 0*]
 65: 0x04AA [0x21] END_EVENT
 66: 0x04AB [0x00] END_REQSTACK()

SUBROUTINE_04EE:
 67: 0x04EE [0x45] LOAD_SCHEDULED_TASK: Load scheduler "fdi1" with entities [LocalPlayer, LocalPlayer], work=[200*, 0*]
 68: 0x04FF [0x55] WAIT_LOAD_SCHEDULER: Wait for scheduler "fdi1" with entities [LocalPlayer, LocalPlayer], work=200*
 69: 0x050E [0x1B] RETURN

SUBROUTINE_050F:
 70: 0x050F [0x45] LOAD_SCHEDULED_TASK: Load scheduler "fdo1" with entities [LocalPlayer, LocalPlayer], work=[200*, 0*]
 71: 0x0520 [0x55] WAIT_LOAD_SCHEDULER: Wait for scheduler "fdo1" with entities [LocalPlayer, LocalPlayer], work=200*
 72: 0x052F [0x1B] RETURN
```

#### Data or dead code:

```
# Dead code (unreachable instructions):
     0x04AC [0x45] LOAD_SCHEDULED_TASK: Load scheduler "fdi0" with entities [LocalPlayer, LocalPlayer], work=[200*, 0*]
     0x04BD [0x55] WAIT_LOAD_SCHEDULER: Wait for scheduler "fdi0" with entities [LocalPlayer, LocalPlayer], work=200*
     0x04CC [0x1B] RETURN
     0x04CD [0x45] LOAD_SCHEDULED_TASK: Load scheduler "fdo0" with entities [LocalPlayer, LocalPlayer], work=[200*, 0*]
     0x04DE [0x55] WAIT_LOAD_SCHEDULER: Wait for scheduler "fdo0" with entities [LocalPlayer, LocalPlayer], work=200*
     0x04ED [0x1B] RETURN
# Dead code (unreachable instructions):
     0x0530 [0x45] LOAD_SCHEDULED_TASK: Load scheduler "whi1" with entities [LocalPlayer, LocalPlayer], work=[201*, 0*]
     0x0541 [0x55] WAIT_LOAD_SCHEDULER: Wait for scheduler "whi1" with entities [LocalPlayer, LocalPlayer], work=201*
     0x0550 [0x1B] RETURN
     0x0551 [0x45] LOAD_SCHEDULED_TASK: Load scheduler "who1" with entities [LocalPlayer, LocalPlayer], work=[201*, 0*]
     0x0562 [0x55] WAIT_LOAD_SCHEDULER: Wait for scheduler "who1" with entities [LocalPlayer, LocalPlayer], work=201*
     0x0571 [0x1B] RETURN
     0x0572 [0x45] LOAD_SCHEDULED_TASK: Load scheduler "who2" with entities [LocalPlayer, LocalPlayer], work=[201*, 0*]
     0x0583 [0x55] WAIT_LOAD_SCHEDULER: Wait for scheduler "who2" with entities [LocalPlayer, LocalPlayer], work=201*
     0x0592 [0x1B] RETURN
     0x0593 [0x45] LOAD_SCHEDULED_TASK: Load scheduler "who3" with entities [LocalPlayer, LocalPlayer], work=[201*, 0*]
     0x05A4 [0x55] WAIT_LOAD_SCHEDULER: Wait for scheduler "who3" with entities [LocalPlayer, LocalPlayer], work=201*
     0x05B3 [0x1B] RETURN
     0x05B4 [0x62] LOAD_EVENT_SCHEDULER: Load scheduler "main" with entities [LocalPlayer, LocalPlayer], work=[1*, 0*]
     0x05C5 [0x1C] WAIT(45* ticks)
     0x05C8 [0x45] LOAD_SCHEDULED_TASK: Load scheduler "fdo1" with entities [LocalPlayer, LocalPlayer], work=[200*, 0*]
     0x05D9 [0x55] WAIT_LOAD_SCHEDULER: Wait for scheduler "fdo1" with entities [LocalPlayer, LocalPlayer], work=200*
     0x05E8 [0x1B] RETURN
     0x05E9 [0x45] LOAD_SCHEDULED_TASK: Load scheduler "fdi1" with entities [LocalPlayer, LocalPlayer], work=[200*, 0*]
     0x05FA [0x62] LOAD_EVENT_SCHEDULER: Load scheduler "main" with entities [LocalPlayer, LocalPlayer], work=[2*, 0*]
     0x060B [0x1C] WAIT(30* ticks)
     0x060E [0x55] WAIT_LOAD_SCHEDULER: Wait for scheduler "fdi1" with entities [LocalPlayer, LocalPlayer], work=200*
     0x061D [0x1B] RETURN
     0x061E [0x45] LOAD_SCHEDULED_TASK: Load scheduler "blon" with entities [LocalPlayer, LocalPlayer], work=[200*, 0*]
     0x062F [0x45] LOAD_SCHEDULED_TASK: Load scheduler "blon" with entities [LocalPlayer, LocalPlayer], work=[201*, 0*]
     0x0640 [0x1B] RETURN
     0x0641 [0x45] LOAD_SCHEDULED_TASK: Load scheduler "whi0" with entities [LocalPlayer, LocalPlayer], work=[201*, 0*]
     0x0652 [0x55] WAIT_LOAD_SCHEDULER: Wait for scheduler "whi0" with entities [LocalPlayer, LocalPlayer], work=201*
     0x0661 [0x1B] RETURN
     0x0662 [0x45] LOAD_SCHEDULED_TASK: Load scheduler "who0" with entities [LocalPlayer, LocalPlayer], work=[201*, 0*]
     0x0673 [0x55] WAIT_LOAD_SCHEDULER: Wait for scheduler "who0" with entities [LocalPlayer, LocalPlayer], work=201*
     0x0682 [0x1B] RETURN
     0x0683 [0x45] LOAD_SCHEDULED_TASK: Load scheduler "efon" with entities [LocalPlayer, LocalPlayer], work=[215*, 0*]
     0x0694 [0x55] WAIT_LOAD_SCHEDULER: Wait for scheduler "efon" with entities [LocalPlayer, LocalPlayer], work=215*
     0x06A3 [0x1B] RETURN
     0x06A4 [0x45] LOAD_SCHEDULED_TASK: Load scheduler "fdis" with entities [LocalPlayer, LocalPlayer], work=[200*, 0*]
     0x06B5 [0x1B] RETURN
     0x06B6 [0x45] LOAD_SCHEDULED_TASK: Load scheduler "fdos" with entities [LocalPlayer, LocalPlayer], work=[200*, 0*]
     0x06C7 [0x55] WAIT_LOAD_SCHEDULER: Wait for scheduler "fdos" with entities [LocalPlayer, LocalPlayer], work=200*
     0x06D6 [0x1B] RETURN
     0x06D7 [0x45] LOAD_SCHEDULED_TASK: Load scheduler "fdif" with entities [LocalPlayer, LocalPlayer], work=[200*, 0*]
     0x06E8 [0x1B] RETURN
     0x06E9 [0x45] LOAD_SCHEDULED_TASK: Load scheduler "fdof" with entities [LocalPlayer, LocalPlayer], work=[200*, 0*]
     0x06FA [0x55] WAIT_LOAD_SCHEDULER: Wait for scheduler "fdof" with entities [LocalPlayer, LocalPlayer], work=200*
     0x0709 [0x1B] RETURN
     0x070A [0x45] LOAD_SCHEDULED_TASK: Load scheduler "fdip" with entities [LocalPlayer, LocalPlayer], work=[200*, 0*]
     0x071B [0x1B] RETURN
     0x071C [0x45] LOAD_SCHEDULED_TASK: Load scheduler "fdop" with entities [LocalPlayer, LocalPlayer], work=[200*, 0*]
     0x072D [0x55] WAIT_LOAD_SCHEDULER: Wait for scheduler "fdop" with entities [LocalPlayer, LocalPlayer], work=200*
     0x073C [0x1B] RETURN
```
