# 16990637

## Common Data

| Field            | Value                     |
|------------------|---------------------------|
| Zone             | Bhaflau Thickets (ID: 52) |
| Block Size       | 144 bytes                 |
| Total Events     | 5                         |
| References Count | 12                        |

## List of Events

| Event ID                 | Entrypoint   |   Size |   Instructions |
|--------------------------|--------------|--------|----------------|
| [65535](#event-65535)    | 0x0000       |      1 |              1 |
| [1](#event-1)            | 0x0001       |      1 |              1 |
| [65535.1](#event-655351) | 0x0002       |     15 |              3 |
| [65535.2](#event-655352) | 0x0011       |     19 |              5 |
| [65535.3](#event-655353) | 0x0024       |     22 |              6 |

## DAT References (imed_data)

|   Index | Hex Value   |   Dec Value |
|---------|-------------|-------------|
|       0 | 0x705A1     |      460193 |
|       1 | 0x3E65F     |      255583 |
|       2 | 0xFFFFC4D3  |  4294952147 |
|       3 | 0x0E59      |        3673 |
|       4 | 0x0028      |          40 |
|       5 | 0x709ED     |      461293 |
|       6 | 0x3EBCE     |      256974 |
|       7 | 0xFFFFC646  |  4294952518 |
|       8 | 0x71261     |      463457 |
|       9 | 0x3E976     |      256374 |
|      10 | 0xFFFFC764  |  4294952804 |
|      11 | 0x003C      |          60 |

## Events

### Event 65535

#### Metadata

| Field        | Value   |
|--------------|---------|
| Entrypoint   | 0x0000  |
| Data Size    | 1 bytes |
| Instructions | 1       |

```
      00 01 02 03 04 05 06 07  08 09 0A 0B 0C 0D 0E 0F
      -- -- -- -- -- -- -- --  -- -- -- -- -- -- -- --
0000: 00                                                .               
```

#### Opcodes

```
  0: 0x0000 [0x00] END_REQSTACK()
```

### Event 1

#### Metadata

| Field        | Value   |
|--------------|---------|
| Entrypoint   | 0x0001  |
| Data Size    | 1 bytes |
| Instructions | 1       |

```
      00 01 02 03 04 05 06 07  08 09 0A 0B 0C 0D 0E 0F
      -- -- -- -- -- -- -- --  -- -- -- -- -- -- -- --
0000:    00                                              .              
```

#### Opcodes

```
  0: 0x0001 [0x00] END_REQSTACK()
```

### Event 65535.1

#### Metadata

| Field        | Value    |
|--------------|----------|
| Entrypoint   | 0x0002   |
| Data Size    | 15 bytes |
| Instructions | 3        |

```
      00 01 02 03 04 05 06 07  08 09 0A 0B 0C 0D 0E 0F
      -- -- -- -- -- -- -- --  -- -- -- -- -- -- -- --
0000:       37 00 80 01 80 02  80 03 80 80 F8 FF FF 7F    7.............
0010: 00                                                .               
```

#### Opcodes

```
  0: 0x0002 [0x37] UPDATE_EVENT_POSITION_AND_DIR: x=460.193*, z=255.583*, y=-15.149*, direction=322.8°*
  1: 0x000B [0x80] LOAD_WAIT(entity=EventEntity)
  2: 0x0010 [0x00] END_REQSTACK()
```

### Event 65535.2

#### Metadata

| Field        | Value    |
|--------------|----------|
| Entrypoint   | 0x0011   |
| Data Size    | 19 bytes |
| Instructions | 5        |

```
      00 01 02 03 04 05 06 07  08 09 0A 0B 0C 0D 0E 0F
      -- -- -- -- -- -- -- --  -- -- -- -- -- -- -- --
0010:    32 04 80 1F 00 05 80  06 80 07 80 1F 01 1E AB   2..............
0020: 41 03 01 00                                       A...            
```

#### Opcodes

```
  0: 0x0011 [0x32] ExtData[1]->MainSpeed = 40* * 0.1
  1: 0x0014 [0x1F] MOVE_ENTITY: EventEntity moves to X=461.293*, Z=256.974*, Y=-14.778*
  2: 0x001C [0x1F] MOVE_ENTITY: Update entity position (mode=1)
  3: 0x001E [0x1E] EventEntity looks at Alcander (ID: 16990635/0x010341AB) and starts talking
  4: 0x0023 [0x00] END_REQSTACK()
```

### Event 65535.3

#### Metadata

| Field        | Value    |
|--------------|----------|
| Entrypoint   | 0x0024   |
| Data Size    | 22 bytes |
| Instructions | 6        |

```
      00 01 02 03 04 05 06 07  08 09 0A 0B 0C 0D 0E 0F
      -- -- -- -- -- -- -- --  -- -- -- -- -- -- -- --
0020:             32 04 80 1F  00 08 80 09 80 0A 80 1F      2...........
0030: 01 1E F0 FF FF 7F 1C 0B  80 00                    ..........      
```

#### Opcodes

```
  0: 0x0024 [0x32] ExtData[1]->MainSpeed = 40* * 0.1
  1: 0x0027 [0x1F] MOVE_ENTITY: EventEntity moves to X=463.457*, Z=256.374*, Y=-14.492*
  2: 0x002F [0x1F] MOVE_ENTITY: Update entity position (mode=1)
  3: 0x0031 [0x1E] EventEntity looks at LocalPlayer and starts talking
  4: 0x0036 [0x1C] WAIT(60* ticks)
  5: 0x0039 [0x00] END_REQSTACK()
```
