# 0x7FFFFFF0 - Zone Events

## Common Data

| Field            | Value                     |
|------------------|---------------------------|
| Zone             | Bhaflau Thickets (ID: 52) |
| Block Size       | 1064 bytes                |
| Total Events     | 32                        |
| References Count | 68                        |

## List of Events

| Event ID                 | Entrypoint   |   Size |   Instructions |
|--------------------------|--------------|--------|----------------|
| [65535](#event-65535)    | 0x0000       |      1 |              1 |
| [65534](#event-65534)    | 0x0001       |      1 |              1 |
| [511](#event-511)        | 0x0002       |     46 |              8 |
| [90](#event-90)          | 0x0030       |     41 |              5 |
| [100](#event-100)        | 0x0059       |     10 |              2 |
| [101](#event-101)        | 0x0063       |     14 |              4 |
| [102](#event-102)        | 0x0071       |     13 |              3 |
| [103](#event-103)        | 0x007E       |     10 |              2 |
| [104](#event-104)        | 0x0088       |     14 |              4 |
| [105](#event-105)        | 0x0096       |     13 |              3 |
| [110](#event-110)        | 0x00A3       |     10 |              2 |
| [500](#event-500)        | 0x00AD       |     13 |              3 |
| [501](#event-501)        | 0x00BA       |     14 |              4 |
| [123](#event-123)        | 0x00C8       |     10 |              2 |
| [124](#event-124)        | 0x00D2       |     14 |              4 |
| [125](#event-125)        | 0x00E0       |     10 |              2 |
| [126](#event-126)        | 0x00EA       |     14 |              4 |
| [127](#event-127)        | 0x00F8       |     13 |              3 |
| [137](#event-137)        | 0x0105       |     10 |              2 |
| [138](#event-138)        | 0x010F       |     14 |              4 |
| [139](#event-139)        | 0x011D       |     10 |              2 |
| [140](#event-140)        | 0x0127       |     14 |              4 |
| [141](#event-141)        | 0x0135       |     13 |              3 |
| [65535.1](#event-655351) | 0x0142       |     15 |              3 |
| [65535.2](#event-655352) | 0x0151       |     19 |              5 |
| [65535.3](#event-655353) | 0x0164       |     22 |              6 |
| [65535.4](#event-655354) | 0x017A       |     15 |              3 |
| [65535.5](#event-655355) | 0x0189       |     10 |              2 |
| [65535.6](#event-655356) | 0x0193       |     10 |              2 |
| [65535.7](#event-655357) | 0x019D       |     10 |              2 |
| [65535.8](#event-655358) | 0x01A7       |     37 |              5 |
| [65535.9](#event-655359) | 0x01CC       |    185 |             37 |

## DAT References (imed_data)

|   Index | Hex Value   |   Dec Value |
|---------|-------------|-------------|
|       0 | 0x1DB3      |        7603 |
|       1 | 0x00C9      |         201 |
|       2 | 0x0000      |           0 |
|       3 | 0x008C      |         140 |
|       4 | 0x00C8      |         200 |
|       5 | 0x003C      |          60 |
|       6 | 0xFFFD40D1  |  4294787281 |
|       7 | 0xFFF46C5E  |  4294208606 |
|       8 | 0xFFFFD64D  |  4294956621 |
|       9 | 0x0400      |        1024 |
|      10 | 0x000D      |          13 |
|      11 | 0xFFFD40F7  |  4294787319 |
|      12 | 0xFFF456B5  |  4294203061 |
|      13 | 0xFFFFD619  |  4294956569 |
|      14 | 0x0C00      |        3072 |
|      15 | 0xFFFCC4C2  |  4294755522 |
|      16 | 0xFFF38491  |  4294149265 |
|      17 | 0xFFFFD315  |  4294955797 |
|      18 | 0x1000      |        4096 |
|      19 | 0x8BC0C     |      572428 |
|      20 | 0x222EF     |      140015 |
|      21 | 0xFFFFD709  |  4294956809 |
|      22 | 0x8CEDD     |      577245 |
|      23 | 0x222FB     |      140027 |
|      24 | 0x4EC1      |       20161 |
|      25 | 0x9190D     |      596237 |
|      26 | 0xFFFF92A0  |  4294939296 |
|      27 | 0x4EA4      |       20132 |
|      28 | 0x928AC     |      600236 |
|      29 | 0x4E1B      |       19995 |
|      30 | 0x92837     |      600119 |
|      31 | 0xFFF8FBB7  |  4294507447 |
|      32 | 0xFFFFEDC5  |  4294962629 |
|      33 | 0xFFFFC126  |  4294951206 |
|      34 | 0xFFF8FB88  |  4294507400 |
|      35 | 0xFFFFFAEF  |  4294965999 |
|      36 | 0xFFFFC180  |  4294951296 |
|      37 | 0x73005     |      471045 |
|      38 | 0x3EFAD     |      257965 |
|      39 | 0xFFFFD057  |  4294955095 |
|      40 | 0x07EA      |        2026 |
|      41 | 0x0028      |          40 |
|      42 | 0x71B12     |      465682 |
|      43 | 0x3F118     |      258328 |
|      44 | 0xFFFFC979  |  4294953337 |
|      45 | 0x713FE     |      463870 |
|      46 | 0x3F00A     |      258058 |
|      47 | 0xFFFFC799  |  4294952857 |
|      48 | 0x07C4      |        1988 |
|      49 | 0xFFFCD566  |  4294759782 |
|      50 | 0xFFF4141B  |  4294186011 |
|      51 | 0xFFFFD2D2  |  4294955730 |
|      52 | 0x0A37      |        2615 |
|      53 | 0xFFFFC909  |  4294953225 |
|      54 | 0x222AA     |      139946 |
|      55 | 0xFFFF987E  |  4294940798 |
|      56 | 0x07FE      |        2046 |
|      57 | 0xFFFFFEFD  |  4294967037 |
|      58 | 0x2232C     |      140076 |
|      59 | 0xFFFFA434  |  4294943796 |
|      60 | 0x03F1      |        1009 |
|      61 | 0x0005      |           5 |
|      62 | 0x0001      |           1 |
|      63 | 0x0002      |           2 |
|      64 | 0x000A      |          10 |
|      65 | 0x0009      |           9 |
|      66 | 0x0046      |          70 |
|      67 | 0x00D2      |         210 |

## String References

- **7603**: The order has been given to invade [the Leujaoam Sanctum/the Mamool Ja Training Grounds/Lebros Cavern/Periqia/the Ilrusi Atoll/Nyzul Isle/the Ashu Talif/Zhayolm Remnants/Arrapago Remnants/Bhaflau Remnants/Silver Sea Remnants]!

## Events

### Event 65535

#### Metadata

| Field        | Value   |
|--------------|---------|
| Entrypoint   | 0x0000  |
| Data Size    | 1 bytes |
| Instructions | 1       |

```
      00 01 02 03 04 05 06 07  08 09 0A 0B 0C 0D 0E 0F
      -- -- -- -- -- -- -- --  -- -- -- -- -- -- -- --
0000: 00                                                .               
```

#### Opcodes

```
  0: 0x0000 [0x00] END_REQSTACK()
```

### Event 65534

#### Metadata

| Field        | Value   |
|--------------|---------|
| Entrypoint   | 0x0001  |
| Data Size    | 1 bytes |
| Instructions | 1       |

```
      00 01 02 03 04 05 06 07  08 09 0A 0B 0C 0D 0E 0F
      -- -- -- -- -- -- -- --  -- -- -- -- -- -- -- --
0000:    00                                              .              
```

#### Opcodes

```
  0: 0x0001 [0x00] END_REQSTACK()
```

### Event 511

#### Metadata

| Field        | Value    |
|--------------|----------|
| Entrypoint   | 0x0002   |
| Data Size    | 46 bytes |
| Instructions | 8        |

```
      00 01 02 03 04 05 06 07  08 09 0A 0B 0C 0D 0E 0F
      -- -- -- -- -- -- -- --  -- -- -- -- -- -- -- --
0000:       42 48 00 80 9F 01  80 F8 FF FF 7F F8 FF FF    BH............
0010: 7F 6D 61 69 6E 02 80 1C  03 80 45 04 80 F0 FF FF  .main.....E.....
0020: 7F F0 FF FF 7F 66 64 6F  31 02 80 1C 05 80 21 00  .....fdo1.....!.
```

#### Opcodes

```
  0: 0x0002 [0x42] SET_CLI_EVENT_CANCEL_DATA()
  1: 0x0003 [0x48] [System] [7603*]:
    → "The order has been given to invade [the Leujaoam Sanctum/the Mamool Ja Training Grounds/Lebros Cavern/Periqia/the Ilrusi Atoll/Nyzul Isle/the Ashu Talif/Zhayolm Remnants/Arrapago Remnants/Bhaflau Remnants/Silver Sea Remnants]!"
  2: 0x0006 [0x9F] LOAD_SCHEDULED_TASK_ALT: Load scheduler "main" with entities [EventEntity, EventEntity], work=[201*, 0*]
  3: 0x0017 [0x1C] WAIT(140* ticks)
  4: 0x001A [0x45] LOAD_SCHEDULED_TASK: Load scheduler "fdo1" with entities [LocalPlayer, LocalPlayer], work=[200*, 0*]
  5: 0x002B [0x1C] WAIT(60* ticks)
  6: 0x002E [0x21] END_EVENT
  7: 0x002F [0x00] END_REQSTACK()
```

### Event 90

#### Metadata

| Field        | Value    |
|--------------|----------|
| Entrypoint   | 0x0030   |
| Data Size    | 41 bytes |
| Instructions | 5        |

```
      00 01 02 03 04 05 06 07  08 09 0A 0B 0C 0D 0E 0F
      -- -- -- -- -- -- -- --  -- -- -- -- -- -- -- --
0030: 9F 01 80 F8 FF FF 7F F8  FF FF 7F 6D 61 69 6E 02  ...........main.
0040: 80 1C 03 80 45 04 80 F0  FF FF 7F F0 FF FF 7F 66  ....E..........f
0050: 64 6F 31 02 80 1C 05 80  00                       do1......       
```

#### Opcodes

```
  0: 0x0030 [0x9F] LOAD_SCHEDULED_TASK_ALT: Load scheduler "main" with entities [EventEntity, EventEntity], work=[201*, 0*]
  1: 0x0041 [0x1C] WAIT(140* ticks)
  2: 0x0044 [0x45] LOAD_SCHEDULED_TASK: Load scheduler "fdo1" with entities [LocalPlayer, LocalPlayer], work=[200*, 0*]
  3: 0x0055 [0x1C] WAIT(60* ticks)
  4: 0x0058 [0x00] END_REQSTACK()
```

### Event 100

#### Metadata

| Field        | Value    |
|--------------|----------|
| Entrypoint   | 0x0059   |
| Data Size    | 10 bytes |
| Instructions | 2        |

```
      00 01 02 03 04 05 06 07  08 09 0A 0B 0C 0D 0E 0F
      -- -- -- -- -- -- -- --  -- -- -- -- -- -- -- --
0050:                             37 06 80 07 80 08 80           7......
0060: 09 80 00                                          ...             
```

#### Opcodes

```
  0: 0x0059 [0x37] UPDATE_EVENT_POSITION_AND_DIR: x=-180.015*, z=-758.690*, y=-10.675*, direction=90.0°*
  1: 0x0062 [0x00] END_REQSTACK()
```

### Event 101

#### Metadata

| Field        | Value    |
|--------------|----------|
| Entrypoint   | 0x0063   |
| Data Size    | 14 bytes |
| Instructions | 4        |

```
      00 01 02 03 04 05 06 07  08 09 0A 0B 0C 0D 0E 0F
      -- -- -- -- -- -- -- --  -- -- -- -- -- -- -- --
0060:          32 0A 80 1F 00  0B 80 0C 80 0D 80 1F 01     2............
0070: 00                                                .               
```

#### Opcodes

```
  0: 0x0063 [0x32] ExtData[1]->MainSpeed = 13* * 0.1
  1: 0x0066 [0x1F] MOVE_ENTITY: EventEntity moves to X=-179.977*, Z=-764.235*, Y=-10.727*
  2: 0x006E [0x1F] MOVE_ENTITY: Update entity position (mode=1)
  3: 0x0070 [0x00] END_REQSTACK()
```

### Event 102

#### Metadata

| Field        | Value    |
|--------------|----------|
| Entrypoint   | 0x0071   |
| Data Size    | 13 bytes |
| Instructions | 3        |

```
      00 01 02 03 04 05 06 07  08 09 0A 0B 0C 0D 0E 0F
      -- -- -- -- -- -- -- --  -- -- -- -- -- -- -- --
0070:    47 00 0B 80 0C 80 0D  80 09 80 47 01 00         G.........G..  
```

#### Opcodes

```
  0: 0x0071 [0x47] UPDATE_PLAYER_POS(-179.977*, -764.235*, -10.727*, yaw=90.0°*)
  1: 0x007B [0x47] WAIT_PLAYER_POS_UPDATE
  2: 0x007D [0x00] END_REQSTACK()
```

### Event 103

#### Metadata

| Field        | Value    |
|--------------|----------|
| Entrypoint   | 0x007E   |
| Data Size    | 10 bytes |
| Instructions | 2        |

```
      00 01 02 03 04 05 06 07  08 09 0A 0B 0C 0D 0E 0F
      -- -- -- -- -- -- -- --  -- -- -- -- -- -- -- --
0070:                                            37 0B                7.
0080: 80 0C 80 0D 80 0E 80 00                           ........        
```

#### Opcodes

```
  0: 0x007E [0x37] UPDATE_EVENT_POSITION_AND_DIR: x=-179.977*, z=-764.235*, y=-10.727*, direction=270.0°*
  1: 0x0087 [0x00] END_REQSTACK()
```

### Event 104

#### Metadata

| Field        | Value    |
|--------------|----------|
| Entrypoint   | 0x0088   |
| Data Size    | 14 bytes |
| Instructions | 4        |

```
      00 01 02 03 04 05 06 07  08 09 0A 0B 0C 0D 0E 0F
      -- -- -- -- -- -- -- --  -- -- -- -- -- -- -- --
0080:                          32 0A 80 1F 00 06 80 07          2.......
0090: 80 08 80 1F 01 00                                 ......          
```

#### Opcodes

```
  0: 0x0088 [0x32] ExtData[1]->MainSpeed = 13* * 0.1
  1: 0x008B [0x1F] MOVE_ENTITY: EventEntity moves to X=-180.015*, Z=-758.690*, Y=-10.675*
  2: 0x0093 [0x1F] MOVE_ENTITY: Update entity position (mode=1)
  3: 0x0095 [0x00] END_REQSTACK()
```

### Event 105

#### Metadata

| Field        | Value    |
|--------------|----------|
| Entrypoint   | 0x0096   |
| Data Size    | 13 bytes |
| Instructions | 3        |

```
      00 01 02 03 04 05 06 07  08 09 0A 0B 0C 0D 0E 0F
      -- -- -- -- -- -- -- --  -- -- -- -- -- -- -- --
0090:                   47 00  06 80 07 80 08 80 0E 80        G.........
00A0: 47 01 00                                          G..             
```

#### Opcodes

```
  0: 0x0096 [0x47] UPDATE_PLAYER_POS(-180.015*, -758.690*, -10.675*, yaw=270.0°*)
  1: 0x00A0 [0x47] WAIT_PLAYER_POS_UPDATE
  2: 0x00A2 [0x00] END_REQSTACK()
```

### Event 110

#### Metadata

| Field        | Value    |
|--------------|----------|
| Entrypoint   | 0x00A3   |
| Data Size    | 10 bytes |
| Instructions | 2        |

```
      00 01 02 03 04 05 06 07  08 09 0A 0B 0C 0D 0E 0F
      -- -- -- -- -- -- -- --  -- -- -- -- -- -- -- --
00A0:          37 0F 80 10 80  11 80 12 80 00              7.........   
```

#### Opcodes

```
  0: 0x00A3 [0x37] UPDATE_EVENT_POSITION_AND_DIR: x=-211.774*, z=-818.031*, y=-11.499*, direction=360.0°*
  1: 0x00AC [0x00] END_REQSTACK()
```

### Event 500

#### Metadata

| Field        | Value    |
|--------------|----------|
| Entrypoint   | 0x00AD   |
| Data Size    | 13 bytes |
| Instructions | 3        |

```
      00 01 02 03 04 05 06 07  08 09 0A 0B 0C 0D 0E 0F
      -- -- -- -- -- -- -- --  -- -- -- -- -- -- -- --
00A0:                                         47 00 13               G..
00B0: 80 14 80 15 80 12 80 47  01 00                    .......G..      
```

#### Opcodes

```
  0: 0x00AD [0x47] UPDATE_PLAYER_POS(572.428*, 140.015*, -10.487*, yaw=360.0°*)
  1: 0x00B7 [0x47] WAIT_PLAYER_POS_UPDATE
  2: 0x00B9 [0x00] END_REQSTACK()
```

### Event 501

#### Metadata

| Field        | Value    |
|--------------|----------|
| Entrypoint   | 0x00BA   |
| Data Size    | 14 bytes |
| Instructions | 4        |

```
      00 01 02 03 04 05 06 07  08 09 0A 0B 0C 0D 0E 0F
      -- -- -- -- -- -- -- --  -- -- -- -- -- -- -- --
00B0:                                32 0A 80 1F 00 16            2.....
00C0: 80 17 80 15 80 1F 01 00                           ........        
```

#### Opcodes

```
  0: 0x00BA [0x32] ExtData[1]->MainSpeed = 13* * 0.1
  1: 0x00BD [0x1F] MOVE_ENTITY: EventEntity moves to X=577.245*, Z=140.027*, Y=-10.487*
  2: 0x00C5 [0x1F] MOVE_ENTITY: Update entity position (mode=1)
  3: 0x00C7 [0x00] END_REQSTACK()
```

### Event 123

#### Metadata

| Field        | Value    |
|--------------|----------|
| Entrypoint   | 0x00C8   |
| Data Size    | 10 bytes |
| Instructions | 2        |

```
      00 01 02 03 04 05 06 07  08 09 0A 0B 0C 0D 0E 0F
      -- -- -- -- -- -- -- --  -- -- -- -- -- -- -- --
00C0:                          37 18 80 19 80 1A 80 0E          7.......
00D0: 80 00                                             ..              
```

#### Opcodes

```
  0: 0x00C8 [0x37] UPDATE_EVENT_POSITION_AND_DIR: x=20.161*, z=596.237*, y=-28.000*, direction=270.0°*
  1: 0x00D1 [0x00] END_REQSTACK()
```

### Event 124

#### Metadata

| Field        | Value    |
|--------------|----------|
| Entrypoint   | 0x00D2   |
| Data Size    | 14 bytes |
| Instructions | 4        |

```
      00 01 02 03 04 05 06 07  08 09 0A 0B 0C 0D 0E 0F
      -- -- -- -- -- -- -- --  -- -- -- -- -- -- -- --
00D0:       32 0A 80 1F 00 1B  80 1C 80 1A 80 1F 01 00    2.............
```

#### Opcodes

```
  0: 0x00D2 [0x32] ExtData[1]->MainSpeed = 13* * 0.1
  1: 0x00D5 [0x1F] MOVE_ENTITY: EventEntity moves to X=20.132*, Z=600.236*, Y=-28.000*
  2: 0x00DD [0x1F] MOVE_ENTITY: Update entity position (mode=1)
  3: 0x00DF [0x00] END_REQSTACK()
```

### Event 125

#### Metadata

| Field        | Value    |
|--------------|----------|
| Entrypoint   | 0x00E0   |
| Data Size    | 10 bytes |
| Instructions | 2        |

```
      00 01 02 03 04 05 06 07  08 09 0A 0B 0C 0D 0E 0F
      -- -- -- -- -- -- -- --  -- -- -- -- -- -- -- --
00E0: 37 1D 80 1E 80 1A 80 09  80 00                    7.........      
```

#### Opcodes

```
  0: 0x00E0 [0x37] UPDATE_EVENT_POSITION_AND_DIR: x=19.995*, z=600.119*, y=-28.000*, direction=90.0°*
  1: 0x00E9 [0x00] END_REQSTACK()
```

### Event 126

#### Metadata

| Field        | Value    |
|--------------|----------|
| Entrypoint   | 0x00EA   |
| Data Size    | 14 bytes |
| Instructions | 4        |

```
      00 01 02 03 04 05 06 07  08 09 0A 0B 0C 0D 0E 0F
      -- -- -- -- -- -- -- --  -- -- -- -- -- -- -- --
00E0:                                32 0A 80 1F 00 18            2.....
00F0: 80 19 80 1A 80 1F 01 00                           ........        
```

#### Opcodes

```
  0: 0x00EA [0x32] ExtData[1]->MainSpeed = 13* * 0.1
  1: 0x00ED [0x1F] MOVE_ENTITY: EventEntity moves to X=20.161*, Z=596.237*, Y=-28.000*
  2: 0x00F5 [0x1F] MOVE_ENTITY: Update entity position (mode=1)
  3: 0x00F7 [0x00] END_REQSTACK()
```

### Event 127

#### Metadata

| Field        | Value    |
|--------------|----------|
| Entrypoint   | 0x00F8   |
| Data Size    | 13 bytes |
| Instructions | 3        |

```
      00 01 02 03 04 05 06 07  08 09 0A 0B 0C 0D 0E 0F
      -- -- -- -- -- -- -- --  -- -- -- -- -- -- -- --
00F0:                          47 00 18 80 19 80 1A 80          G.......
0100: 09 80 47 01 00                                    ..G..           
```

#### Opcodes

```
  0: 0x00F8 [0x47] UPDATE_PLAYER_POS(20.161*, 596.237*, -28.000*, yaw=90.0°*)
  1: 0x0102 [0x47] WAIT_PLAYER_POS_UPDATE
  2: 0x0104 [0x00] END_REQSTACK()
```

### Event 137

#### Metadata

| Field        | Value    |
|--------------|----------|
| Entrypoint   | 0x0105   |
| Data Size    | 10 bytes |
| Instructions | 2        |

```
      00 01 02 03 04 05 06 07  08 09 0A 0B 0C 0D 0E 0F
      -- -- -- -- -- -- -- --  -- -- -- -- -- -- -- --
0100:                37 1F 80  20 80 21 80 0E 80 00          7.. .!.... 
```

#### Opcodes

```
  0: 0x0105 [0x37] UPDATE_EVENT_POSITION_AND_DIR: x=-459.849*, z=-4.667*, y=-16.090*, direction=270.0°*
  1: 0x010E [0x00] END_REQSTACK()
```

### Event 138

#### Metadata

| Field        | Value    |
|--------------|----------|
| Entrypoint   | 0x010F   |
| Data Size    | 14 bytes |
| Instructions | 4        |

```
      00 01 02 03 04 05 06 07  08 09 0A 0B 0C 0D 0E 0F
      -- -- -- -- -- -- -- --  -- -- -- -- -- -- -- --
0100:                                               32                 2
0110: 0A 80 1F 00 22 80 23 80  24 80 1F 01 00           ....".#.$....   
```

#### Opcodes

```
  0: 0x010F [0x32] ExtData[1]->MainSpeed = 13* * 0.1
  1: 0x0112 [0x1F] MOVE_ENTITY: EventEntity moves to X=-459.896*, Z=-1.297*, Y=-16.000*
  2: 0x011A [0x1F] MOVE_ENTITY: Update entity position (mode=1)
  3: 0x011C [0x00] END_REQSTACK()
```

### Event 139

#### Metadata

| Field        | Value    |
|--------------|----------|
| Entrypoint   | 0x011D   |
| Data Size    | 10 bytes |
| Instructions | 2        |

```
      00 01 02 03 04 05 06 07  08 09 0A 0B 0C 0D 0E 0F
      -- -- -- -- -- -- -- --  -- -- -- -- -- -- -- --
0110:                                         37 22 80               7".
0120: 23 80 24 80 09 80 00                              #.$....         
```

#### Opcodes

```
  0: 0x011D [0x37] UPDATE_EVENT_POSITION_AND_DIR: x=-459.896*, z=-1.297*, y=-16.000*, direction=90.0°*
  1: 0x0126 [0x00] END_REQSTACK()
```

### Event 140

#### Metadata

| Field        | Value    |
|--------------|----------|
| Entrypoint   | 0x0127   |
| Data Size    | 14 bytes |
| Instructions | 4        |

```
      00 01 02 03 04 05 06 07  08 09 0A 0B 0C 0D 0E 0F
      -- -- -- -- -- -- -- --  -- -- -- -- -- -- -- --
0120:                      32  0A 80 1F 00 1F 80 20 80         2...... .
0130: 21 80 1F 01 00                                    !....           
```

#### Opcodes

```
  0: 0x0127 [0x32] ExtData[1]->MainSpeed = 13* * 0.1
  1: 0x012A [0x1F] MOVE_ENTITY: EventEntity moves to X=-459.849*, Z=-4.667*, Y=-16.090*
  2: 0x0132 [0x1F] MOVE_ENTITY: Update entity position (mode=1)
  3: 0x0134 [0x00] END_REQSTACK()
```

### Event 141

#### Metadata

| Field        | Value    |
|--------------|----------|
| Entrypoint   | 0x0135   |
| Data Size    | 13 bytes |
| Instructions | 3        |

```
      00 01 02 03 04 05 06 07  08 09 0A 0B 0C 0D 0E 0F
      -- -- -- -- -- -- -- --  -- -- -- -- -- -- -- --
0130:                47 00 1F  80 20 80 21 80 09 80 47       G... .!...G
0140: 01 00                                             ..              
```

#### Opcodes

```
  0: 0x0135 [0x47] UPDATE_PLAYER_POS(-459.849*, -4.667*, -16.090*, yaw=90.0°*)
  1: 0x013F [0x47] WAIT_PLAYER_POS_UPDATE
  2: 0x0141 [0x00] END_REQSTACK()
```

### Event 65535.1

#### Metadata

| Field        | Value    |
|--------------|----------|
| Entrypoint   | 0x0142   |
| Data Size    | 15 bytes |
| Instructions | 3        |

```
      00 01 02 03 04 05 06 07  08 09 0A 0B 0C 0D 0E 0F
      -- -- -- -- -- -- -- --  -- -- -- -- -- -- -- --
0140:       37 25 80 26 80 27  80 28 80 80 F8 FF FF 7F    7%.&.'.(......
0150: 00                                                .               
```

#### Opcodes

```
  0: 0x0142 [0x37] UPDATE_EVENT_POSITION_AND_DIR: x=471.045*, z=257.965*, y=-12.201*, direction=178.1°*
  1: 0x014B [0x80] LOAD_WAIT(entity=EventEntity)
  2: 0x0150 [0x00] END_REQSTACK()
```

### Event 65535.2

#### Metadata

| Field        | Value    |
|--------------|----------|
| Entrypoint   | 0x0151   |
| Data Size    | 19 bytes |
| Instructions | 5        |

```
      00 01 02 03 04 05 06 07  08 09 0A 0B 0C 0D 0E 0F
      -- -- -- -- -- -- -- --  -- -- -- -- -- -- -- --
0150:    32 29 80 1F 00 2A 80  2B 80 2C 80 1F 01 1E AB   2)...*.+.,.....
0160: 41 03 01 00                                       A...            
```

#### Opcodes

```
  0: 0x0151 [0x32] ExtData[1]->MainSpeed = 40* * 0.1
  1: 0x0154 [0x1F] MOVE_ENTITY: EventEntity moves to X=465.682*, Z=258.328*, Y=-13.959*
  2: 0x015C [0x1F] MOVE_ENTITY: Update entity position (mode=1)
  3: 0x015E [0x1E] EventEntity looks at Alcander (ID: 16990635/0x010341AB) and starts talking
  4: 0x0163 [0x00] END_REQSTACK()
```

### Event 65535.3

#### Metadata

| Field        | Value    |
|--------------|----------|
| Entrypoint   | 0x0164   |
| Data Size    | 22 bytes |
| Instructions | 6        |

```
      00 01 02 03 04 05 06 07  08 09 0A 0B 0C 0D 0E 0F
      -- -- -- -- -- -- -- --  -- -- -- -- -- -- -- --
0160:             32 29 80 1F  00 2D 80 2E 80 2F 80 1F      2)...-.../..
0170: 01 1E AD 41 03 01 1C 05  80 00                    ...A......      
```

#### Opcodes

```
  0: 0x0164 [0x32] ExtData[1]->MainSpeed = 40* * 0.1
  1: 0x0167 [0x1F] MOVE_ENTITY: EventEntity moves to X=463.870*, Z=258.058*, Y=-14.439*
  2: 0x016F [0x1F] MOVE_ENTITY: Update entity position (mode=1)
  3: 0x0171 [0x1E] EventEntity looks at Unnamed NPC (ID: 16990637/0x010341AD) and starts talking
  4: 0x0176 [0x1C] WAIT(60* ticks)
  5: 0x0179 [0x00] END_REQSTACK()
```

### Event 65535.4

#### Metadata

| Field        | Value    |
|--------------|----------|
| Entrypoint   | 0x017A   |
| Data Size    | 15 bytes |
| Instructions | 3        |

```
      00 01 02 03 04 05 06 07  08 09 0A 0B 0C 0D 0E 0F
      -- -- -- -- -- -- -- --  -- -- -- -- -- -- -- --
0170:                                37 2D 80 2E 80 2F            7-.../
0180: 80 30 80 80 F8 FF FF 7F  00                       .0.......       
```

#### Opcodes

```
  0: 0x017A [0x37] UPDATE_EVENT_POSITION_AND_DIR: x=463.870*, z=258.058*, y=-14.439*, direction=174.7°*
  1: 0x0183 [0x80] LOAD_WAIT(entity=EventEntity)
  2: 0x0188 [0x00] END_REQSTACK()
```

### Event 65535.5

#### Metadata

| Field        | Value    |
|--------------|----------|
| Entrypoint   | 0x0189   |
| Data Size    | 10 bytes |
| Instructions | 2        |

```
      00 01 02 03 04 05 06 07  08 09 0A 0B 0C 0D 0E 0F
      -- -- -- -- -- -- -- --  -- -- -- -- -- -- -- --
0180:                             37 31 80 32 80 33 80           71.2.3.
0190: 34 80 00                                          4..             
```

#### Opcodes

```
  0: 0x0189 [0x37] UPDATE_EVENT_POSITION_AND_DIR: x=-207.514*, z=-781.285*, y=-11.566*, direction=229.8°*
  1: 0x0192 [0x00] END_REQSTACK()
```

### Event 65535.6

#### Metadata

| Field        | Value    |
|--------------|----------|
| Entrypoint   | 0x0193   |
| Data Size    | 10 bytes |
| Instructions | 2        |

```
      00 01 02 03 04 05 06 07  08 09 0A 0B 0C 0D 0E 0F
      -- -- -- -- -- -- -- --  -- -- -- -- -- -- -- --
0190:          37 35 80 36 80  37 80 38 80 00              75.6.7.8..   
```

#### Opcodes

```
  0: 0x0193 [0x37] UPDATE_EVENT_POSITION_AND_DIR: x=-14.071*, z=139.946*, y=-26.498*, direction=179.8°*
  1: 0x019C [0x00] END_REQSTACK()
```

### Event 65535.7

#### Metadata

| Field        | Value    |
|--------------|----------|
| Entrypoint   | 0x019D   |
| Data Size    | 10 bytes |
| Instructions | 2        |

```
      00 01 02 03 04 05 06 07  08 09 0A 0B 0C 0D 0E 0F
      -- -- -- -- -- -- -- --  -- -- -- -- -- -- -- --
0190:                                         37 39 80               79.
01A0: 3A 80 3B 80 3C 80 00                              :.;.<..         
```

#### Opcodes

```
  0: 0x019D [0x37] UPDATE_EVENT_POSITION_AND_DIR: x=-0.259*, z=140.076*, y=-23.500*, direction=88.7°*
  1: 0x01A6 [0x00] END_REQSTACK()
```

### Event 65535.8

#### Metadata

| Field        | Value    |
|--------------|----------|
| Entrypoint   | 0x01A7   |
| Data Size    | 37 bytes |
| Instructions | 5        |

```
      00 01 02 03 04 05 06 07  08 09 0A 0B 0C 0D 0E 0F
      -- -- -- -- -- -- -- --  -- -- -- -- -- -- -- --
01A0:                      03  00 00 07 7F 1A F1 01 66         ........f
01B0: 01 00 F8 FF FF 7F F8 FF  FF 7F 73 68 61 30 53 F8  ..........sha0S.
01C0: FF FF 7F F8 FF FF 7F 73  68 61 30 00              .......sha0.    
```

#### Opcodes

```
  0: 0x01A7 [0x03] ExtData[1]->WorkLocal[0] = Entity->Race
  1: 0x01AC [0x1A] CALL_SUBROUTINE(address=0x01F1)
  2: 0x01AF [0x66] LOAD_EXT_SCHEDULER_MAIN: Load scheduler "sha0" with entities [EventEntity, EventEntity], work=ExtData[1]->WorkLocal[1]
  3: 0x01BE [0x53] WAIT_SCHEDULER_TASK: Wait for scheduler "sha0" with entities [EventEntity, EventEntity]
  4: 0x01CB [0x00] END_REQSTACK()
```

### Event 65535.9

#### Metadata

| Field        | Value     |
|--------------|-----------|
| Entrypoint   | 0x01CC    |
| Data Size    | 185 bytes |
| Instructions | 13        |

```
      00 01 02 03 04 05 06 07  08 09 0A 0B 0C 0D 0E 0F
      -- -- -- -- -- -- -- --  -- -- -- -- -- -- -- --
01C0:                                      03 00 00 07              ....
01D0: 7F 1A F1 01 66 01 00 F8  FF FF 7F F8 FF FF 7F 73  ....f..........s
01E0: 68 61 31 53 F8 FF FF 7F  F8 FF FF 7F 73 68 61 31  ha1S........sha1
01F0: 00 03 01 00 00 00 02 01  00 3D 80 05 06 02 08 01  .........=......
0200: 00 3E 80 01 0B 02 08 01  00 3F 80 14 01 00 40 80  .>.......?....@.
0210: 07 01 00 41 80 1B 03 01  00 00 00 02 01 00 3D 80  ...A..........=.
0220: 05 2B 02 08 01 00 3E 80  01 30 02 08 01 00 3F 80  .+....>..0....?.
0230: 14 01 00 40 80 07 01 00  42 80 1B 03 01 00 00 00  ...@....B.......
0240: 02 01 00 3D 80 05 50 02  08 01 00 3E 80 01 55 02  ...=..P....>..U.
0250: 08 01 00 3F 80 14 01 00  40 80 07 01 00 03 80 1B  ...?....@.......
0260: 03 01 00 00 00 02 01 00  3D 80 05 75 02 08 01 00  ........=..u....
0270: 3E 80 01 7A 02 08 01 00  3F 80 14 01 00 40 80 07  >..z....?....@..
0280: 01 00 43 80 1B                                    ..C..           
```

#### Opcodes

```
  0: 0x01CC [0x03] ExtData[1]->WorkLocal[0] = Entity->Race
  1: 0x01D1 [0x1A] CALL_SUBROUTINE(address=0x01F1)
  2: 0x01D4 [0x66] LOAD_EXT_SCHEDULER_MAIN: Load scheduler "sha1" with entities [EventEntity, EventEntity], work=ExtData[1]->WorkLocal[1]
  3: 0x01E3 [0x53] WAIT_SCHEDULER_TASK: Wait for scheduler "sha1" with entities [EventEntity, EventEntity]
  4: 0x01F0 [0x00] END_REQSTACK()

SUBROUTINE_01F1:
  5: 0x01F1 [0x03] ExtData[1]->WorkLocal[1] = ExtData[1]->WorkLocal[0]
  6: 0x01F6 [0x02] IF !(ExtData[1]->WorkLocal[1] > 5*) GOTO 0x0206
  7: 0x01FE [0x08] ExtData[1]->WorkLocal[1] -= 1*
  8: 0x0203 [0x01] GOTO 0x020B
  9: 0x0206 [0x08] ExtData[1]->WorkLocal[1] -= 2*

SUBROUTINE_020B:
 10: 0x020B [0x14] ExtData[1]->WorkLocal[1] *= 10*
 11: 0x0210 [0x07] ExtData[1]->WorkLocal[1] += 9*
 12: 0x0215 [0x1B] RETURN
```

#### Data or dead code:

```
# Dead code (unreachable instructions):
     0x0216 [0x03] ExtData[1]->WorkLocal[1] = ExtData[1]->WorkLocal[0]
     0x021B [0x02] IF !(ExtData[1]->WorkLocal[1] > 5*) GOTO 0x022B
     0x0223 [0x08] ExtData[1]->WorkLocal[1] -= 1*
     0x0228 [0x01] GOTO 0x0230
     0x022B [0x08] ExtData[1]->WorkLocal[1] -= 2*
     0x0230 [0x14] ExtData[1]->WorkLocal[1] *= 10*
     0x0235 [0x07] ExtData[1]->WorkLocal[1] += 70*
     0x023A [0x1B] RETURN
     0x023B [0x03] ExtData[1]->WorkLocal[1] = ExtData[1]->WorkLocal[0]
     0x0240 [0x02] IF !(ExtData[1]->WorkLocal[1] > 5*) GOTO 0x0250
     0x0248 [0x08] ExtData[1]->WorkLocal[1] -= 1*
     0x024D [0x01] GOTO 0x0255
     0x0250 [0x08] ExtData[1]->WorkLocal[1] -= 2*
     0x0255 [0x14] ExtData[1]->WorkLocal[1] *= 10*
     0x025A [0x07] ExtData[1]->WorkLocal[1] += 140*
     0x025F [0x1B] RETURN
     0x0260 [0x03] ExtData[1]->WorkLocal[1] = ExtData[1]->WorkLocal[0]
     0x0265 [0x02] IF !(ExtData[1]->WorkLocal[1] > 5*) GOTO 0x0275
     0x026D [0x08] ExtData[1]->WorkLocal[1] -= 1*
     0x0272 [0x01] GOTO 0x027A
     0x0275 [0x08] ExtData[1]->WorkLocal[1] -= 2*
     0x027A [0x14] ExtData[1]->WorkLocal[1] *= 10*
     0x027F [0x07] ExtData[1]->WorkLocal[1] += 210*
     0x0284 [0x1B] RETURN
```
