# Event 173

## Metadata

| Field           | Value    |
|-----------------|----------|
| Event Index     | 34/43    |
| Offset          | 0x01F8   |
| Data Size       | 40 bytes |
| Calculated Size | 40 bytes |
| Instructions    | 13       |

```
      00 01 02 03 04 05 06 07  08 09 0A 0B 0C 0D 0E 0F
      -- -- -- -- -- -- -- --  -- -- -- -- -- -- -- --
01F0:                          1E F0 FF FF 7F 6F 70 29          .....op)
0200: 08 21 20 0F 01 01 1D 13  80 23 1D 14 80 23 29 08  .! ......#...#).
0210: 21 20 0F 01 03 29 08 21  20 0F 01 04 20 00 21 00  ! ...).! ... .!.
```

## Opcodes

```
  0: 0x01F8 [0x1E] EventEntity looks at LocalPlayer and starts talking
  1: 0x01FD [0x6F] WAIT_FRAME_DELAY: Yield until WaitTime reaches zero
  2: 0x01FE [0x70] WAIT_ENTITY_RENDER_FLAG: Wait while EventEntity->Render.Flags3 bit 2 is set (cancel turn if not)
  3: 0x01FF [0x29] REQ_SET_WAIT(priority=0x08, entity_id=Vahn Paineesha (ID: 17768481/0x010F2021), tag_num=0x01)
  4: 0x0206 [0x1D] PRINT_EVENT_MESSAGE(message_id=356*)
    → "During any Star Reading ceremony, we Sibyl Guarrrds are present in the hall with the ladies-in-waiting.\u007F1\u0000\u0007"
  5: 0x0209 [0x23] WAIT_FOR_DIALOG_INTERACTION
  6: 0x020A [0x1D] PRINT_EVENT_MESSAGE(message_id=357*)
    → "The same is true for the night on which the talisman was stolen. However, none of us saw any \u00072bearerrrs of darkness.\u00072\u007F1\u0000\u0007"
  7: 0x020D [0x23] WAIT_FOR_DIALOG_INTERACTION
  8: 0x020E [0x29] REQ_SET_WAIT(priority=0x08, entity_id=Vahn Paineesha (ID: 17768481/0x010F2021), tag_num=0x03)
  9: 0x0215 [0x29] REQ_SET_WAIT(priority=0x08, entity_id=Vahn Paineesha (ID: 17768481/0x010F2021), tag_num=0x04)
 10: 0x021C [0x20] SET_CLI_EVENT_UC_FLAG: Unlock player control
 11: 0x021E [0x21] END_EVENT
 12: 0x021F [0x00] END_REQSTACK()
```
