# Event 221

## Metadata

| Field           | Value    |
|-----------------|----------|
| Event Index     | 36/43    |
| Offset          | 0x0248   |
| Data Size       | 40 bytes |
| Calculated Size | 40 bytes |
| Instructions    | 13       |

```
      00 01 02 03 04 05 06 07  08 09 0A 0B 0C 0D 0E 0F
      -- -- -- -- -- -- -- --  -- -- -- -- -- -- -- --
0240:                          1E F0 FF FF 7F 6F 70 29          .....op)
0250: 08 21 20 0F 01 01 1D 17  80 23 1D 18 80 23 29 08  .! ......#...#).
0260: 21 20 0F 01 03 29 08 21  20 0F 01 04 20 00 21 00  ! ...).! ... .!.
```

## Opcodes

```
  0: 0x0248 [0x1E] EventEntity looks at LocalPlayer and starts talking
  1: 0x024D [0x6F] WAIT_FRAME_DELAY: Yield until WaitTime reaches zero
  2: 0x024E [0x70] WAIT_ENTITY_RENDER_FLAG: Wait while EventEntity->Render.Flags3 bit 2 is set (cancel turn if not)
  3: 0x024F [0x29] REQ_SET_WAIT(priority=0x08, entity_id=Vahn Paineesha (ID: 17768481/0x010F2021), tag_num=0x01)
  4: 0x0256 [0x1D] PRINT_EVENT_MESSAGE(message_id=493*)
    → "I heard the news! Who would have thought that a simple adventurerrr could foil the plans of the beastmen?\u007F1\u0000\u0007"
  5: 0x0259 [0x23] WAIT_FOR_DIALOG_INTERACTION
  6: 0x025A [0x1D] PRINT_EVENT_MESSAGE(message_id=494*)
    → "I am honored to live and work in the same great countrrry as you, \u007F\u0005[Sir/Lady] \u0008!\u007F1\u0000\u0007"
  7: 0x025D [0x23] WAIT_FOR_DIALOG_INTERACTION
  8: 0x025E [0x29] REQ_SET_WAIT(priority=0x08, entity_id=Vahn Paineesha (ID: 17768481/0x010F2021), tag_num=0x03)
  9: 0x0265 [0x29] REQ_SET_WAIT(priority=0x08, entity_id=Vahn Paineesha (ID: 17768481/0x010F2021), tag_num=0x04)
 10: 0x026C [0x20] SET_CLI_EVENT_UC_FLAG: Unlock player control
 11: 0x026E [0x21] END_EVENT
 12: 0x026F [0x00] END_REQSTACK()
```
