# Event 382

## Metadata

| Field           | Value    |
|-----------------|----------|
| Event Index     | 42/43    |
| Offset          | 0x033C   |
| Data Size       | 36 bytes |
| Calculated Size | 36 bytes |
| Instructions    | 11       |

```
      00 01 02 03 04 05 06 07  08 09 0A 0B 0C 0D 0E 0F
      -- -- -- -- -- -- -- --  -- -- -- -- -- -- -- --
0330:                                      1E F0 FF FF              ....
0340: 7F 6F 70 29 08 21 20 0F  01 01 1D 24 80 23 29 08  .op).! ....$.#).
0350: 21 20 0F 01 03 29 08 21  20 0F 01 04 20 00 21 00  ! ...).! ... .!.
```

## Opcodes

```
  0: 0x033C [0x1E] EventEntity looks at LocalPlayer and starts talking
  1: 0x0341 [0x6F] WAIT_FRAME_DELAY: Yield until WaitTime reaches zero
  2: 0x0342 [0x70] WAIT_ENTITY_RENDER_FLAG: Wait while EventEntity->Render.Flags3 bit 2 is set (cancel turn if not)
  3: 0x0343 [0x29] REQ_SET_WAIT(priority=0x08, entity_id=Vahn Paineesha (ID: 17768481/0x010F2021), tag_num=0x01)
  4: 0x034A [0x1D] PRINT_EVENT_MESSAGE(message_id=8457*)
    → "Semih Lafihna has given her orrrders. The time has come for the Sibyl Guards to unsheathe our claws and fight with all our strrrength...\u007F1\u0000\u0007"
  5: 0x034D [0x23] WAIT_FOR_DIALOG_INTERACTION
  6: 0x034E [0x29] REQ_SET_WAIT(priority=0x08, entity_id=Vahn Paineesha (ID: 17768481/0x010F2021), tag_num=0x03)
  7: 0x0355 [0x29] REQ_SET_WAIT(priority=0x08, entity_id=Vahn Paineesha (ID: 17768481/0x010F2021), tag_num=0x04)
  8: 0x035C [0x20] SET_CLI_EVENT_UC_FLAG: Unlock player control
  9: 0x035E [0x21] END_EVENT
 10: 0x035F [0x00] END_REQSTACK()
```
