# Event 65535

## Metadata

| Field           | Value    |
|-----------------|----------|
| Event Index     | 29/43    |
| Offset          | 0x016F   |
| Data Size       | 51 bytes |
| Calculated Size | 51 bytes |
| Instructions    | 9        |

```
      00 01 02 03 04 05 06 07  08 09 0A 0B 0C 0D 0E 0F
      -- -- -- -- -- -- -- --  -- -- -- -- -- -- -- --
0160:                                               1C                 .
0170: 04 80 1F 00 0A 80 0B 80  0C 80 1F 01 6F 5E 69 64  ............o^id
0180: 6C 30 1C 0D 80 66 03 80  F8 FF FF 7F F8 FF FF 7F  l0...f..........
0190: 6D 68 69 30 53 F8 FF FF  7F F8 FF FF 7F 6D 68 69  mhi0S........mhi
01A0: 30 00                                             0.              
```

## Opcodes

```
  0: 0x016F [0x1C] WAIT(30* ticks)
  1: 0x0172 [0x1F] MOVE_ENTITY: EventEntity moves to X=-2.127*, Z=-25.998*, Y=-45.000*
  2: 0x017A [0x1F] MOVE_ENTITY: Update entity position (mode=1)
  3: 0x017C [0x6F] WAIT_FRAME_DELAY: Yield until WaitTime reaches zero
  4: 0x017D [0x5E] EventEntity goes idle (kills current action) (animation: "idl0")
  5: 0x0182 [0x1C] WAIT(3* ticks)
  6: 0x0185 [0x66] LOAD_EXT_SCHEDULER_MAIN: Load scheduler "mhi0" with entities [EventEntity, EventEntity], work=57*
  7: 0x0194 [0x53] WAIT_SCHEDULER_TASK: Wait for scheduler "mhi0" with entities [EventEntity, EventEntity]
  8: 0x01A1 [0x00] END_REQSTACK()
```
