# 17859387 - Ars Monstrum

## Common Data

| Field            | Value                      |
|------------------|----------------------------|
| Zone             | Yorcia Weald [U] (ID: 264) |
| Block Size       | 1828 bytes                 |
| Total Events     | 2                          |
| References Count | 57                         |

## List of Events

| Event ID              | Entrypoint   |   Size |   Instructions |
|-----------------------|--------------|--------|----------------|
| [65535](#event-65535) | 0x0000       |      1 |              1 |
| [2023](#event-2023)   | 0x0001       |   1575 |            349 |

## DAT References (imed_data)

|   Index | Hex Value   |   Dec Value |
|---------|-------------|-------------|
|       0 | 0x0000      |           0 |
|       1 | 0x0001      |           1 |
|       2 | 0x000F      |          15 |
|       3 | 0x0010      |          16 |
|       4 | 0x001F      |          31 |
|       5 | 0x000A      |          10 |
|       6 | 0x0003      |           3 |
|       7 | 0x0002      |           2 |
|       8 | 0x0004      |           4 |
|       9 | 0x0005      |           5 |
|      10 | 0x1D13      |        7443 |
|      11 | 0x0006      |           6 |
|      12 | 0x1D14      |        7444 |
|      13 | 0x0007      |           7 |
|      14 | 0x1D15      |        7445 |
|      15 | 0x1D16      |        7446 |
|      16 | 0x1D32      |        7474 |
|      17 | 0x1D17      |        7447 |
|      18 | 0x1D18      |        7448 |
|      19 | 0x1D19      |        7449 |
|      20 | 0x03E8      |        1000 |
|      21 | 0x1D34      |        7476 |
|      22 | 0x1D35      |        7477 |
|      23 | 0x1D33      |        7475 |
|      24 | 0x1D1A      |        7450 |
|      25 | 0x1D1B      |        7451 |
|      26 | 0x1D1C      |        7452 |
|      27 | 0x1D1D      |        7453 |
|      28 | 0x1D1E      |        7454 |
|      29 | 0x1D1F      |        7455 |
|      30 | 0x1D20      |        7456 |
|      31 | 0x1D21      |        7457 |
|      32 | 0x1D22      |        7458 |
|      33 | 0x1D23      |        7459 |
|      34 | 0x1D24      |        7460 |
|      35 | 0x1D39      |        7481 |
|      36 | 0x1D3A      |        7482 |
|      37 | 0x1D3D      |        7485 |
|      38 | 0xFFFFFFFF  |  4294967295 |
|      39 | 0x0050      |          80 |
|      40 | 0x00C8      |         200 |
|      41 | 0x0190      |         400 |
|      42 | 0x0008      |           8 |
|      43 | 0x000B      |          11 |
|      44 | 0x000C      |          12 |
|      45 | 0x0013      |          19 |
|      46 | 0x0014      |          20 |
|      47 | 0x0017      |          23 |
|      48 | 0x0018      |          24 |
|      49 | 0x001B      |          27 |
|      50 | 0x001C      |          28 |
|      51 | 0x1D25      |        7461 |
|      52 | 0x1D27      |        7463 |
|      53 | 0x1D36      |        7478 |
|      54 | 0x1D37      |        7479 |
|      55 | 0x1D38      |        7480 |
|      56 | 0x1D3B      |        7483 |

## String References

- **7443**: What shall you do? (Current Lv.: $0) [Nothing for now./Call forth a Valiant./Amend the Ars Monstrum./Convert to Puissance./Acquire a map./Bolster pets./Read an explanation.]
- **7444**: Read up on which topic? [None of these./Objectives./Puissance./Valiant./Valiant Shijin./Amending the Ars Monstrum./Acquiring maps./Bolstering pets.]
- **7445**: Fulfillment of the primary objective, vanquishing the enemy stronghold, is impeded by the Malicious: enemies who threaten intruders at every turn.
- **7446**: The Malicious and their stronghold boast supernatural defenses, so the "Valiant"--friendly reinforcements who can be called forth to battle--are critical in thwarting them.
- **7447**: The objective will be deemed a failure should the foes advance upon and destroy your marchland.
- **7448**: In short, the Valiant can halt the approach of the Malicious, protecting the marchlands.
- **7449**: As the name implies, Puissance is a type of energy gained from Noetic Ascensions and besting elemental fiends known as "Escalents."
- **7450**: The Valiant are the physical forms of Puissance made manifest.
- **7451**: The Valiant will automatically assault the enemies' stronghold and engage in combat with the Malicious.
- **7452**: Up to $0 of the same Valiant may be summoned at a given time.
- **7453**: Increasing the Ars Monstrum's level will enable you to summon additional varieties of the Valiant.
- **7454**: Each Valiant is suited to fighting different Malicious foes, as each has bonuses and penalties against a certain type.
- **7455**: Valiant Shijin may also be summoned with Puissance in the same way as ordinary Valiant.
- **7456**: Which Shijin is summoned depends on the type of eudaemon part used to construct the simulacrum.
- **7457**: Only one Valiant Shijin may be called forth, but its effects will be felt on all creatures within the alluvion skirmish.
- **7458**: Players may use motes of Puissance to amend the Ars Monstrum, thereby increasing its level.
- **7459**: An amended Ars Monstrum will enable you to summon additional varieties of the Valiant, as well as increase their level.
- **7460**: The Ars Monstrum's maximum level is $0, but advancing to the next section will reset it to $1.
- **7461**: Summon which Valiant? ($0 Puissance) [None for now./An Entozoon: $1 Puissance ($11 left)./A Crab: $2 Puissance ($12 left)./A Colibri: $3 Puissance ($13 left)./A Coeurl: $4 Puissance ($14 left)./A Mandragora: $5 Puissance ($15 left)./A Scorpion: $6 Puissance ($16 left)./An Adamantoise: $7 Puissance ($17 left)./A Tome: $8 Puissance ($18 left)./An Ajattara: $9 Puissance ($19 left)./A Shijin: $10 Puissance ($20 left).]
- **7463**: Amend the Ars Monstrum? ($0 Pui.) [Yes. ($1 Puissance)/No.]
- **7474**: However, Valiant alone are incapable of dealing the final blow to the enemy stronghold, so it falls to the pioneer and his compatriots to bring the axe down.
- **7475**: Proceeding to the next layer of the skirmish will leave you with the default value of $0 motes of Puissance.
- **7476**: Note that up to $0 obsidian fragment[/s] may be converted into motes of Puissance once per floor.
- **7477**: Specifically, $0 obsidian fragment[/s] may be converted into $1 mote[/s] of Puissance.
- **7478**: You currently possess $1 obsidian fragment[/s]. How many would you like to convert?
- **7479**: You will receive $0 mote[/s] of Puissance. [Continue with the exchange./I need time to think.]
- **7480**: Acquire a map? ($0 motes of Puissance) [Yes, please. ($1 motes required)/No, thank you.]
- **7481**: A map of the current skirmish is available for a nominal cost in the form of motes of Puissance.
- **7482**: Note that the map will be destroyed upon advancing to the next layer.
- **7483**: Enhance your allies? ($0 motes of Puissance) [Of course. ($1 motes required)/Not at the moment.]
- **7485**: Certain eudaemon parts enable the bolstering of your pets' resistance in exchange for a small donation of motes of Puissance.

## Events

### Event 65535

#### Metadata

| Field        | Value   |
|--------------|---------|
| Entrypoint   | 0x0000  |
| Data Size    | 1 bytes |
| Instructions | 1       |

```
      00 01 02 03 04 05 06 07  08 09 0A 0B 0C 0D 0E 0F
      -- -- -- -- -- -- -- --  -- -- -- -- -- -- -- --
0000: 00                                                .               
```

#### Opcodes

```
  0: 0x0000 [0x00] END_REQSTACK()
```

### Event 2023

#### Metadata

| Field        | Value      |
|--------------|------------|
| Entrypoint   | 0x0001     |
| Data Size    | 1575 bytes |
| Instructions | 349        |

```
      00 01 02 03 04 05 06 07  08 09 0A 0B 0C 0D 0E 0F
      -- -- -- -- -- -- -- --  -- -- -- -- -- -- -- --
0000:    03 00 00 02 10 03 02  00 03 10 03 01 00 09 10   ...............
0010: 02 00 00 00 80 00 1D 00  1A 80 01 21 00 06 03 00  ...........!....
0020: 03 05 00 01 80 02 03 00  00 80 00 7E 01 40 00 80  ...........~.@..
0030: 02 80 01 10 00 80 40 03  80 04 80 01 10 00 80 43  ......@........C
0040: 00 43 01 06 01 10 03 0B  00 03 10 03 0C 00 06 10  .C..............
0050: 0B 0C 00 03 10 00 08 10  06 09 00 06 0A 00 02 09  ................
0060: 00 05 80 03 76 00 3E 0B  00 09 00 70 00 0B 0A 00  ....v.>....p....
0070: 0B 09 00 01 5E 00 02 0A  00 05 80 00 85 00 3C 04  ....^.........<.
0080: 00 01 80 01 80 02 0C 00  06 80 04 94 00 3C 04 00  .............<..
0090: 07 80 01 80 02 02 00 00  80 80 B4 00 3C 04 00 06  ............<...
00A0: 80 01 80 3C 04 00 08 80  01 80 3C 04 00 09 80 01  ...<......<.....
00B0: 80 01 E9 00 02 02 00 01  80 80 E9 00 3E 10 00 00  ............>...
00C0: 80 CA 00 3C 04 00 06 80  01 80 3E 10 00 01 80 D8  ...<......>.....
00D0: 00 3C 04 00 08 80 01 80  3E 10 00 07 80 E6 00 3C  .<......>......<
00E0: 04 00 09 80 01 80 01 E9  00 03 02 10 0C 00 24 0A  ..............$.
00F0: 80 05 00 04 00 25 02 00  10 00 80 00 09 01 05 03  .....%..........
0100: 00 03 01 10 00 80 01 7B  01 02 00 10 01 80 00 1C  .......{........
0110: 01 03 05 00 01 80 1A 95  02 01 7B 01 02 00 10 07  ..........{.....
0120: 80 00 2F 01 03 05 00 07  80 1A B1 03 01 7B 01 02  ../..........{..
0130: 00 10 06 80 00 42 01 03  05 00 06 80 1A 44 04 01  .....B.......D..
0140: 7B 01 02 00 10 08 80 00  55 01 03 05 00 08 80 1A  {.......U.......
0150: FC 04 01 7B 01 02 00 10  09 80 00 68 01 03 05 00  ...{.......h....
0160: 09 80 1A 92 05 01 7B 01  02 00 10 0B 80 00 7B 01  ......{.......{.
0170: 03 05 00 0B 80 1A 80 01  01 7B 01 01 25 00 21 00  .........{..%.!.
0180: 06 06 00 06 08 00 02 06  00 00 80 00 0E 02 24 0C  ..............$.
0190: 80 08 00 00 80 25 02 00  10 00 80 00 A4 01 05 06  .....%..........
01A0: 00 01 06 02 02 00 10 01  80 00 B2 01 1A 0F 02 01  ................
01B0: 06 02 02 00 10 07 80 00  C0 01 1A 24 02 01 06 02  ...........$....
01C0: 02 00 10 06 80 00 CE 01  1A 49 02 01 06 02 02 00  .........I......
01D0: 10 08 80 00 DC 01 1A 63  02 01 06 02 02 00 10 09  .......c........
01E0: 80 00 EA 01 1A 70 02 01  06 02 02 00 10 0B 80 00  .....p..........
01F0: F8 01 1A 87 02 01 06 02  02 00 10 0D 80 00 06 02  ................
0200: 1A 90 02 01 06 02 03 08  00 00 10 01 86 01 1B 48  ...............H
0210: 0E 80 23 48 0F 80 23 48  10 80 23 48 11 80 23 48  ..#H..#H..#H..#H
0220: 12 80 23 1B 48 13 80 23  03 02 10 14 80 48 15 80  ..#.H..#.....H..
0230: 23 03 02 10 01 80 03 03  10 01 80 48 16 80 23 03  #..........H..#.
0240: 02 10 14 80 48 17 80 23  1B 48 18 80 23 48 19 80  ....H..#.H..#H..
0250: 23 03 02 10 09 80 48 1A  80 23 48 1B 80 23 48 1C  #.....H..#H..#H.
0260: 80 23 1B 48 1D 80 23 48  1E 80 23 48 1F 80 23 1B  .#.H..#H..#H..#.
0270: 48 20 80 23 48 21 80 23  03 02 10 06 80 03 03 10  H .#H!.#........
0280: 01 80 48 22 80 23 1B 48  23 80 23 48 24 80 23 1B  ..H".#.H#.#H$.#.
0290: 48 25 80 23 1B 06 06 00  03 08 00 01 80 02 06 00  H%.#............
02A0: 00 80 00 B0 03 40 00 80  02 80 01 10 00 80 40 03  .....@........@.
02B0: 80 04 80 01 10 00 80 43  00 43 01 06 01 10 03 07  .......C.C......
02C0: 00 03 10 03 0E 00 04 10  03 0F 00 05 10 02 09 10  ................
02D0: 00 80 00 D8 02 01 E9 02  03 08 00 00 80 03 07 00  ................
02E0: 26 80 3D 07 00 00 80 01  80 03 03 10 27 80 03 04  &.=.........'...
02F0: 10 27 80 03 05 10 27 80  03 06 10 28 80 03 07 10  .'....'....(....
0300: 28 80 03 08 10 28 80 03  09 10 28 80 03 00 17 29  (....(....(....)
0310: 80 03 01 17 29 80 03 02  17 14 80 41 00 80 06 80  ....)......A....
0320: 0E 00 03 17 41 08 80 0D  80 0E 00 04 17 41 2A 80  ....A........A*.
0330: 2B 80 0E 00 05 17 41 2C  80 02 80 0E 00 06 17 41  +.....A,.......A
0340: 03 80 2D 80 0E 00 07 17  41 2E 80 2F 80 0E 00 08  ..-.....A../....
0350: 17 41 30 80 31 80 0E 00  09 17 41 32 80 04 80 0E  .A0.1.....A2....
0360: 00 0A 17 41 00 80 06 80  0F 00 0B 17 03 0C 17 01  ...A............
0370: 80 24 33 80 08 00 07 00  25 02 00 10 00 80 00 87  .$3.....%.......
0380: 03 05 06 00 01 87 03 03  08 00 00 10 02 06 00 00  ................
0390: 80 00 AD 03 40 00 80 02  80 01 10 01 80 40 03 80  ....@........@..
03A0: 04 80 01 10 08 00 43 00  43 01 06 01 10 01 9D 02  ......C.C.......
03B0: 1B 06 06 00 06 08 00 02  06 00 00 80 00 43 04 40  .............C.@
03C0: 00 80 02 80 01 10 00 80  40 03 80 04 80 01 10 00  ........@.......
03D0: 80 43 00 43 01 06 01 10  03 0C 00 06 10 0B 0C 00  .C.C............
03E0: 03 0D 00 07 10 03 03 10  0D 00 02 09 10 00 80 00  ................
03F0: FA 03 03 07 00 00 80 01  06 04 03 07 00 26 80 3D  .............&.=
0400: 07 00 00 80 01 80 24 34  80 00 80 07 00 25 02 00  ......$4.....%..
0410: 10 00 80 00 32 04 40 00  80 02 80 01 10 07 80 40  ....2.@........@
0420: 03 80 04 80 01 10 00 80  43 00 43 01 05 06 00 01  ........C.C.....
0430: 40 04 02 00 10 01 80 00  40 04 05 06 00 01 40 04  @.......@.....@.
0440: 01 B7 03 1B 40 00 80 02  80 01 10 06 80 40 03 80  ....@........@..
0450: 04 80 01 10 00 80 43 00  43 01 06 01 10 03 11 00  ......C.C.......
0460: 02 10 03 12 00 03 10 03  13 00 04 10 03 14 00 05  ................
0470: 10 02 09 10 00 80 00 81  04 03 07 00 00 80 01 86  ................
0480: 04 03 07 00 26 80 02 07  00 00 80 00 FB 04 03 03  ....&...........
0490: 10 12 00 48 35 80 23 71  12 01 80 13 00 71 13 15  ...H5.#q.....q..
04A0: 00 02 15 00 14 00 05 FB  04 02 15 00 00 80 02 FB  ................
04B0: 04 02 15 00 12 00 05 F8  04 03 02 10 15 00 24 36  ..............$6
04C0: 80 01 80 00 80 25 02 00  10 00 80 00 EA 04 40 00  .....%........@.
04D0: 80 02 80 01 10 08 80 40  03 80 04 80 01 10 15 00  .......@........
04E0: 43 00 43 01 06 01 10 01  F5 04 02 00 10 01 80 00  C.C.............
04F0: F5 04 01 F5 04 01 F8 04  01 FB 04 1B 06 06 00 06  ................
0500: 08 00 02 06 00 00 80 00  91 05 40 00 80 02 80 01  ..........@.....
0510: 10 06 80 40 03 80 04 80  01 10 00 80 43 00 43 01  ...@........C.C.
0520: 06 01 10 03 11 00 02 10  03 16 00 06 10 02 09 10  ................
0530: 00 80 00 3D 05 03 07 00  00 80 01 42 05 03 07 00  ...=.......B....
0540: 26 80 02 07 00 00 80 00  8E 05 03 02 10 11 00 03  &...............
0550: 03 10 16 00 24 37 80 00  80 07 00 25 02 00 10 00  ....$7.....%....
0560: 80 00 80 05 40 00 80 02  80 01 10 09 80 40 03 80  ....@........@..
0570: 04 80 01 10 00 80 43 00  43 01 05 06 00 01 8E 05  ......C.C.......
0580: 02 00 10 01 80 00 8E 05  05 06 00 01 8E 05 01 02  ................
0590: 05 1B 06 06 00 06 08 00  02 06 00 00 80 00 27 06  ..............'.
05A0: 40 00 80 02 80 01 10 06  80 40 03 80 04 80 01 10  @........@......
05B0: 00 80 43 00 43 01 06 01  10 03 11 00 02 10 03 16  ..C.C...........
05C0: 00 07 10 02 09 10 00 80  00 D3 05 03 07 00 00 80  ................
05D0: 01 D8 05 03 07 00 26 80  02 07 00 00 80 00 24 06  ......&.......$.
05E0: 03 02 10 11 00 03 03 10  16 00 24 38 80 00 80 07  ..........$8....
05F0: 00 25 02 00 10 00 80 00  16 06 40 00 80 02 80 01  .%........@.....
0600: 10 0B 80 40 03 80 04 80  01 10 00 80 43 00 43 01  ...@........C.C.
0610: 05 06 00 01 24 06 02 00  10 01 80 00 24 06 05 06  ....$.......$...
0620: 00 01 24 06 01 98 05 1B                           ..$.....        
```

#### Opcodes

```
  0: 0x0001 [0x03] ExtData[1]->WorkLocal[0] = Work_Zone[2]
  1: 0x0006 [0x03] ExtData[1]->WorkLocal[2] = Work_Zone[3]
  2: 0x000B [0x03] ExtData[1]->WorkLocal[1] = Work_Zone[9]
  3: 0x0010 [0x02] IF !(ExtData[1]->WorkLocal[0] == 0*) GOTO 0x001D
  4: 0x0018 [0x1A] CALL_SUBROUTINE(address=0x0180)
  5: 0x001B [0x21] END_EVENT
  6: 0x001C [0x00] END_REQSTACK()
  7: 0x001D [0x06] ExtData[1]->WorkLocal[3] = 0
  8: 0x0020 [0x03] ExtData[1]->WorkLocal[5] = 1*

SUBROUTINE_0025:
  9: 0x0025 [0x02] IF !(ExtData[1]->WorkLocal[3] == 0*) GOTO 0x017E
 10: 0x002D [0x40] SET_BIT_WORK_RANGE(start_bit=0*, end_bit=15*, target=Work_Zone[1], source=0*)
 11: 0x0036 [0x40] SET_BIT_WORK_RANGE(start_bit=16*, end_bit=31*, target=Work_Zone[1], source=0*)
 12: 0x003F [0x43] SEND_EVENT_UPDATE: Send pending tag to server (packet 0x005B)
 13: 0x0041 [0x43] SEND_EVENT_UPDATE: Check pending flag (skip if not pending)
 14: 0x0043 [0x06] Work_Zone[1] = 0
 15: 0x0046 [0x03] ExtData[1]->WorkLocal[11] = Work_Zone[3]
 16: 0x004B [0x03] ExtData[1]->WorkLocal[12] = Work_Zone[6]
 17: 0x0050 [0x0B] ExtData[1]->WorkLocal[12]++
 18: 0x0053 [0x03] ExtData[1]->WorkLocal[16] = Work_Zone[8]
 19: 0x0058 [0x06] ExtData[1]->WorkLocal[9] = 0
 20: 0x005B [0x06] ExtData[1]->WorkLocal[10] = 0

SUBROUTINE_005E:
 21: 0x005E [0x02] IF !(ExtData[1]->WorkLocal[9] >= 10*) GOTO 0x0076
 22: 0x0066 [0x3E] IF !(ExtData[1]->WorkLocal[11] bit ExtData[1]->WorkLocal[9]) GOTO 0x0070
 23: 0x006D [0x0B] ExtData[1]->WorkLocal[10]++
 24: 0x0070 [0x0B] ExtData[1]->WorkLocal[9]++
 25: 0x0073 [0x01] GOTO 0x005E
 26: 0x0076 [0x02] IF !(ExtData[1]->WorkLocal[10] == 10*) GOTO 0x0085
 27: 0x007E [0x3C] SET_BIT_FLAG_CONDITIONAL(target_work_offset=ExtData[1]->WorkLocal[4], bit_index_work_offset=1*, condition_work_offset=1*)
 28: 0x0085 [0x02] IF !(ExtData[1]->WorkLocal[12] < 3*) GOTO 0x0094
 29: 0x008D [0x3C] SET_BIT_FLAG_CONDITIONAL(target_work_offset=ExtData[1]->WorkLocal[4], bit_index_work_offset=2*, condition_work_offset=1*)
 30: 0x0094 [0x02] IF !(ExtData[1]->WorkLocal[2] == 0*) GOTO 0x00B4
 31: 0x009C [0x3C] SET_BIT_FLAG_CONDITIONAL(target_work_offset=ExtData[1]->WorkLocal[4], bit_index_work_offset=3*, condition_work_offset=1*)
 32: 0x00A3 [0x3C] SET_BIT_FLAG_CONDITIONAL(target_work_offset=ExtData[1]->WorkLocal[4], bit_index_work_offset=4*, condition_work_offset=1*)
 33: 0x00AA [0x3C] SET_BIT_FLAG_CONDITIONAL(target_work_offset=ExtData[1]->WorkLocal[4], bit_index_work_offset=5*, condition_work_offset=1*)
 34: 0x00B1 [0x01] GOTO 0x00E9
 35: 0x00B4 [0x02] IF !(ExtData[1]->WorkLocal[2] == 1*) GOTO 0x00E9
 36: 0x00BC [0x3E] IF !(ExtData[1]->WorkLocal[16] bit 0*) GOTO 0x00CA
 37: 0x00C3 [0x3C] SET_BIT_FLAG_CONDITIONAL(target_work_offset=ExtData[1]->WorkLocal[4], bit_index_work_offset=3*, condition_work_offset=1*)
 38: 0x00CA [0x3E] IF !(ExtData[1]->WorkLocal[16] bit 1*) GOTO 0x00D8
 39: 0x00D1 [0x3C] SET_BIT_FLAG_CONDITIONAL(target_work_offset=ExtData[1]->WorkLocal[4], bit_index_work_offset=4*, condition_work_offset=1*)
 40: 0x00D8 [0x3E] IF !(ExtData[1]->WorkLocal[16] bit 2*) GOTO 0x00E6
 41: 0x00DF [0x3C] SET_BIT_FLAG_CONDITIONAL(target_work_offset=ExtData[1]->WorkLocal[4], bit_index_work_offset=5*, condition_work_offset=1*)
 42: 0x00E6 [0x01] GOTO 0x00E9

SUBROUTINE_00E9:
 43: 0x00E9 [0x03] Work_Zone[2] = ExtData[1]->WorkLocal[12]
 44: 0x00EE [0x24] CREATE_DIALOG(message_id=7443*, default_option=ExtData[1]->WorkLocal[5], option_flags=ExtData[1]->WorkLocal[4])
    → "What shall you do? (Current Lv.: $0) [Nothing for now./Call forth a Valiant./Amend the Ars Monstrum./Convert to Puissance./Acquire a map./Bolster pets./Read an explanation.]"
 45: 0x00F5 [0x25] WAIT_DIALOG_SELECT()
 46: 0x00F6 [0x02] IF !(Work_Zone[0] == 0*) GOTO 0x0109
 47: 0x00FE [0x05] ExtData[1]->WorkLocal[3] = 1
 48: 0x0101 [0x03] Work_Zone[1] = 0*
 49: 0x0106 [0x01] GOTO 0x017B
 50: 0x0109 [0x02] IF !(Work_Zone[0] == 1*) GOTO 0x011C
 51: 0x0111 [0x03] ExtData[1]->WorkLocal[5] = 1*
 52: 0x0116 [0x1A] CALL_SUBROUTINE(address=0x0295)
 53: 0x0119 [0x01] GOTO 0x017B
 54: 0x011C [0x02] IF !(Work_Zone[0] == 2*) GOTO 0x012F
 55: 0x0124 [0x03] ExtData[1]->WorkLocal[5] = 2*
 56: 0x0129 [0x1A] CALL_SUBROUTINE(address=0x03B1)
 57: 0x012C [0x01] GOTO 0x017B
 58: 0x012F [0x02] IF !(Work_Zone[0] == 3*) GOTO 0x0142
 59: 0x0137 [0x03] ExtData[1]->WorkLocal[5] = 3*
 60: 0x013C [0x1A] CALL_SUBROUTINE(address=0x0444)
 61: 0x013F [0x01] GOTO 0x017B
 62: 0x0142 [0x02] IF !(Work_Zone[0] == 4*) GOTO 0x0155
 63: 0x014A [0x03] ExtData[1]->WorkLocal[5] = 4*
 64: 0x014F [0x1A] CALL_SUBROUTINE(address=0x04FC)
 65: 0x0152 [0x01] GOTO 0x017B
 66: 0x0155 [0x02] IF !(Work_Zone[0] == 5*) GOTO 0x0168
 67: 0x015D [0x03] ExtData[1]->WorkLocal[5] = 5*
 68: 0x0162 [0x1A] CALL_SUBROUTINE(address=0x0592)
 69: 0x0165 [0x01] GOTO 0x017B
 70: 0x0168 [0x02] IF !(Work_Zone[0] == 6*) GOTO 0x017B
 71: 0x0170 [0x03] ExtData[1]->WorkLocal[5] = 6*
 72: 0x0175 [0x1A] CALL_SUBROUTINE(address=0x0180)
 73: 0x0178 [0x01] GOTO 0x017B

SUBROUTINE_017B:
 74: 0x017B [0x01] GOTO 0x0025
 75: 0x017E [0x21] END_EVENT
 76: 0x017F [0x00] END_REQSTACK()

SUBROUTINE_0180:
 77: 0x0180 [0x06] ExtData[1]->WorkLocal[6] = 0
 78: 0x0183 [0x06] ExtData[1]->WorkLocal[8] = 0

SUBROUTINE_0186:
 79: 0x0186 [0x02] IF !(ExtData[1]->WorkLocal[6] == 0*) GOTO 0x020E
 80: 0x018E [0x24] CREATE_DIALOG(message_id=7444*, default_option=ExtData[1]->WorkLocal[8], option_flags=0*)
    → "Read up on which topic? [None of these./Objectives./Puissance./Valiant./Valiant Shijin./Amending the Ars Monstrum./Acquiring maps./Bolstering pets.]"
 81: 0x0195 [0x25] WAIT_DIALOG_SELECT()
 82: 0x0196 [0x02] IF !(Work_Zone[0] == 0*) GOTO 0x01A4
 83: 0x019E [0x05] ExtData[1]->WorkLocal[6] = 1
 84: 0x01A1 [0x01] GOTO 0x0206
 85: 0x01A4 [0x02] IF !(Work_Zone[0] == 1*) GOTO 0x01B2
 86: 0x01AC [0x1A] CALL_SUBROUTINE(address=0x020F)
 87: 0x01AF [0x01] GOTO 0x0206
 88: 0x01B2 [0x02] IF !(Work_Zone[0] == 2*) GOTO 0x01C0
 89: 0x01BA [0x1A] CALL_SUBROUTINE(address=0x0224)
 90: 0x01BD [0x01] GOTO 0x0206
 91: 0x01C0 [0x02] IF !(Work_Zone[0] == 3*) GOTO 0x01CE
 92: 0x01C8 [0x1A] CALL_SUBROUTINE(address=0x0249)
 93: 0x01CB [0x01] GOTO 0x0206
 94: 0x01CE [0x02] IF !(Work_Zone[0] == 4*) GOTO 0x01DC
 95: 0x01D6 [0x1A] CALL_SUBROUTINE(address=0x0263)
 96: 0x01D9 [0x01] GOTO 0x0206
 97: 0x01DC [0x02] IF !(Work_Zone[0] == 5*) GOTO 0x01EA
 98: 0x01E4 [0x1A] CALL_SUBROUTINE(address=0x0270)
 99: 0x01E7 [0x01] GOTO 0x0206
100: 0x01EA [0x02] IF !(Work_Zone[0] == 6*) GOTO 0x01F8
101: 0x01F2 [0x1A] CALL_SUBROUTINE(address=0x0287)
102: 0x01F5 [0x01] GOTO 0x0206
103: 0x01F8 [0x02] IF !(Work_Zone[0] == 7*) GOTO 0x0206
104: 0x0200 [0x1A] CALL_SUBROUTINE(address=0x0290)
105: 0x0203 [0x01] GOTO 0x0206

SUBROUTINE_0206:
106: 0x0206 [0x03] ExtData[1]->WorkLocal[8] = Work_Zone[0]
107: 0x020B [0x01] GOTO 0x0186
108: 0x020E [0x1B] RETURN

SUBROUTINE_020F:
109: 0x020F [0x48] [System] [7445*]:
    → "Fulfillment of the primary objective, vanquishing the enemy stronghold, is impeded by the Malicious: enemies who threaten intruders at every turn."
110: 0x0212 [0x23] WAIT_FOR_DIALOG_INTERACTION
111: 0x0213 [0x48] [System] [7446*]:
    → "The Malicious and their stronghold boast supernatural defenses, so the "Valiant"--friendly reinforcements who can be called forth to battle--are critical in thwarting them."
112: 0x0216 [0x23] WAIT_FOR_DIALOG_INTERACTION
113: 0x0217 [0x48] [System] [7474*]:
    → "However, Valiant alone are incapable of dealing the final blow to the enemy stronghold, so it falls to the pioneer and his compatriots to bring the axe down."
114: 0x021A [0x23] WAIT_FOR_DIALOG_INTERACTION
115: 0x021B [0x48] [System] [7447*]:
    → "The objective will be deemed a failure should the foes advance upon and destroy your marchland."
116: 0x021E [0x23] WAIT_FOR_DIALOG_INTERACTION
117: 0x021F [0x48] [System] [7448*]:
    → "In short, the Valiant can halt the approach of the Malicious, protecting the marchlands."
118: 0x0222 [0x23] WAIT_FOR_DIALOG_INTERACTION
119: 0x0223 [0x1B] RETURN

SUBROUTINE_0224:
120: 0x0224 [0x48] [System] [7449*]:
    → "As the name implies, Puissance is a type of energy gained from Noetic Ascensions and besting elemental fiends known as "Escalents.""
121: 0x0227 [0x23] WAIT_FOR_DIALOG_INTERACTION
122: 0x0228 [0x03] Work_Zone[2] = 1000*
123: 0x022D [0x48] [System] [7476*]:
    → "Note that up to $0 obsidian fragment[/s] may be converted into motes of Puissance once per floor."
124: 0x0230 [0x23] WAIT_FOR_DIALOG_INTERACTION
125: 0x0231 [0x03] Work_Zone[2] = 1*
126: 0x0236 [0x03] Work_Zone[3] = 1*
127: 0x023B [0x48] [System] [7477*]:
    → "Specifically, $0 obsidian fragment[/s] may be converted into $1 mote[/s] of Puissance."
128: 0x023E [0x23] WAIT_FOR_DIALOG_INTERACTION
129: 0x023F [0x03] Work_Zone[2] = 1000*
130: 0x0244 [0x48] [System] [7475*]:
    → "Proceeding to the next layer of the skirmish will leave you with the default value of $0 motes of Puissance."
131: 0x0247 [0x23] WAIT_FOR_DIALOG_INTERACTION
132: 0x0248 [0x1B] RETURN

SUBROUTINE_0249:
133: 0x0249 [0x48] [System] [7450*]:
    → "The Valiant are the physical forms of Puissance made manifest."
134: 0x024C [0x23] WAIT_FOR_DIALOG_INTERACTION
135: 0x024D [0x48] [System] [7451*]:
    → "The Valiant will automatically assault the enemies' stronghold and engage in combat with the Malicious."
136: 0x0250 [0x23] WAIT_FOR_DIALOG_INTERACTION
137: 0x0251 [0x03] Work_Zone[2] = 5*
138: 0x0256 [0x48] [System] [7452*]:
    → "Up to $0 of the same Valiant may be summoned at a given time."
139: 0x0259 [0x23] WAIT_FOR_DIALOG_INTERACTION
140: 0x025A [0x48] [System] [7453*]:
    → "Increasing the Ars Monstrum's level will enable you to summon additional varieties of the Valiant."
141: 0x025D [0x23] WAIT_FOR_DIALOG_INTERACTION
142: 0x025E [0x48] [System] [7454*]:
    → "Each Valiant is suited to fighting different Malicious foes, as each has bonuses and penalties against a certain type."
143: 0x0261 [0x23] WAIT_FOR_DIALOG_INTERACTION
144: 0x0262 [0x1B] RETURN

SUBROUTINE_0263:
145: 0x0263 [0x48] [System] [7455*]:
    → "Valiant Shijin may also be summoned with Puissance in the same way as ordinary Valiant."
146: 0x0266 [0x23] WAIT_FOR_DIALOG_INTERACTION
147: 0x0267 [0x48] [System] [7456*]:
    → "Which Shijin is summoned depends on the type of eudaemon part used to construct the simulacrum."
148: 0x026A [0x23] WAIT_FOR_DIALOG_INTERACTION
149: 0x026B [0x48] [System] [7457*]:
    → "Only one Valiant Shijin may be called forth, but its effects will be felt on all creatures within the alluvion skirmish."
150: 0x026E [0x23] WAIT_FOR_DIALOG_INTERACTION
151: 0x026F [0x1B] RETURN

SUBROUTINE_0270:
152: 0x0270 [0x48] [System] [7458*]:
    → "Players may use motes of Puissance to amend the Ars Monstrum, thereby increasing its level."
153: 0x0273 [0x23] WAIT_FOR_DIALOG_INTERACTION
154: 0x0274 [0x48] [System] [7459*]:
    → "An amended Ars Monstrum will enable you to summon additional varieties of the Valiant, as well as increase their level."
155: 0x0277 [0x23] WAIT_FOR_DIALOG_INTERACTION
156: 0x0278 [0x03] Work_Zone[2] = 3*
157: 0x027D [0x03] Work_Zone[3] = 1*
158: 0x0282 [0x48] [System] [7460*]:
    → "The Ars Monstrum's maximum level is $0, but advancing to the next section will reset it to $1."
159: 0x0285 [0x23] WAIT_FOR_DIALOG_INTERACTION
160: 0x0286 [0x1B] RETURN

SUBROUTINE_0287:
161: 0x0287 [0x48] [System] [7481*]:
    → "A map of the current skirmish is available for a nominal cost in the form of motes of Puissance."
162: 0x028A [0x23] WAIT_FOR_DIALOG_INTERACTION
163: 0x028B [0x48] [System] [7482*]:
    → "Note that the map will be destroyed upon advancing to the next layer."
164: 0x028E [0x23] WAIT_FOR_DIALOG_INTERACTION
165: 0x028F [0x1B] RETURN

SUBROUTINE_0290:
166: 0x0290 [0x48] [System] [7485*]:
    → "Certain eudaemon parts enable the bolstering of your pets' resistance in exchange for a small donation of motes of Puissance."
167: 0x0293 [0x23] WAIT_FOR_DIALOG_INTERACTION
168: 0x0294 [0x1B] RETURN

SUBROUTINE_0295:
169: 0x0295 [0x06] ExtData[1]->WorkLocal[6] = 0
170: 0x0298 [0x03] ExtData[1]->WorkLocal[8] = 1*

SUBROUTINE_029D:
171: 0x029D [0x02] IF !(ExtData[1]->WorkLocal[6] == 0*) GOTO 0x03B0
172: 0x02A5 [0x40] SET_BIT_WORK_RANGE(start_bit=0*, end_bit=15*, target=Work_Zone[1], source=0*)
173: 0x02AE [0x40] SET_BIT_WORK_RANGE(start_bit=16*, end_bit=31*, target=Work_Zone[1], source=0*)
174: 0x02B7 [0x43] SEND_EVENT_UPDATE: Send pending tag to server (packet 0x005B)
175: 0x02B9 [0x43] SEND_EVENT_UPDATE: Check pending flag (skip if not pending)
176: 0x02BB [0x06] Work_Zone[1] = 0
177: 0x02BE [0x03] ExtData[1]->WorkLocal[7] = Work_Zone[3]
178: 0x02C3 [0x03] ExtData[1]->WorkLocal[14] = Work_Zone[4]
179: 0x02C8 [0x03] ExtData[1]->WorkLocal[15] = Work_Zone[5]
180: 0x02CD [0x02] IF !(Work_Zone[9] == 0*) GOTO 0x02D8
181: 0x02D5 [0x01] GOTO 0x02E9
182: 0x02D8 [0x03] ExtData[1]->WorkLocal[8] = 0*
183: 0x02DD [0x03] ExtData[1]->WorkLocal[7] = 4294967295*
184: 0x02E2 [0x3D] CLEAR_BIT_FLAG_CONDITIONAL(target_work_offset=ExtData[1]->WorkLocal[7], bit_index_work_offset=0*, condition_work_offset=1*)

SUBROUTINE_02E9:
185: 0x02E9 [0x03] Work_Zone[3] = 80*
186: 0x02EE [0x03] Work_Zone[4] = 80*
187: 0x02F3 [0x03] Work_Zone[5] = 80*
188: 0x02F8 [0x03] Work_Zone[6] = 200*
189: 0x02FD [0x03] Work_Zone[7] = 200*
190: 0x0302 [0x03] Work_Zone[8] = 200*
191: 0x0307 [0x03] Work_Zone[9] = 200*
192: 0x030C [0x03] Work_Zone_1700[0] = 400*
193: 0x0311 [0x03] Work_Zone_1700[1] = 400*
194: 0x0316 [0x03] Work_Zone_1700[2] = 1000*
195: 0x031B [0x41] Work_Zone_1700[3] = ExtData[1]->WorkLocal[14] (bits 0*-3*)
196: 0x0324 [0x41] Work_Zone_1700[4] = ExtData[1]->WorkLocal[14] (bits 4*-7*)
197: 0x032D [0x41] Work_Zone_1700[5] = ExtData[1]->WorkLocal[14] (bits 8*-11*)
198: 0x0336 [0x41] Work_Zone_1700[6] = ExtData[1]->WorkLocal[14] (bits 12*-15*)
199: 0x033F [0x41] Work_Zone_1700[7] = ExtData[1]->WorkLocal[14] (bits 16*-19*)
200: 0x0348 [0x41] Work_Zone_1700[8] = ExtData[1]->WorkLocal[14] (bits 20*-23*)
201: 0x0351 [0x41] Work_Zone_1700[9] = ExtData[1]->WorkLocal[14] (bits 24*-27*)
202: 0x035A [0x41] Work_Zone_1700[10] = ExtData[1]->WorkLocal[14] (bits 28*-31*)
203: 0x0363 [0x41] Work_Zone_1700[11] = ExtData[1]->WorkLocal[15] (bits 0*-3*)
204: 0x036C [0x03] Work_Zone_1700[12] = 1*
205: 0x0371 [0x24] CREATE_DIALOG(message_id=7461*, default_option=ExtData[1]->WorkLocal[8], option_flags=ExtData[1]->WorkLocal[7])
    → "Summon which Valiant? ($0 Puissance) [None for now./An Entozoon: $1 Puissance ($11 left)./A Crab: $2 Puissance ($12 left)./A Colibri: $3 Puissance ($13 left)./A Coeurl: $4 Puissance ($14 left)./A Mandragora: $5 Puissance ($15 left)./A Scorpion: $6 Puissance ($16 left)./An Adamantoise: $7 Puissance ($17 left)./A Tome: $8 Puissance ($18 left)./An Ajattara: $9 Puissance ($19 left)./A Shijin: $10 Puissance ($20 left).]"
206: 0x0378 [0x25] WAIT_DIALOG_SELECT()
207: 0x0379 [0x02] IF !(Work_Zone[0] == 0*) GOTO 0x0387
208: 0x0381 [0x05] ExtData[1]->WorkLocal[6] = 1
209: 0x0384 [0x01] GOTO 0x0387

SUBROUTINE_0387:
210: 0x0387 [0x03] ExtData[1]->WorkLocal[8] = Work_Zone[0]
211: 0x038C [0x02] IF !(ExtData[1]->WorkLocal[6] == 0*) GOTO 0x03AD
212: 0x0394 [0x40] SET_BIT_WORK_RANGE(start_bit=0*, end_bit=15*, target=Work_Zone[1], source=1*)
213: 0x039D [0x40] SET_BIT_WORK_RANGE(start_bit=16*, end_bit=31*, target=Work_Zone[1], source=ExtData[1]->WorkLocal[8])
214: 0x03A6 [0x43] SEND_EVENT_UPDATE: Send pending tag to server (packet 0x005B)
215: 0x03A8 [0x43] SEND_EVENT_UPDATE: Check pending flag (skip if not pending)
216: 0x03AA [0x06] Work_Zone[1] = 0
217: 0x03AD [0x01] GOTO 0x029D
218: 0x03B0 [0x1B] RETURN

SUBROUTINE_03B1:
219: 0x03B1 [0x06] ExtData[1]->WorkLocal[6] = 0
220: 0x03B4 [0x06] ExtData[1]->WorkLocal[8] = 0

SUBROUTINE_03B7:
221: 0x03B7 [0x02] IF !(ExtData[1]->WorkLocal[6] == 0*) GOTO 0x0443
222: 0x03BF [0x40] SET_BIT_WORK_RANGE(start_bit=0*, end_bit=15*, target=Work_Zone[1], source=0*)
223: 0x03C8 [0x40] SET_BIT_WORK_RANGE(start_bit=16*, end_bit=31*, target=Work_Zone[1], source=0*)
224: 0x03D1 [0x43] SEND_EVENT_UPDATE: Send pending tag to server (packet 0x005B)
225: 0x03D3 [0x43] SEND_EVENT_UPDATE: Check pending flag (skip if not pending)
226: 0x03D5 [0x06] Work_Zone[1] = 0
227: 0x03D8 [0x03] ExtData[1]->WorkLocal[12] = Work_Zone[6]
228: 0x03DD [0x0B] ExtData[1]->WorkLocal[12]++
229: 0x03E0 [0x03] ExtData[1]->WorkLocal[13] = Work_Zone[7]
230: 0x03E5 [0x03] Work_Zone[3] = ExtData[1]->WorkLocal[13]
231: 0x03EA [0x02] IF !(Work_Zone[9] == 0*) GOTO 0x03FA
232: 0x03F2 [0x03] ExtData[1]->WorkLocal[7] = 0*
233: 0x03F7 [0x01] GOTO 0x0406
234: 0x03FA [0x03] ExtData[1]->WorkLocal[7] = 4294967295*
235: 0x03FF [0x3D] CLEAR_BIT_FLAG_CONDITIONAL(target_work_offset=ExtData[1]->WorkLocal[7], bit_index_work_offset=0*, condition_work_offset=1*)

SUBROUTINE_0406:
236: 0x0406 [0x24] CREATE_DIALOG(message_id=7463*, default_option=0*, option_flags=ExtData[1]->WorkLocal[7])
    → "Amend the Ars Monstrum? ($0 Pui.) [Yes. ($1 Puissance)/No.]"
237: 0x040D [0x25] WAIT_DIALOG_SELECT()
238: 0x040E [0x02] IF !(Work_Zone[0] == 0*) GOTO 0x0432
239: 0x0416 [0x40] SET_BIT_WORK_RANGE(start_bit=0*, end_bit=15*, target=Work_Zone[1], source=2*)
240: 0x041F [0x40] SET_BIT_WORK_RANGE(start_bit=16*, end_bit=31*, target=Work_Zone[1], source=0*)
241: 0x0428 [0x43] SEND_EVENT_UPDATE: Send pending tag to server (packet 0x005B)
242: 0x042A [0x43] SEND_EVENT_UPDATE: Check pending flag (skip if not pending)
243: 0x042C [0x05] ExtData[1]->WorkLocal[6] = 1
244: 0x042F [0x01] GOTO 0x0440
245: 0x0432 [0x02] IF !(Work_Zone[0] == 1*) GOTO 0x0440
246: 0x043A [0x05] ExtData[1]->WorkLocal[6] = 1
247: 0x043D [0x01] GOTO 0x0440

SUBROUTINE_0440:
248: 0x0440 [0x01] GOTO 0x03B7
249: 0x0443 [0x1B] RETURN

SUBROUTINE_0444:
250: 0x0444 [0x40] SET_BIT_WORK_RANGE(start_bit=0*, end_bit=15*, target=Work_Zone[1], source=3*)
251: 0x044D [0x40] SET_BIT_WORK_RANGE(start_bit=16*, end_bit=31*, target=Work_Zone[1], source=0*)
252: 0x0456 [0x43] SEND_EVENT_UPDATE: Send pending tag to server (packet 0x005B)
253: 0x0458 [0x43] SEND_EVENT_UPDATE: Check pending flag (skip if not pending)
254: 0x045A [0x06] Work_Zone[1] = 0
255: 0x045D [0x03] ExtData[1]->WorkLocal[17] = Work_Zone[2]
256: 0x0462 [0x03] ExtData[1]->WorkLocal[18] = Work_Zone[3]
257: 0x0467 [0x03] ExtData[1]->WorkLocal[19] = Work_Zone[4]
258: 0x046C [0x03] ExtData[1]->WorkLocal[20] = Work_Zone[5]
259: 0x0471 [0x02] IF !(Work_Zone[9] == 0*) GOTO 0x0481
260: 0x0479 [0x03] ExtData[1]->WorkLocal[7] = 0*
261: 0x047E [0x01] GOTO 0x0486
262: 0x0481 [0x03] ExtData[1]->WorkLocal[7] = 4294967295*

SUBROUTINE_0486:
263: 0x0486 [0x02] IF !(ExtData[1]->WorkLocal[7] == 0*) GOTO 0x04FB
264: 0x048E [0x03] Work_Zone[3] = ExtData[1]->WorkLocal[18]
265: 0x0493 [0x48] [System] [7478*]:
    → "You currently possess $1 obsidian fragment[/s]. How many would you like to convert?"
266: 0x0496 [0x23] WAIT_FOR_DIALOG_INTERACTION
267: 0x0497 [0x71] USER_INPUT_HANDLER: Open numerical input with params (work=[1*, ExtData[1]->WorkLocal[19]])
268: 0x049D [0x71] USER_INPUT_HANDLER: Process numerical input B (work=ExtData[1]->WorkLocal[21])
269: 0x04A1 [0x02] IF !(ExtData[1]->WorkLocal[21] > ExtData[1]->WorkLocal[20]) GOTO 0x04FB
270: 0x04A9 [0x02] IF !(ExtData[1]->WorkLocal[21] <= 0*) GOTO 0x04FB
271: 0x04B1 [0x02] IF !(ExtData[1]->WorkLocal[21] > ExtData[1]->WorkLocal[18]) GOTO 0x04F8
272: 0x04B9 [0x03] Work_Zone[2] = ExtData[1]->WorkLocal[21]
273: 0x04BE [0x24] CREATE_DIALOG(message_id=7479*, default_option=1*, option_flags=0*)
    → "You will receive $0 mote[/s] of Puissance. [Continue with the exchange./I need time to think.]"
274: 0x04C5 [0x25] WAIT_DIALOG_SELECT()
275: 0x04C6 [0x02] IF !(Work_Zone[0] == 0*) GOTO 0x04EA
276: 0x04CE [0x40] SET_BIT_WORK_RANGE(start_bit=0*, end_bit=15*, target=Work_Zone[1], source=4*)
277: 0x04D7 [0x40] SET_BIT_WORK_RANGE(start_bit=16*, end_bit=31*, target=Work_Zone[1], source=ExtData[1]->WorkLocal[21])
278: 0x04E0 [0x43] SEND_EVENT_UPDATE: Send pending tag to server (packet 0x005B)
279: 0x04E2 [0x43] SEND_EVENT_UPDATE: Check pending flag (skip if not pending)
280: 0x04E4 [0x06] Work_Zone[1] = 0
281: 0x04E7 [0x01] GOTO 0x04F5
282: 0x04EA [0x02] IF !(Work_Zone[0] == 1*) GOTO 0x04F5
283: 0x04F2 [0x01] GOTO 0x04F5

SUBROUTINE_04F5:
284: 0x04F5 [0x01] GOTO 0x04F8

SUBROUTINE_04F8:
285: 0x04F8 [0x01] GOTO 0x04FB

SUBROUTINE_04FB:
286: 0x04FB [0x1B] RETURN

SUBROUTINE_04FC:
287: 0x04FC [0x06] ExtData[1]->WorkLocal[6] = 0
288: 0x04FF [0x06] ExtData[1]->WorkLocal[8] = 0

SUBROUTINE_0502:
289: 0x0502 [0x02] IF !(ExtData[1]->WorkLocal[6] == 0*) GOTO 0x0591
290: 0x050A [0x40] SET_BIT_WORK_RANGE(start_bit=0*, end_bit=15*, target=Work_Zone[1], source=3*)
291: 0x0513 [0x40] SET_BIT_WORK_RANGE(start_bit=16*, end_bit=31*, target=Work_Zone[1], source=0*)
292: 0x051C [0x43] SEND_EVENT_UPDATE: Send pending tag to server (packet 0x005B)
293: 0x051E [0x43] SEND_EVENT_UPDATE: Check pending flag (skip if not pending)
294: 0x0520 [0x06] Work_Zone[1] = 0
295: 0x0523 [0x03] ExtData[1]->WorkLocal[17] = Work_Zone[2]
296: 0x0528 [0x03] ExtData[1]->WorkLocal[22] = Work_Zone[6]
297: 0x052D [0x02] IF !(Work_Zone[9] == 0*) GOTO 0x053D
298: 0x0535 [0x03] ExtData[1]->WorkLocal[7] = 0*
299: 0x053A [0x01] GOTO 0x0542
300: 0x053D [0x03] ExtData[1]->WorkLocal[7] = 4294967295*

SUBROUTINE_0542:
301: 0x0542 [0x02] IF !(ExtData[1]->WorkLocal[7] == 0*) GOTO 0x058E
302: 0x054A [0x03] Work_Zone[2] = ExtData[1]->WorkLocal[17]
303: 0x054F [0x03] Work_Zone[3] = ExtData[1]->WorkLocal[22]
304: 0x0554 [0x24] CREATE_DIALOG(message_id=7480*, default_option=0*, option_flags=ExtData[1]->WorkLocal[7])
    → "Acquire a map? ($0 motes of Puissance) [Yes, please. ($1 motes required)/No, thank you.]"
305: 0x055B [0x25] WAIT_DIALOG_SELECT()
306: 0x055C [0x02] IF !(Work_Zone[0] == 0*) GOTO 0x0580
307: 0x0564 [0x40] SET_BIT_WORK_RANGE(start_bit=0*, end_bit=15*, target=Work_Zone[1], source=5*)
308: 0x056D [0x40] SET_BIT_WORK_RANGE(start_bit=16*, end_bit=31*, target=Work_Zone[1], source=0*)
309: 0x0576 [0x43] SEND_EVENT_UPDATE: Send pending tag to server (packet 0x005B)
310: 0x0578 [0x43] SEND_EVENT_UPDATE: Check pending flag (skip if not pending)
311: 0x057A [0x05] ExtData[1]->WorkLocal[6] = 1
312: 0x057D [0x01] GOTO 0x058E
313: 0x0580 [0x02] IF !(Work_Zone[0] == 1*) GOTO 0x058E
314: 0x0588 [0x05] ExtData[1]->WorkLocal[6] = 1
315: 0x058B [0x01] GOTO 0x058E

SUBROUTINE_058E:
316: 0x058E [0x01] GOTO 0x0502
317: 0x0591 [0x1B] RETURN

SUBROUTINE_0592:
318: 0x0592 [0x06] ExtData[1]->WorkLocal[6] = 0
319: 0x0595 [0x06] ExtData[1]->WorkLocal[8] = 0

SUBROUTINE_0598:
320: 0x0598 [0x02] IF !(ExtData[1]->WorkLocal[6] == 0*) GOTO 0x0627
321: 0x05A0 [0x40] SET_BIT_WORK_RANGE(start_bit=0*, end_bit=15*, target=Work_Zone[1], source=3*)
322: 0x05A9 [0x40] SET_BIT_WORK_RANGE(start_bit=16*, end_bit=31*, target=Work_Zone[1], source=0*)
323: 0x05B2 [0x43] SEND_EVENT_UPDATE: Send pending tag to server (packet 0x005B)
324: 0x05B4 [0x43] SEND_EVENT_UPDATE: Check pending flag (skip if not pending)
325: 0x05B6 [0x06] Work_Zone[1] = 0
326: 0x05B9 [0x03] ExtData[1]->WorkLocal[17] = Work_Zone[2]
327: 0x05BE [0x03] ExtData[1]->WorkLocal[22] = Work_Zone[7]
328: 0x05C3 [0x02] IF !(Work_Zone[9] == 0*) GOTO 0x05D3
329: 0x05CB [0x03] ExtData[1]->WorkLocal[7] = 0*
330: 0x05D0 [0x01] GOTO 0x05D8
331: 0x05D3 [0x03] ExtData[1]->WorkLocal[7] = 4294967295*

SUBROUTINE_05D8:
332: 0x05D8 [0x02] IF !(ExtData[1]->WorkLocal[7] == 0*) GOTO 0x0624
333: 0x05E0 [0x03] Work_Zone[2] = ExtData[1]->WorkLocal[17]
334: 0x05E5 [0x03] Work_Zone[3] = ExtData[1]->WorkLocal[22]
335: 0x05EA [0x24] CREATE_DIALOG(message_id=7483*, default_option=0*, option_flags=ExtData[1]->WorkLocal[7])
    → "Enhance your allies? ($0 motes of Puissance) [Of course. ($1 motes required)/Not at the moment.]"
336: 0x05F1 [0x25] WAIT_DIALOG_SELECT()
337: 0x05F2 [0x02] IF !(Work_Zone[0] == 0*) GOTO 0x0616
338: 0x05FA [0x40] SET_BIT_WORK_RANGE(start_bit=0*, end_bit=15*, target=Work_Zone[1], source=6*)
339: 0x0603 [0x40] SET_BIT_WORK_RANGE(start_bit=16*, end_bit=31*, target=Work_Zone[1], source=0*)
340: 0x060C [0x43] SEND_EVENT_UPDATE: Send pending tag to server (packet 0x005B)
341: 0x060E [0x43] SEND_EVENT_UPDATE: Check pending flag (skip if not pending)
342: 0x0610 [0x05] ExtData[1]->WorkLocal[6] = 1
343: 0x0613 [0x01] GOTO 0x0624
344: 0x0616 [0x02] IF !(Work_Zone[0] == 1*) GOTO 0x0624
345: 0x061E [0x05] ExtData[1]->WorkLocal[6] = 1
346: 0x0621 [0x01] GOTO 0x0624

SUBROUTINE_0624:
347: 0x0624 [0x01] GOTO 0x0598
348: 0x0627 [0x1B] RETURN
```
