# Event 65535

## Metadata

| Field           | Value    |
|-----------------|----------|
| Event Index     | 39/42    |
| Offset          | 0x029B   |
| Data Size       | 32 bytes |
| Calculated Size | 32 bytes |
| Instructions    | 10       |

```
      00 01 02 03 04 05 06 07  08 09 0A 0B 0C 0D 0E 0F
      -- -- -- -- -- -- -- --  -- -- -- -- -- -- -- --
0290:                                   32 0F 80 1F 00             2....
02A0: 2F 80 30 80 31 80 1F 01  1F 00 32 80 33 80 2B 80  /.0.1.....2.3.+.
02B0: 1F 01 6F 1E 5C 21 0A 01  6F 70 00                 ..o.\!..op.     
```

## Opcodes

```
  0: 0x029B [0x32] ExtData[1]->MainSpeed = 40* * 0.1
  1: 0x029E [0x1F] MOVE_ENTITY: EventEntity moves to X=6.207*, Z=-1.778*, Y=-7.081*
  2: 0x02A6 [0x1F] MOVE_ENTITY: Update entity position (mode=1)
  3: 0x02A8 [0x1F] MOVE_ENTITY: EventEntity moves to X=4.143*, Z=-0.255*, Y=-7.199*
  4: 0x02B0 [0x1F] MOVE_ENTITY: Update entity position (mode=1)
  5: 0x02B2 [0x6F] WAIT_FRAME_DELAY: Yield until WaitTime reaches zero
  6: 0x02B3 [0x1E] EventEntity looks at Chaos (ID: 17441116/0x010A215C) and starts talking
  7: 0x02B8 [0x6F] WAIT_FRAME_DELAY: Yield until WaitTime reaches zero
  8: 0x02B9 [0x70] WAIT_ENTITY_RENDER_FLAG: Wait while EventEntity->Render.Flags3 bit 2 is set (cancel turn if not)
  9: 0x02BA [0x00] END_REQSTACK()
```
