# Event 20

## Metadata

| Field           | Value    |
|-----------------|----------|
| Event Index     | 33/64    |
| Offset          | 0x0196   |
| Data Size       | 53 bytes |
| Calculated Size | 53 bytes |
| Instructions    | 15       |

```
      00 01 02 03 04 05 06 07  08 09 0A 0B 0C 0D 0E 0F
      -- -- -- -- -- -- -- --  -- -- -- -- -- -- -- --
0190:                   20 01  24 5C 80 38 80 5D 80 25         .$\.8.].%
01A0: 02 00 10 5D 80 00 BC 01  42 43 00 43 01 03 01 10  ...]....BC.C....
01B0: 38 80 29 01 F0 FF FF 7F  27 01 C7 01 02 00 10 38  8.).....'......8
01C0: 80 00 C7 01 01 C7 01 20  00 21 00                 ....... .!.     
```

## Opcodes

```
  0: 0x0196 [0x20] SET_CLI_EVENT_UC_FLAG: Lock player control
  1: 0x0198 [0x24] CREATE_DIALOG(message_id=7270*, default_option=1*, option_flags=0*)
    → "Use the device?\u0007\u000BYes.\u0007No.\u007F1\u0000\u0007"
  2: 0x019F [0x25] WAIT_DIALOG_SELECT()
  3: 0x01A0 [0x02] IF !(Work_Zone[0] == 0*) GOTO 0x01BC
  4: 0x01A8 [0x42] SET_CLI_EVENT_CANCEL_DATA()
  5: 0x01A9 [0x43] SEND_EVENT_UPDATE: Send pending tag to server (packet 0x005B)
  6: 0x01AB [0x43] SEND_EVENT_UPDATE: Check pending flag (skip if not pending)
  7: 0x01AD [0x03] Work_Zone[1] = 1*
  8: 0x01B2 [0x29] REQ_SET_WAIT(priority=0x01, entity_id=LocalPlayer, tag_num=0x27)
  9: 0x01B9 [0x01] GOTO 0x01C7

SUBROUTINE_01BC:
 10: 0x01BC [0x02] IF !(Work_Zone[0] == 1*) GOTO 0x01C7
 11: 0x01C4 [0x01] GOTO 0x01C7

SUBROUTINE_01C7:
 12: 0x01C7 [0x20] SET_CLI_EVENT_UC_FLAG: Unlock player control
 13: 0x01C9 [0x21] END_EVENT
 14: 0x01CA [0x00] END_REQSTACK()
```
