# Event 26

## Metadata

| Field           | Value    |
|-----------------|----------|
| Event Index     | 39/64    |
| Offset          | 0x02D4   |
| Data Size       | 57 bytes |
| Calculated Size | 57 bytes |
| Instructions    | 17       |

```
      00 01 02 03 04 05 06 07  08 09 0A 0B 0C 0D 0E 0F
      -- -- -- -- -- -- -- --  -- -- -- -- -- -- -- --
02D0:             20 01 48 5E  80 23 24 5F 80 38 80 5D       .H^.#$_.8.]
02E0: 80 25 02 00 10 5D 80 00  FE 02 42 43 00 43 01 03  .%...]....BC.C..
02F0: 01 10 38 80 29 01 F0 FF  FF 7F 27 01 09 03 02 00  ..8.).....'.....
0300: 10 38 80 00 09 03 01 09  03 20 00 21 00           .8....... .!.   
```

## Opcodes

```
  0: 0x02D4 [0x20] SET_CLI_EVENT_UC_FLAG: Lock player control
  1: 0x02D6 [0x48] [System] [7263*]:
    → "A potent field of magic exists beyond the door.\u0007You sense that simply touching the door will transport you elsewhere.\u007F1\u0000\u0007"
  2: 0x02D9 [0x23] WAIT_FOR_DIALOG_INTERACTION
  3: 0x02DA [0x24] CREATE_DIALOG(message_id=7274*, default_option=1*, option_flags=0*)
    → "Touch the door?\u0007\u000BYes.\u0007No.\u007F1\u0000\u0007"
  4: 0x02E1 [0x25] WAIT_DIALOG_SELECT()
  5: 0x02E2 [0x02] IF !(Work_Zone[0] == 0*) GOTO 0x02FE
  6: 0x02EA [0x42] SET_CLI_EVENT_CANCEL_DATA()
  7: 0x02EB [0x43] SEND_EVENT_UPDATE: Send pending tag to server (packet 0x005B)
  8: 0x02ED [0x43] SEND_EVENT_UPDATE: Check pending flag (skip if not pending)
  9: 0x02EF [0x03] Work_Zone[1] = 1*
 10: 0x02F4 [0x29] REQ_SET_WAIT(priority=0x01, entity_id=LocalPlayer, tag_num=0x27)
 11: 0x02FB [0x01] GOTO 0x0309

SUBROUTINE_02FE:
 12: 0x02FE [0x02] IF !(Work_Zone[0] == 1*) GOTO 0x0309
 13: 0x0306 [0x01] GOTO 0x0309

SUBROUTINE_0309:
 14: 0x0309 [0x20] SET_CLI_EVENT_UC_FLAG: Unlock player control
 15: 0x030B [0x21] END_EVENT
 16: 0x030C [0x00] END_REQSTACK()
```
