# Event 352

## Metadata

| Field           | Value    |
|-----------------|----------|
| Event Index     | 9/9      |
| Offset          | 0x0075   |
| Data Size       | 37 bytes |
| Calculated Size | 37 bytes |
| Instructions    | 11       |

```
      00 01 02 03 04 05 06 07  08 09 0A 0B 0C 0D 0E 0F
      -- -- -- -- -- -- -- --  -- -- -- -- -- -- -- --
0070:                42 48 11  80 1E F0 FF FF 7F 1C 12       BH.........
0080: 80 1D 13 80 23 5B 01 80  F8 FF FF 7F F8 FF FF 7F  ....#[..........
0090: 74 68 6B 30 1D 14 80 23  21 00                    thk0...#!.      
```

## Opcodes

```
  0: 0x0075 [0x42] SET_CLI_EVENT_CANCEL_DATA()
  1: 0x0076 [0x48] [System] [9990*]:
    → "\u001F\u000F\u0008's badge flashes brightly.\u007F1\u0000\u0007"
  2: 0x0079 [0x1E] EventEntity looks at LocalPlayer and starts talking
  3: 0x007E [0x1C] WAIT(30* ticks)
  4: 0x0081 [0x1D] PRINT_EVENT_MESSAGE(message_id=9991*)
    → "I heard somebody at the warehouse saying that the people from Aht Urhgan are sneaky.\u007F1\u0000\u0007"
  5: 0x0084 [0x23] WAIT_FOR_DIALOG_INTERACTION
  6: 0x0085 [0x5B] LOAD_EXT_SCHEDULER(work_offset=80*, entity1=EventEntity, entity2=EventEntity, action="thk0")
  7: 0x0094 [0x1D] PRINT_EVENT_MESSAGE(message_id=9992*)
    → "I wonder if that's true...\u007F1\u0000\u0007"
  8: 0x0097 [0x23] WAIT_FOR_DIALOG_INTERACTION
  9: 0x0098 [0x21] END_EVENT
 10: 0x0099 [0x00] END_REQSTACK()
```
