# Event 65535

## Metadata

| Field           | Value    |
|-----------------|----------|
| Event Index     | 5/5      |
| Offset          | 0x00E7   |
| Data Size       | 87 bytes |
| Calculated Size | 87 bytes |
| Instructions    | 19       |

```
      00 01 02 03 04 05 06 07  08 09 0A 0B 0C 0D 0E 0F
      -- -- -- -- -- -- -- --  -- -- -- -- -- -- -- --
00E0:                      32  04 80 1F 00 05 80 06 80         2........
00F0: 07 80 1F 01 6F 4B F8 FF  FF 7F 08 80 1C 09 80 02  ....oK..........
0100: 53 10 01 80 00 16 01 6E  F8 FF FF 7F 0E 80 99 F8  S......n........
0110: FF FF 7F 01 22 01 6E F8  FF FF 7F 0F 80 99 F8 FF  ....".n.........
0120: FF 7F 03 4F 10 00 80 02  53 10 01 80 00 35 01 1C  ...O....S....5..
0130: 09 80 01 38 01 1C 0B 80  03 4F 10 01 80 00        ...8.....O....  
```

## Opcodes

```
  0: 0x00E7 [0x32] ExtData[1]->MainSpeed = 40* * 0.1
  1: 0x00EA [0x1F] MOVE_ENTITY: EventEntity moves to X=-1.125*, Z=45.095*, Y=-1.999*
  2: 0x00F2 [0x1F] MOVE_ENTITY: Update entity position (mode=1)
  3: 0x00F4 [0x6F] WAIT_FRAME_DELAY: Yield until WaitTime reaches zero
  4: 0x00F5 [0x4B] UPDATE_ENTITY_YAW(entity=EventEntity, yaw=5.4°*)
  5: 0x00FC [0x1C] WAIT(120* ticks)
  6: 0x00FF [0x02] IF !(Work_Zone[83] == 0*) GOTO 0x0116
  7: 0x0107 [0x6E] EventEntity uses emote 10*
  8: 0x010E [0x99] Wait for EventEntity animation to complete
  9: 0x0113 [0x01] GOTO 0x0122
 10: 0x0116 [0x6E] EventEntity uses emote 16*
 11: 0x011D [0x99] Wait for EventEntity animation to complete

SUBROUTINE_0122:
 12: 0x0122 [0x03] Work_Zone[79] = 1*
 13: 0x0127 [0x02] IF !(Work_Zone[83] == 0*) GOTO 0x0135
 14: 0x012F [0x1C] WAIT(120* ticks)
 15: 0x0132 [0x01] GOTO 0x0138
 16: 0x0135 [0x1C] WAIT(90* ticks)

SUBROUTINE_0138:
 17: 0x0138 [0x03] Work_Zone[79] = 0*
 18: 0x013D [0x00] END_REQSTACK()
```
