# Event 65535

## Metadata

| Field           | Value    |
|-----------------|----------|
| Event Index     | 7/10     |
| Offset          | 0x01E2   |
| Data Size       | 83 bytes |
| Calculated Size | 83 bytes |
| Instructions    | 9        |

```
      00 01 02 03 04 05 06 07  08 09 0A 0B 0C 0D 0E 0F
      -- -- -- -- -- -- -- --  -- -- -- -- -- -- -- --
01E0:       27 10 C1 80 0A 01  05 27 10 C3 80 0A 01 05    '......'......
01F0: 1C 07 80 2D F0 FF FF 7F  F0 FF FF 7F 32 32 31 61  ...-........221a
0200: 2D F0 FF FF 7F F0 FF FF  7F 32 32 31 65 2D F0 FF  -........221e-..
0210: FF 7F F0 FF FF 7F 68 72  61 6B 2D F0 FF FF 7F F0  ......hrak-.....
0220: FF FF 7F 6D 61 6B 69 2D  F0 FF FF 7F F0 FF FF 7F  ...maki-........
0230: 6D 61 6B 6D 00                                    makm.           
```

## Opcodes

```
  0: 0x01E2 [0x27] REQ_SET(priority=0x10, entity_id=MaidenFire (ID: 17465537/0x010A80C1), tag_num=0x05)
  1: 0x01E9 [0x27] REQ_SET(priority=0x10, entity_id=MaidenIce (ID: 17465539/0x010A80C3), tag_num=0x05)
  2: 0x01F0 [0x1C] WAIT(180* ticks)
  3: 0x01F3 [0x2D] CREATE_ZONE_SCHEDULER_TASK: Create scheduler "221a" with entities [LocalPlayer, LocalPlayer]
  4: 0x0200 [0x2D] CREATE_ZONE_SCHEDULER_TASK: Create scheduler "221e" with entities [LocalPlayer, LocalPlayer]
  5: 0x020D [0x2D] CREATE_ZONE_SCHEDULER_TASK: Create scheduler "hrak" with entities [LocalPlayer, LocalPlayer]
  6: 0x021A [0x2D] CREATE_ZONE_SCHEDULER_TASK: Create scheduler "maki" with entities [LocalPlayer, LocalPlayer]
  7: 0x0227 [0x2D] CREATE_ZONE_SCHEDULER_TASK: Create scheduler "makm" with entities [LocalPlayer, LocalPlayer]
  8: 0x0234 [0x00] END_REQSTACK()
```
