# Event 65535

## Metadata

| Field           | Value    |
|-----------------|----------|
| Event Index     | 9/10     |
| Offset          | 0x0288   |
| Data Size       | 83 bytes |
| Calculated Size | 83 bytes |
| Instructions    | 9        |

```
      00 01 02 03 04 05 06 07  08 09 0A 0B 0C 0D 0E 0F
      -- -- -- -- -- -- -- --  -- -- -- -- -- -- -- --
0280:                          27 10 C4 80 0A 01 05 27          '......'
0290: 10 C2 80 0A 01 05 1C 07  80 2D F0 FF FF 7F F0 FF  .........-......
02A0: FF 7F 32 32 31 63 2D F0  FF FF 7F F0 FF FF 7F 32  ..221c-........2
02B0: 32 31 67 2D F0 FF FF 7F  F0 FF FF 7F 68 72 63 6B  21g-........hrck
02C0: 2D F0 FF FF 7F F0 FF FF  7F 6D 63 6B 69 2D F0 FF  -........mcki-..
02D0: FF 7F F0 FF FF 7F 6D 63  6B 6D 00                 ......mckm.     
```

## Opcodes

```
  0: 0x0288 [0x27] REQ_SET(priority=0x10, entity_id=MaidenWind (ID: 17465540/0x010A80C4), tag_num=0x05)
  1: 0x028F [0x27] REQ_SET(priority=0x10, entity_id=MaidenEarth (ID: 17465538/0x010A80C2), tag_num=0x05)
  2: 0x0296 [0x1C] WAIT(180* ticks)
  3: 0x0299 [0x2D] CREATE_ZONE_SCHEDULER_TASK: Create scheduler "221c" with entities [LocalPlayer, LocalPlayer]
  4: 0x02A6 [0x2D] CREATE_ZONE_SCHEDULER_TASK: Create scheduler "221g" with entities [LocalPlayer, LocalPlayer]
  5: 0x02B3 [0x2D] CREATE_ZONE_SCHEDULER_TASK: Create scheduler "hrck" with entities [LocalPlayer, LocalPlayer]
  6: 0x02C0 [0x2D] CREATE_ZONE_SCHEDULER_TASK: Create scheduler "mcki" with entities [LocalPlayer, LocalPlayer]
  7: 0x02CD [0x2D] CREATE_ZONE_SCHEDULER_TASK: Create scheduler "mckm" with entities [LocalPlayer, LocalPlayer]
  8: 0x02DA [0x00] END_REQSTACK()
```
