# Event 65535

## Metadata

| Field           | Value    |
|-----------------|----------|
| Event Index     | 8/10     |
| Offset          | 0x0235   |
| Data Size       | 83 bytes |
| Calculated Size | 83 bytes |
| Instructions    | 9        |

```
      00 01 02 03 04 05 06 07  08 09 0A 0B 0C 0D 0E 0F
      -- -- -- -- -- -- -- --  -- -- -- -- -- -- -- --
0230:                27 10 C5  80 0A 01 05 27 10 C6 80       '......'...
0240: 0A 01 05 1C 07 80 2D F0  FF FF 7F F0 FF FF 7F 32  ......-........2
0250: 32 31 62 2D F0 FF FF 7F  F0 FF FF 7F 32 32 31 66  21b-........221f
0260: 2D F0 FF FF 7F F0 FF FF  7F 68 72 62 6B 2D F0 FF  -........hrbk-..
0270: FF 7F F0 FF FF 7F 6D 62  6B 69 2D F0 FF FF 7F F0  ......mbki-.....
0280: FF FF 7F 6D 62 6B 6D 00                           ...mbkm.        
```

## Opcodes

```
  0: 0x0235 [0x27] REQ_SET(priority=0x10, entity_id=MaidenWater (ID: 17465541/0x010A80C5), tag_num=0x05)
  1: 0x023C [0x27] REQ_SET(priority=0x10, entity_id=MaidenThunder (ID: 17465542/0x010A80C6), tag_num=0x05)
  2: 0x0243 [0x1C] WAIT(180* ticks)
  3: 0x0246 [0x2D] CREATE_ZONE_SCHEDULER_TASK: Create scheduler "221b" with entities [LocalPlayer, LocalPlayer]
  4: 0x0253 [0x2D] CREATE_ZONE_SCHEDULER_TASK: Create scheduler "221f" with entities [LocalPlayer, LocalPlayer]
  5: 0x0260 [0x2D] CREATE_ZONE_SCHEDULER_TASK: Create scheduler "hrbk" with entities [LocalPlayer, LocalPlayer]
  6: 0x026D [0x2D] CREATE_ZONE_SCHEDULER_TASK: Create scheduler "mbki" with entities [LocalPlayer, LocalPlayer]
  7: 0x027A [0x2D] CREATE_ZONE_SCHEDULER_TASK: Create scheduler "mbkm" with entities [LocalPlayer, LocalPlayer]
  8: 0x0287 [0x00] END_REQSTACK()
```
