# Event 65535

## Metadata

| Field           | Value    |
|-----------------|----------|
| Event Index     | 5/10     |
| Offset          | 0x0175   |
| Data Size       | 72 bytes |
| Calculated Size | 72 bytes |
| Instructions    | 6        |

```
      00 01 02 03 04 05 06 07  08 09 0A 0B 0C 0D 0E 0F
      -- -- -- -- -- -- -- --  -- -- -- -- -- -- -- --
0170:                45 00 80  F0 FF FF 7F F0 FF FF 7F       E..........
0180: 73 67 30 35 01 80 27 10  D1 80 0A 01 05 55 00 80  sg05..'......U..
0190: F0 FF FF 7F F0 FF FF 7F  73 67 30 35 45 00 80 F0  ........sg05E...
01A0: FF FF 7F F0 FF FF 7F 73  67 30 36 01 80 55 00 80  .......sg06..U..
01B0: F0 FF FF 7F F0 FF FF 7F  73 67 30 36 00           ........sg06.   
```

## Opcodes

```
  0: 0x0175 [0x45] LOAD_SCHEDULED_TASK: Load scheduler "sg05" with entities [LocalPlayer, LocalPlayer], work=[68*, 0*]
  1: 0x0186 [0x27] REQ_SET(priority=0x10, entity_id=Unnamed NPC (ID: 17465553/0x010A80D1), tag_num=0x05)
  2: 0x018D [0x55] WAIT_LOAD_SCHEDULER: Wait for scheduler "sg05" with entities [LocalPlayer, LocalPlayer], work=68*
  3: 0x019C [0x45] LOAD_SCHEDULED_TASK: Load scheduler "sg06" with entities [LocalPlayer, LocalPlayer], work=[68*, 0*]
  4: 0x01AD [0x55] WAIT_LOAD_SCHEDULER: Wait for scheduler "sg06" with entities [LocalPlayer, LocalPlayer], work=68*
  5: 0x01BC [0x00] END_REQSTACK()
```
