# Event 26

## Metadata

| Field           | Value    |
|-----------------|----------|
| Event Index     | 15/20    |
| Offset          | 0x1B01   |
| Data Size       | 36 bytes |
| Calculated Size | 36 bytes |
| Instructions    | 13       |

```
      00 01 02 03 04 05 06 07  08 09 0A 0B 0C 0D 0E 0F
      -- -- -- -- -- -- -- --  -- -- -- -- -- -- -- --
1B00:    20 01 42 1E F0 FF FF  7F 6F 70 2B D1 70 0E 01    .B.....op+.p..
1B10: 5C 81 23 2B D1 70 0E 01  5D 81 23 2B D1 70 0E 01  \.#+.p..].#+.p..
1B20: 5E 81 23 21 00                                    ^.#!.           
```

## Opcodes

```
  0: 0x1B01 [0x20] SET_CLI_EVENT_UC_FLAG: Lock player control
  1: 0x1B03 [0x42] SET_CLI_EVENT_CANCEL_DATA()
  2: 0x1B04 [0x1E] EventEntity looks at LocalPlayer and starts talking
  3: 0x1B09 [0x6F] WAIT_FRAME_DELAY: Yield until WaitTime reaches zero
  4: 0x1B0A [0x70] WAIT_ENTITY_RENDER_FLAG: Wait while EventEntity->Render.Flags3 bit 2 is set (cancel turn if not)
  5: 0x1B0B [0x2B] Excenmille (ID: 17723601/0x010E70D1) [7918*]:
    → "What is that? A letter from that rat, Ginuva? Hand it over!\u007F1\u0000\u0007"
  6: 0x1B12 [0x23] WAIT_FOR_DIALOG_INTERACTION
  7: 0x1B13 [0x2B] Excenmille (ID: 17723601/0x010E70D1) [7919*]:
    → ".........\u0007How dare he even think of mentioning the Second Battle of Konschtat!\u007F1\u0000\u0007"
  8: 0x1B1A [0x23] WAIT_FOR_DIALOG_INTERACTION
  9: 0x1B1B [0x2B] Excenmille (ID: 17723601/0x010E70D1) [7920*]:
    → "You!\u0007Tell your commander that I accept his challenge, and that this time history shall not repeat itself!\u007F1\u0000\u0007"
 10: 0x1B22 [0x23] WAIT_FOR_DIALOG_INTERACTION
 11: 0x1B23 [0x21] END_EVENT
 12: 0x1B24 [0x00] END_REQSTACK()
```
