# Event 28

## Metadata

| Field           | Value    |
|-----------------|----------|
| Event Index     | 16/20    |
| Offset          | 0x1B25   |
| Data Size       | 36 bytes |
| Calculated Size | 36 bytes |
| Instructions    | 13       |

```
      00 01 02 03 04 05 06 07  08 09 0A 0B 0C 0D 0E 0F
      -- -- -- -- -- -- -- --  -- -- -- -- -- -- -- --
1B20:                20 01 42  1E F0 FF FF 7F 6F 70 2B        .B.....op+
1B30: D1 70 0E 01 5F 81 23 2B  D1 70 0E 01 60 81 23 2B  .p.._.#+.p..`.#+
1B40: D1 70 0E 01 61 81 23 21  00                       .p..a.#!.       
```

## Opcodes

```
  0: 0x1B25 [0x20] SET_CLI_EVENT_UC_FLAG: Lock player control
  1: 0x1B27 [0x42] SET_CLI_EVENT_CANCEL_DATA()
  2: 0x1B28 [0x1E] EventEntity looks at LocalPlayer and starts talking
  3: 0x1B2D [0x6F] WAIT_FRAME_DELAY: Yield until WaitTime reaches zero
  4: 0x1B2E [0x70] WAIT_ENTITY_RENDER_FLAG: Wait while EventEntity->Render.Flags3 bit 2 is set (cancel turn if not)
  5: 0x1B2F [0x2B] Excenmille (ID: 17723601/0x010E70D1) [7927*]:
    → "A letter from a Federation Mercenary Captain? Hand it over!\u007F1\u0000\u0007"
  6: 0x1B36 [0x23] WAIT_FOR_DIALOG_INTERACTION
  7: 0x1B37 [0x2B] Excenmille (ID: 17723601/0x010E70D1) [7928*]:
    → ".........\u0007I am useless and I should have stayed in the Northlands to rot... Preposterous!\u007F1\u0000\u0007"
  8: 0x1B3E [0x23] WAIT_FOR_DIALOG_INTERACTION
  9: 0x1B3F [0x2B] Excenmille (ID: 17723601/0x010E70D1) [7929*]:
    → "You!\u0007Tell your mercenary commander that I accept her petty challenge! Her pathetic claws will not even dent my armor!\u007F1\u0000\u0007"
 10: 0x1B46 [0x23] WAIT_FOR_DIALOG_INTERACTION
 11: 0x1B47 [0x21] END_EVENT
 12: 0x1B48 [0x00] END_REQSTACK()
```
