# 0x7FFFFFF0 - Zone Events

## Common Data

| Field            | Value                  |
|------------------|------------------------|
| Zone             | Balga's Dais (ID: 146) |
| Block Size       | 11204 bytes            |
| Total Events     | 19                     |
| References Count | 285                    |

## List of Events

| Event ID                   | Entrypoint   |   Size |   Instructions |
|----------------------------|--------------|--------|----------------|
| [65535](#event-65535)      | 0x0000       |      1 |              1 |
| [65534](#event-65534)      | 0x0001       |      1 |              1 |
| [65535.1](#event-655351)   | 0x0002       |     14 |              4 |
| [32000](#event-32000)      | 0x0010       |   2116 |            412 |
| [32002](#event-32002)      | 0x0854       |    494 |             83 |
| [32001](#event-32001)      | 0x0A42       |   1033 |            179 |
| [32003](#event-32003)      | 0x0E4B       |    435 |             77 |
| [65535.2](#event-655352)   | 0x0FFE       |     10 |              2 |
| [65535.3](#event-655353)   | 0x1008       |     14 |              4 |
| [65535.4](#event-655354)   | 0x1016       |     10 |              2 |
| [65535.5](#event-655355)   | 0x1020       |      6 |              2 |
| [65535.6](#event-655356)   | 0x1026       |      6 |              2 |
| [65535.7](#event-655357)   | 0x102C       |      6 |              2 |
| [65535.8](#event-655358)   | 0x1032       |      6 |              2 |
| [65535.9](#event-655359)   | 0x1038       |      6 |              2 |
| [65535.10](#event-6553510) | 0x103E       |      7 |              3 |
| [65535.11](#event-6553511) | 0x1045       |      7 |              3 |
| [65535.12](#event-6553512) | 0x104C       |     24 |              4 |
| [65535.13](#event-6553513) | 0x1064       |   5774 |            743 |

## DAT References (imed_data)

|   Index | Hex Value   |   Dec Value |
|---------|-------------|-------------|
|       0 | 0x000F      |          15 |
|       1 | 0xFFFDE161  |  4294828385 |
|       2 | 0xFFFC86A6  |  4294739622 |
|       3 | 0xDD43      |       56643 |
|       4 | 0x0000      |           0 |
|       5 | 0x0010      |          16 |
|       6 | 0x001F      |          31 |
|       7 | 0xFFFFFFFF  |  4294967295 |
|       8 | 0x0001      |           1 |
|       9 | 0x1DB6      |        7606 |
|      10 | 0x1DA8      |        7592 |
|      11 | 0x0005      |           5 |
|      12 | 0x0002      |           2 |
|      13 | 0x0003      |           3 |
|      14 | 0x0004      |           4 |
|      15 | 0x1C3B      |        7227 |
|      16 | 0x00FF      |         255 |
|      17 | 0x00C8      |         200 |
|      18 | 0x0013      |          19 |
|      19 | 0x0008      |           8 |
|      20 | 0x0009      |           9 |
|      21 | 0x000B      |          11 |
|      22 | 0x1C46      |        7238 |
|      23 | 0x1C47      |        7239 |
|      24 | 0x1C48      |        7240 |
|      25 | 0x1C49      |        7241 |
|      26 | 0x1C6D      |        7277 |
|      27 | 0x0006      |           6 |
|      28 | 0x0007      |           7 |
|      29 | 0x000A      |          10 |
|      30 | 0x0012      |          18 |
|      31 | 0x000C      |          12 |
|      32 | 0x000D      |          13 |
|      33 | 0x000E      |          14 |
|      34 | 0x0011      |          17 |
|      35 | 0x0014      |          20 |
|      36 | 0x0015      |          21 |
|      37 | 0x0016      |          22 |
|      38 | 0x0017      |          23 |
|      39 | 0x0018      |          24 |
|      40 | 0x0019      |          25 |
|      41 | 0x001A      |          26 |
|      42 | 0x001B      |          27 |
|      43 | 0x001C      |          28 |
|      44 | 0x001D      |          29 |
|      45 | 0x001E      |          30 |
|      46 | 0x1DA2      |        7586 |
|      47 | 0x1DA7      |        7591 |
|      48 | 0x1DA6      |        7590 |
|      49 | 0x003C      |          60 |
|      50 | 0x1DB4      |        7604 |
|      51 | 0x1DB3      |        7603 |
|      52 | 0x0064      |         100 |
|      53 | 0x1D8E      |        7566 |
|      54 | 0x007D      |         125 |
|      55 | 0x1C3E      |        7230 |
|      56 | 0x00C9      |         201 |
|      57 | 0x2BE00     |      179712 |
|      58 | 0x5163E     |      333374 |
|      59 | 0x2EBC      |       11964 |
|      60 | 0x03C9      |         969 |
|      61 | 0x00B4      |         180 |
|      62 | 0xFFF6C42B  |  4294362155 |
|      63 | 0x752B9     |      479929 |
|      64 | 0xFFFFA767  |  4294944615 |
|      65 | 0x03E0      |         992 |
|      66 | 0xFFFBFE43  |  4294704707 |
|      67 | 0x5C401     |      377857 |
|      68 | 0xFFFDE79F  |  4294829983 |
|      69 | 0x0D92      |        3474 |
|      70 | 0x47AC      |       18348 |
|      71 | 0x76E1C     |      486940 |
|      72 | 0xFFFC93B2  |  4294742962 |
|      73 | 0x00C2      |         194 |
|      74 | 0x388A9     |      231593 |
|      75 | 0x57E9E     |      360094 |
|      76 | 0xFFFD59FC  |  4294793724 |
|      77 | 0x0726      |        1830 |
|      78 | 0x872C0     |      553664 |
|      79 | 0x7FEA3     |      523939 |
|      80 | 0xFFFF6AC3  |  4294929091 |
|      81 | 0x0A65      |        2661 |
|      82 | 0x4943C     |      300092 |
|      83 | 0x5748C     |      357516 |
|      84 | 0xFFFE1BC3  |  4294843331 |
|      85 | 0x0C18      |        3096 |
|      86 | 0xFFF2A593  |  4294092179 |
|      87 | 0xFFFF548C  |  4294923404 |
|      88 | 0xFFFF442C  |  4294919212 |
|      89 | 0x0201      |         513 |
|      90 | 0xFFF478D5  |  4294211797 |
|      91 | 0x89AEB     |      563947 |
|      92 | 0xFFFE4A5D  |  4294855261 |
|      93 | 0x0DEF      |        3567 |
|      94 | 0x1E173     |      123251 |
|      95 | 0xB8221     |      754209 |
|      96 | 0xFFFD5FA4  |  4294795172 |
|      97 | 0x01B8      |         440 |
|      98 | 0xFFF81ECC  |  4294450892 |
|      99 | 0xFFF3BE05  |  4294163973 |
|     100 | 0x5E8E      |       24206 |
|     101 | 0x01B5      |         437 |
|     102 | 0x012C      |         300 |
|     103 | 0x0080      |         128 |
|     104 | 0xFFF690A7  |  4294348967 |
|     105 | 0xFFF62CE4  |  4294323428 |
|     106 | 0xFFFF9B33  |  4294941491 |
|     107 | 0x0EB1      |        3761 |
|     108 | 0xFFFAEE7D  |  4294635133 |
|     109 | 0xFFF941C6  |  4294525382 |
|     110 | 0xFFFE8CB1  |  4294872241 |
|     111 | 0x0EB0      |        3760 |
|     112 | 0xFFFFCF50  |  4294954832 |
|     113 | 0xFFF61B47  |  4294318919 |
|     114 | 0xFFFD07BB  |  4294772667 |
|     115 | 0x0EBA      |        3770 |
|     116 | 0x4EF35     |      323381 |
|     117 | 0xFFF93A6F  |  4294523503 |
|     118 | 0xFFFE5868  |  4294858856 |
|     119 | 0x0EA0      |        3744 |
|     120 | 0x92763     |      599907 |
|     121 | 0xFFF5AB97  |  4294290327 |
|     122 | 0xFFFFA837  |  4294944823 |
|     123 | 0x0EB3      |        3763 |
|     124 | 0xFFFB6FBB  |  4294668219 |
|     125 | 0xFFFAD397  |  4294628247 |
|     126 | 0x1C6D1     |      116433 |
|     127 | 0x00A8      |         168 |
|     128 | 0x30D7B     |      200059 |
|     129 | 0xFFFFAA3A  |  4294945338 |
|     130 | 0xFFFFFF06  |  4294967046 |
|     131 | 0x0411      |        1041 |
|     132 | 0x00CA      |         202 |
|     133 | 0x837EC     |      538604 |
|     134 | 0x7A88C     |      501900 |
|     135 | 0xFFFFC98A  |  4294953354 |
|     136 | 0x0CBC      |        3260 |
|     137 | 0x00CB      |         203 |
|     138 | 0x870F5     |      553205 |
|     139 | 0x8FF41     |      589633 |
|     140 | 0xFFFFFFEB  |  4294967275 |
|     141 | 0x0587      |        1415 |
|     142 | 0x00D3      |         211 |
|     143 | 0x8AF88     |      569224 |
|     144 | 0x85E6E     |      548462 |
|     145 | 0x8FE5      |       36837 |
|     146 | 0x02A1      |         673 |
|     147 | 0x0024      |          36 |
|     148 | 0x1D90      |        7568 |
|     149 | 0x1D8F      |        7567 |
|     150 | 0x1DB2      |        7602 |
|     151 | 0x1D92      |        7570 |
|     152 | 0x1D91      |        7569 |
|     153 | 0x5208      |       21000 |
|     154 | 0x307A      |       12410 |
|     155 | 0xFFFFF6DC  |  4294964956 |
|     156 | 0xFFFFED85  |  4294962565 |
|     157 | 0xFFFFECB8  |  4294962360 |
|     158 | 0xFFFF75B8  |  4294931896 |
|     159 | 0xFFFFF0B1  |  4294963377 |
|     160 | 0x0400      |        1024 |
|     161 | 0x0046      |          70 |
|     162 | 0x008C      |         140 |
|     163 | 0x00D2      |         210 |
|     164 | 0x0174      |         372 |
|     165 | 0x018E      |         398 |
|     166 | 0x0199      |         409 |
|     167 | 0x002E      |          46 |
|     168 | 0x48FB9     |      298937 |
|     169 | 0x546BB     |      345787 |
|     170 | 0xFFFE1DBD  |  4294843837 |
|     171 | 0x0406      |        1030 |
|     172 | 0x48F65     |      298853 |
|     173 | 0x5374B     |      341835 |
|     174 | 0xFFFE1B24  |  4294843172 |
|     175 | 0x1DBD      |        7613 |
|     176 | 0x1DBE      |        7614 |
|     177 | 0x1DC2      |        7618 |
|     178 | 0x1DC3      |        7619 |
|     179 | 0x1DBF      |        7615 |
|     180 | 0x1DC0      |        7616 |
|     181 | 0x1DC1      |        7617 |
|     182 | 0x1DC4      |        7620 |
|     183 | 0x1DC5      |        7621 |
|     184 | 0x1DC6      |        7622 |
|     185 | 0x004B      |          75 |
|     186 | 0x1DC7      |        7623 |
|     187 | 0x1DC8      |        7624 |
|     188 | 0x007A      |         122 |
|     189 | 0x002D      |          45 |
|     190 | 0x0401      |        1025 |
|     191 | 0x00A0      |         160 |
|     192 | 0xFFFDE03C  |  4294828092 |
|     193 | 0xFFFDDADF  |  4294826719 |
|     194 | 0xDA4D      |       55885 |
|     195 | 0x043A      |        1082 |
|     196 | 0x5223      |       21027 |
|     197 | 0xE7D3      |       59347 |
|     198 | 0xFFFFEFEE  |  4294963182 |
|     199 | 0x03A1      |         929 |
|     200 | 0x2C277     |      180855 |
|     201 | 0x3F55E     |      259422 |
|     202 | 0xFFFF058E  |  4294903182 |
|     203 | 0x03AC      |         940 |
|     204 | 0x2C329     |      181033 |
|     205 | 0x2C0C8     |      180424 |
|     206 | 0xFFFF0884  |  4294903940 |
|     207 | 0x0434      |        1076 |
|     208 | 0x2C2B4     |      180916 |
|     209 | 0x2B005     |      176133 |
|     210 | 0xFFFF081E  |  4294903838 |
|     211 | 0x022B      |         555 |
|     212 | 0x1E01      |        7681 |
|     213 | 0x0075      |         117 |
|     214 | 0x007E      |         126 |
|     215 | 0x1E02      |        7682 |
|     216 | 0x0032      |          50 |
|     217 | 0x009D      |         157 |
|     218 | 0x005F      |          95 |
|     219 | 0x0060      |          96 |
|     220 | 0xFFFDDFDC  |  4294827996 |
|     221 | 0xFFFC7FCD  |  4294737869 |
|     222 | 0xDCC7      |       56519 |
|     223 | 0x0355      |         853 |
|     224 | 0x1DC9      |        7625 |
|     225 | 0x1DCA      |        7626 |
|     226 | 0x1DCB      |        7627 |
|     227 | 0x1DCC      |        7628 |
|     228 | 0x1DCD      |        7629 |
|     229 | 0x1DCE      |        7630 |
|     230 | 0x1DCF      |        7631 |
|     231 | 0x1DD0      |        7632 |
|     232 | 0x1DD1      |        7633 |
|     233 | 0x1DD2      |        7634 |
|     234 | 0x1DD3      |        7635 |
|     235 | 0x1DD4      |        7636 |
|     236 | 0x1DD5      |        7637 |
|     237 | 0x1DD6      |        7638 |
|     238 | 0xFFFDD92E  |  4294826286 |
|     239 | 0xFFFC9B7F  |  4294744959 |
|     240 | 0x0C91      |        3217 |
|     241 | 0x1DD7      |        7639 |
|     242 | 0x1DD8      |        7640 |
|     243 | 0xFFFB6FBC  |  4294668220 |
|     244 | 0xFFFAD398  |  4294628248 |
|     245 | 0x1C6D0     |      116432 |
|     246 | 0x00C7      |         199 |
|     247 | 0x0078      |         120 |
|     248 | 0x2C275     |      180853 |
|     249 | 0x2DCB9     |      187577 |
|     250 | 0xFFFF0500  |  4294903040 |
|     251 | 0x2BA80     |      178816 |
|     252 | 0x2DF29     |      188201 |
|     253 | 0xFFFF0524  |  4294903076 |
|     254 | 0x0031      |          49 |
|     255 | 0x0062      |          98 |
|     256 | 0x0023      |          35 |
|     257 | 0x005A      |          90 |
|     258 | 0x0804      |        2052 |
|     259 | 0x1E03      |        7683 |
|     260 | 0x1E04      |        7684 |
|     261 | 0x1E05      |        7685 |
|     262 | 0x1E06      |        7686 |
|     263 | 0x0020      |          32 |
|     264 | 0x1E07      |        7687 |
|     265 | 0x1E08      |        7688 |
|     266 | 0x0805      |        2053 |
|     267 | 0x1E09      |        7689 |
|     268 | 0x0050      |          80 |
|     269 | 0x1E0A      |        7690 |
|     270 | 0x1E0B      |        7691 |
|     271 | 0x1E0C      |        7692 |
|     272 | 0x1E0D      |        7693 |
|     273 | 0x1E0E      |        7694 |
|     274 | 0x1C3C      |        7228 |
|     275 | 0x0C3A      |        3130 |
|     276 | 0x0065      |         101 |
|     277 | 0x0068      |         104 |
|     278 | 0x006B      |         107 |
|     279 | 0x007F      |         127 |
|     280 | 0x0067      |         103 |
|     281 | 0x006A      |         106 |
|     282 | 0x006D      |         109 |
|     283 | 0x0077      |         119 |
|     284 | 0x0081      |         129 |

## String References

- **7227**: Enter the battlefield? [Enter./Decline.]
- **7228**: Leave the battlefield? [Run away./Stay.]
- **7230**: You cannot enter the battlefield at present. Please wait a little longer.
- **7238**: You are cleared to enter the battlefield, but you cannot while party members are engaged in combat.
- **7239**: You are cleared to enter the battlefield, but you cannot while party members are engaged in combat.
- **7240**: You are cleared to enter the battlefield, but you cannot while party members are engaged in combat.
- **7241**: You are cleared to enter the battlefield, but you cannot while party members are engaged in combat.
- **7277**: You do not meet the requirements to enter the battlefield. Access is denied.
- **7566**: Skip the event? [Yes./No.]
- **7567**: Battlefield clear time: $3 second[/s]!
- **7568**: Battlefield clear time: $3 minute[/s], $2 second[/s]!
- **7569**: The current battlefield clear time record is $3 second[/s].
- **7570**: The current battlefield clear time record is $3 minute[/s] $2 second[/s].
- **7586**: Only $3 [member/members] have clearance to enter the battlefield. This room has reached its maximum capacity.
- **7590**: That record is held by $5 adventurers, including %0!
- **7591**: That record is held by %0!
- **7592**: Select difficulty. [Very difficult. (Level: ???)/Difficult. (Level: ???)/Normal. (Level: $18)/Easy. (Level: $17)/Very Easy. (Level: $16)/Leave.]
- **7602**: You have broken the clear time record for "[The Rank 2 Final Mission/Steamed Sprouts/Divine Punishers/Saintly Invitation/Treasure and Tribulations/Shattering Stars (MNK)/Shattering Stars (WHM)/Shattering Stars (SMN)/Creeping Doom/Charming Trio/Harem Scarem/Early Bird Catches the Wyrm/Royal Succession/Rapid Raptors/Wild Wild Whiskers/Seasons Greetings/Royale Ramble/Moa Constrictors/The V Formation/Avian Apostates/Beyond Infinity/$26Steamed Sprouts/$26Divine Punishers/A Feast Most Dire/A.M.A.N. Trove (Mars)/A.M.A.N. Trove (Venus)/Inv. from Kupipi/Inv. from Kupipi and Co.]"!
- **7603**: The current battlefield clear time record for "[The Rank 2 Final Mission/Steamed Sprouts/Divine Punishers/Saintly Invitation/Treasure and Tribulations/Shattering Stars (MNK)/Shattering Stars (WHM)/Shattering Stars (SMN)/Creeping Doom/Charming Trio/Harem Scarem/Early Bird Catches the Wyrm/Royal Succession/Rapid Raptors/Wild Wild Whiskers/Seasons Greetings/Royale Ramble/Moa Constrictors/The V Formation/Avian Apostates/Beyond Infinity/$26Steamed Sprouts/$26Divine Punishers/A Feast Most Dire/A.M.A.N. Trove (Mars)/A.M.A.N. Trove (Venus)/Inv. from Kupipi/Inv. from Kupipi and Co.]" is $3 second[/s].
- **7604**: The current battlefield clear time record for "[The Rank 2 Final Mission/Steamed Sprouts/Divine Punishers/Saintly Invitation/Treasure and Tribulations/Shattering Stars (MNK)/Shattering Stars (WHM)/Shattering Stars (SMN)/Creeping Doom/Charming Trio/Harem Scarem/Early Bird Catches the Wyrm/Royal Succession/Rapid Raptors/Wild Wild Whiskers/Seasons Greetings/Royale Ramble/Moa Constrictors/The V Formation/Avian Apostates/Beyond Infinity/$26Steamed Sprouts/$26Divine Punishers/A Feast Most Dire/A.M.A.N. Trove (Mars)/A.M.A.N. Trove (Venus)/Inv. from Kupipi/Inv. from Kupipi and Co.]" is $3 minute[/s] $2 second[/s].
- **7606**: Which battlefield will you enter? [None./The Rank 2 Final Mission./Steamed Sprouts./Divine Punishers./Saintly Invitation./Treasure and Tribulations./Shattering Stars (MNK)./Shattering Stars (WHM)./Shattering Stars (SMN)./Creeping Doom./Charming Trio./Harem Scarem./Early Bird Catches the Wyrm./Royal Succession./Rapid Raptors./Wild Wild Whiskers./Seasons Greetings./Royale Ramble./Moa Constrictors./The V Formation./Avian Apostates./Beyond Infinity./$26Steamed Sprouts/$26Divine Punishers/A Feast Most Dire./A.M.A.N. Trove (Mars)./A.M.A.N. Trove (Venus)./Inv. from Kupipi./Inv. from Kupipi and Co./././././]
- **7683**: The $3 dematerializes before your eyes!

## Events

### Event 65535

#### Metadata

| Field        | Value   |
|--------------|---------|
| Entrypoint   | 0x0000  |
| Data Size    | 1 bytes |
| Instructions | 1       |

```
      00 01 02 03 04 05 06 07  08 09 0A 0B 0C 0D 0E 0F
      -- -- -- -- -- -- -- --  -- -- -- -- -- -- -- --
0000: 00                                                .               
```

#### Opcodes

```
  0: 0x0000 [0x00] END_REQSTACK()
```

### Event 65534

#### Metadata

| Field        | Value   |
|--------------|---------|
| Entrypoint   | 0x0001  |
| Data Size    | 1 bytes |
| Instructions | 1       |

```
      00 01 02 03 04 05 06 07  08 09 0A 0B 0C 0D 0E 0F
      -- -- -- -- -- -- -- --  -- -- -- -- -- -- -- --
0000:    00                                              .              
```

#### Opcodes

```
  0: 0x0001 [0x00] END_REQSTACK()
```

### Event 65535.1

#### Metadata

| Field        | Value    |
|--------------|----------|
| Entrypoint   | 0x0002   |
| Data Size    | 14 bytes |
| Instructions | 4        |

```
      00 01 02 03 04 05 06 07  08 09 0A 0B 0C 0D 0E 0F
      -- -- -- -- -- -- -- --  -- -- -- -- -- -- -- --
0000:       32 00 80 1F 00 01  80 02 80 03 80 1F 01 00    2.............
```

#### Opcodes

```
  0: 0x0002 [0x32] ExtData[1]->MainSpeed = 15* * 0.1
  1: 0x0005 [0x1F] MOVE_ENTITY: EventEntity moves to X=-138.911*, Z=-227.674*, Y=56.643*
  2: 0x000D [0x1F] MOVE_ENTITY: Update entity position (mode=1)
  3: 0x000F [0x00] END_REQSTACK()
```

### Event 32000

#### Metadata

| Field        | Value      |
|--------------|------------|
| Entrypoint   | 0x0010     |
| Data Size    | 2116 bytes |
| Instructions | 279        |

```
      00 01 02 03 04 05 06 07  08 09 0A 0B 0C 0D 0E 0F
      -- -- -- -- -- -- -- --  -- -- -- -- -- -- -- --
0010: 20 01 79 00 F0 FF FF 7F  F0 FF FF 7F 03 02 00 02   .y.............
0020: 10 03 03 00 03 10 03 05  00 04 10 03 06 00 05 10  ................
0030: 03 0F 00 06 10 03 10 00  07 10 03 11 00 08 10 41  ...............A
0040: 04 80 00 80 09 10 07 00  41 05 80 06 80 09 10 06  ........A.......
0050: 10 06 01 00 02 07 00 04  80 00 53 01 03 08 00 07  ..........S.....
0060: 80 0F 08 00 06 00 10 08  00 08 80 24 09 80 04 80  ...........$....
0070: 08 00 25 02 00 10 04 80  00 81 00 01 39 08 01 53  ..%.........9..S
0080: 01 03 03 00 00 10 0C 03  00 06 16 00 06 13 00 3E  ...............>
0090: 0F 00 03 00 2F 01 06 0F  00 06 08 00 3E 11 00 03  ..../.......>...
00A0: 00 A6 00 01 AD 00 3C 08  00 04 80 08 80 3E 10 00  ......<......>..
00B0: 03 00 B7 00 01 BE 00 3C  08 00 08 80 08 80 1A 1B  .......<........
00C0: 25 24 0A 80 0B 80 08 00  25 02 00 10 04 80 00 D9  %$......%.......
00D0: 00 03 0F 00 08 80 01 2C  01 02 00 10 08 80 00 E9  .......,........
00E0: 00 03 0F 00 0C 80 01 2C  01 02 00 10 0C 80 00 F9  .......,........
00F0: 00 03 0F 00 0D 80 01 2C  01 02 00 10 0D 80 00 09  .......,........
0100: 01 03 0F 00 0E 80 01 2C  01 02 00 10 0E 80 00 19  .......,........
0110: 01 03 0F 00 0B 80 01 2C  01 02 00 10 0B 80 00 27  .......,.......'
0120: 01 01 39 08 01 2C 01 03  0F 00 0D 80 01 53 01 06  ..9..,.......S..
0130: 0F 00 1A 53 08 02 16 00  08 80 00 53 01 24 0F 80  ...S.......S.$..
0140: 08 80 04 80 25 02 00 10  08 80 00 53 01 01 39 08  ....%......S..9.
0150: 01 53 01 42 03 01 10 10  80 43 00 43 01 06 01 10  .S.B.....C.C....
0160: 45 11 80 F0 FF FF 7F F0  FF FF 7F 66 64 6F 31 04  E..........fdo1.
0170: 80 55 11 80 F0 FF FF 7F  F0 FF FF 7F 66 64 6F 31  .U..........fdo1
0180: 3B F0 FF FF 7F 20 10 21  10 22 10 38 12 80 02 07  ;.... .!.".8....
0190: 00 08 80 00 AD 01 03 00  00 08 80 03 04 00 03 00  ................
01A0: 03 02 00 04 80 03 1C 00  04 80 01 6D 05 03 00 00  ...........m....
01B0: 08 80 02 00 00 0D 80 05  02 08 02 04 80 08 80 00  ................
01C0: C7 01 03 00 00 05 00 40  04 80 0D 80 01 10 00 00  .......@........
01D0: 40 0E 80 13 80 01 10 03  00 40 14 80 15 80 01 10  @........@......
01E0: 0F 00 06 02 10 06 03 10  06 04 10 1A 75 26 47 00  ............u&G.
01F0: 09 00 0A 00 0B 00 0C 00  47 01 03 04 00 03 10 03  ........G.......
0200: 02 00 04 10 03 1A 00 05  10 03 0D 00 06 10 03 0E  ................
0210: 00 07 10 03 1C 00 09 10  02 02 10 08 80 80 23 02  ..............#.
0220: 01 EF 07 02 02 10 0E 80  80 6D 02 02 00 00 08 80  .........m......
0230: 80 3A 02 48 16 80 23 01  67 02 02 00 00 0C 80 80  .:.H..#.g.......
0240: 49 02 48 17 80 23 01 67  02 02 00 00 0D 80 80 58  I.H..#.g.......X
0250: 02 48 18 80 23 01 67 02  02 00 00 0E 80 80 67 02  .H..#.g.......g.
0260: 48 19 80 23 01 67 02 01  06 08 01 EF 07 02 02 10  H..#.g..........
0270: 0B 80 80 7F 02 48 1A 80  23 01 06 08 01 EF 07 02  .....H..#.......
0280: 02 10 1B 80 80 81 04 02  04 00 04 80 80 97 02 03  ................
0290: 05 10 1B 80 01 77 04 02  04 00 08 80 80 A7 02 03  .....w..........
02A0: 05 10 1B 80 01 77 04 02  04 00 0C 80 80 B7 02 03  .....w..........
02B0: 05 10 1B 80 01 77 04 02  04 00 0D 80 80 C7 02 03  .....w..........
02C0: 05 10 1B 80 01 77 04 02  04 00 0E 80 80 D7 02 03  .....w..........
02D0: 05 10 1B 80 01 77 04 02  04 00 0B 80 80 E7 02 03  .....w..........
02E0: 05 10 08 80 01 77 04 02  04 00 1B 80 80 F7 02 03  .....w..........
02F0: 05 10 08 80 01 77 04 02  04 00 1C 80 80 07 03 03  .....w..........
0300: 05 10 08 80 01 77 04 02  04 00 13 80 80 17 03 03  .....w..........
0310: 05 10 0D 80 01 77 04 02  04 00 14 80 80 27 03 03  .....w.......'..
0320: 05 10 0D 80 01 77 04 02  04 00 1D 80 80 37 03 03  .....w.......7..
0330: 05 10 1B 80 01 77 04 02  04 00 15 80 80 47 03 03  .....w.......G..
0340: 05 10 1E 80 01 77 04 02  04 00 1F 80 80 57 03 03  .....w.......W..
0350: 05 10 0D 80 01 77 04 02  04 00 20 80 80 67 03 03  .....w.... ..g..
0360: 05 10 0D 80 01 77 04 02  04 00 21 80 80 77 03 03  .....w....!..w..
0370: 05 10 0D 80 01 77 04 02  04 00 00 80 80 87 03 03  .....w..........
0380: 05 10 1B 80 01 77 04 02  04 00 05 80 80 97 03 03  .....w..........
0390: 05 10 1B 80 01 77 04 02  04 00 22 80 80 A7 03 03  .....w....".....
03A0: 05 10 1B 80 01 77 04 02  04 00 1E 80 80 B7 03 03  .....w..........
03B0: 05 10 0D 80 01 77 04 02  04 00 12 80 80 C7 03 03  .....w..........
03C0: 05 10 1B 80 01 77 04 02  04 00 23 80 80 D7 03 03  .....w....#.....
03D0: 05 10 1B 80 01 77 04 02  04 00 24 80 80 E7 03 03  .....w....$.....
03E0: 05 10 1B 80 01 77 04 02  04 00 25 80 80 F7 03 03  .....w....%.....
03F0: 05 10 1B 80 01 77 04 02  04 00 26 80 80 07 04 03  .....w....&.....
0400: 05 10 1B 80 01 77 04 02  04 00 27 80 80 17 04 03  .....w....'.....
0410: 05 10 1B 80 01 77 04 02  04 00 28 80 80 27 04 03  .....w....(..'..
0420: 05 10 1B 80 01 77 04 02  04 00 29 80 80 37 04 03  .....w....)..7..
0430: 05 10 1B 80 01 77 04 02  04 00 2A 80 80 47 04 03  .....w....*..G..
0440: 05 10 1B 80 01 77 04 02  04 00 2B 80 80 57 04 03  .....w....+..W..
0450: 05 10 04 80 01 77 04 02  04 00 2C 80 80 67 04 03  .....w....,..g..
0460: 05 10 04 80 01 77 04 02  04 00 2D 80 80 77 04 03  .....w....-..w..
0470: 05 10 04 80 01 77 04 48  2E 80 23 01 06 08 01 EF  .....w.H..#.....
0480: 07 02 02 10 0D 80 80 8F  04 01 AD 01 01 EF 07 02  ................
0490: 02 10 0C 80 80 EF 07 02  0D 00 04 80 01 23 05 02  .............#..
04A0: 13 00 04 80 01 D7 04 03  05 10 1A 00 02 1A 00 04  ................
04B0: 80 02 B4 04 02 0D 00 08  80 05 C3 04 48 2F 80 23  ............H/.#
04C0: 01 D4 04 03 06 10 0D 00  0C 06 10 03 07 10 0D 00  ................
04D0: 48 30 80 23 01 23 05 03  05 10 1A 00 02 1A 00 04  H0.#.#..........
04E0: 80 02 03 05 02 1A 00 31  80 04 FF 04 3F 04 10 05  .......1....?...
04F0: 10 31 80 15 05 10 31 80  48 32 80 23 01 03 05 48  .1....1.H2.#...H
0500: 33 80 23 02 0D 00 08 80  05 12 05 48 2F 80 23 01  3.#........H/.#.
0510: 23 05 03 06 10 0D 00 0C  06 10 03 07 10 0D 00 48  #..............H
0520: 30 80 23 03 03 00 04 00  03 14 00 34 80 07 14 00  0.#........4....
0530: 03 00 02 02 00 14 00 00  42 05 03 02 00 08 80 01  ........B.......
0540: 47 05 03 02 00 04 80 02  02 00 04 80 00 6D 05 02  G............m..
0550: 0E 00 08 80 00 6D 05 24  35 80 08 80 04 80 25 02  .....m.$5.....%.
0560: 00 10 04 80 00 6D 05 05  02 00 01 6D 05 06 15 00  .....m.....m....
0570: 02 04 00 04 80 80 80 05  03 15 00 04 80 01 65 07  ..............e.
0580: 02 04 00 08 80 80 90 05  03 15 00 04 80 01 65 07  ..............e.
0590: 02 04 00 0C 80 80 A0 05  03 15 00 04 80 01 65 07  ..............e.
05A0: 02 04 00 0D 80 80 B0 05  03 15 00 04 80 01 65 07  ..............e.
05B0: 02 04 00 0E 80 80 C0 05  03 15 00 04 80 01 65 07  ..............e.
05C0: 02 04 00 0B 80 80 D0 05  03 15 00 04 80 01 65 07  ..............e.
05D0: 02 04 00 1B 80 80 E0 05  03 15 00 04 80 01 65 07  ..............e.
05E0: 02 04 00 1C 80 80 F0 05  03 15 00 04 80 01 65 07  ..............e.
05F0: 02 04 00 13 80 80 00 06  03 15 00 04 80 01 65 07  ..............e.
0600: 02 04 00 14 80 80 10 06  03 15 00 04 80 01 65 07  ..............e.
0610: 02 04 00 1D 80 80 20 06  03 15 00 04 80 01 65 07  ...... .......e.
0620: 02 04 00 15 80 80 30 06  03 15 00 04 80 01 65 07  ......0.......e.
0630: 02 04 00 1F 80 80 40 06  03 15 00 04 80 01 65 07  ......@.......e.
0640: 02 04 00 20 80 80 50 06  03 15 00 04 80 01 65 07  ... ..P.......e.
0650: 02 04 00 21 80 80 60 06  03 15 00 04 80 01 65 07  ...!..`.......e.
0660: 02 04 00 00 80 80 70 06  03 15 00 04 80 01 65 07  ......p.......e.
0670: 02 04 00 05 80 80 80 06  03 15 00 04 80 01 65 07  ..............e.
0680: 02 04 00 22 80 80 90 06  03 15 00 04 80 01 65 07  ..."..........e.
0690: 02 04 00 1E 80 80 A0 06  03 15 00 04 80 01 65 07  ..............e.
06A0: 02 04 00 12 80 80 B0 06  03 15 00 04 80 01 65 07  ..............e.
06B0: 02 04 00 23 80 80 C0 06  03 15 00 04 80 01 65 07  ...#..........e.
06C0: 02 04 00 24 80 80 D0 06  03 15 00 04 80 01 65 07  ...$..........e.
06D0: 02 04 00 25 80 80 E0 06  03 15 00 04 80 01 65 07  ...%..........e.
06E0: 02 04 00 26 80 80 F0 06  03 15 00 04 80 01 65 07  ...&..........e.
06F0: 02 04 00 27 80 80 00 07  03 15 00 04 80 01 65 07  ...'..........e.
0700: 02 04 00 28 80 80 10 07  03 15 00 04 80 01 65 07  ...(..........e.
0710: 02 04 00 29 80 80 20 07  03 15 00 04 80 01 65 07  ...).. .......e.
0720: 02 04 00 2A 80 80 30 07  03 15 00 04 80 01 65 07  ...*..0.......e.
0730: 02 04 00 2B 80 80 40 07  03 15 00 04 80 01 65 07  ...+..@.......e.
0740: 02 04 00 2C 80 80 50 07  03 15 00 04 80 01 65 07  ...,..P.......e.
0750: 02 04 00 2D 80 80 60 07  03 15 00 04 80 01 65 07  ...-..`.......e.
0760: 03 15 00 04 80 02 02 00  08 80 00 80 07 5C 00 36  .............\.6
0770: 80 5C 01 36 80 5C 02 36  80 5C 03 36 80 01 98 07  .\.6.\.6.\.6....
0780: 02 15 00 04 80 00 98 07  5C 00 36 80 5C 01 36 80  ........\.6.\.6.
0790: 5C 02 36 80 5C 03 36 80  02 02 00 04 80 00 A6 07  \.6.\.6.........
07A0: 1A 27 11 01 DF 07 6C F0  FF FF 7F 04 80 08 80 62  .'....l........b
07B0: 0C 80 F0 FF FF 7F F0 FF  FF 7F 6D 61 69 6E 04 80  ..........main..
07C0: 45 11 80 F0 FF FF 7F F0  FF FF 7F 6F 76 6C 31 04  E..........ovl1.
07D0: 80 46 02 12 00 02 12 00  04 80 00 DF 07 46 00 03  .F...........F..
07E0: 01 10 34 80 07 01 10 03  00 01 06 08 01 EF 07 0B  ..4.............
07F0: 00 00 02 04 80 08 80 00  FF 07 03 00 00 0E 80 01  ................
0800: B2 01 48 37 80 23 45 38  80 F0 FF FF 7F F0 FF FF  ..H7.#E8........
0810: 7F 77 68 69 31 04 80 45  11 80 F0 FF FF 7F F0 FF  .whi1..E........
0820: FF 7F 62 6C 6F 66 04 80  45 11 80 F0 FF FF 7F F0  ..blof..E.......
0830: FF FF 7F 66 64 69 30 04  80 02 07 00 08 80 00 51  ...fdi0........Q
0840: 08 5C 00 04 80 5C 01 04  80 5C 02 36 80 5C 03 36  .\...\...\.6.\.6
0850: 80 21 00 1B                                       .!..            
```

#### Opcodes

```
  0: 0x0010 [0x20] SET_CLI_EVENT_UC_FLAG: Lock player control
  1: 0x0012 [0x79] LocalPlayer looks at LocalPlayer (Basic look)
  2: 0x001C [0x03] ExtData[1]->WorkLocal[2] = Work_Zone[2]
  3: 0x0021 [0x03] ExtData[1]->WorkLocal[3] = Work_Zone[3]
  4: 0x0026 [0x03] ExtData[1]->WorkLocal[5] = Work_Zone[4]
  5: 0x002B [0x03] ExtData[1]->WorkLocal[6] = Work_Zone[5]
  6: 0x0030 [0x03] ExtData[1]->WorkLocal[15] = Work_Zone[6]
  7: 0x0035 [0x03] ExtData[1]->WorkLocal[16] = Work_Zone[7]
  8: 0x003A [0x03] ExtData[1]->WorkLocal[17] = Work_Zone[8]
  9: 0x003F [0x41] ExtData[1]->WorkLocal[7] = Work_Zone[9] (bits 0*-15*)
 10: 0x0048 [0x41] Work_Zone[6] = Work_Zone[9] (bits 16*-31*)
 11: 0x0051 [0x06] ExtData[1]->WorkLocal[1] = 0
 12: 0x0054 [0x02] IF !(ExtData[1]->WorkLocal[7] == 0*) GOTO 0x0153
 13: 0x005C [0x03] ExtData[1]->WorkLocal[8] = 4294967295*
 14: 0x0061 [0x0F] ExtData[1]->WorkLocal[8] ^= ExtData[1]->WorkLocal[6]
 15: 0x0066 [0x10] ExtData[1]->WorkLocal[8] <<= 1*
 16: 0x006B [0x24] CREATE_DIALOG(message_id=7606*, default_option=0*, option_flags=ExtData[1]->WorkLocal[8])
    → "Which battlefield will you enter? [None./The Rank 2 Final Mission./Steamed Sprouts./Divine Punishers./Saintly Invitation./Treasure and Tribulations./Shattering Stars (MNK)./Shattering Stars (WHM)./Shattering Stars (SMN)./Creeping Doom./Charming Trio./Harem Scarem./Early Bird Catches the Wyrm./Royal Succession./Rapid Raptors./Wild Wild Whiskers./Seasons Greetings./Royale Ramble./Moa Constrictors./The V Formation./Avian Apostates./Beyond Infinity./$26Steamed Sprouts/$26Divine Punishers/A Feast Most Dire./A.M.A.N. Trove (Mars)./A.M.A.N. Trove (Venus)./Inv. from Kupipi./Inv. from Kupipi and Co./././././]"
 17: 0x0072 [0x25] WAIT_DIALOG_SELECT()
 18: 0x0073 [0x02] IF !(Work_Zone[0] == 0*) GOTO 0x0081
 19: 0x007B [0x01] GOTO 0x0839

SUBROUTINE_00AD:
 20: 0x00AD [0x3E] IF !(ExtData[1]->WorkLocal[16] bit ExtData[1]->WorkLocal[3]) GOTO 0x00B7
 21: 0x00B4 [0x01] GOTO 0x00BE
 22: 0x00B7 [0x3C] SET_BIT_FLAG_CONDITIONAL(target_work_offset=ExtData[1]->WorkLocal[8], bit_index_work_offset=1*, condition_work_offset=1*)

SUBROUTINE_00BE:
 23: 0x00BE [0x1A] CALL_SUBROUTINE(address=0x251B)
 24: 0x00C1 [0x24] CREATE_DIALOG(message_id=7592*, default_option=5*, option_flags=ExtData[1]->WorkLocal[8])
    → "Select difficulty. [Very difficult. (Level: ???)/Difficult. (Level: ???)/Normal. (Level: $18)/Easy. (Level: $17)/Very Easy. (Level: $16)/Leave.]"
 25: 0x00C8 [0x25] WAIT_DIALOG_SELECT()
 26: 0x00C9 [0x02] IF !(Work_Zone[0] == 0*) GOTO 0x00D9
 27: 0x00D1 [0x03] ExtData[1]->WorkLocal[15] = 1*
 28: 0x00D6 [0x01] GOTO 0x012C
 29: 0x00D9 [0x02] IF !(Work_Zone[0] == 1*) GOTO 0x00E9
 30: 0x00E1 [0x03] ExtData[1]->WorkLocal[15] = 2*
 31: 0x00E6 [0x01] GOTO 0x012C
 32: 0x00E9 [0x02] IF !(Work_Zone[0] == 2*) GOTO 0x00F9
 33: 0x00F1 [0x03] ExtData[1]->WorkLocal[15] = 3*
 34: 0x00F6 [0x01] GOTO 0x012C
 35: 0x00F9 [0x02] IF !(Work_Zone[0] == 3*) GOTO 0x0109
 36: 0x0101 [0x03] ExtData[1]->WorkLocal[15] = 4*
 37: 0x0106 [0x01] GOTO 0x012C
 38: 0x0109 [0x02] IF !(Work_Zone[0] == 4*) GOTO 0x0119
 39: 0x0111 [0x03] ExtData[1]->WorkLocal[15] = 5*
 40: 0x0116 [0x01] GOTO 0x012C
 41: 0x0119 [0x02] IF !(Work_Zone[0] == 5*) GOTO 0x0127
 42: 0x0121 [0x01] GOTO 0x0839

SUBROUTINE_012C:
 43: 0x012C [0x01] GOTO 0x0153
 44: 0x012F [0x06] ExtData[1]->WorkLocal[15] = 0
 45: 0x0132 [0x1A] CALL_SUBROUTINE(address=0x0853)
 46: 0x0135 [0x02] IF !(ExtData[1]->WorkLocal[22] == 1*) GOTO 0x0153
 47: 0x013D [0x24] CREATE_DIALOG(message_id=7227*, default_option=1*, option_flags=0*)
    → "Enter the battlefield? [Enter./Decline.]"
 48: 0x0144 [0x25] WAIT_DIALOG_SELECT()
 49: 0x0145 [0x02] IF !(Work_Zone[0] == 1*) GOTO 0x0153
 50: 0x014D [0x01] GOTO 0x0839

SUBROUTINE_0153:
 51: 0x0153 [0x42] SET_CLI_EVENT_CANCEL_DATA()
 52: 0x0154 [0x03] Work_Zone[1] = 255*
 53: 0x0159 [0x43] SEND_EVENT_UPDATE: Send pending tag to server (packet 0x005B)
 54: 0x015B [0x43] SEND_EVENT_UPDATE: Check pending flag (skip if not pending)
 55: 0x015D [0x06] Work_Zone[1] = 0
 56: 0x0160 [0x45] LOAD_SCHEDULED_TASK: Load scheduler "fdo1" with entities [LocalPlayer, LocalPlayer], work=[200*, 0*]
 57: 0x0171 [0x55] WAIT_LOAD_SCHEDULER: Wait for scheduler "fdo1" with entities [LocalPlayer, LocalPlayer], work=200*
 58: 0x0180 [0x3B] GET_ENTITY_POSITION(entity=LocalPlayer, x_destination=Work_Zone[32], y_destination=Work_Zone[33], z_destination=Work_Zone[34])
 59: 0x018B [0x38] SET_CLIENT_EVENT_MODE(mode=19*)
 60: 0x018E [0x02] IF !(ExtData[1]->WorkLocal[7] == 1*) GOTO 0x01AD
 61: 0x0196 [0x03] ExtData[1]->WorkLocal[0] = 1*
 62: 0x019B [0x03] ExtData[1]->WorkLocal[4] = ExtData[1]->WorkLocal[3]
 63: 0x01A0 [0x03] ExtData[1]->WorkLocal[2] = 0*
 64: 0x01A5 [0x03] ExtData[1]->WorkLocal[28] = 0*
 65: 0x01AA [0x01] GOTO 0x056D

SUBROUTINE_01AD:
 66: 0x01AD [0x03] ExtData[1]->WorkLocal[0] = 1*

SUBROUTINE_01B2:
 67: 0x01B2 [0x02] IF !(ExtData[1]->WorkLocal[0] > 3*) GOTO 0x0802
 68: 0x01BA [0x02] IF !(0* == 1*) GOTO 0x01C7
 69: 0x01C2 [0x03] ExtData[1]->WorkLocal[0] = ExtData[1]->WorkLocal[5]
 70: 0x01C7 [0x40] SET_BIT_WORK_RANGE(start_bit=0*, end_bit=3*, target=Work_Zone[1], source=ExtData[1]->WorkLocal[0])
 71: 0x01D0 [0x40] SET_BIT_WORK_RANGE(start_bit=4*, end_bit=8*, target=Work_Zone[1], source=ExtData[1]->WorkLocal[3])
 72: 0x01D9 [0x40] SET_BIT_WORK_RANGE(start_bit=9*, end_bit=11*, target=Work_Zone[1], source=ExtData[1]->WorkLocal[15])
 73: 0x01E2 [0x06] Work_Zone[2] = 0
 74: 0x01E5 [0x06] Work_Zone[3] = 0
 75: 0x01E8 [0x06] Work_Zone[4] = 0
 76: 0x01EB [0x1A] CALL_SUBROUTINE(address=0x2675)
 77: 0x01EE [0x47] UPDATE_PLAYER_POS(ExtData[1]->WorkLocal[9], ExtData[1]->WorkLocal[10], ExtData[1]->WorkLocal[11], yaw=ExtData[1]->WorkLocal[12])
 78: 0x01F8 [0x47] WAIT_PLAYER_POS_UPDATE
 79: 0x01FA [0x03] ExtData[1]->WorkLocal[4] = Work_Zone[3]
 80: 0x01FF [0x03] ExtData[1]->WorkLocal[2] = Work_Zone[4]
 81: 0x0204 [0x03] ExtData[1]->WorkLocal[26] = Work_Zone[5]
 82: 0x0209 [0x03] ExtData[1]->WorkLocal[13] = Work_Zone[6]
 83: 0x020E [0x03] ExtData[1]->WorkLocal[14] = Work_Zone[7]
 84: 0x0213 [0x03] ExtData[1]->WorkLocal[28] = Work_Zone[9]
 85: 0x0218 [0x02] IF !(Work_Zone[2] == 1*) GOTO 0x0223
 86: 0x0220 [0x01] GOTO 0x07EF
 87: 0x0223 [0x02] IF !(Work_Zone[2] == 4*) GOTO 0x026D
 88: 0x022B [0x02] IF !(ExtData[1]->WorkLocal[0] == 1*) GOTO 0x023A
 89: 0x0233 [0x48] [System] [7238*]:
    → "You are cleared to enter the battlefield, but you cannot while party members are engaged in combat."
 90: 0x0236 [0x23] WAIT_FOR_DIALOG_INTERACTION
 91: 0x0237 [0x01] GOTO 0x0267
 92: 0x023A [0x02] IF !(ExtData[1]->WorkLocal[0] == 2*) GOTO 0x0249
 93: 0x0242 [0x48] [System] [7239*]:
    → "You are cleared to enter the battlefield, but you cannot while party members are engaged in combat."
 94: 0x0245 [0x23] WAIT_FOR_DIALOG_INTERACTION
 95: 0x0246 [0x01] GOTO 0x0267
 96: 0x0249 [0x02] IF !(ExtData[1]->WorkLocal[0] == 3*) GOTO 0x0258
 97: 0x0251 [0x48] [System] [7240*]:
    → "You are cleared to enter the battlefield, but you cannot while party members are engaged in combat."
 98: 0x0254 [0x23] WAIT_FOR_DIALOG_INTERACTION
 99: 0x0255 [0x01] GOTO 0x0267
100: 0x0258 [0x02] IF !(ExtData[1]->WorkLocal[0] == 4*) GOTO 0x0267
101: 0x0260 [0x48] [System] [7241*]:
    → "You are cleared to enter the battlefield, but you cannot while party members are engaged in combat."
102: 0x0263 [0x23] WAIT_FOR_DIALOG_INTERACTION
103: 0x0264 [0x01] GOTO 0x0267

SUBROUTINE_0267:
104: 0x0267 [0x01] GOTO 0x0806

SUBROUTINE_0477:
105: 0x0477 [0x48] [System] [7586*]:
    → "Only $3 [member/members] have clearance to enter the battlefield. This room has reached its maximum capacity."
106: 0x047A [0x23] WAIT_FOR_DIALOG_INTERACTION
107: 0x047B [0x01] GOTO 0x0806

SUBROUTINE_04D4:
108: 0x04D4 [0x01] GOTO 0x0523
109: 0x04D7 [0x03] Work_Zone[5] = ExtData[1]->WorkLocal[26]
110: 0x04DC [0x02] IF !(ExtData[1]->WorkLocal[26] <= 0*) GOTO 0x0503
111: 0x04E4 [0x02] IF !(ExtData[1]->WorkLocal[26] < 60*) GOTO 0x04FF
112: 0x04EC [0x3F] Work_Zone[4] = Work_Zone[5] % 60*
113: 0x04F3 [0x15] Work_Zone[5] /= 60*
114: 0x04F8 [0x48] [System] [7604*]:
    → "The current battlefield clear time record for "[The Rank 2 Final Mission/Steamed Sprouts/Divine Punishers/Saintly Invitation/Treasure and Tribulations/Shattering Stars (MNK)/Shattering Stars (WHM)/Shattering Stars (SMN)/Creeping Doom/Charming Trio/Harem Scarem/Early Bird Catches the Wyrm/Royal Succession/Rapid Raptors/Wild Wild Whiskers/Seasons Greetings/Royale Ramble/Moa Constrictors/The V Formation/Avian Apostates/Beyond Infinity/$26Steamed Sprouts/$26Divine Punishers/A Feast Most Dire/A.M.A.N. Trove (Mars)/A.M.A.N. Trove (Venus)/Inv. from Kupipi/Inv. from Kupipi and Co.]" is $3 minute[/s] $2 second[/s]."
115: 0x04FB [0x23] WAIT_FOR_DIALOG_INTERACTION
116: 0x04FC [0x01] GOTO 0x0503
117: 0x04FF [0x48] [System] [7603*]:
    → "The current battlefield clear time record for "[The Rank 2 Final Mission/Steamed Sprouts/Divine Punishers/Saintly Invitation/Treasure and Tribulations/Shattering Stars (MNK)/Shattering Stars (WHM)/Shattering Stars (SMN)/Creeping Doom/Charming Trio/Harem Scarem/Early Bird Catches the Wyrm/Royal Succession/Rapid Raptors/Wild Wild Whiskers/Seasons Greetings/Royale Ramble/Moa Constrictors/The V Formation/Avian Apostates/Beyond Infinity/$26Steamed Sprouts/$26Divine Punishers/A Feast Most Dire/A.M.A.N. Trove (Mars)/A.M.A.N. Trove (Venus)/Inv. from Kupipi/Inv. from Kupipi and Co.]" is $3 second[/s]."
118: 0x0502 [0x23] WAIT_FOR_DIALOG_INTERACTION

SUBROUTINE_0503:
119: 0x0503 [0x02] IF !(ExtData[1]->WorkLocal[13] > 1*) GOTO 0x0512
120: 0x050B [0x48] [System] [7591*]:
    → "That record is held by %0!"
121: 0x050E [0x23] WAIT_FOR_DIALOG_INTERACTION
122: 0x050F [0x01] GOTO 0x0523
123: 0x0512 [0x03] Work_Zone[6] = ExtData[1]->WorkLocal[13]
124: 0x0517 [0x0C] Work_Zone[6]--
125: 0x051A [0x03] Work_Zone[7] = ExtData[1]->WorkLocal[13]
126: 0x051F [0x48] [System] [7590*]:
    → "That record is held by $5 adventurers, including %0!"
127: 0x0522 [0x23] WAIT_FOR_DIALOG_INTERACTION

SUBROUTINE_0523:
128: 0x0523 [0x03] ExtData[1]->WorkLocal[3] = ExtData[1]->WorkLocal[4]
129: 0x0528 [0x03] ExtData[1]->WorkLocal[20] = 100*
130: 0x052D [0x07] ExtData[1]->WorkLocal[20] += ExtData[1]->WorkLocal[3]
131: 0x0532 [0x02] IF !(ExtData[1]->WorkLocal[2] == ExtData[1]->WorkLocal[20]) GOTO 0x0542
132: 0x053A [0x03] ExtData[1]->WorkLocal[2] = 1*
133: 0x053F [0x01] GOTO 0x0547
134: 0x0542 [0x03] ExtData[1]->WorkLocal[2] = 0*

SUBROUTINE_0547:
135: 0x0547 [0x02] IF !(ExtData[1]->WorkLocal[2] == 0*) GOTO 0x056D
136: 0x054F [0x02] IF !(ExtData[1]->WorkLocal[14] == 1*) GOTO 0x056D
137: 0x0557 [0x24] CREATE_DIALOG(message_id=7566*, default_option=1*, option_flags=0*)
    → "Skip the event? [Yes./No.]"
138: 0x055E [0x25] WAIT_DIALOG_SELECT()
139: 0x055F [0x02] IF !(Work_Zone[0] == 0*) GOTO 0x056D
140: 0x0567 [0x05] ExtData[1]->WorkLocal[2] = 1
141: 0x056A [0x01] GOTO 0x056D

SUBROUTINE_056D:
142: 0x056D [0x06] ExtData[1]->WorkLocal[21] = 0
143: 0x0570 [0x02] IF !(ExtData[1]->WorkLocal[4] == 0*) GOTO 0x0580
144: 0x0578 [0x03] ExtData[1]->WorkLocal[21] = 0*
145: 0x057D [0x01] GOTO 0x0765
146: 0x0580 [0x02] IF !(ExtData[1]->WorkLocal[4] == 1*) GOTO 0x0590
147: 0x0588 [0x03] ExtData[1]->WorkLocal[21] = 0*
148: 0x058D [0x01] GOTO 0x0765
149: 0x0590 [0x02] IF !(ExtData[1]->WorkLocal[4] == 2*) GOTO 0x05A0
150: 0x0598 [0x03] ExtData[1]->WorkLocal[21] = 0*
151: 0x059D [0x01] GOTO 0x0765
152: 0x05A0 [0x02] IF !(ExtData[1]->WorkLocal[4] == 3*) GOTO 0x05B0
153: 0x05A8 [0x03] ExtData[1]->WorkLocal[21] = 0*
154: 0x05AD [0x01] GOTO 0x0765
155: 0x05B0 [0x02] IF !(ExtData[1]->WorkLocal[4] == 4*) GOTO 0x05C0
156: 0x05B8 [0x03] ExtData[1]->WorkLocal[21] = 0*
157: 0x05BD [0x01] GOTO 0x0765
158: 0x05C0 [0x02] IF !(ExtData[1]->WorkLocal[4] == 5*) GOTO 0x05D0
159: 0x05C8 [0x03] ExtData[1]->WorkLocal[21] = 0*
160: 0x05CD [0x01] GOTO 0x0765
161: 0x05D0 [0x02] IF !(ExtData[1]->WorkLocal[4] == 6*) GOTO 0x05E0
162: 0x05D8 [0x03] ExtData[1]->WorkLocal[21] = 0*
163: 0x05DD [0x01] GOTO 0x0765
164: 0x05E0 [0x02] IF !(ExtData[1]->WorkLocal[4] == 7*) GOTO 0x05F0
165: 0x05E8 [0x03] ExtData[1]->WorkLocal[21] = 0*
166: 0x05ED [0x01] GOTO 0x0765
167: 0x05F0 [0x02] IF !(ExtData[1]->WorkLocal[4] == 8*) GOTO 0x0600
168: 0x05F8 [0x03] ExtData[1]->WorkLocal[21] = 0*
169: 0x05FD [0x01] GOTO 0x0765
170: 0x0600 [0x02] IF !(ExtData[1]->WorkLocal[4] == 9*) GOTO 0x0610
171: 0x0608 [0x03] ExtData[1]->WorkLocal[21] = 0*
172: 0x060D [0x01] GOTO 0x0765
173: 0x0610 [0x02] IF !(ExtData[1]->WorkLocal[4] == 10*) GOTO 0x0620
174: 0x0618 [0x03] ExtData[1]->WorkLocal[21] = 0*
175: 0x061D [0x01] GOTO 0x0765
176: 0x0620 [0x02] IF !(ExtData[1]->WorkLocal[4] == 11*) GOTO 0x0630
177: 0x0628 [0x03] ExtData[1]->WorkLocal[21] = 0*
178: 0x062D [0x01] GOTO 0x0765
179: 0x0630 [0x02] IF !(ExtData[1]->WorkLocal[4] == 12*) GOTO 0x0640
180: 0x0638 [0x03] ExtData[1]->WorkLocal[21] = 0*
181: 0x063D [0x01] GOTO 0x0765
182: 0x0640 [0x02] IF !(ExtData[1]->WorkLocal[4] == 13*) GOTO 0x0650
183: 0x0648 [0x03] ExtData[1]->WorkLocal[21] = 0*
184: 0x064D [0x01] GOTO 0x0765
185: 0x0650 [0x02] IF !(ExtData[1]->WorkLocal[4] == 14*) GOTO 0x0660
186: 0x0658 [0x03] ExtData[1]->WorkLocal[21] = 0*
187: 0x065D [0x01] GOTO 0x0765
188: 0x0660 [0x02] IF !(ExtData[1]->WorkLocal[4] == 15*) GOTO 0x0670
189: 0x0668 [0x03] ExtData[1]->WorkLocal[21] = 0*
190: 0x066D [0x01] GOTO 0x0765
191: 0x0670 [0x02] IF !(ExtData[1]->WorkLocal[4] == 16*) GOTO 0x0680
192: 0x0678 [0x03] ExtData[1]->WorkLocal[21] = 0*
193: 0x067D [0x01] GOTO 0x0765
194: 0x0680 [0x02] IF !(ExtData[1]->WorkLocal[4] == 17*) GOTO 0x0690
195: 0x0688 [0x03] ExtData[1]->WorkLocal[21] = 0*
196: 0x068D [0x01] GOTO 0x0765
197: 0x0690 [0x02] IF !(ExtData[1]->WorkLocal[4] == 18*) GOTO 0x06A0
198: 0x0698 [0x03] ExtData[1]->WorkLocal[21] = 0*
199: 0x069D [0x01] GOTO 0x0765
200: 0x06A0 [0x02] IF !(ExtData[1]->WorkLocal[4] == 19*) GOTO 0x06B0
201: 0x06A8 [0x03] ExtData[1]->WorkLocal[21] = 0*
202: 0x06AD [0x01] GOTO 0x0765
203: 0x06B0 [0x02] IF !(ExtData[1]->WorkLocal[4] == 20*) GOTO 0x06C0
204: 0x06B8 [0x03] ExtData[1]->WorkLocal[21] = 0*
205: 0x06BD [0x01] GOTO 0x0765
206: 0x06C0 [0x02] IF !(ExtData[1]->WorkLocal[4] == 21*) GOTO 0x06D0
207: 0x06C8 [0x03] ExtData[1]->WorkLocal[21] = 0*
208: 0x06CD [0x01] GOTO 0x0765
209: 0x06D0 [0x02] IF !(ExtData[1]->WorkLocal[4] == 22*) GOTO 0x06E0
210: 0x06D8 [0x03] ExtData[1]->WorkLocal[21] = 0*
211: 0x06DD [0x01] GOTO 0x0765
212: 0x06E0 [0x02] IF !(ExtData[1]->WorkLocal[4] == 23*) GOTO 0x06F0
213: 0x06E8 [0x03] ExtData[1]->WorkLocal[21] = 0*
214: 0x06ED [0x01] GOTO 0x0765
215: 0x06F0 [0x02] IF !(ExtData[1]->WorkLocal[4] == 24*) GOTO 0x0700
216: 0x06F8 [0x03] ExtData[1]->WorkLocal[21] = 0*
217: 0x06FD [0x01] GOTO 0x0765
218: 0x0700 [0x02] IF !(ExtData[1]->WorkLocal[4] == 25*) GOTO 0x0710
219: 0x0708 [0x03] ExtData[1]->WorkLocal[21] = 0*
220: 0x070D [0x01] GOTO 0x0765
221: 0x0710 [0x02] IF !(ExtData[1]->WorkLocal[4] == 26*) GOTO 0x0720
222: 0x0718 [0x03] ExtData[1]->WorkLocal[21] = 0*
223: 0x071D [0x01] GOTO 0x0765
224: 0x0720 [0x02] IF !(ExtData[1]->WorkLocal[4] == 27*) GOTO 0x0730
225: 0x0728 [0x03] ExtData[1]->WorkLocal[21] = 0*
226: 0x072D [0x01] GOTO 0x0765
227: 0x0730 [0x02] IF !(ExtData[1]->WorkLocal[4] == 28*) GOTO 0x0740
228: 0x0738 [0x03] ExtData[1]->WorkLocal[21] = 0*
229: 0x073D [0x01] GOTO 0x0765
230: 0x0740 [0x02] IF !(ExtData[1]->WorkLocal[4] == 29*) GOTO 0x0750
231: 0x0748 [0x03] ExtData[1]->WorkLocal[21] = 0*
232: 0x074D [0x01] GOTO 0x0765
233: 0x0750 [0x02] IF !(ExtData[1]->WorkLocal[4] == 30*) GOTO 0x0760
234: 0x0758 [0x03] ExtData[1]->WorkLocal[21] = 0*
235: 0x075D [0x01] GOTO 0x0765
236: 0x0760 [0x03] ExtData[1]->WorkLocal[21] = 0*

SUBROUTINE_0765:
237: 0x0765 [0x02] IF !(ExtData[1]->WorkLocal[2] == 1*) GOTO 0x0780
238: 0x076D [0x5C] MUSIC_CONTROL: Set Idle (Day) music to song 125*
239: 0x0771 [0x5C] MUSIC_CONTROL: Set Idle (Night) music to song 125*
240: 0x0775 [0x5C] MUSIC_CONTROL: Set Combat (Solo) music to song 125*
241: 0x0779 [0x5C] MUSIC_CONTROL: Set Combat (Party) music to song 125*
242: 0x077D [0x01] GOTO 0x0798
243: 0x0780 [0x02] IF !(ExtData[1]->WorkLocal[21] == 0*) GOTO 0x0798
244: 0x0788 [0x5C] MUSIC_CONTROL: Set Idle (Day) music to song 125*
245: 0x078C [0x5C] MUSIC_CONTROL: Set Idle (Night) music to song 125*
246: 0x0790 [0x5C] MUSIC_CONTROL: Set Combat (Solo) music to song 125*
247: 0x0794 [0x5C] MUSIC_CONTROL: Set Combat (Party) music to song 125*

SUBROUTINE_0798:
248: 0x0798 [0x02] IF !(ExtData[1]->WorkLocal[2] == 0*) GOTO 0x07A6
249: 0x07A0 [0x1A] CALL_SUBROUTINE(address=0x1127)
250: 0x07A3 [0x01] GOTO 0x07DF
251: 0x07A6 [0x6C] FADE_ENTITY_COLOR(entity_id=LocalPlayer, end_alpha=0*, fade_time=1*)
252: 0x07AF [0x62] LOAD_EVENT_SCHEDULER: Load scheduler "main" with entities [LocalPlayer, LocalPlayer], work=[2*, 0*]
253: 0x07C0 [0x45] LOAD_SCHEDULED_TASK: Load scheduler "ovl1" with entities [LocalPlayer, LocalPlayer], work=[200*, 0*]
254: 0x07D1 [0x46] CAMERA_CONTROL: Query status
255: 0x07D3 [0x12] 0x0200 = rand()
256: 0x07D6 [0x12] 0x0400 = rand()
257: 0x07D9 [0x80] LOAD_WAIT(entity=Unknown NPC (ID: 1174920960/0x4607DF00))
258: 0x07DE [0x00] END_REQSTACK()

SUBROUTINE_07DF:
259: 0x07DF [0x03] Work_Zone[1] = 100*
260: 0x07E4 [0x07] Work_Zone[1] += ExtData[1]->WorkLocal[3]
261: 0x07E9 [0x01] GOTO 0x0806

SUBROUTINE_07EF:
262: 0x07EF [0x0B] ExtData[1]->WorkLocal[0]++
263: 0x07F2 [0x02] IF !(0* == 1*) GOTO 0x07FF
264: 0x07FA [0x03] ExtData[1]->WorkLocal[0] = 4*
265: 0x07FF [0x01] GOTO 0x01B2
266: 0x0802 [0x48] [System] [7230*]:
    → "You cannot enter the battlefield at present. Please wait a little longer."
267: 0x0805 [0x23] WAIT_FOR_DIALOG_INTERACTION

SUBROUTINE_0806:
268: 0x0806 [0x45] LOAD_SCHEDULED_TASK: Load scheduler "whi1" with entities [LocalPlayer, LocalPlayer], work=[201*, 0*]
269: 0x0817 [0x45] LOAD_SCHEDULED_TASK: Load scheduler "blof" with entities [LocalPlayer, LocalPlayer], work=[200*, 0*]
270: 0x0828 [0x45] LOAD_SCHEDULED_TASK: Load scheduler "fdi0" with entities [LocalPlayer, LocalPlayer], work=[200*, 0*]

SUBROUTINE_0839:
271: 0x0839 [0x02] IF !(ExtData[1]->WorkLocal[7] == 1*) GOTO 0x0851
272: 0x0841 [0x5C] MUSIC_CONTROL: Set Idle (Day) music to song 0*
273: 0x0845 [0x5C] MUSIC_CONTROL: Set Idle (Night) music to song 0*
274: 0x0849 [0x5C] MUSIC_CONTROL: Set Combat (Solo) music to song 125*
275: 0x084D [0x5C] MUSIC_CONTROL: Set Combat (Party) music to song 125*
276: 0x0851 [0x21] END_EVENT
277: 0x0852 [0x00] END_REQSTACK()

SUBROUTINE_0853:
278: 0x0853 [0x1B] RETURN
```

#### Data or dead code:

```
# Dead code (unreachable instructions):
     0x007E [0x01] GOTO 0x0153
# Dead code (unreachable instructions):
     0x0124 [0x01] GOTO 0x012C
# Dead code (unreachable instructions):
     0x0150 [0x01] GOTO 0x0153
# Dead code (unreachable instructions):
     0x026A [0x01] GOTO 0x07EF
     0x027C [0x01] GOTO 0x07EF
# Dead code (unreachable instructions):
     0x047E [0x01] GOTO 0x07EF
     0x048C [0x01] GOTO 0x07EF
# Dead code (unreachable instructions):
     0x07EC [0x01] GOTO 0x07EF
```

### Event 32002

#### Metadata

| Field        | Value     |
|--------------|-----------|
| Entrypoint   | 0x0854    |
| Data Size    | 494 bytes |
| Instructions | 83        |

```
      00 01 02 03 04 05 06 07  08 09 0A 0B 0C 0D 0E 0F
      -- -- -- -- -- -- -- --  -- -- -- -- -- -- -- --
0850:             03 05 00 06  10 03 21 00 07 10 03 20      ......!.... 
0860: 00 08 10 20 01 42 3B F0  FF FF 7F 20 10 21 10 22  ... .B;.... .!."
0870: 10 3A F0 FF FF 7F 23 10  45 11 80 F0 FF FF 7F F0  .:....#.E.......
0880: FF FF 7F 66 64 6F 31 04  80 55 11 80 F0 FF FF 7F  ...fdo1..U......
0890: F0 FF FF 7F 66 64 6F 31  02 04 80 08 80 00 FF 08  ....fdo1........
08A0: 02 05 00 08 80 80 B7 08  47 00 39 80 3A 80 3B 80  ........G.9.:.;.
08B0: 3C 80 47 01 01 FC 08 02  05 00 0C 80 80 CE 08 47  <.G............G
08C0: 00 39 80 3A 80 3B 80 3C  80 47 01 01 FC 08 02 05  .9.:.;.<.G......
08D0: 00 0D 80 80 E5 08 47 00  39 80 3A 80 3B 80 3C 80  ......G.9.:.;.<.
08E0: 47 01 01 FC 08 02 05 00  0E 80 80 FC 08 47 00 39  G............G.9
08F0: 80 3A 80 3B 80 3C 80 47  01 01 FC 08 01 08 0A 02  .:.;.<.G........
0900: 20 00 3D 80 80 89 09 02  21 00 04 80 80 1E 09 47   .=.....!......G
0910: 00 3E 80 3F 80 40 80 41  80 47 01 01 86 09 02 21  .>.?.@.A.G.....!
0920: 00 08 80 80 35 09 47 00  42 80 43 80 44 80 45 80  ....5.G.B.C.D.E.
0930: 47 01 01 86 09 02 21 00  0C 80 80 4C 09 47 00 46  G.....!....L.G.F
0940: 80 47 80 48 80 49 80 47  01 01 86 09 02 21 00 0D  .G.H.I.G.....!..
0950: 80 80 63 09 47 00 4A 80  4B 80 4C 80 4D 80 47 01  ..c.G.J.K.L.M.G.
0960: 01 86 09 02 21 00 0E 80  80 7A 09 47 00 4E 80 4F  ....!....z.G.N.O
0970: 80 50 80 51 80 47 01 01  86 09 47 00 52 80 53 80  .P.Q.G....G.R.S.
0980: 54 80 55 80 47 01 01 08  0A 02 20 00 1B 80 80 FC  T.U.G..... .....
0990: 09 02 21 00 08 80 80 A8  09 47 00 56 80 57 80 58  ..!......G.V.W.X
09A0: 80 59 80 47 01 01 F9 09  02 21 00 0C 80 80 BF 09  .Y.G.....!......
09B0: 47 00 5A 80 5B 80 5C 80  5D 80 47 01 01 F9 09 02  G.Z.[.\.].G.....
09C0: 21 00 0D 80 80 D6 09 47  00 5E 80 5F 80 60 80 61  !......G.^._.`.a
09D0: 80 47 01 01 F9 09 02 21  00 0E 80 80 ED 09 47 00  .G.....!......G.
09E0: 62 80 63 80 64 80 65 80  47 01 01 F9 09 47 00 52  b.c.d.e.G....G.R
09F0: 80 53 80 54 80 55 80 47  01 01 08 0A 47 00 52 80  .S.T.U.G....G.R.
0A00: 53 80 54 80 55 80 47 01  38 12 80 1A DC 24 45 38  S.T.U.G.8....$E8
0A10: 80 F0 FF FF 7F F0 FF FF  7F 77 68 69 31 04 80 45  .........whi1..E
0A20: 11 80 F0 FF FF 7F F0 FF  FF 7F 62 6C 6F 66 04 80  ..........blof..
0A30: 5C 00 04 80 5C 01 04 80  5C 02 36 80 5C 03 36 80  \...\...\.6.\.6.
0A40: 21 00                                             !.              
```

#### Opcodes

```
  0: 0x0854 [0x03] ExtData[1]->WorkLocal[5] = Work_Zone[6]
  1: 0x0859 [0x03] ExtData[1]->WorkLocal[33] = Work_Zone[7]
  2: 0x085E [0x03] ExtData[1]->WorkLocal[32] = Work_Zone[8]
  3: 0x0863 [0x20] SET_CLI_EVENT_UC_FLAG: Lock player control
  4: 0x0865 [0x42] SET_CLI_EVENT_CANCEL_DATA()
  5: 0x0866 [0x3B] GET_ENTITY_POSITION(entity=LocalPlayer, x_destination=Work_Zone[32], y_destination=Work_Zone[33], z_destination=Work_Zone[34])
  6: 0x0871 [0x3A] CONVERT_YAW_TO_BYTE(entity=LocalPlayer, result_destination=Work_Zone[35])
  7: 0x0878 [0x45] LOAD_SCHEDULED_TASK: Load scheduler "fdo1" with entities [LocalPlayer, LocalPlayer], work=[200*, 0*]
  8: 0x0889 [0x55] WAIT_LOAD_SCHEDULER: Wait for scheduler "fdo1" with entities [LocalPlayer, LocalPlayer], work=200*
  9: 0x0898 [0x02] IF !(0* == 1*) GOTO 0x08FF
 10: 0x08A0 [0x02] IF !(ExtData[1]->WorkLocal[5] == 1*) GOTO 0x08B7
 11: 0x08A8 [0x47] UPDATE_PLAYER_POS(179.712*, 333.374*, 11.964*, yaw=85.2°*)
 12: 0x08B2 [0x47] WAIT_PLAYER_POS_UPDATE
 13: 0x08B4 [0x01] GOTO 0x08FC
 14: 0x08B7 [0x02] IF !(ExtData[1]->WorkLocal[5] == 2*) GOTO 0x08CE
 15: 0x08BF [0x47] UPDATE_PLAYER_POS(179.712*, 333.374*, 11.964*, yaw=85.2°*)
 16: 0x08C9 [0x47] WAIT_PLAYER_POS_UPDATE
 17: 0x08CB [0x01] GOTO 0x08FC
 18: 0x08CE [0x02] IF !(ExtData[1]->WorkLocal[5] == 3*) GOTO 0x08E5
 19: 0x08D6 [0x47] UPDATE_PLAYER_POS(179.712*, 333.374*, 11.964*, yaw=85.2°*)
 20: 0x08E0 [0x47] WAIT_PLAYER_POS_UPDATE
 21: 0x08E2 [0x01] GOTO 0x08FC
 22: 0x08E5 [0x02] IF !(ExtData[1]->WorkLocal[5] == 4*) GOTO 0x08FC
 23: 0x08ED [0x47] UPDATE_PLAYER_POS(179.712*, 333.374*, 11.964*, yaw=85.2°*)
 24: 0x08F7 [0x47] WAIT_PLAYER_POS_UPDATE
 25: 0x08F9 [0x01] GOTO 0x08FC

SUBROUTINE_08FC:
 26: 0x08FC [0x01] GOTO 0x0A08
 27: 0x08FF [0x02] IF !(ExtData[1]->WorkLocal[32] == 180*) GOTO 0x0989
 28: 0x0907 [0x02] IF !(ExtData[1]->WorkLocal[33] == 0*) GOTO 0x091E
 29: 0x090F [0x47] UPDATE_PLAYER_POS(-605.141*, 479.929*, -22.681*, yaw=87.2°*)
 30: 0x0919 [0x47] WAIT_PLAYER_POS_UPDATE
 31: 0x091B [0x01] GOTO 0x0986
 32: 0x091E [0x02] IF !(ExtData[1]->WorkLocal[33] == 1*) GOTO 0x0935
 33: 0x0926 [0x47] UPDATE_PLAYER_POS(-262.589*, 377.857*, -137.313*, yaw=305.3°*)
 34: 0x0930 [0x47] WAIT_PLAYER_POS_UPDATE
 35: 0x0932 [0x01] GOTO 0x0986
 36: 0x0935 [0x02] IF !(ExtData[1]->WorkLocal[33] == 2*) GOTO 0x094C
 37: 0x093D [0x47] UPDATE_PLAYER_POS(18.348*, 486.940*, -224.334*, yaw=17.1°*)
 38: 0x0947 [0x47] WAIT_PLAYER_POS_UPDATE
 39: 0x0949 [0x01] GOTO 0x0986
 40: 0x094C [0x02] IF !(ExtData[1]->WorkLocal[33] == 3*) GOTO 0x0963
 41: 0x0954 [0x47] UPDATE_PLAYER_POS(231.593*, 360.094*, -173.572*, yaw=160.8°*)
 42: 0x095E [0x47] WAIT_PLAYER_POS_UPDATE
 43: 0x0960 [0x01] GOTO 0x0986
 44: 0x0963 [0x02] IF !(ExtData[1]->WorkLocal[33] == 4*) GOTO 0x097A
 45: 0x096B [0x47] UPDATE_PLAYER_POS(553.664*, 523.939*, -38.205*, yaw=233.9°*)
 46: 0x0975 [0x47] WAIT_PLAYER_POS_UPDATE
 47: 0x0977 [0x01] GOTO 0x0986
 48: 0x097A [0x47] UPDATE_PLAYER_POS(300.092*, 357.516*, -123.965*, yaw=272.1°*)
 49: 0x0984 [0x47] WAIT_PLAYER_POS_UPDATE

SUBROUTINE_0986:
 50: 0x0986 [0x01] GOTO 0x0A08
 51: 0x0989 [0x02] IF !(ExtData[1]->WorkLocal[32] == 6*) GOTO 0x09FC
 52: 0x0991 [0x02] IF !(ExtData[1]->WorkLocal[33] == 1*) GOTO 0x09A8
 53: 0x0999 [0x47] UPDATE_PLAYER_POS(-875.117*, -43.892*, -48.084*, yaw=45.1°*)
 54: 0x09A3 [0x47] WAIT_PLAYER_POS_UPDATE
 55: 0x09A5 [0x01] GOTO 0x09F9
 56: 0x09A8 [0x02] IF !(ExtData[1]->WorkLocal[33] == 2*) GOTO 0x09BF
 57: 0x09B0 [0x47] UPDATE_PLAYER_POS(-755.499*, 563.947*, -112.035*, yaw=313.5°*)
 58: 0x09BA [0x47] WAIT_PLAYER_POS_UPDATE
 59: 0x09BC [0x01] GOTO 0x09F9
 60: 0x09BF [0x02] IF !(ExtData[1]->WorkLocal[33] == 3*) GOTO 0x09D6
 61: 0x09C7 [0x47] UPDATE_PLAYER_POS(123.251*, 754.209*, -172.124*, yaw=38.7°*)
 62: 0x09D1 [0x47] WAIT_PLAYER_POS_UPDATE
 63: 0x09D3 [0x01] GOTO 0x09F9
 64: 0x09D6 [0x02] IF !(ExtData[1]->WorkLocal[33] == 4*) GOTO 0x09ED
 65: 0x09DE [0x47] UPDATE_PLAYER_POS(-516.404*, -803.323*, 24.206*, yaw=38.4°*)
 66: 0x09E8 [0x47] WAIT_PLAYER_POS_UPDATE
 67: 0x09EA [0x01] GOTO 0x09F9
 68: 0x09ED [0x47] UPDATE_PLAYER_POS(300.092*, 357.516*, -123.965*, yaw=272.1°*)
 69: 0x09F7 [0x47] WAIT_PLAYER_POS_UPDATE

SUBROUTINE_09F9:
 70: 0x09F9 [0x01] GOTO 0x0A08
 71: 0x09FC [0x47] UPDATE_PLAYER_POS(300.092*, 357.516*, -123.965*, yaw=272.1°*)
 72: 0x0A06 [0x47] WAIT_PLAYER_POS_UPDATE

SUBROUTINE_0A08:
 73: 0x0A08 [0x38] SET_CLIENT_EVENT_MODE(mode=19*)
 74: 0x0A0B [0x1A] CALL_SUBROUTINE(address=0x24DC)
 75: 0x0A0E [0x45] LOAD_SCHEDULED_TASK: Load scheduler "whi1" with entities [LocalPlayer, LocalPlayer], work=[201*, 0*]
 76: 0x0A1F [0x45] LOAD_SCHEDULED_TASK: Load scheduler "blof" with entities [LocalPlayer, LocalPlayer], work=[200*, 0*]
 77: 0x0A30 [0x5C] MUSIC_CONTROL: Set Idle (Day) music to song 0*
 78: 0x0A34 [0x5C] MUSIC_CONTROL: Set Idle (Night) music to song 0*
 79: 0x0A38 [0x5C] MUSIC_CONTROL: Set Combat (Solo) music to song 125*
 80: 0x0A3C [0x5C] MUSIC_CONTROL: Set Combat (Party) music to song 125*
 81: 0x0A40 [0x21] END_EVENT
 82: 0x0A41 [0x00] END_REQSTACK()
```

### Event 32001

#### Metadata

| Field        | Value      |
|--------------|------------|
| Entrypoint   | 0x0A42     |
| Data Size    | 1033 bytes |
| Instructions | 177        |

```
      00 01 02 03 04 05 06 07  08 09 0A 0B 0C 0D 0E 0F
      -- -- -- -- -- -- -- --  -- -- -- -- -- -- -- --
0A40:       79 00 F0 FF FF 7F  F0 FF FF 7F 03 21 00 02    y..........!..
0A50: 10 03 1A 00 03 10 03 1B  00 05 10 03 20 00 06 10  ............ ...
0A60: 03 19 00 07 10 03 17 00  08 10 02 17 00 0D 80 04  ................
0A70: 77 0A 03 17 00 04 80 03  1C 00 09 10 20 01 42 3B  w........... .B;
0A80: F0 FF FF 7F 20 10 21 10  22 10 3A F0 FF FF 7F 23  .... .!.".:....#
0A90: 10 02 20 00 3D 80 01 9C  0A 1C 66 80 45 38 80 F0  .. .=.....f.E8..
0AA0: FF FF 7F F0 FF FF 7F 77  68 69 31 04 80 45 11 80  .......whi1..E..
0AB0: F0 FF FF 7F F0 FF FF 7F  62 6C 6F 66 04 80 45 11  ........blof..E.
0AC0: 80 F0 FF FF 7F F0 FF FF  7F 66 64 6F 31 04 80 55  .........fdo1..U
0AD0: 11 80 F0 FF FF 7F F0 FF  FF 7F 66 64 6F 31 6C F0  ..........fdo1l.
0AE0: FF FF 7F 67 80 08 80 06  01 10 02 17 00 04 80 03  ...g............
0AF0: F5 0A 01 43 0C 02 20 00  3D 80 80 7F 0B 02 21 00  ...C.. .=.....!.
0B00: 04 80 80 14 0B 47 00 68  80 69 80 6A 80 6B 80 47  .....G.h.i.j.k.G
0B10: 01 01 7C 0B 02 21 00 08  80 80 2B 0B 47 00 6C 80  ..|..!....+.G.l.
0B20: 6D 80 6E 80 6F 80 47 01  01 7C 0B 02 21 00 0C 80  m.n.o.G..|..!...
0B30: 80 42 0B 47 00 70 80 71  80 72 80 73 80 47 01 01  .B.G.p.q.r.s.G..
0B40: 7C 0B 02 21 00 0D 80 80  59 0B 47 00 74 80 75 80  |..!....Y.G.t.u.
0B50: 76 80 77 80 47 01 01 7C  0B 02 21 00 0E 80 80 70  v.w.G..|..!....p
0B60: 0B 47 00 78 80 79 80 7A  80 7B 80 47 01 01 7C 0B  .G.x.y.z.{.G..|.
0B70: 47 00 7C 80 7D 80 7E 80  29 80 47 01 01 43 0C 02  G.|.}.~.).G..C..
0B80: 20 00 7F 80 80 AD 0B 02  19 00 04 80 80 9E 0B 47   ..............G
0B90: 00 7C 80 7D 80 7E 80 29  80 47 01 01 AA 0B 47 00  .|.}.~.).G....G.
0BA0: 80 80 81 80 82 80 83 80  47 01 01 43 0C 02 20 00  ........G..C.. .
0BB0: 84 80 80 DB 0B 02 19 00  0E 80 80 CC 0B 47 00 85  .............G..
0BC0: 80 86 80 87 80 88 80 47  01 01 D8 0B 47 00 7C 80  .......G....G.|.
0BD0: 7D 80 7E 80 29 80 47 01  01 43 0C 02 20 00 89 80  }.~.).G..C.. ...
0BE0: 80 09 0C 02 19 00 0E 80  80 FA 0B 47 00 8A 80 8B  ...........G....
0BF0: 80 8C 80 8D 80 47 01 01  06 0C 47 00 7C 80 7D 80  .....G....G.|.}.
0C00: 7E 80 29 80 47 01 01 43  0C 02 20 00 8E 80 80 37  ~.).G..C.. ....7
0C10: 0C 02 19 00 0D 80 80 28  0C 47 00 8F 80 90 80 91  .......(.G......
0C20: 80 92 80 47 01 01 34 0C  47 00 7C 80 7D 80 7E 80  ...G..4.G.|.}.~.
0C30: 29 80 47 01 01 43 0C 47  00 7C 80 7D 80 7E 80 29  ).G..C.G.|.}.~.)
0C40: 80 47 01 38 12 80 02 17  00 0C 80 00 51 0C 01 6C  .G.8........Q..l
0C50: 0C 02 17 00 08 80 00 1C  0D 1C 00 80 24 35 80 08  ............$5..
0C60: 80 04 80 25 02 00 10 04  80 00 1C 0D 02 20 00 3D  ...%......... .=
0C70: 80 00 D8 0C 02 21 00 04  80 80 86 0C 36 68 80 69  .....!......6h.i
0C80: 80 6A 80 01 D5 0C 02 21  00 08 80 80 98 0C 36 6C  .j.....!......6l
0C90: 80 6D 80 6E 80 01 D5 0C  02 21 00 0C 80 80 AA 0C  .m.n.....!......
0CA0: 36 70 80 71 80 72 80 01  D5 0C 02 21 00 0D 80 80  6p.q.r.....!....
0CB0: BC 0C 36 74 80 75 80 76  80 01 D5 0C 02 21 00 0E  ..6t.u.v.....!..
0CC0: 80 80 CE 0C 36 78 80 79  80 7A 80 01 D5 0C 36 7C  ....6x.y.z....6|
0CD0: 80 7D 80 7E 80 01 E1 0C  37 7C 80 7D 80 7E 80 29  .}.~....7|.}.~.)
0CE0: 80 80 F0 FF FF 7F 62 0C  80 F0 FF FF 7F F0 FF FF  ......b.........
0CF0: 7F 6D 61 69 6E 04 80 45  11 80 F0 FF FF 7F F0 FF  .main..E........
0D00: FF 7F 66 64 69 32 04 80  46 02 12 00 02 12 00 04  ..fdi2..F.......
0D10: 80 00 16 0D 46 00 01 43  0D 01 1C 0D 02 17 00 07  ....F..C........
0D20: 80 04 35 0D 5C 00 36 80  5C 01 36 80 5C 02 36 80  ..5.\.6.\.6.\.6.
0D30: 5C 03 36 80 9A 1A 75 1B  02 17 00 04 80 03 43 0D  \.6...u.......C.
0D40: 01 E3 0D 02 20 00 93 80  80 4E 0D 01 4E 0D 02 20  .... ....N..N.. 
0D50: 00 22 80 80 59 0D 01 E3  0D 02 20 00 12 80 80 64  ."..Y..... ....d
0D60: 0D 01 E3 0D 02 20 00 24  80 80 6F 0D 01 E3 0D 02  ..... .$..o.....
0D70: 20 00 26 80 80 7A 0D 01  E3 0D 03 05 10 1B 00 02   .&..z..........
0D80: 05 10 04 80 02 E3 0D 02  05 10 31 80 04 A2 0D 3F  ..........1....?
0D90: 04 10 05 10 31 80 15 05  10 31 80 48 94 80 23 01  ....1....1.H..#.
0DA0: A6 0D 48 95 80 23 02 1B  00 1A 00 05 BA 0D 03 07  ..H..#..........
0DB0: 10 19 00 48 96 80 23 01  E3 0D 02 1A 00 31 80 04  ...H..#......1..
0DC0: DA 0D 03 05 10 1A 00 3F  04 10 05 10 31 80 15 05  .......?....1...
0DD0: 10 31 80 48 97 80 23 01  E3 0D 03 05 10 1A 00 48  .1.H..#........H
0DE0: 98 80 23 02 18 00 04 80  00 FB 0D 5C 00 04 80 5C  ..#........\...\
0DF0: 01 04 80 5C 02 36 80 5C  03 36 80 02 17 00 04 80  ...\.6.\.6......
0E00: 03 24 0E 45 11 80 F0 FF  FF 7F F0 FF FF 7F 66 64  .$.E..........fd
0E10: 69 32 04 80 5C 00 04 80  5C 01 04 80 5C 02 36 80  i2..\...\...\.6.
0E20: 5C 03 36 80 06 18 00 45  38 80 F0 FF FF 7F F0 FF  \.6....E8.......
0E30: FF 7F 77 68 69 31 04 80  45 11 80 F0 FF FF 7F F0  ..whi1..E.......
0E40: FF FF 7F 62 6C 6F 66 04  80 21 00                 ...blof..!.     
```

#### Opcodes

```
  0: 0x0A42 [0x79] LocalPlayer looks at LocalPlayer (Basic look)
  1: 0x0A4C [0x03] ExtData[1]->WorkLocal[33] = Work_Zone[2]
  2: 0x0A51 [0x03] ExtData[1]->WorkLocal[26] = Work_Zone[3]
  3: 0x0A56 [0x03] ExtData[1]->WorkLocal[27] = Work_Zone[5]
  4: 0x0A5B [0x03] ExtData[1]->WorkLocal[32] = Work_Zone[6]
  5: 0x0A60 [0x03] ExtData[1]->WorkLocal[25] = Work_Zone[7]
  6: 0x0A65 [0x03] ExtData[1]->WorkLocal[23] = Work_Zone[8]
  7: 0x0A6A [0x02] IF !(ExtData[1]->WorkLocal[23] < 3*) GOTO 0x0A77
  8: 0x0A72 [0x03] ExtData[1]->WorkLocal[23] = 0*
  9: 0x0A77 [0x03] ExtData[1]->WorkLocal[28] = Work_Zone[9]
 10: 0x0A7C [0x20] SET_CLI_EVENT_UC_FLAG: Lock player control
 11: 0x0A7E [0x42] SET_CLI_EVENT_CANCEL_DATA()
 12: 0x0A7F [0x3B] GET_ENTITY_POSITION(entity=LocalPlayer, x_destination=Work_Zone[32], y_destination=Work_Zone[33], z_destination=Work_Zone[34])
 13: 0x0A8A [0x3A] CONVERT_YAW_TO_BYTE(entity=LocalPlayer, result_destination=Work_Zone[35])
 14: 0x0A91 [0x02] IF !(ExtData[1]->WorkLocal[32] == 180*) GOTO 0x0A9C
 15: 0x0A99 [0x1C] WAIT(300* ticks)
 16: 0x0A9C [0x45] LOAD_SCHEDULED_TASK: Load scheduler "whi1" with entities [LocalPlayer, LocalPlayer], work=[201*, 0*]
 17: 0x0AAD [0x45] LOAD_SCHEDULED_TASK: Load scheduler "blof" with entities [LocalPlayer, LocalPlayer], work=[200*, 0*]
 18: 0x0ABE [0x45] LOAD_SCHEDULED_TASK: Load scheduler "fdo1" with entities [LocalPlayer, LocalPlayer], work=[200*, 0*]
 19: 0x0ACF [0x55] WAIT_LOAD_SCHEDULER: Wait for scheduler "fdo1" with entities [LocalPlayer, LocalPlayer], work=200*
 20: 0x0ADE [0x6C] FADE_ENTITY_COLOR(entity_id=LocalPlayer, end_alpha=128*, fade_time=1*)
 21: 0x0AE7 [0x06] Work_Zone[1] = 0
 22: 0x0AEA [0x02] IF !(ExtData[1]->WorkLocal[23] >= 0*) GOTO 0x0AF5
 23: 0x0AF2 [0x01] GOTO 0x0C43
 24: 0x0AF5 [0x02] IF !(ExtData[1]->WorkLocal[32] == 180*) GOTO 0x0B7F
 25: 0x0AFD [0x02] IF !(ExtData[1]->WorkLocal[33] == 0*) GOTO 0x0B14
 26: 0x0B05 [0x47] UPDATE_PLAYER_POS(-618.329*, -643.868*, -25.805*, yaw=330.5°*)
 27: 0x0B0F [0x47] WAIT_PLAYER_POS_UPDATE
 28: 0x0B11 [0x01] GOTO 0x0B7C
 29: 0x0B14 [0x02] IF !(ExtData[1]->WorkLocal[33] == 1*) GOTO 0x0B2B
 30: 0x0B1C [0x47] UPDATE_PLAYER_POS(-332.163*, -441.914*, -95.055*, yaw=330.5°*)
 31: 0x0B26 [0x47] WAIT_PLAYER_POS_UPDATE
 32: 0x0B28 [0x01] GOTO 0x0B7C
 33: 0x0B2B [0x02] IF !(ExtData[1]->WorkLocal[33] == 2*) GOTO 0x0B42
 34: 0x0B33 [0x47] UPDATE_PLAYER_POS(-12.464*, -648.377*, -194.629*, yaw=331.3°*)
 35: 0x0B3D [0x47] WAIT_PLAYER_POS_UPDATE
 36: 0x0B3F [0x01] GOTO 0x0B7C
 37: 0x0B42 [0x02] IF !(ExtData[1]->WorkLocal[33] == 3*) GOTO 0x0B59
 38: 0x0B4A [0x47] UPDATE_PLAYER_POS(323.381*, -443.793*, -108.440*, yaw=329.1°*)
 39: 0x0B54 [0x47] WAIT_PLAYER_POS_UPDATE
 40: 0x0B56 [0x01] GOTO 0x0B7C
 41: 0x0B59 [0x02] IF !(ExtData[1]->WorkLocal[33] == 4*) GOTO 0x0B70
 42: 0x0B61 [0x47] UPDATE_PLAYER_POS(599.907*, -676.969*, -22.473*, yaw=330.7°*)
 43: 0x0B6B [0x47] WAIT_PLAYER_POS_UPDATE
 44: 0x0B6D [0x01] GOTO 0x0B7C
 45: 0x0B70 [0x47] UPDATE_PLAYER_POS(-299.077*, -339.049*, 116.433*, yaw=2.3°*)
 46: 0x0B7A [0x47] WAIT_PLAYER_POS_UPDATE

SUBROUTINE_0B7C:
 47: 0x0B7C [0x01] GOTO 0x0C43
 48: 0x0B7F [0x02] IF !(ExtData[1]->WorkLocal[32] == 168*) GOTO 0x0BAD
 49: 0x0B87 [0x02] IF !(ExtData[1]->WorkLocal[25] == 0*) GOTO 0x0B9E
 50: 0x0B8F [0x47] UPDATE_PLAYER_POS(-299.077*, -339.049*, 116.433*, yaw=2.3°*)
 51: 0x0B99 [0x47] WAIT_PLAYER_POS_UPDATE
 52: 0x0B9B [0x01] GOTO 0x0BAA
 53: 0x0B9E [0x47] UPDATE_PLAYER_POS(200.059*, -21.958*, -0.250*, yaw=91.5°*)
 54: 0x0BA8 [0x47] WAIT_PLAYER_POS_UPDATE

SUBROUTINE_0BAA:
 55: 0x0BAA [0x01] GOTO 0x0C43
 56: 0x0BAD [0x02] IF !(ExtData[1]->WorkLocal[32] == 202*) GOTO 0x0BDB
 57: 0x0BB5 [0x02] IF !(ExtData[1]->WorkLocal[25] == 4*) GOTO 0x0BCC
 58: 0x0BBD [0x47] UPDATE_PLAYER_POS(538.604*, 501.900*, -13.942*, yaw=286.5°*)
 59: 0x0BC7 [0x47] WAIT_PLAYER_POS_UPDATE
 60: 0x0BC9 [0x01] GOTO 0x0BD8
 61: 0x0BCC [0x47] UPDATE_PLAYER_POS(-299.077*, -339.049*, 116.433*, yaw=2.3°*)
 62: 0x0BD6 [0x47] WAIT_PLAYER_POS_UPDATE

SUBROUTINE_0BD8:
 63: 0x0BD8 [0x01] GOTO 0x0C43
 64: 0x0BDB [0x02] IF !(ExtData[1]->WorkLocal[32] == 203*) GOTO 0x0C09
 65: 0x0BE3 [0x02] IF !(ExtData[1]->WorkLocal[25] == 4*) GOTO 0x0BFA
 66: 0x0BEB [0x47] UPDATE_PLAYER_POS(553.205*, 589.633*, -0.021*, yaw=124.4°*)
 67: 0x0BF5 [0x47] WAIT_PLAYER_POS_UPDATE
 68: 0x0BF7 [0x01] GOTO 0x0C06
 69: 0x0BFA [0x47] UPDATE_PLAYER_POS(-299.077*, -339.049*, 116.433*, yaw=2.3°*)
 70: 0x0C04 [0x47] WAIT_PLAYER_POS_UPDATE

SUBROUTINE_0C06:
 71: 0x0C06 [0x01] GOTO 0x0C43
 72: 0x0C09 [0x02] IF !(ExtData[1]->WorkLocal[32] == 211*) GOTO 0x0C37
 73: 0x0C11 [0x02] IF !(ExtData[1]->WorkLocal[25] == 3*) GOTO 0x0C28
 74: 0x0C19 [0x47] UPDATE_PLAYER_POS(569.224*, 548.462*, 36.837*, yaw=59.1°*)
 75: 0x0C23 [0x47] WAIT_PLAYER_POS_UPDATE
 76: 0x0C25 [0x01] GOTO 0x0C34
 77: 0x0C28 [0x47] UPDATE_PLAYER_POS(-299.077*, -339.049*, 116.433*, yaw=2.3°*)
 78: 0x0C32 [0x47] WAIT_PLAYER_POS_UPDATE

SUBROUTINE_0C34:
 79: 0x0C34 [0x01] GOTO 0x0C43
 80: 0x0C37 [0x47] UPDATE_PLAYER_POS(-299.077*, -339.049*, 116.433*, yaw=2.3°*)
 81: 0x0C41 [0x47] WAIT_PLAYER_POS_UPDATE

SUBROUTINE_0C43:
 82: 0x0C43 [0x38] SET_CLIENT_EVENT_MODE(mode=19*)
 83: 0x0C46 [0x02] IF !(ExtData[1]->WorkLocal[23] == 2*) GOTO 0x0C51
 84: 0x0C4E [0x01] GOTO 0x0C6C
 85: 0x0C51 [0x02] IF !(ExtData[1]->WorkLocal[23] == 1*) GOTO 0x0D1C
 86: 0x0C59 [0x1C] WAIT(15* ticks)
 87: 0x0C5C [0x24] CREATE_DIALOG(message_id=7566*, default_option=1*, option_flags=0*)
    → "Skip the event? [Yes./No.]"
 88: 0x0C63 [0x25] WAIT_DIALOG_SELECT()
 89: 0x0C64 [0x02] IF !(Work_Zone[0] == 0*) GOTO 0x0D1C

SUBROUTINE_0C6C:
 90: 0x0C6C [0x02] IF !(ExtData[1]->WorkLocal[32] == 180*) GOTO 0x0CD8
 91: 0x0C74 [0x02] IF !(ExtData[1]->WorkLocal[33] == 0*) GOTO 0x0C86
 92: 0x0C7C [0x36] SET_ENTITY_EVENT_POSITION(pos_x=-618.329*, pos_z=-643.868*, pos_y=-25.805*)
 93: 0x0C83 [0x01] GOTO 0x0CD5
 94: 0x0C86 [0x02] IF !(ExtData[1]->WorkLocal[33] == 1*) GOTO 0x0C98
 95: 0x0C8E [0x36] SET_ENTITY_EVENT_POSITION(pos_x=-332.163*, pos_z=-441.914*, pos_y=-95.055*)
 96: 0x0C95 [0x01] GOTO 0x0CD5
 97: 0x0C98 [0x02] IF !(ExtData[1]->WorkLocal[33] == 2*) GOTO 0x0CAA
 98: 0x0CA0 [0x36] SET_ENTITY_EVENT_POSITION(pos_x=-12.464*, pos_z=-648.377*, pos_y=-194.629*)
 99: 0x0CA7 [0x01] GOTO 0x0CD5
100: 0x0CAA [0x02] IF !(ExtData[1]->WorkLocal[33] == 3*) GOTO 0x0CBC
101: 0x0CB2 [0x36] SET_ENTITY_EVENT_POSITION(pos_x=323.381*, pos_z=-443.793*, pos_y=-108.440*)
102: 0x0CB9 [0x01] GOTO 0x0CD5
103: 0x0CBC [0x02] IF !(ExtData[1]->WorkLocal[33] == 4*) GOTO 0x0CCE
104: 0x0CC4 [0x36] SET_ENTITY_EVENT_POSITION(pos_x=599.907*, pos_z=-676.969*, pos_y=-22.473*)
105: 0x0CCB [0x01] GOTO 0x0CD5
106: 0x0CCE [0x36] SET_ENTITY_EVENT_POSITION(pos_x=-299.077*, pos_z=-339.049*, pos_y=116.433*)

SUBROUTINE_0CD5:
107: 0x0CD5 [0x01] GOTO 0x0CE1
108: 0x0CD8 [0x37] UPDATE_EVENT_POSITION_AND_DIR: x=-299.077*, z=-339.049*, y=116.433*, direction=2.3°*

SUBROUTINE_0CE1:
109: 0x0CE1 [0x80] LOAD_WAIT(entity=LocalPlayer)
110: 0x0CE6 [0x62] LOAD_EVENT_SCHEDULER: Load scheduler "main" with entities [LocalPlayer, LocalPlayer], work=[2*, 0*]
111: 0x0CF7 [0x45] LOAD_SCHEDULED_TASK: Load scheduler "fdi2" with entities [LocalPlayer, LocalPlayer], work=[200*, 0*]
112: 0x0D08 [0x46] CAMERA_CONTROL: Query status
113: 0x0D0A [0x12] 0x0200 = rand()
114: 0x0D0D [0x12] 0x0400 = rand()
115: 0x0D10 [0x80] LOAD_WAIT(entity=Unknown NPC (ID: 1175262720/0x460D1600))
116: 0x0D15 [0x00] END_REQSTACK()

SUBROUTINE_0D1C:
117: 0x0D1C [0x02] IF !(ExtData[1]->WorkLocal[23] < 4294967295*) GOTO 0x0D35
118: 0x0D24 [0x5C] MUSIC_CONTROL: Set Idle (Day) music to song 125*
119: 0x0D28 [0x5C] MUSIC_CONTROL: Set Idle (Night) music to song 125*
120: 0x0D2C [0x5C] MUSIC_CONTROL: Set Combat (Solo) music to song 125*
121: 0x0D30 [0x5C] MUSIC_CONTROL: Set Combat (Party) music to song 125*
122: 0x0D34 [0x9A] WAIT_MUSIC_SERVER()
123: 0x0D35 [0x1A] CALL_SUBROUTINE(address=0x1B75)
124: 0x0D38 [0x02] IF !(ExtData[1]->WorkLocal[23] >= 0*) GOTO 0x0D43
125: 0x0D40 [0x01] GOTO 0x0DE3

SUBROUTINE_0D43:
126: 0x0D43 [0x02] IF !(ExtData[1]->WorkLocal[32] == 36*) GOTO 0x0D4E
127: 0x0D4B [0x01] GOTO 0x0D4E

SUBROUTINE_0D4E:
128: 0x0D4E [0x02] IF !(ExtData[1]->WorkLocal[32] == 17*) GOTO 0x0D59
129: 0x0D56 [0x01] GOTO 0x0DE3
130: 0x0D59 [0x02] IF !(ExtData[1]->WorkLocal[32] == 19*) GOTO 0x0D64
131: 0x0D61 [0x01] GOTO 0x0DE3
132: 0x0D64 [0x02] IF !(ExtData[1]->WorkLocal[32] == 21*) GOTO 0x0D6F
133: 0x0D6C [0x01] GOTO 0x0DE3
134: 0x0D6F [0x02] IF !(ExtData[1]->WorkLocal[32] == 23*) GOTO 0x0D7A
135: 0x0D77 [0x01] GOTO 0x0DE3
136: 0x0D7A [0x03] Work_Zone[5] = ExtData[1]->WorkLocal[27]
137: 0x0D7F [0x02] IF !(Work_Zone[5] <= 0*) GOTO 0x0DE3
138: 0x0D87 [0x02] IF !(Work_Zone[5] < 60*) GOTO 0x0DA2
139: 0x0D8F [0x3F] Work_Zone[4] = Work_Zone[5] % 60*
140: 0x0D96 [0x15] Work_Zone[5] /= 60*
141: 0x0D9B [0x48] [System] [7568*]:
    → "Battlefield clear time: $3 minute[/s], $2 second[/s]!"
142: 0x0D9E [0x23] WAIT_FOR_DIALOG_INTERACTION
143: 0x0D9F [0x01] GOTO 0x0DA6
144: 0x0DA2 [0x48] [System] [7567*]:
    → "Battlefield clear time: $3 second[/s]!"
145: 0x0DA5 [0x23] WAIT_FOR_DIALOG_INTERACTION

SUBROUTINE_0DA6:
146: 0x0DA6 [0x02] IF !(ExtData[1]->WorkLocal[27] > ExtData[1]->WorkLocal[26]) GOTO 0x0DBA
147: 0x0DAE [0x03] Work_Zone[7] = ExtData[1]->WorkLocal[25]
148: 0x0DB3 [0x48] [System] [7602*]:
    → "You have broken the clear time record for "[The Rank 2 Final Mission/Steamed Sprouts/Divine Punishers/Saintly Invitation/Treasure and Tribulations/Shattering Stars (MNK)/Shattering Stars (WHM)/Shattering Stars (SMN)/Creeping Doom/Charming Trio/Harem Scarem/Early Bird Catches the Wyrm/Royal Succession/Rapid Raptors/Wild Wild Whiskers/Seasons Greetings/Royale Ramble/Moa Constrictors/The V Formation/Avian Apostates/Beyond Infinity/$26Steamed Sprouts/$26Divine Punishers/A Feast Most Dire/A.M.A.N. Trove (Mars)/A.M.A.N. Trove (Venus)/Inv. from Kupipi/Inv. from Kupipi and Co.]"!"
149: 0x0DB6 [0x23] WAIT_FOR_DIALOG_INTERACTION
150: 0x0DB7 [0x01] GOTO 0x0DE3
151: 0x0DBA [0x02] IF !(ExtData[1]->WorkLocal[26] < 60*) GOTO 0x0DDA
152: 0x0DC2 [0x03] Work_Zone[5] = ExtData[1]->WorkLocal[26]
153: 0x0DC7 [0x3F] Work_Zone[4] = Work_Zone[5] % 60*
154: 0x0DCE [0x15] Work_Zone[5] /= 60*
155: 0x0DD3 [0x48] [System] [7570*]:
    → "The current battlefield clear time record is $3 minute[/s] $2 second[/s]."
156: 0x0DD6 [0x23] WAIT_FOR_DIALOG_INTERACTION
157: 0x0DD7 [0x01] GOTO 0x0DE3
158: 0x0DDA [0x03] Work_Zone[5] = ExtData[1]->WorkLocal[26]
159: 0x0DDF [0x48] [System] [7569*]:
    → "The current battlefield clear time record is $3 second[/s]."
160: 0x0DE2 [0x23] WAIT_FOR_DIALOG_INTERACTION

SUBROUTINE_0DE3:
161: 0x0DE3 [0x02] IF !(ExtData[1]->WorkLocal[24] == 0*) GOTO 0x0DFB
162: 0x0DEB [0x5C] MUSIC_CONTROL: Set Idle (Day) music to song 0*
163: 0x0DEF [0x5C] MUSIC_CONTROL: Set Idle (Night) music to song 0*
164: 0x0DF3 [0x5C] MUSIC_CONTROL: Set Combat (Solo) music to song 125*
165: 0x0DF7 [0x5C] MUSIC_CONTROL: Set Combat (Party) music to song 125*
166: 0x0DFB [0x02] IF !(ExtData[1]->WorkLocal[23] >= 0*) GOTO 0x0E24
167: 0x0E03 [0x45] LOAD_SCHEDULED_TASK: Load scheduler "fdi2" with entities [LocalPlayer, LocalPlayer], work=[200*, 0*]
168: 0x0E14 [0x5C] MUSIC_CONTROL: Set Idle (Day) music to song 0*
169: 0x0E18 [0x5C] MUSIC_CONTROL: Set Idle (Night) music to song 0*
170: 0x0E1C [0x5C] MUSIC_CONTROL: Set Combat (Solo) music to song 125*
171: 0x0E20 [0x5C] MUSIC_CONTROL: Set Combat (Party) music to song 125*
172: 0x0E24 [0x06] ExtData[1]->WorkLocal[24] = 0
173: 0x0E27 [0x45] LOAD_SCHEDULED_TASK: Load scheduler "whi1" with entities [LocalPlayer, LocalPlayer], work=[201*, 0*]
174: 0x0E38 [0x45] LOAD_SCHEDULED_TASK: Load scheduler "blof" with entities [LocalPlayer, LocalPlayer], work=[200*, 0*]
175: 0x0E49 [0x21] END_EVENT
176: 0x0E4A [0x00] END_REQSTACK()
```

#### Data or dead code:

```
# Dead code (unreachable instructions):
     0x0D16 [0x01] GOTO 0x0D43
     0x0D19 [0x01] GOTO 0x0D1C
```

### Event 32003

#### Metadata

| Field        | Value     |
|--------------|-----------|
| Entrypoint   | 0x0E4B    |
| Data Size    | 435 bytes |
| Instructions | 77        |

```
      00 01 02 03 04 05 06 07  08 09 0A 0B 0C 0D 0E 0F
      -- -- -- -- -- -- -- --  -- -- -- -- -- -- -- --
0E40:                                   06 1D 00 06 1E             .....
0E50: 00 03 21 00 06 10 03 20  00 07 10 03 1F 00 08 10  ..!.... ........
0E60: 06 01 10 1A 4D 24 02 1D  00 08 80 00 FC 0F 42 03  ....M$........B.
0E70: 01 10 0C 80 43 00 43 01  03 01 10 0D 80 43 00 43  ....C.C......C.C
0E80: 01 1A 64 24 02 1E 00 08  80 00 FC 0F 45 11 80 F0  ..d$........E...
0E90: FF FF 7F F0 FF FF 7F 66  64 6F 31 04 80 55 11 80  .......fdo1..U..
0EA0: F0 FF FF 7F F0 FF FF 7F  66 64 6F 31 03 01 10 0E  ........fdo1....
0EB0: 80 02 20 00 3D 80 80 3B  0F 02 21 00 04 80 80 D0  .. .=..;..!.....
0EC0: 0E 47 00 3E 80 3F 80 40  80 41 80 47 01 01 38 0F  .G.>.?.@.A.G..8.
0ED0: 02 21 00 08 80 80 E7 0E  47 00 42 80 43 80 44 80  .!......G.B.C.D.
0EE0: 45 80 47 01 01 38 0F 02  21 00 0C 80 80 FE 0E 47  E.G..8..!......G
0EF0: 00 46 80 47 80 48 80 49  80 47 01 01 38 0F 02 21  .F.G.H.I.G..8..!
0F00: 00 0D 80 80 15 0F 47 00  4A 80 4B 80 4C 80 4D 80  ......G.J.K.L.M.
0F10: 47 01 01 38 0F 02 21 00  0E 80 80 2C 0F 47 00 4E  G..8..!....,.G.N
0F20: 80 4F 80 50 80 51 80 47  01 01 38 0F 47 00 52 80  .O.P.Q.G..8.G.R.
0F30: 53 80 54 80 55 80 47 01  01 BA 0F 02 20 00 1B 80  S.T.U.G..... ...
0F40: 80 AE 0F 02 1F 00 08 80  80 5A 0F 47 00 56 80 57  .........Z.G.V.W
0F50: 80 58 80 59 80 47 01 01  AB 0F 02 1F 00 0C 80 80  .X.Y.G..........
0F60: 71 0F 47 00 5A 80 5B 80  5C 80 5D 80 47 01 01 AB  q.G.Z.[.\.].G...
0F70: 0F 02 1F 00 0D 80 80 88  0F 47 00 5E 80 5F 80 60  .........G.^._.`
0F80: 80 61 80 47 01 01 AB 0F  02 1F 00 0E 80 80 9F 0F  .a.G............
0F90: 47 00 62 80 63 80 64 80  65 80 47 01 01 AB 0F 47  G.b.c.d.e.G....G
0FA0: 00 52 80 53 80 54 80 55  80 47 01 01 BA 0F 47 00  .R.S.T.U.G....G.
0FB0: 52 80 53 80 54 80 55 80  47 01 38 12 80 79 00 F0  R.S.T.U.G.8..y..
0FC0: FF FF 7F F0 FF FF 7F 1A  68 24 45 38 80 F0 FF FF  ........h$E8....
0FD0: 7F F0 FF FF 7F 77 68 69  31 04 80 45 11 80 F0 FF  .....whi1..E....
0FE0: FF 7F F0 FF FF 7F 62 6C  6F 66 04 80 5C 00 04 80  ......blof..\...
0FF0: 5C 01 04 80 5C 02 36 80  5C 03 36 80 21 00        \...\.6.\.6.!.  
```

#### Opcodes

```
  0: 0x0E4B [0x06] ExtData[1]->WorkLocal[29] = 0
  1: 0x0E4E [0x06] ExtData[1]->WorkLocal[30] = 0
  2: 0x0E51 [0x03] ExtData[1]->WorkLocal[33] = Work_Zone[6]
  3: 0x0E56 [0x03] ExtData[1]->WorkLocal[32] = Work_Zone[7]
  4: 0x0E5B [0x03] ExtData[1]->WorkLocal[31] = Work_Zone[8]
  5: 0x0E60 [0x06] Work_Zone[1] = 0
  6: 0x0E63 [0x1A] CALL_SUBROUTINE(address=0x244D)
  7: 0x0E66 [0x02] IF !(ExtData[1]->WorkLocal[29] == 1*) GOTO 0x0FFC
  8: 0x0E6E [0x42] SET_CLI_EVENT_CANCEL_DATA()
  9: 0x0E6F [0x03] Work_Zone[1] = 2*
 10: 0x0E74 [0x43] SEND_EVENT_UPDATE: Send pending tag to server (packet 0x005B)
 11: 0x0E76 [0x43] SEND_EVENT_UPDATE: Check pending flag (skip if not pending)
 12: 0x0E78 [0x03] Work_Zone[1] = 3*
 13: 0x0E7D [0x43] SEND_EVENT_UPDATE: Send pending tag to server (packet 0x005B)
 14: 0x0E7F [0x43] SEND_EVENT_UPDATE: Check pending flag (skip if not pending)
 15: 0x0E81 [0x1A] CALL_SUBROUTINE(address=0x2464)
 16: 0x0E84 [0x02] IF !(ExtData[1]->WorkLocal[30] == 1*) GOTO 0x0FFC
 17: 0x0E8C [0x45] LOAD_SCHEDULED_TASK: Load scheduler "fdo1" with entities [LocalPlayer, LocalPlayer], work=[200*, 0*]
 18: 0x0E9D [0x55] WAIT_LOAD_SCHEDULER: Wait for scheduler "fdo1" with entities [LocalPlayer, LocalPlayer], work=200*
 19: 0x0EAC [0x03] Work_Zone[1] = 4*
 20: 0x0EB1 [0x02] IF !(ExtData[1]->WorkLocal[32] == 180*) GOTO 0x0F3B
 21: 0x0EB9 [0x02] IF !(ExtData[1]->WorkLocal[33] == 0*) GOTO 0x0ED0
 22: 0x0EC1 [0x47] UPDATE_PLAYER_POS(-605.141*, 479.929*, -22.681*, yaw=87.2°*)
 23: 0x0ECB [0x47] WAIT_PLAYER_POS_UPDATE
 24: 0x0ECD [0x01] GOTO 0x0F38
 25: 0x0ED0 [0x02] IF !(ExtData[1]->WorkLocal[33] == 1*) GOTO 0x0EE7
 26: 0x0ED8 [0x47] UPDATE_PLAYER_POS(-262.589*, 377.857*, -137.313*, yaw=305.3°*)
 27: 0x0EE2 [0x47] WAIT_PLAYER_POS_UPDATE
 28: 0x0EE4 [0x01] GOTO 0x0F38
 29: 0x0EE7 [0x02] IF !(ExtData[1]->WorkLocal[33] == 2*) GOTO 0x0EFE
 30: 0x0EEF [0x47] UPDATE_PLAYER_POS(18.348*, 486.940*, -224.334*, yaw=17.1°*)
 31: 0x0EF9 [0x47] WAIT_PLAYER_POS_UPDATE
 32: 0x0EFB [0x01] GOTO 0x0F38
 33: 0x0EFE [0x02] IF !(ExtData[1]->WorkLocal[33] == 3*) GOTO 0x0F15
 34: 0x0F06 [0x47] UPDATE_PLAYER_POS(231.593*, 360.094*, -173.572*, yaw=160.8°*)
 35: 0x0F10 [0x47] WAIT_PLAYER_POS_UPDATE
 36: 0x0F12 [0x01] GOTO 0x0F38
 37: 0x0F15 [0x02] IF !(ExtData[1]->WorkLocal[33] == 4*) GOTO 0x0F2C
 38: 0x0F1D [0x47] UPDATE_PLAYER_POS(553.664*, 523.939*, -38.205*, yaw=233.9°*)
 39: 0x0F27 [0x47] WAIT_PLAYER_POS_UPDATE
 40: 0x0F29 [0x01] GOTO 0x0F38
 41: 0x0F2C [0x47] UPDATE_PLAYER_POS(300.092*, 357.516*, -123.965*, yaw=272.1°*)
 42: 0x0F36 [0x47] WAIT_PLAYER_POS_UPDATE

SUBROUTINE_0F38:
 43: 0x0F38 [0x01] GOTO 0x0FBA
 44: 0x0F3B [0x02] IF !(ExtData[1]->WorkLocal[32] == 6*) GOTO 0x0FAE
 45: 0x0F43 [0x02] IF !(ExtData[1]->WorkLocal[31] == 1*) GOTO 0x0F5A
 46: 0x0F4B [0x47] UPDATE_PLAYER_POS(-875.117*, -43.892*, -48.084*, yaw=45.1°*)
 47: 0x0F55 [0x47] WAIT_PLAYER_POS_UPDATE
 48: 0x0F57 [0x01] GOTO 0x0FAB
 49: 0x0F5A [0x02] IF !(ExtData[1]->WorkLocal[31] == 2*) GOTO 0x0F71
 50: 0x0F62 [0x47] UPDATE_PLAYER_POS(-755.499*, 563.947*, -112.035*, yaw=313.5°*)
 51: 0x0F6C [0x47] WAIT_PLAYER_POS_UPDATE
 52: 0x0F6E [0x01] GOTO 0x0FAB
 53: 0x0F71 [0x02] IF !(ExtData[1]->WorkLocal[31] == 3*) GOTO 0x0F88
 54: 0x0F79 [0x47] UPDATE_PLAYER_POS(123.251*, 754.209*, -172.124*, yaw=38.7°*)
 55: 0x0F83 [0x47] WAIT_PLAYER_POS_UPDATE
 56: 0x0F85 [0x01] GOTO 0x0FAB
 57: 0x0F88 [0x02] IF !(ExtData[1]->WorkLocal[31] == 4*) GOTO 0x0F9F
 58: 0x0F90 [0x47] UPDATE_PLAYER_POS(-516.404*, -803.323*, 24.206*, yaw=38.4°*)
 59: 0x0F9A [0x47] WAIT_PLAYER_POS_UPDATE
 60: 0x0F9C [0x01] GOTO 0x0FAB
 61: 0x0F9F [0x47] UPDATE_PLAYER_POS(300.092*, 357.516*, -123.965*, yaw=272.1°*)
 62: 0x0FA9 [0x47] WAIT_PLAYER_POS_UPDATE

SUBROUTINE_0FAB:
 63: 0x0FAB [0x01] GOTO 0x0FBA
 64: 0x0FAE [0x47] UPDATE_PLAYER_POS(300.092*, 357.516*, -123.965*, yaw=272.1°*)
 65: 0x0FB8 [0x47] WAIT_PLAYER_POS_UPDATE

SUBROUTINE_0FBA:
 66: 0x0FBA [0x38] SET_CLIENT_EVENT_MODE(mode=19*)
 67: 0x0FBD [0x79] LocalPlayer looks at LocalPlayer (Basic look)
 68: 0x0FC7 [0x1A] CALL_SUBROUTINE(address=0x2468)
 69: 0x0FCA [0x45] LOAD_SCHEDULED_TASK: Load scheduler "whi1" with entities [LocalPlayer, LocalPlayer], work=[201*, 0*]
 70: 0x0FDB [0x45] LOAD_SCHEDULED_TASK: Load scheduler "blof" with entities [LocalPlayer, LocalPlayer], work=[200*, 0*]
 71: 0x0FEC [0x5C] MUSIC_CONTROL: Set Idle (Day) music to song 0*
 72: 0x0FF0 [0x5C] MUSIC_CONTROL: Set Idle (Night) music to song 0*
 73: 0x0FF4 [0x5C] MUSIC_CONTROL: Set Combat (Solo) music to song 125*
 74: 0x0FF8 [0x5C] MUSIC_CONTROL: Set Combat (Party) music to song 125*
 75: 0x0FFC [0x21] END_EVENT
 76: 0x0FFD [0x00] END_REQSTACK()
```

### Event 65535.2

#### Metadata

| Field        | Value    |
|--------------|----------|
| Entrypoint   | 0x0FFE   |
| Data Size    | 10 bytes |
| Instructions | 2        |

```
      00 01 02 03 04 05 06 07  08 09 0A 0B 0C 0D 0E 0F
      -- -- -- -- -- -- -- --  -- -- -- -- -- -- -- --
0FF0:                                            37 99                7.
1000: 80 9A 80 9B 80 3C 80 00                           .....<..        
```

#### Opcodes

```
  0: 0x0FFE [0x37] UPDATE_EVENT_POSITION_AND_DIR: x=21.000*, z=12.410*, y=-2.340*, direction=85.2°*
  1: 0x1007 [0x00] END_REQSTACK()
```

### Event 65535.3

#### Metadata

| Field        | Value    |
|--------------|----------|
| Entrypoint   | 0x1008   |
| Data Size    | 14 bytes |
| Instructions | 4        |

```
      00 01 02 03 04 05 06 07  08 09 0A 0B 0C 0D 0E 0F
      -- -- -- -- -- -- -- --  -- -- -- -- -- -- -- --
1000:                          32 20 80 1F 00 99 80 9C          2 ......
1010: 80 9D 80 1F 01 00                                 ......          
```

#### Opcodes

```
  0: 0x1008 [0x32] ExtData[1]->MainSpeed = 13* * 0.1
  1: 0x100B [0x1F] MOVE_ENTITY: EventEntity moves to X=21.000*, Z=-4.731*, Y=-4.936*
  2: 0x1013 [0x1F] MOVE_ENTITY: Update entity position (mode=1)
  3: 0x1015 [0x00] END_REQSTACK()
```

### Event 65535.4

#### Metadata

| Field        | Value    |
|--------------|----------|
| Entrypoint   | 0x1016   |
| Data Size    | 10 bytes |
| Instructions | 2        |

```
      00 01 02 03 04 05 06 07  08 09 0A 0B 0C 0D 0E 0F
      -- -- -- -- -- -- -- --  -- -- -- -- -- -- -- --
1010:                   37 99  80 9E 80 9F 80 A0 80 00        7.........
```

#### Opcodes

```
  0: 0x1016 [0x37] UPDATE_EVENT_POSITION_AND_DIR: x=21.000*, z=-35.400*, y=-3.919*, direction=90.0°*
  1: 0x101F [0x00] END_REQSTACK()
```

### Event 65535.5

#### Metadata

| Field        | Value   |
|--------------|---------|
| Entrypoint   | 0x1020  |
| Data Size    | 6 bytes |
| Instructions | 2       |

```
      00 01 02 03 04 05 06 07  08 09 0A 0B 0C 0D 0E 0F
      -- -- -- -- -- -- -- --  -- -- -- -- -- -- -- --
1020: 03 02 10 0B 7F 00                                 ......          
```

#### Opcodes

```
  0: 0x1020 [0x03] Work_Zone[2] = (Entity->Render.Flags01 >> 25) & 1
  1: 0x1025 [0x00] END_REQSTACK()
```

### Event 65535.6

#### Metadata

| Field        | Value   |
|--------------|---------|
| Entrypoint   | 0x1026  |
| Data Size    | 6 bytes |
| Instructions | 2       |

```
      00 01 02 03 04 05 06 07  08 09 0A 0B 0C 0D 0E 0F
      -- -- -- -- -- -- -- --  -- -- -- -- -- -- -- --
1020:                   03 02  10 07 7F 00                    ......    
```

#### Opcodes

```
  0: 0x1026 [0x03] Work_Zone[2] = Entity->Race
  1: 0x102B [0x00] END_REQSTACK()
```

### Event 65535.7

#### Metadata

| Field        | Value   |
|--------------|---------|
| Entrypoint   | 0x102C  |
| Data Size    | 6 bytes |
| Instructions | 2       |

```
      00 01 02 03 04 05 06 07  08 09 0A 0B 0C 0D 0E 0F
      -- -- -- -- -- -- -- --  -- -- -- -- -- -- -- --
1020:                                      03 09 10 07              ....
1030: 7F 00                                             ..              
```

#### Opcodes

```
  0: 0x102C [0x03] Work_Zone[9] = Entity->Race
  1: 0x1031 [0x00] END_REQSTACK()
```

### Event 65535.8

#### Metadata

| Field        | Value   |
|--------------|---------|
| Entrypoint   | 0x1032  |
| Data Size    | 6 bytes |
| Instructions | 2       |

```
      00 01 02 03 04 05 06 07  08 09 0A 0B 0C 0D 0E 0F
      -- -- -- -- -- -- -- --  -- -- -- -- -- -- -- --
1030:       03 09 10 06 7F 00                             ......        
```

#### Opcodes

```
  0: 0x1032 [0x03] Work_Zone[9] = Entity->JobId (if LocalPlayer)
  1: 0x1037 [0x00] END_REQSTACK()
```

### Event 65535.9

#### Metadata

| Field        | Value   |
|--------------|---------|
| Entrypoint   | 0x1038  |
| Data Size    | 6 bytes |
| Instructions | 2       |

```
      00 01 02 03 04 05 06 07  08 09 0A 0B 0C 0D 0E 0F
      -- -- -- -- -- -- -- --  -- -- -- -- -- -- -- --
1030:                          03 08 10 06 7F 00                ......  
```

#### Opcodes

```
  0: 0x1038 [0x03] Work_Zone[8] = Entity->JobId (if LocalPlayer)
  1: 0x103D [0x00] END_REQSTACK()
```

### Event 65535.10

#### Metadata

| Field        | Value   |
|--------------|---------|
| Entrypoint   | 0x103E  |
| Data Size    | 7 bytes |
| Instructions | 3       |

```
      00 01 02 03 04 05 06 07  08 09 0A 0B 0C 0D 0E 0F
      -- -- -- -- -- -- -- --  -- -- -- -- -- -- -- --
1030:                                            AB 03                ..
1040: AC 01 08 80 00                                    .....           
```

#### Opcodes

```
  0: 0x103E [0xAB] EventEntity->Render.Flags0 ^= 0x20000 // Toggle bit 17
  1: 0x1040 [0xAC] EventEntity->StatusEvent = 1*
  2: 0x1044 [0x00] END_REQSTACK()
```

### Event 65535.11

#### Metadata

| Field        | Value   |
|--------------|---------|
| Entrypoint   | 0x1045  |
| Data Size    | 7 bytes |
| Instructions | 3       |

```
      00 01 02 03 04 05 06 07  08 09 0A 0B 0C 0D 0E 0F
      -- -- -- -- -- -- -- --  -- -- -- -- -- -- -- --
1040:                AC 01 04  80 AB 04 00                   .......    
```

#### Opcodes

```
  0: 0x1045 [0xAC] EventEntity->StatusEvent = 0*
  1: 0x1049 [0xAB] EventEntity->Render.Flags0 |= 0x40000 // Set bit 18
  2: 0x104B [0x00] END_REQSTACK()
```

### Event 65535.12

#### Metadata

| Field        | Value    |
|--------------|----------|
| Entrypoint   | 0x104C   |
| Data Size    | 24 bytes |
| Instructions | 4        |

```
      00 01 02 03 04 05 06 07  08 09 0A 0B 0C 0D 0E 0F
      -- -- -- -- -- -- -- --  -- -- -- -- -- -- -- --
1040:                                      03 22 00 07              ."..
1050: 7F 1A 7C 10 66 23 00 F8  FF FF 7F F8 FF FF 7F 74  ..|.f#.........t
1060: 6C 6B 30 00                                       lk0.            
```

#### Opcodes

```
  0: 0x104C [0x03] ExtData[1]->WorkLocal[34] = Entity->Race
  1: 0x1051 [0x1A] CALL_SUBROUTINE(address=0x107C)
  2: 0x1054 [0x66] LOAD_EXT_SCHEDULER_MAIN: Load scheduler "tlk0" with entities [EventEntity, EventEntity], work=ExtData[1]->WorkLocal[35]
  3: 0x1063 [0x00] END_REQSTACK()
```

### Event 65535.13

#### Metadata

| Field        | Value      |
|--------------|------------|
| Entrypoint   | 0x1064     |
| Data Size    | 5774 bytes |
| Instructions | 12         |

```
      00 01 02 03 04 05 06 07  08 09 0A 0B 0C 0D 0E 0F
      -- -- -- -- -- -- -- --  -- -- -- -- -- -- -- --
1060:             03 22 00 07  7F 1A 7C 10 66 23 00 F8      ."....|.f#..
1070: FF FF 7F F8 FF FF 7F 74  6C 6B 31 00 03 23 00 22  .......tlk1..#."
1080: 00 02 23 00 0B 80 05 91  10 08 23 00 08 80 01 96  ..#.......#.....
1090: 10 08 23 00 0C 80 14 23  00 1D 80 07 23 00 14 80  ..#....#....#...
10A0: 1B 03 23 00 22 00 02 23  00 0B 80 05 B6 10 08 23  ..#."..#.......#
10B0: 00 08 80 01 BB 10 08 23  00 0C 80 14 23 00 1D 80  .......#....#...
10C0: 07 23 00 A1 80 1B 03 23  00 22 00 02 23 00 0B 80  .#.....#."..#...
10D0: 05 DB 10 08 23 00 08 80  01 E0 10 08 23 00 0C 80  ....#.......#...
10E0: 14 23 00 1D 80 07 23 00  A2 80 1B 03 23 00 22 00  .#....#.....#.".
10F0: 02 23 00 0B 80 05 00 11  08 23 00 08 80 01 05 11  .#.......#......
1100: 08 23 00 0C 80 14 23 00  1D 80 07 23 00 A3 80 1B  .#....#....#....
1110: 24 0F 80 08 80 04 80 25  02 00 10 04 80 00 26 11  $......%......&.
1120: 05 01 00 01 26 11 1B 79  00 F0 FF FF 7F F0 FF FF  ....&..y........
1130: 7F 02 03 00 04 80 80 0B  16 02 02 00 08 80 00 44  ...............D
1140: 11 01 23 12 42 1A 85 25  4E 00 56 22 09 01 2F 00  ..#.B..%N.V"../.
1150: 56 22 09 01 4E 00 57 22  09 01 2F 00 57 22 09 01  V"..N.W"../.W"..
1160: 4E 00 59 22 09 01 2F 00  59 22 09 01 2F 00 5A 22  N.Y"../.Y"../.Z"
1170: 09 01 5B A4 80 59 22 09  01 59 22 09 01 00 FE FE  ..[..Y"..Y".....
1180: FE 5B A5 80 59 22 09 01  59 22 09 01 00 FE FE FE  .[..Y"..Y"......
1190: 5B A6 80 57 22 09 01 57  22 09 01 00 FE FE FE 62  [..W"..W"......b
11A0: 08 80 F0 FF FF 7F F0 FF  FF 7F 00 FE FE FE 04 80  ................
11B0: 62 0C 80 F0 FF FF 7F F0  FF FF 7F 00 FE FE FE 04  b...............
11C0: 80 62 21 80 56 22 09 01  56 22 09 01 00 FE FE FE  .b!.V"..V"......
11D0: 04 80 62 1E 80 57 22 09  01 57 22 09 01 00 FE FE  ..b..W"..W".....
11E0: FE 04 80 45 A7 80 F0 FF  FF 7F F0 FF FF 7F 00 FE  ...E............
11F0: FE FE 04 80 45 11 80 F0  FF FF 7F F0 FF FF 7F 00  ....E...........
1200: FE FE FE 04 80 45 38 80  F0 FF FF 7F F0 FF FF 7F  .....E8.........
1210: 00 FE FE FE 04 80 2C 56  22 09 01 56 22 09 01 00  ......,V"..V"...
1220: FE FE FE 46 01 37 A8 80  A9 80 AA 80 AB 80 45 A7  ...F.7........E.
1230: 80 F0 FF FF 7F F0 FF FF  7F 73 67 30 77 04 80 1A  .........sg0w...
1240: 64 25 32 20 80 7B F0 FF  FF 7F 1F 00 AC 80 AD 80  d%2 .{..........
1250: AE 80 1F 01 6F 62 08 80  F0 FF FF 7F F0 FF FF 7F  ....ob..........
1260: 6D 61 69 6E 04 80 1C 2D  80 1A C7 25 02 02 00 08  main...-...%....
1270: 80 00 77 12 01 08 16 45  A7 80 F0 FF FF 7F F0 FF  ..w....E........
1280: FF 7F 73 67 30 31 04 80  27 10 59 22 09 01 02 45  ..sg01..'.Y"...E
1290: 11 80 F0 FF FF 7F F0 FF  FF 7F 66 64 69 31 04 80  ..........fdi1..
12A0: 55 A7 80 F0 FF FF 7F F0  FF FF 7F 73 67 30 31 1A  U..........sg01.
12B0: 85 25 45 A7 80 F0 FF FF  7F F0 FF FF 7F 73 67 30  .%E..........sg0
12C0: 32 04 80 1A 64 25 2B 56  22 09 01 AF 80 23 2B 56  2...d%+V"....#+V
12D0: 22 09 01 B0 80 23 55 A7  80 F0 FF FF 7F F0 FF FF  "....#U.........
12E0: 7F 73 67 30 32 2A 10 59  22 09 01 45 A7 80 F0 FF  .sg02*.Y"..E....
12F0: FF 7F F0 FF FF 7F 73 67  30 33 04 80 5B A4 80 59  ......sg03..[..Y
1300: 22 09 01 59 22 09 01 74  6C 6B 30 2B 59 22 09 01  "..Y"..tlk0+Y"..
1310: B1 80 23 53 59 22 09 01  59 22 09 01 74 6C 6B 30  ..#SY"..Y"..tlk0
1320: 5B A4 80 59 22 09 01 59  22 09 01 74 6C 6B 31 2B  [..Y"..Y"..tlk1+
1330: 56 22 09 01 B2 80 23 2B  56 22 09 01 B3 80 23 2B  V"....#+V"....#+
1340: 56 22 09 01 B4 80 23 55  A7 80 F0 FF FF 7F F0 FF  V"....#U........
1350: FF 7F 73 67 30 33 2C 56  22 09 01 56 22 09 01 63  ..sg03,V"..V"..c
1360: 61 73 74 62 21 80 56 22  09 01 56 22 09 01 6D 61  astb!.V"..V"..ma
1370: 69 6E 04 80 45 A7 80 F0  FF FF 7F F0 FF FF 7F 73  in..E..........s
1380: 67 30 34 04 80 2B 56 22  09 01 B5 80 23 55 A7 80  g04..+V"....#U..
1390: F0 FF FF 7F F0 FF FF 7F  73 67 30 34 45 A7 80 F0  ........sg04E...
13A0: FF FF 7F F0 FF FF 7F 73  67 30 35 04 80 5B A4 80  .......sg05..[..
13B0: 59 22 09 01 59 22 09 01  65 76 30 30 2B 59 22 09  Y"..Y"..ev00+Y".
13C0: 01 B6 80 23 55 A7 80 F0  FF FF 7F F0 FF FF 7F 73  ...#U..........s
13D0: 67 30 35 2C 56 22 09 01  56 22 09 01 70 6F 70 30  g05,V"..V"..pop0
13E0: 27 10 57 22 09 01 03 45  A7 80 F0 FF FF 7F F0 FF  '.W"...E........
13F0: FF 7F 73 67 30 36 04 80  62 1E 80 57 22 09 01 57  ..sg06..b..W"..W
1400: 22 09 01 6D 61 69 6E 04  80 55 A7 80 F0 FF FF 7F  "..main..U......
1410: F0 FF FF 7F 73 67 30 36  2B 59 22 09 01 B7 80 23  ....sg06+Y"....#
1420: 1A 85 25 45 A7 80 F0 FF  FF 7F F0 FF FF 7F 73 67  ..%E..........sg
1430: 30 37 04 80 5B A4 80 59  22 09 01 59 22 09 01 65  07..[..Y"..Y"..e
1440: 76 30 31 1A 64 25 2B 59  22 09 01 B8 80 23 55 A7  v01.d%+Y"....#U.
1450: 80 F0 FF FF 7F F0 FF FF  7F 73 67 30 37 45 A7 80  .........sg07E..
1460: F0 FF FF 7F F0 FF FF 7F  73 67 30 38 04 80 5B A5  ........sg08..[.
1470: 80 59 22 09 01 59 22 09  01 65 76 30 32 53 59 22  .Y"..Y"..ev02SY"
1480: 09 01 59 22 09 01 65 76  30 32 55 A7 80 F0 FF FF  ..Y"..ev02U.....
1490: 7F F0 FF FF 7F 73 67 30  38 45 11 80 F0 FF FF 7F  .....sg08E......
14A0: F0 FF FF 7F 62 6C 6F 6E  04 80 5B A5 80 59 22 09  ....blon..[..Y".
14B0: 01 59 22 09 01 65 76 33  7A 45 A7 80 F0 FF FF 7F  .Y"..ev3zE......
14C0: F0 FF FF 7F 73 67 32 30  04 80 55 A7 80 F0 FF FF  ....sg20..U.....
14D0: 7F F0 FF FF 7F 73 67 32  30 45 A7 80 F0 FF FF 7F  .....sg20E......
14E0: F0 FF FF 7F 73 67 32 31  04 80 55 A7 80 F0 FF FF  ....sg21..U.....
14F0: 7F F0 FF FF 7F 73 67 32  31 45 A7 80 F0 FF FF 7F  .....sg21E......
1500: F0 FF FF 7F 73 67 31 39  04 80 5B A6 80 57 22 09  ....sg19..[..W".
1510: 01 57 22 09 01 64 61 6D  30 1C B9 80 45 11 80 F0  .W"..dam0...E...
1520: FF FF 7F F0 FF FF 7F 62  6C 6F 66 04 80 55 A7 80  .......blof..U..
1530: F0 FF FF 7F F0 FF FF 7F  73 67 31 39 1C B9 80 1A  ........sg19....
1540: 85 25 45 A7 80 F0 FF FF  7F F0 FF FF 7F 73 67 30  .%E..........sg0
1550: 39 04 80 1A 64 25 2B 59  22 09 01 BA 80 23 45 A7  9...d%+Y"....#E.
1560: 80 F0 FF FF 7F F0 FF FF  7F 73 67 32 32 04 80 5B  .........sg22..[
1570: A5 80 59 22 09 01 59 22  09 01 65 76 30 34 55 A7  ..Y"..Y"..ev04U.
1580: 80 F0 FF FF 7F F0 FF FF  7F 73 67 32 32 2B 59 22  .........sg22+Y"
1590: 09 01 BB 80 23 53 59 22  09 01 59 22 09 01 65 76  ....#SY"..Y"..ev
15A0: 30 34 45 A7 80 F0 FF FF  7F F0 FF FF 7F 73 67 31  04E..........sg1
15B0: 38 04 80 5B A5 80 59 22  09 01 59 22 09 01 65 76  8..[..Y"..Y"..ev
15C0: 30 35 53 59 22 09 01 59  22 09 01 65 76 30 35 5B  05SY"..Y"..ev05[
15D0: A5 80 59 22 09 01 59 22  09 01 65 76 30 36 73 BC  ..Y"..Y"..ev06s.
15E0: 80 5A 22 09 01 59 22 09  01 1C BD 80 27 10 59 22  .Z"..Y".....'.Y"
15F0: 09 01 03 1C B9 80 1A C7  25 55 A7 80 F0 FF FF 7F  ........%U......
1600: F0 FF FF 7F 73 67 31 38  01 70 19 02 03 00 0D 80  ....sg18.p......
1610: 80 BD 18 46 01 42 5D 04  80 11 80 03 26 00 09 10  ...F.B].....&...
1620: 38 BE 80 29 08 F0 FF FF  7F 0C 29 08 F0 FF FF 7F  8..)......).....
1630: 07 29 0B F1 FF FF 7F 02  29 0B F2 FF FF 7F 02 29  .)......)......)
1640: 0B F3 FF FF 7F 02 29 0B  F4 FF FF 7F 02 29 0B F5  ......)......)..
1650: FF FF 7F 02 4E 00 65 22  09 01 4E 00 F0 FF FF 7F  ....N.e"..N.....
1660: 4E 00 F1 FF FF 7F 4E 00  F2 FF FF 7F 4E 00 F3 FF  N.....N.....N...
1670: FF 7F 4E 00 F4 FF FF 7F  4E 00 F5 FF FF 7F 80 F0  ..N.....N.......
1680: FF FF 7F 80 F1 FF FF 7F  80 F2 FF FF 7F 80 F3 FF  ................
1690: FF 7F 80 F4 FF FF 7F 80  F5 FF FF 7F 80 65 22 09  .............e".
16A0: 01 45 8E 80 64 22 09 01  64 22 09 01 73 30 35 39  .E..d"..d"..s059
16B0: 04 80 45 11 80 64 22 09  01 64 22 09 01 66 64 69  ..E..d"..d"..fdi
16C0: 31 04 80 1C BF 80 52 8E  80 64 22 09 01 64 22 09  1.....R..d"..d".
16D0: 01 73 30 35 39 45 11 80  F0 FF FF 7F F0 FF FF 7F  .s059E..........
16E0: 6F 76 6C 31 04 80 27 0C  66 22 09 01 02 27 0B 65  ovl1..'.f"...'.e
16F0: 22 09 01 02 27 0B F1 FF  FF 7F 03 27 0B F2 FF FF  "...'......'....
1700: 7F 03 27 0B F3 FF FF 7F  03 27 0B F4 FF FF 7F 03  ..'......'......
1710: 27 0B F5 FF FF 7F 03 27  08 F0 FF FF 7F 08 2A 0B  '......'......*.
1720: 65 22 09 01 29 0B 65 22  09 01 03 2A 08 F0 FF FF  e"..).e"...*....
1730: 7F 2A 0C 66 22 09 01 52  8E 80 64 22 09 01 64 22  .*.f"..R..d"..d"
1740: 09 01 73 30 36 32 45 11  80 F0 FF FF 7F F0 FF FF  ..s062E.........
1750: 7F 6F 76 6C 31 04 80 45  8E 80 64 22 09 01 64 22  .ovl1..E..d"..d"
1760: 09 01 73 30 36 37 04 80  29 0B 65 22 09 01 04 52  ..s067..).e"...R
1770: 8E 80 64 22 09 01 64 22  09 01 73 30 36 37 27 0B  ..d"..d"..s067'.
1780: 66 22 09 01 03 4A 65 22  09 01 66 22 09 01 6F 76  f"...Je"..f"..ov
1790: 65 22 09 01 29 0B 65 22  09 01 05 2A 0B 66 22 09  e"..).e"...*.f".
17A0: 01 52 8E 80 F0 FF FF 7F  F0 FF FF 7F 73 30 36 38  .R..........s068
17B0: 27 0B 66 22 09 01 04 4A  65 22 09 01 F0 FF FF 7F  '.f"...Je"......
17C0: 6F 76 65 22 09 01 29 0B  65 22 09 01 06 2A 0B 66  ove"..).e"...*.f
17D0: 22 09 01 02 09 10 0D 80  00 ED 17 52 8E 80 F0 FF  "..........R....
17E0: FF 7F F0 FF FF 7F 73 30  37 32 01 64 18 02 09 10  ......s072.d....
17F0: 0E 80 00 07 18 52 8E 80  F0 FF FF 7F F0 FF FF 7F  .....R..........
1800: 73 30 37 33 01 64 18 02  09 10 0B 80 00 21 18 52  s073.d.......!.R
1810: 8E 80 F0 FF FF 7F F0 FF  FF 7F 73 30 37 30 01 64  ..........s070.d
1820: 18 02 09 10 1B 80 00 3B  18 52 8E 80 F0 FF FF 7F  .......;.R......
1830: F0 FF FF 7F 73 30 37 30  01 64 18 02 09 10 13 80  ....s070.d......
1840: 00 55 18 52 8E 80 F0 FF  FF 7F F0 FF FF 7F 73 30  .U.R..........s0
1850: 37 31 01 64 18 52 8E 80  F0 FF FF 7F F0 FF FF 7F  71.d.R..........
1860: 73 30 36 39 45 8E 80 64  22 09 01 64 22 09 01 73  s069E..d"..d"..s
1870: 30 36 36 04 80 29 0B 65  22 09 01 07 52 8E 80 64  066..).e"...R..d
1880: 22 09 01 64 22 09 01 73  30 36 36 29 0B 65 22 09  "..d"..s066).e".
1890: 01 08 45 11 80 64 22 09  01 64 22 09 01 66 64 6F  ..E..d"..d"..fdo
18A0: 31 04 80 1C 31 80 03 03  10 24 00 03 04 10 25 00  1...1....$....%.
18B0: 03 09 10 26 00 46 00 1C  11 80 01 70 19 02 03 00  ...&.F.....p....
18C0: 23 80 80 26 19 42 46 01  37 A8 80 A9 80 AA 80 AB  #..&.BF.7.......
18D0: 80 45 A7 80 F0 FF FF 7F  F0 FF FF 7F 73 67 30 77  .E..........sg0w
18E0: 04 80 1A 64 25 32 20 80  7B F0 FF FF 7F 1F 00 AC  ...d%2 .{.......
18F0: 80 AD 80 AE 80 1F 01 6F  62 08 80 F0 FF FF 7F F0  .......ob.......
1900: FF FF 7F 6D 61 69 6E 04  80 1C 2D 80 1A C7 25 62  ...main...-...%b
1910: 0C 80 F0 FF FF 7F F0 FF  FF 7F 6D 61 69 6E 04 80  ..........main..
1920: 1A 2C 1A 01 70 19 42 46  01 37 A8 80 A9 80 AA 80  .,..p.BF.7......
1930: AB 80 45 A7 80 F0 FF FF  7F F0 FF FF 7F 73 67 30  ..E..........sg0
1940: 77 04 80 1A 64 25 32 20  80 7B F0 FF FF 7F 1F 00  w...d%2 .{......
1950: AC 80 AD 80 AE 80 1F 01  6F 62 08 80 F0 FF FF 7F  ........ob......
1960: F0 FF FF 7F 6D 61 69 6E  04 80 1C 2D 80 1A C7 25  ....main...-...%
1970: 02 00 00 08 80 80 A7 19  37 C0 80 C1 80 C2 80 C3  ........7.......
1980: 80 45 A7 80 F0 FF FF 7F  F0 FF FF 7F 73 67 30 61  .E..........sg0a
1990: 04 80 1A 1D 26 55 A7 80  F0 FF FF 7F F0 FF FF 7F  ....&U..........
19A0: 73 67 30 61 01 29 1A 02  00 00 0C 80 80 DE 19 37  sg0a.).........7
19B0: C4 80 C5 80 C6 80 C7 80  45 A7 80 F0 FF FF 7F F0  ........E.......
19C0: FF FF 7F 73 67 30 62 04  80 1A 1D 26 55 A7 80 F0  ...sg0b....&U...
19D0: FF FF 7F F0 FF FF 7F 73  67 30 62 01 29 1A 02 00  .......sg0b.)...
19E0: 00 0D 80 80 15 1A 37 C8  80 C9 80 CA 80 CB 80 45  ......7........E
19F0: A7 80 F0 FF FF 7F F0 FF  FF 7F 73 67 30 63 04 80  ..........sg0c..
1A00: 1A 1D 26 55 A7 80 F0 FF  FF 7F F0 FF FF 7F 73 67  ..&U..........sg
1A10: 30 63 01 29 1A 02 00 00  0E 80 80 29 1A 37 04 80  0c.).......).7..
1A20: 04 80 04 80 04 80 01 29  1A 46 00 1B 97 04 80 08  .......).F......
1A30: 80 37 CC 80 CD 80 CE 80  CF 80 38 12 80 92 01 69  .7........8....i
1A40: 22 09 01 2F 00 69 22 09  01 4E 00 69 22 09 01 22  "../.i"..N.i".."
1A50: 00 94 01 69 22 09 01 BA  69 22 09 01 D0 80 D1 80  ...i"...i"......
1A60: D2 80 CF 80 80 69 22 09  01 80 F0 FF FF 7F 4A 69  .....i".......Ji
1A70: 22 09 01 F0 FF FF 7F 1E  69 22 09 01 1C 2D 80 45  ".......i"...-.E
1A80: D3 80 F0 FF FF 7F F0 FF  FF 7F 73 31 33 34 04 80  ..........s134..
1A90: 1A A6 25 2B 69 22 09 01  D4 80 23 52 D3 80 F0 FF  ..%+i"....#R....
1AA0: FF 7F F0 FF FF 7F 73 31  33 34 45 D3 80 F0 FF FF  ......s134E.....
1AB0: 7F F0 FF FF 7F 73 31 33  35 04 80 66 D5 80 69 22  .....s135..f..i"
1AC0: 09 01 69 22 09 01 6D 6E  6B 30 CD D6 80 69 22 09  ..i"..mnk0...i".
1AD0: 01 69 22 09 01 73 30 30  30 04 80 1C 34 80 CD D6  .i"..s000...4...
1AE0: 80 69 22 09 01 69 22 09  01 73 74 6F 70 04 80 27  .i"..i"..stop..'
1AF0: 05 F0 FF FF 7F 0F 27 05  69 22 09 01 04 1C 31 80  ......'.i"....1.
1B00: 52 D3 80 F0 FF FF 7F F0  FF FF 7F 73 31 33 35 45  R..........s135E
1B10: D3 80 F0 FF FF 7F F0 FF  FF 7F 73 31 33 36 04 80  ..........s136..
1B20: 2B 69 22 09 01 D7 80 1C  D8 80 45 38 80 F0 FF FF  +i".......E8....
1B30: 7F F0 FF FF 7F 77 68 6F  30 04 80 55 38 80 F0 FF  .....who0..U8...
1B40: FF 7F F0 FF FF 7F 77 68  6F 30 52 D3 80 F0 FF FF  ......who0R.....
1B50: 7F F0 FF FF 7F 73 31 33  36 1A C7 25 45 38 80 F0  .....s136..%E8..
1B60: FF FF 7F F0 FF FF 7F 77  68 69 30 04 80 27 05 F0  .......whi0..'..
1B70: FF FF 7F 10 1B 02 19 00  04 80 80 2E 1F 1C 00 80  ................
1B80: 5C 00 D9 80 5C 01 D9 80  5C 02 D9 80 5C 03 D9 80  \...\...\...\...
1B90: 2C 57 22 09 01 57 22 09  01 00 FE FE FE 2C 56 22  ,W"..W"......,V"
1BA0: 09 01 56 22 09 01 00 FE  FE FE 45 A7 80 F0 FF FF  ..V"......E.....
1BB0: 7F F0 FF FF 7F 00 FE FE  FE 04 80 5B DA 80 58 22  ...........[..X"
1BC0: 09 01 58 22 09 01 00 FE  FE FE 5B DB 80 58 22 09  ..X"......[..X".
1BD0: 01 58 22 09 01 00 FE FE  FE 4E 00 56 22 09 01 4E  .X"......N.V"..N
1BE0: 00 57 22 09 01 4E 00 58  22 09 01 2F 00 56 22 09  .W"..N.X"../.V".
1BF0: 01 2F 00 57 22 09 01 2F  00 58 22 09 01 46 01 1C  ./.W"../.X"..F..
1C00: 08 80 2C 57 22 09 01 57  22 09 01 63 6F 72 70 37  ..,W"..W"..corp7
1C10: DC 80 DD 80 DE 80 DF 80  45 A7 80 F0 FF FF 7F F0  ........E.......
1C20: FF FF 7F 73 67 31 32 04  80 1A A6 25 2B 56 22 09  ...sg12....%+V".
1C30: 01 E0 80 23 1A 85 25 45  A7 80 F0 FF FF 7F F0 FF  ...#..%E........
