# Event 4001

## Metadata

| Field           | Value    |
|-----------------|----------|
| Event Index     | 3/3      |
| Offset          | 0x0304   |
| Data Size       | 36 bytes |
| Calculated Size | 36 bytes |
| Instructions    | 13       |

```
      00 01 02 03 04 05 06 07  08 09 0A 0B 0C 0D 0E 0F
      -- -- -- -- -- -- -- --  -- -- -- -- -- -- -- --
0300:             03 19 00 02  10 20 01 1C 16 80 1E F0      ..... ......
0310: FF FF 7F 03 02 10 19 00  1D 54 80 23 03 02 10 19  .........T.#....
0320: 00 1D 55 80 23 42 21 00                           ..U.#B!.        
```

## Opcodes

```
  0: 0x0304 [0x03] ExtData[1]->WorkLocal[25] = Work_Zone[2]
  1: 0x0309 [0x20] SET_CLI_EVENT_UC_FLAG: Lock player control
  2: 0x030B [0x1C] WAIT(10* ticks)
  3: 0x030E [0x1E] EventEntity looks at LocalPlayer and starts talking
  4: 0x0313 [0x03] Work_Zone[2] = ExtData[1]->WorkLocal[25]
  5: 0x0318 [0x1D] PRINT_EVENT_MESSAGE(message_id=8237*)
    → "Thy offer of aid is most kind.\u0007We shall hold thy \u0001\u0005#\u0002\u0000\u0000\u0000 for safekeeping.\u007F1\u0000\u0007"
  6: 0x031B [0x23] WAIT_FOR_DIALOG_INTERACTION
  7: 0x031C [0x03] Work_Zone[2] = ExtData[1]->WorkLocal[25]
  8: 0x0321 [0x1D] PRINT_EVENT_MESSAGE(message_id=8238*)
    → "Shouldst thou succeed in thy endeavor, my sisters shall present thy newly enchanted \u0001\u0005#\u0002\u0000\u0000\u0000 to thee at the scene of thy triumph.\u007F1\u0000\u0007"
  9: 0x0324 [0x23] WAIT_FOR_DIALOG_INTERACTION
 10: 0x0325 [0x42] SET_CLI_EVENT_CANCEL_DATA()
 11: 0x0326 [0x21] END_EVENT
 12: 0x0327 [0x00] END_REQSTACK()
```
