# 17563876 - Gate Magical Gizmo

## Common Data

| Field            | Value                          |
|------------------|--------------------------------|
| Zone             | Inner Horutoto Ruins (ID: 192) |
| Block Size       | 1268 bytes                     |
| Total Events     | 2                              |
| References Count | 20                             |

## List of Events

| Event ID        | Entrypoint   |   Size |   Instructions |
|-----------------|--------------|--------|----------------|
| [42](#event-42) | 0x0000       |   1162 |            145 |

## DAT References (imed_data)

|   Index | Hex Value   |   Dec Value |
|---------|-------------|-------------|
|       0 | 0x00C8      |         200 |
|       1 | 0x0000      |           0 |
|       2 | 0x003C      |          60 |
|       3 | 0x0013      |          19 |
|       4 | 0x007F      |         127 |
|       5 | 0x012C      |         300 |
|       6 | 0x005C      |          92 |
|       7 | 0x1C5B      |        7259 |
|       8 | 0x1C5D      |        7261 |
|       9 | 0x1C5E      |        7262 |
|      10 | 0x1C5F      |        7263 |
|      11 | 0x1C60      |        7264 |
|      12 | 0x0032      |          50 |
|      13 | 0x0008      |           8 |
|      14 | 0x03E8      |        1000 |
|      15 | 0x05CC      |        1484 |
|      16 | 0x1C70      |        7280 |
|      17 | 0x0867      |        2151 |
|      18 | 0x0064      |         100 |
|      19 | 0x0078      |         120 |

## Events

### Event 42

#### Metadata

| Field        | Value      |
|--------------|------------|
| Entrypoint   | 0x0000     |
| Data Size    | 1162 bytes |
| Instructions | 145        |

```
      00 01 02 03 04 05 06 07  08 09 0A 0B 0C 0D 0E 0F
      -- -- -- -- -- -- -- --  -- -- -- -- -- -- -- --
0000: 20 01 46 01 42 45 00 80  F8 FF FF 7F F8 FF FF 7F   .F.BE..........
0010: 66 64 6F 31 01 80 4C 1C  02 80 38 03 80 5C 00 04  fdo1..L...8..\..
0020: 80 5C 01 04 80 29 08 F0  FF FF 7F 05 29 08 F0 FF  .\...)......)...
0030: FF 7F 21 29 0B E2 00 0C  01 2C 1C 02 80 4D 1C 05  ..!).....,...M..
0040: 80 22 00 22 00 80 E3 00  0C 01 80 E2 00 0C 01 29  ."."...........)
0050: 0B E3 00 0C 01 28 45 06  80 F0 FF FF 7F F0 FF FF  .....(E.........
0060: 7F 73 30 30 30 01 80 45  00 80 F8 FF FF 7F F8 FF  .s000..E........
0070: FF 7F 66 64 69 31 01 80  29 0B E3 00 0C 01 29 55  ..fdi1..).....)U
0080: 06 80 F0 FF FF 7F F0 FF  FF 7F 73 30 30 30 45 06  ..........s000E.
0090: 80 F0 FF FF 7F F0 FF FF  7F 73 30 31 35 01 80 29  .........s015..)
00A0: 0B E3 00 0C 01 2A 45 06  80 F0 FF FF 7F F0 FF FF  .....*E.........
00B0: 7F 73 30 30 31 01 80 27  0B E2 00 0C 01 33 2B E2  .s001..'.....3+.
00C0: 00 0C 01 07 80 23 2A 0B  E2 00 0C 01 6F 76 E2 00  .....#*.....ov..
00D0: 0C 01 29 0B E2 00 0C 01  36 52 06 80 F0 FF FF 7F  ..).....6R......
00E0: F0 FF FF 7F 73 30 30 31  45 06 80 F0 FF FF 7F F0  ....s001E.......
00F0: FF FF 7F 73 30 30 32 01  80 27 0A E2 00 0C 01 34  ...s002..'.....4
0100: 2B E2 00 0C 01 08 80 23  2B E2 00 0C 01 09 80 23  +......#+......#
0110: 52 06 80 F0 FF FF 7F F0  FF FF 7F 73 30 30 32 45  R..........s002E
0120: 06 80 F0 FF FF 7F F0 FF  FF 7F 73 30 30 34 01 80  ..........s004..
0130: 2B E2 00 0C 01 0A 80 23  2B E2 00 0C 01 0B 80 23  +......#+......#
0140: 29 0B E3 00 0C 01 2B 52  06 80 F0 FF FF 7F F0 FF  ).....+R........
0150: FF 7F 73 30 30 34 45 06  80 F0 FF FF 7F F0 FF FF  ..s004E.........
0160: 7F 73 30 30 35 01 80 2A  0A E2 00 0C 01 29 0B E2  .s005..*.....)..
0170: 00 0C 01 38 45 06 80 F0  FF FF 7F F0 FF FF 7F 73  ...8E..........s
0180: 30 30 33 01 80 4A E2 00  0C 01 E3 00 0C 01 29 0B  003..J........).
0190: E3 00 0C 01 2C 4A E3 00  0C 01 E2 00 0C 01 45 06  ....,J........E.
01A0: 80 F0 FF FF 7F F0 FF FF  7F 73 30 34 38 01 80 6F  .........s048..o
01B0: 76 E3 00 0C 01 29 0B E3  00 0C 01 2D 45 06 80 F0  v....).....-E...
01C0: FF FF 7F F0 FF FF 7F 73  30 34 39 01 80 29 0B E2  .......s049..)..
01D0: 00 0C 01 39 45 06 80 F0  FF FF 7F F0 FF FF 7F 73  ...9E..........s
01E0: 30 34 38 01 80 29 0B E3  00 0C 01 2E 45 06 80 F0  048..)......E...
01F0: FF FF 7F F0 FF FF 7F 73  30 30 37 01 80 27 0B F0  .......s007..'..
0200: FF FF 7F 22 1C 0C 80 27  0B E3 00 0C 01 26 2A 0B  ..."...'.....&*.
0210: E3 00 0C 01 27 0B E3 00  0C 01 27 2A 0B F0 FF FF  ....'.....'*....
0220: 7F 2A 0B E3 00 0C 01 55  06 80 F0 FF FF 7F F0 FF  .*.....U........
0230: FF 7F 73 30 30 37 02 09  10 0D 80 00 52 02 45 06  ..s007......R.E.
0240: 80 F0 FF FF 7F F0 FF FF  7F 73 30 35 38 01 80 01  .........s058...
0250: 63 02 45 06 80 F0 FF FF  7F F0 FF FF 7F 73 30 30  c.E..........s00
0260: 38 01 80 4C 29 0B E2 00  0C 01 3A 4D 29 0B E2 00  8..L).....:M)...
0270: 0C 01 3B 4A F0 FF FF 7F  E2 00 0C 01 1C 0C 80 02  ..;J............
0280: 09 10 0D 80 00 99 02 52  06 80 F0 FF FF 7F F0 FF  .......R........
0290: FF 7F 73 30 35 38 01 A8  02 52 06 80 F0 FF FF 7F  ..s058...R......
02A0: F0 FF FF 7F 73 30 30 38  45 00 80 F8 FF FF 7F F8  ....s008E.......
02B0: FF FF 7F 66 64 6F 31 01  80 1C 02 80 27 0B F0 FF  ...fdo1.....'...
02C0: FF 7F 23 2A 0B F0 FF FF  7F 02 09 10 0D 80 00 E5  ..#*............
02D0: 02 45 06 80 F0 FF FF 7F  F0 FF FF 7F 73 30 36 32  .E..........s062
02E0: 01 80 01 F6 02 45 06 80  F0 FF FF 7F F0 FF FF 7F  .....E..........
02F0: 73 30 30 39 01 80 1C 02  80 45 00 80 F8 FF FF 7F  s009.....E......
0300: F8 FF FF 7F 66 64 69 31  01 80 1C 0C 80 29 0B E2  ....fdi1.....)..
0310: 00 0C 01 3C 45 06 80 F0  FF FF 7F F0 FF FF 7F 73  ...<E..........s
0320: 30 31 30 01 80 4B E2 00  0C 01 0E 80 29 0B E2 00  010..K......)...
0330: 0C 01 3D 52 06 80 F0 FF  FF 7F F0 FF FF 7F 73 30  ..=R..........s0
0340: 31 30 02 09 10 0D 80 00  5E 03 45 06 80 F0 FF FF  10......^.E.....
0350: 7F F0 FF FF 7F 73 30 36  32 01 80 01 6F 03 45 06  .....s062...o.E.
0360: 80 F0 FF FF 7F F0 FF FF  7F 73 30 30 39 01 80 4A  .........s009..J
0370: E2 00 0C 01 F0 FF FF 7F  6F 76 E2 00 0C 01 29 0B  ........ov....).
0380: E2 00 0C 01 3E 29 0B E2  00 0C 01 3F 45 00 80 F8  ....>).....?E...
0390: FF FF 7F F8 FF FF 7F 66  64 6F 31 01 80 1C 02 80  .......fdo1.....
03A0: 45 06 80 F0 FF FF 7F F0  FF FF 7F 73 30 31 32 01  E..........s012.
03B0: 80 45 00 80 F8 FF FF 7F  F8 FF FF 7F 66 64 69 31  .E..........fdi1
03C0: 01 80 29 0B E2 00 0C 01  40 55 06 80 F0 FF FF 7F  ..).....@U......
03D0: F0 FF FF 7F 73 30 31 32  45 00 80 F8 FF FF 7F F8  ....s012E.......
03E0: FF FF 7F 66 64 6F 31 01  80 1C 02 80 45 06 80 F0  ...fdo1.....E...
03F0: FF FF 7F F0 FF FF 7F 73  30 30 38 01 80 45 00 80  .......s008..E..
0400: F8 FF FF 7F F8 FF FF 7F  66 64 69 31 01 80 27 0B  ........fdi1..'.
0410: E2 00 0C 01 31 4B F0 FF  FF 7F 0F 80 1C 0C 80 2B  ....1K.........+
0420: E2 00 0C 01 10 80 23 4B  F0 FF FF 7F 11 80 2A 0B  ......#K......*.
0430: E2 00 0C 01 27 0B E2 00  0C 01 32 5D 01 80 05 80  ....'.....2]....
0440: 1C 12 80 45 00 80 F8 FF  FF 7F F8 FF FF 7F 66 64  ...E..........fd
0450: 6F 31 01 80 1C 02 80 2A  0B E2 00 0C 01 4E 00 F0  o1.....*.....N..
0460: FF FF 7F 46 00 5C 00 01  80 5C 01 01 80 5D 04 80  ...F.\...\...]..
0470: 00 80 1C 13 80 45 00 80  F8 FF FF 7F F8 FF FF 7F  .....E..........
0480: 66 64 69 31 01 80 20 00  21 00                    fdi1.. .!.      
```

#### Opcodes

```
  0: 0x0000 [0x20] SET_CLI_EVENT_UC_FLAG: Lock player control
  1: 0x0002 [0x46] CAMERA_CONTROL: Disable user control
  2: 0x0004 [0x42] SET_CLI_EVENT_CANCEL_DATA()
  3: 0x0005 [0x45] LOAD_SCHEDULED_TASK: Load scheduler "fdo1" with entities [EventEntity, EventEntity], work=[200*, 0*]
  4: 0x0016 [0x4C] EventEntity->StatusEvent = 8 // Open door
  5: 0x0017 [0x1C] WAIT(60* ticks)
  6: 0x001A [0x38] SET_CLIENT_EVENT_MODE(mode=19*)
  7: 0x001D [0x5C] MUSIC_CONTROL: Set Idle (Day) music to song 127*
  8: 0x0021 [0x5C] MUSIC_CONTROL: Set Idle (Night) music to song 127*
  9: 0x0025 [0x29] REQ_SET_WAIT(priority=0x08, entity_id=LocalPlayer, tag_num=0x05)
 10: 0x002C [0x29] REQ_SET_WAIT(priority=0x08, entity_id=LocalPlayer, tag_num=0x21)
 11: 0x0033 [0x29] REQ_SET_WAIT(priority=0x0B, entity_id=Ajido-Marujido (ID: 17563874/0x010C00E2), tag_num=0x2C)
 12: 0x003A [0x1C] WAIT(60* ticks)
 13: 0x003D [0x4D] EventEntity->StatusEvent = 9 // Close door
 14: 0x003E [0x1C] WAIT(300* ticks)
 15: 0x0041 [0x22] ENTITY_HIDE_FLAG(enabled=0x00)
 16: 0x0043 [0x22] ENTITY_HIDE_FLAG(enabled=0x00)
 17: 0x0045 [0x80] LOAD_WAIT(entity=Apururu (ID: 17563875/0x010C00E3))
 18: 0x004A [0x80] LOAD_WAIT(entity=Ajido-Marujido (ID: 17563874/0x010C00E2))
 19: 0x004F [0x29] REQ_SET_WAIT(priority=0x0B, entity_id=Apururu (ID: 17563875/0x010C00E3), tag_num=0x28)
 20: 0x0056 [0x45] LOAD_SCHEDULED_TASK: Load scheduler "s000" with entities [LocalPlayer, LocalPlayer], work=[92*, 0*]
 21: 0x0067 [0x45] LOAD_SCHEDULED_TASK: Load scheduler "fdi1" with entities [EventEntity, EventEntity], work=[200*, 0*]
 22: 0x0078 [0x29] REQ_SET_WAIT(priority=0x0B, entity_id=Apururu (ID: 17563875/0x010C00E3), tag_num=0x29)
 23: 0x007F [0x55] WAIT_LOAD_SCHEDULER: Wait for scheduler "s000" with entities [LocalPlayer, LocalPlayer], work=92*
 24: 0x008E [0x45] LOAD_SCHEDULED_TASK: Load scheduler "s015" with entities [LocalPlayer, LocalPlayer], work=[92*, 0*]
 25: 0x009F [0x29] REQ_SET_WAIT(priority=0x0B, entity_id=Apururu (ID: 17563875/0x010C00E3), tag_num=0x2A)
 26: 0x00A6 [0x45] LOAD_SCHEDULED_TASK: Load scheduler "s001" with entities [LocalPlayer, LocalPlayer], work=[92*, 0*]
 27: 0x00B7 [0x27] REQ_SET(priority=0x0B, entity_id=Ajido-Marujido (ID: 17563874/0x010C00E2), tag_num=0x33)
 28: 0x00BE [0x2B] Ajido-Marujido (ID: 17563874/0x010C00E2) [7259*]:
    → "Whataru do they know!?"
 29: 0x00C5 [0x23] WAIT_FOR_DIALOG_INTERACTION
 30: 0x00C6 [0x2A] GET_REQ_LEVEL(level=11, entity_id=Ajido-Marujido (ID: 17563874/0x010C00E2))
 31: 0x00CC [0x6F] WAIT_FRAME_DELAY: Yield until WaitTime reaches zero
 32: 0x00CD [0x76] CHECK_ENTITY_RENDER_FLAGS: Wait until Ajido-Marujido (ID: 17563874/0x010C00E2) Render.Flags0 and Render.Flags3 conditions are met
 33: 0x00D2 [0x29] REQ_SET_WAIT(priority=0x0B, entity_id=Ajido-Marujido (ID: 17563874/0x010C00E2), tag_num=0x36)
 34: 0x00D9 [0x52] END_LOAD_SCHEDULER: End scheduler "s001" with entities [LocalPlayer, LocalPlayer], work=92*
 35: 0x00E8 [0x45] LOAD_SCHEDULED_TASK: Load scheduler "s002" with entities [LocalPlayer, LocalPlayer], work=[92*, 0*]
 36: 0x00F9 [0x27] REQ_SET(priority=0x0A, entity_id=Ajido-Marujido (ID: 17563874/0x010C00E2), tag_num=0x34)
 37: 0x0100 [0x2B] Ajido-Marujido (ID: 17563874/0x010C00E2) [7261*]:
    → "Why do you think they all fear war, but won't lift a finger-winger to do anything about it?"
 38: 0x0107 [0x23] WAIT_FOR_DIALOG_INTERACTION
 39: 0x0108 [0x2B] Ajido-Marujido (ID: 17563874/0x010C00E2) [7262*]:
    → "They all say that Windurst has "peace and security, peace and security," but do you really-weally think our country has peace?"
 40: 0x010F [0x23] WAIT_FOR_DIALOG_INTERACTION
 41: 0x0110 [0x52] END_LOAD_SCHEDULER: End scheduler "s002" with entities [LocalPlayer, LocalPlayer], work=92*
 42: 0x011F [0x45] LOAD_SCHEDULED_TASK: Load scheduler "s004" with entities [LocalPlayer, LocalPlayer], work=[92*, 0*]
 43: 0x0130 [0x2B] Ajido-Marujido (ID: 17563874/0x010C00E2) [7263*]:
    → "The wounds the Orastery received from the war haven't healed, even after twenty-odd years. The best of the War Warlock mages are dying off, unable to train new, younger replacementarus."
 44: 0x0137 [0x23] WAIT_FOR_DIALOG_INTERACTION
 45: 0x0138 [0x2B] Ajido-Marujido (ID: 17563874/0x010C00E2) [7264*]:
    → "Just imagine what would happen if war broke out again. Windurst would be obliterated in an instantaru. That's why...that's why we need some grand new magic..."
 46: 0x013F [0x23] WAIT_FOR_DIALOG_INTERACTION
 47: 0x0140 [0x29] REQ_SET_WAIT(priority=0x0B, entity_id=Apururu (ID: 17563875/0x010C00E3), tag_num=0x2B)
 48: 0x0147 [0x52] END_LOAD_SCHEDULER: End scheduler "s004" with entities [LocalPlayer, LocalPlayer], work=92*
 49: 0x0156 [0x45] LOAD_SCHEDULED_TASK: Load scheduler "s005" with entities [LocalPlayer, LocalPlayer], work=[92*, 0*]
 50: 0x0167 [0x2A] GET_REQ_LEVEL(level=10, entity_id=Ajido-Marujido (ID: 17563874/0x010C00E2))
 51: 0x016D [0x29] REQ_SET_WAIT(priority=0x0B, entity_id=Ajido-Marujido (ID: 17563874/0x010C00E2), tag_num=0x38)
 52: 0x0174 [0x45] LOAD_SCHEDULED_TASK: Load scheduler "s003" with entities [LocalPlayer, LocalPlayer], work=[92*, 0*]
 53: 0x0185 [0x4A] Ajido-Marujido (ID: 17563874/0x010C00E2) looks at Apururu (ID: 17563875/0x010C00E3)
 54: 0x018E [0x29] REQ_SET_WAIT(priority=0x0B, entity_id=Apururu (ID: 17563875/0x010C00E3), tag_num=0x2C)
 55: 0x0195 [0x4A] Apururu (ID: 17563875/0x010C00E3) looks at Ajido-Marujido (ID: 17563874/0x010C00E2)
 56: 0x019E [0x45] LOAD_SCHEDULED_TASK: Load scheduler "s048" with entities [LocalPlayer, LocalPlayer], work=[92*, 0*]
 57: 0x01AF [0x6F] WAIT_FRAME_DELAY: Yield until WaitTime reaches zero
 58: 0x01B0 [0x76] CHECK_ENTITY_RENDER_FLAGS: Wait until Apururu (ID: 17563875/0x010C00E3) Render.Flags0 and Render.Flags3 conditions are met
 59: 0x01B5 [0x29] REQ_SET_WAIT(priority=0x0B, entity_id=Apururu (ID: 17563875/0x010C00E3), tag_num=0x2D)
 60: 0x01BC [0x45] LOAD_SCHEDULED_TASK: Load scheduler "s049" with entities [LocalPlayer, LocalPlayer], work=[92*, 0*]
 61: 0x01CD [0x29] REQ_SET_WAIT(priority=0x0B, entity_id=Ajido-Marujido (ID: 17563874/0x010C00E2), tag_num=0x39)
 62: 0x01D4 [0x45] LOAD_SCHEDULED_TASK: Load scheduler "s048" with entities [LocalPlayer, LocalPlayer], work=[92*, 0*]
 63: 0x01E5 [0x29] REQ_SET_WAIT(priority=0x0B, entity_id=Apururu (ID: 17563875/0x010C00E3), tag_num=0x2E)
 64: 0x01EC [0x45] LOAD_SCHEDULED_TASK: Load scheduler "s007" with entities [LocalPlayer, LocalPlayer], work=[92*, 0*]
 65: 0x01FD [0x27] REQ_SET(priority=0x0B, entity_id=LocalPlayer, tag_num=0x22)
 66: 0x0204 [0x1C] WAIT(50* ticks)
 67: 0x0207 [0x27] REQ_SET(priority=0x0B, entity_id=Apururu (ID: 17563875/0x010C00E3), tag_num=0x26)
 68: 0x020E [0x2A] GET_REQ_LEVEL(level=11, entity_id=Apururu (ID: 17563875/0x010C00E3))
 69: 0x0214 [0x27] REQ_SET(priority=0x0B, entity_id=Apururu (ID: 17563875/0x010C00E3), tag_num=0x27)
 70: 0x021B [0x2A] GET_REQ_LEVEL(level=11, entity_id=LocalPlayer)
 71: 0x0221 [0x2A] GET_REQ_LEVEL(level=11, entity_id=Apururu (ID: 17563875/0x010C00E3))
 72: 0x0227 [0x55] WAIT_LOAD_SCHEDULER: Wait for scheduler "s007" with entities [LocalPlayer, LocalPlayer], work=92*
 73: 0x0236 [0x02] IF !(Work_Zone[9] == 8*) GOTO 0x0252
 74: 0x023E [0x45] LOAD_SCHEDULED_TASK: Load scheduler "s058" with entities [LocalPlayer, LocalPlayer], work=[92*, 0*]
 75: 0x024F [0x01] GOTO 0x0263
 76: 0x0252 [0x45] LOAD_SCHEDULED_TASK: Load scheduler "s008" with entities [LocalPlayer, LocalPlayer], work=[92*, 0*]

SUBROUTINE_0263:
 77: 0x0263 [0x4C] EventEntity->StatusEvent = 8 // Open door
 78: 0x0264 [0x29] REQ_SET_WAIT(priority=0x0B, entity_id=Ajido-Marujido (ID: 17563874/0x010C00E2), tag_num=0x3A)
 79: 0x026B [0x4D] EventEntity->StatusEvent = 9 // Close door
 80: 0x026C [0x29] REQ_SET_WAIT(priority=0x0B, entity_id=Ajido-Marujido (ID: 17563874/0x010C00E2), tag_num=0x3B)
 81: 0x0273 [0x4A] LocalPlayer looks at Ajido-Marujido (ID: 17563874/0x010C00E2)
 82: 0x027C [0x1C] WAIT(50* ticks)
 83: 0x027F [0x02] IF !(Work_Zone[9] == 8*) GOTO 0x0299
 84: 0x0287 [0x52] END_LOAD_SCHEDULER: End scheduler "s058" with entities [LocalPlayer, LocalPlayer], work=92*
 85: 0x0296 [0x01] GOTO 0x02A8
 86: 0x0299 [0x52] END_LOAD_SCHEDULER: End scheduler "s008" with entities [LocalPlayer, LocalPlayer], work=92*

SUBROUTINE_02A8:
 87: 0x02A8 [0x45] LOAD_SCHEDULED_TASK: Load scheduler "fdo1" with entities [EventEntity, EventEntity], work=[200*, 0*]
 88: 0x02B9 [0x1C] WAIT(60* ticks)
 89: 0x02BC [0x27] REQ_SET(priority=0x0B, entity_id=LocalPlayer, tag_num=0x23)
 90: 0x02C3 [0x2A] GET_REQ_LEVEL(level=11, entity_id=LocalPlayer)
 91: 0x02C9 [0x02] IF !(Work_Zone[9] == 8*) GOTO 0x02E5
 92: 0x02D1 [0x45] LOAD_SCHEDULED_TASK: Load scheduler "s062" with entities [LocalPlayer, LocalPlayer], work=[92*, 0*]
 93: 0x02E2 [0x01] GOTO 0x02F6
 94: 0x02E5 [0x45] LOAD_SCHEDULED_TASK: Load scheduler "s009" with entities [LocalPlayer, LocalPlayer], work=[92*, 0*]

SUBROUTINE_02F6:
 95: 0x02F6 [0x1C] WAIT(60* ticks)
 96: 0x02F9 [0x45] LOAD_SCHEDULED_TASK: Load scheduler "fdi1" with entities [EventEntity, EventEntity], work=[200*, 0*]
 97: 0x030A [0x1C] WAIT(50* ticks)
 98: 0x030D [0x29] REQ_SET_WAIT(priority=0x0B, entity_id=Ajido-Marujido (ID: 17563874/0x010C00E2), tag_num=0x3C)
 99: 0x0314 [0x45] LOAD_SCHEDULED_TASK: Load scheduler "s010" with entities [LocalPlayer, LocalPlayer], work=[92*, 0*]
100: 0x0325 [0x4B] UPDATE_ENTITY_YAW(entity=Ajido-Marujido (ID: 17563874/0x010C00E2), yaw=5.5°*)
101: 0x032C [0x29] REQ_SET_WAIT(priority=0x0B, entity_id=Ajido-Marujido (ID: 17563874/0x010C00E2), tag_num=0x3D)
102: 0x0333 [0x52] END_LOAD_SCHEDULER: End scheduler "s010" with entities [LocalPlayer, LocalPlayer], work=92*
103: 0x0342 [0x02] IF !(Work_Zone[9] == 8*) GOTO 0x035E
104: 0x034A [0x45] LOAD_SCHEDULED_TASK: Load scheduler "s062" with entities [LocalPlayer, LocalPlayer], work=[92*, 0*]
105: 0x035B [0x01] GOTO 0x036F
106: 0x035E [0x45] LOAD_SCHEDULED_TASK: Load scheduler "s009" with entities [LocalPlayer, LocalPlayer], work=[92*, 0*]

SUBROUTINE_036F:
107: 0x036F [0x4A] Ajido-Marujido (ID: 17563874/0x010C00E2) looks at LocalPlayer
108: 0x0378 [0x6F] WAIT_FRAME_DELAY: Yield until WaitTime reaches zero
109: 0x0379 [0x76] CHECK_ENTITY_RENDER_FLAGS: Wait until Ajido-Marujido (ID: 17563874/0x010C00E2) Render.Flags0 and Render.Flags3 conditions are met
110: 0x037E [0x29] REQ_SET_WAIT(priority=0x0B, entity_id=Ajido-Marujido (ID: 17563874/0x010C00E2), tag_num=0x3E)
111: 0x0385 [0x29] REQ_SET_WAIT(priority=0x0B, entity_id=Ajido-Marujido (ID: 17563874/0x010C00E2), tag_num=0x3F)
112: 0x038C [0x45] LOAD_SCHEDULED_TASK: Load scheduler "fdo1" with entities [EventEntity, EventEntity], work=[200*, 0*]
113: 0x039D [0x1C] WAIT(60* ticks)
114: 0x03A0 [0x45] LOAD_SCHEDULED_TASK: Load scheduler "s012" with entities [LocalPlayer, LocalPlayer], work=[92*, 0*]
115: 0x03B1 [0x45] LOAD_SCHEDULED_TASK: Load scheduler "fdi1" with entities [EventEntity, EventEntity], work=[200*, 0*]
116: 0x03C2 [0x29] REQ_SET_WAIT(priority=0x0B, entity_id=Ajido-Marujido (ID: 17563874/0x010C00E2), tag_num=0x40)
117: 0x03C9 [0x55] WAIT_LOAD_SCHEDULER: Wait for scheduler "s012" with entities [LocalPlayer, LocalPlayer], work=92*
118: 0x03D8 [0x45] LOAD_SCHEDULED_TASK: Load scheduler "fdo1" with entities [EventEntity, EventEntity], work=[200*, 0*]
119: 0x03E9 [0x1C] WAIT(60* ticks)
120: 0x03EC [0x45] LOAD_SCHEDULED_TASK: Load scheduler "s008" with entities [LocalPlayer, LocalPlayer], work=[92*, 0*]
121: 0x03FD [0x45] LOAD_SCHEDULED_TASK: Load scheduler "fdi1" with entities [EventEntity, EventEntity], work=[200*, 0*]
122: 0x040E [0x27] REQ_SET(priority=0x0B, entity_id=Ajido-Marujido (ID: 17563874/0x010C00E2), tag_num=0x31)
123: 0x0415 [0x4B] UPDATE_ENTITY_YAW(entity=LocalPlayer, yaw=8.2°*)
124: 0x041C [0x1C] WAIT(50* ticks)
125: 0x041F [0x2B] Ajido-Marujido (ID: 17563874/0x010C00E2) [7280*]:
    → "Oh, and one more thing... Don't go blabbing about what you just heard here, all rightaru?"
126: 0x0426 [0x23] WAIT_FOR_DIALOG_INTERACTION
127: 0x0427 [0x4B] UPDATE_ENTITY_YAW(entity=LocalPlayer, yaw=11.8°*)
128: 0x042E [0x2A] GET_REQ_LEVEL(level=11, entity_id=Ajido-Marujido (ID: 17563874/0x010C00E2))
129: 0x0434 [0x27] REQ_SET(priority=0x0B, entity_id=Ajido-Marujido (ID: 17563874/0x010C00E2), tag_num=0x32)
130: 0x043B [0x5D] SET_MUSIC_VOLUME(volume=0*, fade_time=300*)
131: 0x0440 [0x1C] WAIT(100* ticks)
132: 0x0443 [0x45] LOAD_SCHEDULED_TASK: Load scheduler "fdo1" with entities [EventEntity, EventEntity], work=[200*, 0*]
133: 0x0454 [0x1C] WAIT(60* ticks)
134: 0x0457 [0x2A] GET_REQ_LEVEL(level=11, entity_id=Ajido-Marujido (ID: 17563874/0x010C00E2))
135: 0x045D [0x4E] SET_ENTITY_HIDE_FLAG: Show LocalPlayer
136: 0x0463 [0x46] CAMERA_CONTROL: Restore default settings
137: 0x0465 [0x5C] MUSIC_CONTROL: Set Idle (Day) music to song 0*
138: 0x0469 [0x5C] MUSIC_CONTROL: Set Idle (Night) music to song 0*
139: 0x046D [0x5D] SET_MUSIC_VOLUME(volume=127*, fade_time=200*)
140: 0x0472 [0x1C] WAIT(120* ticks)
141: 0x0475 [0x45] LOAD_SCHEDULED_TASK: Load scheduler "fdi1" with entities [EventEntity, EventEntity], work=[200*, 0*]
142: 0x0486 [0x20] SET_CLI_EVENT_UC_FLAG: Unlock player control
143: 0x0488 [0x21] END_EVENT
144: 0x0489 [0x00] END_REQSTACK()
```
