# 17563878 - Nanaa Mihgo

## Common Data

| Field            | Value                          |
|------------------|--------------------------------|
| Zone             | Inner Horutoto Ruins (ID: 192) |
| Block Size       | 1140 bytes                     |
| Total Events     | 51                             |
| References Count | 22                             |

## List of Events

| Event ID                   | Entrypoint   |   Size |   Instructions |
|----------------------------|--------------|--------|----------------|
| [65535](#event-65535)      | 0x0000       |      1 |              1 |
| [65535.1](#event-655351)   | 0x0001       |     16 |              2 |
| [65535.2](#event-655352)   | 0x0011       |     22 |              4 |
| [65535.3](#event-655353)   | 0x0027       |     22 |              3 |
| [65535.4](#event-655354)   | 0x003D       |     14 |              2 |
| [65535.5](#event-655355)   | 0x004B       |     16 |              2 |
| [65535.6](#event-655356)   | 0x005B       |     20 |              3 |
| [65535.7](#event-655357)   | 0x006F       |     16 |              2 |
| [65535.8](#event-655358)   | 0x007F       |     14 |              2 |
| [65535.9](#event-655359)   | 0x008D       |     16 |              2 |
| [65535.10](#event-6553510) | 0x009D       |     19 |              3 |
| [65535.11](#event-6553511) | 0x00B0       |     16 |              2 |
| [65535.12](#event-6553512) | 0x00C0       |     19 |              3 |
| [65535.13](#event-6553513) | 0x00D3       |     22 |              3 |
| [65535.14](#event-6553514) | 0x00E9       |     14 |              2 |
| [65535.15](#event-6553515) | 0x00F7       |     16 |              2 |
| [65535.16](#event-6553516) | 0x0107       |     20 |              3 |
| [65535.17](#event-6553517) | 0x011B       |     16 |              2 |
| [65535.18](#event-6553518) | 0x012B       |     14 |              2 |
| [65535.19](#event-6553519) | 0x0139       |     16 |              2 |
| [65535.20](#event-6553520) | 0x0149       |     14 |              2 |
| [65535.21](#event-6553521) | 0x0157       |     16 |              2 |
| [65535.22](#event-6553522) | 0x0167       |     14 |              2 |
| [65535.23](#event-6553523) | 0x0175       |     16 |              2 |
| [65535.24](#event-6553524) | 0x0185       |     14 |              2 |
| [65535.25](#event-6553525) | 0x0193       |     16 |              2 |
| [65535.26](#event-6553526) | 0x01A3       |     14 |              2 |
| [65535.27](#event-6553527) | 0x01B1       |     16 |              2 |
| [65535.28](#event-6553528) | 0x01C1       |     14 |              2 |
| [65535.29](#event-6553529) | 0x01CF       |     16 |              2 |
| [65535.30](#event-6553530) | 0x01DF       |     14 |              2 |
| [65535.31](#event-6553531) | 0x01ED       |     16 |              2 |
| [65535.32](#event-6553532) | 0x01FD       |     14 |              2 |
| [65535.33](#event-6553533) | 0x020B       |     16 |              2 |
| [65535.34](#event-6553534) | 0x021B       |     14 |              2 |
| [65535.35](#event-6553535) | 0x0229       |     16 |              2 |
| [65535.36](#event-6553536) | 0x0239       |     14 |              2 |
| [65535.37](#event-6553537) | 0x0247       |      9 |              3 |
| [46](#event-46)            | 0x0250       |      7 |              2 |
| [65535.38](#event-6553538) | 0x0257       |     10 |              2 |
| [65535.39](#event-6553539) | 0x0261       |     20 |              5 |
| [65535.40](#event-6553540) | 0x0275       |     30 |              6 |
| [65535.41](#event-6553541) | 0x0293       |      5 |              3 |
| [65535.42](#event-6553542) | 0x0298       |     15 |              3 |
| [65535.43](#event-6553543) | 0x02A7       |      5 |              3 |
| [65535.44](#event-6553544) | 0x02AC       |     26 |              6 |
| [65535.45](#event-6553545) | 0x02C6       |     30 |              8 |
| [65535.46](#event-6553546) | 0x02E4       |     26 |              6 |
| [65535.47](#event-6553547) | 0x02FE       |      5 |              3 |
| [65535.48](#event-6553548) | 0x0303       |     16 |              6 |
| [65535.49](#event-6553549) | 0x0313       |     43 |              7 |

## DAT References (imed_data)

|   Index | Hex Value   |   Dec Value |
|---------|-------------|-------------|
|       0 | 0x0172      |         370 |
|       1 | 0x001E      |          30 |
|       2 | 0x016E      |         366 |
|       3 | 0x0166      |         358 |
|       4 | 0x0190      |         400 |
|       5 | 0x0168      |         360 |
|       6 | 0x0164      |         356 |
|       7 | 0xFFFFC4E8  |  4294952168 |
|       8 | 0x4CFC      |       19708 |
|       9 | 0x0000      |           0 |
|      10 | 0x07E8      |        2024 |
|      11 | 0x000D      |          13 |
|      12 | 0xFFFFA5BF  |  4294944191 |
|      13 | 0x1C75      |        7285 |
|      14 | 0x1C7A      |        7290 |
|      15 | 0x1C84      |        7300 |
|      16 | 0x1C85      |        7301 |
|      17 | 0x1C86      |        7302 |
|      18 | 0x1C8A      |        7306 |
|      19 | 0x1C8D      |        7309 |
|      20 | 0x1C98      |        7320 |
|      21 | 0x1C99      |        7321 |

## String References

- **7285**: Thank you for kindly coming all this way to carry out our little trrransaction.
- **7290**: Huh...?
- **7300**: Alrrright, I'll tell you then... All you wish to know is their wherrreabouts, right?
- **7301**: The boxes you seek are hidden in the old summoner's rrresidence in Windurst Walls...the "House of the Hero."
- **7302**: Now that I've told you, you can stop chasing us around, alrrright?
- **7306**: Of course I'm telling the trrruth. I know only too well that you Carrrdians can detect when someone is lying!
- **7309**: Why, you double-crrrossing...
- **7320**: You know that the second you lay hands on those boxes, the Carrrdians are going to go after you, don't you?
- **7321**: Well, I suppose if it means an end to being tailed by those crrreepy Carrrdians and you, my pesky little man, then it is a small prrrice to pay.

## Events

### Event 65535

#### Metadata

| Field        | Value   |
|--------------|---------|
| Entrypoint   | 0x0000  |
| Data Size    | 1 bytes |
| Instructions | 1       |

```
      00 01 02 03 04 05 06 07  08 09 0A 0B 0C 0D 0E 0F
      -- -- -- -- -- -- -- --  -- -- -- -- -- -- -- --
0000: 00                                                .               
```

#### Opcodes

```
  0: 0x0000 [0x00] END_REQSTACK()
```

### Event 65535.1

#### Metadata

| Field        | Value    |
|--------------|----------|
| Entrypoint   | 0x0001   |
| Data Size    | 16 bytes |
| Instructions | 2        |

```
      00 01 02 03 04 05 06 07  08 09 0A 0B 0C 0D 0E 0F
      -- -- -- -- -- -- -- --  -- -- -- -- -- -- -- --
0000:    5B 00 80 F8 FF FF 7F  F8 FF FF 7F 74 6C 6B 30   [..........tlk0
0010: 00                                                .               
```

#### Opcodes

```
  0: 0x0001 [0x5B] LOAD_EXT_SCHEDULER: Load scheduler "tlk0" with entities [EventEntity, EventEntity], work=370*
  1: 0x0010 [0x00] END_REQSTACK()
```

### Event 65535.2

#### Metadata

| Field        | Value    |
|--------------|----------|
| Entrypoint   | 0x0011   |
| Data Size    | 22 bytes |
| Instructions | 4        |

```
      00 01 02 03 04 05 06 07  08 09 0A 0B 0C 0D 0E 0F
      -- -- -- -- -- -- -- --  -- -- -- -- -- -- -- --
0010:    53 F8 FF FF 7F F8 FF  FF 7F 74 6C 6B 30 5E 69   S........tlk0^i
0020: 64 6C 30 1C 01 80 00                              dl0....         
```

#### Opcodes

```
  0: 0x0011 [0x53] WAIT_SCHEDULER_TASK: Wait for scheduler "tlk0" with entities [EventEntity, EventEntity]
  1: 0x001E [0x5E] EventEntity goes idle (kills current action) (animation: "idl0")
  2: 0x0023 [0x1C] WAIT(30* ticks)
  3: 0x0026 [0x00] END_REQSTACK()
```

### Event 65535.3

#### Metadata

| Field        | Value    |
|--------------|----------|
| Entrypoint   | 0x0027   |
| Data Size    | 22 bytes |
| Instructions | 3        |

```
      00 01 02 03 04 05 06 07  08 09 0A 0B 0C 0D 0E 0F
      -- -- -- -- -- -- -- --  -- -- -- -- -- -- -- --
0020:                      81  00 F8 FF FF 7F 5B 02 80         ......[..
0030: F8 FF FF 7F F8 FF FF 7F  74 6C 6B 30 00           ........tlk0.   
```

#### Opcodes

```
  0: 0x0027 [0x81] SET_ENTITY_BLINKING(blink_flag=0x00, entity=EventEntity)
  1: 0x002D [0x5B] LOAD_EXT_SCHEDULER: Load scheduler "tlk0" with entities [EventEntity, EventEntity], work=366*
  2: 0x003C [0x00] END_REQSTACK()
```

### Event 65535.4

#### Metadata

| Field        | Value    |
|--------------|----------|
| Entrypoint   | 0x003D   |
| Data Size    | 14 bytes |
| Instructions | 2        |

```
      00 01 02 03 04 05 06 07  08 09 0A 0B 0C 0D 0E 0F
      -- -- -- -- -- -- -- --  -- -- -- -- -- -- -- --
0030:                                         53 F8 FF               S..
0040: FF 7F F8 FF FF 7F 74 6C  6B 30 00                 ......tlk0.     
```

#### Opcodes

```
  0: 0x003D [0x53] WAIT_SCHEDULER_TASK: Wait for scheduler "tlk0" with entities [EventEntity, EventEntity]
  1: 0x004A [0x00] END_REQSTACK()
```

### Event 65535.5

#### Metadata

| Field        | Value    |
|--------------|----------|
| Entrypoint   | 0x004B   |
| Data Size    | 16 bytes |
| Instructions | 2        |

```
      00 01 02 03 04 05 06 07  08 09 0A 0B 0C 0D 0E 0F
      -- -- -- -- -- -- -- --  -- -- -- -- -- -- -- --
0040:                                   5B 02 80 F8 FF             [....
0050: FF 7F F8 FF FF 7F 74 6C  6B 31 00                 ......tlk1.     
```

#### Opcodes

```
  0: 0x004B [0x5B] LOAD_EXT_SCHEDULER: Load scheduler "tlk1" with entities [EventEntity, EventEntity], work=366*
  1: 0x005A [0x00] END_REQSTACK()
```

### Event 65535.6

#### Metadata

| Field        | Value    |
|--------------|----------|
| Entrypoint   | 0x005B   |
| Data Size    | 20 bytes |
| Instructions | 3        |

```
      00 01 02 03 04 05 06 07  08 09 0A 0B 0C 0D 0E 0F
      -- -- -- -- -- -- -- --  -- -- -- -- -- -- -- --
0050:                                   53 F8 FF FF 7F             S....
0060: F8 FF FF 7F 74 6C 6B 31  81 01 F8 FF FF 7F 00     ....tlk1....... 
```

#### Opcodes

```
  0: 0x005B [0x53] WAIT_SCHEDULER_TASK: Wait for scheduler "tlk1" with entities [EventEntity, EventEntity]
  1: 0x0068 [0x81] SET_ENTITY_BLINKING(blink_flag=0x01, entity=EventEntity)
  2: 0x006E [0x00] END_REQSTACK()
```

### Event 65535.7

#### Metadata

| Field        | Value    |
|--------------|----------|
| Entrypoint   | 0x006F   |
| Data Size    | 16 bytes |
| Instructions | 2        |

```
      00 01 02 03 04 05 06 07  08 09 0A 0B 0C 0D 0E 0F
      -- -- -- -- -- -- -- --  -- -- -- -- -- -- -- --
0060:                                               5B                 [
0070: 00 80 F8 FF FF 7F F8 FF  FF 7F 74 6C 6B 31 00     ..........tlk1. 
```

#### Opcodes

```
  0: 0x006F [0x5B] LOAD_EXT_SCHEDULER: Load scheduler "tlk1" with entities [EventEntity, EventEntity], work=370*
  1: 0x007E [0x00] END_REQSTACK()
```

### Event 65535.8

#### Metadata

| Field        | Value    |
|--------------|----------|
| Entrypoint   | 0x007F   |
| Data Size    | 14 bytes |
| Instructions | 2        |

```
      00 01 02 03 04 05 06 07  08 09 0A 0B 0C 0D 0E 0F
      -- -- -- -- -- -- -- --  -- -- -- -- -- -- -- --
0070:                                               53                 S
0080: F8 FF FF 7F F8 FF FF 7F  74 6C 6B 31 00           ........tlk1.   
```

#### Opcodes

```
  0: 0x007F [0x53] WAIT_SCHEDULER_TASK: Wait for scheduler "tlk1" with entities [EventEntity, EventEntity]
  1: 0x008C [0x00] END_REQSTACK()
```

### Event 65535.9

#### Metadata

| Field        | Value    |
|--------------|----------|
| Entrypoint   | 0x008D   |
| Data Size    | 16 bytes |
| Instructions | 2        |

```
      00 01 02 03 04 05 06 07  08 09 0A 0B 0C 0D 0E 0F
      -- -- -- -- -- -- -- --  -- -- -- -- -- -- -- --
0080:                                         5B 00 80               [..
0090: F8 FF FF 7F F8 FF FF 7F  69 74 74 30 00           ........itt0.   
```

#### Opcodes

```
  0: 0x008D [0x5B] LOAD_EXT_SCHEDULER: Load scheduler "itt0" with entities [EventEntity, EventEntity], work=370*
  1: 0x009C [0x00] END_REQSTACK()
```

### Event 65535.10

#### Metadata

| Field        | Value    |
|--------------|----------|
| Entrypoint   | 0x009D   |
| Data Size    | 19 bytes |
| Instructions | 3        |

```
      00 01 02 03 04 05 06 07  08 09 0A 0B 0C 0D 0E 0F
      -- -- -- -- -- -- -- --  -- -- -- -- -- -- -- --
0090:                                         53 F8 FF               S..
00A0: FF 7F F8 FF FF 7F 69 74  74 30 5E 69 64 31 30 00  ......itt0^id10.
```

#### Opcodes

```
  0: 0x009D [0x53] WAIT_SCHEDULER_TASK: Wait for scheduler "itt0" with entities [EventEntity, EventEntity]
  1: 0x00AA [0x5E] EventEntity goes idle (kills current action) (animation: "id10")
  2: 0x00AF [0x00] END_REQSTACK()
```

### Event 65535.11

#### Metadata

| Field        | Value    |
|--------------|----------|
| Entrypoint   | 0x00B0   |
| Data Size    | 16 bytes |
| Instructions | 2        |

```
      00 01 02 03 04 05 06 07  08 09 0A 0B 0C 0D 0E 0F
      -- -- -- -- -- -- -- --  -- -- -- -- -- -- -- --
00B0: 5B 03 80 F8 FF FF 7F F8  FF FF 7F 69 74 74 31 00  [..........itt1.
```

#### Opcodes

```
  0: 0x00B0 [0x5B] LOAD_EXT_SCHEDULER: Load scheduler "itt1" with entities [EventEntity, EventEntity], work=358*
  1: 0x00BF [0x00] END_REQSTACK()
```

### Event 65535.12

#### Metadata

| Field        | Value    |
|--------------|----------|
| Entrypoint   | 0x00C0   |
| Data Size    | 19 bytes |
| Instructions | 3        |

```
      00 01 02 03 04 05 06 07  08 09 0A 0B 0C 0D 0E 0F
      -- -- -- -- -- -- -- --  -- -- -- -- -- -- -- --
00C0: 53 F8 FF FF 7F F8 FF FF  7F 69 74 74 31 5E 69 64  S........itt1^id
00D0: 6C 30 00                                          l0.             
```

#### Opcodes

```
  0: 0x00C0 [0x53] WAIT_SCHEDULER_TASK: Wait for scheduler "itt1" with entities [EventEntity, EventEntity]
  1: 0x00CD [0x5E] EventEntity goes idle (kills current action) (animation: "idl0")
  2: 0x00D2 [0x00] END_REQSTACK()
```

### Event 65535.13

#### Metadata

| Field        | Value    |
|--------------|----------|
| Entrypoint   | 0x00D3   |
| Data Size    | 22 bytes |
| Instructions | 3        |

```
      00 01 02 03 04 05 06 07  08 09 0A 0B 0C 0D 0E 0F
      -- -- -- -- -- -- -- --  -- -- -- -- -- -- -- --
00D0:          81 00 F8 FF FF  7F 5B 03 80 F8 FF FF 7F     ......[......
00E0: F8 FF FF 7F 6E 74 6F 30  00                       ....nto0.       
```

#### Opcodes

```
  0: 0x00D3 [0x81] SET_ENTITY_BLINKING(blink_flag=0x00, entity=EventEntity)
  1: 0x00D9 [0x5B] LOAD_EXT_SCHEDULER: Load scheduler "nto0" with entities [EventEntity, EventEntity], work=358*
  2: 0x00E8 [0x00] END_REQSTACK()
```

### Event 65535.14

#### Metadata

| Field        | Value    |
|--------------|----------|
| Entrypoint   | 0x00E9   |
| Data Size    | 14 bytes |
| Instructions | 2        |

```
      00 01 02 03 04 05 06 07  08 09 0A 0B 0C 0D 0E 0F
      -- -- -- -- -- -- -- --  -- -- -- -- -- -- -- --
00E0:                             53 F8 FF FF 7F F8 FF           S......
00F0: FF 7F 6E 74 6F 30 00                              ..nto0.         
```

#### Opcodes

```
  0: 0x00E9 [0x53] WAIT_SCHEDULER_TASK: Wait for scheduler "nto0" with entities [EventEntity, EventEntity]
  1: 0x00F6 [0x00] END_REQSTACK()
```

### Event 65535.15

#### Metadata

| Field        | Value    |
|--------------|----------|
| Entrypoint   | 0x00F7   |
| Data Size    | 16 bytes |
| Instructions | 2        |

```
      00 01 02 03 04 05 06 07  08 09 0A 0B 0C 0D 0E 0F
      -- -- -- -- -- -- -- --  -- -- -- -- -- -- -- --
00F0:                      5B  03 80 F8 FF FF 7F F8 FF         [........
0100: FF 7F 6E 74 6F 31 00                              ..nto1.         
```

#### Opcodes

```
  0: 0x00F7 [0x5B] LOAD_EXT_SCHEDULER: Load scheduler "nto1" with entities [EventEntity, EventEntity], work=358*
  1: 0x0106 [0x00] END_REQSTACK()
```

### Event 65535.16

#### Metadata

| Field        | Value    |
|--------------|----------|
| Entrypoint   | 0x0107   |
| Data Size    | 20 bytes |
| Instructions | 3        |

```
      00 01 02 03 04 05 06 07  08 09 0A 0B 0C 0D 0E 0F
      -- -- -- -- -- -- -- --  -- -- -- -- -- -- -- --
0100:                      53  F8 FF FF 7F F8 FF FF 7F         S........
0110: 6E 74 6F 31 81 01 F8 FF  FF 7F 00                 nto1.......     
```

#### Opcodes

```
  0: 0x0107 [0x53] WAIT_SCHEDULER_TASK: Wait for scheduler "nto1" with entities [EventEntity, EventEntity]
  1: 0x0114 [0x81] SET_ENTITY_BLINKING(blink_flag=0x01, entity=EventEntity)
  2: 0x011A [0x00] END_REQSTACK()
```

### Event 65535.17

#### Metadata

| Field        | Value    |
|--------------|----------|
| Entrypoint   | 0x011B   |
| Data Size    | 16 bytes |
| Instructions | 2        |

```
      00 01 02 03 04 05 06 07  08 09 0A 0B 0C 0D 0E 0F
      -- -- -- -- -- -- -- --  -- -- -- -- -- -- -- --
0110:                                   5B 04 80 F8 FF             [....
0120: FF 7F F8 FF FF 7F 79 6B  6F 30 00                 ......yko0.     
```

#### Opcodes

```
  0: 0x011B [0x5B] LOAD_EXT_SCHEDULER: Load scheduler "yko0" with entities [EventEntity, EventEntity], work=400*
  1: 0x012A [0x00] END_REQSTACK()
```

### Event 65535.18

#### Metadata

| Field        | Value    |
|--------------|----------|
| Entrypoint   | 0x012B   |
| Data Size    | 14 bytes |
| Instructions | 2        |

```
      00 01 02 03 04 05 06 07  08 09 0A 0B 0C 0D 0E 0F
      -- -- -- -- -- -- -- --  -- -- -- -- -- -- -- --
0120:                                   53 F8 FF FF 7F             S....
0130: F8 FF FF 7F 79 6B 6F 30  00                       ....yko0.       
```

#### Opcodes

```
  0: 0x012B [0x53] WAIT_SCHEDULER_TASK: Wait for scheduler "yko0" with entities [EventEntity, EventEntity]
  1: 0x0138 [0x00] END_REQSTACK()
```

### Event 65535.19

#### Metadata

| Field        | Value    |
|--------------|----------|
| Entrypoint   | 0x0139   |
| Data Size    | 16 bytes |
| Instructions | 2        |

```
      00 01 02 03 04 05 06 07  08 09 0A 0B 0C 0D 0E 0F
      -- -- -- -- -- -- -- --  -- -- -- -- -- -- -- --
0130:                             5B 04 80 F8 FF FF 7F           [......
0140: F8 FF FF 7F 79 6B 6F 31  00                       ....yko1.       
```

#### Opcodes

```
  0: 0x0139 [0x5B] LOAD_EXT_SCHEDULER: Load scheduler "yko1" with entities [EventEntity, EventEntity], work=400*
  1: 0x0148 [0x00] END_REQSTACK()
```

### Event 65535.20

#### Metadata

| Field        | Value    |
|--------------|----------|
| Entrypoint   | 0x0149   |
| Data Size    | 14 bytes |
| Instructions | 2        |

```
      00 01 02 03 04 05 06 07  08 09 0A 0B 0C 0D 0E 0F
      -- -- -- -- -- -- -- --  -- -- -- -- -- -- -- --
0140:                             53 F8 FF FF 7F F8 FF           S......
0150: FF 7F 79 6B 6F 31 00                              ..yko1.         
```

#### Opcodes

```
  0: 0x0149 [0x53] WAIT_SCHEDULER_TASK: Wait for scheduler "yko1" with entities [EventEntity, EventEntity]
  1: 0x0156 [0x00] END_REQSTACK()
```

### Event 65535.21

#### Metadata

| Field        | Value    |
|--------------|----------|
| Entrypoint   | 0x0157   |
| Data Size    | 16 bytes |
| Instructions | 2        |

```
      00 01 02 03 04 05 06 07  08 09 0A 0B 0C 0D 0E 0F
      -- -- -- -- -- -- -- --  -- -- -- -- -- -- -- --
0150:                      5B  04 80 F8 FF FF 7F F8 FF         [........
0160: FF 7F 6D 6B 75 30 00                              ..mku0.         
```

#### Opcodes

```
  0: 0x0157 [0x5B] LOAD_EXT_SCHEDULER: Load scheduler "mku0" with entities [EventEntity, EventEntity], work=400*
  1: 0x0166 [0x00] END_REQSTACK()
```

### Event 65535.22

#### Metadata

| Field        | Value    |
|--------------|----------|
| Entrypoint   | 0x0167   |
| Data Size    | 14 bytes |
| Instructions | 2        |

```
      00 01 02 03 04 05 06 07  08 09 0A 0B 0C 0D 0E 0F
      -- -- -- -- -- -- -- --  -- -- -- -- -- -- -- --
0160:                      53  F8 FF FF 7F F8 FF FF 7F         S........
0170: 6D 6B 75 30 00                                    mku0.           
```

#### Opcodes

```
  0: 0x0167 [0x53] WAIT_SCHEDULER_TASK: Wait for scheduler "mku0" with entities [EventEntity, EventEntity]
  1: 0x0174 [0x00] END_REQSTACK()
```

### Event 65535.23

#### Metadata

| Field        | Value    |
|--------------|----------|
| Entrypoint   | 0x0175   |
| Data Size    | 16 bytes |
| Instructions | 2        |

```
      00 01 02 03 04 05 06 07  08 09 0A 0B 0C 0D 0E 0F
      -- -- -- -- -- -- -- --  -- -- -- -- -- -- -- --
0170:                5B 03 80  F8 FF FF 7F F8 FF FF 7F       [..........
0180: 74 68 6B 31 00                                    thk1.           
```

#### Opcodes

```
  0: 0x0175 [0x5B] LOAD_EXT_SCHEDULER: Load scheduler "thk1" with entities [EventEntity, EventEntity], work=358*
  1: 0x0184 [0x00] END_REQSTACK()
```

### Event 65535.24

#### Metadata

| Field        | Value    |
|--------------|----------|
| Entrypoint   | 0x0185   |
| Data Size    | 14 bytes |
| Instructions | 2        |

```
      00 01 02 03 04 05 06 07  08 09 0A 0B 0C 0D 0E 0F
      -- -- -- -- -- -- -- --  -- -- -- -- -- -- -- --
0180:                53 F8 FF  FF 7F F8 FF FF 7F 74 68       S........th
0190: 6B 31 00                                          k1.             
```

#### Opcodes

```
  0: 0x0185 [0x53] WAIT_SCHEDULER_TASK: Wait for scheduler "thk1" with entities [EventEntity, EventEntity]
  1: 0x0192 [0x00] END_REQSTACK()
```

### Event 65535.25

#### Metadata

| Field        | Value    |
|--------------|----------|
| Entrypoint   | 0x0193   |
| Data Size    | 16 bytes |
| Instructions | 2        |

```
      00 01 02 03 04 05 06 07  08 09 0A 0B 0C 0D 0E 0F
      -- -- -- -- -- -- -- --  -- -- -- -- -- -- -- --
0190:          5B 03 80 F8 FF  FF 7F F8 FF FF 7F 74 68     [..........th
01A0: 6B 32 00                                          k2.             
```

#### Opcodes

```
  0: 0x0193 [0x5B] LOAD_EXT_SCHEDULER: Load scheduler "thk2" with entities [EventEntity, EventEntity], work=358*
  1: 0x01A2 [0x00] END_REQSTACK()
```

### Event 65535.26

#### Metadata

| Field        | Value    |
|--------------|----------|
| Entrypoint   | 0x01A3   |
| Data Size    | 14 bytes |
| Instructions | 2        |

```
      00 01 02 03 04 05 06 07  08 09 0A 0B 0C 0D 0E 0F
      -- -- -- -- -- -- -- --  -- -- -- -- -- -- -- --
01A0:          53 F8 FF FF 7F  F8 FF FF 7F 74 68 6B 32     S........thk2
01B0: 00                                                .               
```

#### Opcodes

```
  0: 0x01A3 [0x53] WAIT_SCHEDULER_TASK: Wait for scheduler "thk2" with entities [EventEntity, EventEntity]
  1: 0x01B0 [0x00] END_REQSTACK()
```

### Event 65535.27

#### Metadata

| Field        | Value    |
|--------------|----------|
| Entrypoint   | 0x01B1   |
| Data Size    | 16 bytes |
| Instructions | 2        |

```
      00 01 02 03 04 05 06 07  08 09 0A 0B 0C 0D 0E 0F
      -- -- -- -- -- -- -- --  -- -- -- -- -- -- -- --
01B0:    5B 03 80 F8 FF FF 7F  F8 FF FF 7F 70 6F 69 30   [..........poi0
01C0: 00                                                .               
```

#### Opcodes

```
  0: 0x01B1 [0x5B] LOAD_EXT_SCHEDULER: Load scheduler "poi0" with entities [EventEntity, EventEntity], work=358*
  1: 0x01C0 [0x00] END_REQSTACK()
```

### Event 65535.28

#### Metadata

| Field        | Value    |
|--------------|----------|
| Entrypoint   | 0x01C1   |
| Data Size    | 14 bytes |
| Instructions | 2        |

```
      00 01 02 03 04 05 06 07  08 09 0A 0B 0C 0D 0E 0F
      -- -- -- -- -- -- -- --  -- -- -- -- -- -- -- --
01C0:    53 F8 FF FF 7F F8 FF  FF 7F 70 6F 69 30 00      S........poi0. 
```

#### Opcodes

```
  0: 0x01C1 [0x53] WAIT_SCHEDULER_TASK: Wait for scheduler "poi0" with entities [EventEntity, EventEntity]
  1: 0x01CE [0x00] END_REQSTACK()
```

### Event 65535.29

#### Metadata

| Field        | Value    |
|--------------|----------|
| Entrypoint   | 0x01CF   |
| Data Size    | 16 bytes |
| Instructions | 2        |

```
      00 01 02 03 04 05 06 07  08 09 0A 0B 0C 0D 0E 0F
      -- -- -- -- -- -- -- --  -- -- -- -- -- -- -- --
01C0:                                               5B                 [
01D0: 05 80 F8 FF FF 7F F8 FF  FF 7F 70 6F 69 31 00     ..........poi1. 
```

#### Opcodes

```
  0: 0x01CF [0x5B] LOAD_EXT_SCHEDULER: Load scheduler "poi1" with entities [EventEntity, EventEntity], work=360*
  1: 0x01DE [0x00] END_REQSTACK()
```

### Event 65535.30

#### Metadata

| Field        | Value    |
|--------------|----------|
| Entrypoint   | 0x01DF   |
| Data Size    | 14 bytes |
| Instructions | 2        |

```
      00 01 02 03 04 05 06 07  08 09 0A 0B 0C 0D 0E 0F
      -- -- -- -- -- -- -- --  -- -- -- -- -- -- -- --
01D0:                                               53                 S
01E0: F8 FF FF 7F F8 FF FF 7F  70 6F 69 31 00           ........poi1.   
```

#### Opcodes

```
  0: 0x01DF [0x53] WAIT_SCHEDULER_TASK: Wait for scheduler "poi1" with entities [EventEntity, EventEntity]
  1: 0x01EC [0x00] END_REQSTACK()
```

### Event 65535.31

#### Metadata

| Field        | Value    |
|--------------|----------|
| Entrypoint   | 0x01ED   |
| Data Size    | 16 bytes |
| Instructions | 2        |

```
      00 01 02 03 04 05 06 07  08 09 0A 0B 0C 0D 0E 0F
      -- -- -- -- -- -- -- --  -- -- -- -- -- -- -- --
01E0:                                         5B 05 80               [..
01F0: F8 FF FF 7F F8 FF FF 7F  70 6F 69 32 00           ........poi2.   
```

#### Opcodes

```
  0: 0x01ED [0x5B] LOAD_EXT_SCHEDULER: Load scheduler "poi2" with entities [EventEntity, EventEntity], work=360*
  1: 0x01FC [0x00] END_REQSTACK()
```

### Event 65535.32

#### Metadata

| Field        | Value    |
|--------------|----------|
| Entrypoint   | 0x01FD   |
| Data Size    | 14 bytes |
| Instructions | 2        |

```
      00 01 02 03 04 05 06 07  08 09 0A 0B 0C 0D 0E 0F
      -- -- -- -- -- -- -- --  -- -- -- -- -- -- -- --
01F0:                                         53 F8 FF               S..
0200: FF 7F F8 FF FF 7F 70 6F  69 32 00                 ......poi2.     
```

#### Opcodes

```
  0: 0x01FD [0x53] WAIT_SCHEDULER_TASK: Wait for scheduler "poi2" with entities [EventEntity, EventEntity]
  1: 0x020A [0x00] END_REQSTACK()
```

### Event 65535.33

#### Metadata

| Field        | Value    |
|--------------|----------|
| Entrypoint   | 0x020B   |
| Data Size    | 16 bytes |
| Instructions | 2        |

```
      00 01 02 03 04 05 06 07  08 09 0A 0B 0C 0D 0E 0F
      -- -- -- -- -- -- -- --  -- -- -- -- -- -- -- --
0200:                                   5B 05 80 F8 FF             [....
0210: FF 7F F8 FF FF 7F 64 69  73 30 00                 ......dis0.     
```

#### Opcodes

```
  0: 0x020B [0x5B] LOAD_EXT_SCHEDULER: Load scheduler "dis0" with entities [EventEntity, EventEntity], work=360*
  1: 0x021A [0x00] END_REQSTACK()
```

### Event 65535.34

#### Metadata

| Field        | Value    |
|--------------|----------|
| Entrypoint   | 0x021B   |
| Data Size    | 14 bytes |
| Instructions | 2        |

```
      00 01 02 03 04 05 06 07  08 09 0A 0B 0C 0D 0E 0F
      -- -- -- -- -- -- -- --  -- -- -- -- -- -- -- --
0210:                                   53 F8 FF FF 7F             S....
0220: F8 FF FF 7F 64 69 73 30  00                       ....dis0.       
```

#### Opcodes

```
  0: 0x021B [0x53] WAIT_SCHEDULER_TASK: Wait for scheduler "dis0" with entities [EventEntity, EventEntity]
  1: 0x0228 [0x00] END_REQSTACK()
```

### Event 65535.35

#### Metadata

| Field        | Value    |
|--------------|----------|
| Entrypoint   | 0x0229   |
| Data Size    | 16 bytes |
| Instructions | 2        |

```
      00 01 02 03 04 05 06 07  08 09 0A 0B 0C 0D 0E 0F
      -- -- -- -- -- -- -- --  -- -- -- -- -- -- -- --
0220:                             5B 06 80 F8 FF FF 7F           [......
0230: F8 FF FF 7F 70 61 73 30  00                       ....pas0.       
```

#### Opcodes

```
  0: 0x0229 [0x5B] LOAD_EXT_SCHEDULER: Load scheduler "pas0" with entities [EventEntity, EventEntity], work=356*
  1: 0x0238 [0x00] END_REQSTACK()
```

### Event 65535.36

#### Metadata

| Field        | Value    |
|--------------|----------|
| Entrypoint   | 0x0239   |
| Data Size    | 14 bytes |
| Instructions | 2        |

```
      00 01 02 03 04 05 06 07  08 09 0A 0B 0C 0D 0E 0F
      -- -- -- -- -- -- -- --  -- -- -- -- -- -- -- --
0230:                             53 F8 FF FF 7F F8 FF           S......
0240: FF 7F 70 61 73 30 00                              ..pas0.         
```

#### Opcodes

```
  0: 0x0239 [0x53] WAIT_SCHEDULER_TASK: Wait for scheduler "pas0" with entities [EventEntity, EventEntity]
  1: 0x0246 [0x00] END_REQSTACK()
```

### Event 65535.37

#### Metadata

| Field        | Value   |
|--------------|---------|
| Entrypoint   | 0x0247  |
| Data Size    | 9 bytes |
| Instructions | 3       |

```
      00 01 02 03 04 05 06 07  08 09 0A 0B 0C 0D 0E 0F
      -- -- -- -- -- -- -- --  -- -- -- -- -- -- -- --
0240:                      5E  69 64 6C 30 1C 01 80 00         ^idl0....
```

#### Opcodes

```
  0: 0x0247 [0x5E] EventEntity goes idle (kills current action) (animation: "idl0")
  1: 0x024C [0x1C] WAIT(30* ticks)
  2: 0x024F [0x00] END_REQSTACK()
```

### Event 46

#### Metadata

| Field        | Value   |
|--------------|---------|
| Entrypoint   | 0x0250  |
| Data Size    | 7 bytes |
| Instructions | 2       |

```
      00 01 02 03 04 05 06 07  08 09 0A 0B 0C 0D 0E 0F
      -- -- -- -- -- -- -- --  -- -- -- -- -- -- -- --
0250: 4E 01 E6 00 0C 01 00                              N......         
```

#### Opcodes

```
  0: 0x0250 [0x4E] SET_ENTITY_HIDE_FLAG: Hide Nanaa Mihgo (ID: 17563878/0x010C00E6)
  1: 0x0256 [0x00] END_REQSTACK()
```

### Event 65535.38

#### Metadata

| Field        | Value    |
|--------------|----------|
| Entrypoint   | 0x0257   |
| Data Size    | 10 bytes |
| Instructions | 2        |

```
      00 01 02 03 04 05 06 07  08 09 0A 0B 0C 0D 0E 0F
      -- -- -- -- -- -- -- --  -- -- -- -- -- -- -- --
0250:                      37  07 80 08 80 09 80 0A 80         7........
0260: 00                                                .               
```

#### Opcodes

```
  0: 0x0257 [0x37] UPDATE_EVENT_POSITION_AND_DIR: x=-15.128*, z=19.708*, y=0.000*, direction=177.9°*
  1: 0x0260 [0x00] END_REQSTACK()
```

### Event 65535.39

#### Metadata

| Field        | Value    |
|--------------|----------|
| Entrypoint   | 0x0261   |
| Data Size    | 20 bytes |
| Instructions | 5        |

```
      00 01 02 03 04 05 06 07  08 09 0A 0B 0C 0D 0E 0F
      -- -- -- -- -- -- -- --  -- -- -- -- -- -- -- --
0260:    4E 00 E6 00 0C 01 32  0B 80 1F 00 0C 80 08 80   N.....2........
0270: 09 80 1F 01 00                                    .....           
```

#### Opcodes

```
  0: 0x0261 [0x4E] SET_ENTITY_HIDE_FLAG: Show Nanaa Mihgo (ID: 17563878/0x010C00E6)
  1: 0x0267 [0x32] ExtData[1]->MainSpeed = 13* * 0.1
  2: 0x026A [0x1F] MOVE_ENTITY: EventEntity moves to X=-23.105*, Z=19.708*, Y=0.000*
  3: 0x0272 [0x1F] MOVE_ENTITY: Update entity position (mode=1)
  4: 0x0274 [0x00] END_REQSTACK()
```

### Event 65535.40

#### Metadata

| Field        | Value    |
|--------------|----------|
| Entrypoint   | 0x0275   |
| Data Size    | 30 bytes |
| Instructions | 6        |

```
      00 01 02 03 04 05 06 07  08 09 0A 0B 0C 0D 0E 0F
      -- -- -- -- -- -- -- --  -- -- -- -- -- -- -- --
0270:                86 01 E6  00 0C 01 4A E6 00 0C 01       ......J....
0280: EB 00 0C 01 5E 69 64 6C  30 1C 01 80 86 00 E6 00  ....^idl0.......
0290: 0C 01 00                                          ...             
```

#### Opcodes

```
  0: 0x0275 [0x86] Nanaa Mihgo (ID: 17563878/0x010C00E6)->Render.Flags3 ^= 0x01
  1: 0x027B [0x4A] Nanaa Mihgo (ID: 17563878/0x010C00E6) looks at Ace of Swords (ID: 17563883/0x010C00EB)
  2: 0x0284 [0x5E] EventEntity goes idle (kills current action) (animation: "idl0")
  3: 0x0289 [0x1C] WAIT(30* ticks)
  4: 0x028C [0x86] Nanaa Mihgo (ID: 17563878/0x010C00E6)->Render.Flags3 = Flags3  // No change (flag=0)
  5: 0x0292 [0x00] END_REQSTACK()
```

### Event 65535.41

#### Metadata

| Field        | Value   |
|--------------|---------|
| Entrypoint   | 0x0293  |
| Data Size    | 5 bytes |
| Instructions | 3       |

```
      00 01 02 03 04 05 06 07  08 09 0A 0B 0C 0D 0E 0F
      -- -- -- -- -- -- -- --  -- -- -- -- -- -- -- --
0290:          1D 0D 80 23 00                              ...#.        
```

#### Opcodes

```
  0: 0x0293 [0x1D] PRINT_EVENT_MESSAGE(message_id=7285*)
    → "Thank you for kindly coming all this way to carry out our little trrransaction."
  1: 0x0296 [0x23] WAIT_FOR_DIALOG_INTERACTION
  2: 0x0297 [0x00] END_REQSTACK()
```

### Event 65535.42

#### Metadata

| Field        | Value    |
|--------------|----------|
| Entrypoint   | 0x0298   |
| Data Size    | 15 bytes |
| Instructions | 3        |

```
      00 01 02 03 04 05 06 07  08 09 0A 0B 0C 0D 0E 0F
      -- -- -- -- -- -- -- --  -- -- -- -- -- -- -- --
0290:                          29 08 E6 00 0C 01 11 29          )......)
02A0: 08 E6 00 0C 01 12 00                              .......         
```

#### Opcodes

```
  0: 0x0298 [0x29] REQ_SET_WAIT(priority=0x08, entity_id=Nanaa Mihgo (ID: 17563878/0x010C00E6), tag_num=0x11)
  1: 0x029F [0x29] REQ_SET_WAIT(priority=0x08, entity_id=Nanaa Mihgo (ID: 17563878/0x010C00E6), tag_num=0x12)
  2: 0x02A6 [0x00] END_REQSTACK()
```

### Event 65535.43

#### Metadata

| Field        | Value   |
|--------------|---------|
| Entrypoint   | 0x02A7  |
| Data Size    | 5 bytes |
| Instructions | 3       |

```
      00 01 02 03 04 05 06 07  08 09 0A 0B 0C 0D 0E 0F
      -- -- -- -- -- -- -- --  -- -- -- -- -- -- -- --
02A0:                      1D  0E 80 23 00                     ...#.    
```

#### Opcodes

```
  0: 0x02A7 [0x1D] PRINT_EVENT_MESSAGE(message_id=7290*)
    → "Huh...?"
  1: 0x02AA [0x23] WAIT_FOR_DIALOG_INTERACTION
  2: 0x02AB [0x00] END_REQSTACK()
```

### Event 65535.44

#### Metadata

| Field        | Value    |
|--------------|----------|
| Entrypoint   | 0x02AC   |
| Data Size    | 26 bytes |
| Instructions | 6        |

```
      00 01 02 03 04 05 06 07  08 09 0A 0B 0C 0D 0E 0F
      -- -- -- -- -- -- -- --  -- -- -- -- -- -- -- --
02A0:                                      29 08 E6 00              )...
02B0: 0C 01 01 1D 0F 80 23 29  08 E6 00 0C 01 07 29 08  ......#)......).
02C0: E6 00 0C 01 08 00                                 ......          
```

#### Opcodes

```
  0: 0x02AC [0x29] REQ_SET_WAIT(priority=0x08, entity_id=Nanaa Mihgo (ID: 17563878/0x010C00E6), tag_num=0x01)
  1: 0x02B3 [0x1D] PRINT_EVENT_MESSAGE(message_id=7300*)
    → "Alrrright, I'll tell you then... All you wish to know is their wherrreabouts, right?"
  2: 0x02B6 [0x23] WAIT_FOR_DIALOG_INTERACTION
  3: 0x02B7 [0x29] REQ_SET_WAIT(priority=0x08, entity_id=Nanaa Mihgo (ID: 17563878/0x010C00E6), tag_num=0x07)
  4: 0x02BE [0x29] REQ_SET_WAIT(priority=0x08, entity_id=Nanaa Mihgo (ID: 17563878/0x010C00E6), tag_num=0x08)
  5: 0x02C5 [0x00] END_REQSTACK()
```

### Event 65535.45

#### Metadata

| Field        | Value    |
|--------------|----------|
| Entrypoint   | 0x02C6   |
| Data Size    | 30 bytes |
| Instructions | 8        |

```
      00 01 02 03 04 05 06 07  08 09 0A 0B 0C 0D 0E 0F
      -- -- -- -- -- -- -- --  -- -- -- -- -- -- -- --
02C0:                   29 08  E6 00 0C 01 03 1D 10 80        ).........
02D0: 23 1D 11 80 23 29 08 E6  00 0C 01 05 29 08 E6 00  #...#)......)...
02E0: 0C 01 06 00                                       ....            
```

#### Opcodes

```
  0: 0x02C6 [0x29] REQ_SET_WAIT(priority=0x08, entity_id=Nanaa Mihgo (ID: 17563878/0x010C00E6), tag_num=0x03)
  1: 0x02CD [0x1D] PRINT_EVENT_MESSAGE(message_id=7301*)
    → "The boxes you seek are hidden in the old summoner's rrresidence in Windurst Walls...the "House of the Hero.""
  2: 0x02D0 [0x23] WAIT_FOR_DIALOG_INTERACTION
  3: 0x02D1 [0x1D] PRINT_EVENT_MESSAGE(message_id=7302*)
    → "Now that I've told you, you can stop chasing us around, alrrright?"
  4: 0x02D4 [0x23] WAIT_FOR_DIALOG_INTERACTION
  5: 0x02D5 [0x29] REQ_SET_WAIT(priority=0x08, entity_id=Nanaa Mihgo (ID: 17563878/0x010C00E6), tag_num=0x05)
  6: 0x02DC [0x29] REQ_SET_WAIT(priority=0x08, entity_id=Nanaa Mihgo (ID: 17563878/0x010C00E6), tag_num=0x06)
  7: 0x02E3 [0x00] END_REQSTACK()
```

### Event 65535.46

#### Metadata

| Field        | Value    |
|--------------|----------|
| Entrypoint   | 0x02E4   |
| Data Size    | 26 bytes |
| Instructions | 6        |

```
      00 01 02 03 04 05 06 07  08 09 0A 0B 0C 0D 0E 0F
      -- -- -- -- -- -- -- --  -- -- -- -- -- -- -- --
02E0:             29 08 E6 00  0C 01 01 1D 12 80 23 29      ).........#)
02F0: 08 E6 00 0C 01 07 29 08  E6 00 0C 01 08 00        ......).......  
```

#### Opcodes

```
  0: 0x02E4 [0x29] REQ_SET_WAIT(priority=0x08, entity_id=Nanaa Mihgo (ID: 17563878/0x010C00E6), tag_num=0x01)
  1: 0x02EB [0x1D] PRINT_EVENT_MESSAGE(message_id=7306*)
    → "Of course I'm telling the trrruth. I know only too well that you Carrrdians can detect when someone is lying!"
  2: 0x02EE [0x23] WAIT_FOR_DIALOG_INTERACTION
  3: 0x02EF [0x29] REQ_SET_WAIT(priority=0x08, entity_id=Nanaa Mihgo (ID: 17563878/0x010C00E6), tag_num=0x07)
  4: 0x02F6 [0x29] REQ_SET_WAIT(priority=0x08, entity_id=Nanaa Mihgo (ID: 17563878/0x010C00E6), tag_num=0x08)
  5: 0x02FD [0x00] END_REQSTACK()
```

### Event 65535.47

#### Metadata

| Field        | Value   |
|--------------|---------|
| Entrypoint   | 0x02FE  |
| Data Size    | 5 bytes |
| Instructions | 3       |

```
      00 01 02 03 04 05 06 07  08 09 0A 0B 0C 0D 0E 0F
      -- -- -- -- -- -- -- --  -- -- -- -- -- -- -- --
02F0:                                            1D 13                ..
0300: 80 23 00                                          .#.             
```

#### Opcodes

```
  0: 0x02FE [0x1D] PRINT_EVENT_MESSAGE(message_id=7309*)
    → "Why, you double-crrrossing..."
  1: 0x0301 [0x23] WAIT_FOR_DIALOG_INTERACTION
  2: 0x0302 [0x00] END_REQSTACK()
```

### Event 65535.48

#### Metadata

| Field        | Value    |
|--------------|----------|
| Entrypoint   | 0x0303   |
| Data Size    | 16 bytes |
| Instructions | 6        |

```
      00 01 02 03 04 05 06 07  08 09 0A 0B 0C 0D 0E 0F
      -- -- -- -- -- -- -- --  -- -- -- -- -- -- -- --
0300:          29 08 E6 00 0C  01 17 1D 14 80 23 1D 15     ).........#..
0310: 80 23 00                                          .#.             
```

#### Opcodes

```
  0: 0x0303 [0x29] REQ_SET_WAIT(priority=0x08, entity_id=Nanaa Mihgo (ID: 17563878/0x010C00E6), tag_num=0x17)
  1: 0x030A [0x1D] PRINT_EVENT_MESSAGE(message_id=7320*)
    → "You know that the second you lay hands on those boxes, the Carrrdians are going to go after you, don't you?"
  2: 0x030D [0x23] WAIT_FOR_DIALOG_INTERACTION
  3: 0x030E [0x1D] PRINT_EVENT_MESSAGE(message_id=7321*)
    → "Well, I suppose if it means an end to being tailed by those crrreepy Carrrdians and you, my pesky little man, then it is a small prrrice to pay."
  4: 0x0311 [0x23] WAIT_FOR_DIALOG_INTERACTION
  5: 0x0312 [0x00] END_REQSTACK()
```

### Event 65535.49

#### Metadata

| Field        | Value    |
|--------------|----------|
| Entrypoint   | 0x0313   |
| Data Size    | 43 bytes |
| Instructions | 7        |

```
      00 01 02 03 04 05 06 07  08 09 0A 0B 0C 0D 0E 0F
      -- -- -- -- -- -- -- --  -- -- -- -- -- -- -- --
0310:          29 08 E6 00 0C  01 19 29 08 E6 00 0C 01     )......).....
0320: 1A 29 08 E6 00 0C 01 23  29 08 E6 00 0C 01 24 29  .).....#).....$)
0330: 08 E6 00 0C 01 0B 29 08  E6 00 0C 01 0C 00        ......).......  
```

#### Opcodes

```
  0: 0x0313 [0x29] REQ_SET_WAIT(priority=0x08, entity_id=Nanaa Mihgo (ID: 17563878/0x010C00E6), tag_num=0x19)
  1: 0x031A [0x29] REQ_SET_WAIT(priority=0x08, entity_id=Nanaa Mihgo (ID: 17563878/0x010C00E6), tag_num=0x1A)
  2: 0x0321 [0x29] REQ_SET_WAIT(priority=0x08, entity_id=Nanaa Mihgo (ID: 17563878/0x010C00E6), tag_num=0x23)
  3: 0x0328 [0x29] REQ_SET_WAIT(priority=0x08, entity_id=Nanaa Mihgo (ID: 17563878/0x010C00E6), tag_num=0x24)
  4: 0x032F [0x29] REQ_SET_WAIT(priority=0x08, entity_id=Nanaa Mihgo (ID: 17563878/0x010C00E6), tag_num=0x0B)
  5: 0x0336 [0x29] REQ_SET_WAIT(priority=0x08, entity_id=Nanaa Mihgo (ID: 17563878/0x010C00E6), tag_num=0x0C)
  6: 0x033D [0x00] END_REQSTACK()
```
