# 17563874 - Ajido-Marujido

## Common Data

| Field            | Value                          |
|------------------|--------------------------------|
| Zone             | Inner Horutoto Ruins (ID: 192) |
| Block Size       | 2764 bytes                     |
| Total Events     | 104                            |
| References Count | 148                            |

## List of Events

| Event ID                   | Entrypoint   |   Size |   Instructions |
|----------------------------|--------------|--------|----------------|
| [65535](#event-65535)      | 0x0000       |      1 |              1 |
| [65535.1](#event-655351)   | 0x0001       |     16 |              2 |
| [65535.2](#event-655352)   | 0x0011       |     14 |              2 |
| [65535.3](#event-655353)   | 0x001F       |     16 |              2 |
| [65535.4](#event-655354)   | 0x002F       |     14 |              2 |
| [65535.5](#event-655355)   | 0x003D       |     16 |              2 |
| [65535.6](#event-655356)   | 0x004D       |     14 |              2 |
| [65535.7](#event-655357)   | 0x005B       |     16 |              2 |
| [65535.8](#event-655358)   | 0x006B       |     14 |              2 |
| [65535.9](#event-655359)   | 0x0079       |     16 |              2 |
| [65535.10](#event-6553510) | 0x0089       |     14 |              2 |
| [65535.11](#event-6553511) | 0x0097       |     16 |              2 |
| [65535.12](#event-6553512) | 0x00A7       |     14 |              2 |
| [65535.13](#event-6553513) | 0x00B5       |     16 |              2 |
| [65535.14](#event-6553514) | 0x00C5       |     14 |              2 |
| [65535.15](#event-6553515) | 0x00D3       |     16 |              2 |
| [65535.16](#event-6553516) | 0x00E3       |     14 |              2 |
| [65535.17](#event-6553517) | 0x00F1       |     16 |              2 |
| [65535.18](#event-6553518) | 0x0101       |     14 |              2 |
| [65535.19](#event-6553519) | 0x010F       |     16 |              2 |
| [65535.20](#event-6553520) | 0x011F       |     22 |              4 |
| [65535.21](#event-6553521) | 0x0135       |     16 |              2 |
| [65535.22](#event-6553522) | 0x0145       |     14 |              2 |
| [65535.23](#event-6553523) | 0x0153       |      9 |              3 |
| [65535.24](#event-6553524) | 0x015C       |     16 |              2 |
| [65535.25](#event-6553525) | 0x016C       |     14 |              2 |
| [65535.26](#event-6553526) | 0x017A       |     16 |              2 |
| [65535.27](#event-6553527) | 0x018A       |     14 |              2 |
| [65535.28](#event-6553528) | 0x0198       |     16 |              2 |
| [65535.29](#event-6553529) | 0x01A8       |     14 |              2 |
| [65535.30](#event-6553530) | 0x01B6       |     16 |              2 |
| [65535.31](#event-6553531) | 0x01C6       |     14 |              2 |
| [65535.32](#event-6553532) | 0x01D4       |     22 |              3 |
| [65535.33](#event-6553533) | 0x01EA       |     20 |              3 |
| [65535.34](#event-6553534) | 0x01FE       |     16 |              2 |
| [65535.35](#event-6553535) | 0x020E       |     14 |              2 |
| [65535.36](#event-6553536) | 0x021C       |     22 |              3 |
| [65535.37](#event-6553537) | 0x0232       |     20 |              3 |
| [66](#event-66)            | 0x0246       |      1 |              1 |
| [67](#event-67)            | 0x0247       |     64 |             10 |
| [68](#event-68)            | 0x0287       |     23 |              5 |
| [69](#event-69)            | 0x029E       |     14 |              4 |
| [70](#event-70)            | 0x02AC       |     14 |              4 |
| [42](#event-42)            | 0x02BA       |      7 |              2 |
| [65535.38](#event-6553538) | 0x02C1       |     10 |              2 |
| [65535.39](#event-6553539) | 0x02CB       |     10 |              2 |
| [65535.40](#event-6553540) | 0x02D5       |     21 |              5 |
| [65535.41](#event-6553541) | 0x02EA       |     42 |              8 |
| [65535.42](#event-6553542) | 0x0314       |      8 |              2 |
| [65535.43](#event-6553543) | 0x031C       |     20 |              4 |
| [65535.44](#event-6553544) | 0x0330       |     20 |              4 |
| [65535.45](#event-6553545) | 0x0344       |     21 |              5 |
| [65535.46](#event-6553546) | 0x0359       |     51 |             11 |
| [65535.47](#event-6553547) | 0x038C       |      1 |              1 |
| [65535.48](#event-6553548) | 0x038D       |     33 |              7 |
| [65535.49](#event-6553549) | 0x03AE       |     47 |             12 |
| [65535.50](#event-6553550) | 0x03DD       |     37 |              9 |
| [65535.51](#event-6553551) | 0x0402       |     33 |              7 |
| [65535.52](#event-6553552) | 0x0423       |     14 |              4 |
| [65535.53](#event-6553553) | 0x0431       |      5 |              3 |
| [43](#event-43)            | 0x0436       |     19 |              5 |
| [65535.54](#event-6553554) | 0x0449       |     19 |              5 |
| [65535.55](#event-6553555) | 0x045C       |     19 |              5 |
| [65535.56](#event-6553556) | 0x046F       |     19 |              5 |
| [65535.57](#event-6553557) | 0x0482       |      9 |              5 |
| [65535.58](#event-6553558) | 0x048B       |      5 |              3 |
| [46](#event-46)            | 0x0490       |      1 |              1 |
| [65535.59](#event-6553559) | 0x0491       |     30 |              7 |
| [65535.60](#event-6553560) | 0x04AF       |     15 |              5 |
| [65535.61](#event-6553561) | 0x04BE       |     14 |              4 |
| [65535.62](#event-6553562) | 0x04CC       |     14 |              4 |
| [65535.63](#event-6553563) | 0x04DA       |     16 |              2 |
| [65535.64](#event-6553564) | 0x04EA       |      5 |              3 |
| [65535.65](#event-6553565) | 0x04EF       |     26 |              6 |
| [65535.66](#event-6553566) | 0x0509       |     23 |              7 |
| [65535.67](#event-6553567) | 0x0520       |     33 |              7 |
| [65535.68](#event-6553568) | 0x0541       |      5 |              3 |
| [65535.69](#event-6553569) | 0x0546       |     37 |              9 |
| [65535.70](#event-6553570) | 0x056B       |      5 |              3 |
| [65535.71](#event-6553571) | 0x0570       |     19 |              5 |
| [65535.72](#event-6553572) | 0x0583       |     33 |              7 |
| [41](#event-41)            | 0x05A4       |      7 |              2 |
| [65535.73](#event-6553573) | 0x05AB       |     10 |              2 |
| [65535.74](#event-6553574) | 0x05B5       |     23 |              5 |
| [65535.75](#event-6553575) | 0x05CC       |     17 |              5 |
| [65535.76](#event-6553576) | 0x05DD       |     27 |              7 |
| [65535.77](#event-6553577) | 0x05F8       |      5 |              3 |
| [65535.78](#event-6553578) | 0x05FD       |      5 |              3 |
| [65535.79](#event-6553579) | 0x0602       |     37 |              9 |
| [65535.80](#event-6553580) | 0x0627       |      5 |              3 |
| [65535.81](#event-6553581) | 0x062C       |     45 |              9 |
| [65535.82](#event-6553582) | 0x0659       |      5 |              3 |
| [65535.83](#event-6553583) | 0x065E       |      5 |              3 |
| [65535.84](#event-6553584) | 0x0663       |     19 |              5 |
| [65535.85](#event-6553585) | 0x0676       |     33 |              7 |
| [75](#event-75)            | 0x0697       |      1 |              1 |
| [65535.86](#event-6553586) | 0x0698       |     10 |              2 |
| [65535.87](#event-6553587) | 0x06A2       |     10 |              2 |
| [65535.88](#event-6553588) | 0x06AC       |      5 |              3 |
| [65535.89](#event-6553589) | 0x06B1       |      5 |              3 |
| [65535.90](#event-6553590) | 0x06B6       |      5 |              3 |
| [65535.91](#event-6553591) | 0x06BB       |      5 |              3 |
| [65535.92](#event-6553592) | 0x06C0       |      5 |              3 |
| [65535.93](#event-6553593) | 0x06C5       |      5 |              3 |

## DAT References (imed_data)

|   Index | Hex Value   |   Dec Value |
|---------|-------------|-------------|
|       0 | 0x00A5      |         165 |
|       1 | 0x0151      |         337 |
|       2 | 0x0155      |         341 |
|       3 | 0x001E      |          30 |
|       4 | 0x00A8      |         168 |
|       5 | 0x0036      |          54 |
|       6 | 0x00A6      |         166 |
|       7 | 0xFFFC02B8  |  4294705848 |
|       8 | 0x550B      |       21771 |
|       9 | 0x0000      |           0 |
|      10 | 0x0A3D      |        2621 |
|      11 | 0x0028      |          40 |
|      12 | 0xFFFBF862  |  4294703202 |
|      13 | 0x614B      |       24907 |
|      14 | 0x000D      |          13 |
|      15 | 0xFFFBF3D1  |  4294702033 |
|      16 | 0x6587      |       25991 |
|      17 | 0xFFFBEF4A  |  4294700874 |
|      18 | 0x673E      |       26430 |
|      19 | 0x0A28      |        2600 |
|      20 | 0xFFFBED0C  |  4294700300 |
|      21 | 0xCB1B      |       51995 |
|      22 | 0xFFFC07D3  |  4294707155 |
|      23 | 0xECCE      |       60622 |
|      24 | 0xFFFFFFEA  |  4294967274 |
|      25 | 0xFFFC08E3  |  4294707427 |
|      26 | 0x12967     |       76135 |
|      27 | 0xFFFFFFC0  |  4294967232 |
|      28 | 0x66936     |      420150 |
|      29 | 0xFFFEF084  |  4294897796 |
|      30 | 0xFFFFFEA1  |  4294966945 |
|      31 | 0x0590      |        1424 |
|      32 | 0x66C7C     |      420988 |
|      33 | 0xFFFF2F49  |  4294913865 |
|      34 | 0x0320      |         800 |
|      35 | 0x0AF9      |        2809 |
|      36 | 0x6772F     |      423727 |
|      37 | 0xFFFF066F  |  4294903407 |
|      38 | 0x0C80      |        3200 |
|      39 | 0x681FC     |      426492 |
|      40 | 0xFFFF0F3D  |  4294905661 |
|      41 | 0x0A7D      |        2685 |
|      42 | 0x68015     |      426005 |
|      43 | 0xFFFF1A67  |  4294908519 |
|      44 | 0x66BDF     |      420831 |
|      45 | 0xFFFF30EB  |  4294914283 |
|      46 | 0x03E8      |        1000 |
|      47 | 0x667A3     |      419747 |
|      48 | 0xFFFF3CB0  |  4294917296 |
|      49 | 0x0C15      |        3093 |
|      50 | 0x664FE     |      419070 |
|      51 | 0xFFFF4BC4  |  4294921156 |
|      52 | 0x0B96      |        2966 |
|      53 | 0x665F2     |      419314 |
|      54 | 0xFFFF5AA6  |  4294924966 |
|      55 | 0x6694B     |      420171 |
|      56 | 0xFFFEFE4B  |  4294901323 |
|      57 | 0x0FA0      |        4000 |
|      58 | 0x673FB     |      422907 |
|      59 | 0xFFFF00CA  |  4294901962 |
|      60 | 0x67BEE     |      424942 |
|      61 | 0xFFFF0993  |  4294904211 |
|      62 | 0x68064     |      426084 |
|      63 | 0xFFFF156B  |  4294907243 |
|      64 | 0x67D05     |      425221 |
|      65 | 0xFFFF219A  |  4294910362 |
|      66 | 0x66F54     |      421716 |
|      67 | 0xFFFF2CC2  |  4294913218 |
|      68 | 0x1C5C      |        7260 |
|      69 | 0x1C5D      |        7261 |
|      70 | 0x005C      |          92 |
|      71 | 0x1C5E      |        7262 |
|      72 | 0x1C5F      |        7263 |
|      73 | 0x1C60      |        7264 |
|      74 | 0x1C62      |        7266 |
|      75 | 0x1C63      |        7267 |
|      76 | 0x1C66      |        7270 |
|      77 | 0x66B1B     |      420635 |
|      78 | 0xFFFF3C40  |  4294917184 |
|      79 | 0x1C69      |        7273 |
|      80 | 0x1C6A      |        7274 |
|      81 | 0x1C6B      |        7275 |
|      82 | 0x1C6C      |        7276 |
|      83 | 0x1C6D      |        7277 |
|      84 | 0x1C6E      |        7278 |
|      85 | 0x1C6F      |        7279 |
|      86 | 0x1C70      |        7280 |
|      87 | 0xFFFFC8A2  |  4294953122 |
|      88 | 0x4FF7      |       20471 |
|      89 | 0x0885      |        2181 |
|      90 | 0xFFFFB8B8  |  4294949048 |
|      91 | 0x504C      |       20556 |
|      92 | 0xFFFFAAAA  |  4294945450 |
|      93 | 0x4E31      |       20017 |
|      94 | 0xFFFFBB62  |  4294949730 |
|      95 | 0x4DC7      |       19911 |
|      96 | 0xFFFFC56A  |  4294952298 |
|      97 | 0x4D01      |       19713 |
|      98 | 0x00E6      |         230 |
|      99 | 0x1C8E      |        7310 |
|     100 | 0x1C8F      |        7311 |
|     101 | 0x1C91      |        7313 |
|     102 | 0x1C92      |        7314 |
|     103 | 0x1C94      |        7316 |
|     104 | 0x1C95      |        7317 |
|     105 | 0x1C96      |        7318 |
|     106 | 0x1C97      |        7319 |
|     107 | 0x1C9A      |        7322 |
|     108 | 0x1C9B      |        7323 |
|     109 | 0x1C9C      |        7324 |
|     110 | 0xFFFAF120  |  4294635808 |
|     111 | 0x241AF     |      147887 |
|     112 | 0x0D9D      |        3485 |
|     113 | 0xFFFAEF4F  |  4294635343 |
|     114 | 0x23575     |      144757 |
|     115 | 0x0BB2      |        2994 |
|     116 | 0xFFFAEDE9  |  4294634985 |
|     117 | 0x23F12     |      147218 |
|     118 | 0xFFFAEBCC  |  4294634444 |
|     119 | 0x2475C     |      149340 |
|     120 | 0x07E8      |        2024 |
|     121 | 0xFFFAEF94  |  4294635412 |
|     122 | 0x238AB     |      145579 |
|     123 | 0x003C      |          60 |
|     124 | 0xFFFAF123  |  4294635811 |
|     125 | 0x23811     |      145425 |
|     126 | 0x1CA0      |        7328 |
|     127 | 0x1CA1      |        7329 |
|     128 | 0x1CA2      |        7330 |
|     129 | 0x1CA3      |        7331 |
|     130 | 0x1CA4      |        7332 |
|     131 | 0x1CA5      |        7333 |
|     132 | 0x1CA6      |        7334 |
|     133 | 0x1CA7      |        7335 |
|     134 | 0x1CA8      |        7336 |
|     135 | 0x1CA9      |        7337 |
|     136 | 0xFFFC7603  |  4294735363 |
|     137 | 0x16164     |       90468 |
|     138 | 0x0F1B      |        3867 |
|     139 | 0xFFFC796B  |  4294736235 |
|     140 | 0x15DA2     |       89506 |
|     141 | 0x0E85      |        3717 |
|     142 | 0x1CDC      |        7388 |
|     143 | 0x1CDE      |        7390 |
|     144 | 0x1CDF      |        7391 |
|     145 | 0x1CE1      |        7393 |
|     146 | 0x1CE2      |        7394 |
|     147 | 0x1CE3      |        7395 |

## String References

- **7260**: And you, Apururu, my own sistaru...! Can'taru you see the truth behind all of this?
- **7261**: Why do you think they all fear war, but won't lift a finger-winger to do anything about it?
- **7262**: They all say that Windurst has "peace and security, peace and security," but do you really-weally think our country has peace?
- **7263**: The wounds the Orastery received from the war haven't healed, even after twenty-odd years. The best of the War Warlock mages are dying off, unable to train new, younger replacementarus.
- **7264**: Just imagine what would happen if war broke out again. Windurst would be obliterated in an instantaru. That's why...that's why we need some grand new magic...
- **7266**: Yes, and what about her...? What was the reason she forbade the very magic I seek? If they could have controlled that magic properly, then we wouldn't have had to buddy-buddy with the beastmen in the first place!
- **7267**: Sure, the spell-weaver died, but the magic itself was a great success...
- **7270**: Humph. Say whataru you like. A genius is never accepted by the world in his own time. If you've just come here to whinge and whine, then off with you! Go on, getaru!
- **7273**: Oi! Who's that over there?
- **7274**: Ah...? What's thataru, you say? A wanna-be newbie adventurer, huh? So you're the one they sent to help me with my experiment...?
- **7275**: Well, you're too latey-watey! The experiment is over. This gizmo just broke down again...
- **7276**: And then my pesky little sistaru wandered on in just to add insult to injury!
- **7277**: Phew... Well, I've had enough for one day. I'm headed home. Seeing as you've come all this way, I'd hate for you to go home empty-handed, so here's a little job for you.
- **7278**: On your way here, you probably noticed the glowing receptacle gizmos here and there, didn'taru you? Well, inside each of them, there's a magical ball called a "Mana Orb."
- **7279**: I think one of those Mana Orbs was broken when my experiment failed just now. Your job is to find the broken sphere and take it back to the Orastery.
- **7280**: Oh, and one more thing... Don't go blabbing about what you just heard here, all rightaru?
- **7310**: This time you've gone too far!
- **7311**: When you cannot lie, you must value your words as much as your life!
- **7313**: So, "Cardians of the Dark," you have already investigatarued me, have you? Dare I ask what evil enterprise you are planning?
- **7314**: Don'taru tell me that you are after the forbidden magic as well? That couldn't possibly be true, could it?
- **7316**: Humph. They cannot lie, but they can keep their silence! I underestimatarued them!
- **7317**: So, now I see... You stole that book from our Cardian friends there, eh?
- **7318**: But to hide it and your other spoils right under our noses in ol' Karaha-Baruha's residence...? I guess you could say that the darkestaru place is always under the candlestick.
- **7319**: You can leave the rest to me. Give me the key to the "House of the Hero." I'm talking about Karaha-Baruha's ring. I know you've gotaru it!
- **7322**: You have the gall to think I enjoy playing cat and mouse, running around after you, do you? Really, now...?
- **7323**: As for you, adventurer, get out of here while you still can. Otherwise, you'll have a cat in hell's chance of escaping with your belongings intact.
- **7324**: Next stop, ol' Karaha-Baruha's residence! I had better hurry back to Windurst Walls before it's too late...
- **7328**: Hey... Are you okay?
- **7329**: You seem to be all rightaru...
- **7330**: The Cardians here are very different from the Cardians in town.
- **7331**: You'll be sorry if you carelessly go anywhere near these guys.
- **7332**: You see, these are my old man's most powerful creations. The ones he practically worked himself to death over.
- **7333**: (But, seeing as these Cardians are still up and running about, it must mean that my old man is still alive somewhere...)
- **7334**: Anyway, what the devil-wevil are you doing in this room?
- **7335**: These guys are protectaruing a part of the talisman that seals away the Shadow Lord...and that's no ordinary seal! Only the ministers of the five ministries are allowed to enter this room!
- **7336**: What's that you say...? The great Star Sibyl has collapsed? What terrifying portent did she see in the stars, then...?
- **7337**: What in the stars is going on? I had better go check with my own eyes. Better head down to Full Moon Fountain...
- **7388**: Uh...? ...You... Is this a dream?
- **7390**: Not a dream, huh...? It feels like I've been trapped in a never-ending nightmare...
- **7391**: The bearer of darkness was here... He said he was searching for something... He seemed to be...in pain...
- **7393**: What is that? I sense a mysterious force nearby... What is that you're carrying?
- **7394**: Are you kidding me? One of the ancients returned the magic to this tome?
- **7395**: That's just ludicrous...! But still, this level of power... It's most definitely...

## Events

### Event 65535

#### Metadata

| Field        | Value   |
|--------------|---------|
| Entrypoint   | 0x0000  |
| Data Size    | 1 bytes |
| Instructions | 1       |

```
      00 01 02 03 04 05 06 07  08 09 0A 0B 0C 0D 0E 0F
      -- -- -- -- -- -- -- --  -- -- -- -- -- -- -- --
0000: 00                                                .               
```

#### Opcodes

```
  0: 0x0000 [0x00] END_REQSTACK()
```

### Event 65535.1

#### Metadata

| Field        | Value    |
|--------------|----------|
| Entrypoint   | 0x0001   |
| Data Size    | 16 bytes |
| Instructions | 2        |

```
      00 01 02 03 04 05 06 07  08 09 0A 0B 0C 0D 0E 0F
      -- -- -- -- -- -- -- --  -- -- -- -- -- -- -- --
0000:    5B 00 80 F8 FF FF 7F  F8 FF FF 7F 74 6C 6B 30   [..........tlk0
0010: 00                                                .               
```

#### Opcodes

```
  0: 0x0001 [0x5B] LOAD_EXT_SCHEDULER: Load scheduler "tlk0" with entities [EventEntity, EventEntity], work=165*
  1: 0x0010 [0x00] END_REQSTACK()
```

### Event 65535.2

#### Metadata

| Field        | Value    |
|--------------|----------|
| Entrypoint   | 0x0011   |
| Data Size    | 14 bytes |
| Instructions | 2        |

```
      00 01 02 03 04 05 06 07  08 09 0A 0B 0C 0D 0E 0F
      -- -- -- -- -- -- -- --  -- -- -- -- -- -- -- --
0010:    53 F8 FF FF 7F F8 FF  FF 7F 74 6C 6B 30 00      S........tlk0. 
```

#### Opcodes

```
  0: 0x0011 [0x53] WAIT_SCHEDULER_TASK: Wait for scheduler "tlk0" with entities [EventEntity, EventEntity]
  1: 0x001E [0x00] END_REQSTACK()
```

### Event 65535.3

#### Metadata

| Field        | Value    |
|--------------|----------|
| Entrypoint   | 0x001F   |
| Data Size    | 16 bytes |
| Instructions | 2        |

```
      00 01 02 03 04 05 06 07  08 09 0A 0B 0C 0D 0E 0F
      -- -- -- -- -- -- -- --  -- -- -- -- -- -- -- --
0010:                                               5B                 [
0020: 00 80 F8 FF FF 7F F8 FF  FF 7F 74 6C 6B 31 00     ..........tlk1. 
```

#### Opcodes

```
  0: 0x001F [0x5B] LOAD_EXT_SCHEDULER: Load scheduler "tlk1" with entities [EventEntity, EventEntity], work=165*
  1: 0x002E [0x00] END_REQSTACK()
```

### Event 65535.4

#### Metadata

| Field        | Value    |
|--------------|----------|
| Entrypoint   | 0x002F   |
| Data Size    | 14 bytes |
| Instructions | 2        |

```
      00 01 02 03 04 05 06 07  08 09 0A 0B 0C 0D 0E 0F
      -- -- -- -- -- -- -- --  -- -- -- -- -- -- -- --
0020:                                               53                 S
0030: F8 FF FF 7F F8 FF FF 7F  74 6C 6B 31 00           ........tlk1.   
```

#### Opcodes

```
  0: 0x002F [0x53] WAIT_SCHEDULER_TASK: Wait for scheduler "tlk1" with entities [EventEntity, EventEntity]
  1: 0x003C [0x00] END_REQSTACK()
```

### Event 65535.5

#### Metadata

| Field        | Value    |
|--------------|----------|
| Entrypoint   | 0x003D   |
| Data Size    | 16 bytes |
| Instructions | 2        |

```
      00 01 02 03 04 05 06 07  08 09 0A 0B 0C 0D 0E 0F
      -- -- -- -- -- -- -- --  -- -- -- -- -- -- -- --
0030:                                         5B 00 80               [..
0040: F8 FF FF 7F F8 FF FF 7F  6B 62 6B 30 00           ........kbk0.   
```

#### Opcodes

```
  0: 0x003D [0x5B] LOAD_EXT_SCHEDULER: Load scheduler "kbk0" with entities [EventEntity, EventEntity], work=165*
  1: 0x004C [0x00] END_REQSTACK()
```

### Event 65535.6

#### Metadata

| Field        | Value    |
|--------------|----------|
| Entrypoint   | 0x004D   |
| Data Size    | 14 bytes |
| Instructions | 2        |

```
      00 01 02 03 04 05 06 07  08 09 0A 0B 0C 0D 0E 0F
      -- -- -- -- -- -- -- --  -- -- -- -- -- -- -- --
0040:                                         53 F8 FF               S..
0050: FF 7F F8 FF FF 7F 6B 62  6B 30 00                 ......kbk0.     
```

#### Opcodes

```
  0: 0x004D [0x53] WAIT_SCHEDULER_TASK: Wait for scheduler "kbk0" with entities [EventEntity, EventEntity]
  1: 0x005A [0x00] END_REQSTACK()
```

### Event 65535.7

#### Metadata

| Field        | Value    |
|--------------|----------|
| Entrypoint   | 0x005B   |
| Data Size    | 16 bytes |
| Instructions | 2        |

```
      00 01 02 03 04 05 06 07  08 09 0A 0B 0C 0D 0E 0F
      -- -- -- -- -- -- -- --  -- -- -- -- -- -- -- --
0050:                                   5B 00 80 F8 FF             [....
0060: FF 7F F8 FF FF 7F 6B 62  6B 31 00                 ......kbk1.     
```

#### Opcodes

```
  0: 0x005B [0x5B] LOAD_EXT_SCHEDULER: Load scheduler "kbk1" with entities [EventEntity, EventEntity], work=165*
  1: 0x006A [0x00] END_REQSTACK()
```

### Event 65535.8

#### Metadata

| Field        | Value    |
|--------------|----------|
| Entrypoint   | 0x006B   |
| Data Size    | 14 bytes |
| Instructions | 2        |

```
      00 01 02 03 04 05 06 07  08 09 0A 0B 0C 0D 0E 0F
      -- -- -- -- -- -- -- --  -- -- -- -- -- -- -- --
0060:                                   53 F8 FF FF 7F             S....
0070: F8 FF FF 7F 6B 62 6B 31  00                       ....kbk1.       
```

#### Opcodes

```
  0: 0x006B [0x53] WAIT_SCHEDULER_TASK: Wait for scheduler "kbk1" with entities [EventEntity, EventEntity]
  1: 0x0078 [0x00] END_REQSTACK()
```

### Event 65535.9

#### Metadata

| Field        | Value    |
|--------------|----------|
| Entrypoint   | 0x0079   |
| Data Size    | 16 bytes |
| Instructions | 2        |

```
      00 01 02 03 04 05 06 07  08 09 0A 0B 0C 0D 0E 0F
      -- -- -- -- -- -- -- --  -- -- -- -- -- -- -- --
0070:                             5B 00 80 F8 FF FF 7F           [......
0080: F8 FF FF 7F 73 70 70 30  00                       ....spp0.       
```

#### Opcodes

```
  0: 0x0079 [0x5B] LOAD_EXT_SCHEDULER: Load scheduler "spp0" with entities [EventEntity, EventEntity], work=165*
  1: 0x0088 [0x00] END_REQSTACK()
```

### Event 65535.10

#### Metadata

| Field        | Value    |
|--------------|----------|
| Entrypoint   | 0x0089   |
| Data Size    | 14 bytes |
| Instructions | 2        |

```
      00 01 02 03 04 05 06 07  08 09 0A 0B 0C 0D 0E 0F
      -- -- -- -- -- -- -- --  -- -- -- -- -- -- -- --
0080:                             53 F8 FF FF 7F F8 FF           S......
0090: FF 7F 73 70 70 30 00                              ..spp0.         
```

#### Opcodes

```
  0: 0x0089 [0x53] WAIT_SCHEDULER_TASK: Wait for scheduler "spp0" with entities [EventEntity, EventEntity]
  1: 0x0096 [0x00] END_REQSTACK()
```

### Event 65535.11

#### Metadata

| Field        | Value    |
|--------------|----------|
| Entrypoint   | 0x0097   |
| Data Size    | 16 bytes |
| Instructions | 2        |

```
      00 01 02 03 04 05 06 07  08 09 0A 0B 0C 0D 0E 0F
      -- -- -- -- -- -- -- --  -- -- -- -- -- -- -- --
0090:                      5B  00 80 F8 FF FF 7F F8 FF         [........
00A0: FF 7F 73 70 70 31 00                              ..spp1.         
```

#### Opcodes

```
  0: 0x0097 [0x5B] LOAD_EXT_SCHEDULER: Load scheduler "spp1" with entities [EventEntity, EventEntity], work=165*
  1: 0x00A6 [0x00] END_REQSTACK()
```

### Event 65535.12

#### Metadata

| Field        | Value    |
|--------------|----------|
| Entrypoint   | 0x00A7   |
| Data Size    | 14 bytes |
| Instructions | 2        |

```
      00 01 02 03 04 05 06 07  08 09 0A 0B 0C 0D 0E 0F
      -- -- -- -- -- -- -- --  -- -- -- -- -- -- -- --
00A0:                      53  F8 FF FF 7F F8 FF FF 7F         S........
00B0: 73 70 70 31 00                                    spp1.           
```

#### Opcodes

```
  0: 0x00A7 [0x53] WAIT_SCHEDULER_TASK: Wait for scheduler "spp1" with entities [EventEntity, EventEntity]
  1: 0x00B4 [0x00] END_REQSTACK()
```

### Event 65535.13

#### Metadata

| Field        | Value    |
|--------------|----------|
| Entrypoint   | 0x00B5   |
| Data Size    | 16 bytes |
| Instructions | 2        |

```
      00 01 02 03 04 05 06 07  08 09 0A 0B 0C 0D 0E 0F
      -- -- -- -- -- -- -- --  -- -- -- -- -- -- -- --
00B0:                5B 01 80  F8 FF FF 7F F8 FF FF 7F       [..........
00C0: 74 68 6B 31 00                                    thk1.           
```

#### Opcodes

```
  0: 0x00B5 [0x5B] LOAD_EXT_SCHEDULER: Load scheduler "thk1" with entities [EventEntity, EventEntity], work=337*
  1: 0x00C4 [0x00] END_REQSTACK()
```

### Event 65535.14

#### Metadata

| Field        | Value    |
|--------------|----------|
| Entrypoint   | 0x00C5   |
| Data Size    | 14 bytes |
| Instructions | 2        |

```
      00 01 02 03 04 05 06 07  08 09 0A 0B 0C 0D 0E 0F
      -- -- -- -- -- -- -- --  -- -- -- -- -- -- -- --
00C0:                53 F8 FF  FF 7F F8 FF FF 7F 74 68       S........th
00D0: 6B 31 00                                          k1.             
```

#### Opcodes

```
  0: 0x00C5 [0x53] WAIT_SCHEDULER_TASK: Wait for scheduler "thk1" with entities [EventEntity, EventEntity]
  1: 0x00D2 [0x00] END_REQSTACK()
```

### Event 65535.15

#### Metadata

| Field        | Value    |
|--------------|----------|
| Entrypoint   | 0x00D3   |
| Data Size    | 16 bytes |
| Instructions | 2        |

```
      00 01 02 03 04 05 06 07  08 09 0A 0B 0C 0D 0E 0F
      -- -- -- -- -- -- -- --  -- -- -- -- -- -- -- --
00D0:          5B 01 80 F8 FF  FF 7F F8 FF FF 7F 74 68     [..........th
00E0: 6B 32 00                                          k2.             
```

#### Opcodes

```
  0: 0x00D3 [0x5B] LOAD_EXT_SCHEDULER: Load scheduler "thk2" with entities [EventEntity, EventEntity], work=337*
  1: 0x00E2 [0x00] END_REQSTACK()
```

### Event 65535.16

#### Metadata

| Field        | Value    |
|--------------|----------|
| Entrypoint   | 0x00E3   |
| Data Size    | 14 bytes |
| Instructions | 2        |

```
      00 01 02 03 04 05 06 07  08 09 0A 0B 0C 0D 0E 0F
      -- -- -- -- -- -- -- --  -- -- -- -- -- -- -- --
00E0:          53 F8 FF FF 7F  F8 FF FF 7F 74 68 6B 32     S........thk2
00F0: 00                                                .               
```

#### Opcodes

```
  0: 0x00E3 [0x53] WAIT_SCHEDULER_TASK: Wait for scheduler "thk2" with entities [EventEntity, EventEntity]
  1: 0x00F0 [0x00] END_REQSTACK()
```

### Event 65535.17

#### Metadata

| Field        | Value    |
|--------------|----------|
| Entrypoint   | 0x00F1   |
| Data Size    | 16 bytes |
| Instructions | 2        |

```
      00 01 02 03 04 05 06 07  08 09 0A 0B 0C 0D 0E 0F
      -- -- -- -- -- -- -- --  -- -- -- -- -- -- -- --
00F0:    5B 01 80 F8 FF FF 7F  F8 FF FF 7F 70 61 73 30   [..........pas0
0100: 00                                                .               
```

#### Opcodes

```
  0: 0x00F1 [0x5B] LOAD_EXT_SCHEDULER: Load scheduler "pas0" with entities [EventEntity, EventEntity], work=337*
  1: 0x0100 [0x00] END_REQSTACK()
```

### Event 65535.18

#### Metadata

| Field        | Value    |
|--------------|----------|
| Entrypoint   | 0x0101   |
| Data Size    | 14 bytes |
| Instructions | 2        |

```
      00 01 02 03 04 05 06 07  08 09 0A 0B 0C 0D 0E 0F
      -- -- -- -- -- -- -- --  -- -- -- -- -- -- -- --
0100:    53 F8 FF FF 7F F8 FF  FF 7F 70 61 73 30 00      S........pas0. 
```

#### Opcodes

```
  0: 0x0101 [0x53] WAIT_SCHEDULER_TASK: Wait for scheduler "pas0" with entities [EventEntity, EventEntity]
  1: 0x010E [0x00] END_REQSTACK()
```

### Event 65535.19

#### Metadata

| Field        | Value    |
|--------------|----------|
| Entrypoint   | 0x010F   |
| Data Size    | 16 bytes |
| Instructions | 2        |

```
      00 01 02 03 04 05 06 07  08 09 0A 0B 0C 0D 0E 0F
      -- -- -- -- -- -- -- --  -- -- -- -- -- -- -- --
0100:                                               5B                 [
0110: 02 80 F8 FF FF 7F F8 FF  FF 7F 62 69 6B 30 00     ..........bik0. 
```

#### Opcodes

```
  0: 0x010F [0x5B] LOAD_EXT_SCHEDULER: Load scheduler "bik0" with entities [EventEntity, EventEntity], work=341*
  1: 0x011E [0x00] END_REQSTACK()
```

### Event 65535.20

#### Metadata

| Field        | Value    |
|--------------|----------|
| Entrypoint   | 0x011F   |
| Data Size    | 22 bytes |
| Instructions | 4        |

```
      00 01 02 03 04 05 06 07  08 09 0A 0B 0C 0D 0E 0F
      -- -- -- -- -- -- -- --  -- -- -- -- -- -- -- --
0110:                                               53                 S
0120: F8 FF FF 7F F8 FF FF 7F  62 69 6B 30 5E 69 64 6C  ........bik0^idl
0130: 30 1C 03 80 00                                    0....           
```

#### Opcodes

```
  0: 0x011F [0x53] WAIT_SCHEDULER_TASK: Wait for scheduler "bik0" with entities [EventEntity, EventEntity]
  1: 0x012C [0x5E] EventEntity goes idle (kills current action) (animation: "idl0")
  2: 0x0131 [0x1C] WAIT(30* ticks)
  3: 0x0134 [0x00] END_REQSTACK()
```

### Event 65535.21

#### Metadata

| Field        | Value    |
|--------------|----------|
| Entrypoint   | 0x0135   |
| Data Size    | 16 bytes |
| Instructions | 2        |

```
      00 01 02 03 04 05 06 07  08 09 0A 0B 0C 0D 0E 0F
      -- -- -- -- -- -- -- --  -- -- -- -- -- -- -- --
0130:                5B 02 80  F8 FF FF 7F F8 FF FF 7F       [..........
0140: 73 68 6B 30 00                                    shk0.           
```

#### Opcodes

```
  0: 0x0135 [0x5B] LOAD_EXT_SCHEDULER: Load scheduler "shk0" with entities [EventEntity, EventEntity], work=341*
  1: 0x0144 [0x00] END_REQSTACK()
```

### Event 65535.22

#### Metadata

| Field        | Value    |
|--------------|----------|
| Entrypoint   | 0x0145   |
| Data Size    | 14 bytes |
| Instructions | 2        |

```
      00 01 02 03 04 05 06 07  08 09 0A 0B 0C 0D 0E 0F
      -- -- -- -- -- -- -- --  -- -- -- -- -- -- -- --
0140:                53 F8 FF  FF 7F F8 FF FF 7F 73 68       S........sh
0150: 6B 30 00                                          k0.             
```

#### Opcodes

```
  0: 0x0145 [0x53] WAIT_SCHEDULER_TASK: Wait for scheduler "shk0" with entities [EventEntity, EventEntity]
  1: 0x0152 [0x00] END_REQSTACK()
```

### Event 65535.23

#### Metadata

| Field        | Value   |
|--------------|---------|
| Entrypoint   | 0x0153  |
| Data Size    | 9 bytes |
| Instructions | 3       |

```
      00 01 02 03 04 05 06 07  08 09 0A 0B 0C 0D 0E 0F
      -- -- -- -- -- -- -- --  -- -- -- -- -- -- -- --
0150:          5E 69 64 6C 30  1C 03 80 00                 ^idl0....    
```

#### Opcodes

```
  0: 0x0153 [0x5E] EventEntity goes idle (kills current action) (animation: "idl0")
  1: 0x0158 [0x1C] WAIT(30* ticks)
  2: 0x015B [0x00] END_REQSTACK()
```

### Event 65535.24

#### Metadata

| Field        | Value    |
|--------------|----------|
| Entrypoint   | 0x015C   |
| Data Size    | 16 bytes |
| Instructions | 2        |

```
      00 01 02 03 04 05 06 07  08 09 0A 0B 0C 0D 0E 0F
      -- -- -- -- -- -- -- --  -- -- -- -- -- -- -- --
0150:                                      5B 04 80 F8              [...
0160: FF FF 7F F8 FF FF 7F 62  6B 79 30 00              .......bky0.    
```

#### Opcodes

```
  0: 0x015C [0x5B] LOAD_EXT_SCHEDULER: Load scheduler "bky0" with entities [EventEntity, EventEntity], work=168*
  1: 0x016B [0x00] END_REQSTACK()
```

### Event 65535.25

#### Metadata

| Field        | Value    |
|--------------|----------|
| Entrypoint   | 0x016C   |
| Data Size    | 14 bytes |
| Instructions | 2        |

```
      00 01 02 03 04 05 06 07  08 09 0A 0B 0C 0D 0E 0F
      -- -- -- -- -- -- -- --  -- -- -- -- -- -- -- --
0160:                                      53 F8 FF FF              S...
0170: 7F F8 FF FF 7F 62 6B 79  30 00                    .....bky0.      
```

#### Opcodes

```
  0: 0x016C [0x53] WAIT_SCHEDULER_TASK: Wait for scheduler "bky0" with entities [EventEntity, EventEntity]
  1: 0x0179 [0x00] END_REQSTACK()
```

### Event 65535.26

#### Metadata

| Field        | Value    |
|--------------|----------|
| Entrypoint   | 0x017A   |
| Data Size    | 16 bytes |
| Instructions | 2        |

```
      00 01 02 03 04 05 06 07  08 09 0A 0B 0C 0D 0E 0F
      -- -- -- -- -- -- -- --  -- -- -- -- -- -- -- --
0170:                                5B 04 80 F8 FF FF            [.....
0180: 7F F8 FF FF 7F 62 6B 79  31 00                    .....bky1.      
```

#### Opcodes

```
  0: 0x017A [0x5B] LOAD_EXT_SCHEDULER: Load scheduler "bky1" with entities [EventEntity, EventEntity], work=168*
  1: 0x0189 [0x00] END_REQSTACK()
```

### Event 65535.27

#### Metadata

| Field        | Value    |
|--------------|----------|
| Entrypoint   | 0x018A   |
| Data Size    | 14 bytes |
| Instructions | 2        |

```
      00 01 02 03 04 05 06 07  08 09 0A 0B 0C 0D 0E 0F
      -- -- -- -- -- -- -- --  -- -- -- -- -- -- -- --
0180:                                53 F8 FF FF 7F F8            S.....
0190: FF FF 7F 62 6B 79 31 00                           ...bky1.        
```

#### Opcodes

```
  0: 0x018A [0x53] WAIT_SCHEDULER_TASK: Wait for scheduler "bky1" with entities [EventEntity, EventEntity]
  1: 0x0197 [0x00] END_REQSTACK()
```

### Event 65535.28

#### Metadata

| Field        | Value    |
|--------------|----------|
| Entrypoint   | 0x0198   |
| Data Size    | 16 bytes |
| Instructions | 2        |

```
      00 01 02 03 04 05 06 07  08 09 0A 0B 0C 0D 0E 0F
      -- -- -- -- -- -- -- --  -- -- -- -- -- -- -- --
0190:                          5B 05 80 F8 FF FF 7F F8          [.......
01A0: FF FF 7F 62 6B 79 32 00                           ...bky2.        
```

#### Opcodes

```
  0: 0x0198 [0x5B] LOAD_EXT_SCHEDULER: Load scheduler "bky2" with entities [EventEntity, EventEntity], work=54*
  1: 0x01A7 [0x00] END_REQSTACK()
```

### Event 65535.29

#### Metadata

| Field        | Value    |
|--------------|----------|
| Entrypoint   | 0x01A8   |
| Data Size    | 14 bytes |
| Instructions | 2        |

```
      00 01 02 03 04 05 06 07  08 09 0A 0B 0C 0D 0E 0F
      -- -- -- -- -- -- -- --  -- -- -- -- -- -- -- --
01A0:                          53 F8 FF FF 7F F8 FF FF          S.......
01B0: 7F 62 6B 79 32 00                                 .bky2.          
```

#### Opcodes

```
  0: 0x01A8 [0x53] WAIT_SCHEDULER_TASK: Wait for scheduler "bky2" with entities [EventEntity, EventEntity]
  1: 0x01B5 [0x00] END_REQSTACK()
```

### Event 65535.30

#### Metadata

| Field        | Value    |
|--------------|----------|
| Entrypoint   | 0x01B6   |
| Data Size    | 16 bytes |
| Instructions | 2        |

```
      00 01 02 03 04 05 06 07  08 09 0A 0B 0C 0D 0E 0F
      -- -- -- -- -- -- -- --  -- -- -- -- -- -- -- --
01B0:                   5B 06  80 F8 FF FF 7F F8 FF FF        [.........
01C0: 7F 6B 73 77 30 00                                 .ksw0.          
```

#### Opcodes

```
  0: 0x01B6 [0x5B] LOAD_EXT_SCHEDULER: Load scheduler "ksw0" with entities [EventEntity, EventEntity], work=166*
  1: 0x01C5 [0x00] END_REQSTACK()
```

### Event 65535.31

#### Metadata

| Field        | Value    |
|--------------|----------|
| Entrypoint   | 0x01C6   |
| Data Size    | 14 bytes |
| Instructions | 2        |

```
      00 01 02 03 04 05 06 07  08 09 0A 0B 0C 0D 0E 0F
      -- -- -- -- -- -- -- --  -- -- -- -- -- -- -- --
01C0:                   53 F8  FF FF 7F F8 FF FF 7F 6B        S........k
01D0: 73 77 30 00                                       sw0.            
```

#### Opcodes

```
  0: 0x01C6 [0x53] WAIT_SCHEDULER_TASK: Wait for scheduler "ksw0" with entities [EventEntity, EventEntity]
  1: 0x01D3 [0x00] END_REQSTACK()
```

### Event 65535.32

#### Metadata

| Field        | Value    |
|--------------|----------|
| Entrypoint   | 0x01D4   |
| Data Size    | 22 bytes |
| Instructions | 3        |

```
      00 01 02 03 04 05 06 07  08 09 0A 0B 0C 0D 0E 0F
      -- -- -- -- -- -- -- --  -- -- -- -- -- -- -- --
01D0:             81 00 F8 FF  FF 7F 5B 06 80 F8 FF FF      ......[.....
01E0: 7F F8 FF FF 7F 6B 73 74  30 00                    .....kst0.      
```

#### Opcodes

```
  0: 0x01D4 [0x81] SET_ENTITY_BLINKING(blink_flag=0x00, entity=EventEntity)
  1: 0x01DA [0x5B] LOAD_EXT_SCHEDULER: Load scheduler "kst0" with entities [EventEntity, EventEntity], work=166*
  2: 0x01E9 [0x00] END_REQSTACK()
```

### Event 65535.33

#### Metadata

| Field        | Value    |
|--------------|----------|
| Entrypoint   | 0x01EA   |
| Data Size    | 20 bytes |
| Instructions | 3        |

```
      00 01 02 03 04 05 06 07  08 09 0A 0B 0C 0D 0E 0F
      -- -- -- -- -- -- -- --  -- -- -- -- -- -- -- --
01E0:                                53 F8 FF FF 7F F8            S.....
01F0: FF FF 7F 6B 73 74 30 81  01 F8 FF FF 7F 00        ...kst0.......  
```

#### Opcodes

```
  0: 0x01EA [0x53] WAIT_SCHEDULER_TASK: Wait for scheduler "kst0" with entities [EventEntity, EventEntity]
  1: 0x01F7 [0x81] SET_ENTITY_BLINKING(blink_flag=0x01, entity=EventEntity)
  2: 0x01FD [0x00] END_REQSTACK()
```

### Event 65535.34

#### Metadata

| Field        | Value    |
|--------------|----------|
| Entrypoint   | 0x01FE   |
| Data Size    | 16 bytes |
| Instructions | 2        |

```
      00 01 02 03 04 05 06 07  08 09 0A 0B 0C 0D 0E 0F
      -- -- -- -- -- -- -- --  -- -- -- -- -- -- -- --
01F0:                                            5B 06                [.
0200: 80 F8 FF FF 7F F8 FF FF  7F 6B 73 74 31 00        .........kst1.  
```

#### Opcodes

```
  0: 0x01FE [0x5B] LOAD_EXT_SCHEDULER: Load scheduler "kst1" with entities [EventEntity, EventEntity], work=166*
  1: 0x020D [0x00] END_REQSTACK()
```

### Event 65535.35

#### Metadata

| Field        | Value    |
|--------------|----------|
| Entrypoint   | 0x020E   |
| Data Size    | 14 bytes |
| Instructions | 2        |

```
      00 01 02 03 04 05 06 07  08 09 0A 0B 0C 0D 0E 0F
      -- -- -- -- -- -- -- --  -- -- -- -- -- -- -- --
0200:                                            53 F8                S.
0210: FF FF 7F F8 FF FF 7F 6B  73 74 31 00              .......kst1.    
```

#### Opcodes

```
  0: 0x020E [0x53] WAIT_SCHEDULER_TASK: Wait for scheduler "kst1" with entities [EventEntity, EventEntity]
  1: 0x021B [0x00] END_REQSTACK()
```

### Event 65535.36

#### Metadata

| Field        | Value    |
|--------------|----------|
| Entrypoint   | 0x021C   |
| Data Size    | 22 bytes |
| Instructions | 3        |

```
      00 01 02 03 04 05 06 07  08 09 0A 0B 0C 0D 0E 0F
      -- -- -- -- -- -- -- --  -- -- -- -- -- -- -- --
0210:                                      81 00 F8 FF              ....
0220: FF 7F 5B 06 80 F8 FF FF  7F F8 FF FF 7F 6B 75 70  ..[..........kup
0230: 30 00                                             0.              
```

#### Opcodes

```
  0: 0x021C [0x81] SET_ENTITY_BLINKING(blink_flag=0x00, entity=EventEntity)
  1: 0x0222 [0x5B] LOAD_EXT_SCHEDULER: Load scheduler "kup0" with entities [EventEntity, EventEntity], work=166*
  2: 0x0231 [0x00] END_REQSTACK()
```

### Event 65535.37

#### Metadata

| Field        | Value    |
|--------------|----------|
| Entrypoint   | 0x0232   |
| Data Size    | 20 bytes |
| Instructions | 3        |

```
      00 01 02 03 04 05 06 07  08 09 0A 0B 0C 0D 0E 0F
      -- -- -- -- -- -- -- --  -- -- -- -- -- -- -- --
0230:       53 F8 FF FF 7F F8  FF FF 7F 6B 75 70 30 81    S........kup0.
0240: 01 F8 FF FF 7F 00                                 ......          
```

#### Opcodes

```
  0: 0x0232 [0x53] WAIT_SCHEDULER_TASK: Wait for scheduler "kup0" with entities [EventEntity, EventEntity]
  1: 0x023F [0x81] SET_ENTITY_BLINKING(blink_flag=0x01, entity=EventEntity)
  2: 0x0245 [0x00] END_REQSTACK()
```

### Event 66

#### Metadata

| Field        | Value   |
|--------------|---------|
| Entrypoint   | 0x0246  |
| Data Size    | 1 bytes |
| Instructions | 1       |

```
      00 01 02 03 04 05 06 07  08 09 0A 0B 0C 0D 0E 0F
      -- -- -- -- -- -- -- --  -- -- -- -- -- -- -- --
0240:                   00                                    .         
```

#### Opcodes

```
  0: 0x0246 [0x00] END_REQSTACK()
```

### Event 67

#### Metadata

| Field        | Value    |
|--------------|----------|
| Entrypoint   | 0x0247   |
| Data Size    | 64 bytes |
| Instructions | 10       |

```
      00 01 02 03 04 05 06 07  08 09 0A 0B 0C 0D 0E 0F
      -- -- -- -- -- -- -- --  -- -- -- -- -- -- -- --
0240:                      37  07 80 08 80 09 80 0A 80         7........
0250: 32 0B 80 1F 00 0C 80 0D  80 09 80 1F 01 32 0E 80  2............2..
0260: 1F 00 0F 80 10 80 09 80  1F 01 5B 01 80 F8 FF FF  ..........[.....
0270: 7F F8 FF FF 7F 74 68 6B  31 53 F8 FF FF 7F F8 FF  .....thk1S......
0280: FF 7F 74 68 6B 31 00                              ..thk1.         
```

#### Opcodes

```
  0: 0x0247 [0x37] UPDATE_EVENT_POSITION_AND_DIR: x=-261.448*, z=21.771*, y=0.000*, direction=230.4°*
  1: 0x0250 [0x32] ExtData[1]->MainSpeed = 40* * 0.1
  2: 0x0253 [0x1F] MOVE_ENTITY: EventEntity moves to X=-264.094*, Z=24.907*, Y=0.000*
  3: 0x025B [0x1F] MOVE_ENTITY: Update entity position (mode=1)
  4: 0x025D [0x32] ExtData[1]->MainSpeed = 13* * 0.1
  5: 0x0260 [0x1F] MOVE_ENTITY: EventEntity moves to X=-265.263*, Z=25.991*, Y=0.000*
  6: 0x0268 [0x1F] MOVE_ENTITY: Update entity position (mode=1)
  7: 0x026A [0x5B] LOAD_EXT_SCHEDULER: Load scheduler "thk1" with entities [EventEntity, EventEntity], work=337*
  8: 0x0279 [0x53] WAIT_SCHEDULER_TASK: Wait for scheduler "thk1" with entities [EventEntity, EventEntity]
  9: 0x0286 [0x00] END_REQSTACK()
```

### Event 68

#### Metadata

| Field        | Value    |
|--------------|----------|
| Entrypoint   | 0x0287   |
| Data Size    | 23 bytes |
| Instructions | 5        |

```
      00 01 02 03 04 05 06 07  08 09 0A 0B 0C 0D 0E 0F
      -- -- -- -- -- -- -- --  -- -- -- -- -- -- -- --
0280:                      37  11 80 12 80 09 80 13 80         7........
0290: 32 0B 80 1F 00 14 80 15  80 09 80 1F 01 00        2.............  
```

#### Opcodes

```
  0: 0x0287 [0x37] UPDATE_EVENT_POSITION_AND_DIR: x=-266.422*, z=26.430*, y=0.000*, direction=228.5°*
  1: 0x0290 [0x32] ExtData[1]->MainSpeed = 40* * 0.1
  2: 0x0293 [0x1F] MOVE_ENTITY: EventEntity moves to X=-266.996*, Z=51.995*, Y=0.000*
  3: 0x029B [0x1F] MOVE_ENTITY: Update entity position (mode=1)
  4: 0x029D [0x00] END_REQSTACK()
```

### Event 69

#### Metadata

| Field        | Value    |
|--------------|----------|
| Entrypoint   | 0x029E   |
| Data Size    | 14 bytes |
| Instructions | 4        |

```
      00 01 02 03 04 05 06 07  08 09 0A 0B 0C 0D 0E 0F
      -- -- -- -- -- -- -- --  -- -- -- -- -- -- -- --
0290:                                            32 0B                2.
02A0: 80 1F 00 16 80 17 80 18  80 1F 01 00              ............    
```

#### Opcodes

```
  0: 0x029E [0x32] ExtData[1]->MainSpeed = 40* * 0.1
  1: 0x02A1 [0x1F] MOVE_ENTITY: EventEntity moves to X=-260.141*, Z=60.622*, Y=-0.022*
  2: 0x02A9 [0x1F] MOVE_ENTITY: Update entity position (mode=1)
  3: 0x02AB [0x00] END_REQSTACK()
```

### Event 70

#### Metadata

| Field        | Value    |
|--------------|----------|
| Entrypoint   | 0x02AC   |
| Data Size    | 14 bytes |
| Instructions | 4        |

```
      00 01 02 03 04 05 06 07  08 09 0A 0B 0C 0D 0E 0F
      -- -- -- -- -- -- -- --  -- -- -- -- -- -- -- --
02A0:                                      32 0B 80 1F              2...
02B0: 00 19 80 1A 80 1B 80 1F  01 00                    ..........      
```

#### Opcodes

```
  0: 0x02AC [0x32] ExtData[1]->MainSpeed = 40* * 0.1
  1: 0x02AF [0x1F] MOVE_ENTITY: EventEntity moves to X=-259.869*, Z=76.135*, Y=-0.064*
  2: 0x02B7 [0x1F] MOVE_ENTITY: Update entity position (mode=1)
  3: 0x02B9 [0x00] END_REQSTACK()
```

### Event 42

#### Metadata

| Field        | Value   |
|--------------|---------|
| Entrypoint   | 0x02BA  |
| Data Size    | 7 bytes |
| Instructions | 2       |

```
      00 01 02 03 04 05 06 07  08 09 0A 0B 0C 0D 0E 0F
      -- -- -- -- -- -- -- --  -- -- -- -- -- -- -- --
02B0:                                4E 00 E2 00 0C 01            N.....
02C0: 00                                                .               
```

#### Opcodes

```
  0: 0x02BA [0x4E] SET_ENTITY_HIDE_FLAG: Show Ajido-Marujido (ID: 17563874/0x010C00E2)
  1: 0x02C0 [0x00] END_REQSTACK()
```

### Event 65535.38

#### Metadata

| Field        | Value    |
|--------------|----------|
| Entrypoint   | 0x02C1   |
| Data Size    | 10 bytes |
| Instructions | 2        |

```
      00 01 02 03 04 05 06 07  08 09 0A 0B 0C 0D 0E 0F
      -- -- -- -- -- -- -- --  -- -- -- -- -- -- -- --
02C0:    37 1C 80 1D 80 1E 80  1F 80 00                  7.........     
```

#### Opcodes

```
  0: 0x02C1 [0x37] UPDATE_EVENT_POSITION_AND_DIR: x=420.150*, z=-69.500*, y=-0.351*, direction=125.2°*
  1: 0x02CA [0x00] END_REQSTACK()
```

### Event 65535.39

#### Metadata

| Field        | Value    |
|--------------|----------|
| Entrypoint   | 0x02CB   |
| Data Size    | 10 bytes |
| Instructions | 2        |

```
      00 01 02 03 04 05 06 07  08 09 0A 0B 0C 0D 0E 0F
      -- -- -- -- -- -- -- --  -- -- -- -- -- -- -- --
02C0:                                   37 20 80 21 80             7 .!.
02D0: 22 80 23 80 00                                    ".#..           
```

#### Opcodes

```
  0: 0x02CB [0x37] UPDATE_EVENT_POSITION_AND_DIR: x=420.988*, z=-53.431*, y=0.800*, direction=246.9°*
  1: 0x02D4 [0x00] END_REQSTACK()
```

### Event 65535.40

#### Metadata

| Field        | Value    |
|--------------|----------|
| Entrypoint   | 0x02D5   |
| Data Size    | 21 bytes |
| Instructions | 5        |

```
      00 01 02 03 04 05 06 07  08 09 0A 0B 0C 0D 0E 0F
      -- -- -- -- -- -- -- --  -- -- -- -- -- -- -- --
02D0:                32 0E 80  1F 00 24 80 25 80 22 80       2....$.%.".
02E0: 1F 01 4B E2 00 0C 01 26  80 00                    ..K....&..      
```

#### Opcodes

```
  0: 0x02D5 [0x32] ExtData[1]->MainSpeed = 13* * 0.1
  1: 0x02D8 [0x1F] MOVE_ENTITY: EventEntity moves to X=423.727*, Z=-63.889*, Y=0.800*
  2: 0x02E0 [0x1F] MOVE_ENTITY: Update entity position (mode=1)
  3: 0x02E2 [0x4B] UPDATE_ENTITY_YAW(entity=Ajido-Marujido (ID: 17563874/0x010C00E2), yaw=17.6°*)
  4: 0x02E9 [0x00] END_REQSTACK()
```

### Event 65535.41

#### Metadata

| Field        | Value    |
|--------------|----------|
| Entrypoint   | 0x02EA   |
| Data Size    | 42 bytes |
| Instructions | 8        |

```
      00 01 02 03 04 05 06 07  08 09 0A 0B 0C 0D 0E 0F
      -- -- -- -- -- -- -- --  -- -- -- -- -- -- -- --
02E0:                                32 0E 80 37 27 80            2..7'.
02F0: 28 80 22 80 29 80 1F 00  2A 80 2B 80 22 80 1F 01  (.".)...*.+."...
0300: 1F 00 2C 80 2D 80 22 80  1F 01 4A E2 00 0C 01 E3  ..,.-."...J.....
0310: 00 0C 01 00                                       ....            
```

#### Opcodes

```
  0: 0x02EA [0x32] ExtData[1]->MainSpeed = 13* * 0.1
  1: 0x02ED [0x37] UPDATE_EVENT_POSITION_AND_DIR: x=426.492*, z=-61.635*, y=0.800*, direction=236.0°*
  2: 0x02F6 [0x1F] MOVE_ENTITY: EventEntity moves to X=426.005*, Z=-58.777*, Y=0.800*
  3: 0x02FE [0x1F] MOVE_ENTITY: Update entity position (mode=1)
  4: 0x0300 [0x1F] MOVE_ENTITY: EventEntity moves to X=420.831*, Z=-53.013*, Y=0.800*
  5: 0x0308 [0x1F] MOVE_ENTITY: Update entity position (mode=1)
  6: 0x030A [0x4A] Ajido-Marujido (ID: 17563874/0x010C00E2) looks at Apururu (ID: 17563875/0x010C00E3)
  7: 0x0313 [0x00] END_REQSTACK()
```

### Event 65535.42

#### Metadata

| Field        | Value   |
|--------------|---------|
| Entrypoint   | 0x0314  |
| Data Size    | 8 bytes |
| Instructions | 2       |

```
      00 01 02 03 04 05 06 07  08 09 0A 0B 0C 0D 0E 0F
      -- -- -- -- -- -- -- --  -- -- -- -- -- -- -- --
0310:             4B E2 00 0C  01 2E 80 00                  K.......    
```

#### Opcodes

```
  0: 0x0314 [0x4B] UPDATE_ENTITY_YAW(entity=Ajido-Marujido (ID: 17563874/0x010C00E2), yaw=5.5°*)
  1: 0x031B [0x00] END_REQSTACK()
```

### Event 65535.43

#### Metadata

| Field        | Value    |
|--------------|----------|
| Entrypoint   | 0x031C   |
| Data Size    | 20 bytes |
| Instructions | 4        |

```
      00 01 02 03 04 05 06 07  08 09 0A 0B 0C 0D 0E 0F
      -- -- -- -- -- -- -- --  -- -- -- -- -- -- -- --
0310:                                      37 2F 80 30              7/.0
0320: 80 09 80 31 80 1F 00 32  80 33 80 09 80 1F 01 00  ...1...2.3......
```

#### Opcodes

```
  0: 0x031C [0x37] UPDATE_EVENT_POSITION_AND_DIR: x=419.747*, z=-50.000*, y=0.000*, direction=271.8°*
  1: 0x0325 [0x1F] MOVE_ENTITY: EventEntity moves to X=419.070*, Z=-46.140*, Y=0.000*
  2: 0x032D [0x1F] MOVE_ENTITY: Update entity position (mode=1)
  3: 0x032F [0x00] END_REQSTACK()
```

### Event 65535.44

#### Metadata

| Field        | Value    |
|--------------|----------|
| Entrypoint   | 0x0330   |
| Data Size    | 20 bytes |
| Instructions | 4        |

```
      00 01 02 03 04 05 06 07  08 09 0A 0B 0C 0D 0E 0F
      -- -- -- -- -- -- -- --  -- -- -- -- -- -- -- --
0330: 37 32 80 33 80 09 80 34  80 1F 00 35 80 36 80 09  72.3...4...5.6..
0340: 80 1F 01 00                                       ....            
```

#### Opcodes

```
  0: 0x0330 [0x37] UPDATE_EVENT_POSITION_AND_DIR: x=419.070*, z=-46.140*, y=0.000*, direction=260.7°*
  1: 0x0339 [0x1F] MOVE_ENTITY: EventEntity moves to X=419.314*, Z=-42.330*, Y=0.000*
  2: 0x0341 [0x1F] MOVE_ENTITY: Update entity position (mode=1)
  3: 0x0343 [0x00] END_REQSTACK()
```

### Event 65535.45

#### Metadata

| Field        | Value    |
|--------------|----------|
| Entrypoint   | 0x0344   |
| Data Size    | 21 bytes |
| Instructions | 5        |

```
      00 01 02 03 04 05 06 07  08 09 0A 0B 0C 0D 0E 0F
      -- -- -- -- -- -- -- --  -- -- -- -- -- -- -- --
0340:             32 0E 80 1F  00 37 80 38 80 22 80 1F      2....7.8."..
0350: 01 4B E2 00 0C 01 39 80  00                       .K....9..       
```

#### Opcodes

```
  0: 0x0344 [0x32] ExtData[1]->MainSpeed = 13* * 0.1
  1: 0x0347 [0x1F] MOVE_ENTITY: EventEntity moves to X=420.171*, Z=-65.973*, Y=0.800*
  2: 0x034F [0x1F] MOVE_ENTITY: Update entity position (mode=1)
  3: 0x0351 [0x4B] UPDATE_ENTITY_YAW(entity=Ajido-Marujido (ID: 17563874/0x010C00E2), yaw=22.0°*)
  4: 0x0358 [0x00] END_REQSTACK()
```

### Event 65535.46

#### Metadata

| Field        | Value    |
|--------------|----------|
| Entrypoint   | 0x0359   |
| Data Size    | 51 bytes |
| Instructions | 11       |

```
      00 01 02 03 04 05 06 07  08 09 0A 0B 0C 0D 0E 0F
      -- -- -- -- -- -- -- --  -- -- -- -- -- -- -- --
0350:                             1F 00 3A 80 3B 80 22           ..:.;."
0360: 80 1F 01 1F 00 3C 80 3D  80 22 80 1F 01 1F 00 3E  .....<.=.".....>
0370: 80 3F 80 22 80 1F 01 1F  00 40 80 41 80 22 80 1F  .?.".....@.A."..
0380: 01 1F 00 42 80 43 80 22  80 1F 01 00              ...B.C."....    
```

#### Opcodes

```
  0: 0x0359 [0x1F] MOVE_ENTITY: EventEntity moves to X=422.907*, Z=-65.334*, Y=0.800*
  1: 0x0361 [0x1F] MOVE_ENTITY: Update entity position (mode=1)
  2: 0x0363 [0x1F] MOVE_ENTITY: EventEntity moves to X=424.942*, Z=-63.085*, Y=0.800*
  3: 0x036B [0x1F] MOVE_ENTITY: Update entity position (mode=1)
  4: 0x036D [0x1F] MOVE_ENTITY: EventEntity moves to X=426.084*, Z=-60.053*, Y=0.800*
  5: 0x0375 [0x1F] MOVE_ENTITY: Update entity position (mode=1)
  6: 0x0377 [0x1F] MOVE_ENTITY: EventEntity moves to X=425.221*, Z=-56.934*, Y=0.800*
  7: 0x037F [0x1F] MOVE_ENTITY: Update entity position (mode=1)
  8: 0x0381 [0x1F] MOVE_ENTITY: EventEntity moves to X=421.716*, Z=-54.078*, Y=0.800*
  9: 0x0389 [0x1F] MOVE_ENTITY: Update entity position (mode=1)
 10: 0x038B [0x00] END_REQSTACK()
```

### Event 65535.47

#### Metadata

| Field        | Value   |
|--------------|---------|
| Entrypoint   | 0x038C  |
| Data Size    | 1 bytes |
| Instructions | 1       |

```
      00 01 02 03 04 05 06 07  08 09 0A 0B 0C 0D 0E 0F
      -- -- -- -- -- -- -- --  -- -- -- -- -- -- -- --
0380:                                      00                       .   
```

#### Opcodes

```
  0: 0x038C [0x00] END_REQSTACK()
```

### Event 65535.48

#### Metadata

| Field        | Value    |
|--------------|----------|
| Entrypoint   | 0x038D   |
| Data Size    | 33 bytes |
| Instructions | 7        |

```
      00 01 02 03 04 05 06 07  08 09 0A 0B 0C 0D 0E 0F
      -- -- -- -- -- -- -- --  -- -- -- -- -- -- -- --
0380:                                         29 08 E2               )..
0390: 00 0C 01 01 1D 44 80 23  29 08 E2 00 0C 01 02 29  .....D.#)......)
03A0: 08 E2 00 0C 01 03 29 08  E2 00 0C 01 04 00        ......).......  
```

#### Opcodes

```
  0: 0x038D [0x29] REQ_SET_WAIT(priority=0x08, entity_id=Ajido-Marujido (ID: 17563874/0x010C00E2), tag_num=0x01)
  1: 0x0394 [0x1D] PRINT_EVENT_MESSAGE(message_id=7260*)
    → "And you, Apururu, my own sistaru...! Can'taru you see the truth behind all of this?"
  2: 0x0397 [0x23] WAIT_FOR_DIALOG_INTERACTION
  3: 0x0398 [0x29] REQ_SET_WAIT(priority=0x08, entity_id=Ajido-Marujido (ID: 17563874/0x010C00E2), tag_num=0x02)
  4: 0x039F [0x29] REQ_SET_WAIT(priority=0x08, entity_id=Ajido-Marujido (ID: 17563874/0x010C00E2), tag_num=0x03)
  5: 0x03A6 [0x29] REQ_SET_WAIT(priority=0x08, entity_id=Ajido-Marujido (ID: 17563874/0x010C00E2), tag_num=0x04)
  6: 0x03AD [0x00] END_REQSTACK()
```

### Event 65535.49

#### Metadata

| Field        | Value    |
|--------------|----------|
| Entrypoint   | 0x03AE   |
| Data Size    | 47 bytes |
| Instructions | 12       |

```
      00 01 02 03 04 05 06 07  08 09 0A 0B 0C 0D 0E 0F
      -- -- -- -- -- -- -- --  -- -- -- -- -- -- -- --
03A0:                                            27 0A                '.
03B0: E2 00 0C 01 2F 1D 45 80  23 45 46 80 F0 FF FF 7F  ..../.E.#EF.....
03C0: F0 FF FF 7F 73 30 30 33  09 80 1D 47 80 23 1D 48  ....s003...G.#.H
03D0: 80 23 1D 49 80 23 2A 0A  E2 00 0C 01 00           .#.I.#*......   
```

#### Opcodes

```
  0: 0x03AE [0x27] REQ_SET(priority=0x0A, entity_id=Ajido-Marujido (ID: 17563874/0x010C00E2), tag_num=0x2F)
  1: 0x03B5 [0x1D] PRINT_EVENT_MESSAGE(message_id=7261*)
    → "Why do you think they all fear war, but won't lift a finger-winger to do anything about it?"
  2: 0x03B8 [0x23] WAIT_FOR_DIALOG_INTERACTION
  3: 0x03B9 [0x45] LOAD_SCHEDULED_TASK: Load scheduler "s003" with entities [LocalPlayer, LocalPlayer], work=[92*, 0*]
  4: 0x03CA [0x1D] PRINT_EVENT_MESSAGE(message_id=7262*)
    → "They all say that Windurst has "peace and security, peace and security," but do you really-weally think our country has peace?"
  5: 0x03CD [0x23] WAIT_FOR_DIALOG_INTERACTION
  6: 0x03CE [0x1D] PRINT_EVENT_MESSAGE(message_id=7263*)
    → "The wounds the Orastery received from the war haven't healed, even after twenty-odd years. The best of the War Warlock mages are dying off, unable to train new, younger replacementarus."
  7: 0x03D1 [0x23] WAIT_FOR_DIALOG_INTERACTION
  8: 0x03D2 [0x1D] PRINT_EVENT_MESSAGE(message_id=7264*)
    → "Just imagine what would happen if war broke out again. Windurst would be obliterated in an instantaru. That's why...that's why we need some grand new magic..."
  9: 0x03D5 [0x23] WAIT_FOR_DIALOG_INTERACTION
 10: 0x03D6 [0x2A] GET_REQ_LEVEL(level=10, entity_id=Ajido-Marujido (ID: 17563874/0x010C00E2))
 11: 0x03DC [0x00] END_REQSTACK()
```

### Event 65535.50

#### Metadata

| Field        | Value    |
|--------------|----------|
| Entrypoint   | 0x03DD   |
| Data Size    | 37 bytes |
| Instructions | 9        |

```
      00 01 02 03 04 05 06 07  08 09 0A 0B 0C 0D 0E 0F
      -- -- -- -- -- -- -- --  -- -- -- -- -- -- -- --
03D0:                                         29 08 E2               )..
03E0: 00 0C 01 01 1D 4A 80 23  29 08 E2 00 0C 01 02 29  .....J.#)......)
03F0: 08 E2 00 0C 01 03 1D 4B  80 23 29 08 E2 00 0C 01  .......K.#).....
0400: 04 00                                             ..              
```

#### Opcodes

```
  0: 0x03DD [0x29] REQ_SET_WAIT(priority=0x08, entity_id=Ajido-Marujido (ID: 17563874/0x010C00E2), tag_num=0x01)
  1: 0x03E4 [0x1D] PRINT_EVENT_MESSAGE(message_id=7266*)
    → "Yes, and what about her...? What was the reason she forbade the very magic I seek? If they could have controlled that magic properly, then we wouldn't have had to buddy-buddy with the beastmen in the first place!"
  2: 0x03E7 [0x23] WAIT_FOR_DIALOG_INTERACTION
  3: 0x03E8 [0x29] REQ_SET_WAIT(priority=0x08, entity_id=Ajido-Marujido (ID: 17563874/0x010C00E2), tag_num=0x02)
  4: 0x03EF [0x29] REQ_SET_WAIT(priority=0x08, entity_id=Ajido-Marujido (ID: 17563874/0x010C00E2), tag_num=0x03)
  5: 0x03F6 [0x1D] PRINT_EVENT_MESSAGE(message_id=7267*)
    → "Sure, the spell-weaver died, but the magic itself was a great success..."
  6: 0x03F9 [0x23] WAIT_FOR_DIALOG_INTERACTION
  7: 0x03FA [0x29] REQ_SET_WAIT(priority=0x08, entity_id=Ajido-Marujido (ID: 17563874/0x010C00E2), tag_num=0x04)
  8: 0x0401 [0x00] END_REQSTACK()
```

### Event 65535.51

#### Metadata

| Field        | Value    |
|--------------|----------|
| Entrypoint   | 0x0402   |
| Data Size    | 33 bytes |
| Instructions | 7        |

```
      00 01 02 03 04 05 06 07  08 09 0A 0B 0C 0D 0E 0F
      -- -- -- -- -- -- -- --  -- -- -- -- -- -- -- --
0400:       29 08 E2 00 0C 01  05 1D 4C 80 23 29 08 E2    ).......L.#)..
0410: 00 0C 01 06 29 08 E2 00  0C 01 07 29 08 E2 00 0C  ....)......)....
0420: 01 08 00                                          ...             
```

#### Opcodes

```
  0: 0x0402 [0x29] REQ_SET_WAIT(priority=0x08, entity_id=Ajido-Marujido (ID: 17563874/0x010C00E2), tag_num=0x05)
  1: 0x0409 [0x1D] PRINT_EVENT_MESSAGE(message_id=7270*)
    → "Humph. Say whataru you like. A genius is never accepted by the world in his own time. If you've just come here to whinge and whine, then off with you! Go on, getaru!"
  2: 0x040C [0x23] WAIT_FOR_DIALOG_INTERACTION
  3: 0x040D [0x29] REQ_SET_WAIT(priority=0x08, entity_id=Ajido-Marujido (ID: 17563874/0x010C00E2), tag_num=0x06)
  4: 0x0414 [0x29] REQ_SET_WAIT(priority=0x08, entity_id=Ajido-Marujido (ID: 17563874/0x010C00E2), tag_num=0x07)
  5: 0x041B [0x29] REQ_SET_WAIT(priority=0x08, entity_id=Ajido-Marujido (ID: 17563874/0x010C00E2), tag_num=0x08)
  6: 0x0422 [0x00] END_REQSTACK()
```

### Event 65535.52

#### Metadata

| Field        | Value    |
|--------------|----------|
| Entrypoint   | 0x0423   |
| Data Size    | 14 bytes |
| Instructions | 4        |

```
      00 01 02 03 04 05 06 07  08 09 0A 0B 0C 0D 0E 0F
      -- -- -- -- -- -- -- --  -- -- -- -- -- -- -- --
0420:          32 0E 80 1F 00  4D 80 4E 80 09 80 1F 01     2....M.N.....
0430: 00                                                .               
```

#### Opcodes

```
  0: 0x0423 [0x32] ExtData[1]->MainSpeed = 13* * 0.1
  1: 0x0426 [0x1F] MOVE_ENTITY: EventEntity moves to X=420.635*, Z=-50.112*, Y=0.000*
  2: 0x042E [0x1F] MOVE_ENTITY: Update entity position (mode=1)
  3: 0x0430 [0x00] END_REQSTACK()
```

### Event 65535.53

#### Metadata

| Field        | Value   |
|--------------|---------|
| Entrypoint   | 0x0431  |
| Data Size    | 5 bytes |
| Instructions | 3       |

```
      00 01 02 03 04 05 06 07  08 09 0A 0B 0C 0D 0E 0F
      -- -- -- -- -- -- -- --  -- -- -- -- -- -- -- --
0430:    1D 4F 80 23 00                                  .O.#.          
```

#### Opcodes

```
  0: 0x0431 [0x1D] PRINT_EVENT_MESSAGE(message_id=7273*)
    → "Oi! Who's that over there?"
  1: 0x0434 [0x23] WAIT_FOR_DIALOG_INTERACTION
  2: 0x0435 [0x00] END_REQSTACK()
```

### Event 43

#### Metadata

| Field        | Value    |
|--------------|----------|
| Entrypoint   | 0x0436   |
| Data Size    | 19 bytes |
| Instructions | 5        |

```
      00 01 02 03 04 05 06 07  08 09 0A 0B 0C 0D 0E 0F
      -- -- -- -- -- -- -- --  -- -- -- -- -- -- -- --
0430:                   29 08  E2 00 0C 01 01 1D 50 80        ).......P.
0440: 23 29 08 E2 00 0C 01 02  00                       #).......       
```

#### Opcodes

```
  0: 0x0436 [0x29] REQ_SET_WAIT(priority=0x08, entity_id=Ajido-Marujido (ID: 17563874/0x010C00E2), tag_num=0x01)
  1: 0x043D [0x1D] PRINT_EVENT_MESSAGE(message_id=7274*)
    → "Ah...? What's thataru, you say? A wanna-be newbie adventurer, huh? So you're the one they sent to help me with my experiment...?"
  2: 0x0440 [0x23] WAIT_FOR_DIALOG_INTERACTION
  3: 0x0441 [0x29] REQ_SET_WAIT(priority=0x08, entity_id=Ajido-Marujido (ID: 17563874/0x010C00E2), tag_num=0x02)
  4: 0x0448 [0x00] END_REQSTACK()
```

### Event 65535.54

#### Metadata

| Field        | Value    |
|--------------|----------|
| Entrypoint   | 0x0449   |
| Data Size    | 19 bytes |
| Instructions | 5        |

```
      00 01 02 03 04 05 06 07  08 09 0A 0B 0C 0D 0E 0F
      -- -- -- -- -- -- -- --  -- -- -- -- -- -- -- --
0440:                             29 08 E2 00 0C 01 03           )......
0450: 1D 51 80 23 29 08 E2 00  0C 01 04 00              .Q.#).......    
```

#### Opcodes

```
  0: 0x0449 [0x29] REQ_SET_WAIT(priority=0x08, entity_id=Ajido-Marujido (ID: 17563874/0x010C00E2), tag_num=0x03)
  1: 0x0450 [0x1D] PRINT_EVENT_MESSAGE(message_id=7275*)
    → "Well, you're too latey-watey! The experiment is over. This gizmo just broke down again..."
  2: 0x0453 [0x23] WAIT_FOR_DIALOG_INTERACTION
  3: 0x0454 [0x29] REQ_SET_WAIT(priority=0x08, entity_id=Ajido-Marujido (ID: 17563874/0x010C00E2), tag_num=0x04)
  4: 0x045B [0x00] END_REQSTACK()
```

### Event 65535.55

#### Metadata

| Field        | Value    |
|--------------|----------|
| Entrypoint   | 0x045C   |
| Data Size    | 19 bytes |
| Instructions | 5        |

```
      00 01 02 03 04 05 06 07  08 09 0A 0B 0C 0D 0E 0F
      -- -- -- -- -- -- -- --  -- -- -- -- -- -- -- --
0450:                                      29 08 E2 00              )...
0460: 0C 01 09 1D 52 80 23 29  08 E2 00 0C 01 0A 00     ....R.#)....... 
```

#### Opcodes

```
  0: 0x045C [0x29] REQ_SET_WAIT(priority=0x08, entity_id=Ajido-Marujido (ID: 17563874/0x010C00E2), tag_num=0x09)
  1: 0x0463 [0x1D] PRINT_EVENT_MESSAGE(message_id=7276*)
    → "And then my pesky little sistaru wandered on in just to add insult to injury!"
  2: 0x0466 [0x23] WAIT_FOR_DIALOG_INTERACTION
  3: 0x0467 [0x29] REQ_SET_WAIT(priority=0x08, entity_id=Ajido-Marujido (ID: 17563874/0x010C00E2), tag_num=0x0A)
  4: 0x046E [0x00] END_REQSTACK()
```

### Event 65535.56

#### Metadata

| Field        | Value    |
|--------------|----------|
| Entrypoint   | 0x046F   |
| Data Size    | 19 bytes |
| Instructions | 5        |

```
      00 01 02 03 04 05 06 07  08 09 0A 0B 0C 0D 0E 0F
      -- -- -- -- -- -- -- --  -- -- -- -- -- -- -- --
0460:                                               29                 )
0470: 08 E2 00 0C 01 0B 1D 53  80 23 29 08 E2 00 0C 01  .......S.#).....
0480: 0C 00                                             ..              
```

#### Opcodes

```
  0: 0x046F [0x29] REQ_SET_WAIT(priority=0x08, entity_id=Ajido-Marujido (ID: 17563874/0x010C00E2), tag_num=0x0B)
  1: 0x0476 [0x1D] PRINT_EVENT_MESSAGE(message_id=7277*)
    → "Phew... Well, I've had enough for one day. I'm headed home. Seeing as you've come all this way, I'd hate for you to go home empty-handed, so here's a little job for you."
  2: 0x0479 [0x23] WAIT_FOR_DIALOG_INTERACTION
  3: 0x047A [0x29] REQ_SET_WAIT(priority=0x08, entity_id=Ajido-Marujido (ID: 17563874/0x010C00E2), tag_num=0x0C)
  4: 0x0481 [0x00] END_REQSTACK()
```

### Event 65535.57

#### Metadata

| Field        | Value   |
|--------------|---------|
| Entrypoint   | 0x0482  |
| Data Size    | 9 bytes |
| Instructions | 5       |

```
      00 01 02 03 04 05 06 07  08 09 0A 0B 0C 0D 0E 0F
      -- -- -- -- -- -- -- --  -- -- -- -- -- -- -- --
0480:       1D 54 80 23 1D 55  80 23 00                   .T.#.U.#.     
```

#### Opcodes

```
  0: 0x0482 [0x1D] PRINT_EVENT_MESSAGE(message_id=7278*)
    → "On your way here, you probably noticed the glowing receptacle gizmos here and there, didn'taru you? Well, inside each of them, there's a magical ball called a "Mana Orb.""
  1: 0x0485 [0x23] WAIT_FOR_DIALOG_INTERACTION
  2: 0x0486 [0x1D] PRINT_EVENT_MESSAGE(message_id=7279*)
    → "I think one of those Mana Orbs was broken when my experiment failed just now. Your job is to find the broken sphere and take it back to the Orastery."
  3: 0x0489 [0x23] WAIT_FOR_DIALOG_INTERACTION
  4: 0x048A [0x00] END_REQSTACK()
```

### Event 65535.58

#### Metadata

| Field        | Value   |
|--------------|---------|
| Entrypoint   | 0x048B  |
| Data Size    | 5 bytes |
| Instructions | 3       |

```
      00 01 02 03 04 05 06 07  08 09 0A 0B 0C 0D 0E 0F
      -- -- -- -- -- -- -- --  -- -- -- -- -- -- -- --
0480:                                   1D 56 80 23 00             .V.#.
```

#### Opcodes

```
  0: 0x048B [0x1D] PRINT_EVENT_MESSAGE(message_id=7280*)
    → "Oh, and one more thing... Don't go blabbing about what you just heard here, all rightaru?"
  1: 0x048E [0x23] WAIT_FOR_DIALOG_INTERACTION
  2: 0x048F [0x00] END_REQSTACK()
```

### Event 46

#### Metadata

| Field        | Value   |
|--------------|---------|
| Entrypoint   | 0x0490  |
| Data Size    | 1 bytes |
| Instructions | 1       |

```
      00 01 02 03 04 05 06 07  08 09 0A 0B 0C 0D 0E 0F
      -- -- -- -- -- -- -- --  -- -- -- -- -- -- -- --
0490: 00                                                .               
```

#### Opcodes

```
  0: 0x0490 [0x00] END_REQSTACK()
```

### Event 65535.59

#### Metadata

| Field        | Value    |
|--------------|----------|
| Entrypoint   | 0x0491   |
| Data Size    | 30 bytes |
| Instructions | 7        |

```
      00 01 02 03 04 05 06 07  08 09 0A 0B 0C 0D 0E 0F
      -- -- -- -- -- -- -- --  -- -- -- -- -- -- -- --
0490:    37 57 80 58 80 09 80  59 80 4E 00 E2 00 0C 01   7W.X...Y.N.....
04A0: 32 0E 80 1F 00 5A 80 5B  80 09 80 1F 01 6F 00     2....Z.[.....o. 
```

#### Opcodes

```
  0: 0x0491 [0x37] UPDATE_EVENT_POSITION_AND_DIR: x=-14.174*, z=20.471*, y=0.000*, direction=191.7°*
  1: 0x049A [0x4E] SET_ENTITY_HIDE_FLAG: Show Ajido-Marujido (ID: 17563874/0x010C00E2)
  2: 0x04A0 [0x32] ExtData[1]->MainSpeed = 13* * 0.1
  3: 0x04A3 [0x1F] MOVE_ENTITY: EventEntity moves to X=-18.248*, Z=20.556*, Y=0.000*
  4: 0x04AB [0x1F] MOVE_ENTITY: Update entity position (mode=1)
  5: 0x04AD [0x6F] WAIT_FRAME_DELAY: Yield until WaitTime reaches zero
  6: 0x04AE [0x00] END_REQSTACK()
```

### Event 65535.60

#### Metadata

| Field        | Value    |
|--------------|----------|
| Entrypoint   | 0x04AF   |
| Data Size    | 15 bytes |
| Instructions | 5        |

```
      00 01 02 03 04 05 06 07  08 09 0A 0B 0C 0D 0E 0F
      -- -- -- -- -- -- -- --  -- -- -- -- -- -- -- --
04A0:                                               32                 2
04B0: 0E 80 1F 00 5C 80 5D 80  09 80 1F 01 6F 00        ....\.].....o.  
```

#### Opcodes

```
  0: 0x04AF [0x32] ExtData[1]->MainSpeed = 13* * 0.1
  1: 0x04B2 [0x1F] MOVE_ENTITY: EventEntity moves to X=-21.846*, Z=20.017*, Y=0.000*
  2: 0x04BA [0x1F] MOVE_ENTITY: Update entity position (mode=1)
  3: 0x04BC [0x6F] WAIT_FRAME_DELAY: Yield until WaitTime reaches zero
  4: 0x04BD [0x00] END_REQSTACK()
```

### Event 65535.61

#### Metadata

| Field        | Value    |
|--------------|----------|
| Entrypoint   | 0x04BE   |
| Data Size    | 14 bytes |
| Instructions | 4        |

```
      00 01 02 03 04 05 06 07  08 09 0A 0B 0C 0D 0E 0F
      -- -- -- -- -- -- -- --  -- -- -- -- -- -- -- --
04B0:                                            32 0E                2.
04C0: 80 1F 00 5E 80 5F 80 09  80 1F 01 00              ...^._......    
```

#### Opcodes

```
  0: 0x04BE [0x32] ExtData[1]->MainSpeed = 13* * 0.1
  1: 0x04C1 [0x1F] MOVE_ENTITY: EventEntity moves to X=-17.566*, Z=19.911*, Y=0.000*
  2: 0x04C9 [0x1F] MOVE_ENTITY: Update entity position (mode=1)
  3: 0x04CB [0x00] END_REQSTACK()
```

### Event 65535.62

#### Metadata

| Field        | Value    |
|--------------|----------|
| Entrypoint   | 0x04CC   |
| Data Size    | 14 bytes |
| Instructions | 4        |

```
      00 01 02 03 04 05 06 07  08 09 0A 0B 0C 0D 0E 0F
      -- -- -- -- -- -- -- --  -- -- -- -- -- -- -- --
04C0:                                      32 0E 80 1F              2...
04D0: 00 60 80 61 80 09 80 1F  01 00                    .`.a......      
```

#### Opcodes

```
  0: 0x04CC [0x32] ExtData[1]->MainSpeed = 13* * 0.1
  1: 0x04CF [0x1F] MOVE_ENTITY: EventEntity moves to X=-14.998*, Z=19.713*, Y=0.000*
  2: 0x04D7 [0x1F] MOVE_ENTITY: Update entity position (mode=1)
  3: 0x04D9 [0x00] END_REQSTACK()
```

### Event 65535.63

#### Metadata

| Field        | Value    |
|--------------|----------|
| Entrypoint   | 0x04DA   |
| Data Size    | 16 bytes |
| Instructions | 2        |

```
      00 01 02 03 04 05 06 07  08 09 0A 0B 0C 0D 0E 0F
      -- -- -- -- -- -- -- --  -- -- -- -- -- -- -- --
04D0:                                5B 62 80 F8 FF FF            [b....
04E0: 7F E9 00 0C 01 6D 61 69  6E 00                    .....main.      
```

#### Opcodes

```
  0: 0x04DA [0x5B] LOAD_EXT_SCHEDULER: Load scheduler "main" with entities [EventEntity, Ace of Cups (ID: 17563881/0x010C00E9)], work=230*
  1: 0x04E9 [0x00] END_REQSTACK()
```

### Event 65535.64

#### Metadata

| Field        | Value   |
|--------------|---------|
| Entrypoint   | 0x04EA  |
| Data Size    | 5 bytes |
| Instructions | 3       |

```
      00 01 02 03 04 05 06 07  08 09 0A 0B 0C 0D 0E 0F
      -- -- -- -- -- -- -- --  -- -- -- -- -- -- -- --
04E0:                                1D 63 80 23 00               .c.#. 
```

#### Opcodes

```
  0: 0x04EA [0x1D] PRINT_EVENT_MESSAGE(message_id=7310*)
    → "This time you've gone too far!"
  1: 0x04ED [0x23] WAIT_FOR_DIALOG_INTERACTION
  2: 0x04EE [0x00] END_REQSTACK()
```

### Event 65535.65

#### Metadata

| Field        | Value    |
|--------------|----------|
| Entrypoint   | 0x04EF   |
| Data Size    | 26 bytes |
| Instructions | 6        |

```
      00 01 02 03 04 05 06 07  08 09 0A 0B 0C 0D 0E 0F
      -- -- -- -- -- -- -- --  -- -- -- -- -- -- -- --
04E0:                                               29                 )
04F0: 08 E2 00 0C 01 05 1D 64  80 23 29 08 E2 00 0C 01  .......d.#).....
0500: 07 29 08 E2 00 0C 01 08  00                       .).......       
```

#### Opcodes

```
  0: 0x04EF [0x29] REQ_SET_WAIT(priority=0x08, entity_id=Ajido-Marujido (ID: 17563874/0x010C00E2), tag_num=0x05)
  1: 0x04F6 [0x1D] PRINT_EVENT_MESSAGE(message_id=7311*)
    → "When you cannot lie, you must value your words as much as your life!"
  2: 0x04F9 [0x23] WAIT_FOR_DIALOG_INTERACTION
  3: 0x04FA [0x29] REQ_SET_WAIT(priority=0x08, entity_id=Ajido-Marujido (ID: 17563874/0x010C00E2), tag_num=0x07)
  4: 0x0501 [0x29] REQ_SET_WAIT(priority=0x08, entity_id=Ajido-Marujido (ID: 17563874/0x010C00E2), tag_num=0x08)
  5: 0x0508 [0x00] END_REQSTACK()
```

### Event 65535.66

#### Metadata

| Field        | Value    |
|--------------|----------|
| Entrypoint   | 0x0509   |
| Data Size    | 23 bytes |
| Instructions | 7        |

```
      00 01 02 03 04 05 06 07  08 09 0A 0B 0C 0D 0E 0F
      -- -- -- -- -- -- -- --  -- -- -- -- -- -- -- --
0500:                             29 08 E2 00 0C 01 01           )......
0510: 1D 65 80 23 1D 66 80 23  29 08 E2 00 0C 01 02 00  .e.#.f.#).......
```

#### Opcodes

```
  0: 0x0509 [0x29] REQ_SET_WAIT(priority=0x08, entity_id=Ajido-Marujido (ID: 17563874/0x010C00E2), tag_num=0x01)
  1: 0x0510 [0x1D] PRINT_EVENT_MESSAGE(message_id=7313*)
    → "So, "Cardians of the Dark," you have already investigatarued me, have you? Dare I ask what evil enterprise you are planning?"
  2: 0x0513 [0x23] WAIT_FOR_DIALOG_INTERACTION
  3: 0x0514 [0x1D] PRINT_EVENT_MESSAGE(message_id=7314*)
    → "Don'taru tell me that you are after the forbidden magic as well? That couldn't possibly be true, could it?"
  4: 0x0517 [0x23] WAIT_FOR_DIALOG_INTERACTION
  5: 0x0518 [0x29] REQ_SET_WAIT(priority=0x08, entity_id=Ajido-Marujido (ID: 17563874/0x010C00E2), tag_num=0x02)
  6: 0x051F [0x00] END_REQSTACK()
```

### Event 65535.67

#### Metadata

| Field        | Value    |
|--------------|----------|
| Entrypoint   | 0x0520   |
| Data Size    | 33 bytes |
| Instructions | 7        |

```
      00 01 02 03 04 05 06 07  08 09 0A 0B 0C 0D 0E 0F
      -- -- -- -- -- -- -- --  -- -- -- -- -- -- -- --
0520: 29 08 E2 00 0C 01 0D 1D  67 80 23 29 08 E2 00 0C  ).......g.#)....
0530: 01 0E 29 08 E2 00 0C 01  0F 29 08 E2 00 0C 01 10  ..)......)......
0540: 00                                                .               
```

#### Opcodes

```
  0: 0x0520 [0x29] REQ_SET_WAIT(priority=0x08, entity_id=Ajido-Marujido (ID: 17563874/0x010C00E2), tag_num=0x0D)
  1: 0x0527 [0x1D] PRINT_EVENT_MESSAGE(message_id=7316*)
    → "Humph. They cannot lie, but they can keep their silence! I underestimatarued them!"
  2: 0x052A [0x23] WAIT_FOR_DIALOG_INTERACTION
  3: 0x052B [0x29] REQ_SET_WAIT(priority=0x08, entity_id=Ajido-Marujido (ID: 17563874/0x010C00E2), tag_num=0x0E)
  4: 0x0532 [0x29] REQ_SET_WAIT(priority=0x08, entity_id=Ajido-Marujido (ID: 17563874/0x010C00E2), tag_num=0x0F)
  5: 0x0539 [0x29] REQ_SET_WAIT(priority=0x08, entity_id=Ajido-Marujido (ID: 17563874/0x010C00E2), tag_num=0x10)
  6: 0x0540 [0x00] END_REQSTACK()
```

### Event 65535.68

#### Metadata

| Field        | Value   |
|--------------|---------|
| Entrypoint   | 0x0541  |
| Data Size    | 5 bytes |
| Instructions | 3       |

```
      00 01 02 03 04 05 06 07  08 09 0A 0B 0C 0D 0E 0F
      -- -- -- -- -- -- -- --  -- -- -- -- -- -- -- --
0540:    1D 68 80 23 00                                  .h.#.          
```

#### Opcodes

```
  0: 0x0541 [0x1D] PRINT_EVENT_MESSAGE(message_id=7317*)
    → "So, now I see... You stole that book from our Cardian friends there, eh?"
  1: 0x0544 [0x23] WAIT_FOR_DIALOG_INTERACTION
  2: 0x0545 [0x00] END_REQSTACK()
```

### Event 65535.69

#### Metadata

| Field        | Value    |
|--------------|----------|
| Entrypoint   | 0x0546   |
| Data Size    | 37 bytes |
| Instructions | 9        |

```
      00 01 02 03 04 05 06 07  08 09 0A 0B 0C 0D 0E 0F
      -- -- -- -- -- -- -- --  -- -- -- -- -- -- -- --
0540:                   29 08  E2 00 0C 01 09 1D 69 80        ).......i.
0550: 23 29 08 E2 00 0C 01 0A  29 08 E2 00 0C 01 0B 1D  #)......).......
0560: 6A 80 23 29 08 E2 00 0C  01 0C 00                 j.#).......     
```

#### Opcodes

```
  0: 0x0546 [0x29] REQ_SET_WAIT(priority=0x08, entity_id=Ajido-Marujido (ID: 17563874/0x010C00E2), tag_num=0x09)
  1: 0x054D [0x1D] PRINT_EVENT_MESSAGE(message_id=7318*)
    → "But to hide it and your other spoils right under our noses in ol' Karaha-Baruha's residence...? I guess you could say that the darkestaru place is always under the candlestick."
  2: 0x0550 [0x23] WAIT_FOR_DIALOG_INTERACTION
  3: 0x0551 [0x29] REQ_SET_WAIT(priority=0x08, entity_id=Ajido-Marujido (ID: 17563874/0x010C00E2), tag_num=0x0A)
  4: 0x0558 [0x29] REQ_SET_WAIT(priority=0x08, entity_id=Ajido-Marujido (ID: 17563874/0x010C00E2), tag_num=0x0B)
  5: 0x055F [0x1D] PRINT_EVENT_MESSAGE(message_id=7319*)
    → "You can leave the rest to me. Give me the key to the "House of the Hero." I'm talking about Karaha-Baruha's ring. I know you've gotaru it!"
  6: 0x0562 [0x23] WAIT_FOR_DIALOG_INTERACTION
  7: 0x0563 [0x29] REQ_SET_WAIT(priority=0x08, entity_id=Ajido-Marujido (ID: 17563874/0x010C00E2), tag_num=0x0C)
  8: 0x056A [0x00] END_REQSTACK()
```

### Event 65535.70

#### Metadata

| Field        | Value   |
|--------------|---------|
| Entrypoint   | 0x056B  |
| Data Size    | 5 bytes |
| Instructions | 3       |

```
      00 01 02 03 04 05 06 07  08 09 0A 0B 0C 0D 0E 0F
      -- -- -- -- -- -- -- --  -- -- -- -- -- -- -- --
0560:                                   1D 6B 80 23 00             .k.#.
```

#### Opcodes

```
  0: 0x056B [0x1D] PRINT_EVENT_MESSAGE(message_id=7322*)
    → "You have the gall to think I enjoy playing cat and mouse, running around after you, do you? Really, now...?"
  1: 0x056E [0x23] WAIT_FOR_DIALOG_INTERACTION
  2: 0x056F [0x00] END_REQSTACK()
```

### Event 65535.71

#### Metadata

| Field        | Value    |
|--------------|----------|
| Entrypoint   | 0x0570   |
| Data Size    | 19 bytes |
| Instructions | 5        |

```
      00 01 02 03 04 05 06 07  08 09 0A 0B 0C 0D 0E 0F
      -- -- -- -- -- -- -- --  -- -- -- -- -- -- -- --
0570: 29 08 E2 00 0C 01 01 1D  6C 80 23 29 08 E2 00 0C  ).......l.#)....
0580: 01 17 00                                          ...             
```

#### Opcodes

```
  0: 0x0570 [0x29] REQ_SET_WAIT(priority=0x08, entity_id=Ajido-Marujido (ID: 17563874/0x010C00E2), tag_num=0x01)
  1: 0x0577 [0x1D] PRINT_EVENT_MESSAGE(message_id=7323*)
    → "As for you, adventurer, get out of here while you still can. Otherwise, you'll have a cat in hell's chance of escaping with your belongings intact."
  2: 0x057A [0x23] WAIT_FOR_DIALOG_INTERACTION
  3: 0x057B [0x29] REQ_SET_WAIT(priority=0x08, entity_id=Ajido-Marujido (ID: 17563874/0x010C00E2), tag_num=0x17)
  4: 0x0582 [0x00] END_REQSTACK()
```

### Event 65535.72

#### Metadata

| Field        | Value    |
|--------------|----------|
| Entrypoint   | 0x0583   |
| Data Size    | 33 bytes |
| Instructions | 7        |

```
      00 01 02 03 04 05 06 07  08 09 0A 0B 0C 0D 0E 0F
      -- -- -- -- -- -- -- --  -- -- -- -- -- -- -- --
0580:          29 08 E2 00 0C  01 0D 1D 6D 80 23 29 08     ).......m.#).
0590: E2 00 0C 01 0E 29 08 E2  00 0C 01 0F 29 08 E2 00  .....)......)...
05A0: 0C 01 10 00                                       ....            
```

#### Opcodes

```
  0: 0x0583 [0x29] REQ_SET_WAIT(priority=0x08, entity_id=Ajido-Marujido (ID: 17563874/0x010C00E2), tag_num=0x0D)
  1: 0x058A [0x1D] PRINT_EVENT_MESSAGE(message_id=7324*)
    → "Next stop, ol' Karaha-Baruha's residence! I had better hurry back to Windurst Walls before it's too late..."
  2: 0x058D [0x23] WAIT_FOR_DIALOG_INTERACTION
  3: 0x058E [0x29] REQ_SET_WAIT(priority=0x08, entity_id=Ajido-Marujido (ID: 17563874/0x010C00E2), tag_num=0x0E)
  4: 0x0595 [0x29] REQ_SET_WAIT(priority=0x08, entity_id=Ajido-Marujido (ID: 17563874/0x010C00E2), tag_num=0x0F)
  5: 0x059C [0x29] REQ_SET_WAIT(priority=0x08, entity_id=Ajido-Marujido (ID: 17563874/0x010C00E2), tag_num=0x10)
  6: 0x05A3 [0x00] END_REQSTACK()
```

### Event 41

#### Metadata

| Field        | Value   |
|--------------|---------|
| Entrypoint   | 0x05A4  |
| Data Size    | 7 bytes |
| Instructions | 2       |

```
      00 01 02 03 04 05 06 07  08 09 0A 0B 0C 0D 0E 0F
      -- -- -- -- -- -- -- --  -- -- -- -- -- -- -- --
05A0:             4E 01 E2 00  0C 01 00                     N......     
```

#### Opcodes

```
  0: 0x05A4 [0x4E] SET_ENTITY_HIDE_FLAG: Hide Ajido-Marujido (ID: 17563874/0x010C00E2)
  1: 0x05AA [0x00] END_REQSTACK()
```

### Event 65535.73

#### Metadata

| Field        | Value    |
|--------------|----------|
| Entrypoint   | 0x05AB   |
| Data Size    | 10 bytes |
| Instructions | 2        |

```
      00 01 02 03 04 05 06 07  08 09 0A 0B 0C 0D 0E 0F
      -- -- -- -- -- -- -- --  -- -- -- -- -- -- -- --
05A0:                                   37 6E 80 6F 80             7n.o.
05B0: 09 80 70 80 00                                    ..p..           
```

#### Opcodes

```
  0: 0x05AB [0x37] UPDATE_EVENT_POSITION_AND_DIR: x=-331.488*, z=147.887*, y=0.000*, direction=306.3°*
  1: 0x05B4 [0x00] END_REQSTACK()
```

### Event 65535.74

#### Metadata

| Field        | Value    |
|--------------|----------|
| Entrypoint   | 0x05B5   |
| Data Size    | 23 bytes |
| Instructions | 5        |

```
      00 01 02 03 04 05 06 07  08 09 0A 0B 0C 0D 0E 0F
      -- -- -- -- -- -- -- --  -- -- -- -- -- -- -- --
05B0:                37 71 80  72 80 09 80 73 80 32 0B       7q.r...s.2.
05C0: 80 1F 00 74 80 75 80 09  80 1F 01 00              ...t.u......    
```

#### Opcodes

```
  0: 0x05B5 [0x37] UPDATE_EVENT_POSITION_AND_DIR: x=-331.953*, z=144.757*, y=0.000*, direction=263.1°*
  1: 0x05BE [0x32] ExtData[1]->MainSpeed = 40* * 0.1
  2: 0x05C1 [0x1F] MOVE_ENTITY: EventEntity moves to X=-332.311*, Z=147.218*, Y=0.000*
  3: 0x05C9 [0x1F] MOVE_ENTITY: Update entity position (mode=1)
  4: 0x05CB [0x00] END_REQSTACK()
```

### Event 65535.75

#### Metadata

| Field        | Value    |
|--------------|----------|
| Entrypoint   | 0x05CC   |
| Data Size    | 17 bytes |
| Instructions | 5        |

```
      00 01 02 03 04 05 06 07  08 09 0A 0B 0C 0D 0E 0F
      -- -- -- -- -- -- -- --  -- -- -- -- -- -- -- --
05C0:                                      32 0E 80 1F              2...
05D0: 00 76 80 77 80 09 80 1F  01 39 78 80 00           .v.w.....9x..   
```

#### Opcodes

```
  0: 0x05CC [0x32] ExtData[1]->MainSpeed = 13* * 0.1
  1: 0x05CF [0x1F] MOVE_ENTITY: EventEntity moves to X=-332.852*, Z=149.340*, Y=0.000*
  2: 0x05D7 [0x1F] MOVE_ENTITY: Update entity position (mode=1)
  3: 0x05D9 [0x39] SET_ENTITY_DIRECTION(direction=11.1°*)
  4: 0x05DC [0x00] END_REQSTACK()
```

### Event 65535.76

#### Metadata

| Field        | Value    |
|--------------|----------|
| Entrypoint   | 0x05DD   |
| Data Size    | 27 bytes |
| Instructions | 7        |

```
      00 01 02 03 04 05 06 07  08 09 0A 0B 0C 0D 0E 0F
      -- -- -- -- -- -- -- --  -- -- -- -- -- -- -- --
05D0:                                         32 0B 80               2..
05E0: 1F 00 79 80 7A 80 09 80  1F 01 1C 7B 80 1F 00 7C  ..y.z......{...|
05F0: 80 7D 80 09 80 1F 01 00                           .}......        
```

#### Opcodes

```
  0: 0x05DD [0x32] ExtData[1]->MainSpeed = 40* * 0.1
  1: 0x05E0 [0x1F] MOVE_ENTITY: EventEntity moves to X=-331.884*, Z=145.579*, Y=0.000*
  2: 0x05E8 [0x1F] MOVE_ENTITY: Update entity position (mode=1)
  3: 0x05EA [0x1C] WAIT(60* ticks)
  4: 0x05ED [0x1F] MOVE_ENTITY: EventEntity moves to X=-331.485*, Z=145.425*, Y=0.000*
  5: 0x05F5 [0x1F] MOVE_ENTITY: Update entity position (mode=1)
  6: 0x05F7 [0x00] END_REQSTACK()
```

### Event 65535.77

#### Metadata

| Field        | Value   |
|--------------|---------|
| Entrypoint   | 0x05F8  |
| Data Size    | 5 bytes |
| Instructions | 3       |

```
      00 01 02 03 04 05 06 07  08 09 0A 0B 0C 0D 0E 0F
      -- -- -- -- -- -- -- --  -- -- -- -- -- -- -- --
05F0:                          1D 7E 80 23 00                   .~.#.   
```

#### Opcodes

```
  0: 0x05F8 [0x1D] PRINT_EVENT_MESSAGE(message_id=7328*)
    → "Hey... Are you okay?"
  1: 0x05FB [0x23] WAIT_FOR_DIALOG_INTERACTION
  2: 0x05FC [0x00] END_REQSTACK()
```

### Event 65535.78

#### Metadata

| Field        | Value   |
|--------------|---------|
| Entrypoint   | 0x05FD  |
| Data Size    | 5 bytes |
| Instructions | 3       |

```
      00 01 02 03 04 05 06 07  08 09 0A 0B 0C 0D 0E 0F
      -- -- -- -- -- -- -- --  -- -- -- -- -- -- -- --
05F0:                                         1D 7F 80               ...
0600: 23 00                                             #.              
```

#### Opcodes

```
  0: 0x05FD [0x1D] PRINT_EVENT_MESSAGE(message_id=7329*)
    → "You seem to be all rightaru..."
  1: 0x0600 [0x23] WAIT_FOR_DIALOG_INTERACTION
  2: 0x0601 [0x00] END_REQSTACK()
```

### Event 65535.79

#### Metadata

| Field        | Value    |
|--------------|----------|
| Entrypoint   | 0x0602   |
| Data Size    | 37 bytes |
| Instructions | 9        |

```
      00 01 02 03 04 05 06 07  08 09 0A 0B 0C 0D 0E 0F
      -- -- -- -- -- -- -- --  -- -- -- -- -- -- -- --
0600:       1D 80 80 23 29 08  E2 00 0C 01 05 1D 81 80    ...#).........
0610: 23 29 08 E2 00 0C 01 06  29 08 E2 00 0C 01 07 29  #)......)......)
0620: 08 E2 00 0C 01 08 00                              .......         
```

#### Opcodes

```
  0: 0x0602 [0x1D] PRINT_EVENT_MESSAGE(message_id=7330*)
    → "The Cardians here are very different from the Cardians in town."
  1: 0x0605 [0x23] WAIT_FOR_DIALOG_INTERACTION
  2: 0x0606 [0x29] REQ_SET_WAIT(priority=0x08, entity_id=Ajido-Marujido (ID: 17563874/0x010C00E2), tag_num=0x05)
  3: 0x060D [0x1D] PRINT_EVENT_MESSAGE(message_id=7331*)
    → "You'll be sorry if you carelessly go anywhere near these guys."
  4: 0x0610 [0x23] WAIT_FOR_DIALOG_INTERACTION
  5: 0x0611 [0x29] REQ_SET_WAIT(priority=0x08, entity_id=Ajido-Marujido (ID: 17563874/0x010C00E2), tag_num=0x06)
  6: 0x0618 [0x29] REQ_SET_WAIT(priority=0x08, entity_id=Ajido-Marujido (ID: 17563874/0x010C00E2), tag_num=0x07)
  7: 0x061F [0x29] REQ_SET_WAIT(priority=0x08, entity_id=Ajido-Marujido (ID: 17563874/0x010C00E2), tag_num=0x08)
  8: 0x0626 [0x00] END_REQSTACK()
```

### Event 65535.80

#### Metadata

| Field        | Value   |
|--------------|---------|
| Entrypoint   | 0x0627  |
| Data Size    | 5 bytes |
| Instructions | 3       |

```
      00 01 02 03 04 05 06 07  08 09 0A 0B 0C 0D 0E 0F
      -- -- -- -- -- -- -- --  -- -- -- -- -- -- -- --
0620:                      1D  82 80 23 00                     ...#.    
```

#### Opcodes

```
  0: 0x0627 [0x1D] PRINT_EVENT_MESSAGE(message_id=7332*)
    → "You see, these are my old man's most powerful creations. The ones he practically worked himself to death over."
  1: 0x062A [0x23] WAIT_FOR_DIALOG_INTERACTION
  2: 0x062B [0x00] END_REQSTACK()
```

### Event 65535.81

#### Metadata

| Field        | Value    |
|--------------|----------|
| Entrypoint   | 0x062C   |
| Data Size    | 45 bytes |
| Instructions | 9        |

```
      00 01 02 03 04 05 06 07  08 09 0A 0B 0C 0D 0E 0F
      -- -- -- -- -- -- -- --  -- -- -- -- -- -- -- --
0620:                                      7C 00 F8 FF              |...
0630: FF 7F 29 08 E2 00 0C 01  09 1D 83 80 23 29 08 E2  ..).........#)..
0640: 00 0C 01 0A 29 08 E2 00  0C 01 0B 29 08 E2 00 0C  ....)......)....
0650: 01 0C 7C 01 F8 FF FF 7F  00                       ..|......       
```

#### Opcodes

```
  0: 0x062C [0x7C] EventEntity->Render.Flags2 |= 0x00
  1: 0x0632 [0x29] REQ_SET_WAIT(priority=0x08, entity_id=Ajido-Marujido (ID: 17563874/0x010C00E2), tag_num=0x09)
  2: 0x0639 [0x1D] PRINT_EVENT_MESSAGE(message_id=7333*)
    → "(But, seeing as these Cardians are still up and running about, it must mean that my old man is still alive somewhere...)"
  3: 0x063C [0x23] WAIT_FOR_DIALOG_INTERACTION
  4: 0x063D [0x29] REQ_SET_WAIT(priority=0x08, entity_id=Ajido-Marujido (ID: 17563874/0x010C00E2), tag_num=0x0A)
  5: 0x0644 [0x29] REQ_SET_WAIT(priority=0x08, entity_id=Ajido-Marujido (ID: 17563874/0x010C00E2), tag_num=0x0B)
  6: 0x064B [0x29] REQ_SET_WAIT(priority=0x08, entity_id=Ajido-Marujido (ID: 17563874/0x010C00E2), tag_num=0x0C)
  7: 0x0652 [0x7C] EventEntity->Render.Flags2 |= 0x01
  8: 0x0658 [0x00] END_REQSTACK()
```

### Event 65535.82

#### Metadata

| Field        | Value   |
|--------------|---------|
| Entrypoint   | 0x0659  |
| Data Size    | 5 bytes |
| Instructions | 3       |

```
      00 01 02 03 04 05 06 07  08 09 0A 0B 0C 0D 0E 0F
      -- -- -- -- -- -- -- --  -- -- -- -- -- -- -- --
0650:                             1D 84 80 23 00                 ...#.  
```

#### Opcodes

```
  0: 0x0659 [0x1D] PRINT_EVENT_MESSAGE(message_id=7334*)
    → "Anyway, what the devil-wevil are you doing in this room?"
  1: 0x065C [0x23] WAIT_FOR_DIALOG_INTERACTION
  2: 0x065D [0x00] END_REQSTACK()
```

### Event 65535.83

#### Metadata

| Field        | Value   |
|--------------|---------|
| Entrypoint   | 0x065E  |
| Data Size    | 5 bytes |
| Instructions | 3       |

```
      00 01 02 03 04 05 06 07  08 09 0A 0B 0C 0D 0E 0F
      -- -- -- -- -- -- -- --  -- -- -- -- -- -- -- --
0650:                                            1D 85                ..
0660: 80 23 00                                          .#.             
```

#### Opcodes

```
  0: 0x065E [0x1D] PRINT_EVENT_MESSAGE(message_id=7335*)
    → "These guys are protectaruing a part of the talisman that seals away the Shadow Lord...and that's no ordinary seal! Only the ministers of the five ministries are allowed to enter this room!"
  1: 0x0661 [0x23] WAIT_FOR_DIALOG_INTERACTION
  2: 0x0662 [0x00] END_REQSTACK()
```

### Event 65535.84

#### Metadata

| Field        | Value    |
|--------------|----------|
| Entrypoint   | 0x0663   |
| Data Size    | 19 bytes |
| Instructions | 5        |

```
      00 01 02 03 04 05 06 07  08 09 0A 0B 0C 0D 0E 0F
      -- -- -- -- -- -- -- --  -- -- -- -- -- -- -- --
0660:          29 08 E2 00 0C  01 15 1D 86 80 23 29 08     ).........#).
0670: E2 00 0C 01 16 00                                 ......          
```

#### Opcodes

```
  0: 0x0663 [0x29] REQ_SET_WAIT(priority=0x08, entity_id=Ajido-Marujido (ID: 17563874/0x010C00E2), tag_num=0x15)
  1: 0x066A [0x1D] PRINT_EVENT_MESSAGE(message_id=7336*)
    → "What's that you say...? The great Star Sibyl has collapsed? What terrifying portent did she see in the stars, then...?"
  2: 0x066D [0x23] WAIT_FOR_DIALOG_INTERACTION
  3: 0x066E [0x29] REQ_SET_WAIT(priority=0x08, entity_id=Ajido-Marujido (ID: 17563874/0x010C00E2), tag_num=0x16)
  4: 0x0675 [0x00] END_REQSTACK()
```

### Event 65535.85

#### Metadata

| Field        | Value    |
|--------------|----------|
| Entrypoint   | 0x0676   |
| Data Size    | 33 bytes |
| Instructions | 7        |

```
      00 01 02 03 04 05 06 07  08 09 0A 0B 0C 0D 0E 0F
      -- -- -- -- -- -- -- --  -- -- -- -- -- -- -- --
0670:                   29 08  E2 00 0C 01 0D 1D 87 80        ).........
0680: 23 29 08 E2 00 0C 01 0E  29 08 E2 00 0C 01 0F 29  #)......)......)
0690: 08 E2 00 0C 01 10 00                              .......         
```

#### Opcodes

```
  0: 0x0676 [0x29] REQ_SET_WAIT(priority=0x08, entity_id=Ajido-Marujido (ID: 17563874/0x010C00E2), tag_num=0x0D)
  1: 0x067D [0x1D] PRINT_EVENT_MESSAGE(message_id=7337*)
    → "What in the stars is going on? I had better go check with my own eyes. Better head down to Full Moon Fountain..."
  2: 0x0680 [0x23] WAIT_FOR_DIALOG_INTERACTION
  3: 0x0681 [0x29] REQ_SET_WAIT(priority=0x08, entity_id=Ajido-Marujido (ID: 17563874/0x010C00E2), tag_num=0x0E)
  4: 0x0688 [0x29] REQ_SET_WAIT(priority=0x08, entity_id=Ajido-Marujido (ID: 17563874/0x010C00E2), tag_num=0x0F)
  5: 0x068F [0x29] REQ_SET_WAIT(priority=0x08, entity_id=Ajido-Marujido (ID: 17563874/0x010C00E2), tag_num=0x10)
  6: 0x0696 [0x00] END_REQSTACK()
```

### Event 75

#### Metadata

| Field        | Value   |
|--------------|---------|
| Entrypoint   | 0x0697  |
| Data Size    | 1 bytes |
| Instructions | 1       |

```
      00 01 02 03 04 05 06 07  08 09 0A 0B 0C 0D 0E 0F
      -- -- -- -- -- -- -- --  -- -- -- -- -- -- -- --
0690:                      00                                  .        
```

#### Opcodes

```
  0: 0x0697 [0x00] END_REQSTACK()
```

### Event 65535.86

#### Metadata

| Field        | Value    |
|--------------|----------|
| Entrypoint   | 0x0698   |
| Data Size    | 10 bytes |
| Instructions | 2        |

```
      00 01 02 03 04 05 06 07  08 09 0A 0B 0C 0D 0E 0F
      -- -- -- -- -- -- -- --  -- -- -- -- -- -- -- --
0690:                          37 88 80 89 80 09 80 8A          7.......
06A0: 80 00                                             ..              
```

#### Opcodes

```
  0: 0x0698 [0x37] UPDATE_EVENT_POSITION_AND_DIR: x=-231.933*, z=90.468*, y=0.000*, direction=339.9°*
  1: 0x06A1 [0x00] END_REQSTACK()
```

### Event 65535.87

#### Metadata

| Field        | Value    |
|--------------|----------|
| Entrypoint   | 0x06A2   |
| Data Size    | 10 bytes |
| Instructions | 2        |

```
      00 01 02 03 04 05 06 07  08 09 0A 0B 0C 0D 0E 0F
      -- -- -- -- -- -- -- --  -- -- -- -- -- -- -- --
06A0:       37 8B 80 8C 80 09  80 8D 80 00                7.........    
```

#### Opcodes

```
  0: 0x06A2 [0x37] UPDATE_EVENT_POSITION_AND_DIR: x=-231.061*, z=89.506*, y=0.000*, direction=326.7°*
  1: 0x06AB [0x00] END_REQSTACK()
```

### Event 65535.88

#### Metadata

| Field        | Value   |
|--------------|---------|
| Entrypoint   | 0x06AC  |
| Data Size    | 5 bytes |
| Instructions | 3       |

```
      00 01 02 03 04 05 06 07  08 09 0A 0B 0C 0D 0E 0F
      -- -- -- -- -- -- -- --  -- -- -- -- -- -- -- --
06A0:                                      1D 8E 80 23              ...#
06B0: 00                                                .               
```

#### Opcodes

```
  0: 0x06AC [0x1D] PRINT_EVENT_MESSAGE(message_id=7388*)
    → "Uh...? ...You... Is this a dream?"
  1: 0x06AF [0x23] WAIT_FOR_DIALOG_INTERACTION
  2: 0x06B0 [0x00] END_REQSTACK()
```

### Event 65535.89

#### Metadata

| Field        | Value   |
|--------------|---------|
| Entrypoint   | 0x06B1  |
| Data Size    | 5 bytes |
| Instructions | 3       |

```
      00 01 02 03 04 05 06 07  08 09 0A 0B 0C 0D 0E 0F
      -- -- -- -- -- -- -- --  -- -- -- -- -- -- -- --
06B0:    1D 8F 80 23 00                                  ...#.          
```

#### Opcodes

```
  0: 0x06B1 [0x1D] PRINT_EVENT_MESSAGE(message_id=7390*)
    → "Not a dream, huh...? It feels like I've been trapped in a never-ending nightmare..."
  1: 0x06B4 [0x23] WAIT_FOR_DIALOG_INTERACTION
  2: 0x06B5 [0x00] END_REQSTACK()
```

### Event 65535.90

#### Metadata

| Field        | Value   |
|--------------|---------|
| Entrypoint   | 0x06B6  |
| Data Size    | 5 bytes |
| Instructions | 3       |

```
      00 01 02 03 04 05 06 07  08 09 0A 0B 0C 0D 0E 0F
      -- -- -- -- -- -- -- --  -- -- -- -- -- -- -- --
06B0:                   1D 90  80 23 00                       ...#.     
```

#### Opcodes

```
  0: 0x06B6 [0x1D] PRINT_EVENT_MESSAGE(message_id=7391*)
    → "The bearer of darkness was here... He said he was searching for something... He seemed to be...in pain..."
  1: 0x06B9 [0x23] WAIT_FOR_DIALOG_INTERACTION
  2: 0x06BA [0x00] END_REQSTACK()
```

### Event 65535.91

#### Metadata

| Field        | Value   |
|--------------|---------|
| Entrypoint   | 0x06BB  |
| Data Size    | 5 bytes |
| Instructions | 3       |

```
      00 01 02 03 04 05 06 07  08 09 0A 0B 0C 0D 0E 0F
      -- -- -- -- -- -- -- --  -- -- -- -- -- -- -- --
06B0:                                   1D 91 80 23 00             ...#.
```

#### Opcodes

```
  0: 0x06BB [0x1D] PRINT_EVENT_MESSAGE(message_id=7393*)
    → "What is that? I sense a mysterious force nearby... What is that you're carrying?"
  1: 0x06BE [0x23] WAIT_FOR_DIALOG_INTERACTION
  2: 0x06BF [0x00] END_REQSTACK()
```

### Event 65535.92

#### Metadata

| Field        | Value   |
|--------------|---------|
| Entrypoint   | 0x06C0  |
| Data Size    | 5 bytes |
| Instructions | 3       |

```
      00 01 02 03 04 05 06 07  08 09 0A 0B 0C 0D 0E 0F
      -- -- -- -- -- -- -- --  -- -- -- -- -- -- -- --
06C0: 1D 92 80 23 00                                    ...#.           
```

#### Opcodes

```
  0: 0x06C0 [0x1D] PRINT_EVENT_MESSAGE(message_id=7394*)
    → "Are you kidding me? One of the ancients returned the magic to this tome?"
  1: 0x06C3 [0x23] WAIT_FOR_DIALOG_INTERACTION
  2: 0x06C4 [0x00] END_REQSTACK()
```

### Event 65535.93

#### Metadata

| Field        | Value   |
|--------------|---------|
| Entrypoint   | 0x06C5  |
| Data Size    | 5 bytes |
| Instructions | 3       |

```
      00 01 02 03 04 05 06 07  08 09 0A 0B 0C 0D 0E 0F
      -- -- -- -- -- -- -- --  -- -- -- -- -- -- -- --
06C0:                1D 93 80  23 00                         ...#.      
```

#### Opcodes

```
  0: 0x06C5 [0x1D] PRINT_EVENT_MESSAGE(message_id=7395*)
    → "That's just ludicrous...! But still, this level of power... It's most definitely..."
  1: 0x06C8 [0x23] WAIT_FOR_DIALOG_INTERACTION
  2: 0x06C9 [0x00] END_REQSTACK()
```
