# 17563925 - Grounds Tome

## Common Data

| Field            | Value                          |
|------------------|--------------------------------|
| Zone             | Inner Horutoto Ruins (ID: 192) |
| Block Size       | 3084 bytes                     |
| Total Events     | 2                              |
| References Count | 78                             |

## List of Events

| Event ID              | Entrypoint   |   Size |   Instructions |
|-----------------------|--------------|--------|----------------|
| [65535](#event-65535) | 0x0000       |      1 |              1 |
| [101](#event-101)     | 0x0001       |   2746 |            518 |

## DAT References (imed_data)

|   Index | Hex Value   |   Dec Value |
|---------|-------------|-------------|
|       0 | 0x0000      |           0 |
|       1 | 0x0002      |           2 |
|       2 | 0x0001      |           1 |
|       3 | 0x0003      |           3 |
|       4 | 0x0004      |           4 |
|       5 | 0x0005      |           5 |
|       6 | 0x0006      |           6 |
|       7 | 0x0012      |          18 |
|       8 | 0x0013      |          19 |
|       9 | 0x1D1C      |        7452 |
|      10 | 0x1D1D      |        7453 |
|      11 | 0x2931      |       10545 |
|      12 | 0x2932      |       10546 |
|      13 | 0x292A      |       10538 |
|      14 | 0x2934      |       10548 |
|      15 | 0x1D1E      |        7454 |
|      16 | 0x000B      |          11 |
|      17 | 0x1D1F      |        7455 |
|      18 | 0x1D20      |        7456 |
|      19 | 0x2520      |        9504 |
|      20 | 0x2525      |        9509 |
|      21 | 0x2521      |        9505 |
|      22 | 0x2938      |       10552 |
|      23 | 0x2939      |       10553 |
|      24 | 0x001F      |          31 |
|      25 | 0x2120      |        8480 |
|      26 | 0x2925      |       10533 |
|      27 | 0x2926      |       10534 |
|      28 | 0x000A      |          10 |
|      29 | 0x0019      |          25 |
|      30 | 0x000F      |          15 |
|      31 | 0x0032      |          50 |
|      32 | 0x0014      |          20 |
|      33 | 0x001E      |          30 |
|      34 | 0x012C      |         300 |
|      35 | 0x2927      |       10535 |
|      36 | 0x0007      |           7 |
|      37 | 0x0008      |           8 |
|      38 | 0x0009      |           9 |
|      39 | 0x000C      |          12 |
|      40 | 0x000D      |          13 |
|      41 | 0x000E      |          14 |
|      42 | 0x0010      |          16 |
|      43 | 0x0011      |          17 |
|      44 | 0x292B      |       10539 |
|      45 | 0x292C      |       10540 |
|      46 | 0x292D      |       10541 |
|      47 | 0x292E      |       10542 |
|      48 | 0x007A      |         122 |
|      49 | 0x0104      |         260 |
|      50 | 0x004C      |          76 |
|      51 | 0x0105      |         261 |
|      52 | 0x0089      |         137 |
|      53 | 0x01ED      |         493 |
|      54 | 0x01EE      |         494 |
|      55 | 0x006C      |         108 |
|      56 | 0x006D      |         109 |
|      57 | 0x002B      |          43 |
|      58 | 0x0030      |          48 |
|      59 | 0x0039      |          57 |
|      60 | 0x001B      |          27 |
|      61 | 0x001D      |          29 |
|      62 | 0x2935      |       10549 |
|      63 | 0x2936      |       10550 |
|      64 | 0x0017      |          23 |
|      65 | 0x0018      |          24 |
|      66 | 0x001C      |          28 |
|      67 | 0x2937      |       10551 |
|      68 | 0x2928      |       10536 |
|      69 | 0x2929      |       10537 |
|      70 | 0xFFFFFFFF  |  4294967295 |
|      71 | 0x0093      |         147 |
|      72 | 0x0230      |         560 |
|      73 | 0x025A      |         602 |
|      74 | 0x0092      |         146 |
|      75 | 0x022F      |         559 |
|      76 | 0x0259      |         601 |
|      77 | 0x0333      |         819 |

## String References

- **7452**: A grounds tome has been placed here by the Adventurers' Mutual Aid Network (A.M.A.N.). Useful information pertaining to various topics on field operations fills its pages.
- **7453**: What will you do? [Nothing./Read about individual training./Review current training regime./Cancel current training regime./Read about field support./Read about prowesses./Review active prowesses.]
- **7454**: Which page? [I've changed my mind./Page 1./Page 2./Page 3./Page 4./Page 5./Page 6./Page 7./Page 8./Page 9./Page 10.]
- **7455**: The information on this page instructs you to defeat the following:
- **9504**: Target level range: $5\`$6.
- **9505**: Undertake this training regime? [Bring it on!/No, wait...]
- **10533**: (End of list.)
- **10534**: The tabs you acquire can be spent on field support.
- **10535**: Which one? (You have $8 [tab/tabs]). [Nothing for now./Repatriation ($9)./Circumspection ($10)./Homing Instinct ($11)./White magic: Reraise ($12)./White magic: Reraise II ($13)./White magic: Reraise III ($14)./White magic: Regen ($15)./White magic: Refresh ($16)./White magic: Protect ($17)./White magic: Shell ($18)./White magic: Haste ($19)./Field recipe: Dried Meat ($20)./Field recipe: Salted Fish ($21)./Field recipe: Hard Cookie ($22)./Field recipe: Instant Noodles ($23)./Field recipe: Dried Agaricus ($24)./Field recipe: Instant Rice ($25)./Receive alter ego: Sakura ($26)./Receive alter ego: Koru-Moru ($27).]
- **10536**: Active prowess list. [Go back./Increased treasure casket discovery./Increased combat and magic skill gain./Increased crystal yield./Treasure Hunter bonus./Increased attack speed./Increased HP and MP./Enhanced accuracy and ranged accuracy./Enhanced attack and ranged attack./Enhanced magic acc. and magic atk./Enhanced "Cure" potency./Increased weapon skill damage./"Killer" effects bonus./Ability X./Ability X./Ability X./Ability X.]
- **10537**: [Increased treasure casket discovery/Increased combat and magic skill gain/Increased crystal yield/Treasure Hunter bonus/Increased attack speed/Increased HP and MP/Enhanced accuracy and ranged accuracy/Enhanced attack and ranged attack/Enhanced magic accuracy and magic attack/Enhanced "Cure" potency/Increased weapon skill damage/"Killer" effects bonus/Effect X/Effect X/Effect X/Effect X] prowess stands at level $1.
- **10538**: Are you certain? [Yes./No.]
- **10542**: You do not have enough tabs.
- **10545**: You cannot undertake a training regime while a hunt is active.
- **10546**: Cancel hunt? [Yes./No.]
- **10548**: The requisite time has not yet elapsed since the completion of your last regime. You may be ineligible to receive gil and tab rewards.
- **10549**: Prowesses are unique enhancement effects, the benefits of which can be unlocked and strengthened through sustained training.
- **10550**: Please note, however, that their effects are temporary and will be lost should you venture into a different area.
- **10551**: No prowesses are active at present.
- **10552**: Set training regime to automatically repeat upon completion?
- **10553**: Set training regime to repeat? [Yes./No.]

## Events

### Event 65535

#### Metadata

| Field        | Value   |
|--------------|---------|
| Entrypoint   | 0x0000  |
| Data Size    | 1 bytes |
| Instructions | 1       |

```
      00 01 02 03 04 05 06 07  08 09 0A 0B 0C 0D 0E 0F
      -- -- -- -- -- -- -- --  -- -- -- -- -- -- -- --
0000: 00                                                .               
```

#### Opcodes

```
  0: 0x0000 [0x00] END_REQSTACK()
```

### Event 101

#### Metadata

| Field        | Value      |
|--------------|------------|
| Entrypoint   | 0x0001     |
| Data Size    | 2746 bytes |
| Instructions | 516        |

```
      00 01 02 03 04 05 06 07  08 09 0A 0B 0C 0D 0E 0F
      -- -- -- -- -- -- -- --  -- -- -- -- -- -- -- --
0000:    03 01 00 00 80 03 02  00 00 80 03 0A 00 02 10   ...............
0010: 03 03 00 03 10 03 10 00  04 10 03 11 00 05 10 03  ................
0020: 08 00 08 10 03 06 00 09  10 02 06 00 00 80 00 42  ...............B
0030: 00 3C 01 00 01 80 02 80  3C 01 00 03 80 02 80 01  .<......<.......
0040: 87 00 03 00 00 06 00 1A  5E 0A 02 0B 00 00 80 80  ........^.......
0050: 5C 00 3C 01 00 02 80 02  80 01 87 00 02 0B 00 02  \.<.............
0060: 80 80 75 00 3C 01 00 01  80 02 80 3C 01 00 03 80  ..u.<......<....
0070: 02 80 01 87 00 02 0B 00  03 80 80 87 00 3C 01 00  .............<..
0080: 02 80 02 80 01 87 00 3E  0A 00 02 80 A3 00 3C 02  .......>......<.
0090: 00 04 80 02 80 3C 02 00  05 80 02 80 3C 02 00 06  .....<......<...
00A0: 80 02 80 3E 10 00 00 80  B4 00 3D 02 00 07 80 02  ...>......=.....
00B0: 80 01 BB 00 3C 02 00 07  80 02 80 3E 10 00 02 80  ....<......>....
00C0: CC 00 3D 02 00 08 80 02  80 01 D3 00 3C 02 00 08  ..=.........<...
00D0: 80 02 80 48 09 80 23 05  04 00 02 04 00 00 80 01  ...H..#.........
00E0: 3C 0A 24 0A 80 00 80 01  00 25 02 00 10 00 80 00  <.$......%......
00F0: F8 00 06 04 00 01 39 0A  02 00 10 02 80 00 34 02  ......9.......4.
0100: 03 00 00 06 00 1A 5E 0A  02 0B 00 02 80 00 60 01  ......^.......`.
0110: 48 0B 80 23 24 0C 80 02  80 00 80 25 02 00 10 00  H..#$......%....
0120: 80 00 52 01 24 0D 80 02  80 00 80 25 02 00 10 00  ..R.$......%....
0130: 80 00 44 01 40 00 80 03  80 01 10 06 80 42 06 04  ..D.@........B..
0140: 00 01 4F 01 02 00 10 02  80 00 4F 01 01 4F 01 01  ..O.......O..O..
0150: 5D 01 02 00 10 02 80 00  5D 01 01 5D 01 01 31 02  ].......]..]..1.
0160: 05 05 00 02 05 00 00 80  01 31 02 3E 0A 00 03 80  .........1.>....
0170: 75 01 48 0E 80 24 0F 80  00 80 03 00 25 02 00 10  u.H..$......%...
0180: 00 80 00 8B 01 06 05 00  01 8B 01 02 00 10 00 80  ................
0190: 02 2E 02 40 00 80 03 80  01 10 01 80 40 04 80 10  ...@........@...
01A0: 80 01 10 00 10 43 00 43  01 48 11 80 23 03 07 00  .....C.C.H..#...
01B0: 12 80 07 07 00 09 10 48  07 00 23 48 13 80 23 03  .......H..#H..#.
01C0: 07 00 14 80 07 07 00 09  10 48 07 00 23 24 15 80  .........H..#$..
01D0: 02 80 00 80 25 02 00 10  00 80 00 1E 02 48 16 80  ....%........H..
01E0: 23 24 17 80 00 80 00 80  25 02 00 10 00 80 00 02  #$......%.......
01F0: 02 42 3C 01 10 18 80 02  80 06 04 00 06 05 00 01  .B<.............
0200: 1B 02 02 00 10 02 80 00  1B 02 42 3D 01 10 18 80  ..........B=....
0210: 02 80 06 04 00 06 05 00  01 1B 02 01 2E 02 02 00  ................
0220: 10 02 80 00 2E 02 03 01  10 00 80 01 2E 02 01 63  ...............c
0230: 01 01 39 0A 02 00 10 01  80 00 AA 02 40 00 80 03  ..9.........@...
0240: 80 01 10 02 80 43 00 43  01 02 02 10 00 80 01 8D  .....C.C........
0250: 02 03 07 00 19 80 07 07  00 06 00 48 07 00 23 40  ...........H..#@
0260: 00 80 03 80 01 10 05 80  43 00 43 01 02 09 10 00  ........C.C.....
0270: 80 00 8A 02 48 13 80 23  03 07 00 14 80 07 07 00  ....H..#........
0280: 06 00 48 07 00 23 48 1A  80 23 01 A7 02 3D 01 00  ..H..#H..#...=..
0290: 02 80 02 80 3C 01 00 01  80 02 80 3C 01 00 03 80  ....<......<....
02A0: 02 80 03 01 10 00 80 01  39 0A 02 00 10 03 80 00  ........9.......
02B0: E5 02 40 00 80 03 80 01  10 03 80 24 0D 80 02 80  ..@........$....
02C0: 00 80 25 02 00 10 00 80  00 D2 02 42 06 04 00 01  ..%........B....
02D0: E2 02 02 00 10 02 80 00  E2 02 03 01 10 00 80 01  ................
02E0: E2 02 01 39 0A 02 00 10  04 80 00 FE 08 48 1B 80  ...9.........H..
02F0: 23 05 05 00 02 05 00 00  80 01 FB 08 02 11 00 00  #...............
0300: 80 02 61 03 03 00 17 08  00 03 01 17 1C 80 03 02  ..a.............
0310: 17 05 80 03 03 17 1D 80  03 04 17 05 80 03 05 17  ................
0320: 1C 80 03 06 17 1E 80 03  07 17 1C 80 03 08 17 1C  ................
0330: 80 03 09 17 05 80 03 0A  17 05 80 03 0B 17 1C 80  ................
0340: 03 0C 17 1D 80 03 0D 17  1D 80 03 0E 17 1D 80 03  ................
0350: 0F 17 1D 80 03 10 17 1D  80 03 11 17 1D 80 01 BB  ................
0360: 03 03 00 17 08 00 03 01  17 1F 80 03 02 17 05 80  ................
0370: 03 03 17 1F 80 03 04 17  1C 80 03 05 17 20 80 03  ............. ..
0380: 06 17 21 80 03 07 17 20  80 03 08 17 20 80 03 09  ..!.... .... ...
0390: 17 1E 80 03 0A 17 1E 80  03 0B 17 20 80 03 0C 17  ........... ....
03A0: 1F 80 03 0D 17 1F 80 03  0E 17 1F 80 03 0F 17 1F  ................
03B0: 80 03 10 17 1F 80 03 11  17 1F 80 03 12 17 22 80  ..............".
03C0: 03 13 17 22 80 02 11 00  00 80 02 16 05 24 23 80  ...".........$#.
03D0: 00 80 02 00 25 02 00 10  00 80 00 E3 03 06 05 00  ....%...........
03E0: 01 13 05 02 00 10 02 80  00 F3 03 03 09 00 1C 80  ................
03F0: 01 13 05 02 00 10 01 80  00 03 04 03 09 00 05 80  ................
0400: 01 13 05 02 00 10 03 80  00 13 04 03 09 00 1D 80  ................
0410: 01 13 05 02 00 10 04 80  00 23 04 03 09 00 05 80  .........#......
0420: 01 13 05 02 00 10 05 80  00 33 04 03 09 00 1C 80  .........3......
0430: 01 13 05 02 00 10 06 80  00 43 04 03 09 00 1E 80  .........C......
0440: 01 13 05 02 00 10 24 80  00 53 04 03 09 00 1C 80  ......$..S......
0450: 01 13 05 02 00 10 25 80  00 63 04 03 09 00 1C 80  ......%..c......
0460: 01 13 05 02 00 10 26 80  00 73 04 03 09 00 05 80  ......&..s......
0470: 01 13 05 02 00 10 1C 80  00 83 04 03 09 00 05 80  ................
0480: 01 13 05 02 00 10 10 80  00 93 04 03 09 00 1C 80  ................
0490: 01 13 05 02 00 10 27 80  00 A3 04 03 09 00 1D 80  ......'.........
04A0: 01 13 05 02 00 10 28 80  00 B3 04 03 09 00 1D 80  ......(.........
04B0: 01 13 05 02 00 10 29 80  00 C3 04 03 09 00 1D 80  ......).........
04C0: 01 13 05 02 00 10 1E 80  00 D3 04 03 09 00 1D 80  ................
04D0: 01 13 05 02 00 10 2A 80  00 E3 04 03 09 00 1D 80  ......*.........
04E0: 01 13 05 02 00 10 2B 80  00 F3 04 03 09 00 1D 80  ......+.........
04F0: 01 13 05 02 00 10 07 80  00 03 05 03 09 00 22 80  ..............".
0500: 01 13 05 02 00 10 08 80  00 13 05 03 09 00 22 80  ..............".
0510: 01 13 05 01 5C 06 24 23  80 00 80 02 00 25 02 00  ....\.$#.....%..
0520: 10 00 80 00 2C 05 06 05  00 01 5C 06 02 00 10 02  ....,.....\.....
0530: 80 00 3C 05 03 09 00 1F  80 01 5C 06 02 00 10 01  ..<.......\.....
0540: 80 00 4C 05 03 09 00 05  80 01 5C 06 02 00 10 03  ..L.......\.....
0550: 80 00 5C 05 03 09 00 1F  80 01 5C 06 02 00 10 04  ..\.......\.....
0560: 80 00 6C 05 03 09 00 1C  80 01 5C 06 02 00 10 05  ..l.......\.....
0570: 80 00 7C 05 03 09 00 20  80 01 5C 06 02 00 10 06  ..|.... ..\.....
0580: 80 00 8C 05 03 09 00 21  80 01 5C 06 02 00 10 24  .......!..\....$
0590: 80 00 9C 05 03 09 00 20  80 01 5C 06 02 00 10 25  ....... ..\....%
05A0: 80 00 AC 05 03 09 00 20  80 01 5C 06 02 00 10 26  ....... ..\....&
05B0: 80 00 BC 05 03 09 00 1E  80 01 5C 06 02 00 10 1C  ..........\.....
05C0: 80 00 CC 05 03 09 00 1E  80 01 5C 06 02 00 10 10  ..........\.....
05D0: 80 00 DC 05 03 09 00 20  80 01 5C 06 02 00 10 27  ....... ..\....'
05E0: 80 00 EC 05 03 09 00 1F  80 01 5C 06 02 00 10 28  ..........\....(
05F0: 80 00 FC 05 03 09 00 1F  80 01 5C 06 02 00 10 29  ..........\....)
0600: 80 00 0C 06 03 09 00 1F  80 01 5C 06 02 00 10 1E  ..........\.....
0610: 80 00 1C 06 03 09 00 1F  80 01 5C 06 02 00 10 2A  ..........\....*
0620: 80 00 2C 06 03 09 00 1F  80 01 5C 06 02 00 10 2B  ..,.......\....+
0630: 80 00 3C 06 03 09 00 1F  80 01 5C 06 02 00 10 07  ..<.......\.....
0640: 80 00 4C 06 03 09 00 22  80 01 5C 06 02 00 10 08  ..L...."..\.....
0650: 80 00 5C 06 03 09 00 22  80 01 5C 06 02 00 10 00  ..\...."..\.....
0660: 80 02 F8 08 02 00 10 02  80 80 74 06 03 00 00 2C  ..........t....,
0670: 80 01 99 06 02 00 10 01  80 80 84 06 03 00 00 2D  ...............-
0680: 80 01 99 06 02 00 10 03  80 80 94 06 03 00 00 2E  ................
0690: 80 01 99 06 03 00 00 0D  80 40 00 80 03 80 01 10  .........@......
06A0: 04 80 40 04 80 10 80 01  10 00 10 24 00 00 02 80  ..@........$....
06B0: 00 80 25 02 00 10 00 80  80 E8 08 02 09 00 08 00  ..%.............
06C0: 02 CF 06 48 2F 80 23 03  01 10 00 80 01 E5 08 42  ...H/.#........B
06D0: 43 00 43 01 06 04 00 06  05 00 41 04 80 10 80 01  C.C.......A.....
06E0: 10 00 00 02 00 00 02 80  80 FC 06 73 30 80 F8 FF  ...........s0...
06F0: FF 7F F0 FF FF 7F 1C 31  80 01 E5 08 02 00 00 01  .......1........
0700: 80 80 16 07 AD 00 32 80  F8 FF FF 7F F0 FF FF 7F  ......2.........
0710: 1C 31 80 01 E5 08 02 00  00 03 80 80 2F 07 73 33  .1........../.s3
0720: 80 F8 FF FF 7F F0 FF FF  7F 1C 31 80 01 E5 08 02  ..........1.....
0730: 00 00 04 80 80 48 07 73  34 80 F8 FF FF 7F F0 FF  .....H.s4.......
0740: FF 7F 1C 31 80 01 E5 08  02 00 00 05 80 80 61 07  ...1..........a.
0750: 73 35 80 F8 FF FF 7F F0  FF FF 7F 1C 31 80 01 E5  s5..........1...
0760: 08 02 00 00 06 80 80 7A  07 73 36 80 F8 FF FF 7F  .......z.s6.....
0770: F0 FF FF 7F 1C 31 80 01  E5 08 02 00 00 24 80 80  .....1.......$..
0780: 93 07 73 37 80 F8 FF FF  7F F0 FF FF 7F 1C 31 80  ..s7..........1.
0790: 01 E5 08 02 00 00 25 80  80 AC 07 73 38 80 F8 FF  ......%....s8...
07A0: FF 7F F0 FF FF 7F 1C 31  80 01 E5 08 02 00 00 26  .......1.......&
07B0: 80 80 C5 07 73 39 80 F8  FF FF 7F F0 FF FF 7F 1C  ....s9..........
07C0: 31 80 01 E5 08 02 00 00  1C 80 80 DE 07 73 3A 80  1............s:.
07D0: F8 FF FF 7F F0 FF FF 7F  1C 31 80 01 E5 08 02 00  .........1......
07E0: 00 10 80 80 F7 07 73 3B  80 F8 FF FF 7F F0 FF FF  ......s;........
07F0: 7F 1C 31 80 01 E5 08 02  00 00 27 80 80 1B 08 3E  ..1.......'....>
0800: 0A 00 01 80 09 08 01 18  08 AD 00 1D 80 F8 FF FF  ................
0810: 7F F0 FF FF 7F 1C 31 80  01 E5 08 02 00 00 28 80  ......1.......(.
0820: 80 3F 08 3E 0A 00 01 80  2D 08 01 3C 08 AD 00 1D  .?.>....-..<....
0830: 80 F8 FF FF 7F F0 FF FF  7F 1C 31 80 01 E5 08 02  ..........1.....
0840: 00 00 29 80 80 63 08 3E  0A 00 01 80 51 08 01 60  ..)..c.>....Q..`
0850: 08 AD 00 1D 80 F8 FF FF  7F F0 FF FF 7F 1C 31 80  ..............1.
0860: 01 E5 08 02 00 00 1E 80  80 87 08 3E 0A 00 01 80  ...........>....
0870: 75 08 01 84 08 AD 00 1D  80 F8 FF FF 7F F0 FF FF  u...............
0880: 7F 1C 31 80 01 E5 08 02  00 00 2A 80 80 AB 08 3E  ..1.......*....>
0890: 0A 00 01 80 99 08 01 A8  08 AD 00 3C 80 F8 FF FF  ...........<....
08A0: 7F F0 FF FF 7F 1C 31 80  01 E5 08 02 00 00 2B 80  ......1.......+.
08B0: 80 CF 08 3E 0A 00 01 80  BD 08 01 CC 08 AD 00 3D  ...>...........=
08C0: 80 F8 FF FF 7F F0 FF FF  7F 1C 31 80 01 E5 08 02  ..........1.....
08D0: 00 00 07 80 80 DA 08 01  E5 08 02 00 00 08 80 80  ................
08E0: E5 08 01 E5 08 01 F8 08  02 00 10 02 80 80 F8 08  ................
08F0: 03 01 10 00 80 01 F8 08  01 F4 02 01 39 0A 02 00  ............9...
0900: 10 05 80 00 11 09 48 3E  80 23 48 3F 80 23 01 39  ......H>.#H?.#.9
0910: 0A 02 00 10 06 80 00 39  0A 40 00 80 03 80 01 10  .......9.@......
0920: 24 80 43 00 43 01 41 00  80 03 80 02 10 02 17 41  $.C.C.A........A
0930: 04 80 24 80 02 10 03 17  41 25 80 10 80 02 10 04  ..$.....A%......
0940: 17 41 27 80 1E 80 02 10  05 17 41 2A 80 08 80 02  .A'.......A*....
0950: 10 06 17 41 20 80 40 80  02 10 07 17 41 41 80 3C  ...A .@.....AA.<
0960: 80 02 10 08 17 41 42 80  18 80 02 10 09 17 41 00  .....AB.......A.
0970: 80 03 80 03 10 0A 17 41  04 80 24 80 03 10 0B 17  .......A..$.....
0980: 41 25 80 10 80 03 10 0C  17 41 27 80 1E 80 03 10  A%.......A'.....
0990: 0D 17 41 2A 80 08 80 03  10 0E 17 41 20 80 40 80  ..A*.......A .@.
09A0: 03 10 0F 17 41 41 80 3C  80 03 10 10 17 41 42 80  ....AA.<.....AB.
09B0: 18 80 03 10 11 17 06 0F  00 06 0E 00 06 0B 00 02  ................
09C0: 0F 00 2A 80 03 EA 09 9D  00 3E 0A 02 10 0F 00 02  ..*......>......
09D0: 02 10 00 80 01 DD 09 05  0B 00 01 E4 09 3C 0E 00  .............<..
09E0: 0F 00 02 80 0B 0F 00 01  BF 09 10 0E 00 02 80 02  ................
09F0: 0B 00 00 80 00 FE 09 48  43 80 23 01 36 0A 06 0F  .......HC.#.6...
0A00: 00 02 0F 00 00 80 00 36  0A 24 44 80 00 80 0E 00  .......6.$D.....
0A10: 25 02 00 10 00 80 00 1F  0A 05 0F 00 01 33 0A 03  %............3..
0A20: 02 10 00 10 0C 02 10 9D  00 3E 0A 03 10 02 10 48  .........>.....H
0A30: 45 80 23 01 01 0A 01 39  0A 01 DA 00 21 00 02 17  E.#....9....!...
0A40: 03 17 04 17 05 17 06 17  07 17 08 17 09 17 0A 17  ................
0A50: 0B 17 0C 17 0D 17 0E 17  0F 17 10 17 11 17 06 0F  ................
0A60: 00 02 0F 00 04 80 03 95  0A 9D 00 9B 0A 0C 00 0F  ................
0A70: 00 9D 00 AB 0A 0D 00 0F  00 02 0C 00 00 00 05 8F  ................
0A80: 0A 02 0D 00 00 00 04 8F  0A 03 0B 00 0F 00 1B 0B  ................
0A90: 0F 00 01 61 0A 03 0B 00  46 80 1B 02 80 47 80 48  ...a....F....G.H
0AA0: 80 49 80 00 80 00 80 00  80 00 80 4A 80 4B 80 4C  .I.........J.K.L
0AB0: 80 4D 80 00 80 00 80 00  80 00 80                 .M.........     
```

#### Opcodes

```
  0: 0x0001 [0x03] ExtData[1]->WorkLocal[1] = 0*
  1: 0x0006 [0x03] ExtData[1]->WorkLocal[2] = 0*
  2: 0x000B [0x03] ExtData[1]->WorkLocal[10] = Work_Zone[2]
  3: 0x0010 [0x03] ExtData[1]->WorkLocal[3] = Work_Zone[3]
  4: 0x0015 [0x03] ExtData[1]->WorkLocal[16] = Work_Zone[4]
  5: 0x001A [0x03] ExtData[1]->WorkLocal[17] = Work_Zone[5]
  6: 0x001F [0x03] ExtData[1]->WorkLocal[8] = Work_Zone[8]
  7: 0x0024 [0x03] ExtData[1]->WorkLocal[6] = Work_Zone[9]
  8: 0x0029 [0x02] IF !(ExtData[1]->WorkLocal[6] == 0*) GOTO 0x0042
  9: 0x0031 [0x3C] SET_BIT_FLAG_CONDITIONAL(target_work_offset=ExtData[1]->WorkLocal[1], bit_index_work_offset=2*, condition_work_offset=1*)
 10: 0x0038 [0x3C] SET_BIT_FLAG_CONDITIONAL(target_work_offset=ExtData[1]->WorkLocal[1], bit_index_work_offset=3*, condition_work_offset=1*)
 11: 0x003F [0x01] GOTO 0x0087
 12: 0x0042 [0x03] ExtData[1]->WorkLocal[0] = ExtData[1]->WorkLocal[6]
 13: 0x0047 [0x1A] CALL_SUBROUTINE(address=0x0A5E)
 14: 0x004A [0x02] IF !(ExtData[1]->WorkLocal[11] == 0*) GOTO 0x005C
 15: 0x0052 [0x3C] SET_BIT_FLAG_CONDITIONAL(target_work_offset=ExtData[1]->WorkLocal[1], bit_index_work_offset=1*, condition_work_offset=1*)
 16: 0x0059 [0x01] GOTO 0x0087
 17: 0x005C [0x02] IF !(ExtData[1]->WorkLocal[11] == 1*) GOTO 0x0075
 18: 0x0064 [0x3C] SET_BIT_FLAG_CONDITIONAL(target_work_offset=ExtData[1]->WorkLocal[1], bit_index_work_offset=2*, condition_work_offset=1*)
 19: 0x006B [0x3C] SET_BIT_FLAG_CONDITIONAL(target_work_offset=ExtData[1]->WorkLocal[1], bit_index_work_offset=3*, condition_work_offset=1*)
 20: 0x0072 [0x01] GOTO 0x0087
 21: 0x0075 [0x02] IF !(ExtData[1]->WorkLocal[11] == 3*) GOTO 0x0087
 22: 0x007D [0x3C] SET_BIT_FLAG_CONDITIONAL(target_work_offset=ExtData[1]->WorkLocal[1], bit_index_work_offset=1*, condition_work_offset=1*)
 23: 0x0084 [0x01] GOTO 0x0087

SUBROUTINE_0087:
 24: 0x0087 [0x3E] IF !(ExtData[1]->WorkLocal[10] bit 1*) GOTO 0x00A3
 25: 0x008E [0x3C] SET_BIT_FLAG_CONDITIONAL(target_work_offset=ExtData[1]->WorkLocal[2], bit_index_work_offset=4*, condition_work_offset=1*)
 26: 0x0095 [0x3C] SET_BIT_FLAG_CONDITIONAL(target_work_offset=ExtData[1]->WorkLocal[2], bit_index_work_offset=5*, condition_work_offset=1*)
 27: 0x009C [0x3C] SET_BIT_FLAG_CONDITIONAL(target_work_offset=ExtData[1]->WorkLocal[2], bit_index_work_offset=6*, condition_work_offset=1*)
 28: 0x00A3 [0x3E] IF !(ExtData[1]->WorkLocal[16] bit 0*) GOTO 0x00B4
 29: 0x00AA [0x3D] CLEAR_BIT_FLAG_CONDITIONAL(target_work_offset=ExtData[1]->WorkLocal[2], bit_index_work_offset=18*, condition_work_offset=1*)
 30: 0x00B1 [0x01] GOTO 0x00BB
 31: 0x00B4 [0x3C] SET_BIT_FLAG_CONDITIONAL(target_work_offset=ExtData[1]->WorkLocal[2], bit_index_work_offset=18*, condition_work_offset=1*)

SUBROUTINE_00BB:
 32: 0x00BB [0x3E] IF !(ExtData[1]->WorkLocal[16] bit 1*) GOTO 0x00CC
 33: 0x00C2 [0x3D] CLEAR_BIT_FLAG_CONDITIONAL(target_work_offset=ExtData[1]->WorkLocal[2], bit_index_work_offset=19*, condition_work_offset=1*)
 34: 0x00C9 [0x01] GOTO 0x00D3
 35: 0x00CC [0x3C] SET_BIT_FLAG_CONDITIONAL(target_work_offset=ExtData[1]->WorkLocal[2], bit_index_work_offset=19*, condition_work_offset=1*)

SUBROUTINE_00D3:
 36: 0x00D3 [0x48] [System] [7452*]:
    → "A grounds tome has been placed here by the Adventurers' Mutual Aid Network (A.M.A.N.). Useful information pertaining to various topics on field operations fills its pages."
 37: 0x00D6 [0x23] WAIT_FOR_DIALOG_INTERACTION
 38: 0x00D7 [0x05] ExtData[1]->WorkLocal[4] = 1

SUBROUTINE_00DA:
 39: 0x00DA [0x02] IF !(ExtData[1]->WorkLocal[4] == 0*) GOTO 0x0A3C
 40: 0x00E2 [0x24] CREATE_DIALOG(message_id=7453*, default_option=0*, option_flags=ExtData[1]->WorkLocal[1])
    → "What will you do? [Nothing./Read about individual training./Review current training regime./Cancel current training regime./Read about field support./Read about prowesses./Review active prowesses.]"
 41: 0x00E9 [0x25] WAIT_DIALOG_SELECT()
 42: 0x00EA [0x02] IF !(Work_Zone[0] == 0*) GOTO 0x00F8
 43: 0x00F2 [0x06] ExtData[1]->WorkLocal[4] = 0
 44: 0x00F5 [0x01] GOTO 0x0A39
 45: 0x00F8 [0x02] IF !(Work_Zone[0] == 1*) GOTO 0x0234
 46: 0x0100 [0x03] ExtData[1]->WorkLocal[0] = ExtData[1]->WorkLocal[6]
 47: 0x0105 [0x1A] CALL_SUBROUTINE(address=0x0A5E)
 48: 0x0108 [0x02] IF !(ExtData[1]->WorkLocal[11] == 1*) GOTO 0x0160
 49: 0x0110 [0x48] [System] [10545*]:
    → "You cannot undertake a training regime while a hunt is active."
 50: 0x0113 [0x23] WAIT_FOR_DIALOG_INTERACTION
 51: 0x0114 [0x24] CREATE_DIALOG(message_id=10546*, default_option=1*, option_flags=0*)
    → "Cancel hunt? [Yes./No.]"
 52: 0x011B [0x25] WAIT_DIALOG_SELECT()
 53: 0x011C [0x02] IF !(Work_Zone[0] == 0*) GOTO 0x0152
 54: 0x0124 [0x24] CREATE_DIALOG(message_id=10538*, default_option=1*, option_flags=0*)
    → "Are you certain? [Yes./No.]"
 55: 0x012B [0x25] WAIT_DIALOG_SELECT()
 56: 0x012C [0x02] IF !(Work_Zone[0] == 0*) GOTO 0x0144
 57: 0x0134 [0x40] SET_BIT_WORK_RANGE(start_bit=0*, end_bit=3*, target=Work_Zone[1], source=6*)
 58: 0x013D [0x42] SET_CLI_EVENT_CANCEL_DATA()
 59: 0x013E [0x06] ExtData[1]->WorkLocal[4] = 0
 60: 0x0141 [0x01] GOTO 0x014F
 61: 0x0144 [0x02] IF !(Work_Zone[0] == 1*) GOTO 0x014F
 62: 0x014C [0x01] GOTO 0x014F

SUBROUTINE_014F:
 63: 0x014F [0x01] GOTO 0x015D
 64: 0x0152 [0x02] IF !(Work_Zone[0] == 1*) GOTO 0x015D
 65: 0x015A [0x01] GOTO 0x015D

SUBROUTINE_015D:
 66: 0x015D [0x01] GOTO 0x0231
 67: 0x0160 [0x05] ExtData[1]->WorkLocal[5] = 1

SUBROUTINE_0163:
 68: 0x0163 [0x02] IF !(ExtData[1]->WorkLocal[5] == 0*) GOTO 0x0231
 69: 0x016B [0x3E] IF !(ExtData[1]->WorkLocal[10] bit 3*) GOTO 0x0175
 70: 0x0172 [0x48] [System] [10548*]:
    → "The requisite time has not yet elapsed since the completion of your last regime. You may be ineligible to receive gil and tab rewards."
 71: 0x0175 [0x24] CREATE_DIALOG(message_id=7454*, default_option=0*, option_flags=ExtData[1]->WorkLocal[3])
    → "Which page? [I've changed my mind./Page 1./Page 2./Page 3./Page 4./Page 5./Page 6./Page 7./Page 8./Page 9./Page 10.]"
 72: 0x017C [0x25] WAIT_DIALOG_SELECT()
 73: 0x017D [0x02] IF !(Work_Zone[0] == 0*) GOTO 0x018B
 74: 0x0185 [0x06] ExtData[1]->WorkLocal[5] = 0
 75: 0x0188 [0x01] GOTO 0x018B

SUBROUTINE_018B:
 76: 0x018B [0x02] IF !(Work_Zone[0] <= 0*) GOTO 0x022E
 77: 0x0193 [0x40] SET_BIT_WORK_RANGE(start_bit=0*, end_bit=3*, target=Work_Zone[1], source=2*)
 78: 0x019C [0x40] SET_BIT_WORK_RANGE(start_bit=4*, end_bit=11*, target=Work_Zone[1], source=Work_Zone[0])
 79: 0x01A5 [0x43] SEND_EVENT_UPDATE: Send pending tag to server (packet 0x005B)
 80: 0x01A7 [0x43] SEND_EVENT_UPDATE: Check pending flag (skip if not pending)
 81: 0x01A9 [0x48] [System] [7455*]:
    → "The information on this page instructs you to defeat the following:"
 82: 0x01AC [0x23] WAIT_FOR_DIALOG_INTERACTION
 83: 0x01AD [0x03] ExtData[1]->WorkLocal[7] = 7456*
 84: 0x01B2 [0x07] ExtData[1]->WorkLocal[7] += Work_Zone[9]
 85: 0x01B7 [0x48] [System] [ExtData[1]->WorkLocal[7]]:
    → "Return to the Sealed Portal? [Yes!/No!]"
 86: 0x01BA [0x23] WAIT_FOR_DIALOG_INTERACTION
 87: 0x01BB [0x48] [System] [9504*]:
    → "Target level range: $5`$6."
 88: 0x01BE [0x23] WAIT_FOR_DIALOG_INTERACTION
 89: 0x01BF [0x03] ExtData[1]->WorkLocal[7] = 9509*
 90: 0x01C4 [0x07] ExtData[1]->WorkLocal[7] += Work_Zone[9]
 91: 0x01C9 [0x48] [System] [ExtData[1]->WorkLocal[7]]:
    → "Return to the Sealed Portal? [Yes!/No!]"
 92: 0x01CC [0x23] WAIT_FOR_DIALOG_INTERACTION
 93: 0x01CD [0x24] CREATE_DIALOG(message_id=9505*, default_option=1*, option_flags=0*)
    → "Undertake this training regime? [Bring it on!/No, wait...]"
 94: 0x01D4 [0x25] WAIT_DIALOG_SELECT()
 95: 0x01D5 [0x02] IF !(Work_Zone[0] == 0*) GOTO 0x021E
 96: 0x01DD [0x48] [System] [10552*]:
    → "Set training regime to automatically repeat upon completion?"
 97: 0x01E0 [0x23] WAIT_FOR_DIALOG_INTERACTION
 98: 0x01E1 [0x24] CREATE_DIALOG(message_id=10553*, default_option=0*, option_flags=0*)
    → "Set training regime to repeat? [Yes./No.]"
 99: 0x01E8 [0x25] WAIT_DIALOG_SELECT()
100: 0x01E9 [0x02] IF !(Work_Zone[0] == 0*) GOTO 0x0202
101: 0x01F1 [0x42] SET_CLI_EVENT_CANCEL_DATA()
102: 0x01F2 [0x3C] SET_BIT_FLAG_CONDITIONAL(target_work_offset=Work_Zone[1], bit_index_work_offset=31*, condition_work_offset=1*)
103: 0x01F9 [0x06] ExtData[1]->WorkLocal[4] = 0
104: 0x01FC [0x06] ExtData[1]->WorkLocal[5] = 0
105: 0x01FF [0x01] GOTO 0x021B
106: 0x0202 [0x02] IF !(Work_Zone[0] == 1*) GOTO 0x021B
107: 0x020A [0x42] SET_CLI_EVENT_CANCEL_DATA()
108: 0x020B [0x3D] CLEAR_BIT_FLAG_CONDITIONAL(target_work_offset=Work_Zone[1], bit_index_work_offset=31*, condition_work_offset=1*)
109: 0x0212 [0x06] ExtData[1]->WorkLocal[4] = 0
110: 0x0215 [0x06] ExtData[1]->WorkLocal[5] = 0
111: 0x0218 [0x01] GOTO 0x021B

SUBROUTINE_021B:
112: 0x021B [0x01] GOTO 0x022E
113: 0x021E [0x02] IF !(Work_Zone[0] == 1*) GOTO 0x022E
114: 0x0226 [0x03] Work_Zone[1] = 0*
115: 0x022B [0x01] GOTO 0x022E

SUBROUTINE_022E:
116: 0x022E [0x01] GOTO 0x0163

SUBROUTINE_0231:
117: 0x0231 [0x01] GOTO 0x0A39
118: 0x0234 [0x02] IF !(Work_Zone[0] == 2*) GOTO 0x02AA
119: 0x023C [0x40] SET_BIT_WORK_RANGE(start_bit=0*, end_bit=3*, target=Work_Zone[1], source=1*)
120: 0x0245 [0x43] SEND_EVENT_UPDATE: Send pending tag to server (packet 0x005B)
121: 0x0247 [0x43] SEND_EVENT_UPDATE: Check pending flag (skip if not pending)
122: 0x0249 [0x02] IF !(Work_Zone[2] == 0*) GOTO 0x028D
123: 0x0251 [0x03] ExtData[1]->WorkLocal[7] = 8480*
124: 0x0256 [0x07] ExtData[1]->WorkLocal[7] += ExtData[1]->WorkLocal[6]
125: 0x025B [0x48] [System] [ExtData[1]->WorkLocal[7]]:
    → "Return to the Sealed Portal? [Yes!/No!]"
126: 0x025E [0x23] WAIT_FOR_DIALOG_INTERACTION
127: 0x025F [0x40] SET_BIT_WORK_RANGE(start_bit=0*, end_bit=3*, target=Work_Zone[1], source=5*)
128: 0x0268 [0x43] SEND_EVENT_UPDATE: Send pending tag to server (packet 0x005B)
129: 0x026A [0x43] SEND_EVENT_UPDATE: Check pending flag (skip if not pending)
130: 0x026C [0x02] IF !(Work_Zone[9] == 0*) GOTO 0x028A
131: 0x0274 [0x48] [System] [9504*]:
    → "Target level range: $5`$6."
132: 0x0277 [0x23] WAIT_FOR_DIALOG_INTERACTION
133: 0x0278 [0x03] ExtData[1]->WorkLocal[7] = 9509*
134: 0x027D [0x07] ExtData[1]->WorkLocal[7] += ExtData[1]->WorkLocal[6]
135: 0x0282 [0x48] [System] [ExtData[1]->WorkLocal[7]]:
    → "Return to the Sealed Portal? [Yes!/No!]"
136: 0x0285 [0x23] WAIT_FOR_DIALOG_INTERACTION
137: 0x0286 [0x48] [System] [10533*]:
    → "(End of list.)"
138: 0x0289 [0x23] WAIT_FOR_DIALOG_INTERACTION
139: 0x028A [0x01] GOTO 0x02A7
140: 0x028D [0x3D] CLEAR_BIT_FLAG_CONDITIONAL(target_work_offset=ExtData[1]->WorkLocal[1], bit_index_work_offset=1*, condition_work_offset=1*)
141: 0x0294 [0x3C] SET_BIT_FLAG_CONDITIONAL(target_work_offset=ExtData[1]->WorkLocal[1], bit_index_work_offset=2*, condition_work_offset=1*)
142: 0x029B [0x3C] SET_BIT_FLAG_CONDITIONAL(target_work_offset=ExtData[1]->WorkLocal[1], bit_index_work_offset=3*, condition_work_offset=1*)
143: 0x02A2 [0x03] Work_Zone[1] = 0*

SUBROUTINE_02A7:
144: 0x02A7 [0x01] GOTO 0x0A39
145: 0x02AA [0x02] IF !(Work_Zone[0] == 3*) GOTO 0x02E5
146: 0x02B2 [0x40] SET_BIT_WORK_RANGE(start_bit=0*, end_bit=3*, target=Work_Zone[1], source=3*)
147: 0x02BB [0x24] CREATE_DIALOG(message_id=10538*, default_option=1*, option_flags=0*)
    → "Are you certain? [Yes./No.]"
148: 0x02C2 [0x25] WAIT_DIALOG_SELECT()
149: 0x02C3 [0x02] IF !(Work_Zone[0] == 0*) GOTO 0x02D2
150: 0x02CB [0x42] SET_CLI_EVENT_CANCEL_DATA()
151: 0x02CC [0x06] ExtData[1]->WorkLocal[4] = 0
152: 0x02CF [0x01] GOTO 0x02E2
153: 0x02D2 [0x02] IF !(Work_Zone[0] == 1*) GOTO 0x02E2
154: 0x02DA [0x03] Work_Zone[1] = 0*
155: 0x02DF [0x01] GOTO 0x02E2

SUBROUTINE_02E2:
156: 0x02E2 [0x01] GOTO 0x0A39
157: 0x02E5 [0x02] IF !(Work_Zone[0] == 4*) GOTO 0x08FE
158: 0x02ED [0x48] [System] [10534*]:
    → "The tabs you acquire can be spent on field support."
159: 0x02F0 [0x23] WAIT_FOR_DIALOG_INTERACTION
160: 0x02F1 [0x05] ExtData[1]->WorkLocal[5] = 1

SUBROUTINE_02F4:
161: 0x02F4 [0x02] IF !(ExtData[1]->WorkLocal[5] == 0*) GOTO 0x08FB
162: 0x02FC [0x02] IF !(ExtData[1]->WorkLocal[17] <= 0*) GOTO 0x0361
163: 0x0304 [0x03] Work_Zone_1700[0] = ExtData[1]->WorkLocal[8]
164: 0x0309 [0x03] Work_Zone_1700[1] = 10*
165: 0x030E [0x03] Work_Zone_1700[2] = 5*
166: 0x0313 [0x03] Work_Zone_1700[3] = 25*
167: 0x0318 [0x03] Work_Zone_1700[4] = 5*
168: 0x031D [0x03] Work_Zone_1700[5] = 10*
169: 0x0322 [0x03] Work_Zone_1700[6] = 15*
170: 0x0327 [0x03] Work_Zone_1700[7] = 10*
171: 0x032C [0x03] Work_Zone_1700[8] = 10*
172: 0x0331 [0x03] Work_Zone_1700[9] = 5*
173: 0x0336 [0x03] Work_Zone_1700[10] = 5*
174: 0x033B [0x03] Work_Zone_1700[11] = 10*
175: 0x0340 [0x03] Work_Zone_1700[12] = 25*
176: 0x0345 [0x03] Work_Zone_1700[13] = 25*
177: 0x034A [0x03] Work_Zone_1700[14] = 25*
178: 0x034F [0x03] Work_Zone_1700[15] = 25*
179: 0x0354 [0x03] Work_Zone_1700[16] = 25*
180: 0x0359 [0x03] Work_Zone_1700[17] = 25*
181: 0x035E [0x01] GOTO 0x03BB
182: 0x0361 [0x03] Work_Zone_1700[0] = ExtData[1]->WorkLocal[8]
183: 0x0366 [0x03] Work_Zone_1700[1] = 50*
184: 0x036B [0x03] Work_Zone_1700[2] = 5*
185: 0x0370 [0x03] Work_Zone_1700[3] = 50*
186: 0x0375 [0x03] Work_Zone_1700[4] = 10*
187: 0x037A [0x03] Work_Zone_1700[5] = 20*
188: 0x037F [0x03] Work_Zone_1700[6] = 30*
189: 0x0384 [0x03] Work_Zone_1700[7] = 20*
190: 0x0389 [0x03] Work_Zone_1700[8] = 20*
191: 0x038E [0x03] Work_Zone_1700[9] = 15*
192: 0x0393 [0x03] Work_Zone_1700[10] = 15*
193: 0x0398 [0x03] Work_Zone_1700[11] = 20*
194: 0x039D [0x03] Work_Zone_1700[12] = 50*
195: 0x03A2 [0x03] Work_Zone_1700[13] = 50*
196: 0x03A7 [0x03] Work_Zone_1700[14] = 50*
197: 0x03AC [0x03] Work_Zone_1700[15] = 50*
198: 0x03B1 [0x03] Work_Zone_1700[16] = 50*
199: 0x03B6 [0x03] Work_Zone_1700[17] = 50*

SUBROUTINE_03BB:
200: 0x03BB [0x03] Work_Zone_1700[18] = 300*
201: 0x03C0 [0x03] Work_Zone_1700[19] = 300*
202: 0x03C5 [0x02] IF !(ExtData[1]->WorkLocal[17] <= 0*) GOTO 0x0516
203: 0x03CD [0x24] CREATE_DIALOG(message_id=10535*, default_option=0*, option_flags=ExtData[1]->WorkLocal[2])
    → "Which one? (You have $8 [tab/tabs]). [Nothing for now./Repatriation ($9)./Circumspection ($10)./Homing Instinct ($11)./White magic: Reraise ($12)./White magic: Reraise II ($13)./White magic: Reraise III ($14)./White magic: Regen ($15)./White magic: Refresh ($16)./White magic: Protect ($17)./White magic: Shell ($18)./White magic: Haste ($19)./Field recipe: Dried Meat ($20)./Field recipe: Salted Fish ($21)./Field recipe: Hard Cookie ($22)./Field recipe: Instant Noodles ($23)./Field recipe: Dried Agaricus ($24)./Field recipe: Instant Rice ($25)./Receive alter ego: Sakura ($26)./Receive alter ego: Koru-Moru ($27).]"
204: 0x03D4 [0x25] WAIT_DIALOG_SELECT()
205: 0x03D5 [0x02] IF !(Work_Zone[0] == 0*) GOTO 0x03E3
206: 0x03DD [0x06] ExtData[1]->WorkLocal[5] = 0
207: 0x03E0 [0x01] GOTO 0x0513
208: 0x03E3 [0x02] IF !(Work_Zone[0] == 1*) GOTO 0x03F3
209: 0x03EB [0x03] ExtData[1]->WorkLocal[9] = 10*
210: 0x03F0 [0x01] GOTO 0x0513
211: 0x03F3 [0x02] IF !(Work_Zone[0] == 2*) GOTO 0x0403
212: 0x03FB [0x03] ExtData[1]->WorkLocal[9] = 5*
213: 0x0400 [0x01] GOTO 0x0513
214: 0x0403 [0x02] IF !(Work_Zone[0] == 3*) GOTO 0x0413
215: 0x040B [0x03] ExtData[1]->WorkLocal[9] = 25*
216: 0x0410 [0x01] GOTO 0x0513
217: 0x0413 [0x02] IF !(Work_Zone[0] == 4*) GOTO 0x0423
218: 0x041B [0x03] ExtData[1]->WorkLocal[9] = 5*
219: 0x0420 [0x01] GOTO 0x0513
220: 0x0423 [0x02] IF !(Work_Zone[0] == 5*) GOTO 0x0433
221: 0x042B [0x03] ExtData[1]->WorkLocal[9] = 10*
222: 0x0430 [0x01] GOTO 0x0513
223: 0x0433 [0x02] IF !(Work_Zone[0] == 6*) GOTO 0x0443
224: 0x043B [0x03] ExtData[1]->WorkLocal[9] = 15*
225: 0x0440 [0x01] GOTO 0x0513
226: 0x0443 [0x02] IF !(Work_Zone[0] == 7*) GOTO 0x0453
227: 0x044B [0x03] ExtData[1]->WorkLocal[9] = 10*
228: 0x0450 [0x01] GOTO 0x0513
229: 0x0453 [0x02] IF !(Work_Zone[0] == 8*) GOTO 0x0463
230: 0x045B [0x03] ExtData[1]->WorkLocal[9] = 10*
231: 0x0460 [0x01] GOTO 0x0513
232: 0x0463 [0x02] IF !(Work_Zone[0] == 9*) GOTO 0x0473
233: 0x046B [0x03] ExtData[1]->WorkLocal[9] = 5*
234: 0x0470 [0x01] GOTO 0x0513
235: 0x0473 [0x02] IF !(Work_Zone[0] == 10*) GOTO 0x0483
236: 0x047B [0x03] ExtData[1]->WorkLocal[9] = 5*
237: 0x0480 [0x01] GOTO 0x0513
238: 0x0483 [0x02] IF !(Work_Zone[0] == 11*) GOTO 0x0493
239: 0x048B [0x03] ExtData[1]->WorkLocal[9] = 10*
240: 0x0490 [0x01] GOTO 0x0513
241: 0x0493 [0x02] IF !(Work_Zone[0] == 12*) GOTO 0x04A3
242: 0x049B [0x03] ExtData[1]->WorkLocal[9] = 25*
243: 0x04A0 [0x01] GOTO 0x0513
244: 0x04A3 [0x02] IF !(Work_Zone[0] == 13*) GOTO 0x04B3
245: 0x04AB [0x03] ExtData[1]->WorkLocal[9] = 25*
246: 0x04B0 [0x01] GOTO 0x0513
247: 0x04B3 [0x02] IF !(Work_Zone[0] == 14*) GOTO 0x04C3
248: 0x04BB [0x03] ExtData[1]->WorkLocal[9] = 25*
249: 0x04C0 [0x01] GOTO 0x0513
250: 0x04C3 [0x02] IF !(Work_Zone[0] == 15*) GOTO 0x04D3
251: 0x04CB [0x03] ExtData[1]->WorkLocal[9] = 25*
252: 0x04D0 [0x01] GOTO 0x0513
253: 0x04D3 [0x02] IF !(Work_Zone[0] == 16*) GOTO 0x04E3
254: 0x04DB [0x03] ExtData[1]->WorkLocal[9] = 25*
255: 0x04E0 [0x01] GOTO 0x0513
256: 0x04E3 [0x02] IF !(Work_Zone[0] == 17*) GOTO 0x04F3
257: 0x04EB [0x03] ExtData[1]->WorkLocal[9] = 25*
258: 0x04F0 [0x01] GOTO 0x0513
259: 0x04F3 [0x02] IF !(Work_Zone[0] == 18*) GOTO 0x0503
260: 0x04FB [0x03] ExtData[1]->WorkLocal[9] = 300*
261: 0x0500 [0x01] GOTO 0x0513
262: 0x0503 [0x02] IF !(Work_Zone[0] == 19*) GOTO 0x0513
263: 0x050B [0x03] ExtData[1]->WorkLocal[9] = 300*
264: 0x0510 [0x01] GOTO 0x0513

SUBROUTINE_0513:
265: 0x0513 [0x01] GOTO 0x065C
266: 0x0516 [0x24] CREATE_DIALOG(message_id=10535*, default_option=0*, option_flags=ExtData[1]->WorkLocal[2])
    → "Which one? (You have $8 [tab/tabs]). [Nothing for now./Repatriation ($9)./Circumspection ($10)./Homing Instinct ($11)./White magic: Reraise ($12)./White magic: Reraise II ($13)./White magic: Reraise III ($14)./White magic: Regen ($15)./White magic: Refresh ($16)./White magic: Protect ($17)./White magic: Shell ($18)./White magic: Haste ($19)./Field recipe: Dried Meat ($20)./Field recipe: Salted Fish ($21)./Field recipe: Hard Cookie ($22)./Field recipe: Instant Noodles ($23)./Field recipe: Dried Agaricus ($24)./Field recipe: Instant Rice ($25)./Receive alter ego: Sakura ($26)./Receive alter ego: Koru-Moru ($27).]"
267: 0x051D [0x25] WAIT_DIALOG_SELECT()
268: 0x051E [0x02] IF !(Work_Zone[0] == 0*) GOTO 0x052C
269: 0x0526 [0x06] ExtData[1]->WorkLocal[5] = 0
270: 0x0529 [0x01] GOTO 0x065C
271: 0x052C [0x02] IF !(Work_Zone[0] == 1*) GOTO 0x053C
272: 0x0534 [0x03] ExtData[1]->WorkLocal[9] = 50*
273: 0x0539 [0x01] GOTO 0x065C
274: 0x053C [0x02] IF !(Work_Zone[0] == 2*) GOTO 0x054C
275: 0x0544 [0x03] ExtData[1]->WorkLocal[9] = 5*
276: 0x0549 [0x01] GOTO 0x065C
277: 0x054C [0x02] IF !(Work_Zone[0] == 3*) GOTO 0x055C
278: 0x0554 [0x03] ExtData[1]->WorkLocal[9] = 50*
279: 0x0559 [0x01] GOTO 0x065C
280: 0x055C [0x02] IF !(Work_Zone[0] == 4*) GOTO 0x056C
281: 0x0564 [0x03] ExtData[1]->WorkLocal[9] = 10*
282: 0x0569 [0x01] GOTO 0x065C
283: 0x056C [0x02] IF !(Work_Zone[0] == 5*) GOTO 0x057C
284: 0x0574 [0x03] ExtData[1]->WorkLocal[9] = 20*
285: 0x0579 [0x01] GOTO 0x065C
286: 0x057C [0x02] IF !(Work_Zone[0] == 6*) GOTO 0x058C
287: 0x0584 [0x03] ExtData[1]->WorkLocal[9] = 30*
288: 0x0589 [0x01] GOTO 0x065C
289: 0x058C [0x02] IF !(Work_Zone[0] == 7*) GOTO 0x059C
290: 0x0594 [0x03] ExtData[1]->WorkLocal[9] = 20*
291: 0x0599 [0x01] GOTO 0x065C
292: 0x059C [0x02] IF !(Work_Zone[0] == 8*) GOTO 0x05AC
293: 0x05A4 [0x03] ExtData[1]->WorkLocal[9] = 20*
294: 0x05A9 [0x01] GOTO 0x065C
295: 0x05AC [0x02] IF !(Work_Zone[0] == 9*) GOTO 0x05BC
296: 0x05B4 [0x03] ExtData[1]->WorkLocal[9] = 15*
297: 0x05B9 [0x01] GOTO 0x065C
298: 0x05BC [0x02] IF !(Work_Zone[0] == 10*) GOTO 0x05CC
299: 0x05C4 [0x03] ExtData[1]->WorkLocal[9] = 15*
300: 0x05C9 [0x01] GOTO 0x065C
301: 0x05CC [0x02] IF !(Work_Zone[0] == 11*) GOTO 0x05DC
302: 0x05D4 [0x03] ExtData[1]->WorkLocal[9] = 20*
303: 0x05D9 [0x01] GOTO 0x065C
304: 0x05DC [0x02] IF !(Work_Zone[0] == 12*) GOTO 0x05EC
305: 0x05E4 [0x03] ExtData[1]->WorkLocal[9] = 50*
306: 0x05E9 [0x01] GOTO 0x065C
307: 0x05EC [0x02] IF !(Work_Zone[0] == 13*) GOTO 0x05FC
308: 0x05F4 [0x03] ExtData[1]->WorkLocal[9] = 50*
309: 0x05F9 [0x01] GOTO 0x065C
310: 0x05FC [0x02] IF !(Work_Zone[0] == 14*) GOTO 0x060C
311: 0x0604 [0x03] ExtData[1]->WorkLocal[9] = 50*
312: 0x0609 [0x01] GOTO 0x065C
313: 0x060C [0x02] IF !(Work_Zone[0] == 15*) GOTO 0x061C
314: 0x0614 [0x03] ExtData[1]->WorkLocal[9] = 50*
315: 0x0619 [0x01] GOTO 0x065C
316: 0x061C [0x02] IF !(Work_Zone[0] == 16*) GOTO 0x062C
317: 0x0624 [0x03] ExtData[1]->WorkLocal[9] = 50*
318: 0x0629 [0x01] GOTO 0x065C
319: 0x062C [0x02] IF !(Work_Zone[0] == 17*) GOTO 0x063C
320: 0x0634 [0x03] ExtData[1]->WorkLocal[9] = 50*
321: 0x0639 [0x01] GOTO 0x065C
322: 0x063C [0x02] IF !(Work_Zone[0] == 18*) GOTO 0x064C
323: 0x0644 [0x03] ExtData[1]->WorkLocal[9] = 300*
324: 0x0649 [0x01] GOTO 0x065C
325: 0x064C [0x02] IF !(Work_Zone[0] == 19*) GOTO 0x065C
326: 0x0654 [0x03] ExtData[1]->WorkLocal[9] = 300*
327: 0x0659 [0x01] GOTO 0x065C

SUBROUTINE_065C:
328: 0x065C [0x02] IF !(Work_Zone[0] <= 0*) GOTO 0x08F8
329: 0x0664 [0x02] IF !(Work_Zone[0] == 1*) GOTO 0x0674
330: 0x066C [0x03] ExtData[1]->WorkLocal[0] = 10539*
331: 0x0671 [0x01] GOTO 0x0699
332: 0x0674 [0x02] IF !(Work_Zone[0] == 2*) GOTO 0x0684
333: 0x067C [0x03] ExtData[1]->WorkLocal[0] = 10540*
334: 0x0681 [0x01] GOTO 0x0699
335: 0x0684 [0x02] IF !(Work_Zone[0] == 3*) GOTO 0x0694
336: 0x068C [0x03] ExtData[1]->WorkLocal[0] = 10541*
337: 0x0691 [0x01] GOTO 0x0699
338: 0x0694 [0x03] ExtData[1]->WorkLocal[0] = 10538*

SUBROUTINE_0699:
339: 0x0699 [0x40] SET_BIT_WORK_RANGE(start_bit=0*, end_bit=3*, target=Work_Zone[1], source=4*)
340: 0x06A2 [0x40] SET_BIT_WORK_RANGE(start_bit=4*, end_bit=11*, target=Work_Zone[1], source=Work_Zone[0])
341: 0x06AB [0x24] CREATE_DIALOG(message_id=ExtData[1]->WorkLocal[0], default_option=1*, option_flags=0*)
342: 0x06B2 [0x25] WAIT_DIALOG_SELECT()
343: 0x06B3 [0x02] IF !(Work_Zone[0] == 0*) GOTO 0x08E8
344: 0x06BB [0x02] IF !(ExtData[1]->WorkLocal[9] <= ExtData[1]->WorkLocal[8]) GOTO 0x06CF
345: 0x06C3 [0x48] [System] [10542*]:
    → "You do not have enough tabs."
346: 0x06C6 [0x23] WAIT_FOR_DIALOG_INTERACTION
347: 0x06C7 [0x03] Work_Zone[1] = 0*
348: 0x06CC [0x01] GOTO 0x08E5
349: 0x06CF [0x42] SET_CLI_EVENT_CANCEL_DATA()
350: 0x06D0 [0x43] SEND_EVENT_UPDATE: Send pending tag to server (packet 0x005B)
351: 0x06D2 [0x43] SEND_EVENT_UPDATE: Check pending flag (skip if not pending)
352: 0x06D4 [0x06] ExtData[1]->WorkLocal[4] = 0
353: 0x06D7 [0x06] ExtData[1]->WorkLocal[5] = 0
354: 0x06DA [0x41] ExtData[1]->WorkLocal[0] = Work_Zone[1] (bits 4*-11*)
355: 0x06E3 [0x02] IF !(ExtData[1]->WorkLocal[0] == 1*) GOTO 0x06FC
356: 0x06EB [0x73] EventEntity casts magic 122* on LocalPlayer
357: 0x06F6 [0x1C] WAIT(260* ticks)
358: 0x06F9 [0x01] GOTO 0x08E5
359: 0x06FC [0x02] IF !(ExtData[1]->WorkLocal[0] == 2*) GOTO 0x0716
360: 0x0704 [0xAD] DUAL_ENTITY_SCHEDULER_HANDLER: Execute sub-case 0 with entities [EventEntity, LocalPlayer], work=76*
361: 0x0710 [0x1C] WAIT(260* ticks)
362: 0x0713 [0x01] GOTO 0x08E5
363: 0x0716 [0x02] IF !(ExtData[1]->WorkLocal[0] == 3*) GOTO 0x072F
364: 0x071E [0x73] EventEntity casts magic 261* on LocalPlayer
365: 0x0729 [0x1C] WAIT(260* ticks)
366: 0x072C [0x01] GOTO 0x08E5
367: 0x072F [0x02] IF !(ExtData[1]->WorkLocal[0] == 4*) GOTO 0x0748
368: 0x0737 [0x73] EventEntity casts magic 137* on LocalPlayer
369: 0x0742 [0x1C] WAIT(260* ticks)
370: 0x0745 [0x01] GOTO 0x08E5
371: 0x0748 [0x02] IF !(ExtData[1]->WorkLocal[0] == 5*) GOTO 0x0761
372: 0x0750 [0x73] EventEntity casts magic 493* on LocalPlayer
373: 0x075B [0x1C] WAIT(260* ticks)
374: 0x075E [0x01] GOTO 0x08E5
375: 0x0761 [0x02] IF !(ExtData[1]->WorkLocal[0] == 6*) GOTO 0x077A
376: 0x0769 [0x73] EventEntity casts magic 494* on LocalPlayer
377: 0x0774 [0x1C] WAIT(260* ticks)
378: 0x0777 [0x01] GOTO 0x08E5
379: 0x077A [0x02] IF !(ExtData[1]->WorkLocal[0] == 7*) GOTO 0x0793
380: 0x0782 [0x73] EventEntity casts magic 108* on LocalPlayer
381: 0x078D [0x1C] WAIT(260* ticks)
382: 0x0790 [0x01] GOTO 0x08E5
383: 0x0793 [0x02] IF !(ExtData[1]->WorkLocal[0] == 8*) GOTO 0x07AC
384: 0x079B [0x73] EventEntity casts magic 109* on LocalPlayer
385: 0x07A6 [0x1C] WAIT(260* ticks)
386: 0x07A9 [0x01] GOTO 0x08E5
387: 0x07AC [0x02] IF !(ExtData[1]->WorkLocal[0] == 9*) GOTO 0x07C5
388: 0x07B4 [0x73] EventEntity casts magic 43* on LocalPlayer
389: 0x07BF [0x1C] WAIT(260* ticks)
390: 0x07C2 [0x01] GOTO 0x08E5
391: 0x07C5 [0x02] IF !(ExtData[1]->WorkLocal[0] == 10*) GOTO 0x07DE
392: 0x07CD [0x73] EventEntity casts magic 48* on LocalPlayer
393: 0x07D8 [0x1C] WAIT(260* ticks)
394: 0x07DB [0x01] GOTO 0x08E5
395: 0x07DE [0x02] IF !(ExtData[1]->WorkLocal[0] == 11*) GOTO 0x07F7
396: 0x07E6 [0x73] EventEntity casts magic 57* on LocalPlayer
397: 0x07F1 [0x1C] WAIT(260* ticks)
398: 0x07F4 [0x01] GOTO 0x08E5
399: 0x07F7 [0x02] IF !(ExtData[1]->WorkLocal[0] == 12*) GOTO 0x081B
400: 0x07FF [0x3E] IF !(ExtData[1]->WorkLocal[10] bit 2*) GOTO 0x0809
401: 0x0806 [0x01] GOTO 0x0818
402: 0x0809 [0xAD] DUAL_ENTITY_SCHEDULER_HANDLER: Execute sub-case 0 with entities [EventEntity, LocalPlayer], work=25*
403: 0x0815 [0x1C] WAIT(260* ticks)

SUBROUTINE_0818:
404: 0x0818 [0x01] GOTO 0x08E5
405: 0x081B [0x02] IF !(ExtData[1]->WorkLocal[0] == 13*) GOTO 0x083F
406: 0x0823 [0x3E] IF !(ExtData[1]->WorkLocal[10] bit 2*) GOTO 0x082D
407: 0x082A [0x01] GOTO 0x083C
408: 0x082D [0xAD] DUAL_ENTITY_SCHEDULER_HANDLER: Execute sub-case 0 with entities [EventEntity, LocalPlayer], work=25*
409: 0x0839 [0x1C] WAIT(260* ticks)

SUBROUTINE_083C:
410: 0x083C [0x01] GOTO 0x08E5
411: 0x083F [0x02] IF !(ExtData[1]->WorkLocal[0] == 14*) GOTO 0x0863
412: 0x0847 [0x3E] IF !(ExtData[1]->WorkLocal[10] bit 2*) GOTO 0x0851
413: 0x084E [0x01] GOTO 0x0860
414: 0x0851 [0xAD] DUAL_ENTITY_SCHEDULER_HANDLER: Execute sub-case 0 with entities [EventEntity, LocalPlayer], work=25*
415: 0x085D [0x1C] WAIT(260* ticks)

SUBROUTINE_0860:
416: 0x0860 [0x01] GOTO 0x08E5
417: 0x0863 [0x02] IF !(ExtData[1]->WorkLocal[0] == 15*) GOTO 0x0887
418: 0x086B [0x3E] IF !(ExtData[1]->WorkLocal[10] bit 2*) GOTO 0x0875
419: 0x0872 [0x01] GOTO 0x0884
420: 0x0875 [0xAD] DUAL_ENTITY_SCHEDULER_HANDLER: Execute sub-case 0 with entities [EventEntity, LocalPlayer], work=25*
421: 0x0881 [0x1C] WAIT(260* ticks)

SUBROUTINE_0884:
422: 0x0884 [0x01] GOTO 0x08E5
423: 0x0887 [0x02] IF !(ExtData[1]->WorkLocal[0] == 16*) GOTO 0x08AB
424: 0x088F [0x3E] IF !(ExtData[1]->WorkLocal[10] bit 2*) GOTO 0x0899
425: 0x0896 [0x01] GOTO 0x08A8
426: 0x0899 [0xAD] DUAL_ENTITY_SCHEDULER_HANDLER: Execute sub-case 0 with entities [EventEntity, LocalPlayer], work=27*
427: 0x08A5 [0x1C] WAIT(260* ticks)

SUBROUTINE_08A8:
428: 0x08A8 [0x01] GOTO 0x08E5
429: 0x08AB [0x02] IF !(ExtData[1]->WorkLocal[0] == 17*) GOTO 0x08CF
430: 0x08B3 [0x3E] IF !(ExtData[1]->WorkLocal[10] bit 2*) GOTO 0x08BD
431: 0x08BA [0x01] GOTO 0x08CC
432: 0x08BD [0xAD] DUAL_ENTITY_SCHEDULER_HANDLER: Execute sub-case 0 with entities [EventEntity, LocalPlayer], work=29*
433: 0x08C9 [0x1C] WAIT(260* ticks)

SUBROUTINE_08CC:
434: 0x08CC [0x01] GOTO 0x08E5
435: 0x08CF [0x02] IF !(ExtData[1]->WorkLocal[0] == 18*) GOTO 0x08DA
436: 0x08D7 [0x01] GOTO 0x08E5
437: 0x08DA [0x02] IF !(ExtData[1]->WorkLocal[0] == 19*) GOTO 0x08E5
438: 0x08E2 [0x01] GOTO 0x08E5

SUBROUTINE_08E5:
439: 0x08E5 [0x01] GOTO 0x08F8
440: 0x08E8 [0x02] IF !(Work_Zone[0] == 1*) GOTO 0x08F8
441: 0x08F0 [0x03] Work_Zone[1] = 0*
442: 0x08F5 [0x01] GOTO 0x08F8

SUBROUTINE_08F8:
443: 0x08F8 [0x01] GOTO 0x02F4
444: 0x08FB [0x01] GOTO 0x0A39
445: 0x08FE [0x02] IF !(Work_Zone[0] == 5*) GOTO 0x0911
446: 0x0906 [0x48] [System] [10549*]:
    → "Prowesses are unique enhancement effects, the benefits of which can be unlocked and strengthened through sustained training."
447: 0x0909 [0x23] WAIT_FOR_DIALOG_INTERACTION
448: 0x090A [0x48] [System] [10550*]:
    → "Please note, however, that their effects are temporary and will be lost should you venture into a different area."
449: 0x090D [0x23] WAIT_FOR_DIALOG_INTERACTION
450: 0x090E [0x01] GOTO 0x0A39
451: 0x0911 [0x02] IF !(Work_Zone[0] == 6*) GOTO 0x0A39
452: 0x0919 [0x40] SET_BIT_WORK_RANGE(start_bit=0*, end_bit=3*, target=Work_Zone[1], source=7*)
453: 0x0922 [0x43] SEND_EVENT_UPDATE: Send pending tag to server (packet 0x005B)
454: 0x0924 [0x43] SEND_EVENT_UPDATE: Check pending flag (skip if not pending)
455: 0x0926 [0x41] Work_Zone_1700[2] = Work_Zone[2] (bits 0*-3*)
456: 0x092F [0x41] Work_Zone_1700[3] = Work_Zone[2] (bits 4*-7*)
457: 0x0938 [0x41] Work_Zone_1700[4] = Work_Zone[2] (bits 8*-11*)
458: 0x0941 [0x41] Work_Zone_1700[5] = Work_Zone[2] (bits 12*-15*)
459: 0x094A [0x41] Work_Zone_1700[6] = Work_Zone[2] (bits 16*-19*)
460: 0x0953 [0x41] Work_Zone_1700[7] = Work_Zone[2] (bits 20*-23*)
461: 0x095C [0x41] Work_Zone_1700[8] = Work_Zone[2] (bits 24*-27*)
462: 0x0965 [0x41] Work_Zone_1700[9] = Work_Zone[2] (bits 28*-31*)
463: 0x096E [0x41] Work_Zone_1700[10] = Work_Zone[3] (bits 0*-3*)
464: 0x0977 [0x41] Work_Zone_1700[11] = Work_Zone[3] (bits 4*-7*)
465: 0x0980 [0x41] Work_Zone_1700[12] = Work_Zone[3] (bits 8*-11*)
466: 0x0989 [0x41] Work_Zone_1700[13] = Work_Zone[3] (bits 12*-15*)
467: 0x0992 [0x41] Work_Zone_1700[14] = Work_Zone[3] (bits 16*-19*)
468: 0x099B [0x41] Work_Zone_1700[15] = Work_Zone[3] (bits 20*-23*)
469: 0x09A4 [0x41] Work_Zone_1700[16] = Work_Zone[3] (bits 24*-27*)
470: 0x09AD [0x41] Work_Zone_1700[17] = Work_Zone[3] (bits 28*-31*)
471: 0x09B6 [0x06] ExtData[1]->WorkLocal[15] = 0
472: 0x09B9 [0x06] ExtData[1]->WorkLocal[14] = 0
473: 0x09BC [0x06] ExtData[1]->WorkLocal[11] = 0

SUBROUTINE_09BF:
474: 0x09BF [0x02] IF !(ExtData[1]->WorkLocal[15] >= 16*) GOTO 0x09EA
475: 0x09C7 [0x9D] Work_Zone[2] = 0x0A3E[ExtData[1]->WorkLocal[15]] // Read WORD
476: 0x09CF [0x02] IF !(Work_Zone[2] == 0*) GOTO 0x09DD
477: 0x09D7 [0x05] ExtData[1]->WorkLocal[11] = 1
478: 0x09DA [0x01] GOTO 0x09E4
479: 0x09DD [0x3C] SET_BIT_FLAG_CONDITIONAL(target_work_offset=ExtData[1]->WorkLocal[14], bit_index_work_offset=ExtData[1]->WorkLocal[15], condition_work_offset=1*)

SUBROUTINE_09E4:
480: 0x09E4 [0x0B] ExtData[1]->WorkLocal[15]++
481: 0x09E7 [0x01] GOTO 0x09BF
482: 0x09EA [0x10] ExtData[1]->WorkLocal[14] <<= 1*
483: 0x09EF [0x02] IF !(ExtData[1]->WorkLocal[11] == 0*) GOTO 0x09FE
484: 0x09F7 [0x48] [System] [10551*]:
    → "No prowesses are active at present."
485: 0x09FA [0x23] WAIT_FOR_DIALOG_INTERACTION
486: 0x09FB [0x01] GOTO 0x0A36
487: 0x09FE [0x06] ExtData[1]->WorkLocal[15] = 0

SUBROUTINE_0A01:
488: 0x0A01 [0x02] IF !(ExtData[1]->WorkLocal[15] == 0*) GOTO 0x0A36
489: 0x0A09 [0x24] CREATE_DIALOG(message_id=10536*, default_option=0*, option_flags=ExtData[1]->WorkLocal[14])
    → "Active prowess list. [Go back./Increased treasure casket discovery./Increased combat and magic skill gain./Increased crystal yield./Treasure Hunter bonus./Increased attack speed./Increased HP and MP./Enhanced accuracy and ranged accuracy./Enhanced attack and ranged attack./Enhanced magic acc. and magic atk./Enhanced "Cure" potency./Increased weapon skill damage./"Killer" effects bonus./Ability X./Ability X./Ability X./Ability X.]"
490: 0x0A10 [0x25] WAIT_DIALOG_SELECT()
491: 0x0A11 [0x02] IF !(Work_Zone[0] == 0*) GOTO 0x0A1F
492: 0x0A19 [0x05] ExtData[1]->WorkLocal[15] = 1
493: 0x0A1C [0x01] GOTO 0x0A33
494: 0x0A1F [0x03] Work_Zone[2] = Work_Zone[0]
495: 0x0A24 [0x0C] Work_Zone[2]--
496: 0x0A27 [0x9D] Work_Zone[3] = 0x0A3E[Work_Zone[2]] // Read WORD
497: 0x0A2F [0x48] [System] [10537*]:
    → "[Increased treasure casket discovery/Increased combat and magic skill gain/Increased crystal yield/Treasure Hunter bonus/Increased attack speed/Increased HP and MP/Enhanced accuracy and ranged accuracy/Enhanced attack and ranged attack/Enhanced magic accuracy and magic attack/Enhanced "Cure" potency/Increased weapon skill damage/"Killer" effects bonus/Effect X/Effect X/Effect X/Effect X] prowess stands at level $1."
498: 0x0A32 [0x23] WAIT_FOR_DIALOG_INTERACTION

SUBROUTINE_0A33:
499: 0x0A33 [0x01] GOTO 0x0A01

SUBROUTINE_0A36:
500: 0x0A36 [0x01] GOTO 0x0A39

SUBROUTINE_0A39:
501: 0x0A39 [0x01] GOTO 0x00DA
502: 0x0A3C [0x21] END_EVENT
503: 0x0A3D [0x00] END_REQSTACK()

SUBROUTINE_0A5E:
504: 0x0A5E [0x06] ExtData[1]->WorkLocal[15] = 0

SUBROUTINE_0A61:
505: 0x0A61 [0x02] IF !(ExtData[1]->WorkLocal[15] >= 4*) GOTO 0x0A95
506: 0x0A69 [0x9D] ExtData[1]->WorkLocal[12] = 0x0A9B[ExtData[1]->WorkLocal[15]] // Read WORD
507: 0x0A71 [0x9D] ExtData[1]->WorkLocal[13] = 0x0AAB[ExtData[1]->WorkLocal[15]] // Read WORD
508: 0x0A79 [0x02] IF !(ExtData[1]->WorkLocal[12] > ExtData[1]->WorkLocal[0]) GOTO 0x0A8F
509: 0x0A81 [0x02] IF !(ExtData[1]->WorkLocal[13] < ExtData[1]->WorkLocal[0]) GOTO 0x0A8F
510: 0x0A89 [0x03] ExtData[1]->WorkLocal[11] = ExtData[1]->WorkLocal[15]
511: 0x0A8E [0x1B] RETURN
512: 0x0A8F [0x0B] ExtData[1]->WorkLocal[15]++
513: 0x0A92 [0x01] GOTO 0x0A61
514: 0x0A95 [0x03] ExtData[1]->WorkLocal[11] = 4294967295*
515: 0x0A9A [0x1B] RETURN
```

#### Data or dead code:

```
# Data Section: 0x0A3E (32 bytes)
     0x0A3E: 02 17 03 17 04 17 05 17 06 17 07 17 08 17 09 17
     0x0A4E: 0A 17 0B 17 0C 17 0D 17 0E 17 0F 17 10 17 11 17
# Data Section: 0x0A9B (32 bytes)
     0x0A9B: 02 80 47 80 48 80 49 80 00 80 00 80 00 80 00 80
     0x0AAB: 4A 80 4B 80 4C 80 4D 80 00 80 00 80 00 80 00 80
```
