# 17563867 - DIRECTOR

## Common Data

| Field            | Value                          |
|------------------|--------------------------------|
| Zone             | Inner Horutoto Ruins (ID: 192) |
| Block Size       | 1240 bytes                     |
| Total Events     | 10                             |
| References Count | 33                             |

## List of Events

| Event ID                 | Entrypoint   |   Size |   Instructions |
|--------------------------|--------------|--------|----------------|
| [65535](#event-65535)    | 0x0000       |      1 |              1 |
| [2](#event-2)            | 0x0001       |      1 |              1 |
| [1](#event-1)            | 0x0002       |     48 |             11 |
| [65535.1](#event-655351) | 0x0032       |    360 |             64 |
| [65535.2](#event-655352) | 0x019A       |    227 |             42 |
| [65535.3](#event-655353) | 0x027D       |     97 |             20 |
| [65535.4](#event-655354) | 0x02DE       |     74 |             16 |
| [3](#event-3)            | 0x0328       |     79 |             12 |
| [4](#event-4)            | 0x0377       |     75 |             10 |
| [5](#event-5)            | 0x03C2       |     88 |             11 |

## DAT References (imed_data)

|   Index | Hex Value   |   Dec Value |
|---------|-------------|-------------|
|       0 | 0x1C4F      |        7247 |
|       1 | 0x0000      |           0 |
|       2 | 0x0001      |           1 |
|       3 | 0x0003      |           3 |
|       4 | 0x1C53      |        7251 |
|       5 | 0x0002      |           2 |
|       6 | 0x1C54      |        7252 |
|       7 | 0x000B      |          11 |
|       8 | 0x0004      |           4 |
|       9 | 0x0005      |           5 |
|      10 | 0x0006      |           6 |
|      11 | 0x0007      |           7 |
|      12 | 0x0008      |           8 |
|      13 | 0x0009      |           9 |
|      14 | 0x000A      |          10 |
|      15 | 0x000C      |          12 |
|      16 | 0x1C50      |        7248 |
|      17 | 0x0012      |          18 |
|      18 | 0x0015      |          21 |
|      19 | 0x0016      |          22 |
|      20 | 0x0017      |          23 |
|      21 | 0x0018      |          24 |
|      22 | 0x0019      |          25 |
|      23 | 0x001A      |          26 |
|      24 | 0x1C51      |        7249 |
|      25 | 0x000D      |          13 |
|      26 | 0x000E      |          14 |
|      27 | 0x0064      |         100 |
|      28 | 0x1C52      |        7250 |
|      29 | 0x0013      |          19 |
|      30 | 0x0014      |          20 |
|      31 | 0x04B0      |        1200 |
|      32 | 0x1C47      |        7239 |

## String References

- **7239**: mes3
- **7247**: WHAT YOU WANNA DO? [(EMPTY)./EVENTS./GO TO TOWN./WARP./LEAVE ZONE ONCE./RESET QUEST FLAGS ONLY.]
- **7248**: WHICH EVENT? [$1261590$3$P11e$@1v/ums102:$3J$3J$3VL$P10S$31v/ums201:$18+$17v/utest:%R$P13.$P11Ov/utest:%R$P13.$6v/utest:%R$P13.cv/ums302:l$4 ifv/ums501?:l$4H"fv/ukm003:$P13yL$20%.IDhint$P157/ifv/ukm003:$P16XL%h>fv/LEAVE ZONE ONCE./RESET QUEST FLAGS ONLY.]
- **7249**: WELL, WELL... [OK/Z$P12m0q))=/%sj=$2$P131 [$5GET/RESET QUEST FLAGS ONLY.]
- **7250**: WELL, WELL... [OK/DONE/RESET QUEST FLAGS ONLY.]
- **7251**: WHERE YOU WANNA WARP TO? [$P13|h{/$ [$6$:/$3~$3X$3$2L%Bj%F/$2$P139 [$5P$6A=$2$P16@$3/A$3_$3$3W$3/$3$19|{/B$3_$3$3W$3/$3$19|{/C$3_$3$3W$3/$3$19|{/E$3_$3$3W$3/$3$19|{/%S%./$6$27$3$P14\`/$6$27$3$3}$3V$3$7l$4$20%.$P11O]
- **7252**: MIND YA MANA SPHERES! [1""/4/5/6]

## Events

### Event 65535

#### Metadata

| Field        | Value   |
|--------------|---------|
| Entrypoint   | 0x0000  |
| Data Size    | 1 bytes |
| Instructions | 1       |

```
      00 01 02 03 04 05 06 07  08 09 0A 0B 0C 0D 0E 0F
      -- -- -- -- -- -- -- --  -- -- -- -- -- -- -- --
0000: 00                                                .               
```

#### Opcodes

```
  0: 0x0000 [0x00] END_REQSTACK()
```

### Event 2

#### Metadata

| Field        | Value   |
|--------------|---------|
| Entrypoint   | 0x0001  |
| Data Size    | 1 bytes |
| Instructions | 1       |

```
      00 01 02 03 04 05 06 07  08 09 0A 0B 0C 0D 0E 0F
      -- -- -- -- -- -- -- --  -- -- -- -- -- -- -- --
0000:    00                                              .              
```

#### Opcodes

```
  0: 0x0001 [0x00] END_REQSTACK()
```

### Event 1

#### Metadata

| Field        | Value    |
|--------------|----------|
| Entrypoint   | 0x0002   |
| Data Size    | 48 bytes |
| Instructions | 11       |

```
      00 01 02 03 04 05 06 07  08 09 0A 0B 0C 0D 0E 0F
      -- -- -- -- -- -- -- --  -- -- -- -- -- -- -- --
0000:       24 00 80 01 80 01  80 25 02 00 10 02 80 00    $......%......
0010: 1C 00 29 0D DB 00 0C 01  04 01 2E 00 02 00 10 03  ..).............
0020: 80 00 2E 00 29 0D DB 00  0C 01 03 01 2E 00 20 00  ....)......... .
0030: 21 00                                             !.              
```

#### Opcodes

```
  0: 0x0002 [0x24] CREATE_DIALOG(message_id=7247*, default_option=0*, option_flags=0*)
    → "WHAT YOU WANNA DO? [(EMPTY)./EVENTS./GO TO TOWN./WARP./LEAVE ZONE ONCE./RESET QUEST FLAGS ONLY.]"
  1: 0x0009 [0x25] WAIT_DIALOG_SELECT()
  2: 0x000A [0x02] IF !(Work_Zone[0] == 1*) GOTO 0x001C
  3: 0x0012 [0x29] REQ_SET_WAIT(priority=0x0D, entity_id=DIRECTOR (ID: 17563867/0x010C00DB), tag_num=0x04)
  4: 0x0019 [0x01] GOTO 0x002E
  5: 0x001C [0x02] IF !(Work_Zone[0] == 3*) GOTO 0x002E
  6: 0x0024 [0x29] REQ_SET_WAIT(priority=0x0D, entity_id=DIRECTOR (ID: 17563867/0x010C00DB), tag_num=0x03)
  7: 0x002B [0x01] GOTO 0x002E

SUBROUTINE_002E:
  8: 0x002E [0x20] SET_CLI_EVENT_UC_FLAG: Unlock player control
  9: 0x0030 [0x21] END_EVENT
 10: 0x0031 [0x00] END_REQSTACK()
```

### Event 65535.1

#### Metadata

| Field        | Value     |
|--------------|-----------|
| Entrypoint   | 0x0032    |
| Data Size    | 360 bytes |
| Instructions | 64        |

```
      00 01 02 03 04 05 06 07  08 09 0A 0B 0C 0D 0E 0F
      -- -- -- -- -- -- -- --  -- -- -- -- -- -- -- --
0030:       24 04 80 01 80 01  80 25 02 00 10 01 80 00    $......%......
0040: 4C 00 29 09 F0 FF FF 7F  0F 01 96 01 02 00 10 02  L.).............
0050: 80 00 5E 00 29 09 F0 FF  FF 7F 0E 01 96 01 02 00  ..^.)...........
0060: 10 05 80 00 70 00 29 09  F0 FF FF 7F 16 01 96 01  ....p.).........
0070: 02 00 10 03 80 00 F4 00  24 06 80 01 80 01 80 25  ........$......%
0080: 03 01 10 07 80 02 00 10  01 80 00 97 00 29 09 F0  .............)..
0090: FF FF 7F 10 01 F1 00 02  00 10 02 80 00 A9 00 29  ...............)
00A0: 09 F0 FF FF 7F 11 01 F1  00 02 00 10 05 80 00 BB  ................
00B0: 00 29 09 F0 FF FF 7F 12  01 F1 00 02 00 10 03 80  .)..............
00C0: 00 CD 00 29 09 F0 FF FF  7F 13 01 F1 00 02 00 10  ...)............
00D0: 08 80 00 DF 00 29 09 F0  FF FF 7F 14 01 F1 00 02  .....)..........
00E0: 00 10 09 80 00 F1 00 29  09 F0 FF FF 7F 15 01 F1  .......)........
00F0: 00 01 96 01 02 00 10 08  80 00 06 01 29 09 F0 FF  ............)...
0100: FF 7F 17 01 96 01 02 00  10 09 80 00 18 01 29 09  ..............).
0110: F0 FF FF 7F 18 01 96 01  02 00 10 0A 80 00 2A 01  ..............*.
0120: 29 09 F0 FF FF 7F 19 01  96 01 02 00 10 0B 80 00  )...............
0130: 3C 01 29 09 F0 FF FF 7F  1A 01 96 01 02 00 10 0C  <.).............
0140: 80 00 4E 01 29 09 F0 FF  FF 7F 1B 01 96 01 02 00  ..N.)...........
0150: 10 0D 80 00 60 01 29 09  F0 FF FF 7F 1C 01 96 01  ....`.).........
0160: 02 00 10 0E 80 00 72 01  29 09 F0 FF FF 7F 1D 01  ......r.).......
0170: 96 01 02 00 10 07 80 00  84 01 29 09 F0 FF FF 7F  ..........).....
0180: 1E 01 96 01 02 00 10 0F  80 00 96 01 29 09 F0 FF  ............)...
0190: FF 7F 1F 01 96 01 20 00  21 00                    ...... .!.      
```

#### Opcodes

```
  0: 0x0032 [0x24] CREATE_DIALOG(message_id=7251*, default_option=0*, option_flags=0*)
    → "WHERE YOU WANNA WARP TO? [$P13|h{/$ [$6$:/$3~$3X$3$2L%Bj%F/$2$P139 [$5P$6A=$2$P16@$3/A$3_$3$3W$3/$3$19|{/B$3_$3$3W$3/$3$19|{/C$3_$3$3W$3/$3$19|{/E$3_$3$3W$3/$3$19|{/%S%./$6$27$3$P14`/$6$27$3$3}$3V$3$7l$4$20%.$P11O]"
  1: 0x0039 [0x25] WAIT_DIALOG_SELECT()
  2: 0x003A [0x02] IF !(Work_Zone[0] == 0*) GOTO 0x004C
  3: 0x0042 [0x29] REQ_SET_WAIT(priority=0x09, entity_id=LocalPlayer, tag_num=0x0F)
  4: 0x0049 [0x01] GOTO 0x0196
  5: 0x004C [0x02] IF !(Work_Zone[0] == 1*) GOTO 0x005E
  6: 0x0054 [0x29] REQ_SET_WAIT(priority=0x09, entity_id=LocalPlayer, tag_num=0x0E)
  7: 0x005B [0x01] GOTO 0x0196
  8: 0x005E [0x02] IF !(Work_Zone[0] == 2*) GOTO 0x0070
  9: 0x0066 [0x29] REQ_SET_WAIT(priority=0x09, entity_id=LocalPlayer, tag_num=0x16)
 10: 0x006D [0x01] GOTO 0x0196
 11: 0x0070 [0x02] IF !(Work_Zone[0] == 3*) GOTO 0x00F4
 12: 0x0078 [0x24] CREATE_DIALOG(message_id=7252*, default_option=0*, option_flags=0*)
    → "MIND YA MANA SPHERES! [1""/4/5/6]"
 13: 0x007F [0x25] WAIT_DIALOG_SELECT()
 14: 0x0080 [0x03] Work_Zone[1] = 11*
 15: 0x0085 [0x02] IF !(Work_Zone[0] == 0*) GOTO 0x0097
 16: 0x008D [0x29] REQ_SET_WAIT(priority=0x09, entity_id=LocalPlayer, tag_num=0x10)
 17: 0x0094 [0x01] GOTO 0x00F1
 18: 0x0097 [0x02] IF !(Work_Zone[0] == 1*) GOTO 0x00A9
 19: 0x009F [0x29] REQ_SET_WAIT(priority=0x09, entity_id=LocalPlayer, tag_num=0x11)
 20: 0x00A6 [0x01] GOTO 0x00F1
 21: 0x00A9 [0x02] IF !(Work_Zone[0] == 2*) GOTO 0x00BB
 22: 0x00B1 [0x29] REQ_SET_WAIT(priority=0x09, entity_id=LocalPlayer, tag_num=0x12)
 23: 0x00B8 [0x01] GOTO 0x00F1
 24: 0x00BB [0x02] IF !(Work_Zone[0] == 3*) GOTO 0x00CD
 25: 0x00C3 [0x29] REQ_SET_WAIT(priority=0x09, entity_id=LocalPlayer, tag_num=0x13)
 26: 0x00CA [0x01] GOTO 0x00F1
 27: 0x00CD [0x02] IF !(Work_Zone[0] == 4*) GOTO 0x00DF
 28: 0x00D5 [0x29] REQ_SET_WAIT(priority=0x09, entity_id=LocalPlayer, tag_num=0x14)
 29: 0x00DC [0x01] GOTO 0x00F1
 30: 0x00DF [0x02] IF !(Work_Zone[0] == 5*) GOTO 0x00F1
 31: 0x00E7 [0x29] REQ_SET_WAIT(priority=0x09, entity_id=LocalPlayer, tag_num=0x15)
 32: 0x00EE [0x01] GOTO 0x00F1

SUBROUTINE_00F1:
 33: 0x00F1 [0x01] GOTO 0x0196
 34: 0x00F4 [0x02] IF !(Work_Zone[0] == 4*) GOTO 0x0106
 35: 0x00FC [0x29] REQ_SET_WAIT(priority=0x09, entity_id=LocalPlayer, tag_num=0x17)
 36: 0x0103 [0x01] GOTO 0x0196
 37: 0x0106 [0x02] IF !(Work_Zone[0] == 5*) GOTO 0x0118
 38: 0x010E [0x29] REQ_SET_WAIT(priority=0x09, entity_id=LocalPlayer, tag_num=0x18)
 39: 0x0115 [0x01] GOTO 0x0196
 40: 0x0118 [0x02] IF !(Work_Zone[0] == 6*) GOTO 0x012A
 41: 0x0120 [0x29] REQ_SET_WAIT(priority=0x09, entity_id=LocalPlayer, tag_num=0x19)
 42: 0x0127 [0x01] GOTO 0x0196
 43: 0x012A [0x02] IF !(Work_Zone[0] == 7*) GOTO 0x013C
 44: 0x0132 [0x29] REQ_SET_WAIT(priority=0x09, entity_id=LocalPlayer, tag_num=0x1A)
 45: 0x0139 [0x01] GOTO 0x0196
 46: 0x013C [0x02] IF !(Work_Zone[0] == 8*) GOTO 0x014E
 47: 0x0144 [0x29] REQ_SET_WAIT(priority=0x09, entity_id=LocalPlayer, tag_num=0x1B)
 48: 0x014B [0x01] GOTO 0x0196
 49: 0x014E [0x02] IF !(Work_Zone[0] == 9*) GOTO 0x0160
 50: 0x0156 [0x29] REQ_SET_WAIT(priority=0x09, entity_id=LocalPlayer, tag_num=0x1C)
 51: 0x015D [0x01] GOTO 0x0196
 52: 0x0160 [0x02] IF !(Work_Zone[0] == 10*) GOTO 0x0172
 53: 0x0168 [0x29] REQ_SET_WAIT(priority=0x09, entity_id=LocalPlayer, tag_num=0x1D)
 54: 0x016F [0x01] GOTO 0x0196
 55: 0x0172 [0x02] IF !(Work_Zone[0] == 11*) GOTO 0x0184
 56: 0x017A [0x29] REQ_SET_WAIT(priority=0x09, entity_id=LocalPlayer, tag_num=0x1E)
 57: 0x0181 [0x01] GOTO 0x0196
 58: 0x0184 [0x02] IF !(Work_Zone[0] == 12*) GOTO 0x0196
 59: 0x018C [0x29] REQ_SET_WAIT(priority=0x09, entity_id=LocalPlayer, tag_num=0x1F)
 60: 0x0193 [0x01] GOTO 0x0196

SUBROUTINE_0196:
 61: 0x0196 [0x20] SET_CLI_EVENT_UC_FLAG: Unlock player control
 62: 0x0198 [0x21] END_EVENT
 63: 0x0199 [0x00] END_REQSTACK()
```

### Event 65535.2

#### Metadata

| Field        | Value     |
|--------------|-----------|
| Entrypoint   | 0x019A    |
| Data Size    | 227 bytes |
| Instructions | 42        |

```
      00 01 02 03 04 05 06 07  08 09 0A 0B 0C 0D 0E 0F
      -- -- -- -- -- -- -- --  -- -- -- -- -- -- -- --
0190:                                24 10 80 01 80 01            $.....
01A0: 80 25 02 00 10 01 80 00  B4 01 29 0B DB 00 0C 01  .%........).....
01B0: 05 01 79 02 02 00 10 02  80 00 C4 01 03 01 10 11  ..y.............
01C0: 80 01 79 02 02 00 10 05  80 00 D6 01 29 0B DB 00  ..y.........)...
01D0: 0C 01 06 01 79 02 02 00  10 03 80 00 ED 01 29 09  ....y.........).
01E0: F0 FF FF 7F 1E 03 01 10  12 80 01 79 02 02 00 10  ...........y....
01F0: 08 80 00 06 02 29 09 F0  FF FF 7F 1E 29 09 DB 00  .....)......)...
0200: 0C 01 08 01 79 02 02 00  10 09 80 00 1D 02 29 09  ....y.........).
0210: F0 FF FF 7F 1E 03 01 10  13 80 01 79 02 02 00 10  ...........y....
0220: 0A 80 00 34 02 29 09 F0  FF FF 7F 1F 03 01 10 14  ...4.)..........
0230: 80 01 79 02 02 00 10 0B  80 00 4B 02 29 09 F0 FF  ..y.......K.)...
0240: FF 7F 1F 03 01 10 15 80  01 79 02 02 00 10 0C 80  .........y......
0250: 00 62 02 29 09 F0 FF FF  7F 20 03 01 10 16 80 01  .b.)..... ......
0260: 79 02 02 00 10 0D 80 00  79 02 29 09 F0 FF FF 7F  y.......y.).....
0270: 20 03 01 10 17 80 01 79  02 20 00 21 00            ......y. .!.   
```

#### Opcodes

```
  0: 0x019A [0x24] CREATE_DIALOG(message_id=7248*, default_option=0*, option_flags=0*)
    → "WHICH EVENT? [$1261590$3$P11e$@1v/ums102:$3J$3J$3VL$P10S$31v/ums201:$18+$17v/utest:%R$P13.$P11Ov/utest:%R$P13.$6v/utest:%R$P13.cv/ums302:l$4 ifv/ums501?:l$4H"fv/ukm003:$P13yL$20%.IDhint$P157/ifv/ukm003:$P16XL%h>fv/LEAVE ZONE ONCE./RESET QUEST FLAGS ONLY.]"
  1: 0x01A1 [0x25] WAIT_DIALOG_SELECT()
  2: 0x01A2 [0x02] IF !(Work_Zone[0] == 0*) GOTO 0x01B4
  3: 0x01AA [0x29] REQ_SET_WAIT(priority=0x0B, entity_id=DIRECTOR (ID: 17563867/0x010C00DB), tag_num=0x05)
  4: 0x01B1 [0x01] GOTO 0x0279
  5: 0x01B4 [0x02] IF !(Work_Zone[0] == 1*) GOTO 0x01C4
  6: 0x01BC [0x03] Work_Zone[1] = 18*
  7: 0x01C1 [0x01] GOTO 0x0279
  8: 0x01C4 [0x02] IF !(Work_Zone[0] == 2*) GOTO 0x01D6
  9: 0x01CC [0x29] REQ_SET_WAIT(priority=0x0B, entity_id=DIRECTOR (ID: 17563867/0x010C00DB), tag_num=0x06)
 10: 0x01D3 [0x01] GOTO 0x0279
 11: 0x01D6 [0x02] IF !(Work_Zone[0] == 3*) GOTO 0x01ED
 12: 0x01DE [0x29] REQ_SET_WAIT(priority=0x09, entity_id=LocalPlayer, tag_num=0x1E)
 13: 0x01E5 [0x03] Work_Zone[1] = 21*
 14: 0x01EA [0x01] GOTO 0x0279
 15: 0x01ED [0x02] IF !(Work_Zone[0] == 4*) GOTO 0x0206
 16: 0x01F5 [0x29] REQ_SET_WAIT(priority=0x09, entity_id=LocalPlayer, tag_num=0x1E)
 17: 0x01FC [0x29] REQ_SET_WAIT(priority=0x09, entity_id=DIRECTOR (ID: 17563867/0x010C00DB), tag_num=0x08)
 18: 0x0203 [0x01] GOTO 0x0279
 19: 0x0206 [0x02] IF !(Work_Zone[0] == 5*) GOTO 0x021D
 20: 0x020E [0x29] REQ_SET_WAIT(priority=0x09, entity_id=LocalPlayer, tag_num=0x1E)
 21: 0x0215 [0x03] Work_Zone[1] = 22*
 22: 0x021A [0x01] GOTO 0x0279
 23: 0x021D [0x02] IF !(Work_Zone[0] == 6*) GOTO 0x0234
 24: 0x0225 [0x29] REQ_SET_WAIT(priority=0x09, entity_id=LocalPlayer, tag_num=0x1F)
 25: 0x022C [0x03] Work_Zone[1] = 23*
 26: 0x0231 [0x01] GOTO 0x0279
 27: 0x0234 [0x02] IF !(Work_Zone[0] == 7*) GOTO 0x024B
 28: 0x023C [0x29] REQ_SET_WAIT(priority=0x09, entity_id=LocalPlayer, tag_num=0x1F)
 29: 0x0243 [0x03] Work_Zone[1] = 24*
 30: 0x0248 [0x01] GOTO 0x0279
 31: 0x024B [0x02] IF !(Work_Zone[0] == 8*) GOTO 0x0262
 32: 0x0253 [0x29] REQ_SET_WAIT(priority=0x09, entity_id=LocalPlayer, tag_num=0x20)
 33: 0x025A [0x03] Work_Zone[1] = 25*
 34: 0x025F [0x01] GOTO 0x0279
 35: 0x0262 [0x02] IF !(Work_Zone[0] == 9*) GOTO 0x0279
 36: 0x026A [0x29] REQ_SET_WAIT(priority=0x09, entity_id=LocalPlayer, tag_num=0x20)
 37: 0x0271 [0x03] Work_Zone[1] = 26*
 38: 0x0276 [0x01] GOTO 0x0279

SUBROUTINE_0279:
 39: 0x0279 [0x20] SET_CLI_EVENT_UC_FLAG: Unlock player control
 40: 0x027B [0x21] END_EVENT
 41: 0x027C [0x00] END_REQSTACK()
```

### Event 65535.3

#### Metadata

| Field        | Value    |
|--------------|----------|
| Entrypoint   | 0x027D   |
| Data Size    | 97 bytes |
| Instructions | 20       |

```
      00 01 02 03 04 05 06 07  08 09 0A 0B 0C 0D 0E 0F
      -- -- -- -- -- -- -- --  -- -- -- -- -- -- -- --
0270:                                         24 18 80               $..
0280: 01 80 01 80 25 02 00 10  01 80 00 9C 02 29 09 F0  ....%........)..
0290: FF FF 7F 0E 03 01 10 0F  80 01 DA 02 02 00 10 02  ................
02A0: 80 00 B3 02 29 09 F0 FF  FF 7F 10 03 01 10 19 80  ....)...........
02B0: 01 DA 02 02 00 10 05 80  00 CA 02 29 09 F0 FF FF  ...........)....
02C0: 7F 10 03 01 10 1A 80 01  DA 02 02 00 10 03 80 00  ................
02D0: DA 02 03 01 10 1B 80 01  DA 02 20 00 21 00        .......... .!.  
```

#### Opcodes

```
  0: 0x027D [0x24] CREATE_DIALOG(message_id=7249*, default_option=0*, option_flags=0*)
    → "WELL, WELL... [OK/Z$P12m0q))=/%sj=$2$P131 [$5GET/RESET QUEST FLAGS ONLY.]"
  1: 0x0284 [0x25] WAIT_DIALOG_SELECT()
  2: 0x0285 [0x02] IF !(Work_Zone[0] == 0*) GOTO 0x029C
  3: 0x028D [0x29] REQ_SET_WAIT(priority=0x09, entity_id=LocalPlayer, tag_num=0x0E)
  4: 0x0294 [0x03] Work_Zone[1] = 12*
  5: 0x0299 [0x01] GOTO 0x02DA
  6: 0x029C [0x02] IF !(Work_Zone[0] == 1*) GOTO 0x02B3
  7: 0x02A4 [0x29] REQ_SET_WAIT(priority=0x09, entity_id=LocalPlayer, tag_num=0x10)
  8: 0x02AB [0x03] Work_Zone[1] = 13*
  9: 0x02B0 [0x01] GOTO 0x02DA
 10: 0x02B3 [0x02] IF !(Work_Zone[0] == 2*) GOTO 0x02CA
 11: 0x02BB [0x29] REQ_SET_WAIT(priority=0x09, entity_id=LocalPlayer, tag_num=0x10)
 12: 0x02C2 [0x03] Work_Zone[1] = 14*
 13: 0x02C7 [0x01] GOTO 0x02DA
 14: 0x02CA [0x02] IF !(Work_Zone[0] == 3*) GOTO 0x02DA
 15: 0x02D2 [0x03] Work_Zone[1] = 100*
 16: 0x02D7 [0x01] GOTO 0x02DA

SUBROUTINE_02DA:
 17: 0x02DA [0x20] SET_CLI_EVENT_UC_FLAG: Unlock player control
 18: 0x02DC [0x21] END_EVENT
 19: 0x02DD [0x00] END_REQSTACK()
```

### Event 65535.4

#### Metadata

| Field        | Value    |
|--------------|----------|
| Entrypoint   | 0x02DE   |
| Data Size    | 74 bytes |
| Instructions | 16       |

```
      00 01 02 03 04 05 06 07  08 09 0A 0B 0C 0D 0E 0F
      -- -- -- -- -- -- -- --  -- -- -- -- -- -- -- --
02D0:                                            24 1C                $.
02E0: 80 01 80 01 80 25 02 00  10 01 80 00 FD 02 29 09  .....%........).
02F0: F0 FF FF 7F 16 03 01 10  1D 80 01 24 03 02 00 10  ...........$....
0300: 02 80 00 14 03 29 09 F0  FF FF 7F 16 03 01 10 1E  .....)..........
0310: 80 01 24 03 02 00 10 03  80 00 24 03 03 01 10 1B  ..$.......$.....
0320: 80 01 24 03 20 00 21 00                           ..$. .!.        
```

#### Opcodes

```
  0: 0x02DE [0x24] CREATE_DIALOG(message_id=7250*, default_option=0*, option_flags=0*)
    → "WELL, WELL... [OK/DONE/RESET QUEST FLAGS ONLY.]"
  1: 0x02E5 [0x25] WAIT_DIALOG_SELECT()
  2: 0x02E6 [0x02] IF !(Work_Zone[0] == 0*) GOTO 0x02FD
  3: 0x02EE [0x29] REQ_SET_WAIT(priority=0x09, entity_id=LocalPlayer, tag_num=0x16)
  4: 0x02F5 [0x03] Work_Zone[1] = 19*
  5: 0x02FA [0x01] GOTO 0x0324
  6: 0x02FD [0x02] IF !(Work_Zone[0] == 1*) GOTO 0x0314
  7: 0x0305 [0x29] REQ_SET_WAIT(priority=0x09, entity_id=LocalPlayer, tag_num=0x16)
  8: 0x030C [0x03] Work_Zone[1] = 20*
  9: 0x0311 [0x01] GOTO 0x0324
 10: 0x0314 [0x02] IF !(Work_Zone[0] == 3*) GOTO 0x0324
 11: 0x031C [0x03] Work_Zone[1] = 100*
 12: 0x0321 [0x01] GOTO 0x0324

SUBROUTINE_0324:
 13: 0x0324 [0x20] SET_CLI_EVENT_UC_FLAG: Unlock player control
 14: 0x0326 [0x21] END_EVENT
 15: 0x0327 [0x00] END_REQSTACK()
```

### Event 3

#### Metadata

| Field        | Value    |
|--------------|----------|
| Entrypoint   | 0x0328   |
| Data Size    | 79 bytes |
| Instructions | 12       |

```
      00 01 02 03 04 05 06 07  08 09 0A 0B 0C 0D 0E 0F
      -- -- -- -- -- -- -- --  -- -- -- -- -- -- -- --
0320:                          51 DB 00 0C 01 DB 00 0C          Q.......
0330: 01 6B 62 61 73 51 DB 00  0C 01 DB 00 0C 01 6B 6B  .kbasQ........kk
0340: 69 64 51 DB 00 0C 01 DB  00 0C 01 6B 6B 61 69 2D  idQ........kkai-
0350: DB 00 0C 01 DB 00 0C 01  73 62 61 73 1C 1F 80 1D  ........sbas....
0360: 20 80 23 51 DB 00 0C 01  DB 00 0C 01 6B 62 61 73   .#Q........kbas
0370: 1C 1F 80 20 00 21 00                              ... .!.         
```

#### Opcodes

```
  0: 0x0328 [0x51] END_MAP_SCHEDULER: End scheduler "kbas" with entities [DIRECTOR (ID: 17563867/0x010C00DB), DIRECTOR (ID: 17563867/0x010C00DB)]
  1: 0x0335 [0x51] END_MAP_SCHEDULER: End scheduler "kkid" with entities [DIRECTOR (ID: 17563867/0x010C00DB), DIRECTOR (ID: 17563867/0x010C00DB)]
  2: 0x0342 [0x51] END_MAP_SCHEDULER: End scheduler "kkai" with entities [DIRECTOR (ID: 17563867/0x010C00DB), DIRECTOR (ID: 17563867/0x010C00DB)]
  3: 0x034F [0x2D] CREATE_ZONE_SCHEDULER_TASK: Create scheduler "sbas" with entities [DIRECTOR (ID: 17563867/0x010C00DB), DIRECTOR (ID: 17563867/0x010C00DB)]
  4: 0x035C [0x1C] WAIT(1200* ticks)
  5: 0x035F [0x1D] PRINT_EVENT_MESSAGE(message_id=7239*)
    → "mes3"
  6: 0x0362 [0x23] WAIT_FOR_DIALOG_INTERACTION
  7: 0x0363 [0x51] END_MAP_SCHEDULER: End scheduler "kbas" with entities [DIRECTOR (ID: 17563867/0x010C00DB), DIRECTOR (ID: 17563867/0x010C00DB)]
  8: 0x0370 [0x1C] WAIT(1200* ticks)
  9: 0x0373 [0x20] SET_CLI_EVENT_UC_FLAG: Unlock player control
 10: 0x0375 [0x21] END_EVENT
 11: 0x0376 [0x00] END_REQSTACK()
```

### Event 4

#### Metadata

| Field        | Value    |
|--------------|----------|
| Entrypoint   | 0x0377   |
| Data Size    | 75 bytes |
| Instructions | 10       |

```
      00 01 02 03 04 05 06 07  08 09 0A 0B 0C 0D 0E 0F
      -- -- -- -- -- -- -- --  -- -- -- -- -- -- -- --
0370:                      51  DB 00 0C 01 DB 00 0C 01         Q........
0380: 6B 62 61 73 51 DB 00 0C  01 DB 00 0C 01 6B 6B 69  kbasQ........kki
0390: 64 51 DB 00 0C 01 DB 00  0C 01 6B 6B 61 69 2D DB  dQ........kkai-.
03A0: 00 0C 01 DB 00 0C 01 73  6B 69 64 1C 1F 80 51 DB  .......skid...Q.
03B0: 00 0C 01 DB 00 0C 01 6B  6B 69 64 1C 1F 80 20 00  .......kkid... .
03C0: 21 00                                             !.              
```

#### Opcodes

```
  0: 0x0377 [0x51] END_MAP_SCHEDULER: End scheduler "kbas" with entities [DIRECTOR (ID: 17563867/0x010C00DB), DIRECTOR (ID: 17563867/0x010C00DB)]
  1: 0x0384 [0x51] END_MAP_SCHEDULER: End scheduler "kkid" with entities [DIRECTOR (ID: 17563867/0x010C00DB), DIRECTOR (ID: 17563867/0x010C00DB)]
  2: 0x0391 [0x51] END_MAP_SCHEDULER: End scheduler "kkai" with entities [DIRECTOR (ID: 17563867/0x010C00DB), DIRECTOR (ID: 17563867/0x010C00DB)]
  3: 0x039E [0x2D] CREATE_ZONE_SCHEDULER_TASK: Create scheduler "skid" with entities [DIRECTOR (ID: 17563867/0x010C00DB), DIRECTOR (ID: 17563867/0x010C00DB)]
  4: 0x03AB [0x1C] WAIT(1200* ticks)
  5: 0x03AE [0x51] END_MAP_SCHEDULER: End scheduler "kkid" with entities [DIRECTOR (ID: 17563867/0x010C00DB), DIRECTOR (ID: 17563867/0x010C00DB)]
  6: 0x03BB [0x1C] WAIT(1200* ticks)
  7: 0x03BE [0x20] SET_CLI_EVENT_UC_FLAG: Unlock player control
  8: 0x03C0 [0x21] END_EVENT
  9: 0x03C1 [0x00] END_REQSTACK()
```

### Event 5

#### Metadata

| Field        | Value    |
|--------------|----------|
| Entrypoint   | 0x03C2   |
| Data Size    | 88 bytes |
| Instructions | 11       |

```
      00 01 02 03 04 05 06 07  08 09 0A 0B 0C 0D 0E 0F
      -- -- -- -- -- -- -- --  -- -- -- -- -- -- -- --
03C0:       51 DB 00 0C 01 DB  00 0C 01 6B 62 61 73 51    Q........kbasQ
03D0: DB 00 0C 01 DB 00 0C 01  6B 6B 69 64 51 DB 00 0C  ........kkidQ...
03E0: 01 DB 00 0C 01 6B 6B 61  69 2D DB 00 0C 01 DB 00  .....kkai-......
03F0: 0C 01 73 6B 61 69 2D DB  00 0C 01 DB 00 0C 01 73  ..skai-........s
0400: 66 6F 67 1C 1F 80 51 DB  00 0C 01 DB 00 0C 01 6B  fog...Q........k
0410: 6B 61 69 1C 1F 80 20 00  21 00                    kai... .!.      
```

#### Opcodes

```
  0: 0x03C2 [0x51] END_MAP_SCHEDULER: End scheduler "kbas" with entities [DIRECTOR (ID: 17563867/0x010C00DB), DIRECTOR (ID: 17563867/0x010C00DB)]
  1: 0x03CF [0x51] END_MAP_SCHEDULER: End scheduler "kkid" with entities [DIRECTOR (ID: 17563867/0x010C00DB), DIRECTOR (ID: 17563867/0x010C00DB)]
  2: 0x03DC [0x51] END_MAP_SCHEDULER: End scheduler "kkai" with entities [DIRECTOR (ID: 17563867/0x010C00DB), DIRECTOR (ID: 17563867/0x010C00DB)]
  3: 0x03E9 [0x2D] CREATE_ZONE_SCHEDULER_TASK: Create scheduler "skai" with entities [DIRECTOR (ID: 17563867/0x010C00DB), DIRECTOR (ID: 17563867/0x010C00DB)]
  4: 0x03F6 [0x2D] CREATE_ZONE_SCHEDULER_TASK: Create scheduler "sfog" with entities [DIRECTOR (ID: 17563867/0x010C00DB), DIRECTOR (ID: 17563867/0x010C00DB)]
  5: 0x0403 [0x1C] WAIT(1200* ticks)
  6: 0x0406 [0x51] END_MAP_SCHEDULER: End scheduler "kkai" with entities [DIRECTOR (ID: 17563867/0x010C00DB), DIRECTOR (ID: 17563867/0x010C00DB)]
  7: 0x0413 [0x1C] WAIT(1200* ticks)
  8: 0x0416 [0x20] SET_CLI_EVENT_UC_FLAG: Unlock player control
  9: 0x0418 [0x21] END_EVENT
 10: 0x0419 [0x00] END_REQSTACK()
```
