# 0x7FFFFFF0 - Zone Events

## Common Data

| Field            | Value                          |
|------------------|--------------------------------|
| Zone             | Inner Horutoto Ruins (ID: 192) |
| Block Size       | 2348 bytes                     |
| Total Events     | 55                             |
| References Count | 173                            |

## List of Events

| Event ID                   | Entrypoint   |   Size |   Instructions |
|----------------------------|--------------|--------|----------------|
| [65535](#event-65535)      | 0x0000       |      1 |              1 |
| [65534](#event-65534)      | 0x0001       |      1 |              1 |
| [65535.1](#event-655351)   | 0x0002       |      6 |              2 |
| [65535.2](#event-655352)   | 0x0008       |      6 |              2 |
| [65535.3](#event-655353)   | 0x000E       |      6 |              2 |
| [65535.4](#event-655354)   | 0x0014       |      6 |              2 |
| [60](#event-60)            | 0x001A       |     10 |              2 |
| [61](#event-61)            | 0x0024       |     10 |              2 |
| [62](#event-62)            | 0x002E       |     10 |              2 |
| [63](#event-63)            | 0x0038       |     10 |              2 |
| [64](#event-64)            | 0x0042       |     10 |              2 |
| [65](#event-65)            | 0x004C       |     10 |              2 |
| [77](#event-77)            | 0x0056       |    468 |             47 |
| [47](#event-47)            | 0x022A       |    130 |             22 |
| [65535.5](#event-655355)   | 0x02AC       |     13 |              3 |
| [65535.6](#event-655356)   | 0x02B9       |     13 |              3 |
| [65535.7](#event-655357)   | 0x02C6       |     13 |              3 |
| [65535.8](#event-655358)   | 0x02D3       |     13 |              3 |
| [65535.9](#event-655359)   | 0x02E0       |     13 |              3 |
| [65535.10](#event-6553510) | 0x02ED       |     13 |              3 |
| [65535.11](#event-6553511) | 0x02FA       |     13 |              3 |
| [65535.12](#event-6553512) | 0x0307       |     13 |              3 |
| [65535.13](#event-6553513) | 0x0314       |     13 |              3 |
| [65535.14](#event-6553514) | 0x0321       |     13 |              3 |
| [65535.15](#event-6553515) | 0x032E       |     13 |              3 |
| [65535.16](#event-6553516) | 0x033B       |     13 |              3 |
| [65535.17](#event-6553517) | 0x0348       |     13 |              3 |
| [65535.18](#event-6553518) | 0x0355       |     13 |              3 |
| [65535.19](#event-6553519) | 0x0362       |     13 |              3 |
| [65535.20](#event-6553520) | 0x036F       |     13 |              3 |
| [65535.21](#event-6553521) | 0x037C       |     13 |              3 |
| [65535.22](#event-6553522) | 0x0389       |     13 |              3 |
| [65535.23](#event-6553523) | 0x0396       |     13 |              3 |
| [65535.24](#event-6553524) | 0x03A3       |      8 |              2 |
| [65535.25](#event-6553525) | 0x03AB       |     34 |              8 |
| [65535.26](#event-6553526) | 0x03CD       |     23 |              5 |
| [65535.27](#event-6553527) | 0x03E4       |     23 |              5 |
| [65535.28](#event-6553528) | 0x03FB       |     17 |              5 |
| [65535.29](#event-6553529) | 0x040C       |     14 |              4 |
| [65535.30](#event-6553530) | 0x041A       |     10 |              2 |
| [65535.31](#event-6553531) | 0x0424       |     36 |              4 |
| [65535.32](#event-6553532) | 0x0448       |     17 |              5 |
| [65535.33](#event-6553533) | 0x0459       |     14 |              4 |
| [65535.34](#event-6553534) | 0x0467       |    117 |             11 |
| [65535.35](#event-6553535) | 0x04DC       |     27 |              3 |
| [65535.36](#event-6553536) | 0x04F7       |     10 |              2 |
| [65535.37](#event-6553537) | 0x0501       |     14 |              4 |
| [71](#event-71)            | 0x050F       |      3 |              2 |
| [74](#event-74)            | 0x0512       |      3 |              2 |
| [65535.38](#event-6553538) | 0x0515       |     10 |              2 |
| [65535.39](#event-6553539) | 0x051F       |     10 |              2 |
| [65535.40](#event-6553540) | 0x0529       |     53 |              5 |
| [65535.41](#event-6553541) | 0x055E       |     10 |              2 |
| [65535.42](#event-6553542) | 0x0568       |     10 |              2 |
| [65535.43](#event-6553543) | 0x0572       |     24 |              6 |

## DAT References (imed_data)

|   Index | Hex Value   |   Dec Value |
|---------|-------------|-------------|
|       0 | 0x70E20     |      462368 |
|       1 | 0x186A7     |      100007 |
|       2 | 0xFFFFF63D  |  4294964797 |
|       3 | 0x0003      |           3 |
|       4 | 0x63C72     |      408690 |
|       5 | 0xEA55      |       59989 |
|       6 | 0xFFFFF830  |  4294965296 |
|       7 | 0x07F2      |        2034 |
|       8 | 0x70E4B     |      462411 |
|       9 | 0x4E2B      |       20011 |
|      10 | 0x0FD7      |        4055 |
|      11 | 0x48AB4     |      297652 |
|      12 | 0x4E34      |       20020 |
|      13 | 0x080E      |        2062 |
|      14 | 0x55C0D     |      351245 |
|      15 | 0xEA5C      |       59996 |
|      16 | 0xFFFFF831  |  4294965297 |
|      17 | 0x0FF7      |        4087 |
|      18 | 0x48B21     |      297761 |
|      19 | 0x186A6     |      100006 |
|      20 | 0xFFFFF63C  |  4294964796 |
|      21 | 0x07E8      |        2024 |
|      22 | 0x00C8      |         200 |
|      23 | 0x0000      |           0 |
|      24 | 0x0013      |          19 |
|      25 | 0xFFFC8298  |  4294738584 |
|      26 | 0x16777     |       92023 |
|      27 | 0x0563      |        1379 |
|      28 | 0xFFFC7D91  |  4294737297 |
|      29 | 0x15E50     |       89680 |
|      30 | 0x0320      |         800 |
|      31 | 0x001E      |          30 |
|      32 | 0x0026      |          38 |
|      33 | 0x018F      |         399 |
|      34 | 0x000F      |          15 |
|      35 | 0x0078      |         120 |
|      36 | 0x1CD7      |        7383 |
|      37 | 0x003C      |          60 |
|      38 | 0x0076      |         118 |
|      39 | 0x0096      |         150 |
|      40 | 0x0007      |           7 |
|      41 | 0x0001      |           1 |
|      42 | 0x008C      |         140 |
|      43 | 0xFFFC086C  |  4294707308 |
|      44 | 0xFFFF9A4B  |  4294941259 |
|      45 | 0x01F3      |         499 |
|      46 | 0x03EE      |        1006 |
|      47 | 0x0002      |           2 |
|      48 | 0x00AA      |         170 |
|      49 | 0x6693D     |      420157 |
|      50 | 0xFFFF9E6A  |  4294942314 |
|      51 | 0xFFFFFFE4  |  4294967268 |
|      52 | 0x03E6      |         998 |
|      53 | 0x70605     |      460293 |
|      54 | 0x222D3     |      139987 |
|      55 | 0xFFFFE0B2  |  4294959282 |
|      56 | 0x07F0      |        2032 |
|      57 | 0x707D0     |      460752 |
|      58 | 0x187B5     |      100277 |
|      59 | 0xFFFFF737  |  4294965047 |
|      60 | 0x0FC7      |        4039 |
|      61 | 0x6363D     |      407101 |
|      62 | 0xE51B      |       58651 |
|      63 | 0xFFFFF7B4  |  4294965172 |
|      64 | 0x06B1      |        1713 |
|      65 | 0x70F5C     |      462684 |
|      66 | 0x4E26      |       20006 |
|      67 | 0xFFFFF5C0  |  4294964672 |
|      68 | 0x0012      |          18 |
|      69 | 0x487B8     |      296888 |
|      70 | 0x4C8F      |       19599 |
|      71 | 0x0807      |        2055 |
|      72 | 0x55E09     |      351753 |
|      73 | 0xE96A      |       59754 |
|      74 | 0x0FB6      |        4022 |
|      75 | 0x491CA     |      299466 |
|      76 | 0x1863D     |       99901 |
|      77 | 0x07FF      |        2047 |
|      78 | 0xFFFFD0E3  |  4294955235 |
|      79 | 0x4E78      |       20088 |
|      80 | 0x003B      |          59 |
|      81 | 0x07EA      |        2026 |
|      82 | 0x99937     |      629047 |
|      83 | 0xFFF5E28A  |  4294304394 |
|      84 | 0xFFFFFEA1  |  4294966945 |
|      85 | 0x0B3A      |        2874 |
|      86 | 0xFFFAD31F  |  4294628127 |
|      87 | 0xBD69D     |      775837 |
|      88 | 0x0378      |         888 |
|      89 | 0x74027     |      475175 |
|      90 | 0xFFF5EB7C  |  4294306684 |
|      91 | 0x0023      |          35 |
|      92 | 0x0801      |        2049 |
|      93 | 0xFFFC83CF  |  4294738895 |
|      94 | 0x18B8D     |      101261 |
|      95 | 0x0021      |          33 |
|      96 | 0x050C      |        1292 |
|      97 | 0xFFFB6D48  |  4294667592 |
|      98 | 0x2F052     |      192594 |
|      99 | 0x0C8B      |        3211 |
|     100 | 0xFFFB8262  |  4294672994 |
|     101 | 0xD637      |       54839 |
|     102 | 0x00E6      |         230 |
|     103 | 0xFFFAEF29  |  4294635305 |
|     104 | 0x22EDB     |      143067 |
|     105 | 0x0C4F      |        3151 |
|     106 | 0xFFFC85B1  |  4294739377 |
|     107 | 0x22A3B     |      141883 |
|     108 | 0x057E      |        1406 |
|     109 | 0x66BB5     |      420789 |
|     110 | 0xFFFF80D1  |  4294934737 |
|     111 | 0x000D      |          13 |
|     112 | 0x66C15     |      420885 |
|     113 | 0xFFFF6C8E  |  4294929550 |
|     114 | 0xFFFFFFFE  |  4294967294 |
|     115 | 0x0696      |        1686 |
|     116 | 0x0032      |          50 |
|     117 | 0x0A2C      |        2604 |
|     118 | 0x66A3E     |      420414 |
|     119 | 0xFFFF49DC  |  4294920668 |
|     120 | 0x034C      |         844 |
|     121 | 0x66AA0     |      420512 |
|     122 | 0xFFFF4525  |  4294919461 |
|     123 | 0xFFFFC136  |  4294951222 |
|     124 | 0x4D63      |       19811 |
|     125 | 0x07CA      |        1994 |
|     126 | 0xFFFF9CE2  |  4294941922 |
|     127 | 0x4E8E      |       20110 |
|     128 | 0xFFFFFFCE  |  4294967246 |
|     129 | 0x1C75      |        7285 |
|     130 | 0x1C76      |        7286 |
|     131 | 0xFFFFA2E8  |  4294943464 |
|     132 | 0x49F6      |       18934 |
|     133 | 0xFFFFFFF7  |  4294967287 |
|     134 | 0xFFFAEEFF  |  4294635263 |
|     135 | 0x2372A     |      145194 |
|     136 | 0x0C2A      |        3114 |
|     137 | 0xFFFAF779  |  4294637433 |
|     138 | 0x24AC1     |      150209 |
|     139 | 0x05BF      |        1471 |
|     140 | 0xFFFAEE05  |  4294635013 |
|     141 | 0x24222     |      148002 |
|     142 | 0x09AA      |        2474 |
|     143 | 0xFFFAE9E9  |  4294633961 |
|     144 | 0x2458B     |      148875 |
|     145 | 0xFFFAF060  |  4294635616 |
|     146 | 0x246EE     |      149230 |
|     147 | 0x0827      |        2087 |
|     148 | 0x0064      |         100 |
|     149 | 0xFFFC8562  |  4294739298 |
|     150 | 0x23C33     |      146483 |
|     151 | 0x0BDC      |        3036 |
|     152 | 0xFFFC8537  |  4294739255 |
|     153 | 0x24A8C     |      150156 |
|     154 | 0x6B120     |      438560 |
|     155 | 0x2BF12     |      179986 |
|     156 | 0xFFFFE0C0  |  4294959296 |
|     157 | 0xFFFC0860  |  4294707296 |
|     158 | 0x3AD69     |      241001 |
|     159 | 0x1F3F      |        7999 |
|     160 | 0x0400      |        1024 |
|     161 | 0x00D6      |         214 |
|     162 | 0xFFFC854B  |  4294739275 |
|     163 | 0x17EAC     |       97964 |
|     164 | 0x03DB      |         987 |
|     165 | 0xFFFC8ED4  |  4294741716 |
|     166 | 0x1840E     |       99342 |
|     167 | 0x0029      |          41 |
|     168 | 0x06C2      |        1730 |
|     169 | 0xFFFC87EE  |  4294739950 |
|     170 | 0x16B60     |       93024 |
|     171 | 0xFFFC8312  |  4294738706 |
|     172 | 0x166B4     |       91828 |

## String References

- **7**: Return to the Sealed Portal? [Yes!/No!]

## Events

### Event 65535

#### Metadata

| Field        | Value   |
|--------------|---------|
| Entrypoint   | 0x0000  |
| Data Size    | 1 bytes |
| Instructions | 1       |

```
      00 01 02 03 04 05 06 07  08 09 0A 0B 0C 0D 0E 0F
      -- -- -- -- -- -- -- --  -- -- -- -- -- -- -- --
0000: 00                                                .               
```

#### Opcodes

```
  0: 0x0000 [0x00] END_REQSTACK()
```

### Event 65534

#### Metadata

| Field        | Value   |
|--------------|---------|
| Entrypoint   | 0x0001  |
| Data Size    | 1 bytes |
| Instructions | 1       |

```
      00 01 02 03 04 05 06 07  08 09 0A 0B 0C 0D 0E 0F
      -- -- -- -- -- -- -- --  -- -- -- -- -- -- -- --
0000:    00                                              .              
```

#### Opcodes

```
  0: 0x0001 [0x00] END_REQSTACK()
```

### Event 65535.1

#### Metadata

| Field        | Value   |
|--------------|---------|
| Entrypoint   | 0x0002  |
| Data Size    | 6 bytes |
| Instructions | 2       |

```
      00 01 02 03 04 05 06 07  08 09 0A 0B 0C 0D 0E 0F
      -- -- -- -- -- -- -- --  -- -- -- -- -- -- -- --
0000:       03 02 10 0B 7F 00                             ......        
```

#### Opcodes

```
  0: 0x0002 [0x03] Work_Zone[2] = (Entity->Render.Flags01 >> 25) & 1
  1: 0x0007 [0x00] END_REQSTACK()
```

### Event 65535.2

#### Metadata

| Field        | Value   |
|--------------|---------|
| Entrypoint   | 0x0008  |
| Data Size    | 6 bytes |
| Instructions | 2       |

```
      00 01 02 03 04 05 06 07  08 09 0A 0B 0C 0D 0E 0F
      -- -- -- -- -- -- -- --  -- -- -- -- -- -- -- --
0000:                          03 03 10 0B 7F 00                ......  
```

#### Opcodes

```
  0: 0x0008 [0x03] Work_Zone[3] = (Entity->Render.Flags01 >> 25) & 1
  1: 0x000D [0x00] END_REQSTACK()
```

### Event 65535.3

#### Metadata

| Field        | Value   |
|--------------|---------|
| Entrypoint   | 0x000E  |
| Data Size    | 6 bytes |
| Instructions | 2       |

```
      00 01 02 03 04 05 06 07  08 09 0A 0B 0C 0D 0E 0F
      -- -- -- -- -- -- -- --  -- -- -- -- -- -- -- --
0000:                                            03 09                ..
0010: 10 0B 7F 00                                       ....            
```

#### Opcodes

```
  0: 0x000E [0x03] Work_Zone[9] = (Entity->Render.Flags01 >> 25) & 1
  1: 0x0013 [0x00] END_REQSTACK()
```

### Event 65535.4

#### Metadata

| Field        | Value   |
|--------------|---------|
| Entrypoint   | 0x0014  |
| Data Size    | 6 bytes |
| Instructions | 2       |

```
      00 01 02 03 04 05 06 07  08 09 0A 0B 0C 0D 0E 0F
      -- -- -- -- -- -- -- --  -- -- -- -- -- -- -- --
0010:             03 09 10 07  7F 00                        ......      
```

#### Opcodes

```
  0: 0x0014 [0x03] Work_Zone[9] = Entity->Race
  1: 0x0019 [0x00] END_REQSTACK()
```

### Event 60

#### Metadata

| Field        | Value    |
|--------------|----------|
| Entrypoint   | 0x001A   |
| Data Size    | 10 bytes |
| Instructions | 2        |

```
      00 01 02 03 04 05 06 07  08 09 0A 0B 0C 0D 0E 0F
      -- -- -- -- -- -- -- --  -- -- -- -- -- -- -- --
0010:                                37 00 80 01 80 02            7.....
0020: 80 03 80 00                                       ....            
```

#### Opcodes

```
  0: 0x001A [0x37] UPDATE_EVENT_POSITION_AND_DIR: x=462.368*, z=100.007*, y=-2.499*, direction=0.3°*
  1: 0x0023 [0x00] END_REQSTACK()
```

### Event 61

#### Metadata

| Field        | Value    |
|--------------|----------|
| Entrypoint   | 0x0024   |
| Data Size    | 10 bytes |
| Instructions | 2        |

```
      00 01 02 03 04 05 06 07  08 09 0A 0B 0C 0D 0E 0F
      -- -- -- -- -- -- -- --  -- -- -- -- -- -- -- --
0020:             37 04 80 05  80 06 80 07 80 00            7.........  
```

#### Opcodes

```
  0: 0x0024 [0x37] UPDATE_EVENT_POSITION_AND_DIR: x=408.690*, z=59.989*, y=-2.000*, direction=178.8°*
  1: 0x002D [0x00] END_REQSTACK()
```

### Event 62

#### Metadata

| Field        | Value    |
|--------------|----------|
| Entrypoint   | 0x002E   |
| Data Size    | 10 bytes |
| Instructions | 2        |

```
      00 01 02 03 04 05 06 07  08 09 0A 0B 0C 0D 0E 0F
      -- -- -- -- -- -- -- --  -- -- -- -- -- -- -- --
0020:                                            37 08                7.
0030: 80 09 80 02 80 0A 80 00                           ........        
```

#### Opcodes

```
  0: 0x002E [0x37] UPDATE_EVENT_POSITION_AND_DIR: x=462.411*, z=20.011*, y=-2.499*, direction=356.4°*
  1: 0x0037 [0x00] END_REQSTACK()
```

### Event 63

#### Metadata

| Field        | Value    |
|--------------|----------|
| Entrypoint   | 0x0038   |
| Data Size    | 10 bytes |
| Instructions | 2        |

```
      00 01 02 03 04 05 06 07  08 09 0A 0B 0C 0D 0E 0F
      -- -- -- -- -- -- -- --  -- -- -- -- -- -- -- --
0030:                          37 0B 80 0C 80 02 80 0D          7.......
0040: 80 00                                             ..              
```

#### Opcodes

```
  0: 0x0038 [0x37] UPDATE_EVENT_POSITION_AND_DIR: x=297.652*, z=20.020*, y=-2.499*, direction=181.2°*
  1: 0x0041 [0x00] END_REQSTACK()
```

### Event 64

#### Metadata

| Field        | Value    |
|--------------|----------|
| Entrypoint   | 0x0042   |
| Data Size    | 10 bytes |
| Instructions | 2        |

```
      00 01 02 03 04 05 06 07  08 09 0A 0B 0C 0D 0E 0F
      -- -- -- -- -- -- -- --  -- -- -- -- -- -- -- --
0040:       37 0E 80 0F 80 10  80 11 80 00                7.........    
```

#### Opcodes

```
  0: 0x0042 [0x37] UPDATE_EVENT_POSITION_AND_DIR: x=351.245*, z=59.996*, y=-1.999*, direction=359.2°*
  1: 0x004B [0x00] END_REQSTACK()
```

### Event 65

#### Metadata

| Field        | Value    |
|--------------|----------|
| Entrypoint   | 0x004C   |
| Data Size    | 10 bytes |
| Instructions | 2        |

```
      00 01 02 03 04 05 06 07  08 09 0A 0B 0C 0D 0E 0F
      -- -- -- -- -- -- -- --  -- -- -- -- -- -- -- --
0040:                                      37 12 80 13              7...
0050: 80 14 80 15 80 00                                 ......          
```

#### Opcodes

```
  0: 0x004C [0x37] UPDATE_EVENT_POSITION_AND_DIR: x=297.761*, z=100.006*, y=-2.500*, direction=177.9°*
  1: 0x0055 [0x00] END_REQSTACK()
```

### Event 77

#### Metadata

| Field        | Value     |
|--------------|-----------|
| Entrypoint   | 0x0056    |
| Data Size    | 468 bytes |
| Instructions | 47        |

```
      00 01 02 03 04 05 06 07  08 09 0A 0B 0C 0D 0E 0F
      -- -- -- -- -- -- -- --  -- -- -- -- -- -- -- --
0050:                   42 45  16 80 F8 FF FF 7F F8 FF        BE........
0060: FF 7F 66 64 6F 31 17 80  55 16 80 F8 FF FF 7F F8  ..fdo1..U.......
0070: FF FF 7F 66 64 6F 31 46  01 38 18 80 2F 00 12 01  ...fdo1F.8../...
0080: 0C 01 4E 00 12 01 0C 01  BA F0 FF FF 7F 19 80 1A  ..N.............
0090: 80 17 80 1B 80 BA 12 01  0C 01 1C 80 1D 80 17 80  ................
00A0: 1B 80 59 05 13 01 0C 01  01 BA 13 01 0C 01 1C 80  ..Y.............
00B0: 1D 80 1E 80 1B 80 80 F0  FF FF 7F 80 12 01 0C 01  ................
00C0: 80 13 01 0C 01 92 01 12  01 0C 01 4A F0 FF FF 7F  ...........J....
00D0: 12 01 0C 01 1C 1F 80 9F  20 80 12 01 0C 01 12 01  ........ .......
00E0: 0C 01 6D 61 69 6E 17 80  45 21 80 F8 FF FF 7F F8  ..main..E!......
00F0: FF FF 7F 73 31 32 39 17  80 1C 22 80 45 16 80 F8  ...s129...".E...
0100: FF FF 7F F8 FF FF 7F 66  64 69 31 17 80 55 16 80  .......fdi1..U..
0110: F8 FF FF 7F F8 FF FF 7F  66 64 69 31 1C 23 80 52  ........fdi1.#.R
0120: 21 80 F8 FF FF 7F F8 FF  FF 7F 73 31 32 39 45 21  !.........s129E!
0130: 80 F8 FF FF 7F F8 FF FF  7F 73 31 33 30 17 80 4A  .........s130..J
0140: 12 01 0C 01 F0 FF FF 7F  1C 1F 80 2B 12 01 0C 01  ...........+....
0150: 24 80 23 52 21 80 F8 FF  FF 7F F8 FF FF 7F 73 31  $.#R!.........s1
0160: 33 30 45 21 80 F8 FF FF  7F F8 FF FF 7F 73 31 33  30E!.........s13
0170: 31 17 80 9F 20 80 12 01  0C 01 12 01 0C 01 73 74  1... .........st
0180: 6F 70 17 80 6C 12 01 0C  01 17 80 23 80 1C 25 80  op..l......#..%.
0190: 52 21 80 F8 FF FF 7F F8  FF FF 7F 73 31 33 31 45  R!.........s131E
01A0: 21 80 F8 FF FF 7F F8 FF  FF 7F 73 31 37 30 17 80  !.........s170..
01B0: C5 26 80 13 01 0C 01 13  01 0C 01 73 30 30 30 17  .&.........s000.
01C0: 80 45 21 80 F8 FF FF 7F  F8 FF FF 7F 6F 62 61 30  .E!.........oba0
01D0: 17 80 1C 27 80 45 16 80  F8 FF FF 7F F8 FF FF 7F  ...'.E..........
01E0: 66 64 6F 31 17 80 55 16  80 F8 FF FF 7F F8 FF FF  fdo1..U.........
01F0: 7F 66 64 6F 31 52 21 80  F8 FF FF 7F F8 FF FF 7F  .fdo1R!.........
0200: 73 31 37 30 C5 26 80 13  01 0C 01 13 01 0C 01 6B  s170.&.........k
0210: 69 6C 6C 17 80 46 00 45  16 80 F0 FF FF 7F F0 FF  ill..F.E........
0220: FF 7F 66 64 69 32 17 80  21 00                    ..fdi2..!.      
```

#### Opcodes

```
  0: 0x0056 [0x42] SET_CLI_EVENT_CANCEL_DATA()
  1: 0x0057 [0x45] LOAD_SCHEDULED_TASK: Load scheduler "fdo1" with entities [EventEntity, EventEntity], work=[200*, 0*]
  2: 0x0068 [0x55] WAIT_LOAD_SCHEDULER: Wait for scheduler "fdo1" with entities [EventEntity, EventEntity], work=200*
  3: 0x0077 [0x46] CAMERA_CONTROL: Disable user control
  4: 0x0079 [0x38] SET_CLIENT_EVENT_MODE(mode=19*)
  5: 0x007C [0x2F] ??? (ID: 17563922/0x010C0112)->Render.Flags0 &= ~0x80000 // Bit 19
  6: 0x0082 [0x4E] SET_ENTITY_HIDE_FLAG: Show ??? (ID: 17563922/0x010C0112)
  7: 0x0088 [0xBA] SET_ENTITY_POSITION(entity_id=LocalPlayer, pos_x=-228.712*, pos_z=92.023*, pos_y=0.000*, direction=121.2°*)
  8: 0x0095 [0xBA] SET_ENTITY_POSITION(entity_id=??? (ID: 17563922/0x010C0112), pos_x=-229.999*, pos_z=89.680*, pos_y=0.000*, direction=121.2°*)
  9: 0x00A2 [0x59] UPDATE_ENTITY_DATA: Unnamed NPC (ID: 17563923/0x010C0113)->Render.Flags0 |= 0x200000
 10: 0x00A9 [0xBA] SET_ENTITY_POSITION(entity_id=Unnamed NPC (ID: 17563923/0x010C0113), pos_x=-229.999*, pos_z=89.680*, pos_y=0.800*, direction=121.2°*)
 11: 0x00B6 [0x80] LOAD_WAIT(entity=LocalPlayer)
 12: 0x00BB [0x80] LOAD_WAIT(entity=??? (ID: 17563922/0x010C0112))
 13: 0x00C0 [0x80] LOAD_WAIT(entity=Unnamed NPC (ID: 17563923/0x010C0113))
 14: 0x00C5 [0x92] ??? (ID: 17563922/0x010C0112)->Render.Flags3 ^= 0x01
 15: 0x00CB [0x4A] LocalPlayer looks at ??? (ID: 17563922/0x010C0112)
 16: 0x00D4 [0x1C] WAIT(30* ticks)
 17: 0x00D7 [0x9F] LOAD_SCHEDULED_TASK_ALT: Load scheduler "main" with entities [??? (ID: 17563922/0x010C0112), ??? (ID: 17563922/0x010C0112)], work=[38*, 0*]
 18: 0x00E8 [0x45] LOAD_SCHEDULED_TASK: Load scheduler "s129" with entities [EventEntity, EventEntity], work=[399*, 0*]
 19: 0x00F9 [0x1C] WAIT(15* ticks)
 20: 0x00FC [0x45] LOAD_SCHEDULED_TASK: Load scheduler "fdi1" with entities [EventEntity, EventEntity], work=[200*, 0*]
 21: 0x010D [0x55] WAIT_LOAD_SCHEDULER: Wait for scheduler "fdi1" with entities [EventEntity, EventEntity], work=200*
 22: 0x011C [0x1C] WAIT(120* ticks)
 23: 0x011F [0x52] END_LOAD_SCHEDULER: End scheduler "s129" with entities [EventEntity, EventEntity], work=399*
 24: 0x012E [0x45] LOAD_SCHEDULED_TASK: Load scheduler "s130" with entities [EventEntity, EventEntity], work=[399*, 0*]
 25: 0x013F [0x4A] ??? (ID: 17563922/0x010C0112) looks at LocalPlayer
 26: 0x0148 [0x1C] WAIT(30* ticks)
 27: 0x014B [0x2B] ??? (ID: 17563922/0x010C0112) [7383*]:
    → "..."
 28: 0x0152 [0x23] WAIT_FOR_DIALOG_INTERACTION
 29: 0x0153 [0x52] END_LOAD_SCHEDULER: End scheduler "s130" with entities [EventEntity, EventEntity], work=399*
 30: 0x0162 [0x45] LOAD_SCHEDULED_TASK: Load scheduler "s131" with entities [EventEntity, EventEntity], work=[399*, 0*]
 31: 0x0173 [0x9F] LOAD_SCHEDULED_TASK_ALT: Load scheduler "stop" with entities [??? (ID: 17563922/0x010C0112), ??? (ID: 17563922/0x010C0112)], work=[38*, 0*]
 32: 0x0184 [0x6C] FADE_ENTITY_COLOR(entity_id=??? (ID: 17563922/0x010C0112), end_alpha=0*, fade_time=120*)
 33: 0x018D [0x1C] WAIT(60* ticks)
 34: 0x0190 [0x52] END_LOAD_SCHEDULER: End scheduler "s131" with entities [EventEntity, EventEntity], work=399*
 35: 0x019F [0x45] LOAD_SCHEDULED_TASK: Load scheduler "s170" with entities [EventEntity, EventEntity], work=[399*, 0*]
 36: 0x01B0 [0xC5] LOAD_SCHEDULED_TASK_ALT3: Load scheduler 0x80173030 for entities [Unnamed NPC (ID: 17563923/0x010C0113), Unnamed NPC (ID: 17563923/0x010C0113)], work=118*, param=12403
 37: 0x01C1 [0x45] LOAD_SCHEDULED_TASK: Load scheduler "oba0" with entities [EventEntity, EventEntity], work=[399*, 0*]
 38: 0x01D2 [0x1C] WAIT(150* ticks)
 39: 0x01D5 [0x45] LOAD_SCHEDULED_TASK: Load scheduler "fdo1" with entities [EventEntity, EventEntity], work=[200*, 0*]
 40: 0x01E6 [0x55] WAIT_LOAD_SCHEDULER: Wait for scheduler "fdo1" with entities [EventEntity, EventEntity], work=200*
 41: 0x01F5 [0x52] END_LOAD_SCHEDULER: End scheduler "s170" with entities [EventEntity, EventEntity], work=399*
 42: 0x0204 [0xC5] LOAD_SCHEDULED_TASK_ALT3: Load scheduler 0x80176C6C for entities [Unnamed NPC (ID: 17563923/0x010C0113), Unnamed NPC (ID: 17563923/0x010C0113)], work=118*, param=26987
 43: 0x0215 [0x46] CAMERA_CONTROL: Restore default settings
 44: 0x0217 [0x45] LOAD_SCHEDULED_TASK: Load scheduler "fdi2" with entities [LocalPlayer, LocalPlayer], work=[200*, 0*]
 45: 0x0228 [0x21] END_EVENT
 46: 0x0229 [0x00] END_REQSTACK()
```

### Event 47

#### Metadata

| Field        | Value     |
|--------------|-----------|
| Entrypoint   | 0x022A    |
| Data Size    | 130 bytes |
| Instructions | 22        |

```
      00 01 02 03 04 05 06 07  08 09 0A 0B 0C 0D 0E 0F
      -- -- -- -- -- -- -- --  -- -- -- -- -- -- -- --
0220:                                20 01 24 28 80 29             .$(.)
0230: 80 17 80 25 02 00 10 17  80 00 9F 02 42 43 00 43  ...%........BC.C
0240: 01 62 29 80 F0 FF FF 7F  F0 FF FF 7F 6D 61 69 6E  .b).........main
0250: 17 80 1C 2A 80 45 16 80  F0 FF FF 7F F0 FF FF 7F  ...*.E..........
0260: 66 64 6F 31 17 80 1C 25  80 47 00 2B 80 2C 80 2D  fdo1...%.G.+.,.-
0270: 80 2E 80 47 01 45 16 80  F0 FF FF 7F F0 FF FF 7F  ...G.E..........
0280: 66 64 69 31 17 80 62 2F  80 F0 FF FF 7F F0 FF FF  fdi1..b/........
0290: 7F 6D 61 69 6E 17 80 1C  30 80 20 00 01 AA 02 02  .main...0. .....
02A0: 00 10 29 80 00 AA 02 01  AA 02 21 00              ..).......!.    
```

#### Opcodes

```
  0: 0x022A [0x20] SET_CLI_EVENT_UC_FLAG: Lock player control
  1: 0x022C [0x24] CREATE_DIALOG(message_id=7*, default_option=1*, option_flags=0*)
    → "Return to the Sealed Portal? [Yes!/No!]"
  2: 0x0233 [0x25] WAIT_DIALOG_SELECT()
  3: 0x0234 [0x02] IF !(Work_Zone[0] == 0*) GOTO 0x029F
  4: 0x023C [0x42] SET_CLI_EVENT_CANCEL_DATA()
  5: 0x023D [0x43] SEND_EVENT_UPDATE: Send pending tag to server (packet 0x005B)
  6: 0x023F [0x43] SEND_EVENT_UPDATE: Check pending flag (skip if not pending)
  7: 0x0241 [0x62] LOAD_EVENT_SCHEDULER: Load scheduler "main" with entities [LocalPlayer, LocalPlayer], work=[1*, 0*]
  8: 0x0252 [0x1C] WAIT(140* ticks)
  9: 0x0255 [0x45] LOAD_SCHEDULED_TASK: Load scheduler "fdo1" with entities [LocalPlayer, LocalPlayer], work=[200*, 0*]
 10: 0x0266 [0x1C] WAIT(60* ticks)
 11: 0x0269 [0x47] UPDATE_PLAYER_POS(-259.988*, -26.037*, 0.499*, yaw=88.4°*)
 12: 0x0273 [0x47] WAIT_PLAYER_POS_UPDATE
 13: 0x0275 [0x45] LOAD_SCHEDULED_TASK: Load scheduler "fdi1" with entities [LocalPlayer, LocalPlayer], work=[200*, 0*]
 14: 0x0286 [0x62] LOAD_EVENT_SCHEDULER: Load scheduler "main" with entities [LocalPlayer, LocalPlayer], work=[2*, 0*]
 15: 0x0297 [0x1C] WAIT(170* ticks)
 16: 0x029A [0x20] SET_CLI_EVENT_UC_FLAG: Unlock player control
 17: 0x029C [0x01] GOTO 0x02AA
 18: 0x029F [0x02] IF !(Work_Zone[0] == 1*) GOTO 0x02AA
 19: 0x02A7 [0x01] GOTO 0x02AA

SUBROUTINE_02AA:
 20: 0x02AA [0x21] END_EVENT
 21: 0x02AB [0x00] END_REQSTACK()
```

### Event 65535.5

#### Metadata

| Field        | Value    |
|--------------|----------|
| Entrypoint   | 0x02AC   |
| Data Size    | 13 bytes |
| Instructions | 3        |

```
      00 01 02 03 04 05 06 07  08 09 0A 0B 0C 0D 0E 0F
      -- -- -- -- -- -- -- --  -- -- -- -- -- -- -- --
02A0:                                      47 00 31 80              G.1.
02B0: 32 80 33 80 34 80 47 01  00                       2.3.4.G..       
```

#### Opcodes

```
  0: 0x02AC [0x47] UPDATE_PLAYER_POS(420.157*, -24.982*, -0.028*, yaw=87.7°*)
  1: 0x02B6 [0x47] WAIT_PLAYER_POS_UPDATE
  2: 0x02B8 [0x00] END_REQSTACK()
```

### Event 65535.6

#### Metadata

| Field        | Value    |
|--------------|----------|
| Entrypoint   | 0x02B9   |
| Data Size    | 13 bytes |
| Instructions | 3        |

```
      00 01 02 03 04 05 06 07  08 09 0A 0B 0C 0D 0E 0F
      -- -- -- -- -- -- -- --  -- -- -- -- -- -- -- --
02B0:                             47 00 35 80 36 80 37           G.5.6.7
02C0: 80 38 80 47 01 00                                 .8.G..          
```

#### Opcodes

```
  0: 0x02B9 [0x47] UPDATE_PLAYER_POS(460.293*, 139.987*, -8.014*, yaw=178.6°*)
  1: 0x02C3 [0x47] WAIT_PLAYER_POS_UPDATE
  2: 0x02C5 [0x00] END_REQSTACK()
```

### Event 65535.7

#### Metadata

| Field        | Value    |
|--------------|----------|
| Entrypoint   | 0x02C6   |
| Data Size    | 13 bytes |
| Instructions | 3        |

```
      00 01 02 03 04 05 06 07  08 09 0A 0B 0C 0D 0E 0F
      -- -- -- -- -- -- -- --  -- -- -- -- -- -- -- --
02C0:                   47 00  39 80 3A 80 3B 80 3C 80        G.9.:.;.<.
02D0: 47 01 00                                          G..             
```

#### Opcodes

```
  0: 0x02C6 [0x47] UPDATE_PLAYER_POS(460.752*, 100.277*, -2.249*, yaw=355.0°*)
  1: 0x02D0 [0x47] WAIT_PLAYER_POS_UPDATE
  2: 0x02D2 [0x00] END_REQSTACK()
```

### Event 65535.8

#### Metadata

| Field        | Value    |
|--------------|----------|
| Entrypoint   | 0x02D3   |
| Data Size    | 13 bytes |
| Instructions | 3        |

```
      00 01 02 03 04 05 06 07  08 09 0A 0B 0C 0D 0E 0F
      -- -- -- -- -- -- -- --  -- -- -- -- -- -- -- --
02D0:          47 00 3D 80 3E  80 3F 80 40 80 47 01 00     G.=.>.?.@.G..
```

#### Opcodes

```
  0: 0x02D3 [0x47] UPDATE_PLAYER_POS(407.101*, 58.651*, -2.124*, yaw=150.6°*)
  1: 0x02DD [0x47] WAIT_PLAYER_POS_UPDATE
  2: 0x02DF [0x00] END_REQSTACK()
```

### Event 65535.9

#### Metadata

| Field        | Value    |
|--------------|----------|
| Entrypoint   | 0x02E0   |
| Data Size    | 13 bytes |
| Instructions | 3        |

```
      00 01 02 03 04 05 06 07  08 09 0A 0B 0C 0D 0E 0F
      -- -- -- -- -- -- -- --  -- -- -- -- -- -- -- --
02E0: 47 00 41 80 42 80 43 80  44 80 47 01 00           G.A.B.C.D.G..   
```

#### Opcodes

```
  0: 0x02E0 [0x47] UPDATE_PLAYER_POS(462.684*, 20.006*, -2.624*, yaw=1.6°*)
  1: 0x02EA [0x47] WAIT_PLAYER_POS_UPDATE
  2: 0x02EC [0x00] END_REQSTACK()
```

### Event 65535.10

#### Metadata

| Field        | Value    |
|--------------|----------|
| Entrypoint   | 0x02ED   |
| Data Size    | 13 bytes |
| Instructions | 3        |

```
      00 01 02 03 04 05 06 07  08 09 0A 0B 0C 0D 0E 0F
      -- -- -- -- -- -- -- --  -- -- -- -- -- -- -- --
02E0:                                         47 00 45               G.E
02F0: 80 46 80 43 80 47 80 47  01 00                    .F.C.G.G..      
```

#### Opcodes

```
  0: 0x02ED [0x47] UPDATE_PLAYER_POS(296.888*, 19.599*, -2.624*, yaw=180.6°*)
  1: 0x02F7 [0x47] WAIT_PLAYER_POS_UPDATE
  2: 0x02F9 [0x00] END_REQSTACK()
```

### Event 65535.11

#### Metadata

| Field        | Value    |
|--------------|----------|
| Entrypoint   | 0x02FA   |
| Data Size    | 13 bytes |
| Instructions | 3        |

```
      00 01 02 03 04 05 06 07  08 09 0A 0B 0C 0D 0E 0F
      -- -- -- -- -- -- -- --  -- -- -- -- -- -- -- --
02F0:                                47 00 48 80 49 80            G.H.I.
0300: 3F 80 4A 80 47 01 00                              ?.J.G..         
```

#### Opcodes

```
  0: 0x02FA [0x47] UPDATE_PLAYER_POS(351.753*, 59.754*, -2.124*, yaw=353.5°*)
  1: 0x0304 [0x47] WAIT_PLAYER_POS_UPDATE
  2: 0x0306 [0x00] END_REQSTACK()
```

### Event 65535.12

#### Metadata

| Field        | Value    |
|--------------|----------|
| Entrypoint   | 0x0307   |
| Data Size    | 13 bytes |
| Instructions | 3        |

```
      00 01 02 03 04 05 06 07  08 09 0A 0B 0C 0D 0E 0F
      -- -- -- -- -- -- -- --  -- -- -- -- -- -- -- --
0300:                      47  00 4B 80 4C 80 3B 80 4D         G.K.L.;.M
0310: 80 47 01 00                                       .G..            
```

#### Opcodes

```
  0: 0x0307 [0x47] UPDATE_PLAYER_POS(299.466*, 99.901*, -2.249*, yaw=179.9°*)
  1: 0x0311 [0x47] WAIT_PLAYER_POS_UPDATE
  2: 0x0313 [0x00] END_REQSTACK()
```

### Event 65535.13

#### Metadata

| Field        | Value    |
|--------------|----------|
| Entrypoint   | 0x0314   |
| Data Size    | 13 bytes |
| Instructions | 3        |

```
      00 01 02 03 04 05 06 07  08 09 0A 0B 0C 0D 0E 0F
      -- -- -- -- -- -- -- --  -- -- -- -- -- -- -- --
0310:             47 00 4E 80  4F 80 50 80 51 80 47 01      G.N.O.P.Q.G.
0320: 00                                                .               
```

#### Opcodes

```
  0: 0x0314 [0x47] UPDATE_PLAYER_POS(-12.061*, 20.088*, 0.059*, yaw=178.1°*)
  1: 0x031E [0x47] WAIT_PLAYER_POS_UPDATE
  2: 0x0320 [0x00] END_REQSTACK()
```

### Event 65535.14

#### Metadata

| Field        | Value    |
|--------------|----------|
| Entrypoint   | 0x0321   |
| Data Size    | 13 bytes |
| Instructions | 3        |

```
      00 01 02 03 04 05 06 07  08 09 0A 0B 0C 0D 0E 0F
      -- -- -- -- -- -- -- --  -- -- -- -- -- -- -- --
0320:    47 00 52 80 53 80 54  80 55 80 47 01 00         G.R.S.T.U.G..  
```

#### Opcodes

```
  0: 0x0321 [0x47] UPDATE_PLAYER_POS(629.047*, -662.902*, -0.351*, yaw=252.6°*)
  1: 0x032B [0x47] WAIT_PLAYER_POS_UPDATE
  2: 0x032D [0x00] END_REQSTACK()
```

### Event 65535.15

#### Metadata

| Field        | Value    |
|--------------|----------|
| Entrypoint   | 0x032E   |
| Data Size    | 13 bytes |
| Instructions | 3        |

```
      00 01 02 03 04 05 06 07  08 09 0A 0B 0C 0D 0E 0F
      -- -- -- -- -- -- -- --  -- -- -- -- -- -- -- --
0320:                                            47 00                G.
0330: 56 80 57 80 17 80 58 80  47 01 00                 V.W...X.G..     
```

#### Opcodes

```
  0: 0x032E [0x47] UPDATE_PLAYER_POS(-339.169*, 775.837*, 0.000*, yaw=78.0°*)
  1: 0x0338 [0x47] WAIT_PLAYER_POS_UPDATE
  2: 0x033A [0x00] END_REQSTACK()
```

### Event 65535.16

#### Metadata

| Field        | Value    |
|--------------|----------|
| Entrypoint   | 0x033B   |
| Data Size    | 13 bytes |
| Instructions | 3        |

```
      00 01 02 03 04 05 06 07  08 09 0A 0B 0C 0D 0E 0F
      -- -- -- -- -- -- -- --  -- -- -- -- -- -- -- --
0330:                                   47 00 56 80 57             G.V.W
0340: 80 17 80 58 80 47 01 00                           ...X.G..        
```

#### Opcodes

```
  0: 0x033B [0x47] UPDATE_PLAYER_POS(-339.169*, 775.837*, 0.000*, yaw=78.0°*)
  1: 0x0345 [0x47] WAIT_PLAYER_POS_UPDATE
  2: 0x0347 [0x00] END_REQSTACK()
```

### Event 65535.17

#### Metadata

| Field        | Value    |
|--------------|----------|
| Entrypoint   | 0x0348   |
| Data Size    | 13 bytes |
| Instructions | 3        |

```
      00 01 02 03 04 05 06 07  08 09 0A 0B 0C 0D 0E 0F
      -- -- -- -- -- -- -- --  -- -- -- -- -- -- -- --
0340:                          47 00 59 80 5A 80 5B 80          G.Y.Z.[.
0350: 5C 80 47 01 00                                    \.G..           
```

#### Opcodes

```
  0: 0x0348 [0x47] UPDATE_PLAYER_POS(475.175*, -660.612*, 0.035*, yaw=180.1°*)
  1: 0x0352 [0x47] WAIT_PLAYER_POS_UPDATE
  2: 0x0354 [0x00] END_REQSTACK()
```

### Event 65535.18

#### Metadata

| Field        | Value    |
|--------------|----------|
| Entrypoint   | 0x0355   |
| Data Size    | 13 bytes |
| Instructions | 3        |

```
      00 01 02 03 04 05 06 07  08 09 0A 0B 0C 0D 0E 0F
      -- -- -- -- -- -- -- --  -- -- -- -- -- -- -- --
0350:                47 00 56  80 57 80 17 80 58 80 47       G.V.W...X.G
0360: 01 00                                             ..              
```

#### Opcodes

```
  0: 0x0355 [0x47] UPDATE_PLAYER_POS(-339.169*, 775.837*, 0.000*, yaw=78.0°*)
  1: 0x035F [0x47] WAIT_PLAYER_POS_UPDATE
  2: 0x0361 [0x00] END_REQSTACK()
```

### Event 65535.19

#### Metadata

| Field        | Value    |
|--------------|----------|
| Entrypoint   | 0x0362   |
| Data Size    | 13 bytes |
| Instructions | 3        |

```
      00 01 02 03 04 05 06 07  08 09 0A 0B 0C 0D 0E 0F
      -- -- -- -- -- -- -- --  -- -- -- -- -- -- -- --
0360:       47 00 5D 80 5E 80  5F 80 60 80 47 01 00       G.].^._.`.G.. 
```

#### Opcodes

```
  0: 0x0362 [0x47] UPDATE_PLAYER_POS(-228.401*, 101.261*, 0.033*, yaw=113.6°*)
  1: 0x036C [0x47] WAIT_PLAYER_POS_UPDATE
  2: 0x036E [0x00] END_REQSTACK()
```

### Event 65535.20

#### Metadata

| Field        | Value    |
|--------------|----------|
| Entrypoint   | 0x036F   |
| Data Size    | 13 bytes |
| Instructions | 3        |

```
      00 01 02 03 04 05 06 07  08 09 0A 0B 0C 0D 0E 0F
      -- -- -- -- -- -- -- --  -- -- -- -- -- -- -- --
0360:                                               47                 G
0370: 00 61 80 62 80 17 80 63  80 47 01 00              .a.b...c.G..    
```

#### Opcodes

```
  0: 0x036F [0x47] UPDATE_PLAYER_POS(-299.704*, 192.594*, 0.000*, yaw=282.2°*)
  1: 0x0379 [0x47] WAIT_PLAYER_POS_UPDATE
  2: 0x037B [0x00] END_REQSTACK()
```

### Event 65535.21

#### Metadata

| Field        | Value    |
|--------------|----------|
| Entrypoint   | 0x037C   |
| Data Size    | 13 bytes |
| Instructions | 3        |

```
      00 01 02 03 04 05 06 07  08 09 0A 0B 0C 0D 0E 0F
      -- -- -- -- -- -- -- --  -- -- -- -- -- -- -- --
0370:                                      47 00 64 80              G.d.
0380: 65 80 17 80 66 80 47 01  00                       e...f.G..       
```

#### Opcodes

```
  0: 0x037C [0x47] UPDATE_PLAYER_POS(-294.302*, 54.839*, 0.000*, yaw=20.2°*)
  1: 0x0386 [0x47] WAIT_PLAYER_POS_UPDATE
  2: 0x0388 [0x00] END_REQSTACK()
```

### Event 65535.22

#### Metadata

| Field        | Value    |
|--------------|----------|
| Entrypoint   | 0x0389   |
| Data Size    | 13 bytes |
| Instructions | 3        |

```
      00 01 02 03 04 05 06 07  08 09 0A 0B 0C 0D 0E 0F
      -- -- -- -- -- -- -- --  -- -- -- -- -- -- -- --
0380:                             47 00 67 80 68 80 17           G.g.h..
0390: 80 69 80 47 01 00                                 .i.G..          
```

#### Opcodes

```
  0: 0x0389 [0x47] UPDATE_PLAYER_POS(-331.991*, 143.067*, 0.000*, yaw=276.9°*)
  1: 0x0393 [0x47] WAIT_PLAYER_POS_UPDATE
  2: 0x0395 [0x00] END_REQSTACK()
```

### Event 65535.23

#### Metadata

| Field        | Value    |
|--------------|----------|
| Entrypoint   | 0x0396   |
| Data Size    | 13 bytes |
| Instructions | 3        |

```
      00 01 02 03 04 05 06 07  08 09 0A 0B 0C 0D 0E 0F
      -- -- -- -- -- -- -- --  -- -- -- -- -- -- -- --
0390:                   47 00  6A 80 6B 80 17 80 6C 80        G.j.k...l.
03A0: 47 01 00                                          G..             
```

#### Opcodes

```
  0: 0x0396 [0x47] UPDATE_PLAYER_POS(-227.919*, 141.883*, 0.000*, yaw=123.6°*)
  1: 0x03A0 [0x47] WAIT_PLAYER_POS_UPDATE
  2: 0x03A2 [0x00] END_REQSTACK()
```

### Event 65535.24

#### Metadata

| Field        | Value   |
|--------------|---------|
| Entrypoint   | 0x03A3  |
| Data Size    | 8 bytes |
| Instructions | 2       |

```
      00 01 02 03 04 05 06 07  08 09 0A 0B 0C 0D 0E 0F
      -- -- -- -- -- -- -- --  -- -- -- -- -- -- -- --
03A0:          36 6D 80 6E 80  17 80 00                    6m.n....     
```

#### Opcodes

```
  0: 0x03A3 [0x36] SET_ENTITY_EVENT_POSITION(pos_x=420.789*, pos_z=-32.559*, pos_y=0.000*)
  1: 0x03AA [0x00] END_REQSTACK()
```

### Event 65535.25

#### Metadata

| Field        | Value    |
|--------------|----------|
| Entrypoint   | 0x03AB   |
| Data Size    | 34 bytes |
| Instructions | 8        |

```
      00 01 02 03 04 05 06 07  08 09 0A 0B 0C 0D 0E 0F
      -- -- -- -- -- -- -- --  -- -- -- -- -- -- -- --
03A0:                                   32 6F 80 1F 00             2o...
03B0: 70 80 71 80 72 80 1F 01  4B F0 FF FF 7F 73 80 1C  p.q.r...K....s..
03C0: 74 80 4B F0 FF FF 7F 75  80 1C 74 80 00           t.K....u..t..   
```

#### Opcodes

```
  0: 0x03AB [0x32] ExtData[1]->MainSpeed = 13* * 0.1
  1: 0x03AE [0x1F] MOVE_ENTITY: EventEntity moves to X=420.885*, Z=-37.746*, Y=-0.002*
  2: 0x03B6 [0x1F] MOVE_ENTITY: Update entity position (mode=1)
  3: 0x03B8 [0x4B] UPDATE_ENTITY_YAW(entity=LocalPlayer, yaw=9.3°*)
  4: 0x03BF [0x1C] WAIT(50* ticks)
  5: 0x03C2 [0x4B] UPDATE_ENTITY_YAW(entity=LocalPlayer, yaw=14.3°*)
  6: 0x03C9 [0x1C] WAIT(50* ticks)
  7: 0x03CC [0x00] END_REQSTACK()
```

### Event 65535.26

#### Metadata

| Field        | Value    |
|--------------|----------|
| Entrypoint   | 0x03CD   |
| Data Size    | 23 bytes |
| Instructions | 5        |

```
      00 01 02 03 04 05 06 07  08 09 0A 0B 0C 0D 0E 0F
      -- -- -- -- -- -- -- --  -- -- -- -- -- -- -- --
03C0:                                         37 76 80               7v.
03D0: 77 80 17 80 78 80 32 6F  80 1F 00 79 80 7A 80 17  w...x.2o...y.z..
03E0: 80 1F 01 00                                       ....            
```

#### Opcodes

```
  0: 0x03CD [0x37] UPDATE_EVENT_POSITION_AND_DIR: x=420.414*, z=-46.628*, y=0.000*, direction=74.2°*
  1: 0x03D6 [0x32] ExtData[1]->MainSpeed = 13* * 0.1
  2: 0x03D9 [0x1F] MOVE_ENTITY: EventEntity moves to X=420.512*, Z=-47.835*, Y=0.000*
  3: 0x03E1 [0x1F] MOVE_ENTITY: Update entity position (mode=1)
  4: 0x03E3 [0x00] END_REQSTACK()
```

### Event 65535.27

#### Metadata

| Field        | Value    |
|--------------|----------|
| Entrypoint   | 0x03E4   |
| Data Size    | 23 bytes |
| Instructions | 5        |

```
      00 01 02 03 04 05 06 07  08 09 0A 0B 0C 0D 0E 0F
      -- -- -- -- -- -- -- --  -- -- -- -- -- -- -- --
03E0:             37 7B 80 7C  80 17 80 7D 80 32 6F 80      7{.|...}.2o.
03F0: 1F 00 7E 80 7F 80 80 80  1F 01 00                 ..~........     
```

#### Opcodes

```
  0: 0x03E4 [0x37] UPDATE_EVENT_POSITION_AND_DIR: x=-16.074*, z=19.811*, y=0.000*, direction=175.2°*
  1: 0x03ED [0x32] ExtData[1]->MainSpeed = 13* * 0.1
  2: 0x03F0 [0x1F] MOVE_ENTITY: EventEntity moves to X=-25.374*, Z=20.110*, Y=-0.050*
  3: 0x03F8 [0x1F] MOVE_ENTITY: Update entity position (mode=1)
  4: 0x03FA [0x00] END_REQSTACK()
```

### Event 65535.28

#### Metadata

| Field        | Value    |
|--------------|----------|
| Entrypoint   | 0x03FB   |
| Data Size    | 17 bytes |
| Instructions | 5        |

```
      00 01 02 03 04 05 06 07  08 09 0A 0B 0C 0D 0E 0F
      -- -- -- -- -- -- -- --  -- -- -- -- -- -- -- --
03F0:                                   2B E6 00 0C 01             +....
0400: 81 80 23 2B E6 00 0C 01  82 80 23 00              ..#+......#.    
```

#### Opcodes

```
  0: 0x03FB [0x2B] Nanaa Mihgo (ID: 17563878/0x010C00E6) [7285*]:
    → "Thank you for kindly coming all this way to carry out our little trrransaction."
  1: 0x0402 [0x23] WAIT_FOR_DIALOG_INTERACTION
  2: 0x0403 [0x2B] Nanaa Mihgo (ID: 17563878/0x010C00E6) [7286*]:
    → "This is what you're going to do... Drrrop all the money and equipment you have on you, then get the hell out of here."
  3: 0x040A [0x23] WAIT_FOR_DIALOG_INTERACTION
  4: 0x040B [0x00] END_REQSTACK()
```

### Event 65535.29

#### Metadata

| Field        | Value    |
|--------------|----------|
| Entrypoint   | 0x040C   |
| Data Size    | 14 bytes |
| Instructions | 4        |

```
      00 01 02 03 04 05 06 07  08 09 0A 0B 0C 0D 0E 0F
      -- -- -- -- -- -- -- --  -- -- -- -- -- -- -- --
0400:                                      32 6F 80 1F              2o..
0410: 00 83 80 84 80 85 80 1F  01 00                    ..........      
```

#### Opcodes

```
  0: 0x040C [0x32] ExtData[1]->MainSpeed = 13* * 0.1
  1: 0x040F [0x1F] MOVE_ENTITY: EventEntity moves to X=-23.832*, Z=18.934*, Y=-0.009*
  2: 0x0417 [0x1F] MOVE_ENTITY: Update entity position (mode=1)
  3: 0x0419 [0x00] END_REQSTACK()
```

### Event 65535.30

#### Metadata

| Field        | Value    |
|--------------|----------|
| Entrypoint   | 0x041A   |
| Data Size    | 10 bytes |
| Instructions | 2        |

```
      00 01 02 03 04 05 06 07  08 09 0A 0B 0C 0D 0E 0F
      -- -- -- -- -- -- -- --  -- -- -- -- -- -- -- --
0410:                                37 86 80 87 80 17            7.....
0420: 80 88 80 00                                       ....            
```

#### Opcodes

```
  0: 0x041A [0x37] UPDATE_EVENT_POSITION_AND_DIR: x=-332.033*, z=145.194*, y=0.000*, direction=273.7°*
  1: 0x0423 [0x00] END_REQSTACK()
```

### Event 65535.31

#### Metadata

| Field        | Value    |
|--------------|----------|
| Entrypoint   | 0x0424   |
| Data Size    | 36 bytes |
| Instructions | 4        |

```
      00 01 02 03 04 05 06 07  08 09 0A 0B 0C 0D 0E 0F
      -- -- -- -- -- -- -- --  -- -- -- -- -- -- -- --
0420:             37 89 80 8A  80 17 80 8B 80 2C F8 FF      7........,..
0430: FF 7F F8 FF FF 7F 72 65  73 31 53 F8 FF FF 7F F8  ......res1S.....
0440: FF FF 7F 72 65 73 31 00                           ...res1.        
```

#### Opcodes

```
  0: 0x0424 [0x37] UPDATE_EVENT_POSITION_AND_DIR: x=-329.863*, z=150.209*, y=0.000*, direction=129.3°*
  1: 0x042D [0x2C] CREATE_SCHEDULER_TASK: Create scheduler "res1" with entities [EventEntity, EventEntity]
  2: 0x043A [0x53] WAIT_SCHEDULER_TASK: Wait for scheduler "res1" with entities [EventEntity, EventEntity]
  3: 0x0447 [0x00] END_REQSTACK()
```

### Event 65535.32

#### Metadata

| Field        | Value    |
|--------------|----------|
| Entrypoint   | 0x0448   |
| Data Size    | 17 bytes |
| Instructions | 5        |

```
      00 01 02 03 04 05 06 07  08 09 0A 0B 0C 0D 0E 0F
      -- -- -- -- -- -- -- --  -- -- -- -- -- -- -- --
0440:                          32 6F 80 1F 00 8C 80 8D          2o......
0450: 80 17 80 1F 01 39 8E 80  00                       .....9...       
```

#### Opcodes

```
  0: 0x0448 [0x32] ExtData[1]->MainSpeed = 13* * 0.1
  1: 0x044B [0x1F] MOVE_ENTITY: EventEntity moves to X=-332.283*, Z=148.002*, Y=0.000*
  2: 0x0453 [0x1F] MOVE_ENTITY: Update entity position (mode=1)
  3: 0x0455 [0x39] SET_ENTITY_DIRECTION(direction=13.6°*)
  4: 0x0458 [0x00] END_REQSTACK()
```

### Event 65535.33

#### Metadata

| Field        | Value    |
|--------------|----------|
| Entrypoint   | 0x0459   |
| Data Size    | 14 bytes |
| Instructions | 4        |

```
      00 01 02 03 04 05 06 07  08 09 0A 0B 0C 0D 0E 0F
      -- -- -- -- -- -- -- --  -- -- -- -- -- -- -- --
0450:                             32 6F 80 1F 00 8F 80           2o.....
0460: 90 80 17 80 1F 01 00                              .......         
```

#### Opcodes

```
  0: 0x0459 [0x32] ExtData[1]->MainSpeed = 13* * 0.1
  1: 0x045C [0x1F] MOVE_ENTITY: EventEntity moves to X=-333.335*, Z=148.875*, Y=0.000*
  2: 0x0464 [0x1F] MOVE_ENTITY: Update entity position (mode=1)
  3: 0x0466 [0x00] END_REQSTACK()
```

### Event 65535.34

#### Metadata

| Field        | Value     |
|--------------|-----------|
| Entrypoint   | 0x0467    |
| Data Size    | 117 bytes |
| Instructions | 11        |

```
      00 01 02 03 04 05 06 07  08 09 0A 0B 0C 0D 0E 0F
      -- -- -- -- -- -- -- --  -- -- -- -- -- -- -- --
0460:                      37  91 80 92 80 17 80 93 80         7........
0470: 2C F8 FF FF 7F F8 FF FF  7F 67 75 72 64 53 F8 FF  ,........gurdS..
0480: FF 7F F8 FF FF 7F 67 75  72 64 2C EF 00 0C 01 F8  ......gurd,.....
0490: FF FF 7F 64 61 6D 67 53  F8 FF FF 7F F8 FF FF 7F  ...damgS........
04A0: 64 61 6D 67 2C F8 FF FF  7F F8 FF FF 7F 64 65 61  damg,........dea
04B0: 64 53 F8 FF FF 7F F8 FF  FF 7F 64 65 61 64 2C F8  dS........dead,.
04C0: FF FF 7F F8 FF FF 7F 63  6F 72 70 53 F8 FF FF 7F  .......corpS....
04D0: F8 FF FF 7F 63 6F 72 70  1C 94 80 00              ....corp....    
```

#### Opcodes

```
  0: 0x0467 [0x37] UPDATE_EVENT_POSITION_AND_DIR: x=-331.680*, z=149.230*, y=0.000*, direction=183.4°*
  1: 0x0470 [0x2C] CREATE_SCHEDULER_TASK: Create scheduler "gurd" with entities [EventEntity, EventEntity]
  2: 0x047D [0x53] WAIT_SCHEDULER_TASK: Wait for scheduler "gurd" with entities [EventEntity, EventEntity]
  3: 0x048A [0x2C] CREATE_SCHEDULER_TASK: Create scheduler "damg" with entities [King of Batons (ID: 17563887/0x010C00EF), EventEntity]
  4: 0x0497 [0x53] WAIT_SCHEDULER_TASK: Wait for scheduler "damg" with entities [EventEntity, EventEntity]
  5: 0x04A4 [0x2C] CREATE_SCHEDULER_TASK: Create scheduler "dead" with entities [EventEntity, EventEntity]
  6: 0x04B1 [0x53] WAIT_SCHEDULER_TASK: Wait for scheduler "dead" with entities [EventEntity, EventEntity]
  7: 0x04BE [0x2C] CREATE_SCHEDULER_TASK: Create scheduler "corp" with entities [EventEntity, EventEntity]
  8: 0x04CB [0x53] WAIT_SCHEDULER_TASK: Wait for scheduler "corp" with entities [EventEntity, EventEntity]
  9: 0x04D8 [0x1C] WAIT(100* ticks)
 10: 0x04DB [0x00] END_REQSTACK()
```

### Event 65535.35

#### Metadata

| Field        | Value    |
|--------------|----------|
| Entrypoint   | 0x04DC   |
| Data Size    | 27 bytes |
| Instructions | 3        |

```
      00 01 02 03 04 05 06 07  08 09 0A 0B 0C 0D 0E 0F
      -- -- -- -- -- -- -- --  -- -- -- -- -- -- -- --
04D0:                                      2C F8 FF FF              ,...
04E0: 7F F8 FF FF 7F 72 65 73  32 53 F8 FF FF 7F F8 FF  .....res2S......
04F0: FF 7F 72 65 73 32 00                              ..res2.         
```

#### Opcodes

```
  0: 0x04DC [0x2C] CREATE_SCHEDULER_TASK: Create scheduler "res2" with entities [EventEntity, EventEntity]
  1: 0x04E9 [0x53] WAIT_SCHEDULER_TASK: Wait for scheduler "res2" with entities [EventEntity, EventEntity]
  2: 0x04F6 [0x00] END_REQSTACK()
```

### Event 65535.36

#### Metadata

| Field        | Value    |
|--------------|----------|
| Entrypoint   | 0x04F7   |
| Data Size    | 10 bytes |
| Instructions | 2        |

```
      00 01 02 03 04 05 06 07  08 09 0A 0B 0C 0D 0E 0F
      -- -- -- -- -- -- -- --  -- -- -- -- -- -- -- --
04F0:                      37  95 80 96 80 17 80 97 80         7........
0500: 00                                                .               
```

#### Opcodes

```
  0: 0x04F7 [0x37] UPDATE_EVENT_POSITION_AND_DIR: x=-227.998*, z=146.483*, y=0.000*, direction=266.8°*
  1: 0x0500 [0x00] END_REQSTACK()
```

### Event 65535.37

#### Metadata

| Field        | Value    |
|--------------|----------|
| Entrypoint   | 0x0501   |
| Data Size    | 14 bytes |
| Instructions | 4        |

```
      00 01 02 03 04 05 06 07  08 09 0A 0B 0C 0D 0E 0F
      -- -- -- -- -- -- -- --  -- -- -- -- -- -- -- --
0500:    32 6F 80 1F 00 98 80  99 80 17 80 1F 01 00      2o............ 
```

#### Opcodes

```
  0: 0x0501 [0x32] ExtData[1]->MainSpeed = 13* * 0.1
  1: 0x0504 [0x1F] MOVE_ENTITY: EventEntity moves to X=-228.041*, Z=150.156*, Y=0.000*
  2: 0x050C [0x1F] MOVE_ENTITY: Update entity position (mode=1)
  3: 0x050E [0x00] END_REQSTACK()
```

### Event 71

#### Metadata

| Field        | Value   |
|--------------|---------|
| Entrypoint   | 0x050F  |
| Data Size    | 3 bytes |
| Instructions | 2       |

```
      00 01 02 03 04 05 06 07  08 09 0A 0B 0C 0D 0E 0F
      -- -- -- -- -- -- -- --  -- -- -- -- -- -- -- --
0500:                                               22                 "
0510: 00 00                                             ..              
```

#### Opcodes

```
  0: 0x050F [0x22] ENTITY_HIDE_FLAG(enabled=0x00)
  1: 0x0511 [0x00] END_REQSTACK()
```

### Event 74

#### Metadata

| Field        | Value   |
|--------------|---------|
| Entrypoint   | 0x0512  |
| Data Size    | 3 bytes |
| Instructions | 2       |

```
      00 01 02 03 04 05 06 07  08 09 0A 0B 0C 0D 0E 0F
      -- -- -- -- -- -- -- --  -- -- -- -- -- -- -- --
0510:       22 00 00                                      "..           
```

#### Opcodes

```
  0: 0x0512 [0x22] ENTITY_HIDE_FLAG(enabled=0x00)
  1: 0x0514 [0x00] END_REQSTACK()
```

### Event 65535.38

#### Metadata

| Field        | Value    |
|--------------|----------|
| Entrypoint   | 0x0515   |
| Data Size    | 10 bytes |
| Instructions | 2        |

```
      00 01 02 03 04 05 06 07  08 09 0A 0B 0C 0D 0E 0F
      -- -- -- -- -- -- -- --  -- -- -- -- -- -- -- --
0510:                37 9A 80  9B 80 9C 80 17 80 00          7......... 
```

#### Opcodes

```
  0: 0x0515 [0x37] UPDATE_EVENT_POSITION_AND_DIR: x=438.560*, z=179.986*, y=-8.000*, direction=0.0°*
  1: 0x051E [0x00] END_REQSTACK()
```

### Event 65535.39

#### Metadata

| Field        | Value    |
|--------------|----------|
| Entrypoint   | 0x051F   |
| Data Size    | 10 bytes |
| Instructions | 2        |

```
      00 01 02 03 04 05 06 07  08 09 0A 0B 0C 0D 0E 0F
      -- -- -- -- -- -- -- --  -- -- -- -- -- -- -- --
0510:                                               37                 7
0520: 9D 80 9E 80 9F 80 A0 80  00                       .........       
```

#### Opcodes

```
  0: 0x051F [0x37] UPDATE_EVENT_POSITION_AND_DIR: x=-260.000*, z=241.001*, y=7.999*, direction=90.0°*
  1: 0x0528 [0x00] END_REQSTACK()
```

### Event 65535.40

#### Metadata

| Field        | Value    |
|--------------|----------|
| Entrypoint   | 0x0529   |
| Data Size    | 53 bytes |
| Instructions | 5        |

```
      00 01 02 03 04 05 06 07  08 09 0A 0B 0C 0D 0E 0F
      -- -- -- -- -- -- -- --  -- -- -- -- -- -- -- --
0520:                             45 A1 80 F8 FF FF 7F           E......
0530: F8 FF FF 7F 73 30 32 35  17 80 1C 16 80 52 A1 80  ....s025.....R..
0540: F8 FF FF 7F F8 FF FF 7F  73 30 32 35 45 A1 80 F8  ........s025E...
0550: FF FF 7F F8 FF FF 7F 73  30 32 36 17 80 00        .......s026...  
```

#### Opcodes

```
  0: 0x0529 [0x45] LOAD_SCHEDULED_TASK: Load scheduler "s025" with entities [EventEntity, EventEntity], work=[214*, 0*]
  1: 0x053A [0x1C] WAIT(200* ticks)
  2: 0x053D [0x52] END_LOAD_SCHEDULER: End scheduler "s025" with entities [EventEntity, EventEntity], work=214*
  3: 0x054C [0x45] LOAD_SCHEDULED_TASK: Load scheduler "s026" with entities [EventEntity, EventEntity], work=[214*, 0*]
  4: 0x055D [0x00] END_REQSTACK()
```

### Event 65535.41

#### Metadata

| Field        | Value    |
|--------------|----------|
| Entrypoint   | 0x055E   |
| Data Size    | 10 bytes |
| Instructions | 2        |

```
      00 01 02 03 04 05 06 07  08 09 0A 0B 0C 0D 0E 0F
      -- -- -- -- -- -- -- --  -- -- -- -- -- -- -- --
0550:                                            37 A2                7.
0560: 80 A3 80 72 80 A4 80 00                           ...r....        
```

#### Opcodes

```
  0: 0x055E [0x37] UPDATE_EVENT_POSITION_AND_DIR: x=-228.021*, z=97.964*, y=-0.002*, direction=86.7°*
  1: 0x0567 [0x00] END_REQSTACK()
```

### Event 65535.42

#### Metadata

| Field        | Value    |
|--------------|----------|
| Entrypoint   | 0x0568   |
| Data Size    | 10 bytes |
| Instructions | 2        |

```
      00 01 02 03 04 05 06 07  08 09 0A 0B 0C 0D 0E 0F
      -- -- -- -- -- -- -- --  -- -- -- -- -- -- -- --
0560:                          37 A5 80 A6 80 A7 80 A8          7.......
0570: 80 00                                             ..              
```

#### Opcodes

```
  0: 0x0568 [0x37] UPDATE_EVENT_POSITION_AND_DIR: x=-225.580*, z=99.342*, y=0.041*, direction=152.0°*
  1: 0x0571 [0x00] END_REQSTACK()
```

### Event 65535.43

#### Metadata

| Field        | Value    |
|--------------|----------|
| Entrypoint   | 0x0572   |
| Data Size    | 24 bytes |
| Instructions | 6        |

```
      00 01 02 03 04 05 06 07  08 09 0A 0B 0C 0D 0E 0F
      -- -- -- -- -- -- -- --  -- -- -- -- -- -- -- --
0570:       32 6F 80 1F 00 A9  80 AA 80 17 80 1F 01 1F    2o............
0580: 00 AB 80 AC 80 17 80 1F  01 00                    ..........      
```

#### Opcodes

```
  0: 0x0572 [0x32] ExtData[1]->MainSpeed = 13* * 0.1
  1: 0x0575 [0x1F] MOVE_ENTITY: EventEntity moves to X=-227.346*, Z=93.024*, Y=0.000*
  2: 0x057D [0x1F] MOVE_ENTITY: Update entity position (mode=1)
  3: 0x057F [0x1F] MOVE_ENTITY: EventEntity moves to X=-228.590*, Z=91.828*, Y=0.000*
  4: 0x0587 [0x1F] MOVE_ENTITY: Update entity position (mode=1)
  5: 0x0589 [0x00] END_REQSTACK()
```
