# Event 65535

## Metadata

| Field           | Value    |
|-----------------|----------|
| Event Index     | 105/107  |
| Offset          | 0x0615   |
| Data Size       | 82 bytes |
| Calculated Size | 82 bytes |
| Instructions    | 19       |

```
      00 01 02 03 04 05 06 07  08 09 0A 0B 0C 0D 0E 0F
      -- -- -- -- -- -- -- --  -- -- -- -- -- -- -- --
0610:                03 01 00  01 80 03 01 17 01 80 03       ...........
0620: 02 17 00 80 02 01 00 00  80 01 66 06 02 02 17 01  ..........f.....
0630: 80 00 3A 06 1C 01 80 01  2C 06 03 01 17 01 80 03  ..:.....,.......
0640: 01 10 36 80 43 00 43 01  03 01 17 00 80 02 09 10  ..6.C.C.........
0650: 0A 80 00 60 06 03 01 00  00 80 B4 06 00 01 63 06  ...`..........c.
0660: 1C 37 80 01 24 06 00                              .7..$..         
```

## Opcodes

```
  0: 0x0615 [0x03] ExtData[1]->WorkLocal[1] = 1*
  1: 0x061A [0x03] Work_Zone_1700[1] = 1*
  2: 0x061F [0x03] Work_Zone_1700[2] = 0*
  3: 0x0624 [0x02] IF !(ExtData[1]->WorkLocal[1] == 0*) GOTO 0x0666
  4: 0x062C [0x02] IF !(Work_Zone_1700[2] == 1*) GOTO 0x063A
  5: 0x0634 [0x1C] WAIT(1* ticks)
  6: 0x0637 [0x01] GOTO 0x062C
  7: 0x063A [0x03] Work_Zone_1700[1] = 1*
  8: 0x063F [0x03] Work_Zone[1] = 4*
  9: 0x0644 [0x43] SEND_EVENT_UPDATE: Send pending tag to server (packet 0x005B)
 10: 0x0646 [0x43] SEND_EVENT_UPDATE: Check pending flag (skip if not pending)
 11: 0x0648 [0x03] Work_Zone_1700[1] = 0*
 12: 0x064D [0x02] IF !(Work_Zone[9] == 2*) GOTO 0x0660
 13: 0x0655 [0x03] ExtData[1]->WorkLocal[1] = 0*
 14: 0x065A [0xB4] UI_WINDOW_STRING_HANDLER(case=0x06 - Toggle query message flag, flag_value=0x00)
 15: 0x065D [0x01] GOTO 0x0663
 16: 0x0660 [0x1C] WAIT(5* ticks)
 17: 0x0663 [0x01] GOTO 0x0624
 18: 0x0666 [0x00] END_REQSTACK()
```
