# Event 65535

## Metadata

| Field           | Value    |
|-----------------|----------|
| Event Index     | 4/4      |
| Offset          | 0x0003   |
| Data Size       | 78 bytes |
| Calculated Size | 78 bytes |
| Instructions    | 8        |

```
      00 01 02 03 04 05 06 07  08 09 0A 0B 0C 0D 0E 0F
      -- -- -- -- -- -- -- --  -- -- -- -- -- -- -- --
0000:          D5 00 80 0F 33  12 01 0F 33 12 01 74 61     ....3...3..ta
0010: 6D 61 01 80 1C 02 80 D5  00 80 11 33 12 01 11 33  ma.........3...3
0020: 12 01 74 61 6D 61 01 80  1C 02 80 D5 00 80 15 33  ..tama.........3
0030: 12 01 15 33 12 01 74 61  6D 61 01 80 1C 02 80 D5  ...3..tama......
0040: 00 80 16 33 12 01 16 33  12 01 74 61 6D 61 01 80  ...3...3..tama..
0050: 00                                                .               
```

## Opcodes

```
  0: 0x0003 [0xD5] LOAD_EVENT_SCHEDULER_ALT8: Load scheduler "ta" with entities [Lilisette (ID: 17969935/0x0112330F), Lilisette (ID: 17969935/0x0112330F)], work=ExtData[1]->WorkLocal[1]
  1: 0x0014 [0x1C] WAIT(30* ticks)
  2: 0x0017 [0xD5] LOAD_EVENT_SCHEDULER_ALT8: Load scheduler "ta" with entities [Aldo (ID: 17969937/0x01123311), Aldo (ID: 17969937/0x01123311)], work=ExtData[1]->WorkLocal[1]
  3: 0x0028 [0x1C] WAIT(30* ticks)
  4: 0x002B [0xD5] LOAD_EVENT_SCHEDULER_ALT8: Load scheduler "ta" with entities [Trion (ID: 17969941/0x01123315), Trion (ID: 17969941/0x01123315)], work=ExtData[1]->WorkLocal[1]
  5: 0x003C [0x1C] WAIT(30* ticks)
  6: 0x003F [0xD5] LOAD_EVENT_SCHEDULER_ALT8: Load scheduler "ta" with entities [Curilla (ID: 17969942/0x01123316), Curilla (ID: 17969942/0x01123316)], work=ExtData[1]->WorkLocal[1]
  7: 0x0050 [0x00] END_REQSTACK()
```
