# Event 65535

## Metadata

| Field           | Value    |
|-----------------|----------|
| Event Index     | 17/19    |
| Offset          | 0x00E3   |
| Data Size       | 58 bytes |
| Calculated Size | 58 bytes |
| Instructions    | 8        |

```
      00 01 02 03 04 05 06 07  08 09 0A 0B 0C 0D 0E 0F
      -- -- -- -- -- -- -- --  -- -- -- -- -- -- -- --
00E0:          1C 17 80 59 03  3D 42 0A 01 14 80 79 02     ...Y.=B....y.
00F0: 3D 42 0A 01 02 80 18 80  1C 00 80 5B 19 80 3D 42  =B.........[..=B
0100: 0A 01 3D 42 0A 01 74 6C  61 30 1C 1A 80 5B 19 80  ..=B..tla0...[..
0110: 3D 42 0A 01 3D 42 0A 01  74 6C 61 31 00           =B..=B..tla1.   
```

## Opcodes

```
  0: 0x00E3 [0x1C] WAIT(90* ticks)
  1: 0x00E6 [0x59] UPDATE_ENTITY_DATA: Set Cyranuce (ID: 17449533/0x010A423D) turn speed head = 200*
  2: 0x00EE [0x79] Cyranuce (ID: 17449533/0x010A423D) looks at Unknown NPC (ID: 2149089282/0x80188002) (Direct axis set)
  3: 0x00F8 [0x1C] WAIT(40* ticks)
  4: 0x00FB [0x5B] LOAD_EXT_SCHEDULER(work_offset=1272*, entity1=Cyranuce (ID: 17449533/0x010A423D), entity2=Cyranuce (ID: 17449533/0x010A423D), action="tla0")
  5: 0x010A [0x1C] WAIT(108* ticks)
  6: 0x010D [0x5B] LOAD_EXT_SCHEDULER(work_offset=1272*, entity1=Cyranuce (ID: 17449533/0x010A423D), entity2=Cyranuce (ID: 17449533/0x010A423D), action="tla1")
  7: 0x011C [0x00] END_REQSTACK()
```
