# Event 26

## Metadata

| Field           | Value    |
|-----------------|----------|
| Event Index     | 52/69    |
| Offset          | 0x0215   |
| Data Size       | 64 bytes |
| Calculated Size | 64 bytes |
| Instructions    | 10       |

```
      00 01 02 03 04 05 06 07  08 09 0A 0B 0C 0D 0E 0F
      -- -- -- -- -- -- -- --  -- -- -- -- -- -- -- --
0210:                3B F0 FF  FF 7F 09 00 0B 00 0A 00       ;..........
0220: 02 3E 80 09 00 03 54 02  02 09 00 3F 80 03 54 02  .>....T....?..T.
0230: 02 40 80 0B 00 03 54 02  02 0B 00 41 80 03 54 02  .@....T....A..T.
0240: 5A 00 42 80 43 80 44 80  5A 01 5A 00 45 80 46 80  Z.B.C.D.Z.Z.E.F.
0250: 47 80 5A 01 00                                    G.Z..           
```

## Opcodes

```
  0: 0x0215 [0x3B] GET_ENTITY_POSITION(entity=LocalPlayer, x_destination=ExtData[1]->WorkLocal[9], y_destination=ExtData[1]->WorkLocal[11], z_destination=ExtData[1]->WorkLocal[10])
  1: 0x0220 [0x02] IF !(182418* >= ExtData[1]->WorkLocal[9]) GOTO 0x0254
  2: 0x0228 [0x02] IF !(ExtData[1]->WorkLocal[9] >= 191183*) GOTO 0x0254
  3: 0x0230 [0x02] IF !(167007* >= ExtData[1]->WorkLocal[11]) GOTO 0x0254
  4: 0x0238 [0x02] IF !(ExtData[1]->WorkLocal[11] >= 177413*) GOTO 0x0254
  5: 0x0240 [0x5A] UPDATE_EVENT_POSITION: Set EventEntity MovePosition to X=184.623*, Z=169.065*, Y=-32.046*
  6: 0x0248 [0x5A] UPDATE_EVENT_POSITION: Move EventEntity incrementally towards MovePosition
  7: 0x024A [0x5A] UPDATE_EVENT_POSITION: Set EventEntity MovePosition to X=182.500*, Z=167.947*, Y=-32.491*
  8: 0x0252 [0x5A] UPDATE_EVENT_POSITION: Move EventEntity incrementally towards MovePosition
  9: 0x0254 [0x00] END_REQSTACK()
```
