# Event 65535

## Metadata

| Field           | Value     |
|-----------------|-----------|
| Event Index     | 60/69     |
| Offset          | 0x02A3    |
| Data Size       | 155 bytes |
| Calculated Size | 155 bytes |
| Instructions    | 3         |

```
      00 01 02 03 04 05 06 07  08 09 0A 0B 0C 0D 0E 0F
      -- -- -- -- -- -- -- --  -- -- -- -- -- -- -- --
02A0:          AC 01 02 80 AB  04 00 03 0D 00 0C 00 02     .............
02B0: 0D 00 4C 80 05 BF 02 08  0D 00 0B 80 01 C4 02 08  ..L.............
02C0: 0D 00 10 80 14 0D 00 4D  80 07 0D 00 4E 80 1B 03  .......M....N...
02D0: 0D 00 0C 00 02 0D 00 4C  80 05 E4 02 08 0D 00 0B  .......L........
02E0: 80 01 E9 02 08 0D 00 10  80 14 0D 00 4D 80 07 0D  ............M...
02F0: 00 4F 80 1B 03 0D 00 0C  00 02 0D 00 4C 80 05 09  .O..........L...
0300: 03 08 0D 00 0B 80 01 0E  03 08 0D 00 10 80 14 0D  ................
0310: 00 4D 80 07 0D 00 50 80  1B 03 0D 00 0C 00 02 0D  .M....P.........
0320: 00 4C 80 05 2E 03 08 0D  00 0B 80 01 33 03 08 0D  .L..........3...
0330: 00 10 80 14 0D 00 4D 80  07 0D 00 51 80 1B        ......M....Q..  
```

## Opcodes

```
  0: 0x02A3 [0xAC] EventEntity->StatusEvent = 0*
  1: 0x02A7 [0xAB] EventEntity->Render.Flags0 |= 0x40000 // Set bit 18
  2: 0x02A9 [0x00] END_REQSTACK()
```

## Data or dead code:

```
# Dead code (unreachable instructions):
     0x02AA [0x03] ExtData[1]->WorkLocal[13] = ExtData[1]->WorkLocal[12]
     0x02AF [0x02] IF !(ExtData[1]->WorkLocal[13] > 5*) GOTO 0x02BF
     0x02B7 [0x08] ExtData[1]->WorkLocal[13] -= 1*
     0x02BC [0x01] GOTO 0x02C4
     0x02BF [0x08] ExtData[1]->WorkLocal[13] -= 2*
     0x02C4 [0x14] ExtData[1]->WorkLocal[13] *= 10*
     0x02C9 [0x07] ExtData[1]->WorkLocal[13] += 9*
     0x02CE [0x1B] RETURN
     0x02CF [0x03] ExtData[1]->WorkLocal[13] = ExtData[1]->WorkLocal[12]
     0x02D4 [0x02] IF !(ExtData[1]->WorkLocal[13] > 5*) GOTO 0x02E4
     0x02DC [0x08] ExtData[1]->WorkLocal[13] -= 1*
     0x02E1 [0x01] GOTO 0x02E9
     0x02E4 [0x08] ExtData[1]->WorkLocal[13] -= 2*
     0x02E9 [0x14] ExtData[1]->WorkLocal[13] *= 10*
     0x02EE [0x07] ExtData[1]->WorkLocal[13] += 70*
     0x02F3 [0x1B] RETURN
     0x02F4 [0x03] ExtData[1]->WorkLocal[13] = ExtData[1]->WorkLocal[12]
     0x02F9 [0x02] IF !(ExtData[1]->WorkLocal[13] > 5*) GOTO 0x0309
     0x0301 [0x08] ExtData[1]->WorkLocal[13] -= 1*
     0x0306 [0x01] GOTO 0x030E
     0x0309 [0x08] ExtData[1]->WorkLocal[13] -= 2*
     0x030E [0x14] ExtData[1]->WorkLocal[13] *= 10*
     0x0313 [0x07] ExtData[1]->WorkLocal[13] += 140*
     0x0318 [0x1B] RETURN
     0x0319 [0x03] ExtData[1]->WorkLocal[13] = ExtData[1]->WorkLocal[12]
     0x031E [0x02] IF !(ExtData[1]->WorkLocal[13] > 5*) GOTO 0x032E
     0x0326 [0x08] ExtData[1]->WorkLocal[13] -= 1*
     0x032B [0x01] GOTO 0x0333
     0x032E [0x08] ExtData[1]->WorkLocal[13] -= 2*
     0x0333 [0x14] ExtData[1]->WorkLocal[13] *= 10*
     0x0338 [0x07] ExtData[1]->WorkLocal[13] += 210*
     0x033D [0x1B] RETURN
```