# Event 65535

## Metadata

| Field           | Value     |
|-----------------|-----------|
| Event Index     | 60/69     |
| Offset          | 0x02A3    |
| Data Size       | 155 bytes |
| Calculated Size | 155 bytes |
| Instructions    | 4         |

```
      00 01 02 03 04 05 06 07  08 09 0A 0B 0C 0D 0E 0F
      -- -- -- -- -- -- -- --  -- -- -- -- -- -- -- --
02A0:          AC 01 02 80 AB  04 00 03 0D 00 0C 00 02     .............
02B0: 0D 00 4C 80 05 BF 02 08  0D 00 0B 80 01 C4 02 08  ..L.............
02C0: 0D 00 10 80 14 0D 00 4D  80 07 0D 00 4E 80 1B 03  .......M....N...
02D0: 0D 00 0C 00 02 0D 00 4C  80 05 E4 02 08 0D 00 0B  .......L........
02E0: 80 01 E9 02 08 0D 00 10  80 14 0D 00 4D 80 07 0D  ............M...
02F0: 00 4F 80 1B 03 0D 00 0C  00 02 0D 00 4C 80 05 09  .O..........L...
0300: 03 08 0D 00 0B 80 01 0E  03 08 0D 00 10 80 14 0D  ................
0310: 00 4D 80 07 0D 00 50 80  1B 03 0D 00 0C 00 02 0D  .M....P.........
0320: 00 4C 80 05 2E 03 08 0D  00 0B 80 01 33 03 08 0D  .L..........3...
0330: 00 10 80 14 0D 00 4D 80  07 0D 00 51 80 1B        ......M....Q..  
```

## Opcodes

```
  0: 0x02A3 [0xAC] EventEntity->StatusEvent = 0*
  1: 0x02A7 [0xAB] EventEntity->Render.Flags0 |= 0x40000 // Set bit 18
  2: 0x02A9 [0x00] END_REQSTACK()
```

## Data or dead code:

```
# Data Section: 0x02AA (148 bytes)
     0x02AA: 03 0D 00 0C 00 02 0D 00 4C 80 05 BF 02 08 0D 00
     0x02BA: 0B 80 01 C4 02 08 0D 00 10 80 14 0D 00 4D 80 07
     0x02CA: 0D 00 4E 80 1B 03 0D 00 0C 00 02 0D 00 4C 80 05
     0x02DA: E4 02 08 0D 00 0B 80 01 E9 02 08 0D 00 10 80 14
     0x02EA: 0D 00 4D 80 07 0D 00 4F 80 1B 03 0D 00 0C 00 02
     0x02FA: 0D 00 4C 80 05 09 03 08 0D 00 0B 80 01 0E 03 08
     0x030A: 0D 00 10 80 14 0D 00 4D 80 07 0D 00 50 80 1B 03
     0x031A: 0D 00 0C 00 02 0D 00 4C 80 05 2E 03 08 0D 00 0B
     0x032A: 80 01 33 03 08 0D 00 10 80 14 0D 00 4D 80 07 0D
     0x033A: 00 51 80 1B
```