# Event 45

## Metadata

| Field           | Value    |
|-----------------|----------|
| Event Index     | 37/58    |
| Offset          | 0x070D   |
| Data Size       | 33 bytes |
| Calculated Size | 33 bytes |
| Instructions    | 12       |

```
      00 01 02 03 04 05 06 07  08 09 0A 0B 0C 0D 0E 0F
      -- -- -- -- -- -- -- --  -- -- -- -- -- -- -- --
0700:                                         1E F0 FF               ...
0710: FF 7F 6F 70 1D 2A 80 23  29 08 09 A0 0F 01 09 1D  ..op.*.#).......
0720: 2B 80 23 29 08 09 A0 0F  01 0A 20 00 21 00        +.#)...... .!.  
```

## Opcodes

```
  0: 0x070D [0x1E] EventEntity looks at LocalPlayer and starts talking
  1: 0x0712 [0x6F] WAIT_FRAME_DELAY: Yield until WaitTime reaches zero
  2: 0x0713 [0x70] WAIT_ENTITY_RENDER_FLAG: Wait while EventEntity->Render.Flags3 bit 2 is set (cancel turn if not)
  3: 0x0714 [0x1D] PRINT_EVENT_MESSAGE(message_id=10107*)
    → "Those Humes... I haven't been this surprised since the former chieftainness...\u007F1\u0000\u0007"
  4: 0x0717 [0x23] WAIT_FOR_DIALOG_INTERACTION
  5: 0x0718 [0x29] REQ_SET_WAIT(priority=0x08, entity_id=Etteh Sulaej (ID: 17801225/0x010FA009), tag_num=0x09)
  6: 0x071F [0x1D] PRINT_EVENT_MESSAGE(message_id=10108*)
    → "But that's nothing for you to worry about! Now hurry off and deliver that letter to Windurst.\u007F1\u0000\u0007"
  7: 0x0722 [0x23] WAIT_FOR_DIALOG_INTERACTION
  8: 0x0723 [0x29] REQ_SET_WAIT(priority=0x08, entity_id=Etteh Sulaej (ID: 17801225/0x010FA009), tag_num=0x0A)
  9: 0x072A [0x20] SET_CLI_EVENT_UC_FLAG: Unlock player control
 10: 0x072C [0x21] END_EVENT
 11: 0x072D [0x00] END_REQSTACK()
```
