# Event 65535

## Metadata

| Field           | Value    |
|-----------------|----------|
| Event Index     | 8/8      |
| Offset          | 0x0038   |
| Data Size       | 65 bytes |
| Calculated Size | 65 bytes |
| Instructions    | 13       |

```
      00 01 02 03 04 05 06 07  08 09 0A 0B 0C 0D 0E 0F
      -- -- -- -- -- -- -- --  -- -- -- -- -- -- -- --
0030:                          27 10 20 B0 0F 01 0B 1C          '. .....
0040: 03 80 27 10 21 B0 0F 01  0B 1C 03 80 27 10 22 B0  ..'.!.......'.".
0050: 0F 01 0B 1C 03 80 27 10  23 B0 0F 01 0B 1C 04 80  ......'.#.......
0060: 4E 01 20 B0 0F 01 4E 01  21 B0 0F 01 4E 01 22 B0  N. ...N.!...N.".
0070: 0F 01 4E 01 23 B0 0F 01  00                       ..N.#....       
```

## Opcodes

```
  0: 0x0038 [0x27] REQ_SET(priority=0x10, entity_id=Unnamed NPC (ID: 17805344/0x010FB020), tag_num=0x0B)
  1: 0x003F [0x1C] WAIT(30* ticks)
  2: 0x0042 [0x27] REQ_SET(priority=0x10, entity_id=Unnamed NPC (ID: 17805345/0x010FB021), tag_num=0x0B)
  3: 0x0049 [0x1C] WAIT(30* ticks)
  4: 0x004C [0x27] REQ_SET(priority=0x10, entity_id=Unnamed NPC (ID: 17805346/0x010FB022), tag_num=0x0B)
  5: 0x0053 [0x1C] WAIT(30* ticks)
  6: 0x0056 [0x27] REQ_SET(priority=0x10, entity_id=Unnamed NPC (ID: 17805347/0x010FB023), tag_num=0x0B)
  7: 0x005D [0x1C] WAIT(150* ticks)
  8: 0x0060 [0x4E] SET_ENTITY_HIDE_FLAG: Hide Unnamed NPC (ID: 17805344/0x010FB020)
  9: 0x0066 [0x4E] SET_ENTITY_HIDE_FLAG: Hide Unnamed NPC (ID: 17805345/0x010FB021)
 10: 0x006C [0x4E] SET_ENTITY_HIDE_FLAG: Hide Unnamed NPC (ID: 17805346/0x010FB022)
 11: 0x0072 [0x4E] SET_ENTITY_HIDE_FLAG: Hide Unnamed NPC (ID: 17805347/0x010FB023)
 12: 0x0078 [0x00] END_REQSTACK()
```
