# Event 65535

## Metadata

| Field           | Value    |
|-----------------|----------|
| Event Index     | 10/16    |
| Offset          | 0x0045   |
| Data Size       | 49 bytes |
| Calculated Size | 49 bytes |
| Instructions    | 11       |

```
      00 01 02 03 04 05 06 07  08 09 0A 0B 0C 0D 0E 0F
      -- -- -- -- -- -- -- --  -- -- -- -- -- -- -- --
0040:                37 03 80  04 80 05 80 06 80 03 01       7..........
0050: 00 07 80 1A 24 01 37 02  00 03 00 04 00 05 00 32  ....$.7........2
0060: 08 80 03 01 00 09 80 1A  24 01 1F 00 02 00 03 00  ........$.......
0070: 04 00 1F 01 6F 00                                 ....o.          
```

## Opcodes

```
  0: 0x0045 [0x37] UPDATE_EVENT_POSITION_AND_DIR: x=-33.805*, z=55.140*, y=-15.999*, direction=145.8°*
  1: 0x004E [0x03] ExtData[1]->WorkLocal[1] = 4294963296*
  2: 0x0053 [0x1A] CALL_SUBROUTINE(address=0x0124)
  3: 0x0056 [0x37] UPDATE_EVENT_POSITION_AND_DIR: x=ExtData[1]->WorkLocal[2], z=ExtData[1]->WorkLocal[3], y=ExtData[1]->WorkLocal[4], direction=ExtData[1]->WorkLocal[5]
  4: 0x005F [0x32] ExtData[1]->MainSpeed = 13* * 0.1
  5: 0x0062 [0x03] ExtData[1]->WorkLocal[1] = 2000*
  6: 0x0067 [0x1A] CALL_SUBROUTINE(address=0x0124)
  7: 0x006A [0x1F] MOVE_ENTITY: EventEntity moves to X=ExtData[1]->WorkLocal[2], Z=ExtData[1]->WorkLocal[3], Y=ExtData[1]->WorkLocal[4]
  8: 0x0072 [0x1F] MOVE_ENTITY: Update entity position (mode=1)
  9: 0x0074 [0x6F] WAIT_FRAME_DELAY: Yield until WaitTime reaches zero
 10: 0x0075 [0x00] END_REQSTACK()
```
