# Event 65535

## Metadata

| Field           | Value    |
|-----------------|----------|
| Event Index     | 14/16    |
| Offset          | 0x0111   |
| Data Size       | 87 bytes |
| Calculated Size | 87 bytes |
| Instructions    | 3        |

```
      00 01 02 03 04 05 06 07  08 09 0A 0B 0C 0D 0E 0F
      -- -- -- -- -- -- -- --  -- -- -- -- -- -- -- --
0110:    5B 0A 80 F8 FF FF 7F  F8 FF FF 7F 65 64 30 32   [..........ed02
0120: 1C 0D 80 00 3B F8 FF FF  7F 02 00 03 00 04 00 3A  ....;..........:
0130: F8 FF FF 7F 05 00 17 06  00 05 00 01 00 16 07 00  ................
0140: 05 00 01 00 07 02 00 06  00 07 03 00 07 00 1B 17  ................
0150: 06 00 05 00 01 00 16 07  00 05 00 01 00 07 02 00  ................
0160: 06 00 07 03 00 07 00 1B                           ........        
```

## Opcodes

```
  0: 0x0111 [0x5B] LOAD_EXT_SCHEDULER: Load scheduler "ed02" with entities [EventEntity, EventEntity], work=767*
  1: 0x0120 [0x1C] WAIT(120* ticks)
  2: 0x0123 [0x00] END_REQSTACK()
```

## Data or dead code:

```
# Dead code (unreachable instructions):
     0x0124 [0x3B] GET_ENTITY_POSITION(entity=EventEntity, x_destination=ExtData[1]->WorkLocal[2], y_destination=ExtData[1]->WorkLocal[3], z_destination=ExtData[1]->WorkLocal[4])
     0x012F [0x3A] CONVERT_YAW_TO_BYTE(entity=EventEntity, result_destination=ExtData[1]->WorkLocal[5])
     0x0136 [0x17] ExtData[1]->WorkLocal[6] = cos(ExtData[1]->WorkLocal[5]) * ExtData[1]->WorkLocal[1]
     0x013D [0x16] ExtData[1]->WorkLocal[7] = sin(ExtData[1]->WorkLocal[5]) * ExtData[1]->WorkLocal[1]
     0x0144 [0x07] ExtData[1]->WorkLocal[2] += ExtData[1]->WorkLocal[6]
     0x0149 [0x07] ExtData[1]->WorkLocal[3] += ExtData[1]->WorkLocal[7]
     0x014E [0x1B] RETURN
     0x014F [0x17] ExtData[1]->WorkLocal[6] = cos(ExtData[1]->WorkLocal[5]) * ExtData[1]->WorkLocal[1]
     0x0156 [0x16] ExtData[1]->WorkLocal[7] = sin(ExtData[1]->WorkLocal[5]) * ExtData[1]->WorkLocal[1]
     0x015D [0x07] ExtData[1]->WorkLocal[2] += ExtData[1]->WorkLocal[6]
     0x0162 [0x07] ExtData[1]->WorkLocal[3] += ExtData[1]->WorkLocal[7]
     0x0167 [0x1B] RETURN
```