# Event 65535

## Metadata

| Field           | Value    |
|-----------------|----------|
| Event Index     | 14/16    |
| Offset          | 0x0111   |
| Data Size       | 87 bytes |
| Calculated Size | 87 bytes |
| Instructions    | 4        |

```
      00 01 02 03 04 05 06 07  08 09 0A 0B 0C 0D 0E 0F
      -- -- -- -- -- -- -- --  -- -- -- -- -- -- -- --
0110:    5B 0A 80 F8 FF FF 7F  F8 FF FF 7F 65 64 30 32   [..........ed02
0120: 1C 0D 80 00 3B F8 FF FF  7F 02 00 03 00 04 00 3A  ....;..........:
0130: F8 FF FF 7F 05 00 17 06  00 05 00 01 00 16 07 00  ................
0140: 05 00 01 00 07 02 00 06  00 07 03 00 07 00 1B 17  ................
0150: 06 00 05 00 01 00 16 07  00 05 00 01 00 07 02 00  ................
0160: 06 00 07 03 00 07 00 1B                           ........        
```

## Opcodes

```
  0: 0x0111 [0x5B] LOAD_EXT_SCHEDULER: Load scheduler "ed02" with entities [EventEntity, EventEntity], work=767*
  1: 0x0120 [0x1C] WAIT(120* ticks)
  2: 0x0123 [0x00] END_REQSTACK()
```

## Data or dead code:

```
# Data Section: 0x0124 (68 bytes)
     0x0124: 3B F8 FF FF 7F 02 00 03 00 04 00 3A F8 FF FF 7F
     0x0134: 05 00 17 06 00 05 00 01 00 16 07 00 05 00 01 00
     0x0144: 07 02 00 06 00 07 03 00 07 00 1B 17 06 00 05 00
     0x0154: 01 00 16 07 00 05 00 01 00 07 02 00 06 00 07 03
     0x0164: 00 07 00 1B
```