# Event 65535

## Metadata

| Field           | Value    |
|-----------------|----------|
| Event Index     | 77/81    |
| Offset          | 0x04C2   |
| Data Size       | 52 bytes |
| Calculated Size | 52 bytes |
| Instructions    | 9        |

```
      00 01 02 03 04 05 06 07  08 09 0A 0B 0C 0D 0E 0F
      -- -- -- -- -- -- -- --  -- -- -- -- -- -- -- --
04C0:       32 18 80 02 09 10  19 80 00 D0 04 01 DB 04    2.............
04D0: 1F 00 1A 80 1B 80 1C 80  1F 01 6F 2C F8 FF FF 7F  ..........o,....
04E0: F8 FF FF 7F 72 65 73 30  53 F8 FF FF 7F F8 FF FF  ....res0S.......
04F0: 7F 72 65 73 30 00                                 .res0.          
```

## Opcodes

```
  0: 0x04C2 [0x32] ExtData[1]->MainSpeed = 13* * 0.1
  1: 0x04C5 [0x02] IF !(Work_Zone[9] == 8*) GOTO 0x04D0
  2: 0x04CD [0x01] GOTO 0x04DB
  3: 0x04D0 [0x1F] MOVE_ENTITY: EventEntity moves to X=404.712*, Z=-75.951*, Y=-0.323*
  4: 0x04D8 [0x1F] MOVE_ENTITY: Update entity position (mode=1)
  5: 0x04DA [0x6F] WAIT_FRAME_DELAY: Yield until WaitTime reaches zero

SUBROUTINE_04DB:
  6: 0x04DB [0x2C] CREATE_SCHEDULER_TASK: Create scheduler "res0" with entities [EventEntity, EventEntity]
  7: 0x04E8 [0x53] WAIT_SCHEDULER_TASK: Wait for scheduler "res0" with entities [EventEntity, EventEntity]
  8: 0x04F5 [0x00] END_REQSTACK()
```
