# Event 229

## Metadata

| Field           | Value    |
|-----------------|----------|
| Event Index     | 4/10     |
| Offset          | 0x001E   |
| Data Size       | 28 bytes |
| Calculated Size | 28 bytes |
| Instructions    | 8        |

```
      00 01 02 03 04 05 06 07  08 09 0A 0B 0C 0D 0E 0F
      -- -- -- -- -- -- -- --  -- -- -- -- -- -- -- --
0010:                                            1E F0                ..
0020: FF FF 7F 6F 70 66 00 80  F8 FF FF 7F F8 FF FF 7F  ...opf..........
0030: 74 6C 6B 30 1D 02 80 23  21 00                    tlk0...#!.      
```

## Opcodes

```
  0: 0x001E [0x1E] EventEntity looks at LocalPlayer and starts talking
  1: 0x0023 [0x6F] WAIT_FRAME_DELAY: Yield until WaitTime reaches zero
  2: 0x0024 [0x70] WAIT_ENTITY_RENDER_FLAG: Wait while EventEntity->Render.Flags3 bit 2 is set (cancel turn if not)
  3: 0x0025 [0x66] LOAD_EXT_SCHEDULER_MAIN(work_offset=60*, entity1=EventEntity, entity2=EventEntity, action="tlk0")
  4: 0x0034 [0x1D] PRINT_EVENT_MESSAGE(message_id=10477*)
    → "This is the exit for arriving passengers.\u007F1\u0000\u0007"
  5: 0x0037 [0x23] WAIT_FOR_DIALOG_INTERACTION
  6: 0x0038 [0x21] END_EVENT
  7: 0x0039 [0x00] END_REQSTACK()
```
