# Event 65535

## Metadata

| Field           | Value    |
|-----------------|----------|
| Event Index     | 87/109   |
| Offset          | 0x0550   |
| Data Size       | 87 bytes |
| Calculated Size | 87 bytes |
| Instructions    | 7        |

```
      00 01 02 03 04 05 06 07  08 09 0A 0B 0C 0D 0E 0F
      -- -- -- -- -- -- -- --  -- -- -- -- -- -- -- --
0550: 45 5E 80 F8 FF FF 7F F8  FF FF 7F 73 30 31 32 0B  E^.........s012.
0560: 80 45 5F 80 F0 FF FF 7F  F0 FF FF 7F 66 64 69 31  .E_.........fdi1
0570: 0B 80 1C 3B 80 52 5E 80  F8 FF FF 7F F8 FF FF 7F  ...;.R^.........
0580: 73 30 31 32 45 5F 80 F0  FF FF 7F F0 FF FF 7F 6F  s012E_.........o
0590: 76 6C 31 0B 80 45 5E 80  F8 FF FF 7F F8 FF FF 7F  vl1..E^.........
05A0: 73 30 31 35 0B 80 00                              s015...         
```

## Opcodes

```
  0: 0x0550 [0x45] LOAD_SCHEDULED_TASK: Load scheduler "s012" with entities [EventEntity, EventEntity], work=[252*, 0*]
  1: 0x0561 [0x45] LOAD_SCHEDULED_TASK: Load scheduler "fdi1" with entities [LocalPlayer, LocalPlayer], work=[200*, 0*]
  2: 0x0572 [0x1C] WAIT(100* ticks)
  3: 0x0575 [0x52] END_LOAD_SCHEDULER: End scheduler "s012" with entities [EventEntity, EventEntity], work=252*
  4: 0x0584 [0x45] LOAD_SCHEDULED_TASK: Load scheduler "ovl1" with entities [LocalPlayer, LocalPlayer], work=[200*, 0*]
  5: 0x0595 [0x45] LOAD_SCHEDULED_TASK: Load scheduler "s015" with entities [EventEntity, EventEntity], work=[252*, 0*]
  6: 0x05A6 [0x00] END_REQSTACK()
```
