# Event 65535

## Metadata

| Field           | Value    |
|-----------------|----------|
| Event Index     | 98/109   |
| Offset          | 0x064C   |
| Data Size       | 94 bytes |
| Calculated Size | 94 bytes |
| Instructions    | 8        |

```
      00 01 02 03 04 05 06 07  08 09 0A 0B 0C 0D 0E 0F
      -- -- -- -- -- -- -- --  -- -- -- -- -- -- -- --
0640:                                      45 5E 80 F8              E^..
0650: FF FF 7F F8 FF FF 7F 73  30 37 30 0B 80 45 5F 80  .......s070..E_.
0660: F0 FF FF 7F F0 FF FF 7F  66 64 69 31 0B 80 1C 71  ........fdi1...q
0670: 80 52 5E 80 F8 FF FF 7F  F8 FF FF 7F 73 30 37 30  .R^.........s070
0680: 45 5F 80 F0 FF FF 7F F0  FF FF 7F 6F 76 6C 31 0B  E_.........ovl1.
0690: 80 45 5E 80 F0 FF FF 7F  F0 FF FF 7F 73 30 38 36  .E^.........s086
06A0: 0B 80 29 08 F0 FF FF 7F  51 00                    ..).....Q.      
```

## Opcodes

```
  0: 0x064C [0x45] LOAD_SCHEDULED_TASK(work_offset1=252*, entity1=EventEntity, entity2=EventEntity, scheduler_id="s070", work_offset2=0*)
  1: 0x065D [0x45] LOAD_SCHEDULED_TASK(work_offset1=200*, entity1=LocalPlayer, entity2=LocalPlayer, scheduler_id="fdi1", work_offset2=0*)
  2: 0x066E [0x1C] WAIT(90* ticks)
  3: 0x0671 [0x52] END_LOAD_SCHEDULER: End scheduler "s070" with entities [EventEntity, EventEntity], work=252*
  4: 0x0680 [0x45] LOAD_SCHEDULED_TASK(work_offset1=200*, entity1=LocalPlayer, entity2=LocalPlayer, scheduler_id="ovl1", work_offset2=0*)
  5: 0x0691 [0x45] LOAD_SCHEDULED_TASK(work_offset1=252*, entity1=LocalPlayer, entity2=LocalPlayer, scheduler_id="s086", work_offset2=0*)
  6: 0x06A2 [0x29] REQ_SET_WAIT(priority=0x08, entity_id=LocalPlayer, tag_num=0x51)
  7: 0x06A9 [0x00] END_REQSTACK()
```
