# Event 65535

## Metadata

| Field           | Value    |
|-----------------|----------|
| Event Index     | 68/109   |
| Offset          | 0x0450   |
| Data Size       | 47 bytes |
| Calculated Size | 47 bytes |
| Instructions    | 10       |

```
      00 01 02 03 04 05 06 07  08 09 0A 0B 0C 0D 0E 0F
      -- -- -- -- -- -- -- --  -- -- -- -- -- -- -- --
0450: 32 11 80 1F 00 35 80 36  80 37 80 1F 01 1F 00 38  2....5.6.7.....8
0460: 80 39 80 0B 80 1F 01 6F  62 3A 80 17 20 0F 01 17  .9.....ob:.. ...
0470: 20 0F 01 6D 61 69 6E 0B  80 1C 3B 80 22 01 00      ..main...;.".. 
```

## Opcodes

```
  0: 0x0450 [0x32] ExtData[1]->MainSpeed = 13* * 0.1
  1: 0x0453 [0x1F] MOVE_ENTITY: EventEntity moves to X=2.881*, Z=-20.741*, Y=0.249*
  2: 0x045B [0x1F] MOVE_ENTITY: Update entity position (mode=1)
  3: 0x045D [0x1F] MOVE_ENTITY: EventEntity moves to X=0.023*, Z=-33.650*, Y=0.000*
  4: 0x0465 [0x1F] MOVE_ENTITY: Update entity position (mode=1)
  5: 0x0467 [0x6F] WAIT_FRAME_DELAY: Yield until WaitTime reaches zero
  6: 0x0468 [0x62] LOAD_EVENT_SCHEDULER: Load scheduler "main" with entities [Ajido-Marujido (ID: 17768471/0x010F2017), Ajido-Marujido (ID: 17768471/0x010F2017)], work=[1*, 0*]
  7: 0x0479 [0x1C] WAIT(100* ticks)
  8: 0x047C [0x22] ENTITY_HIDE_FLAG(enabled=0x01)
  9: 0x047E [0x00] END_REQSTACK()
```
