# 17752123 - Akkeke

## Common Data

| Field            | Value                     |
|------------------|---------------------------|
| Zone             | Windurst Waters (ID: 238) |
| Block Size       | 360 bytes                 |
| Total Events     | 10                        |
| References Count | 14                        |

## List of Events

| Event ID                 | Entrypoint   |   Size |   Instructions |
|--------------------------|--------------|--------|----------------|
| [65535](#event-65535)    | 0x0000       |      1 |              1 |
| [65535.1](#event-655351) | 0x0001       |     16 |              2 |
| [65535.2](#event-655352) | 0x0011       |     22 |              4 |
| [65535.3](#event-655353) | 0x0027       |      9 |              3 |
| [427](#event-427)        | 0x0030       |     37 |             14 |
| [190](#event-190)        | 0x0055       |     29 |             10 |
| [484](#event-484)        | 0x0072       |     33 |             12 |
| [502](#event-502)        | 0x0093       |     33 |             12 |
| [453](#event-453)        | 0x00B4       |     33 |             12 |
| [468](#event-468)        | 0x00D5       |     33 |             12 |

## DAT References (imed_data)

|   Index | Hex Value   |   Dec Value |
|---------|-------------|-------------|
|       0 | 0x0055      |          85 |
|       1 | 0x001E      |          30 |
|       2 | 0x2099      |        8345 |
|       3 | 0x209A      |        8346 |
|       4 | 0x209B      |        8347 |
|       5 | 0x1E4B      |        7755 |
|       6 | 0x2117      |        8471 |
|       7 | 0x2118      |        8472 |
|       8 | 0x2144      |        8516 |
|       9 | 0x2145      |        8517 |
|      10 | 0x20D5      |        8405 |
|      11 | 0x20D6      |        8406 |
|      12 | 0x20FB      |        8443 |
|      13 | 0x20FC      |        8444 |

## String References

- **7755**: During the skills test, two Cardians are assigned to each student. How you make your party members fight is an important factor in the exam.
- **8345**: Where's our teacher, you ask? The teachers are all in the staff room, of course!
- **8346**: In the advanced grade, we learn by ourselves and only go ask the teachers for help when we don't understand something.
- **8347**: We refer to the schedules the teachers prepare for us, but we decide by ourselves which magic we should learn next, and how many days we should spend on it.
- **8405**: During the test the other day, Chomoro-Kyotoro was as white as a moogle. I wonder what kinda results he's gonna get?
- **8406**: But I'm not worried, myself. I'm on easy street!
- **8443**: Oh\`w! I got some vegetable seeds...
- **8444**: I hope they don't grow into $1. I just abhor that vegetable!
- **8471**: Falling asleep in class shows you lack excitement and motivation in your daily life.
- **8472**: When he wakes up, the next thing Paku-Nakku will know is that he's been dropped down into the beginners class!
- **8516**: Looks like Paku-Nakku finally woke up. What spell did you use on him?
- **8517**: Anyway, thank you, I guess. Even if he is such a pain, I still want us all to graduate together.

## Events

### Event 65535

#### Metadata

| Field        | Value   |
|--------------|---------|
| Entrypoint   | 0x0000  |
| Data Size    | 1 bytes |
| Instructions | 1       |

```
      00 01 02 03 04 05 06 07  08 09 0A 0B 0C 0D 0E 0F
      -- -- -- -- -- -- -- --  -- -- -- -- -- -- -- --
0000: 00                                                .               
```

#### Opcodes

```
  0: 0x0000 [0x00] END_REQSTACK()
```

### Event 65535.1

#### Metadata

| Field        | Value    |
|--------------|----------|
| Entrypoint   | 0x0001   |
| Data Size    | 16 bytes |
| Instructions | 2        |

```
      00 01 02 03 04 05 06 07  08 09 0A 0B 0C 0D 0E 0F
      -- -- -- -- -- -- -- --  -- -- -- -- -- -- -- --
0000:    5B 00 80 F8 FF FF 7F  F8 FF FF 7F 74 6C 6B 30   [..........tlk0
0010: 00                                                .               
```

#### Opcodes

```
  0: 0x0001 [0x5B] LOAD_EXT_SCHEDULER: Load scheduler "tlk0" with entities [EventEntity, EventEntity], work=85*
  1: 0x0010 [0x00] END_REQSTACK()
```

### Event 65535.2

#### Metadata

| Field        | Value    |
|--------------|----------|
| Entrypoint   | 0x0011   |
| Data Size    | 22 bytes |
| Instructions | 4        |

```
      00 01 02 03 04 05 06 07  08 09 0A 0B 0C 0D 0E 0F
      -- -- -- -- -- -- -- --  -- -- -- -- -- -- -- --
0010:    53 F8 FF FF 7F F8 FF  FF 7F 74 6C 6B 30 5E 69   S........tlk0^i
0020: 64 6C 30 1C 01 80 00                              dl0....         
```

#### Opcodes

```
  0: 0x0011 [0x53] WAIT_SCHEDULER_TASK: Wait for scheduler "tlk0" with entities [EventEntity, EventEntity]
  1: 0x001E [0x5E] EventEntity goes idle (kills current action) (animation: "idl0")
  2: 0x0023 [0x1C] WAIT(30* ticks)
  3: 0x0026 [0x00] END_REQSTACK()
```

### Event 65535.3

#### Metadata

| Field        | Value   |
|--------------|---------|
| Entrypoint   | 0x0027  |
| Data Size    | 9 bytes |
| Instructions | 3       |

```
      00 01 02 03 04 05 06 07  08 09 0A 0B 0C 0D 0E 0F
      -- -- -- -- -- -- -- --  -- -- -- -- -- -- -- --
0020:                      5E  69 64 6C 30 1C 01 80 00         ^idl0....
```

#### Opcodes

```
  0: 0x0027 [0x5E] EventEntity goes idle (kills current action) (animation: "idl0")
  1: 0x002C [0x1C] WAIT(30* ticks)
  2: 0x002F [0x00] END_REQSTACK()
```

### Event 427

#### Metadata

| Field        | Value    |
|--------------|----------|
| Entrypoint   | 0x0030   |
| Data Size    | 37 bytes |
| Instructions | 14       |

```
      00 01 02 03 04 05 06 07  08 09 0A 0B 0C 0D 0E 0F
      -- -- -- -- -- -- -- --  -- -- -- -- -- -- -- --
0030: 1E F0 FF FF 7F 6F 70 29  08 3B E0 0E 01 01 1D 02  .....op).;......
0040: 80 23 1D 03 80 23 1D 04  80 23 29 08 3B E0 0E 01  .#...#...#).;...
0050: 02 20 00 21 00                                    . .!.           
```

#### Opcodes

```
  0: 0x0030 [0x1E] EventEntity looks at LocalPlayer and starts talking
  1: 0x0035 [0x6F] WAIT_FRAME_DELAY: Yield until WaitTime reaches zero
  2: 0x0036 [0x70] WAIT_ENTITY_RENDER_FLAG: Wait while EventEntity->Render.Flags3 bit 2 is set (cancel turn if not)
  3: 0x0037 [0x29] REQ_SET_WAIT(priority=0x08, entity_id=Akkeke (ID: 17752123/0x010EE03B), tag_num=0x01)
  4: 0x003E [0x1D] PRINT_EVENT_MESSAGE(message_id=8345*)
    → "Where's our teacher, you ask? The teachers are all in the staff room, of course!"
  5: 0x0041 [0x23] WAIT_FOR_DIALOG_INTERACTION
  6: 0x0042 [0x1D] PRINT_EVENT_MESSAGE(message_id=8346*)
    → "In the advanced grade, we learn by ourselves and only go ask the teachers for help when we don't understand something."
  7: 0x0045 [0x23] WAIT_FOR_DIALOG_INTERACTION
  8: 0x0046 [0x1D] PRINT_EVENT_MESSAGE(message_id=8347*)
    → "We refer to the schedules the teachers prepare for us, but we decide by ourselves which magic we should learn next, and how many days we should spend on it."
  9: 0x0049 [0x23] WAIT_FOR_DIALOG_INTERACTION
 10: 0x004A [0x29] REQ_SET_WAIT(priority=0x08, entity_id=Akkeke (ID: 17752123/0x010EE03B), tag_num=0x02)
 11: 0x0051 [0x20] SET_CLI_EVENT_UC_FLAG: Unlock player control
 12: 0x0053 [0x21] END_EVENT
 13: 0x0054 [0x00] END_REQSTACK()
```

### Event 190

#### Metadata

| Field        | Value    |
|--------------|----------|
| Entrypoint   | 0x0055   |
| Data Size    | 29 bytes |
| Instructions | 10       |

```
      00 01 02 03 04 05 06 07  08 09 0A 0B 0C 0D 0E 0F
      -- -- -- -- -- -- -- --  -- -- -- -- -- -- -- --
0050:                1E F0 FF  FF 7F 6F 70 29 08 3B E0       .....op).;.
0060: 0E 01 01 1D 05 80 23 29  08 3B E0 0E 01 02 20 00  ......#).;.... .
0070: 21 00                                             !.              
```

#### Opcodes

```
  0: 0x0055 [0x1E] EventEntity looks at LocalPlayer and starts talking
  1: 0x005A [0x6F] WAIT_FRAME_DELAY: Yield until WaitTime reaches zero
  2: 0x005B [0x70] WAIT_ENTITY_RENDER_FLAG: Wait while EventEntity->Render.Flags3 bit 2 is set (cancel turn if not)
  3: 0x005C [0x29] REQ_SET_WAIT(priority=0x08, entity_id=Akkeke (ID: 17752123/0x010EE03B), tag_num=0x01)
  4: 0x0063 [0x1D] PRINT_EVENT_MESSAGE(message_id=7755*)
    → "During the skills test, two Cardians are assigned to each student. How you make your party members fight is an important factor in the exam."
  5: 0x0066 [0x23] WAIT_FOR_DIALOG_INTERACTION
  6: 0x0067 [0x29] REQ_SET_WAIT(priority=0x08, entity_id=Akkeke (ID: 17752123/0x010EE03B), tag_num=0x02)
  7: 0x006E [0x20] SET_CLI_EVENT_UC_FLAG: Unlock player control
  8: 0x0070 [0x21] END_EVENT
  9: 0x0071 [0x00] END_REQSTACK()
```

### Event 484

#### Metadata

| Field        | Value    |
|--------------|----------|
| Entrypoint   | 0x0072   |
| Data Size    | 33 bytes |
| Instructions | 12       |

```
      00 01 02 03 04 05 06 07  08 09 0A 0B 0C 0D 0E 0F
      -- -- -- -- -- -- -- --  -- -- -- -- -- -- -- --
0070:       1E F0 FF FF 7F 6F  70 29 08 3B E0 0E 01 01    .....op).;....
0080: 1D 06 80 23 1D 07 80 23  29 08 3B E0 0E 01 02 20  ...#...#).;.... 
0090: 00 21 00                                          .!.             
```

#### Opcodes

```
  0: 0x0072 [0x1E] EventEntity looks at LocalPlayer and starts talking
  1: 0x0077 [0x6F] WAIT_FRAME_DELAY: Yield until WaitTime reaches zero
  2: 0x0078 [0x70] WAIT_ENTITY_RENDER_FLAG: Wait while EventEntity->Render.Flags3 bit 2 is set (cancel turn if not)
  3: 0x0079 [0x29] REQ_SET_WAIT(priority=0x08, entity_id=Akkeke (ID: 17752123/0x010EE03B), tag_num=0x01)
  4: 0x0080 [0x1D] PRINT_EVENT_MESSAGE(message_id=8471*)
    → "Falling asleep in class shows you lack excitement and motivation in your daily life."
  5: 0x0083 [0x23] WAIT_FOR_DIALOG_INTERACTION
  6: 0x0084 [0x1D] PRINT_EVENT_MESSAGE(message_id=8472*)
    → "When he wakes up, the next thing Paku-Nakku will know is that he's been dropped down into the beginners class!"
  7: 0x0087 [0x23] WAIT_FOR_DIALOG_INTERACTION
  8: 0x0088 [0x29] REQ_SET_WAIT(priority=0x08, entity_id=Akkeke (ID: 17752123/0x010EE03B), tag_num=0x02)
  9: 0x008F [0x20] SET_CLI_EVENT_UC_FLAG: Unlock player control
 10: 0x0091 [0x21] END_EVENT
 11: 0x0092 [0x00] END_REQSTACK()
```

### Event 502

#### Metadata

| Field        | Value    |
|--------------|----------|
| Entrypoint   | 0x0093   |
| Data Size    | 33 bytes |
| Instructions | 12       |

```
      00 01 02 03 04 05 06 07  08 09 0A 0B 0C 0D 0E 0F
      -- -- -- -- -- -- -- --  -- -- -- -- -- -- -- --
0090:          1E F0 FF FF 7F  6F 70 29 08 3B E0 0E 01     .....op).;...
00A0: 01 1D 08 80 23 1D 09 80  23 29 08 3B E0 0E 01 02  ....#...#).;....
00B0: 20 00 21 00                                        .!.            
```

#### Opcodes

```
  0: 0x0093 [0x1E] EventEntity looks at LocalPlayer and starts talking
  1: 0x0098 [0x6F] WAIT_FRAME_DELAY: Yield until WaitTime reaches zero
  2: 0x0099 [0x70] WAIT_ENTITY_RENDER_FLAG: Wait while EventEntity->Render.Flags3 bit 2 is set (cancel turn if not)
  3: 0x009A [0x29] REQ_SET_WAIT(priority=0x08, entity_id=Akkeke (ID: 17752123/0x010EE03B), tag_num=0x01)
  4: 0x00A1 [0x1D] PRINT_EVENT_MESSAGE(message_id=8516*)
    → "Looks like Paku-Nakku finally woke up. What spell did you use on him?"
  5: 0x00A4 [0x23] WAIT_FOR_DIALOG_INTERACTION
  6: 0x00A5 [0x1D] PRINT_EVENT_MESSAGE(message_id=8517*)
    → "Anyway, thank you, I guess. Even if he is such a pain, I still want us all to graduate together."
  7: 0x00A8 [0x23] WAIT_FOR_DIALOG_INTERACTION
  8: 0x00A9 [0x29] REQ_SET_WAIT(priority=0x08, entity_id=Akkeke (ID: 17752123/0x010EE03B), tag_num=0x02)
  9: 0x00B0 [0x20] SET_CLI_EVENT_UC_FLAG: Unlock player control
 10: 0x00B2 [0x21] END_EVENT
 11: 0x00B3 [0x00] END_REQSTACK()
```

### Event 453

#### Metadata

| Field        | Value    |
|--------------|----------|
| Entrypoint   | 0x00B4   |
| Data Size    | 33 bytes |
| Instructions | 12       |

```
      00 01 02 03 04 05 06 07  08 09 0A 0B 0C 0D 0E 0F
      -- -- -- -- -- -- -- --  -- -- -- -- -- -- -- --
00B0:             1E F0 FF FF  7F 6F 70 29 08 3B E0 0E      .....op).;..
00C0: 01 01 1D 0A 80 23 1D 0B  80 23 29 08 3B E0 0E 01  .....#...#).;...
00D0: 02 20 00 21 00                                    . .!.           
```

#### Opcodes

```
  0: 0x00B4 [0x1E] EventEntity looks at LocalPlayer and starts talking
  1: 0x00B9 [0x6F] WAIT_FRAME_DELAY: Yield until WaitTime reaches zero
  2: 0x00BA [0x70] WAIT_ENTITY_RENDER_FLAG: Wait while EventEntity->Render.Flags3 bit 2 is set (cancel turn if not)
  3: 0x00BB [0x29] REQ_SET_WAIT(priority=0x08, entity_id=Akkeke (ID: 17752123/0x010EE03B), tag_num=0x01)
  4: 0x00C2 [0x1D] PRINT_EVENT_MESSAGE(message_id=8405*)
    → "During the test the other day, Chomoro-Kyotoro was as white as a moogle. I wonder what kinda results he's gonna get?"
  5: 0x00C5 [0x23] WAIT_FOR_DIALOG_INTERACTION
  6: 0x00C6 [0x1D] PRINT_EVENT_MESSAGE(message_id=8406*)
    → "But I'm not worried, myself. I'm on easy street!"
  7: 0x00C9 [0x23] WAIT_FOR_DIALOG_INTERACTION
  8: 0x00CA [0x29] REQ_SET_WAIT(priority=0x08, entity_id=Akkeke (ID: 17752123/0x010EE03B), tag_num=0x02)
  9: 0x00D1 [0x20] SET_CLI_EVENT_UC_FLAG: Unlock player control
 10: 0x00D3 [0x21] END_EVENT
 11: 0x00D4 [0x00] END_REQSTACK()
```

### Event 468

#### Metadata

| Field        | Value    |
|--------------|----------|
| Entrypoint   | 0x00D5   |
| Data Size    | 33 bytes |
| Instructions | 12       |

```
      00 01 02 03 04 05 06 07  08 09 0A 0B 0C 0D 0E 0F
      -- -- -- -- -- -- -- --  -- -- -- -- -- -- -- --
00D0:                1E F0 FF  FF 7F 6F 70 29 08 3B E0       .....op).;.
00E0: 0E 01 01 1D 0C 80 23 1D  0D 80 23 29 08 3B E0 0E  ......#...#).;..
00F0: 01 02 20 00 21 00                                 .. .!.          
```

#### Opcodes

```
  0: 0x00D5 [0x1E] EventEntity looks at LocalPlayer and starts talking
  1: 0x00DA [0x6F] WAIT_FRAME_DELAY: Yield until WaitTime reaches zero
  2: 0x00DB [0x70] WAIT_ENTITY_RENDER_FLAG: Wait while EventEntity->Render.Flags3 bit 2 is set (cancel turn if not)
  3: 0x00DC [0x29] REQ_SET_WAIT(priority=0x08, entity_id=Akkeke (ID: 17752123/0x010EE03B), tag_num=0x01)
  4: 0x00E3 [0x1D] PRINT_EVENT_MESSAGE(message_id=8443*)
    → "Oh`w! I got some vegetable seeds..."
  5: 0x00E6 [0x23] WAIT_FOR_DIALOG_INTERACTION
  6: 0x00E7 [0x1D] PRINT_EVENT_MESSAGE(message_id=8444*)
    → "I hope they don't grow into $1. I just abhor that vegetable!"
  7: 0x00EA [0x23] WAIT_FOR_DIALOG_INTERACTION
  8: 0x00EB [0x29] REQ_SET_WAIT(priority=0x08, entity_id=Akkeke (ID: 17752123/0x010EE03B), tag_num=0x02)
  9: 0x00F2 [0x20] SET_CLI_EVENT_UC_FLAG: Unlock player control
 10: 0x00F4 [0x21] END_EVENT
 11: 0x00F5 [0x00] END_REQSTACK()
```
