# 17752118 - Fuepepe

## Common Data

| Field            | Value                     |
|------------------|---------------------------|
| Zone             | Windurst Waters (ID: 238) |
| Block Size       | 1560 bytes                |
| Total Events     | 43                        |
| References Count | 49                        |

## List of Events

| Event ID                   | Entrypoint   |   Size |   Instructions |
|----------------------------|--------------|--------|----------------|
| [65535](#event-65535)      | 0x0000       |      1 |              1 |
| [65535.1](#event-655351)   | 0x0001       |     16 |              2 |
| [65535.2](#event-655352)   | 0x0011       |     22 |              4 |
| [65535.3](#event-655353)   | 0x0027       |     16 |              2 |
| [65535.4](#event-655354)   | 0x0037       |     14 |              2 |
| [65535.5](#event-655355)   | 0x0045       |     16 |              2 |
| [65535.6](#event-655356)   | 0x0055       |     14 |              2 |
| [65535.7](#event-655357)   | 0x0063       |     16 |              2 |
| [65535.8](#event-655358)   | 0x0073       |     14 |              2 |
| [65535.9](#event-655359)   | 0x0081       |     16 |              2 |
| [65535.10](#event-6553510) | 0x0091       |     14 |              2 |
| [65535.11](#event-6553511) | 0x009F       |     16 |              2 |
| [65535.12](#event-6553512) | 0x00AF       |     14 |              2 |
| [65535.13](#event-6553513) | 0x00BD       |     16 |              2 |
| [65535.14](#event-6553514) | 0x00CD       |     14 |              2 |
| [65535.15](#event-6553515) | 0x00DB       |     16 |              2 |
| [65535.16](#event-6553516) | 0x00EB       |     14 |              2 |
| [65535.17](#event-6553517) | 0x00F9       |     16 |              2 |
| [65535.18](#event-6553518) | 0x0109       |     22 |              4 |
| [65535.19](#event-6553519) | 0x011F       |     16 |              2 |
| [65535.20](#event-6553520) | 0x012F       |     14 |              2 |
| [65535.21](#event-6553521) | 0x013D       |      9 |              3 |
| [182](#event-182)          | 0x0146       |      1 |              1 |
| [423](#event-423)          | 0x0147       |     33 |             12 |
| [186](#event-186)          | 0x0168       |     33 |             12 |
| [493](#event-493)          | 0x0189       |     33 |             12 |
| [442](#event-442)          | 0x01AA       |     72 |             17 |
| [65535.22](#event-6553522) | 0x01F2       |     41 |             11 |
| [65535.23](#event-6553523) | 0x021B       |     37 |              9 |
| [65535.24](#event-6553524) | 0x0240       |      5 |              3 |
| [443](#event-443)          | 0x0245       |     33 |             12 |
| [455](#event-455)          | 0x0266       |     18 |              7 |
| [65535.25](#event-6553525) | 0x0278       |     44 |             10 |
| [456](#event-456)          | 0x02A4       |     47 |             14 |
| [458](#event-458)          | 0x02D3       |     43 |             10 |
| [65535.26](#event-6553526) | 0x02FE       |     55 |             13 |
| [65535.27](#event-6553527) | 0x0335       |     19 |              5 |
| [459](#event-459)          | 0x0348       |     47 |             14 |
| [755](#event-755)          | 0x0377       |     47 |             14 |
| [761](#event-761)          | 0x03A6       |     47 |             14 |
| [545](#event-545)          | 0x03D5       |     73 |             22 |
| [546](#event-546)          | 0x041E       |     33 |             12 |
| [817](#event-817)          | 0x043F       |     86 |             25 |

## DAT References (imed_data)

|   Index | Hex Value   |   Dec Value |
|---------|-------------|-------------|
|       0 | 0x0028      |          40 |
|       1 | 0x001E      |          30 |
|       2 | 0x002A      |          42 |
|       3 | 0x2092      |        8338 |
|       4 | 0x2093      |        8339 |
|       5 | 0x1E45      |        7749 |
|       6 | 0x1E46      |        7750 |
|       7 | 0x2128      |        8488 |
|       8 | 0x2129      |        8489 |
|       9 | 0x20BE      |        8382 |
|      10 | 0x0000      |           0 |
|      11 | 0x0001      |           1 |
|      12 | 0x0002      |           2 |
|      13 | 0x20BB      |        8379 |
|      14 | 0x20BC      |        8380 |
|      15 | 0x20BD      |        8381 |
|      16 | 0x20BF      |        8383 |
|      17 | 0x20C0      |        8384 |
|      18 | 0x20C1      |        8385 |
|      19 | 0x20C2      |        8386 |
|      20 | 0x20C3      |        8387 |
|      21 | 0x20D9      |        8409 |
|      22 | 0x20DA      |        8410 |
|      23 | 0x20DB      |        8411 |
|      24 | 0x20DC      |        8412 |
|      25 | 0x00C9      |         201 |
|      26 | 0x20DF      |        8415 |
|      27 | 0x20E0      |        8416 |
|      28 | 0x20E1      |        8417 |
|      29 | 0x20E2      |        8418 |
|      30 | 0x20E3      |        8419 |
|      31 | 0x20E4      |        8420 |
|      32 | 0x263C      |        9788 |
|      33 | 0x263D      |        9789 |
|      34 | 0x264C      |        9804 |
|      35 | 0x264D      |        9805 |
|      36 | 0x2233      |        8755 |
|      37 | 0x2234      |        8756 |
|      38 | 0x2235      |        8757 |
|      39 | 0x2236      |        8758 |
|      40 | 0x2237      |        8759 |
|      41 | 0x2238      |        8760 |
|      42 | 0x2239      |        8761 |
|      43 | 0x2736      |       10038 |
|      44 | 0x2737      |       10039 |
|      45 | 0x0006      |           6 |
|      46 | 0x2738      |       10040 |
|      47 | 0x2739      |       10041 |
|      48 | 0x273A      |       10042 |

## String References

- **7749**: The Aurastery's School of Magic was creatively created to expansively expand the able abilities of child geniuses with the motto "Wisely, Strongly, Correctly."
- **7750**: Our skills guidance and testing promotively promote the "strongly" part of that motto. We truly appreciate your cooperative cooperation.
- **8338**: Every student is differently different. Unless one strives to understandingly understand each individual, one cannot educatedly educate in the fullest sense of the word.
- **8339**: At the very least, one should try to rememberingly remember their students' names... I'm not pointedly pointing the finger at anyone in particular here, but...
- **8379**: My dear adventurer... are you busy now? I have a problematic problem you may be able to help me with.
- **8380**: This is a matter that could sully our school's reputable reputation, so it is rather hard to ask, but... Yesterday, we had a burglary at our staff room here.
- **8381**: The only thing stolen was a pile of students' answer sheets. If it is possibly possible, I'd be greatly grateful if you could find them and bring them back to me.
- **8382**: Helpfully help the teacher out? [Acceptingly accept./Decliningly decline.]
- **8383**: I don't care who stolidly stole them. I just want my students' test answers back. Please help me.
- **8384**: I need to check the answers and see where each and every one of my students went wrong.
- **8385**: ......
- **8386**: It's my faulty fault. I should never have left them on my desk when I went outside. There's no forgiving my negligent negligence.
- **8387**: Please bring back the answer papers to me. Without them, I can't gradually grade my students. Learning starts from recognizably recognizing one's mistakes, you know?
- **8409**: Oh, looky-look at the answer sheets! They're all so tattered and torn. Why, I can't make heads or tails out of them.
- **8410**: But at least they're back in our possessive possession. Say, could you take them to the principal for me?
- **8411**: Please take the answer sheets to the principal. Thankingly thanking you.
- **8412**: ...Oh dearie-dear? Don't tell me you don't knowingly know who the principal is? Why, I thought everyone knew he was the eccentrically eccentric old man who livenly lives in a manor in Windurst Walls.
- **8415**: Goodness gracious! Chomoro-Kyotoro's answer paper was missing? My, isn't that strangely strange? Why, I counted them myself and was surely sure there was one from every student.
- **8416**: I guessingly guess it can't be helped then... We'll just have to make young master Chomoro-Kyotoro sit the test again.
- **8417**: He was a little under the weather last examination, so I hope his effortful efforts since then bear fruit and his resultant results this time 'round are better.
- **8418**: Here is your requitable requital. I hope you find it satisfactorily satisfactory. Thank you for your assisting assistance.
- **8419**: The principal himself has had the experienced experience of failing the grade and being sent down a class...quite a few timely times too, I may addingly add.
- **8420**: On the surface he appears inscrutably inscrutable, irresponsibly irresponsible and absurdly absurd, but he's actually considerately considerate, you know.
- **8488**: It's rather hard to say that Mr. Pechiru-Mashiru is respectingly respected by his studious students, let alone his peerless peers!
- **8489**: He should take a hardy hard look at himself as an educated educator.
- **8755**: Alchemical Alchemy? Now that you mention it, ever so long ago, a student wrote a graduation thesis on such a dubiously dubious topic...
- **8756**: If I rememberingly remember, the principal at the time orderly ordered that student to stay back another year.
- **8757**: What? You wantingly want to read that student's graduation thesis?
- **8758**: It shouldn't be a problematic problem... Ask Katzun-Nattzun at the Acolyte Hostel to help find it for you.
- **8759**: The hostel is the humongously huge building to the north of here.
- **8760**: Graduation theses are tests to indicatingly indicate whether the students are able to graduate from the School of Magic.
- **8761**: Katzun-Nattzun should knowingly know where that thesis is. You'll find him in the Acolyte Hostel, a humongously huge building to the north of here.
- **9788**: When our new principal disappearingly disappeared it didn't come as much of a shock, but without anyone to replacingly replace him, the Aurastery was in quite a fix.
- **9789**: ...What's that? Me? Oh no, no, no, far too troublingly troublesome.
- **9804**: Sedal-Godjal had a completely different nature to Professor Koru-Moru. I supposingly suppose that some people just can't enduringly endure certain hardships.
- **9805**: ...Hm? Me? I have overcomingly overcome such trivial trivialities. I am aware that all things in this world are transiently transient.
- **10038**: Uran-Mafran... It's been a long time since I've heard that name. He's been missingly missing since we were classmates at school.
- **10039**: ...I see. He encountered Ildy-Goldy in the Outlands? Ildy-Goldy would have been the last person he would have wanted to meetingly meet.
- **10040**: Why, you ask...? Haven't you heard the rumors about the incident that occuringly occurred in the Dark Dungeon?
- **10041**: I believingly believe he stole everyone's memories and left Windurst to avoid the repercussions of that crime.
- **10042**: ...But your warning is well taken. We'll be careful to watchingly watch out for any trouble. I don't know how much help I'll be, but I will gatheringly gather what information I can.

## Events

### Event 65535

#### Metadata

| Field        | Value   |
|--------------|---------|
| Entrypoint   | 0x0000  |
| Data Size    | 1 bytes |
| Instructions | 1       |

```
      00 01 02 03 04 05 06 07  08 09 0A 0B 0C 0D 0E 0F
      -- -- -- -- -- -- -- --  -- -- -- -- -- -- -- --
0000: 00                                                .               
```

#### Opcodes

```
  0: 0x0000 [0x00] END_REQSTACK()
```

### Event 65535.1

#### Metadata

| Field        | Value    |
|--------------|----------|
| Entrypoint   | 0x0001   |
| Data Size    | 16 bytes |
| Instructions | 2        |

```
      00 01 02 03 04 05 06 07  08 09 0A 0B 0C 0D 0E 0F
      -- -- -- -- -- -- -- --  -- -- -- -- -- -- -- --
0000:    66 00 80 F8 FF FF 7F  F8 FF FF 7F 74 6C 6B 30   f..........tlk0
0010: 00                                                .               
```

#### Opcodes

```
  0: 0x0001 [0x66] LOAD_EXT_SCHEDULER_MAIN: Load scheduler "tlk0" with entities [EventEntity, EventEntity], work=40*
  1: 0x0010 [0x00] END_REQSTACK()
```

### Event 65535.2

#### Metadata

| Field        | Value    |
|--------------|----------|
| Entrypoint   | 0x0011   |
| Data Size    | 22 bytes |
| Instructions | 4        |

```
      00 01 02 03 04 05 06 07  08 09 0A 0B 0C 0D 0E 0F
      -- -- -- -- -- -- -- --  -- -- -- -- -- -- -- --
0010:    53 F8 FF FF 7F F8 FF  FF 7F 74 6C 6B 30 5E 69   S........tlk0^i
0020: 64 6C 30 1C 01 80 00                              dl0....         
```

#### Opcodes

```
  0: 0x0011 [0x53] WAIT_SCHEDULER_TASK: Wait for scheduler "tlk0" with entities [EventEntity, EventEntity]
  1: 0x001E [0x5E] EventEntity goes idle (kills current action) (animation: "idl0")
  2: 0x0023 [0x1C] WAIT(30* ticks)
  3: 0x0026 [0x00] END_REQSTACK()
```

### Event 65535.3

#### Metadata

| Field        | Value    |
|--------------|----------|
| Entrypoint   | 0x0027   |
| Data Size    | 16 bytes |
| Instructions | 2        |

```
      00 01 02 03 04 05 06 07  08 09 0A 0B 0C 0D 0E 0F
      -- -- -- -- -- -- -- --  -- -- -- -- -- -- -- --
0020:                      66  00 80 F8 FF FF 7F F8 FF         f........
0030: FF 7F 74 68 6B 31 00                              ..thk1.         
```

#### Opcodes

```
  0: 0x0027 [0x66] LOAD_EXT_SCHEDULER_MAIN: Load scheduler "thk1" with entities [EventEntity, EventEntity], work=40*
  1: 0x0036 [0x00] END_REQSTACK()
```

### Event 65535.4

#### Metadata

| Field        | Value    |
|--------------|----------|
| Entrypoint   | 0x0037   |
| Data Size    | 14 bytes |
| Instructions | 2        |

```
      00 01 02 03 04 05 06 07  08 09 0A 0B 0C 0D 0E 0F
      -- -- -- -- -- -- -- --  -- -- -- -- -- -- -- --
0030:                      53  F8 FF FF 7F F8 FF FF 7F         S........
0040: 74 68 6B 31 00                                    thk1.           
```

#### Opcodes

```
  0: 0x0037 [0x53] WAIT_SCHEDULER_TASK: Wait for scheduler "thk1" with entities [EventEntity, EventEntity]
  1: 0x0044 [0x00] END_REQSTACK()
```

### Event 65535.5

#### Metadata

| Field        | Value    |
|--------------|----------|
| Entrypoint   | 0x0045   |
| Data Size    | 16 bytes |
| Instructions | 2        |

```
      00 01 02 03 04 05 06 07  08 09 0A 0B 0C 0D 0E 0F
      -- -- -- -- -- -- -- --  -- -- -- -- -- -- -- --
0040:                66 00 80  F8 FF FF 7F F8 FF FF 7F       f..........
0050: 74 68 6B 32 00                                    thk2.           
```

#### Opcodes

```
  0: 0x0045 [0x66] LOAD_EXT_SCHEDULER_MAIN: Load scheduler "thk2" with entities [EventEntity, EventEntity], work=40*
  1: 0x0054 [0x00] END_REQSTACK()
```

### Event 65535.6

#### Metadata

| Field        | Value    |
|--------------|----------|
| Entrypoint   | 0x0055   |
| Data Size    | 14 bytes |
| Instructions | 2        |

```
      00 01 02 03 04 05 06 07  08 09 0A 0B 0C 0D 0E 0F
      -- -- -- -- -- -- -- --  -- -- -- -- -- -- -- --
0050:                53 F8 FF  FF 7F F8 FF FF 7F 74 68       S........th
0060: 6B 32 00                                          k2.             
```

#### Opcodes

```
  0: 0x0055 [0x53] WAIT_SCHEDULER_TASK: Wait for scheduler "thk2" with entities [EventEntity, EventEntity]
  1: 0x0062 [0x00] END_REQSTACK()
```

### Event 65535.7

#### Metadata

| Field        | Value    |
|--------------|----------|
| Entrypoint   | 0x0063   |
| Data Size    | 16 bytes |
| Instructions | 2        |

```
      00 01 02 03 04 05 06 07  08 09 0A 0B 0C 0D 0E 0F
      -- -- -- -- -- -- -- --  -- -- -- -- -- -- -- --
0060:          66 00 80 F8 FF  FF 7F F8 FF FF 7F 70 6F     f..........po
0070: 69 30 00                                          i0.             
```

#### Opcodes

```
  0: 0x0063 [0x66] LOAD_EXT_SCHEDULER_MAIN: Load scheduler "poi0" with entities [EventEntity, EventEntity], work=40*
  1: 0x0072 [0x00] END_REQSTACK()
```

### Event 65535.8

#### Metadata

| Field        | Value    |
|--------------|----------|
| Entrypoint   | 0x0073   |
| Data Size    | 14 bytes |
| Instructions | 2        |

```
      00 01 02 03 04 05 06 07  08 09 0A 0B 0C 0D 0E 0F
      -- -- -- -- -- -- -- --  -- -- -- -- -- -- -- --
0070:          53 F8 FF FF 7F  F8 FF FF 7F 70 6F 69 30     S........poi0
0080: 00                                                .               
```

#### Opcodes

```
  0: 0x0073 [0x53] WAIT_SCHEDULER_TASK: Wait for scheduler "poi0" with entities [EventEntity, EventEntity]
  1: 0x0080 [0x00] END_REQSTACK()
```

### Event 65535.9

#### Metadata

| Field        | Value    |
|--------------|----------|
| Entrypoint   | 0x0081   |
| Data Size    | 16 bytes |
| Instructions | 2        |

```
      00 01 02 03 04 05 06 07  08 09 0A 0B 0C 0D 0E 0F
      -- -- -- -- -- -- -- --  -- -- -- -- -- -- -- --
0080:    66 00 80 F8 FF FF 7F  F8 FF FF 7F 70 61 73 30   f..........pas0
0090: 00                                                .               
```

#### Opcodes

```
  0: 0x0081 [0x66] LOAD_EXT_SCHEDULER_MAIN: Load scheduler "pas0" with entities [EventEntity, EventEntity], work=40*
  1: 0x0090 [0x00] END_REQSTACK()
```

### Event 65535.10

#### Metadata

| Field        | Value    |
|--------------|----------|
| Entrypoint   | 0x0091   |
| Data Size    | 14 bytes |
| Instructions | 2        |

```
      00 01 02 03 04 05 06 07  08 09 0A 0B 0C 0D 0E 0F
      -- -- -- -- -- -- -- --  -- -- -- -- -- -- -- --
0090:    53 F8 FF FF 7F F8 FF  FF 7F 70 61 73 30 00      S........pas0. 
```

#### Opcodes

```
  0: 0x0091 [0x53] WAIT_SCHEDULER_TASK: Wait for scheduler "pas0" with entities [EventEntity, EventEntity]
  1: 0x009E [0x00] END_REQSTACK()
```

### Event 65535.11

#### Metadata

| Field        | Value    |
|--------------|----------|
| Entrypoint   | 0x009F   |
| Data Size    | 16 bytes |
| Instructions | 2        |

```
      00 01 02 03 04 05 06 07  08 09 0A 0B 0C 0D 0E 0F
      -- -- -- -- -- -- -- --  -- -- -- -- -- -- -- --
0090:                                               66                 f
00A0: 00 80 F8 FF FF 7F F8 FF  FF 7F 73 79 75 30 00     ..........syu0. 
```

#### Opcodes

```
  0: 0x009F [0x66] LOAD_EXT_SCHEDULER_MAIN: Load scheduler "syu0" with entities [EventEntity, EventEntity], work=40*
  1: 0x00AE [0x00] END_REQSTACK()
```

### Event 65535.12

#### Metadata

| Field        | Value    |
|--------------|----------|
| Entrypoint   | 0x00AF   |
| Data Size    | 14 bytes |
| Instructions | 2        |

```
      00 01 02 03 04 05 06 07  08 09 0A 0B 0C 0D 0E 0F
      -- -- -- -- -- -- -- --  -- -- -- -- -- -- -- --
00A0:                                               53                 S
00B0: F8 FF FF 7F F8 FF FF 7F  73 79 75 30 00           ........syu0.   
```

#### Opcodes

```
  0: 0x00AF [0x53] WAIT_SCHEDULER_TASK: Wait for scheduler "syu0" with entities [EventEntity, EventEntity]
  1: 0x00BC [0x00] END_REQSTACK()
```

### Event 65535.13

#### Metadata

| Field        | Value    |
|--------------|----------|
| Entrypoint   | 0x00BD   |
| Data Size    | 16 bytes |
| Instructions | 2        |

```
      00 01 02 03 04 05 06 07  08 09 0A 0B 0C 0D 0E 0F
      -- -- -- -- -- -- -- --  -- -- -- -- -- -- -- --
00B0:                                         66 00 80               f..
00C0: F8 FF FF 7F F8 FF FF 7F  64 69 73 30 00           ........dis0.   
```

#### Opcodes

```
  0: 0x00BD [0x66] LOAD_EXT_SCHEDULER_MAIN: Load scheduler "dis0" with entities [EventEntity, EventEntity], work=40*
  1: 0x00CC [0x00] END_REQSTACK()
```

### Event 65535.14

#### Metadata

| Field        | Value    |
|--------------|----------|
| Entrypoint   | 0x00CD   |
| Data Size    | 14 bytes |
| Instructions | 2        |

```
      00 01 02 03 04 05 06 07  08 09 0A 0B 0C 0D 0E 0F
      -- -- -- -- -- -- -- --  -- -- -- -- -- -- -- --
00C0:                                         53 F8 FF               S..
00D0: FF 7F F8 FF FF 7F 64 69  73 30 00                 ......dis0.     
```

#### Opcodes

```
  0: 0x00CD [0x53] WAIT_SCHEDULER_TASK: Wait for scheduler "dis0" with entities [EventEntity, EventEntity]
  1: 0x00DA [0x00] END_REQSTACK()
```

### Event 65535.15

#### Metadata

| Field        | Value    |
|--------------|----------|
| Entrypoint   | 0x00DB   |
| Data Size    | 16 bytes |
| Instructions | 2        |

```
      00 01 02 03 04 05 06 07  08 09 0A 0B 0C 0D 0E 0F
      -- -- -- -- -- -- -- --  -- -- -- -- -- -- -- --
00D0:                                   66 00 80 F8 FF             f....
00E0: FF 7F F8 FF FF 7F 77 61  69 30 00                 ......wai0.     
```

#### Opcodes

```
  0: 0x00DB [0x66] LOAD_EXT_SCHEDULER_MAIN: Load scheduler "wai0" with entities [EventEntity, EventEntity], work=40*
  1: 0x00EA [0x00] END_REQSTACK()
```

### Event 65535.16

#### Metadata

| Field        | Value    |
|--------------|----------|
| Entrypoint   | 0x00EB   |
| Data Size    | 14 bytes |
| Instructions | 2        |

```
      00 01 02 03 04 05 06 07  08 09 0A 0B 0C 0D 0E 0F
      -- -- -- -- -- -- -- --  -- -- -- -- -- -- -- --
00E0:                                   53 F8 FF FF 7F             S....
00F0: F8 FF FF 7F 77 61 69 30  00                       ....wai0.       
```

#### Opcodes

```
  0: 0x00EB [0x53] WAIT_SCHEDULER_TASK: Wait for scheduler "wai0" with entities [EventEntity, EventEntity]
  1: 0x00F8 [0x00] END_REQSTACK()
```

### Event 65535.17

#### Metadata

| Field        | Value    |
|--------------|----------|
| Entrypoint   | 0x00F9   |
| Data Size    | 16 bytes |
| Instructions | 2        |

```
      00 01 02 03 04 05 06 07  08 09 0A 0B 0C 0D 0E 0F
      -- -- -- -- -- -- -- --  -- -- -- -- -- -- -- --
00F0:                             66 02 80 F8 FF FF 7F           f......
0100: F8 FF FF 7F 62 69 6B 30  00                       ....bik0.       
```

#### Opcodes

```
  0: 0x00F9 [0x66] LOAD_EXT_SCHEDULER_MAIN: Load scheduler "bik0" with entities [EventEntity, EventEntity], work=42*
  1: 0x0108 [0x00] END_REQSTACK()
```

### Event 65535.18

#### Metadata

| Field        | Value    |
|--------------|----------|
| Entrypoint   | 0x0109   |
| Data Size    | 22 bytes |
| Instructions | 4        |

```
      00 01 02 03 04 05 06 07  08 09 0A 0B 0C 0D 0E 0F
      -- -- -- -- -- -- -- --  -- -- -- -- -- -- -- --
0100:                             53 F8 FF FF 7F F8 FF           S......
0110: FF 7F 62 69 6B 30 5E 69  64 6C 30 1C 01 80 00     ..bik0^idl0.... 
```

#### Opcodes

```
  0: 0x0109 [0x53] WAIT_SCHEDULER_TASK: Wait for scheduler "bik0" with entities [EventEntity, EventEntity]
  1: 0x0116 [0x5E] EventEntity goes idle (kills current action) (animation: "idl0")
  2: 0x011B [0x1C] WAIT(30* ticks)
  3: 0x011E [0x00] END_REQSTACK()
```

### Event 65535.19

#### Metadata

| Field        | Value    |
|--------------|----------|
| Entrypoint   | 0x011F   |
| Data Size    | 16 bytes |
| Instructions | 2        |

```
      00 01 02 03 04 05 06 07  08 09 0A 0B 0C 0D 0E 0F
      -- -- -- -- -- -- -- --  -- -- -- -- -- -- -- --
0110:                                               66                 f
0120: 02 80 F8 FF FF 7F F8 FF  FF 7F 62 69 6B 31 00     ..........bik1. 
```

#### Opcodes

```
  0: 0x011F [0x66] LOAD_EXT_SCHEDULER_MAIN: Load scheduler "bik1" with entities [EventEntity, EventEntity], work=42*
  1: 0x012E [0x00] END_REQSTACK()
```

### Event 65535.20

#### Metadata

| Field        | Value    |
|--------------|----------|
| Entrypoint   | 0x012F   |
| Data Size    | 14 bytes |
| Instructions | 2        |

```
      00 01 02 03 04 05 06 07  08 09 0A 0B 0C 0D 0E 0F
      -- -- -- -- -- -- -- --  -- -- -- -- -- -- -- --
0120:                                               53                 S
0130: F8 FF FF 7F F8 FF FF 7F  62 69 6B 31 00           ........bik1.   
```

#### Opcodes

```
  0: 0x012F [0x53] WAIT_SCHEDULER_TASK: Wait for scheduler "bik1" with entities [EventEntity, EventEntity]
  1: 0x013C [0x00] END_REQSTACK()
```

### Event 65535.21

#### Metadata

| Field        | Value   |
|--------------|---------|
| Entrypoint   | 0x013D  |
| Data Size    | 9 bytes |
| Instructions | 3       |

```
      00 01 02 03 04 05 06 07  08 09 0A 0B 0C 0D 0E 0F
      -- -- -- -- -- -- -- --  -- -- -- -- -- -- -- --
0130:                                         5E 69 64               ^id
0140: 6C 30 1C 01 80 00                                 l0....          
```

#### Opcodes

```
  0: 0x013D [0x5E] EventEntity goes idle (kills current action) (animation: "idl0")
  1: 0x0142 [0x1C] WAIT(30* ticks)
  2: 0x0145 [0x00] END_REQSTACK()
```

### Event 182

#### Metadata

| Field        | Value   |
|--------------|---------|
| Entrypoint   | 0x0146  |
| Data Size    | 1 bytes |
| Instructions | 1       |

```
      00 01 02 03 04 05 06 07  08 09 0A 0B 0C 0D 0E 0F
      -- -- -- -- -- -- -- --  -- -- -- -- -- -- -- --
0140:                   00                                    .         
```

#### Opcodes

```
  0: 0x0146 [0x00] END_REQSTACK()
```

### Event 423

#### Metadata

| Field        | Value    |
|--------------|----------|
| Entrypoint   | 0x0147   |
| Data Size    | 33 bytes |
| Instructions | 12       |

```
      00 01 02 03 04 05 06 07  08 09 0A 0B 0C 0D 0E 0F
      -- -- -- -- -- -- -- --  -- -- -- -- -- -- -- --
0140:                      1E  F0 FF FF 7F 6F 70 29 08         .....op).
0150: 36 E0 0E 01 01 1D 03 80  23 1D 04 80 23 29 08 36  6.......#...#).6
0160: E0 0E 01 02 20 00 21 00                           .... .!.        
```

#### Opcodes

```
  0: 0x0147 [0x1E] EventEntity looks at LocalPlayer and starts talking
  1: 0x014C [0x6F] WAIT_FRAME_DELAY: Yield until WaitTime reaches zero
  2: 0x014D [0x70] WAIT_ENTITY_RENDER_FLAG: Wait while EventEntity->Render.Flags3 bit 2 is set (cancel turn if not)
  3: 0x014E [0x29] REQ_SET_WAIT(priority=0x08, entity_id=Fuepepe (ID: 17752118/0x010EE036), tag_num=0x01)
  4: 0x0155 [0x1D] PRINT_EVENT_MESSAGE(message_id=8338*)
    → "Every student is differently different. Unless one strives to understandingly understand each individual, one cannot educatedly educate in the fullest sense of the word."
  5: 0x0158 [0x23] WAIT_FOR_DIALOG_INTERACTION
  6: 0x0159 [0x1D] PRINT_EVENT_MESSAGE(message_id=8339*)
    → "At the very least, one should try to rememberingly remember their students' names... I'm not pointedly pointing the finger at anyone in particular here, but..."
  7: 0x015C [0x23] WAIT_FOR_DIALOG_INTERACTION
  8: 0x015D [0x29] REQ_SET_WAIT(priority=0x08, entity_id=Fuepepe (ID: 17752118/0x010EE036), tag_num=0x02)
  9: 0x0164 [0x20] SET_CLI_EVENT_UC_FLAG: Unlock player control
 10: 0x0166 [0x21] END_EVENT
 11: 0x0167 [0x00] END_REQSTACK()
```

### Event 186

#### Metadata

| Field        | Value    |
|--------------|----------|
| Entrypoint   | 0x0168   |
| Data Size    | 33 bytes |
| Instructions | 12       |

```
      00 01 02 03 04 05 06 07  08 09 0A 0B 0C 0D 0E 0F
      -- -- -- -- -- -- -- --  -- -- -- -- -- -- -- --
0160:                          1E F0 FF FF 7F 6F 70 29          .....op)
0170: 08 36 E0 0E 01 01 1D 05  80 23 1D 06 80 23 29 08  .6.......#...#).
0180: 36 E0 0E 01 02 20 00 21  00                       6.... .!.       
```

#### Opcodes

```
  0: 0x0168 [0x1E] EventEntity looks at LocalPlayer and starts talking
  1: 0x016D [0x6F] WAIT_FRAME_DELAY: Yield until WaitTime reaches zero
  2: 0x016E [0x70] WAIT_ENTITY_RENDER_FLAG: Wait while EventEntity->Render.Flags3 bit 2 is set (cancel turn if not)
  3: 0x016F [0x29] REQ_SET_WAIT(priority=0x08, entity_id=Fuepepe (ID: 17752118/0x010EE036), tag_num=0x01)
  4: 0x0176 [0x1D] PRINT_EVENT_MESSAGE(message_id=7749*)
    → "The Aurastery's School of Magic was creatively created to expansively expand the able abilities of child geniuses with the motto "Wisely, Strongly, Correctly.""
  5: 0x0179 [0x23] WAIT_FOR_DIALOG_INTERACTION
  6: 0x017A [0x1D] PRINT_EVENT_MESSAGE(message_id=7750*)
    → "Our skills guidance and testing promotively promote the "strongly" part of that motto. We truly appreciate your cooperative cooperation."
  7: 0x017D [0x23] WAIT_FOR_DIALOG_INTERACTION
  8: 0x017E [0x29] REQ_SET_WAIT(priority=0x08, entity_id=Fuepepe (ID: 17752118/0x010EE036), tag_num=0x02)
  9: 0x0185 [0x20] SET_CLI_EVENT_UC_FLAG: Unlock player control
 10: 0x0187 [0x21] END_EVENT
 11: 0x0188 [0x00] END_REQSTACK()
```

### Event 493

#### Metadata

| Field        | Value    |
|--------------|----------|
| Entrypoint   | 0x0189   |
| Data Size    | 33 bytes |
| Instructions | 12       |

```
      00 01 02 03 04 05 06 07  08 09 0A 0B 0C 0D 0E 0F
      -- -- -- -- -- -- -- --  -- -- -- -- -- -- -- --
0180:                             1E F0 FF FF 7F 6F 70           .....op
0190: 29 08 36 E0 0E 01 01 1D  07 80 23 1D 08 80 23 29  ).6.......#...#)
01A0: 08 36 E0 0E 01 02 20 00  21 00                    .6.... .!.      
```

#### Opcodes

```
  0: 0x0189 [0x1E] EventEntity looks at LocalPlayer and starts talking
  1: 0x018E [0x6F] WAIT_FRAME_DELAY: Yield until WaitTime reaches zero
  2: 0x018F [0x70] WAIT_ENTITY_RENDER_FLAG: Wait while EventEntity->Render.Flags3 bit 2 is set (cancel turn if not)
  3: 0x0190 [0x29] REQ_SET_WAIT(priority=0x08, entity_id=Fuepepe (ID: 17752118/0x010EE036), tag_num=0x01)
  4: 0x0197 [0x1D] PRINT_EVENT_MESSAGE(message_id=8488*)
    → "It's rather hard to say that Mr. Pechiru-Mashiru is respectingly respected by his studious students, let alone his peerless peers!"
  5: 0x019A [0x23] WAIT_FOR_DIALOG_INTERACTION
  6: 0x019B [0x1D] PRINT_EVENT_MESSAGE(message_id=8489*)
    → "He should take a hardy hard look at himself as an educated educator."
  7: 0x019E [0x23] WAIT_FOR_DIALOG_INTERACTION
  8: 0x019F [0x29] REQ_SET_WAIT(priority=0x08, entity_id=Fuepepe (ID: 17752118/0x010EE036), tag_num=0x02)
  9: 0x01A6 [0x20] SET_CLI_EVENT_UC_FLAG: Unlock player control
 10: 0x01A8 [0x21] END_EVENT
 11: 0x01A9 [0x00] END_REQSTACK()
```

### Event 442

#### Metadata

| Field        | Value    |
|--------------|----------|
| Entrypoint   | 0x01AA   |
| Data Size    | 72 bytes |
| Instructions | 17       |

```
      00 01 02 03 04 05 06 07  08 09 0A 0B 0C 0D 0E 0F
      -- -- -- -- -- -- -- --  -- -- -- -- -- -- -- --
01A0:                                1E F0 FF FF 7F 6F            .....o
01B0: 70 29 0B 36 E0 0E 01 1B  24 09 80 0A 80 0A 80 25  p).6....$......%
01C0: 02 00 10 0A 80 00 D7 01  03 01 10 0B 80 29 0B 36  .............).6
01D0: E0 0E 01 1C 01 EE 01 02  00 10 0B 80 00 EE 01 03  ................
01E0: 01 10 0C 80 29 0B 36 E0  0E 01 1D 01 EE 01 20 00  ....).6....... .
01F0: 21 00                                             !.              
```

#### Opcodes

```
  0: 0x01AA [0x1E] EventEntity looks at LocalPlayer and starts talking
  1: 0x01AF [0x6F] WAIT_FRAME_DELAY: Yield until WaitTime reaches zero
  2: 0x01B0 [0x70] WAIT_ENTITY_RENDER_FLAG: Wait while EventEntity->Render.Flags3 bit 2 is set (cancel turn if not)
  3: 0x01B1 [0x29] REQ_SET_WAIT(priority=0x0B, entity_id=Fuepepe (ID: 17752118/0x010EE036), tag_num=0x1B)
  4: 0x01B8 [0x24] CREATE_DIALOG(message_id=8382*, default_option=0*, option_flags=0*)
    → "Helpfully help the teacher out? [Acceptingly accept./Decliningly decline.]"
  5: 0x01BF [0x25] WAIT_DIALOG_SELECT()
  6: 0x01C0 [0x02] IF !(Work_Zone[0] == 0*) GOTO 0x01D7
  7: 0x01C8 [0x03] Work_Zone[1] = 1*
  8: 0x01CD [0x29] REQ_SET_WAIT(priority=0x0B, entity_id=Fuepepe (ID: 17752118/0x010EE036), tag_num=0x1C)
  9: 0x01D4 [0x01] GOTO 0x01EE
 10: 0x01D7 [0x02] IF !(Work_Zone[0] == 1*) GOTO 0x01EE
 11: 0x01DF [0x03] Work_Zone[1] = 2*
 12: 0x01E4 [0x29] REQ_SET_WAIT(priority=0x0B, entity_id=Fuepepe (ID: 17752118/0x010EE036), tag_num=0x1D)
 13: 0x01EB [0x01] GOTO 0x01EE

SUBROUTINE_01EE:
 14: 0x01EE [0x20] SET_CLI_EVENT_UC_FLAG: Unlock player control
 15: 0x01F0 [0x21] END_EVENT
 16: 0x01F1 [0x00] END_REQSTACK()
```

### Event 65535.22

#### Metadata

| Field        | Value    |
|--------------|----------|
| Entrypoint   | 0x01F2   |
| Data Size    | 41 bytes |
| Instructions | 11       |

```
      00 01 02 03 04 05 06 07  08 09 0A 0B 0C 0D 0E 0F
      -- -- -- -- -- -- -- --  -- -- -- -- -- -- -- --
01F0:       29 08 36 E0 0E 01  07 1D 0D 80 23 29 08 36    ).6.......#).6
0200: E0 0E 01 08 29 08 36 E0  0E 01 01 1D 0E 80 23 1D  ....).6.......#.
0210: 0F 80 23 29 08 36 E0 0E  01 02 00                 ..#).6.....     
```

#### Opcodes

```
  0: 0x01F2 [0x29] REQ_SET_WAIT(priority=0x08, entity_id=Fuepepe (ID: 17752118/0x010EE036), tag_num=0x07)
  1: 0x01F9 [0x1D] PRINT_EVENT_MESSAGE(message_id=8379*)
    → "My dear adventurer... are you busy now? I have a problematic problem you may be able to help me with."
  2: 0x01FC [0x23] WAIT_FOR_DIALOG_INTERACTION
  3: 0x01FD [0x29] REQ_SET_WAIT(priority=0x08, entity_id=Fuepepe (ID: 17752118/0x010EE036), tag_num=0x08)
  4: 0x0204 [0x29] REQ_SET_WAIT(priority=0x08, entity_id=Fuepepe (ID: 17752118/0x010EE036), tag_num=0x01)
  5: 0x020B [0x1D] PRINT_EVENT_MESSAGE(message_id=8380*)
    → "This is a matter that could sully our school's reputable reputation, so it is rather hard to ask, but... Yesterday, we had a burglary at our staff room here."
  6: 0x020E [0x23] WAIT_FOR_DIALOG_INTERACTION
  7: 0x020F [0x1D] PRINT_EVENT_MESSAGE(message_id=8381*)
    → "The only thing stolen was a pile of students' answer sheets. If it is possibly possible, I'd be greatly grateful if you could find them and bring them back to me."
  8: 0x0212 [0x23] WAIT_FOR_DIALOG_INTERACTION
  9: 0x0213 [0x29] REQ_SET_WAIT(priority=0x08, entity_id=Fuepepe (ID: 17752118/0x010EE036), tag_num=0x02)
 10: 0x021A [0x00] END_REQSTACK()
```

### Event 65535.23

#### Metadata

| Field        | Value    |
|--------------|----------|
| Entrypoint   | 0x021B   |
| Data Size    | 37 bytes |
| Instructions | 9        |

```
      00 01 02 03 04 05 06 07  08 09 0A 0B 0C 0D 0E 0F
      -- -- -- -- -- -- -- --  -- -- -- -- -- -- -- --
0210:                                   29 08 36 E0 0E             ).6..
0220: 01 03 1D 10 80 23 29 08  36 E0 0E 01 04 29 08 36  .....#).6....).6
0230: E0 0E 01 05 1D 11 80 23  29 08 36 E0 0E 01 06 00  .......#).6.....
```

#### Opcodes

```
  0: 0x021B [0x29] REQ_SET_WAIT(priority=0x08, entity_id=Fuepepe (ID: 17752118/0x010EE036), tag_num=0x03)
  1: 0x0222 [0x1D] PRINT_EVENT_MESSAGE(message_id=8383*)
    → "I don't care who stolidly stole them. I just want my students' test answers back. Please help me."
  2: 0x0225 [0x23] WAIT_FOR_DIALOG_INTERACTION
  3: 0x0226 [0x29] REQ_SET_WAIT(priority=0x08, entity_id=Fuepepe (ID: 17752118/0x010EE036), tag_num=0x04)
  4: 0x022D [0x29] REQ_SET_WAIT(priority=0x08, entity_id=Fuepepe (ID: 17752118/0x010EE036), tag_num=0x05)
  5: 0x0234 [0x1D] PRINT_EVENT_MESSAGE(message_id=8384*)
    → "I need to check the answers and see where each and every one of my students went wrong."
  6: 0x0237 [0x23] WAIT_FOR_DIALOG_INTERACTION
  7: 0x0238 [0x29] REQ_SET_WAIT(priority=0x08, entity_id=Fuepepe (ID: 17752118/0x010EE036), tag_num=0x06)
  8: 0x023F [0x00] END_REQSTACK()
```

### Event 65535.24

#### Metadata

| Field        | Value   |
|--------------|---------|
| Entrypoint   | 0x0240  |
| Data Size    | 5 bytes |
| Instructions | 3       |

```
      00 01 02 03 04 05 06 07  08 09 0A 0B 0C 0D 0E 0F
      -- -- -- -- -- -- -- --  -- -- -- -- -- -- -- --
0240: 1D 12 80 23 00                                    ...#.           
```

#### Opcodes

```
  0: 0x0240 [0x1D] PRINT_EVENT_MESSAGE(message_id=8385*)
    → "......"
  1: 0x0243 [0x23] WAIT_FOR_DIALOG_INTERACTION
  2: 0x0244 [0x00] END_REQSTACK()
```

### Event 443

#### Metadata

| Field        | Value    |
|--------------|----------|
| Entrypoint   | 0x0245   |
| Data Size    | 33 bytes |
| Instructions | 12       |

```
      00 01 02 03 04 05 06 07  08 09 0A 0B 0C 0D 0E 0F
      -- -- -- -- -- -- -- --  -- -- -- -- -- -- -- --
0240:                1E F0 FF  FF 7F 6F 70 29 08 36 E0       .....op).6.
0250: 0E 01 01 1D 13 80 23 1D  14 80 23 29 08 36 E0 0E  ......#...#).6..
0260: 01 02 20 00 21 00                                 .. .!.          
```

#### Opcodes

```
  0: 0x0245 [0x1E] EventEntity looks at LocalPlayer and starts talking
  1: 0x024A [0x6F] WAIT_FRAME_DELAY: Yield until WaitTime reaches zero
  2: 0x024B [0x70] WAIT_ENTITY_RENDER_FLAG: Wait while EventEntity->Render.Flags3 bit 2 is set (cancel turn if not)
  3: 0x024C [0x29] REQ_SET_WAIT(priority=0x08, entity_id=Fuepepe (ID: 17752118/0x010EE036), tag_num=0x01)
  4: 0x0253 [0x1D] PRINT_EVENT_MESSAGE(message_id=8386*)
    → "It's my faulty fault. I should never have left them on my desk when I went outside. There's no forgiving my negligent negligence."
  5: 0x0256 [0x23] WAIT_FOR_DIALOG_INTERACTION
  6: 0x0257 [0x1D] PRINT_EVENT_MESSAGE(message_id=8387*)
    → "Please bring back the answer papers to me. Without them, I can't gradually grade my students. Learning starts from recognizably recognizing one's mistakes, you know?"
  7: 0x025A [0x23] WAIT_FOR_DIALOG_INTERACTION
  8: 0x025B [0x29] REQ_SET_WAIT(priority=0x08, entity_id=Fuepepe (ID: 17752118/0x010EE036), tag_num=0x02)
  9: 0x0262 [0x20] SET_CLI_EVENT_UC_FLAG: Unlock player control
 10: 0x0264 [0x21] END_EVENT
 11: 0x0265 [0x00] END_REQSTACK()
```

### Event 455

#### Metadata

| Field        | Value    |
|--------------|----------|
| Entrypoint   | 0x0266   |
| Data Size    | 18 bytes |
| Instructions | 7        |

```
      00 01 02 03 04 05 06 07  08 09 0A 0B 0C 0D 0E 0F
      -- -- -- -- -- -- -- --  -- -- -- -- -- -- -- --
0260:                   1E F0  FF FF 7F 6F 70 29 0B 36        .....op).6
0270: E0 0E 01 20 20 00 21 00                           ...  .!.        
```

#### Opcodes

```
  0: 0x0266 [0x1E] EventEntity looks at LocalPlayer and starts talking
  1: 0x026B [0x6F] WAIT_FRAME_DELAY: Yield until WaitTime reaches zero
  2: 0x026C [0x70] WAIT_ENTITY_RENDER_FLAG: Wait while EventEntity->Render.Flags3 bit 2 is set (cancel turn if not)
  3: 0x026D [0x29] REQ_SET_WAIT(priority=0x0B, entity_id=Fuepepe (ID: 17752118/0x010EE036), tag_num=0x20)
  4: 0x0274 [0x20] SET_CLI_EVENT_UC_FLAG: Unlock player control
  5: 0x0276 [0x21] END_EVENT
  6: 0x0277 [0x00] END_REQSTACK()
```

### Event 65535.25

#### Metadata

| Field        | Value    |
|--------------|----------|
| Entrypoint   | 0x0278   |
| Data Size    | 44 bytes |
| Instructions | 10       |

```
      00 01 02 03 04 05 06 07  08 09 0A 0B 0C 0D 0E 0F
      -- -- -- -- -- -- -- --  -- -- -- -- -- -- -- --
0270:                          29 08 36 E0 0E 01 11 1D          ).6.....
0280: 15 80 23 29 08 36 E0 0E  01 13 29 08 36 E0 0E 01  ..#).6....).6...
0290: 14 29 08 36 E0 0E 01 01  1D 16 80 23 29 08 36 E0  .).6.......#).6.
02A0: 0E 01 02 00                                       ....            
```

#### Opcodes

```
  0: 0x0278 [0x29] REQ_SET_WAIT(priority=0x08, entity_id=Fuepepe (ID: 17752118/0x010EE036), tag_num=0x11)
  1: 0x027F [0x1D] PRINT_EVENT_MESSAGE(message_id=8409*)
    → "Oh, looky-look at the answer sheets! They're all so tattered and torn. Why, I can't make heads or tails out of them."
  2: 0x0282 [0x23] WAIT_FOR_DIALOG_INTERACTION
  3: 0x0283 [0x29] REQ_SET_WAIT(priority=0x08, entity_id=Fuepepe (ID: 17752118/0x010EE036), tag_num=0x13)
  4: 0x028A [0x29] REQ_SET_WAIT(priority=0x08, entity_id=Fuepepe (ID: 17752118/0x010EE036), tag_num=0x14)
  5: 0x0291 [0x29] REQ_SET_WAIT(priority=0x08, entity_id=Fuepepe (ID: 17752118/0x010EE036), tag_num=0x01)
  6: 0x0298 [0x1D] PRINT_EVENT_MESSAGE(message_id=8410*)
    → "But at least they're back in our possessive possession. Say, could you take them to the principal for me?"
  7: 0x029B [0x23] WAIT_FOR_DIALOG_INTERACTION
  8: 0x029C [0x29] REQ_SET_WAIT(priority=0x08, entity_id=Fuepepe (ID: 17752118/0x010EE036), tag_num=0x02)
  9: 0x02A3 [0x00] END_REQSTACK()
```

### Event 456

#### Metadata

| Field        | Value    |
|--------------|----------|
| Entrypoint   | 0x02A4   |
| Data Size    | 47 bytes |
| Instructions | 14       |

```
      00 01 02 03 04 05 06 07  08 09 0A 0B 0C 0D 0E 0F
      -- -- -- -- -- -- -- --  -- -- -- -- -- -- -- --
02A0:             1E F0 FF FF  7F 6F 70 29 08 36 E0 0E      .....op).6..
02B0: 01 03 1D 17 80 23 29 08  36 E0 0E 01 04 29 08 36  .....#).6....).6
02C0: E0 0E 01 05 1D 18 80 23  29 08 36 E0 0E 01 06 20  .......#).6.... 
02D0: 00 21 00                                          .!.             
```

#### Opcodes

```
  0: 0x02A4 [0x1E] EventEntity looks at LocalPlayer and starts talking
  1: 0x02A9 [0x6F] WAIT_FRAME_DELAY: Yield until WaitTime reaches zero
  2: 0x02AA [0x70] WAIT_ENTITY_RENDER_FLAG: Wait while EventEntity->Render.Flags3 bit 2 is set (cancel turn if not)
  3: 0x02AB [0x29] REQ_SET_WAIT(priority=0x08, entity_id=Fuepepe (ID: 17752118/0x010EE036), tag_num=0x03)
  4: 0x02B2 [0x1D] PRINT_EVENT_MESSAGE(message_id=8411*)
    → "Please take the answer sheets to the principal. Thankingly thanking you."
  5: 0x02B5 [0x23] WAIT_FOR_DIALOG_INTERACTION
  6: 0x02B6 [0x29] REQ_SET_WAIT(priority=0x08, entity_id=Fuepepe (ID: 17752118/0x010EE036), tag_num=0x04)
  7: 0x02BD [0x29] REQ_SET_WAIT(priority=0x08, entity_id=Fuepepe (ID: 17752118/0x010EE036), tag_num=0x05)
  8: 0x02C4 [0x1D] PRINT_EVENT_MESSAGE(message_id=8412*)
    → "...Oh dearie-dear? Don't tell me you don't knowingly know who the principal is? Why, I thought everyone knew he was the eccentrically eccentric old man who livenly lives in a manor in Windurst Walls."
  9: 0x02C7 [0x23] WAIT_FOR_DIALOG_INTERACTION
 10: 0x02C8 [0x29] REQ_SET_WAIT(priority=0x08, entity_id=Fuepepe (ID: 17752118/0x010EE036), tag_num=0x06)
 11: 0x02CF [0x20] SET_CLI_EVENT_UC_FLAG: Unlock player control
 12: 0x02D1 [0x21] END_EVENT
 13: 0x02D2 [0x00] END_REQSTACK()
```

### Event 458

#### Metadata

| Field        | Value    |
|--------------|----------|
| Entrypoint   | 0x02D3   |
| Data Size    | 43 bytes |
| Instructions | 10       |

```
      00 01 02 03 04 05 06 07  08 09 0A 0B 0C 0D 0E 0F
      -- -- -- -- -- -- -- --  -- -- -- -- -- -- -- --
02D0:          42 1E F0 FF FF  7F 6F 70 29 0B 36 E0 0E     B.....op).6..
02E0: 01 23 29 0B 36 E0 0E 01  24 45 19 80 F0 FF FF 7F  .#).6...$E......
02F0: F0 FF FF 7F 71 73 74 63  0A 80 20 00 21 00        ....qstc.. .!.  
```

#### Opcodes

```
  0: 0x02D3 [0x42] SET_CLI_EVENT_CANCEL_DATA()
  1: 0x02D4 [0x1E] EventEntity looks at LocalPlayer and starts talking
  2: 0x02D9 [0x6F] WAIT_FRAME_DELAY: Yield until WaitTime reaches zero
  3: 0x02DA [0x70] WAIT_ENTITY_RENDER_FLAG: Wait while EventEntity->Render.Flags3 bit 2 is set (cancel turn if not)
  4: 0x02DB [0x29] REQ_SET_WAIT(priority=0x0B, entity_id=Fuepepe (ID: 17752118/0x010EE036), tag_num=0x23)
  5: 0x02E2 [0x29] REQ_SET_WAIT(priority=0x0B, entity_id=Fuepepe (ID: 17752118/0x010EE036), tag_num=0x24)
  6: 0x02E9 [0x45] LOAD_SCHEDULED_TASK: Load scheduler "qstc" with entities [LocalPlayer, LocalPlayer], work=[201*, 0*]
  7: 0x02FA [0x20] SET_CLI_EVENT_UC_FLAG: Unlock player control
  8: 0x02FC [0x21] END_EVENT
  9: 0x02FD [0x00] END_REQSTACK()
```

### Event 65535.26

#### Metadata

| Field        | Value    |
|--------------|----------|
| Entrypoint   | 0x02FE   |
| Data Size    | 55 bytes |
| Instructions | 13       |

```
      00 01 02 03 04 05 06 07  08 09 0A 0B 0C 0D 0E 0F
      -- -- -- -- -- -- -- --  -- -- -- -- -- -- -- --
02F0:                                            29 08                ).
0300: 36 E0 0E 01 03 1D 1A 80  23 29 08 36 E0 0E 01 04  6.......#).6....
0310: 29 08 36 E0 0E 01 05 1D  1B 80 23 29 08 36 E0 0E  ).6.......#).6..
0320: 01 06 29 08 36 E0 0E 01  01 1D 1C 80 23 29 08 36  ..).6.......#).6
0330: E0 0E 01 02 00                                    .....           
```

#### Opcodes

```
  0: 0x02FE [0x29] REQ_SET_WAIT(priority=0x08, entity_id=Fuepepe (ID: 17752118/0x010EE036), tag_num=0x03)
  1: 0x0305 [0x1D] PRINT_EVENT_MESSAGE(message_id=8415*)
    → "Goodness gracious! Chomoro-Kyotoro's answer paper was missing? My, isn't that strangely strange? Why, I counted them myself and was surely sure there was one from every student."
  2: 0x0308 [0x23] WAIT_FOR_DIALOG_INTERACTION
  3: 0x0309 [0x29] REQ_SET_WAIT(priority=0x08, entity_id=Fuepepe (ID: 17752118/0x010EE036), tag_num=0x04)
  4: 0x0310 [0x29] REQ_SET_WAIT(priority=0x08, entity_id=Fuepepe (ID: 17752118/0x010EE036), tag_num=0x05)
  5: 0x0317 [0x1D] PRINT_EVENT_MESSAGE(message_id=8416*)
    → "I guessingly guess it can't be helped then... We'll just have to make young master Chomoro-Kyotoro sit the test again."
  6: 0x031A [0x23] WAIT_FOR_DIALOG_INTERACTION
  7: 0x031B [0x29] REQ_SET_WAIT(priority=0x08, entity_id=Fuepepe (ID: 17752118/0x010EE036), tag_num=0x06)
  8: 0x0322 [0x29] REQ_SET_WAIT(priority=0x08, entity_id=Fuepepe (ID: 17752118/0x010EE036), tag_num=0x01)
  9: 0x0329 [0x1D] PRINT_EVENT_MESSAGE(message_id=8417*)
    → "He was a little under the weather last examination, so I hope his effortful efforts since then bear fruit and his resultant results this time 'round are better."
 10: 0x032C [0x23] WAIT_FOR_DIALOG_INTERACTION
 11: 0x032D [0x29] REQ_SET_WAIT(priority=0x08, entity_id=Fuepepe (ID: 17752118/0x010EE036), tag_num=0x02)
 12: 0x0334 [0x00] END_REQSTACK()
```

### Event 65535.27

#### Metadata

| Field        | Value    |
|--------------|----------|
| Entrypoint   | 0x0335   |
| Data Size    | 19 bytes |
| Instructions | 5        |

```
      00 01 02 03 04 05 06 07  08 09 0A 0B 0C 0D 0E 0F
      -- -- -- -- -- -- -- --  -- -- -- -- -- -- -- --
0330:                29 08 36  E0 0E 01 09 1D 1D 80 23       ).6.......#
0340: 29 08 36 E0 0E 01 0A 00                           ).6.....        
```

#### Opcodes

```
  0: 0x0335 [0x29] REQ_SET_WAIT(priority=0x08, entity_id=Fuepepe (ID: 17752118/0x010EE036), tag_num=0x09)
  1: 0x033C [0x1D] PRINT_EVENT_MESSAGE(message_id=8418*)
    → "Here is your requitable requital. I hope you find it satisfactorily satisfactory. Thank you for your assisting assistance."
  2: 0x033F [0x23] WAIT_FOR_DIALOG_INTERACTION
  3: 0x0340 [0x29] REQ_SET_WAIT(priority=0x08, entity_id=Fuepepe (ID: 17752118/0x010EE036), tag_num=0x0A)
  4: 0x0347 [0x00] END_REQSTACK()
```

### Event 459

#### Metadata

| Field        | Value    |
|--------------|----------|
| Entrypoint   | 0x0348   |
| Data Size    | 47 bytes |
| Instructions | 14       |

```
      00 01 02 03 04 05 06 07  08 09 0A 0B 0C 0D 0E 0F
      -- -- -- -- -- -- -- --  -- -- -- -- -- -- -- --
0340:                          1E F0 FF FF 7F 6F 70 29          .....op)
0350: 08 36 E0 0E 01 03 1D 1E  80 23 29 08 36 E0 0E 01  .6.......#).6...
0360: 04 29 08 36 E0 0E 01 05  1D 1F 80 23 29 08 36 E0  .).6.......#).6.
0370: 0E 01 06 20 00 21 00                              ... .!.         
```

#### Opcodes

```
  0: 0x0348 [0x1E] EventEntity looks at LocalPlayer and starts talking
  1: 0x034D [0x6F] WAIT_FRAME_DELAY: Yield until WaitTime reaches zero
  2: 0x034E [0x70] WAIT_ENTITY_RENDER_FLAG: Wait while EventEntity->Render.Flags3 bit 2 is set (cancel turn if not)
  3: 0x034F [0x29] REQ_SET_WAIT(priority=0x08, entity_id=Fuepepe (ID: 17752118/0x010EE036), tag_num=0x03)
  4: 0x0356 [0x1D] PRINT_EVENT_MESSAGE(message_id=8419*)
    → "The principal himself has had the experienced experience of failing the grade and being sent down a class...quite a few timely times too, I may addingly add."
  5: 0x0359 [0x23] WAIT_FOR_DIALOG_INTERACTION
  6: 0x035A [0x29] REQ_SET_WAIT(priority=0x08, entity_id=Fuepepe (ID: 17752118/0x010EE036), tag_num=0x04)
  7: 0x0361 [0x29] REQ_SET_WAIT(priority=0x08, entity_id=Fuepepe (ID: 17752118/0x010EE036), tag_num=0x05)
  8: 0x0368 [0x1D] PRINT_EVENT_MESSAGE(message_id=8420*)
    → "On the surface he appears inscrutably inscrutable, irresponsibly irresponsible and absurdly absurd, but he's actually considerately considerate, you know."
  9: 0x036B [0x23] WAIT_FOR_DIALOG_INTERACTION
 10: 0x036C [0x29] REQ_SET_WAIT(priority=0x08, entity_id=Fuepepe (ID: 17752118/0x010EE036), tag_num=0x06)
 11: 0x0373 [0x20] SET_CLI_EVENT_UC_FLAG: Unlock player control
 12: 0x0375 [0x21] END_EVENT
 13: 0x0376 [0x00] END_REQSTACK()
```

### Event 755

#### Metadata

| Field        | Value    |
|--------------|----------|
| Entrypoint   | 0x0377   |
| Data Size    | 47 bytes |
| Instructions | 14       |

```
      00 01 02 03 04 05 06 07  08 09 0A 0B 0C 0D 0E 0F
      -- -- -- -- -- -- -- --  -- -- -- -- -- -- -- --
0370:                      1E  F0 FF FF 7F 6F 70 29 08         .....op).
0380: 36 E0 0E 01 03 1D 20 80  23 29 08 36 E0 0E 01 04  6..... .#).6....
0390: 29 08 36 E0 0E 01 05 1D  21 80 23 29 08 36 E0 0E  ).6.....!.#).6..
03A0: 01 06 20 00 21 00                                 .. .!.          
```

#### Opcodes

```
  0: 0x0377 [0x1E] EventEntity looks at LocalPlayer and starts talking
  1: 0x037C [0x6F] WAIT_FRAME_DELAY: Yield until WaitTime reaches zero
  2: 0x037D [0x70] WAIT_ENTITY_RENDER_FLAG: Wait while EventEntity->Render.Flags3 bit 2 is set (cancel turn if not)
  3: 0x037E [0x29] REQ_SET_WAIT(priority=0x08, entity_id=Fuepepe (ID: 17752118/0x010EE036), tag_num=0x03)
  4: 0x0385 [0x1D] PRINT_EVENT_MESSAGE(message_id=9788*)
    → "When our new principal disappearingly disappeared it didn't come as much of a shock, but without anyone to replacingly replace him, the Aurastery was in quite a fix."
  5: 0x0388 [0x23] WAIT_FOR_DIALOG_INTERACTION
  6: 0x0389 [0x29] REQ_SET_WAIT(priority=0x08, entity_id=Fuepepe (ID: 17752118/0x010EE036), tag_num=0x04)
  7: 0x0390 [0x29] REQ_SET_WAIT(priority=0x08, entity_id=Fuepepe (ID: 17752118/0x010EE036), tag_num=0x05)
  8: 0x0397 [0x1D] PRINT_EVENT_MESSAGE(message_id=9789*)
    → "...What's that? Me? Oh no, no, no, far too troublingly troublesome."
  9: 0x039A [0x23] WAIT_FOR_DIALOG_INTERACTION
 10: 0x039B [0x29] REQ_SET_WAIT(priority=0x08, entity_id=Fuepepe (ID: 17752118/0x010EE036), tag_num=0x06)
 11: 0x03A2 [0x20] SET_CLI_EVENT_UC_FLAG: Unlock player control
 12: 0x03A4 [0x21] END_EVENT
 13: 0x03A5 [0x00] END_REQSTACK()
```

### Event 761

#### Metadata

| Field        | Value    |
|--------------|----------|
| Entrypoint   | 0x03A6   |
| Data Size    | 47 bytes |
| Instructions | 14       |

```
      00 01 02 03 04 05 06 07  08 09 0A 0B 0C 0D 0E 0F
      -- -- -- -- -- -- -- --  -- -- -- -- -- -- -- --
03A0:                   1E F0  FF FF 7F 6F 70 29 08 36        .....op).6
03B0: E0 0E 01 03 1D 22 80 23  29 08 36 E0 0E 01 04 29  .....".#).6....)
03C0: 08 36 E0 0E 01 05 1D 23  80 23 29 08 36 E0 0E 01  .6.....#.#).6...
03D0: 06 20 00 21 00                                    . .!.           
```

#### Opcodes

```
  0: 0x03A6 [0x1E] EventEntity looks at LocalPlayer and starts talking
  1: 0x03AB [0x6F] WAIT_FRAME_DELAY: Yield until WaitTime reaches zero
  2: 0x03AC [0x70] WAIT_ENTITY_RENDER_FLAG: Wait while EventEntity->Render.Flags3 bit 2 is set (cancel turn if not)
  3: 0x03AD [0x29] REQ_SET_WAIT(priority=0x08, entity_id=Fuepepe (ID: 17752118/0x010EE036), tag_num=0x03)
  4: 0x03B4 [0x1D] PRINT_EVENT_MESSAGE(message_id=9804*)
    → "Sedal-Godjal had a completely different nature to Professor Koru-Moru. I supposingly suppose that some people just can't enduringly endure certain hardships."
  5: 0x03B7 [0x23] WAIT_FOR_DIALOG_INTERACTION
  6: 0x03B8 [0x29] REQ_SET_WAIT(priority=0x08, entity_id=Fuepepe (ID: 17752118/0x010EE036), tag_num=0x04)
  7: 0x03BF [0x29] REQ_SET_WAIT(priority=0x08, entity_id=Fuepepe (ID: 17752118/0x010EE036), tag_num=0x05)
  8: 0x03C6 [0x1D] PRINT_EVENT_MESSAGE(message_id=9805*)
    → "...Hm? Me? I have overcomingly overcome such trivial trivialities. I am aware that all things in this world are transiently transient."
  9: 0x03C9 [0x23] WAIT_FOR_DIALOG_INTERACTION
 10: 0x03CA [0x29] REQ_SET_WAIT(priority=0x08, entity_id=Fuepepe (ID: 17752118/0x010EE036), tag_num=0x06)
 11: 0x03D1 [0x20] SET_CLI_EVENT_UC_FLAG: Unlock player control
 12: 0x03D3 [0x21] END_EVENT
 13: 0x03D4 [0x00] END_REQSTACK()
```

### Event 545

#### Metadata

| Field        | Value    |
|--------------|----------|
| Entrypoint   | 0x03D5   |
| Data Size    | 73 bytes |
| Instructions | 22       |

```
      00 01 02 03 04 05 06 07  08 09 0A 0B 0C 0D 0E 0F
      -- -- -- -- -- -- -- --  -- -- -- -- -- -- -- --
03D0:                1E F0 FF  FF 7F 6F 70 29 08 36 E0       .....op).6.
03E0: 0E 01 03 1D 24 80 23 29  08 36 E0 0E 01 04 29 08  ....$.#).6....).
03F0: 36 E0 0E 01 05 1D 25 80  23 29 08 36 E0 0E 01 06  6.....%.#).6....
0400: 1D 26 80 23 29 08 36 E0  0E 01 01 1D 27 80 23 1D  .&.#).6.....'.#.
0410: 28 80 23 29 08 36 E0 0E  01 02 20 00 21 00        (.#).6.... .!.  
```

#### Opcodes

```
  0: 0x03D5 [0x1E] EventEntity looks at LocalPlayer and starts talking
  1: 0x03DA [0x6F] WAIT_FRAME_DELAY: Yield until WaitTime reaches zero
  2: 0x03DB [0x70] WAIT_ENTITY_RENDER_FLAG: Wait while EventEntity->Render.Flags3 bit 2 is set (cancel turn if not)
  3: 0x03DC [0x29] REQ_SET_WAIT(priority=0x08, entity_id=Fuepepe (ID: 17752118/0x010EE036), tag_num=0x03)
  4: 0x03E3 [0x1D] PRINT_EVENT_MESSAGE(message_id=8755*)
    → "Alchemical Alchemy? Now that you mention it, ever so long ago, a student wrote a graduation thesis on such a dubiously dubious topic..."
  5: 0x03E6 [0x23] WAIT_FOR_DIALOG_INTERACTION
  6: 0x03E7 [0x29] REQ_SET_WAIT(priority=0x08, entity_id=Fuepepe (ID: 17752118/0x010EE036), tag_num=0x04)
  7: 0x03EE [0x29] REQ_SET_WAIT(priority=0x08, entity_id=Fuepepe (ID: 17752118/0x010EE036), tag_num=0x05)
  8: 0x03F5 [0x1D] PRINT_EVENT_MESSAGE(message_id=8756*)
    → "If I rememberingly remember, the principal at the time orderly ordered that student to stay back another year."
  9: 0x03F8 [0x23] WAIT_FOR_DIALOG_INTERACTION
 10: 0x03F9 [0x29] REQ_SET_WAIT(priority=0x08, entity_id=Fuepepe (ID: 17752118/0x010EE036), tag_num=0x06)
 11: 0x0400 [0x1D] PRINT_EVENT_MESSAGE(message_id=8757*)
    → "What? You wantingly want to read that student's graduation thesis?"
 12: 0x0403 [0x23] WAIT_FOR_DIALOG_INTERACTION
 13: 0x0404 [0x29] REQ_SET_WAIT(priority=0x08, entity_id=Fuepepe (ID: 17752118/0x010EE036), tag_num=0x01)
 14: 0x040B [0x1D] PRINT_EVENT_MESSAGE(message_id=8758*)
    → "It shouldn't be a problematic problem... Ask Katzun-Nattzun at the Acolyte Hostel to help find it for you."
 15: 0x040E [0x23] WAIT_FOR_DIALOG_INTERACTION
 16: 0x040F [0x1D] PRINT_EVENT_MESSAGE(message_id=8759*)
    → "The hostel is the humongously huge building to the north of here."
 17: 0x0412 [0x23] WAIT_FOR_DIALOG_INTERACTION
 18: 0x0413 [0x29] REQ_SET_WAIT(priority=0x08, entity_id=Fuepepe (ID: 17752118/0x010EE036), tag_num=0x02)
 19: 0x041A [0x20] SET_CLI_EVENT_UC_FLAG: Unlock player control
 20: 0x041C [0x21] END_EVENT
 21: 0x041D [0x00] END_REQSTACK()
```

### Event 546

#### Metadata

| Field        | Value    |
|--------------|----------|
| Entrypoint   | 0x041E   |
| Data Size    | 33 bytes |
| Instructions | 12       |

```
      00 01 02 03 04 05 06 07  08 09 0A 0B 0C 0D 0E 0F
      -- -- -- -- -- -- -- --  -- -- -- -- -- -- -- --
0410:                                            1E F0                ..
0420: FF FF 7F 6F 70 29 08 36  E0 0E 01 01 1D 29 80 23  ...op).6.....).#
0430: 1D 2A 80 23 29 08 36 E0  0E 01 02 20 00 21 00     .*.#).6.... .!. 
```

#### Opcodes

```
  0: 0x041E [0x1E] EventEntity looks at LocalPlayer and starts talking
  1: 0x0423 [0x6F] WAIT_FRAME_DELAY: Yield until WaitTime reaches zero
  2: 0x0424 [0x70] WAIT_ENTITY_RENDER_FLAG: Wait while EventEntity->Render.Flags3 bit 2 is set (cancel turn if not)
  3: 0x0425 [0x29] REQ_SET_WAIT(priority=0x08, entity_id=Fuepepe (ID: 17752118/0x010EE036), tag_num=0x01)
  4: 0x042C [0x1D] PRINT_EVENT_MESSAGE(message_id=8760*)
    → "Graduation theses are tests to indicatingly indicate whether the students are able to graduate from the School of Magic."
  5: 0x042F [0x23] WAIT_FOR_DIALOG_INTERACTION
  6: 0x0430 [0x1D] PRINT_EVENT_MESSAGE(message_id=8761*)
    → "Katzun-Nattzun should knowingly know where that thesis is. You'll find him in the Acolyte Hostel, a humongously huge building to the north of here."
  7: 0x0433 [0x23] WAIT_FOR_DIALOG_INTERACTION
  8: 0x0434 [0x29] REQ_SET_WAIT(priority=0x08, entity_id=Fuepepe (ID: 17752118/0x010EE036), tag_num=0x02)
  9: 0x043B [0x20] SET_CLI_EVENT_UC_FLAG: Unlock player control
 10: 0x043D [0x21] END_EVENT
 11: 0x043E [0x00] END_REQSTACK()
```

### Event 817

#### Metadata

| Field        | Value    |
|--------------|----------|
| Entrypoint   | 0x043F   |
| Data Size    | 86 bytes |
| Instructions | 25       |

```
      00 01 02 03 04 05 06 07  08 09 0A 0B 0C 0D 0E 0F
      -- -- -- -- -- -- -- --  -- -- -- -- -- -- -- --
0430:                                               42                 B
0440: 1E F0 FF FF 7F 6F 70 29  08 36 E0 0E 01 03 1D 2B  .....op).6.....+
0450: 80 23 29 08 36 E0 0E 01  04 29 08 36 E0 0E 01 05  .#).6....).6....
0460: 1D 2C 80 23 29 08 36 E0  0E 01 06 6E F8 FF FF 7F  .,.#).6....n....
0470: 2D 80 99 F8 FF FF 7F 1D  2E 80 23 29 08 36 E0 0E  -.........#).6..
0480: 01 01 1D 2F 80 23 29 08  36 E0 0E 01 02 1D 30 80  .../.#).6.....0.
0490: 23 20 00 21 00                                    # .!.           
```

#### Opcodes

```
  0: 0x043F [0x42] SET_CLI_EVENT_CANCEL_DATA()
  1: 0x0440 [0x1E] EventEntity looks at LocalPlayer and starts talking
  2: 0x0445 [0x6F] WAIT_FRAME_DELAY: Yield until WaitTime reaches zero
  3: 0x0446 [0x70] WAIT_ENTITY_RENDER_FLAG: Wait while EventEntity->Render.Flags3 bit 2 is set (cancel turn if not)
  4: 0x0447 [0x29] REQ_SET_WAIT(priority=0x08, entity_id=Fuepepe (ID: 17752118/0x010EE036), tag_num=0x03)
  5: 0x044E [0x1D] PRINT_EVENT_MESSAGE(message_id=10038*)
    → "Uran-Mafran... It's been a long time since I've heard that name. He's been missingly missing since we were classmates at school."
  6: 0x0451 [0x23] WAIT_FOR_DIALOG_INTERACTION
  7: 0x0452 [0x29] REQ_SET_WAIT(priority=0x08, entity_id=Fuepepe (ID: 17752118/0x010EE036), tag_num=0x04)
  8: 0x0459 [0x29] REQ_SET_WAIT(priority=0x08, entity_id=Fuepepe (ID: 17752118/0x010EE036), tag_num=0x05)
  9: 0x0460 [0x1D] PRINT_EVENT_MESSAGE(message_id=10039*)
    → "...I see. He encountered Ildy-Goldy in the Outlands? Ildy-Goldy would have been the last person he would have wanted to meetingly meet."
 10: 0x0463 [0x23] WAIT_FOR_DIALOG_INTERACTION
 11: 0x0464 [0x29] REQ_SET_WAIT(priority=0x08, entity_id=Fuepepe (ID: 17752118/0x010EE036), tag_num=0x06)
 12: 0x046B [0x6E] EventEntity uses emote 6*
 13: 0x0472 [0x99] Wait for EventEntity animation to complete
 14: 0x0477 [0x1D] PRINT_EVENT_MESSAGE(message_id=10040*)
    → "Why, you ask...? Haven't you heard the rumors about the incident that occuringly occurred in the Dark Dungeon?"
 15: 0x047A [0x23] WAIT_FOR_DIALOG_INTERACTION
 16: 0x047B [0x29] REQ_SET_WAIT(priority=0x08, entity_id=Fuepepe (ID: 17752118/0x010EE036), tag_num=0x01)
 17: 0x0482 [0x1D] PRINT_EVENT_MESSAGE(message_id=10041*)
    → "I believingly believe he stole everyone's memories and left Windurst to avoid the repercussions of that crime."
 18: 0x0485 [0x23] WAIT_FOR_DIALOG_INTERACTION
 19: 0x0486 [0x29] REQ_SET_WAIT(priority=0x08, entity_id=Fuepepe (ID: 17752118/0x010EE036), tag_num=0x02)
 20: 0x048D [0x1D] PRINT_EVENT_MESSAGE(message_id=10042*)
    → "...But your warning is well taken. We'll be careful to watchingly watch out for any trouble. I don't know how much help I'll be, but I will gatheringly gather what information I can."
 21: 0x0490 [0x23] WAIT_FOR_DIALOG_INTERACTION
 22: 0x0491 [0x20] SET_CLI_EVENT_UC_FLAG: Unlock player control
 23: 0x0493 [0x21] END_EVENT
 24: 0x0494 [0x00] END_REQSTACK()
```
