# 17752156 - Honoi-Gomoi

## Common Data

| Field            | Value                     |
|------------------|---------------------------|
| Zone             | Windurst Waters (ID: 238) |
| Block Size       | 7004 bytes                |
| Total Events     | 151                       |
| References Count | 134                       |

## List of Events

| Event ID                     | Entrypoint   |   Size |   Instructions |
|------------------------------|--------------|--------|----------------|
| [65535](#event-65535)        | 0x0000       |      1 |              1 |
| [32691](#event-32691)        | 0x0001       |     12 |              6 |
| [65535.1](#event-655351)     | 0x000D       |     16 |              2 |
| [65535.2](#event-655352)     | 0x001D       |     42 |              4 |
| [65535.3](#event-655353)     | 0x0047       |     16 |              2 |
| [65535.4](#event-655354)     | 0x0057       |     14 |              2 |
| [65535.5](#event-655355)     | 0x0065       |     16 |              2 |
| [65535.6](#event-655356)     | 0x0075       |     14 |              2 |
| [65535.7](#event-655357)     | 0x0083       |     16 |              2 |
| [65535.8](#event-655358)     | 0x0093       |     14 |              2 |
| [65535.9](#event-655359)     | 0x00A1       |     16 |              2 |
| [65535.10](#event-6553510)   | 0x00B1       |     14 |              2 |
| [65535.11](#event-6553511)   | 0x00BF       |     16 |              2 |
| [65535.12](#event-6553512)   | 0x00CF       |     14 |              2 |
| [65535.13](#event-6553513)   | 0x00DD       |     16 |              2 |
| [65535.14](#event-6553514)   | 0x00ED       |     14 |              2 |
| [65535.15](#event-6553515)   | 0x00FB       |     16 |              2 |
| [65535.16](#event-6553516)   | 0x010B       |     14 |              2 |
| [65535.17](#event-6553517)   | 0x0119       |     16 |              2 |
| [65535.18](#event-6553518)   | 0x0129       |     14 |              2 |
| [65535.19](#event-6553519)   | 0x0137       |     16 |              2 |
| [65535.20](#event-6553520)   | 0x0147       |     22 |              4 |
| [65535.21](#event-6553521)   | 0x015D       |     16 |              2 |
| [65535.22](#event-6553522)   | 0x016D       |     14 |              2 |
| [65535.23](#event-6553523)   | 0x017B       |     16 |              2 |
| [65535.24](#event-6553524)   | 0x018B       |     14 |              2 |
| [65535.25](#event-6553525)   | 0x0199       |     16 |              2 |
| [65535.26](#event-6553526)   | 0x01A9       |     22 |              4 |
| [65535.27](#event-6553527)   | 0x01BF       |     16 |              2 |
| [65535.28](#event-6553528)   | 0x01CF       |     14 |              2 |
| [65535.29](#event-6553529)   | 0x01DD       |     16 |              2 |
| [65535.30](#event-6553530)   | 0x01ED       |     14 |              2 |
| [65535.31](#event-6553531)   | 0x01FB       |     16 |              2 |
| [65535.32](#event-6553532)   | 0x020B       |     14 |              2 |
| [65535.33](#event-6553533)   | 0x0219       |     16 |              2 |
| [65535.34](#event-6553534)   | 0x0229       |     14 |              2 |
| [65535.35](#event-6553535)   | 0x0237       |     16 |              2 |
| [65535.36](#event-6553536)   | 0x0247       |     14 |              2 |
| [65535.37](#event-6553537)   | 0x0255       |     16 |              2 |
| [65535.38](#event-6553538)   | 0x0265       |     14 |              2 |
| [65535.39](#event-6553539)   | 0x0273       |     16 |              2 |
| [65535.40](#event-6553540)   | 0x0283       |     14 |              2 |
| [65535.41](#event-6553541)   | 0x0291       |     16 |              2 |
| [65535.42](#event-6553542)   | 0x02A1       |     22 |              4 |
| [65535.43](#event-6553543)   | 0x02B7       |     44 |              4 |
| [65535.44](#event-6553544)   | 0x02E3       |     16 |              2 |
| [65535.45](#event-6553545)   | 0x02F3       |     14 |              2 |
| [65535.46](#event-6553546)   | 0x0301       |     18 |              4 |
| [65535.47](#event-6553547)   | 0x0313       |     18 |              4 |
| [65535.48](#event-6553548)   | 0x0325       |     18 |              4 |
| [65535.49](#event-6553549)   | 0x0337       |     18 |              4 |
| [65535.50](#event-6553550)   | 0x0349       |     18 |              4 |
| [65535.51](#event-6553551)   | 0x035B       |     27 |              3 |
| [65535.52](#event-6553552)   | 0x0376       |      9 |              3 |
| [65535.53](#event-6553553)   | 0x037F       |     16 |              2 |
| [65535.54](#event-6553554)   | 0x038F       |     14 |              2 |
| [65535.55](#event-6553555)   | 0x039D       |     16 |              2 |
| [65535.56](#event-6553556)   | 0x03AD       |     14 |              2 |
| [65535.57](#event-6553557)   | 0x03BB       |     16 |              2 |
| [65535.58](#event-6553558)   | 0x03CB       |     14 |              2 |
| [65535.59](#event-6553559)   | 0x03D9       |     16 |              2 |
| [65535.60](#event-6553560)   | 0x03E9       |     14 |              2 |
| [65535.61](#event-6553561)   | 0x03F7       |     16 |              2 |
| [65535.62](#event-6553562)   | 0x0407       |     14 |              2 |
| [65535.63](#event-6553563)   | 0x0415       |     16 |              2 |
| [65535.64](#event-6553564)   | 0x0425       |     14 |              2 |
| [65535.65](#event-6553565)   | 0x0433       |     16 |              2 |
| [65535.66](#event-6553566)   | 0x0443       |     14 |              2 |
| [65535.67](#event-6553567)   | 0x0451       |     16 |              2 |
| [65535.68](#event-6553568)   | 0x0461       |     14 |              2 |
| [65535.69](#event-6553569)   | 0x046F       |     16 |              2 |
| [65535.70](#event-6553570)   | 0x047F       |     14 |              2 |
| [650](#event-650)            | 0x048D       |     15 |              8 |
| [59](#event-59)              | 0x049C       |     23 |             12 |
| [774](#event-774)            | 0x04B3       |    817 |            102 |
| [65535.71](#event-6553571)   | 0x07E4       |     31 |              9 |
| [65535.72](#event-6553572)   | 0x0803       |     14 |              4 |
| [65535.73](#event-6553573)   | 0x0811       |      5 |              3 |
| [65535.74](#event-6553574)   | 0x0816       |      5 |              3 |
| [65535.75](#event-6553575)   | 0x081B       |      5 |              3 |
| [65535.76](#event-6553576)   | 0x0820       |      5 |              3 |
| [65535.77](#event-6553577)   | 0x0825       |      5 |              3 |
| [65535.78](#event-6553578)   | 0x082A       |      5 |              3 |
| [65535.79](#event-6553579)   | 0x082F       |      5 |              3 |
| [65535.80](#event-6553580)   | 0x0834       |      5 |              3 |
| [777](#event-777)            | 0x0839       |     47 |             14 |
| [775](#event-775)            | 0x0868       |    588 |             82 |
| [65535.81](#event-6553581)   | 0x0AB4       |     44 |             10 |
| [65535.82](#event-6553582)   | 0x0AE0       |     28 |              8 |
| [65535.83](#event-6553583)   | 0x0AFC       |      5 |              3 |
| [65535.84](#event-6553584)   | 0x0B01       |      5 |              3 |
| [65535.85](#event-6553585)   | 0x0B06       |      5 |              3 |
| [65535.86](#event-6553586)   | 0x0B0B       |      5 |              3 |
| [65535.87](#event-6553587)   | 0x0B10       |      5 |              3 |
| [65535.88](#event-6553588)   | 0x0B15       |      5 |              3 |
| [65535.89](#event-6553589)   | 0x0B1A       |      5 |              3 |
| [778](#event-778)            | 0x0B1F       |     61 |             16 |
| [776](#event-776)            | 0x0B5C       |   1072 |            139 |
| [65535.90](#event-6553590)   | 0x0F8C       |     14 |              4 |
| [65535.91](#event-6553591)   | 0x0F9A       |     14 |              4 |
| [65535.92](#event-6553592)   | 0x0FA8       |      5 |              3 |
| [65535.93](#event-6553593)   | 0x0FAD       |      5 |              3 |
| [65535.94](#event-6553594)   | 0x0FB2       |      5 |              3 |
| [65535.95](#event-6553595)   | 0x0FB7       |      5 |              3 |
| [65535.96](#event-6553596)   | 0x0FBC       |      5 |              3 |
| [65535.97](#event-6553597)   | 0x0FC1       |      5 |              3 |
| [65535.98](#event-6553598)   | 0x0FC6       |      5 |              3 |
| [65535.99](#event-6553599)   | 0x0FCB       |      5 |              3 |
| [779](#event-779)            | 0x0FD0       |     15 |              8 |
| [780](#event-780)            | 0x0FDF       |    833 |            106 |
| [65535.100](#event-65535100) | 0x1320       |      5 |              3 |
| [65535.101](#event-65535101) | 0x1325       |      5 |              3 |
| [65535.102](#event-65535102) | 0x132A       |      5 |              3 |
| [65535.103](#event-65535103) | 0x132F       |      5 |              3 |
| [65535.104](#event-65535104) | 0x1334       |      5 |              3 |
| [65535.105](#event-65535105) | 0x1339       |      5 |              3 |
| [65535.106](#event-65535106) | 0x133E       |      5 |              3 |
| [65535.107](#event-65535107) | 0x1343       |      5 |              3 |
| [65535.108](#event-65535108) | 0x1348       |      5 |              3 |
| [781](#event-781)            | 0x134D       |     43 |             12 |
| [782](#event-782)            | 0x1378       |    376 |             52 |
| [65535.109](#event-65535109) | 0x14F0       |      5 |              3 |
| [65535.110](#event-65535110) | 0x14F5       |      5 |              3 |
| [65535.111](#event-65535111) | 0x14FA       |      5 |              3 |
| [65535.112](#event-65535112) | 0x14FF       |      5 |              3 |
| [65535.113](#event-65535113) | 0x1504       |      5 |              3 |
| [783](#event-783)            | 0x1509       |     43 |             12 |
| [874](#event-874)            | 0x1534       |      9 |              3 |
| [65535.114](#event-65535114) | 0x153D       |     16 |              3 |
| [65535.115](#event-65535115) | 0x154D       |     10 |              2 |
| [65535.116](#event-65535116) | 0x1557       |     15 |              5 |
| [65535.117](#event-65535117) | 0x1566       |     29 |              7 |
| [65535.118](#event-65535118) | 0x1583       |     44 |             10 |
| [65535.119](#event-65535119) | 0x15AF       |     10 |              2 |
| [879](#event-879)            | 0x15B9       |     29 |             10 |
| [880](#event-880)            | 0x15D6       |     33 |             12 |
| [883](#event-883)            | 0x15F7       |     33 |             12 |
| [1131](#event-1131)          | 0x1618       |     26 |              8 |
| [1132](#event-1132)          | 0x1632       |     27 |              9 |
| [1161](#event-1161)          | 0x164D       |      1 |              1 |
| [1173](#event-1173)          | 0x164E       |      1 |              1 |
| [65535.120](#event-65535120) | 0x164F       |     16 |              2 |
| [65535.121](#event-65535121) | 0x165F       |     14 |              2 |
| [65535.122](#event-65535122) | 0x166D       |     16 |              2 |
| [65535.123](#event-65535123) | 0x167D       |     14 |              2 |
| [65535.124](#event-65535124) | 0x168B       |     16 |              2 |
| [65535.125](#event-65535125) | 0x169B       |     14 |              2 |
| [65535.126](#event-65535126) | 0x16A9       |     15 |              5 |
| [65535.127](#event-65535127) | 0x16B8       |     15 |              5 |
| [65535.128](#event-65535128) | 0x16C7       |     15 |              5 |
| [1174](#event-1174)          | 0x16D6       |      1 |              1 |

## DAT References (imed_data)

|   Index | Hex Value   |   Dec Value |
|---------|-------------|-------------|
|       0 | 0x3C52      |       15442 |
|       1 | 0x0028      |          40 |
|       2 | 0x0029      |          41 |
|       3 | 0x003C      |          60 |
|       4 | 0x002A      |          42 |
|       5 | 0x0001      |           1 |
|       6 | 0x0007      |           7 |
|       7 | 0x0006      |           6 |
|       8 | 0x0008      |           8 |
|       9 | 0x000D      |          13 |
|      10 | 0x002B      |          43 |
|      11 | 0x01AE      |         430 |
|      12 | 0x01AF      |         431 |
|      13 | 0x002E      |          46 |
|      14 | 0x230A      |        8970 |
|      15 | 0x1CE8      |        7400 |
|      16 | 0x1CE9      |        7401 |
|      17 | 0x1CEA      |        7402 |
|      18 | 0x0000      |           0 |
|      19 | 0x00C8      |         200 |
|      20 | 0x0078      |         120 |
|      21 | 0x0184      |         388 |
|      22 | 0x0013      |          19 |
|      23 | 0x00A3      |         163 |
|      24 | 0x007F      |         127 |
|      25 | 0x0003      |           3 |
|      26 | 0x00F7      |         247 |
|      27 | 0x0004      |           4 |
|      28 | 0x2661      |        9825 |
|      29 | 0x2668      |        9832 |
|      30 | 0x2669      |        9833 |
|      31 | 0x0097      |         151 |
|      32 | 0xFFFD0687  |  4294772359 |
|      33 | 0xFFFE206F  |  4294844527 |
|      34 | 0xFFFFD85A  |  4294957146 |
|      35 | 0xFFFD0505  |  4294771973 |
|      36 | 0xFFFE2549  |  4294845769 |
|      37 | 0xFFFD061A  |  4294772250 |
|      38 | 0xFFFE1FDB  |  4294844379 |
|      39 | 0xFFFFD85B  |  4294957147 |
|      40 | 0x2662      |        9826 |
|      41 | 0x2663      |        9827 |
|      42 | 0x2664      |        9828 |
|      43 | 0x2665      |        9829 |
|      44 | 0x2666      |        9830 |
|      45 | 0x2667      |        9831 |
|      46 | 0x266A      |        9834 |
|      47 | 0x266B      |        9835 |
|      48 | 0x0CBA      |        3258 |
|      49 | 0x266E      |        9838 |
|      50 | 0xFFFD12D0  |  4294775504 |
|      51 | 0xFFFE6373  |  4294861683 |
|      52 | 0x0AA7      |        2727 |
|      53 | 0x2670      |        9840 |
|      54 | 0x0064      |         100 |
|      55 | 0x2671      |        9841 |
|      56 | 0xFFFD0A3B  |  4294773307 |
|      57 | 0xFFFE659C  |  4294862236 |
|      58 | 0xFFFD04EF  |  4294771951 |
|      59 | 0xFFFE6C10  |  4294863888 |
|      60 | 0xFFFD053E  |  4294772030 |
|      61 | 0xFFFE73B3  |  4294865843 |
|      62 | 0xFFFD0AD3  |  4294773459 |
|      63 | 0xFFFE789A  |  4294867098 |
|      64 | 0xFFFD12A1  |  4294775457 |
|      65 | 0xFFFE77F1  |  4294866929 |
|      66 | 0xFFFD16EC  |  4294776556 |
|      67 | 0xFFFE73E6  |  4294865894 |
|      68 | 0x266C      |        9836 |
|      69 | 0x266D      |        9837 |
|      70 | 0x266F      |        9839 |
|      71 | 0x2672      |        9842 |
|      72 | 0x2673      |        9843 |
|      73 | 0x2674      |        9844 |
|      74 | 0x2675      |        9845 |
|      75 | 0xFFFD1393  |  4294775699 |
|      76 | 0xFFFE59D7  |  4294859223 |
|      77 | 0x0542      |        1346 |
|      78 | 0x2677      |        9847 |
|      79 | 0x2679      |        9849 |
|      80 | 0x00C9      |         201 |
|      81 | 0xFFFD121A  |  4294775322 |
|      82 | 0xFFFE55D8  |  4294858200 |
|      83 | 0x2676      |        9846 |
|      84 | 0x267A      |        9850 |
|      85 | 0x267B      |        9851 |
|      86 | 0x267E      |        9854 |
|      87 | 0x267F      |        9855 |
|      88 | 0x2680      |        9856 |
|      89 | 0x2683      |        9859 |
|      90 | 0x2684      |        9860 |
|      91 | 0x2686      |        9862 |
|      92 | 0x268C      |        9868 |
|      93 | 0x0002      |           2 |
|      94 | 0x2685      |        9861 |
|      95 | 0x2687      |        9863 |
|      96 | 0x2688      |        9864 |
|      97 | 0x2689      |        9865 |
|      98 | 0x268A      |        9866 |
|      99 | 0x268B      |        9867 |
|     100 | 0x268D      |        9869 |
|     101 | 0x268E      |        9870 |
|     102 | 0x268F      |        9871 |
|     103 | 0x2690      |        9872 |
|     104 | 0x2691      |        9873 |
|     105 | 0x2692      |        9874 |
|     106 | 0x2693      |        9875 |
|     107 | 0x2694      |        9876 |
|     108 | 0xFFFD0AE9  |  4294773481 |
|     109 | 0xFFFE1CAD  |  4294843565 |
|     110 | 0x0995      |        2453 |
|     111 | 0xFFFD04C1  |  4294771905 |
|     112 | 0xFFFE23CD  |  4294845389 |
|     113 | 0x0CCA      |        3274 |
|     114 | 0xFFFD06BE  |  4294772414 |
|     115 | 0xFFFE29AC  |  4294846892 |
|     116 | 0xFFFD0560  |  4294772064 |
|     117 | 0xFFFE25BC  |  4294845884 |
|     118 | 0x0C73      |        3187 |
|     119 | 0x292A      |       10538 |
|     120 | 0x292B      |       10539 |
|     121 | 0x292C      |       10540 |
|     122 | 0x2972      |       10610 |
|     123 | 0x2973      |       10611 |
|     124 | 0x01BA      |         442 |
|     125 | 0x3B60F     |      243215 |
|     126 | 0x42C2      |       17090 |
|     127 | 0xFFFFECB0  |  4294962352 |
|     128 | 0x3BF46     |      245574 |
|     129 | 0x42A2      |       17058 |
|     130 | 0xFFFFEC5C  |  4294962268 |
|     131 | 0x3C01D     |      245789 |
|     132 | 0x41EA      |       16874 |
|     133 | 0xFFFFEC60  |  4294962272 |

## String References

- **7400**: Wait right there! Hey, I said wait!
- **7401**: That hat you have there...it must be the latest style by that mad hatter.
- **7402**: Okay, now that I know there's a new type of hat available, I have no need for you. Make yourself scarce, kid!
- **8970**: Who the hell are you? Did you know that this residence belongs to the unspeakably rich Honoi-Gomoi--oh, that's me, you know!--before you so rudely barged in?
- **9825**: Mana Orbs...!!!
- **9826**: Hmph!!! What the hell do you know about Mana Orbs!?
- **9827**: ...Unbelievable! After I specifically told those little brats at the port not to talk to anyone about this!
- **9828**: ...What did you say!? You're friends with those meddlesome minors? Hmph! Aren't you embarrassed to tell people you hang around with kids at your age?
- **9829**: Well, that's your business, I guess. If you're buddy-wuddies with those whippersnappers, I have only this to say to you: Give me back my Mana Orb!
- **9830**: For the past few years, I've given $1 to the thief from Windurst Woods, Nanaa Mihgo, and had her search the towers of Sarutabaruta...
- **9831**: When I thought I finally had one within my grasp, that idiot Mithra dropped it somewhere! Do you know how much trouble I went through to find out it was those S.O.B.'s who had picked it up!?
- **9832**: I'm not letting this mattaru drop! You can deliver a message to them...
- **9833**: GIVE ME BACK MY MANA O\`RB!
- **9834**: For years I've had Nanaa Mihgo search...
- **9835**: Just thinking of that moronic Mithra losing my precious Mana Orb, only to have it claimed by a bunch of anklebiters... Argh, it makes my blood boil!
- **9836**: What the hell is this?
- **9837**: Are you trying to tell me to give up on my Mana Orb by giving me this?
- **9838**: You've got Yagudo droppings for brains, stripling! This has nothing to do with money!
- **9839**: And while I'm at it, you might as well know that I gave Nanaa Mihgo one $1 every week as payment for searching for that Mana Orb!
- **9840**: Take a look over here! Feast your eyes on all the wonderful goods that I possess! I'm rich beyond your wildest dreams!
- **9841**: I've got so many $1, I'm throwing them away! Here, take one if it'll make you disappear and leave me be!
- **9842**: Hm? What're you making that face for?
- **9843**: I'll take this to the Manustery! It's a crime against Cardians to have a Mana Orb. You'll probably get thrown into prison and made to break rocks all day!
- **9844**: You've got Yagudo droppings for brains, stripling! This has nothing to do with money!
- **9845**: I can take this to the Manustery, you know! That is, if you don't mind those S.O.B.'s getting into hot water for hiding a Mana Orb!
- **9846**: ...!?
- **9847**: You used that Mana Orb on a Cardian!?
- **9849**: ...Unbelievable... All that incredible power... Wasted on a useless puppet... A puppet...
- **9850**: That's it! Disassemble that Cardian right this instantaru!
- **9851**: Then pull out the Mana Orb and bring it here to me! You got that!?
- **9854**: Here's a linkshell, tell somebody who cares! You've got no clue of the value of that Mana Orb, and I don't need to hear your meaningless sniveling!
- **9855**: That Mana Orb is more than it appears to be. Its worth is incalculable!
- **9856**: Go and start taking that automaton to pieces! You hear me!
- **9859**: Go and start taking that automaton to pieces! You hear me?
- **9860**: ...You again! What do you want with me now? Have you come to stand up for those S.O.B.'s? You're wasting your time!
- **9861**: Unless, of course, you're willing to listen to my offer. I'll make it worth your while, so you'd be smart to take me up on it.
- **9862**: Take the offer? [Worth my while...?/No thanks, ya big meanie.]
- **9863**: You're not going to amount to much as an adventurer if you don't recognize your opportunities.
- **9864**: Well now, an adventurer worthy of the name. You realize you have to look at things with a cool head on your shoulders.
- **9865**: If what those S.O.B.'s say is true, I doubt they'll be able to disassemble that Cardian on their own.
- **9866**: I don't know too much about Cardians, but I'm sure it won't just sit there quietly while someone tries to take it to pieces. More than likely it'll lash out and we'll have all sorts of trouble on our hands.
- **9867**: This is where you come in. To keep the little moppets safe, you're going to have to be the one to do it.
- **9868**: They'll probably be upset with you for a long while, but they'll get over it. Surely you don't want to see them suffer over this mess any longer.
- **9869**: If you care for those kids, you'll take it upon yourself to do the dirty work... That's what adults are there for, right?
- **9870**: If you care for those kids, you'll take it upon yourself to do the dirty work... That's what adults are there for, right?
- **9871**: Unbelievable!
- **9872**: You're refusing to carry out the task you've already agreed to?
- **9873**: And you call yourself an adventurer? Only a fool would pass up the chance to work for me.
- **9874**: ...Fine, then. There's no sense going on about it. Plenty of other adventurers out there. I'll just find myself one with a backbone.
- **9875**: This conversation is over. Go live with your S.O.B. friends in your happy little fantasy world. That's more your level.
- **9876**: This conversation is over. Go live with your S.O.B. friends in your happy little fantasy world. That's more your level.
- **10538**: Take that $3 to Yoran-Oran. He should be able to fix it!
- **10539**: I can use that mirror to show people my memories of Tavnazia...?
- **10540**: That...that's impossible! Now give it back! Give me back my mirror!
- **10610**: Hey, you're the mangy adventurer that was with Sir Louverance. You're not getting in his way now, are you? Hm?
- **10611**: He said that he was heading on business for a tiny island to the southeast of Mhaura. You'd better not be thinking of following him!
- **15442**: Eh? You presume to give this pathetic excuse for a Starlight Celebration present to me, the insanely well-to-do Honoi-Gomoi!? Hmph, I'll accept it, but only because you're being so stubborn about it.

## Events

### Event 65535

#### Metadata

| Field        | Value   |
|--------------|---------|
| Entrypoint   | 0x0000  |
| Data Size    | 1 bytes |
| Instructions | 1       |

```
      00 01 02 03 04 05 06 07  08 09 0A 0B 0C 0D 0E 0F
      -- -- -- -- -- -- -- --  -- -- -- -- -- -- -- --
0000: 00                                                .               
```

#### Opcodes

```
  0: 0x0000 [0x00] END_REQSTACK()
```

### Event 32691

#### Metadata

| Field        | Value    |
|--------------|----------|
| Entrypoint   | 0x0001   |
| Data Size    | 12 bytes |
| Instructions | 6        |

```
      00 01 02 03 04 05 06 07  08 09 0A 0B 0C 0D 0E 0F
      -- -- -- -- -- -- -- --  -- -- -- -- -- -- -- --
0000:    42 1E F0 FF FF 7F 1D  00 80 23 21 00            B........#!.   
```

#### Opcodes

```
  0: 0x0001 [0x42] SET_CLI_EVENT_CANCEL_DATA()
  1: 0x0002 [0x1E] EventEntity looks at LocalPlayer and starts talking
  2: 0x0007 [0x1D] PRINT_EVENT_MESSAGE(message_id=15442*)
    → "Eh? You presume to give this pathetic excuse for a Starlight Celebration present to me, the insanely well-to-do Honoi-Gomoi!? Hmph, I'll accept it, but only because you're being so stubborn about it."
  3: 0x000A [0x23] WAIT_FOR_DIALOG_INTERACTION
  4: 0x000B [0x21] END_EVENT
  5: 0x000C [0x00] END_REQSTACK()
```

### Event 65535.1

#### Metadata

| Field        | Value    |
|--------------|----------|
| Entrypoint   | 0x000D   |
| Data Size    | 16 bytes |
| Instructions | 2        |

```
      00 01 02 03 04 05 06 07  08 09 0A 0B 0C 0D 0E 0F
      -- -- -- -- -- -- -- --  -- -- -- -- -- -- -- --
0000:                                         66 01 80               f..
0010: F8 FF FF 7F F8 FF FF 7F  74 6C 6B 30 00           ........tlk0.   
```

#### Opcodes

```
  0: 0x000D [0x66] LOAD_EXT_SCHEDULER_MAIN: Load scheduler "tlk0" with entities [EventEntity, EventEntity], work=40*
  1: 0x001C [0x00] END_REQSTACK()
```

### Event 65535.2

#### Metadata

| Field        | Value    |
|--------------|----------|
| Entrypoint   | 0x001D   |
| Data Size    | 42 bytes |
| Instructions | 4        |

```
      00 01 02 03 04 05 06 07  08 09 0A 0B 0C 0D 0E 0F
      -- -- -- -- -- -- -- --  -- -- -- -- -- -- -- --
0010:                                         53 F8 FF               S..
0020: FF 7F F8 FF FF 7F 74 6C  6B 30 66 01 80 F8 FF FF  ......tlk0f.....
0030: 7F F8 FF FF 7F 74 6C 6B  31 53 F8 FF FF 7F F8 FF  .....tlk1S......
0040: FF 7F 74 6C 6B 31 00                              ..tlk1.         
```

#### Opcodes

```
  0: 0x001D [0x53] WAIT_SCHEDULER_TASK: Wait for scheduler "tlk0" with entities [EventEntity, EventEntity]
  1: 0x002A [0x66] LOAD_EXT_SCHEDULER_MAIN: Load scheduler "tlk1" with entities [EventEntity, EventEntity], work=40*
  2: 0x0039 [0x53] WAIT_SCHEDULER_TASK: Wait for scheduler "tlk1" with entities [EventEntity, EventEntity]
  3: 0x0046 [0x00] END_REQSTACK()
```

### Event 65535.3

#### Metadata

| Field        | Value    |
|--------------|----------|
| Entrypoint   | 0x0047   |
| Data Size    | 16 bytes |
| Instructions | 2        |

```
      00 01 02 03 04 05 06 07  08 09 0A 0B 0C 0D 0E 0F
      -- -- -- -- -- -- -- --  -- -- -- -- -- -- -- --
0040:                      66  01 80 F8 FF FF 7F F8 FF         f........
0050: FF 7F 74 68 6B 31 00                              ..thk1.         
```

#### Opcodes

```
  0: 0x0047 [0x66] LOAD_EXT_SCHEDULER_MAIN: Load scheduler "thk1" with entities [EventEntity, EventEntity], work=40*
  1: 0x0056 [0x00] END_REQSTACK()
```

### Event 65535.4

#### Metadata

| Field        | Value    |
|--------------|----------|
| Entrypoint   | 0x0057   |
| Data Size    | 14 bytes |
| Instructions | 2        |

```
      00 01 02 03 04 05 06 07  08 09 0A 0B 0C 0D 0E 0F
      -- -- -- -- -- -- -- --  -- -- -- -- -- -- -- --
0050:                      53  F8 FF FF 7F F8 FF FF 7F         S........
0060: 74 68 6B 31 00                                    thk1.           
```

#### Opcodes

```
  0: 0x0057 [0x53] WAIT_SCHEDULER_TASK: Wait for scheduler "thk1" with entities [EventEntity, EventEntity]
  1: 0x0064 [0x00] END_REQSTACK()
```

### Event 65535.5

#### Metadata

| Field        | Value    |
|--------------|----------|
| Entrypoint   | 0x0065   |
| Data Size    | 16 bytes |
| Instructions | 2        |

```
      00 01 02 03 04 05 06 07  08 09 0A 0B 0C 0D 0E 0F
      -- -- -- -- -- -- -- --  -- -- -- -- -- -- -- --
0060:                66 01 80  F8 FF FF 7F F8 FF FF 7F       f..........
0070: 74 68 6B 32 00                                    thk2.           
```

#### Opcodes

```
  0: 0x0065 [0x66] LOAD_EXT_SCHEDULER_MAIN: Load scheduler "thk2" with entities [EventEntity, EventEntity], work=40*
  1: 0x0074 [0x00] END_REQSTACK()
```

### Event 65535.6

#### Metadata

| Field        | Value    |
|--------------|----------|
| Entrypoint   | 0x0075   |
| Data Size    | 14 bytes |
| Instructions | 2        |

```
      00 01 02 03 04 05 06 07  08 09 0A 0B 0C 0D 0E 0F
      -- -- -- -- -- -- -- --  -- -- -- -- -- -- -- --
0070:                53 F8 FF  FF 7F F8 FF FF 7F 74 68       S........th
0080: 6B 32 00                                          k2.             
```

#### Opcodes

```
  0: 0x0075 [0x53] WAIT_SCHEDULER_TASK: Wait for scheduler "thk2" with entities [EventEntity, EventEntity]
  1: 0x0082 [0x00] END_REQSTACK()
```

### Event 65535.7

#### Metadata

| Field        | Value    |
|--------------|----------|
| Entrypoint   | 0x0083   |
| Data Size    | 16 bytes |
| Instructions | 2        |

```
      00 01 02 03 04 05 06 07  08 09 0A 0B 0C 0D 0E 0F
      -- -- -- -- -- -- -- --  -- -- -- -- -- -- -- --
0080:          66 02 80 F8 FF  FF 7F F8 FF FF 7F 73 68     f..........sh
0090: 6B 30 00                                          k0.             
```

#### Opcodes

```
  0: 0x0083 [0x66] LOAD_EXT_SCHEDULER_MAIN: Load scheduler "shk0" with entities [EventEntity, EventEntity], work=41*
  1: 0x0092 [0x00] END_REQSTACK()
```

### Event 65535.8

#### Metadata

| Field        | Value    |
|--------------|----------|
| Entrypoint   | 0x0093   |
| Data Size    | 14 bytes |
| Instructions | 2        |

```
      00 01 02 03 04 05 06 07  08 09 0A 0B 0C 0D 0E 0F
      -- -- -- -- -- -- -- --  -- -- -- -- -- -- -- --
0090:          53 F8 FF FF 7F  F8 FF FF 7F 73 68 6B 30     S........shk0
00A0: 00                                                .               
```

#### Opcodes

```
  0: 0x0093 [0x53] WAIT_SCHEDULER_TASK: Wait for scheduler "shk0" with entities [EventEntity, EventEntity]
  1: 0x00A0 [0x00] END_REQSTACK()
```

### Event 65535.9

#### Metadata

| Field        | Value    |
|--------------|----------|
| Entrypoint   | 0x00A1   |
| Data Size    | 16 bytes |
| Instructions | 2        |

```
      00 01 02 03 04 05 06 07  08 09 0A 0B 0C 0D 0E 0F
      -- -- -- -- -- -- -- --  -- -- -- -- -- -- -- --
00A0:    66 01 80 F8 FF FF 7F  F8 FF FF 7F 64 69 73 30   f..........dis0
00B0: 00                                                .               
```

#### Opcodes

```
  0: 0x00A1 [0x66] LOAD_EXT_SCHEDULER_MAIN: Load scheduler "dis0" with entities [EventEntity, EventEntity], work=40*
  1: 0x00B0 [0x00] END_REQSTACK()
```

### Event 65535.10

#### Metadata

| Field        | Value    |
|--------------|----------|
| Entrypoint   | 0x00B1   |
| Data Size    | 14 bytes |
| Instructions | 2        |

```
      00 01 02 03 04 05 06 07  08 09 0A 0B 0C 0D 0E 0F
      -- -- -- -- -- -- -- --  -- -- -- -- -- -- -- --
00B0:    53 F8 FF FF 7F F8 FF  FF 7F 64 69 73 30 00      S........dis0. 
```

#### Opcodes

```
  0: 0x00B1 [0x53] WAIT_SCHEDULER_TASK: Wait for scheduler "dis0" with entities [EventEntity, EventEntity]
  1: 0x00BE [0x00] END_REQSTACK()
```

### Event 65535.11

#### Metadata

| Field        | Value    |
|--------------|----------|
| Entrypoint   | 0x00BF   |
| Data Size    | 16 bytes |
| Instructions | 2        |

```
      00 01 02 03 04 05 06 07  08 09 0A 0B 0C 0D 0E 0F
      -- -- -- -- -- -- -- --  -- -- -- -- -- -- -- --
00B0:                                               66                 f
00C0: 01 80 F8 FF FF 7F F8 FF  FF 7F 70 6F 69 30 00     ..........poi0. 
```

#### Opcodes

```
  0: 0x00BF [0x66] LOAD_EXT_SCHEDULER_MAIN: Load scheduler "poi0" with entities [EventEntity, EventEntity], work=40*
  1: 0x00CE [0x00] END_REQSTACK()
```

### Event 65535.12

#### Metadata

| Field        | Value    |
|--------------|----------|
| Entrypoint   | 0x00CF   |
| Data Size    | 14 bytes |
| Instructions | 2        |

```
      00 01 02 03 04 05 06 07  08 09 0A 0B 0C 0D 0E 0F
      -- -- -- -- -- -- -- --  -- -- -- -- -- -- -- --
00C0:                                               53                 S
00D0: F8 FF FF 7F F8 FF FF 7F  70 6F 69 30 00           ........poi0.   
```

#### Opcodes

```
  0: 0x00CF [0x53] WAIT_SCHEDULER_TASK: Wait for scheduler "poi0" with entities [EventEntity, EventEntity]
  1: 0x00DC [0x00] END_REQSTACK()
```

### Event 65535.13

#### Metadata

| Field        | Value    |
|--------------|----------|
| Entrypoint   | 0x00DD   |
| Data Size    | 16 bytes |
| Instructions | 2        |

```
      00 01 02 03 04 05 06 07  08 09 0A 0B 0C 0D 0E 0F
      -- -- -- -- -- -- -- --  -- -- -- -- -- -- -- --
00D0:                                         66 01 80               f..
00E0: F8 FF FF 7F F8 FF FF 7F  70 61 73 30 00           ........pas0.   
```

#### Opcodes

```
  0: 0x00DD [0x66] LOAD_EXT_SCHEDULER_MAIN: Load scheduler "pas0" with entities [EventEntity, EventEntity], work=40*
  1: 0x00EC [0x00] END_REQSTACK()
```

### Event 65535.14

#### Metadata

| Field        | Value    |
|--------------|----------|
| Entrypoint   | 0x00ED   |
| Data Size    | 14 bytes |
| Instructions | 2        |

```
      00 01 02 03 04 05 06 07  08 09 0A 0B 0C 0D 0E 0F
      -- -- -- -- -- -- -- --  -- -- -- -- -- -- -- --
00E0:                                         53 F8 FF               S..
00F0: FF 7F F8 FF FF 7F 70 61  73 30 00                 ......pas0.     
```

#### Opcodes

```
  0: 0x00ED [0x53] WAIT_SCHEDULER_TASK: Wait for scheduler "pas0" with entities [EventEntity, EventEntity]
  1: 0x00FA [0x00] END_REQSTACK()
```

### Event 65535.15

#### Metadata

| Field        | Value    |
|--------------|----------|
| Entrypoint   | 0x00FB   |
| Data Size    | 16 bytes |
| Instructions | 2        |

```
      00 01 02 03 04 05 06 07  08 09 0A 0B 0C 0D 0E 0F
      -- -- -- -- -- -- -- --  -- -- -- -- -- -- -- --
00F0:                                   66 01 80 F8 FF             f....
0100: FF 7F F8 FF FF 7F 73 79  75 30 00                 ......syu0.     
```

#### Opcodes

```
  0: 0x00FB [0x66] LOAD_EXT_SCHEDULER_MAIN: Load scheduler "syu0" with entities [EventEntity, EventEntity], work=40*
  1: 0x010A [0x00] END_REQSTACK()
```

### Event 65535.16

#### Metadata

| Field        | Value    |
|--------------|----------|
| Entrypoint   | 0x010B   |
| Data Size    | 14 bytes |
| Instructions | 2        |

```
      00 01 02 03 04 05 06 07  08 09 0A 0B 0C 0D 0E 0F
      -- -- -- -- -- -- -- --  -- -- -- -- -- -- -- --
0100:                                   53 F8 FF FF 7F             S....
0110: F8 FF FF 7F 73 79 75 30  00                       ....syu0.       
```

#### Opcodes

```
  0: 0x010B [0x53] WAIT_SCHEDULER_TASK: Wait for scheduler "syu0" with entities [EventEntity, EventEntity]
  1: 0x0118 [0x00] END_REQSTACK()
```

### Event 65535.17

#### Metadata

| Field        | Value    |
|--------------|----------|
| Entrypoint   | 0x0119   |
| Data Size    | 16 bytes |
| Instructions | 2        |

```
      00 01 02 03 04 05 06 07  08 09 0A 0B 0C 0D 0E 0F
      -- -- -- -- -- -- -- --  -- -- -- -- -- -- -- --
0110:                             66 01 80 F8 FF FF 7F           f......
0120: F8 FF FF 7F 77 61 76 30  00                       ....wav0.       
```

#### Opcodes

```
  0: 0x0119 [0x66] LOAD_EXT_SCHEDULER_MAIN: Load scheduler "wav0" with entities [EventEntity, EventEntity], work=40*
  1: 0x0128 [0x00] END_REQSTACK()
```

### Event 65535.18

#### Metadata

| Field        | Value    |
|--------------|----------|
| Entrypoint   | 0x0129   |
| Data Size    | 14 bytes |
| Instructions | 2        |

```
      00 01 02 03 04 05 06 07  08 09 0A 0B 0C 0D 0E 0F
      -- -- -- -- -- -- -- --  -- -- -- -- -- -- -- --
0120:                             53 F8 FF FF 7F F8 FF           S......
0130: FF 7F 77 61 76 30 00                              ..wav0.         
```

#### Opcodes

```
  0: 0x0129 [0x53] WAIT_SCHEDULER_TASK: Wait for scheduler "wav0" with entities [EventEntity, EventEntity]
  1: 0x0136 [0x00] END_REQSTACK()
```

### Event 65535.19

#### Metadata

| Field        | Value    |
|--------------|----------|
| Entrypoint   | 0x0137   |
| Data Size    | 16 bytes |
| Instructions | 2        |

```
      00 01 02 03 04 05 06 07  08 09 0A 0B 0C 0D 0E 0F
      -- -- -- -- -- -- -- --  -- -- -- -- -- -- -- --
0130:                      66  02 80 F8 FF FF 7F F8 FF         f........
0140: FF 7F 65 68 6E 30 00                              ..ehn0.         
```

#### Opcodes

```
  0: 0x0137 [0x66] LOAD_EXT_SCHEDULER_MAIN: Load scheduler "ehn0" with entities [EventEntity, EventEntity], work=41*
  1: 0x0146 [0x00] END_REQSTACK()
```

### Event 65535.20

#### Metadata

| Field        | Value    |
|--------------|----------|
| Entrypoint   | 0x0147   |
| Data Size    | 22 bytes |
| Instructions | 4        |

```
      00 01 02 03 04 05 06 07  08 09 0A 0B 0C 0D 0E 0F
      -- -- -- -- -- -- -- --  -- -- -- -- -- -- -- --
0140:                      53  F8 FF FF 7F F8 FF FF 7F         S........
0150: 65 68 6E 30 5E 69 64 6C  30 1C 03 80 00           ehn0^idl0....   
```

#### Opcodes

```
  0: 0x0147 [0x53] WAIT_SCHEDULER_TASK: Wait for scheduler "ehn0" with entities [EventEntity, EventEntity]
  1: 0x0154 [0x5E] EventEntity goes idle (kills current action) (animation: "idl0")
  2: 0x0159 [0x1C] WAIT(60* ticks)
  3: 0x015C [0x00] END_REQSTACK()
```

### Event 65535.21

#### Metadata

| Field        | Value    |
|--------------|----------|
| Entrypoint   | 0x015D   |
| Data Size    | 16 bytes |
| Instructions | 2        |

```
      00 01 02 03 04 05 06 07  08 09 0A 0B 0C 0D 0E 0F
      -- -- -- -- -- -- -- --  -- -- -- -- -- -- -- --
0150:                                         66 02 80               f..
0160: F8 FF FF 7F F8 FF FF 7F  65 68 6E 31 00           ........ehn1.   
```

#### Opcodes

```
  0: 0x015D [0x66] LOAD_EXT_SCHEDULER_MAIN: Load scheduler "ehn1" with entities [EventEntity, EventEntity], work=41*
  1: 0x016C [0x00] END_REQSTACK()
```

### Event 65535.22

#### Metadata

| Field        | Value    |
|--------------|----------|
| Entrypoint   | 0x016D   |
| Data Size    | 14 bytes |
| Instructions | 2        |

```
      00 01 02 03 04 05 06 07  08 09 0A 0B 0C 0D 0E 0F
      -- -- -- -- -- -- -- --  -- -- -- -- -- -- -- --
0160:                                         53 F8 FF               S..
0170: FF 7F F8 FF FF 7F 65 68  6E 31 00                 ......ehn1.     
```

#### Opcodes

```
  0: 0x016D [0x53] WAIT_SCHEDULER_TASK: Wait for scheduler "ehn1" with entities [EventEntity, EventEntity]
  1: 0x017A [0x00] END_REQSTACK()
```

### Event 65535.23

#### Metadata

| Field        | Value    |
|--------------|----------|
| Entrypoint   | 0x017B   |
| Data Size    | 16 bytes |
| Instructions | 2        |

```
      00 01 02 03 04 05 06 07  08 09 0A 0B 0C 0D 0E 0F
      -- -- -- -- -- -- -- --  -- -- -- -- -- -- -- --
0170:                                   66 04 80 F8 FF             f....
0180: FF 7F F8 FF FF 7F 6D 73  75 30 00                 ......msu0.     
```

#### Opcodes

```
  0: 0x017B [0x66] LOAD_EXT_SCHEDULER_MAIN: Load scheduler "msu0" with entities [EventEntity, EventEntity], work=42*
  1: 0x018A [0x00] END_REQSTACK()
```

### Event 65535.24

#### Metadata

| Field        | Value    |
|--------------|----------|
| Entrypoint   | 0x018B   |
| Data Size    | 14 bytes |
| Instructions | 2        |

```
      00 01 02 03 04 05 06 07  08 09 0A 0B 0C 0D 0E 0F
      -- -- -- -- -- -- -- --  -- -- -- -- -- -- -- --
0180:                                   53 F8 FF FF 7F             S....
0190: F8 FF FF 7F 6D 73 75 30  00                       ....msu0.       
```

#### Opcodes

```
  0: 0x018B [0x53] WAIT_SCHEDULER_TASK: Wait for scheduler "msu0" with entities [EventEntity, EventEntity]
  1: 0x0198 [0x00] END_REQSTACK()
```

### Event 65535.25

#### Metadata

| Field        | Value    |
|--------------|----------|
| Entrypoint   | 0x0199   |
| Data Size    | 16 bytes |
| Instructions | 2        |

```
      00 01 02 03 04 05 06 07  08 09 0A 0B 0C 0D 0E 0F
      -- -- -- -- -- -- -- --  -- -- -- -- -- -- -- --
0190:                             66 04 80 F8 FF FF 7F           f......
01A0: F8 FF FF 7F 6D 73 75 31  00                       ....msu1.       
```

#### Opcodes

```
  0: 0x0199 [0x66] LOAD_EXT_SCHEDULER_MAIN: Load scheduler "msu1" with entities [EventEntity, EventEntity], work=42*
  1: 0x01A8 [0x00] END_REQSTACK()
```

### Event 65535.26

#### Metadata

| Field        | Value    |
|--------------|----------|
| Entrypoint   | 0x01A9   |
| Data Size    | 22 bytes |
| Instructions | 4        |

```
      00 01 02 03 04 05 06 07  08 09 0A 0B 0C 0D 0E 0F
      -- -- -- -- -- -- -- --  -- -- -- -- -- -- -- --
01A0:                             53 F8 FF FF 7F F8 FF           S......
01B0: FF 7F 6D 73 75 31 5E 69  64 6C 30 1C 03 80 00     ..msu1^idl0.... 
```

#### Opcodes

```
  0: 0x01A9 [0x53] WAIT_SCHEDULER_TASK: Wait for scheduler "msu1" with entities [EventEntity, EventEntity]
  1: 0x01B6 [0x5E] EventEntity goes idle (kills current action) (animation: "idl0")
  2: 0x01BB [0x1C] WAIT(60* ticks)
  3: 0x01BE [0x00] END_REQSTACK()
```

### Event 65535.27

#### Metadata

| Field        | Value    |
|--------------|----------|
| Entrypoint   | 0x01BF   |
| Data Size    | 16 bytes |
| Instructions | 2        |

```
      00 01 02 03 04 05 06 07  08 09 0A 0B 0C 0D 0E 0F
      -- -- -- -- -- -- -- --  -- -- -- -- -- -- -- --
01B0:                                               66                 f
01C0: 02 80 F8 FF FF 7F F8 FF  FF 7F 67 68 6E 31 00     ..........ghn1. 
```

#### Opcodes

```
  0: 0x01BF [0x66] LOAD_EXT_SCHEDULER_MAIN: Load scheduler "ghn1" with entities [EventEntity, EventEntity], work=41*
  1: 0x01CE [0x00] END_REQSTACK()
```

### Event 65535.28

#### Metadata

| Field        | Value    |
|--------------|----------|
| Entrypoint   | 0x01CF   |
| Data Size    | 14 bytes |
| Instructions | 2        |

```
      00 01 02 03 04 05 06 07  08 09 0A 0B 0C 0D 0E 0F
      -- -- -- -- -- -- -- --  -- -- -- -- -- -- -- --
01C0:                                               53                 S
01D0: F8 FF FF 7F F8 FF FF 7F  67 68 6E 31 00           ........ghn1.   
```

#### Opcodes

```
  0: 0x01CF [0x53] WAIT_SCHEDULER_TASK: Wait for scheduler "ghn1" with entities [EventEntity, EventEntity]
  1: 0x01DC [0x00] END_REQSTACK()
```

### Event 65535.29

#### Metadata

| Field        | Value    |
|--------------|----------|
| Entrypoint   | 0x01DD   |
| Data Size    | 16 bytes |
| Instructions | 2        |

```
      00 01 02 03 04 05 06 07  08 09 0A 0B 0C 0D 0E 0F
      -- -- -- -- -- -- -- --  -- -- -- -- -- -- -- --
01D0:                                         66 01 80               f..
01E0: F8 FF FF 7F F8 FF FF 7F  69 72 6F 30 00           ........iro0.   
```

#### Opcodes

```
  0: 0x01DD [0x66] LOAD_EXT_SCHEDULER_MAIN: Load scheduler "iro0" with entities [EventEntity, EventEntity], work=40*
  1: 0x01EC [0x00] END_REQSTACK()
```

### Event 65535.30

#### Metadata

| Field        | Value    |
|--------------|----------|
| Entrypoint   | 0x01ED   |
| Data Size    | 14 bytes |
| Instructions | 2        |

```
      00 01 02 03 04 05 06 07  08 09 0A 0B 0C 0D 0E 0F
      -- -- -- -- -- -- -- --  -- -- -- -- -- -- -- --
01E0:                                         53 F8 FF               S..
01F0: FF 7F F8 FF FF 7F 69 72  6F 30 00                 ......iro0.     
```

#### Opcodes

```
  0: 0x01ED [0x53] WAIT_SCHEDULER_TASK: Wait for scheduler "iro0" with entities [EventEntity, EventEntity]
  1: 0x01FA [0x00] END_REQSTACK()
```

### Event 65535.31

#### Metadata

| Field        | Value    |
|--------------|----------|
| Entrypoint   | 0x01FB   |
| Data Size    | 16 bytes |
| Instructions | 2        |

```
      00 01 02 03 04 05 06 07  08 09 0A 0B 0C 0D 0E 0F
      -- -- -- -- -- -- -- --  -- -- -- -- -- -- -- --
01F0:                                   66 01 80 F8 FF             f....
0200: FF 7F F8 FF FF 7F 77 61  69 30 00                 ......wai0.     
```

#### Opcodes

```
  0: 0x01FB [0x66] LOAD_EXT_SCHEDULER_MAIN: Load scheduler "wai0" with entities [EventEntity, EventEntity], work=40*
  1: 0x020A [0x00] END_REQSTACK()
```

### Event 65535.32

#### Metadata

| Field        | Value    |
|--------------|----------|
| Entrypoint   | 0x020B   |
| Data Size    | 14 bytes |
| Instructions | 2        |

```
      00 01 02 03 04 05 06 07  08 09 0A 0B 0C 0D 0E 0F
      -- -- -- -- -- -- -- --  -- -- -- -- -- -- -- --
0200:                                   53 F8 FF FF 7F             S....
0210: F8 FF FF 7F 77 61 69 30  00                       ....wai0.       
```

#### Opcodes

```
  0: 0x020B [0x53] WAIT_SCHEDULER_TASK: Wait for scheduler "wai0" with entities [EventEntity, EventEntity]
  1: 0x0218 [0x00] END_REQSTACK()
```

### Event 65535.33

#### Metadata

| Field        | Value    |
|--------------|----------|
| Entrypoint   | 0x0219   |
| Data Size    | 16 bytes |
| Instructions | 2        |

```
      00 01 02 03 04 05 06 07  08 09 0A 0B 0C 0D 0E 0F
      -- -- -- -- -- -- -- --  -- -- -- -- -- -- -- --
0210:                             66 04 80 F8 FF FF 7F           f......
0220: F8 FF FF 7F 62 69 6B 30  00                       ....bik0.       
```

#### Opcodes

```
  0: 0x0219 [0x66] LOAD_EXT_SCHEDULER_MAIN: Load scheduler "bik0" with entities [EventEntity, EventEntity], work=42*
  1: 0x0228 [0x00] END_REQSTACK()
```

### Event 65535.34

#### Metadata

| Field        | Value    |
|--------------|----------|
| Entrypoint   | 0x0229   |
| Data Size    | 14 bytes |
| Instructions | 2        |

```
      00 01 02 03 04 05 06 07  08 09 0A 0B 0C 0D 0E 0F
      -- -- -- -- -- -- -- --  -- -- -- -- -- -- -- --
0220:                             53 F8 FF FF 7F F8 FF           S......
0230: FF 7F 62 69 6B 30 00                              ..bik0.         
```

#### Opcodes

```
  0: 0x0229 [0x53] WAIT_SCHEDULER_TASK: Wait for scheduler "bik0" with entities [EventEntity, EventEntity]
  1: 0x0236 [0x00] END_REQSTACK()
```

### Event 65535.35

#### Metadata

| Field        | Value    |
|--------------|----------|
| Entrypoint   | 0x0237   |
| Data Size    | 16 bytes |
| Instructions | 2        |

```
      00 01 02 03 04 05 06 07  08 09 0A 0B 0C 0D 0E 0F
      -- -- -- -- -- -- -- --  -- -- -- -- -- -- -- --
0230:                      66  04 80 F8 FF FF 7F F8 FF         f........
0240: FF 7F 62 69 6B 31 00                              ..bik1.         
```

#### Opcodes

```
  0: 0x0237 [0x66] LOAD_EXT_SCHEDULER_MAIN: Load scheduler "bik1" with entities [EventEntity, EventEntity], work=42*
  1: 0x0246 [0x00] END_REQSTACK()
```

### Event 65535.36

#### Metadata

| Field        | Value    |
|--------------|----------|
| Entrypoint   | 0x0247   |
| Data Size    | 14 bytes |
| Instructions | 2        |

```
      00 01 02 03 04 05 06 07  08 09 0A 0B 0C 0D 0E 0F
      -- -- -- -- -- -- -- --  -- -- -- -- -- -- -- --
0240:                      53  F8 FF FF 7F F8 FF FF 7F         S........
0250: 62 69 6B 31 00                                    bik1.           
```

#### Opcodes

```
  0: 0x0247 [0x53] WAIT_SCHEDULER_TASK: Wait for scheduler "bik1" with entities [EventEntity, EventEntity]
  1: 0x0254 [0x00] END_REQSTACK()
```

### Event 65535.37

#### Metadata

| Field        | Value    |
|--------------|----------|
| Entrypoint   | 0x0255   |
| Data Size    | 16 bytes |
| Instructions | 2        |

```
      00 01 02 03 04 05 06 07  08 09 0A 0B 0C 0D 0E 0F
      -- -- -- -- -- -- -- --  -- -- -- -- -- -- -- --
0250:                66 01 80  F8 FF FF 7F F8 FF FF 7F       f..........
0260: 67 6B 72 30 00                                    gkr0.           
```

#### Opcodes

```
  0: 0x0255 [0x66] LOAD_EXT_SCHEDULER_MAIN: Load scheduler "gkr0" with entities [EventEntity, EventEntity], work=40*
  1: 0x0264 [0x00] END_REQSTACK()
```

### Event 65535.38

#### Metadata

| Field        | Value    |
|--------------|----------|
| Entrypoint   | 0x0265   |
| Data Size    | 14 bytes |
| Instructions | 2        |

```
      00 01 02 03 04 05 06 07  08 09 0A 0B 0C 0D 0E 0F
      -- -- -- -- -- -- -- --  -- -- -- -- -- -- -- --
0260:                53 F8 FF  FF 7F F8 FF FF 7F 67 6B       S........gk
0270: 72 30 00                                          r0.             
```

#### Opcodes

```
  0: 0x0265 [0x53] WAIT_SCHEDULER_TASK: Wait for scheduler "gkr0" with entities [EventEntity, EventEntity]
  1: 0x0272 [0x00] END_REQSTACK()
```

### Event 65535.39

#### Metadata

| Field        | Value    |
|--------------|----------|
| Entrypoint   | 0x0273   |
| Data Size    | 16 bytes |
| Instructions | 2        |

```
      00 01 02 03 04 05 06 07  08 09 0A 0B 0C 0D 0E 0F
      -- -- -- -- -- -- -- --  -- -- -- -- -- -- -- --
0270:          66 01 80 F8 FF  FF 7F F8 FF FF 7F 67 6B     f..........gk
0280: 72 31 00                                          r1.             
```

#### Opcodes

```
  0: 0x0273 [0x66] LOAD_EXT_SCHEDULER_MAIN: Load scheduler "gkr1" with entities [EventEntity, EventEntity], work=40*
  1: 0x0282 [0x00] END_REQSTACK()
```

### Event 65535.40

#### Metadata

| Field        | Value    |
|--------------|----------|
| Entrypoint   | 0x0283   |
| Data Size    | 14 bytes |
| Instructions | 2        |

```
      00 01 02 03 04 05 06 07  08 09 0A 0B 0C 0D 0E 0F
      -- -- -- -- -- -- -- --  -- -- -- -- -- -- -- --
0280:          53 F8 FF FF 7F  F8 FF FF 7F 67 6B 72 31     S........gkr1
0290: 00                                                .               
```

#### Opcodes

```
  0: 0x0283 [0x53] WAIT_SCHEDULER_TASK: Wait for scheduler "gkr1" with entities [EventEntity, EventEntity]
  1: 0x0290 [0x00] END_REQSTACK()
```

### Event 65535.41

#### Metadata

| Field        | Value    |
|--------------|----------|
| Entrypoint   | 0x0291   |
| Data Size    | 16 bytes |
| Instructions | 2        |

```
      00 01 02 03 04 05 06 07  08 09 0A 0B 0C 0D 0E 0F
      -- -- -- -- -- -- -- --  -- -- -- -- -- -- -- --
0290:    66 02 80 F8 FF FF 7F  F8 FF FF 7F 6F 68 68 30   f..........ohh0
02A0: 00                                                .               
```

#### Opcodes

```
  0: 0x0291 [0x66] LOAD_EXT_SCHEDULER_MAIN: Load scheduler "ohh0" with entities [EventEntity, EventEntity], work=41*
  1: 0x02A0 [0x00] END_REQSTACK()
```

### Event 65535.42

#### Metadata

| Field        | Value    |
|--------------|----------|
| Entrypoint   | 0x02A1   |
| Data Size    | 22 bytes |
| Instructions | 4        |

```
      00 01 02 03 04 05 06 07  08 09 0A 0B 0C 0D 0E 0F
      -- -- -- -- -- -- -- --  -- -- -- -- -- -- -- --
02A0:    53 F8 FF FF 7F F8 FF  FF 7F 6F 68 68 30 5E 69   S........ohh0^i
02B0: 64 6C 30 1C 03 80 00                              dl0....         
```

#### Opcodes

```
  0: 0x02A1 [0x53] WAIT_SCHEDULER_TASK: Wait for scheduler "ohh0" with entities [EventEntity, EventEntity]
  1: 0x02AE [0x5E] EventEntity goes idle (kills current action) (animation: "idl0")
  2: 0x02B3 [0x1C] WAIT(60* ticks)
  3: 0x02B6 [0x00] END_REQSTACK()
```

### Event 65535.43

#### Metadata

| Field        | Value    |
|--------------|----------|
| Entrypoint   | 0x02B7   |
| Data Size    | 44 bytes |
| Instructions | 4        |

```
      00 01 02 03 04 05 06 07  08 09 0A 0B 0C 0D 0E 0F
      -- -- -- -- -- -- -- --  -- -- -- -- -- -- -- --
02B0:                      66  02 80 F8 FF FF 7F F8 FF         f........
02C0: FF 7F 73 68 6B 30 53 F8  FF FF 7F F8 FF FF 7F 73  ..shk0S........s
02D0: 68 6B 30 66 01 80 F8 FF  FF 7F F8 FF FF 7F 7A 69  hk0f..........zi
02E0: 74 30 00                                          t0.             
```

#### Opcodes

```
  0: 0x02B7 [0x66] LOAD_EXT_SCHEDULER_MAIN: Load scheduler "shk0" with entities [EventEntity, EventEntity], work=41*
  1: 0x02C6 [0x53] WAIT_SCHEDULER_TASK: Wait for scheduler "shk0" with entities [EventEntity, EventEntity]
  2: 0x02D3 [0x66] LOAD_EXT_SCHEDULER_MAIN: Load scheduler "zit0" with entities [EventEntity, EventEntity], work=40*
  3: 0x02E2 [0x00] END_REQSTACK()
```

### Event 65535.44

#### Metadata

| Field        | Value    |
|--------------|----------|
| Entrypoint   | 0x02E3   |
| Data Size    | 16 bytes |
| Instructions | 2        |

```
      00 01 02 03 04 05 06 07  08 09 0A 0B 0C 0D 0E 0F
      -- -- -- -- -- -- -- --  -- -- -- -- -- -- -- --
02E0:          66 01 80 F8 FF  FF 7F F8 FF FF 7F 7A 69     f..........zi
02F0: 74 30 00                                          t0.             
```

#### Opcodes

```
  0: 0x02E3 [0x66] LOAD_EXT_SCHEDULER_MAIN: Load scheduler "zit0" with entities [EventEntity, EventEntity], work=40*
  1: 0x02F2 [0x00] END_REQSTACK()
```

### Event 65535.45

#### Metadata

| Field        | Value    |
|--------------|----------|
| Entrypoint   | 0x02F3   |
| Data Size    | 14 bytes |
| Instructions | 2        |

```
      00 01 02 03 04 05 06 07  08 09 0A 0B 0C 0D 0E 0F
      -- -- -- -- -- -- -- --  -- -- -- -- -- -- -- --
02F0:          53 F8 FF FF 7F  F8 FF FF 7F 7A 69 74 30     S........zit0
0300: 00                                                .               
```

#### Opcodes

```
  0: 0x02F3 [0x53] WAIT_SCHEDULER_TASK: Wait for scheduler "zit0" with entities [EventEntity, EventEntity]
  1: 0x0300 [0x00] END_REQSTACK()
```

### Event 65535.46

#### Metadata

| Field        | Value    |
|--------------|----------|
| Entrypoint   | 0x0301   |
| Data Size    | 18 bytes |
| Instructions | 4        |

```
      00 01 02 03 04 05 06 07  08 09 0A 0B 0C 0D 0E 0F
      -- -- -- -- -- -- -- --  -- -- -- -- -- -- -- --
0300:    6E F8 FF FF 7F 05 80  99 F8 FF FF 7F 99 F8 FF   n..............
0310: FF 7F 00                                          ...             
```

#### Opcodes

```
  0: 0x0301 [0x6E] EventEntity uses emote 1*
  1: 0x0308 [0x99] Wait for EventEntity animation to complete
  2: 0x030D [0x99] Wait for EventEntity animation to complete
  3: 0x0312 [0x00] END_REQSTACK()
```

### Event 65535.47

#### Metadata

| Field        | Value    |
|--------------|----------|
| Entrypoint   | 0x0313   |
| Data Size    | 18 bytes |
| Instructions | 4        |

```
      00 01 02 03 04 05 06 07  08 09 0A 0B 0C 0D 0E 0F
      -- -- -- -- -- -- -- --  -- -- -- -- -- -- -- --
0310:          6E F8 FF FF 7F  06 80 99 F8 FF FF 7F 99     n............
0320: F8 FF FF 7F 00                                    .....           
```

#### Opcodes

```
  0: 0x0313 [0x6E] EventEntity uses emote 7*
  1: 0x031A [0x99] Wait for EventEntity animation to complete
  2: 0x031F [0x99] Wait for EventEntity animation to complete
  3: 0x0324 [0x00] END_REQSTACK()
```

### Event 65535.48

#### Metadata

| Field        | Value    |
|--------------|----------|
| Entrypoint   | 0x0325   |
| Data Size    | 18 bytes |
| Instructions | 4        |

```
      00 01 02 03 04 05 06 07  08 09 0A 0B 0C 0D 0E 0F
      -- -- -- -- -- -- -- --  -- -- -- -- -- -- -- --
0320:                6E F8 FF  FF 7F 07 80 99 F8 FF FF       n..........
0330: 7F 99 F8 FF FF 7F 00                              .......         
```

#### Opcodes

```
  0: 0x0325 [0x6E] EventEntity uses emote 6*
  1: 0x032C [0x99] Wait for EventEntity animation to complete
  2: 0x0331 [0x99] Wait for EventEntity animation to complete
  3: 0x0336 [0x00] END_REQSTACK()
```

### Event 65535.49

#### Metadata

| Field        | Value    |
|--------------|----------|
| Entrypoint   | 0x0337   |
| Data Size    | 18 bytes |
| Instructions | 4        |

```
      00 01 02 03 04 05 06 07  08 09 0A 0B 0C 0D 0E 0F
      -- -- -- -- -- -- -- --  -- -- -- -- -- -- -- --
0330:                      6E  F8 FF FF 7F 08 80 99 F8         n........
0340: FF FF 7F 99 F8 FF FF 7F  00                       .........       
```

#### Opcodes

```
  0: 0x0337 [0x6E] EventEntity uses emote 8*
  1: 0x033E [0x99] Wait for EventEntity animation to complete
  2: 0x0343 [0x99] Wait for EventEntity animation to complete
  3: 0x0348 [0x00] END_REQSTACK()
```

### Event 65535.50

#### Metadata

| Field        | Value    |
|--------------|----------|
| Entrypoint   | 0x0349   |
| Data Size    | 18 bytes |
| Instructions | 4        |

```
      00 01 02 03 04 05 06 07  08 09 0A 0B 0C 0D 0E 0F
      -- -- -- -- -- -- -- --  -- -- -- -- -- -- -- --
0340:                             6E F8 FF FF 7F 09 80           n......
0350: 99 F8 FF FF 7F 99 F8 FF  FF 7F 00                 ...........     
```

#### Opcodes

```
  0: 0x0349 [0x6E] EventEntity uses emote 13*
  1: 0x0350 [0x99] Wait for EventEntity animation to complete
  2: 0x0355 [0x99] Wait for EventEntity animation to complete
  3: 0x035A [0x00] END_REQSTACK()
```

### Event 65535.51

#### Metadata

| Field        | Value    |
|--------------|----------|
| Entrypoint   | 0x035B   |
| Data Size    | 27 bytes |
| Instructions | 3        |

```
      00 01 02 03 04 05 06 07  08 09 0A 0B 0C 0D 0E 0F
      -- -- -- -- -- -- -- --  -- -- -- -- -- -- -- --
0350:                                   2C F8 FF FF 7F             ,....
0360: F8 FF FF 7F 64 65 61 64  53 F8 FF FF 7F F8 FF FF  ....deadS.......
0370: 7F 64 65 61 64 00                                 .dead.          
```

#### Opcodes

```
  0: 0x035B [0x2C] CREATE_SCHEDULER_TASK: Create scheduler "dead" with entities [EventEntity, EventEntity]
  1: 0x0368 [0x53] WAIT_SCHEDULER_TASK: Wait for scheduler "dead" with entities [EventEntity, EventEntity]
  2: 0x0375 [0x00] END_REQSTACK()
```

### Event 65535.52

#### Metadata

| Field        | Value   |
|--------------|---------|
| Entrypoint   | 0x0376  |
| Data Size    | 9 bytes |
| Instructions | 3       |

```
      00 01 02 03 04 05 06 07  08 09 0A 0B 0C 0D 0E 0F
      -- -- -- -- -- -- -- --  -- -- -- -- -- -- -- --
0370:                   5E 69  64 6C 30 1C 03 80 00           ^idl0.... 
```

#### Opcodes

```
  0: 0x0376 [0x5E] EventEntity goes idle (kills current action) (animation: "idl0")
  1: 0x037B [0x1C] WAIT(60* ticks)
  2: 0x037E [0x00] END_REQSTACK()
```

### Event 65535.53

#### Metadata

| Field        | Value    |
|--------------|----------|
| Entrypoint   | 0x037F   |
| Data Size    | 16 bytes |
| Instructions | 2        |

```
      00 01 02 03 04 05 06 07  08 09 0A 0B 0C 0D 0E 0F
      -- -- -- -- -- -- -- --  -- -- -- -- -- -- -- --
0370:                                               66                 f
0380: 02 80 F8 FF FF 7F F8 FF  FF 7F 63 61 62 6B 00     ..........cabk. 
```

#### Opcodes

```
  0: 0x037F [0x66] LOAD_EXT_SCHEDULER_MAIN: Load scheduler "cabk" with entities [EventEntity, EventEntity], work=41*
  1: 0x038E [0x00] END_REQSTACK()
```

### Event 65535.54

#### Metadata

| Field        | Value    |
|--------------|----------|
| Entrypoint   | 0x038F   |
| Data Size    | 14 bytes |
| Instructions | 2        |

```
      00 01 02 03 04 05 06 07  08 09 0A 0B 0C 0D 0E 0F
      -- -- -- -- -- -- -- --  -- -- -- -- -- -- -- --
0380:                                               53                 S
0390: F8 FF FF 7F F8 FF FF 7F  63 61 62 6B 00           ........cabk.   
```

#### Opcodes

```
  0: 0x038F [0x53] WAIT_SCHEDULER_TASK: Wait for scheduler "cabk" with entities [EventEntity, EventEntity]
  1: 0x039C [0x00] END_REQSTACK()
```

### Event 65535.55

#### Metadata

| Field        | Value    |
|--------------|----------|
| Entrypoint   | 0x039D   |
| Data Size    | 16 bytes |
| Instructions | 2        |

```
      00 01 02 03 04 05 06 07  08 09 0A 0B 0C 0D 0E 0F
      -- -- -- -- -- -- -- --  -- -- -- -- -- -- -- --
0390:                                         66 0A 80               f..
03A0: F8 FF FF 7F F8 FF FF 7F  73 70 65 66 00           ........spef.   
```

#### Opcodes

```
  0: 0x039D [0x66] LOAD_EXT_SCHEDULER_MAIN: Load scheduler "spef" with entities [EventEntity, EventEntity], work=43*
  1: 0x03AC [0x00] END_REQSTACK()
```

### Event 65535.56

#### Metadata

| Field        | Value    |
|--------------|----------|
| Entrypoint   | 0x03AD   |
| Data Size    | 14 bytes |
| Instructions | 2        |

```
      00 01 02 03 04 05 06 07  08 09 0A 0B 0C 0D 0E 0F
      -- -- -- -- -- -- -- --  -- -- -- -- -- -- -- --
03A0:                                         53 F8 FF               S..
03B0: FF 7F F8 FF FF 7F 73 70  65 66 00                 ......spef.     
```

#### Opcodes

```
  0: 0x03AD [0x53] WAIT_SCHEDULER_TASK: Wait for scheduler "spef" with entities [EventEntity, EventEntity]
  1: 0x03BA [0x00] END_REQSTACK()
```

### Event 65535.57

#### Metadata

| Field        | Value    |
|--------------|----------|
| Entrypoint   | 0x03BB   |
| Data Size    | 16 bytes |
| Instructions | 2        |

```
      00 01 02 03 04 05 06 07  08 09 0A 0B 0C 0D 0E 0F
      -- -- -- -- -- -- -- --  -- -- -- -- -- -- -- --
03B0:                                   5B 0B 80 F8 FF             [....
03C0: FF 7F F8 FF FF 7F 6F 6B  69 72 00                 ......okir.     
```

#### Opcodes

```
  0: 0x03BB [0x5B] LOAD_EXT_SCHEDULER: Load scheduler "okir" with entities [EventEntity, EventEntity], work=430*
  1: 0x03CA [0x00] END_REQSTACK()
```

### Event 65535.58

#### Metadata

| Field        | Value    |
|--------------|----------|
| Entrypoint   | 0x03CB   |
| Data Size    | 14 bytes |
| Instructions | 2        |

```
      00 01 02 03 04 05 06 07  08 09 0A 0B 0C 0D 0E 0F
      -- -- -- -- -- -- -- --  -- -- -- -- -- -- -- --
03C0:                                   53 F8 FF FF 7F             S....
03D0: F8 FF FF 7F 6F 6B 69 72  00                       ....okir.       
```

#### Opcodes

```
  0: 0x03CB [0x53] WAIT_SCHEDULER_TASK: Wait for scheduler "okir" with entities [EventEntity, EventEntity]
  1: 0x03D8 [0x00] END_REQSTACK()
```

### Event 65535.59

#### Metadata

| Field        | Value    |
|--------------|----------|
| Entrypoint   | 0x03D9   |
| Data Size    | 16 bytes |
| Instructions | 2        |

```
      00 01 02 03 04 05 06 07  08 09 0A 0B 0C 0D 0E 0F
      -- -- -- -- -- -- -- --  -- -- -- -- -- -- -- --
03D0:                             5B 0C 80 F8 FF FF 7F           [......
03E0: F8 FF FF 7F 75 73 69 30  00                       ....usi0.       
```

#### Opcodes

```
  0: 0x03D9 [0x5B] LOAD_EXT_SCHEDULER: Load scheduler "usi0" with entities [EventEntity, EventEntity], work=431*
  1: 0x03E8 [0x00] END_REQSTACK()
```

### Event 65535.60

#### Metadata

| Field        | Value    |
|--------------|----------|
| Entrypoint   | 0x03E9   |
| Data Size    | 14 bytes |
| Instructions | 2        |

```
      00 01 02 03 04 05 06 07  08 09 0A 0B 0C 0D 0E 0F
      -- -- -- -- -- -- -- --  -- -- -- -- -- -- -- --
03E0:                             53 F8 FF FF 7F F8 FF           S......
03F0: FF 7F 75 73 69 30 00                              ..usi0.         
```

#### Opcodes

```
  0: 0x03E9 [0x53] WAIT_SCHEDULER_TASK: Wait for scheduler "usi0" with entities [EventEntity, EventEntity]
  1: 0x03F6 [0x00] END_REQSTACK()
```

### Event 65535.61

#### Metadata

| Field        | Value    |
|--------------|----------|
| Entrypoint   | 0x03F7   |
| Data Size    | 16 bytes |
| Instructions | 2        |

```
      00 01 02 03 04 05 06 07  08 09 0A 0B 0C 0D 0E 0F
      -- -- -- -- -- -- -- --  -- -- -- -- -- -- -- --
03F0:                      5B  0C 80 F8 FF FF 7F F8 FF         [........
0400: FF 7F 75 73 69 31 00                              ..usi1.         
```

#### Opcodes

```
  0: 0x03F7 [0x5B] LOAD_EXT_SCHEDULER: Load scheduler "usi1" with entities [EventEntity, EventEntity], work=431*
  1: 0x0406 [0x00] END_REQSTACK()
```

### Event 65535.62

#### Metadata

| Field        | Value    |
|--------------|----------|
| Entrypoint   | 0x0407   |
| Data Size    | 14 bytes |
| Instructions | 2        |

```
      00 01 02 03 04 05 06 07  08 09 0A 0B 0C 0D 0E 0F
      -- -- -- -- -- -- -- --  -- -- -- -- -- -- -- --
0400:                      53  F8 FF FF 7F F8 FF FF 7F         S........
0410: 75 73 69 31 00                                    usi1.           
```

#### Opcodes

```
  0: 0x0407 [0x53] WAIT_SCHEDULER_TASK: Wait for scheduler "usi1" with entities [EventEntity, EventEntity]
  1: 0x0414 [0x00] END_REQSTACK()
```

### Event 65535.63

#### Metadata

| Field        | Value    |
|--------------|----------|
| Entrypoint   | 0x0415   |
| Data Size    | 16 bytes |
| Instructions | 2        |

```
      00 01 02 03 04 05 06 07  08 09 0A 0B 0C 0D 0E 0F
      -- -- -- -- -- -- -- --  -- -- -- -- -- -- -- --
0410:                66 04 80  F8 FF FF 7F F8 FF FF 7F       f..........
0420: 74 65 68 30 00                                    teh0.           
```

#### Opcodes

```
  0: 0x0415 [0x66] LOAD_EXT_SCHEDULER_MAIN: Load scheduler "teh0" with entities [EventEntity, EventEntity], work=42*
  1: 0x0424 [0x00] END_REQSTACK()
```

### Event 65535.64

#### Metadata

| Field        | Value    |
|--------------|----------|
| Entrypoint   | 0x0425   |
| Data Size    | 14 bytes |
| Instructions | 2        |

```
      00 01 02 03 04 05 06 07  08 09 0A 0B 0C 0D 0E 0F
      -- -- -- -- -- -- -- --  -- -- -- -- -- -- -- --
0420:                53 F8 FF  FF 7F F8 FF FF 7F 74 65       S........te
0430: 68 30 00                                          h0.             
```

#### Opcodes

```
  0: 0x0425 [0x53] WAIT_SCHEDULER_TASK: Wait for scheduler "teh0" with entities [EventEntity, EventEntity]
  1: 0x0432 [0x00] END_REQSTACK()
```

### Event 65535.65

#### Metadata

| Field        | Value    |
|--------------|----------|
| Entrypoint   | 0x0433   |
| Data Size    | 16 bytes |
| Instructions | 2        |

```
      00 01 02 03 04 05 06 07  08 09 0A 0B 0C 0D 0E 0F
      -- -- -- -- -- -- -- --  -- -- -- -- -- -- -- --
0430:          66 04 80 F8 FF  FF 7F F8 FF FF 7F 74 65     f..........te
0440: 68 31 00                                          h1.             
```

#### Opcodes

```
  0: 0x0433 [0x66] LOAD_EXT_SCHEDULER_MAIN: Load scheduler "teh1" with entities [EventEntity, EventEntity], work=42*
  1: 0x0442 [0x00] END_REQSTACK()
```

### Event 65535.66

#### Metadata

| Field        | Value    |
|--------------|----------|
| Entrypoint   | 0x0443   |
| Data Size    | 14 bytes |
| Instructions | 2        |

```
      00 01 02 03 04 05 06 07  08 09 0A 0B 0C 0D 0E 0F
      -- -- -- -- -- -- -- --  -- -- -- -- -- -- -- --
0440:          53 F8 FF FF 7F  F8 FF FF 7F 74 65 68 31     S........teh1
0450: 00                                                .               
```

#### Opcodes

```
  0: 0x0443 [0x53] WAIT_SCHEDULER_TASK: Wait for scheduler "teh1" with entities [EventEntity, EventEntity]
  1: 0x0450 [0x00] END_REQSTACK()
```

### Event 65535.67

#### Metadata

| Field        | Value    |
|--------------|----------|
| Entrypoint   | 0x0451   |
| Data Size    | 16 bytes |
| Instructions | 2        |

```
      00 01 02 03 04 05 06 07  08 09 0A 0B 0C 0D 0E 0F
      -- -- -- -- -- -- -- --  -- -- -- -- -- -- -- --
0450:    66 0D 80 F8 FF FF 7F  F8 FF FF 7F 6D 64 71 30   f..........mdq0
0460: 00                                                .               
```

#### Opcodes

```
  0: 0x0451 [0x66] LOAD_EXT_SCHEDULER_MAIN: Load scheduler "mdq0" with entities [EventEntity, EventEntity], work=46*
  1: 0x0460 [0x00] END_REQSTACK()
```

### Event 65535.68

#### Metadata

| Field        | Value    |
|--------------|----------|
| Entrypoint   | 0x0461   |
| Data Size    | 14 bytes |
| Instructions | 2        |

```
      00 01 02 03 04 05 06 07  08 09 0A 0B 0C 0D 0E 0F
      -- -- -- -- -- -- -- --  -- -- -- -- -- -- -- --
0460:    53 F8 FF FF 7F F8 FF  FF 7F 6D 64 71 30 00      S........mdq0. 
```

#### Opcodes

```
  0: 0x0461 [0x53] WAIT_SCHEDULER_TASK: Wait for scheduler "mdq0" with entities [EventEntity, EventEntity]
  1: 0x046E [0x00] END_REQSTACK()
```

### Event 65535.69

#### Metadata

| Field        | Value    |
|--------------|----------|
| Entrypoint   | 0x046F   |
| Data Size    | 16 bytes |
| Instructions | 2        |

```
      00 01 02 03 04 05 06 07  08 09 0A 0B 0C 0D 0E 0F
      -- -- -- -- -- -- -- --  -- -- -- -- -- -- -- --
0460:                                               66                 f
0470: 0D 80 F8 FF FF 7F F8 FF  FF 7F 6D 64 71 33 00     ..........mdq3. 
```

#### Opcodes

```
  0: 0x046F [0x66] LOAD_EXT_SCHEDULER_MAIN: Load scheduler "mdq3" with entities [EventEntity, EventEntity], work=46*
  1: 0x047E [0x00] END_REQSTACK()
```

### Event 65535.70

#### Metadata

| Field        | Value    |
|--------------|----------|
| Entrypoint   | 0x047F   |
| Data Size    | 14 bytes |
| Instructions | 2        |

```
      00 01 02 03 04 05 06 07  08 09 0A 0B 0C 0D 0E 0F
      -- -- -- -- -- -- -- --  -- -- -- -- -- -- -- --
0470:                                               53                 S
0480: F8 FF FF 7F F8 FF FF 7F  6D 64 71 33 00           ........mdq3.   
```

#### Opcodes

```
  0: 0x047F [0x53] WAIT_SCHEDULER_TASK: Wait for scheduler "mdq3" with entities [EventEntity, EventEntity]
  1: 0x048C [0x00] END_REQSTACK()
```

### Event 650

#### Metadata

| Field        | Value    |
|--------------|----------|
| Entrypoint   | 0x048D   |
| Data Size    | 15 bytes |
| Instructions | 8        |

```
      00 01 02 03 04 05 06 07  08 09 0A 0B 0C 0D 0E 0F
      -- -- -- -- -- -- -- --  -- -- -- -- -- -- -- --
0480:                                         1E F0 FF               ...
0490: FF 7F 6F 70 1D 0E 80 23  20 00 21 00              ..op...# .!.    
```

#### Opcodes

```
  0: 0x048D [0x1E] EventEntity looks at LocalPlayer and starts talking
  1: 0x0492 [0x6F] WAIT_FRAME_DELAY: Yield until WaitTime reaches zero
  2: 0x0493 [0x70] WAIT_ENTITY_RENDER_FLAG: Wait while EventEntity->Render.Flags3 bit 2 is set (cancel turn if not)
  3: 0x0494 [0x1D] PRINT_EVENT_MESSAGE(message_id=8970*)
    → "Who the hell are you? Did you know that this residence belongs to the unspeakably rich Honoi-Gomoi--oh, that's me, you know!--before you so rudely barged in?"
  4: 0x0497 [0x23] WAIT_FOR_DIALOG_INTERACTION
  5: 0x0498 [0x20] SET_CLI_EVENT_UC_FLAG: Unlock player control
  6: 0x049A [0x21] END_EVENT
  7: 0x049B [0x00] END_REQSTACK()
```

### Event 59

#### Metadata

| Field        | Value    |
|--------------|----------|
| Entrypoint   | 0x049C   |
| Data Size    | 23 bytes |
| Instructions | 12       |

```
      00 01 02 03 04 05 06 07  08 09 0A 0B 0C 0D 0E 0F
      -- -- -- -- -- -- -- --  -- -- -- -- -- -- -- --
0490:                                      1E F0 FF FF              ....
04A0: 7F 6F 70 1D 0F 80 23 1D  10 80 23 1D 11 80 23 20  .op...#...#...# 
04B0: 00 21 00                                          .!.             
```

#### Opcodes

```
  0: 0x049C [0x1E] EventEntity looks at LocalPlayer and starts talking
  1: 0x04A1 [0x6F] WAIT_FRAME_DELAY: Yield until WaitTime reaches zero
  2: 0x04A2 [0x70] WAIT_ENTITY_RENDER_FLAG: Wait while EventEntity->Render.Flags3 bit 2 is set (cancel turn if not)
  3: 0x04A3 [0x1D] PRINT_EVENT_MESSAGE(message_id=7400*)
    → "Wait right there! Hey, I said wait!"
  4: 0x04A6 [0x23] WAIT_FOR_DIALOG_INTERACTION
  5: 0x04A7 [0x1D] PRINT_EVENT_MESSAGE(message_id=7401*)
    → "That hat you have there...it must be the latest style by that mad hatter."
  6: 0x04AA [0x23] WAIT_FOR_DIALOG_INTERACTION
  7: 0x04AB [0x1D] PRINT_EVENT_MESSAGE(message_id=7402*)
    → "Okay, now that I know there's a new type of hat available, I have no need for you. Make yourself scarce, kid!"
  8: 0x04AE [0x23] WAIT_FOR_DIALOG_INTERACTION
  9: 0x04AF [0x20] SET_CLI_EVENT_UC_FLAG: Unlock player control
 10: 0x04B1 [0x21] END_EVENT
 11: 0x04B2 [0x00] END_REQSTACK()
```

### Event 774

#### Metadata

| Field        | Value     |
|--------------|-----------|
| Entrypoint   | 0x04B3    |
| Data Size    | 817 bytes |
| Instructions | 102       |

```
      00 01 02 03 04 05 06 07  08 09 0A 0B 0C 0D 0E 0F
      -- -- -- -- -- -- -- --  -- -- -- -- -- -- -- --
04B0:          42 46 01 5D 12  80 13 80 45 13 80 F8 FF     BF.]....E....
04C0: FF 7F F8 FF FF 7F 66 64  6F 31 12 80 1C 14 80 75  ......fdo1.....u
04D0: 00 15 80 75 01 38 16 80  29 0E F0 FF FF 7F 42 29  ...u.8..).....B)
04E0: 08 F0 FF FF 7F 06 1E F0  FF FF 7F 6F 70 5C 00 17  ...........op\..
04F0: 80 5C 01 17 80 5D 18 80  05 80 1C 14 80 02 09 10  .\...]..........
0500: 19 80 00 19 05 45 1A 80  F0 FF FF 7F F0 FF FF 7F  .....E..........
0510: 73 30 35 37 12 80 01 62  05 02 09 10 1B 80 00 35  s057...b.......5
0520: 05 45 1A 80 F0 FF FF 7F  F0 FF FF 7F 73 30 35 37  .E..........s057
0530: 12 80 01 62 05 02 09 10  08 80 00 51 05 45 1A 80  ...b.......Q.E..
0540: F0 FF FF 7F F0 FF FF 7F  73 30 35 37 12 80 01 62  ........s057...b
0550: 05 45 1A 80 F0 FF FF 7F  F0 FF FF 7F 73 30 31 37  .E..........s017
0560: 12 80 45 13 80 F8 FF FF  7F F8 FF FF 7F 66 64 69  ..E..........fdi
0570: 31 12 80 27 0B 5C E0 0E  01 4B 2B 5C E0 0E 01 1C  1..'.\...K+\....
0580: 80 23 2A 0B 5C E0 0E 01  02 09 10 19 80 00 A2 05  .#*.\...........
0590: 52 1A 80 F0 FF FF 7F F0  FF FF 7F 73 30 35 37 01  R..........s057.
05A0: E5 05 02 09 10 1B 80 00  BC 05 52 1A 80 F0 FF FF  ..........R.....
05B0: 7F F0 FF FF 7F 73 30 35  37 01 E5 05 02 09 10 08  .....s057.......
05C0: 80 00 D6 05 52 1A 80 F0  FF FF 7F F0 FF FF 7F 73  ....R..........s
05D0: 30 35 37 01 E5 05 52 1A  80 F0 FF FF 7F F0 FF FF  057...R.........
05E0: 7F 73 30 31 37 45 13 80  F8 FF FF 7F F8 FF FF 7F  .s017E..........
05F0: 66 64 6F 31 12 80 1C 14  80 45 1A 80 F0 FF FF 7F  fdo1.....E......
0600: F0 FF FF 7F 73 30 31 38  12 80 45 13 80 F8 FF FF  ....s018..E.....
0610: 7F F8 FF FF 7F 66 64 69  31 12 80 29 08 5C E0 0E  .....fdi1..).\..
0620: 01 1C 29 0B 5C E0 0E 01  4E 29 08 5C E0 0E 01 1D  ..).\...N).\....
0630: 29 08 5C E0 0E 01 18 29  0B 5C E0 0E 01 4F 29 08  ).\....).\...O).
0640: 5C E0 0E 01 19 52 1A 80  F0 FF FF 7F F0 FF FF 7F  \....R..........
0650: 73 30 31 38 45 1A 80 F0  FF FF 7F F0 FF FF 7F 73  s018E..........s
0660: 30 31 39 12 80 29 08 5C  E0 0E 01 1A 29 08 5C E0  019..).\....).\.
0670: 0E 01 1B 29 08 5C E0 0E  01 1C 29 0B 5C E0 0E 01  ...).\....).\...
0680: 50 29 08 5C E0 0E 01 1D  52 1A 80 F0 FF FF 7F F0  P).\....R.......
0690: FF FF 7F 73 30 31 39 45  13 80 F0 FF FF 7F F0 FF  ...s019E........
06A0: FF 7F 6F 76 6C 31 12 80  45 1A 80 F0 FF FF 7F F0  ..ovl1..E.......
06B0: FF FF 7F 73 30 32 30 12  80 6E F8 FF FF 7F 07 80  ...s020..n......
06C0: 99 F8 FF FF 7F 29 0B 5C  E0 0E 01 51 52 1A 80 F0  .....).\...QR...
06D0: FF FF 7F F0 FF FF 7F 73  30 32 30 45 1A 80 F0 FF  .......s020E....
06E0: FF 7F F0 FF FF 7F 73 30  32 31 12 80 29 08 5C E0  ......s021..).\.
06F0: 0E 01 18 29 0B 5C E0 0E  01 52 29 08 5C E0 0E 01  ...).\...R).\...
0700: 19 29 08 5C E0 0E 01 1A  29 0B 5C E0 0E 01 53 29  .).\....).\...S)
0710: 08 5C E0 0E 01 1B 52 1A  80 F0 FF FF 7F F0 FF FF  .\....R.........
0720: 7F 73 30 32 31 45 1A 80  F0 FF FF 7F F0 FF FF 7F  .s021E..........
0730: 73 30 32 33 12 80 27 0B  5C E0 0E 01 4C 2B 5C E0  s023..'.\...L+\.
0740: 0E 01 1D 80 23 2A 0B 5C  E0 0E 01 52 1A 80 F0 FF  ....#*.\...R....
0750: FF 7F F0 FF FF 7F 73 30  32 33 45 13 80 F0 FF FF  ......s023E.....
0760: 7F F0 FF FF 7F 6F 76 6C  31 12 80 45 1A 80 F0 FF  .....ovl1..E....
0770: FF 7F F0 FF FF 7F 73 30  32 32 12 80 1E F0 FF FF  ......s022......
0780: 7F 6F 70 29 08 5C E0 0E  01 1E 1D 1E 80 23 29 08  .op).\.......#).
0790: 5C E0 0E 01 1F 5D 12 80  13 80 45 13 80 F8 FF FF  \....]....E.....
07A0: 7F F8 FF FF 7F 66 64 6F  31 12 80 1C 13 80 52 1A  .....fdo1.....R.
07B0: 80 F0 FF FF 7F F0 FF FF  7F 73 30 32 32 5C 00 1F  .........s022\..
07C0: 80 5C 01 1F 80 5D 18 80  05 80 46 00 1C 13 80 45  .\...]....F....E
07D0: 13 80 F8 FF FF 7F F8 FF  FF 7F 66 64 69 31 12 80  ..........fdi1..
07E0: 20 00 21 00                                        .!.            
```

#### Opcodes

```
  0: 0x04B3 [0x42] SET_CLI_EVENT_CANCEL_DATA()
  1: 0x04B4 [0x46] CAMERA_CONTROL: Disable user control
  2: 0x04B6 [0x5D] SET_MUSIC_VOLUME(volume=0*, fade_time=200*)
  3: 0x04BB [0x45] LOAD_SCHEDULED_TASK: Load scheduler "fdo1" with entities [EventEntity, EventEntity], work=[200*, 0*]
  4: 0x04CC [0x1C] WAIT(120* ticks)
  5: 0x04CF [0x75] LOAD_ROOM(Load indoor room, room=388*)
  6: 0x04D3 [0x75] LOAD_ROOM(No action)
  7: 0x04D5 [0x38] SET_CLIENT_EVENT_MODE(mode=19*)
  8: 0x04D8 [0x29] REQ_SET_WAIT(priority=0x0E, entity_id=LocalPlayer, tag_num=0x42)
  9: 0x04DF [0x29] REQ_SET_WAIT(priority=0x08, entity_id=LocalPlayer, tag_num=0x06)
 10: 0x04E6 [0x1E] EventEntity looks at LocalPlayer and starts talking
 11: 0x04EB [0x6F] WAIT_FRAME_DELAY: Yield until WaitTime reaches zero
 12: 0x04EC [0x70] WAIT_ENTITY_RENDER_FLAG: Wait while EventEntity->Render.Flags3 bit 2 is set (cancel turn if not)
 13: 0x04ED [0x5C] MUSIC_CONTROL: Set Idle (Day) music to song 163*
 14: 0x04F1 [0x5C] MUSIC_CONTROL: Set Idle (Night) music to song 163*
 15: 0x04F5 [0x5D] SET_MUSIC_VOLUME(volume=127*, fade_time=1*)
 16: 0x04FA [0x1C] WAIT(120* ticks)
 17: 0x04FD [0x02] IF !(Work_Zone[9] == 3*) GOTO 0x0519
 18: 0x0505 [0x45] LOAD_SCHEDULED_TASK: Load scheduler "s057" with entities [LocalPlayer, LocalPlayer], work=[247*, 0*]
 19: 0x0516 [0x01] GOTO 0x0562
 20: 0x0519 [0x02] IF !(Work_Zone[9] == 4*) GOTO 0x0535
 21: 0x0521 [0x45] LOAD_SCHEDULED_TASK: Load scheduler "s057" with entities [LocalPlayer, LocalPlayer], work=[247*, 0*]
 22: 0x0532 [0x01] GOTO 0x0562
 23: 0x0535 [0x02] IF !(Work_Zone[9] == 8*) GOTO 0x0551
 24: 0x053D [0x45] LOAD_SCHEDULED_TASK: Load scheduler "s057" with entities [LocalPlayer, LocalPlayer], work=[247*, 0*]
 25: 0x054E [0x01] GOTO 0x0562
 26: 0x0551 [0x45] LOAD_SCHEDULED_TASK: Load scheduler "s017" with entities [LocalPlayer, LocalPlayer], work=[247*, 0*]

SUBROUTINE_0562:
 27: 0x0562 [0x45] LOAD_SCHEDULED_TASK: Load scheduler "fdi1" with entities [EventEntity, EventEntity], work=[200*, 0*]
 28: 0x0573 [0x27] REQ_SET(priority=0x0B, entity_id=Honoi-Gomoi (ID: 17752156/0x010EE05C), tag_num=0x4B)
 29: 0x057A [0x2B] Honoi-Gomoi (ID: 17752156/0x010EE05C) [9825*]:
    → "Mana Orbs...!!!"
 30: 0x0581 [0x23] WAIT_FOR_DIALOG_INTERACTION
 31: 0x0582 [0x2A] GET_REQ_LEVEL(level=11, entity_id=Honoi-Gomoi (ID: 17752156/0x010EE05C))
 32: 0x0588 [0x02] IF !(Work_Zone[9] == 3*) GOTO 0x05A2
 33: 0x0590 [0x52] END_LOAD_SCHEDULER: End scheduler "s057" with entities [LocalPlayer, LocalPlayer], work=247*
 34: 0x059F [0x01] GOTO 0x05E5
 35: 0x05A2 [0x02] IF !(Work_Zone[9] == 4*) GOTO 0x05BC
 36: 0x05AA [0x52] END_LOAD_SCHEDULER: End scheduler "s057" with entities [LocalPlayer, LocalPlayer], work=247*
 37: 0x05B9 [0x01] GOTO 0x05E5
 38: 0x05BC [0x02] IF !(Work_Zone[9] == 8*) GOTO 0x05D6
 39: 0x05C4 [0x52] END_LOAD_SCHEDULER: End scheduler "s057" with entities [LocalPlayer, LocalPlayer], work=247*
 40: 0x05D3 [0x01] GOTO 0x05E5
 41: 0x05D6 [0x52] END_LOAD_SCHEDULER: End scheduler "s017" with entities [LocalPlayer, LocalPlayer], work=247*

SUBROUTINE_05E5:
 42: 0x05E5 [0x45] LOAD_SCHEDULED_TASK: Load scheduler "fdo1" with entities [EventEntity, EventEntity], work=[200*, 0*]
 43: 0x05F6 [0x1C] WAIT(120* ticks)
 44: 0x05F9 [0x45] LOAD_SCHEDULED_TASK: Load scheduler "s018" with entities [LocalPlayer, LocalPlayer], work=[247*, 0*]
 45: 0x060A [0x45] LOAD_SCHEDULED_TASK: Load scheduler "fdi1" with entities [EventEntity, EventEntity], work=[200*, 0*]
 46: 0x061B [0x29] REQ_SET_WAIT(priority=0x08, entity_id=Honoi-Gomoi (ID: 17752156/0x010EE05C), tag_num=0x1C)
 47: 0x0622 [0x29] REQ_SET_WAIT(priority=0x0B, entity_id=Honoi-Gomoi (ID: 17752156/0x010EE05C), tag_num=0x4E)
 48: 0x0629 [0x29] REQ_SET_WAIT(priority=0x08, entity_id=Honoi-Gomoi (ID: 17752156/0x010EE05C), tag_num=0x1D)
 49: 0x0630 [0x29] REQ_SET_WAIT(priority=0x08, entity_id=Honoi-Gomoi (ID: 17752156/0x010EE05C), tag_num=0x18)
 50: 0x0637 [0x29] REQ_SET_WAIT(priority=0x0B, entity_id=Honoi-Gomoi (ID: 17752156/0x010EE05C), tag_num=0x4F)
 51: 0x063E [0x29] REQ_SET_WAIT(priority=0x08, entity_id=Honoi-Gomoi (ID: 17752156/0x010EE05C), tag_num=0x19)
 52: 0x0645 [0x52] END_LOAD_SCHEDULER: End scheduler "s018" with entities [LocalPlayer, LocalPlayer], work=247*
 53: 0x0654 [0x45] LOAD_SCHEDULED_TASK: Load scheduler "s019" with entities [LocalPlayer, LocalPlayer], work=[247*, 0*]
 54: 0x0665 [0x29] REQ_SET_WAIT(priority=0x08, entity_id=Honoi-Gomoi (ID: 17752156/0x010EE05C), tag_num=0x1A)
 55: 0x066C [0x29] REQ_SET_WAIT(priority=0x08, entity_id=Honoi-Gomoi (ID: 17752156/0x010EE05C), tag_num=0x1B)
 56: 0x0673 [0x29] REQ_SET_WAIT(priority=0x08, entity_id=Honoi-Gomoi (ID: 17752156/0x010EE05C), tag_num=0x1C)
 57: 0x067A [0x29] REQ_SET_WAIT(priority=0x0B, entity_id=Honoi-Gomoi (ID: 17752156/0x010EE05C), tag_num=0x50)
 58: 0x0681 [0x29] REQ_SET_WAIT(priority=0x08, entity_id=Honoi-Gomoi (ID: 17752156/0x010EE05C), tag_num=0x1D)
 59: 0x0688 [0x52] END_LOAD_SCHEDULER: End scheduler "s019" with entities [LocalPlayer, LocalPlayer], work=247*
 60: 0x0697 [0x45] LOAD_SCHEDULED_TASK: Load scheduler "ovl1" with entities [LocalPlayer, LocalPlayer], work=[200*, 0*]
 61: 0x06A8 [0x45] LOAD_SCHEDULED_TASK: Load scheduler "s020" with entities [LocalPlayer, LocalPlayer], work=[247*, 0*]
 62: 0x06B9 [0x6E] EventEntity uses emote 6*
 63: 0x06C0 [0x99] Wait for EventEntity animation to complete
 64: 0x06C5 [0x29] REQ_SET_WAIT(priority=0x0B, entity_id=Honoi-Gomoi (ID: 17752156/0x010EE05C), tag_num=0x51)
 65: 0x06CC [0x52] END_LOAD_SCHEDULER: End scheduler "s020" with entities [LocalPlayer, LocalPlayer], work=247*
 66: 0x06DB [0x45] LOAD_SCHEDULED_TASK: Load scheduler "s021" with entities [LocalPlayer, LocalPlayer], work=[247*, 0*]
 67: 0x06EC [0x29] REQ_SET_WAIT(priority=0x08, entity_id=Honoi-Gomoi (ID: 17752156/0x010EE05C), tag_num=0x18)
 68: 0x06F3 [0x29] REQ_SET_WAIT(priority=0x0B, entity_id=Honoi-Gomoi (ID: 17752156/0x010EE05C), tag_num=0x52)
 69: 0x06FA [0x29] REQ_SET_WAIT(priority=0x08, entity_id=Honoi-Gomoi (ID: 17752156/0x010EE05C), tag_num=0x19)
 70: 0x0701 [0x29] REQ_SET_WAIT(priority=0x08, entity_id=Honoi-Gomoi (ID: 17752156/0x010EE05C), tag_num=0x1A)
 71: 0x0708 [0x29] REQ_SET_WAIT(priority=0x0B, entity_id=Honoi-Gomoi (ID: 17752156/0x010EE05C), tag_num=0x53)
 72: 0x070F [0x29] REQ_SET_WAIT(priority=0x08, entity_id=Honoi-Gomoi (ID: 17752156/0x010EE05C), tag_num=0x1B)
 73: 0x0716 [0x52] END_LOAD_SCHEDULER: End scheduler "s021" with entities [LocalPlayer, LocalPlayer], work=247*
 74: 0x0725 [0x45] LOAD_SCHEDULED_TASK: Load scheduler "s023" with entities [LocalPlayer, LocalPlayer], work=[247*, 0*]
 75: 0x0736 [0x27] REQ_SET(priority=0x0B, entity_id=Honoi-Gomoi (ID: 17752156/0x010EE05C), tag_num=0x4C)
 76: 0x073D [0x2B] Honoi-Gomoi (ID: 17752156/0x010EE05C) [9832*]:
    → "I'm not letting this mattaru drop! You can deliver a message to them..."
 77: 0x0744 [0x23] WAIT_FOR_DIALOG_INTERACTION
 78: 0x0745 [0x2A] GET_REQ_LEVEL(level=11, entity_id=Honoi-Gomoi (ID: 17752156/0x010EE05C))
 79: 0x074B [0x52] END_LOAD_SCHEDULER: End scheduler "s023" with entities [LocalPlayer, LocalPlayer], work=247*
 80: 0x075A [0x45] LOAD_SCHEDULED_TASK: Load scheduler "ovl1" with entities [LocalPlayer, LocalPlayer], work=[200*, 0*]
 81: 0x076B [0x45] LOAD_SCHEDULED_TASK: Load scheduler "s022" with entities [LocalPlayer, LocalPlayer], work=[247*, 0*]
 82: 0x077C [0x1E] EventEntity looks at LocalPlayer and starts talking
 83: 0x0781 [0x6F] WAIT_FRAME_DELAY: Yield until WaitTime reaches zero
 84: 0x0782 [0x70] WAIT_ENTITY_RENDER_FLAG: Wait while EventEntity->Render.Flags3 bit 2 is set (cancel turn if not)
 85: 0x0783 [0x29] REQ_SET_WAIT(priority=0x08, entity_id=Honoi-Gomoi (ID: 17752156/0x010EE05C), tag_num=0x1E)
 86: 0x078A [0x1D] PRINT_EVENT_MESSAGE(message_id=9833*)
    → "GIVE ME BACK MY MANA O`RB!"
 87: 0x078D [0x23] WAIT_FOR_DIALOG_INTERACTION
 88: 0x078E [0x29] REQ_SET_WAIT(priority=0x08, entity_id=Honoi-Gomoi (ID: 17752156/0x010EE05C), tag_num=0x1F)
 89: 0x0795 [0x5D] SET_MUSIC_VOLUME(volume=0*, fade_time=200*)
 90: 0x079A [0x45] LOAD_SCHEDULED_TASK: Load scheduler "fdo1" with entities [EventEntity, EventEntity], work=[200*, 0*]
 91: 0x07AB [0x1C] WAIT(200* ticks)
 92: 0x07AE [0x52] END_LOAD_SCHEDULER: End scheduler "s022" with entities [LocalPlayer, LocalPlayer], work=247*
 93: 0x07BD [0x5C] MUSIC_CONTROL: Set Idle (Day) music to song 151*
 94: 0x07C1 [0x5C] MUSIC_CONTROL: Set Idle (Night) music to song 151*
 95: 0x07C5 [0x5D] SET_MUSIC_VOLUME(volume=127*, fade_time=1*)
 96: 0x07CA [0x46] CAMERA_CONTROL: Restore default settings
 97: 0x07CC [0x1C] WAIT(200* ticks)
 98: 0x07CF [0x45] LOAD_SCHEDULED_TASK: Load scheduler "fdi1" with entities [EventEntity, EventEntity], work=[200*, 0*]
 99: 0x07E0 [0x20] SET_CLI_EVENT_UC_FLAG: Unlock player control
100: 0x07E2 [0x21] END_EVENT
101: 0x07E3 [0x00] END_REQSTACK()
```

### Event 65535.71

#### Metadata

| Field        | Value    |
|--------------|----------|
| Entrypoint   | 0x07E4   |
| Data Size    | 31 bytes |
| Instructions | 9        |

```
      00 01 02 03 04 05 06 07  08 09 0A 0B 0C 0D 0E 0F
      -- -- -- -- -- -- -- --  -- -- -- -- -- -- -- --
07E0:             32 09 80 1F  00 20 80 21 80 22 80 1F      2.... .!."..
07F0: 01 1F 00 23 80 24 80 22  80 1F 01 1E F0 FF FF 7F  ...#.$."........
0800: 6F 70 00                                          op.             
```

#### Opcodes

```
  0: 0x07E4 [0x32] ExtData[1]->MainSpeed = 13* * 0.1
  1: 0x07E7 [0x1F] MOVE_ENTITY: EventEntity moves to X=-194.937*, Z=-122.769*, Y=-10.150*
  2: 0x07EF [0x1F] MOVE_ENTITY: Update entity position (mode=1)
  3: 0x07F1 [0x1F] MOVE_ENTITY: EventEntity moves to X=-195.323*, Z=-121.527*, Y=-10.150*
  4: 0x07F9 [0x1F] MOVE_ENTITY: Update entity position (mode=1)
  5: 0x07FB [0x1E] EventEntity looks at LocalPlayer and starts talking
  6: 0x0800 [0x6F] WAIT_FRAME_DELAY: Yield until WaitTime reaches zero
  7: 0x0801 [0x70] WAIT_ENTITY_RENDER_FLAG: Wait while EventEntity->Render.Flags3 bit 2 is set (cancel turn if not)
  8: 0x0802 [0x00] END_REQSTACK()
```

### Event 65535.72

#### Metadata

| Field        | Value    |
|--------------|----------|
| Entrypoint   | 0x0803   |
| Data Size    | 14 bytes |
| Instructions | 4        |

```
      00 01 02 03 04 05 06 07  08 09 0A 0B 0C 0D 0E 0F
      -- -- -- -- -- -- -- --  -- -- -- -- -- -- -- --
0800:          32 09 80 1F 00  25 80 26 80 27 80 1F 01     2....%.&.'...
0810: 00                                                .               
```

#### Opcodes

```
  0: 0x0803 [0x32] ExtData[1]->MainSpeed = 13* * 0.1
  1: 0x0806 [0x1F] MOVE_ENTITY: EventEntity moves to X=-195.046*, Z=-122.917*, Y=-10.149*
  2: 0x080E [0x1F] MOVE_ENTITY: Update entity position (mode=1)
  3: 0x0810 [0x00] END_REQSTACK()
```

### Event 65535.73

#### Metadata

| Field        | Value   |
|--------------|---------|
| Entrypoint   | 0x0811  |
| Data Size    | 5 bytes |
| Instructions | 3       |

```
      00 01 02 03 04 05 06 07  08 09 0A 0B 0C 0D 0E 0F
      -- -- -- -- -- -- -- --  -- -- -- -- -- -- -- --
0810:    1D 1C 80 23 00                                  ...#.          
```

#### Opcodes

```
  0: 0x0811 [0x1D] PRINT_EVENT_MESSAGE(message_id=9825*)
    → "Mana Orbs...!!!"
  1: 0x0814 [0x23] WAIT_FOR_DIALOG_INTERACTION
  2: 0x0815 [0x00] END_REQSTACK()
```

### Event 65535.74

#### Metadata

| Field        | Value   |
|--------------|---------|
| Entrypoint   | 0x0816  |
| Data Size    | 5 bytes |
| Instructions | 3       |

```
      00 01 02 03 04 05 06 07  08 09 0A 0B 0C 0D 0E 0F
      -- -- -- -- -- -- -- --  -- -- -- -- -- -- -- --
0810:                   1D 28  80 23 00                       .(.#.     
```

#### Opcodes

```
  0: 0x0816 [0x1D] PRINT_EVENT_MESSAGE(message_id=9826*)
    → "Hmph!!! What the hell do you know about Mana Orbs!?"
  1: 0x0819 [0x23] WAIT_FOR_DIALOG_INTERACTION
  2: 0x081A [0x00] END_REQSTACK()
```

### Event 65535.75

#### Metadata

| Field        | Value   |
|--------------|---------|
| Entrypoint   | 0x081B  |
| Data Size    | 5 bytes |
| Instructions | 3       |

```
      00 01 02 03 04 05 06 07  08 09 0A 0B 0C 0D 0E 0F
      -- -- -- -- -- -- -- --  -- -- -- -- -- -- -- --
0810:                                   1D 29 80 23 00             .).#.
```

#### Opcodes

```
  0: 0x081B [0x1D] PRINT_EVENT_MESSAGE(message_id=9827*)
    → "...Unbelievable! After I specifically told those little brats at the port not to talk to anyone about this!"
  1: 0x081E [0x23] WAIT_FOR_DIALOG_INTERACTION
  2: 0x081F [0x00] END_REQSTACK()
```

### Event 65535.76

#### Metadata

| Field        | Value   |
|--------------|---------|
| Entrypoint   | 0x0820  |
| Data Size    | 5 bytes |
| Instructions | 3       |

```
      00 01 02 03 04 05 06 07  08 09 0A 0B 0C 0D 0E 0F
      -- -- -- -- -- -- -- --  -- -- -- -- -- -- -- --
0820: 1D 2A 80 23 00                                    .*.#.           
```

#### Opcodes

```
  0: 0x0820 [0x1D] PRINT_EVENT_MESSAGE(message_id=9828*)
    → "...What did you say!? You're friends with those meddlesome minors? Hmph! Aren't you embarrassed to tell people you hang around with kids at your age?"
  1: 0x0823 [0x23] WAIT_FOR_DIALOG_INTERACTION
  2: 0x0824 [0x00] END_REQSTACK()
```

### Event 65535.77

#### Metadata

| Field        | Value   |
|--------------|---------|
| Entrypoint   | 0x0825  |
| Data Size    | 5 bytes |
| Instructions | 3       |

```
      00 01 02 03 04 05 06 07  08 09 0A 0B 0C 0D 0E 0F
      -- -- -- -- -- -- -- --  -- -- -- -- -- -- -- --
0820:                1D 2B 80  23 00                         .+.#.      
```

#### Opcodes

```
  0: 0x0825 [0x1D] PRINT_EVENT_MESSAGE(message_id=9829*)
    → "Well, that's your business, I guess. If you're buddy-wuddies with those whippersnappers, I have only this to say to you: Give me back my Mana Orb!"
  1: 0x0828 [0x23] WAIT_FOR_DIALOG_INTERACTION
  2: 0x0829 [0x00] END_REQSTACK()
```

### Event 65535.78

#### Metadata

| Field        | Value   |
|--------------|---------|
| Entrypoint   | 0x082A  |
| Data Size    | 5 bytes |
| Instructions | 3       |

```
      00 01 02 03 04 05 06 07  08 09 0A 0B 0C 0D 0E 0F
      -- -- -- -- -- -- -- --  -- -- -- -- -- -- -- --
0820:                                1D 2C 80 23 00               .,.#. 
```

#### Opcodes

```
  0: 0x082A [0x1D] PRINT_EVENT_MESSAGE(message_id=9830*)
    → "For the past few years, I've given $1 to the thief from Windurst Woods, Nanaa Mihgo, and had her search the towers of Sarutabaruta..."
  1: 0x082D [0x23] WAIT_FOR_DIALOG_INTERACTION
  2: 0x082E [0x00] END_REQSTACK()
```

### Event 65535.79

#### Metadata

| Field        | Value   |
|--------------|---------|
| Entrypoint   | 0x082F  |
| Data Size    | 5 bytes |
| Instructions | 3       |

```
      00 01 02 03 04 05 06 07  08 09 0A 0B 0C 0D 0E 0F
      -- -- -- -- -- -- -- --  -- -- -- -- -- -- -- --
0820:                                               1D                 .
0830: 2D 80 23 00                                       -.#.            
```

#### Opcodes

```
  0: 0x082F [0x1D] PRINT_EVENT_MESSAGE(message_id=9831*)
    → "When I thought I finally had one within my grasp, that idiot Mithra dropped it somewhere! Do you know how much trouble I went through to find out it was those S.O.B.'s who had picked it up!?"
  1: 0x0832 [0x23] WAIT_FOR_DIALOG_INTERACTION
  2: 0x0833 [0x00] END_REQSTACK()
```

### Event 65535.80

#### Metadata

| Field        | Value   |
|--------------|---------|
| Entrypoint   | 0x0834  |
| Data Size    | 5 bytes |
| Instructions | 3       |

```
      00 01 02 03 04 05 06 07  08 09 0A 0B 0C 0D 0E 0F
      -- -- -- -- -- -- -- --  -- -- -- -- -- -- -- --
0830:             1D 1D 80 23  00                           ...#.       
```

#### Opcodes

```
  0: 0x0834 [0x1D] PRINT_EVENT_MESSAGE(message_id=9832*)
    → "I'm not letting this mattaru drop! You can deliver a message to them..."
  1: 0x0837 [0x23] WAIT_FOR_DIALOG_INTERACTION
  2: 0x0838 [0x00] END_REQSTACK()
```

### Event 777

#### Metadata

| Field        | Value    |
|--------------|----------|
| Entrypoint   | 0x0839   |
| Data Size    | 47 bytes |
| Instructions | 14       |

```
      00 01 02 03 04 05 06 07  08 09 0A 0B 0C 0D 0E 0F
      -- -- -- -- -- -- -- --  -- -- -- -- -- -- -- --
0830:                             1E F0 FF FF 7F 6F 70           .....op
0840: 29 08 5C E0 0E 01 18 1D  2E 80 23 1D 2F 80 23 29  ).\.......#./.#)
0850: 08 5C E0 0E 01 18 29 08  5C E0 0E 01 1A 29 08 5C  .\....).\....).\
0860: E0 0E 01 1B 20 00 21 00                           .... .!.        
```

#### Opcodes

```
  0: 0x0839 [0x1E] EventEntity looks at LocalPlayer and starts talking
  1: 0x083E [0x6F] WAIT_FRAME_DELAY: Yield until WaitTime reaches zero
  2: 0x083F [0x70] WAIT_ENTITY_RENDER_FLAG: Wait while EventEntity->Render.Flags3 bit 2 is set (cancel turn if not)
  3: 0x0840 [0x29] REQ_SET_WAIT(priority=0x08, entity_id=Honoi-Gomoi (ID: 17752156/0x010EE05C), tag_num=0x18)
  4: 0x0847 [0x1D] PRINT_EVENT_MESSAGE(message_id=9834*)
    → "For years I've had Nanaa Mihgo search..."
  5: 0x084A [0x23] WAIT_FOR_DIALOG_INTERACTION
  6: 0x084B [0x1D] PRINT_EVENT_MESSAGE(message_id=9835*)
    → "Just thinking of that moronic Mithra losing my precious Mana Orb, only to have it claimed by a bunch of anklebiters... Argh, it makes my blood boil!"
  7: 0x084E [0x23] WAIT_FOR_DIALOG_INTERACTION
  8: 0x084F [0x29] REQ_SET_WAIT(priority=0x08, entity_id=Honoi-Gomoi (ID: 17752156/0x010EE05C), tag_num=0x18)
  9: 0x0856 [0x29] REQ_SET_WAIT(priority=0x08, entity_id=Honoi-Gomoi (ID: 17752156/0x010EE05C), tag_num=0x1A)
 10: 0x085D [0x29] REQ_SET_WAIT(priority=0x08, entity_id=Honoi-Gomoi (ID: 17752156/0x010EE05C), tag_num=0x1B)
 11: 0x0864 [0x20] SET_CLI_EVENT_UC_FLAG: Unlock player control
 12: 0x0866 [0x21] END_EVENT
 13: 0x0867 [0x00] END_REQSTACK()
```

### Event 775

#### Metadata

| Field        | Value     |
|--------------|-----------|
| Entrypoint   | 0x0868    |
| Data Size    | 588 bytes |
| Instructions | 82        |

```
      00 01 02 03 04 05 06 07  08 09 0A 0B 0C 0D 0E 0F
      -- -- -- -- -- -- -- --  -- -- -- -- -- -- -- --
0860:                          42 46 01 5D 12 80 13 80          BF.]....
0870: 45 13 80 F8 FF FF 7F F8  FF FF 7F 66 64 6F 31 12  E..........fdo1.
0880: 80 1C 14 80 75 00 15 80  75 01 38 16 80 29 0E F0  ....u...u.8..)..
0890: FF FF 7F 42 29 08 F0 FF  FF 7F 06 37 23 80 24 80  ...B)......7#.$.
08A0: 22 80 30 80 1E F0 FF FF  7F 6F 70 5C 00 17 80 5C  ".0......op\...\
08B0: 01 17 80 5D 18 80 05 80  1C 14 80 45 1A 80 F0 FF  ...].......E....
08C0: FF 7F F0 FF FF 7F 73 30  32 30 12 80 45 13 80 F8  ......s020..E...
08D0: FF FF 7F F8 FF FF 7F 66  64 69 31 12 80 29 0B 5C  .......fdi1..).\
08E0: E0 0E 01 59 52 1A 80 F0  FF FF 7F F0 FF FF 7F 73  ...YR..........s
08F0: 30 32 30 45 1A 80 F0 FF  FF 7F F0 FF FF 7F 73 30  020E..........s0
0900: 31 38 12 80 29 08 5C E0  0E 01 18 29 0B 5C E0 0E  18..).\....).\..
0910: 01 5A 29 08 5C E0 0E 01  19 52 1A 80 F0 FF FF 7F  .Z).\....R......
0920: F0 FF FF 7F 73 30 31 38  45 1A 80 F0 FF FF 7F F0  ....s018E.......
0930: FF FF 7F 73 30 32 33 12  80 29 08 5C E0 0E 01 1A  ...s023..).\....
0940: 29 08 5C E0 0E 01 1B 27  0B 5C E0 0E 01 4C 1D 31  ).\....'.\...L.1
0950: 80 23 2A 0B 5C E0 0E 01  52 1A 80 F0 FF FF 7F F0  .#*.\...R.......
0960: FF FF 7F 73 30 32 33 45  1A 80 F0 FF FF 7F F0 FF  ...s023E........
0970: FF 7F 73 30 32 32 12 80  1E F0 FF FF 7F 6F 70 29  ..s022.......op)
0980: 08 5C E0 0E 01 0C 29 0B  5C E0 0E 01 5C 29 08 5C  .\....).\...\).\
0990: E0 0E 01 0D 52 1A 80 F0  FF FF 7F F0 FF FF 7F 73  ....R..........s
09A0: 30 32 32 45 13 80 F8 FF  FF 7F F8 FF FF 7F 66 64  022E..........fd
09B0: 6F 31 12 80 1C 14 80 29  08 F0 FF FF 7F 43 27 0E  o1.....).....C'.
09C0: F0 FF FF 7F 45 37 32 80  33 80 27 80 34 80 2B 5C  ....E72.3.'.4.+\
09D0: E0 0E 01 35 80 23 27 0B  5C E0 0E 01 57 27 0A 09  ...5.#'.\...W'..
09E0: E0 0E 01 21 45 13 80 F8  FF FF 7F F8 FF FF 7F 66  ...!E..........f
09F0: 64 69 31 12 80 1C 36 80  2A 0B 5C E0 0E 01 27 0B  di1...6.*.\...'.
0A00: 5C E0 0E 01 58 1D 37 80  23 2A 0B 5C E0 0E 01 2A  \...X.7.#*.\...*
0A10: 0E F0 FF FF 7F 2A 0A 09  E0 0E 01 52 1A 80 F0 FF  .....*.....R....
0A20: FF 7F F0 FF FF 7F 73 30  32 35 45 1A 80 F0 FF FF  ......s025E.....
0A30: 7F F0 FF FF 7F 73 30 32  36 12 80 29 08 5C E0 0E  .....s026..).\..
0A40: 01 18 29 0B 5C E0 0E 01  5E 29 0B 5C E0 0E 01 5F  ..).\...^).\..._
0A50: 5D 12 80 13 80 45 13 80  F8 FF FF 7F F8 FF FF 7F  ]....E..........
0A60: 66 64 6F 31 12 80 1C 13  80 29 08 5C E0 0E 01 19  fdo1.....).\....
0A70: 29 08 5C E0 0E 01 1A 29  08 5C E0 0E 01 1B 52 1A  ).\....).\....R.
0A80: 80 F0 FF FF 7F F0 FF FF  7F 73 30 32 36 5C 00 1F  .........s026\..
0A90: 80 5C 01 1F 80 5D 18 80  05 80 46 00 1C 13 80 45  .\...]....F....E
0AA0: 13 80 F8 FF FF 7F F8 FF  FF 7F 66 64 69 31 12 80  ..........fdi1..
0AB0: 20 00 21 00                                        .!.            
```

#### Opcodes

```
  0: 0x0868 [0x42] SET_CLI_EVENT_CANCEL_DATA()
  1: 0x0869 [0x46] CAMERA_CONTROL: Disable user control
  2: 0x086B [0x5D] SET_MUSIC_VOLUME(volume=0*, fade_time=200*)
  3: 0x0870 [0x45] LOAD_SCHEDULED_TASK: Load scheduler "fdo1" with entities [EventEntity, EventEntity], work=[200*, 0*]
  4: 0x0881 [0x1C] WAIT(120* ticks)
  5: 0x0884 [0x75] LOAD_ROOM(Load indoor room, room=388*)
  6: 0x0888 [0x75] LOAD_ROOM(No action)
  7: 0x088A [0x38] SET_CLIENT_EVENT_MODE(mode=19*)
  8: 0x088D [0x29] REQ_SET_WAIT(priority=0x0E, entity_id=LocalPlayer, tag_num=0x42)
  9: 0x0894 [0x29] REQ_SET_WAIT(priority=0x08, entity_id=LocalPlayer, tag_num=0x06)
 10: 0x089B [0x37] UPDATE_EVENT_POSITION_AND_DIR: x=-195.323*, z=-121.527*, y=-10.150*, direction=286.3°*
 11: 0x08A4 [0x1E] EventEntity looks at LocalPlayer and starts talking
 12: 0x08A9 [0x6F] WAIT_FRAME_DELAY: Yield until WaitTime reaches zero
 13: 0x08AA [0x70] WAIT_ENTITY_RENDER_FLAG: Wait while EventEntity->Render.Flags3 bit 2 is set (cancel turn if not)
 14: 0x08AB [0x5C] MUSIC_CONTROL: Set Idle (Day) music to song 163*
 15: 0x08AF [0x5C] MUSIC_CONTROL: Set Idle (Night) music to song 163*
 16: 0x08B3 [0x5D] SET_MUSIC_VOLUME(volume=127*, fade_time=1*)
 17: 0x08B8 [0x1C] WAIT(120* ticks)
 18: 0x08BB [0x45] LOAD_SCHEDULED_TASK: Load scheduler "s020" with entities [LocalPlayer, LocalPlayer], work=[247*, 0*]
 19: 0x08CC [0x45] LOAD_SCHEDULED_TASK: Load scheduler "fdi1" with entities [EventEntity, EventEntity], work=[200*, 0*]
 20: 0x08DD [0x29] REQ_SET_WAIT(priority=0x0B, entity_id=Honoi-Gomoi (ID: 17752156/0x010EE05C), tag_num=0x59)
 21: 0x08E4 [0x52] END_LOAD_SCHEDULER: End scheduler "s020" with entities [LocalPlayer, LocalPlayer], work=247*
 22: 0x08F3 [0x45] LOAD_SCHEDULED_TASK: Load scheduler "s018" with entities [LocalPlayer, LocalPlayer], work=[247*, 0*]
 23: 0x0904 [0x29] REQ_SET_WAIT(priority=0x08, entity_id=Honoi-Gomoi (ID: 17752156/0x010EE05C), tag_num=0x18)
 24: 0x090B [0x29] REQ_SET_WAIT(priority=0x0B, entity_id=Honoi-Gomoi (ID: 17752156/0x010EE05C), tag_num=0x5A)
 25: 0x0912 [0x29] REQ_SET_WAIT(priority=0x08, entity_id=Honoi-Gomoi (ID: 17752156/0x010EE05C), tag_num=0x19)
 26: 0x0919 [0x52] END_LOAD_SCHEDULER: End scheduler "s018" with entities [LocalPlayer, LocalPlayer], work=247*
 27: 0x0928 [0x45] LOAD_SCHEDULED_TASK: Load scheduler "s023" with entities [LocalPlayer, LocalPlayer], work=[247*, 0*]
 28: 0x0939 [0x29] REQ_SET_WAIT(priority=0x08, entity_id=Honoi-Gomoi (ID: 17752156/0x010EE05C), tag_num=0x1A)
 29: 0x0940 [0x29] REQ_SET_WAIT(priority=0x08, entity_id=Honoi-Gomoi (ID: 17752156/0x010EE05C), tag_num=0x1B)
 30: 0x0947 [0x27] REQ_SET(priority=0x0B, entity_id=Honoi-Gomoi (ID: 17752156/0x010EE05C), tag_num=0x4C)
 31: 0x094E [0x1D] PRINT_EVENT_MESSAGE(message_id=9838*)
    → "You've got Yagudo droppings for brains, stripling! This has nothing to do with money!"
 32: 0x0951 [0x23] WAIT_FOR_DIALOG_INTERACTION
 33: 0x0952 [0x2A] GET_REQ_LEVEL(level=11, entity_id=Honoi-Gomoi (ID: 17752156/0x010EE05C))
 34: 0x0958 [0x52] END_LOAD_SCHEDULER: End scheduler "s023" with entities [LocalPlayer, LocalPlayer], work=247*
 35: 0x0967 [0x45] LOAD_SCHEDULED_TASK: Load scheduler "s022" with entities [LocalPlayer, LocalPlayer], work=[247*, 0*]
 36: 0x0978 [0x1E] EventEntity looks at LocalPlayer and starts talking
 37: 0x097D [0x6F] WAIT_FRAME_DELAY: Yield until WaitTime reaches zero
 38: 0x097E [0x70] WAIT_ENTITY_RENDER_FLAG: Wait while EventEntity->Render.Flags3 bit 2 is set (cancel turn if not)
 39: 0x097F [0x29] REQ_SET_WAIT(priority=0x08, entity_id=Honoi-Gomoi (ID: 17752156/0x010EE05C), tag_num=0x0C)
 40: 0x0986 [0x29] REQ_SET_WAIT(priority=0x0B, entity_id=Honoi-Gomoi (ID: 17752156/0x010EE05C), tag_num=0x5C)
