# 17752138 - Ranpi-Monpi

## Common Data

| Field            | Value                     |
|------------------|---------------------------|
| Zone             | Windurst Waters (ID: 238) |
| Block Size       | 3616 bytes                |
| Total Events     | 60                        |
| References Count | 98                        |

## List of Events

| Event ID                   | Entrypoint   |   Size |   Instructions |
|----------------------------|--------------|--------|----------------|
| [65535](#event-65535)      | 0x0000       |      1 |              1 |
| [65535.1](#event-655351)   | 0x0001       |     16 |              2 |
| [65535.2](#event-655352)   | 0x0011       |     22 |              4 |
| [65535.3](#event-655353)   | 0x0027       |     16 |              2 |
| [65535.4](#event-655354)   | 0x0037       |     14 |              2 |
| [65535.5](#event-655355)   | 0x0045       |     16 |              2 |
| [65535.6](#event-655356)   | 0x0055       |     14 |              2 |
| [65535.7](#event-655357)   | 0x0063       |     16 |              2 |
| [65535.8](#event-655358)   | 0x0073       |     14 |              2 |
| [65535.9](#event-655359)   | 0x0081       |     16 |              2 |
| [65535.10](#event-6553510) | 0x0091       |     22 |              4 |
| [65535.11](#event-6553511) | 0x00A7       |     16 |              2 |
| [65535.12](#event-6553512) | 0x00B7       |     14 |              2 |
| [65535.13](#event-6553513) | 0x00C5       |     16 |              2 |
| [65535.14](#event-6553514) | 0x00D5       |     14 |              2 |
| [65535.15](#event-6553515) | 0x00E3       |     16 |              2 |
| [65535.16](#event-6553516) | 0x00F3       |     22 |              4 |
| [65535.17](#event-6553517) | 0x0109       |     16 |              2 |
| [65535.18](#event-6553518) | 0x0119       |     22 |              4 |
| [65535.19](#event-6553519) | 0x012F       |     16 |              2 |
| [65535.20](#event-6553520) | 0x013F       |     14 |              2 |
| [65535.21](#event-6553521) | 0x014D       |     16 |              2 |
| [65535.22](#event-6553522) | 0x015D       |     14 |              2 |
| [65535.23](#event-6553523) | 0x016B       |      9 |              3 |
| [249](#event-249)          | 0x0174       |     40 |             11 |
| [251](#event-251)          | 0x019C       |     69 |             20 |
| [256](#event-256)          | 0x01E1       |     33 |             12 |
| [258](#event-258)          | 0x0202       |     79 |             18 |
| [65535.24](#event-6553524) | 0x0251       |     37 |              9 |
| [65535.25](#event-6553525) | 0x0276       |     19 |              5 |
| [65535.26](#event-6553526) | 0x0289       |     45 |             13 |
| [65535.27](#event-6553527) | 0x02B6       |    117 |             30 |
| [65535.28](#event-6553528) | 0x032B       |     19 |              5 |
| [259](#event-259)          | 0x033E       |     80 |             19 |
| [65535.29](#event-6553529) | 0x038E       |     37 |              9 |
| [65535.30](#event-6553530) | 0x03B3       |     41 |             11 |
| [65535.31](#event-6553531) | 0x03DC       |     19 |              5 |
| [262](#event-262)          | 0x03EF       |     47 |             14 |
| [267](#event-267)          | 0x041E       |     53 |             15 |
| [268](#event-268)          | 0x0453       |     33 |             12 |
| [554](#event-554)          | 0x0474       |     39 |             10 |
| [65535.32](#event-6553532) | 0x049B       |      9 |              5 |
| [65535.33](#event-6553533) | 0x04A4       |      5 |              3 |
| [65535.34](#event-6553534) | 0x04A9       |      5 |              3 |
| [65535.35](#event-6553535) | 0x04AE       |      9 |              5 |
| [555](#event-555)          | 0x04B7       |     19 |             10 |
| [556](#event-556)          | 0x04CA       |     35 |             11 |
| [65535.36](#event-6553536) | 0x04ED       |      5 |              3 |
| [65535.37](#event-6553537) | 0x04F2       |      5 |              3 |
| [65535.38](#event-6553538) | 0x04F7       |      9 |              5 |
| [557](#event-557)          | 0x0500       |     19 |             10 |
| [978](#event-978)          | 0x0513       |    388 |             49 |
| [983](#event-983)          | 0x0697       |    242 |             31 |
| [980](#event-980)          | 0x0789       |    305 |             40 |
| [981](#event-981)          | 0x08BA       |    520 |             59 |
| [979](#event-979)          | 0x0AC2       |     38 |             10 |
| [982](#event-982)          | 0x0AE8       |     18 |              6 |
| [985](#event-985)          | 0x0AFA       |     18 |              6 |
| [1020](#event-1020)        | 0x0B0C       |     51 |             18 |
| [1021](#event-1021)        | 0x0B3F       |     86 |             14 |

## DAT References (imed_data)

|   Index | Hex Value   |   Dec Value |
|---------|-------------|-------------|
|       0 | 0x0028      |          40 |
|       1 | 0x001E      |          30 |
|       2 | 0x002A      |          42 |
|       3 | 0x1EC2      |        7874 |
|       4 | 0x1EC3      |        7875 |
|       5 | 0x1EC4      |        7876 |
|       6 | 0x1EC5      |        7877 |
|       7 | 0x1ED1      |        7889 |
|       8 | 0x1ED2      |        7890 |
|       9 | 0x1EDE      |        7902 |
|      10 | 0x0000      |           0 |
|      11 | 0x0001      |           1 |
|      12 | 0x0002      |           2 |
|      13 | 0x1ED5      |        7893 |
|      14 | 0x1ED6      |        7894 |
|      15 | 0x1EDF      |        7903 |
|      16 | 0x1EE1      |        7905 |
|      17 | 0x1EE2      |        7906 |
|      18 | 0x1EE3      |        7907 |
|      19 | 0x1EE4      |        7908 |
|      20 | 0x1EE5      |        7909 |
|      21 | 0x1EE6      |        7910 |
|      22 | 0x1EE7      |        7911 |
|      23 | 0x1EE8      |        7912 |
|      24 | 0x1EE9      |        7913 |
|      25 | 0x1EE0      |        7904 |
|      26 | 0x1ED7      |        7895 |
|      27 | 0x1ED8      |        7896 |
|      28 | 0x1ED9      |        7897 |
|      29 | 0x1EDA      |        7898 |
|      30 | 0x1EDC      |        7900 |
|      31 | 0x1EDD      |        7901 |
|      32 | 0x1EEA      |        7914 |
|      33 | 0x1EEB      |        7915 |
|      34 | 0x1EF5      |        7925 |
|      35 | 0x1EF6      |        7926 |
|      36 | 0x00C9      |         201 |
|      37 | 0x1EF7      |        7927 |
|      38 | 0x1EF8      |        7928 |
|      39 | 0x224D      |        8781 |
|      40 | 0x224E      |        8782 |
|      41 | 0x224F      |        8783 |
|      42 | 0x2250      |        8784 |
|      43 | 0x2251      |        8785 |
|      44 | 0x2252      |        8786 |
|      45 | 0x2253      |        8787 |
|      46 | 0x2254      |        8788 |
|      47 | 0x2255      |        8789 |
|      48 | 0x2256      |        8790 |
|      49 | 0x2257      |        8791 |
|      50 | 0x2258      |        8792 |
|      51 | 0x2259      |        8793 |
|      52 | 0x225A      |        8794 |
|      53 | 0x00C8      |         200 |
|      54 | 0x0013      |          19 |
|      55 | 0x017C      |         380 |
|      56 | 0xFFFE2463  |  4294845539 |
|      57 | 0xEE46      |       60998 |
|      58 | 0xFFFFF831  |  4294965297 |
|      59 | 0x0AB0      |        2736 |
|      60 | 0x0170      |         368 |
|      61 | 0x003C      |          60 |
|      62 | 0x1561      |        5473 |
|      63 | 0x161D      |        5661 |
|      64 | 0x161E      |        5662 |
|      65 | 0x161C      |        5660 |
|      66 | 0x3055      |       12373 |
|      67 | 0x3056      |       12374 |
|      68 | 0x3057      |       12375 |
|      69 | 0x3058      |       12376 |
|      70 | 0x3059      |       12377 |
|      71 | 0x305A      |       12378 |
|      72 | 0x305C      |       12380 |
|      73 | 0x305D      |       12381 |
|      74 | 0x03BA      |         954 |
|      75 | 0x305F      |       12383 |
|      76 | 0x3060      |       12384 |
|      77 | 0x3061      |       12385 |
|      78 | 0x001D      |          29 |
|      79 | 0x3062      |       12386 |
|      80 | 0x3063      |       12387 |
|      81 | 0x3064      |       12388 |
|      82 | 0x3065      |       12389 |
|      83 | 0x3066      |       12390 |
|      84 | 0x3067      |       12391 |
|      85 | 0x3068      |       12392 |
|      86 | 0x3069      |       12393 |
|      87 | 0x305B      |       12379 |
|      88 | 0x305E      |       12382 |
|      89 | 0x306D      |       12397 |
|      90 | 0x306E      |       12398 |
|      91 | 0x306F      |       12399 |
|      92 | 0x0007      |           7 |
|      93 | 0x3070      |       12400 |
|      94 | 0x3071      |       12401 |
|      95 | 0x3072      |       12402 |
|      96 | 0x0078      |         120 |
|      97 | 0x3073      |       12403 |

## String References

- **7874**: La piece de resistance\`t Mes secrets ingr<Player>idients\`t
- **7875**: Nutmegs, beans and jalape<Player>qos too\`t Zat's how we make Martha Stew\`t
- **7876**: Did vous know, no? If you repeat zis song five times, zee water weel boil to just the right temperature.
- **7877**: Hu-hmm\`t See... Try a little taste. C'est parfait, n'est-ce pas?
- **7889**: If you want to taste our cooking, go try zee restaurant across zee way.
- **7890**: Zee food we make 'ere ees served at zee restaurant zere.
- **7893**: Sacrebleu! What should I do?
- **7894**: Hey, you zere! Can you keep a secret?
- **7895**: Sacrebleu! Not again!?
- **7896**: Oh, you're back...and just in time! Au secour! Pleeze save Windurst one more time!
- **7897**: I went and made zee same mistake as I deed last time!
- **7898**: Az I explained before, non? Windurst eez trying to maintain its hard-earned peace with zose Yagudo beastmen.
- **7900**: But I went and mixed $1 into zee food offering by mistake.
- **7901**: If you race over to Giddeus, you should make it in time. Pleeze! You've got to help before one of zee Yagudo tastes my disaster and gets insulted by it!
- **7902**: Are you tight-lipped? [Yes. Mum's the word!/No, I can't keep my mouth shut.]
- **7903**: Oh, then forget what I just said. You didn't hear anything!
- **7904**: Don't laugh or tease me, but, well...
- **7905**: Zee truth eez, I've made a terrible, terrible mistake!
- **7906**: You see, Windurst eez trying to improve its relations with zee Yagudo beastmen.
- **7907**: One of our peace efforts is a promise to provide zee Yagudo with food offerings, prepared and sent by zee Rhinostery and zis Culinarians' Guild.
- **7908**: But I think I went and mixed a horrible $1 into zee food offering by mistake.
- **7909**: Au secours! You've got to help me! Pleeze race to Giddeus as fast as you can and retrieve zee food bags with $1 mixed een zem.
- **7910**: Listen to his request? [Oui./Non.]
- **7911**: Ooh... Merci-werci!
- **7912**: Zee food bags with $1 mixed in zem were probably delivered by zee adventurers who received zee mission from zee gatehouse.
- **7913**: But if you race on over to Giddeus right away, you should make it in time. Pleeze, you've got to get zere before zee Yagudo try zem!
- **7914**: Zee food bags with $1 mixed in zem were probably delivered by zee adventurers who received zee mission from zee gatehouse.
- **7915**: But if you race on over to Giddeus right away, you should make it in time. Pleeze, you've got to get zere before zee Yagudo try zem!
- **7925**: O\`h thank you so\` very much! You saved my life!
- **7926**: At zee moment, zis eez all I have to give you... Apart from my sincere gratitude, of course!
- **7927**: Merci! Thank you very much. We're all so obliged.
- **7928**: Zee peace of Windurst has been saved, thanks to you!
- **8781**: A while ago, I borrowed a chocobo so I could go on a fishing trip. But zee silly chocobo went and caught a cold.
- **8782**: To make up for eet, I took some of my special stew to zee stables so zee chocobo could drink eet... Oh, so you want moi to make some of zat stew for you?
- **8783**: I think it eez possible, but zee special stew I made that time had $1 in eet. You'll have to bring moi three of zose little champignons...
- **8784**: Without zose special mushrooms, eet will just be a plain old stew.
- **8785**: Zee $1 can be found in Jugner Forest, I believe.
- **8786**: Zey grow on zee bodies of zee toadstool monsters that lurk zere. Zey look grotesque and smell awful, but zee taste ees just exquisite!
- **8787**: I need about three $1 in order to make zat special stew for you.
- **8788**: In order to get zose mushrooms, I recommend you try Jugner Forest. You should be able to collect zem by defeating zose toadstool monsters zat lurk zere.
- **8789**: Zat's it! Once you've tried a dish with zese in zem, you'll keep coming back for more.
- **8790**: One moment pleeze. I'll add a leettle of zis and a leettle of zis and...
- **8791**: Voil<Player>\`! Zis should get zat chocobo back on his feet again!
- **8792**: Make sure you bring eet to heem while eet's still warm.
- **8793**: Zat should get our chocobo friend back on his feet again!
- **8794**: Make sure you serve it to heem while eet's still warm.
- **12385**: The dish's presentation is difficult to put into words...
- **12397**: Ze what? You are looking to buy a new stewpot, you zay?
- **12398**: Mon dieu! Zat ees one hole tres gigantique!
- **12399**: But zere ees no need for panique! Mais non! Ze ezteemed Ranpi-Monpi will feex it up for you, good as nouveau!
- **12400**: Zat will zave you beaucoup gil, certainmentaru! Hohoho!
- **12401**: Ze only thing I weel be needing ees une bouteille de pate Sieglinde. Oui, $0, I said. Ees your oreilles ze stuffed with ze popotoes!?
- **12402**: Splendide! Magnifique! Now, eef you just attendez un momentaru, I shall feex eet up for you, good as nouveau!
- **12403**: Voila! Ees she not ze toute beaute? Treat her well, and au revoir!

## Events

### Event 65535

#### Metadata

| Field        | Value   |
|--------------|---------|
| Entrypoint   | 0x0000  |
| Data Size    | 1 bytes |
| Instructions | 1       |

```
      00 01 02 03 04 05 06 07  08 09 0A 0B 0C 0D 0E 0F
      -- -- -- -- -- -- -- --  -- -- -- -- -- -- -- --
0000: 00                                                .               
```

#### Opcodes

```
  0: 0x0000 [0x00] END_REQSTACK()
```

### Event 65535.1

#### Metadata

| Field        | Value    |
|--------------|----------|
| Entrypoint   | 0x0001   |
| Data Size    | 16 bytes |
| Instructions | 2        |

```
      00 01 02 03 04 05 06 07  08 09 0A 0B 0C 0D 0E 0F
      -- -- -- -- -- -- -- --  -- -- -- -- -- -- -- --
0000:    66 00 80 F8 FF FF 7F  F8 FF FF 7F 74 6C 6B 30   f..........tlk0
0010: 00                                                .               
```

#### Opcodes

```
  0: 0x0001 [0x66] LOAD_EXT_SCHEDULER_MAIN: Load scheduler "tlk0" with entities [EventEntity, EventEntity], work=40*
  1: 0x0010 [0x00] END_REQSTACK()
```

### Event 65535.2

#### Metadata

| Field        | Value    |
|--------------|----------|
| Entrypoint   | 0x0011   |
| Data Size    | 22 bytes |
| Instructions | 4        |

```
      00 01 02 03 04 05 06 07  08 09 0A 0B 0C 0D 0E 0F
      -- -- -- -- -- -- -- --  -- -- -- -- -- -- -- --
0010:    53 F8 FF FF 7F F8 FF  FF 7F 74 6C 6B 30 5E 69   S........tlk0^i
0020: 64 6C 30 1C 01 80 00                              dl0....         
```

#### Opcodes

```
  0: 0x0011 [0x53] WAIT_SCHEDULER_TASK: Wait for scheduler "tlk0" with entities [EventEntity, EventEntity]
  1: 0x001E [0x5E] EventEntity goes idle (kills current action) (animation: "idl0")
  2: 0x0023 [0x1C] WAIT(30* ticks)
  3: 0x0026 [0x00] END_REQSTACK()
```

### Event 65535.3

#### Metadata

| Field        | Value    |
|--------------|----------|
| Entrypoint   | 0x0027   |
| Data Size    | 16 bytes |
| Instructions | 2        |

```
      00 01 02 03 04 05 06 07  08 09 0A 0B 0C 0D 0E 0F
      -- -- -- -- -- -- -- --  -- -- -- -- -- -- -- --
0020:                      66  00 80 F8 FF FF 7F F8 FF         f........
0030: FF 7F 74 68 6B 31 00                              ..thk1.         
```

#### Opcodes

```
  0: 0x0027 [0x66] LOAD_EXT_SCHEDULER_MAIN: Load scheduler "thk1" with entities [EventEntity, EventEntity], work=40*
  1: 0x0036 [0x00] END_REQSTACK()
```

### Event 65535.4

#### Metadata

| Field        | Value    |
|--------------|----------|
| Entrypoint   | 0x0037   |
| Data Size    | 14 bytes |
| Instructions | 2        |

```
      00 01 02 03 04 05 06 07  08 09 0A 0B 0C 0D 0E 0F
      -- -- -- -- -- -- -- --  -- -- -- -- -- -- -- --
0030:                      53  F8 FF FF 7F F8 FF FF 7F         S........
0040: 74 68 6B 31 00                                    thk1.           
```

#### Opcodes

```
  0: 0x0037 [0x53] WAIT_SCHEDULER_TASK: Wait for scheduler "thk1" with entities [EventEntity, EventEntity]
  1: 0x0044 [0x00] END_REQSTACK()
```

### Event 65535.5

#### Metadata

| Field        | Value    |
|--------------|----------|
| Entrypoint   | 0x0045   |
| Data Size    | 16 bytes |
| Instructions | 2        |

```
      00 01 02 03 04 05 06 07  08 09 0A 0B 0C 0D 0E 0F
      -- -- -- -- -- -- -- --  -- -- -- -- -- -- -- --
0040:                66 00 80  F8 FF FF 7F F8 FF FF 7F       f..........
0050: 74 68 6B 32 00                                    thk2.           
```

#### Opcodes

```
  0: 0x0045 [0x66] LOAD_EXT_SCHEDULER_MAIN: Load scheduler "thk2" with entities [EventEntity, EventEntity], work=40*
  1: 0x0054 [0x00] END_REQSTACK()
```

### Event 65535.6

#### Metadata

| Field        | Value    |
|--------------|----------|
| Entrypoint   | 0x0055   |
| Data Size    | 14 bytes |
| Instructions | 2        |

```
      00 01 02 03 04 05 06 07  08 09 0A 0B 0C 0D 0E 0F
      -- -- -- -- -- -- -- --  -- -- -- -- -- -- -- --
0050:                53 F8 FF  FF 7F F8 FF FF 7F 74 68       S........th
0060: 6B 32 00                                          k2.             
```

#### Opcodes

```
  0: 0x0055 [0x53] WAIT_SCHEDULER_TASK: Wait for scheduler "thk2" with entities [EventEntity, EventEntity]
  1: 0x0062 [0x00] END_REQSTACK()
```

### Event 65535.7

#### Metadata

| Field        | Value    |
|--------------|----------|
| Entrypoint   | 0x0063   |
| Data Size    | 16 bytes |
| Instructions | 2        |

```
      00 01 02 03 04 05 06 07  08 09 0A 0B 0C 0D 0E 0F
      -- -- -- -- -- -- -- --  -- -- -- -- -- -- -- --
0060:          66 00 80 F8 FF  FF 7F F8 FF FF 7F 77 61     f..........wa
0070: 76 30 00                                          v0.             
```

#### Opcodes

```
  0: 0x0063 [0x66] LOAD_EXT_SCHEDULER_MAIN: Load scheduler "wav0" with entities [EventEntity, EventEntity], work=40*
  1: 0x0072 [0x00] END_REQSTACK()
```

### Event 65535.8

#### Metadata

| Field        | Value    |
|--------------|----------|
| Entrypoint   | 0x0073   |
| Data Size    | 14 bytes |
| Instructions | 2        |

```
      00 01 02 03 04 05 06 07  08 09 0A 0B 0C 0D 0E 0F
      -- -- -- -- -- -- -- --  -- -- -- -- -- -- -- --
0070:          53 F8 FF FF 7F  F8 FF FF 7F 77 61 76 30     S........wav0
0080: 00                                                .               
```

#### Opcodes

```
  0: 0x0073 [0x53] WAIT_SCHEDULER_TASK: Wait for scheduler "wav0" with entities [EventEntity, EventEntity]
  1: 0x0080 [0x00] END_REQSTACK()
```

### Event 65535.9

#### Metadata

| Field        | Value    |
|--------------|----------|
| Entrypoint   | 0x0081   |
| Data Size    | 16 bytes |
| Instructions | 2        |

```
      00 01 02 03 04 05 06 07  08 09 0A 0B 0C 0D 0E 0F
      -- -- -- -- -- -- -- --  -- -- -- -- -- -- -- --
0080:    66 02 80 F8 FF FF 7F  F8 FF FF 7F 62 69 6B 30   f..........bik0
0090: 00                                                .               
```

#### Opcodes

```
  0: 0x0081 [0x66] LOAD_EXT_SCHEDULER_MAIN: Load scheduler "bik0" with entities [EventEntity, EventEntity], work=42*
  1: 0x0090 [0x00] END_REQSTACK()
```

### Event 65535.10

#### Metadata

| Field        | Value    |
|--------------|----------|
| Entrypoint   | 0x0091   |
| Data Size    | 22 bytes |
| Instructions | 4        |

```
      00 01 02 03 04 05 06 07  08 09 0A 0B 0C 0D 0E 0F
      -- -- -- -- -- -- -- --  -- -- -- -- -- -- -- --
0090:    53 F8 FF FF 7F F8 FF  FF 7F 62 69 6B 30 5E 69   S........bik0^i
00A0: 64 6C 30 1C 01 80 00                              dl0....         
```

#### Opcodes

```
  0: 0x0091 [0x53] WAIT_SCHEDULER_TASK: Wait for scheduler "bik0" with entities [EventEntity, EventEntity]
  1: 0x009E [0x5E] EventEntity goes idle (kills current action) (animation: "idl0")
  2: 0x00A3 [0x1C] WAIT(30* ticks)
  3: 0x00A6 [0x00] END_REQSTACK()
```

### Event 65535.11

#### Metadata

| Field        | Value    |
|--------------|----------|
| Entrypoint   | 0x00A7   |
| Data Size    | 16 bytes |
| Instructions | 2        |

```
      00 01 02 03 04 05 06 07  08 09 0A 0B 0C 0D 0E 0F
      -- -- -- -- -- -- -- --  -- -- -- -- -- -- -- --
00A0:                      66  00 80 F8 FF FF 7F F8 FF         f........
00B0: FF 7F 73 79 75 30 00                              ..syu0.         
```

#### Opcodes

```
  0: 0x00A7 [0x66] LOAD_EXT_SCHEDULER_MAIN: Load scheduler "syu0" with entities [EventEntity, EventEntity], work=40*
  1: 0x00B6 [0x00] END_REQSTACK()
```

### Event 65535.12

#### Metadata

| Field        | Value    |
|--------------|----------|
| Entrypoint   | 0x00B7   |
| Data Size    | 14 bytes |
| Instructions | 2        |

```
      00 01 02 03 04 05 06 07  08 09 0A 0B 0C 0D 0E 0F
      -- -- -- -- -- -- -- --  -- -- -- -- -- -- -- --
00B0:                      53  F8 FF FF 7F F8 FF FF 7F         S........
00C0: 73 79 75 30 00                                    syu0.           
```

#### Opcodes

```
  0: 0x00B7 [0x53] WAIT_SCHEDULER_TASK: Wait for scheduler "syu0" with entities [EventEntity, EventEntity]
  1: 0x00C4 [0x00] END_REQSTACK()
```

### Event 65535.13

#### Metadata

| Field        | Value    |
|--------------|----------|
| Entrypoint   | 0x00C5   |
| Data Size    | 16 bytes |
| Instructions | 2        |

```
      00 01 02 03 04 05 06 07  08 09 0A 0B 0C 0D 0E 0F
      -- -- -- -- -- -- -- --  -- -- -- -- -- -- -- --
00C0:                66 00 80  F8 FF FF 7F F8 FF FF 7F       f..........
00D0: 69 72 6F 30 00                                    iro0.           
```

#### Opcodes

```
  0: 0x00C5 [0x66] LOAD_EXT_SCHEDULER_MAIN: Load scheduler "iro0" with entities [EventEntity, EventEntity], work=40*
  1: 0x00D4 [0x00] END_REQSTACK()
```

### Event 65535.14

#### Metadata

| Field        | Value    |
|--------------|----------|
| Entrypoint   | 0x00D5   |
| Data Size    | 14 bytes |
| Instructions | 2        |

```
      00 01 02 03 04 05 06 07  08 09 0A 0B 0C 0D 0E 0F
      -- -- -- -- -- -- -- --  -- -- -- -- -- -- -- --
00D0:                53 F8 FF  FF 7F F8 FF FF 7F 69 72       S........ir
00E0: 6F 30 00                                          o0.             
```

#### Opcodes

```
  0: 0x00D5 [0x53] WAIT_SCHEDULER_TASK: Wait for scheduler "iro0" with entities [EventEntity, EventEntity]
  1: 0x00E2 [0x00] END_REQSTACK()
```

### Event 65535.15

#### Metadata

| Field        | Value    |
|--------------|----------|
| Entrypoint   | 0x00E3   |
| Data Size    | 16 bytes |
| Instructions | 2        |

```
      00 01 02 03 04 05 06 07  08 09 0A 0B 0C 0D 0E 0F
      -- -- -- -- -- -- -- --  -- -- -- -- -- -- -- --
00E0:          66 00 80 F8 FF  FF 7F F8 FF FF 7F 7A 69     f..........zi
00F0: 74 30 00                                          t0.             
```

#### Opcodes

```
  0: 0x00E3 [0x66] LOAD_EXT_SCHEDULER_MAIN: Load scheduler "zit0" with entities [EventEntity, EventEntity], work=40*
  1: 0x00F2 [0x00] END_REQSTACK()
```

### Event 65535.16

#### Metadata

| Field        | Value    |
|--------------|----------|
| Entrypoint   | 0x00F3   |
| Data Size    | 22 bytes |
| Instructions | 4        |

```
      00 01 02 03 04 05 06 07  08 09 0A 0B 0C 0D 0E 0F
      -- -- -- -- -- -- -- --  -- -- -- -- -- -- -- --
00F0:          53 F8 FF FF 7F  F8 FF FF 7F 7A 69 74 30     S........zit0
0100: 5E 69 64 6C 30 1C 01 80  00                       ^idl0....       
```

#### Opcodes

```
  0: 0x00F3 [0x53] WAIT_SCHEDULER_TASK: Wait for scheduler "zit0" with entities [EventEntity, EventEntity]
  1: 0x0100 [0x5E] EventEntity goes idle (kills current action) (animation: "idl0")
  2: 0x0105 [0x1C] WAIT(30* ticks)
  3: 0x0108 [0x00] END_REQSTACK()
```

### Event 65535.17

#### Metadata

| Field        | Value    |
|--------------|----------|
| Entrypoint   | 0x0109   |
| Data Size    | 16 bytes |
| Instructions | 2        |

```
      00 01 02 03 04 05 06 07  08 09 0A 0B 0C 0D 0E 0F
      -- -- -- -- -- -- -- --  -- -- -- -- -- -- -- --
0100:                             66 00 80 F8 FF FF 7F           f......
0110: F8 FF FF 7F 67 6B 72 30  00                       ....gkr0.       
```

#### Opcodes

```
  0: 0x0109 [0x66] LOAD_EXT_SCHEDULER_MAIN: Load scheduler "gkr0" with entities [EventEntity, EventEntity], work=40*
  1: 0x0118 [0x00] END_REQSTACK()
```

### Event 65535.18

#### Metadata

| Field        | Value    |
|--------------|----------|
| Entrypoint   | 0x0119   |
| Data Size    | 22 bytes |
| Instructions | 4        |

```
      00 01 02 03 04 05 06 07  08 09 0A 0B 0C 0D 0E 0F
      -- -- -- -- -- -- -- --  -- -- -- -- -- -- -- --
0110:                             53 F8 FF FF 7F F8 FF           S......
0120: FF 7F 67 6B 72 30 5E 69  64 6C 30 1C 01 80 00     ..gkr0^idl0.... 
```

#### Opcodes

```
  0: 0x0119 [0x53] WAIT_SCHEDULER_TASK: Wait for scheduler "gkr0" with entities [EventEntity, EventEntity]
  1: 0x0126 [0x5E] EventEntity goes idle (kills current action) (animation: "idl0")
  2: 0x012B [0x1C] WAIT(30* ticks)
  3: 0x012E [0x00] END_REQSTACK()
```

### Event 65535.19

#### Metadata

| Field        | Value    |
|--------------|----------|
| Entrypoint   | 0x012F   |
| Data Size    | 16 bytes |
| Instructions | 2        |

```
      00 01 02 03 04 05 06 07  08 09 0A 0B 0C 0D 0E 0F
      -- -- -- -- -- -- -- --  -- -- -- -- -- -- -- --
0120:                                               66                 f
0130: 00 80 F8 FF FF 7F F8 FF  FF 7F 70 6F 69 30 00     ..........poi0. 
```

#### Opcodes

```
  0: 0x012F [0x66] LOAD_EXT_SCHEDULER_MAIN: Load scheduler "poi0" with entities [EventEntity, EventEntity], work=40*
  1: 0x013E [0x00] END_REQSTACK()
```

### Event 65535.20

#### Metadata

| Field        | Value    |
|--------------|----------|
| Entrypoint   | 0x013F   |
| Data Size    | 14 bytes |
| Instructions | 2        |

```
      00 01 02 03 04 05 06 07  08 09 0A 0B 0C 0D 0E 0F
      -- -- -- -- -- -- -- --  -- -- -- -- -- -- -- --
0130:                                               53                 S
0140: F8 FF FF 7F F8 FF FF 7F  70 6F 69 30 00           ........poi0.   
```

#### Opcodes

```
  0: 0x013F [0x53] WAIT_SCHEDULER_TASK: Wait for scheduler "poi0" with entities [EventEntity, EventEntity]
  1: 0x014C [0x00] END_REQSTACK()
```

### Event 65535.21

#### Metadata

| Field        | Value    |
|--------------|----------|
| Entrypoint   | 0x014D   |
| Data Size    | 16 bytes |
| Instructions | 2        |

```
      00 01 02 03 04 05 06 07  08 09 0A 0B 0C 0D 0E 0F
      -- -- -- -- -- -- -- --  -- -- -- -- -- -- -- --
0140:                                         66 00 80               f..
0150: F8 FF FF 7F F8 FF FF 7F  70 61 73 30 00           ........pas0.   
```

#### Opcodes

```
  0: 0x014D [0x66] LOAD_EXT_SCHEDULER_MAIN: Load scheduler "pas0" with entities [EventEntity, EventEntity], work=40*
  1: 0x015C [0x00] END_REQSTACK()
```

### Event 65535.22

#### Metadata

| Field        | Value    |
|--------------|----------|
| Entrypoint   | 0x015D   |
| Data Size    | 14 bytes |
| Instructions | 2        |

```
      00 01 02 03 04 05 06 07  08 09 0A 0B 0C 0D 0E 0F
      -- -- -- -- -- -- -- --  -- -- -- -- -- -- -- --
0150:                                         53 F8 FF               S..
0160: FF 7F F8 FF FF 7F 70 61  73 30 00                 ......pas0.     
```

#### Opcodes

```
  0: 0x015D [0x53] WAIT_SCHEDULER_TASK: Wait for scheduler "pas0" with entities [EventEntity, EventEntity]
  1: 0x016A [0x00] END_REQSTACK()
```

### Event 65535.23

#### Metadata

| Field        | Value   |
|--------------|---------|
| Entrypoint   | 0x016B  |
| Data Size    | 9 bytes |
| Instructions | 3       |

```
      00 01 02 03 04 05 06 07  08 09 0A 0B 0C 0D 0E 0F
      -- -- -- -- -- -- -- --  -- -- -- -- -- -- -- --
0160:                                   5E 69 64 6C 30             ^idl0
0170: 1C 01 80 00                                       ....            
```

#### Opcodes

```
  0: 0x016B [0x5E] EventEntity goes idle (kills current action) (animation: "idl0")
  1: 0x0170 [0x1C] WAIT(30* ticks)
  2: 0x0173 [0x00] END_REQSTACK()
```

### Event 249

#### Metadata

| Field        | Value    |
|--------------|----------|
| Entrypoint   | 0x0174   |
| Data Size    | 40 bytes |
| Instructions | 11       |

```
      00 01 02 03 04 05 06 07  08 09 0A 0B 0C 0D 0E 0F
      -- -- -- -- -- -- -- --  -- -- -- -- -- -- -- --
0170:             29 08 4A E0  0E 01 15 1D 03 80 23 29      ).J.......#)
0180: 08 4A E0 0E 01 16 29 08  4A E0 0E 01 01 1D 04 80  .J....).J.......
0190: 23 29 08 4A E0 0E 01 02  20 00 21 00              #).J.... .!.    
```

#### Opcodes

```
  0: 0x0174 [0x29] REQ_SET_WAIT(priority=0x08, entity_id=Ranpi-Monpi (ID: 17752138/0x010EE04A), tag_num=0x15)
  1: 0x017B [0x1D] PRINT_EVENT_MESSAGE(message_id=7874*)
    → "La piece de resistance`t Mes secrets ingr<Player>idients`t"
  2: 0x017E [0x23] WAIT_FOR_DIALOG_INTERACTION
  3: 0x017F [0x29] REQ_SET_WAIT(priority=0x08, entity_id=Ranpi-Monpi (ID: 17752138/0x010EE04A), tag_num=0x16)
  4: 0x0186 [0x29] REQ_SET_WAIT(priority=0x08, entity_id=Ranpi-Monpi (ID: 17752138/0x010EE04A), tag_num=0x01)
  5: 0x018D [0x1D] PRINT_EVENT_MESSAGE(message_id=7875*)
    → "Nutmegs, beans and jalape<Player>qos too`t Zat's how we make Martha Stew`t"
  6: 0x0190 [0x23] WAIT_FOR_DIALOG_INTERACTION
  7: 0x0191 [0x29] REQ_SET_WAIT(priority=0x08, entity_id=Ranpi-Monpi (ID: 17752138/0x010EE04A), tag_num=0x02)
  8: 0x0198 [0x20] SET_CLI_EVENT_UC_FLAG: Unlock player control
  9: 0x019A [0x21] END_EVENT
 10: 0x019B [0x00] END_REQSTACK()
```

### Event 251

#### Metadata

| Field        | Value    |
|--------------|----------|
| Entrypoint   | 0x019C   |
| Data Size    | 69 bytes |
| Instructions | 20       |

```
      00 01 02 03 04 05 06 07  08 09 0A 0B 0C 0D 0E 0F
      -- -- -- -- -- -- -- --  -- -- -- -- -- -- -- --
0190:                                      29 08 4A E0              ).J.
01A0: 0E 01 15 1D 03 80 23 29  08 4A E0 0E 01 16 29 08  ......#).J....).
01B0: 4A E0 0E 01 01 1D 04 80  23 29 08 4A E0 0E 01 02  J.......#).J....
01C0: 1E F0 FF FF 7F 6F 70 29  08 4A E0 0E 01 01 1D 05  .....op).J......
01D0: 80 23 1D 06 80 23 29 08  4A E0 0E 01 17 20 00 21  .#...#).J.... .!
01E0: 00                                                .               
```

#### Opcodes

```
  0: 0x019C [0x29] REQ_SET_WAIT(priority=0x08, entity_id=Ranpi-Monpi (ID: 17752138/0x010EE04A), tag_num=0x15)
  1: 0x01A3 [0x1D] PRINT_EVENT_MESSAGE(message_id=7874*)
    → "La piece de resistance`t Mes secrets ingr<Player>idients`t"
  2: 0x01A6 [0x23] WAIT_FOR_DIALOG_INTERACTION
  3: 0x01A7 [0x29] REQ_SET_WAIT(priority=0x08, entity_id=Ranpi-Monpi (ID: 17752138/0x010EE04A), tag_num=0x16)
  4: 0x01AE [0x29] REQ_SET_WAIT(priority=0x08, entity_id=Ranpi-Monpi (ID: 17752138/0x010EE04A), tag_num=0x01)
  5: 0x01B5 [0x1D] PRINT_EVENT_MESSAGE(message_id=7875*)
    → "Nutmegs, beans and jalape<Player>qos too`t Zat's how we make Martha Stew`t"
  6: 0x01B8 [0x23] WAIT_FOR_DIALOG_INTERACTION
  7: 0x01B9 [0x29] REQ_SET_WAIT(priority=0x08, entity_id=Ranpi-Monpi (ID: 17752138/0x010EE04A), tag_num=0x02)
  8: 0x01C0 [0x1E] EventEntity looks at LocalPlayer and starts talking
  9: 0x01C5 [0x6F] WAIT_FRAME_DELAY: Yield until WaitTime reaches zero
 10: 0x01C6 [0x70] WAIT_ENTITY_RENDER_FLAG: Wait while EventEntity->Render.Flags3 bit 2 is set (cancel turn if not)
 11: 0x01C7 [0x29] REQ_SET_WAIT(priority=0x08, entity_id=Ranpi-Monpi (ID: 17752138/0x010EE04A), tag_num=0x01)
 12: 0x01CE [0x1D] PRINT_EVENT_MESSAGE(message_id=7876*)
    → "Did vous know, no? If you repeat zis song five times, zee water weel boil to just the right temperature."
 13: 0x01D1 [0x23] WAIT_FOR_DIALOG_INTERACTION
 14: 0x01D2 [0x1D] PRINT_EVENT_MESSAGE(message_id=7877*)
    → "Hu-hmm`t See... Try a little taste. C'est parfait, n'est-ce pas?"
 15: 0x01D5 [0x23] WAIT_FOR_DIALOG_INTERACTION
 16: 0x01D6 [0x29] REQ_SET_WAIT(priority=0x08, entity_id=Ranpi-Monpi (ID: 17752138/0x010EE04A), tag_num=0x17)
 17: 0x01DD [0x20] SET_CLI_EVENT_UC_FLAG: Unlock player control
 18: 0x01DF [0x21] END_EVENT
 19: 0x01E0 [0x00] END_REQSTACK()
```

### Event 256

#### Metadata

| Field        | Value    |
|--------------|----------|
| Entrypoint   | 0x01E1   |
| Data Size    | 33 bytes |
| Instructions | 12       |

```
      00 01 02 03 04 05 06 07  08 09 0A 0B 0C 0D 0E 0F
      -- -- -- -- -- -- -- --  -- -- -- -- -- -- -- --
01E0:    1E F0 FF FF 7F 6F 70  29 08 4A E0 0E 01 01 1D   .....op).J.....
01F0: 07 80 23 1D 08 80 23 29  08 4A E0 0E 01 17 20 00  ..#...#).J.... .
0200: 21 00                                             !.              
```

#### Opcodes

```
  0: 0x01E1 [0x1E] EventEntity looks at LocalPlayer and starts talking
  1: 0x01E6 [0x6F] WAIT_FRAME_DELAY: Yield until WaitTime reaches zero
  2: 0x01E7 [0x70] WAIT_ENTITY_RENDER_FLAG: Wait while EventEntity->Render.Flags3 bit 2 is set (cancel turn if not)
  3: 0x01E8 [0x29] REQ_SET_WAIT(priority=0x08, entity_id=Ranpi-Monpi (ID: 17752138/0x010EE04A), tag_num=0x01)
  4: 0x01EF [0x1D] PRINT_EVENT_MESSAGE(message_id=7889*)
    → "If you want to taste our cooking, go try zee restaurant across zee way."
  5: 0x01F2 [0x23] WAIT_FOR_DIALOG_INTERACTION
  6: 0x01F3 [0x1D] PRINT_EVENT_MESSAGE(message_id=7890*)
    → "Zee food we make 'ere ees served at zee restaurant zere."
  7: 0x01F6 [0x23] WAIT_FOR_DIALOG_INTERACTION
  8: 0x01F7 [0x29] REQ_SET_WAIT(priority=0x08, entity_id=Ranpi-Monpi (ID: 17752138/0x010EE04A), tag_num=0x17)
  9: 0x01FE [0x20] SET_CLI_EVENT_UC_FLAG: Unlock player control
 10: 0x0200 [0x21] END_EVENT
 11: 0x0201 [0x00] END_REQSTACK()
```

### Event 258

#### Metadata

| Field        | Value    |
|--------------|----------|
| Entrypoint   | 0x0202   |
| Data Size    | 79 bytes |
| Instructions | 18       |

```
      00 01 02 03 04 05 06 07  08 09 0A 0B 0C 0D 0E 0F
      -- -- -- -- -- -- -- --  -- -- -- -- -- -- -- --
0200:       1E F0 FF FF 7F 6F  70 29 0B 4A E0 0E 01 1C    .....op).J....
0210: 24 09 80 0A 80 0A 80 25  02 00 10 0A 80 00 36 02  $......%......6.
0220: 03 01 10 0B 80 29 0B 4A  E0 0E 01 1E 29 0B 4A E0  .....).J....).J.
0230: 0E 01 1F 01 4D 02 02 00  10 0B 80 00 4D 02 03 01  ....M.......M...
0240: 10 0C 80 29 0B 4A E0 0E  01 1D 01 4D 02 20 00 21  ...).J.....M. .!
0250: 00                                                .               
```

#### Opcodes

```
  0: 0x0202 [0x1E] EventEntity looks at LocalPlayer and starts talking
  1: 0x0207 [0x6F] WAIT_FRAME_DELAY: Yield until WaitTime reaches zero
  2: 0x0208 [0x70] WAIT_ENTITY_RENDER_FLAG: Wait while EventEntity->Render.Flags3 bit 2 is set (cancel turn if not)
  3: 0x0209 [0x29] REQ_SET_WAIT(priority=0x0B, entity_id=Ranpi-Monpi (ID: 17752138/0x010EE04A), tag_num=0x1C)
  4: 0x0210 [0x24] CREATE_DIALOG(message_id=7902*, default_option=0*, option_flags=0*)
    → "Are you tight-lipped? [Yes. Mum's the word!/No, I can't keep my mouth shut.]"
  5: 0x0217 [0x25] WAIT_DIALOG_SELECT()
  6: 0x0218 [0x02] IF !(Work_Zone[0] == 0*) GOTO 0x0236
  7: 0x0220 [0x03] Work_Zone[1] = 1*
  8: 0x0225 [0x29] REQ_SET_WAIT(priority=0x0B, entity_id=Ranpi-Monpi (ID: 17752138/0x010EE04A), tag_num=0x1E)
  9: 0x022C [0x29] REQ_SET_WAIT(priority=0x0B, entity_id=Ranpi-Monpi (ID: 17752138/0x010EE04A), tag_num=0x1F)
 10: 0x0233 [0x01] GOTO 0x024D
 11: 0x0236 [0x02] IF !(Work_Zone[0] == 1*) GOTO 0x024D
 12: 0x023E [0x03] Work_Zone[1] = 2*
 13: 0x0243 [0x29] REQ_SET_WAIT(priority=0x0B, entity_id=Ranpi-Monpi (ID: 17752138/0x010EE04A), tag_num=0x1D)
 14: 0x024A [0x01] GOTO 0x024D

SUBROUTINE_024D:
 15: 0x024D [0x20] SET_CLI_EVENT_UC_FLAG: Unlock player control
 16: 0x024F [0x21] END_EVENT
 17: 0x0250 [0x00] END_REQSTACK()
```

### Event 65535.24

#### Metadata

| Field        | Value    |
|--------------|----------|
| Entrypoint   | 0x0251   |
| Data Size    | 37 bytes |
| Instructions | 9        |

```
      00 01 02 03 04 05 06 07  08 09 0A 0B 0C 0D 0E 0F
      -- -- -- -- -- -- -- --  -- -- -- -- -- -- -- --
0250:    29 08 4A E0 0E 01 0F  1D 0D 80 23 29 08 4A E0   ).J.......#).J.
0260: 0E 01 10 29 08 4A E0 0E  01 01 1D 0E 80 23 29 08  ...).J.......#).
0270: 4A E0 0E 01 02 00                                 J.....          
```

#### Opcodes

```
  0: 0x0251 [0x29] REQ_SET_WAIT(priority=0x08, entity_id=Ranpi-Monpi (ID: 17752138/0x010EE04A), tag_num=0x0F)
  1: 0x0258 [0x1D] PRINT_EVENT_MESSAGE(message_id=7893*)
    → "Sacrebleu! What should I do?"
  2: 0x025B [0x23] WAIT_FOR_DIALOG_INTERACTION
  3: 0x025C [0x29] REQ_SET_WAIT(priority=0x08, entity_id=Ranpi-Monpi (ID: 17752138/0x010EE04A), tag_num=0x10)
  4: 0x0263 [0x29] REQ_SET_WAIT(priority=0x08, entity_id=Ranpi-Monpi (ID: 17752138/0x010EE04A), tag_num=0x01)
  5: 0x026A [0x1D] PRINT_EVENT_MESSAGE(message_id=7894*)
    → "Hey, you zere! Can you keep a secret?"
  6: 0x026D [0x23] WAIT_FOR_DIALOG_INTERACTION
  7: 0x026E [0x29] REQ_SET_WAIT(priority=0x08, entity_id=Ranpi-Monpi (ID: 17752138/0x010EE04A), tag_num=0x02)
  8: 0x0275 [0x00] END_REQSTACK()
```

### Event 65535.25

#### Metadata

| Field        | Value    |
|--------------|----------|
| Entrypoint   | 0x0276   |
| Data Size    | 19 bytes |
| Instructions | 5        |

```
      00 01 02 03 04 05 06 07  08 09 0A 0B 0C 0D 0E 0F
      -- -- -- -- -- -- -- --  -- -- -- -- -- -- -- --
0270:                   29 08  4A E0 0E 01 11 1D 0F 80        ).J.......
0280: 23 29 08 4A E0 0E 01 12  00                       #).J.....       
```

#### Opcodes

```
  0: 0x0276 [0x29] REQ_SET_WAIT(priority=0x08, entity_id=Ranpi-Monpi (ID: 17752138/0x010EE04A), tag_num=0x11)
  1: 0x027D [0x1D] PRINT_EVENT_MESSAGE(message_id=7903*)
    → "Oh, then forget what I just said. You didn't hear anything!"
  2: 0x0280 [0x23] WAIT_FOR_DIALOG_INTERACTION
  3: 0x0281 [0x29] REQ_SET_WAIT(priority=0x08, entity_id=Ranpi-Monpi (ID: 17752138/0x010EE04A), tag_num=0x12)
  4: 0x0288 [0x00] END_REQSTACK()
```

### Event 65535.26

#### Metadata

| Field        | Value    |
|--------------|----------|
| Entrypoint   | 0x0289   |
| Data Size    | 45 bytes |
| Instructions | 13       |

```
      00 01 02 03 04 05 06 07  08 09 0A 0B 0C 0D 0E 0F
      -- -- -- -- -- -- -- --  -- -- -- -- -- -- -- --
0280:                             29 08 4A E0 0E 01 0D           ).J....
0290: 1D 10 80 23 29 08 4A E0  0E 01 0E 29 08 4A E0 0E  ...#).J....).J..
02A0: 01 01 1D 11 80 23 1D 12  80 23 1D 13 80 23 29 08  .....#...#...#).
02B0: 4A E0 0E 01 02 00                                 J.....          
```

#### Opcodes

```
  0: 0x0289 [0x29] REQ_SET_WAIT(priority=0x08, entity_id=Ranpi-Monpi (ID: 17752138/0x010EE04A), tag_num=0x0D)
  1: 0x0290 [0x1D] PRINT_EVENT_MESSAGE(message_id=7905*)
    → "Zee truth eez, I've made a terrible, terrible mistake!"
  2: 0x0293 [0x23] WAIT_FOR_DIALOG_INTERACTION
  3: 0x0294 [0x29] REQ_SET_WAIT(priority=0x08, entity_id=Ranpi-Monpi (ID: 17752138/0x010EE04A), tag_num=0x0E)
  4: 0x029B [0x29] REQ_SET_WAIT(priority=0x08, entity_id=Ranpi-Monpi (ID: 17752138/0x010EE04A), tag_num=0x01)
  5: 0x02A2 [0x1D] PRINT_EVENT_MESSAGE(message_id=7906*)
    → "You see, Windurst eez trying to improve its relations with zee Yagudo beastmen."
  6: 0x02A5 [0x23] WAIT_FOR_DIALOG_INTERACTION
  7: 0x02A6 [0x1D] PRINT_EVENT_MESSAGE(message_id=7907*)
    → "One of our peace efforts is a promise to provide zee Yagudo with food offerings, prepared and sent by zee Rhinostery and zis Culinarians' Guild."
  8: 0x02A9 [0x23] WAIT_FOR_DIALOG_INTERACTION
  9: 0x02AA [0x1D] PRINT_EVENT_MESSAGE(message_id=7908*)
    → "But I think I went and mixed a horrible $1 into zee food offering by mistake."
 10: 0x02AD [0x23] WAIT_FOR_DIALOG_INTERACTION
 11: 0x02AE [0x29] REQ_SET_WAIT(priority=0x08, entity_id=Ranpi-Monpi (ID: 17752138/0x010EE04A), tag_num=0x02)
 12: 0x02B5 [0x00] END_REQSTACK()
```

### Event 65535.27

#### Metadata

| Field        | Value     |
|--------------|-----------|
| Entrypoint   | 0x02B6    |
| Data Size    | 117 bytes |
| Instructions | 30        |

```
      00 01 02 03 04 05 06 07  08 09 0A 0B 0C 0D 0E 0F
      -- -- -- -- -- -- -- --  -- -- -- -- -- -- -- --
02B0:                   1E F0  FF FF 7F 6F 70 29 08 4A        .....op).J
02C0: E0 0E 01 0D 1D 14 80 23  29 08 4A E0 0E 01 0E 24  .......#).J....$
02D0: 15 80 0A 80 0A 80 25 02  00 10 0A 80 00 10 03 42  ......%........B
02E0: 03 01 10 0B 80 29 08 4A  E0 0E 01 01 1D 16 80 23  .....).J.......#
02F0: 1D 17 80 23 29 08 4A E0  0E 01 17 29 08 4A E0 0E  ...#).J....).J..
0300: 01 0D 1D 18 80 23 29 08  4A E0 0E 01 0E 01 27 03  .....#).J.....'.
0310: 02 00 10 0B 80 00 27 03  03 01 10 0C 80 29 09 4A  ......'......).J
0320: E0 0E 01 20 01 27 03 20  00 21 00                 ... .'. .!.     
```

#### Opcodes

```
  0: 0x02B6 [0x1E] EventEntity looks at LocalPlayer and starts talking
  1: 0x02BB [0x6F] WAIT_FRAME_DELAY: Yield until WaitTime reaches zero
  2: 0x02BC [0x70] WAIT_ENTITY_RENDER_FLAG: Wait while EventEntity->Render.Flags3 bit 2 is set (cancel turn if not)
  3: 0x02BD [0x29] REQ_SET_WAIT(priority=0x08, entity_id=Ranpi-Monpi (ID: 17752138/0x010EE04A), tag_num=0x0D)
  4: 0x02C4 [0x1D] PRINT_EVENT_MESSAGE(message_id=7909*)
    → "Au secours! You've got to help me! Pleeze race to Giddeus as fast as you can and retrieve zee food bags with $1 mixed een zem."
  5: 0x02C7 [0x23] WAIT_FOR_DIALOG_INTERACTION
  6: 0x02C8 [0x29] REQ_SET_WAIT(priority=0x08, entity_id=Ranpi-Monpi (ID: 17752138/0x010EE04A), tag_num=0x0E)
  7: 0x02CF [0x24] CREATE_DIALOG(message_id=7910*, default_option=0*, option_flags=0*)
    → "Listen to his request? [Oui./Non.]"
  8: 0x02D6 [0x25] WAIT_DIALOG_SELECT()
  9: 0x02D7 [0x02] IF !(Work_Zone[0] == 0*) GOTO 0x0310
 10: 0x02DF [0x42] SET_CLI_EVENT_CANCEL_DATA()
 11: 0x02E0 [0x03] Work_Zone[1] = 1*
 12: 0x02E5 [0x29] REQ_SET_WAIT(priority=0x08, entity_id=Ranpi-Monpi (ID: 17752138/0x010EE04A), tag_num=0x01)
 13: 0x02EC [0x1D] PRINT_EVENT_MESSAGE(message_id=7911*)
    → "Ooh... Merci-werci!"
 14: 0x02EF [0x23] WAIT_FOR_DIALOG_INTERACTION
 15: 0x02F0 [0x1D] PRINT_EVENT_MESSAGE(message_id=7912*)
    → "Zee food bags with $1 mixed in zem were probably delivered by zee adventurers who received zee mission from zee gatehouse."
 16: 0x02F3 [0x23] WAIT_FOR_DIALOG_INTERACTION
 17: 0x02F4 [0x29] REQ_SET_WAIT(priority=0x08, entity_id=Ranpi-Monpi (ID: 17752138/0x010EE04A), tag_num=0x17)
 18: 0x02FB [0x29] REQ_SET_WAIT(priority=0x08, entity_id=Ranpi-Monpi (ID: 17752138/0x010EE04A), tag_num=0x0D)
 19: 0x0302 [0x1D] PRINT_EVENT_MESSAGE(message_id=7913*)
    → "But if you race on over to Giddeus right away, you should make it in time. Pleeze, you've got to get zere before zee Yagudo try zem!"
 20: 0x0305 [0x23] WAIT_FOR_DIALOG_INTERACTION
 21: 0x0306 [0x29] REQ_SET_WAIT(priority=0x08, entity_id=Ranpi-Monpi (ID: 17752138/0x010EE04A), tag_num=0x0E)
 22: 0x030D [0x01] GOTO 0x0327
 23: 0x0310 [0x02] IF !(Work_Zone[0] == 1*) GOTO 0x0327
 24: 0x0318 [0x03] Work_Zone[1] = 2*
 25: 0x031D [0x29] REQ_SET_WAIT(priority=0x09, entity_id=Ranpi-Monpi (ID: 17752138/0x010EE04A), tag_num=0x20)
 26: 0x0324 [0x01] GOTO 0x0327

SUBROUTINE_0327:
 27: 0x0327 [0x20] SET_CLI_EVENT_UC_FLAG: Unlock player control
 28: 0x0329 [0x21] END_EVENT
 29: 0x032A [0x00] END_REQSTACK()
```

### Event 65535.28

#### Metadata

| Field        | Value    |
|--------------|----------|
| Entrypoint   | 0x032B   |
| Data Size    | 19 bytes |
| Instructions | 5        |

```
      00 01 02 03 04 05 06 07  08 09 0A 0B 0C 0D 0E 0F
      -- -- -- -- -- -- -- --  -- -- -- -- -- -- -- --
0320:                                   29 08 4A E0 0E             ).J..
0330: 01 11 1D 19 80 23 29 08  4A E0 0E 01 12 00        .....#).J.....  
```

#### Opcodes

```
  0: 0x032B [0x29] REQ_SET_WAIT(priority=0x08, entity_id=Ranpi-Monpi (ID: 17752138/0x010EE04A), tag_num=0x11)
  1: 0x0332 [0x1D] PRINT_EVENT_MESSAGE(message_id=7904*)
    → "Don't laugh or tease me, but, well..."
  2: 0x0335 [0x23] WAIT_FOR_DIALOG_INTERACTION
  3: 0x0336 [0x29] REQ_SET_WAIT(priority=0x08, entity_id=Ranpi-Monpi (ID: 17752138/0x010EE04A), tag_num=0x12)
  4: 0x033D [0x00] END_REQSTACK()
```

### Event 259

#### Metadata

| Field        | Value    |
|--------------|----------|
| Entrypoint   | 0x033E   |
| Data Size    | 80 bytes |
| Instructions | 19       |

```
      00 01 02 03 04 05 06 07  08 09 0A 0B 0C 0D 0E 0F
      -- -- -- -- -- -- -- --  -- -- -- -- -- -- -- --
0330:                                            1E F0                ..
0340: FF FF 7F 6F 70 29 0B 4A  E0 0E 01 22 24 15 80 0A  ...op).J..."$...
0350: 80 0A 80 25 02 00 10 0A  80 00 73 03 42 03 01 10  ...%......s.B...
0360: 0B 80 29 09 4A E0 0E 01  23 29 09 4A E0 0E 01 24  ..).J...#).J...$
0370: 01 8A 03 02 00 10 0B 80  00 8A 03 03 01 10 0C 80  ................
0380: 29 09 4A E0 0E 01 20 01  8A 03 20 00 21 00        ).J... ... .!.  
```

#### Opcodes

```
  0: 0x033E [0x1E] EventEntity looks at LocalPlayer and starts talking
  1: 0x0343 [0x6F] WAIT_FRAME_DELAY: Yield until WaitTime reaches zero
  2: 0x0344 [0x70] WAIT_ENTITY_RENDER_FLAG: Wait while EventEntity->Render.Flags3 bit 2 is set (cancel turn if not)
  3: 0x0345 [0x29] REQ_SET_WAIT(priority=0x0B, entity_id=Ranpi-Monpi (ID: 17752138/0x010EE04A), tag_num=0x22)
  4: 0x034C [0x24] CREATE_DIALOG(message_id=7910*, default_option=0*, option_flags=0*)
    → "Listen to his request? [Oui./Non.]"
  5: 0x0353 [0x25] WAIT_DIALOG_SELECT()
  6: 0x0354 [0x02] IF !(Work_Zone[0] == 0*) GOTO 0x0373
  7: 0x035C [0x42] SET_CLI_EVENT_CANCEL_DATA()
  8: 0x035D [0x03] Work_Zone[1] = 1*
  9: 0x0362 [0x29] REQ_SET_WAIT(priority=0x09, entity_id=Ranpi-Monpi (ID: 17752138/0x010EE04A), tag_num=0x23)
 10: 0x0369 [0x29] REQ_SET_WAIT(priority=0x09, entity_id=Ranpi-Monpi (ID: 17752138/0x010EE04A), tag_num=0x24)
 11: 0x0370 [0x01] GOTO 0x038A
 12: 0x0373 [0x02] IF !(Work_Zone[0] == 1*) GOTO 0x038A
 13: 0x037B [0x03] Work_Zone[1] = 2*
 14: 0x0380 [0x29] REQ_SET_WAIT(priority=0x09, entity_id=Ranpi-Monpi (ID: 17752138/0x010EE04A), tag_num=0x20)
 15: 0x0387 [0x01] GOTO 0x038A

SUBROUTINE_038A:
 16: 0x038A [0x20] SET_CLI_EVENT_UC_FLAG: Unlock player control
 17: 0x038C [0x21] END_EVENT
 18: 0x038D [0x00] END_REQSTACK()
```

### Event 65535.29

#### Metadata

| Field        | Value    |
|--------------|----------|
| Entrypoint   | 0x038E   |
| Data Size    | 37 bytes |
| Instructions | 9        |

```
      00 01 02 03 04 05 06 07  08 09 0A 0B 0C 0D 0E 0F
      -- -- -- -- -- -- -- --  -- -- -- -- -- -- -- --
0380:                                            29 08                ).
0390: 4A E0 0E 01 0F 1D 1A 80  23 29 08 4A E0 0E 01 10  J.......#).J....
03A0: 29 08 4A E0 0E 01 01 1D  1B 80 23 29 08 4A E0 0E  ).J.......#).J..
03B0: 01 02 00                                          ...             
```

#### Opcodes

```
  0: 0x038E [0x29] REQ_SET_WAIT(priority=0x08, entity_id=Ranpi-Monpi (ID: 17752138/0x010EE04A), tag_num=0x0F)
  1: 0x0395 [0x1D] PRINT_EVENT_MESSAGE(message_id=7895*)
    → "Sacrebleu! Not again!?"
  2: 0x0398 [0x23] WAIT_FOR_DIALOG_INTERACTION
  3: 0x0399 [0x29] REQ_SET_WAIT(priority=0x08, entity_id=Ranpi-Monpi (ID: 17752138/0x010EE04A), tag_num=0x10)
  4: 0x03A0 [0x29] REQ_SET_WAIT(priority=0x08, entity_id=Ranpi-Monpi (ID: 17752138/0x010EE04A), tag_num=0x01)
  5: 0x03A7 [0x1D] PRINT_EVENT_MESSAGE(message_id=7896*)
    → "Oh, you're back...and just in time! Au secour! Pleeze save Windurst one more time!"
  6: 0x03AA [0x23] WAIT_FOR_DIALOG_INTERACTION
  7: 0x03AB [0x29] REQ_SET_WAIT(priority=0x08, entity_id=Ranpi-Monpi (ID: 17752138/0x010EE04A), tag_num=0x02)
  8: 0x03B2 [0x00] END_REQSTACK()
```

### Event 65535.30

#### Metadata

| Field        | Value    |
|--------------|----------|
| Entrypoint   | 0x03B3   |
| Data Size    | 41 bytes |
| Instructions | 11       |

```
      00 01 02 03 04 05 06 07  08 09 0A 0B 0C 0D 0E 0F
      -- -- -- -- -- -- -- --  -- -- -- -- -- -- -- --
03B0:          29 08 4A E0 0E  01 0D 1D 1C 80 23 29 08     ).J.......#).
03C0: 4A E0 0E 01 0E 29 08 4A  E0 0E 01 01 1D 1D 80 23  J....).J.......#
03D0: 1D 1E 80 23 29 08 4A E0  0E 01 02 00              ...#).J.....    
```

#### Opcodes

```
  0: 0x03B3 [0x29] REQ_SET_WAIT(priority=0x08, entity_id=Ranpi-Monpi (ID: 17752138/0x010EE04A), tag_num=0x0D)
  1: 0x03BA [0x1D] PRINT_EVENT_MESSAGE(message_id=7897*)
    → "I went and made zee same mistake as I deed last time!"
  2: 0x03BD [0x23] WAIT_FOR_DIALOG_INTERACTION
  3: 0x03BE [0x29] REQ_SET_WAIT(priority=0x08, entity_id=Ranpi-Monpi (ID: 17752138/0x010EE04A), tag_num=0x0E)
  4: 0x03C5 [0x29] REQ_SET_WAIT(priority=0x08, entity_id=Ranpi-Monpi (ID: 17752138/0x010EE04A), tag_num=0x01)
  5: 0x03CC [0x1D] PRINT_EVENT_MESSAGE(message_id=7898*)
    → "Az I explained before, non? Windurst eez trying to maintain its hard-earned peace with zose Yagudo beastmen."
  6: 0x03CF [0x23] WAIT_FOR_DIALOG_INTERACTION
  7: 0x03D0 [0x1D] PRINT_EVENT_MESSAGE(message_id=7900*)
    → "But I went and mixed $1 into zee food offering by mistake."
  8: 0x03D3 [0x23] WAIT_FOR_DIALOG_INTERACTION
  9: 0x03D4 [0x29] REQ_SET_WAIT(priority=0x08, entity_id=Ranpi-Monpi (ID: 17752138/0x010EE04A), tag_num=0x02)
 10: 0x03DB [0x00] END_REQSTACK()
```

### Event 65535.31

#### Metadata

| Field        | Value    |
|--------------|----------|
| Entrypoint   | 0x03DC   |
| Data Size    | 19 bytes |
| Instructions | 5        |

```
      00 01 02 03 04 05 06 07  08 09 0A 0B 0C 0D 0E 0F
      -- -- -- -- -- -- -- --  -- -- -- -- -- -- -- --
03D0:                                      29 08 4A E0              ).J.
03E0: 0E 01 0B 1D 1F 80 23 29  08 4A E0 0E 01 0C 00     ......#).J..... 
```

#### Opcodes

```
  0: 0x03DC [0x29] REQ_SET_WAIT(priority=0x08, entity_id=Ranpi-Monpi (ID: 17752138/0x010EE04A), tag_num=0x0B)
  1: 0x03E3 [0x1D] PRINT_EVENT_MESSAGE(message_id=7901*)
    → "If you race over to Giddeus, you should make it in time. Pleeze! You've got to help before one of zee Yagudo tastes my disaster and gets insulted by it!"
  2: 0x03E6 [0x23] WAIT_FOR_DIALOG_INTERACTION
  3: 0x03E7 [0x29] REQ_SET_WAIT(priority=0x08, entity_id=Ranpi-Monpi (ID: 17752138/0x010EE04A), tag_num=0x0C)
  4: 0x03EE [0x00] END_REQSTACK()
```

### Event 262

#### Metadata

| Field        | Value    |
|--------------|----------|
| Entrypoint   | 0x03EF   |
| Data Size    | 47 bytes |
| Instructions | 14       |

```
      00 01 02 03 04 05 06 07  08 09 0A 0B 0C 0D 0E 0F
      -- -- -- -- -- -- -- --  -- -- -- -- -- -- -- --
03E0:                                               1E                 .
03F0: F0 FF FF 7F 6F 70 29 08  4A E0 0E 01 01 1D 20 80  ....op).J..... .
0400: 23 29 08 4A E0 0E 01 17  29 08 4A E0 0E 01 0D 1D  #).J....).J.....
0410: 21 80 23 29 08 4A E0 0E  01 0E 20 00 21 00        !.#).J.... .!.  
```

#### Opcodes

```
  0: 0x03EF [0x1E] EventEntity looks at LocalPlayer and starts talking
  1: 0x03F4 [0x6F] WAIT_FRAME_DELAY: Yield until WaitTime reaches zero
  2: 0x03F5 [0x70] WAIT_ENTITY_RENDER_FLAG: Wait while EventEntity->Render.Flags3 bit 2 is set (cancel turn if not)
  3: 0x03F6 [0x29] REQ_SET_WAIT(priority=0x08, entity_id=Ranpi-Monpi (ID: 17752138/0x010EE04A), tag_num=0x01)
  4: 0x03FD [0x1D] PRINT_EVENT_MESSAGE(message_id=7914*)
    → "Zee food bags with $1 mixed in zem were probably delivered by zee adventurers who received zee mission from zee gatehouse."
  5: 0x0400 [0x23] WAIT_FOR_DIALOG_INTERACTION
  6: 0x0401 [0x29] REQ_SET_WAIT(priority=0x08, entity_id=Ranpi-Monpi (ID: 17752138/0x010EE04A), tag_num=0x17)
  7: 0x0408 [0x29] REQ_SET_WAIT(priority=0x08, entity_id=Ranpi-Monpi (ID: 17752138/0x010EE04A), tag_num=0x0D)
  8: 0x040F [0x1D] PRINT_EVENT_MESSAGE(message_id=7915*)
    → "But if you race on over to Giddeus right away, you should make it in time. Pleeze, you've got to get zere before zee Yagudo try zem!"
  9: 0x0412 [0x23] WAIT_FOR_DIALOG_INTERACTION
 10: 0x0413 [0x29] REQ_SET_WAIT(priority=0x08, entity_id=Ranpi-Monpi (ID: 17752138/0x010EE04A), tag_num=0x0E)
 11: 0x041A [0x20] SET_CLI_EVENT_UC_FLAG: Unlock player control
 12: 0x041C [0x21] END_EVENT
 13: 0x041D [0x00] END_REQSTACK()
```

### Event 267

#### Metadata

| Field        | Value    |
|--------------|----------|
| Entrypoint   | 0x041E   |
| Data Size    | 53 bytes |
| Instructions | 15       |

```
      00 01 02 03 04 05 06 07  08 09 0A 0B 0C 0D 0E 0F
      -- -- -- -- -- -- -- --  -- -- -- -- -- -- -- --
0410:                                            20 01                 .
0420: 42 1E F0 FF FF 7F 6F 70  29 08 4A E0 0E 01 01 1D  B.....op).J.....
0430: 22 80 23 1D 23 80 23 29  08 4A E0 0E 01 17 45 24  ".#.#.#).J....E$
0440: 80 F0 FF FF 7F F0 FF FF  7F 71 73 74 63 0A 80 20  .........qstc.. 
0450: 00 21 00                                          .!.             
```

#### Opcodes

```
  0: 0x041E [0x20] SET_CLI_EVENT_UC_FLAG: Lock player control
  1: 0x0420 [0x42] SET_CLI_EVENT_CANCEL_DATA()
  2: 0x0421 [0x1E] EventEntity looks at LocalPlayer and starts talking
  3: 0x0426 [0x6F] WAIT_FRAME_DELAY: Yield until WaitTime reaches zero
  4: 0x0427 [0x70] WAIT_ENTITY_RENDER_FLAG: Wait while EventEntity->Render.Flags3 bit 2 is set (cancel turn if not)
  5: 0x0428 [0x29] REQ_SET_WAIT(priority=0x08, entity_id=Ranpi-Monpi (ID: 17752138/0x010EE04A), tag_num=0x01)
  6: 0x042F [0x1D] PRINT_EVENT_MESSAGE(message_id=7925*)
    → "O`h thank you so` very much! You saved my life!"
  7: 0x0432 [0x23] WAIT_FOR_DIALOG_INTERACTION
  8: 0x0433 [0x1D] PRINT_EVENT_MESSAGE(message_id=7926*)
    → "At zee moment, zis eez all I have to give you... Apart from my sincere gratitude, of course!"
  9: 0x0436 [0x23] WAIT_FOR_DIALOG_INTERACTION
 10: 0x0437 [0x29] REQ_SET_WAIT(priority=0x08, entity_id=Ranpi-Monpi (ID: 17752138/0x010EE04A), tag_num=0x17)
 11: 0x043E [0x45] LOAD_SCHEDULED_TASK: Load scheduler "qstc" with entities [LocalPlayer, LocalPlayer], work=[201*, 0*]
 12: 0x044F [0x20] SET_CLI_EVENT_UC_FLAG: Unlock player control
 13: 0x0451 [0x21] END_EVENT
 14: 0x0452 [0x00] END_REQSTACK()
```

### Event 268

#### Metadata

| Field        | Value    |
|--------------|----------|
| Entrypoint   | 0x0453   |
| Data Size    | 33 bytes |
| Instructions | 12       |

```
      00 01 02 03 04 05 06 07  08 09 0A 0B 0C 0D 0E 0F
      -- -- -- -- -- -- -- --  -- -- -- -- -- -- -- --
0450:          1E F0 FF FF 7F  6F 70 29 08 4A E0 0E 01     .....op).J...
0460: 01 1D 25 80 23 1D 26 80  23 29 08 4A E0 0E 01 17  ..%.#.&.#).J....
0470: 20 00 21 00                                        .!.            
```

#### Opcodes

```
  0: 0x0453 [0x1E] EventEntity looks at LocalPlayer and starts talking
  1: 0x0458 [0x6F] WAIT_FRAME_DELAY: Yield until WaitTime reaches zero
  2: 0x0459 [0x70] WAIT_ENTITY_RENDER_FLAG: Wait while EventEntity->Render.Flags3 bit 2 is set (cancel turn if not)
  3: 0x045A [0x29] REQ_SET_WAIT(priority=0x08, entity_id=Ranpi-Monpi (ID: 17752138/0x010EE04A), tag_num=0x01)
  4: 0x0461 [0x1D] PRINT_EVENT_MESSAGE(message_id=7927*)
    → "Merci! Thank you very much. We're all so obliged."
  5: 0x0464 [0x23] WAIT_FOR_DIALOG_INTERACTION
  6: 0x0465 [0x1D] PRINT_EVENT_MESSAGE(message_id=7928*)
    → "Zee peace of Windurst has been saved, thanks to you!"
  7: 0x0468 [0x23] WAIT_FOR_DIALOG_INTERACTION
  8: 0x0469 [0x29] REQ_SET_WAIT(priority=0x08, entity_id=Ranpi-Monpi (ID: 17752138/0x010EE04A), tag_num=0x17)
  9: 0x0470 [0x20] SET_CLI_EVENT_UC_FLAG: Unlock player control
 10: 0x0472 [0x21] END_EVENT
 11: 0x0473 [0x00] END_REQSTACK()
```

### Event 554

#### Metadata

| Field        | Value    |
|--------------|----------|
| Entrypoint   | 0x0474   |
| Data Size    | 39 bytes |
| Instructions | 10       |

```
      00 01 02 03 04 05 06 07  08 09 0A 0B 0C 0D 0E 0F
      -- -- -- -- -- -- -- --  -- -- -- -- -- -- -- --
0470:             1E F0 FF FF  7F 6F 70 29 0B 4A E0 0E      .....op).J..
0480: 01 29 29 0B 4A E0 0E 01  2A 29 0B 4A E0 0E 01 2B  .)).J...*).J...+
0490: 29 0B 4A E0 0E 01 2C 20  00 21 00                 ).J..., .!.     
```

#### Opcodes

```
  0: 0x0474 [0x1E] EventEntity looks at LocalPlayer and starts talking
  1: 0x0479 [0x6F] WAIT_FRAME_DELAY: Yield until WaitTime reaches zero
  2: 0x047A [0x70] WAIT_ENTITY_RENDER_FLAG: Wait while EventEntity->Render.Flags3 bit 2 is set (cancel turn if not)
  3: 0x047B [0x29] REQ_SET_WAIT(priority=0x0B, entity_id=Ranpi-Monpi (ID: 17752138/0x010EE04A), tag_num=0x29)
  4: 0x0482 [0x29] REQ_SET_WAIT(priority=0x0B, entity_id=Ranpi-Monpi (ID: 17752138/0x010EE04A), tag_num=0x2A)
  5: 0x0489 [0x29] REQ_SET_WAIT(priority=0x0B, entity_id=Ranpi-Monpi (ID: 17752138/0x010EE04A), tag_num=0x2B)
  6: 0x0490 [0x29] REQ_SET_WAIT(priority=0x0B, entity_id=Ranpi-Monpi (ID: 17752138/0x010EE04A), tag_num=0x2C)
  7: 0x0497 [0x20] SET_CLI_EVENT_UC_FLAG: Unlock player control
  8: 0x0499 [0x21] END_EVENT
  9: 0x049A [0x00] END_REQSTACK()
```

### Event 65535.32

#### Metadata

| Field        | Value   |
|--------------|---------|
| Entrypoint   | 0x049B  |
| Data Size    | 9 bytes |
| Instructions | 5       |

```
      00 01 02 03 04 05 06 07  08 09 0A 0B 0C 0D 0E 0F
      -- -- -- -- -- -- -- --  -- -- -- -- -- -- -- --
0490:                                   1D 27 80 23 1D             .'.#.
04A0: 28 80 23 00                                       (.#.            
```

#### Opcodes

```
  0: 0x049B [0x1D] PRINT_EVENT_MESSAGE(message_id=8781*)
    → "A while ago, I borrowed a chocobo so I could go on a fishing trip. But zee silly chocobo went and caught a cold."
  1: 0x049E [0x23] WAIT_FOR_DIALOG_INTERACTION
  2: 0x049F [0x1D] PRINT_EVENT_MESSAGE(message_id=8782*)
    → "To make up for eet, I took some of my special stew to zee stables so zee chocobo could drink eet... Oh, so you want moi to make some of zat stew for you?"
  3: 0x04A2 [0x23] WAIT_FOR_DIALOG_INTERACTION
  4: 0x04A3 [0x00] END_REQSTACK()
```

### Event 65535.33

#### Metadata

| Field        | Value   |
|--------------|---------|
| Entrypoint   | 0x04A4  |
| Data Size    | 5 bytes |
| Instructions | 3       |

```
      00 01 02 03 04 05 06 07  08 09 0A 0B 0C 0D 0E 0F
      -- -- -- -- -- -- -- --  -- -- -- -- -- -- -- --
04A0:             1D 29 80 23  00                           .).#.       
```

#### Opcodes

```
  0: 0x04A4 [0x1D] PRINT_EVENT_MESSAGE(message_id=8783*)
    → "I think it eez possible, but zee special stew I made that time had $1 in eet. You'll have to bring moi three of zose little champignons..."
  1: 0x04A7 [0x23] WAIT_FOR_DIALOG_INTERACTION
  2: 0x04A8 [0x00] END_REQSTACK()
```

### Event 65535.34

#### Metadata

| Field        | Value   |
|--------------|---------|
| Entrypoint   | 0x04A9  |
| Data Size    | 5 bytes |
| Instructions | 3       |

```
      00 01 02 03 04 05 06 07  08 09 0A 0B 0C 0D 0E 0F
      -- -- -- -- -- -- -- --  -- -- -- -- -- -- -- --
04A0:                             1D 2A 80 23 00                 .*.#.  
```

#### Opcodes

```
  0: 0x04A9 [0x1D] PRINT_EVENT_MESSAGE(message_id=8784*)
    → "Without zose special mushrooms, eet will just be a plain old stew."
  1: 0x04AC [0x23] WAIT_FOR_DIALOG_INTERACTION
  2: 0x04AD [0x00] END_REQSTACK()
```

### Event 65535.35

#### Metadata

| Field        | Value   |
|--------------|---------|
| Entrypoint   | 0x04AE  |
| Data Size    | 9 bytes |
| Instructions | 5       |

```
      00 01 02 03 04 05 06 07  08 09 0A 0B 0C 0D 0E 0F
      -- -- -- -- -- -- -- --  -- -- -- -- -- -- -- --
04A0:                                            1D 2B                .+
04B0: 80 23 1D 2C 80 23 00                              .#.,.#.         
```

#### Opcodes

```
  0: 0x04AE [0x1D] PRINT_EVENT_MESSAGE(message_id=8785*)
    → "Zee $1 can be found in Jugner Forest, I believe."
  1: 0x04B1 [0x23] WAIT_FOR_DIALOG_INTERACTION
  2: 0x04B2 [0x1D] PRINT_EVENT_MESSAGE(message_id=8786*)
    → "Zey grow on zee bodies of zee toadstool monsters that lurk zere. Zey look grotesque and smell awful, but zee taste ees just exquisite!"
  3: 0x04B5 [0x23] WAIT_FOR_DIALOG_INTERACTION
  4: 0x04B6 [0x00] END_REQSTACK()
```

### Event 555

#### Metadata

| Field        | Value    |
|--------------|----------|
| Entrypoint   | 0x04B7   |
| Data Size    | 19 bytes |
| Instructions | 10       |

```
      00 01 02 03 04 05 06 07  08 09 0A 0B 0C 0D 0E 0F
      -- -- -- -- -- -- -- --  -- -- -- -- -- -- -- --
04B0:                      1E  F0 FF FF 7F 6F 70 1D 2D         .....op.-
04C0: 80 23 1D 2E 80 23 20 00  21 00                    .#...# .!.      
```

#### Opcodes

```
  0: 0x04B7 [0x1E] EventEntity looks at LocalPlayer and starts talking
  1: 0x04BC [0x6F] WAIT_FRAME_DELAY: Yield until WaitTime reaches zero
  2: 0x04BD [0x70] WAIT_ENTITY_RENDER_FLAG: Wait while EventEntity->Render.Flags3 bit 2 is set (cancel turn if not)
  3: 0x04BE [0x1D] PRINT_EVENT_MESSAGE(message_id=8787*)
    → "I need about three $1 in order to make zat special stew for you."
  4: 0x04C1 [0x23] WAIT_FOR_DIALOG_INTERACTION
  5: 0x04C2 [0x1D] PRINT_EVENT_MESSAGE(message_id=8788*)
    → "In order to get zose mushrooms, I recommend you try Jugner Forest. You should be able to collect zem by defeating zose toadstool monsters zat lurk zere."
  6: 0x04C5 [0x23] WAIT_FOR_DIALOG_INTERACTION
  7: 0x04C6 [0x20] SET_CLI_EVENT_UC_FLAG: Unlock player control
  8: 0x04C8 [0x21] END_EVENT
  9: 0x04C9 [0x00] END_REQSTACK()
```

### Event 556

#### Metadata

| Field        | Value    |
|--------------|----------|
| Entrypoint   | 0x04CA   |
| Data Size    | 35 bytes |
| Instructions | 11       |

```
      00 01 02 03 04 05 06 07  08 09 0A 0B 0C 0D 0E 0F
      -- -- -- -- -- -- -- --  -- -- -- -- -- -- -- --
04C0:                                20 01 42 1E F0 FF             .B...
04D0: FF 7F 6F 70 29 0B 4A E0  0E 01 2F 29 0B 4A E0 0E  ..op).J.../).J..
04E0: 01 30 29 0B 4A E0 0E 01  31 20 00 21 00           .0).J...1 .!.   
```

#### Opcodes

```
  0: 0x04CA [0x20] SET_CLI_EVENT_UC_FLAG: Lock player control
  1: 0x04CC [0x42] SET_CLI_EVENT_CANCEL_DATA()
  2: 0x04CD [0x1E] EventEntity looks at LocalPlayer and starts talking
  3: 0x04D2 [0x6F] WAIT_FRAME_DELAY: Yield until WaitTime reaches zero
  4: 0x04D3 [0x70] WAIT_ENTITY_RENDER_FLAG: Wait while EventEntity->Render.Flags3 bit 2 is set (cancel turn if not)
  5: 0x04D4 [0x29] REQ_SET_WAIT(priority=0x0B, entity_id=Ranpi-Monpi (ID: 17752138/0x010EE04A), tag_num=0x2F)
  6: 0x04DB [0x29] REQ_SET_WAIT(priority=0x0B, entity_id=Ranpi-Monpi (ID: 17752138/0x010EE04A), tag_num=0x30)
  7: 0x04E2 [0x29] REQ_SET_WAIT(priority=0x0B, entity_id=Ranpi-Monpi (ID: 17752138/0x010EE04A), tag_num=0x31)
  8: 0x04E9 [0x20] SET_CLI_EVENT_UC_FLAG: Unlock player control
  9: 0x04EB [0x21] END_EVENT
 10: 0x04EC [0x00] END_REQSTACK()
```

### Event 65535.36

#### Metadata

| Field        | Value   |
|--------------|---------|
| Entrypoint   | 0x04ED  |
| Data Size    | 5 bytes |
| Instructions | 3       |

```
      00 01 02 03 04 05 06 07  08 09 0A 0B 0C 0D 0E 0F
      -- -- -- -- -- -- -- --  -- -- -- -- -- -- -- --
04E0:                                         1D 2F 80               ./.
04F0: 23 00                                             #.              
```

#### Opcodes

```
  0: 0x04ED [0x1D] PRINT_EVENT_MESSAGE(message_id=8789*)
    → "Zat's it! Once you've tried a dish with zese in zem, you'll keep coming back for more."
  1: 0x04F0 [0x23] WAIT_FOR_DIALOG_INTERACTION
  2: 0x04F1 [0x00] END_REQSTACK()
```

### Event 65535.37

#### Metadata

| Field        | Value   |
|--------------|---------|
| Entrypoint   | 0x04F2  |
| Data Size    | 5 bytes |
| Instructions | 3       |

```
      00 01 02 03 04 05 06 07  08 09 0A 0B 0C 0D 0E 0F
      -- -- -- -- -- -- -- --  -- -- -- -- -- -- -- --
04F0:       1D 30 80 23 00                                .0.#.         
```

#### Opcodes

```
  0: 0x04F2 [0x1D] PRINT_EVENT_MESSAGE(message_id=8790*)
    → "One moment pleeze. I'll add a leettle of zis and a leettle of zis and..."
  1: 0x04F5 [0x23] WAIT_FOR_DIALOG_INTERACTION
  2: 0x04F6 [0x00] END_REQSTACK()
```

### Event 65535.38

#### Metadata

| Field        | Value   |
|--------------|---------|
| Entrypoint   | 0x04F7  |
| Data Size    | 9 bytes |
| Instructions | 5       |

```
      00 01 02 03 04 05 06 07  08 09 0A 0B 0C 0D 0E 0F
      -- -- -- -- -- -- -- --  -- -- -- -- -- -- -- --
04F0:                      1D  31 80 23 1D 32 80 23 00         .1.#.2.#.
```

#### Opcodes

```
  0: 0x04F7 [0x1D] PRINT_EVENT_MESSAGE(message_id=8791*)
    → "Voil<Player>`! Zis should get zat chocobo back on his feet again!"
  1: 0x04FA [0x23] WAIT_FOR_DIALOG_INTERACTION
  2: 0x04FB [0x1D] PRINT_EVENT_MESSAGE(message_id=8792*)
    → "Make sure you bring eet to heem while eet's still warm."
  3: 0x04FE [0x23] WAIT_FOR_DIALOG_INTERACTION
  4: 0x04FF [0x00] END_REQSTACK()
```

### Event 557

#### Metadata

| Field        | Value    |
|--------------|----------|
| Entrypoint   | 0x0500   |
| Data Size    | 19 bytes |
| Instructions | 10       |

```
      00 01 02 03 04 05 06 07  08 09 0A 0B 0C 0D 0E 0F
      -- -- -- -- -- -- -- --  -- -- -- -- -- -- -- --
0500: 1E F0 FF FF 7F 6F 70 1D  33 80 23 1D 34 80 23 20  .....op.3.#.4.# 
0510: 00 21 00                                          .!.             
```

#### Opcodes

```
  0: 0x0500 [0x1E] EventEntity looks at LocalPlayer and starts talking
  1: 0x0505 [0x6F] WAIT_FRAME_DELAY: Yield until WaitTime reaches zero
  2: 0x0506 [0x70] WAIT_ENTITY_RENDER_FLAG: Wait while EventEntity->Render.Flags3 bit 2 is set (cancel turn if not)
  3: 0x0507 [0x1D] PRINT_EVENT_MESSAGE(message_id=8793*)
    → "Zat should get our chocobo friend back on his feet again!"
  4: 0x050A [0x23] WAIT_FOR_DIALOG_INTERACTION
  5: 0x050B [0x1D] PRINT_EVENT_MESSAGE(message_id=8794*)
    → "Make sure you serve it to heem while eet's still warm."
  6: 0x050E [0x23] WAIT_FOR_DIALOG_INTERACTION
  7: 0x050F [0x20] SET_CLI_EVENT_UC_FLAG: Unlock player control
  8: 0x0511 [0x21] END_EVENT
  9: 0x0512 [0x00] END_REQSTACK()
```

### Event 978

#### Metadata

| Field        | Value     |
|--------------|-----------|
| Entrypoint   | 0x0513    |
| Data Size    | 388 bytes |
| Instructions | 49        |

```
      00 01 02 03 04 05 06 07  08 09 0A 0B 0C 0D 0E 0F
      -- -- -- -- -- -- -- --  -- -- -- -- -- -- -- --
0510:          42 45 35 80 F8  FF FF 7F F8 FF FF 7F 66     BE5.........f
0520: 64 6F 31 0A 80 55 35 80  F8 FF FF 7F F8 FF FF 7F  do1..U5.........
0530: 66 64 6F 31 46 01 38 36  80 75 00 37 80 75 01 92  fdo1F.86.u.7.u..
0540: 01 4A E0 0E 01 94 01 F0  FF FF 7F 94 01 4A E0 0E  .J...........J..
0550: 01 80 4A E0 0E 01 BA F0  FF FF 7F 38 80 39 80 3A  ..J........8.9.:
0560: 80 3B 80 1C 01 80 45 3C  80 F0 FF FF 7F F0 FF FF  .;....E<........
0570: 7F 7A 7A 7A 7A 0A 80 45  35 80 F0 FF FF 7F F0 FF  .zzzz..E5.......
0580: FF 7F 66 64 69 31 0A 80  1C 3D 80 03 02 10 3E 80  ..fdi1...=....>.
0590: 03 03 10 3F 80 03 04 10  40 80 03 05 10 41 80 1E  ...?....@....A..
05A0: F0 FF FF 7F 2B 4A E0 0E  01 42 80 23 52 3C 80 F0  ....+J...B.#R<..
05B0: FF FF 7F F0 FF FF 7F 7A  7A 7A 7A 45 3C 80 F0 FF  .......zzzzE<...
05C0: FF 7F F0 FF FF 7F 7A 30  30 30 0A 80 66 00 80 F8  ......z000..f...
05D0: FF FF 7F F8 FF FF 7F 74  68 6B 31 2B 4A E0 0E 01  .......thk1+J...
05E0: 43 80 23 2B 4A E0 0E 01  44 80 23 66 00 80 F8 FF  C.#+J...D.#f....
05F0: FF 7F F8 FF FF 7F 74 68  6B 32 2B 4A E0 0E 01 45  ......thk2+J...E
0600: 80 23 52 3C 80 F0 FF FF  7F F0 FF FF 7F 7A 30 30  .#R<.........z00
0610: 30 45 3C 80 F0 FF FF 7F  F0 FF FF 7F 7A 30 30 31  0E<.........z001
0620: 0A 80 66 00 80 F8 FF FF  7F F8 FF FF 7F 74 6C 6B  ..f..........tlk
0630: 30 2B 4A E0 0E 01 46 80  23 2B 4A E0 0E 01 47 80  0+J...F.#+J...G.
0640: 23 66 00 80 F8 FF FF 7F  F8 FF FF 7F 74 6C 6B 31  #f..........tlk1
0650: 1C 3D 80 45 35 80 F8 FF  FF 7F F8 FF FF 7F 66 64  .=.E5.........fd
0660: 6F 31 0A 80 55 35 80 F8  FF FF 7F F8 FF FF 7F 66  o1..U5.........f
0670: 64 6F 31 52 3C 80 F0 FF  FF 7F F0 FF FF 7F 7A 30  do1R<.........z0
0680: 30 31 46 00 45 35 80 F0  FF FF 7F F0 FF FF 7F 66  01F.E5.........f
0690: 64 69 32 0A 80 21 00                              di2..!.         
```

#### Opcodes

```
  0: 0x0513 [0x42] SET_CLI_EVENT_CANCEL_DATA()
  1: 0x0514 [0x45] LOAD_SCHEDULED_TASK: Load scheduler "fdo1" with entities [EventEntity, EventEntity], work=[200*, 0*]
  2: 0x0525 [0x55] WAIT_LOAD_SCHEDULER: Wait for scheduler "fdo1" with entities [EventEntity, EventEntity], work=200*
  3: 0x0534 [0x46] CAMERA_CONTROL: Disable user control
  4: 0x0536 [0x38] SET_CLIENT_EVENT_MODE(mode=19*)
  5: 0x0539 [0x75] LOAD_ROOM(Load indoor room, room=380*)
  6: 0x053D [0x75] LOAD_ROOM(No action)
  7: 0x053F [0x92] Ranpi-Monpi (ID: 17752138/0x010EE04A)->Render.Flags3 ^= 0x01
  8: 0x0545 [0x94] LocalPlayer->Render.Flags3 ^= 0x01
  9: 0x054B [0x94] Ranpi-Monpi (ID: 17752138/0x010EE04A)->Render.Flags3 ^= 0x01
 10: 0x0551 [0x80] LOAD_WAIT(entity=Ranpi-Monpi (ID: 17752138/0x010EE04A))
 11: 0x0556 [0xBA] SET_ENTITY_POSITION(entity_id=LocalPlayer, pos_x=-121.757*, pos_z=60.998*, pos_y=-1.999*, direction=240.5°*)
 12: 0x0563 [0x1C] WAIT(30* ticks)
 13: 0x0566 [0x45] LOAD_SCHEDULED_TASK: Load scheduler "zzzz" with entities [LocalPlayer, LocalPlayer], work=[368*, 0*]
 14: 0x0577 [0x45] LOAD_SCHEDULED_TASK: Load scheduler "fdi1" with entities [LocalPlayer, LocalPlayer], work=[200*, 0*]
 15: 0x0588 [0x1C] WAIT(60* ticks)
 16: 0x058B [0x03] Work_Zone[2] = 5473*
 17: 0x0590 [0x03] Work_Zone[3] = 5661*
 18: 0x0595 [0x03] Work_Zone[4] = 5662*
 19: 0x059A [0x03] Work_Zone[5] = 5660*
 20: 0x059F [0x1E] EventEntity looks at LocalPlayer and starts talking
 21: 0x05A4 [0x2B] Ranpi-Monpi (ID: 17752138/0x010EE04A) [12373*]:
    → "Ooo, come een, come een. Vous have come to cook, non?"
 22: 0x05AB [0x23] WAIT_FOR_DIALOG_INTERACTION
 23: 0x05AC [0x52] END_LOAD_SCHEDULER: End scheduler "zzzz" with entities [LocalPlayer, LocalPlayer], work=368*
 24: 0x05BB [0x45] LOAD_SCHEDULED_TASK: Load scheduler "z000" with entities [LocalPlayer, LocalPlayer], work=[368*, 0*]
 25: 0x05CC [0x66] LOAD_EXT_SCHEDULER_MAIN: Load scheduler "thk1" with entities [EventEntity, EventEntity], work=40*
 26: 0x05DB [0x2B] Ranpi-Monpi (ID: 17752138/0x010EE04A) [12374*]:
    → "What's zat? Do I know of any unique and extraordinarily new delectable foods?"
 27: 0x05E2 [0x23] WAIT_FOR_DIALOG_INTERACTION
 28: 0x05E3 [0x2B] Ranpi-Monpi (ID: 17752138/0x010EE04A) [12375*]:
    → "Vous know, I may be zee only chef in Vana'diel with zee verve and zee vision to make such an innovative and unorzodox deesh."
 29: 0x05EA [0x23] WAIT_FOR_DIALOG_INTERACTION
 30: 0x05EB [0x66] LOAD_EXT_SCHEDULER_MAIN: Load scheduler "thk2" with entities [EventEntity, EventEntity], work=40*
 31: 0x05FA [0x2B] Ranpi-Monpi (ID: 17752138/0x010EE04A) [12376*]:
    → "And I will prepare such a deesh, just pour vous. But, eet will require some rare ingredients zat vous must bring moi. C'est bien, non?"
 32: 0x0601 [0x23] WAIT_FOR_DIALOG_INTERACTION
 33: 0x0602 [0x52] END_LOAD_SCHEDULER: End scheduler "z000" with entities [LocalPlayer, LocalPlayer], work=368*
 34: 0x0611 [0x45] LOAD_SCHEDULED_TASK: Load scheduler "z001" with entities [LocalPlayer, LocalPlayer], work=[368*, 0*]
 35: 0x0622 [0x66] LOAD_EXT_SCHEDULER_MAIN: Load scheduler "tlk0" with entities [EventEntity, EventEntity], work=40*
 36: 0x0631 [0x2B] Ranpi-Monpi (ID: 17752138/0x010EE04A) [12377*]:
    → "Hmmm, I shall need $0 and $1... Ah yes, and also $2 and $3."
 37: 0x0638 [0x23] WAIT_FOR_DIALOG_INTERACTION
 38: 0x0639 [0x2B] Ranpi-Monpi (ID: 17752138/0x010EE04A) [12378*]:
    → "Bring zese ingredients to moi once vous have zem all, and voila! I shall turn zem into an absolute culinary masterpiece."
 39: 0x0640 [0x23] WAIT_FOR_DIALOG_INTERACTION
 40: 0x0641 [0x66] LOAD_EXT_SCHEDULER_MAIN: Load scheduler "tlk1" with entities [EventEntity, EventEntity], work=40*
 41: 0x0650 [0x1C] WAIT(60* ticks)
 42: 0x0653 [0x45] LOAD_SCHEDULED_TASK: Load scheduler "fdo1" with entities [EventEntity, EventEntity], work=[200*, 0*]
 43: 0x0664 [0x55] WAIT_LOAD_SCHEDULER: Wait for scheduler "fdo1" with entities [EventEntity, EventEntity], work=200*
 44: 0x0673 [0x52] END_LOAD_SCHEDULER: End scheduler "z001" with entities [LocalPlayer, LocalPlayer], work=368*
 45: 0x0682 [0x46] CAMERA_CONTROL: Restore default settings
 46: 0x0684 [0x45] LOAD_SCHEDULED_TASK: Load scheduler "fdi2" with entities [LocalPlayer, LocalPlayer], work=[200*, 0*]
 47: 0x0695 [0x21] END_EVENT
 48: 0x0696 [0x00] END_REQSTACK()
```

### Event 983

#### Metadata

| Field        | Value     |
|--------------|-----------|
| Entrypoint   | 0x0697    |
| Data Size    | 242 bytes |
| Instructions | 31        |

```
      00 01 02 03 04 05 06 07  08 09 0A 0B 0C 0D 0E 0F
      -- -- -- -- -- -- -- --  -- -- -- -- -- -- -- --
0690:                      42  45 35 80 F8 FF FF 7F F8         BE5......
06A0: FF FF 7F 66 64 6F 31 0A  80 55 35 80 F8 FF FF 7F  ...fdo1..U5.....
06B0: F8 FF FF 7F 66 64 6F 31  46 01 38 36 80 92 01 4A  ....fdo1F.86...J
06C0: E0 0E 01 75 00 37 80 75  01 94 01 F0 FF FF 7F 94  ...u.7.u........
06D0: 01 4A E0 0E 01 80 4A E0  0E 01 BA F0 FF FF 7F 38  .J....J........8
06E0: 80 39 80 3A 80 3B 80 1C  01 80 45 3C 80 F0 FF FF  .9.:.;....E<....
06F0: 7F F0 FF FF 7F 7A 30 30  30 0A 80 45 35 80 F0 FF  .....z000..E5...
0700: FF 7F F0 FF FF 7F 66 64  69 31 0A 80 1E F0 FF FF  ......fdi1......
0710: 7F 1C 3D 80 66 00 80 F8  FF FF 7F F8 FF FF 7F 74  ..=.f..........t
0720: 6C 6B 30 2B 4A E0 0E 01  48 80 23 2B 4A E0 0E 01  lk0+J...H.#+J...
0730: 49 80 23 66 00 80 F8 FF  FF 7F F8 FF FF 7F 74 6C  I.#f..........tl
0740: 6B 31 1C 3D 80 45 35 80  F8 FF FF 7F F8 FF FF 7F  k1.=.E5.........
0750: 66 64 6F 31 0A 80 55 35  80 F8 FF FF 7F F8 FF FF  fdo1..U5........
0760: 7F 66 64 6F 31 52 3C 80  F0 FF FF 7F F0 FF FF 7F  .fdo1R<.........
0770: 7A 30 30 30 46 00 45 35  80 F0 FF FF 7F F0 FF FF  z000F.E5........
0780: 7F 66 64 69 32 0A 80 21  00                       .fdi2..!.       
```

#### Opcodes

```
  0: 0x0697 [0x42] SET_CLI_EVENT_CANCEL_DATA()
  1: 0x0698 [0x45] LOAD_SCHEDULED_TASK: Load scheduler "fdo1" with entities [EventEntity, EventEntity], work=[200*, 0*]
  2: 0x06A9 [0x55] WAIT_LOAD_SCHEDULER: Wait for scheduler "fdo1" with entities [EventEntity, EventEntity], work=200*
  3: 0x06B8 [0x46] CAMERA_CONTROL: Disable user control
  4: 0x06BA [0x38] SET_CLIENT_EVENT_MODE(mode=19*)
  5: 0x06BD [0x92] Ranpi-Monpi (ID: 17752138/0x010EE04A)->Render.Flags3 ^= 0x01
  6: 0x06C3 [0x75] LOAD_ROOM(Load indoor room, room=380*)
  7: 0x06C7 [0x75] LOAD_ROOM(No action)
  8: 0x06C9 [0x94] LocalPlayer->Render.Flags3 ^= 0x01
  9: 0x06CF [0x94] Ranpi-Monpi (ID: 17752138/0x010EE04A)->Render.Flags3 ^= 0x01
 10: 0x06D5 [0x80] LOAD_WAIT(entity=Ranpi-Monpi (ID: 17752138/0x010EE04A))
 11: 0x06DA [0xBA] SET_ENTITY_POSITION(entity_id=LocalPlayer, pos_x=-121.757*, pos_z=60.998*, pos_y=-1.999*, direction=240.5°*)
 12: 0x06E7 [0x1C] WAIT(30* ticks)
 13: 0x06EA [0x45] LOAD_SCHEDULED_TASK: Load scheduler "z000" with entities [LocalPlayer, LocalPlayer], work=[368*, 0*]
 14: 0x06FB [0x45] LOAD_SCHEDULED_TASK: Load scheduler "fdi1" with entities [LocalPlayer, LocalPlayer], work=[200*, 0*]
 15: 0x070C [0x1E] EventEntity looks at LocalPlayer and starts talking
 16: 0x0711 [0x1C] WAIT(60* ticks)
 17: 0x0714 [0x66] LOAD_EXT_SCHEDULER_MAIN: Load scheduler "tlk0" with entities [EventEntity, EventEntity], work=40*
 18: 0x0723 [0x2B] Ranpi-Monpi (ID: 17752138/0x010EE04A) [12380*]:
    → "Hm? Vous have brought all of zee ingredients? Magnifique!"
 19: 0x072A [0x23] WAIT_FOR_DIALOG_INTERACTION
 20: 0x072B [0x2B] Ranpi-Monpi (ID: 17752138/0x010EE04A) [12381*]:
    → "I will begin preparing zee deesh right away! Give me just a little bit of time, pleeze. Vous cannot rush art, mon ami."
 21: 0x0732 [0x23] WAIT_FOR_DIALOG_INTERACTION
 22: 0x0733 [0x66] LOAD_EXT_SCHEDULER_MAIN: Load scheduler "tlk1" with entities [EventEntity, EventEntity], work=40*
 23: 0x0742 [0x1C] WAIT(60* ticks)
 24: 0x0745 [0x45] LOAD_SCHEDULED_TASK: Load scheduler "fdo1" with entities [EventEntity, EventEntity], work=[200*, 0*]
 25: 0x0756 [0x55] WAIT_LOAD_SCHEDULER: Wait for scheduler "fdo1" with entities [EventEntity, EventEntity], work=200*
 26: 0x0765 [0x52] END_LOAD_SCHEDULER: End scheduler "z000" with entities [LocalPlayer, LocalPlayer], work=368*
 27: 0x0774 [0x46] CAMERA_CONTROL: Restore default settings
 28: 0x0776 [0x45] LOAD_SCHEDULED_TASK: Load scheduler "fdi2" with entities [LocalPlayer, LocalPlayer], work=[200*, 0*]
 29: 0x0787 [0x21] END_EVENT
 30: 0x0788 [0x00] END_REQSTACK()
```

### Event 980

#### Metadata

| Field        | Value     |
|--------------|-----------|
| Entrypoint   | 0x0789    |
| Data Size    | 305 bytes |
| Instructions | 40        |

```
      00 01 02 03 04 05 06 07  08 09 0A 0B 0C 0D 0E 0F
      -- -- -- -- -- -- -- --  -- -- -- -- -- -- -- --
0780:                             42 45 35 80 F8 FF FF           BE5....
0790: 7F F8 FF FF 7F 66 64 6F  31 0A 80 55 35 80 F8 FF  .....fdo1..U5...
07A0: FF 7F F8 FF FF 7F 66 64  6F 31 46 01 38 36 80 92  ......fdo1F.86..
07B0: 01 4A E0 0E 01 75 00 37  80 75 01 94 01 F0 FF FF  .J...u.7.u......
07C0: 7F 94 01 4A E0 0E 01 80  4A E0 0E 01 BA F0 FF FF  ...J....J.......
07D0: 7F 38 80 39 80 3A 80 3B  80 1C 01 80 45 3C 80 F0  .8.9.:.;....E<..
07E0: FF FF 7F F0 FF FF 7F 7A  30 30 30 0A 80 45 35 80  .......z000..E5.
07F0: F0 FF FF 7F F0 FF FF 7F  66 64 69 31 0A 80 1E F0  ........fdi1....
0800: FF FF 7F 1C 3D 80 66 00  80 F8 FF FF 7F F8 FF FF  ....=.f.........
0810: 7F 74 6C 6B 30 03 02 10  4A 80 2B 4A E0 0E 01 4B  .tlk0...J.+J...K
0820: 80 23 2B 4A E0 0E 01 4C  80 23 66 00 80 F8 FF FF  .#+J...L.#f.....
0830: 7F F8 FF FF 7F 74 6C 6B  31 52 3C 80 F0 FF FF 7F  .....tlk1R<.....
0840: F0 FF FF 7F 7A 30 30 30  45 3C 80 F0 FF FF 7F F0  ....z000E<......
0850: FF FF 7F 7A 30 30 32 0A  80 48 4D 80 1C 3D 80 6E  ...z002..HM..=.n
0860: F8 FF FF 7F 4E 80 99 F8  FF FF 7F 2B 4A E0 0E 01  ....N......+J...
0870: 4F 80 23 1C 3D 80 45 35  80 F8 FF FF 7F F8 FF FF  O.#.=.E5........
0880: 7F 66 64 6F 31 0A 80 55  35 80 F8 FF FF 7F F8 FF  .fdo1..U5.......
0890: FF 7F 66 64 6F 31 52 3C  80 F0 FF FF 7F F0 FF FF  ..fdo1R<........
08A0: 7F 7A 30 30 32 46 00 45  35 80 F0 FF FF 7F F0 FF  .z002F.E5.......
08B0: FF 7F 66 64 69 32 0A 80  21 00                    ..fdi2..!.      
```

#### Opcodes

```
  0: 0x0789 [0x42] SET_CLI_EVENT_CANCEL_DATA()
  1: 0x078A [0x45] LOAD_SCHEDULED_TASK: Load scheduler "fdo1" with entities [EventEntity, EventEntity], work=[200*, 0*]
  2: 0x079B [0x55] WAIT_LOAD_SCHEDULER: Wait for scheduler "fdo1" with entities [EventEntity, EventEntity], work=200*
  3: 0x07AA [0x46] CAMERA_CONTROL: Disable user control
  4: 0x07AC [0x38] SET_CLIENT_EVENT_MODE(mode=19*)
  5: 0x07AF [0x92] Ranpi-Monpi (ID: 17752138/0x010EE04A)->Render.Flags3 ^= 0x01
  6: 0x07B5 [0x75] LOAD_ROOM(Load indoor room, room=380*)
  7: 0x07B9 [0x75] LOAD_ROOM(No action)
  8: 0x07BB [0x94] LocalPlayer->Render.Flags3 ^= 0x01
  9: 0x07C1 [0x94] Ranpi-Monpi (ID: 17752138/0x010EE04A)->Render.Flags3 ^= 0x01
 10: 0x07C7 [0x80] LOAD_WAIT(entity=Ranpi-Monpi (ID: 17752138/0x010EE04A))
 11: 0x07CC [0xBA] SET_ENTITY_POSITION(entity_id=LocalPlayer, pos_x=-121.757*, pos_z=60.998*, pos_y=-1.999*, direction=240.5°*)
 12: 0x07D9 [0x1C] WAIT(30* ticks)
 13: 0x07DC [0x45] LOAD_SCHEDULED_TASK: Load scheduler "z000" with entities [LocalPlayer, LocalPlayer], work=[368*, 0*]
 14: 0x07ED [0x45] LOAD_SCHEDULED_TASK: Load scheduler "fdi1" with entities [LocalPlayer, LocalPlayer], work=[200*, 0*]
 15: 0x07FE [0x1E] EventEntity looks at LocalPlayer and starts talking
 16: 0x0803 [0x1C] WAIT(60* ticks)
 17: 0x0806 [0x66] LOAD_EXT_SCHEDULER_MAIN: Load scheduler "tlk0" with entities [EventEntity, EventEntity], work=40*
 18: 0x0815 [0x03] Work_Zone[2] = 954*
 19: 0x081A [0x2B] Ranpi-Monpi (ID: 17752138/0x010EE04A) [12383*]:
    → "Ooo, zere vous are! I have been waiting pour vous. Zis is zee special deesh which you requested, $6! Bon appetit!"
 20: 0x0821 [0x23] WAIT_FOR_DIALOG_INTERACTION
 21: 0x0822 [0x2B] Ranpi-Monpi (ID: 17752138/0x010EE04A) [12384*]:
    → "Zis is a classic recipe I have not used in years. I may have forgotten some of zee finer points, but zee taste alone I still remember."
 22: 0x0829 [0x23] WAIT_FOR_DIALOG_INTERACTION
 23: 0x082A [0x66] LOAD_EXT_SCHEDULER_MAIN: Load scheduler "tlk1" with entities [EventEntity, EventEntity], work=40*
 24: 0x0839 [0x52] END_LOAD_SCHEDULER: End scheduler "z000" with entities [LocalPlayer, LocalPlayer], work=368*
 25: 0x0848 [0x45] LOAD_SCHEDULED_TASK: Load scheduler "z002" with entities [LocalPlayer, LocalPlayer], work=[368*, 0*]
 26: 0x0859 [0x48] [System] [12385*]:
    → "The dish's presentation is difficult to put into words..."
 27: 0x085C [0x1C] WAIT(60* ticks)
 28: 0x085F [0x6E] EventEntity uses emote 29*
 29: 0x0866 [0x99] Wait for EventEntity animation to complete
 30: 0x086B [0x2B] Ranpi-Monpi (ID: 17752138/0x010EE04A) [12386*]:
    → "Eet may not be zee most beautiful deesh, but zat eez no matter! I gladly stake my reputation on eets taste!"
 31: 0x0872 [0x23] WAIT_FOR_DIALOG_INTERACTION
 32: 0x0873 [0x1C] WAIT(60* ticks)
 33: 0x0876 [0x45] LOAD_SCHEDULED_TASK: Load scheduler "fdo1" with entities [EventEntity, EventEntity], work=[200*, 0*]
 34: 0x0887 [0x55] WAIT_LOAD_SCHEDULER: Wait for scheduler "fdo1" with entities [EventEntity, EventEntity], work=200*
 35: 0x0896 [0x52] END_LOAD_SCHEDULER: End scheduler "z002" with entities [LocalPlayer, LocalPlayer], work=368*
 36: 0x08A5 [0x46] CAMERA_CONTROL: Restore default settings
 37: 0x08A7 [0x45] LOAD_SCHEDULED_TASK: Load scheduler "fdi2" with entities [LocalPlayer, LocalPlayer], work=[200*, 0*]
 38: 0x08B8 [0x21] END_EVENT
 39: 0x08B9 [0x00] END_REQSTACK()
```

### Event 981

#### Metadata

| Field        | Value     |
|--------------|-----------|
| Entrypoint   | 0x08BA    |
| Data Size    | 520 bytes |
| Instructions | 59        |

```
      00 01 02 03 04 05 06 07  08 09 0A 0B 0C 0D 0E 0F
      -- -- -- -- -- -- -- --  -- -- -- -- -- -- -- --
08B0:                                42 45 35 80 F8 FF            BE5...
08C0: FF 7F F8 FF FF 7F 66 64  6F 31 0A 80 55 35 80 F8  ......fdo1..U5..
08D0: FF FF 7F F8 FF FF 7F 66  64 6F 31 46 01 38 36 80  .......fdo1F.86.
08E0: 92 01 4A E0 0E 01 75 00  37 80 75 01 94 01 F0 FF  ..J...u.7.u.....
08F0: FF 7F 94 01 4A E0 0E 01  80 4A E0 0E 01 BA F0 FF  ....J....J......
0900: FF 7F 38 80 39 80 3A 80  3B 80 1C 01 80 45 3C 80  ..8.9.:.;....E<.
0910: F0 FF FF 7F F0 FF FF 7F  7A 7A 7A 7A 0A 80 45 35  ........zzzz..E5
0920: 80 F0 FF FF 7F F0 FF FF  7F 66 64 69 31 0A 80 1E  .........fdi1...
0930: F0 FF FF 7F 1C 3D 80 03  02 10 4A 80 2B 4A E0 0E  .....=....J.+J..
0940: 01 50 80 23 52 3C 80 F0  FF FF 7F F0 FF FF 7F 7A  .P.#R<.........z
0950: 7A 7A 7A 45 3C 80 F0 FF  FF 7F F0 FF FF 7F 7A 30  zzzE<.........z0
0960: 30 33 0A 80 66 00 80 F8  FF FF 7F F8 FF FF 7F 74  03..f..........t
0970: 68 6B 31 2B 4A E0 0E 01  51 80 23 2B 4A E0 0E 01  hk1+J...Q.#+J...
0980: 52 80 23 66 00 80 F8 FF  FF 7F F8 FF FF 7F 74 68  R.#f..........th
0990: 6B 32 52 3C 80 F0 FF FF  7F F0 FF FF 7F 7A 30 30  k2R<.........z00
09A0: 33 45 3C 80 F0 FF FF 7F  F0 FF FF 7F 7A 30 30 31  3E<.........z001
09B0: 0A 80 2B 4A E0 0E 01 53  80 23 2B 4A E0 0E 01 54  ..+J...S.#+J...T
09C0: 80 23 1C 3D 80 45 35 80  F8 FF FF 7F F8 FF FF 7F  .#.=.E5.........
09D0: 66 64 6F 31 0A 80 55 35  80 F8 FF FF 7F F8 FF FF  fdo1..U5........
09E0: 7F 66 64 6F 31 52 3C 80  F0 FF FF 7F F0 FF FF 7F  .fdo1R<.........
09F0: 7A 30 30 31 1C 3D 80 45  3C 80 F0 FF FF 7F F0 FF  z001.=.E<.......
0A00: FF 7F 7A 7A 7A 7A 0A 80  45 35 80 F0 FF FF 7F F0  ..zzzz..E5......
0A10: FF FF 7F 66 64 69 31 0A  80 1C 01 80 66 00 80 F8  ...fdi1.....f...
0A20: FF FF 7F F8 FF FF 7F 70  61 73 30 2B 4A E0 0E 01  .......pas0+J...
0A30: 55 80 23 52 3C 80 F0 FF  FF 7F F0 FF FF 7F 7A 7A  U.#R<.........zz
0A40: 7A 7A 45 3C 80 F0 FF FF  7F F0 FF FF 7F 7A 30 30  zzE<.........z00
0A50: 34 0A 80 66 00 80 F8 FF  FF 7F F8 FF FF 7F 74 6C  4..f..........tl
0A60: 6B 30 2B 4A E0 0E 01 56  80 23 1C 3D 80 45 35 80  k0+J...V.#.=.E5.
0A70: F8 FF FF 7F F8 FF FF 7F  66 64 6F 31 0A 80 55 35  ........fdo1..U5
0A80: 80 F8 FF FF 7F F8 FF FF  7F 66 64 6F 31 52 3C 80  .........fdo1R<.
0A90: F0 FF FF 7F F0 FF FF 7F  7A 30 30 34 46 00 45 24  ........z004F.E$
0AA0: 80 F8 FF FF 7F F8 FF FF  7F 71 73 74 63 0A 80 45  .........qstc..E
0AB0: 35 80 F0 FF FF 7F F0 FF  FF 7F 66 64 69 32 0A 80  5.........fdi2..
0AC0: 21 00                                             !.              
```

#### Opcodes

```
  0: 0x08BA [0x42] SET_CLI_EVENT_CANCEL_DATA()
  1: 0x08BB [0x45] LOAD_SCHEDULED_TASK: Load scheduler "fdo1" with entities [EventEntity, EventEntity], work=[200*, 0*]
  2: 0x08CC [0x55] WAIT_LOAD_SCHEDULER: Wait for scheduler "fdo1" with entities [EventEntity, EventEntity], work=200*
  3: 0x08DB [0x46] CAMERA_CONTROL: Disable user control
  4: 0x08DD [0x38] SET_CLIENT_EVENT_MODE(mode=19*)
  5: 0x08E0 [0x92] Ranpi-Monpi (ID: 17752138/0x010EE04A)->Render.Flags3 ^= 0x01
  6: 0x08E6 [0x75] LOAD_ROOM(Load indoor room, room=380*)
  7: 0x08EA [0x75] LOAD_ROOM(No action)
  8: 0x08EC [0x94] LocalPlayer->Render.Flags3 ^= 0x01
  9: 0x08F2 [0x94] Ranpi-Monpi (ID: 17752138/0x010EE04A)->Render.Flags3 ^= 0x01
 10: 0x08F8 [0x80] LOAD_WAIT(entity=Ranpi-Monpi (ID: 17752138/0x010EE04A))
 11: 0x08FD [0xBA] SET_ENTITY_POSITION(entity_id=LocalPlayer, pos_x=-121.757*, pos_z=60.998*, pos_y=-1.999*, direction=240.5°*)
 12: 0x090A [0x1C] WAIT(30* ticks)
 13: 0x090D [0x45] LOAD_SCHEDULED_TASK: Load scheduler "zzzz" with entities [LocalPlayer, LocalPlayer], work=[368*, 0*]
 14: 0x091E [0x45] LOAD_SCHEDULED_TASK: Load scheduler "fdi1" with entities [LocalPlayer, LocalPlayer], work=[200*, 0*]
 15: 0x092F [0x1E] EventEntity looks at LocalPlayer and starts talking
 16: 0x0934 [0x1C] WAIT(60* ticks)
 17: 0x0937 [0x03] Work_Zone[2] = 954*
 18: 0x093C [0x2B] Ranpi-Monpi (ID: 17752138/0x010EE04A) [12387*]:
    → "Bonjour! And how was zee $3 I made pour vous? Delicious, non?"
 19: 0x0943 [0x23] WAIT_FOR_DIALOG_INTERACTION
 20: 0x0944 [0x52] END_LOAD_SCHEDULER: End scheduler "zzzz" with entities [LocalPlayer, LocalPlayer], work=368*
 21: 0x0953 [0x45] LOAD_SCHEDULED_TASK: Load scheduler "z003" with entities [LocalPlayer, LocalPlayer], work=[368*, 0*]
 22: 0x0964 [0x66] LOAD_EXT_SCHEDULER_MAIN: Load scheduler "thk1" with entities [EventEntity, EventEntity], work=40*
 23: 0x0973 [0x2B] Ranpi-Monpi (ID: 17752138/0x010EE04A) [12388*]:
    → "Eez zat a knife vous have zere? Ooo, zat takes moi back. I use to have a a piece of cutlery just like zat a long time ago."
 24: 0x097A [0x23] WAIT_FOR_DIALOG_INTERACTION
 25: 0x097B [0x2B] Ranpi-Monpi (ID: 17752138/0x010EE04A) [12389*]:
    → "Back zen I never would have imagined zat zings would turn out like zey have. C'est la vie, non?"
 26: 0x0982 [0x23] WAIT_FOR_DIALOG_INTERACTION
 27: 0x0983 [0x66] LOAD_EXT_SCHEDULER_MAIN: Load scheduler "thk2" with entities [EventEntity, EventEntity], work=40*
 28: 0x0992 [0x52] END_LOAD_SCHEDULER: End scheduler "z003" with entities [LocalPlayer, LocalPlayer], work=368*
 29: 0x09A1 [0x45] LOAD_SCHEDULED_TASK: Load scheduler "z001" with entities [LocalPlayer, LocalPlayer], work=[368*, 0*]
 30: 0x09B2 [0x2B] Ranpi-Monpi (ID: 17752138/0x010EE04A) [12390*]:
    → "But zat knife has no edge. Such a dull blade eez unfit for use! Who has been using zis knife and neglecting eet so?"
 31: 0x09B9 [0x23] WAIT_FOR_DIALOG_INTERACTION
 32: 0x09BA [0x2B] Ranpi-Monpi (ID: 17752138/0x010EE04A) [12391*]:
    → "Wait zere just a moment. I will sharpen eet just pour vous!"
 33: 0x09C1 [0x23] WAIT_FOR_DIALOG_INTERACTION
 34: 0x09C2 [0x1C] WAIT(60* ticks)
 35: 0x09C5 [0x45] LOAD_SCHEDULED_TASK: Load scheduler "fdo1" with entities [EventEntity, EventEntity], work=[200*, 0*]
 36: 0x09D6 [0x55] WAIT_LOAD_SCHEDULER: Wait for scheduler "fdo1" with entities [EventEntity, EventEntity], work=200*
 37: 0x09E5 [0x52] END_LOAD_SCHEDULER: End scheduler "z001" with entities [LocalPlayer, LocalPlayer], work=368*
 38: 0x09F4 [0x1C] WAIT(60* ticks)
 39: 0x09F7 [0x45] LOAD_SCHEDULED_TASK: Load scheduler "zzzz" with entities [LocalPlayer, LocalPlayer], work=[368*, 0*]
 40: 0x0A08 [0x45] LOAD_SCHEDULED_TASK: Load scheduler "fdi1" with entities [LocalPlayer, LocalPlayer], work=[200*, 0*]
 41: 0x0A19 [0x1C] WAIT(30* ticks)
 42: 0x0A1C [0x66] LOAD_EXT_SCHEDULER_MAIN: Load scheduler "pas0" with entities [EventEntity, EventEntity], work=40*
 43: 0x0A2B [0x2B] Ranpi-Monpi (ID: 17752138/0x010EE04A) [12392*]:
    → "Vous see? Good as new, non?"
 44: 0x0A32 [0x23] WAIT_FOR_DIALOG_INTERACTION
 45: 0x0A33 [0x52] END_LOAD_SCHEDULER: End scheduler "zzzz" with entities [LocalPlayer, LocalPlayer], work=368*
 46: 0x0A42 [0x45] LOAD_SCHEDULED_TASK: Load scheduler "z004" with entities [LocalPlayer, LocalPlayer], work=[368*, 0*]
 47: 0x0A53 [0x66] LOAD_EXT_SCHEDULER_MAIN: Load scheduler "tlk0" with entities [EventEntity, EventEntity], work=40*
 48: 0x0A62 [0x2B] Ranpi-Monpi (ID: 17752138/0x010EE04A) [12393*]:
    → "Cooking eez a form of love. Vous must want to bring happiness to people through zee food. And eet eez important to love zee tools zat vous use. Take good care of zat knife from now on."
 49: 0x0A69 [0x23] WAIT_FOR_DIALOG_INTERACTION
 50: 0x0A6A [0x1C] WAIT(60* ticks)
 51: 0x0A6D [0x45] LOAD_SCHEDULED_TASK: Load scheduler "fdo1" with entities [EventEntity, EventEntity], work=[200*, 0*]
 52: 0x0A7E [0x55] WAIT_LOAD_SCHEDULER: Wait for scheduler "fdo1" with entities [EventEntity, EventEntity], work=200*
 53: 0x0A8D [0x52] END_LOAD_SCHEDULER: End scheduler "z004" with entities [LocalPlayer, LocalPlayer], work=368*
 54: 0x0A9C [0x46] CAMERA_CONTROL: Restore default settings
 55: 0x0A9E [0x45] LOAD_SCHEDULED_TASK: Load scheduler "qstc" with entities [EventEntity, EventEntity], work=[201*, 0*]
 56: 0x0AAF [0x45] LOAD_SCHEDULED_TASK: Load scheduler "fdi2" with entities [LocalPlayer, LocalPlayer], work=[200*, 0*]
 57: 0x0AC0 [0x21] END_EVENT
 58: 0x0AC1 [0x00] END_REQSTACK()
```

### Event 979

#### Metadata

| Field        | Value    |
|--------------|----------|
| Entrypoint   | 0x0AC2   |
| Data Size    | 38 bytes |
| Instructions | 10       |

```
      00 01 02 03 04 05 06 07  08 09 0A 0B 0C 0D 0E 0F
      -- -- -- -- -- -- -- --  -- -- -- -- -- -- -- --
0AC0:       1E F0 FF FF 7F 1C  01 80 03 02 10 3E 80 03    ...........>..
0AD0: 03 10 3F 80 03 04 10 40  80 03 05 10 41 80 2B 4A  ..?....@....A.+J
0AE0: E0 0E 01 57 80 23 21 00                           ...W.#!.        
```

#### Opcodes

```
  0: 0x0AC2 [0x1E] EventEntity looks at LocalPlayer and starts talking
  1: 0x0AC7 [0x1C] WAIT(30* ticks)
  2: 0x0ACA [0x03] Work_Zone[2] = 5473*
  3: 0x0ACF [0x03] Work_Zone[3] = 5661*
  4: 0x0AD4 [0x03] Work_Zone[4] = 5662*
  5: 0x0AD9 [0x03] Work_Zone[5] = 5660*
  6: 0x0ADE [0x2B] Ranpi-Monpi (ID: 17752138/0x010EE04A) [12379*]:
    → "Do not forget zee ingredients! I require $0, $1, $2, and $3."
  7: 0x0AE5 [0x23] WAIT_FOR_DIALOG_INTERACTION
  8: 0x0AE6 [0x21] END_EVENT
  9: 0x0AE7 [0x00] END_REQSTACK()
```

### Event 982

#### Metadata

| Field        | Value    |
|--------------|----------|
| Entrypoint   | 0x0AE8   |
| Data Size    | 18 bytes |
| Instructions | 6        |

```
      00 01 02 03 04 05 06 07  08 09 0A 0B 0C 0D 0E 0F
      -- -- -- -- -- -- -- --  -- -- -- -- -- -- -- --
0AE0:                          1E F0 FF FF 7F 1C 01 80          ........
0AF0: 2B 4A E0 0E 01 58 80 23  21 00                    +J...X.#!.      
```

#### Opcodes

```
  0: 0x0AE8 [0x1E] EventEntity looks at LocalPlayer and starts talking
  1: 0x0AED [0x1C] WAIT(30* ticks)
  2: 0x0AF0 [0x2B] Ranpi-Monpi (ID: 17752138/0x010EE04A) [12382*]:
    → "Non non, vous have returned much too soon. Zese zings take time. Patience eez a virtue!"
  3: 0x0AF7 [0x23] WAIT_FOR_DIALOG_INTERACTION
  4: 0x0AF8 [0x21] END_EVENT
  5: 0x0AF9 [0x00] END_REQSTACK()
```

### Event 985

#### Metadata

| Field        | Value    |
|--------------|----------|
| Entrypoint   | 0x0AFA   |
| Data Size    | 18 bytes |
| Instructions | 6        |

```
      00 01 02 03 04 05 06 07  08 09 0A 0B 0C 0D 0E 0F
      -- -- -- -- -- -- -- --  -- -- -- -- -- -- -- --
0AF0:                                1E F0 FF FF 7F 1C            ......
0B00: 01 80 2B 4A E0 0E 01 4F  80 23 21 00              ..+J...O.#!.    
```

#### Opcodes

```
  0: 0x0AFA [0x1E] EventEntity looks at LocalPlayer and starts talking
  1: 0x0AFF [0x1C] WAIT(30* ticks)
  2: 0x0B02 [0x2B] Ranpi-Monpi (ID: 17752138/0x010EE04A) [12386*]:
    → "Eet may not be zee most beautiful deesh, but zat eez no matter! I gladly stake my reputation on eets taste!"
  3: 0x0B09 [0x23] WAIT_FOR_DIALOG_INTERACTION
  4: 0x0B0A [0x21] END_EVENT
  5: 0x0B0B [0x00] END_REQSTACK()
```

### Event 1020

#### Metadata

| Field        | Value    |
|--------------|----------|
| Entrypoint   | 0x0B0C   |
| Data Size    | 51 bytes |
| Instructions | 18       |

```
      00 01 02 03 04 05 06 07  08 09 0A 0B 0C 0D 0E 0F
      -- -- -- -- -- -- -- --  -- -- -- -- -- -- -- --
0B00:                                      42 1E F0 FF              B...
0B10: FF 7F 1C 01 80 02 03 10  0A 80 00 39 0B 1D 59 80  ...........9..Y.
0B20: 23 1D 5A 80 23 1D 5B 80  23 6E F8 FF FF 7F 5C 80  #.Z.#.[.#n....\.
0B30: 99 F8 FF FF 7F 1D 5D 80  23 1D 5E 80 23 21 00     ......].#.^.#!. 
```

#### Opcodes

```
  0: 0x0B0C [0x42] SET_CLI_EVENT_CANCEL_DATA()
  1: 0x0B0D [0x1E] EventEntity looks at LocalPlayer and starts talking
  2: 0x0B12 [0x1C] WAIT(30* ticks)
  3: 0x0B15 [0x02] IF !(Work_Zone[3] == 0*) GOTO 0x0B39
  4: 0x0B1D [0x1D] PRINT_EVENT_MESSAGE(message_id=12397*)
    → "Ze what? You are looking to buy a new stewpot, you zay?"
  5: 0x0B20 [0x23] WAIT_FOR_DIALOG_INTERACTION
  6: 0x0B21 [0x1D] PRINT_EVENT_MESSAGE(message_id=12398*)
    → "Mon dieu! Zat ees one hole tres gigantique!"
  7: 0x0B24 [0x23] WAIT_FOR_DIALOG_INTERACTION
  8: 0x0B25 [0x1D] PRINT_EVENT_MESSAGE(message_id=12399*)
    → "But zere ees no need for panique! Mais non! Ze ezteemed Ranpi-Monpi will feex it up for you, good as nouveau!"
  9: 0x0B28 [0x23] WAIT_FOR_DIALOG_INTERACTION
 10: 0x0B29 [0x6E] EventEntity uses emote 7*
 11: 0x0B30 [0x99] Wait for EventEntity animation to complete
 12: 0x0B35 [0x1D] PRINT_EVENT_MESSAGE(message_id=12400*)
    → "Zat will zave you beaucoup gil, certainmentaru! Hohoho!"
 13: 0x0B38 [0x23] WAIT_FOR_DIALOG_INTERACTION
 14: 0x0B39 [0x1D] PRINT_EVENT_MESSAGE(message_id=12401*)
    → "Ze only thing I weel be needing ees une bouteille de pate Sieglinde. Oui, $0, I said. Ees your oreilles ze stuffed with ze popotoes!?"
 15: 0x0B3C [0x23] WAIT_FOR_DIALOG_INTERACTION
 16: 0x0B3D [0x21] END_EVENT
 17: 0x0B3E [0x00] END_REQSTACK()
```

### Event 1021

#### Metadata

| Field        | Value    |
|--------------|----------|
| Entrypoint   | 0x0B3F   |
| Data Size    | 86 bytes |
| Instructions | 14       |

```
      00 01 02 03 04 05 06 07  08 09 0A 0B 0C 0D 0E 0F
      -- -- -- -- -- -- -- --  -- -- -- -- -- -- -- --
0B30:                                               42                 B
0B40: 1E F0 FF FF 7F 1C 01 80  1D 5F 80 23 45 35 80 F0  ........._.#E5..
0B50: FF FF 7F F0 FF FF 7F 66  64 6F 31 0A 80 55 35 80  .......fdo1..U5.
0B60: F0 FF FF 7F F0 FF FF 7F  66 64 6F 31 1C 60 80 45  ........fdo1.`.E
0B70: 35 80 F0 FF FF 7F F0 FF  FF 7F 66 64 69 30 0A 80  5.........fdi0..
0B80: 55 35 80 F0 FF FF 7F F0  FF FF 7F 66 64 69 30 1D  U5.........fdi0.
0B90: 61 80 23 21 00                                    a.#!.           
```

#### Opcodes

```
  0: 0x0B3F [0x42] SET_CLI_EVENT_CANCEL_DATA()
  1: 0x0B40 [0x1E] EventEntity looks at LocalPlayer and starts talking
  2: 0x0B45 [0x1C] WAIT(30* ticks)
  3: 0x0B48 [0x1D] PRINT_EVENT_MESSAGE(message_id=12402*)
    → "Splendide! Magnifique! Now, eef you just attendez un momentaru, I shall feex eet up for you, good as nouveau!"
  4: 0x0B4B [0x23] WAIT_FOR_DIALOG_INTERACTION
  5: 0x0B4C [0x45] LOAD_SCHEDULED_TASK: Load scheduler "fdo1" with entities [LocalPlayer, LocalPlayer], work=[200*, 0*]
  6: 0x0B5D [0x55] WAIT_LOAD_SCHEDULER: Wait for scheduler "fdo1" with entities [LocalPlayer, LocalPlayer], work=200*
  7: 0x0B6C [0x1C] WAIT(120* ticks)
  8: 0x0B6F [0x45] LOAD_SCHEDULED_TASK: Load scheduler "fdi0" with entities [LocalPlayer, LocalPlayer], work=[200*, 0*]
  9: 0x0B80 [0x55] WAIT_LOAD_SCHEDULER: Wait for scheduler "fdi0" with entities [LocalPlayer, LocalPlayer], work=200*
 10: 0x0B8F [0x1D] PRINT_EVENT_MESSAGE(message_id=12403*)
    → "Voila! Ees she not ze toute beaute? Treat her well, and au revoir!"
 11: 0x0B92 [0x23] WAIT_FOR_DIALOG_INTERACTION
 12: 0x0B93 [0x21] END_EVENT
 13: 0x0B94 [0x00] END_REQSTACK()
```
