# 17752578

## Common Data

| Field            | Value                     |
|------------------|---------------------------|
| Zone             | Windurst Waters (ID: 238) |
| Block Size       | 112 bytes                 |
| Total Events     | 4                         |
| References Count | 1                         |

## List of Events

| Event ID                 | Entrypoint   |   Size |   Instructions |
|--------------------------|--------------|--------|----------------|
| [65535](#event-65535)    | 0x0000       |      1 |              1 |
| [30042](#event-30042)    | 0x0001       |      1 |              1 |
| [30043](#event-30043)    | 0x0002       |      1 |              1 |
| [65535.1](#event-655351) | 0x0003       |     71 |             15 |

## DAT References (imed_data)

|   Index | Hex Value   |   Dec Value |
|---------|-------------|-------------|
|       0 | 0x002D      |          45 |

## Events

### Event 65535

#### Metadata

| Field        | Value   |
|--------------|---------|
| Entrypoint   | 0x0000  |
| Data Size    | 1 bytes |
| Instructions | 1       |

```
      00 01 02 03 04 05 06 07  08 09 0A 0B 0C 0D 0E 0F
      -- -- -- -- -- -- -- --  -- -- -- -- -- -- -- --
0000: 00                                                .               
```

#### Opcodes

```
  0: 0x0000 [0x00] END_REQSTACK()
```

### Event 30042

#### Metadata

| Field        | Value   |
|--------------|---------|
| Entrypoint   | 0x0001  |
| Data Size    | 1 bytes |
| Instructions | 1       |

```
      00 01 02 03 04 05 06 07  08 09 0A 0B 0C 0D 0E 0F
      -- -- -- -- -- -- -- --  -- -- -- -- -- -- -- --
0000:    00                                              .              
```

#### Opcodes

```
  0: 0x0001 [0x00] END_REQSTACK()
```

### Event 30043

#### Metadata

| Field        | Value   |
|--------------|---------|
| Entrypoint   | 0x0002  |
| Data Size    | 1 bytes |
| Instructions | 1       |

```
      00 01 02 03 04 05 06 07  08 09 0A 0B 0C 0D 0E 0F
      -- -- -- -- -- -- -- --  -- -- -- -- -- -- -- --
0000:       00                                            .             
```

#### Opcodes

```
  0: 0x0002 [0x00] END_REQSTACK()
```

### Event 65535.1

#### Metadata

| Field        | Value    |
|--------------|----------|
| Entrypoint   | 0x0003   |
| Data Size    | 71 bytes |
| Instructions | 15       |

```
      00 01 02 03 04 05 06 07  08 09 0A 0B 0C 0D 0E 0F
      -- -- -- -- -- -- -- --  -- -- -- -- -- -- -- --
0000:          27 10 04 E2 0E  01 0A 1C 00 80 27 10 05     '.........'..
0010: E2 0E 01 0A 1C 00 80 27  10 06 E2 0E 01 0A 1C 00  .......'........
0020: 80 27 10 07 E2 0E 01 0A  1C 00 80 27 10 08 E2 0E  .'.........'....
0030: 01 0A 1C 00 80 27 10 09  E2 0E 01 0A 1C 00 80 27  .....'.........'
0040: 10 0A E2 0E 01 0A 1C 00  80 00                    ..........      
```

#### Opcodes

```
  0: 0x0003 [0x27] REQ_SET(priority=0x10, entity_id=Disjoined One (ID: 17752580/0x010EE204), tag_num=0x0A)
  1: 0x000A [0x1C] WAIT(45* ticks)
  2: 0x000D [0x27] REQ_SET(priority=0x10, entity_id=Disjoined One (ID: 17752581/0x010EE205), tag_num=0x0A)
  3: 0x0014 [0x1C] WAIT(45* ticks)
  4: 0x0017 [0x27] REQ_SET(priority=0x10, entity_id=Disjoined One (ID: 17752582/0x010EE206), tag_num=0x0A)
  5: 0x001E [0x1C] WAIT(45* ticks)
  6: 0x0021 [0x27] REQ_SET(priority=0x10, entity_id=Disjoined One (ID: 17752583/0x010EE207), tag_num=0x0A)
  7: 0x0028 [0x1C] WAIT(45* ticks)
  8: 0x002B [0x27] REQ_SET(priority=0x10, entity_id=Disjoined One (ID: 17752584/0x010EE208), tag_num=0x0A)
  9: 0x0032 [0x1C] WAIT(45* ticks)
 10: 0x0035 [0x27] REQ_SET(priority=0x10, entity_id=Disjoined One (ID: 17752585/0x010EE209), tag_num=0x0A)
 11: 0x003C [0x1C] WAIT(45* ticks)
 12: 0x003F [0x27] REQ_SET(priority=0x10, entity_id=Disjoined One (ID: 17752586/0x010EE20A), tag_num=0x0A)
 13: 0x0046 [0x1C] WAIT(45* ticks)
 14: 0x0049 [0x00] END_REQSTACK()
```
