# 17752354

## Common Data

| Field            | Value                     |
|------------------|---------------------------|
| Zone             | Windurst Waters (ID: 238) |
| Block Size       | 1044 bytes                |
| Total Events     | 9                         |
| References Count | 51                        |

## List of Events

| Event ID                 | Entrypoint   |   Size |   Instructions |
|--------------------------|--------------|--------|----------------|
| [65535](#event-65535)    | 0x0000       |      1 |              1 |
| [1015](#event-1015)      | 0x0001       |      1 |              1 |
| [65535.1](#event-655351) | 0x0002       |     14 |              4 |
| [65535.2](#event-655352) | 0x0010       |    254 |             36 |
| [65535.3](#event-655353) | 0x010E       |     16 |              5 |
| [65535.4](#event-655354) | 0x011E       |     16 |              2 |
| [991](#event-991)        | 0x012E       |      1 |              1 |
| [65535.5](#event-655355) | 0x012F       |    451 |             63 |
| [65535.6](#event-655356) | 0x02F2       |     33 |              9 |

## DAT References (imed_data)

|   Index | Hex Value   |   Dec Value |
|---------|-------------|-------------|
|       0 | 0x0011      |          17 |
|       1 | 0xFFFB4378  |  4294656888 |
|       2 | 0x2EBBE     |      191422 |
|       3 | 0x2278      |        8824 |
|       4 | 0x000F      |          15 |
|       5 | 0xFFFACCC9  |  4294626505 |
|       6 | 0x3AB02     |      240386 |
|       7 | 0x22C9      |        8905 |
|       8 | 0x07EA      |        2026 |
|       9 | 0xFFFAE87D  |  4294633597 |
|      10 | 0x3D1E8     |      250344 |
|      11 | 0x2078      |        8312 |
|      12 | 0xFFFAED4D  |  4294634829 |
|      13 | 0x3BB8D     |      244621 |
|      14 | 0x20E2      |        8418 |
|      15 | 0xFFFB0806  |  4294641670 |
|      16 | 0x3A656     |      239190 |
|      17 | 0x20A2      |        8354 |
|      18 | 0x003C      |          60 |
|      19 | 0x086E      |        2158 |
|      20 | 0x0871      |        2161 |
|      21 | 0x0006      |           6 |
|      22 | 0xA84ED     |      689389 |
|      23 | 0x80581     |      525697 |
|      24 | 0xFFFFA166  |  4294943078 |
|      25 | 0x051F      |        1311 |
|      26 | 0x7D41      |       32065 |
|      27 | 0xFFFFFC18  |  4294966296 |
|      28 | 0x0224      |         548 |
|      29 | 0xFFFFEBFE  |  4294962174 |
|      30 | 0x8AC3      |       35523 |
|      31 | 0xFFFFFE00  |  4294966784 |
|      32 | 0x7927      |       31015 |
|      33 | 0xFFFFF841  |  4294965313 |
|      34 | 0x9E45      |       40517 |
|      35 | 0x0A42      |        2626 |
|      36 | 0x7F1B      |       32539 |
|      37 | 0x0B9F      |        2975 |
|      38 | 0x81F5      |       33269 |
|      39 | 0x0C9E      |        3230 |
|      40 | 0x853C      |       34108 |
|      41 | 0x0BAD      |        2989 |
|      42 | 0x789B      |       30875 |
|      43 | 0xFFFFFC19  |  4294966297 |
|      44 | 0x0236      |         566 |
|      45 | 0x004B      |          75 |
|      46 | 0x001E      |          30 |
|      47 | 0x687F7     |      428023 |
|      48 | 0xFFFFC784  |  4294952836 |
|      49 | 0xFFFF63C0  |  4294927296 |
|      50 | 0x002D      |          45 |

## Events

### Event 65535

#### Metadata

| Field        | Value   |
|--------------|---------|
| Entrypoint   | 0x0000  |
| Data Size    | 1 bytes |
| Instructions | 1       |

```
      00 01 02 03 04 05 06 07  08 09 0A 0B 0C 0D 0E 0F
      -- -- -- -- -- -- -- --  -- -- -- -- -- -- -- --
0000: 00                                                .               
```

#### Opcodes

```
  0: 0x0000 [0x00] END_REQSTACK()
```

### Event 1015

#### Metadata

| Field        | Value   |
|--------------|---------|
| Entrypoint   | 0x0001  |
| Data Size    | 1 bytes |
| Instructions | 1       |

```
      00 01 02 03 04 05 06 07  08 09 0A 0B 0C 0D 0E 0F
      -- -- -- -- -- -- -- --  -- -- -- -- -- -- -- --
0000:    00                                              .              
```

#### Opcodes

```
  0: 0x0001 [0x00] END_REQSTACK()
```

### Event 65535.1

#### Metadata

| Field        | Value    |
|--------------|----------|
| Entrypoint   | 0x0002   |
| Data Size    | 14 bytes |
| Instructions | 4        |

```
      00 01 02 03 04 05 06 07  08 09 0A 0B 0C 0D 0E 0F
      -- -- -- -- -- -- -- --  -- -- -- -- -- -- -- --
0000:       32 00 80 1F 00 01  80 02 80 03 80 1F 01 00    2.............
```

#### Opcodes

```
  0: 0x0002 [0x32] ExtData[1]->MainSpeed = 17* * 0.1
  1: 0x0005 [0x1F] MOVE_ENTITY: EventEntity moves to X=-310.408*, Z=191.422*, Y=8.824*
  2: 0x000D [0x1F] MOVE_ENTITY: Update entity position (mode=1)
  3: 0x000F [0x00] END_REQSTACK()
```

### Event 65535.2

#### Metadata

| Field        | Value     |
|--------------|-----------|
| Entrypoint   | 0x0010    |
| Data Size    | 254 bytes |
| Instructions | 36        |

```
      00 01 02 03 04 05 06 07  08 09 0A 0B 0C 0D 0E 0F
      -- -- -- -- -- -- -- --  -- -- -- -- -- -- -- --
0010: 29 10 26 E1 0E 01 05 1C  04 80 2F 00 23 E1 0E 01  ).&......./.#...
0020: 2F 00 21 E1 0E 01 2F 00  24 E1 0E 01 2F 00 25 E1  /.!.../.$.../.%.
0030: 0E 01 2F 00 26 E1 0E 01  4E 00 23 E1 0E 01 4E 00  ../.&...N.#...N.
0040: 21 E1 0E 01 4E 00 24 E1  0E 01 4E 00 25 E1 0E 01  !...N.$...N.%...
0050: 4E 00 26 E1 0E 01 94 01  23 E1 0E 01 94 01 21 E1  N.&.....#.....!.
0060: 0E 01 94 01 24 E1 0E 01  94 01 25 E1 0E 01 94 01  ....$.....%.....
0070: 26 E1 0E 01 92 01 23 E1  0E 01 92 01 21 E1 0E 01  &.....#.....!...
0080: 92 01 24 E1 0E 01 92 01  25 E1 0E 01 92 01 26 E1  ..$.....%.....&.
0090: 0E 01 BA 23 E1 0E 01 05  80 06 80 07 80 08 80 BA  ...#............
00A0: 21 E1 0E 01 05 80 06 80  07 80 08 80 BA 24 E1 0E  !............$..
00B0: 01 09 80 0A 80 0B 80 08  80 BA 25 E1 0E 01 0C 80  ..........%.....
00C0: 0D 80 0E 80 08 80 BA 26  E1 0E 01 0F 80 10 80 11  .......&........
00D0: 80 08 80 80 23 E1 0E 01  80 21 E1 0E 01 80 24 E1  ....#....!....$.
00E0: 0E 01 80 25 E1 0E 01 80  26 E1 0E 01 1C 12 80 5B  ...%....&......[
00F0: 13 80 23 E1 0E 01 23 E1  0E 01 73 61 69 30 5B 14  ..#...#...sai0[.
0100: 80 21 E1 0E 01 21 E1 0E  01 73 61 69 30 00        .!...!...sai0.  
```

#### Opcodes

```
  0: 0x0010 [0x29] REQ_SET_WAIT(priority=0x10, entity_id=Darach (ID: 17752358/0x010EE126), tag_num=0x05)
  1: 0x0017 [0x1C] WAIT(15* ticks)
  2: 0x001A [0x2F] Abenzio (ID: 17752355/0x010EE123)->Render.Flags0 &= ~0x80000 // Bit 19
  3: 0x0020 [0x2F] Babban Ny Mheillea (ID: 17752353/0x010EE121)->Render.Flags0 &= ~0x80000 // Bit 19
  4: 0x0026 [0x2F] Bryher (ID: 17752356/0x010EE124)->Render.Flags0 &= ~0x80000 // Bit 19
  5: 0x002C [0x2F] Camlin (ID: 17752357/0x010EE125)->Render.Flags0 &= ~0x80000 // Bit 19
  6: 0x0032 [0x2F] Darach (ID: 17752358/0x010EE126)->Render.Flags0 &= ~0x80000 // Bit 19
  7: 0x0038 [0x4E] SET_ENTITY_HIDE_FLAG: Show Abenzio (ID: 17752355/0x010EE123)
  8: 0x003E [0x4E] SET_ENTITY_HIDE_FLAG: Show Babban Ny Mheillea (ID: 17752353/0x010EE121)
  9: 0x0044 [0x4E] SET_ENTITY_HIDE_FLAG: Show Bryher (ID: 17752356/0x010EE124)
 10: 0x004A [0x4E] SET_ENTITY_HIDE_FLAG: Show Camlin (ID: 17752357/0x010EE125)
 11: 0x0050 [0x4E] SET_ENTITY_HIDE_FLAG: Show Darach (ID: 17752358/0x010EE126)
 12: 0x0056 [0x94] Abenzio (ID: 17752355/0x010EE123)->Render.Flags3 ^= 0x01
 13: 0x005C [0x94] Babban Ny Mheillea (ID: 17752353/0x010EE121)->Render.Flags3 ^= 0x01
 14: 0x0062 [0x94] Bryher (ID: 17752356/0x010EE124)->Render.Flags3 ^= 0x01
 15: 0x0068 [0x94] Camlin (ID: 17752357/0x010EE125)->Render.Flags3 ^= 0x01
 16: 0x006E [0x94] Darach (ID: 17752358/0x010EE126)->Render.Flags3 ^= 0x01
 17: 0x0074 [0x92] Abenzio (ID: 17752355/0x010EE123)->Render.Flags3 ^= 0x01
 18: 0x007A [0x92] Babban Ny Mheillea (ID: 17752353/0x010EE121)->Render.Flags3 ^= 0x01
 19: 0x0080 [0x92] Bryher (ID: 17752356/0x010EE124)->Render.Flags3 ^= 0x01
 20: 0x0086 [0x92] Camlin (ID: 17752357/0x010EE125)->Render.Flags3 ^= 0x01
 21: 0x008C [0x92] Darach (ID: 17752358/0x010EE126)->Render.Flags3 ^= 0x01
 22: 0x0092 [0xBA] SET_ENTITY_POSITION(entity_id=Abenzio (ID: 17752355/0x010EE123), pos_x=-340.791*, pos_z=240.386*, pos_y=8.905*, direction=178.1°*)
 23: 0x009F [0xBA] SET_ENTITY_POSITION(entity_id=Babban Ny Mheillea (ID: 17752353/0x010EE121), pos_x=-340.791*, pos_z=240.386*, pos_y=8.905*, direction=178.1°*)
 24: 0x00AC [0xBA] SET_ENTITY_POSITION(entity_id=Bryher (ID: 17752356/0x010EE124), pos_x=-333.699*, pos_z=250.344*, pos_y=8.312*, direction=178.1°*)
 25: 0x00B9 [0xBA] SET_ENTITY_POSITION(entity_id=Camlin (ID: 17752357/0x010EE125), pos_x=-332.467*, pos_z=244.621*, pos_y=8.418*, direction=178.1°*)
 26: 0x00C6 [0xBA] SET_ENTITY_POSITION(entity_id=Darach (ID: 17752358/0x010EE126), pos_x=-325.626*, pos_z=239.190*, pos_y=8.354*, direction=178.1°*)
 27: 0x00D3 [0x80] LOAD_WAIT(entity=Abenzio (ID: 17752355/0x010EE123))
 28: 0x00D8 [0x80] LOAD_WAIT(entity=Babban Ny Mheillea (ID: 17752353/0x010EE121))
 29: 0x00DD [0x80] LOAD_WAIT(entity=Bryher (ID: 17752356/0x010EE124))
 30: 0x00E2 [0x80] LOAD_WAIT(entity=Camlin (ID: 17752357/0x010EE125))
 31: 0x00E7 [0x80] LOAD_WAIT(entity=Darach (ID: 17752358/0x010EE126))
 32: 0x00EC [0x1C] WAIT(60* ticks)
 33: 0x00EF [0x5B] LOAD_EXT_SCHEDULER: Load scheduler "sai0" with entities [Abenzio (ID: 17752355/0x010EE123), Abenzio (ID: 17752355/0x010EE123)], work=2158*
 34: 0x00FE [0x5B] LOAD_EXT_SCHEDULER: Load scheduler "sai0" with entities [Babban Ny Mheillea (ID: 17752353/0x010EE121), Babban Ny Mheillea (ID: 17752353/0x010EE121)], work=2161*
 35: 0x010D [0x00] END_REQSTACK()
```

### Event 65535.3

#### Metadata

| Field        | Value    |
|--------------|----------|
| Entrypoint   | 0x010E   |
| Data Size    | 16 bytes |
| Instructions | 5        |

```
      00 01 02 03 04 05 06 07  08 09 0A 0B 0C 0D 0E 0F
      -- -- -- -- -- -- -- --  -- -- -- -- -- -- -- --
0100:                                            61 00                a.
0110: 32 15 80 1F 00 16 80 17  80 18 80 1F 01 00        2.............  
```

#### Opcodes

```
  0: 0x010E [0x61] EventEntity->Render.Flags2 &= ~0x00000001
  1: 0x0110 [0x32] ExtData[1]->MainSpeed = 6* * 0.1
  2: 0x0113 [0x1F] MOVE_ENTITY: EventEntity moves to X=689.389*, Z=525.697*, Y=-24.218*
  3: 0x011B [0x1F] MOVE_ENTITY: Update entity position (mode=1)
  4: 0x011D [0x00] END_REQSTACK()
```

### Event 65535.4

#### Metadata

| Field        | Value    |
|--------------|----------|
| Entrypoint   | 0x011E   |
| Data Size    | 16 bytes |
| Instructions | 2        |

```
      00 01 02 03 04 05 06 07  08 09 0A 0B 0C 0D 0E 0F
      -- -- -- -- -- -- -- --  -- -- -- -- -- -- -- --
0110:                                            5B 14                [.
0120: 80 22 E1 0E 01 22 E1 0E  01 73 6B 79 30 00        ."..."...sky0.  
```

#### Opcodes

```
  0: 0x011E [0x5B] LOAD_EXT_SCHEDULER: Load scheduler "sky0" with entities [Unnamed NPC (ID: 17752354/0x010EE122), Unnamed NPC (ID: 17752354/0x010EE122)], work=2161*
  1: 0x012D [0x00] END_REQSTACK()
```

### Event 991

#### Metadata

| Field        | Value   |
|--------------|---------|
| Entrypoint   | 0x012E  |
| Data Size    | 1 bytes |
| Instructions | 1       |

```
      00 01 02 03 04 05 06 07  08 09 0A 0B 0C 0D 0E 0F
      -- -- -- -- -- -- -- --  -- -- -- -- -- -- -- --
0120:                                            00                   . 
```

#### Opcodes

```
  0: 0x012E [0x00] END_REQSTACK()
```

### Event 65535.5

#### Metadata

| Field        | Value     |
|--------------|-----------|
| Entrypoint   | 0x012F    |
| Data Size    | 451 bytes |
| Instructions | 63        |

```
      00 01 02 03 04 05 06 07  08 09 0A 0B 0C 0D 0E 0F
      -- -- -- -- -- -- -- --  -- -- -- -- -- -- -- --
0120:                                               29                 )
0130: 10 26 E1 0E 01 03 1C 04  80 2F 00 23 E1 0E 01 2F  .&......./.#.../
0140: 00 21 E1 0E 01 2F 00 24  E1 0E 01 2F 00 25 E1 0E  .!.../.$.../.%..
0150: 01 2F 00 26 E1 0E 01 2F  00 27 E1 0E 01 2F 00 28  ./.&.../.'.../.(
0160: E1 0E 01 2F 00 29 E1 0E  01 2F 00 2A E1 0E 01 4E  .../.).../.*...N
0170: 00 23 E1 0E 01 4E 00 21  E1 0E 01 4E 00 24 E1 0E  .#...N.!...N.$..
0180: 01 4E 00 25 E1 0E 01 4E  00 26 E1 0E 01 4E 00 27  .N.%...N.&...N.'
0190: E1 0E 01 4E 00 28 E1 0E  01 4E 00 29 E1 0E 01 4E  ...N.(...N.)...N
01A0: 00 2A E1 0E 01 94 01 23  E1 0E 01 94 01 21 E1 0E  .*.....#.....!..
01B0: 01 94 01 24 E1 0E 01 94  01 25 E1 0E 01 94 01 26  ...$.....%.....&
01C0: E1 0E 01 94 01 27 E1 0E  01 94 01 28 E1 0E 01 94  .....'.....(....
01D0: 01 29 E1 0E 01 94 01 2A  E1 0E 01 92 01 23 E1 0E  .).....*.....#..
01E0: 01 92 01 21 E1 0E 01 92  01 24 E1 0E 01 92 01 25  ...!.....$.....%
01F0: E1 0E 01 92 01 26 E1 0E  01 92 01 27 E1 0E 01 92  .....&.....'....
0200: 01 28 E1 0E 01 92 01 29  E1 0E 01 92 01 2A E1 0E  .(.....).....*..
0210: 01 BA 23 E1 0E 01 19 80  1A 80 1B 80 1C 80 BA 21  ..#............!
0220: E1 0E 01 19 80 1A 80 1B  80 1C 80 BA 24 E1 0E 01  ............$...
0230: 1D 80 1E 80 1B 80 1C 80  BA 25 E1 0E 01 1F 80 20  .........%..... 
0240: 80 1B 80 1C 80 BA 26 E1  0E 01 21 80 22 80 1B 80  ......&...!."...
0250: 1C 80 BA 27 E1 0E 01 23  80 24 80 1B 80 1C 80 BA  ...'...#.$......
0260: 28 E1 0E 01 25 80 26 80  1B 80 1C 80 BA 29 E1 0E  (...%.&......)..
0270: 01 27 80 28 80 1B 80 1C  80 BA 2A E1 0E 01 29 80  .'.(......*...).
0280: 2A 80 2B 80 2C 80 80 23  E1 0E 01 80 21 E1 0E 01  *.+.,..#....!...
0290: 80 24 E1 0E 01 80 25 E1  0E 01 80 26 E1 0E 01 1C  .$....%....&....
02A0: 2D 80 80 27 E1 0E 01 80  28 E1 0E 01 80 29 E1 0E  -..'....(....)..
02B0: 01 80 2A E1 0E 01 1C 2D  80 5B 14 80 21 E1 0E 01  ..*....-.[..!...
02C0: 21 E1 0E 01 73 61 69 30  53 21 E1 0E 01 21 E1 0E  !...sai0S!...!..
02D0: 01 73 61 69 30 5B 13 80  23 E1 0E 01 23 E1 0E 01  .sai0[..#...#...
02E0: 73 61 69 30 53 23 E1 0E  01 23 E1 0E 01 73 61 69  sai0S#...#...sai
02F0: 30 00                                             0.              
```

#### Opcodes

```
  0: 0x012F [0x29] REQ_SET_WAIT(priority=0x10, entity_id=Darach (ID: 17752358/0x010EE126), tag_num=0x03)
  1: 0x0136 [0x1C] WAIT(15* ticks)
  2: 0x0139 [0x2F] Abenzio (ID: 17752355/0x010EE123)->Render.Flags0 &= ~0x80000 // Bit 19
  3: 0x013F [0x2F] Babban Ny Mheillea (ID: 17752353/0x010EE121)->Render.Flags0 &= ~0x80000 // Bit 19
  4: 0x0145 [0x2F] Bryher (ID: 17752356/0x010EE124)->Render.Flags0 &= ~0x80000 // Bit 19
  5: 0x014B [0x2F] Camlin (ID: 17752357/0x010EE125)->Render.Flags0 &= ~0x80000 // Bit 19
  6: 0x0151 [0x2F] Darach (ID: 17752358/0x010EE126)->Render.Flags0 &= ~0x80000 // Bit 19
  7: 0x0157 [0x2F] Unnamed NPC (ID: 17752359/0x010EE127)->Render.Flags0 &= ~0x80000 // Bit 19
  8: 0x015D [0x2F] Unnamed NPC (ID: 17752360/0x010EE128)->Render.Flags0 &= ~0x80000 // Bit 19
  9: 0x0163 [0x2F] Unnamed NPC (ID: 17752361/0x010EE129)->Render.Flags0 &= ~0x80000 // Bit 19
 10: 0x0169 [0x2F] Unnamed NPC (ID: 17752362/0x010EE12A)->Render.Flags0 &= ~0x80000 // Bit 19
 11: 0x016F [0x4E] SET_ENTITY_HIDE_FLAG: Show Abenzio (ID: 17752355/0x010EE123)
 12: 0x0175 [0x4E] SET_ENTITY_HIDE_FLAG: Show Babban Ny Mheillea (ID: 17752353/0x010EE121)
 13: 0x017B [0x4E] SET_ENTITY_HIDE_FLAG: Show Bryher (ID: 17752356/0x010EE124)
 14: 0x0181 [0x4E] SET_ENTITY_HIDE_FLAG: Show Camlin (ID: 17752357/0x010EE125)
 15: 0x0187 [0x4E] SET_ENTITY_HIDE_FLAG: Show Darach (ID: 17752358/0x010EE126)
 16: 0x018D [0x4E] SET_ENTITY_HIDE_FLAG: Show Unnamed NPC (ID: 17752359/0x010EE127)
 17: 0x0193 [0x4E] SET_ENTITY_HIDE_FLAG: Show Unnamed NPC (ID: 17752360/0x010EE128)
 18: 0x0199 [0x4E] SET_ENTITY_HIDE_FLAG: Show Unnamed NPC (ID: 17752361/0x010EE129)
 19: 0x019F [0x4E] SET_ENTITY_HIDE_FLAG: Show Unnamed NPC (ID: 17752362/0x010EE12A)
 20: 0x01A5 [0x94] Abenzio (ID: 17752355/0x010EE123)->Render.Flags3 ^= 0x01
 21: 0x01AB [0x94] Babban Ny Mheillea (ID: 17752353/0x010EE121)->Render.Flags3 ^= 0x01
 22: 0x01B1 [0x94] Bryher (ID: 17752356/0x010EE124)->Render.Flags3 ^= 0x01
 23: 0x01B7 [0x94] Camlin (ID: 17752357/0x010EE125)->Render.Flags3 ^= 0x01
 24: 0x01BD [0x94] Darach (ID: 17752358/0x010EE126)->Render.Flags3 ^= 0x01
 25: 0x01C3 [0x94] Unnamed NPC (ID: 17752359/0x010EE127)->Render.Flags3 ^= 0x01
 26: 0x01C9 [0x94] Unnamed NPC (ID: 17752360/0x010EE128)->Render.Flags3 ^= 0x01
 27: 0x01CF [0x94] Unnamed NPC (ID: 17752361/0x010EE129)->Render.Flags3 ^= 0x01
 28: 0x01D5 [0x94] Unnamed NPC (ID: 17752362/0x010EE12A)->Render.Flags3 ^= 0x01
 29: 0x01DB [0x92] Abenzio (ID: 17752355/0x010EE123)->Render.Flags3 ^= 0x01
 30: 0x01E1 [0x92] Babban Ny Mheillea (ID: 17752353/0x010EE121)->Render.Flags3 ^= 0x01
 31: 0x01E7 [0x92] Bryher (ID: 17752356/0x010EE124)->Render.Flags3 ^= 0x01
 32: 0x01ED [0x92] Camlin (ID: 17752357/0x010EE125)->Render.Flags3 ^= 0x01
 33: 0x01F3 [0x92] Darach (ID: 17752358/0x010EE126)->Render.Flags3 ^= 0x01
 34: 0x01F9 [0x92] Unnamed NPC (ID: 17752359/0x010EE127)->Render.Flags3 ^= 0x01
 35: 0x01FF [0x92] Unnamed NPC (ID: 17752360/0x010EE128)->Render.Flags3 ^= 0x01
 36: 0x0205 [0x92] Unnamed NPC (ID: 17752361/0x010EE129)->Render.Flags3 ^= 0x01
 37: 0x020B [0x92] Unnamed NPC (ID: 17752362/0x010EE12A)->Render.Flags3 ^= 0x01
 38: 0x0211 [0xBA] SET_ENTITY_POSITION(entity_id=Abenzio (ID: 17752355/0x010EE123), pos_x=1.311*, pos_z=32.065*, pos_y=-1.000*, direction=48.2°*)
 39: 0x021E [0xBA] SET_ENTITY_POSITION(entity_id=Babban Ny Mheillea (ID: 17752353/0x010EE121), pos_x=1.311*, pos_z=32.065*, pos_y=-1.000*, direction=48.2°*)
 40: 0x022B [0xBA] SET_ENTITY_POSITION(entity_id=Bryher (ID: 17752356/0x010EE124), pos_x=-5.122*, pos_z=35.523*, pos_y=-1.000*, direction=48.2°*)
 41: 0x0238 [0xBA] SET_ENTITY_POSITION(entity_id=Camlin (ID: 17752357/0x010EE125), pos_x=-0.512*, pos_z=31.015*, pos_y=-1.000*, direction=48.2°*)
 42: 0x0245 [0xBA] SET_ENTITY_POSITION(entity_id=Darach (ID: 17752358/0x010EE126), pos_x=-1.983*, pos_z=40.517*, pos_y=-1.000*, direction=48.2°*)
 43: 0x0252 [0xBA] SET_ENTITY_POSITION(entity_id=Unnamed NPC (ID: 17752359/0x010EE127), pos_x=2.626*, pos_z=32.539*, pos_y=-1.000*, direction=48.2°*)
 44: 0x025F [0xBA] SET_ENTITY_POSITION(entity_id=Unnamed NPC (ID: 17752360/0x010EE128), pos_x=2.975*, pos_z=33.269*, pos_y=-1.000*, direction=48.2°*)
 45: 0x026C [0xBA] SET_ENTITY_POSITION(entity_id=Unnamed NPC (ID: 17752361/0x010EE129), pos_x=3.230*, pos_z=34.108*, pos_y=-1.000*, direction=48.2°*)
 46: 0x0279 [0xBA] SET_ENTITY_POSITION(entity_id=Unnamed NPC (ID: 17752362/0x010EE12A), pos_x=2.989*, pos_z=30.875*, pos_y=-0.999*, direction=49.7°*)
 47: 0x0286 [0x80] LOAD_WAIT(entity=Abenzio (ID: 17752355/0x010EE123))
 48: 0x028B [0x80] LOAD_WAIT(entity=Babban Ny Mheillea (ID: 17752353/0x010EE121))
 49: 0x0290 [0x80] LOAD_WAIT(entity=Bryher (ID: 17752356/0x010EE124))
 50: 0x0295 [0x80] LOAD_WAIT(entity=Camlin (ID: 17752357/0x010EE125))
 51: 0x029A [0x80] LOAD_WAIT(entity=Darach (ID: 17752358/0x010EE126))
 52: 0x029F [0x1C] WAIT(75* ticks)
 53: 0x02A2 [0x80] LOAD_WAIT(entity=Unnamed NPC (ID: 17752359/0x010EE127))
 54: 0x02A7 [0x80] LOAD_WAIT(entity=Unnamed NPC (ID: 17752360/0x010EE128))
 55: 0x02AC [0x80] LOAD_WAIT(entity=Unnamed NPC (ID: 17752361/0x010EE129))
 56: 0x02B1 [0x80] LOAD_WAIT(entity=Unnamed NPC (ID: 17752362/0x010EE12A))
 57: 0x02B6 [0x1C] WAIT(75* ticks)
 58: 0x02B9 [0x5B] LOAD_EXT_SCHEDULER: Load scheduler "sai0" with entities [Babban Ny Mheillea (ID: 17752353/0x010EE121), Babban Ny Mheillea (ID: 17752353/0x010EE121)], work=2161*
 59: 0x02C8 [0x53] WAIT_SCHEDULER_TASK: Wait for scheduler "sai0" with entities [Babban Ny Mheillea (ID: 17752353/0x010EE121), Babban Ny Mheillea (ID: 17752353/0x010EE121)]
 60: 0x02D5 [0x5B] LOAD_EXT_SCHEDULER: Load scheduler "sai0" with entities [Abenzio (ID: 17752355/0x010EE123), Abenzio (ID: 17752355/0x010EE123)], work=2158*
 61: 0x02E4 [0x53] WAIT_SCHEDULER_TASK: Wait for scheduler "sai0" with entities [Abenzio (ID: 17752355/0x010EE123), Abenzio (ID: 17752355/0x010EE123)]
 62: 0x02F1 [0x00] END_REQSTACK()
```

### Event 65535.6

#### Metadata

| Field        | Value    |
|--------------|----------|
| Entrypoint   | 0x02F2   |
| Data Size    | 33 bytes |
| Instructions | 9        |

```
      00 01 02 03 04 05 06 07  08 09 0A 0B 0C 0D 0E 0F
      -- -- -- -- -- -- -- --  -- -- -- -- -- -- -- --
02F0:       32 2E 80 1F 00 2F  80 30 80 31 80 1F 01 6F    2..../.0.1...o
0300: 1C 32 80 4A F8 FF FF 7F  2A E1 0E 01 6F 76 F8 FF  .2.J....*...ov..
0310: FF 7F 00                                          ...             
```

#### Opcodes

```
  0: 0x02F2 [0x32] ExtData[1]->MainSpeed = 30* * 0.1
  1: 0x02F5 [0x1F] MOVE_ENTITY: EventEntity moves to X=428.023*, Z=-14.460*, Y=-40.000*
  2: 0x02FD [0x1F] MOVE_ENTITY: Update entity position (mode=1)
  3: 0x02FF [0x6F] WAIT_FRAME_DELAY: Yield until WaitTime reaches zero
  4: 0x0300 [0x1C] WAIT(45* ticks)
  5: 0x0303 [0x4A] EventEntity looks at Unnamed NPC (ID: 17752362/0x010EE12A)
  6: 0x030C [0x6F] WAIT_FRAME_DELAY: Yield until WaitTime reaches zero
  7: 0x030D [0x76] CHECK_ENTITY_RENDER_FLAGS: Wait until EventEntity Render.Flags0 and Render.Flags3 conditions are met
  8: 0x0312 [0x00] END_REQSTACK()
```
