# 17752529 - Atagei-Portagei

## Common Data

| Field            | Value                     |
|------------------|---------------------------|
| Zone             | Windurst Waters (ID: 238) |
| Block Size       | 840 bytes                 |
| Total Events     | 5                         |
| References Count | 39                        |

## List of Events

| Event ID              | Entrypoint   |   Size |   Instructions |
|-----------------------|--------------|--------|----------------|
| [65535](#event-65535) | 0x0000       |      1 |              1 |
| [892](#event-892)     | 0x0001       |     15 |              7 |
| [893](#event-893)     | 0x0010       |    414 |            111 |
| [32742](#event-32742) | 0x01AE       |     23 |             11 |
| [32741](#event-32741) | 0x01C5       |    195 |             51 |

## DAT References (imed_data)

|   Index | Hex Value   |   Dec Value |
|---------|-------------|-------------|
|       0 | 0x29E8      |       10728 |
|       1 | 0x29E9      |       10729 |
|       2 | 0x29EB      |       10731 |
|       3 | 0x06D2      |        1746 |
|       4 | 0x29EC      |       10732 |
|       5 | 0x06D3      |        1747 |
|       6 | 0x06D4      |        1748 |
|       7 | 0x29EE      |       10734 |
|       8 | 0x29EF      |       10735 |
|       9 | 0x0001      |           1 |
|      10 | 0x0000      |           0 |
|      11 | 0x00C8      |         200 |
|      12 | 0x0064      |         100 |
|      13 | 0x29F0      |       10736 |
|      14 | 0x0003      |           3 |
|      15 | 0x29F1      |       10737 |
|      16 | 0x29F2      |       10738 |
|      17 | 0x29F3      |       10739 |
|      18 | 0x29F4      |       10740 |
|      19 | 0x29ED      |       10733 |
|      20 | 0x0005      |           5 |
|      21 | 0x0002      |           2 |
|      22 | 0x0004      |           4 |
|      23 | 0x0006      |           6 |
|      24 | 0x0007      |           7 |
|      25 | 0x0008      |           8 |
|      26 | 0x0009      |           9 |
|      27 | 0x2A5C      |       10844 |
|      28 | 0x2A5D      |       10845 |
|      29 | 0x2A5E      |       10846 |
|      30 | 0x2A5F      |       10847 |
|      31 | 0x2A60      |       10848 |
|      32 | 0x2A61      |       10849 |
|      33 | 0x2A62      |       10850 |
|      34 | 0x0014      |          20 |
|      35 | 0x2A63      |       10851 |
|      36 | 0x0019      |          25 |
|      37 | 0x00B4      |         180 |
|      38 | 0x2A64      |       10852 |

## String References

- **10728**: Yo ho ho and a bottle of mulsum! I may be a pirate, but ye won't sees me plunderin' the hearts of the wee lads and lassies!
- **10729**: Here, ya scurvy dawg, takes this booty and pass her on to an innocent child. Arrrg, but if I hears ya kept it fer yer own lonesome, I'll personally sees ya walk the plank!
- **10731**: What's this? Might it be maps of buried treasure? Hm? Letter from the kiddies? Arrrg, brings a tear t'me one good eye.
- **10732**: Do ye remember the name of the lassie that wrote this here $1?
- **10733**: Who was it? [Arukoko./Chomomo./Hororo./Komomo./Mimomo./Myumimi./Paruru./Pichichi./Purakoko./Shanruru.]
- **10734**: Arrrg, are ye absolutely, positively sure that it was [Arukoko/Chomomo/Hororo/Komomo/Mimomo/Myumimi/Paruru/Pichichi/Purakoko/Shanruru], [Arukoko/Chomomo/Hororo/Komomo/Mimomo/Myumimi/Paruru/Pichichi/Purakoko/Shanruru], and [Arukoko/Chomomo/Hororo/Komomo/Mimomo/Myumimi/Paruru/Pichichi/Purakoko/Shanruru] that gave ye th'letters?
- **10735**: Well? [Absolutely, positively!/Wait a minute...]
- **10736**: I wonders who could've written this $1...
- **10737**: Yo ho ho\`! Those wee children'd make fine pirates!
- **10738**: Arrrg, I can tells by the look on yer face that you'd like t'bring some joy of yer own t'the children. Here, take me hat.
- **10739**: Ye can always tell a pirate by lookin' at the dawg's hat; the kids can too!
- **10740**: Yo ho ho\`! Those wee children'd make fine pirates!
- **10844**: Are you spreading joy to the children of Vana'diel? Hey, I can tell you something you should know!
- **10845**: Listen close, now! To make the children happy you must...give them presents! You should think hard about what to get them! You might say it's the thought that counts, but unfortunately, the children think otherwise!
- **10846**: You should also wear a red hat like the one I have on now! It'll prove you're a smilebringer, so the kids won't think you're a creep.
- **10847**: Where can you find a hat? Well, I saw someone selling them around here earlier. I'm sure you can find them if you look!
- **10848**: [You haven't brought any happiness to the children!/You've done some good./You have done fairly well./You have given the children much joy!/You have brought smile upon smile to the children!/You have the children bursting with glee!/The children love you!] [What a disappointment./You just need to give a little extra effort!/Keep it up!/You make a good smilebringer./Excellent work!/Stupendous job!/Even I think you're great!]
- **10849**: You can make good use of some of that joy you've brought to transport yourself to another nation. The children in other parts of Vana'diel need smiles, too!
- **10850**: Transport to another nation? [Not now./Go to San d'Oria./Go to Bastok./Go to Windurst.]
- **10851**: See ya!
- **10852**: Sorry, but it looks like you don't have enough joy and happiness in your life to do that. You can earn some by giving presents to children, though!

## Events

### Event 65535

#### Metadata

| Field        | Value   |
|--------------|---------|
| Entrypoint   | 0x0000  |
| Data Size    | 1 bytes |
| Instructions | 1       |

```
      00 01 02 03 04 05 06 07  08 09 0A 0B 0C 0D 0E 0F
      -- -- -- -- -- -- -- --  -- -- -- -- -- -- -- --
0000: 00                                                .               
```

#### Opcodes

```
  0: 0x0000 [0x00] END_REQSTACK()
```

### Event 892

#### Metadata

| Field        | Value    |
|--------------|----------|
| Entrypoint   | 0x0001   |
| Data Size    | 15 bytes |
| Instructions | 7        |

```
      00 01 02 03 04 05 06 07  08 09 0A 0B 0C 0D 0E 0F
      -- -- -- -- -- -- -- --  -- -- -- -- -- -- -- --
0000:    1E F0 FF FF 7F 1D 00  80 23 1D 01 80 23 21 00   ........#...#!.
```

#### Opcodes

```
  0: 0x0001 [0x1E] EventEntity looks at LocalPlayer and starts talking
  1: 0x0006 [0x1D] PRINT_EVENT_MESSAGE(message_id=10728*)
    → "Yo ho ho and a bottle of mulsum! I may be a pirate, but ye won't sees me plunderin' the hearts of the wee lads and lassies!"
  2: 0x0009 [0x23] WAIT_FOR_DIALOG_INTERACTION
  3: 0x000A [0x1D] PRINT_EVENT_MESSAGE(message_id=10729*)
    → "Here, ya scurvy dawg, takes this booty and pass her on to an innocent child. Arrrg, but if I hears ya kept it fer yer own lonesome, I'll personally sees ya walk the plank!"
  4: 0x000D [0x23] WAIT_FOR_DIALOG_INTERACTION
  5: 0x000E [0x21] END_EVENT
  6: 0x000F [0x00] END_REQSTACK()
```

### Event 893

#### Metadata

| Field        | Value     |
|--------------|-----------|
| Entrypoint   | 0x0010    |
| Data Size    | 414 bytes |
| Instructions | 110       |

```
      00 01 02 03 04 05 06 07  08 09 0A 0B 0C 0D 0E 0F
      -- -- -- -- -- -- -- --  -- -- -- -- -- -- -- --
0010: 42 1E F0 FF FF 7F 1D 02  80 23 03 03 10 03 80 1D  B........#......
0020: 04 80 23 1A 05 01 03 00  00 00 10 43 00 43 01 03  ..#........C.C..
0030: 03 10 05 80 1D 04 80 23  1A 05 01 03 01 00 00 10  .......#........
0040: 43 00 43 01 03 03 10 06  80 1D 04 80 23 1A 05 01  C.C.........#...
0050: 03 02 00 00 10 43 00 43  01 03 03 10 00 00 03 04  .....C.C........
0060: 10 01 00 03 05 10 02 00  1D 07 80 23 24 08 80 09  ...........#$...
0070: 80 0A 80 25 02 00 10 0A  80 00 88 00 03 01 10 0B  ...%............
0080: 80 43 00 43 01 01 DE 00  02 00 10 09 80 00 DE 00  .C.C............
0090: 03 01 10 0C 80 43 00 43  01 03 03 10 03 80 1D 0D  .....C.C........
00A0: 80 23 1A 05 01 03 00 00  00 10 43 00 43 01 03 03  .#........C.C...
00B0: 10 05 80 1D 0D 80 23 1A  05 01 03 01 00 00 10 43  ......#........C
00C0: 00 43 01 03 03 10 06 80  1D 0D 80 23 1A 05 01 03  .C.........#....
00D0: 02 00 00 10 43 00 43 01  01 59 00 01 DE 00 02 02  ....C.C..Y......
00E0: 10 0E 80 00 FA 00 1D 0F  80 23 1D 10 80 23 1D 11  .........#...#..
00F0: 80 23 03 01 10 09 80 01  03 01 1D 12 80 23 03 01  .#...........#..
0100: 10 0A 80 21 00 24 13 80  0A 80 0A 80 25 02 00 10  ...!.$......%...
0110: 0A 80 00 1D 01 03 01 10  09 80 01 AD 01 02 00 10  ................
0120: 09 80 00 2D 01 03 01 10  14 80 01 AD 01 02 00 10  ...-............
0130: 15 80 00 3D 01 03 01 10  15 80 01 AD 01 02 00 10  ...=............
0140: 0E 80 00 4D 01 03 01 10  16 80 01 AD 01 02 00 10  ...M............
0150: 16 80 00 5D 01 03 01 10  0A 80 01 AD 01 02 00 10  ...]............
0160: 14 80 00 6D 01 03 01 10  0E 80 01 AD 01 02 00 10  ...m............
0170: 17 80 00 7D 01 03 01 10  18 80 01 AD 01 02 00 10  ...}............
0180: 18 80 00 8D 01 03 01 10  19 80 01 AD 01 02 00 10  ................
0190: 19 80 00 9D 01 03 01 10  17 80 01 AD 01 02 00 10  ................
01A0: 1A 80 00 AD 01 03 01 10  1A 80 01 AD 01 1B        ..............  
```

#### Opcodes

```
  0: 0x0010 [0x42] SET_CLI_EVENT_CANCEL_DATA()
  1: 0x0011 [0x1E] EventEntity looks at LocalPlayer and starts talking
  2: 0x0016 [0x1D] PRINT_EVENT_MESSAGE(message_id=10731*)
    → "What's this? Might it be maps of buried treasure? Hm? Letter from the kiddies? Arrrg, brings a tear t'me one good eye."
  3: 0x0019 [0x23] WAIT_FOR_DIALOG_INTERACTION
  4: 0x001A [0x03] Work_Zone[3] = 1746*
  5: 0x001F [0x1D] PRINT_EVENT_MESSAGE(message_id=10732*)
    → "Do ye remember the name of the lassie that wrote this here $1?"
  6: 0x0022 [0x23] WAIT_FOR_DIALOG_INTERACTION
  7: 0x0023 [0x1A] CALL_SUBROUTINE(address=0x0105)
  8: 0x0026 [0x03] ExtData[1]->WorkLocal[0] = Work_Zone[0]
  9: 0x002B [0x43] SEND_EVENT_UPDATE: Send pending tag to server (packet 0x005B)
 10: 0x002D [0x43] SEND_EVENT_UPDATE: Check pending flag (skip if not pending)
 11: 0x002F [0x03] Work_Zone[3] = 1747*
 12: 0x0034 [0x1D] PRINT_EVENT_MESSAGE(message_id=10732*)
    → "Do ye remember the name of the lassie that wrote this here $1?"
 13: 0x0037 [0x23] WAIT_FOR_DIALOG_INTERACTION
 14: 0x0038 [0x1A] CALL_SUBROUTINE(address=0x0105)
 15: 0x003B [0x03] ExtData[1]->WorkLocal[1] = Work_Zone[0]
 16: 0x0040 [0x43] SEND_EVENT_UPDATE: Send pending tag to server (packet 0x005B)
 17: 0x0042 [0x43] SEND_EVENT_UPDATE: Check pending flag (skip if not pending)
 18: 0x0044 [0x03] Work_Zone[3] = 1748*
 19: 0x0049 [0x1D] PRINT_EVENT_MESSAGE(message_id=10732*)
    → "Do ye remember the name of the lassie that wrote this here $1?"
 20: 0x004C [0x23] WAIT_FOR_DIALOG_INTERACTION
 21: 0x004D [0x1A] CALL_SUBROUTINE(address=0x0105)
 22: 0x0050 [0x03] ExtData[1]->WorkLocal[2] = Work_Zone[0]
 23: 0x0055 [0x43] SEND_EVENT_UPDATE: Send pending tag to server (packet 0x005B)
 24: 0x0057 [0x43] SEND_EVENT_UPDATE: Check pending flag (skip if not pending)
 25: 0x0059 [0x03] Work_Zone[3] = ExtData[1]->WorkLocal[0]
 26: 0x005E [0x03] Work_Zone[4] = ExtData[1]->WorkLocal[1]
 27: 0x0063 [0x03] Work_Zone[5] = ExtData[1]->WorkLocal[2]
 28: 0x0068 [0x1D] PRINT_EVENT_MESSAGE(message_id=10734*)
    → "Arrrg, are ye absolutely, positively sure that it was [Arukoko/Chomomo/Hororo/Komomo/Mimomo/Myumimi/Paruru/Pichichi/Purakoko/Shanruru], [Arukoko/Chomomo/Hororo/Komomo/Mimomo/Myumimi/Paruru/Pichichi/Purakoko/Shanruru], and [Arukoko/Chomomo/Hororo/Komomo/Mimomo/Myumimi/Paruru/Pichichi/Purakoko/Shanruru] that gave ye th'letters?"
 29: 0x006B [0x23] WAIT_FOR_DIALOG_INTERACTION
 30: 0x006C [0x24] CREATE_DIALOG(message_id=10735*, default_option=1*, option_flags=0*)
    → "Well? [Absolutely, positively!/Wait a minute...]"
 31: 0x0073 [0x25] WAIT_DIALOG_SELECT()
 32: 0x0074 [0x02] IF !(Work_Zone[0] == 0*) GOTO 0x0088
 33: 0x007C [0x03] Work_Zone[1] = 200*
 34: 0x0081 [0x43] SEND_EVENT_UPDATE: Send pending tag to server (packet 0x005B)
 35: 0x0083 [0x43] SEND_EVENT_UPDATE: Check pending flag (skip if not pending)
 36: 0x0085 [0x01] GOTO 0x00DE
 37: 0x0088 [0x02] IF !(Work_Zone[0] == 1*) GOTO 0x00DE
 38: 0x0090 [0x03] Work_Zone[1] = 100*
 39: 0x0095 [0x43] SEND_EVENT_UPDATE: Send pending tag to server (packet 0x005B)
 40: 0x0097 [0x43] SEND_EVENT_UPDATE: Check pending flag (skip if not pending)
 41: 0x0099 [0x03] Work_Zone[3] = 1746*
 42: 0x009E [0x1D] PRINT_EVENT_MESSAGE(message_id=10736*)
    → "I wonders who could've written this $1..."
 43: 0x00A1 [0x23] WAIT_FOR_DIALOG_INTERACTION
 44: 0x00A2 [0x1A] CALL_SUBROUTINE(address=0x0105)
 45: 0x00A5 [0x03] ExtData[1]->WorkLocal[0] = Work_Zone[0]
 46: 0x00AA [0x43] SEND_EVENT_UPDATE: Send pending tag to server (packet 0x005B)
 47: 0x00AC [0x43] SEND_EVENT_UPDATE: Check pending flag (skip if not pending)
 48: 0x00AE [0x03] Work_Zone[3] = 1747*
 49: 0x00B3 [0x1D] PRINT_EVENT_MESSAGE(message_id=10736*)
    → "I wonders who could've written this $1..."
 50: 0x00B6 [0x23] WAIT_FOR_DIALOG_INTERACTION
 51: 0x00B7 [0x1A] CALL_SUBROUTINE(address=0x0105)
 52: 0x00BA [0x03] ExtData[1]->WorkLocal[1] = Work_Zone[0]
 53: 0x00BF [0x43] SEND_EVENT_UPDATE: Send pending tag to server (packet 0x005B)
 54: 0x00C1 [0x43] SEND_EVENT_UPDATE: Check pending flag (skip if not pending)
 55: 0x00C3 [0x03] Work_Zone[3] = 1748*
 56: 0x00C8 [0x1D] PRINT_EVENT_MESSAGE(message_id=10736*)
    → "I wonders who could've written this $1..."
 57: 0x00CB [0x23] WAIT_FOR_DIALOG_INTERACTION
 58: 0x00CC [0x1A] CALL_SUBROUTINE(address=0x0105)
 59: 0x00CF [0x03] ExtData[1]->WorkLocal[2] = Work_Zone[0]
 60: 0x00D4 [0x43] SEND_EVENT_UPDATE: Send pending tag to server (packet 0x005B)
 61: 0x00D6 [0x43] SEND_EVENT_UPDATE: Check pending flag (skip if not pending)
 62: 0x00D8 [0x01] GOTO 0x0059

SUBROUTINE_00DE:
 63: 0x00DE [0x02] IF !(Work_Zone[2] == 3*) GOTO 0x00FA
 64: 0x00E6 [0x1D] PRINT_EVENT_MESSAGE(message_id=10737*)
    → "Yo ho ho`! Those wee children'd make fine pirates!"
 65: 0x00E9 [0x23] WAIT_FOR_DIALOG_INTERACTION
 66: 0x00EA [0x1D] PRINT_EVENT_MESSAGE(message_id=10738*)
    → "Arrrg, I can tells by the look on yer face that you'd like t'bring some joy of yer own t'the children. Here, take me hat."
 67: 0x00ED [0x23] WAIT_FOR_DIALOG_INTERACTION
 68: 0x00EE [0x1D] PRINT_EVENT_MESSAGE(message_id=10739*)
    → "Ye can always tell a pirate by lookin' at the dawg's hat; the kids can too!"
 69: 0x00F1 [0x23] WAIT_FOR_DIALOG_INTERACTION
 70: 0x00F2 [0x03] Work_Zone[1] = 1*
 71: 0x00F7 [0x01] GOTO 0x0103
 72: 0x00FA [0x1D] PRINT_EVENT_MESSAGE(message_id=10740*)
    → "Yo ho ho`! Those wee children'd make fine pirates!"
 73: 0x00FD [0x23] WAIT_FOR_DIALOG_INTERACTION
 74: 0x00FE [0x03] Work_Zone[1] = 0*

SUBROUTINE_0103:
 75: 0x0103 [0x21] END_EVENT
 76: 0x0104 [0x00] END_REQSTACK()

SUBROUTINE_0105:
 77: 0x0105 [0x24] CREATE_DIALOG(message_id=10733*, default_option=0*, option_flags=0*)
    → "Who was it? [Arukoko./Chomomo./Hororo./Komomo./Mimomo./Myumimi./Paruru./Pichichi./Purakoko./Shanruru.]"
 78: 0x010C [0x25] WAIT_DIALOG_SELECT()
 79: 0x010D [0x02] IF !(Work_Zone[0] == 0*) GOTO 0x011D
 80: 0x0115 [0x03] Work_Zone[1] = 1*
 81: 0x011A [0x01] GOTO 0x01AD
 82: 0x011D [0x02] IF !(Work_Zone[0] == 1*) GOTO 0x012D
 83: 0x0125 [0x03] Work_Zone[1] = 5*
 84: 0x012A [0x01] GOTO 0x01AD
 85: 0x012D [0x02] IF !(Work_Zone[0] == 2*) GOTO 0x013D
 86: 0x0135 [0x03] Work_Zone[1] = 2*
 87: 0x013A [0x01] GOTO 0x01AD
 88: 0x013D [0x02] IF !(Work_Zone[0] == 3*) GOTO 0x014D
 89: 0x0145 [0x03] Work_Zone[1] = 4*
 90: 0x014A [0x01] GOTO 0x01AD
 91: 0x014D [0x02] IF !(Work_Zone[0] == 4*) GOTO 0x015D
 92: 0x0155 [0x03] Work_Zone[1] = 0*
 93: 0x015A [0x01] GOTO 0x01AD
 94: 0x015D [0x02] IF !(Work_Zone[0] == 5*) GOTO 0x016D
 95: 0x0165 [0x03] Work_Zone[1] = 3*
 96: 0x016A [0x01] GOTO 0x01AD
 97: 0x016D [0x02] IF !(Work_Zone[0] == 6*) GOTO 0x017D
 98: 0x0175 [0x03] Work_Zone[1] = 7*
 99: 0x017A [0x01] GOTO 0x01AD
100: 0x017D [0x02] IF !(Work_Zone[0] == 7*) GOTO 0x018D
101: 0x0185 [0x03] Work_Zone[1] = 8*
102: 0x018A [0x01] GOTO 0x01AD
103: 0x018D [0x02] IF !(Work_Zone[0] == 8*) GOTO 0x019D
104: 0x0195 [0x03] Work_Zone[1] = 6*
105: 0x019A [0x01] GOTO 0x01AD
106: 0x019D [0x02] IF !(Work_Zone[0] == 9*) GOTO 0x01AD
107: 0x01A5 [0x03] Work_Zone[1] = 9*
108: 0x01AA [0x01] GOTO 0x01AD

SUBROUTINE_01AD:
109: 0x01AD [0x1B] RETURN
```

#### Data or dead code:

```
# Dead code (unreachable instructions):
     0x00DB [0x01] GOTO 0x00DE
```

### Event 32742

#### Metadata

| Field        | Value    |
|--------------|----------|
| Entrypoint   | 0x01AE   |
| Data Size    | 23 bytes |
| Instructions | 11       |

```
      00 01 02 03 04 05 06 07  08 09 0A 0B 0C 0D 0E 0F
      -- -- -- -- -- -- -- --  -- -- -- -- -- -- -- --
01A0:                                            1E F0                ..
01B0: FF FF 7F 1D 1B 80 23 1D  1C 80 23 1D 1D 80 23 1D  ......#...#...#.
01C0: 1E 80 23 21 00                                    ..#!.           
```

#### Opcodes

```
  0: 0x01AE [0x1E] EventEntity looks at LocalPlayer and starts talking
  1: 0x01B3 [0x1D] PRINT_EVENT_MESSAGE(message_id=10844*)
    → "Are you spreading joy to the children of Vana'diel? Hey, I can tell you something you should know!"
  2: 0x01B6 [0x23] WAIT_FOR_DIALOG_INTERACTION
  3: 0x01B7 [0x1D] PRINT_EVENT_MESSAGE(message_id=10845*)
    → "Listen close, now! To make the children happy you must...give them presents! You should think hard about what to get them! You might say it's the thought that counts, but unfortunately, the children think otherwise!"
  4: 0x01BA [0x23] WAIT_FOR_DIALOG_INTERACTION
  5: 0x01BB [0x1D] PRINT_EVENT_MESSAGE(message_id=10846*)
    → "You should also wear a red hat like the one I have on now! It'll prove you're a smilebringer, so the kids won't think you're a creep."
  6: 0x01BE [0x23] WAIT_FOR_DIALOG_INTERACTION
  7: 0x01BF [0x1D] PRINT_EVENT_MESSAGE(message_id=10847*)
    → "Where can you find a hat? Well, I saw someone selling them around here earlier. I'm sure you can find them if you look!"
  8: 0x01C2 [0x23] WAIT_FOR_DIALOG_INTERACTION
  9: 0x01C3 [0x21] END_EVENT
 10: 0x01C4 [0x00] END_REQSTACK()
```

### Event 32741

#### Metadata

| Field        | Value     |
|--------------|-----------|
| Entrypoint   | 0x01C5    |
| Data Size    | 195 bytes |
| Instructions | 51        |

```
      00 01 02 03 04 05 06 07  08 09 0A 0B 0C 0D 0E 0F
      -- -- -- -- -- -- -- --  -- -- -- -- -- -- -- --
01C0:                1E F0 FF  FF 7F 1D 1F 80 23 1D 20       ........#. 
01D0: 80 23 24 21 80 0A 80 02  10 25 02 00 10 0A 80 00  .#$!.....%......
01E0: EA 01 03 01 10 0A 80 01  86 02 02 00 10 09 80 00  ................
01F0: 1E 02 02 04 10 22 80 04  17 02 42 1D 23 80 23 AD  ....."....B.#.#.
0200: 00 24 80 F8 FF FF 7F F0  FF FF 7F 1C 25 80 30 03  .$..........%.0.
0210: 01 10 09 80 01 1B 02 1D  26 80 23 01 86 02 02 00  ........&.#.....
0220: 10 15 80 00 52 02 02 04  10 22 80 04 4B 02 42 1D  ....R...."..K.B.
0230: 23 80 23 AD 00 24 80 F8  FF FF 7F F0 FF FF 7F 1C  #.#..$..........
0240: 25 80 30 03 01 10 15 80  01 4F 02 1D 26 80 23 01  %.0......O..&.#.
0250: 86 02 02 00 10 0E 80 00  86 02 02 04 10 22 80 04  ............."..
0260: 7F 02 42 1D 23 80 23 AD  00 24 80 F8 FF FF 7F F0  ..B.#.#..$......
0270: FF FF 7F 1C 25 80 30 03  01 10 0E 80 01 83 02 1D  ....%.0.........
0280: 26 80 23 01 86 02 21 00                           &.#...!.        
```

#### Opcodes

```
  0: 0x01C5 [0x1E] EventEntity looks at LocalPlayer and starts talking
  1: 0x01CA [0x1D] PRINT_EVENT_MESSAGE(message_id=10848*)
    → "[You haven't brought any happiness to the children!/You've done some good./You have done fairly well./You have given the children much joy!/You have brought smile upon smile to the children!/You have the children bursting with glee!/The children love you!] [What a disappointment./You just need to give a little extra effort!/Keep it up!/You make a good smilebringer./Excellent work!/Stupendous job!/Even I think you're great!]"
  2: 0x01CD [0x23] WAIT_FOR_DIALOG_INTERACTION
  3: 0x01CE [0x1D] PRINT_EVENT_MESSAGE(message_id=10849*)
    → "You can make good use of some of that joy you've brought to transport yourself to another nation. The children in other parts of Vana'diel need smiles, too!"
  4: 0x01D1 [0x23] WAIT_FOR_DIALOG_INTERACTION
  5: 0x01D2 [0x24] CREATE_DIALOG(message_id=10850*, default_option=0*, option_flags=Work_Zone[2])
    → "Transport to another nation? [Not now./Go to San d'Oria./Go to Bastok./Go to Windurst.]"
  6: 0x01D9 [0x25] WAIT_DIALOG_SELECT()
  7: 0x01DA [0x02] IF !(Work_Zone[0] == 0*) GOTO 0x01EA
  8: 0x01E2 [0x03] Work_Zone[1] = 0*
  9: 0x01E7 [0x01] GOTO 0x0286
 10: 0x01EA [0x02] IF !(Work_Zone[0] == 1*) GOTO 0x021E
 11: 0x01F2 [0x02] IF !(Work_Zone[4] < 20*) GOTO 0x0217
 12: 0x01FA [0x42] SET_CLI_EVENT_CANCEL_DATA()
 13: 0x01FB [0x1D] PRINT_EVENT_MESSAGE(message_id=10851*)
    → "See ya!"
 14: 0x01FE [0x23] WAIT_FOR_DIALOG_INTERACTION
 15: 0x01FF [0xAD] DUAL_ENTITY_SCHEDULER_HANDLER: Execute sub-case 0 with entities [EventEntity, LocalPlayer], work=25*
 16: 0x020B [0x1C] WAIT(180* ticks)
 17: 0x020E [0x30] SET_UCOFF_CONTINUE_ZERO()
 18: 0x020F [0x03] Work_Zone[1] = 1*
 19: 0x0214 [0x01] GOTO 0x021B
 20: 0x0217 [0x1D] PRINT_EVENT_MESSAGE(message_id=10852*)
    → "Sorry, but it looks like you don't have enough joy and happiness in your life to do that. You can earn some by giving presents to children, though!"
 21: 0x021A [0x23] WAIT_FOR_DIALOG_INTERACTION

SUBROUTINE_021B:
 22: 0x021B [0x01] GOTO 0x0286
 23: 0x021E [0x02] IF !(Work_Zone[0] == 2*) GOTO 0x0252
 24: 0x0226 [0x02] IF !(Work_Zone[4] < 20*) GOTO 0x024B
 25: 0x022E [0x42] SET_CLI_EVENT_CANCEL_DATA()
 26: 0x022F [0x1D] PRINT_EVENT_MESSAGE(message_id=10851*)
    → "See ya!"
 27: 0x0232 [0x23] WAIT_FOR_DIALOG_INTERACTION
 28: 0x0233 [0xAD] DUAL_ENTITY_SCHEDULER_HANDLER: Execute sub-case 0 with entities [EventEntity, LocalPlayer], work=25*
 29: 0x023F [0x1C] WAIT(180* ticks)
 30: 0x0242 [0x30] SET_UCOFF_CONTINUE_ZERO()
 31: 0x0243 [0x03] Work_Zone[1] = 2*
 32: 0x0248 [0x01] GOTO 0x024F
 33: 0x024B [0x1D] PRINT_EVENT_MESSAGE(message_id=10852*)
    → "Sorry, but it looks like you don't have enough joy and happiness in your life to do that. You can earn some by giving presents to children, though!"
 34: 0x024E [0x23] WAIT_FOR_DIALOG_INTERACTION

SUBROUTINE_024F:
 35: 0x024F [0x01] GOTO 0x0286
 36: 0x0252 [0x02] IF !(Work_Zone[0] == 3*) GOTO 0x0286
 37: 0x025A [0x02] IF !(Work_Zone[4] < 20*) GOTO 0x027F
 38: 0x0262 [0x42] SET_CLI_EVENT_CANCEL_DATA()
 39: 0x0263 [0x1D] PRINT_EVENT_MESSAGE(message_id=10851*)
    → "See ya!"
 40: 0x0266 [0x23] WAIT_FOR_DIALOG_INTERACTION
 41: 0x0267 [0xAD] DUAL_ENTITY_SCHEDULER_HANDLER: Execute sub-case 0 with entities [EventEntity, LocalPlayer], work=25*
 42: 0x0273 [0x1C] WAIT(180* ticks)
 43: 0x0276 [0x30] SET_UCOFF_CONTINUE_ZERO()
 44: 0x0277 [0x03] Work_Zone[1] = 3*
 45: 0x027C [0x01] GOTO 0x0283
 46: 0x027F [0x1D] PRINT_EVENT_MESSAGE(message_id=10852*)
    → "Sorry, but it looks like you don't have enough joy and happiness in your life to do that. You can earn some by giving presents to children, though!"
 47: 0x0282 [0x23] WAIT_FOR_DIALOG_INTERACTION

SUBROUTINE_0283:
 48: 0x0283 [0x01] GOTO 0x0286

SUBROUTINE_0286:
 49: 0x0286 [0x21] END_EVENT
 50: 0x0287 [0x00] END_REQSTACK()
```
