# 17752137 - Hakeem

## Common Data

| Field            | Value                     |
|------------------|---------------------------|
| Zone             | Windurst Waters (ID: 238) |
| Block Size       | 1064 bytes                |
| Total Events     | 6                         |
| References Count | 37                        |

## List of Events

| Event ID              | Entrypoint   |   Size |   Instructions |
|-----------------------|--------------|--------|----------------|
| [65535](#event-65535) | 0x0000       |      1 |              1 |
| [978](#event-978)     | 0x0001       |      7 |              2 |
| [983](#event-983)     | 0x0008       |      7 |              2 |
| [980](#event-980)     | 0x000F       |      7 |              2 |
| [981](#event-981)     | 0x0016       |      7 |              2 |
| [10017](#event-10017) | 0x001D       |    844 |            173 |

## DAT References (imed_data)

|   Index | Hex Value   |   Dec Value |
|---------|-------------|-------------|
|       0 | 0x0008      |           8 |
|       1 | 0x1C11      |        7185 |
|       2 | 0x0002      |           2 |
|       3 | 0x0000      |           0 |
|       4 | 0x1C65      |        7269 |
|       5 | 0x1C67      |        7271 |
|       6 | 0x00C8      |         200 |
|       7 | 0x005A      |          90 |
|       8 | 0x0001      |           1 |
|       9 | 0x008C      |         140 |
|      10 | 0x000F      |          15 |
|      11 | 0x000A      |          10 |
|      12 | 0x1C42      |        7234 |
|      13 | 0x40000000  |  1073741824 |
|      14 | 0x0010      |          16 |
|      15 | 0x0003      |           3 |
|      16 | 0x0004      |           4 |
|      17 | 0x0005      |           5 |
|      18 | 0x0006      |           6 |
|      19 | 0x0007      |           7 |
|      20 | 0x0009      |           9 |
|      21 | 0x000B      |          11 |
|      22 | 0x000C      |          12 |
|      23 | 0x000D      |          13 |
|      24 | 0x000E      |          14 |
|      25 | 0x0011      |          17 |
|      26 | 0x1C43      |        7235 |
|      27 | 0x1C7B      |        7291 |
|      28 | 0x1C68      |        7272 |
|      29 | 0x1C16      |        7190 |
|      30 | 0x1C3C      |        7228 |
|      31 | 0x1C1A      |        7194 |
|      32 | 0x1C19      |        7193 |
|      33 | 0x1C18      |        7192 |
|      34 | 0x1C17      |        7191 |
|      35 | 0x1C69      |        7273 |
|      36 | 0x1C64      |        7268 |

## String References

- **7185**: Request...? [[Advanced synthesis/Synthesis/Synthesis] image support./Information on synthesis materials./Nothing.]
- **7190**: Necessary skills: [Fishing/Woodworking/Smithing/Goldsmithing/Clothcraft/Leatherworking/Bonecraft/Alchemy/Cooking][ /, Woodworking/, Smithing/, Goldsmithing/, Clothcraft/, Leatherworking/, Bonecraft/, Alchemy/, Cooking][ /, Woodworking/, Smithing/, Goldsmithing/, Clothcraft/, Leatherworking/, Bonecraft/, Alchemy/, Cooking][ /, & Woodworking/, & Smithing/, & Goldsmithing/, & Clothcraft/, & Leatherworking/, & Bonecraft/, & Alchemy/, & Cooking] Necessary crystal: $4 Necessary items:
- **7191**: $4 x $0 $5 x $0$0 $6 x $0 $7 x $0$3
- **7192**: $4 x $0 $5 x $0$0 $6 x $0
- **7193**: $4 x $0 $5 x $0$0
- **7194**: $4 x $0
- **7228**: Necessary skills: [Fishing/Woodworking/Smithing/Goldsmithing/Clothcraft/Leatherworking/Bonecraft/Alchemy/Cooking][ /, Woodworking/, Smithing/, Goldsmithing/, Clothcraft/, Leatherworking/, Bonecraft/, Alchemy/, Cooking][ /, Woodworking/, Smithing/, Goldsmithing/, Clothcraft/, Leatherworking/, Bonecraft/, Alchemy/, Cooking][ /, & Woodworking/, & Smithing/, & Goldsmithing/, & Clothcraft/, & Leatherworking/, & Bonecraft/, & Alchemy/, & Cooking] Necessary crystal: $4 Necessary key item: $3 Necessary items:
- **7234**: Which rank of synthesis do you ask about? [Never mind./Amateur./Recruit./Initiate./Novice./Apprentice./Journeyman./Craftsman./Artisan./Adept./Veteran./Expert./Authority./Luminary./Master./Grandmaster.]
- **7235**: Which synthesis recipe do you ask about? [None./%./$1./$2./$3./$4./$5./$6./$7./$8./$9./$10./$11./$12./$13./$14./$15./View more recipes.]
- **7268**: I'm sorry, but could you please not bother me? You might make me slip up.
- **7269**: I don't believe you need any assistance right now.
- **7271**: Clear your mind and meditate...
- **7272**: With your current culinary skills, I believe $0 is about your cup of tea...
- **7273**: Practice makes perfect, so apply yourself to your studies everyday.
- **7291**: The synthesis items for that rank are still beyond your skill, I'm afraid.

## Events

### Event 65535

#### Metadata

| Field        | Value   |
|--------------|---------|
| Entrypoint   | 0x0000  |
| Data Size    | 1 bytes |
| Instructions | 1       |

```
      00 01 02 03 04 05 06 07  08 09 0A 0B 0C 0D 0E 0F
      -- -- -- -- -- -- -- --  -- -- -- -- -- -- -- --
0000: 00                                                .               
```

#### Opcodes

```
  0: 0x0000 [0x00] END_REQSTACK()
```

### Event 978

#### Metadata

| Field        | Value   |
|--------------|---------|
| Entrypoint   | 0x0001  |
| Data Size    | 7 bytes |
| Instructions | 2       |

```
      00 01 02 03 04 05 06 07  08 09 0A 0B 0C 0D 0E 0F
      -- -- -- -- -- -- -- --  -- -- -- -- -- -- -- --
0000:    92 01 F8 FF FF 7F 00                            .......        
```

#### Opcodes

```
  0: 0x0001 [0x92] EventEntity->Render.Flags3 ^= 0x01
  1: 0x0007 [0x00] END_REQSTACK()
```

### Event 983

#### Metadata

| Field        | Value   |
|--------------|---------|
| Entrypoint   | 0x0008  |
| Data Size    | 7 bytes |
| Instructions | 2       |

```
      00 01 02 03 04 05 06 07  08 09 0A 0B 0C 0D 0E 0F
      -- -- -- -- -- -- -- --  -- -- -- -- -- -- -- --
0000:                          92 01 F8 FF FF 7F 00             ....... 
```

#### Opcodes

```
  0: 0x0008 [0x92] EventEntity->Render.Flags3 ^= 0x01
  1: 0x000E [0x00] END_REQSTACK()
```

### Event 980

#### Metadata

| Field        | Value   |
|--------------|---------|
| Entrypoint   | 0x000F  |
| Data Size    | 7 bytes |
| Instructions | 2       |

```
      00 01 02 03 04 05 06 07  08 09 0A 0B 0C 0D 0E 0F
      -- -- -- -- -- -- -- --  -- -- -- -- -- -- -- --
0000:                                               92                 .
0010: 01 F8 FF FF 7F 00                                 ......          
```

#### Opcodes

```
  0: 0x000F [0x92] EventEntity->Render.Flags3 ^= 0x01
  1: 0x0015 [0x00] END_REQSTACK()
```

### Event 981

#### Metadata

| Field        | Value   |
|--------------|---------|
| Entrypoint   | 0x0016  |
| Data Size    | 7 bytes |
| Instructions | 2       |

```
      00 01 02 03 04 05 06 07  08 09 0A 0B 0C 0D 0E 0F
      -- -- -- -- -- -- -- --  -- -- -- -- -- -- -- --
0010:                   92 01  F8 FF FF 7F 00                 .......   
```

#### Opcodes

```
  0: 0x0016 [0x92] EventEntity->Render.Flags3 ^= 0x01
  1: 0x001C [0x00] END_REQSTACK()
```

### Event 10017

#### Metadata

| Field        | Value     |
|--------------|-----------|
| Entrypoint   | 0x001D    |
| Data Size    | 844 bytes |
| Instructions | 166       |

```
      00 01 02 03 04 05 06 07  08 09 0A 0B 0C 0D 0E 0F
      -- -- -- -- -- -- -- --  -- -- -- -- -- -- -- --
0010:                                         3E 05 10               >..
0020: 00 80 63 03 24 01 80 02  80 03 80 25 02 00 10 03  ..c.$......%....
0030: 80 00 75 00 02 07 10 03  80 01 43 00 1D 04 80 23  ..u.......C....#
0040: 01 72 00 1D 05 80 23 42  45 06 80 F8 FF FF 7F F8  .r....#BE.......
0050: FF FF 7F 66 64 6F 31 03  80 1C 07 80 45 06 80 F8  ...fdo1.....E...
0060: FF FF 7F F8 FF FF 7F 66  64 69 31 03 80 03 01 10  .......fdi1.....
0070: 08 80 01 60 03 02 00 10  08 80 00 55 03 03 08 10  ...`.......U....
0080: 00 80 03 03 00 08 10 03  05 00 03 10 06 00 00 03  ................
0090: 02 00 09 80 03 01 00 0A  80 02 03 10 02 00 05 AB  ................
00A0: 00 3C 00 00 01 00 08 80  01 AE 00 01 C1 00 02 01  .<..............
00B0: 00 02 80 02 C1 00 0C 01  00 08 02 00 0B 80 01 99  ................
00C0: 00 24 0C 80 03 80 00 00  25 02 00 10 03 80 00 DB  .$......%.......
00D0: 00 03 01 10 0D 80 21 00  01 DB 00 03 04 00 00 10  ......!.........
00E0: 0C 04 00 03 06 00 03 80  03 07 00 0E 80 8C 02 03  ................
00F0: 00 05 00 04 00 06 00 07  00 8C 01 03 00 00 03 80  ................
0100: 02 02 10 03 80 00 0E 01  06 40 10 01 49 02 02 03  .........@..I...
0110: 10 03 80 00 1D 01 3C 00  00 02 80 08 80 02 04 10  ......<.........
0120: 03 80 00 2C 01 3C 00 00  0F 80 08 80 02 05 10 03  ...,.<..........
0130: 80 00 3B 01 3C 00 00 10  80 08 80 02 06 10 03 80  ..;.<...........
0140: 00 4A 01 3C 00 00 11 80  08 80 02 07 10 03 80 00  .J.<............
0150: 59 01 3C 00 00 12 80 08  80 02 08 10 03 80 00 68  Y.<............h
0160: 01 3C 00 00 13 80 08 80  02 09 10 03 80 00 77 01  .<............w.
0170: 3C 00 00 00 80 08 80 02  00 17 03 80 00 86 01 3C  <..............<
0180: 00 00 14 80 08 80 02 01  17 03 80 00 95 01 3C 00  ..............<.
0190: 00 0B 80 08 80 02 02 17  03 80 00 A4 01 3C 00 00  .............<..
01A0: 15 80 08 80 02 03 17 03  80 00 B3 01 3C 00 00 16  ............<...
01B0: 80 08 80 02 04 17 03 80  00 C2 01 3C 00 00 17 80  ...........<....
01C0: 08 80 02 05 17 03 80 00  D1 01 3C 00 00 18 80 08  ..........<.....
01D0: 80 02 06 17 03 80 00 E0  01 3C 00 00 0A 80 08 80  .........<......
01E0: 02 07 17 03 80 00 EF 01  3C 00 00 0E 80 08 80 02  ........<.......
01F0: 08 17 03 80 00 FE 01 3C  00 00 19 80 08 80 24 1A  .......<......$.
0200: 80 03 80 00 00 25 02 00  10 03 80 00 18 02 03 01  .....%..........
0210: 10 0D 80 21 00 01 30 02  02 00 10 19 80 00 30 02  ...!..0.......0.
0220: 07 06 00 0E 80 07 07 00  0E 80 01 ED 00 01 30 02  ..............0.
0230: 03 08 00 06 00 07 08 00  00 10 0C 08 00 8C 03 03  ................
0240: 00 05 00 04 00 08 00 8C  01 02 40 10 03 80 00 57  ..........@....W
0250: 02 1D 1B 80 23 21 00 03  02 10 40 10 1D 1C 80 23  ....#!....@....#
0260: 03 08 10 00 80 03 03 10  41 10 03 04 10 42 10 03  ........A....B..
0270: 05 10 43 10 03 06 10 44  10 03 07 10 55 10 02 07  ..C....D....U...
0280: 10 03 80 00 8D 02 48 1D  80 23 01 91 02 48 1E 80  ......H..#...H..
0290: 23 03 02 10 45 10 03 03  10 46 10 03 04 10 47 10  #...E....F....G.
02A0: 03 05 10 48 10 03 06 10  4D 10 03 07 10 4E 10 03  ...H....M....N..
02B0: 08 10 4F 10 03 09 10 50  10 02 07 10 03 80 00 C8  ..O....P........
02C0: 02 48 1F 80 23 01 4E 03  02 08 10 03 80 00 D7 02  .H..#.N.........
02D0: 48 20 80 23 01 4E 03 02  09 10 03 80 00 E6 02 48  H .#.N.........H
02E0: 21 80 23 01 4E 03 48 22  80 23 03 02 10 49 10 03  !.#.N.H".#...I..
02F0: 03 10 4A 10 03 04 10 4B  10 03 05 10 4C 10 03 06  ..J....K....L...
0300: 10 51 10 03 07 10 52 10  03 08 10 53 10 03 09 10  .Q....R....S....
0310: 54 10 02 06 10 03 80 00  1D 03 01 4E 03 02 07 10  T..........N....
0320: 03 80 00 2C 03 48 1F 80  23 01 4E 03 02 08 10 03  ...,.H..#.N.....
0330: 80 00 3B 03 48 20 80 23  01 4E 03 02 09 10 03 80  ..;.H .#.N......
0340: 00 4A 03 48 21 80 23 01  4E 03 48 22 80 23 1D 23  .J.H!.#.N.H".#.#
0350: 80 23 01 60 03 02 00 10  02 80 00 60 03 01 60 03  .#.`.......`..`.
0360: 01 67 03 1D 24 80 23 21  00                       .g..$.#!.       
```

#### Opcodes

```
  0: 0x001D [0x3E] IF !(Work_Zone[5] bit 8*) GOTO 0x0363
  1: 0x0024 [0x24] CREATE_DIALOG(message_id=7185*, default_option=2*, option_flags=0*)
    → "Request...? [[Advanced synthesis/Synthesis/Synthesis] image support./Information on synthesis materials./Nothing.]"
  2: 0x002B [0x25] WAIT_DIALOG_SELECT()
  3: 0x002C [0x02] IF !(Work_Zone[0] == 0*) GOTO 0x0075
  4: 0x0034 [0x02] IF !(Work_Zone[7] == 0*) GOTO 0x0043
  5: 0x003C [0x1D] PRINT_EVENT_MESSAGE(message_id=7269*)
    → "I don't believe you need any assistance right now."
  6: 0x003F [0x23] WAIT_FOR_DIALOG_INTERACTION
  7: 0x0040 [0x01] GOTO 0x0072
  8: 0x0043 [0x1D] PRINT_EVENT_MESSAGE(message_id=7271*)
    → "Clear your mind and meditate..."
  9: 0x0046 [0x23] WAIT_FOR_DIALOG_INTERACTION
 10: 0x0047 [0x42] SET_CLI_EVENT_CANCEL_DATA()
 11: 0x0048 [0x45] LOAD_SCHEDULED_TASK: Load scheduler "fdo1" with entities [EventEntity, EventEntity], work=[200*, 0*]
 12: 0x0059 [0x1C] WAIT(90* ticks)
 13: 0x005C [0x45] LOAD_SCHEDULED_TASK: Load scheduler "fdi1" with entities [EventEntity, EventEntity], work=[200*, 0*]
 14: 0x006D [0x03] Work_Zone[1] = 1*

SUBROUTINE_0072:
 15: 0x0072 [0x01] GOTO 0x0360
 16: 0x0075 [0x02] IF !(Work_Zone[0] == 1*) GOTO 0x0355
 17: 0x007D [0x03] Work_Zone[8] = 8*
 18: 0x0082 [0x03] ExtData[1]->WorkLocal[3] = Work_Zone[8]
 19: 0x0087 [0x03] ExtData[1]->WorkLocal[5] = Work_Zone[3]
 20: 0x008C [0x06] ExtData[1]->WorkLocal[0] = 0
 21: 0x008F [0x03] ExtData[1]->WorkLocal[2] = 140*
 22: 0x0094 [0x03] ExtData[1]->WorkLocal[1] = 15*

SUBROUTINE_0099:
 23: 0x0099 [0x02] IF !(Work_Zone[3] > ExtData[1]->WorkLocal[2]) GOTO 0x00AB
 24: 0x00A1 [0x3C] SET_BIT_FLAG_CONDITIONAL(target_work_offset=ExtData[1]->WorkLocal[0], bit_index_work_offset=ExtData[1]->WorkLocal[1], condition_work_offset=1*)
 25: 0x00A8 [0x01] GOTO 0x00AE
 26: 0x00AB [0x01] GOTO 0x00C1

SUBROUTINE_00AE:
 27: 0x00AE [0x02] IF !(ExtData[1]->WorkLocal[1] <= 2*) GOTO 0x00C1
 28: 0x00B6 [0x0C] ExtData[1]->WorkLocal[1]--
 29: 0x00B9 [0x08] ExtData[1]->WorkLocal[2] -= 10*
 30: 0x00BE [0x01] GOTO 0x0099

SUBROUTINE_00C1:
 31: 0x00C1 [0x24] CREATE_DIALOG(message_id=7234*, default_option=0*, option_flags=ExtData[1]->WorkLocal[0])
    → "Which rank of synthesis do you ask about? [Never mind./Amateur./Recruit./Initiate./Novice./Apprentice./Journeyman./Craftsman./Artisan./Adept./Veteran./Expert./Authority./Luminary./Master./Grandmaster.]"
 32: 0x00C8 [0x25] WAIT_DIALOG_SELECT()
 33: 0x00C9 [0x02] IF !(Work_Zone[0] == 0*) GOTO 0x00DB
 34: 0x00D1 [0x03] Work_Zone[1] = 1073741824*
 35: 0x00D6 [0x21] END_EVENT
 36: 0x00D7 [0x00] END_REQSTACK()

SUBROUTINE_00DB:
 37: 0x00DB [0x03] ExtData[1]->WorkLocal[4] = Work_Zone[0]
 38: 0x00E0 [0x0C] ExtData[1]->WorkLocal[4]--
 39: 0x00E3 [0x03] ExtData[1]->WorkLocal[6] = 0*
 40: 0x00E8 [0x03] ExtData[1]->WorkLocal[7] = 16*

SUBROUTINE_00ED:
 41: 0x00ED [0x8C] CRAFTING_HANDLER(mode=0x02) // Set recipe data
 42: 0x00F9 [0x8C] CRAFTING_HANDLER(mode=0x01) // End crafting session
 43: 0x00FB [0x03] ExtData[1]->WorkLocal[0] = 0*
 44: 0x0100 [0x02] IF !(Work_Zone[2] == 0*) GOTO 0x010E
 45: 0x0108 [0x06] Work_Zone[64] = 0
 46: 0x010B [0x01] GOTO 0x0249
 47: 0x010E [0x02] IF !(Work_Zone[3] == 0*) GOTO 0x011D
 48: 0x0116 [0x3C] SET_BIT_FLAG_CONDITIONAL(target_work_offset=ExtData[1]->WorkLocal[0], bit_index_work_offset=2*, condition_work_offset=1*)
 49: 0x011D [0x02] IF !(Work_Zone[4] == 0*) GOTO 0x012C
 50: 0x0125 [0x3C] SET_BIT_FLAG_CONDITIONAL(target_work_offset=ExtData[1]->WorkLocal[0], bit_index_work_offset=3*, condition_work_offset=1*)
 51: 0x012C [0x02] IF !(Work_Zone[5] == 0*) GOTO 0x013B
 52: 0x0134 [0x3C] SET_BIT_FLAG_CONDITIONAL(target_work_offset=ExtData[1]->WorkLocal[0], bit_index_work_offset=4*, condition_work_offset=1*)
 53: 0x013B [0x02] IF !(Work_Zone[6] == 0*) GOTO 0x014A
 54: 0x0143 [0x3C] SET_BIT_FLAG_CONDITIONAL(target_work_offset=ExtData[1]->WorkLocal[0], bit_index_work_offset=5*, condition_work_offset=1*)
 55: 0x014A [0x02] IF !(Work_Zone[7] == 0*) GOTO 0x0159
 56: 0x0152 [0x3C] SET_BIT_FLAG_CONDITIONAL(target_work_offset=ExtData[1]->WorkLocal[0], bit_index_work_offset=6*, condition_work_offset=1*)
 57: 0x0159 [0x02] IF !(Work_Zone[8] == 0*) GOTO 0x0168
 58: 0x0161 [0x3C] SET_BIT_FLAG_CONDITIONAL(target_work_offset=ExtData[1]->WorkLocal[0], bit_index_work_offset=7*, condition_work_offset=1*)
 59: 0x0168 [0x02] IF !(Work_Zone[9] == 0*) GOTO 0x0177
 60: 0x0170 [0x3C] SET_BIT_FLAG_CONDITIONAL(target_work_offset=ExtData[1]->WorkLocal[0], bit_index_work_offset=8*, condition_work_offset=1*)
 61: 0x0177 [0x02] IF !(Work_Zone_1700[0] == 0*) GOTO 0x0186
 62: 0x017F [0x3C] SET_BIT_FLAG_CONDITIONAL(target_work_offset=ExtData[1]->WorkLocal[0], bit_index_work_offset=9*, condition_work_offset=1*)
 63: 0x0186 [0x02] IF !(Work_Zone_1700[1] == 0*) GOTO 0x0195
 64: 0x018E [0x3C] SET_BIT_FLAG_CONDITIONAL(target_work_offset=ExtData[1]->WorkLocal[0], bit_index_work_offset=10*, condition_work_offset=1*)
 65: 0x0195 [0x02] IF !(Work_Zone_1700[2] == 0*) GOTO 0x01A4
 66: 0x019D [0x3C] SET_BIT_FLAG_CONDITIONAL(target_work_offset=ExtData[1]->WorkLocal[0], bit_index_work_offset=11*, condition_work_offset=1*)
 67: 0x01A4 [0x02] IF !(Work_Zone_1700[3] == 0*) GOTO 0x01B3
 68: 0x01AC [0x3C] SET_BIT_FLAG_CONDITIONAL(target_work_offset=ExtData[1]->WorkLocal[0], bit_index_work_offset=12*, condition_work_offset=1*)
 69: 0x01B3 [0x02] IF !(Work_Zone_1700[4] == 0*) GOTO 0x01C2
 70: 0x01BB [0x3C] SET_BIT_FLAG_CONDITIONAL(target_work_offset=ExtData[1]->WorkLocal[0], bit_index_work_offset=13*, condition_work_offset=1*)
 71: 0x01C2 [0x02] IF !(Work_Zone_1700[5] == 0*) GOTO 0x01D1
 72: 0x01CA [0x3C] SET_BIT_FLAG_CONDITIONAL(target_work_offset=ExtData[1]->WorkLocal[0], bit_index_work_offset=14*, condition_work_offset=1*)
 73: 0x01D1 [0x02] IF !(Work_Zone_1700[6] == 0*) GOTO 0x01E0
 74: 0x01D9 [0x3C] SET_BIT_FLAG_CONDITIONAL(target_work_offset=ExtData[1]->WorkLocal[0], bit_index_work_offset=15*, condition_work_offset=1*)
 75: 0x01E0 [0x02] IF !(Work_Zone_1700[7] == 0*) GOTO 0x01EF
 76: 0x01E8 [0x3C] SET_BIT_FLAG_CONDITIONAL(target_work_offset=ExtData[1]->WorkLocal[0], bit_index_work_offset=16*, condition_work_offset=1*)
 77: 0x01EF [0x02] IF !(Work_Zone_1700[8] == 0*) GOTO 0x01FE
 78: 0x01F7 [0x3C] SET_BIT_FLAG_CONDITIONAL(target_work_offset=ExtData[1]->WorkLocal[0], bit_index_work_offset=17*, condition_work_offset=1*)
 79: 0x01FE [0x24] CREATE_DIALOG(message_id=7235*, default_option=0*, option_flags=ExtData[1]->WorkLocal[0])
    → "Which synthesis recipe do you ask about? [None./%./$1./$2./$3./$4./$5./$6./$7./$8./$9./$10./$11./$12./$13./$14./$15./View more recipes.]"
 80: 0x0205 [0x25] WAIT_DIALOG_SELECT()
 81: 0x0206 [0x02] IF !(Work_Zone[0] == 0*) GOTO 0x0218
 82: 0x020E [0x03] Work_Zone[1] = 1073741824*
 83: 0x0213 [0x21] END_EVENT
 84: 0x0214 [0x00] END_REQSTACK()

SUBROUTINE_0230:
 85: 0x0230 [0x03] ExtData[1]->WorkLocal[8] = ExtData[1]->WorkLocal[6]
 86: 0x0235 [0x07] ExtData[1]->WorkLocal[8] += Work_Zone[0]
 87: 0x023A [0x0C] ExtData[1]->WorkLocal[8]--
 88: 0x023D [0x8C] CRAFTING_HANDLER(mode=0x03) // Get synthesis recipe
 89: 0x0247 [0x8C] CRAFTING_HANDLER(mode=0x01) // End crafting session

SUBROUTINE_0249:
 90: 0x0249 [0x02] IF !(Work_Zone[64] == 0*) GOTO 0x0257
 91: 0x0251 [0x1D] PRINT_EVENT_MESSAGE(message_id=7291*)
    → "The synthesis items for that rank are still beyond your skill, I'm afraid."
 92: 0x0254 [0x23] WAIT_FOR_DIALOG_INTERACTION
 93: 0x0255 [0x21] END_EVENT
 94: 0x0256 [0x00] END_REQSTACK()
 95: 0x0257 [0x03] Work_Zone[2] = Work_Zone[64]
 96: 0x025C [0x1D] PRINT_EVENT_MESSAGE(message_id=7272*)
    → "With your current culinary skills, I believe $0 is about your cup of tea..."
 97: 0x025F [0x23] WAIT_FOR_DIALOG_INTERACTION
 98: 0x0260 [0x03] Work_Zone[8] = 8*
 99: 0x0265 [0x03] Work_Zone[3] = Work_Zone[65]
100: 0x026A [0x03] Work_Zone[4] = Work_Zone[66]
101: 0x026F [0x03] Work_Zone[5] = Work_Zone[67]
102: 0x0274 [0x03] Work_Zone[6] = Work_Zone[68]
103: 0x0279 [0x03] Work_Zone[7] = Work_Zone[85]
104: 0x027E [0x02] IF !(Work_Zone[7] == 0*) GOTO 0x028D
105: 0x0286 [0x48] [System] [7190*]:
    → "Necessary skills: [Fishing/Woodworking/Smithing/Goldsmithing/Clothcraft/Leatherworking/Bonecraft/Alchemy/Cooking][ /, Woodworking/, Smithing/, Goldsmithing/, Clothcraft/, Leatherworking/, Bonecraft/, Alchemy/, Cooking][ /, Woodworking/, Smithing/, Goldsmithing/, Clothcraft/, Leatherworking/, Bonecraft/, Alchemy/, Cooking][ /, & Woodworking/, & Smithing/, & Goldsmithing/, & Clothcraft/, & Leatherworking/, & Bonecraft/, & Alchemy/, & Cooking] Necessary crystal: $4 Necessary items:"
106: 0x0289 [0x23] WAIT_FOR_DIALOG_INTERACTION
107: 0x028A [0x01] GOTO 0x0291
108: 0x028D [0x48] [System] [7228*]:
    → "Necessary skills: [Fishing/Woodworking/Smithing/Goldsmithing/Clothcraft/Leatherworking/Bonecraft/Alchemy/Cooking][ /, Woodworking/, Smithing/, Goldsmithing/, Clothcraft/, Leatherworking/, Bonecraft/, Alchemy/, Cooking][ /, Woodworking/, Smithing/, Goldsmithing/, Clothcraft/, Leatherworking/, Bonecraft/, Alchemy/, Cooking][ /, & Woodworking/, & Smithing/, & Goldsmithing/, & Clothcraft/, & Leatherworking/, & Bonecraft/, & Alchemy/, & Cooking] Necessary crystal: $4 Necessary key item: $3 Necessary items:"
109: 0x0290 [0x23] WAIT_FOR_DIALOG_INTERACTION

SUBROUTINE_0291:
110: 0x0291 [0x03] Work_Zone[2] = Work_Zone[69]
111: 0x0296 [0x03] Work_Zone[3] = Work_Zone[70]
112: 0x029B [0x03] Work_Zone[4] = Work_Zone[71]
113: 0x02A0 [0x03] Work_Zone[5] = Work_Zone[72]
114: 0x02A5 [0x03] Work_Zone[6] = Work_Zone[77]
115: 0x02AA [0x03] Work_Zone[7] = Work_Zone[78]
116: 0x02AF [0x03] Work_Zone[8] = Work_Zone[79]
117: 0x02B4 [0x03] Work_Zone[9] = Work_Zone[80]
118: 0x02B9 [0x02] IF !(Work_Zone[7] == 0*) GOTO 0x02C8
119: 0x02C1 [0x48] [System] [7194*]:
    → "$4 x $0"
120: 0x02C4 [0x23] WAIT_FOR_DIALOG_INTERACTION
121: 0x02C5 [0x01] GOTO 0x034E
122: 0x02C8 [0x02] IF !(Work_Zone[8] == 0*) GOTO 0x02D7
123: 0x02D0 [0x48] [System] [7193*]:
    → "$4 x $0 $5 x $0$0"
124: 0x02D3 [0x23] WAIT_FOR_DIALOG_INTERACTION
125: 0x02D4 [0x01] GOTO 0x034E
126: 0x02D7 [0x02] IF !(Work_Zone[9] == 0*) GOTO 0x02E6
127: 0x02DF [0x48] [System] [7192*]:
    → "$4 x $0 $5 x $0$0 $6 x $0"
128: 0x02E2 [0x23] WAIT_FOR_DIALOG_INTERACTION
129: 0x02E3 [0x01] GOTO 0x034E
130: 0x02E6 [0x48] [System] [7191*]:
    → "$4 x $0 $5 x $0$0 $6 x $0 $7 x $0$3"
131: 0x02E9 [0x23] WAIT_FOR_DIALOG_INTERACTION
132: 0x02EA [0x03] Work_Zone[2] = Work_Zone[73]
133: 0x02EF [0x03] Work_Zone[3] = Work_Zone[74]
134: 0x02F4 [0x03] Work_Zone[4] = Work_Zone[75]
135: 0x02F9 [0x03] Work_Zone[5] = Work_Zone[76]
136: 0x02FE [0x03] Work_Zone[6] = Work_Zone[81]
137: 0x0303 [0x03] Work_Zone[7] = Work_Zone[82]
138: 0x0308 [0x03] Work_Zone[8] = Work_Zone[83]
139: 0x030D [0x03] Work_Zone[9] = Work_Zone[84]
140: 0x0312 [0x02] IF !(Work_Zone[6] == 0*) GOTO 0x031D
141: 0x031A [0x01] GOTO 0x034E
142: 0x031D [0x02] IF !(Work_Zone[7] == 0*) GOTO 0x032C
143: 0x0325 [0x48] [System] [7194*]:
    → "$4 x $0"
144: 0x0328 [0x23] WAIT_FOR_DIALOG_INTERACTION
145: 0x0329 [0x01] GOTO 0x034E
146: 0x032C [0x02] IF !(Work_Zone[8] == 0*) GOTO 0x033B
147: 0x0334 [0x48] [System] [7193*]:
    → "$4 x $0 $5 x $0$0"
148: 0x0337 [0x23] WAIT_FOR_DIALOG_INTERACTION
149: 0x0338 [0x01] GOTO 0x034E
150: 0x033B [0x02] IF !(Work_Zone[9] == 0*) GOTO 0x034A
151: 0x0343 [0x48] [System] [7192*]:
    → "$4 x $0 $5 x $0$0 $6 x $0"
152: 0x0346 [0x23] WAIT_FOR_DIALOG_INTERACTION
153: 0x0347 [0x01] GOTO 0x034E
154: 0x034A [0x48] [System] [7191*]:
    → "$4 x $0 $5 x $0$0 $6 x $0 $7 x $0$3"
155: 0x034D [0x23] WAIT_FOR_DIALOG_INTERACTION

SUBROUTINE_034E:
156: 0x034E [0x1D] PRINT_EVENT_MESSAGE(message_id=7273*)
    → "Practice makes perfect, so apply yourself to your studies everyday."
157: 0x0351 [0x23] WAIT_FOR_DIALOG_INTERACTION
158: 0x0352 [0x01] GOTO 0x0360
159: 0x0355 [0x02] IF !(Work_Zone[0] == 2*) GOTO 0x0360
160: 0x035D [0x01] GOTO 0x0360

SUBROUTINE_0360:
161: 0x0360 [0x01] GOTO 0x0367
162: 0x0363 [0x1D] PRINT_EVENT_MESSAGE(message_id=7268*)
    → "I'm sorry, but could you please not bother me? You might make me slip up."
163: 0x0366 [0x23] WAIT_FOR_DIALOG_INTERACTION

SUBROUTINE_0367:
164: 0x0367 [0x21] END_EVENT
165: 0x0368 [0x00] END_REQSTACK()
```

#### Data or dead code:

```
# Dead code (unreachable instructions):
     0x00D8 [0x01] GOTO 0x00DB
# Dead code (unreachable instructions):
     0x0215 [0x01] GOTO 0x0230
     0x022D [0x01] GOTO 0x0230
```
