# 17752377 - Moogle

## Common Data

| Field            | Value                     |
|------------------|---------------------------|
| Zone             | Windurst Waters (ID: 238) |
| Block Size       | 1188 bytes                |
| Total Events     | 4                         |
| References Count | 83                        |

## List of Events

| Event ID              | Entrypoint   |   Size |   Instructions |
|-----------------------|--------------|--------|----------------|
| [65535](#event-65535) | 0x0000       |      1 |              1 |
| [935](#event-935)     | 0x0001       |     26 |              9 |
| [934](#event-934)     | 0x001B       |     25 |             11 |
| [933](#event-933)     | 0x0034       |    769 |            212 |

## DAT References (imed_data)

|   Index | Hex Value   |   Dec Value |
|---------|-------------|-------------|
|       0 | 0x0000      |           0 |
|       1 | 0x2EC2      |       11970 |
|       2 | 0x2EC3      |       11971 |
|       3 | 0x2EB7      |       11959 |
|       4 | 0x2EB8      |       11960 |
|       5 | 0x2EB9      |       11961 |
|       6 | 0x001C      |          28 |
|       7 | 0x0014      |          20 |
|       8 | 0x0015      |          21 |
|       9 | 0x0016      |          22 |
|      10 | 0x0017      |          23 |
|      11 | 0x2EBA      |       11962 |
|      12 | 0x0007      |           7 |
|      13 | 0x0040      |          64 |
|      14 | 0x2EBB      |       11963 |
|      15 | 0x0018      |          24 |
|      16 | 0x2EBC      |       11964 |
|      17 | 0x2EBD      |       11965 |
|      18 | 0x00FF      |         255 |
|      19 | 0x2EBE      |       11966 |
|      20 | 0x690A      |       26890 |
|      21 | 0x6909      |       26889 |
|      22 | 0x47E0      |       18400 |
|      23 | 0x47DF      |       18399 |
|      24 | 0x499D      |       18845 |
|      25 | 0x499C      |       18844 |
|      26 | 0x1631      |        5681 |
|      27 | 0x108E      |        4238 |
|      28 | 0x108F      |        4239 |
|      29 | 0x1090      |        4240 |
|      30 | 0x1091      |        4241 |
|      31 | 0x1092      |        4242 |
|      32 | 0x1093      |        4243 |
|      33 | 0x1094      |        4244 |
|      34 | 0x1095      |        4245 |
|      35 | 0x05EA      |        1514 |
|      36 | 0x06FD      |        1789 |
|      37 | 0x2EBF      |       11967 |
|      38 | 0x40000000  |  1073741824 |
|      39 | 0x0001      |           1 |
|      40 | 0x0002      |           2 |
|      41 | 0x0003      |           3 |
|      42 | 0x0004      |           4 |
|      43 | 0x0005      |           5 |
|      44 | 0x0006      |           6 |
|      45 | 0x0008      |           8 |
|      46 | 0x0009      |           9 |
|      47 | 0x000A      |          10 |
|      48 | 0x000B      |          11 |
|      49 | 0x000C      |          12 |
|      50 | 0x000D      |          13 |
|      51 | 0x000E      |          14 |
|      52 | 0x000F      |          15 |
|      53 | 0x0010      |          16 |
|      54 | 0x0011      |          17 |
|      55 | 0x2EC0      |       11968 |
|      56 | 0x2EC1      |       11969 |
|      57 | 0x2EAF      |       11951 |
|      58 | 0x2EB0      |       11952 |
|      59 | 0x2EA1      |       11937 |
|      60 | 0x2EA2      |       11938 |
|      61 | 0x2EA3      |       11939 |
|      62 | 0x2EA4      |       11940 |
|      63 | 0x2EA5      |       11941 |
|      64 | 0x2EA6      |       11942 |
|      65 | 0x2EA7      |       11943 |
|      66 | 0x2EA8      |       11944 |
|      67 | 0x2EA9      |       11945 |
|      68 | 0x2EAA      |       11946 |
|      69 | 0x2EAB      |       11947 |
|      70 | 0x2EAC      |       11948 |
|      71 | 0x2EAD      |       11949 |
|      72 | 0x2EB4      |       11956 |
|      73 | 0x2EB5      |       11957 |
|      74 | 0x2EB6      |       11958 |
|      75 | 0xFFFFFFFF  |  4294967295 |
|      76 | 0x2EB1      |       11953 |
|      77 | 0x001B      |          27 |
|      78 | 0x2EAE      |       11950 |
|      79 | 0x2E9D      |       11933 |
|      80 | 0x2E9E      |       11934 |
|      81 | 0x2E9F      |       11935 |
|      82 | 0x2EA0      |       11936 |

## String References

- **11933**: Love is in the air! It's time for Valentione's Day celebrations, kupo!
- **11934**: There is an amazing type of chocolate whose filling is influenced by your feelings! When chocolate halves from a boy and a girl are matched together, the resulting whole produces a wonderful taste if the couple is meant to be, kupo!
- **11935**: Young men and women in this town have broken their chocolates in two, hoping to meet that "special someone"!
- **11936**: We want adventurers to help each of them find their perfect match, kupo!
- **11937**: Here's what you should do, kupo: Take the two halves of a piece of chocolate from a Valentione Single.
- **11938**: There are four lonely guys and four forlorn girls who need your matchmaking expertise. Try talking to someone of the same gender as you, kupo!
- **11939**: When they hand over their chocolate halves, the singles will give you hints about the type of person they're head-over-heels for, kupo.
- **11940**: You should be able to find an adventurer of the opposite gender who is holding a chocolate half from the perfect paramour for your Valentione Single.
- **11941**: Trade the right halves of the chocolates with your adventuring colleagues and try to match them with the left half you received from the Valentione Single.
- **11942**: When matching the halves, the single who gave up the left half may also meet the preferences of the single who gave up the right half.
- **11943**: If both the singles meet each other's preferences, you'll have a match made in heaven, kupo!
- **11944**: Don't forget who you got your chocolate from! Try to do too many things at once and you'll end up confused, so we suggest you hand in the chocolate halves to a moogle one pair at a time, kupo\`.
- **11945**: We moogles can take your lonely pieces and make them into one whole, complete chocolate!
- **11946**: Then all you have to do is return the finished chocolate to the person who gave you the original piece. One bite will tell them if they've found their perfect partner!
- **11947**: After you've returned a whole chocolate to four Valentione Singles, return to a moogle and collect your reward, kupo!
- **11948**: While you're playing matchmaker, you might meet someone who puts a sparkle in your eye, too. Kupohoho\`!
- **11949**: Or maybe you could take advantage of this romantic occasion and make a party with that special someone while you exchange chocolates, kupopopo!
- **11950**: Want to try again? Match up all the lovebirds you can, kupo!
- **11951**: Something wrong, kupo?
- **11952**: Something wrong? [Listen to the rules again./Give up./Not really.]
- **11953**: Four people hold the chocolates you seek. Make them into four whole chocolates and give one to each person. When you're finished, return to a moogle, kupo!
- **11956**: If you want to start over, you'll have to get rid of the chocolates you have now.
- **11957**: Really give up? [Yes!/No, not yet!]
- **11958**: Just think of all those poor singles! You'll come back and help them later, won't you, kupo? You should get rid of your chocolates in a subtle manner, so that you don't hurt anyone's feelings! ...We wouldn't want you getting a stomachache either, now would we, kupo?
- **11959**: You've managed to gather complementary pieces of chocolate! Wait just a moment, now...
- **11960**: ...
- **11961**: Kupopopo\`! What a beautiful piece of chocolate! No need to thank me, now. Hurry and give it to the Valentione Single!
- **11962**: Great work, kupo! You delivered chocolates to everyone! I've been getting lots of feedback about it! The response has been...
- **11963**: Excellent! I thought my heart was going to flutter out of my furry little chest--you score $2 [point/points]! The power of love is amazing, kupo!
- **11964**: Decent. You score $2 [point/points]. Everyone seems relatively happy! Not bad, kupo.
- **11965**: Well, let's just say that some things just weren't meant to be. You score $2 [point/points]. Sorry, but I won't hand out a reward this time, kupo.
- **11966**: My bag is filled with goodies for helpful adventurers like yourself! Take your pick!
- **11967**: Which item would you like? [Let me think./$1./$2./$3./$4./$5./$6./$7./$8./$9./$10./$11./$12./$13./$14./$15./$16./$17.]
- **11968**: Are you absolutely sure, kupo?
- **11969**: You really want $0? [Yes, that's the one!/On second thought...]
- **11970**: You must wait a bit longer to try again, kupo.
- **11971**: You have to throw away all of your chocolates before playing again, kupo! It might seem a waste, but a rule is a rule!

## Events

### Event 65535

#### Metadata

| Field        | Value   |
|--------------|---------|
| Entrypoint   | 0x0000  |
| Data Size    | 1 bytes |
| Instructions | 1       |

```
      00 01 02 03 04 05 06 07  08 09 0A 0B 0C 0D 0E 0F
      -- -- -- -- -- -- -- --  -- -- -- -- -- -- -- --
0000: 00                                                .               
```

#### Opcodes

```
  0: 0x0000 [0x00] END_REQSTACK()
```

### Event 935

#### Metadata

| Field        | Value    |
|--------------|----------|
| Entrypoint   | 0x0001   |
| Data Size    | 26 bytes |
| Instructions | 9        |

```
      00 01 02 03 04 05 06 07  08 09 0A 0B 0C 0D 0E 0F
      -- -- -- -- -- -- -- --  -- -- -- -- -- -- -- --
0000:    1E F0 FF FF 7F 02 02  10 00 80 00 15 00 1D 01   ...............
0010: 80 23 01 19 00 1D 02 80  23 21 00                 .#......#!.     
```

#### Opcodes

```
  0: 0x0001 [0x1E] EventEntity looks at LocalPlayer and starts talking
  1: 0x0006 [0x02] IF !(Work_Zone[2] == 0*) GOTO 0x0015
  2: 0x000E [0x1D] PRINT_EVENT_MESSAGE(message_id=11970*)
    → "You must wait a bit longer to try again, kupo."
  3: 0x0011 [0x23] WAIT_FOR_DIALOG_INTERACTION
  4: 0x0012 [0x01] GOTO 0x0019
  5: 0x0015 [0x1D] PRINT_EVENT_MESSAGE(message_id=11971*)
    → "You have to throw away all of your chocolates before playing again, kupo! It might seem a waste, but a rule is a rule!"
  6: 0x0018 [0x23] WAIT_FOR_DIALOG_INTERACTION

SUBROUTINE_0019:
  7: 0x0019 [0x21] END_EVENT
  8: 0x001A [0x00] END_REQSTACK()
```

### Event 934

#### Metadata

| Field        | Value    |
|--------------|----------|
| Entrypoint   | 0x001B   |
| Data Size    | 25 bytes |
| Instructions | 11       |

```
      00 01 02 03 04 05 06 07  08 09 0A 0B 0C 0D 0E 0F
      -- -- -- -- -- -- -- --  -- -- -- -- -- -- -- --
0010:                                   42 03 01 10 02             B....
0020: 10 1E F0 FF FF 7F 1D 03  80 23 1D 04 80 23 1D 05  .........#...#..
0030: 80 23 21 00                                       .#!.            
```

#### Opcodes

```
  0: 0x001B [0x42] SET_CLI_EVENT_CANCEL_DATA()
  1: 0x001C [0x03] Work_Zone[1] = Work_Zone[2]
  2: 0x0021 [0x1E] EventEntity looks at LocalPlayer and starts talking
  3: 0x0026 [0x1D] PRINT_EVENT_MESSAGE(message_id=11959*)
    → "You've managed to gather complementary pieces of chocolate! Wait just a moment, now..."
  4: 0x0029 [0x23] WAIT_FOR_DIALOG_INTERACTION
  5: 0x002A [0x1D] PRINT_EVENT_MESSAGE(message_id=11960*)
    → "..."
  6: 0x002D [0x23] WAIT_FOR_DIALOG_INTERACTION
  7: 0x002E [0x1D] PRINT_EVENT_MESSAGE(message_id=11961*)
    → "Kupopopo`! What a beautiful piece of chocolate! No need to thank me, now. Hurry and give it to the Valentione Single!"
  8: 0x0031 [0x23] WAIT_FOR_DIALOG_INTERACTION
  9: 0x0032 [0x21] END_EVENT
 10: 0x0033 [0x00] END_REQSTACK()
```

### Event 933

#### Metadata

| Field        | Value     |
|--------------|-----------|
| Entrypoint   | 0x0034    |
| Data Size    | 769 bytes |
| Instructions | 153       |

```
      00 01 02 03 04 05 06 07  08 09 0A 0B 0C 0D 0E 0F
      -- -- -- -- -- -- -- --  -- -- -- -- -- -- -- --
0030:             1E F0 FF FF  7F 06 01 10 3E 02 10 06      ........>...
0040: 80 E0 02 3E 02 10 07 80  4E 02 3E 02 10 08 80 4E  ...>....N.>....N
0050: 02 3E 02 10 09 80 4E 02  3E 02 10 0A 80 4E 02 42  .>....N.>....N.B
0060: 1D 0B 80 23 41 00 80 0C  80 02 10 00 00 03 04 10  ...#A...........
0070: 00 00 02 00 00 0D 80 04  81 00 1D 0E 80 23 01 9B  .............#..
0080: 00 02 00 00 0F 80 04 90  00 1D 10 80 23 01 9B 00  ............#...
0090: 1D 11 80 23 03 01 10 12  80 21 00 1D 13 80 23 03  ...#.....!....#.
00A0: 01 00 03 10 03 03 10 14  80 03 04 10 15 80 03 05  ................
00B0: 10 16 80 03 06 10 17 80  03 07 10 18 80 03 08 10  ................
00C0: 19 80 03 09 10 1A 80 03  00 17 1B 80 03 01 17 1C  ................
00D0: 80 03 02 17 1D 80 03 03  17 1E 80 03 04 17 1F 80  ................
00E0: 03 05 17 20 80 03 06 17  21 80 03 07 17 22 80 03  ... ....!...."..
00F0: 08 17 23 80 03 09 17 24  80 24 25 80 00 80 01 00  ..#....$.$%.....
0100: 25 02 00 10 00 80 00 13  01 03 01 10 26 80 21 00  %...........&.!.
0110: 01 23 02 02 00 10 27 80  00 23 01 03 02 10 03 10  .#....'..#......
0120: 01 23 02 02 00 10 28 80  00 33 01 03 02 10 04 10  .#....(..3......
0130: 01 23 02 02 00 10 29 80  00 43 01 03 02 10 05 10  .#....)..C......
0140: 01 23 02 02 00 10 2A 80  00 53 01 03 02 10 06 10  .#....*..S......
0150: 01 23 02 02 00 10 2B 80  00 63 01 03 02 10 07 10  .#....+..c......
0160: 01 23 02 02 00 10 2C 80  00 73 01 03 02 10 08 10  .#....,..s......
0170: 01 23 02 02 00 10 0C 80  00 83 01 03 02 10 09 10  .#..............
0180: 01 23 02 02 00 10 2D 80  00 93 01 03 02 10 00 17  .#....-.........
0190: 01 23 02 02 00 10 2E 80  00 A3 01 03 02 10 01 17  .#..............
01A0: 01 23 02 02 00 10 2F 80  00 B3 01 03 02 10 02 17  .#..../.........
01B0: 01 23 02 02 00 10 30 80  00 C3 01 03 02 10 03 17  .#....0.........
01C0: 01 23 02 02 00 10 31 80  00 D3 01 03 02 10 04 17  .#....1.........
01D0: 01 23 02 02 00 10 32 80  00 E3 01 03 02 10 05 17  .#....2.........
01E0: 01 23 02 02 00 10 33 80  00 F3 01 03 02 10 06 17  .#....3.........
01F0: 01 23 02 02 00 10 34 80  00 03 02 03 02 10 07 17  .#....4.........
0200: 01 23 02 02 00 10 35 80  00 13 02 03 02 10 08 17  .#....5.........
0210: 01 23 02 02 00 10 36 80  00 23 02 03 02 10 09 17  .#....6..#......
0220: 01 23 02 93 02 10 1D 37  80 23 93 00 80 03 01 10  .#.....7.#......
0230: 00 10 24 38 80 27 80 00  80 25 02 00 10 27 80 00  ..$8.'...%...'..
0240: 4C 02 03 01 10 26 80 21  00 01 4C 02 21 00 1D 39  L....&.!..L.!..9
0250: 80 23 24 3A 80 00 80 00  80 25 02 00 10 00 80 00  .#$:.....%......
0260: 99 02 1D 3B 80 23 1D 3C  80 23 1D 3D 80 23 1D 3E  ...;.#.<.#.=.#.>
0270: 80 23 1D 3F 80 23 1D 40  80 23 1D 41 80 23 1D 42  .#.?.#.@.#.A.#.B
0280: 80 23 1D 43 80 23 1D 44  80 23 1D 45 80 23 1D 46  .#.C.#.D.#.E.#.F
0290: 80 23 1D 47 80 23 01 DD  02 02 00 10 27 80 00 CE  .#.G.#......'...
02A0: 02 1D 48 80 23 24 49 80  27 80 00 80 25 02 00 10  ..H.#$I.'...%...
02B0: 27 80 00 BF 02 03 01 10  26 80 21 00 01 BF 02 42  '.......&.!....B
02C0: 1D 4A 80 23 03 01 10 4B  80 21 00 01 DD 02 02 00  .J.#...K.!......
02D0: 10 28 80 00 DD 02 1D 4C  80 23 01 DD 02 01 33 03  .(.....L.#....3.
02E0: 42 3E 02 10 4D 80 EF 02  1D 4E 80 23 01 27 03 1D  B>..M....N.#.'..
02F0: 4F 80 23 1D 50 80 23 1D  51 80 23 1D 52 80 23 1D  O.#.P.#.Q.#.R.#.
0300: 3B 80 23 1D 3C 80 23 1D  3D 80 23 1D 3E 80 23 1D  ;.#.<.#.=.#.>.#.
0310: 3F 80 23 1D 40 80 23 1D  41 80 23 1D 42 80 23 1D  ?.#.@.#.A.#.B.#.
0320: 43 80 23 1D 44 80 23 1D  45 80 23 1D 46 80 23 1D  C.#.D.#.E.#.F.#.
0330: 47 80 23 21 00                                    G.#!.           
```

#### Opcodes

```
  0: 0x0034 [0x1E] EventEntity looks at LocalPlayer and starts talking
  1: 0x0039 [0x06] Work_Zone[1] = 0
  2: 0x003C [0x3E] IF !(Work_Zone[2] bit 28*) GOTO 0x02E0
  3: 0x0043 [0x3E] IF !(Work_Zone[2] bit 20*) GOTO 0x024E
  4: 0x004A [0x3E] IF !(Work_Zone[2] bit 21*) GOTO 0x024E
  5: 0x0051 [0x3E] IF !(Work_Zone[2] bit 22*) GOTO 0x024E
  6: 0x0058 [0x3E] IF !(Work_Zone[2] bit 23*) GOTO 0x024E
  7: 0x005F [0x42] SET_CLI_EVENT_CANCEL_DATA()
  8: 0x0060 [0x1D] PRINT_EVENT_MESSAGE(message_id=11962*)
    → "Great work, kupo! You delivered chocolates to everyone! I've been getting lots of feedback about it! The response has been..."
  9: 0x0063 [0x23] WAIT_FOR_DIALOG_INTERACTION
 10: 0x0064 [0x41] ExtData[1]->WorkLocal[0] = Work_Zone[2] (bits 0*-7*)
 11: 0x006D [0x03] Work_Zone[4] = ExtData[1]->WorkLocal[0]
 12: 0x0072 [0x02] IF !(ExtData[1]->WorkLocal[0] < 64*) GOTO 0x0081
 13: 0x007A [0x1D] PRINT_EVENT_MESSAGE(message_id=11963*)
    → "Excellent! I thought my heart was going to flutter out of my furry little chest--you score $2 [point/points]! The power of love is amazing, kupo!"
 14: 0x007D [0x23] WAIT_FOR_DIALOG_INTERACTION
 15: 0x007E [0x01] GOTO 0x009B
 16: 0x0081 [0x02] IF !(ExtData[1]->WorkLocal[0] < 24*) GOTO 0x0090
 17: 0x0089 [0x1D] PRINT_EVENT_MESSAGE(message_id=11964*)
    → "Decent. You score $2 [point/points]. Everyone seems relatively happy! Not bad, kupo."
 18: 0x008C [0x23] WAIT_FOR_DIALOG_INTERACTION
 19: 0x008D [0x01] GOTO 0x009B
 20: 0x0090 [0x1D] PRINT_EVENT_MESSAGE(message_id=11965*)
    → "Well, let's just say that some things just weren't meant to be. You score $2 [point/points]. Sorry, but I won't hand out a reward this time, kupo."
 21: 0x0093 [0x23] WAIT_FOR_DIALOG_INTERACTION
 22: 0x0094 [0x03] Work_Zone[1] = 255*
 23: 0x0099 [0x21] END_EVENT
 24: 0x009A [0x00] END_REQSTACK()

SUBROUTINE_009B:
 25: 0x009B [0x1D] PRINT_EVENT_MESSAGE(message_id=11966*)
    → "My bag is filled with goodies for helpful adventurers like yourself! Take your pick!"
 26: 0x009E [0x23] WAIT_FOR_DIALOG_INTERACTION
 27: 0x009F [0x03] ExtData[1]->WorkLocal[1] = Work_Zone[3]
 28: 0x00A4 [0x03] Work_Zone[3] = 26890*
 29: 0x00A9 [0x03] Work_Zone[4] = 26889*
 30: 0x00AE [0x03] Work_Zone[5] = 18400*
 31: 0x00B3 [0x03] Work_Zone[6] = 18399*
 32: 0x00B8 [0x03] Work_Zone[7] = 18845*
 33: 0x00BD [0x03] Work_Zone[8] = 18844*
 34: 0x00C2 [0x03] Work_Zone[9] = 5681*
 35: 0x00C7 [0x03] Work_Zone_1700[0] = 4238*
 36: 0x00CC [0x03] Work_Zone_1700[1] = 4239*
 37: 0x00D1 [0x03] Work_Zone_1700[2] = 4240*
 38: 0x00D6 [0x03] Work_Zone_1700[3] = 4241*
 39: 0x00DB [0x03] Work_Zone_1700[4] = 4242*
 40: 0x00E0 [0x03] Work_Zone_1700[5] = 4243*
 41: 0x00E5 [0x03] Work_Zone_1700[6] = 4244*
 42: 0x00EA [0x03] Work_Zone_1700[7] = 4245*
 43: 0x00EF [0x03] Work_Zone_1700[8] = 1514*
 44: 0x00F4 [0x03] Work_Zone_1700[9] = 1789*
 45: 0x00F9 [0x24] CREATE_DIALOG(message_id=11967*, default_option=0*, option_flags=ExtData[1]->WorkLocal[1])
    → "Which item would you like? [Let me think./$1./$2./$3./$4./$5./$6./$7./$8./$9./$10./$11./$12./$13./$14./$15./$16./$17.]"
 46: 0x0100 [0x25] WAIT_DIALOG_SELECT()
 47: 0x0101 [0x02] IF !(Work_Zone[0] == 0*) GOTO 0x0113
 48: 0x0109 [0x03] Work_Zone[1] = 1073741824*
 49: 0x010E [0x21] END_EVENT
 50: 0x010F [0x00] END_REQSTACK()

SUBROUTINE_0223:
 51: 0x0223 [0x93] DISPLAY_ITEM_INFO(item_id=Work_Zone[2])
 52: 0x0226 [0x1D] PRINT_EVENT_MESSAGE(message_id=11968*)
    → "Are you absolutely sure, kupo?"
 53: 0x0229 [0x23] WAIT_FOR_DIALOG_INTERACTION
 54: 0x022A [0x93] DISPLAY_ITEM_INFO(item_id=0*)
 55: 0x022D [0x03] Work_Zone[1] = Work_Zone[0]
 56: 0x0232 [0x24] CREATE_DIALOG(message_id=11969*, default_option=1*, option_flags=0*)
    → "You really want $0? [Yes, that's the one!/On second thought...]"
 57: 0x0239 [0x25] WAIT_DIALOG_SELECT()
 58: 0x023A [0x02] IF !(Work_Zone[0] == 1*) GOTO 0x024C
 59: 0x0242 [0x03] Work_Zone[1] = 1073741824*
 60: 0x0247 [0x21] END_EVENT
 61: 0x0248 [0x00] END_REQSTACK()

SUBROUTINE_024C:
 62: 0x024C [0x21] END_EVENT
 63: 0x024D [0x00] END_REQSTACK()
 64: 0x024E [0x1D] PRINT_EVENT_MESSAGE(message_id=11951*)
    → "Something wrong, kupo?"
 65: 0x0251 [0x23] WAIT_FOR_DIALOG_INTERACTION
 66: 0x0252 [0x24] CREATE_DIALOG(message_id=11952*, default_option=0*, option_flags=0*)
    → "Something wrong? [Listen to the rules again./Give up./Not really.]"
 67: 0x0259 [0x25] WAIT_DIALOG_SELECT()
 68: 0x025A [0x02] IF !(Work_Zone[0] == 0*) GOTO 0x0299
 69: 0x0262 [0x1D] PRINT_EVENT_MESSAGE(message_id=11937*)
    → "Here's what you should do, kupo: Take the two halves of a piece of chocolate from a Valentione Single."
 70: 0x0265 [0x23] WAIT_FOR_DIALOG_INTERACTION
 71: 0x0266 [0x1D] PRINT_EVENT_MESSAGE(message_id=11938*)
    → "There are four lonely guys and four forlorn girls who need your matchmaking expertise. Try talking to someone of the same gender as you, kupo!"
 72: 0x0269 [0x23] WAIT_FOR_DIALOG_INTERACTION
 73: 0x026A [0x1D] PRINT_EVENT_MESSAGE(message_id=11939*)
    → "When they hand over their chocolate halves, the singles will give you hints about the type of person they're head-over-heels for, kupo."
 74: 0x026D [0x23] WAIT_FOR_DIALOG_INTERACTION
 75: 0x026E [0x1D] PRINT_EVENT_MESSAGE(message_id=11940*)
    → "You should be able to find an adventurer of the opposite gender who is holding a chocolate half from the perfect paramour for your Valentione Single."
 76: 0x0271 [0x23] WAIT_FOR_DIALOG_INTERACTION
 77: 0x0272 [0x1D] PRINT_EVENT_MESSAGE(message_id=11941*)
    → "Trade the right halves of the chocolates with your adventuring colleagues and try to match them with the left half you received from the Valentione Single."
 78: 0x0275 [0x23] WAIT_FOR_DIALOG_INTERACTION
 79: 0x0276 [0x1D] PRINT_EVENT_MESSAGE(message_id=11942*)
    → "When matching the halves, the single who gave up the left half may also meet the preferences of the single who gave up the right half."
 80: 0x0279 [0x23] WAIT_FOR_DIALOG_INTERACTION
 81: 0x027A [0x1D] PRINT_EVENT_MESSAGE(message_id=11943*)
    → "If both the singles meet each other's preferences, you'll have a match made in heaven, kupo!"
 82: 0x027D [0x23] WAIT_FOR_DIALOG_INTERACTION
 83: 0x027E [0x1D] PRINT_EVENT_MESSAGE(message_id=11944*)
    → "Don't forget who you got your chocolate from! Try to do too many things at once and you'll end up confused, so we suggest you hand in the chocolate halves to a moogle one pair at a time, kupo`."
 84: 0x0281 [0x23] WAIT_FOR_DIALOG_INTERACTION
 85: 0x0282 [0x1D] PRINT_EVENT_MESSAGE(message_id=11945*)
    → "We moogles can take your lonely pieces and make them into one whole, complete chocolate!"
 86: 0x0285 [0x23] WAIT_FOR_DIALOG_INTERACTION
 87: 0x0286 [0x1D] PRINT_EVENT_MESSAGE(message_id=11946*)
    → "Then all you have to do is return the finished chocolate to the person who gave you the original piece. One bite will tell them if they've found their perfect partner!"
 88: 0x0289 [0x23] WAIT_FOR_DIALOG_INTERACTION
 89: 0x028A [0x1D] PRINT_EVENT_MESSAGE(message_id=11947*)
    → "After you've returned a whole chocolate to four Valentione Singles, return to a moogle and collect your reward, kupo!"
 90: 0x028D [0x23] WAIT_FOR_DIALOG_INTERACTION
 91: 0x028E [0x1D] PRINT_EVENT_MESSAGE(message_id=11948*)
    → "While you're playing matchmaker, you might meet someone who puts a sparkle in your eye, too. Kupohoho`!"
 92: 0x0291 [0x23] WAIT_FOR_DIALOG_INTERACTION
 93: 0x0292 [0x1D] PRINT_EVENT_MESSAGE(message_id=11949*)
    → "Or maybe you could take advantage of this romantic occasion and make a party with that special someone while you exchange chocolates, kupopopo!"
 94: 0x0295 [0x23] WAIT_FOR_DIALOG_INTERACTION
 95: 0x0296 [0x01] GOTO 0x02DD
 96: 0x0299 [0x02] IF !(Work_Zone[0] == 1*) GOTO 0x02CE
 97: 0x02A1 [0x1D] PRINT_EVENT_MESSAGE(message_id=11956*)
    → "If you want to start over, you'll have to get rid of the chocolates you have now."
 98: 0x02A4 [0x23] WAIT_FOR_DIALOG_INTERACTION
 99: 0x02A5 [0x24] CREATE_DIALOG(message_id=11957*, default_option=1*, option_flags=0*)
    → "Really give up? [Yes!/No, not yet!]"
100: 0x02AC [0x25] WAIT_DIALOG_SELECT()
101: 0x02AD [0x02] IF !(Work_Zone[0] == 1*) GOTO 0x02BF
102: 0x02B5 [0x03] Work_Zone[1] = 1073741824*
103: 0x02BA [0x21] END_EVENT
104: 0x02BB [0x00] END_REQSTACK()

SUBROUTINE_02BF:
105: 0x02BF [0x42] SET_CLI_EVENT_CANCEL_DATA()
106: 0x02C0 [0x1D] PRINT_EVENT_MESSAGE(message_id=11958*)
    → "Just think of all those poor singles! You'll come back and help them later, won't you, kupo? You should get rid of your chocolates in a subtle manner, so that you don't hurt anyone's feelings! ...We wouldn't want you getting a stomachache either, now would we, kupo?"
107: 0x02C3 [0x23] WAIT_FOR_DIALOG_INTERACTION
108: 0x02C4 [0x03] Work_Zone[1] = 4294967295*
109: 0x02C9 [0x21] END_EVENT
110: 0x02CA [0x00] END_REQSTACK()

SUBROUTINE_02DD:
111: 0x02DD [0x01] GOTO 0x0333
112: 0x02E0 [0x42] SET_CLI_EVENT_CANCEL_DATA()
113: 0x02E1 [0x3E] IF !(Work_Zone[2] bit 27*) GOTO 0x02EF
114: 0x02E8 [0x1D] PRINT_EVENT_MESSAGE(message_id=11950*)
    → "Want to try again? Match up all the lovebirds you can, kupo!"
115: 0x02EB [0x23] WAIT_FOR_DIALOG_INTERACTION
116: 0x02EC [0x01] GOTO 0x0327
117: 0x02EF [0x1D] PRINT_EVENT_MESSAGE(message_id=11933*)
    → "Love is in the air! It's time for Valentione's Day celebrations, kupo!"
118: 0x02F2 [0x23] WAIT_FOR_DIALOG_INTERACTION
119: 0x02F3 [0x1D] PRINT_EVENT_MESSAGE(message_id=11934*)
    → "There is an amazing type of chocolate whose filling is influenced by your feelings! When chocolate halves from a boy and a girl are matched together, the resulting whole produces a wonderful taste if the couple is meant to be, kupo!"
120: 0x02F6 [0x23] WAIT_FOR_DIALOG_INTERACTION
121: 0x02F7 [0x1D] PRINT_EVENT_MESSAGE(message_id=11935*)
    → "Young men and women in this town have broken their chocolates in two, hoping to meet that "special someone"!"
122: 0x02FA [0x23] WAIT_FOR_DIALOG_INTERACTION
123: 0x02FB [0x1D] PRINT_EVENT_MESSAGE(message_id=11936*)
    → "We want adventurers to help each of them find their perfect match, kupo!"
124: 0x02FE [0x23] WAIT_FOR_DIALOG_INTERACTION
125: 0x02FF [0x1D] PRINT_EVENT_MESSAGE(message_id=11937*)
    → "Here's what you should do, kupo: Take the two halves of a piece of chocolate from a Valentione Single."
126: 0x0302 [0x23] WAIT_FOR_DIALOG_INTERACTION
127: 0x0303 [0x1D] PRINT_EVENT_MESSAGE(message_id=11938*)
    → "There are four lonely guys and four forlorn girls who need your matchmaking expertise. Try talking to someone of the same gender as you, kupo!"
128: 0x0306 [0x23] WAIT_FOR_DIALOG_INTERACTION
129: 0x0307 [0x1D] PRINT_EVENT_MESSAGE(message_id=11939*)
    → "When they hand over their chocolate halves, the singles will give you hints about the type of person they're head-over-heels for, kupo."
130: 0x030A [0x23] WAIT_FOR_DIALOG_INTERACTION
131: 0x030B [0x1D] PRINT_EVENT_MESSAGE(message_id=11940*)
    → "You should be able to find an adventurer of the opposite gender who is holding a chocolate half from the perfect paramour for your Valentione Single."
132: 0x030E [0x23] WAIT_FOR_DIALOG_INTERACTION
133: 0x030F [0x1D] PRINT_EVENT_MESSAGE(message_id=11941*)
    → "Trade the right halves of the chocolates with your adventuring colleagues and try to match them with the left half you received from the Valentione Single."
134: 0x0312 [0x23] WAIT_FOR_DIALOG_INTERACTION
135: 0x0313 [0x1D] PRINT_EVENT_MESSAGE(message_id=11942*)
    → "When matching the halves, the single who gave up the left half may also meet the preferences of the single who gave up the right half."
136: 0x0316 [0x23] WAIT_FOR_DIALOG_INTERACTION
137: 0x0317 [0x1D] PRINT_EVENT_MESSAGE(message_id=11943*)
    → "If both the singles meet each other's preferences, you'll have a match made in heaven, kupo!"
138: 0x031A [0x23] WAIT_FOR_DIALOG_INTERACTION
139: 0x031B [0x1D] PRINT_EVENT_MESSAGE(message_id=11944*)
    → "Don't forget who you got your chocolate from! Try to do too many things at once and you'll end up confused, so we suggest you hand in the chocolate halves to a moogle one pair at a time, kupo`."
140: 0x031E [0x23] WAIT_FOR_DIALOG_INTERACTION
141: 0x031F [0x1D] PRINT_EVENT_MESSAGE(message_id=11945*)
    → "We moogles can take your lonely pieces and make them into one whole, complete chocolate!"
142: 0x0322 [0x23] WAIT_FOR_DIALOG_INTERACTION
143: 0x0323 [0x1D] PRINT_EVENT_MESSAGE(message_id=11946*)
    → "Then all you have to do is return the finished chocolate to the person who gave you the original piece. One bite will tell them if they've found their perfect partner!"
144: 0x0326 [0x23] WAIT_FOR_DIALOG_INTERACTION

SUBROUTINE_0327:
145: 0x0327 [0x1D] PRINT_EVENT_MESSAGE(message_id=11947*)
    → "After you've returned a whole chocolate to four Valentione Singles, return to a moogle and collect your reward, kupo!"
146: 0x032A [0x23] WAIT_FOR_DIALOG_INTERACTION
147: 0x032B [0x1D] PRINT_EVENT_MESSAGE(message_id=11948*)
    → "While you're playing matchmaker, you might meet someone who puts a sparkle in your eye, too. Kupohoho`!"
148: 0x032E [0x23] WAIT_FOR_DIALOG_INTERACTION
149: 0x032F [0x1D] PRINT_EVENT_MESSAGE(message_id=11949*)
    → "Or maybe you could take advantage of this romantic occasion and make a party with that special someone while you exchange chocolates, kupopopo!"
150: 0x0332 [0x23] WAIT_FOR_DIALOG_INTERACTION

SUBROUTINE_0333:
151: 0x0333 [0x21] END_EVENT
152: 0x0334 [0x00] END_REQSTACK()
```

#### Data or dead code:

```
# Dead code (unreachable instructions):
     0x0110 [0x01] GOTO 0x0223
# Dead code (unreachable instructions):
     0x0249 [0x01] GOTO 0x024C
# Dead code (unreachable instructions):
     0x02BC [0x01] GOTO 0x02BF
# Dead code (unreachable instructions):
     0x02CB [0x01] GOTO 0x02DD
```
