# 17752112 - Leepe-Hoppe

## Common Data

| Field            | Value                     |
|------------------|---------------------------|
| Zone             | Windurst Waters (ID: 238) |
| Block Size       | 11064 bytes               |
| Total Events     | 136                       |
| References Count | 219                       |

## List of Events

| Event ID                     | Entrypoint   |   Size |   Instructions |
|------------------------------|--------------|--------|----------------|
| [65535](#event-65535)        | 0x0000       |      1 |              1 |
| [65535.1](#event-655351)     | 0x0001       |     16 |              2 |
| [65535.2](#event-655352)     | 0x0011       |     42 |              4 |
| [65535.3](#event-655353)     | 0x003B       |     16 |              2 |
| [65535.4](#event-655354)     | 0x004B       |     14 |              2 |
| [65535.5](#event-655355)     | 0x0059       |     16 |              2 |
| [65535.6](#event-655356)     | 0x0069       |     14 |              2 |
| [65535.7](#event-655357)     | 0x0077       |     16 |              2 |
| [65535.8](#event-655358)     | 0x0087       |     14 |              2 |
| [65535.9](#event-655359)     | 0x0095       |     16 |              2 |
| [65535.10](#event-6553510)   | 0x00A5       |     14 |              2 |
| [65535.11](#event-6553511)   | 0x00B3       |     16 |              2 |
| [65535.12](#event-6553512)   | 0x00C3       |     14 |              2 |
| [65535.13](#event-6553513)   | 0x00D1       |     16 |              2 |
| [65535.14](#event-6553514)   | 0x00E1       |     14 |              2 |
| [65535.15](#event-6553515)   | 0x00EF       |     16 |              2 |
| [65535.16](#event-6553516)   | 0x00FF       |     14 |              2 |
| [65535.17](#event-6553517)   | 0x010D       |     16 |              2 |
| [65535.18](#event-6553518)   | 0x011D       |     14 |              2 |
| [65535.19](#event-6553519)   | 0x012B       |     16 |              2 |
| [65535.20](#event-6553520)   | 0x013B       |     22 |              4 |
| [65535.21](#event-6553521)   | 0x0151       |     16 |              2 |
| [65535.22](#event-6553522)   | 0x0161       |     14 |              2 |
| [65535.23](#event-6553523)   | 0x016F       |     16 |              2 |
| [65535.24](#event-6553524)   | 0x017F       |     14 |              2 |
| [65535.25](#event-6553525)   | 0x018D       |     16 |              2 |
| [65535.26](#event-6553526)   | 0x019D       |     22 |              4 |
| [65535.27](#event-6553527)   | 0x01B3       |     16 |              2 |
| [65535.28](#event-6553528)   | 0x01C3       |     14 |              2 |
| [65535.29](#event-6553529)   | 0x01D1       |     16 |              2 |
| [65535.30](#event-6553530)   | 0x01E1       |     14 |              2 |
| [65535.31](#event-6553531)   | 0x01EF       |     16 |              2 |
| [65535.32](#event-6553532)   | 0x01FF       |     14 |              2 |
| [65535.33](#event-6553533)   | 0x020D       |     16 |              2 |
| [65535.34](#event-6553534)   | 0x021D       |     14 |              2 |
| [65535.35](#event-6553535)   | 0x022B       |     16 |              2 |
| [65535.36](#event-6553536)   | 0x023B       |     14 |              2 |
| [65535.37](#event-6553537)   | 0x0249       |     16 |              2 |
| [65535.38](#event-6553538)   | 0x0259       |     14 |              2 |
| [65535.39](#event-6553539)   | 0x0267       |     16 |              2 |
| [65535.40](#event-6553540)   | 0x0277       |     14 |              2 |
| [65535.41](#event-6553541)   | 0x0285       |     16 |              2 |
| [65535.42](#event-6553542)   | 0x0295       |     22 |              4 |
| [65535.43](#event-6553543)   | 0x02AB       |     44 |              4 |
| [65535.44](#event-6553544)   | 0x02D7       |     16 |              2 |
| [65535.45](#event-6553545)   | 0x02E7       |     14 |              2 |
| [65535.46](#event-6553546)   | 0x02F5       |     18 |              4 |
| [65535.47](#event-6553547)   | 0x0307       |     18 |              4 |
| [65535.48](#event-6553548)   | 0x0319       |     18 |              4 |
| [65535.49](#event-6553549)   | 0x032B       |     18 |              4 |
| [65535.50](#event-6553550)   | 0x033D       |     18 |              4 |
| [65535.51](#event-6553551)   | 0x034F       |     27 |              3 |
| [65535.52](#event-6553552)   | 0x036A       |      9 |              3 |
| [65535.53](#event-6553553)   | 0x0373       |     16 |              2 |
| [65535.54](#event-6553554)   | 0x0383       |     14 |              2 |
| [65535.55](#event-6553555)   | 0x0391       |     16 |              2 |
| [65535.56](#event-6553556)   | 0x03A1       |     14 |              2 |
| [65535.57](#event-6553557)   | 0x03AF       |     16 |              2 |
| [65535.58](#event-6553558)   | 0x03BF       |     14 |              2 |
| [65535.59](#event-6553559)   | 0x03CD       |     16 |              2 |
| [65535.60](#event-6553560)   | 0x03DD       |     14 |              2 |
| [65535.61](#event-6553561)   | 0x03EB       |     16 |              2 |
| [65535.62](#event-6553562)   | 0x03FB       |     14 |              2 |
| [65535.63](#event-6553563)   | 0x0409       |     16 |              2 |
| [65535.64](#event-6553564)   | 0x0419       |     14 |              2 |
| [65535.65](#event-6553565)   | 0x0427       |     16 |              2 |
| [65535.66](#event-6553566)   | 0x0437       |     14 |              2 |
| [65535.67](#event-6553567)   | 0x0445       |     16 |              2 |
| [65535.68](#event-6553568)   | 0x0455       |     14 |              2 |
| [65535.69](#event-6553569)   | 0x0463       |     16 |              2 |
| [65535.70](#event-6553570)   | 0x0473       |     14 |              2 |
| [305](#event-305)            | 0x0481       |     33 |             12 |
| [311](#event-311)            | 0x04A2       |     29 |             10 |
| [345](#event-345)            | 0x04BF       |     33 |             12 |
| [140](#event-140)            | 0x04E0       |    214 |             30 |
| [65535.71](#event-6553571)   | 0x05B6       |     19 |              5 |
| [65535.72](#event-6553572)   | 0x05C9       |     23 |              7 |
| [65535.73](#event-6553573)   | 0x05E0       |     23 |              7 |
| [142](#event-142)            | 0x05F7       |     33 |             12 |
| [146](#event-146)            | 0x0618       |     10 |              2 |
| [65535.74](#event-6553574)   | 0x0622       |     15 |              5 |
| [65535.75](#event-6553575)   | 0x0631       |     19 |              5 |
| [65535.76](#event-6553576)   | 0x0644       |     37 |              9 |
| [65535.77](#event-6553577)   | 0x0669       |     19 |              5 |
| [65535.78](#event-6553578)   | 0x067C       |     19 |              5 |
| [65535.79](#event-6553579)   | 0x068F       |     19 |              5 |
| [65535.80](#event-6553580)   | 0x06A2       |     37 |              9 |
| [65535.81](#event-6553581)   | 0x06C7       |     44 |             10 |
| [147](#event-147)            | 0x06F3       |     47 |             14 |
| [734](#event-734)            | 0x0722       |     53 |             12 |
| [65535.82](#event-6553582)   | 0x0757       |      5 |              3 |
| [65535.83](#event-6553583)   | 0x075C       |      9 |              5 |
| [735](#event-735)            | 0x0765       |     47 |             14 |
| [739](#event-739)            | 0x0794       |     47 |             14 |
| [742](#event-742)            | 0x07C3       |    810 |            111 |
| [65535.84](#event-6553584)   | 0x0AED       |      5 |              3 |
| [65535.85](#event-6553585)   | 0x0AF2       |      5 |              3 |
| [743](#event-743)            | 0x0AF7       |     45 |             14 |
| [785](#event-785)            | 0x0B24       |      1 |              1 |
| [65535.86](#event-6553586)   | 0x0B25       |     10 |              2 |
| [65535.87](#event-6553587)   | 0x0B2F       |     10 |              2 |
| [65535.88](#event-6553588)   | 0x0B39       |     14 |              4 |
| [65535.89](#event-6553589)   | 0x0B47       |      5 |              3 |
| [65535.90](#event-6553590)   | 0x0B4C       |      5 |              3 |
| [65535.91](#event-6553591)   | 0x0B51       |      5 |              3 |
| [790](#event-790)            | 0x0B56       |     54 |             15 |
| [794](#event-794)            | 0x0B8C       |     61 |             16 |
| [842](#event-842)            | 0x0BC9       |    906 |            136 |
| [65535.92](#event-6553592)   | 0x0F53       |     15 |              5 |
| [843](#event-843)            | 0x0F62       |     59 |             17 |
| [844](#event-844)            | 0x0F9D       |   1395 |            180 |
| [845](#event-845)            | 0x1510       |     65 |             18 |
| [846](#event-846)            | 0x1551       |   1710 |            262 |
| [847](#event-847)            | 0x1BFF       |     54 |             15 |
| [848](#event-848)            | 0x1C35       |    808 |            113 |
| [850](#event-850)            | 0x1F5D       |   1044 |            182 |
| [851](#event-851)            | 0x2371       |     54 |             15 |
| [884](#event-884)            | 0x23A7       |     15 |              4 |
| [65535.93](#event-6553593)   | 0x23B6       |     10 |              2 |
| [65535.94](#event-6553594)   | 0x23C0       |     73 |              7 |
| [65535.95](#event-6553595)   | 0x2409       |     15 |              5 |
| [65535.96](#event-6553596)   | 0x2418       |     15 |              5 |
| [65535.97](#event-6553597)   | 0x2427       |     10 |              2 |
| [65535.98](#event-6553598)   | 0x2431       |     22 |              6 |
| [65535.99](#event-6553599)   | 0x2447       |     15 |              5 |
| [65535.100](#event-65535100) | 0x2456       |     10 |              2 |
| [65535.101](#event-65535101) | 0x2460       |     22 |              8 |
| [885](#event-885)            | 0x2476       |     87 |             23 |
| [886](#event-886)            | 0x24CD       |     15 |              4 |
| [888](#event-888)            | 0x24DC       |     15 |              4 |
| [65535.102](#event-65535102) | 0x24EB       |     10 |              2 |
| [65535.103](#event-65535103) | 0x24F5       |     15 |              5 |
| [65535.104](#event-65535104) | 0x2504       |     48 |             12 |
| [889](#event-889)            | 0x2534       |     37 |             14 |
| [897](#event-897)            | 0x2559       |     66 |             19 |

## DAT References (imed_data)

|   Index | Hex Value   |   Dec Value |
|---------|-------------|-------------|
|       0 | 0x0028      |          40 |
|       1 | 0x0029      |          41 |
|       2 | 0x003C      |          60 |
|       3 | 0x002A      |          42 |
|       4 | 0x0001      |           1 |
|       5 | 0x0007      |           7 |
|       6 | 0x0006      |           6 |
|       7 | 0x0008      |           8 |
|       8 | 0x000D      |          13 |
|       9 | 0x002B      |          43 |
|      10 | 0x01AE      |         430 |
|      11 | 0x01AF      |         431 |
|      12 | 0x002E      |          46 |
|      13 | 0x1F5A      |        8026 |
|      14 | 0x1F5B      |        8027 |
|      15 | 0x1F69      |        8041 |
|      16 | 0x1FAB      |        8107 |
|      17 | 0x1FAC      |        8108 |
|      18 | 0x00C8      |         200 |
|      19 | 0x0000      |           0 |
|      20 | 0x0003      |           3 |
|      21 | 0x008A      |         138 |
|      22 | 0x1DB2      |        7602 |
|      23 | 0x1DB4      |        7604 |
|      24 | 0x1DB5      |        7605 |
|      25 | 0x1DB6      |        7606 |
|      26 | 0x1DB7      |        7607 |
|      27 | 0x1DB8      |        7608 |
|      28 | 0x1DB9      |        7609 |
|      29 | 0x33B2      |       13234 |
|      30 | 0xFFFCFC3E  |  4294769726 |
|      31 | 0xFFFFD9EA  |  4294957546 |
|      32 | 0x0045      |          69 |
|      33 | 0x3AD7      |       15063 |
|      34 | 0xFFFCFCDF  |  4294769887 |
|      35 | 0x1DC1      |        7617 |
|      36 | 0x1DC2      |        7618 |
|      37 | 0x1DC3      |        7619 |
|      38 | 0x1DC6      |        7622 |
|      39 | 0x1DC9      |        7625 |
|      40 | 0x1DCA      |        7626 |
|      41 | 0x1DCB      |        7627 |
|      42 | 0x1DCC      |        7628 |
|      43 | 0x1DCD      |        7629 |
|      44 | 0x1DCE      |        7630 |
|      45 | 0x1DCF      |        7631 |
|      46 | 0x1DD0      |        7632 |
|      47 | 0x25F7      |        9719 |
|      48 | 0x25F8      |        9720 |
|      49 | 0x25F9      |        9721 |
|      50 | 0x25FA      |        9722 |
|      51 | 0x25FB      |        9723 |
|      52 | 0x2607      |        9735 |
|      53 | 0x2608      |        9736 |
|      54 | 0x3212      |       12818 |
|      55 | 0xFFFCFCAA  |  4294769834 |
|      56 | 0xFFFFD9EB  |  4294957547 |
|      57 | 0x0F8D      |        3981 |
|      58 | 0x007B      |         123 |
|      59 | 0x0064      |         100 |
|      60 | 0x00D3      |         211 |
|      61 | 0x260E      |        9742 |
|      62 | 0x260F      |        9743 |
|      63 | 0x2610      |        9744 |
|      64 | 0x2612      |        9746 |
|      65 | 0x2613      |        9747 |
|      66 | 0x0004      |           4 |
|      67 | 0x0FBD      |        4029 |
|      68 | 0x2616      |        9750 |
|      69 | 0x0097      |         151 |
|      70 | 0x007F      |         127 |
|      71 | 0x012C      |         300 |
|      72 | 0x0017      |          23 |
|      73 | 0x00C9      |         201 |
|      74 | 0x260D      |        9741 |
|      75 | 0x2611      |        9745 |
|      76 | 0x000B      |          11 |
|      77 | 0x2617      |        9751 |
|      78 | 0x2618      |        9752 |
|      79 | 0x0F64      |        3940 |
|      80 | 0xFFFCFE54  |  4294770260 |
|      81 | 0xFFFFEF66  |  4294963046 |
|      82 | 0x00CB      |         203 |
|      83 | 0x360F      |       13839 |
|      84 | 0xFFFCFE5C  |  4294770268 |
|      85 | 0x0027      |          39 |
|      86 | 0x307A      |       12410 |
|      87 | 0xFFFCFFA7  |  4294770599 |
|      88 | 0x2698      |        9880 |
|      89 | 0x269C      |        9884 |
|      90 | 0x26A2      |        9890 |
|      91 | 0x26B4      |        9908 |
|      92 | 0x26B5      |        9909 |
|      93 | 0x26BF      |        9919 |
|      94 | 0x26C0      |        9920 |
|      95 | 0x0015      |          21 |
|      96 | 0x2771      |       10097 |
|      97 | 0x2772      |       10098 |
|      98 | 0x2773      |       10099 |
|      99 | 0x0002      |           2 |
|     100 | 0x2775      |       10101 |
|     101 | 0x2776      |       10102 |
|     102 | 0x2777      |       10103 |
|     103 | 0x2778      |       10104 |
|     104 | 0x00D4      |         212 |
|     105 | 0x0022      |          34 |
|     106 | 0x2779      |       10105 |
|     107 | 0x277A      |       10106 |
|     108 | 0x277B      |       10107 |
|     109 | 0x277C      |       10108 |
|     110 | 0x277D      |       10109 |
|     111 | 0x277E      |       10110 |
|     112 | 0x277F      |       10111 |
|     113 | 0x2780      |       10112 |
|     114 | 0x2781      |       10113 |
|     115 | 0x2774      |       10100 |
|     116 | 0x3095      |       12437 |
|     117 | 0xFFFCFC9D  |  4294769821 |
|     118 | 0x2782      |       10114 |
|     119 | 0x2783      |       10115 |
|     120 | 0x2784      |       10116 |
|     121 | 0x2785      |       10117 |
|     122 | 0x0005      |           5 |
|     123 | 0x2786      |       10118 |
|     124 | 0x2787      |       10119 |
|     125 | 0x2788      |       10120 |
|     126 | 0x2789      |       10121 |
|     127 | 0x278A      |       10122 |
|     128 | 0x0096      |         150 |
|     129 | 0x278B      |       10123 |
|     130 | 0x278C      |       10124 |
|     131 | 0x278D      |       10125 |
|     132 | 0x278E      |       10126 |
|     133 | 0x278F      |       10127 |
|     134 | 0x2790      |       10128 |
|     135 | 0x2791      |       10129 |
|     136 | 0x2792      |       10130 |
|     137 | 0x2793      |       10131 |
|     138 | 0x2794      |       10132 |
|     139 | 0x2795      |       10133 |
|     140 | 0x2796      |       10134 |
|     141 | 0x2797      |       10135 |
|     142 | 0x0099      |         153 |
|     143 | 0x2798      |       10136 |
|     144 | 0x2799      |       10137 |
|     145 | 0x279A      |       10138 |
|     146 | 0x000A      |          10 |
|     147 | 0x279B      |       10139 |
|     148 | 0x279C      |       10140 |
|     149 | 0x279D      |       10141 |
|     150 | 0x279E      |       10142 |
|     151 | 0x279F      |       10143 |
|     152 | 0x27A0      |       10144 |
|     153 | 0x27A1      |       10145 |
|     154 | 0x3352      |       13138 |
|     155 | 0x27A2      |       10146 |
|     156 | 0x27A3      |       10147 |
|     157 | 0x27A4      |       10148 |
|     158 | 0x27A5      |       10149 |
|     159 | 0x27A6      |       10150 |
|     160 | 0x27A7      |       10151 |
|     161 | 0x27A8      |       10152 |
|     162 | 0x27A9      |       10153 |
|     163 | 0x27AA      |       10154 |
|     164 | 0x27AB      |       10155 |
|     165 | 0x0078      |         120 |
|     166 | 0x27AC      |       10156 |
|     167 | 0x27AD      |       10157 |
|     168 | 0x27AE      |       10158 |
|     169 | 0x27AF      |       10159 |
|     170 | 0x27B0      |       10160 |
|     171 | 0x27B1      |       10161 |
|     172 | 0x27B2      |       10162 |
|     173 | 0x27B3      |       10163 |
|     174 | 0x27B4      |       10164 |
|     175 | 0x27B5      |       10165 |
|     176 | 0x27B6      |       10166 |
|     177 | 0x27B7      |       10167 |
|     178 | 0x27B8      |       10168 |
|     179 | 0x27B9      |       10169 |
|     180 | 0x27BA      |       10170 |
|     181 | 0x0014      |          20 |
|     182 | 0x27BB      |       10171 |
|     183 | 0x27BC      |       10172 |
|     184 | 0x27BD      |       10173 |
|     185 | 0x27BE      |       10174 |
|     186 | 0x27BF      |       10175 |
|     187 | 0x2CA8      |       11432 |
|     188 | 0x0711      |        1809 |
|     189 | 0x00A0      |         160 |
|     190 | 0x005A      |          90 |
|     191 | 0x31A7      |       12711 |
|     192 | 0xFFFCFCCF  |  4294769871 |
|     193 | 0x3A1F      |       14879 |
|     194 | 0xFFFCFB2F  |  4294769455 |
|     195 | 0x408E      |       16526 |
|     196 | 0xFFFCFCCE  |  4294769870 |
|     197 | 0x06A4      |        1700 |
|     198 | 0x4053      |       16467 |
|     199 | 0xFFFCF39E  |  4294767518 |
|     200 | 0x7176      |       29046 |
|     201 | 0xFFFD18DA  |  4294777050 |
|     202 | 0x06D2      |        1746 |
|     203 | 0x69B9      |       27065 |
|     204 | 0xFFFD11E5  |  4294775269 |
|     205 | 0x29A4      |       10660 |
|     206 | 0x29A7      |       10663 |
|     207 | 0x29A9      |       10665 |
|     208 | 0x29AA      |       10666 |
|     209 | 0x2EA3      |       11939 |
|     210 | 0xFFFCFB0A  |  4294769418 |
|     211 | 0x3C88      |       15496 |
|     212 | 0xFFFCFA6B  |  4294769259 |
|     213 | 0x29C6      |       10694 |
|     214 | 0x29C4      |       10692 |
|     215 | 0x29C5      |       10693 |
|     216 | 0x29C7      |       10695 |
|     217 | 0x29C8      |       10696 |
|     218 | 0x29C9      |       10697 |

## String References

- **7602**: tWhat? Speak up! What's that you say? You're the help from the gatehouse, eh?
- **7604**: Here you go... Sorry for all the fuss. Today's offering for the altars of Giddeus.
- **7605**: In these bags are Yagudo's favorite cherries. These should give those ugly old beastmen their merries.
- **7606**: If you are wondering why there're now two bags, it's 'cause there're two altars in Giddeus's crags. A Yagudo by each altar stands. To each of them a bag you hand.
- **7607**: And though an offering you do bear, those Yagudo may attack you there. So take precautions, be prepared... Lest you return in states impaired!t
- **7608**: The places where the altars of offering stand, are a little way into the Giddeus land. Before the entrances of the caves they are, so be careful not to venture in too far.
- **7609**: And though an offering you do bear, those Yagudo may attack you there. So be prepared and best of luck, unless you are a lucky...schmuck.t
- **7617**: We of the Rhinostery would like to explore the underground canals too.
- **7618**: And investigate why the great beast disappeared after the war ceased.
- **7619**: But the entrance to the canals in Windurst Walls, has been off-limits for twenty years, 'spite our calls. Known only as the Priming Gate, Cardians guard it as of late.
- **7622**: But opening the Priming Gate is no easy thing, the key is our Rhinostery minister's ring. And Minister Rukususu wouldn't to you lend, her ring even if you were really her friend.
- **7625**: Back from Giddeus now, I see! Your mission's done. What joy, what glee!
- **7626**: Oh, that was the Orastery minister, Ajido-Marujido, who wants to go to Karaha-Baruha's lab in the canals so...
- **7627**: So it really is the truth, what the rumors say... he's been asking about forbidden magic today.
- **7628**: I'm surprised he doesn't get caught without quibble, by Windurst's Sibyl Guards and the great Star Sibyl.
- **7629**: Anyway, your task's complete, your mission done, so return to the gatehouse where you begun.
- **7630**: Ha-ha! I'm sure something great, awaits you back at the gate!
- **7631**: Well, your task's complete, your mission done. Return to the gatehouse where you begun.
- **7632**: Ha-ha! I'm sure something great, awaits you back at the gate!
- **8026**: Have you heard about the great beast, you therey? They say it's sealed inside Horutoto Ruins... How scary!
- **8027**: All let out a collective sigh, when they stopped seeing it in the night sky. Since the war of twenty years ago, its fate, our scientists strive to know.
- **8041**: <burp>... Well, excu\`se me. As you can see, I'm not the slightest bit hungry...
- **8107**: As far as the study of plants here goes, Kenapa-Keppa is the one who most knows.
- **8108**: Kenapa-Keppa has a great dream, I support him to the extreme!
- **9719**: You've come! You're here! No more to fear!
- **9720**: I want you to stop Minister Rukususu! She's run off on the trail of Mr. Iru-Kuiru, All the way to the southern continent. It's terribly dangerous, in any event!
- **9721**: Ask Kerutoto for greater detail. She's on the first floor, with the whole sorry tale.
- **9722**: I want you to stop Minister Rukususu! She's run off on the trail of Mr. Iru-Kuiru, All the way to the southern continent. It's terribly dangerous, in any event!
- **9723**: Ask Kerutoto for greater detail. She's on the first floor, with the whole sorry tale.
- **9735**: Go to the southern continent right away, And rescue Rukususu from her path gone astray!
- **9736**: Iru-Kuiru was cursed unto death! It's been thirty years since his last living breath! Our beloved minister could end up sharing his fate, So be on your way, before it's too late!
- **9741**: You're back! Is the minister safe and sound? Justaru a moment, I don't see her around!?
- **9745**: Minister Rukususu! It's so good to see you!
- **9751**: I'm so relieved to have the minister home. But she'll soon be off for another Northlands roam...
- **9752**: The other researchers are still up there on the ice. On Beaucedine Glacier, you can freeze in a trice!
- **9880**: What's all this fuss and noise I hear? An emergency, huh? What's there to fear?
- **9884**: Oh my Goddess, this cannot be! You know the roots of the Great Star Tree, Are found beyond the Priming Gate, In Toraimarai Canal, oh why, cruel fate?
- **9890**: Full Rhinostery authorization, you say? And hand [him/her] the $3, come what may?
- **9908**: The $3 is not a toy, So use it properly, and be a good boy!
- **9909**: The Rhinostery's name you have in your hands, Please use it with honor, as your conscience demands! If you handle yourself badly, and none-too-politely, The Cardian at the gate will not take it lightly!
- **9919**: Doctor Yoran-Oran is going to study, Starmite ecology for the Rhinostery!
- **9920**: Also, the fauna researchers are returning full speed, To Windurst, to help in our hour of need! I hope coming with them is the specialist guy, Who is versed in all things that concern Toraimarai!
- **10097**: I've been meaning to ask, my adventurer friend, Have you met our researchers beyond this land's end?
- **10098**: I speak of the scholars who brave ice, wind, and heat. They study protocrystals. They're the best, our elite.
- **10099**: Have you met them? [We're on a first-name basis./Haven't had the pleasure.]
- **10100**: Well, that justaru won't do. Come see me again when you know who's who.
- **10101**: We have this new theory that'll make your mind race: The crystals contain a dimensional space!
- **10102**: This dimension exists in Vana'diel, we think, as a home for great beings--as some kind of link.
- **10103**: "Avatars" is the name that we've chosen to call these dimensional beings. And the reason is all...
- **10104**: ...because of this $1. This gem. If you sit still and listen, you just might hear him...
- **10105**: Collect the whispers...
- **10106**: ...of the six Avatars...
- **10107**: ...that slumber within...
- **10108**: ...the crystals.
- **10109**: The voice of $1, could you hear what it said? It never stops droning those words in my head!
- **10110**: This world's protocrystals number six in all. Six Avatars lay dormant, awaiting your call...
- **10111**: Gather the "whispers." What could they be? I'm afraid that the word has no meaning to me.
- **10112**: If, my brave soul, you are able to find these six phantom whispers, then drop me a line.
- **10113**: With this $1 begging for aid, how could we think to not take up its crusade?
- **10114**: In the history of Vana'diel, to see such a number of $1 is a mysterious wonder.
- **10115**: It must be important to make such a fuss. But these whispers are still an enigma to us.
- **10116**: If you manage to get all six whispers in hand, come let me know and we'll see what fate's planned.
- **10117**: You've brought back the whispers? You've gathered all six? Don't try to fool me with childish tricks!
- **10118**: ...
- **10119**: ...? Nothing's changed that I can see. Are you sure that you're not kidding me?
- **10120**: Take the six whispers...
- **10121**: ...to the lair of...
- **10122**: ...Fenrir.
- **10123**: Wow! $1 changed right before our eyes! It's become $6, isn't this a surprise!
- **10124**: And did I hear the name "Fenrir" justaru then? Could this mean you must go to the Great Beast's den...?
- **10125**: If I understand this one-sided conversation, the Full Moon Fountain is your next destination!
- **10126**: But no one may enter without the right power: a magical charm from Heavens Tower...
- **10127**: With my power...
- **10128**: ...one may pass.
- **10129**: Are you saying that you can get one person through? But what if your friends want to accompany you, too?
- **10130**: It seems that $6 will be needed for each of your pals who join in on this great fountain breach.
- **10131**: I'll gather more $1 for all, so tell all your friends I'm the guy they should call!
- **10132**: Carbuncle says he will help you get through, but once at the fountain it's all up to you. Make sure you are ready for trouble or strife; rushing in without care could cost you your life!
- **10133**: It seems that $6 will be needed for each of your pals who join in on this great fountain breach.
- **10134**: I'll gather more $1 for all, so tell all your friends I'm the guy they should call!
- **10135**: Oh, there you are, my adventurous friend! I'd feared that this fountain foray'd spelled your end!
- **10136**: Carbuncle had wanted to tell to Fenrir, the things that transpire in our world out here...?
- **10137**: I'm quite sure that Fenrir's failure to show himself up above has been quite a blow.
- **10138**: Our little blue friend here has been all alone. Is the reason for Fenrir's behavior well known...?
- **10146**: What do you desire? [$5./$6./$7./$1./$2./Gil./A pact with Fenrir./A pact with Fenrir as a mount.]
- **10148**: You want $5? [Yes./Wait!]
- **10149**: You want $6? [Yes./Wait!]
- **10150**: You want $7? [Yes./Wait!]
- **10151**: You want $1? [Yes./Wait!]
- **10152**: You want $2? [Yes./Wait!]
- **10153**: Gil is what you truly want? [Yes./Wait!]
- **10154**: Are you sure? [Yes./Wait!]
- **10156**: Did I dream all of that, or was it all real!? Carbuncle's speech was beyond me, I feel.
- **10157**: The new energies born to our dear Vana'diel. The avatars ancient and slumbering still.
- **10158**: This could be the start of a new study craze! You could spend your whole life in a researcher's daze!
- **10159**: But $3 will be in great need! They might speak again, and those words we must heed!
- **10160**: This could be the start of a new study craze! You could spend your whole life in a researcher's daze!
- **10161**: But $1 will be in great need! They might speak again, and those words we must heed!
- **10162**: We meet yet again, my far-traveling friend! Are these meetings of ours becoming a trend?
- **10163**: $1 are filled with his essence. Carbuncle's multiple, world-spanning presence.
- **10164**: I figured it out; the mystery's unfurled! He uses these rubies to spy on the world!
- **10165**: And now once again he is talking to us. This $1 has much to discuss!
- **10166**: We've taken the words of that ruby to heart, and had other adventurers go do their part. Collecting those whispers must be quite a trial! I'm glad that you heroes are still able to smile!
- **10167**: Go to the fountain, and just like before, you'll be facing the Great Beast Fenrir's fearsome maw!
- **10168**: Head to the fountain again? [Sure!/Not again...]
- **10169**: Remember that $6 will be needed for each of your pals who join in on this great fountain breach.
- **10170**: You're off on your journey? Good luck and take care! Adventurers like you are certainly rare!
- **10172**: Wait! Hold up there, I wanted to ask you...! I thought you could answer a question or two...
- **10173**: You know, I've been thinking about this whole thing. How Carbuncle's got you whisper collecting...
- **10174**: I wonder if this isn't just some grand farce to slowly steal power from the avatars?
- **10175**: This tale has its share of twists, turns, and bends! I'm definitely curious to see how it ends!
- **10660**: $1, $2, and $3...
- **10663**: Bring me those items, I humbly implore you! I swear on my name that I'll pay you your due!
- **10665**: $1, $2, and $3...
- **10666**: Won'taru anyone out there hear my sad pleas...? I'd even be willing to pay finder's fees...
- **10692**: Don'taru forget to put safety first. Like poor Iru-Kuiru, try not to get cursed.
- **10693**: An allied expedition member was he. A researcher from our beloved Rhinostery.
- **10694**: If you want to help Ildy along, Put on your trunks and swim to Kazham!
- **10695**: The triumphant adventurer returns from his quest! Ildy told us you passed every trial and test!
- **10696**: As thanks for your help in this troublesome case, Here's a helmet that sells at incredible pace!
- **10697**: I've made it so it can be worn by we mages! It's sending the milliner into red rages!

## Events

### Event 65535

#### Metadata

| Field        | Value   |
|--------------|---------|
| Entrypoint   | 0x0000  |
| Data Size    | 1 bytes |
| Instructions | 1       |

```
      00 01 02 03 04 05 06 07  08 09 0A 0B 0C 0D 0E 0F
      -- -- -- -- -- -- -- --  -- -- -- -- -- -- -- --
0000: 00                                                .               
```

#### Opcodes

```
  0: 0x0000 [0x00] END_REQSTACK()
```

### Event 65535.1

#### Metadata

| Field        | Value    |
|--------------|----------|
| Entrypoint   | 0x0001   |
| Data Size    | 16 bytes |
| Instructions | 2        |

```
      00 01 02 03 04 05 06 07  08 09 0A 0B 0C 0D 0E 0F
      -- -- -- -- -- -- -- --  -- -- -- -- -- -- -- --
0000:    66 00 80 F8 FF FF 7F  F8 FF FF 7F 74 6C 6B 30   f..........tlk0
0010: 00                                                .               
```

#### Opcodes

```
  0: 0x0001 [0x66] LOAD_EXT_SCHEDULER_MAIN: Load scheduler "tlk0" with entities [EventEntity, EventEntity], work=40*
  1: 0x0010 [0x00] END_REQSTACK()
```

### Event 65535.2

#### Metadata

| Field        | Value    |
|--------------|----------|
| Entrypoint   | 0x0011   |
| Data Size    | 42 bytes |
| Instructions | 4        |

```
      00 01 02 03 04 05 06 07  08 09 0A 0B 0C 0D 0E 0F
      -- -- -- -- -- -- -- --  -- -- -- -- -- -- -- --
0010:    53 F8 FF FF 7F F8 FF  FF 7F 74 6C 6B 30 66 00   S........tlk0f.
0020: 80 F8 FF FF 7F F8 FF FF  7F 74 6C 6B 31 53 F8 FF  .........tlk1S..
0030: FF 7F F8 FF FF 7F 74 6C  6B 31 00                 ......tlk1.     
```

#### Opcodes

```
  0: 0x0011 [0x53] WAIT_SCHEDULER_TASK: Wait for scheduler "tlk0" with entities [EventEntity, EventEntity]
  1: 0x001E [0x66] LOAD_EXT_SCHEDULER_MAIN: Load scheduler "tlk1" with entities [EventEntity, EventEntity], work=40*
  2: 0x002D [0x53] WAIT_SCHEDULER_TASK: Wait for scheduler "tlk1" with entities [EventEntity, EventEntity]
  3: 0x003A [0x00] END_REQSTACK()
```

### Event 65535.3

#### Metadata

| Field        | Value    |
|--------------|----------|
| Entrypoint   | 0x003B   |
| Data Size    | 16 bytes |
| Instructions | 2        |

```
      00 01 02 03 04 05 06 07  08 09 0A 0B 0C 0D 0E 0F
      -- -- -- -- -- -- -- --  -- -- -- -- -- -- -- --
0030:                                   66 00 80 F8 FF             f....
0040: FF 7F F8 FF FF 7F 74 68  6B 31 00                 ......thk1.     
```

#### Opcodes

```
  0: 0x003B [0x66] LOAD_EXT_SCHEDULER_MAIN: Load scheduler "thk1" with entities [EventEntity, EventEntity], work=40*
  1: 0x004A [0x00] END_REQSTACK()
```

### Event 65535.4

#### Metadata

| Field        | Value    |
|--------------|----------|
| Entrypoint   | 0x004B   |
| Data Size    | 14 bytes |
| Instructions | 2        |

```
      00 01 02 03 04 05 06 07  08 09 0A 0B 0C 0D 0E 0F
      -- -- -- -- -- -- -- --  -- -- -- -- -- -- -- --
0040:                                   53 F8 FF FF 7F             S....
0050: F8 FF FF 7F 74 68 6B 31  00                       ....thk1.       
```

#### Opcodes

```
  0: 0x004B [0x53] WAIT_SCHEDULER_TASK: Wait for scheduler "thk1" with entities [EventEntity, EventEntity]
  1: 0x0058 [0x00] END_REQSTACK()
```

### Event 65535.5

#### Metadata

| Field        | Value    |
|--------------|----------|
| Entrypoint   | 0x0059   |
| Data Size    | 16 bytes |
| Instructions | 2        |

```
      00 01 02 03 04 05 06 07  08 09 0A 0B 0C 0D 0E 0F
      -- -- -- -- -- -- -- --  -- -- -- -- -- -- -- --
0050:                             66 00 80 F8 FF FF 7F           f......
0060: F8 FF FF 7F 74 68 6B 32  00                       ....thk2.       
```

#### Opcodes

```
  0: 0x0059 [0x66] LOAD_EXT_SCHEDULER_MAIN: Load scheduler "thk2" with entities [EventEntity, EventEntity], work=40*
  1: 0x0068 [0x00] END_REQSTACK()
```

### Event 65535.6

#### Metadata

| Field        | Value    |
|--------------|----------|
| Entrypoint   | 0x0069   |
| Data Size    | 14 bytes |
| Instructions | 2        |

```
      00 01 02 03 04 05 06 07  08 09 0A 0B 0C 0D 0E 0F
      -- -- -- -- -- -- -- --  -- -- -- -- -- -- -- --
0060:                             53 F8 FF FF 7F F8 FF           S......
0070: FF 7F 74 68 6B 32 00                              ..thk2.         
```

#### Opcodes

```
  0: 0x0069 [0x53] WAIT_SCHEDULER_TASK: Wait for scheduler "thk2" with entities [EventEntity, EventEntity]
  1: 0x0076 [0x00] END_REQSTACK()
```

### Event 65535.7

#### Metadata

| Field        | Value    |
|--------------|----------|
| Entrypoint   | 0x0077   |
| Data Size    | 16 bytes |
| Instructions | 2        |

```
      00 01 02 03 04 05 06 07  08 09 0A 0B 0C 0D 0E 0F
      -- -- -- -- -- -- -- --  -- -- -- -- -- -- -- --
0070:                      66  01 80 F8 FF FF 7F F8 FF         f........
0080: FF 7F 73 68 6B 30 00                              ..shk0.         
```

#### Opcodes

```
  0: 0x0077 [0x66] LOAD_EXT_SCHEDULER_MAIN: Load scheduler "shk0" with entities [EventEntity, EventEntity], work=41*
  1: 0x0086 [0x00] END_REQSTACK()
```

### Event 65535.8

#### Metadata

| Field        | Value    |
|--------------|----------|
| Entrypoint   | 0x0087   |
| Data Size    | 14 bytes |
| Instructions | 2        |

```
      00 01 02 03 04 05 06 07  08 09 0A 0B 0C 0D 0E 0F
      -- -- -- -- -- -- -- --  -- -- -- -- -- -- -- --
0080:                      53  F8 FF FF 7F F8 FF FF 7F         S........
0090: 73 68 6B 30 00                                    shk0.           
```

#### Opcodes

```
  0: 0x0087 [0x53] WAIT_SCHEDULER_TASK: Wait for scheduler "shk0" with entities [EventEntity, EventEntity]
  1: 0x0094 [0x00] END_REQSTACK()
```

### Event 65535.9

#### Metadata

| Field        | Value    |
|--------------|----------|
| Entrypoint   | 0x0095   |
| Data Size    | 16 bytes |
| Instructions | 2        |

```
      00 01 02 03 04 05 06 07  08 09 0A 0B 0C 0D 0E 0F
      -- -- -- -- -- -- -- --  -- -- -- -- -- -- -- --
0090:                66 00 80  F8 FF FF 7F F8 FF FF 7F       f..........
00A0: 64 69 73 30 00                                    dis0.           
```

#### Opcodes

```
  0: 0x0095 [0x66] LOAD_EXT_SCHEDULER_MAIN: Load scheduler "dis0" with entities [EventEntity, EventEntity], work=40*
  1: 0x00A4 [0x00] END_REQSTACK()
```

### Event 65535.10

#### Metadata

| Field        | Value    |
|--------------|----------|
| Entrypoint   | 0x00A5   |
| Data Size    | 14 bytes |
| Instructions | 2        |

```
      00 01 02 03 04 05 06 07  08 09 0A 0B 0C 0D 0E 0F
      -- -- -- -- -- -- -- --  -- -- -- -- -- -- -- --
00A0:                53 F8 FF  FF 7F F8 FF FF 7F 64 69       S........di
00B0: 73 30 00                                          s0.             
```

#### Opcodes

```
  0: 0x00A5 [0x53] WAIT_SCHEDULER_TASK: Wait for scheduler "dis0" with entities [EventEntity, EventEntity]
  1: 0x00B2 [0x00] END_REQSTACK()
```

### Event 65535.11

#### Metadata

| Field        | Value    |
|--------------|----------|
| Entrypoint   | 0x00B3   |
| Data Size    | 16 bytes |
| Instructions | 2        |

```
      00 01 02 03 04 05 06 07  08 09 0A 0B 0C 0D 0E 0F
      -- -- -- -- -- -- -- --  -- -- -- -- -- -- -- --
00B0:          66 00 80 F8 FF  FF 7F F8 FF FF 7F 70 6F     f..........po
00C0: 69 30 00                                          i0.             
```

#### Opcodes

```
  0: 0x00B3 [0x66] LOAD_EXT_SCHEDULER_MAIN: Load scheduler "poi0" with entities [EventEntity, EventEntity], work=40*
  1: 0x00C2 [0x00] END_REQSTACK()
```

### Event 65535.12

#### Metadata

| Field        | Value    |
|--------------|----------|
| Entrypoint   | 0x00C3   |
| Data Size    | 14 bytes |
| Instructions | 2        |

```
      00 01 02 03 04 05 06 07  08 09 0A 0B 0C 0D 0E 0F
      -- -- -- -- -- -- -- --  -- -- -- -- -- -- -- --
00C0:          53 F8 FF FF 7F  F8 FF FF 7F 70 6F 69 30     S........poi0
00D0: 00                                                .               
```

#### Opcodes

```
  0: 0x00C3 [0x53] WAIT_SCHEDULER_TASK: Wait for scheduler "poi0" with entities [EventEntity, EventEntity]
  1: 0x00D0 [0x00] END_REQSTACK()
```

### Event 65535.13

#### Metadata

| Field        | Value    |
|--------------|----------|
| Entrypoint   | 0x00D1   |
| Data Size    | 16 bytes |
| Instructions | 2        |

```
      00 01 02 03 04 05 06 07  08 09 0A 0B 0C 0D 0E 0F
      -- -- -- -- -- -- -- --  -- -- -- -- -- -- -- --
00D0:    66 00 80 F8 FF FF 7F  F8 FF FF 7F 70 61 73 30   f..........pas0
00E0: 00                                                .               
```

#### Opcodes

```
  0: 0x00D1 [0x66] LOAD_EXT_SCHEDULER_MAIN: Load scheduler "pas0" with entities [EventEntity, EventEntity], work=40*
  1: 0x00E0 [0x00] END_REQSTACK()
```

### Event 65535.14

#### Metadata

| Field        | Value    |
|--------------|----------|
| Entrypoint   | 0x00E1   |
| Data Size    | 14 bytes |
| Instructions | 2        |

```
      00 01 02 03 04 05 06 07  08 09 0A 0B 0C 0D 0E 0F
      -- -- -- -- -- -- -- --  -- -- -- -- -- -- -- --
00E0:    53 F8 FF FF 7F F8 FF  FF 7F 70 61 73 30 00      S........pas0. 
```

#### Opcodes

```
  0: 0x00E1 [0x53] WAIT_SCHEDULER_TASK: Wait for scheduler "pas0" with entities [EventEntity, EventEntity]
  1: 0x00EE [0x00] END_REQSTACK()
```

### Event 65535.15

#### Metadata

| Field        | Value    |
|--------------|----------|
| Entrypoint   | 0x00EF   |
| Data Size    | 16 bytes |
| Instructions | 2        |

```
      00 01 02 03 04 05 06 07  08 09 0A 0B 0C 0D 0E 0F
      -- -- -- -- -- -- -- --  -- -- -- -- -- -- -- --
00E0:                                               66                 f
00F0: 00 80 F8 FF FF 7F F8 FF  FF 7F 73 79 75 30 00     ..........syu0. 
```

#### Opcodes

```
  0: 0x00EF [0x66] LOAD_EXT_SCHEDULER_MAIN: Load scheduler "syu0" with entities [EventEntity, EventEntity], work=40*
  1: 0x00FE [0x00] END_REQSTACK()
```

### Event 65535.16

#### Metadata

| Field        | Value    |
|--------------|----------|
| Entrypoint   | 0x00FF   |
| Data Size    | 14 bytes |
| Instructions | 2        |

```
      00 01 02 03 04 05 06 07  08 09 0A 0B 0C 0D 0E 0F
      -- -- -- -- -- -- -- --  -- -- -- -- -- -- -- --
00F0:                                               53                 S
0100: F8 FF FF 7F F8 FF FF 7F  73 79 75 30 00           ........syu0.   
```

#### Opcodes

```
  0: 0x00FF [0x53] WAIT_SCHEDULER_TASK: Wait for scheduler "syu0" with entities [EventEntity, EventEntity]
  1: 0x010C [0x00] END_REQSTACK()
```

### Event 65535.17

#### Metadata

| Field        | Value    |
|--------------|----------|
| Entrypoint   | 0x010D   |
| Data Size    | 16 bytes |
| Instructions | 2        |

```
      00 01 02 03 04 05 06 07  08 09 0A 0B 0C 0D 0E 0F
      -- -- -- -- -- -- -- --  -- -- -- -- -- -- -- --
0100:                                         66 00 80               f..
0110: F8 FF FF 7F F8 FF FF 7F  77 61 76 30 00           ........wav0.   
```

#### Opcodes

```
  0: 0x010D [0x66] LOAD_EXT_SCHEDULER_MAIN: Load scheduler "wav0" with entities [EventEntity, EventEntity], work=40*
  1: 0x011C [0x00] END_REQSTACK()
```

### Event 65535.18

#### Metadata

| Field        | Value    |
|--------------|----------|
| Entrypoint   | 0x011D   |
| Data Size    | 14 bytes |
| Instructions | 2        |

```
      00 01 02 03 04 05 06 07  08 09 0A 0B 0C 0D 0E 0F
      -- -- -- -- -- -- -- --  -- -- -- -- -- -- -- --
0110:                                         53 F8 FF               S..
0120: FF 7F F8 FF FF 7F 77 61  76 30 00                 ......wav0.     
```

#### Opcodes

```
  0: 0x011D [0x53] WAIT_SCHEDULER_TASK: Wait for scheduler "wav0" with entities [EventEntity, EventEntity]
  1: 0x012A [0x00] END_REQSTACK()
```

### Event 65535.19

#### Metadata

| Field        | Value    |
|--------------|----------|
| Entrypoint   | 0x012B   |
| Data Size    | 16 bytes |
| Instructions | 2        |

```
      00 01 02 03 04 05 06 07  08 09 0A 0B 0C 0D 0E 0F
      -- -- -- -- -- -- -- --  -- -- -- -- -- -- -- --
0120:                                   66 01 80 F8 FF             f....
0130: FF 7F F8 FF FF 7F 65 68  6E 30 00                 ......ehn0.     
```

#### Opcodes

```
  0: 0x012B [0x66] LOAD_EXT_SCHEDULER_MAIN: Load scheduler "ehn0" with entities [EventEntity, EventEntity], work=41*
  1: 0x013A [0x00] END_REQSTACK()
```

### Event 65535.20

#### Metadata

| Field        | Value    |
|--------------|----------|
| Entrypoint   | 0x013B   |
| Data Size    | 22 bytes |
| Instructions | 4        |

```
      00 01 02 03 04 05 06 07  08 09 0A 0B 0C 0D 0E 0F
      -- -- -- -- -- -- -- --  -- -- -- -- -- -- -- --
0130:                                   53 F8 FF FF 7F             S....
0140: F8 FF FF 7F 65 68 6E 30  5E 69 64 6C 30 1C 02 80  ....ehn0^idl0...
0150: 00                                                .               
```

#### Opcodes

```
  0: 0x013B [0x53] WAIT_SCHEDULER_TASK: Wait for scheduler "ehn0" with entities [EventEntity, EventEntity]
  1: 0x0148 [0x5E] EventEntity goes idle (kills current action) (animation: "idl0")
  2: 0x014D [0x1C] WAIT(60* ticks)
  3: 0x0150 [0x00] END_REQSTACK()
```

### Event 65535.21

#### Metadata

| Field        | Value    |
|--------------|----------|
| Entrypoint   | 0x0151   |
| Data Size    | 16 bytes |
| Instructions | 2        |

```
      00 01 02 03 04 05 06 07  08 09 0A 0B 0C 0D 0E 0F
      -- -- -- -- -- -- -- --  -- -- -- -- -- -- -- --
0150:    66 01 80 F8 FF FF 7F  F8 FF FF 7F 65 68 6E 31   f..........ehn1
0160: 00                                                .               
```

#### Opcodes

```
  0: 0x0151 [0x66] LOAD_EXT_SCHEDULER_MAIN: Load scheduler "ehn1" with entities [EventEntity, EventEntity], work=41*
  1: 0x0160 [0x00] END_REQSTACK()
```

### Event 65535.22

#### Metadata

| Field        | Value    |
|--------------|----------|
| Entrypoint   | 0x0161   |
| Data Size    | 14 bytes |
| Instructions | 2        |

```
      00 01 02 03 04 05 06 07  08 09 0A 0B 0C 0D 0E 0F
      -- -- -- -- -- -- -- --  -- -- -- -- -- -- -- --
0160:    53 F8 FF FF 7F F8 FF  FF 7F 65 68 6E 31 00      S........ehn1. 
```

#### Opcodes

```
  0: 0x0161 [0x53] WAIT_SCHEDULER_TASK: Wait for scheduler "ehn1" with entities [EventEntity, EventEntity]
  1: 0x016E [0x00] END_REQSTACK()
```

### Event 65535.23

#### Metadata

| Field        | Value    |
|--------------|----------|
| Entrypoint   | 0x016F   |
| Data Size    | 16 bytes |
| Instructions | 2        |

```
      00 01 02 03 04 05 06 07  08 09 0A 0B 0C 0D 0E 0F
      -- -- -- -- -- -- -- --  -- -- -- -- -- -- -- --
0160:                                               66                 f
0170: 03 80 F8 FF FF 7F F8 FF  FF 7F 6D 73 75 30 00     ..........msu0. 
```

#### Opcodes

```
  0: 0x016F [0x66] LOAD_EXT_SCHEDULER_MAIN: Load scheduler "msu0" with entities [EventEntity, EventEntity], work=42*
  1: 0x017E [0x00] END_REQSTACK()
```

### Event 65535.24

#### Metadata

| Field        | Value    |
|--------------|----------|
| Entrypoint   | 0x017F   |
| Data Size    | 14 bytes |
| Instructions | 2        |

```
      00 01 02 03 04 05 06 07  08 09 0A 0B 0C 0D 0E 0F
      -- -- -- -- -- -- -- --  -- -- -- -- -- -- -- --
0170:                                               53                 S
0180: F8 FF FF 7F F8 FF FF 7F  6D 73 75 30 00           ........msu0.   
```

#### Opcodes

```
  0: 0x017F [0x53] WAIT_SCHEDULER_TASK: Wait for scheduler "msu0" with entities [EventEntity, EventEntity]
  1: 0x018C [0x00] END_REQSTACK()
```

### Event 65535.25

#### Metadata

| Field        | Value    |
|--------------|----------|
| Entrypoint   | 0x018D   |
| Data Size    | 16 bytes |
| Instructions | 2        |

```
      00 01 02 03 04 05 06 07  08 09 0A 0B 0C 0D 0E 0F
      -- -- -- -- -- -- -- --  -- -- -- -- -- -- -- --
0180:                                         66 03 80               f..
0190: F8 FF FF 7F F8 FF FF 7F  6D 73 75 31 00           ........msu1.   
```

#### Opcodes

```
  0: 0x018D [0x66] LOAD_EXT_SCHEDULER_MAIN: Load scheduler "msu1" with entities [EventEntity, EventEntity], work=42*
  1: 0x019C [0x00] END_REQSTACK()
```

### Event 65535.26

#### Metadata

| Field        | Value    |
|--------------|----------|
| Entrypoint   | 0x019D   |
| Data Size    | 22 bytes |
| Instructions | 4        |

```
      00 01 02 03 04 05 06 07  08 09 0A 0B 0C 0D 0E 0F
      -- -- -- -- -- -- -- --  -- -- -- -- -- -- -- --
0190:                                         53 F8 FF               S..
01A0: FF 7F F8 FF FF 7F 6D 73  75 31 5E 69 64 6C 30 1C  ......msu1^idl0.
01B0: 02 80 00                                          ...             
```

#### Opcodes

```
  0: 0x019D [0x53] WAIT_SCHEDULER_TASK: Wait for scheduler "msu1" with entities [EventEntity, EventEntity]
  1: 0x01AA [0x5E] EventEntity goes idle (kills current action) (animation: "idl0")
  2: 0x01AF [0x1C] WAIT(60* ticks)
  3: 0x01B2 [0x00] END_REQSTACK()
```

### Event 65535.27

#### Metadata

| Field        | Value    |
|--------------|----------|
| Entrypoint   | 0x01B3   |
| Data Size    | 16 bytes |
| Instructions | 2        |

```
      00 01 02 03 04 05 06 07  08 09 0A 0B 0C 0D 0E 0F
      -- -- -- -- -- -- -- --  -- -- -- -- -- -- -- --
01B0:          66 01 80 F8 FF  FF 7F F8 FF FF 7F 67 68     f..........gh
01C0: 6E 31 00                                          n1.             
```

#### Opcodes

```
  0: 0x01B3 [0x66] LOAD_EXT_SCHEDULER_MAIN: Load scheduler "ghn1" with entities [EventEntity, EventEntity], work=41*
  1: 0x01C2 [0x00] END_REQSTACK()
```

### Event 65535.28

#### Metadata

| Field        | Value    |
|--------------|----------|
| Entrypoint   | 0x01C3   |
| Data Size    | 14 bytes |
| Instructions | 2        |

```
      00 01 02 03 04 05 06 07  08 09 0A 0B 0C 0D 0E 0F
      -- -- -- -- -- -- -- --  -- -- -- -- -- -- -- --
01C0:          53 F8 FF FF 7F  F8 FF FF 7F 67 68 6E 31     S........ghn1
01D0: 00                                                .               
```

#### Opcodes

```
  0: 0x01C3 [0x53] WAIT_SCHEDULER_TASK: Wait for scheduler "ghn1" with entities [EventEntity, EventEntity]
  1: 0x01D0 [0x00] END_REQSTACK()
```

### Event 65535.29

#### Metadata

| Field        | Value    |
|--------------|----------|
| Entrypoint   | 0x01D1   |
| Data Size    | 16 bytes |
| Instructions | 2        |

```
      00 01 02 03 04 05 06 07  08 09 0A 0B 0C 0D 0E 0F
      -- -- -- -- -- -- -- --  -- -- -- -- -- -- -- --
01D0:    66 00 80 F8 FF FF 7F  F8 FF FF 7F 69 72 6F 30   f..........iro0
01E0: 00                                                .               
```

#### Opcodes

```
  0: 0x01D1 [0x66] LOAD_EXT_SCHEDULER_MAIN: Load scheduler "iro0" with entities [EventEntity, EventEntity], work=40*
  1: 0x01E0 [0x00] END_REQSTACK()
```

### Event 65535.30

#### Metadata

| Field        | Value    |
|--------------|----------|
| Entrypoint   | 0x01E1   |
| Data Size    | 14 bytes |
| Instructions | 2        |

```
      00 01 02 03 04 05 06 07  08 09 0A 0B 0C 0D 0E 0F
      -- -- -- -- -- -- -- --  -- -- -- -- -- -- -- --
01E0:    53 F8 FF FF 7F F8 FF  FF 7F 69 72 6F 30 00      S........iro0. 
```

#### Opcodes

```
  0: 0x01E1 [0x53] WAIT_SCHEDULER_TASK: Wait for scheduler "iro0" with entities [EventEntity, EventEntity]
  1: 0x01EE [0x00] END_REQSTACK()
```

### Event 65535.31

#### Metadata

| Field        | Value    |
|--------------|----------|
| Entrypoint   | 0x01EF   |
| Data Size    | 16 bytes |
| Instructions | 2        |

```
      00 01 02 03 04 05 06 07  08 09 0A 0B 0C 0D 0E 0F
      -- -- -- -- -- -- -- --  -- -- -- -- -- -- -- --
01E0:                                               66                 f
01F0: 00 80 F8 FF FF 7F F8 FF  FF 7F 77 61 69 30 00     ..........wai0. 
```

#### Opcodes

```
  0: 0x01EF [0x66] LOAD_EXT_SCHEDULER_MAIN: Load scheduler "wai0" with entities [EventEntity, EventEntity], work=40*
  1: 0x01FE [0x00] END_REQSTACK()
```

### Event 65535.32

#### Metadata

| Field        | Value    |
|--------------|----------|
| Entrypoint   | 0x01FF   |
| Data Size    | 14 bytes |
| Instructions | 2        |

```
      00 01 02 03 04 05 06 07  08 09 0A 0B 0C 0D 0E 0F
      -- -- -- -- -- -- -- --  -- -- -- -- -- -- -- --
01F0:                                               53                 S
0200: F8 FF FF 7F F8 FF FF 7F  77 61 69 30 00           ........wai0.   
```

#### Opcodes

```
  0: 0x01FF [0x53] WAIT_SCHEDULER_TASK: Wait for scheduler "wai0" with entities [EventEntity, EventEntity]
  1: 0x020C [0x00] END_REQSTACK()
```

### Event 65535.33

#### Metadata

| Field        | Value    |
|--------------|----------|
| Entrypoint   | 0x020D   |
| Data Size    | 16 bytes |
| Instructions | 2        |

```
      00 01 02 03 04 05 06 07  08 09 0A 0B 0C 0D 0E 0F
      -- -- -- -- -- -- -- --  -- -- -- -- -- -- -- --
0200:                                         66 03 80               f..
0210: F8 FF FF 7F F8 FF FF 7F  62 69 6B 30 00           ........bik0.   
```

#### Opcodes

```
  0: 0x020D [0x66] LOAD_EXT_SCHEDULER_MAIN: Load scheduler "bik0" with entities [EventEntity, EventEntity], work=42*
  1: 0x021C [0x00] END_REQSTACK()
```

### Event 65535.34

#### Metadata

| Field        | Value    |
|--------------|----------|
| Entrypoint   | 0x021D   |
| Data Size    | 14 bytes |
| Instructions | 2        |

```
      00 01 02 03 04 05 06 07  08 09 0A 0B 0C 0D 0E 0F
      -- -- -- -- -- -- -- --  -- -- -- -- -- -- -- --
0210:                                         53 F8 FF               S..
0220: FF 7F F8 FF FF 7F 62 69  6B 30 00                 ......bik0.     
```

#### Opcodes

```
  0: 0x021D [0x53] WAIT_SCHEDULER_TASK: Wait for scheduler "bik0" with entities [EventEntity, EventEntity]
  1: 0x022A [0x00] END_REQSTACK()
```

### Event 65535.35

#### Metadata

| Field        | Value    |
|--------------|----------|
| Entrypoint   | 0x022B   |
| Data Size    | 16 bytes |
| Instructions | 2        |

```
      00 01 02 03 04 05 06 07  08 09 0A 0B 0C 0D 0E 0F
      -- -- -- -- -- -- -- --  -- -- -- -- -- -- -- --
0220:                                   66 03 80 F8 FF             f....
0230: FF 7F F8 FF FF 7F 62 69  6B 31 00                 ......bik1.     
```

#### Opcodes

```
  0: 0x022B [0x66] LOAD_EXT_SCHEDULER_MAIN: Load scheduler "bik1" with entities [EventEntity, EventEntity], work=42*
  1: 0x023A [0x00] END_REQSTACK()
```

### Event 65535.36

#### Metadata

| Field        | Value    |
|--------------|----------|
| Entrypoint   | 0x023B   |
| Data Size    | 14 bytes |
| Instructions | 2        |

```
      00 01 02 03 04 05 06 07  08 09 0A 0B 0C 0D 0E 0F
      -- -- -- -- -- -- -- --  -- -- -- -- -- -- -- --
0230:                                   53 F8 FF FF 7F             S....
0240: F8 FF FF 7F 62 69 6B 31  00                       ....bik1.       
```

#### Opcodes

```
  0: 0x023B [0x53] WAIT_SCHEDULER_TASK: Wait for scheduler "bik1" with entities [EventEntity, EventEntity]
  1: 0x0248 [0x00] END_REQSTACK()
```

### Event 65535.37

#### Metadata

| Field        | Value    |
|--------------|----------|
| Entrypoint   | 0x0249   |
| Data Size    | 16 bytes |
| Instructions | 2        |

```
      00 01 02 03 04 05 06 07  08 09 0A 0B 0C 0D 0E 0F
      -- -- -- -- -- -- -- --  -- -- -- -- -- -- -- --
0240:                             66 00 80 F8 FF FF 7F           f......
0250: F8 FF FF 7F 67 6B 72 30  00                       ....gkr0.       
```

#### Opcodes

```
  0: 0x0249 [0x66] LOAD_EXT_SCHEDULER_MAIN: Load scheduler "gkr0" with entities [EventEntity, EventEntity], work=40*
  1: 0x0258 [0x00] END_REQSTACK()
```

### Event 65535.38

#### Metadata

| Field        | Value    |
|--------------|----------|
| Entrypoint   | 0x0259   |
| Data Size    | 14 bytes |
| Instructions | 2        |

```
      00 01 02 03 04 05 06 07  08 09 0A 0B 0C 0D 0E 0F
      -- -- -- -- -- -- -- --  -- -- -- -- -- -- -- --
0250:                             53 F8 FF FF 7F F8 FF           S......
0260: FF 7F 67 6B 72 30 00                              ..gkr0.         
```

#### Opcodes

```
  0: 0x0259 [0x53] WAIT_SCHEDULER_TASK: Wait for scheduler "gkr0" with entities [EventEntity, EventEntity]
  1: 0x0266 [0x00] END_REQSTACK()
```

### Event 65535.39

#### Metadata

| Field        | Value    |
|--------------|----------|
| Entrypoint   | 0x0267   |
| Data Size    | 16 bytes |
| Instructions | 2        |

```
      00 01 02 03 04 05 06 07  08 09 0A 0B 0C 0D 0E 0F
      -- -- -- -- -- -- -- --  -- -- -- -- -- -- -- --
0260:                      66  00 80 F8 FF FF 7F F8 FF         f........
0270: FF 7F 67 6B 72 31 00                              ..gkr1.         
```

#### Opcodes

```
  0: 0x0267 [0x66] LOAD_EXT_SCHEDULER_MAIN: Load scheduler "gkr1" with entities [EventEntity, EventEntity], work=40*
  1: 0x0276 [0x00] END_REQSTACK()
```

### Event 65535.40

#### Metadata

| Field        | Value    |
|--------------|----------|
| Entrypoint   | 0x0277   |
| Data Size    | 14 bytes |
| Instructions | 2        |

```
      00 01 02 03 04 05 06 07  08 09 0A 0B 0C 0D 0E 0F
      -- -- -- -- -- -- -- --  -- -- -- -- -- -- -- --
0270:                      53  F8 FF FF 7F F8 FF FF 7F         S........
0280: 67 6B 72 31 00                                    gkr1.           
```

#### Opcodes

```
  0: 0x0277 [0x53] WAIT_SCHEDULER_TASK: Wait for scheduler "gkr1" with entities [EventEntity, EventEntity]
  1: 0x0284 [0x00] END_REQSTACK()
```

### Event 65535.41

#### Metadata

| Field        | Value    |
|--------------|----------|
| Entrypoint   | 0x0285   |
| Data Size    | 16 bytes |
| Instructions | 2        |

```
      00 01 02 03 04 05 06 07  08 09 0A 0B 0C 0D 0E 0F
      -- -- -- -- -- -- -- --  -- -- -- -- -- -- -- --
0280:                66 01 80  F8 FF FF 7F F8 FF FF 7F       f..........
0290: 6F 68 68 30 00                                    ohh0.           
```

#### Opcodes

```
  0: 0x0285 [0x66] LOAD_EXT_SCHEDULER_MAIN: Load scheduler "ohh0" with entities [EventEntity, EventEntity], work=41*
  1: 0x0294 [0x00] END_REQSTACK()
```

### Event 65535.42

#### Metadata

| Field        | Value    |
|--------------|----------|
| Entrypoint   | 0x0295   |
| Data Size    | 22 bytes |
| Instructions | 4        |

```
      00 01 02 03 04 05 06 07  08 09 0A 0B 0C 0D 0E 0F
      -- -- -- -- -- -- -- --  -- -- -- -- -- -- -- --
0290:                53 F8 FF  FF 7F F8 FF FF 7F 6F 68       S........oh
02A0: 68 30 5E 69 64 6C 30 1C  02 80 00                 h0^idl0....     
```

#### Opcodes

```
  0: 0x0295 [0x53] WAIT_SCHEDULER_TASK: Wait for scheduler "ohh0" with entities [EventEntity, EventEntity]
  1: 0x02A2 [0x5E] EventEntity goes idle (kills current action) (animation: "idl0")
  2: 0x02A7 [0x1C] WAIT(60* ticks)
  3: 0x02AA [0x00] END_REQSTACK()
```

### Event 65535.43

#### Metadata

| Field        | Value    |
|--------------|----------|
| Entrypoint   | 0x02AB   |
| Data Size    | 44 bytes |
| Instructions | 4        |

```
      00 01 02 03 04 05 06 07  08 09 0A 0B 0C 0D 0E 0F
      -- -- -- -- -- -- -- --  -- -- -- -- -- -- -- --
02A0:                                   66 01 80 F8 FF             f....
02B0: FF 7F F8 FF FF 7F 73 68  6B 30 53 F8 FF FF 7F F8  ......shk0S.....
02C0: FF FF 7F 73 68 6B 30 66  00 80 F8 FF FF 7F F8 FF  ...shk0f........
02D0: FF 7F 7A 69 74 30 00                              ..zit0.         
```

#### Opcodes

```
  0: 0x02AB [0x66] LOAD_EXT_SCHEDULER_MAIN: Load scheduler "shk0" with entities [EventEntity, EventEntity], work=41*
  1: 0x02BA [0x53] WAIT_SCHEDULER_TASK: Wait for scheduler "shk0" with entities [EventEntity, EventEntity]
  2: 0x02C7 [0x66] LOAD_EXT_SCHEDULER_MAIN: Load scheduler "zit0" with entities [EventEntity, EventEntity], work=40*
  3: 0x02D6 [0x00] END_REQSTACK()
```

### Event 65535.44

#### Metadata

| Field        | Value    |
|--------------|----------|
| Entrypoint   | 0x02D7   |
| Data Size    | 16 bytes |
| Instructions | 2        |

```
      00 01 02 03 04 05 06 07  08 09 0A 0B 0C 0D 0E 0F
      -- -- -- -- -- -- -- --  -- -- -- -- -- -- -- --
02D0:                      66  00 80 F8 FF FF 7F F8 FF         f........
02E0: FF 7F 7A 69 74 30 00                              ..zit0.         
```

#### Opcodes

```
  0: 0x02D7 [0x66] LOAD_EXT_SCHEDULER_MAIN: Load scheduler "zit0" with entities [EventEntity, EventEntity], work=40*
  1: 0x02E6 [0x00] END_REQSTACK()
```

### Event 65535.45

#### Metadata

| Field        | Value    |
|--------------|----------|
| Entrypoint   | 0x02E7   |
| Data Size    | 14 bytes |
| Instructions | 2        |

```
      00 01 02 03 04 05 06 07  08 09 0A 0B 0C 0D 0E 0F
      -- -- -- -- -- -- -- --  -- -- -- -- -- -- -- --
02E0:                      53  F8 FF FF 7F F8 FF FF 7F         S........
02F0: 7A 69 74 30 00                                    zit0.           
```

#### Opcodes

```
  0: 0x02E7 [0x53] WAIT_SCHEDULER_TASK: Wait for scheduler "zit0" with entities [EventEntity, EventEntity]
  1: 0x02F4 [0x00] END_REQSTACK()
```

### Event 65535.46

#### Metadata

| Field        | Value    |
|--------------|----------|
| Entrypoint   | 0x02F5   |
| Data Size    | 18 bytes |
| Instructions | 4        |

```
      00 01 02 03 04 05 06 07  08 09 0A 0B 0C 0D 0E 0F
      -- -- -- -- -- -- -- --  -- -- -- -- -- -- -- --
02F0:                6E F8 FF  FF 7F 04 80 99 F8 FF FF       n..........
0300: 7F 99 F8 FF FF 7F 00                              .......         
```

#### Opcodes

```
  0: 0x02F5 [0x6E] EventEntity uses emote 1*
  1: 0x02FC [0x99] Wait for EventEntity animation to complete
  2: 0x0301 [0x99] Wait for EventEntity animation to complete
  3: 0x0306 [0x00] END_REQSTACK()
```

### Event 65535.47

#### Metadata

| Field        | Value    |
|--------------|----------|
| Entrypoint   | 0x0307   |
| Data Size    | 18 bytes |
| Instructions | 4        |

```
      00 01 02 03 04 05 06 07  08 09 0A 0B 0C 0D 0E 0F
      -- -- -- -- -- -- -- --  -- -- -- -- -- -- -- --
0300:                      6E  F8 FF FF 7F 05 80 99 F8         n........
0310: FF FF 7F 99 F8 FF FF 7F  00                       .........       
```

#### Opcodes

```
  0: 0x0307 [0x6E] EventEntity uses emote 7*
  1: 0x030E [0x99] Wait for EventEntity animation to complete
  2: 0x0313 [0x99] Wait for EventEntity animation to complete
  3: 0x0318 [0x00] END_REQSTACK()
```

### Event 65535.48

#### Metadata

| Field        | Value    |
|--------------|----------|
| Entrypoint   | 0x0319   |
| Data Size    | 18 bytes |
| Instructions | 4        |

```
      00 01 02 03 04 05 06 07  08 09 0A 0B 0C 0D 0E 0F
      -- -- -- -- -- -- -- --  -- -- -- -- -- -- -- --
0310:                             6E F8 FF FF 7F 06 80           n......
0320: 99 F8 FF FF 7F 99 F8 FF  FF 7F 00                 ...........     
```

#### Opcodes

```
  0: 0x0319 [0x6E] EventEntity uses emote 6*
  1: 0x0320 [0x99] Wait for EventEntity animation to complete
  2: 0x0325 [0x99] Wait for EventEntity animation to complete
  3: 0x032A [0x00] END_REQSTACK()
```

### Event 65535.49

#### Metadata

| Field        | Value    |
|--------------|----------|
| Entrypoint   | 0x032B   |
| Data Size    | 18 bytes |
| Instructions | 4        |

```
      00 01 02 03 04 05 06 07  08 09 0A 0B 0C 0D 0E 0F
      -- -- -- -- -- -- -- --  -- -- -- -- -- -- -- --
0320:                                   6E F8 FF FF 7F             n....
0330: 07 80 99 F8 FF FF 7F 99  F8 FF FF 7F 00           .............   
```

#### Opcodes

```
  0: 0x032B [0x6E] EventEntity uses emote 8*
  1: 0x0332 [0x99] Wait for EventEntity animation to complete
  2: 0x0337 [0x99] Wait for EventEntity animation to complete
  3: 0x033C [0x00] END_REQSTACK()
```

### Event 65535.50

#### Metadata

| Field        | Value    |
|--------------|----------|
| Entrypoint   | 0x033D   |
| Data Size    | 18 bytes |
| Instructions | 4        |

```
      00 01 02 03 04 05 06 07  08 09 0A 0B 0C 0D 0E 0F
      -- -- -- -- -- -- -- --  -- -- -- -- -- -- -- --
0330:                                         6E F8 FF               n..
0340: FF 7F 08 80 99 F8 FF FF  7F 99 F8 FF FF 7F 00     ............... 
```

#### Opcodes

```
  0: 0x033D [0x6E] EventEntity uses emote 13*
  1: 0x0344 [0x99] Wait for EventEntity animation to complete
  2: 0x0349 [0x99] Wait for EventEntity animation to complete
  3: 0x034E [0x00] END_REQSTACK()
```

### Event 65535.51

#### Metadata

| Field        | Value    |
|--------------|----------|
| Entrypoint   | 0x034F   |
| Data Size    | 27 bytes |
| Instructions | 3        |

```
      00 01 02 03 04 05 06 07  08 09 0A 0B 0C 0D 0E 0F
      -- -- -- -- -- -- -- --  -- -- -- -- -- -- -- --
0340:                                               2C                 ,
0350: F8 FF FF 7F F8 FF FF 7F  64 65 61 64 53 F8 FF FF  ........deadS...
0360: 7F F8 FF FF 7F 64 65 61  64 00                    .....dead.      
```

#### Opcodes

```
  0: 0x034F [0x2C] CREATE_SCHEDULER_TASK: Create scheduler "dead" with entities [EventEntity, EventEntity]
  1: 0x035C [0x53] WAIT_SCHEDULER_TASK: Wait for scheduler "dead" with entities [EventEntity, EventEntity]
  2: 0x0369 [0x00] END_REQSTACK()
```

### Event 65535.52

#### Metadata

| Field        | Value   |
|--------------|---------|
| Entrypoint   | 0x036A  |
| Data Size    | 9 bytes |
| Instructions | 3       |

```
      00 01 02 03 04 05 06 07  08 09 0A 0B 0C 0D 0E 0F
      -- -- -- -- -- -- -- --  -- -- -- -- -- -- -- --
0360:                                5E 69 64 6C 30 1C            ^idl0.
0370: 02 80 00                                          ...             
```

#### Opcodes

```
  0: 0x036A [0x5E] EventEntity goes idle (kills current action) (animation: "idl0")
  1: 0x036F [0x1C] WAIT(60* ticks)
  2: 0x0372 [0x00] END_REQSTACK()
```

### Event 65535.53

#### Metadata

| Field        | Value    |
|--------------|----------|
| Entrypoint   | 0x0373   |
| Data Size    | 16 bytes |
| Instructions | 2        |

```
      00 01 02 03 04 05 06 07  08 09 0A 0B 0C 0D 0E 0F
      -- -- -- -- -- -- -- --  -- -- -- -- -- -- -- --
0370:          66 01 80 F8 FF  FF 7F F8 FF FF 7F 63 61     f..........ca
0380: 62 6B 00                                          bk.             
```

#### Opcodes

```
  0: 0x0373 [0x66] LOAD_EXT_SCHEDULER_MAIN: Load scheduler "cabk" with entities [EventEntity, EventEntity], work=41*
  1: 0x0382 [0x00] END_REQSTACK()
```

### Event 65535.54

#### Metadata

| Field        | Value    |
|--------------|----------|
| Entrypoint   | 0x0383   |
| Data Size    | 14 bytes |
| Instructions | 2        |

```
      00 01 02 03 04 05 06 07  08 09 0A 0B 0C 0D 0E 0F
      -- -- -- -- -- -- -- --  -- -- -- -- -- -- -- --
0380:          53 F8 FF FF 7F  F8 FF FF 7F 63 61 62 6B     S........cabk
0390: 00                                                .               
```

#### Opcodes

```
  0: 0x0383 [0x53] WAIT_SCHEDULER_TASK: Wait for scheduler "cabk" with entities [EventEntity, EventEntity]
  1: 0x0390 [0x00] END_REQSTACK()
```

### Event 65535.55

#### Metadata

| Field        | Value    |
|--------------|----------|
| Entrypoint   | 0x0391   |
| Data Size    | 16 bytes |
| Instructions | 2        |

```
      00 01 02 03 04 05 06 07  08 09 0A 0B 0C 0D 0E 0F
      -- -- -- -- -- -- -- --  -- -- -- -- -- -- -- --
0390:    66 09 80 F8 FF FF 7F  F8 FF FF 7F 73 70 65 66   f..........spef
03A0: 00                                                .               
```

#### Opcodes

```
  0: 0x0391 [0x66] LOAD_EXT_SCHEDULER_MAIN: Load scheduler "spef" with entities [EventEntity, EventEntity], work=43*
  1: 0x03A0 [0x00] END_REQSTACK()
```

### Event 65535.56

#### Metadata

| Field        | Value    |
|--------------|----------|
| Entrypoint   | 0x03A1   |
| Data Size    | 14 bytes |
| Instructions | 2        |

```
      00 01 02 03 04 05 06 07  08 09 0A 0B 0C 0D 0E 0F
      -- -- -- -- -- -- -- --  -- -- -- -- -- -- -- --
03A0:    53 F8 FF FF 7F F8 FF  FF 7F 73 70 65 66 00      S........spef. 
```

#### Opcodes

```
  0: 0x03A1 [0x53] WAIT_SCHEDULER_TASK: Wait for scheduler "spef" with entities [EventEntity, EventEntity]
  1: 0x03AE [0x00] END_REQSTACK()
```

### Event 65535.57

#### Metadata

| Field        | Value    |
|--------------|----------|
| Entrypoint   | 0x03AF   |
| Data Size    | 16 bytes |
| Instructions | 2        |

```
      00 01 02 03 04 05 06 07  08 09 0A 0B 0C 0D 0E 0F
      -- -- -- -- -- -- -- --  -- -- -- -- -- -- -- --
03A0:                                               5B                 [
03B0: 0A 80 F8 FF FF 7F F8 FF  FF 7F 6F 6B 69 72 00     ..........okir. 
```

#### Opcodes

```
  0: 0x03AF [0x5B] LOAD_EXT_SCHEDULER: Load scheduler "okir" with entities [EventEntity, EventEntity], work=430*
  1: 0x03BE [0x00] END_REQSTACK()
```

### Event 65535.58

#### Metadata

| Field        | Value    |
|--------------|----------|
| Entrypoint   | 0x03BF   |
| Data Size    | 14 bytes |
| Instructions | 2        |

```
      00 01 02 03 04 05 06 07  08 09 0A 0B 0C 0D 0E 0F
      -- -- -- -- -- -- -- --  -- -- -- -- -- -- -- --
03B0:                                               53                 S
03C0: F8 FF FF 7F F8 FF FF 7F  6F 6B 69 72 00           ........okir.   
```

#### Opcodes

```
  0: 0x03BF [0x53] WAIT_SCHEDULER_TASK: Wait for scheduler "okir" with entities [EventEntity, EventEntity]
  1: 0x03CC [0x00] END_REQSTACK()
```

### Event 65535.59

#### Metadata

| Field        | Value    |
|--------------|----------|
| Entrypoint   | 0x03CD   |
| Data Size    | 16 bytes |
| Instructions | 2        |

```
      00 01 02 03 04 05 06 07  08 09 0A 0B 0C 0D 0E 0F
      -- -- -- -- -- -- -- --  -- -- -- -- -- -- -- --
03C0:                                         5B 0B 80               [..
03D0: F8 FF FF 7F F8 FF FF 7F  75 73 69 30 00           ........usi0.   
```

#### Opcodes

```
  0: 0x03CD [0x5B] LOAD_EXT_SCHEDULER: Load scheduler "usi0" with entities [EventEntity, EventEntity], work=431*
  1: 0x03DC [0x00] END_REQSTACK()
```

### Event 65535.60

#### Metadata

| Field        | Value    |
|--------------|----------|
| Entrypoint   | 0x03DD   |
| Data Size    | 14 bytes |
| Instructions | 2        |

```
      00 01 02 03 04 05 06 07  08 09 0A 0B 0C 0D 0E 0F
      -- -- -- -- -- -- -- --  -- -- -- -- -- -- -- --
03D0:                                         53 F8 FF               S..
03E0: FF 7F F8 FF FF 7F 75 73  69 30 00                 ......usi0.     
```

#### Opcodes

```
  0: 0x03DD [0x53] WAIT_SCHEDULER_TASK: Wait for scheduler "usi0" with entities [EventEntity, EventEntity]
  1: 0x03EA [0x00] END_REQSTACK()
```

### Event 65535.61

#### Metadata

| Field        | Value    |
|--------------|----------|
| Entrypoint   | 0x03EB   |
| Data Size    | 16 bytes |
| Instructions | 2        |

```
      00 01 02 03 04 05 06 07  08 09 0A 0B 0C 0D 0E 0F
      -- -- -- -- -- -- -- --  -- -- -- -- -- -- -- --
03E0:                                   5B 0B 80 F8 FF             [....
03F0: FF 7F F8 FF FF 7F 75 73  69 31 00                 ......usi1.     
```

#### Opcodes

```
  0: 0x03EB [0x5B] LOAD_EXT_SCHEDULER: Load scheduler "usi1" with entities [EventEntity, EventEntity], work=431*
  1: 0x03FA [0x00] END_REQSTACK()
```

### Event 65535.62

#### Metadata

| Field        | Value    |
|--------------|----------|
| Entrypoint   | 0x03FB   |
| Data Size    | 14 bytes |
| Instructions | 2        |

```
      00 01 02 03 04 05 06 07  08 09 0A 0B 0C 0D 0E 0F
      -- -- -- -- -- -- -- --  -- -- -- -- -- -- -- --
03F0:                                   53 F8 FF FF 7F             S....
0400: F8 FF FF 7F 75 73 69 31  00                       ....usi1.       
```

#### Opcodes

```
  0: 0x03FB [0x53] WAIT_SCHEDULER_TASK: Wait for scheduler "usi1" with entities [EventEntity, EventEntity]
  1: 0x0408 [0x00] END_REQSTACK()
```

### Event 65535.63

#### Metadata

| Field        | Value    |
|--------------|----------|
| Entrypoint   | 0x0409   |
| Data Size    | 16 bytes |
| Instructions | 2        |

```
      00 01 02 03 04 05 06 07  08 09 0A 0B 0C 0D 0E 0F
      -- -- -- -- -- -- -- --  -- -- -- -- -- -- -- --
0400:                             66 03 80 F8 FF FF 7F           f......
0410: F8 FF FF 7F 74 65 68 30  00                       ....teh0.       
```

#### Opcodes

```
  0: 0x0409 [0x66] LOAD_EXT_SCHEDULER_MAIN: Load scheduler "teh0" with entities [EventEntity, EventEntity], work=42*
  1: 0x0418 [0x00] END_REQSTACK()
```

### Event 65535.64

#### Metadata

| Field        | Value    |
|--------------|----------|
| Entrypoint   | 0x0419   |
| Data Size    | 14 bytes |
| Instructions | 2        |

```
      00 01 02 03 04 05 06 07  08 09 0A 0B 0C 0D 0E 0F
      -- -- -- -- -- -- -- --  -- -- -- -- -- -- -- --
0410:                             53 F8 FF FF 7F F8 FF           S......
0420: FF 7F 74 65 68 30 00                              ..teh0.         
```

#### Opcodes

```
  0: 0x0419 [0x53] WAIT_SCHEDULER_TASK: Wait for scheduler "teh0" with entities [EventEntity, EventEntity]
  1: 0x0426 [0x00] END_REQSTACK()
```

### Event 65535.65

#### Metadata

| Field        | Value    |
|--------------|----------|
| Entrypoint   | 0x0427   |
| Data Size    | 16 bytes |
| Instructions | 2        |

```
      00 01 02 03 04 05 06 07  08 09 0A 0B 0C 0D 0E 0F
      -- -- -- -- -- -- -- --  -- -- -- -- -- -- -- --
0420:                      66  03 80 F8 FF FF 7F F8 FF         f........
0430: FF 7F 74 65 68 31 00                              ..teh1.         
```

#### Opcodes

```
  0: 0x0427 [0x66] LOAD_EXT_SCHEDULER_MAIN: Load scheduler "teh1" with entities [EventEntity, EventEntity], work=42*
  1: 0x0436 [0x00] END_REQSTACK()
```

### Event 65535.66

#### Metadata

| Field        | Value    |
|--------------|----------|
| Entrypoint   | 0x0437   |
| Data Size    | 14 bytes |
| Instructions | 2        |

```
      00 01 02 03 04 05 06 07  08 09 0A 0B 0C 0D 0E 0F
      -- -- -- -- -- -- -- --  -- -- -- -- -- -- -- --
0430:                      53  F8 FF FF 7F F8 FF FF 7F         S........
0440: 74 65 68 31 00                                    teh1.           
```

#### Opcodes

```
  0: 0x0437 [0x53] WAIT_SCHEDULER_TASK: Wait for scheduler "teh1" with entities [EventEntity, EventEntity]
  1: 0x0444 [0x00] END_REQSTACK()
```

### Event 65535.67

#### Metadata

| Field        | Value    |
|--------------|----------|
| Entrypoint   | 0x0445   |
| Data Size    | 16 bytes |
| Instructions | 2        |

```
      00 01 02 03 04 05 06 07  08 09 0A 0B 0C 0D 0E 0F
      -- -- -- -- -- -- -- --  -- -- -- -- -- -- -- --
0440:                66 0C 80  F8 FF FF 7F F8 FF FF 7F       f..........
0450: 6D 64 71 30 00                                    mdq0.           
```

#### Opcodes

```
  0: 0x0445 [0x66] LOAD_EXT_SCHEDULER_MAIN: Load scheduler "mdq0" with entities [EventEntity, EventEntity], work=46*
  1: 0x0454 [0x00] END_REQSTACK()
```

### Event 65535.68

#### Metadata

| Field        | Value    |
|--------------|----------|
| Entrypoint   | 0x0455   |
| Data Size    | 14 bytes |
| Instructions | 2        |

```
      00 01 02 03 04 05 06 07  08 09 0A 0B 0C 0D 0E 0F
      -- -- -- -- -- -- -- --  -- -- -- -- -- -- -- --
0450:                53 F8 FF  FF 7F F8 FF FF 7F 6D 64       S........md
0460: 71 30 00                                          q0.             
```

#### Opcodes

```
  0: 0x0455 [0x53] WAIT_SCHEDULER_TASK: Wait for scheduler "mdq0" with entities [EventEntity, EventEntity]
  1: 0x0462 [0x00] END_REQSTACK()
```

### Event 65535.69

#### Metadata

| Field        | Value    |
|--------------|----------|
| Entrypoint   | 0x0463   |
| Data Size    | 16 bytes |
| Instructions | 2        |

```
      00 01 02 03 04 05 06 07  08 09 0A 0B 0C 0D 0E 0F
      -- -- -- -- -- -- -- --  -- -- -- -- -- -- -- --
0460:          66 0C 80 F8 FF  FF 7F F8 FF FF 7F 6D 64     f..........md
0470: 71 33 00                                          q3.             
```

#### Opcodes

```
  0: 0x0463 [0x66] LOAD_EXT_SCHEDULER_MAIN: Load scheduler "mdq3" with entities [EventEntity, EventEntity], work=46*
  1: 0x0472 [0x00] END_REQSTACK()
```

### Event 65535.70

#### Metadata

| Field        | Value    |
|--------------|----------|
| Entrypoint   | 0x0473   |
| Data Size    | 14 bytes |
| Instructions | 2        |

```
      00 01 02 03 04 05 06 07  08 09 0A 0B 0C 0D 0E 0F
      -- -- -- -- -- -- -- --  -- -- -- -- -- -- -- --
0470:          53 F8 FF FF 7F  F8 FF FF 7F 6D 64 71 33     S........mdq3
0480: 00                                                .               
```

#### Opcodes

```
  0: 0x0473 [0x53] WAIT_SCHEDULER_TASK: Wait for scheduler "mdq3" with entities [EventEntity, EventEntity]
  1: 0x0480 [0x00] END_REQSTACK()
```

### Event 305

#### Metadata

| Field        | Value    |
|--------------|----------|
| Entrypoint   | 0x0481   |
| Data Size    | 33 bytes |
| Instructions | 12       |

```
      00 01 02 03 04 05 06 07  08 09 0A 0B 0C 0D 0E 0F
      -- -- -- -- -- -- -- --  -- -- -- -- -- -- -- --
0480:    1E F0 FF FF 7F 6F 70  29 08 30 E0 0E 01 01 1D   .....op).0.....
0490: 0D 80 23 1D 0E 80 23 29  08 30 E0 0E 01 02 20 00  ..#...#).0.... .
04A0: 21 00                                             !.              
```

#### Opcodes

```
  0: 0x0481 [0x1E] EventEntity looks at LocalPlayer and starts talking
  1: 0x0486 [0x6F] WAIT_FRAME_DELAY: Yield until WaitTime reaches zero
  2: 0x0487 [0x70] WAIT_ENTITY_RENDER_FLAG: Wait while EventEntity->Render.Flags3 bit 2 is set (cancel turn if not)
  3: 0x0488 [0x29] REQ_SET_WAIT(priority=0x08, entity_id=Leepe-Hoppe (ID: 17752112/0x010EE030), tag_num=0x01)
  4: 0x048F [0x1D] PRINT_EVENT_MESSAGE(message_id=8026*)
     "Have you heard about the great beast, you therey? They say it's sealed inside Horutoto Ruins... How scary!"
  5: 0x0492 [0x23] WAIT_FOR_DIALOG_INTERACTION
  6: 0x0493 [0x1D] PRINT_EVENT_MESSAGE(message_id=8027*)
     "All let out a collective sigh, when they stopped seeing it in the night sky. Since the war of twenty years ago, its fate, our scientists strive to know."
  7: 0x0496 [0x23] WAIT_FOR_DIALOG_INTERACTION
  8: 0x0497 [0x29] REQ_SET_WAIT(priority=0x08, entity_id=Leepe-Hoppe (ID: 17752112/0x010EE030), tag_num=0x02)
  9: 0x049E [0x20] SET_CLI_EVENT_UC_FLAG: Unlock player control
 10: 0x04A0 [0x21] END_EVENT
 11: 0x04A1 [0x00] END_REQSTACK()
```

### Event 311

#### Metadata

| Field        | Value    |
|--------------|----------|
| Entrypoint   | 0x04A2   |
| Data Size    | 29 bytes |
| Instructions | 10       |

```
      00 01 02 03 04 05 06 07  08 09 0A 0B 0C 0D 0E 0F
      -- -- -- -- -- -- -- --  -- -- -- -- -- -- -- --
04A0:       1E F0 FF FF 7F 6F  70 29 08 30 E0 0E 01 01    .....op).0....
04B0: 1D 0F 80 23 29 08 30 E0  0E 01 02 20 00 21 00     ...#).0.... .!. 
```

#### Opcodes

```
  0: 0x04A2 [0x1E] EventEntity looks at LocalPlayer and starts talking
  1: 0x04A7 [0x6F] WAIT_FRAME_DELAY: Yield until WaitTime reaches zero
  2: 0x04A8 [0x70] WAIT_ENTITY_RENDER_FLAG: Wait while EventEntity->Render.Flags3 bit 2 is set (cancel turn if not)
  3: 0x04A9 [0x29] REQ_SET_WAIT(priority=0x08, entity_id=Leepe-Hoppe (ID: 17752112/0x010EE030), tag_num=0x01)
  4: 0x04B0 [0x1D] PRINT_EVENT_MESSAGE(message_id=8041*)
     "<burp>... Well, excu`se me. As you can see, I'm not the slightest bit hungry..."
  5: 0x04B3 [0x23] WAIT_FOR_DIALOG_INTERACTION
  6: 0x04B4 [0x29] REQ_SET_WAIT(priority=0x08, entity_id=Leepe-Hoppe (ID: 17752112/0x010EE030), tag_num=0x02)
  7: 0x04BB [0x20] SET_CLI_EVENT_UC_FLAG: Unlock player control
  8: 0x04BD [0x21] END_EVENT
  9: 0x04BE [0x00] END_REQSTACK()
```

### Event 345

#### Metadata

| Field        | Value    |
|--------------|----------|
| Entrypoint   | 0x04BF   |
| Data Size    | 33 bytes |
| Instructions | 12       |

```
      00 01 02 03 04 05 06 07  08 09 0A 0B 0C 0D 0E 0F
      -- -- -- -- -- -- -- --  -- -- -- -- -- -- -- --
04B0:                                               1E                 .
04C0: F0 FF FF 7F 6F 70 29 08  30 E0 0E 01 01 1D 10 80  ....op).0.......
04D0: 23 1D 11 80 23 29 08 30  E0 0E 01 02 20 00 21 00  #...#).0.... .!.
```

#### Opcodes

```
  0: 0x04BF [0x1E] EventEntity looks at LocalPlayer and starts talking
  1: 0x04C4 [0x6F] WAIT_FRAME_DELAY: Yield until WaitTime reaches zero
  2: 0x04C5 [0x70] WAIT_ENTITY_RENDER_FLAG: Wait while EventEntity->Render.Flags3 bit 2 is set (cancel turn if not)
  3: 0x04C6 [0x29] REQ_SET_WAIT(priority=0x08, entity_id=Leepe-Hoppe (ID: 17752112/0x010EE030), tag_num=0x01)
  4: 0x04CD [0x1D] PRINT_EVENT_MESSAGE(message_id=8107*)
     "As far as the study of plants here goes, Kenapa-Keppa is the one who most knows."
  5: 0x04D0 [0x23] WAIT_FOR_DIALOG_INTERACTION
  6: 0x04D1 [0x1D] PRINT_EVENT_MESSAGE(message_id=8108*)
     "Kenapa-Keppa has a great dream, I support him to the extreme!"
  7: 0x04D4 [0x23] WAIT_FOR_DIALOG_INTERACTION
  8: 0x04D5 [0x29] REQ_SET_WAIT(priority=0x08, entity_id=Leepe-Hoppe (ID: 17752112/0x010EE030), tag_num=0x02)
  9: 0x04DC [0x20] SET_CLI_EVENT_UC_FLAG: Unlock player control
 10: 0x04DE [0x21] END_EVENT
 11: 0x04DF [0x00] END_REQSTACK()
```

### Event 140

#### Metadata

| Field        | Value     |
|--------------|-----------|
| Entrypoint   | 0x04E0    |
| Data Size    | 214 bytes |
| Instructions | 30        |

```
      00 01 02 03 04 05 06 07  08 09 0A 0B 0C 0D 0E 0F
      -- -- -- -- -- -- -- --  -- -- -- -- -- -- -- --
04E0: 42 46 01 1E F0 FF FF 7F  6F 70 45 12 80 F8 FF FF  BF......opE.....
04F0: 7F F8 FF FF 7F 66 64 6F  31 13 80 1C 02 80 38 14  .....fdo1.....8.
0500: 80 29 08 F0 FF FF 7F 06  29 0B F0 FF FF 7F 2E 1E  .)......).......
0510: F0 FF FF 7F 6F 70 02 09  10 07 80 00 32 05 45 15  ....op......2.E.
0520: 80 F8 FF FF 7F F8 FF FF  7F 73 30 38 31 13 80 01  .........s081...
0530: 43 05 45 15 80 F8 FF FF  7F F8 FF FF 7F 73 30 36  C.E..........s06
0540: 35 13 80 45 12 80 F8 FF  FF 7F F8 FF FF 7F 66 64  5..E..........fd
0550: 69 31 13 80 29 0B 30 E0  0E 01 4B 45 15 80 F8 FF  i1..).0...KE....
0560: FF 7F F8 FF FF 7F 73 30  36 36 13 80 29 0B 30 E0  ......s066..).0.
0570: 0E 01 4C 45 15 80 F8 FF  FF 7F F8 FF FF 7F 73 30  ..LE..........s0
0580: 36 35 13 80 29 0B 30 E0  0E 01 4D 45 12 80 F8 FF  65..).0...ME....
0590: FF 7F F8 FF FF 7F 66 64  6F 31 13 80 1C 02 80 46  ......fdo1.....F
05A0: 00 45 12 80 F8 FF FF 7F  F8 FF FF 7F 66 64 69 31  .E..........fdi1
05B0: 13 80 20 00 21 00                                 .. .!.          
```

#### Opcodes

```
  0: 0x04E0 [0x42] SET_CLI_EVENT_CANCEL_DATA()
  1: 0x04E1 [0x46] CAMERA_CONTROL: Disable user control
  2: 0x04E3 [0x1E] EventEntity looks at LocalPlayer and starts talking
  3: 0x04E8 [0x6F] WAIT_FRAME_DELAY: Yield until WaitTime reaches zero
  4: 0x04E9 [0x70] WAIT_ENTITY_RENDER_FLAG: Wait while EventEntity->Render.Flags3 bit 2 is set (cancel turn if not)
  5: 0x04EA [0x45] LOAD_SCHEDULED_TASK: Load scheduler "fdo1" with entities [EventEntity, EventEntity], work=[200*, 0*]
  6: 0x04FB [0x1C] WAIT(60* ticks)
  7: 0x04FE [0x38] SET_CLIENT_EVENT_MODE(mode=3*)
  8: 0x0501 [0x29] REQ_SET_WAIT(priority=0x08, entity_id=LocalPlayer, tag_num=0x06)
  9: 0x0508 [0x29] REQ_SET_WAIT(priority=0x0B, entity_id=LocalPlayer, tag_num=0x2E)
 10: 0x050F [0x1E] EventEntity looks at LocalPlayer and starts talking
 11: 0x0514 [0x6F] WAIT_FRAME_DELAY: Yield until WaitTime reaches zero
 12: 0x0515 [0x70] WAIT_ENTITY_RENDER_FLAG: Wait while EventEntity->Render.Flags3 bit 2 is set (cancel turn if not)
 13: 0x0516 [0x02] IF !(Work_Zone[9] == 8*) GOTO 0x0532
 14: 0x051E [0x45] LOAD_SCHEDULED_TASK: Load scheduler "s081" with entities [EventEntity, EventEntity], work=[138*, 0*]
 15: 0x052F [0x01] GOTO 0x0543
 16: 0x0532 [0x45] LOAD_SCHEDULED_TASK: Load scheduler "s065" with entities [EventEntity, EventEntity], work=[138*, 0*]

SUBROUTINE_0543:
 17: 0x0543 [0x45] LOAD_SCHEDULED_TASK: Load scheduler "fdi1" with entities [EventEntity, EventEntity], work=[200*, 0*]
 18: 0x0554 [0x29] REQ_SET_WAIT(priority=0x0B, entity_id=Leepe-Hoppe (ID: 17752112/0x010EE030), tag_num=0x4B)
 19: 0x055B [0x45] LOAD_SCHEDULED_TASK: Load scheduler "s066" with entities [EventEntity, EventEntity], work=[138*, 0*]
 20: 0x056C [0x29] REQ_SET_WAIT(priority=0x0B, entity_id=Leepe-Hoppe (ID: 17752112/0x010EE030), tag_num=0x4C)
 21: 0x0573 [0x45] LOAD_SCHEDULED_TASK: Load scheduler "s065" with entities [EventEntity, EventEntity], work=[138*, 0*]
 22: 0x0584 [0x29] REQ_SET_WAIT(priority=0x0B, entity_id=Leepe-Hoppe (ID: 17752112/0x010EE030), tag_num=0x4D)
 23: 0x058B [0x45] LOAD_SCHEDULED_TASK: Load scheduler "fdo1" with entities [EventEntity, EventEntity], work=[200*, 0*]
 24: 0x059C [0x1C] WAIT(60* ticks)
 25: 0x059F [0x46] CAMERA_CONTROL: Restore default settings
 26: 0x05A1 [0x45] LOAD_SCHEDULED_TASK: Load scheduler "fdi1" with entities [EventEntity, EventEntity], work=[200*, 0*]
 27: 0x05B2 [0x20] SET_CLI_EVENT_UC_FLAG: Unlock player control
 28: 0x05B4 [0x21] END_EVENT
 29: 0x05B5 [0x00] END_REQSTACK()
```

### Event 65535.71

#### Metadata

| Field        | Value    |
|--------------|----------|
| Entrypoint   | 0x05B6   |
| Data Size    | 19 bytes |
| Instructions | 5        |

```
      00 01 02 03 04 05 06 07  08 09 0A 0B 0C 0D 0E 0F
      -- -- -- -- -- -- -- --  -- -- -- -- -- -- -- --
05B0:                   29 08  30 E0 0E 01 01 1D 16 80        ).0.......
05C0: 23 29 08 30 E0 0E 01 02  00                       #).0.....       
```

#### Opcodes

```
  0: 0x05B6 [0x29] REQ_SET_WAIT(priority=0x08, entity_id=Leepe-Hoppe (ID: 17752112/0x010EE030), tag_num=0x01)
  1: 0x05BD [0x1D] PRINT_EVENT_MESSAGE(message_id=7602*)
     "tWhat? Speak up! What's that you say? You're the help from the gatehouse, eh?"
  2: 0x05C0 [0x23] WAIT_FOR_DIALOG_INTERACTION
  3: 0x05C1 [0x29] REQ_SET_WAIT(priority=0x08, entity_id=Leepe-Hoppe (ID: 17752112/0x010EE030), tag_num=0x02)
  4: 0x05C8 [0x00] END_REQSTACK()
```

### Event 65535.72

#### Metadata

| Field        | Value    |
|--------------|----------|
| Entrypoint   | 0x05C9   |
| Data Size    | 23 bytes |
| Instructions | 7        |

```
      00 01 02 03 04 05 06 07  08 09 0A 0B 0C 0D 0E 0F
      -- -- -- -- -- -- -- --  -- -- -- -- -- -- -- --
05C0:                             29 08 30 E0 0E 01 0B           ).0....
05D0: 1D 17 80 23 29 08 30 E0  0E 01 0C 1D 18 80 23 00  ...#).0.......#.
```

#### Opcodes

```
  0: 0x05C9 [0x29] REQ_SET_WAIT(priority=0x08, entity_id=Leepe-Hoppe (ID: 17752112/0x010EE030), tag_num=0x0B)
  1: 0x05D0 [0x1D] PRINT_EVENT_MESSAGE(message_id=7604*)
     "Here you go... Sorry for all the fuss. Today's offering for the altars of Giddeus."
  2: 0x05D3 [0x23] WAIT_FOR_DIALOG_INTERACTION
  3: 0x05D4 [0x29] REQ_SET_WAIT(priority=0x08, entity_id=Leepe-Hoppe (ID: 17752112/0x010EE030), tag_num=0x0C)
  4: 0x05DB [0x1D] PRINT_EVENT_MESSAGE(message_id=7605*)
     "In these bags are Yagudo's favorite cherries. These should give those ugly old beastmen their merries."
  5: 0x05DE [0x23] WAIT_FOR_DIALOG_INTERACTION
  6: 0x05DF [0x00] END_REQSTACK()
```

### Event 65535.73

#### Metadata

| Field        | Value    |
|--------------|----------|
| Entrypoint   | 0x05E0   |
| Data Size    | 23 bytes |
| Instructions | 7        |

```
      00 01 02 03 04 05 06 07  08 09 0A 0B 0C 0D 0E 0F
      -- -- -- -- -- -- -- --  -- -- -- -- -- -- -- --
05E0: 29 08 30 E0 0E 01 01 1D  19 80 23 1D 1A 80 23 29  ).0.......#...#)
05F0: 08 30 E0 0E 01 02 00                              .0.....         
```

#### Opcodes

```
  0: 0x05E0 [0x29] REQ_SET_WAIT(priority=0x08, entity_id=Leepe-Hoppe (ID: 17752112/0x010EE030), tag_num=0x01)
  1: 0x05E7 [0x1D] PRINT_EVENT_MESSAGE(message_id=7606*)
     "If you are wondering why there're now two bags, it's 'cause there're two altars in Giddeus's crags. A Yagudo by each altar stands. To each of them a bag you hand."
  2: 0x05EA [0x23] WAIT_FOR_DIALOG_INTERACTION
  3: 0x05EB [0x1D] PRINT_EVENT_MESSAGE(message_id=7607*)
     "And though an offering you do bear, those Yagudo may attack you there. So take precautions, be prepared... Lest you return in states impaired!t"
  4: 0x05EE [0x23] WAIT_FOR_DIALOG_INTERACTION
  5: 0x05EF [0x29] REQ_SET_WAIT(priority=0x08, entity_id=Leepe-Hoppe (ID: 17752112/0x010EE030), tag_num=0x02)
  6: 0x05F6 [0x00] END_REQSTACK()
```

### Event 142

#### Metadata

| Field        | Value    |
|--------------|----------|
| Entrypoint   | 0x05F7   |
| Data Size    | 33 bytes |
| Instructions | 12       |

```
      00 01 02 03 04 05 06 07  08 09 0A 0B 0C 0D 0E 0F
      -- -- -- -- -- -- -- --  -- -- -- -- -- -- -- --
05F0:                      1E  F0 FF FF 7F 6F 70 29 08         .....op).
0600: 30 E0 0E 01 01 1D 1B 80  23 1D 1C 80 23 29 08 30  0.......#...#).0
0610: E0 0E 01 02 20 00 21 00                           .... .!.        
```

#### Opcodes

```
  0: 0x05F7 [0x1E] EventEntity looks at LocalPlayer and starts talking
  1: 0x05FC [0x6F] WAIT_FRAME_DELAY: Yield until WaitTime reaches zero
  2: 0x05FD [0x70] WAIT_ENTITY_RENDER_FLAG: Wait while EventEntity->Render.Flags3 bit 2 is set (cancel turn if not)
  3: 0x05FE [0x29] REQ_SET_WAIT(priority=0x08, entity_id=Leepe-Hoppe (ID: 17752112/0x010EE030), tag_num=0x01)
  4: 0x0605 [0x1D] PRINT_EVENT_MESSAGE(message_id=7608*)
     "The places where the altars of offering stand, are a little way into the Giddeus land. Before the entrances of the caves they are, so be careful not to venture in too far."
  5: 0x0608 [0x23] WAIT_FOR_DIALOG_INTERACTION
  6: 0x0609 [0x1D] PRINT_EVENT_MESSAGE(message_id=7609*)
     "And though an offering you do bear, those Yagudo may attack you there. So be prepared and best of luck, unless you are a lucky...schmuck.t"
  7: 0x060C [0x23] WAIT_FOR_DIALOG_INTERACTION
  8: 0x060D [0x29] REQ_SET_WAIT(priority=0x08, entity_id=Leepe-Hoppe (ID: 17752112/0x010EE030), tag_num=0x02)
  9: 0x0614 [0x20] SET_CLI_EVENT_UC_FLAG: Unlock player control
 10: 0x0616 [0x21] END_EVENT
 11: 0x0617 [0x00] END_REQSTACK()
```

### Event 146

#### Metadata

| Field        | Value    |
|--------------|----------|
| Entrypoint   | 0x0618   |
| Data Size    | 10 bytes |
| Instructions | 2        |

```
      00 01 02 03 04 05 06 07  08 09 0A 0B 0C 0D 0E 0F
      -- -- -- -- -- -- -- --  -- -- -- -- -- -- -- --
0610:                          37 1D 80 1E 80 1F 80 20          7...... 
0620: 80 00                                             ..              
```

#### Opcodes

```
  0: 0x0618 [0x37] UPDATE_EVENT_POSITION_AND_DIR: x=13.234*, z=-197.570*, y=-9.750*, direction=6.1*
  1: 0x0621 [0x00] END_REQSTACK()
```

### Event 65535.74

#### Metadata

| Field        | Value    |
|--------------|----------|
| Entrypoint   | 0x0622   |
| Data Size    | 15 bytes |
| Instructions | 5        |

```
      00 01 02 03 04 05 06 07  08 09 0A 0B 0C 0D 0E 0F
      -- -- -- -- -- -- -- --  -- -- -- -- -- -- -- --
0620:       32 08 80 1F 00 21  80 22 80 1F 80 1F 01 6F    2....!.".....o
0630: 00                                                .               
```

#### Opcodes

```
  0: 0x0622 [0x32] ExtData[1]->MainSpeed = 13* * 0.1
  1: 0x0625 [0x1F] MOVE_ENTITY: EventEntity moves to X=15.063*, Z=-197.409*, Y=-9.750*
  2: 0x062D [0x1F] MOVE_ENTITY: Update entity position (mode=1)
  3: 0x062F [0x6F] WAIT_FRAME_DELAY: Yield until WaitTime reaches zero
  4: 0x0630 [0x00] END_REQSTACK()
```

### Event 65535.75

#### Metadata

| Field        | Value    |
|--------------|----------|
| Entrypoint   | 0x0631   |
| Data Size    | 19 bytes |
| Instructions | 5        |

```
      00 01 02 03 04 05 06 07  08 09 0A 0B 0C 0D 0E 0F
      -- -- -- -- -- -- -- --  -- -- -- -- -- -- -- --
0630:    29 08 30 E0 0E 01 01  1D 23 80 23 29 08 30 E0   ).0.....#.#).0.
0640: 0E 01 02 00                                       ....            
```

#### Opcodes

```
  0: 0x0631 [0x29] REQ_SET_WAIT(priority=0x08, entity_id=Leepe-Hoppe (ID: 17752112/0x010EE030), tag_num=0x01)
  1: 0x0638 [0x1D] PRINT_EVENT_MESSAGE(message_id=7617*)
     "We of the Rhinostery would like to explore the underground canals too."
  2: 0x063B [0x23] WAIT_FOR_DIALOG_INTERACTION
  3: 0x063C [0x29] REQ_SET_WAIT(priority=0x08, entity_id=Leepe-Hoppe (ID: 17752112/0x010EE030), tag_num=0x02)
  4: 0x0643 [0x00] END_REQSTACK()
```

### Event 65535.76

#### Metadata

| Field        | Value    |
|--------------|----------|
| Entrypoint   | 0x0644   |
| Data Size    | 37 bytes |
| Instructions | 9        |

```
      00 01 02 03 04 05 06 07  08 09 0A 0B 0C 0D 0E 0F
      -- -- -- -- -- -- -- --  -- -- -- -- -- -- -- --
0640:             29 08 30 E0  0E 01 03 1D 24 80 23 29      ).0.....$.#)
0650: 08 30 E0 0E 01 04 29 08  30 E0 0E 01 05 1D 25 80  .0....).0.....%.
0660: 23 29 08 30 E0 0E 01 06  00                       #).0.....       
```

#### Opcodes

```
  0: 0x0644 [0x29] REQ_SET_WAIT(priority=0x08, entity_id=Leepe-Hoppe (ID: 17752112/0x010EE030), tag_num=0x03)
  1: 0x064B [0x1D] PRINT_EVENT_MESSAGE(message_id=7618*)
     "And investigate why the great beast disappeared after the war ceased."
  2: 0x064E [0x23] WAIT_FOR_DIALOG_INTERACTION
  3: 0x064F [0x29] REQ_SET_WAIT(priority=0x08, entity_id=Leepe-Hoppe (ID: 17752112/0x010EE030), tag_num=0x04)
  4: 0x0656 [0x29] REQ_SET_WAIT(priority=0x08, entity_id=Leepe-Hoppe (ID: 17752112/0x010EE030), tag_num=0x05)
  5: 0x065D [0x1D] PRINT_EVENT_MESSAGE(message_id=7619*)
     "But the entrance to the canals in Windurst Walls, has been off-limits for twenty years, 'spite our calls. Known only as the Priming Gate, Cardians guard it as of late."
  6: 0x0660 [0x23] WAIT_FOR_DIALOG_INTERACTION
  7: 0x0661 [0x29] REQ_SET_WAIT(priority=0x08, entity_id=Leepe-Hoppe (ID: 17752112/0x010EE030), tag_num=0x06)
  8: 0x0668 [0x00] END_REQSTACK()
```

### Event 65535.77

#### Metadata

| Field        | Value    |
|--------------|----------|
| Entrypoint   | 0x0669   |
| Data Size    | 19 bytes |
| Instructions | 5        |

```
      00 01 02 03 04 05 06 07  08 09 0A 0B 0C 0D 0E 0F
      -- -- -- -- -- -- -- --  -- -- -- -- -- -- -- --
0660:                             29 08 30 E0 0E 01 1D           ).0....
0670: 1D 26 80 23 29 08 30 E0  0E 01 1E 00              .&.#).0.....    
```

#### Opcodes

```
  0: 0x0669 [0x29] REQ_SET_WAIT(priority=0x08, entity_id=Leepe-Hoppe (ID: 17752112/0x010EE030), tag_num=0x1D)
  1: 0x0670 [0x1D] PRINT_EVENT_MESSAGE(message_id=7622*)
     "But opening the Priming Gate is no easy thing, the key is our Rhinostery minister's ring. And Minister Rukususu wouldn't to you lend, her ring even if you were really her friend."
  2: 0x0673 [0x23] WAIT_FOR_DIALOG_INTERACTION
  3: 0x0674 [0x29] REQ_SET_WAIT(priority=0x08, entity_id=Leepe-Hoppe (ID: 17752112/0x010EE030), tag_num=0x1E)
  4: 0x067B [0x00] END_REQSTACK()
```

### Event 65535.78

#### Metadata

| Field        | Value    |
|--------------|----------|
| Entrypoint   | 0x067C   |
| Data Size    | 19 bytes |
| Instructions | 5        |

```
      00 01 02 03 04 05 06 07  08 09 0A 0B 0C 0D 0E 0F
      -- -- -- -- -- -- -- --  -- -- -- -- -- -- -- --
0670:                                      29 08 30 E0              ).0.
0680: 0E 01 01 1D 27 80 23 29  08 30 E0 0E 01 02 00     ....'.#).0..... 
```

#### Opcodes

```
  0: 0x067C [0x29] REQ_SET_WAIT(priority=0x08, entity_id=Leepe-Hoppe (ID: 17752112/0x010EE030), tag_num=0x01)
  1: 0x0683 [0x1D] PRINT_EVENT_MESSAGE(message_id=7625*)
     "Back from Giddeus now, I see! Your mission's done. What joy, what glee!"
  2: 0x0686 [0x23] WAIT_FOR_DIALOG_INTERACTION
  3: 0x0687 [0x29] REQ_SET_WAIT(priority=0x08, entity_id=Leepe-Hoppe (ID: 17752112/0x010EE030), tag_num=0x02)
  4: 0x068E [0x00] END_REQSTACK()
```

### Event 65535.79

#### Metadata

| Field        | Value    |
|--------------|----------|
| Entrypoint   | 0x068F   |
| Data Size    | 19 bytes |
| Instructions | 5        |

```
      00 01 02 03 04 05 06 07  08 09 0A 0B 0C 0D 0E 0F
      -- -- -- -- -- -- -- --  -- -- -- -- -- -- -- --
0680:                                               29                 )
0690: 08 30 E0 0E 01 01 1D 28  80 23 29 08 30 E0 0E 01  .0.....(.#).0...
06A0: 02 00                                             ..              
```

#### Opcodes

```
  0: 0x068F [0x29] REQ_SET_WAIT(priority=0x08, entity_id=Leepe-Hoppe (ID: 17752112/0x010EE030), tag_num=0x01)
  1: 0x0696 [0x1D] PRINT_EVENT_MESSAGE(message_id=7626*)
     "Oh, that was the Orastery minister, Ajido-Marujido, who wants to go to Karaha-Baruha's lab in the canals so..."
  2: 0x0699 [0x23] WAIT_FOR_DIALOG_INTERACTION
  3: 0x069A [0x29] REQ_SET_WAIT(priority=0x08, entity_id=Leepe-Hoppe (ID: 17752112/0x010EE030), tag_num=0x02)
  4: 0x06A1 [0x00] END_REQSTACK()
```

### Event 65535.80

#### Metadata

| Field        | Value    |
|--------------|----------|
| Entrypoint   | 0x06A2   |
| Data Size    | 37 bytes |
| Instructions | 9        |

```
      00 01 02 03 04 05 06 07  08 09 0A 0B 0C 0D 0E 0F
      -- -- -- -- -- -- -- --  -- -- -- -- -- -- -- --
06A0:       29 08 30 E0 0E 01  03 1D 29 80 23 29 08 30    ).0.....).#).0
06B0: E0 0E 01 04 29 08 30 E0  0E 01 05 1D 2A 80 23 29  ....).0.....*.#)
06C0: 08 30 E0 0E 01 06 00                              .0.....         
```

#### Opcodes

```
  0: 0x06A2 [0x29] REQ_SET_WAIT(priority=0x08, entity_id=Leepe-Hoppe (ID: 17752112/0x010EE030), tag_num=0x03)
  1: 0x06A9 [0x1D] PRINT_EVENT_MESSAGE(message_id=7627*)
     "So it really is the truth, what the rumors say... he's been asking about forbidden magic today."
  2: 0x06AC [0x23] WAIT_FOR_DIALOG_INTERACTION
  3: 0x06AD [0x29] REQ_SET_WAIT(priority=0x08, entity_id=Leepe-Hoppe (ID: 17752112/0x010EE030), tag_num=0x04)
  4: 0x06B4 [0x29] REQ_SET_WAIT(priority=0x08, entity_id=Leepe-Hoppe (ID: 17752112/0x010EE030), tag_num=0x05)
  5: 0x06BB [0x1D] PRINT_EVENT_MESSAGE(message_id=7628*)
     "I'm surprised he doesn't get caught without quibble, by Windurst's Sibyl Guards and the great Star Sibyl."
  6: 0x06BE [0x23] WAIT_FOR_DIALOG_INTERACTION
  7: 0x06BF [0x29] REQ_SET_WAIT(priority=0x08, entity_id=Leepe-Hoppe (ID: 17752112/0x010EE030), tag_num=0x06)
  8: 0x06C6 [0x00] END_REQSTACK()
```

### Event 65535.81

#### Metadata

| Field        | Value    |
|--------------|----------|
| Entrypoint   | 0x06C7   |
| Data Size    | 44 bytes |
| Instructions | 10       |

```
      00 01 02 03 04 05 06 07  08 09 0A 0B 0C 0D 0E 0F
      -- -- -- -- -- -- -- --  -- -- -- -- -- -- -- --
06C0:                      29  08 30 E0 0E 01 01 1D 2B         ).0.....+
06D0: 80 23 29 08 30 E0 0E 01  02 29 08 30 E0 0E 01 3F  .#).0....).0...?
06E0: 1D 2C 80 23 29 08 30 E0  0E 01 41 29 08 30 E0 0E  .,.#).0...A).0..
06F0: 01 42 00                                          .B.             
```

#### Opcodes

```
  0: 0x06C7 [0x29] REQ_SET_WAIT(priority=0x08, entity_id=Leepe-Hoppe (ID: 17752112/0x010EE030), tag_num=0x01)
  1: 0x06CE [0x1D] PRINT_EVENT_MESSAGE(message_id=7629*)
     "Anyway, your task's complete, your mission done, so return to the gatehouse where you begun."
  2: 0x06D1 [0x23] WAIT_FOR_DIALOG_INTERACTION
  3: 0x06D2 [0x29] REQ_SET_WAIT(priority=0x08, entity_id=Leepe-Hoppe (ID: 17752112/0x010EE030), tag_num=0x02)
  4: 0x06D9 [0x29] REQ_SET_WAIT(priority=0x08, entity_id=Leepe-Hoppe (ID: 17752112/0x010EE030), tag_num=0x3F)
  5: 0x06E0 [0x1D] PRINT_EVENT_MESSAGE(message_id=7630*)
     "Ha-ha! I'm sure something great, awaits you back at the gate!"
  6: 0x06E3 [0x23] WAIT_FOR_DIALOG_INTERACTION
  7: 0x06E4 [0x29] REQ_SET_WAIT(priority=0x08, entity_id=Leepe-Hoppe (ID: 17752112/0x010EE030), tag_num=0x41)
  8: 0x06EB [0x29] REQ_SET_WAIT(priority=0x08, entity_id=Leepe-Hoppe (ID: 17752112/0x010EE030), tag_num=0x42)
  9: 0x06F2 [0x00] END_REQSTACK()
```

### Event 147

#### Metadata

| Field        | Value    |
|--------------|----------|
| Entrypoint   | 0x06F3   |
| Data Size    | 47 bytes |
| Instructions | 14       |

```
      00 01 02 03 04 05 06 07  08 09 0A 0B 0C 0D 0E 0F
      -- -- -- -- -- -- -- --  -- -- -- -- -- -- -- --
06F0:          1E F0 FF FF 7F  6F 70 29 08 30 E0 0E 01     .....op).0...
0700: 01 1D 2D 80 23 29 08 30  E0 0E 01 02 29 08 30 E0  ..-.#).0....).0.
0710: 0E 01 3F 1D 2E 80 23 29  08 30 E0 0E 01 40 20 00  ..?...#).0...@ .
0720: 21 00                                             !.              
```

#### Opcodes

```
  0: 0x06F3 [0x1E] EventEntity looks at LocalPlayer and starts talking
  1: 0x06F8 [0x6F] WAIT_FRAME_DELAY: Yield until WaitTime reaches zero
  2: 0x06F9 [0x70] WAIT_ENTITY_RENDER_FLAG: Wait while EventEntity->Render.Flags3 bit 2 is set (cancel turn if not)
  3: 0x06FA [0x29] REQ_SET_WAIT(priority=0x08, entity_id=Leepe-Hoppe (ID: 17752112/0x010EE030), tag_num=0x01)
  4: 0x0701 [0x1D] PRINT_EVENT_MESSAGE(message_id=7631*)
     "Well, your task's complete, your mission done. Return to the gatehouse where you begun."
  5: 0x0704 [0x23] WAIT_FOR_DIALOG_INTERACTION
  6: 0x0705 [0x29] REQ_SET_WAIT(priority=0x08, entity_id=Leepe-Hoppe (ID: 17752112/0x010EE030), tag_num=0x02)
