# 17752080 - Tosuka-Porika

## Common Data

| Field            | Value                     |
|------------------|---------------------------|
| Zone             | Windurst Waters (ID: 238) |
| Block Size       | 9384 bytes                |
| Total Events     | 162                       |
| References Count | 212                       |

## List of Events

| Event ID                     | Entrypoint   |   Size |   Instructions |
|------------------------------|--------------|--------|----------------|
| [65535](#event-65535)        | 0x0000       |      1 |              1 |
| [65535.1](#event-655351)     | 0x0001       |     16 |              2 |
| [65535.2](#event-655352)     | 0x0011       |     22 |              4 |
| [65535.3](#event-655353)     | 0x0027       |     16 |              2 |
| [65535.4](#event-655354)     | 0x0037       |     22 |              4 |
| [65535.5](#event-655355)     | 0x004D       |     27 |              3 |
| [65535.6](#event-655356)     | 0x0068       |     27 |              3 |
| [65535.7](#event-655357)     | 0x0083       |     27 |              3 |
| [65535.8](#event-655358)     | 0x009E       |     16 |              2 |
| [65535.9](#event-655359)     | 0x00AE       |     14 |              2 |
| [65535.10](#event-6553510)   | 0x00BC       |     16 |              2 |
| [65535.11](#event-6553511)   | 0x00CC       |     14 |              2 |
| [65535.12](#event-6553512)   | 0x00DA       |     16 |              2 |
| [65535.13](#event-6553513)   | 0x00EA       |     14 |              2 |
| [65535.14](#event-6553514)   | 0x00F8       |     16 |              2 |
| [65535.15](#event-6553515)   | 0x0108       |     14 |              2 |
| [65535.16](#event-6553516)   | 0x0116       |     16 |              2 |
| [65535.17](#event-6553517)   | 0x0126       |     22 |              4 |
| [65535.18](#event-6553518)   | 0x013C       |     16 |              2 |
| [65535.19](#event-6553519)   | 0x014C       |     14 |              2 |
| [65535.20](#event-6553520)   | 0x015A       |     16 |              2 |
| [65535.21](#event-6553521)   | 0x016A       |     14 |              2 |
| [65535.22](#event-6553522)   | 0x0178       |     16 |              2 |
| [65535.23](#event-6553523)   | 0x0188       |     14 |              2 |
| [65535.24](#event-6553524)   | 0x0196       |     16 |              2 |
| [65535.25](#event-6553525)   | 0x01A6       |     14 |              2 |
| [65535.26](#event-6553526)   | 0x01B4       |     34 |              4 |
| [65535.27](#event-6553527)   | 0x01D6       |     16 |              2 |
| [65535.28](#event-6553528)   | 0x01E6       |     14 |              2 |
| [65535.29](#event-6553529)   | 0x01F4       |     16 |              2 |
| [65535.30](#event-6553530)   | 0x0204       |     14 |              2 |
| [65535.31](#event-6553531)   | 0x0212       |     16 |              2 |
| [65535.32](#event-6553532)   | 0x0222       |     14 |              2 |
| [65535.33](#event-6553533)   | 0x0230       |     16 |              2 |
| [65535.34](#event-6553534)   | 0x0240       |     14 |              2 |
| [65535.35](#event-6553535)   | 0x024E       |     16 |              2 |
| [65535.36](#event-6553536)   | 0x025E       |     14 |              2 |
| [65535.37](#event-6553537)   | 0x026C       |     16 |              2 |
| [65535.38](#event-6553538)   | 0x027C       |     14 |              2 |
| [65535.39](#event-6553539)   | 0x028A       |     16 |              2 |
| [65535.40](#event-6553540)   | 0x029A       |     14 |              2 |
| [65535.41](#event-6553541)   | 0x02A8       |     16 |              2 |
| [65535.42](#event-6553542)   | 0x02B8       |     14 |              2 |
| [65535.43](#event-6553543)   | 0x02C6       |     16 |              2 |
| [65535.44](#event-6553544)   | 0x02D6       |     14 |              2 |
| [65535.45](#event-6553545)   | 0x02E4       |     16 |              2 |
| [65535.46](#event-6553546)   | 0x02F4       |     14 |              2 |
| [65535.47](#event-6553547)   | 0x0302       |     16 |              2 |
| [65535.48](#event-6553548)   | 0x0312       |     14 |              2 |
| [65535.49](#event-6553549)   | 0x0320       |     16 |              2 |
| [65535.50](#event-6553550)   | 0x0330       |     14 |              2 |
| [65535.51](#event-6553551)   | 0x033E       |     16 |              2 |
| [65535.52](#event-6553552)   | 0x034E       |     14 |              2 |
| [65535.53](#event-6553553)   | 0x035C       |     22 |              3 |
| [65535.54](#event-6553554)   | 0x0372       |     14 |              2 |
| [65535.55](#event-6553555)   | 0x0380       |     22 |              3 |
| [65535.56](#event-6553556)   | 0x0396       |     14 |              2 |
| [65535.57](#event-6553557)   | 0x03A4       |     16 |              2 |
| [65535.58](#event-6553558)   | 0x03B4       |     14 |              2 |
| [65535.59](#event-6553559)   | 0x03C2       |     16 |              2 |
| [65535.60](#event-6553560)   | 0x03D2       |     14 |              2 |
| [65535.61](#event-6553561)   | 0x03E0       |     16 |              2 |
| [65535.62](#event-6553562)   | 0x03F0       |     14 |              2 |
| [65535.63](#event-6553563)   | 0x03FE       |     16 |              2 |
| [65535.64](#event-6553564)   | 0x040E       |     14 |              2 |
| [65535.65](#event-6553565)   | 0x041C       |     16 |              2 |
| [65535.66](#event-6553566)   | 0x042C       |     14 |              2 |
| [65535.67](#event-6553567)   | 0x043A       |     16 |              2 |
| [65535.68](#event-6553568)   | 0x044A       |     14 |              2 |
| [65535.69](#event-6553569)   | 0x0458       |     16 |              2 |
| [65535.70](#event-6553570)   | 0x0468       |     14 |              2 |
| [65535.71](#event-6553571)   | 0x0476       |     10 |              4 |
| [65535.72](#event-6553572)   | 0x0480       |     16 |              2 |
| [65535.73](#event-6553573)   | 0x0490       |     14 |              2 |
| [65535.74](#event-6553574)   | 0x049E       |     16 |              2 |
| [65535.75](#event-6553575)   | 0x04AE       |     14 |              2 |
| [370](#event-370)            | 0x04BC       |     33 |             12 |
| [379](#event-379)            | 0x04DD       |     64 |             17 |
| [380](#event-380)            | 0x051D       |     64 |             17 |
| [160](#event-160)            | 0x055D       |    778 |            100 |
| [65535.76](#event-6553576)   | 0x0867       |     16 |              4 |
| [65535.77](#event-6553577)   | 0x0877       |     33 |              9 |
| [65535.78](#event-6553578)   | 0x0898       |     15 |              5 |
| [65535.79](#event-6553579)   | 0x08A7       |     22 |              6 |
| [65535.80](#event-6553580)   | 0x08BD       |     15 |              5 |
| [65535.81](#event-6553581)   | 0x08CC       |     19 |              5 |
| [65535.82](#event-6553582)   | 0x08DF       |      5 |              3 |
| [65535.83](#event-6553583)   | 0x08E4       |      5 |              3 |
| [65535.84](#event-6553584)   | 0x08E9       |     19 |              5 |
| [65535.85](#event-6553585)   | 0x08FC       |      5 |              3 |
| [65535.86](#event-6553586)   | 0x0901       |     26 |              6 |
| [65535.87](#event-6553587)   | 0x091B       |      1 |              1 |
| [65535.88](#event-6553588)   | 0x091C       |      9 |              5 |
| [65535.89](#event-6553589)   | 0x0925       |      5 |              3 |
| [65535.90](#event-6553590)   | 0x092A       |     33 |              7 |
| [65535.91](#event-6553591)   | 0x094B       |     19 |              5 |
| [65535.92](#event-6553592)   | 0x095E       |     41 |             11 |
| [161](#event-161)            | 0x0987       |     33 |             12 |
| [168](#event-168)            | 0x09A8       |    498 |             67 |
| [65535.93](#event-6553593)   | 0x0B9A       |     19 |              5 |
| [65535.94](#event-6553594)   | 0x0BAD       |     19 |              5 |
| [65535.95](#event-6553595)   | 0x0BC0       |     33 |              7 |
| [65535.96](#event-6553596)   | 0x0BE1       |     19 |              5 |
| [65535.97](#event-6553597)   | 0x0BF4       |      5 |              3 |
| [65535.98](#event-6553598)   | 0x0BF9       |     37 |              9 |
| [169](#event-169)            | 0x0C1E       |     29 |             10 |
| [387](#event-387)            | 0x0C3B       |    151 |             30 |
| [65535.99](#event-6553599)   | 0x0CD2       |     15 |              5 |
| [65535.100](#event-65535100) | 0x0CE1       |     12 |              4 |
| [65535.101](#event-65535101) | 0x0CED       |     12 |              4 |
| [65535.102](#event-65535102) | 0x0CF9       |     23 |              7 |
| [65535.103](#event-65535103) | 0x0D10       |     19 |              5 |
| [65535.104](#event-65535104) | 0x0D23       |     33 |              7 |
| [65535.105](#event-65535105) | 0x0D44       |     23 |              7 |
| [65535.106](#event-65535106) | 0x0D5B       |     23 |              7 |
| [65535.107](#event-65535107) | 0x0D72       |     19 |              5 |
| [65535.108](#event-65535108) | 0x0D85       |     23 |              7 |
| [65535.109](#event-65535109) | 0x0D9C       |     19 |              5 |
| [388](#event-388)            | 0x0DAF       |     29 |             10 |
| [402](#event-402)            | 0x0DCC       |     29 |             10 |
| [55](#event-55)              | 0x0DE9       |     33 |             12 |
| [403](#event-403)            | 0x0E0A       |     83 |             20 |
| [406](#event-406)            | 0x0E5D       |     29 |             10 |
| [412](#event-412)            | 0x0E7A       |     33 |             12 |
| [796](#event-796)            | 0x0E9B       |     47 |             14 |
| [65535.110](#event-65535110) | 0x0ECA       |     14 |              4 |
| [65535.111](#event-65535111) | 0x0ED8       |     14 |              4 |
| [65535.112](#event-65535112) | 0x0EE6       |     14 |              4 |
| [715](#event-715)            | 0x0EF4       |   1405 |            211 |
| [716](#event-716)            | 0x1471       |     47 |             14 |
| [724](#event-724)            | 0x14A0       |    630 |             90 |
| [725](#event-725)            | 0x1716       |     33 |             12 |
| [65535.113](#event-65535113) | 0x1737       |     14 |              4 |
| [801](#event-801)            | 0x1745       |   1417 |            192 |
| [802](#event-802)            | 0x1CCE       |     33 |             12 |
| [803](#event-803)            | 0x1CEF       |     65 |             18 |
| [841](#event-841)            | 0x1D30       |     65 |             18 |
| [875](#event-875)            | 0x1D71       |     15 |              4 |
| [65535.114](#event-65535114) | 0x1D80       |     10 |              2 |
| [65535.115](#event-65535115) | 0x1D8A       |     22 |              8 |
| [65535.116](#event-65535116) | 0x1DA0       |     15 |              5 |
| [65535.117](#event-65535117) | 0x1DAF       |     15 |              5 |
| [65535.118](#event-65535118) | 0x1DBE       |     15 |              5 |
| [881](#event-881)            | 0x1DCD       |     65 |             18 |
| [907](#event-907)            | 0x1E0E       |      1 |              1 |
| [908](#event-908)            | 0x1E0F       |      1 |              1 |
| [1156](#event-1156)          | 0x1E10       |      1 |              1 |
| [1157](#event-1157)          | 0x1E11       |      1 |              1 |
| [1158](#event-1158)          | 0x1E12       |      1 |              1 |
| [1159](#event-1159)          | 0x1E13       |      1 |              1 |
| [1160](#event-1160)          | 0x1E14       |      1 |              1 |
| [65535.119](#event-65535119) | 0x1E15       |     15 |              5 |
| [65535.120](#event-65535120) | 0x1E24       |     15 |              5 |
| [65535.121](#event-65535121) | 0x1E33       |     15 |              5 |
| [65535.122](#event-65535122) | 0x1E42       |     15 |              5 |
| [65535.123](#event-65535123) | 0x1E51       |     15 |              5 |
| [65535.124](#event-65535124) | 0x1E60       |     15 |              5 |
| [65535.125](#event-65535125) | 0x1E6F       |     15 |              5 |
| [65535.126](#event-65535126) | 0x1E7E       |     15 |              5 |
| [65535.127](#event-65535127) | 0x1E8D       |     15 |              5 |
| [65535.128](#event-65535128) | 0x1E9C       |     22 |              8 |
| [65535.129](#event-65535129) | 0x1EB2       |     14 |              4 |

## DAT References (imed_data)

|   Index | Hex Value   |   Dec Value |
|---------|-------------|-------------|
|       0 | 0x0151      |         337 |
|       1 | 0x001E      |          30 |
|       2 | 0x0155      |         341 |
|       3 | 0x01AE      |         430 |
|       4 | 0x0153      |         339 |
|       5 | 0x0157      |         343 |
|       6 | 0x0161      |         353 |
|       7 | 0x01AF      |         431 |
|       8 | 0x01B0      |         432 |
|       9 | 0x1FE8      |        8168 |
|      10 | 0x1FE9      |        8169 |
|      11 | 0x1FF7      |        8183 |
|      12 | 0x1FF8      |        8184 |
|      13 | 0x1FF9      |        8185 |
|      14 | 0x1FFA      |        8186 |
|      15 | 0x00C8      |         200 |
|      16 | 0x0000      |           0 |
|      17 | 0x003C      |          60 |
|      18 | 0x018A      |         394 |
|      19 | 0x0003      |           3 |
|      20 | 0x007B      |         123 |
|      21 | 0x0064      |         100 |
|      22 | 0x008A      |         138 |
|      23 | 0x1DED      |        7661 |
|      24 | 0x03E8      |        1000 |
|      25 | 0x0008      |           8 |
|      26 | 0x0078      |         120 |
|      27 | 0x1DF2      |        7666 |
|      28 | 0x1DF3      |        7667 |
|      29 | 0x1DF4      |        7668 |
|      30 | 0x1DF5      |        7669 |
|      31 | 0x1DF8      |        7672 |
|      32 | 0x1DF9      |        7673 |
|      33 | 0x012C      |         300 |
|      34 | 0x0097      |         151 |
|      35 | 0x007F      |         127 |
|      36 | 0x0001      |           1 |
|      37 | 0x000D      |          13 |
|      38 | 0xFFFF9527  |  4294939943 |
|      39 | 0x19809     |      104457 |
|      40 | 0xFFFFEB7F  |  4294962047 |
|      41 | 0xFFFF9799  |  4294940569 |
|      42 | 0x18FBA     |      102330 |
|      43 | 0x0B4C      |        2892 |
|      44 | 0xFFFF9009  |  4294938633 |
|      45 | 0x197EA     |      104426 |
|      46 | 0xFFFFEB7E  |  4294962046 |
|      47 | 0x1DEC      |        7660 |
|      48 | 0x1DEE      |        7662 |
|      49 | 0x1DEF      |        7663 |
|      50 | 0x1DF0      |        7664 |
|      51 | 0x1DF1      |        7665 |
|      52 | 0x1DF6      |        7670 |
|      53 | 0x1DF7      |        7671 |
|      54 | 0x1DFA      |        7674 |
|      55 | 0x1DFB      |        7675 |
|      56 | 0x1DFC      |        7676 |
|      57 | 0x1DFD      |        7677 |
|      58 | 0x1DFE      |        7678 |
|      59 | 0x1DFF      |        7679 |
|      60 | 0x1E00      |        7680 |
|      61 | 0x1E0E      |        7694 |
|      62 | 0x1E12      |        7698 |
|      63 | 0x00C9      |         201 |
|      64 | 0x1E0D      |        7693 |
|      65 | 0x1E0F      |        7695 |
|      66 | 0x1E10      |        7696 |
|      67 | 0x1E11      |        7697 |
|      68 | 0x1E13      |        7699 |
|      69 | 0x1E14      |        7700 |
|      70 | 0x1E15      |        7701 |
|      71 | 0x2017      |        8215 |
|      72 | 0xFFFF9F2A  |  4294942506 |
|      73 | 0x1A12F     |      106799 |
|      74 | 0xFFFF9CC7  |  4294941895 |
|      75 | 0x18FD2     |      102354 |
|      76 | 0xFFFF9D4B  |  4294942027 |
|      77 | 0x19909     |      104713 |
|      78 | 0x2015      |        8213 |
|      79 | 0x2016      |        8214 |
|      80 | 0x2018      |        8216 |
|      81 | 0x2019      |        8217 |
|      82 | 0x201B      |        8219 |
|      83 | 0x201C      |        8220 |
|      84 | 0x201D      |        8221 |
|      85 | 0x201E      |        8222 |
|      86 | 0x201F      |        8223 |
|      87 | 0x2020      |        8224 |
|      88 | 0x2021      |        8225 |
|      89 | 0x2022      |        8226 |
|      90 | 0x2023      |        8227 |
|      91 | 0x2045      |        8261 |
|      92 | 0x1CDF      |        7391 |
|      93 | 0x1CE0      |        7392 |
|      94 | 0x2046      |        8262 |
|      95 | 0x2047      |        8263 |
|      96 | 0x2059      |        8281 |
|      97 | 0x205A      |        8282 |
|      98 | 0x259C      |        9628 |
|      99 | 0x259D      |        9629 |
|     100 | 0xFFFF94EC  |  4294939884 |
|     101 | 0x18713     |      100115 |
|     102 | 0xFFFF99E7  |  4294941159 |
|     103 | 0x1903B     |      102459 |
|     104 | 0x0C82      |        3202 |
|     105 | 0x25B6      |        9654 |
|     106 | 0x25B7      |        9655 |
|     107 | 0x00D3      |         211 |
|     108 | 0x25B8      |        9656 |
|     109 | 0x25B9      |        9657 |
|     110 | 0x25BA      |        9658 |
|     111 | 0x0032      |          50 |
|     112 | 0x25BB      |        9659 |
|     113 | 0x25BC      |        9660 |
|     114 | 0x25BD      |        9661 |
|     115 | 0x25BE      |        9662 |
|     116 | 0x25BF      |        9663 |
|     117 | 0x25C0      |        9664 |
|     118 | 0x25C1      |        9665 |
|     119 | 0x25C2      |        9666 |
|     120 | 0x00F2      |         242 |
|     121 | 0x000C      |          12 |
|     122 | 0x01AC      |         428 |
|     123 | 0x0068      |         104 |
|     124 | 0x25C3      |        9667 |
|     125 | 0x25C4      |        9668 |
|     126 | 0x25C5      |        9669 |
|     127 | 0x25C6      |        9670 |
|     128 | 0x00A9      |         169 |
|     129 | 0x000F      |          15 |
|     130 | 0x0048      |          72 |
|     131 | 0x25C7      |        9671 |
|     132 | 0x25C8      |        9672 |
|     133 | 0x25C9      |        9673 |
|     134 | 0x25CA      |        9674 |
|     135 | 0x25CB      |        9675 |
|     136 | 0x00EE      |         238 |
|     137 | 0x25CC      |        9676 |
|     138 | 0x25CD      |        9677 |
|     139 | 0x25CE      |        9678 |
|     140 | 0x25CF      |        9679 |
|     141 | 0x25D0      |        9680 |
|     142 | 0x25DD      |        9693 |
|     143 | 0x25DE      |        9694 |
|     144 | 0x00A0      |         160 |
|     145 | 0x25DF      |        9695 |
|     146 | 0x25E0      |        9696 |
|     147 | 0x25E1      |        9697 |
|     148 | 0x25E2      |        9698 |
|     149 | 0x074E      |        1870 |
|     150 | 0x25E3      |        9699 |
|     151 | 0x25E4      |        9700 |
|     152 | 0x25E5      |        9701 |
|     153 | 0x25E6      |        9702 |
|     154 | 0x0028      |          40 |
|     155 | 0xFFFF9C4F  |  4294941775 |
|     156 | 0x18D72     |      101746 |
|     157 | 0x26CF      |        9935 |
|     158 | 0x26D0      |        9936 |
|     159 | 0x26D1      |        9937 |
|     160 | 0x26D2      |        9938 |
|     161 | 0x26D3      |        9939 |
|     162 | 0x26D4      |        9940 |
|     163 | 0x26D5      |        9941 |
|     164 | 0x26D6      |        9942 |
|     165 | 0x26D7      |        9943 |
|     166 | 0x26D8      |        9944 |
|     167 | 0x000A      |          10 |
|     168 | 0x26D9      |        9945 |
|     169 | 0x26DA      |        9946 |
|     170 | 0x26DB      |        9947 |
|     171 | 0x26DC      |        9948 |
|     172 | 0x26DE      |        9950 |
|     173 | 0x26DD      |        9949 |
|     174 | 0x26DF      |        9951 |
|     175 | 0x26E0      |        9952 |
|     176 | 0x26E1      |        9953 |
|     177 | 0x26E2      |        9954 |
|     178 | 0x26E3      |        9955 |
|     179 | 0x26E4      |        9956 |
|     180 | 0x26E5      |        9957 |
|     181 | 0x26E6      |        9958 |
|     182 | 0x26E7      |        9959 |
|     183 | 0x276E      |       10094 |
|     184 | 0x276F      |       10095 |
|     185 | 0x2770      |       10096 |
|     186 | 0xFFFFA3C3  |  4294943683 |
|     187 | 0x194EB     |      103659 |
|     188 | 0x02F8      |         760 |
|     189 | 0xFFFFA628  |  4294944296 |
|     190 | 0x18C18     |      101400 |
|     191 | 0x19000     |      102400 |
|     192 | 0x18830     |      100400 |
|     193 | 0x2930      |       10544 |
|     194 | 0x2967      |       10599 |
|     195 | 0x2968      |       10600 |
|     196 | 0xFFFF953C  |  4294939964 |
|     197 | 0x192BF     |      103103 |
|     198 | 0xFFFF95AD  |  4294940077 |
|     199 | 0x1884B     |      100427 |
|     200 | 0xFFFF9F01  |  4294942465 |
|     201 | 0x18C37     |      101431 |
|     202 | 0xFFFF97D0  |  4294940624 |
|     203 | 0x18CAD     |      101549 |
|     204 | 0xFFFF9655  |  4294940245 |
|     205 | 0x19341     |      103233 |
|     206 | 0xFFFF921F  |  4294939167 |
|     207 | 0x18AFA     |      101114 |
|     208 | 0xFFFF96B5  |  4294940341 |
|     209 | 0x18DB0     |      101808 |
|     210 | 0xFFFF940C  |  4294939660 |
|     211 | 0x195BD     |      103869 |

## String References

- **7391**: Hrmmmm...!? Nice hat... Shame it doesn't suit you, though.
- **7392**: Hrmm... Maybe it'll suit me? As I always say... If the hat fits, wear it!
- **7660**: Hrm. Hrmmm... Hrrrmmmmmm...hrm!
- **7661**: ...Hrm!? Sorry about that. I was just thinking...
- **7662**: I'm facing my first crisis since taking over as Minister of the Optistery here...
- **7663**: .........Hrm? By the way, who in my stars are you? Wha-wha-what? You're the adventurer sent here to help from the gatehouse?
- **7664**: ......Hrmmmm? Oh, so you're the adventurer sent here to help from the gatehouse, huh?
- **7665**: Well then, let me explain. Hrmmm...... Where do I start?
- **7670**: But the restricted books section is another matter.
- **7671**: Restricted books are never allowed to be taken out of the Library of Magic, and are normally sealed away in a special room.
- **7672**: Manuscripts, life-threateningly dangerous to those weak in magical power...
- **7674**: All of which are writings that, if taken outside, would cause great calamity. However, one very important book disappeared during the war twenty years ago, and has never been seen since.
- **7675**: But recently, I received word that said book had fallen into the dirty paws of that outrageous Mithran Cat Burglar who inhabits Windurst Woods.
- **7676**: Although the source of this information is dubious, the possibility that she has that book is a matter of great consequence.
- **7677**: That's where you come in... I want you to go meet that so-called "Cat Burglar" and confirm whether or not she possesses any of our restricted books.
- **7678**: The Optistery must retrieve any restricted books back as soon as possible, and at any cost. We are counting on you!
- **7679**: Hrmmm...... I wonder if that so-called Mithran "Cat Burglar" really has one of our restricted books.
- **7680**: If it is true, it's a gravely dangerous situation. Anyone with weak magical powers would be killed the second they opened such a book!
- **7693**: Hrmm!? Oh, you're finally back!
- **7694**: How did it go? Did that so-called Mithran "Cat Burglar" really have her paws on one of our restricted books?
- **7695**: ...Wha-wha-wha-what!? Preposterous! The Book of the Gods...!? No...! The time for the Book of the Gods to lose its magic has come...!? Wha...!?
- **7696**: It's said that when the Book of the Gods loses its magic power and returns to blank pages, the shadows of destruction will set upon our world...
- **7697**: Hrm! Really, how could such a fearful thing ever happen!?
- **7698**: Ajido-Marujido! I bet you wanted the Book of the Gods so badly that you came up with this preposterous lie. Hrmmm...
- **7699**: Don't you worry about Ajido-Marujido! I'll report him to the Star Sibyl myself.
- **7700**: And as for you, adventurer. I must warn you to forget this ever happened! You understand?
- **7701**: Hrmmmm! You must not frighten the others with rumors that the Book of the Gods has gone blank. Forget everything that happened. You understand?
- **8168**: Hrmm. Hey you! What are you doing there?
- **8169**: You look like an adventurer or some other riff-raff. It doesn't seem like you'd have any business with our distinguished Library of Magic!
- **8183**: Hrrrrm... That can't be it... Then again... Hr-hr-hr-hrmm...
- **8184**: Hrm! Hey, you're the adventurer from the other day! I don't believe it! I don't believe a word anyone says!
- **8185**: Hr-hr-hr-hrmm... Thanks to some adventurer somewhere, I was able to awaken from an inescapable nightmare.
- **8186**: The resurrection of the Shadow Lord and the Book of the Gods losing its magic... Those things couldn't possibly happen. It was all but a dream...
- **8213**: Hrmm. Hey you! What are you doing there?
- **8214**: Hrmm!? Just a second... I could use you. Would you be willing to do a little chore for me in return for some money?
- **8215**: Take on the chore? [Accept./Decline.]
- **8216**: You don't need the cash? Hah! Just goes to show you can't judge a book by its cover, then... Anyway, I'm busy, so off with you!
- **8217**: Good! First, let me explain a bit about our distinguished library.
- **8219**: This library's official name is the Federal Book Repository for Magical Knowledge and Research...
- **8220**: Also known as the Book Repository of General Knowledges. It is under the jurisdiction of the Optistery, the ministry that forbids the loss of knowledge.
- **8221**: Under the strict supervision of successive ministers, our Optistery has protected the knowledge stored here with a system that doesn't allow even a baby ant to go unaccounted for.
- **8222**: For instance, the diary that disappears into blank pages after three days, or the housekeeping account book that's so red, it makes your eyes weep.
- **8223**: Once a book or scroll is placed in our care, we will never allow its content to be lost.
- **8224**: Hrmm... However...several misfortunes have thrown the wheels of fate into disorder.
- **8225**: We want you to hunt down those books that have suffered such a sad fate, and bring them back to us.
- **8226**: Ask the librarian at the counter, Furakku-Norakku, for the details. We're counting on you, the savior of knowledge!
- **8227**: Hrm? Wha-wha-what's wrong? Are you fulfilling your role as the savior of knowledge?
- **8261**: Hrm. I hear another book crying somewhere... Hrrrmmmmmm...
- **8262**: If your journeys seem to have lost purpose of late, why not help out my ministry in your capacity as the "savior of knowledge" again?
- **8263**: Help out the library again? [Listen to offer./Don't.]
- **8281**: Hae Jakkya from Windurst Woods' auction house? I remember now... She's a regular here. Never had a late book in her life.
- **8282**: If only all the Mithra were as diligent as she is. But don't get me started with my grumblings...
- **9628**: Looks like Ajido-Marujido has finally been restrained by the Sibyl Guards!
- **9629**: Has his search for power blinded his judgmentaru? How dare he set foot in the Full Moon Fountain, sacred-wacred place of our beloved Star Sibyl!
- **9654**: Hrm. Hrmmm... Hrrrmmmmmm...hrm!
- **9655**: ...Hrm!? Aren'taru you the adventurer who completed my last mission?
- **9656**: Heh-heh-heh... Actually, the mission I issued to the gatehouse was justaru a cover-up.
- **9657**: Since the incidentaru with Ajido-Marujido, the Sibyl Guards have been paying too much attention to the mission statements...
- **9659**: The Book of the Gods... We had no idea of its location for all those years after the war. That was the tome you recovered for us from the dastard-wastardly Cat Burglar.
- **9660**: Ajido-Marujido then swiped the book, and delivered it to the Star Sibyl himself.
- **9661**: Then a few days ago... The Star Sibyl summoned me to Heavens Tower and handed the Book of the Gods over to me.
- **9662**: I was ordered to never letaru that tome see the light of day again.
- **9663**: ...Hrmmm... That's what the Star Sibyl ordered, so I mustaru obey! But I...that is something I just cannot do!
- **9664**: The pages of the Book of the Gods are blank! I cannot turn my eyes from the truth. As the name of the Optistery suggestarus, we are the eyes of Windurst!
- **9665**: If I ignore the truth before me, how can I call myself the Minister of the Optistery?
- **9666**: Here is the deal. What I am aboutaru to tell you must be in the strictest-wictest of confidence. You mustn'taru leak a word of it to anyone.
- **9667**: When I was still justaru a student, I heard about the Book of the Gods from the minister at the time...Minister Karaha-Baruha.
- **9668**: The Book of the Gods refers to the "True History" written by the first Star Sibyl for the benefitaru of the Star Sibyls that would succeed her.
- **9669**: The truth contained in this book can be extremely-wemely dangerous, and it has been passed down through generations of Ministers.
- **9670**: Consequentaruly, the Book of the Gods is sealed by powerful spells. This seal can only be broken through the expenditure of huge amountarus of magic while employing the "Diza Star" that hangs from the neck of the Star Sibyl.
- **9671**: ...I don'taru know how he did it, but Minister Karaha-Baruha managed to obtain the Star Sibyl's permission to open the Book of the Gods.
- **9672**: To breach the seal on the tome, the minister utilized the power of the Horutoto Ruins' magical towers...
- **9673**: ...And from the Book of the Gods, he learned a certain truth. This truth was indeed a dangerous thing.
- **9674**: Karaha-Baruha carried outaru his research in a laboratory hidden within Toraimarai Canal...
- **9675**: You mightaru call this laboratory the sixth ministry of Windurst. ...The Animastery...
- **9676**: Adventurer, find that ministry. If you enter the Animastery, you may find something from Minister Karaha-Baruha's research.
- **9677**: We mustaru discover the reason why the writings contained in this tome have vanished.
- **9678**: Ah yes, I mustaru give you this. You should be able to enter the Animastery using this ring. It is the $3. Try your bestaru not to lose it.
- **9679**: Go to Toraimarai Canal and find the Animastery. There you may find the remnantarus of Minister Karaha-Baruha's research.
- **9680**: ...Hrmmm! Ah yes, don't go losing that $3! I'm trusting you to take good care of it!
- **9693**: Hrm!? Oh, you finally made it back.
- **9694**: How did it go!? Did you find anything!?
- **9695**: Wh-wh-wh-wh-what!!! The Star Sibyl was there!?
- **9696**: Oh, my goodly Goddess... Charges could be brought against me... If they throw me in the Dark Dungeon, all is lostaru!
- **9697**: Hrm, adventurer! My life is in your hands. Take this and keep it safe.
- **9698**: I-i-if I am imprisoned in the Dark Dungeon, take it to the Star Sibyl and use it to secure my freedom.
- **9699**: Hrmmm! This is not blackmail. ...This is negotiation! Yes, you will negotiate my freedom with the Star Sibyl!
- **9700**: Don't breathey-weathe a word of this to anyone! Now quickly, get yourself away from here!
- **9701**: I-i-if I am imprisoned in the Dark Dungeon, take it to the Star Sibyl and use it to secure my freedom.
- **9702**: Hrmmm! This is not blackmail. ...This is negotiation! Yes, you will negotiate my freedom with the Star Sibyl!
- **9935**: Hrmm! What!? There's no reason for me to feel guilty! I have absolutaruly no intention of defying the will of the Star Sibyl!
- **9936**: ...? What was that? You want me to lend you my $3 again?
- **9937**: Hrmm, I know what you're up to! You want to go back to the Animastery, don't you!?
- **9938**: There's no more reason for you to go there. In factaru, you really shouldn't. How would you talk yourself out of trouble-wouble if you happened to run into the Star Sibyl again?
- **9939**: ...Hrmm! What's that!? That's not the reason? You mean to break Ajido-Marujido out of the Dark Dungeon using my $3!?
- **9940**: ...Hmmm... The Dark Dungeon, huh? They say that the Dark Dungeon drains a person's magical power, eventually killing them...
- **9941**: I doubtaru the Star Sibyl really intends to rob-wob Ajido-Marujido of his life. But she may be angry enough to rob him of his life as a mage.
- **9942**: Hrmm!? There was once a similar tragedy...I seem to recall... Now...who was that...?
- **9943**: ...In any case, I have not the slightest-wightest interest in doing anything that would benefitaru Ajido-Marujido. If you're looking for help from me, you've come to the wrong place. Now, get out of here!
- **9944**: ...!? Hrm? Just a momentaru...?
- **9945**: It can't be... Hrmm... That power I feel coming from you...
- **9946**: The magic has returned to the blank tome! It's a miracle...! This will mean the salvation of Windurst!
- **9947**: ...What!? You intend to have Ajido-Marujido read the book!? Don'taru be a fool! If you want someone to read it, then give it to me. I can...!
- **9948**: Great Goddess! I cannot... This is beyond my strength... I may be able to open it if I had the Diza Star of the Star Sibyl...
- **9949**: Hrmm... A wily wizard of Ajido-Marujido's power should be able to withstand this magic...
- **9950**: ......
- **9951**: ...I admit defeataru!
- **9952**: But if I help you get this book to Ajido-Marujido, you mustaru tell me what knowledge its pages contain.
- **9953**: I mustaru know the dangerous truth learned by Minister Karaha-Baruha.
- **9954**: Here, take my $3. Return it to me as soon as your task is complete!
- **9955**: Hrm! Are we clear? Once you have Ajido-Marujido read the Book of the Gods, you mustaru tell me what knowledge is contained within.
- **9956**: Return my $3 as soon as your task is complete!
- **9957**: Where have you been? Did Ajido-Marujido get the book open!?
- **9958**: ...Hrmm, he's fallen into a coma, has he...? He must've been drawn into the "World of the Book."
- **9959**: If he manages to return to consciousness, he will have all the knowledge contained within the Book of the Gods. ...If he makes it back, that is.
- **10094**: I've been waiting for you! Have you seen Ajido-Marujido? I justaru can't seem to get hold of him.
- **10095**: It's unthink-winkable that the Minister of the Orastery should know the secrets of the Book of the Gods while the Minister of the Optistery wallows in ignorance!
- **10096**: My position demands I gain the knowledge contained within that tome! I'll take this directaruly to the Star Sibyl!
- **10544**: Hrm. Hrmmm... Hrrrmmmmmm...hrm!
- **10599**: Kuluu, Zilart, Bahamut... Those are all names found in my dustiest and mustiest of tomes--and those tomes say that all three perished long, long ago!
- **10600**: I'm not going to believe any of this rubbly rubbish unless someone brings one of those Zilart here before my eyes!

## Events

### Event 65535

#### Metadata

| Field        | Value   |
|--------------|---------|
| Entrypoint   | 0x0000  |
| Data Size    | 1 bytes |
| Instructions | 1       |

```
      00 01 02 03 04 05 06 07  08 09 0A 0B 0C 0D 0E 0F
      -- -- -- -- -- -- -- --  -- -- -- -- -- -- -- --
0000: 00                                                .               
```

#### Opcodes

```
  0: 0x0000 [0x00] END_REQSTACK()
```

### Event 65535.1

#### Metadata

| Field        | Value    |
|--------------|----------|
| Entrypoint   | 0x0001   |
| Data Size    | 16 bytes |
| Instructions | 2        |

```
      00 01 02 03 04 05 06 07  08 09 0A 0B 0C 0D 0E 0F
      -- -- -- -- -- -- -- --  -- -- -- -- -- -- -- --
0000:    5B 00 80 F8 FF FF 7F  F8 FF FF 7F 74 6C 6B 30   [..........tlk0
0010: 00                                                .               
```

#### Opcodes

```
  0: 0x0001 [0x5B] LOAD_EXT_SCHEDULER: Load scheduler "tlk0" with entities [EventEntity, EventEntity], work=337*
  1: 0x0010 [0x00] END_REQSTACK()
```

### Event 65535.2

#### Metadata

| Field        | Value    |
|--------------|----------|
| Entrypoint   | 0x0011   |
| Data Size    | 22 bytes |
| Instructions | 4        |

```
      00 01 02 03 04 05 06 07  08 09 0A 0B 0C 0D 0E 0F
      -- -- -- -- -- -- -- --  -- -- -- -- -- -- -- --
0010:    53 F8 FF FF 7F F8 FF  FF 7F 74 6C 6B 30 5E 69   S........tlk0^i
0020: 64 6C 30 1C 01 80 00                              dl0....         
```

#### Opcodes

```
  0: 0x0011 [0x53] WAIT_SCHEDULER_TASK: Wait for scheduler "tlk0" with entities [EventEntity, EventEntity]
  1: 0x001E [0x5E] EventEntity goes idle (kills current action) (animation: "idl0")
  2: 0x0023 [0x1C] WAIT(30* ticks)
  3: 0x0026 [0x00] END_REQSTACK()
```

### Event 65535.3

#### Metadata

| Field        | Value    |
|--------------|----------|
| Entrypoint   | 0x0027   |
| Data Size    | 16 bytes |
| Instructions | 2        |

```
      00 01 02 03 04 05 06 07  08 09 0A 0B 0C 0D 0E 0F
      -- -- -- -- -- -- -- --  -- -- -- -- -- -- -- --
0020:                      5B  02 80 F8 FF FF 7F F8 FF         [........
0030: FF 7F 62 69 6B 30 00                              ..bik0.         
```

#### Opcodes

```
  0: 0x0027 [0x5B] LOAD_EXT_SCHEDULER: Load scheduler "bik0" with entities [EventEntity, EventEntity], work=341*
  1: 0x0036 [0x00] END_REQSTACK()
```

### Event 65535.4

#### Metadata

| Field        | Value    |
|--------------|----------|
| Entrypoint   | 0x0037   |
| Data Size    | 22 bytes |
| Instructions | 4        |

```
      00 01 02 03 04 05 06 07  08 09 0A 0B 0C 0D 0E 0F
      -- -- -- -- -- -- -- --  -- -- -- -- -- -- -- --
0030:                      53  F8 FF FF 7F F8 FF FF 7F         S........
0040: 62 69 6B 30 5E 69 64 6C  30 1C 01 80 00           bik0^idl0....   
```

#### Opcodes

```
  0: 0x0037 [0x53] WAIT_SCHEDULER_TASK: Wait for scheduler "bik0" with entities [EventEntity, EventEntity]
  1: 0x0044 [0x5E] EventEntity goes idle (kills current action) (animation: "idl0")
  2: 0x0049 [0x1C] WAIT(30* ticks)
  3: 0x004C [0x00] END_REQSTACK()
```

### Event 65535.5

#### Metadata

| Field        | Value    |
|--------------|----------|
| Entrypoint   | 0x004D   |
| Data Size    | 27 bytes |
| Instructions | 3        |

```
      00 01 02 03 04 05 06 07  08 09 0A 0B 0C 0D 0E 0F
      -- -- -- -- -- -- -- --  -- -- -- -- -- -- -- --
0040:                                         2C F8 FF               ,..
0050: FF 7F F8 FF FF 7F 72 65  73 30 53 F8 FF FF 7F F8  ......res0S.....
0060: FF FF 7F 72 65 73 30 00                           ...res0.        
```

#### Opcodes

```
  0: 0x004D [0x2C] CREATE_SCHEDULER_TASK: Create scheduler "res0" with entities [EventEntity, EventEntity]
  1: 0x005A [0x53] WAIT_SCHEDULER_TASK: Wait for scheduler "res0" with entities [EventEntity, EventEntity]
  2: 0x0067 [0x00] END_REQSTACK()
```

### Event 65535.6

#### Metadata

| Field        | Value    |
|--------------|----------|
| Entrypoint   | 0x0068   |
| Data Size    | 27 bytes |
| Instructions | 3        |

```
      00 01 02 03 04 05 06 07  08 09 0A 0B 0C 0D 0E 0F
      -- -- -- -- -- -- -- --  -- -- -- -- -- -- -- --
0060:                          2C F8 FF FF 7F F8 FF FF          ,.......
0070: 7F 72 65 73 32 53 F8 FF  FF 7F F8 FF FF 7F 72 65  .res2S........re
0080: 73 32 00                                          s2.             
```

#### Opcodes

```
  0: 0x0068 [0x2C] CREATE_SCHEDULER_TASK: Create scheduler "res2" with entities [EventEntity, EventEntity]
  1: 0x0075 [0x53] WAIT_SCHEDULER_TASK: Wait for scheduler "res2" with entities [EventEntity, EventEntity]
  2: 0x0082 [0x00] END_REQSTACK()
```

### Event 65535.7

#### Metadata

| Field        | Value    |
|--------------|----------|
| Entrypoint   | 0x0083   |
| Data Size    | 27 bytes |
| Instructions | 3        |

```
      00 01 02 03 04 05 06 07  08 09 0A 0B 0C 0D 0E 0F
      -- -- -- -- -- -- -- --  -- -- -- -- -- -- -- --
0080:          2C F8 FF FF 7F  F8 FF FF 7F 63 6F 72 70     ,........corp
0090: 53 F8 FF FF 7F F8 FF FF  7F 63 6F 72 70 00        S........corp.  
```

#### Opcodes

```
  0: 0x0083 [0x2C] CREATE_SCHEDULER_TASK: Create scheduler "corp" with entities [EventEntity, EventEntity]
  1: 0x0090 [0x53] WAIT_SCHEDULER_TASK: Wait for scheduler "corp" with entities [EventEntity, EventEntity]
  2: 0x009D [0x00] END_REQSTACK()
```

### Event 65535.8

#### Metadata

| Field        | Value    |
|--------------|----------|
| Entrypoint   | 0x009E   |
| Data Size    | 16 bytes |
| Instructions | 2        |

```
      00 01 02 03 04 05 06 07  08 09 0A 0B 0C 0D 0E 0F
      -- -- -- -- -- -- -- --  -- -- -- -- -- -- -- --
0090:                                            5B 03                [.
00A0: 80 F8 FF FF 7F F8 FF FF  7F 6F 6B 69 72 00        .........okir.  
```

#### Opcodes

```
  0: 0x009E [0x5B] LOAD_EXT_SCHEDULER: Load scheduler "okir" with entities [EventEntity, EventEntity], work=430*
  1: 0x00AD [0x00] END_REQSTACK()
```

### Event 65535.9

#### Metadata

| Field        | Value    |
|--------------|----------|
| Entrypoint   | 0x00AE   |
| Data Size    | 14 bytes |
| Instructions | 2        |

```
      00 01 02 03 04 05 06 07  08 09 0A 0B 0C 0D 0E 0F
      -- -- -- -- -- -- -- --  -- -- -- -- -- -- -- --
00A0:                                            53 F8                S.
00B0: FF FF 7F F8 FF FF 7F 6F  6B 69 72 00              .......okir.    
```

#### Opcodes

```
  0: 0x00AE [0x53] WAIT_SCHEDULER_TASK: Wait for scheduler "okir" with entities [EventEntity, EventEntity]
  1: 0x00BB [0x00] END_REQSTACK()
```

### Event 65535.10

#### Metadata

| Field        | Value    |
|--------------|----------|
| Entrypoint   | 0x00BC   |
| Data Size    | 16 bytes |
| Instructions | 2        |

```
      00 01 02 03 04 05 06 07  08 09 0A 0B 0C 0D 0E 0F
      -- -- -- -- -- -- -- --  -- -- -- -- -- -- -- --
00B0:                                      5B 00 80 F8              [...
00C0: FF FF 7F F8 FF FF 7F 7A  69 74 30 00              .......zit0.    
```

#### Opcodes

```
  0: 0x00BC [0x5B] LOAD_EXT_SCHEDULER: Load scheduler "zit0" with entities [EventEntity, EventEntity], work=337*
  1: 0x00CB [0x00] END_REQSTACK()
```

### Event 65535.11

#### Metadata

| Field        | Value    |
|--------------|----------|
| Entrypoint   | 0x00CC   |
| Data Size    | 14 bytes |
| Instructions | 2        |

```
      00 01 02 03 04 05 06 07  08 09 0A 0B 0C 0D 0E 0F
      -- -- -- -- -- -- -- --  -- -- -- -- -- -- -- --
00C0:                                      53 F8 FF FF              S...
00D0: 7F F8 FF FF 7F 7A 69 74  30 00                    .....zit0.      
```

#### Opcodes

```
  0: 0x00CC [0x53] WAIT_SCHEDULER_TASK: Wait for scheduler "zit0" with entities [EventEntity, EventEntity]
  1: 0x00D9 [0x00] END_REQSTACK()
```

### Event 65535.12

#### Metadata

| Field        | Value    |
|--------------|----------|
| Entrypoint   | 0x00DA   |
| Data Size    | 16 bytes |
| Instructions | 2        |

```
      00 01 02 03 04 05 06 07  08 09 0A 0B 0C 0D 0E 0F
      -- -- -- -- -- -- -- --  -- -- -- -- -- -- -- --
00D0:                                5B 00 80 F8 FF FF            [.....
00E0: 7F F8 FF FF 7F 77 61 69  30 00                    .....wai0.      
```

#### Opcodes

```
  0: 0x00DA [0x5B] LOAD_EXT_SCHEDULER: Load scheduler "wai0" with entities [EventEntity, EventEntity], work=337*
  1: 0x00E9 [0x00] END_REQSTACK()
```

### Event 65535.13

#### Metadata

| Field        | Value    |
|--------------|----------|
| Entrypoint   | 0x00EA   |
| Data Size    | 14 bytes |
| Instructions | 2        |

```
      00 01 02 03 04 05 06 07  08 09 0A 0B 0C 0D 0E 0F
      -- -- -- -- -- -- -- --  -- -- -- -- -- -- -- --
00E0:                                53 F8 FF FF 7F F8            S.....
00F0: FF FF 7F 77 61 69 30 00                           ...wai0.        
```

#### Opcodes

```
  0: 0x00EA [0x53] WAIT_SCHEDULER_TASK: Wait for scheduler "wai0" with entities [EventEntity, EventEntity]
  1: 0x00F7 [0x00] END_REQSTACK()
```

### Event 65535.14

#### Metadata

| Field        | Value    |
|--------------|----------|
| Entrypoint   | 0x00F8   |
| Data Size    | 16 bytes |
| Instructions | 2        |

```
      00 01 02 03 04 05 06 07  08 09 0A 0B 0C 0D 0E 0F
      -- -- -- -- -- -- -- --  -- -- -- -- -- -- -- --
00F0:                          5B 00 80 F8 FF FF 7F F8          [.......
0100: FF FF 7F 64 69 73 30 00                           ...dis0.        
```

#### Opcodes

```
  0: 0x00F8 [0x5B] LOAD_EXT_SCHEDULER: Load scheduler "dis0" with entities [EventEntity, EventEntity], work=337*
  1: 0x0107 [0x00] END_REQSTACK()
```

### Event 65535.15

#### Metadata

| Field        | Value    |
|--------------|----------|
| Entrypoint   | 0x0108   |
| Data Size    | 14 bytes |
| Instructions | 2        |

```
      00 01 02 03 04 05 06 07  08 09 0A 0B 0C 0D 0E 0F
      -- -- -- -- -- -- -- --  -- -- -- -- -- -- -- --
0100:                          53 F8 FF FF 7F F8 FF FF          S.......
0110: 7F 64 69 73 30 00                                 .dis0.          
```

#### Opcodes

```
  0: 0x0108 [0x53] WAIT_SCHEDULER_TASK: Wait for scheduler "dis0" with entities [EventEntity, EventEntity]
  1: 0x0115 [0x00] END_REQSTACK()
```

### Event 65535.16

#### Metadata

| Field        | Value    |
|--------------|----------|
| Entrypoint   | 0x0116   |
| Data Size    | 16 bytes |
| Instructions | 2        |

```
      00 01 02 03 04 05 06 07  08 09 0A 0B 0C 0D 0E 0F
      -- -- -- -- -- -- -- --  -- -- -- -- -- -- -- --
0110:                   5B 00  80 F8 FF FF 7F F8 FF FF        [.........
0120: 7F 67 6B 72 30 00                                 .gkr0.          
```

#### Opcodes

```
  0: 0x0116 [0x5B] LOAD_EXT_SCHEDULER: Load scheduler "gkr0" with entities [EventEntity, EventEntity], work=337*
  1: 0x0125 [0x00] END_REQSTACK()
```

### Event 65535.17

#### Metadata

| Field        | Value    |
|--------------|----------|
| Entrypoint   | 0x0126   |
| Data Size    | 22 bytes |
| Instructions | 4        |

```
      00 01 02 03 04 05 06 07  08 09 0A 0B 0C 0D 0E 0F
      -- -- -- -- -- -- -- --  -- -- -- -- -- -- -- --
0120:                   53 F8  FF FF 7F F8 FF FF 7F 67        S........g
0130: 6B 72 30 5E 69 64 6C 30  1C 01 80 00              kr0^idl0....    
```

#### Opcodes

```
  0: 0x0126 [0x53] WAIT_SCHEDULER_TASK: Wait for scheduler "gkr0" with entities [EventEntity, EventEntity]
  1: 0x0133 [0x5E] EventEntity goes idle (kills current action) (animation: "idl0")
  2: 0x0138 [0x1C] WAIT(30* ticks)
  3: 0x013B [0x00] END_REQSTACK()
```

### Event 65535.18

#### Metadata

| Field        | Value    |
|--------------|----------|
| Entrypoint   | 0x013C   |
| Data Size    | 16 bytes |
| Instructions | 2        |

```
      00 01 02 03 04 05 06 07  08 09 0A 0B 0C 0D 0E 0F
      -- -- -- -- -- -- -- --  -- -- -- -- -- -- -- --
0130:                                      5B 04 80 F8              [...
0140: FF FF 7F F8 FF FF 7F 73  68 6B 30 00              .......shk0.    
```

#### Opcodes

```
  0: 0x013C [0x5B] LOAD_EXT_SCHEDULER: Load scheduler "shk0" with entities [EventEntity, EventEntity], work=339*
  1: 0x014B [0x00] END_REQSTACK()
```

### Event 65535.19

#### Metadata

| Field        | Value    |
|--------------|----------|
| Entrypoint   | 0x014C   |
| Data Size    | 14 bytes |
| Instructions | 2        |

```
      00 01 02 03 04 05 06 07  08 09 0A 0B 0C 0D 0E 0F
      -- -- -- -- -- -- -- --  -- -- -- -- -- -- -- --
0140:                                      53 F8 FF FF              S...
0150: 7F F8 FF FF 7F 73 68 6B  30 00                    .....shk0.      
```

#### Opcodes

```
  0: 0x014C [0x53] WAIT_SCHEDULER_TASK: Wait for scheduler "shk0" with entities [EventEntity, EventEntity]
  1: 0x0159 [0x00] END_REQSTACK()
```

### Event 65535.20

#### Metadata

| Field        | Value    |
|--------------|----------|
| Entrypoint   | 0x015A   |
| Data Size    | 16 bytes |
| Instructions | 2        |

```
      00 01 02 03 04 05 06 07  08 09 0A 0B 0C 0D 0E 0F
      -- -- -- -- -- -- -- --  -- -- -- -- -- -- -- --
0150:                                5B 00 80 F8 FF FF            [.....
0160: 7F F8 FF FF 7F 73 79 75  30 00                    .....syu0.      
```

#### Opcodes

```
  0: 0x015A [0x5B] LOAD_EXT_SCHEDULER: Load scheduler "syu0" with entities [EventEntity, EventEntity], work=337*
  1: 0x0169 [0x00] END_REQSTACK()
```

### Event 65535.21

#### Metadata

| Field        | Value    |
|--------------|----------|
| Entrypoint   | 0x016A   |
| Data Size    | 14 bytes |
| Instructions | 2        |

```
      00 01 02 03 04 05 06 07  08 09 0A 0B 0C 0D 0E 0F
      -- -- -- -- -- -- -- --  -- -- -- -- -- -- -- --
0160:                                53 F8 FF FF 7F F8            S.....
0170: FF FF 7F 73 79 75 30 00                           ...syu0.        
```

#### Opcodes

```
  0: 0x016A [0x53] WAIT_SCHEDULER_TASK: Wait for scheduler "syu0" with entities [EventEntity, EventEntity]
  1: 0x0177 [0x00] END_REQSTACK()
```

### Event 65535.22

#### Metadata

| Field        | Value    |
|--------------|----------|
| Entrypoint   | 0x0178   |
| Data Size    | 16 bytes |
| Instructions | 2        |

```
      00 01 02 03 04 05 06 07  08 09 0A 0B 0C 0D 0E 0F
      -- -- -- -- -- -- -- --  -- -- -- -- -- -- -- --
0170:                          5B 05 80 F8 FF FF 7F F8          [.......
0180: FF FF 7F 63 61 62 6B 00                           ...cabk.        
```

#### Opcodes

```
  0: 0x0178 [0x5B] LOAD_EXT_SCHEDULER: Load scheduler "cabk" with entities [EventEntity, EventEntity], work=343*
  1: 0x0187 [0x00] END_REQSTACK()
```

### Event 65535.23

#### Metadata

| Field        | Value    |
|--------------|----------|
| Entrypoint   | 0x0188   |
| Data Size    | 14 bytes |
| Instructions | 2        |

```
      00 01 02 03 04 05 06 07  08 09 0A 0B 0C 0D 0E 0F
      -- -- -- -- -- -- -- --  -- -- -- -- -- -- -- --
0180:                          53 F8 FF FF 7F F8 FF FF          S.......
0190: 7F 63 61 62 6B 00                                 .cabk.          
```

#### Opcodes

```
  0: 0x0188 [0x53] WAIT_SCHEDULER_TASK: Wait for scheduler "cabk" with entities [EventEntity, EventEntity]
  1: 0x0195 [0x00] END_REQSTACK()
```

### Event 65535.24

#### Metadata

| Field        | Value    |
|--------------|----------|
| Entrypoint   | 0x0196   |
| Data Size    | 16 bytes |
| Instructions | 2        |

```
      00 01 02 03 04 05 06 07  08 09 0A 0B 0C 0D 0E 0F
      -- -- -- -- -- -- -- --  -- -- -- -- -- -- -- --
0190:                   5B 05  80 F8 FF FF 7F F8 FF FF        [.........
01A0: 7F 73 68 62 6B 00                                 .shbk.          
```

#### Opcodes

```
  0: 0x0196 [0x5B] LOAD_EXT_SCHEDULER: Load scheduler "shbk" with entities [EventEntity, EventEntity], work=343*
  1: 0x01A5 [0x00] END_REQSTACK()
```

### Event 65535.25

#### Metadata

| Field        | Value    |
|--------------|----------|
| Entrypoint   | 0x01A6   |
| Data Size    | 14 bytes |
| Instructions | 2        |

```
      00 01 02 03 04 05 06 07  08 09 0A 0B 0C 0D 0E 0F
      -- -- -- -- -- -- -- --  -- -- -- -- -- -- -- --
01A0:                   53 F8  FF FF 7F F8 FF FF 7F 73        S........s
01B0: 68 62 6B 00                                       hbk.            
```

#### Opcodes

```
  0: 0x01A6 [0x53] WAIT_SCHEDULER_TASK: Wait for scheduler "shbk" with entities [EventEntity, EventEntity]
  1: 0x01B3 [0x00] END_REQSTACK()
```

### Event 65535.26

#### Metadata

| Field        | Value    |
|--------------|----------|
| Entrypoint   | 0x01B4   |
| Data Size    | 34 bytes |
| Instructions | 4        |

```
      00 01 02 03 04 05 06 07  08 09 0A 0B 0C 0D 0E 0F
      -- -- -- -- -- -- -- --  -- -- -- -- -- -- -- --
01B0:             5B 05 80 F8  FF FF 7F F8 FF FF 7F 73      [..........s
01C0: 70 65 66 53 F8 FF FF 7F  F8 FF FF 7F 73 70 65 66  pefS........spef
01D0: 5E 69 64 6C 30 00                                 ^idl0.          
```

#### Opcodes

```
  0: 0x01B4 [0x5B] LOAD_EXT_SCHEDULER: Load scheduler "spef" with entities [EventEntity, EventEntity], work=343*
  1: 0x01C3 [0x53] WAIT_SCHEDULER_TASK: Wait for scheduler "spef" with entities [EventEntity, EventEntity]
  2: 0x01D0 [0x5E] EventEntity goes idle (kills current action) (animation: "idl0")
  3: 0x01D5 [0x00] END_REQSTACK()
```

### Event 65535.27

#### Metadata

| Field        | Value    |
|--------------|----------|
| Entrypoint   | 0x01D6   |
| Data Size    | 16 bytes |
| Instructions | 2        |

```
      00 01 02 03 04 05 06 07  08 09 0A 0B 0C 0D 0E 0F
      -- -- -- -- -- -- -- --  -- -- -- -- -- -- -- --
01D0:                   5B 00  80 F8 FF FF 7F F8 FF FF        [.........
01E0: 7F 6D 6F 6A 30 00                                 .moj0.          
```

#### Opcodes

```
  0: 0x01D6 [0x5B] LOAD_EXT_SCHEDULER: Load scheduler "moj0" with entities [EventEntity, EventEntity], work=337*
  1: 0x01E5 [0x00] END_REQSTACK()
```

### Event 65535.28

#### Metadata

| Field        | Value    |
|--------------|----------|
| Entrypoint   | 0x01E6   |
| Data Size    | 14 bytes |
| Instructions | 2        |

```
      00 01 02 03 04 05 06 07  08 09 0A 0B 0C 0D 0E 0F
      -- -- -- -- -- -- -- --  -- -- -- -- -- -- -- --
01E0:                   53 F8  FF FF 7F F8 FF FF 7F 6D        S........m
01F0: 6F 6A 30 00                                       oj0.            
```

#### Opcodes

```
  0: 0x01E6 [0x53] WAIT_SCHEDULER_TASK: Wait for scheduler "moj0" with entities [EventEntity, EventEntity]
  1: 0x01F3 [0x00] END_REQSTACK()
```

### Event 65535.29

#### Metadata

| Field        | Value    |
|--------------|----------|
| Entrypoint   | 0x01F4   |
| Data Size    | 16 bytes |
| Instructions | 2        |

```
      00 01 02 03 04 05 06 07  08 09 0A 0B 0C 0D 0E 0F
      -- -- -- -- -- -- -- --  -- -- -- -- -- -- -- --
01F0:             5B 00 80 F8  FF FF 7F F8 FF FF 7F 6F      [..........o
0200: 62 69 30 00                                       bi0.            
```

#### Opcodes

```
  0: 0x01F4 [0x5B] LOAD_EXT_SCHEDULER: Load scheduler "obi0" with entities [EventEntity, EventEntity], work=337*
  1: 0x0203 [0x00] END_REQSTACK()
```

### Event 65535.30

#### Metadata

| Field        | Value    |
|--------------|----------|
| Entrypoint   | 0x0204   |
| Data Size    | 14 bytes |
| Instructions | 2        |

```
      00 01 02 03 04 05 06 07  08 09 0A 0B 0C 0D 0E 0F
      -- -- -- -- -- -- -- --  -- -- -- -- -- -- -- --
0200:             53 F8 FF FF  7F F8 FF FF 7F 6F 62 69      S........obi
0210: 30 00                                             0.              
```

#### Opcodes

```
  0: 0x0204 [0x53] WAIT_SCHEDULER_TASK: Wait for scheduler "obi0" with entities [EventEntity, EventEntity]
  1: 0x0211 [0x00] END_REQSTACK()
```

### Event 65535.31

#### Metadata

| Field        | Value    |
|--------------|----------|
| Entrypoint   | 0x0212   |
| Data Size    | 16 bytes |
| Instructions | 2        |

```
      00 01 02 03 04 05 06 07  08 09 0A 0B 0C 0D 0E 0F
      -- -- -- -- -- -- -- --  -- -- -- -- -- -- -- --
0210:       5B 00 80 F8 FF FF  7F F8 FF FF 7F 6F 62 69    [..........obi
0220: 31 00                                             1.              
```

#### Opcodes

```
  0: 0x0212 [0x5B] LOAD_EXT_SCHEDULER: Load scheduler "obi1" with entities [EventEntity, EventEntity], work=337*
  1: 0x0221 [0x00] END_REQSTACK()
```

### Event 65535.32

#### Metadata

| Field        | Value    |
|--------------|----------|
| Entrypoint   | 0x0222   |
| Data Size    | 14 bytes |
| Instructions | 2        |

```
      00 01 02 03 04 05 06 07  08 09 0A 0B 0C 0D 0E 0F
      -- -- -- -- -- -- -- --  -- -- -- -- -- -- -- --
0220:       53 F8 FF FF 7F F8  FF FF 7F 6F 62 69 31 00    S........obi1.
```

#### Opcodes

```
  0: 0x0222 [0x53] WAIT_SCHEDULER_TASK: Wait for scheduler "obi1" with entities [EventEntity, EventEntity]
  1: 0x022F [0x00] END_REQSTACK()
```

### Event 65535.33

#### Metadata

| Field        | Value    |
|--------------|----------|
| Entrypoint   | 0x0230   |
| Data Size    | 16 bytes |
| Instructions | 2        |

```
      00 01 02 03 04 05 06 07  08 09 0A 0B 0C 0D 0E 0F
      -- -- -- -- -- -- -- --  -- -- -- -- -- -- -- --
0230: 5B 00 80 F8 FF FF 7F F8  FF FF 7F 74 68 6B 31 00  [..........thk1.
```

#### Opcodes

```
  0: 0x0230 [0x5B] LOAD_EXT_SCHEDULER: Load scheduler "thk1" with entities [EventEntity, EventEntity], work=337*
  1: 0x023F [0x00] END_REQSTACK()
```

### Event 65535.34

#### Metadata

| Field        | Value    |
|--------------|----------|
| Entrypoint   | 0x0240   |
| Data Size    | 14 bytes |
| Instructions | 2        |

```
      00 01 02 03 04 05 06 07  08 09 0A 0B 0C 0D 0E 0F
      -- -- -- -- -- -- -- --  -- -- -- -- -- -- -- --
0240: 53 F8 FF FF 7F F8 FF FF  7F 74 68 6B 31 00        S........thk1.  
```

#### Opcodes

```
  0: 0x0240 [0x53] WAIT_SCHEDULER_TASK: Wait for scheduler "thk1" with entities [EventEntity, EventEntity]
  1: 0x024D [0x00] END_REQSTACK()
```

### Event 65535.35

#### Metadata

| Field        | Value    |
|--------------|----------|
| Entrypoint   | 0x024E   |
| Data Size    | 16 bytes |
| Instructions | 2        |

```
      00 01 02 03 04 05 06 07  08 09 0A 0B 0C 0D 0E 0F
      -- -- -- -- -- -- -- --  -- -- -- -- -- -- -- --
0240:                                            5B 00                [.
0250: 80 F8 FF FF 7F F8 FF FF  7F 74 68 6B 32 00        .........thk2.  
```

#### Opcodes

```
  0: 0x024E [0x5B] LOAD_EXT_SCHEDULER: Load scheduler "thk2" with entities [EventEntity, EventEntity], work=337*
  1: 0x025D [0x00] END_REQSTACK()
```

### Event 65535.36

#### Metadata

| Field        | Value    |
|--------------|----------|
| Entrypoint   | 0x025E   |
| Data Size    | 14 bytes |
| Instructions | 2        |

```
      00 01 02 03 04 05 06 07  08 09 0A 0B 0C 0D 0E 0F
      -- -- -- -- -- -- -- --  -- -- -- -- -- -- -- --
0250:                                            53 F8                S.
0260: FF FF 7F F8 FF FF 7F 74  68 6B 32 00              .......thk2.    
```

#### Opcodes

```
  0: 0x025E [0x53] WAIT_SCHEDULER_TASK: Wait for scheduler "thk2" with entities [EventEntity, EventEntity]
  1: 0x026B [0x00] END_REQSTACK()
```

### Event 65535.37

#### Metadata

| Field        | Value    |
|--------------|----------|
| Entrypoint   | 0x026C   |
| Data Size    | 16 bytes |
| Instructions | 2        |

```
      00 01 02 03 04 05 06 07  08 09 0A 0B 0C 0D 0E 0F
      -- -- -- -- -- -- -- --  -- -- -- -- -- -- -- --
0260:                                      5B 06 80 F8              [...
0270: FF FF 7F F8 FF FF 7F 73  69 74 30 00              .......sit0.    
```

#### Opcodes

```
  0: 0x026C [0x5B] LOAD_EXT_SCHEDULER: Load scheduler "sit0" with entities [EventEntity, EventEntity], work=353*
  1: 0x027B [0x00] END_REQSTACK()
```

### Event 65535.38

#### Metadata

| Field        | Value    |
|--------------|----------|
| Entrypoint   | 0x027C   |
| Data Size    | 14 bytes |
| Instructions | 2        |

```
      00 01 02 03 04 05 06 07  08 09 0A 0B 0C 0D 0E 0F
      -- -- -- -- -- -- -- --  -- -- -- -- -- -- -- --
0270:                                      53 F8 FF FF              S...
0280: 7F F8 FF FF 7F 73 69 74  30 00                    .....sit0.      
```

#### Opcodes

```
  0: 0x027C [0x53] WAIT_SCHEDULER_TASK: Wait for scheduler "sit0" with entities [EventEntity, EventEntity]
  1: 0x0289 [0x00] END_REQSTACK()
```

### Event 65535.39

#### Metadata

| Field        | Value    |
|--------------|----------|
| Entrypoint   | 0x028A   |
| Data Size    | 16 bytes |
| Instructions | 2        |

```
      00 01 02 03 04 05 06 07  08 09 0A 0B 0C 0D 0E 0F
      -- -- -- -- -- -- -- --  -- -- -- -- -- -- -- --
0280:                                5B 04 80 F8 FF FF            [.....
0290: 7F F8 FF FF 7F 6D 75 75  30 00                    .....muu0.      
```

#### Opcodes

```
  0: 0x028A [0x5B] LOAD_EXT_SCHEDULER: Load scheduler "muu0" with entities [EventEntity, EventEntity], work=339*
  1: 0x0299 [0x00] END_REQSTACK()
```

### Event 65535.40

#### Metadata

| Field        | Value    |
|--------------|----------|
| Entrypoint   | 0x029A   |
| Data Size    | 14 bytes |
| Instructions | 2        |

```
      00 01 02 03 04 05 06 07  08 09 0A 0B 0C 0D 0E 0F
      -- -- -- -- -- -- -- --  -- -- -- -- -- -- -- --
0290:                                53 F8 FF FF 7F F8            S.....
02A0: FF FF 7F 6D 75 75 30 00                           ...muu0.        
```

#### Opcodes

```
  0: 0x029A [0x53] WAIT_SCHEDULER_TASK: Wait for scheduler "muu0" with entities [EventEntity, EventEntity]
  1: 0x02A7 [0x00] END_REQSTACK()
```

### Event 65535.41

#### Metadata

| Field        | Value    |
|--------------|----------|
| Entrypoint   | 0x02A8   |
| Data Size    | 16 bytes |
| Instructions | 2        |

```
      00 01 02 03 04 05 06 07  08 09 0A 0B 0C 0D 0E 0F
      -- -- -- -- -- -- -- --  -- -- -- -- -- -- -- --
02A0:                          5B 04 80 F8 FF FF 7F F8          [.......
02B0: FF FF 7F 65 68 6E 30 00                           ...ehn0.        
```

#### Opcodes

```
  0: 0x02A8 [0x5B] LOAD_EXT_SCHEDULER: Load scheduler "ehn0" with entities [EventEntity, EventEntity], work=339*
  1: 0x02B7 [0x00] END_REQSTACK()
```

### Event 65535.42

#### Metadata

| Field        | Value    |
|--------------|----------|
| Entrypoint   | 0x02B8   |
| Data Size    | 14 bytes |
| Instructions | 2        |

```
      00 01 02 03 04 05 06 07  08 09 0A 0B 0C 0D 0E 0F
      -- -- -- -- -- -- -- --  -- -- -- -- -- -- -- --
02B0:                          53 F8 FF FF 7F F8 FF FF          S.......
02C0: 7F 65 68 6E 30 00                                 .ehn0.          
```

#### Opcodes

```
  0: 0x02B8 [0x53] WAIT_SCHEDULER_TASK: Wait for scheduler "ehn0" with entities [EventEntity, EventEntity]
  1: 0x02C5 [0x00] END_REQSTACK()
```

### Event 65535.43

#### Metadata

| Field        | Value    |
|--------------|----------|
| Entrypoint   | 0x02C6   |
| Data Size    | 16 bytes |
| Instructions | 2        |

```
      00 01 02 03 04 05 06 07  08 09 0A 0B 0C 0D 0E 0F
      -- -- -- -- -- -- -- --  -- -- -- -- -- -- -- --
02C0:                   5B 04  80 F8 FF FF 7F F8 FF FF        [.........
02D0: 7F 65 68 6E 31 00                                 .ehn1.          
```

#### Opcodes

```
  0: 0x02C6 [0x5B] LOAD_EXT_SCHEDULER: Load scheduler "ehn1" with entities [EventEntity, EventEntity], work=339*
  1: 0x02D5 [0x00] END_REQSTACK()
```

### Event 65535.44

#### Metadata

| Field        | Value    |
|--------------|----------|
| Entrypoint   | 0x02D6   |
| Data Size    | 14 bytes |
| Instructions | 2        |

```
      00 01 02 03 04 05 06 07  08 09 0A 0B 0C 0D 0E 0F
      -- -- -- -- -- -- -- --  -- -- -- -- -- -- -- --
02D0:                   53 F8  FF FF 7F F8 FF FF 7F 65        S........e
02E0: 68 6E 31 00                                       hn1.            
```

#### Opcodes

```
  0: 0x02D6 [0x53] WAIT_SCHEDULER_TASK: Wait for scheduler "ehn1" with entities [EventEntity, EventEntity]
  1: 0x02E3 [0x00] END_REQSTACK()
```

### Event 65535.45

#### Metadata

| Field        | Value    |
|--------------|----------|
| Entrypoint   | 0x02E4   |
| Data Size    | 16 bytes |
| Instructions | 2        |

```
      00 01 02 03 04 05 06 07  08 09 0A 0B 0C 0D 0E 0F
      -- -- -- -- -- -- -- --  -- -- -- -- -- -- -- --
02E0:             5B 07 80 F8  FF FF 7F F8 FF FF 7F 75      [..........u
02F0: 73 69 30 00                                       si0.            
```

#### Opcodes

```
  0: 0x02E4 [0x5B] LOAD_EXT_SCHEDULER: Load scheduler "usi0" with entities [EventEntity, EventEntity], work=431*
  1: 0x02F3 [0x00] END_REQSTACK()
```

### Event 65535.46

#### Metadata

| Field        | Value    |
|--------------|----------|
| Entrypoint   | 0x02F4   |
| Data Size    | 14 bytes |
| Instructions | 2        |

```
      00 01 02 03 04 05 06 07  08 09 0A 0B 0C 0D 0E 0F
      -- -- -- -- -- -- -- --  -- -- -- -- -- -- -- --
02F0:             53 F8 FF FF  7F F8 FF FF 7F 75 73 69      S........usi
0300: 30 00                                             0.              
```

#### Opcodes

```
  0: 0x02F4 [0x53] WAIT_SCHEDULER_TASK: Wait for scheduler "usi0" with entities [EventEntity, EventEntity]
  1: 0x0301 [0x00] END_REQSTACK()
```

### Event 65535.47

#### Metadata

| Field        | Value    |
|--------------|----------|
| Entrypoint   | 0x0302   |
| Data Size    | 16 bytes |
| Instructions | 2        |

```
      00 01 02 03 04 05 06 07  08 09 0A 0B 0C 0D 0E 0F
      -- -- -- -- -- -- -- --  -- -- -- -- -- -- -- --
0300:       5B 07 80 F8 FF FF  7F F8 FF FF 7F 75 73 69    [..........usi
0310: 31 00                                             1.              
```

#### Opcodes

```
  0: 0x0302 [0x5B] LOAD_EXT_SCHEDULER: Load scheduler "usi1" with entities [EventEntity, EventEntity], work=431*
  1: 0x0311 [0x00] END_REQSTACK()
```

### Event 65535.48

#### Metadata

| Field        | Value    |
|--------------|----------|
| Entrypoint   | 0x0312   |
| Data Size    | 14 bytes |
| Instructions | 2        |

```
      00 01 02 03 04 05 06 07  08 09 0A 0B 0C 0D 0E 0F
      -- -- -- -- -- -- -- --  -- -- -- -- -- -- -- --
0310:       53 F8 FF FF 7F F8  FF FF 7F 75 73 69 31 00    S........usi1.
```

#### Opcodes

```
  0: 0x0312 [0x53] WAIT_SCHEDULER_TASK: Wait for scheduler "usi1" with entities [EventEntity, EventEntity]
  1: 0x031F [0x00] END_REQSTACK()
```

### Event 65535.49

#### Metadata

| Field        | Value    |
|--------------|----------|
| Entrypoint   | 0x0320   |
| Data Size    | 16 bytes |
| Instructions | 2        |

```
      00 01 02 03 04 05 06 07  08 09 0A 0B 0C 0D 0E 0F
      -- -- -- -- -- -- -- --  -- -- -- -- -- -- -- --
0320: 5B 07 80 F8 FF FF 7F F8  FF FF 7F 64 66 63 30 00  [..........dfc0.
```

#### Opcodes

```
  0: 0x0320 [0x5B] LOAD_EXT_SCHEDULER: Load scheduler "dfc0" with entities [EventEntity, EventEntity], work=431*
  1: 0x032F [0x00] END_REQSTACK()
```

### Event 65535.50

#### Metadata

| Field        | Value    |
|--------------|----------|
| Entrypoint   | 0x0330   |
| Data Size    | 14 bytes |
| Instructions | 2        |

```
      00 01 02 03 04 05 06 07  08 09 0A 0B 0C 0D 0E 0F
      -- -- -- -- -- -- -- --  -- -- -- -- -- -- -- --
0330: 53 F8 FF FF 7F F8 FF FF  7F 64 66 63 30 00        S........dfc0.  
```

#### Opcodes

```
  0: 0x0330 [0x53] WAIT_SCHEDULER_TASK: Wait for scheduler "dfc0" with entities [EventEntity, EventEntity]
  1: 0x033D [0x00] END_REQSTACK()
```

### Event 65535.51

#### Metadata

| Field        | Value    |
|--------------|----------|
| Entrypoint   | 0x033E   |
| Data Size    | 16 bytes |
| Instructions | 2        |

```
      00 01 02 03 04 05 06 07  08 09 0A 0B 0C 0D 0E 0F
      -- -- -- -- -- -- -- --  -- -- -- -- -- -- -- --
0330:                                            5B 07                [.
0340: 80 F8 FF FF 7F F8 FF FF  7F 64 66 63 31 00        .........dfc1.  
```

#### Opcodes

```
  0: 0x033E [0x5B] LOAD_EXT_SCHEDULER: Load scheduler "dfc1" with entities [EventEntity, EventEntity], work=431*
  1: 0x034D [0x00] END_REQSTACK()
```

### Event 65535.52

#### Metadata

| Field        | Value    |
|--------------|----------|
| Entrypoint   | 0x034E   |
| Data Size    | 14 bytes |
| Instructions | 2        |

```
      00 01 02 03 04 05 06 07  08 09 0A 0B 0C 0D 0E 0F
      -- -- -- -- -- -- -- --  -- -- -- -- -- -- -- --
0340:                                            53 F8                S.
0350: FF FF 7F F8 FF FF 7F 64  66 63 31 00              .......dfc1.    
```

#### Opcodes

```
  0: 0x034E [0x53] WAIT_SCHEDULER_TASK: Wait for scheduler "dfc1" with entities [EventEntity, EventEntity]
  1: 0x035B [0x00] END_REQSTACK()
```

### Event 65535.53

#### Metadata

| Field        | Value    |
|--------------|----------|
| Entrypoint   | 0x035C   |
| Data Size    | 22 bytes |
| Instructions | 3        |

```
      00 01 02 03 04 05 06 07  08 09 0A 0B 0C 0D 0E 0F
      -- -- -- -- -- -- -- --  -- -- -- -- -- -- -- --
0350:                                      5B 08 80 F8              [...
0360: FF FF 7F F8 FF FF 7F 77  6C 6B 63 81 01 F8 FF FF  .......wlkc.....
0370: 7F 00                                             ..              
```

#### Opcodes

```
  0: 0x035C [0x5B] LOAD_EXT_SCHEDULER: Load scheduler "wlkc" with entities [EventEntity, EventEntity], work=432*
  1: 0x036B [0x81] SET_ENTITY_BLINKING(blink_flag=0x01, entity=EventEntity)
  2: 0x0371 [0x00] END_REQSTACK()
```

### Event 65535.54

#### Metadata

| Field        | Value    |
|--------------|----------|
| Entrypoint   | 0x0372   |
| Data Size    | 14 bytes |
| Instructions | 2        |

```
      00 01 02 03 04 05 06 07  08 09 0A 0B 0C 0D 0E 0F
      -- -- -- -- -- -- -- --  -- -- -- -- -- -- -- --
0370:       53 F8 FF FF 7F F8  FF FF 7F 77 6C 6B 63 00    S........wlkc.
```

#### Opcodes

```
  0: 0x0372 [0x53] WAIT_SCHEDULER_TASK: Wait for scheduler "wlkc" with entities [EventEntity, EventEntity]
  1: 0x037F [0x00] END_REQSTACK()
```

### Event 65535.55

#### Metadata

| Field        | Value    |
|--------------|----------|
| Entrypoint   | 0x0380   |
| Data Size    | 22 bytes |
| Instructions | 3        |

```
      00 01 02 03 04 05 06 07  08 09 0A 0B 0C 0D 0E 0F
      -- -- -- -- -- -- -- --  -- -- -- -- -- -- -- --
0380: 81 00 F8 FF FF 7F 5B 08  80 F8 FF FF 7F F8 FF FF  ......[.........
0390: 7F 63 72 79 30 00                                 .cry0.          
```

#### Opcodes

```
  0: 0x0380 [0x81] SET_ENTITY_BLINKING(blink_flag=0x00, entity=EventEntity)
  1: 0x0386 [0x5B] LOAD_EXT_SCHEDULER: Load scheduler "cry0" with entities [EventEntity, EventEntity], work=432*
  2: 0x0395 [0x00] END_REQSTACK()
```

### Event 65535.56

#### Metadata

| Field        | Value    |
|--------------|----------|
| Entrypoint   | 0x0396   |
| Data Size    | 14 bytes |
| Instructions | 2        |

```
      00 01 02 03 04 05 06 07  08 09 0A 0B 0C 0D 0E 0F
      -- -- -- -- -- -- -- --  -- -- -- -- -- -- -- --
0390:                   53 F8  FF FF 7F F8 FF FF 7F 63        S........c
03A0: 72 79 30 00                                       ry0.            
```

#### Opcodes

```
  0: 0x0396 [0x53] WAIT_SCHEDULER_TASK: Wait for scheduler "cry0" with entities [EventEntity, EventEntity]
  1: 0x03A3 [0x00] END_REQSTACK()
```

### Event 65535.57

#### Metadata

| Field        | Value    |
|--------------|----------|
| Entrypoint   | 0x03A4   |
| Data Size    | 16 bytes |
| Instructions | 2        |

```
      00 01 02 03 04 05 06 07  08 09 0A 0B 0C 0D 0E 0F
      -- -- -- -- -- -- -- --  -- -- -- -- -- -- -- --
03A0:             5B 08 80 F8  FF FF 7F F8 FF FF 7F 6E      [..........n
03B0: 6F 30 30 00                                       o00.            
```

#### Opcodes

```
  0: 0x03A4 [0x5B] LOAD_EXT_SCHEDULER: Load scheduler "no00" with entities [EventEntity, EventEntity], work=432*
  1: 0x03B3 [0x00] END_REQSTACK()
```

### Event 65535.58

#### Metadata

| Field        | Value    |
|--------------|----------|
| Entrypoint   | 0x03B4   |
| Data Size    | 14 bytes |
| Instructions | 2        |

```
      00 01 02 03 04 05 06 07  08 09 0A 0B 0C 0D 0E 0F
      -- -- -- -- -- -- -- --  -- -- -- -- -- -- -- --
03B0:             53 F8 FF FF  7F F8 FF FF 7F 6E 6F 30      S........no0
03C0: 30 00                                             0.              
```

#### Opcodes

```
  0: 0x03B4 [0x53] WAIT_SCHEDULER_TASK: Wait for scheduler "no00" with entities [EventEntity, EventEntity]
  1: 0x03C1 [0x00] END_REQSTACK()
```

### Event 65535.59

#### Metadata

| Field        | Value    |
|--------------|----------|
| Entrypoint   | 0x03C2   |
| Data Size    | 16 bytes |
| Instructions | 2        |

```
      00 01 02 03 04 05 06 07  08 09 0A 0B 0C 0D 0E 0F
      -- -- -- -- -- -- -- --  -- -- -- -- -- -- -- --
03C0:       5B 08 80 F8 FF FF  7F F8 FF FF 7F 79 65 73    [..........yes
03D0: 30 00                                             0.              
```

#### Opcodes

```
  0: 0x03C2 [0x5B] LOAD_EXT_SCHEDULER: Load scheduler "yes0" with entities [EventEntity, EventEntity], work=432*
  1: 0x03D1 [0x00] END_REQSTACK()
```

### Event 65535.60

#### Metadata

| Field        | Value    |
|--------------|----------|
| Entrypoint   | 0x03D2   |
| Data Size    | 14 bytes |
| Instructions | 2        |

```
      00 01 02 03 04 05 06 07  08 09 0A 0B 0C 0D 0E 0F
      -- -- -- -- -- -- -- --  -- -- -- -- -- -- -- --
03D0:       53 F8 FF FF 7F F8  FF FF 7F 79 65 73 30 00    S........yes0.
```

#### Opcodes

```
  0: 0x03D2 [0x53] WAIT_SCHEDULER_TASK: Wait for scheduler "yes0" with entities [EventEntity, EventEntity]
  1: 0x03DF [0x00] END_REQSTACK()
```

### Event 65535.61

#### Metadata

| Field        | Value    |
|--------------|----------|
| Entrypoint   | 0x03E0   |
| Data Size    | 16 bytes |
| Instructions | 2        |

```
      00 01 02 03 04 05 06 07  08 09 0A 0B 0C 0D 0E 0F
      -- -- -- -- -- -- -- --  -- -- -- -- -- -- -- --
03E0: 5B 08 80 F8 FF FF 7F F8  FF FF 7F 6A 6F 79 30 00  [..........joy0.
```

#### Opcodes

```
  0: 0x03E0 [0x5B] LOAD_EXT_SCHEDULER: Load scheduler "joy0" with entities [EventEntity, EventEntity], work=432*
  1: 0x03EF [0x00] END_REQSTACK()
```

### Event 65535.62

#### Metadata

| Field        | Value    |
|--------------|----------|
| Entrypoint   | 0x03F0   |
| Data Size    | 14 bytes |
| Instructions | 2        |

```
      00 01 02 03 04 05 06 07  08 09 0A 0B 0C 0D 0E 0F
      -- -- -- -- -- -- -- --  -- -- -- -- -- -- -- --
03F0: 53 F8 FF FF 7F F8 FF FF  7F 6A 6F 79 30 00        S........joy0.  
```

#### Opcodes

```
  0: 0x03F0 [0x53] WAIT_SCHEDULER_TASK: Wait for scheduler "joy0" with entities [EventEntity, EventEntity]
  1: 0x03FD [0x00] END_REQSTACK()
```

### Event 65535.63

#### Metadata

| Field        | Value    |
|--------------|----------|
| Entrypoint   | 0x03FE   |
| Data Size    | 16 bytes |
| Instructions | 2        |

```
      00 01 02 03 04 05 06 07  08 09 0A 0B 0C 0D 0E 0F
      -- -- -- -- -- -- -- --  -- -- -- -- -- -- -- --
03F0:                                            5B 07                [.
0400: 80 F8 FF FF 7F F8 FF FF  7F 67 6F 67 6F 00        .........gogo.  
```

#### Opcodes

```
  0: 0x03FE [0x5B] LOAD_EXT_SCHEDULER: Load scheduler "gogo" with entities [EventEntity, EventEntity], work=431*
  1: 0x040D [0x00] END_REQSTACK()
```

### Event 65535.64

#### Metadata

| Field        | Value    |
|--------------|----------|
| Entrypoint   | 0x040E   |
| Data Size    | 14 bytes |
| Instructions | 2        |

```
      00 01 02 03 04 05 06 07  08 09 0A 0B 0C 0D 0E 0F
      -- -- -- -- -- -- -- --  -- -- -- -- -- -- -- --
0400:                                            53 F8                S.
0410: FF FF 7F F8 FF FF 7F 67  6F 67 6F 00              .......gogo.    
```

#### Opcodes

```
  0: 0x040E [0x53] WAIT_SCHEDULER_TASK: Wait for scheduler "gogo" with entities [EventEntity, EventEntity]
  1: 0x041B [0x00] END_REQSTACK()
```

### Event 65535.65

#### Metadata

| Field        | Value    |
|--------------|----------|
| Entrypoint   | 0x041C   |
| Data Size    | 16 bytes |
| Instructions | 2        |

```
      00 01 02 03 04 05 06 07  08 09 0A 0B 0C 0D 0E 0F
      -- -- -- -- -- -- -- --  -- -- -- -- -- -- -- --
0410:                                      5B 00 80 F8              [...
0420: FF FF 7F F8 FF FF 7F 69  72 6F 30 00              .......iro0.    
```

#### Opcodes

```
  0: 0x041C [0x5B] LOAD_EXT_SCHEDULER: Load scheduler "iro0" with entities [EventEntity, EventEntity], work=337*
  1: 0x042B [0x00] END_REQSTACK()
```

### Event 65535.66

#### Metadata

| Field        | Value    |
|--------------|----------|
| Entrypoint   | 0x042C   |
| Data Size    | 14 bytes |
| Instructions | 2        |

```
      00 01 02 03 04 05 06 07  08 09 0A 0B 0C 0D 0E 0F
      -- -- -- -- -- -- -- --  -- -- -- -- -- -- -- --
0420:                                      53 F8 FF FF              S...
0430: 7F F8 FF FF 7F 69 72 6F  30 00                    .....iro0.      
```

#### Opcodes

```
  0: 0x042C [0x53] WAIT_SCHEDULER_TASK: Wait for scheduler "iro0" with entities [EventEntity, EventEntity]
  1: 0x0439 [0x00] END_REQSTACK()
```

### Event 65535.67

#### Metadata

| Field        | Value    |
|--------------|----------|
| Entrypoint   | 0x043A   |
| Data Size    | 16 bytes |
| Instructions | 2        |

```
      00 01 02 03 04 05 06 07  08 09 0A 0B 0C 0D 0E 0F
      -- -- -- -- -- -- -- --  -- -- -- -- -- -- -- --
0430:                                5B 00 80 F8 FF FF            [.....
0440: 7F F8 FF FF 7F 70 6F 69  30 00                    .....poi0.      
```

#### Opcodes

```
  0: 0x043A [0x5B] LOAD_EXT_SCHEDULER: Load scheduler "poi0" with entities [EventEntity, EventEntity], work=337*
  1: 0x0449 [0x00] END_REQSTACK()
```

### Event 65535.68

#### Metadata

| Field        | Value    |
|--------------|----------|
| Entrypoint   | 0x044A   |
| Data Size    | 14 bytes |
| Instructions | 2        |

```
      00 01 02 03 04 05 06 07  08 09 0A 0B 0C 0D 0E 0F
      -- -- -- -- -- -- -- --  -- -- -- -- -- -- -- --
0440:                                53 F8 FF FF 7F F8            S.....
0450: FF FF 7F 70 6F 69 30 00                           ...poi0.        
```

#### Opcodes

```
  0: 0x044A [0x53] WAIT_SCHEDULER_TASK: Wait for scheduler "poi0" with entities [EventEntity, EventEntity]
  1: 0x0457 [0x00] END_REQSTACK()
```

### Event 65535.69

#### Metadata

| Field        | Value    |
|--------------|----------|
| Entrypoint   | 0x0458   |
| Data Size    | 16 bytes |
| Instructions | 2        |

```
      00 01 02 03 04 05 06 07  08 09 0A 0B 0C 0D 0E 0F
      -- -- -- -- -- -- -- --  -- -- -- -- -- -- -- --
0450:                          5B 00 80 F8 FF FF 7F F8          [.......
0460: FF FF 7F 70 61 73 30 00                           ...pas0.        
```

#### Opcodes

```
  0: 0x0458 [0x5B] LOAD_EXT_SCHEDULER: Load scheduler "pas0" with entities [EventEntity, EventEntity], work=337*
  1: 0x0467 [0x00] END_REQSTACK()
```

### Event 65535.70

#### Metadata

| Field        | Value    |
|--------------|----------|
| Entrypoint   | 0x0468   |
| Data Size    | 14 bytes |
| Instructions | 2        |

```
      00 01 02 03 04 05 06 07  08 09 0A 0B 0C 0D 0E 0F
      -- -- -- -- -- -- -- --  -- -- -- -- -- -- -- --
0460:                          53 F8 FF FF 7F F8 FF FF          S.......
0470: 7F 70 61 73 30 00                                 .pas0.          
```

#### Opcodes

```
  0: 0x0468 [0x53] WAIT_SCHEDULER_TASK: Wait for scheduler "pas0" with entities [EventEntity, EventEntity]
  1: 0x0475 [0x00] END_REQSTACK()
```

### Event 65535.71

#### Metadata

| Field        | Value    |
|--------------|----------|
| Entrypoint   | 0x0476   |
| Data Size    | 10 bytes |
| Instructions | 3        |

```
      00 01 02 03 04 05 06 07  08 09 0A 0B 0C 0D 0E 0F
      -- -- -- -- -- -- -- --  -- -- -- -- -- -- -- --
0470:                   5E 69  64 6C 30 1C 01 80 00 00        ^idl0.....
```

#### Opcodes

```
  0: 0x0476 [0x5E] EventEntity goes idle (kills current action) (animation: "idl0")
  1: 0x047B [0x1C] WAIT(30* ticks)
  2: 0x047E [0x00] END_REQSTACK()
```

#### Data or dead code:

```
# Dead code (unreachable instructions):
     0x047F [0x00] END_REQSTACK()
```

### Event 65535.72

#### Metadata

| Field        | Value    |
|--------------|----------|
| Entrypoint   | 0x0480   |
| Data Size    | 16 bytes |
| Instructions | 2        |

```
      00 01 02 03 04 05 06 07  08 09 0A 0B 0C 0D 0E 0F
      -- -- -- -- -- -- -- --  -- -- -- -- -- -- -- --
0480: 5B 02 80 F8 FF FF 7F F8  FF FF 7F 64 6F 6C 30 00  [..........dol0.
```

#### Opcodes

```
  0: 0x0480 [0x5B] LOAD_EXT_SCHEDULER: Load scheduler "dol0" with entities [EventEntity, EventEntity], work=341*
  1: 0x048F [0x00] END_REQSTACK()
```

### Event 65535.73

#### Metadata

| Field        | Value    |
|--------------|----------|
| Entrypoint   | 0x0490   |
| Data Size    | 14 bytes |
| Instructions | 2        |

```
      00 01 02 03 04 05 06 07  08 09 0A 0B 0C 0D 0E 0F
      -- -- -- -- -- -- -- --  -- -- -- -- -- -- -- --
0490: 53 F8 FF FF 7F F8 FF FF  7F 64 6F 6C 30 00        S........dol0.  
```

#### Opcodes

```
  0: 0x0490 [0x53] WAIT_SCHEDULER_TASK: Wait for scheduler "dol0" with entities [EventEntity, EventEntity]
  1: 0x049D [0x00] END_REQSTACK()
```

### Event 65535.74

#### Metadata

| Field        | Value    |
|--------------|----------|
| Entrypoint   | 0x049E   |
| Data Size    | 16 bytes |
| Instructions | 2        |

```
      00 01 02 03 04 05 06 07  08 09 0A 0B 0C 0D 0E 0F
      -- -- -- -- -- -- -- --  -- -- -- -- -- -- -- --
0490:                                            5B 02                [.
04A0: 80 F8 FF FF 7F F8 FF FF  7F 64 6F 6C 31 00        .........dol1.  
```

#### Opcodes

```
  0: 0x049E [0x5B] LOAD_EXT_SCHEDULER: Load scheduler "dol1" with entities [EventEntity, EventEntity], work=341*
  1: 0x04AD [0x00] END_REQSTACK()
```

### Event 65535.75

#### Metadata

| Field        | Value    |
|--------------|----------|
| Entrypoint   | 0x04AE   |
| Data Size    | 14 bytes |
| Instructions | 2        |

```
      00 01 02 03 04 05 06 07  08 09 0A 0B 0C 0D 0E 0F
      -- -- -- -- -- -- -- --  -- -- -- -- -- -- -- --
04A0:                                            53 F8                S.
04B0: FF FF 7F F8 FF FF 7F 64  6F 6C 31 00              .......dol1.    
```

#### Opcodes

```
  0: 0x04AE [0x53] WAIT_SCHEDULER_TASK: Wait for scheduler "dol1" with entities [EventEntity, EventEntity]
  1: 0x04BB [0x00] END_REQSTACK()
```

### Event 370

#### Metadata

| Field        | Value    |
|--------------|----------|
| Entrypoint   | 0x04BC   |
| Data Size    | 33 bytes |
| Instructions | 12       |

```
      00 01 02 03 04 05 06 07  08 09 0A 0B 0C 0D 0E 0F
      -- -- -- -- -- -- -- --  -- -- -- -- -- -- -- --
04B0:                                      1E F0 FF FF              ....
04C0: 7F 6F 70 29 08 10 E0 0E  01 01 1D 09 80 23 1D 0A  .op).........#..
04D0: 80 23 29 08 10 E0 0E 01  02 20 00 21 00           .#)...... .!.   
```

#### Opcodes

```
  0: 0x04BC [0x1E] EventEntity looks at LocalPlayer and starts talking
  1: 0x04C1 [0x6F] WAIT_FRAME_DELAY: Yield until WaitTime reaches zero
  2: 0x04C2 [0x70] WAIT_ENTITY_RENDER_FLAG: Wait while EventEntity->Render.Flags3 bit 2 is set (cancel turn if not)
  3: 0x04C3 [0x29] REQ_SET_WAIT(priority=0x08, entity_id=Tosuka-Porika (ID: 17752080/0x010EE010), tag_num=0x01)
  4: 0x04CA [0x1D] PRINT_EVENT_MESSAGE(message_id=8168*)
     "Hrmm. Hey you! What are you doing there?"
  5: 0x04CD [0x23] WAIT_FOR_DIALOG_INTERACTION
  6: 0x04CE [0x1D] PRINT_EVENT_MESSAGE(message_id=8169*)
     "You look like an adventurer or some other riff-raff. It doesn't seem like you'd have any business with our distinguished Library of Magic!"
  7: 0x04D1 [0x23] WAIT_FOR_DIALOG_INTERACTION
  8: 0x04D2 [0x29] REQ_SET_WAIT(priority=0x08, entity_id=Tosuka-Porika (ID: 17752080/0x010EE010), tag_num=0x02)
  9: 0x04D9 [0x20] SET_CLI_EVENT_UC_FLAG: Unlock player control
 10: 0x04DB [0x21] END_EVENT
 11: 0x04DC [0x00] END_REQSTACK()
```

### Event 379

#### Metadata

| Field        | Value    |
|--------------|----------|
| Entrypoint   | 0x04DD   |
| Data Size    | 64 bytes |
| Instructions | 17       |

```
      00 01 02 03 04 05 06 07  08 09 0A 0B 0C 0D 0E 0F
      -- -- -- -- -- -- -- --  -- -- -- -- -- -- -- --
04D0:                                         29 08 10               )..
04E0: E0 0E 01 21 1D 0B 80 23  29 08 10 E0 0E 01 22 29  ...!...#).....")
04F0: 08 10 E0 0E 01 23 29 08  10 E0 0E 01 24 1E F0 FF  .....#).....$...
0500: FF 7F 6F 70 1C 01 80 29  08 10 E0 0E 01 27 1D 0C  ..op...).....'..
0510: 80 23 29 08 10 E0 0E 01  28 20 00 21 00           .#).....( .!.   
```

#### Opcodes

```
  0: 0x04DD [0x29] REQ_SET_WAIT(priority=0x08, entity_id=Tosuka-Porika (ID: 17752080/0x010EE010), tag_num=0x21)
  1: 0x04E4 [0x1D] PRINT_EVENT_MESSAGE(message_id=8183*)
     "Hrrrrm... That can't be it... Then again... Hr-hr-hr-hrmm..."
  2: 0x04E7 [0x23] WAIT_FOR_DIALOG_INTERACTION
  3: 0x04E8 [0x29] REQ_SET_WAIT(priority=0x08, entity_id=Tosuka-Porika (ID: 17752080/0x010EE010), tag_num=0x22)
  4: 0x04EF [0x29] REQ_SET_WAIT(priority=0x08, entity_id=Tosuka-Porika (ID: 17752080/0x010EE010), tag_num=0x23)
  5: 0x04F6 [0x29] REQ_SET_WAIT(priority=0x08, entity_id=Tosuka-Porika (ID: 17752080/0x010EE010), tag_num=0x24)
  6: 0x04FD [0x1E] EventEntity looks at LocalPlayer and starts talking
  7: 0x0502 [0x6F] WAIT_FRAME_DELAY: Yield until WaitTime reaches zero
  8: 0x0503 [0x70] WAIT_ENTITY_RENDER_FLAG: Wait while EventEntity->Render.Flags3 bit 2 is set (cancel turn if not)
  9: 0x0504 [0x1C] WAIT(30* ticks)
 10: 0x0507 [0x29] REQ_SET_WAIT(priority=0x08, entity_id=Tosuka-Porika (ID: 17752080/0x010EE010), tag_num=0x27)
 11: 0x050E [0x1D] PRINT_EVENT_MESSAGE(message_id=8184*)
     "Hrm! Hey, you're the adventurer from the other day! I don't believe it! I don't believe a word anyone says!"
 12: 0x0511 [0x23] WAIT_FOR_DIALOG_INTERACTION
 13: 0x0512 [0x29] REQ_SET_WAIT(priority=0x08, entity_id=Tosuka-Porika (ID: 17752080/0x010EE010), tag_num=0x28)
 14: 0x0519 [0x20] SET_CLI_EVENT_UC_FLAG: Unlock player control
 15: 0x051B [0x21] END_EVENT
 16: 0x051C [0x00] END_REQSTACK()
```

### Event 380

#### Metadata

| Field        | Value    |
|--------------|----------|
| Entrypoint   | 0x051D   |
| Data Size    | 64 bytes |
| Instructions | 17       |

```
      00 01 02 03 04 05 06 07  08 09 0A 0B 0C 0D 0E 0F
      -- -- -- -- -- -- -- --  -- -- -- -- -- -- -- --
0510:                                         29 08 10               )..
0520: E0 0E 01 21 1D 0D 80 23  29 08 10 E0 0E 01 22 29  ...!...#).....")
0530: 08 10 E0 0E 01 23 29 08  10 E0 0E 01 24 1E F0 FF  .....#).....$...
0540: FF 7F 6F 70 1C 01 80 29  08 10 E0 0E 01 27 1D 0E  ..op...).....'..
0550: 80 23 29 08 10 E0 0E 01  28 20 00 21 00           .#).....( .!.   
```

#### Opcodes

```
  0: 0x051D [0x29] REQ_SET_WAIT(priority=0x08, entity_id=Tosuka-Porika (ID: 17752080/0x010EE010), tag_num=0x21)
  1: 0x0524 [0x1D] PRINT_EVENT_MESSAGE(message_id=8185*)
     "Hr-hr-hr-hrmm... Thanks to some adventurer somewhere, I was able to awaken from an inescapable nightmare."
  2: 0x0527 [0x23] WAIT_FOR_DIALOG_INTERACTION
  3: 0x0528 [0x29] REQ_SET_WAIT(priority=0x08, entity_id=Tosuka-Porika (ID: 17752080/0x010EE010), tag_num=0x22)
  4: 0x052F [0x29] REQ_SET_WAIT(priority=0x08, entity_id=Tosuka-Porika (ID: 17752080/0x010EE010), tag_num=0x23)
  5: 0x0536 [0x29] REQ_SET_WAIT(priority=0x08, entity_id=Tosuka-Porika (ID: 17752080/0x010EE010), tag_num=0x24)
  6: 0x053D [0x1E] EventEntity looks at LocalPlayer and starts talking
  7: 0x0542 [0x6F] WAIT_FRAME_DELAY: Yield until WaitTime reaches zero
  8: 0x0543 [0x70] WAIT_ENTITY_RENDER_FLAG: Wait while EventEntity->Render.Flags3 bit 2 is set (cancel turn if not)
  9: 0x0544 [0x1C] WAIT(30* ticks)
 10: 0x0547 [0x29] REQ_SET_WAIT(priority=0x08, entity_id=Tosuka-Porika (ID: 17752080/0x010EE010), tag_num=0x27)
 11: 0x054E [0x1D] PRINT_EVENT_MESSAGE(message_id=8186*)
     "The resurrection of the Shadow Lord and the Book of the Gods losing its magic... Those things couldn't possibly happen. It was all but a dream..."
 12: 0x0551 [0x23] WAIT_FOR_DIALOG_INTERACTION
 13: 0x0552 [0x29] REQ_SET_WAIT(priority=0x08, entity_id=Tosuka-Porika (ID: 17752080/0x010EE010), tag_num=0x28)
 14: 0x0559 [0x20] SET_CLI_EVENT_UC_FLAG: Unlock player control
 15: 0x055B [0x21] END_EVENT
 16: 0x055C [0x00] END_REQSTACK()
```

### Event 160

#### Metadata

| Field        | Value     |
|--------------|-----------|
| Entrypoint   | 0x055D    |
| Data Size    | 778 bytes |
| Instructions | 100       |

```
      00 01 02 03 04 05 06 07  08 09 0A 0B 0C 0D 0E 0F
      -- -- -- -- -- -- -- --  -- -- -- -- -- -- -- --
0550:                                         42 46 01               BF.
0560: 45 0F 80 F8 FF FF 7F F8  FF FF 7F 66 64 6F 31 10  E..........fdo1.
0570: 80 1C 11 80 75 00 12 80  75 01 38 13 80 29 08 F0  ....u...u.8..)..
0580: FF FF 7F 06 29 0B F0 FF  FF 7F 32 5C 00 14 80 5C  ....).....2\...\
0590: 01 14 80 1C 15 80 4E 01  F0 FF FF 7F 45 16 80 F8  ......N.....E...
05A0: FF FF 7F F8 FF FF 7F 73  30 33 37 10 80 45 0F 80  .......s037..E..
05B0: F8 FF FF 7F F8 FF FF 7F  66 64 69 31 10 80 29 0B  ........fdi1..).
05C0: 10 E0 0E 01 55 4A 10 E0  0E 01 F0 FF FF 7F 6F 76  ....UJ........ov
05D0: F8 FF FF 7F 4E 00 F0 FF  FF 7F 45 16 80 F8 FF FF  ....N.....E.....
05E0: 7F F8 FF FF 7F 73 30 33  38 10 80 27 0B 10 E0 0E  .....s038..'....
05F0: 01 51 1D 17 80 23 2A 0B  10 E0 0E 01 4A F0 FF FF  .Q...#*.....J...
0600: 7F 10 E0 0E 01 45 16 80  F8 FF FF 7F F8 FF FF 7F  .....E..........
0610: 73 30 33 39 10 80 4B 10  E0 0E 01 18 80 29 0B 10  s039..K......)..
0620: E0 0E 01 57 52 16 80 F8  FF FF 7F F8 FF FF 7F 73  ...WR..........s
0630: 30 33 39 02 09 10 19 80  00 4F 06 45 16 80 F8 FF  039......O.E....
0640: FF 7F F8 FF FF 7F 73 30  38 32 10 80 01 60 06 45  ......s082...`.E
0650: 16 80 F8 FF FF 7F F8 FF  FF 7F 73 30 33 38 10 80  ..........s038..
0660: 4A 10 E0 0E 01 F0 FF FF  7F 6F 76 10 E0 0E 01 29  J........ov....)
0670: 0B 10 E0 0E 01 58 45 16  80 F8 FF FF 7F F8 FF FF  .....XE.........
0680: 7F 73 30 34 30 10 80 29  0B 10 E0 0E 01 5A 4A F0  .s040..).....ZJ.
0690: FF FF 7F 10 E0 0E 01 52  16 80 F8 FF FF 7F F8 FF  .......R........
06A0: FF 7F 73 30 34 30 45 0F  80 F8 FF FF 7F F8 FF FF  ..s040E.........
06B0: 7F 66 64 6F 31 10 80 1C  1A 80 45 16 80 F8 FF FF  .fdo1.....E.....
06C0: 7F F8 FF FF 7F 73 30 34  32 10 80 45 0F 80 F8 FF  .....s042..E....
06D0: FF 7F F8 FF FF 7F 66 64  69 31 10 80 27 0B 10 E0  ......fdi1..'...
06E0: 0E 01 53 2B 10 E0 0E 01  1B 80 23 2B 10 E0 0E 01  ..S+......#+....
06F0: 1C 80 23 52 16 80 F8 FF  FF 7F F8 FF FF 7F 73 30  ..#R..........s0
0700: 34 32 45 16 80 F8 FF FF  7F F8 FF FF 7F 73 30 34  42E..........s04
0710: 33 10 80 2B 10 E0 0E 01  1D 80 23 2B 10 E0 0E 01  3..+......#+....
0720: 1E 80 23 4A F0 FF FF 7F  10 E0 0E 01 2A 0B 10 E0  ..#J........*...
0730: 0E 01 45 0F 80 F8 FF FF  7F F8 FF FF 7F 66 64 6F  ..E..........fdo
0740: 31 10 80 1C 11 80 52 16  80 F8 FF FF 7F F8 FF FF  1.....R.........
0750: 7F 73 30 34 33 45 16 80  F8 FF FF 7F F8 FF FF 7F  .s043E..........
0760: 73 30 34 31 10 80 45 0F  80 F8 FF FF 7F F8 FF FF  s041..E.........
0770: 7F 66 64 69 31 10 80 4B  10 E0 0E 01 18 80 6F 76  .fdi1..K......ov
0780: 10 E0 0E 01 29 0B 10 E0  0E 01 5C 45 16 80 F8 FF  ....).....\E....
0790: FF 7F F8 FF FF 7F 73 30  34 34 10 80 7B 10 E0 0E  ......s044..{...
07A0: 01 27 0B 10 E0 0E 01 52  2B 10 E0 0E 01 1F 80 23  .'.....R+......#
07B0: 2B 10 E0 0E 01 20 80 23  2A 0B 10 E0 0E 01 4A F0  +.... .#*.....J.
07C0: FF FF 7F 10 E0 0E 01 29  0B 10 E0 0E 01 5E 52 16  .......).....^R.
07D0: 80 F8 FF FF 7F F8 FF FF  7F 73 30 34 34 02 09 10  .........s044...
07E0: 19 80 00 F9 07 45 16 80  F8 FF FF 7F F8 FF FF 7F  .....E..........
07F0: 73 30 38 32 10 80 01 0A  08 45 16 80 F8 FF FF 7F  s082.....E......
0800: F8 FF FF 7F 73 30 33 38  10 80 4A 10 E0 0E 01 F0  ....s038..J.....
0810: FF FF 7F 6F 76 F8 FF FF  7F 29 0B 10 E0 0E 01 5F  ...ov....)....._
0820: 29 0B 10 E0 0E 01 60 5D  10 80 21 80 45 0F 80 F8  ).....`]..!.E...
0830: FF FF 7F F8 FF FF 7F 66  64 6F 31 10 80 1C 0F 80  .......fdo1.....
0840: 5C 00 22 80 5C 01 22 80  5D 23 80 24 80 1C 0F 80  \.".\.".]#.$....
0850: 46 00 45 0F 80 F8 FF FF  7F F8 FF FF 7F 66 64 69  F.E..........fdi
0860: 31 10 80 20 00 21 00                              1.. .!.         
```

#### Opcodes

```
  0: 0x055D [0x42] SET_CLI_EVENT_CANCEL_DATA()
  1: 0x055E [0x46] CAMERA_CONTROL: Disable user control
  2: 0x0560 [0x45] LOAD_SCHEDULED_TASK: Load scheduler "fdo1" with entities [EventEntity, EventEntity], work=[200*, 0*]
  3: 0x0571 [0x1C] WAIT(60* ticks)
  4: 0x0574 [0x75] LOAD_ROOM(Load indoor room, room=394*)
  5: 0x0578 [0x75] LOAD_ROOM(No action)
  6: 0x057A [0x38] SET_CLIENT_EVENT_MODE(mode=3*)
  7: 0x057D [0x29] REQ_SET_WAIT(priority=0x08, entity_id=LocalPlayer, tag_num=0x06)
  8: 0x0584 [0x29] REQ_SET_WAIT(priority=0x0B, entity_id=LocalPlayer, tag_num=0x32)
  9: 0x058B [0x5C] MUSIC_CONTROL: Set Idle (Day) music to song 123*
 10: 0x058F [0x5C] MUSIC_CONTROL: Set Idle (Night) music to song 123*
 11: 0x0593 [0x1C] WAIT(100* ticks)
 12: 0x0596 [0x4E] SET_ENTITY_HIDE_FLAG: Hide LocalPlayer
 13: 0x059C [0x45] LOAD_SCHEDULED_TASK: Load scheduler "s037" with entities [EventEntity, EventEntity], work=[138*, 0*]
 14: 0x05AD [0x45] LOAD_SCHEDULED_TASK: Load scheduler "fdi1" with entities [EventEntity, EventEntity], work=[200*, 0*]
 15: 0x05BE [0x29] REQ_SET_WAIT(priority=0x0B, entity_id=Tosuka-Porika (ID: 17752080/0x010EE010), tag_num=0x55)
 16: 0x05C5 [0x4A] Tosuka-Porika (ID: 17752080/0x010EE010) looks at LocalPlayer
 17: 0x05CE [0x6F] WAIT_FRAME_DELAY: Yield until WaitTime reaches zero
 18: 0x05CF [0x76] CHECK_ENTITY_RENDER_FLAGS: Wait until EventEntity Render.Flags0 and Render.Flags3 conditions are met
 19: 0x05D4 [0x4E] SET_ENTITY_HIDE_FLAG: Show LocalPlayer
 20: 0x05DA [0x45] LOAD_SCHEDULED_TASK: Load scheduler "s038" with entities [EventEntity, EventEntity], work=[138*, 0*]
 21: 0x05EB [0x27] REQ_SET(priority=0x0B, entity_id=Tosuka-Porika (ID: 17752080/0x010EE010), tag_num=0x51)
 22: 0x05F2 [0x1D] PRINT_EVENT_MESSAGE(message_id=7661*)
     "...Hrm!? Sorry about that. I was just thinking..."
 23: 0x05F5 [0x23] WAIT_FOR_DIALOG_INTERACTION
 24: 0x05F6 [0x2A] GET_REQ_LEVEL(level=11, entity_id=Tosuka-Porika (ID: 17752080/0x010EE010))
 25: 0x05FC [0x4A] LocalPlayer looks at Tosuka-Porika (ID: 17752080/0x010EE010)
 26: 0x0605 [0x45] LOAD_SCHEDULED_TASK: Load scheduler "s039" with entities [EventEntity, EventEntity], work=[138*, 0*]
 27: 0x0616 [0x4B] UPDATE_ENTITY_YAW(entity=Tosuka-Porika (ID: 17752080/0x010EE010), yaw=5.5*)
 28: 0x061D [0x29] REQ_SET_WAIT(priority=0x0B, entity_id=Tosuka-Porika (ID: 17752080/0x010EE010), tag_num=0x57)
 29: 0x0624 [0x52] END_LOAD_SCHEDULER: End scheduler "s039" with entities [EventEntity, EventEntity], work=138*
 30: 0x0633 [0x02] IF !(Work_Zone[9] == 8*) GOTO 0x064F
 31: 0x063B [0x45] LOAD_SCHEDULED_TASK: Load scheduler "s082" with entities [EventEntity, EventEntity], work=[138*, 0*]
 32: 0x064C [0x01] GOTO 0x0660
 33: 0x064F [0x45] LOAD_SCHEDULED_TASK: Load scheduler "s038" with entities [EventEntity, EventEntity], work=[138*, 0*]

SUBROUTINE_0660:
 34: 0x0660 [0x4A] Tosuka-Porika (ID: 17752080/0x010EE010) looks at LocalPlayer
 35: 0x0669 [0x6F] WAIT_FRAME_DELAY: Yield until WaitTime reaches zero
 36: 0x066A [0x76] CHECK_ENTITY_RENDER_FLAGS: Wait until Tosuka-Porika (ID: 17752080/0x010EE010) Render.Flags0 and Render.Flags3 conditions are met
 37: 0x066F [0x29] REQ_SET_WAIT(priority=0x0B, entity_id=Tosuka-Porika (ID: 17752080/0x010EE010), tag_num=0x58)
 38: 0x0676 [0x45] LOAD_SCHEDULED_TASK: Load scheduler "s040" with entities [EventEntity, EventEntity], work=[138*, 0*]
 39: 0x0687 [0x29] REQ_SET_WAIT(priority=0x0B, entity_id=Tosuka-Porika (ID: 17752080/0x010EE010), tag_num=0x5A)
 40: 0x068E [0x4A] LocalPlayer looks at Tosuka-Porika (ID: 17752080/0x010EE010)
 41: 0x0697 [0x52] END_LOAD_SCHEDULER: End scheduler "s040" with entities [EventEntity, EventEntity], work=138*
 42: 0x06A6 [0x45] LOAD_SCHEDULED_TASK: Load scheduler "fdo1" with entities [EventEntity, EventEntity], work=[200*, 0*]
 43: 0x06B7 [0x1C] WAIT(120* ticks)
 44: 0x06BA [0x45] LOAD_SCHEDULED_TASK: Load scheduler "s042" with entities [EventEntity, EventEntity], work=[138*, 0*]
 45: 0x06CB [0x45] LOAD_SCHEDULED_TASK: Load scheduler "fdi1" with entities [EventEntity, EventEntity], work=[200*, 0*]
 46: 0x06DC [0x27] REQ_SET(priority=0x0B, entity_id=Tosuka-Porika (ID: 17752080/0x010EE010), tag_num=0x53)
 47: 0x06E3 [0x2B] Tosuka-Porika (ID: 17752080/0x010EE010) [7666*]:
     "Firstly, do you know the role of the Optistery's Library of Magic?"
 48: 0x06EA [0x23] WAIT_FOR_DIALOG_INTERACTION
 49: 0x06EB [0x2B] Tosuka-Porika (ID: 17752080/0x010EE010) [7667*]:
     "This is a repository for the storage and preservation of innumerable scrolls and books, from ages long past right up to the present."
 50: 0x06F2 [0x23] WAIT_FOR_DIALOG_INTERACTION
 51: 0x06F3 [0x52] END_LOAD_SCHEDULER: End scheduler "s042" with entities [EventEntity, EventEntity], work=138*
 52: 0x0702 [0x45] LOAD_SCHEDULED_TASK: Load scheduler "s043" with entities [EventEntity, EventEntity], work=[138*, 0*]
 53: 0x0713 [0x2B] Tosuka-Porika (ID: 17752080/0x010EE010) [7668*]:
     "The most important role of our librarians is to consign our entrusted writings to posterity, without ever losing a single one of them."
 54: 0x071A [0x23] WAIT_FOR_DIALOG_INTERACTION
 55: 0x071B [0x2B] Tosuka-Porika (ID: 17752080/0x010EE010) [7669*]:
     "Why, even during that terrible war twenty years ago, we were able to protect almost all of the books."
 56: 0x0722 [0x23] WAIT_FOR_DIALOG_INTERACTION
 57: 0x0723 [0x4A] LocalPlayer looks at Tosuka-Porika (ID: 17752080/0x010EE010)
 58: 0x072C [0x2A] GET_REQ_LEVEL(level=11, entity_id=Tosuka-Porika (ID: 17752080/0x010EE010))
 59: 0x0732 [0x45] LOAD_SCHEDULED_TASK: Load scheduler "fdo1" with entities [EventEntity, EventEntity], work=[200*, 0*]
 60: 0x0743 [0x1C] WAIT(60* ticks)
 61: 0x0746 [0x52] END_LOAD_SCHEDULER: End scheduler "s043" with entities [EventEntity, EventEntity], work=138*
 62: 0x0755 [0x45] LOAD_SCHEDULED_TASK: Load scheduler "s041" with entities [EventEntity, EventEntity], work=[138*, 0*]
 63: 0x0766 [0x45] LOAD_SCHEDULED_TASK: Load scheduler "fdi1" with entities [EventEntity, EventEntity], work=[200*, 0*]
 64: 0x0777 [0x4B] UPDATE_ENTITY_YAW(entity=Tosuka-Porika (ID: 17752080/0x010EE010), yaw=5.5*)
 65: 0x077E [0x6F] WAIT_FRAME_DELAY: Yield until WaitTime reaches zero
 66: 0x077F [0x76] CHECK_ENTITY_RENDER_FLAGS: Wait until Tosuka-Porika (ID: 17752080/0x010EE010) Render.Flags0 and Render.Flags3 conditions are met
 67: 0x0784 [0x29] REQ_SET_WAIT(priority=0x0B, entity_id=Tosuka-Porika (ID: 17752080/0x010EE010), tag_num=0x5C)
 68: 0x078B [0x45] LOAD_SCHEDULED_TASK: Load scheduler "s044" with entities [EventEntity, EventEntity], work=[138*, 0*]
 69: 0x079C [0x7B] Tosuka-Porika (ID: 17752080/0x010EE010) stops talking
 70: 0x07A1 [0x27] REQ_SET(priority=0x0B, entity_id=Tosuka-Porika (ID: 17752080/0x010EE010), tag_num=0x52)
 71: 0x07A8 [0x2B] Tosuka-Porika (ID: 17752080/0x010EE010) [7672*]:
     "Manuscripts, life-threateningly dangerous to those weak in magical power..."
 72: 0x07AF [0x23] WAIT_FOR_DIALOG_INTERACTION
 73: 0x07B0 [0x2B] Tosuka-Porika (ID: 17752080/0x010EE010) [7673*]:
     "Books of the dark arts, not to be viewed by mortal eyes... Ancient scrolls not even the Minister of the Optistery is allowed to open..."
 74: 0x07B7 [0x23] WAIT_FOR_DIALOG_INTERACTION
 75: 0x07B8 [0x2A] GET_REQ_LEVEL(level=11, entity_id=Tosuka-Porika (ID: 17752080/0x010EE010))
 76: 0x07BE [0x4A] LocalPlayer looks at Tosuka-Porika (ID: 17752080/0x010EE010)
 77: 0x07C7 [0x29] REQ_SET_WAIT(priority=0x0B, entity_id=Tosuka-Porika (ID: 17752080/0x010EE010), tag_num=0x5E)
 78: 0x07CE [0x52] END_LOAD_SCHEDULER: End scheduler "s044" with entities [EventEntity, EventEntity], work=138*
 79: 0x07DD [0x02] IF !(Work_Zone[9] == 8*) GOTO 0x07F9
 80: 0x07E5 [0x45] LOAD_SCHEDULED_TASK: Load scheduler "s082" with entities [EventEntity, EventEntity], work=[138*, 0*]
 81: 0x07F6 [0x01] GOTO 0x080A
 82: 0x07F9 [0x45] LOAD_SCHEDULED_TASK: Load scheduler "s038" with entities [EventEntity, EventEntity], work=[138*, 0*]

SUBROUTINE_080A:
 83: 0x080A [0x4A] Tosuka-Porika (ID: 17752080/0x010EE010) looks at LocalPlayer
 84: 0x0813 [0x6F] WAIT_FRAME_DELAY: Yield until WaitTime reaches zero
 85: 0x0814 [0x76] CHECK_ENTITY_RENDER_FLAGS: Wait until EventEntity Render.Flags0 and Render.Flags3 conditions are met
 86: 0x0819 [0x29] REQ_SET_WAIT(priority=0x0B, entity_id=Tosuka-Porika (ID: 17752080/0x010EE010), tag_num=0x5F)
 87: 0x0820 [0x29] REQ_SET_WAIT(priority=0x0B, entity_id=Tosuka-Porika (ID: 17752080/0x010EE010), tag_num=0x60)
 88: 0x0827 [0x5D] SET_MUSIC_VOLUME(volume=0*, fade_time=300*)
 89: 0x082C [0x45] LOAD_SCHEDULED_TASK: Load scheduler "fdo1" with entities [EventEntity, EventEntity], work=[200*, 0*]
 90: 0x083D [0x1C] WAIT(200* ticks)
 91: 0x0840 [0x5C] MUSIC_CONTROL: Set Idle (Day) music to song 151*
