# 17752197 - Gordias

## Common Data

| Field            | Value                     |
|------------------|---------------------------|
| Zone             | Windurst Waters (ID: 238) |
| Block Size       | 184 bytes                 |
| Total Events     | 8                         |
| References Count | 4                         |

## List of Events

| Event ID                 | Entrypoint   |   Size |   Instructions |
|--------------------------|--------------|--------|----------------|
| [65535](#event-65535)    | 0x0000       |      1 |              1 |
| [65535.1](#event-655351) | 0x0001       |     16 |              2 |
| [65535.2](#event-655352) | 0x0011       |     22 |              4 |
| [65535.3](#event-655353) | 0x0027       |     16 |              2 |
| [65535.4](#event-655354) | 0x0037       |     22 |              4 |
| [65535.5](#event-655355) | 0x004D       |      9 |              3 |
| [600](#event-600)        | 0x0056       |     33 |             12 |
| [1069](#event-1069)      | 0x0077       |      1 |              1 |

## DAT References (imed_data)

|   Index | Hex Value   |   Dec Value |
|---------|-------------|-------------|
|       0 | 0x0041      |          65 |
|       1 | 0x001E      |          30 |
|       2 | 0x22A5      |        8869 |
|       3 | 0x22A6      |        8870 |

## String References

- **8869**: Ahhh, I'm sooo full! I just ate ten servings! Hahaha... Are you impressed? Well, that there restaurant sells only Tarutaru-sized servings, and ten is quite an easy amount to stomach.
- **8870**: However, the owner was telling me that during the Crystal War, there were times when a lack of rations forced the restaurant to close its doors. Can you believe it?

## Events

### Event 65535

#### Metadata

| Field        | Value   |
|--------------|---------|
| Entrypoint   | 0x0000  |
| Data Size    | 1 bytes |
| Instructions | 1       |

```
      00 01 02 03 04 05 06 07  08 09 0A 0B 0C 0D 0E 0F
      -- -- -- -- -- -- -- --  -- -- -- -- -- -- -- --
0000: 00                                                .               
```

#### Opcodes

```
  0: 0x0000 [0x00] END_REQSTACK()
```

### Event 65535.1

#### Metadata

| Field        | Value    |
|--------------|----------|
| Entrypoint   | 0x0001   |
| Data Size    | 16 bytes |
| Instructions | 2        |

```
      00 01 02 03 04 05 06 07  08 09 0A 0B 0C 0D 0E 0F
      -- -- -- -- -- -- -- --  -- -- -- -- -- -- -- --
0000:    5B 00 80 F8 FF FF 7F  F8 FF FF 7F 67 72 65 30   [..........gre0
0010: 00                                                .               
```

#### Opcodes

```
  0: 0x0001 [0x5B] LOAD_EXT_SCHEDULER: Load scheduler "gre0" with entities [EventEntity, EventEntity], work=65*
  1: 0x0010 [0x00] END_REQSTACK()
```

### Event 65535.2

#### Metadata

| Field        | Value    |
|--------------|----------|
| Entrypoint   | 0x0011   |
| Data Size    | 22 bytes |
| Instructions | 4        |

```
      00 01 02 03 04 05 06 07  08 09 0A 0B 0C 0D 0E 0F
      -- -- -- -- -- -- -- --  -- -- -- -- -- -- -- --
0010:    53 F8 FF FF 7F F8 FF  FF 7F 67 72 65 30 5E 69   S........gre0^i
0020: 64 6C 30 1C 01 80 00                              dl0....         
```

#### Opcodes

```
  0: 0x0011 [0x53] WAIT_SCHEDULER_TASK: Wait for scheduler "gre0" with entities [EventEntity, EventEntity]
  1: 0x001E [0x5E] EventEntity goes idle (kills current action) (animation: "idl0")
  2: 0x0023 [0x1C] WAIT(30* ticks)
  3: 0x0026 [0x00] END_REQSTACK()
```

### Event 65535.3

#### Metadata

| Field        | Value    |
|--------------|----------|
| Entrypoint   | 0x0027   |
| Data Size    | 16 bytes |
| Instructions | 2        |

```
      00 01 02 03 04 05 06 07  08 09 0A 0B 0C 0D 0E 0F
      -- -- -- -- -- -- -- --  -- -- -- -- -- -- -- --
0020:                      5B  00 80 F8 FF FF 7F F8 FF         [........
0030: FF 7F 74 6C 6B 30 00                              ..tlk0.         
```

#### Opcodes

```
  0: 0x0027 [0x5B] LOAD_EXT_SCHEDULER: Load scheduler "tlk0" with entities [EventEntity, EventEntity], work=65*
  1: 0x0036 [0x00] END_REQSTACK()
```

### Event 65535.4

#### Metadata

| Field        | Value    |
|--------------|----------|
| Entrypoint   | 0x0037   |
| Data Size    | 22 bytes |
| Instructions | 4        |

```
      00 01 02 03 04 05 06 07  08 09 0A 0B 0C 0D 0E 0F
      -- -- -- -- -- -- -- --  -- -- -- -- -- -- -- --
0030:                      53  F8 FF FF 7F F8 FF FF 7F         S........
0040: 74 6C 6B 30 5E 69 64 6C  30 1C 01 80 00           tlk0^idl0....   
```

#### Opcodes

```
  0: 0x0037 [0x53] WAIT_SCHEDULER_TASK: Wait for scheduler "tlk0" with entities [EventEntity, EventEntity]
  1: 0x0044 [0x5E] EventEntity goes idle (kills current action) (animation: "idl0")
  2: 0x0049 [0x1C] WAIT(30* ticks)
  3: 0x004C [0x00] END_REQSTACK()
```

### Event 65535.5

#### Metadata

| Field        | Value   |
|--------------|---------|
| Entrypoint   | 0x004D  |
| Data Size    | 9 bytes |
| Instructions | 3       |

```
      00 01 02 03 04 05 06 07  08 09 0A 0B 0C 0D 0E 0F
      -- -- -- -- -- -- -- --  -- -- -- -- -- -- -- --
0040:                                         5E 69 64               ^id
0050: 6C 30 1C 01 80 00                                 l0....          
```

#### Opcodes

```
  0: 0x004D [0x5E] EventEntity goes idle (kills current action) (animation: "idl0")
  1: 0x0052 [0x1C] WAIT(30* ticks)
  2: 0x0055 [0x00] END_REQSTACK()
```

### Event 600

#### Metadata

| Field        | Value    |
|--------------|----------|
| Entrypoint   | 0x0056   |
| Data Size    | 33 bytes |
| Instructions | 12       |

```
      00 01 02 03 04 05 06 07  08 09 0A 0B 0C 0D 0E 0F
      -- -- -- -- -- -- -- --  -- -- -- -- -- -- -- --
0050:                   1E F0  FF FF 7F 6F 70 29 08 85        .....op)..
0060: E0 0E 01 03 1D 02 80 23  1D 03 80 23 29 08 85 E0  .......#...#)...
0070: 0E 01 05 20 00 21 00                              ... .!.         
```

#### Opcodes

```
  0: 0x0056 [0x1E] EventEntity looks at LocalPlayer and starts talking
  1: 0x005B [0x6F] WAIT_FRAME_DELAY: Yield until WaitTime reaches zero
  2: 0x005C [0x70] WAIT_ENTITY_RENDER_FLAG: Wait while EventEntity->Render.Flags3 bit 2 is set (cancel turn if not)
  3: 0x005D [0x29] REQ_SET_WAIT(priority=0x08, entity_id=Gordias (ID: 17752197/0x010EE085), tag_num=0x03)
  4: 0x0064 [0x1D] PRINT_EVENT_MESSAGE(message_id=8869*)
    → "Ahhh, I'm sooo full! I just ate ten servings! Hahaha... Are you impressed? Well, that there restaurant sells only Tarutaru-sized servings, and ten is quite an easy amount to stomach."
  5: 0x0067 [0x23] WAIT_FOR_DIALOG_INTERACTION
  6: 0x0068 [0x1D] PRINT_EVENT_MESSAGE(message_id=8870*)
    → "However, the owner was telling me that during the Crystal War, there were times when a lack of rations forced the restaurant to close its doors. Can you believe it?"
  7: 0x006B [0x23] WAIT_FOR_DIALOG_INTERACTION
  8: 0x006C [0x29] REQ_SET_WAIT(priority=0x08, entity_id=Gordias (ID: 17752197/0x010EE085), tag_num=0x05)
  9: 0x0073 [0x20] SET_CLI_EVENT_UC_FLAG: Unlock player control
 10: 0x0075 [0x21] END_EVENT
 11: 0x0076 [0x00] END_REQSTACK()
```

### Event 1069

#### Metadata

| Field        | Value   |
|--------------|---------|
| Entrypoint   | 0x0077  |
| Data Size    | 1 bytes |
| Instructions | 1       |

```
      00 01 02 03 04 05 06 07  08 09 0A 0B 0C 0D 0E 0F
      -- -- -- -- -- -- -- --  -- -- -- -- -- -- -- --
0070:                      00                                  .        
```

#### Opcodes

```
  0: 0x0077 [0x00] END_REQSTACK()
```
