# 17752128 - Chomoro-Kyotoro

## Common Data

| Field            | Value                     |
|------------------|---------------------------|
| Zone             | Windurst Waters (ID: 238) |
| Block Size       | 1048 bytes                |
| Total Events     | 38                        |
| References Count | 19                        |

## List of Events

| Event ID                   | Entrypoint   |   Size |   Instructions |
|----------------------------|--------------|--------|----------------|
| [65535](#event-65535)      | 0x0000       |      1 |              1 |
| [65535.1](#event-655351)   | 0x0001       |     16 |              2 |
| [65535.2](#event-655352)   | 0x0011       |     22 |              4 |
| [65535.3](#event-655353)   | 0x0027       |     16 |              2 |
| [65535.4](#event-655354)   | 0x0037       |     14 |              2 |
| [65535.5](#event-655355)   | 0x0045       |     16 |              2 |
| [65535.6](#event-655356)   | 0x0055       |     14 |              2 |
| [65535.7](#event-655357)   | 0x0063       |     57 |              5 |
| [65535.8](#event-655358)   | 0x009C       |     16 |              2 |
| [65535.9](#event-655359)   | 0x00AC       |     14 |              2 |
| [65535.10](#event-6553510) | 0x00BA       |     16 |              2 |
| [65535.11](#event-6553511) | 0x00CA       |     22 |              4 |
| [65535.12](#event-6553512) | 0x00E0       |     16 |              2 |
| [65535.13](#event-6553513) | 0x00F0       |     22 |              4 |
| [65535.14](#event-6553514) | 0x0106       |     16 |              2 |
| [65535.15](#event-6553515) | 0x0116       |     14 |              2 |
| [65535.16](#event-6553516) | 0x0124       |     16 |              2 |
| [65535.17](#event-6553517) | 0x0134       |     14 |              2 |
| [65535.18](#event-6553518) | 0x0142       |     16 |              2 |
| [65535.19](#event-6553519) | 0x0152       |     22 |              4 |
| [65535.20](#event-6553520) | 0x0168       |     16 |              2 |
| [65535.21](#event-6553521) | 0x0178       |     14 |              2 |
| [65535.22](#event-6553522) | 0x0186       |     16 |              2 |
| [65535.23](#event-6553523) | 0x0196       |     22 |              4 |
| [65535.24](#event-6553524) | 0x01AC       |     16 |              2 |
| [65535.25](#event-6553525) | 0x01BC       |     14 |              2 |
| [65535.26](#event-6553526) | 0x01CA       |     16 |              2 |
| [65535.27](#event-6553527) | 0x01DA       |     14 |              2 |
| [65535.28](#event-6553528) | 0x01E8       |      9 |              3 |
| [432](#event-432)          | 0x01F1       |     29 |             10 |
| [195](#event-195)          | 0x020E       |     29 |             10 |
| [489](#event-489)          | 0x022B       |     33 |             12 |
| [507](#event-507)          | 0x024C       |     33 |             12 |
| [454](#event-454)          | 0x026D       |     33 |             12 |
| [457](#event-457)          | 0x028E       |     33 |             12 |
| [460](#event-460)          | 0x02AF       |     51 |             16 |
| [461](#event-461)          | 0x02E2       |     33 |             12 |
| [472](#event-472)          | 0x0303       |     33 |             12 |

## DAT References (imed_data)

|   Index | Hex Value   |   Dec Value |
|---------|-------------|-------------|
|       0 | 0x0055      |          85 |
|       1 | 0x001E      |          30 |
|       2 | 0x20A5      |        8357 |
|       3 | 0x1E53      |        7763 |
|       4 | 0x2120      |        8480 |
|       5 | 0x2121      |        8481 |
|       6 | 0x214D      |        8525 |
|       7 | 0x214E      |        8526 |
|       8 | 0x20D7      |        8407 |
|       9 | 0x20D8      |        8408 |
|      10 | 0x20DD      |        8413 |
|      11 | 0x20DE      |        8414 |
|      12 | 0x20E5      |        8421 |
|      13 | 0x20E6      |        8422 |
|      14 | 0x20E7      |        8423 |
|      15 | 0x20E8      |        8424 |
|      16 | 0x20E9      |        8425 |
|      17 | 0x2100      |        8448 |
|      18 | 0x2101      |        8449 |

## String References

- **7763**: H-h-h-h-huh... G-g-go o-outside and f-fight m-m-monsters...? J-j-just the th-thought of it m-makes m-me, sh-sh-shake.
- **8357**: Aaargh! I, I, I still d-don't understand these at all! A-a-after a-all that pr-preparation...<sniff>
- **8407**: I-I-I'm pretty confident too, you know? I, I bet I'll get over 50%!
- **8408**: But, it's gre...I mean, too bad the results aren't coming back, huh? A-he-he-he-he...
- **8413**: H-huh...!? You, you found the answer sheets!?
- **8414**: ...... R-really? All the answer sheets? A-a-are you sure...?
- **8421**: Huh? Wh-wh-what's that? The principal said I should have this?
- **8422**: !!!
- **8423**: ...... ...I-I'm sorry! Sorry for the trouble, I caused you. I-I promise I'll never do it again!
- **8424**: ... I-I-I promise I'll never do such a thing again!
- **8425**: I-I'll never throw this answer sheet away again. I-I now know you have to learn from your mistakes...
- **8448**: I, I, I thought growing p-plants was supposed to be easy. L-l-like they just g-grow by themselves, r-right?
- **8449**: B-but I let mine b-be and they d-dried up! It's actually r-r-really hard!
- **8480**: I, I w-wonder how c-come Paku-Nakku c-can use all those d-different magic w-wands so w-well?
- **8481**: I-is h-he a n-natural b-born g-genius? I, I, I w-wish I w-was m-more l-like h-him!!
- **8525**: Wo-wow, the A-agatha Cr-Crystalie whodunit s-series!? I-if they're th-that g-good, m-maybe I sh-should r-read th-them too!
- **8526**: B-but, I'm a s-slow r-reader. I d-don't w-want to k-keep the n-next p-person w-waiting, s-so m-maybe I sh-should w-wait till e-everyone e-else h-has f-f-finished r-r-reading th-them...

## Events

### Event 65535

#### Metadata

| Field        | Value   |
|--------------|---------|
| Entrypoint   | 0x0000  |
| Data Size    | 1 bytes |
| Instructions | 1       |

```
      00 01 02 03 04 05 06 07  08 09 0A 0B 0C 0D 0E 0F
      -- -- -- -- -- -- -- --  -- -- -- -- -- -- -- --
0000: 00                                                .               
```

#### Opcodes

```
  0: 0x0000 [0x00] END_REQSTACK()
```

### Event 65535.1

#### Metadata

| Field        | Value    |
|--------------|----------|
| Entrypoint   | 0x0001   |
| Data Size    | 16 bytes |
| Instructions | 2        |

```
      00 01 02 03 04 05 06 07  08 09 0A 0B 0C 0D 0E 0F
      -- -- -- -- -- -- -- --  -- -- -- -- -- -- -- --
0000:    5B 00 80 F8 FF FF 7F  F8 FF FF 7F 74 6C 6B 30   [..........tlk0
0010: 00                                                .               
```

#### Opcodes

```
  0: 0x0001 [0x5B] LOAD_EXT_SCHEDULER: Load scheduler "tlk0" with entities [EventEntity, EventEntity], work=85*
  1: 0x0010 [0x00] END_REQSTACK()
```

### Event 65535.2

#### Metadata

| Field        | Value    |
|--------------|----------|
| Entrypoint   | 0x0011   |
| Data Size    | 22 bytes |
| Instructions | 4        |

```
      00 01 02 03 04 05 06 07  08 09 0A 0B 0C 0D 0E 0F
      -- -- -- -- -- -- -- --  -- -- -- -- -- -- -- --
0010:    53 F8 FF FF 7F F8 FF  FF 7F 74 6C 6B 30 5E 69   S........tlk0^i
0020: 64 6C 30 1C 01 80 00                              dl0....         
```

#### Opcodes

```
  0: 0x0011 [0x53] WAIT_SCHEDULER_TASK: Wait for scheduler "tlk0" with entities [EventEntity, EventEntity]
  1: 0x001E [0x5E] EventEntity goes idle (kills current action) (animation: "idl0")
  2: 0x0023 [0x1C] WAIT(30* ticks)
  3: 0x0026 [0x00] END_REQSTACK()
```

### Event 65535.3

#### Metadata

| Field        | Value    |
|--------------|----------|
| Entrypoint   | 0x0027   |
| Data Size    | 16 bytes |
| Instructions | 2        |

```
      00 01 02 03 04 05 06 07  08 09 0A 0B 0C 0D 0E 0F
      -- -- -- -- -- -- -- --  -- -- -- -- -- -- -- --
0020:                      5B  00 80 F8 FF FF 7F F8 FF         [........
0030: FF 7F 74 68 6B 31 00                              ..thk1.         
```

#### Opcodes

```
  0: 0x0027 [0x5B] LOAD_EXT_SCHEDULER: Load scheduler "thk1" with entities [EventEntity, EventEntity], work=85*
  1: 0x0036 [0x00] END_REQSTACK()
```

### Event 65535.4

#### Metadata

| Field        | Value    |
|--------------|----------|
| Entrypoint   | 0x0037   |
| Data Size    | 14 bytes |
| Instructions | 2        |

```
      00 01 02 03 04 05 06 07  08 09 0A 0B 0C 0D 0E 0F
      -- -- -- -- -- -- -- --  -- -- -- -- -- -- -- --
0030:                      53  F8 FF FF 7F F8 FF FF 7F         S........
0040: 74 68 6B 31 00                                    thk1.           
```

#### Opcodes

```
  0: 0x0037 [0x53] WAIT_SCHEDULER_TASK: Wait for scheduler "thk1" with entities [EventEntity, EventEntity]
  1: 0x0044 [0x00] END_REQSTACK()
```

### Event 65535.5

#### Metadata

| Field        | Value    |
|--------------|----------|
| Entrypoint   | 0x0045   |
| Data Size    | 16 bytes |
| Instructions | 2        |

```
      00 01 02 03 04 05 06 07  08 09 0A 0B 0C 0D 0E 0F
      -- -- -- -- -- -- -- --  -- -- -- -- -- -- -- --
0040:                5B 00 80  F8 FF FF 7F F8 FF FF 7F       [..........
0050: 74 68 6B 32 00                                    thk2.           
```

#### Opcodes

```
  0: 0x0045 [0x5B] LOAD_EXT_SCHEDULER: Load scheduler "thk2" with entities [EventEntity, EventEntity], work=85*
  1: 0x0054 [0x00] END_REQSTACK()
```

### Event 65535.6

#### Metadata

| Field        | Value    |
|--------------|----------|
| Entrypoint   | 0x0055   |
| Data Size    | 14 bytes |
| Instructions | 2        |

```
      00 01 02 03 04 05 06 07  08 09 0A 0B 0C 0D 0E 0F
      -- -- -- -- -- -- -- --  -- -- -- -- -- -- -- --
0050:                53 F8 FF  FF 7F F8 FF FF 7F 74 68       S........th
0060: 6B 32 00                                          k2.             
```

#### Opcodes

```
  0: 0x0055 [0x53] WAIT_SCHEDULER_TASK: Wait for scheduler "thk2" with entities [EventEntity, EventEntity]
  1: 0x0062 [0x00] END_REQSTACK()
```

### Event 65535.7

#### Metadata

| Field        | Value    |
|--------------|----------|
| Entrypoint   | 0x0063   |
| Data Size    | 57 bytes |
| Instructions | 5        |

```
      00 01 02 03 04 05 06 07  08 09 0A 0B 0C 0D 0E 0F
      -- -- -- -- -- -- -- --  -- -- -- -- -- -- -- --
0060:          5B 00 80 F8 FF  FF 7F F8 FF FF 7F 74 68     [..........th
0070: 6B 31 53 F8 FF FF 7F F8  FF FF 7F 74 68 6B 31 5B  k1S........thk1[
0080: 00 80 F8 FF FF 7F F8 FF  FF 7F 74 68 6B 32 53 F8  ..........thk2S.
0090: FF FF 7F F8 FF FF 7F 74  68 6B 32 00              .......thk2.    
```

#### Opcodes

```
  0: 0x0063 [0x5B] LOAD_EXT_SCHEDULER: Load scheduler "thk1" with entities [EventEntity, EventEntity], work=85*
  1: 0x0072 [0x53] WAIT_SCHEDULER_TASK: Wait for scheduler "thk1" with entities [EventEntity, EventEntity]
  2: 0x007F [0x5B] LOAD_EXT_SCHEDULER: Load scheduler "thk2" with entities [EventEntity, EventEntity], work=85*
  3: 0x008E [0x53] WAIT_SCHEDULER_TASK: Wait for scheduler "thk2" with entities [EventEntity, EventEntity]
  4: 0x009B [0x00] END_REQSTACK()
```

### Event 65535.8

#### Metadata

| Field        | Value    |
|--------------|----------|
| Entrypoint   | 0x009C   |
| Data Size    | 16 bytes |
| Instructions | 2        |

```
      00 01 02 03 04 05 06 07  08 09 0A 0B 0C 0D 0E 0F
      -- -- -- -- -- -- -- --  -- -- -- -- -- -- -- --
0090:                                      5B 00 80 F8              [...
00A0: FF FF 7F F8 FF FF 7F 65  68 65 30 00              .......ehe0.    
```

#### Opcodes

```
  0: 0x009C [0x5B] LOAD_EXT_SCHEDULER: Load scheduler "ehe0" with entities [EventEntity, EventEntity], work=85*
  1: 0x00AB [0x00] END_REQSTACK()
```

### Event 65535.9

#### Metadata

| Field        | Value    |
|--------------|----------|
| Entrypoint   | 0x00AC   |
| Data Size    | 14 bytes |
| Instructions | 2        |

```
      00 01 02 03 04 05 06 07  08 09 0A 0B 0C 0D 0E 0F
      -- -- -- -- -- -- -- --  -- -- -- -- -- -- -- --
00A0:                                      53 F8 FF FF              S...
00B0: 7F F8 FF FF 7F 74 6C 6B  30 00                    .....tlk0.      
```

#### Opcodes

```
  0: 0x00AC [0x53] WAIT_SCHEDULER_TASK: Wait for scheduler "tlk0" with entities [EventEntity, EventEntity]
  1: 0x00B9 [0x00] END_REQSTACK()
```

### Event 65535.10

#### Metadata

| Field        | Value    |
|--------------|----------|
| Entrypoint   | 0x00BA   |
| Data Size    | 16 bytes |
| Instructions | 2        |

```
      00 01 02 03 04 05 06 07  08 09 0A 0B 0C 0D 0E 0F
      -- -- -- -- -- -- -- --  -- -- -- -- -- -- -- --
00B0:                                5B 00 80 F8 FF FF            [.....
00C0: 7F F8 FF FF 7F 61 6E 67  30 00                    .....ang0.      
```

#### Opcodes

```
  0: 0x00BA [0x5B] LOAD_EXT_SCHEDULER: Load scheduler "ang0" with entities [EventEntity, EventEntity], work=85*
  1: 0x00C9 [0x00] END_REQSTACK()
```

### Event 65535.11

#### Metadata

| Field        | Value    |
|--------------|----------|
| Entrypoint   | 0x00CA   |
| Data Size    | 22 bytes |
| Instructions | 4        |

```
      00 01 02 03 04 05 06 07  08 09 0A 0B 0C 0D 0E 0F
      -- -- -- -- -- -- -- --  -- -- -- -- -- -- -- --
00C0:                                53 F8 FF FF 7F F8            S.....
00D0: FF FF 7F 61 6E 67 30 5E  69 64 6C 30 1C 01 80 00  ...ang0^idl0....
```

#### Opcodes

```
  0: 0x00CA [0x53] WAIT_SCHEDULER_TASK: Wait for scheduler "ang0" with entities [EventEntity, EventEntity]
  1: 0x00D7 [0x5E] EventEntity goes idle (kills current action) (animation: "idl0")
  2: 0x00DC [0x1C] WAIT(30* ticks)
  3: 0x00DF [0x00] END_REQSTACK()
```

### Event 65535.12

#### Metadata

| Field        | Value    |
|--------------|----------|
| Entrypoint   | 0x00E0   |
| Data Size    | 16 bytes |
| Instructions | 2        |

```
      00 01 02 03 04 05 06 07  08 09 0A 0B 0C 0D 0E 0F
      -- -- -- -- -- -- -- --  -- -- -- -- -- -- -- --
00E0: 5B 00 80 F8 FF FF 7F F8  FF FF 7F 6B 6F 77 30 00  [..........kow0.
```

#### Opcodes

```
  0: 0x00E0 [0x5B] LOAD_EXT_SCHEDULER: Load scheduler "kow0" with entities [EventEntity, EventEntity], work=85*
  1: 0x00EF [0x00] END_REQSTACK()
```

### Event 65535.13

#### Metadata

| Field        | Value    |
|--------------|----------|
| Entrypoint   | 0x00F0   |
| Data Size    | 22 bytes |
| Instructions | 4        |

```
      00 01 02 03 04 05 06 07  08 09 0A 0B 0C 0D 0E 0F
      -- -- -- -- -- -- -- --  -- -- -- -- -- -- -- --
00F0: 53 F8 FF FF 7F F8 FF FF  7F 6B 6F 77 30 5E 69 64  S........kow0^id
0100: 6C 30 1C 01 80 00                                 l0....          
```

#### Opcodes

```
  0: 0x00F0 [0x53] WAIT_SCHEDULER_TASK: Wait for scheduler "kow0" with entities [EventEntity, EventEntity]
  1: 0x00FD [0x5E] EventEntity goes idle (kills current action) (animation: "idl0")
  2: 0x0102 [0x1C] WAIT(30* ticks)
  3: 0x0105 [0x00] END_REQSTACK()
```

### Event 65535.14

#### Metadata

| Field        | Value    |
|--------------|----------|
| Entrypoint   | 0x0106   |
| Data Size    | 16 bytes |
| Instructions | 2        |

```
      00 01 02 03 04 05 06 07  08 09 0A 0B 0C 0D 0E 0F
      -- -- -- -- -- -- -- --  -- -- -- -- -- -- -- --
0100:                   5B 00  80 F8 FF FF 7F F8 FF FF        [.........
0110: 7F 73 75 72 30 00                                 .sur0.          
```

#### Opcodes

```
  0: 0x0106 [0x5B] LOAD_EXT_SCHEDULER: Load scheduler "sur0" with entities [EventEntity, EventEntity], work=85*
  1: 0x0115 [0x00] END_REQSTACK()
```

### Event 65535.15

#### Metadata

| Field        | Value    |
|--------------|----------|
| Entrypoint   | 0x0116   |
| Data Size    | 14 bytes |
| Instructions | 2        |

```
      00 01 02 03 04 05 06 07  08 09 0A 0B 0C 0D 0E 0F
      -- -- -- -- -- -- -- --  -- -- -- -- -- -- -- --
0110:                   53 F8  FF FF 7F F8 FF FF 7F 73        S........s
0120: 75 72 30 00                                       ur0.            
```

#### Opcodes

```
  0: 0x0116 [0x53] WAIT_SCHEDULER_TASK: Wait for scheduler "sur0" with entities [EventEntity, EventEntity]
  1: 0x0123 [0x00] END_REQSTACK()
```

### Event 65535.16

#### Metadata

| Field        | Value    |
|--------------|----------|
| Entrypoint   | 0x0124   |
| Data Size    | 16 bytes |
| Instructions | 2        |

```
      00 01 02 03 04 05 06 07  08 09 0A 0B 0C 0D 0E 0F
      -- -- -- -- -- -- -- --  -- -- -- -- -- -- -- --
0120:             5B 00 80 F8  FF FF 7F F8 FF FF 7F 74      [..........t
0130: 6C 6B 32 00                                       lk2.            
```

#### Opcodes

```
  0: 0x0124 [0x5B] LOAD_EXT_SCHEDULER: Load scheduler "tlk2" with entities [EventEntity, EventEntity], work=85*
  1: 0x0133 [0x00] END_REQSTACK()
```

### Event 65535.17

#### Metadata

| Field        | Value    |
|--------------|----------|
| Entrypoint   | 0x0134   |
| Data Size    | 14 bytes |
| Instructions | 2        |

```
      00 01 02 03 04 05 06 07  08 09 0A 0B 0C 0D 0E 0F
      -- -- -- -- -- -- -- --  -- -- -- -- -- -- -- --
0130:             53 F8 FF FF  7F F8 FF FF 7F 74 6C 6B      S........tlk
0140: 32 00                                             2.              
```

#### Opcodes

```
  0: 0x0134 [0x53] WAIT_SCHEDULER_TASK: Wait for scheduler "tlk2" with entities [EventEntity, EventEntity]
  1: 0x0141 [0x00] END_REQSTACK()
```

### Event 65535.18

#### Metadata

| Field        | Value    |
|--------------|----------|
| Entrypoint   | 0x0142   |
| Data Size    | 16 bytes |
| Instructions | 2        |

```
      00 01 02 03 04 05 06 07  08 09 0A 0B 0C 0D 0E 0F
      -- -- -- -- -- -- -- --  -- -- -- -- -- -- -- --
0140:       5B 00 80 F8 FF FF  7F F8 FF FF 7F 6B 6F 75    [..........kou
0150: 30 00                                             0.              
```

#### Opcodes

```
  0: 0x0142 [0x5B] LOAD_EXT_SCHEDULER: Load scheduler "kou0" with entities [EventEntity, EventEntity], work=85*
  1: 0x0151 [0x00] END_REQSTACK()
```

### Event 65535.19

#### Metadata

| Field        | Value    |
|--------------|----------|
| Entrypoint   | 0x0152   |
| Data Size    | 22 bytes |
| Instructions | 4        |

```
      00 01 02 03 04 05 06 07  08 09 0A 0B 0C 0D 0E 0F
      -- -- -- -- -- -- -- --  -- -- -- -- -- -- -- --
0150:       53 F8 FF FF 7F F8  FF FF 7F 6B 6F 75 30 5E    S........kou0^
0160: 69 64 6C 30 1C 01 80 00                           idl0....        
```

#### Opcodes

```
  0: 0x0152 [0x53] WAIT_SCHEDULER_TASK: Wait for scheduler "kou0" with entities [EventEntity, EventEntity]
  1: 0x015F [0x5E] EventEntity goes idle (kills current action) (animation: "idl0")
  2: 0x0164 [0x1C] WAIT(30* ticks)
  3: 0x0167 [0x00] END_REQSTACK()
```

### Event 65535.20

#### Metadata

| Field        | Value    |
|--------------|----------|
| Entrypoint   | 0x0168   |
| Data Size    | 16 bytes |
| Instructions | 2        |

```
      00 01 02 03 04 05 06 07  08 09 0A 0B 0C 0D 0E 0F
      -- -- -- -- -- -- -- --  -- -- -- -- -- -- -- --
0160:                          5B 00 80 F8 FF FF 7F F8          [.......
0170: FF FF 7F 6A 6D 70 30 00                           ...jmp0.        
```

#### Opcodes

```
  0: 0x0168 [0x5B] LOAD_EXT_SCHEDULER: Load scheduler "jmp0" with entities [EventEntity, EventEntity], work=85*
  1: 0x0177 [0x00] END_REQSTACK()
```

### Event 65535.21

#### Metadata

| Field        | Value    |
|--------------|----------|
| Entrypoint   | 0x0178   |
| Data Size    | 14 bytes |
| Instructions | 2        |

```
      00 01 02 03 04 05 06 07  08 09 0A 0B 0C 0D 0E 0F
      -- -- -- -- -- -- -- --  -- -- -- -- -- -- -- --
0170:                          53 F8 FF FF 7F F8 FF FF          S.......
0180: 7F 6A 6D 70 30 00                                 .jmp0.          
```

#### Opcodes

```
  0: 0x0178 [0x53] WAIT_SCHEDULER_TASK: Wait for scheduler "jmp0" with entities [EventEntity, EventEntity]
  1: 0x0185 [0x00] END_REQSTACK()
```

### Event 65535.22

#### Metadata

| Field        | Value    |
|--------------|----------|
| Entrypoint   | 0x0186   |
| Data Size    | 16 bytes |
| Instructions | 2        |

```
      00 01 02 03 04 05 06 07  08 09 0A 0B 0C 0D 0E 0F
      -- -- -- -- -- -- -- --  -- -- -- -- -- -- -- --
0180:                   5B 00  80 F8 FF FF 7F F8 FF FF        [.........
0190: 7F 70 61 6E 30 00                                 .pan0.          
```

#### Opcodes

```
  0: 0x0186 [0x5B] LOAD_EXT_SCHEDULER: Load scheduler "pan0" with entities [EventEntity, EventEntity], work=85*
  1: 0x0195 [0x00] END_REQSTACK()
```

### Event 65535.23

#### Metadata

| Field        | Value    |
|--------------|----------|
| Entrypoint   | 0x0196   |
| Data Size    | 22 bytes |
| Instructions | 4        |

```
      00 01 02 03 04 05 06 07  08 09 0A 0B 0C 0D 0E 0F
      -- -- -- -- -- -- -- --  -- -- -- -- -- -- -- --
0190:                   53 F8  FF FF 7F F8 FF FF 7F 70        S........p
01A0: 61 6E 30 5E 69 64 6C 30  1C 01 80 00              an0^idl0....    
```

#### Opcodes

```
  0: 0x0196 [0x53] WAIT_SCHEDULER_TASK: Wait for scheduler "pan0" with entities [EventEntity, EventEntity]
  1: 0x01A3 [0x5E] EventEntity goes idle (kills current action) (animation: "idl0")
  2: 0x01A8 [0x1C] WAIT(30* ticks)
  3: 0x01AB [0x00] END_REQSTACK()
```

### Event 65535.24

#### Metadata

| Field        | Value    |
|--------------|----------|
| Entrypoint   | 0x01AC   |
| Data Size    | 16 bytes |
| Instructions | 2        |

```
      00 01 02 03 04 05 06 07  08 09 0A 0B 0C 0D 0E 0F
      -- -- -- -- -- -- -- --  -- -- -- -- -- -- -- --
01A0:                                      5B 00 80 F8              [...
01B0: FF FF 7F F8 FF FF 7F 70  61 73 30 00              .......pas0.    
```

#### Opcodes

```
  0: 0x01AC [0x5B] LOAD_EXT_SCHEDULER: Load scheduler "pas0" with entities [EventEntity, EventEntity], work=85*
  1: 0x01BB [0x00] END_REQSTACK()
```

### Event 65535.25

#### Metadata

| Field        | Value    |
|--------------|----------|
| Entrypoint   | 0x01BC   |
| Data Size    | 14 bytes |
| Instructions | 2        |

```
      00 01 02 03 04 05 06 07  08 09 0A 0B 0C 0D 0E 0F
      -- -- -- -- -- -- -- --  -- -- -- -- -- -- -- --
01B0:                                      53 F8 FF FF              S...
01C0: 7F F8 FF FF 7F 70 61 73  30 00                    .....pas0.      
```

#### Opcodes

```
  0: 0x01BC [0x53] WAIT_SCHEDULER_TASK: Wait for scheduler "pas0" with entities [EventEntity, EventEntity]
  1: 0x01C9 [0x00] END_REQSTACK()
```

### Event 65535.26

#### Metadata

| Field        | Value    |
|--------------|----------|
| Entrypoint   | 0x01CA   |
| Data Size    | 16 bytes |
| Instructions | 2        |

```
      00 01 02 03 04 05 06 07  08 09 0A 0B 0C 0D 0E 0F
      -- -- -- -- -- -- -- --  -- -- -- -- -- -- -- --
01C0:                                5B 00 80 F8 FF FF            [.....
01D0: 7F F8 FF FF 7F 62 61 6E  30 00                    .....ban0.      
```

#### Opcodes

```
  0: 0x01CA [0x5B] LOAD_EXT_SCHEDULER: Load scheduler "ban0" with entities [EventEntity, EventEntity], work=85*
  1: 0x01D9 [0x00] END_REQSTACK()
```

### Event 65535.27

#### Metadata

| Field        | Value    |
|--------------|----------|
| Entrypoint   | 0x01DA   |
| Data Size    | 14 bytes |
| Instructions | 2        |

```
      00 01 02 03 04 05 06 07  08 09 0A 0B 0C 0D 0E 0F
      -- -- -- -- -- -- -- --  -- -- -- -- -- -- -- --
01D0:                                53 F8 FF FF 7F F8            S.....
01E0: FF FF 7F 62 61 6E 30 00                           ...ban0.        
```

#### Opcodes

```
  0: 0x01DA [0x53] WAIT_SCHEDULER_TASK: Wait for scheduler "ban0" with entities [EventEntity, EventEntity]
  1: 0x01E7 [0x00] END_REQSTACK()
```

### Event 65535.28

#### Metadata

| Field        | Value   |
|--------------|---------|
| Entrypoint   | 0x01E8  |
| Data Size    | 9 bytes |
| Instructions | 3       |

```
      00 01 02 03 04 05 06 07  08 09 0A 0B 0C 0D 0E 0F
      -- -- -- -- -- -- -- --  -- -- -- -- -- -- -- --
01E0:                          5E 69 64 6C 30 1C 01 80          ^idl0...
01F0: 00                                                .               
```

#### Opcodes

```
  0: 0x01E8 [0x5E] EventEntity goes idle (kills current action) (animation: "idl0")
  1: 0x01ED [0x1C] WAIT(30* ticks)
  2: 0x01F0 [0x00] END_REQSTACK()
```

### Event 432

#### Metadata

| Field        | Value    |
|--------------|----------|
| Entrypoint   | 0x01F1   |
| Data Size    | 29 bytes |
| Instructions | 10       |

```
      00 01 02 03 04 05 06 07  08 09 0A 0B 0C 0D 0E 0F
      -- -- -- -- -- -- -- --  -- -- -- -- -- -- -- --
01F0:    1E F0 FF FF 7F 6F 70  29 08 40 E0 0E 01 01 1D   .....op).@.....
0200: 02 80 23 29 08 40 E0 0E  01 02 20 00 21 00        ..#).@.... .!.  
```

#### Opcodes

```
  0: 0x01F1 [0x1E] EventEntity looks at LocalPlayer and starts talking
  1: 0x01F6 [0x6F] WAIT_FRAME_DELAY: Yield until WaitTime reaches zero
  2: 0x01F7 [0x70] WAIT_ENTITY_RENDER_FLAG: Wait while EventEntity->Render.Flags3 bit 2 is set (cancel turn if not)
  3: 0x01F8 [0x29] REQ_SET_WAIT(priority=0x08, entity_id=Chomoro-Kyotoro (ID: 17752128/0x010EE040), tag_num=0x01)
  4: 0x01FF [0x1D] PRINT_EVENT_MESSAGE(message_id=8357*)
    → "Aaargh! I, I, I still d-don't understand these at all! A-a-after a-all that pr-preparation...<sniff>"
  5: 0x0202 [0x23] WAIT_FOR_DIALOG_INTERACTION
  6: 0x0203 [0x29] REQ_SET_WAIT(priority=0x08, entity_id=Chomoro-Kyotoro (ID: 17752128/0x010EE040), tag_num=0x02)
  7: 0x020A [0x20] SET_CLI_EVENT_UC_FLAG: Unlock player control
  8: 0x020C [0x21] END_EVENT
  9: 0x020D [0x00] END_REQSTACK()
```

### Event 195

#### Metadata

| Field        | Value    |
|--------------|----------|
| Entrypoint   | 0x020E   |
| Data Size    | 29 bytes |
| Instructions | 10       |

```
      00 01 02 03 04 05 06 07  08 09 0A 0B 0C 0D 0E 0F
      -- -- -- -- -- -- -- --  -- -- -- -- -- -- -- --
0200:                                            1E F0                ..
0210: FF FF 7F 6F 70 29 08 40  E0 0E 01 01 1D 03 80 23  ...op).@.......#
0220: 29 08 40 E0 0E 01 02 20  00 21 00                 ).@.... .!.     
```

#### Opcodes

```
  0: 0x020E [0x1E] EventEntity looks at LocalPlayer and starts talking
  1: 0x0213 [0x6F] WAIT_FRAME_DELAY: Yield until WaitTime reaches zero
  2: 0x0214 [0x70] WAIT_ENTITY_RENDER_FLAG: Wait while EventEntity->Render.Flags3 bit 2 is set (cancel turn if not)
  3: 0x0215 [0x29] REQ_SET_WAIT(priority=0x08, entity_id=Chomoro-Kyotoro (ID: 17752128/0x010EE040), tag_num=0x01)
  4: 0x021C [0x1D] PRINT_EVENT_MESSAGE(message_id=7763*)
    → "H-h-h-h-huh... G-g-go o-outside and f-fight m-m-monsters...? J-j-just the th-thought of it m-makes m-me, sh-sh-shake."
  5: 0x021F [0x23] WAIT_FOR_DIALOG_INTERACTION
  6: 0x0220 [0x29] REQ_SET_WAIT(priority=0x08, entity_id=Chomoro-Kyotoro (ID: 17752128/0x010EE040), tag_num=0x02)
  7: 0x0227 [0x20] SET_CLI_EVENT_UC_FLAG: Unlock player control
  8: 0x0229 [0x21] END_EVENT
  9: 0x022A [0x00] END_REQSTACK()
```

### Event 489

#### Metadata

| Field        | Value    |
|--------------|----------|
| Entrypoint   | 0x022B   |
| Data Size    | 33 bytes |
| Instructions | 12       |

```
      00 01 02 03 04 05 06 07  08 09 0A 0B 0C 0D 0E 0F
      -- -- -- -- -- -- -- --  -- -- -- -- -- -- -- --
0220:                                   1E F0 FF FF 7F             .....
0230: 6F 70 29 08 40 E0 0E 01  01 1D 04 80 23 1D 05 80  op).@.......#...
0240: 23 29 08 40 E0 0E 01 02  20 00 21 00              #).@.... .!.    
```

#### Opcodes

```
  0: 0x022B [0x1E] EventEntity looks at LocalPlayer and starts talking
  1: 0x0230 [0x6F] WAIT_FRAME_DELAY: Yield until WaitTime reaches zero
  2: 0x0231 [0x70] WAIT_ENTITY_RENDER_FLAG: Wait while EventEntity->Render.Flags3 bit 2 is set (cancel turn if not)
  3: 0x0232 [0x29] REQ_SET_WAIT(priority=0x08, entity_id=Chomoro-Kyotoro (ID: 17752128/0x010EE040), tag_num=0x01)
  4: 0x0239 [0x1D] PRINT_EVENT_MESSAGE(message_id=8480*)
    → "I, I w-wonder how c-come Paku-Nakku c-can use all those d-different magic w-wands so w-well?"
  5: 0x023C [0x23] WAIT_FOR_DIALOG_INTERACTION
  6: 0x023D [0x1D] PRINT_EVENT_MESSAGE(message_id=8481*)
    → "I-is h-he a n-natural b-born g-genius? I, I, I w-wish I w-was m-more l-like h-him!!"
  7: 0x0240 [0x23] WAIT_FOR_DIALOG_INTERACTION
  8: 0x0241 [0x29] REQ_SET_WAIT(priority=0x08, entity_id=Chomoro-Kyotoro (ID: 17752128/0x010EE040), tag_num=0x02)
  9: 0x0248 [0x20] SET_CLI_EVENT_UC_FLAG: Unlock player control
 10: 0x024A [0x21] END_EVENT
 11: 0x024B [0x00] END_REQSTACK()
```

### Event 507

#### Metadata

| Field        | Value    |
|--------------|----------|
| Entrypoint   | 0x024C   |
| Data Size    | 33 bytes |
| Instructions | 12       |

```
      00 01 02 03 04 05 06 07  08 09 0A 0B 0C 0D 0E 0F
      -- -- -- -- -- -- -- --  -- -- -- -- -- -- -- --
0240:                                      1E F0 FF FF              ....
0250: 7F 6F 70 29 08 40 E0 0E  01 01 1D 06 80 23 1D 07  .op).@.......#..
0260: 80 23 29 08 40 E0 0E 01  02 20 00 21 00           .#).@.... .!.   
```

#### Opcodes

```
  0: 0x024C [0x1E] EventEntity looks at LocalPlayer and starts talking
  1: 0x0251 [0x6F] WAIT_FRAME_DELAY: Yield until WaitTime reaches zero
  2: 0x0252 [0x70] WAIT_ENTITY_RENDER_FLAG: Wait while EventEntity->Render.Flags3 bit 2 is set (cancel turn if not)
  3: 0x0253 [0x29] REQ_SET_WAIT(priority=0x08, entity_id=Chomoro-Kyotoro (ID: 17752128/0x010EE040), tag_num=0x01)
  4: 0x025A [0x1D] PRINT_EVENT_MESSAGE(message_id=8525*)
    → "Wo-wow, the A-agatha Cr-Crystalie whodunit s-series!? I-if they're th-that g-good, m-maybe I sh-should r-read th-them too!"
  5: 0x025D [0x23] WAIT_FOR_DIALOG_INTERACTION
  6: 0x025E [0x1D] PRINT_EVENT_MESSAGE(message_id=8526*)
    → "B-but, I'm a s-slow r-reader. I d-don't w-want to k-keep the n-next p-person w-waiting, s-so m-maybe I sh-should w-wait till e-everyone e-else h-has f-f-finished r-r-reading th-them..."
  7: 0x0261 [0x23] WAIT_FOR_DIALOG_INTERACTION
  8: 0x0262 [0x29] REQ_SET_WAIT(priority=0x08, entity_id=Chomoro-Kyotoro (ID: 17752128/0x010EE040), tag_num=0x02)
  9: 0x0269 [0x20] SET_CLI_EVENT_UC_FLAG: Unlock player control
 10: 0x026B [0x21] END_EVENT
 11: 0x026C [0x00] END_REQSTACK()
```

### Event 454

#### Metadata

| Field        | Value    |
|--------------|----------|
| Entrypoint   | 0x026D   |
| Data Size    | 33 bytes |
| Instructions | 12       |

```
      00 01 02 03 04 05 06 07  08 09 0A 0B 0C 0D 0E 0F
      -- -- -- -- -- -- -- --  -- -- -- -- -- -- -- --
0260:                                         1E F0 FF               ...
0270: FF 7F 6F 70 29 08 40 E0  0E 01 01 1D 08 80 23 1D  ..op).@.......#.
0280: 09 80 23 29 08 40 E0 0E  01 02 20 00 21 00        ..#).@.... .!.  
```

#### Opcodes

```
  0: 0x026D [0x1E] EventEntity looks at LocalPlayer and starts talking
  1: 0x0272 [0x6F] WAIT_FRAME_DELAY: Yield until WaitTime reaches zero
  2: 0x0273 [0x70] WAIT_ENTITY_RENDER_FLAG: Wait while EventEntity->Render.Flags3 bit 2 is set (cancel turn if not)
  3: 0x0274 [0x29] REQ_SET_WAIT(priority=0x08, entity_id=Chomoro-Kyotoro (ID: 17752128/0x010EE040), tag_num=0x01)
  4: 0x027B [0x1D] PRINT_EVENT_MESSAGE(message_id=8407*)
    → "I-I-I'm pretty confident too, you know? I, I bet I'll get over 50%!"
  5: 0x027E [0x23] WAIT_FOR_DIALOG_INTERACTION
  6: 0x027F [0x1D] PRINT_EVENT_MESSAGE(message_id=8408*)
    → "But, it's gre...I mean, too bad the results aren't coming back, huh? A-he-he-he-he..."
  7: 0x0282 [0x23] WAIT_FOR_DIALOG_INTERACTION
  8: 0x0283 [0x29] REQ_SET_WAIT(priority=0x08, entity_id=Chomoro-Kyotoro (ID: 17752128/0x010EE040), tag_num=0x02)
  9: 0x028A [0x20] SET_CLI_EVENT_UC_FLAG: Unlock player control
 10: 0x028C [0x21] END_EVENT
 11: 0x028D [0x00] END_REQSTACK()
```

### Event 457

#### Metadata

| Field        | Value    |
|--------------|----------|
| Entrypoint   | 0x028E   |
| Data Size    | 33 bytes |
| Instructions | 12       |

```
      00 01 02 03 04 05 06 07  08 09 0A 0B 0C 0D 0E 0F
      -- -- -- -- -- -- -- --  -- -- -- -- -- -- -- --
0280:                                            1E F0                ..
0290: FF FF 7F 6F 70 29 08 40  E0 0E 01 0C 1D 0A 80 23  ...op).@.......#
02A0: 1D 0B 80 23 29 08 40 E0  0E 01 0D 20 00 21 00     ...#).@.... .!. 
```

#### Opcodes

```
  0: 0x028E [0x1E] EventEntity looks at LocalPlayer and starts talking
  1: 0x0293 [0x6F] WAIT_FRAME_DELAY: Yield until WaitTime reaches zero
  2: 0x0294 [0x70] WAIT_ENTITY_RENDER_FLAG: Wait while EventEntity->Render.Flags3 bit 2 is set (cancel turn if not)
  3: 0x0295 [0x29] REQ_SET_WAIT(priority=0x08, entity_id=Chomoro-Kyotoro (ID: 17752128/0x010EE040), tag_num=0x0C)
  4: 0x029C [0x1D] PRINT_EVENT_MESSAGE(message_id=8413*)
    → "H-huh...!? You, you found the answer sheets!?"
  5: 0x029F [0x23] WAIT_FOR_DIALOG_INTERACTION
  6: 0x02A0 [0x1D] PRINT_EVENT_MESSAGE(message_id=8414*)
    → "...... R-really? All the answer sheets? A-a-are you sure...?"
  7: 0x02A3 [0x23] WAIT_FOR_DIALOG_INTERACTION
  8: 0x02A4 [0x29] REQ_SET_WAIT(priority=0x08, entity_id=Chomoro-Kyotoro (ID: 17752128/0x010EE040), tag_num=0x0D)
  9: 0x02AB [0x20] SET_CLI_EVENT_UC_FLAG: Unlock player control
 10: 0x02AD [0x21] END_EVENT
 11: 0x02AE [0x00] END_REQSTACK()
```

### Event 460

#### Metadata

| Field        | Value    |
|--------------|----------|
| Entrypoint   | 0x02AF   |
| Data Size    | 51 bytes |
| Instructions | 16       |

```
      00 01 02 03 04 05 06 07  08 09 0A 0B 0C 0D 0E 0F
      -- -- -- -- -- -- -- --  -- -- -- -- -- -- -- --
02A0:                                               1E                 .
02B0: F0 FF FF 7F 6F 70 29 08  40 E0 0E 01 01 1D 0C 80  ....op).@.......
02C0: 23 29 08 40 E0 0E 01 02  29 08 40 E0 0E 01 0E 1D  #).@....).@.....
02D0: 0D 80 23 29 08 40 E0 0E  01 0F 1D 0E 80 23 20 00  ..#).@.......# .
02E0: 21 00                                             !.              
```

#### Opcodes

```
  0: 0x02AF [0x1E] EventEntity looks at LocalPlayer and starts talking
  1: 0x02B4 [0x6F] WAIT_FRAME_DELAY: Yield until WaitTime reaches zero
  2: 0x02B5 [0x70] WAIT_ENTITY_RENDER_FLAG: Wait while EventEntity->Render.Flags3 bit 2 is set (cancel turn if not)
  3: 0x02B6 [0x29] REQ_SET_WAIT(priority=0x08, entity_id=Chomoro-Kyotoro (ID: 17752128/0x010EE040), tag_num=0x01)
  4: 0x02BD [0x1D] PRINT_EVENT_MESSAGE(message_id=8421*)
    → "Huh? Wh-wh-what's that? The principal said I should have this?"
  5: 0x02C0 [0x23] WAIT_FOR_DIALOG_INTERACTION
  6: 0x02C1 [0x29] REQ_SET_WAIT(priority=0x08, entity_id=Chomoro-Kyotoro (ID: 17752128/0x010EE040), tag_num=0x02)
  7: 0x02C8 [0x29] REQ_SET_WAIT(priority=0x08, entity_id=Chomoro-Kyotoro (ID: 17752128/0x010EE040), tag_num=0x0E)
  8: 0x02CF [0x1D] PRINT_EVENT_MESSAGE(message_id=8422*)
    → "!!!"
  9: 0x02D2 [0x23] WAIT_FOR_DIALOG_INTERACTION
 10: 0x02D3 [0x29] REQ_SET_WAIT(priority=0x08, entity_id=Chomoro-Kyotoro (ID: 17752128/0x010EE040), tag_num=0x0F)
 11: 0x02DA [0x1D] PRINT_EVENT_MESSAGE(message_id=8423*)
    → "...... ...I-I'm sorry! Sorry for the trouble, I caused you. I-I promise I'll never do it again!"
 12: 0x02DD [0x23] WAIT_FOR_DIALOG_INTERACTION
 13: 0x02DE [0x20] SET_CLI_EVENT_UC_FLAG: Unlock player control
 14: 0x02E0 [0x21] END_EVENT
 15: 0x02E1 [0x00] END_REQSTACK()
```

### Event 461

#### Metadata

| Field        | Value    |
|--------------|----------|
| Entrypoint   | 0x02E2   |
| Data Size    | 33 bytes |
| Instructions | 12       |

```
      00 01 02 03 04 05 06 07  08 09 0A 0B 0C 0D 0E 0F
      -- -- -- -- -- -- -- --  -- -- -- -- -- -- -- --
02E0:       1E F0 FF FF 7F 6F  70 29 08 40 E0 0E 01 0C    .....op).@....
02F0: 1D 0F 80 23 1D 10 80 23  29 08 40 E0 0E 01 0D 20  ...#...#).@.... 
0300: 00 21 00                                          .!.             
```

#### Opcodes

```
  0: 0x02E2 [0x1E] EventEntity looks at LocalPlayer and starts talking
  1: 0x02E7 [0x6F] WAIT_FRAME_DELAY: Yield until WaitTime reaches zero
  2: 0x02E8 [0x70] WAIT_ENTITY_RENDER_FLAG: Wait while EventEntity->Render.Flags3 bit 2 is set (cancel turn if not)
  3: 0x02E9 [0x29] REQ_SET_WAIT(priority=0x08, entity_id=Chomoro-Kyotoro (ID: 17752128/0x010EE040), tag_num=0x0C)
  4: 0x02F0 [0x1D] PRINT_EVENT_MESSAGE(message_id=8424*)
    → "... I-I-I promise I'll never do such a thing again!"
  5: 0x02F3 [0x23] WAIT_FOR_DIALOG_INTERACTION
  6: 0x02F4 [0x1D] PRINT_EVENT_MESSAGE(message_id=8425*)
    → "I-I'll never throw this answer sheet away again. I-I now know you have to learn from your mistakes..."
  7: 0x02F7 [0x23] WAIT_FOR_DIALOG_INTERACTION
  8: 0x02F8 [0x29] REQ_SET_WAIT(priority=0x08, entity_id=Chomoro-Kyotoro (ID: 17752128/0x010EE040), tag_num=0x0D)
  9: 0x02FF [0x20] SET_CLI_EVENT_UC_FLAG: Unlock player control
 10: 0x0301 [0x21] END_EVENT
 11: 0x0302 [0x00] END_REQSTACK()
```

### Event 472

#### Metadata

| Field        | Value    |
|--------------|----------|
| Entrypoint   | 0x0303   |
| Data Size    | 33 bytes |
| Instructions | 12       |

```
      00 01 02 03 04 05 06 07  08 09 0A 0B 0C 0D 0E 0F
      -- -- -- -- -- -- -- --  -- -- -- -- -- -- -- --
0300:          1E F0 FF FF 7F  6F 70 29 08 40 E0 0E 01     .....op).@...
0310: 0C 1D 11 80 23 1D 12 80  23 29 08 40 E0 0E 01 0D  ....#...#).@....
0320: 20 00 21 00                                        .!.            
```

#### Opcodes

```
  0: 0x0303 [0x1E] EventEntity looks at LocalPlayer and starts talking
  1: 0x0308 [0x6F] WAIT_FRAME_DELAY: Yield until WaitTime reaches zero
  2: 0x0309 [0x70] WAIT_ENTITY_RENDER_FLAG: Wait while EventEntity->Render.Flags3 bit 2 is set (cancel turn if not)
  3: 0x030A [0x29] REQ_SET_WAIT(priority=0x08, entity_id=Chomoro-Kyotoro (ID: 17752128/0x010EE040), tag_num=0x0C)
  4: 0x0311 [0x1D] PRINT_EVENT_MESSAGE(message_id=8448*)
    → "I, I, I thought growing p-plants was supposed to be easy. L-l-like they just g-grow by themselves, r-right?"
  5: 0x0314 [0x23] WAIT_FOR_DIALOG_INTERACTION
  6: 0x0315 [0x1D] PRINT_EVENT_MESSAGE(message_id=8449*)
    → "B-but I let mine b-be and they d-dried up! It's actually r-r-really hard!"
  7: 0x0318 [0x23] WAIT_FOR_DIALOG_INTERACTION
  8: 0x0319 [0x29] REQ_SET_WAIT(priority=0x08, entity_id=Chomoro-Kyotoro (ID: 17752128/0x010EE040), tag_num=0x0D)
  9: 0x0320 [0x20] SET_CLI_EVENT_UC_FLAG: Unlock player control
 10: 0x0322 [0x21] END_EVENT
 11: 0x0323 [0x00] END_REQSTACK()
```
