# 17752073 - PRODUCER

## Common Data

| Field            | Value                     |
|------------------|---------------------------|
| Zone             | Windurst Waters (ID: 238) |
| Block Size       | 10760 bytes               |
| Total Events     | 34                        |
| References Count | 196                       |

## List of Events

| Event ID                   | Entrypoint   |   Size |   Instructions |
|----------------------------|--------------|--------|----------------|
| [65535](#event-65535)      | 0x0000       |      1 |              1 |
| [11](#event-11)            | 0x0001       |    132 |             26 |
| [65535.1](#event-655351)   | 0x0085       |    408 |            113 |
| [65535.2](#event-655352)   | 0x021D       |    172 |             35 |
| [65535.3](#event-655353)   | 0x02C9       |    188 |             37 |
| [65535.4](#event-655354)   | 0x0385       |    368 |             67 |
| [65535.5](#event-655355)   | 0x04F5       |    156 |             32 |
| [65535.6](#event-655356)   | 0x0591       |    132 |             30 |
| [65535.7](#event-655357)   | 0x0615       |    148 |             33 |
| [65535.8](#event-655358)   | 0x06A9       |    132 |             30 |
| [65535.9](#event-655359)   | 0x072D       |    164 |             36 |
| [65535.10](#event-6553510) | 0x07D1       |    180 |             39 |
| [65535.11](#event-6553511) | 0x0885       |    116 |             27 |
| [65535.12](#event-6553512) | 0x08F9       |    116 |             27 |
| [65535.13](#event-6553513) | 0x096D       |    116 |             27 |
| [65535.14](#event-6553514) | 0x09E1       |    116 |             27 |
| [65535.15](#event-6553515) | 0x0A55       |    132 |             30 |
| [65535.16](#event-6553516) | 0x0AD9       |    112 |             25 |
| [65535.17](#event-6553517) | 0x0B49       |    160 |             34 |
| [65535.18](#event-6553518) | 0x0BE9       |    116 |             27 |
| [65535.19](#event-6553519) | 0x0C5D       |    116 |             27 |
| [65535.20](#event-6553520) | 0x0CD1       |    116 |             27 |
| [65535.21](#event-6553521) | 0x0D45       |     44 |             11 |
| [531](#event-531)          | 0x0D71       |   1499 |            211 |
| [532](#event-532)          | 0x134C       |    878 |            103 |
| [533](#event-533)          | 0x16BA       |    850 |            106 |
| [534](#event-534)          | 0x1A0C       |    199 |             34 |
| [537](#event-537)          | 0x1AD3       |    603 |             73 |
| [536](#event-536)          | 0x1D2E       |    282 |             40 |
| [538](#event-538)          | 0x1E48       |    691 |             90 |
| [535](#event-535)          | 0x20FB       |    470 |             62 |
| [539](#event-539)          | 0x22D1       |    837 |             92 |
| [775](#event-775)          | 0x2616       |      1 |              1 |
| [65535.22](#event-6553522) | 0x2617       |     70 |              6 |

## DAT References (imed_data)

|   Index | Hex Value   |   Dec Value |
|---------|-------------|-------------|
|       0 | 0x230C      |        8972 |
|       1 | 0x0000      |           0 |
|       2 | 0x0001      |           1 |
|       3 | 0x0002      |           2 |
|       4 | 0x0003      |           3 |
|       5 | 0x0067      |         103 |
|       6 | 0x0004      |           4 |
|       7 | 0x0066      |         102 |
|       8 | 0x0005      |           5 |
|       9 | 0x0064      |         100 |
|      10 | 0x0006      |           6 |
|      11 | 0x230D      |        8973 |
|      12 | 0x0007      |           7 |
|      13 | 0x0008      |           8 |
|      14 | 0x0009      |           9 |
|      15 | 0x000A      |          10 |
|      16 | 0x000B      |          11 |
|      17 | 0x000C      |          12 |
|      18 | 0x000D      |          13 |
|      19 | 0x000E      |          14 |
|      20 | 0x000F      |          15 |
|      21 | 0x0010      |          16 |
|      22 | 0x0011      |          17 |
|      23 | 0x230E      |        8974 |
|      24 | 0x00C8      |         200 |
|      25 | 0x00C9      |         201 |
|      26 | 0x00CA      |         202 |
|      27 | 0x00CB      |         203 |
|      28 | 0x00CC      |         204 |
|      29 | 0x00CD      |         205 |
|      30 | 0x00CE      |         206 |
|      31 | 0x00CF      |         207 |
|      32 | 0x00D0      |         208 |
|      33 | 0x00D1      |         209 |
|      34 | 0x0032      |          50 |
|      35 | 0x234E      |        9038 |
|      36 | 0x234F      |        9039 |
|      37 | 0x0033      |          51 |
|      38 | 0x2350      |        9040 |
|      39 | 0x0034      |          52 |
|      40 | 0x2351      |        9041 |
|      41 | 0x2352      |        9042 |
|      42 | 0x2353      |        9043 |
|      43 | 0x2354      |        9044 |
|      44 | 0x2355      |        9045 |
|      45 | 0x001E      |          30 |
|      46 | 0x1A27      |        6695 |
|      47 | 0x005F      |          95 |
|      48 | 0x0012      |          18 |
|      49 | 0x0063      |          99 |
|      50 | 0x0013      |          19 |
|      51 | 0x1A24      |        6692 |
|      52 | 0x1A38      |        6712 |
|      53 | 0x012C      |         300 |
|      54 | 0x012D      |         301 |
|      55 | 0x012E      |         302 |
|      56 | 0x012F      |         303 |
|      57 | 0x0130      |         304 |
|      58 | 0x0131      |         305 |
|      59 | 0x0132      |         306 |
|      60 | 0x0133      |         307 |
|      61 | 0x0134      |         308 |
|      62 | 0x1A28      |        6696 |
|      63 | 0x1A23      |        6691 |
|      64 | 0x1A29      |        6697 |
|      65 | 0x0014      |          20 |
|      66 | 0x006D      |         109 |
|      67 | 0x0015      |          21 |
|      68 | 0x0016      |          22 |
|      69 | 0x1A2A      |        6698 |
|      70 | 0x0017      |          23 |
|      71 | 0x0018      |          24 |
|      72 | 0x0019      |          25 |
|      73 | 0x001A      |          26 |
|      74 | 0x0060      |          96 |
|      75 | 0x001B      |          27 |
|      76 | 0x1A2B      |        6699 |
|      77 | 0x001C      |          28 |
|      78 | 0x001D      |          29 |
|      79 | 0x0061      |          97 |
|      80 | 0x001F      |          31 |
|      81 | 0x0020      |          32 |
|      82 | 0x0021      |          33 |
|      83 | 0x0022      |          34 |
|      84 | 0x1A2C      |        6700 |
|      85 | 0x0025      |          37 |
|      86 | 0x0026      |          38 |
|      87 | 0x0027      |          39 |
|      88 | 0x0069      |         105 |
|      89 | 0x0028      |          40 |
|      90 | 0x006A      |         106 |
|      91 | 0x0029      |          41 |
|      92 | 0x002A      |          42 |
|      93 | 0x002B      |          43 |
|      94 | 0x1A2D      |        6701 |
|      95 | 0x002D      |          45 |
|      96 | 0x002E      |          46 |
|      97 | 0x002F      |          47 |
|      98 | 0x0030      |          48 |
|      99 | 0x006E      |         110 |
|     100 | 0x1A2F      |        6703 |
|     101 | 0x0035      |          53 |
|     102 | 0x0036      |          54 |
|     103 | 0x1A30      |        6704 |
|     104 | 0x0037      |          55 |
|     105 | 0x0038      |          56 |
|     106 | 0x0039      |          57 |
|     107 | 0x003A      |          58 |
|     108 | 0x003B      |          59 |
|     109 | 0x1A33      |        6707 |
|     110 | 0x003C      |          60 |
|     111 | 0x003D      |          61 |
|     112 | 0x003E      |          62 |
|     113 | 0x003F      |          63 |
|     114 | 0x0040      |          64 |
|     115 | 0x1A34      |        6708 |
|     116 | 0x0041      |          65 |
|     117 | 0x0042      |          66 |
|     118 | 0x0043      |          67 |
|     119 | 0x0044      |          68 |
|     120 | 0x0045      |          69 |
|     121 | 0x006C      |         108 |
|     122 | 0x1A35      |        6709 |
|     123 | 0x0046      |          70 |
|     124 | 0x0070      |         112 |
|     125 | 0x0047      |          71 |
|     126 | 0x0048      |          72 |
|     127 | 0x0049      |          73 |
|     128 | 0x1A36      |        6710 |
|     129 | 0x004A      |          74 |
|     130 | 0x0071      |         113 |
|     131 | 0x004B      |          75 |
|     132 | 0x006B      |         107 |
|     133 | 0x006F      |         111 |
|     134 | 0x004C      |          76 |
|     135 | 0x004D      |          77 |
|     136 | 0x0072      |         114 |
|     137 | 0x1A37      |        6711 |
|     138 | 0x004E      |          78 |
|     139 | 0x004F      |          79 |
|     140 | 0x0050      |          80 |
|     141 | 0x0051      |          81 |
|     142 | 0x0052      |          82 |
|     143 | 0x1A31      |        6705 |
|     144 | 0x0053      |          83 |
|     145 | 0x0054      |          84 |
|     146 | 0x0055      |          85 |
|     147 | 0x0056      |          86 |
|     148 | 0x0057      |          87 |
|     149 | 0x1A32      |        6706 |
|     150 | 0x0058      |          88 |
|     151 | 0x0059      |          89 |
|     152 | 0x005A      |          90 |
|     153 | 0x005B      |          91 |
|     154 | 0x005C      |          92 |
|     155 | 0x1A2E      |        6702 |
|     156 | 0x005D      |          93 |
|     157 | 0x005E      |          94 |
|     158 | 0x0097      |         151 |
|     159 | 0xFFFD175F  |  4294776671 |
|     160 | 0x22EC3     |      143043 |
|     161 | 0xFFFFF6AF  |  4294964911 |
|     162 | 0x0DEE      |        3566 |
|     163 | 0x00EF      |         239 |
|     164 | 0x008B      |         139 |
|     165 | 0x1B34      |        6964 |
|     166 | 0x0154      |         340 |
|     167 | 0x1B35      |        6965 |
|     168 | 0x1B36      |        6966 |
|     169 | 0x0078      |         120 |
|     170 | 0x1B37      |        6967 |
|     171 | 0x1B38      |        6968 |
|     172 | 0x1B39      |        6969 |
|     173 | 0x0082      |         130 |
|     174 | 0x1B3A      |        6970 |
|     175 | 0x00B4      |         180 |
|     176 | 0x1B3B      |        6971 |
|     177 | 0x1B3C      |        6972 |
|     178 | 0x00EE      |         238 |
|     179 | 0x008A      |         138 |
|     180 | 0x0190      |         400 |
|     181 | 0x21A8      |        8616 |
|     182 | 0x21AA      |        8618 |
|     183 | 0x21B0      |        8624 |
|     184 | 0x0C56      |        3158 |
|     185 | 0x03E8      |        1000 |
|     186 | 0x21C8      |        8648 |
|     187 | 0x21D6      |        8662 |
|     188 | 0x21DB      |        8667 |
|     189 | 0x21E0      |        8672 |
|     190 | 0x2217      |        8727 |
|     191 | 0x21E5      |        8677 |
|     192 | 0x2226      |        8742 |
|     193 | 0x07D0      |        2000 |
|     194 | 0x00A0      |         160 |
|     195 | 0x00F7      |         247 |

## String References

- **6691**: Abracadabra!
- **6692**: Oh no! Your Adventurers' certificate vanished!
- **6695**: GL$3~$3b$3V$3 $3$2HL6aH [$802838 [$E$3L$P11e$@1v/u1-2:$3J$3J$3VL$P10Sv/u1-3:$P15=%aL=_Iv/$1117995v/u2-2:$141L$s$P15{v/u2-3:$O$P11e [-$17v/u2-3:$P11<$17V1bv/u2-3:$P11<$17V2bv/u2-3:$P11<$17V1av/u2-3:$P11<$17V2av/u3-1:$P11N%'v/u3-2:$P10/$P13G]v/$4719165i%7%'?v/u5-1:$EcLl$4v/u5-2:$P10"$EL%JDE$P11RB$Rv/u2-3_609:3$17$4h)g$P16_AD+=v/u600:$3$3C$3I$3$2?aq$3t$3@[$3X$3g$3C$3$3p$3N$3gv/100000 gil, please/ZONEp<Player>j$P13xE\`$o=1FI7i/All reset!]
- **6696**: m101$3t$3$3O%'DiE$3U[$3}$3XH [@OK$3t$3$3O/START$3t$3$3O/{L%@$sA=$3t$3$3O/$2$P16@$3$sA=$3t$3$3O/$2$P139 [$5$P13n5=$3t$3$3O/END$P12<c$3t$3$3O/All reset!]
- **6697**: m102$3t$3$3O%'DiE$3U[$3}$3XH [@OK$3t$3$3O/START$3t$3$3O/{L%@$sA=$3t$3$3O/$2$P16@$3$sA=$3t$3$3O/$P11S$20;k&D$0q>h$3$1[$3v/$2$P139 [$5$3J$3J$3VI$P13n5=$3t$3$3O/END$P12<c$3t$3$3O/All reset!]
- **6698**: m103$3t$3$3O%'DiE$3U[$3}$3XH [@OK$3t$3$3O/START$3t$3$3O/$P122%$3M$3 [$3h$sA=$3t$3$3O/$3M$3f$3A$3X$sA=$3t$3$3O/$P15@L%@Lp)=/END$P12<c$3t$3$3O/All reset!]
- **6699**: m201$3t$3$3O%'DiE$3U[$3}$3XH [@OK$3t$3$3O/START$3t$3$3O/$P16ZL%@$sA=$3t$3$3O/\`f\`_GET$3t$3$3O/$3J$3MGET$3t$3$3O/$2$P16@$3$3C$3x$3$3g$I%9$3t$3$3O/$"$+$mL%F$3C$3x$3$3g$I%9$3t$3$3O/END$P12<c$3t$3$3O/All reset!]
- **6700**: m202$3t$3$3O%'DiE$3U[$3}$3XH [@OK$3t$3$3O/START$3t$3$3O/$(L%@$sA=$3t$3$3O/$3^$3$3$3M$P11e [,$P12J$8$P14s/$3^$3$3$3M$P11e [,$P12J(TIME6$1%q5{100$P15C)/$3p$3$3X$3e$3B$3i$P16&$8$P14s/$3p$3$3X$3e$3B$3i$P16&(TIME6$1%q5{100$P15C)/$141$/OK$3t$3$3O/END$P12<c$3t$3$3O/All reset!]
- **6701**: m203$3t$3$3O%'DiE$3U[$3}$3XH [@OK$3t$3$3O/START$3t$3$3O/$P13VL$3$sA=$3t$3$3O/END$P12<c$3t$3$3O/$3T$3$3h$3$3A$sAD+=/All reset!]
- **6702**: @m203_609$3t$3$3O%'DiE$3U[$3}$3XH [@OK$3t$3$3O/$P15P$P15{5)$3N$3$3A$5"]
- **6703**: @m203_1Bi1%q$P16Zj$3t$3$3O%'DiE$3U[$3}$3XH [@OK$3t$3$3O/@$3o$3X$3g$3D[$3N%L$22$Y$sA=$3t$3$3O/$201548$sA=$3t$3$3O/@$3M$3f$3A$3Xlv2$sA=$3t$3$3O/@END$P12<c$3t$3$3O/@All reset!]
- **6704**: @m203_2Bi2%q$P16Zj$3t$3$3O%'DiE$3U[$3}$3XH [@OK$3t$3$3O/@$3o$3X$3g$3D[$3N%L$22$Y$sA=$3t$3$3O/$201548$sA=$3t$3$3O/@$3M$3f$3A$3Xlv3$sA=$3t$3$3O/@END$P12<c$3t$3$3O/@All reset!]
- **6705**: m203_1A(1%q$P16Z)$3t$3$3O%'DiE$3U[$3}$3XH [@OK$3t$3$3O/$3T$3$3h$3$3A%L$22$Y$sA=$3t$3$3O"$7L$2p$hI$P13|j=>//$3M$3f$3A$3Xlv2E$2$P16@$2p$P14[_=>//END$P12<c$3t$3$3O/All reset!]
- **6706**: m203_2A(2%q$P16Z)$3t$3$3O%'DiE$3U[$3}$3XH [@OK$3t$3$3O/$3T$3$3h$3$3A%L$22$Y$sA=$3t$3$3O/$P13VL$3$sA=$3t$3$3O/$3M$3f$3A$3Xlv3$sA=$3t$3$3O/END$P12<c$3t$3$3O/All reset!]
- **6707**: m301$3t$3$3O%'DiE$3U[$3}$3XH [@OK$3t$3$3O/START$3t$3$3O/$P13VL$3$sA=$3t$3$3O/$3I$3Y$3g$3$3$4$sA=$3t$3$3O/END$P12<c$3t$3$3O/All reset!]
- **6708**: m302$3t$3$3O%'DiE$3U[$3}$3XH [@OK$3t$3$3O/START$3t$3$3O/$P13VL$3$sA=$3t$3$3O/$2$P16@$3Q$sA=$3t$3$3O/END$P12<c$3t$3$3O"%q$P16Z$/=$3t$3$3O/All reset!]
- **6709**: m303$3t$3$3O%'DiE$3U[$3}$3XH [@OK$3t$3$3O"02$3N$3$3A$5"/START$3t$3$3O/$P13VL$3$sA=$3t$3$3O/$3998273$3t$3$3O/END$P12<c$3t$3$3O/All reset!]
- **6710**: m501$3t$3$3O%'DiE$3U[$3}$3XH [@OK$3t$3$3O/OK$3t$3$3O(MS3-2$6423136ADH")/$P13VL$3$sA=$3t$3$3O/$P13VL$3$sA=/G$P12fA=$3t$3$3O/$3K$7540293/=$3t$3$3O/$3t$3F$3C$3$13sA=$3t$3$3O/END$P12<c$3t$3$3O/11E3-2p$s/=gci$2$P13!%pj/All reset!]
- **6711**: m502$3t$3$3O%'DiE$3U[$3}$3XH [@OK$3t$3$3O/START/$P13VL$3$sA=$3t$3$3O/$3Y$3$3@$3998273$3t$3$3O/END$P12<c$3t$3$3O/All reset!]
- **6712**: ex [u6-1:v$P12<$P11O/u6-2:v$P12<$P11O/u7-1:v$P12<$P11O/u7-2:v$P12<$P11O/u8-1:v$P12<$P11O/u8-2:v$P12<$P11O/u9-1:v$P12<$P11O/u9-2:v$P12<$P11O/u9-2:$6816365]
- **6964**: V $3P The Federation of Windurst... An ancient capital nurtured by the boughs of a great tree, blessed by magical waters, and protected by the moon and stars.
- **6965**: d $3TThere is a legend in this country. In a time forgotten, a people forced to wander by starvation and cold were led to this land by a wondrous star.
- **6966**: R $3TWhen that star returned to the heavens, it sent to the earth a spiritual medium, the first Star Sibyl, who could hear its voice. She promised Windurst glory and prosperity.
- **6967**: \\ $3TWith each passing eon, the people came to excel at magic more and more, giving Windurst far greater wisdom and power.
- **6968**: ^ $3TFive ministries, each specializing in a school of knowledge, became politically influential institutions. This elevated Windurst to become a city of academics.
- **6969**: a $3TIn recent years, new bonds were made with the roaming tribes of Mithra, causing Windurst to become even bigger than before.
- **6970**: W $3TBut the people's wish remains unchanged... Lasting peace... Eternal tranquility... Under the watch of the far-off stars.
- **6971**: $34 And now, a new star of hope has been borne to this earth...
- **6972**: ^ $34 What is about to begin here is an enduring tale, woven by that star...
- **8618**: First time in Windurst? [Yes./No.]
- **8624**: Find out about...? [Going outside to battle./Where to shop./Gathering information./Where am I and who are you?]
- **8672**: Ask about...? [Helping people./Monster patrol./Easy money./Looking for work.]
- **8972**: PRODUCERS ONLY!!! [ OPENING EVENTS/MISSION-RELATED./WARP./SAW OPENING EVENT./CHEAT ON FAME./RESET ALL$26INITIAL SETTINGS./EX MISSIONS]
- **8973**: WHERE YOU WANNA WARP? [HATTER'S./CULINARIANS' GUILD./ARTIST'S./RESTAURANT./RHINOSTERY (LAB)./RHINOSTERY2 (MEDITATION RM.)./RHINOSTERY3 (STAIRS)./AURASTERY (STAFF ROOM)./AURASTERY (ADV. CLASS)./HOSTEL./HOUSE./HOUSE (MR)./TRADER'S HOUSE./OPTISTERY (MAGIC LIBRARY)./OPTISTERY (MANUSCRIPT LIBRARY)./OPTISTERY (2F)./CENTER./MAGAZINE PUBLISHER'S.]
- **8974**: GATHER AROUND WHERE? [HATTER'S./CULINARIANS'GUILD./ARTIST'S./RESTAURANT./RHINOSTERY./AURASTERY./INN./TRADER'S HOUSE./HOUSE./PASSERS-BY.]
- **9038**: pas0
- **9039**: tlk0
- **9040**: $odtlk0
- **9041**: dis0
- **9042**: poi0
- **9043**: poi1
- **9044**: poi2
- **9045**: wav0

## Events

### Event 65535

#### Metadata

| Field        | Value   |
|--------------|---------|
| Entrypoint   | 0x0000  |
| Data Size    | 1 bytes |
| Instructions | 1       |

```
      00 01 02 03 04 05 06 07  08 09 0A 0B 0C 0D 0E 0F
      -- -- -- -- -- -- -- --  -- -- -- -- -- -- -- --
0000: 00                                                .               
```

#### Opcodes

```
  0: 0x0000 [0x00] END_REQSTACK()
```

### Event 11

#### Metadata

| Field        | Value     |
|--------------|-----------|
| Entrypoint   | 0x0001    |
| Data Size    | 132 bytes |
| Instructions | 26        |

```
      00 01 02 03 04 05 06 07  08 09 0A 0B 0C 0D 0E 0F
      -- -- -- -- -- -- -- --  -- -- -- -- -- -- -- --
0000:    24 00 80 01 80 01 80  25 02 00 10 01 80 00 1B   $......%.......
0010: 00 29 0E 09 E0 0E 01 17  01 81 00 02 00 10 02 80  .)..............
0020: 00 2D 00 29 0E 09 E0 0E  01 05 01 81 00 02 00 10  .-.)............
0030: 03 80 00 3F 00 29 0E 09  E0 0E 01 02 01 81 00 02  ...?.)..........
0040: 00 10 04 80 00 4F 00 03  01 10 05 80 01 81 00 02  .....O..........
0050: 00 10 06 80 00 5F 00 03  01 10 07 80 01 81 00 02  ....._..........
0060: 00 10 08 80 00 6F 00 03  01 10 09 80 01 81 00 02  .....o..........
0070: 00 10 0A 80 00 81 00 29  0E 09 E0 0E 01 06 01 81  .......)........
0080: 00 20 00 21 00                                    . .!.           
```

#### Opcodes

```
  0: 0x0001 [0x24] CREATE_DIALOG(message_id=8972*, default_option=0*, option_flags=0*)
    → "PRODUCERS ONLY!!! [ OPENING EVENTS/MISSION-RELATED./WARP./SAW OPENING EVENT./CHEAT ON FAME./RESET ALL$26INITIAL SETTINGS./EX MISSIONS]"
  1: 0x0008 [0x25] WAIT_DIALOG_SELECT()
  2: 0x0009 [0x02] IF !(Work_Zone[0] == 0*) GOTO 0x001B
  3: 0x0011 [0x29] REQ_SET_WAIT(priority=0x0E, entity_id=PRODUCER (ID: 17752073/0x010EE009), tag_num=0x17)
  4: 0x0018 [0x01] GOTO 0x0081
  5: 0x001B [0x02] IF !(Work_Zone[0] == 1*) GOTO 0x002D
  6: 0x0023 [0x29] REQ_SET_WAIT(priority=0x0E, entity_id=PRODUCER (ID: 17752073/0x010EE009), tag_num=0x05)
  7: 0x002A [0x01] GOTO 0x0081
  8: 0x002D [0x02] IF !(Work_Zone[0] == 2*) GOTO 0x003F
  9: 0x0035 [0x29] REQ_SET_WAIT(priority=0x0E, entity_id=PRODUCER (ID: 17752073/0x010EE009), tag_num=0x02)
 10: 0x003C [0x01] GOTO 0x0081
 11: 0x003F [0x02] IF !(Work_Zone[0] == 3*) GOTO 0x004F
 12: 0x0047 [0x03] Work_Zone[1] = 103*
 13: 0x004C [0x01] GOTO 0x0081
 14: 0x004F [0x02] IF !(Work_Zone[0] == 4*) GOTO 0x005F
 15: 0x0057 [0x03] Work_Zone[1] = 102*
 16: 0x005C [0x01] GOTO 0x0081
 17: 0x005F [0x02] IF !(Work_Zone[0] == 5*) GOTO 0x006F
 18: 0x0067 [0x03] Work_Zone[1] = 100*
 19: 0x006C [0x01] GOTO 0x0081
 20: 0x006F [0x02] IF !(Work_Zone[0] == 6*) GOTO 0x0081
 21: 0x0077 [0x29] REQ_SET_WAIT(priority=0x0E, entity_id=PRODUCER (ID: 17752073/0x010EE009), tag_num=0x06)
 22: 0x007E [0x01] GOTO 0x0081

SUBROUTINE_0081:
 23: 0x0081 [0x20] SET_CLI_EVENT_UC_FLAG: Unlock player control
 24: 0x0083 [0x21] END_EVENT
 25: 0x0084 [0x00] END_REQSTACK()
```

### Event 65535.1

#### Metadata

| Field        | Value     |
|--------------|-----------|
| Entrypoint   | 0x0085    |
| Data Size    | 408 bytes |
| Instructions | 10        |

```
      00 01 02 03 04 05 06 07  08 09 0A 0B 0C 0D 0E 0F
      -- -- -- -- -- -- -- --  -- -- -- -- -- -- -- --
0080:                24 0B 80  01 80 01 80 25 02 00 10       $......%...
0090: 01 80 00 A3 00 29 09 F0  FF FF 7F 13 20 00 21 00  .....)...... .!.
00A0: 01 19 02 02 00 10 02 80  00 B9 00 29 09 F0 FF FF  ...........)....
00B0: 7F 14 20 00 21 00 01 19  02 02 00 10 03 80 00 CF  .. .!...........
00C0: 00 29 09 F0 FF FF 7F 15  20 00 21 00 01 19 02 02  .)...... .!.....
00D0: 00 10 04 80 00 E5 00 29  09 F0 FF FF 7F 16 20 00  .......)...... .
00E0: 21 00 01 19 02 02 00 10  06 80 00 FB 00 29 09 F0  !............)..
00F0: FF FF 7F 17 20 00 21 00  01 19 02 02 00 10 08 80  .... .!.........
0100: 00 11 01 29 09 F0 FF FF  7F 18 20 00 21 00 01 19  ...)...... .!...
0110: 02 02 00 10 0A 80 00 27  01 29 09 F0 FF FF 7F 19  .......'.)......
0120: 20 00 21 00 01 19 02 02  00 10 0C 80 00 3D 01 29   .!..........=.)
0130: 09 F0 FF FF 7F 1A 20 00  21 00 01 19 02 02 00 10  ...... .!.......
0140: 0D 80 00 53 01 29 09 F0  FF FF 7F 24 20 00 21 00  ...S.).....$ .!.
0150: 01 19 02 02 00 10 0E 80  00 69 01 29 09 F0 FF FF  .........i.)....
0160: 7F 1B 20 00 21 00 01 19  02 02 00 10 0F 80 00 7F  .. .!...........
0170: 01 29 09 F0 FF FF 7F 1C  20 00 21 00 01 19 02 02  .)...... .!.....
0180: 00 10 10 80 00 95 01 29  09 F0 FF FF 7F 1D 20 00  .......)...... .
0190: 21 00 01 19 02 02 00 10  11 80 00 AB 01 29 09 F0  !............)..
01A0: FF FF 7F 27 20 00 21 00  01 19 02 02 00 10 12 80  ...' .!.........
01B0: 00 C1 01 29 09 F0 FF FF  7F 1E 20 00 21 00 01 19  ...)...... .!...
01C0: 02 02 00 10 13 80 00 D7  01 29 09 F0 FF FF 7F 1F  .........)......
01D0: 20 00 21 00 01 19 02 02  00 10 14 80 00 ED 01 29   .!............)
01E0: 09 F0 FF FF 7F 21 20 00  21 00 01 19 02 02 00 10  .....! .!.......
01F0: 15 80 00 03 02 29 09 F0  FF FF 7F 25 20 00 21 00  .....).....% .!.
0200: 01 19 02 02 00 10 16 80  00 19 02 29 09 F0 FF FF  ...........)....
0210: 7F 26 20 00 21 00 01 19  02 20 00 21 00           .& .!.... .!.   
```

#### Opcodes

```
  0: 0x0085 [0x24] CREATE_DIALOG(message_id=8973*, default_option=0*, option_flags=0*)
    → "WHERE YOU WANNA WARP? [HATTER'S./CULINARIANS' GUILD./ARTIST'S./RESTAURANT./RHINOSTERY (LAB)./RHINOSTERY2 (MEDITATION RM.)./RHINOSTERY3 (STAIRS)./AURASTERY (STAFF ROOM)./AURASTERY (ADV. CLASS)./HOSTEL./HOUSE./HOUSE (MR)./TRADER'S HOUSE./OPTISTERY (MAGIC LIBRARY)./OPTISTERY (MANUSCRIPT LIBRARY)./OPTISTERY (2F)./CENTER./MAGAZINE PUBLISHER'S.]"
  1: 0x008C [0x25] WAIT_DIALOG_SELECT()
  2: 0x008D [0x02] IF !(Work_Zone[0] == 0*) GOTO 0x00A3
  3: 0x0095 [0x29] REQ_SET_WAIT(priority=0x09, entity_id=LocalPlayer, tag_num=0x13)
  4: 0x009C [0x20] SET_CLI_EVENT_UC_FLAG: Unlock player control
  5: 0x009E [0x21] END_EVENT
  6: 0x009F [0x00] END_REQSTACK()

SUBROUTINE_0219:
  7: 0x0219 [0x20] SET_CLI_EVENT_UC_FLAG: Unlock player control
  8: 0x021B [0x21] END_EVENT
  9: 0x021C [0x00] END_REQSTACK()
```

#### Data or dead code:

```
# Dead code (unreachable instructions):
     0x00A0 [0x01] GOTO 0x0219
     0x00B6 [0x01] GOTO 0x0219
     0x00CC [0x01] GOTO 0x0219
     0x00E2 [0x01] GOTO 0x0219
     0x00F8 [0x01] GOTO 0x0219
     0x010E [0x01] GOTO 0x0219
     0x0124 [0x01] GOTO 0x0219
     0x013A [0x01] GOTO 0x0219
     0x0150 [0x01] GOTO 0x0219
     0x0166 [0x01] GOTO 0x0219
     0x017C [0x01] GOTO 0x0219
     0x0192 [0x01] GOTO 0x0219
     0x01A8 [0x01] GOTO 0x0219
     0x01BE [0x01] GOTO 0x0219
     0x01D4 [0x01] GOTO 0x0219
     0x01EA [0x01] GOTO 0x0219
     0x0200 [0x01] GOTO 0x0219
     0x0216 [0x01] GOTO 0x0219
```

### Event 65535.2

#### Metadata

| Field        | Value     |
|--------------|-----------|
| Entrypoint   | 0x021D    |
| Data Size    | 172 bytes |
| Instructions | 35        |

```
      00 01 02 03 04 05 06 07  08 09 0A 0B 0C 0D 0E 0F
      -- -- -- -- -- -- -- --  -- -- -- -- -- -- -- --
0210:                                         24 17 80               $..
0220: 01 80 01 80 25 02 00 10  01 80 00 35 02 03 01 10  ....%......5....
0230: 18 80 01 C5 02 02 00 10  02 80 00 45 02 03 01 10  ...........E....
0240: 19 80 01 C5 02 02 00 10  03 80 00 55 02 03 01 10  ...........U....
0250: 1A 80 01 C5 02 02 00 10  04 80 00 65 02 03 01 10  ...........e....
0260: 1B 80 01 C5 02 02 00 10  06 80 00 75 02 03 01 10  ...........u....
0270: 1C 80 01 C5 02 02 00 10  08 80 00 85 02 03 01 10  ................
0280: 1D 80 01 C5 02 02 00 10  0A 80 00 95 02 03 01 10  ................
0290: 1E 80 01 C5 02 02 00 10  0C 80 00 A5 02 03 01 10  ................
02A0: 1F 80 01 C5 02 02 00 10  0D 80 00 B5 02 03 01 10  ................
02B0: 20 80 01 C5 02 02 00 10  0E 80 00 C5 02 03 01 10   ...............
02C0: 21 80 01 C5 02 20 00 21  00                       !.... .!.       
```

#### Opcodes

```
  0: 0x021D [0x24] CREATE_DIALOG(message_id=8974*, default_option=0*, option_flags=0*)
    → "GATHER AROUND WHERE? [HATTER'S./CULINARIANS'GUILD./ARTIST'S./RESTAURANT./RHINOSTERY./AURASTERY./INN./TRADER'S HOUSE./HOUSE./PASSERS-BY.]"
  1: 0x0224 [0x25] WAIT_DIALOG_SELECT()
  2: 0x0225 [0x02] IF !(Work_Zone[0] == 0*) GOTO 0x0235
  3: 0x022D [0x03] Work_Zone[1] = 200*
  4: 0x0232 [0x01] GOTO 0x02C5
  5: 0x0235 [0x02] IF !(Work_Zone[0] == 1*) GOTO 0x0245
  6: 0x023D [0x03] Work_Zone[1] = 201*
  7: 0x0242 [0x01] GOTO 0x02C5
  8: 0x0245 [0x02] IF !(Work_Zone[0] == 2*) GOTO 0x0255
  9: 0x024D [0x03] Work_Zone[1] = 202*
 10: 0x0252 [0x01] GOTO 0x02C5
 11: 0x0255 [0x02] IF !(Work_Zone[0] == 3*) GOTO 0x0265
 12: 0x025D [0x03] Work_Zone[1] = 203*
 13: 0x0262 [0x01] GOTO 0x02C5
 14: 0x0265 [0x02] IF !(Work_Zone[0] == 4*) GOTO 0x0275
 15: 0x026D [0x03] Work_Zone[1] = 204*
 16: 0x0272 [0x01] GOTO 0x02C5
 17: 0x0275 [0x02] IF !(Work_Zone[0] == 5*) GOTO 0x0285
 18: 0x027D [0x03] Work_Zone[1] = 205*
 19: 0x0282 [0x01] GOTO 0x02C5
 20: 0x0285 [0x02] IF !(Work_Zone[0] == 6*) GOTO 0x0295
 21: 0x028D [0x03] Work_Zone[1] = 206*
 22: 0x0292 [0x01] GOTO 0x02C5
 23: 0x0295 [0x02] IF !(Work_Zone[0] == 7*) GOTO 0x02A5
 24: 0x029D [0x03] Work_Zone[1] = 207*
 25: 0x02A2 [0x01] GOTO 0x02C5
 26: 0x02A5 [0x02] IF !(Work_Zone[0] == 8*) GOTO 0x02B5
 27: 0x02AD [0x03] Work_Zone[1] = 208*
 28: 0x02B2 [0x01] GOTO 0x02C5
 29: 0x02B5 [0x02] IF !(Work_Zone[0] == 9*) GOTO 0x02C5
 30: 0x02BD [0x03] Work_Zone[1] = 209*
 31: 0x02C2 [0x01] GOTO 0x02C5

SUBROUTINE_02C5:
 32: 0x02C5 [0x20] SET_CLI_EVENT_UC_FLAG: Unlock player control
 33: 0x02C7 [0x21] END_EVENT
 34: 0x02C8 [0x00] END_REQSTACK()
```

### Event 65535.3

#### Metadata

| Field        | Value     |
|--------------|-----------|
| Entrypoint   | 0x02C9    |
| Data Size    | 188 bytes |
| Instructions | 37        |

```
      00 01 02 03 04 05 06 07  08 09 0A 0B 0C 0D 0E 0F
      -- -- -- -- -- -- -- --  -- -- -- -- -- -- -- --
02C0:                             66 22 80 F8 FF FF 7F           f".....
02D0: F8 FF FF 7F 70 61 73 30  1D 23 80 23 1C 09 80 66  ....pas0.#.#...f
02E0: 22 80 F8 FF FF 7F F8 FF  FF 7F 74 6C 6B 30 1D 24  ".........tlk0.$
02F0: 80 23 1C 09 80 66 25 80  F8 FF FF 7F F8 FF FF 7F  .#...f%.........
0300: 74 6C 6B 30 1D 26 80 23  1C 09 80 66 27 80 F8 FF  tlk0.&.#...f'...
0310: FF 7F F8 FF FF 7F 64 69  73 30 1D 28 80 23 1C 09  ......dis0.(.#..
0320: 80 66 27 80 F8 FF FF 7F  F8 FF FF 7F 70 6F 69 30  .f'.........poi0
0330: 1D 29 80 23 1C 09 80 66  27 80 F8 FF FF 7F F8 FF  .).#...f'.......
0340: FF 7F 70 6F 69 31 1D 2A  80 23 1C 09 80 66 27 80  ..poi1.*.#...f'.
0350: F8 FF FF 7F F8 FF FF 7F  70 6F 69 32 1D 2B 80 23  ........poi2.+.#
0360: 1C 09 80 66 27 80 F8 FF  FF 7F F8 FF FF 7F 77 61  ...f'.........wa
0370: 76 30 1D 2C 80 23 1C 09  80 5E 69 64 6C 30 1C 2D  v0.,.#...^idl0.-
0380: 80 20 00 21 00                                    . .!.           
```

#### Opcodes

```
  0: 0x02C9 [0x66] LOAD_EXT_SCHEDULER_MAIN: Load scheduler "pas0" with entities [EventEntity, EventEntity], work=50*
  1: 0x02D8 [0x1D] PRINT_EVENT_MESSAGE(message_id=9038*)
    → "pas0"
  2: 0x02DB [0x23] WAIT_FOR_DIALOG_INTERACTION
  3: 0x02DC [0x1C] WAIT(100* ticks)
  4: 0x02DF [0x66] LOAD_EXT_SCHEDULER_MAIN: Load scheduler "tlk0" with entities [EventEntity, EventEntity], work=50*
  5: 0x02EE [0x1D] PRINT_EVENT_MESSAGE(message_id=9039*)
    → "tlk0"
  6: 0x02F1 [0x23] WAIT_FOR_DIALOG_INTERACTION
  7: 0x02F2 [0x1C] WAIT(100* ticks)
  8: 0x02F5 [0x66] LOAD_EXT_SCHEDULER_MAIN: Load scheduler "tlk0" with entities [EventEntity, EventEntity], work=51*
  9: 0x0304 [0x1D] PRINT_EVENT_MESSAGE(message_id=9040*)
    → "$odtlk0"
 10: 0x0307 [0x23] WAIT_FOR_DIALOG_INTERACTION
 11: 0x0308 [0x1C] WAIT(100* ticks)
 12: 0x030B [0x66] LOAD_EXT_SCHEDULER_MAIN: Load scheduler "dis0" with entities [EventEntity, EventEntity], work=52*
 13: 0x031A [0x1D] PRINT_EVENT_MESSAGE(message_id=9041*)
    → "dis0"
 14: 0x031D [0x23] WAIT_FOR_DIALOG_INTERACTION
 15: 0x031E [0x1C] WAIT(100* ticks)
 16: 0x0321 [0x66] LOAD_EXT_SCHEDULER_MAIN: Load scheduler "poi0" with entities [EventEntity, EventEntity], work=52*
 17: 0x0330 [0x1D] PRINT_EVENT_MESSAGE(message_id=9042*)
    → "poi0"
 18: 0x0333 [0x23] WAIT_FOR_DIALOG_INTERACTION
 19: 0x0334 [0x1C] WAIT(100* ticks)
 20: 0x0337 [0x66] LOAD_EXT_SCHEDULER_MAIN: Load scheduler "poi1" with entities [EventEntity, EventEntity], work=52*
 21: 0x0346 [0x1D] PRINT_EVENT_MESSAGE(message_id=9043*)
    → "poi1"
 22: 0x0349 [0x23] WAIT_FOR_DIALOG_INTERACTION
 23: 0x034A [0x1C] WAIT(100* ticks)
 24: 0x034D [0x66] LOAD_EXT_SCHEDULER_MAIN: Load scheduler "poi2" with entities [EventEntity, EventEntity], work=52*
 25: 0x035C [0x1D] PRINT_EVENT_MESSAGE(message_id=9044*)
    → "poi2"
 26: 0x035F [0x23] WAIT_FOR_DIALOG_INTERACTION
 27: 0x0360 [0x1C] WAIT(100* ticks)
 28: 0x0363 [0x66] LOAD_EXT_SCHEDULER_MAIN: Load scheduler "wav0" with entities [EventEntity, EventEntity], work=52*
 29: 0x0372 [0x1D] PRINT_EVENT_MESSAGE(message_id=9045*)
    → "wav0"
 30: 0x0375 [0x23] WAIT_FOR_DIALOG_INTERACTION
 31: 0x0376 [0x1C] WAIT(100* ticks)
 32: 0x0379 [0x5E] EventEntity goes idle (kills current action) (animation: "idl0")
 33: 0x037E [0x1C] WAIT(30* ticks)
 34: 0x0381 [0x20] SET_CLI_EVENT_UC_FLAG: Unlock player control
 35: 0x0383 [0x21] END_EVENT
 36: 0x0384 [0x00] END_REQSTACK()
```

### Event 65535.4

#### Metadata

| Field        | Value     |
|--------------|-----------|
| Entrypoint   | 0x0385    |
| Data Size    | 368 bytes |
| Instructions | 67        |

```
      00 01 02 03 04 05 06 07  08 09 0A 0B 0C 0D 0E 0F
      -- -- -- -- -- -- -- --  -- -- -- -- -- -- -- --
0380:                24 2E 80  01 80 01 80 25 02 00 10       $......%...
0390: 01 80 00 9F 03 29 0A 09  E0 0E 01 07 01 F1 04 02  .....)..........
03A0: 00 10 02 80 00 B1 03 29  0A 09 E0 0E 01 08 01 F1  .......)........
03B0: 04 02 00 10 03 80 00 C3  03 29 0A 09 E0 0E 01 09  .........)......
03C0: 01 F1 04 02 00 10 04 80  00 D5 03 29 0A 09 E0 0E  ...........)....
03D0: 01 0A 01 F1 04 02 00 10  06 80 00 E7 03 29 0A 09  .............)..
03E0: E0 0E 01 0B 01 F1 04 02  00 10 08 80 00 F9 03 29  ...............)
03F0: 0A 09 E0 0E 01 0C 01 F1  04 02 00 10 0A 80 00 0B  ................
0400: 04 29 0A 09 E0 0E 01 0D  01 F1 04 02 00 10 0C 80  .)..............
0410: 00 1D 04 29 0A 09 E0 0E  01 0E 01 F1 04 02 00 10  ...)............
0420: 0D 80 00 2F 04 29 0A 09  E0 0E 01 14 01 F1 04 02  .../.)..........
0430: 00 10 0E 80 00 41 04 29  0A 09 E0 0E 01 15 01 F1  .....A.)........
0440: 04 02 00 10 0F 80 00 53  04 29 0A 09 E0 0E 01 0F  .......S.)......
0450: 01 F1 04 02 00 10 10 80  00 65 04 29 0A 09 E0 0E  .........e.)....
0460: 01 10 01 F1 04 02 00 10  11 80 00 77 04 29 0A 09  ...........w.)..
0470: E0 0E 01 11 01 F1 04 02  00 10 12 80 00 89 04 29  ...............)
0480: 0A 09 E0 0E 01 12 01 F1  04 02 00 10 13 80 00 9B  ................
0490: 04 29 0A 09 E0 0E 01 13  01 F1 04 02 00 10 14 80  .)..............
04A0: 00 AD 04 29 0A 09 E0 0E  01 16 01 F1 04 02 00 10  ...)............
04B0: 15 80 00 BD 04 03 01 10  2F 80 01 F1 04 02 00 10  ......../.......
04C0: 16 80 00 CD 04 03 01 10  1D 80 01 F1 04 02 00 10  ................
04D0: 30 80 00 DD 04 03 01 10  31 80 01 F1 04 02 00 10  0.......1.......
04E0: 32 80 00 F1 04 1D 33 80  23 03 01 10 09 80 01 F1  2.....3.#.......
04F0: 04 20 00 21 00                                    . .!.           
```

#### Opcodes

```
  0: 0x0385 [0x24] CREATE_DIALOG(message_id=6695*, default_option=0*, option_flags=0*)
    → "GL$3~$3b$3V$3 $3$2HL6aH [$802838 [$E$3L$P11e$@1v/u1-2:$3J$3J$3VL$P10Sv/u1-3:$P15=%aL=_Iv/$1117995v/u2-2:$141L$s$P15{v/u2-3:$O$P11e [-$17v/u2-3:$P11<$17V1bv/u2-3:$P11<$17V2bv/u2-3:$P11<$17V1av/u2-3:$P11<$17V2av/u3-1:$P11N%'v/u3-2:$P10/$P13G]v/$4719165i%7%'?v/u5-1:$EcLl$4v/u5-2:$P10"$EL%JDE$P11RB$Rv/u2-3_609:3$17$4h)g$P16_AD+=v/u600:$3$3C$3I$3$2?aq$3t$3@[$3X$3g$3C$3$3p$3N$3gv/100000 gil, please/ZONEp<Player>j$P13xE`$o=1FI7i/All reset!]"
  1: 0x038C [0x25] WAIT_DIALOG_SELECT()
  2: 0x038D [0x02] IF !(Work_Zone[0] == 0*) GOTO 0x039F
  3: 0x0395 [0x29] REQ_SET_WAIT(priority=0x0A, entity_id=PRODUCER (ID: 17752073/0x010EE009), tag_num=0x07)
  4: 0x039C [0x01] GOTO 0x04F1
  5: 0x039F [0x02] IF !(Work_Zone[0] == 1*) GOTO 0x03B1
  6: 0x03A7 [0x29] REQ_SET_WAIT(priority=0x0A, entity_id=PRODUCER (ID: 17752073/0x010EE009), tag_num=0x08)
  7: 0x03AE [0x01] GOTO 0x04F1
  8: 0x03B1 [0x02] IF !(Work_Zone[0] == 2*) GOTO 0x03C3
  9: 0x03B9 [0x29] REQ_SET_WAIT(priority=0x0A, entity_id=PRODUCER (ID: 17752073/0x010EE009), tag_num=0x09)
 10: 0x03C0 [0x01] GOTO 0x04F1
 11: 0x03C3 [0x02] IF !(Work_Zone[0] == 3*) GOTO 0x03D5
 12: 0x03CB [0x29] REQ_SET_WAIT(priority=0x0A, entity_id=PRODUCER (ID: 17752073/0x010EE009), tag_num=0x0A)
 13: 0x03D2 [0x01] GOTO 0x04F1
 14: 0x03D5 [0x02] IF !(Work_Zone[0] == 4*) GOTO 0x03E7
 15: 0x03DD [0x29] REQ_SET_WAIT(priority=0x0A, entity_id=PRODUCER (ID: 17752073/0x010EE009), tag_num=0x0B)
 16: 0x03E4 [0x01] GOTO 0x04F1
 17: 0x03E7 [0x02] IF !(Work_Zone[0] == 5*) GOTO 0x03F9
 18: 0x03EF [0x29] REQ_SET_WAIT(priority=0x0A, entity_id=PRODUCER (ID: 17752073/0x010EE009), tag_num=0x0C)
 19: 0x03F6 [0x01] GOTO 0x04F1
 20: 0x03F9 [0x02] IF !(Work_Zone[0] == 6*) GOTO 0x040B
 21: 0x0401 [0x29] REQ_SET_WAIT(priority=0x0A, entity_id=PRODUCER (ID: 17752073/0x010EE009), tag_num=0x0D)
 22: 0x0408 [0x01] GOTO 0x04F1
 23: 0x040B [0x02] IF !(Work_Zone[0] == 7*) GOTO 0x041D
 24: 0x0413 [0x29] REQ_SET_WAIT(priority=0x0A, entity_id=PRODUCER (ID: 17752073/0x010EE009), tag_num=0x0E)
 25: 0x041A [0x01] GOTO 0x04F1
 26: 0x041D [0x02] IF !(Work_Zone[0] == 8*) GOTO 0x042F
 27: 0x0425 [0x29] REQ_SET_WAIT(priority=0x0A, entity_id=PRODUCER (ID: 17752073/0x010EE009), tag_num=0x14)
 28: 0x042C [0x01] GOTO 0x04F1
 29: 0x042F [0x02] IF !(Work_Zone[0] == 9*) GOTO 0x0441
 30: 0x0437 [0x29] REQ_SET_WAIT(priority=0x0A, entity_id=PRODUCER (ID: 17752073/0x010EE009), tag_num=0x15)
 31: 0x043E [0x01] GOTO 0x04F1
 32: 0x0441 [0x02] IF !(Work_Zone[0] == 10*) GOTO 0x0453
 33: 0x0449 [0x29] REQ_SET_WAIT(priority=0x0A, entity_id=PRODUCER (ID: 17752073/0x010EE009), tag_num=0x0F)
 34: 0x0450 [0x01] GOTO 0x04F1
 35: 0x0453 [0x02] IF !(Work_Zone[0] == 11*) GOTO 0x0465
 36: 0x045B [0x29] REQ_SET_WAIT(priority=0x0A, entity_id=PRODUCER (ID: 17752073/0x010EE009), tag_num=0x10)
 37: 0x0462 [0x01] GOTO 0x04F1
 38: 0x0465 [0x02] IF !(Work_Zone[0] == 12*) GOTO 0x0477
 39: 0x046D [0x29] REQ_SET_WAIT(priority=0x0A, entity_id=PRODUCER (ID: 17752073/0x010EE009), tag_num=0x11)
 40: 0x0474 [0x01] GOTO 0x04F1
 41: 0x0477 [0x02] IF !(Work_Zone[0] == 13*) GOTO 0x0489
 42: 0x047F [0x29] REQ_SET_WAIT(priority=0x0A, entity_id=PRODUCER (ID: 17752073/0x010EE009), tag_num=0x12)
 43: 0x0486 [0x01] GOTO 0x04F1
 44: 0x0489 [0x02] IF !(Work_Zone[0] == 14*) GOTO 0x049B
 45: 0x0491 [0x29] REQ_SET_WAIT(priority=0x0A, entity_id=PRODUCER (ID: 17752073/0x010EE009), tag_num=0x13)
 46: 0x0498 [0x01] GOTO 0x04F1
 47: 0x049B [0x02] IF !(Work_Zone[0] == 15*) GOTO 0x04AD
 48: 0x04A3 [0x29] REQ_SET_WAIT(priority=0x0A, entity_id=PRODUCER (ID: 17752073/0x010EE009), tag_num=0x16)
 49: 0x04AA [0x01] GOTO 0x04F1
 50: 0x04AD [0x02] IF !(Work_Zone[0] == 16*) GOTO 0x04BD
 51: 0x04B5 [0x03] Work_Zone[1] = 95*
 52: 0x04BA [0x01] GOTO 0x04F1
 53: 0x04BD [0x02] IF !(Work_Zone[0] == 17*) GOTO 0x04CD
 54: 0x04C5 [0x03] Work_Zone[1] = 205*
 55: 0x04CA [0x01] GOTO 0x04F1
 56: 0x04CD [0x02] IF !(Work_Zone[0] == 18*) GOTO 0x04DD
 57: 0x04D5 [0x03] Work_Zone[1] = 99*
 58: 0x04DA [0x01] GOTO 0x04F1
 59: 0x04DD [0x02] IF !(Work_Zone[0] == 19*) GOTO 0x04F1
 60: 0x04E5 [0x1D] PRINT_EVENT_MESSAGE(message_id=6692*)
    → "Oh no! Your Adventurers' certificate vanished!"
 61: 0x04E8 [0x23] WAIT_FOR_DIALOG_INTERACTION
 62: 0x04E9 [0x03] Work_Zone[1] = 100*
 63: 0x04EE [0x01] GOTO 0x04F1

SUBROUTINE_04F1:
 64: 0x04F1 [0x20] SET_CLI_EVENT_UC_FLAG: Unlock player control
 65: 0x04F3 [0x21] END_EVENT
 66: 0x04F4 [0x00] END_REQSTACK()
```

### Event 65535.5

#### Metadata

| Field        | Value     |
|--------------|-----------|
| Entrypoint   | 0x04F5    |
| Data Size    | 156 bytes |
| Instructions | 32        |

```
      00 01 02 03 04 05 06 07  08 09 0A 0B 0C 0D 0E 0F
      -- -- -- -- -- -- -- --  -- -- -- -- -- -- -- --
04F0:                24 34 80  01 80 01 80 25 02 00 10       $4.....%...
0500: 01 80 00 0D 05 03 01 10  35 80 01 8D 05 02 00 10  ........5.......
0510: 02 80 00 1D 05 03 01 10  36 80 01 8D 05 02 00 10  ........6.......
0520: 03 80 00 2D 05 03 01 10  37 80 01 8D 05 02 00 10  ...-....7.......
0530: 04 80 00 3D 05 03 01 10  38 80 01 8D 05 02 00 10  ...=....8.......
0540: 06 80 00 4D 05 03 01 10  39 80 01 8D 05 02 00 10  ...M....9.......
0550: 08 80 00 5D 05 03 01 10  3A 80 01 8D 05 02 00 10  ...]....:.......
0560: 0A 80 00 6D 05 03 01 10  3B 80 01 8D 05 02 00 10  ...m....;.......
0570: 0C 80 00 7D 05 03 01 10  3C 80 01 8D 05 02 00 10  ...}....<.......
0580: 0D 80 00 8D 05 03 01 10  3D 80 01 8D 05 20 00 21  ........=.... .!
0590: 00                                                .               
```

#### Opcodes

```
  0: 0x04F5 [0x24] CREATE_DIALOG(message_id=6712*, default_option=0*, option_flags=0*)
    → "ex [u6-1:v$P12<$P11O/u6-2:v$P12<$P11O/u7-1:v$P12<$P11O/u7-2:v$P12<$P11O/u8-1:v$P12<$P11O/u8-2:v$P12<$P11O/u9-1:v$P12<$P11O/u9-2:v$P12<$P11O/u9-2:$6816365]"
  1: 0x04FC [0x25] WAIT_DIALOG_SELECT()
  2: 0x04FD [0x02] IF !(Work_Zone[0] == 0*) GOTO 0x050D
  3: 0x0505 [0x03] Work_Zone[1] = 300*
  4: 0x050A [0x01] GOTO 0x058D
  5: 0x050D [0x02] IF !(Work_Zone[0] == 1*) GOTO 0x051D
  6: 0x0515 [0x03] Work_Zone[1] = 301*
  7: 0x051A [0x01] GOTO 0x058D
  8: 0x051D [0x02] IF !(Work_Zone[0] == 2*) GOTO 0x052D
  9: 0x0525 [0x03] Work_Zone[1] = 302*
 10: 0x052A [0x01] GOTO 0x058D
 11: 0x052D [0x02] IF !(Work_Zone[0] == 3*) GOTO 0x053D
 12: 0x0535 [0x03] Work_Zone[1] = 303*
 13: 0x053A [0x01] GOTO 0x058D
 14: 0x053D [0x02] IF !(Work_Zone[0] == 4*) GOTO 0x054D
 15: 0x0545 [0x03] Work_Zone[1] = 304*
 16: 0x054A [0x01] GOTO 0x058D
 17: 0x054D [0x02] IF !(Work_Zone[0] == 5*) GOTO 0x055D
 18: 0x0555 [0x03] Work_Zone[1] = 305*
 19: 0x055A [0x01] GOTO 0x058D
 20: 0x055D [0x02] IF !(Work_Zone[0] == 6*) GOTO 0x056D
 21: 0x0565 [0x03] Work_Zone[1] = 306*
 22: 0x056A [0x01] GOTO 0x058D
 23: 0x056D [0x02] IF !(Work_Zone[0] == 7*) GOTO 0x057D
 24: 0x0575 [0x03] Work_Zone[1] = 307*
 25: 0x057A [0x01] GOTO 0x058D
 26: 0x057D [0x02] IF !(Work_Zone[0] == 8*) GOTO 0x058D
 27: 0x0585 [0x03] Work_Zone[1] = 308*
 28: 0x058A [0x01] GOTO 0x058D

SUBROUTINE_058D:
 29: 0x058D [0x20] SET_CLI_EVENT_UC_FLAG: Unlock player control
 30: 0x058F [0x21] END_EVENT
 31: 0x0590 [0x00] END_REQSTACK()
```

### Event 65535.6

#### Metadata

| Field        | Value     |
|--------------|-----------|
| Entrypoint   | 0x0591    |
| Data Size    | 132 bytes |
| Instructions | 30        |

```
      00 01 02 03 04 05 06 07  08 09 0A 0B 0C 0D 0E 0F
      -- -- -- -- -- -- -- --  -- -- -- -- -- -- -- --
0590:    24 3E 80 01 80 01 80  25 02 00 10 01 80 00 AD   $>.....%.......
05A0: 05 1D 3F 80 23 03 01 10  10 80 01 11 06 02 00 10  ..?.#...........
05B0: 02 80 00 BD 05 03 01 10  11 80 01 11 06 02 00 10  ................
05C0: 03 80 00 CD 05 03 01 10  12 80 01 11 06 02 00 10  ................
05D0: 04 80 00 DD 05 03 01 10  13 80 01 11 06 02 00 10  ................
05E0: 06 80 00 ED 05 03 01 10  14 80 01 11 06 02 00 10  ................
05F0: 08 80 00 FD 05 03 01 10  15 80 01 11 06 02 00 10  ................
0600: 0A 80 00 11 06 1D 33 80  23 03 01 10 09 80 01 11  ......3.#.......
0610: 06 20 00 21 00                                    . .!.           
```

#### Opcodes

```
  0: 0x0591 [0x24] CREATE_DIALOG(message_id=6696*, default_option=0*, option_flags=0*)
    → "m101$3t$3$3O%'DiE$3U[$3}$3XH [@OK$3t$3$3O/START$3t$3$3O/{L%@$sA=$3t$3$3O/$2$P16@$3$sA=$3t$3$3O/$2$P139 [$5$P13n5=$3t$3$3O/END$P12<c$3t$3$3O/All reset!]"
  1: 0x0598 [0x25] WAIT_DIALOG_SELECT()
  2: 0x0599 [0x02] IF !(Work_Zone[0] == 0*) GOTO 0x05AD
  3: 0x05A1 [0x1D] PRINT_EVENT_MESSAGE(message_id=6691*)
    → "Abracadabra!"
  4: 0x05A4 [0x23] WAIT_FOR_DIALOG_INTERACTION
  5: 0x05A5 [0x03] Work_Zone[1] = 11*
  6: 0x05AA [0x01] GOTO 0x0611
  7: 0x05AD [0x02] IF !(Work_Zone[0] == 1*) GOTO 0x05BD
  8: 0x05B5 [0x03] Work_Zone[1] = 12*
  9: 0x05BA [0x01] GOTO 0x0611
 10: 0x05BD [0x02] IF !(Work_Zone[0] == 2*) GOTO 0x05CD
 11: 0x05C5 [0x03] Work_Zone[1] = 13*
 12: 0x05CA [0x01] GOTO 0x0611
 13: 0x05CD [0x02] IF !(Work_Zone[0] == 3*) GOTO 0x05DD
 14: 0x05D5 [0x03] Work_Zone[1] = 14*
 15: 0x05DA [0x01] GOTO 0x0611
 16: 0x05DD [0x02] IF !(Work_Zone[0] == 4*) GOTO 0x05ED
 17: 0x05E5 [0x03] Work_Zone[1] = 15*
 18: 0x05EA [0x01] GOTO 0x0611
 19: 0x05ED [0x02] IF !(Work_Zone[0] == 5*) GOTO 0x05FD
 20: 0x05F5 [0x03] Work_Zone[1] = 16*
 21: 0x05FA [0x01] GOTO 0x0611
 22: 0x05FD [0x02] IF !(Work_Zone[0] == 6*) GOTO 0x0611
 23: 0x0605 [0x1D] PRINT_EVENT_MESSAGE(message_id=6692*)
    → "Oh no! Your Adventurers' certificate vanished!"
 24: 0x0608 [0x23] WAIT_FOR_DIALOG_INTERACTION
 25: 0x0609 [0x03] Work_Zone[1] = 100*
 26: 0x060E [0x01] GOTO 0x0611

SUBROUTINE_0611:
 27: 0x0611 [0x20] SET_CLI_EVENT_UC_FLAG: Unlock player control
 28: 0x0613 [0x21] END_EVENT
 29: 0x0614 [0x00] END_REQSTACK()
```

### Event 65535.7

#### Metadata

| Field        | Value     |
|--------------|-----------|
| Entrypoint   | 0x0615    |
| Data Size    | 148 bytes |
| Instructions | 33        |

```
      00 01 02 03 04 05 06 07  08 09 0A 0B 0C 0D 0E 0F
      -- -- -- -- -- -- -- --  -- -- -- -- -- -- -- --
0610:                24 40 80  01 80 01 80 25 02 00 10       $@.....%...
0620: 01 80 00 31 06 1D 3F 80  23 03 01 10 16 80 01 A5  ...1..?.#.......
0630: 06 02 00 10 02 80 00 41  06 03 01 10 30 80 01 A5  .......A....0...
0640: 06 02 00 10 03 80 00 51  06 03 01 10 32 80 01 A5  .......Q....2...
0650: 06 02 00 10 04 80 00 61  06 03 01 10 41 80 01 A5  .......a....A...
0660: 06 02 00 10 06 80 00 71  06 03 01 10 42 80 01 A5  .......q....B...
0670: 06 02 00 10 08 80 00 81  06 03 01 10 43 80 01 A5  ............C...
0680: 06 02 00 10 0A 80 00 91  06 03 01 10 44 80 01 A5  ............D...
0690: 06 02 00 10 0C 80 00 A5  06 1D 33 80 23 03 01 10  ..........3.#...
06A0: 09 80 01 A5 06 20 00 21  00                       ..... .!.       
```

#### Opcodes

```
  0: 0x0615 [0x24] CREATE_DIALOG(message_id=6697*, default_option=0*, option_flags=0*)
    → "m102$3t$3$3O%'DiE$3U[$3}$3XH [@OK$3t$3$3O/START$3t$3$3O/{L%@$sA=$3t$3$3O/$2$P16@$3$sA=$3t$3$3O/$P11S$20;k&D$0q>h$3$1[$3v/$2$P139 [$5$3J$3J$3VI$P13n5=$3t$3$3O/END$P12<c$3t$3$3O/All reset!]"
  1: 0x061C [0x25] WAIT_DIALOG_SELECT()
  2: 0x061D [0x02] IF !(Work_Zone[0] == 0*) GOTO 0x0631
  3: 0x0625 [0x1D] PRINT_EVENT_MESSAGE(message_id=6691*)
    → "Abracadabra!"
  4: 0x0628 [0x23] WAIT_FOR_DIALOG_INTERACTION
  5: 0x0629 [0x03] Work_Zone[1] = 17*
  6: 0x062E [0x01] GOTO 0x06A5
  7: 0x0631 [0x02] IF !(Work_Zone[0] == 1*) GOTO 0x0641
  8: 0x0639 [0x03] Work_Zone[1] = 18*
  9: 0x063E [0x01] GOTO 0x06A5
 10: 0x0641 [0x02] IF !(Work_Zone[0] == 2*) GOTO 0x0651
 11: 0x0649 [0x03] Work_Zone[1] = 19*
 12: 0x064E [0x01] GOTO 0x06A5
 13: 0x0651 [0x02] IF !(Work_Zone[0] == 3*) GOTO 0x0661
 14: 0x0659 [0x03] Work_Zone[1] = 20*
 15: 0x065E [0x01] GOTO 0x06A5
 16: 0x0661 [0x02] IF !(Work_Zone[0] == 4*) GOTO 0x0671
 17: 0x0669 [0x03] Work_Zone[1] = 109*
 18: 0x066E [0x01] GOTO 0x06A5
 19: 0x0671 [0x02] IF !(Work_Zone[0] == 5*) GOTO 0x0681
 20: 0x0679 [0x03] Work_Zone[1] = 21*
 21: 0x067E [0x01] GOTO 0x06A5
 22: 0x0681 [0x02] IF !(Work_Zone[0] == 6*) GOTO 0x0691
 23: 0x0689 [0x03] Work_Zone[1] = 22*
 24: 0x068E [0x01] GOTO 0x06A5
 25: 0x0691 [0x02] IF !(Work_Zone[0] == 7*) GOTO 0x06A5
 26: 0x0699 [0x1D] PRINT_EVENT_MESSAGE(message_id=6692*)
    → "Oh no! Your Adventurers' certificate vanished!"
 27: 0x069C [0x23] WAIT_FOR_DIALOG_INTERACTION
 28: 0x069D [0x03] Work_Zone[1] = 100*
 29: 0x06A2 [0x01] GOTO 0x06A5

SUBROUTINE_06A5:
 30: 0x06A5 [0x20] SET_CLI_EVENT_UC_FLAG: Unlock player control
 31: 0x06A7 [0x21] END_EVENT
 32: 0x06A8 [0x00] END_REQSTACK()
```

### Event 65535.8

#### Metadata

| Field        | Value     |
|--------------|-----------|
| Entrypoint   | 0x06A9    |
| Data Size    | 132 bytes |
| Instructions | 30        |

```
      00 01 02 03 04 05 06 07  08 09 0A 0B 0C 0D 0E 0F
      -- -- -- -- -- -- -- --  -- -- -- -- -- -- -- --
06A0:                             24 45 80 01 80 01 80           $E.....
06B0: 25 02 00 10 01 80 00 C5  06 1D 3F 80 23 03 01 10  %.........?.#...
06C0: 46 80 01 29 07 02 00 10  02 80 00 D5 06 03 01 10  F..)............
06D0: 47 80 01 29 07 02 00 10  03 80 00 E5 06 03 01 10  G..)............
06E0: 48 80 01 29 07 02 00 10  04 80 00 F5 06 03 01 10  H..)............
06F0: 49 80 01 29 07 02 00 10  06 80 00 05 07 03 01 10  I..)............
0700: 4A 80 01 29 07 02 00 10  08 80 00 15 07 03 01 10  J..)............
0710: 4B 80 01 29 07 02 00 10  0A 80 00 29 07 1D 33 80  K..).......)..3.
0720: 23 03 01 10 09 80 01 29  07 20 00 21 00           #......). .!.   
```

#### Opcodes

```
  0: 0x06A9 [0x24] CREATE_DIALOG(message_id=6698*, default_option=0*, option_flags=0*)
    → "m103$3t$3$3O%'DiE$3U[$3}$3XH [@OK$3t$3$3O/START$3t$3$3O/$P122%$3M$3 [$3h$sA=$3t$3$3O/$3M$3f$3A$3X$sA=$3t$3$3O/$P15@L%@Lp)=/END$P12<c$3t$3$3O/All reset!]"
  1: 0x06B0 [0x25] WAIT_DIALOG_SELECT()
  2: 0x06B1 [0x02] IF !(Work_Zone[0] == 0*) GOTO 0x06C5
  3: 0x06B9 [0x1D] PRINT_EVENT_MESSAGE(message_id=6691*)
    → "Abracadabra!"
  4: 0x06BC [0x23] WAIT_FOR_DIALOG_INTERACTION
  5: 0x06BD [0x03] Work_Zone[1] = 23*
  6: 0x06C2 [0x01] GOTO 0x0729
  7: 0x06C5 [0x02] IF !(Work_Zone[0] == 1*) GOTO 0x06D5
  8: 0x06CD [0x03] Work_Zone[1] = 24*
  9: 0x06D2 [0x01] GOTO 0x0729
 10: 0x06D5 [0x02] IF !(Work_Zone[0] == 2*) GOTO 0x06E5
 11: 0x06DD [0x03] Work_Zone[1] = 25*
 12: 0x06E2 [0x01] GOTO 0x0729
 13: 0x06E5 [0x02] IF !(Work_Zone[0] == 3*) GOTO 0x06F5
 14: 0x06ED [0x03] Work_Zone[1] = 26*
 15: 0x06F2 [0x01] GOTO 0x0729
 16: 0x06F5 [0x02] IF !(Work_Zone[0] == 4*) GOTO 0x0705
 17: 0x06FD [0x03] Work_Zone[1] = 96*
 18: 0x0702 [0x01] GOTO 0x0729
 19: 0x0705 [0x02] IF !(Work_Zone[0] == 5*) GOTO 0x0715
 20: 0x070D [0x03] Work_Zone[1] = 27*
 21: 0x0712 [0x01] GOTO 0x0729
 22: 0x0715 [0x02] IF !(Work_Zone[0] == 6*) GOTO 0x0729
 23: 0x071D [0x1D] PRINT_EVENT_MESSAGE(message_id=6692*)
    → "Oh no! Your Adventurers' certificate vanished!"
 24: 0x0720 [0x23] WAIT_FOR_DIALOG_INTERACTION
 25: 0x0721 [0x03] Work_Zone[1] = 100*
 26: 0x0726 [0x01] GOTO 0x0729

SUBROUTINE_0729:
 27: 0x0729 [0x20] SET_CLI_EVENT_UC_FLAG: Unlock player control
 28: 0x072B [0x21] END_EVENT
 29: 0x072C [0x00] END_REQSTACK()
```

### Event 65535.9

#### Metadata

| Field        | Value     |
|--------------|-----------|
| Entrypoint   | 0x072D    |
| Data Size    | 164 bytes |
| Instructions | 36        |

```
      00 01 02 03 04 05 06 07  08 09 0A 0B 0C 0D 0E 0F
      -- -- -- -- -- -- -- --  -- -- -- -- -- -- -- --
0720:                                         24 4C 80               $L.
0730: 01 80 01 80 25 02 00 10  01 80 00 49 07 1D 3F 80  ....%......I..?.
0740: 23 03 01 10 4D 80 01 CD  07 02 00 10 02 80 00 59  #...M..........Y
0750: 07 03 01 10 4E 80 01 CD  07 02 00 10 03 80 00 69  ....N..........i
0760: 07 03 01 10 2D 80 01 CD  07 02 00 10 04 80 00 79  ....-..........y
0770: 07 03 01 10 4F 80 01 CD  07 02 00 10 06 80 00 89  ....O...........
0780: 07 03 01 10 50 80 01 CD  07 02 00 10 08 80 00 99  ....P...........
0790: 07 03 01 10 51 80 01 CD  07 02 00 10 0A 80 00 A9  ....Q...........
07A0: 07 03 01 10 52 80 01 CD  07 02 00 10 0C 80 00 B9  ....R...........
07B0: 07 03 01 10 53 80 01 CD  07 02 00 10 0D 80 00 CD  ....S...........
07C0: 07 1D 33 80 23 03 01 10  09 80 01 CD 07 20 00 21  ..3.#........ .!
07D0: 00                                                .               
```

#### Opcodes

```
  0: 0x072D [0x24] CREATE_DIALOG(message_id=6699*, default_option=0*, option_flags=0*)
    → "m201$3t$3$3O%'DiE$3U[$3}$3XH [@OK$3t$3$3O/START$3t$3$3O/$P16ZL%@$sA=$3t$3$3O/`f`_GET$3t$3$3O/$3J$3MGET$3t$3$3O/$2$P16@$3$3C$3x$3$3g$I%9$3t$3$3O/$"$+$mL%F$3C$3x$3$3g$I%9$3t$3$3O/END$P12<c$3t$3$3O/All reset!]"
  1: 0x0734 [0x25] WAIT_DIALOG_SELECT()
  2: 0x0735 [0x02] IF !(Work_Zone[0] == 0*) GOTO 0x0749
  3: 0x073D [0x1D] PRINT_EVENT_MESSAGE(message_id=6691*)
    → "Abracadabra!"
  4: 0x0740 [0x23] WAIT_FOR_DIALOG_INTERACTION
  5: 0x0741 [0x03] Work_Zone[1] = 28*
  6: 0x0746 [0x01] GOTO 0x07CD
  7: 0x0749 [0x02] IF !(Work_Zone[0] == 1*) GOTO 0x0759
  8: 0x0751 [0x03] Work_Zone[1] = 29*
  9: 0x0756 [0x01] GOTO 0x07CD
 10: 0x0759 [0x02] IF !(Work_Zone[0] == 2*) GOTO 0x0769
 11: 0x0761 [0x03] Work_Zone[1] = 30*
 12: 0x0766 [0x01] GOTO 0x07CD
 13: 0x0769 [0x02] IF !(Work_Zone[0] == 3*) GOTO 0x0779
 14: 0x0771 [0x03] Work_Zone[1] = 97*
 15: 0x0776 [0x01] GOTO 0x07CD
 16: 0x0779 [0x02] IF !(Work_Zone[0] == 4*) GOTO 0x0789
 17: 0x0781 [0x03] Work_Zone[1] = 31*
 18: 0x0786 [0x01] GOTO 0x07CD
 19: 0x0789 [0x02] IF !(Work_Zone[0] == 5*) GOTO 0x0799
 20: 0x0791 [0x03] Work_Zone[1] = 32*
 21: 0x0796 [0x01] GOTO 0x07CD
 22: 0x0799 [0x02] IF !(Work_Zone[0] == 6*) GOTO 0x07A9
 23: 0x07A1 [0x03] Work_Zone[1] = 33*
 24: 0x07A6 [0x01] GOTO 0x07CD
 25: 0x07A9 [0x02] IF !(Work_Zone[0] == 7*) GOTO 0x07B9
 26: 0x07B1 [0x03] Work_Zone[1] = 34*
 27: 0x07B6 [0x01] GOTO 0x07CD
 28: 0x07B9 [0x02] IF !(Work_Zone[0] == 8*) GOTO 0x07CD
 29: 0x07C1 [0x1D] PRINT_EVENT_MESSAGE(message_id=6692*)
    → "Oh no! Your Adventurers' certificate vanished!"
 30: 0x07C4 [0x23] WAIT_FOR_DIALOG_INTERACTION
 31: 0x07C5 [0x03] Work_Zone[1] = 100*
 32: 0x07CA [0x01] GOTO 0x07CD

SUBROUTINE_07CD:
 33: 0x07CD [0x20] SET_CLI_EVENT_UC_FLAG: Unlock player control
 34: 0x07CF [0x21] END_EVENT
 35: 0x07D0 [0x00] END_REQSTACK()
```

### Event 65535.10

#### Metadata

| Field        | Value     |
|--------------|-----------|
| Entrypoint   | 0x07D1    |
| Data Size    | 180 bytes |
| Instructions | 39        |

```
      00 01 02 03 04 05 06 07  08 09 0A 0B 0C 0D 0E 0F
      -- -- -- -- -- -- -- --  -- -- -- -- -- -- -- --
07D0:    24 54 80 01 80 01 80  25 02 00 10 01 80 00 ED   $T.....%.......
07E0: 07 1D 3F 80 23 03 01 10  55 80 01 81 08 02 00 10  ..?.#...U.......
07F0: 02 80 00 FD 07 03 01 10  56 80 01 81 08 02 00 10  ........V.......
0800: 03 80 00 0D 08 03 01 10  57 80 01 81 08 02 00 10  ........W.......
0810: 04 80 00 1D 08 03 01 10  58 80 01 81 08 02 00 10  ........X.......
0820: 06 80 00 2D 08 03 01 10  59 80 01 81 08 02 00 10  ...-....Y.......
0830: 08 80 00 3D 08 03 01 10  5A 80 01 81 08 02 00 10  ...=....Z.......
0840: 0A 80 00 4D 08 03 01 10  5B 80 01 81 08 02 00 10  ...M....[.......
0850: 0C 80 00 5D 08 03 01 10  5C 80 01 81 08 02 00 10  ...]....\.......
0860: 0D 80 00 6D 08 03 01 10  5D 80 01 81 08 02 00 10  ...m....].......
0870: 0E 80 00 81 08 1D 33 80  23 03 01 10 09 80 01 81  ......3.#.......
0880: 08 20 00 21 00                                    . .!.           
```

#### Opcodes

```
  0: 0x07D1 [0x24] CREATE_DIALOG(message_id=6700*, default_option=0*, option_flags=0*)
    → "m202$3t$3$3O%'DiE$3U[$3}$3XH [@OK$3t$3$3O/START$3t$3$3O/$(L%@$sA=$3t$3$3O/$3^$3$3$3M$P11e [,$P12J$8$P14s/$3^$3$3$3M$P11e [,$P12J(TIME6$1%q5{100$P15C)/$3p$3$3X$3e$3B$3i$P16&$8$P14s/$3p$3$3X$3e$3B$3i$P16&(TIME6$1%q5{100$P15C)/$141$/OK$3t$3$3O/END$P12<c$3t$3$3O/All reset!]"
  1: 0x07D8 [0x25] WAIT_DIALOG_SELECT()
  2: 0x07D9 [0x02] IF !(Work_Zone[0] == 0*) GOTO 0x07ED
  3: 0x07E1 [0x1D] PRINT_EVENT_MESSAGE(message_id=6691*)
    → "Abracadabra!"
  4: 0x07E4 [0x23] WAIT_FOR_DIALOG_INTERACTION
  5: 0x07E5 [0x03] Work_Zone[1] = 37*
  6: 0x07EA [0x01] GOTO 0x0881
  7: 0x07ED [0x02] IF !(Work_Zone[0] == 1*) GOTO 0x07FD
  8: 0x07F5 [0x03] Work_Zone[1] = 38*
  9: 0x07FA [0x01] GOTO 0x0881
 10: 0x07FD [0x02] IF !(Work_Zone[0] == 2*) GOTO 0x080D
 11: 0x0805 [0x03] Work_Zone[1] = 39*
 12: 0x080A [0x01] GOTO 0x0881
 13: 0x080D [0x02] IF !(Work_Zone[0] == 3*) GOTO 0x081D
 14: 0x0815 [0x03] Work_Zone[1] = 105*
 15: 0x081A [0x01] GOTO 0x0881
 16: 0x081D [0x02] IF !(Work_Zone[0] == 4*) GOTO 0x082D
 17: 0x0825 [0x03] Work_Zone[1] = 40*
 18: 0x082A [0x01] GOTO 0x0881
 19: 0x082D [0x02] IF !(Work_Zone[0] == 5*) GOTO 0x083D
 20: 0x0835 [0x03] Work_Zone[1] = 106*
 21: 0x083A [0x01] GOTO 0x0881
 22: 0x083D [0x02] IF !(Work_Zone[0] == 6*) GOTO 0x084D
 23: 0x0845 [0x03] Work_Zone[1] = 41*
 24: 0x084A [0x01] GOTO 0x0881
 25: 0x084D [0x02] IF !(Work_Zone[0] == 7*) GOTO 0x085D
 26: 0x0855 [0x03] Work_Zone[1] = 42*
 27: 0x085A [0x01] GOTO 0x0881
 28: 0x085D [0x02] IF !(Work_Zone[0] == 8*) GOTO 0x086D
 29: 0x0865 [0x03] Work_Zone[1] = 43*
 30: 0x086A [0x01] GOTO 0x0881
 31: 0x086D [0x02] IF !(Work_Zone[0] == 9*) GOTO 0x0881
 32: 0x0875 [0x1D] PRINT_EVENT_MESSAGE(message_id=6692*)
    → "Oh no! Your Adventurers' certificate vanished!"
 33: 0x0878 [0x23] WAIT_FOR_DIALOG_INTERACTION
 34: 0x0879 [0x03] Work_Zone[1] = 100*
 35: 0x087E [0x01] GOTO 0x0881

SUBROUTINE_0881:
 36: 0x0881 [0x20] SET_CLI_EVENT_UC_FLAG: Unlock player control
 37: 0x0883 [0x21] END_EVENT
 38: 0x0884 [0x00] END_REQSTACK()
```

### Event 65535.11

#### Metadata

| Field        | Value     |
|--------------|-----------|
| Entrypoint   | 0x0885    |
| Data Size    | 116 bytes |
| Instructions | 27        |

```
      00 01 02 03 04 05 06 07  08 09 0A 0B 0C 0D 0E 0F
      -- -- -- -- -- -- -- --  -- -- -- -- -- -- -- --
0880:                24 5E 80  01 80 01 80 25 02 00 10       $^.....%...
0890: 01 80 00 A1 08 1D 3F 80  23 03 01 10 5F 80 01 F5  ......?.#..._...
08A0: 08 02 00 10 02 80 00 B1  08 03 01 10 60 80 01 F5  ............`...
08B0: 08 02 00 10 03 80 00 C1  08 03 01 10 61 80 01 F5  ............a...
08C0: 08 02 00 10 04 80 00 D1  08 03 01 10 62 80 01 F5  ............b...
08D0: 08 02 00 10 06 80 00 E1  08 03 01 10 63 80 01 F5  ............c...
08E0: 08 02 00 10 08 80 00 F5  08 1D 33 80 23 03 01 10  ..........3.#...
08F0: 09 80 01 F5 08 20 00 21  00                       ..... .!.       
```

#### Opcodes

```
  0: 0x0885 [0x24] CREATE_DIALOG(message_id=6701*, default_option=0*, option_flags=0*)
    → "m203$3t$3$3O%'DiE$3U[$3}$3XH [@OK$3t$3$3O/START$3t$3$3O/$P13VL$3$sA=$3t$3$3O/END$P12<c$3t$3$3O/$3T$3$3h$3$3A$sAD+=/All reset!]"
  1: 0x088C [0x25] WAIT_DIALOG_SELECT()
  2: 0x088D [0x02] IF !(Work_Zone[0] == 0*) GOTO 0x08A1
  3: 0x0895 [0x1D] PRINT_EVENT_MESSAGE(message_id=6691*)
    → "Abracadabra!"
  4: 0x0898 [0x23] WAIT_FOR_DIALOG_INTERACTION
  5: 0x0899 [0x03] Work_Zone[1] = 45*
  6: 0x089E [0x01] GOTO 0x08F5
  7: 0x08A1 [0x02] IF !(Work_Zone[0] == 1*) GOTO 0x08B1
  8: 0x08A9 [0x03] Work_Zone[1] = 46*
  9: 0x08AE [0x01] GOTO 0x08F5
 10: 0x08B1 [0x02] IF !(Work_Zone[0] == 2*) GOTO 0x08C1
 11: 0x08B9 [0x03] Work_Zone[1] = 47*
 12: 0x08BE [0x01] GOTO 0x08F5
 13: 0x08C1 [0x02] IF !(Work_Zone[0] == 3*) GOTO 0x08D1
 14: 0x08C9 [0x03] Work_Zone[1] = 48*
 15: 0x08CE [0x01] GOTO 0x08F5
 16: 0x08D1 [0x02] IF !(Work_Zone[0] == 4*) GOTO 0x08E1
 17: 0x08D9 [0x03] Work_Zone[1] = 110*
 18: 0x08DE [0x01] GOTO 0x08F5
 19: 0x08E1 [0x02] IF !(Work_Zone[0] == 5*) GOTO 0x08F5
 20: 0x08E9 [0x1D] PRINT_EVENT_MESSAGE(message_id=6692*)
    → "Oh no! Your Adventurers' certificate vanished!"
 21: 0x08EC [0x23] WAIT_FOR_DIALOG_INTERACTION
 22: 0x08ED [0x03] Work_Zone[1] = 100*
 23: 0x08F2 [0x01] GOTO 0x08F5

SUBROUTINE_08F5:
 24: 0x08F5 [0x20] SET_CLI_EVENT_UC_FLAG: Unlock player control
 25: 0x08F7 [0x21] END_EVENT
 26: 0x08F8 [0x00] END_REQSTACK()
```

### Event 65535.12

#### Metadata

| Field        | Value     |
|--------------|-----------|
| Entrypoint   | 0x08F9    |
| Data Size    | 116 bytes |
| Instructions | 27        |

```
      00 01 02 03 04 05 06 07  08 09 0A 0B 0C 0D 0E 0F
      -- -- -- -- -- -- -- --  -- -- -- -- -- -- -- --
08F0:                             24 64 80 01 80 01 80           $d.....
0900: 25 02 00 10 01 80 00 15  09 1D 3F 80 23 03 01 10  %.........?.#...
0910: 22 80 01 69 09 02 00 10  02 80 00 25 09 03 01 10  "..i.......%....
0920: 25 80 01 69 09 02 00 10  03 80 00 35 09 03 01 10  %..i.......5....
0930: 27 80 01 69 09 02 00 10  04 80 00 45 09 03 01 10  '..i.......E....
0940: 65 80 01 69 09 02 00 10  06 80 00 55 09 03 01 10  e..i.......U....
0950: 66 80 01 69 09 02 00 10  08 80 00 69 09 1D 33 80  f..i.......i..3.
0960: 23 03 01 10 09 80 01 69  09 20 00 21 00           #......i. .!.   
```

#### Opcodes

```
  0: 0x08F9 [0x24] CREATE_DIALOG(message_id=6703*, default_option=0*, option_flags=0*)
    → "@m203_1Bi1%q$P16Zj$3t$3$3O%'DiE$3U[$3}$3XH [@OK$3t$3$3O/@$3o$3X$3g$3D[$3N%L$22$Y$sA=$3t$3$3O/$201548$sA=$3t$3$3O/@$3M$3f$3A$3Xlv2$sA=$3t$3$3O/@END$P12<c$3t$3$3O/@All reset!]"
  1: 0x0900 [0x25] WAIT_DIALOG_SELECT()
  2: 0x0901 [0x02] IF !(Work_Zone[0] == 0*) GOTO 0x0915
  3: 0x0909 [0x1D] PRINT_EVENT_MESSAGE(message_id=6691*)
    → "Abracadabra!"
  4: 0x090C [0x23] WAIT_FOR_DIALOG_INTERACTION
  5: 0x090D [0x03] Work_Zone[1] = 50*
  6: 0x0912 [0x01] GOTO 0x0969
  7: 0x0915 [0x02] IF !(Work_Zone[0] == 1*) GOTO 0x0925
  8: 0x091D [0x03] Work_Zone[1] = 51*
  9: 0x0922 [0x01] GOTO 0x0969
 10: 0x0925 [0x02] IF !(Work_Zone[0] == 2*) GOTO 0x0935
 11: 0x092D [0x03] Work_Zone[1] = 52*
 12: 0x0932 [0x01] GOTO 0x0969
 13: 0x0935 [0x02] IF !(Work_Zone[0] == 3*) GOTO 0x0945
 14: 0x093D [0x03] Work_Zone[1] = 53*
 15: 0x0942 [0x01] GOTO 0x0969
 16: 0x0945 [0x02] IF !(Work_Zone[0] == 4*) GOTO 0x0955
 17: 0x094D [0x03] Work_Zone[1] = 54*
 18: 0x0952 [0x01] GOTO 0x0969
 19: 0x0955 [0x02] IF !(Work_Zone[0] == 5*) GOTO 0x0969
 20: 0x095D [0x1D] PRINT_EVENT_MESSAGE(message_id=6692*)
    → "Oh no! Your Adventurers' certificate vanished!"
 21: 0x0960 [0x23] WAIT_FOR_DIALOG_INTERACTION
 22: 0x0961 [0x03] Work_Zone[1] = 100*
 23: 0x0966 [0x01] GOTO 0x0969

SUBROUTINE_0969:
 24: 0x0969 [0x20] SET_CLI_EVENT_UC_FLAG: Unlock player control
 25: 0x096B [0x21] END_EVENT
 26: 0x096C [0x00] END_REQSTACK()
```

### Event 65535.13

#### Metadata

| Field        | Value     |
|--------------|-----------|
| Entrypoint   | 0x096D    |
| Data Size    | 116 bytes |
| Instructions | 27        |

```
      00 01 02 03 04 05 06 07  08 09 0A 0B 0C 0D 0E 0F
      -- -- -- -- -- -- -- --  -- -- -- -- -- -- -- --
0960:                                         24 67 80               $g.
0970: 01 80 01 80 25 02 00 10  01 80 00 89 09 1D 3F 80  ....%.........?.
0980: 23 03 01 10 68 80 01 DD  09 02 00 10 02 80 00 99  #...h...........
0990: 09 03 01 10 69 80 01 DD  09 02 00 10 03 80 00 A9  ....i...........
09A0: 09 03 01 10 6A 80 01 DD  09 02 00 10 04 80 00 B9  ....j...........
09B0: 09 03 01 10 6B 80 01 DD  09 02 00 10 06 80 00 C9  ....k...........
09C0: 09 03 01 10 6C 80 01 DD  09 02 00 10 08 80 00 DD  ....l...........
09D0: 09 1D 33 80 23 03 01 10  09 80 01 DD 09 20 00 21  ..3.#........ .!
09E0: 00                                                .               
```

#### Opcodes

```
  0: 0x096D [0x24] CREATE_DIALOG(message_id=6704*, default_option=0*, option_flags=0*)
    → "@m203_2Bi2%q$P16Zj$3t$3$3O%'DiE$3U[$3}$3XH [@OK$3t$3$3O/@$3o$3X$3g$3D[$3N%L$22$Y$sA=$3t$3$3O/$201548$sA=$3t$3$3O/@$3M$3f$3A$3Xlv3$sA=$3t$3$3O/@END$P12<c$3t$3$3O/@All reset!]"
  1: 0x0974 [0x25] WAIT_DIALOG_SELECT()
  2: 0x0975 [0x02] IF !(Work_Zone[0] == 0*) GOTO 0x0989
  3: 0x097D [0x1D] PRINT_EVENT_MESSAGE(message_id=6691*)
    → "Abracadabra!"
  4: 0x0980 [0x23] WAIT_FOR_DIALOG_INTERACTION
  5: 0x0981 [0x03] Work_Zone[1] = 55*
  6: 0x0986 [0x01] GOTO 0x09DD
  7: 0x0989 [0x02] IF !(Work_Zone[0] == 1*) GOTO 0x0999
  8: 0x0991 [0x03] Work_Zone[1] = 56*
  9: 0x0996 [0x01] GOTO 0x09DD
 10: 0x0999 [0x02] IF !(Work_Zone[0] == 2*) GOTO 0x09A9
 11: 0x09A1 [0x03] Work_Zone[1] = 57*
 12: 0x09A6 [0x01] GOTO 0x09DD
 13: 0x09A9 [0x02] IF !(Work_Zone[0] == 3*) GOTO 0x09B9
 14: 0x09B1 [0x03] Work_Zone[1] = 58*
 15: 0x09B6 [0x01] GOTO 0x09DD
 16: 0x09B9 [0x02] IF !(Work_Zone[0] == 4*) GOTO 0x09C9
 17: 0x09C1 [0x03] Work_Zone[1] = 59*
 18: 0x09C6 [0x01] GOTO 0x09DD
 19: 0x09C9 [0x02] IF !(Work_Zone[0] == 5*) GOTO 0x09DD
 20: 0x09D1 [0x1D] PRINT_EVENT_MESSAGE(message_id=6692*)
    → "Oh no! Your Adventurers' certificate vanished!"
 21: 0x09D4 [0x23] WAIT_FOR_DIALOG_INTERACTION
 22: 0x09D5 [0x03] Work_Zone[1] = 100*
 23: 0x09DA [0x01] GOTO 0x09DD

SUBROUTINE_09DD:
 24: 0x09DD [0x20] SET_CLI_EVENT_UC_FLAG: Unlock player control
 25: 0x09DF [0x21] END_EVENT
 26: 0x09E0 [0x00] END_REQSTACK()
```

### Event 65535.14

#### Metadata

| Field        | Value     |
|--------------|-----------|
| Entrypoint   | 0x09E1    |
| Data Size    | 116 bytes |
| Instructions | 27        |

```
      00 01 02 03 04 05 06 07  08 09 0A 0B 0C 0D 0E 0F
      -- -- -- -- -- -- -- --  -- -- -- -- -- -- -- --
09E0:    24 6D 80 01 80 01 80  25 02 00 10 01 80 00 FD   $m.....%.......
09F0: 09 1D 3F 80 23 03 01 10  6E 80 01 51 0A 02 00 10  ..?.#...n..Q....
0A00: 02 80 00 0D 0A 03 01 10  6F 80 01 51 0A 02 00 10  ........o..Q....
0A10: 03 80 00 1D 0A 03 01 10  70 80 01 51 0A 02 00 10  ........p..Q....
0A20: 04 80 00 2D 0A 03 01 10  71 80 01 51 0A 02 00 10  ...-....q..Q....
0A30: 06 80 00 3D 0A 03 01 10  72 80 01 51 0A 02 00 10  ...=....r..Q....
0A40: 08 80 00 51 0A 1D 33 80  23 03 01 10 09 80 01 51  ...Q..3.#......Q
0A50: 0A 20 00 21 00                                    . .!.           
```

#### Opcodes

```
  0: 0x09E1 [0x24] CREATE_DIALOG(message_id=6707*, default_option=0*, option_flags=0*)
    → "m301$3t$3$3O%'DiE$3U[$3}$3XH [@OK$3t$3$3O/START$3t$3$3O/$P13VL$3$sA=$3t$3$3O/$3I$3Y$3g$3$3$4$sA=$3t$3$3O/END$P12<c$3t$3$3O/All reset!]"
  1: 0x09E8 [0x25] WAIT_DIALOG_SELECT()
  2: 0x09E9 [0x02] IF !(Work_Zone[0] == 0*) GOTO 0x09FD
  3: 0x09F1 [0x1D] PRINT_EVENT_MESSAGE(message_id=6691*)
    → "Abracadabra!"
  4: 0x09F4 [0x23] WAIT_FOR_DIALOG_INTERACTION
  5: 0x09F5 [0x03] Work_Zone[1] = 60*
  6: 0x09FA [0x01] GOTO 0x0A51
  7: 0x09FD [0x02] IF !(Work_Zone[0] == 1*) GOTO 0x0A0D
  8: 0x0A05 [0x03] Work_Zone[1] = 61*
  9: 0x0A0A [0x01] GOTO 0x0A51
 10: 0x0A0D [0x02] IF !(Work_Zone[0] == 2*) GOTO 0x0A1D
 11: 0x0A15 [0x03] Work_Zone[1] = 62*
 12: 0x0A1A [0x01] GOTO 0x0A51
 13: 0x0A1D [0x02] IF !(Work_Zone[0] == 3*) GOTO 0x0A2D
 14: 0x0A25 [0x03] Work_Zone[1] = 63*
 15: 0x0A2A [0x01] GOTO 0x0A51
 16: 0x0A2D [0x02] IF !(Work_Zone[0] == 4*) GOTO 0x0A3D
 17: 0x0A35 [0x03] Work_Zone[1] = 64*
 18: 0x0A3A [0x01] GOTO 0x0A51
 19: 0x0A3D [0x02] IF !(Work_Zone[0] == 5*) GOTO 0x0A51
 20: 0x0A45 [0x1D] PRINT_EVENT_MESSAGE(message_id=6692*)
    → "Oh no! Your Adventurers' certificate vanished!"
 21: 0x0A48 [0x23] WAIT_FOR_DIALOG_INTERACTION
 22: 0x0A49 [0x03] Work_Zone[1] = 100*
 23: 0x0A4E [0x01] GOTO 0x0A51

SUBROUTINE_0A51:
 24: 0x0A51 [0x20] SET_CLI_EVENT_UC_FLAG: Unlock player control
 25: 0x0A53 [0x21] END_EVENT
 26: 0x0A54 [0x00] END_REQSTACK()
```

### Event 65535.15

#### Metadata

| Field        | Value     |
|--------------|-----------|
| Entrypoint   | 0x0A55    |
| Data Size    | 132 bytes |
| Instructions | 30        |

```
      00 01 02 03 04 05 06 07  08 09 0A 0B 0C 0D 0E 0F
      -- -- -- -- -- -- -- --  -- -- -- -- -- -- -- --
0A50:                24 73 80  01 80 01 80 25 02 00 10       $s.....%...
0A60: 01 80 00 71 0A 1D 3F 80  23 03 01 10 74 80 01 D5  ...q..?.#...t...
0A70: 0A 02 00 10 02 80 00 81  0A 03 01 10 75 80 01 D5  ............u...
0A80: 0A 02 00 10 03 80 00 91  0A 03 01 10 76 80 01 D5  ............v...
0A90: 0A 02 00 10 04 80 00 A1  0A 03 01 10 77 80 01 D5  ............w...
0AA0: 0A 02 00 10 06 80 00 B1  0A 03 01 10 78 80 01 D5  ............x...
0AB0: 0A 02 00 10 08 80 00 C1  0A 03 01 10 79 80 01 D5  ............y...
0AC0: 0A 02 00 10 0A 80 00 D5  0A 1D 33 80 23 03 01 10  ..........3.#...
0AD0: 09 80 01 D5 0A 20 00 21  00                       ..... .!.       
```

#### Opcodes

```
  0: 0x0A55 [0x24] CREATE_DIALOG(message_id=6708*, default_option=0*, option_flags=0*)
    → "m302$3t$3$3O%'DiE$3U[$3}$3XH [@OK$3t$3$3O/START$3t$3$3O/$P13VL$3$sA=$3t$3$3O/$2$P16@$3Q$sA=$3t$3$3O/END$P12<c$3t$3$3O"%q$P16Z$/=$3t$3$3O/All reset!]"
  1: 0x0A5C [0x25] WAIT_DIALOG_SELECT()
  2: 0x0A5D [0x02] IF !(Work_Zone[0] == 0*) GOTO 0x0A71
  3: 0x0A65 [0x1D] PRINT_EVENT_MESSAGE(message_id=6691*)
    → "Abracadabra!"
  4: 0x0A68 [0x23] WAIT_FOR_DIALOG_INTERACTION
  5: 0x0A69 [0x03] Work_Zone[1] = 65*
  6: 0x0A6E [0x01] GOTO 0x0AD5
  7: 0x0A71 [0x02] IF !(Work_Zone[0] == 1*) GOTO 0x0A81
  8: 0x0A79 [0x03] Work_Zone[1] = 66*
  9: 0x0A7E [0x01] GOTO 0x0AD5
 10: 0x0A81 [0x02] IF !(Work_Zone[0] == 2*) GOTO 0x0A91
 11: 0x0A89 [0x03] Work_Zone[1] = 67*
 12: 0x0A8E [0x01] GOTO 0x0AD5
 13: 0x0A91 [0x02] IF !(Work_Zone[0] == 3*) GOTO 0x0AA1
 14: 0x0A99 [0x03] Work_Zone[1] = 68*
 15: 0x0A9E [0x01] GOTO 0x0AD5
 16: 0x0AA1 [0x02] IF !(Work_Zone[0] == 4*) GOTO 0x0AB1
 17: 0x0AA9 [0x03] Work_Zone[1] = 69*
 18: 0x0AAE [0x01] GOTO 0x0AD5
 19: 0x0AB1 [0x02] IF !(Work_Zone[0] == 5*) GOTO 0x0AC1
 20: 0x0AB9 [0x03] Work_Zone[1] = 108*
 21: 0x0ABE [0x01] GOTO 0x0AD5
 22: 0x0AC1 [0x02] IF !(Work_Zone[0] == 6*) GOTO 0x0AD5
 23: 0x0AC9 [0x1D] PRINT_EVENT_MESSAGE(message_id=6692*)
    → "Oh no! Your Adventurers' certificate vanished!"
 24: 0x0ACC [0x23] WAIT_FOR_DIALOG_INTERACTION
 25: 0x0ACD [0x03] Work_Zone[1] = 100*
 26: 0x0AD2 [0x01] GOTO 0x0AD5

SUBROUTINE_0AD5:
 27: 0x0AD5 [0x20] SET_CLI_EVENT_UC_FLAG: Unlock player control
 28: 0x0AD7 [0x21] END_EVENT
 29: 0x0AD8 [0x00] END_REQSTACK()
```

### Event 65535.16

#### Metadata

| Field        | Value     |
|--------------|-----------|
| Entrypoint   | 0x0AD9    |
| Data Size    | 112 bytes |
| Instructions | 25        |

```
      00 01 02 03 04 05 06 07  08 09 0A 0B 0C 0D 0E 0F
      -- -- -- -- -- -- -- --  -- -- -- -- -- -- -- --
0AD0:                             24 7A 80 01 80 01 80           $z.....
0AE0: 25 02 00 10 01 80 00 F1  0A 03 01 10 7B 80 01 45  %...........{..E
0AF0: 0B 02 00 10 02 80 00 01  0B 03 01 10 7C 80 01 45  ............|..E
0B00: 0B 02 00 10 03 80 00 11  0B 03 01 10 7D 80 01 45  ............}..E
0B10: 0B 02 00 10 04 80 00 21  0B 03 01 10 7E 80 01 45  .......!....~..E
0B20: 0B 02 00 10 06 80 00 31  0B 03 01 10 7F 80 01 45  .......1.......E
0B30: 0B 02 00 10 08 80 00 45  0B 1D 33 80 23 03 01 10  .......E..3.#...
0B40: 09 80 01 45 0B 20 00 21  00                       ...E. .!.       
```

#### Opcodes

```
  0: 0x0AD9 [0x24] CREATE_DIALOG(message_id=6709*, default_option=0*, option_flags=0*)
    → "m303$3t$3$3O%'DiE$3U[$3}$3XH [@OK$3t$3$3O"02$3N$3$3A$5"/START$3t$3$3O/$P13VL$3$sA=$3t$3$3O/$3998273$3t$3$3O/END$P12<c$3t$3$3O/All reset!]"
  1: 0x0AE0 [0x25] WAIT_DIALOG_SELECT()
  2: 0x0AE1 [0x02] IF !(Work_Zone[0] == 0*) GOTO 0x0AF1
  3: 0x0AE9 [0x03] Work_Zone[1] = 70*
  4: 0x0AEE [0x01] GOTO 0x0B45
  5: 0x0AF1 [0x02] IF !(Work_Zone[0] == 1*) GOTO 0x0B01
  6: 0x0AF9 [0x03] Work_Zone[1] = 112*
  7: 0x0AFE [0x01] GOTO 0x0B45
  8: 0x0B01 [0x02] IF !(Work_Zone[0] == 2*) GOTO 0x0B11
  9: 0x0B09 [0x03] Work_Zone[1] = 71*
 10: 0x0B0E [0x01] GOTO 0x0B45
 11: 0x0B11 [0x02] IF !(Work_Zone[0] == 3*) GOTO 0x0B21
 12: 0x0B19 [0x03] Work_Zone[1] = 72*
 13: 0x0B1E [0x01] GOTO 0x0B45
 14: 0x0B21 [0x02] IF !(Work_Zone[0] == 4*) GOTO 0x0B31
 15: 0x0B29 [0x03] Work_Zone[1] = 73*
 16: 0x0B2E [0x01] GOTO 0x0B45
 17: 0x0B31 [0x02] IF !(Work_Zone[0] == 5*) GOTO 0x0B45
 18: 0x0B39 [0x1D] PRINT_EVENT_MESSAGE(message_id=6692*)
    → "Oh no! Your Adventurers' certificate vanished!"
 19: 0x0B3C [0x23] WAIT_FOR_DIALOG_INTERACTION
 20: 0x0B3D [0x03] Work_Zone[1] = 100*
 21: 0x0B42 [0x01] GOTO 0x0B45

SUBROUTINE_0B45:
 22: 0x0B45 [0x20] SET_CLI_EVENT_UC_FLAG: Unlock player control
 23: 0x0B47 [0x21] END_EVENT
 24: 0x0B48 [0x00] END_REQSTACK()
```

### Event 65535.17

#### Metadata

| Field        | Value     |
|--------------|-----------|
| Entrypoint   | 0x0B49    |
| Data Size    | 160 bytes |
| Instructions | 34        |

```
      00 01 02 03 04 05 06 07  08 09 0A 0B 0C 0D 0E 0F
      -- -- -- -- -- -- -- --  -- -- -- -- -- -- -- --
0B40:                             24 80 80 01 80 01 80           $......
0B50: 25 02 00 10 01 80 00 61  0B 03 01 10 81 80 01 E5  %......a........
0B60: 0B 02 00 10 02 80 00 71  0B 03 01 10 82 80 01 E5  .......q........
0B70: 0B 02 00 10 03 80 00 81  0B 03 01 10 83 80 01 E5  ................
0B80: 0B 02 00 10 04 80 00 91  0B 03 01 10 84 80 01 E5  ................
0B90: 0B 02 00 10 06 80 00 A1  0B 03 01 10 85 80 01 E5  ................
0BA0: 0B 02 00 10 08 80 00 B1  0B 03 01 10 86 80 01 E5  ................
0BB0: 0B 02 00 10 0A 80 00 C1  0B 03 01 10 87 80 01 E5  ................
0BC0: 0B 02 00 10 0C 80 00 D1  0B 03 01 10 88 80 01 E5  ................
0BD0: 0B 02 00 10 0D 80 00 E5  0B 1D 33 80 23 03 01 10  ..........3.#...
0BE0: 09 80 01 E5 0B 20 00 21  00                       ..... .!.       
```

#### Opcodes

```
  0: 0x0B49 [0x24] CREATE_DIALOG(message_id=6710*, default_option=0*, option_flags=0*)
    → "m501$3t$3$3O%'DiE$3U[$3}$3XH [@OK$3t$3$3O/OK$3t$3$3O(MS3-2$6423136ADH")/$P13VL$3$sA=$3t$3$3O/$P13VL$3$sA=/G$P12fA=$3t$3$3O/$3K$7540293/=$3t$3$3O/$3t$3F$3C$3$13sA=$3t$3$3O/END$P12<c$3t$3$3O/11E3-2p$s/=gci$2$P13!%pj/All reset!]"
  1: 0x0B50 [0x25] WAIT_DIALOG_SELECT()
  2: 0x0B51 [0x02] IF !(Work_Zone[0] == 0*) GOTO 0x0B61
  3: 0x0B59 [0x03] Work_Zone[1] = 74*
  4: 0x0B5E [0x01] GOTO 0x0BE5
  5: 0x0B61 [0x02] IF !(Work_Zone[0] == 1*) GOTO 0x0B71
  6: 0x0B69 [0x03] Work_Zone[1] = 113*
  7: 0x0B6E [0x01] GOTO 0x0BE5
  8: 0x0B71 [0x02] IF !(Work_Zone[0] == 2*) GOTO 0x0B81
  9: 0x0B79 [0x03] Work_Zone[1] = 75*
 10: 0x0B7E [0x01] GOTO 0x0BE5
 11: 0x0B81 [0x02] IF !(Work_Zone[0] == 3*) GOTO 0x0B91
 12: 0x0B89 [0x03] Work_Zone[1] = 107*
 13: 0x0B8E [0x01] GOTO 0x0BE5
 14: 0x0B91 [0x02] IF !(Work_Zone[0] == 4*) GOTO 0x0BA1
 15: 0x0B99 [0x03] Work_Zone[1] = 111*
 16: 0x0B9E [0x01] GOTO 0x0BE5
 17: 0x0BA1 [0x02] IF !(Work_Zone[0] == 5*) GOTO 0x0BB1
 18: 0x0BA9 [0x03] Work_Zone[1] = 76*
 19: 0x0BAE [0x01] GOTO 0x0BE5
 20: 0x0BB1 [0x02] IF !(Work_Zone[0] == 6*) GOTO 0x0BC1
 21: 0x0BB9 [0x03] Work_Zone[1] = 77*
 22: 0x0BBE [0x01] GOTO 0x0BE5
 23: 0x0BC1 [0x02] IF !(Work_Zone[0] == 7*) GOTO 0x0BD1
 24: 0x0BC9 [0x03] Work_Zone[1] = 114*
 25: 0x0BCE [0x01] GOTO 0x0BE5
 26: 0x0BD1 [0x02] IF !(Work_Zone[0] == 8*) GOTO 0x0BE5
 27: 0x0BD9 [0x1D] PRINT_EVENT_MESSAGE(message_id=6692*)
    → "Oh no! Your Adventurers' certificate vanished!"
 28: 0x0BDC [0x23] WAIT_FOR_DIALOG_INTERACTION
 29: 0x0BDD [0x03] Work_Zone[1] = 100*
 30: 0x0BE2 [0x01] GOTO 0x0BE5

SUBROUTINE_0BE5:
 31: 0x0BE5 [0x20] SET_CLI_EVENT_UC_FLAG: Unlock player control
 32: 0x0BE7 [0x21] END_EVENT
 33: 0x0BE8 [0x00] END_REQSTACK()
```

### Event 65535.18

#### Metadata

| Field        | Value     |
|--------------|-----------|
| Entrypoint   | 0x0BE9    |
| Data Size    | 116 bytes |
| Instructions | 27        |

```
      00 01 02 03 04 05 06 07  08 09 0A 0B 0C 0D 0E 0F
      -- -- -- -- -- -- -- --  -- -- -- -- -- -- -- --
0BE0:                             24 89 80 01 80 01 80           $......
0BF0: 25 02 00 10 01 80 00 05  0C 1D 3F 80 23 03 01 10  %.........?.#...
0C00: 8A 80 01 59 0C 02 00 10  02 80 00 15 0C 03 01 10  ...Y............
0C10: 8B 80 01 59 0C 02 00 10  03 80 00 25 0C 03 01 10  ...Y.......%....
0C20: 8C 80 01 59 0C 02 00 10  04 80 00 35 0C 03 01 10  ...Y.......5....
0C30: 8D 80 01 59 0C 02 00 10  06 80 00 45 0C 03 01 10  ...Y.......E....
0C40: 8E 80 01 59 0C 02 00 10  08 80 00 59 0C 1D 33 80  ...Y.......Y..3.
0C50: 23 03 01 10 09 80 01 59  0C 20 00 21 00           #......Y. .!.   
```

#### Opcodes

```
  0: 0x0BE9 [0x24] CREATE_DIALOG(message_id=6711*, default_option=0*, option_flags=0*)
    → "m502$3t$3$3O%'DiE$3U[$3}$3XH [@OK$3t$3$3O/START/$P13VL$3$sA=$3t$3$3O/$3Y$3$3@$3998273$3t$3$3O/END$P12<c$3t$3$3O/All reset!]"
  1: 0x0BF0 [0x25] WAIT_DIALOG_SELECT()
  2: 0x0BF1 [0x02] IF !(Work_Zone[0] == 0*) GOTO 0x0C05
  3: 0x0BF9 [0x1D] PRINT_EVENT_MESSAGE(message_id=6691*)
    → "Abracadabra!"
  4: 0x0BFC [0x23] WAIT_FOR_DIALOG_INTERACTION
  5: 0x0BFD [0x03] Work_Zone[1] = 78*
  6: 0x0C02 [0x01] GOTO 0x0C59
  7: 0x0C05 [0x02] IF !(Work_Zone[0] == 1*) GOTO 0x0C15
  8: 0x0C0D [0x03] Work_Zone[1] = 79*
  9: 0x0C12 [0x01] GOTO 0x0C59
 10: 0x0C15 [0x02] IF !(Work_Zone[0] == 2*) GOTO 0x0C25
 11: 0x0C1D [0x03] Work_Zone[1] = 80*
 12: 0x0C22 [0x01] GOTO 0x0C59
 13: 0x0C25 [0x02] IF !(Work_Zone[0] == 3*) GOTO 0x0C35
 14: 0x0C2D [0x03] Work_Zone[1] = 81*
 15: 0x0C32 [0x01] GOTO 0x0C59
 16: 0x0C35 [0x02] IF !(Work_Zone[0] == 4*) GOTO 0x0C45
 17: 0x0C3D [0x03] Work_Zone[1] = 82*
 18: 0x0C42 [0x01] GOTO 0x0C59
 19: 0x0C45 [0x02] IF !(Work_Zone[0] == 5*) GOTO 0x0C59
 20: 0x0C4D [0x1D] PRINT_EVENT_MESSAGE(message_id=6692*)
    → "Oh no! Your Adventurers' certificate vanished!"
 21: 0x0C50 [0x23] WAIT_FOR_DIALOG_INTERACTION
 22: 0x0C51 [0x03] Work_Zone[1] = 100*
 23: 0x0C56 [0x01] GOTO 0x0C59

SUBROUTINE_0C59:
 24: 0x0C59 [0x20] SET_CLI_EVENT_UC_FLAG: Unlock player control
 25: 0x0C5B [0x21] END_EVENT
 26: 0x0C5C [0x00] END_REQSTACK()
```

### Event 65535.19

#### Metadata

| Field        | Value     |
|--------------|-----------|
| Entrypoint   | 0x0C5D    |
| Data Size    | 116 bytes |
| Instructions | 27        |

```
      00 01 02 03 04 05 06 07  08 09 0A 0B 0C 0D 0E 0F
      -- -- -- -- -- -- -- --  -- -- -- -- -- -- -- --
0C50:                                         24 8F 80               $..
0C60: 01 80 01 80 25 02 00 10  01 80 00 79 0C 1D 3F 80  ....%......y..?.
0C70: 23 03 01 10 90 80 01 CD  0C 02 00 10 02 80 00 89  #...............
0C80: 0C 03 01 10 91 80 01 CD  0C 02 00 10 03 80 00 99  ................
0C90: 0C 03 01 10 92 80 01 CD  0C 02 00 10 04 80 00 A9  ................
0CA0: 0C 03 01 10 93 80 01 CD  0C 02 00 10 06 80 00 B9  ................
0CB0: 0C 03 01 10 94 80 01 CD  0C 02 00 10 08 80 00 CD  ................
0CC0: 0C 1D 33 80 23 03 01 10  09 80 01 CD 0C 20 00 21  ..3.#........ .!
0CD0: 00                                                .               
```

#### Opcodes

```
  0: 0x0C5D [0x24] CREATE_DIALOG(message_id=6705*, default_option=0*, option_flags=0*)
    → "m203_1A(1%q$P16Z)$3t$3$3O%'DiE$3U[$3}$3XH [@OK$3t$3$3O/$3T$3$3h$3$3A%L$22$Y$sA=$3t$3$3O"$7L$2p$hI$P13|j=>//$3M$3f$3A$3Xlv2E$2$P16@$2p$P14[_=>//END$P12<c$3t$3$3O/All reset!]"
  1: 0x0C64 [0x25] WAIT_DIALOG_SELECT()
  2: 0x0C65 [0x02] IF !(Work_Zone[0] == 0*) GOTO 0x0C79
  3: 0x0C6D [0x1D] PRINT_EVENT_MESSAGE(message_id=6691*)
    → "Abracadabra!"
  4: 0x0C70 [0x23] WAIT_FOR_DIALOG_INTERACTION
  5: 0x0C71 [0x03] Work_Zone[1] = 83*
  6: 0x0C76 [0x01] GOTO 0x0CCD
  7: 0x0C79 [0x02] IF !(Work_Zone[0] == 1*) GOTO 0x0C89
  8: 0x0C81 [0x03] Work_Zone[1] = 84*
  9: 0x0C86 [0x01] GOTO 0x0CCD
 10: 0x0C89 [0x02] IF !(Work_Zone[0] == 2*) GOTO 0x0C99
 11: 0x0C91 [0x03] Work_Zone[1] = 85*
 12: 0x0C96 [0x01] GOTO 0x0CCD
 13: 0x0C99 [0x02] IF !(Work_Zone[0] == 3*) GOTO 0x0CA9
 14: 0x0CA1 [0x03] Work_Zone[1] = 86*
 15: 0x0CA6 [0x01] GOTO 0x0CCD
 16: 0x0CA9 [0x02] IF !(Work_Zone[0] == 4*) GOTO 0x0CB9
 17: 0x0CB1 [0x03] Work_Zone[1] = 87*
 18: 0x0CB6 [0x01] GOTO 0x0CCD
 19: 0x0CB9 [0x02] IF !(Work_Zone[0] == 5*) GOTO 0x0CCD
 20: 0x0CC1 [0x1D] PRINT_EVENT_MESSAGE(message_id=6692*)
    → "Oh no! Your Adventurers' certificate vanished!"
 21: 0x0CC4 [0x23] WAIT_FOR_DIALOG_INTERACTION
 22: 0x0CC5 [0x03] Work_Zone[1] = 100*
 23: 0x0CCA [0x01] GOTO 0x0CCD

SUBROUTINE_0CCD:
 24: 0x0CCD [0x20] SET_CLI_EVENT_UC_FLAG: Unlock player control
 25: 0x0CCF [0x21] END_EVENT
 26: 0x0CD0 [0x00] END_REQSTACK()
```

### Event 65535.20

#### Metadata

| Field        | Value     |
|--------------|-----------|
| Entrypoint   | 0x0CD1    |
| Data Size    | 116 bytes |
| Instructions | 27        |

```
      00 01 02 03 04 05 06 07  08 09 0A 0B 0C 0D 0E 0F
      -- -- -- -- -- -- -- --  -- -- -- -- -- -- -- --
0CD0:    24 95 80 01 80 01 80  25 02 00 10 01 80 00 ED   $......%.......
0CE0: 0C 1D 3F 80 23 03 01 10  96 80 01 41 0D 02 00 10  ..?.#......A....
0CF0: 02 80 00 FD 0C 03 01 10  97 80 01 41 0D 02 00 10  ...........A....
0D00: 03 80 00 0D 0D 03 01 10  98 80 01 41 0D 02 00 10  ...........A....
0D10: 04 80 00 1D 0D 03 01 10  99 80 01 41 0D 02 00 10  ...........A....
0D20: 06 80 00 2D 0D 03 01 10  9A 80 01 41 0D 02 00 10  ...-.......A....
0D30: 08 80 00 41 0D 1D 33 80  23 03 01 10 09 80 01 41  ...A..3.#......A
0D40: 0D 20 00 21 00                                    . .!.           
```

#### Opcodes

```
  0: 0x0CD1 [0x24] CREATE_DIALOG(message_id=6706*, default_option=0*, option_flags=0*)
    → "m203_2A(2%q$P16Z)$3t$3$3O%'DiE$3U[$3}$3XH [@OK$3t$3$3O/$3T$3$3h$3$3A%L$22$Y$sA=$3t$3$3O/$P13VL$3$sA=$3t$3$3O/$3M$3f$3A$3Xlv3$sA=$3t$3$3O/END$P12<c$3t$3$3O/All reset!]"
  1: 0x0CD8 [0x25] WAIT_DIALOG_SELECT()
  2: 0x0CD9 [0x02] IF !(Work_Zone[0] == 0*) GOTO 0x0CED
  3: 0x0CE1 [0x1D] PRINT_EVENT_MESSAGE(message_id=6691*)
    → "Abracadabra!"
  4: 0x0CE4 [0x23] WAIT_FOR_DIALOG_INTERACTION
  5: 0x0CE5 [0x03] Work_Zone[1] = 88*
  6: 0x0CEA [0x01] GOTO 0x0D41
  7: 0x0CED [0x02] IF !(Work_Zone[0] == 1*) GOTO 0x0CFD
  8: 0x0CF5 [0x03] Work_Zone[1] = 89*
  9: 0x0CFA [0x01] GOTO 0x0D41
 10: 0x0CFD [0x02] IF !(Work_Zone[0] == 2*) GOTO 0x0D0D
 11: 0x0D05 [0x03] Work_Zone[1] = 90*
 12: 0x0D0A [0x01] GOTO 0x0D41
 13: 0x0D0D [0x02] IF !(Work_Zone[0] == 3*) GOTO 0x0D1D
 14: 0x0D15 [0x03] Work_Zone[1] = 91*
 15: 0x0D1A [0x01] GOTO 0x0D41
 16: 0x0D1D [0x02] IF !(Work_Zone[0] == 4*) GOTO 0x0D2D
 17: 0x0D25 [0x03] Work_Zone[1] = 92*
 18: 0x0D2A [0x01] GOTO 0x0D41
 19: 0x0D2D [0x02] IF !(Work_Zone[0] == 5*) GOTO 0x0D41
 20: 0x0D35 [0x1D] PRINT_EVENT_MESSAGE(message_id=6692*)
    → "Oh no! Your Adventurers' certificate vanished!"
 21: 0x0D38 [0x23] WAIT_FOR_DIALOG_INTERACTION
 22: 0x0D39 [0x03] Work_Zone[1] = 100*
 23: 0x0D3E [0x01] GOTO 0x0D41

SUBROUTINE_0D41:
 24: 0x0D41 [0x20] SET_CLI_EVENT_UC_FLAG: Unlock player control
 25: 0x0D43 [0x21] END_EVENT
 26: 0x0D44 [0x00] END_REQSTACK()
```

### Event 65535.21

#### Metadata

| Field        | Value    |
|--------------|----------|
| Entrypoint   | 0x0D45   |
| Data Size    | 44 bytes |
| Instructions | 11       |

```
      00 01 02 03 04 05 06 07  08 09 0A 0B 0C 0D 0E 0F
      -- -- -- -- -- -- -- --  -- -- -- -- -- -- -- --
0D40:                24 9B 80  01 80 01 80 25 02 00 10       $......%...
0D50: 01 80 00 5D 0D 03 01 10  9C 80 01 6D 0D 02 00 10  ...].......m....
0D60: 02 80 00 6D 0D 03 01 10  9D 80 01 6D 0D 20 00 21  ...m.......m. .!
0D70: 00                                                .               
```

#### Opcodes

```
  0: 0x0D45 [0x24] CREATE_DIALOG(message_id=6702*, default_option=0*, option_flags=0*)
    → "@m203_609$3t$3$3O%'DiE$3U[$3}$3XH [@OK$3t$3$3O/$P15P$P15{5)$3N$3$3A$5"]"
  1: 0x0D4C [0x25] WAIT_DIALOG_SELECT()
  2: 0x0D4D [0x02] IF !(Work_Zone[0] == 0*) GOTO 0x0D5D
  3: 0x0D55 [0x03] Work_Zone[1] = 93*
  4: 0x0D5A [0x01] GOTO 0x0D6D
  5: 0x0D5D [0x02] IF !(Work_Zone[0] == 1*) GOTO 0x0D6D
  6: 0x0D65 [0x03] Work_Zone[1] = 94*
  7: 0x0D6A [0x01] GOTO 0x0D6D

SUBROUTINE_0D6D:
  8: 0x0D6D [0x20] SET_CLI_EVENT_UC_FLAG: Unlock player control
  9: 0x0D6F [0x21] END_EVENT
 10: 0x0D70 [0x00] END_REQSTACK()
```

### Event 531

#### Metadata

| Field        | Value      |
|--------------|------------|
| Entrypoint   | 0x0D71     |
| Data Size    | 1499 bytes |
| Instructions | 211        |

```
      00 01 02 03 04 05 06 07  08 09 0A 0B 0C 0D 0E 0F
      -- -- -- -- -- -- -- --  -- -- -- -- -- -- -- --
0D70:    42 46 01 69 01 08 80  4E 01 0A E0 0E 01 4E 01   BF.i...N.....N.
0D80: 0B E0 0E 01 4E 01 94 E0  0E 01 5C 00 9E 80 5C 01  ....N.....\...\.
0D90: 9E 80 37 9F 80 A0 80 A1  80 A2 80 34 A3 80 77 01  ..7........4..w.
0DA0: 80 01 80 1C 35 80 45 A4  80 F0 FF FF 7F F0 FF FF  ....5.E.........
0DB0: 7F 73 30 30 31 01 80 1C  2D 80 45 18 80 F8 FF FF  .s001...-.E.....
0DC0: 7F F8 FF FF 7F 66 64 69  32 01 80 1C 8C 80 1C 7B  .....fdi2......{
0DD0: 80 67 8C 80 8C 80 48 A5  80 23 45 18 80 F8 FF FF  .g....H..#E.....
0DE0: 7F F8 FF FF 7F 66 64 6F  31 01 80 55 A4 80 F0 FF  .....fdo1..U....
0DF0: FF 7F F0 FF FF 7F 73 30  30 31 45 A4 80 F0 FF FF  ......s001E.....
0E00: 7F F0 FF FF 7F 73 30 30  32 01 80 1C 02 80 45 18  .....s002.....E.
0E10: 80 F8 FF FF 7F F8 FF FF  7F 66 64 69 31 01 80 67  .........fdi1..g
0E20: 8C 80 A6 80 48 A7 80 23  1C 2D 80 67 98 80 A6 80  ....H..#.-.g....
0E30: 48 A8 80 23 1C 14 80 45  18 80 F8 FF FF 7F F8 FF  H..#...E........
0E40: FF 7F 66 64 6F 31 01 80  55 A4 80 F0 FF FF 7F F0  ..fdo1..U.......
0E50: FF FF 7F 73 30 30 32 1C  6E 80 45 A4 80 F0 FF FF  ...s002.n.E.....
0E60: 7F F0 FF FF 7F 73 30 30  30 01 80 45 18 80 F8 FF  .....s000..E....
0E70: FF 7F F8 FF FF 7F 66 64  69 31 01 80 67 A9 80 A6  ......fdi1..g...
0E80: 80 48 AA 80 23 1C 2D 80  67 98 80 A6 80 48 AB 80  .H..#.-.g....H..
0E90: 23 1C 2D 80 45 18 80 F8  FF FF 7F F8 FF FF 7F 66  #.-.E..........f
0EA0: 64 6F 31 01 80 55 A4 80  F0 FF FF 7F F0 FF FF 7F  do1..U..........
0EB0: 73 30 30 30 1C 6E 80 45  A4 80 F0 FF FF 7F F0 FF  s000.n.E........
0EC0: FF 7F 73 30 30 35 01 80  45 18 80 F8 FF FF 7F F8  ..s005..E.......
0ED0: FF FF 7F 66 64 69 31 01  80 67 09 80 A6 80 1C 2D  ...fdi1..g.....-
0EE0: 80 67 63 80 A6 80 48 AC  80 23 1C 2D 80 67 AD 80  .gc...H..#.-.g..
0EF0: A6 80 48 AE 80 23 1C 2D  80 45 18 80 F0 FF FF 7F  ..H..#.-.E......
0F00: F0 FF FF 7F 66 64 6F 32  01 80 55 18 80 F0 FF FF  ....fdo2..U.....
0F10: 7F F0 FF FF 7F 66 64 6F  32 55 A4 80 F0 FF FF 7F  .....fdo2U......
0F20: F0 FF FF 7F 73 30 30 35  45 18 80 F0 FF FF 7F F0  ....s005E.......
0F30: FF FF 7F 66 61 6F 31 01  80 1C 6E 80 67 98 80 AF  ...fao1...n.g...
0F40: 80 48 B0 80 45 18 80 F0  FF FF 7F F0 FF FF 7F 66  .H..E..........f
0F50: 61 69 31 01 80 1C AF 80  45 18 80 F0 FF FF 7F F0  ai1.....E.......
0F60: FF FF 7F 66 61 6F 31 01  80 1C A9 80 23 67 63 80  ...fao1.....#gc.
0F70: AF 80 48 B1 80 45 18 80  F0 FF FF 7F F0 FF FF 7F  ..H..E..........
0F80: 66 61 69 31 01 80 1C AF  80 45 18 80 F0 FF FF 7F  fai1.....E......
0F90: F0 FF FF 7F 66 61 6F 31  01 80 1C A9 80 23 68 69  ....fao1.....#hi
0FA0: 00 08 80 45 A4 80 F0 FF  FF 7F F0 FF FF 7F 73 30  ...E..........s0
0FB0: 30 33 01 80 45 18 80 F0  FF FF 7F F0 FF FF 7F 66  03..E..........f
0FC0: 64 69 32 01 80 55 18 80  F0 FF FF 7F F0 FF FF 7F  di2..U..........
0FD0: 66 64 69 32 78 35 B2 80  77 11 80 01 80 45 B3 80  fdi2x5..w....E..
0FE0: F0 FF FF 7F F0 FF FF 7F  73 30 30 32 01 80 1C 09  ........s002....
0FF0: 80 4E 00 F0 FF FF 7F 4E  00 94 E0 0E 01 80 94 E0  .N.....N........
1000: 0E 01 80 F0 FF FF 7F 29  09 F0 FF FF 7F 22 29 08  .......).....").
1010: F0 FF FF 7F 06 45 B3 80  F0 FF FF 7F F0 FF FF 7F  .....E..........
1020: 73 30 31 32 01 80 45 18  80 F0 FF FF 7F F0 FF FF  s012..E.........
1030: 7F 66 61 69 31 01 80 29  09 F0 FF FF 7F 2A 1C 2D  .fai1..).....*.-
1040: 80 4B F0 FF FF 7F B4 80  55 B3 80 F0 FF FF 7F F0  .K......U.......
1050: FF FF 7F 73 30 31 32 45  18 80 F0 FF FF 7F F0 FF  ...s012E........
1060: FF 7F 66 64 6F 31 01 80  1C 6E 80 45 B3 80 F0 FF  ..fdo1...n.E....
1070: FF 7F F0 FF FF 7F 73 30  31 33 01 80 45 18 80 F0  ......s013..E...
1080: FF FF 7F F0 FF FF 7F 66  64 69 31 01 80 1C 2D 80  .......fdi1...-.
1090: 4E 00 0A E0 0E 01 80 0A  E0 0E 01 2C 0A E0 0E 01  N..........,....
10A0: 0A E0 0E 01 77 6F 66 34  29 09 0A E0 0E 01 1A 27  ....wof4)......'
10B0: 09 0A E0 0E 01 1B 1C A9  80 55 B3 80 F0 FF FF 7F  .........U......
10C0: F0 FF FF 7F 73 30 31 33  45 B3 80 F0 FF FF 7F F0  ....s013E.......
10D0: FF FF 7F 73 30 30 32 01  80 2A 09 0A E0 0E 01 1C  ...s002..*......
10E0: 59 80 4A 0A E0 0E 01 F0  FF FF 7F 6F 76 0A E0 0E  Y.J........ov...
10F0: 01 1C 09 80 29 0B 0A E0  0E 01 20 4A F0 FF FF 7F  ....)..... J....
1100: 0A E0 0E 01 29 0B 0A E0  0E 01 21 45 B3 80 F0 FF  ....).....!E....
1110: FF 7F F0 FF FF 7F 73 30  37 38 01 80 29 0B 0A E0  ......s078..)...
1120: 0E 01 22 29 0B 0B E0 0E  01 16 79 00 0A E0 0E 01  ..")......y.....
1130: 0B E0 0E 01 4E 00 0B E0  0E 01 80 0B E0 0E 01 79  ....N..........y
1140: 00 F0 FF FF 7F 0B E0 0E  01 1C 0F 80 1C 0F 80 52  ...............R
1150: B3 80 F0 FF FF 7F F0 FF  FF 7F 73 30 30 32 45 B3  ..........s002E.
1160: 80 F0 FF FF 7F F0 FF FF  7F 73 30 30 33 01 80 27  .........s003..'
1170: 0C 0B E0 0E 01 11 55 B3  80 F0 FF FF 7F F0 FF FF  ......U.........
1180: 7F 73 30 30 33 45 B3 80  F0 FF FF 7F F0 FF FF 7F  .s003E..........
1190: 73 30 31 34 01 80 2A 0C  0B E0 0E 01 4A 0B E0 0E  s014..*.....J...
11A0: 01 F0 FF FF 7F 6F 76 0B  E0 0E 01 4A 0A E0 0E 01  .....ov....J....
11B0: 0B E0 0E 01 6F 76 0A E0  0E 01 1C 2D 80 29 0B 0B  ....ov.....-.)..
11C0: E0 0E 01 17 4A 0A E0 0E  01 0B E0 0E 01 6F 76 0A  ....J........ov.
11D0: E0 0E 01 27 0B 0A E0 0E  01 1D 2B 0A E0 0E 01 B5  ...'......+.....
11E0: 80 23 2A 0B 0A E0 0E 01  45 B3 80 F0 FF FF 7F F0  .#*.....E.......
11F0: FF FF 7F 73 30 31 37 01  80 4A F0 FF FF 7F 0B E0  ...s017..J......
1200: 0E 01 4A 0B E0 0E 01 F0  FF FF 7F 6F 76 0B E0 0E  ..J........ov...
1210: 01 29 0B 0B E0 0E 01 18  24 B6 80 01 80 01 80 25  .)......$......%
1220: 02 00 10 01 80 00 30 12  03 01 00 02 80 01 40 12  ......0.......@.
1230: 02 00 10 02 80 00 40 12  03 01 00 01 80 01 40 12  ......@.......@.
1240: 45 B3 80 F0 FF FF 7F F0  FF FF 7F 73 30 30 34 01  E..........s004.
1250: 80 02 01 00 02 80 00 63  12 29 0B 0B E0 0E 01 19  .......c.)......
1260: 01 94 12 4A 0B E0 0E 01  0A E0 0E 01 6F 76 0B E0  ...J........ov..
1270: 0E 01 29 0B 0A E0 0E 01  24 4A 0B E0 0E 01 F0 FF  ..).....$J......
1280: FF 7F 6F 76 0B E0 0E 01  29 0B 0B E0 0E 01 1A 03  ..ov....).......
1290: 01 00 0D 80 24 B7 80 01  80 01 00 25 02 00 10 01  ....$......%....
12A0: 80 00 B3 12 03 01 10 01  80 29 0D 09 E0 0E 01 18  .........)......
12B0: 01 34 13 02 00 10 02 80  00 DE 12 03 01 10 02 80  .4..............
12C0: 29 0D 09 E0 0E 01 19 45  18 80 F0 FF FF 7F F0 FF  )......E........
12D0: FF 7F 66 64 6F 31 01 80  1C 6E 80 01 34 13 02 00  ..fdo1...n..4...
12E0: 10 03 80 00 09 13 03 01  10 03 80 29 0D 09 E0 0E  ...........)....
12F0: 01 1A 45 18 80 F0 FF FF  7F F0 FF FF 7F 66 64 6F  ..E..........fdo
1300: 31 01 80 1C 6E 80 01 34  13 02 00 10 04 80 00 34  1...n..4.......4
1310: 13 29 0D 09 E0 0E 01 1F  45 18 80 F0 FF FF 7F F0  .)......E.......
1320: FF FF 7F 66 64 6F 31 01  80 1C 6E 80 03 01 10 04  ...fdo1...n.....
1330: 80 01 34 13 46 00 78 45  18 80 F0 FF FF 7F F0 FF  ..4.F.xE........
1340: FF 7F 66 64 69 31 01 80  20 00 21 00              ..fdi1.. .!.    
```

#### Opcodes

```
  0: 0x0D71 [0x42] SET_CLI_EVENT_CANCEL_DATA()
  1: 0x0D72 [0x46] CAMERA_CONTROL: Disable user control
  2: 0x0D74 [0x69] SET_SOUND_VOLUME: Mute Master
  3: 0x0D78 [0x4E] SET_ENTITY_HIDE_FLAG: Hide Ajido-Marujido (ID: 17752074/0x010EE00A)
  4: 0x0D7E [0x4E] SET_ENTITY_HIDE_FLAG: Hide Apururu (ID: 17752075/0x010EE00B)
  5: 0x0D84 [0x4E] SET_ENTITY_HIDE_FLAG: Hide Jack of Hearts (ID: 17752212/0x010EE094)
  6: 0x0D8A [0x5C] MUSIC_CONTROL: Set Idle (Day) music to song 151*
  7: 0x0D8E [0x5C] MUSIC_CONTROL: Set Idle (Night) music to song 151*
  8: 0x0D92 [0x37] UPDATE_EVENT_POSITION_AND_DIR: x=-190.625*, z=143.043*, y=-2.385*, direction=313.4°*
  9: 0x0D9B [0x34] LOAD_UNLOAD_ZONE(zone_id=239*)
 10: 0x0D9E [0x77] SET_EVENT_TIME_WEATHER(hour=0*, weather=0*)
 11: 0x0DA3 [0x1C] WAIT(300* ticks)
 12: 0x0DA6 [0x45] LOAD_SCHEDULED_TASK: Load scheduler "s001" with entities [LocalPlayer, LocalPlayer], work=[139*, 0*]
 13: 0x0DB7 [0x1C] WAIT(30* ticks)
 14: 0x0DBA [0x45] LOAD_SCHEDULED_TASK: Load scheduler "fdi2" with entities [EventEntity, EventEntity], work=[200*, 0*]
 15: 0x0DCB [0x1C] WAIT(80* ticks)
 16: 0x0DCE [0x1C] WAIT(70* ticks)
 17: 0x0DD1 [0x67] HIDE_HUD_ELEMENTS(param1=0x808C, param2=0x808C)
 18: 0x0DD6 [0x48] [System] [6964*]:
    → "V $3P The Federation of Windurst... An ancient capital nurtured by the boughs of a great tree, blessed by magical waters, and protected by the moon and stars."
 19: 0x0DD9 [0x23] WAIT_FOR_DIALOG_INTERACTION
 20: 0x0DDA [0x45] LOAD_SCHEDULED_TASK: Load scheduler "fdo1" with entities [EventEntity, EventEntity], work=[200*, 0*]
 21: 0x0DEB [0x55] WAIT_LOAD_SCHEDULER: Wait for scheduler "s001" with entities [LocalPlayer, LocalPlayer], work=139*
 22: 0x0DFA [0x45] LOAD_SCHEDULED_TASK: Load scheduler "s002" with entities [LocalPlayer, LocalPlayer], work=[139*, 0*]
 23: 0x0E0B [0x1C] WAIT(1* ticks)
 24: 0x0E0E [0x45] LOAD_SCHEDULED_TASK: Load scheduler "fdi1" with entities [EventEntity, EventEntity], work=[200*, 0*]
 25: 0x0E1F [0x67] HIDE_HUD_ELEMENTS(param1=0x808C, param2=0x80A6)
 26: 0x0E24 [0x48] [System] [6965*]:
    → "d $3TThere is a legend in this country. In a time forgotten, a people forced to wander by starvation and cold were led to this land by a wondrous star."
 27: 0x0E27 [0x23] WAIT_FOR_DIALOG_INTERACTION
 28: 0x0E28 [0x1C] WAIT(30* ticks)
 29: 0x0E2B [0x67] HIDE_HUD_ELEMENTS(param1=0x8098, param2=0x80A6)
 30: 0x0E30 [0x48] [System] [6966*]:
    → "R $3TWhen that star returned to the heavens, it sent to the earth a spiritual medium, the first Star Sibyl, who could hear its voice. She promised Windurst glory and prosperity."
 31: 0x0E33 [0x23] WAIT_FOR_DIALOG_INTERACTION
 32: 0x0E34 [0x1C] WAIT(15* ticks)
 33: 0x0E37 [0x45] LOAD_SCHEDULED_TASK: Load scheduler "fdo1" with entities [EventEntity, EventEntity], work=[200*, 0*]
 34: 0x0E48 [0x55] WAIT_LOAD_SCHEDULER: Wait for scheduler "s002" with entities [LocalPlayer, LocalPlayer], work=139*
 35: 0x0E57 [0x1C] WAIT(60* ticks)
 36: 0x0E5A [0x45] LOAD_SCHEDULED_TASK: Load scheduler "s000" with entities [LocalPlayer, LocalPlayer], work=[139*, 0*]
 37: 0x0E6B [0x45] LOAD_SCHEDULED_TASK: Load scheduler "fdi1" with entities [EventEntity, EventEntity], work=[200*, 0*]
 38: 0x0E7C [0x67] HIDE_HUD_ELEMENTS(param1=0x80A9, param2=0x80A6)
 39: 0x0E81 [0x48] [System] [6967*]:
    → "\ $3TWith each passing eon, the people came to excel at magic more and more, giving Windurst far greater wisdom and power."
 40: 0x0E84 [0x23] WAIT_FOR_DIALOG_INTERACTION
 41: 0x0E85 [0x1C] WAIT(30* ticks)
 42: 0x0E88 [0x67] HIDE_HUD_ELEMENTS(param1=0x8098, param2=0x80A6)
 43: 0x0E8D [0x48] [System] [6968*]:
    → "^ $3TFive ministries, each specializing in a school of knowledge, became politically influential institutions. This elevated Windurst to become a city of academics."
 44: 0x0E90 [0x23] WAIT_FOR_DIALOG_INTERACTION
 45: 0x0E91 [0x1C] WAIT(30* ticks)
 46: 0x0E94 [0x45] LOAD_SCHEDULED_TASK: Load scheduler "fdo1" with entities [EventEntity, EventEntity], work=[200*, 0*]
 47: 0x0EA5 [0x55] WAIT_LOAD_SCHEDULER: Wait for scheduler "s000" with entities [LocalPlayer, LocalPlayer], work=139*
 48: 0x0EB4 [0x1C] WAIT(60* ticks)
 49: 0x0EB7 [0x45] LOAD_SCHEDULED_TASK: Load scheduler "s005" with entities [LocalPlayer, LocalPlayer], work=[139*, 0*]
 50: 0x0EC8 [0x45] LOAD_SCHEDULED_TASK: Load scheduler "fdi1" with entities [EventEntity, EventEntity], work=[200*, 0*]
 51: 0x0ED9 [0x67] HIDE_HUD_ELEMENTS(param1=0x8009, param2=0x80A6)
 52: 0x0EDE [0x1C] WAIT(30* ticks)
 53: 0x0EE1 [0x67] HIDE_HUD_ELEMENTS(param1=0x8063, param2=0x80A6)
 54: 0x0EE6 [0x48] [System] [6969*]:
    → "a $3TIn recent years, new bonds were made with the roaming tribes of Mithra, causing Windurst to become even bigger than before."
 55: 0x0EE9 [0x23] WAIT_FOR_DIALOG_INTERACTION
 56: 0x0EEA [0x1C] WAIT(30* ticks)
 57: 0x0EED [0x67] HIDE_HUD_ELEMENTS(param1=0x80AD, param2=0x80A6)
 58: 0x0EF2 [0x48] [System] [6970*]:
    → "W $3TBut the people's wish remains unchanged... Lasting peace... Eternal tranquility... Under the watch of the far-off stars."
 59: 0x0EF5 [0x23] WAIT_FOR_DIALOG_INTERACTION
 60: 0x0EF6 [0x1C] WAIT(30* ticks)
 61: 0x0EF9 [0x45] LOAD_SCHEDULED_TASK: Load scheduler "fdo2" with entities [LocalPlayer, LocalPlayer], work=[200*, 0*]
 62: 0x0F0A [0x55] WAIT_LOAD_SCHEDULER: Wait for scheduler "fdo2" with entities [LocalPlayer, LocalPlayer], work=200*
 63: 0x0F19 [0x55] WAIT_LOAD_SCHEDULER: Wait for scheduler "s005" with entities [LocalPlayer, LocalPlayer], work=139*
 64: 0x0F28 [0x45] LOAD_SCHEDULED_TASK: Load scheduler "fao1" with entities [LocalPlayer, LocalPlayer], work=[200*, 0*]
 65: 0x0F39 [0x1C] WAIT(60* ticks)
 66: 0x0F3C [0x67] HIDE_HUD_ELEMENTS(param1=0x8098, param2=0x80AF)
 67: 0x0F41 [0x48] [System] [6971*]:
    → "$34 And now, a new star of hope has been borne to this earth..."
 68: 0x0F44 [0x45] LOAD_SCHEDULED_TASK: Load scheduler "fai1" with entities [LocalPlayer, LocalPlayer], work=[200*, 0*]
 69: 0x0F55 [0x1C] WAIT(180* ticks)
 70: 0x0F58 [0x45] LOAD_SCHEDULED_TASK: Load scheduler "fao1" with entities [LocalPlayer, LocalPlayer], work=[200*, 0*]
 71: 0x0F69 [0x1C] WAIT(120* ticks)
 72: 0x0F6C [0x23] WAIT_FOR_DIALOG_INTERACTION
 73: 0x0F6D [0x67] HIDE_HUD_ELEMENTS(param1=0x8063, param2=0x80AF)
 74: 0x0F72 [0x48] [System] [6972*]:
    → "^ $34 What is about to begin here is an enduring tale, woven by that star..."
 75: 0x0F75 [0x45] LOAD_SCHEDULED_TASK: Load scheduler "fai1" with entities [LocalPlayer, LocalPlayer], work=[200*, 0*]
 76: 0x0F86 [0x1C] WAIT(180* ticks)
 77: 0x0F89 [0x45] LOAD_SCHEDULED_TASK: Load scheduler "fao1" with entities [LocalPlayer, LocalPlayer], work=[200*, 0*]
 78: 0x0F9A [0x1C] WAIT(120* ticks)
 79: 0x0F9D [0x23] WAIT_FOR_DIALOG_INTERACTION
 80: 0x0F9E [0x68] SHOW_HUD_ELEMENTS()
 81: 0x0F9F [0x69] SET_SOUND_VOLUME: Unmute Master
 82: 0x0FA3 [0x45] LOAD_SCHEDULED_TASK: Load scheduler "s003" with entities [LocalPlayer, LocalPlayer], work=[139*, 0*]
 83: 0x0FB4 [0x45] LOAD_SCHEDULED_TASK: Load scheduler "fdi2" with entities [LocalPlayer, LocalPlayer], work=[200*, 0*]
 84: 0x0FC5 [0x55] WAIT_LOAD_SCHEDULER: Wait for scheduler "fdi2" with entities [LocalPlayer, LocalPlayer], work=200*
 85: 0x0FD4 [0x78] ENABLE_GAME_TIMER_RESET_WEATHER()
 86: 0x0FD5 [0x35] LOAD_ZONE_NO_CLOSE(zone_id=238*)
 87: 0x0FD8 [0x77] SET_EVENT_TIME_WEATHER(hour=12*, weather=0*)
 88: 0x0FDD [0x45] LOAD_SCHEDULED_TASK: Load scheduler "s002" with entities [LocalPlayer, LocalPlayer], work=[138*, 0*]
 89: 0x0FEE [0x1C] WAIT(100* ticks)
 90: 0x0FF1 [0x4E] SET_ENTITY_HIDE_FLAG: Show LocalPlayer
 91: 0x0FF7 [0x4E] SET_ENTITY_HIDE_FLAG: Show Jack of Hearts (ID: 17752212/0x010EE094)
 92: 0x0FFD [0x80] LOAD_WAIT(entity=Jack of Hearts (ID: 17752212/0x010EE094))
 93: 0x1002 [0x80] LOAD_WAIT(entity=LocalPlayer)
 94: 0x1007 [0x29] REQ_SET_WAIT(priority=0x09, entity_id=LocalPlayer, tag_num=0x22)
 95: 0x100E [0x29] REQ_SET_WAIT(priority=0x08, entity_id=LocalPlayer, tag_num=0x06)
 96: 0x1015 [0x45] LOAD_SCHEDULED_TASK: Load scheduler "s012" with entities [LocalPlayer, LocalPlayer], work=[138*, 0*]
 97: 0x1026 [0x45] LOAD_SCHEDULED_TASK: Load scheduler "fai1" with entities [LocalPlayer, LocalPlayer], work=[200*, 0*]
 98: 0x1037 [0x29] REQ_SET_WAIT(priority=0x09, entity_id=LocalPlayer, tag_num=0x2A)
 99: 0x103E [0x1C] WAIT(30* ticks)
100: 0x1041 [0x4B] UPDATE_ENTITY_YAW(entity=LocalPlayer, yaw=2.2°*)
101: 0x1048 [0x55] WAIT_LOAD_SCHEDULER: Wait for scheduler "s012" with entities [LocalPlayer, LocalPlayer], work=138*
102: 0x1057 [0x45] LOAD_SCHEDULED_TASK: Load scheduler "fdo1" with entities [LocalPlayer, LocalPlayer], work=[200*, 0*]
103: 0x1068 [0x1C] WAIT(60* ticks)
104: 0x106B [0x45] LOAD_SCHEDULED_TASK: Load scheduler "s013" with entities [LocalPlayer, LocalPlayer], work=[138*, 0*]
105: 0x107C [0x45] LOAD_SCHEDULED_TASK: Load scheduler "fdi1" with entities [LocalPlayer, LocalPlayer], work=[200*, 0*]
106: 0x108D [0x1C] WAIT(30* ticks)
107: 0x1090 [0x4E] SET_ENTITY_HIDE_FLAG: Show Ajido-Marujido (ID: 17752074/0x010EE00A)
108: 0x1096 [0x80] LOAD_WAIT(entity=Ajido-Marujido (ID: 17752074/0x010EE00A))
109: 0x109B [0x2C] CREATE_SCHEDULER_TASK: Create scheduler "wof4" with entities [Ajido-Marujido (ID: 17752074/0x010EE00A), Ajido-Marujido (ID: 17752074/0x010EE00A)]
110: 0x10A8 [0x29] REQ_SET_WAIT(priority=0x09, entity_id=Ajido-Marujido (ID: 17752074/0x010EE00A), tag_num=0x1A)
111: 0x10AF [0x27] REQ_SET(priority=0x09, entity_id=Ajido-Marujido (ID: 17752074/0x010EE00A), tag_num=0x1B)
112: 0x10B6 [0x1C] WAIT(120* ticks)
113: 0x10B9 [0x55] WAIT_LOAD_SCHEDULER: Wait for scheduler "s013" with entities [LocalPlayer, LocalPlayer], work=138*
114: 0x10C8 [0x45] LOAD_SCHEDULED_TASK: Load scheduler "s002" with entities [LocalPlayer, LocalPlayer], work=[138*, 0*]
115: 0x10D9 [0x2A] GET_REQ_LEVEL(level=9, entity_id=Ajido-Marujido (ID: 17752074/0x010EE00A))
116: 0x10DF [0x1C] WAIT(40* ticks)
117: 0x10E2 [0x4A] Ajido-Marujido (ID: 17752074/0x010EE00A) looks at LocalPlayer
118: 0x10EB [0x6F] WAIT_FRAME_DELAY: Yield until WaitTime reaches zero
119: 0x10EC [0x76] CHECK_ENTITY_RENDER_FLAGS: Wait until Ajido-Marujido (ID: 17752074/0x010EE00A) Render.Flags0 and Render.Flags3 conditions are met
120: 0x10F1 [0x1C] WAIT(100* ticks)
121: 0x10F4 [0x29] REQ_SET_WAIT(priority=0x0B, entity_id=Ajido-Marujido (ID: 17752074/0x010EE00A), tag_num=0x20)
122: 0x10FB [0x4A] LocalPlayer looks at Ajido-Marujido (ID: 17752074/0x010EE00A)
123: 0x1104 [0x29] REQ_SET_WAIT(priority=0x0B, entity_id=Ajido-Marujido (ID: 17752074/0x010EE00A), tag_num=0x21)
124: 0x110B [0x45] LOAD_SCHEDULED_TASK: Load scheduler "s078" with entities [LocalPlayer, LocalPlayer], work=[138*, 0*]
125: 0x111C [0x29] REQ_SET_WAIT(priority=0x0B, entity_id=Ajido-Marujido (ID: 17752074/0x010EE00A), tag_num=0x22)
126: 0x1123 [0x29] REQ_SET_WAIT(priority=0x0B, entity_id=Apururu (ID: 17752075/0x010EE00B), tag_num=0x16)
127: 0x112A [0x79] Ajido-Marujido (ID: 17752074/0x010EE00A) looks at Apururu (ID: 17752075/0x010EE00B) (Basic look)
128: 0x1134 [0x4E] SET_ENTITY_HIDE_FLAG: Show Apururu (ID: 17752075/0x010EE00B)
129: 0x113A [0x80] LOAD_WAIT(entity=Apururu (ID: 17752075/0x010EE00B))
130: 0x113F [0x79] LocalPlayer looks at Apururu (ID: 17752075/0x010EE00B) (Basic look)
131: 0x1149 [0x1C] WAIT(10* ticks)
132: 0x114C [0x1C] WAIT(10* ticks)
133: 0x114F [0x52] END_LOAD_SCHEDULER: End scheduler "s002" with entities [LocalPlayer, LocalPlayer], work=138*
134: 0x115E [0x45] LOAD_SCHEDULED_TASK: Load scheduler "s003" with entities [LocalPlayer, LocalPlayer], work=[138*, 0*]
135: 0x116F [0x27] REQ_SET(priority=0x0C, entity_id=Apururu (ID: 17752075/0x010EE00B), tag_num=0x11)
136: 0x1176 [0x55] WAIT_LOAD_SCHEDULER: Wait for scheduler "s003" with entities [LocalPlayer, LocalPlayer], work=138*
137: 0x1185 [0x45] LOAD_SCHEDULED_TASK: Load scheduler "s014" with entities [LocalPlayer, LocalPlayer], work=[138*, 0*]
138: 0x1196 [0x2A] GET_REQ_LEVEL(level=12, entity_id=Apururu (ID: 17752075/0x010EE00B))
139: 0x119C [0x4A] Apururu (ID: 17752075/0x010EE00B) looks at LocalPlayer
140: 0x11A5 [0x6F] WAIT_FRAME_DELAY: Yield until WaitTime reaches zero
141: 0x11A6 [0x76] CHECK_ENTITY_RENDER_FLAGS: Wait until Apururu (ID: 17752075/0x010EE00B) Render.Flags0 and Render.Flags3 conditions are met
142: 0x11AB [0x4A] Ajido-Marujido (ID: 17752074/0x010EE00A) looks at Apururu (ID: 17752075/0x010EE00B)
143: 0x11B4 [0x6F] WAIT_FRAME_DELAY: Yield until WaitTime reaches zero
144: 0x11B5 [0x76] CHECK_ENTITY_RENDER_FLAGS: Wait until Ajido-Marujido (ID: 17752074/0x010EE00A) Render.Flags0 and Render.Flags3 conditions are met
145: 0x11BA [0x1C] WAIT(30* ticks)
146: 0x11BD [0x29] REQ_SET_WAIT(priority=0x0B, entity_id=Apururu (ID: 17752075/0x010EE00B), tag_num=0x17)
147: 0x11C4 [0x4A] Ajido-Marujido (ID: 17752074/0x010EE00A) looks at Apururu (ID: 17752075/0x010EE00B)
148: 0x11CD [0x6F] WAIT_FRAME_DELAY: Yield until WaitTime reaches zero
149: 0x11CE [0x76] CHECK_ENTITY_RENDER_FLAGS: Wait until Ajido-Marujido (ID: 17752074/0x010EE00A) Render.Flags0 and Render.Flags3 conditions are met
150: 0x11D3 [0x27] REQ_SET(priority=0x0B, entity_id=Ajido-Marujido (ID: 17752074/0x010EE00A), tag_num=0x1D)
151: 0x11DA [0x2B] Ajido-Marujido (ID: 17752074/0x010EE00A) [8616*]:
    → "You've got it all wrong again, Apururu. This poor adventurer was lost, so I kindly offered to help. Isn't that rightaru?"
152: 0x11E1 [0x23] WAIT_FOR_DIALOG_INTERACTION
153: 0x11E2 [0x2A] GET_REQ_LEVEL(level=11, entity_id=Ajido-Marujido (ID: 17752074/0x010EE00A))
