# 17752091 - Churano-Shurano

## Common Data

| Field            | Value                     |
|------------------|---------------------------|
| Zone             | Windurst Waters (ID: 238) |
| Block Size       | 908 bytes                 |
| Total Events     | 19                        |
| References Count | 30                        |

## List of Events

| Event ID                   | Entrypoint   |   Size |   Instructions |
|----------------------------|--------------|--------|----------------|
| [65535](#event-65535)      | 0x0000       |      1 |              1 |
| [65535.1](#event-655351)   | 0x0001       |     16 |              2 |
| [65535.2](#event-655352)   | 0x0011       |     22 |              4 |
| [65535.3](#event-655353)   | 0x0027       |     16 |              2 |
| [65535.4](#event-655354)   | 0x0037       |     22 |              4 |
| [65535.5](#event-655355)   | 0x004D       |     16 |              2 |
| [65535.6](#event-655356)   | 0x005D       |     14 |              2 |
| [65535.7](#event-655357)   | 0x006B       |     16 |              2 |
| [65535.8](#event-655358)   | 0x007B       |     14 |              2 |
| [65535.9](#event-655359)   | 0x0089       |      9 |              3 |
| [65535.10](#event-6553510) | 0x0092       |     16 |              2 |
| [280](#event-280)          | 0x00A2       |     29 |             10 |
| [281](#event-281)          | 0x00BF       |     29 |             10 |
| [287](#event-287)          | 0x00DC       |     33 |             12 |
| [291](#event-291)          | 0x00FD       |     33 |             12 |
| [295](#event-295)          | 0x011E       |     33 |             12 |
| [299](#event-299)          | 0x013F       |     33 |             12 |
| [1080](#event-1080)        | 0x0160       |    202 |             57 |
| [1081](#event-1081)        | 0x022A       |    142 |             39 |

## DAT References (imed_data)

|   Index | Hex Value   |   Dec Value |
|---------|-------------|-------------|
|       0 | 0x0028      |          40 |
|       1 | 0x001E      |          30 |
|       2 | 0x1F1B      |        7963 |
|       3 | 0x1F1C      |        7964 |
|       4 | 0x1F28      |        7976 |
|       5 | 0x1F29      |        7977 |
|       6 | 0x1F35      |        7989 |
|       7 | 0x1F36      |        7990 |
|       8 | 0x1F3E      |        7998 |
|       9 | 0x1F3F      |        7999 |
|      10 | 0x1F47      |        8007 |
|      11 | 0x1F48      |        8008 |
|      12 | 0x307B      |       12411 |
|      13 | 0x307C      |       12412 |
|      14 | 0x307D      |       12413 |
|      15 | 0x0000      |           0 |
|      16 | 0x307E      |       12414 |
|      17 | 0x0001      |           1 |
|      18 | 0x307F      |       12415 |
|      19 | 0x003C      |          60 |
|      20 | 0x3080      |       12416 |
|      21 | 0x3081      |       12417 |
|      22 | 0x3082      |       12418 |
|      23 | 0x3086      |       12422 |
|      24 | 0x0A12      |        2578 |
|      25 | 0x3087      |       12423 |
|      26 | 0x3089      |       12425 |
|      27 | 0x3085      |       12421 |
|      28 | 0x3083      |       12419 |
|      29 | 0x3084      |       12420 |

## String References

- **7963**: Well, of course I can't see anything during the day. I know-wow that! I'm just saving this space so nobody takes it during the day. Yawn...
- **7964**: Nuah-ha-ha-ha... This is astronomical! It always amazes me how clearly-wearly we can see something so far away!
- **7976**: Just getting you hands on a crystal lens is hard enough, not to mention the other thingy-wingys you need.
- **7977**: I bet our ancestors who made these telescopes didn't think they'd be in use hundreds of years later. Nor that their old worthless currency would be so valuable to us now.
- **7989**: Hanging on to old money-woney is useless, as it soon loses its value.
- **7990**: But then again, if it was sought after by our ancestors, I'm sure someone would find some kind of value in it these days. I wonder if anybody has some stashed away?
- **7998**: When you gaze at the night skies, you note stars of all different colors, right? Placed together, those stars form the constellations of the gods.
- **7999**: The aqua-colored stars in the east sky that form the constellation of Shiva are so alluring... We astronomers like those stars the best.
- **8007**: Alexander shines bright and white in the northeastern sky. Titan's in the south and Leviathan's in the west.
- **8008**: See him spread his imaginary wings there? Connect the stars together and you can make lots of shapes... Look! There's the great Onion in the sky!t
- **12411**: Hey, there. Got a moment? I just have to spread the word. We managed to create an astrolabe based on Lago's famed stellar-wellar map!
- **12412**: But this isn't any old run-of-the-mill-will astrolabe, no siree! The constellations of the gods are represented with rare jewels that impart an otherworldly luster to it. Doesn't that make you want to wrest it from us and make it your own?
- **12413**: Does it make you want one? [Yes, I must have it now!/No, not particularly.]
- **12414**: You sure do have a keen eye for gadgets. Vana'diel needs more aesthetes of your caliber so it can adapt to the changing times.
- **12415**: Pfff. If you don't covet this device more than anything in the world, you have no concept of what value-walue is.
- **12416**: ...It's a travesty that we spent too much procuring the gemstones that adorn it. Now we don't have the funds to research any other topics!
- **12417**: I speak for us all when I say we want nothing less than to part with this revolutionary tool. Yet the minister would have our head-weads if he found out what we've done. Therefore, could you please take it off our hands?
- **12418**: How does $0 gil sound? [Good enough./Too high for a favor.]
- **12419**: Are your heart and mind ready?
- **12420**: You fine with paying $0 gil? [Yes, of course./No, not yet.]
- **12421**: I can't go any lower. We're already losing too much at this price. Feel free to mull it over and come back when you change your mind. (Just be stealthy about it when you do.)
- **12422**: Let's see here...
- **12423**: Your contribution to the Orastery and stargazers everywhere is much appreciated.
- **12425**: I hate to be the harbinger of bad news, but we don't do multiple payments. We need it all up front.

## Events

### Event 65535

#### Metadata

| Field        | Value   |
|--------------|---------|
| Entrypoint   | 0x0000  |
| Data Size    | 1 bytes |
| Instructions | 1       |

```
      00 01 02 03 04 05 06 07  08 09 0A 0B 0C 0D 0E 0F
      -- -- -- -- -- -- -- --  -- -- -- -- -- -- -- --
0000: 00                                                .               
```

#### Opcodes

```
  0: 0x0000 [0x00] END_REQSTACK()
```

### Event 65535.1

#### Metadata

| Field        | Value    |
|--------------|----------|
| Entrypoint   | 0x0001   |
| Data Size    | 16 bytes |
| Instructions | 2        |

```
      00 01 02 03 04 05 06 07  08 09 0A 0B 0C 0D 0E 0F
      -- -- -- -- -- -- -- --  -- -- -- -- -- -- -- --
0000:    66 00 80 F8 FF FF 7F  F8 FF FF 7F 74 6C 6B 30   f..........tlk0
0010: 00                                                .               
```

#### Opcodes

```
  0: 0x0001 [0x66] LOAD_EXT_SCHEDULER_MAIN: Load scheduler "tlk0" with entities [EventEntity, EventEntity], work=40*
  1: 0x0010 [0x00] END_REQSTACK()
```

### Event 65535.2

#### Metadata

| Field        | Value    |
|--------------|----------|
| Entrypoint   | 0x0011   |
| Data Size    | 22 bytes |
| Instructions | 4        |

```
      00 01 02 03 04 05 06 07  08 09 0A 0B 0C 0D 0E 0F
      -- -- -- -- -- -- -- --  -- -- -- -- -- -- -- --
0010:    53 F8 FF FF 7F F8 FF  FF 7F 74 6C 6B 30 5E 69   S........tlk0^i
0020: 64 6C 30 1C 01 80 00                              dl0....         
```

#### Opcodes

```
  0: 0x0011 [0x53] WAIT_SCHEDULER_TASK: Wait for scheduler "tlk0" with entities [EventEntity, EventEntity]
  1: 0x001E [0x5E] EventEntity goes idle (kills current action) (animation: "idl0")
  2: 0x0023 [0x1C] WAIT(30* ticks)
  3: 0x0026 [0x00] END_REQSTACK()
```

### Event 65535.3

#### Metadata

| Field        | Value    |
|--------------|----------|
| Entrypoint   | 0x0027   |
| Data Size    | 16 bytes |
| Instructions | 2        |

```
      00 01 02 03 04 05 06 07  08 09 0A 0B 0C 0D 0E 0F
      -- -- -- -- -- -- -- --  -- -- -- -- -- -- -- --
0020:                      66  00 80 F8 FF FF 7F F8 FF         f........
0030: FF 7F 74 6C 6B 31 00                              ..tlk1.         
```

#### Opcodes

```
  0: 0x0027 [0x66] LOAD_EXT_SCHEDULER_MAIN: Load scheduler "tlk1" with entities [EventEntity, EventEntity], work=40*
  1: 0x0036 [0x00] END_REQSTACK()
```

### Event 65535.4

#### Metadata

| Field        | Value    |
|--------------|----------|
| Entrypoint   | 0x0037   |
| Data Size    | 22 bytes |
| Instructions | 4        |

```
      00 01 02 03 04 05 06 07  08 09 0A 0B 0C 0D 0E 0F
      -- -- -- -- -- -- -- --  -- -- -- -- -- -- -- --
0030:                      53  F8 FF FF 7F F8 FF FF 7F         S........
0040: 74 6C 6B 31 5E 69 64 6C  30 1C 01 80 00           tlk1^idl0....   
```

#### Opcodes

```
  0: 0x0037 [0x53] WAIT_SCHEDULER_TASK: Wait for scheduler "tlk1" with entities [EventEntity, EventEntity]
  1: 0x0044 [0x5E] EventEntity goes idle (kills current action) (animation: "idl0")
  2: 0x0049 [0x1C] WAIT(30* ticks)
  3: 0x004C [0x00] END_REQSTACK()
```

### Event 65535.5

#### Metadata

| Field        | Value    |
|--------------|----------|
| Entrypoint   | 0x004D   |
| Data Size    | 16 bytes |
| Instructions | 2        |

```
      00 01 02 03 04 05 06 07  08 09 0A 0B 0C 0D 0E 0F
      -- -- -- -- -- -- -- --  -- -- -- -- -- -- -- --
0040:                                         66 00 80               f..
0050: F8 FF FF 7F F8 FF FF 7F  74 68 6B 31 00           ........thk1.   
```

#### Opcodes

```
  0: 0x004D [0x66] LOAD_EXT_SCHEDULER_MAIN: Load scheduler "thk1" with entities [EventEntity, EventEntity], work=40*
  1: 0x005C [0x00] END_REQSTACK()
```

### Event 65535.6

#### Metadata

| Field        | Value    |
|--------------|----------|
| Entrypoint   | 0x005D   |
| Data Size    | 14 bytes |
| Instructions | 2        |

```
      00 01 02 03 04 05 06 07  08 09 0A 0B 0C 0D 0E 0F
      -- -- -- -- -- -- -- --  -- -- -- -- -- -- -- --
0050:                                         53 F8 FF               S..
0060: FF 7F F8 FF FF 7F 74 68  6B 31 00                 ......thk1.     
```

#### Opcodes

```
  0: 0x005D [0x53] WAIT_SCHEDULER_TASK: Wait for scheduler "thk1" with entities [EventEntity, EventEntity]
  1: 0x006A [0x00] END_REQSTACK()
```

### Event 65535.7

#### Metadata

| Field        | Value    |
|--------------|----------|
| Entrypoint   | 0x006B   |
| Data Size    | 16 bytes |
| Instructions | 2        |

```
      00 01 02 03 04 05 06 07  08 09 0A 0B 0C 0D 0E 0F
      -- -- -- -- -- -- -- --  -- -- -- -- -- -- -- --
0060:                                   66 00 80 F8 FF             f....
0070: FF 7F F8 FF FF 7F 74 68  6B 32 00                 ......thk2.     
```

#### Opcodes

```
  0: 0x006B [0x66] LOAD_EXT_SCHEDULER_MAIN: Load scheduler "thk2" with entities [EventEntity, EventEntity], work=40*
  1: 0x007A [0x00] END_REQSTACK()
```

### Event 65535.8

#### Metadata

| Field        | Value    |
|--------------|----------|
| Entrypoint   | 0x007B   |
| Data Size    | 14 bytes |
| Instructions | 2        |

```
      00 01 02 03 04 05 06 07  08 09 0A 0B 0C 0D 0E 0F
      -- -- -- -- -- -- -- --  -- -- -- -- -- -- -- --
0070:                                   53 F8 FF FF 7F             S....
0080: F8 FF FF 7F 74 68 6B 32  00                       ....thk2.       
```

#### Opcodes

```
  0: 0x007B [0x53] WAIT_SCHEDULER_TASK: Wait for scheduler "thk2" with entities [EventEntity, EventEntity]
  1: 0x0088 [0x00] END_REQSTACK()
```

### Event 65535.9

#### Metadata

| Field        | Value   |
|--------------|---------|
| Entrypoint   | 0x0089  |
| Data Size    | 9 bytes |
| Instructions | 3       |

```
      00 01 02 03 04 05 06 07  08 09 0A 0B 0C 0D 0E 0F
      -- -- -- -- -- -- -- --  -- -- -- -- -- -- -- --
0080:                             5E 69 64 6C 30 1C 01           ^idl0..
0090: 80 00                                             ..              
```

#### Opcodes

```
  0: 0x0089 [0x5E] EventEntity goes idle (kills current action) (animation: "idl0")
  1: 0x008E [0x1C] WAIT(30* ticks)
  2: 0x0091 [0x00] END_REQSTACK()
```

### Event 65535.10

#### Metadata

| Field        | Value    |
|--------------|----------|
| Entrypoint   | 0x0092   |
| Data Size    | 16 bytes |
| Instructions | 2        |

```
      00 01 02 03 04 05 06 07  08 09 0A 0B 0C 0D 0E 0F
      -- -- -- -- -- -- -- --  -- -- -- -- -- -- -- --
0090:       66 00 80 F8 FF FF  7F F8 FF FF 7F 70 61 73    f..........pas
00A0: 30 00                                             0.              
```

#### Opcodes

```
  0: 0x0092 [0x66] LOAD_EXT_SCHEDULER_MAIN: Load scheduler "pas0" with entities [EventEntity, EventEntity], work=40*
  1: 0x00A1 [0x00] END_REQSTACK()
```

### Event 280

#### Metadata

| Field        | Value    |
|--------------|----------|
| Entrypoint   | 0x00A2   |
| Data Size    | 29 bytes |
| Instructions | 10       |

```
      00 01 02 03 04 05 06 07  08 09 0A 0B 0C 0D 0E 0F
      -- -- -- -- -- -- -- --  -- -- -- -- -- -- -- --
00A0:       1E F0 FF FF 7F 6F  70 29 08 1B E0 0E 01 01    .....op)......
00B0: 1D 02 80 23 29 08 1B E0  0E 01 02 20 00 21 00     ...#)...... .!. 
```

#### Opcodes

```
  0: 0x00A2 [0x1E] EventEntity looks at LocalPlayer and starts talking
  1: 0x00A7 [0x6F] WAIT_FRAME_DELAY: Yield until WaitTime reaches zero
  2: 0x00A8 [0x70] WAIT_ENTITY_RENDER_FLAG: Wait while EventEntity->Render.Flags3 bit 2 is set (cancel turn if not)
  3: 0x00A9 [0x29] REQ_SET_WAIT(priority=0x08, entity_id=Churano-Shurano (ID: 17752091/0x010EE01B), tag_num=0x01)
  4: 0x00B0 [0x1D] PRINT_EVENT_MESSAGE(message_id=7963*)
    → "Well, of course I can't see anything during the day. I know-wow that! I'm just saving this space so nobody takes it during the day. Yawn..."
  5: 0x00B3 [0x23] WAIT_FOR_DIALOG_INTERACTION
  6: 0x00B4 [0x29] REQ_SET_WAIT(priority=0x08, entity_id=Churano-Shurano (ID: 17752091/0x010EE01B), tag_num=0x02)
  7: 0x00BB [0x20] SET_CLI_EVENT_UC_FLAG: Unlock player control
  8: 0x00BD [0x21] END_EVENT
  9: 0x00BE [0x00] END_REQSTACK()
```

### Event 281

#### Metadata

| Field        | Value    |
|--------------|----------|
| Entrypoint   | 0x00BF   |
| Data Size    | 29 bytes |
| Instructions | 10       |

```
      00 01 02 03 04 05 06 07  08 09 0A 0B 0C 0D 0E 0F
      -- -- -- -- -- -- -- --  -- -- -- -- -- -- -- --
00B0:                                               1E                 .
00C0: F0 FF FF 7F 6F 70 29 08  1B E0 0E 01 01 1D 03 80  ....op).........
00D0: 23 29 08 1B E0 0E 01 02  20 00 21 00              #)...... .!.    
```

#### Opcodes

```
  0: 0x00BF [0x1E] EventEntity looks at LocalPlayer and starts talking
  1: 0x00C4 [0x6F] WAIT_FRAME_DELAY: Yield until WaitTime reaches zero
  2: 0x00C5 [0x70] WAIT_ENTITY_RENDER_FLAG: Wait while EventEntity->Render.Flags3 bit 2 is set (cancel turn if not)
  3: 0x00C6 [0x29] REQ_SET_WAIT(priority=0x08, entity_id=Churano-Shurano (ID: 17752091/0x010EE01B), tag_num=0x01)
  4: 0x00CD [0x1D] PRINT_EVENT_MESSAGE(message_id=7964*)
    → "Nuah-ha-ha-ha... This is astronomical! It always amazes me how clearly-wearly we can see something so far away!"
  5: 0x00D0 [0x23] WAIT_FOR_DIALOG_INTERACTION
  6: 0x00D1 [0x29] REQ_SET_WAIT(priority=0x08, entity_id=Churano-Shurano (ID: 17752091/0x010EE01B), tag_num=0x02)
  7: 0x00D8 [0x20] SET_CLI_EVENT_UC_FLAG: Unlock player control
  8: 0x00DA [0x21] END_EVENT
  9: 0x00DB [0x00] END_REQSTACK()
```

### Event 287

#### Metadata

| Field        | Value    |
|--------------|----------|
| Entrypoint   | 0x00DC   |
| Data Size    | 33 bytes |
| Instructions | 12       |

```
      00 01 02 03 04 05 06 07  08 09 0A 0B 0C 0D 0E 0F
      -- -- -- -- -- -- -- --  -- -- -- -- -- -- -- --
00D0:                                      1E F0 FF FF              ....
00E0: 7F 6F 70 29 08 1B E0 0E  01 01 1D 04 80 23 1D 05  .op).........#..
00F0: 80 23 29 08 1B E0 0E 01  02 20 00 21 00           .#)...... .!.   
```

#### Opcodes

```
  0: 0x00DC [0x1E] EventEntity looks at LocalPlayer and starts talking
  1: 0x00E1 [0x6F] WAIT_FRAME_DELAY: Yield until WaitTime reaches zero
  2: 0x00E2 [0x70] WAIT_ENTITY_RENDER_FLAG: Wait while EventEntity->Render.Flags3 bit 2 is set (cancel turn if not)
  3: 0x00E3 [0x29] REQ_SET_WAIT(priority=0x08, entity_id=Churano-Shurano (ID: 17752091/0x010EE01B), tag_num=0x01)
  4: 0x00EA [0x1D] PRINT_EVENT_MESSAGE(message_id=7976*)
    → "Just getting you hands on a crystal lens is hard enough, not to mention the other thingy-wingys you need."
  5: 0x00ED [0x23] WAIT_FOR_DIALOG_INTERACTION
  6: 0x00EE [0x1D] PRINT_EVENT_MESSAGE(message_id=7977*)
    → "I bet our ancestors who made these telescopes didn't think they'd be in use hundreds of years later. Nor that their old worthless currency would be so valuable to us now."
  7: 0x00F1 [0x23] WAIT_FOR_DIALOG_INTERACTION
  8: 0x00F2 [0x29] REQ_SET_WAIT(priority=0x08, entity_id=Churano-Shurano (ID: 17752091/0x010EE01B), tag_num=0x02)
  9: 0x00F9 [0x20] SET_CLI_EVENT_UC_FLAG: Unlock player control
 10: 0x00FB [0x21] END_EVENT
 11: 0x00FC [0x00] END_REQSTACK()
```

### Event 291

#### Metadata

| Field        | Value    |
|--------------|----------|
| Entrypoint   | 0x00FD   |
| Data Size    | 33 bytes |
| Instructions | 12       |

```
      00 01 02 03 04 05 06 07  08 09 0A 0B 0C 0D 0E 0F
      -- -- -- -- -- -- -- --  -- -- -- -- -- -- -- --
00F0:                                         1E F0 FF               ...
0100: FF 7F 6F 70 29 08 1B E0  0E 01 01 1D 06 80 23 1D  ..op).........#.
0110: 07 80 23 29 08 1B E0 0E  01 02 20 00 21 00        ..#)...... .!.  
```

#### Opcodes

```
  0: 0x00FD [0x1E] EventEntity looks at LocalPlayer and starts talking
  1: 0x0102 [0x6F] WAIT_FRAME_DELAY: Yield until WaitTime reaches zero
  2: 0x0103 [0x70] WAIT_ENTITY_RENDER_FLAG: Wait while EventEntity->Render.Flags3 bit 2 is set (cancel turn if not)
  3: 0x0104 [0x29] REQ_SET_WAIT(priority=0x08, entity_id=Churano-Shurano (ID: 17752091/0x010EE01B), tag_num=0x01)
  4: 0x010B [0x1D] PRINT_EVENT_MESSAGE(message_id=7989*)
    → "Hanging on to old money-woney is useless, as it soon loses its value."
  5: 0x010E [0x23] WAIT_FOR_DIALOG_INTERACTION
  6: 0x010F [0x1D] PRINT_EVENT_MESSAGE(message_id=7990*)
    → "But then again, if it was sought after by our ancestors, I'm sure someone would find some kind of value in it these days. I wonder if anybody has some stashed away?"
  7: 0x0112 [0x23] WAIT_FOR_DIALOG_INTERACTION
  8: 0x0113 [0x29] REQ_SET_WAIT(priority=0x08, entity_id=Churano-Shurano (ID: 17752091/0x010EE01B), tag_num=0x02)
  9: 0x011A [0x20] SET_CLI_EVENT_UC_FLAG: Unlock player control
 10: 0x011C [0x21] END_EVENT
 11: 0x011D [0x00] END_REQSTACK()
```

### Event 295

#### Metadata

| Field        | Value    |
|--------------|----------|
| Entrypoint   | 0x011E   |
| Data Size    | 33 bytes |
| Instructions | 12       |

```
      00 01 02 03 04 05 06 07  08 09 0A 0B 0C 0D 0E 0F
      -- -- -- -- -- -- -- --  -- -- -- -- -- -- -- --
0110:                                            1E F0                ..
0120: FF FF 7F 6F 70 29 08 1B  E0 0E 01 01 1D 08 80 23  ...op).........#
0130: 1D 09 80 23 29 08 1B E0  0E 01 02 20 00 21 00     ...#)...... .!. 
```

#### Opcodes

```
  0: 0x011E [0x1E] EventEntity looks at LocalPlayer and starts talking
  1: 0x0123 [0x6F] WAIT_FRAME_DELAY: Yield until WaitTime reaches zero
  2: 0x0124 [0x70] WAIT_ENTITY_RENDER_FLAG: Wait while EventEntity->Render.Flags3 bit 2 is set (cancel turn if not)
  3: 0x0125 [0x29] REQ_SET_WAIT(priority=0x08, entity_id=Churano-Shurano (ID: 17752091/0x010EE01B), tag_num=0x01)
  4: 0x012C [0x1D] PRINT_EVENT_MESSAGE(message_id=7998*)
    → "When you gaze at the night skies, you note stars of all different colors, right? Placed together, those stars form the constellations of the gods."
  5: 0x012F [0x23] WAIT_FOR_DIALOG_INTERACTION
  6: 0x0130 [0x1D] PRINT_EVENT_MESSAGE(message_id=7999*)
    → "The aqua-colored stars in the east sky that form the constellation of Shiva are so alluring... We astronomers like those stars the best."
  7: 0x0133 [0x23] WAIT_FOR_DIALOG_INTERACTION
  8: 0x0134 [0x29] REQ_SET_WAIT(priority=0x08, entity_id=Churano-Shurano (ID: 17752091/0x010EE01B), tag_num=0x02)
  9: 0x013B [0x20] SET_CLI_EVENT_UC_FLAG: Unlock player control
 10: 0x013D [0x21] END_EVENT
 11: 0x013E [0x00] END_REQSTACK()
```

### Event 299

#### Metadata

| Field        | Value    |
|--------------|----------|
| Entrypoint   | 0x013F   |
| Data Size    | 33 bytes |
| Instructions | 12       |

```
      00 01 02 03 04 05 06 07  08 09 0A 0B 0C 0D 0E 0F
      -- -- -- -- -- -- -- --  -- -- -- -- -- -- -- --
0130:                                               1E                 .
0140: F0 FF FF 7F 6F 70 29 08  1B E0 0E 01 01 1D 0A 80  ....op).........
0150: 23 1D 0B 80 23 29 08 1B  E0 0E 01 02 20 00 21 00  #...#)...... .!.
```

#### Opcodes

```
  0: 0x013F [0x1E] EventEntity looks at LocalPlayer and starts talking
  1: 0x0144 [0x6F] WAIT_FRAME_DELAY: Yield until WaitTime reaches zero
  2: 0x0145 [0x70] WAIT_ENTITY_RENDER_FLAG: Wait while EventEntity->Render.Flags3 bit 2 is set (cancel turn if not)
  3: 0x0146 [0x29] REQ_SET_WAIT(priority=0x08, entity_id=Churano-Shurano (ID: 17752091/0x010EE01B), tag_num=0x01)
  4: 0x014D [0x1D] PRINT_EVENT_MESSAGE(message_id=8007*)
    → "Alexander shines bright and white in the northeastern sky. Titan's in the south and Leviathan's in the west."
  5: 0x0150 [0x23] WAIT_FOR_DIALOG_INTERACTION
  6: 0x0151 [0x1D] PRINT_EVENT_MESSAGE(message_id=8008*)
    → "See him spread his imaginary wings there? Connect the stars together and you can make lots of shapes... Look! There's the great Onion in the sky!t"
  7: 0x0154 [0x23] WAIT_FOR_DIALOG_INTERACTION
  8: 0x0155 [0x29] REQ_SET_WAIT(priority=0x08, entity_id=Churano-Shurano (ID: 17752091/0x010EE01B), tag_num=0x02)
  9: 0x015C [0x20] SET_CLI_EVENT_UC_FLAG: Unlock player control
 10: 0x015E [0x21] END_EVENT
 11: 0x015F [0x00] END_REQSTACK()
```

### Event 1080

#### Metadata

| Field        | Value     |
|--------------|-----------|
| Entrypoint   | 0x0160    |
| Data Size    | 202 bytes |
| Instructions | 56        |

```
      00 01 02 03 04 05 06 07  08 09 0A 0B 0C 0D 0E 0F
      -- -- -- -- -- -- -- --  -- -- -- -- -- -- -- --
0160: 03 00 00 02 10 1E F0 FF  FF 7F 6F 70 29 08 1B E0  ..........op)...
0170: 0E 01 01 1D 0C 80 23 1D  0D 80 23 24 0E 80 0F 80  ......#...#$....
0180: 0F 80 25 02 00 10 0F 80  00 92 01 1D 10 80 23 01  ..%...........#.
0190: A1 01 02 00 10 11 80 00  A1 01 1D 12 80 23 01 A1  .............#..
01A0: 01 1C 13 80 29 08 1B E0  0E 01 01 1D 14 80 23 1D  ....).........#.
01B0: 15 80 23 03 02 10 00 00  24 16 80 0F 80 0F 80 25  ..#.....$......%
01C0: 02 00 10 0F 80 00 13 02  42 29 08 1B E0 0E 01 03  ........B)......
01D0: 1D 17 80 23 03 01 10 11  80 43 00 43 01 02 02 10  ...#.....C.C....
01E0: 18 80 00 00 02 29 08 1B  E0 0E 01 0A 1D 19 80 23  .....).........#
01F0: 53 F8 FF FF 7F F8 FF FF  7F 70 61 73 30 01 0B 02  S........pas0...
0200: 29 08 1B E0 0E 01 01 1D  1A 80 23 03 01 10 02 10  ).........#.....
0210: 01 26 02 02 00 10 11 80  00 26 02 1D 1B 80 23 20  .&.......&....# 
0220: 00 21 00 01 26 02 20 00  21 00                    .!..&. .!.      
```

#### Opcodes

```
  0: 0x0160 [0x03] ExtData[1]->WorkLocal[0] = Work_Zone[2]
  1: 0x0165 [0x1E] EventEntity looks at LocalPlayer and starts talking
  2: 0x016A [0x6F] WAIT_FRAME_DELAY: Yield until WaitTime reaches zero
  3: 0x016B [0x70] WAIT_ENTITY_RENDER_FLAG: Wait while EventEntity->Render.Flags3 bit 2 is set (cancel turn if not)
  4: 0x016C [0x29] REQ_SET_WAIT(priority=0x08, entity_id=Churano-Shurano (ID: 17752091/0x010EE01B), tag_num=0x01)
  5: 0x0173 [0x1D] PRINT_EVENT_MESSAGE(message_id=12411*)
    → "Hey, there. Got a moment? I just have to spread the word. We managed to create an astrolabe based on Lago's famed stellar-wellar map!"
  6: 0x0176 [0x23] WAIT_FOR_DIALOG_INTERACTION
  7: 0x0177 [0x1D] PRINT_EVENT_MESSAGE(message_id=12412*)
    → "But this isn't any old run-of-the-mill-will astrolabe, no siree! The constellations of the gods are represented with rare jewels that impart an otherworldly luster to it. Doesn't that make you want to wrest it from us and make it your own?"
  8: 0x017A [0x23] WAIT_FOR_DIALOG_INTERACTION
  9: 0x017B [0x24] CREATE_DIALOG(message_id=12413*, default_option=0*, option_flags=0*)
    → "Does it make you want one? [Yes, I must have it now!/No, not particularly.]"
 10: 0x0182 [0x25] WAIT_DIALOG_SELECT()
 11: 0x0183 [0x02] IF !(Work_Zone[0] == 0*) GOTO 0x0192
 12: 0x018B [0x1D] PRINT_EVENT_MESSAGE(message_id=12414*)
    → "You sure do have a keen eye for gadgets. Vana'diel needs more aesthetes of your caliber so it can adapt to the changing times."
 13: 0x018E [0x23] WAIT_FOR_DIALOG_INTERACTION
 14: 0x018F [0x01] GOTO 0x01A1
 15: 0x0192 [0x02] IF !(Work_Zone[0] == 1*) GOTO 0x01A1
 16: 0x019A [0x1D] PRINT_EVENT_MESSAGE(message_id=12415*)
    → "Pfff. If you don't covet this device more than anything in the world, you have no concept of what value-walue is."
 17: 0x019D [0x23] WAIT_FOR_DIALOG_INTERACTION
 18: 0x019E [0x01] GOTO 0x01A1

SUBROUTINE_01A1:
 19: 0x01A1 [0x1C] WAIT(60* ticks)
 20: 0x01A4 [0x29] REQ_SET_WAIT(priority=0x08, entity_id=Churano-Shurano (ID: 17752091/0x010EE01B), tag_num=0x01)
 21: 0x01AB [0x1D] PRINT_EVENT_MESSAGE(message_id=12416*)
    → "...It's a travesty that we spent too much procuring the gemstones that adorn it. Now we don't have the funds to research any other topics!"
 22: 0x01AE [0x23] WAIT_FOR_DIALOG_INTERACTION
 23: 0x01AF [0x1D] PRINT_EVENT_MESSAGE(message_id=12417*)
    → "I speak for us all when I say we want nothing less than to part with this revolutionary tool. Yet the minister would have our head-weads if he found out what we've done. Therefore, could you please take it off our hands?"
 24: 0x01B2 [0x23] WAIT_FOR_DIALOG_INTERACTION
 25: 0x01B3 [0x03] Work_Zone[2] = ExtData[1]->WorkLocal[0]
 26: 0x01B8 [0x24] CREATE_DIALOG(message_id=12418*, default_option=0*, option_flags=0*)
    → "How does $0 gil sound? [Good enough./Too high for a favor.]"
 27: 0x01BF [0x25] WAIT_DIALOG_SELECT()
 28: 0x01C0 [0x02] IF !(Work_Zone[0] == 0*) GOTO 0x0213
 29: 0x01C8 [0x42] SET_CLI_EVENT_CANCEL_DATA()
 30: 0x01C9 [0x29] REQ_SET_WAIT(priority=0x08, entity_id=Churano-Shurano (ID: 17752091/0x010EE01B), tag_num=0x03)
 31: 0x01D0 [0x1D] PRINT_EVENT_MESSAGE(message_id=12422*)
    → "Let's see here..."
 32: 0x01D3 [0x23] WAIT_FOR_DIALOG_INTERACTION
 33: 0x01D4 [0x03] Work_Zone[1] = 1*
 34: 0x01D9 [0x43] SEND_EVENT_UPDATE: Send pending tag to server (packet 0x005B)
 35: 0x01DB [0x43] SEND_EVENT_UPDATE: Check pending flag (skip if not pending)
 36: 0x01DD [0x02] IF !(Work_Zone[2] == 2578*) GOTO 0x0200
 37: 0x01E5 [0x29] REQ_SET_WAIT(priority=0x08, entity_id=Churano-Shurano (ID: 17752091/0x010EE01B), tag_num=0x0A)
 38: 0x01EC [0x1D] PRINT_EVENT_MESSAGE(message_id=12423*)
    → "Your contribution to the Orastery and stargazers everywhere is much appreciated."
 39: 0x01EF [0x23] WAIT_FOR_DIALOG_INTERACTION
 40: 0x01F0 [0x53] WAIT_SCHEDULER_TASK: Wait for scheduler "pas0" with entities [EventEntity, EventEntity]
 41: 0x01FD [0x01] GOTO 0x020B
 42: 0x0200 [0x29] REQ_SET_WAIT(priority=0x08, entity_id=Churano-Shurano (ID: 17752091/0x010EE01B), tag_num=0x01)
 43: 0x0207 [0x1D] PRINT_EVENT_MESSAGE(message_id=12425*)
    → "I hate to be the harbinger of bad news, but we don't do multiple payments. We need it all up front."
 44: 0x020A [0x23] WAIT_FOR_DIALOG_INTERACTION

SUBROUTINE_020B:
 45: 0x020B [0x03] Work_Zone[1] = Work_Zone[2]
 46: 0x0210 [0x01] GOTO 0x0226
 47: 0x0213 [0x02] IF !(Work_Zone[0] == 1*) GOTO 0x0226
 48: 0x021B [0x1D] PRINT_EVENT_MESSAGE(message_id=12421*)
    → "I can't go any lower. We're already losing too much at this price. Feel free to mull it over and come back when you change your mind. (Just be stealthy about it when you do.)"
 49: 0x021E [0x23] WAIT_FOR_DIALOG_INTERACTION
 50: 0x021F [0x20] SET_CLI_EVENT_UC_FLAG: Unlock player control
 51: 0x0221 [0x21] END_EVENT
 52: 0x0222 [0x00] END_REQSTACK()

SUBROUTINE_0226:
 53: 0x0226 [0x20] SET_CLI_EVENT_UC_FLAG: Unlock player control
 54: 0x0228 [0x21] END_EVENT
 55: 0x0229 [0x00] END_REQSTACK()
```

#### Data or dead code:

```
# Dead code (unreachable instructions):
     0x0223 [0x01] GOTO 0x0226
```

### Event 1081

#### Metadata

| Field        | Value     |
|--------------|-----------|
| Entrypoint   | 0x022A    |
| Data Size    | 142 bytes |
| Instructions | 38        |

```
      00 01 02 03 04 05 06 07  08 09 0A 0B 0C 0D 0E 0F
      -- -- -- -- -- -- -- --  -- -- -- -- -- -- -- --
0220:                                03 00 00 02 10 1E            ......
0230: F0 FF FF 7F 6F 70 29 08  1B E0 0E 01 01 1D 1C 80  ....op).........
0240: 23 03 02 10 00 00 24 1D  80 0F 80 0F 80 25 02 00  #.....$......%..
0250: 10 0F 80 00 A1 02 42 29  08 1B E0 0E 01 03 1D 17  ......B)........
0260: 80 23 03 01 10 11 80 43  00 43 01 02 02 10 18 80  .#.....C.C......
0270: 00 8E 02 29 08 1B E0 0E  01 0A 1D 19 80 23 53 F8  ...).........#S.
0280: FF FF 7F F8 FF FF 7F 70  61 73 30 01 99 02 29 08  .......pas0...).
0290: 1B E0 0E 01 01 1D 1A 80  23 03 01 10 02 10 01 B4  ........#.......
02A0: 02 02 00 10 11 80 00 B4  02 1D 1B 80 23 20 00 21  ............# .!
02B0: 00 01 B4 02 20 00 21 00                           .... .!.        
```

#### Opcodes

```
  0: 0x022A [0x03] ExtData[1]->WorkLocal[0] = Work_Zone[2]
  1: 0x022F [0x1E] EventEntity looks at LocalPlayer and starts talking
  2: 0x0234 [0x6F] WAIT_FRAME_DELAY: Yield until WaitTime reaches zero
  3: 0x0235 [0x70] WAIT_ENTITY_RENDER_FLAG: Wait while EventEntity->Render.Flags3 bit 2 is set (cancel turn if not)
  4: 0x0236 [0x29] REQ_SET_WAIT(priority=0x08, entity_id=Churano-Shurano (ID: 17752091/0x010EE01B), tag_num=0x01)
  5: 0x023D [0x1D] PRINT_EVENT_MESSAGE(message_id=12419*)
    → "Are your heart and mind ready?"
  6: 0x0240 [0x23] WAIT_FOR_DIALOG_INTERACTION
  7: 0x0241 [0x03] Work_Zone[2] = ExtData[1]->WorkLocal[0]
  8: 0x0246 [0x24] CREATE_DIALOG(message_id=12420*, default_option=0*, option_flags=0*)
    → "You fine with paying $0 gil? [Yes, of course./No, not yet.]"
  9: 0x024D [0x25] WAIT_DIALOG_SELECT()
 10: 0x024E [0x02] IF !(Work_Zone[0] == 0*) GOTO 0x02A1
 11: 0x0256 [0x42] SET_CLI_EVENT_CANCEL_DATA()
 12: 0x0257 [0x29] REQ_SET_WAIT(priority=0x08, entity_id=Churano-Shurano (ID: 17752091/0x010EE01B), tag_num=0x03)
 13: 0x025E [0x1D] PRINT_EVENT_MESSAGE(message_id=12422*)
    → "Let's see here..."
 14: 0x0261 [0x23] WAIT_FOR_DIALOG_INTERACTION
 15: 0x0262 [0x03] Work_Zone[1] = 1*
 16: 0x0267 [0x43] SEND_EVENT_UPDATE: Send pending tag to server (packet 0x005B)
 17: 0x0269 [0x43] SEND_EVENT_UPDATE: Check pending flag (skip if not pending)
 18: 0x026B [0x02] IF !(Work_Zone[2] == 2578*) GOTO 0x028E
 19: 0x0273 [0x29] REQ_SET_WAIT(priority=0x08, entity_id=Churano-Shurano (ID: 17752091/0x010EE01B), tag_num=0x0A)
 20: 0x027A [0x1D] PRINT_EVENT_MESSAGE(message_id=12423*)
    → "Your contribution to the Orastery and stargazers everywhere is much appreciated."
 21: 0x027D [0x23] WAIT_FOR_DIALOG_INTERACTION
 22: 0x027E [0x53] WAIT_SCHEDULER_TASK: Wait for scheduler "pas0" with entities [EventEntity, EventEntity]
 23: 0x028B [0x01] GOTO 0x0299
 24: 0x028E [0x29] REQ_SET_WAIT(priority=0x08, entity_id=Churano-Shurano (ID: 17752091/0x010EE01B), tag_num=0x01)
 25: 0x0295 [0x1D] PRINT_EVENT_MESSAGE(message_id=12425*)
    → "I hate to be the harbinger of bad news, but we don't do multiple payments. We need it all up front."
 26: 0x0298 [0x23] WAIT_FOR_DIALOG_INTERACTION

SUBROUTINE_0299:
 27: 0x0299 [0x03] Work_Zone[1] = Work_Zone[2]
 28: 0x029E [0x01] GOTO 0x02B4
 29: 0x02A1 [0x02] IF !(Work_Zone[0] == 1*) GOTO 0x02B4
 30: 0x02A9 [0x1D] PRINT_EVENT_MESSAGE(message_id=12421*)
    → "I can't go any lower. We're already losing too much at this price. Feel free to mull it over and come back when you change your mind. (Just be stealthy about it when you do.)"
 31: 0x02AC [0x23] WAIT_FOR_DIALOG_INTERACTION
 32: 0x02AD [0x20] SET_CLI_EVENT_UC_FLAG: Unlock player control
 33: 0x02AF [0x21] END_EVENT
 34: 0x02B0 [0x00] END_REQSTACK()

SUBROUTINE_02B4:
 35: 0x02B4 [0x20] SET_CLI_EVENT_UC_FLAG: Unlock player control
 36: 0x02B6 [0x21] END_EVENT
 37: 0x02B7 [0x00] END_REQSTACK()
```

#### Data or dead code:

```
# Dead code (unreachable instructions):
     0x02B1 [0x01] GOTO 0x02B4
```
