# 17752143 - Jatan-Paratan

## Common Data

| Field            | Value                     |
|------------------|---------------------------|
| Zone             | Windurst Waters (ID: 238) |
| Block Size       | 1680 bytes                |
| Total Events     | 40                        |
| References Count | 66                        |

## List of Events

| Event ID                   | Entrypoint   |   Size |   Instructions |
|----------------------------|--------------|--------|----------------|
| [65535](#event-65535)      | 0x0000       |      1 |              1 |
| [65535.1](#event-655351)   | 0x0001       |     16 |              2 |
| [65535.2](#event-655352)   | 0x0011       |     22 |              4 |
| [65535.3](#event-655353)   | 0x0027       |     16 |              2 |
| [65535.4](#event-655354)   | 0x0037       |     14 |              2 |
| [65535.5](#event-655355)   | 0x0045       |     16 |              2 |
| [65535.6](#event-655356)   | 0x0055       |     14 |              2 |
| [65535.7](#event-655357)   | 0x0063       |     16 |              2 |
| [65535.8](#event-655358)   | 0x0073       |     14 |              2 |
| [65535.9](#event-655359)   | 0x0081       |     16 |              2 |
| [65535.10](#event-6553510) | 0x0091       |     22 |              4 |
| [65535.11](#event-6553511) | 0x00A7       |     16 |              2 |
| [65535.12](#event-6553512) | 0x00B7       |     14 |              2 |
| [65535.13](#event-6553513) | 0x00C5       |     16 |              2 |
| [65535.14](#event-6553514) | 0x00D5       |     14 |              2 |
| [65535.15](#event-6553515) | 0x00E3       |     16 |              2 |
| [65535.16](#event-6553516) | 0x00F3       |     14 |              2 |
| [65535.17](#event-6553517) | 0x0101       |     16 |              2 |
| [65535.18](#event-6553518) | 0x0111       |     22 |              4 |
| [65535.19](#event-6553519) | 0x0127       |      9 |              3 |
| [65535.20](#event-6553520) | 0x0130       |     39 |              6 |
| [65535.21](#event-6553521) | 0x0157       |     38 |              5 |
| [610](#event-610)          | 0x017D       |     29 |             13 |
| [611](#event-611)          | 0x019A       |     21 |              9 |
| [615](#event-615)          | 0x01AF       |     29 |             13 |
| [633](#event-633)          | 0x01CC       |    101 |             22 |
| [65535.22](#event-6553522) | 0x0231       |      5 |              3 |
| [65535.23](#event-6553523) | 0x0236       |      9 |              5 |
| [65535.24](#event-6553524) | 0x023F       |      9 |              5 |
| [65535.25](#event-6553525) | 0x0248       |      9 |              5 |
| [634](#event-634)          | 0x0251       |     51 |             19 |
| [635](#event-635)          | 0x0284       |     21 |              9 |
| [638](#event-638)          | 0x0299       |    416 |             60 |
| [65535.26](#event-6553526) | 0x0439       |     23 |              7 |
| [65535.27](#event-6553527) | 0x0450       |      9 |              5 |
| [65535.28](#event-6553528) | 0x0459       |      9 |              5 |
| [65535.29](#event-6553529) | 0x0462       |     48 |             14 |
| [65535.30](#event-6553530) | 0x0492       |     27 |              9 |
| [65535.31](#event-6553531) | 0x04AD       |      9 |              5 |
| [639](#event-639)          | 0x04B6       |     33 |             15 |

## DAT References (imed_data)

|   Index | Hex Value   |   Dec Value |
|---------|-------------|-------------|
|       0 | 0x0028      |          40 |
|       1 | 0x001E      |          30 |
|       2 | 0x0029      |          41 |
|       3 | 0x002A      |          42 |
|       4 | 0x0151      |         337 |
|       5 | 0x0CF2      |        3314 |
|       6 | 0x22BA      |        8890 |
|       7 | 0x22BB      |        8891 |
|       8 | 0x22BC      |        8892 |
|       9 | 0x22BD      |        8893 |
|      10 | 0x22C4      |        8900 |
|      11 | 0x22C5      |        8901 |
|      12 | 0x22C6      |        8902 |
|      13 | 0x22C8      |        8904 |
|      14 | 0x0000      |           0 |
|      15 | 0x0001      |           1 |
|      16 | 0x0002      |           2 |
|      17 | 0x0003      |           3 |
|      18 | 0x22C7      |        8903 |
|      19 | 0x22C9      |        8905 |
|      20 | 0x22CA      |        8906 |
|      21 | 0x22CB      |        8907 |
|      22 | 0x22CC      |        8908 |
|      23 | 0x22CD      |        8909 |
|      24 | 0x22CE      |        8910 |
|      25 | 0x22CF      |        8911 |
|      26 | 0x22D0      |        8912 |
|      27 | 0x22D1      |        8913 |
|      28 | 0x22D2      |        8914 |
|      29 | 0x22D3      |        8915 |
|      30 | 0x22D4      |        8916 |
|      31 | 0x00C8      |         200 |
|      32 | 0x003C      |          60 |
|      33 | 0x0180      |         384 |
|      34 | 0x008A      |         138 |
|      35 | 0x0078      |         120 |
|      36 | 0x007C      |         124 |
|      37 | 0x007F      |         127 |
|      38 | 0x0064      |         100 |
|      39 | 0x000D      |          13 |
|      40 | 0xFFFF176E  |  4294907758 |
|      41 | 0x5102      |       20738 |
|      42 | 0xFFFFEFF7  |  4294963191 |
|      43 | 0x03A0      |         928 |
|      44 | 0x0097      |         151 |
|      45 | 0x00C9      |         201 |
|      46 | 0x22DC      |        8924 |
|      47 | 0x22DD      |        8925 |
|      48 | 0x22DE      |        8926 |
|      49 | 0x22DF      |        8927 |
|      50 | 0x22E0      |        8928 |
|      51 | 0x22E1      |        8929 |
|      52 | 0x22E2      |        8930 |
|      53 | 0x22E3      |        8931 |
|      54 | 0x0050      |          80 |
|      55 | 0x22E4      |        8932 |
|      56 | 0x22E5      |        8933 |
|      57 | 0x22E6      |        8934 |
|      58 | 0x22E7      |        8935 |
|      59 | 0x22E8      |        8936 |
|      60 | 0x22E9      |        8937 |
|      61 | 0x22EA      |        8938 |
|      62 | 0x22EB      |        8939 |
|      63 | 0x22EC      |        8940 |
|      64 | 0x22ED      |        8941 |
|      65 | 0x22EE      |        8942 |

## String References

- **8890**: I'm the house flutist. I do nightly performances at this restaurant.
- **8891**: Have you ever visited us here at nighty-nighty?
- **8892**: People are strange when it comes to food. It seems our tastes change with the time of day. I recommend you try our dinner dishes here too!
- **8893**: Please enjoy some soul-soothing music for a while.
- **8900**: This may be a little rude of me, but have you, my fair customer, ever listened to one of my performances?
- **8901**: I perform here during the nights. My job is to assist you in your enjoyment of our fine food and drinks with my dreamy-weamy melodies.
- **8902**: Please stop by the next evening you are free, and enjoy the rhythm of the night.
- **8903**: Have you, my fair customer, ever listened to one of my performances? If you don't mind giving your opinion, perhaps you could let me know your thoughts for my future reference.
- **8904**: How did you like his performance? [It was like music to my ears./Face the music! It wasn't so good./I have no recollection at all.]
- **8905**: So you think my playing still needs work?
- **8906**: I appreciate your honest opinion. I shall strive to continuously improve my skills.
- **8907**: Why, thank you so very much. I'll take that as encouragement to continuously improve my skills.
- **8908**: Please stop by and listen again some time.
- **8909**: As a simple musician that would be taken as biting criticism, but as a restaurant performer, it is the greatest of praises. Thank you very much.
- **8910**: I strive to create music that complements your meal and doesn't distract from your conversation. Please stop by and enjoy the atmosphere again some time.
- **8911**: My fair customer, what are your thoughts on our restaurant here?
- **8912**: I'm sorry, I shouldn't have asked that. It's not like I'm the owner of the place or anything like that...
- **8913**: I just love the tastes and atmosphere of this restaurant. I shall never forget the bliss I encountered here in the middle of my long, hard travels.
- **8914**: After discovering this place, I simply forced the proprietor into allowing me to have a position here. Alas...but then...
- **8915**: ...... I'm sorry. I don't know what came over me... Please forget it.
- **8916**: ...... I'm sorry, I don't know what came over me... Please forget what I said.
- **8924**: Ah? What's this...? Where in Vana'diel did you get this...?
- **8925**: Don't tell me you traveled all the way to Jeuno to meet Ruslan! Why would you do such a thing?
- **8926**: What? Yung and Yuli Yaam were worried that I'm not myself of late...
- **8927**: I am sincerely touched by the fact you all care so much about me...
- **8928**: Allow me to share my heartfelt feelings with you...
- **8929**: 'Twas a little while ago that Ruslan, an old acquaintance who practiced music with me, came to this very tavern and let me hear of his recent tales.
- **8930**: He praised my performance greatly, but had no interest in the food of this restaurant.
- **8931**: Despite sojourning here for several weeks and eating the food here every night, he couldn't remember the slightest thing about the restaurant's cooking.
- **8932**: 'Twas then that I realized that my flamboyant performance itself was detracting from the tastes and atmosphere of this tavern.
- **8933**: It was like I was repaying the tavern owner's kindness with evil...or biting the hand that feeds me--no, everyone...
- **8934**: And so now I'm searching within myself for a more appropriate sound. Alas, I've been unable to find it yet.
- **8935**: I apologize for the trouble I've caused...drawing you into my own personal problems...problems that shouldn't concern one as esteemed as yourself.
- **8936**: But, yes indeed, this was once the goal I sought after. I shall gladly accept it from you. However, let me pay you back with this...
- **8937**: That is also a little something I collected while I was first obsessed with music.
- **8938**: I was going to throw it away, but I suppose if one were to sell it, it would fetch quite a sum. Please take it. I hope it assists you in your travels.
- **8939**: I beg your pardon, but, if you don't mind...could we kindly keep this between you and me, and not bother Yung and Yuli Yaam with my problems?
- **8940**: I don't want to worry them any further with my problems. It might affect Yuli's philosophy towards music...
- **8941**: I just love Yuli Yaam's music.
- **8942**: Perhaps it is selfish of me, but when I first came here midway through my journeys, I wished both this place and its music would stay the same.

## Events

### Event 65535

#### Metadata

| Field        | Value   |
|--------------|---------|
| Entrypoint   | 0x0000  |
| Data Size    | 1 bytes |
| Instructions | 1       |

```
      00 01 02 03 04 05 06 07  08 09 0A 0B 0C 0D 0E 0F
      -- -- -- -- -- -- -- --  -- -- -- -- -- -- -- --
0000: 00                                                .               
```

#### Opcodes

```
  0: 0x0000 [0x00] END_REQSTACK()
```

### Event 65535.1

#### Metadata

| Field        | Value    |
|--------------|----------|
| Entrypoint   | 0x0001   |
| Data Size    | 16 bytes |
| Instructions | 2        |

```
      00 01 02 03 04 05 06 07  08 09 0A 0B 0C 0D 0E 0F
      -- -- -- -- -- -- -- --  -- -- -- -- -- -- -- --
0000:    66 00 80 F8 FF FF 7F  F8 FF FF 7F 74 6C 6B 30   f..........tlk0
0010: 00                                                .               
```

#### Opcodes

```
  0: 0x0001 [0x66] LOAD_EXT_SCHEDULER_MAIN: Load scheduler "tlk0" with entities [EventEntity, EventEntity], work=40*
  1: 0x0010 [0x00] END_REQSTACK()
```

### Event 65535.2

#### Metadata

| Field        | Value    |
|--------------|----------|
| Entrypoint   | 0x0011   |
| Data Size    | 22 bytes |
| Instructions | 4        |

```
      00 01 02 03 04 05 06 07  08 09 0A 0B 0C 0D 0E 0F
      -- -- -- -- -- -- -- --  -- -- -- -- -- -- -- --
0010:    53 F8 FF FF 7F F8 FF  FF 7F 74 6C 6B 30 5E 69   S........tlk0^i
0020: 64 6C 30 1C 01 80 00                              dl0....         
```

#### Opcodes

```
  0: 0x0011 [0x53] WAIT_SCHEDULER_TASK: Wait for scheduler "tlk0" with entities [EventEntity, EventEntity]
  1: 0x001E [0x5E] EventEntity goes idle (kills current action) (animation: "idl0")
  2: 0x0023 [0x1C] WAIT(30* ticks)
  3: 0x0026 [0x00] END_REQSTACK()
```

### Event 65535.3

#### Metadata

| Field        | Value    |
|--------------|----------|
| Entrypoint   | 0x0027   |
| Data Size    | 16 bytes |
| Instructions | 2        |

```
      00 01 02 03 04 05 06 07  08 09 0A 0B 0C 0D 0E 0F
      -- -- -- -- -- -- -- --  -- -- -- -- -- -- -- --
0020:                      66  00 80 F8 FF FF 7F F8 FF         f........
0030: FF 7F 74 68 6B 31 00                              ..thk1.         
```

#### Opcodes

```
  0: 0x0027 [0x66] LOAD_EXT_SCHEDULER_MAIN: Load scheduler "thk1" with entities [EventEntity, EventEntity], work=40*
  1: 0x0036 [0x00] END_REQSTACK()
```

### Event 65535.4

#### Metadata

| Field        | Value    |
|--------------|----------|
| Entrypoint   | 0x0037   |
| Data Size    | 14 bytes |
| Instructions | 2        |

```
      00 01 02 03 04 05 06 07  08 09 0A 0B 0C 0D 0E 0F
      -- -- -- -- -- -- -- --  -- -- -- -- -- -- -- --
0030:                      53  F8 FF FF 7F F8 FF FF 7F         S........
0040: 74 68 6B 31 00                                    thk1.           
```

#### Opcodes

```
  0: 0x0037 [0x53] WAIT_SCHEDULER_TASK: Wait for scheduler "thk1" with entities [EventEntity, EventEntity]
  1: 0x0044 [0x00] END_REQSTACK()
```

### Event 65535.5

#### Metadata

| Field        | Value    |
|--------------|----------|
| Entrypoint   | 0x0045   |
| Data Size    | 16 bytes |
| Instructions | 2        |

```
      00 01 02 03 04 05 06 07  08 09 0A 0B 0C 0D 0E 0F
      -- -- -- -- -- -- -- --  -- -- -- -- -- -- -- --
0040:                66 00 80  F8 FF FF 7F F8 FF FF 7F       f..........
0050: 74 68 6B 32 00                                    thk2.           
```

#### Opcodes

```
  0: 0x0045 [0x66] LOAD_EXT_SCHEDULER_MAIN: Load scheduler "thk2" with entities [EventEntity, EventEntity], work=40*
  1: 0x0054 [0x00] END_REQSTACK()
```

### Event 65535.6

#### Metadata

| Field        | Value    |
|--------------|----------|
| Entrypoint   | 0x0055   |
| Data Size    | 14 bytes |
| Instructions | 2        |

```
      00 01 02 03 04 05 06 07  08 09 0A 0B 0C 0D 0E 0F
      -- -- -- -- -- -- -- --  -- -- -- -- -- -- -- --
0050:                53 F8 FF  FF 7F F8 FF FF 7F 74 68       S........th
0060: 6B 32 00                                          k2.             
```

#### Opcodes

```
  0: 0x0055 [0x53] WAIT_SCHEDULER_TASK: Wait for scheduler "thk2" with entities [EventEntity, EventEntity]
  1: 0x0062 [0x00] END_REQSTACK()
```

### Event 65535.7

#### Metadata

| Field        | Value    |
|--------------|----------|
| Entrypoint   | 0x0063   |
| Data Size    | 16 bytes |
| Instructions | 2        |

```
      00 01 02 03 04 05 06 07  08 09 0A 0B 0C 0D 0E 0F
      -- -- -- -- -- -- -- --  -- -- -- -- -- -- -- --
0060:          66 02 80 F8 FF  FF 7F F8 FF FF 7F 73 68     f..........sh
0070: 6B 30 00                                          k0.             
```

#### Opcodes

```
  0: 0x0063 [0x66] LOAD_EXT_SCHEDULER_MAIN: Load scheduler "shk0" with entities [EventEntity, EventEntity], work=41*
  1: 0x0072 [0x00] END_REQSTACK()
```

### Event 65535.8

#### Metadata

| Field        | Value    |
|--------------|----------|
| Entrypoint   | 0x0073   |
| Data Size    | 14 bytes |
| Instructions | 2        |

```
      00 01 02 03 04 05 06 07  08 09 0A 0B 0C 0D 0E 0F
      -- -- -- -- -- -- -- --  -- -- -- -- -- -- -- --
0070:          53 F8 FF FF 7F  F8 FF FF 7F 73 68 6B 30     S........shk0
0080: 00                                                .               
```

#### Opcodes

```
  0: 0x0073 [0x53] WAIT_SCHEDULER_TASK: Wait for scheduler "shk0" with entities [EventEntity, EventEntity]
  1: 0x0080 [0x00] END_REQSTACK()
```

### Event 65535.9

#### Metadata

| Field        | Value    |
|--------------|----------|
| Entrypoint   | 0x0081   |
| Data Size    | 16 bytes |
| Instructions | 2        |

```
      00 01 02 03 04 05 06 07  08 09 0A 0B 0C 0D 0E 0F
      -- -- -- -- -- -- -- --  -- -- -- -- -- -- -- --
0080:    66 03 80 F8 FF FF 7F  F8 FF FF 7F 62 69 6B 30   f..........bik0
0090: 00                                                .               
```

#### Opcodes

```
  0: 0x0081 [0x66] LOAD_EXT_SCHEDULER_MAIN: Load scheduler "bik0" with entities [EventEntity, EventEntity], work=42*
  1: 0x0090 [0x00] END_REQSTACK()
```

### Event 65535.10

#### Metadata

| Field        | Value    |
|--------------|----------|
| Entrypoint   | 0x0091   |
| Data Size    | 22 bytes |
| Instructions | 4        |

```
      00 01 02 03 04 05 06 07  08 09 0A 0B 0C 0D 0E 0F
      -- -- -- -- -- -- -- --  -- -- -- -- -- -- -- --
0090:    53 F8 FF FF 7F F8 FF  FF 7F 62 69 6B 30 5E 69   S........bik0^i
00A0: 64 6C 30 1C 01 80 00                              dl0....         
```

#### Opcodes

```
  0: 0x0091 [0x53] WAIT_SCHEDULER_TASK: Wait for scheduler "bik0" with entities [EventEntity, EventEntity]
  1: 0x009E [0x5E] EventEntity goes idle (kills current action) (animation: "idl0")
  2: 0x00A3 [0x1C] WAIT(30* ticks)
  3: 0x00A6 [0x00] END_REQSTACK()
```

### Event 65535.11

#### Metadata

| Field        | Value    |
|--------------|----------|
| Entrypoint   | 0x00A7   |
| Data Size    | 16 bytes |
| Instructions | 2        |

```
      00 01 02 03 04 05 06 07  08 09 0A 0B 0C 0D 0E 0F
      -- -- -- -- -- -- -- --  -- -- -- -- -- -- -- --
00A0:                      66  00 80 F8 FF FF 7F F8 FF         f........
00B0: FF 7F 69 72 6F 30 00                              ..iro0.         
```

#### Opcodes

```
  0: 0x00A7 [0x66] LOAD_EXT_SCHEDULER_MAIN: Load scheduler "iro0" with entities [EventEntity, EventEntity], work=40*
  1: 0x00B6 [0x00] END_REQSTACK()
```

### Event 65535.12

#### Metadata

| Field        | Value    |
|--------------|----------|
| Entrypoint   | 0x00B7   |
| Data Size    | 14 bytes |
| Instructions | 2        |

```
      00 01 02 03 04 05 06 07  08 09 0A 0B 0C 0D 0E 0F
      -- -- -- -- -- -- -- --  -- -- -- -- -- -- -- --
00B0:                      53  F8 FF FF 7F F8 FF FF 7F         S........
00C0: 69 72 6F 30 00                                    iro0.           
```

#### Opcodes

```
  0: 0x00B7 [0x53] WAIT_SCHEDULER_TASK: Wait for scheduler "iro0" with entities [EventEntity, EventEntity]
  1: 0x00C4 [0x00] END_REQSTACK()
```

### Event 65535.13

#### Metadata

| Field        | Value    |
|--------------|----------|
| Entrypoint   | 0x00C5   |
| Data Size    | 16 bytes |
| Instructions | 2        |

```
      00 01 02 03 04 05 06 07  08 09 0A 0B 0C 0D 0E 0F
      -- -- -- -- -- -- -- --  -- -- -- -- -- -- -- --
00C0:                66 00 80  F8 FF FF 7F F8 FF FF 7F       f..........
00D0: 70 6F 69 30 00                                    poi0.           
```

#### Opcodes

```
  0: 0x00C5 [0x66] LOAD_EXT_SCHEDULER_MAIN: Load scheduler "poi0" with entities [EventEntity, EventEntity], work=40*
  1: 0x00D4 [0x00] END_REQSTACK()
```

### Event 65535.14

#### Metadata

| Field        | Value    |
|--------------|----------|
| Entrypoint   | 0x00D5   |
| Data Size    | 14 bytes |
| Instructions | 2        |

```
      00 01 02 03 04 05 06 07  08 09 0A 0B 0C 0D 0E 0F
      -- -- -- -- -- -- -- --  -- -- -- -- -- -- -- --
00D0:                53 F8 FF  FF 7F F8 FF FF 7F 70 6F       S........po
00E0: 69 30 00                                          i0.             
```

#### Opcodes

```
  0: 0x00D5 [0x53] WAIT_SCHEDULER_TASK: Wait for scheduler "poi0" with entities [EventEntity, EventEntity]
  1: 0x00E2 [0x00] END_REQSTACK()
```

### Event 65535.15

#### Metadata

| Field        | Value    |
|--------------|----------|
| Entrypoint   | 0x00E3   |
| Data Size    | 16 bytes |
| Instructions | 2        |

```
      00 01 02 03 04 05 06 07  08 09 0A 0B 0C 0D 0E 0F
      -- -- -- -- -- -- -- --  -- -- -- -- -- -- -- --
00E0:          66 00 80 F8 FF  FF 7F F8 FF FF 7F 70 61     f..........pa
00F0: 73 30 00                                          s0.             
```

#### Opcodes

```
  0: 0x00E3 [0x66] LOAD_EXT_SCHEDULER_MAIN: Load scheduler "pas0" with entities [EventEntity, EventEntity], work=40*
  1: 0x00F2 [0x00] END_REQSTACK()
```

### Event 65535.16

#### Metadata

| Field        | Value    |
|--------------|----------|
| Entrypoint   | 0x00F3   |
| Data Size    | 14 bytes |
| Instructions | 2        |

```
      00 01 02 03 04 05 06 07  08 09 0A 0B 0C 0D 0E 0F
      -- -- -- -- -- -- -- --  -- -- -- -- -- -- -- --
00F0:          53 F8 FF FF 7F  F8 FF FF 7F 70 61 73 30     S........pas0
0100: 00                                                .               
```

#### Opcodes

```
  0: 0x00F3 [0x53] WAIT_SCHEDULER_TASK: Wait for scheduler "pas0" with entities [EventEntity, EventEntity]
  1: 0x0100 [0x00] END_REQSTACK()
```

### Event 65535.17

#### Metadata

| Field        | Value    |
|--------------|----------|
| Entrypoint   | 0x0101   |
| Data Size    | 16 bytes |
| Instructions | 2        |

```
      00 01 02 03 04 05 06 07  08 09 0A 0B 0C 0D 0E 0F
      -- -- -- -- -- -- -- --  -- -- -- -- -- -- -- --
0100:    5B 04 80 F8 FF FF 7F  F8 FF FF 7F 67 6B 72 30   [..........gkr0
0110: 00                                                .               
```

#### Opcodes

```
  0: 0x0101 [0x5B] LOAD_EXT_SCHEDULER: Load scheduler "gkr0" with entities [EventEntity, EventEntity], work=337*
  1: 0x0110 [0x00] END_REQSTACK()
```

### Event 65535.18

#### Metadata

| Field        | Value    |
|--------------|----------|
| Entrypoint   | 0x0111   |
| Data Size    | 22 bytes |
| Instructions | 4        |

```
      00 01 02 03 04 05 06 07  08 09 0A 0B 0C 0D 0E 0F
      -- -- -- -- -- -- -- --  -- -- -- -- -- -- -- --
0110:    53 F8 FF FF 7F F8 FF  FF 7F 67 6B 72 30 5E 69   S........gkr0^i
0120: 64 6C 30 1C 01 80 00                              dl0....         
```

#### Opcodes

```
  0: 0x0111 [0x53] WAIT_SCHEDULER_TASK: Wait for scheduler "gkr0" with entities [EventEntity, EventEntity]
  1: 0x011E [0x5E] EventEntity goes idle (kills current action) (animation: "idl0")
  2: 0x0123 [0x1C] WAIT(30* ticks)
  3: 0x0126 [0x00] END_REQSTACK()
```

### Event 65535.19

#### Metadata

| Field        | Value   |
|--------------|---------|
| Entrypoint   | 0x0127  |
| Data Size    | 9 bytes |
| Instructions | 3       |

```
      00 01 02 03 04 05 06 07  08 09 0A 0B 0C 0D 0E 0F
      -- -- -- -- -- -- -- --  -- -- -- -- -- -- -- --
0120:                      5E  69 64 6C 30 1C 01 80 00         ^idl0....
```

#### Opcodes

```
  0: 0x0127 [0x5E] EventEntity goes idle (kills current action) (animation: "idl0")
  1: 0x012C [0x1C] WAIT(30* ticks)
  2: 0x012F [0x00] END_REQSTACK()
```

### Event 65535.20

#### Metadata

| Field        | Value    |
|--------------|----------|
| Entrypoint   | 0x0130   |
| Data Size    | 39 bytes |
| Instructions | 6        |

```
      00 01 02 03 04 05 06 07  08 09 0A 0B 0C 0D 0E 0F
      -- -- -- -- -- -- -- --  -- -- -- -- -- -- -- --
0130: 5F 01 66 00 80 F8 FF FF  7F F8 FF FF 7F 73 66 6C  _.f..........sfl
0140: 31 53 F8 FF FF 7F F8 FF  FF 7F 73 66 6C 31 5E 69  1S........sfl1^i
0150: 64 6C 30 1C 01 80 00                              dl0....         
```

#### Opcodes

```
  0: 0x0130 [0x5F] MULTI_HANDLER_COMPLEX(mode=0x01 - Toggle Render.Flags0 bit 29)
  1: 0x0132 [0x66] LOAD_EXT_SCHEDULER_MAIN: Load scheduler "sfl1" with entities [EventEntity, EventEntity], work=40*
  2: 0x0141 [0x53] WAIT_SCHEDULER_TASK: Wait for scheduler "sfl1" with entities [EventEntity, EventEntity]
  3: 0x014E [0x5E] EventEntity goes idle (kills current action) (animation: "idl0")
  4: 0x0153 [0x1C] WAIT(30* ticks)
  5: 0x0156 [0x00] END_REQSTACK()
```

### Event 65535.21

#### Metadata

| Field        | Value    |
|--------------|----------|
| Entrypoint   | 0x0157   |
| Data Size    | 38 bytes |
| Instructions | 5        |

```
      00 01 02 03 04 05 06 07  08 09 0A 0B 0C 0D 0E 0F
      -- -- -- -- -- -- -- --  -- -- -- -- -- -- -- --
0150:                      5F  00 4B 4F E0 0E 01 05 80         _.KO.....
0160: 66 00 80 F8 FF FF 7F F8  FF FF 7F 73 66 6C 30 53  f..........sfl0S
0170: F8 FF FF 7F F8 FF FF 7F  73 66 6C 30 00           ........sfl0.   
```

#### Opcodes

```
  0: 0x0157 [0x5F] MULTI_HANDLER_COMPLEX(mode=0x00 - Toggle Render.Flags0 bit 29)
  1: 0x0159 [0x4B] UPDATE_ENTITY_YAW(entity=Jatan-Paratan (ID: 17752143/0x010EE04F), yaw=18.2°*)
  2: 0x0160 [0x66] LOAD_EXT_SCHEDULER_MAIN: Load scheduler "sfl0" with entities [EventEntity, EventEntity], work=40*
  3: 0x016F [0x53] WAIT_SCHEDULER_TASK: Wait for scheduler "sfl0" with entities [EventEntity, EventEntity]
  4: 0x017C [0x00] END_REQSTACK()
```

### Event 610

#### Metadata

| Field        | Value    |
|--------------|----------|
| Entrypoint   | 0x017D   |
| Data Size    | 29 bytes |
| Instructions | 13       |

```
      00 01 02 03 04 05 06 07  08 09 0A 0B 0C 0D 0E 0F
      -- -- -- -- -- -- -- --  -- -- -- -- -- -- -- --
0170:                                         86 01 F8               ...
0180: FF FF 7F 1E F0 FF FF 7F  6F 70 1D 06 80 23 1D 07  ........op...#..
0190: 80 23 1D 08 80 23 20 00  21 00                    .#...# .!.      
```

#### Opcodes

```
  0: 0x017D [0x86] EventEntity->Render.Flags3 ^= 0x01
  1: 0x0183 [0x1E] EventEntity looks at LocalPlayer and starts talking
  2: 0x0188 [0x6F] WAIT_FRAME_DELAY: Yield until WaitTime reaches zero
  3: 0x0189 [0x70] WAIT_ENTITY_RENDER_FLAG: Wait while EventEntity->Render.Flags3 bit 2 is set (cancel turn if not)
  4: 0x018A [0x1D] PRINT_EVENT_MESSAGE(message_id=8890*)
    → "I'm the house flutist. I do nightly performances at this restaurant."
  5: 0x018D [0x23] WAIT_FOR_DIALOG_INTERACTION
  6: 0x018E [0x1D] PRINT_EVENT_MESSAGE(message_id=8891*)
    → "Have you ever visited us here at nighty-nighty?"
  7: 0x0191 [0x23] WAIT_FOR_DIALOG_INTERACTION
  8: 0x0192 [0x1D] PRINT_EVENT_MESSAGE(message_id=8892*)
    → "People are strange when it comes to food. It seems our tastes change with the time of day. I recommend you try our dinner dishes here too!"
  9: 0x0195 [0x23] WAIT_FOR_DIALOG_INTERACTION
 10: 0x0196 [0x20] SET_CLI_EVENT_UC_FLAG: Unlock player control
 11: 0x0198 [0x21] END_EVENT
 12: 0x0199 [0x00] END_REQSTACK()
```

### Event 611

#### Metadata

| Field        | Value    |
|--------------|----------|
| Entrypoint   | 0x019A   |
| Data Size    | 21 bytes |
| Instructions | 9        |

```
      00 01 02 03 04 05 06 07  08 09 0A 0B 0C 0D 0E 0F
      -- -- -- -- -- -- -- --  -- -- -- -- -- -- -- --
0190:                                86 01 F8 FF FF 7F            ......
01A0: 1E F0 FF FF 7F 6F 70 1D  09 80 23 20 00 21 00     .....op...# .!. 
```

#### Opcodes

```
  0: 0x019A [0x86] EventEntity->Render.Flags3 ^= 0x01
  1: 0x01A0 [0x1E] EventEntity looks at LocalPlayer and starts talking
  2: 0x01A5 [0x6F] WAIT_FRAME_DELAY: Yield until WaitTime reaches zero
  3: 0x01A6 [0x70] WAIT_ENTITY_RENDER_FLAG: Wait while EventEntity->Render.Flags3 bit 2 is set (cancel turn if not)
  4: 0x01A7 [0x1D] PRINT_EVENT_MESSAGE(message_id=8893*)
    → "Please enjoy some soul-soothing music for a while."
  5: 0x01AA [0x23] WAIT_FOR_DIALOG_INTERACTION
  6: 0x01AB [0x20] SET_CLI_EVENT_UC_FLAG: Unlock player control
  7: 0x01AD [0x21] END_EVENT
  8: 0x01AE [0x00] END_REQSTACK()
```

### Event 615

#### Metadata

| Field        | Value    |
|--------------|----------|
| Entrypoint   | 0x01AF   |
| Data Size    | 29 bytes |
| Instructions | 13       |

```
      00 01 02 03 04 05 06 07  08 09 0A 0B 0C 0D 0E 0F
      -- -- -- -- -- -- -- --  -- -- -- -- -- -- -- --
01A0:                                               86                 .
01B0: 01 F8 FF FF 7F 1E F0 FF  FF 7F 6F 70 1D 0A 80 23  ..........op...#
01C0: 1D 0B 80 23 1D 0C 80 23  20 00 21 00              ...#...# .!.    
```

#### Opcodes

```
  0: 0x01AF [0x86] EventEntity->Render.Flags3 ^= 0x01
  1: 0x01B5 [0x1E] EventEntity looks at LocalPlayer and starts talking
  2: 0x01BA [0x6F] WAIT_FRAME_DELAY: Yield until WaitTime reaches zero
  3: 0x01BB [0x70] WAIT_ENTITY_RENDER_FLAG: Wait while EventEntity->Render.Flags3 bit 2 is set (cancel turn if not)
  4: 0x01BC [0x1D] PRINT_EVENT_MESSAGE(message_id=8900*)
    → "This may be a little rude of me, but have you, my fair customer, ever listened to one of my performances?"
  5: 0x01BF [0x23] WAIT_FOR_DIALOG_INTERACTION
  6: 0x01C0 [0x1D] PRINT_EVENT_MESSAGE(message_id=8901*)
    → "I perform here during the nights. My job is to assist you in your enjoyment of our fine food and drinks with my dreamy-weamy melodies."
  7: 0x01C3 [0x23] WAIT_FOR_DIALOG_INTERACTION
  8: 0x01C4 [0x1D] PRINT_EVENT_MESSAGE(message_id=8902*)
    → "Please stop by the next evening you are free, and enjoy the rhythm of the night."
  9: 0x01C7 [0x23] WAIT_FOR_DIALOG_INTERACTION
 10: 0x01C8 [0x20] SET_CLI_EVENT_UC_FLAG: Unlock player control
 11: 0x01CA [0x21] END_EVENT
 12: 0x01CB [0x00] END_REQSTACK()
```

### Event 633

#### Metadata

| Field        | Value     |
|--------------|-----------|
| Entrypoint   | 0x01CC    |
| Data Size    | 101 bytes |
| Instructions | 22        |

```
      00 01 02 03 04 05 06 07  08 09 0A 0B 0C 0D 0E 0F
      -- -- -- -- -- -- -- --  -- -- -- -- -- -- -- --
01C0:                                      86 01 F8 FF              ....
01D0: FF 7F 1E F0 FF FF 7F 6F  70 29 0B 4F E0 0E 01 1A  .......op).O....
01E0: 24 0D 80 0E 80 0E 80 25  02 00 10 0E 80 00 FF 01  $......%........
01F0: 03 01 10 0F 80 29 0B 4F  E0 0E 01 1C 01 2D 02 02  .....).O.....-..
0200: 00 10 0F 80 00 16 02 03  01 10 10 80 29 0B 4F E0  ............).O.
0210: 0E 01 1B 01 2D 02 02 00  10 10 80 00 2D 02 03 01  ....-.......-...
0220: 10 11 80 29 0B 4F E0 0E  01 1D 01 2D 02 20 00 21  ...).O.....-. .!
0230: 00                                                .               
```

#### Opcodes

```
  0: 0x01CC [0x86] EventEntity->Render.Flags3 ^= 0x01
  1: 0x01D2 [0x1E] EventEntity looks at LocalPlayer and starts talking
  2: 0x01D7 [0x6F] WAIT_FRAME_DELAY: Yield until WaitTime reaches zero
  3: 0x01D8 [0x70] WAIT_ENTITY_RENDER_FLAG: Wait while EventEntity->Render.Flags3 bit 2 is set (cancel turn if not)
  4: 0x01D9 [0x29] REQ_SET_WAIT(priority=0x0B, entity_id=Jatan-Paratan (ID: 17752143/0x010EE04F), tag_num=0x1A)
  5: 0x01E0 [0x24] CREATE_DIALOG(message_id=8904*, default_option=0*, option_flags=0*)
    → "How did you like his performance? [It was like music to my ears./Face the music! It wasn't so good./I have no recollection at all.]"
  6: 0x01E7 [0x25] WAIT_DIALOG_SELECT()
  7: 0x01E8 [0x02] IF !(Work_Zone[0] == 0*) GOTO 0x01FF
  8: 0x01F0 [0x03] Work_Zone[1] = 1*
  9: 0x01F5 [0x29] REQ_SET_WAIT(priority=0x0B, entity_id=Jatan-Paratan (ID: 17752143/0x010EE04F), tag_num=0x1C)
 10: 0x01FC [0x01] GOTO 0x022D
 11: 0x01FF [0x02] IF !(Work_Zone[0] == 1*) GOTO 0x0216
 12: 0x0207 [0x03] Work_Zone[1] = 2*
 13: 0x020C [0x29] REQ_SET_WAIT(priority=0x0B, entity_id=Jatan-Paratan (ID: 17752143/0x010EE04F), tag_num=0x1B)
 14: 0x0213 [0x01] GOTO 0x022D
 15: 0x0216 [0x02] IF !(Work_Zone[0] == 2*) GOTO 0x022D
 16: 0x021E [0x03] Work_Zone[1] = 3*
 17: 0x0223 [0x29] REQ_SET_WAIT(priority=0x0B, entity_id=Jatan-Paratan (ID: 17752143/0x010EE04F), tag_num=0x1D)
 18: 0x022A [0x01] GOTO 0x022D

SUBROUTINE_022D:
 19: 0x022D [0x20] SET_CLI_EVENT_UC_FLAG: Unlock player control
 20: 0x022F [0x21] END_EVENT
 21: 0x0230 [0x00] END_REQSTACK()
```

### Event 65535.22

#### Metadata

| Field        | Value   |
|--------------|---------|
| Entrypoint   | 0x0231  |
| Data Size    | 5 bytes |
| Instructions | 3       |

```
      00 01 02 03 04 05 06 07  08 09 0A 0B 0C 0D 0E 0F
      -- -- -- -- -- -- -- --  -- -- -- -- -- -- -- --
0230:    1D 12 80 23 00                                  ...#.          
```

#### Opcodes

```
  0: 0x0231 [0x1D] PRINT_EVENT_MESSAGE(message_id=8903*)
    → "Have you, my fair customer, ever listened to one of my performances? If you don't mind giving your opinion, perhaps you could let me know your thoughts for my future reference."
  1: 0x0234 [0x23] WAIT_FOR_DIALOG_INTERACTION
  2: 0x0235 [0x00] END_REQSTACK()
```

### Event 65535.23

#### Metadata

| Field        | Value   |
|--------------|---------|
| Entrypoint   | 0x0236  |
| Data Size    | 9 bytes |
| Instructions | 5       |

```
      00 01 02 03 04 05 06 07  08 09 0A 0B 0C 0D 0E 0F
      -- -- -- -- -- -- -- --  -- -- -- -- -- -- -- --
0230:                   1D 13  80 23 1D 14 80 23 00           ...#...#. 
```

#### Opcodes

```
  0: 0x0236 [0x1D] PRINT_EVENT_MESSAGE(message_id=8905*)
    → "So you think my playing still needs work?"
  1: 0x0239 [0x23] WAIT_FOR_DIALOG_INTERACTION
  2: 0x023A [0x1D] PRINT_EVENT_MESSAGE(message_id=8906*)
    → "I appreciate your honest opinion. I shall strive to continuously improve my skills."
  3: 0x023D [0x23] WAIT_FOR_DIALOG_INTERACTION
  4: 0x023E [0x00] END_REQSTACK()
```

### Event 65535.24

#### Metadata

| Field        | Value   |
|--------------|---------|
| Entrypoint   | 0x023F  |
| Data Size    | 9 bytes |
| Instructions | 5       |

```
      00 01 02 03 04 05 06 07  08 09 0A 0B 0C 0D 0E 0F
      -- -- -- -- -- -- -- --  -- -- -- -- -- -- -- --
0230:                                               1D                 .
0240: 15 80 23 1D 16 80 23 00                           ..#...#.        
```

#### Opcodes

```
  0: 0x023F [0x1D] PRINT_EVENT_MESSAGE(message_id=8907*)
    → "Why, thank you so very much. I'll take that as encouragement to continuously improve my skills."
  1: 0x0242 [0x23] WAIT_FOR_DIALOG_INTERACTION
  2: 0x0243 [0x1D] PRINT_EVENT_MESSAGE(message_id=8908*)
    → "Please stop by and listen again some time."
  3: 0x0246 [0x23] WAIT_FOR_DIALOG_INTERACTION
  4: 0x0247 [0x00] END_REQSTACK()
```

### Event 65535.25

#### Metadata

| Field        | Value   |
|--------------|---------|
| Entrypoint   | 0x0248  |
| Data Size    | 9 bytes |
| Instructions | 5       |

```
      00 01 02 03 04 05 06 07  08 09 0A 0B 0C 0D 0E 0F
      -- -- -- -- -- -- -- --  -- -- -- -- -- -- -- --
0240:                          1D 17 80 23 1D 18 80 23          ...#...#
0250: 00                                                .               
```

#### Opcodes

```
  0: 0x0248 [0x1D] PRINT_EVENT_MESSAGE(message_id=8909*)
    → "As a simple musician that would be taken as biting criticism, but as a restaurant performer, it is the greatest of praises. Thank you very much."
  1: 0x024B [0x23] WAIT_FOR_DIALOG_INTERACTION
  2: 0x024C [0x1D] PRINT_EVENT_MESSAGE(message_id=8910*)
    → "I strive to create music that complements your meal and doesn't distract from your conversation. Please stop by and enjoy the atmosphere again some time."
  3: 0x024F [0x23] WAIT_FOR_DIALOG_INTERACTION
  4: 0x0250 [0x00] END_REQSTACK()
```

### Event 634

#### Metadata

| Field        | Value    |
|--------------|----------|
| Entrypoint   | 0x0251   |
| Data Size    | 51 bytes |
| Instructions | 19       |

```
      00 01 02 03 04 05 06 07  08 09 0A 0B 0C 0D 0E 0F
      -- -- -- -- -- -- -- --  -- -- -- -- -- -- -- --
0250:    86 01 F8 FF FF 7F 1E  F0 FF FF 7F 6F 70 1D 19   ...........op..
0260: 80 23 1D 1A 80 23 1D 1B  80 23 1D 1C 80 23 29 08  .#...#...#...#).
0270: 4F E0 0E 01 11 1D 1D 80  23 29 08 4F E0 0E 01 12  O.......#).O....
0280: 20 00 21 00                                        .!.            
```

#### Opcodes

```
  0: 0x0251 [0x86] EventEntity->Render.Flags3 ^= 0x01
  1: 0x0257 [0x1E] EventEntity looks at LocalPlayer and starts talking
  2: 0x025C [0x6F] WAIT_FRAME_DELAY: Yield until WaitTime reaches zero
  3: 0x025D [0x70] WAIT_ENTITY_RENDER_FLAG: Wait while EventEntity->Render.Flags3 bit 2 is set (cancel turn if not)
  4: 0x025E [0x1D] PRINT_EVENT_MESSAGE(message_id=8911*)
    → "My fair customer, what are your thoughts on our restaurant here?"
  5: 0x0261 [0x23] WAIT_FOR_DIALOG_INTERACTION
  6: 0x0262 [0x1D] PRINT_EVENT_MESSAGE(message_id=8912*)
    → "I'm sorry, I shouldn't have asked that. It's not like I'm the owner of the place or anything like that..."
  7: 0x0265 [0x23] WAIT_FOR_DIALOG_INTERACTION
  8: 0x0266 [0x1D] PRINT_EVENT_MESSAGE(message_id=8913*)
    → "I just love the tastes and atmosphere of this restaurant. I shall never forget the bliss I encountered here in the middle of my long, hard travels."
  9: 0x0269 [0x23] WAIT_FOR_DIALOG_INTERACTION
 10: 0x026A [0x1D] PRINT_EVENT_MESSAGE(message_id=8914*)
    → "After discovering this place, I simply forced the proprietor into allowing me to have a position here. Alas...but then..."
 11: 0x026D [0x23] WAIT_FOR_DIALOG_INTERACTION
 12: 0x026E [0x29] REQ_SET_WAIT(priority=0x08, entity_id=Jatan-Paratan (ID: 17752143/0x010EE04F), tag_num=0x11)
 13: 0x0275 [0x1D] PRINT_EVENT_MESSAGE(message_id=8915*)
    → "...... I'm sorry. I don't know what came over me... Please forget it."
 14: 0x0278 [0x23] WAIT_FOR_DIALOG_INTERACTION
 15: 0x0279 [0x29] REQ_SET_WAIT(priority=0x08, entity_id=Jatan-Paratan (ID: 17752143/0x010EE04F), tag_num=0x12)
 16: 0x0280 [0x20] SET_CLI_EVENT_UC_FLAG: Unlock player control
 17: 0x0282 [0x21] END_EVENT
 18: 0x0283 [0x00] END_REQSTACK()
```

### Event 635

#### Metadata

| Field        | Value    |
|--------------|----------|
| Entrypoint   | 0x0284   |
| Data Size    | 21 bytes |
| Instructions | 9        |

```
      00 01 02 03 04 05 06 07  08 09 0A 0B 0C 0D 0E 0F
      -- -- -- -- -- -- -- --  -- -- -- -- -- -- -- --
0280:             86 01 F8 FF  FF 7F 1E F0 FF FF 7F 6F      ...........o
0290: 70 1D 1E 80 23 20 00 21  00                       p...# .!.       
```

#### Opcodes

```
  0: 0x0284 [0x86] EventEntity->Render.Flags3 ^= 0x01
  1: 0x028A [0x1E] EventEntity looks at LocalPlayer and starts talking
  2: 0x028F [0x6F] WAIT_FRAME_DELAY: Yield until WaitTime reaches zero
  3: 0x0290 [0x70] WAIT_ENTITY_RENDER_FLAG: Wait while EventEntity->Render.Flags3 bit 2 is set (cancel turn if not)
  4: 0x0291 [0x1D] PRINT_EVENT_MESSAGE(message_id=8916*)
    → "...... I'm sorry, I don't know what came over me... Please forget what I said."
  5: 0x0294 [0x23] WAIT_FOR_DIALOG_INTERACTION
  6: 0x0295 [0x20] SET_CLI_EVENT_UC_FLAG: Unlock player control
  7: 0x0297 [0x21] END_EVENT
  8: 0x0298 [0x00] END_REQSTACK()
```

### Event 638

#### Metadata

| Field        | Value     |
|--------------|-----------|
| Entrypoint   | 0x0299    |
| Data Size    | 416 bytes |
| Instructions | 60        |

```
      00 01 02 03 04 05 06 07  08 09 0A 0B 0C 0D 0E 0F
      -- -- -- -- -- -- -- --  -- -- -- -- -- -- -- --
0290:                             20 01 42 46 01 45 1F            .BF.E.
02A0: 80 F0 FF FF 7F F0 FF FF  7F 66 64 6F 31 0E 80 1C  .........fdo1...
02B0: 20 80 75 00 21 80 75 01  38 11 80 29 0B F0 FF FF   .u.!.u.8..)....
02C0: 7F 3E 79 00 F0 FF FF 7F  4F E0 0E 01 1E F0 FF FF  .>y.....O.......
02D0: 7F 6F 70 1C 20 80 45 22  80 F0 FF FF 7F F0 FF FF  .op. .E"........
02E0: 7F 73 30 38 34 0E 80 45  1F 80 F0 FF FF 7F F0 FF  .s084..E........
02F0: FF 7F 66 64 69 31 0E 80  86 01 F8 FF FF 7F 29 0B  ..fdi1........).
0300: 4F E0 0E 01 21 5D 0E 80  1F 80 45 1F 80 F8 FF FF  O...!]....E.....
0310: 7F F8 FF FF 7F 66 64 6F  31 0E 80 1C 23 80 5C 00  .....fdo1...#.\.
0320: 24 80 5C 01 24 80 5D 25  80 0F 80 29 08 4F E0 0E  $.\.$.]%...).O..
0330: 01 11 1C 26 80 45 22 80  F0 FF FF 7F F0 FF FF 7F  ...&.E".........
0340: 73 30 38 35 0E 80 45 1F  80 F8 FF FF 7F F8 FF FF  s085..E.........
0350: 7F 66 64 69 31 0E 80 1C  26 80 29 0B 4F E0 0E 01  .fdi1...&.).O...
0360: 22 29 08 4F E0 0E 01 12  52 22 80 F0 FF FF 7F F0  ").O....R"......
0370: FF FF 7F 73 30 38 35 45  22 80 F0 FF FF 7F F0 FF  ...s085E".......
0380: FF 7F 73 30 38 36 0E 80  32 27 80 1F 00 28 80 29  ..s086..2'...(.)
0390: 80 2A 80 1F 01 29 0B 4F  E0 0E 01 23 45 22 80 F0  .*...).O...#E"..
03A0: FF FF 7F F0 FF FF 7F 73  30 38 37 0E 80 4B 4F E0  .......s087..KO.
03B0: 0E 01 2B 80 6F 76 4F E0  0E 01 29 0B 4F E0 0E 01  ..+.ovO...).O...
03C0: 24 45 22 80 F0 FF FF 7F  F0 FF FF 7F 73 30 38 36  $E".........s086
03D0: 0E 80 4A 4F E0 0E 01 F0  FF FF 7F 6F 76 4F E0 0E  ..JO.......ovO..
03E0: 01 29 0B 4F E0 0E 01 25  5D 0E 80 1F 80 45 1F 80  .).O...%]....E..
03F0: F8 FF FF 7F F8 FF FF 7F  66 64 6F 31 0E 80 1C 23  ........fdo1...#
0400: 80 5C 00 2C 80 5C 01 2C  80 5D 25 80 0F 80 1C 1F  .\.,.\.,.]%.....
0410: 80 46 00 45 1F 80 F8 FF  FF 7F F8 FF FF 7F 66 64  .F.E..........fd
0420: 69 31 0E 80 45 2D 80 F0  FF FF 7F F0 FF FF 7F 71  i1..E-.........q
0430: 73 74 63 0E 80 20 00 21  00                       stc.. .!.       
```

#### Opcodes

```
  0: 0x0299 [0x20] SET_CLI_EVENT_UC_FLAG: Lock player control
  1: 0x029B [0x42] SET_CLI_EVENT_CANCEL_DATA()
  2: 0x029C [0x46] CAMERA_CONTROL: Disable user control
  3: 0x029E [0x45] LOAD_SCHEDULED_TASK: Load scheduler "fdo1" with entities [LocalPlayer, LocalPlayer], work=[200*, 0*]
  4: 0x02AF [0x1C] WAIT(60* ticks)
  5: 0x02B2 [0x75] LOAD_ROOM(Load indoor room, room=384*)
  6: 0x02B6 [0x75] LOAD_ROOM(No action)
  7: 0x02B8 [0x38] SET_CLIENT_EVENT_MODE(mode=3*)
  8: 0x02BB [0x29] REQ_SET_WAIT(priority=0x0B, entity_id=LocalPlayer, tag_num=0x3E)
  9: 0x02C2 [0x79] LocalPlayer looks at Jatan-Paratan (ID: 17752143/0x010EE04F) (Basic look)
 10: 0x02CC [0x1E] EventEntity looks at LocalPlayer and starts talking
 11: 0x02D1 [0x6F] WAIT_FRAME_DELAY: Yield until WaitTime reaches zero
 12: 0x02D2 [0x70] WAIT_ENTITY_RENDER_FLAG: Wait while EventEntity->Render.Flags3 bit 2 is set (cancel turn if not)
 13: 0x02D3 [0x1C] WAIT(60* ticks)
 14: 0x02D6 [0x45] LOAD_SCHEDULED_TASK: Load scheduler "s084" with entities [LocalPlayer, LocalPlayer], work=[138*, 0*]
 15: 0x02E7 [0x45] LOAD_SCHEDULED_TASK: Load scheduler "fdi1" with entities [LocalPlayer, LocalPlayer], work=[200*, 0*]
 16: 0x02F8 [0x86] EventEntity->Render.Flags3 ^= 0x01
 17: 0x02FE [0x29] REQ_SET_WAIT(priority=0x0B, entity_id=Jatan-Paratan (ID: 17752143/0x010EE04F), tag_num=0x21)
 18: 0x0305 [0x5D] SET_MUSIC_VOLUME(volume=0*, fade_time=200*)
 19: 0x030A [0x45] LOAD_SCHEDULED_TASK: Load scheduler "fdo1" with entities [EventEntity, EventEntity], work=[200*, 0*]
 20: 0x031B [0x1C] WAIT(120* ticks)
 21: 0x031E [0x5C] MUSIC_CONTROL: Set Idle (Day) music to song 124*
 22: 0x0322 [0x5C] MUSIC_CONTROL: Set Idle (Night) music to song 124*
 23: 0x0326 [0x5D] SET_MUSIC_VOLUME(volume=127*, fade_time=1*)
 24: 0x032B [0x29] REQ_SET_WAIT(priority=0x08, entity_id=Jatan-Paratan (ID: 17752143/0x010EE04F), tag_num=0x11)
 25: 0x0332 [0x1C] WAIT(100* ticks)
 26: 0x0335 [0x45] LOAD_SCHEDULED_TASK: Load scheduler "s085" with entities [LocalPlayer, LocalPlayer], work=[138*, 0*]
 27: 0x0346 [0x45] LOAD_SCHEDULED_TASK: Load scheduler "fdi1" with entities [EventEntity, EventEntity], work=[200*, 0*]
 28: 0x0357 [0x1C] WAIT(100* ticks)
 29: 0x035A [0x29] REQ_SET_WAIT(priority=0x0B, entity_id=Jatan-Paratan (ID: 17752143/0x010EE04F), tag_num=0x22)
 30: 0x0361 [0x29] REQ_SET_WAIT(priority=0x08, entity_id=Jatan-Paratan (ID: 17752143/0x010EE04F), tag_num=0x12)
 31: 0x0368 [0x52] END_LOAD_SCHEDULER: End scheduler "s085" with entities [LocalPlayer, LocalPlayer], work=138*
 32: 0x0377 [0x45] LOAD_SCHEDULED_TASK: Load scheduler "s086" with entities [LocalPlayer, LocalPlayer], work=[138*, 0*]
 33: 0x0388 [0x32] ExtData[1]->MainSpeed = 13* * 0.1
 34: 0x038B [0x1F] MOVE_ENTITY: EventEntity moves to X=-59.538*, Z=20.738*, Y=-4.105*
 35: 0x0393 [0x1F] MOVE_ENTITY: Update entity position (mode=1)
 36: 0x0395 [0x29] REQ_SET_WAIT(priority=0x0B, entity_id=Jatan-Paratan (ID: 17752143/0x010EE04F), tag_num=0x23)
 37: 0x039C [0x45] LOAD_SCHEDULED_TASK: Load scheduler "s087" with entities [LocalPlayer, LocalPlayer], work=[138*, 0*]
 38: 0x03AD [0x4B] UPDATE_ENTITY_YAW(entity=Jatan-Paratan (ID: 17752143/0x010EE04F), yaw=5.1°*)
 39: 0x03B4 [0x6F] WAIT_FRAME_DELAY: Yield until WaitTime reaches zero
 40: 0x03B5 [0x76] CHECK_ENTITY_RENDER_FLAGS: Wait until Jatan-Paratan (ID: 17752143/0x010EE04F) Render.Flags0 and Render.Flags3 conditions are met
 41: 0x03BA [0x29] REQ_SET_WAIT(priority=0x0B, entity_id=Jatan-Paratan (ID: 17752143/0x010EE04F), tag_num=0x24)
 42: 0x03C1 [0x45] LOAD_SCHEDULED_TASK: Load scheduler "s086" with entities [LocalPlayer, LocalPlayer], work=[138*, 0*]
 43: 0x03D2 [0x4A] Jatan-Paratan (ID: 17752143/0x010EE04F) looks at LocalPlayer
 44: 0x03DB [0x6F] WAIT_FRAME_DELAY: Yield until WaitTime reaches zero
 45: 0x03DC [0x76] CHECK_ENTITY_RENDER_FLAGS: Wait until Jatan-Paratan (ID: 17752143/0x010EE04F) Render.Flags0 and Render.Flags3 conditions are met
 46: 0x03E1 [0x29] REQ_SET_WAIT(priority=0x0B, entity_id=Jatan-Paratan (ID: 17752143/0x010EE04F), tag_num=0x25)
 47: 0x03E8 [0x5D] SET_MUSIC_VOLUME(volume=0*, fade_time=200*)
 48: 0x03ED [0x45] LOAD_SCHEDULED_TASK: Load scheduler "fdo1" with entities [EventEntity, EventEntity], work=[200*, 0*]
 49: 0x03FE [0x1C] WAIT(120* ticks)
 50: 0x0401 [0x5C] MUSIC_CONTROL: Set Idle (Day) music to song 151*
 51: 0x0405 [0x5C] MUSIC_CONTROL: Set Idle (Night) music to song 151*
 52: 0x0409 [0x5D] SET_MUSIC_VOLUME(volume=127*, fade_time=1*)
 53: 0x040E [0x1C] WAIT(200* ticks)
 54: 0x0411 [0x46] CAMERA_CONTROL: Restore default settings
 55: 0x0413 [0x45] LOAD_SCHEDULED_TASK: Load scheduler "fdi1" with entities [EventEntity, EventEntity], work=[200*, 0*]
 56: 0x0424 [0x45] LOAD_SCHEDULED_TASK: Load scheduler "qstc" with entities [LocalPlayer, LocalPlayer], work=[201*, 0*]
 57: 0x0435 [0x20] SET_CLI_EVENT_UC_FLAG: Unlock player control
 58: 0x0437 [0x21] END_EVENT
 59: 0x0438 [0x00] END_REQSTACK()
```

### Event 65535.26

#### Metadata

| Field        | Value    |
|--------------|----------|
| Entrypoint   | 0x0439   |
| Data Size    | 23 bytes |
| Instructions | 7        |

```
      00 01 02 03 04 05 06 07  08 09 0A 0B 0C 0D 0E 0F
      -- -- -- -- -- -- -- --  -- -- -- -- -- -- -- --
0430:                             29 08 4F E0 0E 01 01           ).O....
0440: 1D 2E 80 23 29 08 4F E0  0E 01 02 1D 2F 80 23 00  ...#).O...../.#.
```

#### Opcodes

```
  0: 0x0439 [0x29] REQ_SET_WAIT(priority=0x08, entity_id=Jatan-Paratan (ID: 17752143/0x010EE04F), tag_num=0x01)
  1: 0x0440 [0x1D] PRINT_EVENT_MESSAGE(message_id=8924*)
    → "Ah? What's this...? Where in Vana'diel did you get this...?"
  2: 0x0443 [0x23] WAIT_FOR_DIALOG_INTERACTION
  3: 0x0444 [0x29] REQ_SET_WAIT(priority=0x08, entity_id=Jatan-Paratan (ID: 17752143/0x010EE04F), tag_num=0x02)
  4: 0x044B [0x1D] PRINT_EVENT_MESSAGE(message_id=8925*)
    → "Don't tell me you traveled all the way to Jeuno to meet Ruslan! Why would you do such a thing?"
  5: 0x044E [0x23] WAIT_FOR_DIALOG_INTERACTION
  6: 0x044F [0x00] END_REQSTACK()
```

### Event 65535.27

#### Metadata

| Field        | Value   |
|--------------|---------|
| Entrypoint   | 0x0450  |
| Data Size    | 9 bytes |
| Instructions | 5       |

```
      00 01 02 03 04 05 06 07  08 09 0A 0B 0C 0D 0E 0F
      -- -- -- -- -- -- -- --  -- -- -- -- -- -- -- --
0450: 1D 30 80 23 1D 31 80 23  00                       .0.#.1.#.       
```

#### Opcodes

```
  0: 0x0450 [0x1D] PRINT_EVENT_MESSAGE(message_id=8926*)
    → "What? Yung and Yuli Yaam were worried that I'm not myself of late..."
  1: 0x0453 [0x23] WAIT_FOR_DIALOG_INTERACTION
  2: 0x0454 [0x1D] PRINT_EVENT_MESSAGE(message_id=8927*)
    → "I am sincerely touched by the fact you all care so much about me..."
  3: 0x0457 [0x23] WAIT_FOR_DIALOG_INTERACTION
  4: 0x0458 [0x00] END_REQSTACK()
```

### Event 65535.28

#### Metadata

| Field        | Value   |
|--------------|---------|
| Entrypoint   | 0x0459  |
| Data Size    | 9 bytes |
| Instructions | 5       |

```
      00 01 02 03 04 05 06 07  08 09 0A 0B 0C 0D 0E 0F
      -- -- -- -- -- -- -- --  -- -- -- -- -- -- -- --
0450:                             1D 32 80 23 1D 33 80           .2.#.3.
0460: 23 00                                             #.              
```

#### Opcodes

```
  0: 0x0459 [0x1D] PRINT_EVENT_MESSAGE(message_id=8928*)
    → "Allow me to share my heartfelt feelings with you..."
  1: 0x045C [0x23] WAIT_FOR_DIALOG_INTERACTION
  2: 0x045D [0x1D] PRINT_EVENT_MESSAGE(message_id=8929*)
    → "'Twas a little while ago that Ruslan, an old acquaintance who practiced music with me, came to this very tavern and let me hear of his recent tales."
  3: 0x0460 [0x23] WAIT_FOR_DIALOG_INTERACTION
  4: 0x0461 [0x00] END_REQSTACK()
```

### Event 65535.29

#### Metadata

| Field        | Value    |
|--------------|----------|
| Entrypoint   | 0x0462   |
| Data Size    | 48 bytes |
| Instructions | 14       |

```
      00 01 02 03 04 05 06 07  08 09 0A 0B 0C 0D 0E 0F
      -- -- -- -- -- -- -- --  -- -- -- -- -- -- -- --
0460:       1D 34 80 23 29 08  4F E0 0E 01 0B 1D 35 80    .4.#).O.....5.
0470: 23 29 08 4F E0 0E 01 0C  29 08 4F E0 0E 01 11 1C  #).O....).O.....
0480: 36 80 1D 37 80 23 1D 38  80 23 29 08 4F E0 0E 01  6..7.#.8.#).O...
0490: 12 00                                             ..              
```

#### Opcodes

```
  0: 0x0462 [0x1D] PRINT_EVENT_MESSAGE(message_id=8930*)
    → "He praised my performance greatly, but had no interest in the food of this restaurant."
  1: 0x0465 [0x23] WAIT_FOR_DIALOG_INTERACTION
  2: 0x0466 [0x29] REQ_SET_WAIT(priority=0x08, entity_id=Jatan-Paratan (ID: 17752143/0x010EE04F), tag_num=0x0B)
  3: 0x046D [0x1D] PRINT_EVENT_MESSAGE(message_id=8931*)
    → "Despite sojourning here for several weeks and eating the food here every night, he couldn't remember the slightest thing about the restaurant's cooking."
  4: 0x0470 [0x23] WAIT_FOR_DIALOG_INTERACTION
  5: 0x0471 [0x29] REQ_SET_WAIT(priority=0x08, entity_id=Jatan-Paratan (ID: 17752143/0x010EE04F), tag_num=0x0C)
  6: 0x0478 [0x29] REQ_SET_WAIT(priority=0x08, entity_id=Jatan-Paratan (ID: 17752143/0x010EE04F), tag_num=0x11)
  7: 0x047F [0x1C] WAIT(80* ticks)
  8: 0x0482 [0x1D] PRINT_EVENT_MESSAGE(message_id=8932*)
    → "'Twas then that I realized that my flamboyant performance itself was detracting from the tastes and atmosphere of this tavern."
  9: 0x0485 [0x23] WAIT_FOR_DIALOG_INTERACTION
 10: 0x0486 [0x1D] PRINT_EVENT_MESSAGE(message_id=8933*)
    → "It was like I was repaying the tavern owner's kindness with evil...or biting the hand that feeds me--no, everyone..."
 11: 0x0489 [0x23] WAIT_FOR_DIALOG_INTERACTION
 12: 0x048A [0x29] REQ_SET_WAIT(priority=0x08, entity_id=Jatan-Paratan (ID: 17752143/0x010EE04F), tag_num=0x12)
 13: 0x0491 [0x00] END_REQSTACK()
```

### Event 65535.30

#### Metadata

| Field        | Value    |
|--------------|----------|
| Entrypoint   | 0x0492   |
| Data Size    | 27 bytes |
| Instructions | 9        |

```
      00 01 02 03 04 05 06 07  08 09 0A 0B 0C 0D 0E 0F
      -- -- -- -- -- -- -- --  -- -- -- -- -- -- -- --
0490:       1D 39 80 23 1D 3A  80 23 29 08 4F E0 0E 01    .9.#.:.#).O...
04A0: 0F 1D 3B 80 23 29 08 4F  E0 0E 01 10 00           ..;.#).O.....   
```

#### Opcodes

```
  0: 0x0492 [0x1D] PRINT_EVENT_MESSAGE(message_id=8934*)
    → "And so now I'm searching within myself for a more appropriate sound. Alas, I've been unable to find it yet."
  1: 0x0495 [0x23] WAIT_FOR_DIALOG_INTERACTION
  2: 0x0496 [0x1D] PRINT_EVENT_MESSAGE(message_id=8935*)
    → "I apologize for the trouble I've caused...drawing you into my own personal problems...problems that shouldn't concern one as esteemed as yourself."
  3: 0x0499 [0x23] WAIT_FOR_DIALOG_INTERACTION
  4: 0x049A [0x29] REQ_SET_WAIT(priority=0x08, entity_id=Jatan-Paratan (ID: 17752143/0x010EE04F), tag_num=0x0F)
  5: 0x04A1 [0x1D] PRINT_EVENT_MESSAGE(message_id=8936*)
    → "But, yes indeed, this was once the goal I sought after. I shall gladly accept it from you. However, let me pay you back with this..."
  6: 0x04A4 [0x23] WAIT_FOR_DIALOG_INTERACTION
  7: 0x04A5 [0x29] REQ_SET_WAIT(priority=0x08, entity_id=Jatan-Paratan (ID: 17752143/0x010EE04F), tag_num=0x10)
  8: 0x04AC [0x00] END_REQSTACK()
```

### Event 65535.31

#### Metadata

| Field        | Value   |
|--------------|---------|
| Entrypoint   | 0x04AD  |
| Data Size    | 9 bytes |
| Instructions | 5       |

```
      00 01 02 03 04 05 06 07  08 09 0A 0B 0C 0D 0E 0F
      -- -- -- -- -- -- -- --  -- -- -- -- -- -- -- --
04A0:                                         1D 3C 80               .<.
04B0: 23 1D 3D 80 23 00                                 #.=.#.          
```

#### Opcodes

```
  0: 0x04AD [0x1D] PRINT_EVENT_MESSAGE(message_id=8937*)
    → "That is also a little something I collected while I was first obsessed with music."
  1: 0x04B0 [0x23] WAIT_FOR_DIALOG_INTERACTION
  2: 0x04B1 [0x1D] PRINT_EVENT_MESSAGE(message_id=8938*)
    → "I was going to throw it away, but I suppose if one were to sell it, it would fetch quite a sum. Please take it. I hope it assists you in your travels."
  3: 0x04B4 [0x23] WAIT_FOR_DIALOG_INTERACTION
  4: 0x04B5 [0x00] END_REQSTACK()
```

### Event 639

#### Metadata

| Field        | Value    |
|--------------|----------|
| Entrypoint   | 0x04B6   |
| Data Size    | 33 bytes |
| Instructions | 15       |

```
      00 01 02 03 04 05 06 07  08 09 0A 0B 0C 0D 0E 0F
      -- -- -- -- -- -- -- --  -- -- -- -- -- -- -- --
04B0:                   86 01  F8 FF FF 7F 1E F0 FF FF        ..........
04C0: 7F 6F 70 1D 3E 80 23 1D  3F 80 23 1D 40 80 23 1D  .op.>.#.?.#.@.#.
04D0: 41 80 23 20 00 21 00                              A.# .!.         
```

#### Opcodes

```
  0: 0x04B6 [0x86] EventEntity->Render.Flags3 ^= 0x01
  1: 0x04BC [0x1E] EventEntity looks at LocalPlayer and starts talking
  2: 0x04C1 [0x6F] WAIT_FRAME_DELAY: Yield until WaitTime reaches zero
  3: 0x04C2 [0x70] WAIT_ENTITY_RENDER_FLAG: Wait while EventEntity->Render.Flags3 bit 2 is set (cancel turn if not)
  4: 0x04C3 [0x1D] PRINT_EVENT_MESSAGE(message_id=8939*)
    → "I beg your pardon, but, if you don't mind...could we kindly keep this between you and me, and not bother Yung and Yuli Yaam with my problems?"
  5: 0x04C6 [0x23] WAIT_FOR_DIALOG_INTERACTION
  6: 0x04C7 [0x1D] PRINT_EVENT_MESSAGE(message_id=8940*)
    → "I don't want to worry them any further with my problems. It might affect Yuli's philosophy towards music..."
  7: 0x04CA [0x23] WAIT_FOR_DIALOG_INTERACTION
  8: 0x04CB [0x1D] PRINT_EVENT_MESSAGE(message_id=8941*)
    → "I just love Yuli Yaam's music."
  9: 0x04CE [0x23] WAIT_FOR_DIALOG_INTERACTION
 10: 0x04CF [0x1D] PRINT_EVENT_MESSAGE(message_id=8942*)
    → "Perhaps it is selfish of me, but when I first came here midway through my journeys, I wished both this place and its music would stay the same."
 11: 0x04D2 [0x23] WAIT_FOR_DIALOG_INTERACTION
 12: 0x04D3 [0x20] SET_CLI_EVENT_UC_FLAG: Unlock player control
 13: 0x04D5 [0x21] END_EVENT
 14: 0x04D6 [0x00] END_REQSTACK()
```
