# 17752076 - Mokyokyo

## Common Data

| Field            | Value                     |
|------------------|---------------------------|
| Zone             | Windurst Waters (ID: 238) |
| Block Size       | 8376 bytes                |
| Total Events     | 101                       |
| References Count | 181                       |

## List of Events

| Event ID                   | Entrypoint   |   Size |   Instructions |
|----------------------------|--------------|--------|----------------|
| [65535](#event-65535)      | 0x0000       |      1 |              1 |
| [65535.1](#event-655351)   | 0x0001       |     16 |              2 |
| [65535.2](#event-655352)   | 0x0011       |     22 |              4 |
| [65535.3](#event-655353)   | 0x0027       |     16 |              2 |
| [65535.4](#event-655354)   | 0x0037       |     14 |              2 |
| [65535.5](#event-655355)   | 0x0045       |     16 |              2 |
| [65535.6](#event-655356)   | 0x0055       |     14 |              2 |
| [65535.7](#event-655357)   | 0x0063       |     16 |              2 |
| [65535.8](#event-655358)   | 0x0073       |     14 |              2 |
| [65535.9](#event-655359)   | 0x0081       |     16 |              2 |
| [65535.10](#event-6553510) | 0x0091       |     14 |              2 |
| [65535.11](#event-6553511) | 0x009F       |     16 |              2 |
| [65535.12](#event-6553512) | 0x00AF       |     22 |              4 |
| [65535.13](#event-6553513) | 0x00C5       |     16 |              2 |
| [65535.14](#event-6553514) | 0x00D5       |     14 |              2 |
| [65535.15](#event-6553515) | 0x00E3       |     16 |              2 |
| [65535.16](#event-6553516) | 0x00F3       |     14 |              2 |
| [65535.17](#event-6553517) | 0x0101       |     16 |              2 |
| [65535.18](#event-6553518) | 0x0111       |     14 |              2 |
| [65535.19](#event-6553519) | 0x011F       |     16 |              2 |
| [65535.20](#event-6553520) | 0x012F       |     14 |              2 |
| [65535.21](#event-6553521) | 0x013D       |      9 |              3 |
| [65535.22](#event-6553522) | 0x0146       |     66 |              8 |
| [103](#event-103)          | 0x0188       |     33 |             12 |
| [111](#event-111)          | 0x01A9       |    539 |             96 |
| [65535.23](#event-6553523) | 0x03C4       |     42 |             11 |
| [109](#event-109)          | 0x03EE       |     29 |             10 |
| [118](#event-118)          | 0x040B       |    302 |             46 |
| [117](#event-117)          | 0x0539       |      8 |              2 |
| [65535.24](#event-6553524) | 0x0541       |     87 |             16 |
| [119](#event-119)          | 0x0598       |    135 |             19 |
| [120](#event-120)          | 0x061F       |    117 |             15 |
| [65535.25](#event-6553525) | 0x0694       |     19 |              5 |
| [65535.26](#event-6553526) | 0x06A7       |     23 |              7 |
| [65535.27](#event-6553527) | 0x06BE       |     19 |              5 |
| [65535.28](#event-6553528) | 0x06D1       |     27 |              9 |
| [65535.29](#event-6553529) | 0x06EC       |     30 |              8 |
| [65535.30](#event-6553530) | 0x070A       |     19 |              5 |
| [65535.31](#event-6553531) | 0x071D       |     19 |              5 |
| [65535.32](#event-6553532) | 0x0730       |     23 |              7 |
| [65535.33](#event-6553533) | 0x0747       |     23 |              7 |
| [123](#event-123)          | 0x075E       |     33 |             12 |
| [125](#event-125)          | 0x077F       |     39 |             10 |
| [65535.34](#event-6553534) | 0x07A6       |      5 |              3 |
| [126](#event-126)          | 0x07AB       |      5 |              3 |
| [130](#event-130)          | 0x07B0       |    204 |             31 |
| [65535.35](#event-6553535) | 0x087C       |     23 |              7 |
| [65535.36](#event-6553536) | 0x0893       |     44 |             10 |
| [131](#event-131)          | 0x08BF       |     37 |             14 |
| [135](#event-135)          | 0x08E4       |    285 |             36 |
| [65535.37](#event-6553537) | 0x0A01       |     23 |              7 |
| [65535.38](#event-6553538) | 0x0A18       |     37 |              9 |
| [65535.39](#event-6553539) | 0x0A3D       |     19 |              5 |
| [65535.40](#event-6553540) | 0x0A50       |     23 |              7 |
| [65535.41](#event-6553541) | 0x0A67       |     23 |              7 |
| [136](#event-136)          | 0x0A7E       |     33 |             12 |
| [148](#event-148)          | 0x0A9F       |    191 |             28 |
| [65535.42](#event-6553542) | 0x0B5E       |     63 |             17 |
| [149](#event-149)          | 0x0B9D       |     29 |             10 |
| [155](#event-155)          | 0x0BBA       |    199 |             32 |
| [65535.43](#event-6553543) | 0x0C81       |     37 |              9 |
| [65535.44](#event-6553544) | 0x0CA6       |     19 |              5 |
| [65535.45](#event-6553545) | 0x0CB9       |     23 |              7 |
| [156](#event-156)          | 0x0CD0       |     33 |             12 |
| [176](#event-176)          | 0x0CF1       |    206 |             35 |
| [65535.46](#event-6553546) | 0x0DBF       |     23 |              7 |
| [177](#event-177)          | 0x0DD6       |     33 |             12 |
| [211](#event-211)          | 0x0DF7       |    170 |             28 |
| [65535.47](#event-6553547) | 0x0EA1       |     37 |              9 |
| [65535.48](#event-6553548) | 0x0EC6       |     19 |              5 |
| [215](#event-215)          | 0x0ED9       |     32 |              9 |
| [65535.49](#event-6553549) | 0x0EF9       |      9 |              5 |
| [216](#event-216)          | 0x0F02       |    158 |             29 |
| [217](#event-217)          | 0x0FA0       |     33 |             12 |
| [221](#event-221)          | 0x0FC1       |    130 |             25 |
| [223](#event-223)          | 0x1043       |     37 |             14 |
| [222](#event-222)          | 0x1068       |    126 |             23 |
| [227](#event-227)          | 0x10E6       |    133 |             26 |
| [228](#event-228)          | 0x116B       |     33 |             12 |
| [232](#event-232)          | 0x118C       |     31 |             11 |
| [236](#event-236)          | 0x11AB       |    130 |             25 |
| [237](#event-237)          | 0x122D       |     33 |             12 |
| [241](#event-241)          | 0x124E       |    126 |             23 |
| [242](#event-242)          | 0x12CC       |     33 |             12 |
| [700](#event-700)          | 0x12ED       |    230 |             34 |
| [701](#event-701)          | 0x13D3       |     33 |             12 |
| [705](#event-705)          | 0x13F4       |    349 |             50 |
| [706](#event-706)          | 0x1551       |     47 |             14 |
| [710](#event-710)          | 0x1580       |    265 |             38 |
| [711](#event-711)          | 0x1689       |     33 |             12 |
| [729](#event-729)          | 0x16AA       |    120 |             22 |
| [730](#event-730)          | 0x1722       |     33 |             12 |
| [747](#event-747)          | 0x1743       |    132 |             24 |
| [748](#event-748)          | 0x17C7       |     33 |             12 |
| [763](#event-763)          | 0x17E8       |    285 |             39 |
| [764](#event-764)          | 0x1905       |     33 |             12 |
| [824](#event-824)          | 0x1926       |    274 |             38 |
| [825](#event-825)          | 0x1A38       |     47 |             14 |
| [829](#event-829)          | 0x1A67       |    325 |             43 |
| [830](#event-830)          | 0x1BAC       |     65 |             18 |
| [837](#event-837)          | 0x1BED       |     80 |             23 |

## DAT References (imed_data)

|   Index | Hex Value   |   Dec Value |
|---------|-------------|-------------|
|       0 | 0x0028      |          40 |
|       1 | 0x001E      |          30 |
|       2 | 0x0029      |          41 |
|       3 | 0x002A      |          42 |
|       4 | 0x00C8      |         200 |
|       5 | 0x0000      |           0 |
|       6 | 0x003C      |          60 |
|       7 | 0x008A      |         138 |
|       8 | 0x1D53      |        7507 |
|       9 | 0x1D54      |        7508 |
|      10 | 0x1D5D      |        7517 |
|      11 | 0x1D5E      |        7518 |
|      12 | 0x001F      |          31 |
|      13 | 0x0001      |           1 |
|      14 | 0x0002      |           2 |
|      15 | 0x0003      |           3 |
|      16 | 0x0004      |           4 |
|      17 | 0x0005      |           5 |
|      18 | 0x000A      |          10 |
|      19 | 0x000B      |          11 |
|      20 | 0x000C      |          12 |
|      21 | 0x000E      |          14 |
|      22 | 0x000F      |          15 |
|      23 | 0x0010      |          16 |
|      24 | 0x0011      |          17 |
|      25 | 0x0012      |          18 |
|      26 | 0x0013      |          19 |
|      27 | 0x0014      |          20 |
|      28 | 0x0015      |          21 |
|      29 | 0x0016      |          22 |
|      30 | 0x0017      |          23 |
|      31 | 0x1A5D      |        6749 |
|      32 | 0x1D5C      |        7516 |
|      33 | 0x1D6C      |        7532 |
|      34 | 0x1D73      |        7539 |
|      35 | 0x1D68      |        7528 |
|      36 | 0x1D69      |        7529 |
|      37 | 0x1D6A      |        7530 |
|      38 | 0x1D6B      |        7531 |
|      39 | 0x1D74      |        7540 |
|      40 | 0x1D75      |        7541 |
|      41 | 0x1D76      |        7542 |
|      42 | 0x1D6D      |        7533 |
|      43 | 0x1D6E      |        7534 |
|      44 | 0x1D6F      |        7535 |
|      45 | 0x1D72      |        7538 |
|      46 | 0x1D7C      |        7548 |
|      47 | 0x1D7D      |        7549 |
|      48 | 0x1D7E      |        7550 |
|      49 | 0x1D7F      |        7551 |
|      50 | 0x1D85      |        7557 |
|      51 | 0x1D86      |        7558 |
|      52 | 0x1D89      |        7561 |
|      53 | 0x1D8A      |        7562 |
|      54 | 0x1D92      |        7570 |
|      55 | 0x0008      |           8 |
|      56 | 0x1D90      |        7568 |
|      57 | 0x1D91      |        7569 |
|      58 | 0x1D93      |        7571 |
|      59 | 0x1D94      |        7572 |
|      60 | 0x1D95      |        7573 |
|      61 | 0x1D96      |        7574 |
|      62 | 0x1D97      |        7575 |
|      63 | 0x1DA0      |        7584 |
|      64 | 0x1DA1      |        7585 |
|      65 | 0x1DA2      |        7586 |
|      66 | 0x1DA3      |        7587 |
|      67 | 0x1DA4      |        7588 |
|      68 | 0x1DA5      |        7589 |
|      69 | 0x1DA6      |        7590 |
|      70 | 0x1DA7      |        7591 |
|      71 | 0x1DA8      |        7592 |
|      72 | 0x1DA9      |        7593 |
|      73 | 0x1DAA      |        7594 |
|      74 | 0x00C9      |         201 |
|      75 | 0x1DD1      |        7633 |
|      76 | 0x1DD2      |        7634 |
|      77 | 0x1DD3      |        7635 |
|      78 | 0x1DD4      |        7636 |
|      79 | 0x1DD5      |        7637 |
|      80 | 0x1DE1      |        7649 |
|      81 | 0x1DDE      |        7646 |
|      82 | 0x1DDF      |        7647 |
|      83 | 0x1DE0      |        7648 |
|      84 | 0x1DE2      |        7650 |
|      85 | 0x1DE3      |        7651 |
|      86 | 0x1DE4      |        7652 |
|      87 | 0x1DE5      |        7653 |
|      88 | 0x1E23      |        7715 |
|      89 | 0x1E24      |        7716 |
|      90 | 0x1E26      |        7718 |
|      91 | 0x1E25      |        7717 |
|      92 | 0x1E21      |        7713 |
|      93 | 0x1E22      |        7714 |
|      94 | 0x1E27      |        7719 |
|      95 | 0x1E28      |        7720 |
|      96 | 0x1E71      |        7793 |
|      97 | 0x1E72      |        7794 |
|      98 | 0x1E73      |        7795 |
|      99 | 0x1E79      |        7801 |
|     100 | 0x1E7A      |        7802 |
|     101 | 0x1E7B      |        7803 |
|     102 | 0x1E7C      |        7804 |
|     103 | 0x1E7D      |        7805 |
|     104 | 0x1E7E      |        7806 |
|     105 | 0x1E7F      |        7807 |
|     106 | 0x1E86      |        7814 |
|     107 | 0x1E87      |        7815 |
|     108 | 0x1E88      |        7816 |
|     109 | 0x1E8B      |        7819 |
|     110 | 0x1E8C      |        7820 |
|     111 | 0x1E8D      |        7821 |
|     112 | 0x1E89      |        7817 |
|     113 | 0x1E8A      |        7818 |
|     114 | 0x1E94      |        7828 |
|     115 | 0x0064      |         100 |
|     116 | 0x1E95      |        7829 |
|     117 | 0x1E96      |        7830 |
|     118 | 0x1E97      |        7831 |
|     119 | 0x1E98      |        7832 |
|     120 | 0x1E9F      |        7839 |
|     121 | 0x1EA0      |        7840 |
|     122 | 0x1EA7      |        7847 |
|     123 | 0x1EA8      |        7848 |
|     124 | 0x1EA9      |        7849 |
|     125 | 0x1EAA      |        7850 |
|     126 | 0x1EAB      |        7851 |
|     127 | 0x1EB2      |        7858 |
|     128 | 0x1EB3      |        7859 |
|     129 | 0x1EB4      |        7860 |
|     130 | 0x1EB5      |        7861 |
|     131 | 0x258F      |        9615 |
|     132 | 0x2590      |        9616 |
|     133 | 0x2591      |        9617 |
|     134 | 0x2592      |        9618 |
|     135 | 0x2593      |        9619 |
|     136 | 0x259E      |        9630 |
|     137 | 0x0006      |           6 |
|     138 | 0x259F      |        9631 |
|     139 | 0x25A0      |        9632 |
|     140 | 0x25A1      |        9633 |
|     141 | 0x25A2      |        9634 |
|     142 | 0x25A3      |        9635 |
|     143 | 0x25A4      |        9636 |
|     144 | 0x25AB      |        9643 |
|     145 | 0x25AC      |        9644 |
|     146 | 0x25AD      |        9645 |
|     147 | 0x25AE      |        9646 |
|     148 | 0x25AF      |        9647 |
|     149 | 0x25ED      |        9709 |
|     150 | 0x25EE      |        9710 |
|     151 | 0x25EF      |        9711 |
|     152 | 0x25F0      |        9712 |
|     153 | 0x000D      |          13 |
|     154 | 0x261F      |        9759 |
|     155 | 0x2620      |        9760 |
|     156 | 0x2621      |        9761 |
|     157 | 0x2622      |        9762 |
|     158 | 0x264F      |        9807 |
|     159 | 0x2650      |        9808 |
|     160 | 0x2651      |        9809 |
|     161 | 0x007F      |         127 |
|     162 | 0x2652      |        9810 |
|     163 | 0x2653      |        9811 |
|     164 | 0x2741      |       10049 |
|     165 | 0x2742      |       10050 |
|     166 | 0x2743      |       10051 |
|     167 | 0x2744      |       10052 |
|     168 | 0x2745      |       10053 |
|     169 | 0x2754      |       10068 |
|     170 | 0x2755      |       10069 |
|     171 | 0x2756      |       10070 |
|     172 | 0x2757      |       10071 |
|     173 | 0x2758      |       10072 |
|     174 | 0x2759      |       10073 |
|     175 | 0x275A      |       10074 |
|     176 | 0x2762      |       10082 |
|     177 | 0x2763      |       10083 |
|     178 | 0x0007      |           7 |
|     179 | 0x2764      |       10084 |
|     180 | 0x2765      |       10085 |

## String References

- **6749**: Accept this mission? [Yes./No.]
- **7507**: This is the north gatehouse of Windurst. If you're in need of a map of Windurst, head south to the Port District.
- **7508**: I heard a Mithra lady-wady was selling magic maps near the shops along the wharves there.
- **7516**: You cannot accept more than one mission at a timey-wimey. Please complete your current mission before applying for the next.
- **7517**: I shall now read out the missions you are able to receive...
- **7518**: Which mission will you accept? [The Horutoto Ruins Experiment./The Heart of the Matter./The Price of Peace./Lost for Words./A Testing Time./The Three Kingdoms./Mission 2-3-1A./Mission 2-3-1B./Mission 2-3-2A./Mission 2-3-2B./To Each His Own Right./Written in the Stars./A New Journey./Magicite./The Final Seal./The Shadow Awaits./Full Moon Fountain./Saintly Invitation./The Sixth Ministry./Awakening of the Gods./Vain./The Jester Who'd Be King./Doll of the Dead./Moon Reading./Dummy11./Dummy12./Dummy13./Dummy14./Dummy15./Dummy16./Dummy17./Decline mission.]
- **7528**: Hello there. Welcome to the North Winds.
- **7529**: Have you checked out the rest of Windurst, yet? There are several gatehouses spread all over this city-wity.
- **7530**: This is the north gatehouse. Our group that gathers here at Odin's Gate goes by the name of the "North Winds."
- **7531**: Huh? You don't know about gatehouses? Well, you're going to find the going tough if you don't learn soon. Want me to explainy-wainy...?
- **7532**: Hear the explanation? [Yes, pleasey-weasey./No, thanky-hanky.]
- **7533**: The gatehouses are meeting and resting points for us guards who protect Windurst.
- **7534**: They are also the places where missions from the Federation of Windurst are received and allocated to people.
- **7535**: When you receive a mission and successfully complete the task it involves, you will be awarded rank points.
- **7538**: So how about it? Are you interested in serving your country? We really recommend you try them outy-wouty.
- **7539**: Receive a mission? [Accept./Decline.]
- **7540**: Don't need to hear the explanation, huh? Oh, so you consider yourself a scholar-wolar or something? Well we'll see about thatty-watty.
- **7541**: So how about it then? Try your hand out at a mission?
- **7542**: You're a citizen of Windurst, so you can receive missions here.
- **7548**: I guess there's no rushy-wushy. You'll be better prepared to complete your missions the more familiar you are with Windurst.
- **7549**: Come back when you feel ready-weady. We'll be waiting for you.
- **7550**: Oh my, oh why...? Well, that took the wind out of our sails...
- **7551**: I suppose you only just arrived in Windurst and want to see more of the area, so it's understandable. Come back when you're ready-weady.
- **7557**: The Minister of the Orastery will tell you what the mission entails.
- **7558**: Now that you mention it, there's been an awful lot of these experiments going on lately. What is the Orastery up to this time?
- **7561**: Good to see you made it backy-wacky. Looks like you did well for your first task. We'll allocate you rank points according to our evaluation of your mission.
- **7562**: We look forward to you assisting us with our next task.
- **7568**: Your previous mission was the Orastery's magic experiment, right? Well then, this next tasky-wasky should be a piece of cake.
- **7569**: The Manustery is currently looking for an adventurer to help them in Cardian creation. Do you accept this mission?
- **7570**: Accept this mission? [Accept./Decline.]
- **7571**: Ask the staff at the Cardian workshop in the Manustery for the details of this mission.
- **7572**: Huh? You don't know where the Manustery is? Would you understand if I said it's near the round in Windurst Woods, the district where all those Mithra live?
- **7573**: The Manustery's Cardian workshop is southeast of here, in Windurst Woods.
- **7574**: To get to Windurst Woods, you have to pass through either Windurst Walls to the east, or Port Windurst to the south.
- **7575**: It's a long way to walk, but it's a good chance to get to know our country. Check your map to find the way, then consider it a leisurely strolly-wolly.
- **7584**: Have you become comfortable with performing missions yet?
- **7585**: Today, I'm thinking about asking you to do a very-wery important mission.
- **7586**: Your destination will be Giddeus. It's where the Yagudo beastmen dwell, on the other side of West Sarutabaruta.
- **7587**: Do you know much about the Yagudo? Windurst fought them in the war twenty years ago, but we currently maintain amicable relations.
- **7588**: As a sign of our friendship, we provide them with food offerings. That about sums up your mission-wission.
- **7589**: The Rhinostery prepares the food offerings. You can pick them up at the biological laboratory here at the south side of Windurst Waters.
- **7590**: Once you have received the food offerings from the researchers there, you should head straight to Giddeus.
- **7591**: I don't want you to get worked up about it, but this mission could affect the future of Windurst. It's that important!
- **7592**: Please be extremely careful!
- **7593**: First, head to the Rhinostery's biological laboratory here in the south of Windurst Waters.
- **7594**: Once you have received the food offerings from the researchers there, go straight to the food offering altars in Giddeus. Exercise the utmost caution-waution!
- **7633**: Well done. Relieved to see you made it back in one piecey-wiecey.
- **7634**: And congratulations are in order! You have successfully completed three missions, and have received enough rank points to go up in rank.
- **7635**: Now that you made rank two, you can participate in conquests. To find out more about conquests, ask one of the conquest guards.
- **7636**: You need to gain rank points by participating in conquests before you can receive any further missions.
- **7637**: Let's keep working together for the sake of Windurst.
- **7646**: Hmm... A-ha! You would be suitable for this mission...
- **7647**: I heard word that the Optistery's Library of Magic is after a "highly capable adventurer." I don't know what it entails, but they say it's urgent.
- **7648**: How about it then? Do you accept this mission?
- **7649**: Accept Mission? [Accept./Decline.]
- **7650**: Very well... Go meet the Minister of the Optistery.
- **7651**: The Library of Magic is straight up the road there. The road runs between the two wings of the Optistery building.
- **7652**: If you head straight back up the road there, you'll pass through the archway of a two-story building that opens out into the Huntsman's Court.
- **7653**: That's the Optistery. The Library of Magic is housed there. The Optistery stores a vast collection of books and scrolls that it lends out to the general public.
- **7713**: An interesting mission has just come in from the Aurastery's School of Magic.
- **7714**: What do you think? Do you accept this mission?
- **7715**: Accept Mission? [Accept./Decline.]
- **7716**: This is the first time you've accepted a mission for the Aurastery, right? The School of Magic run by the Aurastery is here in the eastern side of Windurst Waters.
- **7717**: The principal of the school is away as usual, so ask the teachers as to what your task is.
- **7718**: You've been to the Aurastery before, right? The School of Magic run by the Aurastery is here on the east side of Windurst Waters.
- **7719**: The School of Magic run by the Aurastery is here on the east side of Windurst Waters.
- **7720**: To find out what the mission is about, ask the teachers in the staff room there.
- **7793**: Thank goodness-woodness you passed by. A very serious mission has been issued from Heavens Tower.
- **7794**: This is a large-scale mission suitable only for an experienced adventurer such as you.
- **7795**: The details will be explained at Heavens Tower, so hurry-wurry over to Windurst Walls.
- **7801**: This current mission can probably only be accomplished by a person accustomed to adventure. Do your besty-westy for Windurst!
- **7802**: Hurry-wurry to Windurst Walls. The secretary of Heavens Tower will explain what you need to know.
- **7803**: It gives food for thought... You too have finally become an able enough adventurer to be hailed by Heavens Tower.
- **7804**: Huh? But the one who summoned you was Heavens Tower's guardian of law and justice, Semih Lafihna!?
- **7805**: Uh-oh? What trouble did you get into? Don't tell me you're being sent to that scary-wary prison!
- **7806**: Once that Sibyl Guard fixes her eyes on you, trying to deceive her is a waste of timey-wimey.
- **7807**: Semih Lafihna is an especially close friend of the Star Sibyl. You better get a move on to Heavens Tower, or you'll be thrown in the Horutoto Ruins' jaily-waily!
- **7814**: Last time, Semih Lafihna called you to Heavens Tower. This time, it is the head lady-in-waiting, Zubaba, who has issued us with a writ of summons to give to you.
- **7815**: I can't even imagine what kind of mission-wission awaits you.
- **7816**: I just pray that they don't push some kind of completely unreasonable demand onto you. Anyway, you'd better hurry-wurry over to Heavens Tower again.
- **7817**: Zubaba, the Star Sibyl's head lady-in-waiting, has issued another writ of summons for us to pass on to you.
- **7818**: Sounds like she means business-wusiness. You'd better get a move on to Heavens Tower-wower!
- **7819**: If I had to pick one word to describe Zubaba, head lady-in-waiting, it would be...
- **7820**: ...naggy-waggy-craggy-daggy- shaggy-scraggy-baggy-haggy!!!
- **7821**: ...So, ahem, I strongly suggest you rush to Heavens Tower.
- **7828**: Attention!!!
- **7829**: We have a formal writ of summons from Heavens Tower for you. It is officially and formally a mission of the utmost importance.
- **7830**: A high and noble person awaits you there. Drop everything and hurry on over to Heavens Tower.
- **7831**: Of all the official documents issued by Heavens Tower, the ones with a special star emblem on them are top-class super-important papers! And this one is in the handwriting of the Star Sibyl herself!
- **7832**: Gee... I wish I could get invitations to Heavens Tower from the Star Sibyl like this one.
- **7839**: Keep your composure now, <Player>. An emergency order has been issued to the guards and a select few adventurers loyal to Windurst.
- **7840**: The issuance of missions has been stopped pending-wending instructions from Heavens Tower. Please stand by till then.
- **7847**: This is an urgent-wurgent mission from Heavens Tower!
- **7848**: According to the mission instructions, you are to head to the cursed Northlands...or, more precisely, to the ruins of Fei'Yin, northeast of the Beaucedine Glacier.
- **7849**: You are to receive further details and a seal at Heavens Tower, so please head there right away.
- **7850**: According to the mission instructions, you are to head to the cursed Northlands...or, more precisely, to the ruins of Fei'Yin, northeast of the Beaucedine Glacier.
- **7851**: You are to receive further details and a seal at Heavens Tower. If you don't have the seal yet, you should go get it from the Great Star Tree before you proceed.
- **7858**: <Player>, we've received another star emblem letter addressed to you from Heavens Tower. You know the drill, right? Head back to Heavens Tower immediately.
- **7859**: Do your best to see your assigned task through. We are rooting-wooting for you!
- **7860**: <Player>, another star emblem letter from Heavens Tower has arrived for you. You know the drill, right? Please head to Heavens Tower again.
- **7861**: Do your best to see your assigned task through. We are rooting-wooting for you!
- **9615**: <Player>, have you ever met with Minister Ajido-Marujido? He has issued orders for you to proceed to the Orastery with all due haste.
- **9616**: It's surprising that he asked for you personally, but even more unusual is the fact that the minister issued a mission in the first place.
- **9617**: I hear that he hates this kind of bother-wothersome procedure... Whatever it is, it must be importantaru.
- **9618**: This is a mission from Minister Ajido-Marujido. Please hurry to the Orastery.
- **9619**: You should really get to the Orastery while the minister is still in Windurst. He tends to disappear without so much as a ta-taru.
- **9630**: Have you heard? Minister Ajido-Marujido has finally incurred the wrath of the Star Sibyl and was thrown into the Dark Dungeon-wungeon!
- **9631**: It's a frightening place. Lawbreakers sent to the Dark Dungeon are said to go loopy-woopy from fear.
- **9632**: ...But enough about that. The Star Sibyl has sent a summons for you to appear at Heavens Tower.
- **9633**: This is probably none of my business-wusiness, but your previous mission was issued by Minister Ajido-Marujido, wasn't it?
- **9634**: ......? Could that mean that you too will be...?
- **9635**: Minister Ajido-Marujido's imprisonment has been kept a secret-wecret from the general public. If this news were to reach the ears of a foreign spy or a beastman, there are those who would take advantage of the situation to stage a coup.
- **9636**: ...But enough of my idle-widle speculations. The Star Sibyl awaits your presence at Heavens Tower.
- **9643**: It was pretty tensey-wense for a while there, but thank the Goddess the Star Sibyl has forgiven you.
- **9644**: And now you have another mission-wission from the Optistery. Something about giving a hand with the ministry's spring cleaning...
- **9645**: Why would they ask a rank seven adventurer to help with something like that? They must want you to handle some spooky-wooky tomes or gruesome grimoires.
- **9646**: Your mission from the Optistery is a request to help with the ministry's spring cleaning...
- **9647**: Why would they ask a rank seven adventurer to help with something like that? They must want you to handle some troublesome tomes or gruesome grimoires.
- **9709**: A mission has been issued by the Rhinostery. They must have been in a hurry-wurry, as there's not much written here.
- **9710**: Please talk to Leepe-Hoppe on the second floor of the Rhinostery for the details.
- **9711**: A little while ago, I happened to see Minister Rukususu of the Rhinostery go past.
- **9712**: I wonder if her homecoming means she made some important-wortant discovery? I'd really like to know what this mission-wission is all about.
- **9759**: Congratulations on reaching rank eight. You're steadily racking up the missions, huh? The other adventurers mustaru be in absolute awe when you walk past.
- **9760**: Your nextaru mission is one from the Aurastery. Please get the details from the instructors at the School of Magic.
- **9761**: This mission from the Aurastery is totally tip-top secret. I can't imagine what it could be...
- **9762**: ...Nope, drawing a completaru blank. The Aurastery is supposed to be the most peaceful of the five ministries, though, so how bad could it be?
- **9807**: ...There's a mission here from Minister Apururu of the Manustery.
- **9808**: This mission hasn'taru actually been authorized by the Sibyl Guards. I've talked it over with the other gatehouse guards, and this is what we've decided...
- **9809**: <Player>, please do everything in your power to help Minister Apururu.
- **9810**: Please go to the Manustery. Minister Apururu is waiting for you.
- **9811**: I also ask that you keep this mission a secretaru, especially from the Sibyl Guards.
- **10049**: <Player>, we have another mission-wission for you from Minister Apururu. Please hurry on over to the Manustery.
- **10050**: It seems there's been a change in Minister Ajido-Marujido's condition. I do hope it's a change for the better...
- **10051**: Ah, before I forgetaru, Semih Lafihna is back in town. Please don't let any details of this mission reach those twitchy-witchy ears of hers.
- **10052**: There's been a change in Minister Ajido-Marujido's condition. Minister Apururu has requested your presence at the Manustery.
- **10053**: Semih Lafihna is back in town, so be careful to stay outaru of her way. She looked terribly-werribly tired though, and is probably resting up in Heavens Tower...
- **10068**: A summons has been issued from Heavens Tower. Hmm? There doesn't seem to be an emblem from the Star Sibyl here anywhere... I wonder who this mission-wission is from.
- **10069**: In any eventaru, this mission appears to be Yagudo-related. It says the Yagudo have proposed a revision of the peace treaty.
- **10070**: Semih Lafihna mustaru be busy in her dealings with the Yagudo.
- **10071**: I mean, I really thoughtaru we guards would be severely-werely punished over that business with Minister Ajido-Marujido, but so far, not a word has been said.
- **10072**: A summons has been issued for you from Heavens Tower. The mission-wission concerns a proposal from the Yagudo to revise the peace treaty.
- **10073**: ...This makes me all queasy-weasy for some reason. Miss Apururu hasn't been arrested over the Dark Dungeon jailbreak, and we guards haven't been subjectarued to any disciplinary action.
- **10074**: I guess all that hullabaloo was cleared up at the same time Minister Ajido-Marujido was grantarued pardon by the Star Sibyl.
- **10082**: <Player>... First, allow me to apologize. I hadn'taru realized what an enormous responsibility you had taken upon yourself.
- **10083**: Secondly, you have my gratitude. Thanks to you, Windurst has regained two hugey-wuge sources of power.
- **10084**: One of those is, of course, the protection of the Stars and the Moon. We mages can sense the return of its inexplicable energy.
- **10085**: The other is the trust that has been rekindled between the Mithra and the Tarutaru. This is a treasure that mustaru never be lost to us.

## Events

### Event 65535

#### Metadata

| Field        | Value   |
|--------------|---------|
| Entrypoint   | 0x0000  |
| Data Size    | 1 bytes |
| Instructions | 1       |

```
      00 01 02 03 04 05 06 07  08 09 0A 0B 0C 0D 0E 0F
      -- -- -- -- -- -- -- --  -- -- -- -- -- -- -- --
0000: 00                                                .               
```

#### Opcodes

```
  0: 0x0000 [0x00] END_REQSTACK()
```

### Event 65535.1

#### Metadata

| Field        | Value    |
|--------------|----------|
| Entrypoint   | 0x0001   |
| Data Size    | 16 bytes |
| Instructions | 2        |

```
      00 01 02 03 04 05 06 07  08 09 0A 0B 0C 0D 0E 0F
      -- -- -- -- -- -- -- --  -- -- -- -- -- -- -- --
0000:    66 00 80 F8 FF FF 7F  F8 FF FF 7F 74 6C 6B 30   f..........tlk0
0010: 00                                                .               
```

#### Opcodes

```
  0: 0x0001 [0x66] LOAD_EXT_SCHEDULER_MAIN: Load scheduler "tlk0" with entities [EventEntity, EventEntity], work=40*
  1: 0x0010 [0x00] END_REQSTACK()
```

### Event 65535.2

#### Metadata

| Field        | Value    |
|--------------|----------|
| Entrypoint   | 0x0011   |
| Data Size    | 22 bytes |
| Instructions | 4        |

```
      00 01 02 03 04 05 06 07  08 09 0A 0B 0C 0D 0E 0F
      -- -- -- -- -- -- -- --  -- -- -- -- -- -- -- --
0010:    53 F8 FF FF 7F F8 FF  FF 7F 74 6C 6B 30 5E 69   S........tlk0^i
0020: 64 6C 30 1C 01 80 00                              dl0....         
```

#### Opcodes

```
  0: 0x0011 [0x53] WAIT_SCHEDULER_TASK: Wait for scheduler "tlk0" with entities [EventEntity, EventEntity]
  1: 0x001E [0x5E] EventEntity goes idle (kills current action) (animation: "idl0")
  2: 0x0023 [0x1C] WAIT(30* ticks)
  3: 0x0026 [0x00] END_REQSTACK()
```

### Event 65535.3

#### Metadata

| Field        | Value    |
|--------------|----------|
| Entrypoint   | 0x0027   |
| Data Size    | 16 bytes |
| Instructions | 2        |

```
      00 01 02 03 04 05 06 07  08 09 0A 0B 0C 0D 0E 0F
      -- -- -- -- -- -- -- --  -- -- -- -- -- -- -- --
0020:                      66  00 80 F8 FF FF 7F F8 FF         f........
0030: FF 7F 74 68 6B 31 00                              ..thk1.         
```

#### Opcodes

```
  0: 0x0027 [0x66] LOAD_EXT_SCHEDULER_MAIN: Load scheduler "thk1" with entities [EventEntity, EventEntity], work=40*
  1: 0x0036 [0x00] END_REQSTACK()
```

### Event 65535.4

#### Metadata

| Field        | Value    |
|--------------|----------|
| Entrypoint   | 0x0037   |
| Data Size    | 14 bytes |
| Instructions | 2        |

```
      00 01 02 03 04 05 06 07  08 09 0A 0B 0C 0D 0E 0F
      -- -- -- -- -- -- -- --  -- -- -- -- -- -- -- --
0030:                      53  F8 FF FF 7F F8 FF FF 7F         S........
0040: 74 68 6B 31 00                                    thk1.           
```

#### Opcodes

```
  0: 0x0037 [0x53] WAIT_SCHEDULER_TASK: Wait for scheduler "thk1" with entities [EventEntity, EventEntity]
  1: 0x0044 [0x00] END_REQSTACK()
```

### Event 65535.5

#### Metadata

| Field        | Value    |
|--------------|----------|
| Entrypoint   | 0x0045   |
| Data Size    | 16 bytes |
| Instructions | 2        |

```
      00 01 02 03 04 05 06 07  08 09 0A 0B 0C 0D 0E 0F
      -- -- -- -- -- -- -- --  -- -- -- -- -- -- -- --
0040:                66 00 80  F8 FF FF 7F F8 FF FF 7F       f..........
0050: 74 68 6B 32 00                                    thk2.           
```

#### Opcodes

```
  0: 0x0045 [0x66] LOAD_EXT_SCHEDULER_MAIN: Load scheduler "thk2" with entities [EventEntity, EventEntity], work=40*
  1: 0x0054 [0x00] END_REQSTACK()
```

### Event 65535.6

#### Metadata

| Field        | Value    |
|--------------|----------|
| Entrypoint   | 0x0055   |
| Data Size    | 14 bytes |
| Instructions | 2        |

```
      00 01 02 03 04 05 06 07  08 09 0A 0B 0C 0D 0E 0F
      -- -- -- -- -- -- -- --  -- -- -- -- -- -- -- --
0050:                53 F8 FF  FF 7F F8 FF FF 7F 74 68       S........th
0060: 6B 32 00                                          k2.             
```

#### Opcodes

```
  0: 0x0055 [0x53] WAIT_SCHEDULER_TASK: Wait for scheduler "thk2" with entities [EventEntity, EventEntity]
  1: 0x0062 [0x00] END_REQSTACK()
```

### Event 65535.7

#### Metadata

| Field        | Value    |
|--------------|----------|
| Entrypoint   | 0x0063   |
| Data Size    | 16 bytes |
| Instructions | 2        |

```
      00 01 02 03 04 05 06 07  08 09 0A 0B 0C 0D 0E 0F
      -- -- -- -- -- -- -- --  -- -- -- -- -- -- -- --
0060:          66 00 80 F8 FF  FF 7F F8 FF FF 7F 77 61     f..........wa
0070: 76 30 00                                          v0.             
```

#### Opcodes

```
  0: 0x0063 [0x66] LOAD_EXT_SCHEDULER_MAIN: Load scheduler "wav0" with entities [EventEntity, EventEntity], work=40*
  1: 0x0072 [0x00] END_REQSTACK()
```

### Event 65535.8

#### Metadata

| Field        | Value    |
|--------------|----------|
| Entrypoint   | 0x0073   |
| Data Size    | 14 bytes |
| Instructions | 2        |

```
      00 01 02 03 04 05 06 07  08 09 0A 0B 0C 0D 0E 0F
      -- -- -- -- -- -- -- --  -- -- -- -- -- -- -- --
0070:          53 F8 FF FF 7F  F8 FF FF 7F 77 61 76 30     S........wav0
0080: 00                                                .               
```

#### Opcodes

```
  0: 0x0073 [0x53] WAIT_SCHEDULER_TASK: Wait for scheduler "wav0" with entities [EventEntity, EventEntity]
  1: 0x0080 [0x00] END_REQSTACK()
```

### Event 65535.9

#### Metadata

| Field        | Value    |
|--------------|----------|
| Entrypoint   | 0x0081   |
| Data Size    | 16 bytes |
| Instructions | 2        |

```
      00 01 02 03 04 05 06 07  08 09 0A 0B 0C 0D 0E 0F
      -- -- -- -- -- -- -- --  -- -- -- -- -- -- -- --
0080:    66 02 80 F8 FF FF 7F  F8 FF FF 7F 73 68 6B 30   f..........shk0
0090: 00                                                .               
```

#### Opcodes

```
  0: 0x0081 [0x66] LOAD_EXT_SCHEDULER_MAIN: Load scheduler "shk0" with entities [EventEntity, EventEntity], work=41*
  1: 0x0090 [0x00] END_REQSTACK()
```

### Event 65535.10

#### Metadata

| Field        | Value    |
|--------------|----------|
| Entrypoint   | 0x0091   |
| Data Size    | 14 bytes |
| Instructions | 2        |

```
      00 01 02 03 04 05 06 07  08 09 0A 0B 0C 0D 0E 0F
      -- -- -- -- -- -- -- --  -- -- -- -- -- -- -- --
0090:    53 F8 FF FF 7F F8 FF  FF 7F 73 68 6B 30 00      S........shk0. 
```

#### Opcodes

```
  0: 0x0091 [0x53] WAIT_SCHEDULER_TASK: Wait for scheduler "shk0" with entities [EventEntity, EventEntity]
  1: 0x009E [0x00] END_REQSTACK()
```

### Event 65535.11

#### Metadata

| Field        | Value    |
|--------------|----------|
| Entrypoint   | 0x009F   |
| Data Size    | 16 bytes |
| Instructions | 2        |

```
      00 01 02 03 04 05 06 07  08 09 0A 0B 0C 0D 0E 0F
      -- -- -- -- -- -- -- --  -- -- -- -- -- -- -- --
0090:                                               66                 f
00A0: 03 80 F8 FF FF 7F F8 FF  FF 7F 62 69 6B 30 00     ..........bik0. 
```

#### Opcodes

```
  0: 0x009F [0x66] LOAD_EXT_SCHEDULER_MAIN: Load scheduler "bik0" with entities [EventEntity, EventEntity], work=42*
  1: 0x00AE [0x00] END_REQSTACK()
```

### Event 65535.12

#### Metadata

| Field        | Value    |
|--------------|----------|
| Entrypoint   | 0x00AF   |
| Data Size    | 22 bytes |
| Instructions | 4        |

```
      00 01 02 03 04 05 06 07  08 09 0A 0B 0C 0D 0E 0F
      -- -- -- -- -- -- -- --  -- -- -- -- -- -- -- --
00A0:                                               53                 S
00B0: F8 FF FF 7F F8 FF FF 7F  62 69 6B 30 5E 69 64 6C  ........bik0^idl
00C0: 30 1C 01 80 00                                    0....           
```

#### Opcodes

```
  0: 0x00AF [0x53] WAIT_SCHEDULER_TASK: Wait for scheduler "bik0" with entities [EventEntity, EventEntity]
  1: 0x00BC [0x5E] EventEntity goes idle (kills current action) (animation: "idl0")
  2: 0x00C1 [0x1C] WAIT(30* ticks)
  3: 0x00C4 [0x00] END_REQSTACK()
```

### Event 65535.13

#### Metadata

| Field        | Value    |
|--------------|----------|
| Entrypoint   | 0x00C5   |
| Data Size    | 16 bytes |
| Instructions | 2        |

```
      00 01 02 03 04 05 06 07  08 09 0A 0B 0C 0D 0E 0F
      -- -- -- -- -- -- -- --  -- -- -- -- -- -- -- --
00C0:                66 00 80  F8 FF FF 7F F8 FF FF 7F       f..........
00D0: 73 79 75 30 00                                    syu0.           
```

#### Opcodes

```
  0: 0x00C5 [0x66] LOAD_EXT_SCHEDULER_MAIN: Load scheduler "syu0" with entities [EventEntity, EventEntity], work=40*
  1: 0x00D4 [0x00] END_REQSTACK()
```

### Event 65535.14

#### Metadata

| Field        | Value    |
|--------------|----------|
| Entrypoint   | 0x00D5   |
| Data Size    | 14 bytes |
| Instructions | 2        |

```
      00 01 02 03 04 05 06 07  08 09 0A 0B 0C 0D 0E 0F
      -- -- -- -- -- -- -- --  -- -- -- -- -- -- -- --
00D0:                53 F8 FF  FF 7F F8 FF FF 7F 73 79       S........sy
00E0: 75 30 00                                          u0.             
```

#### Opcodes

```
  0: 0x00D5 [0x53] WAIT_SCHEDULER_TASK: Wait for scheduler "syu0" with entities [EventEntity, EventEntity]
  1: 0x00E2 [0x00] END_REQSTACK()
```

### Event 65535.15

#### Metadata

| Field        | Value    |
|--------------|----------|
| Entrypoint   | 0x00E3   |
| Data Size    | 16 bytes |
| Instructions | 2        |

```
      00 01 02 03 04 05 06 07  08 09 0A 0B 0C 0D 0E 0F
      -- -- -- -- -- -- -- --  -- -- -- -- -- -- -- --
00E0:          66 00 80 F8 FF  FF 7F F8 FF FF 7F 69 72     f..........ir
00F0: 6F 30 00                                          o0.             
```

#### Opcodes

```
  0: 0x00E3 [0x66] LOAD_EXT_SCHEDULER_MAIN: Load scheduler "iro0" with entities [EventEntity, EventEntity], work=40*
  1: 0x00F2 [0x00] END_REQSTACK()
```

### Event 65535.16

#### Metadata

| Field        | Value    |
|--------------|----------|
| Entrypoint   | 0x00F3   |
| Data Size    | 14 bytes |
| Instructions | 2        |

```
      00 01 02 03 04 05 06 07  08 09 0A 0B 0C 0D 0E 0F
      -- -- -- -- -- -- -- --  -- -- -- -- -- -- -- --
00F0:          53 F8 FF FF 7F  F8 FF FF 7F 69 72 6F 30     S........iro0
0100: 00                                                .               
```

#### Opcodes

```
  0: 0x00F3 [0x53] WAIT_SCHEDULER_TASK: Wait for scheduler "iro0" with entities [EventEntity, EventEntity]
  1: 0x0100 [0x00] END_REQSTACK()
```

### Event 65535.17

#### Metadata

| Field        | Value    |
|--------------|----------|
| Entrypoint   | 0x0101   |
| Data Size    | 16 bytes |
| Instructions | 2        |

```
      00 01 02 03 04 05 06 07  08 09 0A 0B 0C 0D 0E 0F
      -- -- -- -- -- -- -- --  -- -- -- -- -- -- -- --
0100:    66 00 80 F8 FF FF 7F  F8 FF FF 7F 70 6F 69 30   f..........poi0
0110: 00                                                .               
```

#### Opcodes

```
  0: 0x0101 [0x66] LOAD_EXT_SCHEDULER_MAIN: Load scheduler "poi0" with entities [EventEntity, EventEntity], work=40*
  1: 0x0110 [0x00] END_REQSTACK()
```

### Event 65535.18

#### Metadata

| Field        | Value    |
|--------------|----------|
| Entrypoint   | 0x0111   |
| Data Size    | 14 bytes |
| Instructions | 2        |

```
      00 01 02 03 04 05 06 07  08 09 0A 0B 0C 0D 0E 0F
      -- -- -- -- -- -- -- --  -- -- -- -- -- -- -- --
0110:    53 F8 FF FF 7F F8 FF  FF 7F 70 6F 69 30 00      S........poi0. 
```

#### Opcodes

```
  0: 0x0111 [0x53] WAIT_SCHEDULER_TASK: Wait for scheduler "poi0" with entities [EventEntity, EventEntity]
  1: 0x011E [0x00] END_REQSTACK()
```

### Event 65535.19

#### Metadata

| Field        | Value    |
|--------------|----------|
| Entrypoint   | 0x011F   |
| Data Size    | 16 bytes |
| Instructions | 2        |

```
      00 01 02 03 04 05 06 07  08 09 0A 0B 0C 0D 0E 0F
      -- -- -- -- -- -- -- --  -- -- -- -- -- -- -- --
0110:                                               66                 f
0120: 00 80 F8 FF FF 7F F8 FF  FF 7F 64 69 73 30 00     ..........dis0. 
```

#### Opcodes

```
  0: 0x011F [0x66] LOAD_EXT_SCHEDULER_MAIN: Load scheduler "dis0" with entities [EventEntity, EventEntity], work=40*
  1: 0x012E [0x00] END_REQSTACK()
```

### Event 65535.20

#### Metadata

| Field        | Value    |
|--------------|----------|
| Entrypoint   | 0x012F   |
| Data Size    | 14 bytes |
| Instructions | 2        |

```
      00 01 02 03 04 05 06 07  08 09 0A 0B 0C 0D 0E 0F
      -- -- -- -- -- -- -- --  -- -- -- -- -- -- -- --
0120:                                               53                 S
0130: F8 FF FF 7F F8 FF FF 7F  64 69 73 30 00           ........dis0.   
```

#### Opcodes

```
  0: 0x012F [0x53] WAIT_SCHEDULER_TASK: Wait for scheduler "dis0" with entities [EventEntity, EventEntity]
  1: 0x013C [0x00] END_REQSTACK()
```

### Event 65535.21

#### Metadata

| Field        | Value   |
|--------------|---------|
| Entrypoint   | 0x013D  |
| Data Size    | 9 bytes |
| Instructions | 3       |

```
      00 01 02 03 04 05 06 07  08 09 0A 0B 0C 0D 0E 0F
      -- -- -- -- -- -- -- --  -- -- -- -- -- -- -- --
0130:                                         5E 69 64               ^id
0140: 6C 30 1C 01 80 00                                 l0....          
```

#### Opcodes

```
  0: 0x013D [0x5E] EventEntity goes idle (kills current action) (animation: "idl0")
  1: 0x0142 [0x1C] WAIT(30* ticks)
  2: 0x0145 [0x00] END_REQSTACK()
```

### Event 65535.22

#### Metadata

| Field        | Value    |
|--------------|----------|
| Entrypoint   | 0x0146   |
| Data Size    | 66 bytes |
| Instructions | 8        |

```
      00 01 02 03 04 05 06 07  08 09 0A 0B 0C 0D 0E 0F
      -- -- -- -- -- -- -- --  -- -- -- -- -- -- -- --
0140:                   45 04  80 F8 FF FF 7F F8 FF FF        E.........
0150: 7F 66 64 6F 31 05 80 1C  06 80 45 07 80 F0 FF FF  .fdo1.....E.....
0160: 7F F0 FF FF 7F 73 30 31  31 05 80 4E 00 F0 FF FF  .....s011..N....
0170: 7F 46 00 1C 06 80 45 04  80 F8 FF FF 7F F8 FF FF  .F....E.........
0180: 7F 66 64 69 31 05 80 00                           .fdi1...        
```

#### Opcodes

```
  0: 0x0146 [0x45] LOAD_SCHEDULED_TASK: Load scheduler "fdo1" with entities [EventEntity, EventEntity], work=[200*, 0*]
  1: 0x0157 [0x1C] WAIT(60* ticks)
  2: 0x015A [0x45] LOAD_SCHEDULED_TASK: Load scheduler "s011" with entities [LocalPlayer, LocalPlayer], work=[138*, 0*]
  3: 0x016B [0x4E] SET_ENTITY_HIDE_FLAG: Show LocalPlayer
  4: 0x0171 [0x46] CAMERA_CONTROL: Restore default settings
  5: 0x0173 [0x1C] WAIT(60* ticks)
  6: 0x0176 [0x45] LOAD_SCHEDULED_TASK: Load scheduler "fdi1" with entities [EventEntity, EventEntity], work=[200*, 0*]
  7: 0x0187 [0x00] END_REQSTACK()
```

### Event 103

#### Metadata

| Field        | Value    |
|--------------|----------|
| Entrypoint   | 0x0188   |
| Data Size    | 33 bytes |
| Instructions | 12       |

```
      00 01 02 03 04 05 06 07  08 09 0A 0B 0C 0D 0E 0F
      -- -- -- -- -- -- -- --  -- -- -- -- -- -- -- --
0180:                          1E F0 FF FF 7F 6F 70 29          .....op)
0190: 08 0C E0 0E 01 01 1D 08  80 23 1D 09 80 23 29 08  .........#...#).
01A0: 0C E0 0E 01 02 20 00 21  00                       ..... .!.       
```

#### Opcodes

```
  0: 0x0188 [0x1E] EventEntity looks at LocalPlayer and starts talking
  1: 0x018D [0x6F] WAIT_FRAME_DELAY: Yield until WaitTime reaches zero
  2: 0x018E [0x70] WAIT_ENTITY_RENDER_FLAG: Wait while EventEntity->Render.Flags3 bit 2 is set (cancel turn if not)
  3: 0x018F [0x29] REQ_SET_WAIT(priority=0x08, entity_id=Mokyokyo (ID: 17752076/0x010EE00C), tag_num=0x01)
  4: 0x0196 [0x1D] PRINT_EVENT_MESSAGE(message_id=7507*)
    → "This is the north gatehouse of Windurst. If you're in need of a map of Windurst, head south to the Port District."
  5: 0x0199 [0x23] WAIT_FOR_DIALOG_INTERACTION
  6: 0x019A [0x1D] PRINT_EVENT_MESSAGE(message_id=7508*)
    → "I heard a Mithra lady-wady was selling magic maps near the shops along the wharves there."
  7: 0x019D [0x23] WAIT_FOR_DIALOG_INTERACTION
  8: 0x019E [0x29] REQ_SET_WAIT(priority=0x08, entity_id=Mokyokyo (ID: 17752076/0x010EE00C), tag_num=0x02)
  9: 0x01A5 [0x20] SET_CLI_EVENT_UC_FLAG: Unlock player control
 10: 0x01A7 [0x21] END_EVENT
 11: 0x01A8 [0x00] END_REQSTACK()
```

### Event 111

#### Metadata

| Field        | Value     |
|--------------|-----------|
| Entrypoint   | 0x01A9    |
| Data Size    | 539 bytes |
| Instructions | 95        |

```
      00 01 02 03 04 05 06 07  08 09 0A 0B 0C 0D 0E 0F
      -- -- -- -- -- -- -- --  -- -- -- -- -- -- -- --
01A0:                             29 08 F0 FF FF 7F 06           )......
01B0: 1E F0 FF FF 7F 6F 70 1D  0A 80 23 24 0B 80 0C 80  .....op...#$....
01C0: 02 10 25 02 00 10 0D 80  00 DC 01 29 0E 0C E0 0E  ..%........)....
01D0: 01 19 29 0E 0C E0 0E 01  2D 01 97 03 02 00 10 0E  ..).....-.......
01E0: 80 00 F5 01 29 0E 0C E0  0E 01 19 29 0E 0C E0 0E  ....)......)....
01F0: 01 31 01 97 03 02 00 10  0F 80 00 0E 02 29 0E 0C  .1...........)..
0200: E0 0E 01 19 29 0E 0C E0  0E 01 3B 01 97 03 02 00  ....).....;.....
0210: 10 10 80 00 27 02 29 0E  0C E0 0E 01 19 29 0E 0C  ....'.)......)..
0220: E0 0E 01 40 01 97 03 02  00 10 11 80 00 40 02 29  ...@.........@.)
0230: 0E 0C E0 0E 01 19 29 0E  0C E0 0E 01 43 01 97 03  ......).....C...
0240: 02 00 10 12 80 00 59 02  29 0E 0C E0 0E 01 19 29  ......Y.)......)
0250: 0E 0C E0 0E 01 48 01 97  03 02 00 10 13 80 00 84  .....H..........
0260: 02 29 0E 0C E0 0E 01 19  02 04 10 05 80 00 7A 02  .)............z.
0270: 29 0E 0C E0 0E 01 4A 01  81 02 29 0E 0C E0 0E 01  ).....J...).....
0280: 4C 01 97 03 02 00 10 14  80 00 9D 02 29 0E 0C E0  L...........)...
0290: 0E 01 19 29 0E 0C E0 0E  01 4D 01 97 03 02 00 10  ...).....M......
02A0: 15 80 00 B6 02 29 0E 0C  E0 0E 01 19 29 0E 0C E0  .....)......)...
02B0: 0E 01 50 01 97 03 02 00  10 16 80 00 CF 02 29 0E  ..P...........).
02C0: 0C E0 0E 01 19 29 0E 0C  E0 0E 01 52 01 97 03 02  .....).....R....
02D0: 00 10 17 80 00 E8 02 29  0E 0C E0 0E 01 19 29 0E  .......)......).
02E0: 0C E0 0E 01 54 01 97 03  02 00 10 18 80 00 01 03  ....T...........
02F0: 29 0E 0C E0 0E 01 19 29  0E 0C E0 0E 01 56 01 97  )......).....V..
0300: 03 02 00 10 19 80 00 1A  03 29 0E 0C E0 0E 01 19  .........)......
0310: 29 0E 0C E0 0E 01 58 01  97 03 02 00 10 1A 80 00  ).....X.........
0320: 33 03 29 0E 0C E0 0E 01  19 29 0E 0C E0 0E 01 5A  3.)......).....Z
0330: 01 97 03 02 00 10 1B 80  00 4C 03 29 0E 0C E0 0E  .........L.)....
0340: 01 19 29 0E 0C E0 0E 01  5C 01 97 03 02 00 10 1C  ..).....\.......
0350: 80 00 65 03 29 0E 0C E0  0E 01 19 29 0E 0C E0 0E  ..e.)......)....
0360: 01 5E 01 97 03 02 00 10  1D 80 00 7E 03 29 0E 0C  .^.........~.)..
0370: E0 0E 01 19 29 0E 0C E0  0E 01 60 01 97 03 02 00  ....).....`.....
0380: 10 1E 80 00 97 03 29 0E  0C E0 0E 01 19 29 0E 0C  ......)......)..
0390: E0 0E 01 62 01 97 03 03  01 10 00 10 02 01 10 0C  ...b............
03A0: 80 01 C0 03 24 1F 80 05  80 05 80 25 02 00 10 0D  ....$......%....
03B0: 80 00 C0 03 03 01 10 0C  80 20 00 21 00 01 C0 03  ......... .!....
03C0: 20 00 21 00                                        .!.            
```

#### Opcodes

```
  0: 0x01A9 [0x29] REQ_SET_WAIT(priority=0x08, entity_id=LocalPlayer, tag_num=0x06)
  1: 0x01B0 [0x1E] EventEntity looks at LocalPlayer and starts talking
  2: 0x01B5 [0x6F] WAIT_FRAME_DELAY: Yield until WaitTime reaches zero
  3: 0x01B6 [0x70] WAIT_ENTITY_RENDER_FLAG: Wait while EventEntity->Render.Flags3 bit 2 is set (cancel turn if not)
  4: 0x01B7 [0x1D] PRINT_EVENT_MESSAGE(message_id=7517*)
    → "I shall now read out the missions you are able to receive..."
  5: 0x01BA [0x23] WAIT_FOR_DIALOG_INTERACTION
  6: 0x01BB [0x24] CREATE_DIALOG(message_id=7518*, default_option=31*, option_flags=Work_Zone[2])
    → "Which mission will you accept? [The Horutoto Ruins Experiment./The Heart of the Matter./The Price of Peace./Lost for Words./A Testing Time./The Three Kingdoms./Mission 2-3-1A./Mission 2-3-1B./Mission 2-3-2A./Mission 2-3-2B./To Each His Own Right./Written in the Stars./A New Journey./Magicite./The Final Seal./The Shadow Awaits./Full Moon Fountain./Saintly Invitation./The Sixth Ministry./Awakening of the Gods./Vain./The Jester Who'd Be King./Doll of the Dead./Moon Reading./Dummy11./Dummy12./Dummy13./Dummy14./Dummy15./Dummy16./Dummy17./Decline mission.]"
  7: 0x01C2 [0x25] WAIT_DIALOG_SELECT()
  8: 0x01C3 [0x02] IF !(Work_Zone[0] == 1*) GOTO 0x01DC
  9: 0x01CB [0x29] REQ_SET_WAIT(priority=0x0E, entity_id=Mokyokyo (ID: 17752076/0x010EE00C), tag_num=0x19)
 10: 0x01D2 [0x29] REQ_SET_WAIT(priority=0x0E, entity_id=Mokyokyo (ID: 17752076/0x010EE00C), tag_num=0x2D)
 11: 0x01D9 [0x01] GOTO 0x0397
 12: 0x01DC [0x02] IF !(Work_Zone[0] == 2*) GOTO 0x01F5
 13: 0x01E4 [0x29] REQ_SET_WAIT(priority=0x0E, entity_id=Mokyokyo (ID: 17752076/0x010EE00C), tag_num=0x19)
 14: 0x01EB [0x29] REQ_SET_WAIT(priority=0x0E, entity_id=Mokyokyo (ID: 17752076/0x010EE00C), tag_num=0x31)
 15: 0x01F2 [0x01] GOTO 0x0397
 16: 0x01F5 [0x02] IF !(Work_Zone[0] == 3*) GOTO 0x020E
 17: 0x01FD [0x29] REQ_SET_WAIT(priority=0x0E, entity_id=Mokyokyo (ID: 17752076/0x010EE00C), tag_num=0x19)
 18: 0x0204 [0x29] REQ_SET_WAIT(priority=0x0E, entity_id=Mokyokyo (ID: 17752076/0x010EE00C), tag_num=0x3B)
 19: 0x020B [0x01] GOTO 0x0397
 20: 0x020E [0x02] IF !(Work_Zone[0] == 4*) GOTO 0x0227
 21: 0x0216 [0x29] REQ_SET_WAIT(priority=0x0E, entity_id=Mokyokyo (ID: 17752076/0x010EE00C), tag_num=0x19)
 22: 0x021D [0x29] REQ_SET_WAIT(priority=0x0E, entity_id=Mokyokyo (ID: 17752076/0x010EE00C), tag_num=0x40)
 23: 0x0224 [0x01] GOTO 0x0397
 24: 0x0227 [0x02] IF !(Work_Zone[0] == 5*) GOTO 0x0240
 25: 0x022F [0x29] REQ_SET_WAIT(priority=0x0E, entity_id=Mokyokyo (ID: 17752076/0x010EE00C), tag_num=0x19)
 26: 0x0236 [0x29] REQ_SET_WAIT(priority=0x0E, entity_id=Mokyokyo (ID: 17752076/0x010EE00C), tag_num=0x43)
 27: 0x023D [0x01] GOTO 0x0397
 28: 0x0240 [0x02] IF !(Work_Zone[0] == 10*) GOTO 0x0259
 29: 0x0248 [0x29] REQ_SET_WAIT(priority=0x0E, entity_id=Mokyokyo (ID: 17752076/0x010EE00C), tag_num=0x19)
 30: 0x024F [0x29] REQ_SET_WAIT(priority=0x0E, entity_id=Mokyokyo (ID: 17752076/0x010EE00C), tag_num=0x48)
 31: 0x0256 [0x01] GOTO 0x0397
 32: 0x0259 [0x02] IF !(Work_Zone[0] == 11*) GOTO 0x0284
 33: 0x0261 [0x29] REQ_SET_WAIT(priority=0x0E, entity_id=Mokyokyo (ID: 17752076/0x010EE00C), tag_num=0x19)
 34: 0x0268 [0x02] IF !(Work_Zone[4] == 0*) GOTO 0x027A
 35: 0x0270 [0x29] REQ_SET_WAIT(priority=0x0E, entity_id=Mokyokyo (ID: 17752076/0x010EE00C), tag_num=0x4A)
 36: 0x0277 [0x01] GOTO 0x0281
 37: 0x027A [0x29] REQ_SET_WAIT(priority=0x0E, entity_id=Mokyokyo (ID: 17752076/0x010EE00C), tag_num=0x4C)

SUBROUTINE_0281:
 38: 0x0281 [0x01] GOTO 0x0397
 39: 0x0284 [0x02] IF !(Work_Zone[0] == 12*) GOTO 0x029D
 40: 0x028C [0x29] REQ_SET_WAIT(priority=0x0E, entity_id=Mokyokyo (ID: 17752076/0x010EE00C), tag_num=0x19)
 41: 0x0293 [0x29] REQ_SET_WAIT(priority=0x0E, entity_id=Mokyokyo (ID: 17752076/0x010EE00C), tag_num=0x4D)
 42: 0x029A [0x01] GOTO 0x0397
 43: 0x029D [0x02] IF !(Work_Zone[0] == 14*) GOTO 0x02B6
 44: 0x02A5 [0x29] REQ_SET_WAIT(priority=0x0E, entity_id=Mokyokyo (ID: 17752076/0x010EE00C), tag_num=0x19)
 45: 0x02AC [0x29] REQ_SET_WAIT(priority=0x0E, entity_id=Mokyokyo (ID: 17752076/0x010EE00C), tag_num=0x50)
 46: 0x02B3 [0x01] GOTO 0x0397
 47: 0x02B6 [0x02] IF !(Work_Zone[0] == 15*) GOTO 0x02CF
 48: 0x02BE [0x29] REQ_SET_WAIT(priority=0x0E, entity_id=Mokyokyo (ID: 17752076/0x010EE00C), tag_num=0x19)
 49: 0x02C5 [0x29] REQ_SET_WAIT(priority=0x0E, entity_id=Mokyokyo (ID: 17752076/0x010EE00C), tag_num=0x52)
 50: 0x02CC [0x01] GOTO 0x0397
 51: 0x02CF [0x02] IF !(Work_Zone[0] == 16*) GOTO 0x02E8
 52: 0x02D7 [0x29] REQ_SET_WAIT(priority=0x0E, entity_id=Mokyokyo (ID: 17752076/0x010EE00C), tag_num=0x19)
 53: 0x02DE [0x29] REQ_SET_WAIT(priority=0x0E, entity_id=Mokyokyo (ID: 17752076/0x010EE00C), tag_num=0x54)
 54: 0x02E5 [0x01] GOTO 0x0397
 55: 0x02E8 [0x02] IF !(Work_Zone[0] == 17*) GOTO 0x0301
 56: 0x02F0 [0x29] REQ_SET_WAIT(priority=0x0E, entity_id=Mokyokyo (ID: 17752076/0x010EE00C), tag_num=0x19)
 57: 0x02F7 [0x29] REQ_SET_WAIT(priority=0x0E, entity_id=Mokyokyo (ID: 17752076/0x010EE00C), tag_num=0x56)
 58: 0x02FE [0x01] GOTO 0x0397
 59: 0x0301 [0x02] IF !(Work_Zone[0] == 18*) GOTO 0x031A
 60: 0x0309 [0x29] REQ_SET_WAIT(priority=0x0E, entity_id=Mokyokyo (ID: 17752076/0x010EE00C), tag_num=0x19)
 61: 0x0310 [0x29] REQ_SET_WAIT(priority=0x0E, entity_id=Mokyokyo (ID: 17752076/0x010EE00C), tag_num=0x58)
 62: 0x0317 [0x01] GOTO 0x0397
 63: 0x031A [0x02] IF !(Work_Zone[0] == 19*) GOTO 0x0333
 64: 0x0322 [0x29] REQ_SET_WAIT(priority=0x0E, entity_id=Mokyokyo (ID: 17752076/0x010EE00C), tag_num=0x19)
 65: 0x0329 [0x29] REQ_SET_WAIT(priority=0x0E, entity_id=Mokyokyo (ID: 17752076/0x010EE00C), tag_num=0x5A)
 66: 0x0330 [0x01] GOTO 0x0397
 67: 0x0333 [0x02] IF !(Work_Zone[0] == 20*) GOTO 0x034C
 68: 0x033B [0x29] REQ_SET_WAIT(priority=0x0E, entity_id=Mokyokyo (ID: 17752076/0x010EE00C), tag_num=0x19)
 69: 0x0342 [0x29] REQ_SET_WAIT(priority=0x0E, entity_id=Mokyokyo (ID: 17752076/0x010EE00C), tag_num=0x5C)
 70: 0x0349 [0x01] GOTO 0x0397
 71: 0x034C [0x02] IF !(Work_Zone[0] == 21*) GOTO 0x0365
 72: 0x0354 [0x29] REQ_SET_WAIT(priority=0x0E, entity_id=Mokyokyo (ID: 17752076/0x010EE00C), tag_num=0x19)
 73: 0x035B [0x29] REQ_SET_WAIT(priority=0x0E, entity_id=Mokyokyo (ID: 17752076/0x010EE00C), tag_num=0x5E)
 74: 0x0362 [0x01] GOTO 0x0397
 75: 0x0365 [0x02] IF !(Work_Zone[0] == 22*) GOTO 0x037E
 76: 0x036D [0x29] REQ_SET_WAIT(priority=0x0E, entity_id=Mokyokyo (ID: 17752076/0x010EE00C), tag_num=0x19)
 77: 0x0374 [0x29] REQ_SET_WAIT(priority=0x0E, entity_id=Mokyokyo (ID: 17752076/0x010EE00C), tag_num=0x60)
 78: 0x037B [0x01] GOTO 0x0397
 79: 0x037E [0x02] IF !(Work_Zone[0] == 23*) GOTO 0x0397
 80: 0x0386 [0x29] REQ_SET_WAIT(priority=0x0E, entity_id=Mokyokyo (ID: 17752076/0x010EE00C), tag_num=0x19)
 81: 0x038D [0x29] REQ_SET_WAIT(priority=0x0E, entity_id=Mokyokyo (ID: 17752076/0x010EE00C), tag_num=0x62)
 82: 0x0394 [0x01] GOTO 0x0397

SUBROUTINE_0397:
 83: 0x0397 [0x03] Work_Zone[1] = Work_Zone[0]
 84: 0x039C [0x02] IF !(Work_Zone[1] == 31*) GOTO 0x03C0
 85: 0x03A4 [0x24] CREATE_DIALOG(message_id=6749*, default_option=0*, option_flags=0*)
    → "Accept this mission? [Yes./No.]"
 86: 0x03AB [0x25] WAIT_DIALOG_SELECT()
 87: 0x03AC [0x02] IF !(Work_Zone[0] == 1*) GOTO 0x03C0
 88: 0x03B4 [0x03] Work_Zone[1] = 31*
 89: 0x03B9 [0x20] SET_CLI_EVENT_UC_FLAG: Unlock player control
 90: 0x03BB [0x21] END_EVENT
 91: 0x03BC [0x00] END_REQSTACK()

SUBROUTINE_03C0:
 92: 0x03C0 [0x20] SET_CLI_EVENT_UC_FLAG: Unlock player control
 93: 0x03C2 [0x21] END_EVENT
 94: 0x03C3 [0x00] END_REQSTACK()
```

#### Data or dead code:

```
# Dead code (unreachable instructions):
     0x03BD [0x01] GOTO 0x03C0
```

### Event 65535.23

#### Metadata

| Field        | Value    |
|--------------|----------|
| Entrypoint   | 0x03C4   |
| Data Size    | 42 bytes |
| Instructions | 10       |

```
      00 01 02 03 04 05 06 07  08 09 0A 0B 0C 0D 0E 0F
      -- -- -- -- -- -- -- --  -- -- -- -- -- -- -- --
03C0:             03 01 10 00  10 02 01 10 0C 80 01 ED      ............
03D0: 03 24 1F 80 05 80 05 80  25 02 00 10 0D 80 00 ED  .$......%.......
03E0: 03 03 01 10 0C 80 20 00  21 00 01 ED 03 00        ...... .!.....  
```

#### Opcodes

```
  0: 0x03C4 [0x03] Work_Zone[1] = Work_Zone[0]
  1: 0x03C9 [0x02] IF !(Work_Zone[1] == 31*) GOTO 0x03ED
  2: 0x03D1 [0x24] CREATE_DIALOG(message_id=6749*, default_option=0*, option_flags=0*)
    → "Accept this mission? [Yes./No.]"
  3: 0x03D8 [0x25] WAIT_DIALOG_SELECT()
  4: 0x03D9 [0x02] IF !(Work_Zone[0] == 1*) GOTO 0x03ED
  5: 0x03E1 [0x03] Work_Zone[1] = 31*
  6: 0x03E6 [0x20] SET_CLI_EVENT_UC_FLAG: Unlock player control
  7: 0x03E8 [0x21] END_EVENT
  8: 0x03E9 [0x00] END_REQSTACK()

SUBROUTINE_03ED:
  9: 0x03ED [0x00] END_REQSTACK()
```

#### Data or dead code:

```
# Dead code (unreachable instructions):
     0x03EA [0x01] GOTO 0x03ED
```

### Event 109

#### Metadata

| Field        | Value    |
|--------------|----------|
| Entrypoint   | 0x03EE   |
| Data Size    | 29 bytes |
| Instructions | 10       |

```
      00 01 02 03 04 05 06 07  08 09 0A 0B 0C 0D 0E 0F
      -- -- -- -- -- -- -- --  -- -- -- -- -- -- -- --
03E0:                                            1E F0                ..
03F0: FF FF 7F 6F 70 29 08 0C  E0 0E 01 01 1D 20 80 23  ...op)....... .#
0400: 29 08 0C E0 0E 01 02 20  00 21 00                 )...... .!.     
```

#### Opcodes

```
  0: 0x03EE [0x1E] EventEntity looks at LocalPlayer and starts talking
  1: 0x03F3 [0x6F] WAIT_FRAME_DELAY: Yield until WaitTime reaches zero
  2: 0x03F4 [0x70] WAIT_ENTITY_RENDER_FLAG: Wait while EventEntity->Render.Flags3 bit 2 is set (cancel turn if not)
  3: 0x03F5 [0x29] REQ_SET_WAIT(priority=0x08, entity_id=Mokyokyo (ID: 17752076/0x010EE00C), tag_num=0x01)
  4: 0x03FC [0x1D] PRINT_EVENT_MESSAGE(message_id=7516*)
    → "You cannot accept more than one mission at a timey-wimey. Please complete your current mission before applying for the next."
  5: 0x03FF [0x23] WAIT_FOR_DIALOG_INTERACTION
  6: 0x0400 [0x29] REQ_SET_WAIT(priority=0x08, entity_id=Mokyokyo (ID: 17752076/0x010EE00C), tag_num=0x02)
  7: 0x0407 [0x20] SET_CLI_EVENT_UC_FLAG: Unlock player control
  8: 0x0409 [0x21] END_EVENT
  9: 0x040A [0x00] END_REQSTACK()
```

### Event 118

#### Metadata

| Field        | Value     |
|--------------|-----------|
| Entrypoint   | 0x040B    |
| Data Size    | 302 bytes |
| Instructions | 46        |

```
      00 01 02 03 04 05 06 07  08 09 0A 0B 0C 0D 0E 0F
      -- -- -- -- -- -- -- --  -- -- -- -- -- -- -- --
0400:                                   42 46 01 45 04             BF.E.
0410: 80 F8 FF FF 7F F8 FF FF  7F 66 64 6F 31 05 80 1C  .........fdo1...
0420: 06 80 38 0F 80 4E 01 F0  FF FF 7F 45 07 80 F8 FF  ..8..N.....E....
0430: FF 7F F8 FF FF 7F 73 30  30 37 05 80 29 0D 0C E0  ......s007..)...
0440: 0E 01 1C 4A 0C E0 0E 01  F0 FF FF 7F 6F 76 0C E0  ...J........ov..
0450: 0E 01 02 04 10 0D 80 00  5F 04 03 00 00 0D 80 45  ........_......E
0460: 04 80 F8 FF FF 7F F8 FF  FF 7F 66 64 69 31 05 80  ..........fdi1..
0470: 29 0B 0C E0 0E 01 20 45  07 80 F8 FF FF 7F F8 FF  )..... E........
0480: FF 7F 73 30 30 39 05 80  4E 00 F0 FF FF 7F 4A 0E  ..s009..N.....J.
0490: E0 0E 01 F0 FF FF 7F 6F  76 0E E0 0E 01 29 0B 0C  .......ov....)..
04A0: E0 0E 01 21 52 07 80 F8  FF FF 7F F8 FF FF 7F 73  ...!R..........s
04B0: 30 30 39 45 07 80 F8 FF  FF 7F F8 FF FF 7F 73 30  009E..........s0
04C0: 30 37 05 80 29 0B 0C E0  0E 01 22 02 00 00 0D 80  07..).....".....
04D0: 00 02 05 24 21 80 0D 80  05 80 25 02 00 10 05 80  ...$!.....%.....
04E0: 00 ED 04 29 0D 0C E0 0E  01 1E 01 FF 04 02 00 10  ...)............
04F0: 0D 80 00 FF 04 29 0D 0C  E0 0E 01 1D 01 FF 04 01  .....)..........
0500: 2E 05 24 21 80 05 80 05  80 25 02 00 10 05 80 00  ..$!.....%......
0510: 1C 05 29 0D 0C E0 0E 01  1E 01 2E 05 02 00 10 0D  ..).............
0520: 80 00 2E 05 29 0D 0C E0  0E 01 1D 01 2E 05 29 08  ....).........).
0530: 0C E0 0E 01 16 20 00 21  00                       ..... .!.       
```

#### Opcodes

```
  0: 0x040B [0x42] SET_CLI_EVENT_CANCEL_DATA()
  1: 0x040C [0x46] CAMERA_CONTROL: Disable user control
  2: 0x040E [0x45] LOAD_SCHEDULED_TASK: Load scheduler "fdo1" with entities [EventEntity, EventEntity], work=[200*, 0*]
  3: 0x041F [0x1C] WAIT(60* ticks)
  4: 0x0422 [0x38] SET_CLIENT_EVENT_MODE(mode=3*)
  5: 0x0425 [0x4E] SET_ENTITY_HIDE_FLAG: Hide LocalPlayer
  6: 0x042B [0x45] LOAD_SCHEDULED_TASK: Load scheduler "s007" with entities [EventEntity, EventEntity], work=[138*, 0*]
  7: 0x043C [0x29] REQ_SET_WAIT(priority=0x0D, entity_id=Mokyokyo (ID: 17752076/0x010EE00C), tag_num=0x1C)
  8: 0x0443 [0x4A] Mokyokyo (ID: 17752076/0x010EE00C) looks at LocalPlayer
  9: 0x044C [0x6F] WAIT_FRAME_DELAY: Yield until WaitTime reaches zero
 10: 0x044D [0x76] CHECK_ENTITY_RENDER_FLAGS: Wait until Mokyokyo (ID: 17752076/0x010EE00C) Render.Flags0 and Render.Flags3 conditions are met
 11: 0x0452 [0x02] IF !(Work_Zone[4] == 1*) GOTO 0x045F
 12: 0x045A [0x03] ExtData[1]->WorkLocal[0] = 1*
 13: 0x045F [0x45] LOAD_SCHEDULED_TASK: Load scheduler "fdi1" with entities [EventEntity, EventEntity], work=[200*, 0*]
 14: 0x0470 [0x29] REQ_SET_WAIT(priority=0x0B, entity_id=Mokyokyo (ID: 17752076/0x010EE00C), tag_num=0x20)
 15: 0x0477 [0x45] LOAD_SCHEDULED_TASK: Load scheduler "s009" with entities [EventEntity, EventEntity], work=[138*, 0*]
 16: 0x0488 [0x4E] SET_ENTITY_HIDE_FLAG: Show LocalPlayer
 17: 0x048E [0x4A] Dagoza-Beruza (ID: 17752078/0x010EE00E) looks at LocalPlayer
 18: 0x0497 [0x6F] WAIT_FRAME_DELAY: Yield until WaitTime reaches zero
 19: 0x0498 [0x76] CHECK_ENTITY_RENDER_FLAGS: Wait until Dagoza-Beruza (ID: 17752078/0x010EE00E) Render.Flags0 and Render.Flags3 conditions are met
 20: 0x049D [0x29] REQ_SET_WAIT(priority=0x0B, entity_id=Mokyokyo (ID: 17752076/0x010EE00C), tag_num=0x21)
 21: 0x04A4 [0x52] END_LOAD_SCHEDULER: End scheduler "s009" with entities [EventEntity, EventEntity], work=138*
 22: 0x04B3 [0x45] LOAD_SCHEDULED_TASK: Load scheduler "s007" with entities [EventEntity, EventEntity], work=[138*, 0*]
 23: 0x04C4 [0x29] REQ_SET_WAIT(priority=0x0B, entity_id=Mokyokyo (ID: 17752076/0x010EE00C), tag_num=0x22)
 24: 0x04CB [0x02] IF !(ExtData[1]->WorkLocal[0] == 1*) GOTO 0x0502
 25: 0x04D3 [0x24] CREATE_DIALOG(message_id=7532*, default_option=1*, option_flags=0*)
    → "Hear the explanation? [Yes, pleasey-weasey./No, thanky-hanky.]"
 26: 0x04DA [0x25] WAIT_DIALOG_SELECT()
 27: 0x04DB [0x02] IF !(Work_Zone[0] == 0*) GOTO 0x04ED
 28: 0x04E3 [0x29] REQ_SET_WAIT(priority=0x0D, entity_id=Mokyokyo (ID: 17752076/0x010EE00C), tag_num=0x1E)
 29: 0x04EA [0x01] GOTO 0x04FF
 30: 0x04ED [0x02] IF !(Work_Zone[0] == 1*) GOTO 0x04FF
 31: 0x04F5 [0x29] REQ_SET_WAIT(priority=0x0D, entity_id=Mokyokyo (ID: 17752076/0x010EE00C), tag_num=0x1D)
 32: 0x04FC [0x01] GOTO 0x04FF

SUBROUTINE_04FF:
 33: 0x04FF [0x01] GOTO 0x052E
 34: 0x0502 [0x24] CREATE_DIALOG(message_id=7532*, default_option=0*, option_flags=0*)
    → "Hear the explanation? [Yes, pleasey-weasey./No, thanky-hanky.]"
 35: 0x0509 [0x25] WAIT_DIALOG_SELECT()
 36: 0x050A [0x02] IF !(Work_Zone[0] == 0*) GOTO 0x051C
 37: 0x0512 [0x29] REQ_SET_WAIT(priority=0x0D, entity_id=Mokyokyo (ID: 17752076/0x010EE00C), tag_num=0x1E)
 38: 0x0519 [0x01] GOTO 0x052E
 39: 0x051C [0x02] IF !(Work_Zone[0] == 1*) GOTO 0x052E
 40: 0x0524 [0x29] REQ_SET_WAIT(priority=0x0D, entity_id=Mokyokyo (ID: 17752076/0x010EE00C), tag_num=0x1D)
 41: 0x052B [0x01] GOTO 0x052E

SUBROUTINE_052E:
 42: 0x052E [0x29] REQ_SET_WAIT(priority=0x08, entity_id=Mokyokyo (ID: 17752076/0x010EE00C), tag_num=0x16)
 43: 0x0535 [0x20] SET_CLI_EVENT_UC_FLAG: Unlock player control
 44: 0x0537 [0x21] END_EVENT
 45: 0x0538 [0x00] END_REQSTACK()
```

### Event 117

#### Metadata

| Field        | Value   |
|--------------|---------|
| Entrypoint   | 0x0539  |
| Data Size    | 8 bytes |
| Instructions | 2       |

```
      00 01 02 03 04 05 06 07  08 09 0A 0B 0C 0D 0E 0F
      -- -- -- -- -- -- -- --  -- -- -- -- -- -- -- --
0530:                             29 0B F0 FF FF 7F 2B           ).....+
0540: 00                                                .               
```

#### Opcodes

```
  0: 0x0539 [0x29] REQ_SET_WAIT(priority=0x0B, entity_id=LocalPlayer, tag_num=0x2B)
  1: 0x0540 [0x00] END_REQSTACK()
```

### Event 65535.24

#### Metadata

| Field        | Value    |
|--------------|----------|
| Entrypoint   | 0x0541   |
| Data Size    | 87 bytes |
| Instructions | 16       |

```
      00 01 02 03 04 05 06 07  08 09 0A 0B 0C 0D 0E 0F
      -- -- -- -- -- -- -- --  -- -- -- -- -- -- -- --
0540:    4E 00 F0 FF FF 7F 4A  0C E0 0E 01 F0 FF FF 7F   N.....J........
0550: 6F 76 F8 FF FF 7F 29 0A  0C E0 0E 01 23 24 22 80  ov....).....#$".
0560: 05 80 05 80 25 02 00 10  05 80 00 80 05 4A F0 FF  ....%........J..
0570: FF 7F 0D E0 0E 01 29 0A  0C E0 0E 01 1F 01 97 05  ......).........
0580: 02 00 10 0D 80 00 97 05  29 0A 0C E0 0E 01 28 03  ........).....(.
0590: 01 10 0C 80 01 97 05 00                           ........        
```

#### Opcodes

```
  0: 0x0541 [0x4E] SET_ENTITY_HIDE_FLAG: Show LocalPlayer
  1: 0x0547 [0x4A] Mokyokyo (ID: 17752076/0x010EE00C) looks at LocalPlayer
  2: 0x0550 [0x6F] WAIT_FRAME_DELAY: Yield until WaitTime reaches zero
  3: 0x0551 [0x76] CHECK_ENTITY_RENDER_FLAGS: Wait until EventEntity Render.Flags0 and Render.Flags3 conditions are met
  4: 0x0556 [0x29] REQ_SET_WAIT(priority=0x0A, entity_id=Mokyokyo (ID: 17752076/0x010EE00C), tag_num=0x23)
  5: 0x055D [0x24] CREATE_DIALOG(message_id=7539*, default_option=0*, option_flags=0*)
    → "Receive a mission? [Accept./Decline.]"
  6: 0x0564 [0x25] WAIT_DIALOG_SELECT()
  7: 0x0565 [0x02] IF !(Work_Zone[0] == 0*) GOTO 0x0580
  8: 0x056D [0x4A] LocalPlayer looks at Panna-Donna (ID: 17752077/0x010EE00D)
  9: 0x0576 [0x29] REQ_SET_WAIT(priority=0x0A, entity_id=Mokyokyo (ID: 17752076/0x010EE00C), tag_num=0x1F)
 10: 0x057D [0x01] GOTO 0x0597
 11: 0x0580 [0x02] IF !(Work_Zone[0] == 1*) GOTO 0x0597
 12: 0x0588 [0x29] REQ_SET_WAIT(priority=0x0A, entity_id=Mokyokyo (ID: 17752076/0x010EE00C), tag_num=0x28)
 13: 0x058F [0x03] Work_Zone[1] = 31*
 14: 0x0594 [0x01] GOTO 0x0597

SUBROUTINE_0597:
 15: 0x0597 [0x00] END_REQSTACK()
```

### Event 119

#### Metadata

| Field        | Value     |
|--------------|-----------|
| Entrypoint   | 0x0598    |
| Data Size    | 135 bytes |
| Instructions | 19        |

```
      00 01 02 03 04 05 06 07  08 09 0A 0B 0C 0D 0E 0F
      -- -- -- -- -- -- -- --  -- -- -- -- -- -- -- --
0590:                          45 07 80 F8 FF FF 7F F8          E.......
05A0: FF FF 7F 73 30 30 36 05  80 4A 0C E0 0E 01 F0 FF  ...s006..J......
05B0: FF 7F 6F 76 F8 FF FF 7F  29 0A 0C E0 0E 01 24 52  ..ov....).....$R
05C0: 07 80 F8 FF FF 7F F8 FF  FF 7F 73 30 30 36 45 07  ..........s006E.
05D0: 80 F8 FF FF 7F F8 FF FF  7F 73 30 30 37 05 80 29  .........s007..)
05E0: 0A 0C E0 0E 01 25 29 0A  0C E0 0E 01 26 24 22 80  .....%).....&$".
05F0: 05 80 05 80 25 02 00 10  05 80 00 07 06 29 0A 0C  ....%........)..
0600: E0 0E 01 1F 01 1E 06 02  00 10 0D 80 00 1E 06 29  ...............)
0610: 0A 0C E0 0E 01 27 03 01  10 0C 80 01 1E 06 00     .....'......... 
```

#### Opcodes

```
  0: 0x0598 [0x45] LOAD_SCHEDULED_TASK: Load scheduler "s006" with entities [EventEntity, EventEntity], work=[138*, 0*]
  1: 0x05A9 [0x4A] Mokyokyo (ID: 17752076/0x010EE00C) looks at LocalPlayer
  2: 0x05B2 [0x6F] WAIT_FRAME_DELAY: Yield until WaitTime reaches zero
  3: 0x05B3 [0x76] CHECK_ENTITY_RENDER_FLAGS: Wait until EventEntity Render.Flags0 and Render.Flags3 conditions are met
  4: 0x05B8 [0x29] REQ_SET_WAIT(priority=0x0A, entity_id=Mokyokyo (ID: 17752076/0x010EE00C), tag_num=0x24)
  5: 0x05BF [0x52] END_LOAD_SCHEDULER: End scheduler "s006" with entities [EventEntity, EventEntity], work=138*
  6: 0x05CE [0x45] LOAD_SCHEDULED_TASK: Load scheduler "s007" with entities [EventEntity, EventEntity], work=[138*, 0*]
  7: 0x05DF [0x29] REQ_SET_WAIT(priority=0x0A, entity_id=Mokyokyo (ID: 17752076/0x010EE00C), tag_num=0x25)
  8: 0x05E6 [0x29] REQ_SET_WAIT(priority=0x0A, entity_id=Mokyokyo (ID: 17752076/0x010EE00C), tag_num=0x26)
  9: 0x05ED [0x24] CREATE_DIALOG(message_id=7539*, default_option=0*, option_flags=0*)
    → "Receive a mission? [Accept./Decline.]"
 10: 0x05F4 [0x25] WAIT_DIALOG_SELECT()
 11: 0x05F5 [0x02] IF !(Work_Zone[0] == 0*) GOTO 0x0607
 12: 0x05FD [0x29] REQ_SET_WAIT(priority=0x0A, entity_id=Mokyokyo (ID: 17752076/0x010EE00C), tag_num=0x1F)
 13: 0x0604 [0x01] GOTO 0x061E
 14: 0x0607 [0x02] IF !(Work_Zone[0] == 1*) GOTO 0x061E
 15: 0x060F [0x29] REQ_SET_WAIT(priority=0x0A, entity_id=Mokyokyo (ID: 17752076/0x010EE00C), tag_num=0x27)
 16: 0x0616 [0x03] Work_Zone[1] = 31*
 17: 0x061B [0x01] GOTO 0x061E

SUBROUTINE_061E:
 18: 0x061E [0x00] END_REQSTACK()
```

### Event 120

#### Metadata

| Field        | Value     |
|--------------|-----------|
| Entrypoint   | 0x061F    |
| Data Size    | 117 bytes |
| Instructions | 15        |

```
      00 01 02 03 04 05 06 07  08 09 0A 0B 0C 0D 0E 0F
      -- -- -- -- -- -- -- --  -- -- -- -- -- -- -- --
0610:                                               45                 E
0620: 07 80 F8 FF FF 7F F8 FF  FF 7F 73 30 31 30 05 80  ..........s010..
0630: 4A F0 FF FF 7F 0D E0 0E  01 4A 0C E0 0E 01 0D E0  J........J......
0640: 0E 01 6F 76 F8 FF FF 7F  29 09 0D E0 0E 01 19 45  ..ov....)......E
0650: 07 80 F8 FF FF 7F F8 FF  FF 7F 73 30 36 32 05 80  ..........s062..
0660: 4A 0C E0 0E 01 F0 FF FF  7F 6F 76 F8 FF FF 7F 29  J........ov....)
0670: 09 0D E0 0E 01 1A 45 07  80 F8 FF FF 7F F8 FF FF  ......E.........
0680: 7F 73 30 31 30 05 80 29  09 0D E0 0E 01 1B 03 01  .s010..)........
0690: 10 0D 80 00                                       ....            
```

#### Opcodes

```
  0: 0x061F [0x45] LOAD_SCHEDULED_TASK: Load scheduler "s010" with entities [EventEntity, EventEntity], work=[138*, 0*]
  1: 0x0630 [0x4A] LocalPlayer looks at Panna-Donna (ID: 17752077/0x010EE00D)
  2: 0x0639 [0x4A] Mokyokyo (ID: 17752076/0x010EE00C) looks at Panna-Donna (ID: 17752077/0x010EE00D)
  3: 0x0642 [0x6F] WAIT_FRAME_DELAY: Yield until WaitTime reaches zero
  4: 0x0643 [0x76] CHECK_ENTITY_RENDER_FLAGS: Wait until EventEntity Render.Flags0 and Render.Flags3 conditions are met
  5: 0x0648 [0x29] REQ_SET_WAIT(priority=0x09, entity_id=Panna-Donna (ID: 17752077/0x010EE00D), tag_num=0x19)
  6: 0x064F [0x45] LOAD_SCHEDULED_TASK: Load scheduler "s062" with entities [EventEntity, EventEntity], work=[138*, 0*]
  7: 0x0660 [0x4A] Mokyokyo (ID: 17752076/0x010EE00C) looks at LocalPlayer
  8: 0x0669 [0x6F] WAIT_FRAME_DELAY: Yield until WaitTime reaches zero
  9: 0x066A [0x76] CHECK_ENTITY_RENDER_FLAGS: Wait until EventEntity Render.Flags0 and Render.Flags3 conditions are met
 10: 0x066F [0x29] REQ_SET_WAIT(priority=0x09, entity_id=Panna-Donna (ID: 17752077/0x010EE00D), tag_num=0x1A)
 11: 0x0676 [0x45] LOAD_SCHEDULED_TASK: Load scheduler "s010" with entities [EventEntity, EventEntity], work=[138*, 0*]
 12: 0x0687 [0x29] REQ_SET_WAIT(priority=0x09, entity_id=Panna-Donna (ID: 17752077/0x010EE00D), tag_num=0x1B)
 13: 0x068E [0x03] Work_Zone[1] = 1*
 14: 0x0693 [0x00] END_REQSTACK()
```

### Event 65535.25

#### Metadata

| Field        | Value    |
|--------------|----------|
| Entrypoint   | 0x0694   |
| Data Size    | 19 bytes |
| Instructions | 5        |

```
      00 01 02 03 04 05 06 07  08 09 0A 0B 0C 0D 0E 0F
      -- -- -- -- -- -- -- --  -- -- -- -- -- -- -- --
0690:             29 08 0C E0  0E 01 01 1D 23 80 23 29      ).......#.#)
06A0: 08 0C E0 0E 01 02 00                              .......         
```

#### Opcodes

```
  0: 0x0694 [0x29] REQ_SET_WAIT(priority=0x08, entity_id=Mokyokyo (ID: 17752076/0x010EE00C), tag_num=0x01)
  1: 0x069B [0x1D] PRINT_EVENT_MESSAGE(message_id=7528*)
    → "Hello there. Welcome to the North Winds."
  2: 0x069E [0x23] WAIT_FOR_DIALOG_INTERACTION
  3: 0x069F [0x29] REQ_SET_WAIT(priority=0x08, entity_id=Mokyokyo (ID: 17752076/0x010EE00C), tag_num=0x02)
  4: 0x06A6 [0x00] END_REQSTACK()
```

### Event 65535.26

#### Metadata

| Field        | Value    |
|--------------|----------|
| Entrypoint   | 0x06A7   |
| Data Size    | 23 bytes |
| Instructions | 7        |

```
      00 01 02 03 04 05 06 07  08 09 0A 0B 0C 0D 0E 0F
      -- -- -- -- -- -- -- --  -- -- -- -- -- -- -- --
06A0:                      29  08 0C E0 0E 01 01 1D 24         ).......$
06B0: 80 23 1D 25 80 23 29 08  0C E0 0E 01 02 00        .#.%.#).......  
```

#### Opcodes

```
  0: 0x06A7 [0x29] REQ_SET_WAIT(priority=0x08, entity_id=Mokyokyo (ID: 17752076/0x010EE00C), tag_num=0x01)
  1: 0x06AE [0x1D] PRINT_EVENT_MESSAGE(message_id=7529*)
    → "Have you checked out the rest of Windurst, yet? There are several gatehouses spread all over this city-wity."
  2: 0x06B1 [0x23] WAIT_FOR_DIALOG_INTERACTION
  3: 0x06B2 [0x1D] PRINT_EVENT_MESSAGE(message_id=7530*)
    → "This is the north gatehouse. Our group that gathers here at Odin's Gate goes by the name of the "North Winds.""
  4: 0x06B5 [0x23] WAIT_FOR_DIALOG_INTERACTION
  5: 0x06B6 [0x29] REQ_SET_WAIT(priority=0x08, entity_id=Mokyokyo (ID: 17752076/0x010EE00C), tag_num=0x02)
  6: 0x06BD [0x00] END_REQSTACK()
```

### Event 65535.27

#### Metadata

| Field        | Value    |
|--------------|----------|
| Entrypoint   | 0x06BE   |
| Data Size    | 19 bytes |
| Instructions | 5        |

```
      00 01 02 03 04 05 06 07  08 09 0A 0B 0C 0D 0E 0F
      -- -- -- -- -- -- -- --  -- -- -- -- -- -- -- --
06B0:                                            29 08                ).
06C0: 0C E0 0E 01 0B 1D 26 80  23 29 08 0C E0 0E 01 0C  ......&.#)......
06D0: 00                                                .               
```

#### Opcodes

```
  0: 0x06BE [0x29] REQ_SET_WAIT(priority=0x08, entity_id=Mokyokyo (ID: 17752076/0x010EE00C), tag_num=0x0B)
  1: 0x06C5 [0x1D] PRINT_EVENT_MESSAGE(message_id=7531*)
    → "Huh? You don't know about gatehouses? Well, you're going to find the going tough if you don't learn soon. Want me to explainy-wainy...?"
  2: 0x06C8 [0x23] WAIT_FOR_DIALOG_INTERACTION
  3: 0x06C9 [0x29] REQ_SET_WAIT(priority=0x08, entity_id=Mokyokyo (ID: 17752076/0x010EE00C), tag_num=0x0C)
  4: 0x06D0 [0x00] END_REQSTACK()
```

### Event 65535.28

#### Metadata

| Field        | Value    |
|--------------|----------|
| Entrypoint   | 0x06D1   |
| Data Size    | 27 bytes |
| Instructions | 9        |

```
      00 01 02 03 04 05 06 07  08 09 0A 0B 0C 0D 0E 0F
      -- -- -- -- -- -- -- --  -- -- -- -- -- -- -- --
06D0:    29 08 0C E0 0E 01 01  1D 27 80 23 1D 28 80 23   ).......'.#.(.#
06E0: 1D 29 80 23 29 08 0C E0  0E 01 02 00              .).#).......    
```

#### Opcodes

```
  0: 0x06D1 [0x29] REQ_SET_WAIT(priority=0x08, entity_id=Mokyokyo (ID: 17752076/0x010EE00C), tag_num=0x01)
  1: 0x06D8 [0x1D] PRINT_EVENT_MESSAGE(message_id=7540*)
    → "Don't need to hear the explanation, huh? Oh, so you consider yourself a scholar-wolar or something? Well we'll see about thatty-watty."
  2: 0x06DB [0x23] WAIT_FOR_DIALOG_INTERACTION
  3: 0x06DC [0x1D] PRINT_EVENT_MESSAGE(message_id=7541*)
    → "So how about it then? Try your hand out at a mission?"
  4: 0x06DF [0x23] WAIT_FOR_DIALOG_INTERACTION
  5: 0x06E0 [0x1D] PRINT_EVENT_MESSAGE(message_id=7542*)
    → "You're a citizen of Windurst, so you can receive missions here."
  6: 0x06E3 [0x23] WAIT_FOR_DIALOG_INTERACTION
  7: 0x06E4 [0x29] REQ_SET_WAIT(priority=0x08, entity_id=Mokyokyo (ID: 17752076/0x010EE00C), tag_num=0x02)
  8: 0x06EB [0x00] END_REQSTACK()
```

### Event 65535.29

#### Metadata

| Field        | Value    |
|--------------|----------|
| Entrypoint   | 0x06EC   |
| Data Size    | 30 bytes |
| Instructions | 8        |

```
      00 01 02 03 04 05 06 07  08 09 0A 0B 0C 0D 0E 0F
      -- -- -- -- -- -- -- --  -- -- -- -- -- -- -- --
06E0:                                      29 08 0C E0              )...
06F0: 0E 01 03 1D 2A 80 23 29  08 0C E0 0E 01 05 1D 2B  ....*.#).......+
0700: 80 23 29 08 0C E0 0E 01  06 00                    .#).......      
```

#### Opcodes

```
  0: 0x06EC [0x29] REQ_SET_WAIT(priority=0x08, entity_id=Mokyokyo (ID: 17752076/0x010EE00C), tag_num=0x03)
  1: 0x06F3 [0x1D] PRINT_EVENT_MESSAGE(message_id=7533*)
    → "The gatehouses are meeting and resting points for us guards who protect Windurst."
  2: 0x06F6 [0x23] WAIT_FOR_DIALOG_INTERACTION
  3: 0x06F7 [0x29] REQ_SET_WAIT(priority=0x08, entity_id=Mokyokyo (ID: 17752076/0x010EE00C), tag_num=0x05)
  4: 0x06FE [0x1D] PRINT_EVENT_MESSAGE(message_id=7534*)
    → "They are also the places where missions from the Federation of Windurst are received and allocated to people."
  5: 0x0701 [0x23] WAIT_FOR_DIALOG_INTERACTION
  6: 0x0702 [0x29] REQ_SET_WAIT(priority=0x08, entity_id=Mokyokyo (ID: 17752076/0x010EE00C), tag_num=0x06)
  7: 0x0709 [0x00] END_REQSTACK()
```

### Event 65535.30

#### Metadata

| Field        | Value    |
|--------------|----------|
| Entrypoint   | 0x070A   |
| Data Size    | 19 bytes |
| Instructions | 5        |

```
      00 01 02 03 04 05 06 07  08 09 0A 0B 0C 0D 0E 0F
      -- -- -- -- -- -- -- --  -- -- -- -- -- -- -- --
0700:                                29 08 0C E0 0E 01            ).....
0710: 01 1D 2C 80 23 29 08 0C  E0 0E 01 02 00           ..,.#).......   
```

#### Opcodes

```
  0: 0x070A [0x29] REQ_SET_WAIT(priority=0x08, entity_id=Mokyokyo (ID: 17752076/0x010EE00C), tag_num=0x01)
  1: 0x0711 [0x1D] PRINT_EVENT_MESSAGE(message_id=7535*)
    → "When you receive a mission and successfully complete the task it involves, you will be awarded rank points."
  2: 0x0714 [0x23] WAIT_FOR_DIALOG_INTERACTION
  3: 0x0715 [0x29] REQ_SET_WAIT(priority=0x08, entity_id=Mokyokyo (ID: 17752076/0x010EE00C), tag_num=0x02)
  4: 0x071C [0x00] END_REQSTACK()
```

### Event 65535.31

#### Metadata

| Field        | Value    |
|--------------|----------|
| Entrypoint   | 0x071D   |
| Data Size    | 19 bytes |
| Instructions | 5        |

```
      00 01 02 03 04 05 06 07  08 09 0A 0B 0C 0D 0E 0F
      -- -- -- -- -- -- -- --  -- -- -- -- -- -- -- --
0710:                                         29 08 0C               )..
0720: E0 0E 01 11 1D 2D 80 23  29 08 0C E0 0E 01 12 00  .....-.#).......
```

#### Opcodes

```
  0: 0x071D [0x29] REQ_SET_WAIT(priority=0x08, entity_id=Mokyokyo (ID: 17752076/0x010EE00C), tag_num=0x11)
  1: 0x0724 [0x1D] PRINT_EVENT_MESSAGE(message_id=7538*)
    → "So how about it? Are you interested in serving your country? We really recommend you try them outy-wouty."
  2: 0x0727 [0x23] WAIT_FOR_DIALOG_INTERACTION
  3: 0x0728 [0x29] REQ_SET_WAIT(priority=0x08, entity_id=Mokyokyo (ID: 17752076/0x010EE00C), tag_num=0x12)
  4: 0x072F [0x00] END_REQSTACK()
```

### Event 65535.32

#### Metadata

| Field        | Value    |
|--------------|----------|
| Entrypoint   | 0x0730   |
| Data Size    | 23 bytes |
| Instructions | 7        |

```
      00 01 02 03 04 05 06 07  08 09 0A 0B 0C 0D 0E 0F
      -- -- -- -- -- -- -- --  -- -- -- -- -- -- -- --
0730: 29 08 0C E0 0E 01 01 1D  2E 80 23 1D 2F 80 23 29  ).........#./.#)
0740: 08 0C E0 0E 01 02 00                              .......         
```

#### Opcodes

```
  0: 0x0730 [0x29] REQ_SET_WAIT(priority=0x08, entity_id=Mokyokyo (ID: 17752076/0x010EE00C), tag_num=0x01)
  1: 0x0737 [0x1D] PRINT_EVENT_MESSAGE(message_id=7548*)
    → "I guess there's no rushy-wushy. You'll be better prepared to complete your missions the more familiar you are with Windurst."
  2: 0x073A [0x23] WAIT_FOR_DIALOG_INTERACTION
  3: 0x073B [0x1D] PRINT_EVENT_MESSAGE(message_id=7549*)
    → "Come back when you feel ready-weady. We'll be waiting for you."
  4: 0x073E [0x23] WAIT_FOR_DIALOG_INTERACTION
  5: 0x073F [0x29] REQ_SET_WAIT(priority=0x08, entity_id=Mokyokyo (ID: 17752076/0x010EE00C), tag_num=0x02)
  6: 0x0746 [0x00] END_REQSTACK()
```

### Event 65535.33

#### Metadata

| Field        | Value    |
|--------------|----------|
| Entrypoint   | 0x0747   |
| Data Size    | 23 bytes |
| Instructions | 7        |

```
      00 01 02 03 04 05 06 07  08 09 0A 0B 0C 0D 0E 0F
      -- -- -- -- -- -- -- --  -- -- -- -- -- -- -- --
0740:                      29  08 0C E0 0E 01 0B 1D 30         ).......0
0750: 80 23 29 08 0C E0 0E 01  0C 1D 31 80 23 00        .#).......1.#.  
```

#### Opcodes

```
  0: 0x0747 [0x29] REQ_SET_WAIT(priority=0x08, entity_id=Mokyokyo (ID: 17752076/0x010EE00C), tag_num=0x0B)
  1: 0x074E [0x1D] PRINT_EVENT_MESSAGE(message_id=7550*)
    → "Oh my, oh why...? Well, that took the wind out of our sails..."
  2: 0x0751 [0x23] WAIT_FOR_DIALOG_INTERACTION
  3: 0x0752 [0x29] REQ_SET_WAIT(priority=0x08, entity_id=Mokyokyo (ID: 17752076/0x010EE00C), tag_num=0x0C)
  4: 0x0759 [0x1D] PRINT_EVENT_MESSAGE(message_id=7551*)
    → "I suppose you only just arrived in Windurst and want to see more of the area, so it's understandable. Come back when you're ready-weady."
  5: 0x075C [0x23] WAIT_FOR_DIALOG_INTERACTION
  6: 0x075D [0x00] END_REQSTACK()
```

### Event 123

#### Metadata

| Field        | Value    |
|--------------|----------|
| Entrypoint   | 0x075E   |
| Data Size    | 33 bytes |
| Instructions | 12       |

```
      00 01 02 03 04 05 06 07  08 09 0A 0B 0C 0D 0E 0F
      -- -- -- -- -- -- -- --  -- -- -- -- -- -- -- --
0750:                                            1E F0                ..
0760: FF FF 7F 6F 70 29 08 0C  E0 0E 01 01 1D 32 80 23  ...op).......2.#
0770: 1D 33 80 23 29 08 0C E0  0E 01 02 20 00 21 00     .3.#)...... .!. 
```

#### Opcodes

```
  0: 0x075E [0x1E] EventEntity looks at LocalPlayer and starts talking
  1: 0x0763 [0x6F] WAIT_FRAME_DELAY: Yield until WaitTime reaches zero
  2: 0x0764 [0x70] WAIT_ENTITY_RENDER_FLAG: Wait while EventEntity->Render.Flags3 bit 2 is set (cancel turn if not)
  3: 0x0765 [0x29] REQ_SET_WAIT(priority=0x08, entity_id=Mokyokyo (ID: 17752076/0x010EE00C), tag_num=0x01)
  4: 0x076C [0x1D] PRINT_EVENT_MESSAGE(message_id=7557*)
    → "The Minister of the Orastery will tell you what the mission entails."
  5: 0x076F [0x23] WAIT_FOR_DIALOG_INTERACTION
  6: 0x0770 [0x1D] PRINT_EVENT_MESSAGE(message_id=7558*)
    → "Now that you mention it, there's been an awful lot of these experiments going on lately. What is the Orastery up to this time?"
  7: 0x0773 [0x23] WAIT_FOR_DIALOG_INTERACTION
  8: 0x0774 [0x29] REQ_SET_WAIT(priority=0x08, entity_id=Mokyokyo (ID: 17752076/0x010EE00C), tag_num=0x02)
  9: 0x077B [0x20] SET_CLI_EVENT_UC_FLAG: Unlock player control
 10: 0x077D [0x21] END_EVENT
 11: 0x077E [0x00] END_REQSTACK()
```

### Event 125

#### Metadata

| Field        | Value    |
|--------------|----------|
| Entrypoint   | 0x077F   |
| Data Size    | 39 bytes |
| Instructions | 10       |

```
      00 01 02 03 04 05 06 07  08 09 0A 0B 0C 0D 0E 0F
      -- -- -- -- -- -- -- --  -- -- -- -- -- -- -- --
0770:                                               1E                 .
0780: F0 FF FF 7F 6F 70 29 08  0C E0 0E 01 01 29 0B 0C  ....op)......)..
0790: E0 0E 01 2B 29 0B 0C E0  0E 01 2C 29 08 0C E0 0E  ...+).....,)....
07A0: 01 02 20 00 21 00                                 .. .!.          
```

#### Opcodes

```
  0: 0x077F [0x1E] EventEntity looks at LocalPlayer and starts talking
  1: 0x0784 [0x6F] WAIT_FRAME_DELAY: Yield until WaitTime reaches zero
  2: 0x0785 [0x70] WAIT_ENTITY_RENDER_FLAG: Wait while EventEntity->Render.Flags3 bit 2 is set (cancel turn if not)
  3: 0x0786 [0x29] REQ_SET_WAIT(priority=0x08, entity_id=Mokyokyo (ID: 17752076/0x010EE00C), tag_num=0x01)
  4: 0x078D [0x29] REQ_SET_WAIT(priority=0x0B, entity_id=Mokyokyo (ID: 17752076/0x010EE00C), tag_num=0x2B)
  5: 0x0794 [0x29] REQ_SET_WAIT(priority=0x0B, entity_id=Mokyokyo (ID: 17752076/0x010EE00C), tag_num=0x2C)
  6: 0x079B [0x29] REQ_SET_WAIT(priority=0x08, entity_id=Mokyokyo (ID: 17752076/0x010EE00C), tag_num=0x02)
  7: 0x07A2 [0x20] SET_CLI_EVENT_UC_FLAG: Unlock player control
  8: 0x07A4 [0x21] END_EVENT
  9: 0x07A5 [0x00] END_REQSTACK()
```

### Event 65535.34

#### Metadata

| Field        | Value   |
|--------------|---------|
| Entrypoint   | 0x07A6  |
| Data Size    | 5 bytes |
| Instructions | 3       |

```
      00 01 02 03 04 05 06 07  08 09 0A 0B 0C 0D 0E 0F
      -- -- -- -- -- -- -- --  -- -- -- -- -- -- -- --
07A0:                   1D 34  80 23 00                       .4.#.     
```

#### Opcodes

```
  0: 0x07A6 [0x1D] PRINT_EVENT_MESSAGE(message_id=7561*)
    → "Good to see you made it backy-wacky. Looks like you did well for your first task. We'll allocate you rank points according to our evaluation of your mission."
  1: 0x07A9 [0x23] WAIT_FOR_DIALOG_INTERACTION
  2: 0x07AA [0x00] END_REQSTACK()
```

### Event 126

#### Metadata

| Field        | Value   |
|--------------|---------|
| Entrypoint   | 0x07AB  |
| Data Size    | 5 bytes |
| Instructions | 3       |

```
      00 01 02 03 04 05 06 07  08 09 0A 0B 0C 0D 0E 0F
      -- -- -- -- -- -- -- --  -- -- -- -- -- -- -- --
07A0:                                   1D 35 80 23 00             .5.#.
```

#### Opcodes

```
  0: 0x07AB [0x1D] PRINT_EVENT_MESSAGE(message_id=7562*)
    → "We look forward to you assisting us with our next task."
  1: 0x07AE [0x23] WAIT_FOR_DIALOG_INTERACTION
  2: 0x07AF [0x00] END_REQSTACK()
```

### Event 130

#### Metadata

| Field        | Value     |
|--------------|-----------|
| Entrypoint   | 0x07B0    |
| Data Size    | 204 bytes |
| Instructions | 31        |

```
      00 01 02 03 04 05 06 07  08 09 0A 0B 0C 0D 0E 0F
      -- -- -- -- -- -- -- --  -- -- -- -- -- -- -- --
07B0: 42 46 01 45 04 80 F8 FF  FF 7F F8 FF FF 7F 66 64  BF.E..........fd
07C0: 6F 31 05 80 1C 06 80 38  0F 80 4E 01 F0 FF FF 7F  o1.....8..N.....
07D0: 45 07 80 F8 FF FF 7F F8  FF FF 7F 73 30 30 37 05  E..........s007.
07E0: 80 29 0D 0C E0 0E 01 1C  4A 0C E0 0E 01 F0 FF FF  .)......J.......
07F0: 7F 6F 76 F8 FF FF 7F 45  04 80 F8 FF FF 7F F8 FF  .ov....E........
0800: FF 7F 66 64 69 31 05 80  29 0B 0C E0 0E 01 2E 24  ..fdi1..)......$
0810: 36 80 05 80 05 80 25 02  00 10 05 80 00 61 08 02  6.....%......a..
0820: 09 10 37 80 00 3B 08 45  07 80 F8 FF FF 7F F8 FF  ..7..;.E........
0830: FF 7F 73 30 37 39 05 80  01 4C 08 45 07 80 F8 FF  ..s079...L.E....
0840: FF 7F F8 FF FF 7F 73 30  36 33 05 80 4E 00 F0 FF  ......s063..N...
0850: FF 7F 29 0B 0C E0 0E 01  2F 03 01 10 0D 80 01 71  ..)...../......q
0860: 08 02 00 10 0D 80 00 71  08 03 01 10 0C 80 01 71  .......q.......q
0870: 08 29 08 0C E0 0E 01 16  20 00 21 00              .)...... .!.    
```

#### Opcodes

```
  0: 0x07B0 [0x42] SET_CLI_EVENT_CANCEL_DATA()
  1: 0x07B1 [0x46] CAMERA_CONTROL: Disable user control
  2: 0x07B3 [0x45] LOAD_SCHEDULED_TASK: Load scheduler "fdo1" with entities [EventEntity, EventEntity], work=[200*, 0*]
  3: 0x07C4 [0x1C] WAIT(60* ticks)
  4: 0x07C7 [0x38] SET_CLIENT_EVENT_MODE(mode=3*)
  5: 0x07CA [0x4E] SET_ENTITY_HIDE_FLAG: Hide LocalPlayer
  6: 0x07D0 [0x45] LOAD_SCHEDULED_TASK: Load scheduler "s007" with entities [EventEntity, EventEntity], work=[138*, 0*]
  7: 0x07E1 [0x29] REQ_SET_WAIT(priority=0x0D, entity_id=Mokyokyo (ID: 17752076/0x010EE00C), tag_num=0x1C)
  8: 0x07E8 [0x4A] Mokyokyo (ID: 17752076/0x010EE00C) looks at LocalPlayer
  9: 0x07F1 [0x6F] WAIT_FRAME_DELAY: Yield until WaitTime reaches zero
 10: 0x07F2 [0x76] CHECK_ENTITY_RENDER_FLAGS: Wait until EventEntity Render.Flags0 and Render.Flags3 conditions are met
 11: 0x07F7 [0x45] LOAD_SCHEDULED_TASK: Load scheduler "fdi1" with entities [EventEntity, EventEntity], work=[200*, 0*]
 12: 0x0808 [0x29] REQ_SET_WAIT(priority=0x0B, entity_id=Mokyokyo (ID: 17752076/0x010EE00C), tag_num=0x2E)
 13: 0x080F [0x24] CREATE_DIALOG(message_id=7570*, default_option=0*, option_flags=0*)
    → "Accept this mission? [Accept./Decline.]"
 14: 0x0816 [0x25] WAIT_DIALOG_SELECT()
 15: 0x0817 [0x02] IF !(Work_Zone[0] == 0*) GOTO 0x0861
 16: 0x081F [0x02] IF !(Work_Zone[9] == 8*) GOTO 0x083B
 17: 0x0827 [0x45] LOAD_SCHEDULED_TASK: Load scheduler "s079" with entities [EventEntity, EventEntity], work=[138*, 0*]
 18: 0x0838 [0x01] GOTO 0x084C
 19: 0x083B [0x45] LOAD_SCHEDULED_TASK: Load scheduler "s063" with entities [EventEntity, EventEntity], work=[138*, 0*]

SUBROUTINE_084C:
 20: 0x084C [0x4E] SET_ENTITY_HIDE_FLAG: Show LocalPlayer
 21: 0x0852 [0x29] REQ_SET_WAIT(priority=0x0B, entity_id=Mokyokyo (ID: 17752076/0x010EE00C), tag_num=0x2F)
 22: 0x0859 [0x03] Work_Zone[1] = 1*
 23: 0x085E [0x01] GOTO 0x0871
 24: 0x0861 [0x02] IF !(Work_Zone[0] == 1*) GOTO 0x0871
 25: 0x0869 [0x03] Work_Zone[1] = 31*
 26: 0x086E [0x01] GOTO 0x0871

SUBROUTINE_0871:
 27: 0x0871 [0x29] REQ_SET_WAIT(priority=0x08, entity_id=Mokyokyo (ID: 17752076/0x010EE00C), tag_num=0x16)
 28: 0x0878 [0x20] SET_CLI_EVENT_UC_FLAG: Unlock player control
 29: 0x087A [0x21] END_EVENT
 30: 0x087B [0x00] END_REQSTACK()
```

### Event 65535.35

#### Metadata

| Field        | Value    |
|--------------|----------|
| Entrypoint   | 0x087C   |
| Data Size    | 23 bytes |
| Instructions | 7        |

```
      00 01 02 03 04 05 06 07  08 09 0A 0B 0C 0D 0E 0F
      -- -- -- -- -- -- -- --  -- -- -- -- -- -- -- --
0870:                                      29 08 0C E0              )...
0880: 0E 01 01 1D 38 80 23 1D  39 80 23 29 08 0C E0 0E  ....8.#.9.#)....
0890: 01 02 00                                          ...             
```

#### Opcodes

```
  0: 0x087C [0x29] REQ_SET_WAIT(priority=0x08, entity_id=Mokyokyo (ID: 17752076/0x010EE00C), tag_num=0x01)
  1: 0x0883 [0x1D] PRINT_EVENT_MESSAGE(message_id=7568*)
    → "Your previous mission was the Orastery's magic experiment, right? Well then, this next tasky-wasky should be a piece of cake."
  2: 0x0886 [0x23] WAIT_FOR_DIALOG_INTERACTION
  3: 0x0887 [0x1D] PRINT_EVENT_MESSAGE(message_id=7569*)
    → "The Manustery is currently looking for an adventurer to help them in Cardian creation. Do you accept this mission?"
  4: 0x088A [0x23] WAIT_FOR_DIALOG_INTERACTION
  5: 0x088B [0x29] REQ_SET_WAIT(priority=0x08, entity_id=Mokyokyo (ID: 17752076/0x010EE00C), tag_num=0x02)
  6: 0x0892 [0x00] END_REQSTACK()
```

### Event 65535.36

#### Metadata

| Field        | Value    |
|--------------|----------|
| Entrypoint   | 0x0893   |
| Data Size    | 44 bytes |
| Instructions | 10       |

```
      00 01 02 03 04 05 06 07  08 09 0A 0B 0C 0D 0E 0F
      -- -- -- -- -- -- -- --  -- -- -- -- -- -- -- --
0890:          29 08 0C E0 0E  01 01 1D 3A 80 23 29 08     ).......:.#).
08A0: 0C E0 0E 01 02 29 08 0C  E0 0E 01 03 1D 3B 80 23  .....).......;.#
08B0: 29 08 0C E0 0E 01 05 29  08 0C E0 0E 01 06 00     )......)....... 
```

#### Opcodes

```
  0: 0x0893 [0x29] REQ_SET_WAIT(priority=0x08, entity_id=Mokyokyo (ID: 17752076/0x010EE00C), tag_num=0x01)
  1: 0x089A [0x1D] PRINT_EVENT_MESSAGE(message_id=7571*)
    → "Ask the staff at the Cardian workshop in the Manustery for the details of this mission."
  2: 0x089D [0x23] WAIT_FOR_DIALOG_INTERACTION
  3: 0x089E [0x29] REQ_SET_WAIT(priority=0x08, entity_id=Mokyokyo (ID: 17752076/0x010EE00C), tag_num=0x02)
  4: 0x08A5 [0x29] REQ_SET_WAIT(priority=0x08, entity_id=Mokyokyo (ID: 17752076/0x010EE00C), tag_num=0x03)
  5: 0x08AC [0x1D] PRINT_EVENT_MESSAGE(message_id=7572*)
    → "Huh? You don't know where the Manustery is? Would you understand if I said it's near the round in Windurst Woods, the district where all those Mithra live?"
  6: 0x08AF [0x23] WAIT_FOR_DIALOG_INTERACTION
  7: 0x08B0 [0x29] REQ_SET_WAIT(priority=0x08, entity_id=Mokyokyo (ID: 17752076/0x010EE00C), tag_num=0x05)
  8: 0x08B7 [0x29] REQ_SET_WAIT(priority=0x08, entity_id=Mokyokyo (ID: 17752076/0x010EE00C), tag_num=0x06)
  9: 0x08BE [0x00] END_REQSTACK()
```

### Event 131

#### Metadata

| Field        | Value    |
|--------------|----------|
| Entrypoint   | 0x08BF   |
| Data Size    | 37 bytes |
| Instructions | 14       |

```
      00 01 02 03 04 05 06 07  08 09 0A 0B 0C 0D 0E 0F
      -- -- -- -- -- -- -- --  -- -- -- -- -- -- -- --
08B0:                                               1E                 .
08C0: F0 FF FF 7F 6F 70 29 08  0C E0 0E 01 01 1D 3C 80  ....op).......<.
08D0: 23 1D 3D 80 23 1D 3E 80  23 29 08 0C E0 0E 01 02  #.=.#.>.#)......
08E0: 20 00 21 00                                        .!.            
```

#### Opcodes

```
  0: 0x08BF [0x1E] EventEntity looks at LocalPlayer and starts talking
  1: 0x08C4 [0x6F] WAIT_FRAME_DELAY: Yield until WaitTime reaches zero
  2: 0x08C5 [0x70] WAIT_ENTITY_RENDER_FLAG: Wait while EventEntity->Render.Flags3 bit 2 is set (cancel turn if not)
  3: 0x08C6 [0x29] REQ_SET_WAIT(priority=0x08, entity_id=Mokyokyo (ID: 17752076/0x010EE00C), tag_num=0x01)
  4: 0x08CD [0x1D] PRINT_EVENT_MESSAGE(message_id=7573*)
    → "The Manustery's Cardian workshop is southeast of here, in Windurst Woods."
  5: 0x08D0 [0x23] WAIT_FOR_DIALOG_INTERACTION
  6: 0x08D1 [0x1D] PRINT_EVENT_MESSAGE(message_id=7574*)
    → "To get to Windurst Woods, you have to pass through either Windurst Walls to the east, or Port Windurst to the south."
  7: 0x08D4 [0x23] WAIT_FOR_DIALOG_INTERACTION
  8: 0x08D5 [0x1D] PRINT_EVENT_MESSAGE(message_id=7575*)
    → "It's a long way to walk, but it's a good chance to get to know our country. Check your map to find the way, then consider it a leisurely strolly-wolly."
  9: 0x08D8 [0x23] WAIT_FOR_DIALOG_INTERACTION
 10: 0x08D9 [0x29] REQ_SET_WAIT(priority=0x08, entity_id=Mokyokyo (ID: 17752076/0x010EE00C), tag_num=0x02)
 11: 0x08E0 [0x20] SET_CLI_EVENT_UC_FLAG: Unlock player control
 12: 0x08E2 [0x21] END_EVENT
 13: 0x08E3 [0x00] END_REQSTACK()
```

### Event 135

#### Metadata

| Field        | Value     |
|--------------|-----------|
| Entrypoint   | 0x08E4    |
| Data Size    | 285 bytes |
| Instructions | 36        |

```
      00 01 02 03 04 05 06 07  08 09 0A 0B 0C 0D 0E 0F
      -- -- -- -- -- -- -- --  -- -- -- -- -- -- -- --
08E0:             42 46 01 45  04 80 F8 FF FF 7F F8 FF      BF.E........
08F0: FF 7F 66 64 6F 31 05 80  1C 06 80 38 0F 80 4E 01  ..fdo1.....8..N.
0900: F0 FF FF 7F 45 07 80 F8  FF FF 7F F8 FF FF 7F 73  ....E..........s
0910: 30 30 37 05 80 29 0D 0C  E0 0E 01 1C 4A 0C E0 0E  007..)......J...
0920: 01 F0 FF FF 7F 6F 76 F8  FF FF 7F 45 04 80 F8 FF  .....ov....E....
0930: FF 7F F8 FF FF 7F 66 64  69 31 05 80 29 0B 0C E0  ......fdi1..)...
0940: 0E 01 32 45 07 80 F8 FF  FF 7F F8 FF FF 7F 73 30  ..2E..........s0
0950: 30 39 05 80 4E 00 F0 FF  FF 7F 29 0B 0C E0 0E 01  09..N.....).....
0960: 33 29 0B 0C E0 0E 01 34  52 07 80 F8 FF FF 7F F8  3).....4R.......
0970: FF FF 7F 73 30 30 39 02  09 10 37 80 00 99 09 4E  ...s009...7....N
0980: 01 F0 FF FF 7F 45 07 80  F8 FF FF 7F F8 FF FF 7F  .....E..........
0990: 73 30 30 37 05 80 01 AA  09 45 07 80 F8 FF FF 7F  s007.....E......
09A0: F8 FF FF 7F 73 30 36 33  05 80 29 0B 0C E0 0E 01  ....s063..).....
09B0: 35 02 09 10 37 80 00 D3  09 45 07 80 F8 FF FF 7F  5...7....E......
09C0: F8 FF FF 7F 73 30 37 39  05 80 4E 00 F0 FF FF 7F  ....s079..N.....
09D0: 01 EA 09 4E 01 F0 FF FF  7F 45 07 80 F8 FF FF 7F  ...N.....E......
09E0: F8 FF FF 7F 73 30 30 37  05 80 29 0B 0C E0 0E 01  ....s007..).....
09F0: 36 29 08 0C E0 0E 01 16  03 01 10 0E 80 20 00 21  6)........... .!
0A00: 00                                                .               
```

#### Opcodes

```
  0: 0x08E4 [0x42] SET_CLI_EVENT_CANCEL_DATA()
  1: 0x08E5 [0x46] CAMERA_CONTROL: Disable user control
  2: 0x08E7 [0x45] LOAD_SCHEDULED_TASK: Load scheduler "fdo1" with entities [EventEntity, EventEntity], work=[200*, 0*]
  3: 0x08F8 [0x1C] WAIT(60* ticks)
  4: 0x08FB [0x38] SET_CLIENT_EVENT_MODE(mode=3*)
  5: 0x08FE [0x4E] SET_ENTITY_HIDE_FLAG: Hide LocalPlayer
  6: 0x0904 [0x45] LOAD_SCHEDULED_TASK: Load scheduler "s007" with entities [EventEntity, EventEntity], work=[138*, 0*]
  7: 0x0915 [0x29] REQ_SET_WAIT(priority=0x0D, entity_id=Mokyokyo (ID: 17752076/0x010EE00C), tag_num=0x1C)
  8: 0x091C [0x4A] Mokyokyo (ID: 17752076/0x010EE00C) looks at LocalPlayer
  9: 0x0925 [0x6F] WAIT_FRAME_DELAY: Yield until WaitTime reaches zero
