# 17752084 - Hariga-Origa

## Common Data

| Field            | Value                     |
|------------------|---------------------------|
| Zone             | Windurst Waters (ID: 238) |
| Block Size       | 1604 bytes                |
| Total Events     | 40                        |
| References Count | 67                        |

## List of Events

| Event ID                   | Entrypoint   |   Size |   Instructions |
|----------------------------|--------------|--------|----------------|
| [65535](#event-65535)      | 0x0000       |      1 |              1 |
| [65535.1](#event-655351)   | 0x0001       |     16 |              2 |
| [65535.2](#event-655352)   | 0x0011       |     22 |              4 |
| [65535.3](#event-655353)   | 0x0027       |     16 |              2 |
| [65535.4](#event-655354)   | 0x0037       |     14 |              2 |
| [65535.5](#event-655355)   | 0x0045       |      9 |              3 |
| [372](#event-372)          | 0x004E       |     31 |             11 |
| [162](#event-162)          | 0x006D       |     27 |              9 |
| [170](#event-170)          | 0x0088       |     27 |              9 |
| [381](#event-381)          | 0x00A3       |    134 |             26 |
| [65535.6](#event-655356)   | 0x0129       |      5 |              3 |
| [65535.7](#event-655357)   | 0x012E       |      9 |              5 |
| [65535.8](#event-655358)   | 0x0137       |      9 |              5 |
| [65535.9](#event-655359)   | 0x0140       |      5 |              3 |
| [65535.10](#event-6553510) | 0x0145       |      5 |              3 |
| [65535.11](#event-6553511) | 0x014A       |     13 |              7 |
| [382](#event-382)          | 0x0157       |     27 |              9 |
| [385](#event-385)          | 0x0172       |    144 |             28 |
| [65535.12](#event-6553512) | 0x0202       |      5 |              3 |
| [65535.13](#event-6553513) | 0x0207       |      5 |              3 |
| [65535.14](#event-6553514) | 0x020C       |     13 |              7 |
| [65535.15](#event-6553515) | 0x0219       |      5 |              3 |
| [386](#event-386)          | 0x021E       |     27 |              9 |
| [413](#event-413)          | 0x0239       |    134 |             26 |
| [65535.16](#event-6553516) | 0x02BF       |      5 |              3 |
| [65535.17](#event-6553517) | 0x02C4       |     13 |              7 |
| [65535.18](#event-6553518) | 0x02D1       |      9 |              5 |
| [65535.19](#event-6553519) | 0x02DA       |      5 |              3 |
| [65535.20](#event-6553520) | 0x02DF       |      5 |              3 |
| [65535.21](#event-6553521) | 0x02E4       |      5 |              3 |
| [414](#event-414)          | 0x02E9       |     27 |              9 |
| [417](#event-417)          | 0x0304       |    215 |             33 |
| [65535.22](#event-6553522) | 0x03DB       |      5 |              3 |
| [65535.23](#event-6553523) | 0x03E0       |      5 |              3 |
| [65535.24](#event-6553524) | 0x03E5       |     17 |              9 |
| [65535.25](#event-6553525) | 0x03F6       |     23 |              7 |
| [65535.26](#event-6553526) | 0x040D       |      5 |              3 |
| [418](#event-418)          | 0x0412       |     64 |             17 |
| [717](#event-717)          | 0x0452       |     27 |              9 |
| [726](#event-726)          | 0x046D       |     27 |              9 |

## DAT References (imed_data)

|   Index | Hex Value   |   Dec Value |
|---------|-------------|-------------|
|       0 | 0x0151      |         337 |
|       1 | 0x001E      |          30 |
|       2 | 0x0153      |         339 |
|       3 | 0x1FEC      |        8172 |
|       4 | 0x1FED      |        8173 |
|       5 | 0x1FEE      |        8174 |
|       6 | 0x1E01      |        7681 |
|       7 | 0x1E02      |        7682 |
|       8 | 0x1E16      |        7702 |
|       9 | 0x1E17      |        7703 |
|      10 | 0x2001      |        8193 |
|      11 | 0x0000      |           0 |
|      12 | 0x0001      |           1 |
|      13 | 0x1FFB      |        8187 |
|      14 | 0x1FFC      |        8188 |
|      15 | 0x1FFD      |        8189 |
|      16 | 0x1FFE      |        8190 |
|      17 | 0x1FFF      |        8191 |
|      18 | 0x2000      |        8192 |
|      19 | 0x2002      |        8194 |
|      20 | 0x2003      |        8195 |
|      21 | 0x2004      |        8196 |
|      22 | 0x2005      |        8197 |
|      23 | 0x2006      |        8198 |
|      24 | 0x2007      |        8199 |
|      25 | 0x0BCD      |        3021 |
|      26 | 0x2012      |        8210 |
|      27 | 0x00C9      |         201 |
|      28 | 0x200C      |        8204 |
|      29 | 0x200D      |        8205 |
|      30 | 0x200E      |        8206 |
|      31 | 0x200F      |        8207 |
|      32 | 0x2010      |        8208 |
|      33 | 0x2011      |        8209 |
|      34 | 0x2013      |        8211 |
|      35 | 0x2014      |        8212 |
|      36 | 0x2062      |        8290 |
|      37 | 0x205B      |        8283 |
|      38 | 0x205C      |        8284 |
|      39 | 0x205D      |        8285 |
|      40 | 0x205E      |        8286 |
|      41 | 0x205F      |        8287 |
|      42 | 0x2060      |        8288 |
|      43 | 0x2061      |        8289 |
|      44 | 0x2063      |        8291 |
|      45 | 0x2064      |        8292 |
|      46 | 0x2065      |        8293 |
|      47 | 0x2066      |        8294 |
|      48 | 0x206C      |        8300 |
|      49 | 0x00C8      |         200 |
|      50 | 0x0064      |         100 |
|      51 | 0x003C      |          60 |
|      52 | 0x206B      |        8299 |
|      53 | 0x206D      |        8301 |
|      54 | 0x206E      |        8302 |
|      55 | 0x206F      |        8303 |
|      56 | 0x2070      |        8304 |
|      57 | 0x2071      |        8305 |
|      58 | 0x2072      |        8306 |
|      59 | 0x2073      |        8307 |
|      60 | 0x2074      |        8308 |
|      61 | 0x2075      |        8309 |
|      62 | 0x2076      |        8310 |
|      63 | 0x25D1      |        9681 |
|      64 | 0x25D2      |        9682 |
|      65 | 0x25E7      |        9703 |
|      66 | 0x25E8      |        9704 |

## String References

- **7681**: One of the restricted books lost during the war has come to light?
- **7682**: Tosuka-Porika has been searching so hard for those lost restricted books ever since he became minister.
- **7702**: There are many restricted books, but the Book of the Gods is in a class of its own.
- **7703**: It's called a history book, but it doesn't just contain history. Sorry. It's not my specialty, so I don't know the details.
- **8172**: Shh...! Can't you see I'm in the middle of transcribing this book here? Please keep your voice down!
- **8173**: This is the manuscript room. This is where we carry out the transcription of the library's older books into new books.
- **8174**: This copying of manuscripts has been repeated for hundreds of years. It is a work that never finishes.
- **8187**: Shh...! Can't you see I'm in the middle of transcribing this book here? Please keep your voice down!
- **8188**: "Heretofore, source of magick...primarily extrinsic energies...fill terra and caelum."
- **8189**: "Tarutaru...analyzed...extrinsic energy...classifying into eight...elements. These...give birth magick...resides in soul...woven into spells...both...er, both..."
- **8190**: ...What's this?
- **8191**: I don't know how to read this glyph. That's the trouble with ancient writings; the letters and characters are too hard to read...
- **8192**: Hey, you there! You wouldn't happen to be passing through West Sarutabaruta anytime soon, would you? If so, I have a little favor to ask...
- **8193**: Listen to Hariga-Origa's request? [Listen./Don't listen.]
- **8194**: Well, I guess it can't be helped then... I'll just have to give up until someone can go there for me.
- **8195**: One of our researchers just headed off to the Horutoto Ruins in West Sarutabaruta.
- **8196**: She specializes in paleography, so she should be able to read these glyphs with no trouble at all.
- **8197**: Could you do me a favor and pass her this memo? Her name is Ipupu.
- **8198**: Hurry up and pass that memo to Ipupu. She's in West Sarutabaruta, probably in one of the magic towers of the Horutoto Ruins.
- **8199**: Until I can read the glyph I wrote in that memo, I have to give up... But I can't rest now, as I have so many other books to do. Guess I'll just have to get on with them in the meantime.
- **8204**: Oh, welcome back. Were you able to get any feedback from Ipupu?
- **8205**: Hu-hum... So, this glyph just has the meaning of "sanative"? Why didn't they just write "healing," for crying out loud? Anyway, so where was I...
- **8206**: "Heretofore, the source of magick was primarily the extrinsic energies that fill terra and caelum."
- **8207**: "The Tarutaru had analyzed that extrinsic energy, classifying it into eight elements. These elements give birth to magick that resides in the soul to be woven into spells both sanative and hostile."
- **8208**: "However, after many long years of study, the existence of a converse of extrinsic energy, intrinsic energy from the soul itself, was discovered."
- **8209**: Phew! This book is way too complicated. I think I'll leave it here for today...
- **8211**: Let me see... What was that book about? Something to do with extrinsic energy and the soul's own intrinsic energy...?
- **8212**: That reminds me of something I heard in one of my lessons at the School of Magic... Magic from the heart that uses the soul's energy is what gave birth to magic dolls and automaton guards.
- **8283**: Shh...! Can't you see I'm in the middle of transcribing this book? Please keep your voice down!
- **8284**: There are many books and scrolls preserved in Windurst, but the most important one, with the highest historical value, is the "Book of the Gods."
- **8285**: The "Book of the Gods" is tightly guarded in innermost chambers of the Optistery. We don't know for sure what is contained in it or who wrote it.
- **8286**: As for this book, in the past it had been handed to the Yagudo by some wicked person. The scholar who retrieved the book back was able to reveal one of its secrets to us.
- **8287**: Just a second...?
- **8288**: My word! What are these brown smudges here? Thanks to these, I can't read the essential first page!
- **8289**: Hey, you again! You wouldn't be able to fetch me $1 and $2, would you? If I have both of them, I'll be able to clean away these smudges, leaving these pages as good as new!
- **8290**: Accept request for help? [Listen further./Decline.]
- **8291**: Well, I guess it can't be helped, then... I'll just have to give up until someone can get some for me.
- **8292**: I've heard that $1 can be obtained from the monsters in Ordelle's Caves. It's pretty far, but hey, you're an adventurer, aren't you?
- **8293**: I've heard that $1 can be obtained from the monsters in Ordelle's Caves.
- **8294**: If we can get $2 too, then we'll be able to wipe away those smudges in a jiffy. Good luck in finding them.
- **8299**: Oh, welcome back. Great. Now that I have these, we're set!
- **8300**: Here we go... Squeak, squeak, squeak... Swish, swish, swish!t
- **8301**: Look! See how clean it is! Huh? What the...? Oh, my word!
- **8302**: The "Book of the Gods" is tightly guarded in the innermost parts of the Optistery. We do not know for sure what is contained in it, nor who wrote it.
- **8303**: As for this book... In the past, some wicked person had handed it to the Yagudo. The scholar who retrieved the book was able to reveal one of its secrets to us.
- **8304**: Wondering why the writing in the "Book of the Gods" doesn't need transcribing? It's because the writing is penned with water from the Full Moon Fountain!
- **8305**: Only the Star Sibyl can enter the Full Moon Fountain... Oh...does that mean the author is actually...???
- **8306**: Yikes...! Oh, my word! Oh my word! I just realized...this is a restricted book! It's forbidden to move it, let alone transcribe it!!!
- **8307**: What in heaven's name is a restricted book doing here!? As soon as I start reading its contents aloud, I'm going to be caught for sure!
- **8308**: Hey, you... Here, I'll give you this, so keep this whole incident quiet! Promise not to tell anyone, okay?
- **8309**: Eww... What if those smudges I removed from the book were bloodstains...?
- **8310**: Ooo-ah! Perhaps that was the famed blood-sucking book of yore!? Shivers! Thank goodness it wasn't hungry, otherwise it could have attacked me!
- **9681**: How's the mission going? You know, the cleaning of the book vault?
- **9682**: Up until now, we've been giving up our holidays to keep things clean and tidy around here. But it looks like Minister Tosuka-Porika has finally agreed to get an adventurer to help us.
- **9703**: For some reason, the words "Book vault cleaning" have been written in hugey-wuge letters on our schedule board.
- **9704**: There must be some mistake. You've already cleaned out our book vault, rightaru?

## Events

### Event 65535

#### Metadata

| Field        | Value   |
|--------------|---------|
| Entrypoint   | 0x0000  |
| Data Size    | 1 bytes |
| Instructions | 1       |

```
      00 01 02 03 04 05 06 07  08 09 0A 0B 0C 0D 0E 0F
      -- -- -- -- -- -- -- --  -- -- -- -- -- -- -- --
0000: 00                                                .               
```

#### Opcodes

```
  0: 0x0000 [0x00] END_REQSTACK()
```

### Event 65535.1

#### Metadata

| Field        | Value    |
|--------------|----------|
| Entrypoint   | 0x0001   |
| Data Size    | 16 bytes |
| Instructions | 2        |

```
      00 01 02 03 04 05 06 07  08 09 0A 0B 0C 0D 0E 0F
      -- -- -- -- -- -- -- --  -- -- -- -- -- -- -- --
0000:    5B 00 80 F8 FF FF 7F  F8 FF FF 7F 74 6C 6B 30   [..........tlk0
0010: 00                                                .               
```

#### Opcodes

```
  0: 0x0001 [0x5B] LOAD_EXT_SCHEDULER: Load scheduler "tlk0" with entities [EventEntity, EventEntity], work=337*
  1: 0x0010 [0x00] END_REQSTACK()
```

### Event 65535.2

#### Metadata

| Field        | Value    |
|--------------|----------|
| Entrypoint   | 0x0011   |
| Data Size    | 22 bytes |
| Instructions | 4        |

```
      00 01 02 03 04 05 06 07  08 09 0A 0B 0C 0D 0E 0F
      -- -- -- -- -- -- -- --  -- -- -- -- -- -- -- --
0010:    53 F8 FF FF 7F F8 FF  FF 7F 74 6C 6B 30 5E 69   S........tlk0^i
0020: 64 6C 30 1C 01 80 00                              dl0....         
```

#### Opcodes

```
  0: 0x0011 [0x53] WAIT_SCHEDULER_TASK: Wait for scheduler "tlk0" with entities [EventEntity, EventEntity]
  1: 0x001E [0x5E] EventEntity goes idle (kills current action) (animation: "idl0")
  2: 0x0023 [0x1C] WAIT(30* ticks)
  3: 0x0026 [0x00] END_REQSTACK()
```

### Event 65535.3

#### Metadata

| Field        | Value    |
|--------------|----------|
| Entrypoint   | 0x0027   |
| Data Size    | 16 bytes |
| Instructions | 2        |

```
      00 01 02 03 04 05 06 07  08 09 0A 0B 0C 0D 0E 0F
      -- -- -- -- -- -- -- --  -- -- -- -- -- -- -- --
0020:                      5B  02 80 F8 FF FF 7F F8 FF         [........
0030: FF 7F 73 68 6B 30 00                              ..shk0.         
```

#### Opcodes

```
  0: 0x0027 [0x5B] LOAD_EXT_SCHEDULER: Load scheduler "shk0" with entities [EventEntity, EventEntity], work=339*
  1: 0x0036 [0x00] END_REQSTACK()
```

### Event 65535.4

#### Metadata

| Field        | Value    |
|--------------|----------|
| Entrypoint   | 0x0037   |
| Data Size    | 14 bytes |
| Instructions | 2        |

```
      00 01 02 03 04 05 06 07  08 09 0A 0B 0C 0D 0E 0F
      -- -- -- -- -- -- -- --  -- -- -- -- -- -- -- --
0030:                      53  F8 FF FF 7F F8 FF FF 7F         S........
0040: 73 68 6B 30 00                                    shk0.           
```

#### Opcodes

```
  0: 0x0037 [0x53] WAIT_SCHEDULER_TASK: Wait for scheduler "shk0" with entities [EventEntity, EventEntity]
  1: 0x0044 [0x00] END_REQSTACK()
```

### Event 65535.5

#### Metadata

| Field        | Value   |
|--------------|---------|
| Entrypoint   | 0x0045  |
| Data Size    | 9 bytes |
| Instructions | 3       |

```
      00 01 02 03 04 05 06 07  08 09 0A 0B 0C 0D 0E 0F
      -- -- -- -- -- -- -- --  -- -- -- -- -- -- -- --
0040:                5E 69 64  6C 30 1C 01 80 00             ^idl0....  
```

#### Opcodes

```
  0: 0x0045 [0x5E] EventEntity goes idle (kills current action) (animation: "idl0")
  1: 0x004A [0x1C] WAIT(30* ticks)
  2: 0x004D [0x00] END_REQSTACK()
```

### Event 372

#### Metadata

| Field        | Value    |
|--------------|----------|
| Entrypoint   | 0x004E   |
| Data Size    | 31 bytes |
| Instructions | 11       |

```
      00 01 02 03 04 05 06 07  08 09 0A 0B 0C 0D 0E 0F
      -- -- -- -- -- -- -- --  -- -- -- -- -- -- -- --
0040:                                            79 00                y.
0050: F8 FF FF 7F F0 FF FF 7F  1D 03 80 23 1D 04 80 23  ...........#...#
0060: 1D 05 80 23 7B F8 FF FF  7F 20 00 21 00           ...#{.... .!.   
```

#### Opcodes

```
  0: 0x004E [0x79] EventEntity looks at LocalPlayer (Basic look)
  1: 0x0058 [0x1D] PRINT_EVENT_MESSAGE(message_id=8172*)
    → "Shh...! Can't you see I'm in the middle of transcribing this book here? Please keep your voice down!"
  2: 0x005B [0x23] WAIT_FOR_DIALOG_INTERACTION
  3: 0x005C [0x1D] PRINT_EVENT_MESSAGE(message_id=8173*)
    → "This is the manuscript room. This is where we carry out the transcription of the library's older books into new books."
  4: 0x005F [0x23] WAIT_FOR_DIALOG_INTERACTION
  5: 0x0060 [0x1D] PRINT_EVENT_MESSAGE(message_id=8174*)
    → "This copying of manuscripts has been repeated for hundreds of years. It is a work that never finishes."
  6: 0x0063 [0x23] WAIT_FOR_DIALOG_INTERACTION
  7: 0x0064 [0x7B] EventEntity stops talking
  8: 0x0069 [0x20] SET_CLI_EVENT_UC_FLAG: Unlock player control
  9: 0x006B [0x21] END_EVENT
 10: 0x006C [0x00] END_REQSTACK()
```

### Event 162

#### Metadata

| Field        | Value    |
|--------------|----------|
| Entrypoint   | 0x006D   |
| Data Size    | 27 bytes |
| Instructions | 9        |

```
      00 01 02 03 04 05 06 07  08 09 0A 0B 0C 0D 0E 0F
      -- -- -- -- -- -- -- --  -- -- -- -- -- -- -- --
0060:                                         79 00 F8               y..
0070: FF FF 7F F0 FF FF 7F 1D  06 80 23 1D 07 80 23 7B  ..........#...#{
0080: F8 FF FF 7F 20 00 21 00                           .... .!.        
```

#### Opcodes

```
  0: 0x006D [0x79] EventEntity looks at LocalPlayer (Basic look)
  1: 0x0077 [0x1D] PRINT_EVENT_MESSAGE(message_id=7681*)
    → "One of the restricted books lost during the war has come to light?"
  2: 0x007A [0x23] WAIT_FOR_DIALOG_INTERACTION
  3: 0x007B [0x1D] PRINT_EVENT_MESSAGE(message_id=7682*)
    → "Tosuka-Porika has been searching so hard for those lost restricted books ever since he became minister."
  4: 0x007E [0x23] WAIT_FOR_DIALOG_INTERACTION
  5: 0x007F [0x7B] EventEntity stops talking
  6: 0x0084 [0x20] SET_CLI_EVENT_UC_FLAG: Unlock player control
  7: 0x0086 [0x21] END_EVENT
  8: 0x0087 [0x00] END_REQSTACK()
```

### Event 170

#### Metadata

| Field        | Value    |
|--------------|----------|
| Entrypoint   | 0x0088   |
| Data Size    | 27 bytes |
| Instructions | 9        |

```
      00 01 02 03 04 05 06 07  08 09 0A 0B 0C 0D 0E 0F
      -- -- -- -- -- -- -- --  -- -- -- -- -- -- -- --
0080:                          79 00 F8 FF FF 7F F0 FF          y.......
0090: FF 7F 1D 08 80 23 1D 09  80 23 7B F8 FF FF 7F 20  .....#...#{.... 
00A0: 00 21 00                                          .!.             
```

#### Opcodes

```
  0: 0x0088 [0x79] EventEntity looks at LocalPlayer (Basic look)
  1: 0x0092 [0x1D] PRINT_EVENT_MESSAGE(message_id=7702*)
    → "There are many restricted books, but the Book of the Gods is in a class of its own."
  2: 0x0095 [0x23] WAIT_FOR_DIALOG_INTERACTION
  3: 0x0096 [0x1D] PRINT_EVENT_MESSAGE(message_id=7703*)
    → "It's called a history book, but it doesn't just contain history. Sorry. It's not my specialty, so I don't know the details."
  4: 0x0099 [0x23] WAIT_FOR_DIALOG_INTERACTION
  5: 0x009A [0x7B] EventEntity stops talking
  6: 0x009F [0x20] SET_CLI_EVENT_UC_FLAG: Unlock player control
  7: 0x00A1 [0x21] END_EVENT
  8: 0x00A2 [0x00] END_REQSTACK()
```

### Event 381

#### Metadata

| Field        | Value     |
|--------------|-----------|
| Entrypoint   | 0x00A3    |
| Data Size    | 134 bytes |
| Instructions | 26        |

```
      00 01 02 03 04 05 06 07  08 09 0A 0B 0C 0D 0E 0F
      -- -- -- -- -- -- -- --  -- -- -- -- -- -- -- --
00A0:          79 00 F8 FF FF  7F F0 FF FF 7F 29 08 14     y.........)..
00B0: E0 0E 01 01 29 0B 14 E0  0E 01 0A 29 0B 14 E0 0E  ....)......)....
00C0: 01 0B 5F 01 50 F8 FF FF  7F F8 FF FF 7F 73 68 61  .._.P........sha
00D0: 30 29 08 14 E0 0E 01 05  29 0B 14 E0 0E 01 0C 1E  0)......).......
00E0: F0 FF FF 7F 6F 70 29 0B  14 E0 0E 01 0D 24 0A 80  ....op)......$..
00F0: 0B 80 0B 80 25 02 00 10  0B 80 00 0C 01 03 01 10  ....%...........
0100: 0B 80 29 0B 14 E0 0E 01  0F 01 23 01 02 00 10 0C  ..).......#.....
0110: 80 00 23 01 03 01 10 0C  80 29 0B 14 E0 0E 01 0E  ..#......)......
0120: 01 23 01 5F 00 20 00 21  00                       .#._. .!.       
```

#### Opcodes

```
  0: 0x00A3 [0x79] EventEntity looks at LocalPlayer (Basic look)
  1: 0x00AD [0x29] REQ_SET_WAIT(priority=0x08, entity_id=Hariga-Origa (ID: 17752084/0x010EE014), tag_num=0x01)
  2: 0x00B4 [0x29] REQ_SET_WAIT(priority=0x0B, entity_id=Hariga-Origa (ID: 17752084/0x010EE014), tag_num=0x0A)
  3: 0x00BB [0x29] REQ_SET_WAIT(priority=0x0B, entity_id=Hariga-Origa (ID: 17752084/0x010EE014), tag_num=0x0B)
  4: 0x00C2 [0x5F] MULTI_HANDLER_COMPLEX(mode=0x01 - Toggle Render.Flags0 bit 29)
  5: 0x00C4 [0x50] END_SCHEDULER_TASK: End scheduler "sh" with entities [0xFFF8, 0xFFF8], work=[32767, 32767]
  6: 0x00D1 [0x29] REQ_SET_WAIT(priority=0x08, entity_id=Hariga-Origa (ID: 17752084/0x010EE014), tag_num=0x05)
  7: 0x00D8 [0x29] REQ_SET_WAIT(priority=0x0B, entity_id=Hariga-Origa (ID: 17752084/0x010EE014), tag_num=0x0C)
  8: 0x00DF [0x1E] EventEntity looks at LocalPlayer and starts talking
  9: 0x00E4 [0x6F] WAIT_FRAME_DELAY: Yield until WaitTime reaches zero
 10: 0x00E5 [0x70] WAIT_ENTITY_RENDER_FLAG: Wait while EventEntity->Render.Flags3 bit 2 is set (cancel turn if not)
 11: 0x00E6 [0x29] REQ_SET_WAIT(priority=0x0B, entity_id=Hariga-Origa (ID: 17752084/0x010EE014), tag_num=0x0D)
 12: 0x00ED [0x24] CREATE_DIALOG(message_id=8193*, default_option=0*, option_flags=0*)
    → "Listen to Hariga-Origa's request? [Listen./Don't listen.]"
 13: 0x00F4 [0x25] WAIT_DIALOG_SELECT()
 14: 0x00F5 [0x02] IF !(Work_Zone[0] == 0*) GOTO 0x010C
 15: 0x00FD [0x03] Work_Zone[1] = 0*
 16: 0x0102 [0x29] REQ_SET_WAIT(priority=0x0B, entity_id=Hariga-Origa (ID: 17752084/0x010EE014), tag_num=0x0F)
 17: 0x0109 [0x01] GOTO 0x0123
 18: 0x010C [0x02] IF !(Work_Zone[0] == 1*) GOTO 0x0123
 19: 0x0114 [0x03] Work_Zone[1] = 1*
 20: 0x0119 [0x29] REQ_SET_WAIT(priority=0x0B, entity_id=Hariga-Origa (ID: 17752084/0x010EE014), tag_num=0x0E)
 21: 0x0120 [0x01] GOTO 0x0123

SUBROUTINE_0123:
 22: 0x0123 [0x5F] MULTI_HANDLER_COMPLEX(mode=0x00 - Toggle Render.Flags0 bit 29)
 23: 0x0125 [0x20] SET_CLI_EVENT_UC_FLAG: Unlock player control
 24: 0x0127 [0x21] END_EVENT
 25: 0x0128 [0x00] END_REQSTACK()
```

### Event 65535.6

#### Metadata

| Field        | Value   |
|--------------|---------|
| Entrypoint   | 0x0129  |
| Data Size    | 5 bytes |
| Instructions | 3       |

```
      00 01 02 03 04 05 06 07  08 09 0A 0B 0C 0D 0E 0F
      -- -- -- -- -- -- -- --  -- -- -- -- -- -- -- --
0120:                             1D 0D 80 23 00                 ...#.  
```

#### Opcodes

```
  0: 0x0129 [0x1D] PRINT_EVENT_MESSAGE(message_id=8187*)
    → "Shh...! Can't you see I'm in the middle of transcribing this book here? Please keep your voice down!"
  1: 0x012C [0x23] WAIT_FOR_DIALOG_INTERACTION
  2: 0x012D [0x00] END_REQSTACK()
```

### Event 65535.7

#### Metadata

| Field        | Value   |
|--------------|---------|
| Entrypoint   | 0x012E  |
| Data Size    | 9 bytes |
| Instructions | 5       |

```
      00 01 02 03 04 05 06 07  08 09 0A 0B 0C 0D 0E 0F
      -- -- -- -- -- -- -- --  -- -- -- -- -- -- -- --
0120:                                            1D 0E                ..
0130: 80 23 1D 0F 80 23 00                              .#...#.         
```

#### Opcodes

```
  0: 0x012E [0x1D] PRINT_EVENT_MESSAGE(message_id=8188*)
    → ""Heretofore, source of magick...primarily extrinsic energies...fill terra and caelum.""
  1: 0x0131 [0x23] WAIT_FOR_DIALOG_INTERACTION
  2: 0x0132 [0x1D] PRINT_EVENT_MESSAGE(message_id=8189*)
    → ""Tarutaru...analyzed...extrinsic energy...classifying into eight...elements. These...give birth magick...resides in soul...woven into spells...both...er, both...""
  3: 0x0135 [0x23] WAIT_FOR_DIALOG_INTERACTION
  4: 0x0136 [0x00] END_REQSTACK()
```

### Event 65535.8

#### Metadata

| Field        | Value   |
|--------------|---------|
| Entrypoint   | 0x0137  |
| Data Size    | 9 bytes |
| Instructions | 5       |

```
      00 01 02 03 04 05 06 07  08 09 0A 0B 0C 0D 0E 0F
      -- -- -- -- -- -- -- --  -- -- -- -- -- -- -- --
0130:                      1D  10 80 23 1D 11 80 23 00         ...#...#.
```

#### Opcodes

```
  0: 0x0137 [0x1D] PRINT_EVENT_MESSAGE(message_id=8190*)
    → "...What's this?"
  1: 0x013A [0x23] WAIT_FOR_DIALOG_INTERACTION
  2: 0x013B [0x1D] PRINT_EVENT_MESSAGE(message_id=8191*)
    → "I don't know how to read this glyph. That's the trouble with ancient writings; the letters and characters are too hard to read..."
  3: 0x013E [0x23] WAIT_FOR_DIALOG_INTERACTION
  4: 0x013F [0x00] END_REQSTACK()
```

### Event 65535.9

#### Metadata

| Field        | Value   |
|--------------|---------|
| Entrypoint   | 0x0140  |
| Data Size    | 5 bytes |
| Instructions | 3       |

```
      00 01 02 03 04 05 06 07  08 09 0A 0B 0C 0D 0E 0F
      -- -- -- -- -- -- -- --  -- -- -- -- -- -- -- --
0140: 1D 12 80 23 00                                    ...#.           
```

#### Opcodes

```
  0: 0x0140 [0x1D] PRINT_EVENT_MESSAGE(message_id=8192*)
    → "Hey, you there! You wouldn't happen to be passing through West Sarutabaruta anytime soon, would you? If so, I have a little favor to ask..."
  1: 0x0143 [0x23] WAIT_FOR_DIALOG_INTERACTION
  2: 0x0144 [0x00] END_REQSTACK()
```

### Event 65535.10

#### Metadata

| Field        | Value   |
|--------------|---------|
| Entrypoint   | 0x0145  |
| Data Size    | 5 bytes |
| Instructions | 3       |

```
      00 01 02 03 04 05 06 07  08 09 0A 0B 0C 0D 0E 0F
      -- -- -- -- -- -- -- --  -- -- -- -- -- -- -- --
0140:                1D 13 80  23 00                         ...#.      
```

#### Opcodes

```
  0: 0x0145 [0x1D] PRINT_EVENT_MESSAGE(message_id=8194*)
    → "Well, I guess it can't be helped then... I'll just have to give up until someone can go there for me."
  1: 0x0148 [0x23] WAIT_FOR_DIALOG_INTERACTION
  2: 0x0149 [0x00] END_REQSTACK()
```

### Event 65535.11

#### Metadata

| Field        | Value    |
|--------------|----------|
| Entrypoint   | 0x014A   |
| Data Size    | 13 bytes |
| Instructions | 7        |

```
      00 01 02 03 04 05 06 07  08 09 0A 0B 0C 0D 0E 0F
      -- -- -- -- -- -- -- --  -- -- -- -- -- -- -- --
0140:                                1D 14 80 23 1D 15            ...#..
0150: 80 23 1D 16 80 23 00                              .#...#.         
```

#### Opcodes

```
  0: 0x014A [0x1D] PRINT_EVENT_MESSAGE(message_id=8195*)
    → "One of our researchers just headed off to the Horutoto Ruins in West Sarutabaruta."
  1: 0x014D [0x23] WAIT_FOR_DIALOG_INTERACTION
  2: 0x014E [0x1D] PRINT_EVENT_MESSAGE(message_id=8196*)
    → "She specializes in paleography, so she should be able to read these glyphs with no trouble at all."
  3: 0x0151 [0x23] WAIT_FOR_DIALOG_INTERACTION
  4: 0x0152 [0x1D] PRINT_EVENT_MESSAGE(message_id=8197*)
    → "Could you do me a favor and pass her this memo? Her name is Ipupu."
  5: 0x0155 [0x23] WAIT_FOR_DIALOG_INTERACTION
  6: 0x0156 [0x00] END_REQSTACK()
```

### Event 382

#### Metadata

| Field        | Value    |
|--------------|----------|
| Entrypoint   | 0x0157   |
| Data Size    | 27 bytes |
| Instructions | 9        |

```
      00 01 02 03 04 05 06 07  08 09 0A 0B 0C 0D 0E 0F
      -- -- -- -- -- -- -- --  -- -- -- -- -- -- -- --
0150:                      79  00 F8 FF FF 7F F0 FF FF         y........
0160: 7F 1D 17 80 23 1D 18 80  23 7B F8 FF FF 7F 20 00  ....#...#{.... .
0170: 21 00                                             !.              
```

#### Opcodes

```
  0: 0x0157 [0x79] EventEntity looks at LocalPlayer (Basic look)
  1: 0x0161 [0x1D] PRINT_EVENT_MESSAGE(message_id=8198*)
    → "Hurry up and pass that memo to Ipupu. She's in West Sarutabaruta, probably in one of the magic towers of the Horutoto Ruins."
  2: 0x0164 [0x23] WAIT_FOR_DIALOG_INTERACTION
  3: 0x0165 [0x1D] PRINT_EVENT_MESSAGE(message_id=8199*)
    → "Until I can read the glyph I wrote in that memo, I have to give up... But I can't rest now, as I have so many other books to do. Guess I'll just have to get on with them in the meantime."
  4: 0x0168 [0x23] WAIT_FOR_DIALOG_INTERACTION
  5: 0x0169 [0x7B] EventEntity stops talking
  6: 0x016E [0x20] SET_CLI_EVENT_UC_FLAG: Unlock player control
  7: 0x0170 [0x21] END_EVENT
  8: 0x0171 [0x00] END_REQSTACK()
```

### Event 385

#### Metadata

| Field        | Value     |
|--------------|-----------|
| Entrypoint   | 0x0172    |
| Data Size    | 144 bytes |
| Instructions | 28        |

```
      00 01 02 03 04 05 06 07  08 09 0A 0B 0C 0D 0E 0F
      -- -- -- -- -- -- -- --  -- -- -- -- -- -- -- --
0170:       20 01 42 5F 01 50  F8 FF FF 7F F8 FF FF 7F     .B_.P........
0180: 73 68 61 30 29 08 14 E0  0E 01 05 1E F0 FF FF 7F  sha0)...........
0190: 6F 70 29 0B 14 E0 0E 01  12 29 0B 14 E0 0E 01 13  op)......)......
01A0: 4B 14 E0 0E 01 19 80 6F  76 14 E0 0E 01 2C F8 FF  K......ov....,..
01B0: FF 7F F8 FF FF 7F 73 68  61 30 29 0B 14 E0 0E 01  ......sha0).....
01C0: 14 50 F8 FF FF 7F F8 FF  FF 7F 73 68 61 30 29 08  .P........sha0).
01D0: 14 E0 0E 01 05 29 0B 14  E0 0E 01 15 1E F0 FF FF  .....)..........
01E0: 7F 6F 70 2B 14 E0 0E 01  1A 80 23 45 1B 80 F0 FF  .op+......#E....
01F0: FF 7F F0 FF FF 7F 71 73  74 63 0B 80 5F 00 20 00  ......qstc.._. .
0200: 21 00                                             !.              
```

#### Opcodes

```
  0: 0x0172 [0x20] SET_CLI_EVENT_UC_FLAG: Lock player control
  1: 0x0174 [0x42] SET_CLI_EVENT_CANCEL_DATA()
  2: 0x0175 [0x5F] MULTI_HANDLER_COMPLEX(mode=0x01 - Toggle Render.Flags0 bit 29)
  3: 0x0177 [0x50] END_SCHEDULER_TASK: End scheduler "sh" with entities [0xFFF8, 0xFFF8], work=[32767, 32767]
  4: 0x0184 [0x29] REQ_SET_WAIT(priority=0x08, entity_id=Hariga-Origa (ID: 17752084/0x010EE014), tag_num=0x05)
  5: 0x018B [0x1E] EventEntity looks at LocalPlayer and starts talking
  6: 0x0190 [0x6F] WAIT_FRAME_DELAY: Yield until WaitTime reaches zero
  7: 0x0191 [0x70] WAIT_ENTITY_RENDER_FLAG: Wait while EventEntity->Render.Flags3 bit 2 is set (cancel turn if not)
  8: 0x0192 [0x29] REQ_SET_WAIT(priority=0x0B, entity_id=Hariga-Origa (ID: 17752084/0x010EE014), tag_num=0x12)
  9: 0x0199 [0x29] REQ_SET_WAIT(priority=0x0B, entity_id=Hariga-Origa (ID: 17752084/0x010EE014), tag_num=0x13)
 10: 0x01A0 [0x4B] UPDATE_ENTITY_YAW(entity=Hariga-Origa (ID: 17752084/0x010EE014), yaw=16.6°*)
 11: 0x01A7 [0x6F] WAIT_FRAME_DELAY: Yield until WaitTime reaches zero
 12: 0x01A8 [0x76] CHECK_ENTITY_RENDER_FLAGS: Wait until Hariga-Origa (ID: 17752084/0x010EE014) Render.Flags0 and Render.Flags3 conditions are met
 13: 0x01AD [0x2C] CREATE_SCHEDULER_TASK: Create scheduler "sha0" with entities [EventEntity, EventEntity]
 14: 0x01BA [0x29] REQ_SET_WAIT(priority=0x0B, entity_id=Hariga-Origa (ID: 17752084/0x010EE014), tag_num=0x14)
 15: 0x01C1 [0x50] END_SCHEDULER_TASK: End scheduler "sh" with entities [0xFFF8, 0xFFF8], work=[32767, 32767]
 16: 0x01CE [0x29] REQ_SET_WAIT(priority=0x08, entity_id=Hariga-Origa (ID: 17752084/0x010EE014), tag_num=0x05)
 17: 0x01D5 [0x29] REQ_SET_WAIT(priority=0x0B, entity_id=Hariga-Origa (ID: 17752084/0x010EE014), tag_num=0x15)
 18: 0x01DC [0x1E] EventEntity looks at LocalPlayer and starts talking
 19: 0x01E1 [0x6F] WAIT_FRAME_DELAY: Yield until WaitTime reaches zero
 20: 0x01E2 [0x70] WAIT_ENTITY_RENDER_FLAG: Wait while EventEntity->Render.Flags3 bit 2 is set (cancel turn if not)
 21: 0x01E3 [0x2B] Hariga-Origa (ID: 17752084/0x010EE014) [8210*]:
    → "Oh, that's right, I had better reward you with something for helping me out there. Let me see... How about this map I have here? I'm sure you'll find this useful in your adventures!"
 22: 0x01EA [0x23] WAIT_FOR_DIALOG_INTERACTION
 23: 0x01EB [0x45] LOAD_SCHEDULED_TASK: Load scheduler "qstc" with entities [LocalPlayer, LocalPlayer], work=[201*, 0*]
 24: 0x01FC [0x5F] MULTI_HANDLER_COMPLEX(mode=0x00 - Toggle Render.Flags0 bit 29)
 25: 0x01FE [0x20] SET_CLI_EVENT_UC_FLAG: Unlock player control
 26: 0x0200 [0x21] END_EVENT
 27: 0x0201 [0x00] END_REQSTACK()
```

### Event 65535.12

#### Metadata

| Field        | Value   |
|--------------|---------|
| Entrypoint   | 0x0202  |
| Data Size    | 5 bytes |
| Instructions | 3       |

```
      00 01 02 03 04 05 06 07  08 09 0A 0B 0C 0D 0E 0F
      -- -- -- -- -- -- -- --  -- -- -- -- -- -- -- --
0200:       1D 1C 80 23 00                                ...#.         
```

#### Opcodes

```
  0: 0x0202 [0x1D] PRINT_EVENT_MESSAGE(message_id=8204*)
    → "Oh, welcome back. Were you able to get any feedback from Ipupu?"
  1: 0x0205 [0x23] WAIT_FOR_DIALOG_INTERACTION
  2: 0x0206 [0x00] END_REQSTACK()
```

### Event 65535.13

#### Metadata

| Field        | Value   |
|--------------|---------|
| Entrypoint   | 0x0207  |
| Data Size    | 5 bytes |
| Instructions | 3       |

```
      00 01 02 03 04 05 06 07  08 09 0A 0B 0C 0D 0E 0F
      -- -- -- -- -- -- -- --  -- -- -- -- -- -- -- --
0200:                      1D  1D 80 23 00                     ...#.    
```

#### Opcodes

```
  0: 0x0207 [0x1D] PRINT_EVENT_MESSAGE(message_id=8205*)
    → "Hu-hum... So, this glyph just has the meaning of "sanative"? Why didn't they just write "healing," for crying out loud? Anyway, so where was I..."
  1: 0x020A [0x23] WAIT_FOR_DIALOG_INTERACTION
  2: 0x020B [0x00] END_REQSTACK()
```

### Event 65535.14

#### Metadata

| Field        | Value    |
|--------------|----------|
| Entrypoint   | 0x020C   |
| Data Size    | 13 bytes |
| Instructions | 7        |

```
      00 01 02 03 04 05 06 07  08 09 0A 0B 0C 0D 0E 0F
      -- -- -- -- -- -- -- --  -- -- -- -- -- -- -- --
0200:                                      1D 1E 80 23              ...#
0210: 1D 1F 80 23 1D 20 80 23  00                       ...#. .#.       
```

#### Opcodes

```
  0: 0x020C [0x1D] PRINT_EVENT_MESSAGE(message_id=8206*)
    → ""Heretofore, the source of magick was primarily the extrinsic energies that fill terra and caelum.""
  1: 0x020F [0x23] WAIT_FOR_DIALOG_INTERACTION
  2: 0x0210 [0x1D] PRINT_EVENT_MESSAGE(message_id=8207*)
    → ""The Tarutaru had analyzed that extrinsic energy, classifying it into eight elements. These elements give birth to magick that resides in the soul to be woven into spells both sanative and hostile.""
  3: 0x0213 [0x23] WAIT_FOR_DIALOG_INTERACTION
  4: 0x0214 [0x1D] PRINT_EVENT_MESSAGE(message_id=8208*)
    → ""However, after many long years of study, the existence of a converse of extrinsic energy, intrinsic energy from the soul itself, was discovered.""
  5: 0x0217 [0x23] WAIT_FOR_DIALOG_INTERACTION
  6: 0x0218 [0x00] END_REQSTACK()
```

### Event 65535.15

#### Metadata

| Field        | Value   |
|--------------|---------|
| Entrypoint   | 0x0219  |
| Data Size    | 5 bytes |
| Instructions | 3       |

```
      00 01 02 03 04 05 06 07  08 09 0A 0B 0C 0D 0E 0F
      -- -- -- -- -- -- -- --  -- -- -- -- -- -- -- --
0210:                             1D 21 80 23 00                 .!.#.  
```

#### Opcodes

```
  0: 0x0219 [0x1D] PRINT_EVENT_MESSAGE(message_id=8209*)
    → "Phew! This book is way too complicated. I think I'll leave it here for today..."
  1: 0x021C [0x23] WAIT_FOR_DIALOG_INTERACTION
  2: 0x021D [0x00] END_REQSTACK()
```

### Event 386

#### Metadata

| Field        | Value    |
|--------------|----------|
| Entrypoint   | 0x021E   |
| Data Size    | 27 bytes |
| Instructions | 9        |

```
      00 01 02 03 04 05 06 07  08 09 0A 0B 0C 0D 0E 0F
      -- -- -- -- -- -- -- --  -- -- -- -- -- -- -- --
0210:                                            79 00                y.
0220: F8 FF FF 7F F0 FF FF 7F  1D 22 80 23 1D 23 80 23  .........".#.#.#
0230: 7B F8 FF FF 7F 20 00 21  00                       {.... .!.       
```

#### Opcodes

```
  0: 0x021E [0x79] EventEntity looks at LocalPlayer (Basic look)
  1: 0x0228 [0x1D] PRINT_EVENT_MESSAGE(message_id=8211*)
    → "Let me see... What was that book about? Something to do with extrinsic energy and the soul's own intrinsic energy...?"
  2: 0x022B [0x23] WAIT_FOR_DIALOG_INTERACTION
  3: 0x022C [0x1D] PRINT_EVENT_MESSAGE(message_id=8212*)
    → "That reminds me of something I heard in one of my lessons at the School of Magic... Magic from the heart that uses the soul's energy is what gave birth to magic dolls and automaton guards."
  4: 0x022F [0x23] WAIT_FOR_DIALOG_INTERACTION
  5: 0x0230 [0x7B] EventEntity stops talking
  6: 0x0235 [0x20] SET_CLI_EVENT_UC_FLAG: Unlock player control
  7: 0x0237 [0x21] END_EVENT
  8: 0x0238 [0x00] END_REQSTACK()
```

### Event 413

#### Metadata

| Field        | Value     |
|--------------|-----------|
| Entrypoint   | 0x0239    |
| Data Size    | 134 bytes |
| Instructions | 26        |

```
      00 01 02 03 04 05 06 07  08 09 0A 0B 0C 0D 0E 0F
      -- -- -- -- -- -- -- --  -- -- -- -- -- -- -- --
0230:                             79 00 F8 FF FF 7F F0           y......
0240: FF FF 7F 29 08 14 E0 0E  01 01 29 0B 14 E0 0E 01  ...)......).....
0250: 18 29 0B 14 E0 0E 01 19  5F 01 50 F8 FF FF 7F F8  .)......_.P.....
0260: FF FF 7F 73 68 61 30 29  08 14 E0 0E 01 05 29 0B  ...sha0)......).
0270: 14 E0 0E 01 1A 1E F0 FF  FF 7F 6F 70 29 0B 14 E0  ..........op)...
0280: 0E 01 1B 24 24 80 0B 80  0B 80 25 02 00 10 0B 80  ...$$.....%.....
0290: 00 A2 02 03 01 10 0B 80  29 0B 14 E0 0E 01 1D 01  ........).......
02A0: B9 02 02 00 10 0C 80 00  B9 02 03 01 10 0C 80 29  ...............)
02B0: 0B 14 E0 0E 01 1C 01 B9  02 5F 00 20 00 21 00     ........._. .!. 
```

#### Opcodes

```
  0: 0x0239 [0x79] EventEntity looks at LocalPlayer (Basic look)
  1: 0x0243 [0x29] REQ_SET_WAIT(priority=0x08, entity_id=Hariga-Origa (ID: 17752084/0x010EE014), tag_num=0x01)
  2: 0x024A [0x29] REQ_SET_WAIT(priority=0x0B, entity_id=Hariga-Origa (ID: 17752084/0x010EE014), tag_num=0x18)
  3: 0x0251 [0x29] REQ_SET_WAIT(priority=0x0B, entity_id=Hariga-Origa (ID: 17752084/0x010EE014), tag_num=0x19)
  4: 0x0258 [0x5F] MULTI_HANDLER_COMPLEX(mode=0x01 - Toggle Render.Flags0 bit 29)
  5: 0x025A [0x50] END_SCHEDULER_TASK: End scheduler "sh" with entities [0xFFF8, 0xFFF8], work=[32767, 32767]
  6: 0x0267 [0x29] REQ_SET_WAIT(priority=0x08, entity_id=Hariga-Origa (ID: 17752084/0x010EE014), tag_num=0x05)
  7: 0x026E [0x29] REQ_SET_WAIT(priority=0x0B, entity_id=Hariga-Origa (ID: 17752084/0x010EE014), tag_num=0x1A)
  8: 0x0275 [0x1E] EventEntity looks at LocalPlayer and starts talking
  9: 0x027A [0x6F] WAIT_FRAME_DELAY: Yield until WaitTime reaches zero
 10: 0x027B [0x70] WAIT_ENTITY_RENDER_FLAG: Wait while EventEntity->Render.Flags3 bit 2 is set (cancel turn if not)
 11: 0x027C [0x29] REQ_SET_WAIT(priority=0x0B, entity_id=Hariga-Origa (ID: 17752084/0x010EE014), tag_num=0x1B)
 12: 0x0283 [0x24] CREATE_DIALOG(message_id=8290*, default_option=0*, option_flags=0*)
    → "Accept request for help? [Listen further./Decline.]"
 13: 0x028A [0x25] WAIT_DIALOG_SELECT()
 14: 0x028B [0x02] IF !(Work_Zone[0] == 0*) GOTO 0x02A2
 15: 0x0293 [0x03] Work_Zone[1] = 0*
 16: 0x0298 [0x29] REQ_SET_WAIT(priority=0x0B, entity_id=Hariga-Origa (ID: 17752084/0x010EE014), tag_num=0x1D)
 17: 0x029F [0x01] GOTO 0x02B9
 18: 0x02A2 [0x02] IF !(Work_Zone[0] == 1*) GOTO 0x02B9
 19: 0x02AA [0x03] Work_Zone[1] = 1*
 20: 0x02AF [0x29] REQ_SET_WAIT(priority=0x0B, entity_id=Hariga-Origa (ID: 17752084/0x010EE014), tag_num=0x1C)
 21: 0x02B6 [0x01] GOTO 0x02B9

SUBROUTINE_02B9:
 22: 0x02B9 [0x5F] MULTI_HANDLER_COMPLEX(mode=0x00 - Toggle Render.Flags0 bit 29)
 23: 0x02BB [0x20] SET_CLI_EVENT_UC_FLAG: Unlock player control
 24: 0x02BD [0x21] END_EVENT
 25: 0x02BE [0x00] END_REQSTACK()
```

### Event 65535.16

#### Metadata

| Field        | Value   |
|--------------|---------|
| Entrypoint   | 0x02BF  |
| Data Size    | 5 bytes |
| Instructions | 3       |

```
      00 01 02 03 04 05 06 07  08 09 0A 0B 0C 0D 0E 0F
      -- -- -- -- -- -- -- --  -- -- -- -- -- -- -- --
02B0:                                               1D                 .
02C0: 25 80 23 00                                       %.#.            
```

#### Opcodes

```
  0: 0x02BF [0x1D] PRINT_EVENT_MESSAGE(message_id=8283*)
    → "Shh...! Can't you see I'm in the middle of transcribing this book? Please keep your voice down!"
  1: 0x02C2 [0x23] WAIT_FOR_DIALOG_INTERACTION
  2: 0x02C3 [0x00] END_REQSTACK()
```

### Event 65535.17

#### Metadata

| Field        | Value    |
|--------------|----------|
| Entrypoint   | 0x02C4   |
| Data Size    | 13 bytes |
| Instructions | 7        |

```
      00 01 02 03 04 05 06 07  08 09 0A 0B 0C 0D 0E 0F
      -- -- -- -- -- -- -- --  -- -- -- -- -- -- -- --
02C0:             1D 26 80 23  1D 27 80 23 1D 28 80 23      .&.#.'.#.(.#
02D0: 00                                                .               
```

#### Opcodes

```
  0: 0x02C4 [0x1D] PRINT_EVENT_MESSAGE(message_id=8284*)
    → "There are many books and scrolls preserved in Windurst, but the most important one, with the highest historical value, is the "Book of the Gods.""
  1: 0x02C7 [0x23] WAIT_FOR_DIALOG_INTERACTION
  2: 0x02C8 [0x1D] PRINT_EVENT_MESSAGE(message_id=8285*)
    → "The "Book of the Gods" is tightly guarded in innermost chambers of the Optistery. We don't know for sure what is contained in it or who wrote it."
  3: 0x02CB [0x23] WAIT_FOR_DIALOG_INTERACTION
  4: 0x02CC [0x1D] PRINT_EVENT_MESSAGE(message_id=8286*)
    → "As for this book, in the past it had been handed to the Yagudo by some wicked person. The scholar who retrieved the book back was able to reveal one of its secrets to us."
  5: 0x02CF [0x23] WAIT_FOR_DIALOG_INTERACTION
  6: 0x02D0 [0x00] END_REQSTACK()
```

### Event 65535.18

#### Metadata

| Field        | Value   |
|--------------|---------|
| Entrypoint   | 0x02D1  |
| Data Size    | 9 bytes |
| Instructions | 5       |

```
      00 01 02 03 04 05 06 07  08 09 0A 0B 0C 0D 0E 0F
      -- -- -- -- -- -- -- --  -- -- -- -- -- -- -- --
02D0:    1D 29 80 23 1D 2A 80  23 00                     .).#.*.#.      
```

#### Opcodes

```
  0: 0x02D1 [0x1D] PRINT_EVENT_MESSAGE(message_id=8287*)
    → "Just a second...?"
  1: 0x02D4 [0x23] WAIT_FOR_DIALOG_INTERACTION
  2: 0x02D5 [0x1D] PRINT_EVENT_MESSAGE(message_id=8288*)
    → "My word! What are these brown smudges here? Thanks to these, I can't read the essential first page!"
  3: 0x02D8 [0x23] WAIT_FOR_DIALOG_INTERACTION
  4: 0x02D9 [0x00] END_REQSTACK()
```

### Event 65535.19

#### Metadata

| Field        | Value   |
|--------------|---------|
| Entrypoint   | 0x02DA  |
| Data Size    | 5 bytes |
| Instructions | 3       |

```
      00 01 02 03 04 05 06 07  08 09 0A 0B 0C 0D 0E 0F
      -- -- -- -- -- -- -- --  -- -- -- -- -- -- -- --
02D0:                                1D 2B 80 23 00               .+.#. 
```

#### Opcodes

```
  0: 0x02DA [0x1D] PRINT_EVENT_MESSAGE(message_id=8289*)
    → "Hey, you again! You wouldn't be able to fetch me $1 and $2, would you? If I have both of them, I'll be able to clean away these smudges, leaving these pages as good as new!"
  1: 0x02DD [0x23] WAIT_FOR_DIALOG_INTERACTION
  2: 0x02DE [0x00] END_REQSTACK()
```

### Event 65535.20

#### Metadata

| Field        | Value   |
|--------------|---------|
| Entrypoint   | 0x02DF  |
| Data Size    | 5 bytes |
| Instructions | 3       |

```
      00 01 02 03 04 05 06 07  08 09 0A 0B 0C 0D 0E 0F
      -- -- -- -- -- -- -- --  -- -- -- -- -- -- -- --
02D0:                                               1D                 .
02E0: 2C 80 23 00                                       ,.#.            
```

#### Opcodes

```
  0: 0x02DF [0x1D] PRINT_EVENT_MESSAGE(message_id=8291*)
    → "Well, I guess it can't be helped, then... I'll just have to give up until someone can get some for me."
  1: 0x02E2 [0x23] WAIT_FOR_DIALOG_INTERACTION
  2: 0x02E3 [0x00] END_REQSTACK()
```

### Event 65535.21

#### Metadata

| Field        | Value   |
|--------------|---------|
| Entrypoint   | 0x02E4  |
| Data Size    | 5 bytes |
| Instructions | 3       |

```
      00 01 02 03 04 05 06 07  08 09 0A 0B 0C 0D 0E 0F
      -- -- -- -- -- -- -- --  -- -- -- -- -- -- -- --
02E0:             1D 2D 80 23  00                           .-.#.       
```

#### Opcodes

```
  0: 0x02E4 [0x1D] PRINT_EVENT_MESSAGE(message_id=8292*)
    → "I've heard that $1 can be obtained from the monsters in Ordelle's Caves. It's pretty far, but hey, you're an adventurer, aren't you?"
  1: 0x02E7 [0x23] WAIT_FOR_DIALOG_INTERACTION
  2: 0x02E8 [0x00] END_REQSTACK()
```

### Event 414

#### Metadata

| Field        | Value    |
|--------------|----------|
| Entrypoint   | 0x02E9   |
| Data Size    | 27 bytes |
| Instructions | 9        |

```
      00 01 02 03 04 05 06 07  08 09 0A 0B 0C 0D 0E 0F
      -- -- -- -- -- -- -- --  -- -- -- -- -- -- -- --
02E0:                             79 00 F8 FF FF 7F F0           y......
02F0: FF FF 7F 1D 2E 80 23 1D  2F 80 23 7B F8 FF FF 7F  ......#./.#{....
0300: 20 00 21 00                                        .!.            
```

#### Opcodes

```
  0: 0x02E9 [0x79] EventEntity looks at LocalPlayer (Basic look)
  1: 0x02F3 [0x1D] PRINT_EVENT_MESSAGE(message_id=8293*)
    → "I've heard that $1 can be obtained from the monsters in Ordelle's Caves."
  2: 0x02F6 [0x23] WAIT_FOR_DIALOG_INTERACTION
  3: 0x02F7 [0x1D] PRINT_EVENT_MESSAGE(message_id=8294*)
    → "If we can get $2 too, then we'll be able to wipe away those smudges in a jiffy. Good luck in finding them."
  4: 0x02FA [0x23] WAIT_FOR_DIALOG_INTERACTION
  5: 0x02FB [0x7B] EventEntity stops talking
  6: 0x0300 [0x20] SET_CLI_EVENT_UC_FLAG: Unlock player control
  7: 0x0302 [0x21] END_EVENT
  8: 0x0303 [0x00] END_REQSTACK()
```

### Event 417

#### Metadata

| Field        | Value     |
|--------------|-----------|
| Entrypoint   | 0x0304    |
| Data Size    | 215 bytes |
| Instructions | 33        |

```
      00 01 02 03 04 05 06 07  08 09 0A 0B 0C 0D 0E 0F
      -- -- -- -- -- -- -- --  -- -- -- -- -- -- -- --
0300:             20 01 42 5F  01 50 F8 FF FF 7F F8 FF       .B_.P......
0310: FF 7F 73 68 61 30 29 08  14 E0 0E 01 05 1E F0 FF  ..sha0).........
0320: FF 7F 6F 70 29 0B 14 E0  0E 01 20 4B 14 E0 0E 01  ..op)..... K....
0330: 19 80 1D 30 80 23 45 31  80 F8 FF FF 7F F8 FF FF  ...0.#E1........
0340: 7F 66 64 6F 31 0B 80 1C  32 80 45 31 80 F8 FF FF  .fdo1...2.E1....
0350: 7F F8 FF FF 7F 66 64 69  31 0B 80 29 0B 14 E0 0E  .....fdi1..)....
0360: 01 21 2C F8 FF FF 7F F8  FF FF 7F 73 68 61 30 29  .!,........sha0)
0370: 0B 14 E0 0E 01 22 50 F8  FF FF 7F F8 FF FF 7F 73  ....."P........s
0380: 68 61 30 29 08 14 E0 0E  01 05 29 0B 14 E0 0E 01  ha0)......).....
0390: 23 1E F0 FF FF 7F 6F 70  29 0B 14 E0 0E 01 24 45  #.....op).....$E
03A0: 31 80 F8 FF FF 7F F8 FF  FF 7F 66 64 6F 31 0B 80  1.........fdo1..
03B0: 1C 33 80 5F 00 45 31 80  F8 FF FF 7F F8 FF FF 7F  .3._.E1.........
03C0: 66 64 69 31 0B 80 45 1B  80 F0 FF FF 7F F0 FF FF  fdi1..E.........
03D0: 7F 71 73 74 63 0B 80 20  00 21 00                 .qstc.. .!.     
```

#### Opcodes

```
  0: 0x0304 [0x20] SET_CLI_EVENT_UC_FLAG: Lock player control
  1: 0x0306 [0x42] SET_CLI_EVENT_CANCEL_DATA()
  2: 0x0307 [0x5F] MULTI_HANDLER_COMPLEX(mode=0x01 - Toggle Render.Flags0 bit 29)
  3: 0x0309 [0x50] END_SCHEDULER_TASK: End scheduler "sh" with entities [0xFFF8, 0xFFF8], work=[32767, 32767]
  4: 0x0316 [0x29] REQ_SET_WAIT(priority=0x08, entity_id=Hariga-Origa (ID: 17752084/0x010EE014), tag_num=0x05)
  5: 0x031D [0x1E] EventEntity looks at LocalPlayer and starts talking
  6: 0x0322 [0x6F] WAIT_FRAME_DELAY: Yield until WaitTime reaches zero
  7: 0x0323 [0x70] WAIT_ENTITY_RENDER_FLAG: Wait while EventEntity->Render.Flags3 bit 2 is set (cancel turn if not)
  8: 0x0324 [0x29] REQ_SET_WAIT(priority=0x0B, entity_id=Hariga-Origa (ID: 17752084/0x010EE014), tag_num=0x20)
  9: 0x032B [0x4B] UPDATE_ENTITY_YAW(entity=Hariga-Origa (ID: 17752084/0x010EE014), yaw=16.6°*)
 10: 0x0332 [0x1D] PRINT_EVENT_MESSAGE(message_id=8300*)
    → "Here we go... Squeak, squeak, squeak... Swish, swish, swish!t"
 11: 0x0335 [0x23] WAIT_FOR_DIALOG_INTERACTION
 12: 0x0336 [0x45] LOAD_SCHEDULED_TASK: Load scheduler "fdo1" with entities [EventEntity, EventEntity], work=[200*, 0*]
 13: 0x0347 [0x1C] WAIT(100* ticks)
 14: 0x034A [0x45] LOAD_SCHEDULED_TASK: Load scheduler "fdi1" with entities [EventEntity, EventEntity], work=[200*, 0*]
 15: 0x035B [0x29] REQ_SET_WAIT(priority=0x0B, entity_id=Hariga-Origa (ID: 17752084/0x010EE014), tag_num=0x21)
 16: 0x0362 [0x2C] CREATE_SCHEDULER_TASK: Create scheduler "sha0" with entities [EventEntity, EventEntity]
 17: 0x036F [0x29] REQ_SET_WAIT(priority=0x0B, entity_id=Hariga-Origa (ID: 17752084/0x010EE014), tag_num=0x22)
 18: 0x0376 [0x50] END_SCHEDULER_TASK: End scheduler "sh" with entities [0xFFF8, 0xFFF8], work=[32767, 32767]
 19: 0x0383 [0x29] REQ_SET_WAIT(priority=0x08, entity_id=Hariga-Origa (ID: 17752084/0x010EE014), tag_num=0x05)
 20: 0x038A [0x29] REQ_SET_WAIT(priority=0x0B, entity_id=Hariga-Origa (ID: 17752084/0x010EE014), tag_num=0x23)
 21: 0x0391 [0x1E] EventEntity looks at LocalPlayer and starts talking
 22: 0x0396 [0x6F] WAIT_FRAME_DELAY: Yield until WaitTime reaches zero
 23: 0x0397 [0x70] WAIT_ENTITY_RENDER_FLAG: Wait while EventEntity->Render.Flags3 bit 2 is set (cancel turn if not)
 24: 0x0398 [0x29] REQ_SET_WAIT(priority=0x0B, entity_id=Hariga-Origa (ID: 17752084/0x010EE014), tag_num=0x24)
 25: 0x039F [0x45] LOAD_SCHEDULED_TASK: Load scheduler "fdo1" with entities [EventEntity, EventEntity], work=[200*, 0*]
 26: 0x03B0 [0x1C] WAIT(60* ticks)
 27: 0x03B3 [0x5F] MULTI_HANDLER_COMPLEX(mode=0x00 - Toggle Render.Flags0 bit 29)
 28: 0x03B5 [0x45] LOAD_SCHEDULED_TASK: Load scheduler "fdi1" with entities [EventEntity, EventEntity], work=[200*, 0*]
 29: 0x03C6 [0x45] LOAD_SCHEDULED_TASK: Load scheduler "qstc" with entities [LocalPlayer, LocalPlayer], work=[201*, 0*]
 30: 0x03D7 [0x20] SET_CLI_EVENT_UC_FLAG: Unlock player control
 31: 0x03D9 [0x21] END_EVENT
 32: 0x03DA [0x00] END_REQSTACK()
```

### Event 65535.22

#### Metadata

| Field        | Value   |
|--------------|---------|
| Entrypoint   | 0x03DB  |
| Data Size    | 5 bytes |
| Instructions | 3       |

```
      00 01 02 03 04 05 06 07  08 09 0A 0B 0C 0D 0E 0F
      -- -- -- -- -- -- -- --  -- -- -- -- -- -- -- --
03D0:                                   1D 34 80 23 00             .4.#.
```

#### Opcodes

```
  0: 0x03DB [0x1D] PRINT_EVENT_MESSAGE(message_id=8299*)
    → "Oh, welcome back. Great. Now that I have these, we're set!"
  1: 0x03DE [0x23] WAIT_FOR_DIALOG_INTERACTION
  2: 0x03DF [0x00] END_REQSTACK()
```

### Event 65535.23

#### Metadata

| Field        | Value   |
|--------------|---------|
| Entrypoint   | 0x03E0  |
| Data Size    | 5 bytes |
| Instructions | 3       |

```
      00 01 02 03 04 05 06 07  08 09 0A 0B 0C 0D 0E 0F
      -- -- -- -- -- -- -- --  -- -- -- -- -- -- -- --
03E0: 1D 35 80 23 00                                    .5.#.           
```

#### Opcodes

```
  0: 0x03E0 [0x1D] PRINT_EVENT_MESSAGE(message_id=8301*)
    → "Look! See how clean it is! Huh? What the...? Oh, my word!"
  1: 0x03E3 [0x23] WAIT_FOR_DIALOG_INTERACTION
  2: 0x03E4 [0x00] END_REQSTACK()
```

### Event 65535.24

#### Metadata

| Field        | Value    |
|--------------|----------|
| Entrypoint   | 0x03E5   |
| Data Size    | 17 bytes |
| Instructions | 9        |

```
      00 01 02 03 04 05 06 07  08 09 0A 0B 0C 0D 0E 0F
      -- -- -- -- -- -- -- --  -- -- -- -- -- -- -- --
03E0:                1D 36 80  23 1D 37 80 23 1D 38 80       .6.#.7.#.8.
03F0: 23 1D 39 80 23 00                                 #.9.#.          
```

#### Opcodes

```
  0: 0x03E5 [0x1D] PRINT_EVENT_MESSAGE(message_id=8302*)
    → "The "Book of the Gods" is tightly guarded in the innermost parts of the Optistery. We do not know for sure what is contained in it, nor who wrote it."
  1: 0x03E8 [0x23] WAIT_FOR_DIALOG_INTERACTION
  2: 0x03E9 [0x1D] PRINT_EVENT_MESSAGE(message_id=8303*)
    → "As for this book... In the past, some wicked person had handed it to the Yagudo. The scholar who retrieved the book was able to reveal one of its secrets to us."
  3: 0x03EC [0x23] WAIT_FOR_DIALOG_INTERACTION
  4: 0x03ED [0x1D] PRINT_EVENT_MESSAGE(message_id=8304*)
    → "Wondering why the writing in the "Book of the Gods" doesn't need transcribing? It's because the writing is penned with water from the Full Moon Fountain!"
  5: 0x03F0 [0x23] WAIT_FOR_DIALOG_INTERACTION
  6: 0x03F1 [0x1D] PRINT_EVENT_MESSAGE(message_id=8305*)
    → "Only the Star Sibyl can enter the Full Moon Fountain... Oh...does that mean the author is actually...???"
  7: 0x03F4 [0x23] WAIT_FOR_DIALOG_INTERACTION
  8: 0x03F5 [0x00] END_REQSTACK()
```

### Event 65535.25

#### Metadata

| Field        | Value    |
|--------------|----------|
| Entrypoint   | 0x03F6   |
| Data Size    | 23 bytes |
| Instructions | 7        |

```
      00 01 02 03 04 05 06 07  08 09 0A 0B 0C 0D 0E 0F
      -- -- -- -- -- -- -- --  -- -- -- -- -- -- -- --
03F0:                   29 08  14 E0 0E 01 03 1D 3A 80        ).......:.
0400: 23 29 08 14 E0 0E 01 04  1D 3B 80 23 00           #).......;.#.   
```

#### Opcodes

```
  0: 0x03F6 [0x29] REQ_SET_WAIT(priority=0x08, entity_id=Hariga-Origa (ID: 17752084/0x010EE014), tag_num=0x03)
  1: 0x03FD [0x1D] PRINT_EVENT_MESSAGE(message_id=8306*)
    → "Yikes...! Oh, my word! Oh my word! I just realized...this is a restricted book! It's forbidden to move it, let alone transcribe it!!!"
  2: 0x0400 [0x23] WAIT_FOR_DIALOG_INTERACTION
  3: 0x0401 [0x29] REQ_SET_WAIT(priority=0x08, entity_id=Hariga-Origa (ID: 17752084/0x010EE014), tag_num=0x04)
  4: 0x0408 [0x1D] PRINT_EVENT_MESSAGE(message_id=8307*)
    → "What in heaven's name is a restricted book doing here!? As soon as I start reading its contents aloud, I'm going to be caught for sure!"
  5: 0x040B [0x23] WAIT_FOR_DIALOG_INTERACTION
  6: 0x040C [0x00] END_REQSTACK()
```

### Event 65535.26

#### Metadata

| Field        | Value   |
|--------------|---------|
| Entrypoint   | 0x040D  |
| Data Size    | 5 bytes |
| Instructions | 3       |

```
      00 01 02 03 04 05 06 07  08 09 0A 0B 0C 0D 0E 0F
      -- -- -- -- -- -- -- --  -- -- -- -- -- -- -- --
0400:                                         1D 3C 80               .<.
0410: 23 00                                             #.              
```

#### Opcodes

```
  0: 0x040D [0x1D] PRINT_EVENT_MESSAGE(message_id=8308*)
    → "Hey, you... Here, I'll give you this, so keep this whole incident quiet! Promise not to tell anyone, okay?"
  1: 0x0410 [0x23] WAIT_FOR_DIALOG_INTERACTION
  2: 0x0411 [0x00] END_REQSTACK()
```

### Event 418

#### Metadata

| Field        | Value    |
|--------------|----------|
| Entrypoint   | 0x0412   |
| Data Size    | 64 bytes |
| Instructions | 17       |

```
      00 01 02 03 04 05 06 07  08 09 0A 0B 0C 0D 0E 0F
      -- -- -- -- -- -- -- --  -- -- -- -- -- -- -- --
0410:       5F 01 50 F8 FF FF  7F F8 FF FF 7F 73 68 61    _.P........sha
0420: 30 29 08 14 E0 0E 01 05  1E F0 FF FF 7F 6F 70 1D  0)...........op.
0430: 3D 80 23 29 08 14 E0 0E  01 03 1D 3E 80 23 29 08  =.#).......>.#).
0440: 14 E0 0E 01 04 4B 14 E0  0E 01 19 80 5F 00 20 00  .....K......_. .
0450: 21 00                                             !.              
```

#### Opcodes

```
  0: 0x0412 [0x5F] MULTI_HANDLER_COMPLEX(mode=0x01 - Toggle Render.Flags0 bit 29)
  1: 0x0414 [0x50] END_SCHEDULER_TASK: End scheduler "sh" with entities [0xFFF8, 0xFFF8], work=[32767, 32767]
  2: 0x0421 [0x29] REQ_SET_WAIT(priority=0x08, entity_id=Hariga-Origa (ID: 17752084/0x010EE014), tag_num=0x05)
  3: 0x0428 [0x1E] EventEntity looks at LocalPlayer and starts talking
  4: 0x042D [0x6F] WAIT_FRAME_DELAY: Yield until WaitTime reaches zero
  5: 0x042E [0x70] WAIT_ENTITY_RENDER_FLAG: Wait while EventEntity->Render.Flags3 bit 2 is set (cancel turn if not)
  6: 0x042F [0x1D] PRINT_EVENT_MESSAGE(message_id=8309*)
    → "Eww... What if those smudges I removed from the book were bloodstains...?"
  7: 0x0432 [0x23] WAIT_FOR_DIALOG_INTERACTION
  8: 0x0433 [0x29] REQ_SET_WAIT(priority=0x08, entity_id=Hariga-Origa (ID: 17752084/0x010EE014), tag_num=0x03)
  9: 0x043A [0x1D] PRINT_EVENT_MESSAGE(message_id=8310*)
    → "Ooo-ah! Perhaps that was the famed blood-sucking book of yore!? Shivers! Thank goodness it wasn't hungry, otherwise it could have attacked me!"
 10: 0x043D [0x23] WAIT_FOR_DIALOG_INTERACTION
 11: 0x043E [0x29] REQ_SET_WAIT(priority=0x08, entity_id=Hariga-Origa (ID: 17752084/0x010EE014), tag_num=0x04)
 12: 0x0445 [0x4B] UPDATE_ENTITY_YAW(entity=Hariga-Origa (ID: 17752084/0x010EE014), yaw=16.6°*)
 13: 0x044C [0x5F] MULTI_HANDLER_COMPLEX(mode=0x00 - Toggle Render.Flags0 bit 29)
 14: 0x044E [0x20] SET_CLI_EVENT_UC_FLAG: Unlock player control
 15: 0x0450 [0x21] END_EVENT
 16: 0x0451 [0x00] END_REQSTACK()
```

### Event 717

#### Metadata

| Field        | Value    |
|--------------|----------|
| Entrypoint   | 0x0452   |
| Data Size    | 27 bytes |
| Instructions | 9        |

```
      00 01 02 03 04 05 06 07  08 09 0A 0B 0C 0D 0E 0F
      -- -- -- -- -- -- -- --  -- -- -- -- -- -- -- --
0450:       79 00 F8 FF FF 7F  F0 FF FF 7F 1D 3F 80 23    y..........?.#
0460: 1D 40 80 23 7B F8 FF FF  7F 20 00 21 00           .@.#{.... .!.   
```

#### Opcodes

```
  0: 0x0452 [0x79] EventEntity looks at LocalPlayer (Basic look)
  1: 0x045C [0x1D] PRINT_EVENT_MESSAGE(message_id=9681*)
    → "How's the mission going? You know, the cleaning of the book vault?"
  2: 0x045F [0x23] WAIT_FOR_DIALOG_INTERACTION
  3: 0x0460 [0x1D] PRINT_EVENT_MESSAGE(message_id=9682*)
    → "Up until now, we've been giving up our holidays to keep things clean and tidy around here. But it looks like Minister Tosuka-Porika has finally agreed to get an adventurer to help us."
  4: 0x0463 [0x23] WAIT_FOR_DIALOG_INTERACTION
  5: 0x0464 [0x7B] EventEntity stops talking
  6: 0x0469 [0x20] SET_CLI_EVENT_UC_FLAG: Unlock player control
  7: 0x046B [0x21] END_EVENT
  8: 0x046C [0x00] END_REQSTACK()
```

### Event 726

#### Metadata

| Field        | Value    |
|--------------|----------|
| Entrypoint   | 0x046D   |
| Data Size    | 27 bytes |
| Instructions | 9        |

```
      00 01 02 03 04 05 06 07  08 09 0A 0B 0C 0D 0E 0F
      -- -- -- -- -- -- -- --  -- -- -- -- -- -- -- --
0460:                                         79 00 F8               y..
0470: FF FF 7F F0 FF FF 7F 1D  41 80 23 1D 42 80 23 7B  ........A.#.B.#{
0480: F8 FF FF 7F 20 00 21 00                           .... .!.        
```

#### Opcodes

```
  0: 0x046D [0x79] EventEntity looks at LocalPlayer (Basic look)
  1: 0x0477 [0x1D] PRINT_EVENT_MESSAGE(message_id=9703*)
    → "For some reason, the words "Book vault cleaning" have been written in hugey-wuge letters on our schedule board."
  2: 0x047A [0x23] WAIT_FOR_DIALOG_INTERACTION
  3: 0x047B [0x1D] PRINT_EVENT_MESSAGE(message_id=9704*)
    → "There must be some mistake. You've already cleaned out our book vault, rightaru?"
  4: 0x047E [0x23] WAIT_FOR_DIALOG_INTERACTION
  5: 0x047F [0x7B] EventEntity stops talking
  6: 0x0484 [0x20] SET_CLI_EVENT_UC_FLAG: Unlock player control
  7: 0x0486 [0x21] END_EVENT
  8: 0x0487 [0x00] END_REQSTACK()
```
