# 17752334 - Zhuk Vojahom

## Common Data

| Field            | Value                     |
|------------------|---------------------------|
| Zone             | Windurst Waters (ID: 238) |
| Block Size       | 3432 bytes                |
| Total Events     | 8                         |
| References Count | 74                        |

## List of Events

| Event ID              | Entrypoint   |   Size |   Instructions |
|-----------------------|--------------|--------|----------------|
| [65535](#event-65535) | 0x0000       |      1 |              1 |
| [941](#event-941)     | 0x0001       |   1015 |            150 |
| [942](#event-942)     | 0x03F8       |    315 |             50 |
| [943](#event-943)     | 0x0533       |    350 |             57 |
| [954](#event-954)     | 0x0691       |    302 |             47 |
| [946](#event-946)     | 0x07BF       |    339 |             50 |
| [944](#event-944)     | 0x0912       |    502 |             73 |
| [945](#event-945)     | 0x0B08       |    261 |             41 |

## DAT References (imed_data)

|   Index | Hex Value   |   Dec Value |
|---------|-------------|-------------|
|       0 | 0x00C8      |         200 |
|       1 | 0x0000      |           0 |
|       2 | 0x0013      |          19 |
|       3 | 0x00AF      |         175 |
|       4 | 0x0337      |         823 |
|       5 | 0x036F      |         879 |
|       6 | 0x0725      |        1829 |
|       7 | 0x0900      |        2304 |
|       8 | 0x088A      |        2186 |
|       9 | 0x0004      |           4 |
|      10 | 0x001E      |          30 |
|      11 | 0x011B      |         283 |
|      12 | 0x003C      |          60 |
|      13 | 0x000D      |          13 |
|      14 | 0xFFFCEEEE  |  4294766318 |
|      15 | 0xFFFE499F  |  4294855071 |
|      16 | 0xFFFFEFA4  |  4294963108 |
|      17 | 0x3008      |       12296 |
|      18 | 0x3009      |       12297 |
|      19 | 0x000B      |          11 |
|      20 | 0x300A      |       12298 |
|      21 | 0x300B      |       12299 |
|      22 | 0x0001      |           1 |
|      23 | 0x300C      |       12300 |
|      24 | 0xFFFCE7DA  |  4294764506 |
|      25 | 0xFFFE4746  |  4294854470 |
|      26 | 0xFFFFF198  |  4294963608 |
|      27 | 0x300E      |       12302 |
|      28 | 0x001A      |          26 |
|      29 | 0x300F      |       12303 |
|      30 | 0x003B      |          59 |
|      31 | 0x3010      |       12304 |
|      32 | 0x3011      |       12305 |
|      33 | 0x0019      |          25 |
|      34 | 0x3012      |       12306 |
|      35 | 0x3013      |       12307 |
|      36 | 0x005A      |          90 |
|      37 | 0x3014      |       12308 |
|      38 | 0x3015      |       12309 |
|      39 | 0x3016      |       12310 |
|      40 | 0x3017      |       12311 |
|      41 | 0x3018      |       12312 |
|      42 | 0x3019      |       12313 |
|      43 | 0x301A      |       12314 |
|      44 | 0x301B      |       12315 |
|      45 | 0x0008      |           8 |
|      46 | 0x301C      |       12316 |
|      47 | 0xFFFCF2C0  |  4294767296 |
|      48 | 0xFFFE4A4B  |  4294855243 |
|      49 | 0xFFFFEE95  |  4294962837 |
|      50 | 0x0097      |         151 |
|      51 | 0x301D      |       12317 |
|      52 | 0x301E      |       12318 |
|      53 | 0x301F      |       12319 |
|      54 | 0x3020      |       12320 |
|      55 | 0x3021      |       12321 |
|      56 | 0x3022      |       12322 |
|      57 | 0x3023      |       12323 |
|      58 | 0x3024      |       12324 |
|      59 | 0x3025      |       12325 |
|      60 | 0x3026      |       12326 |
|      61 | 0x3027      |       12327 |
|      62 | 0x3029      |       12329 |
|      63 | 0x002D      |          45 |
|      64 | 0x302B      |       12331 |
|      65 | 0x302A      |       12330 |
|      66 | 0x000C      |          12 |
|      67 | 0x302C      |       12332 |
|      68 | 0x302D      |       12333 |
|      69 | 0x302E      |       12334 |
|      70 | 0x302F      |       12335 |
|      71 | 0x3030      |       12336 |
|      72 | 0x00C9      |         201 |
|      73 | 0x3028      |       12328 |

## String References

- **12297**: Show her Leleroon's letter? [Yes./Not now.]

## Events

### Event 65535

#### Metadata

| Field        | Value   |
|--------------|---------|
| Entrypoint   | 0x0000  |
| Data Size    | 1 bytes |
| Instructions | 1       |

```
      00 01 02 03 04 05 06 07  08 09 0A 0B 0C 0D 0E 0F
      -- -- -- -- -- -- -- --  -- -- -- -- -- -- -- --
0000: 00                                                .               
```

#### Opcodes

```
  0: 0x0000 [0x00] END_REQSTACK()
```

### Event 941

#### Metadata

| Field        | Value      |
|--------------|------------|
| Entrypoint   | 0x0001     |
| Data Size    | 1015 bytes |
| Instructions | 149        |

```
      00 01 02 03 04 05 06 07  08 09 0A 0B 0C 0D 0E 0F
      -- -- -- -- -- -- -- --  -- -- -- -- -- -- -- --
0000:    42 45 00 80 F8 FF FF  7F F8 FF FF 7F 66 64 6F   BE..........fdo
0010: 31 01 80 55 00 80 F8 FF  FF 7F F8 FF FF 7F 66 64  1..U..........fd
0020: 6F 31 46 01 38 02 80 29  10 F0 FF FF 7F 71 92 01  o1F.8..).....q..
0030: 0E E1 0E 01 2F 00 0E E1  0E 01 4E 00 0E E1 0E 01  ..../.....N.....
0040: 80 F0 FF FF 7F 80 0E E1  0E 01 4A 0E E1 0E 01 F0  ..........J.....
0050: FF FF 7F 5C 00 03 80 5C  01 03 80 9A 03 02 10 04  ...\...\........
0060: 80 03 03 10 05 80 03 04  10 06 80 03 05 10 07 80  ................
0070: 03 06 10 08 80 03 07 10  09 80 1C 0A 80 45 0B 80  .............E..
0080: F8 FF FF 7F F8 FF FF 7F  74 30 30 30 01 80 1C 0C  ........t000....
0090: 80 45 00 80 F8 FF FF 7F  F8 FF FF 7F 66 64 69 31  .E..........fdi1
00A0: 01 80 32 0D 80 1F 00 0E  80 0F 80 10 80 1F 01 1C  ..2.............
00B0: 0C 80 2B 0E E1 0E 01 11  80 23 1C 0C 80 52 0B 80  ..+......#...R..
00C0: F8 FF FF 7F F8 FF FF 7F  74 30 30 30 45 0B 80 F8  ........t000E...
00D0: FF FF 7F F8 FF FF 7F 74  30 30 31 01 80 24 12 80  .......t001..$..
00E0: 01 80 01 80 25 02 00 10  01 80 00 32 01 1C 0C 80  ....%......2....
00F0: 52 0B 80 F8 FF FF 7F F8  FF FF 7F 74 30 30 31 45  R..........t001E
0100: 0B 80 F8 FF FF 7F F8 FF  FF 7F 74 30 30 32 01 80  ..........t002..
0110: 6E 0E E1 0E 01 13 80 99  0E E1 0E 01 2B 0E E1 0E  n...........+...
0120: 01 14 80 23 1C 0A 80 2B  0E E1 0E 01 15 80 23 01  ...#...+......#.
0130: 40 01 02 00 10 16 80 00  40 01 01 DD 00 01 40 01  @.......@.....@.
0140: 1C 0C 80 6E 0E E1 0E 01  09 80 99 0E E1 0E 01 2B  ...n...........+
0150: 0E E1 0E 01 17 80 23 1C  0A 80 52 0B 80 F8 FF FF  ......#...R.....
0160: 7F F8 FF FF 7F 74 30 30  32 45 0B 80 F8 FF FF 7F  .....t002E......
0170: F8 FF FF 7F 74 30 30 33  01 80 32 0D 80 1F 00 18  ....t003..2.....
0180: 80 19 80 1A 80 1F 01 2B  0E E1 0E 01 1B 80 23 1C  .......+......#.
0190: 0A 80 6E 0E E1 0E 01 1C  80 99 0E E1 0E 01 2B 0E  ..n...........+.
01A0: E1 0E 01 1D 80 23 1C 0A  80 52 0B 80 F8 FF FF 7F  .....#...R......
01B0: F8 FF FF 7F 74 30 30 33  45 0B 80 F8 FF FF 7F F8  ....t003E.......
01C0: FF FF 7F 74 30 30 34 01  80 1C 0C 80 66 1E 80 F8  ...t004.....f...
01D0: FF FF 7F F8 FF FF 7F 74  6C 6B 30 2B 0E E1 0E 01  .......tlk0+....
01E0: 1F 80 23 66 1E 80 F8 FF  FF 7F F8 FF FF 7F 74 6C  ..#f..........tl
01F0: 6B 31 1C 0C 80 52 0B 80  F8 FF FF 7F F8 FF FF 7F  k1...R..........
0200: 74 30 30 34 45 0B 80 F8  FF FF 7F F8 FF FF 7F 74  t004E..........t
0210: 30 31 30 01 80 2B 0E E1  0E 01 20 80 23 6E 0E E1  010..+.... .#n..
0220: 0E 01 21 80 99 0E E1 0E  01 2B 0E E1 0E 01 22 80  ..!......+....".
0230: 23 1C 0A 80 52 0B 80 F8  FF FF 7F F8 FF FF 7F 74  #...R..........t
0240: 30 31 30 45 0B 80 F8 FF  FF 7F F8 FF FF 7F 74 30  010E..........t0
0250: 30 35 01 80 2B 0E E1 0E  01 23 80 23 1C 24 80 7C  05..+....#.#.$.|
0260: 00 0E E1 0E 01 66 1E 80  F8 FF FF 7F F8 FF FF 7F  .....f..........
0270: 74 68 6B 31 2B 0E E1 0E  01 25 80 23 52 0B 80 F8  thk1+....%.#R...
0280: FF FF 7F F8 FF FF 7F 74  30 30 35 45 0B 80 F8 FF  .......t005E....
0290: FF 7F F8 FF FF 7F 74 30  30 36 01 80 1C 0C 80 2B  ......t006.....+
02A0: 0E E1 0E 01 26 80 23 1C  0C 80 52 0B 80 F8 FF FF  ....&.#...R.....
02B0: 7F F8 FF FF 7F 74 30 30  36 45 0B 80 F8 FF FF 7F  .....t006E......
02C0: F8 FF FF 7F 74 30 30 37  01 80 1C 0C 80 7C 01 0E  ....t007.....|..
02D0: E1 0E 01 2B 0E E1 0E 01  27 80 23 66 1E 80 F8 FF  ...+....'.#f....
02E0: FF 7F F8 FF FF 7F 74 68  6B 32 1C 0C 80 2B 0E E1  ......thk2...+..
02F0: 0E 01 28 80 23 1C 0A 80  2B 0E E1 0E 01 29 80 23  ..(.#...+....).#
0300: 52 0B 80 F8 FF FF 7F F8  FF FF 7F 74 30 30 37 45  R..........t007E
0310: 0B 80 F8 FF FF 7F F8 FF  FF 7F 74 30 30 38 01 80  ..........t008..
0320: 66 1E 80 F8 FF FF 7F F8  FF FF 7F 74 6C 6B 30 2B  f..........tlk0+
0330: 0E E1 0E 01 2A 80 23 1C  0A 80 2B 0E E1 0E 01 2B  ....*.#...+....+
0340: 80 23 2B 0E E1 0E 01 2C  80 23 66 1E 80 F8 FF FF  .#+....,.#f.....
0350: 7F F8 FF FF 7F 74 6C 6B  31 52 0B 80 F8 FF FF 7F  .....tlk1R......
0360: F8 FF FF 7F 74 30 30 38  45 0B 80 F8 FF FF 7F F8  ....t008E.......
0370: FF FF 7F 74 30 30 39 01  80 6E 0E E1 0E 01 2D 80  ...t009..n....-.
0380: 99 0E E1 0E 01 1C 0A 80  2B 0E E1 0E 01 2E 80 23  ........+......#
0390: 1C 0A 80 32 0D 80 1F 00  2F 80 30 80 31 80 1F 01  ...2..../.0.1...
03A0: 5D 01 80 24 80 1C 24 80  45 00 80 F8 FF FF 7F F8  ]..$..$.E.......
03B0: FF FF 7F 66 64 6F 31 01  80 55 00 80 F8 FF FF 7F  ...fdo1..U......
03C0: F8 FF FF 7F 66 64 6F 31  1C 0A 80 52 0B 80 F0 FF  ....fdo1...R....
03D0: FF 7F F0 FF FF 7F 74 30  30 39 5C 00 32 80 5C 01  ......t009\.2.\.
03E0: 32 80 9A 46 00 45 00 80  F8 FF FF 7F F8 FF FF 7F  2..F.E..........
03F0: 66 64 69 31 01 80 21 00                           fdi1..!.        
```

#### Opcodes

```
  0: 0x0001 [0x42] SET_CLI_EVENT_CANCEL_DATA()
  1: 0x0002 [0x45] LOAD_SCHEDULED_TASK: Load scheduler "fdo1" with entities [EventEntity, EventEntity], work=[200*, 0*]
  2: 0x0013 [0x55] WAIT_LOAD_SCHEDULER: Wait for scheduler "fdo1" with entities [EventEntity, EventEntity], work=200*
  3: 0x0022 [0x46] CAMERA_CONTROL: Disable user control
  4: 0x0024 [0x38] SET_CLIENT_EVENT_MODE(mode=19*)
  5: 0x0027 [0x29] REQ_SET_WAIT(priority=0x10, entity_id=LocalPlayer, tag_num=0x71)
  6: 0x002E [0x92] Zhuk Vojahom (ID: 17752334/0x010EE10E)->Render.Flags3 ^= 0x01
  7: 0x0034 [0x2F] Zhuk Vojahom (ID: 17752334/0x010EE10E)->Render.Flags0 &= ~0x80000 // Bit 19
  8: 0x003A [0x4E] SET_ENTITY_HIDE_FLAG: Show Zhuk Vojahom (ID: 17752334/0x010EE10E)
  9: 0x0040 [0x80] LOAD_WAIT(entity=LocalPlayer)
 10: 0x0045 [0x80] LOAD_WAIT(entity=Zhuk Vojahom (ID: 17752334/0x010EE10E))
 11: 0x004A [0x4A] Zhuk Vojahom (ID: 17752334/0x010EE10E) looks at LocalPlayer
 12: 0x0053 [0x5C] MUSIC_CONTROL: Set Idle (Day) music to song 175*
 13: 0x0057 [0x5C] MUSIC_CONTROL: Set Idle (Night) music to song 175*
 14: 0x005B [0x9A] WAIT_MUSIC_SERVER()
 15: 0x005C [0x03] Work_Zone[2] = 823*
 16: 0x0061 [0x03] Work_Zone[3] = 879*
 17: 0x0066 [0x03] Work_Zone[4] = 1829*
 18: 0x006B [0x03] Work_Zone[5] = 2304*
 19: 0x0070 [0x03] Work_Zone[6] = 2186*
 20: 0x0075 [0x03] Work_Zone[7] = 4*
 21: 0x007A [0x1C] WAIT(30* ticks)
 22: 0x007D [0x45] LOAD_SCHEDULED_TASK: Load scheduler "t000" with entities [EventEntity, EventEntity], work=[283*, 0*]
 23: 0x008E [0x1C] WAIT(60* ticks)
 24: 0x0091 [0x45] LOAD_SCHEDULED_TASK: Load scheduler "fdi1" with entities [EventEntity, EventEntity], work=[200*, 0*]
 25: 0x00A2 [0x32] ExtData[1]->MainSpeed = 13* * 0.1
 26: 0x00A5 [0x1F] MOVE_ENTITY: EventEntity moves to X=-200.978*, Z=-112.225*, Y=-4.188*
 27: 0x00AD [0x1F] MOVE_ENTITY: Update entity position (mode=1)
 28: 0x00AF [0x1C] WAIT(60* ticks)
 29: 0x00B2 [0x2B] Zhuk Vojahom (ID: 17752334/0x010EE10E) [12296*]:
    → "Eh? Whaddaya want with me, pal?"
 30: 0x00B9 [0x23] WAIT_FOR_DIALOG_INTERACTION
 31: 0x00BA [0x1C] WAIT(60* ticks)
 32: 0x00BD [0x52] END_LOAD_SCHEDULER: End scheduler "t000" with entities [EventEntity, EventEntity], work=283*
 33: 0x00CC [0x45] LOAD_SCHEDULED_TASK: Load scheduler "t001" with entities [EventEntity, EventEntity], work=[283*, 0*]
 34: 0x00DD [0x24] CREATE_DIALOG(message_id=12297*, default_option=0*, option_flags=0*)
    → "Show her Leleroon's letter? [Yes./Not now.]"
 35: 0x00E4 [0x25] WAIT_DIALOG_SELECT()
 36: 0x00E5 [0x02] IF !(Work_Zone[0] == 0*) GOTO 0x0132
 37: 0x00ED [0x1C] WAIT(60* ticks)
 38: 0x00F0 [0x52] END_LOAD_SCHEDULER: End scheduler "t001" with entities [EventEntity, EventEntity], work=283*
 39: 0x00FF [0x45] LOAD_SCHEDULED_TASK: Load scheduler "t002" with entities [EventEntity, EventEntity], work=[283*, 0*]
 40: 0x0110 [0x6E] Zhuk Vojahom (ID: 17752334/0x010EE10E) uses emote 11*
 41: 0x0117 [0x99] Wait for Zhuk Vojahom (ID: 17752334/0x010EE10E) animation to complete
 42: 0x011C [0x2B] Zhuk Vojahom (ID: 17752334/0x010EE10E) [12298*]:
    → "You gotta be pullin' my whiskers! It's a letter from Leleroon!"
 43: 0x0123 [0x23] WAIT_FOR_DIALOG_INTERACTION
 44: 0x0124 [0x1C] WAIT(30* ticks)
 45: 0x0127 [0x2B] Zhuk Vojahom (ID: 17752334/0x010EE10E) [12299*]:
    → "Um... Is that a 5? eA...GoOol... RetOoorN...i...T...6? Huh?"
 46: 0x012E [0x23] WAIT_FOR_DIALOG_INTERACTION
 47: 0x012F [0x01] GOTO 0x0140
 48: 0x0132 [0x02] IF !(Work_Zone[0] == 1*) GOTO 0x0140
 49: 0x013A [0x01] GOTO 0x00DD

SUBROUTINE_0140:
 50: 0x0140 [0x1C] WAIT(60* ticks)
 51: 0x0143 [0x6E] Zhuk Vojahom (ID: 17752334/0x010EE10E) uses emote 4*
 52: 0x014A [0x99] Wait for Zhuk Vojahom (ID: 17752334/0x010EE10E) animation to complete
 53: 0x014F [0x2B] Zhuk Vojahom (ID: 17752334/0x010EE10E) [12300*]:
    → "Ahaha. I can't rrread a word of it. Looks like Leleroon hasn't changed a bit.t"
 54: 0x0156 [0x23] WAIT_FOR_DIALOG_INTERACTION
 55: 0x0157 [0x1C] WAIT(30* ticks)
 56: 0x015A [0x52] END_LOAD_SCHEDULER: End scheduler "t002" with entities [EventEntity, EventEntity], work=283*
 57: 0x0169 [0x45] LOAD_SCHEDULED_TASK: Load scheduler "t003" with entities [EventEntity, EventEntity], work=[283*, 0*]
 58: 0x017A [0x32] ExtData[1]->MainSpeed = 13* * 0.1
 59: 0x017D [0x1F] MOVE_ENTITY: EventEntity moves to X=-202.790*, Z=-112.826*, Y=-3.688*
 60: 0x0185 [0x1F] MOVE_ENTITY: Update entity position (mode=1)
 61: 0x0187 [0x2B] Zhuk Vojahom (ID: 17752334/0x010EE10E) [12302*]:
    → "The ship got a big chunk blown out of its hull, right? Well, I've had quite a bit happen to me as well, and somehow I ended up here."
 62: 0x018E [0x23] WAIT_FOR_DIALOG_INTERACTION
 63: 0x018F [0x1C] WAIT(30* ticks)
 64: 0x0192 [0x6E] Zhuk Vojahom (ID: 17752334/0x010EE10E) uses emote 26*
 65: 0x0199 [0x99] Wait for Zhuk Vojahom (ID: 17752334/0x010EE10E) animation to complete
 66: 0x019E [0x2B] Zhuk Vojahom (ID: 17752334/0x010EE10E) [12303*]:
    → "Anyway, now I'm disguising myself as your rrrun-o'-the mill adventurer..."
 67: 0x01A5 [0x23] WAIT_FOR_DIALOG_INTERACTION
 68: 0x01A6 [0x1C] WAIT(30* ticks)
 69: 0x01A9 [0x52] END_LOAD_SCHEDULER: End scheduler "t003" with entities [EventEntity, EventEntity], work=283*
 70: 0x01B8 [0x45] LOAD_SCHEDULED_TASK: Load scheduler "t004" with entities [EventEntity, EventEntity], work=[283*, 0*]
 71: 0x01C9 [0x1C] WAIT(60* ticks)
 72: 0x01CC [0x66] LOAD_EXT_SCHEDULER_MAIN: Load scheduler "tlk0" with entities [EventEntity, EventEntity], work=59*
 73: 0x01DB [0x2B] Zhuk Vojahom (ID: 17752334/0x010EE10E) [12304*]:
    → "But in trrruth, I'm Zhuk Vojahom, the Seagull Phratrie's queen o' the dice!"
 74: 0x01E2 [0x23] WAIT_FOR_DIALOG_INTERACTION
 75: 0x01E3 [0x66] LOAD_EXT_SCHEDULER_MAIN: Load scheduler "tlk1" with entities [EventEntity, EventEntity], work=59*
 76: 0x01F2 [0x1C] WAIT(60* ticks)
 77: 0x01F5 [0x52] END_LOAD_SCHEDULER: End scheduler "t004" with entities [EventEntity, EventEntity], work=283*
 78: 0x0204 [0x45] LOAD_SCHEDULED_TASK: Load scheduler "t010" with entities [EventEntity, EventEntity], work=[283*, 0*]
 79: 0x0215 [0x2B] Zhuk Vojahom (ID: 17752334/0x010EE10E) [12305*]:
    → "What's your prrroblem? You dare doubt me?"
 80: 0x021C [0x23] WAIT_FOR_DIALOG_INTERACTION
 81: 0x021D [0x6E] Zhuk Vojahom (ID: 17752334/0x010EE10E) uses emote 25*
 82: 0x0224 [0x99] Wait for Zhuk Vojahom (ID: 17752334/0x010EE10E) animation to complete
 83: 0x0229 [0x2B] Zhuk Vojahom (ID: 17752334/0x010EE10E) [12306*]:
    → "It's true! I'm the only match for Qultada in a game of dice!"
 84: 0x0230 [0x23] WAIT_FOR_DIALOG_INTERACTION
 85: 0x0231 [0x1C] WAIT(30* ticks)
 86: 0x0234 [0x52] END_LOAD_SCHEDULER: End scheduler "t010" with entities [EventEntity, EventEntity], work=283*
 87: 0x0243 [0x45] LOAD_SCHEDULED_TASK: Load scheduler "t005" with entities [EventEntity, EventEntity], work=[283*, 0*]
 88: 0x0254 [0x2B] Zhuk Vojahom (ID: 17752334/0x010EE10E) [12307*]:
    → "So you wanna know how many times I've won, do you?"
 89: 0x025B [0x23] WAIT_FOR_DIALOG_INTERACTION
 90: 0x025C [0x1C] WAIT(90* ticks)
 91: 0x025F [0x7C] Zhuk Vojahom (ID: 17752334/0x010EE10E)->Render.Flags2 |= 0x00
 92: 0x0265 [0x66] LOAD_EXT_SCHEDULER_MAIN: Load scheduler "thk1" with entities [EventEntity, EventEntity], work=59*
 93: 0x0274 [0x2B] Zhuk Vojahom (ID: 17752334/0x010EE10E) [12308*]:
    → "..."
 94: 0x027B [0x23] WAIT_FOR_DIALOG_INTERACTION
 95: 0x027C [0x52] END_LOAD_SCHEDULER: End scheduler "t005" with entities [EventEntity, EventEntity], work=283*
 96: 0x028B [0x45] LOAD_SCHEDULED_TASK: Load scheduler "t006" with entities [EventEntity, EventEntity], work=[283*, 0*]
 97: 0x029C [0x1C] WAIT(60* ticks)
 98: 0x029F [0x2B] Zhuk Vojahom (ID: 17752334/0x010EE10E) [12309*]:
    → "That's none of your business."
 99: 0x02A6 [0x23] WAIT_FOR_DIALOG_INTERACTION
100: 0x02A7 [0x1C] WAIT(60* ticks)
101: 0x02AA [0x52] END_LOAD_SCHEDULER: End scheduler "t006" with entities [EventEntity, EventEntity], work=283*
102: 0x02B9 [0x45] LOAD_SCHEDULED_TASK: Load scheduler "t007" with entities [EventEntity, EventEntity], work=[283*, 0*]
103: 0x02CA [0x1C] WAIT(60* ticks)
104: 0x02CD [0x7C] Zhuk Vojahom (ID: 17752334/0x010EE10E)->Render.Flags2 |= 0x01
105: 0x02D3 [0x2B] Zhuk Vojahom (ID: 17752334/0x010EE10E) [12310*]:
    → "Anyway, now that I've received official contact and everything, I suppose I'd better head back to Aradjiah!"
106: 0x02DA [0x23] WAIT_FOR_DIALOG_INTERACTION
107: 0x02DB [0x66] LOAD_EXT_SCHEDULER_MAIN: Load scheduler "thk2" with entities [EventEntity, EventEntity], work=59*
108: 0x02EA [0x1C] WAIT(60* ticks)
109: 0x02ED [0x2B] Zhuk Vojahom (ID: 17752334/0x010EE10E) [12311*]:
    → "Thanks for bringing the letter to me!"
110: 0x02F4 [0x23] WAIT_FOR_DIALOG_INTERACTION
111: 0x02F5 [0x1C] WAIT(30* ticks)
112: 0x02F8 [0x2B] Zhuk Vojahom (ID: 17752334/0x010EE10E) [12312*]:
    → "To show my gratitude, I can make you something special.t"
113: 0x02FF [0x23] WAIT_FOR_DIALOG_INTERACTION
114: 0x0300 [0x52] END_LOAD_SCHEDULER: End scheduler "t007" with entities [EventEntity, EventEntity], work=283*
115: 0x030F [0x45] LOAD_SCHEDULED_TASK: Load scheduler "t008" with entities [EventEntity, EventEntity], work=[283*, 0*]
116: 0x0320 [0x66] LOAD_EXT_SCHEDULER_MAIN: Load scheduler "tlk0" with entities [EventEntity, EventEntity], work=59*
117: 0x032F [0x2B] Zhuk Vojahom (ID: 17752334/0x010EE10E) [12313*]:
    → "All I need is $0, $1, $2, and $3..."
118: 0x0336 [0x23] WAIT_FOR_DIALOG_INTERACTION
119: 0x0337 [0x1C] WAIT(30* ticks)
120: 0x033A [0x2B] Zhuk Vojahom (ID: 17752334/0x010EE10E) [12314*]:
    → "And then everything will be set!"
121: 0x0341 [0x23] WAIT_FOR_DIALOG_INTERACTION
122: 0x0342 [0x2B] Zhuk Vojahom (ID: 17752334/0x010EE10E) [12315*]:
    → "I'll make you a prize fit for the captain."
123: 0x0349 [0x23] WAIT_FOR_DIALOG_INTERACTION
124: 0x034A [0x66] LOAD_EXT_SCHEDULER_MAIN: Load scheduler "tlk1" with entities [EventEntity, EventEntity], work=59*
125: 0x0359 [0x52] END_LOAD_SCHEDULER: End scheduler "t008" with entities [EventEntity, EventEntity], work=283*
126: 0x0368 [0x45] LOAD_SCHEDULED_TASK: Load scheduler "t009" with entities [EventEntity, EventEntity], work=[283*, 0*]
127: 0x0379 [0x6E] Zhuk Vojahom (ID: 17752334/0x010EE10E) uses emote 8*
128: 0x0380 [0x99] Wait for Zhuk Vojahom (ID: 17752334/0x010EE10E) animation to complete
129: 0x0385 [0x1C] WAIT(30* ticks)
130: 0x0388 [0x2B] Zhuk Vojahom (ID: 17752334/0x010EE10E) [12316*]:
    → "Good luck finding the materials."
131: 0x038F [0x23] WAIT_FOR_DIALOG_INTERACTION
132: 0x0390 [0x1C] WAIT(30* ticks)
133: 0x0393 [0x32] ExtData[1]->MainSpeed = 13* * 0.1
134: 0x0396 [0x1F] MOVE_ENTITY: EventEntity moves to X=-200.000*, Z=-112.053*, Y=-4.459*
135: 0x039E [0x1F] MOVE_ENTITY: Update entity position (mode=1)
136: 0x03A0 [0x5D] SET_MUSIC_VOLUME(volume=0*, fade_time=90*)
137: 0x03A5 [0x1C] WAIT(90* ticks)
138: 0x03A8 [0x45] LOAD_SCHEDULED_TASK: Load scheduler "fdo1" with entities [EventEntity, EventEntity], work=[200*, 0*]
139: 0x03B9 [0x55] WAIT_LOAD_SCHEDULER: Wait for scheduler "fdo1" with entities [EventEntity, EventEntity], work=200*
140: 0x03C8 [0x1C] WAIT(30* ticks)
141: 0x03CB [0x52] END_LOAD_SCHEDULER: End scheduler "t009" with entities [LocalPlayer, LocalPlayer], work=283*
142: 0x03DA [0x5C] MUSIC_CONTROL: Set Idle (Day) music to song 151*
143: 0x03DE [0x5C] MUSIC_CONTROL: Set Idle (Night) music to song 151*
144: 0x03E2 [0x9A] WAIT_MUSIC_SERVER()
145: 0x03E3 [0x46] CAMERA_CONTROL: Restore default settings
146: 0x03E5 [0x45] LOAD_SCHEDULED_TASK: Load scheduler "fdi1" with entities [EventEntity, EventEntity], work=[200*, 0*]
147: 0x03F6 [0x21] END_EVENT
148: 0x03F7 [0x00] END_REQSTACK()
```

#### Data or dead code:

```
# Dead code (unreachable instructions):
     0x013D [0x01] GOTO 0x0140
```

### Event 942

#### Metadata

| Field        | Value     |
|--------------|-----------|
| Entrypoint   | 0x03F8    |
| Data Size    | 315 bytes |
| Instructions | 50        |

```
      00 01 02 03 04 05 06 07  08 09 0A 0B 0C 0D 0E 0F
      -- -- -- -- -- -- -- --  -- -- -- -- -- -- -- --
03F0:                          42 45 00 80 F8 FF FF 7F          BE......
0400: F8 FF FF 7F 66 64 6F 31  01 80 55 00 80 F8 FF FF  ....fdo1..U.....
0410: 7F F8 FF FF 7F 66 64 6F  31 46 01 38 02 80 29 10  .....fdo1F.8..).
0420: F0 FF FF 7F 71 92 01 0E  E1 0E 01 2F 00 0E E1 0E  ....q....../....
0430: 01 4E 00 0E E1 0E 01 80  F0 FF FF 7F 80 0E E1 0E  .N..............
0440: 01 4A 0E E1 0E 01 F0 FF  FF 7F 5C 00 03 80 5C 01  .J........\...\.
0450: 03 80 9A 03 02 10 04 80  03 03 10 05 80 03 04 10  ................
0460: 06 80 03 05 10 07 80 1C  0A 80 45 0B 80 F8 FF FF  ..........E.....
0470: 7F F8 FF FF 7F 74 30 30  30 01 80 1C 0C 80 45 00  .....t000.....E.
0480: 80 F8 FF FF 7F F8 FF FF  7F 66 64 69 31 01 80 32  .........fdi1..2
0490: 0D 80 1F 00 0E 80 0F 80  10 80 1F 01 1C 0C 80 2B  ...............+
04A0: 0E E1 0E 01 33 80 23 1C  0C 80 66 1E 80 F8 FF FF  ....3.#...f.....
04B0: 7F F8 FF FF 7F 74 6C 6B  30 2B 0E E1 0E 01 34 80  .....tlk0+....4.
04C0: 23 1C 0C 80 2B 0E E1 0E  01 35 80 23 66 1E 80 F8  #...+....5.#f...
04D0: FF FF 7F F8 FF FF 7F 74  6C 6B 31 5D 01 80 24 80  .......tlk1]..$.
04E0: 1C 24 80 45 00 80 F8 FF  FF 7F F8 FF FF 7F 66 64  .$.E..........fd
04F0: 6F 31 01 80 55 00 80 F8  FF FF 7F F8 FF FF 7F 66  o1..U..........f
0500: 64 6F 31 1C 0A 80 52 0B  80 F0 FF FF 7F F0 FF FF  do1...R.........
0510: 7F 74 30 30 30 5C 00 32  80 5C 01 32 80 9A 46 00  .t000\.2.\.2..F.
0520: 45 00 80 F8 FF FF 7F F8  FF FF 7F 66 64 69 31 01  E..........fdi1.
0530: 80 21 00                                          .!.             
```

#### Opcodes

```
  0: 0x03F8 [0x42] SET_CLI_EVENT_CANCEL_DATA()
  1: 0x03F9 [0x45] LOAD_SCHEDULED_TASK: Load scheduler "fdo1" with entities [EventEntity, EventEntity], work=[200*, 0*]
  2: 0x040A [0x55] WAIT_LOAD_SCHEDULER: Wait for scheduler "fdo1" with entities [EventEntity, EventEntity], work=200*
  3: 0x0419 [0x46] CAMERA_CONTROL: Disable user control
  4: 0x041B [0x38] SET_CLIENT_EVENT_MODE(mode=19*)
  5: 0x041E [0x29] REQ_SET_WAIT(priority=0x10, entity_id=LocalPlayer, tag_num=0x71)
  6: 0x0425 [0x92] Zhuk Vojahom (ID: 17752334/0x010EE10E)->Render.Flags3 ^= 0x01
  7: 0x042B [0x2F] Zhuk Vojahom (ID: 17752334/0x010EE10E)->Render.Flags0 &= ~0x80000 // Bit 19
  8: 0x0431 [0x4E] SET_ENTITY_HIDE_FLAG: Show Zhuk Vojahom (ID: 17752334/0x010EE10E)
  9: 0x0437 [0x80] LOAD_WAIT(entity=LocalPlayer)
 10: 0x043C [0x80] LOAD_WAIT(entity=Zhuk Vojahom (ID: 17752334/0x010EE10E))
 11: 0x0441 [0x4A] Zhuk Vojahom (ID: 17752334/0x010EE10E) looks at LocalPlayer
 12: 0x044A [0x5C] MUSIC_CONTROL: Set Idle (Day) music to song 175*
 13: 0x044E [0x5C] MUSIC_CONTROL: Set Idle (Night) music to song 175*
 14: 0x0452 [0x9A] WAIT_MUSIC_SERVER()
 15: 0x0453 [0x03] Work_Zone[2] = 823*
 16: 0x0458 [0x03] Work_Zone[3] = 879*
 17: 0x045D [0x03] Work_Zone[4] = 1829*
 18: 0x0462 [0x03] Work_Zone[5] = 2304*
 19: 0x0467 [0x1C] WAIT(30* ticks)
 20: 0x046A [0x45] LOAD_SCHEDULED_TASK: Load scheduler "t000" with entities [EventEntity, EventEntity], work=[283*, 0*]
 21: 0x047B [0x1C] WAIT(60* ticks)
 22: 0x047E [0x45] LOAD_SCHEDULED_TASK: Load scheduler "fdi1" with entities [EventEntity, EventEntity], work=[200*, 0*]
 23: 0x048F [0x32] ExtData[1]->MainSpeed = 13* * 0.1
 24: 0x0492 [0x1F] MOVE_ENTITY: EventEntity moves to X=-200.978*, Z=-112.225*, Y=-4.188*
 25: 0x049A [0x1F] MOVE_ENTITY: Update entity position (mode=1)
 26: 0x049C [0x1C] WAIT(60* ticks)
 27: 0x049F [0x2B] Zhuk Vojahom (ID: 17752334/0x010EE10E) [12317*]:
    → "You alrrready forgot?"
 28: 0x04A6 [0x23] WAIT_FOR_DIALOG_INTERACTION
 29: 0x04A7 [0x1C] WAIT(60* ticks)
 30: 0x04AA [0x66] LOAD_EXT_SCHEDULER_MAIN: Load scheduler "tlk0" with entities [EventEntity, EventEntity], work=59*
 31: 0x04B9 [0x2B] Zhuk Vojahom (ID: 17752334/0x010EE10E) [12318*]:
    → "$0, $1, $2, and $3!"
 32: 0x04C0 [0x23] WAIT_FOR_DIALOG_INTERACTION
 33: 0x04C1 [0x1C] WAIT(60* ticks)
 34: 0x04C4 [0x2B] Zhuk Vojahom (ID: 17752334/0x010EE10E) [12319*]:
    → "Now go get 'em!"
 35: 0x04CB [0x23] WAIT_FOR_DIALOG_INTERACTION
 36: 0x04CC [0x66] LOAD_EXT_SCHEDULER_MAIN: Load scheduler "tlk1" with entities [EventEntity, EventEntity], work=59*
 37: 0x04DB [0x5D] SET_MUSIC_VOLUME(volume=0*, fade_time=90*)
 38: 0x04E0 [0x1C] WAIT(90* ticks)
 39: 0x04E3 [0x45] LOAD_SCHEDULED_TASK: Load scheduler "fdo1" with entities [EventEntity, EventEntity], work=[200*, 0*]
 40: 0x04F4 [0x55] WAIT_LOAD_SCHEDULER: Wait for scheduler "fdo1" with entities [EventEntity, EventEntity], work=200*
 41: 0x0503 [0x1C] WAIT(30* ticks)
 42: 0x0506 [0x52] END_LOAD_SCHEDULER: End scheduler "t000" with entities [LocalPlayer, LocalPlayer], work=283*
 43: 0x0515 [0x5C] MUSIC_CONTROL: Set Idle (Day) music to song 151*
 44: 0x0519 [0x5C] MUSIC_CONTROL: Set Idle (Night) music to song 151*
 45: 0x051D [0x9A] WAIT_MUSIC_SERVER()
 46: 0x051E [0x46] CAMERA_CONTROL: Restore default settings
 47: 0x0520 [0x45] LOAD_SCHEDULED_TASK: Load scheduler "fdi1" with entities [EventEntity, EventEntity], work=[200*, 0*]
 48: 0x0531 [0x21] END_EVENT
 49: 0x0532 [0x00] END_REQSTACK()
```

### Event 943

#### Metadata

| Field        | Value     |
|--------------|-----------|
| Entrypoint   | 0x0533    |
| Data Size    | 350 bytes |
| Instructions | 57        |

```
      00 01 02 03 04 05 06 07  08 09 0A 0B 0C 0D 0E 0F
      -- -- -- -- -- -- -- --  -- -- -- -- -- -- -- --
0530:          42 45 00 80 F8  FF FF 7F F8 FF FF 7F 66     BE..........f
0540: 64 6F 31 01 80 55 00 80  F8 FF FF 7F F8 FF FF 7F  do1..U..........
0550: 66 64 6F 31 46 01 38 02  80 29 10 F0 FF FF 7F 71  fdo1F.8..).....q
0560: 92 01 0E E1 0E 01 2F 00  0E E1 0E 01 4E 00 0E E1  ....../.....N...
0570: 0E 01 80 F0 FF FF 7F 80  0E E1 0E 01 4A 0E E1 0E  ............J...
0580: 01 F0 FF FF 7F 5C 00 03  80 5C 01 03 80 9A 03 06  .....\...\......
0590: 10 08 80 03 07 10 09 80  1C 0A 80 45 0B 80 F8 FF  ...........E....
05A0: FF 7F F8 FF FF 7F 74 30  30 30 01 80 1C 0C 80 45  ......t000.....E
05B0: 00 80 F8 FF FF 7F F8 FF  FF 7F 66 64 69 31 01 80  ..........fdi1..
05C0: 32 0D 80 1F 00 0E 80 0F  80 10 80 1F 01 1C 0C 80  2...............
05D0: 2B 0E E1 0E 01 36 80 23  1C 0C 80 2B 0E E1 0E 01  +....6.#...+....
05E0: 37 80 23 52 0B 80 F8 FF  FF 7F F8 FF FF 7F 74 30  7.#R..........t0
05F0: 30 30 45 0B 80 F8 FF FF  7F F8 FF FF 7F 74 30 31  00E..........t01
0600: 35 01 80 1C 0A 80 2B 0E  E1 0E 01 38 80 23 6E 0E  5.....+....8.#n.
0610: E1 0E 01 1C 80 99 0E E1  0E 01 2B 0E E1 0E 01 39  ..........+....9
0620: 80 23 1C 0A 80 2B 0E E1  0E 01 35 80 23 6E 0E E1  .#...+....5.#n..
0630: 0E 01 2D 80 99 0E E1 0E  01 5D 01 80 24 80 1C 24  ..-......]..$..$
0640: 80 45 00 80 F8 FF FF 7F  F8 FF FF 7F 66 64 6F 31  .E..........fdo1
0650: 01 80 55 00 80 F8 FF FF  7F F8 FF FF 7F 66 64 6F  ..U..........fdo
0660: 31 1C 0A 80 52 0B 80 F0  FF FF 7F F0 FF FF 7F 74  1...R..........t
0670: 30 30 30 5C 00 32 80 5C  01 32 80 9A 46 00 45 00  000\.2.\.2..F.E.
0680: 80 F8 FF FF 7F F8 FF FF  7F 66 64 69 31 01 80 21  .........fdi1..!
0690: 00                                                .               
```

#### Opcodes

```
  0: 0x0533 [0x42] SET_CLI_EVENT_CANCEL_DATA()
  1: 0x0534 [0x45] LOAD_SCHEDULED_TASK: Load scheduler "fdo1" with entities [EventEntity, EventEntity], work=[200*, 0*]
  2: 0x0545 [0x55] WAIT_LOAD_SCHEDULER: Wait for scheduler "fdo1" with entities [EventEntity, EventEntity], work=200*
  3: 0x0554 [0x46] CAMERA_CONTROL: Disable user control
  4: 0x0556 [0x38] SET_CLIENT_EVENT_MODE(mode=19*)
  5: 0x0559 [0x29] REQ_SET_WAIT(priority=0x10, entity_id=LocalPlayer, tag_num=0x71)
  6: 0x0560 [0x92] Zhuk Vojahom (ID: 17752334/0x010EE10E)->Render.Flags3 ^= 0x01
  7: 0x0566 [0x2F] Zhuk Vojahom (ID: 17752334/0x010EE10E)->Render.Flags0 &= ~0x80000 // Bit 19
  8: 0x056C [0x4E] SET_ENTITY_HIDE_FLAG: Show Zhuk Vojahom (ID: 17752334/0x010EE10E)
  9: 0x0572 [0x80] LOAD_WAIT(entity=LocalPlayer)
 10: 0x0577 [0x80] LOAD_WAIT(entity=Zhuk Vojahom (ID: 17752334/0x010EE10E))
 11: 0x057C [0x4A] Zhuk Vojahom (ID: 17752334/0x010EE10E) looks at LocalPlayer
 12: 0x0585 [0x5C] MUSIC_CONTROL: Set Idle (Day) music to song 175*
 13: 0x0589 [0x5C] MUSIC_CONTROL: Set Idle (Night) music to song 175*
 14: 0x058D [0x9A] WAIT_MUSIC_SERVER()
 15: 0x058E [0x03] Work_Zone[6] = 2186*
 16: 0x0593 [0x03] Work_Zone[7] = 4*
 17: 0x0598 [0x1C] WAIT(30* ticks)
 18: 0x059B [0x45] LOAD_SCHEDULED_TASK: Load scheduler "t000" with entities [EventEntity, EventEntity], work=[283*, 0*]
 19: 0x05AC [0x1C] WAIT(60* ticks)
 20: 0x05AF [0x45] LOAD_SCHEDULED_TASK: Load scheduler "fdi1" with entities [EventEntity, EventEntity], work=[200*, 0*]
 21: 0x05C0 [0x32] ExtData[1]->MainSpeed = 13* * 0.1
 22: 0x05C3 [0x1F] MOVE_ENTITY: EventEntity moves to X=-200.978*, Z=-112.225*, Y=-4.188*
 23: 0x05CB [0x1F] MOVE_ENTITY: Update entity position (mode=1)
 24: 0x05CD [0x1C] WAIT(60* ticks)
 25: 0x05D0 [0x2B] Zhuk Vojahom (ID: 17752334/0x010EE10E) [12320*]:
    → "You got them all? Grrreat!"
 26: 0x05D7 [0x23] WAIT_FOR_DIALOG_INTERACTION
 27: 0x05D8 [0x1C] WAIT(60* ticks)
 28: 0x05DB [0x2B] Zhuk Vojahom (ID: 17752334/0x010EE10E) [12321*]:
    → "By the way, you can't expect me to do such a kind deed for frrree, but bring me $5 $0$4 , too, and I'll consider the price paid.t"
 29: 0x05E2 [0x23] WAIT_FOR_DIALOG_INTERACTION
 30: 0x05E3 [0x52] END_LOAD_SCHEDULER: End scheduler "t000" with entities [EventEntity, EventEntity], work=283*
 31: 0x05F2 [0x45] LOAD_SCHEDULED_TASK: Load scheduler "t015" with entities [EventEntity, EventEntity], work=[283*, 0*]
 32: 0x0603 [0x1C] WAIT(30* ticks)
 33: 0x0606 [0x2B] Zhuk Vojahom (ID: 17752334/0x010EE10E) [12322*]:
    → "You think that's expensive? Don't you get cheap on me!"
 34: 0x060D [0x23] WAIT_FOR_DIALOG_INTERACTION
 35: 0x060E [0x6E] Zhuk Vojahom (ID: 17752334/0x010EE10E) uses emote 26*
 36: 0x0615 [0x99] Wait for Zhuk Vojahom (ID: 17752334/0x010EE10E) animation to complete
 37: 0x061A [0x2B] Zhuk Vojahom (ID: 17752334/0x010EE10E) [12323*]:
    → "They all know you in the Near East now, don't they? It should be like taking pamamas from a kitten."
 38: 0x0621 [0x23] WAIT_FOR_DIALOG_INTERACTION
 39: 0x0622 [0x1C] WAIT(30* ticks)
 40: 0x0625 [0x2B] Zhuk Vojahom (ID: 17752334/0x010EE10E) [12319*]:
    → "Now go get 'em!"
 41: 0x062C [0x23] WAIT_FOR_DIALOG_INTERACTION
 42: 0x062D [0x6E] Zhuk Vojahom (ID: 17752334/0x010EE10E) uses emote 8*
 43: 0x0634 [0x99] Wait for Zhuk Vojahom (ID: 17752334/0x010EE10E) animation to complete
 44: 0x0639 [0x5D] SET_MUSIC_VOLUME(volume=0*, fade_time=90*)
 45: 0x063E [0x1C] WAIT(90* ticks)
 46: 0x0641 [0x45] LOAD_SCHEDULED_TASK: Load scheduler "fdo1" with entities [EventEntity, EventEntity], work=[200*, 0*]
 47: 0x0652 [0x55] WAIT_LOAD_SCHEDULER: Wait for scheduler "fdo1" with entities [EventEntity, EventEntity], work=200*
 48: 0x0661 [0x1C] WAIT(30* ticks)
 49: 0x0664 [0x52] END_LOAD_SCHEDULER: End scheduler "t000" with entities [LocalPlayer, LocalPlayer], work=283*
 50: 0x0673 [0x5C] MUSIC_CONTROL: Set Idle (Day) music to song 151*
 51: 0x0677 [0x5C] MUSIC_CONTROL: Set Idle (Night) music to song 151*
 52: 0x067B [0x9A] WAIT_MUSIC_SERVER()
 53: 0x067C [0x46] CAMERA_CONTROL: Restore default settings
 54: 0x067E [0x45] LOAD_SCHEDULED_TASK: Load scheduler "fdi1" with entities [EventEntity, EventEntity], work=[200*, 0*]
 55: 0x068F [0x21] END_EVENT
 56: 0x0690 [0x00] END_REQSTACK()
```

### Event 954

#### Metadata

| Field        | Value     |
|--------------|-----------|
| Entrypoint   | 0x0691    |
| Data Size    | 302 bytes |
| Instructions | 47        |

```
      00 01 02 03 04 05 06 07  08 09 0A 0B 0C 0D 0E 0F
      -- -- -- -- -- -- -- --  -- -- -- -- -- -- -- --
0690:    42 45 00 80 F8 FF FF  7F F8 FF FF 7F 66 64 6F   BE..........fdo
06A0: 31 01 80 55 00 80 F8 FF  FF 7F F8 FF FF 7F 66 64  1..U..........fd
06B0: 6F 31 46 01 38 02 80 29  10 F0 FF FF 7F 71 92 01  o1F.8..).....q..
06C0: 0E E1 0E 01 2F 00 0E E1  0E 01 4E 00 0E E1 0E 01  ..../.....N.....
06D0: 80 F0 FF FF 7F 80 0E E1  0E 01 4A 0E E1 0E 01 F0  ..........J.....
06E0: FF FF 7F 5C 00 03 80 5C  01 03 80 9A 03 06 10 08  ...\...\........
06F0: 80 03 07 10 09 80 1C 0A  80 45 0B 80 F8 FF FF 7F  .........E......
0700: F8 FF FF 7F 74 30 30 30  01 80 1C 0C 80 45 00 80  ....t000.....E..
0710: F8 FF FF 7F F8 FF FF 7F  66 64 69 31 01 80 32 0D  ........fdi1..2.
0720: 80 1F 00 0E 80 0F 80 10  80 1F 01 1C 0C 80 66 1E  ..............f.
0730: 80 F8 FF FF 7F F8 FF FF  7F 74 6C 6B 30 2B 0E E1  .........tlk0+..
0740: 0E 01 3A 80 23 1C 0A 80  2B 0E E1 0E 01 39 80 23  ..:.#...+....9.#
0750: 2B 0E E1 0E 01 35 80 23  66 1E 80 F8 FF FF 7F F8  +....5.#f.......
0760: FF FF 7F 74 6C 6B 31 5D  01 80 24 80 1C 24 80 45  ...tlk1]..$..$.E
0770: 00 80 F8 FF FF 7F F8 FF  FF 7F 66 64 6F 31 01 80  ..........fdo1..
0780: 55 00 80 F8 FF FF 7F F8  FF FF 7F 66 64 6F 31 1C  U..........fdo1.
0790: 0A 80 52 0B 80 F0 FF FF  7F F0 FF FF 7F 74 30 30  ..R..........t00
07A0: 30 5C 00 32 80 5C 01 32  80 9A 46 00 45 00 80 F8  0\.2.\.2..F.E...
07B0: FF FF 7F F8 FF FF 7F 66  64 69 31 01 80 21 00     .......fdi1..!. 
```

#### Opcodes

```
  0: 0x0691 [0x42] SET_CLI_EVENT_CANCEL_DATA()
  1: 0x0692 [0x45] LOAD_SCHEDULED_TASK: Load scheduler "fdo1" with entities [EventEntity, EventEntity], work=[200*, 0*]
  2: 0x06A3 [0x55] WAIT_LOAD_SCHEDULER: Wait for scheduler "fdo1" with entities [EventEntity, EventEntity], work=200*
  3: 0x06B2 [0x46] CAMERA_CONTROL: Disable user control
  4: 0x06B4 [0x38] SET_CLIENT_EVENT_MODE(mode=19*)
  5: 0x06B7 [0x29] REQ_SET_WAIT(priority=0x10, entity_id=LocalPlayer, tag_num=0x71)
  6: 0x06BE [0x92] Zhuk Vojahom (ID: 17752334/0x010EE10E)->Render.Flags3 ^= 0x01
  7: 0x06C4 [0x2F] Zhuk Vojahom (ID: 17752334/0x010EE10E)->Render.Flags0 &= ~0x80000 // Bit 19
  8: 0x06CA [0x4E] SET_ENTITY_HIDE_FLAG: Show Zhuk Vojahom (ID: 17752334/0x010EE10E)
  9: 0x06D0 [0x80] LOAD_WAIT(entity=LocalPlayer)
 10: 0x06D5 [0x80] LOAD_WAIT(entity=Zhuk Vojahom (ID: 17752334/0x010EE10E))
 11: 0x06DA [0x4A] Zhuk Vojahom (ID: 17752334/0x010EE10E) looks at LocalPlayer
 12: 0x06E3 [0x5C] MUSIC_CONTROL: Set Idle (Day) music to song 175*
 13: 0x06E7 [0x5C] MUSIC_CONTROL: Set Idle (Night) music to song 175*
 14: 0x06EB [0x9A] WAIT_MUSIC_SERVER()
 15: 0x06EC [0x03] Work_Zone[6] = 2186*
 16: 0x06F1 [0x03] Work_Zone[7] = 4*
 17: 0x06F6 [0x1C] WAIT(30* ticks)
 18: 0x06F9 [0x45] LOAD_SCHEDULED_TASK: Load scheduler "t000" with entities [EventEntity, EventEntity], work=[283*, 0*]
 19: 0x070A [0x1C] WAIT(60* ticks)
 20: 0x070D [0x45] LOAD_SCHEDULED_TASK: Load scheduler "fdi1" with entities [EventEntity, EventEntity], work=[200*, 0*]
 21: 0x071E [0x32] ExtData[1]->MainSpeed = 13* * 0.1
 22: 0x0721 [0x1F] MOVE_ENTITY: EventEntity moves to X=-200.978*, Z=-112.225*, Y=-4.188*
 23: 0x0729 [0x1F] MOVE_ENTITY: Update entity position (mode=1)
 24: 0x072B [0x1C] WAIT(60* ticks)
 25: 0x072E [0x66] LOAD_EXT_SCHEDULER_MAIN: Load scheduler "tlk0" with entities [EventEntity, EventEntity], work=59*
 26: 0x073D [0x2B] Zhuk Vojahom (ID: 17752334/0x010EE10E) [12324*]:
    → "$5 $0$4 , okay? I'm rrrooting for you here.t"
 27: 0x0744 [0x23] WAIT_FOR_DIALOG_INTERACTION
 28: 0x0745 [0x1C] WAIT(30* ticks)
 29: 0x0748 [0x2B] Zhuk Vojahom (ID: 17752334/0x010EE10E) [12323*]:
    → "They all know you in the Near East now, don't they? It should be like taking pamamas from a kitten."
 30: 0x074F [0x23] WAIT_FOR_DIALOG_INTERACTION
 31: 0x0750 [0x2B] Zhuk Vojahom (ID: 17752334/0x010EE10E) [12319*]:
    → "Now go get 'em!"
 32: 0x0757 [0x23] WAIT_FOR_DIALOG_INTERACTION
 33: 0x0758 [0x66] LOAD_EXT_SCHEDULER_MAIN: Load scheduler "tlk1" with entities [EventEntity, EventEntity], work=59*
 34: 0x0767 [0x5D] SET_MUSIC_VOLUME(volume=0*, fade_time=90*)
 35: 0x076C [0x1C] WAIT(90* ticks)
 36: 0x076F [0x45] LOAD_SCHEDULED_TASK: Load scheduler "fdo1" with entities [EventEntity, EventEntity], work=[200*, 0*]
 37: 0x0780 [0x55] WAIT_LOAD_SCHEDULER: Wait for scheduler "fdo1" with entities [EventEntity, EventEntity], work=200*
 38: 0x078F [0x1C] WAIT(30* ticks)
 39: 0x0792 [0x52] END_LOAD_SCHEDULER: End scheduler "t000" with entities [LocalPlayer, LocalPlayer], work=283*
 40: 0x07A1 [0x5C] MUSIC_CONTROL: Set Idle (Day) music to song 151*
 41: 0x07A5 [0x5C] MUSIC_CONTROL: Set Idle (Night) music to song 151*
 42: 0x07A9 [0x9A] WAIT_MUSIC_SERVER()
 43: 0x07AA [0x46] CAMERA_CONTROL: Restore default settings
 44: 0x07AC [0x45] LOAD_SCHEDULED_TASK: Load scheduler "fdi1" with entities [EventEntity, EventEntity], work=[200*, 0*]
 45: 0x07BD [0x21] END_EVENT
 46: 0x07BE [0x00] END_REQSTACK()
```

### Event 946

#### Metadata

| Field        | Value     |
|--------------|-----------|
| Entrypoint   | 0x07BF    |
| Data Size    | 339 bytes |
| Instructions | 50        |

```
      00 01 02 03 04 05 06 07  08 09 0A 0B 0C 0D 0E 0F
      -- -- -- -- -- -- -- --  -- -- -- -- -- -- -- --
07B0:                                               42                 B
07C0: 45 00 80 F8 FF FF 7F F8  FF FF 7F 66 64 6F 31 01  E..........fdo1.
07D0: 80 55 00 80 F8 FF FF 7F  F8 FF FF 7F 66 64 6F 31  .U..........fdo1
07E0: 46 01 38 02 80 29 10 F0  FF FF 7F 71 92 01 0E E1  F.8..).....q....
07F0: 0E 01 2F 00 0E E1 0E 01  4E 00 0E E1 0E 01 80 F0  ../.....N.......
0800: FF FF 7F 80 0E E1 0E 01  4A 0E E1 0E 01 F0 FF FF  ........J.......
0810: 7F 5C 00 03 80 5C 01 03  80 9A 1C 0A 80 45 0B 80  .\...\.......E..
0820: F8 FF FF 7F F8 FF FF 7F  74 30 30 30 01 80 1C 0C  ........t000....
0830: 80 45 00 80 F8 FF FF 7F  F8 FF FF 7F 66 64 69 31  .E..........fdi1
0840: 01 80 32 0D 80 1F 00 0E  80 0F 80 10 80 1F 01 1C  ..2.............
0850: 0C 80 6E 0E E1 0E 01 0D  80 99 0E E1 0E 01 2B 0E  ..n...........+.
0860: E1 0E 01 3B 80 23 1C 0C  80 52 0B 80 F8 FF FF 7F  ...;.#...R......
0870: F8 FF FF 7F 74 30 30 30  45 0B 80 F8 FF FF 7F F8  ....t000E.......
0880: FF FF 7F 74 30 31 35 01  80 66 1E 80 F8 FF FF 7F  ...t015..f......
0890: F8 FF FF 7F 74 6C 6B 30  2B 0E E1 0E 01 3C 80 23  ....tlk0+....<.#
08A0: 1C 0A 80 2B 0E E1 0E 01  3D 80 23 66 1E 80 F8 FF  ...+....=.#f....
08B0: FF 7F F8 FF FF 7F 74 6C  6B 31 5D 01 80 24 80 1C  ......tlk1]..$..
08C0: 24 80 45 00 80 F8 FF FF  7F F8 FF FF 7F 66 64 6F  $.E..........fdo
08D0: 31 01 80 55 00 80 F8 FF  FF 7F F8 FF FF 7F 66 64  1..U..........fd
08E0: 6F 31 1C 0A 80 52 0B 80  F0 FF FF 7F F0 FF FF 7F  o1...R..........
08F0: 74 30 31 35 5C 00 32 80  5C 01 32 80 9A 46 00 45  t015\.2.\.2..F.E
0900: 00 80 F8 FF FF 7F F8 FF  FF 7F 66 64 69 31 01 80  ..........fdi1..
0910: 21 00                                             !.              
```

#### Opcodes

```
  0: 0x07BF [0x42] SET_CLI_EVENT_CANCEL_DATA()
  1: 0x07C0 [0x45] LOAD_SCHEDULED_TASK: Load scheduler "fdo1" with entities [EventEntity, EventEntity], work=[200*, 0*]
  2: 0x07D1 [0x55] WAIT_LOAD_SCHEDULER: Wait for scheduler "fdo1" with entities [EventEntity, EventEntity], work=200*
  3: 0x07E0 [0x46] CAMERA_CONTROL: Disable user control
  4: 0x07E2 [0x38] SET_CLIENT_EVENT_MODE(mode=19*)
  5: 0x07E5 [0x29] REQ_SET_WAIT(priority=0x10, entity_id=LocalPlayer, tag_num=0x71)
  6: 0x07EC [0x92] Zhuk Vojahom (ID: 17752334/0x010EE10E)->Render.Flags3 ^= 0x01
  7: 0x07F2 [0x2F] Zhuk Vojahom (ID: 17752334/0x010EE10E)->Render.Flags0 &= ~0x80000 // Bit 19
  8: 0x07F8 [0x4E] SET_ENTITY_HIDE_FLAG: Show Zhuk Vojahom (ID: 17752334/0x010EE10E)
  9: 0x07FE [0x80] LOAD_WAIT(entity=LocalPlayer)
 10: 0x0803 [0x80] LOAD_WAIT(entity=Zhuk Vojahom (ID: 17752334/0x010EE10E))
 11: 0x0808 [0x4A] Zhuk Vojahom (ID: 17752334/0x010EE10E) looks at LocalPlayer
 12: 0x0811 [0x5C] MUSIC_CONTROL: Set Idle (Day) music to song 175*
 13: 0x0815 [0x5C] MUSIC_CONTROL: Set Idle (Night) music to song 175*
 14: 0x0819 [0x9A] WAIT_MUSIC_SERVER()
 15: 0x081A [0x1C] WAIT(30* ticks)
 16: 0x081D [0x45] LOAD_SCHEDULED_TASK: Load scheduler "t000" with entities [EventEntity, EventEntity], work=[283*, 0*]
 17: 0x082E [0x1C] WAIT(60* ticks)
 18: 0x0831 [0x45] LOAD_SCHEDULED_TASK: Load scheduler "fdi1" with entities [EventEntity, EventEntity], work=[200*, 0*]
 19: 0x0842 [0x32] ExtData[1]->MainSpeed = 13* * 0.1
 20: 0x0845 [0x1F] MOVE_ENTITY: EventEntity moves to X=-200.978*, Z=-112.225*, Y=-4.188*
 21: 0x084D [0x1F] MOVE_ENTITY: Update entity position (mode=1)
 22: 0x084F [0x1C] WAIT(60* ticks)
 23: 0x0852 [0x6E] Zhuk Vojahom (ID: 17752334/0x010EE10E) uses emote 13*
 24: 0x0859 [0x99] Wait for Zhuk Vojahom (ID: 17752334/0x010EE10E) animation to complete
 25: 0x085E [0x2B] Zhuk Vojahom (ID: 17752334/0x010EE10E) [12325*]:
    → "Hm... Yep, looks like they're all here!"
 26: 0x0865 [0x23] WAIT_FOR_DIALOG_INTERACTION
 27: 0x0866 [0x1C] WAIT(60* ticks)
 28: 0x0869 [0x52] END_LOAD_SCHEDULER: End scheduler "t000" with entities [EventEntity, EventEntity], work=283*
 29: 0x0878 [0x45] LOAD_SCHEDULED_TASK: Load scheduler "t015" with entities [EventEntity, EventEntity], work=[283*, 0*]
 30: 0x0889 [0x66] LOAD_EXT_SCHEDULER_MAIN: Load scheduler "tlk0" with entities [EventEntity, EventEntity], work=59*
 31: 0x0898 [0x2B] Zhuk Vojahom (ID: 17752334/0x010EE10E) [12326*]:
    → "Now you just have to wait for me to make it, okay?"
 32: 0x089F [0x23] WAIT_FOR_DIALOG_INTERACTION
 33: 0x08A0 [0x1C] WAIT(30* ticks)
 34: 0x08A3 [0x2B] Zhuk Vojahom (ID: 17752334/0x010EE10E) [12327*]:
    → "It won't take long, so stop giving me that look. Heh heh, no one'll be able to match this. You better apprrreciate it."
 35: 0x08AA [0x23] WAIT_FOR_DIALOG_INTERACTION
 36: 0x08AB [0x66] LOAD_EXT_SCHEDULER_MAIN: Load scheduler "tlk1" with entities [EventEntity, EventEntity], work=59*
 37: 0x08BA [0x5D] SET_MUSIC_VOLUME(volume=0*, fade_time=90*)
 38: 0x08BF [0x1C] WAIT(90* ticks)
 39: 0x08C2 [0x45] LOAD_SCHEDULED_TASK: Load scheduler "fdo1" with entities [EventEntity, EventEntity], work=[200*, 0*]
 40: 0x08D3 [0x55] WAIT_LOAD_SCHEDULER: Wait for scheduler "fdo1" with entities [EventEntity, EventEntity], work=200*
 41: 0x08E2 [0x1C] WAIT(30* ticks)
 42: 0x08E5 [0x52] END_LOAD_SCHEDULER: End scheduler "t015" with entities [LocalPlayer, LocalPlayer], work=283*
 43: 0x08F4 [0x5C] MUSIC_CONTROL: Set Idle (Day) music to song 151*
 44: 0x08F8 [0x5C] MUSIC_CONTROL: Set Idle (Night) music to song 151*
 45: 0x08FC [0x9A] WAIT_MUSIC_SERVER()
 46: 0x08FD [0x46] CAMERA_CONTROL: Restore default settings
 47: 0x08FF [0x45] LOAD_SCHEDULED_TASK: Load scheduler "fdi1" with entities [EventEntity, EventEntity], work=[200*, 0*]
 48: 0x0910 [0x21] END_EVENT
 49: 0x0911 [0x00] END_REQSTACK()
```

### Event 944

#### Metadata

| Field        | Value     |
|--------------|-----------|
| Entrypoint   | 0x0912    |
| Data Size    | 502 bytes |
| Instructions | 73        |

```
      00 01 02 03 04 05 06 07  08 09 0A 0B 0C 0D 0E 0F
      -- -- -- -- -- -- -- --  -- -- -- -- -- -- -- --
0910:       42 45 00 80 F8 FF  FF 7F F8 FF FF 7F 66 64    BE..........fd
0920: 6F 31 01 80 55 00 80 F8  FF FF 7F F8 FF FF 7F 66  o1..U..........f
0930: 64 6F 31 46 01 38 02 80  29 10 F0 FF FF 7F 71 92  do1F.8..).....q.
0940: 01 0E E1 0E 01 2F 00 0E  E1 0E 01 4E 00 0E E1 0E  ...../.....N....
0950: 01 80 F0 FF FF 7F 80 0E  E1 0E 01 4A 0E E1 0E 01  ...........J....
0960: F0 FF FF 7F 5C 00 03 80  5C 01 03 80 9A 03 06 10  ....\...\.......
0970: 08 80 1C 0A 80 45 0B 80  F8 FF FF 7F F8 FF FF 7F  .....E..........
0980: 74 30 30 30 01 80 45 00  80 F8 FF FF 7F F8 FF FF  t000..E.........
0990: 7F 66 64 69 31 01 80 32  0D 80 1F 00 0E 80 0F 80  .fdi1..2........
09A0: 10 80 1F 01 1C 0C 80 2B  0E E1 0E 01 3E 80 23 6E  .......+....>.#n
09B0: 0E E1 0E 01 0D 80 99 0E  E1 0E 01 1C 3F 80 52 0B  ............?.R.
09C0: 80 F8 FF FF 7F F8 FF FF  7F 74 30 30 30 45 0B 80  .........t000E..
09D0: F8 FF FF 7F F8 FF FF 7F  74 30 31 36 01 80 1C 0A  ........t016....
09E0: 80 2B 0E E1 0E 01 40 80  23 2B 0E E1 0E 01 41 80  .+....@.#+....A.
09F0: 23 1C 0A 80 52 0B 80 F8  FF FF 7F F8 FF FF 7F 74  #...R..........t
0A00: 30 31 36 45 0B 80 F8 FF  FF 7F F8 FF FF 7F 74 30  016E..........t0
0A10: 31 32 01 80 6E 0E E1 0E  01 42 80 99 0E E1 0E 01  12..n....B......
0A20: 2B 0E E1 0E 01 43 80 23  2B 0E E1 0E 01 44 80 23  +....C.#+....D.#
0A30: 1C 0A 80 52 0B 80 F8 FF  FF 7F F8 FF FF 7F 74 30  ...R..........t0
0A40: 31 32 45 0B 80 F8 FF FF  7F F8 FF FF 7F 74 30 31  12E..........t01
0A50: 33 01 80 1C 0C 80 1E 0D  E1 0E 01 2B 0E E1 0E 01  3..........+....
0A60: 45 80 23 2B 0E E1 0E 01  46 80 23 52 0B 80 F8 FF  E.#+....F.#R....
0A70: FF 7F F8 FF FF 7F 74 30  31 33 45 0B 80 F8 FF FF  ......t013E.....
0A80: 7F F8 FF FF 7F 74 30 31  34 01 80 1C 0C 80 4A 0E  .....t014.....J.
0A90: E1 0E 01 F0 FF FF 7F 2B  0E E1 0E 01 47 80 23 5D  .......+....G.#]
0AA0: 01 80 24 80 1C 24 80 45  00 80 F8 FF FF 7F F8 FF  ..$..$.E........
0AB0: FF 7F 66 64 6F 31 01 80  55 00 80 F8 FF FF 7F F8  ..fdo1..U.......
0AC0: FF FF 7F 66 64 6F 31 1C  0A 80 52 0B 80 F0 FF FF  ...fdo1...R.....
0AD0: 7F F0 FF FF 7F 74 30 31  34 5C 00 32 80 5C 01 32  .....t014\.2.\.2
0AE0: 80 9A 46 00 45 48 80 F0  FF FF 7F F0 FF FF 7F 71  ..F.EH.........q
0AF0: 73 74 63 01 80 45 00 80  F8 FF FF 7F F8 FF FF 7F  stc..E..........
0B00: 66 64 69 31 01 80 21 00                           fdi1..!.        
```

#### Opcodes

```
  0: 0x0912 [0x42] SET_CLI_EVENT_CANCEL_DATA()
  1: 0x0913 [0x45] LOAD_SCHEDULED_TASK: Load scheduler "fdo1" with entities [EventEntity, EventEntity], work=[200*, 0*]
  2: 0x0924 [0x55] WAIT_LOAD_SCHEDULER: Wait for scheduler "fdo1" with entities [EventEntity, EventEntity], work=200*
  3: 0x0933 [0x46] CAMERA_CONTROL: Disable user control
  4: 0x0935 [0x38] SET_CLIENT_EVENT_MODE(mode=19*)
  5: 0x0938 [0x29] REQ_SET_WAIT(priority=0x10, entity_id=LocalPlayer, tag_num=0x71)
  6: 0x093F [0x92] Zhuk Vojahom (ID: 17752334/0x010EE10E)->Render.Flags3 ^= 0x01
  7: 0x0945 [0x2F] Zhuk Vojahom (ID: 17752334/0x010EE10E)->Render.Flags0 &= ~0x80000 // Bit 19
  8: 0x094B [0x4E] SET_ENTITY_HIDE_FLAG: Show Zhuk Vojahom (ID: 17752334/0x010EE10E)
  9: 0x0951 [0x80] LOAD_WAIT(entity=LocalPlayer)
 10: 0x0956 [0x80] LOAD_WAIT(entity=Zhuk Vojahom (ID: 17752334/0x010EE10E))
 11: 0x095B [0x4A] Zhuk Vojahom (ID: 17752334/0x010EE10E) looks at LocalPlayer
 12: 0x0964 [0x5C] MUSIC_CONTROL: Set Idle (Day) music to song 175*
 13: 0x0968 [0x5C] MUSIC_CONTROL: Set Idle (Night) music to song 175*
 14: 0x096C [0x9A] WAIT_MUSIC_SERVER()
 15: 0x096D [0x03] Work_Zone[6] = 2186*
 16: 0x0972 [0x1C] WAIT(30* ticks)
 17: 0x0975 [0x45] LOAD_SCHEDULED_TASK: Load scheduler "t000" with entities [EventEntity, EventEntity], work=[283*, 0*]
 18: 0x0986 [0x45] LOAD_SCHEDULED_TASK: Load scheduler "fdi1" with entities [EventEntity, EventEntity], work=[200*, 0*]
 19: 0x0997 [0x32] ExtData[1]->MainSpeed = 13* * 0.1
 20: 0x099A [0x1F] MOVE_ENTITY: EventEntity moves to X=-200.978*, Z=-112.225*, Y=-4.188*
 21: 0x09A2 [0x1F] MOVE_ENTITY: Update entity position (mode=1)
 22: 0x09A4 [0x1C] WAIT(60* ticks)
 23: 0x09A7 [0x2B] Zhuk Vojahom (ID: 17752334/0x010EE10E) [12329*]:
    → "Ta-da! All finished!"
 24: 0x09AE [0x23] WAIT_FOR_DIALOG_INTERACTION
 25: 0x09AF [0x6E] Zhuk Vojahom (ID: 17752334/0x010EE10E) uses emote 13*
 26: 0x09B6 [0x99] Wait for Zhuk Vojahom (ID: 17752334/0x010EE10E) animation to complete
 27: 0x09BB [0x1C] WAIT(45* ticks)
 28: 0x09BE [0x52] END_LOAD_SCHEDULER: End scheduler "t000" with entities [EventEntity, EventEntity], work=283*
 29: 0x09CD [0x45] LOAD_SCHEDULED_TASK: Load scheduler "t016" with entities [EventEntity, EventEntity], work=[283*, 0*]
 30: 0x09DE [0x1C] WAIT(30* ticks)
 31: 0x09E1 [0x2B] Zhuk Vojahom (ID: 17752334/0x010EE10E) [12331*]:
    → "Heheheh. Looking good.t"
 32: 0x09E8 [0x23] WAIT_FOR_DIALOG_INTERACTION
 33: 0x09E9 [0x2B] Zhuk Vojahom (ID: 17752334/0x010EE10E) [12330*]:
    → "Now this is a well-made item! You better not drrrag it through the mud, got it?"
 34: 0x09F0 [0x23] WAIT_FOR_DIALOG_INTERACTION
 35: 0x09F1 [0x1C] WAIT(30* ticks)
 36: 0x09F4 [0x52] END_LOAD_SCHEDULER: End scheduler "t016" with entities [EventEntity, EventEntity], work=283*
 37: 0x0A03 [0x45] LOAD_SCHEDULED_TASK: Load scheduler "t012" with entities [EventEntity, EventEntity], work=[283*, 0*]
 38: 0x0A14 [0x6E] Zhuk Vojahom (ID: 17752334/0x010EE10E) uses emote 12*
 39: 0x0A1B [0x99] Wait for Zhuk Vojahom (ID: 17752334/0x010EE10E) animation to complete
 40: 0x0A20 [0x2B] Zhuk Vojahom (ID: 17752334/0x010EE10E) [12332*]:
    → "Now go take flight above the rolling waves, Seagull!"
 41: 0x0A27 [0x23] WAIT_FOR_DIALOG_INTERACTION
 42: 0x0A28 [0x2B] Zhuk Vojahom (ID: 17752334/0x010EE10E) [12333*]:
    → "Ah, even just the memories make me burn to get back to the Phratrie... The ocean is calling me home!"
 43: 0x0A2F [0x23] WAIT_FOR_DIALOG_INTERACTION
 44: 0x0A30 [0x1C] WAIT(30* ticks)
 45: 0x0A33 [0x52] END_LOAD_SCHEDULER: End scheduler "t012" with entities [EventEntity, EventEntity], work=283*
 46: 0x0A42 [0x45] LOAD_SCHEDULED_TASK: Load scheduler "t013" with entities [EventEntity, EventEntity], work=[283*, 0*]
 47: 0x0A53 [0x1C] WAIT(60* ticks)
 48: 0x0A56 [0x1E] EventEntity looks at Door:House (ID: 17752333/0x010EE10D) and starts talking
 49: 0x0A5B [0x2B] Zhuk Vojahom (ID: 17752334/0x010EE10E) [12334*]:
    → "(Maybe I'll make this $4 the wager for my 152nd match with Qultada...)"
 50: 0x0A62 [0x23] WAIT_FOR_DIALOG_INTERACTION
 51: 0x0A63 [0x2B] Zhuk Vojahom (ID: 17752334/0x010EE10E) [12335*]:
    → "(This time I'll beat him for sure!)"
 52: 0x0A6A [0x23] WAIT_FOR_DIALOG_INTERACTION
 53: 0x0A6B [0x52] END_LOAD_SCHEDULER: End scheduler "t013" with entities [EventEntity, EventEntity], work=283*
 54: 0x0A7A [0x45] LOAD_SCHEDULED_TASK: Load scheduler "t014" with entities [EventEntity, EventEntity], work=[283*, 0*]
 55: 0x0A8B [0x1C] WAIT(60* ticks)
 56: 0x0A8E [0x4A] Zhuk Vojahom (ID: 17752334/0x010EE10E) looks at LocalPlayer
 57: 0x0A97 [0x2B] Zhuk Vojahom (ID: 17752334/0x010EE10E) [12336*]:
    → "See ya at the base, then!"
 58: 0x0A9E [0x23] WAIT_FOR_DIALOG_INTERACTION
 59: 0x0A9F [0x5D] SET_MUSIC_VOLUME(volume=0*, fade_time=90*)
 60: 0x0AA4 [0x1C] WAIT(90* ticks)
 61: 0x0AA7 [0x45] LOAD_SCHEDULED_TASK: Load scheduler "fdo1" with entities [EventEntity, EventEntity], work=[200*, 0*]
 62: 0x0AB8 [0x55] WAIT_LOAD_SCHEDULER: Wait for scheduler "fdo1" with entities [EventEntity, EventEntity], work=200*
 63: 0x0AC7 [0x1C] WAIT(30* ticks)
 64: 0x0ACA [0x52] END_LOAD_SCHEDULER: End scheduler "t014" with entities [LocalPlayer, LocalPlayer], work=283*
 65: 0x0AD9 [0x5C] MUSIC_CONTROL: Set Idle (Day) music to song 151*
 66: 0x0ADD [0x5C] MUSIC_CONTROL: Set Idle (Night) music to song 151*
 67: 0x0AE1 [0x9A] WAIT_MUSIC_SERVER()
 68: 0x0AE2 [0x46] CAMERA_CONTROL: Restore default settings
 69: 0x0AE4 [0x45] LOAD_SCHEDULED_TASK: Load scheduler "qstc" with entities [LocalPlayer, LocalPlayer], work=[201*, 0*]
 70: 0x0AF5 [0x45] LOAD_SCHEDULED_TASK: Load scheduler "fdi1" with entities [EventEntity, EventEntity], work=[200*, 0*]
 71: 0x0B06 [0x21] END_EVENT
 72: 0x0B07 [0x00] END_REQSTACK()
```

### Event 945

#### Metadata

| Field        | Value     |
|--------------|-----------|
| Entrypoint   | 0x0B08    |
| Data Size    | 261 bytes |
| Instructions | 41        |

```
      00 01 02 03 04 05 06 07  08 09 0A 0B 0C 0D 0E 0F
      -- -- -- -- -- -- -- --  -- -- -- -- -- -- -- --
0B00:                          42 45 00 80 F8 FF FF 7F          BE......
0B10: F8 FF FF 7F 66 64 6F 31  01 80 55 00 80 F8 FF FF  ....fdo1..U.....
0B20: 7F F8 FF FF 7F 66 64 6F  31 46 01 38 02 80 29 10  .....fdo1F.8..).
0B30: F0 FF FF 7F 71 92 01 0E  E1 0E 01 92 01 0D E1 0E  ....q...........
0B40: 01 2F 00 0E E1 0E 01 4E  00 0E E1 0E 01 80 F0 FF  ./.....N........
0B50: FF 7F 80 0E E1 0E 01 4A  0E E1 0E 01 F0 FF FF 7F  .......J........
0B60: 5C 00 03 80 5C 01 03 80  9A 1C 0A 80 45 0B 80 F8  \...\.......E...
0B70: FF FF 7F F8 FF FF 7F 74  30 30 30 01 80 1C 0C 80  .......t000.....
0B80: 45 00 80 F8 FF FF 7F F8  FF FF 7F 66 64 69 31 01  E..........fdi1.
0B90: 80 32 0D 80 1F 00 0E 80  0F 80 10 80 1F 01 1C 0C  .2..............
0BA0: 80 6E 0E E1 0E 01 1C 80  99 0E E1 0E 01 2B 0E E1  .n...........+..
0BB0: 0E 01 49 80 23 5D 01 80  24 80 1C 24 80 45 00 80  ..I.#]..$..$.E..
0BC0: F8 FF FF 7F F8 FF FF 7F  66 64 6F 31 01 80 55 00  ........fdo1..U.
0BD0: 80 F8 FF FF 7F F8 FF FF  7F 66 64 6F 31 1C 0A 80  .........fdo1...
0BE0: 52 0B 80 F0 FF FF 7F F0  FF FF 7F 74 30 30 30 5C  R..........t000\
0BF0: 00 32 80 5C 01 32 80 9A  46 00 45 00 80 F8 FF FF  .2.\.2..F.E.....
0C00: 7F F8 FF FF 7F 66 64 69  31 01 80 21 00           .....fdi1..!.   
```

#### Opcodes

```
  0: 0x0B08 [0x42] SET_CLI_EVENT_CANCEL_DATA()
  1: 0x0B09 [0x45] LOAD_SCHEDULED_TASK: Load scheduler "fdo1" with entities [EventEntity, EventEntity], work=[200*, 0*]
  2: 0x0B1A [0x55] WAIT_LOAD_SCHEDULER: Wait for scheduler "fdo1" with entities [EventEntity, EventEntity], work=200*
  3: 0x0B29 [0x46] CAMERA_CONTROL: Disable user control
  4: 0x0B2B [0x38] SET_CLIENT_EVENT_MODE(mode=19*)
  5: 0x0B2E [0x29] REQ_SET_WAIT(priority=0x10, entity_id=LocalPlayer, tag_num=0x71)
  6: 0x0B35 [0x92] Zhuk Vojahom (ID: 17752334/0x010EE10E)->Render.Flags3 ^= 0x01
  7: 0x0B3B [0x92] Door:House (ID: 17752333/0x010EE10D)->Render.Flags3 ^= 0x01
  8: 0x0B41 [0x2F] Zhuk Vojahom (ID: 17752334/0x010EE10E)->Render.Flags0 &= ~0x80000 // Bit 19
  9: 0x0B47 [0x4E] SET_ENTITY_HIDE_FLAG: Show Zhuk Vojahom (ID: 17752334/0x010EE10E)
 10: 0x0B4D [0x80] LOAD_WAIT(entity=LocalPlayer)
 11: 0x0B52 [0x80] LOAD_WAIT(entity=Zhuk Vojahom (ID: 17752334/0x010EE10E))
 12: 0x0B57 [0x4A] Zhuk Vojahom (ID: 17752334/0x010EE10E) looks at LocalPlayer
 13: 0x0B60 [0x5C] MUSIC_CONTROL: Set Idle (Day) music to song 175*
 14: 0x0B64 [0x5C] MUSIC_CONTROL: Set Idle (Night) music to song 175*
 15: 0x0B68 [0x9A] WAIT_MUSIC_SERVER()
 16: 0x0B69 [0x1C] WAIT(30* ticks)
 17: 0x0B6C [0x45] LOAD_SCHEDULED_TASK: Load scheduler "t000" with entities [EventEntity, EventEntity], work=[283*, 0*]
 18: 0x0B7D [0x1C] WAIT(60* ticks)
 19: 0x0B80 [0x45] LOAD_SCHEDULED_TASK: Load scheduler "fdi1" with entities [EventEntity, EventEntity], work=[200*, 0*]
 20: 0x0B91 [0x32] ExtData[1]->MainSpeed = 13* * 0.1
 21: 0x0B94 [0x1F] MOVE_ENTITY: EventEntity moves to X=-200.978*, Z=-112.225*, Y=-4.188*
 22: 0x0B9C [0x1F] MOVE_ENTITY: Update entity position (mode=1)
 23: 0x0B9E [0x1C] WAIT(60* ticks)
 24: 0x0BA1 [0x6E] Zhuk Vojahom (ID: 17752334/0x010EE10E) uses emote 26*
 25: 0x0BA8 [0x99] Wait for Zhuk Vojahom (ID: 17752334/0x010EE10E) animation to complete
 26: 0x0BAD [0x2B] Zhuk Vojahom (ID: 17752334/0x010EE10E) [12328*]:
    → "Patience, patience! Give me some time, will ya? Go cloudgazing or something and come back later!"
 27: 0x0BB4 [0x23] WAIT_FOR_DIALOG_INTERACTION
 28: 0x0BB5 [0x5D] SET_MUSIC_VOLUME(volume=0*, fade_time=90*)
 29: 0x0BBA [0x1C] WAIT(90* ticks)
 30: 0x0BBD [0x45] LOAD_SCHEDULED_TASK: Load scheduler "fdo1" with entities [EventEntity, EventEntity], work=[200*, 0*]
 31: 0x0BCE [0x55] WAIT_LOAD_SCHEDULER: Wait for scheduler "fdo1" with entities [EventEntity, EventEntity], work=200*
 32: 0x0BDD [0x1C] WAIT(30* ticks)
 33: 0x0BE0 [0x52] END_LOAD_SCHEDULER: End scheduler "t000" with entities [LocalPlayer, LocalPlayer], work=283*
 34: 0x0BEF [0x5C] MUSIC_CONTROL: Set Idle (Day) music to song 151*
 35: 0x0BF3 [0x5C] MUSIC_CONTROL: Set Idle (Night) music to song 151*
 36: 0x0BF7 [0x9A] WAIT_MUSIC_SERVER()
 37: 0x0BF8 [0x46] CAMERA_CONTROL: Restore default settings
 38: 0x0BFA [0x45] LOAD_SCHEDULED_TASK: Load scheduler "fdi1" with entities [EventEntity, EventEntity], work=[200*, 0*]
 39: 0x0C0B [0x21] END_EVENT
 40: 0x0C0C [0x00] END_REQSTACK()
```
