# 17752342

## Common Data

| Field            | Value                     |
|------------------|---------------------------|
| Zone             | Windurst Waters (ID: 238) |
| Block Size       | 8456 bytes                |
| Total Events     | 5                         |
| References Count | 169                       |

## List of Events

| Event ID              | Entrypoint   |   Size |   Instructions |
|-----------------------|--------------|--------|----------------|
| [65535](#event-65535) | 0x0000       |      1 |              1 |
| [989](#event-989)     | 0x0001       |    946 |            131 |
| [1015](#event-1015)   | 0x03B3       |    871 |            141 |
| [1016](#event-1016)   | 0x071A       |   1548 |            198 |
| [991](#event-991)     | 0x0D26       |   4378 |            559 |

## DAT References (imed_data)

|   Index | Hex Value   |   Dec Value |
|---------|-------------|-------------|
|       0 | 0x0001      |           1 |
|       1 | 0x0156      |         342 |
|       2 | 0x0000      |           0 |
|       3 | 0x001E      |          30 |
|       4 | 0x003B      |          59 |
|       5 | 0x3AD7      |       15063 |
|       6 | 0x0028      |          40 |
|       7 | 0x3AD8      |       15064 |
|       8 | 0x00C8      |         200 |
|       9 | 0x3AD9      |       15065 |
|      10 | 0x00B4      |         180 |
|      11 | 0x3ADA      |       15066 |
|      12 | 0x003C      |          60 |
|      13 | 0x270C      |        9996 |
|      14 | 0x4B60      |       19296 |
|      15 | 0xFFFFFC18  |  4294966296 |
|      16 | 0x00D6      |         214 |
|      17 | 0x0183      |         387 |
|      18 | 0x052B      |        1323 |
|      19 | 0x0050      |          80 |
|      20 | 0x0008      |           8 |
|      21 | 0x3ADB      |       15067 |
|      22 | 0x005A      |          90 |
|      23 | 0x000A      |          10 |
|      24 | 0x3ADC      |       15068 |
|      25 | 0x0078      |         120 |
|      26 | 0x3ADD      |       15069 |
|      27 | 0x0064      |         100 |
|      28 | 0x2AF8      |       11000 |
|      29 | 0x5208      |       21000 |
|      30 | 0x0020      |          32 |
|      31 | 0x3ADE      |       15070 |
|      32 | 0x05F9      |        1529 |
|      33 | 0x00A0      |         160 |
|      34 | 0x3ADF      |       15071 |
|      35 | 0x3AE0      |       15072 |
|      36 | 0x008C      |         140 |
|      37 | 0x000F      |          15 |
|      38 | 0x3AE1      |       15073 |
|      39 | 0x3AE2      |       15074 |
|      40 | 0x00F0      |         240 |
|      41 | 0x005B      |          91 |
|      42 | 0x0002      |           2 |
|      43 | 0xFFFB2832  |  4294649906 |
|      44 | 0x2F57B     |      193915 |
|      45 | 0x1FA6      |        8102 |
|      46 | 0x00D5      |         213 |
|      47 | 0x3AE3      |       15075 |
|      48 | 0x0871      |        2161 |
|      49 | 0x3AE4      |       15076 |
|      50 | 0x000B      |          11 |
|      51 | 0x3AE5      |       15077 |
|      52 | 0x3AE6      |       15078 |
|      53 | 0x3AE7      |       15079 |
|      54 | 0x3AE8      |       15080 |
|      55 | 0x3AE9      |       15081 |
|      56 | 0x3AEA      |       15082 |
|      57 | 0x3AEB      |       15083 |
|      58 | 0x3AEC      |       15084 |
|      59 | 0x3AED      |       15085 |
|      60 | 0x076C      |        1900 |
|      61 | 0x3AEE      |       15086 |
|      62 | 0x006F      |         111 |
|      63 | 0x3AEF      |       15087 |
|      64 | 0xA761E     |      685598 |
|      65 | 0x809E4     |      526820 |
|      66 | 0xFFFFA172  |  4294943090 |
|      67 | 0x0080      |         128 |
|      68 | 0x3AF0      |       15088 |
|      69 | 0x3AF1      |       15089 |
|      70 | 0x00EE      |         238 |
|      71 | 0xFFFFEB0E  |  4294961934 |
|      72 | 0x468B      |       18059 |
|      73 | 0x0B95      |        2965 |
|      74 | 0x165B      |        5723 |
|      75 | 0x488E      |       18574 |
|      76 | 0x0A9A      |        2714 |
|      77 | 0x2178      |        8568 |
|      78 | 0x5524      |       21796 |
|      79 | 0x0D5C      |        3420 |
|      80 | 0x1EF2      |        7922 |
|      81 | 0x51BC      |       20924 |
|      82 | 0x1FDE      |        8158 |
|      83 | 0x5A1D      |       23069 |
|      84 | 0x1987      |        6535 |
|      85 | 0x552E      |       21806 |
|      86 | 0xFFFFFC19  |  4294966297 |
|      87 | 0x0A20      |        2592 |
|      88 | 0x18BE      |        6334 |
|      89 | 0x590A      |       22794 |
|      90 | 0x3AF2      |       15090 |
|      91 | 0x3AF3      |       15091 |
|      92 | 0x03E7      |         999 |
|      93 | 0x0097      |         151 |
|      94 | 0x3AF4      |       15092 |
|      95 | 0x3AF5      |       15093 |
|      96 | 0x3AF6      |       15094 |
|      97 | 0x3AF7      |       15095 |
|      98 | 0x3AF9      |       15097 |
|      99 | 0x0384      |         900 |
|     100 | 0x0006      |           6 |
|     101 | 0x3AFA      |       15098 |
|     102 | 0x3AFB      |       15099 |
|     103 | 0x3AFC      |       15100 |
|     104 | 0x3AFD      |       15101 |
|     105 | 0x3AFE      |       15102 |
|     106 | 0x3AFF      |       15103 |
|     107 | 0x3B00      |       15104 |
|     108 | 0x3B01      |       15105 |
|     109 | 0x3B02      |       15106 |
|     110 | 0x3B03      |       15107 |
|     111 | 0x3B07      |       15111 |
|     112 | 0x3B08      |       15112 |
|     113 | 0x3B09      |       15113 |
|     114 | 0x0A00      |        2560 |
|     115 | 0x3B0A      |       15114 |
|     116 | 0x0071      |         113 |
|     117 | 0x0184      |         388 |
|     118 | 0x3B0B      |       15115 |
|     119 | 0x002D      |          45 |
|     120 | 0x007D      |         125 |
|     121 | 0x0082      |         130 |
|     122 | 0x0007      |           7 |
|     123 | 0x0010      |          16 |
|     124 | 0x67840     |      424000 |
|     125 | 0xFFFF9A70  |  4294941296 |
|     126 | 0xFFFF62F9  |  4294927097 |
|     127 | 0x0DF8      |        3576 |
|     128 | 0x020F      |         527 |
|     129 | 0x0069      |         105 |
|     130 | 0x3B0C      |       15116 |
|     131 | 0x3B0D      |       15117 |
|     132 | 0x0014      |          20 |
|     133 | 0x3B0E      |       15118 |
|     134 | 0x0835      |        2101 |
|     135 | 0x0578      |        1400 |
|     136 | 0x3B0F      |       15119 |
|     137 | 0x3B10      |       15120 |
|     138 | 0x3B11      |       15121 |
|     139 | 0x3B12      |       15122 |
|     140 | 0x3B13      |       15123 |
|     141 | 0x3B14      |       15124 |
|     142 | 0x3B15      |       15125 |
|     143 | 0x3B16      |       15126 |
|     144 | 0x3B17      |       15127 |
|     145 | 0x3B18      |       15128 |
|     146 | 0x3B19      |       15129 |
|     147 | 0x3B1A      |       15130 |
|     148 | 0x3B1B      |       15131 |
|     149 | 0x0015      |          21 |
|     150 | 0x3B1C      |       15132 |
|     151 | 0x00C9      |         201 |
|     152 | 0x007F      |         127 |
|     153 | 0x0096      |         150 |
|     154 | 0x086E      |        2158 |
|     155 | 0x001D      |          29 |
|     156 | 0x000D      |          13 |
|     157 | 0x0009      |           9 |
|     158 | 0x3B1D      |       15133 |
|     159 | 0x3B1E      |       15134 |
|     160 | 0x3B1F      |       15135 |
|     161 | 0x3B20      |       15136 |
|     162 | 0x3B21      |       15137 |
|     163 | 0x0051      |          81 |
|     164 | 0x3B22      |       15138 |
|     165 | 0x3B23      |       15139 |
|     166 | 0x3B24      |       15140 |
|     167 | 0x3B25      |       15141 |
|     168 | 0x00D7      |         215 |

## String References

- **15075**: Her name was Babban Ny Mheillea.
- **15076**: She was traveling in search of the great plant city "Netherstalk," said to lay hidden at the edge of the world.
- **15077**: Babban's dream was to marry the prince who lived in that city and live happily ever after.
- **15078**: She made many friends during her difficult journey.
- **15079**: The large, yet gentle Abenzio.
- **15080**: The elegant and fussy Lady Bryher.
- **15081**: The bright and cheerful Camlin.
- **15082**: And lastly, the aged and wise Darach, who claimed to have first sprouted in the very city Babban sought to find!
- **15083**: Unfortunately, Netherstalk was only a distant memory to Darach.
- **15084**: He had wandered outside as a tiny sapling and become hopelessly lost--the way back to the fabled city had completely faded from his mind.
- **15085**: These five plant people, joined through chance and happenstance...
- **15086**: ...began a long and hazardous journey to find the land of their dreams!
- **15087**: ...and thus the trials of the company ended in failure.
- **15088**: Perhaps Babban and her friends wander still, in search of their hearts' desire.
- **15089**: Yet the city they look for will never be found.
- **15115**: After a grand and grueling adventure...
- **15116**: ...Babban and her friends finally arrived in the city of Netherstalk!
- **15117**: The mandragora girl met and married her mandragora prince.
- **15118**: They were blessed with three adorable sproutlings...

## Events

### Event 65535

#### Metadata

| Field        | Value   |
|--------------|---------|
| Entrypoint   | 0x0000  |
| Data Size    | 1 bytes |
| Instructions | 1       |

```
      00 01 02 03 04 05 06 07  08 09 0A 0B 0C 0D 0E 0F
      -- -- -- -- -- -- -- --  -- -- -- -- -- -- -- --
0000: 00                                                .               
```

#### Opcodes

```
  0: 0x0000 [0x00] END_REQSTACK()
```

### Event 989

#### Metadata

| Field        | Value     |
|--------------|-----------|
| Entrypoint   | 0x0001    |
| Data Size    | 946 bytes |
| Instructions | 131       |

```
      00 01 02 03 04 05 06 07  08 09 0A 0B 0C 0D 0E 0F
      -- -- -- -- -- -- -- --  -- -- -- -- -- -- -- --
0000:    42 03 01 10 00 80 43  00 43 01 03 00 00 09 10   B.....C.C......
0010: 1A A4 1D 29 20 1A E1 0E  01 03 45 01 80 F0 FF FF  ...) .....E.....
0020: 7F F0 FF FF 7F 67 71 30  31 02 80 1A F8 1D 55 01  .....gq01.....U.
0030: 80 F0 FF FF 7F F0 FF FF  7F 67 71 30 31 1C 03 80  .........gq01...
0040: 66 04 80 19 E1 0E 01 19  E1 0E 01 74 6C 6B 30 2B  f..........tlk0+
0050: 19 E1 0E 01 05 80 23 66  04 80 19 E1 0E 01 19 E1  ......#f........
0060: 0E 01 74 6C 6B 31 7B 19  E1 0E 01 1C 06 80 2B 19  ..tlk1{.......+.
0070: E1 0E 01 07 80 23 1C 03  80 45 08 80 F0 FF FF 7F  .....#...E......
0080: F0 FF FF 7F 6F 76 6C 31  02 80 45 01 80 F0 FF FF  ....ovl1..E.....
0090: 7F F0 FF FF 7F 67 71 30  32 02 80 29 20 19 E1 0E  .....gq02..) ...
00A0: 01 04 2B 19 E1 0E 01 09  80 23 1C 0A 80 2B 19 E1  ..+......#...+..
00B0: 0E 01 0B 80 23 1C 0C 80  52 01 80 F0 FF FF 7F F0  ....#...R.......
00C0: FF FF 7F 67 71 30 32 29  20 1A E1 0E 01 04 27 10  ...gq02) .....'.
00D0: 1C E1 0E 01 03 27 10 1A  E1 0E 01 05 27 10 1B E1  .....'......'...
00E0: 0E 01 03 27 10 1E E1 0E  01 03 27 10 1F E1 0E 01  ...'......'.....
00F0: 04 1C 0C 80 BA F0 FF FF  7F 0D 80 0E 80 0F 80 10  ................
0100: 80 45 11 80 F0 FF FF 7F  F0 FF FF 7F 73 30 30 33  .E..........s003
0110: 02 80 5B 12 80 18 E1 0E  01 18 E1 0E 01 68 6F 6E  ..[..........hon
0120: 30 53 18 E1 0E 01 18 E1  0E 01 68 6F 6E 30 6B 69  0S........hon0ki
0130: 64 6C 30 19 E1 0E 01 1C  13 80 6E 19 E1 0E 01 14  dl0.......n.....
0140: 80 99 19 E1 0E 01 52 11  80 F0 FF FF 7F F0 FF FF  ......R.........
0150: 7F 73 30 30 33 45 11 80  F0 FF FF 7F F0 FF FF 7F  .s003E..........
0160: 73 30 30 32 02 80 4A F0  FF FF 7F 1E E1 0E 01 6F  s002..J........o
0170: 76 F0 FF FF 7F 1C 13 80  2B 19 E1 0E 01 15 80 23  v.......+......#
0180: 1A A4 1D 52 11 80 F0 FF  FF 7F F0 FF FF 7F 73 30  ...R..........s0
0190: 30 32 4A 19 E1 0E 01 1A  E1 0E 01 6F 76 19 E1 0E  02J........ov...
01A0: 01 1C 16 80 45 01 80 F0  FF FF 7F F0 FF FF 7F 67  ....E..........g
01B0: 71 32 37 02 80 1A F8 1D  6E 19 E1 0E 01 17 80 99  q27.....n.......
01C0: 19 E1 0E 01 2B 19 E1 0E  01 18 80 23 1C 19 80 52  ....+......#...R
01D0: 01 80 F0 FF FF 7F F0 FF  FF 7F 67 71 32 37 45 08  ..........gq27E.
01E0: 80 F0 FF FF 7F F0 FF FF  7F 6F 76 6C 31 02 80 45  .........ovl1..E
01F0: 11 80 F0 FF FF 7F F0 FF  FF 7F 73 30 30 34 02 80  ..........s004..
0200: 2B 1A E1 0E 01 1A 80 23  6F 76 F0 FF FF 7F 1C 1B  +......#ov......
0210: 80 3A 19 E1 0E 01 01 00  BA 18 E1 0E 01 1C 80 1D  .:..............
0220: 80 0F 80 01 00 4A F0 FF  FF 7F 1F E1 0E 01 52 11  .....J........R.
0230: 80 F0 FF FF 7F F0 FF FF  7F 73 30 30 34 45 11 80  .........s004E..
0240: F0 FF FF 7F F0 FF FF 7F  73 30 30 36 02 80 6E 19  ........s006..n.
0250: E1 0E 01 1E 80 99 19 E1  0E 01 2B 19 E1 0E 01 1F  ..........+.....
0260: 80 23 7B 19 E1 0E 01 1C  19 80 52 11 80 F0 FF FF  .#{.......R.....
0270: 7F F0 FF FF 7F 73 30 30  36 45 08 80 F0 FF FF 7F  .....s006E......
0280: F0 FF FF 7F 6F 76 6C 31  02 80 45 11 80 F0 FF FF  ....ovl1..E.....
0290: 7F F0 FF FF 7F 73 30 30  35 02 80 5B 20 80 19 E1  .....s005..[ ...
02A0: 0E 01 19 E1 0E 01 68 6F  6C 32 5B 12 80 18 E1 0E  ......hol2[.....
02B0: 01 18 E1 0E 01 68 6F 6C  32 1C 21 80 2B 19 E1 0E  .....hol2.!.+...
02C0: 01 22 80 23 1C 0C 80 52  11 80 F0 FF FF 7F F0 FF  .".#...R........
02D0: FF 7F 73 30 30 35 45 11  80 F0 FF FF 7F F0 FF FF  ..s005E.........
02E0: 7F 73 30 30 31 02 80 2B  19 E1 0E 01 23 80 23 1C  .s001..+....#.#.
02F0: 0C 80 5D 02 80 19 80 1A  83 1D 5C 00 19 80 5C 01  ..].......\...\.
0300: 19 80 9A 1C 03 80 52 11  80 F0 FF FF 7F F0 FF FF  ......R.........
0310: 7F 73 30 30 31 45 01 80  F0 FF FF 7F F0 FF FF 7F  .s001E..........
0320: 67 71 30 35 02 80 6A 02  80 24 80 25 80 1A E6 1D  gq05..j..$.%....
0330: 2B 19 E1 0E 01 26 80 23  2B 19 E1 0E 01 27 80 23  +....&.#+....'.#
0340: 55 01 80 F0 FF FF 7F F0  FF FF 7F 67 71 30 35 45  U..........gq05E
0350: 08 80 F0 FF FF 7F F0 FF  FF 7F 6F 76 6C 31 02 80  ..........ovl1..
0360: 45 01 80 F0 FF FF 7F F0  FF FF 7F 67 71 30 33 02  E..........gq03.
0370: 80 1C 28 80 1A A4 1D 52  01 80 F0 FF FF 7F F0 FF  ..(....R........
0380: FF 7F 67 71 30 33 1C 0C  80 1C 25 80 AB 11 02 80  ..gq03....%.....
0390: 1C 00 80 02 00 00 02 80  00 9E 03 30 21 00 46 00  ...........0!.F.
03A0: 45 08 80 F0 FF FF 7F F0  FF FF 7F 66 64 69 32 02  E..........fdi2.
03B0: 80 21 00                                          .!.             
```

#### Opcodes

```
  0: 0x0001 [0x42] SET_CLI_EVENT_CANCEL_DATA()
  1: 0x0002 [0x03] Work_Zone[1] = 1*
  2: 0x0007 [0x43] SEND_EVENT_UPDATE: Send pending tag to server (packet 0x005B)
  3: 0x0009 [0x43] SEND_EVENT_UPDATE: Check pending flag (skip if not pending)
  4: 0x000B [0x03] ExtData[1]->WorkLocal[0] = Work_Zone[9]
  5: 0x0010 [0x1A] CALL_SUBROUTINE(address=0x1DA4)
  6: 0x0013 [0x29] REQ_SET_WAIT(priority=0x20, entity_id=Tihk Rhumyie (ID: 17752346/0x010EE11A), tag_num=0x03)
  7: 0x001A [0x45] LOAD_SCHEDULED_TASK: Load scheduler "gq01" with entities [LocalPlayer, LocalPlayer], work=[342*, 0*]
  8: 0x002B [0x1A] CALL_SUBROUTINE(address=0x1DF8)
  9: 0x002E [0x55] WAIT_LOAD_SCHEDULER: Wait for scheduler "gq01" with entities [LocalPlayer, LocalPlayer], work=342*
 10: 0x003D [0x1C] WAIT(30* ticks)
 11: 0x0040 [0x66] LOAD_EXT_SCHEDULER_MAIN: Load scheduler "tlk0" with entities [Khoto Rokkorah (ID: 17752345/0x010EE119), Khoto Rokkorah (ID: 17752345/0x010EE119)], work=59*
 12: 0x004F [0x2B] Khoto Rokkorah (ID: 17752345/0x010EE119) [15063*]:
    → "Hello! Have you come to hear a tale?"
 13: 0x0056 [0x23] WAIT_FOR_DIALOG_INTERACTION
 14: 0x0057 [0x66] LOAD_EXT_SCHEDULER_MAIN: Load scheduler "tlk1" with entities [Khoto Rokkorah (ID: 17752345/0x010EE119), Khoto Rokkorah (ID: 17752345/0x010EE119)], work=59*
 15: 0x0066 [0x7B] Khoto Rokkorah (ID: 17752345/0x010EE119) stops talking
 16: 0x006B [0x1C] WAIT(40* ticks)
 17: 0x006E [0x2B] Khoto Rokkorah (ID: 17752345/0x010EE119) [15064*]:
    → "I'm a storyteller, and I often entertain the children here with fantastic yarns and magical myths."
 18: 0x0075 [0x23] WAIT_FOR_DIALOG_INTERACTION
 19: 0x0076 [0x1C] WAIT(30* ticks)
 20: 0x0079 [0x45] LOAD_SCHEDULED_TASK: Load scheduler "ovl1" with entities [LocalPlayer, LocalPlayer], work=[200*, 0*]
 21: 0x008A [0x45] LOAD_SCHEDULED_TASK: Load scheduler "gq02" with entities [LocalPlayer, LocalPlayer], work=[342*, 0*]
 22: 0x009B [0x29] REQ_SET_WAIT(priority=0x20, entity_id=Khoto Rokkorah (ID: 17752345/0x010EE119), tag_num=0x04)
 23: 0x00A2 [0x2B] Khoto Rokkorah (ID: 17752345/0x010EE119) [15065*]:
    → "In fact, my audience should be here any moment if you've time to spare."
 24: 0x00A9 [0x23] WAIT_FOR_DIALOG_INTERACTION
 25: 0x00AA [0x1C] WAIT(180* ticks)
 26: 0x00AD [0x2B] Khoto Rokkorah (ID: 17752345/0x010EE119) [15066*]:
    → "Today, I plan to read to them from an unusual book I borrowed from the library..."
 27: 0x00B4 [0x23] WAIT_FOR_DIALOG_INTERACTION
 28: 0x00B5 [0x1C] WAIT(60* ticks)
 29: 0x00B8 [0x52] END_LOAD_SCHEDULER: End scheduler "gq02" with entities [LocalPlayer, LocalPlayer], work=342*
 30: 0x00C7 [0x29] REQ_SET_WAIT(priority=0x20, entity_id=Tihk Rhumyie (ID: 17752346/0x010EE11A), tag_num=0x04)
 31: 0x00CE [0x27] REQ_SET(priority=0x10, entity_id=Karanka-Tonka (ID: 17752348/0x010EE11C), tag_num=0x03)
 32: 0x00D5 [0x27] REQ_SET(priority=0x10, entity_id=Tihk Rhumyie (ID: 17752346/0x010EE11A), tag_num=0x05)
 33: 0x00DC [0x27] REQ_SET(priority=0x10, entity_id=Kuppo-Pippo (ID: 17752347/0x010EE11B), tag_num=0x03)
 34: 0x00E3 [0x27] REQ_SET(priority=0x10, entity_id=Cotta-Lotta (ID: 17752350/0x010EE11E), tag_num=0x03)
 35: 0x00EA [0x27] REQ_SET(priority=0x10, entity_id=Tacca-Picca (ID: 17752351/0x010EE11F), tag_num=0x04)
 36: 0x00F1 [0x1C] WAIT(60* ticks)
 37: 0x00F4 [0xBA] SET_ENTITY_POSITION(entity_id=LocalPlayer, pos_x=9.996*, pos_z=19.296*, pos_y=-1.000*, direction=18.8°*)
 38: 0x0101 [0x45] LOAD_SCHEDULED_TASK: Load scheduler "s003" with entities [LocalPlayer, LocalPlayer], work=[387*, 0*]
 39: 0x0112 [0x5B] LOAD_EXT_SCHEDULER: Load scheduler "hon0" with entities [Unnamed NPC (ID: 17752344/0x010EE118), Unnamed NPC (ID: 17752344/0x010EE118)], work=1323*
 40: 0x0121 [0x53] WAIT_SCHEDULER_TASK: Wait for scheduler "hon0" with entities [Unnamed NPC (ID: 17752344/0x010EE118), Unnamed NPC (ID: 17752344/0x010EE118)]
 41: 0x012E [0x6B] STOP_AND_IDLE: Khoto Rokkorah (ID: 17752345/0x010EE119) stops current action and resets to idle (animation="idl0")
 42: 0x0137 [0x1C] WAIT(80* ticks)
 43: 0x013A [0x6E] Khoto Rokkorah (ID: 17752345/0x010EE119) uses emote 8*
 44: 0x0141 [0x99] Wait for Khoto Rokkorah (ID: 17752345/0x010EE119) animation to complete
 45: 0x0146 [0x52] END_LOAD_SCHEDULER: End scheduler "s003" with entities [LocalPlayer, LocalPlayer], work=387*
 46: 0x0155 [0x45] LOAD_SCHEDULED_TASK: Load scheduler "s002" with entities [LocalPlayer, LocalPlayer], work=[387*, 0*]
 47: 0x0166 [0x4A] LocalPlayer looks at Cotta-Lotta (ID: 17752350/0x010EE11E)
 48: 0x016F [0x6F] WAIT_FRAME_DELAY: Yield until WaitTime reaches zero
 49: 0x0170 [0x76] CHECK_ENTITY_RENDER_FLAGS: Wait until LocalPlayer Render.Flags0 and Render.Flags3 conditions are met
 50: 0x0175 [0x1C] WAIT(80* ticks)
 51: 0x0178 [0x2B] Khoto Rokkorah (ID: 17752345/0x010EE119) [15067*]:
    → "Ah, and here they are!"
 52: 0x017F [0x23] WAIT_FOR_DIALOG_INTERACTION
 53: 0x0180 [0x1A] CALL_SUBROUTINE(address=0x1DA4)
 54: 0x0183 [0x52] END_LOAD_SCHEDULER: End scheduler "s002" with entities [LocalPlayer, LocalPlayer], work=387*
 55: 0x0192 [0x4A] Khoto Rokkorah (ID: 17752345/0x010EE119) looks at Tihk Rhumyie (ID: 17752346/0x010EE11A)
 56: 0x019B [0x6F] WAIT_FRAME_DELAY: Yield until WaitTime reaches zero
 57: 0x019C [0x76] CHECK_ENTITY_RENDER_FLAGS: Wait until Khoto Rokkorah (ID: 17752345/0x010EE119) Render.Flags0 and Render.Flags3 conditions are met
 58: 0x01A1 [0x1C] WAIT(90* ticks)
 59: 0x01A4 [0x45] LOAD_SCHEDULED_TASK: Load scheduler "gq27" with entities [LocalPlayer, LocalPlayer], work=[342*, 0*]
 60: 0x01B5 [0x1A] CALL_SUBROUTINE(address=0x1DF8)
 61: 0x01B8 [0x6E] Khoto Rokkorah (ID: 17752345/0x010EE119) uses emote 10*
 62: 0x01BF [0x99] Wait for Khoto Rokkorah (ID: 17752345/0x010EE119) animation to complete
 63: 0x01C4 [0x2B] Khoto Rokkorah (ID: 17752345/0x010EE119) [15068*]:
    → "Are we ready to hear a delightful story about one of the plant people?"
 64: 0x01CB [0x23] WAIT_FOR_DIALOG_INTERACTION
 65: 0x01CC [0x1C] WAIT(120* ticks)
 66: 0x01CF [0x52] END_LOAD_SCHEDULER: End scheduler "gq27" with entities [LocalPlayer, LocalPlayer], work=342*
 67: 0x01DE [0x45] LOAD_SCHEDULED_TASK: Load scheduler "ovl1" with entities [LocalPlayer, LocalPlayer], work=[200*, 0*]
 68: 0x01EF [0x45] LOAD_SCHEDULED_TASK: Load scheduler "s004" with entities [LocalPlayer, LocalPlayer], work=[387*, 0*]
 69: 0x0200 [0x2B] Tihk Rhumyie (ID: 17752346/0x010EE11A) [15069*]:
    → "Yay! I want to know all about the plant people!"
 70: 0x0207 [0x23] WAIT_FOR_DIALOG_INTERACTION
 71: 0x0208 [0x6F] WAIT_FRAME_DELAY: Yield until WaitTime reaches zero
 72: 0x0209 [0x76] CHECK_ENTITY_RENDER_FLAGS: Wait until LocalPlayer Render.Flags0 and Render.Flags3 conditions are met
 73: 0x020E [0x1C] WAIT(100* ticks)
 74: 0x0211 [0x3A] CONVERT_YAW_TO_BYTE(entity=Khoto Rokkorah (ID: 17752345/0x010EE119), result_destination=ExtData[1]->WorkLocal[1])
 75: 0x0218 [0xBA] SET_ENTITY_POSITION(entity_id=Unnamed NPC (ID: 17752344/0x010EE118), pos_x=11.000*, pos_z=21.000*, pos_y=-1.000*, direction=ExtData[1]->WorkLocal[1])
 76: 0x0225 [0x4A] LocalPlayer looks at Tacca-Picca (ID: 17752351/0x010EE11F)
 77: 0x022E [0x52] END_LOAD_SCHEDULER: End scheduler "s004" with entities [LocalPlayer, LocalPlayer], work=387*
 78: 0x023D [0x45] LOAD_SCHEDULED_TASK: Load scheduler "s006" with entities [LocalPlayer, LocalPlayer], work=[387*, 0*]
 79: 0x024E [0x6E] Khoto Rokkorah (ID: 17752345/0x010EE119) uses emote 32*
 80: 0x0255 [0x99] Wait for Khoto Rokkorah (ID: 17752345/0x010EE119) animation to complete
 81: 0x025A [0x2B] Khoto Rokkorah (ID: 17752345/0x010EE119) [15070*]:
    → "Hehehe. Well then, make yourself comfortable and I'll begin..."
 82: 0x0261 [0x23] WAIT_FOR_DIALOG_INTERACTION
 83: 0x0262 [0x7B] Khoto Rokkorah (ID: 17752345/0x010EE119) stops talking
 84: 0x0267 [0x1C] WAIT(120* ticks)
 85: 0x026A [0x52] END_LOAD_SCHEDULER: End scheduler "s006" with entities [LocalPlayer, LocalPlayer], work=387*
 86: 0x0279 [0x45] LOAD_SCHEDULED_TASK: Load scheduler "ovl1" with entities [LocalPlayer, LocalPlayer], work=[200*, 0*]
 87: 0x028A [0x45] LOAD_SCHEDULED_TASK: Load scheduler "s005" with entities [LocalPlayer, LocalPlayer], work=[387*, 0*]
 88: 0x029B [0x5B] LOAD_EXT_SCHEDULER: Load scheduler "hol2" with entities [Khoto Rokkorah (ID: 17752345/0x010EE119), Khoto Rokkorah (ID: 17752345/0x010EE119)], work=1529*
 89: 0x02AA [0x5B] LOAD_EXT_SCHEDULER: Load scheduler "hol2" with entities [Unnamed NPC (ID: 17752344/0x010EE118), Unnamed NPC (ID: 17752344/0x010EE118)], work=1323*
 90: 0x02B9 [0x1C] WAIT(160* ticks)
 91: 0x02BC [0x2B] Khoto Rokkorah (ID: 17752345/0x010EE119) [15071*]:
    → "...the tale of a young plant girl with a beautiful flower blooming from her head."
 92: 0x02C3 [0x23] WAIT_FOR_DIALOG_INTERACTION
 93: 0x02C4 [0x1C] WAIT(60* ticks)
 94: 0x02C7 [0x52] END_LOAD_SCHEDULER: End scheduler "s005" with entities [LocalPlayer, LocalPlayer], work=387*
 95: 0x02D6 [0x45] LOAD_SCHEDULED_TASK: Load scheduler "s001" with entities [LocalPlayer, LocalPlayer], work=[387*, 0*]
 96: 0x02E7 [0x2B] Khoto Rokkorah (ID: 17752345/0x010EE119) [15072*]:
    → "Ahem. "The Adventures of Babban Ny Mheillea..."
 97: 0x02EE [0x23] WAIT_FOR_DIALOG_INTERACTION
 98: 0x02EF [0x1C] WAIT(60* ticks)
 99: 0x02F2 [0x5D] SET_MUSIC_VOLUME(volume=0*, fade_time=120*)
100: 0x02F7 [0x1A] CALL_SUBROUTINE(address=0x1D83)
101: 0x02FA [0x5C] MUSIC_CONTROL: Set Idle (Day) music to song 120*
102: 0x02FE [0x5C] MUSIC_CONTROL: Set Idle (Night) music to song 120*
103: 0x0302 [0x9A] WAIT_MUSIC_SERVER()
104: 0x0303 [0x1C] WAIT(30* ticks)
105: 0x0306 [0x52] END_LOAD_SCHEDULER: End scheduler "s001" with entities [LocalPlayer, LocalPlayer], work=387*
106: 0x0315 [0x45] LOAD_SCHEDULED_TASK: Load scheduler "gq05" with entities [LocalPlayer, LocalPlayer], work=[342*, 0*]
107: 0x0326 [0x6A] CHANGE_SOUND_VOLUME: Set (Effects/System/Zone/Master)* volume to 0*, fade_time=140*
108: 0x032D [0x1A] CALL_SUBROUTINE(address=0x1DE6)
109: 0x0330 [0x2B] Khoto Rokkorah (ID: 17752345/0x010EE119) [15073*]:
    → ""Once upon a time, a great comet appeared in the sky."
110: 0x0337 [0x23] WAIT_FOR_DIALOG_INTERACTION
111: 0x0338 [0x2B] Khoto Rokkorah (ID: 17752345/0x010EE119) [15074*]:
    → ""It was in this same age that an adorable mandragora girl arrived from across the vast ocean...""
112: 0x033F [0x23] WAIT_FOR_DIALOG_INTERACTION
113: 0x0340 [0x55] WAIT_LOAD_SCHEDULER: Wait for scheduler "gq05" with entities [LocalPlayer, LocalPlayer], work=342*
114: 0x034F [0x45] LOAD_SCHEDULED_TASK: Load scheduler "ovl1" with entities [LocalPlayer, LocalPlayer], work=[200*, 0*]
115: 0x0360 [0x45] LOAD_SCHEDULED_TASK: Load scheduler "gq03" with entities [LocalPlayer, LocalPlayer], work=[342*, 0*]
116: 0x0371 [0x1C] WAIT(240* ticks)
117: 0x0374 [0x1A] CALL_SUBROUTINE(address=0x1DA4)
118: 0x0377 [0x52] END_LOAD_SCHEDULER: End scheduler "gq03" with entities [LocalPlayer, LocalPlayer], work=342*
119: 0x0386 [0x1C] WAIT(60* ticks)
120: 0x0389 [0x1C] WAIT(15* ticks)
121: 0x038C [0xAB] EventEntity->DespawnValue = 0* // Set despawn value
122: 0x0390 [0x1C] WAIT(1* ticks)
123: 0x0393 [0x02] IF !(ExtData[1]->WorkLocal[0] == 0*) GOTO 0x039E
124: 0x039B [0x30] SET_UCOFF_CONTINUE_ZERO()
125: 0x039C [0x21] END_EVENT
126: 0x039D [0x00] END_REQSTACK()
127: 0x039E [0x46] CAMERA_CONTROL: Restore default settings
128: 0x03A0 [0x45] LOAD_SCHEDULED_TASK: Load scheduler "fdi2" with entities [LocalPlayer, LocalPlayer], work=[200*, 0*]
129: 0x03B1 [0x21] END_EVENT
130: 0x03B2 [0x00] END_REQSTACK()
```

### Event 1015

#### Metadata

| Field        | Value     |
|--------------|-----------|
| Entrypoint   | 0x03B3    |
| Data Size    | 871 bytes |
| Instructions | 141       |

```
      00 01 02 03 04 05 06 07  08 09 0A 0B 0C 0D 0E 0F
      -- -- -- -- -- -- -- --  -- -- -- -- -- -- -- --
03B0:          42 03 01 10 00  80 43 00 43 01 03 00 00     B.....C.C....
03C0: 09 10 1A A4 1D 46 01 34  29 80 AB 09 77 2A 80 00  .....F.4)...w*..
03D0: 80 1C 25 80 2F 00 22 E1  0E 01 4E 00 22 E1 0E 01  ..%./."...N."...
03E0: 94 01 22 E1 0E 01 92 01  22 E1 0E 01 BA 22 E1 0E  .."....."...."..
03F0: 01 2B 80 2C 80 2D 80 2E  80 80 22 E1 0E 01 1C 19  .+.,.-....".....
0400: 80 45 11 80 F0 FF FF 7F  F0 FF FF 7F 73 31 39 33  .E..........s193
0410: 02 80 1A 1F 1E 55 11 80  F0 FF FF 7F F0 FF FF 7F  .....U..........
0420: 73 31 39 33 45 11 80 F0  FF FF 7F F0 FF FF 7F 73  s193E..........s
0430: 30 31 32 02 80 27 10 22  E1 0E 01 02 48 2F 80 55  012..'."....H/.U
0440: 11 80 F0 FF FF 7F F0 FF  FF 7F 73 30 31 32 45 11  ..........s012E.
0450: 80 F0 FF FF 7F F0 FF FF  7F 73 30 34 30 02 80 2A  .........s040..*
0460: 10 22 E1 0E 01 5B 30 80  22 E1 0E 01 22 E1 0E 01  ."...[0."..."...
0470: 73 6B 79 30 48 31 80 23  55 11 80 F0 FF FF 7F F0  sky0H1.#U.......
0480: FF FF 7F 73 30 34 30 1A  A4 1D 29 10 22 E1 0E 01  ...s040...)."...
0490: 03 77 32 80 00 80 45 11  80 F0 FF FF 7F F0 FF FF  .w2...E.........
04A0: 7F 73 30 31 33 02 80 1A  1F 1E 48 33 80 23 23 48  .s013.....H3.##H
04B0: 34 80 23 23 55 11 80 F0  FF FF 7F F0 FF FF 7F 73  4.##U..........s
04C0: 30 31 33 45 11 80 F0 FF  FF 7F F0 FF FF 7F 73 30  013E..........s0
04D0: 31 34 02 80 48 35 80 23  23 55 11 80 F0 FF FF 7F  14..H5.##U......
04E0: F0 FF FF 7F 73 30 31 34  6C 22 E1 0E 01 02 80 00  ....s014l"......
04F0: 80 45 11 80 F0 FF FF 7F  F0 FF FF 7F 73 30 31 35  .E..........s015
0500: 02 80 48 36 80 23 23 27  10 25 E1 0E 01 02 55 11  ..H6.##'.%....U.
0510: 80 F0 FF FF 7F F0 FF FF  7F 73 30 31 35 45 11 80  .........s015E..
0520: F0 FF FF 7F F0 FF FF 7F  73 30 31 36 02 80 29 10  ........s016..).
0530: 24 E1 0E 01 05 48 37 80  23 23 55 11 80 F0 FF FF  $....H7.##U.....
0540: 7F F0 FF FF 7F 73 30 31  36 45 11 80 F0 FF FF 7F  .....s016E......
0550: F0 FF FF 7F 73 30 31 37  02 80 48 38 80 23 23 27  ....s017..H8.##'
0560: 10 26 E1 0E 01 02 48 39  80 23 2A 10 26 E1 0E 01  .&....H9.#*.&...
0570: 48 3A 80 23 23 1A A4 1D  52 11 80 F0 FF FF 7F F0  H:.##...R.......
0580: FF FF 7F 73 30 31 37 45  11 80 F0 FF FF 7F F0 FF  ...s017E........
0590: FF 7F 73 30 31 39 02 80  27 10 24 E1 0E 01 06 27  ..s019..'.$....'
05A0: 10 26 E1 0E 01 09 1A 1F  1E 48 3B 80 23 23 52 11  .&.......H;.##R.
05B0: 80 F0 FF FF 7F F0 FF FF  7F 73 30 31 39 45 11 80  .........s019E..
05C0: F0 FF FF 7F F0 FF FF 7F  73 30 31 38 02 80 4B 25  ........s018..K%
05D0: E1 0E 01 3C 80 48 3D 80  23 23 1A C5 1D 55 11 80  ...<.H=.##...U..
05E0: F0 FF FF 7F F0 FF FF 7F  73 30 31 38 5D 02 80 19  ........s018]...
05F0: 80 1C 0A 80 29 10 21 E1  0E 01 02 45 11 80 F0 FF  ....).!....E....
0600: FF 7F F0 FF FF 7F 73 30  32 31 02 80 5C 00 3E 80  ......s021..\.>.
0610: 5C 01 3E 80 9A 1A 1F 1E  1C 25 80 48 3F 80 23 23  \.>......%.H?.##
0620: 1C 03 80 1A A4 1D 52 11  80 F0 FF FF 7F F0 FF FF  ......R.........
0630: 7F 73 30 32 31 BA 22 E1  0E 01 40 80 41 80 42 80  .s021."...@.A.B.
0640: 2E 80 80 22 E1 0E 01 6C  22 E1 0E 01 43 80 00 80  ..."...l"...C...
0650: 6C 23 E1 0E 01 02 80 00  80 6C 24 E1 0E 01 02 80  l#.......l$.....
0660: 00 80 6C 25 E1 0E 01 02  80 00 80 6C 26 E1 0E 01  ..l%.......l&...
0670: 02 80 00 80 77 2A 80 00  80 45 11 80 F0 FF FF 7F  ....w*...E......
0680: F0 FF FF 7F 73 30 32 32  02 80 27 10 22 E1 0E 01  ....s022..'."...
0690: 04 1A 1F 1E 48 44 80 29  10 21 E1 0E 01 04 55 11  ....HD.).!....U.
06A0: 80 F0 FF FF 7F F0 FF FF  7F 73 30 32 32 45 11 80  .........s022E..
06B0: F0 FF FF 7F F0 FF FF 7F  73 30 32 30 02 80 5B 30  ........s020..[0
06C0: 80 21 E1 0E 01 21 E1 0E  01 73 6B 79 30 48 45 80  .!...!...sky0HE.
06D0: 23 23 1A A4 1D 52 11 80  F0 FF FF 7F F0 FF FF 7F  ##...R..........
06E0: 73 30 32 30 1C 25 80 1C  25 80 AB 11 02 80 1C 00  s020.%..%.......
06F0: 80 35 46 80 78 1C 25 80  AB 0A 02 00 00 02 80 00  .5F.x.%.........
0700: 05 07 30 21 00 46 00 45  08 80 F0 FF FF 7F F0 FF  ..0!.F.E........
0710: FF 7F 66 64 69 32 02 80  21 00                    ..fdi2..!.      
```

#### Opcodes

```
  0: 0x03B3 [0x42] SET_CLI_EVENT_CANCEL_DATA()
  1: 0x03B4 [0x03] Work_Zone[1] = 1*
  2: 0x03B9 [0x43] SEND_EVENT_UPDATE: Send pending tag to server (packet 0x005B)
  3: 0x03BB [0x43] SEND_EVENT_UPDATE: Check pending flag (skip if not pending)
  4: 0x03BD [0x03] ExtData[1]->WorkLocal[0] = Work_Zone[9]
  5: 0x03C2 [0x1A] CALL_SUBROUTINE(address=0x1DA4)
  6: 0x03C5 [0x46] CAMERA_CONTROL: Disable user control
  7: 0x03C7 [0x34] LOAD_UNLOAD_ZONE(zone_id=91*)
  8: 0x03CA [0xAB] EventEntity->UnknownFlag = 1 // Enable unknown flag
  9: 0x03CC [0x77] SET_EVENT_TIME_WEATHER(hour=2*, weather=1*)
 10: 0x03D1 [0x1C] WAIT(15* ticks)
 11: 0x03D4 [0x2F] Unnamed NPC (ID: 17752354/0x010EE122)->Render.Flags0 &= ~0x80000 // Bit 19
 12: 0x03DA [0x4E] SET_ENTITY_HIDE_FLAG: Show Unnamed NPC (ID: 17752354/0x010EE122)
 13: 0x03E0 [0x94] Unnamed NPC (ID: 17752354/0x010EE122)->Render.Flags3 ^= 0x01
 14: 0x03E6 [0x92] Unnamed NPC (ID: 17752354/0x010EE122)->Render.Flags3 ^= 0x01
 15: 0x03EC [0xBA] SET_ENTITY_POSITION(entity_id=Unnamed NPC (ID: 17752354/0x010EE122), pos_x=-317.390*, pos_z=193.915*, pos_y=8.102*, direction=18.7°*)
 16: 0x03F9 [0x80] LOAD_WAIT(entity=Unnamed NPC (ID: 17752354/0x010EE122))
 17: 0x03FE [0x1C] WAIT(120* ticks)
 18: 0x0401 [0x45] LOAD_SCHEDULED_TASK: Load scheduler "s193" with entities [LocalPlayer, LocalPlayer], work=[387*, 0*]
 19: 0x0412 [0x1A] CALL_SUBROUTINE(address=0x1E1F)
 20: 0x0415 [0x55] WAIT_LOAD_SCHEDULER: Wait for scheduler "s193" with entities [LocalPlayer, LocalPlayer], work=387*
 21: 0x0424 [0x45] LOAD_SCHEDULED_TASK: Load scheduler "s012" with entities [LocalPlayer, LocalPlayer], work=[387*, 0*]
 22: 0x0435 [0x27] REQ_SET(priority=0x10, entity_id=Unnamed NPC (ID: 17752354/0x010EE122), tag_num=0x02)
 23: 0x043C [0x48] [System] [15075*]:
    → "Her name was Babban Ny Mheillea."
 24: 0x043F [0x55] WAIT_LOAD_SCHEDULER: Wait for scheduler "s012" with entities [LocalPlayer, LocalPlayer], work=387*
 25: 0x044E [0x45] LOAD_SCHEDULED_TASK: Load scheduler "s040" with entities [LocalPlayer, LocalPlayer], work=[387*, 0*]
 26: 0x045F [0x2A] GET_REQ_LEVEL(level=16, entity_id=Unnamed NPC (ID: 17752354/0x010EE122))
 27: 0x0465 [0x5B] LOAD_EXT_SCHEDULER: Load scheduler "sky0" with entities [Unnamed NPC (ID: 17752354/0x010EE122), Unnamed NPC (ID: 17752354/0x010EE122)], work=2161*
 28: 0x0474 [0x48] [System] [15076*]:
    → "She was traveling in search of the great plant city "Netherstalk," said to lay hidden at the edge of the world."
 29: 0x0477 [0x23] WAIT_FOR_DIALOG_INTERACTION
 30: 0x0478 [0x55] WAIT_LOAD_SCHEDULER: Wait for scheduler "s040" with entities [LocalPlayer, LocalPlayer], work=387*
 31: 0x0487 [0x1A] CALL_SUBROUTINE(address=0x1DA4)
 32: 0x048A [0x29] REQ_SET_WAIT(priority=0x10, entity_id=Unnamed NPC (ID: 17752354/0x010EE122), tag_num=0x03)
 33: 0x0491 [0x77] SET_EVENT_TIME_WEATHER(hour=11*, weather=1*)
 34: 0x0496 [0x45] LOAD_SCHEDULED_TASK: Load scheduler "s013" with entities [LocalPlayer, LocalPlayer], work=[387*, 0*]
 35: 0x04A7 [0x1A] CALL_SUBROUTINE(address=0x1E1F)
 36: 0x04AA [0x48] [System] [15077*]:
    → "Babban's dream was to marry the prince who lived in that city and live happily ever after."
 37: 0x04AD [0x23] WAIT_FOR_DIALOG_INTERACTION
 38: 0x04AE [0x23] WAIT_FOR_DIALOG_INTERACTION
 39: 0x04AF [0x48] [System] [15078*]:
    → "She made many friends during her difficult journey."
 40: 0x04B2 [0x23] WAIT_FOR_DIALOG_INTERACTION
 41: 0x04B3 [0x23] WAIT_FOR_DIALOG_INTERACTION
 42: 0x04B4 [0x55] WAIT_LOAD_SCHEDULER: Wait for scheduler "s013" with entities [LocalPlayer, LocalPlayer], work=387*
 43: 0x04C3 [0x45] LOAD_SCHEDULED_TASK: Load scheduler "s014" with entities [LocalPlayer, LocalPlayer], work=[387*, 0*]
 44: 0x04D4 [0x48] [System] [15079*]:
    → "The large, yet gentle Abenzio."
 45: 0x04D7 [0x23] WAIT_FOR_DIALOG_INTERACTION
 46: 0x04D8 [0x23] WAIT_FOR_DIALOG_INTERACTION
 47: 0x04D9 [0x55] WAIT_LOAD_SCHEDULER: Wait for scheduler "s014" with entities [LocalPlayer, LocalPlayer], work=387*
 48: 0x04E8 [0x6C] FADE_ENTITY_COLOR(entity_id=Unnamed NPC (ID: 17752354/0x010EE122), end_alpha=0*, fade_time=1*)
 49: 0x04F1 [0x45] LOAD_SCHEDULED_TASK: Load scheduler "s015" with entities [LocalPlayer, LocalPlayer], work=[387*, 0*]
 50: 0x0502 [0x48] [System] [15080*]:
    → "The elegant and fussy Lady Bryher."
 51: 0x0505 [0x23] WAIT_FOR_DIALOG_INTERACTION
 52: 0x0506 [0x23] WAIT_FOR_DIALOG_INTERACTION
 53: 0x0507 [0x27] REQ_SET(priority=0x10, entity_id=Camlin (ID: 17752357/0x010EE125), tag_num=0x02)
 54: 0x050E [0x55] WAIT_LOAD_SCHEDULER: Wait for scheduler "s015" with entities [LocalPlayer, LocalPlayer], work=387*
 55: 0x051D [0x45] LOAD_SCHEDULED_TASK: Load scheduler "s016" with entities [LocalPlayer, LocalPlayer], work=[387*, 0*]
 56: 0x052E [0x29] REQ_SET_WAIT(priority=0x10, entity_id=Bryher (ID: 17752356/0x010EE124), tag_num=0x05)
 57: 0x0535 [0x48] [System] [15081*]:
    → "The bright and cheerful Camlin."
 58: 0x0538 [0x23] WAIT_FOR_DIALOG_INTERACTION
 59: 0x0539 [0x23] WAIT_FOR_DIALOG_INTERACTION
 60: 0x053A [0x55] WAIT_LOAD_SCHEDULER: Wait for scheduler "s016" with entities [LocalPlayer, LocalPlayer], work=387*
 61: 0x0549 [0x45] LOAD_SCHEDULED_TASK: Load scheduler "s017" with entities [LocalPlayer, LocalPlayer], work=[387*, 0*]
 62: 0x055A [0x48] [System] [15082*]:
    → "And lastly, the aged and wise Darach, who claimed to have first sprouted in the very city Babban sought to find!"
 63: 0x055D [0x23] WAIT_FOR_DIALOG_INTERACTION
 64: 0x055E [0x23] WAIT_FOR_DIALOG_INTERACTION
 65: 0x055F [0x27] REQ_SET(priority=0x10, entity_id=Darach (ID: 17752358/0x010EE126), tag_num=0x02)
 66: 0x0566 [0x48] [System] [15083*]:
    → "Unfortunately, Netherstalk was only a distant memory to Darach."
 67: 0x0569 [0x23] WAIT_FOR_DIALOG_INTERACTION
 68: 0x056A [0x2A] GET_REQ_LEVEL(level=16, entity_id=Darach (ID: 17752358/0x010EE126))
 69: 0x0570 [0x48] [System] [15084*]:
    → "He had wandered outside as a tiny sapling and become hopelessly lost--the way back to the fabled city had completely faded from his mind."
 70: 0x0573 [0x23] WAIT_FOR_DIALOG_INTERACTION
 71: 0x0574 [0x23] WAIT_FOR_DIALOG_INTERACTION
 72: 0x0575 [0x1A] CALL_SUBROUTINE(address=0x1DA4)
 73: 0x0578 [0x52] END_LOAD_SCHEDULER: End scheduler "s017" with entities [LocalPlayer, LocalPlayer], work=387*
 74: 0x0587 [0x45] LOAD_SCHEDULED_TASK: Load scheduler "s019" with entities [LocalPlayer, LocalPlayer], work=[387*, 0*]
 75: 0x0598 [0x27] REQ_SET(priority=0x10, entity_id=Bryher (ID: 17752356/0x010EE124), tag_num=0x06)
 76: 0x059F [0x27] REQ_SET(priority=0x10, entity_id=Darach (ID: 17752358/0x010EE126), tag_num=0x09)
 77: 0x05A6 [0x1A] CALL_SUBROUTINE(address=0x1E1F)
 78: 0x05A9 [0x48] [System] [15085*]:
    → "These five plant people, joined through chance and happenstance..."
 79: 0x05AC [0x23] WAIT_FOR_DIALOG_INTERACTION
 80: 0x05AD [0x23] WAIT_FOR_DIALOG_INTERACTION
 81: 0x05AE [0x52] END_LOAD_SCHEDULER: End scheduler "s019" with entities [LocalPlayer, LocalPlayer], work=387*
 82: 0x05BD [0x45] LOAD_SCHEDULED_TASK: Load scheduler "s018" with entities [LocalPlayer, LocalPlayer], work=[387*, 0*]
 83: 0x05CE [0x4B] UPDATE_ENTITY_YAW(entity=Camlin (ID: 17752357/0x010EE125), yaw=10.4°*)
 84: 0x05D5 [0x48] [System] [15086*]:
    → "...began a long and hazardous journey to find the land of their dreams!"
 85: 0x05D8 [0x23] WAIT_FOR_DIALOG_INTERACTION
 86: 0x05D9 [0x23] WAIT_FOR_DIALOG_INTERACTION
 87: 0x05DA [0x1A] CALL_SUBROUTINE(address=0x1DC5)
 88: 0x05DD [0x55] WAIT_LOAD_SCHEDULER: Wait for scheduler "s018" with entities [LocalPlayer, LocalPlayer], work=387*
 89: 0x05EC [0x5D] SET_MUSIC_VOLUME(volume=0*, fade_time=120*)
 90: 0x05F1 [0x1C] WAIT(180* ticks)
 91: 0x05F4 [0x29] REQ_SET_WAIT(priority=0x10, entity_id=Babban Ny Mheillea (ID: 17752353/0x010EE121), tag_num=0x02)
 92: 0x05FB [0x45] LOAD_SCHEDULED_TASK: Load scheduler "s021" with entities [LocalPlayer, LocalPlayer], work=[387*, 0*]
 93: 0x060C [0x5C] MUSIC_CONTROL: Set Idle (Day) music to song 111*
 94: 0x0610 [0x5C] MUSIC_CONTROL: Set Idle (Night) music to song 111*
 95: 0x0614 [0x9A] WAIT_MUSIC_SERVER()
 96: 0x0615 [0x1A] CALL_SUBROUTINE(address=0x1E1F)
 97: 0x0618 [0x1C] WAIT(15* ticks)
 98: 0x061B [0x48] [System] [15087*]:
    → "...and thus the trials of the company ended in failure."
 99: 0x061E [0x23] WAIT_FOR_DIALOG_INTERACTION
100: 0x061F [0x23] WAIT_FOR_DIALOG_INTERACTION
101: 0x0620 [0x1C] WAIT(30* ticks)
102: 0x0623 [0x1A] CALL_SUBROUTINE(address=0x1DA4)
103: 0x0626 [0x52] END_LOAD_SCHEDULER: End scheduler "s021" with entities [LocalPlayer, LocalPlayer], work=387*
104: 0x0635 [0xBA] SET_ENTITY_POSITION(entity_id=Unnamed NPC (ID: 17752354/0x010EE122), pos_x=685.598*, pos_z=526.820*, pos_y=-24.206*, direction=18.7°*)
105: 0x0642 [0x80] LOAD_WAIT(entity=Unnamed NPC (ID: 17752354/0x010EE122))
106: 0x0647 [0x6C] FADE_ENTITY_COLOR(entity_id=Unnamed NPC (ID: 17752354/0x010EE122), end_alpha=128*, fade_time=1*)
107: 0x0650 [0x6C] FADE_ENTITY_COLOR(entity_id=Abenzio (ID: 17752355/0x010EE123), end_alpha=0*, fade_time=1*)
108: 0x0659 [0x6C] FADE_ENTITY_COLOR(entity_id=Bryher (ID: 17752356/0x010EE124), end_alpha=0*, fade_time=1*)
109: 0x0662 [0x6C] FADE_ENTITY_COLOR(entity_id=Camlin (ID: 17752357/0x010EE125), end_alpha=0*, fade_time=1*)
110: 0x066B [0x6C] FADE_ENTITY_COLOR(entity_id=Darach (ID: 17752358/0x010EE126), end_alpha=0*, fade_time=1*)
111: 0x0674 [0x77] SET_EVENT_TIME_WEATHER(hour=2*, weather=1*)
112: 0x0679 [0x45] LOAD_SCHEDULED_TASK: Load scheduler "s022" with entities [LocalPlayer, LocalPlayer], work=[387*, 0*]
113: 0x068A [0x27] REQ_SET(priority=0x10, entity_id=Unnamed NPC (ID: 17752354/0x010EE122), tag_num=0x04)
114: 0x0691 [0x1A] CALL_SUBROUTINE(address=0x1E1F)
115: 0x0694 [0x48] [System] [15088*]:
    → "Perhaps Babban and her friends wander still, in search of their hearts' desire."
116: 0x0697 [0x29] REQ_SET_WAIT(priority=0x10, entity_id=Babban Ny Mheillea (ID: 17752353/0x010EE121), tag_num=0x04)
117: 0x069E [0x55] WAIT_LOAD_SCHEDULER: Wait for scheduler "s022" with entities [LocalPlayer, LocalPlayer], work=387*
118: 0x06AD [0x45] LOAD_SCHEDULED_TASK: Load scheduler "s020" with entities [LocalPlayer, LocalPlayer], work=[387*, 0*]
119: 0x06BE [0x5B] LOAD_EXT_SCHEDULER: Load scheduler "sky0" with entities [Babban Ny Mheillea (ID: 17752353/0x010EE121), Babban Ny Mheillea (ID: 17752353/0x010EE121)], work=2161*
120: 0x06CD [0x48] [System] [15089*]:
    → "Yet the city they look for will never be found."
121: 0x06D0 [0x23] WAIT_FOR_DIALOG_INTERACTION
122: 0x06D1 [0x23] WAIT_FOR_DIALOG_INTERACTION
123: 0x06D2 [0x1A] CALL_SUBROUTINE(address=0x1DA4)
124: 0x06D5 [0x52] END_LOAD_SCHEDULER: End scheduler "s020" with entities [LocalPlayer, LocalPlayer], work=387*
125: 0x06E4 [0x1C] WAIT(15* ticks)
126: 0x06E7 [0x1C] WAIT(15* ticks)
127: 0x06EA [0xAB] EventEntity->DespawnValue = 0* // Set despawn value
128: 0x06EE [0x1C] WAIT(1* ticks)
129: 0x06F1 [0x35] LOAD_ZONE_NO_CLOSE(zone_id=238*)
130: 0x06F4 [0x78] ENABLE_GAME_TIMER_RESET_WEATHER()
131: 0x06F5 [0x1C] WAIT(15* ticks)
132: 0x06F8 [0xAB] EventEntity->UnknownFlag = 0 // Disable unknown flag
133: 0x06FA [0x02] IF !(ExtData[1]->WorkLocal[0] == 0*) GOTO 0x0705
134: 0x0702 [0x30] SET_UCOFF_CONTINUE_ZERO()
135: 0x0703 [0x21] END_EVENT
136: 0x0704 [0x00] END_REQSTACK()
137: 0x0705 [0x46] CAMERA_CONTROL: Restore default settings
138: 0x0707 [0x45] LOAD_SCHEDULED_TASK: Load scheduler "fdi2" with entities [LocalPlayer, LocalPlayer], work=[200*, 0*]
139: 0x0718 [0x21] END_EVENT
140: 0x0719 [0x00] END_REQSTACK()
```

### Event 1016

#### Metadata

| Field        | Value      |
|--------------|------------|
| Entrypoint   | 0x071A     |
| Data Size    | 1548 bytes |
| Instructions | 198        |

```
      00 01 02 03 04 05 06 07  08 09 0A 0B 0C 0D 0E 0F
      -- -- -- -- -- -- -- --  -- -- -- -- -- -- -- --
0710:                                42 1A A4 1D 46 01            B...F.
0720: 4E 00 F0 FF FF 7F 29 10  19 E1 0E 01 08 45 08 80  N.....)......E..
0730: F0 FF FF 7F F0 FF FF 7F  62 6C 6F 66 02 80 4A 1A  ........blof..J.
0740: E1 0E 01 19 E1 0E 01 6F  76 1A E1 0E 01 29 20 1A  .......ov....) .
0750: E1 0E 01 03 29 20 1A E1  0E 01 04 27 10 1F E1 0E  ....) .....'....
0760: 01 03 2F 00 1F E1 0E 01  4E 00 1F E1 0E 01 94 01  ../.....N.......
0770: 1F E1 0E 01 80 1F E1 0E  01 1C 03 80 BA F0 FF FF  ................
0780: 7F 0D 80 0E 80 0F 80 10  80 BA 72 E0 0E 01 47 80  ..........r...G.
0790: 48 80 0F 80 49 80 BA 27  E0 0E 01 4A 80 4B 80 0F  H...I..'...J.K..
07A0: 80 4C 80 BA 1A E1 0E 01  4D 80 4E 80 0F 80 4F 80  .L......M.N...O.
07B0: BA 1B E1 0E 01 50 80 51  80 0F 80 4F 80 BA 1C E1  .....P.Q...O....
07C0: 0E 01 52 80 53 80 0F 80  4F 80 BA 1E E1 0E 01 54  ..R.S...O......T
07D0: 80 55 80 56 80 57 80 BA  1F E1 0E 01 58 80 59 80  .U.V.W......X.Y.
07E0: 56 80 57 80 1C 25 80 4A  F0 FF FF 7F 19 E1 0E 01  V.W..%.J........
07F0: 4A 1A E1 0E 01 19 E1 0E  01 4A 1B E1 0E 01 19 E1  J........J......
0800: 0E 01 4A 1C E1 0E 01 19  E1 0E 01 4A 1E E1 0E 01  ..J........J....
0810: 19 E1 0E 01 4A 1F E1 0E  01 19 E1 0E 01 1C 25 80  ....J.........%.
0820: 5B 20 80 19 E1 0E 01 19  E1 0E 01 68 6F 6C 32 5B  [ .........hol2[
0830: 12 80 18 E1 0E 01 18 E1  0E 01 68 6F 6C 32 45 01  ..........hol2E.
0840: 80 F0 FF FF 7F F0 FF FF  7F 67 71 30 34 02 80 1A  .........gq04...
0850: F8 1D 55 01 80 F0 FF FF  7F F0 FF FF 7F 67 71 30  ..U..........gq0
0860: 34 45 08 80 F0 FF FF 7F  F0 FF FF 7F 6F 76 6C 31  4E..........ovl1
0870: 02 80 45 01 80 F0 FF FF  7F F0 FF FF 7F 67 71 31  ..E..........gq1
0880: 32 02 80 2B 19 E1 0E 01  5A 80 23 2B 19 E1 0E 01  2..+....Z.#+....
0890: 5B 80 23 6A 5C 80 03 80  25 80 1C 25 80 55 01 80  [.#j\...%..%.U..
08A0: F0 FF FF 7F F0 FF FF 7F  67 71 31 32 5C 00 5D 80  ........gq12\.].
08B0: 5C 01 5D 80 9A 45 01 80  F0 FF FF 7F F0 FF FF 7F  \.]..E..........
08C0: 67 71 30 36 02 80 4A 1A  E1 0E 01 19 E1 0E 01 6F  gq06..J........o
08D0: 76 1A E1 0E 01 2B 1A E1  0E 01 5E 80 23 52 01 80  v....+....^.#R..
08E0: F0 FF FF 7F F0 FF FF 7F  67 71 30 36 45 11 80 F0  ........gq06E...
08F0: FF FF 7F F0 FF FF 7F 73  30 32 35 02 80 4A 1B E1  .......s025..J..
0900: 0E 01 1C E1 0E 01 2B 1B  E1 0E 01 5F 80 23 52 11  ......+...._.#R.
0910: 80 F0 FF FF 7F F0 FF FF  7F 73 30 32 35 45 11 80  .........s025E..
0920: F0 FF FF 7F F0 FF FF 7F  73 30 32 37 02 80 4A 1C  ........s027..J.
0930: E1 0E 01 1B E1 0E 01 4A  1E E1 0E 01 1C E1 0E 01  .......J........
0940: 4A 1A E1 0E 01 1F E1 0E  01 6F 76 1A E1 0E 01 2B  J........ov....+
0950: 1C E1 0E 01 60 80 23 52  11 80 F0 FF FF 7F F0 FF  ....`.#R........
0960: FF 7F 73 30 32 37 45 11  80 F0 FF FF 7F F0 FF FF  ..s027E.........
0970: 7F 73 30 32 38 02 80 4A  1B E1 0E 01 1C E1 0E 01  .s028..J........
0980: 4A 1F E1 0E 01 1B E1 0E  01 2B 1B E1 0E 01 61 80  J........+....a.
0990: 23 5B 12 80 18 E1 0E 01  18 E1 0E 01 68 6F 6E 30  #[..........hon0
09A0: 66 04 80 19 E1 0E 01 19  E1 0E 01 74 6C 6B 31 52  f..........tlk1R
09B0: 11 80 F0 FF FF 7F F0 FF  FF 7F 73 30 32 38 45 11  ..........s028E.
09C0: 80 F0 FF FF 7F F0 FF FF  7F 73 30 33 34 02 80 1C  .........s034...
09D0: 19 80 4A 1F E1 0E 01 1C  E1 0E 01 6F 76 1F E1 0E  ..J........ov...
09E0: 01 52 11 80 F0 FF FF 7F  F0 FF FF 7F 73 30 33 34  .R..........s034
09F0: 45 01 80 F0 FF FF 7F F0  FF FF 7F 67 71 32 35 02  E..........gq25.
0A00: 80 55 01 80 F0 FF FF 7F  F0 FF FF 7F 67 71 32 35  .U..........gq25
0A10: 29 20 1A E1 0E 01 08 45  01 80 F0 FF FF 7F F0 FF  ) .....E........
0A20: FF 7F 67 71 32 36 02 80  4A 1C E1 0E 01 1A E1 0E  ..gq26..J.......
0A30: 01 6F 76 1C E1 0E 01 4A  1E E1 0E 01 1C E1 0E 01  .ov....J........
0A40: 4A 1B E1 0E 01 1C E1 0E  01 4A 1F E1 0E 01 1C E1  J........J......
0A50: 0E 01 2B 1C E1 0E 01 62  80 23 1C 03 80 55 01 80  ..+....b.#...U..
0A60: F0 FF FF 7F F0 FF FF 7F  67 71 32 36 45 08 80 F0  ........gq26E...
0A70: FF FF 7F F0 FF FF 7F 6F  76 6C 31 02 80 45 01 80  .......ovl1..E..
0A80: F0 FF FF 7F F0 FF FF 7F  67 71 30 37 02 80 1C 19  ........gq07....
0A90: 80 27 20 1A E1 0E 01 07  1C 0C 80 27 20 1B E1 0E  .' ........' ...
0AA0: 01 04 27 20 1E E1 0E 01  04 1C 03 80 27 20 1F E1  ..' ........' ..
0AB0: 0E 01 08 1C 0C 80 27 20  1C E1 0E 01 04 1C 0C 80  ......' ........
0AC0: 55 01 80 F0 FF FF 7F F0  FF FF 7F 67 71 30 37 1A  U..........gq07.
0AD0: A4 1D 29 20 1A E1 0E 01  09 1C 19 80 4B 19 E1 0E  ..) ........K...
0AE0: 01 63 80 6F 76 19 E1 0E  01 45 01 80 F0 FF FF 7F  .c.ov....E......
0AF0: F0 FF FF 7F 67 71 33 30  02 80 1A F8 1D 1C 03 80  ....gq30........
0B00: 4A F0 FF FF 7F 19 E1 0E  01 6E 19 E1 0E 01 64 80  J........n....d.
0B10: 99 19 E1 0E 01 99 19 E1  0E 01 2B 19 E1 0E 01 65  ..........+....e
0B20: 80 23 1C 1B 80 55 01 80  F0 FF FF 7F F0 FF FF 7F  .#...U..........
0B30: 67 71 33 30 45 08 80 F0  FF FF 7F F0 FF FF 7F 6F  gq30E..........o
0B40: 76 6C 31 02 80 45 01 80  F0 FF FF 7F F0 FF FF 7F  vl1..E..........
0B50: 67 71 30 38 02 80 4A 19  E1 0E 01 F0 FF FF 7F 6F  gq08..J........o
0B60: 76 19 E1 0E 01 2B 19 E1  0E 01 66 80 23 1C 03 80  v....+....f.#...
0B70: 1A A4 1D 52 01 80 F0 FF  FF 7F F0 FF FF 7F 67 71  ...R..........gq
0B80: 30 38 29 20 19 E1 0E 01  05 45 11 80 F0 FF FF 7F  08) .....E......
0B90: F0 FF FF 7F 73 30 33 36  02 80 1A F8 1D 2B 19 E1  ....s036.....+..
0BA0: 0E 01 67 80 23 6E 19 E1  0E 01 1E 80 99 19 E1 0E  ..g.#n..........
0BB0: 01 2B 19 E1 0E 01 68 80  23 2B 19 E1 0E 01 69 80  .+....h.#+....i.
0BC0: 23 1A A4 1D 52 11 80 F0  FF FF 7F F0 FF FF 7F 73  #...R..........s
0BD0: 30 33 36 1C 03 80 45 11  80 F0 FF FF 7F F0 FF FF  036...E.........
0BE0: 7F 73 30 33 38 02 80 29  10 19 E1 0E 01 06 29 10  .s038..)......).
0BF0: 19 E1 0E 01 07 1A F8 1D  2B 19 E1 0E 01 6A 80 23  ........+....j.#
0C00: 2B 19 E1 0E 01 6B 80 23  52 11 80 F0 FF FF 7F F0  +....k.#R.......
0C10: FF FF 7F 73 30 33 38 45  11 80 F0 FF FF 7F F0 FF  ...s038E........
0C20: FF 7F 73 30 33 37 02 80  2B 19 E1 0E 01 6C 80 23  ..s037..+....l.#
0C30: 53 18 E1 0E 01 18 E1 0E  01 68 6F 6E 32 53 19 E1  S........hon2S..
0C40: 0E 01 19 E1 0E 01 68 6F  6E 32 1A A4 1D 52 11 80  ......hon2...R..
0C50: F0 FF FF 7F F0 FF FF 7F  73 30 33 37 1C 03 80 66  ........s037...f
0C60: 04 80 19 E1 0E 01 19 E1  0E 01 74 6C 6B 31 5B 12  ..........tlk1[.
0C70: 80 18 E1 0E 01 18 E1 0E  01 68 6F 6E 30 53 18 E1  .........hon0S..
0C80: 0E 01 18 E1 0E 01 68 6F  6E 30 1C 13 80 45 11 80  ......hon0...E..
0C90: F0 FF FF 7F F0 FF FF 7F  73 30 33 39 02 80 2A 20  ........s039..* 
0CA0: 19 E1 0E 01 2A 20 18 E1  0E 01 1A F8 1D 1C 0C 80  ....* ..........
0CB0: 6E 19 E1 0E 01 1E 80 99  19 E1 0E 01 1C 25 80 2B  n............%.+
0CC0: 19 E1 0E 01 6D 80 23 52  11 80 F0 FF FF 7F F0 FF  ....m.#R........
0CD0: FF 7F 73 30 33 39 45 11  80 F0 FF FF 7F F0 FF FF  ..s039E.........
0CE0: 7F 73 30 34 31 02 80 4A  19 E1 0E 01 F0 FF FF 7F  .s041..J........
0CF0: 6F 76 19 E1 0E 01 66 04  80 19 E1 0E 01 19 E1 0E  ov....f.........
0D00: 01 74 6C 6B 31 2B 19 E1  0E 01 6E 80 23 1A A4 1D  .tlk1+....n.#...
0D10: 52 11 80 F0 FF FF 7F F0  FF FF 7F 73 30 34 31 46  R..........s041F
0D20: 00 1A F8 1D 21 00                                 ....!.          
```

#### Opcodes

```
  0: 0x071A [0x42] SET_CLI_EVENT_CANCEL_DATA()
  1: 0x071B [0x1A] CALL_SUBROUTINE(address=0x1DA4)
  2: 0x071E [0x46] CAMERA_CONTROL: Disable user control
  3: 0x0720 [0x4E] SET_ENTITY_HIDE_FLAG: Show LocalPlayer
  4: 0x0726 [0x29] REQ_SET_WAIT(priority=0x10, entity_id=Khoto Rokkorah (ID: 17752345/0x010EE119), tag_num=0x08)
  5: 0x072D [0x45] LOAD_SCHEDULED_TASK: Load scheduler "blof" with entities [LocalPlayer, LocalPlayer], work=[200*, 0*]
  6: 0x073E [0x4A] Tihk Rhumyie (ID: 17752346/0x010EE11A) looks at Khoto Rokkorah (ID: 17752345/0x010EE119)
  7: 0x0747 [0x6F] WAIT_FRAME_DELAY: Yield until WaitTime reaches zero
  8: 0x0748 [0x76] CHECK_ENTITY_RENDER_FLAGS: Wait until Tihk Rhumyie (ID: 17752346/0x010EE11A) Render.Flags0 and Render.Flags3 conditions are met
  9: 0x074D [0x29] REQ_SET_WAIT(priority=0x20, entity_id=Tihk Rhumyie (ID: 17752346/0x010EE11A), tag_num=0x03)
 10: 0x0754 [0x29] REQ_SET_WAIT(priority=0x20, entity_id=Tihk Rhumyie (ID: 17752346/0x010EE11A), tag_num=0x04)
 11: 0x075B [0x27] REQ_SET(priority=0x10, entity_id=Tacca-Picca (ID: 17752351/0x010EE11F), tag_num=0x03)
 12: 0x0762 [0x2F] Tacca-Picca (ID: 17752351/0x010EE11F)->Render.Flags0 &= ~0x80000 // Bit 19
 13: 0x0768 [0x4E] SET_ENTITY_HIDE_FLAG: Show Tacca-Picca (ID: 17752351/0x010EE11F)
 14: 0x076E [0x94] Tacca-Picca (ID: 17752351/0x010EE11F)->Render.Flags3 ^= 0x01
 15: 0x0774 [0x80] LOAD_WAIT(entity=Tacca-Picca (ID: 17752351/0x010EE11F))
 16: 0x0779 [0x1C] WAIT(30* ticks)
 17: 0x077C [0xBA] SET_ENTITY_POSITION(entity_id=LocalPlayer, pos_x=9.996*, pos_z=19.296*, pos_y=-1.000*, direction=18.8°*)
 18: 0x0789 [0xBA] SET_ENTITY_POSITION(entity_id=Damami-Karumi (ID: 17752178/0x010EE072), pos_x=-5.362*, pos_z=18.059*, pos_y=-1.000*, direction=260.6°*)
 19: 0x0796 [0xBA] SET_ENTITY_POSITION(entity_id=Ahyeekih (ID: 17752103/0x010EE027), pos_x=5.723*, pos_z=18.574*, pos_y=-1.000*, direction=238.5°*)
 20: 0x07A3 [0xBA] SET_ENTITY_POSITION(entity_id=Tihk Rhumyie (ID: 17752346/0x010EE11A), pos_x=8.568*, pos_z=21.796*, pos_y=-1.000*, direction=300.6°*)
 21: 0x07B0 [0xBA] SET_ENTITY_POSITION(entity_id=Kuppo-Pippo (ID: 17752347/0x010EE11B), pos_x=7.922*, pos_z=20.924*, pos_y=-1.000*, direction=300.6°*)
 22: 0x07BD [0xBA] SET_ENTITY_POSITION(entity_id=Karanka-Tonka (ID: 17752348/0x010EE11C), pos_x=8.158*, pos_z=23.069*, pos_y=-1.000*, direction=300.6°*)
 23: 0x07CA [0xBA] SET_ENTITY_POSITION(entity_id=Cotta-Lotta (ID: 17752350/0x010EE11E), pos_x=6.535*, pos_z=21.806*, pos_y=-0.999*, direction=227.8°*)
 24: 0x07D7 [0xBA] SET_ENTITY_POSITION(entity_id=Tacca-Picca (ID: 17752351/0x010EE11F), pos_x=6.334*, pos_z=22.794*, pos_y=-0.999*, direction=227.8°*)
 25: 0x07E4 [0x1C] WAIT(15* ticks)
 26: 0x07E7 [0x4A] LocalPlayer looks at Khoto Rokkorah (ID: 17752345/0x010EE119)
 27: 0x07F0 [0x4A] Tihk Rhumyie (ID: 17752346/0x010EE11A) looks at Khoto Rokkorah (ID: 17752345/0x010EE119)
 28: 0x07F9 [0x4A] Kuppo-Pippo (ID: 17752347/0x010EE11B) looks at Khoto Rokkorah (ID: 17752345/0x010EE119)
 29: 0x0802 [0x4A] Karanka-Tonka (ID: 17752348/0x010EE11C) looks at Khoto Rokkorah (ID: 17752345/0x010EE119)
 30: 0x080B [0x4A] Cotta-Lotta (ID: 17752350/0x010EE11E) looks at Khoto Rokkorah (ID: 17752345/0x010EE119)
 31: 0x0814 [0x4A] Tacca-Picca (ID: 17752351/0x010EE11F) looks at Khoto Rokkorah (ID: 17752345/0x010EE119)
 32: 0x081D [0x1C] WAIT(15* ticks)
 33: 0x0820 [0x5B] LOAD_EXT_SCHEDULER: Load scheduler "hol2" with entities [Khoto Rokkorah (ID: 17752345/0x010EE119), Khoto Rokkorah (ID: 17752345/0x010EE119)], work=1529*
 34: 0x082F [0x5B] LOAD_EXT_SCHEDULER: Load scheduler "hol2" with entities [Unnamed NPC (ID: 17752344/0x010EE118), Unnamed NPC (ID: 17752344/0x010EE118)], work=1323*
 35: 0x083E [0x45] LOAD_SCHEDULED_TASK: Load scheduler "gq04" with entities [LocalPlayer, LocalPlayer], work=[342*, 0*]
 36: 0x084F [0x1A] CALL_SUBROUTINE(address=0x1DF8)
 37: 0x0852 [0x55] WAIT_LOAD_SCHEDULER: Wait for scheduler "gq04" with entities [LocalPlayer, LocalPlayer], work=342*
 38: 0x0861 [0x45] LOAD_SCHEDULED_TASK: Load scheduler "ovl1" with entities [LocalPlayer, LocalPlayer], work=[200*, 0*]
 39: 0x0872 [0x45] LOAD_SCHEDULED_TASK: Load scheduler "gq12" with entities [LocalPlayer, LocalPlayer], work=[342*, 0*]
 40: 0x0883 [0x2B] Khoto Rokkorah (ID: 17752345/0x010EE119) [15090*]:
    → ""For the seeds of hope must be planted by the searchers..."
 41: 0x088A [0x23] WAIT_FOR_DIALOG_INTERACTION
 42: 0x088B [0x2B] Khoto Rokkorah (ID: 17752345/0x010EE119) [15091*]:
    → ""...and grown into a paradise of their own making.""
 43: 0x0892 [0x23] WAIT_FOR_DIALOG_INTERACTION
 44: 0x0893 [0x6A] CHANGE_SOUND_VOLUME: Set (Effects/System/Zone/Master)* volume to 999*, fade_time=30*
 45: 0x089A [0x1C] WAIT(15* ticks)
 46: 0x089D [0x55] WAIT_LOAD_SCHEDULER: Wait for scheduler "gq12" with entities [LocalPlayer, LocalPlayer], work=342*
 47: 0x08AC [0x5C] MUSIC_CONTROL: Set Idle (Day) music to song 151*
 48: 0x08B0 [0x5C] MUSIC_CONTROL: Set Idle (Night) music to song 151*
 49: 0x08B4 [0x9A] WAIT_MUSIC_SERVER()
 50: 0x08B5 [0x45] LOAD_SCHEDULED_TASK: Load scheduler "gq06" with entities [LocalPlayer, LocalPlayer], work=[342*, 0*]
 51: 0x08C6 [0x4A] Tihk Rhumyie (ID: 17752346/0x010EE11A) looks at Khoto Rokkorah (ID: 17752345/0x010EE119)
 52: 0x08CF [0x6F] WAIT_FRAME_DELAY: Yield until WaitTime reaches zero
 53: 0x08D0 [0x76] CHECK_ENTITY_RENDER_FLAGS: Wait until Tihk Rhumyie (ID: 17752346/0x010EE11A) Render.Flags0 and Render.Flags3 conditions are met
 54: 0x08D5 [0x2B] Tihk Rhumyie (ID: 17752346/0x010EE11A) [15092*]:
    → "Boo!"
 55: 0x08DC [0x23] WAIT_FOR_DIALOG_INTERACTION
 56: 0x08DD [0x52] END_LOAD_SCHEDULER: End scheduler "gq06" with entities [LocalPlayer, LocalPlayer], work=342*
 57: 0x08EC [0x45] LOAD_SCHEDULED_TASK: Load scheduler "s025" with entities [LocalPlayer, LocalPlayer], work=[387*, 0*]
 58: 0x08FD [0x4A] Kuppo-Pippo (ID: 17752347/0x010EE11B) looks at Karanka-Tonka (ID: 17752348/0x010EE11C)
 59: 0x0906 [0x2B] Kuppo-Pippo (ID: 17752347/0x010EE11B) [15093*]:
    → "That doesn'taru make sense."
 60: 0x090D [0x23] WAIT_FOR_DIALOG_INTERACTION
 61: 0x090E [0x52] END_LOAD_SCHEDULER: End scheduler "s025" with entities [LocalPlayer, LocalPlayer], work=387*
 62: 0x091D [0x45] LOAD_SCHEDULED_TASK: Load scheduler "s027" with entities [LocalPlayer, LocalPlayer], work=[387*, 0*]
 63: 0x092E [0x4A] Karanka-Tonka (ID: 17752348/0x010EE11C) looks at Kuppo-Pippo (ID: 17752347/0x010EE11B)
 64: 0x0937 [0x4A] Cotta-Lotta (ID: 17752350/0x010EE11E) looks at Karanka-Tonka (ID: 17752348/0x010EE11C)
 65: 0x0940 [0x4A] Tihk Rhumyie (ID: 17752346/0x010EE11A) looks at Tacca-Picca (ID: 17752351/0x010EE11F)
 66: 0x0949 [0x6F] WAIT_FRAME_DELAY: Yield until WaitTime reaches zero
 67: 0x094A [0x76] CHECK_ENTITY_RENDER_FLAGS: Wait until Tihk Rhumyie (ID: 17752346/0x010EE11A) Render.Flags0 and Render.Flags3 conditions are met
 68: 0x094F [0x2B] Karanka-Tonka (ID: 17752348/0x010EE11C) [15094*]:
    → "That can'taru be how the story ends..."
 69: 0x0956 [0x23] WAIT_FOR_DIALOG_INTERACTION
 70: 0x0957 [0x52] END_LOAD_SCHEDULER: End scheduler "s027" with entities [LocalPlayer, LocalPlayer], work=387*
 71: 0x0966 [0x45] LOAD_SCHEDULED_TASK: Load scheduler "s028" with entities [LocalPlayer, LocalPlayer], work=[387*, 0*]
 72: 0x0977 [0x4A] Kuppo-Pippo (ID: 17752347/0x010EE11B) looks at Karanka-Tonka (ID: 17752348/0x010EE11C)
 73: 0x0980 [0x4A] Tacca-Picca (ID: 17752351/0x010EE11F) looks at Kuppo-Pippo (ID: 17752347/0x010EE11B)
 74: 0x0989 [0x2B] Kuppo-Pippo (ID: 17752347/0x010EE11B) [15095*]:
    → "This story really did end in "failure.""
 75: 0x0990 [0x23] WAIT_FOR_DIALOG_INTERACTION
 76: 0x0991 [0x5B] LOAD_EXT_SCHEDULER: Load scheduler "hon0" with entities [Unnamed NPC (ID: 17752344/0x010EE118), Unnamed NPC (ID: 17752344/0x010EE118)], work=1323*
 77: 0x09A0 [0x66] LOAD_EXT_SCHEDULER_MAIN: Load scheduler "tlk1" with entities [Khoto Rokkorah (ID: 17752345/0x010EE119), Khoto Rokkorah (ID: 17752345/0x010EE119)], work=59*
 78: 0x09AF [0x52] END_LOAD_SCHEDULER: End scheduler "s028" with entities [LocalPlayer, LocalPlayer], work=387*
 79: 0x09BE [0x45] LOAD_SCHEDULED_TASK: Load scheduler "s034" with entities [LocalPlayer, LocalPlayer], work=[387*, 0*]
 80: 0x09CF [0x1C] WAIT(120* ticks)
 81: 0x09D2 [0x4A] Tacca-Picca (ID: 17752351/0x010EE11F) looks at Karanka-Tonka (ID: 17752348/0x010EE11C)
 82: 0x09DB [0x6F] WAIT_FRAME_DELAY: Yield until WaitTime reaches zero
 83: 0x09DC [0x76] CHECK_ENTITY_RENDER_FLAGS: Wait until Tacca-Picca (ID: 17752351/0x010EE11F) Render.Flags0 and Render.Flags3 conditions are met
 84: 0x09E1 [0x52] END_LOAD_SCHEDULER: End scheduler "s034" with entities [LocalPlayer, LocalPlayer], work=387*
 85: 0x09F0 [0x45] LOAD_SCHEDULED_TASK: Load scheduler "gq25" with entities [LocalPlayer, LocalPlayer], work=[342*, 0*]
 86: 0x0A01 [0x55] WAIT_LOAD_SCHEDULER: Wait for scheduler "gq25" with entities [LocalPlayer, LocalPlayer], work=342*
 87: 0x0A10 [0x29] REQ_SET_WAIT(priority=0x20, entity_id=Tihk Rhumyie (ID: 17752346/0x010EE11A), tag_num=0x08)
 88: 0x0A17 [0x45] LOAD_SCHEDULED_TASK: Load scheduler "gq26" with entities [LocalPlayer, LocalPlayer], work=[342*, 0*]
 89: 0x0A28 [0x4A] Karanka-Tonka (ID: 17752348/0x010EE11C) looks at Tihk Rhumyie (ID: 17752346/0x010EE11A)
 90: 0x0A31 [0x6F] WAIT_FRAME_DELAY: Yield until WaitTime reaches zero
 91: 0x0A32 [0x76] CHECK_ENTITY_RENDER_FLAGS: Wait until Karanka-Tonka (ID: 17752348/0x010EE11C) Render.Flags0 and Render.Flags3 conditions are met
 92: 0x0A37 [0x4A] Cotta-Lotta (ID: 17752350/0x010EE11E) looks at Karanka-Tonka (ID: 17752348/0x010EE11C)
 93: 0x0A40 [0x4A] Kuppo-Pippo (ID: 17752347/0x010EE11B) looks at Karanka-Tonka (ID: 17752348/0x010EE11C)
 94: 0x0A49 [0x4A] Tacca-Picca (ID: 17752351/0x010EE11F) looks at Karanka-Tonka (ID: 17752348/0x010EE11C)
 95: 0x0A52 [0x2B] Karanka-Tonka (ID: 17752348/0x010EE11C) [15097*]:
    → "There is no "next.""
 96: 0x0A59 [0x23] WAIT_FOR_DIALOG_INTERACTION
 97: 0x0A5A [0x1C] WAIT(30* ticks)
 98: 0x0A5D [0x55] WAIT_LOAD_SCHEDULER: Wait for scheduler "gq26" with entities [LocalPlayer, LocalPlayer], work=342*
 99: 0x0A6C [0x45] LOAD_SCHEDULED_TASK: Load scheduler "ovl1" with entities [LocalPlayer, LocalPlayer], work=[200*, 0*]
100: 0x0A7D [0x45] LOAD_SCHEDULED_TASK: Load scheduler "gq07" with entities [LocalPlayer, LocalPlayer], work=[342*, 0*]
101: 0x0A8E [0x1C] WAIT(120* ticks)
102: 0x0A91 [0x27] REQ_SET(priority=0x20, entity_id=Tihk Rhumyie (ID: 17752346/0x010EE11A), tag_num=0x07)
103: 0x0A98 [0x1C] WAIT(60* ticks)
104: 0x0A9B [0x27] REQ_SET(priority=0x20, entity_id=Kuppo-Pippo (ID: 17752347/0x010EE11B), tag_num=0x04)
105: 0x0AA2 [0x27] REQ_SET(priority=0x20, entity_id=Cotta-Lotta (ID: 17752350/0x010EE11E), tag_num=0x04)
106: 0x0AA9 [0x1C] WAIT(30* ticks)
107: 0x0AAC [0x27] REQ_SET(priority=0x20, entity_id=Tacca-Picca (ID: 17752351/0x010EE11F), tag_num=0x08)
108: 0x0AB3 [0x1C] WAIT(60* ticks)
109: 0x0AB6 [0x27] REQ_SET(priority=0x20, entity_id=Karanka-Tonka (ID: 17752348/0x010EE11C), tag_num=0x04)
110: 0x0ABD [0x1C] WAIT(60* ticks)
111: 0x0AC0 [0x55] WAIT_LOAD_SCHEDULER: Wait for scheduler "gq07" with entities [LocalPlayer, LocalPlayer], work=342*
112: 0x0ACF [0x1A] CALL_SUBROUTINE(address=0x1DA4)
113: 0x0AD2 [0x29] REQ_SET_WAIT(priority=0x20, entity_id=Tihk Rhumyie (ID: 17752346/0x010EE11A), tag_num=0x09)
114: 0x0AD9 [0x1C] WAIT(120* ticks)
115: 0x0ADC [0x4B] UPDATE_ENTITY_YAW(entity=Khoto Rokkorah (ID: 17752345/0x010EE119), yaw=4.9°*)
116: 0x0AE3 [0x6F] WAIT_FRAME_DELAY: Yield until WaitTime reaches zero
117: 0x0AE4 [0x76] CHECK_ENTITY_RENDER_FLAGS: Wait until Khoto Rokkorah (ID: 17752345/0x010EE119) Render.Flags0 and Render.Flags3 conditions are met
118: 0x0AE9 [0x45] LOAD_SCHEDULED_TASK: Load scheduler "gq30" with entities [LocalPlayer, LocalPlayer], work=[342*, 0*]
119: 0x0AFA [0x1A] CALL_SUBROUTINE(address=0x1DF8)
120: 0x0AFD [0x1C] WAIT(30* ticks)
121: 0x0B00 [0x4A] LocalPlayer looks at Khoto Rokkorah (ID: 17752345/0x010EE119)
122: 0x0B09 [0x6E] Khoto Rokkorah (ID: 17752345/0x010EE119) uses emote 6*
123: 0x0B10 [0x99] Wait for Khoto Rokkorah (ID: 17752345/0x010EE119) animation to complete
124: 0x0B15 [0x99] Wait for Khoto Rokkorah (ID: 17752345/0x010EE119) animation to complete
125: 0x0B1A [0x2B] Khoto Rokkorah (ID: 17752345/0x010EE119) [15098*]:
    → "<Sigh>... I still have a long way to go..."
126: 0x0B21 [0x23] WAIT_FOR_DIALOG_INTERACTION
127: 0x0B22 [0x1C] WAIT(100* ticks)
128: 0x0B25 [0x55] WAIT_LOAD_SCHEDULER: Wait for scheduler "gq30" with entities [LocalPlayer, LocalPlayer], work=342*
129: 0x0B34 [0x45] LOAD_SCHEDULED_TASK: Load scheduler "ovl1" with entities [LocalPlayer, LocalPlayer], work=[200*, 0*]
130: 0x0B45 [0x45] LOAD_SCHEDULED_TASK: Load scheduler "gq08" with entities [LocalPlayer, LocalPlayer], work=[342*, 0*]
131: 0x0B56 [0x4A] Khoto Rokkorah (ID: 17752345/0x010EE119) looks at LocalPlayer
132: 0x0B5F [0x6F] WAIT_FRAME_DELAY: Yield until WaitTime reaches zero
133: 0x0B60 [0x76] CHECK_ENTITY_RENDER_FLAGS: Wait until Khoto Rokkorah (ID: 17752345/0x010EE119) Render.Flags0 and Render.Flags3 conditions are met
134: 0x0B65 [0x2B] Khoto Rokkorah (ID: 17752345/0x010EE119) [15099*]:
    → "A truly talented storyteller should be able to enthrall her audience no matter how unbelievable the tale."
135: 0x0B6C [0x23] WAIT_FOR_DIALOG_INTERACTION
136: 0x0B6D [0x1C] WAIT(30* ticks)
137: 0x0B70 [0x1A] CALL_SUBROUTINE(address=0x1DA4)
138: 0x0B73 [0x52] END_LOAD_SCHEDULER: End scheduler "gq08" with entities [LocalPlayer, LocalPlayer], work=342*
139: 0x0B82 [0x29] REQ_SET_WAIT(priority=0x20, entity_id=Khoto Rokkorah (ID: 17752345/0x010EE119), tag_num=0x05)
140: 0x0B89 [0x45] LOAD_SCHEDULED_TASK: Load scheduler "s036" with entities [LocalPlayer, LocalPlayer], work=[387*, 0*]
141: 0x0B9A [0x1A] CALL_SUBROUTINE(address=0x1DF8)
142: 0x0B9D [0x2B] Khoto Rokkorah (ID: 17752345/0x010EE119) [15100*]:
    → ""The Adventures of Babban Ny Mheillea" was written at the time of the Great War."
143: 0x0BA4 [0x23] WAIT_FOR_DIALOG_INTERACTION
144: 0x0BA5 [0x6E] Khoto Rokkorah (ID: 17752345/0x010EE119) uses emote 32*
145: 0x0BAC [0x99] Wait for Khoto Rokkorah (ID: 17752345/0x010EE119) animation to complete
146: 0x0BB1 [0x2B] Khoto Rokkorah (ID: 17752345/0x010EE119) [15101*]:
    → "But I have to agree with the children that the story hasn't aged well."
147: 0x0BB8 [0x23] WAIT_FOR_DIALOG_INTERACTION
148: 0x0BB9 [0x2B] Khoto Rokkorah (ID: 17752345/0x010EE119) [15102*]:
    → "I don't understand why someone would write an ending like that..."
149: 0x0BC0 [0x23] WAIT_FOR_DIALOG_INTERACTION
150: 0x0BC1 [0x1A] CALL_SUBROUTINE(address=0x1DA4)
151: 0x0BC4 [0x52] END_LOAD_SCHEDULER: End scheduler "s036" with entities [LocalPlayer, LocalPlayer], work=387*
152: 0x0BD3 [0x1C] WAIT(30* ticks)
153: 0x0BD6 [0x45] LOAD_SCHEDULED_TASK: Load scheduler "s038" with entities [LocalPlayer, LocalPlayer], work=[387*, 0*]
154: 0x0BE7 [0x29] REQ_SET_WAIT(priority=0x10, entity_id=Khoto Rokkorah (ID: 17752345/0x010EE119), tag_num=0x06)
155: 0x0BEE [0x29] REQ_SET_WAIT(priority=0x10, entity_id=Khoto Rokkorah (ID: 17752345/0x010EE119), tag_num=0x07)
156: 0x0BF5 [0x1A] CALL_SUBROUTINE(address=0x1DF8)
157: 0x0BF8 [0x2B] Khoto Rokkorah (ID: 17752345/0x010EE119) [15103*]:
    → "And that's not the only part that confuses me. See this chapter, here?"
158: 0x0BFF [0x23] WAIT_FOR_DIALOG_INTERACTION
159: 0x0C00 [0x2B] Khoto Rokkorah (ID: 17752345/0x010EE119) [15104*]:
    → "They meet a sapling in the Rolanberry Fields on their way to the Pashhow Marshlands..."
160: 0x0C07 [0x23] WAIT_FOR_DIALOG_INTERACTION
161: 0x0C08 [0x52] END_LOAD_SCHEDULER: End scheduler "s038" with entities [LocalPlayer, LocalPlayer], work=387*
162: 0x0C17 [0x45] LOAD_SCHEDULED_TASK: Load scheduler "s037" with entities [LocalPlayer, LocalPlayer], work=[387*, 0*]
163: 0x0C28 [0x2B] Khoto Rokkorah (ID: 17752345/0x010EE119) [15105*]:
    → "But he's fried to a crisp by dragon fire before he has a chance to do anything."
164: 0x0C2F [0x23] WAIT_FOR_DIALOG_INTERACTION
165: 0x0C30 [0x53] WAIT_SCHEDULER_TASK: Wait for scheduler "hon2" with entities [Unnamed NPC (ID: 17752344/0x010EE118), Unnamed NPC (ID: 17752344/0x010EE118)]
166: 0x0C3D [0x53] WAIT_SCHEDULER_TASK: Wait for scheduler "hon2" with entities [Khoto Rokkorah (ID: 17752345/0x010EE119), Khoto Rokkorah (ID: 17752345/0x010EE119)]
167: 0x0C4A [0x1A] CALL_SUBROUTINE(address=0x1DA4)
168: 0x0C4D [0x52] END_LOAD_SCHEDULER: End scheduler "s037" with entities [LocalPlayer, LocalPlayer], work=387*
169: 0x0C5C [0x1C] WAIT(30* ticks)
170: 0x0C5F [0x66] LOAD_EXT_SCHEDULER_MAIN: Load scheduler "tlk1" with entities [Khoto Rokkorah (ID: 17752345/0x010EE119), Khoto Rokkorah (ID: 17752345/0x010EE119)], work=59*
171: 0x0C6E [0x5B] LOAD_EXT_SCHEDULER: Load scheduler "hon0" with entities [Unnamed NPC (ID: 17752344/0x010EE118), Unnamed NPC (ID: 17752344/0x010EE118)], work=1323*
172: 0x0C7D [0x53] WAIT_SCHEDULER_TASK: Wait for scheduler "hon0" with entities [Unnamed NPC (ID: 17752344/0x010EE118), Unnamed NPC (ID: 17752344/0x010EE118)]
173: 0x0C8A [0x1C] WAIT(80* ticks)
174: 0x0C8D [0x45] LOAD_SCHEDULED_TASK: Load scheduler "s039" with entities [LocalPlayer, LocalPlayer], work=[387*, 0*]
175: 0x0C9E [0x2A] GET_REQ_LEVEL(level=32, entity_id=Khoto Rokkorah (ID: 17752345/0x010EE119))
176: 0x0CA4 [0x2A] GET_REQ_LEVEL(level=32, entity_id=Unnamed NPC (ID: 17752344/0x010EE118))
177: 0x0CAA [0x1A] CALL_SUBROUTINE(address=0x1DF8)
178: 0x0CAD [0x1C] WAIT(60* ticks)
179: 0x0CB0 [0x6E] Khoto Rokkorah (ID: 17752345/0x010EE119) uses emote 32*
180: 0x0CB7 [0x99] Wait for Khoto Rokkorah (ID: 17752345/0x010EE119) animation to complete
181: 0x0CBC [0x1C] WAIT(15* ticks)
182: 0x0CBF [0x2B] Khoto Rokkorah (ID: 17752345/0x010EE119) [15106*]:
    → "This kind of harshness makes me think this is less of a fable...and more an account of events that actually took place."
183: 0x0CC6 [0x23] WAIT_FOR_DIALOG_INTERACTION
184: 0x0CC7 [0x52] END_LOAD_SCHEDULER: End scheduler "s039" with entities [LocalPlayer, LocalPlayer], work=387*
185: 0x0CD6 [0x45] LOAD_SCHEDULED_TASK: Load scheduler "s041" with entities [LocalPlayer, LocalPlayer], work=[387*, 0*]
186: 0x0CE7 [0x4A] Khoto Rokkorah (ID: 17752345/0x010EE119) looks at LocalPlayer
187: 0x0CF0 [0x6F] WAIT_FRAME_DELAY: Yield until WaitTime reaches zero
188: 0x0CF1 [0x76] CHECK_ENTITY_RENDER_FLAGS: Wait until Khoto Rokkorah (ID: 17752345/0x010EE119) Render.Flags0 and Render.Flags3 conditions are met
189: 0x0CF6 [0x66] LOAD_EXT_SCHEDULER_MAIN: Load scheduler "tlk1" with entities [Khoto Rokkorah (ID: 17752345/0x010EE119), Khoto Rokkorah (ID: 17752345/0x010EE119)], work=59*
190: 0x0D05 [0x2B] Khoto Rokkorah (ID: 17752345/0x010EE119) [15107*]:
    → "Hehe. Now I'm just letting my imagination run away with me..."
191: 0x0D0C [0x23] WAIT_FOR_DIALOG_INTERACTION
192: 0x0D0D [0x1A] CALL_SUBROUTINE(address=0x1DA4)
193: 0x0D10 [0x52] END_LOAD_SCHEDULER: End scheduler "s041" with entities [LocalPlayer, LocalPlayer], work=387*
194: 0x0D1F [0x46] CAMERA_CONTROL: Restore default settings
195: 0x0D21 [0x1A] CALL_SUBROUTINE(address=0x1DF8)
196: 0x0D24 [0x21] END_EVENT
197: 0x0D25 [0x00] END_REQSTACK()
```

### Event 991

#### Metadata

| Field        | Value      |
|--------------|------------|
| Entrypoint   | 0x0D26     |
| Data Size    | 4378 bytes |
| Instructions | 541        |

```
      00 01 02 03 04 05 06 07  08 09 0A 0B 0C 0D 0E 0F
      -- -- -- -- -- -- -- --  -- -- -- -- -- -- -- --
0D20:                   42 1A  A4 1D 29 20 1A E1 0E 01        B...) ....
0D30: 03 29 20 1A E1 0E 01 06  27 10 20 E1 0E 01 02 27  .) .....'. ....'
0D40: 10 1F E1 0E 01 06 27 10  1E E1 0E 01 06 27 10 1D  ......'......'..
0D50: E1 0E 01 04 27 10 1B E1  0E 01 07 80 20 E1 0E 01  ....'....... ...
0D60: 80 1F E1 0E 01 80 1E E1  0E 01 80 1D E1 0E 01 80  ................
0D70: 1B E1 0E 01 45 01 80 F0  FF FF 7F F0 FF FF 7F 67  ....E..........g
0D80: 71 30 31 02 80 1A F8 1D  55 01 80 F0 FF FF 7F F0  q01.....U.......
0D90: FF FF 7F 67 71 30 31 1C  03 80 66 04 80 19 E1 0E  ...gq01...f.....
0DA0: 01 19 E1 0E 01 74 6C 6B  30 79 00 19 E1 0E 01 F0  .....tlk0y......
0DB0: FF FF 7F 2B 19 E1 0E 01  6F 80 23 66 04 80 19 E1  ...+....o.#f....
0DC0: 0E 01 19 E1 0E 01 74 6C  6B 31 45 01 80 F0 FF FF  ......tlk1E.....
0DD0: 7F F0 FF FF 7F 67 71 30  32 02 80 2B 19 E1 0E 01  .....gq02..+....
0DE0: 70 80 29 20 19 E1 0E 01  04 1C 28 80 2B 19 E1 0E  p.) ......(.+...
0DF0: 01 71 80 23 1A A4 1D 1C  0C 80 BA F0 FF FF 7F 0D  .q.#............
0E00: 80 0E 80 0F 80 72 80 52  01 80 F0 FF FF 7F F0 FF  .....r.R........
0E10: FF 7F 67 71 30 32 45 01  80 F0 FF FF 7F F0 FF FF  ..gq02E.........
0E20: 7F 67 71 30 35 02 80 1A  F8 1D 29 20 19 E1 0E 01  .gq05.....) ....
0E30: 07 2B 19 E1 0E 01 73 80  23 55 01 80 F0 FF FF 7F  .+....s.#U......
0E40: F0 FF FF 7F 67 71 30 35  45 08 80 F0 FF FF 7F F0  ....gq05E.......
0E50: FF FF 7F 6F 76 6C 31 02  80 45 01 80 F0 FF FF 7F  ...ovl1..E......
0E60: F0 FF FF 7F 67 71 30 33  02 80 1C 28 80 1A A4 1D  ....gq03...(....
0E70: 52 01 80 F0 FF FF 7F F0  FF FF 7F 67 71 30 33 1C  R..........gq03.
0E80: 0C 80 5C 00 24 80 5C 01  24 80 9A 1C 25 80 6A 02  ..\.$.\.$...%.j.
0E90: 80 19 80 25 80 1C 25 80  34 74 80 77 32 80 32 80  ...%..%.4t.w2.2.
0EA0: 1C 25 80 AB 09 29 10 17  E1 0E 01 06 1C 28 80 92  .%...).......(..
0EB0: 01 F0 FF FF 7F 45 75 80  F0 FF FF 7F F0 FF FF 7F  .....Eu.........
0EC0: 73 30 30 30 02 80 27 10  21 E1 0E 01 0B 27 10 23  s000..'.!....'.#
0ED0: E1 0E 01 04 27 10 24 E1  0E 01 04 27 10 25 E1 0E  ....'.$....'.%..
0EE0: 01 05 27 10 26 E1 0E 01  08 48 76 80 1A 1F 1E 1C  ..'.&....Hv.....
0EF0: 0A 80 1A 83 1D 77 32 80  17 80 55 75 80 F0 FF FF  .....w2...Uu....
0F00: 7F F0 FF FF 7F 73 30 30  30 45 75 80 F0 FF FF 7F  .....s000Eu.....
0F10: F0 FF FF 7F 73 30 30 37  02 80 1A 1F 1E 1C 77 80  ....s007......w.
0F20: 4B 25 E1 0E 01 78 80 4B  21 E1 0E 01 78 80 6F 76  K%...x.K!...x.ov
0F30: 21 E1 0E 01 5B 30 80 21  E1 0E 01 21 E1 0E 01 73  !...[0.!...!...s
0F40: 6B 79 30 1C 0A 80 55 75  80 F0 FF FF 7F F0 FF FF  ky0...Uu........
0F50: 7F 73 30 30 37 45 75 80  F0 FF FF 7F F0 FF FF 7F  .s007Eu.........
0F60: 73 30 32 30 02 80 1C 08  80 1A A4 1D 5B 30 80 21  s020........[0.!
0F70: E1 0E 01 21 E1 0E 01 74  6C 6B 31 55 75 80 F0 FF  ...!...tlk1Uu...
0F80: FF 7F F0 FF FF 7F 73 30  32 30 1C 25 80 35 79 80  ......s020.%.5y.
0F90: 77 7A 80 7B 80 1C 25 80  29 10 17 E1 0E 01 08 29  wz.{..%.)......)
0FA0: 10 17 E1 0E 01 09 29 10  29 E1 0E 01 05 6C 29 E1  ......).)....l).
0FB0: 0E 01 02 80 00 80 BA F0  FF FF 7F 7C 80 7D 80 7E  ...........|.}.~
0FC0: 80 7F 80 80 F0 FF FF 7F  4E 01 F0 FF FF 7F 75 00  ........N.....u.
0FD0: 80 80 75 01 5C 00 81 80  5C 01 81 80 9A 45 75 80  ..u.\...\....Eu.
0FE0: F0 FF FF 7F F0 FF FF 7F  73 30 30 33 02 80 1A 1F  ........s003....
0FF0: 1E 48 82 80 23 23 55 75  80 F0 FF FF 7F F0 FF FF  .H..##Uu........
1000: 7F 73 30 30 33 27 10 25  E1 0E 01 06 45 75 80 F0  .s003'.%....Eu..
1010: FF FF 7F F0 FF FF 7F 73  30 31 30 02 80 55 75 80  .......s010..Uu.
1020: F0 FF FF 7F F0 FF FF 7F  73 30 31 30 45 75 80 F0  ........s010Eu..
1030: FF FF 7F F0 FF FF 7F 73  30 31 34 02 80 6C 21 E1  .......s014..l!.
1040: 0E 01 02 80 00 80 6C 22  E1 0E 01 43 80 00 80 27  ......l"...C...'
1050: 10 22 E1 0E 01 08 48 83  80 23 55 75 80 F0 FF FF  ."....H..#Uu....
1060: 7F F0 FF FF 7F 73 30 31  34 45 75 80 F0 FF FF 7F  .....s014Eu.....
1070: F0 FF FF 7F 73 30 31 38  02 80 1C 13 80 4A 2A E1  ....s018.....J*.
1080: 0E 01 22 E1 0E 01 1C 0C  80 5B 30 80 22 E1 0E 01  .."......[0."...
1090: 22 E1 0E 01 62 69 6B 30  1C 0A 80 1A A4 1D 55 75  "...bik0......Uu
10A0: 80 F0 FF FF 7F F0 FF FF  7F 73 30 31 38 5B 30 80  .........s018[0.
10B0: 22 E1 0E 01 22 E1 0E 01  74 6C 6B 31 45 75 80 F0  "..."...tlk1Eu..
10C0: FF FF 7F F0 FF FF 7F 73  30 31 39 02 80 27 10 27  .......s019..'.'
10D0: E1 0E 01 06 27 10 28 E1  0E 01 06 27 10 29 E1 0E  ....'.(....'.)..
10E0: 01 08 1A 1F 1E 4A 27 E1  0E 01 22 E1 0E 01 4A 28  .....J'..."...J(
10F0: E1 0E 01 22 E1 0E 01 4A  29 E1 0E 01 22 E1 0E 01  ..."...J)..."...
1100: 6F 76 27 E1 0E 01 6F 76  28 E1 0E 01 6F 76 29 E1  ov'...ov(...ov).
1110: 0E 01 1C 84 80 4A 22 E1  0E 01 28 E1 0E 01 4A 2A  .....J"...(...J*
1120: E1 0E 01 28 E1 0E 01 6F  76 22 E1 0E 01 6F 76 2A  ...(...ov"...ov*
1130: E1 0E 01 1C 19 80 48 85  80 23 23 5B 30 80 22 E1  ......H..##[0.".
1140: 0E 01 22 E1 0E 01 62 69  6B 31 5B 30 80 27 E1 0E  .."...bik1[0.'..
1150: 01 27 E1 0E 01 77 68 74  30 5B 30 80 28 E1 0E 01  .'...wht0[0.(...
1160: 28 E1 0E 01 77 68 74 30  1C 0C 80 4A 29 E1 0E 01  (...wht0...J)...
1170: 28 E1 0E 01 1C 19 80 4B  29 E1 0E 01 86 80 6F 76  (......K).....ov
1180: 29 E1 0E 01 5B 30 80 29  E1 0E 01 29 E1 0E 01 77  )...[0.)...)...w
1190: 68 74 30 53 27 E1 0E 01  27 E1 0E 01 77 68 74 30  ht0S'...'...wht0
11A0: 53 28 E1 0E 01 28 E1 0E  01 77 68 74 30 53 29 E1  S(...(...wht0S).
11B0: 0E 01 29 E1 0E 01 77 68  74 30 1C 0C 80 4A 22 E1  ..)...wht0...J".
11C0: 0E 01 2A E1 0E 01 4A 2A  E1 0E 01 22 E1 0E 01 6F  ..*...J*..."...o
11D0: 76 22 E1 0E 01 6F 76 2A  E1 0E 01 5B 30 80 22 E1  v"...ov*...[0.".
11E0: 0E 01 22 E1 0E 01 74 6C  6B 30 1C 13 80 53 22 E1  .."...tlk0...S".
11F0: 0E 01 22 E1 0E 01 74 6C  6B 31 55 75 80 F0 FF FF  .."...tlk1Uu....
1200: 7F F0 FF FF 7F 73 30 31  39 45 75 80 F0 FF FF 7F  .....s019Eu.....
1210: F0 FF FF 7F 73 30 30 36  02 80 1C 21 80 4A 23 E1  ....s006...!.J#.
1220: 0E 01 22 E1 0E 01 4A 24  E1 0E 01 22 E1 0E 01 1C  .."...J$..."....
1230: 0C 80 4A 25 E1 0E 01 22  E1 0E 01 4A 26 E1 0E 01  ..J%..."...J&...
1240: 22 E1 0E 01 1C 06 80 4B  23 E1 0E 01 87 80 1C 13  "......K#.......
1250: 80 4A 23 E1 0E 01 22 E1  0E 01 1C 0C 80 1A A4 1D  .J#...".........
1260: 6C 22 E1 0E 01 43 80 00  80 55 75 80 F0 FF FF 7F  l"...C...Uu.....
1270: F0 FF FF 7F 73 30 30 36  45 08 80 F0 FF FF 7F F0  ....s006E.......
1280: FF FF 7F 62 6C 6F 66 02  80 1C 25 80 35 46 80 78  ...blof...%.5F.x
1290: 1C 25 80 29 10 F0 FF FF  7F 73 92 00 F0 FF FF 7F  .%.).....s......
12A0: 4E 00 F0 FF FF 7F BA F0  FF FF 7F 0D 80 0E 80 0F  N...............
12B0: 80 72 80 80 F0 FF FF 7F  27 10 1B E1 0E 01 06 2F  .r......'....../
12C0: 00 1B E1 0E 01 4E 00 1B  E1 0E 01 94 01 1B E1 0E  .....N..........
12D0: 01 80 1B E1 0E 01 4A 19  E1 0E 01 20 E1 0E 01 6F  ......J.... ...o
12E0: 76 19 E1 0E 01 7B 19 E1  0E 01 4A 18 E1 0E 01 20  v....{....J.... 
12F0: E1 0E 01 6F 76 18 E1 0E  01 7B 18 E1 0E 01 29 20  ...ov....{....) 
1300: 19 E1 0E 01 07 1C 0A 80  45 01 80 F0 FF FF 7F F0  ........E.......
1310: FF FF 7F 67 71 30 34 02  80 1A F8 1D 55 01 80 F0  ...gq04.....U...
1320: FF FF 7F F0 FF FF 7F 67  71 30 34 45 08 80 F0 FF  .......gq04E....
1330: FF 7F F0 FF FF 7F 6F 76  6C 31 02 80 45 01 80 F0  ......ovl1..E...
1340: FF FF 7F F0 FF FF 7F 67  71 31 32 02 80 2B 19 E1  .......gq12..+..
1350: 0E 01 88 80 23 55 01 80  F0 FF FF 7F F0 FF FF 7F  ....#U..........
1360: 67 71 31 32 6A 5C 80 0C  80 25 80 1C 25 80 5C 00  gq12j\...%..%.\.
1370: 5D 80 5C 01 5D 80 9A 45  01 80 F0 FF FF 7F F0 FF  ].\.]..E........
1380: FF 7F 67 71 30 36 02 80  5B 12 80 18 E1 0E 01 18  ..gq06..[.......
1390: E1 0E 01 68 6F 6E 30 66  04 80 19 E1 0E 01 19 E1  ...hon0f........
13A0: 0E 01 74 6C 6B 31 4A 20  E1 0E 01 19 E1 0E 01 6F  ..tlk1J .......o
13B0: 76 20 E1 0E 01 2B 20 E1  0E 01 89 80 23 52 01 80  v ...+ .....#R..
13C0: F0 FF FF 7F F0 FF FF 7F  67 71 30 36 45 11 80 F0  ........gq06E...
13D0: FF FF 7F F0 FF FF 7F 73  30 32 37 02 80 4A 1F E1  .......s027..J..
13E0: 0E 01 1E E1 0E 01 2B 1F  E1 0E 01 8A 80 23 52 11  ......+......#R.
13F0: 80 F0 FF FF 7F F0 FF FF  7F 73 30 32 37 45 11 80  .........s027E..
1400: F0 FF FF 7F F0 FF FF 7F  73 30 32 38 02 80 4A 1E  ........s028..J.
1410: E1 0E 01 1F E1 0E 01 4A  1B E1 0E 01 1E E1 0E 01  .......J........
1420: 4A 20 E1 0E 01 1D E1 0E  01 6F 76 20 E1 0E 01 2B  J .......ov ...+
1430: 1E E1 0E 01 8B 80 23 52  11 80 F0 FF FF 7F F0 FF  ......#R........
1440: FF 7F 73 30 32 38 45 11  80 F0 FF FF 7F F0 FF FF  ..s028E.........
1450: 7F 73 30 32 39 02 80 4A  1F E1 0E 01 1E E1 0E 01  .s029..J........
1460: 4A 1D E1 0E 01 1F E1 0E  01 2B 1F E1 0E 01 8C 80  J........+......
1470: 23 52 11 80 F0 FF FF 7F  F0 FF FF 7F 73 30 32 39  #R..........s029
1480: 45 11 80 F0 FF FF 7F F0  FF FF 7F 73 30 33 34 02  E..........s034.
1490: 80 1C 0A 80 52 11 80 F0  FF FF 7F F0 FF FF 7F 73  ....R..........s
14A0: 30 33 34 45 01 80 F0 FF  FF 7F F0 FF FF 7F 67 71  034E..........gq
14B0: 30 37 02 80 27 10 20 E1  0E 01 03 27 10 1F E1 0E  07..'. ....'....
14C0: 01 07 27 10 1E E1 0E 01  07 27 10 1D E1 0E 01 05  ..'......'......
14D0: 27 10 1B E1 0E 01 08 55  01 80 F0 FF FF 7F F0 FF  '......U........
14E0: FF 7F 67 71 30 37 1A A4  1D 4E 01 20 E1 0E 01 4E  ..gq07...N. ...N
14F0: 01 1B E1 0E 01 29 10 22  E1 0E 01 07 4B 19 E1 0E  .....)."....K...
1500: 01 63 80 6F 76 19 E1 0E  01 45 01 80 F0 FF FF 7F  .c.ov....E......
1510: F0 FF FF 7F 67 71 33 30  02 80 1A F8 1D 1C 03 80  ....gq30........
1520: 4A F0 FF FF 7F 19 E1 0E  01 6E 19 E1 0E 01 64 80  J........n....d.
1530: 99 19 E1 0E 01 99 19 E1  0E 01 2B 19 E1 0E 01 65  ..........+....e
1540: 80 23 1C 1B 80 55 01 80  F0 FF FF 7F F0 FF FF 7F  .#...U..........
1550: 67 71 33 30 45 08 80 F0  FF FF 7F F0 FF FF 7F 6F  gq30E..........o
1560: 76 6C 31 02 80 45 01 80  F0 FF FF 7F F0 FF FF 7F  vl1..E..........
1570: 67 71 30 38 02 80 4A 19  E1 0E 01 F0 FF FF 7F 6F  gq08..J........o
1580: 76 19 E1 0E 01 2B 19 E1  0E 01 8D 80 23 29 10 1D  v....+......#)..
1590: E1 0E 01 06 2B 1D E1 0E  01 8E 80 23 4A 19 E1 0E  ....+......#J...
15A0: 01 1D E1 0E 01 6F 76 19  E1 0E 01 52 01 80 F0 FF  .....ov....R....
15B0: FF 7F F0 FF FF 7F 67 71  30 38 45 01 80 F0 FF FF  ......gq08E.....
15C0: 7F F0 FF FF 7F 67 71 31  30 02 80 79 00 19 E1 0E  .....gq10..y....
15D0: 01 1D E1 0E 01 2B 1D E1  0E 01 8F 80 23 2B 1D E1  .....+......#+..
15E0: 0E 01 90 80 23 2B 1D E1  0E 01 91 80 23 66 04 80  ....#+......#f..
15F0: 19 E1 0E 01 19 E1 0E 01  74 6C 6B 30 2B 19 E1 0E  ........tlk0+...
1600: 01 92 80 23 52 01 80 F0  FF FF 7F F0 FF FF 7F 67  ...#R..........g
1610: 71 31 30 66 04 80 19 E1  0E 01 19 E1 0E 01 74 6C  q10f..........tl
1620: 6B 31 45 01 80 F0 FF FF  7F F0 FF FF 7F 67 71 31  k1E..........gq1
1630: 31 02 80 6E 19 E1 0E 01  1E 80 99 19 E1 0E 01 2B  1..n...........+
1640: 19 E1 0E 01 93 80 23 99  19 E1 0E 01 55 01 80 F0  ......#.....U...
1650: FF FF 7F F0 FF FF 7F 67  71 31 31 5D 02 80 19 80  .......gq11]....
1660: 27 10 26 E1 0E 01 04 1C  0A 80 7B 19 E1 0E 01 4A  '.&.......{....J
1670: 19 E1 0E 01 23 E1 0E 01  7C 00 19 E1 0E 01 2B 19  ....#...|.....+.
1680: E1 0E 01 94 80 23 7C 01  19 E1 0E 01 7B F0 FF FF  .....#|.....{...
1690: 7F 4A F0 FF FF 7F 23 E1  0E 01 6F 76 F0 FF FF 7F  .J....#...ov....
16A0: 6E F0 FF FF 7F 95 80 99  F0 FF FF 7F 99 F0 FF FF  n...............
16B0: 7F 4A 1D E1 0E 01 23 E1  0E 01 6F 76 1D E1 0E 01  .J....#...ov....
16C0: 2B 1D E1 0E 01 96 80 23  5C 80 19 80 02 80 5C 81  +......#\.....\.
16D0: 19 80 02 80 9A 45 08 80  F0 FF FF 7F F0 FF FF 7F  .....E..........
16E0: 62 6C 6F 6E 02 80 45 97  80 F0 FF FF 7F F0 FF FF  blon..E.........
16F0: 7F 62 6C 6F 6E 02 80 45  01 80 F0 FF FF 7F F0 FF  .blon..E........
1700: FF 7F 67 71 31 33 02 80  5D 98 80 00 80 55 01 80  ..gq13..]....U..
1710: F0 FF FF 7F F0 FF FF 7F  67 71 31 33 1C 99 80 45  ........gq13...E
1720: 08 80 F0 FF FF 7F F0 FF  FF 7F 62 6C 6F 66 02 80  ..........blof..
1730: 45 01 80 F0 FF FF 7F F0  FF FF 7F 67 71 32 38 02  E..........gq28.
1740: 80 66 30 80 21 E1 0E 01  21 E1 0E 01 73 61 69 31  .f0.!...!...sai1
1750: 66 9A 80 23 E1 0E 01 23  E1 0E 01 73 61 69 31 55  f..#...#...sai1U
1760: 01 80 F0 FF FF 7F F0 FF  FF 7F 67 71 32 38 45 01  ..........gq28E.
1770: 80 F0 FF FF 7F F0 FF FF  7F 67 71 32 39 02 80 53  .........gq29..S
1780: 21 E1 0E 01 21 E1 0E 01  73 61 69 31 53 23 E1 0E  !...!...sai1S#..
1790: 01 23 E1 0E 01 73 61 69  31 27 10 21 E1 0E 01 0C  .#...sai1'.!....
17A0: 5B 9A 80 23 E1 0E 01 23  E1 0E 01 73 61 69 32 55  [..#...#...sai2U
17B0: 01 80 F0 FF FF 7F F0 FF  FF 7F 67 71 32 39 45 75  ..........gq29Eu
17C0: 80 F0 FF FF 7F F0 FF FF  7F 73 30 32 33 02 80 53  .........s023..S
17D0: 23 E1 0E 01 23 E1 0E 01  73 61 69 32 55 75 80 F0  #...#...sai2Uu..
17E0: FF FF 7F F0 FF FF 7F 73  30 32 33 45 08 80 F0 FF  .......s023E....
17F0: FF 7F F0 FF FF 7F 6F 76  6C 31 02 80 45 01 80 F0  ......ovl1..E...
1800: FF FF 7F F0 FF FF 7F 67  71 31 34 02 80 1C 03 80  .......gq14.....
1810: 27 10 21 E1 0E 01 06 1C  25 80 4A 71 E0 0E 01 21  '.!.....%.Jq...!
1820: E1 0E 01 6E 71 E0 0E 01  9B 80 99 71 E0 0E 01 99  ...nq......q....
1830: 71 E0 0E 01 27 10 2A E1  0E 01 02 1C 03 80 27 10  q...'.*.......'.
1840: 27 E1 0E 01 02 1C 17 80  27 10 28 E1 0E 01 02 1C  '.......'.(.....
1850: 03 80 4A 70 E0 0E 01 21  E1 0E 01 6E 70 E0 0E 01  ..Jp...!...np...
1860: 9B 80 99 70 E0 0E 01 99  70 E0 0E 01 27 10 29 E1  ...p....p...'.).
1870: 0E 01 02 1C 99 80 4A F0  FF FF 7F 21 E1 0E 01 4A  ......J....!...J
1880: 19 E1 0E 01 21 E1 0E 01  4A 1D E1 0E 01 21 E1 0E  ....!...J....!..
1890: 01 55 01 80 F0 FF FF 7F  F0 FF FF 7F 67 71 31 34  .U..........gq14
18A0: 45 08 80 F0 FF FF 7F F0  FF FF 7F 6F 76 6C 31 02  E..........ovl1.
18B0: 80 5D 02 80 19 80 45 01  80 F0 FF FF 7F F0 FF FF  .]....E.........
18C0: 7F 67 71 31 35 02 80 55  01 80 F0 FF FF 7F F0 FF  .gq15..U........
18D0: FF 7F 67 71 31 35 45 08  80 F0 FF FF 7F F0 FF FF  ..gq15E.........
18E0: 7F 6F 76 6C 31 02 80 45  01 80 F0 FF FF 7F F0 FF  .ovl1..E........
18F0: FF 7F 67 71 32 30 02 80  55 01 80 F0 FF FF 7F F0  ..gq20..U.......
1900: FF FF 7F 67 71 32 30 1C  03 80 29 10 21 E1 0E 01  ...gq20...).!...
1910: 08 4A 2A E1 0E 01 F0 FF  FF 7F 4A 27 E1 0E 01 F0  .J*.......J'....
1920: FF FF 7F 4A 28 E1 0E 01  F0 FF FF 7F 1C 03 80 5C  ...J(..........\
1930: 00 5D 80 5C 01 5D 80 9A  45 08 80 F0 FF FF 7F F0  .].\.]..E.......
1940: FF FF 7F 6F 76 6C 31 02  80 45 01 80 F0 FF FF 7F  ...ovl1..E......
1950: F0 FF FF 7F 67 71 32 31  02 80 6E F0 FF FF 7F 17  ....gq21..n.....
1960: 80 99 F0 FF FF 7F 99 F0  FF FF 7F 1C 99 80 5B 30  ..............[0
1970: 80 21 E1 0E 01 21 E1 0E  01 74 6C 6B 31 52 01 80  .!...!...tlk1R..
1980: F0 FF FF 7F F0 FF FF 7F  67 71 32 31 45 75 80 F0  ........gq21Eu..
1990: FF FF 7F F0 FF FF 7F 73  30 32 34 02 80 1C 0C 80  .......s024.....
19A0: 5B 30 80 21 E1 0E 01 21  E1 0E 01 73 6B 79 30 55  [0.!...!...sky0U
19B0: 75 80 F0 FF FF 7F F0 FF  FF 7F 73 30 32 34 45 75  u.........s024Eu
19C0: 80 F0 FF FF 7F F0 FF FF  7F 73 30 32 32 02 80 55  .........s022..U
19D0: 75 80 F0 FF FF 7F F0 FF  FF 7F 73 30 32 32 45 01  u.........s022E.
19E0: 80 F0 FF FF 7F F0 FF FF  7F 67 71 32 31 02 80 1C  .........gq21...
19F0: 0C 80 6E F0 FF FF 7F 9C  80 99 F0 FF FF 7F 99 F0  ..n.............
1A00: FF FF 7F 1C 0A 80 27 10  21 E1 0E 01 07 1C 0C 80  ......'.!.......
1A10: 27 10 2A E1 0E 01 03 1C  0C 80 27 10 27 E1 0E 01  '.*.......'.'...
1A20: 03 27 10 28 E1 0E 01 03  1C 0A 80 4A 1D E1 0E 01  .'.(.......J....
1A30: 29 E1 0E 01 4A 19 E1 0E  01 29 E1 0E 01 4A F0 FF  )...J....)...J..
1A40: FF 7F 29 E1 0E 01 1C 03  80 29 10 29 E1 0E 01 03  ..)......).)....
1A50: 6E F0 FF FF 7F 9D 80 99  F0 FF FF 7F 4A 1F E1 0E  n...........J...
1A60: 01 21 E1 0E 01 4A 1E E1  0E 01 21 E1 0E 01 4A 27  .!...J....!...J'
1A70: E0 0E 01 21 E1 0E 01 29  10 21 E1 0E 01 09 29 10  ...!...).!....).
1A80: 2A E1 0E 01 04 29 10 27  E1 0E 01 04 29 10 28 E1  *....).'....).(.
1A90: 0E 01 04 29 10 29 E1 0E  01 06 27 10 26 E1 0E 01  ...).)....'.&...
1AA0: 07 27 10 24 E1 0E 01 03  27 10 25 E1 0E 01 04 27  .'.$....'.%....'
1AB0: 10 23 E1 0E 01 03 1C 03  80 52 01 80 F0 FF FF 7F  .#.......R......
1AC0: F0 FF FF 7F 67 71 32 31  45 01 80 F0 FF FF 7F F0  ....gq21E.......
1AD0: FF FF 7F 67 71 32 32 02  80 27 10 21 E1 0E 01 0A  ...gq22..'.!....
1AE0: 27 10 2A E1 0E 01 05 27  10 27 E1 0E 01 05 27 10  '.*....'.'....'.
1AF0: 28 E1 0E 01 05 27 10 29  E1 0E 01 07 55 01 80 F0  (....'.)....U...
1B00: FF FF 7F F0 FF FF 7F 67  71 32 32 45 01 80 F0 FF  .......gq22E....
1B10: FF 7F F0 FF FF 7F 67 71  32 33 02 80 2B 1F E1 0E  ......gq23..+...
1B20: 01 9E 80 23 1C 0C 80 2B  1E E1 0E 01 9F 80 23 1C  ...#...+......#.
1B30: 0C 80 1A A4 1D 1C 0C 80  52 01 80 F0 FF FF 7F F0  ........R.......
1B40: FF FF 7F 67 71 32 33 45  01 80 F0 FF FF 7F F0 FF  ...gq23E........
1B50: FF 7F 67 71 31 36 02 80  1A F8 1D 66 04 80 19 E1  ..gq16.....f....
1B60: 0E 01 19 E1 0E 01 74 6C  6B 31 2B 19 E1 0E 01 A0  ......tlk1+.....
1B70: 80 23 52 01 80 F0 FF FF  7F F0 FF FF 7F 67 71 31  .#R..........gq1
1B80: 36 45 01 80 F0 FF FF 7F  F0 FF FF 7F 67 71 31 37  6E..........gq17
1B90: 02 80 4A 19 E1 0E 01 F0  FF FF 7F 6F 76 19 E1 0E  ..J........ov...
1BA0: 01 7B 19 E1 0E 01 4A 18  E1 0E 01 F0 FF FF 7F 6F  .{....J........o
1BB0: 76 18 E1 0E 01 7B 18 E1  0E 01 4A 1D E1 0E 01 F0  v....{....J.....
1BC0: FF FF 7F 2B 19 E1 0E 01  A1 80 23 4A F0 FF FF 7F  ...+......#J....
1BD0: 19 E1 0E 01 6F 76 F0 FF  FF 7F 6E F0 FF FF 7F 7A  ....ov....n....z
1BE0: 80 99 F0 FF FF 7F 99 F0  FF FF 7F 1C 0C 80 52 01  ..............R.
1BF0: 80 F0 FF FF 7F F0 FF FF  7F 67 71 31 37 6E 19 E1  .........gq17n..
1C00: 0E 01 95 80 99 19 E1 0E  01 45 01 80 F0 FF FF 7F  .........E......
1C10: F0 FF FF 7F 67 71 32 34  02 80 2B 19 E1 0E 01 A2  ....gq24..+.....
1C20: 80 23 99 19 E1 0E 01 5B  A3 80 1D E1 0E 01 1D E1  .#.....[........
1C30: 0E 01 68 61 69 30 53 F8  FF FF 7F F8 FF FF 7F 68  ..hai0S........h
1C40: 61 69 30 2B 1D E1 0E 01  A4 80 23 7B 19 E1 0E 01  ai0+......#{....
1C50: 7B 18 E1 0E 01 29 20 19  E1 0E 01 04 52 01 80 F0  {....) .....R...
1C60: FF FF 7F F0 FF FF 7F 67  71 32 34 45 08 80 F0 FF  .......gq24E....
1C70: FF 7F F0 FF FF 7F 6F 76  6C 31 02 80 45 01 80 F0  ......ovl1..E...
1C80: FF FF 7F F0 FF FF 7F 67  71 31 38 02 80 03 02 10  .......gq18.....
1C90: 8B 7F 2B 19 E1 0E 01 A5  80 23 55 01 80 F0 FF FF  ..+......#U.....
1CA0: 7F F0 FF FF 7F 67 71 31  38 45 08 80 F0 FF FF 7F  .....gq18E......
1CB0: F0 FF FF 7F 6F 76 6C 31  02 80 45 01 80 F0 FF FF  ....ovl1..E.....
1CC0: 7F F0 FF FF 7F 67 71 31  39 02 80 4A F0 FF FF 7F  .....gq19..J....
1CD0: 1D E1 0E 01 03 02 10 8B  7F 2B 1D E1 0E 01 A6 80  .........+......
1CE0: 1C 0A 80 4A F0 FF FF 7F  19 E1 0E 01 2B 19 E1 0E  ...J........+...
1CF0: 01 A7 80 55 01 80 F0 FF  FF 7F F0 FF FF 7F 67 71  ...U..........gq
1D00: 31 39 1A A4 1D 46 00 1A  F8 1D 45 97 80 F8 FF FF  19...F....E.....
1D10: 7F F8 FF FF 7F 71 73 74  63 02 80 21 00 45 97 80  .....qstc..!.E..
1D20: F0 FF FF 7F F0 FF FF 7F  77 68 6F 30 02 80 55 97  ........who0..U.
1D30: 80 F0 FF FF 7F F0 FF FF  7F 77 68 6F 30 1B 45 97  .........who0.E.
1D40: 80 F0 FF FF 7F F0 FF FF  7F 77 68 6F 31 02 80 55  .........who1..U
1D50: 97 80 F0 FF FF 7F F0 FF  FF 7F 77 68 6F 31 1B 45  ..........who1.E
1D60: 97 80 F0 FF FF 7F F0 FF  FF 7F 77 68 69 30 02 80  ..........whi0..
1D70: 1B 45 97 80 F0 FF FF 7F  F0 FF FF 7F 77 68 69 31  .E..........whi1
1D80: 02 80 1B 45 08 80 F0 FF  FF 7F F0 FF FF 7F 66 64  ...E..........fd
1D90: 6F 30 02 80 55 08 80 F0  FF FF 7F F0 FF FF 7F 66  o0..U..........f
1DA0: 64 6F 30 1B 45 08 80 F0  FF FF 7F F0 FF FF 7F 66  do0.E..........f
1DB0: 64 6F 31 02 80 55 08 80  F0 FF FF 7F F0 FF FF 7F  do1..U..........
1DC0: 66 64 6F 31 1B 45 08 80  F0 FF FF 7F F0 FF FF 7F  fdo1.E..........
1DD0: 66 64 6F 32 02 80 55 08  80 F0 FF FF 7F F0 FF FF  fdo2..U.........
1DE0: 7F 66 64 6F 32 1B 45 08  80 F8 FF FF 7F F8 FF FF  .fdo2.E.........
1DF0: 7F 66 64 69 30 02 80 1B  45 08 80 F8 FF FF 7F F8  .fdi0...E.......
1E00: FF FF 7F 66 64 69 31 02  80 1B 45 08 80 F8 FF FF  ...fdi1...E.....
1E10: 7F F8 FF FF 7F 66 64 69  32 02 80 1C 25 80 1B 45  .....fdi2...%..E
1E20: A8 80 F0 FF FF 7F F0 FF  FF 7F 65 66 6F 6E 02 80  ..........efon..
1E30: 55 A8 80 F0 FF FF 7F F0  FF FF 7F 65 66 6F 6E 1B  U..........efon.
```

#### Opcodes

```
  0: 0x0D26 [0x42] SET_CLI_EVENT_CANCEL_DATA()
  1: 0x0D27 [0x1A] CALL_SUBROUTINE(address=0x1DA4)
  2: 0x0D2A [0x29] REQ_SET_WAIT(priority=0x20, entity_id=Tihk Rhumyie (ID: 17752346/0x010EE11A), tag_num=0x03)
  3: 0x0D31 [0x29] REQ_SET_WAIT(priority=0x20, entity_id=Tihk Rhumyie (ID: 17752346/0x010EE11A), tag_num=0x06)
  4: 0x0D38 [0x27] REQ_SET(priority=0x10, entity_id=Rahmi Yamilahto (ID: 17752352/0x010EE120), tag_num=0x02)
  5: 0x0D3F [0x27] REQ_SET(priority=0x10, entity_id=Tacca-Picca (ID: 17752351/0x010EE11F), tag_num=0x06)
  6: 0x0D46 [0x27] REQ_SET(priority=0x10, entity_id=Cotta-Lotta (ID: 17752350/0x010EE11E), tag_num=0x06)
  7: 0x0D4D [0x27] REQ_SET(priority=0x10, entity_id=Noh Ramyoh (ID: 17752349/0x010EE11D), tag_num=0x04)
  8: 0x0D54 [0x27] REQ_SET(priority=0x10, entity_id=Kuppo-Pippo (ID: 17752347/0x010EE11B), tag_num=0x07)
  9: 0x0D5B [0x80] LOAD_WAIT(entity=Rahmi Yamilahto (ID: 17752352/0x010EE120))
 10: 0x0D60 [0x80] LOAD_WAIT(entity=Tacca-Picca (ID: 17752351/0x010EE11F))
 11: 0x0D65 [0x80] LOAD_WAIT(entity=Cotta-Lotta (ID: 17752350/0x010EE11E))
 12: 0x0D6A [0x80] LOAD_WAIT(entity=Noh Ramyoh (ID: 17752349/0x010EE11D))
 13: 0x0D6F [0x80] LOAD_WAIT(entity=Kuppo-Pippo (ID: 17752347/0x010EE11B))
 14: 0x0D74 [0x45] LOAD_SCHEDULED_TASK: Load scheduler "gq01" with entities [LocalPlayer, LocalPlayer], work=[342*, 0*]
 15: 0x0D85 [0x1A] CALL_SUBROUTINE(address=0x1DF8)
 16: 0x0D88 [0x55] WAIT_LOAD_SCHEDULER: Wait for scheduler "gq01" with entities [LocalPlayer, LocalPlayer], work=342*
 17: 0x0D97 [0x1C] WAIT(30* ticks)
 18: 0x0D9A [0x66] LOAD_EXT_SCHEDULER_MAIN: Load scheduler "tlk0" with entities [Khoto Rokkorah (ID: 17752345/0x010EE119), Khoto Rokkorah (ID: 17752345/0x010EE119)], work=59*
 19: 0x0DA9 [0x79] Khoto Rokkorah (ID: 17752345/0x010EE119) looks at LocalPlayer (Basic look)
 20: 0x0DB3 [0x2B] Khoto Rokkorah (ID: 17752345/0x010EE119) [15111*]:
    → "Hello! I was about to begin story time for the children."
 21: 0x0DBA [0x23] WAIT_FOR_DIALOG_INTERACTION
 22: 0x0DBB [0x66] LOAD_EXT_SCHEDULER_MAIN: Load scheduler "tlk1" with entities [Khoto Rokkorah (ID: 17752345/0x010EE119), Khoto Rokkorah (ID: 17752345/0x010EE119)], work=59*
 23: 0x0DCA [0x45] LOAD_SCHEDULED_TASK: Load scheduler "gq02" with entities [LocalPlayer, LocalPlayer], work=[342*, 0*]
 24: 0x0DDB [0x2B] Khoto Rokkorah (ID: 17752345/0x010EE119) [15112*]:
    → "It's the second half of a tale I began yesterday..."
 25: 0x0DE2 [0x29] REQ_SET_WAIT(priority=0x20, entity_id=Khoto Rokkorah (ID: 17752345/0x010EE119), tag_num=0x04)
 26: 0x0DE9 [0x1C] WAIT(240* ticks)
 27: 0x0DEC [0x2B] Khoto Rokkorah (ID: 17752345/0x010EE119) [15113*]:
    → "...but you're welcome to stay and listen."
 28: 0x0DF3 [0x23] WAIT_FOR_DIALOG_INTERACTION
 29: 0x0DF4 [0x1A] CALL_SUBROUTINE(address=0x1DA4)
 30: 0x0DF7 [0x1C] WAIT(60* ticks)
 31: 0x0DFA [0xBA] SET_ENTITY_POSITION(entity_id=LocalPlayer, pos_x=9.996*, pos_z=19.296*, pos_y=-1.000*, direction=225.0°*)
 32: 0x0E07 [0x52] END_LOAD_SCHEDULER: End scheduler "gq02" with entities [LocalPlayer, LocalPlayer], work=342*
 33: 0x0E16 [0x45] LOAD_SCHEDULED_TASK: Load scheduler "gq05" with entities [LocalPlayer, LocalPlayer], work=[342*, 0*]
 34: 0x0E27 [0x1A] CALL_SUBROUTINE(address=0x1DF8)
 35: 0x0E2A [0x29] REQ_SET_WAIT(priority=0x20, entity_id=Khoto Rokkorah (ID: 17752345/0x010EE119), tag_num=0x07)
 36: 0x0E31 [0x2B] Khoto Rokkorah (ID: 17752345/0x010EE119) [15114*]:
    → "Are we all comfortable? Then let us continue with "The Adventures of Babban Ny Mheillea"..."
 37: 0x0E38 [0x23] WAIT_FOR_DIALOG_INTERACTION
 38: 0x0E39 [0x55] WAIT_LOAD_SCHEDULER: Wait for scheduler "gq05" with entities [LocalPlayer, LocalPlayer], work=342*
 39: 0x0E48 [0x45] LOAD_SCHEDULED_TASK: Load scheduler "ovl1" with entities [LocalPlayer, LocalPlayer], work=[200*, 0*]
 40: 0x0E59 [0x45] LOAD_SCHEDULED_TASK: Load scheduler "gq03" with entities [LocalPlayer, LocalPlayer], work=[342*, 0*]
 41: 0x0E6A [0x1C] WAIT(240* ticks)
 42: 0x0E6D [0x1A] CALL_SUBROUTINE(address=0x1DA4)
 43: 0x0E70 [0x52] END_LOAD_SCHEDULER: End scheduler "gq03" with entities [LocalPlayer, LocalPlayer], work=342*
 44: 0x0E7F [0x1C] WAIT(60* ticks)
 45: 0x0E82 [0x5C] MUSIC_CONTROL: Set Idle (Day) music to song 140*
 46: 0x0E86 [0x5C] MUSIC_CONTROL: Set Idle (Night) music to song 140*
 47: 0x0E8A [0x9A] WAIT_MUSIC_SERVER()
 48: 0x0E8B [0x1C] WAIT(15* ticks)
 49: 0x0E8E [0x6A] CHANGE_SOUND_VOLUME: Set (Effects/System/Zone/Master)* volume to 0*, fade_time=120*
 50: 0x0E95 [0x1C] WAIT(15* ticks)
 51: 0x0E98 [0x34] LOAD_UNLOAD_ZONE(zone_id=113*)
 52: 0x0E9B [0x77] SET_EVENT_TIME_WEATHER(hour=11*, weather=11*)
 53: 0x0EA0 [0x1C] WAIT(15* ticks)
 54: 0x0EA3 [0xAB] EventEntity->UnknownFlag = 1 // Enable unknown flag
 55: 0x0EA5 [0x29] REQ_SET_WAIT(priority=0x10, entity_id=Unnamed NPC (ID: 17752343/0x010EE117), tag_num=0x06)
 56: 0x0EAC [0x1C] WAIT(240* ticks)
 57: 0x0EAF [0x92] LocalPlayer->Render.Flags3 ^= 0x01
 58: 0x0EB5 [0x45] LOAD_SCHEDULED_TASK: Load scheduler "s000" with entities [LocalPlayer, LocalPlayer], work=[388*, 0*]
 59: 0x0EC6 [0x27] REQ_SET(priority=0x10, entity_id=Babban Ny Mheillea (ID: 17752353/0x010EE121), tag_num=0x0B)
 60: 0x0ECD [0x27] REQ_SET(priority=0x10, entity_id=Abenzio (ID: 17752355/0x010EE123), tag_num=0x04)
 61: 0x0ED4 [0x27] REQ_SET(priority=0x10, entity_id=Bryher (ID: 17752356/0x010EE124), tag_num=0x04)
 62: 0x0EDB [0x27] REQ_SET(priority=0x10, entity_id=Camlin (ID: 17752357/0x010EE125), tag_num=0x05)
 63: 0x0EE2 [0x27] REQ_SET(priority=0x10, entity_id=Darach (ID: 17752358/0x010EE126), tag_num=0x08)
 64: 0x0EE9 [0x48] [System] [15115*]:
    → "After a grand and grueling adventure..."
 65: 0x0EEC [0x1A] CALL_SUBROUTINE(address=0x1E1F)
 66: 0x0EEF [0x1C] WAIT(180* ticks)
 67: 0x0EF2 [0x1A] CALL_SUBROUTINE(address=0x1D83)
 68: 0x0EF5 [0x77] SET_EVENT_TIME_WEATHER(hour=11*, weather=10*)
 69: 0x0EFA [0x55] WAIT_LOAD_SCHEDULER: Wait for scheduler "s000" with entities [LocalPlayer, LocalPlayer], work=388*
 70: 0x0F09 [0x45] LOAD_SCHEDULED_TASK: Load scheduler "s007" with entities [LocalPlayer, LocalPlayer], work=[388*, 0*]
 71: 0x0F1A [0x1A] CALL_SUBROUTINE(address=0x1E1F)
 72: 0x0F1D [0x1C] WAIT(45* ticks)
 73: 0x0F20 [0x4B] UPDATE_ENTITY_YAW(entity=Camlin (ID: 17752357/0x010EE125), yaw=0.7°*)
 74: 0x0F27 [0x4B] UPDATE_ENTITY_YAW(entity=Babban Ny Mheillea (ID: 17752353/0x010EE121), yaw=0.7°*)
 75: 0x0F2E [0x6F] WAIT_FRAME_DELAY: Yield until WaitTime reaches zero
 76: 0x0F2F [0x76] CHECK_ENTITY_RENDER_FLAGS: Wait until Babban Ny Mheillea (ID: 17752353/0x010EE121) Render.Flags0 and Render.Flags3 conditions are met
 77: 0x0F34 [0x5B] LOAD_EXT_SCHEDULER: Load scheduler "sky0" with entities [Babban Ny Mheillea (ID: 17752353/0x010EE121), Babban Ny Mheillea (ID: 17752353/0x010EE121)], work=2161*
 78: 0x0F43 [0x1C] WAIT(180* ticks)
 79: 0x0F46 [0x55] WAIT_LOAD_SCHEDULER: Wait for scheduler "s007" with entities [LocalPlayer, LocalPlayer], work=388*
 80: 0x0F55 [0x45] LOAD_SCHEDULED_TASK: Load scheduler "s020" with entities [LocalPlayer, LocalPlayer], work=[388*, 0*]
 81: 0x0F66 [0x1C] WAIT(200* ticks)
 82: 0x0F69 [0x1A] CALL_SUBROUTINE(address=0x1DA4)
 83: 0x0F6C [0x5B] LOAD_EXT_SCHEDULER: Load scheduler "tlk1" with entities [Babban Ny Mheillea (ID: 17752353/0x010EE121), Babban Ny Mheillea (ID: 17752353/0x010EE121)], work=2161*
 84: 0x0F7B [0x55] WAIT_LOAD_SCHEDULER: Wait for scheduler "s020" with entities [LocalPlayer, LocalPlayer], work=388*
 85: 0x0F8A [0x1C] WAIT(15* ticks)
 86: 0x0F8D [0x35] LOAD_ZONE_NO_CLOSE(zone_id=130*)
 87: 0x0F90 [0x77] SET_EVENT_TIME_WEATHER(hour=7*, weather=16*)
 88: 0x0F95 [0x1C] WAIT(15* ticks)
 89: 0x0F98 [0x29] REQ_SET_WAIT(priority=0x10, entity_id=Unnamed NPC (ID: 17752343/0x010EE117), tag_num=0x08)
 90: 0x0F9F [0x29] REQ_SET_WAIT(priority=0x10, entity_id=Unnamed NPC (ID: 17752343/0x010EE117), tag_num=0x09)
 91: 0x0FA6 [0x29] REQ_SET_WAIT(priority=0x10, entity_id=Unnamed NPC (ID: 17752361/0x010EE129), tag_num=0x05)
 92: 0x0FAD [0x6C] FADE_ENTITY_COLOR(entity_id=Unnamed NPC (ID: 17752361/0x010EE129), end_alpha=0*, fade_time=1*)
 93: 0x0FB6 [0xBA] SET_ENTITY_POSITION(entity_id=LocalPlayer, pos_x=424.000*, pos_z=-26.000*, pos_y=-40.199*, direction=314.3°*)
 94: 0x0FC3 [0x80] LOAD_WAIT(entity=LocalPlayer)
 95: 0x0FC8 [0x4E] SET_ENTITY_HIDE_FLAG: Hide LocalPlayer
 96: 0x0FCE [0x75] LOAD_ROOM(Load indoor room, room=527*)
 97: 0x0FD2 [0x75] LOAD_ROOM(No action)
 98: 0x0FD4 [0x5C] MUSIC_CONTROL: Set Idle (Day) music to song 105*
 99: 0x0FD8 [0x5C] MUSIC_CONTROL: Set Idle (Night) music to song 105*
100: 0x0FDC [0x9A] WAIT_MUSIC_SERVER()
101: 0x0FDD [0x45] LOAD_SCHEDULED_TASK: Load scheduler "s003" with entities [LocalPlayer, LocalPlayer], work=[388*, 0*]
102: 0x0FEE [0x1A] CALL_SUBROUTINE(address=0x1E1F)
103: 0x0FF1 [0x48] [System] [15116*]:
    → "...Babban and her friends finally arrived in the city of Netherstalk!"
104: 0x0FF4 [0x23] WAIT_FOR_DIALOG_INTERACTION
105: 0x0FF5 [0x23] WAIT_FOR_DIALOG_INTERACTION
106: 0x0FF6 [0x55] WAIT_LOAD_SCHEDULER: Wait for scheduler "s003" with entities [LocalPlayer, LocalPlayer], work=388*
107: 0x1005 [0x27] REQ_SET(priority=0x10, entity_id=Camlin (ID: 17752357/0x010EE125), tag_num=0x06)
108: 0x100C [0x45] LOAD_SCHEDULED_TASK: Load scheduler "s010" with entities [LocalPlayer, LocalPlayer], work=[388*, 0*]
109: 0x101D [0x55] WAIT_LOAD_SCHEDULER: Wait for scheduler "s010" with entities [LocalPlayer, LocalPlayer], work=388*
110: 0x102C [0x45] LOAD_SCHEDULED_TASK: Load scheduler "s014" with entities [LocalPlayer, LocalPlayer], work=[388*, 0*]
111: 0x103D [0x6C] FADE_ENTITY_COLOR(entity_id=Babban Ny Mheillea (ID: 17752353/0x010EE121), end_alpha=0*, fade_time=1*)
112: 0x1046 [0x6C] FADE_ENTITY_COLOR(entity_id=Unnamed NPC (ID: 17752354/0x010EE122), end_alpha=128*, fade_time=1*)
113: 0x104F [0x27] REQ_SET(priority=0x10, entity_id=Unnamed NPC (ID: 17752354/0x010EE122), tag_num=0x08)
114: 0x1056 [0x48] [System] [15117*]:
    → "The mandragora girl met and married her mandragora prince."
115: 0x1059 [0x23] WAIT_FOR_DIALOG_INTERACTION
116: 0x105A [0x55] WAIT_LOAD_SCHEDULER: Wait for scheduler "s014" with entities [LocalPlayer, LocalPlayer], work=388*
117: 0x1069 [0x45] LOAD_SCHEDULED_TASK: Load scheduler "s018" with entities [LocalPlayer, LocalPlayer], work=[388*, 0*]
118: 0x107A [0x1C] WAIT(80* ticks)
119: 0x107D [0x4A] Unnamed NPC (ID: 17752362/0x010EE12A) looks at Unnamed NPC (ID: 17752354/0x010EE122)
120: 0x1086 [0x1C] WAIT(60* ticks)
121: 0x1089 [0x5B] LOAD_EXT_SCHEDULER: Load scheduler "bik0" with entities [Unnamed NPC (ID: 17752354/0x010EE122), Unnamed NPC (ID: 17752354/0x010EE122)], work=2161*
122: 0x1098 [0x1C] WAIT(180* ticks)
123: 0x109B [0x1A] CALL_SUBROUTINE(address=0x1DA4)
124: 0x109E [0x55] WAIT_LOAD_SCHEDULER: Wait for scheduler "s018" with entities [LocalPlayer, LocalPlayer], work=388*
125: 0x10AD [0x5B] LOAD_EXT_SCHEDULER: Load scheduler "tlk1" with entities [Unnamed NPC (ID: 17752354/0x010EE122), Unnamed NPC (ID: 17752354/0x010EE122)], work=2161*
126: 0x10BC [0x45] LOAD_SCHEDULED_TASK: Load scheduler "s019" with entities [LocalPlayer, LocalPlayer], work=[388*, 0*]
127: 0x10CD [0x27] REQ_SET(priority=0x10, entity_id=Unnamed NPC (ID: 17752359/0x010EE127), tag_num=0x06)
128: 0x10D4 [0x27] REQ_SET(priority=0x10, entity_id=Unnamed NPC (ID: 17752360/0x010EE128), tag_num=0x06)
129: 0x10DB [0x27] REQ_SET(priority=0x10, entity_id=Unnamed NPC (ID: 17752361/0x010EE129), tag_num=0x08)
130: 0x10E2 [0x1A] CALL_SUBROUTINE(address=0x1E1F)
