# 17752591

## Common Data

| Field            | Value                     |
|------------------|---------------------------|
| Zone             | Windurst Waters (ID: 238) |
| Block Size       | 17188 bytes               |
| Total Events     | 9                         |
| References Count | 294                       |

## List of Events

| Event ID              | Entrypoint   |   Size |   Instructions |
|-----------------------|--------------|--------|----------------|
| [65535](#event-65535) | 0x0000       |    658 |             62 |
| [1156](#event-1156)   | 0x0292       |   4146 |            537 |
| [1157](#event-1157)   | 0x12C4       |   2919 |            394 |
| [1158](#event-1158)   | 0x1E2B       |     87 |             17 |
| [1159](#event-1159)   | 0x1E82       |   1615 |            223 |
| [1160](#event-1160)   | 0x24D1       |    132 |             25 |
| [1161](#event-1161)   | 0x2555       |     85 |             17 |
| [1173](#event-1173)   | 0x25AA       |   6292 |            826 |
| [1174](#event-1174)   | 0x3E3E       |     25 |              7 |

## DAT References (imed_data)

|   Index | Hex Value   |   Dec Value |
|---------|-------------|-------------|
|       0 | 0x00C8      |         200 |
|       1 | 0x0000      |           0 |
|       2 | 0x00C9      |         201 |
|       3 | 0x0001      |           1 |
|       4 | 0x002D      |          45 |
|       5 | 0x0002      |           2 |
|       6 | 0x001E      |          30 |
|       7 | 0x00D7      |         215 |
|       8 | 0x0093      |         147 |
|       9 | 0x018A      |         394 |
|      10 | 0xFFFF9A18  |  4294941208 |
|      11 | 0x19043     |      102467 |
|      12 | 0xFFFFEB7E  |  4294962046 |
|      13 | 0x096B      |        2411 |
|      14 | 0xFFFF810B  |  4294934795 |
|      15 | 0x13578     |       79224 |
|      16 | 0xFFFF63C0  |  4294927296 |
|      17 | 0x0FD1      |        4049 |
|      18 | 0xFFFFBE51  |  4294950481 |
|      19 | 0x1C611     |      116241 |
|      20 | 0xFFFFE797  |  4294961047 |
|      21 | 0x0F76      |        3958 |
|      22 | 0x0346      |         838 |
|      23 | 0x0C9D      |        3229 |
|      24 | 0x4481      |       17537 |
|      25 | 0x4482      |       17538 |
|      26 | 0x0050      |          80 |
|      27 | 0x012C      |         300 |
|      28 | 0x05DC      |        1500 |
|      29 | 0x007F      |         127 |
|      30 | 0x4483      |       17539 |
|      31 | 0x4484      |       17540 |
|      32 | 0x4485      |       17541 |
|      33 | 0x4486      |       17542 |
|      34 | 0xFFFFFE0C  |  4294966796 |
|      35 | 0x4487      |       17543 |
|      36 | 0x4488      |       17544 |
|      37 | 0x0005      |           5 |
|      38 | 0x0006      |           6 |
|      39 | 0x4489      |       17545 |
|      40 | 0x000A      |          10 |
|      41 | 0x448A      |       17546 |
|      42 | 0x448B      |       17547 |
|      43 | 0x448C      |       17548 |
|      44 | 0x00D5      |         213 |
|      45 | 0x448D      |       17549 |
|      46 | 0x000E      |          14 |
|      47 | 0x448E      |       17550 |
|      48 | 0x00FA      |         250 |
|      49 | 0x003C      |          60 |
|      50 | 0x0064      |         100 |
|      51 | 0x448F      |       17551 |
|      52 | 0x4490      |       17552 |
|      53 | 0x4491      |       17553 |
|      54 | 0x000F      |          15 |
|      55 | 0x4492      |       17554 |
|      56 | 0x0007      |           7 |
|      57 | 0x4493      |       17555 |
|      58 | 0x4494      |       17556 |
|      59 | 0x0014      |          20 |
|      60 | 0x4495      |       17557 |
|      61 | 0x4496      |       17558 |
|      62 | 0x4497      |       17559 |
|      63 | 0x0028      |          40 |
|      64 | 0x4498      |       17560 |
|      65 | 0x4499      |       17561 |
|      66 | 0x449A      |       17562 |
|      67 | 0x449B      |       17563 |
|      68 | 0x449C      |       17564 |
|      69 | 0x449D      |       17565 |
|      70 | 0x449E      |       17566 |
|      71 | 0x449F      |       17567 |
|      72 | 0x00A5      |         165 |
|      73 | 0x44A0      |       17568 |
|      74 | 0x44A1      |       17569 |
|      75 | 0x44A2      |       17570 |
|      76 | 0x44A3      |       17571 |
|      77 | 0x44A4      |       17572 |
|      78 | 0x44A5      |       17573 |
|      79 | 0x44A6      |       17574 |
|      80 | 0x0097      |         151 |
|      81 | 0x44A7      |       17575 |
|      82 | 0x0008      |           8 |
|      83 | 0x08FC      |        2300 |
|      84 | 0x44AB      |       17579 |
|      85 | 0x0003      |           3 |
|      86 | 0x0004      |           4 |
|      87 | 0x44AC      |       17580 |
|      88 | 0x0032      |          50 |
|      89 | 0x001B      |          27 |
|      90 | 0xFFFF9655  |  4294940245 |
|      91 | 0x19341     |      103233 |
|      92 | 0x09A8      |        2472 |
|      93 | 0x44AD      |       17581 |
|      94 | 0x44AE      |       17582 |
|      95 | 0x44AF      |       17583 |
|      96 | 0x44B0      |       17584 |
|      97 | 0x44B1      |       17585 |
|      98 | 0x44B2      |       17586 |
|      99 | 0x44B3      |       17587 |
|     100 | 0x44B4      |       17588 |
|     101 | 0x44B5      |       17589 |
|     102 | 0x44B6      |       17590 |
|     103 | 0x44B7      |       17591 |
|     104 | 0x44B8      |       17592 |
|     105 | 0x44B9      |       17593 |
|     106 | 0x44BA      |       17594 |
|     107 | 0x44BB      |       17595 |
|     108 | 0x44BC      |       17596 |
|     109 | 0x44BD      |       17597 |
|     110 | 0x44BE      |       17598 |
|     111 | 0x0230      |         560 |
|     112 | 0x44BF      |       17599 |
|     113 | 0x00A2      |         162 |
|     114 | 0x00A4      |         164 |
|     115 | 0x44A8      |       17576 |
|     116 | 0x44A9      |       17577 |
|     117 | 0x44AA      |       17578 |
|     118 | 0x0019      |          25 |
|     119 | 0x0C9E      |        3230 |
|     120 | 0x44C0      |       17600 |
|     121 | 0x44C1      |       17601 |
|     122 | 0x44C2      |       17602 |
|     123 | 0x44C3      |       17603 |
|     124 | 0x44C4      |       17604 |
|     125 | 0x44C5      |       17605 |
|     126 | 0x44C8      |       17608 |
|     127 | 0x44C9      |       17609 |
|     128 | 0x44C6      |       17606 |
|     129 | 0x44C7      |       17607 |
|     130 | 0x00AA      |         170 |
|     131 | 0x44CA      |       17610 |
|     132 | 0x44CB      |       17611 |
|     133 | 0x00AC      |         172 |
|     134 | 0x00BC      |         188 |
|     135 | 0x44CC      |       17612 |
|     136 | 0x44CD      |       17613 |
|     137 | 0x00BA      |         186 |
|     138 | 0x0012      |          18 |
|     139 | 0x44CE      |       17614 |
|     140 | 0x44CF      |       17615 |
|     141 | 0x44D0      |       17616 |
|     142 | 0x0184      |         388 |
|     143 | 0xFFFD0AF2  |  4294773490 |
|     144 | 0xFFFE2245  |  4294844997 |
|     145 | 0xFFFFD761  |  4294956897 |
|     146 | 0x0D48      |        3400 |
|     147 | 0xFFFD0864  |  4294772836 |
|     148 | 0xFFFE23DF  |  4294845407 |
|     149 | 0xFFFFD8F0  |  4294957296 |
|     150 | 0x023A      |         570 |
|     151 | 0xFFFD0551  |  4294772049 |
|     152 | 0xFFFE2901  |  4294846721 |
|     153 | 0xFFFFD85A  |  4294957146 |
|     154 | 0x0080      |         128 |
|     155 | 0x3BD81     |      245121 |
|     156 | 0x36C9      |       14025 |
|     157 | 0xFFFFED63  |  4294962531 |
|     158 | 0x0B14      |        2836 |
|     159 | 0x3BE31     |      245297 |
|     160 | 0x5014      |       20500 |
|     161 | 0xFFFFEB6C  |  4294962028 |
|     162 | 0x04EE      |        1262 |
|     163 | 0x3BC3C     |      244796 |
|     164 | 0x5621      |       22049 |
|     165 | 0xFFFFEB00  |  4294961920 |
|     166 | 0x0444      |        1092 |
|     167 | 0x3C436     |      246838 |
|     168 | 0x5287      |       21127 |
|     169 | 0xFFFFEAEB  |  4294961899 |
|     170 | 0x0546      |        1350 |
|     171 | 0x3906E     |      233582 |
|     172 | 0x1B6C      |        7020 |
|     173 | 0xFFFFEF1B  |  4294962971 |
|     174 | 0x084D      |        2125 |
|     175 | 0x399BD     |      235965 |
|     176 | 0x1FB7      |        8119 |
|     177 | 0xFFFFEFD0  |  4294963152 |
|     178 | 0x083F      |        2111 |
|     179 | 0x398D9     |      235737 |
|     180 | 0x15A5      |        5541 |
|     181 | 0xFFFFF013  |  4294963219 |
|     182 | 0x0854      |        2132 |
|     183 | 0x3BA97     |      244375 |
|     184 | 0x3419      |       13337 |
|     185 | 0xFFFFEDD2  |  4294962642 |
|     186 | 0x0BFC      |        3068 |
|     187 | 0x037E      |         894 |
|     188 | 0x4502      |       17666 |
|     189 | 0x005A      |          90 |
|     190 | 0x4503      |       17667 |
|     191 | 0x4504      |       17668 |
|     192 | 0x0015      |          21 |
|     193 | 0x0073      |         115 |
|     194 | 0x3B1B8     |      242104 |
|     195 | 0x3E14      |       15892 |
|     196 | 0xFFFFECFB  |  4294962427 |
|     197 | 0x071F      |        1823 |
|     198 | 0x3C54A     |      247114 |
|     199 | 0x41FE      |       16894 |
|     200 | 0xFFFFED5C  |  4294962524 |
|     201 | 0x0800      |        2048 |
|     202 | 0xFFFC2F70  |  4294717296 |
|     203 | 0x3C8AC     |      247980 |
|     204 | 0x3E80      |       16000 |
|     205 | 0x3BAAE     |      244398 |
|     206 | 0x4870      |       18544 |
|     207 | 0xFFFFEC36  |  4294962230 |
|     208 | 0x3BA0B     |      244235 |
|     209 | 0x5191      |       20881 |
|     210 | 0xFFFFEB93  |  4294962067 |
|     211 | 0x3C1BC     |      246204 |
|     212 | 0x4C85      |       19589 |
|     213 | 0xFFFFEB81  |  4294962049 |
|     214 | 0x3FA94     |      260756 |
|     215 | 0x0879      |        2169 |
|     216 | 0xFFFFEBAC  |  4294962092 |
|     217 | 0x086B      |        2155 |
|     218 | 0x4091      |       16529 |
|     219 | 0xFFFFEC12  |  4294962194 |
|     220 | 0x0A42      |        2626 |
|     221 | 0x001A      |          26 |
|     222 | 0x035B      |         859 |
|     223 | 0x0078      |         120 |
|     224 | 0x0096      |         150 |
|     225 | 0x3E60A     |      255498 |
|     226 | 0x137B      |        4987 |
|     227 | 0xFFFFEEA5  |  4294962853 |
|     228 | 0xFFFFF099  |  4294963353 |
|     229 | 0x3E327     |      254759 |
|     230 | 0x0820      |        2080 |
|     231 | 0xFFFFEF01  |  4294962945 |
|     232 | 0xFFFFF0F5  |  4294963445 |
|     233 | 0x3E10B     |      254219 |
|     234 | 0x0D98      |        3480 |
|     235 | 0xFFFFEF45  |  4294963013 |
|     236 | 0xFFFFF139  |  4294963513 |
|     237 | 0x4505      |       17669 |
|     238 | 0x4506      |       17670 |
|     239 | 0x4507      |       17671 |
|     240 | 0x4508      |       17672 |
|     241 | 0x4509      |       17673 |
|     242 | 0x450A      |       17674 |
|     243 | 0x450B      |       17675 |
|     244 | 0x450C      |       17676 |
|     245 | 0x0046      |          70 |
|     246 | 0x3BAA3     |      244387 |
|     247 | 0x41AC      |       16812 |
|     248 | 0xFFFFECA3  |  4294962339 |
|     249 | 0x0027      |          39 |
|     250 | 0x450D      |       17677 |
|     251 | 0x450E      |       17678 |
|     252 | 0x450F      |       17679 |
|     253 | 0x4510      |       17680 |
|     254 | 0x4511      |       17681 |
|     255 | 0x4512      |       17682 |
|     256 | 0x4513      |       17683 |
|     257 | 0x4514      |       17684 |
|     258 | 0x4515      |       17685 |
|     259 | 0x4516      |       17686 |
|     260 | 0x4517      |       17687 |
|     261 | 0x4518      |       17688 |
|     262 | 0x4519      |       17689 |
|     263 | 0x451A      |       17690 |
|     264 | 0x451B      |       17691 |
|     265 | 0x451C      |       17692 |
|     266 | 0x451D      |       17693 |
|     267 | 0x3C30D     |      246541 |
|     268 | 0x404A      |       16458 |
|     269 | 0xFFFFEF16  |  4294962966 |
|     270 | 0x0916      |        2326 |
|     271 | 0x451E      |       17694 |
|     272 | 0x451F      |       17695 |
|     273 | 0x4520      |       17696 |
|     274 | 0x002A      |          42 |
|     275 | 0x4521      |       17697 |
|     276 | 0x4522      |       17698 |
|     277 | 0x4523      |       17699 |
|     278 | 0x4524      |       17700 |
|     279 | 0x4525      |       17701 |
|     280 | 0x4526      |       17702 |
|     281 | 0x4527      |       17703 |
|     282 | 0x00EE      |         238 |
|     283 | 0x001F      |          31 |
|     284 | 0xFFFD092C  |  4294773036 |
|     285 | 0xFFFE1D32  |  4294843698 |
|     286 | 0xFFFFD85B  |  4294957147 |
|     287 | 0x4528      |       17704 |
|     288 | 0x4529      |       17705 |
|     289 | 0x452A      |       17706 |
|     290 | 0x452B      |       17707 |
|     291 | 0x452C      |       17708 |
|     292 | 0x452D      |       17709 |
|     293 | 0x452E      |       17710 |

## String References

- **17556**: Inquire about what? [Who is Garazu-Horeizu?/What did he do?/What happened to him?]
- **17603**: Deliver the doll? [Sure./No thanks.]

## Events

### Event 65535

#### Metadata

| Field        | Value     |
|--------------|-----------|
| Entrypoint   | 0x0000    |
| Data Size    | 658 bytes |
| Instructions | 1         |

```
      00 01 02 03 04 05 06 07  08 09 0A 0B 0C 0D 0E 0F
      -- -- -- -- -- -- -- --  -- -- -- -- -- -- -- --
0000: 00 45 00 80 F0 FF FF 7F  F0 FF FF 7F 66 64 69 30  .E..........fdi0
0010: 01 80 55 00 80 F0 FF FF  7F F0 FF FF 7F 66 64 69  ..U..........fdi
0020: 30 1B 45 00 80 F0 FF FF  7F F0 FF FF 7F 66 64 6F  0.E..........fdo
0030: 30 01 80 55 00 80 F0 FF  FF 7F F0 FF FF 7F 66 64  0..U..........fd
0040: 6F 30 1B 45 00 80 F0 FF  FF 7F F0 FF FF 7F 66 64  o0.E..........fd
0050: 69 31 01 80 55 00 80 F0  FF FF 7F F0 FF FF 7F 66  i1..U..........f
0060: 64 69 31 1B 45 00 80 F0  FF FF 7F F0 FF FF 7F 66  di1.E..........f
0070: 64 6F 31 01 80 55 00 80  F0 FF FF 7F F0 FF FF 7F  do1..U..........
0080: 66 64 6F 31 1B 45 02 80  F0 FF FF 7F F0 FF FF 7F  fdo1.E..........
0090: 77 68 69 31 01 80 55 02  80 F0 FF FF 7F F0 FF FF  whi1..U.........
00A0: 7F 77 68 69 31 1B 45 02  80 F0 FF FF 7F F0 FF FF  .whi1.E.........
00B0: 7F 77 68 6F 31 01 80 55  02 80 F0 FF FF 7F F0 FF  .who1..U........
00C0: FF 7F 77 68 6F 31 1B 45  02 80 F0 FF FF 7F F0 FF  ..who1.E........
00D0: FF 7F 77 68 6F 32 01 80  55 02 80 F0 FF FF 7F F0  ..who2..U.......
00E0: FF FF 7F 77 68 6F 32 1B  45 02 80 F0 FF FF 7F F0  ...who2.E.......
00F0: FF FF 7F 77 68 6F 33 01  80 55 02 80 F0 FF FF 7F  ...who3..U......
0100: F0 FF FF 7F 77 68 6F 33  1B 62 03 80 F0 FF FF 7F  ....who3.b......
0110: F0 FF FF 7F 6D 61 69 6E  01 80 1C 04 80 45 00 80  ....main.....E..
0120: F0 FF FF 7F F0 FF FF 7F  66 64 6F 31 01 80 55 00  ........fdo1..U.
0130: 80 F0 FF FF 7F F0 FF FF  7F 66 64 6F 31 1B 45 00  .........fdo1.E.
0140: 80 F0 FF FF 7F F0 FF FF  7F 66 64 69 31 01 80 62  .........fdi1..b
0150: 05 80 F0 FF FF 7F F0 FF  FF 7F 6D 61 69 6E 01 80  ..........main..
0160: 1C 06 80 55 00 80 F0 FF  FF 7F F0 FF FF 7F 66 64  ...U..........fd
0170: 69 31 1B 45 00 80 F0 FF  FF 7F F0 FF FF 7F 62 6C  i1.E..........bl
0180: 6F 6E 01 80 45 02 80 F0  FF FF 7F F0 FF FF 7F 62  on..E..........b
0190: 6C 6F 6E 01 80 1B 45 02  80 F0 FF FF 7F F0 FF FF  lon...E.........
01A0: 7F 77 68 69 30 01 80 55  02 80 F0 FF FF 7F F0 FF  .whi0..U........
01B0: FF 7F 77 68 69 30 1B 45  02 80 F0 FF FF 7F F0 FF  ..whi0.E........
01C0: FF 7F 77 68 6F 30 01 80  55 02 80 F0 FF FF 7F F0  ..who0..U.......
01D0: FF FF 7F 77 68 6F 30 1B  45 07 80 F0 FF FF 7F F0  ...who0.E.......
01E0: FF FF 7F 65 66 6F 6E 01  80 55 07 80 F0 FF FF 7F  ...efon..U......
01F0: F0 FF FF 7F 65 66 6F 6E  1B 45 00 80 F0 FF FF 7F  ....efon.E......
0200: F0 FF FF 7F 66 64 69 73  01 80 1B 45 00 80 F0 FF  ....fdis...E....
0210: FF 7F F0 FF FF 7F 66 64  6F 73 01 80 55 00 80 F0  ......fdos..U...
0220: FF FF 7F F0 FF FF 7F 66  64 6F 73 1B 45 00 80 F0  .......fdos.E...
0230: FF FF 7F F0 FF FF 7F 66  64 69 66 01 80 1B 45 00  .......fdif...E.
0240: 80 F0 FF FF 7F F0 FF FF  7F 66 64 6F 66 01 80 55  .........fdof..U
0250: 00 80 F0 FF FF 7F F0 FF  FF 7F 66 64 6F 66 1B 45  ..........fdof.E
0260: 00 80 F0 FF FF 7F F0 FF  FF 7F 66 64 69 70 01 80  ..........fdip..
0270: 1B 45 00 80 F0 FF FF 7F  F0 FF FF 7F 66 64 6F 70  .E..........fdop
0280: 01 80 55 00 80 F0 FF FF  7F F0 FF FF 7F 66 64 6F  ..U..........fdo
0290: 70 1B                                             p.              
```

#### Opcodes

```
  0: 0x0000 [0x00] END_REQSTACK()
```

#### Data or dead code:

```
# Dead code (unreachable instructions):
     0x0001 [0x45] LOAD_SCHEDULED_TASK: Load scheduler "fdi0" with entities [LocalPlayer, LocalPlayer], work=[200*, 0*]
     0x0012 [0x55] WAIT_LOAD_SCHEDULER: Wait for scheduler "fdi0" with entities [LocalPlayer, LocalPlayer], work=200*
     0x0021 [0x1B] RETURN
     0x0022 [0x45] LOAD_SCHEDULED_TASK: Load scheduler "fdo0" with entities [LocalPlayer, LocalPlayer], work=[200*, 0*]
     0x0033 [0x55] WAIT_LOAD_SCHEDULER: Wait for scheduler "fdo0" with entities [LocalPlayer, LocalPlayer], work=200*
     0x0042 [0x1B] RETURN
     0x0043 [0x45] LOAD_SCHEDULED_TASK: Load scheduler "fdi1" with entities [LocalPlayer, LocalPlayer], work=[200*, 0*]
     0x0054 [0x55] WAIT_LOAD_SCHEDULER: Wait for scheduler "fdi1" with entities [LocalPlayer, LocalPlayer], work=200*
     0x0063 [0x1B] RETURN
     0x0064 [0x45] LOAD_SCHEDULED_TASK: Load scheduler "fdo1" with entities [LocalPlayer, LocalPlayer], work=[200*, 0*]
     0x0075 [0x55] WAIT_LOAD_SCHEDULER: Wait for scheduler "fdo1" with entities [LocalPlayer, LocalPlayer], work=200*
     0x0084 [0x1B] RETURN
     0x0085 [0x45] LOAD_SCHEDULED_TASK: Load scheduler "whi1" with entities [LocalPlayer, LocalPlayer], work=[201*, 0*]
     0x0096 [0x55] WAIT_LOAD_SCHEDULER: Wait for scheduler "whi1" with entities [LocalPlayer, LocalPlayer], work=201*
     0x00A5 [0x1B] RETURN
     0x00A6 [0x45] LOAD_SCHEDULED_TASK: Load scheduler "who1" with entities [LocalPlayer, LocalPlayer], work=[201*, 0*]
     0x00B7 [0x55] WAIT_LOAD_SCHEDULER: Wait for scheduler "who1" with entities [LocalPlayer, LocalPlayer], work=201*
     0x00C6 [0x1B] RETURN
     0x00C7 [0x45] LOAD_SCHEDULED_TASK: Load scheduler "who2" with entities [LocalPlayer, LocalPlayer], work=[201*, 0*]
     0x00D8 [0x55] WAIT_LOAD_SCHEDULER: Wait for scheduler "who2" with entities [LocalPlayer, LocalPlayer], work=201*
     0x00E7 [0x1B] RETURN
     0x00E8 [0x45] LOAD_SCHEDULED_TASK: Load scheduler "who3" with entities [LocalPlayer, LocalPlayer], work=[201*, 0*]
     0x00F9 [0x55] WAIT_LOAD_SCHEDULER: Wait for scheduler "who3" with entities [LocalPlayer, LocalPlayer], work=201*
     0x0108 [0x1B] RETURN
     0x0109 [0x62] LOAD_EVENT_SCHEDULER: Load scheduler "main" with entities [LocalPlayer, LocalPlayer], work=[1*, 0*]
     0x011A [0x1C] WAIT(45* ticks)
     0x011D [0x45] LOAD_SCHEDULED_TASK: Load scheduler "fdo1" with entities [LocalPlayer, LocalPlayer], work=[200*, 0*]
     0x012E [0x55] WAIT_LOAD_SCHEDULER: Wait for scheduler "fdo1" with entities [LocalPlayer, LocalPlayer], work=200*
     0x013D [0x1B] RETURN
     0x013E [0x45] LOAD_SCHEDULED_TASK: Load scheduler "fdi1" with entities [LocalPlayer, LocalPlayer], work=[200*, 0*]
     0x014F [0x62] LOAD_EVENT_SCHEDULER: Load scheduler "main" with entities [LocalPlayer, LocalPlayer], work=[2*, 0*]
     0x0160 [0x1C] WAIT(30* ticks)
     0x0163 [0x55] WAIT_LOAD_SCHEDULER: Wait for scheduler "fdi1" with entities [LocalPlayer, LocalPlayer], work=200*
     0x0172 [0x1B] RETURN
     0x0173 [0x45] LOAD_SCHEDULED_TASK: Load scheduler "blon" with entities [LocalPlayer, LocalPlayer], work=[200*, 0*]
     0x0184 [0x45] LOAD_SCHEDULED_TASK: Load scheduler "blon" with entities [LocalPlayer, LocalPlayer], work=[201*, 0*]
     0x0195 [0x1B] RETURN
     0x0196 [0x45] LOAD_SCHEDULED_TASK: Load scheduler "whi0" with entities [LocalPlayer, LocalPlayer], work=[201*, 0*]
     0x01A7 [0x55] WAIT_LOAD_SCHEDULER: Wait for scheduler "whi0" with entities [LocalPlayer, LocalPlayer], work=201*
     0x01B6 [0x1B] RETURN
     0x01B7 [0x45] LOAD_SCHEDULED_TASK: Load scheduler "who0" with entities [LocalPlayer, LocalPlayer], work=[201*, 0*]
     0x01C8 [0x55] WAIT_LOAD_SCHEDULER: Wait for scheduler "who0" with entities [LocalPlayer, LocalPlayer], work=201*
     0x01D7 [0x1B] RETURN
     0x01D8 [0x45] LOAD_SCHEDULED_TASK: Load scheduler "efon" with entities [LocalPlayer, LocalPlayer], work=[215*, 0*]
     0x01E9 [0x55] WAIT_LOAD_SCHEDULER: Wait for scheduler "efon" with entities [LocalPlayer, LocalPlayer], work=215*
     0x01F8 [0x1B] RETURN
     0x01F9 [0x45] LOAD_SCHEDULED_TASK: Load scheduler "fdis" with entities [LocalPlayer, LocalPlayer], work=[200*, 0*]
     0x020A [0x1B] RETURN
     0x020B [0x45] LOAD_SCHEDULED_TASK: Load scheduler "fdos" with entities [LocalPlayer, LocalPlayer], work=[200*, 0*]
     0x021C [0x55] WAIT_LOAD_SCHEDULER: Wait for scheduler "fdos" with entities [LocalPlayer, LocalPlayer], work=200*
     0x022B [0x1B] RETURN
     0x022C [0x45] LOAD_SCHEDULED_TASK: Load scheduler "fdif" with entities [LocalPlayer, LocalPlayer], work=[200*, 0*]
     0x023D [0x1B] RETURN
     0x023E [0x45] LOAD_SCHEDULED_TASK: Load scheduler "fdof" with entities [LocalPlayer, LocalPlayer], work=[200*, 0*]
     0x024F [0x55] WAIT_LOAD_SCHEDULER: Wait for scheduler "fdof" with entities [LocalPlayer, LocalPlayer], work=200*
     0x025E [0x1B] RETURN
     0x025F [0x45] LOAD_SCHEDULED_TASK: Load scheduler "fdip" with entities [LocalPlayer, LocalPlayer], work=[200*, 0*]
     0x0270 [0x1B] RETURN
     0x0271 [0x45] LOAD_SCHEDULED_TASK: Load scheduler "fdop" with entities [LocalPlayer, LocalPlayer], work=[200*, 0*]
     0x0282 [0x55] WAIT_LOAD_SCHEDULER: Wait for scheduler "fdop" with entities [LocalPlayer, LocalPlayer], work=200*
     0x0291 [0x1B] RETURN
```

### Event 1156

#### Metadata

| Field        | Value      |
|--------------|------------|
| Entrypoint   | 0x0292     |
| Data Size    | 4146 bytes |
| Instructions | 537        |

```
      00 01 02 03 04 05 06 07  08 09 0A 0B 0C 0D 0E 0F
      -- -- -- -- -- -- -- --  -- -- -- -- -- -- -- --
0290:       42 03 02 00 03 10  03 03 00 01 80 1A 64 00    B...........d.
02A0: 46 01 38 08 80 02 09 10  01 80 01 B3 02 75 00 09  F.8..........u..
02B0: 80 75 01 2F 00 DF E0 0E  01 2F 00 10 E2 0E 01 4E  .u./...../.....N
02C0: 00 DF E0 0E 01 4E 00 10  E2 0E 01 92 01 10 E0 0E  .....N..........
02D0: 01 92 01 11 E0 0E 01 92  01 12 E0 0E 01 92 01 13  ................
02E0: E0 0E 01 92 01 DF E0 0E  01 92 01 10 E2 0E 01 94  ................
02F0: 01 10 E0 0E 01 94 01 11  E0 0E 01 94 01 12 E0 0E  ................
0300: 01 94 01 13 E0 0E 01 94  01 F0 FF FF 7F 94 01 DF  ................
0310: E0 0E 01 94 01 10 E2 0E  01 BA F0 FF FF 7F 0A 80  ................
0320: 0B 80 0C 80 0D 80 59 05  DF E0 0E 01 01 BA DF E0  ......Y.........
0330: 0E 01 0E 80 0F 80 10 80  11 80 59 05 DF E0 0E 01  ..........Y.....
0340: 01 BA 10 E2 0E 01 12 80  13 80 14 80 15 80 29 0F  ..............).
0350: AE E0 0E 01 07 80 10 E0  0E 01 80 11 E0 0E 01 80  ................
0360: 12 E0 0E 01 80 13 E0 0E  01 80 F0 FF FF 7F 80 DF  ................
0370: E0 0E 01 80 10 E2 0E 01  4A 13 E0 0E 01 12 E0 0E  ........J.......
0380: 01 4A 12 E0 0E 01 13 E0  0E 01 4A F0 FF FF 7F 10  .J........J.....
0390: E0 0E 01 4A 10 E0 0E 01  F0 FF FF 7F 6F 76 10 E0  ...J........ov..
03A0: 0E 01 6F 76 F0 FF FF 7F  6F 76 13 E0 0E 01 6F 76  ..ov....ov....ov
03B0: 12 E0 0E 01 29 08 F0 FF  FF 7F 06 29 08 12 E0 0E  ....)......)....
03C0: 01 01 45 16 80 F8 FF FF  7F F8 FF FF 7F 73 30 30  ..E..........s00
03D0: 30 01 80 1A 43 00 27 0B  10 E0 0E 01 97 03 02 10  0...C.'.........
03E0: 17 80 2B 10 E0 0E 01 18  80 2A 0B 10 E0 0E 01 23  ..+......*.....#
03F0: 02 02 00 03 80 00 4E 04  52 16 80 F8 FF FF 7F F8  ......N.R.......
0400: FF FF 7F 73 30 30 30 45  16 80 F8 FF FF 7F F8 FF  ...s000E........
0410: FF 7F 73 30 30 35 01 80  29 08 10 E0 0E 01 27 2B  ..s005..).....'+
0420: 10 E0 0E 01 19 80 23 29  08 10 E0 0E 01 28 52 16  ......#).....(R.
0430: 80 F8 FF FF 7F F8 FF FF  7F 73 30 30 35 45 16 80  .........s005E..
0440: F8 FF FF 7F F8 FF FF 7F  73 30 30 36 01 80 29 08  ........s006..).
0450: 10 E0 0E 01 43 27 08 F0  FF FF 7F 80 1C 1A 80 5D  ....C'.........]
0460: 01 80 1B 80 1A 64 00 2A  08 F0 FF FF 7F 52 16 80  .....d.*.....R..
0470: F8 FF FF 7F F8 FF FF 7F  73 30 30 30 52 16 80 F8  ........s000R...
0480: FF FF 7F F8 FF FF 7F 73  30 30 36 7B 10 E0 0E 01  .......s006{....
0490: 4B 10 E0 0E 01 1C 80 6F  76 10 E0 0E 01 29 08 10  K......ov....)..
04A0: E0 0E 01 21 29 08 10 E0  0E 01 22 5C 00 1D 80 5C  ...!)....."\...\
04B0: 01 1D 80 9A 5D 1D 80 03  80 45 16 80 F8 FF FF 7F  ....]....E......
04C0: F8 FF FF 7F 73 30 30 31  01 80 1A 43 00 2B 10 E0  ....s001...C.+..
04D0: 0E 01 1E 80 23 29 08 10  E0 0E 01 23 2B 10 E0 0E  ....#).....#+...
04E0: 01 1F 80 23 29 08 10 E0  0E 01 24 27 0B 10 E0 0E  ...#).....$'....
04F0: 01 98 1C 06 80 52 16 80  F8 FF FF 7F F8 FF FF 7F  .....R..........
0500: 73 30 30 31 45 16 80 F8  FF FF 7F F8 FF FF 7F 73  s001E..........s
0510: 30 30 32 01 80 2B 10 E0  0E 01 20 80 1C 06 80 4A  002..+.... ....J
0520: F0 FF FF 7F 10 E0 0E 01  6F 76 F0 FF FF 7F 23 2A  ........ov....#*
0530: 0B 10 E0 0E 01 29 08 10  E0 0E 01 41 2B 10 E0 0E  .....).....A+...
0540: 01 21 80 23 29 08 10 E0  0E 01 42 52 16 80 F8 FF  .!.#).....BR....
0550: FF 7F F8 FF FF 7F 73 30  30 32 45 16 80 F8 FF FF  ......s002E.....
0560: 7F F8 FF FF 7F 73 30 30  34 01 80 4A F0 FF FF 7F  .....s004..J....
0570: 10 E0 0E 01 4B 10 E0 0E  01 22 80 6F 76 10 E0 0E  ....K....".ov...
0580: 01 29 08 10 E0 0E 01 27  2B 10 E0 0E 01 23 80 23  .).....'+....#.#
0590: 29 08 10 E0 0E 01 28 29  08 10 E0 0E 01 21 2B 10  ).....().....!+.
05A0: E0 0E 01 24 80 23 6F 76  F0 FF FF 7F 52 16 80 F8  ...$.#ov....R...
05B0: FF FF 7F F8 FF FF 7F 73  30 30 34 02 09 10 25 80  .......s004...%.
05C0: 00 D7 05 45 16 80 F8 FF  FF 7F F8 FF FF 7F 73 30  ...E..........s0
05D0: 32 33 01 80 01 04 06 02  09 10 26 80 00 F3 05 45  23........&....E
05E0: 16 80 F8 FF FF 7F F8 FF  FF 7F 73 30 32 33 01 80  ..........s023..
05F0: 01 04 06 45 16 80 F8 FF  FF 7F F8 FF FF 7F 73 30  ...E..........s0
0600: 30 39 01 80 29 08 10 E0  0E 01 22 29 08 10 E0 0E  09..).....")....
0610: 01 23 29 08 10 E0 0E 01  24 4A 10 E0 0E 01 F0 FF  .#).....$J......
0620: FF 7F 6F 76 10 E0 0E 01  29 08 10 E0 0E 01 01 2B  ..ov....)......+
0630: 10 E0 0E 01 27 80 23 1C  28 80 02 09 10 25 80 00  ....'.#.(....%..
0640: 54 06 52 16 80 F8 FF FF  7F F8 FF FF 7F 73 30 32  T.R..........s02
0650: 33 01 7D 06 02 09 10 26  80 00 6E 06 52 16 80 F8  3.}....&..n.R...
0660: FF FF 7F F8 FF FF 7F 73  30 32 33 01 7D 06 52 16  .......s023.}.R.
0670: 80 F8 FF FF 7F F8 FF FF  7F 73 30 30 39 45 16 80  .........s009E..
0680: F8 FF FF 7F F8 FF FF 7F  73 30 30 37 01 80 2B 10  ........s007..+.
0690: E0 0E 01 29 80 1C 06 80  29 08 13 E0 0E 01 03 23  ...)....)......#
06A0: 29 08 12 E0 0E 01 02 29  08 13 E0 0E 01 04 29 08  )......)......).
06B0: 13 E0 0E 01 01 2B 10 E0  0E 01 2A 80 23 29 08 12  .....+....*.#)..
06C0: E0 0E 01 01 2B 10 E0 0E  01 2B 80 23 29 08 10 E0  ....+....+.#)...
06D0: 0E 01 02 45 00 80 F8 FF  FF 7F F8 FF FF 7F 66 64  ...E..........fd
06E0: 6F 31 01 80 C5 2C 80 DF  E0 0E 01 DF E0 0E 01 73  o1...,.........s
06F0: 30 30 30 01 80 1C 06 80  52 16 80 F8 FF FF 7F F8  000.....R.......
0700: FF FF 7F 73 30 30 37 45  16 80 F8 FF FF 7F F8 FF  ...s007E........
0710: FF 7F 73 30 31 31 01 80  45 00 80 F8 FF FF 7F F8  ..s011..E.......
0720: FF FF 7F 66 64 69 31 01  80 2B 10 E0 0E 01 2D 80  ...fdi1..+....-.
0730: 23 9F 2E 80 DF E0 0E 01  DF E0 0E 01 6D 61 69 6E  #...........main
0740: 01 80 29 08 DF E0 0E 01  0C 2B 10 E0 0E 01 2F 80  ..)......+..../.
0750: 1C 30 80 45 00 80 F8 FF  FF 7F F8 FF FF 7F 66 64  .0.E..........fd
0760: 6F 31 01 80 1C 31 80 23  C5 2C 80 DF E0 0E 01 DF  o1...1.#.,......
0770: E0 0E 01 6B 69 6C 30 01  80 1C 32 80 52 16 80 F8  ...kil0...2.R...
0780: FF FF 7F F8 FF FF 7F 73  30 31 31 45 16 80 F8 FF  .......s011E....
0790: FF 7F F8 FF FF 7F 73 30  30 38 01 80 45 00 80 F8  ......s008..E...
07A0: FF FF 7F F8 FF FF 7F 66  64 69 31 01 80 29 08 10  .......fdi1..)..
07B0: E0 0E 01 01 2B 10 E0 0E  01 33 80 23 29 08 10 E0  ....+....3.#)...
07C0: 0E 01 02 29 08 10 E0 0E  01 27 2B 10 E0 0E 01 34  ...).....'+....4
07D0: 80 23 29 08 10 E0 0E 01  28 29 08 DF E0 0E 01 0D  .#).....()......
07E0: 1A 64 00 52 16 80 F8 FF  FF 7F F8 FF FF 7F 73 30  .d.R..........s0
07F0: 30 38 2B 10 E0 0E 01 35  80 23 7B 10 E0 0E 01 27  08+....5.#{....'
0800: 08 10 E0 0E 01 10 1C 36  80 45 16 80 F8 FF FF 7F  .......6.E......
0810: F8 FF FF 7F 73 30 31 30  01 80 1A 43 00 2A 08 10  ....s010...C.*..
0820: E0 0E 01 03 03 00 03 80  2B 10 E0 0E 01 37 80 23  ........+....7.#
0830: 52 16 80 F8 FF FF 7F F8  FF FF 7F 73 30 31 30 02  R..........s010.
0840: 09 10 05 80 00 5B 08 45  16 80 F8 FF FF 7F F8 FF  .....[.E........
0850: FF 7F 73 30 32 34 01 80  01 C0 08 02 09 10 25 80  ..s024........%.
0860: 00 77 08 45 16 80 F8 FF  FF 7F F8 FF FF 7F 73 30  .w.E..........s0
0870: 32 34 01 80 01 C0 08 02  09 10 26 80 00 93 08 45  24........&....E
0880: 16 80 F8 FF FF 7F F8 FF  FF 7F 73 30 32 34 01 80  ..........s024..
0890: 01 C0 08 02 09 10 38 80  00 AF 08 45 16 80 F8 FF  ......8....E....
08A0: FF 7F F8 FF FF 7F 73 30  32 34 01 80 01 C0 08 45  ......s024.....E
08B0: 16 80 F8 FF FF 7F F8 FF  FF 7F 73 30 30 33 01 80  ..........s003..
08C0: 2B 10 E0 0E 01 39 80 23  03 04 00 01 80 02 04 00  +....9.#........
08D0: 38 80 01 DB 10 24 3A 80  01 80 04 00 25 02 00 10  8....$:.....%...
08E0: 01 80 00 20 0B 29 08 F0  FF FF 7F 81 4A 10 E0 0E  ... .)......J...
08F0: 01 F0 FF FF 7F 6F 76 10  E0 0E 01 1C 04 80 02 03  .....ov.........
0900: 00 03 80 00 12 09 29 08  10 E0 0E 01 11 03 03 00  ......).........
0910: 01 80 1C 3B 80 02 09 10  05 80 00 3E 09 52 16 80  ...;.......>.R..
0920: F8 FF FF 7F F8 FF FF 7F  73 30 32 34 52 16 80 F8  ........s024R...
0930: FF FF 7F F8 FF FF 7F 73  30 31 34 01 D7 09 02 09  .......s014.....
0940: 10 25 80 00 67 09 52 16  80 F8 FF FF 7F F8 FF FF  .%..g.R.........
0950: 7F 73 30 32 34 52 16 80  F8 FF FF 7F F8 FF FF 7F  .s024R..........
0960: 73 30 32 36 01 D7 09 02  09 10 26 80 00 90 09 52  s026......&....R
0970: 16 80 F8 FF FF 7F F8 FF  FF 7F 73 30 32 34 52 16  ..........s024R.
0980: 80 F8 FF FF 7F F8 FF FF  7F 73 30 32 36 01 D7 09  .........s026...
0990: 02 09 10 38 80 00 B9 09  52 16 80 F8 FF FF 7F F8  ...8....R.......
09A0: FF FF 7F 73 30 32 34 52  16 80 F8 FF FF 7F F8 FF  ...s024R........
09B0: FF 7F 73 30 31 34 01 D7  09 52 16 80 F8 FF FF 7F  ..s014...R......
09C0: F8 FF FF 7F 73 30 30 33  52 16 80 F8 FF FF 7F F8  ....s003R.......
09D0: FF FF 7F 73 30 31 34 02  09 10 25 80 00 F3 09 45  ...s014...%....E
09E0: 16 80 F8 FF FF 7F F8 FF  FF 7F 73 30 32 35 01 80  ..........s025..
09F0: 01 20 0A 02 09 10 26 80  00 0F 0A 45 16 80 F8 FF  . ....&....E....
0A00: FF 7F F8 FF FF 7F 73 30  32 35 01 80 01 20 0A 45  ......s025... .E
0A10: 16 80 F8 FF FF 7F F8 FF  FF 7F 73 30 31 32 01 80  ..........s012..
0A20: 29 08 10 E0 0E 01 01 2B  10 E0 0E 01 3C 80 23 29  )......+....<.#)
0A30: 08 10 E0 0E 01 02 7B 10  E0 0E 01 02 09 10 25 80  ......{.......%.
0A40: 00 55 0A 52 16 80 F8 FF  FF 7F F8 FF FF 7F 73 30  .U.R..........s0
0A50: 32 35 01 7E 0A 02 09 10  26 80 00 6F 0A 52 16 80  25.~....&..o.R..
0A60: F8 FF FF 7F F8 FF FF 7F  73 30 32 35 01 7E 0A 52  ........s025.~.R
0A70: 16 80 F8 FF FF 7F F8 FF  FF 7F 73 30 31 32 45 16  ..........s012E.
0A80: 80 F8 FF FF 7F F8 FF FF  7F 73 30 31 33 01 80 29  .........s013..)
0A90: 08 10 E0 0E 01 21 2B 10  E0 0E 01 3D 80 23 2B 10  .....!+....=.#+.
0AA0: E0 0E 01 3E 80 23 29 08  10 E0 0E 01 22 29 08 10  ...>.#).....")..
0AB0: E0 0E 01 23 29 08 10 E0  0E 01 24 52 16 80 F8 FF  ...#).....$R....
0AC0: FF 7F F8 FF FF 7F 73 30  31 33 02 09 10 25 80 00  ......s013...%..
0AD0: E6 0A 45 16 80 F8 FF FF  7F F8 FF FF 7F 73 30 32  ..E..........s02
0AE0: 36 01 80 01 13 0B 02 09  10 26 80 00 02 0B 45 16  6........&....E.
0AF0: 80 F8 FF FF 7F F8 FF FF  7F 73 30 32 36 01 80 01  .........s026...
0B00: 13 0B 45 16 80 F8 FF FF  7F F8 FF FF 7F 73 30 31  ..E..........s01
0B10: 34 01 80 79 00 10 E0 0E  01 F0 FF FF 7F 01 D1 10  4..y............
0B20: 02 00 10 03 80 00 A5 0D  29 08 F0 FF FF 7F 81 4A  ........)......J
0B30: 10 E0 0E 01 F0 FF FF 7F  6F 76 10 E0 0E 01 1C 3F  ........ov.....?
0B40: 80 02 03 00 03 80 00 55  0B 29 08 10 E0 0E 01 11  .......U.)......
0B50: 03 03 00 01 80 02 09 10  05 80 00 7E 0B 52 16 80  ...........~.R..
0B60: F8 FF FF 7F F8 FF FF 7F  73 30 32 34 52 16 80 F8  ........s024R...
0B70: FF FF 7F F8 FF FF 7F 73  30 31 34 01 17 0C 02 09  .......s014.....
0B80: 10 25 80 00 A7 0B 52 16  80 F8 FF FF 7F F8 FF FF  .%....R.........
0B90: 7F 73 30 32 34 52 16 80  F8 FF FF 7F F8 FF FF 7F  .s024R..........
0BA0: 73 30 32 36 01 17 0C 02  09 10 26 80 00 D0 0B 52  s026......&....R
0BB0: 16 80 F8 FF FF 7F F8 FF  FF 7F 73 30 32 34 52 16  ..........s024R.
0BC0: 80 F8 FF FF 7F F8 FF FF  7F 73 30 32 36 01 17 0C  .........s026...
0BD0: 02 09 10 38 80 00 F9 0B  52 16 80 F8 FF FF 7F F8  ...8....R.......
0BE0: FF FF 7F 73 30 32 34 52  16 80 F8 FF FF 7F F8 FF  ...s024R........
0BF0: FF 7F 73 30 31 34 01 17  0C 52 16 80 F8 FF FF 7F  ..s014...R......
0C00: F8 FF FF 7F 73 30 30 33  52 16 80 F8 FF FF 7F F8  ....s003R.......
0C10: FF FF 7F 73 30 31 34 45  16 80 F8 FF FF 7F F8 FF  ...s014E........
0C20: FF 7F 73 30 31 35 01 80  29 08 10 E0 0E 01 39 2B  ..s015..).....9+
0C30: 10 E0 0E 01 40 80 23 29  08 10 E0 0E 01 3A 29 08  ....@.#).....:).
0C40: 10 E0 0E 01 01 2B 10 E0  0E 01 41 80 23 29 08 10  .....+....A.#)..
0C50: E0 0E 01 02 52 16 80 F8  FF FF 7F F8 FF FF 7F 73  ....R..........s
0C60: 30 31 35 45 16 80 F8 FF  FF 7F F8 FF FF 7F 73 30  015E..........s0
0C70: 31 39 01 80 7B 10 E0 0E  01 27 08 10 E0 0E 01 99  19..{....'......
0C80: 2B 10 E0 0E 01 42 80 1C  06 80 4A F0 FF FF 7F 10  +....B....J.....
0C90: E0 0E 01 6F 76 F0 FF FF  7F 23 2A 08 10 E0 0E 01  ...ov....#*.....
0CA0: 29 08 10 E0 0E 01 41 2B  10 E0 0E 01 43 80 23 29  ).....A+....C.#)
0CB0: 08 10 E0 0E 01 42 52 16  80 F8 FF FF 7F F8 FF FF  .....BR.........
0CC0: 7F 73 30 31 39 45 16 80  F8 FF FF 7F F8 FF FF 7F  .s019E..........
0CD0: 73 30 32 30 01 80 4A 10  E0 0E 01 F0 FF FF 7F 6F  s020..J........o
0CE0: 76 10 E0 0E 01 27 08 10  E0 0E 01 9A 2B 10 E0 0E  v....'......+...
0CF0: 01 44 80 1C 06 80 23 4A  F0 FF FF 7F 10 E0 0E 01  .D....#J........
0D00: 29 08 10 E0 0E 01 39 2B  10 E0 0E 01 45 80 23 29  ).....9+....E.#)
0D10: 08 10 E0 0E 01 3A 6F 76  F0 FF FF 7F 2A 08 10 E0  .....:ov....*...
0D20: 0E 01 52 16 80 F8 FF FF  7F F8 FF FF 7F 73 30 32  ..R..........s02
0D30: 30 02 09 10 25 80 00 4D  0D 45 16 80 F8 FF FF 7F  0...%..M.E......
0D40: F8 FF FF 7F 73 30 32 36  01 80 01 7A 0D 02 09 10  ....s026...z....
0D50: 26 80 00 69 0D 45 16 80  F8 FF FF 7F F8 FF FF 7F  &..i.E..........
0D60: 73 30 32 36 01 80 01 7A  0D 45 16 80 F8 FF FF 7F  s026...z.E......
0D70: F8 FF FF 7F 73 30 31 34  01 80 4A F0 FF FF 7F 10  ....s014..J.....
0D80: E0 0E 01 4A 10 E0 0E 01  F0 FF FF 7F 6F 76 10 E0  ...J........ov..
0D90: 0E 01 6F 76 F0 FF FF 7F  79 00 10 E0 0E 01 F0 FF  ..ov....y.......
0DA0: FF 7F 01 D1 10 02 00 10  05 80 00 D1 10 29 08 F0  .............)..
0DB0: FF FF 7F 81 4A 10 E0 0E  01 F0 FF FF 7F 6F 76 10  ....J........ov.
0DC0: E0 0E 01 1C 04 80 02 03  00 03 80 00 DA 0D 29 08  ..............).
0DD0: 10 E0 0E 01 11 03 03 00  01 80 02 09 10 05 80 00  ................
0DE0: 03 0E 52 16 80 F8 FF FF  7F F8 FF FF 7F 73 30 32  ..R..........s02
0DF0: 34 52 16 80 F8 FF FF 7F  F8 FF FF 7F 73 30 31 34  4R..........s014
0E00: 01 9C 0E 02 09 10 25 80  00 2C 0E 52 16 80 F8 FF  ......%..,.R....
0E10: FF 7F F8 FF FF 7F 73 30  32 34 52 16 80 F8 FF FF  ......s024R.....
0E20: 7F F8 FF FF 7F 73 30 32  36 01 9C 0E 02 09 10 26  .....s026......&
0E30: 80 00 55 0E 52 16 80 F8  FF FF 7F F8 FF FF 7F 73  ..U.R..........s
0E40: 30 32 34 52 16 80 F8 FF  FF 7F F8 FF FF 7F 73 30  024R..........s0
0E50: 32 36 01 9C 0E 02 09 10  38 80 00 7E 0E 52 16 80  26......8..~.R..
0E60: F8 FF FF 7F F8 FF FF 7F  73 30 32 34 52 16 80 F8  ........s024R...
0E70: FF FF 7F F8 FF FF 7F 73  30 31 34 01 9C 0E 52 16  .......s014...R.
0E80: 80 F8 FF FF 7F F8 FF FF  7F 73 30 30 33 52 16 80  .........s003R..
0E90: F8 FF FF 7F F8 FF FF 7F  73 30 31 34 02 09 10 25  ........s014...%
0EA0: 80 00 B8 0E 45 16 80 F8  FF FF 7F F8 FF FF 7F 73  ....E..........s
0EB0: 30 32 35 01 80 01 E5 0E  02 09 10 26 80 00 D4 0E  025........&....
0EC0: 45 16 80 F8 FF FF 7F F8  FF FF 7F 73 30 32 35 01  E..........s025.
0ED0: 80 01 E5 0E 45 16 80 F8  FF FF 7F F8 FF FF 7F 73  ....E..........s
0EE0: 30 31 32 01 80 29 08 10  E0 0E 01 21 2B 10 E0 0E  012..).....!+...
0EF0: 01 46 80 23 29 08 10 E0  0E 01 22 02 09 10 25 80  .F.#)....."...%.
0F00: 00 15 0F 52 16 80 F8 FF  FF 7F F8 FF FF 7F 73 30  ...R..........s0
0F10: 32 35 01 3E 0F 02 09 10  26 80 00 2F 0F 52 16 80  25.>....&../.R..
0F20: F8 FF FF 7F F8 FF FF 7F  73 30 32 35 01 3E 0F 52  ........s025.>.R
0F30: 16 80 F8 FF FF 7F F8 FF  FF 7F 73 30 31 32 02 09  ..........s012..
0F40: 10 25 80 00 5A 0F 45 16  80 F8 FF FF 7F F8 FF FF  .%..Z.E.........
0F50: 7F 73 30 32 38 01 80 01  87 0F 02 09 10 26 80 00  .s028........&..
0F60: 76 0F 45 16 80 F8 FF FF  7F F8 FF FF 7F 73 30 32  v.E..........s02
0F70: 38 01 80 01 87 0F 45 16  80 F8 FF FF 7F F8 FF FF  8.....E.........
0F80: 7F 73 30 31 37 01 80 29  08 10 E0 0E 01 23 2B 10  .s017..).....#+.
0F90: E0 0E 01 47 80 23 29 08  10 E0 0E 01 24 2C 10 E2  ...G.#).....$,..
0FA0: 0E 01 10 E2 0E 01 77 6F  6E 34 5B 48 80 10 E2 0E  ......won4[H....
0FB0: 01 10 E2 0E 01 62 6F 61  30 29 08 10 E0 0E 01 01  .....boa0)......
0FC0: 2B 10 E0 0E 01 49 80 23  53 10 E2 0E 01 10 E2 0E  +....I.#S.......
0FD0: 01 62 6F 61 30 1A 64 00  02 09 10 25 80 00 F2 0F  .boa0.d....%....
0FE0: 52 16 80 F8 FF FF 7F F8  FF FF 7F 73 30 32 38 01  R..........s028.
0FF0: 1B 10 02 09 10 26 80 00  0C 10 52 16 80 F8 FF FF  .....&....R.....
1000: 7F F8 FF FF 7F 73 30 32  38 01 1B 10 52 16 80 F8  .....s028...R...
1010: FF FF 7F F8 FF FF 7F 73  30 31 37 29 08 10 E0 0E  .......s017)....
1020: 01 02 45 16 80 F8 FF FF  7F F8 FF FF 7F 73 30 32  ..E..........s02
1030: 31 01 80 45 16 80 F8 FF  FF 7F F8 FF FF 7F 7A 30  1..E..........z0
1040: 30 32 01 80 1A 43 00 2B  10 E0 0E 01 4A 80 23 5B  02...C.+....J.#[
1050: 48 80 10 E2 0E 01 10 E2  0E 01 62 6F 62 30 2B 10  H.........bob0+.
1060: E0 0E 01 4B 80 23 1A 64  00 52 16 80 F8 FF FF 7F  ...K.#.d.R......
1070: F8 FF FF 7F 73 30 32 31  02 09 10 25 80 00 94 10  ....s021...%....
1080: 45 16 80 F8 FF FF 7F F8  FF FF 7F 73 30 32 36 01  E..........s026.
1090: 80 01 C1 10 02 09 10 26  80 00 B0 10 45 16 80 F8  .......&....E...
10A0: FF FF 7F F8 FF FF 7F 73  30 32 36 01 80 01 C1 10  .......s026.....
10B0: 45 16 80 F8 FF FF 7F F8  FF FF 7F 73 30 31 34 01  E..........s014.
10C0: 80 79 00 10 E0 0E 01 F0  FF FF 7F 1A 43 00 01 D1  .y..........C...
10D0: 10 3C 04 00 00 10 03 80  01 CD 08 5D 01 80 1B 80  .<.........]....
10E0: 29 08 10 E0 0E 01 27 2B  10 E0 0E 01 4C 80 23 29  ).....'+....L.#)
10F0: 08 10 E0 0E 01 28 02 09  10 25 80 00 10 11 52 16  .....(...%....R.
1100: 80 F8 FF FF 7F F8 FF FF  7F 73 30 32 36 01 39 11  .........s026.9.
1110: 02 09 10 26 80 00 2A 11  52 16 80 F8 FF FF 7F F8  ...&..*.R.......
1120: FF FF 7F 73 30 32 36 01  39 11 52 16 80 F8 FF FF  ...s026.9.R.....
1130: 7F F8 FF FF 7F 73 30 31  34 45 16 80 F8 FF FF 7F  .....s014E......
1140: F8 FF FF 7F 73 30 31 38  01 80 29 08 10 E0 0E 01  ....s018..).....
1150: 23 2B 10 E0 0E 01 4D 80  23 29 08 10 E0 0E 01 24  #+....M.#).....$
1160: 52 16 80 F8 FF FF 7F F8  FF FF 7F 73 30 31 38 02  R..........s018.
1170: 09 10 25 80 00 8B 11 45  16 80 F8 FF FF 7F F8 FF  ..%....E........
1180: FF 7F 73 30 32 37 01 80  01 B8 11 02 09 10 26 80  ..s027........&.
1190: 00 A7 11 45 16 80 F8 FF  FF 7F F8 FF FF 7F 73 30  ...E..........s0
11A0: 32 37 01 80 01 B8 11 45  16 80 F8 FF FF 7F F8 FF  27.....E........
11B0: FF 7F 73 30 31 36 01 80  29 08 10 E0 0E 01 41 2B  ..s016..).....A+
11C0: 10 E0 0E 01 4E 80 23 29  08 10 E0 0E 01 42 4A 10  ....N.#).....BJ.
11D0: E0 0E 01 F0 FF FF 7F 6F  76 10 E0 0E 01 29 08 10  .......ov....)..
11E0: E0 0E 01 01 2B 10 E0 0E  01 4F 80 23 29 08 10 E0  ....+....O.#)...
11F0: 0E 01 02 27 08 10 E0 0E  01 9B 1C 06 80 02 09 10  ...'............
1200: 25 80 00 17 12 52 16 80  F8 FF FF 7F F8 FF FF 7F  %....R..........
1210: 73 30 32 37 01 40 12 02  09 10 26 80 00 31 12 52  s027.@....&..1.R
1220: 16 80 F8 FF FF 7F F8 FF  FF 7F 73 30 32 37 01 40  ..........s027.@
1230: 12 52 16 80 F8 FF FF 7F  F8 FF FF 7F 73 30 31 36  .R..........s016
1240: 45 16 80 F8 FF FF 7F F8  FF FF 7F 73 30 32 32 01  E..........s022.
1250: 80 5C 00 50 80 5C 01 50  80 9A 5D 1D 80 03 80 2A  .\.P.\.P..]....*
1260: 08 10 E0 0E 01 29 08 10  E0 0E 01 43 2B 10 E0 0E  .....).....C+...
1270: 01 51 80 23 29 08 10 E0  0E 01 44 1A 64 00 1C 36  .Q.#).....D.d..6
1280: 80 52 16 80 F8 FF FF 7F  F8 FF FF 7F 73 30 32 32  .R..........s022
1290: 4E 01 DF E0 0E 01 4E 01  10 E2 0E 01 2F 01 DF E0  N.....N...../...
12A0: 0E 01 2F 01 10 E2 0E 01  AB 11 01 80 1C 03 80 46  ../............F
12B0: 00 45 00 80 F8 FF FF 7F  F8 FF FF 7F 66 64 69 32  .E..........fdi2
12C0: 01 80 21 00                                       ..!.            
```

#### Opcodes

```
  0: 0x0292 [0x42] SET_CLI_EVENT_CANCEL_DATA()
  1: 0x0293 [0x03] ExtData[1]->WorkLocal[2] = Work_Zone[3]
  2: 0x0298 [0x03] ExtData[1]->WorkLocal[3] = 0*
  3: 0x029D [0x1A] CALL_SUBROUTINE(address=0x0064)
  4: 0x02A0 [0x46] CAMERA_CONTROL: Disable user control
  5: 0x02A2 [0x38] SET_CLIENT_EVENT_MODE(mode=147*)
  6: 0x02A5 [0x02] IF !(Work_Zone[9] == 0*) GOTO 0x02B3
  7: 0x02AD [0x75] LOAD_ROOM(Load indoor room, room=394*)
  8: 0x02B1 [0x75] LOAD_ROOM(No action)
  9: 0x02B3 [0x2F] Talking Doll (ID: 17752287/0x010EE0DF)->Render.Flags0 &= ~0x80000 // Bit 19
 10: 0x02B9 [0x2F] Karaha-Baruha (ID: 17752592/0x010EE210)->Render.Flags0 &= ~0x80000 // Bit 19
 11: 0x02BF [0x4E] SET_ENTITY_HIDE_FLAG: Show Talking Doll (ID: 17752287/0x010EE0DF)
 12: 0x02C5 [0x4E] SET_ENTITY_HIDE_FLAG: Show Karaha-Baruha (ID: 17752592/0x010EE210)
 13: 0x02CB [0x92] Tosuka-Porika (ID: 17752080/0x010EE010)->Render.Flags3 ^= 0x01
 14: 0x02D1 [0x92] Furakku-Norakku (ID: 17752081/0x010EE011)->Render.Flags3 ^= 0x01
 15: 0x02D7 [0x92] Kotan-Moritan (ID: 17752082/0x010EE012)->Render.Flags3 ^= 0x01
 16: 0x02DD [0x92] Aora-Uora (ID: 17752083/0x010EE013)->Render.Flags3 ^= 0x01
 17: 0x02E3 [0x92] Talking Doll (ID: 17752287/0x010EE0DF)->Render.Flags3 ^= 0x01
 18: 0x02E9 [0x92] Karaha-Baruha (ID: 17752592/0x010EE210)->Render.Flags3 ^= 0x01
 19: 0x02EF [0x94] Tosuka-Porika (ID: 17752080/0x010EE010)->Render.Flags3 ^= 0x01
 20: 0x02F5 [0x94] Furakku-Norakku (ID: 17752081/0x010EE011)->Render.Flags3 ^= 0x01
 21: 0x02FB [0x94] Kotan-Moritan (ID: 17752082/0x010EE012)->Render.Flags3 ^= 0x01
 22: 0x0301 [0x94] Aora-Uora (ID: 17752083/0x010EE013)->Render.Flags3 ^= 0x01
 23: 0x0307 [0x94] LocalPlayer->Render.Flags3 ^= 0x01
 24: 0x030D [0x94] Talking Doll (ID: 17752287/0x010EE0DF)->Render.Flags3 ^= 0x01
 25: 0x0313 [0x94] Karaha-Baruha (ID: 17752592/0x010EE210)->Render.Flags3 ^= 0x01
 26: 0x0319 [0xBA] SET_ENTITY_POSITION(entity_id=LocalPlayer, pos_x=-26.088*, pos_z=102.467*, pos_y=-5.250*, direction=211.9°*)
 27: 0x0326 [0x59] UPDATE_ENTITY_DATA: Talking Doll (ID: 17752287/0x010EE0DF)->Render.Flags0 |= 0x200000
 28: 0x032D [0xBA] SET_ENTITY_POSITION(entity_id=Talking Doll (ID: 17752287/0x010EE0DF), pos_x=-32.501*, pos_z=79.224*, pos_y=-40.000*, direction=355.9°*)
 29: 0x033A [0x59] UPDATE_ENTITY_DATA: Talking Doll (ID: 17752287/0x010EE0DF)->Render.Flags0 |= 0x200000
 30: 0x0341 [0xBA] SET_ENTITY_POSITION(entity_id=Karaha-Baruha (ID: 17752592/0x010EE210), pos_x=-16.815*, pos_z=116.241*, pos_y=-6.249*, direction=347.9°*)
 31: 0x034E [0x29] REQ_SET_WAIT(priority=0x0F, entity_id=Door:Optistery (ID: 17752238/0x010EE0AE), tag_num=0x07)
 32: 0x0355 [0x80] LOAD_WAIT(entity=Tosuka-Porika (ID: 17752080/0x010EE010))
 33: 0x035A [0x80] LOAD_WAIT(entity=Furakku-Norakku (ID: 17752081/0x010EE011))
 34: 0x035F [0x80] LOAD_WAIT(entity=Kotan-Moritan (ID: 17752082/0x010EE012))
 35: 0x0364 [0x80] LOAD_WAIT(entity=Aora-Uora (ID: 17752083/0x010EE013))
 36: 0x0369 [0x80] LOAD_WAIT(entity=LocalPlayer)
 37: 0x036E [0x80] LOAD_WAIT(entity=Talking Doll (ID: 17752287/0x010EE0DF))
 38: 0x0373 [0x80] LOAD_WAIT(entity=Karaha-Baruha (ID: 17752592/0x010EE210))
 39: 0x0378 [0x4A] Aora-Uora (ID: 17752083/0x010EE013) looks at Kotan-Moritan (ID: 17752082/0x010EE012)
 40: 0x0381 [0x4A] Kotan-Moritan (ID: 17752082/0x010EE012) looks at Aora-Uora (ID: 17752083/0x010EE013)
 41: 0x038A [0x4A] LocalPlayer looks at Tosuka-Porika (ID: 17752080/0x010EE010)
 42: 0x0393 [0x4A] Tosuka-Porika (ID: 17752080/0x010EE010) looks at LocalPlayer
 43: 0x039C [0x6F] WAIT_FRAME_DELAY: Yield until WaitTime reaches zero
 44: 0x039D [0x76] CHECK_ENTITY_RENDER_FLAGS: Wait until Tosuka-Porika (ID: 17752080/0x010EE010) Render.Flags0 and Render.Flags3 conditions are met
 45: 0x03A2 [0x6F] WAIT_FRAME_DELAY: Yield until WaitTime reaches zero
 46: 0x03A3 [0x76] CHECK_ENTITY_RENDER_FLAGS: Wait until LocalPlayer Render.Flags0 and Render.Flags3 conditions are met
 47: 0x03A8 [0x6F] WAIT_FRAME_DELAY: Yield until WaitTime reaches zero
 48: 0x03A9 [0x76] CHECK_ENTITY_RENDER_FLAGS: Wait until Aora-Uora (ID: 17752083/0x010EE013) Render.Flags0 and Render.Flags3 conditions are met
 49: 0x03AE [0x6F] WAIT_FRAME_DELAY: Yield until WaitTime reaches zero
 50: 0x03AF [0x76] CHECK_ENTITY_RENDER_FLAGS: Wait until Kotan-Moritan (ID: 17752082/0x010EE012) Render.Flags0 and Render.Flags3 conditions are met
 51: 0x03B4 [0x29] REQ_SET_WAIT(priority=0x08, entity_id=LocalPlayer, tag_num=0x06)
 52: 0x03BB [0x29] REQ_SET_WAIT(priority=0x08, entity_id=Kotan-Moritan (ID: 17752082/0x010EE012), tag_num=0x01)
 53: 0x03C2 [0x45] LOAD_SCHEDULED_TASK: Load scheduler "s000" with entities [EventEntity, EventEntity], work=[838*, 0*]
 54: 0x03D3 [0x1A] CALL_SUBROUTINE(address=0x0043)
 55: 0x03D6 [0x27] REQ_SET(priority=0x0B, entity_id=Tosuka-Porika (ID: 17752080/0x010EE010), tag_num=0x97)
 56: 0x03DD [0x03] Work_Zone[2] = 3229*
 57: 0x03E2 [0x2B] Tosuka-Porika (ID: 17752080/0x010EE010) [17537*]:
    → "Hrm. What's that you have there? It couldn't be...$6?"
 58: 0x03E9 [0x2A] GET_REQ_LEVEL(level=11, entity_id=Tosuka-Porika (ID: 17752080/0x010EE010))
 59: 0x03EF [0x23] WAIT_FOR_DIALOG_INTERACTION
 60: 0x03F0 [0x02] IF !(ExtData[1]->WorkLocal[2] == 1*) GOTO 0x044E
 61: 0x03F8 [0x52] END_LOAD_SCHEDULER: End scheduler "s000" with entities [EventEntity, EventEntity], work=838*
 62: 0x0407 [0x45] LOAD_SCHEDULED_TASK: Load scheduler "s005" with entities [EventEntity, EventEntity], work=[838*, 0*]
 63: 0x0418 [0x29] REQ_SET_WAIT(priority=0x08, entity_id=Tosuka-Porika (ID: 17752080/0x010EE010), tag_num=0x27)
 64: 0x041F [0x2B] Tosuka-Porika (ID: 17752080/0x010EE010) [17538*]:
    → "Hrmmm. How could someone not of our fair federation-wation come into possession of such a missive?"
 65: 0x0426 [0x23] WAIT_FOR_DIALOG_INTERACTION
 66: 0x0427 [0x29] REQ_SET_WAIT(priority=0x08, entity_id=Tosuka-Porika (ID: 17752080/0x010EE010), tag_num=0x28)
 67: 0x042E [0x52] END_LOAD_SCHEDULER: End scheduler "s005" with entities [EventEntity, EventEntity], work=838*
 68: 0x043D [0x45] LOAD_SCHEDULED_TASK: Load scheduler "s006" with entities [EventEntity, EventEntity], work=[838*, 0*]
 69: 0x044E [0x29] REQ_SET_WAIT(priority=0x08, entity_id=Tosuka-Porika (ID: 17752080/0x010EE010), tag_num=0x43)
 70: 0x0455 [0x27] REQ_SET(priority=0x08, entity_id=LocalPlayer, tag_num=0x80)
 71: 0x045C [0x1C] WAIT(80* ticks)
 72: 0x045F [0x5D] SET_MUSIC_VOLUME(volume=0*, fade_time=300*)
 73: 0x0464 [0x1A] CALL_SUBROUTINE(address=0x0064)
 74: 0x0467 [0x2A] GET_REQ_LEVEL(level=8, entity_id=LocalPlayer)
 75: 0x046D [0x52] END_LOAD_SCHEDULER: End scheduler "s000" with entities [EventEntity, EventEntity], work=838*
 76: 0x047C [0x52] END_LOAD_SCHEDULER: End scheduler "s006" with entities [EventEntity, EventEntity], work=838*
 77: 0x048B [0x7B] Tosuka-Porika (ID: 17752080/0x010EE010) stops talking
 78: 0x0490 [0x4B] UPDATE_ENTITY_YAW(entity=Tosuka-Porika (ID: 17752080/0x010EE010), yaw=8.2°*)
 79: 0x0497 [0x6F] WAIT_FRAME_DELAY: Yield until WaitTime reaches zero
 80: 0x0498 [0x76] CHECK_ENTITY_RENDER_FLAGS: Wait until Tosuka-Porika (ID: 17752080/0x010EE010) Render.Flags0 and Render.Flags3 conditions are met
 81: 0x049D [0x29] REQ_SET_WAIT(priority=0x08, entity_id=Tosuka-Porika (ID: 17752080/0x010EE010), tag_num=0x21)
 82: 0x04A4 [0x29] REQ_SET_WAIT(priority=0x08, entity_id=Tosuka-Porika (ID: 17752080/0x010EE010), tag_num=0x22)
 83: 0x04AB [0x5C] MUSIC_CONTROL: Set Idle (Day) music to song 127*
 84: 0x04AF [0x5C] MUSIC_CONTROL: Set Idle (Night) music to song 127*
 85: 0x04B3 [0x9A] WAIT_MUSIC_SERVER()
 86: 0x04B4 [0x5D] SET_MUSIC_VOLUME(volume=127*, fade_time=1*)
 87: 0x04B9 [0x45] LOAD_SCHEDULED_TASK: Load scheduler "s001" with entities [EventEntity, EventEntity], work=[838*, 0*]
 88: 0x04CA [0x1A] CALL_SUBROUTINE(address=0x0043)
 89: 0x04CD [0x2B] Tosuka-Porika (ID: 17752080/0x010EE010) [17539*]:
    → "Hrm. Hrmmm... Hrmmmmmm!"
 90: 0x04D4 [0x23] WAIT_FOR_DIALOG_INTERACTION
 91: 0x04D5 [0x29] REQ_SET_WAIT(priority=0x08, entity_id=Tosuka-Porika (ID: 17752080/0x010EE010), tag_num=0x23)
 92: 0x04DC [0x2B] Tosuka-Porika (ID: 17752080/0x010EE010) [17540*]:
    → "The indignity of someone rushing into the Doll Chamber-Wamber and making off with something so precious!"
 93: 0x04E3 [0x23] WAIT_FOR_DIALOG_INTERACTION
 94: 0x04E4 [0x29] REQ_SET_WAIT(priority=0x08, entity_id=Tosuka-Porika (ID: 17752080/0x010EE010), tag_num=0x24)
 95: 0x04EB [0x27] REQ_SET(priority=0x0B, entity_id=Tosuka-Porika (ID: 17752080/0x010EE010), tag_num=0x98)
 96: 0x04F2 [0x1C] WAIT(30* ticks)
 97: 0x04F5 [0x52] END_LOAD_SCHEDULER: End scheduler "s001" with entities [EventEntity, EventEntity], work=838*
 98: 0x0504 [0x45] LOAD_SCHEDULED_TASK: Load scheduler "s002" with entities [EventEntity, EventEntity], work=[838*, 0*]
 99: 0x0515 [0x2B] Tosuka-Porika (ID: 17752080/0x010EE010) [17541*]:
    → "Whatever is the world coming to!?"
100: 0x051C [0x1C] WAIT(30* ticks)
101: 0x051F [0x4A] LocalPlayer looks at Tosuka-Porika (ID: 17752080/0x010EE010)
102: 0x0528 [0x6F] WAIT_FRAME_DELAY: Yield until WaitTime reaches zero
103: 0x0529 [0x76] CHECK_ENTITY_RENDER_FLAGS: Wait until LocalPlayer Render.Flags0 and Render.Flags3 conditions are met
104: 0x052E [0x23] WAIT_FOR_DIALOG_INTERACTION
105: 0x052F [0x2A] GET_REQ_LEVEL(level=11, entity_id=Tosuka-Porika (ID: 17752080/0x010EE010))
106: 0x0535 [0x29] REQ_SET_WAIT(priority=0x08, entity_id=Tosuka-Porika (ID: 17752080/0x010EE010), tag_num=0x41)
107: 0x053C [0x2B] Tosuka-Porika (ID: 17752080/0x010EE010) [17542*]:
    → "This star-crested summons must be of great importaru indeed."
108: 0x0543 [0x23] WAIT_FOR_DIALOG_INTERACTION
109: 0x0544 [0x29] REQ_SET_WAIT(priority=0x08, entity_id=Tosuka-Porika (ID: 17752080/0x010EE010), tag_num=0x42)
110: 0x054B [0x52] END_LOAD_SCHEDULER: End scheduler "s002" with entities [EventEntity, EventEntity], work=838*
111: 0x055A [0x45] LOAD_SCHEDULED_TASK: Load scheduler "s004" with entities [EventEntity, EventEntity], work=[838*, 0*]
112: 0x056B [0x4A] LocalPlayer looks at Tosuka-Porika (ID: 17752080/0x010EE010)
113: 0x0574 [0x4B] UPDATE_ENTITY_YAW(entity=Tosuka-Porika (ID: 17752080/0x010EE010), yaw=357.3°*)
114: 0x057B [0x6F] WAIT_FRAME_DELAY: Yield until WaitTime reaches zero
115: 0x057C [0x76] CHECK_ENTITY_RENDER_FLAGS: Wait until Tosuka-Porika (ID: 17752080/0x010EE010) Render.Flags0 and Render.Flags3 conditions are met
116: 0x0581 [0x29] REQ_SET_WAIT(priority=0x08, entity_id=Tosuka-Porika (ID: 17752080/0x010EE010), tag_num=0x27)
117: 0x0588 [0x2B] Tosuka-Porika (ID: 17752080/0x010EE010) [17543*]:
    → "I cannot avertaru my gaze from such a crime! As the Optistery's tippity-top official, I must take action-waction."
118: 0x058F [0x23] WAIT_FOR_DIALOG_INTERACTION
119: 0x0590 [0x29] REQ_SET_WAIT(priority=0x08, entity_id=Tosuka-Porika (ID: 17752080/0x010EE010), tag_num=0x28)
120: 0x0597 [0x29] REQ_SET_WAIT(priority=0x08, entity_id=Tosuka-Porika (ID: 17752080/0x010EE010), tag_num=0x21)
121: 0x059E [0x2B] Tosuka-Porika (ID: 17752080/0x010EE010) [17544*]:
    → "Should the Optistery turn its back on ills befalling Windurstaru, our standing would surely fall."
122: 0x05A5 [0x23] WAIT_FOR_DIALOG_INTERACTION
123: 0x05A6 [0x6F] WAIT_FRAME_DELAY: Yield until WaitTime reaches zero
124: 0x05A7 [0x76] CHECK_ENTITY_RENDER_FLAGS: Wait until LocalPlayer Render.Flags0 and Render.Flags3 conditions are met
125: 0x05AC [0x52] END_LOAD_SCHEDULER: End scheduler "s004" with entities [EventEntity, EventEntity], work=838*
126: 0x05BB [0x02] IF !(Work_Zone[9] == 5*) GOTO 0x05D7
127: 0x05C3 [0x45] LOAD_SCHEDULED_TASK: Load scheduler "s023" with entities [EventEntity, EventEntity], work=[838*, 0*]
128: 0x05D4 [0x01] GOTO 0x0604
129: 0x05D7 [0x02] IF !(Work_Zone[9] == 6*) GOTO 0x05F3
130: 0x05DF [0x45] LOAD_SCHEDULED_TASK: Load scheduler "s023" with entities [EventEntity, EventEntity], work=[838*, 0*]
131: 0x05F0 [0x01] GOTO 0x0604
132: 0x05F3 [0x45] LOAD_SCHEDULED_TASK: Load scheduler "s009" with entities [EventEntity, EventEntity], work=[838*, 0*]

SUBROUTINE_0604:
133: 0x0604 [0x29] REQ_SET_WAIT(priority=0x08, entity_id=Tosuka-Porika (ID: 17752080/0x010EE010), tag_num=0x22)
134: 0x060B [0x29] REQ_SET_WAIT(priority=0x08, entity_id=Tosuka-Porika (ID: 17752080/0x010EE010), tag_num=0x23)
135: 0x0612 [0x29] REQ_SET_WAIT(priority=0x08, entity_id=Tosuka-Porika (ID: 17752080/0x010EE010), tag_num=0x24)
136: 0x0619 [0x4A] Tosuka-Porika (ID: 17752080/0x010EE010) looks at LocalPlayer
137: 0x0622 [0x6F] WAIT_FRAME_DELAY: Yield until WaitTime reaches zero
138: 0x0623 [0x76] CHECK_ENTITY_RENDER_FLAGS: Wait until Tosuka-Porika (ID: 17752080/0x010EE010) Render.Flags0 and Render.Flags3 conditions are met
139: 0x0628 [0x29] REQ_SET_WAIT(priority=0x08, entity_id=Tosuka-Porika (ID: 17752080/0x010EE010), tag_num=0x01)
140: 0x062F [0x2B] Tosuka-Porika (ID: 17752080/0x010EE010) [17545*]:
    → "Adventurer, what I am about to tell-well you must not leave these hallowed halls."
141: 0x0636 [0x23] WAIT_FOR_DIALOG_INTERACTION
142: 0x0637 [0x1C] WAIT(10* ticks)
143: 0x063A [0x02] IF !(Work_Zone[9] == 5*) GOTO 0x0654
144: 0x0642 [0x52] END_LOAD_SCHEDULER: End scheduler "s023" with entities [EventEntity, EventEntity], work=838*
145: 0x0651 [0x01] GOTO 0x067D
146: 0x0654 [0x02] IF !(Work_Zone[9] == 6*) GOTO 0x066E
147: 0x065C [0x52] END_LOAD_SCHEDULER: End scheduler "s023" with entities [EventEntity, EventEntity], work=838*
148: 0x066B [0x01] GOTO 0x067D
149: 0x066E [0x52] END_LOAD_SCHEDULER: End scheduler "s009" with entities [EventEntity, EventEntity], work=838*

SUBROUTINE_067D:
150: 0x067D [0x45] LOAD_SCHEDULED_TASK: Load scheduler "s007" with entities [EventEntity, EventEntity], work=[838*, 0*]
151: 0x068E [0x2B] Tosuka-Porika (ID: 17752080/0x010EE010) [17546*]:
    → "When I was but a nameless scribe, Karuha-Baruha, former head of the Optistery, mentioned the existence of the Doll Chamber-Wamber to me."
152: 0x0695 [0x1C] WAIT(30* ticks)
153: 0x0698 [0x29] REQ_SET_WAIT(priority=0x08, entity_id=Aora-Uora (ID: 17752083/0x010EE013), tag_num=0x03)
154: 0x069F [0x23] WAIT_FOR_DIALOG_INTERACTION
155: 0x06A0 [0x29] REQ_SET_WAIT(priority=0x08, entity_id=Kotan-Moritan (ID: 17752082/0x010EE012), tag_num=0x02)
156: 0x06A7 [0x29] REQ_SET_WAIT(priority=0x08, entity_id=Aora-Uora (ID: 17752083/0x010EE013), tag_num=0x04)
157: 0x06AE [0x29] REQ_SET_WAIT(priority=0x08, entity_id=Aora-Uora (ID: 17752083/0x010EE013), tag_num=0x01)
158: 0x06B5 [0x2B] Tosuka-Porika (ID: 17752080/0x010EE010) [17547*]:
    → "Great mages who have long since passed on left behind a magic homunculus of sorts, which we kept locked safe in the Doll Chamber."
159: 0x06BC [0x23] WAIT_FOR_DIALOG_INTERACTION
160: 0x06BD [0x29] REQ_SET_WAIT(priority=0x08, entity_id=Kotan-Moritan (ID: 17752082/0x010EE012), tag_num=0x01)
161: 0x06C4 [0x2B] Tosuka-Porika (ID: 17752080/0x010EE010) [17548*]:
    → "When they walked Vana'diel, they had been charged with creating such specimen-wecimens and delivering them to Heavens Tower. A symbolic ritual, if you will."
162: 0x06CB [0x23] WAIT_FOR_DIALOG_INTERACTION
163: 0x06CC [0x29] REQ_SET_WAIT(priority=0x08, entity_id=Tosuka-Porika (ID: 17752080/0x010EE010), tag_num=0x02)
164: 0x06D3 [0x45] LOAD_SCHEDULED_TASK: Load scheduler "fdo1" with entities [EventEntity, EventEntity], work=[200*, 0*]
165: 0x06E4 [0xC5] LOAD_SCHEDULED_TASK_ALT3: Load scheduler 0x80013030 for entities [Talking Doll (ID: 17752287/0x010EE0DF), Talking Doll (ID: 17752287/0x010EE0DF)], work=213*, param=12403
166: 0x06F5 [0x1C] WAIT(30* ticks)
167: 0x06F8 [0x52] END_LOAD_SCHEDULER: End scheduler "s007" with entities [EventEntity, EventEntity], work=838*
168: 0x0707 [0x45] LOAD_SCHEDULED_TASK: Load scheduler "s011" with entities [EventEntity, EventEntity], work=[838*, 0*]
169: 0x0718 [0x45] LOAD_SCHEDULED_TASK: Load scheduler "fdi1" with entities [EventEntity, EventEntity], work=[200*, 0*]
170: 0x0729 [0x2B] Tosuka-Porika (ID: 17752080/0x010EE010) [17549*]:
    → "I say "symbolic," because it turns out that's all the gesture-westures amounted to--the homunculi were to be called upon in case a great tragedy befell Windurst. Fortunately, we have not had to use them as of yet."
171: 0x0730 [0x23] WAIT_FOR_DIALOG_INTERACTION
172: 0x0731 [0x9F] LOAD_SCHEDULED_TASK_ALT: Load scheduler "main" with entities [Talking Doll (ID: 17752287/0x010EE0DF), Talking Doll (ID: 17752287/0x010EE0DF)], work=[14*, 0*]
173: 0x0742 [0x29] REQ_SET_WAIT(priority=0x08, entity_id=Talking Doll (ID: 17752287/0x010EE0DF), tag_num=0x0C)
174: 0x0749 [0x2B] Tosuka-Porika (ID: 17752080/0x010EE010) [17550*]:
    → "Their stated purpose was to help locataru the great mages should they ever go missing and we needed to call upon their power."
175: 0x0750 [0x1C] WAIT(250* ticks)
176: 0x0753 [0x45] LOAD_SCHEDULED_TASK: Load scheduler "fdo1" with entities [EventEntity, EventEntity], work=[200*, 0*]
177: 0x0764 [0x1C] WAIT(60* ticks)
178: 0x0767 [0x23] WAIT_FOR_DIALOG_INTERACTION
179: 0x0768 [0xC5] LOAD_SCHEDULED_TASK_ALT3: Load scheduler 0x8001306C for entities [Talking Doll (ID: 17752287/0x010EE0DF), Talking Doll (ID: 17752287/0x010EE0DF)], work=213*, param=26987
180: 0x0779 [0x1C] WAIT(100* ticks)
181: 0x077C [0x52] END_LOAD_SCHEDULER: End scheduler "s011" with entities [EventEntity, EventEntity], work=838*
182: 0x078B [0x45] LOAD_SCHEDULED_TASK: Load scheduler "s008" with entities [EventEntity, EventEntity], work=[838*, 0*]
183: 0x079C [0x45] LOAD_SCHEDULED_TASK: Load scheduler "fdi1" with entities [EventEntity, EventEntity], work=[200*, 0*]
184: 0x07AD [0x29] REQ_SET_WAIT(priority=0x08, entity_id=Tosuka-Porika (ID: 17752080/0x010EE010), tag_num=0x01)
185: 0x07B4 [0x2B] Tosuka-Porika (ID: 17752080/0x010EE010) [17551*]:
    → "The tale might stop there, were that the only thing they could be used for...but we discovered a far more sinister use."
186: 0x07BB [0x23] WAIT_FOR_DIALOG_INTERACTION
187: 0x07BC [0x29] REQ_SET_WAIT(priority=0x08, entity_id=Tosuka-Porika (ID: 17752080/0x010EE010), tag_num=0x02)
188: 0x07C3 [0x29] REQ_SET_WAIT(priority=0x08, entity_id=Tosuka-Porika (ID: 17752080/0x010EE010), tag_num=0x27)
189: 0x07CA [0x2B] Tosuka-Porika (ID: 17752080/0x010EE010) [17552*]:
    → "In years past, the Sibyl of the age decided that we must neither dispose of them nor burn them to a crisp..."
190: 0x07D1 [0x23] WAIT_FOR_DIALOG_INTERACTION
191: 0x07D2 [0x29] REQ_SET_WAIT(priority=0x08, entity_id=Tosuka-Porika (ID: 17752080/0x010EE010), tag_num=0x28)
192: 0x07D9 [0x29] REQ_SET_WAIT(priority=0x08, entity_id=Talking Doll (ID: 17752287/0x010EE0DF), tag_num=0x0D)
193: 0x07E0 [0x1A] CALL_SUBROUTINE(address=0x0064)
194: 0x07E3 [0x52] END_LOAD_SCHEDULER: End scheduler "s008" with entities [EventEntity, EventEntity], work=838*
195: 0x07F2 [0x2B] Tosuka-Porika (ID: 17752080/0x010EE010) [17553*]:
    → "And truth be told, I think most of us wanted them sealed away forever, hoping-woping that their existence be banished even from the annals of memory."
196: 0x07F9 [0x23] WAIT_FOR_DIALOG_INTERACTION
197: 0x07FA [0x7B] Tosuka-Porika (ID: 17752080/0x010EE010) stops talking
198: 0x07FF [0x27] REQ_SET(priority=0x08, entity_id=Tosuka-Porika (ID: 17752080/0x010EE010), tag_num=0x10)
199: 0x0806 [0x1C] WAIT(15* ticks)
200: 0x0809 [0x45] LOAD_SCHEDULED_TASK: Load scheduler "s010" with entities [EventEntity, EventEntity], work=[838*, 0*]
201: 0x081A [0x1A] CALL_SUBROUTINE(address=0x0043)
202: 0x081D [0x2A] GET_REQ_LEVEL(level=8, entity_id=Tosuka-Porika (ID: 17752080/0x010EE010))
203: 0x0823 [0x03] ExtData[1]->WorkLocal[3] = 1*
204: 0x0828 [0x2B] Tosuka-Porika (ID: 17752080/0x010EE010) [17554*]:
    → "But the Yagudo managed to steal one of them from us."
205: 0x082F [0x23] WAIT_FOR_DIALOG_INTERACTION
206: 0x0830 [0x52] END_LOAD_SCHEDULER: End scheduler "s010" with entities [EventEntity, EventEntity], work=838*
207: 0x083F [0x02] IF !(Work_Zone[9] == 2*) GOTO 0x085B
208: 0x0847 [0x45] LOAD_SCHEDULED_TASK: Load scheduler "s024" with entities [EventEntity, EventEntity], work=[838*, 0*]
209: 0x0858 [0x01] GOTO 0x08C0
210: 0x085B [0x02] IF !(Work_Zone[9] == 5*) GOTO 0x0877
211: 0x0863 [0x45] LOAD_SCHEDULED_TASK: Load scheduler "s024" with entities [EventEntity, EventEntity], work=[838*, 0*]
212: 0x0874 [0x01] GOTO 0x08C0
213: 0x0877 [0x02] IF !(Work_Zone[9] == 6*) GOTO 0x0893
214: 0x087F [0x45] LOAD_SCHEDULED_TASK: Load scheduler "s024" with entities [EventEntity, EventEntity], work=[838*, 0*]
215: 0x0890 [0x01] GOTO 0x08C0
216: 0x0893 [0x02] IF !(Work_Zone[9] == 7*) GOTO 0x08AF
217: 0x089B [0x45] LOAD_SCHEDULED_TASK: Load scheduler "s024" with entities [EventEntity, EventEntity], work=[838*, 0*]
218: 0x08AC [0x01] GOTO 0x08C0
219: 0x08AF [0x45] LOAD_SCHEDULED_TASK: Load scheduler "s003" with entities [EventEntity, EventEntity], work=[838*, 0*]

SUBROUTINE_08C0:
220: 0x08C0 [0x2B] Tosuka-Porika (ID: 17752080/0x010EE010) [17555*]:
    → "And the one they have in their clutches is the most fearsome of all...the homunculus created by the Maelstrom Mage, Garazu-Horeizu."
221: 0x08C7 [0x23] WAIT_FOR_DIALOG_INTERACTION
222: 0x08C8 [0x03] ExtData[1]->WorkLocal[4] = 0*

SUBROUTINE_08CD:
223: 0x08CD [0x02] IF !(ExtData[1]->WorkLocal[4] == 7*) GOTO 0x10DB
224: 0x08D5 [0x24] CREATE_DIALOG(message_id=17556*, default_option=0*, option_flags=ExtData[1]->WorkLocal[4])
    → "Inquire about what? [Who is Garazu-Horeizu?/What did he do?/What happened to him?]"
225: 0x08DC [0x25] WAIT_DIALOG_SELECT()
226: 0x08DD [0x02] IF !(Work_Zone[0] == 0*) GOTO 0x0B20
227: 0x08E5 [0x29] REQ_SET_WAIT(priority=0x08, entity_id=LocalPlayer, tag_num=0x81)
228: 0x08EC [0x4A] Tosuka-Porika (ID: 17752080/0x010EE010) looks at LocalPlayer
229: 0x08F5 [0x6F] WAIT_FRAME_DELAY: Yield until WaitTime reaches zero
230: 0x08F6 [0x76] CHECK_ENTITY_RENDER_FLAGS: Wait until Tosuka-Porika (ID: 17752080/0x010EE010) Render.Flags0 and Render.Flags3 conditions are met
231: 0x08FB [0x1C] WAIT(45* ticks)
232: 0x08FE [0x02] IF !(ExtData[1]->WorkLocal[3] == 1*) GOTO 0x0912
233: 0x0906 [0x29] REQ_SET_WAIT(priority=0x08, entity_id=Tosuka-Porika (ID: 17752080/0x010EE010), tag_num=0x11)
234: 0x090D [0x03] ExtData[1]->WorkLocal[3] = 0*
235: 0x0912 [0x1C] WAIT(20* ticks)
236: 0x0915 [0x02] IF !(Work_Zone[9] == 2*) GOTO 0x093E
237: 0x091D [0x52] END_LOAD_SCHEDULER: End scheduler "s024" with entities [EventEntity, EventEntity], work=838*
238: 0x092C [0x52] END_LOAD_SCHEDULER: End scheduler "s014" with entities [EventEntity, EventEntity], work=838*
239: 0x093B [0x01] GOTO 0x09D7
240: 0x093E [0x02] IF !(Work_Zone[9] == 5*) GOTO 0x0967
241: 0x0946 [0x52] END_LOAD_SCHEDULER: End scheduler "s024" with entities [EventEntity, EventEntity], work=838*
242: 0x0955 [0x52] END_LOAD_SCHEDULER: End scheduler "s026" with entities [EventEntity, EventEntity], work=838*
243: 0x0964 [0x01] GOTO 0x09D7
244: 0x0967 [0x02] IF !(Work_Zone[9] == 6*) GOTO 0x0990
245: 0x096F [0x52] END_LOAD_SCHEDULER: End scheduler "s024" with entities [EventEntity, EventEntity], work=838*
246: 0x097E [0x52] END_LOAD_SCHEDULER: End scheduler "s026" with entities [EventEntity, EventEntity], work=838*
247: 0x098D [0x01] GOTO 0x09D7
248: 0x0990 [0x02] IF !(Work_Zone[9] == 7*) GOTO 0x09B9
249: 0x0998 [0x52] END_LOAD_SCHEDULER: End scheduler "s024" with entities [EventEntity, EventEntity], work=838*
250: 0x09A7 [0x52] END_LOAD_SCHEDULER: End scheduler "s014" with entities [EventEntity, EventEntity], work=838*
251: 0x09B6 [0x01] GOTO 0x09D7
252: 0x09B9 [0x52] END_LOAD_SCHEDULER: End scheduler "s003" with entities [EventEntity, EventEntity], work=838*
253: 0x09C8 [0x52] END_LOAD_SCHEDULER: End scheduler "s014" with entities [EventEntity, EventEntity], work=838*

SUBROUTINE_09D7:
254: 0x09D7 [0x02] IF !(Work_Zone[9] == 5*) GOTO 0x09F3
255: 0x09DF [0x45] LOAD_SCHEDULED_TASK: Load scheduler "s025" with entities [EventEntity, EventEntity], work=[838*, 0*]
256: 0x09F0 [0x01] GOTO 0x0A20
257: 0x09F3 [0x02] IF !(Work_Zone[9] == 6*) GOTO 0x0A0F
258: 0x09FB [0x45] LOAD_SCHEDULED_TASK: Load scheduler "s025" with entities [EventEntity, EventEntity], work=[838*, 0*]
259: 0x0A0C [0x01] GOTO 0x0A20
260: 0x0A0F [0x45] LOAD_SCHEDULED_TASK: Load scheduler "s012" with entities [EventEntity, EventEntity], work=[838*, 0*]

SUBROUTINE_0A20:
261: 0x0A20 [0x29] REQ_SET_WAIT(priority=0x08, entity_id=Tosuka-Porika (ID: 17752080/0x010EE010), tag_num=0x01)
262: 0x0A27 [0x2B] Tosuka-Porika (ID: 17752080/0x010EE010) [17557*]:
    → "Garazu-Horeizu is perhaps the most feared-weared mage in all Windurst's long history. Over 300 years ago, he brought all of Windurst to heel with his foul machinations."
263: 0x0A2E [0x23] WAIT_FOR_DIALOG_INTERACTION
264: 0x0A2F [0x29] REQ_SET_WAIT(priority=0x08, entity_id=Tosuka-Porika (ID: 17752080/0x010EE010), tag_num=0x02)
265: 0x0A36 [0x7B] Tosuka-Porika (ID: 17752080/0x010EE010) stops talking
266: 0x0A3B [0x02] IF !(Work_Zone[9] == 5*) GOTO 0x0A55
267: 0x0A43 [0x52] END_LOAD_SCHEDULER: End scheduler "s025" with entities [EventEntity, EventEntity], work=838*
268: 0x0A52 [0x01] GOTO 0x0A7E
269: 0x0A55 [0x02] IF !(Work_Zone[9] == 6*) GOTO 0x0A6F
270: 0x0A5D [0x52] END_LOAD_SCHEDULER: End scheduler "s025" with entities [EventEntity, EventEntity], work=838*
271: 0x0A6C [0x01] GOTO 0x0A7E
272: 0x0A6F [0x52] END_LOAD_SCHEDULER: End scheduler "s012" with entities [EventEntity, EventEntity], work=838*

SUBROUTINE_0A7E:
273: 0x0A7E [0x45] LOAD_SCHEDULED_TASK: Load scheduler "s013" with entities [EventEntity, EventEntity], work=[838*, 0*]
274: 0x0A8F [0x29] REQ_SET_WAIT(priority=0x08, entity_id=Tosuka-Porika (ID: 17752080/0x010EE010), tag_num=0x21)
275: 0x0A96 [0x2B] Tosuka-Porika (ID: 17752080/0x010EE010) [17558*]:
    → "It is not unheard of for power-hungry sorcerers to trample over anyone who would stand in the way of their quest to become ever stronger-wonger."
276: 0x0A9D [0x23] WAIT_FOR_DIALOG_INTERACTION
277: 0x0A9E [0x2B] Tosuka-Porika (ID: 17752080/0x010EE010) [17559*]:
    → "But Garazu-Horeizu was a fiend among fiends. He employed powerful hypnosis magic, also known as "the maelstrom"--hence his moniker-woniker."
278: 0x0AA5 [0x23] WAIT_FOR_DIALOG_INTERACTION
279: 0x0AA6 [0x29] REQ_SET_WAIT(priority=0x08, entity_id=Tosuka-Porika (ID: 17752080/0x010EE010), tag_num=0x22)
280: 0x0AAD [0x29] REQ_SET_WAIT(priority=0x08, entity_id=Tosuka-Porika (ID: 17752080/0x010EE010), tag_num=0x23)
281: 0x0AB4 [0x29] REQ_SET_WAIT(priority=0x08, entity_id=Tosuka-Porika (ID: 17752080/0x010EE010), tag_num=0x24)
282: 0x0ABB [0x52] END_LOAD_SCHEDULER: End scheduler "s013" with entities [EventEntity, EventEntity], work=838*
283: 0x0ACA [0x02] IF !(Work_Zone[9] == 5*) GOTO 0x0AE6
284: 0x0AD2 [0x45] LOAD_SCHEDULED_TASK: Load scheduler "s026" with entities [EventEntity, EventEntity], work=[838*, 0*]
285: 0x0AE3 [0x01] GOTO 0x0B13
286: 0x0AE6 [0x02] IF !(Work_Zone[9] == 6*) GOTO 0x0B02
287: 0x0AEE [0x45] LOAD_SCHEDULED_TASK: Load scheduler "s026" with entities [EventEntity, EventEntity], work=[838*, 0*]
288: 0x0AFF [0x01] GOTO 0x0B13
289: 0x0B02 [0x45] LOAD_SCHEDULED_TASK: Load scheduler "s014" with entities [EventEntity, EventEntity], work=[838*, 0*]

SUBROUTINE_0B13:
290: 0x0B13 [0x79] Tosuka-Porika (ID: 17752080/0x010EE010) looks at LocalPlayer (Basic look)
291: 0x0B1D [0x01] GOTO 0x10D1
292: 0x0B20 [0x02] IF !(Work_Zone[0] == 1*) GOTO 0x0DA5
293: 0x0B28 [0x29] REQ_SET_WAIT(priority=0x08, entity_id=LocalPlayer, tag_num=0x81)
294: 0x0B2F [0x4A] Tosuka-Porika (ID: 17752080/0x010EE010) looks at LocalPlayer
295: 0x0B38 [0x6F] WAIT_FRAME_DELAY: Yield until WaitTime reaches zero
296: 0x0B39 [0x76] CHECK_ENTITY_RENDER_FLAGS: Wait until Tosuka-Porika (ID: 17752080/0x010EE010) Render.Flags0 and Render.Flags3 conditions are met
297: 0x0B3E [0x1C] WAIT(40* ticks)
298: 0x0B41 [0x02] IF !(ExtData[1]->WorkLocal[3] == 1*) GOTO 0x0B55
299: 0x0B49 [0x29] REQ_SET_WAIT(priority=0x08, entity_id=Tosuka-Porika (ID: 17752080/0x010EE010), tag_num=0x11)
300: 0x0B50 [0x03] ExtData[1]->WorkLocal[3] = 0*
301: 0x0B55 [0x02] IF !(Work_Zone[9] == 2*) GOTO 0x0B7E
302: 0x0B5D [0x52] END_LOAD_SCHEDULER: End scheduler "s024" with entities [EventEntity, EventEntity], work=838*
303: 0x0B6C [0x52] END_LOAD_SCHEDULER: End scheduler "s014" with entities [EventEntity, EventEntity], work=838*
304: 0x0B7B [0x01] GOTO 0x0C17
305: 0x0B7E [0x02] IF !(Work_Zone[9] == 5*) GOTO 0x0BA7
306: 0x0B86 [0x52] END_LOAD_SCHEDULER: End scheduler "s024" with entities [EventEntity, EventEntity], work=838*
307: 0x0B95 [0x52] END_LOAD_SCHEDULER: End scheduler "s026" with entities [EventEntity, EventEntity], work=838*
308: 0x0BA4 [0x01] GOTO 0x0C17
309: 0x0BA7 [0x02] IF !(Work_Zone[9] == 6*) GOTO 0x0BD0
310: 0x0BAF [0x52] END_LOAD_SCHEDULER: End scheduler "s024" with entities [EventEntity, EventEntity], work=838*
311: 0x0BBE [0x52] END_LOAD_SCHEDULER: End scheduler "s026" with entities [EventEntity, EventEntity], work=838*
312: 0x0BCD [0x01] GOTO 0x0C17
313: 0x0BD0 [0x02] IF !(Work_Zone[9] == 7*) GOTO 0x0BF9
314: 0x0BD8 [0x52] END_LOAD_SCHEDULER: End scheduler "s024" with entities [EventEntity, EventEntity], work=838*
315: 0x0BE7 [0x52] END_LOAD_SCHEDULER: End scheduler "s014" with entities [EventEntity, EventEntity], work=838*
316: 0x0BF6 [0x01] GOTO 0x0C17
317: 0x0BF9 [0x52] END_LOAD_SCHEDULER: End scheduler "s003" with entities [EventEntity, EventEntity], work=838*
318: 0x0C08 [0x52] END_LOAD_SCHEDULER: End scheduler "s014" with entities [EventEntity, EventEntity], work=838*

SUBROUTINE_0C17:
319: 0x0C17 [0x45] LOAD_SCHEDULED_TASK: Load scheduler "s015" with entities [EventEntity, EventEntity], work=[838*, 0*]
320: 0x0C28 [0x29] REQ_SET_WAIT(priority=0x08, entity_id=Tosuka-Porika (ID: 17752080/0x010EE010), tag_num=0x39)
321: 0x0C2F [0x2B] Tosuka-Porika (ID: 17752080/0x010EE010) [17560*]:
    → "Garazu-Horeizu was brazen in his lustaru for power."
322: 0x0C36 [0x23] WAIT_FOR_DIALOG_INTERACTION
323: 0x0C37 [0x29] REQ_SET_WAIT(priority=0x08, entity_id=Tosuka-Porika (ID: 17752080/0x010EE010), tag_num=0x3A)
324: 0x0C3E [0x29] REQ_SET_WAIT(priority=0x08, entity_id=Tosuka-Porika (ID: 17752080/0x010EE010), tag_num=0x01)
325: 0x0C45 [0x2B] Tosuka-Porika (ID: 17752080/0x010EE010) [17561*]:
    → "He would conjure calamity upon all who dared defy him, and not even the words of the Star Sibyl could reach his blackened heart."
326: 0x0C4C [0x23] WAIT_FOR_DIALOG_INTERACTION
327: 0x0C4D [0x29] REQ_SET_WAIT(priority=0x08, entity_id=Tosuka-Porika (ID: 17752080/0x010EE010), tag_num=0x02)
328: 0x0C54 [0x52] END_LOAD_SCHEDULER: End scheduler "s015" with entities [EventEntity, EventEntity], work=838*
329: 0x0C63 [0x45] LOAD_SCHEDULED_TASK: Load scheduler "s019" with entities [EventEntity, EventEntity], work=[838*, 0*]
330: 0x0C74 [0x7B] Tosuka-Porika (ID: 17752080/0x010EE010) stops talking
331: 0x0C79 [0x27] REQ_SET(priority=0x08, entity_id=Tosuka-Porika (ID: 17752080/0x010EE010), tag_num=0x99)
332: 0x0C80 [0x2B] Tosuka-Porika (ID: 17752080/0x010EE010) [17562*]:
    → "He turned his back on his fellow Windurstians, conniving with the Yagudo to bring ruin upon us all."
333: 0x0C87 [0x1C] WAIT(30* ticks)
334: 0x0C8A [0x4A] LocalPlayer looks at Tosuka-Porika (ID: 17752080/0x010EE010)
335: 0x0C93 [0x6F] WAIT_FRAME_DELAY: Yield until WaitTime reaches zero
336: 0x0C94 [0x76] CHECK_ENTITY_RENDER_FLAGS: Wait until LocalPlayer Render.Flags0 and Render.Flags3 conditions are met
337: 0x0C99 [0x23] WAIT_FOR_DIALOG_INTERACTION
338: 0x0C9A [0x2A] GET_REQ_LEVEL(level=8, entity_id=Tosuka-Porika (ID: 17752080/0x010EE010))
339: 0x0CA0 [0x29] REQ_SET_WAIT(priority=0x08, entity_id=Tosuka-Porika (ID: 17752080/0x010EE010), tag_num=0x41)
340: 0x0CA7 [0x2B] Tosuka-Porika (ID: 17752080/0x010EE010) [17563*]:
    → "The ensuing conflict came to be known as the Fourth Yagudo War."
341: 0x0CAE [0x23] WAIT_FOR_DIALOG_INTERACTION
342: 0x0CAF [0x29] REQ_SET_WAIT(priority=0x08, entity_id=Tosuka-Porika (ID: 17752080/0x010EE010), tag_num=0x42)
343: 0x0CB6 [0x52] END_LOAD_SCHEDULER: End scheduler "s019" with entities [EventEntity, EventEntity], work=838*
344: 0x0CC5 [0x45] LOAD_SCHEDULED_TASK: Load scheduler "s020" with entities [EventEntity, EventEntity], work=[838*, 0*]
345: 0x0CD6 [0x4A] Tosuka-Porika (ID: 17752080/0x010EE010) looks at LocalPlayer
346: 0x0CDF [0x6F] WAIT_FRAME_DELAY: Yield until WaitTime reaches zero
347: 0x0CE0 [0x76] CHECK_ENTITY_RENDER_FLAGS: Wait until Tosuka-Porika (ID: 17752080/0x010EE010) Render.Flags0 and Render.Flags3 conditions are met
348: 0x0CE5 [0x27] REQ_SET(priority=0x08, entity_id=Tosuka-Porika (ID: 17752080/0x010EE010), tag_num=0x9A)
349: 0x0CEC [0x2B] Tosuka-Porika (ID: 17752080/0x010EE010) [17564*]:
    → "Two students--the siblings Gurebu-Ogurebu and Medada--managed to projectaru a false image to throw the Yagudo forces into chaos, sending them scattered to the four winds..."
350: 0x0CF3 [0x1C] WAIT(30* ticks)
351: 0x0CF6 [0x23] WAIT_FOR_DIALOG_INTERACTION
352: 0x0CF7 [0x4A] LocalPlayer looks at Tosuka-Porika (ID: 17752080/0x010EE010)
353: 0x0D00 [0x29] REQ_SET_WAIT(priority=0x08, entity_id=Tosuka-Porika (ID: 17752080/0x010EE010), tag_num=0x39)
354: 0x0D07 [0x2B] Tosuka-Porika (ID: 17752080/0x010EE010) [17565*]:
    → "...but the more one examines Garazu-Horeizu, the more shiver-wivers get sent up one's spine."
355: 0x0D0E [0x23] WAIT_FOR_DIALOG_INTERACTION
356: 0x0D0F [0x29] REQ_SET_WAIT(priority=0x08, entity_id=Tosuka-Porika (ID: 17752080/0x010EE010), tag_num=0x3A)
357: 0x0D16 [0x6F] WAIT_FRAME_DELAY: Yield until WaitTime reaches zero
358: 0x0D17 [0x76] CHECK_ENTITY_RENDER_FLAGS: Wait until LocalPlayer Render.Flags0 and Render.Flags3 conditions are met
359: 0x0D1C [0x2A] GET_REQ_LEVEL(level=8, entity_id=Tosuka-Porika (ID: 17752080/0x010EE010))
360: 0x0D22 [0x52] END_LOAD_SCHEDULER: End scheduler "s020" with entities [EventEntity, EventEntity], work=838*
361: 0x0D31 [0x02] IF !(Work_Zone[9] == 5*) GOTO 0x0D4D
362: 0x0D39 [0x45] LOAD_SCHEDULED_TASK: Load scheduler "s026" with entities [EventEntity, EventEntity], work=[838*, 0*]
363: 0x0D4A [0x01] GOTO 0x0D7A
364: 0x0D4D [0x02] IF !(Work_Zone[9] == 6*) GOTO 0x0D69
365: 0x0D55 [0x45] LOAD_SCHEDULED_TASK: Load scheduler "s026" with entities [EventEntity, EventEntity], work=[838*, 0*]
366: 0x0D66 [0x01] GOTO 0x0D7A
367: 0x0D69 [0x45] LOAD_SCHEDULED_TASK: Load scheduler "s014" with entities [EventEntity, EventEntity], work=[838*, 0*]

SUBROUTINE_0D7A:
368: 0x0D7A [0x4A] LocalPlayer looks at Tosuka-Porika (ID: 17752080/0x010EE010)
369: 0x0D83 [0x4A] Tosuka-Porika (ID: 17752080/0x010EE010) looks at LocalPlayer
370: 0x0D8C [0x6F] WAIT_FRAME_DELAY: Yield until WaitTime reaches zero
371: 0x0D8D [0x76] CHECK_ENTITY_RENDER_FLAGS: Wait until Tosuka-Porika (ID: 17752080/0x010EE010) Render.Flags0 and Render.Flags3 conditions are met
372: 0x0D92 [0x6F] WAIT_FRAME_DELAY: Yield until WaitTime reaches zero
373: 0x0D93 [0x76] CHECK_ENTITY_RENDER_FLAGS: Wait until LocalPlayer Render.Flags0 and Render.Flags3 conditions are met
374: 0x0D98 [0x79] Tosuka-Porika (ID: 17752080/0x010EE010) looks at LocalPlayer (Basic look)
375: 0x0DA2 [0x01] GOTO 0x10D1
376: 0x0DA5 [0x02] IF !(Work_Zone[0] == 2*) GOTO 0x10D1
377: 0x0DAD [0x29] REQ_SET_WAIT(priority=0x08, entity_id=LocalPlayer, tag_num=0x81)
378: 0x0DB4 [0x4A] Tosuka-Porika (ID: 17752080/0x010EE010) looks at LocalPlayer
379: 0x0DBD [0x6F] WAIT_FRAME_DELAY: Yield until WaitTime reaches zero
380: 0x0DBE [0x76] CHECK_ENTITY_RENDER_FLAGS: Wait until Tosuka-Porika (ID: 17752080/0x010EE010) Render.Flags0 and Render.Flags3 conditions are met
381: 0x0DC3 [0x1C] WAIT(45* ticks)
382: 0x0DC6 [0x02] IF !(ExtData[1]->WorkLocal[3] == 1*) GOTO 0x0DDA
383: 0x0DCE [0x29] REQ_SET_WAIT(priority=0x08, entity_id=Tosuka-Porika (ID: 17752080/0x010EE010), tag_num=0x11)
384: 0x0DD5 [0x03] ExtData[1]->WorkLocal[3] = 0*
385: 0x0DDA [0x02] IF !(Work_Zone[9] == 2*) GOTO 0x0E03
386: 0x0DE2 [0x52] END_LOAD_SCHEDULER: End scheduler "s024" with entities [EventEntity, EventEntity], work=838*
387: 0x0DF1 [0x52] END_LOAD_SCHEDULER: End scheduler "s014" with entities [EventEntity, EventEntity], work=838*
388: 0x0E00 [0x01] GOTO 0x0E9C
389: 0x0E03 [0x02] IF !(Work_Zone[9] == 5*) GOTO 0x0E2C
390: 0x0E0B [0x52] END_LOAD_SCHEDULER: End scheduler "s024" with entities [EventEntity, EventEntity], work=838*
391: 0x0E1A [0x52] END_LOAD_SCHEDULER: End scheduler "s026" with entities [EventEntity, EventEntity], work=838*
392: 0x0E29 [0x01] GOTO 0x0E9C
393: 0x0E2C [0x02] IF !(Work_Zone[9] == 6*) GOTO 0x0E55
394: 0x0E34 [0x52] END_LOAD_SCHEDULER: End scheduler "s024" with entities [EventEntity, EventEntity], work=838*
395: 0x0E43 [0x52] END_LOAD_SCHEDULER: End scheduler "s026" with entities [EventEntity, EventEntity], work=838*
396: 0x0E52 [0x01] GOTO 0x0E9C
397: 0x0E55 [0x02] IF !(Work_Zone[9] == 7*) GOTO 0x0E7E
398: 0x0E5D [0x52] END_LOAD_SCHEDULER: End scheduler "s024" with entities [EventEntity, EventEntity], work=838*
399: 0x0E6C [0x52] END_LOAD_SCHEDULER: End scheduler "s014" with entities [EventEntity, EventEntity], work=838*
400: 0x0E7B [0x01] GOTO 0x0E9C
401: 0x0E7E [0x52] END_LOAD_SCHEDULER: End scheduler "s003" with entities [EventEntity, EventEntity], work=838*
402: 0x0E8D [0x52] END_LOAD_SCHEDULER: End scheduler "s014" with entities [EventEntity, EventEntity], work=838*

SUBROUTINE_0E9C:
403: 0x0E9C [0x02] IF !(Work_Zone[9] == 5*) GOTO 0x0EB8
404: 0x0EA4 [0x45] LOAD_SCHEDULED_TASK: Load scheduler "s025" with entities [EventEntity, EventEntity], work=[838*, 0*]
405: 0x0EB5 [0x01] GOTO 0x0EE5
406: 0x0EB8 [0x02] IF !(Work_Zone[9] == 6*) GOTO 0x0ED4
407: 0x0EC0 [0x45] LOAD_SCHEDULED_TASK: Load scheduler "s025" with entities [EventEntity, EventEntity], work=[838*, 0*]
408: 0x0ED1 [0x01] GOTO 0x0EE5
409: 0x0ED4 [0x45] LOAD_SCHEDULED_TASK: Load scheduler "s012" with entities [EventEntity, EventEntity], work=[838*, 0*]

SUBROUTINE_0EE5:
410: 0x0EE5 [0x29] REQ_SET_WAIT(priority=0x08, entity_id=Tosuka-Porika (ID: 17752080/0x010EE010), tag_num=0x21)
411: 0x0EEC [0x2B] Tosuka-Porika (ID: 17752080/0x010EE010) [17566*]:
    → "Records state that Garazu-Horeizu fell in the Fourth Yagudo War."
412: 0x0EF3 [0x23] WAIT_FOR_DIALOG_INTERACTION
413: 0x0EF4 [0x29] REQ_SET_WAIT(priority=0x08, entity_id=Tosuka-Porika (ID: 17752080/0x010EE010), tag_num=0x22)
414: 0x0EFB [0x02] IF !(Work_Zone[9] == 5*) GOTO 0x0F15
415: 0x0F03 [0x52] END_LOAD_SCHEDULER: End scheduler "s025" with entities [EventEntity, EventEntity], work=838*
416: 0x0F12 [0x01] GOTO 0x0F3E
417: 0x0F15 [0x02] IF !(Work_Zone[9] == 6*) GOTO 0x0F2F
418: 0x0F1D [0x52] END_LOAD_SCHEDULER: End scheduler "s025" with entities [EventEntity, EventEntity], work=838*
419: 0x0F2C [0x01] GOTO 0x0F3E
420: 0x0F2F [0x52] END_LOAD_SCHEDULER: End scheduler "s012" with entities [EventEntity, EventEntity], work=838*

SUBROUTINE_0F3E:
421: 0x0F3E [0x02] IF !(Work_Zone[9] == 5*) GOTO 0x0F5A
422: 0x0F46 [0x45] LOAD_SCHEDULED_TASK: Load scheduler "s028" with entities [EventEntity, EventEntity], work=[838*, 0*]
423: 0x0F57 [0x01] GOTO 0x0F87
424: 0x0F5A [0x02] IF !(Work_Zone[9] == 6*) GOTO 0x0F76
425: 0x0F62 [0x45] LOAD_SCHEDULED_TASK: Load scheduler "s028" with entities [EventEntity, EventEntity], work=[838*, 0*]
426: 0x0F73 [0x01] GOTO 0x0F87
427: 0x0F76 [0x45] LOAD_SCHEDULED_TASK: Load scheduler "s017" with entities [EventEntity, EventEntity], work=[838*, 0*]

SUBROUTINE_0F87:
428: 0x0F87 [0x29] REQ_SET_WAIT(priority=0x08, entity_id=Tosuka-Porika (ID: 17752080/0x010EE010), tag_num=0x23)
429: 0x0F8E [0x2B] Tosuka-Porika (ID: 17752080/0x010EE010) [17567*]:
    → "Perhaps the most perplexing part of his death-weath was the presence of a demon--a being thought at the time to be mere legend."
430: 0x0F95 [0x23] WAIT_FOR_DIALOG_INTERACTION
431: 0x0F96 [0x29] REQ_SET_WAIT(priority=0x08, entity_id=Tosuka-Porika (ID: 17752080/0x010EE010), tag_num=0x24)
432: 0x0F9D [0x2C] CREATE_SCHEDULER_TASK: Create scheduler "won4" with entities [Karaha-Baruha (ID: 17752592/0x010EE210), Karaha-Baruha (ID: 17752592/0x010EE210)]
433: 0x0FAA [0x5B] LOAD_EXT_SCHEDULER: Load scheduler "boa0" with entities [Karaha-Baruha (ID: 17752592/0x010EE210), Karaha-Baruha (ID: 17752592/0x010EE210)], work=165*
434: 0x0FB9 [0x29] REQ_SET_WAIT(priority=0x08, entity_id=Tosuka-Porika (ID: 17752080/0x010EE010), tag_num=0x01)
435: 0x0FC0 [0x2B] Tosuka-Porika (ID: 17752080/0x010EE010) [17568*]:
    → "It was believed that demons only appeared during the midst of world-changing conflicts, and their mere existence was thoughtaru to be a fairy tale by many."
436: 0x0FC7 [0x23] WAIT_FOR_DIALOG_INTERACTION
437: 0x0FC8 [0x53] WAIT_SCHEDULER_TASK: Wait for scheduler "boa0" with entities [Karaha-Baruha (ID: 17752592/0x010EE210), Karaha-Baruha (ID: 17752592/0x010EE210)]
438: 0x0FD5 [0x1A] CALL_SUBROUTINE(address=0x0064)
439: 0x0FD8 [0x02] IF !(Work_Zone[9] == 5*) GOTO 0x0FF2
440: 0x0FE0 [0x52] END_LOAD_SCHEDULER: End scheduler "s028" with entities [EventEntity, EventEntity], work=838*
441: 0x0FEF [0x01] GOTO 0x101B
442: 0x0FF2 [0x02] IF !(Work_Zone[9] == 6*) GOTO 0x100C
443: 0x0FFA [0x52] END_LOAD_SCHEDULER: End scheduler "s028" with entities [EventEntity, EventEntity], work=838*
444: 0x1009 [0x01] GOTO 0x101B
445: 0x100C [0x52] END_LOAD_SCHEDULER: End scheduler "s017" with entities [EventEntity, EventEntity], work=838*

SUBROUTINE_101B:
446: 0x101B [0x29] REQ_SET_WAIT(priority=0x08, entity_id=Tosuka-Porika (ID: 17752080/0x010EE010), tag_num=0x02)
447: 0x1022 [0x45] LOAD_SCHEDULED_TASK: Load scheduler "s021" with entities [EventEntity, EventEntity], work=[838*, 0*]
448: 0x1033 [0x45] LOAD_SCHEDULED_TASK: Load scheduler "z002" with entities [EventEntity, EventEntity], work=[838*, 0*]
449: 0x1044 [0x1A] CALL_SUBROUTINE(address=0x0043)
450: 0x1047 [0x2B] Tosuka-Porika (ID: 17752080/0x010EE010) [17569*]:
    → "I suppose this apocryphal tale must be taken with a grain of saltaru, but Karaha-Baruha certainly seemed to place some stock in it."
451: 0x104E [0x23] WAIT_FOR_DIALOG_INTERACTION
452: 0x104F [0x5B] LOAD_EXT_SCHEDULER: Load scheduler "bob0" with entities [Karaha-Baruha (ID: 17752592/0x010EE210), Karaha-Baruha (ID: 17752592/0x010EE210)], work=165*
453: 0x105E [0x2B] Tosuka-Porika (ID: 17752080/0x010EE010) [17570*]:
    → "Garazu-Horeizu had been studying the prime avatars...so who can say what his true goal was. Hrmmm..."
454: 0x1065 [0x23] WAIT_FOR_DIALOG_INTERACTION
455: 0x1066 [0x1A] CALL_SUBROUTINE(address=0x0064)
456: 0x1069 [0x52] END_LOAD_SCHEDULER: End scheduler "s021" with entities [EventEntity, EventEntity], work=838*
457: 0x1078 [0x02] IF !(Work_Zone[9] == 5*) GOTO 0x1094
458: 0x1080 [0x45] LOAD_SCHEDULED_TASK: Load scheduler "s026" with entities [EventEntity, EventEntity], work=[838*, 0*]
459: 0x1091 [0x01] GOTO 0x10C1
460: 0x1094 [0x02] IF !(Work_Zone[9] == 6*) GOTO 0x10B0
461: 0x109C [0x45] LOAD_SCHEDULED_TASK: Load scheduler "s026" with entities [EventEntity, EventEntity], work=[838*, 0*]
462: 0x10AD [0x01] GOTO 0x10C1
463: 0x10B0 [0x45] LOAD_SCHEDULED_TASK: Load scheduler "s014" with entities [EventEntity, EventEntity], work=[838*, 0*]

SUBROUTINE_10C1:
464: 0x10C1 [0x79] Tosuka-Porika (ID: 17752080/0x010EE010) looks at LocalPlayer (Basic look)
465: 0x10CB [0x1A] CALL_SUBROUTINE(address=0x0043)
466: 0x10CE [0x01] GOTO 0x10D1

SUBROUTINE_10D1:
467: 0x10D1 [0x3C] SET_BIT_FLAG_CONDITIONAL(target_work_offset=ExtData[1]->WorkLocal[4], bit_index_work_offset=Work_Zone[0], condition_work_offset=1*)
468: 0x10D8 [0x01] GOTO 0x08CD
469: 0x10DB [0x5D] SET_MUSIC_VOLUME(volume=0*, fade_time=300*)
470: 0x10E0 [0x29] REQ_SET_WAIT(priority=0x08, entity_id=Tosuka-Porika (ID: 17752080/0x010EE010), tag_num=0x27)
471: 0x10E7 [0x2B] Tosuka-Porika (ID: 17752080/0x010EE010) [17571*]:
    → "Hrmmm!"
472: 0x10EE [0x23] WAIT_FOR_DIALOG_INTERACTION
473: 0x10EF [0x29] REQ_SET_WAIT(priority=0x08, entity_id=Tosuka-Porika (ID: 17752080/0x010EE010), tag_num=0x28)
474: 0x10F6 [0x02] IF !(Work_Zone[9] == 5*) GOTO 0x1110
475: 0x10FE [0x52] END_LOAD_SCHEDULER: End scheduler "s026" with entities [EventEntity, EventEntity], work=838*
476: 0x110D [0x01] GOTO 0x1139
477: 0x1110 [0x02] IF !(Work_Zone[9] == 6*) GOTO 0x112A
478: 0x1118 [0x52] END_LOAD_SCHEDULER: End scheduler "s026" with entities [EventEntity, EventEntity], work=838*
479: 0x1127 [0x01] GOTO 0x1139
480: 0x112A [0x52] END_LOAD_SCHEDULER: End scheduler "s014" with entities [EventEntity, EventEntity], work=838*

SUBROUTINE_1139:
481: 0x1139 [0x45] LOAD_SCHEDULED_TASK: Load scheduler "s018" with entities [EventEntity, EventEntity], work=[838*, 0*]
482: 0x114A [0x29] REQ_SET_WAIT(priority=0x08, entity_id=Tosuka-Porika (ID: 17752080/0x010EE010), tag_num=0x23)
483: 0x1151 [0x2B] Tosuka-Porika (ID: 17752080/0x010EE010) [17572*]:
    → "And now that I've shared this tale with you, I have a requestaru--help us get back Garazu-Horeizu's homunculus."
484: 0x1158 [0x23] WAIT_FOR_DIALOG_INTERACTION
485: 0x1159 [0x29] REQ_SET_WAIT(priority=0x08, entity_id=Tosuka-Porika (ID: 17752080/0x010EE010), tag_num=0x24)
486: 0x1160 [0x52] END_LOAD_SCHEDULER: End scheduler "s018" with entities [EventEntity, EventEntity], work=838*
487: 0x116F [0x02] IF !(Work_Zone[9] == 5*) GOTO 0x118B
488: 0x1177 [0x45] LOAD_SCHEDULED_TASK: Load scheduler "s027" with entities [EventEntity, EventEntity], work=[838*, 0*]
489: 0x1188 [0x01] GOTO 0x11B8
490: 0x118B [0x02] IF !(Work_Zone[9] == 6*) GOTO 0x11A7
491: 0x1193 [0x45] LOAD_SCHEDULED_TASK: Load scheduler "s027" with entities [EventEntity, EventEntity], work=[838*, 0*]
492: 0x11A4 [0x01] GOTO 0x11B8
493: 0x11A7 [0x45] LOAD_SCHEDULED_TASK: Load scheduler "s016" with entities [EventEntity, EventEntity], work=[838*, 0*]

SUBROUTINE_11B8:
494: 0x11B8 [0x29] REQ_SET_WAIT(priority=0x08, entity_id=Tosuka-Porika (ID: 17752080/0x010EE010), tag_num=0x41)
495: 0x11BF [0x2B] Tosuka-Porika (ID: 17752080/0x010EE010) [17573*]:
    → "It would be cause for concern even if the creation contained only a fragmentaru of his power, but I fear it contains his profane nature as well."
496: 0x11C6 [0x23] WAIT_FOR_DIALOG_INTERACTION
497: 0x11C7 [0x29] REQ_SET_WAIT(priority=0x08, entity_id=Tosuka-Porika (ID: 17752080/0x010EE010), tag_num=0x42)
498: 0x11CE [0x4A] Tosuka-Porika (ID: 17752080/0x010EE010) looks at LocalPlayer
499: 0x11D7 [0x6F] WAIT_FRAME_DELAY: Yield until WaitTime reaches zero
500: 0x11D8 [0x76] CHECK_ENTITY_RENDER_FLAGS: Wait until Tosuka-Porika (ID: 17752080/0x010EE010) Render.Flags0 and Render.Flags3 conditions are met
501: 0x11DD [0x29] REQ_SET_WAIT(priority=0x08, entity_id=Tosuka-Porika (ID: 17752080/0x010EE010), tag_num=0x01)
502: 0x11E4 [0x2B] Tosuka-Porika (ID: 17752080/0x010EE010) [17574*]:
    → "Yagudo keep all their most prized possessions deep within a vault in Giddeus. You may be able-wable to lay claim to your quarry there, if you hurry."
503: 0x11EB [0x23] WAIT_FOR_DIALOG_INTERACTION
504: 0x11EC [0x29] REQ_SET_WAIT(priority=0x08, entity_id=Tosuka-Porika (ID: 17752080/0x010EE010), tag_num=0x02)
505: 0x11F3 [0x27] REQ_SET(priority=0x08, entity_id=Tosuka-Porika (ID: 17752080/0x010EE010), tag_num=0x9B)
506: 0x11FA [0x1C] WAIT(30* ticks)
507: 0x11FD [0x02] IF !(Work_Zone[9] == 5*) GOTO 0x1217
508: 0x1205 [0x52] END_LOAD_SCHEDULER: End scheduler "s027" with entities [EventEntity, EventEntity], work=838*
509: 0x1214 [0x01] GOTO 0x1240
510: 0x1217 [0x02] IF !(Work_Zone[9] == 6*) GOTO 0x1231
511: 0x121F [0x52] END_LOAD_SCHEDULER: End scheduler "s027" with entities [EventEntity, EventEntity], work=838*
512: 0x122E [0x01] GOTO 0x1240
513: 0x1231 [0x52] END_LOAD_SCHEDULER: End scheduler "s016" with entities [EventEntity, EventEntity], work=838*

SUBROUTINE_1240:
514: 0x1240 [0x45] LOAD_SCHEDULED_TASK: Load scheduler "s022" with entities [EventEntity, EventEntity], work=[838*, 0*]
515: 0x1251 [0x5C] MUSIC_CONTROL: Set Idle (Day) music to song 151*
516: 0x1255 [0x5C] MUSIC_CONTROL: Set Idle (Night) music to song 151*
517: 0x1259 [0x9A] WAIT_MUSIC_SERVER()
518: 0x125A [0x5D] SET_MUSIC_VOLUME(volume=127*, fade_time=1*)
519: 0x125F [0x2A] GET_REQ_LEVEL(level=8, entity_id=Tosuka-Porika (ID: 17752080/0x010EE010))
520: 0x1265 [0x29] REQ_SET_WAIT(priority=0x08, entity_id=Tosuka-Porika (ID: 17752080/0x010EE010), tag_num=0x43)
521: 0x126C [0x2B] Tosuka-Porika (ID: 17752080/0x010EE010) [17575*]:
    → "Please make haste--and do be discreet about it."
522: 0x1273 [0x23] WAIT_FOR_DIALOG_INTERACTION
523: 0x1274 [0x29] REQ_SET_WAIT(priority=0x08, entity_id=Tosuka-Porika (ID: 17752080/0x010EE010), tag_num=0x44)
524: 0x127B [0x1A] CALL_SUBROUTINE(address=0x0064)
525: 0x127E [0x1C] WAIT(15* ticks)
526: 0x1281 [0x52] END_LOAD_SCHEDULER: End scheduler "s022" with entities [EventEntity, EventEntity], work=838*
527: 0x1290 [0x4E] SET_ENTITY_HIDE_FLAG: Hide Talking Doll (ID: 17752287/0x010EE0DF)
528: 0x1296 [0x4E] SET_ENTITY_HIDE_FLAG: Hide Karaha-Baruha (ID: 17752592/0x010EE210)
529: 0x129C [0x2F] Talking Doll (ID: 17752287/0x010EE0DF)->Render.Flags0 |= 0x80000 // Bit 19
530: 0x12A2 [0x2F] Karaha-Baruha (ID: 17752592/0x010EE210)->Render.Flags0 |= 0x80000 // Bit 19
531: 0x12A8 [0xAB] EventEntity->DespawnValue = 0* // Set despawn value
532: 0x12AC [0x1C] WAIT(1* ticks)
533: 0x12AF [0x46] CAMERA_CONTROL: Restore default settings
534: 0x12B1 [0x45] LOAD_SCHEDULED_TASK: Load scheduler "fdi2" with entities [EventEntity, EventEntity], work=[200*, 0*]
535: 0x12C2 [0x21] END_EVENT
536: 0x12C3 [0x00] END_REQSTACK()
```

### Event 1157

#### Metadata

| Field        | Value      |
|--------------|------------|
| Entrypoint   | 0x12C4     |
| Data Size    | 2919 bytes |
| Instructions | 394        |

```
      00 01 02 03 04 05 06 07  08 09 0A 0B 0C 0D 0E 0F
      -- -- -- -- -- -- -- --  -- -- -- -- -- -- -- --
12C0:             42 03 05 00  03 10 5D 01 80 1B 80 1A      B.....].....
12D0: 64 00 46 01 38 08 80 02  09 10 01 80 01 E5 12 75  d.F.8..........u
12E0: 00 09 80 75 01 92 01 10  E0 0E 01 92 01 11 E0 0E  ...u............
12F0: 01 92 01 12 E0 0E 01 92  01 13 E0 0E 01 94 01 10  ................
1300: E0 0E 01 94 01 11 E0 0E  01 94 01 12 E0 0E 01 94  ................
1310: 01 13 E0 0E 01 94 01 F0  FF FF 7F BA F0 FF FF 7F  ................
1320: 0A 80 0B 80 0C 80 0D 80  80 10 E0 0E 01 80 11 E0  ................
1330: 0E 01 80 12 E0 0E 01 80  13 E0 0E 01 80 F0 FF FF  ................
1340: 7F 29 0F AE E0 0E 01 07  4A F0 FF FF 7F 10 E0 0E  .)......J.......
1350: 01 4A 10 E0 0E 01 F0 FF  FF 7F 6F 76 10 E0 0E 01  .J........ov....
1360: 6F 76 F0 FF FF 7F 6F 76  13 E0 0E 01 6F 76 12 E0  ov....ov....ov..
1370: 0E 01 29 08 F0 FF FF 7F  06 02 09 10 52 80 00 8E  ..).........R...
1380: 13 4B F0 FF FF 7F 53 80  6F 76 F0 FF FF 7F 45 16  .K....S.ov....E.
1390: 80 F8 FF FF 7F F8 FF FF  7F 73 30 32 39 01 80 1A  .........s029...
13A0: 43 00 29 08 10 E0 0E 01  27 2B 10 E0 0E 01 54 80  C.).....'+....T.
13B0: 23 29 08 10 E0 0E 01 28  52 16 80 F8 FF FF 7F F8  #).....(R.......
13C0: FF FF 7F 73 30 32 39 02  09 10 55 80 00 E3 13 45  ...s029...U....E
13D0: 16 80 F8 FF FF 7F F8 FF  FF 7F 73 30 34 32 01 80  ..........s042..
13E0: 01 64 14 02 09 10 56 80  00 FF 13 45 16 80 F8 FF  .d....V....E....
13F0: FF 7F F8 FF FF 7F 73 30  34 32 01 80 01 64 14 02  ......s042...d..
1400: 09 10 25 80 00 1B 14 45  16 80 F8 FF FF 7F F8 FF  ..%....E........
1410: FF 7F 73 30 34 36 01 80  01 64 14 02 09 10 26 80  ..s046...d....&.
1420: 00 37 14 45 16 80 F8 FF  FF 7F F8 FF FF 7F 73 30  .7.E..........s0
1430: 34 36 01 80 01 64 14 02  09 10 52 80 00 53 14 45  46...d....R..S.E
1440: 16 80 F8 FF FF 7F F8 FF  FF 7F 73 30 34 32 01 80  ..........s042..
1450: 01 64 14 45 16 80 F8 FF  FF 7F F8 FF FF 7F 73 30  .d.E..........s0
1460: 33 30 01 80 6E F0 FF FF  7F 26 80 99 F0 FF FF 7F  30..n....&......
1470: 1C 31 80 02 09 10 55 80  00 85 14 27 0B 10 E0 0E  .1....U....'....
1480: 01 9F 01 B0 14 02 09 10  56 80 00 97 14 27 0B 10  ........V....'..
1490: E0 0E 01 9F 01 B0 14 02  09 10 52 80 00 A9 14 27  ..........R....'
14A0: 0B 10 E0 0E 01 9F 01 B0  14 27 0B 10 E0 0E 01 9C  .........'......
14B0: 02 09 10 55 80 00 C1 14  2A 0B 10 E0 0E 01 01 E9  ...U....*.......
14C0: 14 02 09 10 56 80 00 D2  14 2A 0B 10 E0 0E 01 01  ....V....*......
14D0: E9 14 02 09 10 52 80 00  E3 14 2A 0B 10 E0 0E 01  .....R....*.....
14E0: 01 E9 14 2A 0B 10 E0 0E  01 1C 06 80 29 08 10 E0  ...*........)...
14F0: 0E 01 27 2B 10 E0 0E 01  57 80 23 29 08 10 E0 0E  ..'+....W.#)....
1500: 01 28 29 08 10 E0 0E 01  43 27 08 F0 FF FF 7F 80  .().....C'......
1510: 1C 58 80 1A 64 00 2A 08  F0 FF FF 7F 5C 00 59 80  .X..d.*.....\.Y.
1520: 5C 01 59 80 9A 5D 1D 80  03 80 02 09 10 55 80 00  \.Y..].......U..
1530: 60 15 52 16 80 F8 FF FF  7F F8 FF FF 7F 73 30 34  `.R..........s04
1540: 32 BA 10 E0 0E 01 5A 80  5B 80 0C 80 5C 80 4A 10  2.....Z.[...\.J.
1550: E0 0E 01 F0 FF FF 7F 6F  76 10 E0 0E 01 01 3C 16  .......ov.....<.
1560: 02 09 10 56 80 00 96 15  52 16 80 F8 FF FF 7F F8  ...V....R.......
1570: FF FF 7F 73 30 34 32 BA  10 E0 0E 01 5A 80 5B 80  ...s042.....Z.[.
1580: 0C 80 5C 80 4A 10 E0 0E  01 F0 FF FF 7F 6F 76 10  ..\.J........ov.
1590: E0 0E 01 01 3C 16 02 09  10 25 80 00 BF 15 52 16  ....<....%....R.
15A0: 80 F8 FF FF 7F F8 FF FF  7F 73 30 34 36 4A F0 FF  .........s046J..
15B0: FF 7F 10 E0 0E 01 6F 76  F0 FF FF 7F 01 3C 16 02  ......ov.....<..
15C0: 09 10 26 80 00 E8 15 52  16 80 F8 FF FF 7F F8 FF  ..&....R........
15D0: FF 7F 73 30 34 36 4A F0  FF FF 7F 10 E0 0E 01 6F  ..s046J........o
15E0: 76 F0 FF FF 7F 01 3C 16  02 09 10 52 80 00 1E 16  v.....<....R....
15F0: 52 16 80 F8 FF FF 7F F8  FF FF 7F 73 30 34 32 BA  R..........s042.
1600: 10 E0 0E 01 5A 80 5B 80  0C 80 5C 80 4A 10 E0 0E  ....Z.[...\.J...
1610: 01 F0 FF FF 7F 6F 76 10  E0 0E 01 01 3C 16 52 16  .....ov.....<.R.
1620: 80 F8 FF FF 7F F8 FF FF  7F 73 30 33 30 4A F0 FF  .........s030J..
1630: FF 7F 10 E0 0E 01 6F 76  F0 FF FF 7F 29 08 10 E0  ......ov....)...
1640: 0E 01 21 29 08 10 E0 0E  01 22 45 16 80 F8 FF FF  ..!)....."E.....
1650: 7F F8 FF FF 7F 73 30 33  35 01 80 1A 43 00 2B 10  .....s035...C.+.
1660: E0 0E 01 5D 80 23 29 08  10 E0 0E 01 23 2B 10 E0  ...].#).....#+..
1670: 0E 01 5E 80 23 29 08 10  E0 0E 01 24 52 16 80 F8  ..^.#).....$R...
1680: FF FF 7F F8 FF FF 7F 73  30 33 35 45 16 80 F8 FF  .......s035E....
1690: FF 7F F8 FF FF 7F 73 30  33 31 01 80 29 08 10 E0  ......s031..)...
16A0: 0E 01 12 2B 10 E0 0E 01  5F 80 23 29 08 10 E0 0E  ...+...._.#)....
16B0: 01 13 52 16 80 F8 FF FF  7F F8 FF FF 7F 73 30 33  ..R..........s03
16C0: 31 45 16 80 F8 FF FF 7F  F8 FF FF 7F 73 30 33 32  1E..........s032
16D0: 01 80 7B 10 E0 0E 01 27  0B 10 E0 0E 01 9D 2B 10  ..{....'......+.
16E0: E0 0E 01 60 80 1C 3F 80  4A F0 FF FF 7F 10 E0 0E  ...`..?.J.......
16F0: 01 6F 76 F0 FF FF 7F 23  2A 0B 10 E0 0E 01 4A F0  .ov....#*.....J.
1700: FF FF 7F 10 E0 0E 01 29  08 10 E0 0E 01 41 2B 10  .......).....A+.
1710: E0 0E 01 61 80 23 29 08  10 E0 0E 01 42 6F 76 F0  ...a.#).....Bov.
1720: FF FF 7F 52 16 80 F8 FF  FF 7F F8 FF FF 7F 73 30  ...R..........s0
1730: 33 32 02 09 10 55 80 00  4E 17 45 16 80 F8 FF FF  32...U..N.E.....
1740: 7F F8 FF FF 7F 73 30 34  33 01 80 01 CF 17 02 09  .....s043.......
1750: 10 56 80 00 6A 17 45 16  80 F8 FF FF 7F F8 FF FF  .V..j.E.........
1760: 7F 73 30 34 33 01 80 01  CF 17 02 09 10 25 80 00  .s043........%..
1770: 86 17 45 16 80 F8 FF FF  7F F8 FF FF 7F 73 30 34  ..E..........s04
1780: 38 01 80 01 CF 17 02 09  10 26 80 00 A2 17 45 16  8........&....E.
1790: 80 F8 FF FF 7F F8 FF FF  7F 73 30 34 38 01 80 01  .........s048...
17A0: CF 17 02 09 10 52 80 00  BE 17 45 16 80 F8 FF FF  .....R....E.....
17B0: 7F F8 FF FF 7F 73 30 34  33 01 80 01 CF 17 45 16  .....s043.....E.
17C0: 80 F8 FF FF 7F F8 FF FF  7F 73 30 33 33 01 80 4A  .........s033..J
17D0: 10 E0 0E 01 F0 FF FF 7F  2B 10 E0 0E 01 62 80 23  ........+....b.#
17E0: 6F 76 10 E0 0E 01 29 08  10 E0 0E 01 27 2B 10 E0  ov....).....'+..
17F0: 0E 01 63 80 23 29 08 10  E0 0E 01 28 02 09 10 55  ..c.#).....(...U
1800: 80 00 16 18 52 16 80 F8  FF FF 7F F8 FF FF 7F 73  ....R..........s
1810: 30 34 33 01 8D 18 02 09  10 56 80 00 30 18 52 16  043......V..0.R.
1820: 80 F8 FF FF 7F F8 FF FF  7F 73 30 34 33 01 8D 18  .........s043...
1830: 02 09 10 25 80 00 4A 18  52 16 80 F8 FF FF 7F F8  ...%..J.R.......
1840: FF FF 7F 73 30 34 38 01  8D 18 02 09 10 26 80 00  ...s048......&..
1850: 64 18 52 16 80 F8 FF FF  7F F8 FF FF 7F 73 30 34  d.R..........s04
1860: 38 01 8D 18 02 09 10 52  80 00 7E 18 52 16 80 F8  8......R..~.R...
1870: FF FF 7F F8 FF FF 7F 73  30 34 33 01 8D 18 52 16  .......s043...R.
1880: 80 F8 FF FF 7F F8 FF FF  7F 73 30 33 33 45 16 80  .........s033E..
1890: F8 FF FF 7F F8 FF FF 7F  73 30 33 34 01 80 29 08  ........s034..).
18A0: 10 E0 0E 01 21 29 08 10  E0 0E 01 22 02 05 00 03  ....!)....."....
18B0: 80 00 BE 19 29 08 10 E0  0E 01 23 2B 10 E0 0E 01  ....).....#+....
18C0: 64 80 23 29 08 10 E0 0E  01 24 52 16 80 F8 FF FF  d.#).....$R.....
18D0: 7F F8 FF FF 7F 73 30 33  34 45 16 80 F8 FF FF 7F  .....s034E......
18E0: F8 FF FF 7F 73 30 33 36  01 80 29 08 10 E0 0E 01  ....s036..).....
18F0: 01 2B 10 E0 0E 01 65 80  23 2B 10 E0 0E 01 66 80  .+....e.#+....f.
1900: 23 5D 01 80 1B 80 1A 64  00 29 08 10 E0 0E 01 02  #].....d.)......
1910: 1C 31 80 2B 10 E0 0E 01  67 80 23 02 09 10 55 80  .1.+....g.#...U.
1920: 00 37 19 45 16 80 F8 FF  FF 7F F8 FF FF 7F 73 30  .7.E..........s0
1930: 34 34 01 80 01 B8 19 02  09 10 56 80 00 53 19 45  44........V..S.E
1940: 16 80 F8 FF FF 7F F8 FF  FF 7F 73 30 34 34 01 80  ..........s044..
1950: 01 B8 19 02 09 10 25 80  00 6F 19 45 16 80 F8 FF  ......%..o.E....
1960: FF 7F F8 FF FF 7F 73 30  34 39 01 80 01 B8 19 02  ......s049......
1970: 09 10 26 80 00 8B 19 45  16 80 F8 FF FF 7F F8 FF  ..&....E........
1980: FF 7F 73 30 34 39 01 80  01 B8 19 02 09 10 52 80  ..s049........R.
1990: 00 A7 19 45 16 80 F8 FF  FF 7F F8 FF FF 7F 73 30  ...E..........s0
19A0: 34 34 01 80 01 B8 19 45  16 80 F8 FF FF 7F F8 FF  44.....E........
19B0: FF 7F 73 30 33 37 01 80  1A 43 00 01 BE 1A 2B 10  ..s037...C....+.
19C0: E0 0E 01 68 80 23 52 16  80 F8 FF FF 7F F8 FF FF  ...h.#R.........
19D0: 7F 73 30 33 34 45 16 80  F8 FF FF 7F F8 FF FF 7F  .s034E..........
19E0: 73 30 33 36 01 80 2B 10  E0 0E 01 69 80 23 5D 01  s036..+....i.#].
19F0: 80 1B 80 1A 64 00 52 16  80 F8 FF FF 7F F8 FF FF  ....d.R.........
1A00: 7F 73 30 33 36 1C 31 80  2B 10 E0 0E 01 6A 80 23  .s036.1.+....j.#
1A10: 29 08 10 E0 0E 01 23 29  08 10 E0 0E 01 24 02 09  ).....#).....$..
1A20: 10 55 80 00 3A 1A 45 16  80 F8 FF FF 7F F8 FF FF  .U..:.E.........
1A30: 7F 73 30 34 34 01 80 01  BB 1A 02 09 10 56 80 00  .s044........V..
1A40: 56 1A 45 16 80 F8 FF FF  7F F8 FF FF 7F 73 30 34  V.E..........s04
1A50: 34 01 80 01 BB 1A 02 09  10 25 80 00 72 1A 45 16  4........%..r.E.
1A60: 80 F8 FF FF 7F F8 FF FF  7F 73 30 34 39 01 80 01  .........s049...
1A70: BB 1A 02 09 10 26 80 00  8E 1A 45 16 80 F8 FF FF  .....&....E.....
1A80: 7F F8 FF FF 7F 73 30 34  39 01 80 01 BB 1A 02 09  .....s049.......
1A90: 10 52 80 00 AA 1A 45 16  80 F8 FF FF 7F F8 FF FF  .R....E.........
1AA0: 7F 73 30 34 34 01 80 01  BB 1A 45 16 80 F8 FF FF  .s044.....E.....
1AB0: 7F F8 FF FF 7F 73 30 33  37 01 80 1A 43 00 5D 1D  .....s037...C.].
1AC0: 80 1B 80 29 08 10 E0 0E  01 12 29 08 10 E0 0E 01  ...)......).....
