# 17752139 - Maysoon

## Common Data

| Field            | Value                     |
|------------------|---------------------------|
| Zone             | Windurst Waters (ID: 238) |
| Block Size       | 348 bytes                 |
| Total Events     | 12                        |
| References Count | 17                        |

## List of Events

| Event ID                 | Entrypoint   |   Size |   Instructions |
|--------------------------|--------------|--------|----------------|
| [65535](#event-65535)    | 0x0000       |      1 |              1 |
| [978](#event-978)        | 0x0001       |      7 |              2 |
| [983](#event-983)        | 0x0008       |      7 |              2 |
| [980](#event-980)        | 0x000F       |      7 |              2 |
| [981](#event-981)        | 0x0016       |      7 |              2 |
| [10000](#event-10000)    | 0x001D       |     33 |             14 |
| [10001](#event-10001)    | 0x003E       |     43 |             12 |
| [65535.1](#event-655351) | 0x0069       |     16 |              2 |
| [65535.2](#event-655352) | 0x0079       |      9 |              3 |
| [255](#event-255)        | 0x0082       |     33 |             12 |
| [266](#event-266)        | 0x00A3       |     33 |             12 |
| [1019](#event-1019)      | 0x00C4       |     19 |              9 |

## DAT References (imed_data)

|   Index | Hex Value   |   Dec Value |
|---------|-------------|-------------|
|       0 | 0x0039      |          57 |
|       1 | 0x119C      |        4508 |
|       2 | 0x1B1F      |        6943 |
|       3 | 0x1B20      |        6944 |
|       4 | 0x1B21      |        6945 |
|       5 | 0x1B22      |        6946 |
|       6 | 0x00C9      |         201 |
|       7 | 0x0000      |           0 |
|       8 | 0x0028      |          40 |
|       9 | 0x001E      |          30 |
|      10 | 0x1ECD      |        7885 |
|      11 | 0x1ECE      |        7886 |
|      12 | 0x1EF3      |        7923 |
|      13 | 0x1EF4      |        7924 |
|      14 | 0x3067      |       12391 |
|      15 | 0x3068      |       12392 |
|      16 | 0x3069      |       12393 |

## String References

- **6943**: Oh, so you want $6, do you? Well, that's usually reserved for my regular patrons...
- **6944**: But if you simply must have it, then bring me $1!
- **6945**: $1 can be obtained from the queen crawler in the Crawlers' Nest, but it is quite hard to come by via merchants. If it means getting my hands on some of it, then it's worth the trade!
- **6946**: Oh, my! You actually managed to get your hands on $1!? Well, looks like I'll be giving you $6 in order to keep my half of the deal then, doesn't it?
- **7885**: If you want to enjoy each day, each meal has to be enjoyable too.
- **7886**: No matter how good it is for the body, unsavory food just isn't good for the soul.
- **7923**: Ranpi-Monpi is really a great chef when he sticks to ordinary cooking...
- **7924**: It's his unparalleled curiosity and harebrained personality that often gets him into trouble like this.
- **12391**: Why, if it isn't one of our custom stewpots!
- **12392**: Oh, good heavens, what a ghastly hole...
- **12393**: I fear I'm not much with repairs, but I do believe Ranpi-Monpi next door could be of service.

## Events

### Event 65535

#### Metadata

| Field        | Value   |
|--------------|---------|
| Entrypoint   | 0x0000  |
| Data Size    | 1 bytes |
| Instructions | 1       |

```
      00 01 02 03 04 05 06 07  08 09 0A 0B 0C 0D 0E 0F
      -- -- -- -- -- -- -- --  -- -- -- -- -- -- -- --
0000: 00                                                .               
```

#### Opcodes

```
  0: 0x0000 [0x00] END_REQSTACK()
```

### Event 978

#### Metadata

| Field        | Value   |
|--------------|---------|
| Entrypoint   | 0x0001  |
| Data Size    | 7 bytes |
| Instructions | 2       |

```
      00 01 02 03 04 05 06 07  08 09 0A 0B 0C 0D 0E 0F
      -- -- -- -- -- -- -- --  -- -- -- -- -- -- -- --
0000:    92 01 F8 FF FF 7F 00                            .......        
```

#### Opcodes

```
  0: 0x0001 [0x92] EventEntity->Render.Flags3 ^= 0x01
  1: 0x0007 [0x00] END_REQSTACK()
```

### Event 983

#### Metadata

| Field        | Value   |
|--------------|---------|
| Entrypoint   | 0x0008  |
| Data Size    | 7 bytes |
| Instructions | 2       |

```
      00 01 02 03 04 05 06 07  08 09 0A 0B 0C 0D 0E 0F
      -- -- -- -- -- -- -- --  -- -- -- -- -- -- -- --
0000:                          92 01 F8 FF FF 7F 00             ....... 
```

#### Opcodes

```
  0: 0x0008 [0x92] EventEntity->Render.Flags3 ^= 0x01
  1: 0x000E [0x00] END_REQSTACK()
```

### Event 980

#### Metadata

| Field        | Value   |
|--------------|---------|
| Entrypoint   | 0x000F  |
| Data Size    | 7 bytes |
| Instructions | 2       |

```
      00 01 02 03 04 05 06 07  08 09 0A 0B 0C 0D 0E 0F
      -- -- -- -- -- -- -- --  -- -- -- -- -- -- -- --
0000:                                               92                 .
0010: 01 F8 FF FF 7F 00                                 ......          
```

#### Opcodes

```
  0: 0x000F [0x92] EventEntity->Render.Flags3 ^= 0x01
  1: 0x0015 [0x00] END_REQSTACK()
```

### Event 981

#### Metadata

| Field        | Value   |
|--------------|---------|
| Entrypoint   | 0x0016  |
| Data Size    | 7 bytes |
| Instructions | 2       |

```
      00 01 02 03 04 05 06 07  08 09 0A 0B 0C 0D 0E 0F
      -- -- -- -- -- -- -- --  -- -- -- -- -- -- -- --
0010:                   92 01  F8 FF FF 7F 00                 .......   
```

#### Opcodes

```
  0: 0x0016 [0x92] EventEntity->Render.Flags3 ^= 0x01
  1: 0x001C [0x00] END_REQSTACK()
```

### Event 10000

#### Metadata

| Field        | Value    |
|--------------|----------|
| Entrypoint   | 0x001D   |
| Data Size    | 33 bytes |
| Instructions | 14       |

```
      00 01 02 03 04 05 06 07  08 09 0A 0B 0C 0D 0E 0F
      -- -- -- -- -- -- -- --  -- -- -- -- -- -- -- --
0010:                                         20 01 1E                ..
0020: F0 FF FF 7F 6F 70 03 02  10 00 80 03 03 10 01 80  ....op..........
0030: 1D 02 80 23 1D 03 80 23  1D 04 80 23 21 00        ...#...#...#!.  
```

#### Opcodes

```
  0: 0x001D [0x20] SET_CLI_EVENT_UC_FLAG: Lock player control
  1: 0x001F [0x1E] EventEntity looks at LocalPlayer and starts talking
  2: 0x0024 [0x6F] WAIT_FRAME_DELAY: Yield until WaitTime reaches zero
  3: 0x0025 [0x70] WAIT_ENTITY_RENDER_FLAG: Wait while EventEntity->Render.Flags3 bit 2 is set (cancel turn if not)
  4: 0x0026 [0x03] Work_Zone[2] = 57*
  5: 0x002B [0x03] Work_Zone[3] = 4508*
  6: 0x0030 [0x1D] PRINT_EVENT_MESSAGE(message_id=6943*)
    → "Oh, so you want $6, do you? Well, that's usually reserved for my regular patrons..."
  7: 0x0033 [0x23] WAIT_FOR_DIALOG_INTERACTION
  8: 0x0034 [0x1D] PRINT_EVENT_MESSAGE(message_id=6944*)
    → "But if you simply must have it, then bring me $1!"
  9: 0x0037 [0x23] WAIT_FOR_DIALOG_INTERACTION
 10: 0x0038 [0x1D] PRINT_EVENT_MESSAGE(message_id=6945*)
    → "$1 can be obtained from the queen crawler in the Crawlers' Nest, but it is quite hard to come by via merchants. If it means getting my hands on some of it, then it's worth the trade!"
 11: 0x003B [0x23] WAIT_FOR_DIALOG_INTERACTION
 12: 0x003C [0x21] END_EVENT
 13: 0x003D [0x00] END_REQSTACK()
```

### Event 10001

#### Metadata

| Field        | Value    |
|--------------|----------|
| Entrypoint   | 0x003E   |
| Data Size    | 43 bytes |
| Instructions | 12       |

```
      00 01 02 03 04 05 06 07  08 09 0A 0B 0C 0D 0E 0F
      -- -- -- -- -- -- -- --  -- -- -- -- -- -- -- --
0030:                                            20 01                 .
0040: 42 1E F0 FF FF 7F 6F 70  03 02 10 00 80 03 03 10  B.....op........
0050: 01 80 1D 05 80 23 45 06  80 F0 FF FF 7F F0 FF FF  .....#E.........
0060: 7F 71 73 74 63 07 80 21  00                       .qstc..!.       
```

#### Opcodes

```
  0: 0x003E [0x20] SET_CLI_EVENT_UC_FLAG: Lock player control
  1: 0x0040 [0x42] SET_CLI_EVENT_CANCEL_DATA()
  2: 0x0041 [0x1E] EventEntity looks at LocalPlayer and starts talking
  3: 0x0046 [0x6F] WAIT_FRAME_DELAY: Yield until WaitTime reaches zero
  4: 0x0047 [0x70] WAIT_ENTITY_RENDER_FLAG: Wait while EventEntity->Render.Flags3 bit 2 is set (cancel turn if not)
  5: 0x0048 [0x03] Work_Zone[2] = 57*
  6: 0x004D [0x03] Work_Zone[3] = 4508*
  7: 0x0052 [0x1D] PRINT_EVENT_MESSAGE(message_id=6946*)
    → "Oh, my! You actually managed to get your hands on $1!? Well, looks like I'll be giving you $6 in order to keep my half of the deal then, doesn't it?"
  8: 0x0055 [0x23] WAIT_FOR_DIALOG_INTERACTION
  9: 0x0056 [0x45] LOAD_SCHEDULED_TASK: Load scheduler "qstc" with entities [LocalPlayer, LocalPlayer], work=[201*, 0*]
 10: 0x0067 [0x21] END_EVENT
 11: 0x0068 [0x00] END_REQSTACK()
```

### Event 65535.1

#### Metadata

| Field        | Value    |
|--------------|----------|
| Entrypoint   | 0x0069   |
| Data Size    | 16 bytes |
| Instructions | 2        |

```
      00 01 02 03 04 05 06 07  08 09 0A 0B 0C 0D 0E 0F
      -- -- -- -- -- -- -- --  -- -- -- -- -- -- -- --
0060:                             66 08 80 F8 FF FF 7F           f......
0070: F8 FF FF 7F 74 6C 6B 30  00                       ....tlk0.       
```

#### Opcodes

```
  0: 0x0069 [0x66] LOAD_EXT_SCHEDULER_MAIN: Load scheduler "tlk0" with entities [EventEntity, EventEntity], work=40*
  1: 0x0078 [0x00] END_REQSTACK()
```

### Event 65535.2

#### Metadata

| Field        | Value   |
|--------------|---------|
| Entrypoint   | 0x0079  |
| Data Size    | 9 bytes |
| Instructions | 3       |

```
      00 01 02 03 04 05 06 07  08 09 0A 0B 0C 0D 0E 0F
      -- -- -- -- -- -- -- --  -- -- -- -- -- -- -- --
0070:                             5E 69 64 6C 30 1C 09           ^idl0..
0080: 80 00                                             ..              
```

#### Opcodes

```
  0: 0x0079 [0x5E] EventEntity goes idle (kills current action) (animation: "idl0")
  1: 0x007E [0x1C] WAIT(30* ticks)
  2: 0x0081 [0x00] END_REQSTACK()
```

### Event 255

#### Metadata

| Field        | Value    |
|--------------|----------|
| Entrypoint   | 0x0082   |
| Data Size    | 33 bytes |
| Instructions | 12       |

```
      00 01 02 03 04 05 06 07  08 09 0A 0B 0C 0D 0E 0F
      -- -- -- -- -- -- -- --  -- -- -- -- -- -- -- --
0080:       1E F0 FF FF 7F 6F  70 29 08 4B E0 0E 01 07    .....op).K....
0090: 1D 0A 80 23 1D 0B 80 23  29 08 4B E0 0E 01 08 20  ...#...#).K.... 
00A0: 00 21 00                                          .!.             
```

#### Opcodes

```
  0: 0x0082 [0x1E] EventEntity looks at LocalPlayer and starts talking
  1: 0x0087 [0x6F] WAIT_FRAME_DELAY: Yield until WaitTime reaches zero
  2: 0x0088 [0x70] WAIT_ENTITY_RENDER_FLAG: Wait while EventEntity->Render.Flags3 bit 2 is set (cancel turn if not)
  3: 0x0089 [0x29] REQ_SET_WAIT(priority=0x08, entity_id=Maysoon (ID: 17752139/0x010EE04B), tag_num=0x07)
  4: 0x0090 [0x1D] PRINT_EVENT_MESSAGE(message_id=7885*)
    → "If you want to enjoy each day, each meal has to be enjoyable too."
  5: 0x0093 [0x23] WAIT_FOR_DIALOG_INTERACTION
  6: 0x0094 [0x1D] PRINT_EVENT_MESSAGE(message_id=7886*)
    → "No matter how good it is for the body, unsavory food just isn't good for the soul."
  7: 0x0097 [0x23] WAIT_FOR_DIALOG_INTERACTION
  8: 0x0098 [0x29] REQ_SET_WAIT(priority=0x08, entity_id=Maysoon (ID: 17752139/0x010EE04B), tag_num=0x08)
  9: 0x009F [0x20] SET_CLI_EVENT_UC_FLAG: Unlock player control
 10: 0x00A1 [0x21] END_EVENT
 11: 0x00A2 [0x00] END_REQSTACK()
```

### Event 266

#### Metadata

| Field        | Value    |
|--------------|----------|
| Entrypoint   | 0x00A3   |
| Data Size    | 33 bytes |
| Instructions | 12       |

```
      00 01 02 03 04 05 06 07  08 09 0A 0B 0C 0D 0E 0F
      -- -- -- -- -- -- -- --  -- -- -- -- -- -- -- --
00A0:          1E F0 FF FF 7F  6F 70 29 08 4B E0 0E 01     .....op).K...
00B0: 07 1D 0C 80 23 1D 0D 80  23 29 08 4B E0 0E 01 08  ....#...#).K....
00C0: 20 00 21 00                                        .!.            
```

#### Opcodes

```
  0: 0x00A3 [0x1E] EventEntity looks at LocalPlayer and starts talking
  1: 0x00A8 [0x6F] WAIT_FRAME_DELAY: Yield until WaitTime reaches zero
  2: 0x00A9 [0x70] WAIT_ENTITY_RENDER_FLAG: Wait while EventEntity->Render.Flags3 bit 2 is set (cancel turn if not)
  3: 0x00AA [0x29] REQ_SET_WAIT(priority=0x08, entity_id=Maysoon (ID: 17752139/0x010EE04B), tag_num=0x07)
  4: 0x00B1 [0x1D] PRINT_EVENT_MESSAGE(message_id=7923*)
    → "Ranpi-Monpi is really a great chef when he sticks to ordinary cooking..."
  5: 0x00B4 [0x23] WAIT_FOR_DIALOG_INTERACTION
  6: 0x00B5 [0x1D] PRINT_EVENT_MESSAGE(message_id=7924*)
    → "It's his unparalleled curiosity and harebrained personality that often gets him into trouble like this."
  7: 0x00B8 [0x23] WAIT_FOR_DIALOG_INTERACTION
  8: 0x00B9 [0x29] REQ_SET_WAIT(priority=0x08, entity_id=Maysoon (ID: 17752139/0x010EE04B), tag_num=0x08)
  9: 0x00C0 [0x20] SET_CLI_EVENT_UC_FLAG: Unlock player control
 10: 0x00C2 [0x21] END_EVENT
 11: 0x00C3 [0x00] END_REQSTACK()
```

### Event 1019

#### Metadata

| Field        | Value    |
|--------------|----------|
| Entrypoint   | 0x00C4   |
| Data Size    | 19 bytes |
| Instructions | 9        |

```
      00 01 02 03 04 05 06 07  08 09 0A 0B 0C 0D 0E 0F
      -- -- -- -- -- -- -- --  -- -- -- -- -- -- -- --
00C0:             1E F0 FF FF  7F 1D 0E 80 23 1D 0F 80      ........#...
00D0: 23 1D 10 80 23 21 00                              #...#!.         
```

#### Opcodes

```
  0: 0x00C4 [0x1E] EventEntity looks at LocalPlayer and starts talking
  1: 0x00C9 [0x1D] PRINT_EVENT_MESSAGE(message_id=12391*)
    → "Why, if it isn't one of our custom stewpots!"
  2: 0x00CC [0x23] WAIT_FOR_DIALOG_INTERACTION
  3: 0x00CD [0x1D] PRINT_EVENT_MESSAGE(message_id=12392*)
    → "Oh, good heavens, what a ghastly hole..."
  4: 0x00D0 [0x23] WAIT_FOR_DIALOG_INTERACTION
  5: 0x00D1 [0x1D] PRINT_EVENT_MESSAGE(message_id=12393*)
    → "I fear I'm not much with repairs, but I do believe Ranpi-Monpi next door could be of service."
  6: 0x00D4 [0x23] WAIT_FOR_DIALOG_INTERACTION
  7: 0x00D5 [0x21] END_EVENT
  8: 0x00D6 [0x00] END_REQSTACK()
```
