# 17752075 - Apururu

## Common Data

| Field            | Value                     |
|------------------|---------------------------|
| Zone             | Windurst Waters (ID: 238) |
| Block Size       | 3548 bytes                |
| Total Events     | 87                        |
| References Count | 128                       |

## List of Events

| Event ID                   | Entrypoint   |   Size |   Instructions |
|----------------------------|--------------|--------|----------------|
| [65535](#event-65535)      | 0x0000       |      1 |              1 |
| [65535.1](#event-655351)   | 0x0001       |     16 |              2 |
| [65535.2](#event-655352)   | 0x0011       |     14 |              2 |
| [65535.3](#event-655353)   | 0x001F       |     16 |              2 |
| [65535.4](#event-655354)   | 0x002F       |     14 |              2 |
| [65535.5](#event-655355)   | 0x003D       |     16 |              2 |
| [65535.6](#event-655356)   | 0x004D       |     14 |              2 |
| [65535.7](#event-655357)   | 0x005B       |     16 |              2 |
| [65535.8](#event-655358)   | 0x006B       |     16 |              2 |
| [65535.9](#event-655359)   | 0x007B       |     14 |              2 |
| [65535.10](#event-6553510) | 0x0089       |     16 |              2 |
| [65535.11](#event-6553511) | 0x0099       |     14 |              2 |
| [65535.12](#event-6553512) | 0x00A7       |     16 |              2 |
| [65535.13](#event-6553513) | 0x00B7       |     14 |              2 |
| [65535.14](#event-6553514) | 0x00C5       |      9 |              3 |
| [11](#event-11)            | 0x00CE       |      1 |              1 |
| [531](#event-531)          | 0x00CF       |      1 |              1 |
| [65535.15](#event-6553515) | 0x00D0       |     39 |             10 |
| [65535.16](#event-6553516) | 0x00F7       |     15 |              5 |
| [65535.17](#event-6553517) | 0x0106       |     15 |              5 |
| [65535.18](#event-6553518) | 0x0115       |     15 |              5 |
| [65535.19](#event-6553519) | 0x0124       |     17 |              6 |
| [65535.20](#event-6553520) | 0x0135       |      5 |              3 |
| [65535.21](#event-6553521) | 0x013A       |     19 |              5 |
| [65535.22](#event-6553522) | 0x014D       |     19 |              5 |
| [65535.23](#event-6553523) | 0x0160       |     23 |              7 |
| [65535.24](#event-6553524) | 0x0177       |     23 |              7 |
| [65535.25](#event-6553525) | 0x018E       |     19 |              5 |
| [65535.26](#event-6553526) | 0x01A1       |      5 |              3 |
| [65535.27](#event-6553527) | 0x01A6       |     19 |              5 |
| [65535.28](#event-6553528) | 0x01B9       |      5 |              3 |
| [65535.29](#event-6553529) | 0x01BE       |      5 |              3 |
| [65535.30](#event-6553530) | 0x01C3       |     23 |              7 |
| [65535.31](#event-6553531) | 0x01DA       |      5 |              3 |
| [65535.32](#event-6553532) | 0x01DF       |     19 |              5 |
| [65535.33](#event-6553533) | 0x01F2       |     19 |              5 |
| [65535.34](#event-6553534) | 0x0205       |     27 |              9 |
| [65535.35](#event-6553535) | 0x0220       |      5 |              3 |
| [65535.36](#event-6553536) | 0x0225       |    325 |             43 |
| [65535.37](#event-6553537) | 0x036A       |      5 |              3 |
| [65535.38](#event-6553538) | 0x036F       |      5 |              3 |
| [65535.39](#event-6553539) | 0x0374       |      9 |              5 |
| [65535.40](#event-6553540) | 0x037D       |      5 |              3 |
| [65535.41](#event-6553541) | 0x0382       |     13 |              7 |
| [65535.42](#event-6553542) | 0x038F       |      9 |              5 |
| [65535.43](#event-6553543) | 0x0398       |      5 |              3 |
| [65535.44](#event-6553544) | 0x039D       |      9 |              5 |
| [65535.45](#event-6553545) | 0x03A6       |     23 |              7 |
| [65535.46](#event-6553546) | 0x03BD       |     19 |              5 |
| [65535.47](#event-6553547) | 0x03D0       |    149 |             41 |
| [65535.48](#event-6553548) | 0x0465       |      5 |              3 |
| [65535.49](#event-6553549) | 0x046A       |      5 |              3 |
| [65535.50](#event-6553550) | 0x046F       |     23 |              7 |
| [65535.51](#event-6553551) | 0x0486       |      5 |              3 |
| [65535.52](#event-6553552) | 0x048B       |      5 |              3 |
| [65535.53](#event-6553553) | 0x0490       |     19 |              5 |
| [65535.54](#event-6553554) | 0x04A3       |    311 |             41 |
| [65535.55](#event-6553555) | 0x05DA       |     19 |              5 |
| [65535.56](#event-6553556) | 0x05ED       |     19 |              5 |
| [65535.57](#event-6553557) | 0x0600       |     19 |              5 |
| [65535.58](#event-6553558) | 0x0613       |    149 |             23 |
| [65535.59](#event-6553559) | 0x06A8       |     19 |              5 |
| [65535.60](#event-6553560) | 0x06BB       |      5 |              3 |
| [65535.61](#event-6553561) | 0x06C0       |      9 |              5 |
| [65535.62](#event-6553562) | 0x06C9       |     23 |              7 |
| [65535.63](#event-6553563) | 0x06E0       |     23 |              7 |
| [65535.64](#event-6553564) | 0x06F7       |     19 |              5 |
| [65535.65](#event-6553565) | 0x070A       |     19 |              5 |
| [65535.66](#event-6553566) | 0x071D       |     19 |              5 |
| [65535.67](#event-6553567) | 0x0730       |     19 |              5 |
| [65535.68](#event-6553568) | 0x0743       |      5 |              3 |
| [65535.69](#event-6553569) | 0x0748       |    307 |             39 |
| [65535.70](#event-6553570) | 0x087B       |     23 |              7 |
| [65535.71](#event-6553571) | 0x0892       |      9 |              5 |
| [65535.72](#event-6553572) | 0x089B       |     19 |              5 |
| [65535.73](#event-6553573) | 0x08AE       |     19 |              5 |
| [65535.74](#event-6553574) | 0x08C1       |    325 |             43 |
| [65535.75](#event-6553575) | 0x0A06       |     19 |              5 |
| [65535.76](#event-6553576) | 0x0A19       |      5 |              3 |
| [65535.77](#event-6553577) | 0x0A1E       |      5 |              3 |
| [65535.78](#event-6553578) | 0x0A23       |      9 |              5 |
| [65535.79](#event-6553579) | 0x0A2C       |      5 |              3 |
| [65535.80](#event-6553580) | 0x0A31       |     23 |              7 |
| [65535.81](#event-6553581) | 0x0A48       |     19 |              5 |
| [65535.82](#event-6553582) | 0x0A5B       |      9 |              5 |
| [65535.83](#event-6553583) | 0x0A64       |      5 |              3 |
| [65535.84](#event-6553584) | 0x0A69       |      5 |              3 |

## DAT References (imed_data)

|   Index | Hex Value   |   Dec Value |
|---------|-------------|-------------|
|       0 | 0x0151      |         337 |
|       1 | 0x0153      |         339 |
|       2 | 0x0155      |         341 |
|       3 | 0x001E      |          30 |
|       4 | 0xFFFF6995  |  4294928789 |
|       5 | 0x11BCE     |       72654 |
|       6 | 0xFFFFEC79  |  4294962297 |
|       7 | 0x0ADF      |        2783 |
|       8 | 0x0028      |          40 |
|       9 | 0xFFFF5CDC  |  4294925532 |
|      10 | 0x1416A     |       82282 |
|      11 | 0x000D      |          13 |
|      12 | 0xFFFF5CD7  |  4294925527 |
|      13 | 0x14B21     |       84769 |
|      14 | 0xFFFF5EB3  |  4294926003 |
|      15 | 0xFFFF6248  |  4294926920 |
|      16 | 0x143A4     |       82852 |
|      17 | 0xFFFF5E69  |  4294925929 |
|      18 | 0x14D11     |       85265 |
|      19 | 0xFFFF6246  |  4294926918 |
|      20 | 0x1AD31     |      109873 |
|      21 | 0x21A6      |        8614 |
|      22 | 0x21A7      |        8615 |
|      23 | 0x21A9      |        8617 |
|      24 | 0x21AB      |        8619 |
|      25 | 0x21AC      |        8620 |
|      26 | 0x21AE      |        8622 |
|      27 | 0x21AF      |        8623 |
|      28 | 0x21B1      |        8625 |
|      29 | 0x21B3      |        8627 |
|      30 | 0x21B5      |        8629 |
|      31 | 0x21B6      |        8630 |
|      32 | 0x21B7      |        8631 |
|      33 | 0x21B8      |        8632 |
|      34 | 0x21B9      |        8633 |
|      35 | 0x21BC      |        8636 |
|      36 | 0x21BE      |        8638 |
|      37 | 0x21BF      |        8639 |
|      38 | 0x21C0      |        8640 |
|      39 | 0x21C1      |        8641 |
|      40 | 0x21C3      |        8643 |
|      41 | 0x21C4      |        8644 |
|      42 | 0x0005      |           5 |
|      43 | 0x008A      |         138 |
|      44 | 0x0006      |           6 |
|      45 | 0x0008      |           8 |
|      46 | 0x0000      |           0 |
|      47 | 0x1BAA      |        7082 |
|      48 | 0x21C5      |        8645 |
|      49 | 0x00EE      |         238 |
|      50 | 0x0001      |           1 |
|      51 | 0xFFFF738B  |  4294931339 |
|      52 | 0xE87F      |       59519 |
|      53 | 0x1BAB      |        7083 |
|      54 | 0x21C6      |        8646 |
|      55 | 0x21C7      |        8647 |
|      56 | 0x21C8      |        8648 |
|      57 | 0x21C9      |        8649 |
|      58 | 0x21CA      |        8650 |
|      59 | 0x21CB      |        8651 |
|      60 | 0x21CC      |        8652 |
|      61 | 0x21CD      |        8653 |
|      62 | 0x21CE      |        8654 |
|      63 | 0x21CF      |        8655 |
|      64 | 0x21D0      |        8656 |
|      65 | 0x21D1      |        8657 |
|      66 | 0x21D2      |        8658 |
|      67 | 0x21D3      |        8659 |
|      68 | 0x21D4      |        8660 |
|      69 | 0x21D5      |        8661 |
|      70 | 0x21D6      |        8662 |
|      71 | 0x21D8      |        8664 |
|      72 | 0x21D9      |        8665 |
|      73 | 0x21DA      |        8666 |
|      74 | 0x21DE      |        8670 |
|      75 | 0x21DF      |        8671 |
|      76 | 0x21E1      |        8673 |
|      77 | 0x21E2      |        8674 |
|      78 | 0x21E4      |        8676 |
|      79 | 0x21E6      |        8678 |
|      80 | 0x21E9      |        8681 |
|      81 | 0x21EA      |        8682 |
|      82 | 0x21EB      |        8683 |
|      83 | 0x21EC      |        8684 |
|      84 | 0x21ED      |        8685 |
|      85 | 0x21F0      |        8688 |
|      86 | 0x21F3      |        8691 |
|      87 | 0x21F5      |        8693 |
|      88 | 0x21F6      |        8694 |
|      89 | 0x21F7      |        8695 |
|      90 | 0x2219      |        8729 |
|      91 | 0x221A      |        8730 |
|      92 | 0x221B      |        8731 |
|      93 | 0x221C      |        8732 |
|      94 | 0x221E      |        8734 |
|      95 | 0x221F      |        8735 |
|      96 | 0x2220      |        8736 |
|      97 | 0x2221      |        8737 |
|      98 | 0x2222      |        8738 |
|      99 | 0x2223      |        8739 |
|     100 | 0x2224      |        8740 |
|     101 | 0x2227      |        8743 |
|     102 | 0x2229      |        8745 |
|     103 | 0x222A      |        8746 |
|     104 | 0x222B      |        8747 |
|     105 | 0x222C      |        8748 |
|     106 | 0x21F8      |        8696 |
|     107 | 0x21F9      |        8697 |
|     108 | 0x21FA      |        8698 |
|     109 | 0x21FB      |        8699 |
|     110 | 0x21FD      |        8701 |
|     111 | 0x2200      |        8704 |
|     112 | 0x2201      |        8705 |
|     113 | 0x2202      |        8706 |
|     114 | 0x2203      |        8707 |
|     115 | 0x2204      |        8708 |
|     116 | 0x2205      |        8709 |
|     117 | 0x2206      |        8710 |
|     118 | 0x2207      |        8711 |
|     119 | 0x2208      |        8712 |
|     120 | 0x2209      |        8713 |
|     121 | 0x220B      |        8715 |
|     122 | 0x220C      |        8716 |
|     123 | 0x220E      |        8718 |
|     124 | 0x220F      |        8719 |
|     125 | 0x2210      |        8720 |
|     126 | 0x2215      |        8725 |
|     127 | 0x2216      |        8726 |

## String References

- **7082**: Jackkedy-Wack is what we in Windurst call a "Cardian."
- **7083**: I've placed-waced a marker on your map so you don't get confused! Check-weck-weck it by selecting "Markers" from the "Map" category in the main menu!
- **8614**: Ajido-Marujido!!! Are you bothering another poor adventurer?
- **8615**: Excuse my big brother, friend. I am sure you were in the middle of something important before he rudely interrupted you.
- **8617**: Is that so? Excuse me for asking, but...you wouldn't happen to be new to Windurst, would you?
- **8619**: Well then, allow me to give you some tips. Windurstians are obliged to show kindness to those new to our neighborhood.
- **8620**: So, what do you want to know? Is there anything you need to do in particular? If so, don't be afraid to ask sweet Apururu!
- **8622**: Oh, don't get the wrong impression. We just haven't seen you around these parts before...
- **8623**: So, hey, erm... Where are you heading? Do you want to chat a little?
- **8625**: Goodness-woodness! You've just arrived, and the first thing you want to do is run off to fightaru?
- **8627**: Ajido-Marujido!!! Bite your tongue!
- **8629**: I'm ignoring my brother... The quickest way for you to die a horrible, unnecessary death is to go back along that road behind us.
- **8630**: That will lead you to a stone gatehouse. On the other side of the town gates is Sarutabaruta. It's dangerous out there, so be careful.
- **8631**: Say, you know how to "check" a monster and see how strong it is before you attack it, rightaru?
- **8632**: Target your opponent and choose "Check" from the action menu. This will tell you the creature's strength relative to your current level.
- **8633**: Don't attack opponents who you can't beataru. If you get into trouble, you can always select "Call for Help" to ask for assistance from the people around you...
- **8636**: Yes, my brother is correct for once...even though his manners could use some work.
- **8638**: Oh, and if you gather too many items to hold, head on down to Windurst's residential area.
- **8639**: Each and every Windurstian citizen has their own personal residence, or Mog House, set aside for them. You can store your items in your room's Mog Safe.
- **8640**: The residential area of Windurst is to the east of here. Head over the bridge into the neighboring Windurst Walls district and go to the right.
- **8641**: I'm sure these pearls of wisdom will help you as you set out on your new adventures. Don't forgetaru them, now!
- **8643**: Wait a second, brother-wother!
- **8644**: Sorry, but I have to go, too. If you need to know more, just ask our friend, Jack of Hearts. He's on patrol in the vicinity of the Huntman's Court.
- **8645**: Here. If you give him this, I'm sure he'll reward you. To pass him the item, target him and select "Trade" from the main menu.
- **8646**: I hope we meet again soon. Good luck, adventurer!
- **8647**: Now you're talking my language! Shopping is my specialty.
- **8648**: There are three shops in the Windurst Waters area: a general goods store, a magic dealer, and a milliner.
- **8649**: Firstly-wirstly, the general goods store, Ensasa's Catalyst Shop, is a fine place for your basic shopping needs.
- **8650**: Not too pricey, and with good service. I recommend it for items such as potions and ether, but they have quite a selection of other items, too.
- **8651**: Secondly-wecondly, there's the Federal Magic Reserve, and thirdly-wirdly, Baren-Moren the Hatter. These are both to the south of here, across the bridge.
- **8652**: Baren-Moren the Hatter, as his name implies, deals in all kinds of headwear.
- **8653**: Hee-hee. We Tarutaru take great pride in our headwear. A hat speaks volumes about the kind of Tarutaru you are.
- **8654**: The hatter, Baren-Moren, is always looking for help in publicizing his wares. Many a new adventurer has earned pocket money there.
- **8655**: The Federal Magic Reserve next door to Baren-Moren's is one of two magic shops in Windurst. It deals in higher-level magic.
- **8656**: But you're just a beginner, so I don't think you'll be needing their services rightaru away. Then again, it pays to know these things for the future.
- **8657**: If you're looking for beginner's magic or slightly stronger weapons and equipmentaru, you can always head to the port area, you know?
- **8658**: To get to Port Windurst, head though the tunnel south of Baren-Moren's and the Federal Magic Reserve.
- **8659**: The port area has a weapon shop, an armorer, and a magic shop, all in a row of quaint little boats docked on the wharves. I would even recommend it just for the scenery.
- **8660**: But as we shopping specialists know, you need plenty of money...cold, hard gil...to buy what you wantaru.
- **8661**: You can gain gil by selling raw materials and other items gained from defeating the monsters outside of town.
- **8662**: Well, that's about all the advice I have for the novice adventurer.
- **8666**: I hope we meet again soon. Good luck, my new adventurer friend!
- **8670**: Oh, Ajido-Marujido!!! Bite your tongue!
- **8671**: Let me see... I can tell you all the helpful information I know. Anything in particular you're interested in?
- **8673**: If you're volunteering to help, then please come to my ministry. It's called the Manustery, and is located in Windurst Woods. That's the district southeast of here.
- **8674**: My members and I will tell you the details when you turn up. We'd be most appreciative of an extra hand.
- **8676**: How dare you, Ajido-Marujido! Why don't you shut your mouth!
- **8678**: Only my brother is such a nasty, lying fiend. The rest of the people should be comparatively nicer.
- **8681**: He\`y! Wait up, Ajido-Marujido!
- **8682**: Sorry, but I have to go, too. If you need to know more, ask our friend Jack of Hearts who is on patrol near the Huntsman's Court.
- **8683**: Here. If you give Jacky-wacky this, I'm sure he'll reward you somehow. To pass him the item, target him and select "Trade" from the main menu.
- **8684**: Bye-bye, and good luck, my new adventurer friend! Please drop by my Manustery when you're in Windurst Woods.
- **8685**: Tsk. Adventurers these days... You shouldn't go around saying that when it's your first time in a big city. You're sure to run into trouble.
- **8688**: Oh, really? Who would ever tell you that they need help...?
- **8691**: Well, if you count that type of job as easy then, yes, it could be considered easy money, but...
- **8693**: I guess so. Well, good luck with it! I hope to see you again soon.
- **8694**: If you need to know more, ask our friend, Jack of Hearts. He's on patrol near the Huntsman's Court.
- **8695**: Here. If you give Jacky-wacky this, I'm sure he'll reward you somehow. To pass him the item, target him and select "Trade" from the main menu.
- **8696**: The dhalmel farmer up near the Manustery seems to be having a pest problem. She's been asking for help in reducing the number of Crawlers in these parts.
- **8697**: Speak to Illu Bohjaa. She's a Mithra who looks after the dhalmels at the dhalmel farm in Windurst Woods.
- **8698**: Windurst Woods is the southeastern district of Windurst. Follow that little road eastwards, through Windurst Walls, on to the Woods district.
- **8699**: It's quite a distance from Windurst Waters, but those dhalmels have such long necks, you should be able to spot them from a malm away.
- **8701**: Really? If you just follow the path around, you'll find the dhalmel farm and Manustery relatively easily.
- **8704**: Oh brother-wother! What evil scheme are you up to now? Hold on a second!
- **8705**: If you need to know more, ask our friend, Jack of Hearts. He's on patrol near the Huntsman's Court.
- **8706**: Here. If you give Jacky-wacky this, I'm sure he'll reward you somehow. To pass him the item, target him and select "Trade" from the main menu.
- **8707**: Good luck! I hope we meet again, soon. Ta-taru!
- **8708**: That's easy. If you're looking for work, then head on over to one of the gatehouses.
- **8709**: Follow that road behind you and it'll lead you to a big stone building. That's the north gatehouse.
- **8710**: Gatehouses are special places that hand out missions on behalf of the Federation of Windurst.
- **8711**: When you successfully complete missions obtained from the gatehouses, the town guards will increase your rank points.
- **8712**: Collect enough rank points and your rank, or position within this country, will rise.
- **8713**: Oh, and you're currently rank one, by the way.
- **8715**: ...Pay no attention to my brother.
- **8716**: You can only accept one mission at a time, but if you do each one properly, your rank is sure to go up in no time at all.
- **8718**: Oh, shut up already!
- **8719**: Missions are done for the love of your country, so don't expect to make much money out of them. But give them your best shot! Not all rewards can be measured in gil.
- **8720**: As you increase in rank, you can gain better things than gil can buy.
- **8725**: Ah! Wait up, Ajido-Marujido.
- **8726**: My brother always does things his own way, regardless of others.
- **8729**: Oh, Ajido-Marujido!!! Bite your tongue!
- **8730**: This place is called Windurst Waters. It is the oldest of the four districts of Windurst, and has been the center of Tarutaru life for ages.
- **8731**: In Windurst, there are five educational and governmental ministries. The ministers themselves support the Star Sibyl, who rules over Windurst.
- **8732**: Three of the ministries are here in Windurst Waters. Many Tarutaru are involved in studying a variety of subjects at these institutions.
- **8734**: You'll also find several Tarutaru-run shops in this area.
- **8735**: There's a hostelry, a general goods store, a milliner...oh, and the Culinarians' Guild, and the tavern... It will take you more than a day to see all the sights.
- **8736**: Ah, and one shouldn't forget the residential area. Follow the little road that leads to Windurst Walls and turn right to find the entrance.
- **8737**: In Windurst's residential area, there is a Mog House for you to store items and rest up in. Talk to the guards at the entranceway for the details.
- **8738**: Ummm... What else were you asking aboutaru...?
- **8739**: Huh? Oh yeah, just who in Vana'diel are we...!?
- **8740**: Hee-hee. Well, if you haven't figured it out already, I'm Apururu. Nice to meetaru you.t
- **8743**: I suggest you ask your fellow adventurers for help. Vana'diel is a huge place, so you'll need to make as many friends as you can.
- **8745**: Ah, Ajido-Marujido! Wait up a moment!
- **8746**: Oh, before I go, here, take this. Give it to our friend, Jack of Hearts, who is on patrol near the Huntsman's Court.
- **8747**: Jacky-wacky is a good little Cardian who will tell you anything else you need to know. To pass him the coupon, target him and select "Trade" from the main menu.
- **8748**: I hope to see you around some time. Good luck, my shiny-whiny adventurer friend. Ta-taru!t

## Events

### Event 65535

#### Metadata

| Field        | Value   |
|--------------|---------|
| Entrypoint   | 0x0000  |
| Data Size    | 1 bytes |
| Instructions | 1       |

```
      00 01 02 03 04 05 06 07  08 09 0A 0B 0C 0D 0E 0F
      -- -- -- -- -- -- -- --  -- -- -- -- -- -- -- --
0000: 00                                                .               
```

#### Opcodes

```
  0: 0x0000 [0x00] END_REQSTACK()
```

### Event 65535.1

#### Metadata

| Field        | Value    |
|--------------|----------|
| Entrypoint   | 0x0001   |
| Data Size    | 16 bytes |
| Instructions | 2        |

```
      00 01 02 03 04 05 06 07  08 09 0A 0B 0C 0D 0E 0F
      -- -- -- -- -- -- -- --  -- -- -- -- -- -- -- --
0000:    5B 00 80 F8 FF FF 7F  F8 FF FF 7F 74 6C 6B 30   [..........tlk0
0010: 00                                                .               
```

#### Opcodes

```
  0: 0x0001 [0x5B] LOAD_EXT_SCHEDULER: Load scheduler "tlk0" with entities [EventEntity, EventEntity], work=337*
  1: 0x0010 [0x00] END_REQSTACK()
```

### Event 65535.2

#### Metadata

| Field        | Value    |
|--------------|----------|
| Entrypoint   | 0x0011   |
| Data Size    | 14 bytes |
| Instructions | 2        |

```
      00 01 02 03 04 05 06 07  08 09 0A 0B 0C 0D 0E 0F
      -- -- -- -- -- -- -- --  -- -- -- -- -- -- -- --
0010:    53 F8 FF FF 7F F8 FF  FF 7F 74 6C 6B 30 00      S........tlk0. 
```

#### Opcodes

```
  0: 0x0011 [0x53] WAIT_SCHEDULER_TASK: Wait for scheduler "tlk0" with entities [EventEntity, EventEntity]
  1: 0x001E [0x00] END_REQSTACK()
```

### Event 65535.3

#### Metadata

| Field        | Value    |
|--------------|----------|
| Entrypoint   | 0x001F   |
| Data Size    | 16 bytes |
| Instructions | 2        |

```
      00 01 02 03 04 05 06 07  08 09 0A 0B 0C 0D 0E 0F
      -- -- -- -- -- -- -- --  -- -- -- -- -- -- -- --
0010:                                               5B                 [
0020: 00 80 F8 FF FF 7F F8 FF  FF 7F 74 68 6B 31 00     ..........thk1. 
```

#### Opcodes

```
  0: 0x001F [0x5B] LOAD_EXT_SCHEDULER: Load scheduler "thk1" with entities [EventEntity, EventEntity], work=337*
  1: 0x002E [0x00] END_REQSTACK()
```

### Event 65535.4

#### Metadata

| Field        | Value    |
|--------------|----------|
| Entrypoint   | 0x002F   |
| Data Size    | 14 bytes |
| Instructions | 2        |

```
      00 01 02 03 04 05 06 07  08 09 0A 0B 0C 0D 0E 0F
      -- -- -- -- -- -- -- --  -- -- -- -- -- -- -- --
0020:                                               53                 S
0030: F8 FF FF 7F F8 FF FF 7F  74 68 6B 31 00           ........thk1.   
```

#### Opcodes

```
  0: 0x002F [0x53] WAIT_SCHEDULER_TASK: Wait for scheduler "thk1" with entities [EventEntity, EventEntity]
  1: 0x003C [0x00] END_REQSTACK()
```

### Event 65535.5

#### Metadata

| Field        | Value    |
|--------------|----------|
| Entrypoint   | 0x003D   |
| Data Size    | 16 bytes |
| Instructions | 2        |

```
      00 01 02 03 04 05 06 07  08 09 0A 0B 0C 0D 0E 0F
      -- -- -- -- -- -- -- --  -- -- -- -- -- -- -- --
0030:                                         5B 00 80               [..
0040: F8 FF FF 7F F8 FF FF 7F  74 68 6B 32 00           ........thk2.   
```

#### Opcodes

```
  0: 0x003D [0x5B] LOAD_EXT_SCHEDULER: Load scheduler "thk2" with entities [EventEntity, EventEntity], work=337*
  1: 0x004C [0x00] END_REQSTACK()
```

### Event 65535.6

#### Metadata

| Field        | Value    |
|--------------|----------|
| Entrypoint   | 0x004D   |
| Data Size    | 14 bytes |
| Instructions | 2        |

```
      00 01 02 03 04 05 06 07  08 09 0A 0B 0C 0D 0E 0F
      -- -- -- -- -- -- -- --  -- -- -- -- -- -- -- --
0040:                                         53 F8 FF               S..
0050: FF 7F F8 FF FF 7F 74 68  6B 32 00                 ......thk2.     
```

#### Opcodes

```
  0: 0x004D [0x53] WAIT_SCHEDULER_TASK: Wait for scheduler "thk2" with entities [EventEntity, EventEntity]
  1: 0x005A [0x00] END_REQSTACK()
```

### Event 65535.7

#### Metadata

| Field        | Value    |
|--------------|----------|
| Entrypoint   | 0x005B   |
| Data Size    | 16 bytes |
| Instructions | 2        |

```
      00 01 02 03 04 05 06 07  08 09 0A 0B 0C 0D 0E 0F
      -- -- -- -- -- -- -- --  -- -- -- -- -- -- -- --
0050:                                   5B 01 80 F8 FF             [....
0060: FF 7F F8 FF FF 7F 67 6D  6E 30 00                 ......gmn0.     
```

#### Opcodes

```
  0: 0x005B [0x5B] LOAD_EXT_SCHEDULER: Load scheduler "gmn0" with entities [EventEntity, EventEntity], work=339*
  1: 0x006A [0x00] END_REQSTACK()
```

### Event 65535.8

#### Metadata

| Field        | Value    |
|--------------|----------|
| Entrypoint   | 0x006B   |
| Data Size    | 16 bytes |
| Instructions | 2        |

```
      00 01 02 03 04 05 06 07  08 09 0A 0B 0C 0D 0E 0F
      -- -- -- -- -- -- -- --  -- -- -- -- -- -- -- --
0060:                                   5B 00 80 F8 FF             [....
0070: FF 7F F8 FF FF 7F 70 61  73 30 00                 ......pas0.     
```

#### Opcodes

```
  0: 0x006B [0x5B] LOAD_EXT_SCHEDULER: Load scheduler "pas0" with entities [EventEntity, EventEntity], work=337*
  1: 0x007A [0x00] END_REQSTACK()
```

### Event 65535.9

#### Metadata

| Field        | Value    |
|--------------|----------|
| Entrypoint   | 0x007B   |
| Data Size    | 14 bytes |
| Instructions | 2        |

```
      00 01 02 03 04 05 06 07  08 09 0A 0B 0C 0D 0E 0F
      -- -- -- -- -- -- -- --  -- -- -- -- -- -- -- --
0070:                                   53 F8 FF FF 7F             S....
0080: F8 FF FF 7F 70 61 73 30  00                       ....pas0.       
```

#### Opcodes

```
  0: 0x007B [0x53] WAIT_SCHEDULER_TASK: Wait for scheduler "pas0" with entities [EventEntity, EventEntity]
  1: 0x0088 [0x00] END_REQSTACK()
```

### Event 65535.10

#### Metadata

| Field        | Value    |
|--------------|----------|
| Entrypoint   | 0x0089   |
| Data Size    | 16 bytes |
| Instructions | 2        |

```
      00 01 02 03 04 05 06 07  08 09 0A 0B 0C 0D 0E 0F
      -- -- -- -- -- -- -- --  -- -- -- -- -- -- -- --
0080:                             5B 02 80 F8 FF FF 7F           [......
0090: F8 FF FF 7F 6E 6D 6F 30  00                       ....nmo0.       
```

#### Opcodes

```
  0: 0x0089 [0x5B] LOAD_EXT_SCHEDULER: Load scheduler "nmo0" with entities [EventEntity, EventEntity], work=341*
  1: 0x0098 [0x00] END_REQSTACK()
```

### Event 65535.11

#### Metadata

| Field        | Value    |
|--------------|----------|
| Entrypoint   | 0x0099   |
| Data Size    | 14 bytes |
| Instructions | 2        |

```
      00 01 02 03 04 05 06 07  08 09 0A 0B 0C 0D 0E 0F
      -- -- -- -- -- -- -- --  -- -- -- -- -- -- -- --
0090:                             53 F8 FF FF 7F F8 FF           S......
00A0: FF 7F 6E 6D 6F 30 00                              ..nmo0.         
```

#### Opcodes

```
  0: 0x0099 [0x53] WAIT_SCHEDULER_TASK: Wait for scheduler "nmo0" with entities [EventEntity, EventEntity]
  1: 0x00A6 [0x00] END_REQSTACK()
```

### Event 65535.12

#### Metadata

| Field        | Value    |
|--------------|----------|
| Entrypoint   | 0x00A7   |
| Data Size    | 16 bytes |
| Instructions | 2        |

```
      00 01 02 03 04 05 06 07  08 09 0A 0B 0C 0D 0E 0F
      -- -- -- -- -- -- -- --  -- -- -- -- -- -- -- --
00A0:                      5B  00 80 F8 FF FF 7F F8 FF         [........
00B0: FF 7F 77 61 76 30 00                              ..wav0.         
```

#### Opcodes

```
  0: 0x00A7 [0x5B] LOAD_EXT_SCHEDULER: Load scheduler "wav0" with entities [EventEntity, EventEntity], work=337*
  1: 0x00B6 [0x00] END_REQSTACK()
```

### Event 65535.13

#### Metadata

| Field        | Value    |
|--------------|----------|
| Entrypoint   | 0x00B7   |
| Data Size    | 14 bytes |
| Instructions | 2        |

```
      00 01 02 03 04 05 06 07  08 09 0A 0B 0C 0D 0E 0F
      -- -- -- -- -- -- -- --  -- -- -- -- -- -- -- --
00B0:                      53  F8 FF FF 7F F8 FF FF 7F         S........
00C0: 77 61 76 30 00                                    wav0.           
```

#### Opcodes

```
  0: 0x00B7 [0x53] WAIT_SCHEDULER_TASK: Wait for scheduler "wav0" with entities [EventEntity, EventEntity]
  1: 0x00C4 [0x00] END_REQSTACK()
```

### Event 65535.14

#### Metadata

| Field        | Value   |
|--------------|---------|
| Entrypoint   | 0x00C5  |
| Data Size    | 9 bytes |
| Instructions | 3       |

```
      00 01 02 03 04 05 06 07  08 09 0A 0B 0C 0D 0E 0F
      -- -- -- -- -- -- -- --  -- -- -- -- -- -- -- --
00C0:                5E 69 64  6C 30 1C 03 80 00             ^idl0....  
```

#### Opcodes

```
  0: 0x00C5 [0x5E] EventEntity goes idle (kills current action) (animation: "idl0")
  1: 0x00CA [0x1C] WAIT(30* ticks)
  2: 0x00CD [0x00] END_REQSTACK()
```

### Event 11

#### Metadata

| Field        | Value   |
|--------------|---------|
| Entrypoint   | 0x00CE  |
| Data Size    | 1 bytes |
| Instructions | 1       |

```
      00 01 02 03 04 05 06 07  08 09 0A 0B 0C 0D 0E 0F
      -- -- -- -- -- -- -- --  -- -- -- -- -- -- -- --
00C0:                                            00                   . 
```

#### Opcodes

```
  0: 0x00CE [0x00] END_REQSTACK()
```

### Event 531

#### Metadata

| Field        | Value   |
|--------------|---------|
| Entrypoint   | 0x00CF  |
| Data Size    | 1 bytes |
| Instructions | 1       |

```
      00 01 02 03 04 05 06 07  08 09 0A 0B 0C 0D 0E 0F
      -- -- -- -- -- -- -- --  -- -- -- -- -- -- -- --
00C0:                                               00                 .
```

#### Opcodes

```
  0: 0x00CF [0x00] END_REQSTACK()
```

### Event 65535.15

#### Metadata

| Field        | Value    |
|--------------|----------|
| Entrypoint   | 0x00D0   |
| Data Size    | 39 bytes |
| Instructions | 10       |

```
      00 01 02 03 04 05 06 07  08 09 0A 0B 0C 0D 0E 0F
      -- -- -- -- -- -- -- --  -- -- -- -- -- -- -- --
00D0: 37 04 80 05 80 06 80 07  80 22 00 32 08 80 1F 00  7........".2....
00E0: 09 80 0A 80 06 80 1F 01  32 0B 80 1F 00 0C 80 0D  ........2.......
00F0: 80 06 80 1F 01 6F 00                              .....o.         
```

#### Opcodes

```
  0: 0x00D0 [0x37] UPDATE_EVENT_POSITION_AND_DIR: x=-38.507*, z=72.654*, y=-4.999*, direction=244.6°*
  1: 0x00D9 [0x22] ENTITY_HIDE_FLAG(enabled=0x00)
  2: 0x00DB [0x32] ExtData[1]->MainSpeed = 40* * 0.1
  3: 0x00DE [0x1F] MOVE_ENTITY: EventEntity moves to X=-41.764*, Z=82.282*, Y=-4.999*
  4: 0x00E6 [0x1F] MOVE_ENTITY: Update entity position (mode=1)
  5: 0x00E8 [0x32] ExtData[1]->MainSpeed = 13* * 0.1
  6: 0x00EB [0x1F] MOVE_ENTITY: EventEntity moves to X=-41.769*, Z=84.769*, Y=-4.999*
  7: 0x00F3 [0x1F] MOVE_ENTITY: Update entity position (mode=1)
  8: 0x00F5 [0x6F] WAIT_FRAME_DELAY: Yield until WaitTime reaches zero
  9: 0x00F6 [0x00] END_REQSTACK()
```

### Event 65535.16

#### Metadata

| Field        | Value    |
|--------------|----------|
| Entrypoint   | 0x00F7   |
| Data Size    | 15 bytes |
| Instructions | 5        |

```
      00 01 02 03 04 05 06 07  08 09 0A 0B 0C 0D 0E 0F
      -- -- -- -- -- -- -- --  -- -- -- -- -- -- -- --
00F0:                      32  0B 80 1F 00 0E 80 0D 80         2........
0100: 06 80 1F 01 6F 00                                 ....o.          
```

#### Opcodes

```
  0: 0x00F7 [0x32] ExtData[1]->MainSpeed = 13* * 0.1
  1: 0x00FA [0x1F] MOVE_ENTITY: EventEntity moves to X=-41.293*, Z=84.769*, Y=-4.999*
  2: 0x0102 [0x1F] MOVE_ENTITY: Update entity position (mode=1)
  3: 0x0104 [0x6F] WAIT_FRAME_DELAY: Yield until WaitTime reaches zero
  4: 0x0105 [0x00] END_REQSTACK()
```

### Event 65535.17

#### Metadata

| Field        | Value    |
|--------------|----------|
| Entrypoint   | 0x0106   |
| Data Size    | 15 bytes |
| Instructions | 5        |

```
      00 01 02 03 04 05 06 07  08 09 0A 0B 0C 0D 0E 0F
      -- -- -- -- -- -- -- --  -- -- -- -- -- -- -- --
0100:                   32 0B  80 1F 00 0F 80 10 80 06        2.........
0110: 80 1F 01 6F 00                                    ...o.           
```

#### Opcodes

```
  0: 0x0106 [0x32] ExtData[1]->MainSpeed = 13* * 0.1
  1: 0x0109 [0x1F] MOVE_ENTITY: EventEntity moves to X=-40.376*, Z=82.852*, Y=-4.999*
  2: 0x0111 [0x1F] MOVE_ENTITY: Update entity position (mode=1)
  3: 0x0113 [0x6F] WAIT_FRAME_DELAY: Yield until WaitTime reaches zero
  4: 0x0114 [0x00] END_REQSTACK()
```

### Event 65535.18

#### Metadata

| Field        | Value    |
|--------------|----------|
| Entrypoint   | 0x0115   |
| Data Size    | 15 bytes |
| Instructions | 5        |

```
      00 01 02 03 04 05 06 07  08 09 0A 0B 0C 0D 0E 0F
      -- -- -- -- -- -- -- --  -- -- -- -- -- -- -- --
0110:                32 0B 80  1F 00 11 80 12 80 06 80       2..........
0120: 1F 01 6F 00                                       ..o.            
```

#### Opcodes

```
  0: 0x0115 [0x32] ExtData[1]->MainSpeed = 13* * 0.1
  1: 0x0118 [0x1F] MOVE_ENTITY: EventEntity moves to X=-41.367*, Z=85.265*, Y=-4.999*
  2: 0x0120 [0x1F] MOVE_ENTITY: Update entity position (mode=1)
  3: 0x0122 [0x6F] WAIT_FRAME_DELAY: Yield until WaitTime reaches zero
  4: 0x0123 [0x00] END_REQSTACK()
```

### Event 65535.19

#### Metadata

| Field        | Value    |
|--------------|----------|
| Entrypoint   | 0x0124   |
| Data Size    | 17 bytes |
| Instructions | 6        |

```
      00 01 02 03 04 05 06 07  08 09 0A 0B 0C 0D 0E 0F
      -- -- -- -- -- -- -- --  -- -- -- -- -- -- -- --
0120:             32 08 80 1F  00 13 80 14 80 06 80 1F      2...........
0130: 01 6F 22 01 00                                    .o"..           
```

#### Opcodes

```
  0: 0x0124 [0x32] ExtData[1]->MainSpeed = 40* * 0.1
  1: 0x0127 [0x1F] MOVE_ENTITY: EventEntity moves to X=-40.378*, Z=109.873*, Y=-4.999*
  2: 0x012F [0x1F] MOVE_ENTITY: Update entity position (mode=1)
  3: 0x0131 [0x6F] WAIT_FRAME_DELAY: Yield until WaitTime reaches zero
  4: 0x0132 [0x22] ENTITY_HIDE_FLAG(enabled=0x01)
  5: 0x0134 [0x00] END_REQSTACK()
```

### Event 65535.20

#### Metadata

| Field        | Value   |
|--------------|---------|
| Entrypoint   | 0x0135  |
| Data Size    | 5 bytes |
| Instructions | 3       |

```
      00 01 02 03 04 05 06 07  08 09 0A 0B 0C 0D 0E 0F
      -- -- -- -- -- -- -- --  -- -- -- -- -- -- -- --
0130:                1D 15 80  23 00                         ...#.      
```

#### Opcodes

```
  0: 0x0135 [0x1D] PRINT_EVENT_MESSAGE(message_id=8614*)
    → "Ajido-Marujido!!! Are you bothering another poor adventurer?"
  1: 0x0138 [0x23] WAIT_FOR_DIALOG_INTERACTION
  2: 0x0139 [0x00] END_REQSTACK()
```

### Event 65535.21

#### Metadata

| Field        | Value    |
|--------------|----------|
| Entrypoint   | 0x013A   |
| Data Size    | 19 bytes |
| Instructions | 5        |

```
      00 01 02 03 04 05 06 07  08 09 0A 0B 0C 0D 0E 0F
      -- -- -- -- -- -- -- --  -- -- -- -- -- -- -- --
0130:                                29 08 0B E0 0E 01            ).....
0140: 07 1D 16 80 23 29 08 0B  E0 0E 01 0E 00           ....#).......   
```

#### Opcodes

```
  0: 0x013A [0x29] REQ_SET_WAIT(priority=0x08, entity_id=Apururu (ID: 17752075/0x010EE00B), tag_num=0x07)
  1: 0x0141 [0x1D] PRINT_EVENT_MESSAGE(message_id=8615*)
    → "Excuse my big brother, friend. I am sure you were in the middle of something important before he rudely interrupted you."
  2: 0x0144 [0x23] WAIT_FOR_DIALOG_INTERACTION
  3: 0x0145 [0x29] REQ_SET_WAIT(priority=0x08, entity_id=Apururu (ID: 17752075/0x010EE00B), tag_num=0x0E)
  4: 0x014C [0x00] END_REQSTACK()
```

### Event 65535.22

#### Metadata

| Field        | Value    |
|--------------|----------|
| Entrypoint   | 0x014D   |
| Data Size    | 19 bytes |
| Instructions | 5        |

```
      00 01 02 03 04 05 06 07  08 09 0A 0B 0C 0D 0E 0F
      -- -- -- -- -- -- -- --  -- -- -- -- -- -- -- --
0140:                                         29 08 0B               )..
0150: E0 0E 01 01 1D 17 80 23  29 08 0B E0 0E 01 0E 00  .......#).......
```

#### Opcodes

```
  0: 0x014D [0x29] REQ_SET_WAIT(priority=0x08, entity_id=Apururu (ID: 17752075/0x010EE00B), tag_num=0x01)
  1: 0x0154 [0x1D] PRINT_EVENT_MESSAGE(message_id=8617*)
    → "Is that so? Excuse me for asking, but...you wouldn't happen to be new to Windurst, would you?"
  2: 0x0157 [0x23] WAIT_FOR_DIALOG_INTERACTION
  3: 0x0158 [0x29] REQ_SET_WAIT(priority=0x08, entity_id=Apururu (ID: 17752075/0x010EE00B), tag_num=0x0E)
  4: 0x015F [0x00] END_REQSTACK()
```

### Event 65535.23

#### Metadata

| Field        | Value    |
|--------------|----------|
| Entrypoint   | 0x0160   |
| Data Size    | 23 bytes |
| Instructions | 7        |

```
      00 01 02 03 04 05 06 07  08 09 0A 0B 0C 0D 0E 0F
      -- -- -- -- -- -- -- --  -- -- -- -- -- -- -- --
0160: 29 08 0B E0 0E 01 01 1D  18 80 23 1D 19 80 23 29  ).........#...#)
0170: 08 0B E0 0E 01 0E 00                              .......         
```

#### Opcodes

```
  0: 0x0160 [0x29] REQ_SET_WAIT(priority=0x08, entity_id=Apururu (ID: 17752075/0x010EE00B), tag_num=0x01)
  1: 0x0167 [0x1D] PRINT_EVENT_MESSAGE(message_id=8619*)
    → "Well then, allow me to give you some tips. Windurstians are obliged to show kindness to those new to our neighborhood."
  2: 0x016A [0x23] WAIT_FOR_DIALOG_INTERACTION
  3: 0x016B [0x1D] PRINT_EVENT_MESSAGE(message_id=8620*)
    → "So, what do you want to know? Is there anything you need to do in particular? If so, don't be afraid to ask sweet Apururu!"
  4: 0x016E [0x23] WAIT_FOR_DIALOG_INTERACTION
  5: 0x016F [0x29] REQ_SET_WAIT(priority=0x08, entity_id=Apururu (ID: 17752075/0x010EE00B), tag_num=0x0E)
  6: 0x0176 [0x00] END_REQSTACK()
```

### Event 65535.24

#### Metadata

| Field        | Value    |
|--------------|----------|
| Entrypoint   | 0x0177   |
| Data Size    | 23 bytes |
| Instructions | 7        |

```
      00 01 02 03 04 05 06 07  08 09 0A 0B 0C 0D 0E 0F
      -- -- -- -- -- -- -- --  -- -- -- -- -- -- -- --
0170:                      29  08 0B E0 0E 01 01 1D 1A         )........
0180: 80 23 1D 1B 80 23 29 08  0B E0 0E 01 0E 00        .#...#).......  
```

#### Opcodes

```
  0: 0x0177 [0x29] REQ_SET_WAIT(priority=0x08, entity_id=Apururu (ID: 17752075/0x010EE00B), tag_num=0x01)
  1: 0x017E [0x1D] PRINT_EVENT_MESSAGE(message_id=8622*)
    → "Oh, don't get the wrong impression. We just haven't seen you around these parts before..."
  2: 0x0181 [0x23] WAIT_FOR_DIALOG_INTERACTION
  3: 0x0182 [0x1D] PRINT_EVENT_MESSAGE(message_id=8623*)
    → "So, hey, erm... Where are you heading? Do you want to chat a little?"
  4: 0x0185 [0x23] WAIT_FOR_DIALOG_INTERACTION
  5: 0x0186 [0x29] REQ_SET_WAIT(priority=0x08, entity_id=Apururu (ID: 17752075/0x010EE00B), tag_num=0x0E)
  6: 0x018D [0x00] END_REQSTACK()
```

### Event 65535.25

#### Metadata

| Field        | Value    |
|--------------|----------|
| Entrypoint   | 0x018E   |
| Data Size    | 19 bytes |
| Instructions | 5        |

```
      00 01 02 03 04 05 06 07  08 09 0A 0B 0C 0D 0E 0F
      -- -- -- -- -- -- -- --  -- -- -- -- -- -- -- --
0180:                                            29 08                ).
0190: 0B E0 0E 01 01 1D 1C 80  23 29 08 0B E0 0E 01 0E  ........#)......
01A0: 00                                                .               
```

#### Opcodes

```
  0: 0x018E [0x29] REQ_SET_WAIT(priority=0x08, entity_id=Apururu (ID: 17752075/0x010EE00B), tag_num=0x01)
  1: 0x0195 [0x1D] PRINT_EVENT_MESSAGE(message_id=8625*)
    → "Goodness-woodness! You've just arrived, and the first thing you want to do is run off to fightaru?"
  2: 0x0198 [0x23] WAIT_FOR_DIALOG_INTERACTION
  3: 0x0199 [0x29] REQ_SET_WAIT(priority=0x08, entity_id=Apururu (ID: 17752075/0x010EE00B), tag_num=0x0E)
  4: 0x01A0 [0x00] END_REQSTACK()
```

### Event 65535.26

#### Metadata

| Field        | Value   |
|--------------|---------|
| Entrypoint   | 0x01A1  |
| Data Size    | 5 bytes |
| Instructions | 3       |

```
      00 01 02 03 04 05 06 07  08 09 0A 0B 0C 0D 0E 0F
      -- -- -- -- -- -- -- --  -- -- -- -- -- -- -- --
01A0:    1D 1D 80 23 00                                  ...#.          
```

#### Opcodes

```
  0: 0x01A1 [0x1D] PRINT_EVENT_MESSAGE(message_id=8627*)
    → "Ajido-Marujido!!! Bite your tongue!"
  1: 0x01A4 [0x23] WAIT_FOR_DIALOG_INTERACTION
  2: 0x01A5 [0x00] END_REQSTACK()
```

### Event 65535.27

#### Metadata

| Field        | Value    |
|--------------|----------|
| Entrypoint   | 0x01A6   |
| Data Size    | 19 bytes |
| Instructions | 5        |

```
      00 01 02 03 04 05 06 07  08 09 0A 0B 0C 0D 0E 0F
      -- -- -- -- -- -- -- --  -- -- -- -- -- -- -- --
01A0:                   29 08  0B E0 0E 01 01 1D 1D 80        ).........
01B0: 23 29 08 0B E0 0E 01 0E  00                       #).......       
```

#### Opcodes

```
  0: 0x01A6 [0x29] REQ_SET_WAIT(priority=0x08, entity_id=Apururu (ID: 17752075/0x010EE00B), tag_num=0x01)
  1: 0x01AD [0x1D] PRINT_EVENT_MESSAGE(message_id=8627*)
    → "Ajido-Marujido!!! Bite your tongue!"
  2: 0x01B0 [0x23] WAIT_FOR_DIALOG_INTERACTION
  3: 0x01B1 [0x29] REQ_SET_WAIT(priority=0x08, entity_id=Apururu (ID: 17752075/0x010EE00B), tag_num=0x0E)
  4: 0x01B8 [0x00] END_REQSTACK()
```

### Event 65535.28

#### Metadata

| Field        | Value   |
|--------------|---------|
| Entrypoint   | 0x01B9  |
| Data Size    | 5 bytes |
| Instructions | 3       |

```
      00 01 02 03 04 05 06 07  08 09 0A 0B 0C 0D 0E 0F
      -- -- -- -- -- -- -- --  -- -- -- -- -- -- -- --
01B0:                             1D 1E 80 23 00                 ...#.  
```

#### Opcodes

```
  0: 0x01B9 [0x1D] PRINT_EVENT_MESSAGE(message_id=8629*)
    → "I'm ignoring my brother... The quickest way for you to die a horrible, unnecessary death is to go back along that road behind us."
  1: 0x01BC [0x23] WAIT_FOR_DIALOG_INTERACTION
  2: 0x01BD [0x00] END_REQSTACK()
```

### Event 65535.29

#### Metadata

| Field        | Value   |
|--------------|---------|
| Entrypoint   | 0x01BE  |
| Data Size    | 5 bytes |
| Instructions | 3       |

```
      00 01 02 03 04 05 06 07  08 09 0A 0B 0C 0D 0E 0F
      -- -- -- -- -- -- -- --  -- -- -- -- -- -- -- --
01B0:                                            1D 1F                ..
01C0: 80 23 00                                          .#.             
```

#### Opcodes

```
  0: 0x01BE [0x1D] PRINT_EVENT_MESSAGE(message_id=8630*)
    → "That will lead you to a stone gatehouse. On the other side of the town gates is Sarutabaruta. It's dangerous out there, so be careful."
  1: 0x01C1 [0x23] WAIT_FOR_DIALOG_INTERACTION
  2: 0x01C2 [0x00] END_REQSTACK()
```

### Event 65535.30

#### Metadata

| Field        | Value    |
|--------------|----------|
| Entrypoint   | 0x01C3   |
| Data Size    | 23 bytes |
| Instructions | 7        |

```
      00 01 02 03 04 05 06 07  08 09 0A 0B 0C 0D 0E 0F
      -- -- -- -- -- -- -- --  -- -- -- -- -- -- -- --
01C0:          29 08 0B E0 0E  01 01 1D 20 80 23 1D 21     )....... .#.!
01D0: 80 23 29 08 0B E0 0E 01  0E 00                    .#).......      
```

#### Opcodes

```
  0: 0x01C3 [0x29] REQ_SET_WAIT(priority=0x08, entity_id=Apururu (ID: 17752075/0x010EE00B), tag_num=0x01)
  1: 0x01CA [0x1D] PRINT_EVENT_MESSAGE(message_id=8631*)
    → "Say, you know how to "check" a monster and see how strong it is before you attack it, rightaru?"
  2: 0x01CD [0x23] WAIT_FOR_DIALOG_INTERACTION
  3: 0x01CE [0x1D] PRINT_EVENT_MESSAGE(message_id=8632*)
    → "Target your opponent and choose "Check" from the action menu. This will tell you the creature's strength relative to your current level."
  4: 0x01D1 [0x23] WAIT_FOR_DIALOG_INTERACTION
  5: 0x01D2 [0x29] REQ_SET_WAIT(priority=0x08, entity_id=Apururu (ID: 17752075/0x010EE00B), tag_num=0x0E)
  6: 0x01D9 [0x00] END_REQSTACK()
```

### Event 65535.31

#### Metadata

| Field        | Value   |
|--------------|---------|
| Entrypoint   | 0x01DA  |
| Data Size    | 5 bytes |
| Instructions | 3       |

```
      00 01 02 03 04 05 06 07  08 09 0A 0B 0C 0D 0E 0F
      -- -- -- -- -- -- -- --  -- -- -- -- -- -- -- --
01D0:                                1D 22 80 23 00               .".#. 
```

#### Opcodes

```
  0: 0x01DA [0x1D] PRINT_EVENT_MESSAGE(message_id=8633*)
    → "Don't attack opponents who you can't beataru. If you get into trouble, you can always select "Call for Help" to ask for assistance from the people around you..."
  1: 0x01DD [0x23] WAIT_FOR_DIALOG_INTERACTION
  2: 0x01DE [0x00] END_REQSTACK()
```

### Event 65535.32

#### Metadata

| Field        | Value    |
|--------------|----------|
| Entrypoint   | 0x01DF   |
| Data Size    | 19 bytes |
| Instructions | 5        |

```
      00 01 02 03 04 05 06 07  08 09 0A 0B 0C 0D 0E 0F
      -- -- -- -- -- -- -- --  -- -- -- -- -- -- -- --
01D0:                                               29                 )
01E0: 08 0B E0 0E 01 01 1D 23  80 23 29 08 0B E0 0E 01  .......#.#).....
01F0: 0E 00                                             ..              
```

#### Opcodes

```
  0: 0x01DF [0x29] REQ_SET_WAIT(priority=0x08, entity_id=Apururu (ID: 17752075/0x010EE00B), tag_num=0x01)
  1: 0x01E6 [0x1D] PRINT_EVENT_MESSAGE(message_id=8636*)
    → "Yes, my brother is correct for once...even though his manners could use some work."
  2: 0x01E9 [0x23] WAIT_FOR_DIALOG_INTERACTION
  3: 0x01EA [0x29] REQ_SET_WAIT(priority=0x08, entity_id=Apururu (ID: 17752075/0x010EE00B), tag_num=0x0E)
  4: 0x01F1 [0x00] END_REQSTACK()
```

### Event 65535.33

#### Metadata

| Field        | Value    |
|--------------|----------|
| Entrypoint   | 0x01F2   |
| Data Size    | 19 bytes |
| Instructions | 5        |

```
      00 01 02 03 04 05 06 07  08 09 0A 0B 0C 0D 0E 0F
      -- -- -- -- -- -- -- --  -- -- -- -- -- -- -- --
01F0:       29 08 0B E0 0E 01  01 1D 24 80 23 29 08 0B    ).......$.#)..
0200: E0 0E 01 0E 00                                    .....           
```

#### Opcodes

```
  0: 0x01F2 [0x29] REQ_SET_WAIT(priority=0x08, entity_id=Apururu (ID: 17752075/0x010EE00B), tag_num=0x01)
  1: 0x01F9 [0x1D] PRINT_EVENT_MESSAGE(message_id=8638*)
    → "Oh, and if you gather too many items to hold, head on down to Windurst's residential area."
  2: 0x01FC [0x23] WAIT_FOR_DIALOG_INTERACTION
  3: 0x01FD [0x29] REQ_SET_WAIT(priority=0x08, entity_id=Apururu (ID: 17752075/0x010EE00B), tag_num=0x0E)
  4: 0x0204 [0x00] END_REQSTACK()
```

### Event 65535.34

#### Metadata

| Field        | Value    |
|--------------|----------|
| Entrypoint   | 0x0205   |
| Data Size    | 27 bytes |
| Instructions | 9        |

```
      00 01 02 03 04 05 06 07  08 09 0A 0B 0C 0D 0E 0F
      -- -- -- -- -- -- -- --  -- -- -- -- -- -- -- --
0200:                29 08 0B  E0 0E 01 01 1D 25 80 23       ).......%.#
0210: 1D 26 80 23 1D 27 80 23  29 08 0B E0 0E 01 0E 00  .&.#.'.#).......
```

#### Opcodes

```
  0: 0x0205 [0x29] REQ_SET_WAIT(priority=0x08, entity_id=Apururu (ID: 17752075/0x010EE00B), tag_num=0x01)
  1: 0x020C [0x1D] PRINT_EVENT_MESSAGE(message_id=8639*)
    → "Each and every Windurstian citizen has their own personal residence, or Mog House, set aside for them. You can store your items in your room's Mog Safe."
  2: 0x020F [0x23] WAIT_FOR_DIALOG_INTERACTION
  3: 0x0210 [0x1D] PRINT_EVENT_MESSAGE(message_id=8640*)
    → "The residential area of Windurst is to the east of here. Head over the bridge into the neighboring Windurst Walls district and go to the right."
  4: 0x0213 [0x23] WAIT_FOR_DIALOG_INTERACTION
  5: 0x0214 [0x1D] PRINT_EVENT_MESSAGE(message_id=8641*)
    → "I'm sure these pearls of wisdom will help you as you set out on your new adventures. Don't forgetaru them, now!"
  6: 0x0217 [0x23] WAIT_FOR_DIALOG_INTERACTION
  7: 0x0218 [0x29] REQ_SET_WAIT(priority=0x08, entity_id=Apururu (ID: 17752075/0x010EE00B), tag_num=0x0E)
  8: 0x021F [0x00] END_REQSTACK()
```

### Event 65535.35

#### Metadata

| Field        | Value   |
|--------------|---------|
| Entrypoint   | 0x0220  |
| Data Size    | 5 bytes |
| Instructions | 3       |

```
      00 01 02 03 04 05 06 07  08 09 0A 0B 0C 0D 0E 0F
      -- -- -- -- -- -- -- --  -- -- -- -- -- -- -- --
0220: 1D 28 80 23 00                                    .(.#.           
```

#### Opcodes

```
  0: 0x0220 [0x1D] PRINT_EVENT_MESSAGE(message_id=8643*)
    → "Wait a second, brother-wother!"
  1: 0x0223 [0x23] WAIT_FOR_DIALOG_INTERACTION
  2: 0x0224 [0x00] END_REQSTACK()
```

### Event 65535.36

#### Metadata

| Field        | Value     |
|--------------|-----------|
| Entrypoint   | 0x0225    |
| Data Size    | 325 bytes |
| Instructions | 43        |

```
      00 01 02 03 04 05 06 07  08 09 0A 0B 0C 0D 0E 0F
      -- -- -- -- -- -- -- --  -- -- -- -- -- -- -- --
0220:                29 08 0B  E0 0E 01 01 1D 29 80 23       ).......).#
0230: 29 08 0B E0 0E 01 0E 02  09 10 2A 80 00 51 02 52  ).........*..Q.R
0240: 2B 80 F0 FF FF 7F F0 FF  FF 7F 73 30 37 37 01 94  +.........s077..
0250: 02 02 09 10 2C 80 00 6B  02 52 2B 80 F0 FF FF 7F  ....,..k.R+.....
0260: F0 FF FF 7F 73 30 37 37  01 94 02 02 09 10 2D 80  ....s077......-.
0270: 00 85 02 52 2B 80 F0 FF  FF 7F F0 FF FF 7F 73 30  ...R+.........s0
0280: 38 33 01 94 02 52 2B 80  F0 FF FF 7F F0 FF FF 7F  83...R+.........
0290: 73 30 32 37 45 2B 80 F0  FF FF 7F F0 FF FF 7F 73  s027E+.........s
02A0: 30 38 38 2E 80 1D 2F 80  23 52 2B 80 F0 FF FF 7F  088.../.#R+.....
02B0: F0 FF FF 7F 73 30 38 38  02 09 10 2A 80 00 D4 02  ....s088...*....
02C0: 45 2B 80 F0 FF FF 7F F0  FF FF 7F 73 30 37 37 2E  E+.........s077.
02D0: 80 01 1D 03 02 09 10 2C  80 00 F0 02 45 2B 80 F0  .......,....E+..
02E0: FF FF 7F F0 FF FF 7F 73  30 37 37 2E 80 01 1D 03  .......s077.....
02F0: 02 09 10 2D 80 00 0C 03  45 2B 80 F0 FF FF 7F F0  ...-....E+......
0300: FF FF 7F 73 30 38 33 2E  80 01 1D 03 45 2B 80 F0  ...s083.....E+..
0310: FF FF 7F F0 FF FF 7F 73  30 32 37 2E 80 29 08 0B  .......s027..)..
0320: E0 0E 01 08 1D 30 80 23  29 08 0B E0 0E 01 09 C8  .....0.#).......
0330: 31 80 32 80 32 80 8B 31  80 2E 80 33 80 34 80 4A  1.2.2..1...3.4.J
0340: 61 63 6B 5F 6F 66 5F 48  65 61 72 74 73 00 00 1D  ack_of_Hearts...
0350: 35 80 23 8A 1C 03 80 29  08 0B E0 0E 01 0C 1D 36  5.#....).......6
0360: 80 23 29 08 0B E0 0E 01  0D 00                    .#).......      
```

#### Opcodes

```
  0: 0x0225 [0x29] REQ_SET_WAIT(priority=0x08, entity_id=Apururu (ID: 17752075/0x010EE00B), tag_num=0x01)
  1: 0x022C [0x1D] PRINT_EVENT_MESSAGE(message_id=8644*)
    → "Sorry, but I have to go, too. If you need to know more, just ask our friend, Jack of Hearts. He's on patrol in the vicinity of the Huntman's Court."
  2: 0x022F [0x23] WAIT_FOR_DIALOG_INTERACTION
  3: 0x0230 [0x29] REQ_SET_WAIT(priority=0x08, entity_id=Apururu (ID: 17752075/0x010EE00B), tag_num=0x0E)
  4: 0x0237 [0x02] IF !(Work_Zone[9] == 5*) GOTO 0x0251
  5: 0x023F [0x52] END_LOAD_SCHEDULER: End scheduler "s077" with entities [LocalPlayer, LocalPlayer], work=138*
  6: 0x024E [0x01] GOTO 0x0294
  7: 0x0251 [0x02] IF !(Work_Zone[9] == 6*) GOTO 0x026B
  8: 0x0259 [0x52] END_LOAD_SCHEDULER: End scheduler "s077" with entities [LocalPlayer, LocalPlayer], work=138*
  9: 0x0268 [0x01] GOTO 0x0294
 10: 0x026B [0x02] IF !(Work_Zone[9] == 8*) GOTO 0x0285
 11: 0x0273 [0x52] END_LOAD_SCHEDULER: End scheduler "s083" with entities [LocalPlayer, LocalPlayer], work=138*
 12: 0x0282 [0x01] GOTO 0x0294
 13: 0x0285 [0x52] END_LOAD_SCHEDULER: End scheduler "s027" with entities [LocalPlayer, LocalPlayer], work=138*

SUBROUTINE_0294:
 14: 0x0294 [0x45] LOAD_SCHEDULED_TASK: Load scheduler "s088" with entities [LocalPlayer, LocalPlayer], work=[138*, 0*]
 15: 0x02A5 [0x1D] PRINT_EVENT_MESSAGE(message_id=7082*)
    → "Jackkedy-Wack is what we in Windurst call a "Cardian.""
 16: 0x02A8 [0x23] WAIT_FOR_DIALOG_INTERACTION
 17: 0x02A9 [0x52] END_LOAD_SCHEDULER: End scheduler "s088" with entities [LocalPlayer, LocalPlayer], work=138*
 18: 0x02B8 [0x02] IF !(Work_Zone[9] == 5*) GOTO 0x02D4
 19: 0x02C0 [0x45] LOAD_SCHEDULED_TASK: Load scheduler "s077" with entities [LocalPlayer, LocalPlayer], work=[138*, 0*]
 20: 0x02D1 [0x01] GOTO 0x031D
 21: 0x02D4 [0x02] IF !(Work_Zone[9] == 6*) GOTO 0x02F0
 22: 0x02DC [0x45] LOAD_SCHEDULED_TASK: Load scheduler "s077" with entities [LocalPlayer, LocalPlayer], work=[138*, 0*]
 23: 0x02ED [0x01] GOTO 0x031D
 24: 0x02F0 [0x02] IF !(Work_Zone[9] == 8*) GOTO 0x030C
 25: 0x02F8 [0x45] LOAD_SCHEDULED_TASK: Load scheduler "s083" with entities [LocalPlayer, LocalPlayer], work=[138*, 0*]
 26: 0x0309 [0x01] GOTO 0x031D
 27: 0x030C [0x45] LOAD_SCHEDULED_TASK: Load scheduler "s027" with entities [LocalPlayer, LocalPlayer], work=[138*, 0*]

SUBROUTINE_031D:
 28: 0x031D [0x29] REQ_SET_WAIT(priority=0x08, entity_id=Apururu (ID: 17752075/0x010EE00B), tag_num=0x08)
 29: 0x0324 [0x1D] PRINT_EVENT_MESSAGE(message_id=8645*)
    → "Here. If you give him this, I'm sure he'll reward you. To pass him the item, target him and select "Trade" from the main menu."
 30: 0x0327 [0x23] WAIT_FOR_DIALOG_INTERACTION
 31: 0x0328 [0x29] REQ_SET_WAIT(priority=0x08, entity_id=Apururu (ID: 17752075/0x010EE00B), tag_num=0x09)
 32: 0x032F [0xC8] OPEN_MAP_WINDOW(zone=0x8031, submap=0x8032, flag=0x8032)
 33: 0x0336 [0x8B] SET_EVENT_MARK: Add/update map marker on map 238* at (-35.957*, 59.519*), index=0*, name=(no name)
 34: 0x033F [0x4A] Unknown NPC (ID: 1600873313/0x5F6B6361) looks at Unknown NPC (ID: 1214211695/0x485F666F)
 35: 0x0348 [0x65] CALCULATE_3D_DISTANCE(result=0x7261, entity1=Unknown NPC (ID: 29556/0x00007374), entity2=Unknown NPC (ID: 595604765/0x2380351D))
 36: 0x0353 [0x8A] CLOSE_MAP()
 37: 0x0354 [0x1C] WAIT(30* ticks)
 38: 0x0357 [0x29] REQ_SET_WAIT(priority=0x08, entity_id=Apururu (ID: 17752075/0x010EE00B), tag_num=0x0C)
 39: 0x035E [0x1D] PRINT_EVENT_MESSAGE(message_id=8646*)
    → "I hope we meet again soon. Good luck, adventurer!"
 40: 0x0361 [0x23] WAIT_FOR_DIALOG_INTERACTION
 41: 0x0362 [0x29] REQ_SET_WAIT(priority=0x08, entity_id=Apururu (ID: 17752075/0x010EE00B), tag_num=0x0D)
 42: 0x0369 [0x00] END_REQSTACK()
```

### Event 65535.37

#### Metadata

| Field        | Value   |
|--------------|---------|
| Entrypoint   | 0x036A  |
| Data Size    | 5 bytes |
| Instructions | 3       |

```
      00 01 02 03 04 05 06 07  08 09 0A 0B 0C 0D 0E 0F
      -- -- -- -- -- -- -- --  -- -- -- -- -- -- -- --
0360:                                1D 37 80 23 00               .7.#. 
```

#### Opcodes

```
  0: 0x036A [0x1D] PRINT_EVENT_MESSAGE(message_id=8647*)
    → "Now you're talking my language! Shopping is my specialty."
  1: 0x036D [0x23] WAIT_FOR_DIALOG_INTERACTION
  2: 0x036E [0x00] END_REQSTACK()
```

### Event 65535.38

#### Metadata

| Field        | Value   |
|--------------|---------|
| Entrypoint   | 0x036F  |
| Data Size    | 5 bytes |
| Instructions | 3       |

```
      00 01 02 03 04 05 06 07  08 09 0A 0B 0C 0D 0E 0F
      -- -- -- -- -- -- -- --  -- -- -- -- -- -- -- --
0360:                                               1D                 .
0370: 38 80 23 00                                       8.#.            
```

#### Opcodes

```
  0: 0x036F [0x1D] PRINT_EVENT_MESSAGE(message_id=8648*)
    → "There are three shops in the Windurst Waters area: a general goods store, a magic dealer, and a milliner."
  1: 0x0372 [0x23] WAIT_FOR_DIALOG_INTERACTION
  2: 0x0373 [0x00] END_REQSTACK()
```

### Event 65535.39

#### Metadata

| Field        | Value   |
|--------------|---------|
| Entrypoint   | 0x0374  |
| Data Size    | 9 bytes |
| Instructions | 5       |

```
      00 01 02 03 04 05 06 07  08 09 0A 0B 0C 0D 0E 0F
      -- -- -- -- -- -- -- --  -- -- -- -- -- -- -- --
0370:             1D 39 80 23  1D 3A 80 23 00               .9.#.:.#.   
```

#### Opcodes

```
  0: 0x0374 [0x1D] PRINT_EVENT_MESSAGE(message_id=8649*)
    → "Firstly-wirstly, the general goods store, Ensasa's Catalyst Shop, is a fine place for your basic shopping needs."
  1: 0x0377 [0x23] WAIT_FOR_DIALOG_INTERACTION
  2: 0x0378 [0x1D] PRINT_EVENT_MESSAGE(message_id=8650*)
    → "Not too pricey, and with good service. I recommend it for items such as potions and ether, but they have quite a selection of other items, too."
  3: 0x037B [0x23] WAIT_FOR_DIALOG_INTERACTION
  4: 0x037C [0x00] END_REQSTACK()
```

### Event 65535.40

#### Metadata

| Field        | Value   |
|--------------|---------|
| Entrypoint   | 0x037D  |
| Data Size    | 5 bytes |
| Instructions | 3       |

```
      00 01 02 03 04 05 06 07  08 09 0A 0B 0C 0D 0E 0F
      -- -- -- -- -- -- -- --  -- -- -- -- -- -- -- --
0370:                                         1D 3B 80               .;.
0380: 23 00                                             #.              
```

#### Opcodes

```
  0: 0x037D [0x1D] PRINT_EVENT_MESSAGE(message_id=8651*)
    → "Secondly-wecondly, there's the Federal Magic Reserve, and thirdly-wirdly, Baren-Moren the Hatter. These are both to the south of here, across the bridge."
  1: 0x0380 [0x23] WAIT_FOR_DIALOG_INTERACTION
  2: 0x0381 [0x00] END_REQSTACK()
```

### Event 65535.41

#### Metadata

| Field        | Value    |
|--------------|----------|
| Entrypoint   | 0x0382   |
| Data Size    | 13 bytes |
| Instructions | 7        |

```
      00 01 02 03 04 05 06 07  08 09 0A 0B 0C 0D 0E 0F
      -- -- -- -- -- -- -- --  -- -- -- -- -- -- -- --
0380:       1D 3C 80 23 1D 3D  80 23 1D 3E 80 23 00       .<.#.=.#.>.#. 
```

#### Opcodes

```
  0: 0x0382 [0x1D] PRINT_EVENT_MESSAGE(message_id=8652*)
    → "Baren-Moren the Hatter, as his name implies, deals in all kinds of headwear."
  1: 0x0385 [0x23] WAIT_FOR_DIALOG_INTERACTION
  2: 0x0386 [0x1D] PRINT_EVENT_MESSAGE(message_id=8653*)
    → "Hee-hee. We Tarutaru take great pride in our headwear. A hat speaks volumes about the kind of Tarutaru you are."
  3: 0x0389 [0x23] WAIT_FOR_DIALOG_INTERACTION
  4: 0x038A [0x1D] PRINT_EVENT_MESSAGE(message_id=8654*)
    → "The hatter, Baren-Moren, is always looking for help in publicizing his wares. Many a new adventurer has earned pocket money there."
  5: 0x038D [0x23] WAIT_FOR_DIALOG_INTERACTION
  6: 0x038E [0x00] END_REQSTACK()
```

### Event 65535.42

#### Metadata

| Field        | Value   |
|--------------|---------|
| Entrypoint   | 0x038F  |
| Data Size    | 9 bytes |
| Instructions | 5       |

```
      00 01 02 03 04 05 06 07  08 09 0A 0B 0C 0D 0E 0F
      -- -- -- -- -- -- -- --  -- -- -- -- -- -- -- --
0380:                                               1D                 .
0390: 3F 80 23 1D 40 80 23 00                           ?.#.@.#.        
```

#### Opcodes

```
  0: 0x038F [0x1D] PRINT_EVENT_MESSAGE(message_id=8655*)
    → "The Federal Magic Reserve next door to Baren-Moren's is one of two magic shops in Windurst. It deals in higher-level magic."
  1: 0x0392 [0x23] WAIT_FOR_DIALOG_INTERACTION
  2: 0x0393 [0x1D] PRINT_EVENT_MESSAGE(message_id=8656*)
    → "But you're just a beginner, so I don't think you'll be needing their services rightaru away. Then again, it pays to know these things for the future."
  3: 0x0396 [0x23] WAIT_FOR_DIALOG_INTERACTION
  4: 0x0397 [0x00] END_REQSTACK()
```

### Event 65535.43

#### Metadata

| Field        | Value   |
|--------------|---------|
| Entrypoint   | 0x0398  |
| Data Size    | 5 bytes |
| Instructions | 3       |

```
      00 01 02 03 04 05 06 07  08 09 0A 0B 0C 0D 0E 0F
      -- -- -- -- -- -- -- --  -- -- -- -- -- -- -- --
0390:                          1D 41 80 23 00                   .A.#.   
```

#### Opcodes

```
  0: 0x0398 [0x1D] PRINT_EVENT_MESSAGE(message_id=8657*)
    → "If you're looking for beginner's magic or slightly stronger weapons and equipmentaru, you can always head to the port area, you know?"
  1: 0x039B [0x23] WAIT_FOR_DIALOG_INTERACTION
  2: 0x039C [0x00] END_REQSTACK()
```

### Event 65535.44

#### Metadata

| Field        | Value   |
|--------------|---------|
| Entrypoint   | 0x039D  |
| Data Size    | 9 bytes |
| Instructions | 5       |

```
      00 01 02 03 04 05 06 07  08 09 0A 0B 0C 0D 0E 0F
      -- -- -- -- -- -- -- --  -- -- -- -- -- -- -- --
0390:                                         1D 42 80               .B.
03A0: 23 1D 43 80 23 00                                 #.C.#.          
```

#### Opcodes

```
  0: 0x039D [0x1D] PRINT_EVENT_MESSAGE(message_id=8658*)
    → "To get to Port Windurst, head though the tunnel south of Baren-Moren's and the Federal Magic Reserve."
  1: 0x03A0 [0x23] WAIT_FOR_DIALOG_INTERACTION
  2: 0x03A1 [0x1D] PRINT_EVENT_MESSAGE(message_id=8659*)
    → "The port area has a weapon shop, an armorer, and a magic shop, all in a row of quaint little boats docked on the wharves. I would even recommend it just for the scenery."
  3: 0x03A4 [0x23] WAIT_FOR_DIALOG_INTERACTION
  4: 0x03A5 [0x00] END_REQSTACK()
```

### Event 65535.45

#### Metadata

| Field        | Value    |
|--------------|----------|
| Entrypoint   | 0x03A6   |
| Data Size    | 23 bytes |
| Instructions | 7        |

```
      00 01 02 03 04 05 06 07  08 09 0A 0B 0C 0D 0E 0F
      -- -- -- -- -- -- -- --  -- -- -- -- -- -- -- --
03A0:                   29 08  0B E0 0E 01 01 1D 44 80        ).......D.
03B0: 23 1D 45 80 23 29 08 0B  E0 0E 01 0E 00           #.E.#).......   
```

#### Opcodes

```
  0: 0x03A6 [0x29] REQ_SET_WAIT(priority=0x08, entity_id=Apururu (ID: 17752075/0x010EE00B), tag_num=0x01)
  1: 0x03AD [0x1D] PRINT_EVENT_MESSAGE(message_id=8660*)
    → "But as we shopping specialists know, you need plenty of money...cold, hard gil...to buy what you wantaru."
  2: 0x03B0 [0x23] WAIT_FOR_DIALOG_INTERACTION
  3: 0x03B1 [0x1D] PRINT_EVENT_MESSAGE(message_id=8661*)
    → "You can gain gil by selling raw materials and other items gained from defeating the monsters outside of town."
  4: 0x03B4 [0x23] WAIT_FOR_DIALOG_INTERACTION
  5: 0x03B5 [0x29] REQ_SET_WAIT(priority=0x08, entity_id=Apururu (ID: 17752075/0x010EE00B), tag_num=0x0E)
  6: 0x03BC [0x00] END_REQSTACK()
```

### Event 65535.46

#### Metadata

| Field        | Value    |
|--------------|----------|
| Entrypoint   | 0x03BD   |
| Data Size    | 19 bytes |
| Instructions | 5        |

```
      00 01 02 03 04 05 06 07  08 09 0A 0B 0C 0D 0E 0F
      -- -- -- -- -- -- -- --  -- -- -- -- -- -- -- --
03B0:                                         29 08 0B               )..
03C0: E0 0E 01 03 1D 46 80 23  29 08 0B E0 0E 01 05 00  .....F.#).......
```

#### Opcodes

```
  0: 0x03BD [0x29] REQ_SET_WAIT(priority=0x08, entity_id=Apururu (ID: 17752075/0x010EE00B), tag_num=0x03)
  1: 0x03C4 [0x1D] PRINT_EVENT_MESSAGE(message_id=8662*)
    → "Well, that's about all the advice I have for the novice adventurer."
  2: 0x03C7 [0x23] WAIT_FOR_DIALOG_INTERACTION
  3: 0x03C8 [0x29] REQ_SET_WAIT(priority=0x08, entity_id=Apururu (ID: 17752075/0x010EE00B), tag_num=0x05)
  4: 0x03CF [0x00] END_REQSTACK()
```

### Event 65535.47

#### Metadata

| Field        | Value     |
|--------------|-----------|
| Entrypoint   | 0x03D0    |
| Data Size    | 149 bytes |
| Instructions | 34        |

```
      00 01 02 03 04 05 06 07  08 09 0A 0B 0C 0D 0E 0F
      -- -- -- -- -- -- -- --  -- -- -- -- -- -- -- --
03D0: C8 31 80 32 80 32 80 8B  31 80 2E 80 33 80 34 80  .1.2.2..1...3.4.
03E0: 4A 61 63 6B 5F 6F 66 5F  48 65 61 72 74 73 00 00  Jack_of_Hearts..
03F0: 29 08 0B E0 0E 01 01 1D  47 80 23 29 08 0B E0 0E  ).......G.#)....
0400: 01 02 8A 1C 03 80 52 2B  80 F0 FF FF 7F F0 FF FF  ......R+........
0410: 7F 73 30 32 32 45 2B 80  F0 FF FF 7F F0 FF FF 7F  .s022E+.........
0420: 73 30 38 38 2E 80 1D 2F  80 23 52 2B 80 F0 FF FF  s088.../.#R+....
0430: 7F F0 FF FF 7F 73 30 38  38 45 2B 80 F0 FF FF 7F  .....s088E+.....
0440: F0 FF FF 7F 73 30 32 32  2E 80 29 08 0B E0 0E 01  ....s022..).....
0450: 08 1D 48 80 23 29 08 0B  E0 0E 01 09 1D 35 80 23  ..H.#).......5.#
0460: 1D 49 80 23 00                                    .I.#.           
```

#### Opcodes

```
  0: 0x03D0 [0xC8] OPEN_MAP_WINDOW(zone=0x8031, submap=0x8032, flag=0x8032)
  1: 0x03D7 [0x8B] SET_EVENT_MARK: Add/update map marker on map 238* at (-35.957*, 59.519*), index=0*, name=(no name)
  2: 0x03E0 [0x4A] Unknown NPC (ID: 1600873313/0x5F6B6361) looks at Unknown NPC (ID: 1214211695/0x485F666F)
  3: 0x03E9 [0x65] CALCULATE_3D_DISTANCE(result=0x7261, entity1=Unknown NPC (ID: 29556/0x00007374), entity2=Unknown NPC (ID: 3758819369/0xE00B0829))
  4: 0x03F4 [0x0E] 0x0101 |= 0x471D
  5: 0x03F9 [0x80] LOAD_WAIT(entity=Unknown NPC (ID: 185084195/0x0B082923))
  6: 0x03FE [0xE0] UNKNOWN_OPCODE_0xE0
  7: 0x03FF [0x0E] 0x0201 |= 0x1C8A
  8: 0x0404 [0x03] 0x5280 = 138*
  9: 0x0409 [0xF0] UNKNOWN_OPCODE_0xF0
 10: 0x040A [0xFF] UNKNOWN_OPCODE_0xFF
 11: 0x040B [0xFF] UNKNOWN_OPCODE_0xFF
 12: 0x040C [0x7F] WAIT_DIALOG_SELECT_ALT()
 13: 0x040D [0xF0] UNKNOWN_OPCODE_0xF0
 14: 0x040E [0xFF] UNKNOWN_OPCODE_0xFF
 15: 0x040F [0xFF] UNKNOWN_OPCODE_0xFF
 16: 0x0410 [0x7F] WAIT_DIALOG_SELECT_ALT()
 17: 0x0411 [0x73] Unknown NPC (ID: 2150319410/0x802B4532) casts magic 0x3230 on LocalPlayer
 18: 0x041C [0xF0] UNKNOWN_OPCODE_0xF0
 19: 0x041D [0xFF] UNKNOWN_OPCODE_0xFF
 20: 0x041E [0xFF] UNKNOWN_OPCODE_0xFF
 21: 0x041F [0x7F] WAIT_DIALOG_SELECT_ALT()
 22: 0x0420 [0x73] Unknown NPC (ID: 494939704/0x1D802E38) casts magic 0x3830 on Unknown NPC (ID: 1378058287/0x5223802F)
 23: 0x042B [0x2B] Unknown NPC (ID: 4294963328/0xFFFFF080) [0xF07F]:
 24: 0x0432 [0xFF] UNKNOWN_OPCODE_0xFF
 25: 0x0433 [0xFF] UNKNOWN_OPCODE_0xFF
 26: 0x0434 [0x7F] WAIT_DIALOG_SELECT_ALT()
 27: 0x0435 [0x73] Unknown NPC (ID: 2150319416/0x802B4538) casts magic 0x3830 on LocalPlayer
 28: 0x0440 [0xF0] UNKNOWN_OPCODE_0xF0
 29: 0x0441 [0xFF] UNKNOWN_OPCODE_0xFF
 30: 0x0442 [0xFF] UNKNOWN_OPCODE_0xFF
 31: 0x0443 [0x7F] WAIT_DIALOG_SELECT_ALT()
 32: 0x0444 [0x73] Unknown NPC (ID: 696266290/0x29802E32) casts magic 0x3230 on Unknown NPC (ID: 249563912/0x0EE00B08)
 33: 0x044F [0x01] GOTO 0x1D08
```

#### Data or dead code:

```
# Dead code (unreachable instructions):
     0x0452 [0x48] [System] [0x2380]:
    → "The reporters we dispatched to each of the different districts of Windurst haven't reported in at all. It's way past their deadline, too!"
     0x0455 [0x29] REQ_SET_WAIT(priority=0x08, entity_id=Apururu (ID: 17752075/0x010EE00B), tag_num=0x09)
     0x045C [0x1D] PRINT_EVENT_MESSAGE(message_id=7083*)
    → "I've placed-waced a marker on your map so you don't get confused! Check-weck-weck it by selecting "Markers" from the "Map" category in the main menu!"
     0x045F [0x23] WAIT_FOR_DIALOG_INTERACTION
     0x0460 [0x1D] PRINT_EVENT_MESSAGE(message_id=8666*)
    → "I hope we meet again soon. Good luck, my new adventurer friend!"
     0x0463 [0x23] WAIT_FOR_DIALOG_INTERACTION
     0x0464 [0x00] END_REQSTACK()
```

### Event 65535.48

#### Metadata

| Field        | Value   |
|--------------|---------|
| Entrypoint   | 0x0465  |
| Data Size    | 5 bytes |
| Instructions | 3       |

```
      00 01 02 03 04 05 06 07  08 09 0A 0B 0C 0D 0E 0F
      -- -- -- -- -- -- -- --  -- -- -- -- -- -- -- --
0460:                1D 4A 80  23 00                         .J.#.      
```

#### Opcodes

```
  0: 0x0465 [0x1D] PRINT_EVENT_MESSAGE(message_id=8670*)
    → "Oh, Ajido-Marujido!!! Bite your tongue!"
  1: 0x0468 [0x23] WAIT_FOR_DIALOG_INTERACTION
  2: 0x0469 [0x00] END_REQSTACK()
```

### Event 65535.49

#### Metadata

| Field        | Value   |
|--------------|---------|
| Entrypoint   | 0x046A  |
| Data Size    | 5 bytes |
| Instructions | 3       |

```
      00 01 02 03 04 05 06 07  08 09 0A 0B 0C 0D 0E 0F
      -- -- -- -- -- -- -- --  -- -- -- -- -- -- -- --
0460:                                1D 4B 80 23 00               .K.#. 
```

#### Opcodes

```
  0: 0x046A [0x1D] PRINT_EVENT_MESSAGE(message_id=8671*)
    → "Let me see... I can tell you all the helpful information I know. Anything in particular you're interested in?"
  1: 0x046D [0x23] WAIT_FOR_DIALOG_INTERACTION
  2: 0x046E [0x00] END_REQSTACK()
```

### Event 65535.50

#### Metadata

| Field        | Value    |
|--------------|----------|
| Entrypoint   | 0x046F   |
| Data Size    | 23 bytes |
| Instructions | 7        |

```
      00 01 02 03 04 05 06 07  08 09 0A 0B 0C 0D 0E 0F
      -- -- -- -- -- -- -- --  -- -- -- -- -- -- -- --
0460:                                               29                 )
0470: 08 0B E0 0E 01 01 1D 4C  80 23 1D 4D 80 23 29 08  .......L.#.M.#).
0480: 0B E0 0E 01 0E 00                                 ......          
```

#### Opcodes

```
  0: 0x046F [0x29] REQ_SET_WAIT(priority=0x08, entity_id=Apururu (ID: 17752075/0x010EE00B), tag_num=0x01)
  1: 0x0476 [0x1D] PRINT_EVENT_MESSAGE(message_id=8673*)
    → "If you're volunteering to help, then please come to my ministry. It's called the Manustery, and is located in Windurst Woods. That's the district southeast of here."
  2: 0x0479 [0x23] WAIT_FOR_DIALOG_INTERACTION
  3: 0x047A [0x1D] PRINT_EVENT_MESSAGE(message_id=8674*)
    → "My members and I will tell you the details when you turn up. We'd be most appreciative of an extra hand."
  4: 0x047D [0x23] WAIT_FOR_DIALOG_INTERACTION
  5: 0x047E [0x29] REQ_SET_WAIT(priority=0x08, entity_id=Apururu (ID: 17752075/0x010EE00B), tag_num=0x0E)
  6: 0x0485 [0x00] END_REQSTACK()
```

### Event 65535.51

#### Metadata

| Field        | Value   |
|--------------|---------|
| Entrypoint   | 0x0486  |
| Data Size    | 5 bytes |
| Instructions | 3       |

```
      00 01 02 03 04 05 06 07  08 09 0A 0B 0C 0D 0E 0F
      -- -- -- -- -- -- -- --  -- -- -- -- -- -- -- --
0480:                   1D 4E  80 23 00                       .N.#.     
```

#### Opcodes

```
  0: 0x0486 [0x1D] PRINT_EVENT_MESSAGE(message_id=8676*)
    → "How dare you, Ajido-Marujido! Why don't you shut your mouth!"
  1: 0x0489 [0x23] WAIT_FOR_DIALOG_INTERACTION
  2: 0x048A [0x00] END_REQSTACK()
```

### Event 65535.52

#### Metadata

| Field        | Value   |
|--------------|---------|
| Entrypoint   | 0x048B  |
| Data Size    | 5 bytes |
| Instructions | 3       |

```
      00 01 02 03 04 05 06 07  08 09 0A 0B 0C 0D 0E 0F
      -- -- -- -- -- -- -- --  -- -- -- -- -- -- -- --
0480:                                   1D 4F 80 23 00             .O.#.
```

#### Opcodes

```
  0: 0x048B [0x1D] PRINT_EVENT_MESSAGE(message_id=8678*)
    → "Only my brother is such a nasty, lying fiend. The rest of the people should be comparatively nicer."
  1: 0x048E [0x23] WAIT_FOR_DIALOG_INTERACTION
  2: 0x048F [0x00] END_REQSTACK()
```

### Event 65535.53

#### Metadata

| Field        | Value    |
|--------------|----------|
| Entrypoint   | 0x0490   |
| Data Size    | 19 bytes |
| Instructions | 5        |

```
      00 01 02 03 04 05 06 07  08 09 0A 0B 0C 0D 0E 0F
      -- -- -- -- -- -- -- --  -- -- -- -- -- -- -- --
0490: 29 08 0B E0 0E 01 01 1D  50 80 23 29 08 0B E0 0E  ).......P.#)....
04A0: 01 0E 00                                          ...             
```

#### Opcodes

```
  0: 0x0490 [0x29] REQ_SET_WAIT(priority=0x08, entity_id=Apururu (ID: 17752075/0x010EE00B), tag_num=0x01)
  1: 0x0497 [0x1D] PRINT_EVENT_MESSAGE(message_id=8681*)
    → "He`y! Wait up, Ajido-Marujido!"
  2: 0x049A [0x23] WAIT_FOR_DIALOG_INTERACTION
  3: 0x049B [0x29] REQ_SET_WAIT(priority=0x08, entity_id=Apururu (ID: 17752075/0x010EE00B), tag_num=0x0E)
  4: 0x04A2 [0x00] END_REQSTACK()
```

### Event 65535.54

#### Metadata

| Field        | Value     |
|--------------|-----------|
| Entrypoint   | 0x04A3    |
| Data Size    | 311 bytes |
| Instructions | 41        |

```
      00 01 02 03 04 05 06 07  08 09 0A 0B 0C 0D 0E 0F
      -- -- -- -- -- -- -- --  -- -- -- -- -- -- -- --
04A0:          29 08 0B E0 0E  01 01 1D 51 80 23 29 08     ).......Q.#).
04B0: 0B E0 0E 01 02 02 09 10  2A 80 00 CF 04 52 2B 80  ........*....R+.
04C0: F0 FF FF 7F F0 FF FF 7F  73 30 37 37 01 12 05 02  ........s077....
04D0: 09 10 2C 80 00 E9 04 52  2B 80 F0 FF FF 7F F0 FF  ..,....R+.......
04E0: FF 7F 73 30 37 37 01 12  05 02 09 10 2D 80 00 03  ..s077......-...
04F0: 05 52 2B 80 F0 FF FF 7F  F0 FF FF 7F 73 30 38 33  .R+.........s083
0500: 01 12 05 52 2B 80 F0 FF  FF 7F F0 FF FF 7F 73 30  ...R+.........s0
0510: 32 37 45 2B 80 F0 FF FF  7F F0 FF FF 7F 73 30 38  27E+.........s08
0520: 38 2E 80 1D 2F 80 23 52  2B 80 F0 FF FF 7F F0 FF  8.../.#R+.......
0530: FF 7F 73 30 38 38 02 09  10 2A 80 00 52 05 45 2B  ..s088...*..R.E+
0540: 80 F0 FF FF 7F F0 FF FF  7F 73 30 37 37 2E 80 01  .........s077...
0550: 9B 05 02 09 10 2C 80 00  6E 05 45 2B 80 F0 FF FF  .....,..n.E+....
0560: 7F F0 FF FF 7F 73 30 37  37 2E 80 01 9B 05 02 09  .....s077.......
0570: 10 2D 80 00 8A 05 45 2B  80 F0 FF FF 7F F0 FF FF  .-....E+........
0580: 7F 73 30 38 33 2E 80 01  9B 05 45 2B 80 F0 FF FF  .s083.....E+....
0590: 7F F0 FF FF 7F 73 30 32  37 2E 80 29 08 0B E0 0E  .....s027..)....
05A0: 01 08 1D 52 80 23 29 08  0B E0 0E 01 09 C8 31 80  ...R.#).......1.
05B0: 32 80 32 80 8B 31 80 2E  80 33 80 34 80 4A 61 63  2.2..1...3.4.Jac
05C0: 6B 5F 6F 66 5F 48 65 61  72 74 73 00 00 1D 35 80  k_of_Hearts...5.
05D0: 23 8A 1C 03 80 1D 53 80  23 00                    #.....S.#.      
```

#### Opcodes

```
  0: 0x04A3 [0x29] REQ_SET_WAIT(priority=0x08, entity_id=Apururu (ID: 17752075/0x010EE00B), tag_num=0x01)
  1: 0x04AA [0x1D] PRINT_EVENT_MESSAGE(message_id=8682*)
    → "Sorry, but I have to go, too. If you need to know more, ask our friend Jack of Hearts who is on patrol near the Huntsman's Court."
  2: 0x04AD [0x23] WAIT_FOR_DIALOG_INTERACTION
  3: 0x04AE [0x29] REQ_SET_WAIT(priority=0x08, entity_id=Apururu (ID: 17752075/0x010EE00B), tag_num=0x02)
  4: 0x04B5 [0x02] IF !(Work_Zone[9] == 5*) GOTO 0x04CF
  5: 0x04BD [0x52] END_LOAD_SCHEDULER: End scheduler "s077" with entities [LocalPlayer, LocalPlayer], work=138*
  6: 0x04CC [0x01] GOTO 0x0512
  7: 0x04CF [0x02] IF !(Work_Zone[9] == 6*) GOTO 0x04E9
  8: 0x04D7 [0x52] END_LOAD_SCHEDULER: End scheduler "s077" with entities [LocalPlayer, LocalPlayer], work=138*
  9: 0x04E6 [0x01] GOTO 0x0512
 10: 0x04E9 [0x02] IF !(Work_Zone[9] == 8*) GOTO 0x0503
 11: 0x04F1 [0x52] END_LOAD_SCHEDULER: End scheduler "s083" with entities [LocalPlayer, LocalPlayer], work=138*
 12: 0x0500 [0x01] GOTO 0x0512
 13: 0x0503 [0x52] END_LOAD_SCHEDULER: End scheduler "s027" with entities [LocalPlayer, LocalPlayer], work=138*

SUBROUTINE_0512:
 14: 0x0512 [0x45] LOAD_SCHEDULED_TASK: Load scheduler "s088" with entities [LocalPlayer, LocalPlayer], work=[138*, 0*]
 15: 0x0523 [0x1D] PRINT_EVENT_MESSAGE(message_id=7082*)
    → "Jackkedy-Wack is what we in Windurst call a "Cardian.""
 16: 0x0526 [0x23] WAIT_FOR_DIALOG_INTERACTION
 17: 0x0527 [0x52] END_LOAD_SCHEDULER: End scheduler "s088" with entities [LocalPlayer, LocalPlayer], work=138*
 18: 0x0536 [0x02] IF !(Work_Zone[9] == 5*) GOTO 0x0552
 19: 0x053E [0x45] LOAD_SCHEDULED_TASK: Load scheduler "s077" with entities [LocalPlayer, LocalPlayer], work=[138*, 0*]
 20: 0x054F [0x01] GOTO 0x059B
 21: 0x0552 [0x02] IF !(Work_Zone[9] == 6*) GOTO 0x056E
 22: 0x055A [0x45] LOAD_SCHEDULED_TASK: Load scheduler "s077" with entities [LocalPlayer, LocalPlayer], work=[138*, 0*]
 23: 0x056B [0x01] GOTO 0x059B
 24: 0x056E [0x02] IF !(Work_Zone[9] == 8*) GOTO 0x058A
 25: 0x0576 [0x45] LOAD_SCHEDULED_TASK: Load scheduler "s083" with entities [LocalPlayer, LocalPlayer], work=[138*, 0*]
 26: 0x0587 [0x01] GOTO 0x059B
 27: 0x058A [0x45] LOAD_SCHEDULED_TASK: Load scheduler "s027" with entities [LocalPlayer, LocalPlayer], work=[138*, 0*]

SUBROUTINE_059B:
 28: 0x059B [0x29] REQ_SET_WAIT(priority=0x08, entity_id=Apururu (ID: 17752075/0x010EE00B), tag_num=0x08)
 29: 0x05A2 [0x1D] PRINT_EVENT_MESSAGE(message_id=8683*)
    → "Here. If you give Jacky-wacky this, I'm sure he'll reward you somehow. To pass him the item, target him and select "Trade" from the main menu."
 30: 0x05A5 [0x23] WAIT_FOR_DIALOG_INTERACTION
 31: 0x05A6 [0x29] REQ_SET_WAIT(priority=0x08, entity_id=Apururu (ID: 17752075/0x010EE00B), tag_num=0x09)
 32: 0x05AD [0xC8] OPEN_MAP_WINDOW(zone=0x8031, submap=0x8032, flag=0x8032)
 33: 0x05B4 [0x8B] SET_EVENT_MARK: Add/update map marker on map 238* at (-35.957*, 59.519*), index=0*, name=(no name)
 34: 0x05BD [0x4A] Unknown NPC (ID: 1600873313/0x5F6B6361) looks at Unknown NPC (ID: 1214211695/0x485F666F)
 35: 0x05C6 [0x65] CALCULATE_3D_DISTANCE(result=0x7261, entity1=Unknown NPC (ID: 29556/0x00007374), entity2=Unknown NPC (ID: 595604765/0x2380351D))
 36: 0x05D1 [0x8A] CLOSE_MAP()
 37: 0x05D2 [0x1C] WAIT(30* ticks)
 38: 0x05D5 [0x1D] PRINT_EVENT_MESSAGE(message_id=8684*)
    → "Bye-bye, and good luck, my new adventurer friend! Please drop by my Manustery when you're in Windurst Woods."
 39: 0x05D8 [0x23] WAIT_FOR_DIALOG_INTERACTION
 40: 0x05D9 [0x00] END_REQSTACK()
```

### Event 65535.55

#### Metadata

| Field        | Value    |
|--------------|----------|
| Entrypoint   | 0x05DA   |
| Data Size    | 19 bytes |
| Instructions | 5        |

```
      00 01 02 03 04 05 06 07  08 09 0A 0B 0C 0D 0E 0F
      -- -- -- -- -- -- -- --  -- -- -- -- -- -- -- --
05D0:                                29 08 0B E0 0E 01            ).....
05E0: 03 1D 54 80 23 29 08 0B  E0 0E 01 05 00           ..T.#).......   
```

#### Opcodes

```
  0: 0x05DA [0x29] REQ_SET_WAIT(priority=0x08, entity_id=Apururu (ID: 17752075/0x010EE00B), tag_num=0x03)
  1: 0x05E1 [0x1D] PRINT_EVENT_MESSAGE(message_id=8685*)
    → "Tsk. Adventurers these days... You shouldn't go around saying that when it's your first time in a big city. You're sure to run into trouble."
  2: 0x05E4 [0x23] WAIT_FOR_DIALOG_INTERACTION
  3: 0x05E5 [0x29] REQ_SET_WAIT(priority=0x08, entity_id=Apururu (ID: 17752075/0x010EE00B), tag_num=0x05)
  4: 0x05EC [0x00] END_REQSTACK()
```

### Event 65535.56

#### Metadata

| Field        | Value    |
|--------------|----------|
| Entrypoint   | 0x05ED   |
| Data Size    | 19 bytes |
| Instructions | 5        |

```
      00 01 02 03 04 05 06 07  08 09 0A 0B 0C 0D 0E 0F
      -- -- -- -- -- -- -- --  -- -- -- -- -- -- -- --
05E0:                                         29 08 0B               )..
05F0: E0 0E 01 01 1D 55 80 23  29 08 0B E0 0E 01 0E 00  .....U.#).......
```

#### Opcodes

```
  0: 0x05ED [0x29] REQ_SET_WAIT(priority=0x08, entity_id=Apururu (ID: 17752075/0x010EE00B), tag_num=0x01)
  1: 0x05F4 [0x1D] PRINT_EVENT_MESSAGE(message_id=8688*)
    → "Oh, really? Who would ever tell you that they need help...?"
  2: 0x05F7 [0x23] WAIT_FOR_DIALOG_INTERACTION
  3: 0x05F8 [0x29] REQ_SET_WAIT(priority=0x08, entity_id=Apururu (ID: 17752075/0x010EE00B), tag_num=0x0E)
  4: 0x05FF [0x00] END_REQSTACK()
```

### Event 65535.57

#### Metadata

| Field        | Value    |
|--------------|----------|
| Entrypoint   | 0x0600   |
| Data Size    | 19 bytes |
| Instructions | 5        |

```
      00 01 02 03 04 05 06 07  08 09 0A 0B 0C 0D 0E 0F
      -- -- -- -- -- -- -- --  -- -- -- -- -- -- -- --
0600: 29 08 0B E0 0E 01 01 1D  56 80 23 29 08 0B E0 0E  ).......V.#)....
0610: 01 0E 00                                          ...             
```

#### Opcodes

```
  0: 0x0600 [0x29] REQ_SET_WAIT(priority=0x08, entity_id=Apururu (ID: 17752075/0x010EE00B), tag_num=0x01)
  1: 0x0607 [0x1D] PRINT_EVENT_MESSAGE(message_id=8691*)
    → "Well, if you count that type of job as easy then, yes, it could be considered easy money, but..."
  2: 0x060A [0x23] WAIT_FOR_DIALOG_INTERACTION
  3: 0x060B [0x29] REQ_SET_WAIT(priority=0x08, entity_id=Apururu (ID: 17752075/0x010EE00B), tag_num=0x0E)
  4: 0x0612 [0x00] END_REQSTACK()
```

### Event 65535.58

#### Metadata

| Field        | Value     |
|--------------|-----------|
| Entrypoint   | 0x0613    |
| Data Size    | 149 bytes |
| Instructions | 23        |

```
      00 01 02 03 04 05 06 07  08 09 0A 0B 0C 0D 0E 0F
      -- -- -- -- -- -- -- --  -- -- -- -- -- -- -- --
0610:          29 08 0B E0 0E  01 01 1D 57 80 23 29 08     ).......W.#).
0620: 0B E0 0E 01 02 52 2B 80  F0 FF FF 7F F0 FF FF 7F  .....R+.........
0630: 73 30 33 36 45 2B 80 F0  FF FF 7F F0 FF FF 7F 73  s036E+.........s
0640: 30 38 38 2E 80 1D 58 80  23 52 2B 80 F0 FF FF 7F  088...X.#R+.....
0650: F0 FF FF 7F 73 30 38 38  45 2B 80 F0 FF FF 7F F0  ....s088E+......
0660: FF FF 7F 73 30 33 36 2E  80 1D 2F 80 23 C8 31 80  ...s036.../.#.1.
0670: 32 80 32 80 8B 31 80 2E  80 33 80 34 80 4A 61 63  2.2..1...3.4.Jac
0680: 6B 5F 6F 66 5F 48 65 61  72 74 73 00 00 1D 35 80  k_of_Hearts...5.
0690: 23 8A 1C 03 80 29 08 0B  E0 0E 01 08 1D 59 80 23  #....).......Y.#
06A0: 29 08 0B E0 0E 01 09 00                           ).......        
```

#### Opcodes

```
  0: 0x0613 [0x29] REQ_SET_WAIT(priority=0x08, entity_id=Apururu (ID: 17752075/0x010EE00B), tag_num=0x01)
  1: 0x061A [0x1D] PRINT_EVENT_MESSAGE(message_id=8693*)
    → "I guess so. Well, good luck with it! I hope to see you again soon."
  2: 0x061D [0x23] WAIT_FOR_DIALOG_INTERACTION
  3: 0x061E [0x29] REQ_SET_WAIT(priority=0x08, entity_id=Apururu (ID: 17752075/0x010EE00B), tag_num=0x02)
  4: 0x0625 [0x52] END_LOAD_SCHEDULER: End scheduler "s036" with entities [LocalPlayer, LocalPlayer], work=138*
  5: 0x0634 [0x45] LOAD_SCHEDULED_TASK: Load scheduler "s088" with entities [LocalPlayer, LocalPlayer], work=[138*, 0*]
  6: 0x0645 [0x1D] PRINT_EVENT_MESSAGE(message_id=8694*)
    → "If you need to know more, ask our friend, Jack of Hearts. He's on patrol near the Huntsman's Court."
  7: 0x0648 [0x23] WAIT_FOR_DIALOG_INTERACTION
  8: 0x0649 [0x52] END_LOAD_SCHEDULER: End scheduler "s088" with entities [LocalPlayer, LocalPlayer], work=138*
  9: 0x0658 [0x45] LOAD_SCHEDULED_TASK: Load scheduler "s036" with entities [LocalPlayer, LocalPlayer], work=[138*, 0*]
 10: 0x0669 [0x1D] PRINT_EVENT_MESSAGE(message_id=7082*)
    → "Jackkedy-Wack is what we in Windurst call a "Cardian.""
 11: 0x066C [0x23] WAIT_FOR_DIALOG_INTERACTION
 12: 0x066D [0xC8] OPEN_MAP_WINDOW(zone=0x8031, submap=0x8032, flag=0x8032)
 13: 0x0674 [0x8B] SET_EVENT_MARK: Add/update map marker on map 238* at (-35.957*, 59.519*), index=0*, name=(no name)
 14: 0x067D [0x4A] Unknown NPC (ID: 1600873313/0x5F6B6361) looks at Unknown NPC (ID: 1214211695/0x485F666F)
 15: 0x0686 [0x65] CALCULATE_3D_DISTANCE(result=0x7261, entity1=Unknown NPC (ID: 29556/0x00007374), entity2=Unknown NPC (ID: 595604765/0x2380351D))
 16: 0x0691 [0x8A] CLOSE_MAP()
 17: 0x0692 [0x1C] WAIT(30* ticks)
 18: 0x0695 [0x29] REQ_SET_WAIT(priority=0x08, entity_id=Apururu (ID: 17752075/0x010EE00B), tag_num=0x08)
 19: 0x069C [0x1D] PRINT_EVENT_MESSAGE(message_id=8695*)
    → "Here. If you give Jacky-wacky this, I'm sure he'll reward you somehow. To pass him the item, target him and select "Trade" from the main menu."
 20: 0x069F [0x23] WAIT_FOR_DIALOG_INTERACTION
 21: 0x06A0 [0x29] REQ_SET_WAIT(priority=0x08, entity_id=Apururu (ID: 17752075/0x010EE00B), tag_num=0x09)
 22: 0x06A7 [0x00] END_REQSTACK()
```

### Event 65535.59

#### Metadata

| Field        | Value    |
|--------------|----------|
| Entrypoint   | 0x06A8   |
| Data Size    | 19 bytes |
| Instructions | 5        |

```
      00 01 02 03 04 05 06 07  08 09 0A 0B 0C 0D 0E 0F
      -- -- -- -- -- -- -- --  -- -- -- -- -- -- -- --
06A0:                          29 08 0B E0 0E 01 01 1D          ).......
06B0: 5A 80 23 29 08 0B E0 0E  01 0E 00                 Z.#).......     
```

#### Opcodes

```
  0: 0x06A8 [0x29] REQ_SET_WAIT(priority=0x08, entity_id=Apururu (ID: 17752075/0x010EE00B), tag_num=0x01)
  1: 0x06AF [0x1D] PRINT_EVENT_MESSAGE(message_id=8729*)
    → "Oh, Ajido-Marujido!!! Bite your tongue!"
  2: 0x06B2 [0x23] WAIT_FOR_DIALOG_INTERACTION
  3: 0x06B3 [0x29] REQ_SET_WAIT(priority=0x08, entity_id=Apururu (ID: 17752075/0x010EE00B), tag_num=0x0E)
  4: 0x06BA [0x00] END_REQSTACK()
```

### Event 65535.60

#### Metadata

| Field        | Value   |
|--------------|---------|
| Entrypoint   | 0x06BB  |
| Data Size    | 5 bytes |
| Instructions | 3       |

```
      00 01 02 03 04 05 06 07  08 09 0A 0B 0C 0D 0E 0F
      -- -- -- -- -- -- -- --  -- -- -- -- -- -- -- --
06B0:                                   1D 5B 80 23 00             .[.#.
```

#### Opcodes

```
  0: 0x06BB [0x1D] PRINT_EVENT_MESSAGE(message_id=8730*)
    → "This place is called Windurst Waters. It is the oldest of the four districts of Windurst, and has been the center of Tarutaru life for ages."
  1: 0x06BE [0x23] WAIT_FOR_DIALOG_INTERACTION
  2: 0x06BF [0x00] END_REQSTACK()
```

### Event 65535.61

#### Metadata

| Field        | Value   |
|--------------|---------|
| Entrypoint   | 0x06C0  |
| Data Size    | 9 bytes |
| Instructions | 5       |

```
      00 01 02 03 04 05 06 07  08 09 0A 0B 0C 0D 0E 0F
      -- -- -- -- -- -- -- --  -- -- -- -- -- -- -- --
06C0: 1D 5C 80 23 1D 5D 80 23  00                       .\.#.].#.       
```

#### Opcodes

```
  0: 0x06C0 [0x1D] PRINT_EVENT_MESSAGE(message_id=8731*)
    → "In Windurst, there are five educational and governmental ministries. The ministers themselves support the Star Sibyl, who rules over Windurst."
  1: 0x06C3 [0x23] WAIT_FOR_DIALOG_INTERACTION
  2: 0x06C4 [0x1D] PRINT_EVENT_MESSAGE(message_id=8732*)
    → "Three of the ministries are here in Windurst Waters. Many Tarutaru are involved in studying a variety of subjects at these institutions."
  3: 0x06C7 [0x23] WAIT_FOR_DIALOG_INTERACTION
  4: 0x06C8 [0x00] END_REQSTACK()
```

### Event 65535.62

#### Metadata

| Field        | Value    |
|--------------|----------|
| Entrypoint   | 0x06C9   |
| Data Size    | 23 bytes |
| Instructions | 7        |

```
      00 01 02 03 04 05 06 07  08 09 0A 0B 0C 0D 0E 0F
      -- -- -- -- -- -- -- --  -- -- -- -- -- -- -- --
06C0:                             29 08 0B E0 0E 01 01           )......
06D0: 1D 5E 80 23 1D 5F 80 23  29 08 0B E0 0E 01 0E 00  .^.#._.#).......
```

#### Opcodes

```
  0: 0x06C9 [0x29] REQ_SET_WAIT(priority=0x08, entity_id=Apururu (ID: 17752075/0x010EE00B), tag_num=0x01)
  1: 0x06D0 [0x1D] PRINT_EVENT_MESSAGE(message_id=8734*)
    → "You'll also find several Tarutaru-run shops in this area."
  2: 0x06D3 [0x23] WAIT_FOR_DIALOG_INTERACTION
  3: 0x06D4 [0x1D] PRINT_EVENT_MESSAGE(message_id=8735*)
    → "There's a hostelry, a general goods store, a milliner...oh, and the Culinarians' Guild, and the tavern... It will take you more than a day to see all the sights."
  4: 0x06D7 [0x23] WAIT_FOR_DIALOG_INTERACTION
  5: 0x06D8 [0x29] REQ_SET_WAIT(priority=0x08, entity_id=Apururu (ID: 17752075/0x010EE00B), tag_num=0x0E)
  6: 0x06DF [0x00] END_REQSTACK()
```

### Event 65535.63

#### Metadata

| Field        | Value    |
|--------------|----------|
| Entrypoint   | 0x06E0   |
| Data Size    | 23 bytes |
| Instructions | 7        |

```
      00 01 02 03 04 05 06 07  08 09 0A 0B 0C 0D 0E 0F
      -- -- -- -- -- -- -- --  -- -- -- -- -- -- -- --
06E0: 29 08 0B E0 0E 01 01 1D  60 80 23 1D 61 80 23 29  ).......`.#.a.#)
06F0: 08 0B E0 0E 01 0E 00                              .......         
```

#### Opcodes

```
  0: 0x06E0 [0x29] REQ_SET_WAIT(priority=0x08, entity_id=Apururu (ID: 17752075/0x010EE00B), tag_num=0x01)
  1: 0x06E7 [0x1D] PRINT_EVENT_MESSAGE(message_id=8736*)
    → "Ah, and one shouldn't forget the residential area. Follow the little road that leads to Windurst Walls and turn right to find the entrance."
  2: 0x06EA [0x23] WAIT_FOR_DIALOG_INTERACTION
  3: 0x06EB [0x1D] PRINT_EVENT_MESSAGE(message_id=8737*)
    → "In Windurst's residential area, there is a Mog House for you to store items and rest up in. Talk to the guards at the entranceway for the details."
  4: 0x06EE [0x23] WAIT_FOR_DIALOG_INTERACTION
  5: 0x06EF [0x29] REQ_SET_WAIT(priority=0x08, entity_id=Apururu (ID: 17752075/0x010EE00B), tag_num=0x0E)
  6: 0x06F6 [0x00] END_REQSTACK()
```

### Event 65535.64

#### Metadata

| Field        | Value    |
|--------------|----------|
| Entrypoint   | 0x06F7   |
| Data Size    | 19 bytes |
| Instructions | 5        |

```
      00 01 02 03 04 05 06 07  08 09 0A 0B 0C 0D 0E 0F
      -- -- -- -- -- -- -- --  -- -- -- -- -- -- -- --
06F0:                      29  08 0B E0 0E 01 01 1D 62         ).......b
0700: 80 23 29 08 0B E0 0E 01  0E 00                    .#).......      
```

#### Opcodes

```
  0: 0x06F7 [0x29] REQ_SET_WAIT(priority=0x08, entity_id=Apururu (ID: 17752075/0x010EE00B), tag_num=0x01)
  1: 0x06FE [0x1D] PRINT_EVENT_MESSAGE(message_id=8738*)
    → "Ummm... What else were you asking aboutaru...?"
  2: 0x0701 [0x23] WAIT_FOR_DIALOG_INTERACTION
  3: 0x0702 [0x29] REQ_SET_WAIT(priority=0x08, entity_id=Apururu (ID: 17752075/0x010EE00B), tag_num=0x0E)
  4: 0x0709 [0x00] END_REQSTACK()
```

### Event 65535.65

#### Metadata

| Field        | Value    |
|--------------|----------|
| Entrypoint   | 0x070A   |
| Data Size    | 19 bytes |
| Instructions | 5        |

```
      00 01 02 03 04 05 06 07  08 09 0A 0B 0C 0D 0E 0F
      -- -- -- -- -- -- -- --  -- -- -- -- -- -- -- --
0700:                                29 08 0B E0 0E 01            ).....
0710: 01 1D 63 80 23 29 08 0B  E0 0E 01 0E 00           ..c.#).......   
```

#### Opcodes

```
  0: 0x070A [0x29] REQ_SET_WAIT(priority=0x08, entity_id=Apururu (ID: 17752075/0x010EE00B), tag_num=0x01)
  1: 0x0711 [0x1D] PRINT_EVENT_MESSAGE(message_id=8739*)
    → "Huh? Oh yeah, just who in Vana'diel are we...!?"
  2: 0x0714 [0x23] WAIT_FOR_DIALOG_INTERACTION
  3: 0x0715 [0x29] REQ_SET_WAIT(priority=0x08, entity_id=Apururu (ID: 17752075/0x010EE00B), tag_num=0x0E)
  4: 0x071C [0x00] END_REQSTACK()
```

### Event 65535.66

#### Metadata

| Field        | Value    |
|--------------|----------|
| Entrypoint   | 0x071D   |
| Data Size    | 19 bytes |
| Instructions | 5        |

```
      00 01 02 03 04 05 06 07  08 09 0A 0B 0C 0D 0E 0F
      -- -- -- -- -- -- -- --  -- -- -- -- -- -- -- --
0710:                                         29 08 0B               )..
0720: E0 0E 01 01 1D 64 80 23  29 08 0B E0 0E 01 0E 00  .....d.#).......
```

#### Opcodes

```
  0: 0x071D [0x29] REQ_SET_WAIT(priority=0x08, entity_id=Apururu (ID: 17752075/0x010EE00B), tag_num=0x01)
  1: 0x0724 [0x1D] PRINT_EVENT_MESSAGE(message_id=8740*)
    → "Hee-hee. Well, if you haven't figured it out already, I'm Apururu. Nice to meetaru you.t"
  2: 0x0727 [0x23] WAIT_FOR_DIALOG_INTERACTION
  3: 0x0728 [0x29] REQ_SET_WAIT(priority=0x08, entity_id=Apururu (ID: 17752075/0x010EE00B), tag_num=0x0E)
  4: 0x072F [0x00] END_REQSTACK()
```

### Event 65535.67

#### Metadata

| Field        | Value    |
|--------------|----------|
| Entrypoint   | 0x0730   |
| Data Size    | 19 bytes |
| Instructions | 5        |

```
      00 01 02 03 04 05 06 07  08 09 0A 0B 0C 0D 0E 0F
      -- -- -- -- -- -- -- --  -- -- -- -- -- -- -- --
0730: 29 08 0B E0 0E 01 01 1D  65 80 23 29 08 0B E0 0E  ).......e.#)....
0740: 01 0E 00                                          ...             
```

#### Opcodes

```
  0: 0x0730 [0x29] REQ_SET_WAIT(priority=0x08, entity_id=Apururu (ID: 17752075/0x010EE00B), tag_num=0x01)
  1: 0x0737 [0x1D] PRINT_EVENT_MESSAGE(message_id=8743*)
    → "I suggest you ask your fellow adventurers for help. Vana'diel is a huge place, so you'll need to make as many friends as you can."
  2: 0x073A [0x23] WAIT_FOR_DIALOG_INTERACTION
  3: 0x073B [0x29] REQ_SET_WAIT(priority=0x08, entity_id=Apururu (ID: 17752075/0x010EE00B), tag_num=0x0E)
  4: 0x0742 [0x00] END_REQSTACK()
```

### Event 65535.68

#### Metadata

| Field        | Value   |
|--------------|---------|
| Entrypoint   | 0x0743  |
| Data Size    | 5 bytes |
| Instructions | 3       |

```
      00 01 02 03 04 05 06 07  08 09 0A 0B 0C 0D 0E 0F
      -- -- -- -- -- -- -- --  -- -- -- -- -- -- -- --
0740:          1D 66 80 23 00                              .f.#.        
```

#### Opcodes

```
  0: 0x0743 [0x1D] PRINT_EVENT_MESSAGE(message_id=8745*)
    → "Ah, Ajido-Marujido! Wait up a moment!"
  1: 0x0746 [0x23] WAIT_FOR_DIALOG_INTERACTION
  2: 0x0747 [0x00] END_REQSTACK()
```

### Event 65535.69

#### Metadata

| Field        | Value     |
|--------------|-----------|
| Entrypoint   | 0x0748    |
| Data Size    | 307 bytes |
| Instructions | 39        |

```
      00 01 02 03 04 05 06 07  08 09 0A 0B 0C 0D 0E 0F
      -- -- -- -- -- -- -- --  -- -- -- -- -- -- -- --
0740:                          29 08 0B E0 0E 01 08 1D          ).......
0750: 67 80 23 29 08 0B E0 0E  01 09 02 09 10 2A 80 00  g.#).........*..
0760: 74 07 52 2B 80 F0 FF FF  7F F0 FF FF 7F 73 30 37  t.R+.........s07
0770: 37 01 B7 07 02 09 10 2C  80 00 8E 07 52 2B 80 F0  7......,....R+..
0780: FF FF 7F F0 FF FF 7F 73  30 37 37 01 B7 07 02 09  .......s077.....
0790: 10 2D 80 00 A8 07 52 2B  80 F0 FF FF 7F F0 FF FF  .-....R+........
07A0: 7F 73 30 38 33 01 B7 07  52 2B 80 F0 FF FF 7F F0  .s083...R+......
07B0: FF FF 7F 73 30 32 37 45  2B 80 F0 FF FF 7F F0 FF  ...s027E+.......
07C0: FF 7F 73 30 38 38 2E 80  1D 68 80 23 52 2B 80 F0  ..s088...h.#R+..
07D0: FF FF 7F F0 FF FF 7F 73  30 38 38 02 09 10 2A 80  .......s088...*.
07E0: 00 F7 07 45 2B 80 F0 FF  FF 7F F0 FF FF 7F 73 30  ...E+.........s0
07F0: 37 37 2E 80 01 40 08 02  09 10 2C 80 00 13 08 45  77...@....,....E
0800: 2B 80 F0 FF FF 7F F0 FF  FF 7F 73 30 37 37 2E 80  +.........s077..
0810: 01 40 08 02 09 10 2D 80  00 2F 08 45 2B 80 F0 FF  .@....-../.E+...
0820: FF 7F F0 FF FF 7F 73 30  38 33 2E 80 01 40 08 45  ......s083...@.E
0830: 2B 80 F0 FF FF 7F F0 FF  FF 7F 73 30 32 37 2E 80  +.........s027..
0840: C8 31 80 32 80 32 80 8B  31 80 2E 80 33 80 34 80  .1.2.2..1...3.4.
0850: 4A 61 63 6B 5F 6F 66 5F  48 65 61 72 74 73 00 00  Jack_of_Hearts..
0860: 1D 35 80 23 8A 1C 03 80  29 08 0B E0 0E 01 0C 1D  .5.#....).......
0870: 69 80 23 29 08 0B E0 0E  01 0D 00                 i.#).......     
```

#### Opcodes

```
  0: 0x0748 [0x29] REQ_SET_WAIT(priority=0x08, entity_id=Apururu (ID: 17752075/0x010EE00B), tag_num=0x08)
  1: 0x074F [0x1D] PRINT_EVENT_MESSAGE(message_id=8746*)
    → "Oh, before I go, here, take this. Give it to our friend, Jack of Hearts, who is on patrol near the Huntsman's Court."
  2: 0x0752 [0x23] WAIT_FOR_DIALOG_INTERACTION
  3: 0x0753 [0x29] REQ_SET_WAIT(priority=0x08, entity_id=Apururu (ID: 17752075/0x010EE00B), tag_num=0x09)
  4: 0x075A [0x02] IF !(Work_Zone[9] == 5*) GOTO 0x0774
  5: 0x0762 [0x52] END_LOAD_SCHEDULER: End scheduler "s077" with entities [LocalPlayer, LocalPlayer], work=138*
  6: 0x0771 [0x01] GOTO 0x07B7
  7: 0x0774 [0x02] IF !(Work_Zone[9] == 6*) GOTO 0x078E
  8: 0x077C [0x52] END_LOAD_SCHEDULER: End scheduler "s077" with entities [LocalPlayer, LocalPlayer], work=138*
  9: 0x078B [0x01] GOTO 0x07B7
 10: 0x078E [0x02] IF !(Work_Zone[9] == 8*) GOTO 0x07A8
 11: 0x0796 [0x52] END_LOAD_SCHEDULER: End scheduler "s083" with entities [LocalPlayer, LocalPlayer], work=138*
 12: 0x07A5 [0x01] GOTO 0x07B7
 13: 0x07A8 [0x52] END_LOAD_SCHEDULER: End scheduler "s027" with entities [LocalPlayer, LocalPlayer], work=138*

SUBROUTINE_07B7:
 14: 0x07B7 [0x45] LOAD_SCHEDULED_TASK: Load scheduler "s088" with entities [LocalPlayer, LocalPlayer], work=[138*, 0*]
 15: 0x07C8 [0x1D] PRINT_EVENT_MESSAGE(message_id=8747*)
    → "Jacky-wacky is a good little Cardian who will tell you anything else you need to know. To pass him the coupon, target him and select "Trade" from the main menu."
 16: 0x07CB [0x23] WAIT_FOR_DIALOG_INTERACTION
 17: 0x07CC [0x52] END_LOAD_SCHEDULER: End scheduler "s088" with entities [LocalPlayer, LocalPlayer], work=138*
 18: 0x07DB [0x02] IF !(Work_Zone[9] == 5*) GOTO 0x07F7
 19: 0x07E3 [0x45] LOAD_SCHEDULED_TASK: Load scheduler "s077" with entities [LocalPlayer, LocalPlayer], work=[138*, 0*]
 20: 0x07F4 [0x01] GOTO 0x0840
 21: 0x07F7 [0x02] IF !(Work_Zone[9] == 6*) GOTO 0x0813
 22: 0x07FF [0x45] LOAD_SCHEDULED_TASK: Load scheduler "s077" with entities [LocalPlayer, LocalPlayer], work=[138*, 0*]
 23: 0x0810 [0x01] GOTO 0x0840
 24: 0x0813 [0x02] IF !(Work_Zone[9] == 8*) GOTO 0x082F
 25: 0x081B [0x45] LOAD_SCHEDULED_TASK: Load scheduler "s083" with entities [LocalPlayer, LocalPlayer], work=[138*, 0*]
 26: 0x082C [0x01] GOTO 0x0840
 27: 0x082F [0x45] LOAD_SCHEDULED_TASK: Load scheduler "s027" with entities [LocalPlayer, LocalPlayer], work=[138*, 0*]

SUBROUTINE_0840:
 28: 0x0840 [0xC8] OPEN_MAP_WINDOW(zone=0x8031, submap=0x8032, flag=0x8032)
 29: 0x0847 [0x8B] SET_EVENT_MARK: Add/update map marker on map 238* at (-35.957*, 59.519*), index=0*, name=(no name)
 30: 0x0850 [0x4A] Unknown NPC (ID: 1600873313/0x5F6B6361) looks at Unknown NPC (ID: 1214211695/0x485F666F)
 31: 0x0859 [0x65] CALCULATE_3D_DISTANCE(result=0x7261, entity1=Unknown NPC (ID: 29556/0x00007374), entity2=Unknown NPC (ID: 595604765/0x2380351D))
 32: 0x0864 [0x8A] CLOSE_MAP()
 33: 0x0865 [0x1C] WAIT(30* ticks)
 34: 0x0868 [0x29] REQ_SET_WAIT(priority=0x08, entity_id=Apururu (ID: 17752075/0x010EE00B), tag_num=0x0C)
 35: 0x086F [0x1D] PRINT_EVENT_MESSAGE(message_id=8748*)
    → "I hope to see you around some time. Good luck, my shiny-whiny adventurer friend. Ta-taru!t"
 36: 0x0872 [0x23] WAIT_FOR_DIALOG_INTERACTION
 37: 0x0873 [0x29] REQ_SET_WAIT(priority=0x08, entity_id=Apururu (ID: 17752075/0x010EE00B), tag_num=0x0D)
 38: 0x087A [0x00] END_REQSTACK()
```

### Event 65535.70

#### Metadata

| Field        | Value    |
|--------------|----------|
| Entrypoint   | 0x087B   |
| Data Size    | 23 bytes |
| Instructions | 7        |

```
      00 01 02 03 04 05 06 07  08 09 0A 0B 0C 0D 0E 0F
      -- -- -- -- -- -- -- --  -- -- -- -- -- -- -- --
