# 17752315

## Common Data

| Field            | Value                     |
|------------------|---------------------------|
| Zone             | Windurst Waters (ID: 238) |
| Block Size       | 15492 bytes               |
| Total Events     | 10                        |
| References Count | 287                       |

## List of Events

| Event ID              | Entrypoint   |   Size |   Instructions |
|-----------------------|--------------|--------|----------------|
| [65535](#event-65535) | 0x0000       |      1 |              1 |
| [871](#event-871)     | 0x0001       |   1792 |            249 |
| [872](#event-872)     | 0x0701       |    584 |             80 |
| [873](#event-873)     | 0x0949       |   1266 |            184 |
| [874](#event-874)     | 0x0E3B       |   2569 |            371 |
| [875](#event-875)     | 0x1844       |   2534 |            379 |
| [876](#event-876)     | 0x222A       |    495 |             78 |
| [884](#event-884)     | 0x2419       |   3325 |            453 |
| [886](#event-886)     | 0x3116       |    377 |             51 |
| [888](#event-888)     | 0x328F       |   1343 |            185 |

## DAT References (imed_data)

|   Index | Hex Value   |   Dec Value |
|---------|-------------|-------------|
|       0 | 0x003C      |          60 |
|       1 | 0x0013      |          19 |
|       2 | 0x00A3      |         163 |
|       3 | 0x0064      |         100 |
|       4 | 0x0078      |         120 |
|       5 | 0x0000      |           0 |
|       6 | 0x00C8      |         200 |
|       7 | 0x0032      |          50 |
|       8 | 0x28D3      |       10451 |
|       9 | 0x001E      |          30 |
|      10 | 0x28D4      |       10452 |
|      11 | 0x0096      |         150 |
|      12 | 0x28D5      |       10453 |
|      13 | 0x28D6      |       10454 |
|      14 | 0x000A      |          10 |
|      15 | 0x28D7      |       10455 |
|      16 | 0x28D8      |       10456 |
|      17 | 0x0C00      |        3072 |
|      18 | 0x28D9      |       10457 |
|      19 | 0x01AE      |         430 |
|      20 | 0x0028      |          40 |
|      21 | 0x28DA      |       10458 |
|      22 | 0x28DB      |       10459 |
|      23 | 0xFFFF15A0  |  4294907296 |
|      24 | 0x7D00      |       32000 |
|      25 | 0xFFFFF18D  |  4294963597 |
|      26 | 0x04FE      |        1278 |
|      27 | 0x28DC      |       10460 |
|      28 | 0x28DD      |       10461 |
|      29 | 0x28DE      |       10462 |
|      30 | 0x28DF      |       10463 |
|      31 | 0x28E0      |       10464 |
|      32 | 0x28E1      |       10465 |
|      33 | 0x28E2      |       10466 |
|      34 | 0x28E3      |       10467 |
|      35 | 0x28E4      |       10468 |
|      36 | 0x28E5      |       10469 |
|      37 | 0x28E7      |       10471 |
|      38 | 0x0014      |          20 |
|      39 | 0x28E6      |       10470 |
|      40 | 0x012C      |         300 |
|      41 | 0x0097      |         151 |
|      42 | 0x018D      |         397 |
|      43 | 0x007B      |         123 |
|      44 | 0x28E8      |       10472 |
|      45 | 0x0C2B      |        3115 |
|      46 | 0x28E9      |       10473 |
|      47 | 0x28EA      |       10474 |
|      48 | 0x28EB      |       10475 |
|      49 | 0x28EC      |       10476 |
|      50 | 0x28ED      |       10477 |
|      51 | 0x0180      |         384 |
|      52 | 0x28EF      |       10479 |
|      53 | 0x28F0      |       10480 |
|      54 | 0x28F1      |       10481 |
|      55 | 0x0005      |           5 |
|      56 | 0x005A      |          90 |
|      57 | 0x28F2      |       10482 |
|      58 | 0x28F3      |       10483 |
|      59 | 0x28F4      |       10484 |
|      60 | 0x0A39      |        2617 |
|      61 | 0x0EE7      |        3815 |
|      62 | 0x28F5      |       10485 |
|      63 | 0x28F6      |       10486 |
|      64 | 0x0904      |        2308 |
|      65 | 0x28F7      |       10487 |
|      66 | 0x28F8      |       10488 |
|      67 | 0x28F9      |       10489 |
|      68 | 0x28FA      |       10490 |
|      69 | 0x28FB      |       10491 |
|      70 | 0x28FC      |       10492 |
|      71 | 0x28FD      |       10493 |
|      72 | 0x28FE      |       10494 |
|      73 | 0x2900      |       10496 |
|      74 | 0x28FF      |       10495 |
|      75 | 0x2901      |       10497 |
|      76 | 0x0184      |         388 |
|      77 | 0x0093      |         147 |
|      78 | 0x2902      |       10498 |
|      79 | 0x2903      |       10499 |
|      80 | 0x2904      |       10500 |
|      81 | 0x2905      |       10501 |
|      82 | 0x2906      |       10502 |
|      83 | 0x2907      |       10503 |
|      84 | 0x2908      |       10504 |
|      85 | 0x2909      |       10505 |
|      86 | 0x290A      |       10506 |
|      87 | 0x290B      |       10507 |
|      88 | 0x290C      |       10508 |
|      89 | 0x290D      |       10509 |
|      90 | 0x290E      |       10510 |
|      91 | 0x290F      |       10511 |
|      92 | 0x2910      |       10512 |
|      93 | 0x2911      |       10513 |
|      94 | 0x2912      |       10514 |
|      95 | 0x2913      |       10515 |
|      96 | 0x2914      |       10516 |
|      97 | 0x2915      |       10517 |
|      98 | 0x2916      |       10518 |
|      99 | 0x2917      |       10519 |
|     100 | 0x2918      |       10520 |
|     101 | 0x2919      |       10521 |
|     102 | 0x291A      |       10522 |
|     103 | 0x291B      |       10523 |
|     104 | 0x291C      |       10524 |
|     105 | 0x291D      |       10525 |
|     106 | 0x291E      |       10526 |
|     107 | 0x291F      |       10527 |
|     108 | 0x2920      |       10528 |
|     109 | 0x2921      |       10529 |
|     110 | 0x2922      |       10530 |
|     111 | 0x2923      |       10531 |
|     112 | 0x0050      |          80 |
|     113 | 0x2924      |       10532 |
|     114 | 0x00A0      |         160 |
|     115 | 0x2925      |       10533 |
|     116 | 0x2926      |       10534 |
|     117 | 0x2927      |       10535 |
|     118 | 0x2928      |       10536 |
|     119 | 0x2929      |       10537 |
|     120 | 0x018A      |         394 |
|     121 | 0xFFFFA3C3  |  4294943683 |
|     122 | 0x194EB     |      103659 |
|     123 | 0xFFFFEB7F  |  4294962047 |
|     124 | 0x02F8      |         760 |
|     125 | 0x2930      |       10544 |
|     126 | 0x2931      |       10545 |
|     127 | 0x2932      |       10546 |
|     128 | 0x2933      |       10547 |
|     129 | 0x2934      |       10548 |
|     130 | 0x2935      |       10549 |
|     131 | 0x2936      |       10550 |
|     132 | 0x2937      |       10551 |
|     133 | 0x2938      |       10552 |
|     134 | 0x2939      |       10553 |
|     135 | 0x293A      |       10554 |
|     136 | 0x293B      |       10555 |
|     137 | 0x293C      |       10556 |
|     138 | 0x293D      |       10557 |
|     139 | 0x293E      |       10558 |
|     140 | 0x293F      |       10559 |
|     141 | 0x2940      |       10560 |
|     142 | 0x2941      |       10561 |
|     143 | 0x2942      |       10562 |
|     144 | 0x2943      |       10563 |
|     145 | 0x2944      |       10564 |
|     146 | 0x2945      |       10565 |
|     147 | 0x2946      |       10566 |
|     148 | 0x2947      |       10567 |
|     149 | 0x2948      |       10568 |
|     150 | 0x2949      |       10569 |
|     151 | 0x0400      |        1024 |
|     152 | 0x294A      |       10570 |
|     153 | 0x294B      |       10571 |
|     154 | 0x294C      |       10572 |
|     155 | 0x294D      |       10573 |
|     156 | 0x294E      |       10574 |
|     157 | 0x294F      |       10575 |
|     158 | 0x2950      |       10576 |
|     159 | 0x2951      |       10577 |
|     160 | 0x2952      |       10578 |
|     161 | 0x2953      |       10579 |
|     162 | 0x2954      |       10580 |
|     163 | 0x2955      |       10581 |
|     164 | 0x2956      |       10582 |
|     165 | 0x2957      |       10583 |
|     166 | 0x2958      |       10584 |
|     167 | 0x2959      |       10585 |
|     168 | 0x295A      |       10586 |
|     169 | 0x295B      |       10587 |
|     170 | 0x295C      |       10588 |
|     171 | 0x295D      |       10589 |
|     172 | 0x295E      |       10590 |
|     173 | 0x295F      |       10591 |
|     174 | 0x2960      |       10592 |
|     175 | 0x2961      |       10593 |
|     176 | 0x2962      |       10594 |
|     177 | 0x2963      |       10595 |
|     178 | 0x2964      |       10596 |
|     179 | 0x2965      |       10597 |
|     180 | 0x2966      |       10598 |
|     181 | 0x018C      |         396 |
|     182 | 0x0001      |           1 |
|     183 | 0x0003      |           3 |
|     184 | 0x00D3      |         211 |
|     185 | 0x2969      |       10601 |
|     186 | 0x296A      |       10602 |
|     187 | 0x296B      |       10603 |
|     188 | 0x296C      |       10604 |
|     189 | 0x296D      |       10605 |
|     190 | 0x296E      |       10606 |
|     191 | 0x296F      |       10607 |
|     192 | 0x2970      |       10608 |
|     193 | 0x007F      |         127 |
|     194 | 0x2974      |       10612 |
|     195 | 0x2975      |       10613 |
|     196 | 0x2976      |       10614 |
|     197 | 0x2977      |       10615 |
|     198 | 0x2978      |       10616 |
|     199 | 0x000C      |          12 |
|     200 | 0x0002      |           2 |
|     201 | 0x2979      |       10617 |
|     202 | 0x297A      |       10618 |
|     203 | 0x0006      |           6 |
|     204 | 0x00DA      |         218 |
|     205 | 0x297B      |       10619 |
|     206 | 0x297C      |       10620 |
|     207 | 0x0008      |           8 |
|     208 | 0x297D      |       10621 |
|     209 | 0x297E      |       10622 |
|     210 | 0x07E8      |        2024 |
|     211 | 0x00AE      |         174 |
|     212 | 0x297F      |       10623 |
|     213 | 0x2980      |       10624 |
|     214 | 0x2981      |       10625 |
|     215 | 0x0105      |         261 |
|     216 | 0x2982      |       10626 |
|     217 | 0x2983      |       10627 |
|     218 | 0x2984      |       10628 |
|     219 | 0x2985      |       10629 |
|     220 | 0x2986      |       10630 |
|     221 | 0x0080      |         128 |
|     222 | 0x2987      |       10631 |
|     223 | 0x2988      |       10632 |
|     224 | 0x2989      |       10633 |
|     225 | 0x298A      |       10634 |
|     226 | 0x298B      |       10635 |
|     227 | 0x298C      |       10636 |
|     228 | 0x298D      |       10637 |
|     229 | 0x298E      |       10638 |
|     230 | 0x298F      |       10639 |
|     231 | 0x2990      |       10640 |
|     232 | 0x2991      |       10641 |
|     233 | 0x2992      |       10642 |
|     234 | 0x2993      |       10643 |
|     235 | 0x2994      |       10644 |
|     236 | 0x2995      |       10645 |
|     237 | 0x2996      |       10646 |
|     238 | 0x2997      |       10647 |
|     239 | 0x2998      |       10648 |
|     240 | 0x2999      |       10649 |
|     241 | 0x299A      |       10650 |
|     242 | 0x299B      |       10651 |
|     243 | 0x299C      |       10652 |
|     244 | 0x299D      |       10653 |
|     245 | 0x299E      |       10654 |
|     246 | 0x299F      |       10655 |
|     247 | 0x29A0      |       10656 |
|     248 | 0x29A1      |       10657 |
|     249 | 0x29A2      |       10658 |
|     250 | 0x29A3      |       10659 |
|     251 | 0x29A4      |       10660 |
|     252 | 0x29A5      |       10661 |
|     253 | 0x29A6      |       10662 |
|     254 | 0x29A7      |       10663 |
|     255 | 0x29A8      |       10664 |
|     256 | 0x29A9      |       10665 |
|     257 | 0x29AA      |       10666 |
|     258 | 0x29AB      |       10667 |
|     259 | 0x29AC      |       10668 |
|     260 | 0x29AD      |       10669 |
|     261 | 0x29AE      |       10670 |
|     262 | 0x00C9      |         201 |
|     263 | 0x29AF      |       10671 |
|     264 | 0x29B0      |       10672 |
|     265 | 0x29B1      |       10673 |
|     266 | 0x29B2      |       10674 |
|     267 | 0x29B3      |       10675 |
|     268 | 0x29B4      |       10676 |
|     269 | 0x29B5      |       10677 |
|     270 | 0x29B6      |       10678 |
|     271 | 0x29B7      |       10679 |
|     272 | 0x29B8      |       10680 |
|     273 | 0x02EE      |         750 |
|     274 | 0x29B9      |       10681 |
|     275 | 0x29BA      |       10682 |
|     276 | 0x29BB      |       10683 |
|     277 | 0x29BC      |       10684 |
|     278 | 0x29BD      |       10685 |
|     279 | 0x29BE      |       10686 |
|     280 | 0x29BF      |       10687 |
|     281 | 0x29C0      |       10688 |
|     282 | 0x29C1      |       10689 |
|     283 | 0x29C2      |       10690 |
|     284 | 0x29C3      |       10691 |
|     285 | 0x29C4      |       10692 |
|     286 | 0x29C5      |       10693 |

## String References

- **10451**: Windu\`rst!

## Events

### Event 65535

#### Metadata

| Field        | Value   |
|--------------|---------|
| Entrypoint   | 0x0000  |
| Data Size    | 1 bytes |
| Instructions | 1       |

```
      00 01 02 03 04 05 06 07  08 09 0A 0B 0C 0D 0E 0F
      -- -- -- -- -- -- -- --  -- -- -- -- -- -- -- --
0000: 00                                                .               
```

#### Opcodes

```
  0: 0x0000 [0x00] END_REQSTACK()
```

### Event 871

#### Metadata

| Field        | Value      |
|--------------|------------|
| Entrypoint   | 0x0001     |
| Data Size    | 1792 bytes |
| Instructions | 249        |

```
      00 01 02 03 04 05 06 07  08 09 0A 0B 0C 0D 0E 0F
      -- -- -- -- -- -- -- --  -- -- -- -- -- -- -- --
0000:    20 01 42 46 01 1C 00  80 38 01 80 29 08 F0 FF    .BF....8..)...
0010: FF 7F 06 1C 00 80 5C 00  02 80 5C 01 02 80 1C 03  ......\...\.....
0020: 80 4E 01 F0 FF FF 7F 4E  00 FC E0 0E 01 4E 00 FD  .N.....N.....N..
0030: E0 0E 01 4E 00 FE E0 0E  01 80 FC E0 0E 01 80 FD  ...N............
0040: E0 0E 01 80 FE E0 0E 01  29 0B FC E0 0E 01 48 29  ........).....H)
0050: 0B FD E0 0E 01 48 29 0B  FE E0 0E 01 49 27 0B FC  .....H).....I'..
0060: E0 0E 01 49 27 0B FD E0  0E 01 49 27 0B FE E0 0E  ...I'.....I'....
0070: 01 4A 45 04 80 F8 FF FF  7F F8 FF FF 7F 73 30 31  .JE..........s01
0080: 35 05 80 45 06 80 F8 FF  FF 7F F8 FF FF 7F 66 64  5..E..........fd
0090: 69 31 05 80 2A 0B FD E0  0E 01 2A 0B FE E0 0E 01  i1..*.....*.....
00A0: 52 04 80 F8 FF FF 7F F8  FF FF 7F 73 30 31 35 45  R..........s015E
00B0: 04 80 F8 FF FF 7F F8 FF  FF 7F 73 30 31 36 05 80  ..........s016..
00C0: 2A 0B FC E0 0E 01 29 08  FC E0 0E 01 08 29 08 FD  *.....)......)..
00D0: E0 0E 01 18 29 08 FE E0  0E 01 0A 1C 07 80 49 FC  ....).........I.
00E0: E0 0E 01 08 80 23 29 08  FC E0 0E 01 09 29 08 FE  .....#)......)..
00F0: E0 0E 01 0B 29 08 FD E0  0E 01 19 1C 07 80 29 08  ....).........).
0100: FC E0 0E 01 0A 1C 09 80  52 04 80 F8 FF FF 7F F8  ........R.......
0110: FF FF 7F 73 30 31 36 45  06 80 F0 FF FF 7F F0 FF  ...s016E........
0120: FF 7F 6F 76 6C 31 05 80  45 04 80 F8 FF FF 7F F8  ..ovl1..E.......
0130: FF FF 7F 73 30 31 38 05  80 29 08 FE E0 0E 01 47  ...s018..).....G
0140: 29 08 FD E0 0E 01 46 29  0B FE E0 0E 01 4B 29 0B  ).....F).....K).
0150: FD E0 0E 01 4A 2B FC E0  0E 01 0A 80 23 1C 0B 80  ....J+......#...
0160: 52 04 80 F8 FF FF 7F F8  FF FF 7F 73 30 31 38 45  R..........s018E
0170: 06 80 F0 FF FF 7F F0 FF  FF 7F 6F 76 6C 31 05 80  ..........ovl1..
0180: 45 04 80 F8 FF FF 7F F8  FF FF 7F 73 30 31 39 05  E..........s019.
0190: 80 29 08 FC E0 0E 01 0B  2B FC E0 0E 01 0C 80 23  .)......+......#
01A0: 1C 06 80 52 04 80 F8 FF  FF 7F F8 FF FF 7F 73 30  ...R..........s0
01B0: 31 39 45 06 80 F0 FF FF  7F F0 FF FF 7F 6F 76 6C  19E..........ovl
01C0: 31 05 80 45 04 80 F8 FF  FF 7F F8 FF FF 7F 73 30  1..E..........s0
01D0: 32 30 05 80 7B FC E0 0E  01 27 0B FC E0 0E 01 4A  20..{....'.....J
01E0: 2B FC E0 0E 01 0D 80 23  2A 0B FC E0 0E 01 79 00  +......#*.....y.
01F0: FE E0 0E 01 FC E0 0E 01  79 00 FD E0 0E 01 FC E0  ........y.......
0200: 0E 01 1C 07 80 1C 0E 80  4A FE E0 0E 01 FC E0 0E  ........J.......
0210: 01 52 04 80 F8 FF FF 7F  F8 FF FF 7F 73 30 32 30  .R..........s020
0220: 45 06 80 F0 FF FF 7F F0  FF FF 7F 6F 76 6C 31 05  E..........ovl1.
0230: 80 45 04 80 F8 FF FF 7F  F8 FF FF 7F 73 30 32 31  .E..........s021
0240: 05 80 27 0B FC E0 0E 01  4B 79 00 FD E0 0E 01 FC  ..'.....Ky......
0250: E0 0E 01 27 0B FE E0 0E  01 4C 2B FE E0 0E 01 0F  ...'.....L+.....
0260: 80 23 2A 0B FE E0 0E 01  2A 0B FC E0 0E 01 52 04  .#*.....*.....R.
0270: 80 F8 FF FF 7F F8 FF FF  7F 73 30 32 31 45 04 80  .........s021E..
0280: F8 FF FF 7F F8 FF FF 7F  73 30 32 32 05 80 79 00  ........s022..y.
0290: FE E0 0E 01 FC E0 0E 01  79 00 FC E0 0E 01 FD E0  ........y.......
02A0: 0E 01 27 0B FD E0 0E 01  4B 2B FD E0 0E 01 10 80  ..'.....K+......
02B0: 23 2A 0B FD E0 0E 01 6F  76 FC E0 0E 01 52 04 80  #*.....ov....R..
02C0: F8 FF FF 7F F8 FF FF 7F  73 30 32 32 45 04 80 F8  ........s022E...
02D0: FF FF 7F F8 FF FF 7F 73  30 31 37 05 80 7B FD E0  .......s017..{..
02E0: 0E 01 7B FC E0 0E 01 4B  FC E0 0E 01 11 80 6F 76  ..{....K......ov
02F0: FC E0 0E 01 29 08 FC E0  0E 01 0E 2B FC E0 0E 01  ....)......+....
0300: 12 80 23 29 08 FC E0 0E  01 0F 29 08 FC E0 0E 01  ..#)......).....
0310: 10 52 04 80 F8 FF FF 7F  F8 FF FF 7F 73 30 31 37  .R..........s017
0320: 45 04 80 F8 FF FF 7F F8  FF FF 7F 73 30 32 33 05  E..........s023.
0330: 80 4A FE E0 0E 01 FD E0  0E 01 4B FD E0 0E 01 13  .J........K.....
0340: 80 6F 76 FD E0 0E 01 1C  14 80 29 08 FD E0 0E 01  .ov.......).....
0350: 08 2B FD E0 0E 01 15 80  23 29 08 FD E0 0E 01 09  .+......#)......
0360: 29 08 FC E0 0E 01 11 79  00 FE E0 0E 01 FC E0 0E  )......y........
0370: 01 79 00 FC E0 0E 01 FE  E0 0E 01 1C 00 80 7B FE  .y............{.
0380: E0 0E 01 7B FC E0 0E 01  1C 00 80 29 08 FC E0 0E  ...{.......)....
0390: 01 12 29 08 FE E0 0E 01  0E 2B FE E0 0E 01 16 80  ..)......+......
03A0: 23 29 08 FD E0 0E 01 1A  29 08 FE E0 0E 01 0F 29  #)......)......)
03B0: 08 FC E0 0E 01 13 45 06  80 F8 FF FF 7F F8 FF FF  ......E.........
03C0: 7F 66 64 6F 31 05 80 1C  00 80 29 08 FD E0 0E 01  .fdo1.....).....
03D0: 1B 52 04 80 F8 FF FF 7F  F8 FF FF 7F 73 30 32 33  .R..........s023
03E0: 1C 04 80 37 17 80 18 80  19 80 1A 80 29 0B FC E0  ...7........)...
03F0: 0E 01 4C 29 0B FD E0 0E  01 4C 29 0B FE E0 0E 01  ..L).....L).....
0400: 4D 4A FC E0 0E 01 FB E0  0E 01 4A FD E0 0E 01 FB  MJ........J.....
0410: E0 0E 01 4A FE E0 0E 01  FB E0 0E 01 6F 76 FC E0  ...J........ov..
0420: 0E 01 6F 76 FD E0 0E 01  6F 76 FE E0 0E 01 1C 04  ..ov....ov......
0430: 80 45 04 80 F8 FF FF 7F  F8 FF FF 7F 73 30 32 34  .E..........s024
0440: 05 80 45 06 80 F8 FF FF  7F F8 FF FF 7F 66 64 69  ..E..........fdi
0450: 31 05 80 1C 06 80 52 04  80 F8 FF FF 7F F8 FF FF  1.....R.........
0460: 7F 73 30 32 34 45 04 80  F8 FF FF 7F F8 FF FF 7F  .s024E..........
0470: 73 30 32 35 05 80 45 04  80 F8 FF FF 7F F8 FF FF  s025..E.........
0480: 7F 73 65 37 35 05 80 29  08 FD E0 0E 01 14 2B FD  .se75..)......+.
0490: E0 0E 01 1B 80 23 45 04  80 F8 FF FF 7F F8 FF FF  .....#E.........
04A0: 7F 73 65 37 36 05 80 29  08 FE E0 0E 01 10 2B FE  .se76..)......+.
04B0: E0 0E 01 1C 80 23 45 04  80 F8 FF FF 7F F8 FF FF  .....#E.........
04C0: 7F 73 65 37 37 05 80 29  08 FC E0 0E 01 14 2B FC  .se77..)......+.
04D0: E0 0E 01 1D 80 23 52 04  80 F8 FF FF 7F F8 FF FF  .....#R.........
04E0: 7F 73 30 32 35 45 04 80  F8 FF FF 7F F8 FF FF 7F  .s025E..........
04F0: 73 30 32 36 05 80 29 08  FC E0 0E 01 15 2B FC E0  s026..)......+..
0500: 0E 01 1E 80 23 29 08 FD  E0 0E 01 15 29 08 FE E0  ....#)......)...
0510: 0E 01 11 52 04 80 F8 FF  FF 7F F8 FF FF 7F 73 30  ...R..........s0
0520: 32 36 45 04 80 F8 FF FF  7F F8 FF FF 7F 73 30 32  26E..........s02
0530: 37 05 80 4A FD E0 0E 01  FC E0 0E 01 4A FE E0 0E  7..J........J...
0540: 01 FC E0 0E 01 6F 76 FD  E0 0E 01 6F 76 FE E0 0E  .....ov....ov...
0550: 01 7B FD E0 0E 01 7B FE  E0 0E 01 29 08 FD E0 0E  .{....{....)....
0560: 01 0A 2B FD E0 0E 01 1F  80 23 29 08 FE E0 0E 01  ..+......#).....
0570: 12 2B FE E0 0E 01 20 80  23 52 04 80 F8 FF FF 7F  .+.... .#R......
0580: F8 FF FF 7F 73 30 32 37  45 04 80 F8 FF FF 7F F8  ....s027E.......
0590: FF FF 7F 73 30 32 38 05  80 29 08 FD E0 0E 01 0B  ...s028..)......
05A0: 29 08 FE E0 0E 01 13 79  00 FD E0 0E 01 FC E0 0E  )......y........
05B0: 01 79 00 FE E0 0E 01 FC  E0 0E 01 27 0B FC E0 0E  .y.........'....
05C0: 01 4D 2B FC E0 0E 01 21  80 23 2A 0B FC E0 0E 01  .M+....!.#*.....
05D0: 6F 76 FD E0 0E 01 79 00  FE E0 0E 01 FD E0 0E 01  ov....y.........
05E0: 79 00 FC E0 0E 01 FE E0  0E 01 29 08 FD E0 0E 01  y.........).....
05F0: 01 2B FD E0 0E 01 22 80  23 29 08 FD E0 0E 01 02  .+....".#)......
0600: 79 00 FE E0 0E 01 FC E0  0E 01 79 00 FD E0 0E 01  y.........y.....
0610: FE E0 0E 01 29 08 FE E0  0E 01 01 2B FE E0 0E 01  ....)......+....
0620: 23 80 23 29 08 FE E0 0E  01 02 52 04 80 F8 FF FF  #.#)......R.....
0630: 7F F8 FF FF 7F 73 30 32  38 45 04 80 F8 FF FF 7F  .....s028E......
0640: F8 FF FF 7F 73 30 33 30  05 80 7B FC E0 0E 01 4B  ....s030..{....K
0650: FE E0 0E 01 05 80 27 0B  FC E0 0E 01 4E 2B FC E0  ......'.....N+..
0660: 0E 01 24 80 23 1C 09 80  6F 76 FE E0 0E 01 7B FE  ..$.#...ov....{.
0670: E0 0E 01 27 0B FE E0 0E  01 4F 2B FE E0 0E 01 25  ...'.....O+....%
0680: 80 23 1C 26 80 6F 76 FD  E0 0E 01 7B FD E0 0E 01  .#.&.ov....{....
0690: 27 0B FD E0 0E 01 4D 2B  FD E0 0E 01 27 80 23 1C  '.....M+....'.#.
06A0: 04 80 45 06 80 F0 FF FF  7F F0 FF FF 7F 66 64 6F  ..E..........fdo
06B0: 31 05 80 1C 28 80 52 04  80 F8 FF FF 7F F8 FF FF  1...(.R.........
06C0: 7F 73 30 33 30 5C 00 29  80 5C 01 29 80 4E 00 F0  .s030\.).\.).N..
06D0: FF FF 7F 80 F0 FF FF 7F  4E 01 FC E0 0E 01 4E 01  ........N.....N.
06E0: FD E0 0E 01 4E 01 FE E0  0E 01 46 00 45 06 80 F0  ....N.....F.E...
06F0: FF FF 7F F0 FF FF 7F 66  64 69 31 05 80 20 00 21  .......fdi1.. .!
0700: 00                                                .               
```

#### Opcodes

```
  0: 0x0001 [0x20] SET_CLI_EVENT_UC_FLAG: Lock player control
  1: 0x0003 [0x42] SET_CLI_EVENT_CANCEL_DATA()
  2: 0x0004 [0x46] CAMERA_CONTROL: Disable user control
  3: 0x0006 [0x1C] WAIT(60* ticks)
  4: 0x0009 [0x38] SET_CLIENT_EVENT_MODE(mode=19*)
  5: 0x000C [0x29] REQ_SET_WAIT(priority=0x08, entity_id=LocalPlayer, tag_num=0x06)
  6: 0x0013 [0x1C] WAIT(60* ticks)
  7: 0x0016 [0x5C] MUSIC_CONTROL: Set Idle (Day) music to song 163*
  8: 0x001A [0x5C] MUSIC_CONTROL: Set Idle (Night) music to song 163*
  9: 0x001E [0x1C] WAIT(100* ticks)
 10: 0x0021 [0x4E] SET_ENTITY_HIDE_FLAG: Hide LocalPlayer
 11: 0x0027 [0x4E] SET_ENTITY_HIDE_FLAG: Show Makki-Chebukki (ID: 17752316/0x010EE0FC)
 12: 0x002D [0x4E] SET_ENTITY_HIDE_FLAG: Show Kukki-Chebukki (ID: 17752317/0x010EE0FD)
 13: 0x0033 [0x4E] SET_ENTITY_HIDE_FLAG: Show Cherukiki (ID: 17752318/0x010EE0FE)
 14: 0x0039 [0x80] LOAD_WAIT(entity=Makki-Chebukki (ID: 17752316/0x010EE0FC))
 15: 0x003E [0x80] LOAD_WAIT(entity=Kukki-Chebukki (ID: 17752317/0x010EE0FD))
 16: 0x0043 [0x80] LOAD_WAIT(entity=Cherukiki (ID: 17752318/0x010EE0FE))
 17: 0x0048 [0x29] REQ_SET_WAIT(priority=0x0B, entity_id=Makki-Chebukki (ID: 17752316/0x010EE0FC), tag_num=0x48)
 18: 0x004F [0x29] REQ_SET_WAIT(priority=0x0B, entity_id=Kukki-Chebukki (ID: 17752317/0x010EE0FD), tag_num=0x48)
 19: 0x0056 [0x29] REQ_SET_WAIT(priority=0x0B, entity_id=Cherukiki (ID: 17752318/0x010EE0FE), tag_num=0x49)
 20: 0x005D [0x27] REQ_SET(priority=0x0B, entity_id=Makki-Chebukki (ID: 17752316/0x010EE0FC), tag_num=0x49)
 21: 0x0064 [0x27] REQ_SET(priority=0x0B, entity_id=Kukki-Chebukki (ID: 17752317/0x010EE0FD), tag_num=0x49)
 22: 0x006B [0x27] REQ_SET(priority=0x0B, entity_id=Cherukiki (ID: 17752318/0x010EE0FE), tag_num=0x4A)
 23: 0x0072 [0x45] LOAD_SCHEDULED_TASK: Load scheduler "s015" with entities [EventEntity, EventEntity], work=[120*, 0*]
 24: 0x0083 [0x45] LOAD_SCHEDULED_TASK: Load scheduler "fdi1" with entities [EventEntity, EventEntity], work=[200*, 0*]
 25: 0x0094 [0x2A] GET_REQ_LEVEL(level=11, entity_id=Kukki-Chebukki (ID: 17752317/0x010EE0FD))
 26: 0x009A [0x2A] GET_REQ_LEVEL(level=11, entity_id=Cherukiki (ID: 17752318/0x010EE0FE))
 27: 0x00A0 [0x52] END_LOAD_SCHEDULER: End scheduler "s015" with entities [EventEntity, EventEntity], work=120*
 28: 0x00AF [0x45] LOAD_SCHEDULED_TASK: Load scheduler "s016" with entities [EventEntity, EventEntity], work=[120*, 0*]
 29: 0x00C0 [0x2A] GET_REQ_LEVEL(level=11, entity_id=Makki-Chebukki (ID: 17752316/0x010EE0FC))
 30: 0x00C6 [0x29] REQ_SET_WAIT(priority=0x08, entity_id=Makki-Chebukki (ID: 17752316/0x010EE0FC), tag_num=0x08)
 31: 0x00CD [0x29] REQ_SET_WAIT(priority=0x08, entity_id=Kukki-Chebukki (ID: 17752317/0x010EE0FD), tag_num=0x18)
 32: 0x00D4 [0x29] REQ_SET_WAIT(priority=0x08, entity_id=Cherukiki (ID: 17752318/0x010EE0FE), tag_num=0x0A)
 33: 0x00DB [0x1C] WAIT(50* ticks)
 34: 0x00DE [0x49] Makki-Chebukki (ID: 17752316/0x010EE0FC) (No speaker name) [10451*]:
 35: 0x00E5 [0x23] WAIT_FOR_DIALOG_INTERACTION
 36: 0x00E6 [0x29] REQ_SET_WAIT(priority=0x08, entity_id=Makki-Chebukki (ID: 17752316/0x010EE0FC), tag_num=0x09)
 37: 0x00ED [0x29] REQ_SET_WAIT(priority=0x08, entity_id=Cherukiki (ID: 17752318/0x010EE0FE), tag_num=0x0B)
 38: 0x00F4 [0x29] REQ_SET_WAIT(priority=0x08, entity_id=Kukki-Chebukki (ID: 17752317/0x010EE0FD), tag_num=0x19)
 39: 0x00FB [0x1C] WAIT(50* ticks)
 40: 0x00FE [0x29] REQ_SET_WAIT(priority=0x08, entity_id=Makki-Chebukki (ID: 17752316/0x010EE0FC), tag_num=0x0A)
 41: 0x0105 [0x1C] WAIT(30* ticks)
 42: 0x0108 [0x52] END_LOAD_SCHEDULER: End scheduler "s016" with entities [EventEntity, EventEntity], work=120*
 43: 0x0117 [0x45] LOAD_SCHEDULED_TASK: Load scheduler "ovl1" with entities [LocalPlayer, LocalPlayer], work=[200*, 0*]
 44: 0x0128 [0x45] LOAD_SCHEDULED_TASK: Load scheduler "s018" with entities [EventEntity, EventEntity], work=[120*, 0*]
 45: 0x0139 [0x29] REQ_SET_WAIT(priority=0x08, entity_id=Cherukiki (ID: 17752318/0x010EE0FE), tag_num=0x47)
 46: 0x0140 [0x29] REQ_SET_WAIT(priority=0x08, entity_id=Kukki-Chebukki (ID: 17752317/0x010EE0FD), tag_num=0x46)
 47: 0x0147 [0x29] REQ_SET_WAIT(priority=0x0B, entity_id=Cherukiki (ID: 17752318/0x010EE0FE), tag_num=0x4B)
 48: 0x014E [0x29] REQ_SET_WAIT(priority=0x0B, entity_id=Kukki-Chebukki (ID: 17752317/0x010EE0FD), tag_num=0x4A)
 49: 0x0155 [0x2B] Makki-Chebukki (ID: 17752316/0x010EE0FC) [10452*]:
    → "Oho`"
 50: 0x015C [0x23] WAIT_FOR_DIALOG_INTERACTION
 51: 0x015D [0x1C] WAIT(150* ticks)
 52: 0x0160 [0x52] END_LOAD_SCHEDULER: End scheduler "s018" with entities [EventEntity, EventEntity], work=120*
 53: 0x016F [0x45] LOAD_SCHEDULED_TASK: Load scheduler "ovl1" with entities [LocalPlayer, LocalPlayer], work=[200*, 0*]
 54: 0x0180 [0x45] LOAD_SCHEDULED_TASK: Load scheduler "s019" with entities [EventEntity, EventEntity], work=[120*, 0*]
 55: 0x0191 [0x29] REQ_SET_WAIT(priority=0x08, entity_id=Makki-Chebukki (ID: 17752316/0x010EE0FC), tag_num=0x0B)
 56: 0x0198 [0x2B] Makki-Chebukki (ID: 17752316/0x010EE0FC) [10453*]:
    → "Ohoho`"
 57: 0x019F [0x23] WAIT_FOR_DIALOG_INTERACTION
 58: 0x01A0 [0x1C] WAIT(200* ticks)
 59: 0x01A3 [0x52] END_LOAD_SCHEDULER: End scheduler "s019" with entities [EventEntity, EventEntity], work=120*
 60: 0x01B2 [0x45] LOAD_SCHEDULED_TASK: Load scheduler "ovl1" with entities [LocalPlayer, LocalPlayer], work=[200*, 0*]
 61: 0x01C3 [0x45] LOAD_SCHEDULED_TASK: Load scheduler "s020" with entities [EventEntity, EventEntity], work=[120*, 0*]
 62: 0x01D4 [0x7B] Makki-Chebukki (ID: 17752316/0x010EE0FC) stops talking
 63: 0x01D9 [0x27] REQ_SET(priority=0x0B, entity_id=Makki-Chebukki (ID: 17752316/0x010EE0FC), tag_num=0x4A)
 64: 0x01E0 [0x2B] Makki-Chebukki (ID: 17752316/0x010EE0FC) [10454*]:
    → "So this is our homeland?"
 65: 0x01E7 [0x23] WAIT_FOR_DIALOG_INTERACTION
 66: 0x01E8 [0x2A] GET_REQ_LEVEL(level=11, entity_id=Makki-Chebukki (ID: 17752316/0x010EE0FC))
 67: 0x01EE [0x79] Cherukiki (ID: 17752318/0x010EE0FE) looks at Makki-Chebukki (ID: 17752316/0x010EE0FC) (Basic look)
 68: 0x01F8 [0x79] Kukki-Chebukki (ID: 17752317/0x010EE0FD) looks at Makki-Chebukki (ID: 17752316/0x010EE0FC) (Basic look)
 69: 0x0202 [0x1C] WAIT(50* ticks)
 70: 0x0205 [0x1C] WAIT(10* ticks)
 71: 0x0208 [0x4A] Cherukiki (ID: 17752318/0x010EE0FE) looks at Makki-Chebukki (ID: 17752316/0x010EE0FC)
 72: 0x0211 [0x52] END_LOAD_SCHEDULER: End scheduler "s020" with entities [EventEntity, EventEntity], work=120*
 73: 0x0220 [0x45] LOAD_SCHEDULED_TASK: Load scheduler "ovl1" with entities [LocalPlayer, LocalPlayer], work=[200*, 0*]
 74: 0x0231 [0x45] LOAD_SCHEDULED_TASK: Load scheduler "s021" with entities [EventEntity, EventEntity], work=[120*, 0*]
 75: 0x0242 [0x27] REQ_SET(priority=0x0B, entity_id=Makki-Chebukki (ID: 17752316/0x010EE0FC), tag_num=0x4B)
 76: 0x0249 [0x79] Kukki-Chebukki (ID: 17752317/0x010EE0FD) looks at Makki-Chebukki (ID: 17752316/0x010EE0FC) (Basic look)
 77: 0x0253 [0x27] REQ_SET(priority=0x0B, entity_id=Cherukiki (ID: 17752318/0x010EE0FE), tag_num=0x4C)
 78: 0x025A [0x2B] Cherukiki (ID: 17752318/0x010EE0FE) [10455*]:
    → "Nope, this is our daddy's homeland!"
 79: 0x0261 [0x23] WAIT_FOR_DIALOG_INTERACTION
 80: 0x0262 [0x2A] GET_REQ_LEVEL(level=11, entity_id=Cherukiki (ID: 17752318/0x010EE0FE))
 81: 0x0268 [0x2A] GET_REQ_LEVEL(level=11, entity_id=Makki-Chebukki (ID: 17752316/0x010EE0FC))
 82: 0x026E [0x52] END_LOAD_SCHEDULER: End scheduler "s021" with entities [EventEntity, EventEntity], work=120*
 83: 0x027D [0x45] LOAD_SCHEDULED_TASK: Load scheduler "s022" with entities [EventEntity, EventEntity], work=[120*, 0*]
 84: 0x028E [0x79] Cherukiki (ID: 17752318/0x010EE0FE) looks at Makki-Chebukki (ID: 17752316/0x010EE0FC) (Basic look)
 85: 0x0298 [0x79] Makki-Chebukki (ID: 17752316/0x010EE0FC) looks at Kukki-Chebukki (ID: 17752317/0x010EE0FD) (Basic look)
 86: 0x02A2 [0x27] REQ_SET(priority=0x0B, entity_id=Kukki-Chebukki (ID: 17752317/0x010EE0FD), tag_num=0x4B)
 87: 0x02A9 [0x2B] Kukki-Chebukki (ID: 17752317/0x010EE0FD) [10456*]:
    → "Nah, you're wrong, it's our mom's homeland!"
 88: 0x02B0 [0x23] WAIT_FOR_DIALOG_INTERACTION
 89: 0x02B1 [0x2A] GET_REQ_LEVEL(level=11, entity_id=Kukki-Chebukki (ID: 17752317/0x010EE0FD))
 90: 0x02B7 [0x6F] WAIT_FRAME_DELAY: Yield until WaitTime reaches zero
 91: 0x02B8 [0x76] CHECK_ENTITY_RENDER_FLAGS: Wait until Makki-Chebukki (ID: 17752316/0x010EE0FC) Render.Flags0 and Render.Flags3 conditions are met
 92: 0x02BD [0x52] END_LOAD_SCHEDULER: End scheduler "s022" with entities [EventEntity, EventEntity], work=120*
 93: 0x02CC [0x45] LOAD_SCHEDULED_TASK: Load scheduler "s017" with entities [EventEntity, EventEntity], work=[120*, 0*]
 94: 0x02DD [0x7B] Kukki-Chebukki (ID: 17752317/0x010EE0FD) stops talking
 95: 0x02E2 [0x7B] Makki-Chebukki (ID: 17752316/0x010EE0FC) stops talking
 96: 0x02E7 [0x4B] UPDATE_ENTITY_YAW(entity=Makki-Chebukki (ID: 17752316/0x010EE0FC), yaw=16.9°*)
 97: 0x02EE [0x6F] WAIT_FRAME_DELAY: Yield until WaitTime reaches zero
 98: 0x02EF [0x76] CHECK_ENTITY_RENDER_FLAGS: Wait until Makki-Chebukki (ID: 17752316/0x010EE0FC) Render.Flags0 and Render.Flags3 conditions are met
 99: 0x02F4 [0x29] REQ_SET_WAIT(priority=0x08, entity_id=Makki-Chebukki (ID: 17752316/0x010EE0FC), tag_num=0x0E)
100: 0x02FB [0x2B] Makki-Chebukki (ID: 17752316/0x010EE0FC) [10457*]:
    → "Which means..."
101: 0x0302 [0x23] WAIT_FOR_DIALOG_INTERACTION
102: 0x0303 [0x29] REQ_SET_WAIT(priority=0x08, entity_id=Makki-Chebukki (ID: 17752316/0x010EE0FC), tag_num=0x0F)
103: 0x030A [0x29] REQ_SET_WAIT(priority=0x08, entity_id=Makki-Chebukki (ID: 17752316/0x010EE0FC), tag_num=0x10)
104: 0x0311 [0x52] END_LOAD_SCHEDULER: End scheduler "s017" with entities [EventEntity, EventEntity], work=120*
105: 0x0320 [0x45] LOAD_SCHEDULED_TASK: Load scheduler "s023" with entities [EventEntity, EventEntity], work=[120*, 0*]
106: 0x0331 [0x4A] Cherukiki (ID: 17752318/0x010EE0FE) looks at Kukki-Chebukki (ID: 17752317/0x010EE0FD)
107: 0x033A [0x4B] UPDATE_ENTITY_YAW(entity=Kukki-Chebukki (ID: 17752317/0x010EE0FD), yaw=2.4°*)
108: 0x0341 [0x6F] WAIT_FRAME_DELAY: Yield until WaitTime reaches zero
109: 0x0342 [0x76] CHECK_ENTITY_RENDER_FLAGS: Wait until Kukki-Chebukki (ID: 17752317/0x010EE0FD) Render.Flags0 and Render.Flags3 conditions are met
110: 0x0347 [0x1C] WAIT(40* ticks)
111: 0x034A [0x29] REQ_SET_WAIT(priority=0x08, entity_id=Kukki-Chebukki (ID: 17752317/0x010EE0FD), tag_num=0x08)
112: 0x0351 [0x2B] Kukki-Chebukki (ID: 17752317/0x010EE0FD) [10458*]:
    → "That this is our homeland, too?"
113: 0x0358 [0x23] WAIT_FOR_DIALOG_INTERACTION
114: 0x0359 [0x29] REQ_SET_WAIT(priority=0x08, entity_id=Kukki-Chebukki (ID: 17752317/0x010EE0FD), tag_num=0x09)
115: 0x0360 [0x29] REQ_SET_WAIT(priority=0x08, entity_id=Makki-Chebukki (ID: 17752316/0x010EE0FC), tag_num=0x11)
116: 0x0367 [0x79] Cherukiki (ID: 17752318/0x010EE0FE) looks at Makki-Chebukki (ID: 17752316/0x010EE0FC) (Basic look)
117: 0x0371 [0x79] Makki-Chebukki (ID: 17752316/0x010EE0FC) looks at Cherukiki (ID: 17752318/0x010EE0FE) (Basic look)
118: 0x037B [0x1C] WAIT(60* ticks)
119: 0x037E [0x7B] Cherukiki (ID: 17752318/0x010EE0FE) stops talking
120: 0x0383 [0x7B] Makki-Chebukki (ID: 17752316/0x010EE0FC) stops talking
121: 0x0388 [0x1C] WAIT(60* ticks)
122: 0x038B [0x29] REQ_SET_WAIT(priority=0x08, entity_id=Makki-Chebukki (ID: 17752316/0x010EE0FC), tag_num=0x12)
123: 0x0392 [0x29] REQ_SET_WAIT(priority=0x08, entity_id=Cherukiki (ID: 17752318/0x010EE0FE), tag_num=0x0E)
124: 0x0399 [0x2B] Cherukiki (ID: 17752318/0x010EE0FE) [10459*]:
    → "You're hopeless!"
125: 0x03A0 [0x23] WAIT_FOR_DIALOG_INTERACTION
126: 0x03A1 [0x29] REQ_SET_WAIT(priority=0x08, entity_id=Kukki-Chebukki (ID: 17752317/0x010EE0FD), tag_num=0x1A)
127: 0x03A8 [0x29] REQ_SET_WAIT(priority=0x08, entity_id=Cherukiki (ID: 17752318/0x010EE0FE), tag_num=0x0F)
128: 0x03AF [0x29] REQ_SET_WAIT(priority=0x08, entity_id=Makki-Chebukki (ID: 17752316/0x010EE0FC), tag_num=0x13)
129: 0x03B6 [0x45] LOAD_SCHEDULED_TASK: Load scheduler "fdo1" with entities [EventEntity, EventEntity], work=[200*, 0*]
130: 0x03C7 [0x1C] WAIT(60* ticks)
131: 0x03CA [0x29] REQ_SET_WAIT(priority=0x08, entity_id=Kukki-Chebukki (ID: 17752317/0x010EE0FD), tag_num=0x1B)
132: 0x03D1 [0x52] END_LOAD_SCHEDULER: End scheduler "s023" with entities [EventEntity, EventEntity], work=120*
133: 0x03E0 [0x1C] WAIT(120* ticks)
134: 0x03E3 [0x37] UPDATE_EVENT_POSITION_AND_DIR: x=-60.000*, z=32.000*, y=-3.699*, direction=112.3°*
135: 0x03EC [0x29] REQ_SET_WAIT(priority=0x0B, entity_id=Makki-Chebukki (ID: 17752316/0x010EE0FC), tag_num=0x4C)
136: 0x03F3 [0x29] REQ_SET_WAIT(priority=0x0B, entity_id=Kukki-Chebukki (ID: 17752317/0x010EE0FD), tag_num=0x4C)
137: 0x03FA [0x29] REQ_SET_WAIT(priority=0x0B, entity_id=Cherukiki (ID: 17752318/0x010EE0FE), tag_num=0x4D)
138: 0x0401 [0x4A] Makki-Chebukki (ID: 17752316/0x010EE0FC) looks at ??? (ID: 17752315/0x010EE0FB)
139: 0x040A [0x4A] Kukki-Chebukki (ID: 17752317/0x010EE0FD) looks at ??? (ID: 17752315/0x010EE0FB)
140: 0x0413 [0x4A] Cherukiki (ID: 17752318/0x010EE0FE) looks at ??? (ID: 17752315/0x010EE0FB)
141: 0x041C [0x6F] WAIT_FRAME_DELAY: Yield until WaitTime reaches zero
142: 0x041D [0x76] CHECK_ENTITY_RENDER_FLAGS: Wait until Makki-Chebukki (ID: 17752316/0x010EE0FC) Render.Flags0 and Render.Flags3 conditions are met
143: 0x0422 [0x6F] WAIT_FRAME_DELAY: Yield until WaitTime reaches zero
144: 0x0423 [0x76] CHECK_ENTITY_RENDER_FLAGS: Wait until Kukki-Chebukki (ID: 17752317/0x010EE0FD) Render.Flags0 and Render.Flags3 conditions are met
145: 0x0428 [0x6F] WAIT_FRAME_DELAY: Yield until WaitTime reaches zero
146: 0x0429 [0x76] CHECK_ENTITY_RENDER_FLAGS: Wait until Cherukiki (ID: 17752318/0x010EE0FE) Render.Flags0 and Render.Flags3 conditions are met
147: 0x042E [0x1C] WAIT(120* ticks)
148: 0x0431 [0x45] LOAD_SCHEDULED_TASK: Load scheduler "s024" with entities [EventEntity, EventEntity], work=[120*, 0*]
149: 0x0442 [0x45] LOAD_SCHEDULED_TASK: Load scheduler "fdi1" with entities [EventEntity, EventEntity], work=[200*, 0*]
150: 0x0453 [0x1C] WAIT(200* ticks)
151: 0x0456 [0x52] END_LOAD_SCHEDULER: End scheduler "s024" with entities [EventEntity, EventEntity], work=120*
152: 0x0465 [0x45] LOAD_SCHEDULED_TASK: Load scheduler "s025" with entities [EventEntity, EventEntity], work=[120*, 0*]
153: 0x0476 [0x45] LOAD_SCHEDULED_TASK: Load scheduler "se75" with entities [EventEntity, EventEntity], work=[120*, 0*]
154: 0x0487 [0x29] REQ_SET_WAIT(priority=0x08, entity_id=Kukki-Chebukki (ID: 17752317/0x010EE0FD), tag_num=0x14)
155: 0x048E [0x2B] Kukki-Chebukki (ID: 17752317/0x010EE0FD) [10460*]:
    → "I'm kinda hungry."
156: 0x0495 [0x23] WAIT_FOR_DIALOG_INTERACTION
157: 0x0496 [0x45] LOAD_SCHEDULED_TASK: Load scheduler "se76" with entities [EventEntity, EventEntity], work=[120*, 0*]
158: 0x04A7 [0x29] REQ_SET_WAIT(priority=0x08, entity_id=Cherukiki (ID: 17752318/0x010EE0FE), tag_num=0x10)
159: 0x04AE [0x2B] Cherukiki (ID: 17752318/0x010EE0FE) [10461*]:
    → "Yeah, me too."
160: 0x04B5 [0x23] WAIT_FOR_DIALOG_INTERACTION
161: 0x04B6 [0x45] LOAD_SCHEDULED_TASK: Load scheduler "se77" with entities [EventEntity, EventEntity], work=[120*, 0*]
162: 0x04C7 [0x29] REQ_SET_WAIT(priority=0x08, entity_id=Makki-Chebukki (ID: 17752316/0x010EE0FC), tag_num=0x14)
163: 0x04CE [0x2B] Makki-Chebukki (ID: 17752316/0x010EE0FC) [10462*]:
    → "..."
164: 0x04D5 [0x23] WAIT_FOR_DIALOG_INTERACTION
165: 0x04D6 [0x52] END_LOAD_SCHEDULER: End scheduler "s025" with entities [EventEntity, EventEntity], work=120*
166: 0x04E5 [0x45] LOAD_SCHEDULED_TASK: Load scheduler "s026" with entities [EventEntity, EventEntity], work=[120*, 0*]
167: 0x04F6 [0x29] REQ_SET_WAIT(priority=0x08, entity_id=Makki-Chebukki (ID: 17752316/0x010EE0FC), tag_num=0x15)
168: 0x04FD [0x2B] Makki-Chebukki (ID: 17752316/0x010EE0FC) [10463*]:
    → "Let's go look for our father!"
169: 0x0504 [0x23] WAIT_FOR_DIALOG_INTERACTION
170: 0x0505 [0x29] REQ_SET_WAIT(priority=0x08, entity_id=Kukki-Chebukki (ID: 17752317/0x010EE0FD), tag_num=0x15)
171: 0x050C [0x29] REQ_SET_WAIT(priority=0x08, entity_id=Cherukiki (ID: 17752318/0x010EE0FE), tag_num=0x11)
172: 0x0513 [0x52] END_LOAD_SCHEDULER: End scheduler "s026" with entities [EventEntity, EventEntity], work=120*
173: 0x0522 [0x45] LOAD_SCHEDULED_TASK: Load scheduler "s027" with entities [EventEntity, EventEntity], work=[120*, 0*]
174: 0x0533 [0x4A] Kukki-Chebukki (ID: 17752317/0x010EE0FD) looks at Makki-Chebukki (ID: 17752316/0x010EE0FC)
175: 0x053C [0x4A] Cherukiki (ID: 17752318/0x010EE0FE) looks at Makki-Chebukki (ID: 17752316/0x010EE0FC)
176: 0x0545 [0x6F] WAIT_FRAME_DELAY: Yield until WaitTime reaches zero
177: 0x0546 [0x76] CHECK_ENTITY_RENDER_FLAGS: Wait until Kukki-Chebukki (ID: 17752317/0x010EE0FD) Render.Flags0 and Render.Flags3 conditions are met
178: 0x054B [0x6F] WAIT_FRAME_DELAY: Yield until WaitTime reaches zero
179: 0x054C [0x76] CHECK_ENTITY_RENDER_FLAGS: Wait until Cherukiki (ID: 17752318/0x010EE0FE) Render.Flags0 and Render.Flags3 conditions are met
180: 0x0551 [0x7B] Kukki-Chebukki (ID: 17752317/0x010EE0FD) stops talking
181: 0x0556 [0x7B] Cherukiki (ID: 17752318/0x010EE0FE) stops talking
182: 0x055B [0x29] REQ_SET_WAIT(priority=0x08, entity_id=Kukki-Chebukki (ID: 17752317/0x010EE0FD), tag_num=0x0A)
183: 0x0562 [0x2B] Kukki-Chebukki (ID: 17752317/0x010EE0FD) [10464*]:
    → "Dad!?"
184: 0x0569 [0x23] WAIT_FOR_DIALOG_INTERACTION
185: 0x056A [0x29] REQ_SET_WAIT(priority=0x08, entity_id=Cherukiki (ID: 17752318/0x010EE0FE), tag_num=0x12)
186: 0x0571 [0x2B] Cherukiki (ID: 17752318/0x010EE0FE) [10465*]:
    → "Daddy!?"
187: 0x0578 [0x23] WAIT_FOR_DIALOG_INTERACTION
188: 0x0579 [0x52] END_LOAD_SCHEDULER: End scheduler "s027" with entities [EventEntity, EventEntity], work=120*
189: 0x0588 [0x45] LOAD_SCHEDULED_TASK: Load scheduler "s028" with entities [EventEntity, EventEntity], work=[120*, 0*]
190: 0x0599 [0x29] REQ_SET_WAIT(priority=0x08, entity_id=Kukki-Chebukki (ID: 17752317/0x010EE0FD), tag_num=0x0B)
191: 0x05A0 [0x29] REQ_SET_WAIT(priority=0x08, entity_id=Cherukiki (ID: 17752318/0x010EE0FE), tag_num=0x13)
192: 0x05A7 [0x79] Kukki-Chebukki (ID: 17752317/0x010EE0FD) looks at Makki-Chebukki (ID: 17752316/0x010EE0FC) (Basic look)
193: 0x05B1 [0x79] Cherukiki (ID: 17752318/0x010EE0FE) looks at Makki-Chebukki (ID: 17752316/0x010EE0FC) (Basic look)
194: 0x05BB [0x27] REQ_SET(priority=0x0B, entity_id=Makki-Chebukki (ID: 17752316/0x010EE0FC), tag_num=0x4D)
195: 0x05C2 [0x2B] Makki-Chebukki (ID: 17752316/0x010EE0FC) [10466*]:
    → "Our father would be a genius, just like us."
196: 0x05C9 [0x23] WAIT_FOR_DIALOG_INTERACTION
197: 0x05CA [0x2A] GET_REQ_LEVEL(level=11, entity_id=Makki-Chebukki (ID: 17752316/0x010EE0FC))
198: 0x05D0 [0x6F] WAIT_FRAME_DELAY: Yield until WaitTime reaches zero
199: 0x05D1 [0x76] CHECK_ENTITY_RENDER_FLAGS: Wait until Kukki-Chebukki (ID: 17752317/0x010EE0FD) Render.Flags0 and Render.Flags3 conditions are met
200: 0x05D6 [0x79] Cherukiki (ID: 17752318/0x010EE0FE) looks at Kukki-Chebukki (ID: 17752317/0x010EE0FD) (Basic look)
201: 0x05E0 [0x79] Makki-Chebukki (ID: 17752316/0x010EE0FC) looks at Cherukiki (ID: 17752318/0x010EE0FE) (Basic look)
202: 0x05EA [0x29] REQ_SET_WAIT(priority=0x08, entity_id=Kukki-Chebukki (ID: 17752317/0x010EE0FD), tag_num=0x01)
203: 0x05F1 [0x2B] Kukki-Chebukki (ID: 17752317/0x010EE0FD) [10467*]:
    → "Our dad would be powerful, just like us."
204: 0x05F8 [0x23] WAIT_FOR_DIALOG_INTERACTION
205: 0x05F9 [0x29] REQ_SET_WAIT(priority=0x08, entity_id=Kukki-Chebukki (ID: 17752317/0x010EE0FD), tag_num=0x02)
206: 0x0600 [0x79] Cherukiki (ID: 17752318/0x010EE0FE) looks at Makki-Chebukki (ID: 17752316/0x010EE0FC) (Basic look)
207: 0x060A [0x79] Kukki-Chebukki (ID: 17752317/0x010EE0FD) looks at Cherukiki (ID: 17752318/0x010EE0FE) (Basic look)
208: 0x0614 [0x29] REQ_SET_WAIT(priority=0x08, entity_id=Cherukiki (ID: 17752318/0x010EE0FE), tag_num=0x01)
209: 0x061B [0x2B] Cherukiki (ID: 17752318/0x010EE0FE) [10468*]:
    → "Our daddy would be someone really important."
210: 0x0622 [0x23] WAIT_FOR_DIALOG_INTERACTION
211: 0x0623 [0x29] REQ_SET_WAIT(priority=0x08, entity_id=Cherukiki (ID: 17752318/0x010EE0FE), tag_num=0x02)
212: 0x062A [0x52] END_LOAD_SCHEDULER: End scheduler "s028" with entities [EventEntity, EventEntity], work=120*
213: 0x0639 [0x45] LOAD_SCHEDULED_TASK: Load scheduler "s030" with entities [EventEntity, EventEntity], work=[120*, 0*]
214: 0x064A [0x7B] Makki-Chebukki (ID: 17752316/0x010EE0FC) stops talking
215: 0x064F [0x4B] UPDATE_ENTITY_YAW(entity=Cherukiki (ID: 17752318/0x010EE0FE), yaw=0.0°*)
216: 0x0656 [0x27] REQ_SET(priority=0x0B, entity_id=Makki-Chebukki (ID: 17752316/0x010EE0FC), tag_num=0x4E)
217: 0x065D [0x2B] Makki-Chebukki (ID: 17752316/0x010EE0FC) [10469*]:
    → "Father!"
218: 0x0664 [0x23] WAIT_FOR_DIALOG_INTERACTION
219: 0x0665 [0x1C] WAIT(30* ticks)
220: 0x0668 [0x6F] WAIT_FRAME_DELAY: Yield until WaitTime reaches zero
221: 0x0669 [0x76] CHECK_ENTITY_RENDER_FLAGS: Wait until Cherukiki (ID: 17752318/0x010EE0FE) Render.Flags0 and Render.Flags3 conditions are met
222: 0x066E [0x7B] Cherukiki (ID: 17752318/0x010EE0FE) stops talking
223: 0x0673 [0x27] REQ_SET(priority=0x0B, entity_id=Cherukiki (ID: 17752318/0x010EE0FE), tag_num=0x4F)
224: 0x067A [0x2B] Cherukiki (ID: 17752318/0x010EE0FE) [10471*]:
    → "Daddy!"
225: 0x0681 [0x23] WAIT_FOR_DIALOG_INTERACTION
226: 0x0682 [0x1C] WAIT(20* ticks)
227: 0x0685 [0x6F] WAIT_FRAME_DELAY: Yield until WaitTime reaches zero
228: 0x0686 [0x76] CHECK_ENTITY_RENDER_FLAGS: Wait until Kukki-Chebukki (ID: 17752317/0x010EE0FD) Render.Flags0 and Render.Flags3 conditions are met
229: 0x068B [0x7B] Kukki-Chebukki (ID: 17752317/0x010EE0FD) stops talking
230: 0x0690 [0x27] REQ_SET(priority=0x0B, entity_id=Kukki-Chebukki (ID: 17752317/0x010EE0FD), tag_num=0x4D)
231: 0x0697 [0x2B] Kukki-Chebukki (ID: 17752317/0x010EE0FD) [10470*]:
    → "Dad!"
232: 0x069E [0x23] WAIT_FOR_DIALOG_INTERACTION
233: 0x069F [0x1C] WAIT(120* ticks)
234: 0x06A2 [0x45] LOAD_SCHEDULED_TASK: Load scheduler "fdo1" with entities [LocalPlayer, LocalPlayer], work=[200*, 0*]
235: 0x06B3 [0x1C] WAIT(300* ticks)
236: 0x06B6 [0x52] END_LOAD_SCHEDULER: End scheduler "s030" with entities [EventEntity, EventEntity], work=120*
237: 0x06C5 [0x5C] MUSIC_CONTROL: Set Idle (Day) music to song 151*
238: 0x06C9 [0x5C] MUSIC_CONTROL: Set Idle (Night) music to song 151*
239: 0x06CD [0x4E] SET_ENTITY_HIDE_FLAG: Show LocalPlayer
240: 0x06D3 [0x80] LOAD_WAIT(entity=LocalPlayer)
241: 0x06D8 [0x4E] SET_ENTITY_HIDE_FLAG: Hide Makki-Chebukki (ID: 17752316/0x010EE0FC)
242: 0x06DE [0x4E] SET_ENTITY_HIDE_FLAG: Hide Kukki-Chebukki (ID: 17752317/0x010EE0FD)
243: 0x06E4 [0x4E] SET_ENTITY_HIDE_FLAG: Hide Cherukiki (ID: 17752318/0x010EE0FE)
244: 0x06EA [0x46] CAMERA_CONTROL: Restore default settings
245: 0x06EC [0x45] LOAD_SCHEDULED_TASK: Load scheduler "fdi1" with entities [LocalPlayer, LocalPlayer], work=[200*, 0*]
246: 0x06FD [0x20] SET_CLI_EVENT_UC_FLAG: Unlock player control
247: 0x06FF [0x21] END_EVENT
248: 0x0700 [0x00] END_REQSTACK()
```

### Event 872

#### Metadata

| Field        | Value     |
|--------------|-----------|
| Entrypoint   | 0x0701    |
| Data Size    | 584 bytes |
| Instructions | 80        |

```
      00 01 02 03 04 05 06 07  08 09 0A 0B 0C 0D 0E 0F
      -- -- -- -- -- -- -- --  -- -- -- -- -- -- -- --
0700:    20 01 42 46 01 5D 05  80 03 80 45 06 80 F8 FF    .BF.]....E....
0710: FF 7F F8 FF FF 7F 66 64  6F 31 05 80 1C 04 80 38  ......fdo1.....8
0720: 01 80 29 08 F0 FF FF 7F  06 75 00 2A 80 75 01 1C  ..)......u.*.u..
0730: 00 80 92 01 2D E0 0E 01  92 01 2E E0 0E 01 4A F0  ....-.........J.
0740: FF FF 7F 2D E0 0E 01 79  00 2D E0 0E 01 F0 FF FF  ...-...y.-......
0750: 7F 79 00 2E E0 0E 01 F0  FF FF 7F 5C 00 2B 80 5C  .y.........\.+.\
0760: 01 2B 80 1C 03 80 29 0B  2D E0 0E 01 4B 29 0B 2E  .+....).-...K)..
0770: E0 0E 01 3D 29 0B F0 FF  FF 7F 57 4E 01 F0 FF FF  ...=).....WN....
0780: 7F 45 04 80 F8 FF FF 7F  F8 FF FF 7F 73 30 32 39  .E..........s029
0790: 05 80 45 06 80 F8 FF FF  7F F8 FF FF 7F 66 64 69  ..E..........fdi
07A0: 31 05 80 2B 2D E0 0E 01  2C 80 23 79 00 2E E0 0E  1..+-...,.#y....
07B0: 01 2D E0 0E 01 4B 2D E0  0E 01 2D 80 79 00 2D E0  .-...K-...-.y.-.
07C0: 0E 01 2E E0 0E 01 1C 00  80 52 04 80 F8 FF FF 7F  .........R......
07D0: F8 FF FF 7F 73 30 32 39  45 06 80 F0 FF FF 7F F0  ....s029E.......
07E0: FF FF 7F 6F 76 6C 31 05  80 45 04 80 F8 FF FF 7F  ...ovl1..E......
07F0: F8 FF FF 7F 73 30 33 32  05 80 79 00 2E E0 0E 01  ....s032..y.....
0800: F0 FF FF 7F 79 00 F0 FF  FF 7F 2E E0 0E 01 29 08  ....y.........).
0810: 2E E0 0E 01 02 2B 2E E0  0E 01 2E 80 23 2B 2E E0  .....+......#+..
0820: 0E 01 2F 80 23 52 04 80  F8 FF FF 7F F8 FF FF 7F  ../.#R..........
0830: 73 30 33 32 45 04 80 F8  FF FF 7F F8 FF FF 7F 73  s032E..........s
0840: 30 33 31 05 80 29 08 2E  E0 0E 01 03 79 00 2E E0  031..)......y...
0850: 0E 01 2D E0 0E 01 79 00  2D E0 0E 01 F0 FF FF 7F  ..-...y.-.......
0860: 79 00 F0 FF FF 7F 2D E0  0E 01 29 08 2D E0 0E 01  y.....-...).-...
0870: 01 2B 2D E0 0E 01 30 80  23 29 08 2D E0 0E 01 02  .+-...0.#).-....
0880: 29 08 2D E0 0E 01 09 2B  2D E0 0E 01 31 80 23 29  ).-....+-...1.#)
0890: 08 2D E0 0E 01 0A 79 00  2E E0 0E 01 F0 FF FF 7F  .-....y.........
08A0: 1C 09 80 4E 00 F0 FF FF  7F 52 04 80 F8 FF FF 7F  ...N.....R......
08B0: F8 FF FF 7F 73 30 33 31  45 04 80 F8 FF FF 7F F8  ....s031E.......
08C0: FF FF 7F 73 30 33 33 05  80 79 00 F0 FF FF 7F 2D  ...s033..y.....-
08D0: E0 0E 01 29 08 2D E0 0E  01 03 2B 2D E0 0E 01 32  ...).-....+-...2
08E0: 80 23 29 08 2D E0 0E 01  04 5D 05 80 04 80 45 06  .#).-....]....E.
08F0: 80 F0 FF FF 7F F0 FF FF  7F 66 64 6F 31 05 80 1C  .........fdo1...
0900: 04 80 5C 00 29 80 5C 01  29 80 52 04 80 F8 FF FF  ..\.).\.).R.....
0910: 7F F8 FF FF 7F 73 30 33  33 29 08 2D E0 0E 01 05  .....s033).-....
0920: 29 08 2D E0 0E 01 06 4E  00 F0 FF FF 7F 80 F0 FF  ).-....N........
0930: FF 7F 46 00 45 06 80 F0  FF FF 7F F0 FF FF 7F 66  ..F.E..........f
0940: 64 69 31 05 80 20 00 21  00                       di1.. .!.       
```

#### Opcodes

```
  0: 0x0701 [0x20] SET_CLI_EVENT_UC_FLAG: Lock player control
  1: 0x0703 [0x42] SET_CLI_EVENT_CANCEL_DATA()
  2: 0x0704 [0x46] CAMERA_CONTROL: Disable user control
  3: 0x0706 [0x5D] SET_MUSIC_VOLUME(volume=0*, fade_time=100*)
  4: 0x070B [0x45] LOAD_SCHEDULED_TASK: Load scheduler "fdo1" with entities [EventEntity, EventEntity], work=[200*, 0*]
  5: 0x071C [0x1C] WAIT(120* ticks)
  6: 0x071F [0x38] SET_CLIENT_EVENT_MODE(mode=19*)
  7: 0x0722 [0x29] REQ_SET_WAIT(priority=0x08, entity_id=LocalPlayer, tag_num=0x06)
  8: 0x0729 [0x75] LOAD_ROOM(Load indoor room, room=397*)
  9: 0x072D [0x75] LOAD_ROOM(No action)
 10: 0x072F [0x1C] WAIT(60* ticks)
 11: 0x0732 [0x92] Ohbiru-Dohbiru (ID: 17752109/0x010EE02D)->Render.Flags3 ^= 0x01
 12: 0x0738 [0x92] Kenapa-Keppa (ID: 17752110/0x010EE02E)->Render.Flags3 ^= 0x01
 13: 0x073E [0x4A] LocalPlayer looks at Ohbiru-Dohbiru (ID: 17752109/0x010EE02D)
 14: 0x0747 [0x79] Ohbiru-Dohbiru (ID: 17752109/0x010EE02D) looks at LocalPlayer (Basic look)
 15: 0x0751 [0x79] Kenapa-Keppa (ID: 17752110/0x010EE02E) looks at LocalPlayer (Basic look)
 16: 0x075B [0x5C] MUSIC_CONTROL: Set Idle (Day) music to song 123*
 17: 0x075F [0x5C] MUSIC_CONTROL: Set Idle (Night) music to song 123*
 18: 0x0763 [0x1C] WAIT(100* ticks)
 19: 0x0766 [0x29] REQ_SET_WAIT(priority=0x0B, entity_id=Ohbiru-Dohbiru (ID: 17752109/0x010EE02D), tag_num=0x4B)
 20: 0x076D [0x29] REQ_SET_WAIT(priority=0x0B, entity_id=Kenapa-Keppa (ID: 17752110/0x010EE02E), tag_num=0x3D)
 21: 0x0774 [0x29] REQ_SET_WAIT(priority=0x0B, entity_id=LocalPlayer, tag_num=0x57)
 22: 0x077B [0x4E] SET_ENTITY_HIDE_FLAG: Hide LocalPlayer
 23: 0x0781 [0x45] LOAD_SCHEDULED_TASK: Load scheduler "s029" with entities [EventEntity, EventEntity], work=[120*, 0*]
 24: 0x0792 [0x45] LOAD_SCHEDULED_TASK: Load scheduler "fdi1" with entities [EventEntity, EventEntity], work=[200*, 0*]
 25: 0x07A3 [0x2B] Ohbiru-Dohbiru (ID: 17752109/0x010EE02D) [10472*]:
    → "What's that? You want to know about the allied expedition?"
 26: 0x07AA [0x23] WAIT_FOR_DIALOG_INTERACTION
 27: 0x07AB [0x79] Kenapa-Keppa (ID: 17752110/0x010EE02E) looks at Ohbiru-Dohbiru (ID: 17752109/0x010EE02D) (Basic look)
 28: 0x07B5 [0x4B] UPDATE_ENTITY_YAW(entity=Ohbiru-Dohbiru (ID: 17752109/0x010EE02D), yaw=17.1°*)
 29: 0x07BC [0x79] Ohbiru-Dohbiru (ID: 17752109/0x010EE02D) looks at Kenapa-Keppa (ID: 17752110/0x010EE02E) (Basic look)
 30: 0x07C6 [0x1C] WAIT(60* ticks)
 31: 0x07C9 [0x52] END_LOAD_SCHEDULER: End scheduler "s029" with entities [EventEntity, EventEntity], work=120*
 32: 0x07D8 [0x45] LOAD_SCHEDULED_TASK: Load scheduler "ovl1" with entities [LocalPlayer, LocalPlayer], work=[200*, 0*]
 33: 0x07E9 [0x45] LOAD_SCHEDULED_TASK: Load scheduler "s032" with entities [EventEntity, EventEntity], work=[120*, 0*]
 34: 0x07FA [0x79] Kenapa-Keppa (ID: 17752110/0x010EE02E) looks at LocalPlayer (Basic look)
 35: 0x0804 [0x79] LocalPlayer looks at Kenapa-Keppa (ID: 17752110/0x010EE02E) (Basic look)
 36: 0x080E [0x29] REQ_SET_WAIT(priority=0x08, entity_id=Kenapa-Keppa (ID: 17752110/0x010EE02E), tag_num=0x02)
 37: 0x0815 [0x2B] Kenapa-Keppa (ID: 17752110/0x010EE02E) [10473*]:
    → "Iru-Kuiru...a...researcher...from...the...Rhinostery..."
 38: 0x081C [0x23] WAIT_FOR_DIALOG_INTERACTION
 39: 0x081D [0x2B] Kenapa-Keppa (ID: 17752110/0x010EE02E) [10474*]:
    → "...was the...representative...from...Windurst."
 40: 0x0824 [0x23] WAIT_FOR_DIALOG_INTERACTION
 41: 0x0825 [0x52] END_LOAD_SCHEDULER: End scheduler "s032" with entities [EventEntity, EventEntity], work=120*
 42: 0x0834 [0x45] LOAD_SCHEDULED_TASK: Load scheduler "s031" with entities [EventEntity, EventEntity], work=[120*, 0*]
 43: 0x0845 [0x29] REQ_SET_WAIT(priority=0x08, entity_id=Kenapa-Keppa (ID: 17752110/0x010EE02E), tag_num=0x03)
 44: 0x084C [0x79] Kenapa-Keppa (ID: 17752110/0x010EE02E) looks at Ohbiru-Dohbiru (ID: 17752109/0x010EE02D) (Basic look)
 45: 0x0856 [0x79] Ohbiru-Dohbiru (ID: 17752109/0x010EE02D) looks at LocalPlayer (Basic look)
 46: 0x0860 [0x79] LocalPlayer looks at Ohbiru-Dohbiru (ID: 17752109/0x010EE02D) (Basic look)
 47: 0x086A [0x29] REQ_SET_WAIT(priority=0x08, entity_id=Ohbiru-Dohbiru (ID: 17752109/0x010EE02D), tag_num=0x01)
 48: 0x0871 [0x2B] Ohbiru-Dohbiru (ID: 17752109/0x010EE02D) [10475*]:
    → "He was banished from the Rhinostery and lostaru his life somewhere in the Outlands."
 49: 0x0878 [0x23] WAIT_FOR_DIALOG_INTERACTION
 50: 0x0879 [0x29] REQ_SET_WAIT(priority=0x08, entity_id=Ohbiru-Dohbiru (ID: 17752109/0x010EE02D), tag_num=0x02)
 51: 0x0880 [0x29] REQ_SET_WAIT(priority=0x08, entity_id=Ohbiru-Dohbiru (ID: 17752109/0x010EE02D), tag_num=0x09)
 52: 0x0887 [0x2B] Ohbiru-Dohbiru (ID: 17752109/0x010EE02D) [10476*]:
    → "If you want to know more about him, you should have a chitchat with Doctor Yoran-Oran in Windurst Walls."
 53: 0x088E [0x23] WAIT_FOR_DIALOG_INTERACTION
 54: 0x088F [0x29] REQ_SET_WAIT(priority=0x08, entity_id=Ohbiru-Dohbiru (ID: 17752109/0x010EE02D), tag_num=0x0A)
 55: 0x0896 [0x79] Kenapa-Keppa (ID: 17752110/0x010EE02E) looks at LocalPlayer (Basic look)
 56: 0x08A0 [0x1C] WAIT(30* ticks)
 57: 0x08A3 [0x4E] SET_ENTITY_HIDE_FLAG: Show LocalPlayer
 58: 0x08A9 [0x52] END_LOAD_SCHEDULER: End scheduler "s031" with entities [EventEntity, EventEntity], work=120*
 59: 0x08B8 [0x45] LOAD_SCHEDULED_TASK: Load scheduler "s033" with entities [EventEntity, EventEntity], work=[120*, 0*]
 60: 0x08C9 [0x79] LocalPlayer looks at Ohbiru-Dohbiru (ID: 17752109/0x010EE02D) (Basic look)
 61: 0x08D3 [0x29] REQ_SET_WAIT(priority=0x08, entity_id=Ohbiru-Dohbiru (ID: 17752109/0x010EE02D), tag_num=0x03)
 62: 0x08DA [0x2B] Ohbiru-Dohbiru (ID: 17752109/0x010EE02D) [10477*]:
    → "I'm not sure he'll be willing to tell you what Iru-Kuiru was researching, mind you. It's probably super-duper-confidential information."
 63: 0x08E1 [0x23] WAIT_FOR_DIALOG_INTERACTION
 64: 0x08E2 [0x29] REQ_SET_WAIT(priority=0x08, entity_id=Ohbiru-Dohbiru (ID: 17752109/0x010EE02D), tag_num=0x04)
 65: 0x08E9 [0x5D] SET_MUSIC_VOLUME(volume=0*, fade_time=120*)
 66: 0x08EE [0x45] LOAD_SCHEDULED_TASK: Load scheduler "fdo1" with entities [LocalPlayer, LocalPlayer], work=[200*, 0*]
 67: 0x08FF [0x1C] WAIT(120* ticks)
 68: 0x0902 [0x5C] MUSIC_CONTROL: Set Idle (Day) music to song 151*
 69: 0x0906 [0x5C] MUSIC_CONTROL: Set Idle (Night) music to song 151*
 70: 0x090A [0x52] END_LOAD_SCHEDULER: End scheduler "s033" with entities [EventEntity, EventEntity], work=120*
 71: 0x0919 [0x29] REQ_SET_WAIT(priority=0x08, entity_id=Ohbiru-Dohbiru (ID: 17752109/0x010EE02D), tag_num=0x05)
 72: 0x0920 [0x29] REQ_SET_WAIT(priority=0x08, entity_id=Ohbiru-Dohbiru (ID: 17752109/0x010EE02D), tag_num=0x06)
 73: 0x0927 [0x4E] SET_ENTITY_HIDE_FLAG: Show LocalPlayer
 74: 0x092D [0x80] LOAD_WAIT(entity=LocalPlayer)
 75: 0x0932 [0x46] CAMERA_CONTROL: Restore default settings
 76: 0x0934 [0x45] LOAD_SCHEDULED_TASK: Load scheduler "fdi1" with entities [LocalPlayer, LocalPlayer], work=[200*, 0*]
 77: 0x0945 [0x20] SET_CLI_EVENT_UC_FLAG: Unlock player control
 78: 0x0947 [0x21] END_EVENT
 79: 0x0948 [0x00] END_REQSTACK()
```

### Event 873

#### Metadata

| Field        | Value      |
|--------------|------------|
| Entrypoint   | 0x0949     |
| Data Size    | 1266 bytes |
| Instructions | 184        |

```
      00 01 02 03 04 05 06 07  08 09 0A 0B 0C 0D 0E 0F
      -- -- -- -- -- -- -- --  -- -- -- -- -- -- -- --
0940:                             20 01 42 46 01 45 06            .BF.E.
0950: 80 F8 FF FF 7F F8 FF FF  7F 66 64 6F 31 05 80 1C  .........fdo1...
0960: 00 80 38 01 80 29 08 F0  FF FF 7F 06 29 0B F0 FF  ..8..)......)...
0970: FF 7F 5B 29 0B FC E0 0E  01 50 29 0B FD E0 0E 01  ..[).....P).....
0980: 4F 29 0B FE E0 0E 01 51  4A 53 E0 0E 01 F0 FF FF  O).....QJS......
0990: 7F 6F 76 53 E0 0E 01 92  01 53 E0 0E 01 1C 00 80  .ovS.....S......
09A0: 75 00 33 80 75 01 1C 00  80 45 04 80 F8 FF FF 7F  u.3.u....E......
09B0: F8 FF FF 7F 73 30 34 39  05 80 45 06 80 F8 FF FF  ....s049..E.....
09C0: 7F F8 FF FF 7F 66 64 69  31 05 80 29 08 53 E0 0E  .....fdi1..).S..
09D0: 01 01 2B 53 E0 0E 01 34  80 23 29 08 53 E0 0E 01  ..+S...4.#).S...
09E0: 02 29 08 53 E0 0E 01 03  2B 53 E0 0E 01 35 80 23  .).S....+S...5.#
09F0: 29 08 53 E0 0E 01 04 29  08 53 E0 0E 01 05 2B 53  ).S....).S....+S
0A00: E0 0E 01 36 80 23 29 08  53 E0 0E 01 06 5D 05 80  ...6.#).S....]..
0A10: 04 80 45 06 80 F8 FF FF  7F F8 FF FF 7F 66 64 6F  ..E..........fdo
0A20: 31 05 80 1C 04 80 52 04  80 F8 FF FF 7F F8 FF FF  1.....R.........
0A30: 7F 73 30 34 39 4E 00 FC  E0 0E 01 4E 00 FD E0 0E  .s049N.....N....
0A40: 01 4E 00 FE E0 0E 01 80  FC E0 0E 01 80 FD E0 0E  .N..............
0A50: 01 80 FE E0 0E 01 4E 01  53 E0 0E 01 5C 00 02 80  ......N.S...\...
0A60: 5C 01 02 80 27 0B A9 E0  0E 01 05 27 0B FC E0 0E  \...'......'....
0A70: 01 51 1C 0E 80 27 0B FD  E0 0E 01 50 1C 37 80 27  .Q...'.....P.7.'
0A80: 0B FE E0 0E 01 52 45 04  80 F8 FF FF 7F F8 FF FF  .....RE.........
0A90: 7F 73 30 35 30 05 80 45  06 80 F8 FF FF 7F F8 FF  .s050..E........
0AA0: FF 7F 66 64 69 31 05 80  1C 38 80 2B FE E0 0E 01  ..fdi1...8.+....
0AB0: 39 80 23 1C 04 80 2B FD  E0 0E 01 3A 80 23 52 04  9.#...+....:.#R.
0AC0: 80 F8 FF FF 7F F8 FF FF  7F 73 30 35 30 45 04 80  .........s050E..
0AD0: F8 FF FF 7F F8 FF FF 7F  73 30 35 31 05 80 1C 04  ........s051....
0AE0: 80 2B FC E0 0E 01 3B 80  23 2A 0B FC E0 0E 01 2A  .+....;.#*.....*
0AF0: 0B FD E0 0E 01 2A 0B FE  E0 0E 01 2A 0B A9 E0 0E  .....*.....*....
0B00: 01 52 04 80 F8 FF FF 7F  F8 FF FF 7F 73 30 35 31  .R..........s051
0B10: 45 04 80 F8 FF FF 7F F8  FF FF 7F 73 30 35 32 05  E..........s052.
0B20: 80 79 00 FE E0 0E 01 FD  E0 0E 01 4B FD E0 0E 01  .y.........K....
0B30: 3C 80 4B FC E0 0E 01 3D  80 6F 76 FD E0 0E 01 6F  <.K....=.ov....o
0B40: 76 FC E0 0E 01 29 08 FD  E0 0E 01 01 2B FD E0 0E  v....)......+...
0B50: 01 3E 80 23 29 08 FD E0  0E 01 02 79 00 FD E0 0E  .>.#)......y....
0B60: 01 FE E0 0E 01 29 08 FE  E0 0E 01 01 2B FE E0 0E  .....)......+...
0B70: 01 3F 80 23 29 08 FE E0  0E 01 02 52 04 80 F8 FF  .?.#)......R....
0B80: FF 7F F8 FF FF 7F 73 30  35 32 45 04 80 F8 FF FF  ......s052E.....
0B90: 7F F8 FF FF 7F 73 30 35  33 05 80 4B FD E0 0E 01  .....s053..K....
0BA0: 40 80 79 00 FE E0 0E 01  FC E0 0E 01 79 00 FD E0  @.y.........y...
0BB0: 0E 01 FC E0 0E 01 29 08  FC E0 0E 01 0E 2B FC E0  ......)......+..
0BC0: 0E 01 41 80 23 29 08 FC  E0 0E 01 0F 6F 76 FD E0  ..A.#)......ov..
0BD0: 0E 01 29 08 FC E0 0E 01  10 2B FC E0 0E 01 42 80  ..)......+....B.
0BE0: 23 29 08 FC E0 0E 01 11  52 04 80 F8 FF FF 7F F8  #)......R.......
0BF0: FF FF 7F 73 30 35 33 45  04 80 F8 FF FF 7F F8 FF  ...s053E........
0C00: FF 7F 73 30 35 34 05 80  79 00 FD E0 0E 01 FE E0  ..s054..y.......
0C10: 0E 01 79 00 FE E0 0E 01  FD E0 0E 01 1C 38 80 79  ..y..........8.y
0C20: 00 FD E0 0E 01 FC E0 0E  01 79 00 FE E0 0E 01 FC  .........y......
0C30: E0 0E 01 2B FD E0 0E 01  43 80 23 2B FE E0 0E 01  ...+....C.#+....
0C40: 44 80 23 52 04 80 F8 FF  FF 7F F8 FF FF 7F 73 30  D.#R..........s0
0C50: 35 34 45 04 80 F8 FF FF  7F F8 FF FF 7F 73 30 35  54E..........s05
0C60: 35 05 80 27 0B FC E0 0E  01 52 2B FC E0 0E 01 45  5..'.....R+....E
0C70: 80 23 79 00 FE E0 0E 01  FD E0 0E 01 29 08 FD E0  .#y.........)...
0C80: 0E 01 01 2B FD E0 0E 01  46 80 23 29 08 FD E0 0E  ...+....F.#)....
0C90: 01 02 7B FE E0 0E 01 29  08 FE E0 0E 01 01 2B FE  ..{....)......+.
0CA0: E0 0E 01 47 80 23 29 08  FE E0 0E 01 02 2A 0B FC  ...G.#)......*..
0CB0: E0 0E 01 52 04 80 F8 FF  FF 7F F8 FF FF 7F 73 30  ...R..........s0
0CC0: 35 35 45 04 80 F8 FF FF  7F F8 FF FF 7F 73 30 35  55E..........s05
0CD0: 36 05 80 4A FC E0 0E 01  FE E0 0E 01 6F 76 FC E0  6..J........ov..
0CE0: 0E 01 29 08 FC E0 0E 01  1C 2B FC E0 0E 01 48 80  ..)......+....H.
0CF0: 23 29 08 FC E0 0E 01 1D  29 08 FE E0 0E 01 14 29  #)......)......)
0D00: 08 FD E0 0E 01 1C 2B FE  E0 0E 01 49 80 23 2B FD  ......+....I.#+.
0D10: E0 0E 01 4A 80 23 29 08  FD E0 0E 01 1D 29 08 FE  ...J.#)......)..
0D20: E0 0E 01 15 52 04 80 F8  FF FF 7F F8 FF FF 7F 73  ....R..........s
0D30: 30 35 36 45 04 80 F8 FF  FF 7F F8 FF FF 7F 73 30  056E..........s0
0D40: 35 37 05 80 7B FE E0 0E  01 7B FD E0 0E 01 7B FC  57..{....{....{.
0D50: E0 0E 01 27 0B FC E0 0E  01 54 1C 07 80 27 0B FD  ...'.....T...'..
0D60: E0 0E 01 51 1C 09 80 27  0B FE E0 0E 01 53 1C 04  ...Q...'.....S..
0D70: 80 5D 05 80 04 80 45 06  80 F0 FF FF 7F F0 FF FF  .]....E.........
0D80: 7F 66 64 6F 31 05 80 1C  00 80 52 04 80 F8 FF FF  .fdo1.....R.....
0D90: 7F F8 FF FF 7F 73 30 35  37 2A 0B FC E0 0E 01 2A  .....s057*.....*
0DA0: 0B FD E0 0E 01 2A 0B FE  E0 0E 01 5C 00 29 80 5C  .....*.....\.).\
0DB0: 01 29 80 4E 00 53 E0 0E  01 80 53 E0 0E 01 29 08  .).N.S....S...).
0DC0: 53 E0 0E 01 01 45 04 80  F8 FF FF 7F F8 FF FF 7F  S....E..........
0DD0: 73 30 34 39 05 80 45 06  80 F8 FF FF 7F F8 FF FF  s049..E.........
0DE0: 7F 66 64 69 31 05 80 2B  53 E0 0E 01 4B 80 23 29  .fdi1..+S...K.#)
0DF0: 08 53 E0 0E 01 02 45 06  80 F0 FF FF 7F F0 FF FF  .S....E.........
0E00: 7F 66 64 6F 31 05 80 1C  00 80 52 04 80 F8 FF FF  .fdo1.....R.....
0E10: 7F F8 FF FF 7F 73 30 34  39 4E 00 F0 FF FF 7F 80  .....s049N......
0E20: F0 FF FF 7F 46 00 45 06  80 F0 FF FF 7F F0 FF FF  ....F.E.........
0E30: 7F 66 64 69 31 05 80 20  00 21 00                 .fdi1.. .!.     
```

#### Opcodes

```
  0: 0x0949 [0x20] SET_CLI_EVENT_UC_FLAG: Lock player control
  1: 0x094B [0x42] SET_CLI_EVENT_CANCEL_DATA()
  2: 0x094C [0x46] CAMERA_CONTROL: Disable user control
  3: 0x094E [0x45] LOAD_SCHEDULED_TASK: Load scheduler "fdo1" with entities [EventEntity, EventEntity], work=[200*, 0*]
  4: 0x095F [0x1C] WAIT(60* ticks)
  5: 0x0962 [0x38] SET_CLIENT_EVENT_MODE(mode=19*)
  6: 0x0965 [0x29] REQ_SET_WAIT(priority=0x08, entity_id=LocalPlayer, tag_num=0x06)
  7: 0x096C [0x29] REQ_SET_WAIT(priority=0x0B, entity_id=LocalPlayer, tag_num=0x5B)
  8: 0x0973 [0x29] REQ_SET_WAIT(priority=0x0B, entity_id=Makki-Chebukki (ID: 17752316/0x010EE0FC), tag_num=0x50)
  9: 0x097A [0x29] REQ_SET_WAIT(priority=0x0B, entity_id=Kukki-Chebukki (ID: 17752317/0x010EE0FD), tag_num=0x4F)
 10: 0x0981 [0x29] REQ_SET_WAIT(priority=0x0B, entity_id=Cherukiki (ID: 17752318/0x010EE0FE), tag_num=0x51)
 11: 0x0988 [0x4A] Kyume-Romeh (ID: 17752147/0x010EE053) looks at LocalPlayer
 12: 0x0991 [0x6F] WAIT_FRAME_DELAY: Yield until WaitTime reaches zero
 13: 0x0992 [0x76] CHECK_ENTITY_RENDER_FLAGS: Wait until Kyume-Romeh (ID: 17752147/0x010EE053) Render.Flags0 and Render.Flags3 conditions are met
 14: 0x0997 [0x92] Kyume-Romeh (ID: 17752147/0x010EE053)->Render.Flags3 ^= 0x01
 15: 0x099D [0x1C] WAIT(60* ticks)
 16: 0x09A0 [0x75] LOAD_ROOM(Load indoor room, room=384*)
 17: 0x09A4 [0x75] LOAD_ROOM(No action)
 18: 0x09A6 [0x1C] WAIT(60* ticks)
 19: 0x09A9 [0x45] LOAD_SCHEDULED_TASK: Load scheduler "s049" with entities [EventEntity, EventEntity], work=[120*, 0*]
 20: 0x09BA [0x45] LOAD_SCHEDULED_TASK: Load scheduler "fdi1" with entities [EventEntity, EventEntity], work=[200*, 0*]
 21: 0x09CB [0x29] REQ_SET_WAIT(priority=0x08, entity_id=Kyume-Romeh (ID: 17752147/0x010EE053), tag_num=0x01)
 22: 0x09D2 [0x2B] Kyume-Romeh (ID: 17752147/0x010EE053) [10479*]:
    → "Munch-munch...chew-chew... What's that? You have a question you want to ask me, the man on the spot?"
 23: 0x09D9 [0x23] WAIT_FOR_DIALOG_INTERACTION
 24: 0x09DA [0x29] REQ_SET_WAIT(priority=0x08, entity_id=Kyume-Romeh (ID: 17752147/0x010EE053), tag_num=0x02)
 25: 0x09E1 [0x29] REQ_SET_WAIT(priority=0x08, entity_id=Kyume-Romeh (ID: 17752147/0x010EE053), tag_num=0x03)
 26: 0x09E8 [0x2B] Kyume-Romeh (ID: 17752147/0x010EE053) [10480*]:
    → "You wanna know if three Tarutaru wearing strange clothing were here while I was stewing over my stew?"
 27: 0x09EF [0x23] WAIT_FOR_DIALOG_INTERACTION
 28: 0x09F0 [0x29] REQ_SET_WAIT(priority=0x08, entity_id=Kyume-Romeh (ID: 17752147/0x010EE053), tag_num=0x04)
 29: 0x09F7 [0x29] REQ_SET_WAIT(priority=0x08, entity_id=Kyume-Romeh (ID: 17752147/0x010EE053), tag_num=0x05)
 30: 0x09FE [0x2B] Kyume-Romeh (ID: 17752147/0x010EE053) [10481*]:
    → "I did see three Tarutaru with appetites almost as big as mine, if that helps. Munch-munch...chew-chew...slurp..."
 31: 0x0A05 [0x23] WAIT_FOR_DIALOG_INTERACTION
 32: 0x0A06 [0x29] REQ_SET_WAIT(priority=0x08, entity_id=Kyume-Romeh (ID: 17752147/0x010EE053), tag_num=0x06)
 33: 0x0A0D [0x5D] SET_MUSIC_VOLUME(volume=0*, fade_time=120*)
 34: 0x0A12 [0x45] LOAD_SCHEDULED_TASK: Load scheduler "fdo1" with entities [EventEntity, EventEntity], work=[200*, 0*]
 35: 0x0A23 [0x1C] WAIT(120* ticks)
 36: 0x0A26 [0x52] END_LOAD_SCHEDULER: End scheduler "s049" with entities [EventEntity, EventEntity], work=120*
 37: 0x0A35 [0x4E] SET_ENTITY_HIDE_FLAG: Show Makki-Chebukki (ID: 17752316/0x010EE0FC)
 38: 0x0A3B [0x4E] SET_ENTITY_HIDE_FLAG: Show Kukki-Chebukki (ID: 17752317/0x010EE0FD)
 39: 0x0A41 [0x4E] SET_ENTITY_HIDE_FLAG: Show Cherukiki (ID: 17752318/0x010EE0FE)
 40: 0x0A47 [0x80] LOAD_WAIT(entity=Makki-Chebukki (ID: 17752316/0x010EE0FC))
 41: 0x0A4C [0x80] LOAD_WAIT(entity=Kukki-Chebukki (ID: 17752317/0x010EE0FD))
 42: 0x0A51 [0x80] LOAD_WAIT(entity=Cherukiki (ID: 17752318/0x010EE0FE))
 43: 0x0A56 [0x4E] SET_ENTITY_HIDE_FLAG: Hide Kyume-Romeh (ID: 17752147/0x010EE053)
 44: 0x0A5C [0x5C] MUSIC_CONTROL: Set Idle (Day) music to song 163*
 45: 0x0A60 [0x5C] MUSIC_CONTROL: Set Idle (Night) music to song 163*
 46: 0x0A64 [0x27] REQ_SET(priority=0x0B, entity_id=Door:"Timbre Timbers" (ID: 17752233/0x010EE0A9), tag_num=0x05)
 47: 0x0A6B [0x27] REQ_SET(priority=0x0B, entity_id=Makki-Chebukki (ID: 17752316/0x010EE0FC), tag_num=0x51)
 48: 0x0A72 [0x1C] WAIT(10* ticks)
 49: 0x0A75 [0x27] REQ_SET(priority=0x0B, entity_id=Kukki-Chebukki (ID: 17752317/0x010EE0FD), tag_num=0x50)
 50: 0x0A7C [0x1C] WAIT(5* ticks)
 51: 0x0A7F [0x27] REQ_SET(priority=0x0B, entity_id=Cherukiki (ID: 17752318/0x010EE0FE), tag_num=0x52)
 52: 0x0A86 [0x45] LOAD_SCHEDULED_TASK: Load scheduler "s050" with entities [EventEntity, EventEntity], work=[120*, 0*]
 53: 0x0A97 [0x45] LOAD_SCHEDULED_TASK: Load scheduler "fdi1" with entities [EventEntity, EventEntity], work=[200*, 0*]
 54: 0x0AA8 [0x1C] WAIT(90* ticks)
 55: 0x0AAB [0x2B] Cherukiki (ID: 17752318/0x010EE0FE) [10482*]:
    → "Ooh, I'm stuffed."
 56: 0x0AB2 [0x23] WAIT_FOR_DIALOG_INTERACTION
 57: 0x0AB3 [0x1C] WAIT(120* ticks)
 58: 0x0AB6 [0x2B] Kukki-Chebukki (ID: 17752317/0x010EE0FD) [10483*]:
    → "I think I've gone up three belly sizes."
 59: 0x0ABD [0x23] WAIT_FOR_DIALOG_INTERACTION
 60: 0x0ABE [0x52] END_LOAD_SCHEDULER: End scheduler "s050" with entities [EventEntity, EventEntity], work=120*
 61: 0x0ACD [0x45] LOAD_SCHEDULED_TASK: Load scheduler "s051" with entities [EventEntity, EventEntity], work=[120*, 0*]
 62: 0x0ADE [0x1C] WAIT(120* ticks)
 63: 0x0AE1 [0x2B] Makki-Chebukki (ID: 17752316/0x010EE0FC) [10484*]:
    → "I shouldn't have had that last roast rarab..."
 64: 0x0AE8 [0x23] WAIT_FOR_DIALOG_INTERACTION
 65: 0x0AE9 [0x2A] GET_REQ_LEVEL(level=11, entity_id=Makki-Chebukki (ID: 17752316/0x010EE0FC))
 66: 0x0AEF [0x2A] GET_REQ_LEVEL(level=11, entity_id=Kukki-Chebukki (ID: 17752317/0x010EE0FD))
 67: 0x0AF5 [0x2A] GET_REQ_LEVEL(level=11, entity_id=Cherukiki (ID: 17752318/0x010EE0FE))
 68: 0x0AFB [0x2A] GET_REQ_LEVEL(level=11, entity_id=Door:"Timbre Timbers" (ID: 17752233/0x010EE0A9))
 69: 0x0B01 [0x52] END_LOAD_SCHEDULER: End scheduler "s051" with entities [EventEntity, EventEntity], work=120*
 70: 0x0B10 [0x45] LOAD_SCHEDULED_TASK: Load scheduler "s052" with entities [EventEntity, EventEntity], work=[120*, 0*]
 71: 0x0B21 [0x79] Cherukiki (ID: 17752318/0x010EE0FE) looks at Kukki-Chebukki (ID: 17752317/0x010EE0FD) (Basic look)
 72: 0x0B2B [0x4B] UPDATE_ENTITY_YAW(entity=Kukki-Chebukki (ID: 17752317/0x010EE0FD), yaw=14.4°*)
 73: 0x0B32 [0x4B] UPDATE_ENTITY_YAW(entity=Makki-Chebukki (ID: 17752316/0x010EE0FC), yaw=21.0°*)
 74: 0x0B39 [0x6F] WAIT_FRAME_DELAY: Yield until WaitTime reaches zero
 75: 0x0B3A [0x76] CHECK_ENTITY_RENDER_FLAGS: Wait until Kukki-Chebukki (ID: 17752317/0x010EE0FD) Render.Flags0 and Render.Flags3 conditions are met
 76: 0x0B3F [0x6F] WAIT_FRAME_DELAY: Yield until WaitTime reaches zero
 77: 0x0B40 [0x76] CHECK_ENTITY_RENDER_FLAGS: Wait until Makki-Chebukki (ID: 17752316/0x010EE0FC) Render.Flags0 and Render.Flags3 conditions are met
 78: 0x0B45 [0x29] REQ_SET_WAIT(priority=0x08, entity_id=Kukki-Chebukki (ID: 17752317/0x010EE0FD), tag_num=0x01)
 79: 0x0B4C [0x2B] Kukki-Chebukki (ID: 17752317/0x010EE0FD) [10485*]:
    → "Wow, I thought our number was up when that humongous dragon got his claws into us."
 80: 0x0B53 [0x23] WAIT_FOR_DIALOG_INTERACTION
 81: 0x0B54 [0x29] REQ_SET_WAIT(priority=0x08, entity_id=Kukki-Chebukki (ID: 17752317/0x010EE0FD), tag_num=0x02)
 82: 0x0B5B [0x79] Kukki-Chebukki (ID: 17752317/0x010EE0FD) looks at Cherukiki (ID: 17752318/0x010EE0FE) (Basic look)
 83: 0x0B65 [0x29] REQ_SET_WAIT(priority=0x08, entity_id=Cherukiki (ID: 17752318/0x010EE0FE), tag_num=0x01)
 84: 0x0B6C [0x2B] Cherukiki (ID: 17752318/0x010EE0FE) [10486*]:
    → "That big lizard left us without two gil to rub together."
 85: 0x0B73 [0x23] WAIT_FOR_DIALOG_INTERACTION
 86: 0x0B74 [0x29] REQ_SET_WAIT(priority=0x08, entity_id=Cherukiki (ID: 17752318/0x010EE0FE), tag_num=0x02)
 87: 0x0B7B [0x52] END_LOAD_SCHEDULER: End scheduler "s052" with entities [EventEntity, EventEntity], work=120*
 88: 0x0B8A [0x45] LOAD_SCHEDULED_TASK: Load scheduler "s053" with entities [EventEntity, EventEntity], work=[120*, 0*]
 89: 0x0B9B [0x4B] UPDATE_ENTITY_YAW(entity=Kukki-Chebukki (ID: 17752317/0x010EE0FD), yaw=12.7°*)
 90: 0x0BA2 [0x79] Cherukiki (ID: 17752318/0x010EE0FE) looks at Makki-Chebukki (ID: 17752316/0x010EE0FC) (Basic look)
 91: 0x0BAC [0x79] Kukki-Chebukki (ID: 17752317/0x010EE0FD) looks at Makki-Chebukki (ID: 17752316/0x010EE0FC) (Basic look)
 92: 0x0BB6 [0x29] REQ_SET_WAIT(priority=0x08, entity_id=Makki-Chebukki (ID: 17752316/0x010EE0FC), tag_num=0x0E)
 93: 0x0BBD [0x2B] Makki-Chebukki (ID: 17752316/0x010EE0FC) [10487*]:
    → "... You know, I've been thinking..."
 94: 0x0BC4 [0x23] WAIT_FOR_DIALOG_INTERACTION
 95: 0x0BC5 [0x29] REQ_SET_WAIT(priority=0x08, entity_id=Makki-Chebukki (ID: 17752316/0x010EE0FC), tag_num=0x0F)
 96: 0x0BCC [0x6F] WAIT_FRAME_DELAY: Yield until WaitTime reaches zero
 97: 0x0BCD [0x76] CHECK_ENTITY_RENDER_FLAGS: Wait until Kukki-Chebukki (ID: 17752317/0x010EE0FD) Render.Flags0 and Render.Flags3 conditions are met
 98: 0x0BD2 [0x29] REQ_SET_WAIT(priority=0x08, entity_id=Makki-Chebukki (ID: 17752316/0x010EE0FC), tag_num=0x10)
 99: 0x0BD9 [0x2B] Makki-Chebukki (ID: 17752316/0x010EE0FC) [10488*]:
    → "I don't think that guy was our father."
100: 0x0BE0 [0x23] WAIT_FOR_DIALOG_INTERACTION
101: 0x0BE1 [0x29] REQ_SET_WAIT(priority=0x08, entity_id=Makki-Chebukki (ID: 17752316/0x010EE0FC), tag_num=0x11)
102: 0x0BE8 [0x52] END_LOAD_SCHEDULER: End scheduler "s053" with entities [EventEntity, EventEntity], work=120*
103: 0x0BF7 [0x45] LOAD_SCHEDULED_TASK: Load scheduler "s054" with entities [EventEntity, EventEntity], work=[120*, 0*]
104: 0x0C08 [0x79] Kukki-Chebukki (ID: 17752317/0x010EE0FD) looks at Cherukiki (ID: 17752318/0x010EE0FE) (Basic look)
105: 0x0C12 [0x79] Cherukiki (ID: 17752318/0x010EE0FE) looks at Kukki-Chebukki (ID: 17752317/0x010EE0FD) (Basic look)
106: 0x0C1C [0x1C] WAIT(90* ticks)
107: 0x0C1F [0x79] Kukki-Chebukki (ID: 17752317/0x010EE0FD) looks at Makki-Chebukki (ID: 17752316/0x010EE0FC) (Basic look)
108: 0x0C29 [0x79] Cherukiki (ID: 17752318/0x010EE0FE) looks at Makki-Chebukki (ID: 17752316/0x010EE0FC) (Basic look)
109: 0x0C33 [0x2B] Kukki-Chebukki (ID: 17752317/0x010EE0FD) [10489*]:
    → "Nah, not our dad."
110: 0x0C3A [0x23] WAIT_FOR_DIALOG_INTERACTION
111: 0x0C3B [0x2B] Cherukiki (ID: 17752318/0x010EE0FE) [10490*]:
    → "Nope, not our daddy."
112: 0x0C42 [0x23] WAIT_FOR_DIALOG_INTERACTION
113: 0x0C43 [0x52] END_LOAD_SCHEDULER: End scheduler "s054" with entities [EventEntity, EventEntity], work=120*
114: 0x0C52 [0x45] LOAD_SCHEDULED_TASK: Load scheduler "s055" with entities [EventEntity, EventEntity], work=[120*, 0*]
115: 0x0C63 [0x27] REQ_SET(priority=0x0B, entity_id=Makki-Chebukki (ID: 17752316/0x010EE0FC), tag_num=0x52)
116: 0x0C6A [0x2B] Makki-Chebukki (ID: 17752316/0x010EE0FC) [10491*]:
    → "Our father would be someone with a lot more cash."
117: 0x0C71 [0x23] WAIT_FOR_DIALOG_INTERACTION
118: 0x0C72 [0x79] Cherukiki (ID: 17752318/0x010EE0FE) looks at Kukki-Chebukki (ID: 17752317/0x010EE0FD) (Basic look)
119: 0x0C7C [0x29] REQ_SET_WAIT(priority=0x08, entity_id=Kukki-Chebukki (ID: 17752317/0x010EE0FD), tag_num=0x01)
120: 0x0C83 [0x2B] Kukki-Chebukki (ID: 17752317/0x010EE0FD) [10492*]:
    → "Yeah, our mom had that huge gem, after all."
121: 0x0C8A [0x23] WAIT_FOR_DIALOG_INTERACTION
122: 0x0C8B [0x29] REQ_SET_WAIT(priority=0x08, entity_id=Kukki-Chebukki (ID: 17752317/0x010EE0FD), tag_num=0x02)
123: 0x0C92 [0x7B] Cherukiki (ID: 17752318/0x010EE0FE) stops talking
124: 0x0C97 [0x29] REQ_SET_WAIT(priority=0x08, entity_id=Cherukiki (ID: 17752318/0x010EE0FE), tag_num=0x01)
125: 0x0C9E [0x2B] Cherukiki (ID: 17752318/0x010EE0FE) [10493*]:
    → "And that lovely fur coat."
126: 0x0CA5 [0x23] WAIT_FOR_DIALOG_INTERACTION
127: 0x0CA6 [0x29] REQ_SET_WAIT(priority=0x08, entity_id=Cherukiki (ID: 17752318/0x010EE0FE), tag_num=0x02)
128: 0x0CAD [0x2A] GET_REQ_LEVEL(level=11, entity_id=Makki-Chebukki (ID: 17752316/0x010EE0FC))
129: 0x0CB3 [0x52] END_LOAD_SCHEDULER: End scheduler "s055" with entities [EventEntity, EventEntity], work=120*
130: 0x0CC2 [0x45] LOAD_SCHEDULED_TASK: Load scheduler "s056" with entities [EventEntity, EventEntity], work=[120*, 0*]
131: 0x0CD3 [0x4A] Makki-Chebukki (ID: 17752316/0x010EE0FC) looks at Cherukiki (ID: 17752318/0x010EE0FE)
132: 0x0CDC [0x6F] WAIT_FRAME_DELAY: Yield until WaitTime reaches zero
133: 0x0CDD [0x76] CHECK_ENTITY_RENDER_FLAGS: Wait until Makki-Chebukki (ID: 17752316/0x010EE0FC) Render.Flags0 and Render.Flags3 conditions are met
134: 0x0CE2 [0x29] REQ_SET_WAIT(priority=0x08, entity_id=Makki-Chebukki (ID: 17752316/0x010EE0FC), tag_num=0x1C)
135: 0x0CE9 [0x2B] Makki-Chebukki (ID: 17752316/0x010EE0FC) [10494*]:
    → "Right, then. Let's go look for our real father!"
136: 0x0CF0 [0x23] WAIT_FOR_DIALOG_INTERACTION
137: 0x0CF1 [0x29] REQ_SET_WAIT(priority=0x08, entity_id=Makki-Chebukki (ID: 17752316/0x010EE0FC), tag_num=0x1D)
138: 0x0CF8 [0x29] REQ_SET_WAIT(priority=0x08, entity_id=Cherukiki (ID: 17752318/0x010EE0FE), tag_num=0x14)
139: 0x0CFF [0x29] REQ_SET_WAIT(priority=0x08, entity_id=Kukki-Chebukki (ID: 17752317/0x010EE0FD), tag_num=0x1C)
140: 0x0D06 [0x2B] Cherukiki (ID: 17752318/0x010EE0FE) [10496*]:
    → "Ready or not!"
141: 0x0D0D [0x23] WAIT_FOR_DIALOG_INTERACTION
142: 0x0D0E [0x2B] Kukki-Chebukki (ID: 17752317/0x010EE0FD) [10495*]:
    → "Here we come, Dad!"
143: 0x0D15 [0x23] WAIT_FOR_DIALOG_INTERACTION
144: 0x0D16 [0x29] REQ_SET_WAIT(priority=0x08, entity_id=Kukki-Chebukki (ID: 17752317/0x010EE0FD), tag_num=0x1D)
145: 0x0D1D [0x29] REQ_SET_WAIT(priority=0x08, entity_id=Cherukiki (ID: 17752318/0x010EE0FE), tag_num=0x15)
146: 0x0D24 [0x52] END_LOAD_SCHEDULER: End scheduler "s056" with entities [EventEntity, EventEntity], work=120*
147: 0x0D33 [0x45] LOAD_SCHEDULED_TASK: Load scheduler "s057" with entities [EventEntity, EventEntity], work=[120*, 0*]
148: 0x0D44 [0x7B] Cherukiki (ID: 17752318/0x010EE0FE) stops talking
149: 0x0D49 [0x7B] Kukki-Chebukki (ID: 17752317/0x010EE0FD) stops talking
150: 0x0D4E [0x7B] Makki-Chebukki (ID: 17752316/0x010EE0FC) stops talking
151: 0x0D53 [0x27] REQ_SET(priority=0x0B, entity_id=Makki-Chebukki (ID: 17752316/0x010EE0FC), tag_num=0x54)
152: 0x0D5A [0x1C] WAIT(50* ticks)
153: 0x0D5D [0x27] REQ_SET(priority=0x0B, entity_id=Kukki-Chebukki (ID: 17752317/0x010EE0FD), tag_num=0x51)
154: 0x0D64 [0x1C] WAIT(30* ticks)
155: 0x0D67 [0x27] REQ_SET(priority=0x0B, entity_id=Cherukiki (ID: 17752318/0x010EE0FE), tag_num=0x53)
156: 0x0D6E [0x1C] WAIT(120* ticks)
157: 0x0D71 [0x5D] SET_MUSIC_VOLUME(volume=0*, fade_time=120*)
158: 0x0D76 [0x45] LOAD_SCHEDULED_TASK: Load scheduler "fdo1" with entities [LocalPlayer, LocalPlayer], work=[200*, 0*]
159: 0x0D87 [0x1C] WAIT(60* ticks)
160: 0x0D8A [0x52] END_LOAD_SCHEDULER: End scheduler "s057" with entities [EventEntity, EventEntity], work=120*
161: 0x0D99 [0x2A] GET_REQ_LEVEL(level=11, entity_id=Makki-Chebukki (ID: 17752316/0x010EE0FC))
162: 0x0D9F [0x2A] GET_REQ_LEVEL(level=11, entity_id=Kukki-Chebukki (ID: 17752317/0x010EE0FD))
163: 0x0DA5 [0x2A] GET_REQ_LEVEL(level=11, entity_id=Cherukiki (ID: 17752318/0x010EE0FE))
164: 0x0DAB [0x5C] MUSIC_CONTROL: Set Idle (Day) music to song 151*
165: 0x0DAF [0x5C] MUSIC_CONTROL: Set Idle (Night) music to song 151*
166: 0x0DB3 [0x4E] SET_ENTITY_HIDE_FLAG: Show Kyume-Romeh (ID: 17752147/0x010EE053)
167: 0x0DB9 [0x80] LOAD_WAIT(entity=Kyume-Romeh (ID: 17752147/0x010EE053))
168: 0x0DBE [0x29] REQ_SET_WAIT(priority=0x08, entity_id=Kyume-Romeh (ID: 17752147/0x010EE053), tag_num=0x01)
169: 0x0DC5 [0x45] LOAD_SCHEDULED_TASK: Load scheduler "s049" with entities [EventEntity, EventEntity], work=[120*, 0*]
170: 0x0DD6 [0x45] LOAD_SCHEDULED_TASK: Load scheduler "fdi1" with entities [EventEntity, EventEntity], work=[200*, 0*]
171: 0x0DE7 [0x2B] Kyume-Romeh (ID: 17752147/0x010EE053) [10497*]:
    → "...And that's when they took off towards the south part of Windurst Waters. Munch-munch...chew-chew..."
172: 0x0DEE [0x23] WAIT_FOR_DIALOG_INTERACTION
173: 0x0DEF [0x29] REQ_SET_WAIT(priority=0x08, entity_id=Kyume-Romeh (ID: 17752147/0x010EE053), tag_num=0x02)
174: 0x0DF6 [0x45] LOAD_SCHEDULED_TASK: Load scheduler "fdo1" with entities [LocalPlayer, LocalPlayer], work=[200*, 0*]
175: 0x0E07 [0x1C] WAIT(60* ticks)
176: 0x0E0A [0x52] END_LOAD_SCHEDULER: End scheduler "s049" with entities [EventEntity, EventEntity], work=120*
177: 0x0E19 [0x4E] SET_ENTITY_HIDE_FLAG: Show LocalPlayer
178: 0x0E1F [0x80] LOAD_WAIT(entity=LocalPlayer)
179: 0x0E24 [0x46] CAMERA_CONTROL: Restore default settings
180: 0x0E26 [0x45] LOAD_SCHEDULED_TASK: Load scheduler "fdi1" with entities [LocalPlayer, LocalPlayer], work=[200*, 0*]
181: 0x0E37 [0x20] SET_CLI_EVENT_UC_FLAG: Unlock player control
182: 0x0E39 [0x21] END_EVENT
183: 0x0E3A [0x00] END_REQSTACK()
```

### Event 874

#### Metadata

| Field        | Value      |
|--------------|------------|
| Entrypoint   | 0x0E3B     |
| Data Size    | 2569 bytes |
| Instructions | 371        |

```
      00 01 02 03 04 05 06 07  08 09 0A 0B 0C 0D 0E 0F
      -- -- -- -- -- -- -- --  -- -- -- -- -- -- -- --
0E30:                                   20 01 42 46 01              .BF.
0E40: 5D 05 80 04 80 45 06 80  F8 FF FF 7F F8 FF FF 7F  ]....E..........
0E50: 66 64 6F 31 05 80 1C 00  80 38 01 80 29 08 F0 FF  fdo1.....8..)...
0E60: FF 7F 06 75 00 4C 80 75  01 1C 00 80 4E 00 FC E0  ...u.L.u....N...
0E70: 0E 01 4E 00 FE E0 0E 01  4E 00 FD E0 0E 01 29 0B  ..N.....N.....).
0E80: F0 FF FF 7F 5C 29 0B 5C  E0 0E 01 80 29 0B FC E0  ....\).\....)...
0E90: 0E 01 56 29 0B FD E0 0E  01 53 29 0B FE E0 0E 01  ..V).....S).....
0EA0: 55 5C 00 02 80 5C 01 02  80 4A 5C E0 0E 01 F0 FF  U\...\...J\.....
0EB0: FF 7F 6F 76 5C E0 0E 01  80 FC E0 0E 01 80 FE E0  ..ov\...........
0EC0: 0E 01 80 FD E0 0E 01 45  4D 80 F8 FF FF 7F F8 FF  .......EM.......
0ED0: FF 7F 73 30 31 32 05 80  45 06 80 F8 FF FF 7F F8  ..s012..E.......
0EE0: FF FF 7F 66 64 69 31 05  80 2B 5C E0 0E 01 4E 80  ...fdi1..+\...N.
0EF0: 23 29 0B B2 E0 0E 01 07  1C 09 80 27 0B FE E0 0E  #).........'....
0F00: 01 56 27 0B FD E0 0E 01  54 27 0B FC E0 0E 01 57  .V'.....T'.....W
0F10: 1C 38 80 52 4D 80 F8 FF  FF 7F F8 FF FF 7F 73 30  .8.RM.........s0
0F20: 31 32 45 06 80 F0 FF FF  7F F0 FF FF 7F 6F 76 6C  12E..........ovl
0F30: 31 05 80 45 4D 80 F8 FF  FF 7F F8 FF FF 7F 73 30  1..EM.........s0
0F40: 31 33 05 80 29 0B B2 E0  0E 01 08 2A 0B FC E0 0E  13..)......*....
0F50: 01 4A F0 FF FF 7F FC E0  0E 01 6F 76 F0 FF FF 7F  .J........ov....
0F60: 29 08 FC E0 0E 01 18 2B  FC E0 0E 01 4F 80 23 2A  )......+....O.#*
0F70: 0B FD E0 0E 01 29 08 FD  E0 0E 01 18 2B FD E0 0E  .....)......+...
0F80: 01 50 80 23 2A 0B FE E0  0E 01 29 08 FE E0 0E 01  .P.#*.....).....
0F90: 0A 2B FE E0 0E 01 51 80  23 29 0B 5C E0 0E 01 81  .+....Q.#).\....
0FA0: 29 0B F0 FF FF 7F 5D 27  0B 5C E0 0E 01 82 1C 0E  ).....]'.\......
0FB0: 80 45 4D 80 F8 FF FF 7F  F8 FF FF 7F 73 30 31 35  .EM.........s015
0FC0: 05 80 29 0B FC E0 0E 01  58 29 0B FE E0 0E 01 57  ..).....X).....W
0FD0: 29 0B 53 E0 0E 01 51 4A  FC E0 0E 01 5C E0 0E 01  ).S...QJ....\...
0FE0: 4A FD E0 0E 01 5C E0 0E  01 4A FE E0 0E 01 5C E0  J....\...J....\.
0FF0: 0E 01 29 08 FC E0 0E 01  46 29 08 FD E0 0E 01 46  ..).....F).....F
1000: 29 08 FE E0 0E 01 47 2A  0B 5C E0 0E 01 29 08 5C  ).....G*.\...).\
1010: E0 0E 01 18 2B 5C E0 0E  01 52 80 23 6F 76 FC E0  ....+\...R.#ov..
1020: 0E 01 6F 76 FD E0 0E 01  6F 76 FE E0 0E 01 52 4D  ..ov....ov....RM
1030: 80 F8 FF FF 7F F8 FF FF  7F 73 30 31 35 45 4D 80  .........s015EM.
1040: F8 FF FF 7F F8 FF FF 7F  73 30 31 34 05 80 29 08  ........s014..).
1050: FC E0 0E 01 01 2B FC E0  0E 01 53 80 23 29 08 FC  .....+....S.#)..
1060: E0 0E 01 02 29 08 FE E0  0E 01 31 2B FE E0 0E 01  ....).....1+....
1070: 54 80 23 29 08 FE E0 0E  01 32 29 08 5C E0 0E 01  T.#).....2).\...
1080: 19 29 08 5C E0 0E 01 1A  29 08 FE E0 0E 01 33 29  .).\....).....3)
1090: 08 FD E0 0E 01 01 2B FD  E0 0E 01 55 80 23 29 08  ......+....U.#).
10A0: FD E0 0E 01 02 29 08 FE  E0 0E 01 34 29 08 FE E0  .....).....4)...
10B0: 0E 01 31 2B FE E0 0E 01  56 80 23 29 08 FE E0 0E  ..1+....V.#)....
10C0: 01 32 29 08 FE E0 0E 01  33 29 0B B2 E0 0E 01 07  .2).....3)......
10D0: 27 0B 53 E0 0E 01 52 29  08 FE E0 0E 01 34 29 08  '.S...R).....4).
10E0: 5C E0 0E 01 1B 52 4D 80  F8 FF FF 7F F8 FF FF 7F  \....RM.........
10F0: 73 30 31 34 45 4D 80 F8  FF FF 7F F8 FF FF 7F 73  s014EM.........s
1100: 30 31 36 05 80 4A FC E0  0E 01 53 E0 0E 01 4A FD  016..J....S...J.
1110: E0 0E 01 53 E0 0E 01 4A  FE E0 0E 01 53 E0 0E 01  ...S...J....S...
1120: 4A 5C E0 0E 01 53 E0 0E  01 79 00 F0 FF FF 7F 5C  J\...S...y.....\
1130: E0 0E 01 2B 53 E0 0E 01  57 80 23 2A 0B 53 E0 0E  ...+S...W.#*.S..
1140: 01 29 08 53 E0 0E 01 1F  2B 53 E0 0E 01 58 80 23  .).S....+S...X.#
1150: 29 08 53 E0 0E 01 20 27  0B 53 E0 0E 01 53 29 08  ).S... '.S...S).
1160: 5C E0 0E 01 08 29 08 5C  E0 0E 01 09 2A 0B 53 E0  \....).\....*.S.
1170: 0E 01 29 0B B2 E0 0E 01  08 4A 5C E0 0E 01 53 E0  ..)......J\...S.
1180: 0E 01 52 4D 80 F8 FF FF  7F F8 FF FF 7F 73 30 31  ..RM.........s01
1190: 36 45 4D 80 F8 FF FF 7F  F8 FF FF 7F 73 30 31 37  6EM.........s017
11A0: 05 80 4A FC E0 0E 01 5C  E0 0E 01 4A FD E0 0E 01  ..J....\...J....
11B0: 5C E0 0E 01 4A FE E0 0E  01 5C E0 0E 01 6F 76 5C  \...J....\...ov\
11C0: E0 0E 01 29 08 5C E0 0E  01 1E 2B 5C E0 0E 01 59  ...).\....+\...Y
11D0: 80 23 29 08 5C E0 0E 01  1F 4A 5C E0 0E 01 FC E0  .#).\....J\.....
11E0: 0E 01 6F 76 5C E0 0E 01  29 08 5C E0 0E 01 18 2B  ..ov\...).\....+
11F0: 5C E0 0E 01 5A 80 23 6F  76 FC E0 0E 01 6F 76 FD  \...Z.#ov....ov.
1200: E0 0E 01 6F 76 FE E0 0E  01 52 4D 80 F8 FF FF 7F  ...ov....RM.....
1210: F8 FF FF 7F 73 30 31 37  45 4D 80 F8 FF FF 7F F8  ....s017EM......
1220: FF FF 7F 73 30 31 34 05  80 29 08 FE E0 0E 01 14  ...s014..)......
1230: 2B FE E0 0E 01 5B 80 23  29 08 FE E0 0E 01 15 29  +....[.#)......)
1240: 08 FD E0 0E 01 1C 2B FD  E0 0E 01 5C 80 23 29 08  ......+....\.#).
1250: FD E0 0E 01 1D 29 08 5C  E0 0E 01 19 29 08 5C E0  .....).\....).\.
1260: 0E 01 1A 29 08 FC E0 0E  01 1C 2B FC E0 0E 01 5D  ...)......+....]
1270: 80 23 29 08 FC E0 0E 01  1D 29 08 5C E0 0E 01 1B  .#)......).\....
1280: 2B 5C E0 0E 01 5E 80 23  29 0B B2 E0 0E 01 07 27  +\...^.#)......'
1290: 0B 53 E0 0E 01 52 1C 0E  80 52 4D 80 F8 FF FF 7F  .S...R...RM.....
12A0: F8 FF FF 7F 73 30 31 34  45 4D 80 F8 FF FF 7F F8  ....s014EM......
12B0: FF FF 7F 73 30 31 36 05  80 4A FC E0 0E 01 53 E0  ...s016..J....S.
12C0: 0E 01 4A FD E0 0E 01 53  E0 0E 01 4A FE E0 0E 01  ..J....S...J....
12D0: 53 E0 0E 01 4A 5C E0 0E  01 53 E0 0E 01 79 00 F0  S...J\...S...y..
12E0: FF FF 7F 5C E0 0E 01 2B  53 E0 0E 01 5F 80 23 2A  ...\...+S..._.#*
12F0: 0B 53 E0 0E 01 4A FC E0  0E 01 53 E0 0E 01 4A FD  .S...J....S...J.
1300: E0 0E 01 53 E0 0E 01 4A  FE E0 0E 01 53 E0 0E 01  ...S...J....S...
1310: 4A 5C E0 0E 01 53 E0 0E  01 29 08 53 E0 0E 01 1F  J\...S...).S....
1320: 2B 53 E0 0E 01 60 80 23  29 08 53 E0 0E 01 20 27  +S...`.#).S... '
1330: 0B 53 E0 0E 01 53 29 08  5C E0 0E 01 08 29 08 5C  .S...S).\....).\
1340: E0 0E 01 09 2A 0B 53 E0  0E 01 4A 5C E0 0E 01 53  ....*.S...J\...S
1350: E0 0E 01 29 0B B2 E0 0E  01 08 52 4D 80 F8 FF FF  ...)......RM....
1360: 7F F8 FF FF 7F 73 30 31  36 45 4D 80 F8 FF FF 7F  .....s016EM.....
1370: F8 FF FF 7F 73 30 31 37  05 80 4A FC E0 0E 01 5C  ....s017..J....\
1380: E0 0E 01 4A FD E0 0E 01  5C E0 0E 01 4A FE E0 0E  ...J....\...J...
1390: 01 5C E0 0E 01 6F 76 5C  E0 0E 01 29 08 5C E0 0E  .\...ov\...).\..
13A0: 01 1E 2B 5C E0 0E 01 61  80 23 29 08 5C E0 0E 01  ..+\...a.#).\...
13B0: 1F 4A 5C E0 0E 01 FC E0  0E 01 6F 76 5C E0 0E 01  .J\.......ov\...
13C0: 52 4D 80 F8 FF FF 7F F8  FF FF 7F 73 30 31 37 45  RM.........s017E
13D0: 4D 80 F8 FF FF 7F F8 FF  FF 7F 73 30 31 35 05 80  M.........s015..
13E0: 29 08 5C E0 0E 01 18 2B  5C E0 0E 01 62 80 23 2B  ).\....+\...b.#+
13F0: 5C E0 0E 01 63 80 23 29  08 5C E0 0E 01 19 29 08  \...c.#).\....).
1400: 5C E0 0E 01 1A 29 08 5C  E0 0E 01 1B 29 08 5C E0  \....).\....).\.
1410: 0E 01 1E 2B 5C E0 0E 01  64 80 23 29 08 5C E0 0E  ...+\...d.#).\..
1420: 01 1F 52 4D 80 F8 FF FF  7F F8 FF FF 7F 73 30 31  ..RM.........s01
1430: 35 45 4D 80 F8 FF FF 7F  F8 FF FF 7F 73 30 31 38  5EM.........s018
1440: 05 80 27 0B 5C E0 0E 01  83 2B 5C E0 0E 01 65 80  ..'.\....+\...e.
1450: 23 2A 0B 5C E0 0E 01 29  0B B2 E0 0E 01 07 27 0B  #*.\...)......'.
1460: 53 E0 0E 01 52 1C 0E 80  52 4D 80 F8 FF FF 7F F8  S...R...RM......
1470: FF FF 7F 73 30 31 38 45  4D 80 F8 FF FF 7F F8 FF  ...s018EM.......
1480: FF 7F 73 30 31 36 05 80  4A FC E0 0E 01 53 E0 0E  ..s016..J....S..
1490: 01 4A FD E0 0E 01 53 E0  0E 01 4A FE E0 0E 01 53  .J....S...J....S
14A0: E0 0E 01 4A 5C E0 0E 01  53 E0 0E 01 79 00 F0 FF  ...J\...S...y...
14B0: FF 7F 5C E0 0E 01 2B 53  E0 0E 01 66 80 23 2A 0B  ..\...+S...f.#*.
14C0: 53 E0 0E 01 4A FC E0 0E  01 53 E0 0E 01 4A FD E0  S...J....S...J..
14D0: 0E 01 53 E0 0E 01 4A FE  E0 0E 01 53 E0 0E 01 4A  ..S...J....S...J
14E0: 5C E0 0E 01 53 E0 0E 01  29 08 53 E0 0E 01 1F 2B  \...S...).S....+
14F0: 53 E0 0E 01 67 80 23 29  08 53 E0 0E 01 20 27 0B  S...g.#).S... '.
1500: 53 E0 0E 01 53 29 08 5C  E0 0E 01 2D 2B 5C E0 0E  S...S).\...-+\..
1510: 01 68 80 23 29 08 5C E0  0E 01 2E 2A 0B 53 E0 0E  .h.#).\....*.S..
1520: 01 29 0B B2 E0 0E 01 08  52 4D 80 F8 FF FF 7F F8  .)......RM......
1530: FF FF 7F 73 30 31 36 45  4D 80 F8 FF FF 7F F8 FF  ...s016EM.......
1540: FF 7F 73 30 31 37 05 80  7B 5C E0 0E 01 4A FC E0  ..s017..{\...J..
1550: 0E 01 5C E0 0E 01 4A FD  E0 0E 01 5C E0 0E 01 4A  ..\...J....\...J
1560: FE E0 0E 01 5C E0 0E 01  7B FE E0 0E 01 29 08 5C  ....\...{....).\
1570: E0 0E 01 35 27 0B 5C E0  0E 01 84 2B 5C E0 0E 01  ...5'.\....+\...
1580: 69 80 23 2B 5C E0 0E 01  6A 80 23 2A 0B 5C E0 0E  i.#+\...j.#*.\..
1590: 01 6F 76 FC E0 0E 01 6F  76 FD E0 0E 01 6F 76 FE  .ov....ov....ov.
15A0: E0 0E 01 52 4D 80 F8 FF  FF 7F F8 FF FF 7F 73 30  ...RM.........s0
15B0: 31 37 45 4D 80 F8 FF FF  7F F8 FF FF 7F 73 30 31  17EM.........s01
15C0: 34 05 80 29 08 5C E0 0E  01 35 29 08 FE E0 0E 01  4..).\...5).....
15D0: 21 2B FE E0 0E 01 6B 80  23 29 08 FE E0 0E 01 22  !+....k.#)....."
15E0: 29 08 FD E0 0E 01 29 2B  FD E0 0E 01 6C 80 23 29  ).....)+....l.#)
15F0: 08 FD E0 0E 01 2A 29 08  FC E0 0E 01 2B 2B FC E0  .....*).....++..
1600: 0E 01 6D 80 23 29 08 FC  E0 0E 01 2C 52 4D 80 F8  ..m.#).....,RM..
1610: FF FF 7F F8 FF FF 7F 73  30 31 34 45 4D 80 F8 FF  .......s014EM...
1620: FF 7F F8 FF FF 7F 73 30  31 35 05 80 29 08 5C E0  ......s015..).\.
1630: 0E 01 08 2B 5C E0 0E 01  6E 80 23 29 08 5C E0 0E  ...+\...n.#).\..
1640: 01 09 29 08 5C E0 0E 01  0E 2B 5C E0 0E 01 6F 80  ..).\....+\...o.
1650: 23 29 08 5C E0 0E 01 0F  45 06 80 F0 FF FF 7F F0  #).\....E.......
1660: FF FF 7F 66 64 6F 31 05  80 1C 00 80 29 0B 53 E0  ...fdo1.....).S.
1670: 0E 01 54 29 0B FE E0 0E  01 58 29 0B FD E0 0E 01  ..T).....X).....
1680: 55 29 0B FC E0 0E 01 59  52 4D 80 F8 FF FF 7F F8  U).....YRM......
1690: FF FF 7F 73 30 31 35 27  0B 53 E0 0E 01 55 27 0B  ...s015'.S...U'.
16A0: FC E0 0E 01 5A 27 0B FD  E0 0E 01 56 27 0B FE E0  ....Z'.....V'...
16B0: 0E 01 59 45 4D 80 F8 FF  FF 7F F8 FF FF 7F 73 30  ..YEM.........s0
16C0: 31 39 05 80 45 06 80 F0  FF FF 7F F0 FF FF 7F 66  19..E..........f
16D0: 64 69 31 05 80 29 0B B2  E0 0E 01 07 1C 04 80 29  di1..).........)
16E0: 0B B2 E0 0E 01 08 27 0B  53 E0 0E 01 56 1C 70 80  ......'.S...V.p.
16F0: 2B 53 E0 0E 01 71 80 23  1C 72 80 5D 05 80 04 80  +S...q.#.r.]....
1700: 45 06 80 F0 FF FF 7F F0  FF FF 7F 66 64 6F 31 05  E..........fdo1.
1710: 80 1C 06 80 2A 0B 53 E0  0E 01 52 4D 80 F8 FF FF  ....*.S...RM....
1720: 7F F8 FF FF 7F 73 30 31  39 29 0B F0 FF FF 7F 5C  .....s019).....\
1730: 29 0B 5C E0 0E 01 85 4A  5C E0 0E 01 F0 FF FF 7F  ).\....J\.......
1740: 4A F0 FF FF 7F 5C E0 0E  01 6F 76 F0 FF FF 7F 6F  J....\...ov....o
1750: 76 5C E0 0E 01 5C 00 29  80 5C 01 29 80 45 4D 80  v\...\.).\.).EM.
1760: F8 FF FF 7F F8 FF FF 7F  73 30 32 30 05 80 45 06  ........s020..E.
1770: 80 F0 FF FF 7F F0 FF FF  7F 66 64 69 31 05 80 29  .........fdi1..)
1780: 08 5C E0 0E 01 04 2B 5C  E0 0E 01 73 80 23 2B 5C  .\....+\...s.#+\
1790: E0 0E 01 74 80 23 29 08  5C E0 0E 01 05 52 4D 80  ...t.#).\....RM.
17A0: F8 FF FF 7F F8 FF FF 7F  73 30 32 30 45 4D 80 F8  ........s020EM..
17B0: FF FF 7F F8 FF FF 7F 73  30 32 31 05 80 29 08 5C  .......s021..).\
17C0: E0 0E 01 06 2B 5C E0 0E  01 75 80 23 29 08 5C E0  ....+\...u.#).\.
17D0: 0E 01 07 29 08 5C E0 0E  01 1E 2B 5C E0 0E 01 76  ...).\....+\...v
17E0: 80 23 29 08 5C E0 0E 01  1F 29 08 5C E0 0E 01 0E  .#).\....).\....
17F0: 2B 5C E0 0E 01 77 80 23  29 08 5C E0 0E 01 0F 45  +\...w.#).\....E
1800: 06 80 F0 FF FF 7F F0 FF  FF 7F 66 64 6F 31 05 80  ..........fdo1..
1810: 1C 00 80 52 4D 80 F8 FF  FF 7F F8 FF FF 7F 73 30  ...RM.........s0
1820: 32 31 4E 00 F0 FF FF 7F  80 F0 FF FF 7F 46 00 45  21N..........F.E
1830: 06 80 F0 FF FF 7F F0 FF  FF 7F 66 64 69 31 05 80  ..........fdi1..
1840: 20 00 21 00                                        .!.            
```

#### Opcodes

```
  0: 0x0E3B [0x20] SET_CLI_EVENT_UC_FLAG: Lock player control
  1: 0x0E3D [0x42] SET_CLI_EVENT_CANCEL_DATA()
  2: 0x0E3E [0x46] CAMERA_CONTROL: Disable user control
  3: 0x0E40 [0x5D] SET_MUSIC_VOLUME(volume=0*, fade_time=120*)
  4: 0x0E45 [0x45] LOAD_SCHEDULED_TASK: Load scheduler "fdo1" with entities [EventEntity, EventEntity], work=[200*, 0*]
  5: 0x0E56 [0x1C] WAIT(60* ticks)
  6: 0x0E59 [0x38] SET_CLIENT_EVENT_MODE(mode=19*)
  7: 0x0E5C [0x29] REQ_SET_WAIT(priority=0x08, entity_id=LocalPlayer, tag_num=0x06)
  8: 0x0E63 [0x75] LOAD_ROOM(Load indoor room, room=388*)
  9: 0x0E67 [0x75] LOAD_ROOM(No action)
 10: 0x0E69 [0x1C] WAIT(60* ticks)
 11: 0x0E6C [0x4E] SET_ENTITY_HIDE_FLAG: Show Makki-Chebukki (ID: 17752316/0x010EE0FC)
 12: 0x0E72 [0x4E] SET_ENTITY_HIDE_FLAG: Show Cherukiki (ID: 17752318/0x010EE0FE)
 13: 0x0E78 [0x4E] SET_ENTITY_HIDE_FLAG: Show Kukki-Chebukki (ID: 17752317/0x010EE0FD)
 14: 0x0E7E [0x29] REQ_SET_WAIT(priority=0x0B, entity_id=LocalPlayer, tag_num=0x5C)
 15: 0x0E85 [0x29] REQ_SET_WAIT(priority=0x0B, entity_id=Honoi-Gomoi (ID: 17752156/0x010EE05C), tag_num=0x80)
 16: 0x0E8C [0x29] REQ_SET_WAIT(priority=0x0B, entity_id=Makki-Chebukki (ID: 17752316/0x010EE0FC), tag_num=0x56)
 17: 0x0E93 [0x29] REQ_SET_WAIT(priority=0x0B, entity_id=Kukki-Chebukki (ID: 17752317/0x010EE0FD), tag_num=0x53)
 18: 0x0E9A [0x29] REQ_SET_WAIT(priority=0x0B, entity_id=Cherukiki (ID: 17752318/0x010EE0FE), tag_num=0x55)
 19: 0x0EA1 [0x5C] MUSIC_CONTROL: Set Idle (Day) music to song 163*
 20: 0x0EA5 [0x5C] MUSIC_CONTROL: Set Idle (Night) music to song 163*
 21: 0x0EA9 [0x4A] Honoi-Gomoi (ID: 17752156/0x010EE05C) looks at LocalPlayer
 22: 0x0EB2 [0x6F] WAIT_FRAME_DELAY: Yield until WaitTime reaches zero
 23: 0x0EB3 [0x76] CHECK_ENTITY_RENDER_FLAGS: Wait until Honoi-Gomoi (ID: 17752156/0x010EE05C) Render.Flags0 and Render.Flags3 conditions are met
 24: 0x0EB8 [0x80] LOAD_WAIT(entity=Makki-Chebukki (ID: 17752316/0x010EE0FC))
 25: 0x0EBD [0x80] LOAD_WAIT(entity=Cherukiki (ID: 17752318/0x010EE0FE))
 26: 0x0EC2 [0x80] LOAD_WAIT(entity=Kukki-Chebukki (ID: 17752317/0x010EE0FD))
 27: 0x0EC7 [0x45] LOAD_SCHEDULED_TASK: Load scheduler "s012" with entities [EventEntity, EventEntity], work=[147*, 0*]
 28: 0x0ED8 [0x45] LOAD_SCHEDULED_TASK: Load scheduler "fdi1" with entities [EventEntity, EventEntity], work=[200*, 0*]
 29: 0x0EE9 [0x2B] Honoi-Gomoi (ID: 17752156/0x010EE05C) [10498*]:
    → "What do you want? This is the house of the ridiculously wealthy Honoi-Gomoi!"
 30: 0x0EF0 [0x23] WAIT_FOR_DIALOG_INTERACTION
 31: 0x0EF1 [0x29] REQ_SET_WAIT(priority=0x0B, entity_id=Door:Trader's Home (ID: 17752242/0x010EE0B2), tag_num=0x07)
 32: 0x0EF8 [0x1C] WAIT(30* ticks)
 33: 0x0EFB [0x27] REQ_SET(priority=0x0B, entity_id=Cherukiki (ID: 17752318/0x010EE0FE), tag_num=0x56)
 34: 0x0F02 [0x27] REQ_SET(priority=0x0B, entity_id=Kukki-Chebukki (ID: 17752317/0x010EE0FD), tag_num=0x54)
 35: 0x0F09 [0x27] REQ_SET(priority=0x0B, entity_id=Makki-Chebukki (ID: 17752316/0x010EE0FC), tag_num=0x57)
 36: 0x0F10 [0x1C] WAIT(90* ticks)
 37: 0x0F13 [0x52] END_LOAD_SCHEDULER: End scheduler "s012" with entities [EventEntity, EventEntity], work=147*
 38: 0x0F22 [0x45] LOAD_SCHEDULED_TASK: Load scheduler "ovl1" with entities [LocalPlayer, LocalPlayer], work=[200*, 0*]
 39: 0x0F33 [0x45] LOAD_SCHEDULED_TASK: Load scheduler "s013" with entities [EventEntity, EventEntity], work=[147*, 0*]
 40: 0x0F44 [0x29] REQ_SET_WAIT(priority=0x0B, entity_id=Door:Trader's Home (ID: 17752242/0x010EE0B2), tag_num=0x08)
 41: 0x0F4B [0x2A] GET_REQ_LEVEL(level=11, entity_id=Makki-Chebukki (ID: 17752316/0x010EE0FC))
 42: 0x0F51 [0x4A] LocalPlayer looks at Makki-Chebukki (ID: 17752316/0x010EE0FC)
 43: 0x0F5A [0x6F] WAIT_FRAME_DELAY: Yield until WaitTime reaches zero
 44: 0x0F5B [0x76] CHECK_ENTITY_RENDER_FLAGS: Wait until LocalPlayer Render.Flags0 and Render.Flags3 conditions are met
 45: 0x0F60 [0x29] REQ_SET_WAIT(priority=0x08, entity_id=Makki-Chebukki (ID: 17752316/0x010EE0FC), tag_num=0x18)
 46: 0x0F67 [0x2B] Makki-Chebukki (ID: 17752316/0x010EE0FC) [10499*]:
    → "Father!"
 47: 0x0F6E [0x23] WAIT_FOR_DIALOG_INTERACTION
 48: 0x0F6F [0x2A] GET_REQ_LEVEL(level=11, entity_id=Kukki-Chebukki (ID: 17752317/0x010EE0FD))
 49: 0x0F75 [0x29] REQ_SET_WAIT(priority=0x08, entity_id=Kukki-Chebukki (ID: 17752317/0x010EE0FD), tag_num=0x18)
 50: 0x0F7C [0x2B] Kukki-Chebukki (ID: 17752317/0x010EE0FD) [10500*]:
    → "Dad, we missed you!"
 51: 0x0F83 [0x23] WAIT_FOR_DIALOG_INTERACTION
 52: 0x0F84 [0x2A] GET_REQ_LEVEL(level=11, entity_id=Cherukiki (ID: 17752318/0x010EE0FE))
 53: 0x0F8A [0x29] REQ_SET_WAIT(priority=0x08, entity_id=Cherukiki (ID: 17752318/0x010EE0FE), tag_num=0x0A)
 54: 0x0F91 [0x2B] Cherukiki (ID: 17752318/0x010EE0FE) [10501*]:
    → "Daddy, your beautiful children are here!"
 55: 0x0F98 [0x23] WAIT_FOR_DIALOG_INTERACTION
 56: 0x0F99 [0x29] REQ_SET_WAIT(priority=0x0B, entity_id=Honoi-Gomoi (ID: 17752156/0x010EE05C), tag_num=0x81)
 57: 0x0FA0 [0x29] REQ_SET_WAIT(priority=0x0B, entity_id=LocalPlayer, tag_num=0x5D)
 58: 0x0FA7 [0x27] REQ_SET(priority=0x0B, entity_id=Honoi-Gomoi (ID: 17752156/0x010EE05C), tag_num=0x82)
 59: 0x0FAE [0x1C] WAIT(10* ticks)
 60: 0x0FB1 [0x45] LOAD_SCHEDULED_TASK: Load scheduler "s015" with entities [EventEntity, EventEntity], work=[147*, 0*]
 61: 0x0FC2 [0x29] REQ_SET_WAIT(priority=0x0B, entity_id=Makki-Chebukki (ID: 17752316/0x010EE0FC), tag_num=0x58)
 62: 0x0FC9 [0x29] REQ_SET_WAIT(priority=0x0B, entity_id=Cherukiki (ID: 17752318/0x010EE0FE), tag_num=0x57)
 63: 0x0FD0 [0x29] REQ_SET_WAIT(priority=0x0B, entity_id=Kyume-Romeh (ID: 17752147/0x010EE053), tag_num=0x51)
 64: 0x0FD7 [0x4A] Makki-Chebukki (ID: 17752316/0x010EE0FC) looks at Honoi-Gomoi (ID: 17752156/0x010EE05C)
 65: 0x0FE0 [0x4A] Kukki-Chebukki (ID: 17752317/0x010EE0FD) looks at Honoi-Gomoi (ID: 17752156/0x010EE05C)
 66: 0x0FE9 [0x4A] Cherukiki (ID: 17752318/0x010EE0FE) looks at Honoi-Gomoi (ID: 17752156/0x010EE05C)
 67: 0x0FF2 [0x29] REQ_SET_WAIT(priority=0x08, entity_id=Makki-Chebukki (ID: 17752316/0x010EE0FC), tag_num=0x46)
 68: 0x0FF9 [0x29] REQ_SET_WAIT(priority=0x08, entity_id=Kukki-Chebukki (ID: 17752317/0x010EE0FD), tag_num=0x46)
 69: 0x1000 [0x29] REQ_SET_WAIT(priority=0x08, entity_id=Cherukiki (ID: 17752318/0x010EE0FE), tag_num=0x47)
 70: 0x1007 [0x2A] GET_REQ_LEVEL(level=11, entity_id=Honoi-Gomoi (ID: 17752156/0x010EE05C))
 71: 0x100D [0x29] REQ_SET_WAIT(priority=0x08, entity_id=Honoi-Gomoi (ID: 17752156/0x010EE05C), tag_num=0x18)
 72: 0x1014 [0x2B] Honoi-Gomoi (ID: 17752156/0x010EE05C) [10502*]:
    → "What in blazes are you three babbling aboutaru!?"
 73: 0x101B [0x23] WAIT_FOR_DIALOG_INTERACTION
 74: 0x101C [0x6F] WAIT_FRAME_DELAY: Yield until WaitTime reaches zero
 75: 0x101D [0x76] CHECK_ENTITY_RENDER_FLAGS: Wait until Makki-Chebukki (ID: 17752316/0x010EE0FC) Render.Flags0 and Render.Flags3 conditions are met
 76: 0x1022 [0x6F] WAIT_FRAME_DELAY: Yield until WaitTime reaches zero
 77: 0x1023 [0x76] CHECK_ENTITY_RENDER_FLAGS: Wait until Kukki-Chebukki (ID: 17752317/0x010EE0FD) Render.Flags0 and Render.Flags3 conditions are met
 78: 0x1028 [0x6F] WAIT_FRAME_DELAY: Yield until WaitTime reaches zero
 79: 0x1029 [0x76] CHECK_ENTITY_RENDER_FLAGS: Wait until Cherukiki (ID: 17752318/0x010EE0FE) Render.Flags0 and Render.Flags3 conditions are met
 80: 0x102E [0x52] END_LOAD_SCHEDULER: End scheduler "s015" with entities [EventEntity, EventEntity], work=147*
 81: 0x103D [0x45] LOAD_SCHEDULED_TASK: Load scheduler "s014" with entities [EventEntity, EventEntity], work=[147*, 0*]
 82: 0x104E [0x29] REQ_SET_WAIT(priority=0x08, entity_id=Makki-Chebukki (ID: 17752316/0x010EE0FC), tag_num=0x01)
 83: 0x1055 [0x2B] Makki-Chebukki (ID: 17752316/0x010EE0FC) [10503*]:
    → "You probably didn't know it, Father, but we were in Mother's tummy when you were separated."
 84: 0x105C [0x23] WAIT_FOR_DIALOG_INTERACTION
 85: 0x105D [0x29] REQ_SET_WAIT(priority=0x08, entity_id=Makki-Chebukki (ID: 17752316/0x010EE0FC), tag_num=0x02)
 86: 0x1064 [0x29] REQ_SET_WAIT(priority=0x08, entity_id=Cherukiki (ID: 17752318/0x010EE0FE), tag_num=0x31)
 87: 0x106B [0x2B] Cherukiki (ID: 17752318/0x010EE0FE) [10504*]:
    → "In Mommy's tummy!"
 88: 0x1072 [0x23] WAIT_FOR_DIALOG_INTERACTION
 89: 0x1073 [0x29] REQ_SET_WAIT(priority=0x08, entity_id=Cherukiki (ID: 17752318/0x010EE0FE), tag_num=0x32)
 90: 0x107A [0x29] REQ_SET_WAIT(priority=0x08, entity_id=Honoi-Gomoi (ID: 17752156/0x010EE05C), tag_num=0x19)
 91: 0x1081 [0x29] REQ_SET_WAIT(priority=0x08, entity_id=Honoi-Gomoi (ID: 17752156/0x010EE05C), tag_num=0x1A)
 92: 0x1088 [0x29] REQ_SET_WAIT(priority=0x08, entity_id=Cherukiki (ID: 17752318/0x010EE0FE), tag_num=0x33)
 93: 0x108F [0x29] REQ_SET_WAIT(priority=0x08, entity_id=Kukki-Chebukki (ID: 17752317/0x010EE0FD), tag_num=0x01)
 94: 0x1096 [0x2B] Kukki-Chebukki (ID: 17752317/0x010EE0FD) [10505*]:
    → "And that's why we've been looking for you all this time!"
 95: 0x109D [0x23] WAIT_FOR_DIALOG_INTERACTION
 96: 0x109E [0x29] REQ_SET_WAIT(priority=0x08, entity_id=Kukki-Chebukki (ID: 17752317/0x010EE0FD), tag_num=0x02)
 97: 0x10A5 [0x29] REQ_SET_WAIT(priority=0x08, entity_id=Cherukiki (ID: 17752318/0x010EE0FE), tag_num=0x34)
 98: 0x10AC [0x29] REQ_SET_WAIT(priority=0x08, entity_id=Cherukiki (ID: 17752318/0x010EE0FE), tag_num=0x31)
 99: 0x10B3 [0x2B] Cherukiki (ID: 17752318/0x010EE0FE) [10506*]:
    → "Looking for you, Daddy!"
100: 0x10BA [0x23] WAIT_FOR_DIALOG_INTERACTION
101: 0x10BB [0x29] REQ_SET_WAIT(priority=0x08, entity_id=Cherukiki (ID: 17752318/0x010EE0FE), tag_num=0x32)
102: 0x10C2 [0x29] REQ_SET_WAIT(priority=0x08, entity_id=Cherukiki (ID: 17752318/0x010EE0FE), tag_num=0x33)
103: 0x10C9 [0x29] REQ_SET_WAIT(priority=0x0B, entity_id=Door:Trader's Home (ID: 17752242/0x010EE0B2), tag_num=0x07)
104: 0x10D0 [0x27] REQ_SET(priority=0x0B, entity_id=Kyume-Romeh (ID: 17752147/0x010EE053), tag_num=0x52)
105: 0x10D7 [0x29] REQ_SET_WAIT(priority=0x08, entity_id=Cherukiki (ID: 17752318/0x010EE0FE), tag_num=0x34)
