# 17752329

## Common Data

| Field            | Value                     |
|------------------|---------------------------|
| Zone             | Windurst Waters (ID: 238) |
| Block Size       | 20200 bytes               |
| Total Events     | 30                        |
| References Count | 308                       |

## List of Events

| Event ID                   | Entrypoint   |   Size |   Instructions |
|----------------------------|--------------|--------|----------------|
| [65535](#event-65535)      | 0x0000       |      1 |              1 |
| [913](#event-913)          | 0x0001       |      1 |              1 |
| [65535.1](#event-655351)   | 0x0002       |     10 |              4 |
| [65535.2](#event-655352)   | 0x000C       |     15 |              3 |
| [65535.3](#event-655353)   | 0x001B       |     14 |              4 |
| [65535.4](#event-655354)   | 0x0029       |      9 |              3 |
| [65535.5](#event-655355)   | 0x0032       |     15 |              3 |
| [65535.6](#event-655356)   | 0x0041       |      8 |              2 |
| [65535.7](#event-655357)   | 0x0049       |     10 |              2 |
| [65535.8](#event-655358)   | 0x0053       |     10 |              2 |
| [65535.9](#event-655359)   | 0x005D       |     10 |              2 |
| [65535.10](#event-6553510) | 0x0067       |     10 |              2 |
| [65535.11](#event-6553511) | 0x0071       |      8 |              2 |
| [911](#event-911)          | 0x0079       |      1 |              1 |
| [912](#event-912)          | 0x007A       |      1 |              1 |
| [65535.12](#event-6553512) | 0x007B       |     15 |              3 |
| [65535.13](#event-6553513) | 0x008A       |     10 |              2 |
| [65535.14](#event-6553514) | 0x0094       |     10 |              2 |
| [65535.15](#event-6553515) | 0x009E       |     10 |              2 |
| [65535.16](#event-6553516) | 0x00A8       |     10 |              2 |
| [65535.17](#event-6553517) | 0x00B2       |     16 |              5 |
| [907](#event-907)          | 0x00C2       |      1 |              1 |
| [908](#event-908)          | 0x00C3       |      1 |              1 |
| [65535.18](#event-6553518) | 0x00C4       |     15 |              3 |
| [65535.19](#event-6553519) | 0x00D3       |     24 |              6 |
| [65535.20](#event-6553520) | 0x00EB       |     15 |              3 |
| [65535.21](#event-6553521) | 0x00FA       |     14 |              4 |
| [65535.22](#event-6553522) | 0x0108       |     15 |              3 |
| [65535.23](#event-6553523) | 0x0117       |     14 |              4 |
| [65535.24](#event-6553524) | 0x0125       |  18538 |           3184 |

## DAT References (imed_data)

|   Index | Hex Value   |   Dec Value |
|---------|-------------|-------------|
|       0 | 0xFFFEFA5E  |  4294900318 |
|       1 | 0xFFFFE012  |  4294959122 |
|       2 | 0xFFFFDBDE  |  4294958046 |
|       3 | 0x016D      |         365 |
|       4 | 0x000D      |          13 |
|       5 | 0xFFFEF890  |  4294899856 |
|       6 | 0xFFFFDA58  |  4294957656 |
|       7 | 0xFFFF2623  |  4294911523 |
|       8 | 0xFFFDF569  |  4294833513 |
|       9 | 0xFFFFF060  |  4294963296 |
|      10 | 0x0B79      |        2937 |
|      11 | 0xFFFF27BB  |  4294911931 |
|      12 | 0xFFFDF5FC  |  4294833660 |
|      13 | 0xFFFF2339  |  4294910777 |
|      14 | 0xFFFDF861  |  4294834273 |
|      15 | 0x06F6      |        1782 |
|      16 | 0xFFFF2365  |  4294910821 |
|      17 | 0xFFFDFA7C  |  4294834812 |
|      18 | 0x0463      |        1123 |
|      19 | 0xFFFF2896  |  4294912150 |
|      20 | 0xFFFDF55A  |  4294833498 |
|      21 | 0xFFFF27CC  |  4294911948 |
|      22 | 0xFFFDF99A  |  4294834586 |
|      23 | 0xFFFEFD47  |  4294901063 |
|      24 | 0xFFFE2535  |  4294845749 |
|      25 | 0xFFFF249F  |  4294911135 |
|      26 | 0xFFFDF92E  |  4294834478 |
|      27 | 0x050C      |        1292 |
|      28 | 0xFFFF2297  |  4294910615 |
|      29 | 0xFFFDEA02  |  4294830594 |
|      30 | 0x03BF      |         959 |
|      31 | 0xFFFF2731  |  4294911793 |
|      32 | 0xFFFDF2B0  |  4294832816 |
|      33 | 0xFFFF25C6  |  4294911430 |
|      34 | 0xFFFDEFFC  |  4294832124 |
|      35 | 0x03BE      |         958 |
|      36 | 0xFFFF2A5C  |  4294912604 |
|      37 | 0xFFFDF61A  |  4294833690 |
|      38 | 0xFFFEF352  |  4294898514 |
|      39 | 0xFFFE394B  |  4294850891 |
|      40 | 0xFFFFA54F  |  4294944079 |
|      41 | 0x1ABEF     |      109551 |
|      42 | 0xFFFFE796  |  4294961046 |
|      43 | 0x06FB      |        1787 |
|      44 | 0xFFFF9AD8  |  4294941400 |
|      45 | 0x1ABC5     |      109509 |
|      46 | 0xFFFF9A98  |  4294941336 |
|      47 | 0x19663     |      104035 |
|      48 | 0xFFFFEB7F  |  4294962047 |
|      49 | 0xFFFFB967  |  4294949223 |
|      50 | 0x1AFE6     |      110566 |
|      51 | 0x0BF8      |        3064 |
|      52 | 0xFFFFB8F7  |  4294949111 |
|      53 | 0x1B3D0     |      111568 |
|      54 | 0xFFFFE797  |  4294961047 |
|      55 | 0xFFFF9CD7  |  4294941911 |
|      56 | 0x199D3     |      104915 |
|      57 | 0x039C      |         924 |
|      58 | 0xFFFFA0B3  |  4294942899 |
|      59 | 0x18178     |       98680 |
|      60 | 0xFFFF941E  |  4294939678 |
|      61 | 0x18A97     |      101015 |
|      62 | 0xFFFFEB7E  |  4294962046 |
|      63 | 0x0B9C      |        2972 |
|      64 | 0x0000      |           0 |
|      65 | 0x0001      |           1 |
|      66 | 0x0002      |           2 |
|      67 | 0x0003      |           3 |
|      68 | 0x0004      |           4 |
|      69 | 0x0005      |           5 |
|      70 | 0x0006      |           6 |
|      71 | 0x0007      |           7 |
|      72 | 0x005F      |          95 |
|      73 | 0x0064      |         100 |
|      74 | 0x0069      |         105 |
|      75 | 0x0052      |          82 |
|      76 | 0x0057      |          87 |
|      77 | 0x005C      |          92 |
|      78 | 0x0059      |          89 |
|      79 | 0x005D      |          93 |
|      80 | 0x0061      |          97 |
|      81 | 0x0060      |          96 |
|      82 | 0x0008      |           8 |
|      83 | 0x0009      |           9 |
|      84 | 0x000A      |          10 |
|      85 | 0x0012      |          18 |
|      86 | 0x0013      |          19 |
|      87 | 0x0014      |          20 |
|      88 | 0x0017      |          23 |
|      89 | 0x000C      |          12 |
|      90 | 0x000F      |          15 |
|      91 | 0x000E      |          14 |
|      92 | 0x000B      |          11 |
|      93 | 0x0018      |          24 |
|      94 | 0x001F      |          31 |
|      95 | 0x001B      |          27 |
|      96 | 0x0010      |          16 |
|      97 | 0x0015      |          21 |
|      98 | 0x018D      |         397 |
|      99 | 0x0175      |         373 |
|     100 | 0x0170      |         368 |
|     101 | 0x0171      |         369 |
|     102 | 0x014C      |         332 |
|     103 | 0x01C1      |         449 |
|     104 | 0x027C      |         636 |
|     105 | 0x027B      |         635 |
|     106 | 0x027D      |         637 |
|     107 | 0x02D3      |         723 |
|     108 | 0x0321      |         801 |
|     109 | 0x0326      |         806 |
|     110 | 0x01E1      |         481 |
|     111 | 0x0343      |         835 |
|     112 | 0x0386      |         902 |
|     113 | 0x0388      |         904 |
|     114 | 0x0361      |         865 |
|     115 | 0x0387      |         903 |
|     116 | 0x038A      |         906 |
|     117 | 0x003F      |          63 |
|     118 | 0x0282      |         642 |
|     119 | 0x0283      |         643 |
|     120 | 0x0288      |         648 |
|     121 | 0x0289      |         649 |
|     122 | 0x028A      |         650 |
|     123 | 0x028B      |         651 |
|     124 | 0x029E      |         670 |
|     125 | 0x0019      |          25 |
|     126 | 0x00C6      |         198 |
|     127 | 0x0032      |          50 |
|     128 | 0x00B5      |         181 |
|     129 | 0x008C      |         140 |
|     130 | 0x008E      |         142 |
|     131 | 0x007A      |         122 |
|     132 | 0x014B      |         331 |
|     133 | 0x0148      |         328 |
|     134 | 0x0166      |         358 |
|     135 | 0x017A      |         378 |
|     136 | 0x0182      |         386 |
|     137 | 0x0183      |         387 |
|     138 | 0x0192      |         402 |
|     139 | 0x01DF      |         479 |
|     140 | 0x01E9      |         489 |
|     141 | 0x001C      |          28 |
|     142 | 0x00E6      |         230 |
|     143 | 0x00EB      |         235 |
|     144 | 0x00F5      |         245 |
|     145 | 0x007E      |         126 |
|     146 | 0x007F      |         127 |
|     147 | 0x00F3      |         243 |
|     148 | 0x00F4      |         244 |
|     149 | 0x00E0      |         224 |
|     150 | 0x00E9      |         233 |
|     151 | 0x009E      |         158 |
|     152 | 0x009D      |         157 |
|     153 | 0x00E2      |         226 |
|     154 | 0x00E1      |         225 |
|     155 | 0x014F      |         335 |
|     156 | 0x014E      |         334 |
|     157 | 0x0167      |         359 |
|     158 | 0x00E5      |         229 |
|     159 | 0x0169      |         361 |
|     160 | 0x016A      |         362 |
|     161 | 0x0168      |         360 |
|     162 | 0x0133      |         307 |
|     163 | 0x0174      |         372 |
|     164 | 0x018C      |         396 |
|     165 | 0x0194      |         404 |
|     166 | 0x0195      |         405 |
|     167 | 0x0178      |         376 |
|     168 | 0x0240      |         576 |
|     169 | 0x0197      |         407 |
|     170 | 0x0198      |         408 |
|     171 | 0x01A3      |         419 |
|     172 | 0x019E      |         414 |
|     173 | 0x0246      |         582 |
|     174 | 0x0247      |         583 |
|     175 | 0x0248      |         584 |
|     176 | 0x024B      |         587 |
|     177 | 0x024A      |         586 |
|     178 | 0x0011      |          17 |
|     179 | 0x024F      |         591 |
|     180 | 0x01C3      |         451 |
|     181 | 0x01C4      |         452 |
|     182 | 0x01EF      |         495 |
|     183 | 0x01F0      |         496 |
|     184 | 0x001A      |          26 |
|     185 | 0x0095      |         149 |
|     186 | 0x001D      |          29 |
|     187 | 0x0073      |         115 |
|     188 | 0x0034      |          52 |
|     189 | 0x0024      |          36 |
|     190 | 0x005E      |          94 |
|     191 | 0x0072      |         114 |
|     192 | 0x0031      |          49 |
|     193 | 0x006C      |         108 |
|     194 | 0x003A      |          58 |
|     195 | 0x0096      |         150 |
|     196 | 0x0016      |          22 |
|     197 | 0x0035      |          53 |
|     198 | 0x0085      |         133 |
|     199 | 0x0081      |         129 |
|     200 | 0x0023      |          35 |
|     201 | 0x0033      |          51 |
|     202 | 0x0082      |         130 |
|     203 | 0x0039      |          57 |
|     204 | 0x0020      |          32 |
|     205 | 0x0038      |          56 |
|     206 | 0x0036      |          54 |
|     207 | 0x0083      |         131 |
|     208 | 0x00A2      |         162 |
|     209 | 0x0022      |          34 |
|     210 | 0x0021      |          33 |
|     211 | 0x0065      |         101 |
|     212 | 0x0086      |         134 |
|     213 | 0x0062      |          98 |
|     214 | 0x008D      |         141 |
|     215 | 0x0037      |          55 |
|     216 | 0x008A      |         138 |
|     217 | 0x008B      |         139 |
|     218 | 0x002B      |          43 |
|     219 | 0x0067      |         103 |
|     220 | 0x0030      |          48 |
|     221 | 0x002D      |          45 |
|     222 | 0x00A1      |         161 |
|     223 | 0x0066      |         102 |
|     224 | 0x0075      |         117 |
|     225 | 0x0068      |         104 |
|     226 | 0x007B      |         123 |
|     227 | 0x0077      |         119 |
|     228 | 0x01FE      |         510 |
|     229 | 0x009F      |         159 |
|     230 | 0x00A4      |         164 |
|     231 | 0x00A9      |         169 |
|     232 | 0x00AC      |         172 |
|     233 | 0x00B2      |         178 |
|     234 | 0x00B0      |         176 |
|     235 | 0x013D      |         317 |
|     236 | 0x0108      |         264 |
|     237 | 0x010C      |         268 |
|     238 | 0x0100      |         256 |
|     239 | 0x00FB      |         251 |
|     240 | 0x00B8      |         184 |
|     241 | 0x011C      |         284 |
|     242 | 0x0041      |          65 |
|     243 | 0x0042      |          66 |
|     244 | 0x0047      |          71 |
|     245 | 0x0160      |         352 |
|     246 | 0x0043      |          67 |
|     247 | 0x0048      |          72 |
|     248 | 0x004B      |          75 |
|     249 | 0x004C      |          76 |
|     250 | 0x004D      |          77 |
|     251 | 0x005B      |          91 |
|     252 | 0x0058      |          88 |
|     253 | 0x0053      |          83 |
|     254 | 0x0054      |          84 |
|     255 | 0x0161      |         353 |
|     256 | 0x015C      |         348 |
|     257 | 0x00C5      |         197 |
|     258 | 0x00C3      |         195 |
|     259 | 0x00C7      |         199 |
|     260 | 0x015E      |         350 |
|     261 | 0x00C4      |         196 |
|     262 | 0x016E      |         366 |
|     263 | 0x00D0      |         208 |
|     264 | 0x00CD      |         205 |
|     265 | 0x00CA      |         202 |
|     266 | 0x00D2      |         210 |
|     267 | 0x00D8      |         216 |
|     268 | 0x00D5      |         213 |
|     269 | 0x00D6      |         214 |
|     270 | 0x013B      |         315 |
|     271 | 0x0136      |         310 |
|     272 | 0x013A      |         314 |
|     273 | 0x0137      |         311 |
|     274 | 0x016F      |         367 |
|     275 | 0x0138      |         312 |
|     276 | 0x0139      |         313 |
|     277 | 0x009A      |         154 |
|     278 | 0x0091      |         145 |
|     279 | 0x009B      |         155 |
|     280 | 0x0099      |         153 |
|     281 | 0x0093      |         147 |
|     282 | 0x0092      |         146 |
|     283 | 0x0098      |         152 |
|     284 | 0x0071      |         113 |
|     285 | 0x00E8      |         232 |
|     286 | 0x00DD      |         221 |
|     287 | 0x00F8      |         248 |
|     288 | 0x00F1      |         241 |
|     289 | 0x0124      |         292 |
|     290 | 0x012E      |         302 |
|     291 | 0x0129      |         297 |
|     292 | 0x0122      |         290 |
|     293 | 0x0132      |         306 |
|     294 | 0x0126      |         294 |
|     295 | 0x0155      |         341 |
|     296 | 0x0025      |          37 |
|     297 | 0x0029      |          41 |
|     298 | 0x0028      |          40 |
|     299 | 0x007D      |         125 |
|     300 | 0x0079      |         121 |
|     301 | 0x007C      |         124 |
|     302 | 0x0074      |         116 |
|     303 | 0x00EC      |         236 |
|     304 | 0x019C      |         412 |
|     305 | 0x0193      |         403 |
|     306 | 0x01C6      |         454 |
|     307 | 0x01C7      |         455 |

## Events

### Event 65535

#### Metadata

| Field        | Value   |
|--------------|---------|
| Entrypoint   | 0x0000  |
| Data Size    | 1 bytes |
| Instructions | 1       |

```
      00 01 02 03 04 05 06 07  08 09 0A 0B 0C 0D 0E 0F
      -- -- -- -- -- -- -- --  -- -- -- -- -- -- -- --
0000: 00                                                .               
```

#### Opcodes

```
  0: 0x0000 [0x00] END_REQSTACK()
```

### Event 913

#### Metadata

| Field        | Value   |
|--------------|---------|
| Entrypoint   | 0x0001  |
| Data Size    | 1 bytes |
| Instructions | 1       |

```
      00 01 02 03 04 05 06 07  08 09 0A 0B 0C 0D 0E 0F
      -- -- -- -- -- -- -- --  -- -- -- -- -- -- -- --
0000:    00                                              .              
```

#### Opcodes

```
  0: 0x0001 [0x00] END_REQSTACK()
```

### Event 65535.1

#### Metadata

| Field        | Value    |
|--------------|----------|
| Entrypoint   | 0x0002   |
| Data Size    | 10 bytes |
| Instructions | 4        |

```
      00 01 02 03 04 05 06 07  08 09 0A 0B 0C 0D 0E 0F
      -- -- -- -- -- -- -- --  -- -- -- -- -- -- -- --
0000:       1A 34 01 1A 49 1A  1A 94 11 00                .4..I.....    
```

#### Opcodes

```
  0: 0x0002 [0x1A] CALL_SUBROUTINE(address=0x0134)
  1: 0x0005 [0x1A] CALL_SUBROUTINE(address=0x1A49)
  2: 0x0008 [0x1A] CALL_SUBROUTINE(address=0x1194)
  3: 0x000B [0x00] END_REQSTACK()
```

### Event 65535.2

#### Metadata

| Field        | Value    |
|--------------|----------|
| Entrypoint   | 0x000C   |
| Data Size    | 15 bytes |
| Instructions | 3        |

```
      00 01 02 03 04 05 06 07  08 09 0A 0B 0C 0D 0E 0F
      -- -- -- -- -- -- -- --  -- -- -- -- -- -- -- --
0000:                                      37 00 80 01              7...
0010: 80 02 80 03 80 80 F8 FF  FF 7F 00                 ...........     
```

#### Opcodes

```
  0: 0x000C [0x37] UPDATE_EVENT_POSITION_AND_DIR: x=-66.978*, z=-8.174*, y=-9.250*, direction=32.1°*
  1: 0x0015 [0x80] LOAD_WAIT(entity=EventEntity)
  2: 0x001A [0x00] END_REQSTACK()
```

### Event 65535.3

#### Metadata

| Field        | Value    |
|--------------|----------|
| Entrypoint   | 0x001B   |
| Data Size    | 14 bytes |
| Instructions | 4        |

```
      00 01 02 03 04 05 06 07  08 09 0A 0B 0C 0D 0E 0F
      -- -- -- -- -- -- -- --  -- -- -- -- -- -- -- --
0010:                                   32 04 80 1F 00             2....
0020: 05 80 06 80 02 80 1F 01  00                       .........       
```

#### Opcodes

```
  0: 0x001B [0x32] ExtData[1]->MainSpeed = 13* * 0.1
  1: 0x001E [0x1F] MOVE_ENTITY: EventEntity moves to X=-67.440*, Z=-9.640*, Y=-9.250*
  2: 0x0026 [0x1F] MOVE_ENTITY: Update entity position (mode=1)
  3: 0x0028 [0x00] END_REQSTACK()
```

### Event 65535.4

#### Metadata

| Field        | Value   |
|--------------|---------|
| Entrypoint   | 0x0029  |
| Data Size    | 9 bytes |
| Instructions | 3       |

```
      00 01 02 03 04 05 06 07  08 09 0A 0B 0C 0D 0E 0F
      -- -- -- -- -- -- -- --  -- -- -- -- -- -- -- --
0020:                             1A 34 01 03 02 10 01           .4.....
0030: 00 00                                             ..              
```

#### Opcodes

```
  0: 0x0029 [0x1A] CALL_SUBROUTINE(address=0x0134)
  1: 0x002C [0x03] Work_Zone[2] = ExtData[1]->WorkLocal[1]
  2: 0x0031 [0x00] END_REQSTACK()
```

### Event 65535.5

#### Metadata

| Field        | Value    |
|--------------|----------|
| Entrypoint   | 0x0032   |
| Data Size    | 15 bytes |
| Instructions | 3        |

```
      00 01 02 03 04 05 06 07  08 09 0A 0B 0C 0D 0E 0F
      -- -- -- -- -- -- -- --  -- -- -- -- -- -- -- --
0030:       37 07 80 08 80 09  80 0A 80 80 F8 FF FF 7F    7.............
0040: 00                                                .               
```

#### Opcodes

```
  0: 0x0032 [0x37] UPDATE_EVENT_POSITION_AND_DIR: x=-55.773*, z=-133.783*, y=-4.000*, direction=258.1°*
  1: 0x003B [0x80] LOAD_WAIT(entity=EventEntity)
  2: 0x0040 [0x00] END_REQSTACK()
```

### Event 65535.6

#### Metadata

| Field        | Value   |
|--------------|---------|
| Entrypoint   | 0x0041  |
| Data Size    | 8 bytes |
| Instructions | 2       |

```
      00 01 02 03 04 05 06 07  08 09 0A 0B 0C 0D 0E 0F
      -- -- -- -- -- -- -- --  -- -- -- -- -- -- -- --
0040:    36 0B 80 0C 80 09 80  00                        6.......       
```

#### Opcodes

```
  0: 0x0041 [0x36] SET_ENTITY_EVENT_POSITION(pos_x=-55.365*, pos_z=-133.636*, pos_y=-4.000*)
  1: 0x0048 [0x00] END_REQSTACK()
```

### Event 65535.7

#### Metadata

| Field        | Value    |
|--------------|----------|
| Entrypoint   | 0x0049   |
| Data Size    | 10 bytes |
| Instructions | 2        |

```
      00 01 02 03 04 05 06 07  08 09 0A 0B 0C 0D 0E 0F
      -- -- -- -- -- -- -- --  -- -- -- -- -- -- -- --
0040:                             37 0D 80 0E 80 09 80           7......
0050: 0F 80 00                                          ...             
```

#### Opcodes

```
  0: 0x0049 [0x37] UPDATE_EVENT_POSITION_AND_DIR: x=-56.519*, z=-133.023*, y=-4.000*, direction=156.6°*
  1: 0x0052 [0x00] END_REQSTACK()
```

### Event 65535.8

#### Metadata

| Field        | Value    |
|--------------|----------|
| Entrypoint   | 0x0053   |
| Data Size    | 10 bytes |
| Instructions | 2        |

```
      00 01 02 03 04 05 06 07  08 09 0A 0B 0C 0D 0E 0F
      -- -- -- -- -- -- -- --  -- -- -- -- -- -- -- --
0050:          37 10 80 11 80  09 80 12 80 00              7.........   
```

#### Opcodes

```
  0: 0x0053 [0x37] UPDATE_EVENT_POSITION_AND_DIR: x=-56.475*, z=-132.484*, y=-4.000*, direction=98.7°*
  1: 0x005C [0x00] END_REQSTACK()
```

### Event 65535.9

#### Metadata

| Field        | Value    |
|--------------|----------|
| Entrypoint   | 0x005D   |
| Data Size    | 10 bytes |
| Instructions | 2        |

```
      00 01 02 03 04 05 06 07  08 09 0A 0B 0C 0D 0E 0F
      -- -- -- -- -- -- -- --  -- -- -- -- -- -- -- --
0050:                                         37 13 80               7..
0060: 14 80 09 80 12 80 00                              .......         
```

#### Opcodes

```
  0: 0x005D [0x37] UPDATE_EVENT_POSITION_AND_DIR: x=-55.146*, z=-133.798*, y=-4.000*, direction=98.7°*
  1: 0x0066 [0x00] END_REQSTACK()
```

### Event 65535.10

#### Metadata

| Field        | Value    |
|--------------|----------|
| Entrypoint   | 0x0067   |
| Data Size    | 10 bytes |
| Instructions | 2        |

```
      00 01 02 03 04 05 06 07  08 09 0A 0B 0C 0D 0E 0F
      -- -- -- -- -- -- -- --  -- -- -- -- -- -- -- --
0060:                      37  15 80 16 80 09 80 12 80         7........
0070: 00                                                .               
```

#### Opcodes

```
  0: 0x0067 [0x37] UPDATE_EVENT_POSITION_AND_DIR: x=-55.348*, z=-132.710*, y=-4.000*, direction=98.7°*
  1: 0x0070 [0x00] END_REQSTACK()
```

### Event 65535.11

#### Metadata

| Field        | Value   |
|--------------|---------|
| Entrypoint   | 0x0071  |
| Data Size    | 8 bytes |
| Instructions | 2       |

```
      00 01 02 03 04 05 06 07  08 09 0A 0B 0C 0D 0E 0F
      -- -- -- -- -- -- -- --  -- -- -- -- -- -- -- --
0070:    36 17 80 18 80 09 80  00                        6.......       
```

#### Opcodes

```
  0: 0x0071 [0x36] SET_ENTITY_EVENT_POSITION(pos_x=-66.233*, pos_z=-121.547*, pos_y=-4.000*)
  1: 0x0078 [0x00] END_REQSTACK()
```

### Event 911

#### Metadata

| Field        | Value   |
|--------------|---------|
| Entrypoint   | 0x0079  |
| Data Size    | 1 bytes |
| Instructions | 1       |

```
      00 01 02 03 04 05 06 07  08 09 0A 0B 0C 0D 0E 0F
      -- -- -- -- -- -- -- --  -- -- -- -- -- -- -- --
0070:                             00                             .      
```

#### Opcodes

```
  0: 0x0079 [0x00] END_REQSTACK()
```

### Event 912

#### Metadata

| Field        | Value   |
|--------------|---------|
| Entrypoint   | 0x007A  |
| Data Size    | 1 bytes |
| Instructions | 1       |

```
      00 01 02 03 04 05 06 07  08 09 0A 0B 0C 0D 0E 0F
      -- -- -- -- -- -- -- --  -- -- -- -- -- -- -- --
0070:                                00                           .     
```

#### Opcodes

```
  0: 0x007A [0x00] END_REQSTACK()
```

### Event 65535.12

#### Metadata

| Field        | Value    |
|--------------|----------|
| Entrypoint   | 0x007B   |
| Data Size    | 15 bytes |
| Instructions | 3        |

```
      00 01 02 03 04 05 06 07  08 09 0A 0B 0C 0D 0E 0F
      -- -- -- -- -- -- -- --  -- -- -- -- -- -- -- --
0070:                                   37 19 80 1A 80             7....
0080: 09 80 1B 80 80 F8 FF FF  7F 00                    ..........      
```

#### Opcodes

```
  0: 0x007B [0x37] UPDATE_EVENT_POSITION_AND_DIR: x=-56.161*, z=-132.818*, y=-4.000*, direction=113.6°*
  1: 0x0084 [0x80] LOAD_WAIT(entity=EventEntity)
  2: 0x0089 [0x00] END_REQSTACK()
```

### Event 65535.13

#### Metadata

| Field        | Value    |
|--------------|----------|
| Entrypoint   | 0x008A   |
| Data Size    | 10 bytes |
| Instructions | 2        |

```
      00 01 02 03 04 05 06 07  08 09 0A 0B 0C 0D 0E 0F
      -- -- -- -- -- -- -- --  -- -- -- -- -- -- -- --
0080:                                37 1C 80 1D 80 09            7.....
0090: 80 1E 80 00                                       ....            
```

#### Opcodes

```
  0: 0x008A [0x37] UPDATE_EVENT_POSITION_AND_DIR: x=-56.681*, z=-136.702*, y=-4.000*, direction=84.3°*
  1: 0x0093 [0x00] END_REQSTACK()
```

### Event 65535.14

#### Metadata

| Field        | Value    |
|--------------|----------|
| Entrypoint   | 0x0094   |
| Data Size    | 10 bytes |
| Instructions | 2        |

```
      00 01 02 03 04 05 06 07  08 09 0A 0B 0C 0D 0E 0F
      -- -- -- -- -- -- -- --  -- -- -- -- -- -- -- --
0090:             37 1F 80 20  80 09 80 1E 80 00            7.. ......  
```

#### Opcodes

```
  0: 0x0094 [0x37] UPDATE_EVENT_POSITION_AND_DIR: x=-55.503*, z=-134.480*, y=-4.000*, direction=84.3°*
  1: 0x009D [0x00] END_REQSTACK()
```

### Event 65535.15

#### Metadata

| Field        | Value    |
|--------------|----------|
| Entrypoint   | 0x009E   |
| Data Size    | 10 bytes |
| Instructions | 2        |

```
      00 01 02 03 04 05 06 07  08 09 0A 0B 0C 0D 0E 0F
      -- -- -- -- -- -- -- --  -- -- -- -- -- -- -- --
0090:                                            37 21                7!
00A0: 80 22 80 09 80 23 80 00                           ."...#..        
```

#### Opcodes

```
  0: 0x009E [0x37] UPDATE_EVENT_POSITION_AND_DIR: x=-55.866*, z=-135.172*, y=-4.000*, direction=84.2°*
  1: 0x00A7 [0x00] END_REQSTACK()
```

### Event 65535.16

#### Metadata

| Field        | Value    |
|--------------|----------|
| Entrypoint   | 0x00A8   |
| Data Size    | 10 bytes |
| Instructions | 2        |

```
      00 01 02 03 04 05 06 07  08 09 0A 0B 0C 0D 0E 0F
      -- -- -- -- -- -- -- --  -- -- -- -- -- -- -- --
00A0:                          37 24 80 25 80 09 80 23          7$.%...#
00B0: 80 00                                             ..              
```

#### Opcodes

```
  0: 0x00A8 [0x37] UPDATE_EVENT_POSITION_AND_DIR: x=-54.692*, z=-133.606*, y=-4.000*, direction=84.2°*
  1: 0x00B1 [0x00] END_REQSTACK()
```

### Event 65535.17

#### Metadata

| Field        | Value    |
|--------------|----------|
| Entrypoint   | 0x00B2   |
| Data Size    | 16 bytes |
| Instructions | 5        |

```
      00 01 02 03 04 05 06 07  08 09 0A 0B 0C 0D 0E 0F
      -- -- -- -- -- -- -- --  -- -- -- -- -- -- -- --
00B0:       22 00 32 04 80 1F  00 26 80 27 80 09 80 1F    ".2....&.'....
00C0: 01 00                                             ..              
```

#### Opcodes

```
  0: 0x00B2 [0x22] ENTITY_HIDE_FLAG(enabled=0x00)
  1: 0x00B4 [0x32] ExtData[1]->MainSpeed = 13* * 0.1
  2: 0x00B7 [0x1F] MOVE_ENTITY: EventEntity moves to X=-68.782*, Z=-116.405*, Y=-4.000*
  3: 0x00BF [0x1F] MOVE_ENTITY: Update entity position (mode=1)
  4: 0x00C1 [0x00] END_REQSTACK()
```

### Event 907

#### Metadata

| Field        | Value   |
|--------------|---------|
| Entrypoint   | 0x00C2  |
| Data Size    | 1 bytes |
| Instructions | 1       |

```
      00 01 02 03 04 05 06 07  08 09 0A 0B 0C 0D 0E 0F
      -- -- -- -- -- -- -- --  -- -- -- -- -- -- -- --
00C0:       00                                            .             
```

#### Opcodes

```
  0: 0x00C2 [0x00] END_REQSTACK()
```

### Event 908

#### Metadata

| Field        | Value   |
|--------------|---------|
| Entrypoint   | 0x00C3  |
| Data Size    | 1 bytes |
| Instructions | 1       |

```
      00 01 02 03 04 05 06 07  08 09 0A 0B 0C 0D 0E 0F
      -- -- -- -- -- -- -- --  -- -- -- -- -- -- -- --
00C0:          00                                          .            
```

#### Opcodes

```
  0: 0x00C3 [0x00] END_REQSTACK()
```

### Event 65535.18

#### Metadata

| Field        | Value    |
|--------------|----------|
| Entrypoint   | 0x00C4   |
| Data Size    | 15 bytes |
| Instructions | 3        |

```
      00 01 02 03 04 05 06 07  08 09 0A 0B 0C 0D 0E 0F
      -- -- -- -- -- -- -- --  -- -- -- -- -- -- -- --
00C0:             37 28 80 29  80 2A 80 2B 80 80 F8 FF      7(.).*.+....
00D0: FF 7F 00                                          ...             
```

#### Opcodes

```
  0: 0x00C4 [0x37] UPDATE_EVENT_POSITION_AND_DIR: x=-23.217*, z=109.551*, y=-6.250*, direction=157.1°*
  1: 0x00CD [0x80] LOAD_WAIT(entity=EventEntity)
  2: 0x00D2 [0x00] END_REQSTACK()
```

### Event 65535.19

#### Metadata

| Field        | Value    |
|--------------|----------|
| Entrypoint   | 0x00D3   |
| Data Size    | 24 bytes |
| Instructions | 6        |

```
      00 01 02 03 04 05 06 07  08 09 0A 0B 0C 0D 0E 0F
      -- -- -- -- -- -- -- --  -- -- -- -- -- -- -- --
00D0:          32 04 80 1F 00  2C 80 2D 80 2A 80 1F 01     2....,.-.*...
00E0: 1F 00 2E 80 2F 80 30 80  1F 01 00                 ..../.0....     
```

#### Opcodes

```
  0: 0x00D3 [0x32] ExtData[1]->MainSpeed = 13* * 0.1
  1: 0x00D6 [0x1F] MOVE_ENTITY: EventEntity moves to X=-25.896*, Z=109.509*, Y=-6.250*
  2: 0x00DE [0x1F] MOVE_ENTITY: Update entity position (mode=1)
  3: 0x00E0 [0x1F] MOVE_ENTITY: EventEntity moves to X=-25.960*, Z=104.035*, Y=-5.249*
  4: 0x00E8 [0x1F] MOVE_ENTITY: Update entity position (mode=1)
  5: 0x00EA [0x00] END_REQSTACK()
```

### Event 65535.20

#### Metadata

| Field        | Value    |
|--------------|----------|
| Entrypoint   | 0x00EB   |
| Data Size    | 15 bytes |
| Instructions | 3        |

```
      00 01 02 03 04 05 06 07  08 09 0A 0B 0C 0D 0E 0F
      -- -- -- -- -- -- -- --  -- -- -- -- -- -- -- --
00E0:                                   37 31 80 32 80             71.2.
00F0: 2A 80 33 80 80 F8 FF FF  7F 00                    *.3.......      
```

#### Opcodes

```
  0: 0x00EB [0x37] UPDATE_EVENT_POSITION_AND_DIR: x=-18.073*, z=110.566*, y=-6.250*, direction=269.3°*
  1: 0x00F4 [0x80] LOAD_WAIT(entity=EventEntity)
  2: 0x00F9 [0x00] END_REQSTACK()
```

### Event 65535.21

#### Metadata

| Field        | Value    |
|--------------|----------|
| Entrypoint   | 0x00FA   |
| Data Size    | 14 bytes |
| Instructions | 4        |

```
      00 01 02 03 04 05 06 07  08 09 0A 0B 0C 0D 0E 0F
      -- -- -- -- -- -- -- --  -- -- -- -- -- -- -- --
00F0:                                32 04 80 1F 00 34            2....4
0100: 80 35 80 36 80 1F 01 00                           .5.6....        
```

#### Opcodes

```
  0: 0x00FA [0x32] ExtData[1]->MainSpeed = 13* * 0.1
  1: 0x00FD [0x1F] MOVE_ENTITY: EventEntity moves to X=-18.185*, Z=111.568*, Y=-6.249*
  2: 0x0105 [0x1F] MOVE_ENTITY: Update entity position (mode=1)
  3: 0x0107 [0x00] END_REQSTACK()
```

### Event 65535.22

#### Metadata

| Field        | Value    |
|--------------|----------|
| Entrypoint   | 0x0108   |
| Data Size    | 15 bytes |
| Instructions | 3        |

```
      00 01 02 03 04 05 06 07  08 09 0A 0B 0C 0D 0E 0F
      -- -- -- -- -- -- -- --  -- -- -- -- -- -- -- --
0100:                          37 37 80 38 80 30 80 39          77.8.0.9
0110: 80 80 F8 FF FF 7F 00                              .......         
```

#### Opcodes

```
  0: 0x0108 [0x37] UPDATE_EVENT_POSITION_AND_DIR: x=-25.385*, z=104.915*, y=-5.249*, direction=81.2°*
  1: 0x0111 [0x80] LOAD_WAIT(entity=EventEntity)
  2: 0x0116 [0x00] END_REQSTACK()
```

### Event 65535.23

#### Metadata

| Field        | Value    |
|--------------|----------|
| Entrypoint   | 0x0117   |
| Data Size    | 14 bytes |
| Instructions | 4        |

```
      00 01 02 03 04 05 06 07  08 09 0A 0B 0C 0D 0E 0F
      -- -- -- -- -- -- -- --  -- -- -- -- -- -- -- --
0110:                      32  04 80 1F 00 3A 80 3B 80         2....:.;.
0120: 30 80 1F 01 00                                    0....           
```

#### Opcodes

```
  0: 0x0117 [0x32] ExtData[1]->MainSpeed = 13* * 0.1
  1: 0x011A [0x1F] MOVE_ENTITY: EventEntity moves to X=-24.397*, Z=98.680*, Y=-5.249*
  2: 0x0122 [0x1F] MOVE_ENTITY: Update entity position (mode=1)
  3: 0x0124 [0x00] END_REQSTACK()
```

### Event 65535.24

#### Metadata

| Field        | Value       |
|--------------|-------------|
| Entrypoint   | 0x0125      |
| Data Size    | 18538 bytes |
| Instructions | 3           |

```
      00 01 02 03 04 05 06 07  08 09 0A 0B 0C 0D 0E 0F
      -- -- -- -- -- -- -- --  -- -- -- -- -- -- -- --
0120:                37 3C 80  3D 80 3E 80 3F 80 80 F8       7<.=.>.?...
0130: FF FF 7F 00 03 02 00 40  80 1A 7F 15 1A 89 15 02  .......@........
0140: 0B 00 40 80 80 42 02 02  01 00 40 80 80 66 01 B4  ..@..B....@..f..
0150: 00 02 00 46 65 6C 69 7A  00 00 00 00 00 00 00 00  ...Feliz........
0160: 00 00 00 01 3F 02 02 01  00 41 80 80 85 01 B4 00  ....?....A......
0170: 02 00 46 65 72 64 69 6E  61 6E 64 00 00 00 00 00  ..Ferdinand.....
0180: 00 00 01 3F 02 02 01 00  42 80 80 A4 01 B4 00 02  ...?....B.......
0190: 00 47 75 6E 6E 61 72 00  00 00 00 00 00 00 00 00  .Gunnar.........
01A0: 00 01 3F 02 02 01 00 43  80 80 C3 01 B4 00 02 00  ..?....C........
01B0: 4D 61 73 73 69 6D 6F 00  00 00 00 00 00 00 00 00  Massimo.........
01C0: 01 3F 02 02 01 00 44 80  80 E2 01 B4 00 02 00 4F  .?....D........O
01D0: 6C 64 72 69 63 68 00 00  00 00 00 00 00 00 00 01  ldrich..........
01E0: 3F 02 02 01 00 45 80 80  01 02 B4 00 02 00 53 69  ?....E........Si
01F0: 65 67 77 61 72 64 00 00  00 00 00 00 00 00 01 3F  egward.........?
0200: 02 02 01 00 46 80 80 20  02 B4 00 02 00 54 68 65  ....F.. .....The
0210: 6F 62 61 6C 64 00 00 00  00 00 00 00 00 01 3F 02  obald.........?.
0220: 02 01 00 47 80 80 3F 02  B4 00 02 00 5A 65 6E 6A  ...G..?.....Zenj
0230: 69 00 00 00 00 00 00 00  00 00 00 00 01 3F 02 01  i............?..
0240: 57 09 02 0B 00 41 80 80  45 03 02 01 00 40 80 80  W....A..E....@..
0250: 69 02 B4 00 02 00 41 6D  65 72 69 74 61 00 00 00  i.....Amerita...
0260: 00 00 00 00 00 00 01 42  03 02 01 00 41 80 80 88  .......B....A...
0270: 02 B4 00 02 00 42 65 61  74 72 69 63 65 00 00 00  .....Beatrice...
0280: 00 00 00 00 00 01 42 03  02 01 00 42 80 80 A7 02  ......B....B....
0290: B4 00 02 00 48 65 6E 72  69 65 74 74 61 00 00 00  ....Henrietta...
02A0: 00 00 00 00 01 42 03 02  01 00 43 80 80 C6 02 B4  .....B....C.....
02B0: 00 02 00 4A 65 73 69 6D  61 65 00 00 00 00 00 00  ...Jesimae......
02C0: 00 00 00 01 42 03 02 01  00 44 80 80 E5 02 B4 00  ....B....D......
02D0: 02 00 4B 61 72 79 6E 00  00 00 00 00 00 00 00 00  ..Karyn.........
02E0: 00 00 01 42 03 02 01 00  45 80 80 04 03 B4 00 02  ...B....E.......
02F0: 00 4E 61 6E 61 6B 6F 00  00 00 00 00 00 00 00 00  .Nanako.........
0300: 00 01 42 03 02 01 00 46  80 80 23 03 B4 00 02 00  ..B....F..#.....
0310: 53 68 61 72 6C 65 6E 65  00 00 00 00 00 00 00 00  Sharlene........
0320: 01 42 03 02 01 00 47 80  80 42 03 B4 00 02 00 53  .B....G..B.....S
0330: 69 65 67 68 69 6C 64 65  00 00 00 00 00 00 00 01  ieghilde........
0340: 42 03 01 57 09 02 0B 00  42 80 80 48 04 02 01 00  B..W....B..H....
0350: 40 80 80 6C 03 B4 00 02  00 43 68 61 6E 61 6E 64  @..l.....Chanand
0360: 69 74 00 00 00 00 00 00  00 01 45 04 02 01 00 41  it........E....A
0370: 80 80 8B 03 B4 00 02 00  44 65 75 6C 6D 61 65 75  ........Deulmaeu
0380: 78 00 00 00 00 00 00 00  01 45 04 02 01 00 42 80  x........E....B.
0390: 80 AA 03 B4 00 02 00 44  65 6D 72 65 73 69 6E 61  .......Demresina
03A0: 75 78 00 00 00 00 00 01  45 04 02 01 00 43 80 80  ux......E....C..
03B0: C9 03 B4 00 02 00 45 70  68 65 61 6C 67 61 75 78  ......Ephealgaux
03C0: 00 00 00 00 00 00 01 45  04 02 01 00 44 80 80 E8  .......E....D...
03D0: 03 B4 00 02 00 47 61 75  6C 64 65 76 61 6C 00 00  .....Gauldeval..
03E0: 00 00 00 00 00 01 45 04  02 01 00 45 80 80 07 04  ......E....E....
03F0: B4 00 02 00 47 72 61 75  66 66 65 6D 61 72 74 00  ....Grauffemart.
0400: 00 00 00 00 01 45 04 02  01 00 46 80 80 26 04 B4  .....E....F..&..
0410: 00 02 00 4D 69 67 61 69  66 6F 6E 67 75 74 00 00  ...Migaifongut..
0420: 00 00 00 01 45 04 02 01  00 47 80 80 45 04 B4 00  ....E....G..E...
0430: 02 00 52 6F 6D 69 64 69  61 6E 74 00 00 00 00 00  ..Romidiant.....
0440: 00 00 01 45 04 01 57 09  02 0B 00 43 80 80 4B 05  ...E..W....C..K.
0450: 02 01 00 40 80 80 6F 04  B4 00 02 00 41 72 6D 69  ...@..o.....Armi
0460: 74 74 69 65 00 00 00 00  00 00 00 00 01 48 05 02  ttie.........H..
0470: 01 00 41 80 80 8E 04 B4  00 02 00 43 61 64 65 70  ..A........Cadep
0480: 75 72 65 00 00 00 00 00  00 00 00 01 48 05 02 01  ure.........H...
0490: 00 42 80 80 AD 04 B4 00  02 00 43 6C 65 61 72 69  .B........Cleari
04A0: 74 65 00 00 00 00 00 00  00 00 01 48 05 02 01 00  te.........H....
04B0: 43 80 80 CC 04 B4 00 02  00 45 70 69 6C 6C 65 76  C........Epillev
04C0: 65 00 00 00 00 00 00 00  00 01 48 05 02 01 00 44  e.........H....D
04D0: 80 80 EB 04 B4 00 02 00  4C 69 61 62 65 6C 6C 65  ........Liabelle
04E0: 00 00 00 00 00 00 00 00  01 48 05 02 01 00 45 80  .........H....E.
04F0: 80 0A 05 B4 00 02 00 4E  61 75 74 68 69 6D 61 00  .......Nauthima.
0500: 00 00 00 00 00 00 00 01  48 05 02 01 00 46 80 80  ........H....F..
0510: 29 05 B4 00 02 00 52 61  64 69 6C 6C 65 00 00 00  ).....Radille...
0520: 00 00 00 00 00 00 01 48  05 02 01 00 47 80 80 48  .......H....G..H
0530: 05 B4 00 02 00 56 69 6D  65 63 68 75 65 00 00 00  .....Vimechue...
0540: 00 00 00 00 00 01 48 05  01 57 09 02 0B 00 44 80  ......H..W....D.
0550: 80 4E 06 02 01 00 40 80  80 72 05 B4 00 02 00 42  .N....@..r.....B
0560: 61 6C 75 2D 46 61 6C 75  00 00 00 00 00 00 00 01  alu-Falu........
0570: 4B 06 02 01 00 41 80 80  91 05 B4 00 02 00 42 75  K....A........Bu
0580: 72 67 2D 4C 61 64 61 72  67 00 00 00 00 00 01 4B  rg-Ladarg......K
0590: 06 02 01 00 42 80 80 B0  05 B4 00 02 00 45 68 67  ....B........Ehg
05A0: 6F 2D 52 79 75 68 67 6F  00 00 00 00 00 01 4B 06  o-Ryuhgo......K.
05B0: 02 01 00 43 80 80 CF 05  B4 00 02 00 4B 6F 6C 75  ...C........Kolu
05C0: 69 2D 50 65 6C 75 69 00  00 00 00 00 01 4B 06 02  i-Pelui......K..
05D0: 01 00 44 80 80 EE 05 B4  00 02 00 4E 6F 6B 75 6D  ..D........Nokum
05E0: 2D 41 6B 6B 75 6D 00 00  00 00 00 01 4B 06 02 01  -Akkum......K...
05F0: 00 45 80 80 0D 06 B4 00  02 00 53 61 76 75 6C 2D  .E........Savul-
0600: 4B 69 76 75 6C 00 00 00  00 00 01 4B 06 02 01 00  Kivul......K....
0610: 46 80 80 2C 06 B4 00 02  00 56 69 6E 6A 61 2D 4B  F..,.....Vinja-K
0620: 61 6E 6A 61 00 00 00 00  00 01 4B 06 02 01 00 47  anja......K....G
0630: 80 80 4B 06 B4 00 02 00  59 61 72 67 61 2D 55 6D  ..K.....Yarga-Um
0640: 69 67 61 00 00 00 00 00  01 4B 06 01 57 09 02 0B  iga......K..W...
0650: 00 45 80 80 51 07 02 01  00 40 80 80 75 06 B4 00  .E..Q....@..u...
0660: 02 00 43 75 70 61 70 61  00 00 00 00 00 00 00 00  ..Cupapa........
0670: 00 00 01 4E 07 02 01 00  41 80 80 94 06 B4 00 02  ...N....A.......
0680: 00 4A 61 6A 75 6A 75 00  00 00 00 00 00 00 00 00  .Jajuju.........
0690: 00 01 4E 07 02 01 00 42  80 80 B3 06 B4 00 02 00  ..N....B........
06A0: 4B 61 6C 6F 6B 6F 6B 6F  00 00 00 00 00 00 00 00  Kalokoko........
06B0: 01 4E 07 02 01 00 43 80  80 D2 06 B4 00 02 00 4D  .N....C........M
06C0: 61 68 6F 79 61 79 61 00  00 00 00 00 00 00 00 01  ahoyaya.........
06D0: 4E 07 02 01 00 44 80 80  F1 06 B4 00 02 00 50 61  N....D........Pa
06E0: 6B 75 72 61 72 61 00 00  00 00 00 00 00 00 01 4E  kurara.........N
06F0: 07 02 01 00 45 80 80 10  07 B4 00 02 00 52 69 70  ....E........Rip
0700: 6F 6B 65 6B 65 00 00 00  00 00 00 00 00 01 4E 07  okeke.........N.
0710: 02 01 00 46 80 80 2F 07  B4 00 02 00 59 61 77 61  ...F../.....Yawa
0720: 77 61 00 00 00 00 00 00  00 00 00 00 01 4E 07 02  wa...........N..
0730: 01 00 47 80 80 4E 07 B4  00 02 00 59 75 66 61 66  ..G..N.....Yufaf
0740: 61 00 00 00 00 00 00 00  00 00 00 01 4E 07 01 57  a...........N..W
0750: 09 02 0B 00 46 80 80 54  08 02 01 00 40 80 80 78  ....F..T....@..x
0760: 07 B4 00 02 00 46 68 69  67 00 00 00 00 00 00 00  .....Fhig.......
0770: 00 00 00 00 00 01 51 08  02 01 00 41 80 80 97 07  ......Q....A....
0780: B4 00 02 00 4B 68 75 6D  61 00 00 00 00 00 00 00  ....Khuma.......
0790: 00 00 00 00 01 51 08 02  01 00 42 80 80 B6 07 B4  .....Q....B.....
07A0: 00 02 00 50 69 6D 79 00  00 00 00 00 00 00 00 00  ...Pimy.........
07B0: 00 00 00 01 51 08 02 01  00 43 80 80 D5 07 B4 00  ....Q....C......
07C0: 02 00 52 61 6B 61 00 00  00 00 00 00 00 00 00 00  ..Raka..........
07D0: 00 00 01 51 08 02 01 00  44 80 80 F4 07 B4 00 02  ...Q....D.......
07E0: 00 53 61 68 79 75 00 00  00 00 00 00 00 00 00 00  .Sahyu..........
07F0: 00 01 51 08 02 01 00 45  80 80 13 08 B4 00 02 00  ..Q....E........
0800: 53 75 66 68 69 00 00 00  00 00 00 00 00 00 00 00  Sufhi...........
0810: 01 51 08 02 01 00 46 80  80 32 08 B4 00 02 00 54  .Q....F..2.....T
0820: 73 75 69 6D 00 00 00 00  00 00 00 00 00 00 00 01  suim............
0830: 51 08 02 01 00 47 80 80  51 08 B4 00 02 00 59 6F  Q....G..Q.....Yo
0840: 6C 69 00 00 00 00 00 00  00 00 00 00 00 00 01 51  li.............Q
0850: 08 01 57 09 02 0B 00 47  80 80 57 09 02 01 00 40  ..W....G..W....@
0860: 80 80 7B 08 B4 00 02 00  44 75 72 69 62 00 00 00  ..{.....Durib...
0870: 00 00 00 00 00 00 00 00  01 54 09 02 01 00 41 80  .........T....A.
0880: 80 9A 08 B4 00 02 00 44  7A 61 70 69 77 61 00 00  .......Dzapiwa..
0890: 00 00 00 00 00 00 00 01  54 09 02 01 00 42 80 80  ........T....B..
08A0: B9 08 B4 00 02 00 4A 75  67 6F 77 61 00 00 00 00  ......Jugowa....
08B0: 00 00 00 00 00 00 01 54  09 02 01 00 43 80 80 D8  .......T....C...
08C0: 08 B4 00 02 00 4D 75 67  69 64 6F 00 00 00 00 00  .....Mugido.....
08D0: 00 00 00 00 00 01 54 09  02 01 00 44 80 80 F7 08  ......T....D....
08E0: B4 00 02 00 56 6F 6C 64  61 69 00 00 00 00 00 00  ....Voldai......
08F0: 00 00 00 00 01 54 09 02  01 00 45 80 80 16 09 B4  .....T....E.....
0900: 00 02 00 57 61 67 77 65  69 00 00 00 00 00 00 00  ...Wagwei.......
0910: 00 00 00 01 54 09 02 01  00 46 80 80 35 09 B4 00  ....T....F..5...
0920: 02 00 5A 61 79 61 67 00  00 00 00 00 00 00 00 00  ..Zayag.........
0930: 00 00 01 54 09 02 01 00  47 80 80 54 09 B4 00 02  ...T....G..T....
0940: 00 5A 6F 6C 64 6F 66 00  00 00 00 00 00 00 00 00  .Zoldof.........
0950: 00 01 54 09 01 57 09 02  02 00 40 80 01 63 09 B5  ..T..W....@..c..
0960: 00 02 00 1B 03 02 00 40  80 1A 7F 15 1A 89 15 02  .......@........
0970: 0B 00 40 80 80 72 0A 02  01 00 40 80 80 96 09 B4  ..@..r....@.....
0980: 00 02 00 46 65 6C 69 7A  00 00 00 00 00 00 00 00  ...Feliz........
0990: 00 00 00 01 6F 0A 02 01  00 41 80 80 B5 09 B4 00  ....o....A......
09A0: 02 00 46 65 72 64 69 6E  61 6E 64 00 00 00 00 00  ..Ferdinand.....
09B0: 00 00 01 6F 0A 02 01 00  42 80 80 D4 09 B4 00 02  ...o....B.......
09C0: 00 47 75 6E 6E 61 72 00  00 00 00 00 00 00 00 00  .Gunnar.........
09D0: 00 01 6F 0A 02 01 00 43  80 80 F3 09 B4 00 02 00  ..o....C........
09E0: 4D 61 73 73 69 6D 6F 00  00 00 00 00 00 00 00 00  Massimo.........
09F0: 01 6F 0A 02 01 00 44 80  80 12 0A B4 00 02 00 4F  .o....D........O
0A00: 6C 64 72 69 63 68 00 00  00 00 00 00 00 00 00 01  ldrich..........
0A10: 6F 0A 02 01 00 45 80 80  31 0A B4 00 02 00 53 69  o....E..1.....Si
0A20: 65 67 77 61 72 64 00 00  00 00 00 00 00 00 01 6F  egward.........o
0A30: 0A 02 01 00 46 80 80 50  0A B4 00 02 00 54 68 65  ....F..P.....The
0A40: 6F 62 61 6C 64 00 00 00  00 00 00 00 00 01 6F 0A  obald.........o.
0A50: 02 01 00 47 80 80 6F 0A  B4 00 02 00 5A 65 6E 6A  ...G..o.....Zenj
0A60: 69 00 00 00 00 00 00 00  00 00 00 00 01 6F 0A 01  i............o..
0A70: 87 11 02 0B 00 41 80 80  75 0B 02 01 00 40 80 80  .....A..u....@..
0A80: 99 0A B4 00 02 00 41 6D  65 72 69 74 61 00 00 00  ......Amerita...
0A90: 00 00 00 00 00 00 01 72  0B 02 01 00 41 80 80 B8  .......r....A...
0AA0: 0A B4 00 02 00 42 65 61  74 72 69 63 65 00 00 00  .....Beatrice...
0AB0: 00 00 00 00 00 01 72 0B  02 01 00 42 80 80 D7 0A  ......r....B....
0AC0: B4 00 02 00 48 65 6E 72  69 65 74 74 61 00 00 00  ....Henrietta...
0AD0: 00 00 00 00 01 72 0B 02  01 00 43 80 80 F6 0A B4  .....r....C.....
0AE0: 00 02 00 4A 65 73 69 6D  61 65 00 00 00 00 00 00  ...Jesimae......
0AF0: 00 00 00 01 72 0B 02 01  00 44 80 80 15 0B B4 00  ....r....D......
0B00: 02 00 4B 61 72 79 6E 00  00 00 00 00 00 00 00 00  ..Karyn.........
0B10: 00 00 01 72 0B 02 01 00  45 80 80 34 0B B4 00 02  ...r....E..4....
0B20: 00 4E 61 6E 61 6B 6F 00  00 00 00 00 00 00 00 00  .Nanako.........
0B30: 00 01 72 0B 02 01 00 46  80 80 53 0B B4 00 02 00  ..r....F..S.....
0B40: 53 68 61 72 6C 65 6E 65  00 00 00 00 00 00 00 00  Sharlene........
0B50: 01 72 0B 02 01 00 47 80  80 72 0B B4 00 02 00 53  .r....G..r.....S
0B60: 69 65 67 68 69 6C 64 65  00 00 00 00 00 00 00 01  ieghilde........
0B70: 72 0B 01 87 11 02 0B 00  42 80 80 78 0C 02 01 00  r.......B..x....
0B80: 40 80 80 9C 0B B4 00 02  00 43 68 61 6E 61 6E 64  @........Chanand
0B90: 69 74 00 00 00 00 00 00  00 01 75 0C 02 01 00 41  it........u....A
0BA0: 80 80 BB 0B B4 00 02 00  44 65 75 6C 6D 61 65 75  ........Deulmaeu
0BB0: 78 00 00 00 00 00 00 00  01 75 0C 02 01 00 42 80  x........u....B.
0BC0: 80 DA 0B B4 00 02 00 44  65 6D 72 65 73 69 6E 61  .......Demresina
0BD0: 75 78 00 00 00 00 00 01  75 0C 02 01 00 43 80 80  ux......u....C..
0BE0: F9 0B B4 00 02 00 45 70  68 65 61 6C 67 61 75 78  ......Ephealgaux
0BF0: 00 00 00 00 00 00 01 75  0C 02 01 00 44 80 80 18  .......u....D...
0C00: 0C B4 00 02 00 47 61 75  6C 64 65 76 61 6C 00 00  .....Gauldeval..
0C10: 00 00 00 00 00 01 75 0C  02 01 00 45 80 80 37 0C  ......u....E..7.
0C20: B4 00 02 00 47 72 61 75  66 66 65 6D 61 72 74 00  ....Grauffemart.
0C30: 00 00 00 00 01 75 0C 02  01 00 46 80 80 56 0C B4  .....u....F..V..
0C40: 00 02 00 4D 69 67 61 69  66 6F 6E 67 75 74 00 00  ...Migaifongut..
0C50: 00 00 00 01 75 0C 02 01  00 47 80 80 75 0C B4 00  ....u....G..u...
0C60: 02 00 52 6F 6D 69 64 69  61 6E 74 00 00 00 00 00  ..Romidiant.....
0C70: 00 00 01 75 0C 01 87 11  02 0B 00 43 80 80 7B 0D  ...u.......C..{.
0C80: 02 01 00 40 80 80 9F 0C  B4 00 02 00 41 72 6D 69  ...@........Armi
0C90: 74 74 69 65 00 00 00 00  00 00 00 00 01 78 0D 02  ttie.........x..
0CA0: 01 00 41 80 80 BE 0C B4  00 02 00 43 61 64 65 70  ..A........Cadep
0CB0: 75 72 65 00 00 00 00 00  00 00 00 01 78 0D 02 01  ure.........x...
0CC0: 00 42 80 80 DD 0C B4 00  02 00 43 6C 65 61 72 69  .B........Cleari
0CD0: 74 65 00 00 00 00 00 00  00 00 01 78 0D 02 01 00  te.........x....
0CE0: 43 80 80 FC 0C B4 00 02  00 45 70 69 6C 6C 65 76  C........Epillev
0CF0: 65 00 00 00 00 00 00 00  00 01 78 0D 02 01 00 44  e.........x....D
0D00: 80 80 1B 0D B4 00 02 00  4C 69 61 62 65 6C 6C 65  ........Liabelle
0D10: 00 00 00 00 00 00 00 00  01 78 0D 02 01 00 45 80  .........x....E.
0D20: 80 3A 0D B4 00 02 00 4E  61 75 74 68 69 6D 61 00  .:.....Nauthima.
0D30: 00 00 00 00 00 00 00 01  78 0D 02 01 00 46 80 80  ........x....F..
0D40: 59 0D B4 00 02 00 52 61  64 69 6C 6C 65 00 00 00  Y.....Radille...
0D50: 00 00 00 00 00 00 01 78  0D 02 01 00 47 80 80 78  .......x....G..x
0D60: 0D B4 00 02 00 56 69 6D  65 63 68 75 65 00 00 00  .....Vimechue...
0D70: 00 00 00 00 00 01 78 0D  01 87 11 02 0B 00 44 80  ......x.......D.
0D80: 80 7E 0E 02 01 00 40 80  80 A2 0D B4 00 02 00 42  .~....@........B
0D90: 61 6C 75 2D 46 61 6C 75  00 00 00 00 00 00 00 01  alu-Falu........
0DA0: 7B 0E 02 01 00 41 80 80  C1 0D B4 00 02 00 42 75  {....A........Bu
0DB0: 72 67 2D 4C 61 64 61 72  67 00 00 00 00 00 01 7B  rg-Ladarg......{
0DC0: 0E 02 01 00 42 80 80 E0  0D B4 00 02 00 45 68 67  ....B........Ehg
0DD0: 6F 2D 52 79 75 68 67 6F  00 00 00 00 00 01 7B 0E  o-Ryuhgo......{.
0DE0: 02 01 00 43 80 80 FF 0D  B4 00 02 00 4B 6F 6C 75  ...C........Kolu
0DF0: 69 2D 50 65 6C 75 69 00  00 00 00 00 01 7B 0E 02  i-Pelui......{..
0E00: 01 00 44 80 80 1E 0E B4  00 02 00 4E 6F 6B 75 6D  ..D........Nokum
0E10: 2D 41 6B 6B 75 6D 00 00  00 00 00 01 7B 0E 02 01  -Akkum......{...
0E20: 00 45 80 80 3D 0E B4 00  02 00 53 61 76 75 6C 2D  .E..=.....Savul-
0E30: 4B 69 76 75 6C 00 00 00  00 00 01 7B 0E 02 01 00  Kivul......{....
0E40: 46 80 80 5C 0E B4 00 02  00 56 69 6E 6A 61 2D 4B  F..\.....Vinja-K
0E50: 61 6E 6A 61 00 00 00 00  00 01 7B 0E 02 01 00 47  anja......{....G
0E60: 80 80 7B 0E B4 00 02 00  59 61 72 67 61 2D 55 6D  ..{.....Yarga-Um
0E70: 69 67 61 00 00 00 00 00  01 7B 0E 01 87 11 02 0B  iga......{......
0E80: 00 45 80 80 81 0F 02 01  00 40 80 80 A5 0E B4 00  .E.......@......
0E90: 02 00 43 75 70 61 70 61  00 00 00 00 00 00 00 00  ..Cupapa........
0EA0: 00 00 01 7E 0F 02 01 00  41 80 80 C4 0E B4 00 02  ...~....A.......
0EB0: 00 4A 61 6A 75 6A 75 00  00 00 00 00 00 00 00 00  .Jajuju.........
0EC0: 00 01 7E 0F 02 01 00 42  80 80 E3 0E B4 00 02 00  ..~....B........
0ED0: 4B 61 6C 6F 6B 6F 6B 6F  00 00 00 00 00 00 00 00  Kalokoko........
0EE0: 01 7E 0F 02 01 00 43 80  80 02 0F B4 00 02 00 4D  .~....C........M
0EF0: 61 68 6F 79 61 79 61 00  00 00 00 00 00 00 00 01  ahoyaya.........
0F00: 7E 0F 02 01 00 44 80 80  21 0F B4 00 02 00 50 61  ~....D..!.....Pa
0F10: 6B 75 72 61 72 61 00 00  00 00 00 00 00 00 01 7E  kurara.........~
0F20: 0F 02 01 00 45 80 80 40  0F B4 00 02 00 52 69 70  ....E..@.....Rip
0F30: 6F 6B 65 6B 65 00 00 00  00 00 00 00 00 01 7E 0F  okeke.........~.
0F40: 02 01 00 46 80 80 5F 0F  B4 00 02 00 59 61 77 61  ...F.._.....Yawa
0F50: 77 61 00 00 00 00 00 00  00 00 00 00 01 7E 0F 02  wa...........~..
0F60: 01 00 47 80 80 7E 0F B4  00 02 00 59 75 66 61 66  ..G..~.....Yufaf
0F70: 61 00 00 00 00 00 00 00  00 00 00 01 7E 0F 01 87  a...........~...
0F80: 11 02 0B 00 46 80 80 84  10 02 01 00 40 80 80 A8  ....F.......@...
0F90: 0F B4 00 02 00 46 68 69  67 00 00 00 00 00 00 00  .....Fhig.......
0FA0: 00 00 00 00 00 01 81 10  02 01 00 41 80 80 C7 0F  ...........A....
0FB0: B4 00 02 00 4B 68 75 6D  61 00 00 00 00 00 00 00  ....Khuma.......
0FC0: 00 00 00 00 01 81 10 02  01 00 42 80 80 E6 0F B4  ..........B.....
0FD0: 00 02 00 50 69 6D 79 00  00 00 00 00 00 00 00 00  ...Pimy.........
0FE0: 00 00 00 01 81 10 02 01  00 43 80 80 05 10 B4 00  .........C......
0FF0: 02 00 52 61 6B 61 00 00  00 00 00 00 00 00 00 00  ..Raka..........
1000: 00 00 01 81 10 02 01 00  44 80 80 24 10 B4 00 02  ........D..$....
1010: 00 53 61 68 79 75 00 00  00 00 00 00 00 00 00 00  .Sahyu..........
1020: 00 01 81 10 02 01 00 45  80 80 43 10 B4 00 02 00  .......E..C.....
1030: 53 75 66 68 69 00 00 00  00 00 00 00 00 00 00 00  Sufhi...........
1040: 01 81 10 02 01 00 46 80  80 62 10 B4 00 02 00 54  ......F..b.....T
1050: 73 75 69 6D 00 00 00 00  00 00 00 00 00 00 00 01  suim............
1060: 81 10 02 01 00 47 80 80  81 10 B4 00 02 00 59 6F  .....G........Yo
1070: 6C 69 00 00 00 00 00 00  00 00 00 00 00 00 01 81  li..............
1080: 10 01 87 11 02 0B 00 47  80 80 87 11 02 01 00 40  .......G.......@
1090: 80 80 AB 10 B4 00 02 00  44 75 72 69 62 00 00 00  ........Durib...
10A0: 00 00 00 00 00 00 00 00  01 84 11 02 01 00 41 80  ..............A.
10B0: 80 CA 10 B4 00 02 00 44  7A 61 70 69 77 61 00 00  .......Dzapiwa..
10C0: 00 00 00 00 00 00 00 01  84 11 02 01 00 42 80 80  .............B..
10D0: E9 10 B4 00 02 00 4A 75  67 6F 77 61 00 00 00 00  ......Jugowa....
10E0: 00 00 00 00 00 00 01 84  11 02 01 00 43 80 80 08  ............C...
10F0: 11 B4 00 02 00 4D 75 67  69 64 6F 00 00 00 00 00  .....Mugido.....
1100: 00 00 00 00 00 01 84 11  02 01 00 44 80 80 27 11  ...........D..'.
1110: B4 00 02 00 56 6F 6C 64  61 69 00 00 00 00 00 00  ....Voldai......
1120: 00 00 00 00 01 84 11 02  01 00 45 80 80 46 11 B4  ..........E..F..
1130: 00 02 00 57 61 67 77 65  69 00 00 00 00 00 00 00  ...Wagwei.......
1140: 00 00 00 01 84 11 02 01  00 46 80 80 65 11 B4 00  .........F..e...
1150: 02 00 5A 61 79 61 67 00  00 00 00 00 00 00 00 00  ..Zayag.........
1160: 00 00 01 84 11 02 01 00  47 80 80 84 11 B4 00 02  ........G.......
1170: 00 5A 6F 6C 64 6F 66 00  00 00 00 00 00 00 00 00  .Zoldof.........
1180: 00 01 84 11 01 87 11 02  02 00 40 80 01 93 11 B5  ..........@.....
1190: 00 02 00 1B 1A 5A 15 02  09 00 40 80 02 5F 13 02  .....Z....@.._..
11A0: 0B 00 40 80 80 D7 11 02  09 00 41 80 80 B6 11 B6  ..@.......A.....
11B0: 0F 48 80 01 D4 11 02 09  00 42 80 80 C5 11 B6 0F  .H.......B......
11C0: 49 80 01 D4 11 02 09 00  43 80 80 D4 11 B6 0F 4A  I.......C......J
11D0: 80 01 D4 11 01 5F 13 02  0B 00 41 80 80 0F 12 02  ....._....A.....
11E0: 09 00 41 80 80 EE 11 B6  0F 48 80 01 0C 12 02 09  ..A......H......
11F0: 00 42 80 80 FD 11 B6 0F  49 80 01 0C 12 02 09 00  .B......I.......
1200: 43 80 80 0C 12 B6 0F 4A  80 01 0C 12 01 5F 13 02  C......J....._..
1210: 0B 00 42 80 80 47 12 02  09 00 41 80 80 26 12 B6  ..B..G....A..&..
1220: 0F 48 80 01 44 12 02 09  00 42 80 80 35 12 B6 0F  .H..D....B..5...
1230: 49 80 01 44 12 02 09 00  43 80 80 44 12 B6 0F 4A  I..D....C..D...J
1240: 80 01 44 12 01 5F 13 02  0B 00 43 80 80 7F 12 02  ..D.._....C.....
1250: 09 00 41 80 80 5E 12 B6  0F 48 80 01 7C 12 02 09  ..A..^...H..|...
1260: 00 42 80 80 6D 12 B6 0F  49 80 01 7C 12 02 09 00  .B..m...I..|....
1270: 43 80 80 7C 12 B6 0F 4A  80 01 7C 12 01 5F 13 02  C..|...J..|.._..
1280: 0B 00 44 80 80 B7 12 02  09 00 41 80 80 96 12 B6  ..D.......A.....
1290: 0F 4B 80 01 B4 12 02 09  00 42 80 80 A5 12 B6 0F  .K.......B......
12A0: 4C 80 01 B4 12 02 09 00  43 80 80 B4 12 B6 0F 4D  L.......C......M
12B0: 80 01 B4 12 01 5F 13 02  0B 00 45 80 80 EF 12 02  ....._....E.....
12C0: 09 00 41 80 80 CE 12 B6  0F 4B 80 01 EC 12 02 09  ..A......K......
12D0: 00 42 80 80 DD 12 B6 0F  4C 80 01 EC 12 02 09 00  .B......L.......
12E0: 43 80 80 EC 12 B6 0F 4D  80 01 EC 12 01 5F 13 02  C......M....._..
12F0: 0B 00 46 80 80 27 13 02  09 00 41 80 80 06 13 B6  ..F..'....A.....
1300: 0F 4E 80 01 24 13 02 09  00 42 80 80 15 13 B6 0F  .N..$....B......
1310: 4F 80 01 24 13 02 09 00  43 80 80 24 13 B6 0F 50  O..$....C..$...P
1320: 80 01 24 13 01 5F 13 02  0B 00 47 80 80 5F 13 02  ..$.._....G.._..
1330: 09 00 41 80 80 3E 13 B6  0F 4D 80 01 5C 13 02 09  ..A..>...M..\...
1340: 00 42 80 80 4D 13 B6 0F  51 80 01 5C 13 02 09 00  .B..M...Q..\....
1350: 43 80 80 5C 13 B6 0F 49  80 01 5C 13 01 5F 13 0B  C..\...I..\.._..
1360: 0B 00 B6 0B 0B 00 0C 00  0D 00 0E 00 0F 00 10 00  ................
1370: 11 00 40 80 40 80 1B 1A  5A 15 02 09 00 40 80 02  ..@.@...Z....@..
1380: 42 15 02 0B 00 40 80 80  BA 13 02 09 00 41 80 80  B....@.......A..
1390: 99 13 B6 0F 48 80 01 B7  13 02 09 00 42 80 80 A8  ....H.......B...
13A0: 13 B6 0F 49 80 01 B7 13  02 09 00 43 80 80 B7 13  ...I.......C....
13B0: B6 0F 4A 80 01 B7 13 01  42 15 02 0B 00 41 80 80  ..J.....B....A..
13C0: F2 13 02 09 00 41 80 80  D1 13 B6 0F 48 80 01 EF  .....A......H...
13D0: 13 02 09 00 42 80 80 E0  13 B6 0F 49 80 01 EF 13  ....B......I....
13E0: 02 09 00 43 80 80 EF 13  B6 0F 4A 80 01 EF 13 01  ...C......J.....
13F0: 42 15 02 0B 00 42 80 80  2A 14 02 09 00 41 80 80  B....B..*....A..
1400: 09 14 B6 0F 48 80 01 27  14 02 09 00 42 80 80 18  ....H..'....B...
1410: 14 B6 0F 49 80 01 27 14  02 09 00 43 80 80 27 14  ...I..'....C..'.
1420: B6 0F 4A 80 01 27 14 01  42 15 02 0B 00 43 80 80  ..J..'..B....C..
1430: 62 14 02 09 00 41 80 80  41 14 B6 0F 48 80 01 5F  b....A..A...H.._
1440: 14 02 09 00 42 80 80 50  14 B6 0F 49 80 01 5F 14  ....B..P...I.._.
1450: 02 09 00 43 80 80 5F 14  B6 0F 4A 80 01 5F 14 01  ...C.._...J.._..
1460: 42 15 02 0B 00 44 80 80  9A 14 02 09 00 41 80 80  B....D.......A..
1470: 79 14 B6 0F 4B 80 01 97  14 02 09 00 42 80 80 88  y...K.......B...
1480: 14 B6 0F 4C 80 01 97 14  02 09 00 43 80 80 97 14  ...L.......C....
1490: B6 0F 4D 80 01 97 14 01  42 15 02 0B 00 45 80 80  ..M.....B....E..
14A0: D2 14 02 09 00 41 80 80  B1 14 B6 0F 4B 80 01 CF  .....A......K...
14B0: 14 02 09 00 42 80 80 C0  14 B6 0F 4C 80 01 CF 14  ....B......L....
14C0: 02 09 00 43 80 80 CF 14  B6 0F 4D 80 01 CF 14 01  ...C......M.....
14D0: 42 15 02 0B 00 46 80 80  0A 15 02 09 00 41 80 80  B....F.......A..
14E0: E9 14 B6 0F 4E 80 01 07  15 02 09 00 42 80 80 F8  ....N.......B...
14F0: 14 B6 0F 4F 80 01 07 15  02 09 00 43 80 80 07 15  ...O.......C....
1500: B6 0F 50 80 01 07 15 01  42 15 02 0B 00 47 80 80  ..P.....B....G..
1510: 42 15 02 09 00 41 80 80  21 15 B6 0F 4D 80 01 3F  B....A..!...M..?
1520: 15 02 09 00 42 80 80 30  15 B6 0F 51 80 01 3F 15  ....B..0...Q..?.
1530: 02 09 00 43 80 80 3F 15  B6 0F 49 80 01 3F 15 01  ...C..?...I..?..
1540: 42 15 0B 0B 00 B6 0B 0B  00 0C 00 0D 00 0E 00 0F  B...............
1550: 00 10 00 11 00 12 00 13  00 1B 1A 89 15 1A 7E 16  ..............~.
1560: 1A 74 16 1A D5 1A 1A EA  1A 1A 0A 1B 1A 2A 1B 1A  .t...........*..
1570: 4A 1B 1A 77 1A 1A 97 1A  1A 6A 1B 1A 92 1B 1B 41  J..w.....j.....A
1580: 40 80 43 80 09 10 01 00  1B 41 44 80 46 80 09 10  @.C......AD.F...
1590: 0B 00 03 1E 17 40 80 02  0B 00 40 80 80 A7 15 03  .....@....@.....
15A0: 1F 17 40 80 01 17 16 02  0B 00 41 80 80 B7 15 03  ..@.......A.....
15B0: 1F 17 41 80 01 17 16 02  0B 00 42 80 80 C7 15 03  ..A.......B.....
15C0: 1F 17 40 80 01 17 16 02  0B 00 43 80 80 D7 15 03  ..@.......C.....
15D0: 1F 17 41 80 01 17 16 02  0B 00 44 80 80 E7 15 03  ..A.......D.....
15E0: 1F 17 40 80 01 17 16 02  0B 00 45 80 80 F7 15 03  ..@.......E.....
15F0: 1F 17 41 80 01 17 16 02  0B 00 46 80 80 07 16 03  ..A.......F.....
1600: 1F 17 41 80 01 17 16 02  0B 00 47 80 80 17 16 03  ..A.......G.....
1610: 1F 17 40 80 01 17 16 02  1F 17 41 80 00 5F 16 02  ..@.......A.._..
1620: 87 7F 42 80 80 2F 16 03  1E 17 41 80 01 5F 16 02  ..B../....A.._..
1630: 87 7F 44 80 80 3F 16 03  1E 17 41 80 01 5F 16 02  ..D..?....A.._..
1640: 87 7F 46 80 80 4F 16 03  1E 17 41 80 01 5F 16 02  ..F..O....A.._..
1650: 87 7F 47 80 80 5F 16 03  1E 17 41 80 01 5F 16 1B  ..G.._....A.._..
1660: 41 52 80 53 80 09 10 06  00 1B 41 54 80 04 80 09  AR.S......AT....
1670: 10 08 00 1B 41 55 80 56  80 09 10 09 00 1B 1A 89  ....AU.V........
1680: 15 1A 60 16 02 06 00 40  80 00 98 16 41 57 80 58  ..`....@....AW.X
1690: 80 09 10 0C 00 01 D8 19  02 0B 00 40 80 80 00 17  ...........@....
16A0: 02 06 00 41 80 80 BF 16  3E 09 10 47 80 B7 16 03  ...A....>..G....
16B0: 0C 00 04 80 01 BC 16 03  0C 00 59 80 01 FD 16 02  ..........Y.....
16C0: 06 00 42 80 80 DE 16 3E  09 10 47 80 D6 16 03 0C  ..B....>..G.....
16D0: 00 45 80 01 DB 16 03 0C  00 44 80 01 FD 16 02 06  .E.......D......
16E0: 00 43 80 80 FD 16 3E 09  10 47 80 F5 16 03 0C 00  .C....>..G......
16F0: 41 80 01 FA 16 03 0C 00  40 80 01 FD 16 01 D8 19  A.......@.......
1700: 02 0B 00 41 80 80 68 17  02 06 00 41 80 80 27 17  ...A..h....A..'.
1710: 3E 09 10 47 80 1F 17 03  0C 00 41 80 01 24 17 03  >..G......A..$..
1720: 0C 00 40 80 01 65 17 02  06 00 42 80 80 46 17 3E  ..@..e....B..F.>
1730: 09 10 47 80 3E 17 03 0C  00 45 80 01 43 17 03 0C  ..G.>....E..C...
1740: 00 44 80 01 65 17 02 06  00 43 80 80 65 17 3E 09  .D..e....C..e.>.
1750: 10 47 80 5D 17 03 0C 00  43 80 01 62 17 03 0C 00  .G.]....C..b....
1760: 42 80 01 65 17 01 D8 19  02 0B 00 42 80 80 D0 17  B..e.......B....
1770: 02 06 00 41 80 80 8F 17  3E 09 10 47 80 87 17 03  ...A....>..G....
1780: 0C 00 43 80 01 8C 17 03  0C 00 42 80 01 CD 17 02  ..C.......B.....
1790: 06 00 42 80 80 AE 17 3E  09 10 47 80 A6 17 03 0C  ..B....>..G.....
17A0: 00 5A 80 01 AB 17 03 0C  00 5B 80 01 CD 17 02 06  .Z.......[......
17B0: 00 43 80 80 CD 17 3E 09  10 47 80 C5 17 03 0C 00  .C....>..G......
17C0: 04 80 01 CA 17 03 0C 00  59 80 01 CD 17 01 D8 19  ........Y.......
17D0: 02 0B 00 43 80 80 38 18  02 06 00 41 80 80 F7 17  ...C..8....A....
17E0: 3E 09 10 47 80 EF 17 03  0C 00 41 80 01 F4 17 03  >..G......A.....
17F0: 0C 00 40 80 01 35 18 02  06 00 42 80 80 16 18 3E  ..@..5....B....>
1800: 09 10 47 80 0E 18 03 0C  00 5C 80 01 13 18 03 0C  ..G......\......
1810: 00 54 80 01 35 18 02 06  00 43 80 80 35 18 3E 09  .T..5....C..5.>.
1820: 10 47 80 2D 18 03 0C 00  47 80 01 32 18 03 0C 00  .G.-....G..2....
1830: 46 80 01 35 18 01 D8 19  02 0B 00 44 80 80 A0 18  F..5.......D....
1840: 02 06 00 41 80 80 5F 18  3E 09 10 47 80 57 18 03  ...A.._.>..G.W..
1850: 0C 00 45 80 01 5C 18 03  0C 00 44 80 01 9D 18 02  ..E..\....D.....
1860: 06 00 42 80 80 7E 18 3E  09 10 47 80 76 18 03 0C  ..B..~.>..G.v...
1870: 00 43 80 01 7B 18 03 0C  00 42 80 01 9D 18 02 06  .C..{....B......
1880: 00 43 80 80 9D 18 3E 09  10 47 80 95 18 03 0C 00  .C....>..G......
1890: 47 80 01 9A 18 03 0C 00  46 80 01 9D 18 01 D8 19  G.......F.......
18A0: 02 0B 00 45 80 80 08 19  02 06 00 41 80 80 C7 18  ...E.......A....
18B0: 3E 09 10 47 80 BF 18 03  0C 00 43 80 01 C4 18 03  >..G......C.....
18C0: 0C 00 42 80 01 05 19 02  06 00 42 80 80 E6 18 3E  ..B.......B....>
18D0: 09 10 47 80 DE 18 03 0C  00 47 80 01 E3 18 03 0C  ..G......G......
18E0: 00 46 80 01 05 19 02 06  00 43 80 80 05 19 3E 09  .F.......C....>.
18F0: 10 47 80 FD 18 03 0C 00  41 80 01 02 19 03 0C 00  .G......A.......
1900: 40 80 01 05 19 01 D8 19  02 0B 00 46 80 80 70 19  @..........F..p.
1910: 02 06 00 41 80 80 2F 19  3E 09 10 47 80 27 19 03  ...A../.>..G.'..
1920: 0C 00 53 80 01 2C 19 03  0C 00 52 80 01 6D 19 02  ..S..,....R..m..
1930: 06 00 42 80 80 4E 19 3E  09 10 47 80 46 19 03 0C  ..B..N.>..G.F...
1940: 00 5C 80 01 4B 19 03 0C  00 54 80 01 6D 19 02 06  .\..K....T..m...
1950: 00 43 80 80 6D 19 3E 09  10 47 80 65 19 03 0C 00  .C..m.>..G.e....
1960: 04 80 01 6A 19 03 0C 00  59 80 01 6D 19 01 D8 19  ...j....Y..m....
1970: 02 0B 00 47 80 80 D8 19  02 06 00 41 80 80 97 19  ...G.......A....
1980: 3E 09 10 47 80 8F 19 03  0C 00 45 80 01 94 19 03  >..G......E.....
1990: 0C 00 44 80 01 D5 19 02  06 00 42 80 80 B6 19 3E  ..D.......B....>
19A0: 09 10 47 80 AE 19 03 0C  00 04 80 01 B3 19 03 0C  ..G.............
19B0: 00 59 80 01 D5 19 02 06  00 43 80 80 D5 19 3E 09  .Y.......C....>.
19C0: 10 47 80 CD 19 03 0C 00  5C 80 01 D2 19 03 0C 00  .G......\.......
19D0: 54 80 01 D5 19 01 D8 19  1B 40 5D 80 5E 80 01 10  T........@].^...
19E0: 41 80 43 00 43 01 1B 40  5D 80 5E 80 01 10 42 80  A.C.C..@].^...B.
19F0: 43 00 43 01 1B 40 5D 80  5E 80 01 10 43 80 43 00  C.C..@].^...C.C.
1A00: 43 01 1B 40 5D 80 5E 80  01 10 44 80 43 00 43 01  C..@].^...D.C.C.
1A10: 1B 40 5D 80 5E 80 01 10  45 80 43 00 43 01 1B 40  .@].^...E.C.C..@
1A20: 5D 80 5E 80 01 10 46 80  43 00 43 01 1B 40 5D 80  ].^...F.C.C..@].
1A30: 5E 80 01 10 47 80 43 00  43 01 1B 40 5D 80 5E 80  ^...G.C.C..@].^.
1A40: 01 10 52 80 43 00 43 01  1B 40 5D 80 5E 80 01 10  ..R.C.C..@].^...
1A50: 54 80 43 00 43 01 1B 1A  89 15 03 0A 00 0B 00 02  T.C.C...........
1A60: 0A 00 45 80 04 6C 1A 08  0A 00 41 80 14 0A 00 54  ..E..l....A....T
1A70: 80 07 0A 00 53 80 1B 03  16 00 40 80 03 17 00 40  ....S.....@....@
1A80: 80 41 57 80 58 80 08 10  16 00 41 40 80 43 80 07  .AW.X.....A@.C..
1A90: 10 17 00 1A 1D 41 1B 03  16 00 40 80 41 5D 80 5F  .....A....@.A]._
1AA0: 80 08 10 16 00 3E 07 10  57 80 BB 1A 41 40 80 43  .....>..W...A@.C
1AB0: 80 07 10 17 00 1A 05 47  01 D4 1A 41 40 80 43 80  .......G...A@.C.
1AC0: 07 10 17 00 02 17 00 40  80 80 CF 1A 01 D4 1A 03  .......@........
1AD0: 13 00 40 80 1B 03 16 00  40 80 41 40 80 43 80 08  ..@.....@.A@.C..
1AE0: 10 16 00 1A 6A 16 1A 64  2C 1B 03 15 00 40 80 03  ....j..d,....@..
1AF0: 16 00 40 80 41 46 80 47  80 07 10 15 00 41 44 80  ..@.AF.G.....AD.
1B00: 47 80 08 10 16 00 1A 69  34 1B 03 15 00 40 80 03  G......i4....@..
1B10: 16 00 40 80 41 52 80 53  80 07 10 15 00 41 52 80  ..@.AR.S.....AR.
1B20: 5C 80 08 10 16 00 1A 96  37 1B 03 15 00 40 80 03  \.......7....@..
1B30: 16 00 40 80 41 54 80 5C  80 07 10 15 00 41 59 80  ..@.AT.\.....AY.
1B40: 5A 80 08 10 16 00 1A C3  3A 1B 03 15 00 40 80 03  Z.......:....@..
1B50: 16 00 40 80 41 59 80 04  80 07 10 15 00 41 60 80  ..@.AY.......A`.
1B60: 56 80 08 10 16 00 1A F0  3D 1B 41 40 80 43 80 06  V.......=.A@.C..
1B70: 10 14 00 1A 89 15 1A E1  47 41 44 80 47 80 06 10  ........GAD.G...
1B80: 14 00 1A E4 48 41 52 80  5C 80 06 10 14 00 1A 2E  ....HAR.\.......
1B90: 49 1B 41 61 80 5D 80 07  10 00 00 02 00 00 41 80  I.Aa.]........A.
1BA0: 80 AB 1B 03 12 00 62 80  01 F4 1C 02 00 00 42 80  ......b.......B.
1BB0: 80 BB 1B 03 12 00 63 80  01 F4 1C 02 00 00 43 80  ......c.......C.
1BC0: 80 CB 1B 03 12 00 64 80  01 F4 1C 02 00 00 44 80  ......d.......D.
1BD0: 80 DB 1B 03 12 00 65 80  01 F4 1C 02 00 00 45 80  ......e.......E.
1BE0: 80 EB 1B 03 12 00 66 80  01 F4 1C 02 00 00 46 80  ......f.......F.
1BF0: 80 FB 1B 03 12 00 67 80  01 F4 1C 02 00 00 47 80  ......g.......G.
1C00: 80 F4 1C 41 40 80 47 80  03 10 00 00 02 00 00 40  ...A@.G........@
1C10: 80 80 1C 1C 03 12 00 62  80 01 F1 1C 02 00 00 41  .......b.......A
1C20: 80 80 2C 1C 03 12 00 68  80 01 F1 1C 02 00 00 42  ..,....h.......B
1C30: 80 80 3C 1C 03 12 00 69  80 01 F1 1C 02 00 00 43  ..<....i.......C
1C40: 80 80 4C 1C 03 12 00 6A  80 01 F1 1C 02 00 00 44  ..L....j.......D
1C50: 80 80 5C 1C 03 12 00 6B  80 01 F1 1C 02 00 00 45  ..\....k.......E
1C60: 80 80 6C 1C 03 12 00 6C  80 01 F1 1C 02 00 00 46  ..l....l.......F
1C70: 80 80 7C 1C 03 12 00 6D  80 01 F1 1C 02 00 00 47  ..|....m.......G
1C80: 80 80 91 1C 03 12 00 6E  80 03 13 00 6E 80 01 F1  .......n....n...
1C90: 1C 02 00 00 52 80 80 A1  1C 03 12 00 6F 80 01 F1  ....R.......o...
1CA0: 1C 02 00 00 53 80 80 B1  1C 03 12 00 70 80 01 F1  ....S.......p...
1CB0: 1C 02 00 00 54 80 80 C1  1C 03 12 00 71 80 01 F1  ....T.......q...
1CC0: 1C 02 00 00 5C 80 80 D1  1C 03 12 00 72 80 01 F1  ....\.......r...
1CD0: 1C 02 00 00 59 80 80 E1  1C 03 12 00 73 80 01 F1  ....Y.......s...
1CE0: 1C 02 00 00 04 80 80 F1  1C 03 12 00 74 80 01 F1  ............t...
1CF0: 1C 01 F4 1C 3E 03 10 52  80 84 1D 41 53 80 5A 80  ....>..R...AS.Z.
1D00: 03 10 00 00 02 00 00 40  80 80 14 1D 03 13 00 75  .......@.......u
1D10: 80 01 84 1D 02 00 00 41  80 80 24 1D 03 13 00 76  .......A..$....v
1D20: 80 01 84 1D 02 00 00 42  80 80 34 1D 03 13 00 77  .......B..4....w
1D30: 80 01 84 1D 02 00 00 43  80 80 44 1D 03 13 00 78  .......C..D....x
1D40: 80 01 84 1D 02 00 00 44  80 80 54 1D 03 13 00 79  .......D..T....y
1D50: 80 01 84 1D 02 00 00 45  80 80 64 1D 03 13 00 7A  .......E..d....z
1D60: 80 01 84 1D 02 00 00 46  80 80 74 1D 03 13 00 7B  .......F..t....{
1D70: 80 01 84 1D 02 00 00 47  80 80 84 1D 03 13 00 7C  .......G.......|
1D80: 80 01 84 1D 41 7D 80 5F  80 07 10 00 00 02 00 00  ....A}._........
1D90: 41 80 80 9D 1D 03 0D 00  7E 80 01 4C 1F 02 00 00  A.......~..L....
1DA0: 42 80 80 AD 1D 03 0D 00  7F 80 01 4C 1F 02 00 00  B..........L....
1DB0: 43 80 80 BD 1D 03 0D 00  80 80 01 4C 1F 02 00 00  C..........L....
1DC0: 44 80 80 CD 1D 03 0D 00  81 80 01 4C 1F 02 00 00  D..........L....
1DD0: 45 80 80 DD 1D 03 0D 00  82 80 01 4C 1F 02 00 00  E..........L....
1DE0: 46 80 80 ED 1D 03 0D 00  83 80 01 4C 1F 02 00 00  F..........L....
1DF0: 47 80 80 4C 1F 41 60 80  58 80 03 10 00 00 02 00  G..L.A`.X.......
1E00: 00 40 80 80 89 1E 02 0B  00 40 80 80 16 1E 03 0D  .@.......@......
1E10: 00 84 80 01 86 1E 02 0B  00 41 80 80 26 1E 03 0D  .........A..&...
1E20: 00 66 80 01 86 1E 02 0B  00 42 80 80 36 1E 03 0D  .f.......B..6...
1E30: 00 84 80 01 86 1E 02 0B  00 43 80 80 46 1E 03 0D  .........C..F...
1E40: 00 66 80 01 86 1E 02 0B  00 44 80 80 56 1E 03 0D  .f.......D..V...
1E50: 00 84 80 01 86 1E 02 0B  00 45 80 80 66 1E 03 0D  .........E..f...
1E60: 00 66 80 01 86 1E 02 0B  00 46 80 80 76 1E 03 0D  .f.......F..v...
1E70: 00 66 80 01 86 1E 02 0B  00 47 80 80 86 1E 03 0D  .f.......G......
1E80: 00 84 80 01 86 1E 01 49  1F 02 00 00 41 80 80 99  .......I....A...
1E90: 1E 03 0D 00 85 80 01 49  1F 02 00 00 42 80 80 A9  .......I....B...
1EA0: 1E 03 0D 00 86 80 01 49  1F 02 00 00 43 80 80 B9  .......I....C...
1EB0: 1E 03 0D 00 64 80 01 49  1F 02 00 00 44 80 80 C9  ....d..I....D...
1EC0: 1E 03 0D 00 65 80 01 49  1F 02 00 00 45 80 80 D9  ....e..I....E...
1ED0: 1E 03 0D 00 87 80 01 49  1F 02 00 00 46 80 80 E9  .......I....F...
1EE0: 1E 03 0D 00 83 80 01 49  1F 02 00 00 47 80 80 F9  .......I....G...
1EF0: 1E 03 0D 00 83 80 01 49  1F 02 00 00 52 80 80 09  .......I....R...
1F00: 1F 03 0D 00 88 80 01 49  1F 02 00 00 53 80 80 19  .......I....S...
1F10: 1F 03 0D 00 89 80 01 49  1F 02 00 00 54 80 80 29  .......I....T..)
1F20: 1F 03 0D 00 8A 80 01 49  1F 02 00 00 5C 80 80 39  .......I....\..9
1F30: 1F 03 0D 00 8B 80 01 49  1F 02 00 00 59 80 80 49  .......I....Y..I
1F40: 1F 03 0D 00 8C 80 01 49  1F 01 4C 1F 41 8D 80 5E  .......I..L.A..^
1F50: 80 07 10 00 00 02 00 00  53 80 80 74 1F 03 0E 00  ........S..t....
1F60: 8E 80 03 0F 00 8E 80 03  10 00 8E 80 03 11 00 8E  ................
1F70: 80 01 63 2C 02 00 00 54  80 80 77 20 02 0B 00 40  ..c,...T..w ...@
1F80: 80 80 9B 1F 03 0E 00 8F  80 03 0F 00 8F 80 03 10  ................
1F90: 00 8F 80 03 11 00 8F 80  01 74 20 02 0B 00 41 80  .........t ...A.
1FA0: 80 BA 1F 03 0E 00 90 80  03 0F 00 90 80 03 10 00  ................
1FB0: 90 80 03 11 00 90 80 01  74 20 02 0B 00 42 80 80  ........t ...B..
1FC0: D9 1F 03 0E 00 8F 80 03  0F 00 8F 80 03 10 00 8F  ................
1FD0: 80 03 11 00 8F 80 01 74  20 02 0B 00 43 80 80 F8  .......t ...C...
1FE0: 1F 03 0E 00 90 80 03 0F  00 90 80 03 10 00 90 80  ................
1FF0: 03 11 00 90 80 01 74 20  02 0B 00 44 80 80 17 20  ......t ...D... 
2000: 03 0E 00 8F 80 03 0F 00  8F 80 03 10 00 8F 80 03  ................
2010: 11 00 8F 80 01 74 20 02  0B 00 45 80 80 36 20 03  .....t ...E..6 .
2020: 0E 00 90 80 03 0F 00 90  80 03 10 00 90 80 03 11  ................
2030: 00 90 80 01 74 20 02 0B  00 46 80 80 55 20 03 0E  ....t ...F..U ..
2040: 00 90 80 03 0F 00 90 80  03 10 00 90 80 03 11 00  ................
2050: 90 80 01 74 20 02 0B 00  47 80 80 74 20 03 0E 00  ...t ...G..t ...
2060: 8F 80 03 0F 00 8F 80 03  10 00 8F 80 03 11 00 8F  ................
2070: 80 01 74 20 01 63 2C 02  00 00 5C 80 80 7A 21 02  ..t .c,...\..z!.
2080: 0B 00 40 80 80 9E 20 03  0E 00 84 80 03 0F 00 84  ..@... .........
2090: 80 03 10 00 84 80 03 11  00 84 80 01 77 21 02 0B  ............w!..
20A0: 00 41 80 80 BD 20 03 0E  00 66 80 03 0F 00 66 80  .A... ...f....f.
20B0: 03 10 00 66 80 03 11 00  66 80 01 77 21 02 0B 00  ...f....f..w!...
20C0: 42 80 80 DC 20 03 0E 00  84 80 03 0F 00 84 80 03  B... ...........
20D0: 10 00 84 80 03 11 00 84  80 01 77 21 02 0B 00 43  ..........w!...C
20E0: 80 80 FB 20 03 0E 00 66  80 03 0F 00 66 80 03 10  ... ...f....f...
20F0: 00 66 80 03 11 00 66 80  01 77 21 02 0B 00 44 80  .f....f..w!...D.
2100: 80 1A 21 03 0E 00 84 80  03 0F 00 84 80 03 10 00  ..!.............
2110: 84 80 03 11 00 84 80 01  77 21 02 0B 00 45 80 80  ........w!...E..
2120: 39 21 03 0E 00 66 80 03  0F 00 66 80 03 10 00 66  9!...f....f....f
2130: 80 03 11 00 66 80 01 77  21 02 0B 00 46 80 80 58  ....f..w!...F..X
2140: 21 03 0E 00 66 80 03 0F  00 66 80 03 10 00 66 80  !...f....f....f.
2150: 03 11 00 66 80 01 77 21  02 0B 00 47 80 80 77 21  ...f..w!...G..w!
2160: 03 0E 00 84 80 03 0F 00  84 80 03 10 00 84 80 03  ................
2170: 11 00 84 80 01 77 21 01  63 2C 02 00 00 41 80 80  .....w!.c,...A..
2180: 0E 22 02 0B 00 40 80 80  92 21 03 0E 00 91 80 01  ."...@...!......
2190: 02 22 02 0B 00 41 80 80  A2 21 03 0E 00 92 80 01  ."...A...!......
21A0: 02 22 02 0B 00 42 80 80  B2 21 03 0E 00 91 80 01  ."...B...!......
21B0: 02 22 02 0B 00 43 80 80  C2 21 03 0E 00 92 80 01  ."...C...!......
21C0: 02 22 02 0B 00 44 80 80  D2 21 03 0E 00 91 80 01  ."...D...!......
21D0: 02 22 02 0B 00 45 80 80  E2 21 03 0E 00 92 80 01  ."...E...!......
21E0: 02 22 02 0B 00 46 80 80  F2 21 03 0E 00 92 80 01  ."...F...!......
21F0: 02 22 02 0B 00 47 80 80  02 22 03 0E 00 91 80 01  ."...G..."......
2200: 02 22 1A 0A 1B 1A 2A 1B  1A 4A 1B 01 63 2C 02 00  ."....*..J..c,..
2210: 00 42 80 80 A2 22 02 0B  00 40 80 80 26 22 03 0E  .B..."...@..&"..
2220: 00 93 80 01 96 22 02 0B  00 41 80 80 36 22 03 0E  ....."...A..6"..
2230: 00 94 80 01 96 22 02 0B  00 42 80 80 46 22 03 0E  ....."...B..F"..
2240: 00 93 80 01 96 22 02 0B  00 43 80 80 56 22 03 0E  ....."...C..V"..
2250: 00 94 80 01 96 22 02 0B  00 44 80 80 66 22 03 0E  ....."...D..f"..
2260: 00 93 80 01 96 22 02 0B  00 45 80 80 76 22 03 0E  ....."...E..v"..
2270: 00 94 80 01 96 22 02 0B  00 46 80 80 86 22 03 0E  ....."...F..."..
2280: 00 94 80 01 96 22 02 0B  00 47 80 80 96 22 03 0E  ....."...G..."..
2290: 00 93 80 01 96 22 1A 0A  1B 1A 2A 1B 1A 4A 1B 01  ....."....*..J..
22A0: 63 2C 02 00 00 47 80 80  36 23 02 0B 00 40 80 80  c,...G..6#...@..
22B0: BA 22 03 0E 00 95 80 01  2A 23 02 0B 00 41 80 80  ."......*#...A..
22C0: CA 22 03 0E 00 96 80 01  2A 23 02 0B 00 42 80 80  ."......*#...B..
22D0: DA 22 03 0E 00 95 80 01  2A 23 02 0B 00 43 80 80  ."......*#...C..
22E0: EA 22 03 0E 00 96 80 01  2A 23 02 0B 00 44 80 80  ."......*#...D..
22F0: FA 22 03 0E 00 95 80 01  2A 23 02 0B 00 45 80 80  ."......*#...E..
2300: 0A 23 03 0E 00 96 80 01  2A 23 02 0B 00 46 80 80  .#......*#...F..
2310: 1A 23 03 0E 00 96 80 01  2A 23 02 0B 00 47 80 80  .#......*#...G..
2320: 2A 23 03 0E 00 95 80 01  2A 23 1A 0A 1B 1A 2A 1B  *#......*#....*.
2330: 1A 4A 1B 01 63 2C 02 00  00 43 80 80 74 23 02 0B  .J..c,...C..t#..
2340: 00 45 80 00 5D 23 03 0E  00 97 80 03 0F 00 97 80  .E..]#..........
2350: 03 10 00 97 80 03 11 00  97 80 01 71 23 03 0E 00  ...........q#...
2360: 98 80 03 0F 00 98 80 03  10 00 98 80 03 11 00 98  ................
2370: 80 01 63 2C 02 00 00 44  80 80 B2 23 02 0B 00 45  ..c,...D...#...E
2380: 80 00 9B 23 03 0E 00 99  80 03 0F 00 99 80 03 10  ...#............
2390: 00 99 80 03 11 00 99 80  01 AF 23 03 0E 00 9A 80  ..........#.....
23A0: 03 0F 00 9A 80 03 10 00  9A 80 03 11 00 9A 80 01  ................
23B0: 63 2C 02 00 00 52 80 80  F0 23 02 0B 00 45 80 00  c,...R...#...E..
23C0: D9 23 03 0E 00 9B 80 03  0F 00 9B 80 03 10 00 9B  .#..............
23D0: 80 03 11 00 9B 80 01 ED  23 03 0E 00 9C 80 03 0F  ........#.......
23E0: 00 9C 80 03 10 00 9C 80  03 11 00 9C 80 01 63 2C  ..............c,
23F0: 02 00 00 59 80 80 F3 24  02 0B 00 40 80 80 17 24  ...Y...$...@...$
2400: 03 0E 00 86 80 03 0F 00  86 80 03 10 00 86 80 03  ................
2410: 11 00 86 80 01 F0 24 02  0B 00 41 80 80 36 24 03  ......$...A..6$.
2420: 0E 00 9D 80 03 0F 00 9D  80 03 10 00 9D 80 03 11  ................
2430: 00 9D 80 01 F0 24 02 0B  00 42 80 80 55 24 03 0E  .....$...B..U$..
2440: 00 86 80 03 0F 00 86 80  03 10 00 86 80 03 11 00  ................
2450: 86 80 01 F0 24 02 0B 00  43 80 80 74 24 03 0E 00  ....$...C..t$...
2460: 9D 80 03 0F 00 9D 80 03  10 00 9D 80 03 11 00 9D  ................
2470: 80 01 F0 24 02 0B 00 44  80 80 93 24 03 0E 00 86  ...$...D...$....
2480: 80 03 0F 00 86 80 03 10  00 86 80 03 11 00 86 80  ................
2490: 01 F0 24 02 0B 00 45 80  80 B2 24 03 0E 00 9D 80  ..$...E...$.....
24A0: 03 0F 00 9D 80 03 10 00  9D 80 03 11 00 9D 80 01  ................
24B0: F0 24 02 0B 00 46 80 80  D1 24 03 0E 00 9D 80 03  .$...F...$......
24C0: 0F 00 9D 80 03 10 00 9D  80 03 11 00 9D 80 01 F0  ................
24D0: 24 02 0B 00 47 80 80 F0  24 03 0E 00 86 80 03 0F  $...G...$.......
24E0: 00 86 80 03 10 00 86 80  03 11 00 86 80 01 F0 24  ...............$
24F0: 01 63 2C 02 00 00 45 80  80 11 25 03 0D 00 40 80  .c,...E...%...@.
2500: 03 0E 00 9E 80 1A 0A 1B  1A 2A 1B 1A 4A 1B 01 63  .........*..J..c
2510: 2C 02 00 00 46 80 80 AB  25 03 0E 00 81 80 03 0F  ,...F...%.......
2520: 00 83 80 03 11 00 81 80  02 0B 00 40 80 80 38 25  ...........@..8%
2530: 03 10 00 93 80 01 A8 25  02 0B 00 41 80 80 48 25  .......%...A..H%
2540: 03 10 00 94 80 01 A8 25  02 0B 00 42 80 80 58 25  .......%...B..X%
2550: 03 10 00 93 80 01 A8 25  02 0B 00 43 80 80 68 25  .......%...C..h%
2560: 03 10 00 94 80 01 A8 25  02 0B 00 44 80 80 78 25  .......%...D..x%
2570: 03 10 00 93 80 01 A8 25  02 0B 00 45 80 80 88 25  .......%...E...%
2580: 03 10 00 94 80 01 A8 25  02 0B 00 46 80 80 98 25  .......%...F...%
2590: 03 10 00 94 80 01 A8 25  02 0B 00 47 80 80 A8 25  .......%...G...%
25A0: 03 10 00 93 80 01 A8 25  01 63 2C 02 00 00 04 80  .......%.c,.....
25B0: 80 C9 25 03 0D 00 9F 80  03 0E 00 9F 80 1A 0A 1B  ..%.............
25C0: 1A 2A 1B 1A 4A 1B 01 63  2C 02 00 00 5B 80 80 E7  .*..J..c,...[...
25D0: 25 03 0D 00 A0 80 03 0E  00 A0 80 1A 0A 1B 1A 2A  %..............*
25E0: 1B 1A 4A 1B 01 63 2C 02  00 00 5A 80 80 63 2C 41  ..J..c,...Z..c,A
25F0: 5D 80 5E 80 03 10 00 00  02 00 00 40 80 80 16 26  ].^........@...&
2600: 03 0D 00 A1 80 03 0E 00  A1 80 1A 0A 1B 1A 2A 1B  ..............*.
2610: 1A 4A 1B 01 60 2C 02 00  00 41 80 80 3A 26 03 0D  .J..`,...A..:&..
2620: 00 63 80 03 0E 00 A2 80  03 0F 00 A2 80 03 10 00  .c..............
2630: A2 80 03 11 00 A2 80 01  60 2C 02 00 00 42 80 80  ........`,...B..
2640: 5E 26 03 0D 00 A3 80 03  0E 00 A3 80 03 0F 00 A3  ^&..............
2650: 80 03 10 00 A3 80 03 11  00 A3 80 01 60 2C 02 00  ............`,..
2660: 00 46 80 80 82 26 03 0D  00 A4 80 03 0E 00 A4 80  .F...&..........
2670: 03 0F 00 A4 80 03 10 00  A4 80 03 11 00 A4 80 01  ................
2680: 60 2C 02 00 00 47 80 80  85 27 02 0B 00 40 80 80  `,...G...'...@..
2690: A9 26 03 0E 00 A5 80 03  0F 00 A5 80 03 10 00 A5  .&..............
26A0: 80 03 11 00 A5 80 01 82  27 02 0B 00 41 80 80 C8  ........'...A...
26B0: 26 03 0E 00 A6 80 03 0F  00 A6 80 03 10 00 A6 80  &...............
26C0: 03 11 00 A6 80 01 82 27  02 0B 00 42 80 80 E7 26  .......'...B...&
26D0: 03 0E 00 A5 80 03 0F 00  A5 80 03 10 00 A5 80 03  ................
26E0: 11 00 A5 80 01 82 27 02  0B 00 43 80 80 06 27 03  ......'...C...'.
26F0: 0E 00 A6 80 03 0F 00 A6  80 03 10 00 A6 80 03 11  ................
2700: 00 A6 80 01 82 27 02 0B  00 44 80 80 25 27 03 0E  .....'...D..%'..
2710: 00 A5 80 03 0F 00 A5 80  03 10 00 A5 80 03 11 00  ................
2720: A5 80 01 82 27 02 0B 00  45 80 80 44 27 03 0E 00  ....'...E..D'...
2730: A6 80 03 0F 00 A6 80 03  10 00 A6 80 03 11 00 A6  ................
2740: 80 01 82 27 02 0B 00 46  80 80 63 27 03 0E 00 A6  ...'...F..c'....
2750: 80 03 0F 00 A6 80 03 10  00 A6 80 03 11 00 A6 80  ................
2760: 01 82 27 02 0B 00 47 80  80 82 27 03 0E 00 A5 80  ..'...G...'.....
2770: 03 0F 00 A5 80 03 10 00  A5 80 03 11 00 A5 80 01  ................
2780: 82 27 01 60 2C 02 00 00  43 80 80 3E 28 02 0B 00  .'.`,...C..>(...
2790: 40 80 80 A2 27 03 0E 00  64 80 03 10 00 64 80 01  @...'...d....d..
27A0: 35 28 02 0B 00 41 80 80  B7 27 03 0E 00 65 80 03  5(...A...'...e..
27B0: 10 00 65 80 01 35 28 02  0B 00 42 80 80 CC 27 03  ..e..5(...B...'.
27C0: 0E 00 64 80 03 10 00 64  80 01 35 28 02 0B 00 43  ..d....d..5(...C
27D0: 80 80 E1 27 03 0E 00 65  80 03 10 00 65 80 01 35  ...'...e....e..5
27E0: 28 02 0B 00 44 80 80 F6  27 03 0E 00 64 80 03 10  (...D...'...d...
27F0: 00 64 80 01 35 28 02 0B  00 45 80 80 0B 28 03 0E  .d..5(...E...(..
2800: 00 65 80 03 10 00 65 80  01 35 28 02 0B 00 46 80  .e....e..5(...F.
2810: 80 20 28 03 0E 00 65 80  03 10 00 65 80 01 35 28  . (...e....e..5(
2820: 02 0B 00 47 80 80 35 28  03 0E 00 64 80 03 10 00  ...G..5(...d....
2830: 64 80 01 35 28 1A 0A 1B  1A 4A 1B 01 60 2C 02 00  d..5(....J..`,..
2840: 00 44 80 80 62 28 03 0D  00 A7 80 03 0E 00 A7 80  .D..b(..........
2850: 03 0F 00 A7 80 03 10 00  A7 80 03 11 00 A7 80 01  ................
2860: 60 2C 02 00 00 45 80 80  7B 28 03 0E 00 A8 80 1A  `,...E..{(......
2870: 0A 1B 1A 2A 1B 1A 4A 1B  01 60 2C 02 00 00 52 80  ...*..J..`,...R.
2880: 80 A6 29 02 0B 00 40 80  80 A7 28 03 0D 00 A9 80  ..)...@...(.....
2890: 03 0E 00 A9 80 03 0F 00  A9 80 03 10 00 A9 80 03  ................
28A0: 11 00 A9 80 01 A3 29 02  0B 00 41 80 80 CB 28 03  ......)...A...(.
28B0: 0D 00 AA 80 03 0E 00 AA  80 03 0F 00 AA 80 03 10  ................
28C0: 00 AA 80 03 11 00 AA 80  01 A3 29 02 0B 00 42 80  ..........)...B.
28D0: 80 EF 28 03 0D 00 A9 80  03 0E 00 A9 80 03 0F 00  ..(.............
28E0: A9 80 03 10 00 A9 80 03  11 00 A9 80 01 A3 29 02  ..............).
28F0: 0B 00 43 80 80 13 29 03  0D 00 AA 80 03 0E 00 AA  ..C...).........
2900: 80 03 0F 00 AA 80 03 10  00 AA 80 03 11 00 AA 80  ................
2910: 01 A3 29 02 0B 00 44 80  80 37 29 03 0D 00 A9 80  ..)...D..7).....
2920: 03 0E 00 A9 80 03 0F 00  A9 80 03 10 00 A9 80 03  ................
2930: 11 00 A9 80 01 A3 29 02  0B 00 45 80 80 5B 29 03  ......)...E..[).
2940: 0D 00 AA 80 03 0E 00 AA  80 03 0F 00 AA 80 03 10  ................
2950: 00 AA 80 03 11 00 AA 80  01 A3 29 02 0B 00 46 80  ..........)...F.
2960: 80 7F 29 03 0D 00 AA 80  03 0E 00 AA 80 03 0F 00  ..).............
2970: AA 80 03 10 00 AA 80 03  11 00 AA 80 01 A3 29 02  ..............).
2980: 0B 00 47 80 80 A3 29 03  0D 00 A9 80 03 0E 00 A9  ..G...).........
2990: 80 03 0F 00 A9 80 03 10  00 A9 80 03 11 00 A9 80  ................
29A0: 01 A3 29 01 60 2C 02 00  00 53 80 80 C6 29 03 0D  ..).`,...S...)..
29B0: 00 AB 80 03 0E 00 AB 80  03 0F 00 AB 80 1A 2A 1B  ..............*.
29C0: 1A 4A 1B 01 60 2C 02 00  00 54 80 80 EA 29 03 0D  .J..`,...T...)..
29D0: 00 AC 80 03 0E 00 AC 80  03 0F 00 AC 80 03 10 00  ................
29E0: AC 80 03 11 00 AC 80 01  60 2C 02 00 00 5C 80 80  ........`,...\..
29F0: 03 2A 03 0E 00 AD 80 1A  0A 1B 1A 2A 1B 1A 4A 1B  .*.........*..J.
2A00: 01 60 2C 02 00 00 59 80  80 1C 2A 03 0E 00 AE 80  .`,...Y...*.....
2A10: 1A 0A 1B 1A 2A 1B 1A 4A  1B 01 60 2C 02 00 00 04  ....*..J..`,....
2A20: 80 80 40 2A 03 0D 00 67  80 03 0E 00 67 80 03 0F  ..@*...g....g...
2A30: 00 67 80 03 10 00 67 80  03 11 00 67 80 01 60 2C  .g....g....g..`,
2A40: 02 00 00 5B 80 80 59 2A  03 0E 00 AF 80 1A 0A 1B  ...[..Y*........
2A50: 1A 2A 1B 1A 4A 1B 01 60  2C 02 00 00 5A 80 80 72  .*..J..`,...Z..r
2A60: 2A 03 0E 00 B0 80 1A 0A  1B 1A 2A 1B 1A 4A 1B 01  *.........*..J..
2A70: 60 2C 02 00 00 60 80 80  8B 2A 03 0E 00 B1 80 1A  `,...`...*......
2A80: 0A 1B 1A 2A 1B 1A 4A 1B  01 60 2C 02 00 00 B2 80  ...*..J..`,.....
2A90: 80 A4 2A 03 0E 00 B3 80  1A 0A 1B 1A 2A 1B 1A 4A  ..*.........*..J
2AA0: 1B 01 60 2C 02 00 00 55  80 80 5D 2B 02 0B 00 40  ..`,...U..]+...@
2AB0: 80 80 C1 2A 03 0E 00 B4  80 03 10 00 64 80 01 54  ...*........d..T
2AC0: 2B 02 0B 00 41 80 80 D6  2A 03 0E 00 B5 80 03 10  +...A...*.......
2AD0: 00 65 80 01 54 2B 02 0B  00 42 80 80 EB 2A 03 0E  .e..T+...B...*..
2AE0: 00 B4 80 03 10 00 64 80  01 54 2B 02 0B 00 43 80  ......d..T+...C.
2AF0: 80 00 2B 03 0E 00 B5 80  03 10 00 65 80 01 54 2B  ..+........e..T+
2B00: 02 0B 00 44 80 80 15 2B  03 0E 00 B4 80 03 10 00  ...D...+........
2B10: 64 80 01 54 2B 02 0B 00  45 80 80 2A 2B 03 0E 00  d..T+...E..*+...
2B20: B5 80 03 10 00 65 80 01  54 2B 02 0B 00 46 80 80  .....e..T+...F..
2B30: 3F 2B 03 0E 00 B5 80 03  10 00 65 80 01 54 2B 02  ?+........e..T+.
2B40: 0B 00 47 80 80 54 2B 03  0E 00 B4 80 03 10 00 64  ..G..T+........d
2B50: 80 01 54 2B 1A 0A 1B 1A  4A 1B 01 60 2C 02 00 00  ..T+....J..`,...
2B60: 56 80 80 60 2C 02 0B 00  40 80 80 84 2B 03 0E 00  V..`,...@...+...
2B70: B6 80 03 0F 00 B6 80 03  10 00 B6 80 03 11 00 B6  ................
2B80: 80 01 5D 2C 02 0B 00 41  80 80 A3 2B 03 0E 00 B7  ..],...A...+....
2B90: 80 03 0F 00 B7 80 03 10  00 B7 80 03 11 00 B7 80  ................
2BA0: 01 5D 2C 02 0B 00 42 80  80 C2 2B 03 0E 00 B6 80  .],...B...+.....
2BB0: 03 0F 00 B6 80 03 10 00  B6 80 03 11 00 B6 80 01  ................
2BC0: 5D 2C 02 0B 00 43 80 80  E1 2B 03 0E 00 B7 80 03  ],...C...+......
2BD0: 0F 00 B7 80 03 10 00 B7  80 03 11 00 B7 80 01 5D  ...............]
2BE0: 2C 02 0B 00 44 80 80 00  2C 03 0E 00 B6 80 03 0F  ,...D...,.......
2BF0: 00 B6 80 03 10 00 B6 80  03 11 00 B6 80 01 5D 2C  ..............],
2C00: 02 0B 00 45 80 80 1F 2C  03 0E 00 B7 80 03 0F 00  ...E...,........
2C10: B7 80 03 10 00 B7 80 03  11 00 B7 80 01 5D 2C 02  .............],.
2C20: 0B 00 46 80 80 3E 2C 03  0E 00 B7 80 03 0F 00 B7  ..F..>,.........
2C30: 80 03 10 00 B7 80 03 11  00 B7 80 01 5D 2C 02 0B  ............],..
2C40: 00 47 80 80 5D 2C 03 0E  00 B6 80 03 0F 00 B6 80  .G..],..........
2C50: 03 10 00 B6 80 03 11 00  B6 80 01 5D 2C 01 60 2C  ...........],.`,
2C60: 01 63 2C 1B 02 08 00 41  80 80 0F 2D 02 16 00 40  .c,....A...-...@
2C70: 80 80 7C 2C 03 0D 00 40  80 01 0C 2D 02 16 00 41  ..|,...@...-...A
2C80: 80 80 8C 2C 03 0D 00 41  80 01 0C 2D 02 16 00 42  ...,...A...-...B
2C90: 80 80 9C 2C 03 0D 00 B8  80 01 0C 2D 02 16 00 43  ...,.......-...C
2CA0: 80 80 AC 2C 03 0D 00 B9  80 01 0C 2D 02 16 00 44  ...,.......-...D
2CB0: 80 80 BC 2C 03 0D 00 45  80 01 0C 2D 02 16 00 45  ...,...E...-...E
2CC0: 80 80 CC 2C 03 0D 00 BA  80 01 0C 2D 02 16 00 46  ...,.......-...F
2CD0: 80 80 DC 2C 03 0D 00 47  80 01 0C 2D 02 16 00 47  ...,...G...-...G
2CE0: 80 80 EC 2C 03 0D 00 51  80 01 0C 2D 02 16 00 52  ...,...Q...-...R
2CF0: 80 80 FC 2C 03 0D 00 BB  80 01 0C 2D 02 16 00 53  ...,.......-...S
2D00: 80 80 0C 2D 03 0D 00 BC  80 01 0C 2D 01 68 34 02  ...-.......-.h4.
2D10: 08 00 42 80 80 BA 2D 02  16 00 40 80 80 27 2D 03  ..B...-...@..'-.
2D20: 0D 00 40 80 01 B7 2D 02  16 00 41 80 80 37 2D 03  ..@...-...A..7-.
2D30: 0D 00 B2 80 01 B7 2D 02  16 00 42 80 80 47 2D 03  ......-...B..G-.
2D40: 0D 00 42 80 01 B7 2D 02  16 00 43 80 80 57 2D 03  ..B...-...C..W-.
2D50: 0D 00 53 80 01 B7 2D 02  16 00 44 80 80 67 2D 03  ..S...-...D..g-.
2D60: 0D 00 BD 80 01 B7 2D 02  16 00 45 80 80 77 2D 03  ......-...E..w-.
2D70: 0D 00 B9 80 01 B7 2D 02  16 00 46 80 80 87 2D 03  ......-...F...-.
2D80: 0D 00 58 80 01 B7 2D 02  16 00 47 80 80 97 2D 03  ..X...-...G...-.
2D90: 0D 00 BE 80 01 B7 2D 02  16 00 52 80 80 A7 2D 03  ......-...R...-.
2DA0: 0D 00 BF 80 01 B7 2D 02  16 00 53 80 80 B7 2D 03  ......-...S...-.
2DB0: 0D 00 C0 80 01 B7 2D 01  68 34 02 08 00 43 80 80  ......-.h4...C..
2DC0: 65 2E 02 16 00 40 80 80  D2 2D 03 0D 00 40 80 01  e....@...-...@..
2DD0: 62 2E 02 16 00 41 80 80  E2 2D 03 0D 00 45 80 01  b....A...-...E..
2DE0: 62 2E 02 16 00 42 80 80  F2 2D 03 0D 00 60 80 01  b....B...-...`..
2DF0: 62 2E 02 16 00 43 80 80  02 2E 03 0D 00 5F 80 01  b....C......._..
2E00: 62 2E 02 16 00 44 80 80  12 2E 03 0D 00 C1 80 01  b....D..........
2E10: 62 2E 02 16 00 45 80 80  22 2E 03 0D 00 BF 80 01  b....E..".......
2E20: 62 2E 02 16 00 46 80 80  32 2E 03 0D 00 C2 80 01  b....F..2.......
2E30: 62 2E 02 16 00 47 80 80  42 2E 03 0D 00 C3 80 01  b....G..B.......
2E40: 62 2E 02 16 00 52 80 80  52 2E 03 0D 00 C4 80 01  b....R..R.......
2E50: 62 2E 02 16 00 53 80 80  62 2E 03 0D 00 C5 80 01  b....S..b.......
2E60: 62 2E 01 68 34 02 08 00  44 80 80 10 2F 02 16 00  b..h4...D.../...
2E70: 40 80 80 7D 2E 03 0D 00  40 80 01 0D 2F 02 16 00  @..}....@.../...
2E80: 41 80 80 8D 2E 03 0D 00  8D 80 01 0D 2F 02 16 00  A.........../...
2E90: 42 80 80 9D 2E 03 0D 00  55 80 01 0D 2F 02 16 00  B.......U.../...
2EA0: 43 80 80 AD 2E 03 0D 00  C6 80 01 0D 2F 02 16 00  C.........../...
2EB0: 44 80 80 BD 2E 03 0D 00  C7 80 01 0D 2F 02 16 00  D.........../...
2EC0: 45 80 80 CD 2E 03 0D 00  59 80 01 0D 2F 02 16 00  E.......Y.../...
2ED0: 46 80 80 DD 2E 03 0D 00  C8 80 01 0D 2F 02 16 00  F.........../...
2EE0: 47 80 80 ED 2E 03 0D 00  45 80 01 0D 2F 02 16 00  G.......E.../...
2EF0: 52 80 80 FD 2E 03 0D 00  5D 80 01 0D 2F 02 16 00  R.......].../...
2F00: 53 80 80 0D 2F 03 0D 00  C9 80 01 0D 2F 01 68 34  S.../......./.h4
2F10: 02 08 00 45 80 80 BB 2F  02 16 00 40 80 80 28 2F  ...E.../...@..(/
2F20: 03 0D 00 40 80 01 B8 2F  02 16 00 41 80 80 38 2F  ...@.../...A..8/
2F30: 03 0D 00 57 80 01 B8 2F  02 16 00 42 80 80 48 2F  ...W.../...B..H/
2F40: 03 0D 00 B9 80 01 B8 2F  02 16 00 43 80 80 58 2F  ......./...C..X/
2F50: 03 0D 00 CA 80 01 B8 2F  02 16 00 44 80 80 68 2F  ......./...D..h/
2F60: 03 0D 00 56 80 01 B8 2F  02 16 00 45 80 80 78 2F  ...V.../...E..x/
2F70: 03 0D 00 58 80 01 B8 2F  02 16 00 46 80 80 88 2F  ...X.../...F.../
2F80: 03 0D 00 45 80 01 B8 2F  02 16 00 47 80 80 98 2F  ...E.../...G.../
2F90: 03 0D 00 04 80 01 B8 2F  02 16 00 52 80 80 A8 2F  ......./...R.../
2FA0: 03 0D 00 CB 80 01 B8 2F  02 16 00 53 80 80 B8 2F  ......./...S.../
2FB0: 03 0D 00 C5 80 01 B8 2F  01 68 34 02 08 00 46 80  ......./.h4...F.
2FC0: 80 66 30 02 16 00 40 80  80 D3 2F 03 0D 00 40 80  .f0...@.../...@.
2FD0: 01 63 30 02 16 00 41 80  80 E3 2F 03 0D 00 CC 80  .c0...A.../.....
2FE0: 01 63 30 02 16 00 42 80  80 F3 2F 03 0D 00 61 80  .c0...B.../...a.
2FF0: 01 63 30 02 16 00 43 80  80 03 30 03 0D 00 BD 80  .c0...C...0.....
3000: 01 63 30 02 16 00 44 80  80 13 30 03 0D 00 CD 80  .c0...D...0.....
3010: 01 63 30 02 16 00 45 80  80 23 30 03 0D 00 CA 80  .c0...E..#0.....
3020: 01 63 30 02 16 00 46 80  80 33 30 03 0D 00 CE 80  .c0...F..30.....
3030: 01 63 30 02 16 00 47 80  80 43 30 03 0D 00 55 80  .c0...G..C0...U.
3040: 01 63 30 02 16 00 52 80  80 53 30 03 0D 00 44 80  .c0...R..S0...D.
3050: 01 63 30 02 16 00 53 80  80 63 30 03 0D 00 C9 80  .c0...S..c0.....
3060: 01 63 30 01 68 34 02 08  00 47 80 80 11 31 02 16  .c0.h4...G...1..
3070: 00 40 80 80 7E 30 03 0D  00 40 80 01 0E 31 02 16  .@..~0...@...1..
3080: 00 41 80 80 8E 30 03 0D  00 CF 80 01 0E 31 02 16  .A...0.......1..
3090: 00 42 80 80 9E 30 03 0D  00 56 80 01 0E 31 02 16  .B...0...V...1..
30A0: 00 43 80 80 AE 30 03 0D  00 57 80 01 0E 31 02 16  .C...0...W...1..
30B0: 00 44 80 80 BE 30 03 0D  00 C6 80 01 0E 31 02 16  .D...0.......1..
30C0: 00 45 80 80 CE 30 03 0D  00 04 80 01 0E 31 02 16  .E...0.......1..
30D0: 00 46 80 80 DE 30 03 0D  00 B9 80 01 0E 31 02 16  .F...0.......1..
30E0: 00 47 80 80 EE 30 03 0D  00 61 80 01 0E 31 02 16  .G...0...a...1..
30F0: 00 52 80 80 FE 30 03 0D  00 D0 80 01 0E 31 02 16  .R...0.......1..
3100: 00 53 80 80 0E 31 03 0D  00 C5 80 01 0E 31 01 68  .S...1.......1.h
3110: 34 02 08 00 52 80 80 BC  31 02 16 00 40 80 80 29  4...R...1...@..)
3120: 31 03 0D 00 40 80 01 B9  31 02 16 00 41 80 80 39  1...@...1...A..9
3130: 31 03 0D 00 D1 80 01 B9  31 02 16 00 42 80 80 49  1.......1...B..I
3140: 31 03 0D 00 5A 80 01 B9  31 02 16 00 43 80 80 59  1...Z...1...C..Y
3150: 31 03 0D 00 55 80 01 B9  31 02 16 00 44 80 80 69  1...U...1...D..i
3160: 31 03 0D 00 B9 80 01 B9  31 02 16 00 45 80 80 79  1.......1...E..y
3170: 31 03 0D 00 57 80 01 B9  31 02 16 00 46 80 80 89  1...W...1...F...
3180: 31 03 0D 00 C6 80 01 B9  31 02 16 00 47 80 80 99  1.......1...G...
3190: 31 03 0D 00 47 80 01 B9  31 02 16 00 52 80 80 A9  1...G...1...R...
31A0: 31 03 0D 00 56 80 01 B9  31 02 16 00 53 80 80 B9  1...V...1...S...
31B0: 31 03 0D 00 C0 80 01 B9  31 01 68 34 02 08 00 53  1.......1.h4...S
31C0: 80 80 67 32 02 16 00 40  80 80 D4 31 03 0D 00 40  ..g2...@...1...@
31D0: 80 01 64 32 02 16 00 41  80 80 E4 31 03 0D 00 5A  ..d2...A...1...Z
31E0: 80 01 64 32 02 16 00 42  80 80 F4 31 03 0D 00 8D  ..d2...B...1....
31F0: 80 01 64 32 02 16 00 43  80 80 04 32 03 0D 00 C7  ..d2...C...2....
3200: 80 01 64 32 02 16 00 44  80 80 14 32 03 0D 00 55  ..d2...D...2...U
3210: 80 01 64 32 02 16 00 45  80 80 24 32 03 0D 00 C6  ..d2...E..$2....
3220: 80 01 64 32 02 16 00 46  80 80 34 32 03 0D 00 D2  ..d2...F..42....
3230: 80 01 64 32 02 16 00 47  80 80 44 32 03 0D 00 59  ..d2...G..D2...Y
3240: 80 01 64 32 02 16 00 52  80 80 54 32 03 0D 00 D3  ..d2...R..T2....
3250: 80 01 64 32 02 16 00 53  80 80 64 32 03 0D 00 C9  ..d2...S..d2....
3260: 80 01 64 32 01 68 34 02  08 00 54 80 80 12 33 02  ..d2.h4...T...3.
3270: 16 00 40 80 80 7F 32 03  0D 00 40 80 01 0F 33 02  ..@...2...@...3.
3280: 16 00 41 80 80 8F 32 03  0D 00 46 80 01 0F 33 02  ..A...2...F...3.
3290: 16 00 42 80 80 9F 32 03  0D 00 CC 80 01 0F 33 02  ..B...2.......3.
32A0: 16 00 43 80 80 AF 32 03  0D 00 C6 80 01 0F 33 02  ..C...2.......3.
32B0: 16 00 44 80 80 BF 32 03  0D 00 B9 80 01 0F 33 02  ..D...2.......3.
32C0: 16 00 45 80 80 CF 32 03  0D 00 44 80 01 0F 33 02  ..E...2...D...3.
32D0: 16 00 46 80 80 DF 32 03  0D 00 55 80 01 0F 33 02  ..F...2...U...3.
32E0: 16 00 47 80 80 EF 32 03  0D 00 CD 80 01 0F 33 02  ..G...2.......3.
32F0: 16 00 52 80 80 FF 32 03  0D 00 D4 80 01 0F 33 02  ..R...2.......3.
3300: 16 00 53 80 80 0F 33 03  0D 00 C0 80 01 0F 33 01  ..S...3.......3.
3310: 68 34 02 08 00 5C 80 80  BD 33 02 16 00 40 80 80  h4...\...3...@..
3320: 2A 33 03 0D 00 40 80 01  BA 33 02 16 00 41 80 80  *3...@...3...A..
3330: 3A 33 03 0D 00 B9 80 01  BA 33 02 16 00 42 80 80  :3.......3...B..
3340: 4A 33 03 0D 00 C7 80 01  BA 33 02 16 00 43 80 80  J3.......3...C..
3350: 5A 33 03 0D 00 45 80 01  BA 33 02 16 00 44 80 80  Z3...E...3...D..
3360: 6A 33 03 0D 00 C3 80 01  BA 33 02 16 00 45 80 80  j3.......3...E..
3370: 7A 33 03 0D 00 CA 80 01  BA 33 02 16 00 46 80 80  z3.......3...F..
3380: 8A 33 03 0D 00 D0 80 01  BA 33 02 16 00 47 80 80  .3.......3...G..
3390: 9A 33 03 0D 00 5F 80 01  BA 33 02 16 00 52 80 80  .3..._...3...R..
33A0: AA 33 03 0D 00 D5 80 01  BA 33 02 16 00 53 80 80  .3.......3...S..
33B0: BA 33 03 0D 00 BC 80 01  BA 33 01 68 34 02 08 00  .3.......3.h4...
33C0: 59 80 80 68 34 02 16 00  40 80 80 D5 33 03 0D 00  Y..h4...@...3...
33D0: 40 80 01 65 34 02 16 00  41 80 80 E5 33 03 0D 00  @..e4...A...3...
33E0: 5B 80 01 65 34 02 16 00  42 80 80 F5 33 03 0D 00  [..e4...B...3...
33F0: 59 80 01 65 34 02 16 00  43 80 80 05 34 03 0D 00  Y..e4...C...4...
3400: 60 80 01 65 34 02 16 00  44 80 80 15 34 03 0D 00  `..e4...D...4...
3410: 44 80 01 65 34 02 16 00  45 80 80 25 34 03 0D 00  D..e4...E..%4...
3420: C2 80 01 65 34 02 16 00  46 80 80 35 34 03 0D 00  ...e4...F..54...
3430: 5D 80 01 65 34 02 16 00  47 80 80 45 34 03 0D 00  ]..e4...G..E4...
3440: D6 80 01 65 34 02 16 00  52 80 80 55 34 03 0D 00  ...e4...R..U4...
3450: D7 80 01 65 34 02 16 00  53 80 80 65 34 03 0D 00  ...e4...S..e4...
3460: BC 80 01 65 34 01 68 34  1B 02 15 00 40 80 80 34  ...e4.h4....@..4
3470: 35 02 16 00 40 80 80 81  34 03 0E 00 8D 80 01 31  5...@...4......1
3480: 35 02 16 00 41 80 80 91  34 03 0E 00 42 80 01 31  5...A...4...B..1
3490: 35 02 16 00 42 80 80 A1  34 03 0E 00 BA 80 01 31  5...B...4......1
34A0: 35 02 16 00 43 80 80 B1  34 03 0E 00 D8 80 01 31  5...C...4......1
34B0: 35 02 16 00 44 80 80 C1  34 03 0E 00 C1 80 01 31  5...D...4......1
34C0: 35 02 16 00 45 80 80 D1  34 03 0E 00 7D 80 01 31  5...E...4...}..1
34D0: 35 02 16 00 46 80 80 E1  34 03 0E 00 53 80 01 31  5...F...4...S..1
34E0: 35 02 16 00 47 80 80 F1  34 03 0E 00 BF 80 01 31  5...G...4......1
34F0: 35 02 16 00 52 80 80 01  35 03 0E 00 C4 80 01 31  5...R...5......1
3500: 35 02 16 00 53 80 80 11  35 03 0E 00 D7 80 01 31  5...S...5......1
3510: 35 02 16 00 54 80 80 21  35 03 0E 00 D9 80 01 31  5...T..!5......1
3520: 35 02 16 00 5C 80 80 31  35 03 0E 00 D6 80 01 31  5...\..15......1
3530: 35 01 95 37 02 15 00 41  80 80 FF 35 02 16 00 40  5..7...A...5...@
3540: 80 80 4C 35 03 0E 00 46  80 01 FC 35 02 16 00 41  ..L5...F...5...A
3550: 80 80 5C 35 03 0E 00 45  80 01 FC 35 02 16 00 42  ..\5...E...5...B
3560: 80 80 6C 35 03 0E 00 B8  80 01 FC 35 02 16 00 43  ..l5.......5...C
3570: 80 80 7C 35 03 0E 00 B2  80 01 FC 35 02 16 00 44  ..|5.......5...D
3580: 80 80 8C 35 03 0E 00 C7  80 01 FC 35 02 16 00 45  ...5.......5...E
3590: 80 80 9C 35 03 0E 00 59  80 01 FC 35 02 16 00 46  ...5...Y...5...F
35A0: 80 80 AC 35 03 0E 00 47  80 01 FC 35 02 16 00 47  ...5...G...5...G
35B0: 80 80 BC 35 03 0E 00 44  80 01 FC 35 02 16 00 52  ...5...D...5...R
35C0: 80 80 CC 35 03 0E 00 04  80 01 FC 35 02 16 00 53  ...5.......5...S
35D0: 80 80 DC 35 03 0E 00 5F  80 01 FC 35 02 16 00 54  ...5..._...5...T
35E0: 80 80 EC 35 03 0E 00 C3  80 01 FC 35 02 16 00 5C  ...5.......5...\
35F0: 80 80 FC 35 03 0E 00 D5  80 01 FC 35 01 95 37 02  ...5.......5..7.
3600: 15 00 42 80 80 CA 36 02  16 00 40 80 80 17 36 03  ..B...6...@...6.
3610: 0E 00 61 80 01 C7 36 02  16 00 41 80 80 27 36 03  ..a...6...A..'6.
3620: 0E 00 B9 80 01 C7 36 02  16 00 42 80 80 37 36 03  ......6...B..76.
3630: 0E 00 CF 80 01 C7 36 02  16 00 43 80 80 47 36 03  ......6...C..G6.
3640: 0E 00 58 80 01 C7 36 02  16 00 44 80 80 57 36 03  ..X...6...D..W6.
3650: 0E 00 55 80 01 C7 36 02  16 00 45 80 80 67 36 03  ..U...6...E..g6.
3660: 0E 00 50 80 01 C7 36 02  16 00 46 80 80 77 36 03  ..P...6...F..w6.
3670: 0E 00 56 80 01 C7 36 02  16 00 47 80 80 87 36 03  ..V...6...G...6.
3680: 0E 00 DA 80 01 C7 36 02  16 00 52 80 80 97 36 03  ......6...R...6.
3690: 0E 00 BB 80 01 C7 36 02  16 00 53 80 80 A7 36 03  ......6...S...6.
36A0: 0E 00 CB 80 01 C7 36 02  16 00 54 80 80 B7 36 03  ......6...T...6.
36B0: 0E 00 D3 80 01 C7 36 02  16 00 5C 80 80 C7 36 03  ......6...\...6.
36C0: 0E 00 82 80 01 C7 36 01  95 37 02 15 00 43 80 80  ......6..7...C..
36D0: 95 37 02 16 00 40 80 80  E2 36 03 0E 00 52 80 01  .7...@...6...R..
36E0: 92 37 02 16 00 41 80 80  F2 36 03 0E 00 DB 80 01  .7...A...6......
36F0: 92 37 02 16 00 42 80 80  02 37 03 0E 00 5A 80 01  .7...B...7...Z..
3700: 92 37 02 16 00 43 80 80  12 37 03 0E 00 5E 80 01  .7...C...7...^..
3710: 92 37 02 16 00 44 80 80  22 37 03 0E 00 DC 80 01  .7...D.."7......
3720: 92 37 02 16 00 45 80 80  32 37 03 0E 00 D1 80 01  .7...E..27......
3730: 92 37 02 16 00 46 80 80  42 37 03 0E 00 DD 80 01  .7...F..B7......
3740: 92 37 02 16 00 47 80 80  52 37 03 0E 00 CD 80 01  .7...G..R7......
3750: 92 37 02 16 00 52 80 80  62 37 03 0E 00 D2 80 01  .7...R..b7......
3760: 92 37 02 16 00 53 80 80  72 37 03 0E 00 C8 80 01  .7...S..r7......
3770: 92 37 02 16 00 54 80 80  82 37 03 0E 00 D4 80 01  .7...T...7......
3780: 92 37 02 16 00 5C 80 80  92 37 03 0E 00 DE 80 01  .7...\...7......
3790: 92 37 01 95 37 1B 02 15  00 40 80 80 61 38 02 16  .7..7....@..a8..
37A0: 00 40 80 80 AE 37 03 0F  00 8D 80 01 5E 38 02 16  .@...7......^8..
37B0: 00 41 80 80 BE 37 03 0F  00 42 80 01 5E 38 02 16  .A...7...B..^8..
37C0: 00 42 80 80 CE 37 03 0F  00 BA 80 01 5E 38 02 16  .B...7......^8..
37D0: 00 43 80 80 DE 37 03 0F  00 D8 80 01 5E 38 02 16  .C...7......^8..
37E0: 00 44 80 80 EE 37 03 0F  00 C1 80 01 5E 38 02 16  .D...7......^8..
37F0: 00 45 80 80 FE 37 03 0F  00 7D 80 01 5E 38 02 16  .E...7...}..^8..
3800: 00 46 80 80 0E 38 03 0F  00 53 80 01 5E 38 02 16  .F...8...S..^8..
3810: 00 47 80 80 1E 38 03 0F  00 BF 80 01 5E 38 02 16  .G...8......^8..
3820: 00 52 80 80 2E 38 03 0F  00 C4 80 01 5E 38 02 16  .R...8......^8..
3830: 00 53 80 80 3E 38 03 0F  00 D7 80 01 5E 38 02 16  .S..>8......^8..
3840: 00 54 80 80 4E 38 03 0F  00 D9 80 01 5E 38 02 16  .T..N8......^8..
3850: 00 5C 80 80 5E 38 03 0F  00 D6 80 01 5E 38 01 C2  .\..^8......^8..
3860: 3A 02 15 00 41 80 80 2C  39 02 16 00 40 80 80 79  :...A..,9...@..y
3870: 38 03 0F 00 46 80 01 29  39 02 16 00 41 80 80 89  8...F..)9...A...
3880: 38 03 0F 00 45 80 01 29  39 02 16 00 42 80 80 99  8...E..)9...B...
3890: 38 03 0F 00 B8 80 01 29  39 02 16 00 43 80 80 A9  8......)9...C...
38A0: 38 03 0F 00 B2 80 01 29  39 02 16 00 44 80 80 B9  8......)9...D...
38B0: 38 03 0F 00 C7 80 01 29  39 02 16 00 45 80 80 C9  8......)9...E...
38C0: 38 03 0F 00 59 80 01 29  39 02 16 00 46 80 80 D9  8...Y..)9...F...
38D0: 38 03 0F 00 47 80 01 29  39 02 16 00 47 80 80 E9  8...G..)9...G...
38E0: 38 03 0F 00 44 80 01 29  39 02 16 00 52 80 80 F9  8...D..)9...R...
38F0: 38 03 0F 00 04 80 01 29  39 02 16 00 53 80 80 09  8......)9...S...
3900: 39 03 0F 00 5F 80 01 29  39 02 16 00 54 80 80 19  9..._..)9...T...
3910: 39 03 0F 00 C3 80 01 29  39 02 16 00 5C 80 80 29  9......)9...\..)
3920: 39 03 0F 00 D5 80 01 29  39 01 C2 3A 02 15 00 42  9......)9..:...B
3930: 80 80 F7 39 02 16 00 40  80 80 44 39 03 0F 00 61  ...9...@..D9...a
3940: 80 01 F4 39 02 16 00 41  80 80 54 39 03 0F 00 B9  ...9...A..T9....
3950: 80 01 F4 39 02 16 00 42  80 80 64 39 03 0F 00 CF  ...9...B..d9....
3960: 80 01 F4 39 02 16 00 43  80 80 74 39 03 0F 00 58  ...9...C..t9...X
3970: 80 01 F4 39 02 16 00 44  80 80 84 39 03 0F 00 55  ...9...D...9...U
3980: 80 01 F4 39 02 16 00 45  80 80 94 39 03 0F 00 57  ...9...E...9...W
3990: 80 01 F4 39 02 16 00 46  80 80 A4 39 03 0F 00 56  ...9...F...9...V
39A0: 80 01 F4 39 02 16 00 47  80 80 B4 39 03 0F 00 5C  ...9...G...9...\
39B0: 80 01 F4 39 02 16 00 52  80 80 C4 39 03 0F 00 BB  ...9...R...9....
39C0: 80 01 F4 39 02 16 00 53  80 80 D4 39 03 0F 00 CB  ...9...S...9....
39D0: 80 01 F4 39 02 16 00 54  80 80 E4 39 03 0F 00 D3  ...9...T...9....
39E0: 80 01 F4 39 02 16 00 5C  80 80 F4 39 03 0F 00 82  ...9...\...9....
39F0: 80 01 F4 39 01 C2 3A 02  15 00 43 80 80 C2 3A 02  ...9..:...C...:.
3A00: 16 00 40 80 80 0F 3A 03  0F 00 52 80 01 BF 3A 02  ..@...:...R...:.
3A10: 16 00 41 80 80 1F 3A 03  0F 00 DF 80 01 BF 3A 02  ..A...:.......:.
3A20: 16 00 42 80 80 2F 3A 03  0F 00 40 80 01 BF 3A 02  ..B../:...@...:.
3A30: 16 00 43 80 80 3F 3A 03  0F 00 5E 80 01 BF 3A 02  ..C..?:...^...:.
3A40: 16 00 44 80 80 4F 3A 03  0F 00 DB 80 01 BF 3A 02  ..D..O:.......:.
3A50: 16 00 45 80 80 5F 3A 03  0F 00 E0 80 01 BF 3A 02  ..E.._:.......:.
3A60: 16 00 46 80 80 6F 3A 03  0F 00 5D 80 01 BF 3A 02  ..F..o:...]...:.
3A70: 16 00 47 80 80 7F 3A 03  0F 00 CD 80 01 BF 3A 02  ..G...:.......:.
3A80: 16 00 52 80 80 8F 3A 03  0F 00 43 80 01 BF 3A 02  ..R...:...C...:.
3A90: 16 00 53 80 80 9F 3A 03  0F 00 5A 80 01 BF 3A 02  ..S...:...Z...:.
3AA0: 16 00 54 80 80 AF 3A 03  0F 00 D4 80 01 BF 3A 02  ..T...:.......:.
3AB0: 16 00 5C 80 80 BF 3A 03  0F 00 DE 80 01 BF 3A 01  ..\...:.......:.
3AC0: C2 3A 1B 02 15 00 40 80  80 8E 3B 02 16 00 40 80  .:....@...;...@.
3AD0: 80 DB 3A 03 10 00 8D 80  01 8B 3B 02 16 00 41 80  ..:.......;...A.
3AE0: 80 EB 3A 03 10 00 42 80  01 8B 3B 02 16 00 42 80  ..:...B...;...B.
3AF0: 80 FB 3A 03 10 00 BA 80  01 8B 3B 02 16 00 43 80  ..:.......;...C.
