# 17752109 - Ohbiru-Dohbiru

## Common Data

| Field            | Value                     |
|------------------|---------------------------|
| Zone             | Windurst Waters (ID: 238) |
| Block Size       | 5384 bytes                |
| Total Events     | 77                        |
| References Count | 127                       |

## List of Events

| Event ID                   | Entrypoint   |   Size |   Instructions |
|----------------------------|--------------|--------|----------------|
| [65535](#event-65535)      | 0x0000       |      1 |              1 |
| [65535.1](#event-655351)   | 0x0001       |     16 |              2 |
| [65535.2](#event-655352)   | 0x0011       |     22 |              4 |
| [65535.3](#event-655353)   | 0x0027       |     16 |              2 |
| [65535.4](#event-655354)   | 0x0037       |     14 |              2 |
| [65535.5](#event-655355)   | 0x0045       |     16 |              2 |
| [65535.6](#event-655356)   | 0x0055       |     14 |              2 |
| [65535.7](#event-655357)   | 0x0063       |     16 |              2 |
| [65535.8](#event-655358)   | 0x0073       |     14 |              2 |
| [65535.9](#event-655359)   | 0x0081       |     16 |              2 |
| [65535.10](#event-6553510) | 0x0091       |     14 |              2 |
| [65535.11](#event-6553511) | 0x009F       |     16 |              2 |
| [65535.12](#event-6553512) | 0x00AF       |     14 |              2 |
| [65535.13](#event-6553513) | 0x00BD       |     16 |              2 |
| [65535.14](#event-6553514) | 0x00CD       |     14 |              2 |
| [65535.15](#event-6553515) | 0x00DB       |     16 |              2 |
| [65535.16](#event-6553516) | 0x00EB       |     14 |              2 |
| [65535.17](#event-6553517) | 0x00F9       |      9 |              3 |
| [301](#event-301)          | 0x0102       |     37 |             14 |
| [143](#event-143)          | 0x0127       |     33 |             12 |
| [144](#event-144)          | 0x0148       |     33 |             12 |
| [308](#event-308)          | 0x0169       |     32 |              9 |
| [65535.18](#event-6553518) | 0x0189       |     19 |              5 |
| [65535.19](#event-6553519) | 0x019C       |     23 |              7 |
| [309](#event-309)          | 0x01B3       |     33 |             12 |
| [65535.20](#event-6553520) | 0x01D4       |     33 |             12 |
| [316](#event-316)          | 0x01F5       |     37 |             14 |
| [317](#event-317)          | 0x021A       |     33 |             12 |
| [322](#event-322)          | 0x023B       |     64 |             17 |
| [323](#event-323)          | 0x027B       |     33 |             12 |
| [324](#event-324)          | 0x029C       |     33 |             12 |
| [325](#event-325)          | 0x02BD       |     68 |             19 |
| [326](#event-326)          | 0x0301       |     37 |             14 |
| [344](#event-344)          | 0x0326       |     33 |             12 |
| [351](#event-351)          | 0x0347       |     33 |             12 |
| [352](#event-352)          | 0x0368       |     79 |             18 |
| [65535.21](#event-6553521) | 0x03B7       |     23 |              7 |
| [65535.22](#event-6553522) | 0x03CE       |     37 |              9 |
| [65535.23](#event-6553523) | 0x03F3       |     19 |              5 |
| [65535.24](#event-6553524) | 0x0406       |     19 |              5 |
| [353](#event-353)          | 0x0419       |     33 |             12 |
| [354](#event-354)          | 0x043A       |     29 |             10 |
| [355](#event-355)          | 0x0457       |     41 |             11 |
| [65535.25](#event-6553525) | 0x0480       |     41 |             11 |
| [356](#event-356)          | 0x04A9       |     33 |             12 |
| [516](#event-516)          | 0x04CA       |    978 |            189 |
| [65535.26](#event-6553526) | 0x089C       |     19 |              5 |
| [65535.27](#event-6553527) | 0x08AF       |     19 |              5 |
| [65535.28](#event-6553528) | 0x08C2       |     19 |              5 |
| [65535.29](#event-6553529) | 0x08D5       |     19 |              5 |
| [65535.30](#event-6553530) | 0x08E8       |      5 |              3 |
| [65535.31](#event-6553531) | 0x08ED       |     37 |              9 |
| [65535.32](#event-6553532) | 0x0912       |     19 |              5 |
| [65535.33](#event-6553533) | 0x0925       |     19 |              5 |
| [517](#event-517)          | 0x0938       |     29 |             10 |
| [518](#event-518)          | 0x0955       |     29 |             10 |
| [741](#event-741)          | 0x0972       |     47 |             14 |
| [746](#event-746)          | 0x09A1       |     33 |             12 |
| [65535.34](#event-6553534) | 0x09C2       |     10 |              2 |
| [785](#event-785)          | 0x09CC       |   1652 |            214 |
| [65535.35](#event-6553535) | 0x1040       |      1 |              1 |
| [65535.36](#event-6553536) | 0x1041       |      1 |              1 |
| [65535.37](#event-6553537) | 0x1042       |      1 |              1 |
| [65535.38](#event-6553538) | 0x1043       |      1 |              1 |
| [786](#event-786)          | 0x1044       |     33 |             12 |
| [787](#event-787)          | 0x1065       |     87 |             20 |
| [65535.39](#event-6553539) | 0x10BC       |      5 |              3 |
| [791](#event-791)          | 0x10C1       |    113 |             18 |
| [65535.40](#event-6553540) | 0x1132       |      5 |              3 |
| [65535.41](#event-6553541) | 0x1137       |      5 |              3 |
| [65535.42](#event-6553542) | 0x113C       |      5 |              3 |
| [795](#event-795)          | 0x1141       |     80 |             19 |
| [65535.43](#event-6553543) | 0x1191       |      5 |              3 |
| [65535.44](#event-6553544) | 0x1196       |      5 |              3 |
| [872](#event-872)          | 0x119B       |      1 |              1 |
| [65535.45](#event-6553545) | 0x119C       |     10 |              2 |
| [877](#event-877)          | 0x11A6       |     33 |             12 |

## DAT References (imed_data)

|   Index | Hex Value   |   Dec Value |
|---------|-------------|-------------|
|       0 | 0x0028      |          40 |
|       1 | 0x001E      |          30 |
|       2 | 0x0029      |          41 |
|       3 | 0x1F51      |        8017 |
|       4 | 0x1F52      |        8018 |
|       5 | 0x1F53      |        8019 |
|       6 | 0x1DBA      |        7610 |
|       7 | 0x1DBB      |        7611 |
|       8 | 0x1DBC      |        7612 |
|       9 | 0x1DBD      |        7613 |
|      10 | 0x1F60      |        8032 |
|      11 | 0x1F61      |        8033 |
|      12 | 0x1F62      |        8034 |
|      13 | 0x1F63      |        8035 |
|      14 | 0x1F64      |        8036 |
|      15 | 0x1F76      |        8054 |
|      16 | 0x1F77      |        8055 |
|      17 | 0x1F78      |        8056 |
|      18 | 0x1F79      |        8057 |
|      19 | 0x1F7A      |        8058 |
|      20 | 0x1F80      |        8064 |
|      21 | 0x1F81      |        8065 |
|      22 | 0x0001      |           1 |
|      23 | 0x00C9      |         201 |
|      24 | 0x0000      |           0 |
|      25 | 0x1998      |        6552 |
|      26 | 0x1F82      |        8066 |
|      27 | 0x1F83      |        8067 |
|      28 | 0x1F84      |        8068 |
|      29 | 0x1F85      |        8069 |
|      30 | 0x1F86      |        8070 |
|      31 | 0x1F87      |        8071 |
|      32 | 0x1F88      |        8072 |
|      33 | 0x1F89      |        8073 |
|      34 | 0x1F8A      |        8074 |
|      35 | 0x1F8B      |        8075 |
|      36 | 0x1FA9      |        8105 |
|      37 | 0x1FAA      |        8106 |
|      38 | 0x1FB7      |        8119 |
|      39 | 0x1FB8      |        8120 |
|      40 | 0x1FBD      |        8125 |
|      41 | 0x1FB9      |        8121 |
|      42 | 0x1FBA      |        8122 |
|      43 | 0x1FBB      |        8123 |
|      44 | 0x1FBC      |        8124 |
|      45 | 0x1FBE      |        8126 |
|      46 | 0x1FBF      |        8127 |
|      47 | 0x1FC0      |        8128 |
|      48 | 0x1FC1      |        8129 |
|      49 | 0x1FC2      |        8130 |
|      50 | 0x1FC3      |        8131 |
|      51 | 0x1FC4      |        8132 |
|      52 | 0x1FC5      |        8133 |
|      53 | 0x1FC6      |        8134 |
|      54 | 0x1FC7      |        8135 |
|      55 | 0x2168      |        8552 |
|      56 | 0x0002      |           2 |
|      57 | 0x2169      |        8553 |
|      58 | 0x216A      |        8554 |
|      59 | 0x0003      |           3 |
|      60 | 0x0004      |           4 |
|      61 | 0x0005      |           5 |
|      62 | 0x0007      |           7 |
|      63 | 0x03B4      |         948 |
|      64 | 0x012C      |         300 |
|      65 | 0x03AD      |         941 |
|      66 | 0x00C8      |         200 |
|      67 | 0x03B5      |         949 |
|      68 | 0x00FA      |         250 |
|      69 | 0x03BC      |         956 |
|      70 | 0x0096      |         150 |
|      71 | 0x03BD      |         957 |
|      72 | 0x03BE      |         958 |
|      73 | 0x0064      |         100 |
|      74 | 0x0006      |           6 |
|      75 | 0x03BF      |         959 |
|      76 | 0x2167      |        8551 |
|      77 | 0x216B      |        8555 |
|      78 | 0x216C      |        8556 |
|      79 | 0x216D      |        8557 |
|      80 | 0x216E      |        8558 |
|      81 | 0x2170      |        8560 |
|      82 | 0x2171      |        8561 |
|      83 | 0x2172      |        8562 |
|      84 | 0x2174      |        8564 |
|      85 | 0x2175      |        8565 |
|      86 | 0x2176      |        8566 |
|      87 | 0x260B      |        9739 |
|      88 | 0x260C      |        9740 |
|      89 | 0x261D      |        9757 |
|      90 | 0x261E      |        9758 |
|      91 | 0x3F30      |       16176 |
|      92 | 0xFFFCFFAF  |  4294770607 |
|      93 | 0xFFFFEF66  |  4294963046 |
|      94 | 0x0800      |        2048 |
|      95 | 0x0078      |         120 |
|      96 | 0x018D      |         397 |
|      97 | 0x007F      |         127 |
|      98 | 0x00F8      |         248 |
|      99 | 0x2695      |        9877 |
|     100 | 0x2698      |        9880 |
|     101 | 0x2699      |        9881 |
|     102 | 0x269D      |        9885 |
|     103 | 0x269E      |        9886 |
|     104 | 0x26A0      |        9888 |
|     105 | 0x0008      |           8 |
|     106 | 0x26A5      |        9893 |
|     107 | 0x26A7      |        9895 |
|     108 | 0x26A9      |        9897 |
|     109 | 0x26AA      |        9898 |
|     110 | 0x26A8      |        9896 |
|     111 | 0x0097      |         151 |
|     112 | 0x26AB      |        9899 |
|     113 | 0x26AC      |        9900 |
|     114 | 0x26AD      |        9901 |
|     115 | 0x26B6      |        9910 |
|     116 | 0x26B7      |        9911 |
|     117 | 0x26B8      |        9912 |
|     118 | 0x26C2      |        9922 |
|     119 | 0x26C1      |        9921 |
|     120 | 0x26C3      |        9923 |
|     121 | 0x5A9A      |       23194 |
|     122 | 0xFFFD0A49  |  4294773321 |
|     123 | 0xFFFFEB7E  |  4294962046 |
|     124 | 0x0AB1      |        2737 |
|     125 | 0x28EE      |       10478 |
|     126 | 0x28ED      |       10477 |

## String References

- **6552**: Obtained $0 gil.
- **7610**: You're the adventurer who accepted our mission for today? Leepe-Hoppe has prepared the food offerings for you to take to Giddeus. He's waiting on the rooftop orchard right above us.
- **7611**: To get to the roof, go outside and take the stairs on the side of the building.
- **7612**: At first there was just one altar for offerings in Giddeus. So we only needed to take one bag of food.
- **7613**: Then one day, those sneaky Yagudo decided to build another altar. They are so greedy.
- **8017**: This is the Rhinostery. We run a biological laboratory that uses magic to study all kinds of living things here.
- **8018**: Some people mistakenly think we're just a botanical garden, but we study fauna as well as flora.
- **8019**: It's just that we can't keep a zooful of animals here in the middle of town, right? So the staff here who specialize in zoology have to study out of town. That's why our minister, Rukususu, is out journeying right now.
- **8032**: Uh, excuse my tummy-grumbles. I'm utterly famished.
- **8033**: But now is the critical point that will decide whether this project is a success or a total failure.
- **8034**: I can't take my eyes off my work, so I can't move right now. Why, I can't even afford to sleep!
- **8035**: Oooh... But I'm so hungry! I feel like I'm starving to death...
- **8036**: Aagh! Nothing's left from the food I prepared in advance.
- **8054**: You volunteered to go buy us some food? Why, that's most kind of you! What a godsend!
- **8055**: Well, as for me... I'll have $1 and $2...
- **8056**: Oh, and I'll have a side order of $3 with that. Did you get all that?
- **8057**: I'll have the $1 with $2 and a side order of $3 to go, thank you.
- **8058**: While I'm waiting for you, I'll sink my last remaining energy into continuing this project.
- **8064**: Hey! These look good! I'm glad I managed to keep waiting!
- **8065**: Thanks... Take this for your troubles...
- **8066**: What's this?
- **8067**: Humph. I guess this is what they mean when they say "Close is my shirt, but closer is my skin." This'll have to do, then. So I'll take it.
- **8068**: Of course, you're going to get Kenapa-Keppa and Kerutoto's orders as well, aren't you?
- **8069**: Just hand each of them their orders directly. I'm sure they don't want to wait any more than they have to.
- **8070**: Whoa! That's a surprise. How did you know what I wanted to eat?
- **8071**: Well, I'm not complaining, just surprised. But seeing as you're giving it to me without my asking, I assume I don't have to pay, right?
- **8072**: A-ha-ha... Just kidding. Relax. I was really intending to pay.
- **8073**: Whoa! That's a surprise. What's this all of a sudden? Is it okay for me to have this?
- **8074**: But seeing as you're giving it to me without my asking, I assume I don't have to pay, right?
- **8075**: A-ha-ha... Just kidding. Relax. I was really intending to pay.
- **8105**: Sometimes I spend all night trying to have a decent conversation with Kenapa-Keppa.
- **8106**: I guess unless you have a personality like his, you wouldn't be able to spend years studying plants that don't talk.
- **8119**: I was wondering what he was asking you to do. Now I see it was bringing him the cargo shipped in via Mhaura.
- **8120**: I hope you kept to the time limit. Those things are extremely hard to handle.
- **8121**: You've seen the flowers all over Windurst that serve as streetlights, right?
- **8122**: Those flowers are called fluoro-flora. We cast magic on their seeds to enhance their illumination.
- **8123**: But the $1 needed to carry out our enhancing work is running in short supply.
- **8124**: Could I dare ask you to obtain $1 for us? I must warn you, it involves going to some dangerous territory!
- **8125**: Go fetch some water? [Yes./No.]
- **8126**: Thank you. Please fill this canteen full of water from the springs at the back of Giddeus.
- **8127**: The depths of Giddeus are indeed dangerous, so I don't blame you for backing out.
- **8128**: Parts of Giddeus can get confusing, so I recommend you check a map as you go.
- **8129**: Ah, it would be unthinkable to try to go there alone. You should gather a few competent adventurer friends so you can travel together. But don't worry. Your remuneration will be most handsome.
- **8130**: What? You lost my canteen? Here, take another. But be more careful with people's things, okay?
- **8131**: Oh! Well done!
- **8132**: Right on time, too. I was down to my last drop.
- **8133**: Here's your remuneration. Please help us out again the next time our supply dwindles.
- **8134**: Currently, we can only obtain $1 from the springs at the back of Giddeus. However, the magic of that water has weakened considerably.
- **8135**: We used to be able to find stronger magic water in another place, but that was before the war...
- **8551**: You want a flower? What kind do you want?
- **8552**: Firstly-wirstly...? [The brightest.../The fragrentest.../The rarest...]
- **8553**: Secondly-wecondly... [The mysticalest.../The cheeriest.../The beautifulest...]
- **8554**: And, thirdly-wirdly... [The remarkablest flower./The elegantest flower./The popularest flower.]
- **8555**: Well then, that'll be $1. Here, it's $5 gil, please.
- **8556**: Alright, $2 it is then. Here, that'll be $6 gil, please.
- **8557**: So, you'll be wanting $3, then. Here, that's $7 gil, thank you.
- **8558**: Sorry, but we don't have that sort of flower in stock right now.
- **8560**: Hmm... The flower you talk of does exist, but...
- **8561**: I think Kerutoto is using the last one we have in some kind of experiment. She's in the meditation chamber next door.
- **8562**: Hey, Kenapa-Keppa! Where do you actually get $4 from?
- **8564**: Guess you should go ask Kenapa-Keppa where you can get them, so you can go get your own $4. It's probably somewhere dangerous, but hey, at least you'll be getting it for free.
- **8565**: You should go ask Kenapa-Keppa where you can pick your own $4. It's probably somewhere pathetically dangerous, but at least you'll be getting one for free.
- **8566**: Thank you and ta-ta\`ru!
- **9739**: When the chance to join the Multinational Expedition came to the Rhinostery, no one was particularly eager to sign up. The Northlands is a dreadful-wedful place.
- **9740**: Only Iru-Kuiru had the courage to put his hand up and volunteer. I wish that I could be as brave as Iru-Kuiru.
- **9757**: Was Iru-Kuiru living somewhere on the southern continent?
- **9758**: ...... Oh, so the curse did kill him. I guess that's why the minister went back to the Northlands. Even your memories become frozen up there...
- **9877**: This is awful! Whatever is the Rhinostery to do...?
- **9881**: Leepe-Hoppe, where have you been? There's globby-wobs of miteslime all over the Priming Gate. The other side of the gate must be teeming with them.
- **9885**: Exactly-wactly! With the magic disappearing from the water around here, Toraimarai Canal has stagnated.
- **9886**: But the real question is: Why on Vana'diel has the magic evaporated?
- **9893**: You're rightaru, this is an emergency. If this adventurer is up to it, let's give [him/her] Rhinostery authorization.
- **9895**: Work for the Rhinostery? [You called for an exterminator?/Ewww, bugs!]
- **9896**: ...... There are other adventurers who have worked for us in the past. We can try asking them, I suppose.
- **9897**: Greataru! Please use this $3. If you show it to the Cardian at the Priming Gate and explain the emergency, it should let you in.
- **9898**: Collect three $2 from the starmites you squash, and we'll pay you $0 gil.
- **9899**: That $3 is proof that you are working for the Rhinostery. Show it to the Cardian on guard, and it will open the Priming Gate for you.
- **9900**: Enter Toraimarai Canal and squish those starmites. Gather three $2 from the bugs you bash, and we'll pay you $0 gil.
- **9901**: Our offer to you still stands. Will you work under Rhinostery authorization? You've always helped us before, rightaru?
- **9910**: One, two, three...
- **9911**: Thank you! You squishy-squished a lot of those starmites.
- **9912**: Here's your reward... If possible, I'd like you to help us out again.
- **9921**: Are you willing to head back into Toraimarai Canal? I'll pay you $0 gil for every three $2.
- **9922**: Continue exterminating? [I live to bash bugs!/I'm a little busy...]
- **9923**: Ahaha! That's what I like to hear from our Rhinostery adventurers. We're counting on you!
- **10477**: I'm not sure he'll be willing to tell you what Iru-Kuiru was researching, mind you. It's probably super-duper-confidential information.
- **10478**: If you want to know more about Iru-Kuiru, you should have a chitchat with Doctor Yoran-Oran in Windurst Walls.

## Events

### Event 65535

#### Metadata

| Field        | Value   |
|--------------|---------|
| Entrypoint   | 0x0000  |
| Data Size    | 1 bytes |
| Instructions | 1       |

```
      00 01 02 03 04 05 06 07  08 09 0A 0B 0C 0D 0E 0F
      -- -- -- -- -- -- -- --  -- -- -- -- -- -- -- --
0000: 00                                                .               
```

#### Opcodes

```
  0: 0x0000 [0x00] END_REQSTACK()
```

### Event 65535.1

#### Metadata

| Field        | Value    |
|--------------|----------|
| Entrypoint   | 0x0001   |
| Data Size    | 16 bytes |
| Instructions | 2        |

```
      00 01 02 03 04 05 06 07  08 09 0A 0B 0C 0D 0E 0F
      -- -- -- -- -- -- -- --  -- -- -- -- -- -- -- --
0000:    66 00 80 F8 FF FF 7F  F8 FF FF 7F 74 6C 6B 30   f..........tlk0
0010: 00                                                .               
```

#### Opcodes

```
  0: 0x0001 [0x66] LOAD_EXT_SCHEDULER_MAIN: Load scheduler "tlk0" with entities [EventEntity, EventEntity], work=40*
  1: 0x0010 [0x00] END_REQSTACK()
```

### Event 65535.2

#### Metadata

| Field        | Value    |
|--------------|----------|
| Entrypoint   | 0x0011   |
| Data Size    | 22 bytes |
| Instructions | 4        |

```
      00 01 02 03 04 05 06 07  08 09 0A 0B 0C 0D 0E 0F
      -- -- -- -- -- -- -- --  -- -- -- -- -- -- -- --
0010:    53 F8 FF FF 7F F8 FF  FF 7F 74 6C 6B 30 5E 69   S........tlk0^i
0020: 64 6C 30 1C 01 80 00                              dl0....         
```

#### Opcodes

```
  0: 0x0011 [0x53] WAIT_SCHEDULER_TASK: Wait for scheduler "tlk0" with entities [EventEntity, EventEntity]
  1: 0x001E [0x5E] EventEntity goes idle (kills current action) (animation: "idl0")
  2: 0x0023 [0x1C] WAIT(30* ticks)
  3: 0x0026 [0x00] END_REQSTACK()
```

### Event 65535.3

#### Metadata

| Field        | Value    |
|--------------|----------|
| Entrypoint   | 0x0027   |
| Data Size    | 16 bytes |
| Instructions | 2        |

```
      00 01 02 03 04 05 06 07  08 09 0A 0B 0C 0D 0E 0F
      -- -- -- -- -- -- -- --  -- -- -- -- -- -- -- --
0020:                      66  00 80 F8 FF FF 7F F8 FF         f........
0030: FF 7F 74 68 6B 31 00                              ..thk1.         
```

#### Opcodes

```
  0: 0x0027 [0x66] LOAD_EXT_SCHEDULER_MAIN: Load scheduler "thk1" with entities [EventEntity, EventEntity], work=40*
  1: 0x0036 [0x00] END_REQSTACK()
```

### Event 65535.4

#### Metadata

| Field        | Value    |
|--------------|----------|
| Entrypoint   | 0x0037   |
| Data Size    | 14 bytes |
| Instructions | 2        |

```
      00 01 02 03 04 05 06 07  08 09 0A 0B 0C 0D 0E 0F
      -- -- -- -- -- -- -- --  -- -- -- -- -- -- -- --
0030:                      53  F8 FF FF 7F F8 FF FF 7F         S........
0040: 74 68 6B 31 00                                    thk1.           
```

#### Opcodes

```
  0: 0x0037 [0x53] WAIT_SCHEDULER_TASK: Wait for scheduler "thk1" with entities [EventEntity, EventEntity]
  1: 0x0044 [0x00] END_REQSTACK()
```

### Event 65535.5

#### Metadata

| Field        | Value    |
|--------------|----------|
| Entrypoint   | 0x0045   |
| Data Size    | 16 bytes |
| Instructions | 2        |

```
      00 01 02 03 04 05 06 07  08 09 0A 0B 0C 0D 0E 0F
      -- -- -- -- -- -- -- --  -- -- -- -- -- -- -- --
0040:                66 00 80  F8 FF FF 7F F8 FF FF 7F       f..........
0050: 74 68 6B 32 00                                    thk2.           
```

#### Opcodes

```
  0: 0x0045 [0x66] LOAD_EXT_SCHEDULER_MAIN: Load scheduler "thk2" with entities [EventEntity, EventEntity], work=40*
  1: 0x0054 [0x00] END_REQSTACK()
```

### Event 65535.6

#### Metadata

| Field        | Value    |
|--------------|----------|
| Entrypoint   | 0x0055   |
| Data Size    | 14 bytes |
| Instructions | 2        |

```
      00 01 02 03 04 05 06 07  08 09 0A 0B 0C 0D 0E 0F
      -- -- -- -- -- -- -- --  -- -- -- -- -- -- -- --
0050:                53 F8 FF  FF 7F F8 FF FF 7F 74 68       S........th
0060: 6B 32 00                                          k2.             
```

#### Opcodes

```
  0: 0x0055 [0x53] WAIT_SCHEDULER_TASK: Wait for scheduler "thk2" with entities [EventEntity, EventEntity]
  1: 0x0062 [0x00] END_REQSTACK()
```

### Event 65535.7

#### Metadata

| Field        | Value    |
|--------------|----------|
| Entrypoint   | 0x0063   |
| Data Size    | 16 bytes |
| Instructions | 2        |

```
      00 01 02 03 04 05 06 07  08 09 0A 0B 0C 0D 0E 0F
      -- -- -- -- -- -- -- --  -- -- -- -- -- -- -- --
0060:          66 02 80 F8 FF  FF 7F F8 FF FF 7F 73 68     f..........sh
0070: 6B 30 00                                          k0.             
```

#### Opcodes

```
  0: 0x0063 [0x66] LOAD_EXT_SCHEDULER_MAIN: Load scheduler "shk0" with entities [EventEntity, EventEntity], work=41*
  1: 0x0072 [0x00] END_REQSTACK()
```

### Event 65535.8

#### Metadata

| Field        | Value    |
|--------------|----------|
| Entrypoint   | 0x0073   |
| Data Size    | 14 bytes |
| Instructions | 2        |

```
      00 01 02 03 04 05 06 07  08 09 0A 0B 0C 0D 0E 0F
      -- -- -- -- -- -- -- --  -- -- -- -- -- -- -- --
0070:          53 F8 FF FF 7F  F8 FF FF 7F 73 68 6B 30     S........shk0
0080: 00                                                .               
```

#### Opcodes

```
  0: 0x0073 [0x53] WAIT_SCHEDULER_TASK: Wait for scheduler "shk0" with entities [EventEntity, EventEntity]
  1: 0x0080 [0x00] END_REQSTACK()
```

### Event 65535.9

#### Metadata

| Field        | Value    |
|--------------|----------|
| Entrypoint   | 0x0081   |
| Data Size    | 16 bytes |
| Instructions | 2        |

```
      00 01 02 03 04 05 06 07  08 09 0A 0B 0C 0D 0E 0F
      -- -- -- -- -- -- -- --  -- -- -- -- -- -- -- --
0080:    66 00 80 F8 FF FF 7F  F8 FF FF 7F 64 69 73 30   f..........dis0
0090: 00                                                .               
```

#### Opcodes

```
  0: 0x0081 [0x66] LOAD_EXT_SCHEDULER_MAIN: Load scheduler "dis0" with entities [EventEntity, EventEntity], work=40*
  1: 0x0090 [0x00] END_REQSTACK()
```

### Event 65535.10

#### Metadata

| Field        | Value    |
|--------------|----------|
| Entrypoint   | 0x0091   |
| Data Size    | 14 bytes |
| Instructions | 2        |

```
      00 01 02 03 04 05 06 07  08 09 0A 0B 0C 0D 0E 0F
      -- -- -- -- -- -- -- --  -- -- -- -- -- -- -- --
0090:    53 F8 FF FF 7F F8 FF  FF 7F 64 69 73 30 00      S........dis0. 
```

#### Opcodes

```
  0: 0x0091 [0x53] WAIT_SCHEDULER_TASK: Wait for scheduler "dis0" with entities [EventEntity, EventEntity]
  1: 0x009E [0x00] END_REQSTACK()
```

### Event 65535.11

#### Metadata

| Field        | Value    |
|--------------|----------|
| Entrypoint   | 0x009F   |
| Data Size    | 16 bytes |
| Instructions | 2        |

```
      00 01 02 03 04 05 06 07  08 09 0A 0B 0C 0D 0E 0F
      -- -- -- -- -- -- -- --  -- -- -- -- -- -- -- --
0090:                                               66                 f
00A0: 00 80 F8 FF FF 7F F8 FF  FF 7F 70 6F 69 30 00     ..........poi0. 
```

#### Opcodes

```
  0: 0x009F [0x66] LOAD_EXT_SCHEDULER_MAIN: Load scheduler "poi0" with entities [EventEntity, EventEntity], work=40*
  1: 0x00AE [0x00] END_REQSTACK()
```

### Event 65535.12

#### Metadata

| Field        | Value    |
|--------------|----------|
| Entrypoint   | 0x00AF   |
| Data Size    | 14 bytes |
| Instructions | 2        |

```
      00 01 02 03 04 05 06 07  08 09 0A 0B 0C 0D 0E 0F
      -- -- -- -- -- -- -- --  -- -- -- -- -- -- -- --
00A0:                                               53                 S
00B0: F8 FF FF 7F F8 FF FF 7F  70 6F 69 30 00           ........poi0.   
```

#### Opcodes

```
  0: 0x00AF [0x53] WAIT_SCHEDULER_TASK: Wait for scheduler "poi0" with entities [EventEntity, EventEntity]
  1: 0x00BC [0x00] END_REQSTACK()
```

### Event 65535.13

#### Metadata

| Field        | Value    |
|--------------|----------|
| Entrypoint   | 0x00BD   |
| Data Size    | 16 bytes |
| Instructions | 2        |

```
      00 01 02 03 04 05 06 07  08 09 0A 0B 0C 0D 0E 0F
      -- -- -- -- -- -- -- --  -- -- -- -- -- -- -- --
00B0:                                         66 00 80               f..
00C0: F8 FF FF 7F F8 FF FF 7F  70 61 73 30 00           ........pas0.   
```

#### Opcodes

```
  0: 0x00BD [0x66] LOAD_EXT_SCHEDULER_MAIN: Load scheduler "pas0" with entities [EventEntity, EventEntity], work=40*
  1: 0x00CC [0x00] END_REQSTACK()
```

### Event 65535.14

#### Metadata

| Field        | Value    |
|--------------|----------|
| Entrypoint   | 0x00CD   |
| Data Size    | 14 bytes |
| Instructions | 2        |

```
      00 01 02 03 04 05 06 07  08 09 0A 0B 0C 0D 0E 0F
      -- -- -- -- -- -- -- --  -- -- -- -- -- -- -- --
00C0:                                         53 F8 FF               S..
00D0: FF 7F F8 FF FF 7F 70 61  73 30 00                 ......pas0.     
```

#### Opcodes

```
  0: 0x00CD [0x53] WAIT_SCHEDULER_TASK: Wait for scheduler "pas0" with entities [EventEntity, EventEntity]
  1: 0x00DA [0x00] END_REQSTACK()
```

### Event 65535.15

#### Metadata

| Field        | Value    |
|--------------|----------|
| Entrypoint   | 0x00DB   |
| Data Size    | 16 bytes |
| Instructions | 2        |

```
      00 01 02 03 04 05 06 07  08 09 0A 0B 0C 0D 0E 0F
      -- -- -- -- -- -- -- --  -- -- -- -- -- -- -- --
00D0:                                   66 00 80 F8 FF             f....
00E0: FF 7F F8 FF FF 7F 77 61  76 30 00                 ......wav0.     
```

#### Opcodes

```
  0: 0x00DB [0x66] LOAD_EXT_SCHEDULER_MAIN: Load scheduler "wav0" with entities [EventEntity, EventEntity], work=40*
  1: 0x00EA [0x00] END_REQSTACK()
```

### Event 65535.16

#### Metadata

| Field        | Value    |
|--------------|----------|
| Entrypoint   | 0x00EB   |
| Data Size    | 14 bytes |
| Instructions | 2        |

```
      00 01 02 03 04 05 06 07  08 09 0A 0B 0C 0D 0E 0F
      -- -- -- -- -- -- -- --  -- -- -- -- -- -- -- --
00E0:                                   53 F8 FF FF 7F             S....
00F0: F8 FF FF 7F 77 61 76 30  00                       ....wav0.       
```

#### Opcodes

```
  0: 0x00EB [0x53] WAIT_SCHEDULER_TASK: Wait for scheduler "wav0" with entities [EventEntity, EventEntity]
  1: 0x00F8 [0x00] END_REQSTACK()
```

### Event 65535.17

#### Metadata

| Field        | Value   |
|--------------|---------|
| Entrypoint   | 0x00F9  |
| Data Size    | 9 bytes |
| Instructions | 3       |

```
      00 01 02 03 04 05 06 07  08 09 0A 0B 0C 0D 0E 0F
      -- -- -- -- -- -- -- --  -- -- -- -- -- -- -- --
00F0:                             5E 69 64 6C 30 1C 01           ^idl0..
0100: 80 00                                             ..              
```

#### Opcodes

```
  0: 0x00F9 [0x5E] EventEntity goes idle (kills current action) (animation: "idl0")
  1: 0x00FE [0x1C] WAIT(30* ticks)
  2: 0x0101 [0x00] END_REQSTACK()
```

### Event 301

#### Metadata

| Field        | Value    |
|--------------|----------|
| Entrypoint   | 0x0102   |
| Data Size    | 37 bytes |
| Instructions | 14       |

```
      00 01 02 03 04 05 06 07  08 09 0A 0B 0C 0D 0E 0F
      -- -- -- -- -- -- -- --  -- -- -- -- -- -- -- --
0100:       1E F0 FF FF 7F 6F  70 29 08 2D E0 0E 01 01    .....op).-....
0110: 1D 03 80 23 1D 04 80 23  1D 05 80 23 29 08 2D E0  ...#...#...#).-.
0120: 0E 01 02 20 00 21 00                              ... .!.         
```

#### Opcodes

```
  0: 0x0102 [0x1E] EventEntity looks at LocalPlayer and starts talking
  1: 0x0107 [0x6F] WAIT_FRAME_DELAY: Yield until WaitTime reaches zero
  2: 0x0108 [0x70] WAIT_ENTITY_RENDER_FLAG: Wait while EventEntity->Render.Flags3 bit 2 is set (cancel turn if not)
  3: 0x0109 [0x29] REQ_SET_WAIT(priority=0x08, entity_id=Ohbiru-Dohbiru (ID: 17752109/0x010EE02D), tag_num=0x01)
  4: 0x0110 [0x1D] PRINT_EVENT_MESSAGE(message_id=8017*)
    → "This is the Rhinostery. We run a biological laboratory that uses magic to study all kinds of living things here."
  5: 0x0113 [0x23] WAIT_FOR_DIALOG_INTERACTION
  6: 0x0114 [0x1D] PRINT_EVENT_MESSAGE(message_id=8018*)
    → "Some people mistakenly think we're just a botanical garden, but we study fauna as well as flora."
  7: 0x0117 [0x23] WAIT_FOR_DIALOG_INTERACTION
  8: 0x0118 [0x1D] PRINT_EVENT_MESSAGE(message_id=8019*)
    → "It's just that we can't keep a zooful of animals here in the middle of town, right? So the staff here who specialize in zoology have to study out of town. That's why our minister, Rukususu, is out journeying right now."
  9: 0x011B [0x23] WAIT_FOR_DIALOG_INTERACTION
 10: 0x011C [0x29] REQ_SET_WAIT(priority=0x08, entity_id=Ohbiru-Dohbiru (ID: 17752109/0x010EE02D), tag_num=0x02)
 11: 0x0123 [0x20] SET_CLI_EVENT_UC_FLAG: Unlock player control
 12: 0x0125 [0x21] END_EVENT
 13: 0x0126 [0x00] END_REQSTACK()
```

### Event 143

#### Metadata

| Field        | Value    |
|--------------|----------|
| Entrypoint   | 0x0127   |
| Data Size    | 33 bytes |
| Instructions | 12       |

```
      00 01 02 03 04 05 06 07  08 09 0A 0B 0C 0D 0E 0F
      -- -- -- -- -- -- -- --  -- -- -- -- -- -- -- --
0120:                      1E  F0 FF FF 7F 6F 70 29 08         .....op).
0130: 2D E0 0E 01 01 1D 06 80  23 1D 07 80 23 29 08 2D  -.......#...#).-
0140: E0 0E 01 02 20 00 21 00                           .... .!.        
```

#### Opcodes

```
  0: 0x0127 [0x1E] EventEntity looks at LocalPlayer and starts talking
  1: 0x012C [0x6F] WAIT_FRAME_DELAY: Yield until WaitTime reaches zero
  2: 0x012D [0x70] WAIT_ENTITY_RENDER_FLAG: Wait while EventEntity->Render.Flags3 bit 2 is set (cancel turn if not)
  3: 0x012E [0x29] REQ_SET_WAIT(priority=0x08, entity_id=Ohbiru-Dohbiru (ID: 17752109/0x010EE02D), tag_num=0x01)
  4: 0x0135 [0x1D] PRINT_EVENT_MESSAGE(message_id=7610*)
    → "You're the adventurer who accepted our mission for today? Leepe-Hoppe has prepared the food offerings for you to take to Giddeus. He's waiting on the rooftop orchard right above us."
  5: 0x0138 [0x23] WAIT_FOR_DIALOG_INTERACTION
  6: 0x0139 [0x1D] PRINT_EVENT_MESSAGE(message_id=7611*)
    → "To get to the roof, go outside and take the stairs on the side of the building."
  7: 0x013C [0x23] WAIT_FOR_DIALOG_INTERACTION
  8: 0x013D [0x29] REQ_SET_WAIT(priority=0x08, entity_id=Ohbiru-Dohbiru (ID: 17752109/0x010EE02D), tag_num=0x02)
  9: 0x0144 [0x20] SET_CLI_EVENT_UC_FLAG: Unlock player control
 10: 0x0146 [0x21] END_EVENT
 11: 0x0147 [0x00] END_REQSTACK()
```

### Event 144

#### Metadata

| Field        | Value    |
|--------------|----------|
| Entrypoint   | 0x0148   |
| Data Size    | 33 bytes |
| Instructions | 12       |

```
      00 01 02 03 04 05 06 07  08 09 0A 0B 0C 0D 0E 0F
      -- -- -- -- -- -- -- --  -- -- -- -- -- -- -- --
0140:                          1E F0 FF FF 7F 6F 70 29          .....op)
0150: 08 2D E0 0E 01 01 1D 08  80 23 1D 09 80 23 29 08  .-.......#...#).
0160: 2D E0 0E 01 02 20 00 21  00                       -.... .!.       
```

#### Opcodes

```
  0: 0x0148 [0x1E] EventEntity looks at LocalPlayer and starts talking
  1: 0x014D [0x6F] WAIT_FRAME_DELAY: Yield until WaitTime reaches zero
  2: 0x014E [0x70] WAIT_ENTITY_RENDER_FLAG: Wait while EventEntity->Render.Flags3 bit 2 is set (cancel turn if not)
  3: 0x014F [0x29] REQ_SET_WAIT(priority=0x08, entity_id=Ohbiru-Dohbiru (ID: 17752109/0x010EE02D), tag_num=0x01)
  4: 0x0156 [0x1D] PRINT_EVENT_MESSAGE(message_id=7612*)
    → "At first there was just one altar for offerings in Giddeus. So we only needed to take one bag of food."
  5: 0x0159 [0x23] WAIT_FOR_DIALOG_INTERACTION
  6: 0x015A [0x1D] PRINT_EVENT_MESSAGE(message_id=7613*)
    → "Then one day, those sneaky Yagudo decided to build another altar. They are so greedy."
  7: 0x015D [0x23] WAIT_FOR_DIALOG_INTERACTION
  8: 0x015E [0x29] REQ_SET_WAIT(priority=0x08, entity_id=Ohbiru-Dohbiru (ID: 17752109/0x010EE02D), tag_num=0x02)
  9: 0x0165 [0x20] SET_CLI_EVENT_UC_FLAG: Unlock player control
 10: 0x0167 [0x21] END_EVENT
 11: 0x0168 [0x00] END_REQSTACK()
```

### Event 308

#### Metadata

| Field        | Value    |
|--------------|----------|
| Entrypoint   | 0x0169   |
| Data Size    | 32 bytes |
| Instructions | 9        |

```
      00 01 02 03 04 05 06 07  08 09 0A 0B 0C 0D 0E 0F
      -- -- -- -- -- -- -- --  -- -- -- -- -- -- -- --
0160:                             1E F0 FF FF 7F 6F 70           .....op
0170: 29 0B 2D E0 0E 01 16 29  0B 2D E0 0E 01 17 29 0B  ).-....).-....).
0180: 2D E0 0E 01 19 20 00 21  00                       -.... .!.       
```

#### Opcodes

```
  0: 0x0169 [0x1E] EventEntity looks at LocalPlayer and starts talking
  1: 0x016E [0x6F] WAIT_FRAME_DELAY: Yield until WaitTime reaches zero
  2: 0x016F [0x70] WAIT_ENTITY_RENDER_FLAG: Wait while EventEntity->Render.Flags3 bit 2 is set (cancel turn if not)
  3: 0x0170 [0x29] REQ_SET_WAIT(priority=0x0B, entity_id=Ohbiru-Dohbiru (ID: 17752109/0x010EE02D), tag_num=0x16)
  4: 0x0177 [0x29] REQ_SET_WAIT(priority=0x0B, entity_id=Ohbiru-Dohbiru (ID: 17752109/0x010EE02D), tag_num=0x17)
  5: 0x017E [0x29] REQ_SET_WAIT(priority=0x0B, entity_id=Ohbiru-Dohbiru (ID: 17752109/0x010EE02D), tag_num=0x19)
  6: 0x0185 [0x20] SET_CLI_EVENT_UC_FLAG: Unlock player control
  7: 0x0187 [0x21] END_EVENT
  8: 0x0188 [0x00] END_REQSTACK()
```

### Event 65535.18

#### Metadata

| Field        | Value    |
|--------------|----------|
| Entrypoint   | 0x0189   |
| Data Size    | 19 bytes |
| Instructions | 5        |

```
      00 01 02 03 04 05 06 07  08 09 0A 0B 0C 0D 0E 0F
      -- -- -- -- -- -- -- --  -- -- -- -- -- -- -- --
0180:                             29 08 2D E0 0E 01 01           ).-....
0190: 1D 0A 80 23 29 08 2D E0  0E 01 02 00              ...#).-.....    
```

#### Opcodes

```
  0: 0x0189 [0x29] REQ_SET_WAIT(priority=0x08, entity_id=Ohbiru-Dohbiru (ID: 17752109/0x010EE02D), tag_num=0x01)
  1: 0x0190 [0x1D] PRINT_EVENT_MESSAGE(message_id=8032*)
    → "Uh, excuse my tummy-grumbles. I'm utterly famished."
  2: 0x0193 [0x23] WAIT_FOR_DIALOG_INTERACTION
  3: 0x0194 [0x29] REQ_SET_WAIT(priority=0x08, entity_id=Ohbiru-Dohbiru (ID: 17752109/0x010EE02D), tag_num=0x02)
  4: 0x019B [0x00] END_REQSTACK()
```

### Event 65535.19

#### Metadata

| Field        | Value    |
|--------------|----------|
| Entrypoint   | 0x019C   |
| Data Size    | 23 bytes |
| Instructions | 7        |

```
      00 01 02 03 04 05 06 07  08 09 0A 0B 0C 0D 0E 0F
      -- -- -- -- -- -- -- --  -- -- -- -- -- -- -- --
0190:                                      29 08 2D E0              ).-.
01A0: 0E 01 01 1D 0B 80 23 1D  0C 80 23 29 08 2D E0 0E  ......#...#).-..
01B0: 01 02 00                                          ...             
```

#### Opcodes

```
  0: 0x019C [0x29] REQ_SET_WAIT(priority=0x08, entity_id=Ohbiru-Dohbiru (ID: 17752109/0x010EE02D), tag_num=0x01)
  1: 0x01A3 [0x1D] PRINT_EVENT_MESSAGE(message_id=8033*)
    → "But now is the critical point that will decide whether this project is a success or a total failure."
  2: 0x01A6 [0x23] WAIT_FOR_DIALOG_INTERACTION
  3: 0x01A7 [0x1D] PRINT_EVENT_MESSAGE(message_id=8034*)
    → "I can't take my eyes off my work, so I can't move right now. Why, I can't even afford to sleep!"
  4: 0x01AA [0x23] WAIT_FOR_DIALOG_INTERACTION
  5: 0x01AB [0x29] REQ_SET_WAIT(priority=0x08, entity_id=Ohbiru-Dohbiru (ID: 17752109/0x010EE02D), tag_num=0x02)
  6: 0x01B2 [0x00] END_REQSTACK()
```

### Event 309

#### Metadata

| Field        | Value    |
|--------------|----------|
| Entrypoint   | 0x01B3   |
| Data Size    | 33 bytes |
| Instructions | 12       |

```
      00 01 02 03 04 05 06 07  08 09 0A 0B 0C 0D 0E 0F
      -- -- -- -- -- -- -- --  -- -- -- -- -- -- -- --
01B0:          1E F0 FF FF 7F  6F 70 29 08 2D E0 0E 01     .....op).-...
01C0: 01 1D 0D 80 23 1D 0E 80  23 29 08 2D E0 0E 01 02  ....#...#).-....
01D0: 20 00 21 00                                        .!.            
```

#### Opcodes

```
  0: 0x01B3 [0x1E] EventEntity looks at LocalPlayer and starts talking
  1: 0x01B8 [0x6F] WAIT_FRAME_DELAY: Yield until WaitTime reaches zero
  2: 0x01B9 [0x70] WAIT_ENTITY_RENDER_FLAG: Wait while EventEntity->Render.Flags3 bit 2 is set (cancel turn if not)
  3: 0x01BA [0x29] REQ_SET_WAIT(priority=0x08, entity_id=Ohbiru-Dohbiru (ID: 17752109/0x010EE02D), tag_num=0x01)
  4: 0x01C1 [0x1D] PRINT_EVENT_MESSAGE(message_id=8035*)
    → "Oooh... But I'm so hungry! I feel like I'm starving to death..."
  5: 0x01C4 [0x23] WAIT_FOR_DIALOG_INTERACTION
  6: 0x01C5 [0x1D] PRINT_EVENT_MESSAGE(message_id=8036*)
    → "Aagh! Nothing's left from the food I prepared in advance."
  7: 0x01C8 [0x23] WAIT_FOR_DIALOG_INTERACTION
  8: 0x01C9 [0x29] REQ_SET_WAIT(priority=0x08, entity_id=Ohbiru-Dohbiru (ID: 17752109/0x010EE02D), tag_num=0x02)
  9: 0x01D0 [0x20] SET_CLI_EVENT_UC_FLAG: Unlock player control
 10: 0x01D2 [0x21] END_EVENT
 11: 0x01D3 [0x00] END_REQSTACK()
```

### Event 65535.20

#### Metadata

| Field        | Value    |
|--------------|----------|
| Entrypoint   | 0x01D4   |
| Data Size    | 33 bytes |
| Instructions | 12       |

```
      00 01 02 03 04 05 06 07  08 09 0A 0B 0C 0D 0E 0F
      -- -- -- -- -- -- -- --  -- -- -- -- -- -- -- --
01D0:             1E F0 FF FF  7F 6F 70 29 08 2D E0 0E      .....op).-..
01E0: 01 01 1D 0D 80 23 1D 0E  80 23 29 08 2D E0 0E 01  .....#...#).-...
01F0: 02 20 00 21 00                                    . .!.           
```

#### Opcodes

```
  0: 0x01D4 [0x1E] EventEntity looks at LocalPlayer and starts talking
  1: 0x01D9 [0x6F] WAIT_FRAME_DELAY: Yield until WaitTime reaches zero
  2: 0x01DA [0x70] WAIT_ENTITY_RENDER_FLAG: Wait while EventEntity->Render.Flags3 bit 2 is set (cancel turn if not)
  3: 0x01DB [0x29] REQ_SET_WAIT(priority=0x08, entity_id=Ohbiru-Dohbiru (ID: 17752109/0x010EE02D), tag_num=0x01)
  4: 0x01E2 [0x1D] PRINT_EVENT_MESSAGE(message_id=8035*)
    → "Oooh... But I'm so hungry! I feel like I'm starving to death..."
  5: 0x01E5 [0x23] WAIT_FOR_DIALOG_INTERACTION
  6: 0x01E6 [0x1D] PRINT_EVENT_MESSAGE(message_id=8036*)
    → "Aagh! Nothing's left from the food I prepared in advance."
  7: 0x01E9 [0x23] WAIT_FOR_DIALOG_INTERACTION
  8: 0x01EA [0x29] REQ_SET_WAIT(priority=0x08, entity_id=Ohbiru-Dohbiru (ID: 17752109/0x010EE02D), tag_num=0x02)
  9: 0x01F1 [0x20] SET_CLI_EVENT_UC_FLAG: Unlock player control
 10: 0x01F3 [0x21] END_EVENT
 11: 0x01F4 [0x00] END_REQSTACK()
```

### Event 316

#### Metadata

| Field        | Value    |
|--------------|----------|
| Entrypoint   | 0x01F5   |
| Data Size    | 37 bytes |
| Instructions | 14       |

```
      00 01 02 03 04 05 06 07  08 09 0A 0B 0C 0D 0E 0F
      -- -- -- -- -- -- -- --  -- -- -- -- -- -- -- --
01F0:                1E F0 FF  FF 7F 6F 70 29 08 2D E0       .....op).-.
0200: 0E 01 01 1D 0F 80 23 1D  10 80 23 1D 11 80 23 29  ......#...#...#)
0210: 08 2D E0 0E 01 02 20 00  21 00                    .-.... .!.      
```

#### Opcodes

```
  0: 0x01F5 [0x1E] EventEntity looks at LocalPlayer and starts talking
  1: 0x01FA [0x6F] WAIT_FRAME_DELAY: Yield until WaitTime reaches zero
  2: 0x01FB [0x70] WAIT_ENTITY_RENDER_FLAG: Wait while EventEntity->Render.Flags3 bit 2 is set (cancel turn if not)
  3: 0x01FC [0x29] REQ_SET_WAIT(priority=0x08, entity_id=Ohbiru-Dohbiru (ID: 17752109/0x010EE02D), tag_num=0x01)
  4: 0x0203 [0x1D] PRINT_EVENT_MESSAGE(message_id=8054*)
    → "You volunteered to go buy us some food? Why, that's most kind of you! What a godsend!"
  5: 0x0206 [0x23] WAIT_FOR_DIALOG_INTERACTION
  6: 0x0207 [0x1D] PRINT_EVENT_MESSAGE(message_id=8055*)
    → "Well, as for me... I'll have $1 and $2..."
  7: 0x020A [0x23] WAIT_FOR_DIALOG_INTERACTION
  8: 0x020B [0x1D] PRINT_EVENT_MESSAGE(message_id=8056*)
    → "Oh, and I'll have a side order of $3 with that. Did you get all that?"
  9: 0x020E [0x23] WAIT_FOR_DIALOG_INTERACTION
 10: 0x020F [0x29] REQ_SET_WAIT(priority=0x08, entity_id=Ohbiru-Dohbiru (ID: 17752109/0x010EE02D), tag_num=0x02)
 11: 0x0216 [0x20] SET_CLI_EVENT_UC_FLAG: Unlock player control
 12: 0x0218 [0x21] END_EVENT
 13: 0x0219 [0x00] END_REQSTACK()
```

### Event 317

#### Metadata

| Field        | Value    |
|--------------|----------|
| Entrypoint   | 0x021A   |
| Data Size    | 33 bytes |
| Instructions | 12       |

```
      00 01 02 03 04 05 06 07  08 09 0A 0B 0C 0D 0E 0F
      -- -- -- -- -- -- -- --  -- -- -- -- -- -- -- --
0210:                                1E F0 FF FF 7F 6F            .....o
0220: 70 29 08 2D E0 0E 01 01  1D 12 80 23 1D 13 80 23  p).-.......#...#
0230: 29 08 2D E0 0E 01 02 20  00 21 00                 ).-.... .!.     
```

#### Opcodes

```
  0: 0x021A [0x1E] EventEntity looks at LocalPlayer and starts talking
  1: 0x021F [0x6F] WAIT_FRAME_DELAY: Yield until WaitTime reaches zero
  2: 0x0220 [0x70] WAIT_ENTITY_RENDER_FLAG: Wait while EventEntity->Render.Flags3 bit 2 is set (cancel turn if not)
  3: 0x0221 [0x29] REQ_SET_WAIT(priority=0x08, entity_id=Ohbiru-Dohbiru (ID: 17752109/0x010EE02D), tag_num=0x01)
  4: 0x0228 [0x1D] PRINT_EVENT_MESSAGE(message_id=8057*)
    → "I'll have the $1 with $2 and a side order of $3 to go, thank you."
  5: 0x022B [0x23] WAIT_FOR_DIALOG_INTERACTION
  6: 0x022C [0x1D] PRINT_EVENT_MESSAGE(message_id=8058*)
    → "While I'm waiting for you, I'll sink my last remaining energy into continuing this project."
  7: 0x022F [0x23] WAIT_FOR_DIALOG_INTERACTION
  8: 0x0230 [0x29] REQ_SET_WAIT(priority=0x08, entity_id=Ohbiru-Dohbiru (ID: 17752109/0x010EE02D), tag_num=0x02)
  9: 0x0237 [0x20] SET_CLI_EVENT_UC_FLAG: Unlock player control
 10: 0x0239 [0x21] END_EVENT
 11: 0x023A [0x00] END_REQSTACK()
```

### Event 322

#### Metadata

| Field        | Value    |
|--------------|----------|
| Entrypoint   | 0x023B   |
| Data Size    | 64 bytes |
| Instructions | 17       |

```
      00 01 02 03 04 05 06 07  08 09 0A 0B 0C 0D 0E 0F
      -- -- -- -- -- -- -- --  -- -- -- -- -- -- -- --
0230:                                   20 01 42 1E F0              .B..
0240: FF FF 7F 6F 70 29 08 2D  E0 0E 01 01 1D 14 80 23  ...op).-.......#
0250: 1D 15 80 23 29 08 2D E0  0E 01 02 02 05 10 16 80  ...#).-.........
0260: 00 74 02 45 17 80 F0 FF  FF 7F F0 FF FF 7F 71 73  .t.E..........qs
0270: 74 63 18 80 48 19 80 20  00 21 00                 tc..H.. .!.     
```

#### Opcodes

```
  0: 0x023B [0x20] SET_CLI_EVENT_UC_FLAG: Lock player control
  1: 0x023D [0x42] SET_CLI_EVENT_CANCEL_DATA()
  2: 0x023E [0x1E] EventEntity looks at LocalPlayer and starts talking
  3: 0x0243 [0x6F] WAIT_FRAME_DELAY: Yield until WaitTime reaches zero
  4: 0x0244 [0x70] WAIT_ENTITY_RENDER_FLAG: Wait while EventEntity->Render.Flags3 bit 2 is set (cancel turn if not)
  5: 0x0245 [0x29] REQ_SET_WAIT(priority=0x08, entity_id=Ohbiru-Dohbiru (ID: 17752109/0x010EE02D), tag_num=0x01)
  6: 0x024C [0x1D] PRINT_EVENT_MESSAGE(message_id=8064*)
    → "Hey! These look good! I'm glad I managed to keep waiting!"
  7: 0x024F [0x23] WAIT_FOR_DIALOG_INTERACTION
  8: 0x0250 [0x1D] PRINT_EVENT_MESSAGE(message_id=8065*)
    → "Thanks... Take this for your troubles..."
  9: 0x0253 [0x23] WAIT_FOR_DIALOG_INTERACTION
 10: 0x0254 [0x29] REQ_SET_WAIT(priority=0x08, entity_id=Ohbiru-Dohbiru (ID: 17752109/0x010EE02D), tag_num=0x02)
 11: 0x025B [0x02] IF !(Work_Zone[5] == 1*) GOTO 0x0274
 12: 0x0263 [0x45] LOAD_SCHEDULED_TASK: Load scheduler "qstc" with entities [LocalPlayer, LocalPlayer], work=[201*, 0*]
 13: 0x0274 [0x48] [System] [6552*]:
    → "Obtained $0 gil."
 14: 0x0277 [0x20] SET_CLI_EVENT_UC_FLAG: Unlock player control
 15: 0x0279 [0x21] END_EVENT
 16: 0x027A [0x00] END_REQSTACK()
```

### Event 323

#### Metadata

| Field        | Value    |
|--------------|----------|
| Entrypoint   | 0x027B   |
| Data Size    | 33 bytes |
| Instructions | 12       |

```
      00 01 02 03 04 05 06 07  08 09 0A 0B 0C 0D 0E 0F
      -- -- -- -- -- -- -- --  -- -- -- -- -- -- -- --
0270:                                   1E F0 FF FF 7F             .....
0280: 6F 70 29 08 2D E0 0E 01  01 1D 1A 80 23 1D 1B 80  op).-.......#...
0290: 23 29 08 2D E0 0E 01 02  20 00 21 00              #).-.... .!.    
```

#### Opcodes

```
  0: 0x027B [0x1E] EventEntity looks at LocalPlayer and starts talking
  1: 0x0280 [0x6F] WAIT_FRAME_DELAY: Yield until WaitTime reaches zero
  2: 0x0281 [0x70] WAIT_ENTITY_RENDER_FLAG: Wait while EventEntity->Render.Flags3 bit 2 is set (cancel turn if not)
  3: 0x0282 [0x29] REQ_SET_WAIT(priority=0x08, entity_id=Ohbiru-Dohbiru (ID: 17752109/0x010EE02D), tag_num=0x01)
  4: 0x0289 [0x1D] PRINT_EVENT_MESSAGE(message_id=8066*)
    → "What's this?"
  5: 0x028C [0x23] WAIT_FOR_DIALOG_INTERACTION
  6: 0x028D [0x1D] PRINT_EVENT_MESSAGE(message_id=8067*)
    → "Humph. I guess this is what they mean when they say "Close is my shirt, but closer is my skin." This'll have to do, then. So I'll take it."
  7: 0x0290 [0x23] WAIT_FOR_DIALOG_INTERACTION
  8: 0x0291 [0x29] REQ_SET_WAIT(priority=0x08, entity_id=Ohbiru-Dohbiru (ID: 17752109/0x010EE02D), tag_num=0x02)
  9: 0x0298 [0x20] SET_CLI_EVENT_UC_FLAG: Unlock player control
 10: 0x029A [0x21] END_EVENT
 11: 0x029B [0x00] END_REQSTACK()
```

### Event 324

#### Metadata

| Field        | Value    |
|--------------|----------|
| Entrypoint   | 0x029C   |
| Data Size    | 33 bytes |
| Instructions | 12       |

```
      00 01 02 03 04 05 06 07  08 09 0A 0B 0C 0D 0E 0F
      -- -- -- -- -- -- -- --  -- -- -- -- -- -- -- --
0290:                                      1E F0 FF FF              ....
02A0: 7F 6F 70 29 08 2D E0 0E  01 01 1D 1C 80 23 1D 1D  .op).-.......#..
02B0: 80 23 29 08 2D E0 0E 01  02 20 00 21 00           .#).-.... .!.   
```

#### Opcodes

```
  0: 0x029C [0x1E] EventEntity looks at LocalPlayer and starts talking
  1: 0x02A1 [0x6F] WAIT_FRAME_DELAY: Yield until WaitTime reaches zero
  2: 0x02A2 [0x70] WAIT_ENTITY_RENDER_FLAG: Wait while EventEntity->Render.Flags3 bit 2 is set (cancel turn if not)
  3: 0x02A3 [0x29] REQ_SET_WAIT(priority=0x08, entity_id=Ohbiru-Dohbiru (ID: 17752109/0x010EE02D), tag_num=0x01)
  4: 0x02AA [0x1D] PRINT_EVENT_MESSAGE(message_id=8068*)
    → "Of course, you're going to get Kenapa-Keppa and Kerutoto's orders as well, aren't you?"
  5: 0x02AD [0x23] WAIT_FOR_DIALOG_INTERACTION
  6: 0x02AE [0x1D] PRINT_EVENT_MESSAGE(message_id=8069*)
    → "Just hand each of them their orders directly. I'm sure they don't want to wait any more than they have to."
  7: 0x02B1 [0x23] WAIT_FOR_DIALOG_INTERACTION
  8: 0x02B2 [0x29] REQ_SET_WAIT(priority=0x08, entity_id=Ohbiru-Dohbiru (ID: 17752109/0x010EE02D), tag_num=0x02)
  9: 0x02B9 [0x20] SET_CLI_EVENT_UC_FLAG: Unlock player control
 10: 0x02BB [0x21] END_EVENT
 11: 0x02BC [0x00] END_REQSTACK()
```

### Event 325

#### Metadata

| Field        | Value    |
|--------------|----------|
| Entrypoint   | 0x02BD   |
| Data Size    | 68 bytes |
| Instructions | 19       |

```
      00 01 02 03 04 05 06 07  08 09 0A 0B 0C 0D 0E 0F
      -- -- -- -- -- -- -- --  -- -- -- -- -- -- -- --
02B0:                                         20 01 42                .B
02C0: 1E F0 FF FF 7F 6F 70 29  08 2D E0 0E 01 01 1D 1E  .....op).-......
02D0: 80 23 1D 1F 80 23 1D 20  80 23 29 08 2D E0 0E 01  .#...#. .#).-...
02E0: 02 02 05 10 16 80 00 FA  02 45 17 80 F0 FF FF 7F  .........E......
02F0: F0 FF FF 7F 71 73 74 63  18 80 48 19 80 20 00 21  ....qstc..H.. .!
0300: 00                                                .               
```

#### Opcodes

```
  0: 0x02BD [0x20] SET_CLI_EVENT_UC_FLAG: Lock player control
  1: 0x02BF [0x42] SET_CLI_EVENT_CANCEL_DATA()
  2: 0x02C0 [0x1E] EventEntity looks at LocalPlayer and starts talking
  3: 0x02C5 [0x6F] WAIT_FRAME_DELAY: Yield until WaitTime reaches zero
  4: 0x02C6 [0x70] WAIT_ENTITY_RENDER_FLAG: Wait while EventEntity->Render.Flags3 bit 2 is set (cancel turn if not)
  5: 0x02C7 [0x29] REQ_SET_WAIT(priority=0x08, entity_id=Ohbiru-Dohbiru (ID: 17752109/0x010EE02D), tag_num=0x01)
  6: 0x02CE [0x1D] PRINT_EVENT_MESSAGE(message_id=8070*)
    → "Whoa! That's a surprise. How did you know what I wanted to eat?"
  7: 0x02D1 [0x23] WAIT_FOR_DIALOG_INTERACTION
  8: 0x02D2 [0x1D] PRINT_EVENT_MESSAGE(message_id=8071*)
    → "Well, I'm not complaining, just surprised. But seeing as you're giving it to me without my asking, I assume I don't have to pay, right?"
  9: 0x02D5 [0x23] WAIT_FOR_DIALOG_INTERACTION
 10: 0x02D6 [0x1D] PRINT_EVENT_MESSAGE(message_id=8072*)
    → "A-ha-ha... Just kidding. Relax. I was really intending to pay."
 11: 0x02D9 [0x23] WAIT_FOR_DIALOG_INTERACTION
 12: 0x02DA [0x29] REQ_SET_WAIT(priority=0x08, entity_id=Ohbiru-Dohbiru (ID: 17752109/0x010EE02D), tag_num=0x02)
 13: 0x02E1 [0x02] IF !(Work_Zone[5] == 1*) GOTO 0x02FA
 14: 0x02E9 [0x45] LOAD_SCHEDULED_TASK: Load scheduler "qstc" with entities [LocalPlayer, LocalPlayer], work=[201*, 0*]
 15: 0x02FA [0x48] [System] [6552*]:
    → "Obtained $0 gil."
 16: 0x02FD [0x20] SET_CLI_EVENT_UC_FLAG: Unlock player control
 17: 0x02FF [0x21] END_EVENT
 18: 0x0300 [0x00] END_REQSTACK()
```

### Event 326

#### Metadata

| Field        | Value    |
|--------------|----------|
| Entrypoint   | 0x0301   |
| Data Size    | 37 bytes |
| Instructions | 14       |

```
      00 01 02 03 04 05 06 07  08 09 0A 0B 0C 0D 0E 0F
      -- -- -- -- -- -- -- --  -- -- -- -- -- -- -- --
0300:    1E F0 FF FF 7F 6F 70  29 08 2D E0 0E 01 01 1D   .....op).-.....
0310: 21 80 23 1D 22 80 23 1D  23 80 23 29 08 2D E0 0E  !.#.".#.#.#).-..
0320: 01 02 20 00 21 00                                 .. .!.          
```

#### Opcodes

```
  0: 0x0301 [0x1E] EventEntity looks at LocalPlayer and starts talking
  1: 0x0306 [0x6F] WAIT_FRAME_DELAY: Yield until WaitTime reaches zero
  2: 0x0307 [0x70] WAIT_ENTITY_RENDER_FLAG: Wait while EventEntity->Render.Flags3 bit 2 is set (cancel turn if not)
  3: 0x0308 [0x29] REQ_SET_WAIT(priority=0x08, entity_id=Ohbiru-Dohbiru (ID: 17752109/0x010EE02D), tag_num=0x01)
  4: 0x030F [0x1D] PRINT_EVENT_MESSAGE(message_id=8073*)
    → "Whoa! That's a surprise. What's this all of a sudden? Is it okay for me to have this?"
  5: 0x0312 [0x23] WAIT_FOR_DIALOG_INTERACTION
  6: 0x0313 [0x1D] PRINT_EVENT_MESSAGE(message_id=8074*)
    → "But seeing as you're giving it to me without my asking, I assume I don't have to pay, right?"
  7: 0x0316 [0x23] WAIT_FOR_DIALOG_INTERACTION
  8: 0x0317 [0x1D] PRINT_EVENT_MESSAGE(message_id=8075*)
    → "A-ha-ha... Just kidding. Relax. I was really intending to pay."
  9: 0x031A [0x23] WAIT_FOR_DIALOG_INTERACTION
 10: 0x031B [0x29] REQ_SET_WAIT(priority=0x08, entity_id=Ohbiru-Dohbiru (ID: 17752109/0x010EE02D), tag_num=0x02)
 11: 0x0322 [0x20] SET_CLI_EVENT_UC_FLAG: Unlock player control
 12: 0x0324 [0x21] END_EVENT
 13: 0x0325 [0x00] END_REQSTACK()
```

### Event 344

#### Metadata

| Field        | Value    |
|--------------|----------|
| Entrypoint   | 0x0326   |
| Data Size    | 33 bytes |
| Instructions | 12       |

```
      00 01 02 03 04 05 06 07  08 09 0A 0B 0C 0D 0E 0F
      -- -- -- -- -- -- -- --  -- -- -- -- -- -- -- --
0320:                   1E F0  FF FF 7F 6F 70 29 08 2D        .....op).-
0330: E0 0E 01 01 1D 24 80 23  1D 25 80 23 29 08 2D E0  .....$.#.%.#).-.
0340: 0E 01 02 20 00 21 00                              ... .!.         
```

#### Opcodes

```
  0: 0x0326 [0x1E] EventEntity looks at LocalPlayer and starts talking
  1: 0x032B [0x6F] WAIT_FRAME_DELAY: Yield until WaitTime reaches zero
  2: 0x032C [0x70] WAIT_ENTITY_RENDER_FLAG: Wait while EventEntity->Render.Flags3 bit 2 is set (cancel turn if not)
  3: 0x032D [0x29] REQ_SET_WAIT(priority=0x08, entity_id=Ohbiru-Dohbiru (ID: 17752109/0x010EE02D), tag_num=0x01)
  4: 0x0334 [0x1D] PRINT_EVENT_MESSAGE(message_id=8105*)
    → "Sometimes I spend all night trying to have a decent conversation with Kenapa-Keppa."
  5: 0x0337 [0x23] WAIT_FOR_DIALOG_INTERACTION
  6: 0x0338 [0x1D] PRINT_EVENT_MESSAGE(message_id=8106*)
    → "I guess unless you have a personality like his, you wouldn't be able to spend years studying plants that don't talk."
  7: 0x033B [0x23] WAIT_FOR_DIALOG_INTERACTION
  8: 0x033C [0x29] REQ_SET_WAIT(priority=0x08, entity_id=Ohbiru-Dohbiru (ID: 17752109/0x010EE02D), tag_num=0x02)
  9: 0x0343 [0x20] SET_CLI_EVENT_UC_FLAG: Unlock player control
 10: 0x0345 [0x21] END_EVENT
 11: 0x0346 [0x00] END_REQSTACK()
```

### Event 351

#### Metadata

| Field        | Value    |
|--------------|----------|
| Entrypoint   | 0x0347   |
| Data Size    | 33 bytes |
| Instructions | 12       |

```
      00 01 02 03 04 05 06 07  08 09 0A 0B 0C 0D 0E 0F
      -- -- -- -- -- -- -- --  -- -- -- -- -- -- -- --
0340:                      1E  F0 FF FF 7F 6F 70 29 08         .....op).
0350: 2D E0 0E 01 01 1D 26 80  23 1D 27 80 23 29 08 2D  -.....&.#.'.#).-
0360: E0 0E 01 02 20 00 21 00                           .... .!.        
```

#### Opcodes

```
  0: 0x0347 [0x1E] EventEntity looks at LocalPlayer and starts talking
  1: 0x034C [0x6F] WAIT_FRAME_DELAY: Yield until WaitTime reaches zero
  2: 0x034D [0x70] WAIT_ENTITY_RENDER_FLAG: Wait while EventEntity->Render.Flags3 bit 2 is set (cancel turn if not)
  3: 0x034E [0x29] REQ_SET_WAIT(priority=0x08, entity_id=Ohbiru-Dohbiru (ID: 17752109/0x010EE02D), tag_num=0x01)
  4: 0x0355 [0x1D] PRINT_EVENT_MESSAGE(message_id=8119*)
    → "I was wondering what he was asking you to do. Now I see it was bringing him the cargo shipped in via Mhaura."
  5: 0x0358 [0x23] WAIT_FOR_DIALOG_INTERACTION
  6: 0x0359 [0x1D] PRINT_EVENT_MESSAGE(message_id=8120*)
    → "I hope you kept to the time limit. Those things are extremely hard to handle."
  7: 0x035C [0x23] WAIT_FOR_DIALOG_INTERACTION
  8: 0x035D [0x29] REQ_SET_WAIT(priority=0x08, entity_id=Ohbiru-Dohbiru (ID: 17752109/0x010EE02D), tag_num=0x02)
  9: 0x0364 [0x20] SET_CLI_EVENT_UC_FLAG: Unlock player control
 10: 0x0366 [0x21] END_EVENT
 11: 0x0367 [0x00] END_REQSTACK()
```

### Event 352

#### Metadata

| Field        | Value    |
|--------------|----------|
| Entrypoint   | 0x0368   |
| Data Size    | 79 bytes |
| Instructions | 18       |

```
      00 01 02 03 04 05 06 07  08 09 0A 0B 0C 0D 0E 0F
      -- -- -- -- -- -- -- --  -- -- -- -- -- -- -- --
0360:                          1E F0 FF FF 7F 6F 70 29          .....op)
0370: 0B 2D E0 0E 01 24 29 0B  2D E0 0E 01 25 24 28 80  .-...$).-...%$(.
0380: 18 80 18 80 25 02 00 10  18 80 00 9C 03 03 01 10  ....%...........
0390: 18 80 29 0A 2D E0 0E 01  26 01 B3 03 02 00 10 16  ..).-...&.......
03A0: 80 00 B3 03 03 01 10 16  80 29 0A 2D E0 0E 01 27  .........).-...'
03B0: 01 B3 03 20 00 21 00                              ... .!.         
```

#### Opcodes

```
  0: 0x0368 [0x1E] EventEntity looks at LocalPlayer and starts talking
  1: 0x036D [0x6F] WAIT_FRAME_DELAY: Yield until WaitTime reaches zero
  2: 0x036E [0x70] WAIT_ENTITY_RENDER_FLAG: Wait while EventEntity->Render.Flags3 bit 2 is set (cancel turn if not)
  3: 0x036F [0x29] REQ_SET_WAIT(priority=0x0B, entity_id=Ohbiru-Dohbiru (ID: 17752109/0x010EE02D), tag_num=0x24)
  4: 0x0376 [0x29] REQ_SET_WAIT(priority=0x0B, entity_id=Ohbiru-Dohbiru (ID: 17752109/0x010EE02D), tag_num=0x25)
  5: 0x037D [0x24] CREATE_DIALOG(message_id=8125*, default_option=0*, option_flags=0*)
    → "Go fetch some water? [Yes./No.]"
  6: 0x0384 [0x25] WAIT_DIALOG_SELECT()
  7: 0x0385 [0x02] IF !(Work_Zone[0] == 0*) GOTO 0x039C
  8: 0x038D [0x03] Work_Zone[1] = 0*
  9: 0x0392 [0x29] REQ_SET_WAIT(priority=0x0A, entity_id=Ohbiru-Dohbiru (ID: 17752109/0x010EE02D), tag_num=0x26)
 10: 0x0399 [0x01] GOTO 0x03B3
 11: 0x039C [0x02] IF !(Work_Zone[0] == 1*) GOTO 0x03B3
 12: 0x03A4 [0x03] Work_Zone[1] = 1*
 13: 0x03A9 [0x29] REQ_SET_WAIT(priority=0x0A, entity_id=Ohbiru-Dohbiru (ID: 17752109/0x010EE02D), tag_num=0x27)
 14: 0x03B0 [0x01] GOTO 0x03B3

SUBROUTINE_03B3:
 15: 0x03B3 [0x20] SET_CLI_EVENT_UC_FLAG: Unlock player control
 16: 0x03B5 [0x21] END_EVENT
 17: 0x03B6 [0x00] END_REQSTACK()
```

### Event 65535.21

#### Metadata

| Field        | Value    |
|--------------|----------|
| Entrypoint   | 0x03B7   |
| Data Size    | 23 bytes |
| Instructions | 7        |

```
      00 01 02 03 04 05 06 07  08 09 0A 0B 0C 0D 0E 0F
      -- -- -- -- -- -- -- --  -- -- -- -- -- -- -- --
03B0:                      29  08 2D E0 0E 01 01 1D 29         ).-.....)
03C0: 80 23 1D 2A 80 23 29 08  2D E0 0E 01 02 00        .#.*.#).-.....  
```

#### Opcodes

```
  0: 0x03B7 [0x29] REQ_SET_WAIT(priority=0x08, entity_id=Ohbiru-Dohbiru (ID: 17752109/0x010EE02D), tag_num=0x01)
  1: 0x03BE [0x1D] PRINT_EVENT_MESSAGE(message_id=8121*)
    → "You've seen the flowers all over Windurst that serve as streetlights, right?"
  2: 0x03C1 [0x23] WAIT_FOR_DIALOG_INTERACTION
  3: 0x03C2 [0x1D] PRINT_EVENT_MESSAGE(message_id=8122*)
    → "Those flowers are called fluoro-flora. We cast magic on their seeds to enhance their illumination."
  4: 0x03C5 [0x23] WAIT_FOR_DIALOG_INTERACTION
  5: 0x03C6 [0x29] REQ_SET_WAIT(priority=0x08, entity_id=Ohbiru-Dohbiru (ID: 17752109/0x010EE02D), tag_num=0x02)
  6: 0x03CD [0x00] END_REQSTACK()
```

### Event 65535.22

#### Metadata

| Field        | Value    |
|--------------|----------|
| Entrypoint   | 0x03CE   |
| Data Size    | 37 bytes |
| Instructions | 9        |

```
      00 01 02 03 04 05 06 07  08 09 0A 0B 0C 0D 0E 0F
      -- -- -- -- -- -- -- --  -- -- -- -- -- -- -- --
03C0:                                            29 08                ).
03D0: 2D E0 0E 01 03 1D 2B 80  23 29 08 2D E0 0E 01 04  -.....+.#).-....
03E0: 29 08 2D E0 0E 01 05 1D  2C 80 23 29 08 2D E0 0E  ).-.....,.#).-..
03F0: 01 06 00                                          ...             
```

#### Opcodes

```
  0: 0x03CE [0x29] REQ_SET_WAIT(priority=0x08, entity_id=Ohbiru-Dohbiru (ID: 17752109/0x010EE02D), tag_num=0x03)
  1: 0x03D5 [0x1D] PRINT_EVENT_MESSAGE(message_id=8123*)
    → "But the $1 needed to carry out our enhancing work is running in short supply."
  2: 0x03D8 [0x23] WAIT_FOR_DIALOG_INTERACTION
  3: 0x03D9 [0x29] REQ_SET_WAIT(priority=0x08, entity_id=Ohbiru-Dohbiru (ID: 17752109/0x010EE02D), tag_num=0x04)
  4: 0x03E0 [0x29] REQ_SET_WAIT(priority=0x08, entity_id=Ohbiru-Dohbiru (ID: 17752109/0x010EE02D), tag_num=0x05)
  5: 0x03E7 [0x1D] PRINT_EVENT_MESSAGE(message_id=8124*)
    → "Could I dare ask you to obtain $1 for us? I must warn you, it involves going to some dangerous territory!"
  6: 0x03EA [0x23] WAIT_FOR_DIALOG_INTERACTION
  7: 0x03EB [0x29] REQ_SET_WAIT(priority=0x08, entity_id=Ohbiru-Dohbiru (ID: 17752109/0x010EE02D), tag_num=0x06)
  8: 0x03F2 [0x00] END_REQSTACK()
```

### Event 65535.23

#### Metadata

| Field        | Value    |
|--------------|----------|
| Entrypoint   | 0x03F3   |
| Data Size    | 19 bytes |
| Instructions | 5        |

```
      00 01 02 03 04 05 06 07  08 09 0A 0B 0C 0D 0E 0F
      -- -- -- -- -- -- -- --  -- -- -- -- -- -- -- --
03F0:          29 08 2D E0 0E  01 0D 1D 2D 80 23 29 08     ).-.....-.#).
0400: 2D E0 0E 01 0E 00                                 -.....          
```

#### Opcodes

```
  0: 0x03F3 [0x29] REQ_SET_WAIT(priority=0x08, entity_id=Ohbiru-Dohbiru (ID: 17752109/0x010EE02D), tag_num=0x0D)
  1: 0x03FA [0x1D] PRINT_EVENT_MESSAGE(message_id=8126*)
    → "Thank you. Please fill this canteen full of water from the springs at the back of Giddeus."
  2: 0x03FD [0x23] WAIT_FOR_DIALOG_INTERACTION
  3: 0x03FE [0x29] REQ_SET_WAIT(priority=0x08, entity_id=Ohbiru-Dohbiru (ID: 17752109/0x010EE02D), tag_num=0x0E)
  4: 0x0405 [0x00] END_REQSTACK()
```

### Event 65535.24

#### Metadata

| Field        | Value    |
|--------------|----------|
| Entrypoint   | 0x0406   |
| Data Size    | 19 bytes |
| Instructions | 5        |

```
      00 01 02 03 04 05 06 07  08 09 0A 0B 0C 0D 0E 0F
      -- -- -- -- -- -- -- --  -- -- -- -- -- -- -- --
0400:                   29 08  2D E0 0E 01 01 1D 2E 80        ).-.......
0410: 23 29 08 2D E0 0E 01 02  00                       #).-.....       
```

#### Opcodes

```
  0: 0x0406 [0x29] REQ_SET_WAIT(priority=0x08, entity_id=Ohbiru-Dohbiru (ID: 17752109/0x010EE02D), tag_num=0x01)
  1: 0x040D [0x1D] PRINT_EVENT_MESSAGE(message_id=8127*)
    → "The depths of Giddeus are indeed dangerous, so I don't blame you for backing out."
  2: 0x0410 [0x23] WAIT_FOR_DIALOG_INTERACTION
  3: 0x0411 [0x29] REQ_SET_WAIT(priority=0x08, entity_id=Ohbiru-Dohbiru (ID: 17752109/0x010EE02D), tag_num=0x02)
  4: 0x0418 [0x00] END_REQSTACK()
```

### Event 353

#### Metadata

| Field        | Value    |
|--------------|----------|
| Entrypoint   | 0x0419   |
| Data Size    | 33 bytes |
| Instructions | 12       |

```
      00 01 02 03 04 05 06 07  08 09 0A 0B 0C 0D 0E 0F
      -- -- -- -- -- -- -- --  -- -- -- -- -- -- -- --
0410:                             1E F0 FF FF 7F 6F 70           .....op
0420: 29 08 2D E0 0E 01 01 1D  2F 80 23 1D 30 80 23 29  ).-...../.#.0.#)
0430: 08 2D E0 0E 01 02 20 00  21 00                    .-.... .!.      
```

#### Opcodes

```
  0: 0x0419 [0x1E] EventEntity looks at LocalPlayer and starts talking
  1: 0x041E [0x6F] WAIT_FRAME_DELAY: Yield until WaitTime reaches zero
  2: 0x041F [0x70] WAIT_ENTITY_RENDER_FLAG: Wait while EventEntity->Render.Flags3 bit 2 is set (cancel turn if not)
  3: 0x0420 [0x29] REQ_SET_WAIT(priority=0x08, entity_id=Ohbiru-Dohbiru (ID: 17752109/0x010EE02D), tag_num=0x01)
  4: 0x0427 [0x1D] PRINT_EVENT_MESSAGE(message_id=8128*)
    → "Parts of Giddeus can get confusing, so I recommend you check a map as you go."
  5: 0x042A [0x23] WAIT_FOR_DIALOG_INTERACTION
  6: 0x042B [0x1D] PRINT_EVENT_MESSAGE(message_id=8129*)
    → "Ah, it would be unthinkable to try to go there alone. You should gather a few competent adventurer friends so you can travel together. But don't worry. Your remuneration will be most handsome."
  7: 0x042E [0x23] WAIT_FOR_DIALOG_INTERACTION
  8: 0x042F [0x29] REQ_SET_WAIT(priority=0x08, entity_id=Ohbiru-Dohbiru (ID: 17752109/0x010EE02D), tag_num=0x02)
  9: 0x0436 [0x20] SET_CLI_EVENT_UC_FLAG: Unlock player control
 10: 0x0438 [0x21] END_EVENT
 11: 0x0439 [0x00] END_REQSTACK()
```

### Event 354

#### Metadata

| Field        | Value    |
|--------------|----------|
| Entrypoint   | 0x043A   |
| Data Size    | 29 bytes |
| Instructions | 10       |

```
      00 01 02 03 04 05 06 07  08 09 0A 0B 0C 0D 0E 0F
      -- -- -- -- -- -- -- --  -- -- -- -- -- -- -- --
0430:                                1E F0 FF FF 7F 6F            .....o
0440: 70 29 08 2D E0 0E 01 01  1D 31 80 23 29 08 2D E0  p).-.....1.#).-.
0450: 0E 01 02 20 00 21 00                              ... .!.         
```

#### Opcodes

```
  0: 0x043A [0x1E] EventEntity looks at LocalPlayer and starts talking
  1: 0x043F [0x6F] WAIT_FRAME_DELAY: Yield until WaitTime reaches zero
  2: 0x0440 [0x70] WAIT_ENTITY_RENDER_FLAG: Wait while EventEntity->Render.Flags3 bit 2 is set (cancel turn if not)
  3: 0x0441 [0x29] REQ_SET_WAIT(priority=0x08, entity_id=Ohbiru-Dohbiru (ID: 17752109/0x010EE02D), tag_num=0x01)
  4: 0x0448 [0x1D] PRINT_EVENT_MESSAGE(message_id=8130*)
    → "What? You lost my canteen? Here, take another. But be more careful with people's things, okay?"
  5: 0x044B [0x23] WAIT_FOR_DIALOG_INTERACTION
  6: 0x044C [0x29] REQ_SET_WAIT(priority=0x08, entity_id=Ohbiru-Dohbiru (ID: 17752109/0x010EE02D), tag_num=0x02)
  7: 0x0453 [0x20] SET_CLI_EVENT_UC_FLAG: Unlock player control
  8: 0x0455 [0x21] END_EVENT
  9: 0x0456 [0x00] END_REQSTACK()
```

### Event 355

#### Metadata

| Field        | Value    |
|--------------|----------|
| Entrypoint   | 0x0457   |
| Data Size    | 41 bytes |
| Instructions | 11       |

```
      00 01 02 03 04 05 06 07  08 09 0A 0B 0C 0D 0E 0F
      -- -- -- -- -- -- -- --  -- -- -- -- -- -- -- --
0450:                      20  01 42 1E F0 FF FF 7F 6F          .B.....o
0460: 70 29 0B 2D E0 0E 01 2B  45 17 80 F0 FF FF 7F F0  p).-...+E.......
0470: FF FF 7F 71 73 74 63 18  80 48 19 80 20 00 21 00  ...qstc..H.. .!.
```

#### Opcodes

```
  0: 0x0457 [0x20] SET_CLI_EVENT_UC_FLAG: Lock player control
  1: 0x0459 [0x42] SET_CLI_EVENT_CANCEL_DATA()
  2: 0x045A [0x1E] EventEntity looks at LocalPlayer and starts talking
  3: 0x045F [0x6F] WAIT_FRAME_DELAY: Yield until WaitTime reaches zero
  4: 0x0460 [0x70] WAIT_ENTITY_RENDER_FLAG: Wait while EventEntity->Render.Flags3 bit 2 is set (cancel turn if not)
  5: 0x0461 [0x29] REQ_SET_WAIT(priority=0x0B, entity_id=Ohbiru-Dohbiru (ID: 17752109/0x010EE02D), tag_num=0x2B)
  6: 0x0468 [0x45] LOAD_SCHEDULED_TASK: Load scheduler "qstc" with entities [LocalPlayer, LocalPlayer], work=[201*, 0*]
  7: 0x0479 [0x48] [System] [6552*]:
    → "Obtained $0 gil."
  8: 0x047C [0x20] SET_CLI_EVENT_UC_FLAG: Unlock player control
  9: 0x047E [0x21] END_EVENT
 10: 0x047F [0x00] END_REQSTACK()
```

### Event 65535.25

#### Metadata

| Field        | Value    |
|--------------|----------|
| Entrypoint   | 0x0480   |
| Data Size    | 41 bytes |
| Instructions | 11       |

```
      00 01 02 03 04 05 06 07  08 09 0A 0B 0C 0D 0E 0F
      -- -- -- -- -- -- -- --  -- -- -- -- -- -- -- --
0480: 29 08 2D E0 0E 01 01 1D  32 80 23 1D 33 80 23 29  ).-.....2.#.3.#)
0490: 08 2D E0 0E 01 02 29 08  2D E0 0E 01 0D 1D 34 80  .-....).-.....4.
04A0: 23 29 08 2D E0 0E 01 0E  00                       #).-.....       
```

#### Opcodes

```
  0: 0x0480 [0x29] REQ_SET_WAIT(priority=0x08, entity_id=Ohbiru-Dohbiru (ID: 17752109/0x010EE02D), tag_num=0x01)
  1: 0x0487 [0x1D] PRINT_EVENT_MESSAGE(message_id=8131*)
    → "Oh! Well done!"
  2: 0x048A [0x23] WAIT_FOR_DIALOG_INTERACTION
  3: 0x048B [0x1D] PRINT_EVENT_MESSAGE(message_id=8132*)
    → "Right on time, too. I was down to my last drop."
  4: 0x048E [0x23] WAIT_FOR_DIALOG_INTERACTION
  5: 0x048F [0x29] REQ_SET_WAIT(priority=0x08, entity_id=Ohbiru-Dohbiru (ID: 17752109/0x010EE02D), tag_num=0x02)
  6: 0x0496 [0x29] REQ_SET_WAIT(priority=0x08, entity_id=Ohbiru-Dohbiru (ID: 17752109/0x010EE02D), tag_num=0x0D)
  7: 0x049D [0x1D] PRINT_EVENT_MESSAGE(message_id=8133*)
    → "Here's your remuneration. Please help us out again the next time our supply dwindles."
  8: 0x04A0 [0x23] WAIT_FOR_DIALOG_INTERACTION
  9: 0x04A1 [0x29] REQ_SET_WAIT(priority=0x08, entity_id=Ohbiru-Dohbiru (ID: 17752109/0x010EE02D), tag_num=0x0E)
 10: 0x04A8 [0x00] END_REQSTACK()
```

### Event 356

#### Metadata

| Field        | Value    |
|--------------|----------|
| Entrypoint   | 0x04A9   |
| Data Size    | 33 bytes |
| Instructions | 12       |

```
      00 01 02 03 04 05 06 07  08 09 0A 0B 0C 0D 0E 0F
      -- -- -- -- -- -- -- --  -- -- -- -- -- -- -- --
04A0:                             1E F0 FF FF 7F 6F 70           .....op
04B0: 29 08 2D E0 0E 01 01 1D  35 80 23 1D 36 80 23 29  ).-.....5.#.6.#)
04C0: 08 2D E0 0E 01 02 20 00  21 00                    .-.... .!.      
```

#### Opcodes

```
  0: 0x04A9 [0x1E] EventEntity looks at LocalPlayer and starts talking
  1: 0x04AE [0x6F] WAIT_FRAME_DELAY: Yield until WaitTime reaches zero
  2: 0x04AF [0x70] WAIT_ENTITY_RENDER_FLAG: Wait while EventEntity->Render.Flags3 bit 2 is set (cancel turn if not)
  3: 0x04B0 [0x29] REQ_SET_WAIT(priority=0x08, entity_id=Ohbiru-Dohbiru (ID: 17752109/0x010EE02D), tag_num=0x01)
  4: 0x04B7 [0x1D] PRINT_EVENT_MESSAGE(message_id=8134*)
    → "Currently, we can only obtain $1 from the springs at the back of Giddeus. However, the magic of that water has weakened considerably."
  5: 0x04BA [0x23] WAIT_FOR_DIALOG_INTERACTION
  6: 0x04BB [0x1D] PRINT_EVENT_MESSAGE(message_id=8135*)
    → "We used to be able to find stronger magic water in another place, but that was before the war..."
  7: 0x04BE [0x23] WAIT_FOR_DIALOG_INTERACTION
  8: 0x04BF [0x29] REQ_SET_WAIT(priority=0x08, entity_id=Ohbiru-Dohbiru (ID: 17752109/0x010EE02D), tag_num=0x02)
  9: 0x04C6 [0x20] SET_CLI_EVENT_UC_FLAG: Unlock player control
 10: 0x04C8 [0x21] END_EVENT
 11: 0x04C9 [0x00] END_REQSTACK()
```

### Event 516

#### Metadata

| Field        | Value     |
|--------------|-----------|
| Entrypoint   | 0x04CA    |
| Data Size    | 978 bytes |
| Instructions | 185       |

```
      00 01 02 03 04 05 06 07  08 09 0A 0B 0C 0D 0E 0F
      -- -- -- -- -- -- -- --  -- -- -- -- -- -- -- --
04C0:                                1E F0 FF FF 7F 6F            .....o
04D0: 70 29 0B 2D E0 0E 01 2E  24 37 80 18 80 18 80 25  p).-....$7.....%
04E0: 02 00 10 18 80 00 F0 04  03 00 00 18 80 01 10 05  ................
04F0: 02 00 10 16 80 00 00 05  03 00 00 16 80 01 10 05  ................
0500: 02 00 10 38 80 00 10 05  03 00 00 38 80 01 10 05  ...8.......8....
0510: 24 39 80 18 80 18 80 25  02 00 10 18 80 00 28 05  $9.....%......(.
0520: 03 01 00 18 80 01 48 05  02 00 10 16 80 00 38 05  ......H.......8.
0530: 03 01 00 16 80 01 48 05  02 00 10 38 80 00 48 05  ......H....8..H.
0540: 03 01 00 38 80 01 48 05  24 3A 80 18 80 18 80 25  ...8..H.$:.....%
0550: 02 00 10 18 80 00 60 05  03 02 00 18 80 01 80 05  ......`.........
0560: 02 00 10 16 80 00 70 05  03 02 00 16 80 01 80 05  ......p.........
0570: 02 00 10 38 80 00 80 05  03 02 00 38 80 01 80 05  ...8.......8....
0580: 02 00 00 18 80 80 3C 06  02 01 00 18 80 80 C3 05  ......<.........
0590: 02 02 00 18 80 80 A0 05  03 01 10 18 80 01 C0 05  ................
05A0: 02 02 00 16 80 80 B0 05  03 01 10 3B 80 01 C0 05  ...........;....
05B0: 02 02 00 38 80 80 C0 05  03 01 10 38 80 01 C0 05  ...8.......8....
05C0: 01 39 06 02 01 00 16 80  80 FE 05 02 02 00 18 80  .9..............
05D0: 80 DB 05 03 01 10 3B 80  01 FB 05 02 02 00 16 80  ......;.........
05E0: 80 EB 05 03 01 10 3B 80  01 FB 05 02 02 00 38 80  ......;.......8.
05F0: 80 FB 05 03 01 10 3B 80  01 FB 05 01 39 06 02 01  ......;.....9...
0600: 00 38 80 80 39 06 02 02  00 18 80 80 16 06 03 01  .8..9...........
0610: 10 38 80 01 36 06 02 02  00 16 80 80 26 06 03 01  .8..6.......&...
0620: 10 38 80 01 36 06 02 02  00 38 80 80 36 06 03 01  .8..6....8..6...
0630: 10 18 80 01 36 06 01 39  06 01 01 08 02 00 00 16  ....6..9........
0640: 80 80 F8 06 02 01 00 18  80 80 7F 06 02 02 00 18  ................
0650: 80 80 5C 06 03 01 10 18  80 01 7C 06 02 02 00 16  ..\.......|.....
0660: 80 80 6C 06 03 01 10 38  80 01 7C 06 02 02 00 38  ..l....8..|....8
0670: 80 80 7C 06 03 01 10 3C  80 01 7C 06 01 F5 06 02  ..|....<..|.....
0680: 01 00 16 80 80 BA 06 02  02 00 18 80 80 97 06 03  ................
0690: 01 10 3D 80 01 B7 06 02  02 00 16 80 80 A7 06 03  ..=.............
06A0: 01 10 3B 80 01 B7 06 02  02 00 38 80 80 B7 06 03  ..;.......8.....
06B0: 01 10 3D 80 01 B7 06 01  F5 06 02 01 00 38 80 80  ..=..........8..
06C0: F5 06 02 02 00 18 80 80  D2 06 03 01 10 18 80 01  ................
06D0: F2 06 02 02 00 16 80 80  E2 06 03 01 10 38 80 01  .............8..
06E0: F2 06 02 02 00 38 80 80  F2 06 03 01 10 3D 80 01  .....8.......=..
06F0: F2 06 01 F5 06 01 01 08  02 00 00 38 80 80 01 08  ...........8....
0700: 02 01 00 18 80 80 88 07  02 02 00 18 80 80 18 07  ................
0710: 03 01 10 16 80 01 85 07  02 02 00 16 80 80 75 07  ..............u.
0720: 03 01 10 3E 80 29 0B 2D  E0 0E 01 33 4A 2D E0 0E  ...>.).-...3J-..
0730: 01 2E E0 0E 01 6F 76 F8  FF FF 7F 29 0B 2D E0 0E  .....ov....).-..
0740: 01 34 4A 2E E0 0E 01 2D  E0 0E 01 6F 76 2E E0 0E  .4J....-...ov...
0750: 01 29 0B 2E E0 0E 01 2E  4A 2D E0 0E 01 F0 FF FF  .)......J-......
0760: 7F 6F 76 F8 FF FF 7F 29  0B 2D E0 0E 01 35 20 00  .ov....).-...5 .
0770: 21 00 01 85 07 02 02 00  38 80 80 85 07 03 01 10  !.......8.......
0780: 3C 80 01 85 07 01 FE 07  02 01 00 16 80 80 C3 07  <...............
0790: 02 02 00 18 80 80 A0 07  03 01 10 16 80 01 C0 07  ................
07A0: 02 02 00 16 80 80 B0 07  03 01 10 3C 80 01 C0 07  ...........<....
07B0: 02 02 00 38 80 80 C0 07  03 01 10 16 80 01 C0 07  ...8............
07C0: 01 FE 07 02 01 00 38 80  80 FE 07 02 02 00 18 80  ......8.........
07D0: 80 DB 07 03 01 10 3C 80  01 FB 07 02 02 00 16 80  ......<.........
07E0: 80 EB 07 03 01 10 3D 80  01 FB 07 02 02 00 38 80  ......=.......8.
07F0: 80 FB 07 03 01 10 3D 80  01 FB 07 01 FE 07 01 01  ......=.........
0800: 08 02 01 10 18 80 00 16  08 03 03 10 3F 80 03 07  ............?...
0810: 10 40 80 01 91 08 02 01  10 16 80 00 2B 08 03 03  .@..........+...
0820: 10 41 80 03 07 10 42 80  01 91 08 02 01 10 38 80  .A....B.......8.
0830: 00 40 08 03 03 10 43 80  03 07 10 44 80 01 91 08  .@....C....D....
0840: 02 01 10 3B 80 00 55 08  03 03 10 45 80 03 07 10  ...;..U....E....
0850: 46 80 01 91 08 02 01 10  3C 80 00 6A 08 03 03 10  F.......<..j....
0860: 47 80 03 07 10 42 80 01  91 08 02 01 10 3D 80 00  G....B.......=..
0870: 7F 08 03 03 10 48 80 03  07 10 49 80 01 91 08 02  .....H....I.....
0880: 01 10 4A 80 00 91 08 03  03 10 4B 80 03 07 10 49  ..J.......K....I
0890: 80 29 0B 2D E0 0E 01 2F  20 00 21 00              .).-.../ .!.    
```

#### Opcodes

```
  0: 0x04CA [0x1E] EventEntity looks at LocalPlayer and starts talking
  1: 0x04CF [0x6F] WAIT_FRAME_DELAY: Yield until WaitTime reaches zero
  2: 0x04D0 [0x70] WAIT_ENTITY_RENDER_FLAG: Wait while EventEntity->Render.Flags3 bit 2 is set (cancel turn if not)
  3: 0x04D1 [0x29] REQ_SET_WAIT(priority=0x0B, entity_id=Ohbiru-Dohbiru (ID: 17752109/0x010EE02D), tag_num=0x2E)
  4: 0x04D8 [0x24] CREATE_DIALOG(message_id=8552*, default_option=0*, option_flags=0*)
    → "Firstly-wirstly...? [The brightest.../The fragrentest.../The rarest...]"
  5: 0x04DF [0x25] WAIT_DIALOG_SELECT()
  6: 0x04E0 [0x02] IF !(Work_Zone[0] == 0*) GOTO 0x04F0
  7: 0x04E8 [0x03] ExtData[1]->WorkLocal[0] = 0*
  8: 0x04ED [0x01] GOTO 0x0510
  9: 0x04F0 [0x02] IF !(Work_Zone[0] == 1*) GOTO 0x0500
 10: 0x04F8 [0x03] ExtData[1]->WorkLocal[0] = 1*
 11: 0x04FD [0x01] GOTO 0x0510
 12: 0x0500 [0x02] IF !(Work_Zone[0] == 2*) GOTO 0x0510
 13: 0x0508 [0x03] ExtData[1]->WorkLocal[0] = 2*
 14: 0x050D [0x01] GOTO 0x0510

SUBROUTINE_0510:
 15: 0x0510 [0x24] CREATE_DIALOG(message_id=8553*, default_option=0*, option_flags=0*)
    → "Secondly-wecondly... [The mysticalest.../The cheeriest.../The beautifulest...]"
 16: 0x0517 [0x25] WAIT_DIALOG_SELECT()
 17: 0x0518 [0x02] IF !(Work_Zone[0] == 0*) GOTO 0x0528
 18: 0x0520 [0x03] ExtData[1]->WorkLocal[1] = 0*
 19: 0x0525 [0x01] GOTO 0x0548
 20: 0x0528 [0x02] IF !(Work_Zone[0] == 1*) GOTO 0x0538
 21: 0x0530 [0x03] ExtData[1]->WorkLocal[1] = 1*
 22: 0x0535 [0x01] GOTO 0x0548
 23: 0x0538 [0x02] IF !(Work_Zone[0] == 2*) GOTO 0x0548
 24: 0x0540 [0x03] ExtData[1]->WorkLocal[1] = 2*
 25: 0x0545 [0x01] GOTO 0x0548

SUBROUTINE_0548:
 26: 0x0548 [0x24] CREATE_DIALOG(message_id=8554*, default_option=0*, option_flags=0*)
    → "And, thirdly-wirdly... [The remarkablest flower./The elegantest flower./The popularest flower.]"
 27: 0x054F [0x25] WAIT_DIALOG_SELECT()
 28: 0x0550 [0x02] IF !(Work_Zone[0] == 0*) GOTO 0x0560
 29: 0x0558 [0x03] ExtData[1]->WorkLocal[2] = 0*
 30: 0x055D [0x01] GOTO 0x0580
 31: 0x0560 [0x02] IF !(Work_Zone[0] == 1*) GOTO 0x0570
 32: 0x0568 [0x03] ExtData[1]->WorkLocal[2] = 1*
 33: 0x056D [0x01] GOTO 0x0580
 34: 0x0570 [0x02] IF !(Work_Zone[0] == 2*) GOTO 0x0580
 35: 0x0578 [0x03] ExtData[1]->WorkLocal[2] = 2*
 36: 0x057D [0x01] GOTO 0x0580

SUBROUTINE_0580:
 37: 0x0580 [0x02] IF !(ExtData[1]->WorkLocal[0] == 0*) GOTO 0x063C
 38: 0x0588 [0x02] IF !(ExtData[1]->WorkLocal[1] == 0*) GOTO 0x05C3
 39: 0x0590 [0x02] IF !(ExtData[1]->WorkLocal[2] == 0*) GOTO 0x05A0
 40: 0x0598 [0x03] Work_Zone[1] = 0*
 41: 0x059D [0x01] GOTO 0x05C0
 42: 0x05A0 [0x02] IF !(ExtData[1]->WorkLocal[2] == 1*) GOTO 0x05B0
 43: 0x05A8 [0x03] Work_Zone[1] = 3*
 44: 0x05AD [0x01] GOTO 0x05C0
 45: 0x05B0 [0x02] IF !(ExtData[1]->WorkLocal[2] == 2*) GOTO 0x05C0
 46: 0x05B8 [0x03] Work_Zone[1] = 2*
 47: 0x05BD [0x01] GOTO 0x05C0

SUBROUTINE_05C0:
 48: 0x05C0 [0x01] GOTO 0x0639
 49: 0x05C3 [0x02] IF !(ExtData[1]->WorkLocal[1] == 1*) GOTO 0x05FE
 50: 0x05CB [0x02] IF !(ExtData[1]->WorkLocal[2] == 0*) GOTO 0x05DB
 51: 0x05D3 [0x03] Work_Zone[1] = 3*
 52: 0x05D8 [0x01] GOTO 0x05FB
 53: 0x05DB [0x02] IF !(ExtData[1]->WorkLocal[2] == 1*) GOTO 0x05EB
 54: 0x05E3 [0x03] Work_Zone[1] = 3*
 55: 0x05E8 [0x01] GOTO 0x05FB
 56: 0x05EB [0x02] IF !(ExtData[1]->WorkLocal[2] == 2*) GOTO 0x05FB
 57: 0x05F3 [0x03] Work_Zone[1] = 3*
 58: 0x05F8 [0x01] GOTO 0x05FB

SUBROUTINE_05FB:
 59: 0x05FB [0x01] GOTO 0x0639
 60: 0x05FE [0x02] IF !(ExtData[1]->WorkLocal[1] == 2*) GOTO 0x0639
 61: 0x0606 [0x02] IF !(ExtData[1]->WorkLocal[2] == 0*) GOTO 0x0616
 62: 0x060E [0x03] Work_Zone[1] = 2*
 63: 0x0613 [0x01] GOTO 0x0636
 64: 0x0616 [0x02] IF !(ExtData[1]->WorkLocal[2] == 1*) GOTO 0x0626
 65: 0x061E [0x03] Work_Zone[1] = 2*
 66: 0x0623 [0x01] GOTO 0x0636
 67: 0x0626 [0x02] IF !(ExtData[1]->WorkLocal[2] == 2*) GOTO 0x0636
 68: 0x062E [0x03] Work_Zone[1] = 0*
 69: 0x0633 [0x01] GOTO 0x0636

SUBROUTINE_0636:
 70: 0x0636 [0x01] GOTO 0x0639

SUBROUTINE_0639:
 71: 0x0639 [0x01] GOTO 0x0801
 72: 0x063C [0x02] IF !(ExtData[1]->WorkLocal[0] == 1*) GOTO 0x06F8
 73: 0x0644 [0x02] IF !(ExtData[1]->WorkLocal[1] == 0*) GOTO 0x067F
 74: 0x064C [0x02] IF !(ExtData[1]->WorkLocal[2] == 0*) GOTO 0x065C
 75: 0x0654 [0x03] Work_Zone[1] = 0*
 76: 0x0659 [0x01] GOTO 0x067C
 77: 0x065C [0x02] IF !(ExtData[1]->WorkLocal[2] == 1*) GOTO 0x066C
 78: 0x0664 [0x03] Work_Zone[1] = 2*
 79: 0x0669 [0x01] GOTO 0x067C
 80: 0x066C [0x02] IF !(ExtData[1]->WorkLocal[2] == 2*) GOTO 0x067C
 81: 0x0674 [0x03] Work_Zone[1] = 4*
 82: 0x0679 [0x01] GOTO 0x067C

SUBROUTINE_067C:
 83: 0x067C [0x01] GOTO 0x06F5
 84: 0x067F [0x02] IF !(ExtData[1]->WorkLocal[1] == 1*) GOTO 0x06BA
 85: 0x0687 [0x02] IF !(ExtData[1]->WorkLocal[2] == 0*) GOTO 0x0697
 86: 0x068F [0x03] Work_Zone[1] = 5*
 87: 0x0694 [0x01] GOTO 0x06B7
 88: 0x0697 [0x02] IF !(ExtData[1]->WorkLocal[2] == 1*) GOTO 0x06A7
 89: 0x069F [0x03] Work_Zone[1] = 3*
 90: 0x06A4 [0x01] GOTO 0x06B7
 91: 0x06A7 [0x02] IF !(ExtData[1]->WorkLocal[2] == 2*) GOTO 0x06B7
 92: 0x06AF [0x03] Work_Zone[1] = 5*
 93: 0x06B4 [0x01] GOTO 0x06B7

SUBROUTINE_06B7:
 94: 0x06B7 [0x01] GOTO 0x06F5
 95: 0x06BA [0x02] IF !(ExtData[1]->WorkLocal[1] == 2*) GOTO 0x06F5
 96: 0x06C2 [0x02] IF !(ExtData[1]->WorkLocal[2] == 0*) GOTO 0x06D2
 97: 0x06CA [0x03] Work_Zone[1] = 0*
 98: 0x06CF [0x01] GOTO 0x06F2
 99: 0x06D2 [0x02] IF !(ExtData[1]->WorkLocal[2] == 1*) GOTO 0x06E2
100: 0x06DA [0x03] Work_Zone[1] = 2*
101: 0x06DF [0x01] GOTO 0x06F2
102: 0x06E2 [0x02] IF !(ExtData[1]->WorkLocal[2] == 2*) GOTO 0x06F2
103: 0x06EA [0x03] Work_Zone[1] = 5*
104: 0x06EF [0x01] GOTO 0x06F2

SUBROUTINE_06F2:
105: 0x06F2 [0x01] GOTO 0x06F5

SUBROUTINE_06F5:
106: 0x06F5 [0x01] GOTO 0x0801
107: 0x06F8 [0x02] IF !(ExtData[1]->WorkLocal[0] == 2*) GOTO 0x0801
108: 0x0700 [0x02] IF !(ExtData[1]->WorkLocal[1] == 0*) GOTO 0x0788
109: 0x0708 [0x02] IF !(ExtData[1]->WorkLocal[2] == 0*) GOTO 0x0718
110: 0x0710 [0x03] Work_Zone[1] = 1*
111: 0x0715 [0x01] GOTO 0x0785
112: 0x0718 [0x02] IF !(ExtData[1]->WorkLocal[2] == 1*) GOTO 0x0775
113: 0x0720 [0x03] Work_Zone[1] = 7*
114: 0x0725 [0x29] REQ_SET_WAIT(priority=0x0B, entity_id=Ohbiru-Dohbiru (ID: 17752109/0x010EE02D), tag_num=0x33)
115: 0x072C [0x4A] Ohbiru-Dohbiru (ID: 17752109/0x010EE02D) looks at Kenapa-Keppa (ID: 17752110/0x010EE02E)
116: 0x0735 [0x6F] WAIT_FRAME_DELAY: Yield until WaitTime reaches zero
117: 0x0736 [0x76] CHECK_ENTITY_RENDER_FLAGS: Wait until EventEntity Render.Flags0 and Render.Flags3 conditions are met
118: 0x073B [0x29] REQ_SET_WAIT(priority=0x0B, entity_id=Ohbiru-Dohbiru (ID: 17752109/0x010EE02D), tag_num=0x34)
119: 0x0742 [0x4A] Kenapa-Keppa (ID: 17752110/0x010EE02E) looks at Ohbiru-Dohbiru (ID: 17752109/0x010EE02D)
120: 0x074B [0x6F] WAIT_FRAME_DELAY: Yield until WaitTime reaches zero
121: 0x074C [0x76] CHECK_ENTITY_RENDER_FLAGS: Wait until Kenapa-Keppa (ID: 17752110/0x010EE02E) Render.Flags0 and Render.Flags3 conditions are met
122: 0x0751 [0x29] REQ_SET_WAIT(priority=0x0B, entity_id=Kenapa-Keppa (ID: 17752110/0x010EE02E), tag_num=0x2E)
123: 0x0758 [0x4A] Ohbiru-Dohbiru (ID: 17752109/0x010EE02D) looks at LocalPlayer
124: 0x0761 [0x6F] WAIT_FRAME_DELAY: Yield until WaitTime reaches zero
125: 0x0762 [0x76] CHECK_ENTITY_RENDER_FLAGS: Wait until EventEntity Render.Flags0 and Render.Flags3 conditions are met
126: 0x0767 [0x29] REQ_SET_WAIT(priority=0x0B, entity_id=Ohbiru-Dohbiru (ID: 17752109/0x010EE02D), tag_num=0x35)
127: 0x076E [0x20] SET_CLI_EVENT_UC_FLAG: Unlock player control
128: 0x0770 [0x21] END_EVENT
129: 0x0771 [0x00] END_REQSTACK()

SUBROUTINE_0785:
130: 0x0785 [0x01] GOTO 0x07FE
131: 0x0788 [0x02] IF !(ExtData[1]->WorkLocal[1] == 1*) GOTO 0x07C3
132: 0x0790 [0x02] IF !(ExtData[1]->WorkLocal[2] == 0*) GOTO 0x07A0
133: 0x0798 [0x03] Work_Zone[1] = 1*
134: 0x079D [0x01] GOTO 0x07C0
135: 0x07A0 [0x02] IF !(ExtData[1]->WorkLocal[2] == 1*) GOTO 0x07B0
136: 0x07A8 [0x03] Work_Zone[1] = 4*
137: 0x07AD [0x01] GOTO 0x07C0
138: 0x07B0 [0x02] IF !(ExtData[1]->WorkLocal[2] == 2*) GOTO 0x07C0
139: 0x07B8 [0x03] Work_Zone[1] = 1*
140: 0x07BD [0x01] GOTO 0x07C0

SUBROUTINE_07C0:
141: 0x07C0 [0x01] GOTO 0x07FE
142: 0x07C3 [0x02] IF !(ExtData[1]->WorkLocal[1] == 2*) GOTO 0x07FE
143: 0x07CB [0x02] IF !(ExtData[1]->WorkLocal[2] == 0*) GOTO 0x07DB
144: 0x07D3 [0x03] Work_Zone[1] = 4*
145: 0x07D8 [0x01] GOTO 0x07FB
146: 0x07DB [0x02] IF !(ExtData[1]->WorkLocal[2] == 1*) GOTO 0x07EB
147: 0x07E3 [0x03] Work_Zone[1] = 5*
148: 0x07E8 [0x01] GOTO 0x07FB
149: 0x07EB [0x02] IF !(ExtData[1]->WorkLocal[2] == 2*) GOTO 0x07FB
150: 0x07F3 [0x03] Work_Zone[1] = 5*
151: 0x07F8 [0x01] GOTO 0x07FB

SUBROUTINE_07FB:
152: 0x07FB [0x01] GOTO 0x07FE

SUBROUTINE_07FE:
153: 0x07FE [0x01] GOTO 0x0801

SUBROUTINE_0801:
154: 0x0801 [0x02] IF !(Work_Zone[1] == 0*) GOTO 0x0816
155: 0x0809 [0x03] Work_Zone[3] = 948*
156: 0x080E [0x03] Work_Zone[7] = 300*
157: 0x0813 [0x01] GOTO 0x0891
158: 0x0816 [0x02] IF !(Work_Zone[1] == 1*) GOTO 0x082B
159: 0x081E [0x03] Work_Zone[3] = 941*
160: 0x0823 [0x03] Work_Zone[7] = 200*
161: 0x0828 [0x01] GOTO 0x0891
162: 0x082B [0x02] IF !(Work_Zone[1] == 2*) GOTO 0x0840
163: 0x0833 [0x03] Work_Zone[3] = 949*
164: 0x0838 [0x03] Work_Zone[7] = 250*
165: 0x083D [0x01] GOTO 0x0891
166: 0x0840 [0x02] IF !(Work_Zone[1] == 3*) GOTO 0x0855
167: 0x0848 [0x03] Work_Zone[3] = 956*
168: 0x084D [0x03] Work_Zone[7] = 150*
169: 0x0852 [0x01] GOTO 0x0891
170: 0x0855 [0x02] IF !(Work_Zone[1] == 4*) GOTO 0x086A
171: 0x085D [0x03] Work_Zone[3] = 957*
172: 0x0862 [0x03] Work_Zone[7] = 200*
173: 0x0867 [0x01] GOTO 0x0891
174: 0x086A [0x02] IF !(Work_Zone[1] == 5*) GOTO 0x087F
175: 0x0872 [0x03] Work_Zone[3] = 958*
176: 0x0877 [0x03] Work_Zone[7] = 100*
177: 0x087C [0x01] GOTO 0x0891
178: 0x087F [0x02] IF !(Work_Zone[1] == 6*) GOTO 0x0891
179: 0x0887 [0x03] Work_Zone[3] = 959*
180: 0x088C [0x03] Work_Zone[7] = 100*

SUBROUTINE_0891:
181: 0x0891 [0x29] REQ_SET_WAIT(priority=0x0B, entity_id=Ohbiru-Dohbiru (ID: 17752109/0x010EE02D), tag_num=0x2F)
182: 0x0898 [0x20] SET_CLI_EVENT_UC_FLAG: Unlock player control
183: 0x089A [0x21] END_EVENT
184: 0x089B [0x00] END_REQSTACK()
```

#### Data or dead code:

```
# Dead code (unreachable instructions):
     0x0772 [0x01] GOTO 0x0785
```

### Event 65535.26

#### Metadata

| Field        | Value    |
|--------------|----------|
| Entrypoint   | 0x089C   |
| Data Size    | 19 bytes |
| Instructions | 5        |

```
      00 01 02 03 04 05 06 07  08 09 0A 0B 0C 0D 0E 0F
      -- -- -- -- -- -- -- --  -- -- -- -- -- -- -- --
0890:                                      29 08 2D E0              ).-.
08A0: 0E 01 01 1D 4C 80 23 29  08 2D E0 0E 01 02 00     ....L.#).-..... 
```

#### Opcodes

```
  0: 0x089C [0x29] REQ_SET_WAIT(priority=0x08, entity_id=Ohbiru-Dohbiru (ID: 17752109/0x010EE02D), tag_num=0x01)
  1: 0x08A3 [0x1D] PRINT_EVENT_MESSAGE(message_id=8551*)
    → "You want a flower? What kind do you want?"
  2: 0x08A6 [0x23] WAIT_FOR_DIALOG_INTERACTION
  3: 0x08A7 [0x29] REQ_SET_WAIT(priority=0x08, entity_id=Ohbiru-Dohbiru (ID: 17752109/0x010EE02D), tag_num=0x02)
  4: 0x08AE [0x00] END_REQSTACK()
```

### Event 65535.27

#### Metadata

| Field        | Value    |
|--------------|----------|
| Entrypoint   | 0x08AF   |
| Data Size    | 19 bytes |
| Instructions | 5        |

```
      00 01 02 03 04 05 06 07  08 09 0A 0B 0C 0D 0E 0F
      -- -- -- -- -- -- -- --  -- -- -- -- -- -- -- --
08A0:                                               29                 )
08B0: 08 2D E0 0E 01 0B 1D 4D  80 23 29 08 2D E0 0E 01  .-.....M.#).-...
08C0: 0C 00                                             ..              
```

#### Opcodes

```
  0: 0x08AF [0x29] REQ_SET_WAIT(priority=0x08, entity_id=Ohbiru-Dohbiru (ID: 17752109/0x010EE02D), tag_num=0x0B)
  1: 0x08B6 [0x1D] PRINT_EVENT_MESSAGE(message_id=8555*)
    → "Well then, that'll be $1. Here, it's $5 gil, please."
  2: 0x08B9 [0x23] WAIT_FOR_DIALOG_INTERACTION
  3: 0x08BA [0x29] REQ_SET_WAIT(priority=0x08, entity_id=Ohbiru-Dohbiru (ID: 17752109/0x010EE02D), tag_num=0x0C)
  4: 0x08C1 [0x00] END_REQSTACK()
```

### Event 65535.28

#### Metadata

| Field        | Value    |
|--------------|----------|
| Entrypoint   | 0x08C2   |
| Data Size    | 19 bytes |
| Instructions | 5        |

```
      00 01 02 03 04 05 06 07  08 09 0A 0B 0C 0D 0E 0F
      -- -- -- -- -- -- -- --  -- -- -- -- -- -- -- --
08C0:       29 08 2D E0 0E 01  0B 1D 4E 80 23 29 08 2D    ).-.....N.#).-
08D0: E0 0E 01 0C 00                                    .....           
```

#### Opcodes

```
  0: 0x08C2 [0x29] REQ_SET_WAIT(priority=0x08, entity_id=Ohbiru-Dohbiru (ID: 17752109/0x010EE02D), tag_num=0x0B)
  1: 0x08C9 [0x1D] PRINT_EVENT_MESSAGE(message_id=8556*)
    → "Alright, $2 it is then. Here, that'll be $6 gil, please."
  2: 0x08CC [0x23] WAIT_FOR_DIALOG_INTERACTION
  3: 0x08CD [0x29] REQ_SET_WAIT(priority=0x08, entity_id=Ohbiru-Dohbiru (ID: 17752109/0x010EE02D), tag_num=0x0C)
  4: 0x08D4 [0x00] END_REQSTACK()
```

### Event 65535.29

#### Metadata

| Field        | Value    |
|--------------|----------|
| Entrypoint   | 0x08D5   |
| Data Size    | 19 bytes |
| Instructions | 5        |

```
      00 01 02 03 04 05 06 07  08 09 0A 0B 0C 0D 0E 0F
      -- -- -- -- -- -- -- --  -- -- -- -- -- -- -- --
08D0:                29 08 2D  E0 0E 01 0B 1D 4F 80 23       ).-.....O.#
08E0: 29 08 2D E0 0E 01 0C 00                           ).-.....        
```

#### Opcodes

```
  0: 0x08D5 [0x29] REQ_SET_WAIT(priority=0x08, entity_id=Ohbiru-Dohbiru (ID: 17752109/0x010EE02D), tag_num=0x0B)
  1: 0x08DC [0x1D] PRINT_EVENT_MESSAGE(message_id=8557*)
    → "So, you'll be wanting $3, then. Here, that's $7 gil, thank you."
  2: 0x08DF [0x23] WAIT_FOR_DIALOG_INTERACTION
  3: 0x08E0 [0x29] REQ_SET_WAIT(priority=0x08, entity_id=Ohbiru-Dohbiru (ID: 17752109/0x010EE02D), tag_num=0x0C)
  4: 0x08E7 [0x00] END_REQSTACK()
```

### Event 65535.30

#### Metadata

| Field        | Value   |
|--------------|---------|
| Entrypoint   | 0x08E8  |
| Data Size    | 5 bytes |
| Instructions | 3       |

```
      00 01 02 03 04 05 06 07  08 09 0A 0B 0C 0D 0E 0F
      -- -- -- -- -- -- -- --  -- -- -- -- -- -- -- --
08E0:                          1D 50 80 23 00                   .P.#.   
```

#### Opcodes

```
  0: 0x08E8 [0x1D] PRINT_EVENT_MESSAGE(message_id=8558*)
    → "Sorry, but we don't have that sort of flower in stock right now."
  1: 0x08EB [0x23] WAIT_FOR_DIALOG_INTERACTION
  2: 0x08EC [0x00] END_REQSTACK()
```

### Event 65535.31

#### Metadata

| Field        | Value    |
|--------------|----------|
| Entrypoint   | 0x08ED   |
| Data Size    | 37 bytes |
| Instructions | 9        |

```
      00 01 02 03 04 05 06 07  08 09 0A 0B 0C 0D 0E 0F
      -- -- -- -- -- -- -- --  -- -- -- -- -- -- -- --
08E0:                                         29 08 2D               ).-
08F0: E0 0E 01 03 1D 51 80 23  29 08 2D E0 0E 01 04 29  .....Q.#).-....)
0900: 08 2D E0 0E 01 05 1D 52  80 23 29 08 2D E0 0E 01  .-.....R.#).-...
0910: 06 00                                             ..              
```

#### Opcodes

```
  0: 0x08ED [0x29] REQ_SET_WAIT(priority=0x08, entity_id=Ohbiru-Dohbiru (ID: 17752109/0x010EE02D), tag_num=0x03)
  1: 0x08F4 [0x1D] PRINT_EVENT_MESSAGE(message_id=8560*)
    → "Hmm... The flower you talk of does exist, but..."
  2: 0x08F7 [0x23] WAIT_FOR_DIALOG_INTERACTION
  3: 0x08F8 [0x29] REQ_SET_WAIT(priority=0x08, entity_id=Ohbiru-Dohbiru (ID: 17752109/0x010EE02D), tag_num=0x04)
  4: 0x08FF [0x29] REQ_SET_WAIT(priority=0x08, entity_id=Ohbiru-Dohbiru (ID: 17752109/0x010EE02D), tag_num=0x05)
  5: 0x0906 [0x1D] PRINT_EVENT_MESSAGE(message_id=8561*)
    → "I think Kerutoto is using the last one we have in some kind of experiment. She's in the meditation chamber next door."
  6: 0x0909 [0x23] WAIT_FOR_DIALOG_INTERACTION
  7: 0x090A [0x29] REQ_SET_WAIT(priority=0x08, entity_id=Ohbiru-Dohbiru (ID: 17752109/0x010EE02D), tag_num=0x06)
  8: 0x0911 [0x00] END_REQSTACK()
```

### Event 65535.32

#### Metadata

| Field        | Value    |
|--------------|----------|
| Entrypoint   | 0x0912   |
| Data Size    | 19 bytes |
| Instructions | 5        |

```
      00 01 02 03 04 05 06 07  08 09 0A 0B 0C 0D 0E 0F
      -- -- -- -- -- -- -- --  -- -- -- -- -- -- -- --
0910:       29 08 2D E0 0E 01  0F 1D 53 80 23 29 08 2D    ).-.....S.#).-
0920: E0 0E 01 10 00                                    .....           
```

#### Opcodes

```
  0: 0x0912 [0x29] REQ_SET_WAIT(priority=0x08, entity_id=Ohbiru-Dohbiru (ID: 17752109/0x010EE02D), tag_num=0x0F)
  1: 0x0919 [0x1D] PRINT_EVENT_MESSAGE(message_id=8562*)
    → "Hey, Kenapa-Keppa! Where do you actually get $4 from?"
  2: 0x091C [0x23] WAIT_FOR_DIALOG_INTERACTION
  3: 0x091D [0x29] REQ_SET_WAIT(priority=0x08, entity_id=Ohbiru-Dohbiru (ID: 17752109/0x010EE02D), tag_num=0x10)
  4: 0x0924 [0x00] END_REQSTACK()
```

### Event 65535.33

#### Metadata

| Field        | Value    |
|--------------|----------|
| Entrypoint   | 0x0925   |
| Data Size    | 19 bytes |
| Instructions | 5        |

```
      00 01 02 03 04 05 06 07  08 09 0A 0B 0C 0D 0E 0F
      -- -- -- -- -- -- -- --  -- -- -- -- -- -- -- --
0920:                29 08 2D  E0 0E 01 09 1D 54 80 23       ).-.....T.#
0930: 29 08 2D E0 0E 01 0A 00                           ).-.....        
```

#### Opcodes

```
  0: 0x0925 [0x29] REQ_SET_WAIT(priority=0x08, entity_id=Ohbiru-Dohbiru (ID: 17752109/0x010EE02D), tag_num=0x09)
  1: 0x092C [0x1D] PRINT_EVENT_MESSAGE(message_id=8564*)
    → "Guess you should go ask Kenapa-Keppa where you can get them, so you can go get your own $4. It's probably somewhere dangerous, but hey, at least you'll be getting it for free."
  2: 0x092F [0x23] WAIT_FOR_DIALOG_INTERACTION
  3: 0x0930 [0x29] REQ_SET_WAIT(priority=0x08, entity_id=Ohbiru-Dohbiru (ID: 17752109/0x010EE02D), tag_num=0x0A)
  4: 0x0937 [0x00] END_REQSTACK()
```

### Event 517

#### Metadata

| Field        | Value    |
|--------------|----------|
| Entrypoint   | 0x0938   |
| Data Size    | 29 bytes |
| Instructions | 10       |

```
      00 01 02 03 04 05 06 07  08 09 0A 0B 0C 0D 0E 0F
      -- -- -- -- -- -- -- --  -- -- -- -- -- -- -- --
0930:                          1E F0 FF FF 7F 6F 70 29          .....op)
0940: 08 2D E0 0E 01 01 1D 55  80 23 29 08 2D E0 0E 01  .-.....U.#).-...
0950: 11 20 00 21 00                                    . .!.           
```

#### Opcodes

```
  0: 0x0938 [0x1E] EventEntity looks at LocalPlayer and starts talking
  1: 0x093D [0x6F] WAIT_FRAME_DELAY: Yield until WaitTime reaches zero
  2: 0x093E [0x70] WAIT_ENTITY_RENDER_FLAG: Wait while EventEntity->Render.Flags3 bit 2 is set (cancel turn if not)
  3: 0x093F [0x29] REQ_SET_WAIT(priority=0x08, entity_id=Ohbiru-Dohbiru (ID: 17752109/0x010EE02D), tag_num=0x01)
  4: 0x0946 [0x1D] PRINT_EVENT_MESSAGE(message_id=8565*)
    → "You should go ask Kenapa-Keppa where you can pick your own $4. It's probably somewhere pathetically dangerous, but at least you'll be getting one for free."
  5: 0x0949 [0x23] WAIT_FOR_DIALOG_INTERACTION
  6: 0x094A [0x29] REQ_SET_WAIT(priority=0x08, entity_id=Ohbiru-Dohbiru (ID: 17752109/0x010EE02D), tag_num=0x11)
  7: 0x0951 [0x20] SET_CLI_EVENT_UC_FLAG: Unlock player control
  8: 0x0953 [0x21] END_EVENT
  9: 0x0954 [0x00] END_REQSTACK()
```

### Event 518

#### Metadata

| Field        | Value    |
|--------------|----------|
| Entrypoint   | 0x0955   |
| Data Size    | 29 bytes |
| Instructions | 10       |

```
      00 01 02 03 04 05 06 07  08 09 0A 0B 0C 0D 0E 0F
      -- -- -- -- -- -- -- --  -- -- -- -- -- -- -- --
0950:                1E F0 FF  FF 7F 6F 70 29 08 2D E0       .....op).-.
0960: 0E 01 01 1D 56 80 23 29  08 2D E0 0E 01 11 20 00  ....V.#).-.... .
0970: 21 00                                             !.              
```

#### Opcodes

```
  0: 0x0955 [0x1E] EventEntity looks at LocalPlayer and starts talking
  1: 0x095A [0x6F] WAIT_FRAME_DELAY: Yield until WaitTime reaches zero
  2: 0x095B [0x70] WAIT_ENTITY_RENDER_FLAG: Wait while EventEntity->Render.Flags3 bit 2 is set (cancel turn if not)
  3: 0x095C [0x29] REQ_SET_WAIT(priority=0x08, entity_id=Ohbiru-Dohbiru (ID: 17752109/0x010EE02D), tag_num=0x01)
  4: 0x0963 [0x1D] PRINT_EVENT_MESSAGE(message_id=8566*)
    → "Thank you and ta-ta`ru!"
  5: 0x0966 [0x23] WAIT_FOR_DIALOG_INTERACTION
  6: 0x0967 [0x29] REQ_SET_WAIT(priority=0x08, entity_id=Ohbiru-Dohbiru (ID: 17752109/0x010EE02D), tag_num=0x11)
  7: 0x096E [0x20] SET_CLI_EVENT_UC_FLAG: Unlock player control
  8: 0x0970 [0x21] END_EVENT
  9: 0x0971 [0x00] END_REQSTACK()
```

### Event 741

#### Metadata

| Field        | Value    |
|--------------|----------|
| Entrypoint   | 0x0972   |
| Data Size    | 47 bytes |
| Instructions | 14       |

```
      00 01 02 03 04 05 06 07  08 09 0A 0B 0C 0D 0E 0F
      -- -- -- -- -- -- -- --  -- -- -- -- -- -- -- --
0970:       1E F0 FF FF 7F 6F  70 29 08 2D E0 0E 01 03    .....op).-....
0980: 1D 57 80 23 29 08 2D E0  0E 01 04 29 08 2D E0 0E  .W.#).-....).-..
0990: 01 05 1D 58 80 23 29 08  2D E0 0E 01 06 20 00 21  ...X.#).-.... .!
09A0: 00                                                .               
```

#### Opcodes

```
  0: 0x0972 [0x1E] EventEntity looks at LocalPlayer and starts talking
  1: 0x0977 [0x6F] WAIT_FRAME_DELAY: Yield until WaitTime reaches zero
  2: 0x0978 [0x70] WAIT_ENTITY_RENDER_FLAG: Wait while EventEntity->Render.Flags3 bit 2 is set (cancel turn if not)
  3: 0x0979 [0x29] REQ_SET_WAIT(priority=0x08, entity_id=Ohbiru-Dohbiru (ID: 17752109/0x010EE02D), tag_num=0x03)
  4: 0x0980 [0x1D] PRINT_EVENT_MESSAGE(message_id=9739*)
    → "When the chance to join the Multinational Expedition came to the Rhinostery, no one was particularly eager to sign up. The Northlands is a dreadful-wedful place."
  5: 0x0983 [0x23] WAIT_FOR_DIALOG_INTERACTION
  6: 0x0984 [0x29] REQ_SET_WAIT(priority=0x08, entity_id=Ohbiru-Dohbiru (ID: 17752109/0x010EE02D), tag_num=0x04)
  7: 0x098B [0x29] REQ_SET_WAIT(priority=0x08, entity_id=Ohbiru-Dohbiru (ID: 17752109/0x010EE02D), tag_num=0x05)
  8: 0x0992 [0x1D] PRINT_EVENT_MESSAGE(message_id=9740*)
    → "Only Iru-Kuiru had the courage to put his hand up and volunteer. I wish that I could be as brave as Iru-Kuiru."
  9: 0x0995 [0x23] WAIT_FOR_DIALOG_INTERACTION
 10: 0x0996 [0x29] REQ_SET_WAIT(priority=0x08, entity_id=Ohbiru-Dohbiru (ID: 17752109/0x010EE02D), tag_num=0x06)
 11: 0x099D [0x20] SET_CLI_EVENT_UC_FLAG: Unlock player control
 12: 0x099F [0x21] END_EVENT
 13: 0x09A0 [0x00] END_REQSTACK()
```

### Event 746

#### Metadata

| Field        | Value    |
|--------------|----------|
| Entrypoint   | 0x09A1   |
| Data Size    | 33 bytes |
| Instructions | 12       |

```
      00 01 02 03 04 05 06 07  08 09 0A 0B 0C 0D 0E 0F
      -- -- -- -- -- -- -- --  -- -- -- -- -- -- -- --
09A0:    1E F0 FF FF 7F 6F 70  29 08 2D E0 0E 01 01 1D   .....op).-.....
09B0: 59 80 23 29 08 2D E0 0E  01 11 1D 5A 80 23 20 00  Y.#).-.....Z.# .
09C0: 21 00                                             !.              
```

#### Opcodes

```
  0: 0x09A1 [0x1E] EventEntity looks at LocalPlayer and starts talking
  1: 0x09A6 [0x6F] WAIT_FRAME_DELAY: Yield until WaitTime reaches zero
  2: 0x09A7 [0x70] WAIT_ENTITY_RENDER_FLAG: Wait while EventEntity->Render.Flags3 bit 2 is set (cancel turn if not)
  3: 0x09A8 [0x29] REQ_SET_WAIT(priority=0x08, entity_id=Ohbiru-Dohbiru (ID: 17752109/0x010EE02D), tag_num=0x01)
  4: 0x09AF [0x1D] PRINT_EVENT_MESSAGE(message_id=9757*)
    → "Was Iru-Kuiru living somewhere on the southern continent?"
  5: 0x09B2 [0x23] WAIT_FOR_DIALOG_INTERACTION
