# 17752116 - Pechiru-Mashiru

## Common Data

| Field            | Value                     |
|------------------|---------------------------|
| Zone             | Windurst Waters (ID: 238) |
| Block Size       | 1168 bytes                |
| Total Events     | 35                        |
| References Count | 34                        |

## List of Events

| Event ID                   | Entrypoint   |   Size |   Instructions |
|----------------------------|--------------|--------|----------------|
| [65535](#event-65535)      | 0x0000       |      1 |              1 |
| [65535.1](#event-655351)   | 0x0001       |     16 |              2 |
| [65535.2](#event-655352)   | 0x0011       |     22 |              4 |
| [65535.3](#event-655353)   | 0x0027       |     16 |              2 |
| [65535.4](#event-655354)   | 0x0037       |     14 |              2 |
| [65535.5](#event-655355)   | 0x0045       |     16 |              2 |
| [65535.6](#event-655356)   | 0x0055       |     14 |              2 |
| [65535.7](#event-655357)   | 0x0063       |     16 |              2 |
| [65535.8](#event-655358)   | 0x0073       |     14 |              2 |
| [65535.9](#event-655359)   | 0x0081       |     16 |              2 |
| [65535.10](#event-6553510) | 0x0091       |     14 |              2 |
| [65535.11](#event-6553511) | 0x009F       |     16 |              2 |
| [65535.12](#event-6553512) | 0x00AF       |     14 |              2 |
| [65535.13](#event-6553513) | 0x00BD       |     16 |              2 |
| [65535.14](#event-6553514) | 0x00CD       |     14 |              2 |
| [65535.15](#event-6553515) | 0x00DB       |      9 |              3 |
| [421](#event-421)          | 0x00E4       |     37 |             14 |
| [182](#event-182)          | 0x0109       |      1 |              1 |
| [54](#event-54)            | 0x010A       |     33 |             12 |
| [185](#event-185)          | 0x012B       |     33 |             12 |
| [490](#event-490)          | 0x014C       |     33 |             12 |
| [492](#event-492)          | 0x016D       |     33 |             12 |
| [495](#event-495)          | 0x018E       |     93 |             21 |
| [65535.16](#event-6553516) | 0x01EB       |     37 |              9 |
| [65535.17](#event-6553517) | 0x0210       |     19 |              5 |
| [65535.18](#event-6553518) | 0x0223       |     19 |              5 |
| [65535.19](#event-6553519) | 0x0236       |     19 |              5 |
| [65535.20](#event-6553520) | 0x0249       |      5 |              3 |
| [496](#event-496)          | 0x024E       |     33 |             12 |
| [497](#event-497)          | 0x026F       |     50 |             16 |
| [498](#event-498)          | 0x02A1       |     29 |             10 |
| [445](#event-445)          | 0x02BE       |     33 |             12 |
| [754](#event-754)          | 0x02DF       |     61 |             16 |
| [760](#event-760)          | 0x031C       |     47 |             14 |
| [541](#event-541)          | 0x034B       |     33 |             12 |

## DAT References (imed_data)

|   Index | Hex Value   |   Dec Value |
|---------|-------------|-------------|
|       0 | 0x0028      |          40 |
|       1 | 0x001E      |          30 |
|       2 | 0x208C      |        8332 |
|       3 | 0x208D      |        8333 |
|       4 | 0x208E      |        8334 |
|       5 | 0x1CDD      |        7389 |
|       6 | 0x1CDE      |        7390 |
|       7 | 0x1E43      |        7747 |
|       8 | 0x1E44      |        7748 |
|       9 | 0x2122      |        8482 |
|      10 | 0x2123      |        8483 |
|      11 | 0x2126      |        8486 |
|      12 | 0x2127      |        8487 |
|      13 | 0x0000      |           0 |
|      14 | 0x241D      |        9245 |
|      15 | 0x212F      |        8495 |
|      16 | 0x212E      |        8494 |
|      17 | 0x2130      |        8496 |
|      18 | 0x2131      |        8497 |
|      19 | 0x2132      |        8498 |
|      20 | 0x2133      |        8499 |
|      21 | 0x2134      |        8500 |
|      22 | 0x2135      |        8501 |
|      23 | 0x2136      |        8502 |
|      24 | 0x2137      |        8503 |
|      25 | 0x2138      |        8504 |
|      26 | 0x20C6      |        8390 |
|      27 | 0x20C7      |        8391 |
|      28 | 0x263A      |        9786 |
|      29 | 0x263B      |        9787 |
|      30 | 0x264A      |        9802 |
|      31 | 0x264B      |        9803 |
|      32 | 0x222F      |        8751 |
|      33 | 0x2230      |        8752 |

## String References

- **7389**: Where did you get that hat?t Where did you get that tile?t Isn't it a nobby one, and just the proper style?t I should like to have one just the same as that...t
- **7390**: Hello, where did you get that hat?t ......... Is that a new one of Baren-Moren's? Hmm. I'm quite taken by it.
- **7747**: There, there, don't be such a square. Loosen up a little, gee... Be more footloose and fancy free.
- **7748**: Do not worry that your grading shall smite the student's fate forever, pal. When he grows up, pray, he's not going to say, "That teacher made me who I am today."
- **8332**: I never thought when I was a wee child I'd grow up to be a teacher reviled.
- **8333**: My pet theory in my childhood, I stated, was that "studying is overrated!"
- **8334**: But now my pet theory is, I'm fated, that rather "teaching is overrated!"
- **8390**: Tests are a load of mumbo jumbo, you bet! Even if the students cram for an exam, I regret, the moment it's over they all but everything forget.
- **8391**: A bit like life. And you ask why? You strive and strive, and then you die! And everyone forgets you. <sigh!>
- **8482**: Hey, what's that you say? Paku-Nakku just sleeps all day?
- **8483**: That's strange indeed, I tell you...! The Sleep spell cast on Paku-Nakku should have worn off by now, too.
- **8486**: An accident with a Wand of Sleep...!? The other teachers said that? Oh *bleep*!
- **8487**: Magic practice at the Mage Academy is just tough luck! There's always one or two kids who run amuck! Put yourself in my position...I'm a sitting duck!
- **8494**: What? Oh, hell! Even after having drunk $1 well, Paku-Nakku still hasn't woken from the Sleep spell?
- **8495**: There's something fishy I smell... I'm sure I negated the Sleep spell that was cast on that Paku-Nakku rebel!
- **8496**: Let me look, by hook or by crook... I made him write his impressions of a book as punishment for the acts he took...
- **8497**: That's it, I bray! To wake him up right away, to Paku-Nakku you must say:
- **8498**: "Wake up, fool! Rise now, I bid it! The automaton butler's the one who did it!"
- **8499**: You got that?
- **8500**: To wake him up right away, to Paku-Nakku you must say...
- **8501**: "Wake up, fool! Rise now, I bid it! The automaton butler's the one who did it!" You got that?
- **8502**: Did Paku-Nakku yell at you? To be expected, that is true. Fear not, he'll soon get over it, too.
- **8503**: I never thought he'd go so reading beserk that it would affect his other classwork. Glad that's over, yes, my lord! By the way, here's a reward...
- **8504**: So Paku-Nakku went angry at you... I suppose it's only natural to. Don't worry, he'll soon get over it too.
- **8751**: A book on Alchemy, eh? I'd love to take a look at one myself, I say. But they were all banned years ago. 'Twas said that they were a bad influence on children, you know?
- **8752**: I'm not certain whether they really were or not. All I do know is--if I haven't forgot-- that getting your hands on one now will be close to impossible, I avow!
- **9245**: Well gee, I'll be! That's just swell... Usually a sniff of $2 cures any Sleep spell. I wonder what's wrong with Paku-Nakku? Ah, hell!
- **9786**: I wonder to where our former principal Sedal-Godjal disappeared? If he showed up in the morning, now wouldn't that be weird?
- **9787**: I wonder why he ran away? Couldn't he take the day-to-day?
- **9802**: I overheard you talking about Sedal-Godjal before. He always worried about things that I would just ignore. On issues such as student satisfaction he would ponder, I personally don't have that much precious time to squander.
- **9803**: I always say that keeping expectations low is best. By keeping to this simple rule, you'll never see me stressed.

## Events

### Event 65535

#### Metadata

| Field        | Value   |
|--------------|---------|
| Entrypoint   | 0x0000  |
| Data Size    | 1 bytes |
| Instructions | 1       |

```
      00 01 02 03 04 05 06 07  08 09 0A 0B 0C 0D 0E 0F
      -- -- -- -- -- -- -- --  -- -- -- -- -- -- -- --
0000: 00                                                .               
```

#### Opcodes

```
  0: 0x0000 [0x00] END_REQSTACK()
```

### Event 65535.1

#### Metadata

| Field        | Value    |
|--------------|----------|
| Entrypoint   | 0x0001   |
| Data Size    | 16 bytes |
| Instructions | 2        |

```
      00 01 02 03 04 05 06 07  08 09 0A 0B 0C 0D 0E 0F
      -- -- -- -- -- -- -- --  -- -- -- -- -- -- -- --
0000:    66 00 80 F8 FF FF 7F  F8 FF FF 7F 74 6C 6B 30   f..........tlk0
0010: 00                                                .               
```

#### Opcodes

```
  0: 0x0001 [0x66] LOAD_EXT_SCHEDULER_MAIN: Load scheduler "tlk0" with entities [EventEntity, EventEntity], work=40*
  1: 0x0010 [0x00] END_REQSTACK()
```

### Event 65535.2

#### Metadata

| Field        | Value    |
|--------------|----------|
| Entrypoint   | 0x0011   |
| Data Size    | 22 bytes |
| Instructions | 4        |

```
      00 01 02 03 04 05 06 07  08 09 0A 0B 0C 0D 0E 0F
      -- -- -- -- -- -- -- --  -- -- -- -- -- -- -- --
0010:    53 F8 FF FF 7F F8 FF  FF 7F 74 6C 6B 30 5E 69   S........tlk0^i
0020: 64 6C 30 1C 01 80 00                              dl0....         
```

#### Opcodes

```
  0: 0x0011 [0x53] WAIT_SCHEDULER_TASK: Wait for scheduler "tlk0" with entities [EventEntity, EventEntity]
  1: 0x001E [0x5E] EventEntity goes idle (kills current action) (animation: "idl0")
  2: 0x0023 [0x1C] WAIT(30* ticks)
  3: 0x0026 [0x00] END_REQSTACK()
```

### Event 65535.3

#### Metadata

| Field        | Value    |
|--------------|----------|
| Entrypoint   | 0x0027   |
| Data Size    | 16 bytes |
| Instructions | 2        |

```
      00 01 02 03 04 05 06 07  08 09 0A 0B 0C 0D 0E 0F
      -- -- -- -- -- -- -- --  -- -- -- -- -- -- -- --
0020:                      66  00 80 F8 FF FF 7F F8 FF         f........
0030: FF 7F 74 68 6B 31 00                              ..thk1.         
```

#### Opcodes

```
  0: 0x0027 [0x66] LOAD_EXT_SCHEDULER_MAIN: Load scheduler "thk1" with entities [EventEntity, EventEntity], work=40*
  1: 0x0036 [0x00] END_REQSTACK()
```

### Event 65535.4

#### Metadata

| Field        | Value    |
|--------------|----------|
| Entrypoint   | 0x0037   |
| Data Size    | 14 bytes |
| Instructions | 2        |

```
      00 01 02 03 04 05 06 07  08 09 0A 0B 0C 0D 0E 0F
      -- -- -- -- -- -- -- --  -- -- -- -- -- -- -- --
0030:                      53  F8 FF FF 7F F8 FF FF 7F         S........
0040: 74 68 6B 31 00                                    thk1.           
```

#### Opcodes

```
  0: 0x0037 [0x53] WAIT_SCHEDULER_TASK: Wait for scheduler "thk1" with entities [EventEntity, EventEntity]
  1: 0x0044 [0x00] END_REQSTACK()
```

### Event 65535.5

#### Metadata

| Field        | Value    |
|--------------|----------|
| Entrypoint   | 0x0045   |
| Data Size    | 16 bytes |
| Instructions | 2        |

```
      00 01 02 03 04 05 06 07  08 09 0A 0B 0C 0D 0E 0F
      -- -- -- -- -- -- -- --  -- -- -- -- -- -- -- --
0040:                66 00 80  F8 FF FF 7F F8 FF FF 7F       f..........
0050: 74 68 6B 32 00                                    thk2.           
```

#### Opcodes

```
  0: 0x0045 [0x66] LOAD_EXT_SCHEDULER_MAIN: Load scheduler "thk2" with entities [EventEntity, EventEntity], work=40*
  1: 0x0054 [0x00] END_REQSTACK()
```

### Event 65535.6

#### Metadata

| Field        | Value    |
|--------------|----------|
| Entrypoint   | 0x0055   |
| Data Size    | 14 bytes |
| Instructions | 2        |

```
      00 01 02 03 04 05 06 07  08 09 0A 0B 0C 0D 0E 0F
      -- -- -- -- -- -- -- --  -- -- -- -- -- -- -- --
0050:                53 F8 FF  FF 7F F8 FF FF 7F 74 68       S........th
0060: 6B 32 00                                          k2.             
```

#### Opcodes

```
  0: 0x0055 [0x53] WAIT_SCHEDULER_TASK: Wait for scheduler "thk2" with entities [EventEntity, EventEntity]
  1: 0x0062 [0x00] END_REQSTACK()
```

### Event 65535.7

#### Metadata

| Field        | Value    |
|--------------|----------|
| Entrypoint   | 0x0063   |
| Data Size    | 16 bytes |
| Instructions | 2        |

```
      00 01 02 03 04 05 06 07  08 09 0A 0B 0C 0D 0E 0F
      -- -- -- -- -- -- -- --  -- -- -- -- -- -- -- --
0060:          66 00 80 F8 FF  FF 7F F8 FF FF 7F 73 79     f..........sy
0070: 75 30 00                                          u0.             
```

#### Opcodes

```
  0: 0x0063 [0x66] LOAD_EXT_SCHEDULER_MAIN: Load scheduler "syu0" with entities [EventEntity, EventEntity], work=40*
  1: 0x0072 [0x00] END_REQSTACK()
```

### Event 65535.8

#### Metadata

| Field        | Value    |
|--------------|----------|
| Entrypoint   | 0x0073   |
| Data Size    | 14 bytes |
| Instructions | 2        |

```
      00 01 02 03 04 05 06 07  08 09 0A 0B 0C 0D 0E 0F
      -- -- -- -- -- -- -- --  -- -- -- -- -- -- -- --
0070:          53 F8 FF FF 7F  F8 FF FF 7F 73 79 75 30     S........syu0
0080: 00                                                .               
```

#### Opcodes

```
  0: 0x0073 [0x53] WAIT_SCHEDULER_TASK: Wait for scheduler "syu0" with entities [EventEntity, EventEntity]
  1: 0x0080 [0x00] END_REQSTACK()
```

### Event 65535.9

#### Metadata

| Field        | Value    |
|--------------|----------|
| Entrypoint   | 0x0081   |
| Data Size    | 16 bytes |
| Instructions | 2        |

```
      00 01 02 03 04 05 06 07  08 09 0A 0B 0C 0D 0E 0F
      -- -- -- -- -- -- -- --  -- -- -- -- -- -- -- --
0080:    66 00 80 F8 FF FF 7F  F8 FF FF 7F 64 69 73 30   f..........dis0
0090: 00                                                .               
```

#### Opcodes

```
  0: 0x0081 [0x66] LOAD_EXT_SCHEDULER_MAIN: Load scheduler "dis0" with entities [EventEntity, EventEntity], work=40*
  1: 0x0090 [0x00] END_REQSTACK()
```

### Event 65535.10

#### Metadata

| Field        | Value    |
|--------------|----------|
| Entrypoint   | 0x0091   |
| Data Size    | 14 bytes |
| Instructions | 2        |

```
      00 01 02 03 04 05 06 07  08 09 0A 0B 0C 0D 0E 0F
      -- -- -- -- -- -- -- --  -- -- -- -- -- -- -- --
0090:    53 F8 FF FF 7F F8 FF  FF 7F 64 69 73 30 00      S........dis0. 
```

#### Opcodes

```
  0: 0x0091 [0x53] WAIT_SCHEDULER_TASK: Wait for scheduler "dis0" with entities [EventEntity, EventEntity]
  1: 0x009E [0x00] END_REQSTACK()
```

### Event 65535.11

#### Metadata

| Field        | Value    |
|--------------|----------|
| Entrypoint   | 0x009F   |
| Data Size    | 16 bytes |
| Instructions | 2        |

```
      00 01 02 03 04 05 06 07  08 09 0A 0B 0C 0D 0E 0F
      -- -- -- -- -- -- -- --  -- -- -- -- -- -- -- --
0090:                                               66                 f
00A0: 00 80 F8 FF FF 7F F8 FF  FF 7F 70 61 73 30 00     ..........pas0. 
```

#### Opcodes

```
  0: 0x009F [0x66] LOAD_EXT_SCHEDULER_MAIN: Load scheduler "pas0" with entities [EventEntity, EventEntity], work=40*
  1: 0x00AE [0x00] END_REQSTACK()
```

### Event 65535.12

#### Metadata

| Field        | Value    |
|--------------|----------|
| Entrypoint   | 0x00AF   |
| Data Size    | 14 bytes |
| Instructions | 2        |

```
      00 01 02 03 04 05 06 07  08 09 0A 0B 0C 0D 0E 0F
      -- -- -- -- -- -- -- --  -- -- -- -- -- -- -- --
00A0:                                               53                 S
00B0: F8 FF FF 7F F8 FF FF 7F  70 61 73 30 00           ........pas0.   
```

#### Opcodes

```
  0: 0x00AF [0x53] WAIT_SCHEDULER_TASK: Wait for scheduler "pas0" with entities [EventEntity, EventEntity]
  1: 0x00BC [0x00] END_REQSTACK()
```

### Event 65535.13

#### Metadata

| Field        | Value    |
|--------------|----------|
| Entrypoint   | 0x00BD   |
| Data Size    | 16 bytes |
| Instructions | 2        |

```
      00 01 02 03 04 05 06 07  08 09 0A 0B 0C 0D 0E 0F
      -- -- -- -- -- -- -- --  -- -- -- -- -- -- -- --
00B0:                                         66 00 80               f..
00C0: F8 FF FF 7F F8 FF FF 7F  77 61 69 30 00           ........wai0.   
```

#### Opcodes

```
  0: 0x00BD [0x66] LOAD_EXT_SCHEDULER_MAIN: Load scheduler "wai0" with entities [EventEntity, EventEntity], work=40*
  1: 0x00CC [0x00] END_REQSTACK()
```

### Event 65535.14

#### Metadata

| Field        | Value    |
|--------------|----------|
| Entrypoint   | 0x00CD   |
| Data Size    | 14 bytes |
| Instructions | 2        |

```
      00 01 02 03 04 05 06 07  08 09 0A 0B 0C 0D 0E 0F
      -- -- -- -- -- -- -- --  -- -- -- -- -- -- -- --
00C0:                                         53 F8 FF               S..
00D0: FF 7F F8 FF FF 7F 77 61  69 30 00                 ......wai0.     
```

#### Opcodes

```
  0: 0x00CD [0x53] WAIT_SCHEDULER_TASK: Wait for scheduler "wai0" with entities [EventEntity, EventEntity]
  1: 0x00DA [0x00] END_REQSTACK()
```

### Event 65535.15

#### Metadata

| Field        | Value   |
|--------------|---------|
| Entrypoint   | 0x00DB  |
| Data Size    | 9 bytes |
| Instructions | 3       |

```
      00 01 02 03 04 05 06 07  08 09 0A 0B 0C 0D 0E 0F
      -- -- -- -- -- -- -- --  -- -- -- -- -- -- -- --
00D0:                                   5E 69 64 6C 30             ^idl0
00E0: 1C 01 80 00                                       ....            
```

#### Opcodes

```
  0: 0x00DB [0x5E] EventEntity goes idle (kills current action) (animation: "idl0")
  1: 0x00E0 [0x1C] WAIT(30* ticks)
  2: 0x00E3 [0x00] END_REQSTACK()
```

### Event 421

#### Metadata

| Field        | Value    |
|--------------|----------|
| Entrypoint   | 0x00E4   |
| Data Size    | 37 bytes |
| Instructions | 14       |

```
      00 01 02 03 04 05 06 07  08 09 0A 0B 0C 0D 0E 0F
      -- -- -- -- -- -- -- --  -- -- -- -- -- -- -- --
00E0:             1E F0 FF FF  7F 6F 70 29 08 34 E0 0E      .....op).4..
00F0: 01 01 1D 02 80 23 1D 03  80 23 1D 04 80 23 29 08  .....#...#...#).
0100: 34 E0 0E 01 02 20 00 21  00                       4.... .!.       
```

#### Opcodes

```
  0: 0x00E4 [0x1E] EventEntity looks at LocalPlayer and starts talking
  1: 0x00E9 [0x6F] WAIT_FRAME_DELAY: Yield until WaitTime reaches zero
  2: 0x00EA [0x70] WAIT_ENTITY_RENDER_FLAG: Wait while EventEntity->Render.Flags3 bit 2 is set (cancel turn if not)
  3: 0x00EB [0x29] REQ_SET_WAIT(priority=0x08, entity_id=Pechiru-Mashiru (ID: 17752116/0x010EE034), tag_num=0x01)
  4: 0x00F2 [0x1D] PRINT_EVENT_MESSAGE(message_id=8332*)
    → "I never thought when I was a wee child I'd grow up to be a teacher reviled."
  5: 0x00F5 [0x23] WAIT_FOR_DIALOG_INTERACTION
  6: 0x00F6 [0x1D] PRINT_EVENT_MESSAGE(message_id=8333*)
    → "My pet theory in my childhood, I stated, was that "studying is overrated!""
  7: 0x00F9 [0x23] WAIT_FOR_DIALOG_INTERACTION
  8: 0x00FA [0x1D] PRINT_EVENT_MESSAGE(message_id=8334*)
    → "But now my pet theory is, I'm fated, that rather "teaching is overrated!""
  9: 0x00FD [0x23] WAIT_FOR_DIALOG_INTERACTION
 10: 0x00FE [0x29] REQ_SET_WAIT(priority=0x08, entity_id=Pechiru-Mashiru (ID: 17752116/0x010EE034), tag_num=0x02)
 11: 0x0105 [0x20] SET_CLI_EVENT_UC_FLAG: Unlock player control
 12: 0x0107 [0x21] END_EVENT
 13: 0x0108 [0x00] END_REQSTACK()
```

### Event 182

#### Metadata

| Field        | Value   |
|--------------|---------|
| Entrypoint   | 0x0109  |
| Data Size    | 1 bytes |
| Instructions | 1       |

```
      00 01 02 03 04 05 06 07  08 09 0A 0B 0C 0D 0E 0F
      -- -- -- -- -- -- -- --  -- -- -- -- -- -- -- --
0100:                             00                             .      
```

#### Opcodes

```
  0: 0x0109 [0x00] END_REQSTACK()
```

### Event 54

#### Metadata

| Field        | Value    |
|--------------|----------|
| Entrypoint   | 0x010A   |
| Data Size    | 33 bytes |
| Instructions | 12       |

```
      00 01 02 03 04 05 06 07  08 09 0A 0B 0C 0D 0E 0F
      -- -- -- -- -- -- -- --  -- -- -- -- -- -- -- --
0100:                                1E F0 FF FF 7F 6F            .....o
0110: 70 29 08 34 E0 0E 01 01  1D 05 80 23 1D 06 80 23  p).4.......#...#
0120: 29 08 34 E0 0E 01 02 20  00 21 00                 ).4.... .!.     
```

#### Opcodes

```
  0: 0x010A [0x1E] EventEntity looks at LocalPlayer and starts talking
  1: 0x010F [0x6F] WAIT_FRAME_DELAY: Yield until WaitTime reaches zero
  2: 0x0110 [0x70] WAIT_ENTITY_RENDER_FLAG: Wait while EventEntity->Render.Flags3 bit 2 is set (cancel turn if not)
  3: 0x0111 [0x29] REQ_SET_WAIT(priority=0x08, entity_id=Pechiru-Mashiru (ID: 17752116/0x010EE034), tag_num=0x01)
  4: 0x0118 [0x1D] PRINT_EVENT_MESSAGE(message_id=7389*)
    → "Where did you get that hat?t Where did you get that tile?t Isn't it a nobby one, and just the proper style?t I should like to have one just the same as that...t"
  5: 0x011B [0x23] WAIT_FOR_DIALOG_INTERACTION
  6: 0x011C [0x1D] PRINT_EVENT_MESSAGE(message_id=7390*)
    → "Hello, where did you get that hat?t ......... Is that a new one of Baren-Moren's? Hmm. I'm quite taken by it."
  7: 0x011F [0x23] WAIT_FOR_DIALOG_INTERACTION
  8: 0x0120 [0x29] REQ_SET_WAIT(priority=0x08, entity_id=Pechiru-Mashiru (ID: 17752116/0x010EE034), tag_num=0x02)
  9: 0x0127 [0x20] SET_CLI_EVENT_UC_FLAG: Unlock player control
 10: 0x0129 [0x21] END_EVENT
 11: 0x012A [0x00] END_REQSTACK()
```

### Event 185

#### Metadata

| Field        | Value    |
|--------------|----------|
| Entrypoint   | 0x012B   |
| Data Size    | 33 bytes |
| Instructions | 12       |

```
      00 01 02 03 04 05 06 07  08 09 0A 0B 0C 0D 0E 0F
      -- -- -- -- -- -- -- --  -- -- -- -- -- -- -- --
0120:                                   1E F0 FF FF 7F             .....
0130: 6F 70 29 08 34 E0 0E 01  01 1D 07 80 23 1D 08 80  op).4.......#...
0140: 23 29 08 34 E0 0E 01 02  20 00 21 00              #).4.... .!.    
```

#### Opcodes

```
  0: 0x012B [0x1E] EventEntity looks at LocalPlayer and starts talking
  1: 0x0130 [0x6F] WAIT_FRAME_DELAY: Yield until WaitTime reaches zero
  2: 0x0131 [0x70] WAIT_ENTITY_RENDER_FLAG: Wait while EventEntity->Render.Flags3 bit 2 is set (cancel turn if not)
  3: 0x0132 [0x29] REQ_SET_WAIT(priority=0x08, entity_id=Pechiru-Mashiru (ID: 17752116/0x010EE034), tag_num=0x01)
  4: 0x0139 [0x1D] PRINT_EVENT_MESSAGE(message_id=7747*)
    → "There, there, don't be such a square. Loosen up a little, gee... Be more footloose and fancy free."
  5: 0x013C [0x23] WAIT_FOR_DIALOG_INTERACTION
  6: 0x013D [0x1D] PRINT_EVENT_MESSAGE(message_id=7748*)
    → "Do not worry that your grading shall smite the student's fate forever, pal. When he grows up, pray, he's not going to say, "That teacher made me who I am today.""
  7: 0x0140 [0x23] WAIT_FOR_DIALOG_INTERACTION
  8: 0x0141 [0x29] REQ_SET_WAIT(priority=0x08, entity_id=Pechiru-Mashiru (ID: 17752116/0x010EE034), tag_num=0x02)
  9: 0x0148 [0x20] SET_CLI_EVENT_UC_FLAG: Unlock player control
 10: 0x014A [0x21] END_EVENT
 11: 0x014B [0x00] END_REQSTACK()
```

### Event 490

#### Metadata

| Field        | Value    |
|--------------|----------|
| Entrypoint   | 0x014C   |
| Data Size    | 33 bytes |
| Instructions | 12       |

```
      00 01 02 03 04 05 06 07  08 09 0A 0B 0C 0D 0E 0F
      -- -- -- -- -- -- -- --  -- -- -- -- -- -- -- --
0140:                                      1E F0 FF FF              ....
0150: 7F 6F 70 29 08 34 E0 0E  01 01 1D 09 80 23 1D 0A  .op).4.......#..
0160: 80 23 29 08 34 E0 0E 01  02 20 00 21 00           .#).4.... .!.   
```

#### Opcodes

```
  0: 0x014C [0x1E] EventEntity looks at LocalPlayer and starts talking
  1: 0x0151 [0x6F] WAIT_FRAME_DELAY: Yield until WaitTime reaches zero
  2: 0x0152 [0x70] WAIT_ENTITY_RENDER_FLAG: Wait while EventEntity->Render.Flags3 bit 2 is set (cancel turn if not)
  3: 0x0153 [0x29] REQ_SET_WAIT(priority=0x08, entity_id=Pechiru-Mashiru (ID: 17752116/0x010EE034), tag_num=0x01)
  4: 0x015A [0x1D] PRINT_EVENT_MESSAGE(message_id=8482*)
    → "Hey, what's that you say? Paku-Nakku just sleeps all day?"
  5: 0x015D [0x23] WAIT_FOR_DIALOG_INTERACTION
  6: 0x015E [0x1D] PRINT_EVENT_MESSAGE(message_id=8483*)
    → "That's strange indeed, I tell you...! The Sleep spell cast on Paku-Nakku should have worn off by now, too."
  7: 0x0161 [0x23] WAIT_FOR_DIALOG_INTERACTION
  8: 0x0162 [0x29] REQ_SET_WAIT(priority=0x08, entity_id=Pechiru-Mashiru (ID: 17752116/0x010EE034), tag_num=0x02)
  9: 0x0169 [0x20] SET_CLI_EVENT_UC_FLAG: Unlock player control
 10: 0x016B [0x21] END_EVENT
 11: 0x016C [0x00] END_REQSTACK()
```

### Event 492

#### Metadata

| Field        | Value    |
|--------------|----------|
| Entrypoint   | 0x016D   |
| Data Size    | 33 bytes |
| Instructions | 12       |

```
      00 01 02 03 04 05 06 07  08 09 0A 0B 0C 0D 0E 0F
      -- -- -- -- -- -- -- --  -- -- -- -- -- -- -- --
0160:                                         1E F0 FF               ...
0170: FF 7F 6F 70 29 08 34 E0  0E 01 01 1D 0B 80 23 1D  ..op).4.......#.
0180: 0C 80 23 29 08 34 E0 0E  01 02 20 00 21 00        ..#).4.... .!.  
```

#### Opcodes

```
  0: 0x016D [0x1E] EventEntity looks at LocalPlayer and starts talking
  1: 0x0172 [0x6F] WAIT_FRAME_DELAY: Yield until WaitTime reaches zero
  2: 0x0173 [0x70] WAIT_ENTITY_RENDER_FLAG: Wait while EventEntity->Render.Flags3 bit 2 is set (cancel turn if not)
  3: 0x0174 [0x29] REQ_SET_WAIT(priority=0x08, entity_id=Pechiru-Mashiru (ID: 17752116/0x010EE034), tag_num=0x01)
  4: 0x017B [0x1D] PRINT_EVENT_MESSAGE(message_id=8486*)
    → "An accident with a Wand of Sleep...!? The other teachers said that? Oh *bleep*!"
  5: 0x017E [0x23] WAIT_FOR_DIALOG_INTERACTION
  6: 0x017F [0x1D] PRINT_EVENT_MESSAGE(message_id=8487*)
    → "Magic practice at the Mage Academy is just tough luck! There's always one or two kids who run amuck! Put yourself in my position...I'm a sitting duck!"
  7: 0x0182 [0x23] WAIT_FOR_DIALOG_INTERACTION
  8: 0x0183 [0x29] REQ_SET_WAIT(priority=0x08, entity_id=Pechiru-Mashiru (ID: 17752116/0x010EE034), tag_num=0x02)
  9: 0x018A [0x20] SET_CLI_EVENT_UC_FLAG: Unlock player control
 10: 0x018C [0x21] END_EVENT
 11: 0x018D [0x00] END_REQSTACK()
```

### Event 495

#### Metadata

| Field        | Value    |
|--------------|----------|
| Entrypoint   | 0x018E   |
| Data Size    | 93 bytes |
| Instructions | 21       |

```
      00 01 02 03 04 05 06 07  08 09 0A 0B 0C 0D 0E 0F
      -- -- -- -- -- -- -- --  -- -- -- -- -- -- -- --
0180:                                            1E F0                ..
0190: FF FF 7F 6F 70 02 05 10  0D 80 00 A7 01 29 0B 34  ...op........).4
01A0: E0 0E 01 17 01 CB 01 29  08 34 E0 0E 01 01 1D 0E  .......).4......
01B0: 80 23 29 08 34 E0 0E 01  02 29 08 34 E0 0E 01 03  .#).4....).4....
01C0: 1D 0F 80 23 29 08 34 E0  0E 01 04 29 0B 34 E0 0E  ...#).4....).4..
01D0: 01 18 29 0B 34 E0 0E 01  19 29 0B 34 E0 0E 01 1A  ..).4....).4....
01E0: 29 0B 34 E0 0E 01 1B 20  00 21 00                 ).4.... .!.     
```

#### Opcodes

```
  0: 0x018E [0x1E] EventEntity looks at LocalPlayer and starts talking
  1: 0x0193 [0x6F] WAIT_FRAME_DELAY: Yield until WaitTime reaches zero
  2: 0x0194 [0x70] WAIT_ENTITY_RENDER_FLAG: Wait while EventEntity->Render.Flags3 bit 2 is set (cancel turn if not)
  3: 0x0195 [0x02] IF !(Work_Zone[5] == 0*) GOTO 0x01A7
  4: 0x019D [0x29] REQ_SET_WAIT(priority=0x0B, entity_id=Pechiru-Mashiru (ID: 17752116/0x010EE034), tag_num=0x17)
  5: 0x01A4 [0x01] GOTO 0x01CB
  6: 0x01A7 [0x29] REQ_SET_WAIT(priority=0x08, entity_id=Pechiru-Mashiru (ID: 17752116/0x010EE034), tag_num=0x01)
  7: 0x01AE [0x1D] PRINT_EVENT_MESSAGE(message_id=9245*)
    → "Well gee, I'll be! That's just swell... Usually a sniff of $2 cures any Sleep spell. I wonder what's wrong with Paku-Nakku? Ah, hell!"
  8: 0x01B1 [0x23] WAIT_FOR_DIALOG_INTERACTION
  9: 0x01B2 [0x29] REQ_SET_WAIT(priority=0x08, entity_id=Pechiru-Mashiru (ID: 17752116/0x010EE034), tag_num=0x02)
 10: 0x01B9 [0x29] REQ_SET_WAIT(priority=0x08, entity_id=Pechiru-Mashiru (ID: 17752116/0x010EE034), tag_num=0x03)
 11: 0x01C0 [0x1D] PRINT_EVENT_MESSAGE(message_id=8495*)
    → "There's something fishy I smell... I'm sure I negated the Sleep spell that was cast on that Paku-Nakku rebel!"
 12: 0x01C3 [0x23] WAIT_FOR_DIALOG_INTERACTION
 13: 0x01C4 [0x29] REQ_SET_WAIT(priority=0x08, entity_id=Pechiru-Mashiru (ID: 17752116/0x010EE034), tag_num=0x04)

SUBROUTINE_01CB:
 14: 0x01CB [0x29] REQ_SET_WAIT(priority=0x0B, entity_id=Pechiru-Mashiru (ID: 17752116/0x010EE034), tag_num=0x18)
 15: 0x01D2 [0x29] REQ_SET_WAIT(priority=0x0B, entity_id=Pechiru-Mashiru (ID: 17752116/0x010EE034), tag_num=0x19)
 16: 0x01D9 [0x29] REQ_SET_WAIT(priority=0x0B, entity_id=Pechiru-Mashiru (ID: 17752116/0x010EE034), tag_num=0x1A)
 17: 0x01E0 [0x29] REQ_SET_WAIT(priority=0x0B, entity_id=Pechiru-Mashiru (ID: 17752116/0x010EE034), tag_num=0x1B)
 18: 0x01E7 [0x20] SET_CLI_EVENT_UC_FLAG: Unlock player control
 19: 0x01E9 [0x21] END_EVENT
 20: 0x01EA [0x00] END_REQSTACK()
```

### Event 65535.16

#### Metadata

| Field        | Value    |
|--------------|----------|
| Entrypoint   | 0x01EB   |
| Data Size    | 37 bytes |
| Instructions | 9        |

```
      00 01 02 03 04 05 06 07  08 09 0A 0B 0C 0D 0E 0F
      -- -- -- -- -- -- -- --  -- -- -- -- -- -- -- --
01E0:                                   29 08 34 E0 0E             ).4..
01F0: 01 01 1D 10 80 23 29 08  34 E0 0E 01 02 29 08 34  .....#).4....).4
0200: E0 0E 01 03 1D 0F 80 23  29 08 34 E0 0E 01 04 00  .......#).4.....
```

#### Opcodes

```
  0: 0x01EB [0x29] REQ_SET_WAIT(priority=0x08, entity_id=Pechiru-Mashiru (ID: 17752116/0x010EE034), tag_num=0x01)
  1: 0x01F2 [0x1D] PRINT_EVENT_MESSAGE(message_id=8494*)
    → "What? Oh, hell! Even after having drunk $1 well, Paku-Nakku still hasn't woken from the Sleep spell?"
  2: 0x01F5 [0x23] WAIT_FOR_DIALOG_INTERACTION
  3: 0x01F6 [0x29] REQ_SET_WAIT(priority=0x08, entity_id=Pechiru-Mashiru (ID: 17752116/0x010EE034), tag_num=0x02)
  4: 0x01FD [0x29] REQ_SET_WAIT(priority=0x08, entity_id=Pechiru-Mashiru (ID: 17752116/0x010EE034), tag_num=0x03)
  5: 0x0204 [0x1D] PRINT_EVENT_MESSAGE(message_id=8495*)
    → "There's something fishy I smell... I'm sure I negated the Sleep spell that was cast on that Paku-Nakku rebel!"
  6: 0x0207 [0x23] WAIT_FOR_DIALOG_INTERACTION
  7: 0x0208 [0x29] REQ_SET_WAIT(priority=0x08, entity_id=Pechiru-Mashiru (ID: 17752116/0x010EE034), tag_num=0x04)
  8: 0x020F [0x00] END_REQSTACK()
```

### Event 65535.17

#### Metadata

| Field        | Value    |
|--------------|----------|
| Entrypoint   | 0x0210   |
| Data Size    | 19 bytes |
| Instructions | 5        |

```
      00 01 02 03 04 05 06 07  08 09 0A 0B 0C 0D 0E 0F
      -- -- -- -- -- -- -- --  -- -- -- -- -- -- -- --
0210: 29 08 34 E0 0E 01 05 1D  11 80 23 29 08 34 E0 0E  ).4.......#).4..
0220: 01 06 00                                          ...             
```

#### Opcodes

```
  0: 0x0210 [0x29] REQ_SET_WAIT(priority=0x08, entity_id=Pechiru-Mashiru (ID: 17752116/0x010EE034), tag_num=0x05)
  1: 0x0217 [0x1D] PRINT_EVENT_MESSAGE(message_id=8496*)
    → "Let me look, by hook or by crook... I made him write his impressions of a book as punishment for the acts he took..."
  2: 0x021A [0x23] WAIT_FOR_DIALOG_INTERACTION
  3: 0x021B [0x29] REQ_SET_WAIT(priority=0x08, entity_id=Pechiru-Mashiru (ID: 17752116/0x010EE034), tag_num=0x06)
  4: 0x0222 [0x00] END_REQSTACK()
```

### Event 65535.18

#### Metadata

| Field        | Value    |
|--------------|----------|
| Entrypoint   | 0x0223   |
| Data Size    | 19 bytes |
| Instructions | 5        |

```
      00 01 02 03 04 05 06 07  08 09 0A 0B 0C 0D 0E 0F
      -- -- -- -- -- -- -- --  -- -- -- -- -- -- -- --
0220:          29 08 34 E0 0E  01 07 1D 12 80 23 29 08     ).4.......#).
0230: 34 E0 0E 01 08 00                                 4.....          
```

#### Opcodes

```
  0: 0x0223 [0x29] REQ_SET_WAIT(priority=0x08, entity_id=Pechiru-Mashiru (ID: 17752116/0x010EE034), tag_num=0x07)
  1: 0x022A [0x1D] PRINT_EVENT_MESSAGE(message_id=8497*)
    → "That's it, I bray! To wake him up right away, to Paku-Nakku you must say:"
  2: 0x022D [0x23] WAIT_FOR_DIALOG_INTERACTION
  3: 0x022E [0x29] REQ_SET_WAIT(priority=0x08, entity_id=Pechiru-Mashiru (ID: 17752116/0x010EE034), tag_num=0x08)
  4: 0x0235 [0x00] END_REQSTACK()
```

### Event 65535.19

#### Metadata

| Field        | Value    |
|--------------|----------|
| Entrypoint   | 0x0236   |
| Data Size    | 19 bytes |
| Instructions | 5        |

```
      00 01 02 03 04 05 06 07  08 09 0A 0B 0C 0D 0E 0F
      -- -- -- -- -- -- -- --  -- -- -- -- -- -- -- --
0230:                   29 08  34 E0 0E 01 0D 1D 13 80        ).4.......
0240: 23 29 08 34 E0 0E 01 0E  00                       #).4.....       
```

#### Opcodes

```
  0: 0x0236 [0x29] REQ_SET_WAIT(priority=0x08, entity_id=Pechiru-Mashiru (ID: 17752116/0x010EE034), tag_num=0x0D)
  1: 0x023D [0x1D] PRINT_EVENT_MESSAGE(message_id=8498*)
    → ""Wake up, fool! Rise now, I bid it! The automaton butler's the one who did it!""
  2: 0x0240 [0x23] WAIT_FOR_DIALOG_INTERACTION
  3: 0x0241 [0x29] REQ_SET_WAIT(priority=0x08, entity_id=Pechiru-Mashiru (ID: 17752116/0x010EE034), tag_num=0x0E)
  4: 0x0248 [0x00] END_REQSTACK()
```

### Event 65535.20

#### Metadata

| Field        | Value   |
|--------------|---------|
| Entrypoint   | 0x0249  |
| Data Size    | 5 bytes |
| Instructions | 3       |

```
      00 01 02 03 04 05 06 07  08 09 0A 0B 0C 0D 0E 0F
      -- -- -- -- -- -- -- --  -- -- -- -- -- -- -- --
0240:                             1D 14 80 23 00                 ...#.  
```

#### Opcodes

```
  0: 0x0249 [0x1D] PRINT_EVENT_MESSAGE(message_id=8499*)
    → "You got that?"
  1: 0x024C [0x23] WAIT_FOR_DIALOG_INTERACTION
  2: 0x024D [0x00] END_REQSTACK()
```

### Event 496

#### Metadata

| Field        | Value    |
|--------------|----------|
| Entrypoint   | 0x024E   |
| Data Size    | 33 bytes |
| Instructions | 12       |

```
      00 01 02 03 04 05 06 07  08 09 0A 0B 0C 0D 0E 0F
      -- -- -- -- -- -- -- --  -- -- -- -- -- -- -- --
0240:                                            1E F0                ..
0250: FF FF 7F 6F 70 29 08 34  E0 0E 01 01 1D 15 80 23  ...op).4.......#
0260: 1D 16 80 23 29 08 34 E0  0E 01 02 20 00 21 00     ...#).4.... .!. 
```

#### Opcodes

```
  0: 0x024E [0x1E] EventEntity looks at LocalPlayer and starts talking
  1: 0x0253 [0x6F] WAIT_FRAME_DELAY: Yield until WaitTime reaches zero
  2: 0x0254 [0x70] WAIT_ENTITY_RENDER_FLAG: Wait while EventEntity->Render.Flags3 bit 2 is set (cancel turn if not)
  3: 0x0255 [0x29] REQ_SET_WAIT(priority=0x08, entity_id=Pechiru-Mashiru (ID: 17752116/0x010EE034), tag_num=0x01)
  4: 0x025C [0x1D] PRINT_EVENT_MESSAGE(message_id=8500*)
    → "To wake him up right away, to Paku-Nakku you must say..."
  5: 0x025F [0x23] WAIT_FOR_DIALOG_INTERACTION
  6: 0x0260 [0x1D] PRINT_EVENT_MESSAGE(message_id=8501*)
    → ""Wake up, fool! Rise now, I bid it! The automaton butler's the one who did it!" You got that?"
  7: 0x0263 [0x23] WAIT_FOR_DIALOG_INTERACTION
  8: 0x0264 [0x29] REQ_SET_WAIT(priority=0x08, entity_id=Pechiru-Mashiru (ID: 17752116/0x010EE034), tag_num=0x02)
  9: 0x026B [0x20] SET_CLI_EVENT_UC_FLAG: Unlock player control
 10: 0x026D [0x21] END_EVENT
 11: 0x026E [0x00] END_REQSTACK()
```

### Event 497

#### Metadata

| Field        | Value    |
|--------------|----------|
| Entrypoint   | 0x026F   |
| Data Size    | 50 bytes |
| Instructions | 16       |

```
      00 01 02 03 04 05 06 07  08 09 0A 0B 0C 0D 0E 0F
      -- -- -- -- -- -- -- --  -- -- -- -- -- -- -- --
0260:                                               20                  
0270: 01 42 1E F0 FF FF 7F 6F  70 29 08 34 E0 0E 01 09  .B.....op).4....
0280: 1D 17 80 23 29 08 34 E0  0E 01 0A 29 08 34 E0 0E  ...#).4....).4..
0290: 01 0B 1D 18 80 23 29 08  34 E0 0E 01 0C 20 00 21  .....#).4.... .!
02A0: 00                                                .               
```

#### Opcodes

```
  0: 0x026F [0x20] SET_CLI_EVENT_UC_FLAG: Lock player control
  1: 0x0271 [0x42] SET_CLI_EVENT_CANCEL_DATA()
  2: 0x0272 [0x1E] EventEntity looks at LocalPlayer and starts talking
  3: 0x0277 [0x6F] WAIT_FRAME_DELAY: Yield until WaitTime reaches zero
  4: 0x0278 [0x70] WAIT_ENTITY_RENDER_FLAG: Wait while EventEntity->Render.Flags3 bit 2 is set (cancel turn if not)
  5: 0x0279 [0x29] REQ_SET_WAIT(priority=0x08, entity_id=Pechiru-Mashiru (ID: 17752116/0x010EE034), tag_num=0x09)
  6: 0x0280 [0x1D] PRINT_EVENT_MESSAGE(message_id=8502*)
    → "Did Paku-Nakku yell at you? To be expected, that is true. Fear not, he'll soon get over it, too."
  7: 0x0283 [0x23] WAIT_FOR_DIALOG_INTERACTION
  8: 0x0284 [0x29] REQ_SET_WAIT(priority=0x08, entity_id=Pechiru-Mashiru (ID: 17752116/0x010EE034), tag_num=0x0A)
  9: 0x028B [0x29] REQ_SET_WAIT(priority=0x08, entity_id=Pechiru-Mashiru (ID: 17752116/0x010EE034), tag_num=0x0B)
 10: 0x0292 [0x1D] PRINT_EVENT_MESSAGE(message_id=8503*)
    → "I never thought he'd go so reading beserk that it would affect his other classwork. Glad that's over, yes, my lord! By the way, here's a reward..."
 11: 0x0295 [0x23] WAIT_FOR_DIALOG_INTERACTION
 12: 0x0296 [0x29] REQ_SET_WAIT(priority=0x08, entity_id=Pechiru-Mashiru (ID: 17752116/0x010EE034), tag_num=0x0C)
 13: 0x029D [0x20] SET_CLI_EVENT_UC_FLAG: Unlock player control
 14: 0x029F [0x21] END_EVENT
 15: 0x02A0 [0x00] END_REQSTACK()
```

### Event 498

#### Metadata

| Field        | Value    |
|--------------|----------|
| Entrypoint   | 0x02A1   |
| Data Size    | 29 bytes |
| Instructions | 10       |

```
      00 01 02 03 04 05 06 07  08 09 0A 0B 0C 0D 0E 0F
      -- -- -- -- -- -- -- --  -- -- -- -- -- -- -- --
02A0:    1E F0 FF FF 7F 6F 70  29 08 34 E0 0E 01 09 1D   .....op).4.....
02B0: 19 80 23 29 08 34 E0 0E  01 0A 20 00 21 00        ..#).4.... .!.  
```

#### Opcodes

```
  0: 0x02A1 [0x1E] EventEntity looks at LocalPlayer and starts talking
  1: 0x02A6 [0x6F] WAIT_FRAME_DELAY: Yield until WaitTime reaches zero
  2: 0x02A7 [0x70] WAIT_ENTITY_RENDER_FLAG: Wait while EventEntity->Render.Flags3 bit 2 is set (cancel turn if not)
  3: 0x02A8 [0x29] REQ_SET_WAIT(priority=0x08, entity_id=Pechiru-Mashiru (ID: 17752116/0x010EE034), tag_num=0x09)
  4: 0x02AF [0x1D] PRINT_EVENT_MESSAGE(message_id=8504*)
    → "So Paku-Nakku went angry at you... I suppose it's only natural to. Don't worry, he'll soon get over it too."
  5: 0x02B2 [0x23] WAIT_FOR_DIALOG_INTERACTION
  6: 0x02B3 [0x29] REQ_SET_WAIT(priority=0x08, entity_id=Pechiru-Mashiru (ID: 17752116/0x010EE034), tag_num=0x0A)
  7: 0x02BA [0x20] SET_CLI_EVENT_UC_FLAG: Unlock player control
  8: 0x02BC [0x21] END_EVENT
  9: 0x02BD [0x00] END_REQSTACK()
```

### Event 445

#### Metadata

| Field        | Value    |
|--------------|----------|
| Entrypoint   | 0x02BE   |
| Data Size    | 33 bytes |
| Instructions | 12       |

```
      00 01 02 03 04 05 06 07  08 09 0A 0B 0C 0D 0E 0F
      -- -- -- -- -- -- -- --  -- -- -- -- -- -- -- --
02B0:                                            1E F0                ..
02C0: FF FF 7F 6F 70 29 08 34  E0 0E 01 09 1D 1A 80 23  ...op).4.......#
02D0: 1D 1B 80 23 29 08 34 E0  0E 01 0F 20 00 21 00     ...#).4.... .!. 
```

#### Opcodes

```
  0: 0x02BE [0x1E] EventEntity looks at LocalPlayer and starts talking
  1: 0x02C3 [0x6F] WAIT_FRAME_DELAY: Yield until WaitTime reaches zero
  2: 0x02C4 [0x70] WAIT_ENTITY_RENDER_FLAG: Wait while EventEntity->Render.Flags3 bit 2 is set (cancel turn if not)
  3: 0x02C5 [0x29] REQ_SET_WAIT(priority=0x08, entity_id=Pechiru-Mashiru (ID: 17752116/0x010EE034), tag_num=0x09)
  4: 0x02CC [0x1D] PRINT_EVENT_MESSAGE(message_id=8390*)
    → "Tests are a load of mumbo jumbo, you bet! Even if the students cram for an exam, I regret, the moment it's over they all but everything forget."
  5: 0x02CF [0x23] WAIT_FOR_DIALOG_INTERACTION
  6: 0x02D0 [0x1D] PRINT_EVENT_MESSAGE(message_id=8391*)
    → "A bit like life. And you ask why? You strive and strive, and then you die! And everyone forgets you. <sigh!>"
  7: 0x02D3 [0x23] WAIT_FOR_DIALOG_INTERACTION
  8: 0x02D4 [0x29] REQ_SET_WAIT(priority=0x08, entity_id=Pechiru-Mashiru (ID: 17752116/0x010EE034), tag_num=0x0F)
  9: 0x02DB [0x20] SET_CLI_EVENT_UC_FLAG: Unlock player control
 10: 0x02DD [0x21] END_EVENT
 11: 0x02DE [0x00] END_REQSTACK()
```

### Event 754

#### Metadata

| Field        | Value    |
|--------------|----------|
| Entrypoint   | 0x02DF   |
| Data Size    | 61 bytes |
| Instructions | 16       |

```
      00 01 02 03 04 05 06 07  08 09 0A 0B 0C 0D 0E 0F
      -- -- -- -- -- -- -- --  -- -- -- -- -- -- -- --
02D0:                                               1E                 .
02E0: F0 FF FF 7F 6F 70 29 08  34 E0 0E 01 09 1D 1C 80  ....op).4.......
02F0: 23 29 08 34 E0 0E 01 0A  29 08 34 E0 0E 01 03 1D  #).4....).4.....
0300: 1D 80 23 29 08 34 E0 0E  01 04 29 08 34 E0 0E 01  ..#).4....).4...
0310: 05 29 08 34 E0 0E 01 06  20 00 21 00              .).4.... .!.    
```

#### Opcodes

```
  0: 0x02DF [0x1E] EventEntity looks at LocalPlayer and starts talking
  1: 0x02E4 [0x6F] WAIT_FRAME_DELAY: Yield until WaitTime reaches zero
  2: 0x02E5 [0x70] WAIT_ENTITY_RENDER_FLAG: Wait while EventEntity->Render.Flags3 bit 2 is set (cancel turn if not)
  3: 0x02E6 [0x29] REQ_SET_WAIT(priority=0x08, entity_id=Pechiru-Mashiru (ID: 17752116/0x010EE034), tag_num=0x09)
  4: 0x02ED [0x1D] PRINT_EVENT_MESSAGE(message_id=9786*)
    → "I wonder to where our former principal Sedal-Godjal disappeared? If he showed up in the morning, now wouldn't that be weird?"
  5: 0x02F0 [0x23] WAIT_FOR_DIALOG_INTERACTION
  6: 0x02F1 [0x29] REQ_SET_WAIT(priority=0x08, entity_id=Pechiru-Mashiru (ID: 17752116/0x010EE034), tag_num=0x0A)
  7: 0x02F8 [0x29] REQ_SET_WAIT(priority=0x08, entity_id=Pechiru-Mashiru (ID: 17752116/0x010EE034), tag_num=0x03)
  8: 0x02FF [0x1D] PRINT_EVENT_MESSAGE(message_id=9787*)
    → "I wonder why he ran away? Couldn't he take the day-to-day?"
  9: 0x0302 [0x23] WAIT_FOR_DIALOG_INTERACTION
 10: 0x0303 [0x29] REQ_SET_WAIT(priority=0x08, entity_id=Pechiru-Mashiru (ID: 17752116/0x010EE034), tag_num=0x04)
 11: 0x030A [0x29] REQ_SET_WAIT(priority=0x08, entity_id=Pechiru-Mashiru (ID: 17752116/0x010EE034), tag_num=0x05)
 12: 0x0311 [0x29] REQ_SET_WAIT(priority=0x08, entity_id=Pechiru-Mashiru (ID: 17752116/0x010EE034), tag_num=0x06)
 13: 0x0318 [0x20] SET_CLI_EVENT_UC_FLAG: Unlock player control
 14: 0x031A [0x21] END_EVENT
 15: 0x031B [0x00] END_REQSTACK()
```

### Event 760

#### Metadata

| Field        | Value    |
|--------------|----------|
| Entrypoint   | 0x031C   |
| Data Size    | 47 bytes |
| Instructions | 14       |

```
      00 01 02 03 04 05 06 07  08 09 0A 0B 0C 0D 0E 0F
      -- -- -- -- -- -- -- --  -- -- -- -- -- -- -- --
0310:                                      1E F0 FF FF              ....
0320: 7F 6F 70 29 08 34 E0 0E  01 01 1D 1E 80 23 29 08  .op).4.......#).
0330: 34 E0 0E 01 02 29 08 34  E0 0E 01 09 1D 1F 80 23  4....).4.......#
0340: 29 08 34 E0 0E 01 0A 20  00 21 00                 ).4.... .!.     
```

#### Opcodes

```
  0: 0x031C [0x1E] EventEntity looks at LocalPlayer and starts talking
  1: 0x0321 [0x6F] WAIT_FRAME_DELAY: Yield until WaitTime reaches zero
  2: 0x0322 [0x70] WAIT_ENTITY_RENDER_FLAG: Wait while EventEntity->Render.Flags3 bit 2 is set (cancel turn if not)
  3: 0x0323 [0x29] REQ_SET_WAIT(priority=0x08, entity_id=Pechiru-Mashiru (ID: 17752116/0x010EE034), tag_num=0x01)
  4: 0x032A [0x1D] PRINT_EVENT_MESSAGE(message_id=9802*)
    → "I overheard you talking about Sedal-Godjal before. He always worried about things that I would just ignore. On issues such as student satisfaction he would ponder, I personally don't have that much precious time to squander."
  5: 0x032D [0x23] WAIT_FOR_DIALOG_INTERACTION
  6: 0x032E [0x29] REQ_SET_WAIT(priority=0x08, entity_id=Pechiru-Mashiru (ID: 17752116/0x010EE034), tag_num=0x02)
  7: 0x0335 [0x29] REQ_SET_WAIT(priority=0x08, entity_id=Pechiru-Mashiru (ID: 17752116/0x010EE034), tag_num=0x09)
  8: 0x033C [0x1D] PRINT_EVENT_MESSAGE(message_id=9803*)
    → "I always say that keeping expectations low is best. By keeping to this simple rule, you'll never see me stressed."
  9: 0x033F [0x23] WAIT_FOR_DIALOG_INTERACTION
 10: 0x0340 [0x29] REQ_SET_WAIT(priority=0x08, entity_id=Pechiru-Mashiru (ID: 17752116/0x010EE034), tag_num=0x0A)
 11: 0x0347 [0x20] SET_CLI_EVENT_UC_FLAG: Unlock player control
 12: 0x0349 [0x21] END_EVENT
 13: 0x034A [0x00] END_REQSTACK()
```

### Event 541

#### Metadata

| Field        | Value    |
|--------------|----------|
| Entrypoint   | 0x034B   |
| Data Size    | 33 bytes |
| Instructions | 12       |

```
      00 01 02 03 04 05 06 07  08 09 0A 0B 0C 0D 0E 0F
      -- -- -- -- -- -- -- --  -- -- -- -- -- -- -- --
0340:                                   1E F0 FF FF 7F             .....
0350: 6F 70 29 08 34 E0 0E 01  01 1D 20 80 23 1D 21 80  op).4..... .#.!.
0360: 23 29 08 34 E0 0E 01 0A  20 00 21 00              #).4.... .!.    
```

#### Opcodes

```
  0: 0x034B [0x1E] EventEntity looks at LocalPlayer and starts talking
  1: 0x0350 [0x6F] WAIT_FRAME_DELAY: Yield until WaitTime reaches zero
  2: 0x0351 [0x70] WAIT_ENTITY_RENDER_FLAG: Wait while EventEntity->Render.Flags3 bit 2 is set (cancel turn if not)
  3: 0x0352 [0x29] REQ_SET_WAIT(priority=0x08, entity_id=Pechiru-Mashiru (ID: 17752116/0x010EE034), tag_num=0x01)
  4: 0x0359 [0x1D] PRINT_EVENT_MESSAGE(message_id=8751*)
    → "A book on Alchemy, eh? I'd love to take a look at one myself, I say. But they were all banned years ago. 'Twas said that they were a bad influence on children, you know?"
  5: 0x035C [0x23] WAIT_FOR_DIALOG_INTERACTION
  6: 0x035D [0x1D] PRINT_EVENT_MESSAGE(message_id=8752*)
    → "I'm not certain whether they really were or not. All I do know is--if I haven't forgot-- that getting your hands on one now will be close to impossible, I avow!"
  7: 0x0360 [0x23] WAIT_FOR_DIALOG_INTERACTION
  8: 0x0361 [0x29] REQ_SET_WAIT(priority=0x08, entity_id=Pechiru-Mashiru (ID: 17752116/0x010EE034), tag_num=0x0A)
  9: 0x0368 [0x20] SET_CLI_EVENT_UC_FLAG: Unlock player control
 10: 0x036A [0x21] END_EVENT
 11: 0x036B [0x00] END_REQSTACK()
```
