# 17752122 - Rukuku

## Common Data

| Field            | Value                     |
|------------------|---------------------------|
| Zone             | Windurst Waters (ID: 238) |
| Block Size       | 344 bytes                 |
| Total Events     | 10                        |
| References Count | 12                        |

## List of Events

| Event ID                 | Entrypoint   |   Size |   Instructions |
|--------------------------|--------------|--------|----------------|
| [65535](#event-65535)    | 0x0000       |      1 |              1 |
| [65535.1](#event-655351) | 0x0001       |     16 |              2 |
| [65535.2](#event-655352) | 0x0011       |     22 |              4 |
| [65535.3](#event-655353) | 0x0027       |      9 |              3 |
| [426](#event-426)        | 0x0030       |     33 |             12 |
| [189](#event-189)        | 0x0051       |     29 |             10 |
| [487](#event-487)        | 0x006E       |     33 |             12 |
| [505](#event-505)        | 0x008F       |     33 |             12 |
| [450](#event-450)        | 0x00B0       |     33 |             12 |
| [470](#event-470)        | 0x00D1       |     29 |             10 |

## DAT References (imed_data)

|   Index | Hex Value   |   Dec Value |
|---------|-------------|-------------|
|       0 | 0x0055      |          85 |
|       1 | 0x001E      |          30 |
|       2 | 0x2097      |        8343 |
|       3 | 0x2098      |        8344 |
|       4 | 0x1E4A      |        7754 |
|       5 | 0x211C      |        8476 |
|       6 | 0x211D      |        8477 |
|       7 | 0x2149      |        8521 |
|       8 | 0x214A      |        8522 |
|       9 | 0x20CF      |        8399 |
|      10 | 0x20D0      |        8400 |
|      11 | 0x20FE      |        8446 |

## String References

- **7754**: Last year's skills test was held in Tahrongi Canyon. I wonder if this year's test will be held there, or on the Buburimu Peninsula...?
- **8343**: School is a lot more fun than I expected. I'm glad I listened to my mother and enrolled here.
- **8344**: I made a lot of friends, and learning's fun when we're together.
- **8399**: Oww! I'm sure I totally failed my test. I forget everything as soon as I'm put under pressure.
- **8400**: If only I had thirty minutes more, I could have taken my time and relaxed a little.
- **8446**: When you grow the plant in a flowerpot and feed it a crystal at just the right time, you'll get a different result.
- **8476**: What's up with Paku-Nakku? He's always dropping off to sleep in class lately.
- **8477**: He's usually the rowdiest one in class! I wonder if he's okay.
- **8521**: Ooowww......
- **8522**: I hadn't read that book yet! <sniff>

## Events

### Event 65535

#### Metadata

| Field        | Value   |
|--------------|---------|
| Entrypoint   | 0x0000  |
| Data Size    | 1 bytes |
| Instructions | 1       |

```
      00 01 02 03 04 05 06 07  08 09 0A 0B 0C 0D 0E 0F
      -- -- -- -- -- -- -- --  -- -- -- -- -- -- -- --
0000: 00                                                .               
```

#### Opcodes

```
  0: 0x0000 [0x00] END_REQSTACK()
```

### Event 65535.1

#### Metadata

| Field        | Value    |
|--------------|----------|
| Entrypoint   | 0x0001   |
| Data Size    | 16 bytes |
| Instructions | 2        |

```
      00 01 02 03 04 05 06 07  08 09 0A 0B 0C 0D 0E 0F
      -- -- -- -- -- -- -- --  -- -- -- -- -- -- -- --
0000:    5B 00 80 F8 FF FF 7F  F8 FF FF 7F 74 6C 6B 30   [..........tlk0
0010: 00                                                .               
```

#### Opcodes

```
  0: 0x0001 [0x5B] LOAD_EXT_SCHEDULER: Load scheduler "tlk0" with entities [EventEntity, EventEntity], work=85*
  1: 0x0010 [0x00] END_REQSTACK()
```

### Event 65535.2

#### Metadata

| Field        | Value    |
|--------------|----------|
| Entrypoint   | 0x0011   |
| Data Size    | 22 bytes |
| Instructions | 4        |

```
      00 01 02 03 04 05 06 07  08 09 0A 0B 0C 0D 0E 0F
      -- -- -- -- -- -- -- --  -- -- -- -- -- -- -- --
0010:    53 F8 FF FF 7F F8 FF  FF 7F 74 6C 6B 30 5E 69   S........tlk0^i
0020: 64 6C 30 1C 01 80 00                              dl0....         
```

#### Opcodes

```
  0: 0x0011 [0x53] WAIT_SCHEDULER_TASK: Wait for scheduler "tlk0" with entities [EventEntity, EventEntity]
  1: 0x001E [0x5E] EventEntity goes idle (kills current action) (animation: "idl0")
  2: 0x0023 [0x1C] WAIT(30* ticks)
  3: 0x0026 [0x00] END_REQSTACK()
```

### Event 65535.3

#### Metadata

| Field        | Value   |
|--------------|---------|
| Entrypoint   | 0x0027  |
| Data Size    | 9 bytes |
| Instructions | 3       |

```
      00 01 02 03 04 05 06 07  08 09 0A 0B 0C 0D 0E 0F
      -- -- -- -- -- -- -- --  -- -- -- -- -- -- -- --
0020:                      5E  69 64 6C 30 1C 01 80 00         ^idl0....
```

#### Opcodes

```
  0: 0x0027 [0x5E] EventEntity goes idle (kills current action) (animation: "idl0")
  1: 0x002C [0x1C] WAIT(30* ticks)
  2: 0x002F [0x00] END_REQSTACK()
```

### Event 426

#### Metadata

| Field        | Value    |
|--------------|----------|
| Entrypoint   | 0x0030   |
| Data Size    | 33 bytes |
| Instructions | 12       |

```
      00 01 02 03 04 05 06 07  08 09 0A 0B 0C 0D 0E 0F
      -- -- -- -- -- -- -- --  -- -- -- -- -- -- -- --
0030: 1E F0 FF FF 7F 6F 70 29  08 3A E0 0E 01 01 1D 02  .....op).:......
0040: 80 23 1D 03 80 23 29 08  3A E0 0E 01 02 20 00 21  .#...#).:.... .!
0050: 00                                                .               
```

#### Opcodes

```
  0: 0x0030 [0x1E] EventEntity looks at LocalPlayer and starts talking
  1: 0x0035 [0x6F] WAIT_FRAME_DELAY: Yield until WaitTime reaches zero
  2: 0x0036 [0x70] WAIT_ENTITY_RENDER_FLAG: Wait while EventEntity->Render.Flags3 bit 2 is set (cancel turn if not)
  3: 0x0037 [0x29] REQ_SET_WAIT(priority=0x08, entity_id=Rukuku (ID: 17752122/0x010EE03A), tag_num=0x01)
  4: 0x003E [0x1D] PRINT_EVENT_MESSAGE(message_id=8343*)
    → "School is a lot more fun than I expected. I'm glad I listened to my mother and enrolled here."
  5: 0x0041 [0x23] WAIT_FOR_DIALOG_INTERACTION
  6: 0x0042 [0x1D] PRINT_EVENT_MESSAGE(message_id=8344*)
    → "I made a lot of friends, and learning's fun when we're together."
  7: 0x0045 [0x23] WAIT_FOR_DIALOG_INTERACTION
  8: 0x0046 [0x29] REQ_SET_WAIT(priority=0x08, entity_id=Rukuku (ID: 17752122/0x010EE03A), tag_num=0x02)
  9: 0x004D [0x20] SET_CLI_EVENT_UC_FLAG: Unlock player control
 10: 0x004F [0x21] END_EVENT
 11: 0x0050 [0x00] END_REQSTACK()
```

### Event 189

#### Metadata

| Field        | Value    |
|--------------|----------|
| Entrypoint   | 0x0051   |
| Data Size    | 29 bytes |
| Instructions | 10       |

```
      00 01 02 03 04 05 06 07  08 09 0A 0B 0C 0D 0E 0F
      -- -- -- -- -- -- -- --  -- -- -- -- -- -- -- --
0050:    1E F0 FF FF 7F 6F 70  29 08 3A E0 0E 01 01 1D   .....op).:.....
0060: 04 80 23 29 08 3A E0 0E  01 02 20 00 21 00        ..#).:.... .!.  
```

#### Opcodes

```
  0: 0x0051 [0x1E] EventEntity looks at LocalPlayer and starts talking
  1: 0x0056 [0x6F] WAIT_FRAME_DELAY: Yield until WaitTime reaches zero
  2: 0x0057 [0x70] WAIT_ENTITY_RENDER_FLAG: Wait while EventEntity->Render.Flags3 bit 2 is set (cancel turn if not)
  3: 0x0058 [0x29] REQ_SET_WAIT(priority=0x08, entity_id=Rukuku (ID: 17752122/0x010EE03A), tag_num=0x01)
  4: 0x005F [0x1D] PRINT_EVENT_MESSAGE(message_id=7754*)
    → "Last year's skills test was held in Tahrongi Canyon. I wonder if this year's test will be held there, or on the Buburimu Peninsula...?"
  5: 0x0062 [0x23] WAIT_FOR_DIALOG_INTERACTION
  6: 0x0063 [0x29] REQ_SET_WAIT(priority=0x08, entity_id=Rukuku (ID: 17752122/0x010EE03A), tag_num=0x02)
  7: 0x006A [0x20] SET_CLI_EVENT_UC_FLAG: Unlock player control
  8: 0x006C [0x21] END_EVENT
  9: 0x006D [0x00] END_REQSTACK()
```

### Event 487

#### Metadata

| Field        | Value    |
|--------------|----------|
| Entrypoint   | 0x006E   |
| Data Size    | 33 bytes |
| Instructions | 12       |

```
      00 01 02 03 04 05 06 07  08 09 0A 0B 0C 0D 0E 0F
      -- -- -- -- -- -- -- --  -- -- -- -- -- -- -- --
0060:                                            1E F0                ..
0070: FF FF 7F 6F 70 29 08 3A  E0 0E 01 01 1D 05 80 23  ...op).:.......#
0080: 1D 06 80 23 29 08 3A E0  0E 01 02 20 00 21 00     ...#).:.... .!. 
```

#### Opcodes

```
  0: 0x006E [0x1E] EventEntity looks at LocalPlayer and starts talking
  1: 0x0073 [0x6F] WAIT_FRAME_DELAY: Yield until WaitTime reaches zero
  2: 0x0074 [0x70] WAIT_ENTITY_RENDER_FLAG: Wait while EventEntity->Render.Flags3 bit 2 is set (cancel turn if not)
  3: 0x0075 [0x29] REQ_SET_WAIT(priority=0x08, entity_id=Rukuku (ID: 17752122/0x010EE03A), tag_num=0x01)
  4: 0x007C [0x1D] PRINT_EVENT_MESSAGE(message_id=8476*)
    → "What's up with Paku-Nakku? He's always dropping off to sleep in class lately."
  5: 0x007F [0x23] WAIT_FOR_DIALOG_INTERACTION
  6: 0x0080 [0x1D] PRINT_EVENT_MESSAGE(message_id=8477*)
    → "He's usually the rowdiest one in class! I wonder if he's okay."
  7: 0x0083 [0x23] WAIT_FOR_DIALOG_INTERACTION
  8: 0x0084 [0x29] REQ_SET_WAIT(priority=0x08, entity_id=Rukuku (ID: 17752122/0x010EE03A), tag_num=0x02)
  9: 0x008B [0x20] SET_CLI_EVENT_UC_FLAG: Unlock player control
 10: 0x008D [0x21] END_EVENT
 11: 0x008E [0x00] END_REQSTACK()
```

### Event 505

#### Metadata

| Field        | Value    |
|--------------|----------|
| Entrypoint   | 0x008F   |
| Data Size    | 33 bytes |
| Instructions | 12       |

```
      00 01 02 03 04 05 06 07  08 09 0A 0B 0C 0D 0E 0F
      -- -- -- -- -- -- -- --  -- -- -- -- -- -- -- --
0080:                                               1E                 .
0090: F0 FF FF 7F 6F 70 29 08  3A E0 0E 01 01 1D 07 80  ....op).:.......
00A0: 23 1D 08 80 23 29 08 3A  E0 0E 01 02 20 00 21 00  #...#).:.... .!.
```

#### Opcodes

```
  0: 0x008F [0x1E] EventEntity looks at LocalPlayer and starts talking
  1: 0x0094 [0x6F] WAIT_FRAME_DELAY: Yield until WaitTime reaches zero
  2: 0x0095 [0x70] WAIT_ENTITY_RENDER_FLAG: Wait while EventEntity->Render.Flags3 bit 2 is set (cancel turn if not)
  3: 0x0096 [0x29] REQ_SET_WAIT(priority=0x08, entity_id=Rukuku (ID: 17752122/0x010EE03A), tag_num=0x01)
  4: 0x009D [0x1D] PRINT_EVENT_MESSAGE(message_id=8521*)
    → "Ooowww......"
  5: 0x00A0 [0x23] WAIT_FOR_DIALOG_INTERACTION
  6: 0x00A1 [0x1D] PRINT_EVENT_MESSAGE(message_id=8522*)
    → "I hadn't read that book yet! <sniff>"
  7: 0x00A4 [0x23] WAIT_FOR_DIALOG_INTERACTION
  8: 0x00A5 [0x29] REQ_SET_WAIT(priority=0x08, entity_id=Rukuku (ID: 17752122/0x010EE03A), tag_num=0x02)
  9: 0x00AC [0x20] SET_CLI_EVENT_UC_FLAG: Unlock player control
 10: 0x00AE [0x21] END_EVENT
 11: 0x00AF [0x00] END_REQSTACK()
```

### Event 450

#### Metadata

| Field        | Value    |
|--------------|----------|
| Entrypoint   | 0x00B0   |
| Data Size    | 33 bytes |
| Instructions | 12       |

```
      00 01 02 03 04 05 06 07  08 09 0A 0B 0C 0D 0E 0F
      -- -- -- -- -- -- -- --  -- -- -- -- -- -- -- --
00B0: 1E F0 FF FF 7F 6F 70 29  08 3A E0 0E 01 01 1D 09  .....op).:......
00C0: 80 23 1D 0A 80 23 29 08  3A E0 0E 01 02 20 00 21  .#...#).:.... .!
00D0: 00                                                .               
```

#### Opcodes

```
  0: 0x00B0 [0x1E] EventEntity looks at LocalPlayer and starts talking
  1: 0x00B5 [0x6F] WAIT_FRAME_DELAY: Yield until WaitTime reaches zero
  2: 0x00B6 [0x70] WAIT_ENTITY_RENDER_FLAG: Wait while EventEntity->Render.Flags3 bit 2 is set (cancel turn if not)
  3: 0x00B7 [0x29] REQ_SET_WAIT(priority=0x08, entity_id=Rukuku (ID: 17752122/0x010EE03A), tag_num=0x01)
  4: 0x00BE [0x1D] PRINT_EVENT_MESSAGE(message_id=8399*)
    → "Oww! I'm sure I totally failed my test. I forget everything as soon as I'm put under pressure."
  5: 0x00C1 [0x23] WAIT_FOR_DIALOG_INTERACTION
  6: 0x00C2 [0x1D] PRINT_EVENT_MESSAGE(message_id=8400*)
    → "If only I had thirty minutes more, I could have taken my time and relaxed a little."
  7: 0x00C5 [0x23] WAIT_FOR_DIALOG_INTERACTION
  8: 0x00C6 [0x29] REQ_SET_WAIT(priority=0x08, entity_id=Rukuku (ID: 17752122/0x010EE03A), tag_num=0x02)
  9: 0x00CD [0x20] SET_CLI_EVENT_UC_FLAG: Unlock player control
 10: 0x00CF [0x21] END_EVENT
 11: 0x00D0 [0x00] END_REQSTACK()
```

### Event 470

#### Metadata

| Field        | Value    |
|--------------|----------|
| Entrypoint   | 0x00D1   |
| Data Size    | 29 bytes |
| Instructions | 10       |

```
      00 01 02 03 04 05 06 07  08 09 0A 0B 0C 0D 0E 0F
      -- -- -- -- -- -- -- --  -- -- -- -- -- -- -- --
00D0:    1E F0 FF FF 7F 6F 70  29 08 3A E0 0E 01 01 1D   .....op).:.....
00E0: 0B 80 23 29 08 3A E0 0E  01 02 20 00 21 00        ..#).:.... .!.  
```

#### Opcodes

```
  0: 0x00D1 [0x1E] EventEntity looks at LocalPlayer and starts talking
  1: 0x00D6 [0x6F] WAIT_FRAME_DELAY: Yield until WaitTime reaches zero
  2: 0x00D7 [0x70] WAIT_ENTITY_RENDER_FLAG: Wait while EventEntity->Render.Flags3 bit 2 is set (cancel turn if not)
  3: 0x00D8 [0x29] REQ_SET_WAIT(priority=0x08, entity_id=Rukuku (ID: 17752122/0x010EE03A), tag_num=0x01)
  4: 0x00DF [0x1D] PRINT_EVENT_MESSAGE(message_id=8446*)
    → "When you grow the plant in a flowerpot and feed it a crystal at just the right time, you'll get a different result."
  5: 0x00E2 [0x23] WAIT_FOR_DIALOG_INTERACTION
  6: 0x00E3 [0x29] REQ_SET_WAIT(priority=0x08, entity_id=Rukuku (ID: 17752122/0x010EE03A), tag_num=0x02)
  7: 0x00EA [0x20] SET_CLI_EVENT_UC_FLAG: Unlock player control
  8: 0x00EC [0x21] END_EVENT
  9: 0x00ED [0x00] END_REQSTACK()
```
