# 17752525

## Common Data

| Field            | Value                     |
|------------------|---------------------------|
| Zone             | Windurst Waters (ID: 238) |
| Block Size       | 104 bytes                 |
| Total Events     | 4                         |
| References Count | 3                         |

## List of Events

| Event ID                 | Entrypoint   |   Size |   Instructions |
|--------------------------|--------------|--------|----------------|
| [65535](#event-65535)    | 0x0000       |      1 |              1 |
| [1094](#event-1094)      | 0x0001       |      1 |              1 |
| [1095](#event-1095)      | 0x0002       |      1 |              1 |
| [65535.1](#event-655351) | 0x0003       |     56 |             13 |

## DAT References (imed_data)

|   Index | Hex Value   |   Dec Value |
|---------|-------------|-------------|
|       0 | 0x07B4      |        1972 |
|       1 | 0x00F0      |         240 |
|       2 | 0xFFFFFCF1  |  4294966513 |

## Events

### Event 65535

#### Metadata

| Field        | Value   |
|--------------|---------|
| Entrypoint   | 0x0000  |
| Data Size    | 1 bytes |
| Instructions | 1       |

```
      00 01 02 03 04 05 06 07  08 09 0A 0B 0C 0D 0E 0F
      -- -- -- -- -- -- -- --  -- -- -- -- -- -- -- --
0000: 00                                                .               
```

#### Opcodes

```
  0: 0x0000 [0x00] END_REQSTACK()
```

### Event 1094

#### Metadata

| Field        | Value   |
|--------------|---------|
| Entrypoint   | 0x0001  |
| Data Size    | 1 bytes |
| Instructions | 1       |

```
      00 01 02 03 04 05 06 07  08 09 0A 0B 0C 0D 0E 0F
      -- -- -- -- -- -- -- --  -- -- -- -- -- -- -- --
0000:    00                                              .              
```

#### Opcodes

```
  0: 0x0001 [0x00] END_REQSTACK()
```

### Event 1095

#### Metadata

| Field        | Value   |
|--------------|---------|
| Entrypoint   | 0x0002  |
| Data Size    | 1 bytes |
| Instructions | 1       |

```
      00 01 02 03 04 05 06 07  08 09 0A 0B 0C 0D 0E 0F
      -- -- -- -- -- -- -- --  -- -- -- -- -- -- -- --
0000:       00                                            .             
```

#### Opcodes

```
  0: 0x0002 [0x00] END_REQSTACK()
```

### Event 65535.1

#### Metadata

| Field        | Value    |
|--------------|----------|
| Entrypoint   | 0x0003   |
| Data Size    | 56 bytes |
| Instructions | 13       |

```
      00 01 02 03 04 05 06 07  08 09 0A 0B 0C 0D 0E 0F
      -- -- -- -- -- -- -- --  -- -- -- -- -- -- -- --
0000:          02 05 17 00 80  00 27 00 1E CC E1 0E 01     ......'......
0010: 6F 70 C4 02 05 17 F8 FF  FF 7F CC E1 0E 01 1C 01  op..............
0020: 80 39 02 80 01 3A 00 1E  F0 FF FF 7F 6F 70 C4 02  .9...:......op..
0030: 05 17 F8 FF FF 7F F0 FF  FF 7F 00                 ...........     
```

#### Opcodes

```
  0: 0x0003 [0x02] IF !(Work_Zone_1700[5] == 1972*) GOTO 0x0027
  1: 0x000B [0x1E] EventEntity looks at Ensemble Maven (ID: 17752524/0x010EE1CC) and starts talking
  2: 0x0010 [0x6F] WAIT_FRAME_DELAY: Yield until WaitTime reaches zero
  3: 0x0011 [0x70] WAIT_ENTITY_RENDER_FLAG: Wait while EventEntity->Render.Flags3 bit 2 is set (cancel turn if not)
  4: 0x0012 [0xC4] SCHEDULE_MAGIC_CASTING_ALT (arg=18): EventEntity casts magic Work_Zone_1700[5] on Ensemble Maven (ID: 17752524/0x010EE1CC)
  5: 0x001E [0x1C] WAIT(240* ticks)
  6: 0x0021 [0x39] SET_ENTITY_DIRECTION(direction=355.7°*)
  7: 0x0024 [0x01] GOTO 0x003A
  8: 0x0027 [0x1E] EventEntity looks at LocalPlayer and starts talking
  9: 0x002C [0x6F] WAIT_FRAME_DELAY: Yield until WaitTime reaches zero
 10: 0x002D [0x70] WAIT_ENTITY_RENDER_FLAG: Wait while EventEntity->Render.Flags3 bit 2 is set (cancel turn if not)
 11: 0x002E [0xC4] SCHEDULE_MAGIC_CASTING_ALT (arg=18): EventEntity casts magic Work_Zone_1700[5] on LocalPlayer

SUBROUTINE_003A:
 12: 0x003A [0x00] END_REQSTACK()
```
