# 17752222 - Tonana

## Common Data

| Field            | Value                     |
|------------------|---------------------------|
| Zone             | Windurst Waters (ID: 238) |
| Block Size       | 248 bytes                 |
| Total Events     | 5                         |
| References Count | 10                        |

## List of Events

| Event ID                 | Entrypoint   |   Size |   Instructions |
|--------------------------|--------------|--------|----------------|
| [65535](#event-65535)    | 0x0000       |      1 |              1 |
| [65535.1](#event-655351) | 0x0001       |     16 |              2 |
| [65535.2](#event-655352) | 0x0011       |     22 |              4 |
| [65535.3](#event-655353) | 0x0027       |      9 |              3 |
| [571](#event-571)        | 0x0030       |    124 |             23 |

## DAT References (imed_data)

|   Index | Hex Value   |   Dec Value |
|---------|-------------|-------------|
|       0 | 0x0028      |          40 |
|       1 | 0x001E      |          30 |
|       2 | 0x22AA      |        8874 |
|       3 | 0x22AB      |        8875 |
|       4 | 0x0001      |           1 |
|       5 | 0x0000      |           0 |
|       6 | 0x0105      |         261 |
|       7 | 0x00C8      |         200 |
|       8 | 0x0078      |         120 |
|       9 | 0x0002      |           2 |

## String References

- **8874**: You're now in Windurst Waters. If you like, I'll use my incredible magic abilities to send you over to Windurst Woods, far to the east of here.
- **8875**: Warp to Windurst Woods? [Warp away!/Maybe another day.]

## Events

### Event 65535

#### Metadata

| Field        | Value   |
|--------------|---------|
| Entrypoint   | 0x0000  |
| Data Size    | 1 bytes |
| Instructions | 1       |

```
      00 01 02 03 04 05 06 07  08 09 0A 0B 0C 0D 0E 0F
      -- -- -- -- -- -- -- --  -- -- -- -- -- -- -- --
0000: 00                                                .               
```

#### Opcodes

```
  0: 0x0000 [0x00] END_REQSTACK()
```

### Event 65535.1

#### Metadata

| Field        | Value    |
|--------------|----------|
| Entrypoint   | 0x0001   |
| Data Size    | 16 bytes |
| Instructions | 2        |

```
      00 01 02 03 04 05 06 07  08 09 0A 0B 0C 0D 0E 0F
      -- -- -- -- -- -- -- --  -- -- -- -- -- -- -- --
0000:    66 00 80 F8 FF FF 7F  F8 FF FF 7F 74 6C 6B 30   f..........tlk0
0010: 00                                                .               
```

#### Opcodes

```
  0: 0x0001 [0x66] LOAD_EXT_SCHEDULER_MAIN: Load scheduler "tlk0" with entities [EventEntity, EventEntity], work=40*
  1: 0x0010 [0x00] END_REQSTACK()
```

### Event 65535.2

#### Metadata

| Field        | Value    |
|--------------|----------|
| Entrypoint   | 0x0011   |
| Data Size    | 22 bytes |
| Instructions | 4        |

```
      00 01 02 03 04 05 06 07  08 09 0A 0B 0C 0D 0E 0F
      -- -- -- -- -- -- -- --  -- -- -- -- -- -- -- --
0010:    53 F8 FF FF 7F F8 FF  FF 7F 74 6C 6B 30 5E 69   S........tlk0^i
0020: 64 6C 30 1C 01 80 00                              dl0....         
```

#### Opcodes

```
  0: 0x0011 [0x53] WAIT_SCHEDULER_TASK: Wait for scheduler "tlk0" with entities [EventEntity, EventEntity]
  1: 0x001E [0x5E] EventEntity goes idle (kills current action) (animation: "idl0")
  2: 0x0023 [0x1C] WAIT(30* ticks)
  3: 0x0026 [0x00] END_REQSTACK()
```

### Event 65535.3

#### Metadata

| Field        | Value   |
|--------------|---------|
| Entrypoint   | 0x0027  |
| Data Size    | 9 bytes |
| Instructions | 3       |

```
      00 01 02 03 04 05 06 07  08 09 0A 0B 0C 0D 0E 0F
      -- -- -- -- -- -- -- --  -- -- -- -- -- -- -- --
0020:                      5E  69 64 6C 30 1C 01 80 00         ^idl0....
```

#### Opcodes

```
  0: 0x0027 [0x5E] EventEntity goes idle (kills current action) (animation: "idl0")
  1: 0x002C [0x1C] WAIT(30* ticks)
  2: 0x002F [0x00] END_REQSTACK()
```

### Event 571

#### Metadata

| Field        | Value     |
|--------------|-----------|
| Entrypoint   | 0x0030    |
| Data Size    | 124 bytes |
| Instructions | 23        |

```
      00 01 02 03 04 05 06 07  08 09 0A 0B 0C 0D 0E 0F
      -- -- -- -- -- -- -- --  -- -- -- -- -- -- -- --
0030: 1E F0 FF FF 7F 6F 70 29  08 9E E0 0E 01 01 1D 02  .....op)........
0040: 80 23 66 00 80 F8 FF FF  7F F8 FF FF 7F 74 6C 6B  .#f..........tlk
0050: 31 24 03 80 04 80 05 80  25 02 00 10 05 80 00 98  1$......%.......
0060: 00 53 F8 FF FF 7F F8 FF  FF 7F 74 6C 6B 31 73 06  .S........tlk1s.
0070: 80 F8 FF FF 7F F0 FF FF  7F 1C 07 80 45 07 80 F8  ............E...
0080: FF FF 7F F8 FF FF 7F 66  64 6F 32 05 80 1C 08 80  .......fdo2.....
0090: 03 01 10 04 80 01 A8 00  02 00 10 04 80 00 A8 00  ................
00A0: 03 01 10 09 80 01 A8 00  20 00 21 00              ........ .!.    
```

#### Opcodes

```
  0: 0x0030 [0x1E] EventEntity looks at LocalPlayer and starts talking
  1: 0x0035 [0x6F] WAIT_FRAME_DELAY: Yield until WaitTime reaches zero
  2: 0x0036 [0x70] WAIT_ENTITY_RENDER_FLAG: Wait while EventEntity->Render.Flags3 bit 2 is set (cancel turn if not)
  3: 0x0037 [0x29] REQ_SET_WAIT(priority=0x08, entity_id=Tonana (ID: 17752222/0x010EE09E), tag_num=0x01)
  4: 0x003E [0x1D] PRINT_EVENT_MESSAGE(message_id=8874*)
    → "You're now in Windurst Waters. If you like, I'll use my incredible magic abilities to send you over to Windurst Woods, far to the east of here."
  5: 0x0041 [0x23] WAIT_FOR_DIALOG_INTERACTION
  6: 0x0042 [0x66] LOAD_EXT_SCHEDULER_MAIN: Load scheduler "tlk1" with entities [EventEntity, EventEntity], work=40*
  7: 0x0051 [0x24] CREATE_DIALOG(message_id=8875*, default_option=1*, option_flags=0*)
    → "Warp to Windurst Woods? [Warp away!/Maybe another day.]"
  8: 0x0058 [0x25] WAIT_DIALOG_SELECT()
  9: 0x0059 [0x02] IF !(Work_Zone[0] == 0*) GOTO 0x0098
 10: 0x0061 [0x53] WAIT_SCHEDULER_TASK: Wait for scheduler "tlk1" with entities [EventEntity, EventEntity]
 11: 0x006E [0x73] EventEntity casts magic 261* on LocalPlayer
 12: 0x0079 [0x1C] WAIT(200* ticks)
 13: 0x007C [0x45] LOAD_SCHEDULED_TASK: Load scheduler "fdo2" with entities [EventEntity, EventEntity], work=[200*, 0*]
 14: 0x008D [0x1C] WAIT(120* ticks)
 15: 0x0090 [0x03] Work_Zone[1] = 1*
 16: 0x0095 [0x01] GOTO 0x00A8
 17: 0x0098 [0x02] IF !(Work_Zone[0] == 1*) GOTO 0x00A8
 18: 0x00A0 [0x03] Work_Zone[1] = 2*
 19: 0x00A5 [0x01] GOTO 0x00A8

SUBROUTINE_00A8:
 20: 0x00A8 [0x20] SET_CLI_EVENT_UC_FLAG: Unlock player control
 21: 0x00AA [0x21] END_EVENT
 22: 0x00AB [0x00] END_REQSTACK()
```
