# 17752119 - Tauwawa

## Common Data

| Field            | Value                     |
|------------------|---------------------------|
| Zone             | Windurst Waters (ID: 238) |
| Block Size       | 312 bytes                 |
| Total Events     | 10                        |
| References Count | 11                        |

## List of Events

| Event ID                 | Entrypoint   |   Size |   Instructions |
|--------------------------|--------------|--------|----------------|
| [65535](#event-65535)    | 0x0000       |      1 |              1 |
| [65535.1](#event-655351) | 0x0001       |     16 |              2 |
| [65535.2](#event-655352) | 0x0011       |     22 |              4 |
| [65535.3](#event-655353) | 0x0027       |      9 |              3 |
| [424](#event-424)        | 0x0030       |     33 |             12 |
| [182](#event-182)        | 0x0051       |      1 |              1 |
| [187](#event-187)        | 0x0052       |     33 |             12 |
| [446](#event-446)        | 0x0073       |     33 |             12 |
| [756](#event-756)        | 0x0094       |     33 |             12 |
| [762](#event-762)        | 0x00B5       |     29 |             10 |

## DAT References (imed_data)

|   Index | Hex Value   |   Dec Value |
|---------|-------------|-------------|
|       0 | 0x0028      |          40 |
|       1 | 0x001E      |          30 |
|       2 | 0x2094      |        8340 |
|       3 | 0x2095      |        8341 |
|       4 | 0x1E47      |        7751 |
|       5 | 0x1E48      |        7752 |
|       6 | 0x20C8      |        8392 |
|       7 | 0x20C9      |        8393 |
|       8 | 0x263E      |        9790 |
|       9 | 0x263F      |        9791 |
|      10 | 0x264E      |        9806 |

## String References

- **7751**: Do your best to help us make this year's skills test as fair and square as we can. Improvisation is encouraged. The students can work in parties, and so can you.
- **7752**: Be careful of the time limit, though. If I were you, I'd give myself about an hour to rush back to Mr. Moreno-Toeno.
- **8340**: The School of Magic's system of "determining your future while you are young" is quite practical, really.
- **8341**: You don't have to fear an uncertain future, leaving you to enjoy the freedom of your youth. That way, you won't have any regrets as you get older, saying "I wish I had more fun as a kid..."
- **8392**: Yesterday, a student from the advanced class named Chomoro-Kyotoro came looking for Ms. Fuepepe.
- **8393**: I wonder if he finally met Ms. Fuepepe? When I came back to my counter, he was already gone.
- **9790**: The Manustery is currently mass-producing Cardians, but they used to manufacture magic dolls.
- **9791**: Relatively few people can master the techniques required to make them. I wonder why Professor Koru-Moru never took a position at the Manustery!
- **9806**: I'm so relieved that Sedal-Godjal was alright. I was worried that he'd met his demise in some horrible beastman's cookpot.

## Events

### Event 65535

#### Metadata

| Field        | Value   |
|--------------|---------|
| Entrypoint   | 0x0000  |
| Data Size    | 1 bytes |
| Instructions | 1       |

```
      00 01 02 03 04 05 06 07  08 09 0A 0B 0C 0D 0E 0F
      -- -- -- -- -- -- -- --  -- -- -- -- -- -- -- --
0000: 00                                                .               
```

#### Opcodes

```
  0: 0x0000 [0x00] END_REQSTACK()
```

### Event 65535.1

#### Metadata

| Field        | Value    |
|--------------|----------|
| Entrypoint   | 0x0001   |
| Data Size    | 16 bytes |
| Instructions | 2        |

```
      00 01 02 03 04 05 06 07  08 09 0A 0B 0C 0D 0E 0F
      -- -- -- -- -- -- -- --  -- -- -- -- -- -- -- --
0000:    66 00 80 F8 FF FF 7F  F8 FF FF 7F 74 6C 6B 30   f..........tlk0
0010: 00                                                .               
```

#### Opcodes

```
  0: 0x0001 [0x66] LOAD_EXT_SCHEDULER_MAIN: Load scheduler "tlk0" with entities [EventEntity, EventEntity], work=40*
  1: 0x0010 [0x00] END_REQSTACK()
```

### Event 65535.2

#### Metadata

| Field        | Value    |
|--------------|----------|
| Entrypoint   | 0x0011   |
| Data Size    | 22 bytes |
| Instructions | 4        |

```
      00 01 02 03 04 05 06 07  08 09 0A 0B 0C 0D 0E 0F
      -- -- -- -- -- -- -- --  -- -- -- -- -- -- -- --
0010:    53 F8 FF FF 7F F8 FF  FF 7F 74 6C 6B 30 5E 69   S........tlk0^i
0020: 64 6C 30 1C 01 80 00                              dl0....         
```

#### Opcodes

```
  0: 0x0011 [0x53] WAIT_SCHEDULER_TASK: Wait for scheduler "tlk0" with entities [EventEntity, EventEntity]
  1: 0x001E [0x5E] EventEntity goes idle (kills current action) (animation: "idl0")
  2: 0x0023 [0x1C] WAIT(30* ticks)
  3: 0x0026 [0x00] END_REQSTACK()
```

### Event 65535.3

#### Metadata

| Field        | Value   |
|--------------|---------|
| Entrypoint   | 0x0027  |
| Data Size    | 9 bytes |
| Instructions | 3       |

```
      00 01 02 03 04 05 06 07  08 09 0A 0B 0C 0D 0E 0F
      -- -- -- -- -- -- -- --  -- -- -- -- -- -- -- --
0020:                      5E  69 64 6C 30 1C 01 80 00         ^idl0....
```

#### Opcodes

```
  0: 0x0027 [0x5E] EventEntity goes idle (kills current action) (animation: "idl0")
  1: 0x002C [0x1C] WAIT(30* ticks)
  2: 0x002F [0x00] END_REQSTACK()
```

### Event 424

#### Metadata

| Field        | Value    |
|--------------|----------|
| Entrypoint   | 0x0030   |
| Data Size    | 33 bytes |
| Instructions | 12       |

```
      00 01 02 03 04 05 06 07  08 09 0A 0B 0C 0D 0E 0F
      -- -- -- -- -- -- -- --  -- -- -- -- -- -- -- --
0030: 1E F0 FF FF 7F 6F 70 29  08 37 E0 0E 01 01 1D 02  .....op).7......
0040: 80 23 1D 03 80 23 29 08  37 E0 0E 01 02 20 00 21  .#...#).7.... .!
0050: 00                                                .               
```

#### Opcodes

```
  0: 0x0030 [0x1E] EventEntity looks at LocalPlayer and starts talking
  1: 0x0035 [0x6F] WAIT_FRAME_DELAY: Yield until WaitTime reaches zero
  2: 0x0036 [0x70] WAIT_ENTITY_RENDER_FLAG: Wait while EventEntity->Render.Flags3 bit 2 is set (cancel turn if not)
  3: 0x0037 [0x29] REQ_SET_WAIT(priority=0x08, entity_id=Tauwawa (ID: 17752119/0x010EE037), tag_num=0x01)
  4: 0x003E [0x1D] PRINT_EVENT_MESSAGE(message_id=8340*)
    → "The School of Magic's system of "determining your future while you are young" is quite practical, really."
  5: 0x0041 [0x23] WAIT_FOR_DIALOG_INTERACTION
  6: 0x0042 [0x1D] PRINT_EVENT_MESSAGE(message_id=8341*)
    → "You don't have to fear an uncertain future, leaving you to enjoy the freedom of your youth. That way, you won't have any regrets as you get older, saying "I wish I had more fun as a kid...""
  7: 0x0045 [0x23] WAIT_FOR_DIALOG_INTERACTION
  8: 0x0046 [0x29] REQ_SET_WAIT(priority=0x08, entity_id=Tauwawa (ID: 17752119/0x010EE037), tag_num=0x02)
  9: 0x004D [0x20] SET_CLI_EVENT_UC_FLAG: Unlock player control
 10: 0x004F [0x21] END_EVENT
 11: 0x0050 [0x00] END_REQSTACK()
```

### Event 182

#### Metadata

| Field        | Value   |
|--------------|---------|
| Entrypoint   | 0x0051  |
| Data Size    | 1 bytes |
| Instructions | 1       |

```
      00 01 02 03 04 05 06 07  08 09 0A 0B 0C 0D 0E 0F
      -- -- -- -- -- -- -- --  -- -- -- -- -- -- -- --
0050:    00                                              .              
```

#### Opcodes

```
  0: 0x0051 [0x00] END_REQSTACK()
```

### Event 187

#### Metadata

| Field        | Value    |
|--------------|----------|
| Entrypoint   | 0x0052   |
| Data Size    | 33 bytes |
| Instructions | 12       |

```
      00 01 02 03 04 05 06 07  08 09 0A 0B 0C 0D 0E 0F
      -- -- -- -- -- -- -- --  -- -- -- -- -- -- -- --
0050:       1E F0 FF FF 7F 6F  70 29 08 37 E0 0E 01 01    .....op).7....
0060: 1D 04 80 23 1D 05 80 23  29 08 37 E0 0E 01 02 20  ...#...#).7.... 
0070: 00 21 00                                          .!.             
```

#### Opcodes

```
  0: 0x0052 [0x1E] EventEntity looks at LocalPlayer and starts talking
  1: 0x0057 [0x6F] WAIT_FRAME_DELAY: Yield until WaitTime reaches zero
  2: 0x0058 [0x70] WAIT_ENTITY_RENDER_FLAG: Wait while EventEntity->Render.Flags3 bit 2 is set (cancel turn if not)
  3: 0x0059 [0x29] REQ_SET_WAIT(priority=0x08, entity_id=Tauwawa (ID: 17752119/0x010EE037), tag_num=0x01)
  4: 0x0060 [0x1D] PRINT_EVENT_MESSAGE(message_id=7751*)
    → "Do your best to help us make this year's skills test as fair and square as we can. Improvisation is encouraged. The students can work in parties, and so can you."
  5: 0x0063 [0x23] WAIT_FOR_DIALOG_INTERACTION
  6: 0x0064 [0x1D] PRINT_EVENT_MESSAGE(message_id=7752*)
    → "Be careful of the time limit, though. If I were you, I'd give myself about an hour to rush back to Mr. Moreno-Toeno."
  7: 0x0067 [0x23] WAIT_FOR_DIALOG_INTERACTION
  8: 0x0068 [0x29] REQ_SET_WAIT(priority=0x08, entity_id=Tauwawa (ID: 17752119/0x010EE037), tag_num=0x02)
  9: 0x006F [0x20] SET_CLI_EVENT_UC_FLAG: Unlock player control
 10: 0x0071 [0x21] END_EVENT
 11: 0x0072 [0x00] END_REQSTACK()
```

### Event 446

#### Metadata

| Field        | Value    |
|--------------|----------|
| Entrypoint   | 0x0073   |
| Data Size    | 33 bytes |
| Instructions | 12       |

```
      00 01 02 03 04 05 06 07  08 09 0A 0B 0C 0D 0E 0F
      -- -- -- -- -- -- -- --  -- -- -- -- -- -- -- --
0070:          1E F0 FF FF 7F  6F 70 29 08 37 E0 0E 01     .....op).7...
0080: 01 1D 06 80 23 1D 07 80  23 29 08 37 E0 0E 01 02  ....#...#).7....
0090: 20 00 21 00                                        .!.            
```

#### Opcodes

```
  0: 0x0073 [0x1E] EventEntity looks at LocalPlayer and starts talking
  1: 0x0078 [0x6F] WAIT_FRAME_DELAY: Yield until WaitTime reaches zero
  2: 0x0079 [0x70] WAIT_ENTITY_RENDER_FLAG: Wait while EventEntity->Render.Flags3 bit 2 is set (cancel turn if not)
  3: 0x007A [0x29] REQ_SET_WAIT(priority=0x08, entity_id=Tauwawa (ID: 17752119/0x010EE037), tag_num=0x01)
  4: 0x0081 [0x1D] PRINT_EVENT_MESSAGE(message_id=8392*)
    → "Yesterday, a student from the advanced class named Chomoro-Kyotoro came looking for Ms. Fuepepe."
  5: 0x0084 [0x23] WAIT_FOR_DIALOG_INTERACTION
  6: 0x0085 [0x1D] PRINT_EVENT_MESSAGE(message_id=8393*)
    → "I wonder if he finally met Ms. Fuepepe? When I came back to my counter, he was already gone."
  7: 0x0088 [0x23] WAIT_FOR_DIALOG_INTERACTION
  8: 0x0089 [0x29] REQ_SET_WAIT(priority=0x08, entity_id=Tauwawa (ID: 17752119/0x010EE037), tag_num=0x02)
  9: 0x0090 [0x20] SET_CLI_EVENT_UC_FLAG: Unlock player control
 10: 0x0092 [0x21] END_EVENT
 11: 0x0093 [0x00] END_REQSTACK()
```

### Event 756

#### Metadata

| Field        | Value    |
|--------------|----------|
| Entrypoint   | 0x0094   |
| Data Size    | 33 bytes |
| Instructions | 12       |

```
      00 01 02 03 04 05 06 07  08 09 0A 0B 0C 0D 0E 0F
      -- -- -- -- -- -- -- --  -- -- -- -- -- -- -- --
0090:             1E F0 FF FF  7F 6F 70 29 08 37 E0 0E      .....op).7..
00A0: 01 01 1D 08 80 23 1D 09  80 23 29 08 37 E0 0E 01  .....#...#).7...
00B0: 02 20 00 21 00                                    . .!.           
```

#### Opcodes

```
  0: 0x0094 [0x1E] EventEntity looks at LocalPlayer and starts talking
  1: 0x0099 [0x6F] WAIT_FRAME_DELAY: Yield until WaitTime reaches zero
  2: 0x009A [0x70] WAIT_ENTITY_RENDER_FLAG: Wait while EventEntity->Render.Flags3 bit 2 is set (cancel turn if not)
  3: 0x009B [0x29] REQ_SET_WAIT(priority=0x08, entity_id=Tauwawa (ID: 17752119/0x010EE037), tag_num=0x01)
  4: 0x00A2 [0x1D] PRINT_EVENT_MESSAGE(message_id=9790*)
    → "The Manustery is currently mass-producing Cardians, but they used to manufacture magic dolls."
  5: 0x00A5 [0x23] WAIT_FOR_DIALOG_INTERACTION
  6: 0x00A6 [0x1D] PRINT_EVENT_MESSAGE(message_id=9791*)
    → "Relatively few people can master the techniques required to make them. I wonder why Professor Koru-Moru never took a position at the Manustery!"
  7: 0x00A9 [0x23] WAIT_FOR_DIALOG_INTERACTION
  8: 0x00AA [0x29] REQ_SET_WAIT(priority=0x08, entity_id=Tauwawa (ID: 17752119/0x010EE037), tag_num=0x02)
  9: 0x00B1 [0x20] SET_CLI_EVENT_UC_FLAG: Unlock player control
 10: 0x00B3 [0x21] END_EVENT
 11: 0x00B4 [0x00] END_REQSTACK()
```

### Event 762

#### Metadata

| Field        | Value    |
|--------------|----------|
| Entrypoint   | 0x00B5   |
| Data Size    | 29 bytes |
| Instructions | 10       |

```
      00 01 02 03 04 05 06 07  08 09 0A 0B 0C 0D 0E 0F
      -- -- -- -- -- -- -- --  -- -- -- -- -- -- -- --
00B0:                1E F0 FF  FF 7F 6F 70 29 08 37 E0       .....op).7.
00C0: 0E 01 01 1D 0A 80 23 29  08 37 E0 0E 01 02 20 00  ......#).7.... .
00D0: 21 00                                             !.              
```

#### Opcodes

```
  0: 0x00B5 [0x1E] EventEntity looks at LocalPlayer and starts talking
  1: 0x00BA [0x6F] WAIT_FRAME_DELAY: Yield until WaitTime reaches zero
  2: 0x00BB [0x70] WAIT_ENTITY_RENDER_FLAG: Wait while EventEntity->Render.Flags3 bit 2 is set (cancel turn if not)
  3: 0x00BC [0x29] REQ_SET_WAIT(priority=0x08, entity_id=Tauwawa (ID: 17752119/0x010EE037), tag_num=0x01)
  4: 0x00C3 [0x1D] PRINT_EVENT_MESSAGE(message_id=9806*)
    → "I'm so relieved that Sedal-Godjal was alright. I was worried that he'd met his demise in some horrible beastman's cookpot."
  5: 0x00C6 [0x23] WAIT_FOR_DIALOG_INTERACTION
  6: 0x00C7 [0x29] REQ_SET_WAIT(priority=0x08, entity_id=Tauwawa (ID: 17752119/0x010EE037), tag_num=0x02)
  7: 0x00CE [0x20] SET_CLI_EVENT_UC_FLAG: Unlock player control
  8: 0x00D0 [0x21] END_EVENT
  9: 0x00D1 [0x00] END_REQSTACK()
```
