# 17752083 - Aora-Uora

## Common Data

| Field            | Value                     |
|------------------|---------------------------|
| Zone             | Windurst Waters (ID: 238) |
| Block Size       | 420 bytes                 |
| Total Events     | 15                        |
| References Count | 13                        |

## List of Events

| Event ID                 | Entrypoint   |   Size |   Instructions |
|--------------------------|--------------|--------|----------------|
| [65535](#event-65535)    | 0x0000       |      1 |              1 |
| [65535.1](#event-655351) | 0x0001       |     16 |              2 |
| [65535.2](#event-655352) | 0x0011       |     22 |              4 |
| [65535.3](#event-655353) | 0x0027       |     16 |              2 |
| [65535.4](#event-655354) | 0x0037       |     14 |              2 |
| [65535.5](#event-655355) | 0x0045       |      9 |              3 |
| [378](#event-378)        | 0x004E       |     33 |             12 |
| [167](#event-167)        | 0x006F       |     36 |             11 |
| [175](#event-175)        | 0x0093       |     40 |             13 |
| [392](#event-392)        | 0x00BB       |     33 |             12 |
| [408](#event-408)        | 0x00DC       |     33 |             12 |
| [723](#event-723)        | 0x00FD       |     33 |             12 |
| [1156](#event-1156)      | 0x011E       |      1 |              1 |
| [1157](#event-1157)      | 0x011F       |      1 |              1 |
| [1159](#event-1159)      | 0x0120       |      1 |              1 |

## DAT References (imed_data)

|   Index | Hex Value   |   Dec Value |
|---------|-------------|-------------|
|       0 | 0x0055      |          85 |
|       1 | 0x001E      |          30 |
|       2 | 0x1FF5      |        8181 |
|       3 | 0x1FF6      |        8182 |
|       4 | 0x1E0B      |        7691 |
|       5 | 0x1E1F      |        7711 |
|       6 | 0x1E20      |        7712 |
|       7 | 0x202D      |        8237 |
|       8 | 0x202E      |        8238 |
|       9 | 0x2050      |        8272 |
|      10 | 0x2051      |        8273 |
|      11 | 0x25DB      |        9691 |
|      12 | 0x25DC      |        9692 |

## String References

- **7691**: I'm quite knowledgeable about the war of twenty years ago, as it's in our history textbooks. When the town became a battlefield, the librarians carried the books through the flames to Heavens Tower.
- **7711**: Hey, I wonder if they have any books written by one of the line of great geniuses?
- **7712**: I should ask the minister about it one day.
- **8181**: Adults are always telling us not to say unchildish things. But we youths have to know the so-called workings of this world if we're going to survive.
- **8182**: If you go too slow, you'll be left behind in this ever-changing world of ours.
- **8237**: There's an adult who spends all day sitting in the tavern.
- **8238**: He's a reporter for the "Magic Paradise Weekly." He boasts that nothing goes on in Windurst Waters without him knowing about it.
- **8272**: Mithra names are so hard to pronounce with all those h's and stuff. I can't remember them at all.
- **8273**: But it's okay, because I have the perfect system. You just call them all "Miss" all the time. But no matter how old they are, never call them "Missus," "Lady," or "Granny"...they don't seem to like that.
- **9691**: Hey, I wonder if they have any books written by one of the line of great geniuses?
- **9692**: I should ask the minister about it someday.

## Events

### Event 65535

#### Metadata

| Field        | Value   |
|--------------|---------|
| Entrypoint   | 0x0000  |
| Data Size    | 1 bytes |
| Instructions | 1       |

```
      00 01 02 03 04 05 06 07  08 09 0A 0B 0C 0D 0E 0F
      -- -- -- -- -- -- -- --  -- -- -- -- -- -- -- --
0000: 00                                                .               
```

#### Opcodes

```
  0: 0x0000 [0x00] END_REQSTACK()
```

### Event 65535.1

#### Metadata

| Field        | Value    |
|--------------|----------|
| Entrypoint   | 0x0001   |
| Data Size    | 16 bytes |
| Instructions | 2        |

```
      00 01 02 03 04 05 06 07  08 09 0A 0B 0C 0D 0E 0F
      -- -- -- -- -- -- -- --  -- -- -- -- -- -- -- --
0000:    5B 00 80 F8 FF FF 7F  F8 FF FF 7F 74 6C 6B 30   [..........tlk0
0010: 00                                                .               
```

#### Opcodes

```
  0: 0x0001 [0x5B] LOAD_EXT_SCHEDULER: Load scheduler "tlk0" with entities [EventEntity, EventEntity], work=85*
  1: 0x0010 [0x00] END_REQSTACK()
```

### Event 65535.2

#### Metadata

| Field        | Value    |
|--------------|----------|
| Entrypoint   | 0x0011   |
| Data Size    | 22 bytes |
| Instructions | 4        |

```
      00 01 02 03 04 05 06 07  08 09 0A 0B 0C 0D 0E 0F
      -- -- -- -- -- -- -- --  -- -- -- -- -- -- -- --
0010:    53 F8 FF FF 7F F8 FF  FF 7F 74 6C 6B 30 5E 69   S........tlk0^i
0020: 64 6C 30 1C 01 80 00                              dl0....         
```

#### Opcodes

```
  0: 0x0011 [0x53] WAIT_SCHEDULER_TASK: Wait for scheduler "tlk0" with entities [EventEntity, EventEntity]
  1: 0x001E [0x5E] EventEntity goes idle (kills current action) (animation: "idl0")
  2: 0x0023 [0x1C] WAIT(30* ticks)
  3: 0x0026 [0x00] END_REQSTACK()
```

### Event 65535.3

#### Metadata

| Field        | Value    |
|--------------|----------|
| Entrypoint   | 0x0027   |
| Data Size    | 16 bytes |
| Instructions | 2        |

```
      00 01 02 03 04 05 06 07  08 09 0A 0B 0C 0D 0E 0F
      -- -- -- -- -- -- -- --  -- -- -- -- -- -- -- --
0020:                      5B  00 80 F8 FF FF 7F F8 FF         [........
0030: FF 7F 65 68 65 30 00                              ..ehe0.         
```

#### Opcodes

```
  0: 0x0027 [0x5B] LOAD_EXT_SCHEDULER: Load scheduler "ehe0" with entities [EventEntity, EventEntity], work=85*
  1: 0x0036 [0x00] END_REQSTACK()
```

### Event 65535.4

#### Metadata

| Field        | Value    |
|--------------|----------|
| Entrypoint   | 0x0037   |
| Data Size    | 14 bytes |
| Instructions | 2        |

```
      00 01 02 03 04 05 06 07  08 09 0A 0B 0C 0D 0E 0F
      -- -- -- -- -- -- -- --  -- -- -- -- -- -- -- --
0030:                      53  F8 FF FF 7F F8 FF FF 7F         S........
0040: 65 68 65 30 00                                    ehe0.           
```

#### Opcodes

```
  0: 0x0037 [0x53] WAIT_SCHEDULER_TASK: Wait for scheduler "ehe0" with entities [EventEntity, EventEntity]
  1: 0x0044 [0x00] END_REQSTACK()
```

### Event 65535.5

#### Metadata

| Field        | Value   |
|--------------|---------|
| Entrypoint   | 0x0045  |
| Data Size    | 9 bytes |
| Instructions | 3       |

```
      00 01 02 03 04 05 06 07  08 09 0A 0B 0C 0D 0E 0F
      -- -- -- -- -- -- -- --  -- -- -- -- -- -- -- --
0040:                5E 69 64  6C 30 1C 01 80 00             ^idl0....  
```

#### Opcodes

```
  0: 0x0045 [0x5E] EventEntity goes idle (kills current action) (animation: "idl0")
  1: 0x004A [0x1C] WAIT(30* ticks)
  2: 0x004D [0x00] END_REQSTACK()
```

### Event 378

#### Metadata

| Field        | Value    |
|--------------|----------|
| Entrypoint   | 0x004E   |
| Data Size    | 33 bytes |
| Instructions | 12       |

```
      00 01 02 03 04 05 06 07  08 09 0A 0B 0C 0D 0E 0F
      -- -- -- -- -- -- -- --  -- -- -- -- -- -- -- --
0040:                                            1E F0                ..
0050: FF FF 7F 6F 70 29 08 13  E0 0E 01 03 1D 02 80 23  ...op).........#
0060: 1D 03 80 23 29 08 13 E0  0E 01 04 20 00 21 00     ...#)...... .!. 
```

#### Opcodes

```
  0: 0x004E [0x1E] EventEntity looks at LocalPlayer and starts talking
  1: 0x0053 [0x6F] WAIT_FRAME_DELAY: Yield until WaitTime reaches zero
  2: 0x0054 [0x70] WAIT_ENTITY_RENDER_FLAG: Wait while EventEntity->Render.Flags3 bit 2 is set (cancel turn if not)
  3: 0x0055 [0x29] REQ_SET_WAIT(priority=0x08, entity_id=Aora-Uora (ID: 17752083/0x010EE013), tag_num=0x03)
  4: 0x005C [0x1D] PRINT_EVENT_MESSAGE(message_id=8181*)
    → "Adults are always telling us not to say unchildish things. But we youths have to know the so-called workings of this world if we're going to survive."
  5: 0x005F [0x23] WAIT_FOR_DIALOG_INTERACTION
  6: 0x0060 [0x1D] PRINT_EVENT_MESSAGE(message_id=8182*)
    → "If you go too slow, you'll be left behind in this ever-changing world of ours."
  7: 0x0063 [0x23] WAIT_FOR_DIALOG_INTERACTION
  8: 0x0064 [0x29] REQ_SET_WAIT(priority=0x08, entity_id=Aora-Uora (ID: 17752083/0x010EE013), tag_num=0x04)
  9: 0x006B [0x20] SET_CLI_EVENT_UC_FLAG: Unlock player control
 10: 0x006D [0x21] END_EVENT
 11: 0x006E [0x00] END_REQSTACK()
```

### Event 167

#### Metadata

| Field        | Value    |
|--------------|----------|
| Entrypoint   | 0x006F   |
| Data Size    | 36 bytes |
| Instructions | 11       |

```
      00 01 02 03 04 05 06 07  08 09 0A 0B 0C 0D 0E 0F
      -- -- -- -- -- -- -- --  -- -- -- -- -- -- -- --
0060:                                               1E                 .
0070: F0 FF FF 7F 6F 70 29 08  13 E0 0E 01 01 1D 04 80  ....op).........
0080: 23 29 08 13 E0 0E 01 02  29 08 13 E0 0E 01 05 20  #)......)...... 
0090: 00 21 00                                          .!.             
```

#### Opcodes

```
  0: 0x006F [0x1E] EventEntity looks at LocalPlayer and starts talking
  1: 0x0074 [0x6F] WAIT_FRAME_DELAY: Yield until WaitTime reaches zero
  2: 0x0075 [0x70] WAIT_ENTITY_RENDER_FLAG: Wait while EventEntity->Render.Flags3 bit 2 is set (cancel turn if not)
  3: 0x0076 [0x29] REQ_SET_WAIT(priority=0x08, entity_id=Aora-Uora (ID: 17752083/0x010EE013), tag_num=0x01)
  4: 0x007D [0x1D] PRINT_EVENT_MESSAGE(message_id=7691*)
    → "I'm quite knowledgeable about the war of twenty years ago, as it's in our history textbooks. When the town became a battlefield, the librarians carried the books through the flames to Heavens Tower."
  5: 0x0080 [0x23] WAIT_FOR_DIALOG_INTERACTION
  6: 0x0081 [0x29] REQ_SET_WAIT(priority=0x08, entity_id=Aora-Uora (ID: 17752083/0x010EE013), tag_num=0x02)
  7: 0x0088 [0x29] REQ_SET_WAIT(priority=0x08, entity_id=Aora-Uora (ID: 17752083/0x010EE013), tag_num=0x05)
  8: 0x008F [0x20] SET_CLI_EVENT_UC_FLAG: Unlock player control
  9: 0x0091 [0x21] END_EVENT
 10: 0x0092 [0x00] END_REQSTACK()
```

### Event 175

#### Metadata

| Field        | Value    |
|--------------|----------|
| Entrypoint   | 0x0093   |
| Data Size    | 40 bytes |
| Instructions | 13       |

```
      00 01 02 03 04 05 06 07  08 09 0A 0B 0C 0D 0E 0F
      -- -- -- -- -- -- -- --  -- -- -- -- -- -- -- --
0090:          1E F0 FF FF 7F  6F 70 29 08 13 E0 0E 01     .....op).....
00A0: 01 1D 05 80 23 1D 06 80  23 29 08 13 E0 0E 01 02  ....#...#)......
00B0: 29 08 13 E0 0E 01 05 20  00 21 00                 )...... .!.     
```

#### Opcodes

```
  0: 0x0093 [0x1E] EventEntity looks at LocalPlayer and starts talking
  1: 0x0098 [0x6F] WAIT_FRAME_DELAY: Yield until WaitTime reaches zero
  2: 0x0099 [0x70] WAIT_ENTITY_RENDER_FLAG: Wait while EventEntity->Render.Flags3 bit 2 is set (cancel turn if not)
  3: 0x009A [0x29] REQ_SET_WAIT(priority=0x08, entity_id=Aora-Uora (ID: 17752083/0x010EE013), tag_num=0x01)
  4: 0x00A1 [0x1D] PRINT_EVENT_MESSAGE(message_id=7711*)
    → "Hey, I wonder if they have any books written by one of the line of great geniuses?"
  5: 0x00A4 [0x23] WAIT_FOR_DIALOG_INTERACTION
  6: 0x00A5 [0x1D] PRINT_EVENT_MESSAGE(message_id=7712*)
    → "I should ask the minister about it one day."
  7: 0x00A8 [0x23] WAIT_FOR_DIALOG_INTERACTION
  8: 0x00A9 [0x29] REQ_SET_WAIT(priority=0x08, entity_id=Aora-Uora (ID: 17752083/0x010EE013), tag_num=0x02)
  9: 0x00B0 [0x29] REQ_SET_WAIT(priority=0x08, entity_id=Aora-Uora (ID: 17752083/0x010EE013), tag_num=0x05)
 10: 0x00B7 [0x20] SET_CLI_EVENT_UC_FLAG: Unlock player control
 11: 0x00B9 [0x21] END_EVENT
 12: 0x00BA [0x00] END_REQSTACK()
```

### Event 392

#### Metadata

| Field        | Value    |
|--------------|----------|
| Entrypoint   | 0x00BB   |
| Data Size    | 33 bytes |
| Instructions | 12       |

```
      00 01 02 03 04 05 06 07  08 09 0A 0B 0C 0D 0E 0F
      -- -- -- -- -- -- -- --  -- -- -- -- -- -- -- --
00B0:                                   1E F0 FF FF 7F             .....
00C0: 6F 70 29 08 13 E0 0E 01  01 1D 07 80 23 1D 08 80  op).........#...
00D0: 23 29 08 13 E0 0E 01 05  20 00 21 00              #)...... .!.    
```

#### Opcodes

```
  0: 0x00BB [0x1E] EventEntity looks at LocalPlayer and starts talking
  1: 0x00C0 [0x6F] WAIT_FRAME_DELAY: Yield until WaitTime reaches zero
  2: 0x00C1 [0x70] WAIT_ENTITY_RENDER_FLAG: Wait while EventEntity->Render.Flags3 bit 2 is set (cancel turn if not)
  3: 0x00C2 [0x29] REQ_SET_WAIT(priority=0x08, entity_id=Aora-Uora (ID: 17752083/0x010EE013), tag_num=0x01)
  4: 0x00C9 [0x1D] PRINT_EVENT_MESSAGE(message_id=8237*)
    → "There's an adult who spends all day sitting in the tavern."
  5: 0x00CC [0x23] WAIT_FOR_DIALOG_INTERACTION
  6: 0x00CD [0x1D] PRINT_EVENT_MESSAGE(message_id=8238*)
    → "He's a reporter for the "Magic Paradise Weekly." He boasts that nothing goes on in Windurst Waters without him knowing about it."
  7: 0x00D0 [0x23] WAIT_FOR_DIALOG_INTERACTION
  8: 0x00D1 [0x29] REQ_SET_WAIT(priority=0x08, entity_id=Aora-Uora (ID: 17752083/0x010EE013), tag_num=0x05)
  9: 0x00D8 [0x20] SET_CLI_EVENT_UC_FLAG: Unlock player control
 10: 0x00DA [0x21] END_EVENT
 11: 0x00DB [0x00] END_REQSTACK()
```

### Event 408

#### Metadata

| Field        | Value    |
|--------------|----------|
| Entrypoint   | 0x00DC   |
| Data Size    | 33 bytes |
| Instructions | 12       |

```
      00 01 02 03 04 05 06 07  08 09 0A 0B 0C 0D 0E 0F
      -- -- -- -- -- -- -- --  -- -- -- -- -- -- -- --
00D0:                                      1E F0 FF FF              ....
00E0: 7F 6F 70 29 08 13 E0 0E  01 01 1D 09 80 23 1D 0A  .op).........#..
00F0: 80 23 29 08 13 E0 0E 01  05 20 00 21 00           .#)...... .!.   
```

#### Opcodes

```
  0: 0x00DC [0x1E] EventEntity looks at LocalPlayer and starts talking
  1: 0x00E1 [0x6F] WAIT_FRAME_DELAY: Yield until WaitTime reaches zero
  2: 0x00E2 [0x70] WAIT_ENTITY_RENDER_FLAG: Wait while EventEntity->Render.Flags3 bit 2 is set (cancel turn if not)
  3: 0x00E3 [0x29] REQ_SET_WAIT(priority=0x08, entity_id=Aora-Uora (ID: 17752083/0x010EE013), tag_num=0x01)
  4: 0x00EA [0x1D] PRINT_EVENT_MESSAGE(message_id=8272*)
    → "Mithra names are so hard to pronounce with all those h's and stuff. I can't remember them at all."
  5: 0x00ED [0x23] WAIT_FOR_DIALOG_INTERACTION
  6: 0x00EE [0x1D] PRINT_EVENT_MESSAGE(message_id=8273*)
    → "But it's okay, because I have the perfect system. You just call them all "Miss" all the time. But no matter how old they are, never call them "Missus," "Lady," or "Granny"...they don't seem to like that."
  7: 0x00F1 [0x23] WAIT_FOR_DIALOG_INTERACTION
  8: 0x00F2 [0x29] REQ_SET_WAIT(priority=0x08, entity_id=Aora-Uora (ID: 17752083/0x010EE013), tag_num=0x05)
  9: 0x00F9 [0x20] SET_CLI_EVENT_UC_FLAG: Unlock player control
 10: 0x00FB [0x21] END_EVENT
 11: 0x00FC [0x00] END_REQSTACK()
```

### Event 723

#### Metadata

| Field        | Value    |
|--------------|----------|
| Entrypoint   | 0x00FD   |
| Data Size    | 33 bytes |
| Instructions | 12       |

```
      00 01 02 03 04 05 06 07  08 09 0A 0B 0C 0D 0E 0F
      -- -- -- -- -- -- -- --  -- -- -- -- -- -- -- --
00F0:                                         1E F0 FF               ...
0100: FF 7F 6F 70 29 08 13 E0  0E 01 01 1D 0B 80 23 1D  ..op).........#.
0110: 0C 80 23 29 08 13 E0 0E  01 05 20 00 21 00        ..#)...... .!.  
```

#### Opcodes

```
  0: 0x00FD [0x1E] EventEntity looks at LocalPlayer and starts talking
  1: 0x0102 [0x6F] WAIT_FRAME_DELAY: Yield until WaitTime reaches zero
  2: 0x0103 [0x70] WAIT_ENTITY_RENDER_FLAG: Wait while EventEntity->Render.Flags3 bit 2 is set (cancel turn if not)
  3: 0x0104 [0x29] REQ_SET_WAIT(priority=0x08, entity_id=Aora-Uora (ID: 17752083/0x010EE013), tag_num=0x01)
  4: 0x010B [0x1D] PRINT_EVENT_MESSAGE(message_id=9691*)
    → "Hey, I wonder if they have any books written by one of the line of great geniuses?"
  5: 0x010E [0x23] WAIT_FOR_DIALOG_INTERACTION
  6: 0x010F [0x1D] PRINT_EVENT_MESSAGE(message_id=9692*)
    → "I should ask the minister about it someday."
  7: 0x0112 [0x23] WAIT_FOR_DIALOG_INTERACTION
  8: 0x0113 [0x29] REQ_SET_WAIT(priority=0x08, entity_id=Aora-Uora (ID: 17752083/0x010EE013), tag_num=0x05)
  9: 0x011A [0x20] SET_CLI_EVENT_UC_FLAG: Unlock player control
 10: 0x011C [0x21] END_EVENT
 11: 0x011D [0x00] END_REQSTACK()
```

### Event 1156

#### Metadata

| Field        | Value   |
|--------------|---------|
| Entrypoint   | 0x011E  |
| Data Size    | 1 bytes |
| Instructions | 1       |

```
      00 01 02 03 04 05 06 07  08 09 0A 0B 0C 0D 0E 0F
      -- -- -- -- -- -- -- --  -- -- -- -- -- -- -- --
0110:                                            00                   . 
```

#### Opcodes

```
  0: 0x011E [0x00] END_REQSTACK()
```

### Event 1157

#### Metadata

| Field        | Value   |
|--------------|---------|
| Entrypoint   | 0x011F  |
| Data Size    | 1 bytes |
| Instructions | 1       |

```
      00 01 02 03 04 05 06 07  08 09 0A 0B 0C 0D 0E 0F
      -- -- -- -- -- -- -- --  -- -- -- -- -- -- -- --
0110:                                               00                 .
```

#### Opcodes

```
  0: 0x011F [0x00] END_REQSTACK()
```

### Event 1159

#### Metadata

| Field        | Value   |
|--------------|---------|
| Entrypoint   | 0x0120  |
| Data Size    | 1 bytes |
| Instructions | 1       |

```
      00 01 02 03 04 05 06 07  08 09 0A 0B 0C 0D 0E 0F
      -- -- -- -- -- -- -- --  -- -- -- -- -- -- -- --
0120: 00                                                .               
```

#### Opcodes

```
  0: 0x0120 [0x00] END_REQSTACK()
```
